VERSION E05

PL6.E3A0      #001=ASR$R_USER File=ASR$REMOVE_USER.:E05TSI                       TUE 07/29/97 10:51 Page:1
        1        1        /*M* ASR$R_USER - processes REMOVE USER command.     */
        2        2        /*T***********************************************************/
        3        3        /*T*                                                         */
        4        4        /*T* Copyright (c) Bull HN Information Systems Inc., 1997    */
        5        5        /*T*                                                         */
        6        6        /*T***********************************************************/
        7        7        /*X*  DMC,DMR,CCC,PLM=0,IND=3,CTI=5,DCI=6,IAD=0,DTI=0,IDT=0,ENI=3,
        8        8              ECU=3,CSU=3,SDI=3                                           */
        9        9                                                              /**/
       10       10        ASR$R_USER: PROC( FACCOUNT_OPT ) ALTRET;
       11       11                                                              /**/
       12       12        /********************************************************************/
       13       13        /*   Include files   include files   include files   include files   */
       14       14        /*********************************************************************/
       15       15                                                              /**/
       16       16        %INCLUDE    AS_ENTRIES_M ;
       17     1066        %INCLUDE    AS_SUPER_C ;
       18     1501        %INCLUDE    AS_SUBS_C  ;
       19     2915        %INCLUDE    AS_MAC_C   ;
       20     2995        %INCLUDE    KL_SUPER_C ;
       21     5897        %INCLUDE    XU_MACRO_C ;
       22     9003        %INCLUDE    XU_FORMAT_C ;
       23     9165        %INCLUDE    AS_PERR_C ;
       24     9767        %INCLUDE    AS_SUPER_R ;
       25    12783
       26    12784        /********************************************************************/
       27    12785        /*   Parameter      parameter      parameter      parameter         */
       28    12786        /*********************************************************************/
       29    12787                                                              /**/
       30    12788    1   DCL FACCOUNT_OPT BIT(1) ALIGNED;
       31    12789        %PLIST ;
       32    12790                                                              /**/
       33    12791        /********************************************************************/
       34    12792        /*   Entry dcls      entry dcls      entry dcls      entry dcls      */
       35    12793        /*********************************************************************/
       36    12794                                                              /**/
       37    12795        %ASB$DELREC_USERS ;
PL6.E3A0      #001=ASR$R_USER File=ASR$REMOVE_USER.:E05TSI                       TUE 07/29/97 10:51 Page:2
       38    12798        %ASB$DELREC_HLP ;
       39    12801        %ASB$ENQ ;
       40    12804        %ASB$DEQ ;
       41    12807        %ASB$ENQ_USERS ;
       42    12810        %ASB$READ_USERS ;
       43    12813        %ASB$WRITE_USERS ;
       44    12816        %ASB$LIST ;
       45    12819        %ASB$GETSEG ;
       46    12822        %ASB$PIG ;
       47    12825        %ASH$ERROR ;
       48    12828        %ASH$WARN ;
       49    12831                                                              /**/
       50    12832
       51    12833
       52    12834        /********************************************************************/
       53    12835        /*   Auto data       auto data       auto data       auto data       */
       54    12836        /*********************************************************************/
       55    12837                                                              /**/
       56    12838    1   DCL I UBIN ;
       57    12839    1   DCL 1 KEY ALIGNED ,
       58    12840    1          2 CNT UBIN(9) UNAL ,
       59    12841    1          2 TEXT CHAR(20) UNAL ;
       60    12842        /********************************************************************/
       61    12843        /*   Based data      based data      based data      based data      */
       62    12844        /*********************************************************************/
       63    12845                                                              /**/
       64    12846        %SUPER_TO_PIG( VARY=NO, STCLASS="BASED(DSEG1$)" );
       65    12878
       66    12879        %EJECT;
PL6.E3A0      #001=ASR$R_USER File=ASR$REMOVE_USER.:E05TSI                       TUE 07/29/97 10:51 Page:3
       67    12880                                                              /**/
       68    12881        /********************************************************************/
       69    12882        /*   Procedure       procedure       procedure       procedure       */
       70    12883        /*********************************************************************/
       71    12884                                                              /**/
       72    12885        /*
       73    12886            ***            Begin procedure                    ***
       74    12887        */
       75    12888        /*
       76    12889           Append an s to USERS_KEY.
       77    12890           Read :USERS keyed.
       78    12891           If the read returns then the object is a project and not a user.
       79    12892           We wish to disallow that.  So, issue a warning message that the
       80    12893           object is a project and will not be removed.  And then return.
       81    12894           If the read altreturns, then the object is possibly a user.
       82    12895           In which case, remove the s we added earlier, reset the count
       83    12896           on the USERS_KEY, and continue processing.
       84    12897        */
       85    12898    1   I = USERS_KEY.COUNT;
       86    12899    1   USERS_KEY.UKEY.S = 'S';
       87    12900    1   USERS_KEY.COUNT = 21;
       88    12901    2   CALL ASB$READ_USERS (AS_USERS) WHENRETURN DO;
       89    12902        /*E*  ERROR:  ASR-E$PROJ_NOT_USER_REMOVE-0
       90    12903              MESSAGE:  %U1,%U2 is a project not a user.
       91    12904                        %U1,%U2 cannot be removed with a REMOVE user command.
       92    12905        */
       93    12906    2      CALL INDEX (I,' ',SUBSTR(USERS_KEY.TXTC,0,8));
       94    12907    2      AS_FIELD1.COUNT = I;
       95    12908    2      AS_FIELD1.TEXT = SUBSTR(USERS_KEY.TXTC,0,I);
       96    12909    2      CALL INDEX (I,' ',SUBSTR(USERS_KEY.TXTC,8,12));
       97    12910    2      AS_FIELD2.COUNT = I;
       98    12911    2      AS_FIELD2.TEXT = SUBSTR(USERS_KEY.TXTC,8,I);
       99    12912           %SCREAM (ERR#=%E$PROJ_NOT_USER_REMOVE, LEVEL=WARN, MID='R');
      100    12927    2      ALTRETURN;
      101    12928    2      END; /*  Whenreturn  */
      102    12929    1   USERS_KEY.COUNT = I;
      103    12930    1   CALL ASB$ENQ ALTRET( ENQ_ERR ) ;
PL6.E3A0      #001=ASR$R_USER File=ASR$REMOVE_USER.:E05TSI                       TUE 07/29/97 10:51 Page:4
      104    12931    1   ENQDEQ_FLG = AS_TRUE ;
      105    12932    1   CALL ASB$DELREC_USERS;
      106    12933    1   CALL ASB$DELREC_HLP;
      107    12934    1   CALL ASB$LIST( USERS_KEY );
      108    12935    2   IF FACCOUNT_OPT THEN DO;        /* Delete file management account */
      109    12936    2      IF NOT DSEG_FLG THEN
      110    12937    3         CALL ASB$GETSEG WHENALTRETURN DO ;
      111    12938                 %SCREAM (ERR#=%E$GETSEGERR, LEVEL=ERROR, MID='R' );
      112    12953    3            END; /*  Whenaltreturn from ASB$GETSEG  */
      113    12954    2      SUPER_TO_PIG.TYPE = %DELETE_ACCT;
      114    12955    2      SUPER_TO_PIG.WIDTH = LO_WIDTH;
      115    12956    2      SUPER_TO_PIG.PROJ = (AS_PROJECT_ADMIN ~= AS_NONE );
      116    12957    2      SUPER_TO_PIG.RESUPER = AS_LOGON_KEY.TEXT;
      117    12958    2      SUPER_TO_PIG.PROJECT_TEXT = AS_PROJECT_ADMIN.TEXT;
      118    12959    2      SUPER_TO_PIG.PACKSET = AS_USERS.HPSN;
      119    12960    2      SUPER_TO_PIG.ACCT    = AS_USERS.ACCT;
      120    12961    2      SUPER_TO_PIG.ATTR.COUNT = 0;
      121    12962    2      CALL ASB$PIG( SUPER_TO_PIG );
      122    12963    2      END;
      123    12964    2   IF AS_PROJECT_ADMIN ~= AS_NONE THEN DO;
      124    12965    2      USERS_KEY.SKEY.USER = SUBSTR(USERS_KEY.TXTC,0,USERS_KEY.COUNT );
      125    12966    2      USERS_KEY.SKEY.CREATOR = AS_PROJECT_ADMIN.TEXT;
      126    12967    2      USERS_KEY.SKEY.PROJ = 0;
      127    12968    2      USERS_KEY.COUNT = USERS_KEY.COUNT + 21;
      128    12969    2      CALL ASB$ENQ_USERS ALTRET( ENQ_ERR );
      129    12970    2      CALL ASB$DELREC_USERS;
      130    12971    2      END;
      131    12972    1   ELSE
      132    12973    2      IF AS_USERS.BUDGET.MACCT ~= AS_NONE THEN DO;
      133    12974    2         KEY = USERS_KEY;
      134    12975    2         USERS_KEY.COUNT = USERS_KEY.COUNT + 21;
      135    12976    2         USERS_KEY.SKEY.PROJ = 0;
      136    12977    2         USERS_KEY.SKEY.CREATOR = AS_USERS.BUDGET.MACCT_.TEXT;
      137    12978    2         USERS_KEY.SKEY.USER = KEY.TEXT;
      138    12979    2         CALL ASB$ENQ_USERS   ALTRET( ENQ_ERR );
      139    12980    2         CALL ASB$DELREC_USERS;
      140    12981    2         CALL CONCAT( USERS_KEY.TXTC, AS_USERS.BUDGET.MACCT_.TEXT, 'S' );
PL6.E3A0      #001=ASR$R_USER File=ASR$REMOVE_USER.:E05TSI                       TUE 07/29/97 10:51 Page:5
      141    12982    2         USERS_KEY.COUNT = 21;
      142    12983    2         CALL ASB$ENQ_USERS ALTRET( ENQ_ERR );
      143    12984    2         CALL ASB$READ_USERS( AS_USERS ) ALTRET( ENQ_ERR );
      144    12985    2         AS_USERS.BUDGET.PROJ_CREATED = AS_USERS.BUDGET.PROJ_CREATED - 1;
      145    12986    2         CALL ASB$WRITE_USERS( AS_USERS );
      146    12987    2         USERS_KEY = KEY;
      147    12988    2         END;
      148    12989    1   CALL ASB$DEQ;
      149    12990    1   ENQDEQ_FLG = AS_FALSE ;
      150    12991    1   ENQ_ERR: ;
      151    12992    1   RETURN ;
      152    12993                                                              /**/
      153    12994                                                              /**/
      154    12995    1   END   ASR$R_USER ;

PL6.E3A0      #001=ASR$R_USER File=ASR$REMOVE_USER.:E05TSI                       TUE 07/29/97 10:51 Page:6
--  Include file information  --

   AS_SUPER_R.:E05TOU  cannot be made into a system file and is referenced.
   AS_PERR_C.:E05TOU  is referenced.
   XU_FORMAT_C.:E05TOU  is referenced.
   XU_MACRO_C.:E05TOU  is referenced.
   KL_SUPER_C.:E05TOU  is referenced.
   AS_MAC_C.:E05TOU  cannot be made into a system file and is referenced.
   AS_SUBS_C.:E05TOU  is referenced.
   AS_SUPER_C.:E05TOU  is referenced.
   AS_ENTRIES_M.:E05TOU  is referenced.
      No diagnostics issued in procedure ASR$R_USER.

   Procedure ASR$R_USER requires 193 words for executable code.
   Procedure ASR$R_USER requires 12 words of local(AUTO) storage.

    No errors detected in file ASR$REMOVE_USER.:E05TSI    .

PL6.E3A0      #001=ASR$R_USER File=ASR$REMOVE_USER.:E05TSI                       TUE 07/29/97 10:51 Page:7

 Object Unit name= ASR$R_USER                                 File name= ASR$REMOVE_USER.:E05TOU
 UTS= JUL 29 '97 10:51:26.64 TUE                              Compiler= PL-6/E31         Sev=      00
 SharedLib= :SHARED_SYSTEM                                    Alt SharedLib=


    ****  Control sections  ****

 Sect   Type Bound  Init  Size OctSiz  Section name(segment info)
    0   DCB   even  none     0      0  M$LO
    1  RoData even  UTS      2      2  ASR$R_USER
    2   Proc  even  none   193    301  ASR$R_USER
    3  RoData even  none     5      5  ASR$R_USER

    ****  Entry defs  ****

                              Check   Calling
                             calling  sequence
  Sect OctLoc Primary Altret sequence   type   Parms  Name
     2      0   yes    yes     yes      Std        1  ASR$R_USER
PL6.E3A0      #001=ASR$R_USER File=ASR$REMOVE_USER.:E05TSI                       TUE 07/29/97 10:51 Page:8

  ****  Entry refs  ****

         Check        Calling
        calling       sequence
Altret sequence SRef   type   Args  Name
         yes          ~proc      0 XU_OUTPUT_OPTIONS
 yes     yes           Std       1 ASB$READ_USERS
 yes     yes           Std       0 ASB$DELREC_HLP
 yes     yes           Std       0 ASB$ENQ_USERS
 yes     yes           Std       1 ASB$WRITE_USERS
 yes     yes           Std       0 ASB$ENQ
 yes     yes           Std       1 ASB$PIG
 yes     yes           Std       0 ASB$DEQ
         yes           Std       2 ASH$WARN
 yes     yes           Std       0 ASB$DELREC_USERS
         yes           Std       1 ASB$LIST
         yes           Std       2 ASH$ERROR
 yes     yes           Std       0 ASB$GETSEG
                       nStd      0 X66_AUTO_1
                       Std       0 B_CONSPOOL_D
                       nStd      0 X66_AALT
                       nStd      0 X66_ARET

  ****  Data refs  ****

  Flags:  r = read only, s = secondary
Flgs Name                             Flgs Name                             Flgs Name
r    AS_TRUE                          r    AS_FALSE                         r    AS_NONE
r    AS_MODE                          r    AS_FE_MODE                            M$LO
     USERS_KEY                             LO_WIDTH                              ERR_CODE
     AS_FIELD1                             AS_FIELD2                             REMEM_VAR
     REM_FCMD                              ASA_BRKS_LOC                          DSEG_FLG
     DSEG1$                                ENQDEQ_FLG                            AS_PROJECT_ADMIN
     AS_LOGON_KEY                          AS_USERS                              B_VECTNIL
PL6.E3A0      #001=ASR$R_USER File=ASR$REMOVE_USER.:E05TSI                       TUE 07/29/97 10:51 Page:9

  ****  Segment refs  ****

  Flags:  r = read only, s = secondary
Flgs Name                             Flgs Name                             Flgs Name
     ISSID
PL6.E3A0      #001=ASR$R_USER File=ASR$REMOVE_USER.:E05TSI                       TUE 07/29/97 10:51 Page:10


        1        1        /*M* ASR$R_USER - processes REMOVE USER command.     */
        2        2        /*T***********************************************************/
        3        3        /*T*                                                         */
        4        4        /*T* Copyright (c) Bull HN Information Systems Inc., 1997    */
        5        5        /*T*                                                         */
        6        6        /*T***********************************************************/
        7        7        /*X*  DMC,DMR,CCC,PLM=0,IND=3,CTI=5,DCI=6,IAD=0,DTI=0,IDT=0,ENI=3,
        8        8              ECU=3,CSU=3,SDI=3                                           */
        9        9                                                              /**/
       10       10        ASR$R_USER: PROC( FACCOUNT_OPT ) ALTRET;

     10  2 000000   000000 700200 xent  ASR$R_USER   TSX0  ! X66_AUTO_1
         2 000001   000014 000001                    ZERO    12,1

       11       11                                                              /**/
       12       12        /********************************************************************/
       13       13        /*   Include files   include files   include files   include files   */
       14       14        /*********************************************************************/
       15       15                                                              /**/
       16       16        %INCLUDE    AS_ENTRIES_M ;
       17     1066        %INCLUDE    AS_SUPER_C ;
       18     1501        %INCLUDE    AS_SUBS_C  ;
       19     2915        %INCLUDE    AS_MAC_C   ;
       20     2995        %INCLUDE    KL_SUPER_C ;
       21     5897        %INCLUDE    XU_MACRO_C ;
       22     9003        %INCLUDE    XU_FORMAT_C ;
       23     9165        %INCLUDE    AS_PERR_C ;
       24     9767        %INCLUDE    AS_SUPER_R ;
       25    12783
       26    12784        /********************************************************************/
       27    12785        /*   Parameter      parameter      parameter      parameter         */
       28    12786        /*********************************************************************/
       29    12787                                                              /**/
       30    12788    1   DCL FACCOUNT_OPT BIT(1) ALIGNED;
       31    12789        %PLIST ;
       32    12790                                                              /**/
PL6.E3A0      #001=ASR$R_USER File=ASR$REMOVE_USER.:E05TSI                       TUE 07/29/97 10:51 Page:11
       33    12791        /********************************************************************/
       34    12792        /*   Entry dcls      entry dcls      entry dcls      entry dcls      */
       35    12793        /*********************************************************************/
       36    12794                                                              /**/
       37    12795        %ASB$DELREC_USERS ;
       38    12798        %ASB$DELREC_HLP ;
       39    12801        %ASB$ENQ ;
       40    12804        %ASB$DEQ ;
       41    12807        %ASB$ENQ_USERS ;
       42    12810        %ASB$READ_USERS ;
       43    12813        %ASB$WRITE_USERS ;
       44    12816        %ASB$LIST ;
       45    12819        %ASB$GETSEG ;
       46    12822        %ASB$PIG ;
       47    12825        %ASH$ERROR ;
       48    12828        %ASH$WARN ;
       49    12831                                                              /**/
       50    12832
       51    12833
       52    12834        /********************************************************************/
       53    12835        /*   Auto data       auto data       auto data       auto data       */
       54    12836        /*********************************************************************/
       55    12837                                                              /**/
       56    12838    1   DCL I UBIN ;
       57    12839    1   DCL 1 KEY ALIGNED ,
       58    12840    1          2 CNT UBIN(9) UNAL ,
       59    12841    1          2 TEXT CHAR(20) UNAL ;
       60    12842        /********************************************************************/
       61    12843        /*   Based data      based data      based data      based data      */
       62    12844        /*********************************************************************/
       63    12845                                                              /**/
       64    12846        %SUPER_TO_PIG( VARY=NO, STCLASS="BASED(DSEG1$)" );
       65    12878
       66    12879        %EJECT;
PL6.E3A0      #001=ASR$R_USER File=ASR$REMOVE_USER.:E05TSI                       TUE 07/29/97 10:51 Page:12
       67    12880                                                              /**/
       68    12881        /********************************************************************/
       69    12882        /*   Procedure       procedure       procedure       procedure       */
       70    12883        /*********************************************************************/
       71    12884                                                              /**/
       72    12885        /*
       73    12886            ***            Begin procedure                    ***
       74    12887        */
       75    12888        /*
       76    12889           Append an s to USERS_KEY.
       77    12890           Read :USERS keyed.
       78    12891           If the read returns then the object is a project and not a user.
       79    12892           We wish to disallow that.  So, issue a warning message that the
       80    12893           object is a project and will not be removed.  And then return.
       81    12894           If the read altreturns, then the object is possibly a user.
       82    12895           In which case, remove the s we added earlier, reset the count
       83    12896           on the USERS_KEY, and continue processing.
       84    12897        */
       85    12898    1   I = USERS_KEY.COUNT;

  12898  2 000002   000000 236000 xsym               LDQ     USERS_KEY
         2 000003   000033 772000                    QRL     27
         2 000004   200004 756100                    STQ     I,,AUTO

       86    12899    1   USERS_KEY.UKEY.S = 'S';

  12899  2 000005   000123 236003                    LDQ     83,DU
         2 000006   000005 552020 xsym               STBQ    USERS_KEY+5,'20'O

       87    12900    1   USERS_KEY.COUNT = 21;

  12900  2 000007   025000 236003                    LDQ     10752,DU
         2 000010   000000 552040 xsym               STBQ    USERS_KEY,'40'O

       88    12901    2   CALL ASB$READ_USERS (AS_USERS) WHENRETURN DO;

  12901  2 000011   000000 630400 3                  EPPR0   0
PL6.E3A0      #001=ASR$R_USER File=ASR$REMOVE_USER.:E05TSI                       TUE 07/29/97 10:51 Page:13
         2 000012   000017 631400 xsym               EPPR1   B_VECTNIL+15
         2 000013   000000 701000 xent               TSX1    ASB$READ_USERS
         2 000014   000050 702000 2                  TSX2    s:12929

       89    12902        /*E*  ERROR:  ASR-E$PROJ_NOT_USER_REMOVE-0
       90    12903              MESSAGE:  %U1,%U2 is a project not a user.
       91    12904                        %U1,%U2 cannot be removed with a REMOVE user command.
       92    12905        */
       93    12906    2      CALL INDEX (I,' ',SUBSTR(USERS_KEY.TXTC,0,8));

  12906  2 000015   000000 124400                    SCM     mask='000'O
         2 000016   000000 200010 xsym               ADSC9   USERS_KEY                cn=1,n=8
         2 000017   000035 000001 xsym               ADSC9   B_VECTNIL+29             cn=0,n=1
         2 000020   200004 000100                    ARG     I,,AUTO

       94    12907    2      AS_FIELD1.COUNT = I;

  12907  2 000021   200004 236100                    LDQ     I,,AUTO
         2 000022   000033 736000                    QLS     27
         2 000023   000000 552040 xsym               STBQ    AS_FIELD1,'40'O

       95    12908    2      AS_FIELD1.TEXT = SUBSTR(USERS_KEY.TXTC,0,I);

  12908  2 000024   200004 720100                    LXL0    I,,AUTO
         2 000025   040000 100440                    MLR     fill='040'O
         2 000026   000000 200010 xsym               ADSC9   USERS_KEY                cn=1,n=*X0
         2 000027   000000 200050 xsym               ADSC9   AS_FIELD1                cn=1,n=40

       96    12909    2      CALL INDEX (I,' ',SUBSTR(USERS_KEY.TXTC,8,12));

  12909  2 000030   000000 124400                    SCM     mask='000'O
         2 000031   000002 200014 xsym               ADSC9   USERS_KEY+2              cn=1,n=12
         2 000032   000035 000001 xsym               ADSC9   B_VECTNIL+29             cn=0,n=1
         2 000033   200004 000100                    ARG     I,,AUTO

       97    12910    2      AS_FIELD2.COUNT = I;

PL6.E3A0      #001=ASR$R_USER File=ASR$REMOVE_USER.:E05TSI                       TUE 07/29/97 10:51 Page:14
  12910  2 000034   200004 236100                    LDQ     I,,AUTO
         2 000035   000033 736000                    QLS     27
         2 000036   000000 552040 xsym               STBQ    AS_FIELD2,'40'O

       98    12911    2      AS_FIELD2.TEXT = SUBSTR(USERS_KEY.TXTC,8,I);

  12911  2 000037   200004 720100                    LXL0    I,,AUTO
         2 000040   040000 100440                    MLR     fill='040'O
         2 000041   000002 200010 xsym               ADSC9   USERS_KEY+2              cn=1,n=*X0
         2 000042   000000 200050 xsym               ADSC9   AS_FIELD2                cn=1,n=40

       99    12912           %SCREAM (ERR#=%E$PROJ_NOT_USER_REMOVE, LEVEL=WARN, MID='R');

  12922  2 000043   000001 630400 3                  EPPR0   1
         2 000044   000017 631400 xsym               EPPR1   B_VECTNIL+15
         2 000045   000000 701000 xent               TSX1    ASH$WARN
         2 000046   000000 011000                    NOP     0

      100    12927    2      ALTRETURN;

  12927  2 000047   000000 702200 xent               TSX2  ! X66_AALT

      101    12928    2      END; /*  Whenreturn  */
      102    12929    1   USERS_KEY.COUNT = I;

  12929  2 000050   200004 236100                    LDQ     I,,AUTO
         2 000051   000033 736000                    QLS     27
         2 000052   000000 552040 xsym               STBQ    USERS_KEY,'40'O

      103    12930    1   CALL ASB$ENQ ALTRET( ENQ_ERR ) ;

  12930  2 000053   000002 631400 xsym               EPPR1   B_VECTNIL+2
         2 000054   000000 701000 xent               TSX1    ASB$ENQ
         2 000055   000300 702000 2                  TSX2    ENQ_ERR

      104    12931    1   ENQDEQ_FLG = AS_TRUE ;

PL6.E3A0      #001=ASR$R_USER File=ASR$REMOVE_USER.:E05TSI                       TUE 07/29/97 10:51 Page:15
  12931  2 000056   000000 236000 xsym               LDQ     AS_TRUE
         2 000057   400000 376003                    ANQ     -131072,DU
         2 000060   000000 756000 xsym               STQ     ENQDEQ_FLG

      105    12932    1   CALL ASB$DELREC_USERS;

  12932  2 000061   000002 631400 xsym               EPPR1   B_VECTNIL+2
         2 000062   000000 701000 xent               TSX1    ASB$DELREC_USERS
         2 000063   000000 011000                    NOP     0

      106    12933    1   CALL ASB$DELREC_HLP;

  12933  2 000064   000002 631400 xsym               EPPR1   B_VECTNIL+2
         2 000065   000000 701000 xent               TSX1    ASB$DELREC_HLP
         2 000066   000000 011000                    NOP     0

      107    12934    1   CALL ASB$LIST( USERS_KEY );

  12934  2 000067   000002 630400 3                  EPPR0   2
         2 000070   000017 631400 xsym               EPPR1   B_VECTNIL+15
         2 000071   000000 701000 xent               TSX1    ASB$LIST
         2 000072   000000 011000                    NOP     0

      108    12935    2   IF FACCOUNT_OPT THEN DO;        /* Delete file management account */

  12935  2 000073   200003 470500                    LDP0    @FACCOUNT_OPT,,AUTO
         2 000074   000000 234100                    SZN     0,,PR0
         2 000075   000161 605000 2                  TPL     s:12964

      109    12936    2      IF NOT DSEG_FLG THEN

  12936  2 000076   000000 234000 xsym               SZN     DSEG_FLG
         2 000077   000110 604000 2                  TMI     s:12954

      110    12937    3         CALL ASB$GETSEG WHENALTRETURN DO ;

  12937  2 000100   000002 631400 xsym               EPPR1   B_VECTNIL+2
PL6.E3A0      #001=ASR$R_USER File=ASR$REMOVE_USER.:E05TSI                       TUE 07/29/97 10:51 Page:16
         2 000101   000000 701000 xent               TSX1    ASB$GETSEG
         2 000102   000104 702000 2                  TSX2    s:12950
         2 000103   000110 710000 2                  TRA     s:12954

      111    12938                 %SCREAM (ERR#=%E$GETSEGERR, LEVEL=ERROR, MID='R' );

  12950  2 000104   000003 630400 3                  EPPR0   3
         2 000105   000017 631400 xsym               EPPR1   B_VECTNIL+15
         2 000106   000000 701000 xent               TSX1    ASH$ERROR
         2 000107   000000 011000                    NOP     0

      112    12953    3            END; /*  Whenaltreturn from ASB$GETSEG  */

      113    12954    2      SUPER_TO_PIG.TYPE = %DELETE_ACCT;

  12954  2 000110   000000 470400 xsym               LDP0    DSEG1$
         2 000111   004000 236003                    LDQ     2048,DU
         2 000112   000000 552140                    STBQ    0,'40'O,PR0

      114    12955    2      SUPER_TO_PIG.WIDTH = LO_WIDTH;

  12955  2 000113   000000 470400 xsym               LDP0    DSEG1$
         2 000114   000000 236000 xsym               LDQ     LO_WIDTH
         2 000115   000022 736000                    QLS     18
         2 000116   000000 676100                    ERQ     0,,PR0
         2 000117   000377 376003                    ANQ     255,DU
         2 000120   000000 656100                    ERSQ    0,,PR0

      115    12956    2      SUPER_TO_PIG.PROJ = (AS_PROJECT_ADMIN ~= AS_NONE );

  12956  2 000121   400000 220003                    LDX0    -131072,DU
         2 000122   000000 106400                    CMPC    fill='000'O
         2 000123   000000 000025 xsym               ADSC9   AS_PROJECT_ADMIN         cn=0,n=21
         2 000124   000000 000025 xsym               ADSC9   AS_NONE                  cn=0,n=21
         2 000125   000127 601000 2                  TNZ     s:12956+6
         2 000126   000000 220003                    LDX0    0,DU
         2 000127   000000 470400 xsym               LDP0    DSEG1$
PL6.E3A0      #001=ASR$R_USER File=ASR$REMOVE_USER.:E05TSI                       TUE 07/29/97 10:51 Page:17
         2 000130   000000 636010                    EAQ     0,X0
         2 000131   000011 772000                    QRL     9
         2 000132   000000 676100                    ERQ     0,,PR0
         2 000133   000400 376003                    ANQ     256,DU
         2 000134   000000 656100                    ERSQ    0,,PR0

      116    12957    2      SUPER_TO_PIG.RESUPER = AS_LOGON_KEY.TEXT;

  12957  2 000135   000000 470400 xsym               LDP0    DSEG1$
         2 000136   040100 100400                    MLR     fill='040'O
         2 000137   000000 200024 xsym               ADSC9   AS_LOGON_KEY             cn=1,n=20
         2 000140   000000 400024                    ADSC9   0,,PR0                   cn=2,n=20

      117    12958    2      SUPER_TO_PIG.PROJECT_TEXT = AS_PROJECT_ADMIN.TEXT;

  12958  2 000141   000000 470400 xsym               LDP0    DSEG1$
         2 000142   040100 100400                    MLR     fill='040'O
         2 000143   000000 200024 xsym               ADSC9   AS_PROJECT_ADMIN         cn=1,n=20
         2 000144   000005 400024                    ADSC9   5,,PR0                   cn=2,n=20

      118    12959    2      SUPER_TO_PIG.PACKSET = AS_USERS.HPSN;

  12959  2 000145   040100 100400                    MLR     fill='040'O
         2 000146   000123 000006 xsym               ADSC9   AS_USERS+83              cn=0,n=6
         2 000147   000012 400006                    ADSC9   10,,PR0                  cn=2,n=6

      119    12960    2      SUPER_TO_PIG.ACCT    = AS_USERS.ACCT;

  12960  2 000150   040100 100400                    MLR     fill='040'O
         2 000151   000000 000010 xsym               ADSC9   AS_USERS                 cn=0,n=8
         2 000152   000014 000010                    ADSC9   12,,PR0                  cn=0,n=8

      120    12961    2      SUPER_TO_PIG.ATTR.COUNT = 0;

  12961  2 000153   000000 220003                    LDX0    0,DU
         2 000154   000016 740100                    STX0    14,,PR0

PL6.E3A0      #001=ASR$R_USER File=ASR$REMOVE_USER.:E05TSI                       TUE 07/29/97 10:51 Page:18
      121    12962    2      CALL ASB$PIG( SUPER_TO_PIG );

  12962  2 000155   000000 630400 xsym               EPPR0   DSEG1$
         2 000156   000017 631400 xsym               EPPR1   B_VECTNIL+15
         2 000157   000000 701000 xent               TSX1    ASB$PIG
         2 000160   000000 011000                    NOP     0

      122    12963    2      END;

      123    12964    2   IF AS_PROJECT_ADMIN ~= AS_NONE THEN DO;

  12964  2 000161   000000 106400                    CMPC    fill='000'O
         2 000162   000000 000025 xsym               ADSC9   AS_PROJECT_ADMIN         cn=0,n=21
         2 000163   000000 000025 xsym               ADSC9   AS_NONE                  cn=0,n=21
         2 000164   000212 600000 2                  TZE     s:12973

      124    12965    2      USERS_KEY.SKEY.USER = SUBSTR(USERS_KEY.TXTC,0,USERS_KEY.COUNT );

  12965  2 000165   000000 236000 xsym               LDQ     USERS_KEY
         2 000166   000033 772000                    QRL     27
         2 000167   000000 620006                    EAX0    0,QL
         2 000170   040000 100440                    MLR     fill='040'O
         2 000171   000000 200010 xsym               ADSC9   USERS_KEY                cn=1,n=*X0
         2 000172   000005 400024 xsym               ADSC9   USERS_KEY+5              cn=2,n=20

      125    12966    2      USERS_KEY.SKEY.CREATOR = AS_PROJECT_ADMIN.TEXT;

  12966  2 000173   040000 100400                    MLR     fill='040'O
         2 000174   000000 200024 xsym               ADSC9   AS_PROJECT_ADMIN         cn=1,n=20
         2 000175   000000 400024 xsym               ADSC9   USERS_KEY                cn=2,n=20

      126    12967    2      USERS_KEY.SKEY.PROJ = 0;

  12967  2 000176   000000 236003                    LDQ     0,DU
         2 000177   000000 552020 xsym               STBQ    USERS_KEY,'20'O

      127    12968    2      USERS_KEY.COUNT = USERS_KEY.COUNT + 21;
PL6.E3A0      #001=ASR$R_USER File=ASR$REMOVE_USER.:E05TSI                       TUE 07/29/97 10:51 Page:19

  12968  2 000200   000000 236000 xsym               LDQ     USERS_KEY
         2 000201   025000 036003                    ADLQ    10752,DU
         2 000202   000000 552040 xsym               STBQ    USERS_KEY,'40'O

      128    12969    2      CALL ASB$ENQ_USERS ALTRET( ENQ_ERR );

  12969  2 000203   000002 631400 xsym               EPPR1   B_VECTNIL+2
         2 000204   000000 701000 xent               TSX1    ASB$ENQ_USERS
         2 000205   000300 702000 2                  TSX2    ENQ_ERR

      129    12970    2      CALL ASB$DELREC_USERS;

  12970  2 000206   000002 631400 xsym               EPPR1   B_VECTNIL+2
         2 000207   000000 701000 xent               TSX1    ASB$DELREC_USERS
         2 000210   000000 011000                    NOP     0

      130    12971    2      END;

  12971  2 000211   000272 710000 2                  TRA     s:12989

      131    12972    1   ELSE
      132    12973    2      IF AS_USERS.BUDGET.MACCT ~= AS_NONE THEN DO;

  12973  2 000212   000000 106400                    CMPC    fill='000'O
         2 000213   000012 000025 xsym               ADSC9   AS_USERS+10              cn=0,n=21
         2 000214   000000 000025 xsym               ADSC9   AS_NONE                  cn=0,n=21
         2 000215   000272 600000 2                  TZE     s:12989

      133    12974    2         KEY = USERS_KEY;

  12974  2 000216   000100 100400                    MLR     fill='000'O
         2 000217   000000 000025 xsym               ADSC9   USERS_KEY                cn=0,n=21
         2 000220   200005 000025                    ADSC9   KEY,,AUTO                cn=0,n=21

      134    12975    2         USERS_KEY.COUNT = USERS_KEY.COUNT + 21;

PL6.E3A0      #001=ASR$R_USER File=ASR$REMOVE_USER.:E05TSI                       TUE 07/29/97 10:51 Page:20
  12975  2 000221   000000 236000 xsym               LDQ     USERS_KEY
         2 000222   025000 036003                    ADLQ    10752,DU
         2 000223   000000 552040 xsym               STBQ    USERS_KEY,'40'O

      135    12976    2         USERS_KEY.SKEY.PROJ = 0;

  12976  2 000224   000000 236003                    LDQ     0,DU
         2 000225   000000 552020 xsym               STBQ    USERS_KEY,'20'O

      136    12977    2         USERS_KEY.SKEY.CREATOR = AS_USERS.BUDGET.MACCT_.TEXT;

  12977  2 000226   040000 100400                    MLR     fill='040'O
         2 000227   000012 200024 xsym               ADSC9   AS_USERS+10              cn=1,n=20
         2 000230   000000 400024 xsym               ADSC9   USERS_KEY                cn=2,n=20

      137    12978    2         USERS_KEY.SKEY.USER = KEY.TEXT;

  12978  2 000231   040000 100500                    MLR     fill='040'O
         2 000232   200005 200024                    ADSC9   KEY,,AUTO                cn=1,n=20
         2 000233   000005 400024 xsym               ADSC9   USERS_KEY+5              cn=2,n=20

      138    12979    2         CALL ASB$ENQ_USERS   ALTRET( ENQ_ERR );

  12979  2 000234   000002 631400 xsym               EPPR1   B_VECTNIL+2
         2 000235   000000 701000 xent               TSX1    ASB$ENQ_USERS
         2 000236   000300 702000 2                  TSX2    ENQ_ERR

      139    12980    2         CALL ASB$DELREC_USERS;

  12980  2 000237   000002 631400 xsym               EPPR1   B_VECTNIL+2
         2 000240   000000 701000 xent               TSX1    ASB$DELREC_USERS
         2 000241   000000 011000                    NOP     0

      140    12981    2         CALL CONCAT( USERS_KEY.TXTC, AS_USERS.BUDGET.MACCT_.TEXT, 'S' );

  12981  2 000242   040000 100400                    MLR     fill='040'O
         2 000243   000012 200024 xsym               ADSC9   AS_USERS+10              cn=1,n=20
PL6.E3A0      #001=ASR$R_USER File=ASR$REMOVE_USER.:E05TSI                       TUE 07/29/97 10:51 Page:21
         2 000244   000000 200024 xsym               ADSC9   USERS_KEY                cn=1,n=20
         2 000245   040000 100400                    MLR     fill='040'O
         2 000246   000004 000001 3                  ADSC9   4                        cn=0,n=1
         2 000247   000005 200025 xsym               ADSC9   USERS_KEY+5              cn=1,n=21

      141    12982    2         USERS_KEY.COUNT = 21;

  12982  2 000250   025000 236003                    LDQ     10752,DU
         2 000251   000000 552040 xsym               STBQ    USERS_KEY,'40'O

      142    12983    2         CALL ASB$ENQ_USERS ALTRET( ENQ_ERR );

  12983  2 000252   000002 631400 xsym               EPPR1   B_VECTNIL+2
         2 000253   000000 701000 xent               TSX1    ASB$ENQ_USERS
         2 000254   000300 702000 2                  TSX2    ENQ_ERR

      143    12984    2         CALL ASB$READ_USERS( AS_USERS ) ALTRET( ENQ_ERR );

  12984  2 000255   000000 630400 3                  EPPR0   0
         2 000256   000017 631400 xsym               EPPR1   B_VECTNIL+15
         2 000257   000000 701000 xent               TSX1    ASB$READ_USERS
         2 000260   000300 702000 2                  TSX2    ENQ_ERR

      144    12985    2         AS_USERS.BUDGET.PROJ_CREATED = AS_USERS.BUDGET.PROJ_CREATED - 1;

  12985  2 000261   000001 336007                    LCQ     1,DL
         2 000262   000011 056000 xsym               ASQ     AS_USERS+9

      145    12986    2         CALL ASB$WRITE_USERS( AS_USERS );

  12986  2 000263   000000 630400 3                  EPPR0   0
         2 000264   000017 631400 xsym               EPPR1   B_VECTNIL+15
         2 000265   000000 701000 xent               TSX1    ASB$WRITE_USERS
         2 000266   000000 011000                    NOP     0

      146    12987    2         USERS_KEY = KEY;

PL6.E3A0      #001=ASR$R_USER File=ASR$REMOVE_USER.:E05TSI                       TUE 07/29/97 10:51 Page:22
  12987  2 000267   000000 100500                    MLR     fill='000'O
         2 000270   200005 000025                    ADSC9   KEY,,AUTO                cn=0,n=21
         2 000271   000000 000052 xsym               ADSC9   USERS_KEY                cn=0,n=42

      147    12988    2         END;

      148    12989    1   CALL ASB$DEQ;

  12989  2 000272   000002 631400 xsym               EPPR1   B_VECTNIL+2
         2 000273   000000 701000 xent               TSX1    ASB$DEQ
         2 000274   000000 011000                    NOP     0

      149    12990    1   ENQDEQ_FLG = AS_FALSE ;

  12990  2 000275   000000 236000 xsym               LDQ     AS_FALSE
         2 000276   400000 376003                    ANQ     -131072,DU
         2 000277   000000 756000 xsym               STQ     ENQDEQ_FLG

  12990  2 000300                       ENQ_ERR      null
      150    12991    1   ENQ_ERR: ;
      151    12992    1   RETURN ;

  12992  2 000300   000000 702200 xent               TSX2  ! X66_ARET
      152    12993                                                              /**/
      153    12994                                                              /**/
      154    12995    1   END   ASR$R_USER ;

PL6.E3A0      #001=ASR$R_USER File=ASR$REMOVE_USER.:E05TSI                       TUE 07/29/97 10:51 Page:23
--  Include file information  --

   AS_SUPER_R.:E05TOU  cannot be made into a system file and is referenced.
   AS_PERR_C.:E05TOU  is referenced.
   XU_FORMAT_C.:E05TOU  is referenced.
   XU_MACRO_C.:E05TOU  is referenced.
   KL_SUPER_C.:E05TOU  is referenced.
   AS_MAC_C.:E05TOU  cannot be made into a system file and is referenced.
   AS_SUBS_C.:E05TOU  is referenced.
   AS_SUPER_C.:E05TOU  is referenced.
   AS_ENTRIES_M.:E05TOU  is referenced.
      No diagnostics issued in procedure ASR$R_USER.
PL6.E3A0      #001=ASR$R_USER File=ASR$REMOVE_USER.:E05TSI                       TUE 07/29/97 10:51 Page:24

 **** Variables and constants ****

  ****  Auto variables  ****

  ****  Scalars and arrays  ****
OctLoc.c.b A Datatyp(siz) R M Lvl/name                 OctLoc.c.b A Datatyp(siz) R M Lvl/name

     3-0-0/w PTR         r     1 @FACCOUNT_OPT             *0-0-0/w BIT         r     1 FACCOUNT_OPT
     4-0-0/w UBIN        r     1 I                          5-0-0/w STRC(189)   r     1 KEY

  ****  SYMREF variables  ****

  ****  Scalars and arrays  ****
OctLoc.c.b A Datatyp(siz) R M Lvl/name                 OctLoc.c.b A Datatyp(siz) R M Lvl/name

     0-0-0/b BIT         r     1 AS_FALSE                   0-0-0/w STRC(369)   r     1 AS_FIELD1
     0-0-0/w STRC(369)   r     1 AS_FIELD2                  0-0-0/c STRC(189)   r     1 AS_LOGON_KEY
     0-0-0/c STRC(189)   r     1 AS_NONE                    0-0-0/c STRC(189)   r     1 AS_PROJECT_ADMIN
     0-0-0/b BIT         r     1 AS_TRUE                    0-0-0/w STRC(18576) r     1 AS_USERS
     0-0-0/w PTR         r     1 DSEG1$                     0-0-0/b BIT         r     1 DSEG_FLG
     0-0-0/b BIT         r     1 ENQDEQ_FLG                 0-0-0/w UBIN        r     1 LO_WIDTH
     0-0-0/c STRC(378)   r     1 USERS_KEY

  ****  BASED and DCB variables  ****

  ****  Scalars and arrays  ****
OctLoc.c.b A Datatyp(siz) R M Lvl/name                 OctLoc.c.b A Datatyp(siz) R M Lvl/name

     0-0-0/w STRC(43722) r     1 SUPER_TO_PIG


   Procedure ASR$R_USER requires 193 words for executable code.
   Procedure ASR$R_USER requires 12 words of local(AUTO) storage.

    No errors detected in file ASR$REMOVE_USER.:E05TSI    .
PL6.E3A0      #001=ASR$R_USER File=ASR$REMOVE_USER.:E05TSI                       TUE 07/29/97 10:51 Page:25
          *** CROSS REFERENCE LISTING ***
**     DENOTES     IDENTIFIER DEFINITION
<<                 IDENTIFIER'S VALUE SET
>>                 IDENTIFIER'S VALUE USED
<>                 IDENTIFIER SET AND/OR USED
--                 IDENTIFIER REFERENCED
PL6.E3A0      #001=ASR$R_USER File=ASR$REMOVE_USER.:E05TSI                       TUE 07/29/97 10:51 Page:26
          MINI XREF LISTING

ASA_BRKS_LOC
      9931**DCL      9931--REDEF
ASB$DELREC_HLP
     12799**DCL-ENT 12933--CALL
ASB$DELREC_USERS
     12796**DCL-ENT 12932--CALL    12970--CALL    12980--CALL
ASB$DEQ
     12805**DCL-ENT 12989--CALL
ASB$ENQ
     12802**DCL-ENT 12930--CALL
ASB$ENQ_USERS
     12808**DCL-ENT 12969--CALL    12979--CALL    12983--CALL
ASB$GETSEG
     12820**DCL-ENT 12937--CALL
ASB$LIST
     12817**DCL-ENT 12934--CALL
ASB$PIG
     12823**DCL-ENT 12962--CALL
ASB$READ_USERS
     12811**DCL-ENT 12901--CALL    12984--CALL
ASB$WRITE_USERS
     12814**DCL-ENT 12986--CALL
ASH$ERROR
     12826**DCL-ENT 12950--CALL
ASH$WARN
     12829**DCL-ENT 12922--CALL
AS_DEFAULT.BANNER_PERM
     10624**DCL     10625--REDEF
AS_DEFAULT.BUDGET.MACCT
     10529**DCL     10533--REDEF
AS_DEFAULT.BUDGET.MAX_PROJECTS
     10542**DCL     10545--REDEF
PL6.E3A0      #001=ASR$R_USER File=ASR$REMOVE_USER.:E05TSI                       TUE 07/29/97 10:51 Page:27
AS_DEFAULT.BUDGET.PACCUM
     10525**DCL     10527--REDEF
AS_DEFAULT.BUDGET.PMAXC
     10520**DCL     10522--REDEF
AS_DEFAULT.SETUP_CHRA.TXT
     10640**DCL     10641--REDEF   10642--REDEF
AS_DEFAULT_DREC.PASSWORD
     11894**DCL     11898--REDEF
AS_DEFAULT_DREC.RENAME
     11917**DCL     11918--REDEF
AS_DFLT.BANNER_PERM
     10446**DCL     10447--REDEF
AS_DFLT.BUDGET.MACCT
     10351**DCL     10355--REDEF
AS_DFLT.BUDGET.MAX_PROJECTS
     10364**DCL     10367--REDEF
AS_DFLT.BUDGET.PACCUM
     10347**DCL     10349--REDEF
AS_DFLT.BUDGET.PMAXC
     10342**DCL     10344--REDEF
AS_DFLT.SETUP_CHRA.TXT
     10462**DCL     10463--REDEF   10464--REDEF
AS_FALSE
      9791**DCL     12990>>ASSIGN
AS_FE_MODE
      9797**DCL      9798--REDEF
AS_FIELD1.COUNT
      9928**DCL     12907<<ASSIGN
AS_FIELD1.TEXT
      9928**DCL     12908<<ASSIGN
AS_FIELD2.COUNT
      9928**DCL     12910<<ASSIGN
AS_FIELD2.TEXT
      9928**DCL     12911<<ASSIGN
AS_LOGON_KEY.TEXT
      9936**DCL     12957>>ASSIGN
PL6.E3A0      #001=ASR$R_USER File=ASR$REMOVE_USER.:E05TSI                       TUE 07/29/97 10:51 Page:28
AS_MODE
      9794**DCL      9796--REDEF
AS_MOD_USER.ACCESS
     12659**DCL     12660--REDEF
AS_MOD_USER.BANNER
     12646**DCL     12647--REDEF
AS_MOD_USER.BANNER_PERM
     12648**DCL     12649--REDEF
AS_MOD_USER.BILL
     12654**DCL     12655--REDEF
AS_MOD_USER.CPROC
     12650**DCL     12651--REDEF
AS_MOD_USER.FEBILL
     12730**DCL     12731--REDEF
AS_MOD_USER.FECXTMEM
     12747**DCL     12748--REDEF
AS_MOD_USER.FEMINTS
     12732**DCL     12733--REDEF
AS_MOD_USER.FEMMEM
     12743**DCL     12744--REDEF
AS_MOD_USER.FEMTIME
     12741**DCL     12742--REDEF
AS_MOD_USER.FEPPRIV
     12738**DCL     12740--REDEF
AS_MOD_USER.FEPRIV
     12735**DCL     12737--REDEF
AS_MOD_USER.FORCE_BIT
     12644**DCL     12645--REDEF
AS_MOD_USER.KEY
     12726**DCL     12728--REDEF
AS_MOD_USER.LASTCPROC
     12652**DCL     12653--REDEF
AS_MOD_USER.LIMITS.DO_
     12700**DCL     12701--REDEF
AS_MOD_USER.LIMITS.FPOOLS
     12716**DCL     12717--REDEF
PL6.E3A0      #001=ASR$R_USER File=ASR$REMOVE_USER.:E05TSI                       TUE 07/29/97 10:51 Page:29
AS_MOD_USER.LIMITS.LO
     12696**DCL     12697--REDEF
AS_MOD_USER.LIMITS.MEM
     12692**DCL     12693--REDEF
AS_MOD_USER.LIMITS.MPRIO
     12720**DCL     12721--REDEF
AS_MOD_USER.LIMITS.PDIS
     12708**DCL     12709--REDEF
AS_MOD_USER.LIMITS.PO
     12704**DCL     12705--REDEF
AS_MOD_USER.LIMITS.TDIS
     12712**DCL     12713--REDEF
AS_MOD_USER.LIMITS.TIME
     12688**DCL     12689--REDEF
AS_MOD_USER.MAXENQ
     12669**DCL     12670--REDEF
AS_MOD_USER.PERM_BIT
     12642**DCL     12643--REDEF
AS_MOD_USER.PPRIV
     12664**DCL     12666--REDEF
AS_MOD_USER.PRIOB
     12671**DCL     12672--REDEF
AS_MOD_USER.PRIV
     12661**DCL     12663--REDEF
AS_MOD_USER.QUAN
     12667**DCL     12668--REDEF
AS_MOD_USER.SETUP
     12640**DCL     12641--REDEF
AS_NONE
      9792**DCL     12956>>ASSIGN  12964>>IF      12973>>IF
AS_PROJECT.BANNER_PERM
     10980**DCL     10981--REDEF
AS_PROJECT.BUDGET.MACCT
     10885**DCL     10889--REDEF
AS_PROJECT.BUDGET.MAX_PROJECTS
     10898**DCL     10901--REDEF
PL6.E3A0      #001=ASR$R_USER File=ASR$REMOVE_USER.:E05TSI                       TUE 07/29/97 10:51 Page:30
AS_PROJECT.BUDGET.PACCUM
     10881**DCL     10883--REDEF
AS_PROJECT.BUDGET.PMAXC
     10876**DCL     10878--REDEF
AS_PROJECT.SETUP_CHRA.TXT
     10996**DCL     10997--REDEF   10998--REDEF
AS_PROJECT_ADMIN
      9935**DCL     12956>>ASSIGN  12964>>IF
AS_PROJECT_ADMIN.TEXT
      9935**DCL     12958>>ASSIGN  12966>>ASSIGN
AS_PROJECT_DFLT.BANNER_PERM
     11158**DCL     11159--REDEF
AS_PROJECT_DFLT.BUDGET.MACCT
     11063**DCL     11067--REDEF
AS_PROJECT_DFLT.BUDGET.MAX_PROJECTS
     11076**DCL     11079--REDEF
AS_PROJECT_DFLT.BUDGET.PACCUM
     11059**DCL     11061--REDEF
AS_PROJECT_DFLT.BUDGET.PMAXC
     11054**DCL     11056--REDEF
AS_PROJECT_DFLT.SETUP_CHRA.TXT
     11174**DCL     11175--REDEF   11176--REDEF
AS_PROJECT_DFLT_DREC.PASSWORD
     12380**DCL     12384--REDEF
AS_PROJECT_DFLT_DREC.RENAME
     12403**DCL     12404--REDEF
AS_PROJECT_DREC.PASSWORD
     12218**DCL     12222--REDEF
AS_PROJECT_DREC.RENAME
     12241**DCL     12242--REDEF
AS_PROJ_ADMIN.BANNER_PERM
     10802**DCL     10803--REDEF
AS_PROJ_ADMIN.BUDGET.MACCT
     10707**DCL     10711--REDEF
AS_PROJ_ADMIN.BUDGET.MAX_PROJECTS
     10720**DCL     10723--REDEF
PL6.E3A0      #001=ASR$R_USER File=ASR$REMOVE_USER.:E05TSI                       TUE 07/29/97 10:51 Page:31
AS_PROJ_ADMIN.BUDGET.PACCUM
     10703**DCL     10705--REDEF
AS_PROJ_ADMIN.BUDGET.PMAXC
     10698**DCL     10700--REDEF
AS_PROJ_ADMIN.SETUP_CHRA.TXT
     10818**DCL     10819--REDEF   10820--REDEF
AS_PROJ_ADMIN_DREC.PASSWORD
     12056**DCL     12060--REDEF
AS_PROJ_ADMIN_DREC.RENAME
     12079**DCL     12080--REDEF
AS_TRUE
      9791**DCL     12931>>ASSIGN
AS_USERS
     10153**DCL     12901<>CALL    12984<>CALL    12986<>CALL
AS_USERS.ACCT
     10154**DCL     12960>>ASSIGN
AS_USERS.BANNER_PERM
     10268**DCL     10269--REDEF
AS_USERS.BUDGET.MACCT
     10173**DCL     10177--REDEF   12973>>IF
AS_USERS.BUDGET.MACCT_.TEXT
     10179**DCL     12977>>ASSIGN  12981>>CALLBLT
AS_USERS.BUDGET.MAX_PROJECTS
     10186**DCL     10189--REDEF
AS_USERS.BUDGET.PACCUM
     10169**DCL     10171--REDEF
AS_USERS.BUDGET.PMAXC
     10164**DCL     10166--REDEF
AS_USERS.BUDGET.PROJ_CREATED
     10171**DCL     12985<<ASSIGN  12985>>ASSIGN
AS_USERS.HPSN
     10218**DCL     12959>>ASSIGN
AS_USERS.SETUP_CHRA.TXT
     10284**DCL     10285--REDEF   10286--REDEF
AS_USERS_CONSTANT.BANNER_PERM
     11336**DCL     11337--REDEF
PL6.E3A0      #001=ASR$R_USER File=ASR$REMOVE_USER.:E05TSI                       TUE 07/29/97 10:51 Page:32
AS_USERS_CONSTANT.BUDGET.MACCT
     11241**DCL     11245--REDEF
AS_USERS_CONSTANT.BUDGET.MAX_PROJECTS
     11254**DCL     11257--REDEF
AS_USERS_CONSTANT.BUDGET.PACCUM
     11237**DCL     11239--REDEF
AS_USERS_CONSTANT.BUDGET.PMAXC
     11232**DCL     11234--REDEF
AS_USERS_CONSTANT.SETUP_CHRA.TXT
     11352**DCL     11353--REDEF   11354--REDEF
DSEG1$
      9932**DCL     12847--IMP-PTR 12954>>ASSIGN  12955>>ASSIGN  12956>>ASSIGN  12957>>ASSIGN  12958>>ASSIGN
     12959>>ASSIGN  12960>>ASSIGN  12961>>ASSIGN  12962>>CALL
DSEG_FLG
      9932**DCL     12936>>IF
ENQDEQ_FLG
      9934**DCL     12931<<ASSIGN  12990<<ASSIGN
ENQ_ERR
     12990**LABEL   12930--CALLALT 12969--CALLALT 12979--CALLALT 12983--CALLALT 12984--CALLALT
ERR_CODE
      9926**DCL      9927--REDEF
FACCOUNT_OPT
     12788**DCL        10--PROC    12935>>IF
I
     12838**DCL     12898<<ASSIGN  12906<<CALLBLT 12907>>ASSIGN  12908>>ASSIGN  12909<<CALLBLT 12910>>ASSIGN
     12911>>ASSIGN  12929>>ASSIGN
KEY
     12839**DCL     12974<<ASSIGN  12987>>ASSIGN
KEY.TEXT
     12841**DCL     12978>>ASSIGN
KL_DEFAULT.PASSWORD
     12542**DCL     12546--REDEF
KL_DEFAULT.RENAME
     12565**DCL     12566--REDEF
KL_DFLT.PASSWORD
     11732**DCL     11736--REDEF
PL6.E3A0      #001=ASR$R_USER File=ASR$REMOVE_USER.:E05TSI                       TUE 07/29/97 10:51 Page:33
KL_DFLT.RENAME
     11755**DCL     11756--REDEF
KL_DREC.PASSWORD
     11570**DCL     11574--REDEF
KL_DREC.RENAME
     11593**DCL     11594--REDEF
KL_DREC_CNT.PASSWORD
     11457**DCL     11461--REDEF
KL_DREC_CNT.RENAME
     11480**DCL     11481--REDEF
LO_WIDTH
      9808**DCL     12955>>ASSIGN
PROJ_KEY.TEXT
      9804**DCL      9804--REDEF
PROJ_KEY.TXT.PROJECT
      9804**DCL      9804--REDEF
REMEM_VAR
      9930**DCL      9930--REDEF
REM_FCMD
      9930**DCL      9931--REDEF
SUPER_TO_PIG
     12847**DCL     12962<>CALL
SUPER_TO_PIG.ACCT
     12868**DCL     12960<<ASSIGN
SUPER_TO_PIG.ATTR.COUNT
     12870**DCL     12961<<ASSIGN
SUPER_TO_PIG.PACKSET
     12867**DCL     12959<<ASSIGN
SUPER_TO_PIG.PROJ
     12856**DCL     12956<<ASSIGN
SUPER_TO_PIG.PROJECT
     12863**DCL     12866--REDEF
SUPER_TO_PIG.PROJECT_TEXT
     12866**DCL     12958<<ASSIGN
SUPER_TO_PIG.RESUPER
     12862**DCL     12957<<ASSIGN
PL6.E3A0      #001=ASR$R_USER File=ASR$REMOVE_USER.:E05TSI                       TUE 07/29/97 10:51 Page:34
SUPER_TO_PIG.SUPER
     12859**DCL     12862--REDEF
SUPER_TO_PIG.TYPE
     12848**DCL     12954<<ASSIGN
SUPER_TO_PIG.WIDTH
     12858**DCL     12955<<ASSIGN
USERS_KEY
      9801**DCL     12934<>CALL    12974>>ASSIGN  12987<<ASSIGN
USERS_KEY.COUNT
      9801**DCL     12898>>ASSIGN  12900<<ASSIGN  12929<<ASSIGN  12965>>ASSIGN  12968<<ASSIGN  12968>>ASSIGN
     12975<<ASSIGN  12975>>ASSIGN  12982<<ASSIGN
USERS_KEY.SKEY.CREATOR
      9803**DCL     12966<<ASSIGN  12977<<ASSIGN
USERS_KEY.SKEY.PROJ
      9803**DCL     12967<<ASSIGN  12976<<ASSIGN
USERS_KEY.SKEY.USER
      9803**DCL     12965<<ASSIGN  12978<<ASSIGN
USERS_KEY.TEXT
      9801**DCL      9802--REDEF    9802--REDEF    9802--REDEF    9803--REDEF
USERS_KEY.TXTC
      9802**DCL     12906>>CALLBLT 12908>>ASSIGN  12909>>CALLBLT 12911>>ASSIGN  12965>>ASSIGN  12981<<CALLBLT
USERS_KEY.UKEY.S
      9803**DCL     12899<<ASSIGN
