PL6.E3A0      #004=ASR$R_DEVICE File=ASR$R_HLP.:E05TSI                           TUE 07/29/97 10:54 Page:159
      867        1        /*M* ASR$R_DEVICE - processes the REMOVE DEVICE command.   */
      868        2        /*T***********************************************************/
      869        3        /*T*                                                         */
      870        4        /*T* Copyright (c) Bull HN Information Systems Inc., 1997    */
      871        5        /*T*                                                         */
      872        6        /*T***********************************************************/
      873        7        ASR$R_DEVICE: PROC ;
      874        8                                                              /**/
      875        9        %SET LISTSUB = '1'B ;
      876       10        /*********************************************************************/
      877       11        /*   Include files   include files   include files   include files   */
      878       12        /*********************************************************************/
      879       13                                                              /**/
      880       14              %INCLUDE  CP_6 ;
      881       95              %INCLUDE  AS_PERR_C ;
      882      697              %INCLUDE B_ERRORS_C ;
      883     1824              %INCLUDE KC$CGBLK ;
      884     1872              %INCLUDE  AS_ENTRIES_M;
      885     2922              %INCLUDE  AS_SUPER_C ;
      886     3357              %INCLUDE  AS_SUBS_C ;
      887     4771              %INCLUDE  AS_MAC_C ;
      888     4851              %INCLUDE  KL_SUPER_C ;
      889     7753              %INCLUDE  XU_MACRO_C ;
      890    10859              %INCLUDE  XU_FORMAT_C ;
      891    11021              %INCLUDE  AS_SUPER_R ;
      892    14037
      893    14038        /*********************************************************************/
      894    14039        /*   Auto data       auto data       auto data       auto data       */
      895    14040        /*********************************************************************/
      896    14041                                                              /**/
      897    14042    1   DCL TREC$ PTR ;
      898    14043    1   DCL TWSNREC$ PTR ;
      899    14044    1   DCL BLK$ PTR ;
      900    14045    1   DCL ARS UBIN WORD ;
      901    14046    1   DCL TWSN_ARS UBIN WORD ;
      902    14047    1   DCL TWSN# UBIN WORD ;
      903    14048    1   DCL TWSNC CHAR(4) ;
PL6.E3A0      #004=ASR$R_DEVICE File=ASR$R_HLP.:E05TSI                           TUE 07/29/97 10:54 Page:160
      904    14049    1   DCL I UBIN WORD ;
      905    14050    1   DCL J UBIN WORD ;
      906    14051    1   DCL SIZE SBIN;
      907    14052    1   DCL DEVS UBIN WORD ;
      908    14053    1   DCL TYPE CHAR(2) ;
      909    14054    1   DCL WRITE_DEVS BIT (1);
      910    14055
      911    14056        /*********************************************************************/
      912    14057        /*   Static data     static data     static data     static data     */
      913    14058        /*********************************************************************/
      914    14059                                                              /**/
      915    14060    1   DCL 1 CON_KEY ALIGNED STATIC ,
      916    14061    1          2 CNT UBIN BYTE UNAL INIT( 9 ),
      917    14062    1          2 TXT UNAL ,
      918    14063    1             3 ACCT CHAR(8) UNAL INIT(' ') ,
      919    14064    1             3 ASTR CHAR(1) UNAL INIT('*') ;
      920    14065
      921    14066        /*********************************************************************/
      922    14067        /*   Entry dcls      entry dcls      entry dcls      entry dcls      */
      923    14068        /*********************************************************************/
      924    14069        %ASB$DELREC_HLP ;
      925    14072        %ASB$GETSEG ;
      926    14075        %ASB$ENQ_HLP ;
      927    14078        %ASB$DEQ_HLP ;
      928    14081        %ASH$ERROR ;
      929    14084        %ASH$WARN ;
      930    14087        %ASH$INFO ;
      931    14090        %ASB$READ_HLP ;
      932    14093        %ASB$WRITE_HLP ;
      933    14096        %ASB$WRITE_LO ;
      934    14099        %ASR$R_DEVWSN ;
      935    14102
      936    14103        /*********************************************************************/
      937    14104        /*   Local based     local based     local based     local based     */
      938    14105        /*********************************************************************/
      939    14106                                                              /**/
      940    14107            %PARSE$OUT( NAME=P$NODE, STCLASS="BASED(NODE$)",
PL6.E3A0      #004=ASR$R_DEVICE File=ASR$R_HLP.:E05TSI                           TUE 07/29/97 10:54 Page:161
      941    14108                        NDTYPE=TYPE, NSUBLKS=SUBNODES) ;
      942    14153              %PARSE$SYM( NAME = OUT$SYM ,
      943    14154                          STCLASS="BASED(BLK$)") ;
      944    14192              %KL_DREC ( NAME = KL$TREC  ,
      945    14193                    STCLASS = "BASED(TREC$)",
      946    14194                    LAST = "," ) ;
      947    14307              %KC$CGID(FPTN=KC$CGID,
      948    14308                      STCLASS=STCLASS,
      949    14309                      LVL = 2 ,
      950    14310                      LAST = ";" );
      951    14336              %KL_TWSNREC(  NAME = KL$TWSNREC ,
      952    14337                            STCLASS="BASED( TWSNREC$ )") ;
      953    14362
      954    14363        /*********************************************************************/
      955    14364        /*   Procedure       procedure       procedure       procedure       */
      956    14365        /*********************************************************************/
      957    14366                                                              /**/
      958    14367        /*
      959    14368            ***            Begin procedure                    ***
      960    14369        */
      961    14370                                                              /* Did we get data SEG.? */
      962    14371    1   IF NOT DSEG_FLG
      963    14372    1   THEN                                        /* No, get them. */
      964    14373    1      CALL ASB$GETSEG
      965    14374    2      WHENALTRETURN DO;
      966    14375              %SCREAM( ERR#=%E$GETSEGERR , LEVEL=ERROR, MID='R' );
      967    14390    2         RETURN ;
      968    14391    2         END ;   /*  Whenaltreturn from ASB$GETSEG  */
      969    14392                                                              /* Get device name */
      970    14393    1   BLK$ = P$NODE.SUBLK$(0) -> P$NODE.SUBLK$(0) ;
      971    14394    1   IF OUT$SYM.COUNT > 8
      972    14395    2   THEN DO ;
      973    14396        /*E*  ERROR:    ASR-E$DNAMETOOBIG-C
      974    14397              MESSAGE:  Device name too long.
      975    14398              MESSAGE1: Device names can be at most 8 characters.
      976    14399        */
      977    14400           %SCREAM( ERR#=E$DNAMETOOBIG , LEVEL=ERROR, MID='R' );
PL6.E3A0      #004=ASR$R_DEVICE File=ASR$R_HLP.:E05TSI                           TUE 07/29/97 10:54 Page:162
      978    14415    2      RETURN ;
      979    14416    2      END ; /* Then do */
      980    14417    1   CON_KEY.TXT.ACCT = OUT$SYM.TEXT ;
      981    14418    1   USERS_KEY = CON_KEY ;
      982    14419                                                              /* Pick up terminal record */
      983    14420    1   TREC$ = DSEG1$ ;
      984    14421    1   ARS = DSEG1SIZE ;
      985    14422    1   CALL ASB$READ_HLP( TREC$, ARS ) ALTRET( READ_TREC_ERR ) ;
      986    14423    2   IF '0'B THEN DO ;
      987    14424    2   READ_TREC_ERR: ;
      988    14425    2      IF MERR_CODE.CODE = %E$NOKEY
      989    14426    3      THEN DO ;
      990    14427        /*E*  ERROR:    ASR-E$DEVICENOEXIST-C
      991    14428              MESSAGE0: Device %%U1 %does not exist.
      992    14429        */
      993    14430    3         AS_FIELD1.COUNT = OUT$SYM.COUNT ;
      994    14431    3         AS_FIELD1.TEXT = OUT$SYM.TEXT ;
      995    14432              %SCREAM( ERR#=E$DEVICENOEXIST, LEVEL=WARN, MID='R' );
      996    14447    3         END ; /* Then do */
      997    14448    2      ELSE
      998    14449    2         CALL ASH$ERROR( ERR_CODE ) ;
      999    14450    2      RETURN ;
     1000    14451    2      END ;
     1001    14452    1   IF ( KL$TREC.ATYP ~= %KLAT_CG# OR KL$TREC.KC$CGID.NAME#.TXT='OCCG')
     1002    14453    2        AND KL$TREC.ATYP ~= %KLAT_RES# THEN DO ;
     1003    14454        /*E*  ERROR:    ASR-E$NOTDEVICE-C
     1004    14455              MESSAGE0: %"%U1" %is not a device.
     1005    14456        */
     1006    14457    2      AS_FIELD1.COUNT = OUT$SYM.COUNT ;
     1007    14458    2      AS_FIELD1.TEXT  = OUT$SYM.TEXT ;
     1008    14459           %SCREAM( ERR#=E$NOTDEVICE , LEVEL=ERROR, MID='R' );
     1009    14474    2      RETURN ;
     1010    14475    2      END ; /* Then do */
     1011    14476                                                              /* Get twsn number */
     1012    14477    1   TWSNC = KL$TREC.TWSN# ;
     1013    14478                                                              /* Pick up twsn record */
     1014    14479    1   CALL CONCAT( USERS_KEY.TXTC, 'TWSN', TWSNC ) ;
PL6.E3A0      #004=ASR$R_DEVICE File=ASR$R_HLP.:E05TSI                           TUE 07/29/97 10:54 Page:163
     1015    14480    1   USERS_KEY.COUNT = 8 ;
     1016    14481    1   TWSNREC$ = DSEG2$ ;
     1017    14482    1   TWSN_ARS = DSEG2SIZE ;
     1018    14483    1   CALL ASB$ENQ_HLP ALTRET( ENQ_ERR ) ;
     1019    14484    2   IF '0'B THEN DO;
     1020    14485    2   ENQ_ERR: ;
     1021    14486    2      RETURN ;
     1022    14487    2      END ;
     1023    14488    1   CALL ASB$READ_HLP( TWSNREC$, TWSN_ARS ) ALTRET( READ_TWSN_ERR ) ;
     1024    14489    2   IF '0'B THEN DO ;
     1025    14490    2   READ_TWSN_ERR: ;
     1026    14491    2      CALL ASH$ERROR( ERR_CODE ) ;
     1027    14492    2      RETURN ;
     1028    14493    2      END ;
     1029    14494    1   TYPE = SUBSTR(KL$TREC.RENAME,0,2);
     1030    14495    1   DEVS = KL$TWSNREC.NDEV ;
     1031    14496    2   DO I = 0 TO DEVS-1 ;
     1032    14497    2      IF KL$TWSNREC.DEVS.TYP(I) = TYPE AND KL$TWSNREC.DEVS.ACCT(I) =
     1033    14498    2           CON_KEY.TXT.ACCT
     1034    14499    3      THEN DO ;
     1035    14500    4         DO J = I TO DEVS-2 ;
     1036    14501    4            KL$TWSNREC.DEVS(J) = KL$TWSNREC.DEVS(J+1) ;
     1037    14502    4            END ;  /* Do j */
     1038    14503    3         KL$TWSNREC.NDEV = KL$TWSNREC.NDEV - 1 ;
     1039    14504    3         TWSN_ARS = TWSN_ARS - LENGTHC( KL$TWSNREC.DEVS(0) ) ;
     1040    14505    3         I = DEVS ;
     1041    14506    3         END ;  /* End then do */
     1042    14507    2      END ; /* Do i */
     1043    14508                                                              /* Write twsn record */
     1044    14509    1   CALL ASB$WRITE_HLP( TWSNREC$, TWSN_ARS ) ;
     1045    14510                                                              /* Delete device record */
     1046    14511    1   USERS_KEY = CON_KEY ;
     1047    14512    1   CALL ASB$DELREC_HLP ALTRET( DEL_ERR ) ;
     1048    14513    1   WRITE_DEVS = '1'B; /* Write affected wsns */
     1049    14514    1   CALL ASR$R_DEVWSN (WRITE_DEVS);
     1050    14515    1   CALL ASB$DEQ_HLP ALTRET (ENQ_ERR);
     1051    14516        /*   ERROR: ASR-E$DEVREMOVED_WARN_WSN-0
PL6.E3A0      #004=ASR$R_DEVICE File=ASR$R_HLP.:E05TSI                           TUE 07/29/97 10:54 Page:164
     1052    14517         MESSAGE:WARNING -to maintain wsn and device consistancy, above wsn's should be rebu
             14517        ilt.
     1053    14518             MESSAGE1: There are still references to this device in the stated wsn records.
     1054    14519        */
     1055    14520    1   IF WRITE_DEVS
     1056    14521    2   THEN DO;
     1057    14522           %SCREAM (ERR#=E$DEVREMOVED_WARN_WSN,LEVEL=INFO,MID='R');
     1058    14537    2      END;
     1059    14538    1   CALL ASB$WRITE_LO( AS_BLANK, 1 );
     1060    14539    2   IF '0'B THEN DO ;
     1061    14540    2   DEL_ERR: ;
     1062    14541    2      CALL ASH$ERROR( ERR_CODE ) ;
     1063    14542    2      RETURN ;
     1064    14543    2      END ;
     1065    14544                                                              /**/
     1066    14545    1   SIZE = 16 + OUT$SYM.COUNT;
     1067    14546    1   CALL CONCAT (AS_FIELD1.TEXT, 'Device ', SUBSTR (OUT$SYM.TEXT, 0,
     1068    14547    1        OUT$SYM.COUNT), ' removed.');
     1069    14548    1   CALL ASB$WRITE_LO (SUBSTR (AS_FIELD1.TEXT, 0, SIZE), SIZE);
     1070    14549                                                              /**/
     1071    14550    1   RETURN ;
     1072    14551                                                              /**/
     1073    14552    1   END   ASR$R_DEVICE ;
     1074    14553        %EOD ;

PL6.E3A0      #004=ASR$R_DEVICE File=ASR$R_HLP.:E05TSI                           TUE 07/29/97 10:54 Page:165
--  Include file information  --

   AS_SUPER_R.:E05TOU  cannot be made into a system file and is referenced.
   XU_FORMAT_C.:E05TOU  is referenced.
   XU_MACRO_C.:E05TOU  is referenced.
   KL_SUPER_C.:E05TOU  is referenced.
   AS_MAC_C.:E05TOU  cannot be made into a system file and is referenced.
   AS_SUBS_C.:E05TOU  is referenced.
   AS_SUPER_C.:E05TOU  is referenced.
   AS_ENTRIES_M.:E05TOU  is referenced.
   KC$CGBLK.:E05TOU  is referenced.
   B_ERRORS_C.:E05TOU  is referenced.
   AS_PERR_C.:E05TOU  is referenced.
   CP_6.:E05TOU  cannot be made into a system file and is referenced.
   B$JIT_C.:E05TOU  was found in the system file and is never referenced.
   CP_6_C.:E05TOU  was found in the system file and is referenced.
      No diagnostics issued in procedure ASR$R_DEVICE.

   Procedure ASR$R_DEVICE requires 253 words for executable code.
   Procedure ASR$R_DEVICE requires 18 words of local(AUTO) storage.

PL6.E3A0      #004=ASR$R_DEVICE File=ASR$R_HLP.:E05TSI                           TUE 07/29/97 10:54 Page:166

 Object Unit name= ASR$R_DEVICE                               File name= ASR$R_HLP.:E05TOU
 UTS= JUL 29 '97 10:54:38.64 TUE                              Compiler= PL-6/E31         Sev=      00
 SharedLib= :SHARED_SYSTEM                                    Alt SharedLib=


    ****  Control sections  ****

 Sect   Type Bound  Init  Size OctSiz  Section name(segment info)
    0   DCB   even  none     0      0  M$UC
    1   DCB   even  none     0      0  M$LO
    2   Data  even  none     3      3  ASR$R_DEVICE
    3  RoData even  UTS     12     14  ASR$R_DEVICE
    4   Proc  even  none   253    375  ASR$R_DEVICE
    5  RoData even  none     9     11  ASR$R_DEVICE

    ****  Entry defs  ****

                              Check   Calling
                             calling  sequence
  Sect OctLoc Primary Altret sequence   type   Parms  Name
     4      0   yes            yes      Std        0  ASR$R_DEVICE
PL6.E3A0      #004=ASR$R_DEVICE File=ASR$R_HLP.:E05TSI                           TUE 07/29/97 10:54 Page:167

  ****  Entry refs  ****

         Check        Calling
        calling       sequence
Altret sequence SRef   type   Args  Name
         yes          ~proc      0 XU_OUTPUT_OPTIONS
 yes     yes           Std       2 ASB$WRITE_HLP
 yes     yes           Std       0 ASB$DELREC_HLP
         yes           Std       2 ASB$WRITE_LO
 yes     yes           Std       0 ASB$GETSEG
         yes           Std       2 ASH$ERROR
 yes     yes           Std       3 ASB$READ_HLP
         yes           Std       1 ASR$R_DEVWSN
 yes     yes           Std       0 ASB$ENQ_HLP
         yes           Std       2 ASH$INFO
         yes           Std       2 ASH$WARN
 yes     yes           Std       0 ASB$DEQ_HLP
                       nStd      0 X66_AUTO_0
                       Std       0 B_CONSPOOL_D
                       nStd      0 X66_ARET

  ****  Data refs  ****

  Flags:  r = read only, s = secondary
Flgs Name                             Flgs Name                             Flgs Name
     M$UC                             r    AS_BLANK                         r    AS_MODE
r    AS_FE_MODE                            M$LO                                  USERS_KEY
     NODE$                                 ERR_CODE                              AS_FIELD1
     REMEM_VAR                             REM_FCMD                              ASA_BRKS_LOC
     DSEG_FLG                              DSEG1$                                DSEG1SIZE
     DSEG2$                                DSEG2SIZE                             B_VECTNIL
PL6.E3A0      #004=ASR$R_DEVICE File=ASR$R_HLP.:E05TSI                           TUE 07/29/97 10:54 Page:168

  ****  Segment refs  ****

  Flags:  r = read only, s = secondary
Flgs Name                             Flgs Name                             Flgs Name
     ISSID
PL6.E3A0      #004=ASR$R_DEVICE File=ASR$R_HLP.:E05TSI                           TUE 07/29/97 10:54 Page:169


      867        1        /*M* ASR$R_DEVICE - processes the REMOVE DEVICE command.   */
      868        2        /*T***********************************************************/
      869        3        /*T*                                                         */
      870        4        /*T* Copyright (c) Bull HN Information Systems Inc., 1997    */
      871        5        /*T*                                                         */
      872        6        /*T***********************************************************/
      873        7        ASR$R_DEVICE: PROC ;

      7  4 000000   000000 700200 xent  ASR$R_DEVICE TSX0  ! X66_AUTO_0
         4 000001   000022 000000                    ZERO    18,0

      874        8                                                              /**/
      875        9        %SET LISTSUB = '1'B ;
      876       10        /*********************************************************************/
      877       11        /*   Include files   include files   include files   include files   */
      878       12        /*********************************************************************/
      879       13                                                              /**/
      880       14              %INCLUDE  CP_6 ;
      881       95              %INCLUDE  AS_PERR_C ;
      882      697              %INCLUDE B_ERRORS_C ;
      883     1824              %INCLUDE KC$CGBLK ;
      884     1872              %INCLUDE  AS_ENTRIES_M;
      885     2922              %INCLUDE  AS_SUPER_C ;
      886     3357              %INCLUDE  AS_SUBS_C ;
      887     4771              %INCLUDE  AS_MAC_C ;
      888     4851              %INCLUDE  KL_SUPER_C ;
      889     7753              %INCLUDE  XU_MACRO_C ;
      890    10859              %INCLUDE  XU_FORMAT_C ;
      891    11021              %INCLUDE  AS_SUPER_R ;
      892    14037
      893    14038        /*********************************************************************/
      894    14039        /*   Auto data       auto data       auto data       auto data       */
      895    14040        /*********************************************************************/
      896    14041                                                              /**/
      897    14042    1   DCL TREC$ PTR ;
      898    14043    1   DCL TWSNREC$ PTR ;
PL6.E3A0      #004=ASR$R_DEVICE File=ASR$R_HLP.:E05TSI                           TUE 07/29/97 10:54 Page:170
      899    14044    1   DCL BLK$ PTR ;
      900    14045    1   DCL ARS UBIN WORD ;
      901    14046    1   DCL TWSN_ARS UBIN WORD ;
      902    14047    1   DCL TWSN# UBIN WORD ;
      903    14048    1   DCL TWSNC CHAR(4) ;
      904    14049    1   DCL I UBIN WORD ;
      905    14050    1   DCL J UBIN WORD ;
      906    14051    1   DCL SIZE SBIN;
      907    14052    1   DCL DEVS UBIN WORD ;
      908    14053    1   DCL TYPE CHAR(2) ;
      909    14054    1   DCL WRITE_DEVS BIT (1);
      910    14055
      911    14056        /*********************************************************************/
      912    14057        /*   Static data     static data     static data     static data     */
      913    14058        /*********************************************************************/
      914    14059                                                              /**/
      915    14060    1   DCL 1 CON_KEY ALIGNED STATIC ,
      916    14061    1          2 CNT UBIN BYTE UNAL INIT( 9 ),
      917    14062    1          2 TXT UNAL ,
      918    14063    1             3 ACCT CHAR(8) UNAL INIT(' ') ,
      919    14064    1             3 ASTR CHAR(1) UNAL INIT('*') ;
      920    14065
      921    14066        /*********************************************************************/
      922    14067        /*   Entry dcls      entry dcls      entry dcls      entry dcls      */
      923    14068        /*********************************************************************/
      924    14069        %ASB$DELREC_HLP ;
      925    14072        %ASB$GETSEG ;
      926    14075        %ASB$ENQ_HLP ;
      927    14078        %ASB$DEQ_HLP ;
      928    14081        %ASH$ERROR ;
      929    14084        %ASH$WARN ;
      930    14087        %ASH$INFO ;
      931    14090        %ASB$READ_HLP ;
      932    14093        %ASB$WRITE_HLP ;
      933    14096        %ASB$WRITE_LO ;
      934    14099        %ASR$R_DEVWSN ;
      935    14102
PL6.E3A0      #004=ASR$R_DEVICE File=ASR$R_HLP.:E05TSI                           TUE 07/29/97 10:54 Page:171
      936    14103        /*********************************************************************/
      937    14104        /*   Local based     local based     local based     local based     */
      938    14105        /*********************************************************************/
      939    14106                                                              /**/
      940    14107            %PARSE$OUT( NAME=P$NODE, STCLASS="BASED(NODE$)",
      941    14108                        NDTYPE=TYPE, NSUBLKS=SUBNODES) ;
      942    14153              %PARSE$SYM( NAME = OUT$SYM ,
      943    14154                          STCLASS="BASED(BLK$)") ;
      944    14192              %KL_DREC ( NAME = KL$TREC  ,
      945    14193                    STCLASS = "BASED(TREC$)",
      946    14194                    LAST = "," ) ;
      947    14307              %KC$CGID(FPTN=KC$CGID,
      948    14308                      STCLASS=STCLASS,
      949    14309                      LVL = 2 ,
      950    14310                      LAST = ";" );
      951    14336              %KL_TWSNREC(  NAME = KL$TWSNREC ,
      952    14337                            STCLASS="BASED( TWSNREC$ )") ;
      953    14362
      954    14363        /*********************************************************************/
      955    14364        /*   Procedure       procedure       procedure       procedure       */
      956    14365        /*********************************************************************/
      957    14366                                                              /**/
      958    14367        /*
      959    14368            ***            Begin procedure                    ***
      960    14369        */
      961    14370                                                              /* Did we get data SEG.? */
      962    14371    1   IF NOT DSEG_FLG

  14371  4 000002   000000 234000 xsym               SZN     DSEG_FLG
         4 000003   000015 604000 4                  TMI     s:14393

      963    14372    1   THEN                                        /* No, get them. */
      964    14373    1      CALL ASB$GETSEG

  14373  4 000004   000002 631400 xsym               EPPR1   B_VECTNIL+2
         4 000005   000000 701000 xent               TSX1    ASB$GETSEG
         4 000006   000010 702000 4                  TSX2    s:14387
PL6.E3A0      #004=ASR$R_DEVICE File=ASR$R_HLP.:E05TSI                           TUE 07/29/97 10:54 Page:172
         4 000007   000015 710000 4                  TRA     s:14393

      965    14374    2      WHENALTRETURN DO;

      966    14375              %SCREAM( ERR#=%E$GETSEGERR , LEVEL=ERROR, MID='R' );

  14387  4 000010   000000 630400 5                  EPPR0   0
         4 000011   000017 631400 xsym               EPPR1   B_VECTNIL+15
         4 000012   000000 701000 xent               TSX1    ASH$ERROR
         4 000013   000000 011000                    NOP     0

      967    14390    2         RETURN ;

  14390  4 000014   000000 702200 xent               TSX2  ! X66_ARET

      968    14391    2         END ;   /*  Whenaltreturn from ASB$GETSEG  */
      969    14392                                                              /* Get device name */
      970    14393    1   BLK$ = P$NODE.SUBLK$(0) -> P$NODE.SUBLK$(0) ;

  14393  4 000015   000000 470400 xsym               LDP0    NODE$
         4 000016   000003 471500                    LDP1    3,,PR0
         4 000017   100003 236100                    LDQ     3,,PR1
         4 000020   200005 756100                    STQ     BLK$,,AUTO

      971    14394    1   IF OUT$SYM.COUNT > 8

  14394  4 000021   200005 473500                    LDP3    BLK$,,AUTO
         4 000022   300004 236100                    LDQ     4,,PR3
         4 000023   777000 376003                    ANQ     -512,DU
         4 000024   011000 116003                    CMPQ    4608,DU
         4 000025   000033 602000 4                  TNC     s:14417

      972    14395    2   THEN DO ;

      973    14396        /*E*  ERROR:    ASR-E$DNAMETOOBIG-C
      974    14397              MESSAGE:  Device name too long.
      975    14398              MESSAGE1: Device names can be at most 8 characters.
PL6.E3A0      #004=ASR$R_DEVICE File=ASR$R_HLP.:E05TSI                           TUE 07/29/97 10:54 Page:173
      976    14399        */
      977    14400           %SCREAM( ERR#=E$DNAMETOOBIG , LEVEL=ERROR, MID='R' );

  14412  4 000026   000001 630400 5                  EPPR0   1
         4 000027   000017 631400 xsym               EPPR1   B_VECTNIL+15
         4 000030   000000 701000 xent               TSX1    ASH$ERROR
         4 000031   000000 011000                    NOP     0

      978    14415    2      RETURN ;

  14415  4 000032   000000 702200 xent               TSX2  ! X66_ARET

      979    14416    2      END ; /* Then do */
      980    14417    1   CON_KEY.TXT.ACCT = OUT$SYM.TEXT ;

  14417  4 000033   300004 236100                    LDQ     4,,PR3
         4 000034   000033 772000                    QRL     27
         4 000035   000000 620006                    EAX0    0,QL
         4 000036   040000 100540                    MLR     fill='040'O
         4 000037   300004 200010                    ADSC9   4,,PR3                   cn=1,n=*X0
         4 000040   000000 200010 2                  ADSC9   CON_KEY                  cn=1,n=8

      981    14418    1   USERS_KEY = CON_KEY ;

  14418  4 000041   000000 100400                    MLR     fill='000'O
         4 000042   000000 000012 2                  ADSC9   CON_KEY                  cn=0,n=10
         4 000043   000000 000052 xsym               ADSC9   USERS_KEY                cn=0,n=42

      982    14419                                                              /* Pick up terminal record */
      983    14420    1   TREC$ = DSEG1$ ;

  14420  4 000044   000000 236000 xsym               LDQ     DSEG1$
         4 000045   200003 756100                    STQ     TREC$,,AUTO

      984    14421    1   ARS = DSEG1SIZE ;

  14421  4 000046   000000 235000 xsym               LDA     DSEG1SIZE
PL6.E3A0      #004=ASR$R_DEVICE File=ASR$R_HLP.:E05TSI                           TUE 07/29/97 10:54 Page:174
         4 000047   200006 755100                    STA     ARS,,AUTO

      985    14422    1   CALL ASB$READ_HLP( TREC$, ARS ) ALTRET( READ_TREC_ERR ) ;

  14422  4 000050   200006 631500                    EPPR1   ARS,,AUTO
         4 000051   200021 451500                    STP1    WRITE_DEVS+2,,AUTO
         4 000052   200003 634500                    EPPR4   TREC$,,AUTO
         4 000053   200020 454500                    STP4    WRITE_DEVS+1,,AUTO
         4 000054   200020 630500                    EPPR0   WRITE_DEVS+1,,AUTO
         4 000055   000020 631400 xsym               EPPR1   B_VECTNIL+16
         4 000056   000000 701000 xent               TSX1    ASB$READ_HLP
         4 000057   000061 702000 4                  TSX2    READ_TREC_ERR

      986    14423    2   IF '0'B THEN DO ;

  14423  4 000060   000110 710000 4                  TRA     s:14452

  14415  4 000061                       READ_TREC_E* null
      987    14424    2   READ_TREC_ERR: ;
      988    14425    2      IF MERR_CODE.CODE = %E$NOKEY

  14425  4 000061   000000 236000 xsym               LDQ     ERR_CODE
         4 000062   377770 376007                    ANQ     131064,DL
         4 000063   001020 116007                    CMPQ    528,DL
         4 000064   000103 601000 4                  TNZ     s:14449

      989    14426    3      THEN DO ;

      990    14427        /*E*  ERROR:    ASR-E$DEVICENOEXIST-C
      991    14428              MESSAGE0: Device %%U1 %does not exist.
      992    14429        */
      993    14430    3         AS_FIELD1.COUNT = OUT$SYM.COUNT ;

  14430  4 000065   200005 470500                    LDP0    BLK$,,AUTO
         4 000066   000004 236100                    LDQ     4,,PR0
         4 000067   000000 552040 xsym               STBQ    AS_FIELD1,'40'O

PL6.E3A0      #004=ASR$R_DEVICE File=ASR$R_HLP.:E05TSI                           TUE 07/29/97 10:54 Page:175
      994    14431    3         AS_FIELD1.TEXT = OUT$SYM.TEXT ;

  14431  4 000070   000004 236100                    LDQ     4,,PR0
         4 000071   000033 772000                    QRL     27
         4 000072   000000 620006                    EAX0    0,QL
         4 000073   040000 100540                    MLR     fill='040'O
         4 000074   000004 200010                    ADSC9   4,,PR0                   cn=1,n=*X0
         4 000075   000000 200050 xsym               ADSC9   AS_FIELD1                cn=1,n=40

      995    14432              %SCREAM( ERR#=E$DEVICENOEXIST, LEVEL=WARN, MID='R' );

  14442  4 000076   000002 630400 5                  EPPR0   2
         4 000077   000017 631400 xsym               EPPR1   B_VECTNIL+15
         4 000100   000000 701000 xent               TSX1    ASH$WARN
         4 000101   000000 011000                    NOP     0

      996    14447    3         END ; /* Then do */

  14447  4 000102   000107 710000 4                  TRA     s:14450

      997    14448    2      ELSE
      998    14449    2         CALL ASH$ERROR( ERR_CODE ) ;

  14449  4 000103   000003 630400 5                  EPPR0   3
         4 000104   000017 631400 xsym               EPPR1   B_VECTNIL+15
         4 000105   000000 701000 xent               TSX1    ASH$ERROR
         4 000106   000000 011000                    NOP     0

      999    14450    2      RETURN ;

  14450  4 000107   000000 702200 xent               TSX2  ! X66_ARET

     1000    14451    2      END ;
     1001    14452    1   IF ( KL$TREC.ATYP ~= %KLAT_CG# OR KL$TREC.KC$CGID.NAME#.TXT='OCCG')

  14452  4 000110   200003 470500                    LDP0    TREC$,,AUTO
         4 000111   000000 236100                    LDQ     0,,PR0
PL6.E3A0      #004=ASR$R_DEVICE File=ASR$R_HLP.:E05TSI                           TUE 07/29/97 10:54 Page:176
         4 000112   777000 376003                    ANQ     -512,DU
         4 000113   002000 116003                    CMPQ    1024,DU
         4 000114   000121 601000 4                  TNZ     s:14452+9
         4 000115   040000 106500                    CMPC    fill='040'O
         4 000116   000024 200037                    ADSC9   20,,PR0                  cn=1,n=31
         4 000117   000003 000004 3                  ADSC9   3                        cn=0,n=4
         4 000120   000141 601000 4                  TNZ     s:14477
         4 000121   003000 116003                    CMPQ    1536,DU
         4 000122   000141 600000 4                  TZE     s:14477

     1002    14453    2        AND KL$TREC.ATYP ~= %KLAT_RES# THEN DO ;

     1003    14454        /*E*  ERROR:    ASR-E$NOTDEVICE-C
     1004    14455              MESSAGE0: %"%U1" %is not a device.
     1005    14456        */
     1006    14457    2      AS_FIELD1.COUNT = OUT$SYM.COUNT ;

  14457  4 000123   200005 471500                    LDP1    BLK$,,AUTO
         4 000124   100004 236100                    LDQ     4,,PR1
         4 000125   000000 552040 xsym               STBQ    AS_FIELD1,'40'O

     1007    14458    2      AS_FIELD1.TEXT  = OUT$SYM.TEXT ;

  14458  4 000126   100004 236100                    LDQ     4,,PR1
         4 000127   000033 772000                    QRL     27
         4 000130   000000 620006                    EAX0    0,QL
         4 000131   040000 100540                    MLR     fill='040'O
         4 000132   100004 200010                    ADSC9   4,,PR1                   cn=1,n=*X0
         4 000133   000000 200050 xsym               ADSC9   AS_FIELD1                cn=1,n=40

     1008    14459           %SCREAM( ERR#=E$NOTDEVICE , LEVEL=ERROR, MID='R' );

  14471  4 000134   000004 630400 5                  EPPR0   4
         4 000135   000017 631400 xsym               EPPR1   B_VECTNIL+15
         4 000136   000000 701000 xent               TSX1    ASH$ERROR
         4 000137   000000 011000                    NOP     0

PL6.E3A0      #004=ASR$R_DEVICE File=ASR$R_HLP.:E05TSI                           TUE 07/29/97 10:54 Page:177
     1009    14474    2      RETURN ;

  14474  4 000140   000000 702200 xent               TSX2  ! X66_ARET

     1010    14475    2      END ; /* Then do */
     1011    14476                                                              /* Get twsn number */
     1012    14477    1   TWSNC = KL$TREC.TWSN# ;

  14477  4 000141   000001 236100                    LDQ     1,,PR0
         4 000142   200011 756100                    STQ     TWSNC,,AUTO

     1013    14478                                                              /* Pick up twsn record */
     1014    14479    1   CALL CONCAT( USERS_KEY.TXTC, 'TWSN', TWSNC ) ;

  14479  4 000143   040000 100400                    MLR     fill='040'O
         4 000144   000005 000004 3                  ADSC9   5                        cn=0,n=4
         4 000145   000000 200004 xsym               ADSC9   USERS_KEY                cn=1,n=4
         4 000146   040000 100500                    MLR     fill='040'O
         4 000147   200011 000004                    ADSC9   TWSNC,,AUTO              cn=0,n=4
         4 000150   000001 200045 xsym               ADSC9   USERS_KEY+1              cn=1,n=37

     1015    14480    1   USERS_KEY.COUNT = 8 ;

  14480  4 000151   010000 236003                    LDQ     4096,DU
         4 000152   000000 552040 xsym               STBQ    USERS_KEY,'40'O

     1016    14481    1   TWSNREC$ = DSEG2$ ;

  14481  4 000153   000000 236000 xsym               LDQ     DSEG2$
         4 000154   200004 756100                    STQ     TWSNREC$,,AUTO

     1017    14482    1   TWSN_ARS = DSEG2SIZE ;

  14482  4 000155   000000 235000 xsym               LDA     DSEG2SIZE
         4 000156   200007 755100                    STA     TWSN_ARS,,AUTO

     1018    14483    1   CALL ASB$ENQ_HLP ALTRET( ENQ_ERR ) ;
PL6.E3A0      #004=ASR$R_DEVICE File=ASR$R_HLP.:E05TSI                           TUE 07/29/97 10:54 Page:178

  14483  4 000157   000002 631400 xsym               EPPR1   B_VECTNIL+2
         4 000160   000000 701000 xent               TSX1    ASB$ENQ_HLP
         4 000161   000163 702000 4                  TSX2    ENQ_ERR

     1019    14484    2   IF '0'B THEN DO;

  14484  4 000162   000164 710000 4                  TRA     s:14488

  14474  4 000163                       ENQ_ERR      null
     1020    14485    2   ENQ_ERR: ;
     1021    14486    2      RETURN ;

  14486  4 000163   000000 702200 xent               TSX2  ! X66_ARET

     1022    14487    2      END ;
     1023    14488    1   CALL ASB$READ_HLP( TWSNREC$, TWSN_ARS ) ALTRET( READ_TWSN_ERR ) ;

  14488  4 000164   200007 630500                    EPPR0   TWSN_ARS,,AUTO
         4 000165   200021 450500                    STP0    WRITE_DEVS+2,,AUTO
         4 000166   200004 631500                    EPPR1   TWSNREC$,,AUTO
         4 000167   200020 451500                    STP1    WRITE_DEVS+1,,AUTO
         4 000170   200020 630500                    EPPR0   WRITE_DEVS+1,,AUTO
         4 000171   000020 631400 xsym               EPPR1   B_VECTNIL+16
         4 000172   000000 701000 xent               TSX1    ASB$READ_HLP
         4 000173   000175 702000 4                  TSX2    READ_TWSN_ERR

     1024    14489    2   IF '0'B THEN DO ;

  14489  4 000174   000202 710000 4                  TRA     s:14494

  14486  4 000175                       READ_TWSN_E* null
     1025    14490    2   READ_TWSN_ERR: ;
     1026    14491    2      CALL ASH$ERROR( ERR_CODE ) ;

  14491  4 000175   000003 630400 5                  EPPR0   3
         4 000176   000017 631400 xsym               EPPR1   B_VECTNIL+15
PL6.E3A0      #004=ASR$R_DEVICE File=ASR$R_HLP.:E05TSI                           TUE 07/29/97 10:54 Page:179
         4 000177   000000 701000 xent               TSX1    ASH$ERROR
         4 000200   000000 011000                    NOP     0

     1027    14492    2      RETURN ;

  14492  4 000201   000000 702200 xent               TSX2  ! X66_ARET

     1028    14493    2      END ;
     1029    14494    1   TYPE = SUBSTR(KL$TREC.RENAME,0,2);

  14494  4 000202   200003 470500                    LDP0    TREC$,,AUTO
         4 000203   000011 220100                    LDX0    9,,PR0
         4 000204   200016 740100                    STX0    TYPE,,AUTO

     1030    14495    1   DEVS = KL$TWSNREC.NDEV ;

  14495  4 000205   200004 471500                    LDP1    TWSNREC$,,AUTO
         4 000206   100004 235100                    LDA     4,,PR1
         4 000207   200015 755100                    STA     DEVS,,AUTO

     1031    14496    2   DO I = 0 TO DEVS-1 ;

  14496  4 000210   200012 450100                    STZ     I,,AUTO
         4 000211   000263 710000 4                  TRA     s:14507+3

     1032    14497    2      IF KL$TWSNREC.DEVS.TYP(I) = TYPE AND KL$TWSNREC.DEVS.ACCT(I) =

  14497  4 000212   200012 236100                    LDQ     I,,AUTO
         4 000213   000013 402007                    MPY     11,DL
         4 000214   200004 470500                    LDP0    TWSNREC$,,AUTO
         4 000215   000005 220106                    LDX0    5,QL,PR0
         4 000216   200016 100100                    CMPX0   TYPE,,AUTO
         4 000217   000260 601000 4                  TNZ     s:14507
         4 000220   200012 236100                    LDQ     I,,AUTO
         4 000221   000054 402007                    MPY     44,DL
         4 000222   040000 106506                    CMPC    fill='040'O
         4 000223   000011 000010                    ADSC9   9,Q,PR0                  cn=0,n=8
PL6.E3A0      #004=ASR$R_DEVICE File=ASR$R_HLP.:E05TSI                           TUE 07/29/97 10:54 Page:180
         4 000224   000000 200010 2                  ADSC9   CON_KEY                  cn=1,n=8
         4 000225   000260 601000 4                  TNZ     s:14507

     1033    14498    2           CON_KEY.TXT.ACCT
     1034    14499    3      THEN DO ;

     1035    14500    4         DO J = I TO DEVS-2 ;

  14500  4 000226   200012 235100                    LDA     I,,AUTO
         4 000227   200013 755100                    STA     J,,AUTO
         4 000230   000242 710000 4                  TRA     s:14502+3

     1036    14501    4            KL$TWSNREC.DEVS(J) = KL$TWSNREC.DEVS(J+1) ;

  14501  4 000231   200013 236100                    LDQ     J,,AUTO
         4 000232   000054 402007                    MPY     44,DL
         4 000233   200004 470500                    LDP0    TWSNREC$,,AUTO
         4 000234   000106 100506                    MLR     fill='000'O
         4 000235   000020 000054                    ADSC9   16,Q,PR0                 cn=0,n=44
         4 000236   000005 000054                    ADSC9   5,Q,PR0                  cn=0,n=44

     1037    14502    4            END ;  /* Do j */

  14502  4 000237   200013 235100                    LDA     J,,AUTO
         4 000240   000001 035007                    ADLA    1,DL
         4 000241   200013 755100                    STA     J,,AUTO
         4 000242   200015 236100                    LDQ     DEVS,,AUTO
         4 000243   000002 136007                    SBLQ    2,DL
         4 000244   000247 604000 4                  TMI     s:14503
         4 000245   200013 116100                    CMPQ    J,,AUTO
         4 000246   000231 603000 4                  TRC     s:14501

     1038    14503    3         KL$TWSNREC.NDEV = KL$TWSNREC.NDEV - 1 ;

  14503  4 000247   200004 470500                    LDP0    TWSNREC$,,AUTO
         4 000250   000004 235100                    LDA     4,,PR0
         4 000251   000001 135007                    SBLA    1,DL
PL6.E3A0      #004=ASR$R_DEVICE File=ASR$R_HLP.:E05TSI                           TUE 07/29/97 10:54 Page:181
         4 000252   000004 755100                    STA     4,,PR0

     1039    14504    3         TWSN_ARS = TWSN_ARS - LENGTHC( KL$TWSNREC.DEVS(0) ) ;

  14504  4 000253   200007 235100                    LDA     TWSN_ARS,,AUTO
         4 000254   000054 135007                    SBLA    44,DL
         4 000255   200007 755100                    STA     TWSN_ARS,,AUTO

     1040    14505    3         I = DEVS ;

  14505  4 000256   200015 235100                    LDA     DEVS,,AUTO
         4 000257   200012 755100                    STA     I,,AUTO

     1041    14506    3         END ;  /* End then do */

     1042    14507    2      END ; /* Do i */

  14507  4 000260   200012 235100                    LDA     I,,AUTO
         4 000261   000001 035007                    ADLA    1,DL
         4 000262   200012 755100                    STA     I,,AUTO
         4 000263   200012 236100                    LDQ     I,,AUTO
         4 000264   200015 116100                    CMPQ    DEVS,,AUTO
         4 000265   000212 602000 4                  TNC     s:14497

     1043    14508                                                              /* Write twsn record */
     1044    14509    1   CALL ASB$WRITE_HLP( TWSNREC$, TWSN_ARS ) ;

  14509  4 000266   200007 630500                    EPPR0   TWSN_ARS,,AUTO
         4 000267   200021 450500                    STP0    WRITE_DEVS+2,,AUTO
         4 000270   200004 631500                    EPPR1   TWSNREC$,,AUTO
         4 000271   200020 451500                    STP1    WRITE_DEVS+1,,AUTO
         4 000272   200020 630500                    EPPR0   WRITE_DEVS+1,,AUTO
         4 000273   000020 631400 xsym               EPPR1   B_VECTNIL+16
         4 000274   000000 701000 xent               TSX1    ASB$WRITE_HLP
         4 000275   000000 011000                    NOP     0

     1045    14510                                                              /* Delete device record */
PL6.E3A0      #004=ASR$R_DEVICE File=ASR$R_HLP.:E05TSI                           TUE 07/29/97 10:54 Page:182
     1046    14511    1   USERS_KEY = CON_KEY ;

  14511  4 000276   000000 100400                    MLR     fill='000'O
         4 000277   000000 000012 2                  ADSC9   CON_KEY                  cn=0,n=10
         4 000300   000000 000052 xsym               ADSC9   USERS_KEY                cn=0,n=42

     1047    14512    1   CALL ASB$DELREC_HLP ALTRET( DEL_ERR ) ;

  14512  4 000301   000002 631400 xsym               EPPR1   B_VECTNIL+2
         4 000302   000000 701000 xent               TSX1    ASB$DELREC_HLP
         4 000303   000332 702000 4                  TSX2    DEL_ERR

     1048    14513    1   WRITE_DEVS = '1'B; /* Write affected wsns */

  14513  4 000304   400000 236003                    LDQ     -131072,DU
         4 000305   200017 756100                    STQ     WRITE_DEVS,,AUTO

     1049    14514    1   CALL ASR$R_DEVWSN (WRITE_DEVS);

  14514  4 000306   200017 630500                    EPPR0   WRITE_DEVS,,AUTO
         4 000307   200020 450500                    STP0    WRITE_DEVS+1,,AUTO
         4 000310   200020 630500                    EPPR0   WRITE_DEVS+1,,AUTO
         4 000311   000017 631400 xsym               EPPR1   B_VECTNIL+15
         4 000312   000000 701000 xent               TSX1    ASR$R_DEVWSN
         4 000313   000000 011000                    NOP     0

     1050    14515    1   CALL ASB$DEQ_HLP ALTRET (ENQ_ERR);

  14515  4 000314   000002 631400 xsym               EPPR1   B_VECTNIL+2
         4 000315   000000 701000 xent               TSX1    ASB$DEQ_HLP
         4 000316   000163 702000 4                  TSX2    ENQ_ERR

     1051    14516        /*   ERROR: ASR-E$DEVREMOVED_WARN_WSN-0
     1052    14517        MESSAGE:WARNING -to maintain wsn and device consistancy, above wsn's should be rebu
             14517        ilt.
     1053    14518             MESSAGE1: There are still references to this device in the stated wsn records.
     1054    14519        */
PL6.E3A0      #004=ASR$R_DEVICE File=ASR$R_HLP.:E05TSI                           TUE 07/29/97 10:54 Page:183
     1055    14520    1   IF WRITE_DEVS

  14520  4 000317   200017 234100                    SZN     WRITE_DEVS,,AUTO
         4 000320   000325 605000 4                  TPL     s:14538

     1056    14521    2   THEN DO;

     1057    14522           %SCREAM (ERR#=E$DEVREMOVED_WARN_WSN,LEVEL=INFO,MID='R');

  14530  4 000321   000005 630400 5                  EPPR0   5
         4 000322   000017 631400 xsym               EPPR1   B_VECTNIL+15
         4 000323   000000 701000 xent               TSX1    ASH$INFO
         4 000324   000000 011000                    NOP     0

     1058    14537    2      END;

     1059    14538    1   CALL ASB$WRITE_LO( AS_BLANK, 1 );

  14538  4 000325   000006 630400 5                  EPPR0   6
         4 000326   000020 631400 xsym               EPPR1   B_VECTNIL+16
         4 000327   000000 701000 xent               TSX1    ASB$WRITE_LO
         4 000330   000000 011000                    NOP     0

     1060    14539    2   IF '0'B THEN DO ;

  14539  4 000331   000337 710000 4                  TRA     s:14545

  14530  4 000332                       DEL_ERR      null
     1061    14540    2   DEL_ERR: ;
     1062    14541    2      CALL ASH$ERROR( ERR_CODE ) ;

  14541  4 000332   000003 630400 5                  EPPR0   3
         4 000333   000017 631400 xsym               EPPR1   B_VECTNIL+15
         4 000334   000000 701000 xent               TSX1    ASH$ERROR
         4 000335   000000 011000                    NOP     0

     1063    14542    2      RETURN ;
PL6.E3A0      #004=ASR$R_DEVICE File=ASR$R_HLP.:E05TSI                           TUE 07/29/97 10:54 Page:184

  14542  4 000336   000000 702200 xent               TSX2  ! X66_ARET

     1064    14543    2      END ;
     1065    14544                                                              /**/
     1066    14545    1   SIZE = 16 + OUT$SYM.COUNT;

  14545  4 000337   200005 470500                    LDP0    BLK$,,AUTO
         4 000340   000004 236100                    LDQ     4,,PR0
         4 000341   000033 772000                    QRL     27
         4 000342   000020 036007                    ADLQ    16,DL
         4 000343   200014 756100                    STQ     SIZE,,AUTO

     1067    14546    1   CALL CONCAT (AS_FIELD1.TEXT, 'Device ', SUBSTR (OUT$SYM.TEXT, 0,

  14546  4 000344   000004 236100                    LDQ     4,,PR0
         4 000345   000033 772000                    QRL     27
         4 000346   040000 100400                    MLR     fill='040'O
         4 000347   000007 000007 3                  ADSC9   7                        cn=0,n=7
         4 000350   000000 200007 xsym               ADSC9   AS_FIELD1                cn=1,n=7
         4 000351   000000 620006                    EAX0    0,QL
         4 000352   040000 100540                    MLR     fill='040'O
         4 000353   000004 200010                    ADSC9   4,,PR0                   cn=1,n=*X0
         4 000354   000002 000041 xsym               ADSC9   AS_FIELD1+2              cn=0,n=33
         4 000355   000041 116007                    CMPQ    33,DL
         4 000356   000364 603000 4                  TRC     s:14548
         4 000357   777736 620006                    EAX0    -34,QL
         4 000360   777777 660003                    ERX0    -1,DU
         4 000361   040046 100400                    MLR     fill='040'O
         4 000362   000011 000011 3                  ADSC9   9                        cn=0,n=9
         4 000363   000002 000010 xsym               ADSC9   AS_FIELD1+2,Q            cn=0,n=*X0

     1068    14547    1        OUT$SYM.COUNT), ' removed.');
     1069    14548    1   CALL ASB$WRITE_LO (SUBSTR (AS_FIELD1.TEXT, 0, SIZE), SIZE);

  14548  4 000364   200014 631500                    EPPR1   SIZE,,AUTO
         4 000365   200021 451500                    STP1    WRITE_DEVS+2,,AUTO
PL6.E3A0      #004=ASR$R_DEVICE File=ASR$R_HLP.:E05TSI                           TUE 07/29/97 10:54 Page:185
         4 000366   000010 236000 5                  LDQ     8
         4 000367   200020 756100                    STQ     WRITE_DEVS+1,,AUTO
         4 000370   200020 630500                    EPPR0   WRITE_DEVS+1,,AUTO
         4 000371   000020 631400 xsym               EPPR1   B_VECTNIL+16
         4 000372   000000 701000 xent               TSX1    ASB$WRITE_LO
         4 000373   000000 011000                    NOP     0

     1070    14549                                                              /**/
     1071    14550    1   RETURN ;

  14550  4 000374   000000 702200 xent               TSX2  ! X66_ARET
     1072    14551                                                              /**/
     1073    14552    1   END   ASR$R_DEVICE ;
     1074    14553        %EOD ;

PL6.E3A0      #004=ASR$R_DEVICE File=ASR$R_HLP.:E05TSI                           TUE 07/29/97 10:54 Page:186
--  Include file information  --

   AS_SUPER_R.:E05TOU  cannot be made into a system file and is referenced.
   XU_FORMAT_C.:E05TOU  is referenced.
   XU_MACRO_C.:E05TOU  is referenced.
   KL_SUPER_C.:E05TOU  is referenced.
   AS_MAC_C.:E05TOU  cannot be made into a system file and is referenced.
   AS_SUBS_C.:E05TOU  is referenced.
   AS_SUPER_C.:E05TOU  is referenced.
   AS_ENTRIES_M.:E05TOU  is referenced.
   KC$CGBLK.:E05TOU  is referenced.
   B_ERRORS_C.:E05TOU  is referenced.
   AS_PERR_C.:E05TOU  is referenced.
   CP_6.:E05TOU  cannot be made into a system file and is referenced.
   B$JIT_C.:E05TOU  was found in the system file and is never referenced.
   CP_6_C.:E05TOU  was found in the system file and is referenced.
      No diagnostics issued in procedure ASR$R_DEVICE.
PL6.E3A0      #004=ASR$R_DEVICE File=ASR$R_HLP.:E05TSI                           TUE 07/29/97 10:54 Page:187

 **** Variables and constants ****

  ****  Section 002  Data  ASR$R_DEVICE

  ****  Scalars and arrays  ****
OctLoc.c.b A Datatyp(siz) R M Lvl/name                 OctLoc.c.b A Datatyp(siz) R M Lvl/name

     0-0-0/w STRC(90)    r     1 CON_KEY

  ****  Auto variables  ****

  ****  Scalars and arrays  ****
OctLoc.c.b A Datatyp(siz) R M Lvl/name                 OctLoc.c.b A Datatyp(siz) R M Lvl/name

     6-0-0/w UBIN        r     1 ARS                        5-0-0/w PTR         r     1 BLK$
    15-0-0/w UBIN        r     1 DEVS                      12-0-0/w UBIN        r     1 I
    13-0-0/w UBIN        r     1 J                         14-0-0/w SBIN        r     1 SIZE
     3-0-0/w PTR         r     1 TREC$                     11-0-0/c CHAR(4)     r     1 TWSNC
     4-0-0/w PTR         r     1 TWSNREC$                   7-0-0/w UBIN        r     1 TWSN_ARS
    16-0-0/c CHAR(2)     r     1 TYPE                      17-0-0/b BIT         r     1 WRITE_DEVS

  ****  SYMREF variables  ****

  ****  Scalars and arrays  ****
OctLoc.c.b A Datatyp(siz) R M Lvl/name                 OctLoc.c.b A Datatyp(siz) R M Lvl/name

     0-0-0/c CHAR        r     1 AS_BLANK                   0-0-0/w STRC(369)   r     1 AS_FIELD1
     0-0-0/w PTR         r     1 DSEG1$                     0-0-0/w UBIN        r     1 DSEG1SIZE
     0-0-0/w PTR         r     1 DSEG2$                     0-0-0/w UBIN        r     1 DSEG2SIZE
     0-0-0/b BIT         r     1 DSEG_FLG                   0-0-0/b STRC        r     1 ERR_CODE
     0-0-0/b STRC        r     1 MERR_CODE                  0-0-0/w PTR         r     1 NODE$
     0-0-0/c STRC(378)   r     1 USERS_KEY

  ****  BASED and DCB variables  ****

  ****  Scalars and arrays  ****
OctLoc.c.b A Datatyp(siz) R M Lvl/name                 OctLoc.c.b A Datatyp(siz) R M Lvl/name
PL6.E3A0      #004=ASR$R_DEVICE File=ASR$R_HLP.:E05TSI                           TUE 07/29/97 10:54 Page:188

     0-0-0/w STRC(1008)  r     1 KL$TREC                    0-0-0/w STRC(576)   r     1 KL$TWSNREC
     0-0-0/w ASTR(153)   r     1 OUT$SYM                    0-0-0/w STRC(144)   r     1 P$NODE


   Procedure ASR$R_DEVICE requires 253 words for executable code.
   Procedure ASR$R_DEVICE requires 18 words of local(AUTO) storage.
PL6.E3A0      #004=ASR$R_DEVICE File=ASR$R_HLP.:E05TSI                           TUE 07/29/97 10:54 Page:189
          *** CROSS REFERENCE LISTING ***
**     DENOTES     IDENTIFIER DEFINITION
<<                 IDENTIFIER'S VALUE SET
>>                 IDENTIFIER'S VALUE USED
<>                 IDENTIFIER SET AND/OR USED
--                 IDENTIFIER REFERENCED
PL6.E3A0      #004=ASR$R_DEVICE File=ASR$R_HLP.:E05TSI                           TUE 07/29/97 10:54 Page:190
          MINI XREF LISTING

ARS
     14045**DCL     14421<<ASSIGN  14422<>CALL
ASA_BRKS_LOC
     11185**DCL     11185--REDEF
ASB$DELREC_HLP
     14070**DCL-ENT 14512--CALL
ASB$DEQ_HLP
     14079**DCL-ENT 14515--CALL
ASB$ENQ_HLP
     14076**DCL-ENT 14483--CALL
ASB$GETSEG
     14073**DCL-ENT 14373--CALL
ASB$READ_HLP
     14091**DCL-ENT 14422--CALL    14488--CALL
ASB$WRITE_HLP
     14094**DCL-ENT 14509--CALL
ASB$WRITE_LO
     14097**DCL-ENT 14538--CALL    14548--CALL
ASH$ERROR
     14082**DCL-ENT 14387--CALL    14412--CALL    14449--CALL    14471--CALL    14491--CALL    14541--CALL
ASH$INFO
     14088**DCL-ENT 14530--CALL
ASH$WARN
     14085**DCL-ENT 14442--CALL
ASR$R_DEVWSN
     14100**DCL-ENT 14514--CALL
AS_BLANK
     11045**DCL     14538<>CALL
AS_DEFAULT.BANNER_PERM
     11878**DCL     11879--REDEF
AS_DEFAULT.BUDGET.MACCT
     11783**DCL     11787--REDEF
PL6.E3A0      #004=ASR$R_DEVICE File=ASR$R_HLP.:E05TSI                           TUE 07/29/97 10:54 Page:191
AS_DEFAULT.BUDGET.MAX_PROJECTS
     11796**DCL     11799--REDEF
AS_DEFAULT.BUDGET.PACCUM
     11779**DCL     11781--REDEF
AS_DEFAULT.BUDGET.PMAXC
     11774**DCL     11776--REDEF
AS_DEFAULT.SETUP_CHRA.TXT
     11894**DCL     11895--REDEF   11896--REDEF
AS_DEFAULT_DREC.PASSWORD
     13148**DCL     13152--REDEF
AS_DEFAULT_DREC.RENAME
     13171**DCL     13172--REDEF
AS_DFLT.BANNER_PERM
     11700**DCL     11701--REDEF
AS_DFLT.BUDGET.MACCT
     11605**DCL     11609--REDEF
AS_DFLT.BUDGET.MAX_PROJECTS
     11618**DCL     11621--REDEF
AS_DFLT.BUDGET.PACCUM
     11601**DCL     11603--REDEF
AS_DFLT.BUDGET.PMAXC
     11596**DCL     11598--REDEF
AS_DFLT.SETUP_CHRA.TXT
     11716**DCL     11717--REDEF   11718--REDEF
AS_FE_MODE
     11051**DCL     11052--REDEF
AS_FIELD1.COUNT
     11182**DCL     14430<<ASSIGN  14457<<ASSIGN
AS_FIELD1.TEXT
     11182**DCL     14431<<ASSIGN  14458<<ASSIGN  14546<<CALLBLT 14548<>CALL
AS_MODE
     11048**DCL     11050--REDEF
AS_MOD_USER.ACCESS
     13913**DCL     13914--REDEF
AS_MOD_USER.BANNER
     13900**DCL     13901--REDEF
PL6.E3A0      #004=ASR$R_DEVICE File=ASR$R_HLP.:E05TSI                           TUE 07/29/97 10:54 Page:192
AS_MOD_USER.BANNER_PERM
     13902**DCL     13903--REDEF
AS_MOD_USER.BILL
     13908**DCL     13909--REDEF
AS_MOD_USER.CPROC
     13904**DCL     13905--REDEF
AS_MOD_USER.FEBILL
     13984**DCL     13985--REDEF
AS_MOD_USER.FECXTMEM
     14001**DCL     14002--REDEF
AS_MOD_USER.FEMINTS
     13986**DCL     13987--REDEF
AS_MOD_USER.FEMMEM
     13997**DCL     13998--REDEF
AS_MOD_USER.FEMTIME
     13995**DCL     13996--REDEF
AS_MOD_USER.FEPPRIV
     13992**DCL     13994--REDEF
AS_MOD_USER.FEPRIV
     13989**DCL     13991--REDEF
AS_MOD_USER.FORCE_BIT
     13898**DCL     13899--REDEF
AS_MOD_USER.KEY
     13980**DCL     13982--REDEF
AS_MOD_USER.LASTCPROC
     13906**DCL     13907--REDEF
AS_MOD_USER.LIMITS.DO_
     13954**DCL     13955--REDEF
AS_MOD_USER.LIMITS.FPOOLS
     13970**DCL     13971--REDEF
AS_MOD_USER.LIMITS.LO
     13950**DCL     13951--REDEF
AS_MOD_USER.LIMITS.MEM
     13946**DCL     13947--REDEF
AS_MOD_USER.LIMITS.MPRIO
     13974**DCL     13975--REDEF
PL6.E3A0      #004=ASR$R_DEVICE File=ASR$R_HLP.:E05TSI                           TUE 07/29/97 10:54 Page:193
AS_MOD_USER.LIMITS.PDIS
     13962**DCL     13963--REDEF
AS_MOD_USER.LIMITS.PO
     13958**DCL     13959--REDEF
AS_MOD_USER.LIMITS.TDIS
     13966**DCL     13967--REDEF
AS_MOD_USER.LIMITS.TIME
     13942**DCL     13943--REDEF
AS_MOD_USER.MAXENQ
     13923**DCL     13924--REDEF
AS_MOD_USER.PERM_BIT
     13896**DCL     13897--REDEF
AS_MOD_USER.PPRIV
     13918**DCL     13920--REDEF
AS_MOD_USER.PRIOB
     13925**DCL     13926--REDEF
AS_MOD_USER.PRIV
     13915**DCL     13917--REDEF
AS_MOD_USER.QUAN
     13921**DCL     13922--REDEF
AS_MOD_USER.SETUP
     13894**DCL     13895--REDEF
AS_PROJECT.BANNER_PERM
     12234**DCL     12235--REDEF
AS_PROJECT.BUDGET.MACCT
     12139**DCL     12143--REDEF
AS_PROJECT.BUDGET.MAX_PROJECTS
     12152**DCL     12155--REDEF
AS_PROJECT.BUDGET.PACCUM
     12135**DCL     12137--REDEF
AS_PROJECT.BUDGET.PMAXC
     12130**DCL     12132--REDEF
AS_PROJECT.SETUP_CHRA.TXT
     12250**DCL     12251--REDEF   12252--REDEF
AS_PROJECT_DFLT.BANNER_PERM
     12412**DCL     12413--REDEF
PL6.E3A0      #004=ASR$R_DEVICE File=ASR$R_HLP.:E05TSI                           TUE 07/29/97 10:54 Page:194
AS_PROJECT_DFLT.BUDGET.MACCT
     12317**DCL     12321--REDEF
AS_PROJECT_DFLT.BUDGET.MAX_PROJECTS
     12330**DCL     12333--REDEF
AS_PROJECT_DFLT.BUDGET.PACCUM
     12313**DCL     12315--REDEF
AS_PROJECT_DFLT.BUDGET.PMAXC
     12308**DCL     12310--REDEF
AS_PROJECT_DFLT.SETUP_CHRA.TXT
     12428**DCL     12429--REDEF   12430--REDEF
AS_PROJECT_DFLT_DREC.PASSWORD
     13634**DCL     13638--REDEF
AS_PROJECT_DFLT_DREC.RENAME
     13657**DCL     13658--REDEF
AS_PROJECT_DREC.PASSWORD
     13472**DCL     13476--REDEF
AS_PROJECT_DREC.RENAME
     13495**DCL     13496--REDEF
AS_PROJ_ADMIN.BANNER_PERM
     12056**DCL     12057--REDEF
AS_PROJ_ADMIN.BUDGET.MACCT
     11961**DCL     11965--REDEF
AS_PROJ_ADMIN.BUDGET.MAX_PROJECTS
     11974**DCL     11977--REDEF
AS_PROJ_ADMIN.BUDGET.PACCUM
     11957**DCL     11959--REDEF
AS_PROJ_ADMIN.BUDGET.PMAXC
     11952**DCL     11954--REDEF
AS_PROJ_ADMIN.SETUP_CHRA.TXT
     12072**DCL     12073--REDEF   12074--REDEF
AS_PROJ_ADMIN_DREC.PASSWORD
     13310**DCL     13314--REDEF
AS_PROJ_ADMIN_DREC.RENAME
     13333**DCL     13334--REDEF
AS_USERS.BANNER_PERM
     11522**DCL     11523--REDEF
PL6.E3A0      #004=ASR$R_DEVICE File=ASR$R_HLP.:E05TSI                           TUE 07/29/97 10:54 Page:195
AS_USERS.BUDGET.MACCT
     11427**DCL     11431--REDEF
AS_USERS.BUDGET.MAX_PROJECTS
     11440**DCL     11443--REDEF
AS_USERS.BUDGET.PACCUM
     11423**DCL     11425--REDEF
AS_USERS.BUDGET.PMAXC
     11418**DCL     11420--REDEF
AS_USERS.SETUP_CHRA.TXT
     11538**DCL     11539--REDEF   11540--REDEF
AS_USERS_CONSTANT.BANNER_PERM
     12590**DCL     12591--REDEF
AS_USERS_CONSTANT.BUDGET.MACCT
     12495**DCL     12499--REDEF
AS_USERS_CONSTANT.BUDGET.MAX_PROJECTS
     12508**DCL     12511--REDEF
AS_USERS_CONSTANT.BUDGET.PACCUM
     12491**DCL     12493--REDEF
AS_USERS_CONSTANT.BUDGET.PMAXC
     12486**DCL     12488--REDEF
AS_USERS_CONSTANT.SETUP_CHRA.TXT
     12606**DCL     12607--REDEF   12608--REDEF
BLK$
     14044**DCL     14161--IMP-PTR 14393<<ASSIGN  14394>>IF      14417>>ASSIGN  14417>>ASSIGN  14430>>ASSIGN
     14431>>ASSIGN  14431>>ASSIGN  14457>>ASSIGN  14458>>ASSIGN  14458>>ASSIGN  14545>>ASSIGN  14546>>CALLBLT
     14546>>CALLBLT 14546>>CALLBLT
CON_KEY
     14060**DCL     14418>>ASSIGN  14511>>ASSIGN
CON_KEY.TXT.ACCT
     14063**DCL     14417<<ASSIGN  14497>>IF
DEL_ERR
     14530**LABEL   14512--CALLALT
DEVS
     14052**DCL     14495<<ASSIGN  14496>>DOINDEX 14500>>DOINDEX 14505>>ASSIGN
DSEG1$
     11186**DCL     14420>>ASSIGN
PL6.E3A0      #004=ASR$R_DEVICE File=ASR$R_HLP.:E05TSI                           TUE 07/29/97 10:54 Page:196
DSEG1SIZE
     11187**DCL     14421>>ASSIGN
DSEG2$
     11187**DCL     14481>>ASSIGN
DSEG2SIZE
     11187**DCL     14482>>ASSIGN
DSEG_FLG
     11186**DCL     14371>>IF
ENQ_ERR
     14474**LABEL   14483--CALLALT 14515--CALLALT
ERR_CODE
     11180**DCL     11181--REDEF   14449<>CALL    14491<>CALL    14541<>CALL
I
     14049**DCL     14496<<DOINDEX 14497>>IF      14497>>IF      14500>>DOINDEX 14505<<ASSIGN
J
     14050**DCL     14500<<DOINDEX 14501>>ASSIGN  14501>>ASSIGN
KL$TREC.ATYP
     14212**DCL     14452>>IF      14452>>IF
KL$TREC.KC$CGID.NAME#.TXT
     14334**DCL     14452>>IF
KL$TREC.PASSWORD
     14265**DCL     14269--REDEF
KL$TREC.RENAME
     14288**DCL     14289--REDEF   14494>>ASSIGN
KL$TREC.TWSN#
     14262**DCL     14477>>ASSIGN
KL$TWSNREC.DEVS
     14342**DCL     14501<<ASSIGN  14501>>ASSIGN  14504--ASSIGN
KL$TWSNREC.DEVS.ACCT
     14356**DCL     14497>>IF
KL$TWSNREC.DEVS.TYP
     14343**DCL     14497>>IF
KL$TWSNREC.NDEV
     14341**DCL     14495>>ASSIGN  14503<<ASSIGN  14503>>ASSIGN
KL_DEFAULT.PASSWORD
     13796**DCL     13800--REDEF
PL6.E3A0      #004=ASR$R_DEVICE File=ASR$R_HLP.:E05TSI                           TUE 07/29/97 10:54 Page:197
KL_DEFAULT.RENAME
     13819**DCL     13820--REDEF
KL_DFLT.PASSWORD
     12986**DCL     12990--REDEF
KL_DFLT.RENAME
     13009**DCL     13010--REDEF
KL_DREC.PASSWORD
     12824**DCL     12828--REDEF
KL_DREC.RENAME
     12847**DCL     12848--REDEF
KL_DREC_CNT.PASSWORD
     12711**DCL     12715--REDEF
KL_DREC_CNT.RENAME
     12734**DCL     12735--REDEF
MERR_CODE.CODE
     11181**DCL     14425>>IF
NODE$
     11178**DCL     14114--IMP-PTR 14393>>ASSIGN
OUT$SYM.COUNT
     14184**DCL     14187--IMP-SIZ 14394>>IF      14417>>ASSIGN  14430>>ASSIGN  14431>>ASSIGN  14457>>ASSIGN
     14458>>ASSIGN  14545>>ASSIGN  14546>>CALLBLT 14546>>CALLBLT
OUT$SYM.TEXT
     14187**DCL     14417>>ASSIGN  14431>>ASSIGN  14458>>ASSIGN  14546>>CALLBLT
P$NODE.SUBLK$
     14147**DCL     14393>>ASSIGN  14393>>ASSIGN
PROJ_KEY.TEXT
     11058**DCL     11058--REDEF
PROJ_KEY.TXT.PROJECT
     11058**DCL     11058--REDEF
READ_TREC_ERR
     14415**LABEL   14422--CALLALT
READ_TWSN_ERR
     14486**LABEL   14488--CALLALT
REMEM_VAR
     11184**DCL     11184--REDEF
REM_FCMD
PL6.E3A0      #004=ASR$R_DEVICE File=ASR$R_HLP.:E05TSI                           TUE 07/29/97 10:54 Page:198
     11184**DCL     11185--REDEF
SIZE
     14051**DCL     14545<<ASSIGN  14548>>CALL    14548<>CALL
TREC$
     14042**DCL     14207--IMP-PTR 14420<<ASSIGN  14422<>CALL    14452>>IF      14452>>IF      14452>>IF
     14477>>ASSIGN  14494>>ASSIGN
TWSNC
     14048**DCL     14477<<ASSIGN  14479>>CALLBLT
TWSNREC$
     14043**DCL     14338--IMP-PTR 14481<<ASSIGN  14488<>CALL    14495>>ASSIGN  14497>>IF      14497>>IF
     14501>>ASSIGN  14501>>ASSIGN  14503>>ASSIGN  14503>>ASSIGN  14509<>CALL
TWSN_ARS
     14046**DCL     14482<<ASSIGN  14488<>CALL    14504<<ASSIGN  14504>>ASSIGN  14509<>CALL
TYPE
     14053**DCL     14494<<ASSIGN  14497>>IF
USERS_KEY
     11055**DCL     14418<<ASSIGN  14511<<ASSIGN
USERS_KEY.COUNT
     11055**DCL     14480<<ASSIGN
USERS_KEY.TEXT
     11055**DCL     11056--REDEF   11056--REDEF   11056--REDEF   11057--REDEF
USERS_KEY.TXTC
     11056**DCL     14479<<CALLBLT
WRITE_DEVS
     14054**DCL     14513<<ASSIGN  14514<>CALL    14520>>IF

PL6.E3A0      #005=ASR$R_TPDEVICE File=ASR$R_HLP.:E05TSI                         TUE 07/29/97 10:55 Page:199
     1075        1        /*M* ASR$R_TPDEVICE - processes the REMOVE TPDEVICE command.   */
     1076        2        /*T***********************************************************/
     1077        3        /*T*                                                         */
     1078        4        /*T* Copyright (c) Bull HN Information Systems Inc., 1997    */
     1079        5        /*T*                                                         */
     1080        6        /*T***********************************************************/
     1081        7        ASR$R_TPDEVICE: PROC ;
     1082        8                                                              /**/
     1083        9        %SET LISTSUB = '1'B ;
     1084       10        /*********************************************************************/
     1085       11        /*   Include files   include files   include files   include files   */
     1086       12        /*********************************************************************/
     1087       13                                                              /**/
     1088       14              %INCLUDE  CP_6 ;
     1089       95              %INCLUDE  AS_PERR_C ;
     1090      697              %INCLUDE B_ERRORS_C ;
     1091     1824              %INCLUDE KC$CGBLK ;
     1092     1872              %INCLUDE  AS_ENTRIES_M;
     1093     2922              %INCLUDE  AS_SUPER_C ;
     1094     3357              %INCLUDE  AS_SUBS_C ;
     1095     4771              %INCLUDE  AS_MAC_C ;
     1096     4851              %INCLUDE  KL_SUPER_C ;
     1097     7753              %INCLUDE  XU_MACRO_C ;
     1098    10859              %INCLUDE  XU_FORMAT_C ;
     1099    11021              %INCLUDE  AS_SUPER_R ;
     1100    14037
     1101    14038        /*********************************************************************/
     1102    14039        /*   Auto data       auto data       auto data       auto data       */
     1103    14040        /*********************************************************************/
     1104    14041                                                              /**/
     1105    14042    1   DCL TREC$ PTR ;
     1106    14043    1   DCL ARS UBIN WORD ;
     1107    14044    1   DCL I UBIN WORD ;
     1108    14045    1   DCL J UBIN WORD ;
     1109    14046    1   DCL ACCT CHAR (8);
     1110    14047    1   DCL UNAME CHAR(21);
     1111    14048    1   DCL ACCT_LEN UBIN;
PL6.E3A0      #005=ASR$R_TPDEVICE File=ASR$R_HLP.:E05TSI                         TUE 07/29/97 10:55 Page:200
     1112    14049    1   DCL UNAME_LEN UBIN;
     1113    14050    1   DCL SIZE SBIN;
     1114    14051
     1115    14052        /*********************************************************************/
     1116    14053        /*   Static data     static data     static data     static data     */
     1117    14054        /*********************************************************************/
     1118    14055                                                              /**/
     1119    14056    1   DCL 1 CON_KEY ALIGNED STATIC ,
     1120    14057    1          2 CNT UBIN BYTE UNAL INIT( 9 ),
     1121    14058    1          2 TXT UNAL ,
     1122    14059    1             3 ACCT CHAR(8) UNAL INIT(' ') ,
     1123    14060    1             3 UNAME CHAR(12) UNAL INIT(' ') ;
     1124    14061
     1125    14062        /*********************************************************************/
     1126    14063        /*   Entry dcls      entry dcls      entry dcls      entry dcls      */
     1127    14064        /*********************************************************************/
     1128    14065        %ASB$DELREC_HLP ;
     1129    14068        %ASB$GETSEG ;
     1130    14071        %ASB$ENQ_HLP ;
     1131    14074        %ASB$DEQ_HLP ;
     1132    14077        %ASH$ERROR ;
     1133    14080        %ASH$WARN ;
     1134    14083        %ASH$INFO ;
     1135    14086        %ASB$READ_HLP ;
     1136    14089        %ASB$WRITE_LO ;
     1137    14092
     1138    14093        /*********************************************************************/
     1139    14094        /*   Local based     local based     local based     local based     */
     1140    14095        /*********************************************************************/
     1141    14096                                                              /**/
     1142    14097            %PARSE$OUT( NAME=P$NODE, STCLASS=BASED,
     1143    14098                        NDTYPE=TYPE, NSUBLKS=SUBNODES) ;
     1144    14143              %PARSE$SYM( NAME = OUT$SYM ,
     1145    14144                          STCLASS=BASED);
     1146    14182              %KL_DREC ( NAME = KL$TREC  ,
     1147    14183                    STCLASS = "BASED(TREC$)",
     1148    14184                    LAST = "," ) ;
PL6.E3A0      #005=ASR$R_TPDEVICE File=ASR$R_HLP.:E05TSI                         TUE 07/29/97 10:55 Page:201
     1149    14297              %KC$CGID (FPTN=KC$CGID,
     1150    14298                        STCLASS = STCLASS,
     1151    14299                        LVL = 2,
     1152    14300                        LAST = ";" );
     1153    14326
     1154    14327        /*********************************************************************/
     1155    14328        /*   Procedure       procedure       procedure       procedure       */
     1156    14329        /*********************************************************************/
     1157    14330                                                              /**/
     1158    14331        /*
     1159    14332            ***            Begin procedure                    ***
     1160    14333        */
     1161    14334                                                              /* Did we get data SEG.? */
     1162    14335    1   IF NOT DSEG_FLG
     1163    14336    2   THEN DO;
     1164    14337    2      CALL ASB$GETSEG
     1165    14338    3      WHENALTRETURN DO;
     1166    14339              %SCREAM( ERR#=E$GETSEGERR , LEVEL=ERROR, MID='R' );
     1167    14354    3         RETURN ;
     1168    14355    3         END ;
     1169    14356    2      END;
     1170    14357        /* Set up the default uname if the option to not specify one is used*/
     1171    14358    1   CON_KEY.TXT.UNAME = '*';
     1172    14359    1   UNAME_LEN = 1;
     1173    14360                                                    /* Get device name */
     1174    14361    2   DO I = 0 TO P_PCB.OUT$->P$NODE.SUBNODES - 1;
     1175    14362    3      DO SELECT (P_PCB.OUT$->P$NODE.SUBLK$(I)->P$NODE.CODE);
     1176    14363    3         SELECT ( %TPDEV_ACCT_WILD_VAL );
     1177    14364
     1178    14365    3         CON_KEY.TXT.ACCT = P_PCB.OUT$->P$NODE.SUBLK$(I)->OUT$SYM.TEXT;
     1179    14366    3         ACCT_LEN = P_PCB.OUT$->P$NODE.SUBLK$(I)->OUT$SYM.COUNT;
     1180    14367
     1181    14368    3         SELECT ( %TPDEV_NAME_WILD_VAL);
     1182    14369
     1183    14370    3         CON_KEY.TXT.UNAME = P_PCB.OUT$->P$NODE.SUBLK$(I)->OUT$SYM.TEXT;
     1184    14371    3         UNAME_LEN = P_PCB.OUT$->P$NODE.SUBLK$(I)->OUT$SYM.COUNT;
     1185    14372
PL6.E3A0      #005=ASR$R_TPDEVICE File=ASR$R_HLP.:E05TSI                         TUE 07/29/97 10:55 Page:202
     1186    14373    3         SELECT (ELSE);
     1187    14374    3         END; /* Of this case */
     1188    14375    2      END; /* Of the do i going thru all subnodes */
     1189    14376    1   USERS_KEY = CON_KEY ;
     1190    14377    1   USERS_KEY.COUNT = 8 + UNAME_LEN;
     1191    14378                                             /* Pick up terminal record */
     1192    14379    1   TREC$ = DSEG1$ ;
     1193    14380    1   ARS = DSEG1SIZE ;
     1194    14381    1   IF (CON_KEY.TXT.UNAME ~= '*')
     1195    14382    2   THEN DO;
     1196    14383    2      AS_FIELD1.COUNT = ACCT_LEN + UNAME_LEN + 1;
     1197    14384    2      CALL CONCAT (AS_FIELD1.TEXT, SUBSTR(CON_KEY.TXT.ACCT,0,ACCT_LEN), ',', SUBSTR(
             14384               CON_KEY.TXT.UNAME,0,UNAME_LEN) );
     1198    14385    2      END;
     1199    14386    2   ELSE DO;
     1200    14387    2      AS_FIELD1.COUNT = ACCT_LEN + 1;
     1201    14388    2      AS_FIELD1.TEXT = SUBSTR (CON_KEY.TXT.ACCT, 0, ACCT_LEN);
     1202    14389    2      END;
     1203    14390    1   CALL ASB$READ_HLP( TREC$, ARS )
     1204    14391    2   WHENALTRETURN DO;
     1205    14392    2      IF MERR_CODE.CODE = %E$NOKEY
     1206    14393    3      THEN DO ;
     1207    14394        /*    ERROR:    ASR-E$DEVICENOEXIST-C
     1208    14395              MESSAGE0: Device %%U1 %does not exist.
     1209    14396        */
     1210    14397              %SCREAM( ERR#=E$DEVICENOEXIST, LEVEL=WARN, MID='R' );
     1211    14412    3         END ; /* Then do */
     1212    14413    2      ELSE
     1213    14414    2         CALL ASH$ERROR( ERR_CODE ) ;
     1214    14415    2      RETURN ;
     1215    14416    2      END ; /* Whenaltreturn */
     1216    14417    1   IF ( KL$TREC.ATYP ~= %KLAT_CG# OR KL$TREC.KC$CGID.NAME#.TXT='OCCG')
     1217    14418    2        AND KL$TREC.ATYP ~= %KLAT_RES# THEN DO ;
     1218    14419        /*    ERROR:    ASR-E$NOTDEVICE-C
     1219    14420              MESSAGE0: %"%U1" %is not a device.
     1220    14421        */
     1221    14422           %SCREAM( ERR#=E$NOTDEVICE , LEVEL=ERROR, MID='R' );
PL6.E3A0      #005=ASR$R_TPDEVICE File=ASR$R_HLP.:E05TSI                         TUE 07/29/97 10:55 Page:203
     1222    14437    2      RETURN ;
     1223    14438    2      END ; /* Then do */
     1224    14439    1   CALL ASB$ENQ_HLP
     1225    14440    2   WHENALTRETURN DO;
     1226    14441    2      RETURN;
     1227    14442    2      END;
     1228    14443                                             /* Delete device record */
     1229    14444    1   CALL ASB$DELREC_HLP
     1230    14445    2   WHENALTRETURN DO;
     1231    14446    2      CALL ASH$ERROR (ERR_CODE);
     1232    14447    2      RETURN;
     1233    14448    2      END;
     1234    14449    1   UNAME = SUBSTR (AS_FIELD1.TEXT, 0, AS_FIELD1.COUNT);
     1235    14450    1   UNAME_LEN = AS_FIELD1.COUNT;
     1236    14451    1   SIZE = 16 + UNAME_LEN;
     1237    14452    1   CALL CONCAT (AS_FIELD1.TEXT, 'Device ', SUBSTR (UNAME, 0, UNAME_LEN),
     1238    14453    1        ' removed.        ');
     1239    14454    1   CALL ASB$WRITE_LO (AS_FIELD1.TEXT, SIZE);
     1240    14455    1   CALL ASB$DEQ_HLP
     1241    14456    2   WHENALTRETURN DO;
     1242    14457    2      RETURN;
     1243    14458    2      END;
     1244    14459
     1245    14460    1   RETURN ;
     1246    14461
     1247    14462    1   END ASR$R_TPDEVICE ;
     1248    14463        %EOD ;

PL6.E3A0      #005=ASR$R_TPDEVICE File=ASR$R_HLP.:E05TSI                         TUE 07/29/97 10:55 Page:204
--  Include file information  --

   AS_SUPER_R.:E05TOU  cannot be made into a system file and is referenced.
   XU_FORMAT_C.:E05TOU  is referenced.
   XU_MACRO_C.:E05TOU  is referenced.
   KL_SUPER_C.:E05TOU  is referenced.
   AS_MAC_C.:E05TOU  cannot be made into a system file and is referenced.
   AS_SUBS_C.:E05TOU  is referenced.
   AS_SUPER_C.:E05TOU  is referenced.
   AS_ENTRIES_M.:E05TOU  is referenced.
   KC$CGBLK.:E05TOU  is referenced.
   B_ERRORS_C.:E05TOU  is referenced.
   AS_PERR_C.:E05TOU  is referenced.
   CP_6.:E05TOU  cannot be made into a system file and is referenced.
   B$JIT_C.:E05TOU  was found in the system file and is never referenced.
   CP_6_C.:E05TOU  was found in the system file and is referenced.
      No diagnostics issued in procedure ASR$R_TPDEVICE.

   Procedure ASR$R_TPDEVICE requires 200 words for executable code.
   Procedure ASR$R_TPDEVICE requires 20 words of local(AUTO) storage.

PL6.E3A0      #005=ASR$R_TPDEVICE File=ASR$R_HLP.:E05TSI                         TUE 07/29/97 10:55 Page:205

 Object Unit name= ASR$R_TPDEVICE                             File name= ASR$R_HLP.:E05TOU
 UTS= JUL 29 '97 10:55:12.64 TUE                              Compiler= PL-6/E31         Sev=      00
 SharedLib= :SHARED_SYSTEM                                    Alt SharedLib=


    ****  Control sections  ****

 Sect   Type Bound  Init  Size OctSiz  Section name(segment info)
    0   DCB   even  none     0      0  M$UC
    1   DCB   even  none     0      0  M$LO
    2   Data  even  none     6      6  ASR$R_TPDEVICE
    3  RoData even  UTS     11     13  ASR$R_TPDEVICE
    4   Proc  even  none   200    310  ASR$R_TPDEVICE
    5  RoData even  none     7      7  ASR$R_TPDEVICE

    ****  Entry defs  ****

                              Check   Calling
                             calling  sequence
  Sect OctLoc Primary Altret sequence   type   Parms  Name
     4      0   yes            yes      Std        0  ASR$R_TPDEVICE
PL6.E3A0      #005=ASR$R_TPDEVICE File=ASR$R_HLP.:E05TSI                         TUE 07/29/97 10:55 Page:206

  ****  Entry refs  ****

         Check        Calling
        calling       sequence
Altret sequence SRef   type   Args  Name
         yes          ~proc      0 XU_OUTPUT_OPTIONS
 yes     yes           Std       0 ASB$DELREC_HLP
         yes           Std       2 ASB$WRITE_LO
 yes     yes           Std       0 ASB$GETSEG
         yes           Std       2 ASH$ERROR
 yes     yes           Std       3 ASB$READ_HLP
 yes     yes           Std       0 ASB$ENQ_HLP
         yes           Std       2 ASH$WARN
 yes     yes           Std       0 ASB$DEQ_HLP
                       nStd      0 X66_AUTO_0
                       Std       0 B_CONSPOOL_D
                       nStd      0 X66_ARET

  ****  Data refs  ****

  Flags:  r = read only, s = secondary
Flgs Name                             Flgs Name                             Flgs Name
     M$UC                             r    AS_MODE                          r    AS_FE_MODE
     M$LO                                  USERS_KEY                             ERR_CODE
     AS_FIELD1                             REMEM_VAR                             REM_FCMD
     ASA_BRKS_LOC                          DSEG_FLG                              DSEG1$
     DSEG1SIZE                             P_PCB                                 B_VECTNIL

  ****  Segment refs  ****

  Flags:  r = read only, s = secondary
Flgs Name                             Flgs Name                             Flgs Name
     ISSID
PL6.E3A0      #005=ASR$R_TPDEVICE File=ASR$R_HLP.:E05TSI                         TUE 07/29/97 10:55 Page:207


     1075        1        /*M* ASR$R_TPDEVICE - processes the REMOVE TPDEVICE command.   */
     1076        2        /*T***********************************************************/
     1077        3        /*T*                                                         */
     1078        4        /*T* Copyright (c) Bull HN Information Systems Inc., 1997    */
     1079        5        /*T*                                                         */
     1080        6        /*T***********************************************************/
     1081        7        ASR$R_TPDEVICE: PROC ;

      7  4 000000   000000 700200 xent  ASR$R_TPDEV* TSX0  ! X66_AUTO_0
         4 000001   000024 000000                    ZERO    20,0

     1082        8                                                              /**/
     1083        9        %SET LISTSUB = '1'B ;
     1084       10        /*********************************************************************/
     1085       11        /*   Include files   include files   include files   include files   */
     1086       12        /*********************************************************************/
     1087       13                                                              /**/
     1088       14              %INCLUDE  CP_6 ;
     1089       95              %INCLUDE  AS_PERR_C ;
     1090      697              %INCLUDE B_ERRORS_C ;
     1091     1824              %INCLUDE KC$CGBLK ;
     1092     1872              %INCLUDE  AS_ENTRIES_M;
     1093     2922              %INCLUDE  AS_SUPER_C ;
     1094     3357              %INCLUDE  AS_SUBS_C ;
     1095     4771              %INCLUDE  AS_MAC_C ;
     1096     4851              %INCLUDE  KL_SUPER_C ;
     1097     7753              %INCLUDE  XU_MACRO_C ;
     1098    10859              %INCLUDE  XU_FORMAT_C ;
     1099    11021              %INCLUDE  AS_SUPER_R ;
     1100    14037
     1101    14038        /*********************************************************************/
     1102    14039        /*   Auto data       auto data       auto data       auto data       */
     1103    14040        /*********************************************************************/
     1104    14041                                                              /**/
     1105    14042    1   DCL TREC$ PTR ;
     1106    14043    1   DCL ARS UBIN WORD ;
PL6.E3A0      #005=ASR$R_TPDEVICE File=ASR$R_HLP.:E05TSI                         TUE 07/29/97 10:55 Page:208
     1107    14044    1   DCL I UBIN WORD ;
     1108    14045    1   DCL J UBIN WORD ;
     1109    14046    1   DCL ACCT CHAR (8);
     1110    14047    1   DCL UNAME CHAR(21);
     1111    14048    1   DCL ACCT_LEN UBIN;
     1112    14049    1   DCL UNAME_LEN UBIN;
     1113    14050    1   DCL SIZE SBIN;
     1114    14051
     1115    14052        /*********************************************************************/
     1116    14053        /*   Static data     static data     static data     static data     */
     1117    14054        /*********************************************************************/
     1118    14055                                                              /**/
     1119    14056    1   DCL 1 CON_KEY ALIGNED STATIC ,
     1120    14057    1          2 CNT UBIN BYTE UNAL INIT( 9 ),
     1121    14058    1          2 TXT UNAL ,
     1122    14059    1             3 ACCT CHAR(8) UNAL INIT(' ') ,
     1123    14060    1             3 UNAME CHAR(12) UNAL INIT(' ') ;
     1124    14061
     1125    14062        /*********************************************************************/
     1126    14063        /*   Entry dcls      entry dcls      entry dcls      entry dcls      */
     1127    14064        /*********************************************************************/
     1128    14065        %ASB$DELREC_HLP ;
     1129    14068        %ASB$GETSEG ;
     1130    14071        %ASB$ENQ_HLP ;
     1131    14074        %ASB$DEQ_HLP ;
     1132    14077        %ASH$ERROR ;
     1133    14080        %ASH$WARN ;
     1134    14083        %ASH$INFO ;
     1135    14086        %ASB$READ_HLP ;
     1136    14089        %ASB$WRITE_LO ;
     1137    14092
     1138    14093        /*********************************************************************/
     1139    14094        /*   Local based     local based     local based     local based     */
     1140    14095        /*********************************************************************/
     1141    14096                                                              /**/
     1142    14097            %PARSE$OUT( NAME=P$NODE, STCLASS=BASED,
     1143    14098                        NDTYPE=TYPE, NSUBLKS=SUBNODES) ;
PL6.E3A0      #005=ASR$R_TPDEVICE File=ASR$R_HLP.:E05TSI                         TUE 07/29/97 10:55 Page:209
     1144    14143              %PARSE$SYM( NAME = OUT$SYM ,
     1145    14144                          STCLASS=BASED);
     1146    14182              %KL_DREC ( NAME = KL$TREC  ,
     1147    14183                    STCLASS = "BASED(TREC$)",
     1148    14184                    LAST = "," ) ;
     1149    14297              %KC$CGID (FPTN=KC$CGID,
     1150    14298                        STCLASS = STCLASS,
     1151    14299                        LVL = 2,
     1152    14300                        LAST = ";" );
     1153    14326
     1154    14327        /*********************************************************************/
     1155    14328        /*   Procedure       procedure       procedure       procedure       */
     1156    14329        /*********************************************************************/
     1157    14330                                                              /**/
     1158    14331        /*
     1159    14332            ***            Begin procedure                    ***
     1160    14333        */
     1161    14334                                                              /* Did we get data SEG.? */
     1162    14335    1   IF NOT DSEG_FLG

  14335  4 000002   000000 234000 xsym               SZN     DSEG_FLG
         4 000003   000015 604000 4                  TMI     s:14358

     1163    14336    2   THEN DO;

     1164    14337    2      CALL ASB$GETSEG

  14337  4 000004   000002 631400 xsym               EPPR1   B_VECTNIL+2
         4 000005   000000 701000 xent               TSX1    ASB$GETSEG
         4 000006   000010 702000 4                  TSX2    s:14351
         4 000007   000015 710000 4                  TRA     s:14358

     1165    14338    3      WHENALTRETURN DO;

     1166    14339              %SCREAM( ERR#=E$GETSEGERR , LEVEL=ERROR, MID='R' );

  14351  4 000010   000000 630400 5                  EPPR0   0
PL6.E3A0      #005=ASR$R_TPDEVICE File=ASR$R_HLP.:E05TSI                         TUE 07/29/97 10:55 Page:210
         4 000011   000017 631400 xsym               EPPR1   B_VECTNIL+15
         4 000012   000000 701000 xent               TSX1    ASH$ERROR
         4 000013   000000 011000                    NOP     0

     1167    14354    3         RETURN ;

  14354  4 000014   000000 702200 xent               TSX2  ! X66_ARET

     1168    14355    3         END ;
     1169    14356    2      END;

     1170    14357        /* Set up the default uname if the option to not specify one is used*/
     1171    14358    1   CON_KEY.TXT.UNAME = '*';

  14358  4 000015   040000 100400                    MLR     fill='040'O
         4 000016   000001 000001 5                  ADSC9   1                        cn=0,n=1
         4 000017   000002 200014 2                  ADSC9   CON_KEY+2                cn=1,n=12

     1172    14359    1   UNAME_LEN = 1;

  14359  4 000020   000001 235007                    LDA     1,DL
         4 000021   200020 755100                    STA     UNAME_LEN,,AUTO

     1173    14360                                                    /* Get device name */
     1174    14361    2   DO I = 0 TO P_PCB.OUT$->P$NODE.SUBNODES - 1;

  14361  4 000022   200005 450100                    STZ     I,,AUTO
         4 000023   000064 710000 4                  TRA     s:14375+3

     1175    14362    3      DO SELECT (P_PCB.OUT$->P$NODE.SUBLK$(I)->P$NODE.CODE);

  14362  4 000024   000003 470400 xsym               LDP0    P_PCB+3
         4 000025   200005 720100                    LXL0    I,,AUTO
         4 000026   000003 471510                    LDP1    3,X0,PR0
         4 000027   100000 236100                    LDQ     0,,PR1
         4 000030   777777 376007                    ANQ     -1,DL
         4 000031   000343 116007                    CMPQ    227,DL
PL6.E3A0      #005=ASR$R_TPDEVICE File=ASR$R_HLP.:E05TSI                         TUE 07/29/97 10:55 Page:211
         4 000032   000035 602000 4                  TNC     s:14362+9
         4 000033   000041 600000 4                  TZE     s:14365
         4 000034   000061 710000 4                  TRA     s:14375
         4 000035   100000 721100                    LXL1    0,,PR1
         4 000036   000341 101003                    CMPX1   225,DU
         4 000037   000061 601000 4                  TNZ     s:14375
         4 000040   000051 710000 4                  TRA     s:14370

     1176    14363    3         SELECT ( %TPDEV_ACCT_WILD_VAL );

     1177    14364
     1178    14365    3         CON_KEY.TXT.ACCT = P_PCB.OUT$->P$NODE.SUBLK$(I)->OUT$SYM.TEXT;

  14365  4 000041   100004 236100                    LDQ     4,,PR1
         4 000042   000033 772000                    QRL     27
         4 000043   000000 621006                    EAX1    0,QL
         4 000044   040000 100540                    MLR     fill='040'O
         4 000045   100004 200011                    ADSC9   4,,PR1                   cn=1,n=*X1
         4 000046   000000 200010 2                  ADSC9   CON_KEY                  cn=1,n=8

     1179    14366    3         ACCT_LEN = P_PCB.OUT$->P$NODE.SUBLK$(I)->OUT$SYM.COUNT;

  14366  4 000047   200017 756100                    STQ     ACCT_LEN,,AUTO
         4 000050   000061 710000 4                  TRA     s:14375

     1180    14367
     1181    14368    3         SELECT ( %TPDEV_NAME_WILD_VAL);

     1182    14369
     1183    14370    3         CON_KEY.TXT.UNAME = P_PCB.OUT$->P$NODE.SUBLK$(I)->OUT$SYM.TEXT;

  14370  4 000051   100004 236100                    LDQ     4,,PR1
         4 000052   000033 772000                    QRL     27
         4 000053   000000 622006                    EAX2    0,QL
         4 000054   040000 100540                    MLR     fill='040'O
         4 000055   100004 200012                    ADSC9   4,,PR1                   cn=1,n=*X2
         4 000056   000002 200014 2                  ADSC9   CON_KEY+2                cn=1,n=12
PL6.E3A0      #005=ASR$R_TPDEVICE File=ASR$R_HLP.:E05TSI                         TUE 07/29/97 10:55 Page:212

     1184    14371    3         UNAME_LEN = P_PCB.OUT$->P$NODE.SUBLK$(I)->OUT$SYM.COUNT;

  14371  4 000057   200020 756100                    STQ     UNAME_LEN,,AUTO
         4 000060   000061 710000 4                  TRA     s:14375

     1185    14372
     1186    14373    3         SELECT (ELSE);

     1187    14374    3         END; /* Of this case */

     1188    14375    2      END; /* Of the do i going thru all subnodes */

  14375  4 000061   200005 235100                    LDA     I,,AUTO
         4 000062   000001 035007                    ADLA    1,DL
         4 000063   200005 755100                    STA     I,,AUTO
         4 000064   000003 470400 xsym               LDP0    P_PCB+3
         4 000065   000001 236100                    LDQ     1,,PR0
         4 000066   000022 772000                    QRL     18
         4 000067   200005 116100                    CMPQ    I,,AUTO
         4 000070   000072 600000 4                  TZE     s:14376
         4 000071   000024 603000 4                  TRC     s:14362

     1189    14376    1   USERS_KEY = CON_KEY ;

  14376  4 000072   000000 100400                    MLR     fill='000'O
         4 000073   000000 000025 2                  ADSC9   CON_KEY                  cn=0,n=21
         4 000074   000000 000052 xsym               ADSC9   USERS_KEY                cn=0,n=42

     1190    14377    1   USERS_KEY.COUNT = 8 + UNAME_LEN;

  14377  4 000075   200020 236100                    LDQ     UNAME_LEN,,AUTO
         4 000076   000010 036007                    ADLQ    8,DL
         4 000077   000033 736000                    QLS     27
         4 000100   000000 552040 xsym               STBQ    USERS_KEY,'40'O

     1191    14378                                             /* Pick up terminal record */
PL6.E3A0      #005=ASR$R_TPDEVICE File=ASR$R_HLP.:E05TSI                         TUE 07/29/97 10:55 Page:213
     1192    14379    1   TREC$ = DSEG1$ ;

  14379  4 000101   000000 236000 xsym               LDQ     DSEG1$
         4 000102   200003 756100                    STQ     TREC$,,AUTO

     1193    14380    1   ARS = DSEG1SIZE ;

  14380  4 000103   000000 235000 xsym               LDA     DSEG1SIZE
         4 000104   200004 755100                    STA     ARS,,AUTO

     1194    14381    1   IF (CON_KEY.TXT.UNAME ~= '*')

  14381  4 000105   040000 106400                    CMPC    fill='040'O
         4 000106   000002 200014 2                  ADSC9   CON_KEY+2                cn=1,n=12
         4 000107   000001 000001 5                  ADSC9   1                        cn=0,n=1
         4 000110   000143 600000 4                  TZE     s:14387

     1195    14382    2   THEN DO;

     1196    14383    2      AS_FIELD1.COUNT = ACCT_LEN + UNAME_LEN + 1;

  14383  4 000111   200017 236100                    LDQ     ACCT_LEN,,AUTO
         4 000112   200020 036100                    ADLQ    UNAME_LEN,,AUTO
         4 000113   000001 036007                    ADLQ    1,DL
         4 000114   000033 736000                    QLS     27
         4 000115   000000 552040 xsym               STBQ    AS_FIELD1,'40'O

     1197    14384    2      CALL CONCAT (AS_FIELD1.TEXT, SUBSTR(CON_KEY.TXT.ACCT,0,ACCT_LEN), ',', SUBSTR(
             14384               CON_KEY.TXT.UNAME,0,UNAME_LEN) );

  14384  4 000116   200017 720100                    LXL0    ACCT_LEN,,AUTO
         4 000117   040000 100440                    MLR     fill='040'O
         4 000120   000000 200010 2                  ADSC9   CON_KEY                  cn=1,n=*X0
         4 000121   000000 200050 xsym               ADSC9   AS_FIELD1                cn=1,n=40
         4 000122   200017 236100                    LDQ     ACCT_LEN,,AUTO
         4 000123   000050 116007                    CMPQ    40,DL
         4 000124   000142 603000 4                  TRC     s:14385
PL6.E3A0      #005=ASR$R_TPDEVICE File=ASR$R_HLP.:E05TSI                         TUE 07/29/97 10:55 Page:214
         4 000125   777727 621006                    EAX1    -41,QL
         4 000126   777777 661003                    ERX1    -1,DU
         4 000127   040046 100400                    MLR     fill='040'O
         4 000130   000002 000001 5                  ADSC9   2                        cn=0,n=1
         4 000131   000000 200011 xsym               ADSC9   AS_FIELD1,Q              cn=1,n=*X1
         4 000132   000047 116007                    CMPQ    39,DL
         4 000133   000142 603000 4                  TRC     s:14385
         4 000134   777730 622006                    EAX2    -40,QL
         4 000135   777777 662003                    ERX2    -1,DU
         4 000136   200020 723100                    LXL3    UNAME_LEN,,AUTO
         4 000137   040046 100440                    MLR     fill='040'O
         4 000140   000002 200013 2                  ADSC9   CON_KEY+2                cn=1,n=*X3
         4 000141   000000 400012 xsym               ADSC9   AS_FIELD1,Q              cn=2,n=*X2

     1198    14385    2      END;

  14385  4 000142   000153 710000 4                  TRA     s:14390

     1199    14386    2   ELSE DO;

     1200    14387    2      AS_FIELD1.COUNT = ACCT_LEN + 1;

  14387  4 000143   200017 236100                    LDQ     ACCT_LEN,,AUTO
         4 000144   000001 036007                    ADLQ    1,DL
         4 000145   000033 736000                    QLS     27
         4 000146   000000 552040 xsym               STBQ    AS_FIELD1,'40'O

     1201    14388    2      AS_FIELD1.TEXT = SUBSTR (CON_KEY.TXT.ACCT, 0, ACCT_LEN);

  14388  4 000147   200017 720100                    LXL0    ACCT_LEN,,AUTO
         4 000150   040000 100440                    MLR     fill='040'O
         4 000151   000000 200010 2                  ADSC9   CON_KEY                  cn=1,n=*X0
         4 000152   000000 200050 xsym               ADSC9   AS_FIELD1                cn=1,n=40

     1202    14389    2      END;

     1203    14390    1   CALL ASB$READ_HLP( TREC$, ARS )
PL6.E3A0      #005=ASR$R_TPDEVICE File=ASR$R_HLP.:E05TSI                         TUE 07/29/97 10:55 Page:215

  14390  4 000153   200004 631500                    EPPR1   ARS,,AUTO
         4 000154   200023 451500                    STP1    SIZE+2,,AUTO
         4 000155   200003 633500                    EPPR3   TREC$,,AUTO
         4 000156   200022 453500                    STP3    SIZE+1,,AUTO
         4 000157   200022 630500                    EPPR0   SIZE+1,,AUTO
         4 000160   000020 631400 xsym               EPPR1   B_VECTNIL+16
         4 000161   000000 701000 xent               TSX1    ASB$READ_HLP
         4 000162   000164 702000 4                  TSX2    s:14392
         4 000163   000202 710000 4                  TRA     s:14417

     1204    14391    2   WHENALTRETURN DO;

     1205    14392    2      IF MERR_CODE.CODE = %E$NOKEY

  14392  4 000164   000000 236000 xsym               LDQ     ERR_CODE
         4 000165   377770 376007                    ANQ     131064,DL
         4 000166   001020 116007                    CMPQ    528,DL
         4 000167   000175 601000 4                  TNZ     s:14414

     1206    14393    3      THEN DO ;

     1207    14394        /*    ERROR:    ASR-E$DEVICENOEXIST-C
     1208    14395              MESSAGE0: Device %%U1 %does not exist.
     1209    14396        */
     1210    14397              %SCREAM( ERR#=E$DEVICENOEXIST, LEVEL=WARN, MID='R' );

  14407  4 000170   000003 630400 5                  EPPR0   3
         4 000171   000017 631400 xsym               EPPR1   B_VECTNIL+15
         4 000172   000000 701000 xent               TSX1    ASH$WARN
         4 000173   000000 011000                    NOP     0

     1211    14412    3         END ; /* Then do */

  14412  4 000174   000201 710000 4                  TRA     s:14415

     1212    14413    2      ELSE
PL6.E3A0      #005=ASR$R_TPDEVICE File=ASR$R_HLP.:E05TSI                         TUE 07/29/97 10:55 Page:216
     1213    14414    2         CALL ASH$ERROR( ERR_CODE ) ;

  14414  4 000175   000004 630400 5                  EPPR0   4
         4 000176   000017 631400 xsym               EPPR1   B_VECTNIL+15
         4 000177   000000 701000 xent               TSX1    ASH$ERROR
         4 000200   000000 011000                    NOP     0

     1214    14415    2      RETURN ;

  14415  4 000201   000000 702200 xent               TSX2  ! X66_ARET

     1215    14416    2      END ; /* Whenaltreturn */
     1216    14417    1   IF ( KL$TREC.ATYP ~= %KLAT_CG# OR KL$TREC.KC$CGID.NAME#.TXT='OCCG')

  14417  4 000202   200003 470500                    LDP0    TREC$,,AUTO
         4 000203   000000 236100                    LDQ     0,,PR0
         4 000204   777000 376003                    ANQ     -512,DU
         4 000205   002000 116003                    CMPQ    1024,DU
         4 000206   000213 601000 4                  TNZ     s:14417+9
         4 000207   040000 106500                    CMPC    fill='040'O
         4 000210   000024 200037                    ADSC9   20,,PR0                  cn=1,n=31
         4 000211   000002 000004 3                  ADSC9   2                        cn=0,n=4
         4 000212   000222 601000 4                  TNZ     s:14439
         4 000213   003000 116003                    CMPQ    1536,DU
         4 000214   000222 600000 4                  TZE     s:14439

     1217    14418    2        AND KL$TREC.ATYP ~= %KLAT_RES# THEN DO ;

     1218    14419        /*    ERROR:    ASR-E$NOTDEVICE-C
     1219    14420              MESSAGE0: %"%U1" %is not a device.
     1220    14421        */
     1221    14422           %SCREAM( ERR#=E$NOTDEVICE , LEVEL=ERROR, MID='R' );

  14434  4 000215   000005 630400 5                  EPPR0   5
         4 000216   000017 631400 xsym               EPPR1   B_VECTNIL+15
         4 000217   000000 701000 xent               TSX1    ASH$ERROR
         4 000220   000000 011000                    NOP     0
PL6.E3A0      #005=ASR$R_TPDEVICE File=ASR$R_HLP.:E05TSI                         TUE 07/29/97 10:55 Page:217

     1222    14437    2      RETURN ;

  14437  4 000221   000000 702200 xent               TSX2  ! X66_ARET

     1223    14438    2      END ; /* Then do */
     1224    14439    1   CALL ASB$ENQ_HLP

  14439  4 000222   000002 631400 xsym               EPPR1   B_VECTNIL+2
         4 000223   000000 701000 xent               TSX1    ASB$ENQ_HLP
         4 000224   000226 702000 4                  TSX2    s:14441
         4 000225   000227 710000 4                  TRA     s:14444

     1225    14440    2   WHENALTRETURN DO;

     1226    14441    2      RETURN;

  14441  4 000226   000000 702200 xent               TSX2  ! X66_ARET

     1227    14442    2      END;
     1228    14443                                             /* Delete device record */
     1229    14444    1   CALL ASB$DELREC_HLP

  14444  4 000227   000002 631400 xsym               EPPR1   B_VECTNIL+2
         4 000230   000000 701000 xent               TSX1    ASB$DELREC_HLP
         4 000231   000233 702000 4                  TSX2    s:14446
         4 000232   000240 710000 4                  TRA     s:14449

     1230    14445    2   WHENALTRETURN DO;

     1231    14446    2      CALL ASH$ERROR (ERR_CODE);

  14446  4 000233   000004 630400 5                  EPPR0   4
         4 000234   000017 631400 xsym               EPPR1   B_VECTNIL+15
         4 000235   000000 701000 xent               TSX1    ASH$ERROR
         4 000236   000000 011000                    NOP     0

PL6.E3A0      #005=ASR$R_TPDEVICE File=ASR$R_HLP.:E05TSI                         TUE 07/29/97 10:55 Page:218
     1232    14447    2      RETURN;

  14447  4 000237   000000 702200 xent               TSX2  ! X66_ARET

     1233    14448    2      END;
     1234    14449    1   UNAME = SUBSTR (AS_FIELD1.TEXT, 0, AS_FIELD1.COUNT);

  14449  4 000240   000000 236000 xsym               LDQ     AS_FIELD1
         4 000241   000033 772000                    QRL     27
         4 000242   000000 620006                    EAX0    0,QL
         4 000243   040100 100440                    MLR     fill='040'O
         4 000244   000000 200010 xsym               ADSC9   AS_FIELD1                cn=1,n=*X0
         4 000245   200011 000025                    ADSC9   UNAME,,AUTO              cn=0,n=21

     1235    14450    1   UNAME_LEN = AS_FIELD1.COUNT;

  14450  4 000246   000000 236000 xsym               LDQ     AS_FIELD1
         4 000247   000033 772000                    QRL     27
         4 000250   200020 756100                    STQ     UNAME_LEN,,AUTO

     1236    14451    1   SIZE = 16 + UNAME_LEN;

  14451  4 000251   000020 036007                    ADLQ    16,DL
         4 000252   200021 756100                    STQ     SIZE,,AUTO

     1237    14452    1   CALL CONCAT (AS_FIELD1.TEXT, 'Device ', SUBSTR (UNAME, 0, UNAME_LEN),

  14452  4 000253   040000 100400                    MLR     fill='040'O
         4 000254   000004 000007 3                  ADSC9   4                        cn=0,n=7
         4 000255   000000 200007 xsym               ADSC9   AS_FIELD1                cn=1,n=7
         4 000256   200020 720100                    LXL0    UNAME_LEN,,AUTO
         4 000257   040000 100540                    MLR     fill='040'O
         4 000260   200011 000010                    ADSC9   UNAME,,AUTO              cn=0,n=*X0
         4 000261   000002 000041 xsym               ADSC9   AS_FIELD1+2              cn=0,n=33
         4 000262   200020 236100                    LDQ     UNAME_LEN,,AUTO
         4 000263   000041 116007                    CMPQ    33,DL
         4 000264   000272 603000 4                  TRC     s:14454
PL6.E3A0      #005=ASR$R_TPDEVICE File=ASR$R_HLP.:E05TSI                         TUE 07/29/97 10:55 Page:219
         4 000265   777736 621006                    EAX1    -34,QL
         4 000266   777777 661003                    ERX1    -1,DU
         4 000267   040046 100400                    MLR     fill='040'O
         4 000270   000006 000021 3                  ADSC9   6                        cn=0,n=17
         4 000271   000002 000011 xsym               ADSC9   AS_FIELD1+2,Q            cn=0,n=*X1

     1238    14453    1        ' removed.        ');
     1239    14454    1   CALL ASB$WRITE_LO (AS_FIELD1.TEXT, SIZE);

  14454  4 000272   200021 630500                    EPPR0   SIZE,,AUTO
         4 000273   200023 450500                    STP0    SIZE+2,,AUTO
         4 000274   000006 236000 5                  LDQ     6
         4 000275   200022 756100                    STQ     SIZE+1,,AUTO
         4 000276   200022 630500                    EPPR0   SIZE+1,,AUTO
         4 000277   000020 631400 xsym               EPPR1   B_VECTNIL+16
         4 000300   000000 701000 xent               TSX1    ASB$WRITE_LO
         4 000301   000000 011000                    NOP     0

     1240    14455    1   CALL ASB$DEQ_HLP

  14455  4 000302   000002 631400 xsym               EPPR1   B_VECTNIL+2
         4 000303   000000 701000 xent               TSX1    ASB$DEQ_HLP
         4 000304   000306 702000 4                  TSX2    s:14457
         4 000305   000307 710000 4                  TRA     s:14460

     1241    14456    2   WHENALTRETURN DO;

     1242    14457    2      RETURN;

  14457  4 000306   000000 702200 xent               TSX2  ! X66_ARET

     1243    14458    2      END;
     1244    14459
     1245    14460    1   RETURN ;

  14460  4 000307   000000 702200 xent               TSX2  ! X66_ARET
     1246    14461
PL6.E3A0      #005=ASR$R_TPDEVICE File=ASR$R_HLP.:E05TSI                         TUE 07/29/97 10:55 Page:220
     1247    14462    1   END ASR$R_TPDEVICE ;
     1248    14463        %EOD ;

PL6.E3A0      #005=ASR$R_TPDEVICE File=ASR$R_HLP.:E05TSI                         TUE 07/29/97 10:55 Page:221
--  Include file information  --

   AS_SUPER_R.:E05TOU  cannot be made into a system file and is referenced.
   XU_FORMAT_C.:E05TOU  is referenced.
   XU_MACRO_C.:E05TOU  is referenced.
   KL_SUPER_C.:E05TOU  is referenced.
   AS_MAC_C.:E05TOU  cannot be made into a system file and is referenced.
   AS_SUBS_C.:E05TOU  is referenced.
   AS_SUPER_C.:E05TOU  is referenced.
   AS_ENTRIES_M.:E05TOU  is referenced.
   KC$CGBLK.:E05TOU  is referenced.
   B_ERRORS_C.:E05TOU  is referenced.
   AS_PERR_C.:E05TOU  is referenced.
   CP_6.:E05TOU  cannot be made into a system file and is referenced.
   B$JIT_C.:E05TOU  was found in the system file and is never referenced.
   CP_6_C.:E05TOU  was found in the system file and is referenced.
      No diagnostics issued in procedure ASR$R_TPDEVICE.
PL6.E3A0      #005=ASR$R_TPDEVICE File=ASR$R_HLP.:E05TSI                         TUE 07/29/97 10:55 Page:222

 **** Variables and constants ****

  ****  Section 002  Data  ASR$R_TPDEVICE

  ****  Scalars and arrays  ****
OctLoc.c.b A Datatyp(siz) R M Lvl/name                 OctLoc.c.b A Datatyp(siz) R M Lvl/name

     0-0-0/w STRC(189)   r     1 CON_KEY

  ****  Auto variables  ****

  ****  Scalars and arrays  ****
OctLoc.c.b A Datatyp(siz) R M Lvl/name                 OctLoc.c.b A Datatyp(siz) R M Lvl/name

    17-0-0/w UBIN        r     1 ACCT_LEN                   4-0-0/w UBIN        r     1 ARS
     5-0-0/w UBIN        r     1 I                         21-0-0/w SBIN        r     1 SIZE
     3-0-0/w PTR         r     1 TREC$                     11-0-0/c CHAR(21)    r     1 UNAME
    20-0-0/w UBIN        r     1 UNAME_LEN

  ****  SYMREF variables  ****

  ****  Scalars and arrays  ****
OctLoc.c.b A Datatyp(siz) R M Lvl/name                 OctLoc.c.b A Datatyp(siz) R M Lvl/name

     0-0-0/w STRC(369)   r     1 AS_FIELD1                  0-0-0/w PTR         r     1 DSEG1$
     0-0-0/w UBIN        r     1 DSEG1SIZE                  0-0-0/b BIT         r     1 DSEG_FLG
     0-0-0/b STRC        r     1 ERR_CODE                   0-0-0/b STRC        r     1 MERR_CODE
     0-0-0/w STRC(504)   r     1 P_PCB                      0-0-0/c STRC(378)   r     1 USERS_KEY

  ****  BASED and DCB variables  ****

  ****  Scalars and arrays  ****
OctLoc.c.b A Datatyp(siz) R M Lvl/name                 OctLoc.c.b A Datatyp(siz) R M Lvl/name

     0-0-0/w STRC(1008)  r     1 KL$TREC                    0-0-0/w ASTR(153)   r     1 OUT$SYM
     0-0-0/w STRC(144)   r     1 P$NODE

PL6.E3A0      #005=ASR$R_TPDEVICE File=ASR$R_HLP.:E05TSI                         TUE 07/29/97 10:55 Page:223

   Procedure ASR$R_TPDEVICE requires 200 words for executable code.
   Procedure ASR$R_TPDEVICE requires 20 words of local(AUTO) storage.
PL6.E3A0      #005=ASR$R_TPDEVICE File=ASR$R_HLP.:E05TSI                         TUE 07/29/97 10:55 Page:224
          *** CROSS REFERENCE LISTING ***
**     DENOTES     IDENTIFIER DEFINITION
<<                 IDENTIFIER'S VALUE SET
>>                 IDENTIFIER'S VALUE USED
<>                 IDENTIFIER SET AND/OR USED
--                 IDENTIFIER REFERENCED
PL6.E3A0      #005=ASR$R_TPDEVICE File=ASR$R_HLP.:E05TSI                         TUE 07/29/97 10:55 Page:225
          MINI XREF LISTING

ACCT_LEN
     14048**DCL     14366<<ASSIGN  14383>>ASSIGN  14384>>CALLBLT 14387>>ASSIGN  14388>>ASSIGN
ARS
     14043**DCL     14380<<ASSIGN  14390<>CALL
ASA_BRKS_LOC
     11185**DCL     11185--REDEF
ASB$DELREC_HLP
     14066**DCL-ENT 14444--CALL
ASB$DEQ_HLP
     14075**DCL-ENT 14455--CALL
ASB$ENQ_HLP
     14072**DCL-ENT 14439--CALL
ASB$GETSEG
     14069**DCL-ENT 14337--CALL
ASB$READ_HLP
     14087**DCL-ENT 14390--CALL
ASB$WRITE_LO
     14090**DCL-ENT 14454--CALL
ASH$ERROR
     14078**DCL-ENT 14351--CALL    14414--CALL    14434--CALL    14446--CALL
ASH$WARN
     14081**DCL-ENT 14407--CALL
AS_DEFAULT.BANNER_PERM
     11878**DCL     11879--REDEF
AS_DEFAULT.BUDGET.MACCT
     11783**DCL     11787--REDEF
AS_DEFAULT.BUDGET.MAX_PROJECTS
     11796**DCL     11799--REDEF
AS_DEFAULT.BUDGET.PACCUM
     11779**DCL     11781--REDEF
AS_DEFAULT.BUDGET.PMAXC
     11774**DCL     11776--REDEF
PL6.E3A0      #005=ASR$R_TPDEVICE File=ASR$R_HLP.:E05TSI                         TUE 07/29/97 10:55 Page:226
AS_DEFAULT.SETUP_CHRA.TXT
     11894**DCL     11895--REDEF   11896--REDEF
AS_DEFAULT_DREC.PASSWORD
     13148**DCL     13152--REDEF
AS_DEFAULT_DREC.RENAME
     13171**DCL     13172--REDEF
AS_DFLT.BANNER_PERM
     11700**DCL     11701--REDEF
AS_DFLT.BUDGET.MACCT
     11605**DCL     11609--REDEF
AS_DFLT.BUDGET.MAX_PROJECTS
     11618**DCL     11621--REDEF
AS_DFLT.BUDGET.PACCUM
     11601**DCL     11603--REDEF
AS_DFLT.BUDGET.PMAXC
     11596**DCL     11598--REDEF
AS_DFLT.SETUP_CHRA.TXT
     11716**DCL     11717--REDEF   11718--REDEF
AS_FE_MODE
     11051**DCL     11052--REDEF
AS_FIELD1.COUNT
     11182**DCL     14383<<ASSIGN  14387<<ASSIGN  14449>>ASSIGN  14450>>ASSIGN
AS_FIELD1.TEXT
     11182**DCL     14384<<CALLBLT 14388<<ASSIGN  14449>>ASSIGN  14452<<CALLBLT 14454<>CALL
AS_MODE
     11048**DCL     11050--REDEF
AS_MOD_USER.ACCESS
     13913**DCL     13914--REDEF
AS_MOD_USER.BANNER
     13900**DCL     13901--REDEF
AS_MOD_USER.BANNER_PERM
     13902**DCL     13903--REDEF
AS_MOD_USER.BILL
     13908**DCL     13909--REDEF
AS_MOD_USER.CPROC
     13904**DCL     13905--REDEF
PL6.E3A0      #005=ASR$R_TPDEVICE File=ASR$R_HLP.:E05TSI                         TUE 07/29/97 10:55 Page:227
AS_MOD_USER.FEBILL
     13984**DCL     13985--REDEF
AS_MOD_USER.FECXTMEM
     14001**DCL     14002--REDEF
AS_MOD_USER.FEMINTS
     13986**DCL     13987--REDEF
AS_MOD_USER.FEMMEM
     13997**DCL     13998--REDEF
AS_MOD_USER.FEMTIME
     13995**DCL     13996--REDEF
AS_MOD_USER.FEPPRIV
     13992**DCL     13994--REDEF
AS_MOD_USER.FEPRIV
     13989**DCL     13991--REDEF
AS_MOD_USER.FORCE_BIT
     13898**DCL     13899--REDEF
AS_MOD_USER.KEY
     13980**DCL     13982--REDEF
AS_MOD_USER.LASTCPROC
     13906**DCL     13907--REDEF
AS_MOD_USER.LIMITS.DO_
     13954**DCL     13955--REDEF
AS_MOD_USER.LIMITS.FPOOLS
     13970**DCL     13971--REDEF
AS_MOD_USER.LIMITS.LO
     13950**DCL     13951--REDEF
AS_MOD_USER.LIMITS.MEM
     13946**DCL     13947--REDEF
AS_MOD_USER.LIMITS.MPRIO
     13974**DCL     13975--REDEF
AS_MOD_USER.LIMITS.PDIS
     13962**DCL     13963--REDEF
AS_MOD_USER.LIMITS.PO
     13958**DCL     13959--REDEF
AS_MOD_USER.LIMITS.TDIS
     13966**DCL     13967--REDEF
PL6.E3A0      #005=ASR$R_TPDEVICE File=ASR$R_HLP.:E05TSI                         TUE 07/29/97 10:55 Page:228
AS_MOD_USER.LIMITS.TIME
     13942**DCL     13943--REDEF
AS_MOD_USER.MAXENQ
     13923**DCL     13924--REDEF
AS_MOD_USER.PERM_BIT
     13896**DCL     13897--REDEF
AS_MOD_USER.PPRIV
     13918**DCL     13920--REDEF
AS_MOD_USER.PRIOB
     13925**DCL     13926--REDEF
AS_MOD_USER.PRIV
     13915**DCL     13917--REDEF
AS_MOD_USER.QUAN
     13921**DCL     13922--REDEF
AS_MOD_USER.SETUP
     13894**DCL     13895--REDEF
AS_PROJECT.BANNER_PERM
     12234**DCL     12235--REDEF
AS_PROJECT.BUDGET.MACCT
     12139**DCL     12143--REDEF
AS_PROJECT.BUDGET.MAX_PROJECTS
     12152**DCL     12155--REDEF
AS_PROJECT.BUDGET.PACCUM
     12135**DCL     12137--REDEF
AS_PROJECT.BUDGET.PMAXC
     12130**DCL     12132--REDEF
AS_PROJECT.SETUP_CHRA.TXT
     12250**DCL     12251--REDEF   12252--REDEF
AS_PROJECT_DFLT.BANNER_PERM
     12412**DCL     12413--REDEF
AS_PROJECT_DFLT.BUDGET.MACCT
     12317**DCL     12321--REDEF
AS_PROJECT_DFLT.BUDGET.MAX_PROJECTS
     12330**DCL     12333--REDEF
AS_PROJECT_DFLT.BUDGET.PACCUM
     12313**DCL     12315--REDEF
PL6.E3A0      #005=ASR$R_TPDEVICE File=ASR$R_HLP.:E05TSI                         TUE 07/29/97 10:55 Page:229
AS_PROJECT_DFLT.BUDGET.PMAXC
     12308**DCL     12310--REDEF
AS_PROJECT_DFLT.SETUP_CHRA.TXT
     12428**DCL     12429--REDEF   12430--REDEF
AS_PROJECT_DFLT_DREC.PASSWORD
     13634**DCL     13638--REDEF
AS_PROJECT_DFLT_DREC.RENAME
     13657**DCL     13658--REDEF
AS_PROJECT_DREC.PASSWORD
     13472**DCL     13476--REDEF
AS_PROJECT_DREC.RENAME
     13495**DCL     13496--REDEF
AS_PROJ_ADMIN.BANNER_PERM
     12056**DCL     12057--REDEF
AS_PROJ_ADMIN.BUDGET.MACCT
     11961**DCL     11965--REDEF
AS_PROJ_ADMIN.BUDGET.MAX_PROJECTS
     11974**DCL     11977--REDEF
AS_PROJ_ADMIN.BUDGET.PACCUM
     11957**DCL     11959--REDEF
AS_PROJ_ADMIN.BUDGET.PMAXC
     11952**DCL     11954--REDEF
AS_PROJ_ADMIN.SETUP_CHRA.TXT
     12072**DCL     12073--REDEF   12074--REDEF
AS_PROJ_ADMIN_DREC.PASSWORD
     13310**DCL     13314--REDEF
AS_PROJ_ADMIN_DREC.RENAME
     13333**DCL     13334--REDEF
AS_USERS.BANNER_PERM
     11522**DCL     11523--REDEF
AS_USERS.BUDGET.MACCT
     11427**DCL     11431--REDEF
AS_USERS.BUDGET.MAX_PROJECTS
     11440**DCL     11443--REDEF
AS_USERS.BUDGET.PACCUM
     11423**DCL     11425--REDEF
PL6.E3A0      #005=ASR$R_TPDEVICE File=ASR$R_HLP.:E05TSI                         TUE 07/29/97 10:55 Page:230
AS_USERS.BUDGET.PMAXC
     11418**DCL     11420--REDEF
AS_USERS.SETUP_CHRA.TXT
     11538**DCL     11539--REDEF   11540--REDEF
AS_USERS_CONSTANT.BANNER_PERM
     12590**DCL     12591--REDEF
AS_USERS_CONSTANT.BUDGET.MACCT
     12495**DCL     12499--REDEF
AS_USERS_CONSTANT.BUDGET.MAX_PROJECTS
     12508**DCL     12511--REDEF
AS_USERS_CONSTANT.BUDGET.PACCUM
     12491**DCL     12493--REDEF
AS_USERS_CONSTANT.BUDGET.PMAXC
     12486**DCL     12488--REDEF
AS_USERS_CONSTANT.SETUP_CHRA.TXT
     12606**DCL     12607--REDEF   12608--REDEF
CON_KEY
     14056**DCL     14376>>ASSIGN
CON_KEY.TXT.ACCT
     14059**DCL     14365<<ASSIGN  14384>>CALLBLT 14388>>ASSIGN
CON_KEY.TXT.UNAME
     14060**DCL     14358<<ASSIGN  14370<<ASSIGN  14381>>IF      14384>>CALLBLT
DSEG1$
     11186**DCL     14379>>ASSIGN
DSEG1SIZE
     11187**DCL     14380>>ASSIGN
DSEG_FLG
     11186**DCL     14335>>IF
ERR_CODE
     11180**DCL     11181--REDEF   14414<>CALL    14446<>CALL
I
     14044**DCL     14361<<DOINDEX 14362>>DOSELCT 14365>>ASSIGN  14365>>ASSIGN  14366>>ASSIGN  14370>>ASSIGN
     14370>>ASSIGN  14371>>ASSIGN
KL$TREC.ATYP
     14202**DCL     14417>>IF      14417>>IF
KL$TREC.KC$CGID.NAME#.TXT
PL6.E3A0      #005=ASR$R_TPDEVICE File=ASR$R_HLP.:E05TSI                         TUE 07/29/97 10:55 Page:231
     14324**DCL     14417>>IF
KL$TREC.PASSWORD
     14255**DCL     14259--REDEF
KL$TREC.RENAME
     14278**DCL     14279--REDEF
KL_DEFAULT.PASSWORD
     13796**DCL     13800--REDEF
KL_DEFAULT.RENAME
     13819**DCL     13820--REDEF
KL_DFLT.PASSWORD
     12986**DCL     12990--REDEF
KL_DFLT.RENAME
     13009**DCL     13010--REDEF
KL_DREC.PASSWORD
     12824**DCL     12828--REDEF
KL_DREC.RENAME
     12847**DCL     12848--REDEF
KL_DREC_CNT.PASSWORD
     12711**DCL     12715--REDEF
KL_DREC_CNT.RENAME
     12734**DCL     12735--REDEF
MERR_CODE.CODE
     11181**DCL     14392>>IF
OUT$SYM.COUNT
     14174**DCL     14177--IMP-SIZ 14365>>ASSIGN  14366>>ASSIGN  14370>>ASSIGN  14371>>ASSIGN
OUT$SYM.TEXT
     14177**DCL     14365>>ASSIGN  14370>>ASSIGN
P$NODE.CODE
     14112**DCL     14362>>DOSELCT
P$NODE.SUBLK$
     14137**DCL     14362>>DOSELCT 14365>>ASSIGN  14365>>ASSIGN  14366>>ASSIGN  14370>>ASSIGN  14370>>ASSIGN
     14371>>ASSIGN
P$NODE.SUBNODES
     14116**DCL     14361>>DOINDEX
PROJ_KEY.TEXT
     11058**DCL     11058--REDEF
PL6.E3A0      #005=ASR$R_TPDEVICE File=ASR$R_HLP.:E05TSI                         TUE 07/29/97 10:55 Page:232
PROJ_KEY.TXT.PROJECT
     11058**DCL     11058--REDEF
P_PCB.OUT$
     11226**DCL     14361>>DOINDEX 14362>>DOSELCT 14365>>ASSIGN  14365>>ASSIGN  14366>>ASSIGN  14370>>ASSIGN
     14370>>ASSIGN  14371>>ASSIGN
REMEM_VAR
     11184**DCL     11184--REDEF
REM_FCMD
     11184**DCL     11185--REDEF
SIZE
     14050**DCL     14451<<ASSIGN  14454<>CALL
TREC$
     14042**DCL     14197--IMP-PTR 14379<<ASSIGN  14390<>CALL    14417>>IF      14417>>IF      14417>>IF
UNAME
     14047**DCL     14449<<ASSIGN  14452>>CALLBLT
UNAME_LEN
     14049**DCL     14359<<ASSIGN  14371<<ASSIGN  14377>>ASSIGN  14383>>ASSIGN  14384>>CALLBLT 14450<<ASSIGN
     14451>>ASSIGN  14452>>CALLBLT
USERS_KEY
     11055**DCL     14376<<ASSIGN
USERS_KEY.COUNT
     11055**DCL     14377<<ASSIGN
USERS_KEY.TEXT
     11055**DCL     11056--REDEF   11056--REDEF   11056--REDEF   11057--REDEF

PL6.E3A0      #006=ASR$R_LINK_VIRCIR File=ASR$R_HLP.:E05TSI                      TUE 07/29/97 10:55 Page:233
     1249        1        /*M* ASR$R_LINK_VIRCIR - processes the REMOVE LINK/VIRTUAL CIRCUIT command.  */
     1250        2        /*T***********************************************************/
     1251        3        /*T*                                                         */
     1252        4        /*T* Copyright (c) Bull HN Information Systems Inc., 1997    */
     1253        5        /*T*                                                         */
     1254        6        /*T***********************************************************/
     1255        7        /*X*  DMC,DMR,CCC,PLM=0,IND=3,CTI=5,DCI=6,IAD=0,DTI=0,IDT=0,ENI=3,
     1256        8              ECU=3,CSU=3,SDI=3                                           */
     1257        9                                                              /**/
     1258       10        ASR$R_LINK_VIRCIR: PROC;
     1259       11                                                              /**/
     1260       12        /********************************************************************/
     1261       13        /*   Include files   include files   include files   include files   */
     1262       14        /*********************************************************************/
     1263       15                                                              /**/
     1264       16              %INCLUDE  CP_6 ;
     1265       97              %INCLUDE  AS_PERR_C ;
     1266      699              %INCLUDE  KL_CONFIG_M;
     1267     1461              %INCLUDE  B_ERRORS_C;
     1268     2588              %INCLUDE  AS_ENTRIES_M;
     1269     3638              %INCLUDE  AS_SUPER_C ;
     1270     4073              %INCLUDE  AS_SUBS_C ;
     1271     5487              %INCLUDE  AS_MAC_C ;
     1272     5567              %INCLUDE  KL_SUPER_C ;
     1273     8469              %INCLUDE  XU_MACRO_C ;
     1274    11575              %INCLUDE  XU_FORMAT_C ;
     1275    11737              %INCLUDE  AS_SUPER_R ;
     1276    14753
     1277    14754
     1278    14755        /*********************************************************************/
     1279    14756        /*   Auto data       auto data       auto data       auto data       */
     1280    14757        /*********************************************************************/
     1281    14758                                                              /**/
     1282    14759    1   DCL PTR$ PTR ;
     1283    14760    1   DCL DEV$ PTR ;
     1284    14761    1   DCL BLK$ PTR ;
     1285    14762    1   DCL ARS UBIN WORD ;
PL6.E3A0      #006=ASR$R_LINK_VIRCIR File=ASR$R_HLP.:E05TSI                      TUE 07/29/97 10:55 Page:234
     1286    14763    1   DCL I UBIN WORD ;
     1287    14764    1   DCL J UBIN WORD ;
     1288    14765    1   DCL MOVE_SIZE UBIN WORD ;
     1289    14766    1   DCL VIRCIR# UBIN WORD ;
     1290    14767    1   DCL DEV_SIZEW UBIN WORD ;
     1291    14768    1   DCL VIRCIR_INDEX UBIN WORD ;
     1292    14769    1   DCL DEV_START$ PTR ;
     1293    14770    1   DCL DEV_STOP$ PTR ;
     1294    14771    1   DCL LINK        BIT(1) ;
     1295    14772    1   DCL VIRCIR  BIT(1) ;
     1296    14773    1   DCL LINKDEV  BIT(1) ;
     1297    14774    1   DCL LINKDEV_EXISTS  BIT(1) ;
     1298    14775    1   DCL VIRCIR_EXISTS BIT(1) ;
     1299    14776    1   DCL FOUND       BIT(1) ;
     1300    14777    1   DCL DONE        BIT(1) ;
     1301    14778    1   DCL 1 LINK_NAME,
     1302    14779    1          2 COUNT UBIN BYTE UNAL,
     1303    14780    1          2 TEXT CHAR(8) UNAL;
     1304    14781
     1305    14782        /*********************************************************************/
     1306    14783        /*   Static data     static data     static data     static data     */
     1307    14784        /*********************************************************************/
     1308    14785                                                              /**/
     1309    14786    1   DCL 1 LINK_KEY ALIGNED STATIC ,
     1310    14787    1          2 CNT UBIN BYTE UNAL INIT( 9 ),
     1311    14788    1          2 TXT UNAL ,
     1312    14789    1             3 LINK CHAR(8) UNAL INIT(' ') ,
     1313    14790    1             3 ASTR CHAR(1) UNAL INIT('*') ;
     1314    14791        %KL$TERM_KEY (NAME=KL_TERM_KEY,STCLASS=STATIC);
     1315    14837
     1316    14838        /********************************************************************/
     1317    14839        /*   Entry dcls      entry dcls      entry dcls      entry dcls      */
     1318    14840        /*********************************************************************/
     1319    14841                                                              /**/
     1320    14842        %ASB$DELREC_HLP ;
     1321    14845        %ASB$GETSEG ;
     1322    14848        %ASB$GET_MORE_SEG ;
PL6.E3A0      #006=ASR$R_LINK_VIRCIR File=ASR$R_HLP.:E05TSI                      TUE 07/29/97 10:55 Page:235
     1323    14851        %ASB$ENQ_HLP ;
     1324    14854        %ASB$DEQ_HLP ;
     1325    14857        %ASH$ERROR ;
     1326    14860        %ASH$WARN ;
     1327    14863        %ASH$INFO ;
     1328    14866        %ASB$READ_HLP ;
     1329    14869        %ASB$WRITE_HLP ;
     1330    14872        %ASA$ERROR ;
     1331    14875        %ASB$DELREC_NETCON ;
     1332    14878        %ASB$CLOSE_NETCON ;
     1333    14881
     1334    14882        /*********************************************************************/
     1335    14883        /*   Local based     local based     local based     local based     */
     1336    14884        /*********************************************************************/
     1337    14885                                                              /**/
     1338    14886        %PARSE$OUT( NAME=P$NODE, STCLASS="BASED(NODE$)",
     1339    14887                    NDTYPE=TYPE, NSUBLKS=SUBNODES) ;
     1340    14932        %PARSE$SYM( NAME = OUT$SYM ,
     1341    14933                    STCLASS="BASED(BLK$)") ;
     1342    14971        %KL_DREC ( NAME = KL$DREC ,
     1343    14972                   LAST=",",
     1344    14973                   STCLASS="BASED( DSEG1$ )");
     1345    15086        %KL_LNK( NAME = LNK,
     1346    15087                 LVL = 2,
     1347    15088                 STCLASS = BASED,
     1348    15089                 LAST = ";" );
     1349    15313        %KL_LNKVC (   NAME    = KL$LNKVC,
     1350    15314                      LVL     = 1,
     1351    15315                      STCLASS = "BASED(DEV$)" );
     1352    15539        %KL_LINKDEV ( NAME    = KL$LINKDEV,
     1353    15540                      LVL     = 1,
     1354    15541                      STCLASS = "BASED(DEV$)" );
     1355    15712    1   DCL MOVE$TEMP CHAR(MOVE_SIZE) BASED;
     1356    15713
     1357    15714    1   DCL B$TCB$ PTR SYMREF;
     1358    15715        %B$TCB;
     1359    15718        %B$ALT;
PL6.E3A0      #006=ASR$R_LINK_VIRCIR File=ASR$R_HLP.:E05TSI                      TUE 07/29/97 10:55 Page:236
     1360    15726        /*********************************************************************/
     1361    15727        /*   Procedure       procedure       procedure       procedure       */
     1362    15728        /*********************************************************************/
     1363    15729                                                              /**/
     1364    15730        /*
     1365    15731            ***            Begin procedure                    ***
     1366    15732        */
     1367    15733    1   LINK = (P$NODE.CODE = R_LINK_VAL);
     1368    15734    1   VIRCIR = (P$NODE.CODE = R_VIR_CIR_VAL);
     1369    15735    1   LINKDEV = (P$NODE.CODE = R_LINK_DEV_VAL);
     1370    15736                                                              /* Get data seg. */
     1371    15737    1   IF NOT DSEG_FLG THEN
     1372    15738    1      CALL ASB$GETSEG
     1373    15739    2      WHENALTRETURN DO;
     1374    15740              %SCREAM( ERR#=%E$GETSEGERR , LEVEL=ERROR, MID='R' );
     1375    15755    2         RETURN ;
     1376    15756    2         END; /*  Whenaltreturn  */
     1377    15757                                                              /* Get link name */
     1378    15758    1   IF LINK THEN
     1379    15759    1      BLK$ = P$NODE.SUBLK$(0) -> P$NODE.SUBLK$(0) ;
     1380    15760    1   ELSE
     1381    15761    1      BLK$ = P$NODE.SUBLK$(1) -> P$NODE.SUBLK$(0) ;
     1382    15762    1   LINK_NAME.COUNT = OUT$SYM.COUNT;
     1383    15763    1   LINK_NAME.TEXT = OUT$SYM.TEXT ;
     1384    15764    1   LINK_KEY.TXT.LINK = OUT$SYM.TEXT ;
     1385    15765    1   USERS_KEY = LINK_KEY ;
     1386    15766    1   CALL ASB$ENQ_HLP ALTRET(ENQ_ERR);
     1387    15767                                                              /* Pick up link record */
     1388    15768    1   READ_LINK_REC:
     1389    15769    1   ARS = DSEG1SIZE ;
     1390    15770    1   CALL ASB$READ_HLP( DSEG1$, ARS, 1)
     1391    15771    2   WHENALTRETURN DO;
     1392    15772    3      IF MERR_CODE.CODE = %E$NOKEY THEN DO;
     1393    15773        /*E* ERROR:   ASR-E$LINK_NO_EXIST2-C
     1394    15774             MESSAGE: Link %U1 does not exist.
     1395    15775        */
     1396    15776    3         AS_FIELD1 = LINK_NAME;
PL6.E3A0      #006=ASR$R_LINK_VIRCIR File=ASR$R_HLP.:E05TSI                      TUE 07/29/97 10:55 Page:237
     1397    15777              %SCREAM( ERR#=E$LINK_NO_EXIST2, MID='R', LEVEL=WARN );
     1398    15792    3         END;
     1399    15793    3      ELSE DO;
     1400    15794    3         CALL ASA$ERROR( USERS_KEY, E$UNABLE_TO_READ_HLP );
     1401    15795    3         END;
     1402    15796    2      RETURN;
     1403    15797    2      END;  /*  Whenaltreturn  */
     1404    15798    2   IF KL$DREC.ATYP ~= %KLAT_LNKLINE# THEN DO;
     1405    15799        /*E*  ERROR:    ASR-E$NOTLINK-C
     1406    15800              MESSAGE0: %%U1 %is not a link.
     1407    15801        */
     1408    15802    2      AS_FIELD1 = LINK_NAME;
     1409    15803           %SCREAM( ERR#=E$NOTLINK , LEVEL=ERROR, MID='R' );
     1410    15818    2      RETURN ;
     1411    15819    2      END ; /* Then do */
     1412    15820    1   DEV_START$ = PINCRW(ADDR(KL$DREC.LNK), SIZEW(KL$DREC.LNK) );
     1413    15821    1   DEV_SIZEW = KL$DREC.NWINFO - POFFW(DEV_START$,ADDR(KL$DREC.LNK));
     1414    15822    1   DEV_STOP$ = PINCRW( DEV_START$, DEV_SIZEW);
     1415    15823    1   DEV$ = DEV_START$;
     1416    15824    2   IF LINK THEN DO;
     1417    15825    2      VIRCIR_INDEX = 0;
     1418    15826    3      DO WHILE( VIRCIR_INDEX < KL$DREC.LNK.BLKHDR.NSUBS ) ;
     1419    15827    4         IF KL$LNKVC.BLKHDR.BLKTYP = %KLTY_VIRCIR# THEN DO;
     1420    15828    4            CALL REMOVE_VIRCIR;
     1421    15829    4            DEV$ = PINCRW( DEV$, SIZEW(KL$LNKVC));
     1422    15830    4            END;  /*  Vircir  */
     1423    15831    4         ELSE DO;
     1424    15832    4            CALL REMOVE_LINKDEV;
     1425    15833    4            DEV$ = PINCRW( DEV$, SIZEW(KL$LINKDEV));
     1426    15834    4            END; /*  Linkdev  */
     1427    15835    3         VIRCIR_INDEX = VIRCIR_INDEX + 1;
     1428    15836    3         END;  /*  Do while VIRCIR_INDEX < KL$DREC.LNK.BLKHDR.NSUBS  */
     1429    15837    2      CALL ASB$DELREC_HLP ALTRET(DEL_ERR);
     1430    15838        /*E*  ERROR:  ASR-E$LINK_REMOVED-C
     1431    15839              MESSAGE:.. Link %U1 removed.
     1432    15840        */
     1433    15841    2      AS_FIELD1 = LINK_NAME;
PL6.E3A0      #006=ASR$R_LINK_VIRCIR File=ASR$R_HLP.:E05TSI                      TUE 07/29/97 10:55 Page:238
     1434    15842           %SCREAM( ERR#=E$LINK_REMOVED, LEVEL=INFO, MID='R' );
     1435    15857    2      KL_TERM_KEY.TERMID.TERM.TERM_NAME = LINK_NAME.TEXT;
     1436    15858    2      CALL ASB$DELREC_NETCON(VECTOR(KL_TERM_KEY))
     1437    15859    3      WHENALTRETURN DO;
     1438    15860    3         IF MERR_CODE.CODE ~= %E$NOKEY
     1439    15861    4         THEN DO;
     1440    15862    4            GOTO NETCON_ERR;
     1441    15863    4            END;
     1442    15864    3         END;
     1443    15865    2      CALL ASB$CLOSE_NETCON ALTRET(NETCON_ERR);
     1444    15866    2      END;
     1445    15867    2   ELSE IF VIRCIR THEN DO;
     1446    15868                                                      /* Get virtual circuit number */
     1447    15869    2         BLK$ = P$NODE.SUBLK$(0);
     1448    15870    2         CALL CHARBIN( VIRCIR#, OUT$SYM.TEXT );
     1449    15871    3         IF VIRCIR# > 4095 THEN DO;
     1450    15872        /*E*  ERROR:  ASR-E$NOT_VIR_CIR-C
     1451    15873              MESSAGE: Illegal VIRTUAL CIRCUIT number.
     1452    15874              MESSAGE1: A VIRTUAL CIRCUIT number must be between 0 and 4095.
     1453    15875        */
     1454    15876                 %SCREAM( ERR#=E$NOT_VIR_CIR, LEVEL=ERROR, MID='R' );
     1455    15891    3            RETURN;
     1456    15892    3            END;
     1457    15893                                                     /* See if the virtual circuit exists.*/
     1458    15894    2         VIRCIR_EXISTS = AS_FALSE;
     1459    15895    3         DO WHILE( DEV$ < DEV_STOP$ AND NOT VIRCIR_EXISTS );
     1460    15896    3            IF KL$LNKVC.BLKHDR.BLKTYP = %KLTY_VIRCIR# THEN
     1461    15897    3               IF KL$LNKVC.VIRCIR# = VIRCIR# THEN
     1462    15898    3                  VIRCIR_EXISTS = AS_TRUE;
     1463    15899    3               ELSE
     1464    15900    3                  DEV$ = PINCRW( DEV$, SIZEW(KL$LNKVC));
     1465    15901    3            ELSE
     1466    15902    3               DEV$ = PINCRW( DEV$, SIZEW(KL$LINKDEV));
     1467    15903    3            END;
     1468    15904    3         IF NOT VIRCIR_EXISTS THEN DO;
     1469    15905        /*E*  ERROR:  ASR-E$VIR_CIRNOEXIST-C
     1470    15906              MESSAGE: Virtual circuit %U1 does not exist.
PL6.E3A0      #006=ASR$R_LINK_VIRCIR File=ASR$R_HLP.:E05TSI                      TUE 07/29/97 10:55 Page:239
     1471    15907        */
     1472    15908    3            AS_FIELD1.COUNT = OUT$SYM.COUNT;
     1473    15909    3            AS_FIELD1.TEXT = OUT$SYM.TEXT;
     1474    15910                 %SCREAM( ERR#=E$VIR_CIRNOEXIST, LEVEL=WARN, MID='R' );
     1475    15925    3            RETURN;
     1476    15926    3            END;
     1477    15927    2         CALL REMOVE_VIRCIR;
     1478    15928    2         CALL ASB$WRITE_HLP( DSEG1$, ARS ) ALTRET( WRITE_LINK_ERR );
     1479    15929    2         END;
     1480    15930    2      ELSE IF LINKDEV THEN DO;
     1481    15931                                                      /* Get link device name */
     1482    15932    2            BLK$ = P$NODE.SUBLK$(0) -> P$NODE.SUBLK$(0) ;
     1483    15933                                                      /* See if the link device exists.*/
     1484    15934    2            LINKDEV_EXISTS = AS_FALSE;
     1485    15935    3            DO WHILE( DEV$ < DEV_STOP$ AND NOT LINKDEV_EXISTS );
     1486    15936    3               IF KL$LINKDEV.BLKHDR.BLKTYP = %KLTY_LINKDEV# THEN
     1487    15937    3                  IF KL$LINKDEV.LOGON# = OUT$SYM.TEXT THEN
     1488    15938    3                     LINKDEV_EXISTS = AS_TRUE;
     1489    15939    3                  ELSE
     1490    15940    3                     DEV$ = PINCRW( DEV$, SIZEW(KL$LINKDEV));
     1491    15941    3               ELSE
     1492    15942    3                  DEV$ = PINCRW( DEV$, SIZEW(KL$LNKVC));
     1493    15943    3               END;
     1494    15944    3            IF NOT LINKDEV_EXISTS THEN DO;
     1495    15945        /*E*  ERROR:  ASR-E$LINKDEV_NOEXIST-C
     1496    15946              MESSAGE: Link device %U1 does not exist.
     1497    15947        */
     1498    15948    3               AS_FIELD1.COUNT = OUT$SYM.COUNT;
     1499    15949    3               AS_FIELD1.TEXT = OUT$SYM.TEXT;
     1500    15950                    %SCREAM( ERR#=E$LINKDEV_NOEXIST, LEVEL=WARN, MID='R' );
     1501    15965    3               RETURN;
     1502    15966    3               END;
     1503    15967    2            CALL REMOVE_LINKDEV;
     1504    15968    2            CALL ASB$WRITE_HLP( DSEG1$, ARS ) ALTRET( WRITE_LINK_ERR );
     1505    15969    2            END;
     1506    15970    1   EXIT#:
     1507    15971    1   CALL ASB$DEQ_HLP ALTRET( DEQ_ERR ) ;
PL6.E3A0      #006=ASR$R_LINK_VIRCIR File=ASR$R_HLP.:E05TSI                      TUE 07/29/97 10:55 Page:240
     1508    15972                                                              /* All done */
     1509    15973    1   RETURN ;
     1510    15974                                                              /*  Errors  */
     1511    15975    1   NETCON_ERR:;
     1512    15976    1   ERR_CODE = B$TCB$->B$TCB.ALT$->B$ALT.ERR;
     1513    15977    1   CALL ASH$ERROR(ERR_CODE);
     1514    15978    1   RETURN;
     1515    15979
     1516    15980    1   DEL_ERR: ;
     1517    15981    1   WRITE_LINK_ERR: ;
     1518    15982    1   CALL ASH$ERROR( ERR_CODE );
     1519    15983    1   ENQ_ERR: ;
     1520    15984    1   DEQ_ERR: ;
     1521    15985    1   RETURN;
     1522    15986
     1523    15987        %EJECT;
PL6.E3A0      #006=ASR$R_LINK_VIRCIR File=ASR$R_HLP.:E05TSI                      TUE 07/29/97 10:55 Page:241
     1524    15988    1   REMOVE_VIRCIR: PROC;
     1525    15989
     1526    15990
     1527    15991        /*E*  ERROR:  ASR-E$VIR_CIR_REMOVED-C
     1528    15992              MESSAGE:.... Virtual circuit %U1 for link %U2 removed.
     1529    15993        */
     1530    15994    2   VIRCIR# = KL$LNKVC.VIRCIR#;
     1531    15995        %NUMBER( NUM1=VIRCIR# );
             16003    2         CALL ASB$BINCHAR( AS_FIELD1.TEXT, 0, -1, VIRCIR# );
     1532    16025    2   AS_FIELD2 = LINK_NAME;
     1533    16026
     1534    16027
     1535    16028    3   IF NOT LINK THEN DO;
     1536    16029    3      PTR$ = PINCRW(DEV$, SIZEW(KL$LNKVC));
     1537    16030    3      MOVE_SIZE = POFFW(DEV_STOP$, PTR$)*4;
     1538    16031    3      KL$DREC.NWINFO = KL$DREC.NWINFO - SIZEW(KL$LNKVC);
     1539    16032    3      KL$DREC.LNK.BLKHDR.NSUBS = KL$DREC.LNK.BLKHDR.NSUBS - 1;
     1540    16033    3      ARS = LENGTHC(KL_DREC_CNT) + KL$DREC.NWINFO*4;
     1541    16034    3      IF MOVE_SIZE > 0 THEN
     1542    16035    3         DEV$->MOVE$TEMP = PTR$->MOVE$TEMP;
     1543    16036    3      END;
     1544    16037        %SCREAM( ERR#=E$VIR_CIR_REMOVED, LEVEL=INFO, MID='R' );
     1545    16052    2   END REMOVE_VIRCIR;
     1546    16053
     1547    16054        %EJECT;
PL6.E3A0      #006=ASR$R_LINK_VIRCIR File=ASR$R_HLP.:E05TSI                      TUE 07/29/97 10:55 Page:242
     1548    16055    1   REMOVE_LINKDEV: PROC;
     1549    16056
     1550    16057
     1551    16058        /*E*  ERROR:  ASR-E$LINKDEV_REMOVED-C
     1552    16059              MESSAGE:.... Link device %U1 for link %U2 removed.
     1553    16060        */
     1554    16061    2   AS_FIELD1.COUNT = SIZEC(KL$LINKDEV.LOGON#);
     1555    16062    2   AS_FIELD1.TEXT = KL$LINKDEV.LOGON#;
     1556    16063    2   AS_FIELD2 = LINK_NAME;
     1557    16064
     1558    16065
     1559    16066    3   IF NOT LINK THEN DO;
     1560    16067    3      PTR$ = PINCRW(DEV$, SIZEW(KL$LINKDEV));
     1561    16068    3      MOVE_SIZE = POFFW(DEV_STOP$, PTR$)*4;
     1562    16069    3      KL$DREC.NWINFO = KL$DREC.NWINFO - SIZEW(KL$LINKDEV);
     1563    16070    3      KL$DREC.LNK.BLKHDR.NSUBS = KL$DREC.LNK.BLKHDR.NSUBS - 1;
     1564    16071    3      ARS = LENGTHC(KL_DREC_CNT) + KL$DREC.NWINFO*4;
     1565    16072    3      IF MOVE_SIZE > 0 THEN
     1566    16073    3         DEV$->MOVE$TEMP = PTR$->MOVE$TEMP;
     1567    16074    3      END;
     1568    16075        %SCREAM( ERR#=E$LINKDEV_REMOVED, LEVEL=INFO, MID='R' );
     1569    16090    2   END REMOVE_LINKDEV;
     1570    16091
     1571    16092    1   END ASR$R_LINK_VIRCIR;
     1572    16093        %EOD ;

PL6.E3A0      #006=ASR$R_LINK_VIRCIR File=ASR$R_HLP.:E05TSI                      TUE 07/29/97 10:55 Page:243
--  Include file information  --

   AS_SUPER_R.:E05TOU  cannot be made into a system file and is referenced.
   XU_FORMAT_C.:E05TOU  is referenced.
   XU_MACRO_C.:E05TOU  is referenced.
   KL_SUPER_C.:E05TOU  is referenced.
   AS_MAC_C.:E05TOU  cannot be made into a system file and is referenced.
   AS_SUBS_C.:E05TOU  is referenced.
   AS_SUPER_C.:E05TOU  is referenced.
   AS_ENTRIES_M.:E05TOU  is referenced.
   B_ERRORS_C.:E05TOU  is referenced.
   KL_CONFIG_M.:E05TOU  is referenced.
   AS_PERR_C.:E05TOU  is referenced.
   CP_6.:E05TOU  cannot be made into a system file and is referenced.
   B$JIT_C.:E05TOU  was found in the system file and is never referenced.
   CP_6_C.:E05TOU  was found in the system file and is referenced.
      No diagnostics issued in procedure ASR$R_LINK_VIRCIR.

   Procedure ASR$R_LINK_VIRCIR requires 453 words for executable code.
   Procedure ASR$R_LINK_VIRCIR requires 32 words of local(AUTO) storage.

PL6.E3A0      #006=ASR$R_LINK_VIRCIR File=ASR$R_HLP.:E05TSI                      TUE 07/29/97 10:55 Page:244

 Object Unit name= ASR$R_LINK_VIRCIR                          File name= ASR$R_HLP.:E05TOU
 UTS= JUL 29 '97 10:55:40.76 TUE                              Compiler= PL-6/E31         Sev=      00
 SharedLib= :SHARED_SYSTEM                                    Alt SharedLib=


    ****  Control sections  ****

 Sect   Type Bound  Init  Size OctSiz  Section name(segment info)
    0   DCB   even  none     0      0  M$UC
    1   DCB   even  none     0      0  M$LO
    2   Data  even  none     8     10  ASR$R_LINK_VIRCIR
    3  RoData even  UTS      9     11  ASR$R_LINK_VIRCIR
    4   Proc  even  none   453    705  ASR$R_LINK_VIRCIR
    5  RoData even  none    22     26  ASR$R_LINK_VIRCIR

    ****  Entry defs  ****

                              Check   Calling
                             calling  sequence
  Sect OctLoc Primary Altret sequence   type   Parms  Name
     4      0   yes            yes      Std        0  ASR$R_LINK_VIRCIR
PL6.E3A0      #006=ASR$R_LINK_VIRCIR File=ASR$R_HLP.:E05TSI                      TUE 07/29/97 10:55 Page:245

  ****  Entry refs  ****

         Check        Calling
        calling       sequence
Altret sequence SRef   type   Args  Name
         yes          ~proc      0 XU_OUTPUT_OPTIONS
 yes     yes           Std       0 ASB$DELREC_HLP
 yes     yes           Std       2 ASB$WRITE_HLP
 yes     yes           Std       0 ASB$GETSEG
         yes           Std       2 ASH$ERROR
 yes     yes           Std       0 ASB$ENQ_HLP
 yes     yes           Std       3 ASB$READ_HLP
         yes           Std       3 ASA$ERROR
         yes           Std       2 ASH$INFO
 yes     yes           Std       1 ASB$DELREC_NETCON
         yes           Std       2 ASH$WARN
 yes     yes           Std       0 ASB$DEQ_HLP
 yes     yes           Std       0 ASB$CLOSE_NETCON
         yes           Std       4 ASB$BINCHAR
                       nStd      0 X66_AUTO_0
                       Std       0 B_CONSPOOL_D
                       nStd      0 X66_ARET

  ****  Data refs  ****

  Flags:  r = read only, s = secondary
Flgs Name                             Flgs Name                             Flgs Name
     M$UC                             r    AS_TRUE                          r    AS_FALSE
r    AS_MODE                          r    AS_FE_MODE                            M$LO
     USERS_KEY                             NODE$                                 ERR_CODE
     AS_FIELD1                             AS_FIELD2                             REMEM_VAR
     REM_FCMD                              ASA_BRKS_LOC                          DSEG_FLG
     DSEG1$                                DSEG1SIZE                             KL_DREC_CNT
     B$TCB$                                B_VECTNIL
PL6.E3A0      #006=ASR$R_LINK_VIRCIR File=ASR$R_HLP.:E05TSI                      TUE 07/29/97 10:55 Page:246

  ****  Segment refs  ****

  Flags:  r = read only, s = secondary
Flgs Name                             Flgs Name                             Flgs Name
     ISSID
PL6.E3A0      #006=ASR$R_LINK_VIRCIR File=ASR$R_HLP.:E05TSI                      TUE 07/29/97 10:55 Page:247


     1249        1        /*M* ASR$R_LINK_VIRCIR - processes the REMOVE LINK/VIRTUAL CIRCUIT command.  */
     1250        2        /*T***********************************************************/
     1251        3        /*T*                                                         */
     1252        4        /*T* Copyright (c) Bull HN Information Systems Inc., 1997    */
     1253        5        /*T*                                                         */
     1254        6        /*T***********************************************************/
     1255        7        /*X*  DMC,DMR,CCC,PLM=0,IND=3,CTI=5,DCI=6,IAD=0,DTI=0,IDT=0,ENI=3,
     1256        8              ECU=3,CSU=3,SDI=3                                           */
     1257        9                                                              /**/
     1258       10        ASR$R_LINK_VIRCIR: PROC;

     10  4 000000   000000 700200 xent  ASR$R_LINK_* TSX0  ! X66_AUTO_0
         4 000001   000040 000000                    ZERO    32,0

     1259       11                                                              /**/
     1260       12        /********************************************************************/
     1261       13        /*   Include files   include files   include files   include files   */
     1262       14        /*********************************************************************/
     1263       15                                                              /**/
     1264       16              %INCLUDE  CP_6 ;
     1265       97              %INCLUDE  AS_PERR_C ;
     1266      699              %INCLUDE  KL_CONFIG_M;
     1267     1461              %INCLUDE  B_ERRORS_C;
     1268     2588              %INCLUDE  AS_ENTRIES_M;
     1269     3638              %INCLUDE  AS_SUPER_C ;
     1270     4073              %INCLUDE  AS_SUBS_C ;
     1271     5487              %INCLUDE  AS_MAC_C ;
     1272     5567              %INCLUDE  KL_SUPER_C ;
     1273     8469              %INCLUDE  XU_MACRO_C ;
     1274    11575              %INCLUDE  XU_FORMAT_C ;
     1275    11737              %INCLUDE  AS_SUPER_R ;
     1276    14753
     1277    14754
     1278    14755        /*********************************************************************/
     1279    14756        /*   Auto data       auto data       auto data       auto data       */
     1280    14757        /*********************************************************************/
PL6.E3A0      #006=ASR$R_LINK_VIRCIR File=ASR$R_HLP.:E05TSI                      TUE 07/29/97 10:55 Page:248
     1281    14758                                                              /**/
     1282    14759    1   DCL PTR$ PTR ;
     1283    14760    1   DCL DEV$ PTR ;
     1284    14761    1   DCL BLK$ PTR ;
     1285    14762    1   DCL ARS UBIN WORD ;
     1286    14763    1   DCL I UBIN WORD ;
     1287    14764    1   DCL J UBIN WORD ;
     1288    14765    1   DCL MOVE_SIZE UBIN WORD ;
     1289    14766    1   DCL VIRCIR# UBIN WORD ;
     1290    14767    1   DCL DEV_SIZEW UBIN WORD ;
     1291    14768    1   DCL VIRCIR_INDEX UBIN WORD ;
     1292    14769    1   DCL DEV_START$ PTR ;
     1293    14770    1   DCL DEV_STOP$ PTR ;
     1294    14771    1   DCL LINK        BIT(1) ;
     1295    14772    1   DCL VIRCIR  BIT(1) ;
     1296    14773    1   DCL LINKDEV  BIT(1) ;
     1297    14774    1   DCL LINKDEV_EXISTS  BIT(1) ;
     1298    14775    1   DCL VIRCIR_EXISTS BIT(1) ;
     1299    14776    1   DCL FOUND       BIT(1) ;
     1300    14777    1   DCL DONE        BIT(1) ;
     1301    14778    1   DCL 1 LINK_NAME,
     1302    14779    1          2 COUNT UBIN BYTE UNAL,
     1303    14780    1          2 TEXT CHAR(8) UNAL;
     1304    14781
     1305    14782        /*********************************************************************/
     1306    14783        /*   Static data     static data     static data     static data     */
     1307    14784        /*********************************************************************/
     1308    14785                                                              /**/
     1309    14786    1   DCL 1 LINK_KEY ALIGNED STATIC ,
     1310    14787    1          2 CNT UBIN BYTE UNAL INIT( 9 ),
     1311    14788    1          2 TXT UNAL ,
     1312    14789    1             3 LINK CHAR(8) UNAL INIT(' ') ,
     1313    14790    1             3 ASTR CHAR(1) UNAL INIT('*') ;
     1314    14791        %KL$TERM_KEY (NAME=KL_TERM_KEY,STCLASS=STATIC);
     1315    14837
     1316    14838        /********************************************************************/
     1317    14839        /*   Entry dcls      entry dcls      entry dcls      entry dcls      */
PL6.E3A0      #006=ASR$R_LINK_VIRCIR File=ASR$R_HLP.:E05TSI                      TUE 07/29/97 10:55 Page:249
     1318    14840        /*********************************************************************/
     1319    14841                                                              /**/
     1320    14842        %ASB$DELREC_HLP ;
     1321    14845        %ASB$GETSEG ;
     1322    14848        %ASB$GET_MORE_SEG ;
     1323    14851        %ASB$ENQ_HLP ;
     1324    14854        %ASB$DEQ_HLP ;
     1325    14857        %ASH$ERROR ;
     1326    14860        %ASH$WARN ;
     1327    14863        %ASH$INFO ;
     1328    14866        %ASB$READ_HLP ;
     1329    14869        %ASB$WRITE_HLP ;
     1330    14872        %ASA$ERROR ;
     1331    14875        %ASB$DELREC_NETCON ;
     1332    14878        %ASB$CLOSE_NETCON ;
     1333    14881
     1334    14882        /*********************************************************************/
     1335    14883        /*   Local based     local based     local based     local based     */
     1336    14884        /*********************************************************************/
     1337    14885                                                              /**/
     1338    14886        %PARSE$OUT( NAME=P$NODE, STCLASS="BASED(NODE$)",
     1339    14887                    NDTYPE=TYPE, NSUBLKS=SUBNODES) ;
     1340    14932        %PARSE$SYM( NAME = OUT$SYM ,
     1341    14933                    STCLASS="BASED(BLK$)") ;
     1342    14971        %KL_DREC ( NAME = KL$DREC ,
     1343    14972                   LAST=",",
     1344    14973                   STCLASS="BASED( DSEG1$ )");
     1345    15086        %KL_LNK( NAME = LNK,
     1346    15087                 LVL = 2,
     1347    15088                 STCLASS = BASED,
     1348    15089                 LAST = ";" );
     1349    15313        %KL_LNKVC (   NAME    = KL$LNKVC,
     1350    15314                      LVL     = 1,
     1351    15315                      STCLASS = "BASED(DEV$)" );
     1352    15539        %KL_LINKDEV ( NAME    = KL$LINKDEV,
     1353    15540                      LVL     = 1,
     1354    15541                      STCLASS = "BASED(DEV$)" );
PL6.E3A0      #006=ASR$R_LINK_VIRCIR File=ASR$R_HLP.:E05TSI                      TUE 07/29/97 10:55 Page:250
     1355    15712    1   DCL MOVE$TEMP CHAR(MOVE_SIZE) BASED;
     1356    15713
     1357    15714    1   DCL B$TCB$ PTR SYMREF;
     1358    15715        %B$TCB;
     1359    15718        %B$ALT;
     1360    15726        /*********************************************************************/
     1361    15727        /*   Procedure       procedure       procedure       procedure       */
     1362    15728        /*********************************************************************/
     1363    15729                                                              /**/
     1364    15730        /*
     1365    15731            ***            Begin procedure                    ***
     1366    15732        */
     1367    15733    1   LINK = (P$NODE.CODE = R_LINK_VAL);

  15733  4 000002   400000 220003                    LDX0    -131072,DU
         4 000003   000000 470400 xsym               LDP0    NODE$
         4 000004   000000 721100                    LXL1    0,,PR0
         4 000005   000100 101003                    CMPX1   64,DU
         4 000006   000010 600000 4                  TZE     s:15733+6
         4 000007   000000 220003                    LDX0    0,DU
         4 000010   000000 636010                    EAQ     0,X0
         4 000011   200017 756100                    STQ     LINK,,AUTO

     1368    15734    1   VIRCIR = (P$NODE.CODE = R_VIR_CIR_VAL);

  15734  4 000012   400000 220003                    LDX0    -131072,DU
         4 000013   000070 101003                    CMPX1   56,DU
         4 000014   000016 600000 4                  TZE     s:15734+4
         4 000015   000000 220003                    LDX0    0,DU
         4 000016   000000 636010                    EAQ     0,X0
         4 000017   200020 756100                    STQ     VIRCIR,,AUTO

     1369    15735    1   LINKDEV = (P$NODE.CODE = R_LINK_DEV_VAL);

  15735  4 000020   400000 220003                    LDX0    -131072,DU
         4 000021   000113 101003                    CMPX1   75,DU
         4 000022   000024 600000 4                  TZE     s:15735+4
PL6.E3A0      #006=ASR$R_LINK_VIRCIR File=ASR$R_HLP.:E05TSI                      TUE 07/29/97 10:55 Page:251
         4 000023   000000 220003                    LDX0    0,DU
         4 000024   000000 636010                    EAQ     0,X0
         4 000025   200021 756100                    STQ     LINKDEV,,AUTO

     1370    15736                                                              /* Get data seg. */
     1371    15737    1   IF NOT DSEG_FLG THEN

  15737  4 000026   000000 234000 xsym               SZN     DSEG_FLG
         4 000027   000041 604000 4                  TMI     s:15758

     1372    15738    1      CALL ASB$GETSEG

  15738  4 000030   000002 631400 xsym               EPPR1   B_VECTNIL+2
         4 000031   000000 701000 xent               TSX1    ASB$GETSEG
         4 000032   000034 702000 4                  TSX2    s:15752
         4 000033   000041 710000 4                  TRA     s:15758

     1373    15739    2      WHENALTRETURN DO;

     1374    15740              %SCREAM( ERR#=%E$GETSEGERR , LEVEL=ERROR, MID='R' );

  15752  4 000034   000000 630400 5                  EPPR0   0
         4 000035   000017 631400 xsym               EPPR1   B_VECTNIL+15
         4 000036   000000 701000 xent               TSX1    ASH$ERROR
         4 000037   000000 011000                    NOP     0

     1375    15755    2         RETURN ;

  15755  4 000040   000000 702200 xent               TSX2  ! X66_ARET

     1376    15756    2         END; /*  Whenaltreturn  */
     1377    15757                                                              /* Get link name */
     1378    15758    1   IF LINK THEN

  15758  4 000041   200017 234100                    SZN     LINK,,AUTO
         4 000042   000050 605000 4                  TPL     s:15761

PL6.E3A0      #006=ASR$R_LINK_VIRCIR File=ASR$R_HLP.:E05TSI                      TUE 07/29/97 10:55 Page:252
     1379    15759    1      BLK$ = P$NODE.SUBLK$(0) -> P$NODE.SUBLK$(0) ;

  15759  4 000043   000000 470400 xsym               LDP0    NODE$
         4 000044   000003 471500                    LDP1    3,,PR0
         4 000045   100003 236100                    LDQ     3,,PR1
         4 000046   200005 756100                    STQ     BLK$,,AUTO
         4 000047   000054 710000 4                  TRA     s:15762

     1380    15760    1   ELSE
     1381    15761    1      BLK$ = P$NODE.SUBLK$(1) -> P$NODE.SUBLK$(0) ;

  15761  4 000050   000000 470400 xsym               LDP0    NODE$
         4 000051   000004 471500                    LDP1    4,,PR0
         4 000052   100003 236100                    LDQ     3,,PR1
         4 000053   200005 756100                    STQ     BLK$,,AUTO

     1382    15762    1   LINK_NAME.COUNT = OUT$SYM.COUNT;

  15762  4 000054   200005 471500                    LDP1    BLK$,,AUTO
         4 000055   100004 236100                    LDQ     4,,PR1
         4 000056   200026 552140                    STBQ    LINK_NAME,'40'O,AUTO

     1383    15763    1   LINK_NAME.TEXT = OUT$SYM.TEXT ;

  15763  4 000057   100004 236100                    LDQ     4,,PR1
         4 000060   000033 772000                    QRL     27
         4 000061   000000 620006                    EAX0    0,QL
         4 000062   040100 100540                    MLR     fill='040'O
         4 000063   100004 200010                    ADSC9   4,,PR1                   cn=1,n=*X0
         4 000064   200026 200010                    ADSC9   LINK_NAME,,AUTO          cn=1,n=8

     1384    15764    1   LINK_KEY.TXT.LINK = OUT$SYM.TEXT ;

  15764  4 000065   040000 100540                    MLR     fill='040'O
         4 000066   100004 200010                    ADSC9   4,,PR1                   cn=1,n=*X0
         4 000067   000000 200010 2                  ADSC9   LINK_KEY                 cn=1,n=8

PL6.E3A0      #006=ASR$R_LINK_VIRCIR File=ASR$R_HLP.:E05TSI                      TUE 07/29/97 10:55 Page:253
     1385    15765    1   USERS_KEY = LINK_KEY ;

  15765  4 000070   000000 100400                    MLR     fill='000'O
         4 000071   000000 000012 2                  ADSC9   LINK_KEY                 cn=0,n=10
         4 000072   000000 000052 xsym               ADSC9   USERS_KEY                cn=0,n=42

     1386    15766    1   CALL ASB$ENQ_HLP ALTRET(ENQ_ERR);

  15766  4 000073   000002 631400 xsym               EPPR1   B_VECTNIL+2
         4 000074   000000 701000 xent               TSX1    ASB$ENQ_HLP
         4 000075   000533 702000 4                  TSX2    ENQ_ERR

     1387    15767                                                              /* Pick up link record */
     1388    15768    1   READ_LINK_REC:
     1389    15769    1   ARS = DSEG1SIZE ;

  15769  4 000076   000000 235000 xsym  READ_LINK_R* LDA     DSEG1SIZE
         4 000077   200006 755100                    STA     ARS,,AUTO

     1390    15770    1   CALL ASB$READ_HLP( DSEG1$, ARS, 1)

  15770  4 000100   000001 236000 5                  LDQ     1
         4 000101   200036 756100                    STQ     LINK_NAME+8,,AUTO
         4 000102   200006 630500                    EPPR0   ARS,,AUTO
         4 000103   200035 450500                    STP0    LINK_NAME+7,,AUTO
         4 000104   000002 236000 5                  LDQ     2
         4 000105   200034 756100                    STQ     LINK_NAME+6,,AUTO
         4 000106   200034 630500                    EPPR0   LINK_NAME+6,,AUTO
         4 000107   000021 631400 xsym               EPPR1   B_VECTNIL+17
         4 000110   000000 701000 xent               TSX1    ASB$READ_HLP
         4 000111   000113 702000 4                  TSX2    s:15772
         4 000112   000134 710000 4                  TRA     s:15798

     1391    15771    2   WHENALTRETURN DO;

     1392    15772    3      IF MERR_CODE.CODE = %E$NOKEY THEN DO;

PL6.E3A0      #006=ASR$R_LINK_VIRCIR File=ASR$R_HLP.:E05TSI                      TUE 07/29/97 10:55 Page:254
  15772  4 000113   000000 236000 xsym               LDQ     ERR_CODE
         4 000114   377770 376007                    ANQ     131064,DL
         4 000115   001020 116007                    CMPQ    528,DL
         4 000116   000127 601000 4                  TNZ     s:15794

     1393    15773        /*E* ERROR:   ASR-E$LINK_NO_EXIST2-C
     1394    15774             MESSAGE: Link %U1 does not exist.
     1395    15775        */
     1396    15776    3         AS_FIELD1 = LINK_NAME;

  15776  4 000117   000000 100500                    MLR     fill='000'O
         4 000120   200026 000011                    ADSC9   LINK_NAME,,AUTO          cn=0,n=9
         4 000121   000000 000051 xsym               ADSC9   AS_FIELD1                cn=0,n=41

     1397    15777              %SCREAM( ERR#=E$LINK_NO_EXIST2, MID='R', LEVEL=WARN );

  15787  4 000122   000003 630400 5                  EPPR0   3
         4 000123   000017 631400 xsym               EPPR1   B_VECTNIL+15
         4 000124   000000 701000 xent               TSX1    ASH$WARN
         4 000125   000000 011000                    NOP     0

     1398    15792    3         END;

  15792  4 000126   000133 710000 4                  TRA     s:15796

     1399    15793    3      ELSE DO;

     1400    15794    3         CALL ASA$ERROR( USERS_KEY, E$UNABLE_TO_READ_HLP );

  15794  4 000127   000005 630400 5                  EPPR0   5
         4 000130   000020 631400 xsym               EPPR1   B_VECTNIL+16
         4 000131   000000 701000 xent               TSX1    ASA$ERROR
         4 000132   000000 011000                    NOP     0

     1401    15795    3         END;

     1402    15796    2      RETURN;
PL6.E3A0      #006=ASR$R_LINK_VIRCIR File=ASR$R_HLP.:E05TSI                      TUE 07/29/97 10:55 Page:255

  15796  4 000133   000000 702200 xent               TSX2  ! X66_ARET

     1403    15797    2      END;  /*  Whenaltreturn  */
     1404    15798    2   IF KL$DREC.ATYP ~= %KLAT_LNKLINE# THEN DO;

  15798  4 000134   000000 470400 xsym               LDP0    DSEG1$
         4 000135   000000 236100                    LDQ     0,,PR0
         4 000136   777000 376003                    ANQ     -512,DU
         4 000137   006000 116003                    CMPQ    3072,DU
         4 000140   000151 600000 4                  TZE     s:15820

     1405    15799        /*E*  ERROR:    ASR-E$NOTLINK-C
     1406    15800              MESSAGE0: %%U1 %is not a link.
     1407    15801        */
     1408    15802    2      AS_FIELD1 = LINK_NAME;

  15802  4 000141   000000 100500                    MLR     fill='000'O
         4 000142   200026 000011                    ADSC9   LINK_NAME,,AUTO          cn=0,n=9
         4 000143   000000 000051 xsym               ADSC9   AS_FIELD1                cn=0,n=41

     1409    15803           %SCREAM( ERR#=E$NOTLINK , LEVEL=ERROR, MID='R' );

  15815  4 000144   000007 630400 5                  EPPR0   7
         4 000145   000017 631400 xsym               EPPR1   B_VECTNIL+15
         4 000146   000000 701000 xent               TSX1    ASH$ERROR
         4 000147   000000 011000                    NOP     0

     1410    15818    2      RETURN ;

  15818  4 000150   000000 702200 xent               TSX2  ! X66_ARET

     1411    15819    2      END ; /* Then do */
     1412    15820    1   DEV_START$ = PINCRW(ADDR(KL$DREC.LNK), SIZEW(KL$DREC.LNK) );

  15820  4 000151   000000 236000 xsym               LDQ     DSEG1$
         4 000152   000034 036003                    ADLQ    28,DU
PL6.E3A0      #006=ASR$R_LINK_VIRCIR File=ASR$R_HLP.:E05TSI                      TUE 07/29/97 10:55 Page:256
         4 000153   200015 756100                    STQ     DEV_START$,,AUTO

     1413    15821    1   DEV_SIZEW = KL$DREC.NWINFO - POFFW(DEV_START$,ADDR(KL$DREC.LNK));

  15821  4 000154   000000 236000 xsym               LDQ     DSEG1$
         4 000155   000020 036003                    ADLQ    16,DU
         4 000156   000022 772000                    QRL     18
         4 000157   200034 756100                    STQ     LINK_NAME+6,,AUTO
         4 000160   200015 236100                    LDQ     DEV_START$,,AUTO
         4 000161   000022 772000                    QRL     18
         4 000162   200034 136100                    SBLQ    LINK_NAME+6,,AUTO
         4 000163   200035 756100                    STQ     LINK_NAME+7,,AUTO
         4 000164   000017 236100                    LDQ     15,,PR0
         4 000165   200035 136100                    SBLQ    LINK_NAME+7,,AUTO
         4 000166   200013 756100                    STQ     DEV_SIZEW,,AUTO

     1414    15822    1   DEV_STOP$ = PINCRW( DEV_START$, DEV_SIZEW);

  15822  4 000167   000022 736000                    QLS     18
         4 000170   200015 036100                    ADLQ    DEV_START$,,AUTO
         4 000171   200016 756100                    STQ     DEV_STOP$,,AUTO

     1415    15823    1   DEV$ = DEV_START$;

  15823  4 000172   200015 236100                    LDQ     DEV_START$,,AUTO
         4 000173   200004 756100                    STQ     DEV$,,AUTO

     1416    15824    2   IF LINK THEN DO;

  15824  4 000174   200017 234100                    SZN     LINK,,AUTO
         4 000175   000272 605000 4                  TPL     s:15867

     1417    15825    2      VIRCIR_INDEX = 0;

  15825  4 000176   200014 450100                    STZ     VIRCIR_INDEX,,AUTO

     1418    15826    3      DO WHILE( VIRCIR_INDEX < KL$DREC.LNK.BLKHDR.NSUBS ) ;
PL6.E3A0      #006=ASR$R_LINK_VIRCIR File=ASR$R_HLP.:E05TSI                      TUE 07/29/97 10:55 Page:257

  15826  4 000177   000020 236100                    LDQ     16,,PR0
         4 000200   000022 772000                    QRL     18
         4 000201   000777 376007                    ANQ     511,DL
         4 000202   200014 116100                    CMPQ    VIRCIR_INDEX,,AUTO
         4 000203   000237 602000 4                  TNC     s:15837
         4 000204   000237 600000 4                  TZE     s:15837

     1419    15827    4         IF KL$LNKVC.BLKHDR.BLKTYP = %KLTY_VIRCIR# THEN DO;

  15827  4 000205   200004 470500                    LDP0    DEV$,,AUTO
         4 000206   000001 236100                    LDQ     1,,PR0
         4 000207   777000 376003                    ANQ     -512,DU
         4 000210   010000 116003                    CMPQ    4096,DU
         4 000211   000220 601000 4                  TNZ     s:15832

     1420    15828    4            CALL REMOVE_VIRCIR;

  15828  4 000212   000534 701000 4                  TSX1    REMOVE_VIRCIR
         4 000213   000000 011000                    NOP     0

     1421    15829    4            DEV$ = PINCRW( DEV$, SIZEW(KL$LNKVC));

  15829  4 000214   200004 236100                    LDQ     DEV$,,AUTO
         4 000215   000014 036003                    ADLQ    12,DU
         4 000216   200004 756100                    STQ     DEV$,,AUTO

     1422    15830    4            END;  /*  Vircir  */

  15830  4 000217   000225 710000 4                  TRA     s:15835

     1423    15831    4         ELSE DO;

     1424    15832    4            CALL REMOVE_LINKDEV;

  15832  4 000220   000625 701000 4                  TSX1    REMOVE_LINKDEV
         4 000221   000000 011000                    NOP     0
PL6.E3A0      #006=ASR$R_LINK_VIRCIR File=ASR$R_HLP.:E05TSI                      TUE 07/29/97 10:55 Page:258

     1425    15833    4            DEV$ = PINCRW( DEV$, SIZEW(KL$LINKDEV));

  15833  4 000222   200004 236100                    LDQ     DEV$,,AUTO
         4 000223   000006 036003                    ADLQ    6,DU
         4 000224   200004 756100                    STQ     DEV$,,AUTO

     1426    15834    4            END; /*  Linkdev  */

     1427    15835    3         VIRCIR_INDEX = VIRCIR_INDEX + 1;

  15835  4 000225   200014 235100                    LDA     VIRCIR_INDEX,,AUTO
         4 000226   000001 035007                    ADLA    1,DL
         4 000227   200014 755100                    STA     VIRCIR_INDEX,,AUTO

     1428    15836    3         END;  /*  Do while VIRCIR_INDEX < KL$DREC.LNK.BLKHDR.NSUBS  */

  15836  4 000230   000000 470400 xsym               LDP0    DSEG1$
         4 000231   000020 236100                    LDQ     16,,PR0
         4 000232   000022 772000                    QRL     18
         4 000233   000777 376007                    ANQ     511,DL
         4 000234   200014 116100                    CMPQ    VIRCIR_INDEX,,AUTO
         4 000235   000237 600000 4                  TZE     s:15837
         4 000236   000205 603000 4                  TRC     s:15827

     1429    15837    2      CALL ASB$DELREC_HLP ALTRET(DEL_ERR);

  15837  4 000237   000002 631400 xsym               EPPR1   B_VECTNIL+2
         4 000240   000000 701000 xent               TSX1    ASB$DELREC_HLP
         4 000241   000527 702000 4                  TSX2    DEL_ERR

     1430    15838        /*E*  ERROR:  ASR-E$LINK_REMOVED-C
     1431    15839              MESSAGE:.. Link %U1 removed.
     1432    15840        */
     1433    15841    2      AS_FIELD1 = LINK_NAME;

  15841  4 000242   000000 100500                    MLR     fill='000'O
PL6.E3A0      #006=ASR$R_LINK_VIRCIR File=ASR$R_HLP.:E05TSI                      TUE 07/29/97 10:55 Page:259
         4 000243   200026 000011                    ADSC9   LINK_NAME,,AUTO          cn=0,n=9
         4 000244   000000 000051 xsym               ADSC9   AS_FIELD1                cn=0,n=41

     1434    15842           %SCREAM( ERR#=E$LINK_REMOVED, LEVEL=INFO, MID='R' );

  15850  4 000245   000010 630400 5                  EPPR0   8
         4 000246   000017 631400 xsym               EPPR1   B_VECTNIL+15
         4 000247   000000 701000 xent               TSX1    ASH$INFO
         4 000250   000000 011000                    NOP     0

     1435    15857    2      KL_TERM_KEY.TERMID.TERM.TERM_NAME = LINK_NAME.TEXT;

  15857  4 000251   040000 100500                    MLR     fill='040'O
         4 000252   200026 200010                    ADSC9   LINK_NAME,,AUTO          cn=1,n=8
         4 000253   000005 400010 2                  ADSC9   KL_TERM_KEY+2            cn=2,n=8

     1436    15858    2      CALL ASB$DELREC_NETCON(VECTOR(KL_TERM_KEY))

  15858  4 000254   000014 630400 5                  EPPR0   12
         4 000255   000017 631400 xsym               EPPR1   B_VECTNIL+15
         4 000256   000000 701000 xent               TSX1    ASB$DELREC_NETCON
         4 000257   000261 702000 4                  TSX2    s:15860
         4 000260   000266 710000 4                  TRA     s:15865

     1437    15859    3      WHENALTRETURN DO;

     1438    15860    3         IF MERR_CODE.CODE ~= %E$NOKEY

  15860  4 000261   000000 236000 xsym               LDQ     ERR_CODE
         4 000262   377770 376007                    ANQ     131064,DL
         4 000263   001020 116007                    CMPQ    528,DL
         4 000264   000266 600000 4                  TZE     s:15865

     1439    15861    4         THEN DO;

     1440    15862    4            GOTO NETCON_ERR;

PL6.E3A0      #006=ASR$R_LINK_VIRCIR File=ASR$R_HLP.:E05TSI                      TUE 07/29/97 10:55 Page:260
  15862  4 000265   000516 710000 4                  TRA     NETCON_ERR

     1441    15863    4            END;
     1442    15864    3         END;
     1443    15865    2      CALL ASB$CLOSE_NETCON ALTRET(NETCON_ERR);

  15865  4 000266   000002 631400 xsym               EPPR1   B_VECTNIL+2
         4 000267   000000 701000 xent               TSX1    ASB$CLOSE_NETCON
         4 000270   000516 702000 4                  TSX2    NETCON_ERR

     1444    15866    2      END;

  15866  4 000271   000512 710000 4                  TRA     EXIT#

     1445    15867    2   ELSE IF VIRCIR THEN DO;

  15867  4 000272   200020 234100                    SZN     VIRCIR,,AUTO
         4 000273   000407 605000 4                  TPL     s:15930

     1446    15868                                                      /* Get virtual circuit number */
     1447    15869    2         BLK$ = P$NODE.SUBLK$(0);

  15869  4 000274   000000 471400 xsym               LDP1    NODE$
         4 000275   100003 236100                    LDQ     3,,PR1
         4 000276   200005 756100                    STQ     BLK$,,AUTO

     1448    15870    2         CALL CHARBIN( VIRCIR#, OUT$SYM.TEXT );

  15870  4 000277   200005 473500                    LDP3    BLK$,,AUTO
         4 000300   300004 236100                    LDQ     4,,PR3
         4 000301   000033 772000                    QRL     27
         4 000302   000000 620006                    EAX0    0,QL
         4 000303   000100 305540                    DTB
         4 000304   300004 230010                    NDSC9   4,,PR3                   cn=1,s=nosgn,sf=0,n=*X0
         4 000305   200034 000010                    NDSC9   LINK_NAME+6,,AUTO        cn=0,s=lsgnf,sf=0,n=8
         4 000306   200035 235100                    LDA     LINK_NAME+7,,AUTO
         4 000307   200012 755100                    STA     VIRCIR#,,AUTO
PL6.E3A0      #006=ASR$R_LINK_VIRCIR File=ASR$R_HLP.:E05TSI                      TUE 07/29/97 10:55 Page:261

     1449    15871    3         IF VIRCIR# > 4095 THEN DO;

  15871  4 000310   010000 115007                    CMPA    4096,DL
         4 000311   000317 602000 4                  TNC     s:15894

     1450    15872        /*E*  ERROR:  ASR-E$NOT_VIR_CIR-C
     1451    15873              MESSAGE: Illegal VIRTUAL CIRCUIT number.
     1452    15874              MESSAGE1: A VIRTUAL CIRCUIT number must be between 0 and 4095.
     1453    15875        */
     1454    15876                 %SCREAM( ERR#=E$NOT_VIR_CIR, LEVEL=ERROR, MID='R' );

  15888  4 000312   000015 630400 5                  EPPR0   13
         4 000313   000017 631400 xsym               EPPR1   B_VECTNIL+15
         4 000314   000000 701000 xent               TSX1    ASH$ERROR
         4 000315   000000 011000                    NOP     0

     1455    15891    3            RETURN;

  15891  4 000316   000000 702200 xent               TSX2  ! X66_ARET

     1456    15892    3            END;
     1457    15893                                                    /* See if the virtual circuit exists.*/
     1458    15894    2         VIRCIR_EXISTS = AS_FALSE;

  15894  4 000317   000000 236000 xsym               LDQ     AS_FALSE
         4 000320   400000 376003                    ANQ     -131072,DU
         4 000321   200023 756100                    STQ     VIRCIR_EXISTS,,AUTO

     1459    15895    3         DO WHILE( DEV$ < DEV_STOP$ AND NOT VIRCIR_EXISTS );

  15895  4 000322   000347 710000 4                  TRA     s:15903

     1460    15896    3            IF KL$LNKVC.BLKHDR.BLKTYP = %KLTY_VIRCIR# THEN

  15896  4 000323   200004 470500                    LDP0    DEV$,,AUTO
         4 000324   000001 236100                    LDQ     1,,PR0
PL6.E3A0      #006=ASR$R_LINK_VIRCIR File=ASR$R_HLP.:E05TSI                      TUE 07/29/97 10:55 Page:262
         4 000325   777000 376003                    ANQ     -512,DU
         4 000326   010000 116003                    CMPQ    4096,DU
         4 000327   000344 601000 4                  TNZ     s:15902

     1461    15897    3               IF KL$LNKVC.VIRCIR# = VIRCIR# THEN

  15897  4 000330   000012 236100                    LDQ     10,,PR0
         4 000331   777777 376007                    ANQ     -1,DL
         4 000332   200012 116100                    CMPQ    VIRCIR#,,AUTO
         4 000333   000340 601000 4                  TNZ     s:15900

     1462    15898    3                  VIRCIR_EXISTS = AS_TRUE;

  15898  4 000334   000000 236000 xsym               LDQ     AS_TRUE
         4 000335   400000 376003                    ANQ     -131072,DU
         4 000336   200023 756100                    STQ     VIRCIR_EXISTS,,AUTO
         4 000337   000347 710000 4                  TRA     s:15903

     1463    15899    3               ELSE
     1464    15900    3                  DEV$ = PINCRW( DEV$, SIZEW(KL$LNKVC));

  15900  4 000340   200004 236100                    LDQ     DEV$,,AUTO
         4 000341   000014 036003                    ADLQ    12,DU
         4 000342   200004 756100                    STQ     DEV$,,AUTO
         4 000343   000347 710000 4                  TRA     s:15903

     1465    15901    3            ELSE
     1466    15902    3               DEV$ = PINCRW( DEV$, SIZEW(KL$LINKDEV));

  15902  4 000344   200004 236100                    LDQ     DEV$,,AUTO
         4 000345   000006 036003                    ADLQ    6,DU
         4 000346   200004 756100                    STQ     DEV$,,AUTO

     1467    15903    3            END;

  15903  4 000347   200004 236100                    LDQ     DEV$,,AUTO
         4 000350   200016 116100                    CMPQ    DEV_STOP$,,AUTO
PL6.E3A0      #006=ASR$R_LINK_VIRCIR File=ASR$R_HLP.:E05TSI                      TUE 07/29/97 10:55 Page:263
         4 000351   000354 603000 4                  TRC     s:15904
         4 000352   200023 234100                    SZN     VIRCIR_EXISTS,,AUTO
         4 000353   000323 605000 4                  TPL     s:15896

     1468    15904    3         IF NOT VIRCIR_EXISTS THEN DO;

  15904  4 000354   200023 234100                    SZN     VIRCIR_EXISTS,,AUTO
         4 000355   000374 604000 4                  TMI     s:15927

     1469    15905        /*E*  ERROR:  ASR-E$VIR_CIRNOEXIST-C
     1470    15906              MESSAGE: Virtual circuit %U1 does not exist.
     1471    15907        */
     1472    15908    3            AS_FIELD1.COUNT = OUT$SYM.COUNT;

  15908  4 000356   200005 470500                    LDP0    BLK$,,AUTO
         4 000357   000004 236100                    LDQ     4,,PR0
         4 000360   000000 552040 xsym               STBQ    AS_FIELD1,'40'O

     1473    15909    3            AS_FIELD1.TEXT = OUT$SYM.TEXT;

  15909  4 000361   000004 236100                    LDQ     4,,PR0
         4 000362   000033 772000                    QRL     27
         4 000363   000000 620006                    EAX0    0,QL
         4 000364   040000 100540                    MLR     fill='040'O
         4 000365   000004 200010                    ADSC9   4,,PR0                   cn=1,n=*X0
         4 000366   000000 200050 xsym               ADSC9   AS_FIELD1                cn=1,n=40

     1474    15910                 %SCREAM( ERR#=E$VIR_CIRNOEXIST, LEVEL=WARN, MID='R' );

  15920  4 000367   000016 630400 5                  EPPR0   14
         4 000370   000017 631400 xsym               EPPR1   B_VECTNIL+15
         4 000371   000000 701000 xent               TSX1    ASH$WARN
         4 000372   000000 011000                    NOP     0

     1475    15925    3            RETURN;

  15925  4 000373   000000 702200 xent               TSX2  ! X66_ARET
PL6.E3A0      #006=ASR$R_LINK_VIRCIR File=ASR$R_HLP.:E05TSI                      TUE 07/29/97 10:55 Page:264

     1476    15926    3            END;
     1477    15927    2         CALL REMOVE_VIRCIR;

  15927  4 000374   000534 701000 4                  TSX1    REMOVE_VIRCIR
         4 000375   000000 011000                    NOP     0

     1478    15928    2         CALL ASB$WRITE_HLP( DSEG1$, ARS ) ALTRET( WRITE_LINK_ERR );

  15928  4 000376   200006 630500                    EPPR0   ARS,,AUTO
         4 000377   200035 450500                    STP0    LINK_NAME+7,,AUTO
         4 000400   000002 236000 5                  LDQ     2
         4 000401   200034 756100                    STQ     LINK_NAME+6,,AUTO
         4 000402   200034 630500                    EPPR0   LINK_NAME+6,,AUTO
         4 000403   000020 631400 xsym               EPPR1   B_VECTNIL+16
         4 000404   000000 701000 xent               TSX1    ASB$WRITE_HLP
         4 000405   000527 702000 4                  TSX2    DEL_ERR

     1479    15929    2         END;

  15929  4 000406   000512 710000 4                  TRA     EXIT#

     1480    15930    2      ELSE IF LINKDEV THEN DO;

  15930  4 000407   200021 234100                    SZN     LINKDEV,,AUTO
         4 000410   000512 605000 4                  TPL     EXIT#

     1481    15931                                                      /* Get link device name */
     1482    15932    2            BLK$ = P$NODE.SUBLK$(0) -> P$NODE.SUBLK$(0) ;

  15932  4 000411   000000 471400 xsym               LDP1    NODE$
         4 000412   100003 473500                    LDP3    3,,PR1
         4 000413   300003 236100                    LDQ     3,,PR3
         4 000414   200005 756100                    STQ     BLK$,,AUTO

     1483    15933                                                      /* See if the link device exists.*/
     1484    15934    2            LINKDEV_EXISTS = AS_FALSE;
PL6.E3A0      #006=ASR$R_LINK_VIRCIR File=ASR$R_HLP.:E05TSI                      TUE 07/29/97 10:55 Page:265

  15934  4 000415   000000 236000 xsym               LDQ     AS_FALSE
         4 000416   400000 376003                    ANQ     -131072,DU
         4 000417   200022 756100                    STQ     LINKDEV_EXISTS,,AUTO

     1485    15935    3            DO WHILE( DEV$ < DEV_STOP$ AND NOT LINKDEV_EXISTS );

  15935  4 000420   000453 710000 4                  TRA     s:15943

     1486    15936    3               IF KL$LINKDEV.BLKHDR.BLKTYP = %KLTY_LINKDEV# THEN

  15936  4 000421   200004 470500                    LDP0    DEV$,,AUTO
         4 000422   000100 101500                    MRL     fill='000'O
         4 000423   000001 000001                    ADSC9   1,,PR0                   cn=0,n=1
         4 000424   200034 000004                    ADSC9   LINK_NAME+6,,AUTO        cn=0,n=4
         4 000425   200034 236100                    LDQ     LINK_NAME+6,,AUTO
         4 000426   000013 116007                    CMPQ    11,DL
         4 000427   000450 601000 4                  TNZ     s:15942

     1487    15937    3                  IF KL$LINKDEV.LOGON# = OUT$SYM.TEXT THEN

  15937  4 000430   200005 471500                    LDP1    BLK$,,AUTO
         4 000431   100004 236100                    LDQ     4,,PR1
         4 000432   000033 772000                    QRL     27
         4 000433   000000 620006                    EAX0    0,QL
         4 000434   040140 106500                    CMPC    fill='040'O
         4 000435   000004 000010                    ADSC9   4,,PR0                   cn=0,n=8
         4 000436   100004 200010                    ADSC9   4,,PR1                   cn=1,n=*X0
         4 000437   000444 601000 4                  TNZ     s:15940

     1488    15938    3                     LINKDEV_EXISTS = AS_TRUE;

  15938  4 000440   000000 236000 xsym               LDQ     AS_TRUE
         4 000441   400000 376003                    ANQ     -131072,DU
         4 000442   200022 756100                    STQ     LINKDEV_EXISTS,,AUTO
         4 000443   000453 710000 4                  TRA     s:15943

PL6.E3A0      #006=ASR$R_LINK_VIRCIR File=ASR$R_HLP.:E05TSI                      TUE 07/29/97 10:55 Page:266
     1489    15939    3                  ELSE
     1490    15940    3                     DEV$ = PINCRW( DEV$, SIZEW(KL$LINKDEV));

  15940  4 000444   200004 236100                    LDQ     DEV$,,AUTO
         4 000445   000006 036003                    ADLQ    6,DU
         4 000446   200004 756100                    STQ     DEV$,,AUTO
         4 000447   000453 710000 4                  TRA     s:15943

     1491    15941    3               ELSE
     1492    15942    3                  DEV$ = PINCRW( DEV$, SIZEW(KL$LNKVC));

  15942  4 000450   200004 236100                    LDQ     DEV$,,AUTO
         4 000451   000014 036003                    ADLQ    12,DU
         4 000452   200004 756100                    STQ     DEV$,,AUTO

     1493    15943    3               END;

  15943  4 000453   200004 236100                    LDQ     DEV$,,AUTO
         4 000454   200016 116100                    CMPQ    DEV_STOP$,,AUTO
         4 000455   000460 603000 4                  TRC     s:15944
         4 000456   200022 234100                    SZN     LINKDEV_EXISTS,,AUTO
         4 000457   000421 605000 4                  TPL     s:15936

     1494    15944    3            IF NOT LINKDEV_EXISTS THEN DO;

  15944  4 000460   200022 234100                    SZN     LINKDEV_EXISTS,,AUTO
         4 000461   000500 604000 4                  TMI     s:15967

     1495    15945        /*E*  ERROR:  ASR-E$LINKDEV_NOEXIST-C
     1496    15946              MESSAGE: Link device %U1 does not exist.
     1497    15947        */
     1498    15948    3               AS_FIELD1.COUNT = OUT$SYM.COUNT;

  15948  4 000462   200005 470500                    LDP0    BLK$,,AUTO
         4 000463   000004 236100                    LDQ     4,,PR0
         4 000464   000000 552040 xsym               STBQ    AS_FIELD1,'40'O

PL6.E3A0      #006=ASR$R_LINK_VIRCIR File=ASR$R_HLP.:E05TSI                      TUE 07/29/97 10:55 Page:267
     1499    15949    3               AS_FIELD1.TEXT = OUT$SYM.TEXT;

  15949  4 000465   000004 236100                    LDQ     4,,PR0
         4 000466   000033 772000                    QRL     27
         4 000467   000000 620006                    EAX0    0,QL
         4 000470   040000 100540                    MLR     fill='040'O
         4 000471   000004 200010                    ADSC9   4,,PR0                   cn=1,n=*X0
         4 000472   000000 200050 xsym               ADSC9   AS_FIELD1                cn=1,n=40

     1500    15950                    %SCREAM( ERR#=E$LINKDEV_NOEXIST, LEVEL=WARN, MID='R' );

  15960  4 000473   000017 630400 5                  EPPR0   15
         4 000474   000017 631400 xsym               EPPR1   B_VECTNIL+15
         4 000475   000000 701000 xent               TSX1    ASH$WARN
         4 000476   000000 011000                    NOP     0

     1501    15965    3               RETURN;

  15965  4 000477   000000 702200 xent               TSX2  ! X66_ARET

     1502    15966    3               END;
     1503    15967    2            CALL REMOVE_LINKDEV;

  15967  4 000500   000625 701000 4                  TSX1    REMOVE_LINKDEV
         4 000501   000000 011000                    NOP     0

     1504    15968    2            CALL ASB$WRITE_HLP( DSEG1$, ARS ) ALTRET( WRITE_LINK_ERR );

  15968  4 000502   200006 630500                    EPPR0   ARS,,AUTO
         4 000503   200035 450500                    STP0    LINK_NAME+7,,AUTO
         4 000504   000002 236000 5                  LDQ     2
         4 000505   200034 756100                    STQ     LINK_NAME+6,,AUTO
         4 000506   200034 630500                    EPPR0   LINK_NAME+6,,AUTO
         4 000507   000020 631400 xsym               EPPR1   B_VECTNIL+16
         4 000510   000000 701000 xent               TSX1    ASB$WRITE_HLP
         4 000511   000527 702000 4                  TSX2    DEL_ERR

PL6.E3A0      #006=ASR$R_LINK_VIRCIR File=ASR$R_HLP.:E05TSI                      TUE 07/29/97 10:55 Page:268
     1505    15969    2            END;

     1506    15970    1   EXIT#:
     1507    15971    1   CALL ASB$DEQ_HLP ALTRET( DEQ_ERR ) ;

  15971  4 000512   000002 631400 xsym  EXIT#        EPPR1   B_VECTNIL+2
         4 000513   000000 701000 xent               TSX1    ASB$DEQ_HLP
         4 000514   000533 702000 4                  TSX2    ENQ_ERR

     1508    15972                                                              /* All done */
     1509    15973    1   RETURN ;

  15973  4 000515   000000 702200 xent               TSX2  ! X66_ARET

  15960  4 000516                       NETCON_ERR   null
     1510    15974                                                              /*  Errors  */
     1511    15975    1   NETCON_ERR:;
     1512    15976    1   ERR_CODE = B$TCB$->B$TCB.ALT$->B$ALT.ERR;

  15976  4 000516   000000 470400 xsym               LDP0    B$TCB$
         4 000517   000000 471500                    LDP1    0,,PR0
         4 000520   100102 236100                    LDQ     66,,PR1
         4 000521   000000 756000 xsym               STQ     ERR_CODE

     1513    15977    1   CALL ASH$ERROR(ERR_CODE);

  15977  4 000522   000020 630400 5                  EPPR0   16
         4 000523   000017 631400 xsym               EPPR1   B_VECTNIL+15
         4 000524   000000 701000 xent               TSX1    ASH$ERROR
         4 000525   000000 011000                    NOP     0

     1514    15978    1   RETURN;

  15978  4 000526   000000 702200 xent               TSX2  ! X66_ARET

  15976  4 000527                       DEL_ERR      null
  15976  4 000527                       WRITE_LINK_* null
PL6.E3A0      #006=ASR$R_LINK_VIRCIR File=ASR$R_HLP.:E05TSI                      TUE 07/29/97 10:55 Page:269
     1515    15979
     1516    15980    1   DEL_ERR: ;
     1517    15981    1   WRITE_LINK_ERR: ;
     1518    15982    1   CALL ASH$ERROR( ERR_CODE );

  15982  4 000527   000020 630400 5                  EPPR0   16
         4 000530   000017 631400 xsym               EPPR1   B_VECTNIL+15
         4 000531   000000 701000 xent               TSX1    ASH$ERROR
         4 000532   000000 011000                    NOP     0

  15976  4 000533                       ENQ_ERR      null
  15976  4 000533                       DEQ_ERR      null
     1519    15983    1   ENQ_ERR: ;
     1520    15984    1   DEQ_ERR: ;
     1521    15985    1   RETURN;

  15985  4 000533   000000 702200 xent               TSX2  ! X66_ARET

     1522    15986
     1523    15987        %EJECT;
PL6.E3A0      #006=ASR$R_LINK_VIRCIR File=ASR$R_HLP.:E05TSI                      TUE 07/29/97 10:55 Page:270
     1524    15988    1   REMOVE_VIRCIR: PROC;

  15988  4 000534   200032 741300       REMOVE_VIRC* STX1  ! LINK_NAME+4,,AUTO

     1525    15989
     1526    15990
     1527    15991        /*E*  ERROR:  ASR-E$VIR_CIR_REMOVED-C
     1528    15992              MESSAGE:.... Virtual circuit %U1 for link %U2 removed.
     1529    15993        */
     1530    15994    2   VIRCIR# = KL$LNKVC.VIRCIR#;

  15994  4 000535   200004 470500                    LDP0    DEV$,,AUTO
         4 000536   000012 236100                    LDQ     10,,PR0
         4 000537   777777 376007                    ANQ     -1,DL
         4 000540   200012 756100                    STQ     VIRCIR#,,AUTO

     1531    15995        %NUMBER( NUM1=VIRCIR# );
             16003    2         CALL ASB$BINCHAR( AS_FIELD1.TEXT, 0, -1, VIRCIR# );

  16003  4 000541   200012 631500                    EPPR1   VIRCIR#,,AUTO
         4 000542   200037 451500                    STP1    LINK_NAME+9,,AUTO
         4 000543   000021 236000 5                  LDQ     17
         4 000544   200036 756100                    STQ     LINK_NAME+8,,AUTO
         4 000545   000022 237000 5                  LDAQ    18
         4 000546   200034 757100                    STAQ    LINK_NAME+6,,AUTO
         4 000547   200034 630500                    EPPR0   LINK_NAME+6,,AUTO
         4 000550   000022 631400 xsym               EPPR1   B_VECTNIL+18
         4 000551   000000 701000 xent               TSX1    ASB$BINCHAR
         4 000552   000000 011000                    NOP     0

     1532    16025    2   AS_FIELD2 = LINK_NAME;

  16025  4 000553   000000 100500                    MLR     fill='000'O
         4 000554   200026 000011                    ADSC9   LINK_NAME,,AUTO          cn=0,n=9
         4 000555   000000 000051 xsym               ADSC9   AS_FIELD2                cn=0,n=41

     1533    16026
PL6.E3A0      #006=ASR$R_LINK_VIRCIR File=ASR$R_HLP.:E05TSI                      TUE 07/29/97 10:55 Page:271
     1534    16027
     1535    16028    3   IF NOT LINK THEN DO;

  16028  4 000556   200017 234100                    SZN     LINK,,AUTO
         4 000557   000617 604000 4                  TMI     s:16045

     1536    16029    3      PTR$ = PINCRW(DEV$, SIZEW(KL$LNKVC));

  16029  4 000560   200004 236100                    LDQ     DEV$,,AUTO
         4 000561   000014 036003                    ADLQ    12,DU
         4 000562   200003 756100                    STQ     PTR$,,AUTO

     1537    16030    3      MOVE_SIZE = POFFW(DEV_STOP$, PTR$)*4;

  16030  4 000563   200003 235100                    LDA     PTR$,,AUTO
         4 000564   000022 771000                    ARL     18
         4 000565   200034 755100                    STA     LINK_NAME+6,,AUTO
         4 000566   200016 236100                    LDQ     DEV_STOP$,,AUTO
         4 000567   000022 772000                    QRL     18
         4 000570   200034 136100                    SBLQ    LINK_NAME+6,,AUTO
         4 000571   000002 736000                    QLS     2
         4 000572   200011 756100                    STQ     MOVE_SIZE,,AUTO

     1538    16031    3      KL$DREC.NWINFO = KL$DREC.NWINFO - SIZEW(KL$LNKVC);

  16031  4 000573   000000 470400 xsym               LDP0    DSEG1$
         4 000574   000017 235100                    LDA     15,,PR0
         4 000575   000014 135007                    SBLA    12,DL
         4 000576   000017 755100                    STA     15,,PR0

     1539    16032    3      KL$DREC.LNK.BLKHDR.NSUBS = KL$DREC.LNK.BLKHDR.NSUBS - 1;

  16032  4 000577   000020 236100                    LDQ     16,,PR0
         4 000600   000777 036003                    ADLQ    511,DU
         4 000601   000020 552120                    STBQ    16,'20'O,PR0

     1540    16033    3      ARS = LENGTHC(KL_DREC_CNT) + KL$DREC.NWINFO*4;
PL6.E3A0      #006=ASR$R_LINK_VIRCIR File=ASR$R_HLP.:E05TSI                      TUE 07/29/97 10:55 Page:272

  16033  4 000602   000017 235100                    LDA     15,,PR0
         4 000603   000002 735000                    ALS     2
         4 000604   000100 035007                    ADLA    64,DL
         4 000605   200006 755100                    STA     ARS,,AUTO

     1541    16034    3      IF MOVE_SIZE > 0 THEN

  16034  4 000606   200011 236100                    LDQ     MOVE_SIZE,,AUTO
         4 000607   000617 600000 4                  TZE     s:16045

     1542    16035    3         DEV$->MOVE$TEMP = PTR$->MOVE$TEMP;

  16035  4 000610   200003 471500                    LDP1    PTR$,,AUTO
         4 000611   000000 620006                    EAX0    0,QL
         4 000612   200004 473500                    LDP3    DEV$,,AUTO
         4 000613   200011 721100                    LXL1    MOVE_SIZE,,AUTO
         4 000614   040140 100540                    MLR     fill='040'O
         4 000615   100000 000010                    ADSC9   0,,PR1                   cn=0,n=*X0
         4 000616   300000 000011                    ADSC9   0,,PR3                   cn=0,n=*X1

     1543    16036    3      END;

     1544    16037        %SCREAM( ERR#=E$VIR_CIR_REMOVED, LEVEL=INFO, MID='R' );

  16045  4 000617   000024 630400 5                  EPPR0   20
         4 000620   000017 631400 xsym               EPPR1   B_VECTNIL+15
         4 000621   000000 701000 xent               TSX1    ASH$INFO
         4 000622   000000 011000                    NOP     0

     1545    16052    2   END REMOVE_VIRCIR;

  16052  4 000623   200032 221300                    LDX1  ! LINK_NAME+4,,AUTO
         4 000624   000001 702211                    TSX2  ! 1,X1

     1546    16053
     1547    16054        %EJECT;
PL6.E3A0      #006=ASR$R_LINK_VIRCIR File=ASR$R_HLP.:E05TSI                      TUE 07/29/97 10:55 Page:273
     1548    16055    1   REMOVE_LINKDEV: PROC;

  16055  4 000625   200032 741300       REMOVE_LINK* STX1  ! LINK_NAME+4,,AUTO

     1549    16056
     1550    16057
     1551    16058        /*E*  ERROR:  ASR-E$LINKDEV_REMOVED-C
     1552    16059              MESSAGE:.... Link device %U1 for link %U2 removed.
     1553    16060        */
     1554    16061    2   AS_FIELD1.COUNT = SIZEC(KL$LINKDEV.LOGON#);

  16061  4 000626   010000 236003                    LDQ     4096,DU
         4 000627   000000 552040 xsym               STBQ    AS_FIELD1,'40'O

     1555    16062    2   AS_FIELD1.TEXT = KL$LINKDEV.LOGON#;

  16062  4 000630   200004 470500                    LDP0    DEV$,,AUTO
         4 000631   040000 100500                    MLR     fill='040'O
         4 000632   000004 000010                    ADSC9   4,,PR0                   cn=0,n=8
         4 000633   000000 200050 xsym               ADSC9   AS_FIELD1                cn=1,n=40

     1556    16063    2   AS_FIELD2 = LINK_NAME;

  16063  4 000634   000000 100500                    MLR     fill='000'O
         4 000635   200026 000011                    ADSC9   LINK_NAME,,AUTO          cn=0,n=9
         4 000636   000000 000051 xsym               ADSC9   AS_FIELD2                cn=0,n=41

     1557    16064
     1558    16065
     1559    16066    3   IF NOT LINK THEN DO;

  16066  4 000637   200017 234100                    SZN     LINK,,AUTO
         4 000640   000677 604000 4                  TMI     s:16083

     1560    16067    3      PTR$ = PINCRW(DEV$, SIZEW(KL$LINKDEV));

  16067  4 000641   200004 236100                    LDQ     DEV$,,AUTO
PL6.E3A0      #006=ASR$R_LINK_VIRCIR File=ASR$R_HLP.:E05TSI                      TUE 07/29/97 10:55 Page:274
         4 000642   000006 036003                    ADLQ    6,DU
         4 000643   200003 756100                    STQ     PTR$,,AUTO

     1561    16068    3      MOVE_SIZE = POFFW(DEV_STOP$, PTR$)*4;

  16068  4 000644   200003 235100                    LDA     PTR$,,AUTO
         4 000645   000022 771000                    ARL     18
         4 000646   200034 755100                    STA     LINK_NAME+6,,AUTO
         4 000647   200016 236100                    LDQ     DEV_STOP$,,AUTO
         4 000650   000022 772000                    QRL     18
         4 000651   200034 136100                    SBLQ    LINK_NAME+6,,AUTO
         4 000652   000002 736000                    QLS     2
         4 000653   200011 756100                    STQ     MOVE_SIZE,,AUTO

     1562    16069    3      KL$DREC.NWINFO = KL$DREC.NWINFO - SIZEW(KL$LINKDEV);

  16069  4 000654   000000 471400 xsym               LDP1    DSEG1$
         4 000655   100017 235100                    LDA     15,,PR1
         4 000656   000006 135007                    SBLA    6,DL
         4 000657   100017 755100                    STA     15,,PR1

     1563    16070    3      KL$DREC.LNK.BLKHDR.NSUBS = KL$DREC.LNK.BLKHDR.NSUBS - 1;

  16070  4 000660   100020 236100                    LDQ     16,,PR1
         4 000661   000777 036003                    ADLQ    511,DU
         4 000662   100020 552120                    STBQ    16,'20'O,PR1

     1564    16071    3      ARS = LENGTHC(KL_DREC_CNT) + KL$DREC.NWINFO*4;

  16071  4 000663   100017 235100                    LDA     15,,PR1
         4 000664   000002 735000                    ALS     2
         4 000665   000100 035007                    ADLA    64,DL
         4 000666   200006 755100                    STA     ARS,,AUTO

     1565    16072    3      IF MOVE_SIZE > 0 THEN

  16072  4 000667   200011 236100                    LDQ     MOVE_SIZE,,AUTO
PL6.E3A0      #006=ASR$R_LINK_VIRCIR File=ASR$R_HLP.:E05TSI                      TUE 07/29/97 10:55 Page:275
         4 000670   000677 600000 4                  TZE     s:16083

     1566    16073    3         DEV$->MOVE$TEMP = PTR$->MOVE$TEMP;

  16073  4 000671   200003 473500                    LDP3    PTR$,,AUTO
         4 000672   000000 620006                    EAX0    0,QL
         4 000673   200011 721100                    LXL1    MOVE_SIZE,,AUTO
         4 000674   040140 100540                    MLR     fill='040'O
         4 000675   300000 000010                    ADSC9   0,,PR3                   cn=0,n=*X0
         4 000676   000000 000011                    ADSC9   0,,PR0                   cn=0,n=*X1

     1567    16074    3      END;

     1568    16075        %SCREAM( ERR#=E$LINKDEV_REMOVED, LEVEL=INFO, MID='R' );

  16083  4 000677   000025 630400 5                  EPPR0   21
         4 000700   000017 631400 xsym               EPPR1   B_VECTNIL+15
         4 000701   000000 701000 xent               TSX1    ASH$INFO
         4 000702   000000 011000                    NOP     0

     1569    16090    2   END REMOVE_LINKDEV;

  16090  4 000703   200032 221300                    LDX1  ! LINK_NAME+4,,AUTO
         4 000704   000001 702211                    TSX2  ! 1,X1
     1570    16091
     1571    16092    1   END ASR$R_LINK_VIRCIR;
     1572    16093        %EOD ;

PL6.E3A0      #006=ASR$R_LINK_VIRCIR File=ASR$R_HLP.:E05TSI                      TUE 07/29/97 10:55 Page:276
--  Include file information  --

   AS_SUPER_R.:E05TOU  cannot be made into a system file and is referenced.
   XU_FORMAT_C.:E05TOU  is referenced.
   XU_MACRO_C.:E05TOU  is referenced.
   KL_SUPER_C.:E05TOU  is referenced.
   AS_MAC_C.:E05TOU  cannot be made into a system file and is referenced.
   AS_SUBS_C.:E05TOU  is referenced.
   AS_SUPER_C.:E05TOU  is referenced.
   AS_ENTRIES_M.:E05TOU  is referenced.
   B_ERRORS_C.:E05TOU  is referenced.
   KL_CONFIG_M.:E05TOU  is referenced.
   AS_PERR_C.:E05TOU  is referenced.
   CP_6.:E05TOU  cannot be made into a system file and is referenced.
   B$JIT_C.:E05TOU  was found in the system file and is never referenced.
   CP_6_C.:E05TOU  was found in the system file and is referenced.
      No diagnostics issued in procedure ASR$R_LINK_VIRCIR.
PL6.E3A0      #006=ASR$R_LINK_VIRCIR File=ASR$R_HLP.:E05TSI                      TUE 07/29/97 10:55 Page:277

 **** Variables and constants ****

  ****  Section 002  Data  ASR$R_LINK_VIRCIR

  ****  Scalars and arrays  ****
OctLoc.c.b A Datatyp(siz) R M Lvl/name                 OctLoc.c.b A Datatyp(siz) R M Lvl/name

     3-0-0/w STRC(162)   r     1 KL_TERM_KEY                0-0-0/w STRC(90)    r     1 LINK_KEY

  ****  Auto variables  ****

  ****  Scalars and arrays  ****
OctLoc.c.b A Datatyp(siz) R M Lvl/name                 OctLoc.c.b A Datatyp(siz) R M Lvl/name

     6-0-0/w UBIN        r     1 ARS                        5-0-0/w PTR         r     1 BLK$
     4-0-0/w PTR         r     1 DEV$                      13-0-0/w UBIN        r     1 DEV_SIZEW
    15-0-0/w PTR         r     1 DEV_START$                16-0-0/w PTR         r     1 DEV_STOP$
    17-0-0/b BIT         r     1 LINK                      21-0-0/b BIT         r     1 LINKDEV
    22-0-0/b BIT         r     1 LINKDEV_EXISTS            26-0-0/c STRC(81)    r     1 LINK_NAME
    11-0-0/w UBIN        r     1 MOVE_SIZE                  3-0-0/w PTR         r     1 PTR$
    20-0-0/b BIT         r     1 VIRCIR                    12-0-0/w UBIN        r     1 VIRCIR#
    23-0-0/b BIT         r     1 VIRCIR_EXISTS             14-0-0/w UBIN        r     1 VIRCIR_INDEX

  ****  SYMREF variables  ****

  ****  Scalars and arrays  ****
OctLoc.c.b A Datatyp(siz) R M Lvl/name                 OctLoc.c.b A Datatyp(siz) R M Lvl/name

     0-0-0/b BIT         r     1 AS_FALSE                   0-0-0/w STRC(369)   r     1 AS_FIELD1
     0-0-0/w STRC(369)   r     1 AS_FIELD2                  0-0-0/b BIT         r     1 AS_TRUE
     0-0-0/w PTR         r     1 B$TCB$                     0-0-0/w PTR         r     1 DSEG1$
     0-0-0/w UBIN        r     1 DSEG1SIZE                  0-0-0/b BIT         r     1 DSEG_FLG
     0-0-0/b STRC        r     1 ERR_CODE                   0-0-0/w STRC(576)   r     1 KL_DREC_CNT
     0-0-0/b STRC        r     1 MERR_CODE                  0-0-0/w PTR         r     1 NODE$
     0-0-0/c STRC(378)   r     1 USERS_KEY

  ****  BASED and DCB variables  ****
PL6.E3A0      #006=ASR$R_LINK_VIRCIR File=ASR$R_HLP.:E05TSI                      TUE 07/29/97 10:55 Page:278

  ****  Scalars and arrays  ****
OctLoc.c.b A Datatyp(siz) R M Lvl/name                 OctLoc.c.b A Datatyp(siz) R M Lvl/name

     0-0-0/w STRC(2448)  r     1 B$ALT                      0-0-0/w STRC(144)   r     1 B$TCB
     0-0-0/w STRC(1008)  r     1 KL$DREC                    0-0-0/c STRC(216)   r     1 KL$LINKDEV
     0-0-0/w STRC(432)   r     1 KL$LNKVC                   0-0-0/c ACHR        r     1 MOVE$TEMP
     0-0-0/w ASTR(153)   r     1 OUT$SYM                    0-0-0/w STRC(144)   r     1 P$NODE


   Procedure ASR$R_LINK_VIRCIR requires 453 words for executable code.
   Procedure ASR$R_LINK_VIRCIR requires 32 words of local(AUTO) storage.
PL6.E3A0      #006=ASR$R_LINK_VIRCIR File=ASR$R_HLP.:E05TSI                      TUE 07/29/97 10:55 Page:279
          *** CROSS REFERENCE LISTING ***
**     DENOTES     IDENTIFIER DEFINITION
<<                 IDENTIFIER'S VALUE SET
>>                 IDENTIFIER'S VALUE USED
<>                 IDENTIFIER SET AND/OR USED
--                 IDENTIFIER REFERENCED
PL6.E3A0      #006=ASR$R_LINK_VIRCIR File=ASR$R_HLP.:E05TSI                      TUE 07/29/97 10:55 Page:280
          MINI XREF LISTING

ARS
     14762**DCL     15769<<ASSIGN  15770<>CALL    15928<>CALL    15968<>CALL    16033<<ASSIGN  16071<<ASSIGN
ASA$ERROR
     14873**DCL-ENT 15794--CALL
ASA_BRKS_LOC
     11901**DCL     11901--REDEF
ASB$BINCHAR
      5565**DCL-ENT 16003--CALL
ASB$CLOSE_NETCON
     14879**DCL-ENT 15865--CALL
ASB$DELREC_HLP
     14843**DCL-ENT 15837--CALL
ASB$DELREC_NETCON
     14876**DCL-ENT 15858--CALL
ASB$DEQ_HLP
     14855**DCL-ENT 15971--CALL
ASB$ENQ_HLP
     14852**DCL-ENT 15766--CALL
ASB$GETSEG
     14846**DCL-ENT 15738--CALL
ASB$READ_HLP
     14867**DCL-ENT 15770--CALL
ASB$WRITE_HLP
     14870**DCL-ENT 15928--CALL    15968--CALL
ASH$ERROR
     14858**DCL-ENT 15752--CALL    15815--CALL    15888--CALL    15977--CALL    15982--CALL
ASH$INFO
     14864**DCL-ENT 15850--CALL    16045--CALL    16083--CALL
ASH$WARN
     14861**DCL-ENT 15787--CALL    15920--CALL    15960--CALL
AS_DEFAULT.BANNER_PERM
     12594**DCL     12595--REDEF
PL6.E3A0      #006=ASR$R_LINK_VIRCIR File=ASR$R_HLP.:E05TSI                      TUE 07/29/97 10:55 Page:281
AS_DEFAULT.BUDGET.MACCT
     12499**DCL     12503--REDEF
AS_DEFAULT.BUDGET.MAX_PROJECTS
     12512**DCL     12515--REDEF
AS_DEFAULT.BUDGET.PACCUM
     12495**DCL     12497--REDEF
AS_DEFAULT.BUDGET.PMAXC
     12490**DCL     12492--REDEF
AS_DEFAULT.SETUP_CHRA.TXT
     12610**DCL     12611--REDEF   12612--REDEF
AS_DEFAULT_DREC.PASSWORD
     13864**DCL     13868--REDEF
AS_DEFAULT_DREC.RENAME
     13887**DCL     13888--REDEF
AS_DFLT.BANNER_PERM
     12416**DCL     12417--REDEF
AS_DFLT.BUDGET.MACCT
     12321**DCL     12325--REDEF
AS_DFLT.BUDGET.MAX_PROJECTS
     12334**DCL     12337--REDEF
AS_DFLT.BUDGET.PACCUM
     12317**DCL     12319--REDEF
AS_DFLT.BUDGET.PMAXC
     12312**DCL     12314--REDEF
AS_DFLT.SETUP_CHRA.TXT
     12432**DCL     12433--REDEF   12434--REDEF
AS_FALSE
     11761**DCL     15894>>ASSIGN  15934>>ASSIGN
AS_FE_MODE
     11767**DCL     11768--REDEF
AS_FIELD1
     11897**DCL     15776<<ASSIGN  15802<<ASSIGN  15841<<ASSIGN
AS_FIELD1.COUNT
     11898**DCL     15908<<ASSIGN  15948<<ASSIGN  16061<<ASSIGN
AS_FIELD1.TEXT
     11898**DCL     15909<<ASSIGN  15949<<ASSIGN  16003<>CALL    16062<<ASSIGN
PL6.E3A0      #006=ASR$R_LINK_VIRCIR File=ASR$R_HLP.:E05TSI                      TUE 07/29/97 10:55 Page:282
AS_FIELD2
     11898**DCL     16025<<ASSIGN  16063<<ASSIGN
AS_MODE
     11764**DCL     11766--REDEF
AS_MOD_USER.ACCESS
     14629**DCL     14630--REDEF
AS_MOD_USER.BANNER
     14616**DCL     14617--REDEF
AS_MOD_USER.BANNER_PERM
     14618**DCL     14619--REDEF
AS_MOD_USER.BILL
     14624**DCL     14625--REDEF
AS_MOD_USER.CPROC
     14620**DCL     14621--REDEF
AS_MOD_USER.FEBILL
     14700**DCL     14701--REDEF
AS_MOD_USER.FECXTMEM
     14717**DCL     14718--REDEF
AS_MOD_USER.FEMINTS
     14702**DCL     14703--REDEF
AS_MOD_USER.FEMMEM
     14713**DCL     14714--REDEF
AS_MOD_USER.FEMTIME
     14711**DCL     14712--REDEF
AS_MOD_USER.FEPPRIV
     14708**DCL     14710--REDEF
AS_MOD_USER.FEPRIV
     14705**DCL     14707--REDEF
AS_MOD_USER.FORCE_BIT
     14614**DCL     14615--REDEF
AS_MOD_USER.KEY
     14696**DCL     14698--REDEF
AS_MOD_USER.LASTCPROC
     14622**DCL     14623--REDEF
AS_MOD_USER.LIMITS.DO_
     14670**DCL     14671--REDEF
PL6.E3A0      #006=ASR$R_LINK_VIRCIR File=ASR$R_HLP.:E05TSI                      TUE 07/29/97 10:55 Page:283
AS_MOD_USER.LIMITS.FPOOLS
     14686**DCL     14687--REDEF
AS_MOD_USER.LIMITS.LO
     14666**DCL     14667--REDEF
AS_MOD_USER.LIMITS.MEM
     14662**DCL     14663--REDEF
AS_MOD_USER.LIMITS.MPRIO
     14690**DCL     14691--REDEF
AS_MOD_USER.LIMITS.PDIS
     14678**DCL     14679--REDEF
AS_MOD_USER.LIMITS.PO
     14674**DCL     14675--REDEF
AS_MOD_USER.LIMITS.TDIS
     14682**DCL     14683--REDEF
AS_MOD_USER.LIMITS.TIME
     14658**DCL     14659--REDEF
AS_MOD_USER.MAXENQ
     14639**DCL     14640--REDEF
AS_MOD_USER.PERM_BIT
     14612**DCL     14613--REDEF
AS_MOD_USER.PPRIV
     14634**DCL     14636--REDEF
AS_MOD_USER.PRIOB
     14641**DCL     14642--REDEF
AS_MOD_USER.PRIV
     14631**DCL     14633--REDEF
AS_MOD_USER.QUAN
     14637**DCL     14638--REDEF
AS_MOD_USER.SETUP
     14610**DCL     14611--REDEF
AS_PROJECT.BANNER_PERM
     12950**DCL     12951--REDEF
AS_PROJECT.BUDGET.MACCT
     12855**DCL     12859--REDEF
AS_PROJECT.BUDGET.MAX_PROJECTS
     12868**DCL     12871--REDEF
PL6.E3A0      #006=ASR$R_LINK_VIRCIR File=ASR$R_HLP.:E05TSI                      TUE 07/29/97 10:55 Page:284
AS_PROJECT.BUDGET.PACCUM
     12851**DCL     12853--REDEF
AS_PROJECT.BUDGET.PMAXC
     12846**DCL     12848--REDEF
AS_PROJECT.SETUP_CHRA.TXT
     12966**DCL     12967--REDEF   12968--REDEF
AS_PROJECT_DFLT.BANNER_PERM
     13128**DCL     13129--REDEF
AS_PROJECT_DFLT.BUDGET.MACCT
     13033**DCL     13037--REDEF
AS_PROJECT_DFLT.BUDGET.MAX_PROJECTS
     13046**DCL     13049--REDEF
AS_PROJECT_DFLT.BUDGET.PACCUM
     13029**DCL     13031--REDEF
AS_PROJECT_DFLT.BUDGET.PMAXC
     13024**DCL     13026--REDEF
AS_PROJECT_DFLT.SETUP_CHRA.TXT
     13144**DCL     13145--REDEF   13146--REDEF
AS_PROJECT_DFLT_DREC.PASSWORD
     14350**DCL     14354--REDEF
AS_PROJECT_DFLT_DREC.RENAME
     14373**DCL     14374--REDEF
AS_PROJECT_DREC.PASSWORD
     14188**DCL     14192--REDEF
AS_PROJECT_DREC.RENAME
     14211**DCL     14212--REDEF
AS_PROJ_ADMIN.BANNER_PERM
     12772**DCL     12773--REDEF
AS_PROJ_ADMIN.BUDGET.MACCT
     12677**DCL     12681--REDEF
AS_PROJ_ADMIN.BUDGET.MAX_PROJECTS
     12690**DCL     12693--REDEF
AS_PROJ_ADMIN.BUDGET.PACCUM
     12673**DCL     12675--REDEF
AS_PROJ_ADMIN.BUDGET.PMAXC
     12668**DCL     12670--REDEF
PL6.E3A0      #006=ASR$R_LINK_VIRCIR File=ASR$R_HLP.:E05TSI                      TUE 07/29/97 10:55 Page:285
AS_PROJ_ADMIN.SETUP_CHRA.TXT
     12788**DCL     12789--REDEF   12790--REDEF
AS_PROJ_ADMIN_DREC.PASSWORD
     14026**DCL     14030--REDEF
AS_PROJ_ADMIN_DREC.RENAME
     14049**DCL     14050--REDEF
AS_TRUE
     11761**DCL     15898>>ASSIGN  15938>>ASSIGN
AS_USERS.BANNER_PERM
     12238**DCL     12239--REDEF
AS_USERS.BUDGET.MACCT
     12143**DCL     12147--REDEF
AS_USERS.BUDGET.MAX_PROJECTS
     12156**DCL     12159--REDEF
AS_USERS.BUDGET.PACCUM
     12139**DCL     12141--REDEF
AS_USERS.BUDGET.PMAXC
     12134**DCL     12136--REDEF
AS_USERS.SETUP_CHRA.TXT
     12254**DCL     12255--REDEF   12256--REDEF
AS_USERS_CONSTANT.BANNER_PERM
     13306**DCL     13307--REDEF
AS_USERS_CONSTANT.BUDGET.MACCT
     13211**DCL     13215--REDEF
AS_USERS_CONSTANT.BUDGET.MAX_PROJECTS
     13224**DCL     13227--REDEF
AS_USERS_CONSTANT.BUDGET.PACCUM
     13207**DCL     13209--REDEF
AS_USERS_CONSTANT.BUDGET.PMAXC
     13202**DCL     13204--REDEF
AS_USERS_CONSTANT.SETUP_CHRA.TXT
     13322**DCL     13323--REDEF   13324--REDEF
B$ALT.CODE
     15720**DCL     15720--REDEF   15721--REDEF   15721--REDEF
B$ALT.ERR
     15721**DCL     15976>>ASSIGN
PL6.E3A0      #006=ASR$R_LINK_VIRCIR File=ASR$R_HLP.:E05TSI                      TUE 07/29/97 10:55 Page:286
B$ALT.ERR.ERR#
     15722**DCL     15722--REDEF
B$ALT.EVID
     15721**DCL     15721--REDEF   15721--REDEF
B$TCB.ALT$
     15716**DCL     15976>>ASSIGN
B$TCB$
     15714**DCL     15976>>ASSIGN
BLK$
     14761**DCL     14940--IMP-PTR 15759<<ASSIGN  15761<<ASSIGN  15762>>ASSIGN  15763>>ASSIGN  15763>>ASSIGN
     15764>>ASSIGN  15764>>ASSIGN  15869<<ASSIGN  15870>>CALLBLT 15870>>CALLBLT 15908>>ASSIGN  15909>>ASSIGN
     15909>>ASSIGN  15932<<ASSIGN  15937>>IF      15937>>IF      15948>>ASSIGN  15949>>ASSIGN  15949>>ASSIGN
DEL_ERR
     15976**LABEL   15837--CALLALT
DEQ_ERR
     15976**LABEL   15971--CALLALT
DEV$
     14760**DCL     15330--IMP-PTR 15558--IMP-PTR 15823<<ASSIGN  15827>>IF      15829<<ASSIGN  15829>>ASSIGN
     15833<<ASSIGN  15833>>ASSIGN  15895>>DOWHILE 15896>>IF      15897>>IF      15900<<ASSIGN  15900>>ASSIGN
     15902<<ASSIGN  15902>>ASSIGN  15935>>DOWHILE 15936>>IF      15937>>IF      15940<<ASSIGN  15940>>ASSIGN
     15942<<ASSIGN  15942>>ASSIGN  15994>>ASSIGN  16029>>ASSIGN  16035>>ASSIGN  16062>>ASSIGN  16067>>ASSIGN
     16073>>ASSIGN
DEV_SIZEW
     14767**DCL     15821<<ASSIGN  15822>>ASSIGN
DEV_START$
     14769**DCL     15820<<ASSIGN  15821>>ASSIGN  15822>>ASSIGN  15823>>ASSIGN
DEV_STOP$
     14770**DCL     15822<<ASSIGN  15895>>DOWHILE 15935>>DOWHILE 16030>>ASSIGN  16068>>ASSIGN
DSEG1$
     11902**DCL     14986--IMP-PTR 15770<>CALL    15798>>IF      15820>>ASSIGN  15821>>ASSIGN  15821>>ASSIGN
     15826>>DOWHILE 15928<>CALL    15968<>CALL    16031>>ASSIGN  16031>>ASSIGN  16032>>ASSIGN  16032>>ASSIGN
     16033>>ASSIGN  16069>>ASSIGN  16069>>ASSIGN  16070>>ASSIGN  16070>>ASSIGN  16071>>ASSIGN
DSEG1SIZE
     11903**DCL     15769>>ASSIGN
DSEG_FLG
     11902**DCL     15737>>IF
PL6.E3A0      #006=ASR$R_LINK_VIRCIR File=ASR$R_HLP.:E05TSI                      TUE 07/29/97 10:55 Page:287
ENQ_ERR
     15976**LABEL   15766--CALLALT
ERR_CODE
     11896**DCL     11897--REDEF   15976<<ASSIGN  15977<>CALL    15982<>CALL
KL$DREC.ATYP
     14991**DCL     15798>>IF
KL$DREC.LNK
     15108**DCL     15820--ASSIGN  15820--ASSIGN  15821--ASSIGN
KL$DREC.LNK.BLKHDR.NSUBS
     15139**DCL     15826>>DOWHILE 16032<<ASSIGN  16032>>ASSIGN  16070<<ASSIGN  16070>>ASSIGN
KL$DREC.NWINFO
     15084**DCL     15821>>ASSIGN  16031<<ASSIGN  16031>>ASSIGN  16033>>ASSIGN  16069<<ASSIGN  16069>>ASSIGN
     16071>>ASSIGN
KL$DREC.PASSWORD
     15044**DCL     15048--REDEF
KL$DREC.RENAME
     15067**DCL     15068--REDEF
KL$LINKDEV
     15558**DCL     15833--ASSIGN  15902--ASSIGN  15940--ASSIGN  16067--ASSIGN  16069--ASSIGN
KL$LINKDEV.BLKHDR.BLKTYP
     15620**DCL     15936>>IF
KL$LINKDEV.LOGON#
     15710**DCL     15937>>IF      16061--ASSIGN  16062>>ASSIGN
KL$LNKVC
     15330**DCL     15829--ASSIGN  15900--ASSIGN  15942--ASSIGN  16029--ASSIGN  16031--ASSIGN
KL$LNKVC.BLKHDR.BLKTYP
     15376**DCL     15827>>IF      15896>>IF
KL$LNKVC.CUG
     15429**DCL     15473--REDEF
KL$LNKVC.VIRCIR#
     15521**DCL     15897>>IF      15994>>ASSIGN
KL_DEFAULT.PASSWORD
     14512**DCL     14516--REDEF
KL_DEFAULT.RENAME
     14535**DCL     14536--REDEF
KL_DFLT.PASSWORD
PL6.E3A0      #006=ASR$R_LINK_VIRCIR File=ASR$R_HLP.:E05TSI                      TUE 07/29/97 10:55 Page:288
     13702**DCL     13706--REDEF
KL_DFLT.RENAME
     13725**DCL     13726--REDEF
KL_DREC.PASSWORD
     13540**DCL     13544--REDEF
KL_DREC.RENAME
     13563**DCL     13564--REDEF
KL_DREC_CNT
     13369**DCL     16033--ASSIGN  16071--ASSIGN
KL_DREC_CNT.PASSWORD
     13427**DCL     13431--REDEF
KL_DREC_CNT.RENAME
     13450**DCL     13451--REDEF
KL_TERM_KEY
     14804**DCL     15858--CALL
KL_TERM_KEY.TERMID.TERM
     14825**DCL     14834--REDEF
KL_TERM_KEY.TERMID.TERM.TERM_NAME
     14834**DCL     15857<<ASSIGN
LINK
     14771**DCL     15733<<ASSIGN  15758>>IF      15824>>IF      16028>>IF      16066>>IF
LINKDEV
     14773**DCL     15735<<ASSIGN  15930>>IF
LINKDEV_EXISTS
     14774**DCL     15934<<ASSIGN  15935>>DOWHILE 15938<<ASSIGN  15944>>IF
LINK_KEY
     14786**DCL     15765>>ASSIGN
LINK_KEY.TXT.LINK
     14789**DCL     15764<<ASSIGN
LINK_NAME
     14778**DCL     15776>>ASSIGN  15802>>ASSIGN  15841>>ASSIGN  16025>>ASSIGN  16063>>ASSIGN
LINK_NAME.COUNT
     14779**DCL     15762<<ASSIGN
LINK_NAME.TEXT
     14780**DCL     15763<<ASSIGN  15857>>ASSIGN
MERR_CODE.CODE
PL6.E3A0      #006=ASR$R_LINK_VIRCIR File=ASR$R_HLP.:E05TSI                      TUE 07/29/97 10:55 Page:289
     11897**DCL     15772>>IF      15860>>IF
MOVE$TEMP
     15712**DCL     16035<<ASSIGN  16035>>ASSIGN  16073<<ASSIGN  16073>>ASSIGN
MOVE_SIZE
     14765**DCL     15712--IMP-SIZ 16030<<ASSIGN  16034>>IF      16035>>ASSIGN  16035>>ASSIGN  16068<<ASSIGN
     16072>>IF      16073>>ASSIGN  16073>>ASSIGN
NETCON_ERR
     15960**LABEL   15862--GOTO    15865--CALLALT
NODE$
     11894**DCL     14893--IMP-PTR 15733>>ASSIGN  15734>>ASSIGN  15735>>ASSIGN  15759>>ASSIGN  15761>>ASSIGN
     15869>>ASSIGN  15932>>ASSIGN
OUT$SYM.COUNT
     14963**DCL     14966--IMP-SIZ 15762>>ASSIGN  15763>>ASSIGN  15764>>ASSIGN  15870>>CALLBLT 15908>>ASSIGN
     15909>>ASSIGN  15937>>IF      15948>>ASSIGN  15949>>ASSIGN
OUT$SYM.TEXT
     14966**DCL     15763>>ASSIGN  15764>>ASSIGN  15870>>CALLBLT 15909>>ASSIGN  15937>>IF      15949>>ASSIGN
P$NODE.CODE
     14901**DCL     15733>>ASSIGN  15734>>ASSIGN  15735>>ASSIGN
P$NODE.SUBLK$
     14926**DCL     15759>>ASSIGN  15759>>ASSIGN  15761>>ASSIGN  15761>>ASSIGN  15869>>ASSIGN  15932>>ASSIGN
     15932>>ASSIGN
PROJ_KEY.TEXT
     11774**DCL     11774--REDEF
PROJ_KEY.TXT.PROJECT
     11774**DCL     11774--REDEF
PTR$
     14759**DCL     16029<<ASSIGN  16030>>ASSIGN  16035>>ASSIGN  16067<<ASSIGN  16068>>ASSIGN  16073>>ASSIGN
REMEM_VAR
     11900**DCL     11900--REDEF
REMOVE_LINKDEV
     16055**PROC    15832--CALL    15967--CALL
REMOVE_VIRCIR
     15988**PROC    15828--CALL    15927--CALL
REM_FCMD
     11900**DCL     11901--REDEF
USERS_KEY
PL6.E3A0      #006=ASR$R_LINK_VIRCIR File=ASR$R_HLP.:E05TSI                      TUE 07/29/97 10:55 Page:290
     11771**DCL     15765<<ASSIGN  15794<>CALL
USERS_KEY.TEXT
     11771**DCL     11772--REDEF   11772--REDEF   11772--REDEF   11773--REDEF
VIRCIR
     14772**DCL     15734<<ASSIGN  15867>>IF
VIRCIR#
     14766**DCL     15870<<CALLBLT 15871>>IF      15897>>IF      15994<<ASSIGN  16003<>CALL
VIRCIR_EXISTS
     14775**DCL     15894<<ASSIGN  15895>>DOWHILE 15898<<ASSIGN  15904>>IF
VIRCIR_INDEX
     14768**DCL     15825<<ASSIGN  15826>>DOWHILE 15835<<ASSIGN  15835>>ASSIGN
WRITE_LINK_ERR
     15976**LABEL   15928--CALLALT 15968--CALLALT

