PL6.E3A0      #007=ASR$R_LINE_CONT File=ASR$R_HLP.:E05TSI                        TUE 07/29/97 10:56 Page:291
     1573        1        /*M* ASR$R_LINE_CONT - processes the REMOVE LINE/CONTROLLER command.  */
     1574        2        /*T***********************************************************/
     1575        3        /*T*                                                         */
     1576        4        /*T* Copyright (c) Bull HN Information Systems Inc., 1997    */
     1577        5        /*T*                                                         */
     1578        6        /*T***********************************************************/
     1579        7        /*X*  DMC,DMR,CCC,PLM=0,IND=3,CTI=5,DCI=6,IAD=0,DTI=0,IDT=0,ENI=3,
     1580        8              ECU=3,CSU=3,SDI=3                                           */
     1581        9                                                              /**/
     1582       10        ASR$R_LINE_CONT: PROC;
     1583       11                                                              /**/
     1584       12        /********************************************************************/
     1585       13        /*   Include files   include files   include files   include files   */
     1586       14        /*********************************************************************/
     1587       15                                                              /**/
     1588       16              %INCLUDE  CP_6 ;
     1589       97              %INCLUDE AS_PERR_C ;
     1590      699              %INCLUDE KL_CONFIG_M;
     1591     1461              %INCLUDE B_ERRORS_C;
     1592     2588              %INCLUDE  AS_ENTRIES_M;
     1593     3638              %INCLUDE  AS_SUPER_C ;
     1594     4073              %INCLUDE  AS_SUBS_C ;
     1595     5487              %INCLUDE  AS_MAC_C ;
     1596     5567              %INCLUDE  KL_SUPER_C ;
     1597     8469              %INCLUDE  XU_MACRO_C ;
     1598    11575              %INCLUDE  XU_FORMAT_C ;
     1599    11737              %INCLUDE  AS_SUPER_R ;
     1600    14753
     1601    14754
     1602    14755        /*********************************************************************/
     1603    14756        /*   Auto data       auto data       auto data       auto data       */
     1604    14757        /*********************************************************************/
     1605    14758                                                              /**/
     1606    14759    1   DCL PTR$ PTR ;
     1607    14760    1   DCL DEV$ PTR ;
     1608    14761    1   DCL CONT$ PTR;
     1609    14762    1   DCL TEMP$ PTR;
PL6.E3A0      #007=ASR$R_LINE_CONT File=ASR$R_HLP.:E05TSI                        TUE 07/29/97 10:56 Page:292
     1610    14763    1   DCL BLK$ PTR ;
     1611    14764    1   DCL ARS UBIN WORD ;
     1612    14765    1   DCL I UBIN WORD ;
     1613    14766    1   DCL J UBIN WORD ;
     1614    14767    1   DCL MOVE_SIZE UBIN WORD ;
     1615    14768    1   DCL CONT# UBIN WORD ;
     1616    14769    1   DCL DEV# UBIN WORD ;
     1617    14770    1   DCL DEV_SIZEW UBIN WORD ;
     1618    14771    1   DCL CONT_INDEX UBIN WORD ;
     1619    14772    1   DCL DEV_START$ PTR ;
     1620    14773    1   DCL DEV_STOP$ PTR ;
     1621    14774    1   DCL LINE        BIT(1) ;
     1622    14775    1   DCL CONTROLLER  BIT(1) ;
     1623    14776    1   DCL DEVICE      BIT(1) ;
     1624    14777    1   DCL CONT_EXISTS BIT(1) ;
     1625    14778    1   DCL FOUND       BIT(1) ;
     1626    14779    1   DCL DONE        BIT(1) ;
     1627    14780    1   DCL 1 LINE_NAME,
     1628    14781    1          2 COUNT UBIN BYTE UNAL,
     1629    14782    1          2 TEXT CHAR(8) UNAL;
     1630    14783
     1631    14784        /*********************************************************************/
     1632    14785        /*   Static data     static data     static data     static data     */
     1633    14786        /*********************************************************************/
     1634    14787                                                              /**/
     1635    14788    1   DCL 1 LINE_KEY ALIGNED STATIC ,
     1636    14789    1          2 CNT UBIN BYTE UNAL INIT( 9 ),
     1637    14790    1          2 TXT UNAL ,
     1638    14791    1             3 LINE CHAR(8) UNAL INIT(' ') ,
     1639    14792    1             3 ASTR CHAR(1) UNAL INIT('*') ;
     1640    14793        %KL$TERM_KEY (NAME=KL_TERM_KEY,STCLASS=STATIC);
     1641    14839
     1642    14840        /********************************************************************/
     1643    14841        /*   Entry dcls      entry dcls      entry dcls      entry dcls      */
     1644    14842        /*********************************************************************/
     1645    14843                                                              /**/
     1646    14844        %ASB$DELREC_HLP ;
PL6.E3A0      #007=ASR$R_LINE_CONT File=ASR$R_HLP.:E05TSI                        TUE 07/29/97 10:56 Page:293
     1647    14847        %ASB$GETSEG ;
     1648    14850        %ASB$GET_MORE_SEG ;
     1649    14853        %ASB$ENQ_HLP ;
     1650    14856        %ASB$DEQ_HLP ;
     1651    14859        %ASH$ERROR ;
     1652    14862        %ASH$WARN ;
     1653    14865        %ASH$INFO ;
     1654    14868        %ASB$READ_HLP ;
     1655    14871        %ASB$WRITE_HLP ;
     1656    14874        %ASB$DELREC_NETCON ;
     1657    14877        %ASB$CLOSE_NETCON ;
     1658    14880        %ASA$ERROR ;
     1659    14883
     1660    14884        /*********************************************************************/
     1661    14885        /*   Local based     local based     local based     local based     */
     1662    14886        /*********************************************************************/
     1663    14887                                                              /**/
     1664    14888        %PARSE$OUT( NAME=P$NODE, STCLASS="BASED(NODE$)",
     1665    14889                    NDTYPE=TYPE, NSUBLKS=SUBNODES) ;
     1666    14934        %PARSE$SYM( NAME = OUT$SYM ,
     1667    14935                    STCLASS="BASED(BLK$)") ;
     1668    14973        %KL_DREC ( NAME = KL$DREC ,
     1669    14974                   LAST=",",
     1670    14975                   STCLASS="BASED( DSEG1$ )");
     1671    15088        %KL_LN3270( NAME = LN,
     1672    15089                    LVL = 2,
     1673    15090                    STCLASS = BASED);
     1674    15232        %KL_CONTROLLER( NAME=KL$CONTROLLER,
     1675    15233                        LVL=1,
     1676    15234                        STCLASS="BASED(CONT$)" );
     1677    15383        %KL_LINEDEV( NAME = KL$LINEDEV,
     1678    15384                     STCLASS="BASED( DEV$ )") ;
     1679    15533    1   DCL MOVE$TEMP CHAR(MOVE_SIZE) BASED;
     1680    15534
     1681    15535    1   DCL B$TCB$ PTR SYMREF;
     1682    15536        %B$TCB;
     1683    15539        %B$ALT;
PL6.E3A0      #007=ASR$R_LINE_CONT File=ASR$R_HLP.:E05TSI                        TUE 07/29/97 10:56 Page:294
     1684    15547        /*********************************************************************/
     1685    15548        /*   Procedure       procedure       procedure       procedure       */
     1686    15549        /*********************************************************************/
     1687    15550                                                              /**/
     1688    15551        /*
     1689    15552            ***            Begin procedure                    ***
     1690    15553        */
     1691    15554    1   LINE = (P$NODE.CODE = R_LINE_VAL);
     1692    15555    1   CONTROLLER = (P$NODE.CODE = R_CONT_VAL);
     1693    15556    1   DEVICE = (P$NODE.CODE = R_LINE_DEV_VAL);
     1694    15557                                                              /* Get data seg. */
     1695    15558    1   IF NOT DSEG_FLG THEN
     1696    15559    1      CALL ASB$GETSEG
     1697    15560    2      WHENALTRETURN DO;
     1698    15561    2   GETSEG_ERR:
     1699    15562              %SCREAM( ERR#=%E$GETSEGERR , LEVEL=ERROR, MID='R' );
     1700    15577    2         RETURN ;
     1701    15578    2         END;  /*  Whenaltreturn from ASB$GETSEG  */
     1702    15579                                                              /* Get line name */
     1703    15580    1   IF LINE THEN
     1704    15581    1      BLK$ = P$NODE.SUBLK$(0) -> P$NODE.SUBLK$(0) ;
     1705    15582    1   ELSE
     1706    15583    1      BLK$ = P$NODE.SUBLK$(1) -> P$NODE.SUBLK$(0) ;
     1707    15584    2   IF OUT$SYM.COUNT > 8 THEN DO;
     1708    15585        /*E*  ERROR:    ASR-E$LNAMETOOBIG-C
     1709    15586              MESSAGE: Line name too long.
     1710    15587              MESSAGE1: Line names can be at most 8 characters.
     1711    15588        */
     1712    15589           %SCREAM( ERR#=E$LNAMETOOBIG, LEVEL=ERROR, MID='R' );
     1713    15604    2      RETURN ;
     1714    15605    2      END ; /* Then do */
     1715    15606    1   LINE_NAME.COUNT = OUT$SYM.COUNT;
     1716    15607    1   LINE_NAME.TEXT = OUT$SYM.TEXT ;
     1717    15608    1   LINE_KEY.TXT.LINE = OUT$SYM.TEXT ;
     1718    15609    1   USERS_KEY = LINE_KEY ;
     1719    15610    1   CALL ASB$ENQ_HLP ALTRET(ENQ_ERR);
     1720    15611                                                              /* Pick up line record */
PL6.E3A0      #007=ASR$R_LINE_CONT File=ASR$R_HLP.:E05TSI                        TUE 07/29/97 10:56 Page:295
     1721    15612    1   READ_LINE_REC:
     1722    15613    1   ARS = DSEG1SIZE ;
     1723    15614    1   CALL ASB$READ_HLP( DSEG1$, ARS, 1 ) ALTRET( READ_LINE_ERR ) ;
     1724    15615    2   IF KL$DREC.ATYP ~= %KLAT_LINE# THEN DO;
     1725    15616        /*E*  ERROR:    ASR-E$NOTLINE-C
     1726    15617              MESSAGE0: %%U1 %is not a line.
     1727    15618        */
     1728    15619    2      AS_FIELD1 = LINE_NAME;
     1729    15620           %SCREAM( ERR#=E$NOTLINE , LEVEL=ERROR, MID='R' );
     1730    15635    2      RETURN ;
     1731    15636    2      END ; /* Then do */
     1732    15637    1   DEV_START$ = PINCRW(ADDR(KL$DREC.LN), SIZEW(KL$DREC.LN) );
     1733    15638    1   DEV_SIZEW = KL$DREC.NWINFO - POFFW(DEV_START$,ADDR(KL$DREC.LN));
     1734    15639    1   DEV_STOP$ = PINCRW(DEV_START$, DEV_SIZEW);
     1735    15640    1   CONT$ = DEV_START$;
     1736    15641    2   IF LINE THEN DO;
     1737    15642        /*E*  ERROR:  ASR-E$LINE_REMOVED-C
     1738    15643              MESSAGE:.. Line %U1 removed.
     1739    15644        */
     1740    15645    2      AS_FIELD1 = LINE_NAME;
     1741    15646           %SCREAM( ERR#=E$LINE_REMOVED, LEVEL=INFO, MID='R' );
     1742    15661    3      DO WHILE( CONT$ < DEV_STOP$ ) ;
     1743    15662    3         CALL REMOVE_CONTROLLER;
     1744    15663    3         CONT_INDEX = KL$CONTROLLER.BLKHDR.NSUBS;
     1745    15664    3         CONT$ = PINCRW( CONT$, SIZEW(KL$CONTROLLER)+(CONT_INDEX*SIZEW(KL$LINEDEV)));
     1746    15665    3         END;  /*  Do while CONT$ < DEV_STOP$  */
     1747    15666    2      CALL ASB$DELREC_HLP ALTRET(DEL_ERR);
     1748    15667    2      KL_TERM_KEY.TERMID.TERM.TERM_NAME = LINE_NAME.TEXT;
     1749    15668    2      CALL ASB$DELREC_NETCON(VECTOR(KL_TERM_KEY))
     1750    15669    3      WHENALTRETURN DO;
     1751    15670    3         IF MERR_CODE.CODE ~= %E$NOKEY
     1752    15671    4         THEN DO;
     1753    15672    4            GOTO NETCON_ERR;
     1754    15673    4            END;
     1755    15674    3         END;
     1756    15675    2      CALL ASB$CLOSE_NETCON ALTRET(NETCON_ERR);
     1757    15676    2      END;
PL6.E3A0      #007=ASR$R_LINE_CONT File=ASR$R_HLP.:E05TSI                        TUE 07/29/97 10:56 Page:296
     1758    15677    2   ELSE DO;
     1759    15678                                                      /* Get controller number */
     1760    15679    2      IF CONTROLLER THEN
     1761    15680    2         BLK$ = P$NODE.SUBLK$(0);
     1762    15681    2      ELSE
     1763    15682    2         BLK$ = P$NODE.SUBLK$(2);
     1764    15683    2      CALL CHARBIN( CONT#, OUT$SYM.TEXT );
     1765    15684    3      IF CONT# > 31 THEN DO;
     1766    15685        /*E*  ERROR:  ASR-E$BAD_CONT_NUM-C
     1767    15686              MESSAGE: Illegal CONTROLLER number.
     1768    15687              MESSAGE1: A CONTROLLER number must be between 0 and 31.
     1769    15688        */
     1770    15689              %SCREAM( ERR#=E$BAD_CONT_NUM, LEVEL=ERROR, MID='R' );
     1771    15704    3         RETURN;
     1772    15705    3         END;
     1773    15706                                                      /* See if the controller exists.*/
     1774    15707    2      CONT_EXISTS = AS_FALSE;
     1775    15708    3      DO WHILE( CONT$ < DEV_STOP$  AND NOT CONT_EXISTS );
     1776    15709    3         IF KL$CONTROLLER.CONT# = CONT# THEN
     1777    15710    3            CONT_EXISTS = AS_TRUE;
     1778    15711    4         ELSE DO;
     1779    15712    4            CONT_INDEX = KL$CONTROLLER.BLKHDR.NSUBS;
     1780    15713    4            CONT$ = PINCRW( CONT$, SIZEW(KL$CONTROLLER)+(CONT_INDEX*SIZEW(KL$LINEDEV)))
             15713                     ;
     1781    15714    4            END;
     1782    15715    3         END;
     1783    15716    3      IF NOT CONT_EXISTS THEN DO;
     1784    15717        /*E*  ERROR:  ASR-E$CONT_NO_EXIST2-C
     1785    15718              MESSAGE: Controller %U1 does not exist.
     1786    15719        */
     1787    15720    3         AS_FIELD1.COUNT = OUT$SYM.COUNT;
     1788    15721    3         AS_FIELD1.TEXT  = OUT$SYM.TEXT;
     1789    15722              %SCREAM( ERR#=E$CONT_NO_EXIST2, LEVEL=WARN, MID='R' );
     1790    15737    3         RETURN;
     1791    15738    3         END;
     1792    15739    2      IF CONTROLLER THEN
     1793    15740    2         CALL REMOVE_CONTROLLER;
PL6.E3A0      #007=ASR$R_LINE_CONT File=ASR$R_HLP.:E05TSI                        TUE 07/29/97 10:56 Page:297
     1794    15741    2      ELSE
     1795    15742    2         CALL REMOVE_DEVICE ALTRET(EXIT#);
     1796    15743    2      CALL ASB$WRITE_HLP( DSEG1$, ARS ) ALTRET( WRITE_LINE_ERR );
     1797    15744    2      END;
     1798    15745    1   EXIT#:
     1799    15746    1   CALL ASB$DEQ_HLP ALTRET( DEQ_ERR ) ;
     1800    15747                                                              /* All done */
     1801    15748    1   RETURN ;
     1802    15749                                                              /*  Errors  */
     1803    15750    1   NETCON_ERR:;
     1804    15751    1   ERR_CODE = B$TCB$->B$TCB.ALT$->B$ALT.ERR;
     1805    15752    1   CALL ASH$ERROR(ERR_CODE);
     1806    15753    1   RETURN;
     1807    15754                                                              /**/
     1808    15755    1   READ_LINE_ERR: ;
     1809    15756    2   IF MERR_CODE.CODE = %E$LD THEN DO;
     1810    15757    2      CALL ASB$GET_MORE_SEG( 1, 4096 ) ALTRET( GETSEG_ERR );
     1811    15758    2      GOTO READ_LINE_REC;
     1812    15759    2      END;
     1813    15760    1   ELSE
     1814    15761    2      IF MERR_CODE.CODE = %E$NOKEY THEN DO;
     1815    15762        /*E* ERROR:   ASR-E$LINE_NO_EXIST2-C
     1816    15763             MESSAGE: Line %U1 does not exist.
     1817    15764        */
     1818    15765    2         AS_FIELD1 = LINE_NAME;
     1819    15766              %SCREAM( ERR#=E$LINE_NO_EXIST2, MID='R', LEVEL=WARN );
     1820    15781    2         END;
     1821    15782    2      ELSE DO;
     1822    15783    2         CALL ASA$ERROR( USERS_KEY, E$UNABLE_TO_READ_HLP );
     1823    15784    2         END;
     1824    15785    1   RETURN;
     1825    15786
     1826    15787    1   DEL_ERR: ;
     1827    15788    1   WRITE_LINE_ERR: ;
     1828    15789    1   CALL ASH$ERROR( ERR_CODE );
     1829    15790    1   ENQ_ERR: ;
     1830    15791    1   DEQ_ERR: ;
PL6.E3A0      #007=ASR$R_LINE_CONT File=ASR$R_HLP.:E05TSI                        TUE 07/29/97 10:56 Page:298
     1831    15792    1   RETURN;
     1832    15793
     1833    15794        %EJECT;
PL6.E3A0      #007=ASR$R_LINE_CONT File=ASR$R_HLP.:E05TSI                        TUE 07/29/97 10:56 Page:299
     1834    15795    1   REMOVE_CONTROLLER: PROC;
     1835    15796
     1836    15797
     1837    15798        /*E*  ERROR:  ASR-E$CONT_REMOVED-C
     1838    15799              MESSAGE:.... Controller %U1 for line %U2 removed.
     1839    15800        */
     1840    15801    2   CONT# = KL$CONTROLLER.CONT#;
     1841    15802        %NUMBER( NUM1=CONT# );
             15810    2         CALL ASB$BINCHAR( AS_FIELD1.TEXT, 0, -1, CONT# );
     1842    15832    2   AS_FIELD2 = LINE_NAME;
     1843    15833        %SCREAM( ERR#=E$CONT_REMOVED, LEVEL=INFO, MID='R' );
     1844    15848
     1845    15849    2   DEV$ = PINCRW( CONT$, SIZEW(KL$CONTROLLER));
     1846    15850    2   PTR$ = PINCRW(DEV$, KL$CONTROLLER.BLKHDR.NSUBS*SIZEW(KL$LINEDEV));
     1847    15851    2   DONE = '0'B;
     1848    15852    3   IF KL$CONTROLLER.BLKHDR.NSUBS > 0 THEN DO;
     1849    15853    4      DO WHILE( DEV$ < PTR$  AND  NOT DONE );
     1850    15854    5         IF KL$LINEDEV.CONTROLLER# = CONT# THEN DO;
     1851    15855        /*E*  ERROR:  ASR-E$CONT_DEV_REMOVED-C
     1852    15856              MESSAGE:...... Device %U1 removed.
     1853    15857        */
     1854    15858    5            DEV# = KL$LINEDEV.DEVICE#;
     1855    15859                 %NUMBER( NUM1=DEV# );
             15867    5         CALL ASB$BINCHAR( AS_FIELD1.TEXT, 0, -1, DEV# );
     1856    15889                 %SCREAM( ERR#=E$CONT_DEV_REMOVED, LEVEL=INFO, MID='R' );
     1857    15904    5            DEV$ = PINCRW(DEV$, SIZEW(KL$LINEDEV));
     1858    15905    5            END;
     1859    15906    4         ELSE
     1860    15907    4            DONE = '1'B;
     1861    15908    4         END;
     1862    15909    3      END;
     1863    15910
     1864    15911    3   IF NOT LINE THEN DO;
     1865    15912    3      MOVE_SIZE = POFFW(DEV_STOP$,PTR$) * 4;
     1866    15913    3      KL$DREC.NWINFO = KL$DREC.NWINFO - POFFW(PTR$, CONT$);
     1867    15914    3      ARS = LENGTHC(KL_DREC_CNT) + KL$DREC.NWINFO * 4;
     1868    15915    4      IF MOVE_SIZE > 0 THEN DO;
PL6.E3A0      #007=ASR$R_LINE_CONT File=ASR$R_HLP.:E05TSI                        TUE 07/29/97 10:56 Page:300
     1869    15916    4         KL$DREC.LN.BLKHDR.NSUBS = KL$DREC.LN.BLKHDR.NSUBS  - 1;
     1870    15917    4         IF MOVE_SIZE > 0 THEN
     1871    15918    4            CONT$->MOVE$TEMP = PTR$->MOVE$TEMP;
     1872    15919    4         END; /*   Size > 0  */
     1873    15920    3      END;
     1874    15921
     1875    15922
     1876    15923    2   END REMOVE_CONTROLLER;
     1877    15924        %EJECT;
PL6.E3A0      #007=ASR$R_LINE_CONT File=ASR$R_HLP.:E05TSI                        TUE 07/29/97 10:56 Page:301
     1878    15925    1   REMOVE_DEVICE: PROC ALTRET;
     1879    15926
     1880    15927
     1881    15928    2   BLK$ = P$NODE.SUBLK$(0);
     1882    15929    2   CALL CHARBIN(DEV#, OUT$SYM.TEXT);
     1883    15930    3   IF DEV# > 31 THEN DO;
     1884    15931        /*E*  ERROR:  ASR-E$BAD_CONT_DEV_NUM-C
     1885    15932              MESSAGE: Invalid DEVICE number.
     1886    15933              MESSAGE1: A DEVICE number must be between 0 and 31.
     1887    15934        */
     1888    15935           %SCREAM( ERR#=E$BAD_CONT_DEV_NUM, LEVEL=ERROR, MID='R' );
     1889    15950    3      ALTRETURN;
     1890    15951    3      END;
     1891    15952
     1892    15953    2   DEV$ = PINCRW( CONT$, SIZEW( KL$CONTROLLER));
     1893    15954    2   DONE = '0'B;
     1894    15955    2   FOUND = '0'B;
     1895    15956    2   TEMP$ = PINCRW( DEV$, KL$CONTROLLER.BLKHDR.NSUBS*SIZEW(KL$LINEDEV));
     1896    15957    3   DO WHILE( DEV$ < TEMP$  AND  NOT FOUND  AND  NOT DONE );
     1897    15958    3      IF KL$LINEDEV.CONTROLLER# = CONT# AND KL$LINEDEV.DEVICE# = DEV# THEN
     1898    15959    3         FOUND = '1'B;
     1899    15960    3      ELSE
     1900    15961    3         IF KL$LINEDEV.DEVICE# > DEV# THEN
     1901    15962    3            DONE = '1'B;
     1902    15963    3         ELSE
     1903    15964    3            DEV$ = PINCRW(DEV$, SIZEW(KL$LINEDEV));
     1904    15965    3      END;
     1905    15966
     1906    15967        %NUMBER( NUM1=DEV#, NUM2=CONT# );
             15975    2         CALL ASB$BINCHAR( AS_FIELD1.TEXT, 0, -1, DEV# );
             15983    2         CALL ASB$BINCHAR( AS_FIELD2.TEXT, 0, -2, CONT# );
     1907    15997    2   AS_FIELD3 = LINE_NAME;
     1908    15998    3   IF FOUND THEN DO;
     1909    15999    3      PTR$ = PINCRW(DEV$, SIZEW(KL$LINEDEV));
     1910    16000    3      MOVE_SIZE = POFFW(DEV_STOP$, PTR$) * 4;
     1911    16001    3      KL$DREC.NWINFO = KL$DREC.NWINFO - SIZEW(KL$LINEDEV);
     1912    16002    3      ARS = LENGTHC(KL_DREC_CNT) + KL$DREC.NWINFO * 4;
PL6.E3A0      #007=ASR$R_LINE_CONT File=ASR$R_HLP.:E05TSI                        TUE 07/29/97 10:56 Page:302
     1913    16003    3      IF MOVE_SIZE > 0 THEN
     1914    16004    3         DEV$->MOVE$TEMP = PTR$->MOVE$TEMP;
     1915    16005        /*E*  ERROR:  ASR-E$LINEDEV_REMOVED-C
     1916    16006              MESSAGE: Device %U1 for line %U3 controller %U2 removed.
     1917    16007        */
     1918    16008           %SCREAM( ERR#=E$LINEDEV_REMOVED, LEVEL=INFO, MID='R' );
     1919    16023    3      KL$CONTROLLER.BLKHDR.NSUBS = KL$CONTROLLER.BLKHDR.NSUBS - 1;
     1920    16024    3      END;
     1921    16025    3   ELSE DO;
     1922    16026        /*E*  ERROR:  ASR-E$LINEDEV_NO_EXIST1-C
     1923    16027              MESSAGE: Device %U1 does not exist.
     1924    16028              MESSAGE1: Device %U1 for line %U3 controller %U2, does not exist.
     1925    16029        */
     1926    16030           %SCREAM( ERR#=E$LINEDEV_NO_EXIST1, LEVEL=WARN, MID='R' );
     1927    16045    3      END;
     1928    16046                                                              /**/
     1929    16047    2   END REMOVE_DEVICE;
     1930    16048
     1931    16049
     1932    16050
     1933    16051
     1934    16052    1   END ASR$R_LINE_CONT;

PL6.E3A0      #007=ASR$R_LINE_CONT File=ASR$R_HLP.:E05TSI                        TUE 07/29/97 10:56 Page:303
--  Include file information  --

   AS_SUPER_R.:E05TOU  cannot be made into a system file and is referenced.
   XU_FORMAT_C.:E05TOU  is referenced.
   XU_MACRO_C.:E05TOU  is referenced.
   KL_SUPER_C.:E05TOU  is referenced.
   AS_MAC_C.:E05TOU  cannot be made into a system file and is referenced.
   AS_SUBS_C.:E05TOU  is referenced.
   AS_SUPER_C.:E05TOU  is referenced.
   AS_ENTRIES_M.:E05TOU  is referenced.
   B_ERRORS_C.:E05TOU  is referenced.
   KL_CONFIG_M.:E05TOU  is referenced.
   AS_PERR_C.:E05TOU  is referenced.
   CP_6.:E05TOU  cannot be made into a system file and is referenced.
   B$JIT_C.:E05TOU  was found in the system file and is never referenced.
   CP_6_C.:E05TOU  was found in the system file and is referenced.
      No diagnostics issued in procedure ASR$R_LINE_CONT.

   Procedure ASR$R_LINE_CONT requires 550 words for executable code.
   Procedure ASR$R_LINE_CONT requires 34 words of local(AUTO) storage.

    No errors detected in file ASR$R_HLP.:E05TSI    .

PL6.E3A0      #007=ASR$R_LINE_CONT File=ASR$R_HLP.:E05TSI                        TUE 07/29/97 10:56 Page:304

 Object Unit name= ASR$R_LINE_CONT                            File name= ASR$R_HLP.:E05TOU
 UTS= JUL 29 '97 10:56:14.68 TUE                              Compiler= PL-6/E31         Sev=      00
 SharedLib= :SHARED_SYSTEM                                    Alt SharedLib=


    ****  Control sections  ****

 Sect   Type Bound  Init  Size OctSiz  Section name(segment info)
    0   DCB   even  none     0      0  M$UC
    1   DCB   even  none     0      0  M$LO
    2   Data  even  none     8     10  ASR$R_LINE_CONT
    3  RoData even  UTS     12     14  ASR$R_LINE_CONT
    4   Proc  even  none   550   1046  ASR$R_LINE_CONT
    5  RoData even  none    32     40  ASR$R_LINE_CONT

    ****  Entry defs  ****

                              Check   Calling
                             calling  sequence
  Sect OctLoc Primary Altret sequence   type   Parms  Name
     4      0   yes            yes      Std        0  ASR$R_LINE_CONT
PL6.E3A0      #007=ASR$R_LINE_CONT File=ASR$R_HLP.:E05TSI                        TUE 07/29/97 10:56 Page:305

  ****  Entry refs  ****

         Check        Calling
        calling       sequence
Altret sequence SRef   type   Args  Name
         yes          ~proc      0 XU_OUTPUT_OPTIONS
 yes     yes           Std       0 ASB$DELREC_HLP
 yes     yes           Std       2 ASB$WRITE_HLP
 yes     yes           Std       0 ASB$GETSEG
         yes           Std       2 ASH$ERROR
 yes     yes           Std       0 ASB$ENQ_HLP
 yes     yes           Std       3 ASB$READ_HLP
         yes           Std       2 ASH$INFO
 yes     yes           Std       1 ASB$DELREC_NETCON
 yes     yes           Std       2 ASB$GET_MORE_SEG
         yes           Std       3 ASA$ERROR
         yes           Std       2 ASH$WARN
 yes     yes           Std       0 ASB$DEQ_HLP
 yes     yes           Std       0 ASB$CLOSE_NETCON
         yes           Std       4 ASB$BINCHAR
                       nStd      0 X66_AUTO_0
                       Std       0 B_CONSPOOL_D
                       nStd      0 X66_ARET

  ****  Data refs  ****

  Flags:  r = read only, s = secondary
Flgs Name                             Flgs Name                             Flgs Name
     M$UC                             r    AS_TRUE                          r    AS_FALSE
r    AS_MODE                          r    AS_FE_MODE                            M$LO
     USERS_KEY                             NODE$                                 ERR_CODE
     AS_FIELD1                             AS_FIELD2                             AS_FIELD3
     REMEM_VAR                             REM_FCMD                              ASA_BRKS_LOC
     DSEG_FLG                              DSEG1$                                DSEG1SIZE
     KL_DREC_CNT                           B$TCB$                                B_VECTNIL
PL6.E3A0      #007=ASR$R_LINE_CONT File=ASR$R_HLP.:E05TSI                        TUE 07/29/97 10:56 Page:306

  ****  Segment refs  ****

  Flags:  r = read only, s = secondary
Flgs Name                             Flgs Name                             Flgs Name
     ISSID
PL6.E3A0      #007=ASR$R_LINE_CONT File=ASR$R_HLP.:E05TSI                        TUE 07/29/97 10:56 Page:307


     1573        1        /*M* ASR$R_LINE_CONT - processes the REMOVE LINE/CONTROLLER command.  */
     1574        2        /*T***********************************************************/
     1575        3        /*T*                                                         */
     1576        4        /*T* Copyright (c) Bull HN Information Systems Inc., 1997    */
     1577        5        /*T*                                                         */
     1578        6        /*T***********************************************************/
     1579        7        /*X*  DMC,DMR,CCC,PLM=0,IND=3,CTI=5,DCI=6,IAD=0,DTI=0,IDT=0,ENI=3,
     1580        8              ECU=3,CSU=3,SDI=3                                           */
     1581        9                                                              /**/
     1582       10        ASR$R_LINE_CONT: PROC;

     10  4 000000   000000 700200 xent  ASR$R_LINE_* TSX0  ! X66_AUTO_0
         4 000001   000042 000000                    ZERO    34,0

     1583       11                                                              /**/
     1584       12        /********************************************************************/
     1585       13        /*   Include files   include files   include files   include files   */
     1586       14        /*********************************************************************/
     1587       15                                                              /**/
     1588       16              %INCLUDE  CP_6 ;
     1589       97              %INCLUDE AS_PERR_C ;
     1590      699              %INCLUDE KL_CONFIG_M;
     1591     1461              %INCLUDE B_ERRORS_C;
     1592     2588              %INCLUDE  AS_ENTRIES_M;
     1593     3638              %INCLUDE  AS_SUPER_C ;
     1594     4073              %INCLUDE  AS_SUBS_C ;
     1595     5487              %INCLUDE  AS_MAC_C ;
     1596     5567              %INCLUDE  KL_SUPER_C ;
     1597     8469              %INCLUDE  XU_MACRO_C ;
     1598    11575              %INCLUDE  XU_FORMAT_C ;
     1599    11737              %INCLUDE  AS_SUPER_R ;
     1600    14753
     1601    14754
     1602    14755        /*********************************************************************/
     1603    14756        /*   Auto data       auto data       auto data       auto data       */
     1604    14757        /*********************************************************************/
PL6.E3A0      #007=ASR$R_LINE_CONT File=ASR$R_HLP.:E05TSI                        TUE 07/29/97 10:56 Page:308
     1605    14758                                                              /**/
     1606    14759    1   DCL PTR$ PTR ;
     1607    14760    1   DCL DEV$ PTR ;
     1608    14761    1   DCL CONT$ PTR;
     1609    14762    1   DCL TEMP$ PTR;
     1610    14763    1   DCL BLK$ PTR ;
     1611    14764    1   DCL ARS UBIN WORD ;
     1612    14765    1   DCL I UBIN WORD ;
     1613    14766    1   DCL J UBIN WORD ;
     1614    14767    1   DCL MOVE_SIZE UBIN WORD ;
     1615    14768    1   DCL CONT# UBIN WORD ;
     1616    14769    1   DCL DEV# UBIN WORD ;
     1617    14770    1   DCL DEV_SIZEW UBIN WORD ;
     1618    14771    1   DCL CONT_INDEX UBIN WORD ;
     1619    14772    1   DCL DEV_START$ PTR ;
     1620    14773    1   DCL DEV_STOP$ PTR ;
     1621    14774    1   DCL LINE        BIT(1) ;
     1622    14775    1   DCL CONTROLLER  BIT(1) ;
     1623    14776    1   DCL DEVICE      BIT(1) ;
     1624    14777    1   DCL CONT_EXISTS BIT(1) ;
     1625    14778    1   DCL FOUND       BIT(1) ;
     1626    14779    1   DCL DONE        BIT(1) ;
     1627    14780    1   DCL 1 LINE_NAME,
     1628    14781    1          2 COUNT UBIN BYTE UNAL,
     1629    14782    1          2 TEXT CHAR(8) UNAL;
     1630    14783
     1631    14784        /*********************************************************************/
     1632    14785        /*   Static data     static data     static data     static data     */
     1633    14786        /*********************************************************************/
     1634    14787                                                              /**/
     1635    14788    1   DCL 1 LINE_KEY ALIGNED STATIC ,
     1636    14789    1          2 CNT UBIN BYTE UNAL INIT( 9 ),
     1637    14790    1          2 TXT UNAL ,
     1638    14791    1             3 LINE CHAR(8) UNAL INIT(' ') ,
     1639    14792    1             3 ASTR CHAR(1) UNAL INIT('*') ;
     1640    14793        %KL$TERM_KEY (NAME=KL_TERM_KEY,STCLASS=STATIC);
     1641    14839
PL6.E3A0      #007=ASR$R_LINE_CONT File=ASR$R_HLP.:E05TSI                        TUE 07/29/97 10:56 Page:309
     1642    14840        /********************************************************************/
     1643    14841        /*   Entry dcls      entry dcls      entry dcls      entry dcls      */
     1644    14842        /*********************************************************************/
     1645    14843                                                              /**/
     1646    14844        %ASB$DELREC_HLP ;
     1647    14847        %ASB$GETSEG ;
     1648    14850        %ASB$GET_MORE_SEG ;
     1649    14853        %ASB$ENQ_HLP ;
     1650    14856        %ASB$DEQ_HLP ;
     1651    14859        %ASH$ERROR ;
     1652    14862        %ASH$WARN ;
     1653    14865        %ASH$INFO ;
     1654    14868        %ASB$READ_HLP ;
     1655    14871        %ASB$WRITE_HLP ;
     1656    14874        %ASB$DELREC_NETCON ;
     1657    14877        %ASB$CLOSE_NETCON ;
     1658    14880        %ASA$ERROR ;
     1659    14883
     1660    14884        /*********************************************************************/
     1661    14885        /*   Local based     local based     local based     local based     */
     1662    14886        /*********************************************************************/
     1663    14887                                                              /**/
     1664    14888        %PARSE$OUT( NAME=P$NODE, STCLASS="BASED(NODE$)",
     1665    14889                    NDTYPE=TYPE, NSUBLKS=SUBNODES) ;
     1666    14934        %PARSE$SYM( NAME = OUT$SYM ,
     1667    14935                    STCLASS="BASED(BLK$)") ;
     1668    14973        %KL_DREC ( NAME = KL$DREC ,
     1669    14974                   LAST=",",
     1670    14975                   STCLASS="BASED( DSEG1$ )");
     1671    15088        %KL_LN3270( NAME = LN,
     1672    15089                    LVL = 2,
     1673    15090                    STCLASS = BASED);
     1674    15232        %KL_CONTROLLER( NAME=KL$CONTROLLER,
     1675    15233                        LVL=1,
     1676    15234                        STCLASS="BASED(CONT$)" );
     1677    15383        %KL_LINEDEV( NAME = KL$LINEDEV,
     1678    15384                     STCLASS="BASED( DEV$ )") ;
PL6.E3A0      #007=ASR$R_LINE_CONT File=ASR$R_HLP.:E05TSI                        TUE 07/29/97 10:56 Page:310
     1679    15533    1   DCL MOVE$TEMP CHAR(MOVE_SIZE) BASED;
     1680    15534
     1681    15535    1   DCL B$TCB$ PTR SYMREF;
     1682    15536        %B$TCB;
     1683    15539        %B$ALT;
     1684    15547        /*********************************************************************/
     1685    15548        /*   Procedure       procedure       procedure       procedure       */
     1686    15549        /*********************************************************************/
     1687    15550                                                              /**/
     1688    15551        /*
     1689    15552            ***            Begin procedure                    ***
     1690    15553        */
     1691    15554    1   LINE = (P$NODE.CODE = R_LINE_VAL);

  15554  4 000002   400000 220003                    LDX0    -131072,DU
         4 000003   000000 470400 xsym               LDP0    NODE$
         4 000004   000000 721100                    LXL1    0,,PR0
         4 000005   000073 101003                    CMPX1   59,DU
         4 000006   000010 600000 4                  TZE     s:15554+6
         4 000007   000000 220003                    LDX0    0,DU
         4 000010   000000 636010                    EAQ     0,X0
         4 000011   200022 756100                    STQ     LINE,,AUTO

     1692    15555    1   CONTROLLER = (P$NODE.CODE = R_CONT_VAL);

  15555  4 000012   400000 220003                    LDX0    -131072,DU
         4 000013   000074 101003                    CMPX1   60,DU
         4 000014   000016 600000 4                  TZE     s:15555+4
         4 000015   000000 220003                    LDX0    0,DU
         4 000016   000000 636010                    EAQ     0,X0
         4 000017   200023 756100                    STQ     CONTROLLER,,AUTO

     1693    15556    1   DEVICE = (P$NODE.CODE = R_LINE_DEV_VAL);

  15556  4 000020   400000 220003                    LDX0    -131072,DU
         4 000021   000076 101003                    CMPX1   62,DU
         4 000022   000024 600000 4                  TZE     s:15556+4
PL6.E3A0      #007=ASR$R_LINE_CONT File=ASR$R_HLP.:E05TSI                        TUE 07/29/97 10:56 Page:311
         4 000023   000000 220003                    LDX0    0,DU
         4 000024   000000 636010                    EAQ     0,X0
         4 000025   200024 756100                    STQ     DEVICE,,AUTO

     1694    15557                                                              /* Get data seg. */
     1695    15558    1   IF NOT DSEG_FLG THEN

  15558  4 000026   000000 234000 xsym               SZN     DSEG_FLG
         4 000027   000041 604000 4                  TMI     s:15580

     1696    15559    1      CALL ASB$GETSEG

  15559  4 000030   000002 631400 xsym               EPPR1   B_VECTNIL+2
         4 000031   000000 701000 xent               TSX1    ASB$GETSEG
         4 000032   000034 702000 4                  TSX2    GETSEG_ERR
         4 000033   000041 710000 4                  TRA     s:15580

     1697    15560    2      WHENALTRETURN DO;

     1698    15561    2   GETSEG_ERR:
     1699    15562              %SCREAM( ERR#=%E$GETSEGERR , LEVEL=ERROR, MID='R' );

  15574  4 000034   000000 630400 5     GETSEG_ERR   EPPR0   0
         4 000035   000017 631400 xsym               EPPR1   B_VECTNIL+15
         4 000036   000000 701000 xent               TSX1    ASH$ERROR
         4 000037   000000 011000                    NOP     0

     1700    15577    2         RETURN ;

  15577  4 000040   000000 702200 xent               TSX2  ! X66_ARET

     1701    15578    2         END;  /*  Whenaltreturn from ASB$GETSEG  */
     1702    15579                                                              /* Get line name */
     1703    15580    1   IF LINE THEN

  15580  4 000041   200022 234100                    SZN     LINE,,AUTO
         4 000042   000050 605000 4                  TPL     s:15583
PL6.E3A0      #007=ASR$R_LINE_CONT File=ASR$R_HLP.:E05TSI                        TUE 07/29/97 10:56 Page:312

     1704    15581    1      BLK$ = P$NODE.SUBLK$(0) -> P$NODE.SUBLK$(0) ;

  15581  4 000043   000000 470400 xsym               LDP0    NODE$
         4 000044   000003 471500                    LDP1    3,,PR0
         4 000045   100003 236100                    LDQ     3,,PR1
         4 000046   200007 756100                    STQ     BLK$,,AUTO
         4 000047   000054 710000 4                  TRA     s:15584

     1705    15582    1   ELSE
     1706    15583    1      BLK$ = P$NODE.SUBLK$(1) -> P$NODE.SUBLK$(0) ;

  15583  4 000050   000000 470400 xsym               LDP0    NODE$
         4 000051   000004 471500                    LDP1    4,,PR0
         4 000052   100003 236100                    LDQ     3,,PR1
         4 000053   200007 756100                    STQ     BLK$,,AUTO

     1707    15584    2   IF OUT$SYM.COUNT > 8 THEN DO;

  15584  4 000054   200007 471500                    LDP1    BLK$,,AUTO
         4 000055   100004 236100                    LDQ     4,,PR1
         4 000056   777000 376003                    ANQ     -512,DU
         4 000057   011000 116003                    CMPQ    4608,DU
         4 000060   000066 602000 4                  TNC     s:15606

     1708    15585        /*E*  ERROR:    ASR-E$LNAMETOOBIG-C
     1709    15586              MESSAGE: Line name too long.
     1710    15587              MESSAGE1: Line names can be at most 8 characters.
     1711    15588        */
     1712    15589           %SCREAM( ERR#=E$LNAMETOOBIG, LEVEL=ERROR, MID='R' );

  15601  4 000061   000001 630400 5                  EPPR0   1
         4 000062   000017 631400 xsym               EPPR1   B_VECTNIL+15
         4 000063   000000 701000 xent               TSX1    ASH$ERROR
         4 000064   000000 011000                    NOP     0

     1713    15604    2      RETURN ;
PL6.E3A0      #007=ASR$R_LINE_CONT File=ASR$R_HLP.:E05TSI                        TUE 07/29/97 10:56 Page:313

  15604  4 000065   000000 702200 xent               TSX2  ! X66_ARET

     1714    15605    2      END ; /* Then do */
     1715    15606    1   LINE_NAME.COUNT = OUT$SYM.COUNT;

  15606  4 000066   100004 236100                    LDQ     4,,PR1
         4 000067   200030 552140                    STBQ    LINE_NAME,'40'O,AUTO

     1716    15607    1   LINE_NAME.TEXT = OUT$SYM.TEXT ;

  15607  4 000070   100004 236100                    LDQ     4,,PR1
         4 000071   000033 772000                    QRL     27
         4 000072   000000 620006                    EAX0    0,QL
         4 000073   040100 100540                    MLR     fill='040'O
         4 000074   100004 200010                    ADSC9   4,,PR1                   cn=1,n=*X0
         4 000075   200030 200010                    ADSC9   LINE_NAME,,AUTO          cn=1,n=8

     1717    15608    1   LINE_KEY.TXT.LINE = OUT$SYM.TEXT ;

  15608  4 000076   040000 100540                    MLR     fill='040'O
         4 000077   100004 200010                    ADSC9   4,,PR1                   cn=1,n=*X0
         4 000100   000000 200010 2                  ADSC9   LINE_KEY                 cn=1,n=8

     1718    15609    1   USERS_KEY = LINE_KEY ;

  15609  4 000101   000000 100400                    MLR     fill='000'O
         4 000102   000000 000012 2                  ADSC9   LINE_KEY                 cn=0,n=10
         4 000103   000000 000052 xsym               ADSC9   USERS_KEY                cn=0,n=42

     1719    15610    1   CALL ASB$ENQ_HLP ALTRET(ENQ_ERR);

  15610  4 000104   000002 631400 xsym               EPPR1   B_VECTNIL+2
         4 000105   000000 701000 xent               TSX1    ASB$ENQ_HLP
         4 000106   000435 702000 4                  TSX2    ENQ_ERR

     1720    15611                                                              /* Pick up line record */
PL6.E3A0      #007=ASR$R_LINE_CONT File=ASR$R_HLP.:E05TSI                        TUE 07/29/97 10:56 Page:314
     1721    15612    1   READ_LINE_REC:
     1722    15613    1   ARS = DSEG1SIZE ;

  15613  4 000107   000000 235000 xsym  READ_LINE_R* LDA     DSEG1SIZE
         4 000110   200010 755100                    STA     ARS,,AUTO

     1723    15614    1   CALL ASB$READ_HLP( DSEG1$, ARS, 1 ) ALTRET( READ_LINE_ERR ) ;

  15614  4 000111   000002 236000 5                  LDQ     2
         4 000112   200040 756100                    STQ     LINE_NAME+8,,AUTO
         4 000113   200010 630500                    EPPR0   ARS,,AUTO
         4 000114   200037 450500                    STP0    LINE_NAME+7,,AUTO
         4 000115   000003 236000 5                  LDQ     3
         4 000116   200036 756100                    STQ     LINE_NAME+6,,AUTO
         4 000117   200036 630500                    EPPR0   LINE_NAME+6,,AUTO
         4 000120   000021 631400 xsym               EPPR1   B_VECTNIL+17
         4 000121   000000 701000 xent               TSX1    ASB$READ_HLP
         4 000122   000401 702000 4                  TSX2    READ_LINE_ERR

     1724    15615    2   IF KL$DREC.ATYP ~= %KLAT_LINE# THEN DO;

  15615  4 000123   000000 470400 xsym               LDP0    DSEG1$
         4 000124   000000 236100                    LDQ     0,,PR0
         4 000125   777000 376003                    ANQ     -512,DU
         4 000126   005000 116003                    CMPQ    2560,DU
         4 000127   000140 600000 4                  TZE     s:15637

     1725    15616        /*E*  ERROR:    ASR-E$NOTLINE-C
     1726    15617              MESSAGE0: %%U1 %is not a line.
     1727    15618        */
     1728    15619    2      AS_FIELD1 = LINE_NAME;

  15619  4 000130   000000 100500                    MLR     fill='000'O
         4 000131   200030 000011                    ADSC9   LINE_NAME,,AUTO          cn=0,n=9
         4 000132   000000 000051 xsym               ADSC9   AS_FIELD1                cn=0,n=41

     1729    15620           %SCREAM( ERR#=E$NOTLINE , LEVEL=ERROR, MID='R' );
PL6.E3A0      #007=ASR$R_LINE_CONT File=ASR$R_HLP.:E05TSI                        TUE 07/29/97 10:56 Page:315

  15632  4 000133   000004 630400 5                  EPPR0   4
         4 000134   000017 631400 xsym               EPPR1   B_VECTNIL+15
         4 000135   000000 701000 xent               TSX1    ASH$ERROR
         4 000136   000000 011000                    NOP     0

     1730    15635    2      RETURN ;

  15635  4 000137   000000 702200 xent               TSX2  ! X66_ARET

     1731    15636    2      END ; /* Then do */
     1732    15637    1   DEV_START$ = PINCRW(ADDR(KL$DREC.LN), SIZEW(KL$DREC.LN) );

  15637  4 000140   000000 236000 xsym               LDQ     DSEG1$
         4 000141   000023 036003                    ADLQ    19,DU
         4 000142   200020 756100                    STQ     DEV_START$,,AUTO

     1733    15638    1   DEV_SIZEW = KL$DREC.NWINFO - POFFW(DEV_START$,ADDR(KL$DREC.LN));

  15638  4 000143   000000 236000 xsym               LDQ     DSEG1$
         4 000144   000020 036003                    ADLQ    16,DU
         4 000145   000022 772000                    QRL     18
         4 000146   200036 756100                    STQ     LINE_NAME+6,,AUTO
         4 000147   200020 236100                    LDQ     DEV_START$,,AUTO
         4 000150   000022 772000                    QRL     18
         4 000151   200036 136100                    SBLQ    LINE_NAME+6,,AUTO
         4 000152   200037 756100                    STQ     LINE_NAME+7,,AUTO
         4 000153   000017 236100                    LDQ     15,,PR0
         4 000154   200037 136100                    SBLQ    LINE_NAME+7,,AUTO
         4 000155   200016 756100                    STQ     DEV_SIZEW,,AUTO

     1734    15639    1   DEV_STOP$ = PINCRW(DEV_START$, DEV_SIZEW);

  15639  4 000156   000022 736000                    QLS     18
         4 000157   200020 036100                    ADLQ    DEV_START$,,AUTO
         4 000160   200021 756100                    STQ     DEV_STOP$,,AUTO

PL6.E3A0      #007=ASR$R_LINE_CONT File=ASR$R_HLP.:E05TSI                        TUE 07/29/97 10:56 Page:316
     1735    15640    1   CONT$ = DEV_START$;

  15640  4 000161   200020 236100                    LDQ     DEV_START$,,AUTO
         4 000162   200005 756100                    STQ     CONT$,,AUTO

     1736    15641    2   IF LINE THEN DO;

  15641  4 000163   200022 234100                    SZN     LINE,,AUTO
         4 000164   000240 605000 4                  TPL     s:15679

     1737    15642        /*E*  ERROR:  ASR-E$LINE_REMOVED-C
     1738    15643              MESSAGE:.. Line %U1 removed.
     1739    15644        */
     1740    15645    2      AS_FIELD1 = LINE_NAME;

  15645  4 000165   000000 100500                    MLR     fill='000'O
         4 000166   200030 000011                    ADSC9   LINE_NAME,,AUTO          cn=0,n=9
         4 000167   000000 000051 xsym               ADSC9   AS_FIELD1                cn=0,n=41

     1741    15646           %SCREAM( ERR#=E$LINE_REMOVED, LEVEL=INFO, MID='R' );

  15654  4 000170   000005 630400 5                  EPPR0   5
         4 000171   000017 631400 xsym               EPPR1   B_VECTNIL+15
         4 000172   000000 701000 xent               TSX1    ASH$INFO
         4 000173   000000 011000                    NOP     0

     1742    15661    3      DO WHILE( CONT$ < DEV_STOP$ ) ;

  15661  4 000174   200005 236100                    LDQ     CONT$,,AUTO
         4 000175   200021 116100                    CMPQ    DEV_STOP$,,AUTO
         4 000176   000214 603000 4                  TRC     s:15666

     1743    15662    3         CALL REMOVE_CONTROLLER;

  15662  4 000177   000436 701000 4                  TSX1    REMOVE_CONTROLLER
         4 000200   000000 011000                    NOP     0

PL6.E3A0      #007=ASR$R_LINE_CONT File=ASR$R_HLP.:E05TSI                        TUE 07/29/97 10:56 Page:317
     1744    15663    3         CONT_INDEX = KL$CONTROLLER.BLKHDR.NSUBS;

  15663  4 000201   200005 470500                    LDP0    CONT$,,AUTO
         4 000202   000100 101500                    MRL     fill='000'O
         4 000203   000000 200001                    ADSC9   0,,PR0                   cn=1,n=1
         4 000204   200017 000004                    ADSC9   CONT_INDEX,,AUTO         cn=0,n=4

     1745    15664    3         CONT$ = PINCRW( CONT$, SIZEW(KL$CONTROLLER)+(CONT_INDEX*SIZEW(KL$LINEDEV)));

  15664  4 000205   200017 236100                    LDQ     CONT_INDEX,,AUTO
         4 000206   000024 736000                    QLS     20
         4 000207   000004 036003                    ADLQ    4,DU
         4 000210   200005 036100                    ADLQ    CONT$,,AUTO
         4 000211   200005 756100                    STQ     CONT$,,AUTO

     1746    15665    3         END;  /*  Do while CONT$ < DEV_STOP$  */

  15665  4 000212   200021 116100                    CMPQ    DEV_STOP$,,AUTO
         4 000213   000177 602000 4                  TNC     s:15662

     1747    15666    2      CALL ASB$DELREC_HLP ALTRET(DEL_ERR);

  15666  4 000214   000002 631400 xsym               EPPR1   B_VECTNIL+2
         4 000215   000000 701000 xent               TSX1    ASB$DELREC_HLP
         4 000216   000431 702000 4                  TSX2    DEL_ERR

     1748    15667    2      KL_TERM_KEY.TERMID.TERM.TERM_NAME = LINE_NAME.TEXT;

  15667  4 000217   040000 100500                    MLR     fill='040'O
         4 000220   200030 200010                    ADSC9   LINE_NAME,,AUTO          cn=1,n=8
         4 000221   000005 400010 2                  ADSC9   KL_TERM_KEY+2            cn=2,n=8

     1749    15668    2      CALL ASB$DELREC_NETCON(VECTOR(KL_TERM_KEY))

  15668  4 000222   000010 630400 5                  EPPR0   8
         4 000223   000017 631400 xsym               EPPR1   B_VECTNIL+15
         4 000224   000000 701000 xent               TSX1    ASB$DELREC_NETCON
PL6.E3A0      #007=ASR$R_LINE_CONT File=ASR$R_HLP.:E05TSI                        TUE 07/29/97 10:56 Page:318
         4 000225   000227 702000 4                  TSX2    s:15670
         4 000226   000234 710000 4                  TRA     s:15675

     1750    15669    3      WHENALTRETURN DO;

     1751    15670    3         IF MERR_CODE.CODE ~= %E$NOKEY

  15670  4 000227   000000 236000 xsym               LDQ     ERR_CODE
         4 000230   377770 376007                    ANQ     131064,DL
         4 000231   001020 116007                    CMPQ    528,DL
         4 000232   000234 600000 4                  TZE     s:15675

     1752    15671    4         THEN DO;

     1753    15672    4            GOTO NETCON_ERR;

  15672  4 000233   000370 710000 4                  TRA     NETCON_ERR

     1754    15673    4            END;
     1755    15674    3         END;
     1756    15675    2      CALL ASB$CLOSE_NETCON ALTRET(NETCON_ERR);

  15675  4 000234   000002 631400 xsym               EPPR1   B_VECTNIL+2
         4 000235   000000 701000 xent               TSX1    ASB$CLOSE_NETCON
         4 000236   000370 702000 4                  TSX2    NETCON_ERR

     1757    15676    2      END;

  15676  4 000237   000364 710000 4                  TRA     EXIT#

     1758    15677    2   ELSE DO;

     1759    15678                                                      /* Get controller number */
     1760    15679    2      IF CONTROLLER THEN

  15679  4 000240   200023 234100                    SZN     CONTROLLER,,AUTO
         4 000241   000246 605000 4                  TPL     s:15682
PL6.E3A0      #007=ASR$R_LINE_CONT File=ASR$R_HLP.:E05TSI                        TUE 07/29/97 10:56 Page:319

     1761    15680    2         BLK$ = P$NODE.SUBLK$(0);

  15680  4 000242   000000 471400 xsym               LDP1    NODE$
         4 000243   100003 236100                    LDQ     3,,PR1
         4 000244   200007 756100                    STQ     BLK$,,AUTO
         4 000245   000251 710000 4                  TRA     s:15683

     1762    15681    2      ELSE
     1763    15682    2         BLK$ = P$NODE.SUBLK$(2);

  15682  4 000246   000000 471400 xsym               LDP1    NODE$
         4 000247   100005 236100                    LDQ     5,,PR1
         4 000250   200007 756100                    STQ     BLK$,,AUTO

     1764    15683    2      CALL CHARBIN( CONT#, OUT$SYM.TEXT );

  15683  4 000251   200007 473500                    LDP3    BLK$,,AUTO
         4 000252   300004 236100                    LDQ     4,,PR3
         4 000253   000033 772000                    QRL     27
         4 000254   000000 620006                    EAX0    0,QL
         4 000255   000100 305540                    DTB
         4 000256   300004 230010                    NDSC9   4,,PR3                   cn=1,s=nosgn,sf=0,n=*X0
         4 000257   200036 000010                    NDSC9   LINE_NAME+6,,AUTO        cn=0,s=lsgnf,sf=0,n=8
         4 000260   200037 235100                    LDA     LINE_NAME+7,,AUTO
         4 000261   200014 755100                    STA     CONT#,,AUTO

     1765    15684    3      IF CONT# > 31 THEN DO;

  15684  4 000262   000040 115007                    CMPA    32,DL
         4 000263   000271 602000 4                  TNC     s:15707

     1766    15685        /*E*  ERROR:  ASR-E$BAD_CONT_NUM-C
     1767    15686              MESSAGE: Illegal CONTROLLER number.
     1768    15687              MESSAGE1: A CONTROLLER number must be between 0 and 31.
     1769    15688        */
     1770    15689              %SCREAM( ERR#=E$BAD_CONT_NUM, LEVEL=ERROR, MID='R' );
PL6.E3A0      #007=ASR$R_LINE_CONT File=ASR$R_HLP.:E05TSI                        TUE 07/29/97 10:56 Page:320

  15701  4 000264   000011 630400 5                  EPPR0   9
         4 000265   000017 631400 xsym               EPPR1   B_VECTNIL+15
         4 000266   000000 701000 xent               TSX1    ASH$ERROR
         4 000267   000000 011000                    NOP     0

     1771    15704    3         RETURN;

  15704  4 000270   000000 702200 xent               TSX2  ! X66_ARET

     1772    15705    3         END;
     1773    15706                                                      /* See if the controller exists.*/
     1774    15707    2      CONT_EXISTS = AS_FALSE;

  15707  4 000271   000000 236000 xsym               LDQ     AS_FALSE
         4 000272   400000 376003                    ANQ     -131072,DU
         4 000273   200025 756100                    STQ     CONT_EXISTS,,AUTO

     1775    15708    3      DO WHILE( CONT$ < DEV_STOP$  AND NOT CONT_EXISTS );

  15708  4 000274   000320 710000 4                  TRA     s:15715

     1776    15709    3         IF KL$CONTROLLER.CONT# = CONT# THEN

  15709  4 000275   200005 470500                    LDP0    CONT$,,AUTO
         4 000276   000100 101500                    MRL     fill='000'O
         4 000277   000002 000001                    ADSC9   2,,PR0                   cn=0,n=1
         4 000300   200036 000004                    ADSC9   LINE_NAME+6,,AUTO        cn=0,n=4
         4 000301   200036 236100                    LDQ     LINE_NAME+6,,AUTO
         4 000302   200014 116100                    CMPQ    CONT#,,AUTO
         4 000303   000310 601000 4                  TNZ     s:15712

     1777    15710    3            CONT_EXISTS = AS_TRUE;

  15710  4 000304   000000 236000 xsym               LDQ     AS_TRUE
         4 000305   400000 376003                    ANQ     -131072,DU
         4 000306   200025 756100                    STQ     CONT_EXISTS,,AUTO
PL6.E3A0      #007=ASR$R_LINE_CONT File=ASR$R_HLP.:E05TSI                        TUE 07/29/97 10:56 Page:321
         4 000307   000320 710000 4                  TRA     s:15715

     1778    15711    4         ELSE DO;

     1779    15712    4            CONT_INDEX = KL$CONTROLLER.BLKHDR.NSUBS;

  15712  4 000310   000100 101500                    MRL     fill='000'O
         4 000311   000000 200001                    ADSC9   0,,PR0                   cn=1,n=1
         4 000312   200017 000004                    ADSC9   CONT_INDEX,,AUTO         cn=0,n=4

     1780    15713    4           CONT$ = PINCRW( CONT$, SIZEW(KL$CONTROLLER)+(CONT_INDEX*SIZEW(KL$LINEDEV)))
             15713                     ;

  15713  4 000313   200017 236100                    LDQ     CONT_INDEX,,AUTO
         4 000314   000024 736000                    QLS     20
         4 000315   000004 036003                    ADLQ    4,DU
         4 000316   200005 036100                    ADLQ    CONT$,,AUTO
         4 000317   200005 756100                    STQ     CONT$,,AUTO

     1781    15714    4            END;

     1782    15715    3         END;

  15715  4 000320   200005 236100                    LDQ     CONT$,,AUTO
         4 000321   200021 116100                    CMPQ    DEV_STOP$,,AUTO
         4 000322   000325 603000 4                  TRC     s:15716
         4 000323   200025 234100                    SZN     CONT_EXISTS,,AUTO
         4 000324   000275 605000 4                  TPL     s:15709

     1783    15716    3      IF NOT CONT_EXISTS THEN DO;

  15716  4 000325   200025 234100                    SZN     CONT_EXISTS,,AUTO
         4 000326   000345 604000 4                  TMI     s:15739

     1784    15717        /*E*  ERROR:  ASR-E$CONT_NO_EXIST2-C
     1785    15718              MESSAGE: Controller %U1 does not exist.
     1786    15719        */
PL6.E3A0      #007=ASR$R_LINE_CONT File=ASR$R_HLP.:E05TSI                        TUE 07/29/97 10:56 Page:322
     1787    15720    3         AS_FIELD1.COUNT = OUT$SYM.COUNT;

  15720  4 000327   200007 470500                    LDP0    BLK$,,AUTO
         4 000330   000004 236100                    LDQ     4,,PR0
         4 000331   000000 552040 xsym               STBQ    AS_FIELD1,'40'O

     1788    15721    3         AS_FIELD1.TEXT  = OUT$SYM.TEXT;

  15721  4 000332   000004 236100                    LDQ     4,,PR0
         4 000333   000033 772000                    QRL     27
         4 000334   000000 620006                    EAX0    0,QL
         4 000335   040000 100540                    MLR     fill='040'O
         4 000336   000004 200010                    ADSC9   4,,PR0                   cn=1,n=*X0
         4 000337   000000 200050 xsym               ADSC9   AS_FIELD1                cn=1,n=40

     1789    15722              %SCREAM( ERR#=E$CONT_NO_EXIST2, LEVEL=WARN, MID='R' );

  15732  4 000340   000012 630400 5                  EPPR0   10
         4 000341   000017 631400 xsym               EPPR1   B_VECTNIL+15
         4 000342   000000 701000 xent               TSX1    ASH$WARN
         4 000343   000000 011000                    NOP     0

     1790    15737    3         RETURN;

  15737  4 000344   000000 702200 xent               TSX2  ! X66_ARET

     1791    15738    3         END;
     1792    15739    2      IF CONTROLLER THEN

  15739  4 000345   200023 234100                    SZN     CONTROLLER,,AUTO
         4 000346   000352 605000 4                  TPL     s:15742

     1793    15740    2         CALL REMOVE_CONTROLLER;

  15740  4 000347   000436 701000 4                  TSX1    REMOVE_CONTROLLER
         4 000350   000000 011000                    NOP     0
         4 000351   000354 710000 4                  TRA     s:15743
PL6.E3A0      #007=ASR$R_LINE_CONT File=ASR$R_HLP.:E05TSI                        TUE 07/29/97 10:56 Page:323

     1794    15741    2      ELSE
     1795    15742    2         CALL REMOVE_DEVICE ALTRET(EXIT#);

  15742  4 000352   000624 701000 4                  TSX1    REMOVE_DEVICE
         4 000353   000364 702000 4                  TSX2    EXIT#

     1796    15743    2      CALL ASB$WRITE_HLP( DSEG1$, ARS ) ALTRET( WRITE_LINE_ERR );

  15743  4 000354   200010 630500                    EPPR0   ARS,,AUTO
         4 000355   200037 450500                    STP0    LINE_NAME+7,,AUTO
         4 000356   000003 236000 5                  LDQ     3
         4 000357   200036 756100                    STQ     LINE_NAME+6,,AUTO
         4 000360   200036 630500                    EPPR0   LINE_NAME+6,,AUTO
         4 000361   000020 631400 xsym               EPPR1   B_VECTNIL+16
         4 000362   000000 701000 xent               TSX1    ASB$WRITE_HLP
         4 000363   000431 702000 4                  TSX2    DEL_ERR

     1797    15744    2      END;

     1798    15745    1   EXIT#:
     1799    15746    1   CALL ASB$DEQ_HLP ALTRET( DEQ_ERR ) ;

  15746  4 000364   000002 631400 xsym  EXIT#        EPPR1   B_VECTNIL+2
         4 000365   000000 701000 xent               TSX1    ASB$DEQ_HLP
         4 000366   000435 702000 4                  TSX2    ENQ_ERR

     1800    15747                                                              /* All done */
     1801    15748    1   RETURN ;

  15748  4 000367   000000 702200 xent               TSX2  ! X66_ARET

  15738  4 000370                       NETCON_ERR   null
     1802    15749                                                              /*  Errors  */
     1803    15750    1   NETCON_ERR:;
     1804    15751    1   ERR_CODE = B$TCB$->B$TCB.ALT$->B$ALT.ERR;

PL6.E3A0      #007=ASR$R_LINE_CONT File=ASR$R_HLP.:E05TSI                        TUE 07/29/97 10:56 Page:324
  15751  4 000370   000000 470400 xsym               LDP0    B$TCB$
         4 000371   000000 471500                    LDP1    0,,PR0
         4 000372   100102 236100                    LDQ     66,,PR1
         4 000373   000000 756000 xsym               STQ     ERR_CODE

     1805    15752    1   CALL ASH$ERROR(ERR_CODE);

  15752  4 000374   000013 630400 5                  EPPR0   11
         4 000375   000017 631400 xsym               EPPR1   B_VECTNIL+15
         4 000376   000000 701000 xent               TSX1    ASH$ERROR
         4 000377   000000 011000                    NOP     0

     1806    15753    1   RETURN;

  15753  4 000400   000000 702200 xent               TSX2  ! X66_ARET

  15751  4 000401                       READ_LINE_E* null
     1807    15754                                                              /**/
     1808    15755    1   READ_LINE_ERR: ;
     1809    15756    2   IF MERR_CODE.CODE = %E$LD THEN DO;

  15756  4 000401   000000 236000 xsym               LDQ     ERR_CODE
         4 000402   377770 376007                    ANQ     131064,DL
         4 000403   000070 116007                    CMPQ    56,DL
         4 000404   000412 601000 4                  TNZ     s:15761

     1810    15757    2      CALL ASB$GET_MORE_SEG( 1, 4096 ) ALTRET( GETSEG_ERR );

  15757  4 000405   000015 630400 5                  EPPR0   13
         4 000406   000020 631400 xsym               EPPR1   B_VECTNIL+16
         4 000407   000000 701000 xent               TSX1    ASB$GET_MORE_SEG
         4 000410   000034 702000 4                  TSX2    GETSEG_ERR

     1811    15758    2      GOTO READ_LINE_REC;

  15758  4 000411   000107 710000 4                  TRA     READ_LINE_REC

PL6.E3A0      #007=ASR$R_LINE_CONT File=ASR$R_HLP.:E05TSI                        TUE 07/29/97 10:56 Page:325
     1812    15759    2      END;
     1813    15760    1   ELSE
     1814    15761    2      IF MERR_CODE.CODE = %E$NOKEY THEN DO;

  15761  4 000412   001020 116007                    CMPQ    528,DL
         4 000413   000424 601000 4                  TNZ     s:15783

     1815    15762        /*E* ERROR:   ASR-E$LINE_NO_EXIST2-C
     1816    15763             MESSAGE: Line %U1 does not exist.
     1817    15764        */
     1818    15765    2         AS_FIELD1 = LINE_NAME;

  15765  4 000414   000000 100500                    MLR     fill='000'O
         4 000415   200030 000011                    ADSC9   LINE_NAME,,AUTO          cn=0,n=9
         4 000416   000000 000051 xsym               ADSC9   AS_FIELD1                cn=0,n=41

     1819    15766              %SCREAM( ERR#=E$LINE_NO_EXIST2, MID='R', LEVEL=WARN );

  15776  4 000417   000017 630400 5                  EPPR0   15
         4 000420   000017 631400 xsym               EPPR1   B_VECTNIL+15
         4 000421   000000 701000 xent               TSX1    ASH$WARN
         4 000422   000000 011000                    NOP     0

     1820    15781    2         END;

  15781  4 000423   000430 710000 4                  TRA     s:15785

     1821    15782    2      ELSE DO;

     1822    15783    2         CALL ASA$ERROR( USERS_KEY, E$UNABLE_TO_READ_HLP );

  15783  4 000424   000021 630400 5                  EPPR0   17
         4 000425   000020 631400 xsym               EPPR1   B_VECTNIL+16
         4 000426   000000 701000 xent               TSX1    ASA$ERROR
         4 000427   000000 011000                    NOP     0

     1823    15784    2         END;
PL6.E3A0      #007=ASR$R_LINE_CONT File=ASR$R_HLP.:E05TSI                        TUE 07/29/97 10:56 Page:326

     1824    15785    1   RETURN;

  15785  4 000430   000000 702200 xent               TSX2  ! X66_ARET

  15783  4 000431                       DEL_ERR      null
  15783  4 000431                       WRITE_LINE_* null
     1825    15786
     1826    15787    1   DEL_ERR: ;
     1827    15788    1   WRITE_LINE_ERR: ;
     1828    15789    1   CALL ASH$ERROR( ERR_CODE );

  15789  4 000431   000013 630400 5                  EPPR0   11
         4 000432   000017 631400 xsym               EPPR1   B_VECTNIL+15
         4 000433   000000 701000 xent               TSX1    ASH$ERROR
         4 000434   000000 011000                    NOP     0

  15783  4 000435                       ENQ_ERR      null
  15783  4 000435                       DEQ_ERR      null
     1829    15790    1   ENQ_ERR: ;
     1830    15791    1   DEQ_ERR: ;
     1831    15792    1   RETURN;

  15792  4 000435   000000 702200 xent               TSX2  ! X66_ARET

     1832    15793
     1833    15794        %EJECT;
PL6.E3A0      #007=ASR$R_LINE_CONT File=ASR$R_HLP.:E05TSI                        TUE 07/29/97 10:56 Page:327
     1834    15795    1   REMOVE_CONTROLLER: PROC;

  15795  4 000436   200034 741300       REMOVE_CONT* STX1  ! LINE_NAME+4,,AUTO

     1835    15796
     1836    15797
     1837    15798        /*E*  ERROR:  ASR-E$CONT_REMOVED-C
     1838    15799              MESSAGE:.... Controller %U1 for line %U2 removed.
     1839    15800        */
     1840    15801    2   CONT# = KL$CONTROLLER.CONT#;

  15801  4 000437   200005 470500                    LDP0    CONT$,,AUTO
         4 000440   000100 101500                    MRL     fill='000'O
         4 000441   000002 000001                    ADSC9   2,,PR0                   cn=0,n=1
         4 000442   200014 000004                    ADSC9   CONT#,,AUTO              cn=0,n=4

     1841    15802        %NUMBER( NUM1=CONT# );
             15810    2         CALL ASB$BINCHAR( AS_FIELD1.TEXT, 0, -1, CONT# );

  15810  4 000443   200014 631500                    EPPR1   CONT#,,AUTO
         4 000444   200041 451500                    STP1    LINE_NAME+9,,AUTO
         4 000445   000023 236000 5                  LDQ     19
         4 000446   200040 756100                    STQ     LINE_NAME+8,,AUTO
         4 000447   000024 237000 5                  LDAQ    20
         4 000450   200036 757100                    STAQ    LINE_NAME+6,,AUTO
         4 000451   200036 630500                    EPPR0   LINE_NAME+6,,AUTO
         4 000452   000022 631400 xsym               EPPR1   B_VECTNIL+18
         4 000453   000000 701000 xent               TSX1    ASB$BINCHAR
         4 000454   000000 011000                    NOP     0

     1842    15832    2   AS_FIELD2 = LINE_NAME;

  15832  4 000455   000000 100500                    MLR     fill='000'O
         4 000456   200030 000011                    ADSC9   LINE_NAME,,AUTO          cn=0,n=9
         4 000457   000000 000051 xsym               ADSC9   AS_FIELD2                cn=0,n=41

     1843    15833        %SCREAM( ERR#=E$CONT_REMOVED, LEVEL=INFO, MID='R' );
PL6.E3A0      #007=ASR$R_LINE_CONT File=ASR$R_HLP.:E05TSI                        TUE 07/29/97 10:56 Page:328

  15841  4 000460   000026 630400 5                  EPPR0   22
         4 000461   000017 631400 xsym               EPPR1   B_VECTNIL+15
         4 000462   000000 701000 xent               TSX1    ASH$INFO
         4 000463   000000 011000                    NOP     0

     1844    15848
     1845    15849    2   DEV$ = PINCRW( CONT$, SIZEW(KL$CONTROLLER));

  15849  4 000464   200005 236100                    LDQ     CONT$,,AUTO
         4 000465   000004 036003                    ADLQ    4,DU
         4 000466   200004 756100                    STQ     DEV$,,AUTO

     1846    15850    2   PTR$ = PINCRW(DEV$, KL$CONTROLLER.BLKHDR.NSUBS*SIZEW(KL$LINEDEV));

  15850  4 000467   200005 470500                    LDP0    CONT$,,AUTO
         4 000470   000100 101500                    MRL     fill='000'O
         4 000471   000000 200001                    ADSC9   0,,PR0                   cn=1,n=1
         4 000472   200036 000002                    ADSC9   LINE_NAME+6,,AUTO        cn=0,n=2
         4 000473   200036 220100                    LDX0    LINE_NAME+6,,AUTO
         4 000474   000000 636010                    EAQ     0,X0
         4 000475   000002 736000                    QLS     2
         4 000476   200004 036100                    ADLQ    DEV$,,AUTO
         4 000477   200003 756100                    STQ     PTR$,,AUTO

     1847    15851    2   DONE = '0'B;

  15851  4 000500   200027 450100                    STZ     DONE,,AUTO

     1848    15852    3   IF KL$CONTROLLER.BLKHDR.NSUBS > 0 THEN DO;

  15852  4 000501   000100 101500                    MRL     fill='000'O
         4 000502   000000 200001                    ADSC9   0,,PR0                   cn=1,n=1
         4 000503   200036 000004                    ADSC9   LINE_NAME+6,,AUTO        cn=0,n=4
         4 000504   200036 236100                    LDQ     LINE_NAME+6,,AUTO
         4 000505   000000 116003                    CMPQ    0,DU
         4 000506   000553 600000 4                  TZE     s:15911
PL6.E3A0      #007=ASR$R_LINE_CONT File=ASR$R_HLP.:E05TSI                        TUE 07/29/97 10:56 Page:329

     1849    15853    4      DO WHILE( DEV$ < PTR$  AND  NOT DONE );

  15853  4 000507   000546 710000 4                  TRA     s:15908

     1850    15854    5         IF KL$LINEDEV.CONTROLLER# = CONT# THEN DO;

  15854  4 000510   200004 470500                    LDP0    DEV$,,AUTO
         4 000511   000100 101500                    MRL     fill='000'O
         4 000512   000002 000001                    ADSC9   2,,PR0                   cn=0,n=1
         4 000513   200036 000004                    ADSC9   LINE_NAME+6,,AUTO        cn=0,n=4
         4 000514   200036 236100                    LDQ     LINE_NAME+6,,AUTO
         4 000515   200014 116100                    CMPQ    CONT#,,AUTO
         4 000516   000544 601000 4                  TNZ     s:15907

     1851    15855        /*E*  ERROR:  ASR-E$CONT_DEV_REMOVED-C
     1852    15856              MESSAGE:...... Device %U1 removed.
     1853    15857        */
     1854    15858    5            DEV# = KL$LINEDEV.DEVICE#;

  15858  4 000517   000100 101500                    MRL     fill='000'O
         4 000520   000002 200001                    ADSC9   2,,PR0                   cn=1,n=1
         4 000521   200015 000004                    ADSC9   DEV#,,AUTO               cn=0,n=4

     1855    15859                 %NUMBER( NUM1=DEV# );
             15867    5         CALL ASB$BINCHAR( AS_FIELD1.TEXT, 0, -1, DEV# );

  15867  4 000522   200015 631500                    EPPR1   DEV#,,AUTO
         4 000523   200041 451500                    STP1    LINE_NAME+9,,AUTO
         4 000524   000023 236000 5                  LDQ     19
         4 000525   200040 756100                    STQ     LINE_NAME+8,,AUTO
         4 000526   000024 237000 5                  LDAQ    20
         4 000527   200036 757100                    STAQ    LINE_NAME+6,,AUTO
         4 000530   200036 630500                    EPPR0   LINE_NAME+6,,AUTO
         4 000531   000022 631400 xsym               EPPR1   B_VECTNIL+18
         4 000532   000000 701000 xent               TSX1    ASB$BINCHAR
         4 000533   000000 011000                    NOP     0
PL6.E3A0      #007=ASR$R_LINE_CONT File=ASR$R_HLP.:E05TSI                        TUE 07/29/97 10:56 Page:330

     1856    15889                 %SCREAM( ERR#=E$CONT_DEV_REMOVED, LEVEL=INFO, MID='R' );

  15897  4 000534   000027 630400 5                  EPPR0   23
         4 000535   000017 631400 xsym               EPPR1   B_VECTNIL+15
         4 000536   000000 701000 xent               TSX1    ASH$INFO
         4 000537   000000 011000                    NOP     0

     1857    15904    5            DEV$ = PINCRW(DEV$, SIZEW(KL$LINEDEV));

  15904  4 000540   200004 236100                    LDQ     DEV$,,AUTO
         4 000541   000004 036003                    ADLQ    4,DU
         4 000542   200004 756100                    STQ     DEV$,,AUTO

     1858    15905    5            END;

  15905  4 000543   000546 710000 4                  TRA     s:15908

     1859    15906    4         ELSE
     1860    15907    4            DONE = '1'B;

  15907  4 000544   400000 236003                    LDQ     -131072,DU
         4 000545   200027 756100                    STQ     DONE,,AUTO

     1861    15908    4         END;

  15908  4 000546   200004 236100                    LDQ     DEV$,,AUTO
         4 000547   200003 116100                    CMPQ    PTR$,,AUTO
         4 000550   000553 603000 4                  TRC     s:15911
         4 000551   200027 234100                    SZN     DONE,,AUTO
         4 000552   000510 605000 4                  TPL     s:15854

     1862    15909    3      END;

     1863    15910
     1864    15911    3   IF NOT LINE THEN DO;

PL6.E3A0      #007=ASR$R_LINE_CONT File=ASR$R_HLP.:E05TSI                        TUE 07/29/97 10:56 Page:331
  15911  4 000553   200022 234100                    SZN     LINE,,AUTO
         4 000554   000622 604000 4                  TMI     s:15923

     1865    15912    3      MOVE_SIZE = POFFW(DEV_STOP$,PTR$) * 4;

  15912  4 000555   200003 235100                    LDA     PTR$,,AUTO
         4 000556   000022 771000                    ARL     18
         4 000557   200036 755100                    STA     LINE_NAME+6,,AUTO
         4 000560   200021 236100                    LDQ     DEV_STOP$,,AUTO
         4 000561   000022 772000                    QRL     18
         4 000562   200036 136100                    SBLQ    LINE_NAME+6,,AUTO
         4 000563   000002 736000                    QLS     2
         4 000564   200013 756100                    STQ     MOVE_SIZE,,AUTO

     1866    15913    3      KL$DREC.NWINFO = KL$DREC.NWINFO - POFFW(PTR$, CONT$);

  15913  4 000565   200005 235100                    LDA     CONT$,,AUTO
         4 000566   000022 771000                    ARL     18
         4 000567   200036 755100                    STA     LINE_NAME+6,,AUTO
         4 000570   200003 236100                    LDQ     PTR$,,AUTO
         4 000571   000022 772000                    QRL     18
         4 000572   200036 136100                    SBLQ    LINE_NAME+6,,AUTO
         4 000573   200037 756100                    STQ     LINE_NAME+7,,AUTO
         4 000574   000000 470400 xsym               LDP0    DSEG1$
         4 000575   000017 236100                    LDQ     15,,PR0
         4 000576   200037 136100                    SBLQ    LINE_NAME+7,,AUTO
         4 000577   000017 756100                    STQ     15,,PR0

     1867    15914    3      ARS = LENGTHC(KL_DREC_CNT) + KL$DREC.NWINFO * 4;

  15914  4 000600   000017 235100                    LDA     15,,PR0
         4 000601   000002 735000                    ALS     2
         4 000602   000100 035007                    ADLA    64,DL
         4 000603   200010 755100                    STA     ARS,,AUTO

     1868    15915    4      IF MOVE_SIZE > 0 THEN DO;

PL6.E3A0      #007=ASR$R_LINE_CONT File=ASR$R_HLP.:E05TSI                        TUE 07/29/97 10:56 Page:332
  15915  4 000604   200013 235100                    LDA     MOVE_SIZE,,AUTO
         4 000605   000622 600000 4                  TZE     s:15923

     1869    15916    4         KL$DREC.LN.BLKHDR.NSUBS = KL$DREC.LN.BLKHDR.NSUBS  - 1;

  15916  4 000606   000020 236100                    LDQ     16,,PR0
         4 000607   000777 036003                    ADLQ    511,DU
         4 000610   000020 552120                    STBQ    16,'20'O,PR0

     1870    15917    4         IF MOVE_SIZE > 0 THEN

  15917  4 000611   000000 115003                    CMPA    0,DU
         4 000612   000622 600000 4                  TZE     s:15923

     1871    15918    4            CONT$->MOVE$TEMP = PTR$->MOVE$TEMP;

  15918  4 000613   200003 471500                    LDP1    PTR$,,AUTO
         4 000614   000000 620005                    EAX0    0,AL
         4 000615   200005 473500                    LDP3    CONT$,,AUTO
         4 000616   200013 721100                    LXL1    MOVE_SIZE,,AUTO
         4 000617   040140 100540                    MLR     fill='040'O
         4 000620   100000 000010                    ADSC9   0,,PR1                   cn=0,n=*X0
         4 000621   300000 000011                    ADSC9   0,,PR3                   cn=0,n=*X1

     1872    15919    4         END; /*   Size > 0  */

     1873    15920    3      END;

     1874    15921
     1875    15922
     1876    15923    2   END REMOVE_CONTROLLER;

  15923  4 000622   200034 221300                    LDX1  ! LINE_NAME+4,,AUTO
         4 000623   000001 702211                    TSX2  ! 1,X1

     1877    15924        %EJECT;
PL6.E3A0      #007=ASR$R_LINE_CONT File=ASR$R_HLP.:E05TSI                        TUE 07/29/97 10:56 Page:333
     1878    15925    1   REMOVE_DEVICE: PROC ALTRET;

  15925  4 000624   200034 741300       REMOVE_DEVI* STX1  ! LINE_NAME+4,,AUTO

     1879    15926
     1880    15927
     1881    15928    2   BLK$ = P$NODE.SUBLK$(0);

  15928  4 000625   000000 470400 xsym               LDP0    NODE$
         4 000626   000003 236100                    LDQ     3,,PR0
         4 000627   200007 756100                    STQ     BLK$,,AUTO

     1882    15929    2   CALL CHARBIN(DEV#, OUT$SYM.TEXT);

  15929  4 000630   200007 471500                    LDP1    BLK$,,AUTO
         4 000631   100004 236100                    LDQ     4,,PR1
         4 000632   000033 772000                    QRL     27
         4 000633   000000 620006                    EAX0    0,QL
         4 000634   000100 305540                    DTB
         4 000635   100004 230010                    NDSC9   4,,PR1                   cn=1,s=nosgn,sf=0,n=*X0
         4 000636   200036 000010                    NDSC9   LINE_NAME+6,,AUTO        cn=0,s=lsgnf,sf=0,n=8
         4 000637   200037 235100                    LDA     LINE_NAME+7,,AUTO
         4 000640   200015 755100                    STA     DEV#,,AUTO

     1883    15930    3   IF DEV# > 31 THEN DO;

  15930  4 000641   000040 115007                    CMPA    32,DL
         4 000642   000651 602000 4                  TNC     s:15953

     1884    15931        /*E*  ERROR:  ASR-E$BAD_CONT_DEV_NUM-C
     1885    15932              MESSAGE: Invalid DEVICE number.
     1886    15933              MESSAGE1: A DEVICE number must be between 0 and 31.
     1887    15934        */
     1888    15935           %SCREAM( ERR#=E$BAD_CONT_DEV_NUM, LEVEL=ERROR, MID='R' );

  15947  4 000643   000030 630400 5                  EPPR0   24
         4 000644   000017 631400 xsym               EPPR1   B_VECTNIL+15
PL6.E3A0      #007=ASR$R_LINE_CONT File=ASR$R_HLP.:E05TSI                        TUE 07/29/97 10:56 Page:334
         4 000645   000000 701000 xent               TSX1    ASH$ERROR
         4 000646   000000 011000                    NOP     0

     1889    15950    3      ALTRETURN;

  15950  4 000647   200034 221300                    LDX1  ! LINE_NAME+4,,AUTO
         4 000650   000000 702211                    TSX2  ! 0,X1

     1890    15951    3      END;
     1891    15952
     1892    15953    2   DEV$ = PINCRW( CONT$, SIZEW( KL$CONTROLLER));

  15953  4 000651   200005 236100                    LDQ     CONT$,,AUTO
         4 000652   000004 036003                    ADLQ    4,DU
         4 000653   200004 756100                    STQ     DEV$,,AUTO

     1893    15954    2   DONE = '0'B;

  15954  4 000654   200027 450100                    STZ     DONE,,AUTO

     1894    15955    2   FOUND = '0'B;

  15955  4 000655   200026 450100                    STZ     FOUND,,AUTO

     1895    15956    2   TEMP$ = PINCRW( DEV$, KL$CONTROLLER.BLKHDR.NSUBS*SIZEW(KL$LINEDEV));

  15956  4 000656   200005 473500                    LDP3    CONT$,,AUTO
         4 000657   000100 101500                    MRL     fill='000'O
         4 000660   300000 200001                    ADSC9   0,,PR3                   cn=1,n=1
         4 000661   200036 000002                    ADSC9   LINE_NAME+6,,AUTO        cn=0,n=2
         4 000662   200036 220100                    LDX0    LINE_NAME+6,,AUTO
         4 000663   000000 636010                    EAQ     0,X0
         4 000664   000002 736000                    QLS     2
         4 000665   200004 036100                    ADLQ    DEV$,,AUTO
         4 000666   200006 756100                    STQ     TEMP$,,AUTO

     1896    15957    3   DO WHILE( DEV$ < TEMP$  AND  NOT FOUND  AND  NOT DONE );
PL6.E3A0      #007=ASR$R_LINE_CONT File=ASR$R_HLP.:E05TSI                        TUE 07/29/97 10:56 Page:335

  15957  4 000667   000725 710000 4                  TRA     s:15965

     1897    15958    3      IF KL$LINEDEV.CONTROLLER# = CONT# AND KL$LINEDEV.DEVICE# = DEV# THEN

  15958  4 000670   200004 470500                    LDP0    DEV$,,AUTO
         4 000671   000100 101500                    MRL     fill='000'O
         4 000672   000002 000001                    ADSC9   2,,PR0                   cn=0,n=1
         4 000673   200036 000004                    ADSC9   LINE_NAME+6,,AUTO        cn=0,n=4
         4 000674   200036 236100                    LDQ     LINE_NAME+6,,AUTO
         4 000675   200014 116100                    CMPQ    CONT#,,AUTO
         4 000676   000710 601000 4                  TNZ     s:15961
         4 000677   000100 101500                    MRL     fill='000'O
         4 000700   000002 200001                    ADSC9   2,,PR0                   cn=1,n=1
         4 000701   200037 000004                    ADSC9   LINE_NAME+7,,AUTO        cn=0,n=4
         4 000702   200037 236100                    LDQ     LINE_NAME+7,,AUTO
         4 000703   200015 116100                    CMPQ    DEV#,,AUTO
         4 000704   000710 601000 4                  TNZ     s:15961

     1898    15959    3         FOUND = '1'B;

  15959  4 000705   400000 236003                    LDQ     -131072,DU
         4 000706   200026 756100                    STQ     FOUND,,AUTO
         4 000707   000725 710000 4                  TRA     s:15965

     1899    15960    3      ELSE
     1900    15961    3         IF KL$LINEDEV.DEVICE# > DEV# THEN

  15961  4 000710   000100 101500                    MRL     fill='000'O
         4 000711   000002 200001                    ADSC9   2,,PR0                   cn=1,n=1
         4 000712   200036 000004                    ADSC9   LINE_NAME+6,,AUTO        cn=0,n=4
         4 000713   200036 236100                    LDQ     LINE_NAME+6,,AUTO
         4 000714   200015 116100                    CMPQ    DEV#,,AUTO
         4 000715   000722 602000 4                  TNC     s:15964
         4 000716   000722 600000 4                  TZE     s:15964

     1901    15962    3            DONE = '1'B;
PL6.E3A0      #007=ASR$R_LINE_CONT File=ASR$R_HLP.:E05TSI                        TUE 07/29/97 10:56 Page:336

  15962  4 000717   400000 236003                    LDQ     -131072,DU
         4 000720   200027 756100                    STQ     DONE,,AUTO
         4 000721   000725 710000 4                  TRA     s:15965

     1902    15963    3         ELSE
     1903    15964    3            DEV$ = PINCRW(DEV$, SIZEW(KL$LINEDEV));

  15964  4 000722   200004 236100                    LDQ     DEV$,,AUTO
         4 000723   000004 036003                    ADLQ    4,DU
         4 000724   200004 756100                    STQ     DEV$,,AUTO

     1904    15965    3      END;

  15965  4 000725   200004 236100                    LDQ     DEV$,,AUTO
         4 000726   200006 116100                    CMPQ    TEMP$,,AUTO
         4 000727   000734 603000 4                  TRC     s:15975
         4 000730   200026 234100                    SZN     FOUND,,AUTO
         4 000731   000734 604000 4                  TMI     s:15975
         4 000732   200027 234100                    SZN     DONE,,AUTO
         4 000733   000670 605000 4                  TPL     s:15958

     1905    15966
     1906    15967        %NUMBER( NUM1=DEV#, NUM2=CONT# );
             15975    2         CALL ASB$BINCHAR( AS_FIELD1.TEXT, 0, -1, DEV# );

  15975  4 000734   200015 630500                    EPPR0   DEV#,,AUTO
         4 000735   200041 450500                    STP0    LINE_NAME+9,,AUTO
         4 000736   000023 236000 5                  LDQ     19
         4 000737   200040 756100                    STQ     LINE_NAME+8,,AUTO
         4 000740   000024 237000 5                  LDAQ    20
         4 000741   200036 757100                    STAQ    LINE_NAME+6,,AUTO
         4 000742   200036 630500                    EPPR0   LINE_NAME+6,,AUTO
         4 000743   000022 631400 xsym               EPPR1   B_VECTNIL+18
         4 000744   000000 701000 xent               TSX1    ASB$BINCHAR
         4 000745   000000 011000                    NOP     0

PL6.E3A0      #007=ASR$R_LINE_CONT File=ASR$R_HLP.:E05TSI                        TUE 07/29/97 10:56 Page:337
             15983    2         CALL ASB$BINCHAR( AS_FIELD2.TEXT, 0, -2, CONT# );

  15983  4 000746   200014 630500                    EPPR0   CONT#,,AUTO
         4 000747   200041 450500                    STP0    LINE_NAME+9,,AUTO
         4 000750   000032 236000 5                  LDQ     26
         4 000751   200040 756100                    STQ     LINE_NAME+8,,AUTO
         4 000752   000034 237000 5                  LDAQ    28
         4 000753   200036 757100                    STAQ    LINE_NAME+6,,AUTO
         4 000754   200036 630500                    EPPR0   LINE_NAME+6,,AUTO
         4 000755   000022 631400 xsym               EPPR1   B_VECTNIL+18
         4 000756   000000 701000 xent               TSX1    ASB$BINCHAR
         4 000757   000000 011000                    NOP     0

     1907    15997    2   AS_FIELD3 = LINE_NAME;

  15997  4 000760   000000 100500                    MLR     fill='000'O
         4 000761   200030 000011                    ADSC9   LINE_NAME,,AUTO          cn=0,n=9
         4 000762   000000 000051 xsym               ADSC9   AS_FIELD3                cn=0,n=41

     1908    15998    3   IF FOUND THEN DO;

  15998  4 000763   200026 234100                    SZN     FOUND,,AUTO
         4 000764   001040 605000 4                  TPL     s:16040

     1909    15999    3      PTR$ = PINCRW(DEV$, SIZEW(KL$LINEDEV));

  15999  4 000765   200004 236100                    LDQ     DEV$,,AUTO
         4 000766   000004 036003                    ADLQ    4,DU
         4 000767   200003 756100                    STQ     PTR$,,AUTO

     1910    16000    3      MOVE_SIZE = POFFW(DEV_STOP$, PTR$) * 4;

  16000  4 000770   200003 235100                    LDA     PTR$,,AUTO
         4 000771   000022 771000                    ARL     18
         4 000772   200036 755100                    STA     LINE_NAME+6,,AUTO
         4 000773   200021 236100                    LDQ     DEV_STOP$,,AUTO
         4 000774   000022 772000                    QRL     18
PL6.E3A0      #007=ASR$R_LINE_CONT File=ASR$R_HLP.:E05TSI                        TUE 07/29/97 10:56 Page:338
         4 000775   200036 136100                    SBLQ    LINE_NAME+6,,AUTO
         4 000776   000002 736000                    QLS     2
         4 000777   200013 756100                    STQ     MOVE_SIZE,,AUTO

     1911    16001    3      KL$DREC.NWINFO = KL$DREC.NWINFO - SIZEW(KL$LINEDEV);

  16001  4 001000   000000 470400 xsym               LDP0    DSEG1$
         4 001001   000017 235100                    LDA     15,,PR0
         4 001002   000004 135007                    SBLA    4,DL
         4 001003   000017 755100                    STA     15,,PR0

     1912    16002    3      ARS = LENGTHC(KL_DREC_CNT) + KL$DREC.NWINFO * 4;

  16002  4 001004   000017 235100                    LDA     15,,PR0
         4 001005   000002 735000                    ALS     2
         4 001006   000100 035007                    ADLA    64,DL
         4 001007   200010 755100                    STA     ARS,,AUTO

     1913    16003    3      IF MOVE_SIZE > 0 THEN

  16003  4 001010   000000 116003                    CMPQ    0,DU
         4 001011   001021 600000 4                  TZE     s:16016

     1914    16004    3         DEV$->MOVE$TEMP = PTR$->MOVE$TEMP;

  16004  4 001012   200003 471500                    LDP1    PTR$,,AUTO
         4 001013   000000 620006                    EAX0    0,QL
         4 001014   200004 473500                    LDP3    DEV$,,AUTO
         4 001015   200013 721100                    LXL1    MOVE_SIZE,,AUTO
         4 001016   040140 100540                    MLR     fill='040'O
         4 001017   100000 000010                    ADSC9   0,,PR1                   cn=0,n=*X0
         4 001020   300000 000011                    ADSC9   0,,PR3                   cn=0,n=*X1

     1915    16005        /*E*  ERROR:  ASR-E$LINEDEV_REMOVED-C
     1916    16006              MESSAGE: Device %U1 for line %U3 controller %U2 removed.
     1917    16007        */
     1918    16008           %SCREAM( ERR#=E$LINEDEV_REMOVED, LEVEL=INFO, MID='R' );
PL6.E3A0      #007=ASR$R_LINE_CONT File=ASR$R_HLP.:E05TSI                        TUE 07/29/97 10:56 Page:339

  16016  4 001021   000036 630400 5                  EPPR0   30
         4 001022   000017 631400 xsym               EPPR1   B_VECTNIL+15
         4 001023   000000 701000 xent               TSX1    ASH$INFO
         4 001024   000000 011000                    NOP     0

     1919    16023    3      KL$CONTROLLER.BLKHDR.NSUBS = KL$CONTROLLER.BLKHDR.NSUBS - 1;

  16023  4 001025   200005 470500                    LDP0    CONT$,,AUTO
         4 001026   000100 101500                    MRL     fill='000'O
         4 001027   000000 200001                    ADSC9   0,,PR0                   cn=1,n=1
         4 001030   200037 000004                    ADSC9   LINE_NAME+7,,AUTO        cn=0,n=4
         4 001031   200037 236100                    LDQ     LINE_NAME+7,,AUTO
         4 001032   000001 136007                    SBLQ    1,DL
         4 001033   200036 756100                    STQ     LINE_NAME+6,,AUTO
         4 001034   000100 101500                    MRL     fill='000'O
         4 001035   200036 000004                    ADSC9   LINE_NAME+6,,AUTO        cn=0,n=4
         4 001036   000000 200001                    ADSC9   0,,PR0                   cn=1,n=1

     1920    16024    3      END;

  16024  4 001037   001044 710000 4                  TRA     s:16047

     1921    16025    3   ELSE DO;

     1922    16026        /*E*  ERROR:  ASR-E$LINEDEV_NO_EXIST1-C
     1923    16027              MESSAGE: Device %U1 does not exist.
     1924    16028              MESSAGE1: Device %U1 for line %U3 controller %U2, does not exist.
     1925    16029        */
     1926    16030           %SCREAM( ERR#=E$LINEDEV_NO_EXIST1, LEVEL=WARN, MID='R' );

  16040  4 001040   000037 630400 5                  EPPR0   31
         4 001041   000017 631400 xsym               EPPR1   B_VECTNIL+15
         4 001042   000000 701000 xent               TSX1    ASH$WARN
         4 001043   000000 011000                    NOP     0

     1927    16045    3      END;
PL6.E3A0      #007=ASR$R_LINE_CONT File=ASR$R_HLP.:E05TSI                        TUE 07/29/97 10:56 Page:340

     1928    16046                                                              /**/
     1929    16047    2   END REMOVE_DEVICE;

  16047  4 001044   200034 221300                    LDX1  ! LINE_NAME+4,,AUTO
         4 001045   000001 702211                    TSX2  ! 1,X1
     1930    16048
     1931    16049
     1932    16050
     1933    16051
     1934    16052    1   END ASR$R_LINE_CONT;

PL6.E3A0      #007=ASR$R_LINE_CONT File=ASR$R_HLP.:E05TSI                        TUE 07/29/97 10:56 Page:341
--  Include file information  --

   AS_SUPER_R.:E05TOU  cannot be made into a system file and is referenced.
   XU_FORMAT_C.:E05TOU  is referenced.
   XU_MACRO_C.:E05TOU  is referenced.
   KL_SUPER_C.:E05TOU  is referenced.
   AS_MAC_C.:E05TOU  cannot be made into a system file and is referenced.
   AS_SUBS_C.:E05TOU  is referenced.
   AS_SUPER_C.:E05TOU  is referenced.
   AS_ENTRIES_M.:E05TOU  is referenced.
   B_ERRORS_C.:E05TOU  is referenced.
   KL_CONFIG_M.:E05TOU  is referenced.
   AS_PERR_C.:E05TOU  is referenced.
   CP_6.:E05TOU  cannot be made into a system file and is referenced.
   B$JIT_C.:E05TOU  was found in the system file and is never referenced.
   CP_6_C.:E05TOU  was found in the system file and is referenced.
      No diagnostics issued in procedure ASR$R_LINE_CONT.
PL6.E3A0      #007=ASR$R_LINE_CONT File=ASR$R_HLP.:E05TSI                        TUE 07/29/97 10:56 Page:342

 **** Variables and constants ****

  ****  Section 002  Data  ASR$R_LINE_CONT

  ****  Scalars and arrays  ****
OctLoc.c.b A Datatyp(siz) R M Lvl/name                 OctLoc.c.b A Datatyp(siz) R M Lvl/name

     3-0-0/w STRC(162)   r     1 KL_TERM_KEY                0-0-0/w STRC(90)    r     1 LINE_KEY

  ****  Auto variables  ****

  ****  Scalars and arrays  ****
OctLoc.c.b A Datatyp(siz) R M Lvl/name                 OctLoc.c.b A Datatyp(siz) R M Lvl/name

    10-0-0/w UBIN        r     1 ARS                        7-0-0/w PTR         r     1 BLK$
    14-0-0/w UBIN        r     1 CONT#                      5-0-0/w PTR         r     1 CONT$
    23-0-0/b BIT         r     1 CONTROLLER                25-0-0/b BIT         r     1 CONT_EXISTS
    17-0-0/w UBIN        r     1 CONT_INDEX                15-0-0/w UBIN        r     1 DEV#
     4-0-0/w PTR         r     1 DEV$                      24-0-0/b BIT         r     1 DEVICE
    16-0-0/w UBIN        r     1 DEV_SIZEW                 20-0-0/w PTR         r     1 DEV_START$
    21-0-0/w PTR         r     1 DEV_STOP$                 27-0-0/b BIT         r     1 DONE
    26-0-0/b BIT         r     1 FOUND                     22-0-0/b BIT         r     1 LINE
    30-0-0/c STRC(81)    r     1 LINE_NAME                 13-0-0/w UBIN        r     1 MOVE_SIZE
     3-0-0/w PTR         r     1 PTR$                       6-0-0/w PTR         r     1 TEMP$

  ****  SYMREF variables  ****

  ****  Scalars and arrays  ****
OctLoc.c.b A Datatyp(siz) R M Lvl/name                 OctLoc.c.b A Datatyp(siz) R M Lvl/name

     0-0-0/b BIT         r     1 AS_FALSE                   0-0-0/w STRC(369)   r     1 AS_FIELD1
     0-0-0/w STRC(369)   r     1 AS_FIELD2                  0-0-0/w STRC(369)   r     1 AS_FIELD3
     0-0-0/b BIT         r     1 AS_TRUE                    0-0-0/w PTR         r     1 B$TCB$
     0-0-0/w PTR         r     1 DSEG1$                     0-0-0/w UBIN        r     1 DSEG1SIZE
     0-0-0/b BIT         r     1 DSEG_FLG                   0-0-0/b STRC        r     1 ERR_CODE
     0-0-0/w STRC(576)   r     1 KL_DREC_CNT                0-0-0/b STRC        r     1 MERR_CODE
     0-0-0/w PTR         r     1 NODE$                      0-0-0/c STRC(378)   r     1 USERS_KEY
PL6.E3A0      #007=ASR$R_LINE_CONT File=ASR$R_HLP.:E05TSI                        TUE 07/29/97 10:56 Page:343

  ****  BASED and DCB variables  ****

  ****  Scalars and arrays  ****
OctLoc.c.b A Datatyp(siz) R M Lvl/name                 OctLoc.c.b A Datatyp(siz) R M Lvl/name

     0-0-0/w STRC(2448)  r     1 B$ALT                      0-0-0/w STRC(144)   r     1 B$TCB
     0-0-0/c STRC(144)   r     1 KL$CONTROLLER              0-0-0/w STRC(684)   r     1 KL$DREC
     0-0-0/c STRC(144)   r     1 KL$LINEDEV                 0-0-0/c ACHR        r     1 MOVE$TEMP
     0-0-0/w ASTR(153)   r     1 OUT$SYM                    0-0-0/w STRC(144)   r     1 P$NODE


   Procedure ASR$R_LINE_CONT requires 550 words for executable code.
   Procedure ASR$R_LINE_CONT requires 34 words of local(AUTO) storage.

    No errors detected in file ASR$R_HLP.:E05TSI    .
PL6.E3A0      #007=ASR$R_LINE_CONT File=ASR$R_HLP.:E05TSI                        TUE 07/29/97 10:56 Page:344
          *** CROSS REFERENCE LISTING ***
**     DENOTES     IDENTIFIER DEFINITION
<<                 IDENTIFIER'S VALUE SET
>>                 IDENTIFIER'S VALUE USED
<>                 IDENTIFIER SET AND/OR USED
--                 IDENTIFIER REFERENCED
PL6.E3A0      #007=ASR$R_LINE_CONT File=ASR$R_HLP.:E05TSI                        TUE 07/29/97 10:56 Page:345
          MINI XREF LISTING

ARS
     14764**DCL     15613<<ASSIGN  15614<>CALL    15743<>CALL    15914<<ASSIGN  16002<<ASSIGN
ASA$ERROR
     14881**DCL-ENT 15783--CALL
ASA_BRKS_LOC
     11901**DCL     11901--REDEF
ASB$BINCHAR
      5565**DCL-ENT 15810--CALL    15867--CALL    15975--CALL    15983--CALL
ASB$CLOSE_NETCON
     14878**DCL-ENT 15675--CALL
ASB$DELREC_HLP
     14845**DCL-ENT 15666--CALL
ASB$DELREC_NETCON
     14875**DCL-ENT 15668--CALL
ASB$DEQ_HLP
     14857**DCL-ENT 15746--CALL
ASB$ENQ_HLP
     14854**DCL-ENT 15610--CALL
ASB$GETSEG
     14848**DCL-ENT 15559--CALL
ASB$GET_MORE_SEG
     14851**DCL-ENT 15757--CALL
ASB$READ_HLP
     14869**DCL-ENT 15614--CALL
ASB$WRITE_HLP
     14872**DCL-ENT 15743--CALL
ASH$ERROR
     14860**DCL-ENT 15574--CALL    15601--CALL    15632--CALL    15701--CALL    15752--CALL    15789--CALL
     15947--CALL
ASH$INFO
     14866**DCL-ENT 15654--CALL    15841--CALL    15897--CALL    16016--CALL
ASH$WARN
PL6.E3A0      #007=ASR$R_LINE_CONT File=ASR$R_HLP.:E05TSI                        TUE 07/29/97 10:56 Page:346
     14863**DCL-ENT 15732--CALL    15776--CALL    16040--CALL
AS_DEFAULT.BANNER_PERM
     12594**DCL     12595--REDEF
AS_DEFAULT.BUDGET.MACCT
     12499**DCL     12503--REDEF
AS_DEFAULT.BUDGET.MAX_PROJECTS
     12512**DCL     12515--REDEF
AS_DEFAULT.BUDGET.PACCUM
     12495**DCL     12497--REDEF
AS_DEFAULT.BUDGET.PMAXC
     12490**DCL     12492--REDEF
AS_DEFAULT.SETUP_CHRA.TXT
     12610**DCL     12611--REDEF   12612--REDEF
AS_DEFAULT_DREC.PASSWORD
     13864**DCL     13868--REDEF
AS_DEFAULT_DREC.RENAME
     13887**DCL     13888--REDEF
AS_DFLT.BANNER_PERM
     12416**DCL     12417--REDEF
AS_DFLT.BUDGET.MACCT
     12321**DCL     12325--REDEF
AS_DFLT.BUDGET.MAX_PROJECTS
     12334**DCL     12337--REDEF
AS_DFLT.BUDGET.PACCUM
     12317**DCL     12319--REDEF
AS_DFLT.BUDGET.PMAXC
     12312**DCL     12314--REDEF
AS_DFLT.SETUP_CHRA.TXT
     12432**DCL     12433--REDEF   12434--REDEF
AS_FALSE
     11761**DCL     15707>>ASSIGN
AS_FE_MODE
     11767**DCL     11768--REDEF
AS_FIELD1
     11897**DCL     15619<<ASSIGN  15645<<ASSIGN  15765<<ASSIGN
AS_FIELD1.COUNT
PL6.E3A0      #007=ASR$R_LINE_CONT File=ASR$R_HLP.:E05TSI                        TUE 07/29/97 10:56 Page:347
     11898**DCL     15720<<ASSIGN
AS_FIELD1.TEXT
     11898**DCL     15721<<ASSIGN  15810<>CALL    15867<>CALL    15975<>CALL
AS_FIELD2
     11898**DCL     15832<<ASSIGN
AS_FIELD2.TEXT
     11898**DCL     15983<>CALL
AS_FIELD3
     11898**DCL     15997<<ASSIGN
AS_MODE
     11764**DCL     11766--REDEF
AS_MOD_USER.ACCESS
     14629**DCL     14630--REDEF
AS_MOD_USER.BANNER
     14616**DCL     14617--REDEF
AS_MOD_USER.BANNER_PERM
     14618**DCL     14619--REDEF
AS_MOD_USER.BILL
     14624**DCL     14625--REDEF
AS_MOD_USER.CPROC
     14620**DCL     14621--REDEF
AS_MOD_USER.FEBILL
     14700**DCL     14701--REDEF
AS_MOD_USER.FECXTMEM
     14717**DCL     14718--REDEF
AS_MOD_USER.FEMINTS
     14702**DCL     14703--REDEF
AS_MOD_USER.FEMMEM
     14713**DCL     14714--REDEF
AS_MOD_USER.FEMTIME
     14711**DCL     14712--REDEF
AS_MOD_USER.FEPPRIV
     14708**DCL     14710--REDEF
AS_MOD_USER.FEPRIV
     14705**DCL     14707--REDEF
AS_MOD_USER.FORCE_BIT
PL6.E3A0      #007=ASR$R_LINE_CONT File=ASR$R_HLP.:E05TSI                        TUE 07/29/97 10:56 Page:348
     14614**DCL     14615--REDEF
AS_MOD_USER.KEY
     14696**DCL     14698--REDEF
AS_MOD_USER.LASTCPROC
     14622**DCL     14623--REDEF
AS_MOD_USER.LIMITS.DO_
     14670**DCL     14671--REDEF
AS_MOD_USER.LIMITS.FPOOLS
     14686**DCL     14687--REDEF
AS_MOD_USER.LIMITS.LO
     14666**DCL     14667--REDEF
AS_MOD_USER.LIMITS.MEM
     14662**DCL     14663--REDEF
AS_MOD_USER.LIMITS.MPRIO
     14690**DCL     14691--REDEF
AS_MOD_USER.LIMITS.PDIS
     14678**DCL     14679--REDEF
AS_MOD_USER.LIMITS.PO
     14674**DCL     14675--REDEF
AS_MOD_USER.LIMITS.TDIS
     14682**DCL     14683--REDEF
AS_MOD_USER.LIMITS.TIME
     14658**DCL     14659--REDEF
AS_MOD_USER.MAXENQ
     14639**DCL     14640--REDEF
AS_MOD_USER.PERM_BIT
     14612**DCL     14613--REDEF
AS_MOD_USER.PPRIV
     14634**DCL     14636--REDEF
AS_MOD_USER.PRIOB
     14641**DCL     14642--REDEF
AS_MOD_USER.PRIV
     14631**DCL     14633--REDEF
AS_MOD_USER.QUAN
     14637**DCL     14638--REDEF
AS_MOD_USER.SETUP
PL6.E3A0      #007=ASR$R_LINE_CONT File=ASR$R_HLP.:E05TSI                        TUE 07/29/97 10:56 Page:349
     14610**DCL     14611--REDEF
AS_PROJECT.BANNER_PERM
     12950**DCL     12951--REDEF
AS_PROJECT.BUDGET.MACCT
     12855**DCL     12859--REDEF
AS_PROJECT.BUDGET.MAX_PROJECTS
     12868**DCL     12871--REDEF
AS_PROJECT.BUDGET.PACCUM
     12851**DCL     12853--REDEF
AS_PROJECT.BUDGET.PMAXC
     12846**DCL     12848--REDEF
AS_PROJECT.SETUP_CHRA.TXT
     12966**DCL     12967--REDEF   12968--REDEF
AS_PROJECT_DFLT.BANNER_PERM
     13128**DCL     13129--REDEF
AS_PROJECT_DFLT.BUDGET.MACCT
     13033**DCL     13037--REDEF
AS_PROJECT_DFLT.BUDGET.MAX_PROJECTS
     13046**DCL     13049--REDEF
AS_PROJECT_DFLT.BUDGET.PACCUM
     13029**DCL     13031--REDEF
AS_PROJECT_DFLT.BUDGET.PMAXC
     13024**DCL     13026--REDEF
AS_PROJECT_DFLT.SETUP_CHRA.TXT
     13144**DCL     13145--REDEF   13146--REDEF
AS_PROJECT_DFLT_DREC.PASSWORD
     14350**DCL     14354--REDEF
AS_PROJECT_DFLT_DREC.RENAME
     14373**DCL     14374--REDEF
AS_PROJECT_DREC.PASSWORD
     14188**DCL     14192--REDEF
AS_PROJECT_DREC.RENAME
     14211**DCL     14212--REDEF
AS_PROJ_ADMIN.BANNER_PERM
     12772**DCL     12773--REDEF
AS_PROJ_ADMIN.BUDGET.MACCT
PL6.E3A0      #007=ASR$R_LINE_CONT File=ASR$R_HLP.:E05TSI                        TUE 07/29/97 10:56 Page:350
     12677**DCL     12681--REDEF
AS_PROJ_ADMIN.BUDGET.MAX_PROJECTS
     12690**DCL     12693--REDEF
AS_PROJ_ADMIN.BUDGET.PACCUM
     12673**DCL     12675--REDEF
AS_PROJ_ADMIN.BUDGET.PMAXC
     12668**DCL     12670--REDEF
AS_PROJ_ADMIN.SETUP_CHRA.TXT
     12788**DCL     12789--REDEF   12790--REDEF
AS_PROJ_ADMIN_DREC.PASSWORD
     14026**DCL     14030--REDEF
AS_PROJ_ADMIN_DREC.RENAME
     14049**DCL     14050--REDEF
AS_TRUE
     11761**DCL     15710>>ASSIGN
AS_USERS.BANNER_PERM
     12238**DCL     12239--REDEF
AS_USERS.BUDGET.MACCT
     12143**DCL     12147--REDEF
AS_USERS.BUDGET.MAX_PROJECTS
     12156**DCL     12159--REDEF
AS_USERS.BUDGET.PACCUM
     12139**DCL     12141--REDEF
AS_USERS.BUDGET.PMAXC
     12134**DCL     12136--REDEF
AS_USERS.SETUP_CHRA.TXT
     12254**DCL     12255--REDEF   12256--REDEF
AS_USERS_CONSTANT.BANNER_PERM
     13306**DCL     13307--REDEF
AS_USERS_CONSTANT.BUDGET.MACCT
     13211**DCL     13215--REDEF
AS_USERS_CONSTANT.BUDGET.MAX_PROJECTS
     13224**DCL     13227--REDEF
AS_USERS_CONSTANT.BUDGET.PACCUM
     13207**DCL     13209--REDEF
AS_USERS_CONSTANT.BUDGET.PMAXC
PL6.E3A0      #007=ASR$R_LINE_CONT File=ASR$R_HLP.:E05TSI                        TUE 07/29/97 10:56 Page:351
     13202**DCL     13204--REDEF
AS_USERS_CONSTANT.SETUP_CHRA.TXT
     13322**DCL     13323--REDEF   13324--REDEF
B$ALT.CODE
     15541**DCL     15541--REDEF   15542--REDEF   15542--REDEF
B$ALT.ERR
     15542**DCL     15751>>ASSIGN
B$ALT.ERR.ERR#
     15543**DCL     15543--REDEF
B$ALT.EVID
     15542**DCL     15542--REDEF   15542--REDEF
B$TCB.ALT$
     15537**DCL     15751>>ASSIGN
B$TCB$
     15535**DCL     15751>>ASSIGN
BLK$
     14763**DCL     14942--IMP-PTR 15581<<ASSIGN  15583<<ASSIGN  15584>>IF      15606>>ASSIGN  15607>>ASSIGN
     15607>>ASSIGN  15608>>ASSIGN  15608>>ASSIGN  15680<<ASSIGN  15682<<ASSIGN  15683>>CALLBLT 15683>>CALLBLT
     15720>>ASSIGN  15721>>ASSIGN  15721>>ASSIGN  15928<<ASSIGN  15929>>CALLBLT 15929>>CALLBLT
CONT#
     14768**DCL     15683<<CALLBLT 15684>>IF      15709>>IF      15801<<ASSIGN  15810<>CALL    15854>>IF
     15958>>IF      15983<>CALL
CONT$
     14761**DCL     15249--IMP-PTR 15640<<ASSIGN  15661>>DOWHILE 15663>>ASSIGN  15664<<ASSIGN  15664>>ASSIGN
     15708>>DOWHILE 15709>>IF      15712>>ASSIGN  15713<<ASSIGN  15713>>ASSIGN  15801>>ASSIGN  15849>>ASSIGN
     15850>>ASSIGN  15852>>IF      15913>>ASSIGN  15918>>ASSIGN  15953>>ASSIGN  15956>>ASSIGN  16023>>ASSIGN
     16023>>ASSIGN
CONTROLLER
     14775**DCL     15555<<ASSIGN  15679>>IF      15739>>IF
CONT_EXISTS
     14777**DCL     15707<<ASSIGN  15708>>DOWHILE 15710<<ASSIGN  15716>>IF
CONT_INDEX
     14771**DCL     15663<<ASSIGN  15664>>ASSIGN  15712<<ASSIGN  15713>>ASSIGN
DEL_ERR
     15783**LABEL   15666--CALLALT
DEQ_ERR
PL6.E3A0      #007=ASR$R_LINE_CONT File=ASR$R_HLP.:E05TSI                        TUE 07/29/97 10:56 Page:352
     15783**LABEL   15746--CALLALT
DEV#
     14769**DCL     15858<<ASSIGN  15867<>CALL    15929<<CALLBLT 15930>>IF      15958>>IF      15961>>IF
     15975<>CALL
DEV$
     14760**DCL     15399--IMP-PTR 15849<<ASSIGN  15850>>ASSIGN  15853>>DOWHILE 15854>>IF      15858>>ASSIGN
     15904<<ASSIGN  15904>>ASSIGN  15953<<ASSIGN  15956>>ASSIGN  15957>>DOWHILE 15958>>IF      15958>>IF
     15961>>IF      15964<<ASSIGN  15964>>ASSIGN  15999>>ASSIGN  16004>>ASSIGN
DEVICE
     14776**DCL     15556<<ASSIGN
DEV_SIZEW
     14770**DCL     15638<<ASSIGN  15639>>ASSIGN
DEV_START$
     14772**DCL     15637<<ASSIGN  15638>>ASSIGN  15639>>ASSIGN  15640>>ASSIGN
DEV_STOP$
     14773**DCL     15639<<ASSIGN  15661>>DOWHILE 15708>>DOWHILE 15912>>ASSIGN  16000>>ASSIGN
DONE
     14779**DCL     15851<<ASSIGN  15853>>DOWHILE 15907<<ASSIGN  15954<<ASSIGN  15957>>DOWHILE 15962<<ASSIGN
DSEG1$
     11902**DCL     14988--IMP-PTR 15614<>CALL    15615>>IF      15637>>ASSIGN  15638>>ASSIGN  15638>>ASSIGN
     15743<>CALL    15913>>ASSIGN  15913>>ASSIGN  15914>>ASSIGN  15916>>ASSIGN  15916>>ASSIGN  16001>>ASSIGN
     16001>>ASSIGN  16002>>ASSIGN
DSEG1SIZE
     11903**DCL     15613>>ASSIGN
DSEG_FLG
     11902**DCL     15558>>IF
ENQ_ERR
     15783**LABEL   15610--CALLALT
ERR_CODE
     11896**DCL     11897--REDEF   15751<<ASSIGN  15752<>CALL    15789<>CALL
EXIT#
     15746**LABEL   15742--CALLALT
FOUND
     14778**DCL     15955<<ASSIGN  15957>>DOWHILE 15959<<ASSIGN  15998>>IF
GETSEG_ERR
     15574**LABEL   15757--CALLALT
PL6.E3A0      #007=ASR$R_LINE_CONT File=ASR$R_HLP.:E05TSI                        TUE 07/29/97 10:56 Page:353
KL$CONTROLLER
     15249**DCL     15664--ASSIGN  15713--ASSIGN  15849--ASSIGN  15953--ASSIGN
KL$CONTROLLER.BLKHDR.NSUBS
     15297**DCL     15663>>ASSIGN  15712>>ASSIGN  15850>>ASSIGN  15852>>IF      15956>>ASSIGN  16023<<ASSIGN
     16023>>ASSIGN
KL$CONTROLLER.CONT#
     15366**DCL     15709>>IF      15801>>ASSIGN
KL$DREC.ATYP
     14993**DCL     15615>>IF
KL$DREC.LN
     15107**DCL     15637--ASSIGN  15637--ASSIGN  15638--ASSIGN
KL$DREC.LN.BLKHDR.NSUBS
     15138**DCL     15916<<ASSIGN  15916>>ASSIGN
KL$DREC.NWINFO
     15086**DCL     15638>>ASSIGN  15913<<ASSIGN  15913>>ASSIGN  15914>>ASSIGN  16001<<ASSIGN  16001>>ASSIGN
     16002>>ASSIGN
KL$DREC.PASSWORD
     15046**DCL     15050--REDEF
KL$DREC.RENAME
     15069**DCL     15070--REDEF
KL$LINEDEV
     15399**DCL     15664--ASSIGN  15713--ASSIGN  15850--ASSIGN  15904--ASSIGN  15956--ASSIGN  15964--ASSIGN
     15999--ASSIGN  16001--ASSIGN
KL$LINEDEV.CONTROLLER#
     15514**DCL     15854>>IF      15958>>IF
KL$LINEDEV.DEVICE#
     15517**DCL     15858>>ASSIGN  15958>>IF      15961>>IF
KL_DEFAULT.PASSWORD
     14512**DCL     14516--REDEF
KL_DEFAULT.RENAME
     14535**DCL     14536--REDEF
KL_DFLT.PASSWORD
     13702**DCL     13706--REDEF
KL_DFLT.RENAME
     13725**DCL     13726--REDEF
KL_DREC.PASSWORD
PL6.E3A0      #007=ASR$R_LINE_CONT File=ASR$R_HLP.:E05TSI                        TUE 07/29/97 10:56 Page:354
     13540**DCL     13544--REDEF
KL_DREC.RENAME
     13563**DCL     13564--REDEF
KL_DREC_CNT
     13369**DCL     15914--ASSIGN  16002--ASSIGN
KL_DREC_CNT.PASSWORD
     13427**DCL     13431--REDEF
KL_DREC_CNT.RENAME
     13450**DCL     13451--REDEF
KL_TERM_KEY
     14806**DCL     15668--CALL
KL_TERM_KEY.TERMID.TERM
     14827**DCL     14836--REDEF
KL_TERM_KEY.TERMID.TERM.TERM_NAME
     14836**DCL     15667<<ASSIGN
LINE
     14774**DCL     15554<<ASSIGN  15580>>IF      15641>>IF      15911>>IF
LINE_KEY
     14788**DCL     15609>>ASSIGN
LINE_KEY.TXT.LINE
     14791**DCL     15608<<ASSIGN
LINE_NAME
     14780**DCL     15619>>ASSIGN  15645>>ASSIGN  15765>>ASSIGN  15832>>ASSIGN  15997>>ASSIGN
LINE_NAME.COUNT
     14781**DCL     15606<<ASSIGN
LINE_NAME.TEXT
     14782**DCL     15607<<ASSIGN  15667>>ASSIGN
MERR_CODE.CODE
     11897**DCL     15670>>IF      15756>>IF      15761>>IF
MOVE$TEMP
     15533**DCL     15918<<ASSIGN  15918>>ASSIGN  16004<<ASSIGN  16004>>ASSIGN
MOVE_SIZE
     14767**DCL     15533--IMP-SIZ 15912<<ASSIGN  15915>>IF      15917>>IF      15918>>ASSIGN  15918>>ASSIGN
     16000<<ASSIGN  16003>>IF      16004>>ASSIGN  16004>>ASSIGN
NETCON_ERR
     15738**LABEL   15672--GOTO    15675--CALLALT
PL6.E3A0      #007=ASR$R_LINE_CONT File=ASR$R_HLP.:E05TSI                        TUE 07/29/97 10:56 Page:355
NODE$
     11894**DCL     14895--IMP-PTR 15554>>ASSIGN  15555>>ASSIGN  15556>>ASSIGN  15581>>ASSIGN  15583>>ASSIGN
     15680>>ASSIGN  15682>>ASSIGN  15928>>ASSIGN
OUT$SYM.COUNT
     14965**DCL     14968--IMP-SIZ 15584>>IF      15606>>ASSIGN  15607>>ASSIGN  15608>>ASSIGN  15683>>CALLBLT
     15720>>ASSIGN  15721>>ASSIGN  15929>>CALLBLT
OUT$SYM.TEXT
     14968**DCL     15607>>ASSIGN  15608>>ASSIGN  15683>>CALLBLT 15721>>ASSIGN  15929>>CALLBLT
P$NODE.CODE
     14903**DCL     15554>>ASSIGN  15555>>ASSIGN  15556>>ASSIGN
P$NODE.SUBLK$
     14928**DCL     15581>>ASSIGN  15581>>ASSIGN  15583>>ASSIGN  15583>>ASSIGN  15680>>ASSIGN  15682>>ASSIGN
     15928>>ASSIGN
PROJ_KEY.TEXT
     11774**DCL     11774--REDEF
PROJ_KEY.TXT.PROJECT
     11774**DCL     11774--REDEF
PTR$
     14759**DCL     15850<<ASSIGN  15853>>DOWHILE 15912>>ASSIGN  15913>>ASSIGN  15918>>ASSIGN  15999<<ASSIGN
     16000>>ASSIGN  16004>>ASSIGN
READ_LINE_ERR
     15751**LABEL   15614--CALLALT
READ_LINE_REC
     15613**LABEL   15758--GOTO
REMEM_VAR
     11900**DCL     11900--REDEF
REMOVE_CONTROLLER
     15795**PROC    15662--CALL    15740--CALL
REMOVE_DEVICE
     15925**PROC    15742--CALL
REM_FCMD
     11900**DCL     11901--REDEF
TEMP$
     14762**DCL     15956<<ASSIGN  15957>>DOWHILE
USERS_KEY
     11771**DCL     15609<<ASSIGN  15783<>CALL
PL6.E3A0      #007=ASR$R_LINE_CONT File=ASR$R_HLP.:E05TSI                        TUE 07/29/97 10:56 Page:356
USERS_KEY.TEXT
     11771**DCL     11772--REDEF   11772--REDEF   11772--REDEF   11773--REDEF
WRITE_LINE_ERR
     15783**LABEL   15743--CALLALT
