PL6.E3A0      #001=AS_SUPER_D File=AS_SUPER_D.:E05TSI                            TUE 07/29/97 10:59 Page:1
        1        1        /*M* AS_SUPER_D:  ALL SYMDEF'S FOR SUPER              */
        2        2        /*T***********************************************************/
        3        3        /*T*                                                         */
        4        4        /*T* Copyright (c) Bull HN Information Systems Inc., 1997    */
        5        5        /*T*                                                         */
        6        6        /*T***********************************************************/
        7        7        /*X*  DMC,DMR,CCC,PLM=0,IND=3,CTI=5,DCI=6,IAD=0,DTI=0,IDT=0,ENI=3,
        8        8              ECU=3,CSU=3,SDI=3                                           */
        9        9        AS_SUPER_D: PROC ;
       10       10                                                              /**/
       11       11        %EJECT ;
PL6.E3A0      #001=AS_SUPER_D File=AS_SUPER_D.:E05TSI                            TUE 07/29/97 10:59 Page:2
       12       12        /********************************************************************/
       13       13        /*   Include files   include files   include files   include files   */
       14       14        /*********************************************************************/
       15       15                                                              /**/
       16       16        /* !!  */
       17       17        %INCLUDE           AS_SUPER_C   ;
       18      452        %INCLUDE           AS_MAC_C     ;
       19      532        %INCLUDE           AS_SUBS_C    ;
       20     1946        %INCLUDE           XU_SUBS_C    ;
       21     2038        %INCLUDE           XU_MACRO_C   ;
       22     5144        %INCLUDE           XU_FORMAT_C  ;
       23     5306        %INCLUDE           KL_SUPER_C   ;
       24     8208        %INCLUDE           XG_PROFILE_C ;
       25     8762        %INCLUDE           XG_SUBS_C    ;
       26     9256        %INCLUDE           OCI_SUBS_C   ;
       27     9354        %INCLUDE           B$JIT_C      ;
       28     9668                %B$JIT0 ;
       29     9757                %U$JIT1 ;
       30     9831                %M$JIT2 ;
       31     9841                %F$JIT3 ;
       32     9846                %S$JIT4 ;
       33     9852                %J$JIT5 ;
       34     9940                %A$JIT6 ;
       35     9950        /* !R.!  */
       36     9951        /********************************************************************/
       37     9952        /*   Symrefs         symrefs         symrefs         symrefs         */
       38     9953        /*********************************************************************/
       39     9954                                                              /**/
       40     9955    1   DCL   SPCLMM_     UBIN SYMREF;
       41     9956    1   DCL   EXMM_       UBIN SYMREF;
       42     9957    1   DCL   MAXM_       UBIN SYMREF;
       43     9958    1   DCL   MSYS_       UBIN SYMREF;
       44     9959    1   DCL   SYSLOG_     UBIN SYMREF;
       45     9960    1   DCL   JIT_        UBIN SYMREF;
       46     9961    1   DCL   TND_        UBIN SYMREF;
       47     9962    1   DCL   ASAVE_      UBIN SYMREF;
       48     9963    1   DCL   GPP_        UBIN SYMREF;
PL6.E3A0      #001=AS_SUPER_D File=AS_SUPER_D.:E05TSI                            TUE 07/29/97 10:59 Page:3
       49     9964    1   DCL   SEC_        UBIN SYMREF;
       50     9965    1   DCL   DIA_        UBIN SYMREF;
       51     9966    1   DCL   FMREAD_     UBIN SYMREF;
       52     9967    1   DCL   PM_         UBIN SYMREF;
       53     9968    1   DCL   EXPM_       UBIN SYMREF;
       54     9969    1   DCL   IOQW_       UBIN SYMREF;
       55     9970    1   DCL   IOQ_        UBIN SYMREF;
       56     9971    1   DCL   CFEP_       UBIN SYMREF;
       57     9972    1   DCL   MFEP_       UBIN SYMREF;
       58     9973    1   DCL   DISPJOB_    UBIN SYMREF;
       59     9974    1   DCL   SYSCON_     UBIN SYMREF;
       60     9975    1   DCL   INTCON_     UBIN SYMREF;
       61     9976    1   DCL   CQ_     UBIN SYMREF;
       62     9977    1   DCL   SNAP_       UBIN SYMREF;
       63     9978    1   DCL   SCREECH_    UBIN SYMREF;
       64     9979
       65     9980    1   DCL   CNTRLD_     UBIN SYMREF;
       66     9981    1   DCL   CNTRLC_     UBIN SYMREF;
       67     9982    1   DCL   EFT_        UBIN SYMREF;
       68     9983    1   DCL   EL_         UBIN SYMREF;
       69     9984    1   DCL   LABEL_      UBIN SYMREF;
       70     9985    1   DCL   PIGD_       UBIN SYMREF;
       71     9986    1   DCL   PIGC_       UBIN SYMREF;
       72     9987    1   DCL   PIGETTE_    UBIN SYMREF;
       73     9988    1   DCL   SUPERAUTH_  UBIN SYMREF;
       74     9989    1   DCL   SUPERWSN_   UBIN SYMREF;
       75     9990    1   DCL   SUPERFORM_  UBIN SYMREF;
       76     9991    1   DCL   SUPER_      UBIN SYMREF;
       77     9992    1   DCL   SPIDERD_    UBIN SYMREF;
       78     9993    1   DCL   SPIDERC_    UBIN SYMREF;
       79     9994    1   DCL   NETCON_    UBIN SYMREF;
       80     9995    1   DCL   SUPERD_   UBIN SYMREF;
       81     9996    1   DCL   VOLINIT_    UBIN SYMREF;
       82     9997    1   DCL   REPLAY_     UBIN SYMREF;
       83     9998    1   DCL   RATES_      UBIN SYMREF;
       84     9999    1   DCL CMD_NODES     SYMREF UBIN(36) ;
       85    10000    1   DCL CR_MOD_CMD    SYMREF UBIN(36) ;
PL6.E3A0      #001=AS_SUPER_D File=AS_SUPER_D.:E05TSI                            TUE 07/29/97 10:59 Page:4
       86    10001    1   DCL CR_MOD_TREE   SYMREF UBIN(36) ;
       87    10002    1   DCL PRIV_S_OPT    SYMREF UBIN(36) ;
       88    10003    1   DCL FEPRIV_S_OPT    SYMREF UBIN(36) ;
       89    10004    1   DCL CR_MOD_PROJ_OPTS SBIN SYMREF;
       90    10005    1   DCL BUDGET_S_OPT  SYMREF UBIN(36) ;
       91    10006    1   DCL LIST_CMD SYMREF UBIN(36) ;
       92    10007    1   DCL DISPLAY_CMD SYMREF UBIN(36) ;
       93    10008    1   DCL LIST_S_OPT    SYMREF UBIN(36) ;
       94    10009    1   DCL LIST_P_OPT    SYMREF UBIN(36) ;
       95    10010    1   DCL LIST_PRO_S_OPT SYMREF UBIN(36) ;
       96    10011    1   DCL PROFILE_CMD UBIN(36) SYMREF ;
       97    10012    1   DCL PRO_OPTS_LIST UBIN WORD SYMREF ;
       98    10013    1   DCL FUNKEY_CMD UBIN WORD SYMREF ;
       99    10014    1   DCL XU_OUTPUT_OPTIONS ENTRY CONV (5);
      100    10015    1   DCL XUR$OPENOUT_OPT BIT(36) SYMREF;
      101    10016    1   DCL B$JIT$ PTR SYMREF ;            /*   Pointer to jit   */
      102    10017                                                              /**/
      103    10018        %EJECT ;
PL6.E3A0      #001=AS_SUPER_D File=AS_SUPER_D.:E05TSI                            TUE 07/29/97 10:59 Page:5
      104    10019        /********************************************************************/
      105    10020        /*   Constant data   constant data   constant data   constant data   */
      106    10021        /*********************************************************************/
      107    10022    1   DCL ASL_POLLVIP_TYP BIT(9) CONSTANT SYMDEF ALIGNED INIT('010000000'B);
      108    10023    1   DCL ASL_VIRCIR_TYP BIT(9) CONSTANT SYMDEF ALIGNED INIT('001000000'B);
      109    10024    1   DCL ASL_RBT_TYP    BIT(9) CONSTANT SYMDEF ALIGNED INIT('000100000'B) ;
      110    10025    1   DCL ASL_RBTD_TYP   BIT(9) CONSTANT SYMDEF ALIGNED INIT('000010000'B) ;
      111    10026    1   DCL ASL_ASYNC_TYP  BIT(9) CONSTANT SYMDEF ALIGNED INIT('000001000'B) ;
      112    10027    1   DCL ASL_LINK_TYP   BIT(9) CONSTANT SYMDEF ALIGNED INIT('000000100'B) ;
      113    10028    1   DCL ASL_URP_TYP    BIT(9) CONSTANT SYMDEF ALIGNED INIT('000000010'B) ;
      114    10029    1   DCL ASL_3270_TYP   BIT(9) CONSTANT SYMDEF ALIGNED INIT('000000001'B);
      115    10030    1   DCL 1 ASL_PRO_OPT_TBL(0:L_PRO_END) CONSTANT SYMDEF,
      116    10031    1          2 LEN UBIN BYTE UNAL INIT  /* Ordered by SUB# from AS_SUBS_C */
      117    10032    1   /*  0*/(17, 17, 17, 17, 17,
      118    10033    1   /*  5*/ 17, 17, 17, 17, 17,
      119    10034    1   /* 10*/ 17, 17, 17, 17, 17,
      120    10035    1   /* 15*/ 17, 17, 17, 17, 17,
      121    10036    1   /* 20*/ 17, 17, 17, 17, 17,
      122    10037    1   /* 25*/ 17, 17, 17, 17, 17,
      123    10038    1   /* 30*/ 17, 17, 17, 17, 17,
      124    10039    1   /* 35*/ 17, 17, 17, 17, 17,
      125    10040    1   /* 40*/ 17, 17, 17, 17, 17,
      126    10041    1   /* 45*/ 17, 17, 17, 17, 17,
      127    10042    1   /* 50*/ 17, 17, 17, 17, 17,
      128    10043    1   /* 55*/ 17, 17, 17, 17, 17,
      129    10044    1   /* 60*/ 17, 17, 17, 17, 17,
      130    10045    1   /* 65*/ 17, 17, 17, 17, 17,
      131    10046    1   /* 70*/ 17, 17, 17, 17, 17,
      132    10047    1   /* 75*/ 17, 17, 17, 17, 17,
      133    10048    1   /* 80*/ 17, 17, 17, 17, 17,
      134    10049    1   /* 85*/ 17, 17, 17, 17, 34,
      135    10050    1   /* 90*/ 34, 34, 34, 34, 34,
      136    10051    1   /* 95*/ 34, 34, 34, 34, 34,
      137    10052    1   /*100*/ 34, 51, 34, 34, 34,
      138    10053    1   /*105*/ 17, 17, 17, 17, 17,
      139    10054    1   /*110*/ 17, 17, 17, 17, 17,
      140    10055    1   /*115*/ 17, 17, 17, 17, 17,
PL6.E3A0      #001=AS_SUPER_D File=AS_SUPER_D.:E05TSI                            TUE 07/29/97 10:59 Page:6
      141    10056    1   /*120*/ 17, 17, 17, 17, 17,
      142    10057    1   /*125*/ 17, 34, 34, 17, 17,
      143    10058    1   /*130*/ 17, 34, 34, 51, 17,
      144    10059    1   /*135*/ 17, 17, 17, 17, 17,
      145    10060    1   /*140*/ 17, 17, 17, 17, 17,
      146    10061    1   /*145*/ 17, 17, 51, 51, 51,
      147    10062    1   /*150*/ 51, 51, 17, 17, 17,
      148    10063    1   /*155*/ 51, 51, 51, 51, 51,
      149    10064    1   /*160*/ 51, 51, 17, 17, 17,
      150    10065    1   /*165*/ 17, 17, 17,  0, 17,
      151    10066    1   /*170*/ 17, 17, 21, 17, 17,
      152    10067    1   /*175*/ 17, 20, 17, 51,
      153    10068    1   /*179*/ 17, 140, 140, 17, 17,
      154    10069    1   /*184*/ 17, 17, 17, 17, 17,
      155    10070    1   /*189*/ 17, 17, 17, 17, 17,
      156    10071    1   /*194*/ 80, 80, 17, 17, 17,
      157    10072    1   /*199*/ 20, 17, 17, 17, 17,
      158    10073    1   /*204*/ 17, 17, 17, 17, 20,
      159    10074    1   /*209*/ 17, 17, 17, 17,
      160    10075    1   /*213*/ 17, 17, 17, 17, 17,
      161    10076    1   /*218*/ 140, 65, 17, 17, 17,
      162    10077    1   /*223*/ 20, 20, 20, 20, 17,
      163    10078    1   /*228*/ 20, 20, 20, 20, 20,
      164    10079    1   /*233*/ 20, 20, 20, 20, 20,
      165    10080    1   /*238*/ 20, 20, 20, 20, 20,
      166    10081    1   /*243*/ 20, 20, 20, 20, 20,
      167    10082    1   /*248*/ 20, 20, 20, 20, 20,
      168    10083    1   /*253*/ 20, 20, 20, 20, 20,
      169    10084    1   /*258*/ 20, 20, 20, 20, 20,
      170    10085    1   /*263*/ 20, 20, 20, 20, 20,
      171    10086    1   /*268*/ 20, 20, 20, 20, 20,
      172    10087    1   /*273*/ 20, 20, 20, 20, 20,
      173    10088    1   /*278*/ 20, 20, 1),
      174    10089    1          2 HDR CHAR(20) UNAL INIT
      175    10090    1           ('ACTONTRN',
      176    10091    1            'APL',
      177    10092    1            'APLLCNRM',
PL6.E3A0      #001=AS_SUPER_D File=AS_SUPER_D.:E05TSI                            TUE 07/29/97 10:59 Page:7
      178    10093    1            'AUTONL',
      179    10094    1            'BIN',
      180    10095    1            'BLANKERASES',
      181    10096    1            'CRISNL',
      182    10097    1            'CUP_CLMFRS',
      183    10098    1            'CUP_CMP',
      184    10099    1            'CURSORUP',
      185    10100    1            'DEVICEBS',
      186    10101    1            'DEVICECR',
      187    10102    1            'DEVICELF',
      188    10103    1            'DEVPOSOPTS',
      189    10104    1            'DEVSCROLL',
      190    10105    1            'DISPINPUT',
      191    10106    1            'EDITOVR',
      192    10107    1            'FULLDUXPAPERTAPE',
      193    10108    1            'HALFDUXPAPERTAPE',
      194    10109    1            'INPUT',
      195    10110    1            'INPUTIGNORE',
      196    10111    1            'LFISNL',
      197    10112    1            'LOWERCASE',
      198    10113    1            'LOWERCASEPRINTS',
      199    10114    1            'MULSTRM',
      200    10115    1            'NOOPTMIZ',
      201    10116    1            'OPDTAB',
      202    10117    1            'OUTPUT',
      203    10118    1            'OUTPUTDISCARD',
      204    10119    1            'PAGEHALT',
      205    10120    1            'PARITYCHECK',
      206    10121    1            'PRINTHALT',
      207    10122    1            'PRINTTYPE',
      208    10123    1            'PROGDTAB',
      209    10124    1            'RELPAGE',
      210    10125    1            'RETYPOVR',
      211    10126    1            'SCROLL',
      212    10127    1            'SENDBKSPACE',
      213    10128    1            'SIMPERF',
      214    10129    1            'SPACEINSERT',
PL6.E3A0      #001=AS_SUPER_D File=AS_SUPER_D.:E05TSI                            TUE 07/29/97 10:59 Page:8
      215    10130    1            'TABRELATIVE',
      216    10131    1            'TABSIM',
      217    10132    1            'TRUNCATE',
      218    10133    1            'TRUOVRPRT',
      219    10134    1            'TTYTYPE',
      220    10135    1            'UPPERCASE',
      221    10136    1            'AWIDTH',
      222    10137    1            'BLKBYTES',
      223    10138    1            'BLKRECS',
      224    10139    1            'DELAYS',
      225    10140    1            'DVCOTPBFRSIZ',
      226    10141    1            'FIRSTLINE',
      227    10142    1            'HEIGHT',
      228    10143    1            'LENGTH',
      229    10144    1            'LIMBO',
      230    10145    1            'PWIDTH',
      231    10146    1            'MINREC',
      232    10147    1            'RETRYS',
      233    10148    1            'SINPUTSZ',
      234    10149    1            'SPEED',
      235    10150    1            'TMNALG_AFTCUP',
      236    10151    1            'TMNALG_AFTCR',
      237    10152    1            'TMNALG_AFTHPA',
      238    10153    1            'TMNALG_AFTHT',
      239    10154    1            'TMNALG_AFTLF',
      240    10155    1            'TMNALG_BFRCR',
      241    10156    1            'TMNALG_BFRLF',
      242    10157    1            'BS_TIM',
      243    10158    1            'ERSTIM',
      244    10159    1            'TIMAFTCTRFNC',
      245    10160    1            'TMNALG_PRM1',
      246    10161    1            'TMNALG_PRM2',
      247    10162    1            'TMNALG_PRM3',
      248    10163    1            'TMNALG_PRM4',
      249    10164    1            'TMNALG_PRM5',
      250    10165    1            'TMNALG_PRM6',
      251    10166    1            'TMNALG_PRM7',
PL6.E3A0      #001=AS_SUPER_D File=AS_SUPER_D.:E05TSI                            TUE 07/29/97 10:59 Page:9
      252    10167    1            'TMNALG_PRM8',
      253    10168    1            'FCNTBL',
      254    10169    1            'CHARSETNAME',
      255    10170    1            'EMCHR',
      256    10171    1            'IRSCHR',
      257    10172    1            'CUP_ALG',
      258    10173    1            'DVCFLWCTRALG',
      259    10174    1            'HPA_ALG',
      260    10175    1            'PARITY',
      261    10176    1            'PROTYP',
      262    10177    1            'CUP_BIS',
      263    10178    1            'LSTRECCTN',
      264    10179    1            'CUB_CHR',
      265    10180    1            'CUD_CHR',
      266    10181    1            'CUF_CHR',
      267    10182    1            'CUP_CHR',
      268    10183    1            'CUU_CHR',
      269    10184    1            'DCH_CHR',
      270    10185    1            'ED0_CHR',
      271    10186    1            'ED2_CHR',
      272    10187    1            'EL0_CHR',
      273    10188    1            'FRMFED_CHR',
      274    10189    1            'HOM_CHR',
      275    10190    1            'HTS_CHR',
      276    10191    1            'ICH_CHR',
      277    10192    1            'RSTINSMOD_CHR',
      278    10193    1            'SETFRMLNG_CHR',
      279    10194    1            'TBC3_CHR',
      280    10195    1            'ERRDUPBLK',
      281    10196    1            'RRR',
      282    10197    1            'INTERVAL',
      283    10198    1            'COMPRESS',
      284    10199    1            'TIMEOUT',
      285    10200    1            'RETRANSMISSIONS',
      286    10201    1            'WINDOW',
      287    10202    1            'FRAME',
      288    10203    1            'SLC',
PL6.E3A0      #001=AS_SUPER_D File=AS_SUPER_D.:E05TSI                            TUE 07/29/97 10:59 Page:10
      289    10204    1            'CALLS',
      290    10205    1            'REVERSE',
      291    10206    1            'SLCALLBLK',
      292    10207    1            'PADSIGNON',
      293    10208    1            'MAX WINDOW',
      294    10209    1            'RESPONSE DELAY',
      295    10210    1            'RESTART TIMEOUT',
      296    10211    1            'RESTART RETRIES',
      297    10212    1            'MAXATRS',
      298    10213    1            'ATRSCRNPOS',
      299    10214    1            'SGR_ALG',
      300    10215    1            'DAQ_ALG',
      301    10216    1            'SGRINTRO_CHR',
      302    10217    1            'DAQINTRO_CHR',
      303    10218    1            'SGRINCDAQ',
      304    10219    1            'DFLTPRTMODE',
      305    10220    1            'DCLFLD_ALG',
      306    10221    1            'DCLFRM_CHR',
      307    10222    1            'ENDDCLFRM_CHR',
      308    10223    1            'RESTORE_DFLTSCRN_CHR',
      309    10224    1            'SGRHDN_CHR',
      310    10225    1            'SGRINCINT_CHR',
      311    10226    1            'SGRDCRINT_CHR',
      312    10227    1            'SGRUNDSCR_CHR',
      313    10228    1            'SGRSLWBLN_CHR',
      314    10229    1            'SGRFSTBLN_CHR',
      315    10230    1            'SGRRVRVID_CHR',
      316    10231    1            'SGRPRT_CHR',
      317    10232    1            'SGRINP_CHR',
      318    10233    1            'SGRPRTGRD_CHR',
      319    10234    1            'DAQPRT_CHR',
      320    10235    1            'DAQINP_CHR',
      321    10236    1            'DAQPRTGRD_CHR',
      322    10237    1            'DLTALLFLDS_CHR',
      323    10238    1            'INSLIN_CHR',
      324    10239    1            'DLTLIN_CHR',
      325    10240    1            'ERASEFLD_CHR',
PL6.E3A0      #001=AS_SUPER_D File=AS_SUPER_D.:E05TSI                            TUE 07/29/97 10:59 Page:11
      326    10241    1            'DLTFLD_CHR',
      327    10242    1            'FLDTRM',
      328    10243    1            'EWALT',
      329    10244    1            'SIOPT',
      330    10245    1            'ABSGRPRND_NULL',
      331    10246    1            'ABSGRPRND_HIDDEN',
      332    10247    1            'ABSGRPRND_EMPHASIS',
      333    10248    1            'ABSGRPRND_INPUT',
      334    10249    1            'ABSGRPRND_OUTPUT',
      335    10250    1            'ABSGRPRND_ERROR',
      336    10251    1            'ABSGRPRND_WARNING',
      337    10252    1            'TMNALG_FILCHR',
      338    10253    1            'SPCBFRPRT',
      339    10254    1            'WRAPPAGE',
      340    10255    1            'LIMBOCLM',
      341    10256    1            'LOCALECHO',
      342    10257    1            'PARKCURSOR',
      343    10258    1            ' ',
      344    10259    1            'RECEIVE SIZE',
      345    10260    1            'RECEIVE THR',
      346    10261    1            'RECEIVE WIN',
      347    10262    1            'RESPOND TO COMPLETE',
      348    10263    1            'SEND SIZE',
      349    10264    1            'SEND THR',
      350    10265    1            'SEND WINDOW',
      351    10266    1            'FAST SELECT ACCEPT',
      352    10267    1            'RESP TIMER',
      353    10268    1            'EXTSRD_CHR',
      354    10269    1            'FF_FLUSH',
      355    10270    1            'MSGLIN_CHR',
      356    10271    1            'ENDMSGLIN_CHR',
      357    10272    1            'SPCDLTFLD',
      358    10273    1            'EL0DLTFLD',
      359    10274    1            'ED0DLTFLD',
      360    10275    1            'ED2DLTFLD',
      361    10276    1            'ICHRQRDCH',
      362    10277    1            'ILNRQRDLN',
PL6.E3A0      #001=AS_SUPER_D File=AS_SUPER_D.:E05TSI                            TUE 07/29/97 10:59 Page:12
      363    10278    1            'FRSCLMFLD',
      364    10279    1            'MSGHALT',
      365    10280    1            'MSGLINE',
      366    10281    1            'INSERTMODE',
      367    10282    1            'HSCROLL',
      368    10283    1            'WORDWRAPCLM',
      369    10284    1            'AUTOTABCLM',
      370    10285    1            'SETUP_CHR',
      371    10286    1            'DCHMOVFLD',
      372    10287    1            'DSPHEIGHT',
      373    10288    1            'RGNSCROLL',
      374    10289    1            'EXTENDED SEQUENCE',
      375    10290    1            'CHARGE INFO',
      376    10291    1            'TRANSIT DELAY',
      377    10292    1            'RESET TIMEOUT',
      378    10293    1            'RESET RETRIES',
      379    10294    1            'CLEAR TIMEOUT',
      380    10295    1            'CLEAR RETRIES',
      381    10296    1            'DATA TIMEOUT',
      382    10297    1            'DATA RETRIES',
      383    10298    1            'INTERRUPT TIMEOUT',
      384    10299    1            'IDLE TIMEOUT',
      385    10300    1            'CALL TIMEOUT',
      386    10301    1            'CALL RETRIES',
      387    10302    1            'CALL DELAY',
      388    10303    1            'CURSORREAD',
      389    10304    1            'AUTOCURSOR',
      390    10305    1            'KEEPTYPAHD',
      391    10306    1            'FF_INCCR',
      392    10307    1            'MICROFPL',
      393    10308    1            'TABS',
      394    10309    1            'GR_FPRG',
      395    10310    1            'GR_GLBLCOLORS',
      396    10311    1            'GR_GLBLINTEN',
      397    10312    1            'GR_MAXPICK',
      398    10313    1            'GR_XSPACE',
      399    10314    1            'GR_YSPACE',
PL6.E3A0      #001=AS_SUPER_D File=AS_SUPER_D.:E05TSI                            TUE 07/29/97 10:59 Page:13
      400    10315    1            'GR_ZSPACE',
      401    10316    1            'GR_NDCWSPACE',
      402    10317    1            'GR_NDCHSPACE',
      403    10318    1            'GR_NDCDSPACE',
      404    10319    1            'GR_NDCDCHARS',
      405    10320    1            'GR_NDCHCHARS',
      406    10321    1            'GR_NDCWCHARS',
      407    10322    1            'GR_WIDTHUSE',
      408    10323    1            'GR_HEIGHTUSE',
      409    10324    1            'GR_DEPTHUSE',
      410    10325    1            'GR_NDCDCURRENT',
      411    10326    1            'GR_NDCHCURRENT',
      412    10327    1            'GR_NDCWCURRENT',
      413    10328    1            'GR_MINLINEWIDTH',
      414    10329    1            'GR_MAXLINEWIDTH',
      415    10330    1            'GR_MINCHSIZE',
      416    10331    1            'GR_MAXCHSIZE',
      417    10332    1            'GR_ESCAPE',
      418    10333    1            'GR_VIEWSURFACE',
      419    10334    1            'GR_POLYGONFILL PLA',
      420    10335    1            'GR_POLYGONFILL SHA',
      421    10336    1            'GR_POLYGONFILL PAT',
      422    10337    1            'GR_XPIXMAX',
      423    10338    1            'GR_YPIXMAX',
      424    10339    1            'GR_COLRTABSIZE',
      425    10340    1            'GR_INTNTABSIZE',
      426    10341    1            'GR_LINESTYLEHWCOUNT',
      427    10342    1            'GR_LINEWCOUNT',
      428    10343    1            'GR_FONTCOUNT',
      429    10344    1            'GR_PENHWCOUNT',
      430    10345    1            'GR_CHSIZECOUNT',
      431    10346    1            'GR_MARKERHWCOUNT',
      432    10347    1            'GR_LINEWSUPPORT',
      433    10348    1            'GR_MARKERSWCOUNT',
      434    10349    1            'GR_INTNSUPPORT',
      435    10350    1            'GR_CHSIZESUPPORT',
      436    10351    1            'GR_HIGHLTSUPPORT',
PL6.E3A0      #001=AS_SUPER_D File=AS_SUPER_D.:E05TSI                            TUE 07/29/97 10:59 Page:14
      437    10352    1            'GR_OUTLEVEL',
      438    10353    1            'GR_BATCHMODE',
      439    10354    1            'GR_HIDDENLEVEL',
      440    10355    1            'GR_DIMLEVEL',
      441    10356    1            'GR_VIEWTYPE',
      442    10357    1            'GR_PIXELTYPE',
      443    10358    1            'GR_EDGETYPE',
      444    10359    1            'GR_COLRTABTYPE',
      445    10360    1            'GR_BKGRNDTYPE',
      446    10361    1            'GR_DEVTYPE',
      447    10362    1            'GR_IMAGETRANS',
      448    10363    1            'GR_COLRMODEL',
      449    10364    1            'GR_BKGRNDCOLOR',
      450    10365    1            'GR_COLRACTION',
      451    10366    1            'GR_INTNACTION',
      452    10367    1            'GR_LINESTYLESWCOUNT',
      453    10368    1            'GR_PENSWCOUNT',
      454    10369    1            'FUNCTION',
      455    10370    1            ' '*0),
      456    10371    1          2 TYP BIT(9) UNAL INIT
      457    10372    1   /*  0*/('000001001'B, '000011001'B, '000001001'B, '000001001'B, '000011011'B,
      458    10373    1   /*  5*/ '000001001'B, '000001001'B, '000001000'B, '000001000'B, '000001001'B,
      459    10374    1   /* 10*/ '000001001'B, '000001001'B, '000001001'B, '000001001'B, '000001001'B,
      460    10375    1   /* 15*/ '000001001'B, '000001001'B, '000001001'B, '000001001'B, '000011011'B,
      461    10376    1   /* 20*/ '000001001'B, '000011001'B, '000001001'B, '000011011'B, '010100000'B,
      462    10377    1   /* 25*/ '000001001'B, '000001001'B, '000011011'B, '000001001'B, '000001001'B,
      463    10378    1   /* 30*/ '000001001'B, '000001001'B, '000011011'B, '000001001'B, '000001001'B,
      464    10379    1   /* 35*/ '000001001'B, '000001001'B, '000001001'B, '000001001'B, '000001011'B,
      465    10380    1   /* 40*/ '000001001'B, '000011011'B, '000001001'B, '000011011'B, '000011001'B,
      466    10381    1   /* 45*/ '000001001'B, '000011011'B, '010100000'B, '010100000'B, '010100000'B,
      467    10382    1   /* 50*/ '000001001'B, '000011011'B, '000001001'B, '000011011'B, '000011011'B,
      468    10383    1   /* 55*/ '000011011'B, '000011001'B, '010100000'B, '000001001'B, '000001001'B,
      469    10384    1   /* 60*/ '000001000'B, '000001000'B, '000001000'B, '000001000'B, '000001000'B,
      470    10385    1   /* 65*/ '000001000'B, '000001000'B, '000001000'B, '000001000'B, '000001000'B,
      471    10386    1   /* 70*/ '000001000'B, '000001000'B, '000001000'B, '000001000'B, '000001000'B,
      472    10387    1   /* 75*/ '000001000'B, '000001000'B, '000001000'B, '000001001'B, '000011011'B,
      473    10388    1   /* 80*/ '010100000'B, '010100000'B, '000001000'B, '000001000'B, '000001000'B,
PL6.E3A0      #001=AS_SUPER_D File=AS_SUPER_D.:E05TSI                            TUE 07/29/97 10:59 Page:15
      474    10389    1   /* 85*/ '000001001'B, '010100000'B, '000001000'B, '010100000'B, '000001000'B,
      475    10390    1   /* 90*/ '000001000'B, '000001000'B, '000001000'B, '000001000'B, '000001000'B ,
      476    10391    1   /* 95*/ '000001000'B, '000001000'B, '000001000'B, '000001001'B, '000001000'B ,
      477    10392    1   /*100*/ '000001000'B, '000001000'B, '000001000'B, '000001000'B, '000001000'B,
      478    10393    1   /*105*/ '010100000'B, '010100000'B, '010100000'B, '010100000'B, '000000100'B,
      479    10394    1   /*110*/ '000000100'B, '000000100'B, '000000100'B, '010100000'B, '000000100'B,
      480    10395    1   /*115*/ '001000100'B, '010100000'B, '010100000'B, '000000100'B, '001000100'B,
      481    10396    1   /*120*/ '000000100'B, '000000100'B, '000001000'B, '000001000'B, '000001000'B,
      482    10397    1   /*125*/ '000001000'B, '000001000'B, '000001000'B, '000001000'B, '000001000'B,
      483    10398    1   /*130*/ '000001000'B, '000001000'B, '000001000'B, '000001000'B, '000001000'B,
      484    10399    1   /*135*/ '000001000'B, '000001000'B, '000001000'B, '000001000'B, '000001000'B,
      485    10400    1   /*140*/ '000001000'B, '000001000'B, '000001000'B, '000001000'B, '000001000'B,
      486    10401    1   /*145*/ '000001000'B, '000001000'B, '000001000'B, '000001000'B, '000001000'B,
      487    10402    1   /*150*/ '000001000'B, '000001000'B, '000001000'B, '000001001'B, '000001001'B,
      488    10403    1   /*155*/ '000001001'B, '000001001'B, '000001001'B, '000001001'B, '000001001'B,
      489    10404    1   /*160*/ '000001001'B, '000001001'B, '000001000'B, '000010000'B, '000001001'B,
      490    10405    1   /*165*/ '000001001'B, '000001001'B, '000001001'B, '001000000'B, '001000000'B,
      491    10406    1   /*170*/ '001000000'B, '001000000'B, '001000000'B, '001000000'B, '001000000'B,
      492    10407    1   /*175*/ '001000000'B,  '000000100'B, '001000000'B, '000001000'B,
      493    10408    1   /*179*/ '000001001'B, '000001000'B, '000001000'B, '000001000'B, '000001000'B,
      494    10409    1   /*184*/ '000001000'B, '000001000'B, '000001000'B, '000001000'B, '000001000'B,
      495    10410    1   /*189*/ '000001001'B, '000001000'B, '000001001'B, '000001000'B, '000001001'B,
      496    10411    1   /*194*/ '000001000'B, '000001001'B, '000001001'B, '000001001'B, '000001000'B,
      497    10412    1   /*199*/ '001000100'B, '001000100'B, '001000000'B, '001000000'B, '001000000'B,
      498    10413    1   /*204*/ '001000000'B, '001000000'B, '001000000'B, '001000000'B, '001000000'B,
      499    10414    1   /*209*/ '001000100'B, '001000000'B, '001000000'B, '001000000'B,
      500    10415    1   /*213*/ '000001001'B, '000001001'B, '000001001'B, '000001001'B, '000001001'B,
      501    10416    1   /*218*/ '000001001'B, '000011011'B, '000011011'B, '000011011'B, '000011011'B,
      502    10417    1   /*223*/ '000011011'B, '000011011'B, '000011011'B, '000011011'B, '000011011'B,
      503    10418    1   /*228*/ '000011011'B, '000011011'B, '000011011'B, '000011011'B, '000011011'B,
      504    10419    1   /*233*/ '000011011'B, '000011011'B, '000011011'B, '000011011'B, '000011011'B,
      505    10420    1   /*238*/ '000011011'B, '000011011'B, '000011011'B, '000011011'B, '000011011'B,
      506    10421    1   /*243*/ '000011011'B, '000011011'B, '000011011'B, '000011011'B, '000011011'B,
      507    10422    1   /*248*/ '000011011'B, '000011011'B, '000011011'B, '000011011'B, '000011011'B,
      508    10423    1   /*253*/ '000011011'B, '000011011'B, '000011011'B, '000011011'B, '000011011'B,
      509    10424    1   /*258*/ '000011011'B, '000011011'B, '000011011'B, '000011011'B, '000011011'B,
      510    10425    1   /*263*/ '000011011'B, '000011011'B, '000011011'B, '000011011'B, '000011011'B,
PL6.E3A0      #001=AS_SUPER_D File=AS_SUPER_D.:E05TSI                            TUE 07/29/97 10:59 Page:16
      511    10426    1   /*268*/ '000011011'B, '000011011'B, '000011011'B, '000011011'B, '000011011'B,
      512    10427    1   /*273*/ '000011011'B, '000011011'B, '000011011'B, '000011011'B, '000011011'B,
      513    10428    1   /*278*/ '000011011'B, '000001000'B,
      514    10429    1   /*280*/ '000001001'B*0),
      515    10430    1          2 ORDR UBIN BYTE UNAL INIT /* Alphabetical order */
      516    10431    1        (L_ABSGRPRND_EMPHASIS           ,
      517    10432    1         L_ABSGRPRND_ERROR              ,
      518    10433    1         L_ABSGRPRND_HIDDEN             ,
      519    10434    1         L_ABSGRPRND_INPUT              ,
      520    10435    1         L_ABSGRPRND_NULL               ,
      521    10436    1         L_ABSGRPRND_OUTPUT             ,
      522    10437    1         L_ABSGRPRND_WARNING            ,
      523    10438    1         L_ACTONTRN                     ,
      524    10439    1         L_APL                          ,
      525    10440    1         L_APLLCNRM                     ,
      526    10441    1         L_ATRSCRNPOS                   ,
      527    10442    1         L_AUTONL                       ,
      528    10443    1         L_AUTOCURSOR                   ,
      529    10444    1         L_AUTOTABCLM                   ,
      530    10445    1         L_AWIDTH                       ,
      531    10446    1         L_BIN                          ,
      532    10447    1         L_BLANKERASES                  ,
      533    10448    1         L_BLKBYTES                     ,
      534    10449    1         L_BLKRECS                      ,
      535    10450    1         L_BS_TIM                       ,
      536    10451    1         L_CALLS                        ,
      537    10452    1         L_CALL_DELAY                   ,
      538    10453    1         L_CALL_RETRYS                  ,
      539    10454    1         L_CALL_TIM                     ,
      540    10455    1         L_CHARSETNAME                  ,
      541    10456    1         L_CHA_INFO                     ,
      542    10457    1         L_CLEAR_RETRYS                 ,
      543    10458    1         L_CLEAR_TIM                    ,
      544    10459    1         L_COMPRESS                     ,
      545    10460    1         L_CRISNL                       ,
      546    10461    1         L_CUB_CHR                      ,
      547    10462    1         L_CUD_CHR                      ,
PL6.E3A0      #001=AS_SUPER_D File=AS_SUPER_D.:E05TSI                            TUE 07/29/97 10:59 Page:17
      548    10463    1         L_CUF_CHR                      ,
      549    10464    1         L_CUP_ALG                      ,
      550    10465    1         L_CUP_BIS                      ,
      551    10466    1         L_CUP_CHR                      ,
      552    10467    1         L_CUP_CLMFRS                   ,
      553    10468    1         L_CUP_CMP                      ,
      554    10469    1         L_CURSORREAD                   ,
      555    10470    1         L_CURSORUP                     ,
      556    10471    1         L_CUU_CHR                      ,
      557    10472    1         L_DAQINP_CHR                   ,
      558    10473    1         L_DAQINTRO_CHR                 ,
      559    10474    1         L_DAQPRTGRD_CHR                ,
      560    10475    1         L_DAQPRT_CHR                   ,
      561    10476    1         L_DAQ_ALG                      ,
      562    10477    1         L_DATA_RETRYS                  ,
      563    10478    1         L_DATA_TIM                     ,
      564    10479    1         L_DCHMOVFLD                    ,
      565    10480    1         L_DCH_CHR                      ,
      566    10481    1         L_DCLFLD_ALG                   ,
      567    10482    1         L_DCLFRM_CHR                   ,
      568    10483    1         L_DELAYS                       ,
      569    10484    1         L_DEVICEBS                     ,
      570    10485    1         L_DEVICECR                     ,
      571    10486    1         L_DEVICELF                     ,
      572    10487    1         L_DEVPOSOPTS                   ,
      573    10488    1         L_DEVSCROLL                    ,
      574    10489    1         L_DFLTPRTMODE                  ,
      575    10490    1         L_DISPINPUT                    ,
      576    10491    1         L_DLTALLFLDS_CHR               ,
      577    10492    1         L_DLTFLD_CHR                   ,
      578    10493    1         L_DLTLIN_CHR                   ,
      579    10494    1         L_DSPHEIGHT                    ,
      580    10495    1         L_DVCFLWCTRALG                 ,
      581    10496    1         L_DVCOTPBFRSIZ                 ,
      582    10497    1         L_ED0_CHR                      ,
      583    10498    1         L_ED0DLTFLD                    ,
      584    10499    1         L_ED2_CHR                      ,
PL6.E3A0      #001=AS_SUPER_D File=AS_SUPER_D.:E05TSI                            TUE 07/29/97 10:59 Page:18
      585    10500    1         L_ED2DLTFLD                    ,
      586    10501    1         L_EDITOVR                      ,
      587    10502    1         L_EL0_CHR                      ,
      588    10503    1         L_EL0DLTFLD                    ,
      589    10504    1         L_EMCHR                        ,
      590    10505    1         L_ENDDCLFRM_CHR                ,
      591    10506    1         L_ENDMSGLIN_CHR                ,
      592    10507    1         L_ERASEFLD_CHR                 ,
      593    10508    1         L_ERRDUPBLK                    ,
      594    10509    1         L_ERSTIM                       ,
      595    10510    1         L_EWALT                        ,
      596    10511    1         L_EXTSRD_CHR                   ,
      597    10512    1         L_EXT_SEQ                      ,
      598    10513    1         L_FAST_SEL_ACC                 ,
      599    10514    1         L_FCNTBL                       ,
      600    10515    1         L_FF_FLUSH                     ,
      601    10516    1         L_FF_INCCR                     ,
      602    10517    1         L_FIRSTLINE                    ,
      603    10518    1         L_FLDTRM                       ,
      604    10519    1         L_FRAME                        ,
      605    10520    1         L_FRMFED_CHR                   ,
      606    10521    1         L_FRSCLMFLD                    ,
      607    10522    1         L_FULLDUXPAPERTAPE             ,
      608    10523    1         L_HALFDUXPAPERTAPE             ,
      609    10524    1         L_HEIGHT                       ,
      610    10525    1         L_HOM_CHR                      ,
      611    10526    1         L_HPA_ALG                      ,
      612    10527    1         L_HSCROLL                      ,
      613    10528    1         L_HTS_CHR                      ,
      614    10529    1         L_ICHRQRDCH                    ,
      615    10530    1         L_ICH_CHR                      ,
      616    10531    1         L_IDLE_TIM                     ,
      617    10532    1         L_ILNRQRDLN                    ,
      618    10533    1         L_INPUT                        ,
      619    10534    1         L_INPUTIGNORE                  ,
      620    10535    1         L_INSLIN_CHR                   ,
      621    10536    1         L_INSERTMODE                   ,
PL6.E3A0      #001=AS_SUPER_D File=AS_SUPER_D.:E05TSI                            TUE 07/29/97 10:59 Page:19
      622    10537    1         L_INTERVAL                     ,
      623    10538    1         L_INT_TIM                      ,
      624    10539    1         L_IRSCHR                       ,
      625    10540    1         L_KEEPTYPAHD                   ,
      626    10541    1         L_LENGTH                       ,
      627    10542    1         L_LFISNL                       ,
      628    10543    1         L_LIMBO                        ,
      629    10544    1         L_LIMBOCLM                     ,
      630    10545    1         L_LOCALECHO                    ,
      631    10546    1         L_LOWERCASE                    ,
      632    10547    1         L_LOWERCASEPRINTS              ,
      633    10548    1         L_LSTRECCTN                    ,
      634    10549    1         L_MAXATRS                      ,
      635    10550    1         L_MAXWINDOW                    ,
      636    10551    1         L_MSGHALT                      ,
      637    10552    1         L_MSGLINE                      ,
      638    10553    1         L_MSGLIN_CHR                   ,
      639    10554    1         L_MICROFPL                     ,
      640    10555    1         L_MINREC                       ,
      641    10556    1         L_MINVIRCIR                    ,
      642    10557    1         L_MULSTRM                      ,
      643    10558    1         L_NOOPTMIZ                     ,
      644    10559    1         L_OPDTAB                       ,
      645    10560    1         L_OUTPUT                       ,
      646    10561    1         L_OUTPUTDISCARD                ,
      647    10562    1         L_PADSIGNON                    ,
      648    10563    1         L_PAGEHALT                     ,
      649    10564    1         L_PARITY                       ,
      650    10565    1         L_PARITYCHECK                  ,
      651    10566    1         L_PARKCURSOR                   ,
      652    10567    1         L_PRINTHALT                    ,
      653    10568    1         L_PRINTTYPE                    ,
      654    10569    1         L_PROGDTAB                     ,
      655    10570    1         L_PROTYP                       ,
      656    10571    1         L_PWIDTH                       ,
      657    10572    1         L_RECSZ                        ,
      658    10573    1         L_RECTHR                       ,
PL6.E3A0      #001=AS_SUPER_D File=AS_SUPER_D.:E05TSI                            TUE 07/29/97 10:59 Page:20
      659    10574    1         L_RECWND                       ,
      660    10575    1         L_RELPAGE                      ,
      661    10576    1         L_RESCMP                       ,
      662    10577    1         L_RESET_RETRYS                 ,
      663    10578    1         L_RESET_TIM                    ,
      664    10579    1         L_RESPDELAY                    ,
      665    10580    1         L_RESTART_RETRYS               ,
      666    10581    1         L_RESTART_TIM                  ,
      667    10582    1         L_RESTMR                       ,
      668    10583    1         L_RESTORE_DFLTSCRN_CHR         ,
      669    10584    1         L_RETRANS                      ,
      670    10585    1         L_RETRYS                       ,
      671    10586    1         L_RETYPOVR                     ,
      672    10587    1         L_REVERSE                      ,
      673    10588    1         L_RGNSCROLL                    ,
      674    10589    1         L_RRR                          ,
      675    10590    1         L_RSTINSMOD_CHR                ,
      676    10591    1         L_SCROLL                       ,
      677    10592    1         L_SENDBKSPACE                  ,
      678    10593    1         L_SETFRMLNG_CHR                ,
      679    10594    1         L_SETUP_CHR                    ,
      680    10595    1         L_SGRDCRINT_CHR                ,
      681    10596    1         L_SGRFSTBLN_CHR                ,
      682    10597    1         L_SGRHDN_CHR                   ,
      683    10598    1         L_SGRINCDAQ                    ,
      684    10599    1         L_SGRINCINT_CHR                ,
      685    10600    1         L_SGRINP_CHR                   ,
      686    10601    1         L_SGRINTRO_CHR                 ,
      687    10602    1         L_SGRPRTGRD_CHR                ,
      688    10603    1         L_SGRPRT_CHR                   ,
      689    10604    1         L_SGRRVRVID_CHR                ,
      690    10605    1         L_SGRSLWBLN_CHR                ,
      691    10606    1         L_SGRUNDSCR_CHR                ,
      692    10607    1         L_SGR_ALG                      ,
      693    10608    1         L_SIMPERF                      ,
      694    10609    1         L_SINPUTSZ                     ,
      695    10610    1         L_SIOPT                        ,
PL6.E3A0      #001=AS_SUPER_D File=AS_SUPER_D.:E05TSI                            TUE 07/29/97 10:59 Page:21
      696    10611    1         L_SLC                          ,
      697    10612    1         L_SLCALLBLK                    ,
      698    10613    1         L_SNDSZ                        ,
      699    10614    1         L_SNDTHR                       ,
      700    10615    1         L_SNDWND                       ,
      701    10616    1         L_SPACEINSERT                  ,
      702    10617    1         L_SPCDLTFLD                    ,
      703    10618    1         L_SPCBFRPRT                    ,
      704    10619    1         L_SPEED                        ,
      705    10620    1         L_TABRELATIVE                  ,
      706    10621    1         L_TABS                         ,
      707    10622    1         L_TABSIM                       ,
      708    10623    1         L_TBC3_CHR                     ,
      709    10624    1         L_TIMAFTCTRFNC                 ,
      710    10625    1         L_TIMEOUT                      ,
      711    10626    1         L_TMNALG_AFTCR                 ,
      712    10627    1         L_TMNALG_AFTCUP                ,
      713    10628    1         L_TMNALG_AFTHPA                ,
      714    10629    1         L_TMNALG_AFTHT                 ,
      715    10630    1         L_TMNALG_AFTLF                 ,
      716    10631    1         L_TMNALG_BFRCR                 ,
      717    10632    1         L_TMNALG_BFRLF                 ,
      718    10633    1         L_TMNALG_FILCHR                ,
      719    10634    1         L_TMNALG_PRM1                  ,
      720    10635    1         L_TMNALG_PRM2                  ,
      721    10636    1         L_TMNALG_PRM3                  ,
      722    10637    1         L_TMNALG_PRM4                  ,
      723    10638    1         L_TMNALG_PRM5                  ,
      724    10639    1         L_TMNALG_PRM6                  ,
      725    10640    1         L_TMNALG_PRM7                  ,
      726    10641    1         L_TMNALG_PRM8                  ,
      727    10642    1         L_TRANS_DEL                    ,
      728    10643    1         L_TRUNCATE                     ,
      729    10644    1         L_TRUOVRPRT                    ,
      730    10645    1         L_TTYTYPE                      ,
      731    10646    1         L_UPPERCASE                    ,
      732    10647    1         L_WINDOW                       ,
PL6.E3A0      #001=AS_SUPER_D File=AS_SUPER_D.:E05TSI                            TUE 07/29/97 10:59 Page:22
      733    10648    1         L_WORDWRAPCLM                  ,
      734    10649    1         L_WRAPPAGE                     ,
      735    10650    1         L_GR_FPRG                      ,
      736    10651    1         L_GR_BATCHMODE                 ,
      737    10652    1         L_GR_BKGRNDCOLOR               ,
      738    10653    1         L_GR_BKGRNDTYPE                ,
      739    10654    1         L_GR_CHSIZECOUNT               ,
      740    10655    1         L_GR_CHSIZESUPPORT             ,
      741    10656    1         L_GR_COLRACTION                ,
      742    10657    1         L_GR_COLRMODEL                 ,
      743    10658    1         L_GR_COLRTABSIZE               ,
      744    10659    1         L_GR_COLRTABTYPE               ,
      745    10660    1         L_GR_DEPTHUSE                  ,
      746    10661    1         L_GR_DEVTYPE                   ,
      747    10662    1         L_GR_DIMLEVEL                  ,
      748    10663    1         L_GR_EDGETYPE                  ,
      749    10664    1         L_GR_ESCAPE                    ,
      750    10665    1         L_GR_FONTCOUNT                 ,
      751    10666    1         L_GR_GLBLCOLORS                ,
      752    10667    1         L_GR_GLBLINTENSITIES           ,
      753    10668    1         L_GR_HEIGHTUSE                 ,
      754    10669    1         L_GR_HIDDENLEVEL               ,
      755    10670    1         L_GR_HIGHLTSUPPORT             ,
      756    10671    1         L_GR_IMAGETRANS                ,
      757    10672    1         L_GR_INTNACTION                ,
      758    10673    1         L_GR_INTNSUPPORT               ,
      759    10674    1         L_GR_INTNTABSIZE               ,
      760    10675    1         L_GR_LINESTYLEHWCOUNT          ,
      761    10676    1         L_GR_LINESTYLESWCOUNT          ,
      762    10677    1         L_GR_LINEWCOUNT                ,
      763    10678    1         L_GR_LINEWSUPPORT              ,
      764    10679    1         L_GR_MARKERHWCOUNT             ,
      765    10680    1         L_GR_MARKERSWCOUNT             ,
      766    10681    1         L_GR_MAXCHSIZE                 ,
      767    10682    1         L_GR_MAXLINEWIDTH              ,
      768    10683    1         L_GR_MAXPICK                   ,
      769    10684    1         L_GR_MINCHSIZE                 ,
PL6.E3A0      #001=AS_SUPER_D File=AS_SUPER_D.:E05TSI                            TUE 07/29/97 10:59 Page:23
      770    10685    1         L_GR_MINLINEWIDTH              ,
      771    10686    1         L_GR_NDCDCHARS                 ,
      772    10687    1         L_GR_NDCDCURRENT               ,
      773    10688    1         L_GR_NDCDSPACE                 ,
      774    10689    1         L_GR_NDCHCHARS                 ,
      775    10690    1         L_GR_NDCHCURRENT               ,
      776    10691    1         L_GR_NDCHSPACE                 ,
      777    10692    1         L_GR_NDCWCHARS                 ,
      778    10693    1         L_GR_NDCWCURRENT               ,
      779    10694    1         L_GR_NDCWSPACE                 ,
      780    10695    1         L_GR_OUTLEVEL                  ,
      781    10696    1         L_GR_PENHWCOUNT                ,
      782    10697    1         L_GR_PENSWCOUNT                ,
      783    10698    1         L_GR_PIXELTYPE                 ,
      784    10699    1         L_GR_POLYGONFILL               ,
      785    10700    1         L_GR_POLYGONFILL_PA            ,
      786    10701    1         L_GR_POLYGONFILL_SH            ,
      787    10702    1         L_GR_VIEWSURFACE               ,
      788    10703    1         L_GR_VIEWTYPE                  ,
      789    10704    1         L_GR_WIDTHUSE                  ,
      790    10705    1         L_GR_XPIXMAX                   ,
      791    10706    1         L_GR_XSPACE                    ,
      792    10707    1         L_GR_YPIXMAX                   ,
      793    10708    1         L_GR_YSPACE                    ,
      794    10709    1         L_GR_ZSPACE                    ,
      795    10710    1         L_FUNCTION_KEY                 ,
      796    10711    1           0*0 ),
      797    10712    1          2 POS CHAR(8)  UNAL INIT /* Ordered by SUB# from AS_SUBS_C */
      798    10713    1           ('..3.1'      /*Actontrn*/,
      799    10714    1            '..3.3'      /*Apl*/,
      800    10715    1            '..3.3'      /*Apllcnrm*/,
      801    10716    1            '..1.7'      /*Autonl*/,
      802    10717    1            '..3.5'      /*Bin*/,
      803    10718    1            '..2.5'      /*Blankerases*/,
      804    10719    1            '..2.1'      /*Crisnl*/,
      805    10720    1            '.9..1'      /*CUP_CLMFRS*/,
      806    10721    1            '.9..2'      /*CUP_CMP*/,
PL6.E3A0      #001=AS_SUPER_D File=AS_SUPER_D.:E05TSI                            TUE 07/29/97 10:59 Page:24
      807    10722    1            '...7'      /*Cursorup*/,
      808    10723    1            '..1.5'      /*Devicebs*/,
      809    10724    1            '..1.1'      /*Devicecr*/,
      810    10725    1            '..1.3'      /*Devicelf*/,
      811    10726    1            '..2.7'      /*Devposopts*/,
      812    10727    1            '...5'      /*Devscroll*/,
      813    10728    1            '..1.1'      /*Dispinput*/,
      814    10729    1            '..3.7'      /*Editovr*/,
      815    10730    1            '..2.5'      /*Fullduxpapertape*/,
      816    10731    1            '..2.7'      /*Halfduxpapertape*/,
      817    10732    1            '.1.1.1'      /*Input*/,
      818    10733    1            '..1.5'      /*Inputignore*/,
      819    10734    1            '..2.3'      /*Lfisnl*/,
      820    10735    1            '..2.3'      /*Lowercase*/,
      821    10736    1            '..3.7'      /*Lowercaseprints*/,
      822    10737    1            '.1.2.1'      /*Mulstrm*/,
      823    10738    1            '.1.1.5'      /*Nooptmiz*/,
      824    10739    1            '...3'      /*Opdtab*/,
      825    10740    1            '.1.1.3'      /*Output*/,
      826    10741    1            '..1.7'      /*Outputdiscard*/,
      827    10742    1            '.1..3'      /*Pagehalt*/,
      828    10743    1            '..1.3'      /*Paritycheck*/,
      829    10744    1            '.1..5'      /*Printhalt*/,
      830    10745    1            '.1.1.5'      /*Printtype*/,
      831    10746    1            '...1'      /*Progdtab*/,
      832    10747    1            '.1..7'      /*Relpage*/,
      833    10748    1            '..3.5'      /*Retypovr*/,
      834    10749    1            '.1..1'      /*Scroll*/,
      835    10750    1            '...7'      /*Sendbkspace*/,
      836    10751    1            '.1.1.1'      /*Simperf*/,
      837    10752    1            '...5'      /*Spaceinsert*/,
      838    10753    1            '...3'      /*Tabrelative*/,
      839    10754    1            '...1'      /*Tabsim*/,
      840    10755    1            '.1.1.3'      /*Truncate*/,
      841    10756    1            '..3.1'      /*Truovrprt*/,
      842    10757    1            '.1.1.7'      /*Ttytype*/,
      843    10758    1            '..2.1'      /*Uppercase*/,
PL6.E3A0      #001=AS_SUPER_D File=AS_SUPER_D.:E05TSI                            TUE 07/29/97 10:59 Page:25
      844    10759    1            '0'            /*Awidth*/,
      845    10760    1            '0'            /*Blkbytes*/,
      846    10761    1            '..1'        /*Blkrecs*/,
      847    10762    1            '.1.1'        /*Delays*/,
      848    10763    1            '0'            /*Dvcotpbfrsiz*/,
      849    10764    1            '..3.1'      /*Firstline*/,
      850    10765    1            '.2..1'      /*Height*/,
      851    10766    1            '..1.1'      /*Length*/,
      852    10767    1            '..2.1'      /*Limbo*/,
      853    10768    1            '0'            /*Pwidth*/,
      854    10769    1            '.2.1.1'      /*Minrec*/,
      855    10770    1            '.1'          /*Retrys*/,
      856    10771    1            '.1.2.1'      /*Sinputsz*/,
      857    10772    1            '.2.2.1'      /*Speed*/,
      858    10773    1            '.1.1'        /*TMNALG_AFTCUP*/,
      859    10774    1            '0'            /*TMNALG_AFTCR*/,
      860    10775    1            '.1.2'        /*TMNALG_AFTHPA*/,
      861    10776    1            '.1'          /*TMNALG_AFTHT*/,
      862    10777    1            '..2'        /*TMNALG_AFTLF*/,
      863    10778    1            '..1'        /*TMNALG_BFRCR*/,
      864    10779    1            '..3'        /*TMNALG_BFRLF*/,
      865    10780    1            '0'            /*BS_TIM*/,
      866    10781    1            '0'            /*Erstim*/,
      867    10782    1            '0'            /*Timaftctrfnc*/,
      868    10783    1            '0'            /*TMNALG_PRM1*/,
      869    10784    1            '0'            /*TMNALG_PRM2*/,
      870    10785    1            '0'            /*TMNALG_PRM3*/,
      871    10786    1            '0'            /*TMNALG_PRM4*/,
      872    10787    1            '0'            /*TMNALG_PRM5*/,
      873    10788    1            '0'            /*TMNALG_PRM6*/,
      874    10789    1            '0'            /*TMNALG_PRM7*/,
      875    10790    1            '0'            /*TMNALG_PRM8*/,
      876    10791    1            '0'            /*Fcntbl*/,
      877    10792    1            '0'            /*Charsetname*/,
      878    10793    1            '.2.2'        /*Emchr*/,
      879    10794    1            '.2.3'        /*Irschr*/,
      880    10795    1            '.8.2'        /*CUP_ALG*/,
PL6.E3A0      #001=AS_SUPER_D File=AS_SUPER_D.:E05TSI                            TUE 07/29/97 10:59 Page:26
      881    10796    1            '.2.3.6'      /*Dvcflwctralg*/,
      882    10797    1            '.8.1'        /*HPA_ALG*/,
      883    10798    1            '.1..6'      /*Parity*/,
      884    10799    1            '0'            /*Protyp*/,
      885    10800    1            '.8.3'        /*CUP_BIS*/,
      886    10801    1            '.3..1'      /*Lstrecctn*/,
      887    10802    1            '0'            /*CUB_CHR*/,
      888    10803    1            '0'            /*CUD_CHR*/,
      889    10804    1            '0'            /*CUF_CHR*/,
      890    10805    1            '0'            /*CUP_CHR*/,
      891    10806    1            '0'            /*CUU_CHR*/,
      892    10807    1            '0'            /*DCH_CHR*/,
      893    10808    1            '0'            /*ED0_CHR*/,
      894    10809    1            '0'            /*ED2_CHR*/,
      895    10810    1            '0'            /*EL0_CHR*/,
      896    10811    1            '0'            /*FRMFED_CHR*/,
      897    10812    1            '0'            /*HOM_CHR*/,
      898    10813    1            '0'            /*HTS_CHR*/,
      899    10814    1            '0'            /*ICH_CHR*/,
      900    10815    1            '0'            /*RSTINSMOD_CHR*/,
      901    10816    1            '0'            /*SETFRMLNG_CHR*/,
      902    10817    1            '0'            /*TBC3_CHR*/,
      903    10818    1            '.3..2'      /*Errdupblk*/,
      904    10819    1            '.3..3'      /*Rrr*/,
      905    10820    1            '.2'          /*Interval*/,
      906    10821    1            '.2.1.3'      /*Compress*/,
      907    10822    1            '.1'          /*Timeout*/,
      908    10823    1            '..3'        /*Retransmissions*/,
      909    10824    1            '.1.1'        /*Window*/,
      910    10825    1            '...3'      /*Frame*/,
      911    10826    1            '.3..4'      /*Slc*/,
      912    10827    1            '...1'      /*Calls*/,
      913    10828    1            '0'            /*Reverse*/,
      914    10829    1            '.3..5'      /*Slcallblk*/,
      915    10830    1            '.3..6'      /*Padsignon*/,
      916    10831    1            '..2.2'      /*Max window*/,
      917    10832    1            '0'            /*Response delay*/,
PL6.E3A0      #001=AS_SUPER_D File=AS_SUPER_D.:E05TSI                            TUE 07/29/97 10:59 Page:27
      918    10833    1            '.1.2'        /*Restart timeout*/,
      919    10834    1            '.1.3'        /*Restart retries*/,
      920    10835    1            '.7'          /*Maxatrs*/,
      921    10836    1            '.1.2.3'      /*Atrscrnpos*/,
      922    10837    1            '.9.2'        /*SGR_ALG*/,
      923    10838    1            '.9.3'        /*DAQ_ALG*/,
      924    10839    1            '0'            /*SGRINTRO_CHR*/,
      925    10840    1            '0'            /*DAQINTRO_CHR*/,
      926    10841    1            '.9..5'      /*Sgrincdaq*/,
      927    10842    1            '.9..6'      /*Dfltprtmode*/,
      928    10843    1            '.10'         /*DCLFLD_ALG*/,
      929    10844    1            '0'            /*DCLFRM_CHR*/,
      930    10845    1            '0'            /*ENDDCLFRM_CHR*/,
      931    10846    1            '0'            /*RESTORE_DFLTSCRN_CHR*/,
      932    10847    1            '.10.1'       /*SGRHDN_CHR*/,
      933    10848    1            '.10.2'       /*SGRINCINT_CHR*/,
      934    10849    1            '.10.3'       /*SGRDCRINT_CHR*/,
      935    10850    1            '.11'         /*SGRUNDSCR_CHR*/,
      936    10851    1            '.11.1'       /*SGRSLWBLN_CHR*/,
      937    10852    1            '.11.2'       /*SGRFSTBLN_CHR*/,
      938    10853    1            '.11.3'       /*SGRRVRVID_CHR*/,
      939    10854    1            '.12'         /*SGRPRT_CHR*/,
      940    10855    1            '.12.1'       /*SGRINP_CHR*/,
      941    10856    1            '.12.2'       /*SGRPRTGRD_CHR*/,
      942    10857    1            '.12.3'       /*DAQPRT_CHR*/,
      943    10858    1            '.13'         /*DAQINP_CHR*/,
      944    10859    1            '.13.1'       /*DAQPRTGRD_CHR*/,
      945    10860    1            '0'            /*DLTALLFLDS_CHR*/,
      946    10861    1            '0'            /*INSLIN_CHR*/,
      947    10862    1            '0'            /*DLTLIN_CHR*/,
      948    10863    1            '0'            /*ERASEFLD_CHR*/,
      949    10864    1            '0'            /*DLTFLD_CHR*/,
      950    10865    1            '.1.2.5'      /*Fldtrm*/,
      951    10866    1            '...5'      /*Ewalt*/,
      952    10867    1            '...7'      /*Siopt*/,
      953    10868    1            '0'            /*ABSGRPRND_NULL*/,
      954    10869    1            '0'            /*ABSGRPRND_HIDDEN*/,
PL6.E3A0      #001=AS_SUPER_D File=AS_SUPER_D.:E05TSI                            TUE 07/29/97 10:59 Page:28
      955    10870    1            '0'            /*ABSGRPRND_EMPHASIS*/,
      956    10871    1            '0'            /*ABSGRPRND_INPUT*/,
      957    10872    1            '0'            /*ABSGRPRND_OUTPUT*/,
      958    10873    1            '0'            /*ABSGRPRND_ERROR*/,
      959    10874    1            '0'            /*ABSGRPRND_WARNING*/,
      960    10875    1            '.1.3'        /*TMNALG_FILCHR*/,
      961    10876    1            '.1.2.1'      /*Spcbfrprt*/,
      962    10877    1            '.1.1.7'      /*Wrappage*/,
      963    10878    1            '.1..1'      /*Limboclm*/,
      964    10879    1            '.1..3'      /*Localecho*/,
      965    10880    1            '.3.2.1'      /*Parkcursor*/,
      966    10881    1            '0'            /* */,
      967    10882    1            '.3.2.1'      /*Receive size*/,
      968    10883    1            '.3.2.5'      /*Receive thr*/,
      969    10884    1            '.3.3.2'      /*Receive win*/,
      970    10885    1            '.3.3.1'      /*Resp to com*/,
      971    10886    1            '.4.1.5'      /*Send size*/,
      972    10887    1            '.4.1.1'      /*Send thr*/,
      973    10888    1            '.4.2.2'      /*Send window*/,
      974    10889    1            '...8'      /*Fast select accept*/,
      975    10890    1            '.3.1'        /*Resp timer*/,
      976    10891    1            '0'            /*EXTSRD_CHR*/,
      977    10892    1            '.2.3.1'      /*FF_FLUSH*/,
      978    10893    1            '0'            /*MSGLIN_CHR*/,
      979    10894    1            '0'            /*ENDMSGLIN_CHR*/,
      980    10895    1            '.9..8'      /*Spcdltfld*/,
      981    10896    1            '.9.1.6'      /*EL0DLTFLD*/,
      982    10897    1            '.9.1.7'      /*ED0DLTFLD*/,
      983    10898    1            '.9.1.8'      /*ED2DLTFLD*/,
      984    10899    1            '.9..3'      /*Ichrqrdch*/,
      985    10900    1            '.9..4'      /*Ilnrqrdln*/,
      986    10901    1            '.9..7'      /*Frsclmfld*/,
      987    10902    1            '.2..5'      /*Msghalt*/,
      988    10903    1            '.2.1.1'      /*Msgline*/,
      989    10904    1            '.2..3'      /*Insertmode*/,
      990    10905    1            '.2..1'      /*Hscroll*/,
      991    10906    1            '.2.2'        /*Wordwrapclm*/,
PL6.E3A0      #001=AS_SUPER_D File=AS_SUPER_D.:E05TSI                            TUE 07/29/97 10:59 Page:29
      992    10907    1            '.2.3'        /*Autotabclm*/,
      993    10908    1            '0'            /*SETUP_CHR*/,
      994    10909    1            '.1.2.7'      /*Dchmovfld*/,
      995    10910    1            '.7.1'        /*Dspheight*/,
      996    10911    1            '.9.1.5'      /*Rgnscroll*/,
      997    10912    1            '0'            /*Extended sequence*/,
      998    10913    1            '0'            /*Charge info*/,
      999    10914    1            '0'            /*Transit delay*/,
     1000    10915    1            '..2'        /*Reset timeout*/,
     1001    10916    1            '..3'        /*Reset retries*/,
     1002    10917    1            '.1'          /*Clear timeout*/,
     1003    10918    1            '.1.1'        /*Clear retries*/,
     1004    10919    1            '.1.2'        /*Data timeout*/,
     1005    10920    1            '.1.3'        /*Data retries*/,
     1006    10921    1            '.2'          /*Interrupt timeout*/,
     1007    10922    1            '0'            /*Idle timeout*/,
     1008    10923    1            '.3'          /*Call timeout*/,
     1009    10924    1            '.2.3'        /*Call retries*/,
     1010    10925    1            '.2.2'        /*Call delay*/,
     1011    10926    1            '.3.2.3'      /*Cursorread*/,
     1012    10927    1            '.3.2.7'      /*Autocursor*/,
     1013    10928    1            '.3.2.5'      /*Keeptypahd*/,
     1014    10929    1            '.7.2.1'      /*FF_INCCR*/,
     1015    10930    1            '.2.3.3'      /*Microfpl*/,
     1016    10931    1            '0'           /*Tabs*/,
     1017    10932    1            '0'           /*GR_FPRG*/,
     1018    10933    1            '0'            /*GR_GLBLCOLORS*/,
     1019    10934    1            '.1'          /*GR_GLBLINTEN*/,
     1020    10935    1            '.2'          /*GR_MAXPICK*/,
     1021    10936    1            '.3'          /*GR_XSPACE*/,
     1022    10937    1            '.4'          /*GR_YSPACE*/,
     1023    10938    1            '.5'          /*GR_ZSPACE*/,
     1024    10939    1            '.6'          /*GR_NDCWSPACE*/,
     1025    10940    1            '.7'          /*GR_NDCHSPACE*/,
     1026    10941    1            '.8'          /*GR_NDCDSPACE*/,
     1027    10942    1            '.11'         /*GR_NDCDCHARS*/,
     1028    10943    1            '.10'         /*GR_NDCHCHARS*/,
PL6.E3A0      #001=AS_SUPER_D File=AS_SUPER_D.:E05TSI                            TUE 07/29/97 10:59 Page:30
     1029    10944    1            '.9'          /*GR_NDCWCHARS*/,
     1030    10945    1            '.12'         /*GR_WIDTHUSE*/,
     1031    10946    1            '.13'         /*GR_HEIGHTUSE*/,
     1032    10947    1            '.14'         /*GR_DEPTHUSE*/,
     1033    10948    1            '.16'         /*GR_NDCDCURRENT*/,
     1034    10949    1            '.15.2'       /*GR_NDCHCURRENT*/,
     1035    10950    1            '.15'         /*GR_NDCWCURRENT*/,
     1036    10951    1            '.16.2'       /*GR_MINLINEWIDTH*/,
     1037    10952    1            '.17'         /*GR_MAXLINEWIDTH*/,
     1038    10953    1            '.17.2'       /*GR_MINCHSIZE*/,
     1039    10954    1            '.18'         /*GR_MAXCHSIZE*/,
     1040    10955    1            '.37'         /*GR_ESCAPE*/,
     1041    10956    1            '.18.2'       /*GR_VIEWSURFACE*/,
     1042    10957    1            '.19'         /*GR_POLYGONFILL pla*/,
     1043    10958    1            '.19.2'       /*GR_POLYGONFILL sha*/,
     1044    10959    1            '.20'         /*GR_POLYGONFILL pat*/,
     1045    10960    1            '.20.2'       /*GR_XPIXMAX*/,
     1046    10961    1            '.21'         /*GR_YPIXMAX*/,
     1047    10962    1            '.21.2'       /*GR_COLRTABSIZE*/,
     1048    10963    1            '.22'         /*GR_INTNTABSIZE*/,
     1049    10964    1            '.22.2'       /*GR_LINESTYLEHWCOUNT*/,
     1050    10965    1            '.23.2'       /*GR_LINEWCOUNT*/,
     1051    10966    1            '.24'         /*GR_FONTCOUNT*/,
     1052    10967    1            '.24.2'       /*GR_PENHWCOUNT*/,
     1053    10968    1            '.25.2'       /*GR_CHSIZECOUNT*/,
     1054    10969    1            '.26'         /*GR_MARKERHWCOUNT*/,
     1055    10970    1            '.27'         /*GR_LINEWSUPPORT*/,
     1056    10971    1            '.26.2'       /*GR_MARKERSWCOUNT*/,
     1057    10972    1            '.27..8'     /*GR_INTNSUPPORT*/,
     1058    10973    1            '.27..4'     /*GR_CHSIZESUPPORT*/,
     1059    10974    1            '.27.1.3'     /*GR_HIGHLTSUPPORT*/,
     1060    10975    1            '.27.1.7'     /*GR_OUTLEVEL*/,
     1061    10976    1            '.27.2.4'     /*GR_BATCHMODE*/,
     1062    10977    1            '.27.2.8'     /*GR_HIDDENLEVEL*/,
     1063    10978    1            '.27.3.3'     /*GR_DIMLEVEL*/,
     1064    10979    1            '.27.3.5'     /*GR_VIEWTYPE*/,
     1065    10980    1            '.28'         /*GR_PIXELTYPE*/,
PL6.E3A0      #001=AS_SUPER_D File=AS_SUPER_D.:E05TSI                            TUE 07/29/97 10:59 Page:31
     1066    10981    1            '.28..4'     /*GR_EDGETYPE*/,
     1067    10982    1            '.28..8'     /*GR_COLRTABTYPE*/,
     1068    10983    1            '.28.1.3'     /*GR_BKGRNDTYPE*/,
     1069    10984    1            '.28.1.5'     /*GR_DEVTYPE*/,
     1070    10985    1            '.28.1.7'     /*GR_IMAGETRANS*/,
     1071    10986    1            '.28.2.2'     /*GR_COLRMODEL*/,
     1072    10987    1            '.28.2.4'     /*GR_BKGRNDCOLOR*/,
     1073    10988    1            '.28.2.6'     /*GR_COLRACTION*/,
     1074    10989    1            '.28.3.1'     /*GR_INTNACTION*/,
     1075    10990    1            '.23'         /*GR_LINESTYLESWCOUNT*/,
     1076    10991    1            '.25'         /*GR_PENSWCOUNT*/,
     1077    10992    1            '0'            /*Function*/,
     1078    10993    1            '0'*0          /*End*/),
     1079    10994    1          2 FMT_IDX UBIN BYTE UNAL INIT  /*Ordered by SUB# from AS_SUBS_C */
     1080    10995    1           ( C_YESNODC          /*Actontrn*/,
     1081    10996    1             C_YESNODC          /*Apl*/,
     1082    10997    1             C_YESNODC          /*Apllcnrm*/,
     1083    10998    1             C_YESNODC          /*Autonl*/,
     1084    10999    1             C_YESNODC          /*Bin*/,
     1085    11000    1             C_YESNODC          /*Blankerases*/,
     1086    11001    1             C_YESNODC          /*Crisnl*/,
     1087    11002    1             C_YESNO            /*CUP_CLMFRS*/,
     1088    11003    1             C_YESNO            /*CUP_CMP*/,
     1089    11004    1             C_YESNODC          /*Cursorup*/,
     1090    11005    1             C_YESNODC          /*Devicebs*/,
     1091    11006    1             C_YESNODC          /*Devicecr*/,
     1092    11007    1             C_YESNODC          /*Devicelf*/,
     1093    11008    1             C_YESNODC          /*Devposopts*/,
     1094    11009    1             C_YESNODC          /*Devscroll*/,
     1095    11010    1             C_YESNODC          /*Dispinput*/,
     1096    11011    1             C_YESNODC          /*Editovr*/,
     1097    11012    1             C_YESNODC          /*Fullduxpapertape*/,
     1098    11013    1             C_YESNODC          /*Halfduxpapertape*/,
     1099    11014    1             C_YESNODC          /*Input*/,
     1100    11015    1             C_YESNODC          /*Inputignore*/,
     1101    11016    1             C_YESNODC          /*Lfisnl*/,
     1102    11017    1             C_YESNODC          /*Lowercase*/,
PL6.E3A0      #001=AS_SUPER_D File=AS_SUPER_D.:E05TSI                            TUE 07/29/97 10:59 Page:32
     1103    11018    1             C_YESNODC          /*Lowercaseprints*/,
     1104    11019    1             C_YESNO            /*Mulstrm*/,
     1105    11020    1             C_YESNODC          /*Nooptmiz*/,
     1106    11021    1             C_YESNODC          /*Opdtab*/,
     1107    11022    1             C_YESNODC          /*Output*/,
     1108    11023    1             C_YESNODC          /*Outputdiscard*/,
     1109    11024    1             C_YESNODC          /*Pagehalt*/,
     1110    11025    1             C_YESNODC          /*Paritycheck*/,
     1111    11026    1             C_YESNODC          /*Printhalt*/,
     1112    11027    1             C_YESNODC          /*Printtype*/,
     1113    11028    1             C_YESNODC          /*Progdtab*/,
     1114    11029    1             C_YESNODC          /*Relpage*/,
     1115    11030    1             C_YESNODC          /*Retypovr*/,
     1116    11031    1             C_YESNODC          /*Scroll*/,
     1117    11032    1             C_YESNODC          /*Sendbkspace*/,
     1118    11033    1             C_YESNODC          /*Simperf*/,
     1119    11034    1             C_YESNODC          /*Spaceinsert*/,
     1120    11035    1             C_YESNODC          /*Tabrelative*/,
     1121    11036    1             C_YESNODC          /*Tabsim*/,
     1122    11037    1             C_YESNODC          /*Truncate*/,
     1123    11038    1             C_YESNODC          /*Truovrprt*/,
     1124    11039    1             C_YESNODC          /*Ttytype*/,
     1125    11040    1             C_YESNODC          /*Uppercase*/,
     1126    11041    1             C_SPECIAL_FORMAT   /*Awidth*/,
     1127    11042    1             C_SBIN             /*Blkbytes*/,
     1128    11043    1             C_BYTE_UBIN        /*Blkrecs*/,
     1129    11044    1             C_BYTE_UBIN        /*Delays*/,
     1130    11045    1             C_SBIN             /*Dvcotpbfrsiz*/,
     1131    11046    1             C_8BIT_DC          /*Firstline*/,
     1132    11047    1             C_8BIT_DC          /*Height*/,
     1133    11048    1             C_8BIT_DC          /*Length*/,
     1134    11049    1             C_8BIT_DC          /*Limbo*/,
     1135    11050    1             C_SPECIAL_FORMAT   /*Pwidth*/,
     1136    11051    1             C_8BIT_DC          /*Minrec*/,
     1137    11052    1             C_BYTE_UBIN        /*Retrys*/,
     1138    11053    1             C_8BIT_DC          /*Sinputsz*/,
     1139    11054    1             C_SPECIAL_FORMAT   /*Speed*/,
PL6.E3A0      #001=AS_SUPER_D File=AS_SUPER_D.:E05TSI                            TUE 07/29/97 10:59 Page:33
     1140    11055    1             C_BYTE_UBIN        /*TMNALG_AFTCUP*/,
     1141    11056    1             C_BYTE_UBIN        /*TMNALG_AFTCR*/,
     1142    11057    1             C_BYTE_UBIN        /*TMNALG_AFTHPA*/,
     1143    11058    1             C_BYTE_UBIN        /*TMNALG_AFTHT*/,
     1144    11059    1             C_BYTE_UBIN        /*TMNALG_AFTLF*/,
     1145    11060    1             C_BYTE_UBIN        /*TMNALG_BFRCR*/,
     1146    11061    1             C_BYTE_UBIN        /*TMNALG_BFRLF*/,
     1147    11062    1             C_REAL             /*BS_TIM*/,
     1148    11063    1             C_REAL             /*Erstim*/,
     1149    11064    1             C_REAL             /*Timaftctrfnc*/,
     1150    11065    1             C_REAL             /*TMNALG_PRM1*/,
     1151    11066    1             C_REAL             /*TMNALG_PRM2*/,
     1152    11067    1             C_REAL             /*TMNALG_PRM3*/,
     1153    11068    1             C_REAL             /*TMNALG_PRM4*/,
     1154    11069    1             C_REAL             /*TMNALG_PRM5*/,
     1155    11070    1             C_REAL             /*TMNALG_PRM6*/,
     1156    11071    1             C_REAL             /*TMNALG_PRM7*/,
     1157    11072    1             C_REAL             /*TMNALG_PRM8*/,
     1158    11073    1             C_SPECIAL          /*Fcntbl*/,
     1159    11074    1             C_TEXT             /*Charsetname*/,
     1160    11075    1             C_HEX              /*Emchr*/,
     1161    11076    1             C_HEX              /*Irschr*/,
     1162    11077    1             C_SPECIAL_FORMAT   /*CUP_ALG*/,
     1163    11078    1             C_SPECIAL_FORMAT   /*Dvcflwctralg*/,
     1164    11079    1             C_SPECIAL_FORMAT   /*HPA_ALG*/,
     1165    11080    1             C_SPECIAL_FORMAT   /*Parity*/,
     1166    11081    1             C_SPECIAL_FORMAT   /*Protyp*/,
     1167    11082    1             C_BYTE_UBIN        /*CUP_BIS*/,
     1168    11083    1             C_YESNO            /*Lstrecctn*/,
     1169    11084    1             C_HEX_LIST         /*CUB_CHR*/,
     1170    11085    1             C_HEX_LIST         /*CUD_CHR*/,
     1171    11086    1             C_HEX_LIST         /*CUF_CHR*/,
     1172    11087    1             C_HEX_LIST         /*CUP_CHR*/,
     1173    11088    1             C_HEX_LIST         /*CUU_CHR*/,
     1174    11089    1             C_HEX_LIST         /*DCH_CHR*/,
     1175    11090    1             C_HEX_LIST         /*ED0_CHR*/,
     1176    11091    1             C_HEX_LIST         /*ED2_CHR*/,
PL6.E3A0      #001=AS_SUPER_D File=AS_SUPER_D.:E05TSI                            TUE 07/29/97 10:59 Page:34
     1177    11092    1             C_HEX_LIST         /*EL0_CHR*/,
     1178    11093    1             C_SPECIAL          /*FRMFED_CHR*/,
     1179    11094    1             C_HEX_LIST         /*HOM_CHR*/,
     1180    11095    1             C_HEX_LIST         /*HTS_CHR*/,
     1181    11096    1             C_HEX_LIST         /*ICH_CHR*/,
     1182    11097    1             C_HEX_LIST         /*RSTINSMOD_CHR*/,
     1183    11098    1             C_HEX_LIST         /*SETFRMLNG_CHR*/,
     1184    11099    1             C_HEX_LIST         /*TBC3_CHR*/,
     1185    11100    1             C_YESNO            /*Errdupblk*/,
     1186    11101    1             C_YESNO            /*Rrr*/,
     1187    11102    1             C_BYTE_UBIN        /*Interval*/,
     1188    11103    1             C_SPECIAL_FORMAT   /*Compress*/,
     1189    11104    1             C_BYTE_UBIN        /*Timeout*/,
     1190    11105    1             C_BYTE_UBIN        /*Retransmissions*/,
     1191    11106    1             C_BYTE_UBIN        /*Window*/,
     1192    11107    1             C_SPECIAL_FORMAT   /*Frame*/,
     1193    11108    1             C_YESNO            /*Slc*/,
     1194    11109    1             C_SPECIAL_FORMAT   /*Calls*/,
     1195    11110    1             C_SPECIAL          /*Reverse*/,
     1196    11111    1             C_YESNO            /*Slcallblk*/,
     1197    11112    1             C_YESNO            /*Padsignon*/,
     1198    11113    1             C_7BIT_UBIN        /*Max window*/,
     1199    11114    1             C_SPECIAL_POSITION /*Response delay*/,
     1200    11115    1             C_BYTE_UBIN        /*Restart timeout*/,
     1201    11116    1             C_BYTE_UBIN        /*Restart retries*/,
     1202    11117    1             C_BYTE_DC          /*Maxatrs*/,
     1203    11118    1             C_YESNODC          /*Atrscrnpos*/,
     1204    11119    1             C_VDH_ALG_TYPE     /*SGR_ALG*/,
     1205    11120    1             C_VDH_ALG_TYPE     /*DAQ_ALG*/,
     1206    11121    1             C_HEX_LIST         /*SGRINTRO_CHR*/,
     1207    11122    1             C_HEX_LIST         /*DAQINTRO_CHR*/,
     1208    11123    1             C_YESNO            /*Sgrincdaq*/,
     1209    11124    1             C_SPECIAL_FORMAT   /*Dfltprtmode*/,
     1210    11125    1             C_VDH_ALG_TYPE     /*DCLFLD_ALG*/,
     1211    11126    1             C_HEX_LIST         /*DCLFRM_CHR*/,
     1212    11127    1             C_HEX_LIST         /*ENDDCLFRM_CHR*/,
     1213    11128    1             C_HEX_LIST         /*RESTORE_DFLTSCRN_CHR*/,
PL6.E3A0      #001=AS_SUPER_D File=AS_SUPER_D.:E05TSI                            TUE 07/29/97 10:59 Page:35
     1214    11129    1             C_HEX              /*SGRHDN_CHR*/,
     1215    11130    1             C_HEX              /*SGRINCINT_CHR*/,
     1216    11131    1             C_HEX              /*SGRDCRINT_CHR*/,
     1217    11132    1             C_HEX              /*SGRUNDSCR_CHR*/,
     1218    11133    1             C_HEX              /*SGRSLWBLN_CHR*/,
     1219    11134    1             C_HEX              /*SGRFSTBLN_CHR*/,
     1220    11135    1             C_HEX              /*SGRRVRVID_CHR*/,
     1221    11136    1             C_HEX              /*SGRPRT_CHR*/,
     1222    11137    1             C_HEX              /*SGRINP_CHR*/,
     1223    11138    1             C_HEX              /*SGRPRTGRD_CHR*/,
     1224    11139    1             C_HEX              /*DAQPRT_CHR*/,
     1225    11140    1             C_HEX              /*DAQINP_CHR*/,
     1226    11141    1             C_HEX              /*DAQPRTGRD_CHR*/,
     1227    11142    1             C_HEX_LIST         /*DLTALLFLDS_CHR*/,
     1228    11143    1             C_HEX_LIST         /*INSLIN_CHR*/,
     1229    11144    1             C_HEX_LIST         /*DLTLIN_CHR*/,
     1230    11145    1             C_HEX_LIST         /*ERASEFLD_CHR*/,
     1231    11146    1             C_HEX_LIST         /*DLTFLD_CHR*/,
     1232    11147    1             C_SPECIAL_FORMAT   /*Fldtrm*/,
     1233    11148    1             C_YESNODC          /*Ewalt*/,
     1234    11149    1             C_YESNO            /*Siopt*/,
     1235    11150    1             C_ABSGRPRND        /*ABSGRPRND_NULL*/,
     1236    11151    1             C_ABSGRPRND        /*ABSGRPRND_HIDDEN*/,
     1237    11152    1             C_ABSGRPRND        /*ABSGRPRND_EMPHASIS*/,
     1238    11153    1             C_ABSGRPRND        /*ABSGRPRND_INPUT*/,
     1239    11154    1             C_ABSGRPRND        /*ABSGRPRND_OUTPUT*/,
     1240    11155    1             C_ABSGRPRND        /*ABSGRPRND_ERROR*/,
     1241    11156    1             C_ABSGRPRND        /*ABSGRPRND_WARNING*/,
     1242    11157    1             C_HEX              /*TMNALG_FILCHR*/,
     1243    11158    1             C_YESNODC          /*Spcbfrprt*/,
     1244    11159    1             C_YESNODC          /*Wrappage*/,
     1245    11160    1             C_YESNODC          /*Limboclm*/,
     1246    11161    1             C_YESNODC          /*Localecho*/,
     1247    11162    1             C_YESNODC          /*Parkcursor*/,
     1248    11163    1             0                  /* */,
     1249    11164    1             C_SPECIAL_FORMAT   /*Receive size*/,
     1250    11165    1             C_SPECIAL_FORMAT   /*Receive thr*/,
PL6.E3A0      #001=AS_SUPER_D File=AS_SUPER_D.:E05TSI                            TUE 07/29/97 10:59 Page:36
     1251    11166    1             C_7BIT_UBIN        /*Receive win*/,
     1252    11167    1             C_YESNO            /*Resp to com*/,
     1253    11168    1             C_SPECIAL_FORMAT   /*Send size*/,
     1254    11169    1             C_SPECIAL_FORMAT   /*Send thr*/,
     1255    11170    1             C_7BIT_UBIN        /*Send window*/,
     1256    11171    1             C_YESNO            /*Fast select accept*/,
     1257    11172    1             C_BYTE_UBIN        /*Resp timer*/,
     1258    11173    1             C_HEX_LIST         /*EXTSRD_CHR*/,
     1259    11174    1             C_YESNODC          /*FF_FLUSH*/,
     1260    11175    1             C_HEX_LIST         /*MSGLIN_CHR*/,
     1261    11176    1             C_HEX_LIST         /*ENDMSGLIN_CHR*/,
     1262    11177    1             C_YESNO            /*Spcdltfld*/,
     1263    11178    1             C_YESNO            /*EL0DLTFLD*/,
     1264    11179    1             C_YESNO            /*ED0DLTFLD*/,
     1265    11180    1             C_YESNO            /*ED2DLTFLD*/,
     1266    11181    1             C_YESNO            /*Ichrqrdch*/,
     1267    11182    1             C_YESNO            /*Ilnrqrdln*/,
     1268    11183    1             C_YESNO            /*Frsclmfld*/,
     1269    11184    1             C_YESNODC          /*Msghalt*/,
     1270    11185    1             C_YESNODC          /*Msgline*/,
     1271    11186    1             C_YESNODC          /*Insertmode*/,
     1272    11187    1             C_YESNODC          /*Hscroll*/,
     1273    11188    1             C_BYTE_DC          /*Wordwrapclm*/,
     1274    11189    1             C_BYTE_DC          /*Autotabclm*/,
     1275    11190    1             C_ALL_DONE         /*SETUP_CHR*/,
     1276    11191    1             C_YESNODC          /*Dchmovfld*/,
     1277    11192    1             C_BYTE_DC          /*Dspheight*/,
     1278    11193    1             C_YESNO            /*Rgnscroll*/,
     1279    11194    1             C_SPECIAL_POSITION /*Extended sequence*/,
     1280    11195    1             C_SPECIAL_POSITION /*Charge info*/,
     1281    11196    1             C_SBIN             /*Transit delay*/,
     1282    11197    1             C_BYTE_UBIN        /*Reset timeout*/,
     1283    11198    1             C_BYTE_UBIN        /*Reset retries*/,
     1284    11199    1             C_BYTE_UBIN        /*Clear timeout*/,
     1285    11200    1             C_BYTE_UBIN        /*Clear retries*/,
     1286    11201    1             C_BYTE_UBIN        /*Data timeout*/,
     1287    11202    1             C_BYTE_UBIN        /*Data retries*/,
PL6.E3A0      #001=AS_SUPER_D File=AS_SUPER_D.:E05TSI                            TUE 07/29/97 10:59 Page:37
     1288    11203    1             C_BYTE_UBIN        /*Interrupt timeout*/,
     1289    11204    1             C_SPECIAL_POSITION /*Idle timeout*/,
     1290    11205    1             C_BYTE_UBIN        /*Call timeout*/,
     1291    11206    1             C_BYTE_UBIN        /*Call retries*/,
     1292    11207    1             C_BYTE_UBIN        /*Call delay*/,
     1293    11208    1             C_YESNODC          /*Cursorread*/,
     1294    11209    1             C_YESNODC          /*Autocursor*/,
     1295    11210    1             C_YESNODC          /*Keeptypahd*/,
     1296    11211    1             C_YESNODC          /*FF_INCCR*/,
     1297    11212    1             C_YESNODC          /*Microfpl*/,
     1298    11213    1             C_SPECIAL_FORMAT   /*Tabs*/,
     1299    11214    1             C_SPECIAL          /*GR_FPRG*/,
     1300    11215    1             C_SBIN             /*GR_GLBLCOLORS*/,
     1301    11216    1             C_SBIN             /*GR_GLBLINTEN*/,
     1302    11217    1             C_SBIN             /*GR_MAXPICK*/,
     1303    11218    1             C_SBIN             /*GR_XSPACE*/,
     1304    11219    1             C_SBIN             /*GR_YSPACE*/,
     1305    11220    1             C_SBIN             /*GR_ZSPACE*/,
     1306    11221    1             C_SBIN             /*GR_NDCWSPACE*/,
     1307    11222    1             C_SBIN             /*GR_NDCHSPACE*/,
     1308    11223    1             C_SBIN             /*GR_NDCDSPACE*/,
     1309    11224    1             C_SBIN             /*GR_NDCDCHARS*/,
     1310    11225    1             C_SBIN             /*GR_NDCHCHARS*/,
     1311    11226    1             C_SBIN             /*GR_NDCWCHARS*/,
     1312    11227    1             C_SBIN             /*GR_WIDTHUSE*/,
     1313    11228    1             C_SBIN             /*GR_HEIGHTUSE*/,
     1314    11229    1             C_SBIN             /*GR_DEPTHUSE*/,
     1315    11230    1             C_18BIT_UBIN       /*GR_NDCDCURRENT*/,
     1316    11231    1             C_18BIT_UBIN       /*GR_NDCHCURRENT*/,
     1317    11232    1             C_18BIT_UBIN       /*GR_NDCWCURRENT*/,
     1318    11233    1             C_18BIT_UBIN       /*GR_MINLINEWIDTH*/,
     1319    11234    1             C_18BIT_UBIN       /*GR_MAXLINEWIDTH*/,
     1320    11235    1             C_18BIT_UBIN       /*GR_MINCHSIZE*/,
     1321    11236    1             C_18BIT_UBIN       /*GR_MAXCHSIZE*/,
     1322    11237    1             C_ALL_DONE         /*GR_ESCAPE*/,
     1323    11238    1             C_18BIT_UBIN       /*GR_VIEWSURFACE*/,
     1324    11239    1             C_18BIT_UBIN       /*GR_POLYGONFILL pla*/,
PL6.E3A0      #001=AS_SUPER_D File=AS_SUPER_D.:E05TSI                            TUE 07/29/97 10:59 Page:38
     1325    11240    1             C_18BIT_UBIN       /*GR_POLYGONFILL sha*/,
     1326    11241    1             C_18BIT_UBIN       /*GR_POLYGONFILL pat*/,
     1327    11242    1             C_18BIT_UBIN       /*GR_XPIXMAX*/,
     1328    11243    1             C_18BIT_UBIN       /*GR_YPIXMAX*/,
     1329    11244    1             C_18BIT_UBIN       /*GR_COLRTABSIZE*/,
     1330    11245    1             C_18BIT_UBIN       /*GR_INTNTABSIZE*/,
     1331    11246    1             C_18BIT_UBIN       /*GR_LINESTYLEHWCOUNT*/,
     1332    11247    1             C_18BIT_UBIN       /*GR_LINEWCOUNT*/,
     1333    11248    1             C_18BIT_UBIN       /*GR_FONTCOUNT*/,
     1334    11249    1             C_18BIT_UBIN       /*GR_PENHWCOUNT*/,
     1335    11250    1             C_18BIT_UBIN       /*GR_CHSIZECOUNT*/,
     1336    11251    1             C_18BIT_UBIN       /*GR_MARKERHWCOUNT*/,
     1337    11252    1             C_4BIT_UBIN        /*GR_LINEWSUPPORT*/,
     1338    11253    1             C_18BIT_UBIN       /*GR_MARKERSWCOUNT*/,
     1339    11254    1             C_4BIT_UBIN        /*GR_INTNSUPPORT*/,
     1340    11255    1             C_4BIT_UBIN        /*GR_CHSIZESUPPORT*/,
     1341    11256    1             C_4BIT_UBIN        /*GR_HIGHLTSUPPORT*/,
     1342    11257    1             C_SPECIAL_FORMAT   /*GR_OUTLEVEL*/,
     1343    11258    1             C_4BIT_UBIN        /*GR_BATCHMODE*/,
     1344    11259    1             C_4BIT_UBIN        /*GR_HIDDENLEVEL*/,
     1345    11260    1             C_2BIT_UBIN        /*GR_DIMLEVEL*/,
     1346    11261    1             C_4BIT_UBIN        /*GR_VIEWTYPE*/,
     1347    11262    1             C_4BIT_UBIN        /*GR_PIXELTYPE*/,
     1348    11263    1             C_4BIT_UBIN        /*GR_EDGETYPE*/,
     1349    11264    1             C_4BIT_UBIN        /*GR_COLRTABTYPE*/,
     1350    11265    1             C_2BIT_UBIN        /*GR_BKGRNDTYPE*/,
     1351    11266    1             C_2BIT_UBIN        /*GR_DEVTYPE*/,
     1352    11267    1             C_4BIT_UBIN        /*GR_IMAGETRANS*/,
     1353    11268    1             C_2BIT_UBIN        /*GR_COLRMODEL*/,
     1354    11269    1             C_2BIT_UBIN        /*GR_BKGRNDCOLOR*/,
     1355    11270    1             C_4BIT_UBIN        /*GR_COLRACTION*/,
     1356    11271    1             C_4BIT_UBIN        /*GR_INTNACTION*/,
     1357    11272    1             C_18BIT_UBIN       /*GR_LINESTYLESWCOUNT*/,
     1358    11273    1             C_18BIT_UBIN       /*GR_PENSWCOUNT*/,
     1359    11274    1             C_ALL_DONE         /*Function*/,
     1360    11275    1             0*0                /* */);
     1361    11276    1   DCL AS_BLANK CHAR(1) CONSTANT SYMDEF INIT(' ') ;
PL6.E3A0      #001=AS_SUPER_D File=AS_SUPER_D.:E05TSI                            TUE 07/29/97 10:59 Page:39
     1362    11277    1   DCL AS_TRUE BIT(1) CONSTANT SYMDEF INIT('1'B) ;
     1363    11278    1   DCL AS_FALSE BIT(1) CONSTANT SYMDEF INIT('0'B) ;
     1364    11279    1   DCL AS_ZERO SBIN CONSTANT SYMDEF INIT(0) ;
     1365    11280    1   DCL 1 AS_NONE CONSTANT SYMDEF,
     1366    11281    1          2 COUNT UBIN BYTE UNAL INIT( 4 ),
     1367    11282    1          2 TEXT CHAR(20) UNAL INIT( 'NONE' );
     1368    11283    1   DCL AS_VALID_DEVICE_TYPE_CHARS CHAR(36) CONSTANT SYMDEF
     1369    11284    1             INIT( '0123456789ABCDEFGHIJKLMNOPQRSTUVWXYZ' ) ;
     1370    11285    1   DCL AS_PRIV_NAMES(0:23) PTR CONSTANT SYMDEF INIT(
     1371    11286    1         ADDR( SPCLMM_),
     1372    11287    1         ADDR( EXMM_),
     1373    11288    1         ADDR( MAXM_),
     1374    11289    1         ADDR( MSYS_),
     1375    11290    1         ADDR( SYSLOG_),
     1376    11291    1         ADDR( JIT_),
     1377    11292    1         ADDR( TND_),
     1378    11293    1         ADDR( ASAVE_ ),
     1379    11294    1         ADDR( GPP_ ),
     1380    11295    1         ADDR( SEC_ ),
     1381    11296    1         ADDR( DIA_ ),
     1382    11297    1         ADDR( FMREAD_ ),
     1383    11298    1         ADDR( PM_ ),
     1384    11299    1         ADDR( EXPM_ ),
     1385    11300    1         ADDR( IOQW_ ),
     1386    11301    1         ADDR( IOQ_ ),
     1387    11302    1         ADDR( CFEP_ ),
     1388    11303    1         ADDR( MFEP_ ),
     1389    11304    1         ADDR( DISPJOB_ ),
     1390    11305    1         ADDR( SYSCON_ ) ,
     1391    11306    1         ADDR( INTCON_ ) ,
     1392    11307    1         ADDR( CQ_ )   ,
     1393    11308    1         ADDR( SNAP_ ) ,
     1394    11309    1         ADDR( SCREECH_ ))  ;
     1395    11310    1   DCL AS_PPRIV_NAMES(0:20) PTR CONSTANT SYMDEF INIT(
     1396    11311    1         ADDR( CNTRLD_ ),
     1397    11312    1         ADDR( CNTRLC_ ),
     1398    11313    1         ADDR( EFT_ ),
PL6.E3A0      #001=AS_SUPER_D File=AS_SUPER_D.:E05TSI                            TUE 07/29/97 10:59 Page:40
     1399    11314    1         ADDR( EL_ ),
     1400    11315    1         ADDR( LABEL_ ),
     1401    11316    1         ADDR( PIGD_ ),
     1402    11317    1         ADDR( PIGC_ ),
     1403    11318    1         ADDR( SUPERAUTH_ ),
     1404    11319    1         ADDR( SUPERWSN_ ),
     1405    11320    1         ADDR( SUPERFORM_ ),
     1406    11321    1         ADDR( SUPER_ ),
     1407    11322    1         ADDR( SPIDERD_ ),
     1408    11323    1         ADDR( SPIDERC_ ),
     1409    11324    1         ADDR( NETCON_ ),
     1410    11325    1         ADDR( SUPERD_ ),
     1411    11326    1         ADDR( VOLINIT_ ),
     1412    11327    1         ADDR( REPLAY_ ) ,
     1413    11328    1         ADDR( RATES_ ) ,
     1414    11329    1         ADDR( NIL ) ,
     1415    11330    1         ADDR( SYSCON_ ),
     1416    11331    1         ADDR( PIGETTE_ ) ) ;
     1417    11332    1   DCL AS_PRIVILEGE(0:23) BIT(36) ALIGNED CONSTANT SYMDEF INIT(
     1418    11333    1         %PR_SPCLMM#,
     1419    11334    1         %PR_EXMM#,
     1420    11335    1         %PR_MAXMEM#,
     1421    11336    1         %PR_MSYS#,
     1422    11337    1         %PR_SYSLOG#,
     1423    11338    1         %PR_JIT#,
     1424    11339    1         %PR_TND#,
     1425    11340    1         %PR_ASAVE#,
     1426    11341    1         %PR_GPP#,
     1427    11342    1         %PR_FMSEC#,
     1428    11343    1         %PR_FMDIAG#,
     1429    11344    1         %PR_FMREAD#,
     1430    11345    1         %PR_PM#,
     1431    11346    1         %PR_EXPM#,
     1432    11347    1         %PR_IOQW#,
     1433    11348    1         %PR_IOQ#,
     1434    11349    1         %PR_CFEP#,
     1435    11350    1         %PR_MFEP#,
PL6.E3A0      #001=AS_SUPER_D File=AS_SUPER_D.:E05TSI                            TUE 07/29/97 10:59 Page:41
     1436    11351    1         %PR_DISPJOB#,
     1437    11352    1         %PR_SYSCON# ,
     1438    11353    1         %PR_INTCON# ,
     1439    11354    1         %PR_CQ#   ,
     1440    11355    1         %PR_SNAP# ,
     1441    11356    1         %PR_SCREECH# ) ;
     1442    11357    1   DCL AS_PPRIVILEGE(0:20) BIT(36) ALIGNED CONSTANT SYMDEF INIT(
     1443    11358    1         %PPR_CNTRLD#,
     1444    11359    1         %PPR_CNTRLC#,
     1445    11360    1         %PPR_EFT#,
     1446    11361    1         %PPR_EL#,
     1447    11362    1         %PPR_LABEL#,
     1448    11363    1         %PPR_PIGD#,
     1449    11364    1         %PPR_PIGC#,
     1450    11365    1         %PPR_SUPERAUTH#,
     1451    11366    1         %PPR_SUPERWSN#,
     1452    11367    1         %PPR_SUPERFORM#,
     1453    11368    1         %PPR_SUPER#,
     1454    11369    1         %PPR_SPIDERD#,
     1455    11370    1         %PPR_SPIDERC#,
     1456    11371    1         %PPR_NETCON#,
     1457    11372    1         %PPR_SUPERD#,
     1458    11373    1         %PPR_VOLINIT# ,
     1459    11374    1         %PPR_REPLAY# ,
     1460    11375    1         %PPR_RATES# ,
     1461    11376    1         '0'B,
     1462    11377    1         %PPR_SYSCON#,
     1463    11378    1         %PPR_PIGETTE# ) ;
     1464    11379    1   DCL 1 AS_MODE CONSTANT SYMDEF,
     1465    11380    1          2 BATCH,
     1466    11381    1             3 CNT UBIN BYTE UNAL INIT( 5 ),
     1467    11382    1             3 TXT CHAR(6) INIT( 'BATCH' ),
     1468    11383    1          2 GHOST,
     1469    11384    1             3 CNT UBIN BYTE UNAL INIT( 5 ),
     1470    11385    1             3 TXT CHAR(6) INIT( 'GHOST' ),
     1471    11386    1          2 ONLINE,
     1472    11387    1             3 CNT UBIN BYTE UNAL INIT( 6 ),
PL6.E3A0      #001=AS_SUPER_D File=AS_SUPER_D.:E05TSI                            TUE 07/29/97 10:59 Page:42
     1473    11388    1             3 TXT CHAR(6) INIT( 'ONLINE' ),
     1474    11389    1          2 TP,
     1475    11390    1             3 CNT UBIN BYTE UNAL INIT( 2 ),
     1476    11391    1             3 TXT CHAR(6) UNAL INIT( 'TP' ),
     1477    11392    1          2 FE,
     1478    11393    1             3 CNT UBIN BYTE UNAL INIT( 2 ),
     1479    11394    1             3 TXT CHAR(6) UNAL INIT( 'FE' );
     1480    11395    1   DCL 1 AS_MODE_ARRY(0:4) REDEF AS_MODE,
     1481    11396    1          2 CNT UBIN BYTE UNAL,
     1482    11397    1          2 TXT CHAR(6);
     1483    11398    1   DCL 1 AS_FE_MODE CONSTANT SYMDEF,
     1484    11399    1          2 USER_,
     1485    11400    1             3 CNT UBIN BYTE UNAL INIT( 4 ),
     1486    11401    1             3 TXT CHAR(6) INIT( 'USER' ),
     1487    11402    1          2 COMGROUP,
     1488    11403    1             3 CNT UBIN BYTE UNAL INIT( 2 ),
     1489    11404    1             3 TXT CHAR(6) INIT( 'CG' ),
     1490    11405    1          2 HANDLER,
     1491    11406    1             3 CNT UBIN BYTE UNAL INIT( 6 ),
     1492    11407    1             3 TXT CHAR(6) INIT( 'HANDLR' ),
     1493    11408    1          2 GHOST,
     1494    11409    1             3 CNT UBIN BYTE UNAL INIT( 5 ),
     1495    11410    1             3 TXT CHAR(6) UNAL INIT( 'GHOST' );
     1496    11411    1   DCL 1 AS_FE_MODE_ARRY(0:3) REDEF AS_FE_MODE,
     1497    11412    1          2 CNT UBIN BYTE UNAL,
     1498    11413    1          2 TXT CHAR(6);
     1499    11414    1   DCL KL_DREC$ PTR CONSTANT SYMDEF INIT( ADDR(KL_DREC) );
     1500    11415    1   DCL KL_DFLT$ PTR CONSTANT SYMDEF INIT( ADDR(KL_DFLT) );
     1501    11416    1   DCL AS_DEFAULT_DREC$ PTR CONSTANT SYMDEF INIT( ADDR(AS_DEFAULT_DREC) );
     1502    11417    1   DCL AS_PROJ_ADMIN_DREC$ PTR CONSTANT SYMDEF INIT( ADDR(AS_PROJ_ADMIN_DREC ) );
     1503    11418    1   DCL AS_PROJECT_DREC$ PTR CONSTANT SYMDEF INIT( ADDR(AS_PROJECT_DREC) );
     1504    11419    1   DCL AS_PROJECT_DFLT_DREC$ PTR CONSTANT SYMDEF INIT(ADDR(AS_PROJECT_DFLT_DREC));
     1505    11420                                                                   /**/
     1506    11421        %EJECT ;
PL6.E3A0      #001=AS_SUPER_D File=AS_SUPER_D.:E05TSI                            TUE 07/29/97 10:59 Page:43
     1507    11422        /********************************************************************/
     1508    11423        /*   Dcbs            dcbs            dcbs            dcbs            */
     1509    11424        /*********************************************************************/
     1510    11425    1   DCL M$LO DCB;
     1511    11426        %EJECT ;
PL6.E3A0      #001=AS_SUPER_D File=AS_SUPER_D.:E05TSI                            TUE 07/29/97 10:59 Page:44
     1512    11427        /********************************************************************/
     1513    11428        /*   Static data     static data     static data     static data     */
     1514    11429        /*********************************************************************/
     1515    11430                                                              /**/
     1516    11431    1   DCL 1 USERS_KEY STATIC SYMDEF ,
     1517    11432    1          2 COUNT UBIN BYTE UNAL ,
     1518    11433    1          2 TEXT(0:40) CHAR(1) UNAL ,
     1519    11434    1          2 TXTC REDEF TEXT CHAR(41) UNAL ,
     1520    11435    1          2 TW REDEF TEXT,
     1521    11436    1             3 NAME CHAR(4) UNAL,
     1522    11437    1             3 TWSN CHAR(4) UNAL,
     1523    11438    1             3 * CHAR(33) UNAL,
     1524    11439    1          2 UKEY REDEF TEXT,
     1525    11440    1             3 ACCT CHAR(8),
     1526    11441    1             3 UNAME CHAR(12),
     1527    11442    1             3 S CHAR(1),
     1528    11443    1             3 * CHAR(20) ,
     1529    11444    1          2 SKEY REDEF TEXT ,
     1530    11445    1             3 PROJ UBIN BYTE UNAL ,
     1531    11446    1             3 CREATOR CHAR(20) UNAL ,
     1532    11447    1             3 USER CHAR(20) UNAL ;
     1533    11448    1   DCL 1 PROJ_KEY STATIC SYMDEF ,
     1534    11449    1          2 COUNT UBIN BYTE UNAL ,
     1535    11450    1          2 TEXT CHAR(26) UNAL,
     1536    11451    1          2 TXT REDEF TEXT,
     1537    11452    1             3 PROJECT CHAR(20) UNAL,
     1538    11453    1             3 P REDEF PROJECT,
     1539    11454    1                4 ACCT CHAR(8) UNAL,
     1540    11455    1                4 NAME CHAR(12) UNAL,
     1541    11456    1             3 PACKSET CHAR(6) UNAL;
     1542    11457    1   DCL AS_CREATED_TEXT CHAR(20) STATIC SYMDEF INIT( ' ' ) ;
     1543    11458    1   DCL 1 FROM_KEY STATIC SYMDEF,
     1544    11459    1          2 CNT UBIN(9) UNAL ,
     1545    11460    1          2 TEXT CHAR(20) UNAL;
     1546    11461    1   DCL 1 START_KEY  STATIC SYMDEF,
     1547    11462    1          2 COUNT   UBIN BYTE CALIGNED,
     1548    11463    1          2 TEXT    CHAR(8) CALIGNED,
PL6.E3A0      #001=AS_SUPER_D File=AS_SUPER_D.:E05TSI                            TUE 07/29/97 10:59 Page:45
     1549    11464    1          2 STAR    CHAR(1) CALIGNED INIT ('*');
     1550    11465    1   DCL 1 QUIT_KEY  STATIC SYMDEF,
     1551    11466    1          2 COUNT   UBIN BYTE CALIGNED,
     1552    11467    1          2 TEXT    CHAR(8) CALIGNED,
     1553    11468    1          2 STAR    CHAR(1) CALIGNED INIT ('*');
     1554    11469    1   DCL 1 PREV_KEY  STATIC SYMDEF,
     1555    11470    1          2 COUNT   UBIN BYTE CALIGNED,
     1556    11471    1          2 TEXT    CHAR(8) CALIGNED,
     1557    11472    1          2 STAR    CHAR(1) CALIGNED INIT ('*');
     1558    11473    1   DCL LO_WIDTH UBIN STATIC SYMDEF;
     1559    11474        %F_FDS(NAME = FDS,STCLASS = STATIC SYMDEF,
     1560    11475                FMT = FMT_BUF,
     1561    11476                VECTR = FMT_VEC,
     1562    11477                BUF = OUT_BUF,
     1563    11478                DCB = M$LO,
     1564    11479                TRUNC = NO,
     1565    11480                WRAPTAB = 1);
     1566    11593    1   DCL FMT_BUF CHAR(255) STATIC SYMDEF;
     1567    11594    1   DCL 1 FMT_VEC(0:75) STATIC SYMDEF,
     1568    11595    1          2 BOUND UBIN(20) UNAL,
     1569    11596    1          2 * BIT(16) UNAL,
     1570    11597    1          2 PTR$ PTR;
     1571    11598    1   DCL BLANK_PASS CHAR(8) STATIC SYMDEF;
     1572    11599    1   DCL IN_BUF CHAR(255) STATIC SYMDEF ;
     1573    11600    1   DCL OUT_BUF CHAR(140) STATIC SYMDEF ;
     1574    11601    1   DCL IN_BUF$ PTR STATIC SYMDEF INIT(ADDR(IN_BUF)) ;
     1575    11602    1   DCL OUT_BUF$ PTR STATIC SYMDEF INIT(ADDR(OUT_BUF)) ;
     1576    11603    1   DCL WK(0:1023) UBIN(36) STATIC SYMDEF ;
     1577    11604    1   DCL P$PCB PTR STATIC SYMDEF INIT(ADDR(P_PCB)) ;
     1578    11605    1   DCL NODE$ PTR STATIC SYMDEF ;
     1579    11606    1   DCL CODE UBIN STATIC SYMDEF ;
     1580    11607    1   DCL FAST_FLAG BIT(1) STATIC SYMDEF INIT( '0'B ) ;
     1581    11608    1   DCL INPUT_FLAG BIT(1) STATIC SYMDEF INIT( '0'B );
     1582    11609    1   DCL LIST_ACCT_FLG BIT(1) STATIC SYMDEF INIT('0'B) ;
     1583    11610    1   DCL COMMENT BIT(1) STATIC SYMDEF INIT('0'B) ;
     1584    11611    1   DCL SUPERAUTH BIT(1) STATIC SYMDEF INIT('0'B) ;
     1585    11612    1   DCL SUPERWSN BIT(1) STATIC SYMDEF INIT('0'B) ;
PL6.E3A0      #001=AS_SUPER_D File=AS_SUPER_D.:E05TSI                            TUE 07/29/97 10:59 Page:46
     1586    11613    1   DCL SUPERFORM BIT(1) STATIC SYMDEF INIT('0'B) ;
     1587    11614    1   DCL SUPERD    BIT(1) STATIC SYMDEF INIT('0'B) ;
     1588    11615    1   DCL MAKEPROJ BIT(1) STATIC SYMDEF INIT('0'B);
     1589    11616    1   DCL PADMIN BIT(1) STATIC SYMDEF INIT('0'B);
     1590    11617    1   DCL 1 ERR_CODE STATIC SYMDEF ,
     1591    11618    1          2 FCG_MID UBIN(18) UNAL INIT(0) ,
     1592    11619    1          2 CODE UBIN(15) INIT(0) UNAL ,
     1593    11620    1          2 SEV UBIN(3) INIT(0) UNAL ;
     1594    11621    1   DCL 1 MERR_CODE REDEF ERR_CODE ,
     1595    11622    1          2 FCG_MID UBIN(18) UNAL ,
     1596    11623    1          2 MON BIT(1) UNAL ,
     1597    11624    1          2 CODE UBIN(14) UNAL ,
     1598    11625    1          2 SEV UBIN(3) UNAL ;
     1599    11626    1   DCL 1 AS_FIELD1 STATIC SYMDEF ALIGNED,
     1600    11627    1          2 COUNT UBIN BYTE UNAL,
     1601    11628    1          2 TEXT CHAR(40);
     1602    11629    1   DCL 1 AS_FIELD2 STATIC SYMDEF ALIGNED,
     1603    11630    1          2 COUNT UBIN BYTE UNAL,
     1604    11631    1          2 TEXT CHAR(40);
     1605    11632    1   DCL 1 AS_FIELD3 STATIC SYMDEF ALIGNED,
     1606    11633    1          2 COUNT UBIN BYTE UNAL,
     1607    11634    1          2 TEXT CHAR(40);
     1608    11635    1   DCL 1 B_VERSION SYMREF ALIGNED,
     1609    11636    1          2 COUNT UBIN BYTE UNAL,
     1610    11637    1          2 TEXT CHAR(6);
     1611    11638    1   DCL PROJ_PACKSET_LIST SYMREF UBIN(36) ;
     1612    11639    1   DCL REMEM_VAR REMEMBER STATIC SYMDEF ;     /*  Remember variable  */
     1613    11640    1   DCL REMEM_VAR_BIT REDEF REMEM_VAR BIT (72); /* Used to 0 out val */
     1614    11641    1   DCL REM_FCMD REMEMBER STATIC SYMDEF ;      /*   Remember for fcmd  */
     1615    11642    1   DCL REM_FCMD_BIT REDEF REM_FCMD BIT (72);  /* Used to 0 out val */
     1616    11643    1   DCL ASA_BRKS_LOC REMEMBER STATIC SYMDEF;   /* Remember for brk  */
     1617    11644    1   DCL ASA_BRKS_LOC_BIT REDEF ASA_BRKS_LOC BIT (72); /* To 0 val */
     1618    11645    1   DCL FCMD_POS UBIN WORD STATIC SYMDEF ;
     1619    11646    1   DCL PROMPT_CHAR CHAR(31) STATIC SYMDEF INIT( ' ' ) ;
     1620    11647    1   DCL PROMPT_CNT UBIN WORD STATIC SYMDEF INIT( 0 ) ;
     1621    11648    1   DCL DSEG_FLG BIT(1) STATIC SYMDEF INIT('0'B) ;
     1622    11649    1   DCL DSEG1$ PTR STATIC SYMDEF INIT( ADDR(NIL)) ;
PL6.E3A0      #001=AS_SUPER_D File=AS_SUPER_D.:E05TSI                            TUE 07/29/97 10:59 Page:47
     1623    11650    1   DCL DSEG1SIZE UBIN WORD STATIC SYMDEF INIT(0) ;
     1624    11651    1   DCL DSEG2$ PTR STATIC SYMDEF INIT( ADDR(NIL)) ;
     1625    11652    1   DCL DSEG2SIZE UBIN WORD STATIC SYMDEF INIT(0) ;
     1626    11653    1   DCL DSEG3$ PTR STATIC SYMDEF INIT( ADDR(NIL) );
     1627    11654    1   DCL DSEG3SIZE UBIN WORD STATIC SYMDEF INIT(0);
     1628    11655    1   DCL ENQDEQ_FLG BIT(1) STATIC SYMDEF INIT('0'B) ;
     1629    11656    1   DCL ERR_CNT UBIN WORD STATIC SYMDEF INIT( 0 ) ;
     1630    11657    1   DCL WARN_CNT UBIN WORD STATIC SYMDEF INIT( 0 ) ;
     1631    11658    1   DCL 1 FILE_ACCT STATIC SYMDEF ,
     1632    11659    1          2 TXT CHAR(8) INIT(':SYS') ;
     1633    11660    1   DCL 1 AS_PROJECT_ADMIN STATIC SYMDEF,
     1634    11661    1          2 COUNT UBIN BYTE UNAL,
     1635    11662    1          2 TEXT CHAR(20) UNAL ;
     1636    11663    1   DCL 1 AS_LOGON_KEY STATIC SYMDEF,
     1637    11664    1          2 CNT UBIN BYTE UNAL,
     1638    11665    1          2 TEXT CHAR(20) UNAL;
     1639    11666    1   DCL AS_ACCT_MATCH CHAR(8) STATIC SYMDEF ;
     1640    11667    1   DCL AS_NAME_MATCH CHAR(12) STATIC SYMDEF ;
     1641    11668    1   DCL AS_WILD_USER BIT(1) STATIC SYMDEF INIT( '0'B );
     1642    11669    1   DCL AS_RESOURCE_LIST$ PTR STATIC SYMDEF INIT( ADDR(NIL) );
     1643    11670    1   DCL AS_FERESOURCE_LIST$ PTR STATIC SYMDEF INIT( ADDR(NIL) );
     1644    11671    1   DCL AS_PSEUDO_LIST$ PTR STATIC SYMDEF INIT( ADDR(NIL) );
     1645    11672    1   DCL AS_FEPSEUDO_LIST$ PTR STATIC SYMDEF INIT( ADDR(NIL) );
     1646    11673    1   DCL AS_PROJ_HEADER$ PTR STATIC SYMDEF INIT( ADDR(NIL) );
     1647    11674    1   DCL AS_SUPER_TO_PIG$ PTR STATIC SYMDEF INIT( ADDR(NIL) );
     1648    11675    1   DCL AS_DCBNUM# UBIN STATIC SYMDEF INIT( DCBNUM(NIL) );
     1649    11676    1   DCL AS_FACCOUNT_FLG BIT(1) STATIC SYMDEF INIT('0'B);
     1650    11677    1   DCL 1 DFLT_PROJ_USERS_KEY STATIC SYMDEF ALIGNED,
     1651    11678    1          2 CNT UBIN BYTE UNAL INIT(21),
     1652    11679    1          2 ACCOUNT CHAR(8) INIT(' '),
     1653    11680    1          2 NAME CHAR(12) INIT(' '),
     1654    11681    1          2 * CHAR(1) INIT('S');
     1655    11682    1   DCL AS_CR_MOD_PROJ    SBIN    STATIC  SYMDEF  INIT( 0 );
     1656    11683    1   DCL FROM_FLG BIT(1) STATIC SYMDEF ;
     1657    11684    1   DCL CR_MOD_FLG BIT(1) STATIC SYMDEF ;
     1658    11685    1   DCL AS_WILD_MCH SBIN STATIC SYMDEF ;
     1659    11686    1   DCL AS_WILD_MVAL SBIN STATIC SYMDEF ;
PL6.E3A0      #001=AS_SUPER_D File=AS_SUPER_D.:E05TSI                            TUE 07/29/97 10:59 Page:48
     1660    11687        %LIST ;
     1661    11688        %EJECT ;
PL6.E3A0      #001=AS_SUPER_D File=AS_SUPER_D.:E05TSI                            TUE 07/29/97 10:59 Page:49
     1662    11689              %P_PCB(T=IN_BUF,W=WK,WSZ=1024,N#=140,STCLASS="STATIC SYMDEF") ;
             11690        /*F*  NAME:     P_PCB
             11691              FUNCTION: Parse Control Block.  This structure is used to pass data
             11692                  to the X$PARSE utility, and to receive X$PARSE's responses.
             11693        */
             11694         %LSET LISTDIR='0'B;
             11707    1   DCL 1 P_PCB STATIC SYMDEF ALIGNED,
             11708    1         2 TEXT$ PTR INIT(ADDR(IN_BUF))/**/,
             11712    1         2 ROOT$ PTR INIT(ADDR(NIL))/**/,
             11716    1         2 WORK$ PTR INIT(ADDR(WK))/**/,
             11720    1         2 OUT$ PTR INIT(ADDR(NIL))/**/,
             11725    1         2 U$$ EPTR INIT(ENTADDR(NIL))/**/,
             11737    1         2 WKSZ UBIN(18) UNAL INIT(1024)/**/,
             11742    1         2 CMPRS BIT(1) UNAL INIT('1'B)/**/,
             11748    1         2 CONTINUE BIT(1) UNAL INIT('1'B)/**/,
             11752    1         2 NOLEADBLANKS BIT(1) UNAL INIT('0'B)/**/,
             11757    1         2 NXT BIT(1) UNAL INIT('0'B)/**/,
             11774    1         2 DYNMEM BIT(1) UNAL INIT('0'B)/**/,
             11779    1         2 KEYWORDS BIT (1) INIT ('0'B) /**/,
             11794    1         2 BLANKONLY BIT (1),
             11802    1         2 NXT_SZONLY BIT(1) UNAL INIT('0'B)/**/,
             11810    1         2 * BIT (10) INIT ('0'B) /**/,
             11811    1         2 ERROR ALIGNED,
             11816    1           3 FCG BIT(12) UNAL INIT('0'B)/**/,
             11817    1           3 MID BIT(6) UNAL INIT('0'B)/**/,
             11818    1           3 MON BIT(1) UNAL INIT('0'B)/**/,
             11819    1           3 CODE UBIN(14) UNAL INIT(0)/**/,
             11820    1           3 SEV UBIN(3) UNAL INIT(0)/**/,
             11821    1         2 COMMENT ALIGNED,
             11825    1           3 LEAD CHAR(2) UNAL INIT(' "')/**/,
             11833    1           3 TRAIL CHAR(2) UNAL INIT(' "')/**/,
             11840    1         2 WK_USED UBIN(18) UNAL INIT(0)/**/,
             11844    1         2 VERSION_CODE UBIN(4) UNAL INIT(1)/**/,
             11849    1         2 OUTDCB# UBIN(14) UNAL INIT(DCBNUM(NIL))/**/,
             11854    1         2 NCHARS UBIN WORD INIT(140)/**/,
             11858    1         2 HI_CHAR UBIN WORD INIT(0)/**/,
             11865    1         2 HINODE$ PTR INIT(ADDR(NIL))/**/,
PL6.E3A0      #001=AS_SUPER_D File=AS_SUPER_D.:E05TSI                            TUE 07/29/97 10:59 Page:50
             11874    1         2 USER$ PTR INIT(ADDR(NIL))/**/,
             11880    1         2 OUTENT$ EPTR INIT(ENTADDR(NIL))/**/;
     1663    11888        %EJECT ;
PL6.E3A0      #001=AS_SUPER_D File=AS_SUPER_D.:E05TSI                            TUE 07/29/97 10:59 Page:51
     1664    11889        %AS_USERS(STR_NAME=AS_USERS, STCLASS=STATIC SYMDEF );
             11890        %LSET LISTSUB = '1'B;
             11891        %LSET LISTEXP = '1'B;
             11892        %LSET STR='STATIC SYMDEF        ';
             11893        %IF
             11895            '1'B;
             11896        %LSET INIT=INIT;
             11897        %ELSE;
             11899        %ENDIF;
             11900        /*
             11901        */
             11902    1   DCL 1 AS_USERS STATIC SYMDEF,
             11903    1          2 ACCT CHAR(8) INIT(' ') /**/,
             11904    1          2 NAME CHAR(12) INIT(' ') /**/,
             11905    1          2 NAT_LANG CHAR(1) INIT(' ') /**/,            /* Native language */
             11906    1          2 STEPACCNT BIT(1) UNAL INIT('0'B) /**/,
             11907    1          2 BATOK BIT(1) UNAL INIT( '1'B ) /**/,
             11908    1          2 * BIT(7) UNAL INIT('0'B) /**/,
             11909    1          2 BATNUM SBIN HALF UNAL INIT(-1) /**/,
             11910    1          2 BUDGET,
             11911    1             3 MAXC SBIN INIT(-1) /**/, /* 'MCHARGES' for user */
             11912    1             3 ACCUM SBIN INIT(0) /**/, /*Charges accumulated by user*/
             11913    1             3 PMAXC SBIN INIT(-1) /**/, /* Proj. admin. record only;
             11914                                                             'MCHARGES for project */
             11915    1             3 PROJ_ALLOWED REDEF PMAXC SBIN, /* Default project record only;
             11916                                        maximum number of users allowed in this project
             11917                                        and all sub-projects. */
             11918    1             3 PACCUM SBIN INIT(0) /**/, /* Proj. admin. record only;
             11919                                                       charges accumulated by project */
             11920    1             3 PROJ_CREATED REDEF PACCUM SBIN, /* Default project record only;
             11921                                                  number of users created in project */
             11922    1             3 MACCT,
             11923    1                4 COUNT UBIN(9) UNAL INIT(4) /**/,
             11924    1                4 ACCT CHAR(8) UNAL INIT('NONE') /**/,
             11925    1                4 NAME CHAR(12) UNAL INIT(' ') /**/,
             11926    1             3 MACCT_ REDEF MACCT,
             11927    1                4 * UBIN BYTE UNAL,
PL6.E3A0      #001=AS_SUPER_D File=AS_SUPER_D.:E05TSI                            TUE 07/29/97 10:59 Page:52
             11928    1                4 TEXT CHAR(20) UNAL,
             11929    1             3 BKACC BIT(1) UNAL INIT('1'B) /**/,
             11930    1             3 BUDLIM BIT(1) UNAL INIT( '0'B ) /**/,
             11931    1             3 PCHARGES BIT(1) UNAL INIT( '1'B ) /**/,
             11932    1             3 ICHARGES BIT(1) UNAL INIT( '1'B ) /**/,
             11933    1             3 BLINDACCTNG BIT(1) UNAL INIT('0'B)/**/,
             11934    1             3 * BIT(4) INIT('0'B)/**/,
             11935    1             3 MAX_PROJECTS SBIN(18) UNAL INIT(0) /**/,
             11936                                          /* Proj. admin. record only;
             11937                                             maximum number of sub-projects allowed. */
             11938    1             3 SUB_PROJS REDEF MAX_PROJECTS SBIN(18) UNAL,
             11939                                          /* Default project record only;
             11940                                             number of sub-projects created. */
             11941    1          2 BILL(0:3) CHAR(6) UNAL INIT('1','1','1','1') /**/,
             11942    1          2 KEY(0:71) BIT(1) UNAL INIT('0'B*0) /**/,
             11943    1          2 *      CHAR(23) INIT(' ') /**/,
             11944    1          2 OUTPUTPRIO UBIN(9) UNAL INIT(7) /**/,
             11945                                                              /* Services */
             11946                                                              /*   Batch   = 0 ,
             11947                                                                   ghost   = 1 ,
             11948                                                                   on-line = 2,
             11949                                                                   tp      = 3
             11950                                                                               */
             11951    1          2 MLO(0:3) UBIN WORD UNAL INIT( 99999, 99999, 99999, 99999 ) /**/,
             11952    1          2 DLO(0:3) UBIN WORD UNAL INIT( 1000, 99999, 99999, 99999 ) /**/,
             11953    1          2 MDO(0:3) UBIN WORD UNAL INIT( 99999, 99999, 99999, 99999 ) /**/,
             11954    1          2 DDO(0:3) UBIN WORD UNAL INIT( 50, 99999, 99999, 99999 ) /**/,
             11955    1          2 MPO(0:3) UBIN WORD UNAL INIT( 99999, 99999, 99999, 99999 ) /**/,
             11956    1          2 DPO(0:3) UBIN WORD UNAL INIT( 100, 99999, 99999, 99999 ) /**/,
             11957    1          2 MPDIS(0:3) UBIN WORD UNAL INIT( 99999, 99999, 99999, 99999 ) /**/,
             11958    1          2 DPDIS(0:3) UBIN WORD UNAL INIT( 99999, 99999, 99999, 99999 ) /**/,
             11959    1          2 MTDIS(0:3) UBIN WORD UNAL INIT( 99999, 99999, 99999, 99999 ) /**/,
             11960    1          2 DTDIS(0:3) UBIN WORD UNAL INIT( 2000, 2000, 9999, 2000 ) /**/,
             11961    1          2 MFPOOLS(0:3) UBIN BYTE UNAL INIT( 31, 31, 31, 31 ) /**/,
             11962    1          2 DFPOOLS(0:3) UBIN BYTE UNAL INIT( 10, 10, 10, 10 ) /**/,
             11963    1          2 MMPRIO(0:3) UBIN BYTE UNAL INIT( 7, 7, 7, 7 ) /**/,
             11964    1          2 DMPRIO(0:3) UBIN BYTE UNAL INIT( 7, 7, 7, 7 ) /**/,
PL6.E3A0      #001=AS_SUPER_D File=AS_SUPER_D.:E05TSI                            TUE 07/29/97 10:59 Page:53
             11965    1          2 *     CHAR(36)                          /* Peripheral */
             11966    1             INIT(' ')/**/,
             11967    1          2 HPSN CHAR(6) INIT('SYS') /**/,
             11968    1          2 * UBIN(18) UNAL INIT(0) /**/,
             11969                                                                 /*   Command processor   */
             11970    1          2 CPROC(0:3) ALIGNED,
             11971    1             3 NAME,
             11972    1                4 CNT UBIN BYTE UNAL INIT(4*0) /**/,
             11973    1                4 TEXT CHAR(31) UNAL INIT('IBEX'*0) /**/,
             11974                                                         /*   Last command processor   */
             11975    1          2 LASTCPROC(0:3) ALIGNED,
             11976    1             3 NAME,
             11977    1                4 CNT UBIN BYTE UNAL INIT(0*0) /**/,
             11978    1                4 TEXT CHAR(31) UNAL INIT(' '*0) /**/,
             11979                                                              /*   Privileges   */
             11980    1          2 PRIV (0:3) BIT(36) ALIGNED INIT('0'B*0) /**/,
             11981    1          2 PPRIV (0:3) BIT(36) ALIGNED INIT('0'B*0) /**/,
             11982                                                              /*   Batch   = 0 ,
             11983                                                                   ghost   = 1 ,
             11984                                                                   on-line = 2,
             11985                                                                   tp      = 3
             11986                                                                             */
             11987    1          2 QUAN(0:3) SBIN HALF UNAL INIT(0*0) /**/,
             11988    1          2 *(0:3) UBIN HALF UNAL INIT(0*0) /**/,
             11989    1          2 PRIOB(0:3) SBIN BYTE UNAL INIT(0*0) /**/,
             11990    1          2 MEXP SBIN INIT(-1) /**/,                  /* Expiration */
             11991    1          2 DEXP SBIN INIT(-1) /**/,                  /* Expiration */
             11992    1          2 FLAGS ALIGNED,
             11993    1             3 *  BIT(5) UNAL INIT('0'B) /**/,
             11994    1             3 STARSACC BIT(1) UNAL INIT('0'B) /**/,   /* *S accounting */
             11995    1             3 * BIT(30) UNAL INIT('0'B) /**/,
             11996    1          2 INSTUSE CHAR(16) INIT(' ') /**/,            /* Installation use */
             11997                                                              /*  Time  */
             11998    1          2 MTIME(0:3) UBIN WORD UNAL INIT( 59999400, 59999400, 59999400,59999400 )
             11998                   /**/,
             11999    1          2 DTIME(0:3) UBIN WORD UNAL INIT( 60000,59999400,59999400,59999400 ) /**/,
             12000                                                              /*  Memory  */
PL6.E3A0      #001=AS_SUPER_D File=AS_SUPER_D.:E05TSI                            TUE 07/29/97 10:59 Page:54
             12001    1          2 MMEM(0:3) UBIN HALF UNAL INIT( 511, 511, 511, 511 ) /**/,
             12002    1          2 DMEM(0:3) UBIN HALF UNAL INIT( 64, 256, 128, 256 ) /**/,
             12003    1          2 PSDOL(0:7),
             12004    1             3 PSDO_NAME CHAR(8) UNAL INIT( ' '*0 ) /**/,
             12005    1             3 BMAX UBIN HALF UNAL INIT( 0*0 ) /**/,
             12006    1             3 GMAX UBIN HALF UNAL INIT( 0*0 ) /**/,
             12007    1             3 OMAX UBIN HALF UNAL INIT( 0*0 ) /**/,
             12008    1             3 TMAX UBIN HALF UNAL INIT( 0*0 ) /**/,
             12009    1          2 TOT_TYPES UBIN HALF UNAL INIT( 2 )/**/ ,    /* Total res. Types */
             12010    1          2 RESL( 0:7 ) UNAL ,     /* Resources */
             12011    1             3 RNAME CHAR(2) UNAL INIT( 'MT', 'DP', ' '*0)/**/,
             12012    1             3 BMAX UBIN HALF UNAL INIT( 4, 4, 0*0 )/**/,
             12013    1             3 GMAX UBIN HALF UNAL INIT( 4, 4, 0*0 )/**/ ,
             12014    1             3 OMAX UBIN HALF UNAL INIT( 4, 4, 0*0 ) /**/,
             12015    1             3 TMAX UBIN HALF UNAL INIT( 4, 4, 0*0 ) /**/,
             12016    1          2 SETUP_PERM(0:3) BIT(1) UNAL INIT('0'B*0)/**/,
             12017    1          2 BANNER_PERM (0:9) BIT (1) UNAL INIT ('0'B*0)/**/,
             12018    1          2 PERM_BLOCK REDEF BANNER_PERM BIT (10),
             12019    1          2 SETUP_FORCE(0:3) BIT(1) UNAL INIT('0'B*0)/**/,
             12020                    /* This bit marks if the setup can be bypassed with the
             12021                       ns option during logon.
             12022                    */
             12023                                           /* Setup contains the index into the
             12024                                              pool of text, it is referenced
             12025                                              with the following text structure.
             12026                                              An index of
             12027                                              -1 implies that the setup command
             12028                                              for that mode does not exist.  */
             12029    1          2 SETUP(0:3) SBIN HALF UNAL INIT(-1*0)/**/,
             12030    1          2 BANNER (0:9) SBIN HALF UNAL INIT (-1*0)/**/,
             12031    1          2 SETUP_CHRA ALIGNED,
             12032    1             3 SIZE UBIN INIT (0) /**/,
             12033    1             3 TXT CHAR (1024) INIT (' ') /**/,
             12034    1             3 TXT_CHR (0:1023) REDEF TXT CHAR (1),
             12035    1             3 TXT_UBIN (0:1023) REDEF TXT UBIN (9) UNAL,
             12036                           /* At the third level- SIZE_ is the total size of
             12037                              the used area in the pool of setup and banner
PL6.E3A0      #001=AS_SUPER_D File=AS_SUPER_D.:E05TSI                            TUE 07/29/97 10:59 Page:55
             12038                              text items. SETUPMAX-SIZE_=free space remaining.
             12039                              Txt is the area containing setup and banner
             12040                              TXT_CHR and TXT_UBIN are ways of accessing the
             12041                              text for those commands.                     */
             12042    1          2 LAST_LOGON_TIME BIT(36) ALIGNED INIT('0'B) /**/,
             12043                           /* Uts of last successful logon, from slug. */
             12044    1          2 BAD_LOGON_CNT UBIN HALF UNAL INIT(0) /**/,
             12045                /* Number of failed logon attempts logged since the last
             12046                   system exit.                                           */
             12047    1          2 RFUH1 UBIN HALF UNAL INIT(0) /**/,
             12048                 /* Reserved for future use half word.  */
             12049    1          2 LOGINS   (0:3) ,
             12050    1             3 LAST_LOGON_TIME UBIN INIT (0*0) /**/,
             12051                           /* Uts of last successful logon, from slug. */
             12052    1             3 BAD_LOGON_CNT  UBIN  INIT (0*0) /**/,
             12053                 /* No. of failed logon attempts logged since the last
             12054                    system exit.  */
             12055    1          2  PASSWORD_CHANGE_TIME UBIN INIT (0) /**/,
             12056                 /* Uts of the last password change. Currently not used. */
             12057    1          2  MAXENQ(0:3) UBIN (18) UNAL INIT (0*0) /**/,
             12058                 /* Maximum number of enq/deq packets for this user. */
             12059    1          2  RFUW1  UBIN  INIT (0) /**/,
             12060                 /* Reserved for future use word. */
             12061    1          2  RFUW2  UBIN  INIT (0) /**/,
             12062    1          2  RFUW3  UBIN  INIT (0) /**/,
             12063    1          2  RFUW4  UBIN  INIT (0) /**/,
             12064    1          2  RFUW5  UBIN  INIT (0) /**/
             12065    1   ;
     1665    12067        %AS_USERS(STR_NAME=AS_DFLT, STCLASS=STATIC SYMDEF );
             12068        %LSET LISTSUB = '1'B;
             12069        %LSET LISTEXP = '1'B;
             12070        %LSET STR='STATIC SYMDEF        ';
             12071        %IF
             12073            '1'B;
             12074        %LSET INIT=INIT;
             12075        %ELSE;
             12077        %ENDIF;
PL6.E3A0      #001=AS_SUPER_D File=AS_SUPER_D.:E05TSI                            TUE 07/29/97 10:59 Page:56
             12078        /*
             12079        */
             12080    1   DCL 1 AS_DFLT STATIC SYMDEF,
             12081    1          2 ACCT CHAR(8) INIT(' ') /**/,
             12082    1          2 NAME CHAR(12) INIT(' ') /**/,
             12083    1          2 NAT_LANG CHAR(1) INIT(' ') /**/,            /* Native language */
             12084    1          2 STEPACCNT BIT(1) UNAL INIT('0'B) /**/,
             12085    1          2 BATOK BIT(1) UNAL INIT( '1'B ) /**/,
             12086    1          2 * BIT(7) UNAL INIT('0'B) /**/,
             12087    1          2 BATNUM SBIN HALF UNAL INIT(-1) /**/,
             12088    1          2 BUDGET,
             12089    1             3 MAXC SBIN INIT(-1) /**/, /* 'MCHARGES' for user */
             12090    1             3 ACCUM SBIN INIT(0) /**/, /*Charges accumulated by user*/
             12091    1             3 PMAXC SBIN INIT(-1) /**/, /* Proj. admin. record only;
             12092                                                             'MCHARGES for project */
             12093    1             3 PROJ_ALLOWED REDEF PMAXC SBIN, /* Default project record only;
             12094                                        maximum number of users allowed in this project
             12095                                        and all sub-projects. */
             12096    1             3 PACCUM SBIN INIT(0) /**/, /* Proj. admin. record only;
             12097                                                       charges accumulated by project */
             12098    1             3 PROJ_CREATED REDEF PACCUM SBIN, /* Default project record only;
             12099                                                  number of users created in project */
             12100    1             3 MACCT,
             12101    1                4 COUNT UBIN(9) UNAL INIT(4) /**/,
             12102    1                4 ACCT CHAR(8) UNAL INIT('NONE') /**/,
             12103    1                4 NAME CHAR(12) UNAL INIT(' ') /**/,
             12104    1             3 MACCT_ REDEF MACCT,
             12105    1                4 * UBIN BYTE UNAL,
             12106    1                4 TEXT CHAR(20) UNAL,
             12107    1             3 BKACC BIT(1) UNAL INIT('1'B) /**/,
             12108    1             3 BUDLIM BIT(1) UNAL INIT( '0'B ) /**/,
             12109    1             3 PCHARGES BIT(1) UNAL INIT( '1'B ) /**/,
             12110    1             3 ICHARGES BIT(1) UNAL INIT( '1'B ) /**/,
             12111    1             3 BLINDACCTNG BIT(1) UNAL INIT('0'B)/**/,
             12112    1             3 * BIT(4) INIT('0'B)/**/,
             12113    1             3 MAX_PROJECTS SBIN(18) UNAL INIT(0) /**/,
             12114                                          /* Proj. admin. record only;
PL6.E3A0      #001=AS_SUPER_D File=AS_SUPER_D.:E05TSI                            TUE 07/29/97 10:59 Page:57
             12115                                             maximum number of sub-projects allowed. */
             12116    1             3 SUB_PROJS REDEF MAX_PROJECTS SBIN(18) UNAL,
             12117                                          /* Default project record only;
             12118                                             number of sub-projects created. */
             12119    1          2 BILL(0:3) CHAR(6) UNAL INIT('1','1','1','1') /**/,
             12120    1          2 KEY(0:71) BIT(1) UNAL INIT('0'B*0) /**/,
             12121    1          2 *      CHAR(23) INIT(' ') /**/,
             12122    1          2 OUTPUTPRIO UBIN(9) UNAL INIT(7) /**/,
             12123                                                              /* Services */
             12124                                                              /*   Batch   = 0 ,
             12125                                                                   ghost   = 1 ,
             12126                                                                   on-line = 2,
             12127                                                                   tp      = 3
             12128                                                                               */
             12129    1          2 MLO(0:3) UBIN WORD UNAL INIT( 99999, 99999, 99999, 99999 ) /**/,
             12130    1          2 DLO(0:3) UBIN WORD UNAL INIT( 1000, 99999, 99999, 99999 ) /**/,
             12131    1          2 MDO(0:3) UBIN WORD UNAL INIT( 99999, 99999, 99999, 99999 ) /**/,
             12132    1          2 DDO(0:3) UBIN WORD UNAL INIT( 50, 99999, 99999, 99999 ) /**/,
             12133    1          2 MPO(0:3) UBIN WORD UNAL INIT( 99999, 99999, 99999, 99999 ) /**/,
             12134    1          2 DPO(0:3) UBIN WORD UNAL INIT( 100, 99999, 99999, 99999 ) /**/,
             12135    1          2 MPDIS(0:3) UBIN WORD UNAL INIT( 99999, 99999, 99999, 99999 ) /**/,
             12136    1          2 DPDIS(0:3) UBIN WORD UNAL INIT( 99999, 99999, 99999, 99999 ) /**/,
             12137    1          2 MTDIS(0:3) UBIN WORD UNAL INIT( 99999, 99999, 99999, 99999 ) /**/,
             12138    1          2 DTDIS(0:3) UBIN WORD UNAL INIT( 2000, 2000, 9999, 2000 ) /**/,
             12139    1          2 MFPOOLS(0:3) UBIN BYTE UNAL INIT( 31, 31, 31, 31 ) /**/,
             12140    1          2 DFPOOLS(0:3) UBIN BYTE UNAL INIT( 10, 10, 10, 10 ) /**/,
             12141    1          2 MMPRIO(0:3) UBIN BYTE UNAL INIT( 7, 7, 7, 7 ) /**/,
             12142    1          2 DMPRIO(0:3) UBIN BYTE UNAL INIT( 7, 7, 7, 7 ) /**/,
             12143    1          2 *     CHAR(36)                          /* Peripheral */
             12144    1             INIT(' ')/**/,
             12145    1          2 HPSN CHAR(6) INIT('SYS') /**/,
             12146    1          2 * UBIN(18) UNAL INIT(0) /**/,
             12147                                                                 /*   Command processor   */
             12148    1          2 CPROC(0:3) ALIGNED,
             12149    1             3 NAME,
             12150    1                4 CNT UBIN BYTE UNAL INIT(4*0) /**/,
             12151    1                4 TEXT CHAR(31) UNAL INIT('IBEX'*0) /**/,
PL6.E3A0      #001=AS_SUPER_D File=AS_SUPER_D.:E05TSI                            TUE 07/29/97 10:59 Page:58
             12152                                                         /*   Last command processor   */
             12153    1          2 LASTCPROC(0:3) ALIGNED,
             12154    1             3 NAME,
             12155    1                4 CNT UBIN BYTE UNAL INIT(0*0) /**/,
             12156    1                4 TEXT CHAR(31) UNAL INIT(' '*0) /**/,
             12157                                                              /*   Privileges   */
             12158    1          2 PRIV (0:3) BIT(36) ALIGNED INIT('0'B*0) /**/,
             12159    1          2 PPRIV (0:3) BIT(36) ALIGNED INIT('0'B*0) /**/,
             12160                                                              /*   Batch   = 0 ,
             12161                                                                   ghost   = 1 ,
             12162                                                                   on-line = 2,
             12163                                                                   tp      = 3
             12164                                                                             */
             12165    1          2 QUAN(0:3) SBIN HALF UNAL INIT(0*0) /**/,
             12166    1          2 *(0:3) UBIN HALF UNAL INIT(0*0) /**/,
             12167    1          2 PRIOB(0:3) SBIN BYTE UNAL INIT(0*0) /**/,
             12168    1          2 MEXP SBIN INIT(-1) /**/,                  /* Expiration */
             12169    1          2 DEXP SBIN INIT(-1) /**/,                  /* Expiration */
             12170    1          2 FLAGS ALIGNED,
             12171    1             3 *  BIT(5) UNAL INIT('0'B) /**/,
             12172    1             3 STARSACC BIT(1) UNAL INIT('0'B) /**/,   /* *S accounting */
             12173    1             3 * BIT(30) UNAL INIT('0'B) /**/,
             12174    1          2 INSTUSE CHAR(16) INIT(' ') /**/,            /* Installation use */
             12175                                                              /*  Time  */
             12176    1          2 MTIME(0:3) UBIN WORD UNAL INIT( 59999400, 59999400, 59999400,59999400 )
             12176                   /**/,
             12177    1          2 DTIME(0:3) UBIN WORD UNAL INIT( 60000,59999400,59999400,59999400 ) /**/,
             12178                                                              /*  Memory  */
             12179    1          2 MMEM(0:3) UBIN HALF UNAL INIT( 511, 511, 511, 511 ) /**/,
             12180    1          2 DMEM(0:3) UBIN HALF UNAL INIT( 64, 256, 128, 256 ) /**/,
             12181    1          2 PSDOL(0:7),
             12182    1             3 PSDO_NAME CHAR(8) UNAL INIT( ' '*0 ) /**/,
             12183    1             3 BMAX UBIN HALF UNAL INIT( 0*0 ) /**/,
             12184    1             3 GMAX UBIN HALF UNAL INIT( 0*0 ) /**/,
             12185    1             3 OMAX UBIN HALF UNAL INIT( 0*0 ) /**/,
             12186    1             3 TMAX UBIN HALF UNAL INIT( 0*0 ) /**/,
             12187    1          2 TOT_TYPES UBIN HALF UNAL INIT( 2 )/**/ ,    /* Total res. Types */
PL6.E3A0      #001=AS_SUPER_D File=AS_SUPER_D.:E05TSI                            TUE 07/29/97 10:59 Page:59
             12188    1          2 RESL( 0:7 ) UNAL ,     /* Resources */
             12189    1             3 RNAME CHAR(2) UNAL INIT( 'MT', 'DP', ' '*0)/**/,
             12190    1             3 BMAX UBIN HALF UNAL INIT( 4, 4, 0*0 )/**/,
             12191    1             3 GMAX UBIN HALF UNAL INIT( 4, 4, 0*0 )/**/ ,
             12192    1             3 OMAX UBIN HALF UNAL INIT( 4, 4, 0*0 ) /**/,
             12193    1             3 TMAX UBIN HALF UNAL INIT( 4, 4, 0*0 ) /**/,
             12194    1          2 SETUP_PERM(0:3) BIT(1) UNAL INIT('0'B*0)/**/,
             12195    1          2 BANNER_PERM (0:9) BIT (1) UNAL INIT ('0'B*0)/**/,
             12196    1          2 PERM_BLOCK REDEF BANNER_PERM BIT (10),
             12197    1          2 SETUP_FORCE(0:3) BIT(1) UNAL INIT('0'B*0)/**/,
             12198                    /* This bit marks if the setup can be bypassed with the
             12199                       ns option during logon.
             12200                    */
             12201                                           /* Setup contains the index into the
             12202                                              pool of text, it is referenced
             12203                                              with the following text structure.
             12204                                              An index of
             12205                                              -1 implies that the setup command
             12206                                              for that mode does not exist.  */
             12207    1          2 SETUP(0:3) SBIN HALF UNAL INIT(-1*0)/**/,
             12208    1          2 BANNER (0:9) SBIN HALF UNAL INIT (-1*0)/**/,
             12209    1          2 SETUP_CHRA ALIGNED,
             12210    1             3 SIZE UBIN INIT (0) /**/,
             12211    1             3 TXT CHAR (1024) INIT (' ') /**/,
             12212    1             3 TXT_CHR (0:1023) REDEF TXT CHAR (1),
             12213    1             3 TXT_UBIN (0:1023) REDEF TXT UBIN (9) UNAL,
             12214                           /* At the third level- SIZE_ is the total size of
             12215                              the used area in the pool of setup and banner
             12216                              text items. SETUPMAX-SIZE_=free space remaining.
             12217                              Txt is the area containing setup and banner
             12218                              TXT_CHR and TXT_UBIN are ways of accessing the
             12219                              text for those commands.                     */
             12220    1          2 LAST_LOGON_TIME BIT(36) ALIGNED INIT('0'B) /**/,
             12221                           /* Uts of last successful logon, from slug. */
             12222    1          2 BAD_LOGON_CNT UBIN HALF UNAL INIT(0) /**/,
             12223                /* Number of failed logon attempts logged since the last
             12224                   system exit.                                           */
PL6.E3A0      #001=AS_SUPER_D File=AS_SUPER_D.:E05TSI                            TUE 07/29/97 10:59 Page:60
             12225    1          2 RFUH1 UBIN HALF UNAL INIT(0) /**/,
             12226                 /* Reserved for future use half word.  */
             12227    1          2 LOGINS   (0:3) ,
             12228    1             3 LAST_LOGON_TIME UBIN INIT (0*0) /**/,
             12229                           /* Uts of last successful logon, from slug. */
             12230    1             3 BAD_LOGON_CNT  UBIN  INIT (0*0) /**/,
             12231                 /* No. of failed logon attempts logged since the last
             12232                    system exit.  */
             12233    1          2  PASSWORD_CHANGE_TIME UBIN INIT (0) /**/,
             12234                 /* Uts of the last password change. Currently not used. */
             12235    1          2  MAXENQ(0:3) UBIN (18) UNAL INIT (0*0) /**/,
             12236                 /* Maximum number of enq/deq packets for this user. */
             12237    1          2  RFUW1  UBIN  INIT (0) /**/,
             12238                 /* Reserved for future use word. */
             12239    1          2  RFUW2  UBIN  INIT (0) /**/,
             12240    1          2  RFUW3  UBIN  INIT (0) /**/,
             12241    1          2  RFUW4  UBIN  INIT (0) /**/,
             12242    1          2  RFUW5  UBIN  INIT (0) /**/
             12243    1   ;
     1666    12245        %AS_USERS(STR_NAME=AS_DEFAULT, STCLASS=STATIC SYMDEF );
             12246        %LSET LISTSUB = '1'B;
             12247        %LSET LISTEXP = '1'B;
             12248        %LSET STR='STATIC SYMDEF        ';
             12249        %IF
             12251            '1'B;
             12252        %LSET INIT=INIT;
             12253        %ELSE;
             12255        %ENDIF;
             12256        /*
             12257        */
             12258    1   DCL 1 AS_DEFAULT STATIC SYMDEF,
             12259    1          2 ACCT CHAR(8) INIT(' ') /**/,
             12260    1          2 NAME CHAR(12) INIT(' ') /**/,
             12261    1          2 NAT_LANG CHAR(1) INIT(' ') /**/,            /* Native language */
             12262    1          2 STEPACCNT BIT(1) UNAL INIT('0'B) /**/,
             12263    1          2 BATOK BIT(1) UNAL INIT( '1'B ) /**/,
             12264    1          2 * BIT(7) UNAL INIT('0'B) /**/,
PL6.E3A0      #001=AS_SUPER_D File=AS_SUPER_D.:E05TSI                            TUE 07/29/97 10:59 Page:61
             12265    1          2 BATNUM SBIN HALF UNAL INIT(-1) /**/,
             12266    1          2 BUDGET,
             12267    1             3 MAXC SBIN INIT(-1) /**/, /* 'MCHARGES' for user */
             12268    1             3 ACCUM SBIN INIT(0) /**/, /*Charges accumulated by user*/
             12269    1             3 PMAXC SBIN INIT(-1) /**/, /* Proj. admin. record only;
             12270                                                             'MCHARGES for project */
             12271    1             3 PROJ_ALLOWED REDEF PMAXC SBIN, /* Default project record only;
             12272                                        maximum number of users allowed in this project
             12273                                        and all sub-projects. */
             12274    1             3 PACCUM SBIN INIT(0) /**/, /* Proj. admin. record only;
             12275                                                       charges accumulated by project */
             12276    1             3 PROJ_CREATED REDEF PACCUM SBIN, /* Default project record only;
             12277                                                  number of users created in project */
             12278    1             3 MACCT,
             12279    1                4 COUNT UBIN(9) UNAL INIT(4) /**/,
             12280    1                4 ACCT CHAR(8) UNAL INIT('NONE') /**/,
             12281    1                4 NAME CHAR(12) UNAL INIT(' ') /**/,
             12282    1             3 MACCT_ REDEF MACCT,
             12283    1                4 * UBIN BYTE UNAL,
             12284    1                4 TEXT CHAR(20) UNAL,
             12285    1             3 BKACC BIT(1) UNAL INIT('1'B) /**/,
             12286    1             3 BUDLIM BIT(1) UNAL INIT( '0'B ) /**/,
             12287    1             3 PCHARGES BIT(1) UNAL INIT( '1'B ) /**/,
             12288    1             3 ICHARGES BIT(1) UNAL INIT( '1'B ) /**/,
             12289    1             3 BLINDACCTNG BIT(1) UNAL INIT('0'B)/**/,
             12290    1             3 * BIT(4) INIT('0'B)/**/,
             12291    1             3 MAX_PROJECTS SBIN(18) UNAL INIT(0) /**/,
             12292                                          /* Proj. admin. record only;
             12293                                             maximum number of sub-projects allowed. */
             12294    1             3 SUB_PROJS REDEF MAX_PROJECTS SBIN(18) UNAL,
             12295                                          /* Default project record only;
             12296                                             number of sub-projects created. */
             12297    1          2 BILL(0:3) CHAR(6) UNAL INIT('1','1','1','1') /**/,
             12298    1          2 KEY(0:71) BIT(1) UNAL INIT('0'B*0) /**/,
             12299    1          2 *      CHAR(23) INIT(' ') /**/,
             12300    1          2 OUTPUTPRIO UBIN(9) UNAL INIT(7) /**/,
             12301                                                              /* Services */
PL6.E3A0      #001=AS_SUPER_D File=AS_SUPER_D.:E05TSI                            TUE 07/29/97 10:59 Page:62
             12302                                                              /*   Batch   = 0 ,
             12303                                                                   ghost   = 1 ,
             12304                                                                   on-line = 2,
             12305                                                                   tp      = 3
             12306                                                                               */
             12307    1          2 MLO(0:3) UBIN WORD UNAL INIT( 99999, 99999, 99999, 99999 ) /**/,
             12308    1          2 DLO(0:3) UBIN WORD UNAL INIT( 1000, 99999, 99999, 99999 ) /**/,
             12309    1          2 MDO(0:3) UBIN WORD UNAL INIT( 99999, 99999, 99999, 99999 ) /**/,
             12310    1          2 DDO(0:3) UBIN WORD UNAL INIT( 50, 99999, 99999, 99999 ) /**/,
             12311    1          2 MPO(0:3) UBIN WORD UNAL INIT( 99999, 99999, 99999, 99999 ) /**/,
             12312    1          2 DPO(0:3) UBIN WORD UNAL INIT( 100, 99999, 99999, 99999 ) /**/,
             12313    1          2 MPDIS(0:3) UBIN WORD UNAL INIT( 99999, 99999, 99999, 99999 ) /**/,
             12314    1          2 DPDIS(0:3) UBIN WORD UNAL INIT( 99999, 99999, 99999, 99999 ) /**/,
             12315    1          2 MTDIS(0:3) UBIN WORD UNAL INIT( 99999, 99999, 99999, 99999 ) /**/,
             12316    1          2 DTDIS(0:3) UBIN WORD UNAL INIT( 2000, 2000, 9999, 2000 ) /**/,
             12317    1          2 MFPOOLS(0:3) UBIN BYTE UNAL INIT( 31, 31, 31, 31 ) /**/,
             12318    1          2 DFPOOLS(0:3) UBIN BYTE UNAL INIT( 10, 10, 10, 10 ) /**/,
             12319    1          2 MMPRIO(0:3) UBIN BYTE UNAL INIT( 7, 7, 7, 7 ) /**/,
             12320    1          2 DMPRIO(0:3) UBIN BYTE UNAL INIT( 7, 7, 7, 7 ) /**/,
             12321    1          2 *     CHAR(36)                          /* Peripheral */
             12322    1             INIT(' ')/**/,
             12323    1          2 HPSN CHAR(6) INIT('SYS') /**/,
             12324    1          2 * UBIN(18) UNAL INIT(0) /**/,
             12325                                                                 /*   Command processor   */
             12326    1          2 CPROC(0:3) ALIGNED,
             12327    1             3 NAME,
             12328    1                4 CNT UBIN BYTE UNAL INIT(4*0) /**/,
             12329    1                4 TEXT CHAR(31) UNAL INIT('IBEX'*0) /**/,
             12330                                                         /*   Last command processor   */
             12331    1          2 LASTCPROC(0:3) ALIGNED,
             12332    1             3 NAME,
             12333    1                4 CNT UBIN BYTE UNAL INIT(0*0) /**/,
             12334    1                4 TEXT CHAR(31) UNAL INIT(' '*0) /**/,
             12335                                                              /*   Privileges   */
             12336    1          2 PRIV (0:3) BIT(36) ALIGNED INIT('0'B*0) /**/,
             12337    1          2 PPRIV (0:3) BIT(36) ALIGNED INIT('0'B*0) /**/,
             12338                                                              /*   Batch   = 0 ,
PL6.E3A0      #001=AS_SUPER_D File=AS_SUPER_D.:E05TSI                            TUE 07/29/97 10:59 Page:63
             12339                                                                   ghost   = 1 ,
             12340                                                                   on-line = 2,
             12341                                                                   tp      = 3
             12342                                                                             */
             12343    1          2 QUAN(0:3) SBIN HALF UNAL INIT(0*0) /**/,
             12344    1          2 *(0:3) UBIN HALF UNAL INIT(0*0) /**/,
             12345    1          2 PRIOB(0:3) SBIN BYTE UNAL INIT(0*0) /**/,
             12346    1          2 MEXP SBIN INIT(-1) /**/,                  /* Expiration */
             12347    1          2 DEXP SBIN INIT(-1) /**/,                  /* Expiration */
             12348    1          2 FLAGS ALIGNED,
             12349    1             3 *  BIT(5) UNAL INIT('0'B) /**/,
             12350    1             3 STARSACC BIT(1) UNAL INIT('0'B) /**/,   /* *S accounting */
             12351    1             3 * BIT(30) UNAL INIT('0'B) /**/,
             12352    1          2 INSTUSE CHAR(16) INIT(' ') /**/,            /* Installation use */
             12353                                                              /*  Time  */
             12354    1          2 MTIME(0:3) UBIN WORD UNAL INIT( 59999400, 59999400, 59999400,59999400 )
             12354                   /**/,
             12355    1          2 DTIME(0:3) UBIN WORD UNAL INIT( 60000,59999400,59999400,59999400 ) /**/,
             12356                                                              /*  Memory  */
             12357    1          2 MMEM(0:3) UBIN HALF UNAL INIT( 511, 511, 511, 511 ) /**/,
             12358    1          2 DMEM(0:3) UBIN HALF UNAL INIT( 64, 256, 128, 256 ) /**/,
             12359    1          2 PSDOL(0:7),
             12360    1             3 PSDO_NAME CHAR(8) UNAL INIT( ' '*0 ) /**/,
             12361    1             3 BMAX UBIN HALF UNAL INIT( 0*0 ) /**/,
             12362    1             3 GMAX UBIN HALF UNAL INIT( 0*0 ) /**/,
             12363    1             3 OMAX UBIN HALF UNAL INIT( 0*0 ) /**/,
             12364    1             3 TMAX UBIN HALF UNAL INIT( 0*0 ) /**/,
             12365    1          2 TOT_TYPES UBIN HALF UNAL INIT( 2 )/**/ ,    /* Total res. Types */
             12366    1          2 RESL( 0:7 ) UNAL ,     /* Resources */
             12367    1             3 RNAME CHAR(2) UNAL INIT( 'MT', 'DP', ' '*0)/**/,
             12368    1             3 BMAX UBIN HALF UNAL INIT( 4, 4, 0*0 )/**/,
             12369    1             3 GMAX UBIN HALF UNAL INIT( 4, 4, 0*0 )/**/ ,
             12370    1             3 OMAX UBIN HALF UNAL INIT( 4, 4, 0*0 ) /**/,
             12371    1             3 TMAX UBIN HALF UNAL INIT( 4, 4, 0*0 ) /**/,
             12372    1          2 SETUP_PERM(0:3) BIT(1) UNAL INIT('0'B*0)/**/,
             12373    1          2 BANNER_PERM (0:9) BIT (1) UNAL INIT ('0'B*0)/**/,
             12374    1          2 PERM_BLOCK REDEF BANNER_PERM BIT (10),
PL6.E3A0      #001=AS_SUPER_D File=AS_SUPER_D.:E05TSI                            TUE 07/29/97 10:59 Page:64
             12375    1          2 SETUP_FORCE(0:3) BIT(1) UNAL INIT('0'B*0)/**/,
             12376                    /* This bit marks if the setup can be bypassed with the
             12377                       ns option during logon.
             12378                    */
             12379                                           /* Setup contains the index into the
             12380                                              pool of text, it is referenced
             12381                                              with the following text structure.
             12382                                              An index of
             12383                                              -1 implies that the setup command
             12384                                              for that mode does not exist.  */
             12385    1          2 SETUP(0:3) SBIN HALF UNAL INIT(-1*0)/**/,
             12386    1          2 BANNER (0:9) SBIN HALF UNAL INIT (-1*0)/**/,
             12387    1          2 SETUP_CHRA ALIGNED,
             12388    1             3 SIZE UBIN INIT (0) /**/,
             12389    1             3 TXT CHAR (1024) INIT (' ') /**/,
             12390    1             3 TXT_CHR (0:1023) REDEF TXT CHAR (1),
             12391    1             3 TXT_UBIN (0:1023) REDEF TXT UBIN (9) UNAL,
             12392                           /* At the third level- SIZE_ is the total size of
             12393                              the used area in the pool of setup and banner
             12394                              text items. SETUPMAX-SIZE_=free space remaining.
             12395                              Txt is the area containing setup and banner
             12396                              TXT_CHR and TXT_UBIN are ways of accessing the
             12397                              text for those commands.                     */
             12398    1          2 LAST_LOGON_TIME BIT(36) ALIGNED INIT('0'B) /**/,
             12399                           /* Uts of last successful logon, from slug. */
             12400    1          2 BAD_LOGON_CNT UBIN HALF UNAL INIT(0) /**/,
             12401                /* Number of failed logon attempts logged since the last
             12402                   system exit.                                           */
             12403    1          2 RFUH1 UBIN HALF UNAL INIT(0) /**/,
             12404                 /* Reserved for future use half word.  */
             12405    1          2 LOGINS   (0:3) ,
             12406    1             3 LAST_LOGON_TIME UBIN INIT (0*0) /**/,
             12407                           /* Uts of last successful logon, from slug. */
             12408    1             3 BAD_LOGON_CNT  UBIN  INIT (0*0) /**/,
             12409                 /* No. of failed logon attempts logged since the last
             12410                    system exit.  */
             12411    1          2  PASSWORD_CHANGE_TIME UBIN INIT (0) /**/,
PL6.E3A0      #001=AS_SUPER_D File=AS_SUPER_D.:E05TSI                            TUE 07/29/97 10:59 Page:65
             12412                 /* Uts of the last password change. Currently not used. */
             12413    1          2  MAXENQ(0:3) UBIN (18) UNAL INIT (0*0) /**/,
             12414                 /* Maximum number of enq/deq packets for this user. */
             12415    1          2  RFUW1  UBIN  INIT (0) /**/,
             12416                 /* Reserved for future use word. */
             12417    1          2  RFUW2  UBIN  INIT (0) /**/,
             12418    1          2  RFUW3  UBIN  INIT (0) /**/,
             12419    1          2  RFUW4  UBIN  INIT (0) /**/,
             12420    1          2  RFUW5  UBIN  INIT (0) /**/
             12421    1   ;
     1667    12423        %AS_USERS(STR_NAME=AS_PROJ_ADMIN, STCLASS=STATIC SYMDEF );
             12424        %LSET LISTSUB = '1'B;
             12425        %LSET LISTEXP = '1'B;
             12426        %LSET STR='STATIC SYMDEF        ';
             12427        %IF
             12429            '1'B;
             12430        %LSET INIT=INIT;
             12431        %ELSE;
             12433        %ENDIF;
             12434        /*
             12435        */
             12436    1   DCL 1 AS_PROJ_ADMIN STATIC SYMDEF,
             12437    1          2 ACCT CHAR(8) INIT(' ') /**/,
             12438    1          2 NAME CHAR(12) INIT(' ') /**/,
             12439    1          2 NAT_LANG CHAR(1) INIT(' ') /**/,            /* Native language */
             12440    1          2 STEPACCNT BIT(1) UNAL INIT('0'B) /**/,
             12441    1          2 BATOK BIT(1) UNAL INIT( '1'B ) /**/,
             12442    1          2 * BIT(7) UNAL INIT('0'B) /**/,
             12443    1          2 BATNUM SBIN HALF UNAL INIT(-1) /**/,
             12444    1          2 BUDGET,
             12445    1             3 MAXC SBIN INIT(-1) /**/, /* 'MCHARGES' for user */
             12446    1             3 ACCUM SBIN INIT(0) /**/, /*Charges accumulated by user*/
             12447    1             3 PMAXC SBIN INIT(-1) /**/, /* Proj. admin. record only;
             12448                                                             'MCHARGES for project */
             12449    1             3 PROJ_ALLOWED REDEF PMAXC SBIN, /* Default project record only;
             12450                                        maximum number of users allowed in this project
             12451                                        and all sub-projects. */
PL6.E3A0      #001=AS_SUPER_D File=AS_SUPER_D.:E05TSI                            TUE 07/29/97 10:59 Page:66
             12452    1             3 PACCUM SBIN INIT(0) /**/, /* Proj. admin. record only;
             12453                                                       charges accumulated by project */
             12454    1             3 PROJ_CREATED REDEF PACCUM SBIN, /* Default project record only;
             12455                                                  number of users created in project */
             12456    1             3 MACCT,
             12457    1                4 COUNT UBIN(9) UNAL INIT(4) /**/,
             12458    1                4 ACCT CHAR(8) UNAL INIT('NONE') /**/,
             12459    1                4 NAME CHAR(12) UNAL INIT(' ') /**/,
             12460    1             3 MACCT_ REDEF MACCT,
             12461    1                4 * UBIN BYTE UNAL,
             12462    1                4 TEXT CHAR(20) UNAL,
             12463    1             3 BKACC BIT(1) UNAL INIT('1'B) /**/,
             12464    1             3 BUDLIM BIT(1) UNAL INIT( '0'B ) /**/,
             12465    1             3 PCHARGES BIT(1) UNAL INIT( '1'B ) /**/,
             12466    1             3 ICHARGES BIT(1) UNAL INIT( '1'B ) /**/,
             12467    1             3 BLINDACCTNG BIT(1) UNAL INIT('0'B)/**/,
             12468    1             3 * BIT(4) INIT('0'B)/**/,
             12469    1             3 MAX_PROJECTS SBIN(18) UNAL INIT(0) /**/,
             12470                                          /* Proj. admin. record only;
             12471                                             maximum number of sub-projects allowed. */
             12472    1             3 SUB_PROJS REDEF MAX_PROJECTS SBIN(18) UNAL,
             12473                                          /* Default project record only;
             12474                                             number of sub-projects created. */
             12475    1          2 BILL(0:3) CHAR(6) UNAL INIT('1','1','1','1') /**/,
             12476    1          2 KEY(0:71) BIT(1) UNAL INIT('0'B*0) /**/,
             12477    1          2 *      CHAR(23) INIT(' ') /**/,
             12478    1          2 OUTPUTPRIO UBIN(9) UNAL INIT(7) /**/,
             12479                                                              /* Services */
             12480                                                              /*   Batch   = 0 ,
             12481                                                                   ghost   = 1 ,
             12482                                                                   on-line = 2,
             12483                                                                   tp      = 3
             12484                                                                               */
             12485    1          2 MLO(0:3) UBIN WORD UNAL INIT( 99999, 99999, 99999, 99999 ) /**/,
             12486    1          2 DLO(0:3) UBIN WORD UNAL INIT( 1000, 99999, 99999, 99999 ) /**/,
             12487    1          2 MDO(0:3) UBIN WORD UNAL INIT( 99999, 99999, 99999, 99999 ) /**/,
             12488    1          2 DDO(0:3) UBIN WORD UNAL INIT( 50, 99999, 99999, 99999 ) /**/,
PL6.E3A0      #001=AS_SUPER_D File=AS_SUPER_D.:E05TSI                            TUE 07/29/97 10:59 Page:67
             12489    1          2 MPO(0:3) UBIN WORD UNAL INIT( 99999, 99999, 99999, 99999 ) /**/,
             12490    1          2 DPO(0:3) UBIN WORD UNAL INIT( 100, 99999, 99999, 99999 ) /**/,
             12491    1          2 MPDIS(0:3) UBIN WORD UNAL INIT( 99999, 99999, 99999, 99999 ) /**/,
             12492    1          2 DPDIS(0:3) UBIN WORD UNAL INIT( 99999, 99999, 99999, 99999 ) /**/,
             12493    1          2 MTDIS(0:3) UBIN WORD UNAL INIT( 99999, 99999, 99999, 99999 ) /**/,
             12494    1          2 DTDIS(0:3) UBIN WORD UNAL INIT( 2000, 2000, 9999, 2000 ) /**/,
             12495    1          2 MFPOOLS(0:3) UBIN BYTE UNAL INIT( 31, 31, 31, 31 ) /**/,
             12496    1          2 DFPOOLS(0:3) UBIN BYTE UNAL INIT( 10, 10, 10, 10 ) /**/,
             12497    1          2 MMPRIO(0:3) UBIN BYTE UNAL INIT( 7, 7, 7, 7 ) /**/,
             12498    1          2 DMPRIO(0:3) UBIN BYTE UNAL INIT( 7, 7, 7, 7 ) /**/,
             12499    1          2 *     CHAR(36)                          /* Peripheral */
             12500    1             INIT(' ')/**/,
             12501    1          2 HPSN CHAR(6) INIT('SYS') /**/,
             12502    1          2 * UBIN(18) UNAL INIT(0) /**/,
             12503                                                                 /*   Command processor   */
             12504    1          2 CPROC(0:3) ALIGNED,
             12505    1             3 NAME,
             12506    1                4 CNT UBIN BYTE UNAL INIT(4*0) /**/,
             12507    1                4 TEXT CHAR(31) UNAL INIT('IBEX'*0) /**/,
             12508                                                         /*   Last command processor   */
             12509    1          2 LASTCPROC(0:3) ALIGNED,
             12510    1             3 NAME,
             12511    1                4 CNT UBIN BYTE UNAL INIT(0*0) /**/,
             12512    1                4 TEXT CHAR(31) UNAL INIT(' '*0) /**/,
             12513                                                              /*   Privileges   */
             12514    1          2 PRIV (0:3) BIT(36) ALIGNED INIT('0'B*0) /**/,
             12515    1          2 PPRIV (0:3) BIT(36) ALIGNED INIT('0'B*0) /**/,
             12516                                                              /*   Batch   = 0 ,
             12517                                                                   ghost   = 1 ,
             12518                                                                   on-line = 2,
             12519                                                                   tp      = 3
             12520                                                                             */
             12521    1          2 QUAN(0:3) SBIN HALF UNAL INIT(0*0) /**/,
             12522    1          2 *(0:3) UBIN HALF UNAL INIT(0*0) /**/,
             12523    1          2 PRIOB(0:3) SBIN BYTE UNAL INIT(0*0) /**/,
             12524    1          2 MEXP SBIN INIT(-1) /**/,                  /* Expiration */
             12525    1          2 DEXP SBIN INIT(-1) /**/,                  /* Expiration */
PL6.E3A0      #001=AS_SUPER_D File=AS_SUPER_D.:E05TSI                            TUE 07/29/97 10:59 Page:68
             12526    1          2 FLAGS ALIGNED,
             12527    1             3 *  BIT(5) UNAL INIT('0'B) /**/,
             12528    1             3 STARSACC BIT(1) UNAL INIT('0'B) /**/,   /* *S accounting */
             12529    1             3 * BIT(30) UNAL INIT('0'B) /**/,
             12530    1          2 INSTUSE CHAR(16) INIT(' ') /**/,            /* Installation use */
             12531                                                              /*  Time  */
             12532    1          2 MTIME(0:3) UBIN WORD UNAL INIT( 59999400, 59999400, 59999400,59999400 )
             12532                   /**/,
             12533    1          2 DTIME(0:3) UBIN WORD UNAL INIT( 60000,59999400,59999400,59999400 ) /**/,
             12534                                                              /*  Memory  */
             12535    1          2 MMEM(0:3) UBIN HALF UNAL INIT( 511, 511, 511, 511 ) /**/,
             12536    1          2 DMEM(0:3) UBIN HALF UNAL INIT( 64, 256, 128, 256 ) /**/,
             12537    1          2 PSDOL(0:7),
             12538    1             3 PSDO_NAME CHAR(8) UNAL INIT( ' '*0 ) /**/,
             12539    1             3 BMAX UBIN HALF UNAL INIT( 0*0 ) /**/,
             12540    1             3 GMAX UBIN HALF UNAL INIT( 0*0 ) /**/,
             12541    1             3 OMAX UBIN HALF UNAL INIT( 0*0 ) /**/,
             12542    1             3 TMAX UBIN HALF UNAL INIT( 0*0 ) /**/,
             12543    1          2 TOT_TYPES UBIN HALF UNAL INIT( 2 )/**/ ,    /* Total res. Types */
             12544    1          2 RESL( 0:7 ) UNAL ,     /* Resources */
             12545    1             3 RNAME CHAR(2) UNAL INIT( 'MT', 'DP', ' '*0)/**/,
             12546    1             3 BMAX UBIN HALF UNAL INIT( 4, 4, 0*0 )/**/,
             12547    1             3 GMAX UBIN HALF UNAL INIT( 4, 4, 0*0 )/**/ ,
             12548    1             3 OMAX UBIN HALF UNAL INIT( 4, 4, 0*0 ) /**/,
             12549    1             3 TMAX UBIN HALF UNAL INIT( 4, 4, 0*0 ) /**/,
             12550    1          2 SETUP_PERM(0:3) BIT(1) UNAL INIT('0'B*0)/**/,
             12551    1          2 BANNER_PERM (0:9) BIT (1) UNAL INIT ('0'B*0)/**/,
             12552    1          2 PERM_BLOCK REDEF BANNER_PERM BIT (10),
             12553    1          2 SETUP_FORCE(0:3) BIT(1) UNAL INIT('0'B*0)/**/,
             12554                    /* This bit marks if the setup can be bypassed with the
             12555                       ns option during logon.
             12556                    */
             12557                                           /* Setup contains the index into the
             12558                                              pool of text, it is referenced
             12559                                              with the following text structure.
             12560                                              An index of
             12561                                              -1 implies that the setup command
PL6.E3A0      #001=AS_SUPER_D File=AS_SUPER_D.:E05TSI                            TUE 07/29/97 10:59 Page:69
             12562                                              for that mode does not exist.  */
             12563    1          2 SETUP(0:3) SBIN HALF UNAL INIT(-1*0)/**/,
             12564    1          2 BANNER (0:9) SBIN HALF UNAL INIT (-1*0)/**/,
             12565    1          2 SETUP_CHRA ALIGNED,
             12566    1             3 SIZE UBIN INIT (0) /**/,
             12567    1             3 TXT CHAR (1024) INIT (' ') /**/,
             12568    1             3 TXT_CHR (0:1023) REDEF TXT CHAR (1),
             12569    1             3 TXT_UBIN (0:1023) REDEF TXT UBIN (9) UNAL,
             12570                           /* At the third level- SIZE_ is the total size of
             12571                              the used area in the pool of setup and banner
             12572                              text items. SETUPMAX-SIZE_=free space remaining.
             12573                              Txt is the area containing setup and banner
             12574                              TXT_CHR and TXT_UBIN are ways of accessing the
             12575                              text for those commands.                     */
             12576    1          2 LAST_LOGON_TIME BIT(36) ALIGNED INIT('0'B) /**/,
             12577                           /* Uts of last successful logon, from slug. */
             12578    1          2 BAD_LOGON_CNT UBIN HALF UNAL INIT(0) /**/,
             12579                /* Number of failed logon attempts logged since the last
             12580                   system exit.                                           */
             12581    1          2 RFUH1 UBIN HALF UNAL INIT(0) /**/,
             12582                 /* Reserved for future use half word.  */
             12583    1          2 LOGINS   (0:3) ,
             12584    1             3 LAST_LOGON_TIME UBIN INIT (0*0) /**/,
             12585                           /* Uts of last successful logon, from slug. */
             12586    1             3 BAD_LOGON_CNT  UBIN  INIT (0*0) /**/,
             12587                 /* No. of failed logon attempts logged since the last
             12588                    system exit.  */
             12589    1          2  PASSWORD_CHANGE_TIME UBIN INIT (0) /**/,
             12590                 /* Uts of the last password change. Currently not used. */
             12591    1          2  MAXENQ(0:3) UBIN (18) UNAL INIT (0*0) /**/,
             12592                 /* Maximum number of enq/deq packets for this user. */
             12593    1          2  RFUW1  UBIN  INIT (0) /**/,
             12594                 /* Reserved for future use word. */
             12595    1          2  RFUW2  UBIN  INIT (0) /**/,
             12596    1          2  RFUW3  UBIN  INIT (0) /**/,
             12597    1          2  RFUW4  UBIN  INIT (0) /**/,
             12598    1          2  RFUW5  UBIN  INIT (0) /**/
PL6.E3A0      #001=AS_SUPER_D File=AS_SUPER_D.:E05TSI                            TUE 07/29/97 10:59 Page:70
             12599    1   ;
     1668    12601        %AS_USERS(STR_NAME=AS_PROJECT, STCLASS=STATIC SYMDEF );
             12602        %LSET LISTSUB = '1'B;
             12603        %LSET LISTEXP = '1'B;
             12604        %LSET STR='STATIC SYMDEF        ';
             12605        %IF
             12607            '1'B;
             12608        %LSET INIT=INIT;
             12609        %ELSE;
             12611        %ENDIF;
             12612        /*
             12613        */
             12614    1   DCL 1 AS_PROJECT STATIC SYMDEF,
             12615    1          2 ACCT CHAR(8) INIT(' ') /**/,
             12616    1          2 NAME CHAR(12) INIT(' ') /**/,
             12617    1          2 NAT_LANG CHAR(1) INIT(' ') /**/,            /* Native language */
             12618    1          2 STEPACCNT BIT(1) UNAL INIT('0'B) /**/,
             12619    1          2 BATOK BIT(1) UNAL INIT( '1'B ) /**/,
             12620    1          2 * BIT(7) UNAL INIT('0'B) /**/,
             12621    1          2 BATNUM SBIN HALF UNAL INIT(-1) /**/,
             12622    1          2 BUDGET,
             12623    1             3 MAXC SBIN INIT(-1) /**/, /* 'MCHARGES' for user */
             12624    1             3 ACCUM SBIN INIT(0) /**/, /*Charges accumulated by user*/
             12625    1             3 PMAXC SBIN INIT(-1) /**/, /* Proj. admin. record only;
             12626                                                             'MCHARGES for project */
             12627    1             3 PROJ_ALLOWED REDEF PMAXC SBIN, /* Default project record only;
             12628                                        maximum number of users allowed in this project
             12629                                        and all sub-projects. */
             12630    1             3 PACCUM SBIN INIT(0) /**/, /* Proj. admin. record only;
             12631                                                       charges accumulated by project */
             12632    1             3 PROJ_CREATED REDEF PACCUM SBIN, /* Default project record only;
             12633                                                  number of users created in project */
             12634    1             3 MACCT,
             12635    1                4 COUNT UBIN(9) UNAL INIT(4) /**/,
             12636    1                4 ACCT CHAR(8) UNAL INIT('NONE') /**/,
             12637    1                4 NAME CHAR(12) UNAL INIT(' ') /**/,
             12638    1             3 MACCT_ REDEF MACCT,
PL6.E3A0      #001=AS_SUPER_D File=AS_SUPER_D.:E05TSI                            TUE 07/29/97 10:59 Page:71
             12639    1                4 * UBIN BYTE UNAL,
             12640    1                4 TEXT CHAR(20) UNAL,
             12641    1             3 BKACC BIT(1) UNAL INIT('1'B) /**/,
             12642    1             3 BUDLIM BIT(1) UNAL INIT( '0'B ) /**/,
             12643    1             3 PCHARGES BIT(1) UNAL INIT( '1'B ) /**/,
             12644    1             3 ICHARGES BIT(1) UNAL INIT( '1'B ) /**/,
             12645    1             3 BLINDACCTNG BIT(1) UNAL INIT('0'B)/**/,
             12646    1             3 * BIT(4) INIT('0'B)/**/,
             12647    1             3 MAX_PROJECTS SBIN(18) UNAL INIT(0) /**/,
             12648                                          /* Proj. admin. record only;
             12649                                             maximum number of sub-projects allowed. */
             12650    1             3 SUB_PROJS REDEF MAX_PROJECTS SBIN(18) UNAL,
             12651                                          /* Default project record only;
             12652                                             number of sub-projects created. */
             12653    1          2 BILL(0:3) CHAR(6) UNAL INIT('1','1','1','1') /**/,
             12654    1          2 KEY(0:71) BIT(1) UNAL INIT('0'B*0) /**/,
             12655    1          2 *      CHAR(23) INIT(' ') /**/,
             12656    1          2 OUTPUTPRIO UBIN(9) UNAL INIT(7) /**/,
             12657                                                              /* Services */
             12658                                                              /*   Batch   = 0 ,
             12659                                                                   ghost   = 1 ,
             12660                                                                   on-line = 2,
             12661                                                                   tp      = 3
             12662                                                                               */
             12663    1          2 MLO(0:3) UBIN WORD UNAL INIT( 99999, 99999, 99999, 99999 ) /**/,
             12664    1          2 DLO(0:3) UBIN WORD UNAL INIT( 1000, 99999, 99999, 99999 ) /**/,
             12665    1          2 MDO(0:3) UBIN WORD UNAL INIT( 99999, 99999, 99999, 99999 ) /**/,
             12666    1          2 DDO(0:3) UBIN WORD UNAL INIT( 50, 99999, 99999, 99999 ) /**/,
             12667    1          2 MPO(0:3) UBIN WORD UNAL INIT( 99999, 99999, 99999, 99999 ) /**/,
             12668    1          2 DPO(0:3) UBIN WORD UNAL INIT( 100, 99999, 99999, 99999 ) /**/,
             12669    1          2 MPDIS(0:3) UBIN WORD UNAL INIT( 99999, 99999, 99999, 99999 ) /**/,
             12670    1          2 DPDIS(0:3) UBIN WORD UNAL INIT( 99999, 99999, 99999, 99999 ) /**/,
             12671    1          2 MTDIS(0:3) UBIN WORD UNAL INIT( 99999, 99999, 99999, 99999 ) /**/,
             12672    1          2 DTDIS(0:3) UBIN WORD UNAL INIT( 2000, 2000, 9999, 2000 ) /**/,
             12673    1          2 MFPOOLS(0:3) UBIN BYTE UNAL INIT( 31, 31, 31, 31 ) /**/,
             12674    1          2 DFPOOLS(0:3) UBIN BYTE UNAL INIT( 10, 10, 10, 10 ) /**/,
             12675    1          2 MMPRIO(0:3) UBIN BYTE UNAL INIT( 7, 7, 7, 7 ) /**/,
PL6.E3A0      #001=AS_SUPER_D File=AS_SUPER_D.:E05TSI                            TUE 07/29/97 10:59 Page:72
             12676    1          2 DMPRIO(0:3) UBIN BYTE UNAL INIT( 7, 7, 7, 7 ) /**/,
             12677    1          2 *     CHAR(36)                          /* Peripheral */
             12678    1             INIT(' ')/**/,
             12679    1          2 HPSN CHAR(6) INIT('SYS') /**/,
             12680    1          2 * UBIN(18) UNAL INIT(0) /**/,
             12681                                                                 /*   Command processor   */
             12682    1          2 CPROC(0:3) ALIGNED,
             12683    1             3 NAME,
             12684    1                4 CNT UBIN BYTE UNAL INIT(4*0) /**/,
             12685    1                4 TEXT CHAR(31) UNAL INIT('IBEX'*0) /**/,
             12686                                                         /*   Last command processor   */
             12687    1          2 LASTCPROC(0:3) ALIGNED,
             12688    1             3 NAME,
             12689    1                4 CNT UBIN BYTE UNAL INIT(0*0) /**/,
             12690    1                4 TEXT CHAR(31) UNAL INIT(' '*0) /**/,
             12691                                                              /*   Privileges   */
             12692    1          2 PRIV (0:3) BIT(36) ALIGNED INIT('0'B*0) /**/,
             12693    1          2 PPRIV (0:3) BIT(36) ALIGNED INIT('0'B*0) /**/,
             12694                                                              /*   Batch   = 0 ,
             12695                                                                   ghost   = 1 ,
             12696                                                                   on-line = 2,
             12697                                                                   tp      = 3
             12698                                                                             */
             12699    1          2 QUAN(0:3) SBIN HALF UNAL INIT(0*0) /**/,
             12700    1          2 *(0:3) UBIN HALF UNAL INIT(0*0) /**/,
             12701    1          2 PRIOB(0:3) SBIN BYTE UNAL INIT(0*0) /**/,
             12702    1          2 MEXP SBIN INIT(-1) /**/,                  /* Expiration */
             12703    1          2 DEXP SBIN INIT(-1) /**/,                  /* Expiration */
             12704    1          2 FLAGS ALIGNED,
             12705    1             3 *  BIT(5) UNAL INIT('0'B) /**/,
             12706    1             3 STARSACC BIT(1) UNAL INIT('0'B) /**/,   /* *S accounting */
             12707    1             3 * BIT(30) UNAL INIT('0'B) /**/,
             12708    1          2 INSTUSE CHAR(16) INIT(' ') /**/,            /* Installation use */
             12709                                                              /*  Time  */
             12710    1          2 MTIME(0:3) UBIN WORD UNAL INIT( 59999400, 59999400, 59999400,59999400 )
             12710                   /**/,
             12711    1          2 DTIME(0:3) UBIN WORD UNAL INIT( 60000,59999400,59999400,59999400 ) /**/,
PL6.E3A0      #001=AS_SUPER_D File=AS_SUPER_D.:E05TSI                            TUE 07/29/97 10:59 Page:73
             12712                                                              /*  Memory  */
             12713    1          2 MMEM(0:3) UBIN HALF UNAL INIT( 511, 511, 511, 511 ) /**/,
             12714    1          2 DMEM(0:3) UBIN HALF UNAL INIT( 64, 256, 128, 256 ) /**/,
             12715    1          2 PSDOL(0:7),
             12716    1             3 PSDO_NAME CHAR(8) UNAL INIT( ' '*0 ) /**/,
             12717    1             3 BMAX UBIN HALF UNAL INIT( 0*0 ) /**/,
             12718    1             3 GMAX UBIN HALF UNAL INIT( 0*0 ) /**/,
             12719    1             3 OMAX UBIN HALF UNAL INIT( 0*0 ) /**/,
             12720    1             3 TMAX UBIN HALF UNAL INIT( 0*0 ) /**/,
             12721    1          2 TOT_TYPES UBIN HALF UNAL INIT( 2 )/**/ ,    /* Total res. Types */
             12722    1          2 RESL( 0:7 ) UNAL ,     /* Resources */
             12723    1             3 RNAME CHAR(2) UNAL INIT( 'MT', 'DP', ' '*0)/**/,
             12724    1             3 BMAX UBIN HALF UNAL INIT( 4, 4, 0*0 )/**/,
             12725    1             3 GMAX UBIN HALF UNAL INIT( 4, 4, 0*0 )/**/ ,
             12726    1             3 OMAX UBIN HALF UNAL INIT( 4, 4, 0*0 ) /**/,
             12727    1             3 TMAX UBIN HALF UNAL INIT( 4, 4, 0*0 ) /**/,
             12728    1          2 SETUP_PERM(0:3) BIT(1) UNAL INIT('0'B*0)/**/,
             12729    1          2 BANNER_PERM (0:9) BIT (1) UNAL INIT ('0'B*0)/**/,
             12730    1          2 PERM_BLOCK REDEF BANNER_PERM BIT (10),
             12731    1          2 SETUP_FORCE(0:3) BIT(1) UNAL INIT('0'B*0)/**/,
             12732                    /* This bit marks if the setup can be bypassed with the
             12733                       ns option during logon.
             12734                    */
             12735                                           /* Setup contains the index into the
             12736                                              pool of text, it is referenced
             12737                                              with the following text structure.
             12738                                              An index of
             12739                                              -1 implies that the setup command
             12740                                              for that mode does not exist.  */
             12741    1          2 SETUP(0:3) SBIN HALF UNAL INIT(-1*0)/**/,
             12742    1          2 BANNER (0:9) SBIN HALF UNAL INIT (-1*0)/**/,
             12743    1          2 SETUP_CHRA ALIGNED,
             12744    1             3 SIZE UBIN INIT (0) /**/,
             12745    1             3 TXT CHAR (1024) INIT (' ') /**/,
             12746    1             3 TXT_CHR (0:1023) REDEF TXT CHAR (1),
             12747    1             3 TXT_UBIN (0:1023) REDEF TXT UBIN (9) UNAL,
             12748                           /* At the third level- SIZE_ is the total size of
PL6.E3A0      #001=AS_SUPER_D File=AS_SUPER_D.:E05TSI                            TUE 07/29/97 10:59 Page:74
             12749                              the used area in the pool of setup and banner
             12750                              text items. SETUPMAX-SIZE_=free space remaining.
             12751                              Txt is the area containing setup and banner
             12752                              TXT_CHR and TXT_UBIN are ways of accessing the
             12753                              text for those commands.                     */
             12754    1          2 LAST_LOGON_TIME BIT(36) ALIGNED INIT('0'B) /**/,
             12755                           /* Uts of last successful logon, from slug. */
             12756    1          2 BAD_LOGON_CNT UBIN HALF UNAL INIT(0) /**/,
             12757                /* Number of failed logon attempts logged since the last
             12758                   system exit.                                           */
             12759    1          2 RFUH1 UBIN HALF UNAL INIT(0) /**/,
             12760                 /* Reserved for future use half word.  */
             12761    1          2 LOGINS   (0:3) ,
             12762    1             3 LAST_LOGON_TIME UBIN INIT (0*0) /**/,
             12763                           /* Uts of last successful logon, from slug. */
             12764    1             3 BAD_LOGON_CNT  UBIN  INIT (0*0) /**/,
             12765                 /* No. of failed logon attempts logged since the last
             12766                    system exit.  */
             12767    1          2  PASSWORD_CHANGE_TIME UBIN INIT (0) /**/,
             12768                 /* Uts of the last password change. Currently not used. */
             12769    1          2  MAXENQ(0:3) UBIN (18) UNAL INIT (0*0) /**/,
             12770                 /* Maximum number of enq/deq packets for this user. */
             12771    1          2  RFUW1  UBIN  INIT (0) /**/,
             12772                 /* Reserved for future use word. */
             12773    1          2  RFUW2  UBIN  INIT (0) /**/,
             12774    1          2  RFUW3  UBIN  INIT (0) /**/,
             12775    1          2  RFUW4  UBIN  INIT (0) /**/,
             12776    1          2  RFUW5  UBIN  INIT (0) /**/
             12777    1   ;
     1669    12779        %AS_USERS(STR_NAME=AS_PROJECT_DFLT, STCLASS=STATIC SYMDEF );
             12780        %LSET LISTSUB = '1'B;
             12781        %LSET LISTEXP = '1'B;
             12782        %LSET STR='STATIC SYMDEF        ';
             12783        %IF
             12785            '1'B;
             12786        %LSET INIT=INIT;
             12787        %ELSE;
PL6.E3A0      #001=AS_SUPER_D File=AS_SUPER_D.:E05TSI                            TUE 07/29/97 10:59 Page:75
             12789        %ENDIF;
             12790        /*
             12791        */
             12792    1   DCL 1 AS_PROJECT_DFLT STATIC SYMDEF,
             12793    1          2 ACCT CHAR(8) INIT(' ') /**/,
             12794    1          2 NAME CHAR(12) INIT(' ') /**/,
             12795    1          2 NAT_LANG CHAR(1) INIT(' ') /**/,            /* Native language */
             12796    1          2 STEPACCNT BIT(1) UNAL INIT('0'B) /**/,
             12797    1          2 BATOK BIT(1) UNAL INIT( '1'B ) /**/,
             12798    1          2 * BIT(7) UNAL INIT('0'B) /**/,
             12799    1          2 BATNUM SBIN HALF UNAL INIT(-1) /**/,
             12800    1          2 BUDGET,
             12801    1             3 MAXC SBIN INIT(-1) /**/, /* 'MCHARGES' for user */
             12802    1             3 ACCUM SBIN INIT(0) /**/, /*Charges accumulated by user*/
             12803    1             3 PMAXC SBIN INIT(-1) /**/, /* Proj. admin. record only;
             12804                                                             'MCHARGES for project */
             12805    1             3 PROJ_ALLOWED REDEF PMAXC SBIN, /* Default project record only;
             12806                                        maximum number of users allowed in this project
             12807                                        and all sub-projects. */
             12808    1             3 PACCUM SBIN INIT(0) /**/, /* Proj. admin. record only;
             12809                                                       charges accumulated by project */
             12810    1             3 PROJ_CREATED REDEF PACCUM SBIN, /* Default project record only;
             12811                                                  number of users created in project */
             12812    1             3 MACCT,
             12813    1                4 COUNT UBIN(9) UNAL INIT(4) /**/,
             12814    1                4 ACCT CHAR(8) UNAL INIT('NONE') /**/,
             12815    1                4 NAME CHAR(12) UNAL INIT(' ') /**/,
             12816    1             3 MACCT_ REDEF MACCT,
             12817    1                4 * UBIN BYTE UNAL,
             12818    1                4 TEXT CHAR(20) UNAL,
             12819    1             3 BKACC BIT(1) UNAL INIT('1'B) /**/,
             12820    1             3 BUDLIM BIT(1) UNAL INIT( '0'B ) /**/,
             12821    1             3 PCHARGES BIT(1) UNAL INIT( '1'B ) /**/,
             12822    1             3 ICHARGES BIT(1) UNAL INIT( '1'B ) /**/,
             12823    1             3 BLINDACCTNG BIT(1) UNAL INIT('0'B)/**/,
             12824    1             3 * BIT(4) INIT('0'B)/**/,
             12825    1             3 MAX_PROJECTS SBIN(18) UNAL INIT(0) /**/,
PL6.E3A0      #001=AS_SUPER_D File=AS_SUPER_D.:E05TSI                            TUE 07/29/97 10:59 Page:76
             12826                                          /* Proj. admin. record only;
             12827                                             maximum number of sub-projects allowed. */
             12828    1             3 SUB_PROJS REDEF MAX_PROJECTS SBIN(18) UNAL,
             12829                                          /* Default project record only;
             12830                                             number of sub-projects created. */
             12831    1          2 BILL(0:3) CHAR(6) UNAL INIT('1','1','1','1') /**/,
             12832    1          2 KEY(0:71) BIT(1) UNAL INIT('0'B*0) /**/,
             12833    1          2 *      CHAR(23) INIT(' ') /**/,
             12834    1          2 OUTPUTPRIO UBIN(9) UNAL INIT(7) /**/,
             12835                                                              /* Services */
             12836                                                              /*   Batch   = 0 ,
             12837                                                                   ghost   = 1 ,
             12838                                                                   on-line = 2,
             12839                                                                   tp      = 3
             12840                                                                               */
             12841    1          2 MLO(0:3) UBIN WORD UNAL INIT( 99999, 99999, 99999, 99999 ) /**/,
             12842    1          2 DLO(0:3) UBIN WORD UNAL INIT( 1000, 99999, 99999, 99999 ) /**/,
             12843    1          2 MDO(0:3) UBIN WORD UNAL INIT( 99999, 99999, 99999, 99999 ) /**/,
             12844    1          2 DDO(0:3) UBIN WORD UNAL INIT( 50, 99999, 99999, 99999 ) /**/,
             12845    1          2 MPO(0:3) UBIN WORD UNAL INIT( 99999, 99999, 99999, 99999 ) /**/,
             12846    1          2 DPO(0:3) UBIN WORD UNAL INIT( 100, 99999, 99999, 99999 ) /**/,
             12847    1          2 MPDIS(0:3) UBIN WORD UNAL INIT( 99999, 99999, 99999, 99999 ) /**/,
             12848    1          2 DPDIS(0:3) UBIN WORD UNAL INIT( 99999, 99999, 99999, 99999 ) /**/,
             12849    1          2 MTDIS(0:3) UBIN WORD UNAL INIT( 99999, 99999, 99999, 99999 ) /**/,
             12850    1          2 DTDIS(0:3) UBIN WORD UNAL INIT( 2000, 2000, 9999, 2000 ) /**/,
             12851    1          2 MFPOOLS(0:3) UBIN BYTE UNAL INIT( 31, 31, 31, 31 ) /**/,
             12852    1          2 DFPOOLS(0:3) UBIN BYTE UNAL INIT( 10, 10, 10, 10 ) /**/,
             12853    1          2 MMPRIO(0:3) UBIN BYTE UNAL INIT( 7, 7, 7, 7 ) /**/,
             12854    1          2 DMPRIO(0:3) UBIN BYTE UNAL INIT( 7, 7, 7, 7 ) /**/,
             12855    1          2 *     CHAR(36)                          /* Peripheral */
             12856    1             INIT(' ')/**/,
             12857    1          2 HPSN CHAR(6) INIT('SYS') /**/,
             12858    1          2 * UBIN(18) UNAL INIT(0) /**/,
             12859                                                                 /*   Command processor   */
             12860    1          2 CPROC(0:3) ALIGNED,
             12861    1             3 NAME,
             12862    1                4 CNT UBIN BYTE UNAL INIT(4*0) /**/,
PL6.E3A0      #001=AS_SUPER_D File=AS_SUPER_D.:E05TSI                            TUE 07/29/97 10:59 Page:77
             12863    1                4 TEXT CHAR(31) UNAL INIT('IBEX'*0) /**/,
             12864                                                         /*   Last command processor   */
             12865    1          2 LASTCPROC(0:3) ALIGNED,
             12866    1             3 NAME,
             12867    1                4 CNT UBIN BYTE UNAL INIT(0*0) /**/,
             12868    1                4 TEXT CHAR(31) UNAL INIT(' '*0) /**/,
             12869                                                              /*   Privileges   */
             12870    1          2 PRIV (0:3) BIT(36) ALIGNED INIT('0'B*0) /**/,
             12871    1          2 PPRIV (0:3) BIT(36) ALIGNED INIT('0'B*0) /**/,
             12872                                                              /*   Batch   = 0 ,
             12873                                                                   ghost   = 1 ,
             12874                                                                   on-line = 2,
             12875                                                                   tp      = 3
             12876                                                                             */
             12877    1          2 QUAN(0:3) SBIN HALF UNAL INIT(0*0) /**/,
             12878    1          2 *(0:3) UBIN HALF UNAL INIT(0*0) /**/,
             12879    1          2 PRIOB(0:3) SBIN BYTE UNAL INIT(0*0) /**/,
             12880    1          2 MEXP SBIN INIT(-1) /**/,                  /* Expiration */
             12881    1          2 DEXP SBIN INIT(-1) /**/,                  /* Expiration */
             12882    1          2 FLAGS ALIGNED,
             12883    1             3 *  BIT(5) UNAL INIT('0'B) /**/,
             12884    1             3 STARSACC BIT(1) UNAL INIT('0'B) /**/,   /* *S accounting */
             12885    1             3 * BIT(30) UNAL INIT('0'B) /**/,
             12886    1          2 INSTUSE CHAR(16) INIT(' ') /**/,            /* Installation use */
             12887                                                              /*  Time  */
             12888    1          2 MTIME(0:3) UBIN WORD UNAL INIT( 59999400, 59999400, 59999400,59999400 )
             12888                   /**/,
             12889    1          2 DTIME(0:3) UBIN WORD UNAL INIT( 60000,59999400,59999400,59999400 ) /**/,
             12890                                                              /*  Memory  */
             12891    1          2 MMEM(0:3) UBIN HALF UNAL INIT( 511, 511, 511, 511 ) /**/,
             12892    1          2 DMEM(0:3) UBIN HALF UNAL INIT( 64, 256, 128, 256 ) /**/,
             12893    1          2 PSDOL(0:7),
             12894    1             3 PSDO_NAME CHAR(8) UNAL INIT( ' '*0 ) /**/,
             12895    1             3 BMAX UBIN HALF UNAL INIT( 0*0 ) /**/,
             12896    1             3 GMAX UBIN HALF UNAL INIT( 0*0 ) /**/,
             12897    1             3 OMAX UBIN HALF UNAL INIT( 0*0 ) /**/,
             12898    1             3 TMAX UBIN HALF UNAL INIT( 0*0 ) /**/,
PL6.E3A0      #001=AS_SUPER_D File=AS_SUPER_D.:E05TSI                            TUE 07/29/97 10:59 Page:78
             12899    1          2 TOT_TYPES UBIN HALF UNAL INIT( 2 )/**/ ,    /* Total res. Types */
             12900    1          2 RESL( 0:7 ) UNAL ,     /* Resources */
             12901    1             3 RNAME CHAR(2) UNAL INIT( 'MT', 'DP', ' '*0)/**/,
             12902    1             3 BMAX UBIN HALF UNAL INIT( 4, 4, 0*0 )/**/,
             12903    1             3 GMAX UBIN HALF UNAL INIT( 4, 4, 0*0 )/**/ ,
             12904    1             3 OMAX UBIN HALF UNAL INIT( 4, 4, 0*0 ) /**/,
             12905    1             3 TMAX UBIN HALF UNAL INIT( 4, 4, 0*0 ) /**/,
             12906    1          2 SETUP_PERM(0:3) BIT(1) UNAL INIT('0'B*0)/**/,
             12907    1          2 BANNER_PERM (0:9) BIT (1) UNAL INIT ('0'B*0)/**/,
             12908    1          2 PERM_BLOCK REDEF BANNER_PERM BIT (10),
             12909    1          2 SETUP_FORCE(0:3) BIT(1) UNAL INIT('0'B*0)/**/,
             12910                    /* This bit marks if the setup can be bypassed with the
             12911                       ns option during logon.
             12912                    */
             12913                                           /* Setup contains the index into the
             12914                                              pool of text, it is referenced
             12915                                              with the following text structure.
             12916                                              An index of
             12917                                              -1 implies that the setup command
             12918                                              for that mode does not exist.  */
             12919    1          2 SETUP(0:3) SBIN HALF UNAL INIT(-1*0)/**/,
             12920    1          2 BANNER (0:9) SBIN HALF UNAL INIT (-1*0)/**/,
             12921    1          2 SETUP_CHRA ALIGNED,
             12922    1             3 SIZE UBIN INIT (0) /**/,
             12923    1             3 TXT CHAR (1024) INIT (' ') /**/,
             12924    1             3 TXT_CHR (0:1023) REDEF TXT CHAR (1),
             12925    1             3 TXT_UBIN (0:1023) REDEF TXT UBIN (9) UNAL,
             12926                           /* At the third level- SIZE_ is the total size of
             12927                              the used area in the pool of setup and banner
             12928                              text items. SETUPMAX-SIZE_=free space remaining.
             12929                              Txt is the area containing setup and banner
             12930                              TXT_CHR and TXT_UBIN are ways of accessing the
             12931                              text for those commands.                     */
             12932    1          2 LAST_LOGON_TIME BIT(36) ALIGNED INIT('0'B) /**/,
             12933                           /* Uts of last successful logon, from slug. */
             12934    1          2 BAD_LOGON_CNT UBIN HALF UNAL INIT(0) /**/,
             12935                /* Number of failed logon attempts logged since the last
PL6.E3A0      #001=AS_SUPER_D File=AS_SUPER_D.:E05TSI                            TUE 07/29/97 10:59 Page:79
             12936                   system exit.                                           */
             12937    1          2 RFUH1 UBIN HALF UNAL INIT(0) /**/,
             12938                 /* Reserved for future use half word.  */
             12939    1          2 LOGINS   (0:3) ,
             12940    1             3 LAST_LOGON_TIME UBIN INIT (0*0) /**/,
             12941                           /* Uts of last successful logon, from slug. */
             12942    1             3 BAD_LOGON_CNT  UBIN  INIT (0*0) /**/,
             12943                 /* No. of failed logon attempts logged since the last
             12944                    system exit.  */
             12945    1          2  PASSWORD_CHANGE_TIME UBIN INIT (0) /**/,
             12946                 /* Uts of the last password change. Currently not used. */
             12947    1          2  MAXENQ(0:3) UBIN (18) UNAL INIT (0*0) /**/,
             12948                 /* Maximum number of enq/deq packets for this user. */
             12949    1          2  RFUW1  UBIN  INIT (0) /**/,
             12950                 /* Reserved for future use word. */
             12951    1          2  RFUW2  UBIN  INIT (0) /**/,
             12952    1          2  RFUW3  UBIN  INIT (0) /**/,
             12953    1          2  RFUW4  UBIN  INIT (0) /**/,
             12954    1          2  RFUW5  UBIN  INIT (0) /**/
             12955    1   ;
     1670    12957        %AS_USERS(STR_NAME=AS_USERS_CONSTANT, STCLASS=CONSTANT SYMDEF );
             12958        %LSET LISTSUB = '1'B;
             12959        %LSET LISTEXP = '1'B;
             12960        %LSET STR='CONSTANT SYMDEF        ';
             12961        %IF
             12963            '1'B;
             12964        %LSET INIT=INIT;
             12965        %ELSE;
             12967        %ENDIF;
             12968        /*
             12969        */
             12970    1   DCL 1 AS_USERS_CONSTANT CONSTANT SYMDEF,
             12971    1          2 ACCT CHAR(8) INIT(' ') /**/,
             12972    1          2 NAME CHAR(12) INIT(' ') /**/,
             12973    1          2 NAT_LANG CHAR(1) INIT(' ') /**/,            /* Native language */
             12974    1          2 STEPACCNT BIT(1) UNAL INIT('0'B) /**/,
             12975    1          2 BATOK BIT(1) UNAL INIT( '1'B ) /**/,
PL6.E3A0      #001=AS_SUPER_D File=AS_SUPER_D.:E05TSI                            TUE 07/29/97 10:59 Page:80
             12976    1          2 * BIT(7) UNAL INIT('0'B) /**/,
             12977    1          2 BATNUM SBIN HALF UNAL INIT(-1) /**/,
             12978    1          2 BUDGET,
             12979    1             3 MAXC SBIN INIT(-1) /**/, /* 'MCHARGES' for user */
             12980    1             3 ACCUM SBIN INIT(0) /**/, /*Charges accumulated by user*/
             12981    1             3 PMAXC SBIN INIT(-1) /**/, /* Proj. admin. record only;
             12982                                                             'MCHARGES for project */
             12983    1             3 PROJ_ALLOWED REDEF PMAXC SBIN, /* Default project record only;
             12984                                        maximum number of users allowed in this project
             12985                                        and all sub-projects. */
             12986    1             3 PACCUM SBIN INIT(0) /**/, /* Proj. admin. record only;
             12987                                                       charges accumulated by project */
             12988    1             3 PROJ_CREATED REDEF PACCUM SBIN, /* Default project record only;
             12989                                                  number of users created in project */
             12990    1             3 MACCT,
             12991    1                4 COUNT UBIN(9) UNAL INIT(4) /**/,
             12992    1                4 ACCT CHAR(8) UNAL INIT('NONE') /**/,
             12993    1                4 NAME CHAR(12) UNAL INIT(' ') /**/,
             12994    1             3 MACCT_ REDEF MACCT,
             12995    1                4 * UBIN BYTE UNAL,
             12996    1                4 TEXT CHAR(20) UNAL,
             12997    1             3 BKACC BIT(1) UNAL INIT('1'B) /**/,
             12998    1             3 BUDLIM BIT(1) UNAL INIT( '0'B ) /**/,
             12999    1             3 PCHARGES BIT(1) UNAL INIT( '1'B ) /**/,
             13000    1             3 ICHARGES BIT(1) UNAL INIT( '1'B ) /**/,
             13001    1             3 BLINDACCTNG BIT(1) UNAL INIT('0'B)/**/,
             13002    1             3 * BIT(4) INIT('0'B)/**/,
             13003    1             3 MAX_PROJECTS SBIN(18) UNAL INIT(0) /**/,
             13004                                          /* Proj. admin. record only;
             13005                                             maximum number of sub-projects allowed. */
             13006    1             3 SUB_PROJS REDEF MAX_PROJECTS SBIN(18) UNAL,
             13007                                          /* Default project record only;
             13008                                             number of sub-projects created. */
             13009    1          2 BILL(0:3) CHAR(6) UNAL INIT('1','1','1','1') /**/,
             13010    1          2 KEY(0:71) BIT(1) UNAL INIT('0'B*0) /**/,
             13011    1          2 *      CHAR(23) INIT(' ') /**/,
             13012    1          2 OUTPUTPRIO UBIN(9) UNAL INIT(7) /**/,
PL6.E3A0      #001=AS_SUPER_D File=AS_SUPER_D.:E05TSI                            TUE 07/29/97 10:59 Page:81
             13013                                                              /* Services */
             13014                                                              /*   Batch   = 0 ,
             13015                                                                   ghost   = 1 ,
             13016                                                                   on-line = 2,
             13017                                                                   tp      = 3
             13018                                                                               */
             13019    1          2 MLO(0:3) UBIN WORD UNAL INIT( 99999, 99999, 99999, 99999 ) /**/,
             13020    1          2 DLO(0:3) UBIN WORD UNAL INIT( 1000, 99999, 99999, 99999 ) /**/,
             13021    1          2 MDO(0:3) UBIN WORD UNAL INIT( 99999, 99999, 99999, 99999 ) /**/,
             13022    1          2 DDO(0:3) UBIN WORD UNAL INIT( 50, 99999, 99999, 99999 ) /**/,
             13023    1          2 MPO(0:3) UBIN WORD UNAL INIT( 99999, 99999, 99999, 99999 ) /**/,
             13024    1          2 DPO(0:3) UBIN WORD UNAL INIT( 100, 99999, 99999, 99999 ) /**/,
             13025    1          2 MPDIS(0:3) UBIN WORD UNAL INIT( 99999, 99999, 99999, 99999 ) /**/,
             13026    1          2 DPDIS(0:3) UBIN WORD UNAL INIT( 99999, 99999, 99999, 99999 ) /**/,
             13027    1          2 MTDIS(0:3) UBIN WORD UNAL INIT( 99999, 99999, 99999, 99999 ) /**/,
             13028    1          2 DTDIS(0:3) UBIN WORD UNAL INIT( 2000, 2000, 9999, 2000 ) /**/,
             13029    1          2 MFPOOLS(0:3) UBIN BYTE UNAL INIT( 31, 31, 31, 31 ) /**/,
             13030    1          2 DFPOOLS(0:3) UBIN BYTE UNAL INIT( 10, 10, 10, 10 ) /**/,
             13031    1          2 MMPRIO(0:3) UBIN BYTE UNAL INIT( 7, 7, 7, 7 ) /**/,
             13032    1          2 DMPRIO(0:3) UBIN BYTE UNAL INIT( 7, 7, 7, 7 ) /**/,
             13033    1          2 *     CHAR(36)                          /* Peripheral */
             13034    1             INIT(' ')/**/,
             13035    1          2 HPSN CHAR(6) INIT('SYS') /**/,
             13036    1          2 * UBIN(18) UNAL INIT(0) /**/,
             13037                                                                 /*   Command processor   */
             13038    1          2 CPROC(0:3) ALIGNED,
             13039    1             3 NAME,
             13040    1                4 CNT UBIN BYTE UNAL INIT(4*0) /**/,
             13041    1                4 TEXT CHAR(31) UNAL INIT('IBEX'*0) /**/,
             13042                                                         /*   Last command processor   */
             13043    1          2 LASTCPROC(0:3) ALIGNED,
             13044    1             3 NAME,
             13045    1                4 CNT UBIN BYTE UNAL INIT(0*0) /**/,
             13046    1                4 TEXT CHAR(31) UNAL INIT(' '*0) /**/,
             13047                                                              /*   Privileges   */
             13048    1          2 PRIV (0:3) BIT(36) ALIGNED INIT('0'B*0) /**/,
             13049    1          2 PPRIV (0:3) BIT(36) ALIGNED INIT('0'B*0) /**/,
PL6.E3A0      #001=AS_SUPER_D File=AS_SUPER_D.:E05TSI                            TUE 07/29/97 10:59 Page:82
             13050                                                              /*   Batch   = 0 ,
             13051                                                                   ghost   = 1 ,
             13052                                                                   on-line = 2,
             13053                                                                   tp      = 3
             13054                                                                             */
             13055    1          2 QUAN(0:3) SBIN HALF UNAL INIT(0*0) /**/,
             13056    1          2 *(0:3) UBIN HALF UNAL INIT(0*0) /**/,
             13057    1          2 PRIOB(0:3) SBIN BYTE UNAL INIT(0*0) /**/,
             13058    1          2 MEXP SBIN INIT(-1) /**/,                  /* Expiration */
             13059    1          2 DEXP SBIN INIT(-1) /**/,                  /* Expiration */
             13060    1          2 FLAGS ALIGNED,
             13061    1             3 *  BIT(5) UNAL INIT('0'B) /**/,
             13062    1             3 STARSACC BIT(1) UNAL INIT('0'B) /**/,   /* *S accounting */
             13063    1             3 * BIT(30) UNAL INIT('0'B) /**/,
             13064    1          2 INSTUSE CHAR(16) INIT(' ') /**/,            /* Installation use */
             13065                                                              /*  Time  */
             13066    1          2 MTIME(0:3) UBIN WORD UNAL INIT( 59999400, 59999400, 59999400,59999400 )
             13066                   /**/,
             13067    1          2 DTIME(0:3) UBIN WORD UNAL INIT( 60000,59999400,59999400,59999400 ) /**/,
             13068                                                              /*  Memory  */
             13069    1          2 MMEM(0:3) UBIN HALF UNAL INIT( 511, 511, 511, 511 ) /**/,
             13070    1          2 DMEM(0:3) UBIN HALF UNAL INIT( 64, 256, 128, 256 ) /**/,
             13071    1          2 PSDOL(0:7),
             13072    1             3 PSDO_NAME CHAR(8) UNAL INIT( ' '*0 ) /**/,
             13073    1             3 BMAX UBIN HALF UNAL INIT( 0*0 ) /**/,
             13074    1             3 GMAX UBIN HALF UNAL INIT( 0*0 ) /**/,
             13075    1             3 OMAX UBIN HALF UNAL INIT( 0*0 ) /**/,
             13076    1             3 TMAX UBIN HALF UNAL INIT( 0*0 ) /**/,
             13077    1          2 TOT_TYPES UBIN HALF UNAL INIT( 2 )/**/ ,    /* Total res. Types */
             13078    1          2 RESL( 0:7 ) UNAL ,     /* Resources */
             13079    1             3 RNAME CHAR(2) UNAL INIT( 'MT', 'DP', ' '*0)/**/,
             13080    1             3 BMAX UBIN HALF UNAL INIT( 4, 4, 0*0 )/**/,
             13081    1             3 GMAX UBIN HALF UNAL INIT( 4, 4, 0*0 )/**/ ,
             13082    1             3 OMAX UBIN HALF UNAL INIT( 4, 4, 0*0 ) /**/,
             13083    1             3 TMAX UBIN HALF UNAL INIT( 4, 4, 0*0 ) /**/,
             13084    1          2 SETUP_PERM(0:3) BIT(1) UNAL INIT('0'B*0)/**/,
             13085    1          2 BANNER_PERM (0:9) BIT (1) UNAL INIT ('0'B*0)/**/,
PL6.E3A0      #001=AS_SUPER_D File=AS_SUPER_D.:E05TSI                            TUE 07/29/97 10:59 Page:83
             13086    1          2 PERM_BLOCK REDEF BANNER_PERM BIT (10),
             13087    1          2 SETUP_FORCE(0:3) BIT(1) UNAL INIT('0'B*0)/**/,
             13088                    /* This bit marks if the setup can be bypassed with the
             13089                       ns option during logon.
             13090                    */
             13091                                           /* Setup contains the index into the
             13092                                              pool of text, it is referenced
             13093                                              with the following text structure.
             13094                                              An index of
             13095                                              -1 implies that the setup command
             13096                                              for that mode does not exist.  */
             13097    1          2 SETUP(0:3) SBIN HALF UNAL INIT(-1*0)/**/,
             13098    1          2 BANNER (0:9) SBIN HALF UNAL INIT (-1*0)/**/,
             13099    1          2 SETUP_CHRA ALIGNED,
             13100    1             3 SIZE UBIN INIT (0) /**/,
             13101    1             3 TXT CHAR (1024) INIT (' ') /**/,
             13102    1             3 TXT_CHR (0:1023) REDEF TXT CHAR (1),
             13103    1             3 TXT_UBIN (0:1023) REDEF TXT UBIN (9) UNAL,
             13104                           /* At the third level- SIZE_ is the total size of
             13105                              the used area in the pool of setup and banner
             13106                              text items. SETUPMAX-SIZE_=free space remaining.
             13107                              Txt is the area containing setup and banner
             13108                              TXT_CHR and TXT_UBIN are ways of accessing the
             13109                              text for those commands.                     */
             13110    1          2 LAST_LOGON_TIME BIT(36) ALIGNED INIT('0'B) /**/,
             13111                           /* Uts of last successful logon, from slug. */
             13112    1          2 BAD_LOGON_CNT UBIN HALF UNAL INIT(0) /**/,
             13113                /* Number of failed logon attempts logged since the last
             13114                   system exit.                                           */
             13115    1          2 RFUH1 UBIN HALF UNAL INIT(0) /**/,
             13116                 /* Reserved for future use half word.  */
             13117    1          2 LOGINS   (0:3) ,
             13118    1             3 LAST_LOGON_TIME UBIN INIT (0*0) /**/,
             13119                           /* Uts of last successful logon, from slug. */
             13120    1             3 BAD_LOGON_CNT  UBIN  INIT (0*0) /**/,
             13121                 /* No. of failed logon attempts logged since the last
             13122                    system exit.  */
PL6.E3A0      #001=AS_SUPER_D File=AS_SUPER_D.:E05TSI                            TUE 07/29/97 10:59 Page:84
             13123    1          2  PASSWORD_CHANGE_TIME UBIN INIT (0) /**/,
             13124                 /* Uts of the last password change. Currently not used. */
             13125    1          2  MAXENQ(0:3) UBIN (18) UNAL INIT (0*0) /**/,
             13126                 /* Maximum number of enq/deq packets for this user. */
             13127    1          2  RFUW1  UBIN  INIT (0) /**/,
             13128                 /* Reserved for future use word. */
             13129    1          2  RFUW2  UBIN  INIT (0) /**/,
             13130    1          2  RFUW3  UBIN  INIT (0) /**/,
             13131    1          2  RFUW4  UBIN  INIT (0) /**/,
             13132    1          2  RFUW5  UBIN  INIT (0) /**/
             13133    1   ;
     1671    13135        %KL_DREC( NAME=KL_DREC_CNT, PRO=' ', STCLASS=STATIC SYMDEF, LAST=";" );
             13136         %LSET LISTDIR='0'B;
             13148    1   DCL 1 KL_DREC_CNT STATIC SYMDEF ALIGNED,
             13153    1         2 ATYP UBIN BYTE UNAL INIT(1)/**/,
             13156    1         2 FLAGS,
             13159    1           3 RNME BIT(1) UNAL INIT('0'B)/**/,
             13163    1           3 GHOSTOK BIT(1) UNAL INIT('0'B)/**/,
             13166    1           3 OLOK BIT(1) INIT('1'B)/**/,
             13170    1           3 BATOK BIT(1) INIT('1'B)/**/,
             13174    1           3 GJOB BIT(1) INIT('0'B)/**/,
             13177    1           3 USETP BIT(1) INIT('0'B)/**/,
             13182    1           3 NOCGREJ BIT(1) INIT('0'B)/**/,
             13187    1           3 NOCGINF BIT(1) INIT('0'B)/**/,
             13190    1           3 TPOK BIT(1) INIT('0'B)/**/,
             13194    1           3 FEOK BIT(1) INIT('0'B)/**/,
             13197    1         2 COS UBIN(8)  UNAL INIT(0)/**/,
             13200    1         2 SUPER UBIN(9) UNAL INIT(0)/**/,
             13203    1         2 TWSN# CHAR(4) INIT('0000')/**/,
             13206    1         2 PASSWORD CHAR(8) INIT(' ')/**/,
             13210    1         2 ENCODPW REDEF PASSWORD BIT(72),
             13212    1         2 PNAME,
             13220    1           3 CNT UBIN BYTE UNAL INIT(0)/**/,
             13223    1           3 TXT CHAR(11) UNAL INIT(' ')/**/,
             13226    1         2 WOO CHAR(8) INIT('LOCAL')/**/,
             13229    1         2 RENAME CHAR(8) INIT('SYS')/**/,
             13230    1         2 HPS REDEF RENAME,
PL6.E3A0      #001=AS_SUPER_D File=AS_SUPER_D.:E05TSI                            TUE 07/29/97 10:59 Page:85
             13234    1           3 N CHAR(6) UNAL,
             13235    1           3 * CHAR(2) UNAL,
             13239    1         2 TNAME CHAR(8) INIT(' ')/**/,
             13243    1         2 SNAME CHAR(8) INIT('LOCAL')/**/,
             13246    1         2 NWINFO UBIN WORD INIT(0)/**/;
     1672    13248        %KL_DREC( NAME=KL_DREC, PRO=' ', LAST=",", STCLASS=STATIC SYMDEF );
             13249         %LSET LISTDIR='0'B;
             13261    1   DCL 1 KL_DREC STATIC SYMDEF ALIGNED,
             13266    1         2 ATYP UBIN BYTE UNAL INIT(1)/**/,
             13269    1         2 FLAGS,
             13272    1           3 RNME BIT(1) UNAL INIT('0'B)/**/,
             13276    1           3 GHOSTOK BIT(1) UNAL INIT('0'B)/**/,
             13279    1           3 OLOK BIT(1) INIT('1'B)/**/,
             13283    1           3 BATOK BIT(1) INIT('1'B)/**/,
             13287    1           3 GJOB BIT(1) INIT('0'B)/**/,
             13290    1           3 USETP BIT(1) INIT('0'B)/**/,
             13295    1           3 NOCGREJ BIT(1) INIT('0'B)/**/,
             13300    1           3 NOCGINF BIT(1) INIT('0'B)/**/,
             13303    1           3 TPOK BIT(1) INIT('0'B)/**/,
             13307    1           3 FEOK BIT(1) INIT('0'B)/**/,
             13310    1         2 COS UBIN(8)  UNAL INIT(0)/**/,
             13313    1         2 SUPER UBIN(9) UNAL INIT(0)/**/,
             13316    1         2 TWSN# CHAR(4) INIT('0000')/**/,
             13319    1         2 PASSWORD CHAR(8) INIT(' ')/**/,
             13323    1         2 ENCODPW REDEF PASSWORD BIT(72),
             13325    1         2 PNAME,
             13333    1           3 CNT UBIN BYTE UNAL INIT(0)/**/,
             13336    1           3 TXT CHAR(11) UNAL INIT(' ')/**/,
             13339    1         2 WOO CHAR(8) INIT('LOCAL')/**/,
             13342    1         2 RENAME CHAR(8) INIT('SYS')/**/,
             13343    1         2 HPS REDEF RENAME,
             13347    1           3 N CHAR(6) UNAL,
             13348    1           3 * CHAR(2) UNAL,
             13352    1         2 TNAME CHAR(8) INIT(' ')/**/,
             13356    1         2 SNAME CHAR(8) INIT('LOCAL')/**/,
             13359    1         2 NWINFO UBIN WORD INIT(0)/**/,
     1673    13361        %KL_FEBLK( NAME=KL_DREC_FEBLK, LVL=2, RCNT=31, STCLASS=STATIC SYMDEF );
PL6.E3A0      #001=AS_SUPER_D File=AS_SUPER_D.:E05TSI                            TUE 07/29/97 10:59 Page:86
             13362         %LSET LISTDIR='0'B;
             13377    1         2 KL_DREC_FEBLK,
             13379    1           3 BILL(0:3) CHAR(6) UNAL INIT('1','1','1','1')/**/,
             13380    1           3 DBACCN CHAR(8) UNAL INIT(' ')/**/,
             13381    1           3 MINTS(0:3) UBIN BYTE UNAL INIT(0*0)/**/,
             13382    1           3 MFPRG UBIN BYTE UNAL INIT(255)/**/,
             13383    1           3 MACCTMEM UBIN HALF UNAL INIT(9999)/**/,
             13384    1           3 FLAGS,
             13385    1           4 STEPACCT BIT(1) INIT('0'B)/**/,
             13386    1           4 * BIT(8) INIT('0'B*0)/**/,
             13387    1           3 PRIV(0:3) BIT(36) ALIGNED INIT('0'B*0)/**/,
             13388    1           3 PPRIV(0:3) BIT(36) ALIGNED INIT('0'B*0)/**/,
             13389    1           3 MTIME(0:3) SBIN WORD UNAL INIT(59999400, 59999400, 59999400, 59999400)/**/
             13389                    ,
             13390    1           3 MMEM(0:3) UBIN HALF UNAL INIT(128,128,128,128)/**/,
             13391    1           3 CXTMEM(0:7) ,
             13392    1           4 UMAX UBIN HALF UNAL INIT(0*0)/**/,
             13393    1           4 CMAX UBIN HALF UNAL INIT(0*0)/**/,
             13394    1           4 HMAX UBIN HALF UNAL INIT(0*0)/**/,
             13395    1           4 GMAX UBIN HALF UNAL INIT(0*0)/**/,
             13396    1           3 PSDOL(0:7) ,
             13397    1           4 PSDO_NAME CHAR(8) UNAL INIT(' '*0)/**/,
             13398    1           4 UMAX UBIN HALF UNAL INIT(0*0)/**/,
             13399    1           4 CMAX UBIN HALF UNAL INIT(0*0)/**/,
             13400    1           4 HMAX UBIN HALF UNAL INIT(0*0)/**/,
             13401    1           4 GMAX UBIN HALF UNAL INIT(0*0)/**/,
             13402    1           3 RESL_CNT UBIN HALF UNAL INIT(31)/**/,
             13403    1           3 RESL(0:31),
             13404    1           4 RNAME CHAR(2) UNAL INIT(' '*0)/**/,
             13405    1           4 UMAX UBIN HALF UNAL INIT(0*0)/**/,
             13406    1           4 CMAX UBIN HALF UNAL INIT(0*0)/**/,
             13407    1           4 HMAX UBIN HALF UNAL INIT(0*0)/**/,
             13408    1           4 GMAX UBIN HALF UNAL INIT(0*0)/**/;
     1674    13410        %KL_DREC( NAME=KL_DFLT, PRO=' ', LAST=",", STCLASS=STATIC SYMDEF );
             13411         %LSET LISTDIR='0'B;
             13423    1   DCL 1 KL_DFLT STATIC SYMDEF ALIGNED,
             13428    1         2 ATYP UBIN BYTE UNAL INIT(1)/**/,
PL6.E3A0      #001=AS_SUPER_D File=AS_SUPER_D.:E05TSI                            TUE 07/29/97 10:59 Page:87
             13431    1         2 FLAGS,
             13434    1           3 RNME BIT(1) UNAL INIT('0'B)/**/,
             13438    1           3 GHOSTOK BIT(1) UNAL INIT('0'B)/**/,
             13441    1           3 OLOK BIT(1) INIT('1'B)/**/,
             13445    1           3 BATOK BIT(1) INIT('1'B)/**/,
             13449    1           3 GJOB BIT(1) INIT('0'B)/**/,
             13452    1           3 USETP BIT(1) INIT('0'B)/**/,
             13457    1           3 NOCGREJ BIT(1) INIT('0'B)/**/,
             13462    1           3 NOCGINF BIT(1) INIT('0'B)/**/,
             13465    1           3 TPOK BIT(1) INIT('0'B)/**/,
             13469    1           3 FEOK BIT(1) INIT('0'B)/**/,
             13472    1         2 COS UBIN(8)  UNAL INIT(0)/**/,
             13475    1         2 SUPER UBIN(9) UNAL INIT(0)/**/,
             13478    1         2 TWSN# CHAR(4) INIT('0000')/**/,
             13481    1         2 PASSWORD CHAR(8) INIT(' ')/**/,
             13485    1         2 ENCODPW REDEF PASSWORD BIT(72),
             13487    1         2 PNAME,
             13495    1           3 CNT UBIN BYTE UNAL INIT(0)/**/,
             13498    1           3 TXT CHAR(11) UNAL INIT(' ')/**/,
             13501    1         2 WOO CHAR(8) INIT('LOCAL')/**/,
             13504    1         2 RENAME CHAR(8) INIT('SYS')/**/,
             13505    1         2 HPS REDEF RENAME,
             13509    1           3 N CHAR(6) UNAL,
             13510    1           3 * CHAR(2) UNAL,
             13514    1         2 TNAME CHAR(8) INIT(' ')/**/,
             13518    1         2 SNAME CHAR(8) INIT('LOCAL')/**/,
             13521    1         2 NWINFO UBIN WORD INIT(0)/**/,
     1675    13523        %KL_FEBLK( NAME=KL_DFLT_FEBLK, LVL=2, RCNT=31, STCLASS=STATIC SYMDEF );
             13524         %LSET LISTDIR='0'B;
             13539    1         2 KL_DFLT_FEBLK,
             13541    1           3 BILL(0:3) CHAR(6) UNAL INIT('1','1','1','1')/**/,
             13542    1           3 DBACCN CHAR(8) UNAL INIT(' ')/**/,
             13543    1           3 MINTS(0:3) UBIN BYTE UNAL INIT(0*0)/**/,
             13544    1           3 MFPRG UBIN BYTE UNAL INIT(255)/**/,
             13545    1           3 MACCTMEM UBIN HALF UNAL INIT(9999)/**/,
             13546    1           3 FLAGS,
             13547    1           4 STEPACCT BIT(1) INIT('0'B)/**/,
PL6.E3A0      #001=AS_SUPER_D File=AS_SUPER_D.:E05TSI                            TUE 07/29/97 10:59 Page:88
             13548    1           4 * BIT(8) INIT('0'B*0)/**/,
             13549    1           3 PRIV(0:3) BIT(36) ALIGNED INIT('0'B*0)/**/,
             13550    1           3 PPRIV(0:3) BIT(36) ALIGNED INIT('0'B*0)/**/,
             13551    1           3 MTIME(0:3) SBIN WORD UNAL INIT(59999400, 59999400, 59999400, 59999400)/**/
             13551                    ,
             13552    1           3 MMEM(0:3) UBIN HALF UNAL INIT(128,128,128,128)/**/,
             13553    1           3 CXTMEM(0:7) ,
             13554    1           4 UMAX UBIN HALF UNAL INIT(0*0)/**/,
             13555    1           4 CMAX UBIN HALF UNAL INIT(0*0)/**/,
             13556    1           4 HMAX UBIN HALF UNAL INIT(0*0)/**/,
             13557    1           4 GMAX UBIN HALF UNAL INIT(0*0)/**/,
             13558    1           3 PSDOL(0:7) ,
             13559    1           4 PSDO_NAME CHAR(8) UNAL INIT(' '*0)/**/,
             13560    1           4 UMAX UBIN HALF UNAL INIT(0*0)/**/,
             13561    1           4 CMAX UBIN HALF UNAL INIT(0*0)/**/,
             13562    1           4 HMAX UBIN HALF UNAL INIT(0*0)/**/,
             13563    1           4 GMAX UBIN HALF UNAL INIT(0*0)/**/,
             13564    1           3 RESL_CNT UBIN HALF UNAL INIT(31)/**/,
             13565    1           3 RESL(0:31),
             13566    1           4 RNAME CHAR(2) UNAL INIT(' '*0)/**/,
             13567    1           4 UMAX UBIN HALF UNAL INIT(0*0)/**/,
             13568    1           4 CMAX UBIN HALF UNAL INIT(0*0)/**/,
             13569    1           4 HMAX UBIN HALF UNAL INIT(0*0)/**/,
             13570    1           4 GMAX UBIN HALF UNAL INIT(0*0)/**/;
     1676    13572        %KL_DREC( NAME=AS_DEFAULT_DREC, PRO=' ', LAST=",", STCLASS=STATIC SYMDEF );
             13573         %LSET LISTDIR='0'B;
             13585    1   DCL 1 AS_DEFAULT_DREC STATIC SYMDEF ALIGNED,
             13590    1         2 ATYP UBIN BYTE UNAL INIT(1)/**/,
             13593    1         2 FLAGS,
             13596    1           3 RNME BIT(1) UNAL INIT('0'B)/**/,
             13600    1           3 GHOSTOK BIT(1) UNAL INIT('0'B)/**/,
             13603    1           3 OLOK BIT(1) INIT('1'B)/**/,
             13607    1           3 BATOK BIT(1) INIT('1'B)/**/,
             13611    1           3 GJOB BIT(1) INIT('0'B)/**/,
             13614    1           3 USETP BIT(1) INIT('0'B)/**/,
             13619    1           3 NOCGREJ BIT(1) INIT('0'B)/**/,
             13624    1           3 NOCGINF BIT(1) INIT('0'B)/**/,
PL6.E3A0      #001=AS_SUPER_D File=AS_SUPER_D.:E05TSI                            TUE 07/29/97 10:59 Page:89
             13627    1           3 TPOK BIT(1) INIT('0'B)/**/,
             13631    1           3 FEOK BIT(1) INIT('0'B)/**/,
             13634    1         2 COS UBIN(8)  UNAL INIT(0)/**/,
             13637    1         2 SUPER UBIN(9) UNAL INIT(0)/**/,
             13640    1         2 TWSN# CHAR(4) INIT('0000')/**/,
             13643    1         2 PASSWORD CHAR(8) INIT(' ')/**/,
             13647    1         2 ENCODPW REDEF PASSWORD BIT(72),
             13649    1         2 PNAME,
             13657    1           3 CNT UBIN BYTE UNAL INIT(0)/**/,
             13660    1           3 TXT CHAR(11) UNAL INIT(' ')/**/,
             13663    1         2 WOO CHAR(8) INIT('LOCAL')/**/,
             13666    1         2 RENAME CHAR(8) INIT('SYS')/**/,
             13667    1         2 HPS REDEF RENAME,
             13671    1           3 N CHAR(6) UNAL,
             13672    1           3 * CHAR(2) UNAL,
             13676    1         2 TNAME CHAR(8) INIT(' ')/**/,
             13680    1         2 SNAME CHAR(8) INIT('LOCAL')/**/,
             13683    1         2 NWINFO UBIN WORD INIT(0)/**/,
     1677    13685        %KL_FEBLK( NAME=AS_DEFAULT_DREC_FEBLK, LVL=2, RCNT=31, STCLASS=STATIC SYMDEF );
             13686         %LSET LISTDIR='0'B;
             13701    1         2 AS_DEFAULT_DREC_FEBLK,
             13703    1           3 BILL(0:3) CHAR(6) UNAL INIT('1','1','1','1')/**/,
             13704    1           3 DBACCN CHAR(8) UNAL INIT(' ')/**/,
             13705    1           3 MINTS(0:3) UBIN BYTE UNAL INIT(0*0)/**/,
             13706    1           3 MFPRG UBIN BYTE UNAL INIT(255)/**/,
             13707    1           3 MACCTMEM UBIN HALF UNAL INIT(9999)/**/,
             13708    1           3 FLAGS,
             13709    1           4 STEPACCT BIT(1) INIT('0'B)/**/,
             13710    1           4 * BIT(8) INIT('0'B*0)/**/,
             13711    1           3 PRIV(0:3) BIT(36) ALIGNED INIT('0'B*0)/**/,
             13712    1           3 PPRIV(0:3) BIT(36) ALIGNED INIT('0'B*0)/**/,
             13713    1           3 MTIME(0:3) SBIN WORD UNAL INIT(59999400, 59999400, 59999400, 59999400)/**/
             13713                    ,
             13714    1           3 MMEM(0:3) UBIN HALF UNAL INIT(128,128,128,128)/**/,
             13715    1           3 CXTMEM(0:7) ,
             13716    1           4 UMAX UBIN HALF UNAL INIT(0*0)/**/,
             13717    1           4 CMAX UBIN HALF UNAL INIT(0*0)/**/,
PL6.E3A0      #001=AS_SUPER_D File=AS_SUPER_D.:E05TSI                            TUE 07/29/97 10:59 Page:90
             13718    1           4 HMAX UBIN HALF UNAL INIT(0*0)/**/,
             13719    1           4 GMAX UBIN HALF UNAL INIT(0*0)/**/,
             13720    1           3 PSDOL(0:7) ,
             13721    1           4 PSDO_NAME CHAR(8) UNAL INIT(' '*0)/**/,
             13722    1           4 UMAX UBIN HALF UNAL INIT(0*0)/**/,
             13723    1           4 CMAX UBIN HALF UNAL INIT(0*0)/**/,
             13724    1           4 HMAX UBIN HALF UNAL INIT(0*0)/**/,
             13725    1           4 GMAX UBIN HALF UNAL INIT(0*0)/**/,
             13726    1           3 RESL_CNT UBIN HALF UNAL INIT(31)/**/,
             13727    1           3 RESL(0:31),
             13728    1           4 RNAME CHAR(2) UNAL INIT(' '*0)/**/,
             13729    1           4 UMAX UBIN HALF UNAL INIT(0*0)/**/,
             13730    1           4 CMAX UBIN HALF UNAL INIT(0*0)/**/,
             13731    1           4 HMAX UBIN HALF UNAL INIT(0*0)/**/,
             13732    1           4 GMAX UBIN HALF UNAL INIT(0*0)/**/;
     1678    13734        %KL_DREC( NAME=AS_PROJ_ADMIN_DREC, PRO=' ', LAST=",", STCLASS=STATIC SYMDEF );
             13735         %LSET LISTDIR='0'B;
             13747    1   DCL 1 AS_PROJ_ADMIN_DREC STATIC SYMDEF ALIGNED,
             13752    1         2 ATYP UBIN BYTE UNAL INIT(1)/**/,
             13755    1         2 FLAGS,
             13758    1           3 RNME BIT(1) UNAL INIT('0'B)/**/,
             13762    1           3 GHOSTOK BIT(1) UNAL INIT('0'B)/**/,
             13765    1           3 OLOK BIT(1) INIT('1'B)/**/,
             13769    1           3 BATOK BIT(1) INIT('1'B)/**/,
             13773    1           3 GJOB BIT(1) INIT('0'B)/**/,
             13776    1           3 USETP BIT(1) INIT('0'B)/**/,
             13781    1           3 NOCGREJ BIT(1) INIT('0'B)/**/,
             13786    1           3 NOCGINF BIT(1) INIT('0'B)/**/,
             13789    1           3 TPOK BIT(1) INIT('0'B)/**/,
             13793    1           3 FEOK BIT(1) INIT('0'B)/**/,
             13796    1         2 COS UBIN(8)  UNAL INIT(0)/**/,
             13799    1         2 SUPER UBIN(9) UNAL INIT(0)/**/,
             13802    1         2 TWSN# CHAR(4) INIT('0000')/**/,
             13805    1         2 PASSWORD CHAR(8) INIT(' ')/**/,
             13809    1         2 ENCODPW REDEF PASSWORD BIT(72),
             13811    1         2 PNAME,
             13819    1           3 CNT UBIN BYTE UNAL INIT(0)/**/,
PL6.E3A0      #001=AS_SUPER_D File=AS_SUPER_D.:E05TSI                            TUE 07/29/97 10:59 Page:91
             13822    1           3 TXT CHAR(11) UNAL INIT(' ')/**/,
             13825    1         2 WOO CHAR(8) INIT('LOCAL')/**/,
             13828    1         2 RENAME CHAR(8) INIT('SYS')/**/,
             13829    1         2 HPS REDEF RENAME,
             13833    1           3 N CHAR(6) UNAL,
             13834    1           3 * CHAR(2) UNAL,
             13838    1         2 TNAME CHAR(8) INIT(' ')/**/,
             13842    1         2 SNAME CHAR(8) INIT('LOCAL')/**/,
             13845    1         2 NWINFO UBIN WORD INIT(0)/**/,
     1679    13847        %KL_FEBLK( NAME=AS_PROJ_ADMIN_DREC_FEBLK, LVL=2, RCNT=31, STCLASS=STATIC SYMDEF );
             13848         %LSET LISTDIR='0'B;
             13863    1         2 AS_PROJ_ADMIN_DREC_FEBLK,
             13865    1           3 BILL(0:3) CHAR(6) UNAL INIT('1','1','1','1')/**/,
             13866    1           3 DBACCN CHAR(8) UNAL INIT(' ')/**/,
             13867    1           3 MINTS(0:3) UBIN BYTE UNAL INIT(0*0)/**/,
             13868    1           3 MFPRG UBIN BYTE UNAL INIT(255)/**/,
             13869    1           3 MACCTMEM UBIN HALF UNAL INIT(9999)/**/,
             13870    1           3 FLAGS,
             13871    1           4 STEPACCT BIT(1) INIT('0'B)/**/,
             13872    1           4 * BIT(8) INIT('0'B*0)/**/,
             13873    1           3 PRIV(0:3) BIT(36) ALIGNED INIT('0'B*0)/**/,
             13874    1           3 PPRIV(0:3) BIT(36) ALIGNED INIT('0'B*0)/**/,
             13875    1           3 MTIME(0:3) SBIN WORD UNAL INIT(59999400, 59999400, 59999400, 59999400)/**/
             13875                    ,
             13876    1           3 MMEM(0:3) UBIN HALF UNAL INIT(128,128,128,128)/**/,
             13877    1           3 CXTMEM(0:7) ,
             13878    1           4 UMAX UBIN HALF UNAL INIT(0*0)/**/,
             13879    1           4 CMAX UBIN HALF UNAL INIT(0*0)/**/,
             13880    1           4 HMAX UBIN HALF UNAL INIT(0*0)/**/,
             13881    1           4 GMAX UBIN HALF UNAL INIT(0*0)/**/,
             13882    1           3 PSDOL(0:7) ,
             13883    1           4 PSDO_NAME CHAR(8) UNAL INIT(' '*0)/**/,
             13884    1           4 UMAX UBIN HALF UNAL INIT(0*0)/**/,
             13885    1           4 CMAX UBIN HALF UNAL INIT(0*0)/**/,
             13886    1           4 HMAX UBIN HALF UNAL INIT(0*0)/**/,
             13887    1           4 GMAX UBIN HALF UNAL INIT(0*0)/**/,
             13888    1           3 RESL_CNT UBIN HALF UNAL INIT(31)/**/,
PL6.E3A0      #001=AS_SUPER_D File=AS_SUPER_D.:E05TSI                            TUE 07/29/97 10:59 Page:92
             13889    1           3 RESL(0:31),
             13890    1           4 RNAME CHAR(2) UNAL INIT(' '*0)/**/,
             13891    1           4 UMAX UBIN HALF UNAL INIT(0*0)/**/,
             13892    1           4 CMAX UBIN HALF UNAL INIT(0*0)/**/,
             13893    1           4 HMAX UBIN HALF UNAL INIT(0*0)/**/,
             13894    1           4 GMAX UBIN HALF UNAL INIT(0*0)/**/;
     1680    13896        %KL_DREC( NAME=AS_PROJECT_DREC, PRO=' ', LAST=",", STCLASS=STATIC SYMDEF );
             13897         %LSET LISTDIR='0'B;
             13909    1   DCL 1 AS_PROJECT_DREC STATIC SYMDEF ALIGNED,
             13914    1         2 ATYP UBIN BYTE UNAL INIT(1)/**/,
             13917    1         2 FLAGS,
             13920    1           3 RNME BIT(1) UNAL INIT('0'B)/**/,
             13924    1           3 GHOSTOK BIT(1) UNAL INIT('0'B)/**/,
             13927    1           3 OLOK BIT(1) INIT('1'B)/**/,
             13931    1           3 BATOK BIT(1) INIT('1'B)/**/,
             13935    1           3 GJOB BIT(1) INIT('0'B)/**/,
             13938    1           3 USETP BIT(1) INIT('0'B)/**/,
             13943    1           3 NOCGREJ BIT(1) INIT('0'B)/**/,
             13948    1           3 NOCGINF BIT(1) INIT('0'B)/**/,
             13951    1           3 TPOK BIT(1) INIT('0'B)/**/,
             13955    1           3 FEOK BIT(1) INIT('0'B)/**/,
             13958    1         2 COS UBIN(8)  UNAL INIT(0)/**/,
             13961    1         2 SUPER UBIN(9) UNAL INIT(0)/**/,
             13964    1         2 TWSN# CHAR(4) INIT('0000')/**/,
             13967    1         2 PASSWORD CHAR(8) INIT(' ')/**/,
             13971    1         2 ENCODPW REDEF PASSWORD BIT(72),
             13973    1         2 PNAME,
             13981    1           3 CNT UBIN BYTE UNAL INIT(0)/**/,
             13984    1           3 TXT CHAR(11) UNAL INIT(' ')/**/,
             13987    1         2 WOO CHAR(8) INIT('LOCAL')/**/,
             13990    1         2 RENAME CHAR(8) INIT('SYS')/**/,
             13991    1         2 HPS REDEF RENAME,
             13995    1           3 N CHAR(6) UNAL,
             13996    1           3 * CHAR(2) UNAL,
             14000    1         2 TNAME CHAR(8) INIT(' ')/**/,
             14004    1         2 SNAME CHAR(8) INIT('LOCAL')/**/,
             14007    1         2 NWINFO UBIN WORD INIT(0)/**/,
PL6.E3A0      #001=AS_SUPER_D File=AS_SUPER_D.:E05TSI                            TUE 07/29/97 10:59 Page:93
     1681    14009        %KL_FEBLK( NAME=AS_PROJECT_DREC_FEBLK, LVL=2, RCNT=31, STCLASS=STATIC SYMDEF );
             14010         %LSET LISTDIR='0'B;
             14025    1         2 AS_PROJECT_DREC_FEBLK,
             14027    1           3 BILL(0:3) CHAR(6) UNAL INIT('1','1','1','1')/**/,
             14028    1           3 DBACCN CHAR(8) UNAL INIT(' ')/**/,
             14029    1           3 MINTS(0:3) UBIN BYTE UNAL INIT(0*0)/**/,
             14030    1           3 MFPRG UBIN BYTE UNAL INIT(255)/**/,
             14031    1           3 MACCTMEM UBIN HALF UNAL INIT(9999)/**/,
             14032    1           3 FLAGS,
             14033    1           4 STEPACCT BIT(1) INIT('0'B)/**/,
             14034    1           4 * BIT(8) INIT('0'B*0)/**/,
             14035    1           3 PRIV(0:3) BIT(36) ALIGNED INIT('0'B*0)/**/,
             14036    1           3 PPRIV(0:3) BIT(36) ALIGNED INIT('0'B*0)/**/,
             14037    1           3 MTIME(0:3) SBIN WORD UNAL INIT(59999400, 59999400, 59999400, 59999400)/**/
             14037                    ,
             14038    1           3 MMEM(0:3) UBIN HALF UNAL INIT(128,128,128,128)/**/,
             14039    1           3 CXTMEM(0:7) ,
             14040    1           4 UMAX UBIN HALF UNAL INIT(0*0)/**/,
             14041    1           4 CMAX UBIN HALF UNAL INIT(0*0)/**/,
             14042    1           4 HMAX UBIN HALF UNAL INIT(0*0)/**/,
             14043    1           4 GMAX UBIN HALF UNAL INIT(0*0)/**/,
             14044    1           3 PSDOL(0:7) ,
             14045    1           4 PSDO_NAME CHAR(8) UNAL INIT(' '*0)/**/,
             14046    1           4 UMAX UBIN HALF UNAL INIT(0*0)/**/,
             14047    1           4 CMAX UBIN HALF UNAL INIT(0*0)/**/,
             14048    1           4 HMAX UBIN HALF UNAL INIT(0*0)/**/,
             14049    1           4 GMAX UBIN HALF UNAL INIT(0*0)/**/,
             14050    1           3 RESL_CNT UBIN HALF UNAL INIT(31)/**/,
             14051    1           3 RESL(0:31),
             14052    1           4 RNAME CHAR(2) UNAL INIT(' '*0)/**/,
             14053    1           4 UMAX UBIN HALF UNAL INIT(0*0)/**/,
             14054    1           4 CMAX UBIN HALF UNAL INIT(0*0)/**/,
             14055    1           4 HMAX UBIN HALF UNAL INIT(0*0)/**/,
             14056    1           4 GMAX UBIN HALF UNAL INIT(0*0)/**/;
     1682    14058        %KL_DREC( NAME=AS_PROJECT_DFLT_DREC, PRO=' ', LAST=",", STCLASS=STATIC SYMDEF );
             14059         %LSET LISTDIR='0'B;
             14071    1   DCL 1 AS_PROJECT_DFLT_DREC STATIC SYMDEF ALIGNED,
PL6.E3A0      #001=AS_SUPER_D File=AS_SUPER_D.:E05TSI                            TUE 07/29/97 10:59 Page:94
             14076    1         2 ATYP UBIN BYTE UNAL INIT(1)/**/,
             14079    1         2 FLAGS,
             14082    1           3 RNME BIT(1) UNAL INIT('0'B)/**/,
             14086    1           3 GHOSTOK BIT(1) UNAL INIT('0'B)/**/,
             14089    1           3 OLOK BIT(1) INIT('1'B)/**/,
             14093    1           3 BATOK BIT(1) INIT('1'B)/**/,
             14097    1           3 GJOB BIT(1) INIT('0'B)/**/,
             14100    1           3 USETP BIT(1) INIT('0'B)/**/,
             14105    1           3 NOCGREJ BIT(1) INIT('0'B)/**/,
             14110    1           3 NOCGINF BIT(1) INIT('0'B)/**/,
             14113    1           3 TPOK BIT(1) INIT('0'B)/**/,
             14117    1           3 FEOK BIT(1) INIT('0'B)/**/,
             14120    1         2 COS UBIN(8)  UNAL INIT(0)/**/,
             14123    1         2 SUPER UBIN(9) UNAL INIT(0)/**/,
             14126    1         2 TWSN# CHAR(4) INIT('0000')/**/,
             14129    1         2 PASSWORD CHAR(8) INIT(' ')/**/,
             14133    1         2 ENCODPW REDEF PASSWORD BIT(72),
             14135    1         2 PNAME,
             14143    1           3 CNT UBIN BYTE UNAL INIT(0)/**/,
             14146    1           3 TXT CHAR(11) UNAL INIT(' ')/**/,
             14149    1         2 WOO CHAR(8) INIT('LOCAL')/**/,
             14152    1         2 RENAME CHAR(8) INIT('SYS')/**/,
             14153    1         2 HPS REDEF RENAME,
             14157    1           3 N CHAR(6) UNAL,
             14158    1           3 * CHAR(2) UNAL,
             14162    1         2 TNAME CHAR(8) INIT(' ')/**/,
             14166    1         2 SNAME CHAR(8) INIT('LOCAL')/**/,
             14169    1         2 NWINFO UBIN WORD INIT(0)/**/,
     1683    14171        %KL_FEBLK( NAME=AS_PROJECT_DFLT_DREC_FEBLK, LVL=2, RCNT=31, STCLASS=STATIC SYMDEF );
             14172         %LSET LISTDIR='0'B;
             14187    1         2 AS_PROJECT_DFLT_DREC_FEBLK,
             14189    1           3 BILL(0:3) CHAR(6) UNAL INIT('1','1','1','1')/**/,
             14190    1           3 DBACCN CHAR(8) UNAL INIT(' ')/**/,
             14191    1           3 MINTS(0:3) UBIN BYTE UNAL INIT(0*0)/**/,
             14192    1           3 MFPRG UBIN BYTE UNAL INIT(255)/**/,
             14193    1           3 MACCTMEM UBIN HALF UNAL INIT(9999)/**/,
             14194    1           3 FLAGS,
PL6.E3A0      #001=AS_SUPER_D File=AS_SUPER_D.:E05TSI                            TUE 07/29/97 10:59 Page:95
             14195    1           4 STEPACCT BIT(1) INIT('0'B)/**/,
             14196    1           4 * BIT(8) INIT('0'B*0)/**/,
             14197    1           3 PRIV(0:3) BIT(36) ALIGNED INIT('0'B*0)/**/,
             14198    1           3 PPRIV(0:3) BIT(36) ALIGNED INIT('0'B*0)/**/,
             14199    1           3 MTIME(0:3) SBIN WORD UNAL INIT(59999400, 59999400, 59999400, 59999400)/**/
             14199                    ,
             14200    1           3 MMEM(0:3) UBIN HALF UNAL INIT(128,128,128,128)/**/,
             14201    1           3 CXTMEM(0:7) ,
             14202    1           4 UMAX UBIN HALF UNAL INIT(0*0)/**/,
             14203    1           4 CMAX UBIN HALF UNAL INIT(0*0)/**/,
             14204    1           4 HMAX UBIN HALF UNAL INIT(0*0)/**/,
             14205    1           4 GMAX UBIN HALF UNAL INIT(0*0)/**/,
             14206    1           3 PSDOL(0:7) ,
             14207    1           4 PSDO_NAME CHAR(8) UNAL INIT(' '*0)/**/,
             14208    1           4 UMAX UBIN HALF UNAL INIT(0*0)/**/,
             14209    1           4 CMAX UBIN HALF UNAL INIT(0*0)/**/,
             14210    1           4 HMAX UBIN HALF UNAL INIT(0*0)/**/,
             14211    1           4 GMAX UBIN HALF UNAL INIT(0*0)/**/,
             14212    1           3 RESL_CNT UBIN HALF UNAL INIT(31)/**/,
             14213    1           3 RESL(0:31),
             14214    1           4 RNAME CHAR(2) UNAL INIT(' '*0)/**/,
             14215    1           4 UMAX UBIN HALF UNAL INIT(0*0)/**/,
             14216    1           4 CMAX UBIN HALF UNAL INIT(0*0)/**/,
             14217    1           4 HMAX UBIN HALF UNAL INIT(0*0)/**/,
             14218    1           4 GMAX UBIN HALF UNAL INIT(0*0)/**/;
     1684    14220        %KL_DREC( NAME=KL_DEFAULT, PRO=' ', NWI=100, LAST=",", STCLASS=CONSTANT SYMDEF );
             14221         %LSET LISTDIR='0'B;
             14233    1   DCL 1 KL_DEFAULT CONSTANT SYMDEF ALIGNED,
             14238    1         2 ATYP UBIN BYTE UNAL INIT(1)/**/,
             14241    1         2 FLAGS,
             14244    1           3 RNME BIT(1) UNAL INIT('0'B)/**/,
             14248    1           3 GHOSTOK BIT(1) UNAL INIT('0'B)/**/,
             14251    1           3 OLOK BIT(1) INIT('1'B)/**/,
             14255    1           3 BATOK BIT(1) INIT('1'B)/**/,
             14259    1           3 GJOB BIT(1) INIT('0'B)/**/,
             14262    1           3 USETP BIT(1) INIT('0'B)/**/,
             14267    1           3 NOCGREJ BIT(1) INIT('0'B)/**/,
PL6.E3A0      #001=AS_SUPER_D File=AS_SUPER_D.:E05TSI                            TUE 07/29/97 10:59 Page:96
             14272    1           3 NOCGINF BIT(1) INIT('0'B)/**/,
             14275    1           3 TPOK BIT(1) INIT('0'B)/**/,
             14279    1           3 FEOK BIT(1) INIT('0'B)/**/,
             14282    1         2 COS UBIN(8)  UNAL INIT(0)/**/,
             14285    1         2 SUPER UBIN(9) UNAL INIT(0)/**/,
             14288    1         2 TWSN# CHAR(4) INIT('0000')/**/,
             14291    1         2 PASSWORD CHAR(8) INIT(' ')/**/,
             14295    1         2 ENCODPW REDEF PASSWORD BIT(72),
             14297    1         2 PNAME,
             14305    1           3 CNT UBIN BYTE UNAL INIT(0)/**/,
             14308    1           3 TXT CHAR(11) UNAL INIT(' ')/**/,
             14311    1         2 WOO CHAR(8) INIT('LOCAL')/**/,
             14314    1         2 RENAME CHAR(8) INIT('SYS')/**/,
             14315    1         2 HPS REDEF RENAME,
             14319    1           3 N CHAR(6) UNAL,
             14320    1           3 * CHAR(2) UNAL,
             14324    1         2 TNAME CHAR(8) INIT(' ')/**/,
             14328    1         2 SNAME CHAR(8) INIT('LOCAL')/**/,
             14331    1         2 NWINFO UBIN WORD INIT(100)/**/,
     1685    14333        %KL_FEBLK( NAME=KL_DEFAULT_FEBLK, LVL=2, RCNT=0, STCLASS=CONSTANT SYMDEF );
             14334         %LSET LISTDIR='0'B;
             14349    1         2 KL_DEFAULT_FEBLK,
             14351    1           3 BILL(0:3) CHAR(6) UNAL INIT('1','1','1','1')/**/,
             14352    1           3 DBACCN CHAR(8) UNAL INIT(' ')/**/,
             14353    1           3 MINTS(0:3) UBIN BYTE UNAL INIT(0*0)/**/,
             14354    1           3 MFPRG UBIN BYTE UNAL INIT(255)/**/,
             14355    1           3 MACCTMEM UBIN HALF UNAL INIT(9999)/**/,
             14356    1           3 FLAGS,
             14357    1           4 STEPACCT BIT(1) INIT('0'B)/**/,
             14358    1           4 * BIT(8) INIT('0'B*0)/**/,
             14359    1           3 PRIV(0:3) BIT(36) ALIGNED INIT('0'B*0)/**/,
             14360    1           3 PPRIV(0:3) BIT(36) ALIGNED INIT('0'B*0)/**/,
             14361    1           3 MTIME(0:3) SBIN WORD UNAL INIT(59999400, 59999400, 59999400, 59999400)/**/
             14361                    ,
             14362    1           3 MMEM(0:3) UBIN HALF UNAL INIT(128,128,128,128)/**/,
             14363    1           3 CXTMEM(0:7) ,
             14364    1           4 UMAX UBIN HALF UNAL INIT(0*0)/**/,
PL6.E3A0      #001=AS_SUPER_D File=AS_SUPER_D.:E05TSI                            TUE 07/29/97 10:59 Page:97
             14365    1           4 CMAX UBIN HALF UNAL INIT(0*0)/**/,
             14366    1           4 HMAX UBIN HALF UNAL INIT(0*0)/**/,
             14367    1           4 GMAX UBIN HALF UNAL INIT(0*0)/**/,
             14368    1           3 PSDOL(0:7) ,
             14369    1           4 PSDO_NAME CHAR(8) UNAL INIT(' '*0)/**/,
             14370    1           4 UMAX UBIN HALF UNAL INIT(0*0)/**/,
             14371    1           4 CMAX UBIN HALF UNAL INIT(0*0)/**/,
             14372    1           4 HMAX UBIN HALF UNAL INIT(0*0)/**/,
             14373    1           4 GMAX UBIN HALF UNAL INIT(0*0)/**/,
             14374    1           3 RESL_CNT UBIN HALF UNAL INIT(0)/**/,
             14375    1           3 RESL(0:0),
             14376    1           4 RNAME CHAR(2) UNAL INIT(' '*0)/**/,
             14377    1           4 UMAX UBIN HALF UNAL INIT(0*0)/**/,
             14378    1           4 CMAX UBIN HALF UNAL INIT(0*0)/**/,
             14379    1           4 HMAX UBIN HALF UNAL INIT(0*0)/**/,
             14380    1           4 GMAX UBIN HALF UNAL INIT(0*0)/**/;
     1686    14382        %AS_MOD_USER( NAME=AS_MOD_USER, STCLASS=STATIC SYMDEF );
             14383    1   DCL 1 NAME STCLASS ALIGNED,
             14384    1          2 PASSWORD BIT(1),
             14385    1          2 NAT_LANG BIT(1),
             14386    1          2 STEPACCNT BIT(1),
             14387    1          2 BATNUM BIT(1),
             14388    1          2 STARSACC BIT(1),
             14389    1          2 SETUP BIT(4),
             14390    1          2 SETUP_A(0:3) REDEF SETUP BIT(1),
             14391    1          2 PERM_BIT BIT(4),
             14392    1          2 PERM_A(0:3) REDEF PERM_BIT BIT(1) ,
             14393    1          2 FORCE_BIT BIT(4),
             14394    1          2 FORCE_A(0:3) REDEF FORCE_BIT BIT(1) ,
             14395    1          2 BANNER BIT (10),
             14396    1          2 BANNER_A (0:9) REDEF BANNER BIT (1),
             14397    1          2 BANNER_PERM BIT (10),
             14398    1          2 BANNER_PERM_A (0:9) REDEF BANNER_PERM BIT (1),
             14399    1          2 CPROC BIT(4),
             14400    1          2 CPROC_A(0:3) REDEF CPROC BIT(1),
             14401    1          2 LASTCPROC BIT(4),
             14402    1          2 LASTCPROC_A(0:3) REDEF LASTCPROC BIT(1),
PL6.E3A0      #001=AS_SUPER_D File=AS_SUPER_D.:E05TSI                            TUE 07/29/97 10:59 Page:98
             14403    1          2 BILL BIT(4),
             14404    1          2 BILL_A(0:3) REDEF BILL BIT(1),
             14405    1          2 WSN BIT(1),
             14406    1          2 HSET BIT(1),
             14407    1          2 PROFILE BIT(1),
             14408    1          2 ACCESS BIT(5),
             14409    1          2 ACCESS_A(0:4) REDEF ACCESS BIT(1),
             14410    1          2 PRIV,
             14411    1             3 * (0:%(36*4-1)) UBIN(2) UNAL,
             14412    1          2 PRIV_A(0:%(36*4-1)) REDEF PRIV UBIN(2) UNAL,
             14413    1          2 PPRIV,
             14414    1             3 * (0:%(36*4-1)) UBIN(2) UNAL,
             14415    1          2 PPRIV_A(0:%(36*4-1)) REDEF PPRIV UBIN(2) UNAL,
             14416    1          2 QUAN BIT(4),
             14417    1          2 QUAN_A(0:3) REDEF QUAN BIT(1),
             14418    1          2 MAXENQ BIT(4),
             14419    1          2 MAXENQ_A(0:3) REDEF MAXENQ BIT(1),
             14420    1          2 PRIOB BIT(4),
             14421    1          2 PRIOB_A(0:3) REDEF PRIOB BIT(1),
             14422    1          2 BUDGET,
             14423    1             3 PCHARGES BIT(1),
             14424    1             3 ICHARGES BIT(1),
             14425    1             3 BKACC BIT(1),
             14426    1             3 BUDLIM BIT(1),
             14427    1             3 BLINDACCTNG BIT(1),
             14428    1             3 MAXC BIT(1),
             14429    1             3 SIGN BIT(1),
             14430    1             3 MACCT BIT(1),
             14431    1             3 ACCUM BIT(1),
             14432    1          2 LIMITS,
             14433    1             3 OUTPUTPRIO BIT(1),
             14434    1             3 EXPIRE,
             14435    1                4 MEXP BIT(1),
             14436    1                4 DEXP BIT(1),
             14437    1             3 TIME BIT(8),
             14438    1             3 TIME_A(0:3) REDEF TIME,
             14439    1                4 MTIME BIT(1),
PL6.E3A0      #001=AS_SUPER_D File=AS_SUPER_D.:E05TSI                            TUE 07/29/97 10:59 Page:99
             14440    1                4 DTIME BIT(1),
             14441    1             3 MEM BIT(8),
             14442    1             3 MEM_A(0:3) REDEF MEM,
             14443    1                4 MMEM BIT(1),
             14444    1                4 DMEM BIT(1),
             14445    1             3 LO BIT(8),
             14446    1             3 LO_A(0:3) REDEF LO,
             14447    1                4 MLO BIT(1),
             14448    1                4 DLO BIT(1),
             14449    1             3 DO_ BIT(8),
             14450    1             3 DO_A(0:3) REDEF DO_,
             14451    1                4 MDO BIT(1),
             14452    1                4 DDO BIT(1),
             14453    1             3 PO BIT(8),
             14454    1             3 PO_A(0:3) REDEF PO,
             14455    1                4 MPO BIT(1),
             14456    1                4 DPO BIT(1),
             14457    1             3 PDIS BIT(8),
             14458    1             3 PDIS_A(0:3) REDEF PDIS,
             14459    1                4 MPDIS BIT(1),
             14460    1                4 DPDIS BIT(1),
             14461    1             3 TDIS BIT(8),
             14462    1             3 TDIS_A(0:3) REDEF TDIS,
             14463    1                4 MTDIS BIT(1),
             14464    1                4 DTDIS BIT(1),
             14465    1             3 FPOOLS BIT(8),
             14466    1             3 FPOOLS_A(0:3) REDEF FPOOLS,
             14467    1                4 MFPOOLS BIT(1),
             14468    1                4 DFPOOLS BIT(1),
             14469    1             3 MPRIO BIT(8),
             14470    1             3 MPRIO_A(0:3) REDEF MPRIO,
             14471    1                4 MMPRIO BIT(1),
             14472    1                4 DMPRIO BIT(1),
             14473    1          2 PSEUDO BIT(1),
             14474    1          2 RESOURCE BIT(1),
             14475    1          2 KEY,
             14476    1             3 * (0:71) UBIN(2) UNAL,
PL6.E3A0      #001=AS_SUPER_D File=AS_SUPER_D.:E05TSI                            TUE 07/29/97 10:59 Page:100
             14477    1          2 KEY_A(0:71) REDEF KEY UBIN(2) UNAL ,
             14478    1          2 FACCOUNT BIT(1) UNAL ,
             14479    1          2 FEBILL BIT(4),
             14480    1          2 FEBILL_A(0:3) REDEF FEBILL BIT(1) ,
             14481    1          2 FEMINTS BIT(4),
             14482    1          2 FEMINTS_A(0:3) REDEF FEMINTS BIT(1) ,
             14483    1          2 FEMFPRG BIT(1),
             14484    1          2 FEPRIV,
             14485    1             3 * (0:%(36*4-1)) UBIN(2) UNAL,
             14486    1          2 FEPRIV_A(0:%(36*4-1)) REDEF FEPRIV UBIN(2) UNAL,
             14487    1          2 FEPPRIV,
             14488    1             3 * (0:%(36*4-1)) UBIN(2) UNAL,
             14489    1          2 FEPPRIV_A(0:%(36*4-1)) REDEF FEPPRIV UBIN(2) UNAL,
             14490    1          2 FEMTIME BIT(4),
             14491    1          2 FEMTIME_A(0:3) REDEF FEMTIME BIT(1),
             14492    1          2 FEMMEM BIT(4),
             14493    1          2 FEMMEM_A(0:3) REDEF FEMMEM BIT(1),
             14494    1          2 FEMACCTMEM BIT(1),
             14495    1          2 FEDBACCN BIT(1),
             14496    1          2 FECXTMEM BIT(8),
             14497    1          2 FECXTMEM_A(0:7) REDEF FECXTMEM BIT(1),
             14498    1          2 FEPSEUDO BIT(1) ,
             14499    1          2 FERESOURCE BIT(1) ,
             14500    1          2 FESTEPACCNT BIT(1),
             14501    1          2 LAST_LOGON_TIME BIT (1);
     1687    14503        %AS$PROJ_HEADER( NAME=AS_CONSTANT_PROJ_HEADER, STCLASS="CONSTANT SYMDEF" );
             14504        %LSET LISTDIR='0'B;
             14513    1   DCL 1 NAME STCLASS ALIGNED,
             14514                                                    /* Creator of project */
             14515    1          2 CREATOR CHAR(20) ALIGNED %INIT (' ') %CHARTEXT('/**/'),
             14516                                                    /* Can modify default attributes */
             14517    1          2 MODIFY_ATTR BIT(1) UNAL %INIT ('1'B) %CHARTEXT('/**/'),
             14518    1          2 PROJ_REMOVED BIT(1) UNAL %INIT ('0'B) %CHARTEXT('/**/'),
             14519    1          2 * BIT(16) UNAL %INIT ('0'B) %CHARTEXT('/**/'),
             14520    1          2 SUB_PROJ_ACCTS UBIN HALF UNAL %INIT (0) %CHARTEXT('/**/'),
             14521                                                    /* Max. num granules this packset */
             14522    1          2 MAX_NUM_GRANS UBIN WORD ALIGNED %INIT (0) %CHARTEXT('/**/'),
PL6.E3A0      #001=AS_SUPER_D File=AS_SUPER_D.:E05TSI                            TUE 07/29/97 10:59 Page:101
             14523                                                    /* Granules given to users */
             14524    1          2 GRANS_ACCUM SBIN WORD ALIGNED %INIT (0) %CHARTEXT('/**/'),
             14525                                                    /* Skeleton for accounts */
             14526    1          2 SKELETON CHAR(8) %INIT ('?') %CHARTEXT('/**/'),
             14527                                                    /* Max. number of accounts on pack*/
             14528    1          2 MAX_NUM_ACCTS UBIN WORD ALIGNED %INIT (0) %CHARTEXT('/**/'),
             14529                                                    /* Number of accounts initialized */
             14530    1          2 NUM_ACCTS SBIN WORD ALIGNED %INIT (0) %CHARTEXT('/**/') LAST
     1688    14532        %PLIST ;
     1689    14533    1   END   AS_SUPER_D ;

PL6.E3A0      #001=AS_SUPER_D File=AS_SUPER_D.:E05TSI                            TUE 07/29/97 10:59 Page:102
--  Include file information  --

   B$JIT_C.:E05TOU  is referenced.
   OCI_SUBS_C.:E05TOU  is referenced.
   XG_SUBS_C.:E05TOU  is referenced.
   XG_PROFILE_C.:E05TOU  is referenced.
   KL_SUPER_C.:E05TOU  is referenced.
   XU_FORMAT_C.:E05TOU  is referenced.
   XU_MACRO_C.:E05TOU  is referenced.
   XU_SUBS_C.:E05TOU  is referenced.
   AS_SUBS_C.:E05TOU  is referenced.
   AS_MAC_C.:E05TOU  cannot be made into a system file and is referenced.
   AS_SUPER_C.:E05TOU  is referenced.
      No diagnostics issued in procedure AS_SUPER_D.

   No code generated for procedure AS_SUPER_D .
   Procedure AS_SUPER_D requires 4 words of local(AUTO) storage.

    No errors detected in file AS_SUPER_D.:E05TSI    .

PL6.E3A0      #001=AS_SUPER_D File=AS_SUPER_D.:E05TSI                            TUE 07/29/97 10:59 Page:103

 Object Unit name= AS_SUPER_D                                 File name= AS_SUPER_D.:E05TOU
 UTS= JUL 29 '97 10:59:32.16 TUE                              Compiler= PL-6/E31         Sev=      00
 SharedLib= :SHARED_SYSTEM                                    Alt SharedLib=


    ****  Control sections  ****

 Sect   Type Bound  Init  Size OctSiz  Section name(segment info)
    0  RoData even  UTS   3006   5676  AS_SUPER_D
    1   DCB   even  none     0      0  M$LO
    2   Data  even  none  5707  13113  AS_SUPER_D
    3   Proc  even  none     0      0  AS_SUPER_D

    ****  Entry defs  ****

                              Check   Calling
                             calling  sequence
  Sect OctLoc Primary Altret sequence   type   Parms  Name
     3      0   yes            yes     ~proc       0  AS_SUPER_D
PL6.E3A0      #001=AS_SUPER_D File=AS_SUPER_D.:E05TSI                            TUE 07/29/97 10:59 Page:104

  ****  Data defs  ****

 Sect OctLoc  Name                           Sect OctLoc  Name
    0      0  ASL_POLLVIP_TYP                    0      1  ASL_VIRCIR_TYP
    0      2  ASL_RBT_TYP                        0      3  ASL_RBTD_TYP
    0      4  ASL_ASYNC_TYP                      0      5  ASL_LINK_TYP
    0      6  ASL_URP_TYP                        0      7  ASL_3270_TYP
    0     10  ASL_PRO_OPT_TBL                    0   4320  AS_BLANK
    0   4321  AS_TRUE                            0   4322  AS_FALSE
    0   4323  AS_ZERO                            0   4324  AS_NONE
    0   4332  AS_VALID_DEVICE_TYPE_CHARS         0   4343  AS_PRIV_NAMES
    0   4373  AS_PPRIV_NAMES                     0   4420  AS_PRIVILEGE
    0   4450  AS_PPRIVILEGE                      0   4475  AS_MODE
    0   4506  AS_FE_MODE                         0   4515  KL_DREC$
    0   4516  KL_DFLT$                           0   4517  AS_DEFAULT_DREC$
    0   4520  AS_PROJ_ADMIN_DREC$                0   4521  AS_PROJECT_DREC$
    0   4522  AS_PROJECT_DFLT_DREC$              2      0  USERS_KEY
    2     13  PROJ_KEY                           2     22  AS_CREATED_TEXT
    2     27  FROM_KEY                           2     35  START_KEY
    2     40  QUIT_KEY                           2     43  PREV_KEY
    2     46  LO_WIDTH                           2     47  FDS
    2    105  FMT_BUF                            2    205  FMT_VEC
    2    435  BLANK_PASS                         2    437  IN_BUF
    2    537  OUT_BUF                            2    602  IN_BUF$
    2    603  OUT_BUF$                           2    604  WK
    2   2604  P$PCB                              2   2605  NODE$
    2   2606  CODE                               2   2607  FAST_FLAG
    2   2610  INPUT_FLAG                         2   2611  LIST_ACCT_FLG
    2   2612  COMMENT                            2   2613  SUPERAUTH
    2   2614  SUPERWSN                           2   2615  SUPERFORM
    2   2616  SUPERD                             2   2617  MAKEPROJ
    2   2620  PADMIN                             2   2621  ERR_CODE
    2   2622  AS_FIELD1                          2   2635  AS_FIELD2
    2   2650  AS_FIELD3                          2   2664  REMEM_VAR
    2   2666  REM_FCMD                           2   2670  ASA_BRKS_LOC
    2   2672  FCMD_POS                           2   2673  PROMPT_CHAR
    2   2703  PROMPT_CNT                         2   2704  DSEG_FLG
PL6.E3A0      #001=AS_SUPER_D File=AS_SUPER_D.:E05TSI                            TUE 07/29/97 10:59 Page:105
    2   2705  DSEG1$                             2   2706  DSEG1SIZE
    2   2707  DSEG2$                             2   2710  DSEG2SIZE
    2   2711  DSEG3$                             2   2712  DSEG3SIZE
    2   2713  ENQDEQ_FLG                         2   2714  ERR_CNT
    2   2715  WARN_CNT                           2   2716  FILE_ACCT
    2   2720  AS_PROJECT_ADMIN                   2   2726  AS_LOGON_KEY
    2   2734  AS_ACCT_MATCH                      2   2736  AS_NAME_MATCH
    2   2741  AS_WILD_USER                       2   2742  AS_RESOURCE_LIST$
    2   2743  AS_FERESOURCE_LIST$                2   2744  AS_PSEUDO_LIST$
    2   2745  AS_FEPSEUDO_LIST$                  2   2746  AS_PROJ_HEADER$
    2   2747  AS_SUPER_TO_PIG$                   2   2750  AS_DCBNUM#
    2   2751  AS_FACCOUNT_FLG                    2   2752  DFLT_PROJ_USERS_KEY
    2   2760  AS_CR_MOD_PROJ                     2   2761  FROM_FLG
    2   2762  CR_MOD_FLG                         2   2763  AS_WILD_MCH
    2   2764  AS_WILD_MVAL                       2   2765  P_PCB
    2   3003  AS_USERS                           2   4007  AS_DFLT
    2   5013  AS_DEFAULT                         2   6017  AS_PROJ_ADMIN
    2   7023  AS_PROJECT                         2  10027  AS_PROJECT_DFLT
    0   4523  AS_USERS_CONSTANT                  2  11033  KL_DREC_CNT
    2  11053  KL_DREC                            2  11324  KL_DFLT
    2  11575  AS_DEFAULT_DREC                    2  12046  AS_PROJ_ADMIN_DREC
    2  12317  AS_PROJECT_DREC                    2  12570  AS_PROJECT_DFLT_DREC
    0   5527  KL_DEFAULT                         2  13041  AS_MOD_USER
    0   5662  AS_CONSTANT_PROJ_HEADER

  ****  Entry refs  ****

         Check        Calling
        calling       sequence
Altret sequence SRef   type   Args  Name
         yes          ~proc      0 XU_OUTPUT_OPTIONS
PL6.E3A0      #001=AS_SUPER_D File=AS_SUPER_D.:E05TSI                            TUE 07/29/97 10:59 Page:106

  ****  Data refs  ****

  Flags:  r = read only, s = secondary
Flgs Name                             Flgs Name                             Flgs Name
     SPCLMM_                               EXMM_                                 MAXM_
     MSYS_                                 SYSLOG_                               JIT_
     TND_                                  ASAVE_                                GPP_
     SEC_                                  DIA_                                  FMREAD_
     PM_                                   EXPM_                                 IOQW_
     IOQ_                                  CFEP_                                 MFEP_
     DISPJOB_                              SYSCON_                               INTCON_
     CQ_                                   SNAP_                                 SCREECH_
     CNTRLD_                               CNTRLC_                               EFT_
     EL_                                   LABEL_                                PIGD_
     PIGC_                                 PIGETTE_                              SUPERAUTH_
     SUPERWSN_                             SUPERFORM_                            SUPER_
     SPIDERD_                              SPIDERC_                              NETCON_
     SUPERD_                               VOLINIT_                              REPLAY_
     RATES_                                B$JIT$                                M$LO

  ****  Segment refs  ****

  Flags:  r = read only, s = secondary
Flgs Name                             Flgs Name                             Flgs Name
     ISSID                                 NULLSID
PL6.E3A0      #001=AS_SUPER_D File=AS_SUPER_D.:E05TSI                            TUE 07/29/97 10:59 Page:107

        1        1        /*M* AS_SUPER_D:  ALL SYMDEF'S FOR SUPER              */
        2        2        /*T***********************************************************/
        3        3        /*T*                                                         */
        4        4        /*T* Copyright (c) Bull HN Information Systems Inc., 1997    */
        5        5        /*T*                                                         */
        6        6        /*T***********************************************************/
        7        7        /*X*  DMC,DMR,CCC,PLM=0,IND=3,CTI=5,DCI=6,IAD=0,DTI=0,IDT=0,ENI=3,
        8        8              ECU=3,CSU=3,SDI=3                                           */
        9        9        AS_SUPER_D: PROC ;
       10       10                                                              /**/
       11       11        %EJECT ;
PL6.E3A0      #001=AS_SUPER_D File=AS_SUPER_D.:E05TSI                            TUE 07/29/97 10:59 Page:108
       12       12        /********************************************************************/
       13       13        /*   Include files   include files   include files   include files   */
       14       14        /*********************************************************************/
       15       15                                                              /**/
       16       16        /* !!  */
       17       17        %INCLUDE           AS_SUPER_C   ;
       18      452        %INCLUDE           AS_MAC_C     ;
       19      532        %INCLUDE           AS_SUBS_C    ;
       20     1946        %INCLUDE           XU_SUBS_C    ;
       21     2038        %INCLUDE           XU_MACRO_C   ;
       22     5144        %INCLUDE           XU_FORMAT_C  ;
       23     5306        %INCLUDE           KL_SUPER_C   ;
       24     8208        %INCLUDE           XG_PROFILE_C ;
       25     8762        %INCLUDE           XG_SUBS_C    ;
       26     9256        %INCLUDE           OCI_SUBS_C   ;
       27     9354        %INCLUDE           B$JIT_C      ;
       28     9668                %B$JIT0 ;
       29     9757                %U$JIT1 ;
       30     9831                %M$JIT2 ;
       31     9841                %F$JIT3 ;
       32     9846                %S$JIT4 ;
       33     9852                %J$JIT5 ;
       34     9940                %A$JIT6 ;
       35     9950        /* !R.!  */
       36     9951        /********************************************************************/
       37     9952        /*   Symrefs         symrefs         symrefs         symrefs         */
       38     9953        /*********************************************************************/
       39     9954                                                              /**/
       40     9955    1   DCL   SPCLMM_     UBIN SYMREF;
       41     9956    1   DCL   EXMM_       UBIN SYMREF;
       42     9957    1   DCL   MAXM_       UBIN SYMREF;
       43     9958    1   DCL   MSYS_       UBIN SYMREF;
       44     9959    1   DCL   SYSLOG_     UBIN SYMREF;
       45     9960    1   DCL   JIT_        UBIN SYMREF;
       46     9961    1   DCL   TND_        UBIN SYMREF;
       47     9962    1   DCL   ASAVE_      UBIN SYMREF;
       48     9963    1   DCL   GPP_        UBIN SYMREF;
PL6.E3A0      #001=AS_SUPER_D File=AS_SUPER_D.:E05TSI                            TUE 07/29/97 10:59 Page:109
       49     9964    1   DCL   SEC_        UBIN SYMREF;
       50     9965    1   DCL   DIA_        UBIN SYMREF;
       51     9966    1   DCL   FMREAD_     UBIN SYMREF;
       52     9967    1   DCL   PM_         UBIN SYMREF;
       53     9968    1   DCL   EXPM_       UBIN SYMREF;
       54     9969    1   DCL   IOQW_       UBIN SYMREF;
       55     9970    1   DCL   IOQ_        UBIN SYMREF;
       56     9971    1   DCL   CFEP_       UBIN SYMREF;
       57     9972    1   DCL   MFEP_       UBIN SYMREF;
       58     9973    1   DCL   DISPJOB_    UBIN SYMREF;
       59     9974    1   DCL   SYSCON_     UBIN SYMREF;
       60     9975    1   DCL   INTCON_     UBIN SYMREF;
       61     9976    1   DCL   CQ_     UBIN SYMREF;
       62     9977    1   DCL   SNAP_       UBIN SYMREF;
       63     9978    1   DCL   SCREECH_    UBIN SYMREF;
       64     9979
       65     9980    1   DCL   CNTRLD_     UBIN SYMREF;
       66     9981    1   DCL   CNTRLC_     UBIN SYMREF;
       67     9982    1   DCL   EFT_        UBIN SYMREF;
       68     9983    1   DCL   EL_         UBIN SYMREF;
       69     9984    1   DCL   LABEL_      UBIN SYMREF;
       70     9985    1   DCL   PIGD_       UBIN SYMREF;
       71     9986    1   DCL   PIGC_       UBIN SYMREF;
       72     9987    1   DCL   PIGETTE_    UBIN SYMREF;
       73     9988    1   DCL   SUPERAUTH_  UBIN SYMREF;
       74     9989    1   DCL   SUPERWSN_   UBIN SYMREF;
       75     9990    1   DCL   SUPERFORM_  UBIN SYMREF;
       76     9991    1   DCL   SUPER_      UBIN SYMREF;
       77     9992    1   DCL   SPIDERD_    UBIN SYMREF;
       78     9993    1   DCL   SPIDERC_    UBIN SYMREF;
       79     9994    1   DCL   NETCON_    UBIN SYMREF;
       80     9995    1   DCL   SUPERD_   UBIN SYMREF;
       81     9996    1   DCL   VOLINIT_    UBIN SYMREF;
       82     9997    1   DCL   REPLAY_     UBIN SYMREF;
       83     9998    1   DCL   RATES_      UBIN SYMREF;
       84     9999    1   DCL CMD_NODES     SYMREF UBIN(36) ;
       85    10000    1   DCL CR_MOD_CMD    SYMREF UBIN(36) ;
PL6.E3A0      #001=AS_SUPER_D File=AS_SUPER_D.:E05TSI                            TUE 07/29/97 10:59 Page:110
       86    10001    1   DCL CR_MOD_TREE   SYMREF UBIN(36) ;
       87    10002    1   DCL PRIV_S_OPT    SYMREF UBIN(36) ;
       88    10003    1   DCL FEPRIV_S_OPT    SYMREF UBIN(36) ;
       89    10004    1   DCL CR_MOD_PROJ_OPTS SBIN SYMREF;
       90    10005    1   DCL BUDGET_S_OPT  SYMREF UBIN(36) ;
       91    10006    1   DCL LIST_CMD SYMREF UBIN(36) ;
       92    10007    1   DCL DISPLAY_CMD SYMREF UBIN(36) ;
       93    10008    1   DCL LIST_S_OPT    SYMREF UBIN(36) ;
       94    10009    1   DCL LIST_P_OPT    SYMREF UBIN(36) ;
       95    10010    1   DCL LIST_PRO_S_OPT SYMREF UBIN(36) ;
       96    10011    1   DCL PROFILE_CMD UBIN(36) SYMREF ;
       97    10012    1   DCL PRO_OPTS_LIST UBIN WORD SYMREF ;
       98    10013    1   DCL FUNKEY_CMD UBIN WORD SYMREF ;
       99    10014    1   DCL XU_OUTPUT_OPTIONS ENTRY CONV (5);
      100    10015    1   DCL XUR$OPENOUT_OPT BIT(36) SYMREF;
      101    10016    1   DCL B$JIT$ PTR SYMREF ;            /*   Pointer to jit   */
      102    10017                                                              /**/
      103    10018        %EJECT ;
PL6.E3A0      #001=AS_SUPER_D File=AS_SUPER_D.:E05TSI                            TUE 07/29/97 10:59 Page:111
      104    10019        /********************************************************************/
      105    10020        /*   Constant data   constant data   constant data   constant data   */
      106    10021        /*********************************************************************/
      107    10022    1   DCL ASL_POLLVIP_TYP BIT(9) CONSTANT SYMDEF ALIGNED INIT('010000000'B);
      108    10023    1   DCL ASL_VIRCIR_TYP BIT(9) CONSTANT SYMDEF ALIGNED INIT('001000000'B);
      109    10024    1   DCL ASL_RBT_TYP    BIT(9) CONSTANT SYMDEF ALIGNED INIT('000100000'B) ;
      110    10025    1   DCL ASL_RBTD_TYP   BIT(9) CONSTANT SYMDEF ALIGNED INIT('000010000'B) ;
      111    10026    1   DCL ASL_ASYNC_TYP  BIT(9) CONSTANT SYMDEF ALIGNED INIT('000001000'B) ;
      112    10027    1   DCL ASL_LINK_TYP   BIT(9) CONSTANT SYMDEF ALIGNED INIT('000000100'B) ;
      113    10028    1   DCL ASL_URP_TYP    BIT(9) CONSTANT SYMDEF ALIGNED INIT('000000010'B) ;
      114    10029    1   DCL ASL_3270_TYP   BIT(9) CONSTANT SYMDEF ALIGNED INIT('000000001'B);
      115    10030    1   DCL 1 ASL_PRO_OPT_TBL(0:L_PRO_END) CONSTANT SYMDEF,
      116    10031    1          2 LEN UBIN BYTE UNAL INIT  /* Ordered by SUB# from AS_SUBS_C */
      117    10032    1   /*  0*/(17, 17, 17, 17, 17,
      118    10033    1   /*  5*/ 17, 17, 17, 17, 17,
      119    10034    1   /* 10*/ 17, 17, 17, 17, 17,
      120    10035    1   /* 15*/ 17, 17, 17, 17, 17,
      121    10036    1   /* 20*/ 17, 17, 17, 17, 17,
      122    10037    1   /* 25*/ 17, 17, 17, 17, 17,
      123    10038    1   /* 30*/ 17, 17, 17, 17, 17,
      124    10039    1   /* 35*/ 17, 17, 17, 17, 17,
      125    10040    1   /* 40*/ 17, 17, 17, 17, 17,
      126    10041    1   /* 45*/ 17, 17, 17, 17, 17,
      127    10042    1   /* 50*/ 17, 17, 17, 17, 17,
      128    10043    1   /* 55*/ 17, 17, 17, 17, 17,
      129    10044    1   /* 60*/ 17, 17, 17, 17, 17,
      130    10045    1   /* 65*/ 17, 17, 17, 17, 17,
      131    10046    1   /* 70*/ 17, 17, 17, 17, 17,
      132    10047    1   /* 75*/ 17, 17, 17, 17, 17,
      133    10048    1   /* 80*/ 17, 17, 17, 17, 17,
      134    10049    1   /* 85*/ 17, 17, 17, 17, 34,
      135    10050    1   /* 90*/ 34, 34, 34, 34, 34,
      136    10051    1   /* 95*/ 34, 34, 34, 34, 34,
      137    10052    1   /*100*/ 34, 51, 34, 34, 34,
      138    10053    1   /*105*/ 17, 17, 17, 17, 17,
      139    10054    1   /*110*/ 17, 17, 17, 17, 17,
      140    10055    1   /*115*/ 17, 17, 17, 17, 17,
PL6.E3A0      #001=AS_SUPER_D File=AS_SUPER_D.:E05TSI                            TUE 07/29/97 10:59 Page:112
      141    10056    1   /*120*/ 17, 17, 17, 17, 17,
      142    10057    1   /*125*/ 17, 34, 34, 17, 17,
      143    10058    1   /*130*/ 17, 34, 34, 51, 17,
      144    10059    1   /*135*/ 17, 17, 17, 17, 17,
      145    10060    1   /*140*/ 17, 17, 17, 17, 17,
      146    10061    1   /*145*/ 17, 17, 51, 51, 51,
      147    10062    1   /*150*/ 51, 51, 17, 17, 17,
      148    10063    1   /*155*/ 51, 51, 51, 51, 51,
      149    10064    1   /*160*/ 51, 51, 17, 17, 17,
      150    10065    1   /*165*/ 17, 17, 17,  0, 17,
      151    10066    1   /*170*/ 17, 17, 21, 17, 17,
      152    10067    1   /*175*/ 17, 20, 17, 51,
      153    10068    1   /*179*/ 17, 140, 140, 17, 17,
      154    10069    1   /*184*/ 17, 17, 17, 17, 17,
      155    10070    1   /*189*/ 17, 17, 17, 17, 17,
      156    10071    1   /*194*/ 80, 80, 17, 17, 17,
      157    10072    1   /*199*/ 20, 17, 17, 17, 17,
      158    10073    1   /*204*/ 17, 17, 17, 17, 20,
      159    10074    1   /*209*/ 17, 17, 17, 17,
      160    10075    1   /*213*/ 17, 17, 17, 17, 17,
      161    10076    1   /*218*/ 140, 65, 17, 17, 17,
      162    10077    1   /*223*/ 20, 20, 20, 20, 17,
      163    10078    1   /*228*/ 20, 20, 20, 20, 20,
      164    10079    1   /*233*/ 20, 20, 20, 20, 20,
      165    10080    1   /*238*/ 20, 20, 20, 20, 20,
      166    10081    1   /*243*/ 20, 20, 20, 20, 20,
      167    10082    1   /*248*/ 20, 20, 20, 20, 20,
      168    10083    1   /*253*/ 20, 20, 20, 20, 20,
      169    10084    1   /*258*/ 20, 20, 20, 20, 20,
      170    10085    1   /*263*/ 20, 20, 20, 20, 20,
      171    10086    1   /*268*/ 20, 20, 20, 20, 20,
      172    10087    1   /*273*/ 20, 20, 20, 20, 20,
      173    10088    1   /*278*/ 20, 20, 1),
      174    10089    1          2 HDR CHAR(20) UNAL INIT
      175    10090    1           ('ACTONTRN',
      176    10091    1            'APL',
      177    10092    1            'APLLCNRM',
PL6.E3A0      #001=AS_SUPER_D File=AS_SUPER_D.:E05TSI                            TUE 07/29/97 10:59 Page:113
      178    10093    1            'AUTONL',
      179    10094    1            'BIN',
      180    10095    1            'BLANKERASES',
      181    10096    1            'CRISNL',
      182    10097    1            'CUP_CLMFRS',
      183    10098    1            'CUP_CMP',
      184    10099    1            'CURSORUP',
      185    10100    1            'DEVICEBS',
      186    10101    1            'DEVICECR',
      187    10102    1            'DEVICELF',
      188    10103    1            'DEVPOSOPTS',
      189    10104    1            'DEVSCROLL',
      190    10105    1            'DISPINPUT',
      191    10106    1            'EDITOVR',
      192    10107    1            'FULLDUXPAPERTAPE',
      193    10108    1            'HALFDUXPAPERTAPE',
      194    10109    1            'INPUT',
      195    10110    1            'INPUTIGNORE',
      196    10111    1            'LFISNL',
      197    10112    1            'LOWERCASE',
      198    10113    1            'LOWERCASEPRINTS',
      199    10114    1            'MULSTRM',
      200    10115    1            'NOOPTMIZ',
      201    10116    1            'OPDTAB',
      202    10117    1            'OUTPUT',
      203    10118    1            'OUTPUTDISCARD',
      204    10119    1            'PAGEHALT',
      205    10120    1            'PARITYCHECK',
      206    10121    1            'PRINTHALT',
      207    10122    1            'PRINTTYPE',
      208    10123    1            'PROGDTAB',
      209    10124    1            'RELPAGE',
      210    10125    1            'RETYPOVR',
      211    10126    1            'SCROLL',
      212    10127    1            'SENDBKSPACE',
      213    10128    1            'SIMPERF',
      214    10129    1            'SPACEINSERT',
PL6.E3A0      #001=AS_SUPER_D File=AS_SUPER_D.:E05TSI                            TUE 07/29/97 10:59 Page:114
      215    10130    1            'TABRELATIVE',
      216    10131    1            'TABSIM',
      217    10132    1            'TRUNCATE',
      218    10133    1            'TRUOVRPRT',
      219    10134    1            'TTYTYPE',
      220    10135    1            'UPPERCASE',
      221    10136    1            'AWIDTH',
      222    10137    1            'BLKBYTES',
      223    10138    1            'BLKRECS',
      224    10139    1            'DELAYS',
      225    10140    1            'DVCOTPBFRSIZ',
      226    10141    1            'FIRSTLINE',
      227    10142    1            'HEIGHT',
      228    10143    1            'LENGTH',
      229    10144    1            'LIMBO',
      230    10145    1            'PWIDTH',
      231    10146    1            'MINREC',
      232    10147    1            'RETRYS',
      233    10148    1            'SINPUTSZ',
      234    10149    1            'SPEED',
      235    10150    1            'TMNALG_AFTCUP',
      236    10151    1            'TMNALG_AFTCR',
      237    10152    1            'TMNALG_AFTHPA',
      238    10153    1            'TMNALG_AFTHT',
      239    10154    1            'TMNALG_AFTLF',
      240    10155    1            'TMNALG_BFRCR',
      241    10156    1            'TMNALG_BFRLF',
      242    10157    1            'BS_TIM',
      243    10158    1            'ERSTIM',
      244    10159    1            'TIMAFTCTRFNC',
      245    10160    1            'TMNALG_PRM1',
      246    10161    1            'TMNALG_PRM2',
      247    10162    1            'TMNALG_PRM3',
      248    10163    1            'TMNALG_PRM4',
      249    10164    1            'TMNALG_PRM5',
      250    10165    1            'TMNALG_PRM6',
      251    10166    1            'TMNALG_PRM7',
PL6.E3A0      #001=AS_SUPER_D File=AS_SUPER_D.:E05TSI                            TUE 07/29/97 10:59 Page:115
      252    10167    1            'TMNALG_PRM8',
      253    10168    1            'FCNTBL',
      254    10169    1            'CHARSETNAME',
      255    10170    1            'EMCHR',
      256    10171    1            'IRSCHR',
      257    10172    1            'CUP_ALG',
      258    10173    1            'DVCFLWCTRALG',
      259    10174    1            'HPA_ALG',
      260    10175    1            'PARITY',
      261    10176    1            'PROTYP',
      262    10177    1            'CUP_BIS',
      263    10178    1            'LSTRECCTN',
      264    10179    1            'CUB_CHR',
      265    10180    1            'CUD_CHR',
      266    10181    1            'CUF_CHR',
      267    10182    1            'CUP_CHR',
      268    10183    1            'CUU_CHR',
      269    10184    1            'DCH_CHR',
      270    10185    1            'ED0_CHR',
      271    10186    1            'ED2_CHR',
      272    10187    1            'EL0_CHR',
      273    10188    1            'FRMFED_CHR',
      274    10189    1            'HOM_CHR',
      275    10190    1            'HTS_CHR',
      276    10191    1            'ICH_CHR',
      277    10192    1            'RSTINSMOD_CHR',
      278    10193    1            'SETFRMLNG_CHR',
      279    10194    1            'TBC3_CHR',
      280    10195    1            'ERRDUPBLK',
      281    10196    1            'RRR',
      282    10197    1            'INTERVAL',
      283    10198    1            'COMPRESS',
      284    10199    1            'TIMEOUT',
      285    10200    1            'RETRANSMISSIONS',
      286    10201    1            'WINDOW',
      287    10202    1            'FRAME',
      288    10203    1            'SLC',
PL6.E3A0      #001=AS_SUPER_D File=AS_SUPER_D.:E05TSI                            TUE 07/29/97 10:59 Page:116
      289    10204    1            'CALLS',
      290    10205    1            'REVERSE',
      291    10206    1            'SLCALLBLK',
      292    10207    1            'PADSIGNON',
      293    10208    1            'MAX WINDOW',
      294    10209    1            'RESPONSE DELAY',
      295    10210    1            'RESTART TIMEOUT',
      296    10211    1            'RESTART RETRIES',
      297    10212    1            'MAXATRS',
      298    10213    1            'ATRSCRNPOS',
      299    10214    1            'SGR_ALG',
      300    10215    1            'DAQ_ALG',
      301    10216    1            'SGRINTRO_CHR',
      302    10217    1            'DAQINTRO_CHR',
      303    10218    1            'SGRINCDAQ',
      304    10219    1            'DFLTPRTMODE',
      305    10220    1            'DCLFLD_ALG',
      306    10221    1            'DCLFRM_CHR',
      307    10222    1            'ENDDCLFRM_CHR',
      308    10223    1            'RESTORE_DFLTSCRN_CHR',
      309    10224    1            'SGRHDN_CHR',
      310    10225    1            'SGRINCINT_CHR',
      311    10226    1            'SGRDCRINT_CHR',
      312    10227    1            'SGRUNDSCR_CHR',
      313    10228    1            'SGRSLWBLN_CHR',
      314    10229    1            'SGRFSTBLN_CHR',
      315    10230    1            'SGRRVRVID_CHR',
      316    10231    1            'SGRPRT_CHR',
      317    10232    1            'SGRINP_CHR',
      318    10233    1            'SGRPRTGRD_CHR',
      319    10234    1            'DAQPRT_CHR',
      320    10235    1            'DAQINP_CHR',
      321    10236    1            'DAQPRTGRD_CHR',
      322    10237    1            'DLTALLFLDS_CHR',
      323    10238    1            'INSLIN_CHR',
      324    10239    1            'DLTLIN_CHR',
      325    10240    1            'ERASEFLD_CHR',
PL6.E3A0      #001=AS_SUPER_D File=AS_SUPER_D.:E05TSI                            TUE 07/29/97 10:59 Page:117
      326    10241    1            'DLTFLD_CHR',
      327    10242    1            'FLDTRM',
      328    10243    1            'EWALT',
      329    10244    1            'SIOPT',
      330    10245    1            'ABSGRPRND_NULL',
      331    10246    1            'ABSGRPRND_HIDDEN',
      332    10247    1            'ABSGRPRND_EMPHASIS',
      333    10248    1            'ABSGRPRND_INPUT',
      334    10249    1            'ABSGRPRND_OUTPUT',
      335    10250    1            'ABSGRPRND_ERROR',
      336    10251    1            'ABSGRPRND_WARNING',
      337    10252    1            'TMNALG_FILCHR',
      338    10253    1            'SPCBFRPRT',
      339    10254    1            'WRAPPAGE',
      340    10255    1            'LIMBOCLM',
      341    10256    1            'LOCALECHO',
      342    10257    1            'PARKCURSOR',
      343    10258    1            ' ',
      344    10259    1            'RECEIVE SIZE',
      345    10260    1            'RECEIVE THR',
      346    10261    1            'RECEIVE WIN',
      347    10262    1            'RESPOND TO COMPLETE',
      348    10263    1            'SEND SIZE',
      349    10264    1            'SEND THR',
      350    10265    1            'SEND WINDOW',
      351    10266    1            'FAST SELECT ACCEPT',
      352    10267    1            'RESP TIMER',
      353    10268    1            'EXTSRD_CHR',
      354    10269    1            'FF_FLUSH',
      355    10270    1            'MSGLIN_CHR',
      356    10271    1            'ENDMSGLIN_CHR',
      357    10272    1            'SPCDLTFLD',
      358    10273    1            'EL0DLTFLD',
      359    10274    1            'ED0DLTFLD',
      360    10275    1            'ED2DLTFLD',
      361    10276    1            'ICHRQRDCH',
      362    10277    1            'ILNRQRDLN',
PL6.E3A0      #001=AS_SUPER_D File=AS_SUPER_D.:E05TSI                            TUE 07/29/97 10:59 Page:118
      363    10278    1            'FRSCLMFLD',
      364    10279    1            'MSGHALT',
      365    10280    1            'MSGLINE',
      366    10281    1            'INSERTMODE',
      367    10282    1            'HSCROLL',
      368    10283    1            'WORDWRAPCLM',
      369    10284    1            'AUTOTABCLM',
      370    10285    1            'SETUP_CHR',
      371    10286    1            'DCHMOVFLD',
      372    10287    1            'DSPHEIGHT',
      373    10288    1            'RGNSCROLL',
      374    10289    1            'EXTENDED SEQUENCE',
      375    10290    1            'CHARGE INFO',
      376    10291    1            'TRANSIT DELAY',
      377    10292    1            'RESET TIMEOUT',
      378    10293    1            'RESET RETRIES',
      379    10294    1            'CLEAR TIMEOUT',
      380    10295    1            'CLEAR RETRIES',
      381    10296    1            'DATA TIMEOUT',
      382    10297    1            'DATA RETRIES',
      383    10298    1            'INTERRUPT TIMEOUT',
      384    10299    1            'IDLE TIMEOUT',
      385    10300    1            'CALL TIMEOUT',
      386    10301    1            'CALL RETRIES',
      387    10302    1            'CALL DELAY',
      388    10303    1            'CURSORREAD',
      389    10304    1            'AUTOCURSOR',
      390    10305    1            'KEEPTYPAHD',
      391    10306    1            'FF_INCCR',
      392    10307    1            'MICROFPL',
      393    10308    1            'TABS',
      394    10309    1            'GR_FPRG',
      395    10310    1            'GR_GLBLCOLORS',
      396    10311    1            'GR_GLBLINTEN',
      397    10312    1            'GR_MAXPICK',
      398    10313    1            'GR_XSPACE',
      399    10314    1            'GR_YSPACE',
PL6.E3A0      #001=AS_SUPER_D File=AS_SUPER_D.:E05TSI                            TUE 07/29/97 10:59 Page:119
      400    10315    1            'GR_ZSPACE',
      401    10316    1            'GR_NDCWSPACE',
      402    10317    1            'GR_NDCHSPACE',
      403    10318    1            'GR_NDCDSPACE',
      404    10319    1            'GR_NDCDCHARS',
      405    10320    1            'GR_NDCHCHARS',
      406    10321    1            'GR_NDCWCHARS',
      407    10322    1            'GR_WIDTHUSE',
      408    10323    1            'GR_HEIGHTUSE',
      409    10324    1            'GR_DEPTHUSE',
      410    10325    1            'GR_NDCDCURRENT',
      411    10326    1            'GR_NDCHCURRENT',
      412    10327    1            'GR_NDCWCURRENT',
      413    10328    1            'GR_MINLINEWIDTH',
      414    10329    1            'GR_MAXLINEWIDTH',
      415    10330    1            'GR_MINCHSIZE',
      416    10331    1            'GR_MAXCHSIZE',
      417    10332    1            'GR_ESCAPE',
      418    10333    1            'GR_VIEWSURFACE',
      419    10334    1            'GR_POLYGONFILL PLA',
      420    10335    1            'GR_POLYGONFILL SHA',
      421    10336    1            'GR_POLYGONFILL PAT',
      422    10337    1            'GR_XPIXMAX',
      423    10338    1            'GR_YPIXMAX',
      424    10339    1            'GR_COLRTABSIZE',
      425    10340    1            'GR_INTNTABSIZE',
      426    10341    1            'GR_LINESTYLEHWCOUNT',
      427    10342    1            'GR_LINEWCOUNT',
      428    10343    1            'GR_FONTCOUNT',
      429    10344    1            'GR_PENHWCOUNT',
      430    10345    1            'GR_CHSIZECOUNT',
      431    10346    1            'GR_MARKERHWCOUNT',
      432    10347    1            'GR_LINEWSUPPORT',
      433    10348    1            'GR_MARKERSWCOUNT',
      434    10349    1            'GR_INTNSUPPORT',
      435    10350    1            'GR_CHSIZESUPPORT',
      436    10351    1            'GR_HIGHLTSUPPORT',
PL6.E3A0      #001=AS_SUPER_D File=AS_SUPER_D.:E05TSI                            TUE 07/29/97 10:59 Page:120
      437    10352    1            'GR_OUTLEVEL',
      438    10353    1            'GR_BATCHMODE',
      439    10354    1            'GR_HIDDENLEVEL',
      440    10355    1            'GR_DIMLEVEL',
      441    10356    1            'GR_VIEWTYPE',
      442    10357    1            'GR_PIXELTYPE',
      443    10358    1            'GR_EDGETYPE',
      444    10359    1            'GR_COLRTABTYPE',
      445    10360    1            'GR_BKGRNDTYPE',
      446    10361    1            'GR_DEVTYPE',
      447    10362    1            'GR_IMAGETRANS',
      448    10363    1            'GR_COLRMODEL',
      449    10364    1            'GR_BKGRNDCOLOR',
      450    10365    1            'GR_COLRACTION',
      451    10366    1            'GR_INTNACTION',
      452    10367    1            'GR_LINESTYLESWCOUNT',
      453    10368    1            'GR_PENSWCOUNT',
      454    10369    1            'FUNCTION',
      455    10370    1            ' '*0),
      456    10371    1          2 TYP BIT(9) UNAL INIT
      457    10372    1   /*  0*/('000001001'B, '000011001'B, '000001001'B, '000001001'B, '000011011'B,
      458    10373    1   /*  5*/ '000001001'B, '000001001'B, '000001000'B, '000001000'B, '000001001'B,
      459    10374    1   /* 10*/ '000001001'B, '000001001'B, '000001001'B, '000001001'B, '000001001'B,
      460    10375    1   /* 15*/ '000001001'B, '000001001'B, '000001001'B, '000001001'B, '000011011'B,
      461    10376    1   /* 20*/ '000001001'B, '000011001'B, '000001001'B, '000011011'B, '010100000'B,
      462    10377    1   /* 25*/ '000001001'B, '000001001'B, '000011011'B, '000001001'B, '000001001'B,
      463    10378    1   /* 30*/ '000001001'B, '000001001'B, '000011011'B, '000001001'B, '000001001'B,
      464    10379    1   /* 35*/ '000001001'B, '000001001'B, '000001001'B, '000001001'B, '000001011'B,
      465    10380    1   /* 40*/ '000001001'B, '000011011'B, '000001001'B, '000011011'B, '000011001'B,
      466    10381    1   /* 45*/ '000001001'B, '000011011'B, '010100000'B, '010100000'B, '010100000'B,
      467    10382    1   /* 50*/ '000001001'B, '000011011'B, '000001001'B, '000011011'B, '000011011'B,
      468    10383    1   /* 55*/ '000011011'B, '000011001'B, '010100000'B, '000001001'B, '000001001'B,
      469    10384    1   /* 60*/ '000001000'B, '000001000'B, '000001000'B, '000001000'B, '000001000'B,
      470    10385    1   /* 65*/ '000001000'B, '000001000'B, '000001000'B, '000001000'B, '000001000'B,
      471    10386    1   /* 70*/ '000001000'B, '000001000'B, '000001000'B, '000001000'B, '000001000'B,
      472    10387    1   /* 75*/ '000001000'B, '000001000'B, '000001000'B, '000001001'B, '000011011'B,
      473    10388    1   /* 80*/ '010100000'B, '010100000'B, '000001000'B, '000001000'B, '000001000'B,
PL6.E3A0      #001=AS_SUPER_D File=AS_SUPER_D.:E05TSI                            TUE 07/29/97 10:59 Page:121
      474    10389    1   /* 85*/ '000001001'B, '010100000'B, '000001000'B, '010100000'B, '000001000'B,
      475    10390    1   /* 90*/ '000001000'B, '000001000'B, '000001000'B, '000001000'B, '000001000'B ,
      476    10391    1   /* 95*/ '000001000'B, '000001000'B, '000001000'B, '000001001'B, '000001000'B ,
      477    10392    1   /*100*/ '000001000'B, '000001000'B, '000001000'B, '000001000'B, '000001000'B,
      478    10393    1   /*105*/ '010100000'B, '010100000'B, '010100000'B, '010100000'B, '000000100'B,
      479    10394    1   /*110*/ '000000100'B, '000000100'B, '000000100'B, '010100000'B, '000000100'B,
      480    10395    1   /*115*/ '001000100'B, '010100000'B, '010100000'B, '000000100'B, '001000100'B,
      481    10396    1   /*120*/ '000000100'B, '000000100'B, '000001000'B, '000001000'B, '000001000'B,
      482    10397    1   /*125*/ '000001000'B, '000001000'B, '000001000'B, '000001000'B, '000001000'B,
      483    10398    1   /*130*/ '000001000'B, '000001000'B, '000001000'B, '000001000'B, '000001000'B,
      484    10399    1   /*135*/ '000001000'B, '000001000'B, '000001000'B, '000001000'B, '000001000'B,
      485    10400    1   /*140*/ '000001000'B, '000001000'B, '000001000'B, '000001000'B, '000001000'B,
      486    10401    1   /*145*/ '000001000'B, '000001000'B, '000001000'B, '000001000'B, '000001000'B,
      487    10402    1   /*150*/ '000001000'B, '000001000'B, '000001000'B, '000001001'B, '000001001'B,
      488    10403    1   /*155*/ '000001001'B, '000001001'B, '000001001'B, '000001001'B, '000001001'B,
      489    10404    1   /*160*/ '000001001'B, '000001001'B, '000001000'B, '000010000'B, '000001001'B,
      490    10405    1   /*165*/ '000001001'B, '000001001'B, '000001001'B, '001000000'B, '001000000'B,
      491    10406    1   /*170*/ '001000000'B, '001000000'B, '001000000'B, '001000000'B, '001000000'B,
      492    10407    1   /*175*/ '001000000'B,  '000000100'B, '001000000'B, '000001000'B,
      493    10408    1   /*179*/ '000001001'B, '000001000'B, '000001000'B, '000001000'B, '000001000'B,
      494    10409    1   /*184*/ '000001000'B, '000001000'B, '000001000'B, '000001000'B, '000001000'B,
      495    10410    1   /*189*/ '000001001'B, '000001000'B, '000001001'B, '000001000'B, '000001001'B,
      496    10411    1   /*194*/ '000001000'B, '000001001'B, '000001001'B, '000001001'B, '000001000'B,
      497    10412    1   /*199*/ '001000100'B, '001000100'B, '001000000'B, '001000000'B, '001000000'B,
      498    10413    1   /*204*/ '001000000'B, '001000000'B, '001000000'B, '001000000'B, '001000000'B,
      499    10414    1   /*209*/ '001000100'B, '001000000'B, '001000000'B, '001000000'B,
      500    10415    1   /*213*/ '000001001'B, '000001001'B, '000001001'B, '000001001'B, '000001001'B,
      501    10416    1   /*218*/ '000001001'B, '000011011'B, '000011011'B, '000011011'B, '000011011'B,
      502    10417    1   /*223*/ '000011011'B, '000011011'B, '000011011'B, '000011011'B, '000011011'B,
      503    10418    1   /*228*/ '000011011'B, '000011011'B, '000011011'B, '000011011'B, '000011011'B,
      504    10419    1   /*233*/ '000011011'B, '000011011'B, '000011011'B, '000011011'B, '000011011'B,
      505    10420    1   /*238*/ '000011011'B, '000011011'B, '000011011'B, '000011011'B, '000011011'B,
      506    10421    1   /*243*/ '000011011'B, '000011011'B, '000011011'B, '000011011'B, '000011011'B,
      507    10422    1   /*248*/ '000011011'B, '000011011'B, '000011011'B, '000011011'B, '000011011'B,
      508    10423    1   /*253*/ '000011011'B, '000011011'B, '000011011'B, '000011011'B, '000011011'B,
      509    10424    1   /*258*/ '000011011'B, '000011011'B, '000011011'B, '000011011'B, '000011011'B,
      510    10425    1   /*263*/ '000011011'B, '000011011'B, '000011011'B, '000011011'B, '000011011'B,
PL6.E3A0      #001=AS_SUPER_D File=AS_SUPER_D.:E05TSI                            TUE 07/29/97 10:59 Page:122
      511    10426    1   /*268*/ '000011011'B, '000011011'B, '000011011'B, '000011011'B, '000011011'B,
      512    10427    1   /*273*/ '000011011'B, '000011011'B, '000011011'B, '000011011'B, '000011011'B,
      513    10428    1   /*278*/ '000011011'B, '000001000'B,
      514    10429    1   /*280*/ '000001001'B*0),
      515    10430    1          2 ORDR UBIN BYTE UNAL INIT /* Alphabetical order */
      516    10431    1        (L_ABSGRPRND_EMPHASIS           ,
      517    10432    1         L_ABSGRPRND_ERROR              ,
      518    10433    1         L_ABSGRPRND_HIDDEN             ,
      519    10434    1         L_ABSGRPRND_INPUT              ,
      520    10435    1         L_ABSGRPRND_NULL               ,
      521    10436    1         L_ABSGRPRND_OUTPUT             ,
      522    10437    1         L_ABSGRPRND_WARNING            ,
      523    10438    1         L_ACTONTRN                     ,
      524    10439    1         L_APL                          ,
      525    10440    1         L_APLLCNRM                     ,
      526    10441    1         L_ATRSCRNPOS                   ,
      527    10442    1         L_AUTONL                       ,
      528    10443    1         L_AUTOCURSOR                   ,
      529    10444    1         L_AUTOTABCLM                   ,
      530    10445    1         L_AWIDTH                       ,
      531    10446    1         L_BIN                          ,
      532    10447    1         L_BLANKERASES                  ,
      533    10448    1         L_BLKBYTES                     ,
      534    10449    1         L_BLKRECS                      ,
      535    10450    1         L_BS_TIM                       ,
      536    10451    1         L_CALLS                        ,
      537    10452    1         L_CALL_DELAY                   ,
      538    10453    1         L_CALL_RETRYS                  ,
      539    10454    1         L_CALL_TIM                     ,
      540    10455    1         L_CHARSETNAME                  ,
      541    10456    1         L_CHA_INFO                     ,
      542    10457    1         L_CLEAR_RETRYS                 ,
      543    10458    1         L_CLEAR_TIM                    ,
      544    10459    1         L_COMPRESS                     ,
      545    10460    1         L_CRISNL                       ,
      546    10461    1         L_CUB_CHR                      ,
      547    10462    1         L_CUD_CHR                      ,
PL6.E3A0      #001=AS_SUPER_D File=AS_SUPER_D.:E05TSI                            TUE 07/29/97 10:59 Page:123
      548    10463    1         L_CUF_CHR                      ,
      549    10464    1         L_CUP_ALG                      ,
      550    10465    1         L_CUP_BIS                      ,
      551    10466    1         L_CUP_CHR                      ,
      552    10467    1         L_CUP_CLMFRS                   ,
      553    10468    1         L_CUP_CMP                      ,
      554    10469    1         L_CURSORREAD                   ,
      555    10470    1         L_CURSORUP                     ,
      556    10471    1         L_CUU_CHR                      ,
      557    10472    1         L_DAQINP_CHR                   ,
      558    10473    1         L_DAQINTRO_CHR                 ,
      559    10474    1         L_DAQPRTGRD_CHR                ,
      560    10475    1         L_DAQPRT_CHR                   ,
      561    10476    1         L_DAQ_ALG                      ,
      562    10477    1         L_DATA_RETRYS                  ,
      563    10478    1         L_DATA_TIM                     ,
      564    10479    1         L_DCHMOVFLD                    ,
      565    10480    1         L_DCH_CHR                      ,
      566    10481    1         L_DCLFLD_ALG                   ,
      567    10482    1         L_DCLFRM_CHR                   ,
      568    10483    1         L_DELAYS                       ,
      569    10484    1         L_DEVICEBS                     ,
      570    10485    1         L_DEVICECR                     ,
      571    10486    1         L_DEVICELF                     ,
      572    10487    1         L_DEVPOSOPTS                   ,
      573    10488    1         L_DEVSCROLL                    ,
      574    10489    1         L_DFLTPRTMODE                  ,
      575    10490    1         L_DISPINPUT                    ,
      576    10491    1         L_DLTALLFLDS_CHR               ,
      577    10492    1         L_DLTFLD_CHR                   ,
      578    10493    1         L_DLTLIN_CHR                   ,
      579    10494    1         L_DSPHEIGHT                    ,
      580    10495    1         L_DVCFLWCTRALG                 ,
      581    10496    1         L_DVCOTPBFRSIZ                 ,
      582    10497    1         L_ED0_CHR                      ,
      583    10498    1         L_ED0DLTFLD                    ,
      584    10499    1         L_ED2_CHR                      ,
PL6.E3A0      #001=AS_SUPER_D File=AS_SUPER_D.:E05TSI                            TUE 07/29/97 10:59 Page:124
      585    10500    1         L_ED2DLTFLD                    ,
      586    10501    1         L_EDITOVR                      ,
      587    10502    1         L_EL0_CHR                      ,
      588    10503    1         L_EL0DLTFLD                    ,
      589    10504    1         L_EMCHR                        ,
      590    10505    1         L_ENDDCLFRM_CHR                ,
      591    10506    1         L_ENDMSGLIN_CHR                ,
      592    10507    1         L_ERASEFLD_CHR                 ,
      593    10508    1         L_ERRDUPBLK                    ,
      594    10509    1         L_ERSTIM                       ,
      595    10510    1         L_EWALT                        ,
      596    10511    1         L_EXTSRD_CHR                   ,
      597    10512    1         L_EXT_SEQ                      ,
      598    10513    1         L_FAST_SEL_ACC                 ,
      599    10514    1         L_FCNTBL                       ,
      600    10515    1         L_FF_FLUSH                     ,
      601    10516    1         L_FF_INCCR                     ,
      602    10517    1         L_FIRSTLINE                    ,
      603    10518    1         L_FLDTRM                       ,
      604    10519    1         L_FRAME                        ,
      605    10520    1         L_FRMFED_CHR                   ,
      606    10521    1         L_FRSCLMFLD                    ,
      607    10522    1         L_FULLDUXPAPERTAPE             ,
      608    10523    1         L_HALFDUXPAPERTAPE             ,
      609    10524    1         L_HEIGHT                       ,
      610    10525    1         L_HOM_CHR                      ,
      611    10526    1         L_HPA_ALG                      ,
      612    10527    1         L_HSCROLL                      ,
      613    10528    1         L_HTS_CHR                      ,
      614    10529    1         L_ICHRQRDCH                    ,
      615    10530    1         L_ICH_CHR                      ,
      616    10531    1         L_IDLE_TIM                     ,
      617    10532    1         L_ILNRQRDLN                    ,
      618    10533    1         L_INPUT                        ,
      619    10534    1         L_INPUTIGNORE                  ,
      620    10535    1         L_INSLIN_CHR                   ,
      621    10536    1         L_INSERTMODE                   ,
PL6.E3A0      #001=AS_SUPER_D File=AS_SUPER_D.:E05TSI                            TUE 07/29/97 10:59 Page:125
      622    10537    1         L_INTERVAL                     ,
      623    10538    1         L_INT_TIM                      ,
      624    10539    1         L_IRSCHR                       ,
      625    10540    1         L_KEEPTYPAHD                   ,
      626    10541    1         L_LENGTH                       ,
      627    10542    1         L_LFISNL                       ,
      628    10543    1         L_LIMBO                        ,
      629    10544    1         L_LIMBOCLM                     ,
      630    10545    1         L_LOCALECHO                    ,
      631    10546    1         L_LOWERCASE                    ,
      632    10547    1         L_LOWERCASEPRINTS              ,
      633    10548    1         L_LSTRECCTN                    ,
      634    10549    1         L_MAXATRS                      ,
      635    10550    1         L_MAXWINDOW                    ,
      636    10551    1         L_MSGHALT                      ,
      637    10552    1         L_MSGLINE                      ,
      638    10553    1         L_MSGLIN_CHR                   ,
      639    10554    1         L_MICROFPL                     ,
      640    10555    1         L_MINREC                       ,
      641    10556    1         L_MINVIRCIR                    ,
      642    10557    1         L_MULSTRM                      ,
      643    10558    1         L_NOOPTMIZ                     ,
      644    10559    1         L_OPDTAB                       ,
      645    10560    1         L_OUTPUT                       ,
      646    10561    1         L_OUTPUTDISCARD                ,
      647    10562    1         L_PADSIGNON                    ,
      648    10563    1         L_PAGEHALT                     ,
      649    10564    1         L_PARITY                       ,
      650    10565    1         L_PARITYCHECK                  ,
      651    10566    1         L_PARKCURSOR                   ,
      652    10567    1         L_PRINTHALT                    ,
      653    10568    1         L_PRINTTYPE                    ,
      654    10569    1         L_PROGDTAB                     ,
      655    10570    1         L_PROTYP                       ,
      656    10571    1         L_PWIDTH                       ,
      657    10572    1         L_RECSZ                        ,
      658    10573    1         L_RECTHR                       ,
PL6.E3A0      #001=AS_SUPER_D File=AS_SUPER_D.:E05TSI                            TUE 07/29/97 10:59 Page:126
      659    10574    1         L_RECWND                       ,
      660    10575    1         L_RELPAGE                      ,
      661    10576    1         L_RESCMP                       ,
      662    10577    1         L_RESET_RETRYS                 ,
      663    10578    1         L_RESET_TIM                    ,
      664    10579    1         L_RESPDELAY                    ,
      665    10580    1         L_RESTART_RETRYS               ,
      666    10581    1         L_RESTART_TIM                  ,
      667    10582    1         L_RESTMR                       ,
      668    10583    1         L_RESTORE_DFLTSCRN_CHR         ,
      669    10584    1         L_RETRANS                      ,
      670    10585    1         L_RETRYS                       ,
      671    10586    1         L_RETYPOVR                     ,
      672    10587    1         L_REVERSE                      ,
      673    10588    1         L_RGNSCROLL                    ,
      674    10589    1         L_RRR                          ,
      675    10590    1         L_RSTINSMOD_CHR                ,
      676    10591    1         L_SCROLL                       ,
      677    10592    1         L_SENDBKSPACE                  ,
      678    10593    1         L_SETFRMLNG_CHR                ,
      679    10594    1         L_SETUP_CHR                    ,
      680    10595    1         L_SGRDCRINT_CHR                ,
      681    10596    1         L_SGRFSTBLN_CHR                ,
      682    10597    1         L_SGRHDN_CHR                   ,
      683    10598    1         L_SGRINCDAQ                    ,
      684    10599    1         L_SGRINCINT_CHR                ,
      685    10600    1         L_SGRINP_CHR                   ,
      686    10601    1         L_SGRINTRO_CHR                 ,
      687    10602    1         L_SGRPRTGRD_CHR                ,
      688    10603    1         L_SGRPRT_CHR                   ,
      689    10604    1         L_SGRRVRVID_CHR                ,
      690    10605    1         L_SGRSLWBLN_CHR                ,
      691    10606    1         L_SGRUNDSCR_CHR                ,
      692    10607    1         L_SGR_ALG                      ,
      693    10608    1         L_SIMPERF                      ,
      694    10609    1         L_SINPUTSZ                     ,
      695    10610    1         L_SIOPT                        ,
PL6.E3A0      #001=AS_SUPER_D File=AS_SUPER_D.:E05TSI                            TUE 07/29/97 10:59 Page:127
      696    10611    1         L_SLC                          ,
      697    10612    1         L_SLCALLBLK                    ,
      698    10613    1         L_SNDSZ                        ,
      699    10614    1         L_SNDTHR                       ,
      700    10615    1         L_SNDWND                       ,
      701    10616    1         L_SPACEINSERT                  ,
      702    10617    1         L_SPCDLTFLD                    ,
      703    10618    1         L_SPCBFRPRT                    ,
      704    10619    1         L_SPEED                        ,
      705    10620    1         L_TABRELATIVE                  ,
      706    10621    1         L_TABS                         ,
      707    10622    1         L_TABSIM                       ,
      708    10623    1         L_TBC3_CHR                     ,
      709    10624    1         L_TIMAFTCTRFNC                 ,
      710    10625    1         L_TIMEOUT                      ,
      711    10626    1         L_TMNALG_AFTCR                 ,
      712    10627    1         L_TMNALG_AFTCUP                ,
      713    10628    1         L_TMNALG_AFTHPA                ,
      714    10629    1         L_TMNALG_AFTHT                 ,
      715    10630    1         L_TMNALG_AFTLF                 ,
      716    10631    1         L_TMNALG_BFRCR                 ,
      717    10632    1         L_TMNALG_BFRLF                 ,
      718    10633    1         L_TMNALG_FILCHR                ,
      719    10634    1         L_TMNALG_PRM1                  ,
      720    10635    1         L_TMNALG_PRM2                  ,
      721    10636    1         L_TMNALG_PRM3                  ,
      722    10637    1         L_TMNALG_PRM4                  ,
      723    10638    1         L_TMNALG_PRM5                  ,
      724    10639    1         L_TMNALG_PRM6                  ,
      725    10640    1         L_TMNALG_PRM7                  ,
      726    10641    1         L_TMNALG_PRM8                  ,
      727    10642    1         L_TRANS_DEL                    ,
      728    10643    1         L_TRUNCATE                     ,
      729    10644    1         L_TRUOVRPRT                    ,
      730    10645    1         L_TTYTYPE                      ,
      731    10646    1         L_UPPERCASE                    ,
      732    10647    1         L_WINDOW                       ,
PL6.E3A0      #001=AS_SUPER_D File=AS_SUPER_D.:E05TSI                            TUE 07/29/97 10:59 Page:128
      733    10648    1         L_WORDWRAPCLM                  ,
      734    10649    1         L_WRAPPAGE                     ,
      735    10650    1         L_GR_FPRG                      ,
      736    10651    1         L_GR_BATCHMODE                 ,
      737    10652    1         L_GR_BKGRNDCOLOR               ,
      738    10653    1         L_GR_BKGRNDTYPE                ,
      739    10654    1         L_GR_CHSIZECOUNT               ,
      740    10655    1         L_GR_CHSIZESUPPORT             ,
      741    10656    1         L_GR_COLRACTION                ,
      742    10657    1         L_GR_COLRMODEL                 ,
      743    10658    1         L_GR_COLRTABSIZE               ,
      744    10659    1         L_GR_COLRTABTYPE               ,
      745    10660    1         L_GR_DEPTHUSE                  ,
      746    10661    1         L_GR_DEVTYPE                   ,
      747    10662    1         L_GR_DIMLEVEL                  ,
      748    10663    1         L_GR_EDGETYPE                  ,
      749    10664    1         L_GR_ESCAPE                    ,
      750    10665    1         L_GR_FONTCOUNT                 ,
      751    10666    1         L_GR_GLBLCOLORS                ,
      752    10667    1         L_GR_GLBLINTENSITIES           ,
      753    10668    1         L_GR_HEIGHTUSE                 ,
      754    10669    1         L_GR_HIDDENLEVEL               ,
      755    10670    1         L_GR_HIGHLTSUPPORT             ,
      756    10671    1         L_GR_IMAGETRANS                ,
      757    10672    1         L_GR_INTNACTION                ,
      758    10673    1         L_GR_INTNSUPPORT               ,
      759    10674    1         L_GR_INTNTABSIZE               ,
      760    10675    1         L_GR_LINESTYLEHWCOUNT          ,
      761    10676    1         L_GR_LINESTYLESWCOUNT          ,
      762    10677    1         L_GR_LINEWCOUNT                ,
      763    10678    1         L_GR_LINEWSUPPORT              ,
      764    10679    1         L_GR_MARKERHWCOUNT             ,
      765    10680    1         L_GR_MARKERSWCOUNT             ,
      766    10681    1         L_GR_MAXCHSIZE                 ,
      767    10682    1         L_GR_MAXLINEWIDTH              ,
      768    10683    1         L_GR_MAXPICK                   ,
      769    10684    1         L_GR_MINCHSIZE                 ,
PL6.E3A0      #001=AS_SUPER_D File=AS_SUPER_D.:E05TSI                            TUE 07/29/97 10:59 Page:129
      770    10685    1         L_GR_MINLINEWIDTH              ,
      771    10686    1         L_GR_NDCDCHARS                 ,
      772    10687    1         L_GR_NDCDCURRENT               ,
      773    10688    1         L_GR_NDCDSPACE                 ,
      774    10689    1         L_GR_NDCHCHARS                 ,
      775    10690    1         L_GR_NDCHCURRENT               ,
      776    10691    1         L_GR_NDCHSPACE                 ,
      777    10692    1         L_GR_NDCWCHARS                 ,
      778    10693    1         L_GR_NDCWCURRENT               ,
      779    10694    1         L_GR_NDCWSPACE                 ,
      780    10695    1         L_GR_OUTLEVEL                  ,
      781    10696    1         L_GR_PENHWCOUNT                ,
      782    10697    1         L_GR_PENSWCOUNT                ,
      783    10698    1         L_GR_PIXELTYPE                 ,
      784    10699    1         L_GR_POLYGONFILL               ,
      785    10700    1         L_GR_POLYGONFILL_PA            ,
      786    10701    1         L_GR_POLYGONFILL_SH            ,
      787    10702    1         L_GR_VIEWSURFACE               ,
      788    10703    1         L_GR_VIEWTYPE                  ,
      789    10704    1         L_GR_WIDTHUSE                  ,
      790    10705    1         L_GR_XPIXMAX                   ,
      791    10706    1         L_GR_XSPACE                    ,
      792    10707    1         L_GR_YPIXMAX                   ,
      793    10708    1         L_GR_YSPACE                    ,
      794    10709    1         L_GR_ZSPACE                    ,
      795    10710    1         L_FUNCTION_KEY                 ,
      796    10711    1           0*0 ),
      797    10712    1          2 POS CHAR(8)  UNAL INIT /* Ordered by SUB# from AS_SUBS_C */
      798    10713    1           ('..3.1'      /*Actontrn*/,
      799    10714    1            '..3.3'      /*Apl*/,
      800    10715    1            '..3.3'      /*Apllcnrm*/,
      801    10716    1            '..1.7'      /*Autonl*/,
      802    10717    1            '..3.5'      /*Bin*/,
      803    10718    1            '..2.5'      /*Blankerases*/,
      804    10719    1            '..2.1'      /*Crisnl*/,
      805    10720    1            '.9..1'      /*CUP_CLMFRS*/,
      806    10721    1            '.9..2'      /*CUP_CMP*/,
PL6.E3A0      #001=AS_SUPER_D File=AS_SUPER_D.:E05TSI                            TUE 07/29/97 10:59 Page:130
      807    10722    1            '...7'      /*Cursorup*/,
      808    10723    1            '..1.5'      /*Devicebs*/,
      809    10724    1            '..1.1'      /*Devicecr*/,
      810    10725    1            '..1.3'      /*Devicelf*/,
      811    10726    1            '..2.7'      /*Devposopts*/,
      812    10727    1            '...5'      /*Devscroll*/,
      813    10728    1            '..1.1'      /*Dispinput*/,
      814    10729    1            '..3.7'      /*Editovr*/,
      815    10730    1            '..2.5'      /*Fullduxpapertape*/,
      816    10731    1            '..2.7'      /*Halfduxpapertape*/,
      817    10732    1            '.1.1.1'      /*Input*/,
      818    10733    1            '..1.5'      /*Inputignore*/,
      819    10734    1            '..2.3'      /*Lfisnl*/,
      820    10735    1            '..2.3'      /*Lowercase*/,
      821    10736    1            '..3.7'      /*Lowercaseprints*/,
      822    10737    1            '.1.2.1'      /*Mulstrm*/,
      823    10738    1            '.1.1.5'      /*Nooptmiz*/,
      824    10739    1            '...3'      /*Opdtab*/,
      825    10740    1            '.1.1.3'      /*Output*/,
      826    10741    1            '..1.7'      /*Outputdiscard*/,
      827    10742    1            '.1..3'      /*Pagehalt*/,
      828    10743    1            '..1.3'      /*Paritycheck*/,
      829    10744    1            '.1..5'      /*Printhalt*/,
      830    10745    1            '.1.1.5'      /*Printtype*/,
      831    10746    1            '...1'      /*Progdtab*/,
      832    10747    1            '.1..7'      /*Relpage*/,
      833    10748    1            '..3.5'      /*Retypovr*/,
      834    10749    1            '.1..1'      /*Scroll*/,
      835    10750    1            '...7'      /*Sendbkspace*/,
      836    10751    1            '.1.1.1'      /*Simperf*/,
      837    10752    1            '...5'      /*Spaceinsert*/,
      838    10753    1            '...3'      /*Tabrelative*/,
      839    10754    1            '...1'      /*Tabsim*/,
      840    10755    1            '.1.1.3'      /*Truncate*/,
      841    10756    1            '..3.1'      /*Truovrprt*/,
      842    10757    1            '.1.1.7'      /*Ttytype*/,
      843    10758    1            '..2.1'      /*Uppercase*/,
PL6.E3A0      #001=AS_SUPER_D File=AS_SUPER_D.:E05TSI                            TUE 07/29/97 10:59 Page:131
      844    10759    1            '0'            /*Awidth*/,
      845    10760    1            '0'            /*Blkbytes*/,
      846    10761    1            '..1'        /*Blkrecs*/,
      847    10762    1            '.1.1'        /*Delays*/,
      848    10763    1            '0'            /*Dvcotpbfrsiz*/,
      849    10764    1            '..3.1'      /*Firstline*/,
      850    10765    1            '.2..1'      /*Height*/,
      851    10766    1            '..1.1'      /*Length*/,
      852    10767    1            '..2.1'      /*Limbo*/,
      853    10768    1            '0'            /*Pwidth*/,
      854    10769    1            '.2.1.1'      /*Minrec*/,
      855    10770    1            '.1'          /*Retrys*/,
      856    10771    1            '.1.2.1'      /*Sinputsz*/,
      857    10772    1            '.2.2.1'      /*Speed*/,
      858    10773    1            '.1.1'        /*TMNALG_AFTCUP*/,
      859    10774    1            '0'            /*TMNALG_AFTCR*/,
      860    10775    1            '.1.2'        /*TMNALG_AFTHPA*/,
      861    10776    1            '.1'          /*TMNALG_AFTHT*/,
      862    10777    1            '..2'        /*TMNALG_AFTLF*/,
      863    10778    1            '..1'        /*TMNALG_BFRCR*/,
      864    10779    1            '..3'        /*TMNALG_BFRLF*/,
      865    10780    1            '0'            /*BS_TIM*/,
      866    10781    1            '0'            /*Erstim*/,
      867    10782    1            '0'            /*Timaftctrfnc*/,
      868    10783    1            '0'            /*TMNALG_PRM1*/,
      869    10784    1            '0'            /*TMNALG_PRM2*/,
      870    10785    1            '0'            /*TMNALG_PRM3*/,
      871    10786    1            '0'            /*TMNALG_PRM4*/,
      872    10787    1            '0'            /*TMNALG_PRM5*/,
      873    10788    1            '0'            /*TMNALG_PRM6*/,
      874    10789    1            '0'            /*TMNALG_PRM7*/,
      875    10790    1            '0'            /*TMNALG_PRM8*/,
      876    10791    1            '0'            /*Fcntbl*/,
      877    10792    1            '0'            /*Charsetname*/,
      878    10793    1            '.2.2'        /*Emchr*/,
      879    10794    1            '.2.3'        /*Irschr*/,
      880    10795    1            '.8.2'        /*CUP_ALG*/,
PL6.E3A0      #001=AS_SUPER_D File=AS_SUPER_D.:E05TSI                            TUE 07/29/97 10:59 Page:132
      881    10796    1            '.2.3.6'      /*Dvcflwctralg*/,
      882    10797    1            '.8.1'        /*HPA_ALG*/,
      883    10798    1            '.1..6'      /*Parity*/,
      884    10799    1            '0'            /*Protyp*/,
      885    10800    1            '.8.3'        /*CUP_BIS*/,
      886    10801    1            '.3..1'      /*Lstrecctn*/,
      887    10802    1            '0'            /*CUB_CHR*/,
      888    10803    1            '0'            /*CUD_CHR*/,
      889    10804    1            '0'            /*CUF_CHR*/,
      890    10805    1            '0'            /*CUP_CHR*/,
      891    10806    1            '0'            /*CUU_CHR*/,
      892    10807    1            '0'            /*DCH_CHR*/,
      893    10808    1            '0'            /*ED0_CHR*/,
      894    10809    1            '0'            /*ED2_CHR*/,
      895    10810    1            '0'            /*EL0_CHR*/,
      896    10811    1            '0'            /*FRMFED_CHR*/,
      897    10812    1            '0'            /*HOM_CHR*/,
      898    10813    1            '0'            /*HTS_CHR*/,
      899    10814    1            '0'            /*ICH_CHR*/,
      900    10815    1            '0'            /*RSTINSMOD_CHR*/,
      901    10816    1            '0'            /*SETFRMLNG_CHR*/,
      902    10817    1            '0'            /*TBC3_CHR*/,
      903    10818    1            '.3..2'      /*Errdupblk*/,
      904    10819    1            '.3..3'      /*Rrr*/,
      905    10820    1            '.2'          /*Interval*/,
      906    10821    1            '.2.1.3'      /*Compress*/,
      907    10822    1            '.1'          /*Timeout*/,
      908    10823    1            '..3'        /*Retransmissions*/,
      909    10824    1            '.1.1'        /*Window*/,
      910    10825    1            '...3'      /*Frame*/,
      911    10826    1            '.3..4'      /*Slc*/,
      912    10827    1            '...1'      /*Calls*/,
      913    10828    1            '0'            /*Reverse*/,
      914    10829    1            '.3..5'      /*Slcallblk*/,
      915    10830    1            '.3..6'      /*Padsignon*/,
      916    10831    1            '..2.2'      /*Max window*/,
      917    10832    1            '0'            /*Response delay*/,
PL6.E3A0      #001=AS_SUPER_D File=AS_SUPER_D.:E05TSI                            TUE 07/29/97 10:59 Page:133
      918    10833    1            '.1.2'        /*Restart timeout*/,
      919    10834    1            '.1.3'        /*Restart retries*/,
      920    10835    1            '.7'          /*Maxatrs*/,
      921    10836    1            '.1.2.3'      /*Atrscrnpos*/,
      922    10837    1            '.9.2'        /*SGR_ALG*/,
      923    10838    1            '.9.3'        /*DAQ_ALG*/,
      924    10839    1            '0'            /*SGRINTRO_CHR*/,
      925    10840    1            '0'            /*DAQINTRO_CHR*/,
      926    10841    1            '.9..5'      /*Sgrincdaq*/,
      927    10842    1            '.9..6'      /*Dfltprtmode*/,
      928    10843    1            '.10'         /*DCLFLD_ALG*/,
      929    10844    1            '0'            /*DCLFRM_CHR*/,
      930    10845    1            '0'            /*ENDDCLFRM_CHR*/,
      931    10846    1            '0'            /*RESTORE_DFLTSCRN_CHR*/,
      932    10847    1            '.10.1'       /*SGRHDN_CHR*/,
      933    10848    1            '.10.2'       /*SGRINCINT_CHR*/,
      934    10849    1            '.10.3'       /*SGRDCRINT_CHR*/,
      935    10850    1            '.11'         /*SGRUNDSCR_CHR*/,
      936    10851    1            '.11.1'       /*SGRSLWBLN_CHR*/,
      937    10852    1            '.11.2'       /*SGRFSTBLN_CHR*/,
      938    10853    1            '.11.3'       /*SGRRVRVID_CHR*/,
      939    10854    1            '.12'         /*SGRPRT_CHR*/,
      940    10855    1            '.12.1'       /*SGRINP_CHR*/,
      941    10856    1            '.12.2'       /*SGRPRTGRD_CHR*/,
      942    10857    1            '.12.3'       /*DAQPRT_CHR*/,
      943    10858    1            '.13'         /*DAQINP_CHR*/,
      944    10859    1            '.13.1'       /*DAQPRTGRD_CHR*/,
      945    10860    1            '0'            /*DLTALLFLDS_CHR*/,
      946    10861    1            '0'            /*INSLIN_CHR*/,
      947    10862    1            '0'            /*DLTLIN_CHR*/,
      948    10863    1            '0'            /*ERASEFLD_CHR*/,
      949    10864    1            '0'            /*DLTFLD_CHR*/,
      950    10865    1            '.1.2.5'      /*Fldtrm*/,
      951    10866    1            '...5'      /*Ewalt*/,
      952    10867    1            '...7'      /*Siopt*/,
      953    10868    1            '0'            /*ABSGRPRND_NULL*/,
      954    10869    1            '0'            /*ABSGRPRND_HIDDEN*/,
PL6.E3A0      #001=AS_SUPER_D File=AS_SUPER_D.:E05TSI                            TUE 07/29/97 10:59 Page:134
      955    10870    1            '0'            /*ABSGRPRND_EMPHASIS*/,
      956    10871    1            '0'            /*ABSGRPRND_INPUT*/,
      957    10872    1            '0'            /*ABSGRPRND_OUTPUT*/,
      958    10873    1            '0'            /*ABSGRPRND_ERROR*/,
      959    10874    1            '0'            /*ABSGRPRND_WARNING*/,
      960    10875    1            '.1.3'        /*TMNALG_FILCHR*/,
      961    10876    1            '.1.2.1'      /*Spcbfrprt*/,
      962    10877    1            '.1.1.7'      /*Wrappage*/,
      963    10878    1            '.1..1'      /*Limboclm*/,
      964    10879    1            '.1..3'      /*Localecho*/,
      965    10880    1            '.3.2.1'      /*Parkcursor*/,
      966    10881    1            '0'            /* */,
      967    10882    1            '.3.2.1'      /*Receive size*/,
      968    10883    1            '.3.2.5'      /*Receive thr*/,
      969    10884    1            '.3.3.2'      /*Receive win*/,
      970    10885    1            '.3.3.1'      /*Resp to com*/,
      971    10886    1            '.4.1.5'      /*Send size*/,
      972    10887    1            '.4.1.1'      /*Send thr*/,
      973    10888    1            '.4.2.2'      /*Send window*/,
      974    10889    1            '...8'      /*Fast select accept*/,
      975    10890    1            '.3.1'        /*Resp timer*/,
      976    10891    1            '0'            /*EXTSRD_CHR*/,
      977    10892    1            '.2.3.1'      /*FF_FLUSH*/,
      978    10893    1            '0'            /*MSGLIN_CHR*/,
      979    10894    1            '0'            /*ENDMSGLIN_CHR*/,
      980    10895    1            '.9..8'      /*Spcdltfld*/,
      981    10896    1            '.9.1.6'      /*EL0DLTFLD*/,
      982    10897    1            '.9.1.7'      /*ED0DLTFLD*/,
      983    10898    1            '.9.1.8'      /*ED2DLTFLD*/,
      984    10899    1            '.9..3'      /*Ichrqrdch*/,
      985    10900    1            '.9..4'      /*Ilnrqrdln*/,
      986    10901    1            '.9..7'      /*Frsclmfld*/,
      987    10902    1            '.2..5'      /*Msghalt*/,
      988    10903    1            '.2.1.1'      /*Msgline*/,
      989    10904    1            '.2..3'      /*Insertmode*/,
      990    10905    1            '.2..1'      /*Hscroll*/,
      991    10906    1            '.2.2'        /*Wordwrapclm*/,
PL6.E3A0      #001=AS_SUPER_D File=AS_SUPER_D.:E05TSI                            TUE 07/29/97 10:59 Page:135
      992    10907    1            '.2.3'        /*Autotabclm*/,
      993    10908    1            '0'            /*SETUP_CHR*/,
      994    10909    1            '.1.2.7'      /*Dchmovfld*/,
      995    10910    1            '.7.1'        /*Dspheight*/,
      996    10911    1            '.9.1.5'      /*Rgnscroll*/,
      997    10912    1            '0'            /*Extended sequence*/,
      998    10913    1            '0'            /*Charge info*/,
      999    10914    1            '0'            /*Transit delay*/,
     1000    10915    1            '..2'        /*Reset timeout*/,
     1001    10916    1            '..3'        /*Reset retries*/,
     1002    10917    1            '.1'          /*Clear timeout*/,
     1003    10918    1            '.1.1'        /*Clear retries*/,
     1004    10919    1            '.1.2'        /*Data timeout*/,
     1005    10920    1            '.1.3'        /*Data retries*/,
     1006    10921    1            '.2'          /*Interrupt timeout*/,
     1007    10922    1            '0'            /*Idle timeout*/,
     1008    10923    1            '.3'          /*Call timeout*/,
     1009    10924    1            '.2.3'        /*Call retries*/,
     1010    10925    1            '.2.2'        /*Call delay*/,
     1011    10926    1            '.3.2.3'      /*Cursorread*/,
     1012    10927    1            '.3.2.7'      /*Autocursor*/,
     1013    10928    1            '.3.2.5'      /*Keeptypahd*/,
     1014    10929    1            '.7.2.1'      /*FF_INCCR*/,
     1015    10930    1            '.2.3.3'      /*Microfpl*/,
     1016    10931    1            '0'           /*Tabs*/,
     1017    10932    1            '0'           /*GR_FPRG*/,
     1018    10933    1            '0'            /*GR_GLBLCOLORS*/,
     1019    10934    1            '.1'          /*GR_GLBLINTEN*/,
     1020    10935    1            '.2'          /*GR_MAXPICK*/,
     1021    10936    1            '.3'          /*GR_XSPACE*/,
     1022    10937    1            '.4'          /*GR_YSPACE*/,
     1023    10938    1            '.5'          /*GR_ZSPACE*/,
     1024    10939    1            '.6'          /*GR_NDCWSPACE*/,
     1025    10940    1            '.7'          /*GR_NDCHSPACE*/,
     1026    10941    1            '.8'          /*GR_NDCDSPACE*/,
     1027    10942    1            '.11'         /*GR_NDCDCHARS*/,
     1028    10943    1            '.10'         /*GR_NDCHCHARS*/,
PL6.E3A0      #001=AS_SUPER_D File=AS_SUPER_D.:E05TSI                            TUE 07/29/97 10:59 Page:136
     1029    10944    1            '.9'          /*GR_NDCWCHARS*/,
     1030    10945    1            '.12'         /*GR_WIDTHUSE*/,
     1031    10946    1            '.13'         /*GR_HEIGHTUSE*/,
     1032    10947    1            '.14'         /*GR_DEPTHUSE*/,
     1033    10948    1            '.16'         /*GR_NDCDCURRENT*/,
     1034    10949    1            '.15.2'       /*GR_NDCHCURRENT*/,
     1035    10950    1            '.15'         /*GR_NDCWCURRENT*/,
     1036    10951    1            '.16.2'       /*GR_MINLINEWIDTH*/,
     1037    10952    1            '.17'         /*GR_MAXLINEWIDTH*/,
     1038    10953    1            '.17.2'       /*GR_MINCHSIZE*/,
     1039    10954    1            '.18'         /*GR_MAXCHSIZE*/,
     1040    10955    1            '.37'         /*GR_ESCAPE*/,
     1041    10956    1            '.18.2'       /*GR_VIEWSURFACE*/,
     1042    10957    1            '.19'         /*GR_POLYGONFILL pla*/,
     1043    10958    1            '.19.2'       /*GR_POLYGONFILL sha*/,
     1044    10959    1            '.20'         /*GR_POLYGONFILL pat*/,
     1045    10960    1            '.20.2'       /*GR_XPIXMAX*/,
     1046    10961    1            '.21'         /*GR_YPIXMAX*/,
     1047    10962    1            '.21.2'       /*GR_COLRTABSIZE*/,
     1048    10963    1            '.22'         /*GR_INTNTABSIZE*/,
     1049    10964    1            '.22.2'       /*GR_LINESTYLEHWCOUNT*/,
     1050    10965    1            '.23.2'       /*GR_LINEWCOUNT*/,
     1051    10966    1            '.24'         /*GR_FONTCOUNT*/,
     1052    10967    1            '.24.2'       /*GR_PENHWCOUNT*/,
     1053    10968    1            '.25.2'       /*GR_CHSIZECOUNT*/,
     1054    10969    1            '.26'         /*GR_MARKERHWCOUNT*/,
     1055    10970    1            '.27'         /*GR_LINEWSUPPORT*/,
     1056    10971    1            '.26.2'       /*GR_MARKERSWCOUNT*/,
     1057    10972    1            '.27..8'     /*GR_INTNSUPPORT*/,
     1058    10973    1            '.27..4'     /*GR_CHSIZESUPPORT*/,
     1059    10974    1            '.27.1.3'     /*GR_HIGHLTSUPPORT*/,
     1060    10975    1            '.27.1.7'     /*GR_OUTLEVEL*/,
     1061    10976    1            '.27.2.4'     /*GR_BATCHMODE*/,
     1062    10977    1            '.27.2.8'     /*GR_HIDDENLEVEL*/,
     1063    10978    1            '.27.3.3'     /*GR_DIMLEVEL*/,
     1064    10979    1            '.27.3.5'     /*GR_VIEWTYPE*/,
     1065    10980    1            '.28'         /*GR_PIXELTYPE*/,
PL6.E3A0      #001=AS_SUPER_D File=AS_SUPER_D.:E05TSI                            TUE 07/29/97 10:59 Page:137
     1066    10981    1            '.28..4'     /*GR_EDGETYPE*/,
     1067    10982    1            '.28..8'     /*GR_COLRTABTYPE*/,
     1068    10983    1            '.28.1.3'     /*GR_BKGRNDTYPE*/,
     1069    10984    1            '.28.1.5'     /*GR_DEVTYPE*/,
     1070    10985    1            '.28.1.7'     /*GR_IMAGETRANS*/,
     1071    10986    1            '.28.2.2'     /*GR_COLRMODEL*/,
     1072    10987    1            '.28.2.4'     /*GR_BKGRNDCOLOR*/,
     1073    10988    1            '.28.2.6'     /*GR_COLRACTION*/,
     1074    10989    1            '.28.3.1'     /*GR_INTNACTION*/,
     1075    10990    1            '.23'         /*GR_LINESTYLESWCOUNT*/,
     1076    10991    1            '.25'         /*GR_PENSWCOUNT*/,
     1077    10992    1            '0'            /*Function*/,
     1078    10993    1            '0'*0          /*End*/),
     1079    10994    1          2 FMT_IDX UBIN BYTE UNAL INIT  /*Ordered by SUB# from AS_SUBS_C */
     1080    10995    1           ( C_YESNODC          /*Actontrn*/,
     1081    10996    1             C_YESNODC          /*Apl*/,
     1082    10997    1             C_YESNODC          /*Apllcnrm*/,
     1083    10998    1             C_YESNODC          /*Autonl*/,
     1084    10999    1             C_YESNODC          /*Bin*/,
     1085    11000    1             C_YESNODC          /*Blankerases*/,
     1086    11001    1             C_YESNODC          /*Crisnl*/,
     1087    11002    1             C_YESNO            /*CUP_CLMFRS*/,
     1088    11003    1             C_YESNO            /*CUP_CMP*/,
     1089    11004    1             C_YESNODC          /*Cursorup*/,
     1090    11005    1             C_YESNODC          /*Devicebs*/,
     1091    11006    1             C_YESNODC          /*Devicecr*/,
     1092    11007    1             C_YESNODC          /*Devicelf*/,
     1093    11008    1             C_YESNODC          /*Devposopts*/,
     1094    11009    1             C_YESNODC          /*Devscroll*/,
     1095    11010    1             C_YESNODC          /*Dispinput*/,
     1096    11011    1             C_YESNODC          /*Editovr*/,
     1097    11012    1             C_YESNODC          /*Fullduxpapertape*/,
     1098    11013    1             C_YESNODC          /*Halfduxpapertape*/,
     1099    11014    1             C_YESNODC          /*Input*/,
     1100    11015    1             C_YESNODC          /*Inputignore*/,
     1101    11016    1             C_YESNODC          /*Lfisnl*/,
     1102    11017    1             C_YESNODC          /*Lowercase*/,
PL6.E3A0      #001=AS_SUPER_D File=AS_SUPER_D.:E05TSI                            TUE 07/29/97 10:59 Page:138
     1103    11018    1             C_YESNODC          /*Lowercaseprints*/,
     1104    11019    1             C_YESNO            /*Mulstrm*/,
     1105    11020    1             C_YESNODC          /*Nooptmiz*/,
     1106    11021    1             C_YESNODC          /*Opdtab*/,
     1107    11022    1             C_YESNODC          /*Output*/,
     1108    11023    1             C_YESNODC          /*Outputdiscard*/,
     1109    11024    1             C_YESNODC          /*Pagehalt*/,
     1110    11025    1             C_YESNODC          /*Paritycheck*/,
     1111    11026    1             C_YESNODC          /*Printhalt*/,
     1112    11027    1             C_YESNODC          /*Printtype*/,
     1113    11028    1             C_YESNODC          /*Progdtab*/,
     1114    11029    1             C_YESNODC          /*Relpage*/,
     1115    11030    1             C_YESNODC          /*Retypovr*/,
     1116    11031    1             C_YESNODC          /*Scroll*/,
     1117    11032    1             C_YESNODC          /*Sendbkspace*/,
     1118    11033    1             C_YESNODC          /*Simperf*/,
     1119    11034    1             C_YESNODC          /*Spaceinsert*/,
     1120    11035    1             C_YESNODC          /*Tabrelative*/,
     1121    11036    1             C_YESNODC          /*Tabsim*/,
     1122    11037    1             C_YESNODC          /*Truncate*/,
     1123    11038    1             C_YESNODC          /*Truovrprt*/,
     1124    11039    1             C_YESNODC          /*Ttytype*/,
     1125    11040    1             C_YESNODC          /*Uppercase*/,
     1126    11041    1             C_SPECIAL_FORMAT   /*Awidth*/,
     1127    11042    1             C_SBIN             /*Blkbytes*/,
     1128    11043    1             C_BYTE_UBIN        /*Blkrecs*/,
     1129    11044    1             C_BYTE_UBIN        /*Delays*/,
     1130    11045    1             C_SBIN             /*Dvcotpbfrsiz*/,
     1131    11046    1             C_8BIT_DC          /*Firstline*/,
     1132    11047    1             C_8BIT_DC          /*Height*/,
     1133    11048    1             C_8BIT_DC          /*Length*/,
     1134    11049    1             C_8BIT_DC          /*Limbo*/,
     1135    11050    1             C_SPECIAL_FORMAT   /*Pwidth*/,
     1136    11051    1             C_8BIT_DC          /*Minrec*/,
     1137    11052    1             C_BYTE_UBIN        /*Retrys*/,
     1138    11053    1             C_8BIT_DC          /*Sinputsz*/,
     1139    11054    1             C_SPECIAL_FORMAT   /*Speed*/,
PL6.E3A0      #001=AS_SUPER_D File=AS_SUPER_D.:E05TSI                            TUE 07/29/97 10:59 Page:139
     1140    11055    1             C_BYTE_UBIN        /*TMNALG_AFTCUP*/,
     1141    11056    1             C_BYTE_UBIN        /*TMNALG_AFTCR*/,
     1142    11057    1             C_BYTE_UBIN        /*TMNALG_AFTHPA*/,
     1143    11058    1             C_BYTE_UBIN        /*TMNALG_AFTHT*/,
     1144    11059    1             C_BYTE_UBIN        /*TMNALG_AFTLF*/,
     1145    11060    1             C_BYTE_UBIN        /*TMNALG_BFRCR*/,
     1146    11061    1             C_BYTE_UBIN        /*TMNALG_BFRLF*/,
     1147    11062    1             C_REAL             /*BS_TIM*/,
     1148    11063    1             C_REAL             /*Erstim*/,
     1149    11064    1             C_REAL             /*Timaftctrfnc*/,
     1150    11065    1             C_REAL             /*TMNALG_PRM1*/,
     1151    11066    1             C_REAL             /*TMNALG_PRM2*/,
     1152    11067    1             C_REAL             /*TMNALG_PRM3*/,
     1153    11068    1             C_REAL             /*TMNALG_PRM4*/,
     1154    11069    1             C_REAL             /*TMNALG_PRM5*/,
     1155    11070    1             C_REAL             /*TMNALG_PRM6*/,
     1156    11071    1             C_REAL             /*TMNALG_PRM7*/,
     1157    11072    1             C_REAL             /*TMNALG_PRM8*/,
     1158    11073    1             C_SPECIAL          /*Fcntbl*/,
     1159    11074    1             C_TEXT             /*Charsetname*/,
     1160    11075    1             C_HEX              /*Emchr*/,
     1161    11076    1             C_HEX              /*Irschr*/,
     1162    11077    1             C_SPECIAL_FORMAT   /*CUP_ALG*/,
     1163    11078    1             C_SPECIAL_FORMAT   /*Dvcflwctralg*/,
     1164    11079    1             C_SPECIAL_FORMAT   /*HPA_ALG*/,
     1165    11080    1             C_SPECIAL_FORMAT   /*Parity*/,
     1166    11081    1             C_SPECIAL_FORMAT   /*Protyp*/,
     1167    11082    1             C_BYTE_UBIN        /*CUP_BIS*/,
     1168    11083    1             C_YESNO            /*Lstrecctn*/,
     1169    11084    1             C_HEX_LIST         /*CUB_CHR*/,
     1170    11085    1             C_HEX_LIST         /*CUD_CHR*/,
     1171    11086    1             C_HEX_LIST         /*CUF_CHR*/,
     1172    11087    1             C_HEX_LIST         /*CUP_CHR*/,
     1173    11088    1             C_HEX_LIST         /*CUU_CHR*/,
     1174    11089    1             C_HEX_LIST         /*DCH_CHR*/,
     1175    11090    1             C_HEX_LIST         /*ED0_CHR*/,
     1176    11091    1             C_HEX_LIST         /*ED2_CHR*/,
PL6.E3A0      #001=AS_SUPER_D File=AS_SUPER_D.:E05TSI                            TUE 07/29/97 10:59 Page:140
     1177    11092    1             C_HEX_LIST         /*EL0_CHR*/,
     1178    11093    1             C_SPECIAL          /*FRMFED_CHR*/,
     1179    11094    1             C_HEX_LIST         /*HOM_CHR*/,
     1180    11095    1             C_HEX_LIST         /*HTS_CHR*/,
     1181    11096    1             C_HEX_LIST         /*ICH_CHR*/,
     1182    11097    1             C_HEX_LIST         /*RSTINSMOD_CHR*/,
     1183    11098    1             C_HEX_LIST         /*SETFRMLNG_CHR*/,
     1184    11099    1             C_HEX_LIST         /*TBC3_CHR*/,
     1185    11100    1             C_YESNO            /*Errdupblk*/,
     1186    11101    1             C_YESNO            /*Rrr*/,
     1187    11102    1             C_BYTE_UBIN        /*Interval*/,
     1188    11103    1             C_SPECIAL_FORMAT   /*Compress*/,
     1189    11104    1             C_BYTE_UBIN        /*Timeout*/,
     1190    11105    1             C_BYTE_UBIN        /*Retransmissions*/,
     1191    11106    1             C_BYTE_UBIN        /*Window*/,
     1192    11107    1             C_SPECIAL_FORMAT   /*Frame*/,
     1193    11108    1             C_YESNO            /*Slc*/,
     1194    11109    1             C_SPECIAL_FORMAT   /*Calls*/,
     1195    11110    1             C_SPECIAL          /*Reverse*/,
     1196    11111    1             C_YESNO            /*Slcallblk*/,
     1197    11112    1             C_YESNO            /*Padsignon*/,
     1198    11113    1             C_7BIT_UBIN        /*Max window*/,
     1199    11114    1             C_SPECIAL_POSITION /*Response delay*/,
     1200    11115    1             C_BYTE_UBIN        /*Restart timeout*/,
     1201    11116    1             C_BYTE_UBIN        /*Restart retries*/,
     1202    11117    1             C_BYTE_DC          /*Maxatrs*/,
     1203    11118    1             C_YESNODC          /*Atrscrnpos*/,
     1204    11119    1             C_VDH_ALG_TYPE     /*SGR_ALG*/,
     1205    11120    1             C_VDH_ALG_TYPE     /*DAQ_ALG*/,
     1206    11121    1             C_HEX_LIST         /*SGRINTRO_CHR*/,
     1207    11122    1             C_HEX_LIST         /*DAQINTRO_CHR*/,
     1208    11123    1             C_YESNO            /*Sgrincdaq*/,
     1209    11124    1             C_SPECIAL_FORMAT   /*Dfltprtmode*/,
     1210    11125    1             C_VDH_ALG_TYPE     /*DCLFLD_ALG*/,
     1211    11126    1             C_HEX_LIST         /*DCLFRM_CHR*/,
     1212    11127    1             C_HEX_LIST         /*ENDDCLFRM_CHR*/,
     1213    11128    1             C_HEX_LIST         /*RESTORE_DFLTSCRN_CHR*/,
PL6.E3A0      #001=AS_SUPER_D File=AS_SUPER_D.:E05TSI                            TUE 07/29/97 10:59 Page:141
     1214    11129    1             C_HEX              /*SGRHDN_CHR*/,
     1215    11130    1             C_HEX              /*SGRINCINT_CHR*/,
     1216    11131    1             C_HEX              /*SGRDCRINT_CHR*/,
     1217    11132    1             C_HEX              /*SGRUNDSCR_CHR*/,
     1218    11133    1             C_HEX              /*SGRSLWBLN_CHR*/,
     1219    11134    1             C_HEX              /*SGRFSTBLN_CHR*/,
     1220    11135    1             C_HEX              /*SGRRVRVID_CHR*/,
     1221    11136    1             C_HEX              /*SGRPRT_CHR*/,
     1222    11137    1             C_HEX              /*SGRINP_CHR*/,
     1223    11138    1             C_HEX              /*SGRPRTGRD_CHR*/,
     1224    11139    1             C_HEX              /*DAQPRT_CHR*/,
     1225    11140    1             C_HEX              /*DAQINP_CHR*/,
     1226    11141    1             C_HEX              /*DAQPRTGRD_CHR*/,
     1227    11142    1             C_HEX_LIST         /*DLTALLFLDS_CHR*/,
     1228    11143    1             C_HEX_LIST         /*INSLIN_CHR*/,
     1229    11144    1             C_HEX_LIST         /*DLTLIN_CHR*/,
     1230    11145    1             C_HEX_LIST         /*ERASEFLD_CHR*/,
     1231    11146    1             C_HEX_LIST         /*DLTFLD_CHR*/,
     1232    11147    1             C_SPECIAL_FORMAT   /*Fldtrm*/,
     1233    11148    1             C_YESNODC          /*Ewalt*/,
     1234    11149    1             C_YESNO            /*Siopt*/,
     1235    11150    1             C_ABSGRPRND        /*ABSGRPRND_NULL*/,
     1236    11151    1             C_ABSGRPRND        /*ABSGRPRND_HIDDEN*/,
     1237    11152    1             C_ABSGRPRND        /*ABSGRPRND_EMPHASIS*/,
     1238    11153    1             C_ABSGRPRND        /*ABSGRPRND_INPUT*/,
     1239    11154    1             C_ABSGRPRND        /*ABSGRPRND_OUTPUT*/,
     1240    11155    1             C_ABSGRPRND        /*ABSGRPRND_ERROR*/,
     1241    11156    1             C_ABSGRPRND        /*ABSGRPRND_WARNING*/,
     1242    11157    1             C_HEX              /*TMNALG_FILCHR*/,
     1243    11158    1             C_YESNODC          /*Spcbfrprt*/,
     1244    11159    1             C_YESNODC          /*Wrappage*/,
     1245    11160    1             C_YESNODC          /*Limboclm*/,
     1246    11161    1             C_YESNODC          /*Localecho*/,
     1247    11162    1             C_YESNODC          /*Parkcursor*/,
     1248    11163    1             0                  /* */,
     1249    11164    1             C_SPECIAL_FORMAT   /*Receive size*/,
     1250    11165    1             C_SPECIAL_FORMAT   /*Receive thr*/,
PL6.E3A0      #001=AS_SUPER_D File=AS_SUPER_D.:E05TSI                            TUE 07/29/97 10:59 Page:142
     1251    11166    1             C_7BIT_UBIN        /*Receive win*/,
     1252    11167    1             C_YESNO            /*Resp to com*/,
     1253    11168    1             C_SPECIAL_FORMAT   /*Send size*/,
     1254    11169    1             C_SPECIAL_FORMAT   /*Send thr*/,
     1255    11170    1             C_7BIT_UBIN        /*Send window*/,
     1256    11171    1             C_YESNO            /*Fast select accept*/,
     1257    11172    1             C_BYTE_UBIN        /*Resp timer*/,
     1258    11173    1             C_HEX_LIST         /*EXTSRD_CHR*/,
     1259    11174    1             C_YESNODC          /*FF_FLUSH*/,
     1260    11175    1             C_HEX_LIST         /*MSGLIN_CHR*/,
     1261    11176    1             C_HEX_LIST         /*ENDMSGLIN_CHR*/,
     1262    11177    1             C_YESNO            /*Spcdltfld*/,
     1263    11178    1             C_YESNO            /*EL0DLTFLD*/,
     1264    11179    1             C_YESNO            /*ED0DLTFLD*/,
     1265    11180    1             C_YESNO            /*ED2DLTFLD*/,
     1266    11181    1             C_YESNO            /*Ichrqrdch*/,
     1267    11182    1             C_YESNO            /*Ilnrqrdln*/,
     1268    11183    1             C_YESNO            /*Frsclmfld*/,
     1269    11184    1             C_YESNODC          /*Msghalt*/,
     1270    11185    1             C_YESNODC          /*Msgline*/,
     1271    11186    1             C_YESNODC          /*Insertmode*/,
     1272    11187    1             C_YESNODC          /*Hscroll*/,
     1273    11188    1             C_BYTE_DC          /*Wordwrapclm*/,
     1274    11189    1             C_BYTE_DC          /*Autotabclm*/,
     1275    11190    1             C_ALL_DONE         /*SETUP_CHR*/,
     1276    11191    1             C_YESNODC          /*Dchmovfld*/,
     1277    11192    1             C_BYTE_DC          /*Dspheight*/,
     1278    11193    1             C_YESNO            /*Rgnscroll*/,
     1279    11194    1             C_SPECIAL_POSITION /*Extended sequence*/,
     1280    11195    1             C_SPECIAL_POSITION /*Charge info*/,
     1281    11196    1             C_SBIN             /*Transit delay*/,
     1282    11197    1             C_BYTE_UBIN        /*Reset timeout*/,
     1283    11198    1             C_BYTE_UBIN        /*Reset retries*/,
     1284    11199    1             C_BYTE_UBIN        /*Clear timeout*/,
     1285    11200    1             C_BYTE_UBIN        /*Clear retries*/,
     1286    11201    1             C_BYTE_UBIN        /*Data timeout*/,
     1287    11202    1             C_BYTE_UBIN        /*Data retries*/,
PL6.E3A0      #001=AS_SUPER_D File=AS_SUPER_D.:E05TSI                            TUE 07/29/97 10:59 Page:143
     1288    11203    1             C_BYTE_UBIN        /*Interrupt timeout*/,
     1289    11204    1             C_SPECIAL_POSITION /*Idle timeout*/,
     1290    11205    1             C_BYTE_UBIN        /*Call timeout*/,
     1291    11206    1             C_BYTE_UBIN        /*Call retries*/,
     1292    11207    1             C_BYTE_UBIN        /*Call delay*/,
     1293    11208    1             C_YESNODC          /*Cursorread*/,
     1294    11209    1             C_YESNODC          /*Autocursor*/,
     1295    11210    1             C_YESNODC          /*Keeptypahd*/,
     1296    11211    1             C_YESNODC          /*FF_INCCR*/,
     1297    11212    1             C_YESNODC          /*Microfpl*/,
     1298    11213    1             C_SPECIAL_FORMAT   /*Tabs*/,
     1299    11214    1             C_SPECIAL          /*GR_FPRG*/,
     1300    11215    1             C_SBIN             /*GR_GLBLCOLORS*/,
     1301    11216    1             C_SBIN             /*GR_GLBLINTEN*/,
     1302    11217    1             C_SBIN             /*GR_MAXPICK*/,
     1303    11218    1             C_SBIN             /*GR_XSPACE*/,
     1304    11219    1             C_SBIN             /*GR_YSPACE*/,
     1305    11220    1             C_SBIN             /*GR_ZSPACE*/,
     1306    11221    1             C_SBIN             /*GR_NDCWSPACE*/,
     1307    11222    1             C_SBIN             /*GR_NDCHSPACE*/,
     1308    11223    1             C_SBIN             /*GR_NDCDSPACE*/,
     1309    11224    1             C_SBIN             /*GR_NDCDCHARS*/,
     1310    11225    1             C_SBIN             /*GR_NDCHCHARS*/,
     1311    11226    1             C_SBIN             /*GR_NDCWCHARS*/,
     1312    11227    1             C_SBIN             /*GR_WIDTHUSE*/,
     1313    11228    1             C_SBIN             /*GR_HEIGHTUSE*/,
     1314    11229    1             C_SBIN             /*GR_DEPTHUSE*/,
     1315    11230    1             C_18BIT_UBIN       /*GR_NDCDCURRENT*/,
     1316    11231    1             C_18BIT_UBIN       /*GR_NDCHCURRENT*/,
     1317    11232    1             C_18BIT_UBIN       /*GR_NDCWCURRENT*/,
     1318    11233    1             C_18BIT_UBIN       /*GR_MINLINEWIDTH*/,
     1319    11234    1             C_18BIT_UBIN       /*GR_MAXLINEWIDTH*/,
     1320    11235    1             C_18BIT_UBIN       /*GR_MINCHSIZE*/,
     1321    11236    1             C_18BIT_UBIN       /*GR_MAXCHSIZE*/,
     1322    11237    1             C_ALL_DONE         /*GR_ESCAPE*/,
     1323    11238    1             C_18BIT_UBIN       /*GR_VIEWSURFACE*/,
     1324    11239    1             C_18BIT_UBIN       /*GR_POLYGONFILL pla*/,
PL6.E3A0      #001=AS_SUPER_D File=AS_SUPER_D.:E05TSI                            TUE 07/29/97 10:59 Page:144
     1325    11240    1             C_18BIT_UBIN       /*GR_POLYGONFILL sha*/,
     1326    11241    1             C_18BIT_UBIN       /*GR_POLYGONFILL pat*/,
     1327    11242    1             C_18BIT_UBIN       /*GR_XPIXMAX*/,
     1328    11243    1             C_18BIT_UBIN       /*GR_YPIXMAX*/,
     1329    11244    1             C_18BIT_UBIN       /*GR_COLRTABSIZE*/,
     1330    11245    1             C_18BIT_UBIN       /*GR_INTNTABSIZE*/,
     1331    11246    1             C_18BIT_UBIN       /*GR_LINESTYLEHWCOUNT*/,
     1332    11247    1             C_18BIT_UBIN       /*GR_LINEWCOUNT*/,
     1333    11248    1             C_18BIT_UBIN       /*GR_FONTCOUNT*/,
     1334    11249    1             C_18BIT_UBIN       /*GR_PENHWCOUNT*/,
     1335    11250    1             C_18BIT_UBIN       /*GR_CHSIZECOUNT*/,
     1336    11251    1             C_18BIT_UBIN       /*GR_MARKERHWCOUNT*/,
     1337    11252    1             C_4BIT_UBIN        /*GR_LINEWSUPPORT*/,
     1338    11253    1             C_18BIT_UBIN       /*GR_MARKERSWCOUNT*/,
     1339    11254    1             C_4BIT_UBIN        /*GR_INTNSUPPORT*/,
     1340    11255    1             C_4BIT_UBIN        /*GR_CHSIZESUPPORT*/,
     1341    11256    1             C_4BIT_UBIN        /*GR_HIGHLTSUPPORT*/,
     1342    11257    1             C_SPECIAL_FORMAT   /*GR_OUTLEVEL*/,
     1343    11258    1             C_4BIT_UBIN        /*GR_BATCHMODE*/,
     1344    11259    1             C_4BIT_UBIN        /*GR_HIDDENLEVEL*/,
     1345    11260    1             C_2BIT_UBIN        /*GR_DIMLEVEL*/,
     1346    11261    1             C_4BIT_UBIN        /*GR_VIEWTYPE*/,
     1347    11262    1             C_4BIT_UBIN        /*GR_PIXELTYPE*/,
     1348    11263    1             C_4BIT_UBIN        /*GR_EDGETYPE*/,
     1349    11264    1             C_4BIT_UBIN        /*GR_COLRTABTYPE*/,
     1350    11265    1             C_2BIT_UBIN        /*GR_BKGRNDTYPE*/,
     1351    11266    1             C_2BIT_UBIN        /*GR_DEVTYPE*/,
     1352    11267    1             C_4BIT_UBIN        /*GR_IMAGETRANS*/,
     1353    11268    1             C_2BIT_UBIN        /*GR_COLRMODEL*/,
     1354    11269    1             C_2BIT_UBIN        /*GR_BKGRNDCOLOR*/,
     1355    11270    1             C_4BIT_UBIN        /*GR_COLRACTION*/,
     1356    11271    1             C_4BIT_UBIN        /*GR_INTNACTION*/,
     1357    11272    1             C_18BIT_UBIN       /*GR_LINESTYLESWCOUNT*/,
     1358    11273    1             C_18BIT_UBIN       /*GR_PENSWCOUNT*/,
     1359    11274    1             C_ALL_DONE         /*Function*/,
     1360    11275    1             0*0                /* */);
     1361    11276    1   DCL AS_BLANK CHAR(1) CONSTANT SYMDEF INIT(' ') ;
PL6.E3A0      #001=AS_SUPER_D File=AS_SUPER_D.:E05TSI                            TUE 07/29/97 10:59 Page:145
     1362    11277    1   DCL AS_TRUE BIT(1) CONSTANT SYMDEF INIT('1'B) ;
     1363    11278    1   DCL AS_FALSE BIT(1) CONSTANT SYMDEF INIT('0'B) ;
     1364    11279    1   DCL AS_ZERO SBIN CONSTANT SYMDEF INIT(0) ;
     1365    11280    1   DCL 1 AS_NONE CONSTANT SYMDEF,
     1366    11281    1          2 COUNT UBIN BYTE UNAL INIT( 4 ),
     1367    11282    1          2 TEXT CHAR(20) UNAL INIT( 'NONE' );
     1368    11283    1   DCL AS_VALID_DEVICE_TYPE_CHARS CHAR(36) CONSTANT SYMDEF
     1369    11284    1             INIT( '0123456789ABCDEFGHIJKLMNOPQRSTUVWXYZ' ) ;
     1370    11285    1   DCL AS_PRIV_NAMES(0:23) PTR CONSTANT SYMDEF INIT(
     1371    11286    1         ADDR( SPCLMM_),
     1372    11287    1         ADDR( EXMM_),
     1373    11288    1         ADDR( MAXM_),
     1374    11289    1         ADDR( MSYS_),
     1375    11290    1         ADDR( SYSLOG_),
     1376    11291    1         ADDR( JIT_),
     1377    11292    1         ADDR( TND_),
     1378    11293    1         ADDR( ASAVE_ ),
     1379    11294    1         ADDR( GPP_ ),
     1380    11295    1         ADDR( SEC_ ),
     1381    11296    1         ADDR( DIA_ ),
     1382    11297    1         ADDR( FMREAD_ ),
     1383    11298    1         ADDR( PM_ ),
     1384    11299    1         ADDR( EXPM_ ),
     1385    11300    1         ADDR( IOQW_ ),
     1386    11301    1         ADDR( IOQ_ ),
     1387    11302    1         ADDR( CFEP_ ),
     1388    11303    1         ADDR( MFEP_ ),
     1389    11304    1         ADDR( DISPJOB_ ),
     1390    11305    1         ADDR( SYSCON_ ) ,
     1391    11306    1         ADDR( INTCON_ ) ,
     1392    11307    1         ADDR( CQ_ )   ,
     1393    11308    1         ADDR( SNAP_ ) ,
     1394    11309    1         ADDR( SCREECH_ ))  ;
     1395    11310    1   DCL AS_PPRIV_NAMES(0:20) PTR CONSTANT SYMDEF INIT(
     1396    11311    1         ADDR( CNTRLD_ ),
     1397    11312    1         ADDR( CNTRLC_ ),
     1398    11313    1         ADDR( EFT_ ),
PL6.E3A0      #001=AS_SUPER_D File=AS_SUPER_D.:E05TSI                            TUE 07/29/97 10:59 Page:146
     1399    11314    1         ADDR( EL_ ),
     1400    11315    1         ADDR( LABEL_ ),
     1401    11316    1         ADDR( PIGD_ ),
     1402    11317    1         ADDR( PIGC_ ),
     1403    11318    1         ADDR( SUPERAUTH_ ),
     1404    11319    1         ADDR( SUPERWSN_ ),
     1405    11320    1         ADDR( SUPERFORM_ ),
     1406    11321    1         ADDR( SUPER_ ),
     1407    11322    1         ADDR( SPIDERD_ ),
     1408    11323    1         ADDR( SPIDERC_ ),
     1409    11324    1         ADDR( NETCON_ ),
     1410    11325    1         ADDR( SUPERD_ ),
     1411    11326    1         ADDR( VOLINIT_ ),
     1412    11327    1         ADDR( REPLAY_ ) ,
     1413    11328    1         ADDR( RATES_ ) ,
     1414    11329    1         ADDR( NIL ) ,
     1415    11330    1         ADDR( SYSCON_ ),
     1416    11331    1         ADDR( PIGETTE_ ) ) ;
     1417    11332    1   DCL AS_PRIVILEGE(0:23) BIT(36) ALIGNED CONSTANT SYMDEF INIT(
     1418    11333    1         %PR_SPCLMM#,
     1419    11334    1         %PR_EXMM#,
     1420    11335    1         %PR_MAXMEM#,
     1421    11336    1         %PR_MSYS#,
     1422    11337    1         %PR_SYSLOG#,
     1423    11338    1         %PR_JIT#,
     1424    11339    1         %PR_TND#,
     1425    11340    1         %PR_ASAVE#,
     1426    11341    1         %PR_GPP#,
     1427    11342    1         %PR_FMSEC#,
     1428    11343    1         %PR_FMDIAG#,
     1429    11344    1         %PR_FMREAD#,
     1430    11345    1         %PR_PM#,
     1431    11346    1         %PR_EXPM#,
     1432    11347    1         %PR_IOQW#,
     1433    11348    1         %PR_IOQ#,
     1434    11349    1         %PR_CFEP#,
     1435    11350    1         %PR_MFEP#,
PL6.E3A0      #001=AS_SUPER_D File=AS_SUPER_D.:E05TSI                            TUE 07/29/97 10:59 Page:147
     1436    11351    1         %PR_DISPJOB#,
     1437    11352    1         %PR_SYSCON# ,
     1438    11353    1         %PR_INTCON# ,
     1439    11354    1         %PR_CQ#   ,
     1440    11355    1         %PR_SNAP# ,
     1441    11356    1         %PR_SCREECH# ) ;
     1442    11357    1   DCL AS_PPRIVILEGE(0:20) BIT(36) ALIGNED CONSTANT SYMDEF INIT(
     1443    11358    1         %PPR_CNTRLD#,
     1444    11359    1         %PPR_CNTRLC#,
     1445    11360    1         %PPR_EFT#,
     1446    11361    1         %PPR_EL#,
     1447    11362    1         %PPR_LABEL#,
     1448    11363    1         %PPR_PIGD#,
     1449    11364    1         %PPR_PIGC#,
     1450    11365    1         %PPR_SUPERAUTH#,
     1451    11366    1         %PPR_SUPERWSN#,
     1452    11367    1         %PPR_SUPERFORM#,
     1453    11368    1         %PPR_SUPER#,
     1454    11369    1         %PPR_SPIDERD#,
     1455    11370    1         %PPR_SPIDERC#,
     1456    11371    1         %PPR_NETCON#,
     1457    11372    1         %PPR_SUPERD#,
     1458    11373    1         %PPR_VOLINIT# ,
     1459    11374    1         %PPR_REPLAY# ,
     1460    11375    1         %PPR_RATES# ,
     1461    11376    1         '0'B,
     1462    11377    1         %PPR_SYSCON#,
     1463    11378    1         %PPR_PIGETTE# ) ;
     1464    11379    1   DCL 1 AS_MODE CONSTANT SYMDEF,
     1465    11380    1          2 BATCH,
     1466    11381    1             3 CNT UBIN BYTE UNAL INIT( 5 ),
     1467    11382    1             3 TXT CHAR(6) INIT( 'BATCH' ),
     1468    11383    1          2 GHOST,
     1469    11384    1             3 CNT UBIN BYTE UNAL INIT( 5 ),
     1470    11385    1             3 TXT CHAR(6) INIT( 'GHOST' ),
     1471    11386    1          2 ONLINE,
     1472    11387    1             3 CNT UBIN BYTE UNAL INIT( 6 ),
PL6.E3A0      #001=AS_SUPER_D File=AS_SUPER_D.:E05TSI                            TUE 07/29/97 10:59 Page:148
     1473    11388    1             3 TXT CHAR(6) INIT( 'ONLINE' ),
     1474    11389    1          2 TP,
     1475    11390    1             3 CNT UBIN BYTE UNAL INIT( 2 ),
     1476    11391    1             3 TXT CHAR(6) UNAL INIT( 'TP' ),
     1477    11392    1          2 FE,
     1478    11393    1             3 CNT UBIN BYTE UNAL INIT( 2 ),
     1479    11394    1             3 TXT CHAR(6) UNAL INIT( 'FE' );
     1480    11395    1   DCL 1 AS_MODE_ARRY(0:4) REDEF AS_MODE,
     1481    11396    1          2 CNT UBIN BYTE UNAL,
     1482    11397    1          2 TXT CHAR(6);
     1483    11398    1   DCL 1 AS_FE_MODE CONSTANT SYMDEF,
     1484    11399    1          2 USER_,
     1485    11400    1             3 CNT UBIN BYTE UNAL INIT( 4 ),
     1486    11401    1             3 TXT CHAR(6) INIT( 'USER' ),
     1487    11402    1          2 COMGROUP,
     1488    11403    1             3 CNT UBIN BYTE UNAL INIT( 2 ),
     1489    11404    1             3 TXT CHAR(6) INIT( 'CG' ),
     1490    11405    1          2 HANDLER,
     1491    11406    1             3 CNT UBIN BYTE UNAL INIT( 6 ),
     1492    11407    1             3 TXT CHAR(6) INIT( 'HANDLR' ),
     1493    11408    1          2 GHOST,
     1494    11409    1             3 CNT UBIN BYTE UNAL INIT( 5 ),
     1495    11410    1             3 TXT CHAR(6) UNAL INIT( 'GHOST' );
     1496    11411    1   DCL 1 AS_FE_MODE_ARRY(0:3) REDEF AS_FE_MODE,
     1497    11412    1          2 CNT UBIN BYTE UNAL,
     1498    11413    1          2 TXT CHAR(6);
     1499    11414    1   DCL KL_DREC$ PTR CONSTANT SYMDEF INIT( ADDR(KL_DREC) );
     1500    11415    1   DCL KL_DFLT$ PTR CONSTANT SYMDEF INIT( ADDR(KL_DFLT) );
     1501    11416    1   DCL AS_DEFAULT_DREC$ PTR CONSTANT SYMDEF INIT( ADDR(AS_DEFAULT_DREC) );
     1502    11417    1   DCL AS_PROJ_ADMIN_DREC$ PTR CONSTANT SYMDEF INIT( ADDR(AS_PROJ_ADMIN_DREC ) );
     1503    11418    1   DCL AS_PROJECT_DREC$ PTR CONSTANT SYMDEF INIT( ADDR(AS_PROJECT_DREC) );
     1504    11419    1   DCL AS_PROJECT_DFLT_DREC$ PTR CONSTANT SYMDEF INIT(ADDR(AS_PROJECT_DFLT_DREC));
     1505    11420                                                                   /**/
     1506    11421        %EJECT ;
PL6.E3A0      #001=AS_SUPER_D File=AS_SUPER_D.:E05TSI                            TUE 07/29/97 10:59 Page:149
     1507    11422        /********************************************************************/
     1508    11423        /*   Dcbs            dcbs            dcbs            dcbs            */
     1509    11424        /*********************************************************************/
     1510    11425    1   DCL M$LO DCB;
     1511    11426        %EJECT ;
PL6.E3A0      #001=AS_SUPER_D File=AS_SUPER_D.:E05TSI                            TUE 07/29/97 10:59 Page:150
     1512    11427        /********************************************************************/
     1513    11428        /*   Static data     static data     static data     static data     */
     1514    11429        /*********************************************************************/
     1515    11430                                                              /**/
     1516    11431    1   DCL 1 USERS_KEY STATIC SYMDEF ,
     1517    11432    1          2 COUNT UBIN BYTE UNAL ,
     1518    11433    1          2 TEXT(0:40) CHAR(1) UNAL ,
     1519    11434    1          2 TXTC REDEF TEXT CHAR(41) UNAL ,
     1520    11435    1          2 TW REDEF TEXT,
     1521    11436    1             3 NAME CHAR(4) UNAL,
     1522    11437    1             3 TWSN CHAR(4) UNAL,
     1523    11438    1             3 * CHAR(33) UNAL,
     1524    11439    1          2 UKEY REDEF TEXT,
     1525    11440    1             3 ACCT CHAR(8),
     1526    11441    1             3 UNAME CHAR(12),
     1527    11442    1             3 S CHAR(1),
     1528    11443    1             3 * CHAR(20) ,
     1529    11444    1          2 SKEY REDEF TEXT ,
     1530    11445    1             3 PROJ UBIN BYTE UNAL ,
     1531    11446    1             3 CREATOR CHAR(20) UNAL ,
     1532    11447    1             3 USER CHAR(20) UNAL ;
     1533    11448    1   DCL 1 PROJ_KEY STATIC SYMDEF ,
     1534    11449    1          2 COUNT UBIN BYTE UNAL ,
     1535    11450    1          2 TEXT CHAR(26) UNAL,
     1536    11451    1          2 TXT REDEF TEXT,
     1537    11452    1             3 PROJECT CHAR(20) UNAL,
     1538    11453    1             3 P REDEF PROJECT,
     1539    11454    1                4 ACCT CHAR(8) UNAL,
     1540    11455    1                4 NAME CHAR(12) UNAL,
     1541    11456    1             3 PACKSET CHAR(6) UNAL;
     1542    11457    1   DCL AS_CREATED_TEXT CHAR(20) STATIC SYMDEF INIT( ' ' ) ;
     1543    11458    1   DCL 1 FROM_KEY STATIC SYMDEF,
     1544    11459    1          2 CNT UBIN(9) UNAL ,
     1545    11460    1          2 TEXT CHAR(20) UNAL;
     1546    11461    1   DCL 1 START_KEY  STATIC SYMDEF,
     1547    11462    1          2 COUNT   UBIN BYTE CALIGNED,
     1548    11463    1          2 TEXT    CHAR(8) CALIGNED,
PL6.E3A0      #001=AS_SUPER_D File=AS_SUPER_D.:E05TSI                            TUE 07/29/97 10:59 Page:151
     1549    11464    1          2 STAR    CHAR(1) CALIGNED INIT ('*');
     1550    11465    1   DCL 1 QUIT_KEY  STATIC SYMDEF,
     1551    11466    1          2 COUNT   UBIN BYTE CALIGNED,
     1552    11467    1          2 TEXT    CHAR(8) CALIGNED,
     1553    11468    1          2 STAR    CHAR(1) CALIGNED INIT ('*');
     1554    11469    1   DCL 1 PREV_KEY  STATIC SYMDEF,
     1555    11470    1          2 COUNT   UBIN BYTE CALIGNED,
     1556    11471    1          2 TEXT    CHAR(8) CALIGNED,
     1557    11472    1          2 STAR    CHAR(1) CALIGNED INIT ('*');
     1558    11473    1   DCL LO_WIDTH UBIN STATIC SYMDEF;
     1559    11474        %F_FDS(NAME = FDS,STCLASS = STATIC SYMDEF,
     1560    11475                FMT = FMT_BUF,
     1561    11476                VECTR = FMT_VEC,
     1562    11477                BUF = OUT_BUF,
     1563    11478                DCB = M$LO,
     1564    11479                TRUNC = NO,
     1565    11480                WRAPTAB = 1);
     1566    11593    1   DCL FMT_BUF CHAR(255) STATIC SYMDEF;
     1567    11594    1   DCL 1 FMT_VEC(0:75) STATIC SYMDEF,
     1568    11595    1          2 BOUND UBIN(20) UNAL,
     1569    11596    1          2 * BIT(16) UNAL,
     1570    11597    1          2 PTR$ PTR;
     1571    11598    1   DCL BLANK_PASS CHAR(8) STATIC SYMDEF;
     1572    11599    1   DCL IN_BUF CHAR(255) STATIC SYMDEF ;
     1573    11600    1   DCL OUT_BUF CHAR(140) STATIC SYMDEF ;
     1574    11601    1   DCL IN_BUF$ PTR STATIC SYMDEF INIT(ADDR(IN_BUF)) ;
     1575    11602    1   DCL OUT_BUF$ PTR STATIC SYMDEF INIT(ADDR(OUT_BUF)) ;
     1576    11603    1   DCL WK(0:1023) UBIN(36) STATIC SYMDEF ;
     1577    11604    1   DCL P$PCB PTR STATIC SYMDEF INIT(ADDR(P_PCB)) ;
     1578    11605    1   DCL NODE$ PTR STATIC SYMDEF ;
     1579    11606    1   DCL CODE UBIN STATIC SYMDEF ;
     1580    11607    1   DCL FAST_FLAG BIT(1) STATIC SYMDEF INIT( '0'B ) ;
     1581    11608    1   DCL INPUT_FLAG BIT(1) STATIC SYMDEF INIT( '0'B );
     1582    11609    1   DCL LIST_ACCT_FLG BIT(1) STATIC SYMDEF INIT('0'B) ;
     1583    11610    1   DCL COMMENT BIT(1) STATIC SYMDEF INIT('0'B) ;
     1584    11611    1   DCL SUPERAUTH BIT(1) STATIC SYMDEF INIT('0'B) ;
     1585    11612    1   DCL SUPERWSN BIT(1) STATIC SYMDEF INIT('0'B) ;
PL6.E3A0      #001=AS_SUPER_D File=AS_SUPER_D.:E05TSI                            TUE 07/29/97 10:59 Page:152
     1586    11613    1   DCL SUPERFORM BIT(1) STATIC SYMDEF INIT('0'B) ;
     1587    11614    1   DCL SUPERD    BIT(1) STATIC SYMDEF INIT('0'B) ;
     1588    11615    1   DCL MAKEPROJ BIT(1) STATIC SYMDEF INIT('0'B);
     1589    11616    1   DCL PADMIN BIT(1) STATIC SYMDEF INIT('0'B);
     1590    11617    1   DCL 1 ERR_CODE STATIC SYMDEF ,
     1591    11618    1          2 FCG_MID UBIN(18) UNAL INIT(0) ,
     1592    11619    1          2 CODE UBIN(15) INIT(0) UNAL ,
     1593    11620    1          2 SEV UBIN(3) INIT(0) UNAL ;
     1594    11621    1   DCL 1 MERR_CODE REDEF ERR_CODE ,
     1595    11622    1          2 FCG_MID UBIN(18) UNAL ,
     1596    11623    1          2 MON BIT(1) UNAL ,
     1597    11624    1          2 CODE UBIN(14) UNAL ,
     1598    11625    1          2 SEV UBIN(3) UNAL ;
     1599    11626    1   DCL 1 AS_FIELD1 STATIC SYMDEF ALIGNED,
     1600    11627    1          2 COUNT UBIN BYTE UNAL,
     1601    11628    1          2 TEXT CHAR(40);
     1602    11629    1   DCL 1 AS_FIELD2 STATIC SYMDEF ALIGNED,
     1603    11630    1          2 COUNT UBIN BYTE UNAL,
     1604    11631    1          2 TEXT CHAR(40);
     1605    11632    1   DCL 1 AS_FIELD3 STATIC SYMDEF ALIGNED,
     1606    11633    1          2 COUNT UBIN BYTE UNAL,
     1607    11634    1          2 TEXT CHAR(40);
     1608    11635    1   DCL 1 B_VERSION SYMREF ALIGNED,
     1609    11636    1          2 COUNT UBIN BYTE UNAL,
     1610    11637    1          2 TEXT CHAR(6);
     1611    11638    1   DCL PROJ_PACKSET_LIST SYMREF UBIN(36) ;
     1612    11639    1   DCL REMEM_VAR REMEMBER STATIC SYMDEF ;     /*  Remember variable  */
     1613    11640    1   DCL REMEM_VAR_BIT REDEF REMEM_VAR BIT (72); /* Used to 0 out val */
     1614    11641    1   DCL REM_FCMD REMEMBER STATIC SYMDEF ;      /*   Remember for fcmd  */
     1615    11642    1   DCL REM_FCMD_BIT REDEF REM_FCMD BIT (72);  /* Used to 0 out val */
     1616    11643    1   DCL ASA_BRKS_LOC REMEMBER STATIC SYMDEF;   /* Remember for brk  */
     1617    11644    1   DCL ASA_BRKS_LOC_BIT REDEF ASA_BRKS_LOC BIT (72); /* To 0 val */
     1618    11645    1   DCL FCMD_POS UBIN WORD STATIC SYMDEF ;
     1619    11646    1   DCL PROMPT_CHAR CHAR(31) STATIC SYMDEF INIT( ' ' ) ;
     1620    11647    1   DCL PROMPT_CNT UBIN WORD STATIC SYMDEF INIT( 0 ) ;
     1621    11648    1   DCL DSEG_FLG BIT(1) STATIC SYMDEF INIT('0'B) ;
     1622    11649    1   DCL DSEG1$ PTR STATIC SYMDEF INIT( ADDR(NIL)) ;
PL6.E3A0      #001=AS_SUPER_D File=AS_SUPER_D.:E05TSI                            TUE 07/29/97 10:59 Page:153
     1623    11650    1   DCL DSEG1SIZE UBIN WORD STATIC SYMDEF INIT(0) ;
     1624    11651    1   DCL DSEG2$ PTR STATIC SYMDEF INIT( ADDR(NIL)) ;
     1625    11652    1   DCL DSEG2SIZE UBIN WORD STATIC SYMDEF INIT(0) ;
     1626    11653    1   DCL DSEG3$ PTR STATIC SYMDEF INIT( ADDR(NIL) );
     1627    11654    1   DCL DSEG3SIZE UBIN WORD STATIC SYMDEF INIT(0);
     1628    11655    1   DCL ENQDEQ_FLG BIT(1) STATIC SYMDEF INIT('0'B) ;
     1629    11656    1   DCL ERR_CNT UBIN WORD STATIC SYMDEF INIT( 0 ) ;
     1630    11657    1   DCL WARN_CNT UBIN WORD STATIC SYMDEF INIT( 0 ) ;
     1631    11658    1   DCL 1 FILE_ACCT STATIC SYMDEF ,
     1632    11659    1          2 TXT CHAR(8) INIT(':SYS') ;
     1633    11660    1   DCL 1 AS_PROJECT_ADMIN STATIC SYMDEF,
     1634    11661    1          2 COUNT UBIN BYTE UNAL,
     1635    11662    1          2 TEXT CHAR(20) UNAL ;
     1636    11663    1   DCL 1 AS_LOGON_KEY STATIC SYMDEF,
     1637    11664    1          2 CNT UBIN BYTE UNAL,
     1638    11665    1          2 TEXT CHAR(20) UNAL;
     1639    11666    1   DCL AS_ACCT_MATCH CHAR(8) STATIC SYMDEF ;
     1640    11667    1   DCL AS_NAME_MATCH CHAR(12) STATIC SYMDEF ;
     1641    11668    1   DCL AS_WILD_USER BIT(1) STATIC SYMDEF INIT( '0'B );
     1642    11669    1   DCL AS_RESOURCE_LIST$ PTR STATIC SYMDEF INIT( ADDR(NIL) );
     1643    11670    1   DCL AS_FERESOURCE_LIST$ PTR STATIC SYMDEF INIT( ADDR(NIL) );
     1644    11671    1   DCL AS_PSEUDO_LIST$ PTR STATIC SYMDEF INIT( ADDR(NIL) );
     1645    11672    1   DCL AS_FEPSEUDO_LIST$ PTR STATIC SYMDEF INIT( ADDR(NIL) );
     1646    11673    1   DCL AS_PROJ_HEADER$ PTR STATIC SYMDEF INIT( ADDR(NIL) );
     1647    11674    1   DCL AS_SUPER_TO_PIG$ PTR STATIC SYMDEF INIT( ADDR(NIL) );
     1648    11675    1   DCL AS_DCBNUM# UBIN STATIC SYMDEF INIT( DCBNUM(NIL) );
     1649    11676    1   DCL AS_FACCOUNT_FLG BIT(1) STATIC SYMDEF INIT('0'B);
     1650    11677    1   DCL 1 DFLT_PROJ_USERS_KEY STATIC SYMDEF ALIGNED,
     1651    11678    1          2 CNT UBIN BYTE UNAL INIT(21),
     1652    11679    1          2 ACCOUNT CHAR(8) INIT(' '),
     1653    11680    1          2 NAME CHAR(12) INIT(' '),
     1654    11681    1          2 * CHAR(1) INIT('S');
     1655    11682    1   DCL AS_CR_MOD_PROJ    SBIN    STATIC  SYMDEF  INIT( 0 );
     1656    11683    1   DCL FROM_FLG BIT(1) STATIC SYMDEF ;
     1657    11684    1   DCL CR_MOD_FLG BIT(1) STATIC SYMDEF ;
     1658    11685    1   DCL AS_WILD_MCH SBIN STATIC SYMDEF ;
     1659    11686    1   DCL AS_WILD_MVAL SBIN STATIC SYMDEF ;
PL6.E3A0      #001=AS_SUPER_D File=AS_SUPER_D.:E05TSI                            TUE 07/29/97 10:59 Page:154
     1660    11687        %LIST ;
     1661    11688        %EJECT ;
PL6.E3A0      #001=AS_SUPER_D File=AS_SUPER_D.:E05TSI                            TUE 07/29/97 10:59 Page:155
     1662    11689              %P_PCB(T=IN_BUF,W=WK,WSZ=1024,N#=140,STCLASS="STATIC SYMDEF") ;
             11690        /*F*  NAME:     P_PCB
             11691              FUNCTION: Parse Control Block.  This structure is used to pass data
             11692                  to the X$PARSE utility, and to receive X$PARSE's responses.
             11693        */
             11694         %LSET LISTDIR='0'B;
             11707    1   DCL 1 P_PCB STATIC SYMDEF ALIGNED,
             11708    1         2 TEXT$ PTR INIT(ADDR(IN_BUF))/**/,
             11712    1         2 ROOT$ PTR INIT(ADDR(NIL))/**/,
             11716    1         2 WORK$ PTR INIT(ADDR(WK))/**/,
             11720    1         2 OUT$ PTR INIT(ADDR(NIL))/**/,
             11725    1         2 U$$ EPTR INIT(ENTADDR(NIL))/**/,
             11737    1         2 WKSZ UBIN(18) UNAL INIT(1024)/**/,
             11742    1         2 CMPRS BIT(1) UNAL INIT('1'B)/**/,
             11748    1         2 CONTINUE BIT(1) UNAL INIT('1'B)/**/,
             11752    1         2 NOLEADBLANKS BIT(1) UNAL INIT('0'B)/**/,
             11757    1         2 NXT BIT(1) UNAL INIT('0'B)/**/,
             11774    1         2 DYNMEM BIT(1) UNAL INIT('0'B)/**/,
             11779    1         2 KEYWORDS BIT (1) INIT ('0'B) /**/,
             11794    1         2 BLANKONLY BIT (1),
             11802    1         2 NXT_SZONLY BIT(1) UNAL INIT('0'B)/**/,
             11810    1         2 * BIT (10) INIT ('0'B) /**/,
             11811    1         2 ERROR ALIGNED,
             11816    1           3 FCG BIT(12) UNAL INIT('0'B)/**/,
             11817    1           3 MID BIT(6) UNAL INIT('0'B)/**/,
             11818    1           3 MON BIT(1) UNAL INIT('0'B)/**/,
             11819    1           3 CODE UBIN(14) UNAL INIT(0)/**/,
             11820    1           3 SEV UBIN(3) UNAL INIT(0)/**/,
             11821    1         2 COMMENT ALIGNED,
             11825    1           3 LEAD CHAR(2) UNAL INIT(' "')/**/,
             11833    1           3 TRAIL CHAR(2) UNAL INIT(' "')/**/,
             11840    1         2 WK_USED UBIN(18) UNAL INIT(0)/**/,
             11844    1         2 VERSION_CODE UBIN(4) UNAL INIT(1)/**/,
             11849    1         2 OUTDCB# UBIN(14) UNAL INIT(DCBNUM(NIL))/**/,
             11854    1         2 NCHARS UBIN WORD INIT(140)/**/,
             11858    1         2 HI_CHAR UBIN WORD INIT(0)/**/,
             11865    1         2 HINODE$ PTR INIT(ADDR(NIL))/**/,
PL6.E3A0      #001=AS_SUPER_D File=AS_SUPER_D.:E05TSI                            TUE 07/29/97 10:59 Page:156
             11874    1         2 USER$ PTR INIT(ADDR(NIL))/**/,
             11880    1         2 OUTENT$ EPTR INIT(ENTADDR(NIL))/**/;
     1663    11888        %EJECT ;
PL6.E3A0      #001=AS_SUPER_D File=AS_SUPER_D.:E05TSI                            TUE 07/29/97 10:59 Page:157
     1664    11889        %AS_USERS(STR_NAME=AS_USERS, STCLASS=STATIC SYMDEF );
             11890        %LSET LISTSUB = '1'B;
             11891        %LSET LISTEXP = '1'B;
             11892        %LSET STR='STATIC SYMDEF        ';
             11893        %IF
             11895            '1'B;
             11896        %LSET INIT=INIT;
             11897        %ELSE;
             11899        %ENDIF;
             11900        /*
             11901        */
             11902    1   DCL 1 AS_USERS STATIC SYMDEF,
             11903    1          2 ACCT CHAR(8) INIT(' ') /**/,
             11904    1          2 NAME CHAR(12) INIT(' ') /**/,
             11905    1          2 NAT_LANG CHAR(1) INIT(' ') /**/,            /* Native language */
             11906    1          2 STEPACCNT BIT(1) UNAL INIT('0'B) /**/,
             11907    1          2 BATOK BIT(1) UNAL INIT( '1'B ) /**/,
             11908    1          2 * BIT(7) UNAL INIT('0'B) /**/,
             11909    1          2 BATNUM SBIN HALF UNAL INIT(-1) /**/,
             11910    1          2 BUDGET,
             11911    1             3 MAXC SBIN INIT(-1) /**/, /* 'MCHARGES' for user */
             11912    1             3 ACCUM SBIN INIT(0) /**/, /*Charges accumulated by user*/
             11913    1             3 PMAXC SBIN INIT(-1) /**/, /* Proj. admin. record only;
             11914                                                             'MCHARGES for project */
             11915    1             3 PROJ_ALLOWED REDEF PMAXC SBIN, /* Default project record only;
             11916                                        maximum number of users allowed in this project
             11917                                        and all sub-projects. */
             11918    1             3 PACCUM SBIN INIT(0) /**/, /* Proj. admin. record only;
             11919                                                       charges accumulated by project */
             11920    1             3 PROJ_CREATED REDEF PACCUM SBIN, /* Default project record only;
             11921                                                  number of users created in project */
             11922    1             3 MACCT,
             11923    1                4 COUNT UBIN(9) UNAL INIT(4) /**/,
             11924    1                4 ACCT CHAR(8) UNAL INIT('NONE') /**/,
             11925    1                4 NAME CHAR(12) UNAL INIT(' ') /**/,
             11926    1             3 MACCT_ REDEF MACCT,
             11927    1                4 * UBIN BYTE UNAL,
PL6.E3A0      #001=AS_SUPER_D File=AS_SUPER_D.:E05TSI                            TUE 07/29/97 10:59 Page:158
             11928    1                4 TEXT CHAR(20) UNAL,
             11929    1             3 BKACC BIT(1) UNAL INIT('1'B) /**/,
             11930    1             3 BUDLIM BIT(1) UNAL INIT( '0'B ) /**/,
             11931    1             3 PCHARGES BIT(1) UNAL INIT( '1'B ) /**/,
             11932    1             3 ICHARGES BIT(1) UNAL INIT( '1'B ) /**/,
             11933    1             3 BLINDACCTNG BIT(1) UNAL INIT('0'B)/**/,
             11934    1             3 * BIT(4) INIT('0'B)/**/,
             11935    1             3 MAX_PROJECTS SBIN(18) UNAL INIT(0) /**/,
             11936                                          /* Proj. admin. record only;
             11937                                             maximum number of sub-projects allowed. */
             11938    1             3 SUB_PROJS REDEF MAX_PROJECTS SBIN(18) UNAL,
             11939                                          /* Default project record only;
             11940                                             number of sub-projects created. */
             11941    1          2 BILL(0:3) CHAR(6) UNAL INIT('1','1','1','1') /**/,
             11942    1          2 KEY(0:71) BIT(1) UNAL INIT('0'B*0) /**/,
             11943    1          2 *      CHAR(23) INIT(' ') /**/,
             11944    1          2 OUTPUTPRIO UBIN(9) UNAL INIT(7) /**/,
             11945                                                              /* Services */
             11946                                                              /*   Batch   = 0 ,
             11947                                                                   ghost   = 1 ,
             11948                                                                   on-line = 2,
             11949                                                                   tp      = 3
             11950                                                                               */
             11951    1          2 MLO(0:3) UBIN WORD UNAL INIT( 99999, 99999, 99999, 99999 ) /**/,
             11952    1          2 DLO(0:3) UBIN WORD UNAL INIT( 1000, 99999, 99999, 99999 ) /**/,
             11953    1          2 MDO(0:3) UBIN WORD UNAL INIT( 99999, 99999, 99999, 99999 ) /**/,
             11954    1          2 DDO(0:3) UBIN WORD UNAL INIT( 50, 99999, 99999, 99999 ) /**/,
             11955    1          2 MPO(0:3) UBIN WORD UNAL INIT( 99999, 99999, 99999, 99999 ) /**/,
             11956    1          2 DPO(0:3) UBIN WORD UNAL INIT( 100, 99999, 99999, 99999 ) /**/,
             11957    1          2 MPDIS(0:3) UBIN WORD UNAL INIT( 99999, 99999, 99999, 99999 ) /**/,
             11958    1          2 DPDIS(0:3) UBIN WORD UNAL INIT( 99999, 99999, 99999, 99999 ) /**/,
             11959    1          2 MTDIS(0:3) UBIN WORD UNAL INIT( 99999, 99999, 99999, 99999 ) /**/,
             11960    1          2 DTDIS(0:3) UBIN WORD UNAL INIT( 2000, 2000, 9999, 2000 ) /**/,
             11961    1          2 MFPOOLS(0:3) UBIN BYTE UNAL INIT( 31, 31, 31, 31 ) /**/,
             11962    1          2 DFPOOLS(0:3) UBIN BYTE UNAL INIT( 10, 10, 10, 10 ) /**/,
             11963    1          2 MMPRIO(0:3) UBIN BYTE UNAL INIT( 7, 7, 7, 7 ) /**/,
             11964    1          2 DMPRIO(0:3) UBIN BYTE UNAL INIT( 7, 7, 7, 7 ) /**/,
PL6.E3A0      #001=AS_SUPER_D File=AS_SUPER_D.:E05TSI                            TUE 07/29/97 10:59 Page:159
             11965    1          2 *     CHAR(36)                          /* Peripheral */
             11966    1             INIT(' ')/**/,
             11967    1          2 HPSN CHAR(6) INIT('SYS') /**/,
             11968    1          2 * UBIN(18) UNAL INIT(0) /**/,
             11969                                                                 /*   Command processor  */
             11970    1          2 CPROC(0:3) ALIGNED,
             11971    1             3 NAME,
             11972    1                4 CNT UBIN BYTE UNAL INIT(4*0) /**/,
             11973    1                4 TEXT CHAR(31) UNAL INIT('IBEX'*0) /**/,
             11974                                                         /*   Last command processor   */
             11975    1          2 LASTCPROC(0:3) ALIGNED,
             11976    1             3 NAME,
             11977    1                4 CNT UBIN BYTE UNAL INIT(0*0) /**/,
             11978    1                4 TEXT CHAR(31) UNAL INIT(' '*0) /**/,
             11979                                                              /*   Privileges   */
             11980    1          2 PRIV (0:3) BIT(36) ALIGNED INIT('0'B*0) /**/,
             11981    1          2 PPRIV (0:3) BIT(36) ALIGNED INIT('0'B*0) /**/,
             11982                                                              /*   Batch   = 0 ,
             11983                                                                   ghost   = 1 ,
             11984                                                                   on-line = 2,
             11985                                                                   tp      = 3
             11986                                                                             */
             11987    1          2 QUAN(0:3) SBIN HALF UNAL INIT(0*0) /**/,
             11988    1          2 *(0:3) UBIN HALF UNAL INIT(0*0) /**/,
             11989    1          2 PRIOB(0:3) SBIN BYTE UNAL INIT(0*0) /**/,
             11990    1          2 MEXP SBIN INIT(-1) /**/,                  /* Expiration */
             11991    1          2 DEXP SBIN INIT(-1) /**/,                  /* Expiration */
             11992    1          2 FLAGS ALIGNED,
             11993    1             3 *  BIT(5) UNAL INIT('0'B) /**/,
             11994    1             3 STARSACC BIT(1) UNAL INIT('0'B) /**/,   /* *S accounting */
             11995    1             3 * BIT(30) UNAL INIT('0'B) /**/,
             11996    1          2 INSTUSE CHAR(16) INIT(' ') /**/,            /* Installation use */
             11997                                                              /*  Time  */
             11998    1          2 MTIME(0:3) UBIN WORD UNAL INIT( 59999400, 59999400, 59999400,59999400 )
             11998                   /**/,
             11999    1          2 DTIME(0:3) UBIN WORD UNAL INIT( 60000,59999400,59999400,59999400 ) /**/,
             12000                                                              /*  Memory  */
PL6.E3A0      #001=AS_SUPER_D File=AS_SUPER_D.:E05TSI                            TUE 07/29/97 10:59 Page:160
             12001    1          2 MMEM(0:3) UBIN HALF UNAL INIT( 511, 511, 511, 511 ) /**/,
             12002    1          2 DMEM(0:3) UBIN HALF UNAL INIT( 64, 256, 128, 256 ) /**/,
             12003    1          2 PSDOL(0:7),
             12004    1             3 PSDO_NAME CHAR(8) UNAL INIT( ' '*0 ) /**/,
             12005    1             3 BMAX UBIN HALF UNAL INIT( 0*0 ) /**/,
             12006    1             3 GMAX UBIN HALF UNAL INIT( 0*0 ) /**/,
             12007    1             3 OMAX UBIN HALF UNAL INIT( 0*0 ) /**/,
             12008    1             3 TMAX UBIN HALF UNAL INIT( 0*0 ) /**/,
             12009    1          2 TOT_TYPES UBIN HALF UNAL INIT( 2 )/**/ ,    /* Total res. Types */
             12010    1          2 RESL( 0:7 ) UNAL ,     /* Resources */
             12011    1             3 RNAME CHAR(2) UNAL INIT( 'MT', 'DP', ' '*0)/**/,
             12012    1             3 BMAX UBIN HALF UNAL INIT( 4, 4, 0*0 )/**/,
             12013    1             3 GMAX UBIN HALF UNAL INIT( 4, 4, 0*0 )/**/ ,
             12014    1             3 OMAX UBIN HALF UNAL INIT( 4, 4, 0*0 ) /**/,
             12015    1             3 TMAX UBIN HALF UNAL INIT( 4, 4, 0*0 ) /**/,
             12016    1          2 SETUP_PERM(0:3) BIT(1) UNAL INIT('0'B*0)/**/,
             12017    1          2 BANNER_PERM (0:9) BIT (1) UNAL INIT ('0'B*0)/**/,
             12018    1          2 PERM_BLOCK REDEF BANNER_PERM BIT (10),
             12019    1          2 SETUP_FORCE(0:3) BIT(1) UNAL INIT('0'B*0)/**/,
             12020                    /* This bit marks if the setup can be bypassed with the
             12021                       ns option during logon.
             12022                    */
             12023                                           /* Setup contains the index into the
             12024                                              pool of text, it is referenced
             12025                                              with the following text structure.
             12026                                              An index of
             12027                                              -1 implies that the setup command
             12028                                              for that mode does not exist.  */
             12029    1          2 SETUP(0:3) SBIN HALF UNAL INIT(-1*0)/**/,
             12030    1          2 BANNER (0:9) SBIN HALF UNAL INIT (-1*0)/**/,
             12031    1          2 SETUP_CHRA ALIGNED,
             12032    1             3 SIZE UBIN INIT (0) /**/,
             12033    1             3 TXT CHAR (1024) INIT (' ') /**/,
             12034    1             3 TXT_CHR (0:1023) REDEF TXT CHAR (1),
             12035    1             3 TXT_UBIN (0:1023) REDEF TXT UBIN (9) UNAL,
             12036                           /* At the third level- SIZE_ is the total size of
             12037                              the used area in the pool of setup and banner
PL6.E3A0      #001=AS_SUPER_D File=AS_SUPER_D.:E05TSI                            TUE 07/29/97 10:59 Page:161
             12038                              text items. SETUPMAX-SIZE_=free space remaining.
             12039                              Txt is the area containing setup and banner
             12040                              TXT_CHR and TXT_UBIN are ways of accessing the
             12041                              text for those commands.                     */
             12042    1          2 LAST_LOGON_TIME BIT(36) ALIGNED INIT('0'B) /**/,
             12043                           /* Uts of last successful logon, from slug. */
             12044    1          2 BAD_LOGON_CNT UBIN HALF UNAL INIT(0) /**/,
             12045                /* Number of failed logon attempts logged since the last
             12046                   system exit.                                           */
             12047    1          2 RFUH1 UBIN HALF UNAL INIT(0) /**/,
             12048                 /* Reserved for future use half word.  */
             12049    1          2 LOGINS   (0:3) ,
             12050    1             3 LAST_LOGON_TIME UBIN INIT (0*0) /**/,
             12051                           /* Uts of last successful logon, from slug. */
             12052    1             3 BAD_LOGON_CNT  UBIN  INIT (0*0) /**/,
             12053                 /* No. of failed logon attempts logged since the last
             12054                    system exit.  */
             12055    1          2  PASSWORD_CHANGE_TIME UBIN INIT (0) /**/,
             12056                 /* Uts of the last password change. Currently not used. */
             12057    1          2  MAXENQ(0:3) UBIN (18) UNAL INIT (0*0) /**/,
             12058                 /* Maximum number of enq/deq packets for this user. */
             12059    1          2  RFUW1  UBIN  INIT (0) /**/,
             12060                 /* Reserved for future use word. */
             12061    1          2  RFUW2  UBIN  INIT (0) /**/,
             12062    1          2  RFUW3  UBIN  INIT (0) /**/,
             12063    1          2  RFUW4  UBIN  INIT (0) /**/,
             12064    1          2  RFUW5  UBIN  INIT (0) /**/
             12065    1   ;
     1665    12067        %AS_USERS(STR_NAME=AS_DFLT, STCLASS=STATIC SYMDEF );
             12068        %LSET LISTSUB = '1'B;
             12069        %LSET LISTEXP = '1'B;
             12070        %LSET STR='STATIC SYMDEF        ';
             12071        %IF
             12073            '1'B;
             12074        %LSET INIT=INIT;
             12075        %ELSE;
             12077        %ENDIF;
PL6.E3A0      #001=AS_SUPER_D File=AS_SUPER_D.:E05TSI                            TUE 07/29/97 10:59 Page:162
             12078        /*
             12079        */
             12080    1   DCL 1 AS_DFLT STATIC SYMDEF,
             12081    1          2 ACCT CHAR(8) INIT(' ') /**/,
             12082    1          2 NAME CHAR(12) INIT(' ') /**/,
             12083    1          2 NAT_LANG CHAR(1) INIT(' ') /**/,            /* Native language */
             12084    1          2 STEPACCNT BIT(1) UNAL INIT('0'B) /**/,
             12085    1          2 BATOK BIT(1) UNAL INIT( '1'B ) /**/,
             12086    1          2 * BIT(7) UNAL INIT('0'B) /**/,
             12087    1          2 BATNUM SBIN HALF UNAL INIT(-1) /**/,
             12088    1          2 BUDGET,
             12089    1             3 MAXC SBIN INIT(-1) /**/, /* 'MCHARGES' for user */
             12090    1             3 ACCUM SBIN INIT(0) /**/, /*Charges accumulated by user*/
             12091    1             3 PMAXC SBIN INIT(-1) /**/, /* Proj. admin. record only;
             12092                                                             'MCHARGES for project */
             12093    1             3 PROJ_ALLOWED REDEF PMAXC SBIN, /* Default project record only;
             12094                                        maximum number of users allowed in this project
             12095                                        and all sub-projects. */
             12096    1             3 PACCUM SBIN INIT(0) /**/, /* Proj. admin. record only;
             12097                                                       charges accumulated by project */
             12098    1             3 PROJ_CREATED REDEF PACCUM SBIN, /* Default project record only;
             12099                                                  number of users created in project */
             12100    1             3 MACCT,
             12101    1                4 COUNT UBIN(9) UNAL INIT(4) /**/,
             12102    1                4 ACCT CHAR(8) UNAL INIT('NONE') /**/,
             12103    1                4 NAME CHAR(12) UNAL INIT(' ') /**/,
             12104    1             3 MACCT_ REDEF MACCT,
             12105    1                4 * UBIN BYTE UNAL,
             12106    1                4 TEXT CHAR(20) UNAL,
             12107    1             3 BKACC BIT(1) UNAL INIT('1'B) /**/,
             12108    1             3 BUDLIM BIT(1) UNAL INIT( '0'B ) /**/,
             12109    1             3 PCHARGES BIT(1) UNAL INIT( '1'B ) /**/,
             12110    1             3 ICHARGES BIT(1) UNAL INIT( '1'B ) /**/,
             12111    1             3 BLINDACCTNG BIT(1) UNAL INIT('0'B)/**/,
             12112    1             3 * BIT(4) INIT('0'B)/**/,
             12113    1             3 MAX_PROJECTS SBIN(18) UNAL INIT(0) /**/,
             12114                                          /* Proj. admin. record only;
PL6.E3A0      #001=AS_SUPER_D File=AS_SUPER_D.:E05TSI                            TUE 07/29/97 10:59 Page:163
             12115                                             maximum number of sub-projects allowed. */
             12116    1             3 SUB_PROJS REDEF MAX_PROJECTS SBIN(18) UNAL,
             12117                                          /* Default project record only;
             12118                                             number of sub-projects created. */
             12119    1          2 BILL(0:3) CHAR(6) UNAL INIT('1','1','1','1') /**/,
             12120    1          2 KEY(0:71) BIT(1) UNAL INIT('0'B*0) /**/,
             12121    1          2 *      CHAR(23) INIT(' ') /**/,
             12122    1          2 OUTPUTPRIO UBIN(9) UNAL INIT(7) /**/,
             12123                                                              /* Services */
             12124                                                              /*   Batch   = 0 ,
             12125                                                                   ghost   = 1 ,
             12126                                                                   on-line = 2,
             12127                                                                   tp      = 3
             12128                                                                               */
             12129    1          2 MLO(0:3) UBIN WORD UNAL INIT( 99999, 99999, 99999, 99999 ) /**/,
             12130    1          2 DLO(0:3) UBIN WORD UNAL INIT( 1000, 99999, 99999, 99999 ) /**/,
             12131    1          2 MDO(0:3) UBIN WORD UNAL INIT( 99999, 99999, 99999, 99999 ) /**/,
             12132    1          2 DDO(0:3) UBIN WORD UNAL INIT( 50, 99999, 99999, 99999 ) /**/,
             12133    1          2 MPO(0:3) UBIN WORD UNAL INIT( 99999, 99999, 99999, 99999 ) /**/,
             12134    1          2 DPO(0:3) UBIN WORD UNAL INIT( 100, 99999, 99999, 99999 ) /**/,
             12135    1          2 MPDIS(0:3) UBIN WORD UNAL INIT( 99999, 99999, 99999, 99999 ) /**/,
             12136    1          2 DPDIS(0:3) UBIN WORD UNAL INIT( 99999, 99999, 99999, 99999 ) /**/,
             12137    1          2 MTDIS(0:3) UBIN WORD UNAL INIT( 99999, 99999, 99999, 99999 ) /**/,
             12138    1          2 DTDIS(0:3) UBIN WORD UNAL INIT( 2000, 2000, 9999, 2000 ) /**/,
             12139    1          2 MFPOOLS(0:3) UBIN BYTE UNAL INIT( 31, 31, 31, 31 ) /**/,
             12140    1          2 DFPOOLS(0:3) UBIN BYTE UNAL INIT( 10, 10, 10, 10 ) /**/,
             12141    1          2 MMPRIO(0:3) UBIN BYTE UNAL INIT( 7, 7, 7, 7 ) /**/,
             12142    1          2 DMPRIO(0:3) UBIN BYTE UNAL INIT( 7, 7, 7, 7 ) /**/,
             12143    1          2 *     CHAR(36)                          /* Peripheral */
             12144    1             INIT(' ')/**/,
             12145    1          2 HPSN CHAR(6) INIT('SYS') /**/,
             12146    1          2 * UBIN(18) UNAL INIT(0) /**/,
             12147                                                                 /*   Command processor  */
             12148    1          2 CPROC(0:3) ALIGNED,
             12149    1             3 NAME,
             12150    1                4 CNT UBIN BYTE UNAL INIT(4*0) /**/,
             12151    1                4 TEXT CHAR(31) UNAL INIT('IBEX'*0) /**/,
PL6.E3A0      #001=AS_SUPER_D File=AS_SUPER_D.:E05TSI                            TUE 07/29/97 10:59 Page:164
             12152                                                         /*   Last command processor   */
             12153    1          2 LASTCPROC(0:3) ALIGNED,
             12154    1             3 NAME,
             12155    1                4 CNT UBIN BYTE UNAL INIT(0*0) /**/,
             12156    1                4 TEXT CHAR(31) UNAL INIT(' '*0) /**/,
             12157                                                              /*   Privileges   */
             12158    1          2 PRIV (0:3) BIT(36) ALIGNED INIT('0'B*0) /**/,
             12159    1          2 PPRIV (0:3) BIT(36) ALIGNED INIT('0'B*0) /**/,
             12160                                                              /*   Batch   = 0 ,
             12161                                                                   ghost   = 1 ,
             12162                                                                   on-line = 2,
             12163                                                                   tp      = 3
             12164                                                                             */
             12165    1          2 QUAN(0:3) SBIN HALF UNAL INIT(0*0) /**/,
             12166    1          2 *(0:3) UBIN HALF UNAL INIT(0*0) /**/,
             12167    1          2 PRIOB(0:3) SBIN BYTE UNAL INIT(0*0) /**/,
             12168    1          2 MEXP SBIN INIT(-1) /**/,                  /* Expiration */
             12169    1          2 DEXP SBIN INIT(-1) /**/,                  /* Expiration */
             12170    1          2 FLAGS ALIGNED,
             12171    1             3 *  BIT(5) UNAL INIT('0'B) /**/,
             12172    1             3 STARSACC BIT(1) UNAL INIT('0'B) /**/,   /* *S accounting */
             12173    1             3 * BIT(30) UNAL INIT('0'B) /**/,
             12174    1          2 INSTUSE CHAR(16) INIT(' ') /**/,            /* Installation use */
             12175                                                              /*  Time  */
             12176    1          2 MTIME(0:3) UBIN WORD UNAL INIT( 59999400, 59999400, 59999400,59999400 )
             12176                   /**/,
             12177    1          2 DTIME(0:3) UBIN WORD UNAL INIT( 60000,59999400,59999400,59999400 ) /**/,
             12178                                                              /*  Memory  */
             12179    1          2 MMEM(0:3) UBIN HALF UNAL INIT( 511, 511, 511, 511 ) /**/,
             12180    1          2 DMEM(0:3) UBIN HALF UNAL INIT( 64, 256, 128, 256 ) /**/,
             12181    1          2 PSDOL(0:7),
             12182    1             3 PSDO_NAME CHAR(8) UNAL INIT( ' '*0 ) /**/,
             12183    1             3 BMAX UBIN HALF UNAL INIT( 0*0 ) /**/,
             12184    1             3 GMAX UBIN HALF UNAL INIT( 0*0 ) /**/,
             12185    1             3 OMAX UBIN HALF UNAL INIT( 0*0 ) /**/,
             12186    1             3 TMAX UBIN HALF UNAL INIT( 0*0 ) /**/,
             12187    1          2 TOT_TYPES UBIN HALF UNAL INIT( 2 )/**/ ,    /* Total res. Types */
PL6.E3A0      #001=AS_SUPER_D File=AS_SUPER_D.:E05TSI                            TUE 07/29/97 10:59 Page:165
             12188    1          2 RESL( 0:7 ) UNAL ,     /* Resources */
             12189    1             3 RNAME CHAR(2) UNAL INIT( 'MT', 'DP', ' '*0)/**/,
             12190    1             3 BMAX UBIN HALF UNAL INIT( 4, 4, 0*0 )/**/,
             12191    1             3 GMAX UBIN HALF UNAL INIT( 4, 4, 0*0 )/**/ ,
             12192    1             3 OMAX UBIN HALF UNAL INIT( 4, 4, 0*0 ) /**/,
             12193    1             3 TMAX UBIN HALF UNAL INIT( 4, 4, 0*0 ) /**/,
             12194    1          2 SETUP_PERM(0:3) BIT(1) UNAL INIT('0'B*0)/**/,
             12195    1          2 BANNER_PERM (0:9) BIT (1) UNAL INIT ('0'B*0)/**/,
             12196    1          2 PERM_BLOCK REDEF BANNER_PERM BIT (10),
             12197    1          2 SETUP_FORCE(0:3) BIT(1) UNAL INIT('0'B*0)/**/,
             12198                    /* This bit marks if the setup can be bypassed with the
             12199                       ns option during logon.
             12200                    */
             12201                                           /* Setup contains the index into the
             12202                                              pool of text, it is referenced
             12203                                              with the following text structure.
             12204                                              An index of
             12205                                              -1 implies that the setup command
             12206                                              for that mode does not exist.  */
             12207    1          2 SETUP(0:3) SBIN HALF UNAL INIT(-1*0)/**/,
             12208    1          2 BANNER (0:9) SBIN HALF UNAL INIT (-1*0)/**/,
             12209    1          2 SETUP_CHRA ALIGNED,
             12210    1             3 SIZE UBIN INIT (0) /**/,
             12211    1             3 TXT CHAR (1024) INIT (' ') /**/,
             12212    1             3 TXT_CHR (0:1023) REDEF TXT CHAR (1),
             12213    1             3 TXT_UBIN (0:1023) REDEF TXT UBIN (9) UNAL,
             12214                           /* At the third level- SIZE_ is the total size of
             12215                              the used area in the pool of setup and banner
             12216                              text items. SETUPMAX-SIZE_=free space remaining.
             12217                              Txt is the area containing setup and banner
             12218                              TXT_CHR and TXT_UBIN are ways of accessing the
             12219                              text for those commands.                     */
             12220    1          2 LAST_LOGON_TIME BIT(36) ALIGNED INIT('0'B) /**/,
             12221                           /* Uts of last successful logon, from slug. */
             12222    1          2 BAD_LOGON_CNT UBIN HALF UNAL INIT(0) /**/,
             12223                /* Number of failed logon attempts logged since the last
             12224                   system exit.                                           */
PL6.E3A0      #001=AS_SUPER_D File=AS_SUPER_D.:E05TSI                            TUE 07/29/97 10:59 Page:166
             12225    1          2 RFUH1 UBIN HALF UNAL INIT(0) /**/,
             12226                 /* Reserved for future use half word.  */
             12227    1          2 LOGINS   (0:3) ,
             12228    1             3 LAST_LOGON_TIME UBIN INIT (0*0) /**/,
             12229                           /* Uts of last successful logon, from slug. */
             12230    1             3 BAD_LOGON_CNT  UBIN  INIT (0*0) /**/,
             12231                 /* No. of failed logon attempts logged since the last
             12232                    system exit.  */
             12233    1          2  PASSWORD_CHANGE_TIME UBIN INIT (0) /**/,
             12234                 /* Uts of the last password change. Currently not used. */
             12235    1          2  MAXENQ(0:3) UBIN (18) UNAL INIT (0*0) /**/,
             12236                 /* Maximum number of enq/deq packets for this user. */
             12237    1          2  RFUW1  UBIN  INIT (0) /**/,
             12238                 /* Reserved for future use word. */
             12239    1          2  RFUW2  UBIN  INIT (0) /**/,
             12240    1          2  RFUW3  UBIN  INIT (0) /**/,
             12241    1          2  RFUW4  UBIN  INIT (0) /**/,
             12242    1          2  RFUW5  UBIN  INIT (0) /**/
             12243    1   ;
     1666    12245        %AS_USERS(STR_NAME=AS_DEFAULT, STCLASS=STATIC SYMDEF );
             12246        %LSET LISTSUB = '1'B;
             12247        %LSET LISTEXP = '1'B;
             12248        %LSET STR='STATIC SYMDEF        ';
             12249        %IF
             12251            '1'B;
             12252        %LSET INIT=INIT;
             12253        %ELSE;
             12255        %ENDIF;
             12256        /*
             12257        */
             12258    1   DCL 1 AS_DEFAULT STATIC SYMDEF,
             12259    1          2 ACCT CHAR(8) INIT(' ') /**/,
             12260    1          2 NAME CHAR(12) INIT(' ') /**/,
             12261    1          2 NAT_LANG CHAR(1) INIT(' ') /**/,            /* Native language */
             12262    1          2 STEPACCNT BIT(1) UNAL INIT('0'B) /**/,
             12263    1          2 BATOK BIT(1) UNAL INIT( '1'B ) /**/,
             12264    1          2 * BIT(7) UNAL INIT('0'B) /**/,
PL6.E3A0      #001=AS_SUPER_D File=AS_SUPER_D.:E05TSI                            TUE 07/29/97 10:59 Page:167
             12265    1          2 BATNUM SBIN HALF UNAL INIT(-1) /**/,
             12266    1          2 BUDGET,
             12267    1             3 MAXC SBIN INIT(-1) /**/, /* 'MCHARGES' for user */
             12268    1             3 ACCUM SBIN INIT(0) /**/, /*Charges accumulated by user*/
             12269    1             3 PMAXC SBIN INIT(-1) /**/, /* Proj. admin. record only;
             12270                                                             'MCHARGES for project */
             12271    1             3 PROJ_ALLOWED REDEF PMAXC SBIN, /* Default project record only;
             12272                                        maximum number of users allowed in this project
             12273                                        and all sub-projects. */
             12274    1             3 PACCUM SBIN INIT(0) /**/, /* Proj. admin. record only;
             12275                                                       charges accumulated by project */
             12276    1             3 PROJ_CREATED REDEF PACCUM SBIN, /* Default project record only;
             12277                                                  number of users created in project */
             12278    1             3 MACCT,
             12279    1                4 COUNT UBIN(9) UNAL INIT(4) /**/,
             12280    1                4 ACCT CHAR(8) UNAL INIT('NONE') /**/,
             12281    1                4 NAME CHAR(12) UNAL INIT(' ') /**/,
             12282    1             3 MACCT_ REDEF MACCT,
             12283    1                4 * UBIN BYTE UNAL,
             12284    1                4 TEXT CHAR(20) UNAL,
             12285    1             3 BKACC BIT(1) UNAL INIT('1'B) /**/,
             12286    1             3 BUDLIM BIT(1) UNAL INIT( '0'B ) /**/,
             12287    1             3 PCHARGES BIT(1) UNAL INIT( '1'B ) /**/,
             12288    1             3 ICHARGES BIT(1) UNAL INIT( '1'B ) /**/,
             12289    1             3 BLINDACCTNG BIT(1) UNAL INIT('0'B)/**/,
             12290    1             3 * BIT(4) INIT('0'B)/**/,
             12291    1             3 MAX_PROJECTS SBIN(18) UNAL INIT(0) /**/,
             12292                                          /* Proj. admin. record only;
             12293                                             maximum number of sub-projects allowed. */
             12294    1             3 SUB_PROJS REDEF MAX_PROJECTS SBIN(18) UNAL,
             12295                                          /* Default project record only;
             12296                                             number of sub-projects created. */
             12297    1          2 BILL(0:3) CHAR(6) UNAL INIT('1','1','1','1') /**/,
             12298    1          2 KEY(0:71) BIT(1) UNAL INIT('0'B*0) /**/,
             12299    1          2 *      CHAR(23) INIT(' ') /**/,
             12300    1          2 OUTPUTPRIO UBIN(9) UNAL INIT(7) /**/,
             12301                                                              /* Services */
PL6.E3A0      #001=AS_SUPER_D File=AS_SUPER_D.:E05TSI                            TUE 07/29/97 10:59 Page:168
             12302                                                              /*   Batch   = 0 ,
             12303                                                                   ghost   = 1 ,
             12304                                                                   on-line = 2,
             12305                                                                   tp      = 3
             12306                                                                               */
             12307    1          2 MLO(0:3) UBIN WORD UNAL INIT( 99999, 99999, 99999, 99999 ) /**/,
             12308    1          2 DLO(0:3) UBIN WORD UNAL INIT( 1000, 99999, 99999, 99999 ) /**/,
             12309    1          2 MDO(0:3) UBIN WORD UNAL INIT( 99999, 99999, 99999, 99999 ) /**/,
             12310    1          2 DDO(0:3) UBIN WORD UNAL INIT( 50, 99999, 99999, 99999 ) /**/,
             12311    1          2 MPO(0:3) UBIN WORD UNAL INIT( 99999, 99999, 99999, 99999 ) /**/,
             12312    1          2 DPO(0:3) UBIN WORD UNAL INIT( 100, 99999, 99999, 99999 ) /**/,
             12313    1          2 MPDIS(0:3) UBIN WORD UNAL INIT( 99999, 99999, 99999, 99999 ) /**/,
             12314    1          2 DPDIS(0:3) UBIN WORD UNAL INIT( 99999, 99999, 99999, 99999 ) /**/,
             12315    1          2 MTDIS(0:3) UBIN WORD UNAL INIT( 99999, 99999, 99999, 99999 ) /**/,
             12316    1          2 DTDIS(0:3) UBIN WORD UNAL INIT( 2000, 2000, 9999, 2000 ) /**/,
             12317    1          2 MFPOOLS(0:3) UBIN BYTE UNAL INIT( 31, 31, 31, 31 ) /**/,
             12318    1          2 DFPOOLS(0:3) UBIN BYTE UNAL INIT( 10, 10, 10, 10 ) /**/,
             12319    1          2 MMPRIO(0:3) UBIN BYTE UNAL INIT( 7, 7, 7, 7 ) /**/,
             12320    1          2 DMPRIO(0:3) UBIN BYTE UNAL INIT( 7, 7, 7, 7 ) /**/,
             12321    1          2 *     CHAR(36)                          /* Peripheral */
             12322    1             INIT(' ')/**/,
             12323    1          2 HPSN CHAR(6) INIT('SYS') /**/,
             12324    1          2 * UBIN(18) UNAL INIT(0) /**/,
             12325                                                                 /*   Command processor  */
             12326    1          2 CPROC(0:3) ALIGNED,
             12327    1             3 NAME,
             12328    1                4 CNT UBIN BYTE UNAL INIT(4*0) /**/,
             12329    1                4 TEXT CHAR(31) UNAL INIT('IBEX'*0) /**/,
             12330                                                         /*   Last command processor   */
             12331    1          2 LASTCPROC(0:3) ALIGNED,
             12332    1             3 NAME,
             12333    1                4 CNT UBIN BYTE UNAL INIT(0*0) /**/,
             12334    1                4 TEXT CHAR(31) UNAL INIT(' '*0) /**/,
             12335                                                              /*   Privileges   */
             12336    1          2 PRIV (0:3) BIT(36) ALIGNED INIT('0'B*0) /**/,
             12337    1          2 PPRIV (0:3) BIT(36) ALIGNED INIT('0'B*0) /**/,
             12338                                                              /*   Batch   = 0 ,
PL6.E3A0      #001=AS_SUPER_D File=AS_SUPER_D.:E05TSI                            TUE 07/29/97 10:59 Page:169
             12339                                                                   ghost   = 1 ,
             12340                                                                   on-line = 2,
             12341                                                                   tp      = 3
             12342                                                                             */
             12343    1          2 QUAN(0:3) SBIN HALF UNAL INIT(0*0) /**/,
             12344    1          2 *(0:3) UBIN HALF UNAL INIT(0*0) /**/,
             12345    1          2 PRIOB(0:3) SBIN BYTE UNAL INIT(0*0) /**/,
             12346    1          2 MEXP SBIN INIT(-1) /**/,                  /* Expiration */
             12347    1          2 DEXP SBIN INIT(-1) /**/,                  /* Expiration */
             12348    1          2 FLAGS ALIGNED,
             12349    1             3 *  BIT(5) UNAL INIT('0'B) /**/,
             12350    1             3 STARSACC BIT(1) UNAL INIT('0'B) /**/,   /* *S accounting */
             12351    1             3 * BIT(30) UNAL INIT('0'B) /**/,
             12352    1          2 INSTUSE CHAR(16) INIT(' ') /**/,            /* Installation use */
             12353                                                              /*  Time  */
             12354    1          2 MTIME(0:3) UBIN WORD UNAL INIT( 59999400, 59999400, 59999400,59999400 )
             12354                   /**/,
             12355    1          2 DTIME(0:3) UBIN WORD UNAL INIT( 60000,59999400,59999400,59999400 ) /**/,
             12356                                                              /*  Memory  */
             12357    1          2 MMEM(0:3) UBIN HALF UNAL INIT( 511, 511, 511, 511 ) /**/,
             12358    1          2 DMEM(0:3) UBIN HALF UNAL INIT( 64, 256, 128, 256 ) /**/,
             12359    1          2 PSDOL(0:7),
             12360    1             3 PSDO_NAME CHAR(8) UNAL INIT( ' '*0 ) /**/,
             12361    1             3 BMAX UBIN HALF UNAL INIT( 0*0 ) /**/,
             12362    1             3 GMAX UBIN HALF UNAL INIT( 0*0 ) /**/,
             12363    1             3 OMAX UBIN HALF UNAL INIT( 0*0 ) /**/,
             12364    1             3 TMAX UBIN HALF UNAL INIT( 0*0 ) /**/,
             12365    1          2 TOT_TYPES UBIN HALF UNAL INIT( 2 )/**/ ,    /* Total res. Types */
             12366    1          2 RESL( 0:7 ) UNAL ,     /* Resources */
             12367    1             3 RNAME CHAR(2) UNAL INIT( 'MT', 'DP', ' '*0)/**/,
             12368    1             3 BMAX UBIN HALF UNAL INIT( 4, 4, 0*0 )/**/,
             12369    1             3 GMAX UBIN HALF UNAL INIT( 4, 4, 0*0 )/**/ ,
             12370    1             3 OMAX UBIN HALF UNAL INIT( 4, 4, 0*0 ) /**/,
             12371    1             3 TMAX UBIN HALF UNAL INIT( 4, 4, 0*0 ) /**/,
             12372    1          2 SETUP_PERM(0:3) BIT(1) UNAL INIT('0'B*0)/**/,
             12373    1          2 BANNER_PERM (0:9) BIT (1) UNAL INIT ('0'B*0)/**/,
             12374    1          2 PERM_BLOCK REDEF BANNER_PERM BIT (10),
PL6.E3A0      #001=AS_SUPER_D File=AS_SUPER_D.:E05TSI                            TUE 07/29/97 10:59 Page:170
             12375    1          2 SETUP_FORCE(0:3) BIT(1) UNAL INIT('0'B*0)/**/,
             12376                    /* This bit marks if the setup can be bypassed with the
             12377                       ns option during logon.
             12378                    */
             12379                                           /* Setup contains the index into the
             12380                                              pool of text, it is referenced
             12381                                              with the following text structure.
             12382                                              An index of
             12383                                              -1 implies that the setup command
             12384                                              for that mode does not exist.  */
             12385    1          2 SETUP(0:3) SBIN HALF UNAL INIT(-1*0)/**/,
             12386    1          2 BANNER (0:9) SBIN HALF UNAL INIT (-1*0)/**/,
             12387    1          2 SETUP_CHRA ALIGNED,
             12388    1             3 SIZE UBIN INIT (0) /**/,
             12389    1             3 TXT CHAR (1024) INIT (' ') /**/,
             12390    1             3 TXT_CHR (0:1023) REDEF TXT CHAR (1),
             12391    1             3 TXT_UBIN (0:1023) REDEF TXT UBIN (9) UNAL,
             12392                           /* At the third level- SIZE_ is the total size of
             12393                              the used area in the pool of setup and banner
             12394                              text items. SETUPMAX-SIZE_=free space remaining.
             12395                              Txt is the area containing setup and banner
             12396                              TXT_CHR and TXT_UBIN are ways of accessing the
             12397                              text for those commands.                     */
             12398    1          2 LAST_LOGON_TIME BIT(36) ALIGNED INIT('0'B) /**/,
             12399                           /* Uts of last successful logon, from slug. */
             12400    1          2 BAD_LOGON_CNT UBIN HALF UNAL INIT(0) /**/,
             12401                /* Number of failed logon attempts logged since the last
             12402                   system exit.                                           */
             12403    1          2 RFUH1 UBIN HALF UNAL INIT(0) /**/,
             12404                 /* Reserved for future use half word.  */
             12405    1          2 LOGINS   (0:3) ,
             12406    1             3 LAST_LOGON_TIME UBIN INIT (0*0) /**/,
             12407                           /* Uts of last successful logon, from slug. */
             12408    1             3 BAD_LOGON_CNT  UBIN  INIT (0*0) /**/,
             12409                 /* No. of failed logon attempts logged since the last
             12410                    system exit.  */
             12411    1          2  PASSWORD_CHANGE_TIME UBIN INIT (0) /**/,
PL6.E3A0      #001=AS_SUPER_D File=AS_SUPER_D.:E05TSI                            TUE 07/29/97 10:59 Page:171
             12412                 /* Uts of the last password change. Currently not used. */
             12413    1          2  MAXENQ(0:3) UBIN (18) UNAL INIT (0*0) /**/,
             12414                 /* Maximum number of enq/deq packets for this user. */
             12415    1          2  RFUW1  UBIN  INIT (0) /**/,
             12416                 /* Reserved for future use word. */
             12417    1          2  RFUW2  UBIN  INIT (0) /**/,
             12418    1          2  RFUW3  UBIN  INIT (0) /**/,
             12419    1          2  RFUW4  UBIN  INIT (0) /**/,
             12420    1          2  RFUW5  UBIN  INIT (0) /**/
             12421    1   ;
     1667    12423        %AS_USERS(STR_NAME=AS_PROJ_ADMIN, STCLASS=STATIC SYMDEF );
             12424        %LSET LISTSUB = '1'B;
             12425        %LSET LISTEXP = '1'B;
             12426        %LSET STR='STATIC SYMDEF        ';
             12427        %IF
             12429            '1'B;
             12430        %LSET INIT=INIT;
             12431        %ELSE;
             12433        %ENDIF;
             12434        /*
             12435        */
             12436    1   DCL 1 AS_PROJ_ADMIN STATIC SYMDEF,
             12437    1          2 ACCT CHAR(8) INIT(' ') /**/,
             12438    1          2 NAME CHAR(12) INIT(' ') /**/,
             12439    1          2 NAT_LANG CHAR(1) INIT(' ') /**/,            /* Native language */
             12440    1          2 STEPACCNT BIT(1) UNAL INIT('0'B) /**/,
             12441    1          2 BATOK BIT(1) UNAL INIT( '1'B ) /**/,
             12442    1          2 * BIT(7) UNAL INIT('0'B) /**/,
             12443    1          2 BATNUM SBIN HALF UNAL INIT(-1) /**/,
             12444    1          2 BUDGET,
             12445    1             3 MAXC SBIN INIT(-1) /**/, /* 'MCHARGES' for user */
             12446    1             3 ACCUM SBIN INIT(0) /**/, /*Charges accumulated by user*/
             12447    1             3 PMAXC SBIN INIT(-1) /**/, /* Proj. admin. record only;
             12448                                                             'MCHARGES for project */
             12449    1             3 PROJ_ALLOWED REDEF PMAXC SBIN, /* Default project record only;
             12450                                        maximum number of users allowed in this project
             12451                                        and all sub-projects. */
PL6.E3A0      #001=AS_SUPER_D File=AS_SUPER_D.:E05TSI                            TUE 07/29/97 10:59 Page:172
             12452    1             3 PACCUM SBIN INIT(0) /**/, /* Proj. admin. record only;
             12453                                                       charges accumulated by project */
             12454    1             3 PROJ_CREATED REDEF PACCUM SBIN, /* Default project record only;
             12455                                                  number of users created in project */
             12456    1             3 MACCT,
             12457    1                4 COUNT UBIN(9) UNAL INIT(4) /**/,
             12458    1                4 ACCT CHAR(8) UNAL INIT('NONE') /**/,
             12459    1                4 NAME CHAR(12) UNAL INIT(' ') /**/,
             12460    1             3 MACCT_ REDEF MACCT,
             12461    1                4 * UBIN BYTE UNAL,
             12462    1                4 TEXT CHAR(20) UNAL,
             12463    1             3 BKACC BIT(1) UNAL INIT('1'B) /**/,
             12464    1             3 BUDLIM BIT(1) UNAL INIT( '0'B ) /**/,
             12465    1             3 PCHARGES BIT(1) UNAL INIT( '1'B ) /**/,
             12466    1             3 ICHARGES BIT(1) UNAL INIT( '1'B ) /**/,
             12467    1             3 BLINDACCTNG BIT(1) UNAL INIT('0'B)/**/,
             12468    1             3 * BIT(4) INIT('0'B)/**/,
             12469    1             3 MAX_PROJECTS SBIN(18) UNAL INIT(0) /**/,
             12470                                          /* Proj. admin. record only;
             12471                                             maximum number of sub-projects allowed. */
             12472    1             3 SUB_PROJS REDEF MAX_PROJECTS SBIN(18) UNAL,
             12473                                          /* Default project record only;
             12474                                             number of sub-projects created. */
             12475    1          2 BILL(0:3) CHAR(6) UNAL INIT('1','1','1','1') /**/,
             12476    1          2 KEY(0:71) BIT(1) UNAL INIT('0'B*0) /**/,
             12477    1          2 *      CHAR(23) INIT(' ') /**/,
             12478    1          2 OUTPUTPRIO UBIN(9) UNAL INIT(7) /**/,
             12479                                                              /* Services */
             12480                                                              /*   Batch   = 0 ,
             12481                                                                   ghost   = 1 ,
             12482                                                                   on-line = 2,
             12483                                                                   tp      = 3
             12484                                                                               */
             12485    1          2 MLO(0:3) UBIN WORD UNAL INIT( 99999, 99999, 99999, 99999 ) /**/,
             12486    1          2 DLO(0:3) UBIN WORD UNAL INIT( 1000, 99999, 99999, 99999 ) /**/,
             12487    1          2 MDO(0:3) UBIN WORD UNAL INIT( 99999, 99999, 99999, 99999 ) /**/,
             12488    1          2 DDO(0:3) UBIN WORD UNAL INIT( 50, 99999, 99999, 99999 ) /**/,
PL6.E3A0      #001=AS_SUPER_D File=AS_SUPER_D.:E05TSI                            TUE 07/29/97 10:59 Page:173
             12489    1          2 MPO(0:3) UBIN WORD UNAL INIT( 99999, 99999, 99999, 99999 ) /**/,
             12490    1          2 DPO(0:3) UBIN WORD UNAL INIT( 100, 99999, 99999, 99999 ) /**/,
             12491    1          2 MPDIS(0:3) UBIN WORD UNAL INIT( 99999, 99999, 99999, 99999 ) /**/,
             12492    1          2 DPDIS(0:3) UBIN WORD UNAL INIT( 99999, 99999, 99999, 99999 ) /**/,
             12493    1          2 MTDIS(0:3) UBIN WORD UNAL INIT( 99999, 99999, 99999, 99999 ) /**/,
             12494    1          2 DTDIS(0:3) UBIN WORD UNAL INIT( 2000, 2000, 9999, 2000 ) /**/,
             12495    1          2 MFPOOLS(0:3) UBIN BYTE UNAL INIT( 31, 31, 31, 31 ) /**/,
             12496    1          2 DFPOOLS(0:3) UBIN BYTE UNAL INIT( 10, 10, 10, 10 ) /**/,
             12497    1          2 MMPRIO(0:3) UBIN BYTE UNAL INIT( 7, 7, 7, 7 ) /**/,
             12498    1          2 DMPRIO(0:3) UBIN BYTE UNAL INIT( 7, 7, 7, 7 ) /**/,
             12499    1          2 *     CHAR(36)                          /* Peripheral */
             12500    1             INIT(' ')/**/,
             12501    1          2 HPSN CHAR(6) INIT('SYS') /**/,
             12502    1          2 * UBIN(18) UNAL INIT(0) /**/,
             12503                                                                 /*   Command processor  */
             12504    1          2 CPROC(0:3) ALIGNED,
             12505    1             3 NAME,
             12506    1                4 CNT UBIN BYTE UNAL INIT(4*0) /**/,
             12507    1                4 TEXT CHAR(31) UNAL INIT('IBEX'*0) /**/,
             12508                                                         /*   Last command processor   */
             12509    1          2 LASTCPROC(0:3) ALIGNED,
             12510    1             3 NAME,
             12511    1                4 CNT UBIN BYTE UNAL INIT(0*0) /**/,
             12512    1                4 TEXT CHAR(31) UNAL INIT(' '*0) /**/,
             12513                                                              /*   Privileges   */
             12514    1          2 PRIV (0:3) BIT(36) ALIGNED INIT('0'B*0) /**/,
             12515    1          2 PPRIV (0:3) BIT(36) ALIGNED INIT('0'B*0) /**/,
             12516                                                              /*   Batch   = 0 ,
             12517                                                                   ghost   = 1 ,
             12518                                                                   on-line = 2,
             12519                                                                   tp      = 3
             12520                                                                             */
             12521    1          2 QUAN(0:3) SBIN HALF UNAL INIT(0*0) /**/,
             12522    1          2 *(0:3) UBIN HALF UNAL INIT(0*0) /**/,
             12523    1          2 PRIOB(0:3) SBIN BYTE UNAL INIT(0*0) /**/,
             12524    1          2 MEXP SBIN INIT(-1) /**/,                  /* Expiration */
             12525    1          2 DEXP SBIN INIT(-1) /**/,                  /* Expiration */
PL6.E3A0      #001=AS_SUPER_D File=AS_SUPER_D.:E05TSI                            TUE 07/29/97 10:59 Page:174
             12526    1          2 FLAGS ALIGNED,
             12527    1             3 *  BIT(5) UNAL INIT('0'B) /**/,
             12528    1             3 STARSACC BIT(1) UNAL INIT('0'B) /**/,   /* *S accounting */
             12529    1             3 * BIT(30) UNAL INIT('0'B) /**/,
             12530    1          2 INSTUSE CHAR(16) INIT(' ') /**/,            /* Installation use */
             12531                                                              /*  Time  */
             12532    1          2 MTIME(0:3) UBIN WORD UNAL INIT( 59999400, 59999400, 59999400,59999400 )
             12532                   /**/,
             12533    1          2 DTIME(0:3) UBIN WORD UNAL INIT( 60000,59999400,59999400,59999400 ) /**/,
             12534                                                              /*  Memory  */
             12535    1          2 MMEM(0:3) UBIN HALF UNAL INIT( 511, 511, 511, 511 ) /**/,
             12536    1          2 DMEM(0:3) UBIN HALF UNAL INIT( 64, 256, 128, 256 ) /**/,
             12537    1          2 PSDOL(0:7),
             12538    1             3 PSDO_NAME CHAR(8) UNAL INIT( ' '*0 ) /**/,
             12539    1             3 BMAX UBIN HALF UNAL INIT( 0*0 ) /**/,
             12540    1             3 GMAX UBIN HALF UNAL INIT( 0*0 ) /**/,
             12541    1             3 OMAX UBIN HALF UNAL INIT( 0*0 ) /**/,
             12542    1             3 TMAX UBIN HALF UNAL INIT( 0*0 ) /**/,
             12543    1          2 TOT_TYPES UBIN HALF UNAL INIT( 2 )/**/ ,    /* Total res. Types */
             12544    1          2 RESL( 0:7 ) UNAL ,     /* Resources */
             12545    1             3 RNAME CHAR(2) UNAL INIT( 'MT', 'DP', ' '*0)/**/,
             12546    1             3 BMAX UBIN HALF UNAL INIT( 4, 4, 0*0 )/**/,
             12547    1             3 GMAX UBIN HALF UNAL INIT( 4, 4, 0*0 )/**/ ,
             12548    1             3 OMAX UBIN HALF UNAL INIT( 4, 4, 0*0 ) /**/,
             12549    1             3 TMAX UBIN HALF UNAL INIT( 4, 4, 0*0 ) /**/,
             12550    1          2 SETUP_PERM(0:3) BIT(1) UNAL INIT('0'B*0)/**/,
             12551    1          2 BANNER_PERM (0:9) BIT (1) UNAL INIT ('0'B*0)/**/,
             12552    1          2 PERM_BLOCK REDEF BANNER_PERM BIT (10),
             12553    1          2 SETUP_FORCE(0:3) BIT(1) UNAL INIT('0'B*0)/**/,
             12554                    /* This bit marks if the setup can be bypassed with the
             12555                       ns option during logon.
             12556                    */
             12557                                           /* Setup contains the index into the
             12558                                              pool of text, it is referenced
             12559                                              with the following text structure.
             12560                                              An index of
             12561                                              -1 implies that the setup command
PL6.E3A0      #001=AS_SUPER_D File=AS_SUPER_D.:E05TSI                            TUE 07/29/97 10:59 Page:175
             12562                                              for that mode does not exist.  */
             12563    1          2 SETUP(0:3) SBIN HALF UNAL INIT(-1*0)/**/,
             12564    1          2 BANNER (0:9) SBIN HALF UNAL INIT (-1*0)/**/,
             12565    1          2 SETUP_CHRA ALIGNED,
             12566    1             3 SIZE UBIN INIT (0) /**/,
             12567    1             3 TXT CHAR (1024) INIT (' ') /**/,
             12568    1             3 TXT_CHR (0:1023) REDEF TXT CHAR (1),
             12569    1             3 TXT_UBIN (0:1023) REDEF TXT UBIN (9) UNAL,
             12570                           /* At the third level- SIZE_ is the total size of
             12571                              the used area in the pool of setup and banner
             12572                              text items. SETUPMAX-SIZE_=free space remaining.
             12573                              Txt is the area containing setup and banner
             12574                              TXT_CHR and TXT_UBIN are ways of accessing the
             12575                              text for those commands.                     */
             12576    1          2 LAST_LOGON_TIME BIT(36) ALIGNED INIT('0'B) /**/,
             12577                           /* Uts of last successful logon, from slug. */
             12578    1          2 BAD_LOGON_CNT UBIN HALF UNAL INIT(0) /**/,
             12579                /* Number of failed logon attempts logged since the last
             12580                   system exit.                                           */
             12581    1          2 RFUH1 UBIN HALF UNAL INIT(0) /**/,
             12582                 /* Reserved for future use half word.  */
             12583    1          2 LOGINS   (0:3) ,
             12584    1             3 LAST_LOGON_TIME UBIN INIT (0*0) /**/,
             12585                           /* Uts of last successful logon, from slug. */
             12586    1             3 BAD_LOGON_CNT  UBIN  INIT (0*0) /**/,
             12587                 /* No. of failed logon attempts logged since the last
             12588                    system exit.  */
             12589    1          2  PASSWORD_CHANGE_TIME UBIN INIT (0) /**/,
             12590                 /* Uts of the last password change. Currently not used. */
             12591    1          2  MAXENQ(0:3) UBIN (18) UNAL INIT (0*0) /**/,
             12592                 /* Maximum number of enq/deq packets for this user. */
             12593    1          2  RFUW1  UBIN  INIT (0) /**/,
             12594                 /* Reserved for future use word. */
             12595    1          2  RFUW2  UBIN  INIT (0) /**/,
             12596    1          2  RFUW3  UBIN  INIT (0) /**/,
             12597    1          2  RFUW4  UBIN  INIT (0) /**/,
             12598    1          2  RFUW5  UBIN  INIT (0) /**/
PL6.E3A0      #001=AS_SUPER_D File=AS_SUPER_D.:E05TSI                            TUE 07/29/97 10:59 Page:176
             12599    1   ;
     1668    12601        %AS_USERS(STR_NAME=AS_PROJECT, STCLASS=STATIC SYMDEF );
             12602        %LSET LISTSUB = '1'B;
             12603        %LSET LISTEXP = '1'B;
             12604        %LSET STR='STATIC SYMDEF        ';
             12605        %IF
             12607            '1'B;
             12608        %LSET INIT=INIT;
             12609        %ELSE;
             12611        %ENDIF;
             12612        /*
             12613        */
             12614    1   DCL 1 AS_PROJECT STATIC SYMDEF,
             12615    1          2 ACCT CHAR(8) INIT(' ') /**/,
             12616    1          2 NAME CHAR(12) INIT(' ') /**/,
             12617    1          2 NAT_LANG CHAR(1) INIT(' ') /**/,            /* Native language */
             12618    1          2 STEPACCNT BIT(1) UNAL INIT('0'B) /**/,
             12619    1          2 BATOK BIT(1) UNAL INIT( '1'B ) /**/,
             12620    1          2 * BIT(7) UNAL INIT('0'B) /**/,
             12621    1          2 BATNUM SBIN HALF UNAL INIT(-1) /**/,
             12622    1          2 BUDGET,
             12623    1             3 MAXC SBIN INIT(-1) /**/, /* 'MCHARGES' for user */
             12624    1             3 ACCUM SBIN INIT(0) /**/, /*Charges accumulated by user*/
             12625    1             3 PMAXC SBIN INIT(-1) /**/, /* Proj. admin. record only;
             12626                                                             'MCHARGES for project */
             12627    1             3 PROJ_ALLOWED REDEF PMAXC SBIN, /* Default project record only;
             12628                                        maximum number of users allowed in this project
             12629                                        and all sub-projects. */
             12630    1             3 PACCUM SBIN INIT(0) /**/, /* Proj. admin. record only;
             12631                                                       charges accumulated by project */
             12632    1             3 PROJ_CREATED REDEF PACCUM SBIN, /* Default project record only;
             12633                                                  number of users created in project */
             12634    1             3 MACCT,
             12635    1                4 COUNT UBIN(9) UNAL INIT(4) /**/,
             12636    1                4 ACCT CHAR(8) UNAL INIT('NONE') /**/,
             12637    1                4 NAME CHAR(12) UNAL INIT(' ') /**/,
             12638    1             3 MACCT_ REDEF MACCT,
PL6.E3A0      #001=AS_SUPER_D File=AS_SUPER_D.:E05TSI                            TUE 07/29/97 10:59 Page:177
             12639    1                4 * UBIN BYTE UNAL,
             12640    1                4 TEXT CHAR(20) UNAL,
             12641    1             3 BKACC BIT(1) UNAL INIT('1'B) /**/,
             12642    1             3 BUDLIM BIT(1) UNAL INIT( '0'B ) /**/,
             12643    1             3 PCHARGES BIT(1) UNAL INIT( '1'B ) /**/,
             12644    1             3 ICHARGES BIT(1) UNAL INIT( '1'B ) /**/,
             12645    1             3 BLINDACCTNG BIT(1) UNAL INIT('0'B)/**/,
             12646    1             3 * BIT(4) INIT('0'B)/**/,
             12647    1             3 MAX_PROJECTS SBIN(18) UNAL INIT(0) /**/,
             12648                                          /* Proj. admin. record only;
             12649                                             maximum number of sub-projects allowed. */
             12650    1             3 SUB_PROJS REDEF MAX_PROJECTS SBIN(18) UNAL,
             12651                                          /* Default project record only;
             12652                                             number of sub-projects created. */
             12653    1          2 BILL(0:3) CHAR(6) UNAL INIT('1','1','1','1') /**/,
             12654    1          2 KEY(0:71) BIT(1) UNAL INIT('0'B*0) /**/,
             12655    1          2 *      CHAR(23) INIT(' ') /**/,
             12656    1          2 OUTPUTPRIO UBIN(9) UNAL INIT(7) /**/,
             12657                                                              /* Services */
             12658                                                              /*   Batch   = 0 ,
             12659                                                                   ghost   = 1 ,
             12660                                                                   on-line = 2,
             12661                                                                   tp      = 3
             12662                                                                               */
             12663    1          2 MLO(0:3) UBIN WORD UNAL INIT( 99999, 99999, 99999, 99999 ) /**/,
             12664    1          2 DLO(0:3) UBIN WORD UNAL INIT( 1000, 99999, 99999, 99999 ) /**/,
             12665    1          2 MDO(0:3) UBIN WORD UNAL INIT( 99999, 99999, 99999, 99999 ) /**/,
             12666    1          2 DDO(0:3) UBIN WORD UNAL INIT( 50, 99999, 99999, 99999 ) /**/,
             12667    1          2 MPO(0:3) UBIN WORD UNAL INIT( 99999, 99999, 99999, 99999 ) /**/,
             12668    1          2 DPO(0:3) UBIN WORD UNAL INIT( 100, 99999, 99999, 99999 ) /**/,
             12669    1          2 MPDIS(0:3) UBIN WORD UNAL INIT( 99999, 99999, 99999, 99999 ) /**/,
             12670    1          2 DPDIS(0:3) UBIN WORD UNAL INIT( 99999, 99999, 99999, 99999 ) /**/,
             12671    1          2 MTDIS(0:3) UBIN WORD UNAL INIT( 99999, 99999, 99999, 99999 ) /**/,
             12672    1          2 DTDIS(0:3) UBIN WORD UNAL INIT( 2000, 2000, 9999, 2000 ) /**/,
             12673    1          2 MFPOOLS(0:3) UBIN BYTE UNAL INIT( 31, 31, 31, 31 ) /**/,
             12674    1          2 DFPOOLS(0:3) UBIN BYTE UNAL INIT( 10, 10, 10, 10 ) /**/,
             12675    1          2 MMPRIO(0:3) UBIN BYTE UNAL INIT( 7, 7, 7, 7 ) /**/,
PL6.E3A0      #001=AS_SUPER_D File=AS_SUPER_D.:E05TSI                            TUE 07/29/97 10:59 Page:178
             12676    1          2 DMPRIO(0:3) UBIN BYTE UNAL INIT( 7, 7, 7, 7 ) /**/,
             12677    1          2 *     CHAR(36)                          /* Peripheral */
             12678    1             INIT(' ')/**/,
             12679    1          2 HPSN CHAR(6) INIT('SYS') /**/,
             12680    1          2 * UBIN(18) UNAL INIT(0) /**/,
             12681                                                                 /*   Command processor  */
             12682    1          2 CPROC(0:3) ALIGNED,
             12683    1             3 NAME,
             12684    1                4 CNT UBIN BYTE UNAL INIT(4*0) /**/,
             12685    1                4 TEXT CHAR(31) UNAL INIT('IBEX'*0) /**/,
             12686                                                         /*   Last command processor   */
             12687    1          2 LASTCPROC(0:3) ALIGNED,
             12688    1             3 NAME,
             12689    1                4 CNT UBIN BYTE UNAL INIT(0*0) /**/,
             12690    1                4 TEXT CHAR(31) UNAL INIT(' '*0) /**/,
             12691                                                              /*   Privileges   */
             12692    1          2 PRIV (0:3) BIT(36) ALIGNED INIT('0'B*0) /**/,
             12693    1          2 PPRIV (0:3) BIT(36) ALIGNED INIT('0'B*0) /**/,
             12694                                                              /*   Batch   = 0 ,
             12695                                                                   ghost   = 1 ,
             12696                                                                   on-line = 2,
             12697                                                                   tp      = 3
             12698                                                                             */
             12699    1          2 QUAN(0:3) SBIN HALF UNAL INIT(0*0) /**/,
             12700    1          2 *(0:3) UBIN HALF UNAL INIT(0*0) /**/,
             12701    1          2 PRIOB(0:3) SBIN BYTE UNAL INIT(0*0) /**/,
             12702    1          2 MEXP SBIN INIT(-1) /**/,                  /* Expiration */
             12703    1          2 DEXP SBIN INIT(-1) /**/,                  /* Expiration */
             12704    1          2 FLAGS ALIGNED,
             12705    1             3 *  BIT(5) UNAL INIT('0'B) /**/,
             12706    1             3 STARSACC BIT(1) UNAL INIT('0'B) /**/,   /* *S accounting */
             12707    1             3 * BIT(30) UNAL INIT('0'B) /**/,
             12708    1          2 INSTUSE CHAR(16) INIT(' ') /**/,            /* Installation use */
             12709                                                              /*  Time  */
             12710    1          2 MTIME(0:3) UBIN WORD UNAL INIT( 59999400, 59999400, 59999400,59999400 )
             12710                   /**/,
             12711    1          2 DTIME(0:3) UBIN WORD UNAL INIT( 60000,59999400,59999400,59999400 ) /**/,
PL6.E3A0      #001=AS_SUPER_D File=AS_SUPER_D.:E05TSI                            TUE 07/29/97 10:59 Page:179
             12712                                                              /*  Memory  */
             12713    1          2 MMEM(0:3) UBIN HALF UNAL INIT( 511, 511, 511, 511 ) /**/,
             12714    1          2 DMEM(0:3) UBIN HALF UNAL INIT( 64, 256, 128, 256 ) /**/,
             12715    1          2 PSDOL(0:7),
             12716    1             3 PSDO_NAME CHAR(8) UNAL INIT( ' '*0 ) /**/,
             12717    1             3 BMAX UBIN HALF UNAL INIT( 0*0 ) /**/,
             12718    1             3 GMAX UBIN HALF UNAL INIT( 0*0 ) /**/,
             12719    1             3 OMAX UBIN HALF UNAL INIT( 0*0 ) /**/,
             12720    1             3 TMAX UBIN HALF UNAL INIT( 0*0 ) /**/,
             12721    1          2 TOT_TYPES UBIN HALF UNAL INIT( 2 )/**/ ,    /* Total res. Types */
             12722    1          2 RESL( 0:7 ) UNAL ,     /* Resources */
             12723    1             3 RNAME CHAR(2) UNAL INIT( 'MT', 'DP', ' '*0)/**/,
             12724    1             3 BMAX UBIN HALF UNAL INIT( 4, 4, 0*0 )/**/,
             12725    1             3 GMAX UBIN HALF UNAL INIT( 4, 4, 0*0 )/**/ ,
             12726    1             3 OMAX UBIN HALF UNAL INIT( 4, 4, 0*0 ) /**/,
             12727    1             3 TMAX UBIN HALF UNAL INIT( 4, 4, 0*0 ) /**/,
             12728    1          2 SETUP_PERM(0:3) BIT(1) UNAL INIT('0'B*0)/**/,
             12729    1          2 BANNER_PERM (0:9) BIT (1) UNAL INIT ('0'B*0)/**/,
             12730    1          2 PERM_BLOCK REDEF BANNER_PERM BIT (10),
             12731    1          2 SETUP_FORCE(0:3) BIT(1) UNAL INIT('0'B*0)/**/,
             12732                    /* This bit marks if the setup can be bypassed with the
             12733                       ns option during logon.
             12734                    */
             12735                                           /* Setup contains the index into the
             12736                                              pool of text, it is referenced
             12737                                              with the following text structure.
             12738                                              An index of
             12739                                              -1 implies that the setup command
             12740                                              for that mode does not exist.  */
             12741    1          2 SETUP(0:3) SBIN HALF UNAL INIT(-1*0)/**/,
             12742    1          2 BANNER (0:9) SBIN HALF UNAL INIT (-1*0)/**/,
             12743    1          2 SETUP_CHRA ALIGNED,
             12744    1             3 SIZE UBIN INIT (0) /**/,
             12745    1             3 TXT CHAR (1024) INIT (' ') /**/,
             12746    1             3 TXT_CHR (0:1023) REDEF TXT CHAR (1),
             12747    1             3 TXT_UBIN (0:1023) REDEF TXT UBIN (9) UNAL,
             12748                           /* At the third level- SIZE_ is the total size of
PL6.E3A0      #001=AS_SUPER_D File=AS_SUPER_D.:E05TSI                            TUE 07/29/97 10:59 Page:180
             12749                              the used area in the pool of setup and banner
             12750                              text items. SETUPMAX-SIZE_=free space remaining.
             12751                              Txt is the area containing setup and banner
             12752                              TXT_CHR and TXT_UBIN are ways of accessing the
             12753                              text for those commands.                     */
             12754    1          2 LAST_LOGON_TIME BIT(36) ALIGNED INIT('0'B) /**/,
             12755                           /* Uts of last successful logon, from slug. */
             12756    1          2 BAD_LOGON_CNT UBIN HALF UNAL INIT(0) /**/,
             12757                /* Number of failed logon attempts logged since the last
             12758                   system exit.                                           */
             12759    1          2 RFUH1 UBIN HALF UNAL INIT(0) /**/,
             12760                 /* Reserved for future use half word.  */
             12761    1          2 LOGINS   (0:3) ,
             12762    1             3 LAST_LOGON_TIME UBIN INIT (0*0) /**/,
             12763                           /* Uts of last successful logon, from slug. */
             12764    1             3 BAD_LOGON_CNT  UBIN  INIT (0*0) /**/,
             12765                 /* No. of failed logon attempts logged since the last
             12766                    system exit.  */
             12767    1          2  PASSWORD_CHANGE_TIME UBIN INIT (0) /**/,
             12768                 /* Uts of the last password change. Currently not used. */
             12769    1          2  MAXENQ(0:3) UBIN (18) UNAL INIT (0*0) /**/,
             12770                 /* Maximum number of enq/deq packets for this user. */
             12771    1          2  RFUW1  UBIN  INIT (0) /**/,
             12772                 /* Reserved for future use word. */
             12773    1          2  RFUW2  UBIN  INIT (0) /**/,
             12774    1          2  RFUW3  UBIN  INIT (0) /**/,
             12775    1          2  RFUW4  UBIN  INIT (0) /**/,
             12776    1          2  RFUW5  UBIN  INIT (0) /**/
             12777    1   ;
     1669    12779        %AS_USERS(STR_NAME=AS_PROJECT_DFLT, STCLASS=STATIC SYMDEF );
             12780        %LSET LISTSUB = '1'B;
             12781        %LSET LISTEXP = '1'B;
             12782        %LSET STR='STATIC SYMDEF        ';
             12783        %IF
             12785            '1'B;
             12786        %LSET INIT=INIT;
             12787        %ELSE;
PL6.E3A0      #001=AS_SUPER_D File=AS_SUPER_D.:E05TSI                            TUE 07/29/97 10:59 Page:181
             12789        %ENDIF;
             12790        /*
             12791        */
             12792    1   DCL 1 AS_PROJECT_DFLT STATIC SYMDEF,
             12793    1          2 ACCT CHAR(8) INIT(' ') /**/,
             12794    1          2 NAME CHAR(12) INIT(' ') /**/,
             12795    1          2 NAT_LANG CHAR(1) INIT(' ') /**/,            /* Native language */
             12796    1          2 STEPACCNT BIT(1) UNAL INIT('0'B) /**/,
             12797    1          2 BATOK BIT(1) UNAL INIT( '1'B ) /**/,
             12798    1          2 * BIT(7) UNAL INIT('0'B) /**/,
             12799    1          2 BATNUM SBIN HALF UNAL INIT(-1) /**/,
             12800    1          2 BUDGET,
             12801    1             3 MAXC SBIN INIT(-1) /**/, /* 'MCHARGES' for user */
             12802    1             3 ACCUM SBIN INIT(0) /**/, /*Charges accumulated by user*/
             12803    1             3 PMAXC SBIN INIT(-1) /**/, /* Proj. admin. record only;
             12804                                                             'MCHARGES for project */
             12805    1             3 PROJ_ALLOWED REDEF PMAXC SBIN, /* Default project record only;
             12806                                        maximum number of users allowed in this project
             12807                                        and all sub-projects. */
             12808    1             3 PACCUM SBIN INIT(0) /**/, /* Proj. admin. record only;
             12809                                                       charges accumulated by project */
             12810    1             3 PROJ_CREATED REDEF PACCUM SBIN, /* Default project record only;
             12811                                                  number of users created in project */
             12812    1             3 MACCT,
             12813    1                4 COUNT UBIN(9) UNAL INIT(4) /**/,
             12814    1                4 ACCT CHAR(8) UNAL INIT('NONE') /**/,
             12815    1                4 NAME CHAR(12) UNAL INIT(' ') /**/,
             12816    1             3 MACCT_ REDEF MACCT,
             12817    1                4 * UBIN BYTE UNAL,
             12818    1                4 TEXT CHAR(20) UNAL,
             12819    1             3 BKACC BIT(1) UNAL INIT('1'B) /**/,
             12820    1             3 BUDLIM BIT(1) UNAL INIT( '0'B ) /**/,
             12821    1             3 PCHARGES BIT(1) UNAL INIT( '1'B ) /**/,
             12822    1             3 ICHARGES BIT(1) UNAL INIT( '1'B ) /**/,
             12823    1             3 BLINDACCTNG BIT(1) UNAL INIT('0'B)/**/,
             12824    1             3 * BIT(4) INIT('0'B)/**/,
             12825    1             3 MAX_PROJECTS SBIN(18) UNAL INIT(0) /**/,
PL6.E3A0      #001=AS_SUPER_D File=AS_SUPER_D.:E05TSI                            TUE 07/29/97 10:59 Page:182
             12826                                          /* Proj. admin. record only;
             12827                                             maximum number of sub-projects allowed. */
             12828    1             3 SUB_PROJS REDEF MAX_PROJECTS SBIN(18) UNAL,
             12829                                          /* Default project record only;
             12830                                             number of sub-projects created. */
             12831    1          2 BILL(0:3) CHAR(6) UNAL INIT('1','1','1','1') /**/,
             12832    1          2 KEY(0:71) BIT(1) UNAL INIT('0'B*0) /**/,
             12833    1          2 *      CHAR(23) INIT(' ') /**/,
             12834    1          2 OUTPUTPRIO UBIN(9) UNAL INIT(7) /**/,
             12835                                                              /* Services */
             12836                                                              /*   Batch   = 0 ,
             12837                                                                   ghost   = 1 ,
             12838                                                                   on-line = 2,
             12839                                                                   tp      = 3
             12840                                                                               */
             12841    1          2 MLO(0:3) UBIN WORD UNAL INIT( 99999, 99999, 99999, 99999 ) /**/,
             12842    1          2 DLO(0:3) UBIN WORD UNAL INIT( 1000, 99999, 99999, 99999 ) /**/,
             12843    1          2 MDO(0:3) UBIN WORD UNAL INIT( 99999, 99999, 99999, 99999 ) /**/,
             12844    1          2 DDO(0:3) UBIN WORD UNAL INIT( 50, 99999, 99999, 99999 ) /**/,
             12845    1          2 MPO(0:3) UBIN WORD UNAL INIT( 99999, 99999, 99999, 99999 ) /**/,
             12846    1          2 DPO(0:3) UBIN WORD UNAL INIT( 100, 99999, 99999, 99999 ) /**/,
             12847    1          2 MPDIS(0:3) UBIN WORD UNAL INIT( 99999, 99999, 99999, 99999 ) /**/,
             12848    1          2 DPDIS(0:3) UBIN WORD UNAL INIT( 99999, 99999, 99999, 99999 ) /**/,
             12849    1          2 MTDIS(0:3) UBIN WORD UNAL INIT( 99999, 99999, 99999, 99999 ) /**/,
             12850    1          2 DTDIS(0:3) UBIN WORD UNAL INIT( 2000, 2000, 9999, 2000 ) /**/,
             12851    1          2 MFPOOLS(0:3) UBIN BYTE UNAL INIT( 31, 31, 31, 31 ) /**/,
             12852    1          2 DFPOOLS(0:3) UBIN BYTE UNAL INIT( 10, 10, 10, 10 ) /**/,
             12853    1          2 MMPRIO(0:3) UBIN BYTE UNAL INIT( 7, 7, 7, 7 ) /**/,
             12854    1          2 DMPRIO(0:3) UBIN BYTE UNAL INIT( 7, 7, 7, 7 ) /**/,
             12855    1          2 *     CHAR(36)                          /* Peripheral */
             12856    1             INIT(' ')/**/,
             12857    1          2 HPSN CHAR(6) INIT('SYS') /**/,
             12858    1          2 * UBIN(18) UNAL INIT(0) /**/,
             12859                                                                 /*   Command processor  */
             12860    1          2 CPROC(0:3) ALIGNED,
             12861    1             3 NAME,
             12862    1                4 CNT UBIN BYTE UNAL INIT(4*0) /**/,
PL6.E3A0      #001=AS_SUPER_D File=AS_SUPER_D.:E05TSI                            TUE 07/29/97 10:59 Page:183
             12863    1                4 TEXT CHAR(31) UNAL INIT('IBEX'*0) /**/,
             12864                                                         /*   Last command processor   */
             12865    1          2 LASTCPROC(0:3) ALIGNED,
             12866    1             3 NAME,
             12867    1                4 CNT UBIN BYTE UNAL INIT(0*0) /**/,
             12868    1                4 TEXT CHAR(31) UNAL INIT(' '*0) /**/,
             12869                                                              /*   Privileges   */
             12870    1          2 PRIV (0:3) BIT(36) ALIGNED INIT('0'B*0) /**/,
             12871    1          2 PPRIV (0:3) BIT(36) ALIGNED INIT('0'B*0) /**/,
             12872                                                              /*   Batch   = 0 ,
             12873                                                                   ghost   = 1 ,
             12874                                                                   on-line = 2,
             12875                                                                   tp      = 3
             12876                                                                             */
             12877    1          2 QUAN(0:3) SBIN HALF UNAL INIT(0*0) /**/,
             12878    1          2 *(0:3) UBIN HALF UNAL INIT(0*0) /**/,
             12879    1          2 PRIOB(0:3) SBIN BYTE UNAL INIT(0*0) /**/,
             12880    1          2 MEXP SBIN INIT(-1) /**/,                  /* Expiration */
             12881    1          2 DEXP SBIN INIT(-1) /**/,                  /* Expiration */
             12882    1          2 FLAGS ALIGNED,
             12883    1             3 *  BIT(5) UNAL INIT('0'B) /**/,
             12884    1             3 STARSACC BIT(1) UNAL INIT('0'B) /**/,   /* *S accounting */
             12885    1             3 * BIT(30) UNAL INIT('0'B) /**/,
             12886    1          2 INSTUSE CHAR(16) INIT(' ') /**/,            /* Installation use */
             12887                                                              /*  Time  */
             12888    1          2 MTIME(0:3) UBIN WORD UNAL INIT( 59999400, 59999400, 59999400,59999400 )
             12888                   /**/,
             12889    1          2 DTIME(0:3) UBIN WORD UNAL INIT( 60000,59999400,59999400,59999400 ) /**/,
             12890                                                              /*  Memory  */
             12891    1          2 MMEM(0:3) UBIN HALF UNAL INIT( 511, 511, 511, 511 ) /**/,
             12892    1          2 DMEM(0:3) UBIN HALF UNAL INIT( 64, 256, 128, 256 ) /**/,
             12893    1          2 PSDOL(0:7),
             12894    1             3 PSDO_NAME CHAR(8) UNAL INIT( ' '*0 ) /**/,
             12895    1             3 BMAX UBIN HALF UNAL INIT( 0*0 ) /**/,
             12896    1             3 GMAX UBIN HALF UNAL INIT( 0*0 ) /**/,
             12897    1             3 OMAX UBIN HALF UNAL INIT( 0*0 ) /**/,
             12898    1             3 TMAX UBIN HALF UNAL INIT( 0*0 ) /**/,
PL6.E3A0      #001=AS_SUPER_D File=AS_SUPER_D.:E05TSI                            TUE 07/29/97 10:59 Page:184
             12899    1          2 TOT_TYPES UBIN HALF UNAL INIT( 2 )/**/ ,    /* Total res. Types */
             12900    1          2 RESL( 0:7 ) UNAL ,     /* Resources */
             12901    1             3 RNAME CHAR(2) UNAL INIT( 'MT', 'DP', ' '*0)/**/,
             12902    1             3 BMAX UBIN HALF UNAL INIT( 4, 4, 0*0 )/**/,
             12903    1             3 GMAX UBIN HALF UNAL INIT( 4, 4, 0*0 )/**/ ,
             12904    1             3 OMAX UBIN HALF UNAL INIT( 4, 4, 0*0 ) /**/,
             12905    1             3 TMAX UBIN HALF UNAL INIT( 4, 4, 0*0 ) /**/,
             12906    1          2 SETUP_PERM(0:3) BIT(1) UNAL INIT('0'B*0)/**/,
             12907    1          2 BANNER_PERM (0:9) BIT (1) UNAL INIT ('0'B*0)/**/,
             12908    1          2 PERM_BLOCK REDEF BANNER_PERM BIT (10),
             12909    1          2 SETUP_FORCE(0:3) BIT(1) UNAL INIT('0'B*0)/**/,
             12910                    /* This bit marks if the setup can be bypassed with the
             12911                       ns option during logon.
             12912                    */
             12913                                           /* Setup contains the index into the
             12914                                              pool of text, it is referenced
             12915                                              with the following text structure.
             12916                                              An index of
             12917                                              -1 implies that the setup command
             12918                                              for that mode does not exist.  */
             12919    1          2 SETUP(0:3) SBIN HALF UNAL INIT(-1*0)/**/,
             12920    1          2 BANNER (0:9) SBIN HALF UNAL INIT (-1*0)/**/,
             12921    1          2 SETUP_CHRA ALIGNED,
             12922    1             3 SIZE UBIN INIT (0) /**/,
             12923    1             3 TXT CHAR (1024) INIT (' ') /**/,
             12924    1             3 TXT_CHR (0:1023) REDEF TXT CHAR (1),
             12925    1             3 TXT_UBIN (0:1023) REDEF TXT UBIN (9) UNAL,
             12926                           /* At the third level- SIZE_ is the total size of
             12927                              the used area in the pool of setup and banner
             12928                              text items. SETUPMAX-SIZE_=free space remaining.
             12929                              Txt is the area containing setup and banner
             12930                              TXT_CHR and TXT_UBIN are ways of accessing the
             12931                              text for those commands.                     */
             12932    1          2 LAST_LOGON_TIME BIT(36) ALIGNED INIT('0'B) /**/,
             12933                           /* Uts of last successful logon, from slug. */
             12934    1          2 BAD_LOGON_CNT UBIN HALF UNAL INIT(0) /**/,
             12935                /* Number of failed logon attempts logged since the last
PL6.E3A0      #001=AS_SUPER_D File=AS_SUPER_D.:E05TSI                            TUE 07/29/97 10:59 Page:185
             12936                   system exit.                                           */
             12937    1          2 RFUH1 UBIN HALF UNAL INIT(0) /**/,
             12938                 /* Reserved for future use half word.  */
             12939    1          2 LOGINS   (0:3) ,
             12940    1             3 LAST_LOGON_TIME UBIN INIT (0*0) /**/,
             12941                           /* Uts of last successful logon, from slug. */
             12942    1             3 BAD_LOGON_CNT  UBIN  INIT (0*0) /**/,
             12943                 /* No. of failed logon attempts logged since the last
             12944                    system exit.  */
             12945    1          2  PASSWORD_CHANGE_TIME UBIN INIT (0) /**/,
             12946                 /* Uts of the last password change. Currently not used. */
             12947    1          2  MAXENQ(0:3) UBIN (18) UNAL INIT (0*0) /**/,
             12948                 /* Maximum number of enq/deq packets for this user. */
             12949    1          2  RFUW1  UBIN  INIT (0) /**/,
             12950                 /* Reserved for future use word. */
             12951    1          2  RFUW2  UBIN  INIT (0) /**/,
             12952    1          2  RFUW3  UBIN  INIT (0) /**/,
             12953    1          2  RFUW4  UBIN  INIT (0) /**/,
             12954    1          2  RFUW5  UBIN  INIT (0) /**/
             12955    1   ;
     1670    12957        %AS_USERS(STR_NAME=AS_USERS_CONSTANT, STCLASS=CONSTANT SYMDEF );
             12958        %LSET LISTSUB = '1'B;
             12959        %LSET LISTEXP = '1'B;
             12960        %LSET STR='CONSTANT SYMDEF        ';
             12961        %IF
             12963            '1'B;
             12964        %LSET INIT=INIT;
             12965        %ELSE;
             12967        %ENDIF;
             12968        /*
             12969        */
             12970    1   DCL 1 AS_USERS_CONSTANT CONSTANT SYMDEF,
             12971    1          2 ACCT CHAR(8) INIT(' ') /**/,
             12972    1          2 NAME CHAR(12) INIT(' ') /**/,
             12973    1          2 NAT_LANG CHAR(1) INIT(' ') /**/,            /* Native language */
             12974    1          2 STEPACCNT BIT(1) UNAL INIT('0'B) /**/,
             12975    1          2 BATOK BIT(1) UNAL INIT( '1'B ) /**/,
PL6.E3A0      #001=AS_SUPER_D File=AS_SUPER_D.:E05TSI                            TUE 07/29/97 10:59 Page:186
             12976    1          2 * BIT(7) UNAL INIT('0'B) /**/,
             12977    1          2 BATNUM SBIN HALF UNAL INIT(-1) /**/,
             12978    1          2 BUDGET,
             12979    1             3 MAXC SBIN INIT(-1) /**/, /* 'MCHARGES' for user */
             12980    1             3 ACCUM SBIN INIT(0) /**/, /*Charges accumulated by user*/
             12981    1             3 PMAXC SBIN INIT(-1) /**/, /* Proj. admin. record only;
             12982                                                             'MCHARGES for project */
             12983    1             3 PROJ_ALLOWED REDEF PMAXC SBIN, /* Default project record only;
             12984                                        maximum number of users allowed in this project
             12985                                        and all sub-projects. */
             12986    1             3 PACCUM SBIN INIT(0) /**/, /* Proj. admin. record only;
             12987                                                       charges accumulated by project */
             12988    1             3 PROJ_CREATED REDEF PACCUM SBIN, /* Default project record only;
             12989                                                  number of users created in project */
             12990    1             3 MACCT,
             12991    1                4 COUNT UBIN(9) UNAL INIT(4) /**/,
             12992    1                4 ACCT CHAR(8) UNAL INIT('NONE') /**/,
             12993    1                4 NAME CHAR(12) UNAL INIT(' ') /**/,
             12994    1             3 MACCT_ REDEF MACCT,
             12995    1                4 * UBIN BYTE UNAL,
             12996    1                4 TEXT CHAR(20) UNAL,
             12997    1             3 BKACC BIT(1) UNAL INIT('1'B) /**/,
             12998    1             3 BUDLIM BIT(1) UNAL INIT( '0'B ) /**/,
             12999    1             3 PCHARGES BIT(1) UNAL INIT( '1'B ) /**/,
             13000    1             3 ICHARGES BIT(1) UNAL INIT( '1'B ) /**/,
             13001    1             3 BLINDACCTNG BIT(1) UNAL INIT('0'B)/**/,
             13002    1             3 * BIT(4) INIT('0'B)/**/,
             13003    1             3 MAX_PROJECTS SBIN(18) UNAL INIT(0) /**/,
             13004                                          /* Proj. admin. record only;
             13005                                             maximum number of sub-projects allowed. */
             13006    1             3 SUB_PROJS REDEF MAX_PROJECTS SBIN(18) UNAL,
             13007                                          /* Default project record only;
             13008                                             number of sub-projects created. */
             13009    1          2 BILL(0:3) CHAR(6) UNAL INIT('1','1','1','1') /**/,
             13010    1          2 KEY(0:71) BIT(1) UNAL INIT('0'B*0) /**/,
             13011    1          2 *      CHAR(23) INIT(' ') /**/,
             13012    1          2 OUTPUTPRIO UBIN(9) UNAL INIT(7) /**/,
PL6.E3A0      #001=AS_SUPER_D File=AS_SUPER_D.:E05TSI                            TUE 07/29/97 10:59 Page:187
             13013                                                              /* Services */
             13014                                                              /*   Batch   = 0 ,
             13015                                                                   ghost   = 1 ,
             13016                                                                   on-line = 2,
             13017                                                                   tp      = 3
             13018                                                                               */
             13019    1          2 MLO(0:3) UBIN WORD UNAL INIT( 99999, 99999, 99999, 99999 ) /**/,
             13020    1          2 DLO(0:3) UBIN WORD UNAL INIT( 1000, 99999, 99999, 99999 ) /**/,
             13021    1          2 MDO(0:3) UBIN WORD UNAL INIT( 99999, 99999, 99999, 99999 ) /**/,
             13022    1          2 DDO(0:3) UBIN WORD UNAL INIT( 50, 99999, 99999, 99999 ) /**/,
             13023    1          2 MPO(0:3) UBIN WORD UNAL INIT( 99999, 99999, 99999, 99999 ) /**/,
             13024    1          2 DPO(0:3) UBIN WORD UNAL INIT( 100, 99999, 99999, 99999 ) /**/,
             13025    1          2 MPDIS(0:3) UBIN WORD UNAL INIT( 99999, 99999, 99999, 99999 ) /**/,
             13026    1          2 DPDIS(0:3) UBIN WORD UNAL INIT( 99999, 99999, 99999, 99999 ) /**/,
             13027    1          2 MTDIS(0:3) UBIN WORD UNAL INIT( 99999, 99999, 99999, 99999 ) /**/,
             13028    1          2 DTDIS(0:3) UBIN WORD UNAL INIT( 2000, 2000, 9999, 2000 ) /**/,
             13029    1          2 MFPOOLS(0:3) UBIN BYTE UNAL INIT( 31, 31, 31, 31 ) /**/,
             13030    1          2 DFPOOLS(0:3) UBIN BYTE UNAL INIT( 10, 10, 10, 10 ) /**/,
             13031    1          2 MMPRIO(0:3) UBIN BYTE UNAL INIT( 7, 7, 7, 7 ) /**/,
             13032    1          2 DMPRIO(0:3) UBIN BYTE UNAL INIT( 7, 7, 7, 7 ) /**/,
             13033    1          2 *     CHAR(36)                          /* Peripheral */
             13034    1             INIT(' ')/**/,
             13035    1          2 HPSN CHAR(6) INIT('SYS') /**/,
             13036    1          2 * UBIN(18) UNAL INIT(0) /**/,
             13037                                                                 /*   Command processor  */
             13038    1          2 CPROC(0:3) ALIGNED,
             13039    1             3 NAME,
             13040    1                4 CNT UBIN BYTE UNAL INIT(4*0) /**/,
             13041    1                4 TEXT CHAR(31) UNAL INIT('IBEX'*0) /**/,
             13042                                                         /*   Last command processor   */
             13043    1          2 LASTCPROC(0:3) ALIGNED,
             13044    1             3 NAME,
             13045    1                4 CNT UBIN BYTE UNAL INIT(0*0) /**/,
             13046    1                4 TEXT CHAR(31) UNAL INIT(' '*0) /**/,
             13047                                                              /*   Privileges   */
             13048    1          2 PRIV (0:3) BIT(36) ALIGNED INIT('0'B*0) /**/,
             13049    1          2 PPRIV (0:3) BIT(36) ALIGNED INIT('0'B*0) /**/,
PL6.E3A0      #001=AS_SUPER_D File=AS_SUPER_D.:E05TSI                            TUE 07/29/97 10:59 Page:188
             13050                                                              /*   Batch   = 0 ,
             13051                                                                   ghost   = 1 ,
             13052                                                                   on-line = 2,
             13053                                                                   tp      = 3
             13054                                                                             */
             13055    1          2 QUAN(0:3) SBIN HALF UNAL INIT(0*0) /**/,
             13056    1          2 *(0:3) UBIN HALF UNAL INIT(0*0) /**/,
             13057    1          2 PRIOB(0:3) SBIN BYTE UNAL INIT(0*0) /**/,
             13058    1          2 MEXP SBIN INIT(-1) /**/,                  /* Expiration */
             13059    1          2 DEXP SBIN INIT(-1) /**/,                  /* Expiration */
             13060    1          2 FLAGS ALIGNED,
             13061    1             3 *  BIT(5) UNAL INIT('0'B) /**/,
             13062    1             3 STARSACC BIT(1) UNAL INIT('0'B) /**/,   /* *S accounting */
             13063    1             3 * BIT(30) UNAL INIT('0'B) /**/,
             13064    1          2 INSTUSE CHAR(16) INIT(' ') /**/,            /* Installation use */
             13065                                                              /*  Time  */
             13066    1          2 MTIME(0:3) UBIN WORD UNAL INIT( 59999400, 59999400, 59999400,59999400 )
             13066                   /**/,
             13067    1          2 DTIME(0:3) UBIN WORD UNAL INIT( 60000,59999400,59999400,59999400 ) /**/,
             13068                                                              /*  Memory  */
             13069    1          2 MMEM(0:3) UBIN HALF UNAL INIT( 511, 511, 511, 511 ) /**/,
             13070    1          2 DMEM(0:3) UBIN HALF UNAL INIT( 64, 256, 128, 256 ) /**/,
             13071    1          2 PSDOL(0:7),
             13072    1             3 PSDO_NAME CHAR(8) UNAL INIT( ' '*0 ) /**/,
             13073    1             3 BMAX UBIN HALF UNAL INIT( 0*0 ) /**/,
             13074    1             3 GMAX UBIN HALF UNAL INIT( 0*0 ) /**/,
             13075    1             3 OMAX UBIN HALF UNAL INIT( 0*0 ) /**/,
             13076    1             3 TMAX UBIN HALF UNAL INIT( 0*0 ) /**/,
             13077    1          2 TOT_TYPES UBIN HALF UNAL INIT( 2 )/**/ ,    /* Total res. Types */
             13078    1          2 RESL( 0:7 ) UNAL ,     /* Resources */
             13079    1             3 RNAME CHAR(2) UNAL INIT( 'MT', 'DP', ' '*0)/**/,
             13080    1             3 BMAX UBIN HALF UNAL INIT( 4, 4, 0*0 )/**/,
             13081    1             3 GMAX UBIN HALF UNAL INIT( 4, 4, 0*0 )/**/ ,
             13082    1             3 OMAX UBIN HALF UNAL INIT( 4, 4, 0*0 ) /**/,
             13083    1             3 TMAX UBIN HALF UNAL INIT( 4, 4, 0*0 ) /**/,
             13084    1          2 SETUP_PERM(0:3) BIT(1) UNAL INIT('0'B*0)/**/,
             13085    1          2 BANNER_PERM (0:9) BIT (1) UNAL INIT ('0'B*0)/**/,
PL6.E3A0      #001=AS_SUPER_D File=AS_SUPER_D.:E05TSI                            TUE 07/29/97 10:59 Page:189
             13086    1          2 PERM_BLOCK REDEF BANNER_PERM BIT (10),
             13087    1          2 SETUP_FORCE(0:3) BIT(1) UNAL INIT('0'B*0)/**/,
             13088                    /* This bit marks if the setup can be bypassed with the
             13089                       ns option during logon.
             13090                    */
             13091                                           /* Setup contains the index into the
             13092                                              pool of text, it is referenced
             13093                                              with the following text structure.
             13094                                              An index of
             13095                                              -1 implies that the setup command
             13096                                              for that mode does not exist.  */
             13097    1          2 SETUP(0:3) SBIN HALF UNAL INIT(-1*0)/**/,
             13098    1          2 BANNER (0:9) SBIN HALF UNAL INIT (-1*0)/**/,
             13099    1          2 SETUP_CHRA ALIGNED,
             13100    1             3 SIZE UBIN INIT (0) /**/,
             13101    1             3 TXT CHAR (1024) INIT (' ') /**/,
             13102    1             3 TXT_CHR (0:1023) REDEF TXT CHAR (1),
             13103    1             3 TXT_UBIN (0:1023) REDEF TXT UBIN (9) UNAL,
             13104                           /* At the third level- SIZE_ is the total size of
             13105                              the used area in the pool of setup and banner
             13106                              text items. SETUPMAX-SIZE_=free space remaining.
             13107                              Txt is the area containing setup and banner
             13108                              TXT_CHR and TXT_UBIN are ways of accessing the
             13109                              text for those commands.                     */
             13110    1          2 LAST_LOGON_TIME BIT(36) ALIGNED INIT('0'B) /**/,
             13111                           /* Uts of last successful logon, from slug. */
             13112    1          2 BAD_LOGON_CNT UBIN HALF UNAL INIT(0) /**/,
             13113                /* Number of failed logon attempts logged since the last
             13114                   system exit.                                           */
             13115    1          2 RFUH1 UBIN HALF UNAL INIT(0) /**/,
             13116                 /* Reserved for future use half word.  */
             13117    1          2 LOGINS   (0:3) ,
             13118    1             3 LAST_LOGON_TIME UBIN INIT (0*0) /**/,
             13119                           /* Uts of last successful logon, from slug. */
             13120    1             3 BAD_LOGON_CNT  UBIN  INIT (0*0) /**/,
             13121                 /* No. of failed logon attempts logged since the last
             13122                    system exit.  */
PL6.E3A0      #001=AS_SUPER_D File=AS_SUPER_D.:E05TSI                            TUE 07/29/97 10:59 Page:190
             13123    1          2  PASSWORD_CHANGE_TIME UBIN INIT (0) /**/,
             13124                 /* Uts of the last password change. Currently not used. */
             13125    1          2  MAXENQ(0:3) UBIN (18) UNAL INIT (0*0) /**/,
             13126                 /* Maximum number of enq/deq packets for this user. */
             13127    1          2  RFUW1  UBIN  INIT (0) /**/,
             13128                 /* Reserved for future use word. */
             13129    1          2  RFUW2  UBIN  INIT (0) /**/,
             13130    1          2  RFUW3  UBIN  INIT (0) /**/,
             13131    1          2  RFUW4  UBIN  INIT (0) /**/,
             13132    1          2  RFUW5  UBIN  INIT (0) /**/
             13133    1   ;
     1671    13135        %KL_DREC( NAME=KL_DREC_CNT, PRO=' ', STCLASS=STATIC SYMDEF, LAST=";" );
             13136         %LSET LISTDIR='0'B;
             13148    1   DCL 1 KL_DREC_CNT STATIC SYMDEF ALIGNED,
             13153    1         2 ATYP UBIN BYTE UNAL INIT(1)/**/,
             13156    1         2 FLAGS,
             13159    1           3 RNME BIT(1) UNAL INIT('0'B)/**/,
             13163    1           3 GHOSTOK BIT(1) UNAL INIT('0'B)/**/,
             13166    1           3 OLOK BIT(1) INIT('1'B)/**/,
             13170    1           3 BATOK BIT(1) INIT('1'B)/**/,
             13174    1           3 GJOB BIT(1) INIT('0'B)/**/,
             13177    1           3 USETP BIT(1) INIT('0'B)/**/,
             13182    1           3 NOCGREJ BIT(1) INIT('0'B)/**/,
             13187    1           3 NOCGINF BIT(1) INIT('0'B)/**/,
             13190    1           3 TPOK BIT(1) INIT('0'B)/**/,
             13194    1           3 FEOK BIT(1) INIT('0'B)/**/,
             13197    1         2 COS UBIN(8)  UNAL INIT(0)/**/,
             13200    1         2 SUPER UBIN(9) UNAL INIT(0)/**/,
             13203    1         2 TWSN# CHAR(4) INIT('0000')/**/,
             13206    1         2 PASSWORD CHAR(8) INIT(' ')/**/,
             13210    1         2 ENCODPW REDEF PASSWORD BIT(72),
             13212    1         2 PNAME,
             13220    1           3 CNT UBIN BYTE UNAL INIT(0)/**/,
             13223    1           3 TXT CHAR(11) UNAL INIT(' ')/**/,
             13226    1         2 WOO CHAR(8) INIT('LOCAL')/**/,
             13229    1         2 RENAME CHAR(8) INIT('SYS')/**/,
             13230    1         2 HPS REDEF RENAME,
PL6.E3A0      #001=AS_SUPER_D File=AS_SUPER_D.:E05TSI                            TUE 07/29/97 10:59 Page:191
             13234    1           3 N CHAR(6) UNAL,
             13235    1           3 * CHAR(2) UNAL,
             13239    1         2 TNAME CHAR(8) INIT(' ')/**/,
             13243    1         2 SNAME CHAR(8) INIT('LOCAL')/**/,
             13246    1         2 NWINFO UBIN WORD INIT(0)/**/;
     1672    13248        %KL_DREC( NAME=KL_DREC, PRO=' ', LAST=",", STCLASS=STATIC SYMDEF );
             13249         %LSET LISTDIR='0'B;
             13261    1   DCL 1 KL_DREC STATIC SYMDEF ALIGNED,
             13266    1         2 ATYP UBIN BYTE UNAL INIT(1)/**/,
             13269    1         2 FLAGS,
             13272    1           3 RNME BIT(1) UNAL INIT('0'B)/**/,
             13276    1           3 GHOSTOK BIT(1) UNAL INIT('0'B)/**/,
             13279    1           3 OLOK BIT(1) INIT('1'B)/**/,
             13283    1           3 BATOK BIT(1) INIT('1'B)/**/,
             13287    1           3 GJOB BIT(1) INIT('0'B)/**/,
             13290    1           3 USETP BIT(1) INIT('0'B)/**/,
             13295    1           3 NOCGREJ BIT(1) INIT('0'B)/**/,
             13300    1           3 NOCGINF BIT(1) INIT('0'B)/**/,
             13303    1           3 TPOK BIT(1) INIT('0'B)/**/,
             13307    1           3 FEOK BIT(1) INIT('0'B)/**/,
             13310    1         2 COS UBIN(8)  UNAL INIT(0)/**/,
             13313    1         2 SUPER UBIN(9) UNAL INIT(0)/**/,
             13316    1         2 TWSN# CHAR(4) INIT('0000')/**/,
             13319    1         2 PASSWORD CHAR(8) INIT(' ')/**/,
             13323    1         2 ENCODPW REDEF PASSWORD BIT(72),
             13325    1         2 PNAME,
             13333    1           3 CNT UBIN BYTE UNAL INIT(0)/**/,
             13336    1           3 TXT CHAR(11) UNAL INIT(' ')/**/,
             13339    1         2 WOO CHAR(8) INIT('LOCAL')/**/,
             13342    1         2 RENAME CHAR(8) INIT('SYS')/**/,
             13343    1         2 HPS REDEF RENAME,
             13347    1           3 N CHAR(6) UNAL,
             13348    1           3 * CHAR(2) UNAL,
             13352    1         2 TNAME CHAR(8) INIT(' ')/**/,
             13356    1         2 SNAME CHAR(8) INIT('LOCAL')/**/,
             13359    1         2 NWINFO UBIN WORD INIT(0)/**/,
     1673    13361        %KL_FEBLK( NAME=KL_DREC_FEBLK, LVL=2, RCNT=31, STCLASS=STATIC SYMDEF );
PL6.E3A0      #001=AS_SUPER_D File=AS_SUPER_D.:E05TSI                            TUE 07/29/97 10:59 Page:192
             13362         %LSET LISTDIR='0'B;
             13377    1         2 KL_DREC_FEBLK,
             13379    1           3 BILL(0:3) CHAR(6) UNAL INIT('1','1','1','1')/**/,
             13380    1           3 DBACCN CHAR(8) UNAL INIT(' ')/**/,
             13381    1           3 MINTS(0:3) UBIN BYTE UNAL INIT(0*0)/**/,
             13382    1           3 MFPRG UBIN BYTE UNAL INIT(255)/**/,
             13383    1           3 MACCTMEM UBIN HALF UNAL INIT(9999)/**/,
             13384    1           3 FLAGS,
             13385    1           4 STEPACCT BIT(1) INIT('0'B)/**/,
             13386    1           4 * BIT(8) INIT('0'B*0)/**/,
             13387    1           3 PRIV(0:3) BIT(36) ALIGNED INIT('0'B*0)/**/,
             13388    1           3 PPRIV(0:3) BIT(36) ALIGNED INIT('0'B*0)/**/,
             13389    1          3 MTIME(0:3) SBIN WORD UNAL INIT(59999400, 59999400, 59999400, 59999400)/**/
             13389                    ,
             13390    1           3 MMEM(0:3) UBIN HALF UNAL INIT(128,128,128,128)/**/,
             13391    1           3 CXTMEM(0:7) ,
             13392    1           4 UMAX UBIN HALF UNAL INIT(0*0)/**/,
             13393    1           4 CMAX UBIN HALF UNAL INIT(0*0)/**/,
             13394    1           4 HMAX UBIN HALF UNAL INIT(0*0)/**/,
             13395    1           4 GMAX UBIN HALF UNAL INIT(0*0)/**/,
             13396    1           3 PSDOL(0:7) ,
             13397    1           4 PSDO_NAME CHAR(8) UNAL INIT(' '*0)/**/,
             13398    1           4 UMAX UBIN HALF UNAL INIT(0*0)/**/,
             13399    1           4 CMAX UBIN HALF UNAL INIT(0*0)/**/,
             13400    1           4 HMAX UBIN HALF UNAL INIT(0*0)/**/,
             13401    1           4 GMAX UBIN HALF UNAL INIT(0*0)/**/,
             13402    1           3 RESL_CNT UBIN HALF UNAL INIT(31)/**/,
             13403    1           3 RESL(0:31),
             13404    1           4 RNAME CHAR(2) UNAL INIT(' '*0)/**/,
             13405    1           4 UMAX UBIN HALF UNAL INIT(0*0)/**/,
             13406    1           4 CMAX UBIN HALF UNAL INIT(0*0)/**/,
             13407    1           4 HMAX UBIN HALF UNAL INIT(0*0)/**/,
             13408    1           4 GMAX UBIN HALF UNAL INIT(0*0)/**/;
     1674    13410        %KL_DREC( NAME=KL_DFLT, PRO=' ', LAST=",", STCLASS=STATIC SYMDEF );
             13411         %LSET LISTDIR='0'B;
             13423    1   DCL 1 KL_DFLT STATIC SYMDEF ALIGNED,
             13428    1         2 ATYP UBIN BYTE UNAL INIT(1)/**/,
PL6.E3A0      #001=AS_SUPER_D File=AS_SUPER_D.:E05TSI                            TUE 07/29/97 10:59 Page:193
             13431    1         2 FLAGS,
             13434    1           3 RNME BIT(1) UNAL INIT('0'B)/**/,
             13438    1           3 GHOSTOK BIT(1) UNAL INIT('0'B)/**/,
             13441    1           3 OLOK BIT(1) INIT('1'B)/**/,
             13445    1           3 BATOK BIT(1) INIT('1'B)/**/,
             13449    1           3 GJOB BIT(1) INIT('0'B)/**/,
             13452    1           3 USETP BIT(1) INIT('0'B)/**/,
             13457    1           3 NOCGREJ BIT(1) INIT('0'B)/**/,
             13462    1           3 NOCGINF BIT(1) INIT('0'B)/**/,
             13465    1           3 TPOK BIT(1) INIT('0'B)/**/,
             13469    1           3 FEOK BIT(1) INIT('0'B)/**/,
             13472    1         2 COS UBIN(8)  UNAL INIT(0)/**/,
             13475    1         2 SUPER UBIN(9) UNAL INIT(0)/**/,
             13478    1         2 TWSN# CHAR(4) INIT('0000')/**/,
             13481    1         2 PASSWORD CHAR(8) INIT(' ')/**/,
             13485    1         2 ENCODPW REDEF PASSWORD BIT(72),
             13487    1         2 PNAME,
             13495    1           3 CNT UBIN BYTE UNAL INIT(0)/**/,
             13498    1           3 TXT CHAR(11) UNAL INIT(' ')/**/,
             13501    1         2 WOO CHAR(8) INIT('LOCAL')/**/,
             13504    1         2 RENAME CHAR(8) INIT('SYS')/**/,
             13505    1         2 HPS REDEF RENAME,
             13509    1           3 N CHAR(6) UNAL,
             13510    1           3 * CHAR(2) UNAL,
             13514    1         2 TNAME CHAR(8) INIT(' ')/**/,
             13518    1         2 SNAME CHAR(8) INIT('LOCAL')/**/,
             13521    1         2 NWINFO UBIN WORD INIT(0)/**/,
     1675    13523        %KL_FEBLK( NAME=KL_DFLT_FEBLK, LVL=2, RCNT=31, STCLASS=STATIC SYMDEF );
             13524         %LSET LISTDIR='0'B;
             13539    1         2 KL_DFLT_FEBLK,
             13541    1           3 BILL(0:3) CHAR(6) UNAL INIT('1','1','1','1')/**/,
             13542    1           3 DBACCN CHAR(8) UNAL INIT(' ')/**/,
             13543    1           3 MINTS(0:3) UBIN BYTE UNAL INIT(0*0)/**/,
             13544    1           3 MFPRG UBIN BYTE UNAL INIT(255)/**/,
             13545    1           3 MACCTMEM UBIN HALF UNAL INIT(9999)/**/,
             13546    1           3 FLAGS,
             13547    1           4 STEPACCT BIT(1) INIT('0'B)/**/,
PL6.E3A0      #001=AS_SUPER_D File=AS_SUPER_D.:E05TSI                            TUE 07/29/97 10:59 Page:194
             13548    1           4 * BIT(8) INIT('0'B*0)/**/,
             13549    1           3 PRIV(0:3) BIT(36) ALIGNED INIT('0'B*0)/**/,
             13550    1           3 PPRIV(0:3) BIT(36) ALIGNED INIT('0'B*0)/**/,
             13551    1          3 MTIME(0:3) SBIN WORD UNAL INIT(59999400, 59999400, 59999400, 59999400)/**/
             13551                    ,
             13552    1           3 MMEM(0:3) UBIN HALF UNAL INIT(128,128,128,128)/**/,
             13553    1           3 CXTMEM(0:7) ,
             13554    1           4 UMAX UBIN HALF UNAL INIT(0*0)/**/,
             13555    1           4 CMAX UBIN HALF UNAL INIT(0*0)/**/,
             13556    1           4 HMAX UBIN HALF UNAL INIT(0*0)/**/,
             13557    1           4 GMAX UBIN HALF UNAL INIT(0*0)/**/,
             13558    1           3 PSDOL(0:7) ,
             13559    1           4 PSDO_NAME CHAR(8) UNAL INIT(' '*0)/**/,
             13560    1           4 UMAX UBIN HALF UNAL INIT(0*0)/**/,
             13561    1           4 CMAX UBIN HALF UNAL INIT(0*0)/**/,
             13562    1           4 HMAX UBIN HALF UNAL INIT(0*0)/**/,
             13563    1           4 GMAX UBIN HALF UNAL INIT(0*0)/**/,
             13564    1           3 RESL_CNT UBIN HALF UNAL INIT(31)/**/,
             13565    1           3 RESL(0:31),
             13566    1           4 RNAME CHAR(2) UNAL INIT(' '*0)/**/,
             13567    1           4 UMAX UBIN HALF UNAL INIT(0*0)/**/,
             13568    1           4 CMAX UBIN HALF UNAL INIT(0*0)/**/,
             13569    1           4 HMAX UBIN HALF UNAL INIT(0*0)/**/,
             13570    1           4 GMAX UBIN HALF UNAL INIT(0*0)/**/;
     1676    13572        %KL_DREC( NAME=AS_DEFAULT_DREC, PRO=' ', LAST=",", STCLASS=STATIC SYMDEF );
             13573         %LSET LISTDIR='0'B;
             13585    1   DCL 1 AS_DEFAULT_DREC STATIC SYMDEF ALIGNED,
             13590    1         2 ATYP UBIN BYTE UNAL INIT(1)/**/,
             13593    1         2 FLAGS,
             13596    1           3 RNME BIT(1) UNAL INIT('0'B)/**/,
             13600    1           3 GHOSTOK BIT(1) UNAL INIT('0'B)/**/,
             13603    1           3 OLOK BIT(1) INIT('1'B)/**/,
             13607    1           3 BATOK BIT(1) INIT('1'B)/**/,
             13611    1           3 GJOB BIT(1) INIT('0'B)/**/,
             13614    1           3 USETP BIT(1) INIT('0'B)/**/,
             13619    1           3 NOCGREJ BIT(1) INIT('0'B)/**/,
             13624    1           3 NOCGINF BIT(1) INIT('0'B)/**/,
PL6.E3A0      #001=AS_SUPER_D File=AS_SUPER_D.:E05TSI                            TUE 07/29/97 10:59 Page:195
             13627    1           3 TPOK BIT(1) INIT('0'B)/**/,
             13631    1           3 FEOK BIT(1) INIT('0'B)/**/,
             13634    1         2 COS UBIN(8)  UNAL INIT(0)/**/,
             13637    1         2 SUPER UBIN(9) UNAL INIT(0)/**/,
             13640    1         2 TWSN# CHAR(4) INIT('0000')/**/,
             13643    1         2 PASSWORD CHAR(8) INIT(' ')/**/,
             13647    1         2 ENCODPW REDEF PASSWORD BIT(72),
             13649    1         2 PNAME,
             13657    1           3 CNT UBIN BYTE UNAL INIT(0)/**/,
             13660    1           3 TXT CHAR(11) UNAL INIT(' ')/**/,
             13663    1         2 WOO CHAR(8) INIT('LOCAL')/**/,
             13666    1         2 RENAME CHAR(8) INIT('SYS')/**/,
             13667    1         2 HPS REDEF RENAME,
             13671    1           3 N CHAR(6) UNAL,
             13672    1           3 * CHAR(2) UNAL,
             13676    1         2 TNAME CHAR(8) INIT(' ')/**/,
             13680    1         2 SNAME CHAR(8) INIT('LOCAL')/**/,
             13683    1         2 NWINFO UBIN WORD INIT(0)/**/,
     1677    13685        %KL_FEBLK( NAME=AS_DEFAULT_DREC_FEBLK, LVL=2, RCNT=31, STCLASS=STATIC SYMDEF );
             13686         %LSET LISTDIR='0'B;
             13701    1         2 AS_DEFAULT_DREC_FEBLK,
             13703    1           3 BILL(0:3) CHAR(6) UNAL INIT('1','1','1','1')/**/,
             13704    1           3 DBACCN CHAR(8) UNAL INIT(' ')/**/,
             13705    1           3 MINTS(0:3) UBIN BYTE UNAL INIT(0*0)/**/,
             13706    1           3 MFPRG UBIN BYTE UNAL INIT(255)/**/,
             13707    1           3 MACCTMEM UBIN HALF UNAL INIT(9999)/**/,
             13708    1           3 FLAGS,
             13709    1           4 STEPACCT BIT(1) INIT('0'B)/**/,
             13710    1           4 * BIT(8) INIT('0'B*0)/**/,
             13711    1           3 PRIV(0:3) BIT(36) ALIGNED INIT('0'B*0)/**/,
             13712    1           3 PPRIV(0:3) BIT(36) ALIGNED INIT('0'B*0)/**/,
             13713    1          3 MTIME(0:3) SBIN WORD UNAL INIT(59999400, 59999400, 59999400, 59999400)/**/
             13713                    ,
             13714    1           3 MMEM(0:3) UBIN HALF UNAL INIT(128,128,128,128)/**/,
             13715    1           3 CXTMEM(0:7) ,
             13716    1           4 UMAX UBIN HALF UNAL INIT(0*0)/**/,
             13717    1           4 CMAX UBIN HALF UNAL INIT(0*0)/**/,
PL6.E3A0      #001=AS_SUPER_D File=AS_SUPER_D.:E05TSI                            TUE 07/29/97 10:59 Page:196
             13718    1           4 HMAX UBIN HALF UNAL INIT(0*0)/**/,
             13719    1           4 GMAX UBIN HALF UNAL INIT(0*0)/**/,
             13720    1           3 PSDOL(0:7) ,
             13721    1           4 PSDO_NAME CHAR(8) UNAL INIT(' '*0)/**/,
             13722    1           4 UMAX UBIN HALF UNAL INIT(0*0)/**/,
             13723    1           4 CMAX UBIN HALF UNAL INIT(0*0)/**/,
             13724    1           4 HMAX UBIN HALF UNAL INIT(0*0)/**/,
             13725    1           4 GMAX UBIN HALF UNAL INIT(0*0)/**/,
             13726    1           3 RESL_CNT UBIN HALF UNAL INIT(31)/**/,
             13727    1           3 RESL(0:31),
             13728    1           4 RNAME CHAR(2) UNAL INIT(' '*0)/**/,
             13729    1           4 UMAX UBIN HALF UNAL INIT(0*0)/**/,
             13730    1           4 CMAX UBIN HALF UNAL INIT(0*0)/**/,
             13731    1           4 HMAX UBIN HALF UNAL INIT(0*0)/**/,
             13732    1           4 GMAX UBIN HALF UNAL INIT(0*0)/**/;
     1678    13734        %KL_DREC( NAME=AS_PROJ_ADMIN_DREC, PRO=' ', LAST=",", STCLASS=STATIC SYMDEF );
             13735         %LSET LISTDIR='0'B;
             13747    1   DCL 1 AS_PROJ_ADMIN_DREC STATIC SYMDEF ALIGNED,
             13752    1         2 ATYP UBIN BYTE UNAL INIT(1)/**/,
             13755    1         2 FLAGS,
             13758    1           3 RNME BIT(1) UNAL INIT('0'B)/**/,
             13762    1           3 GHOSTOK BIT(1) UNAL INIT('0'B)/**/,
             13765    1           3 OLOK BIT(1) INIT('1'B)/**/,
             13769    1           3 BATOK BIT(1) INIT('1'B)/**/,
             13773    1           3 GJOB BIT(1) INIT('0'B)/**/,
             13776    1           3 USETP BIT(1) INIT('0'B)/**/,
             13781    1           3 NOCGREJ BIT(1) INIT('0'B)/**/,
             13786    1           3 NOCGINF BIT(1) INIT('0'B)/**/,
             13789    1           3 TPOK BIT(1) INIT('0'B)/**/,
             13793    1           3 FEOK BIT(1) INIT('0'B)/**/,
             13796    1         2 COS UBIN(8)  UNAL INIT(0)/**/,
             13799    1         2 SUPER UBIN(9) UNAL INIT(0)/**/,
             13802    1         2 TWSN# CHAR(4) INIT('0000')/**/,
             13805    1         2 PASSWORD CHAR(8) INIT(' ')/**/,
             13809    1         2 ENCODPW REDEF PASSWORD BIT(72),
             13811    1         2 PNAME,
             13819    1           3 CNT UBIN BYTE UNAL INIT(0)/**/,
PL6.E3A0      #001=AS_SUPER_D File=AS_SUPER_D.:E05TSI                            TUE 07/29/97 10:59 Page:197
             13822    1           3 TXT CHAR(11) UNAL INIT(' ')/**/,
             13825    1         2 WOO CHAR(8) INIT('LOCAL')/**/,
             13828    1         2 RENAME CHAR(8) INIT('SYS')/**/,
             13829    1         2 HPS REDEF RENAME,
             13833    1           3 N CHAR(6) UNAL,
             13834    1           3 * CHAR(2) UNAL,
             13838    1         2 TNAME CHAR(8) INIT(' ')/**/,
             13842    1         2 SNAME CHAR(8) INIT('LOCAL')/**/,
             13845    1         2 NWINFO UBIN WORD INIT(0)/**/,
     1679    13847        %KL_FEBLK( NAME=AS_PROJ_ADMIN_DREC_FEBLK, LVL=2, RCNT=31, STCLASS=STATIC SYMDEF );
             13848         %LSET LISTDIR='0'B;
             13863    1         2 AS_PROJ_ADMIN_DREC_FEBLK,
             13865    1           3 BILL(0:3) CHAR(6) UNAL INIT('1','1','1','1')/**/,
             13866    1           3 DBACCN CHAR(8) UNAL INIT(' ')/**/,
             13867    1           3 MINTS(0:3) UBIN BYTE UNAL INIT(0*0)/**/,
             13868    1           3 MFPRG UBIN BYTE UNAL INIT(255)/**/,
             13869    1           3 MACCTMEM UBIN HALF UNAL INIT(9999)/**/,
             13870    1           3 FLAGS,
             13871    1           4 STEPACCT BIT(1) INIT('0'B)/**/,
             13872    1           4 * BIT(8) INIT('0'B*0)/**/,
             13873    1           3 PRIV(0:3) BIT(36) ALIGNED INIT('0'B*0)/**/,
             13874    1           3 PPRIV(0:3) BIT(36) ALIGNED INIT('0'B*0)/**/,
             13875    1          3 MTIME(0:3) SBIN WORD UNAL INIT(59999400, 59999400, 59999400, 59999400)/**/
             13875                    ,
             13876    1           3 MMEM(0:3) UBIN HALF UNAL INIT(128,128,128,128)/**/,
             13877    1           3 CXTMEM(0:7) ,
             13878    1           4 UMAX UBIN HALF UNAL INIT(0*0)/**/,
             13879    1           4 CMAX UBIN HALF UNAL INIT(0*0)/**/,
             13880    1           4 HMAX UBIN HALF UNAL INIT(0*0)/**/,
             13881    1           4 GMAX UBIN HALF UNAL INIT(0*0)/**/,
             13882    1           3 PSDOL(0:7) ,
             13883    1           4 PSDO_NAME CHAR(8) UNAL INIT(' '*0)/**/,
             13884    1           4 UMAX UBIN HALF UNAL INIT(0*0)/**/,
             13885    1           4 CMAX UBIN HALF UNAL INIT(0*0)/**/,
             13886    1           4 HMAX UBIN HALF UNAL INIT(0*0)/**/,
             13887    1           4 GMAX UBIN HALF UNAL INIT(0*0)/**/,
             13888    1           3 RESL_CNT UBIN HALF UNAL INIT(31)/**/,
PL6.E3A0      #001=AS_SUPER_D File=AS_SUPER_D.:E05TSI                            TUE 07/29/97 10:59 Page:198
             13889    1           3 RESL(0:31),
             13890    1           4 RNAME CHAR(2) UNAL INIT(' '*0)/**/,
             13891    1           4 UMAX UBIN HALF UNAL INIT(0*0)/**/,
             13892    1           4 CMAX UBIN HALF UNAL INIT(0*0)/**/,
             13893    1           4 HMAX UBIN HALF UNAL INIT(0*0)/**/,
             13894    1           4 GMAX UBIN HALF UNAL INIT(0*0)/**/;
     1680    13896        %KL_DREC( NAME=AS_PROJECT_DREC, PRO=' ', LAST=",", STCLASS=STATIC SYMDEF );
             13897         %LSET LISTDIR='0'B;
             13909    1   DCL 1 AS_PROJECT_DREC STATIC SYMDEF ALIGNED,
             13914    1         2 ATYP UBIN BYTE UNAL INIT(1)/**/,
             13917    1         2 FLAGS,
             13920    1           3 RNME BIT(1) UNAL INIT('0'B)/**/,
             13924    1           3 GHOSTOK BIT(1) UNAL INIT('0'B)/**/,
             13927    1           3 OLOK BIT(1) INIT('1'B)/**/,
             13931    1           3 BATOK BIT(1) INIT('1'B)/**/,
             13935    1           3 GJOB BIT(1) INIT('0'B)/**/,
             13938    1           3 USETP BIT(1) INIT('0'B)/**/,
             13943    1           3 NOCGREJ BIT(1) INIT('0'B)/**/,
             13948    1           3 NOCGINF BIT(1) INIT('0'B)/**/,
             13951    1           3 TPOK BIT(1) INIT('0'B)/**/,
             13955    1           3 FEOK BIT(1) INIT('0'B)/**/,
             13958    1         2 COS UBIN(8)  UNAL INIT(0)/**/,
             13961    1         2 SUPER UBIN(9) UNAL INIT(0)/**/,
             13964    1         2 TWSN# CHAR(4) INIT('0000')/**/,
             13967    1         2 PASSWORD CHAR(8) INIT(' ')/**/,
             13971    1         2 ENCODPW REDEF PASSWORD BIT(72),
             13973    1         2 PNAME,
             13981    1           3 CNT UBIN BYTE UNAL INIT(0)/**/,
             13984    1           3 TXT CHAR(11) UNAL INIT(' ')/**/,
             13987    1         2 WOO CHAR(8) INIT('LOCAL')/**/,
             13990    1         2 RENAME CHAR(8) INIT('SYS')/**/,
             13991    1         2 HPS REDEF RENAME,
             13995    1           3 N CHAR(6) UNAL,
             13996    1           3 * CHAR(2) UNAL,
             14000    1         2 TNAME CHAR(8) INIT(' ')/**/,
             14004    1         2 SNAME CHAR(8) INIT('LOCAL')/**/,
             14007    1         2 NWINFO UBIN WORD INIT(0)/**/,
PL6.E3A0      #001=AS_SUPER_D File=AS_SUPER_D.:E05TSI                            TUE 07/29/97 10:59 Page:199
     1681    14009        %KL_FEBLK( NAME=AS_PROJECT_DREC_FEBLK, LVL=2, RCNT=31, STCLASS=STATIC SYMDEF );
             14010         %LSET LISTDIR='0'B;
             14025    1         2 AS_PROJECT_DREC_FEBLK,
             14027    1           3 BILL(0:3) CHAR(6) UNAL INIT('1','1','1','1')/**/,
             14028    1           3 DBACCN CHAR(8) UNAL INIT(' ')/**/,
             14029    1           3 MINTS(0:3) UBIN BYTE UNAL INIT(0*0)/**/,
             14030    1           3 MFPRG UBIN BYTE UNAL INIT(255)/**/,
             14031    1           3 MACCTMEM UBIN HALF UNAL INIT(9999)/**/,
             14032    1           3 FLAGS,
             14033    1           4 STEPACCT BIT(1) INIT('0'B)/**/,
             14034    1           4 * BIT(8) INIT('0'B*0)/**/,
             14035    1           3 PRIV(0:3) BIT(36) ALIGNED INIT('0'B*0)/**/,
             14036    1           3 PPRIV(0:3) BIT(36) ALIGNED INIT('0'B*0)/**/,
             14037    1          3 MTIME(0:3) SBIN WORD UNAL INIT(59999400, 59999400, 59999400, 59999400)/**/
             14037                    ,
             14038    1           3 MMEM(0:3) UBIN HALF UNAL INIT(128,128,128,128)/**/,
             14039    1           3 CXTMEM(0:7) ,
             14040    1           4 UMAX UBIN HALF UNAL INIT(0*0)/**/,
             14041    1           4 CMAX UBIN HALF UNAL INIT(0*0)/**/,
             14042    1           4 HMAX UBIN HALF UNAL INIT(0*0)/**/,
             14043    1           4 GMAX UBIN HALF UNAL INIT(0*0)/**/,
             14044    1           3 PSDOL(0:7) ,
             14045    1           4 PSDO_NAME CHAR(8) UNAL INIT(' '*0)/**/,
             14046    1           4 UMAX UBIN HALF UNAL INIT(0*0)/**/,
             14047    1           4 CMAX UBIN HALF UNAL INIT(0*0)/**/,
             14048    1           4 HMAX UBIN HALF UNAL INIT(0*0)/**/,
             14049    1           4 GMAX UBIN HALF UNAL INIT(0*0)/**/,
             14050    1           3 RESL_CNT UBIN HALF UNAL INIT(31)/**/,
             14051    1           3 RESL(0:31),
             14052    1           4 RNAME CHAR(2) UNAL INIT(' '*0)/**/,
             14053    1           4 UMAX UBIN HALF UNAL INIT(0*0)/**/,
             14054    1           4 CMAX UBIN HALF UNAL INIT(0*0)/**/,
             14055    1           4 HMAX UBIN HALF UNAL INIT(0*0)/**/,
             14056    1           4 GMAX UBIN HALF UNAL INIT(0*0)/**/;
     1682    14058        %KL_DREC( NAME=AS_PROJECT_DFLT_DREC, PRO=' ', LAST=",", STCLASS=STATIC SYMDEF );
             14059         %LSET LISTDIR='0'B;
             14071    1   DCL 1 AS_PROJECT_DFLT_DREC STATIC SYMDEF ALIGNED,
PL6.E3A0      #001=AS_SUPER_D File=AS_SUPER_D.:E05TSI                            TUE 07/29/97 10:59 Page:200
             14076    1         2 ATYP UBIN BYTE UNAL INIT(1)/**/,
             14079    1         2 FLAGS,
             14082    1           3 RNME BIT(1) UNAL INIT('0'B)/**/,
             14086    1           3 GHOSTOK BIT(1) UNAL INIT('0'B)/**/,
             14089    1           3 OLOK BIT(1) INIT('1'B)/**/,
             14093    1           3 BATOK BIT(1) INIT('1'B)/**/,
             14097    1           3 GJOB BIT(1) INIT('0'B)/**/,
             14100    1           3 USETP BIT(1) INIT('0'B)/**/,
             14105    1           3 NOCGREJ BIT(1) INIT('0'B)/**/,
             14110    1           3 NOCGINF BIT(1) INIT('0'B)/**/,
             14113    1           3 TPOK BIT(1) INIT('0'B)/**/,
             14117    1           3 FEOK BIT(1) INIT('0'B)/**/,
             14120    1         2 COS UBIN(8)  UNAL INIT(0)/**/,
             14123    1         2 SUPER UBIN(9) UNAL INIT(0)/**/,
             14126    1         2 TWSN# CHAR(4) INIT('0000')/**/,
             14129    1         2 PASSWORD CHAR(8) INIT(' ')/**/,
             14133    1         2 ENCODPW REDEF PASSWORD BIT(72),
             14135    1         2 PNAME,
             14143    1           3 CNT UBIN BYTE UNAL INIT(0)/**/,
             14146    1           3 TXT CHAR(11) UNAL INIT(' ')/**/,
             14149    1         2 WOO CHAR(8) INIT('LOCAL')/**/,
             14152    1         2 RENAME CHAR(8) INIT('SYS')/**/,
             14153    1         2 HPS REDEF RENAME,
             14157    1           3 N CHAR(6) UNAL,
             14158    1           3 * CHAR(2) UNAL,
             14162    1         2 TNAME CHAR(8) INIT(' ')/**/,
             14166    1         2 SNAME CHAR(8) INIT('LOCAL')/**/,
             14169    1         2 NWINFO UBIN WORD INIT(0)/**/,
     1683    14171       %KL_FEBLK( NAME=AS_PROJECT_DFLT_DREC_FEBLK, LVL=2, RCNT=31, STCLASS=STATIC SYMDEF );
             14172         %LSET LISTDIR='0'B;
             14187    1         2 AS_PROJECT_DFLT_DREC_FEBLK,
             14189    1           3 BILL(0:3) CHAR(6) UNAL INIT('1','1','1','1')/**/,
             14190    1           3 DBACCN CHAR(8) UNAL INIT(' ')/**/,
             14191    1           3 MINTS(0:3) UBIN BYTE UNAL INIT(0*0)/**/,
             14192    1           3 MFPRG UBIN BYTE UNAL INIT(255)/**/,
             14193    1           3 MACCTMEM UBIN HALF UNAL INIT(9999)/**/,
             14194    1           3 FLAGS,
PL6.E3A0      #001=AS_SUPER_D File=AS_SUPER_D.:E05TSI                            TUE 07/29/97 10:59 Page:201
             14195    1           4 STEPACCT BIT(1) INIT('0'B)/**/,
             14196    1           4 * BIT(8) INIT('0'B*0)/**/,
             14197    1           3 PRIV(0:3) BIT(36) ALIGNED INIT('0'B*0)/**/,
             14198    1           3 PPRIV(0:3) BIT(36) ALIGNED INIT('0'B*0)/**/,
             14199    1          3 MTIME(0:3) SBIN WORD UNAL INIT(59999400, 59999400, 59999400, 59999400)/**/
             14199                    ,
             14200    1           3 MMEM(0:3) UBIN HALF UNAL INIT(128,128,128,128)/**/,
             14201    1           3 CXTMEM(0:7) ,
             14202    1           4 UMAX UBIN HALF UNAL INIT(0*0)/**/,
             14203    1           4 CMAX UBIN HALF UNAL INIT(0*0)/**/,
             14204    1           4 HMAX UBIN HALF UNAL INIT(0*0)/**/,
             14205    1           4 GMAX UBIN HALF UNAL INIT(0*0)/**/,
             14206    1           3 PSDOL(0:7) ,
             14207    1           4 PSDO_NAME CHAR(8) UNAL INIT(' '*0)/**/,
             14208    1           4 UMAX UBIN HALF UNAL INIT(0*0)/**/,
             14209    1           4 CMAX UBIN HALF UNAL INIT(0*0)/**/,
             14210    1           4 HMAX UBIN HALF UNAL INIT(0*0)/**/,
             14211    1           4 GMAX UBIN HALF UNAL INIT(0*0)/**/,
             14212    1           3 RESL_CNT UBIN HALF UNAL INIT(31)/**/,
             14213    1           3 RESL(0:31),
             14214    1           4 RNAME CHAR(2) UNAL INIT(' '*0)/**/,
             14215    1           4 UMAX UBIN HALF UNAL INIT(0*0)/**/,
             14216    1           4 CMAX UBIN HALF UNAL INIT(0*0)/**/,
             14217    1           4 HMAX UBIN HALF UNAL INIT(0*0)/**/,
             14218    1           4 GMAX UBIN HALF UNAL INIT(0*0)/**/;
     1684    14220        %KL_DREC( NAME=KL_DEFAULT, PRO=' ', NWI=100, LAST=",", STCLASS=CONSTANT SYMDEF );
             14221         %LSET LISTDIR='0'B;
             14233    1   DCL 1 KL_DEFAULT CONSTANT SYMDEF ALIGNED,
             14238    1         2 ATYP UBIN BYTE UNAL INIT(1)/**/,
             14241    1         2 FLAGS,
             14244    1           3 RNME BIT(1) UNAL INIT('0'B)/**/,
             14248    1           3 GHOSTOK BIT(1) UNAL INIT('0'B)/**/,
             14251    1           3 OLOK BIT(1) INIT('1'B)/**/,
             14255    1           3 BATOK BIT(1) INIT('1'B)/**/,
             14259    1           3 GJOB BIT(1) INIT('0'B)/**/,
             14262    1           3 USETP BIT(1) INIT('0'B)/**/,
             14267    1           3 NOCGREJ BIT(1) INIT('0'B)/**/,
PL6.E3A0      #001=AS_SUPER_D File=AS_SUPER_D.:E05TSI                            TUE 07/29/97 10:59 Page:202
             14272    1           3 NOCGINF BIT(1) INIT('0'B)/**/,
             14275    1           3 TPOK BIT(1) INIT('0'B)/**/,
             14279    1           3 FEOK BIT(1) INIT('0'B)/**/,
             14282    1         2 COS UBIN(8)  UNAL INIT(0)/**/,
             14285    1         2 SUPER UBIN(9) UNAL INIT(0)/**/,
             14288    1         2 TWSN# CHAR(4) INIT('0000')/**/,
             14291    1         2 PASSWORD CHAR(8) INIT(' ')/**/,
             14295    1         2 ENCODPW REDEF PASSWORD BIT(72),
             14297    1         2 PNAME,
             14305    1           3 CNT UBIN BYTE UNAL INIT(0)/**/,
             14308    1           3 TXT CHAR(11) UNAL INIT(' ')/**/,
             14311    1         2 WOO CHAR(8) INIT('LOCAL')/**/,
             14314    1         2 RENAME CHAR(8) INIT('SYS')/**/,
             14315    1         2 HPS REDEF RENAME,
             14319    1           3 N CHAR(6) UNAL,
             14320    1           3 * CHAR(2) UNAL,
             14324    1         2 TNAME CHAR(8) INIT(' ')/**/,
             14328    1         2 SNAME CHAR(8) INIT('LOCAL')/**/,
             14331    1         2 NWINFO UBIN WORD INIT(100)/**/,
     1685    14333        %KL_FEBLK( NAME=KL_DEFAULT_FEBLK, LVL=2, RCNT=0, STCLASS=CONSTANT SYMDEF );
             14334         %LSET LISTDIR='0'B;
             14349    1         2 KL_DEFAULT_FEBLK,
             14351    1           3 BILL(0:3) CHAR(6) UNAL INIT('1','1','1','1')/**/,
             14352    1           3 DBACCN CHAR(8) UNAL INIT(' ')/**/,
             14353    1           3 MINTS(0:3) UBIN BYTE UNAL INIT(0*0)/**/,
             14354    1           3 MFPRG UBIN BYTE UNAL INIT(255)/**/,
             14355    1           3 MACCTMEM UBIN HALF UNAL INIT(9999)/**/,
             14356    1           3 FLAGS,
             14357    1           4 STEPACCT BIT(1) INIT('0'B)/**/,
             14358    1           4 * BIT(8) INIT('0'B*0)/**/,
             14359    1           3 PRIV(0:3) BIT(36) ALIGNED INIT('0'B*0)/**/,
             14360    1           3 PPRIV(0:3) BIT(36) ALIGNED INIT('0'B*0)/**/,
             14361    1          3 MTIME(0:3) SBIN WORD UNAL INIT(59999400, 59999400, 59999400, 59999400)/**/
             14361                    ,
             14362    1           3 MMEM(0:3) UBIN HALF UNAL INIT(128,128,128,128)/**/,
             14363    1           3 CXTMEM(0:7) ,
             14364    1           4 UMAX UBIN HALF UNAL INIT(0*0)/**/,
PL6.E3A0      #001=AS_SUPER_D File=AS_SUPER_D.:E05TSI                            TUE 07/29/97 10:59 Page:203
             14365    1           4 CMAX UBIN HALF UNAL INIT(0*0)/**/,
             14366    1           4 HMAX UBIN HALF UNAL INIT(0*0)/**/,
             14367    1           4 GMAX UBIN HALF UNAL INIT(0*0)/**/,
             14368    1           3 PSDOL(0:7) ,
             14369    1           4 PSDO_NAME CHAR(8) UNAL INIT(' '*0)/**/,
             14370    1           4 UMAX UBIN HALF UNAL INIT(0*0)/**/,
             14371    1           4 CMAX UBIN HALF UNAL INIT(0*0)/**/,
             14372    1           4 HMAX UBIN HALF UNAL INIT(0*0)/**/,
             14373    1           4 GMAX UBIN HALF UNAL INIT(0*0)/**/,
             14374    1           3 RESL_CNT UBIN HALF UNAL INIT(0)/**/,
             14375    1           3 RESL(0:0),
             14376    1           4 RNAME CHAR(2) UNAL INIT(' '*0)/**/,
             14377    1           4 UMAX UBIN HALF UNAL INIT(0*0)/**/,
             14378    1           4 CMAX UBIN HALF UNAL INIT(0*0)/**/,
             14379    1           4 HMAX UBIN HALF UNAL INIT(0*0)/**/,
             14380    1           4 GMAX UBIN HALF UNAL INIT(0*0)/**/;
     1686    14382        %AS_MOD_USER( NAME=AS_MOD_USER, STCLASS=STATIC SYMDEF );
             14383    1   DCL 1 NAME STCLASS ALIGNED,
             14384    1          2 PASSWORD BIT(1),
             14385    1          2 NAT_LANG BIT(1),
             14386    1          2 STEPACCNT BIT(1),
             14387    1          2 BATNUM BIT(1),
             14388    1          2 STARSACC BIT(1),
             14389    1          2 SETUP BIT(4),
             14390    1          2 SETUP_A(0:3) REDEF SETUP BIT(1),
             14391    1          2 PERM_BIT BIT(4),
             14392    1          2 PERM_A(0:3) REDEF PERM_BIT BIT(1) ,
             14393    1          2 FORCE_BIT BIT(4),
             14394    1          2 FORCE_A(0:3) REDEF FORCE_BIT BIT(1) ,
             14395    1          2 BANNER BIT (10),
             14396    1          2 BANNER_A (0:9) REDEF BANNER BIT (1),
             14397    1          2 BANNER_PERM BIT (10),
             14398    1          2 BANNER_PERM_A (0:9) REDEF BANNER_PERM BIT (1),
             14399    1          2 CPROC BIT(4),
             14400    1          2 CPROC_A(0:3) REDEF CPROC BIT(1),
             14401    1          2 LASTCPROC BIT(4),
             14402    1          2 LASTCPROC_A(0:3) REDEF LASTCPROC BIT(1),
PL6.E3A0      #001=AS_SUPER_D File=AS_SUPER_D.:E05TSI                            TUE 07/29/97 10:59 Page:204
             14403    1          2 BILL BIT(4),
             14404    1          2 BILL_A(0:3) REDEF BILL BIT(1),
             14405    1          2 WSN BIT(1),
             14406    1          2 HSET BIT(1),
             14407    1          2 PROFILE BIT(1),
             14408    1          2 ACCESS BIT(5),
             14409    1          2 ACCESS_A(0:4) REDEF ACCESS BIT(1),
             14410    1          2 PRIV,
             14411    1             3 * (0:%(36*4-1)) UBIN(2) UNAL,
             14412    1          2 PRIV_A(0:%(36*4-1)) REDEF PRIV UBIN(2) UNAL,
             14413    1          2 PPRIV,
             14414    1             3 * (0:%(36*4-1)) UBIN(2) UNAL,
             14415    1          2 PPRIV_A(0:%(36*4-1)) REDEF PPRIV UBIN(2) UNAL,
             14416    1          2 QUAN BIT(4),
             14417    1          2 QUAN_A(0:3) REDEF QUAN BIT(1),
             14418    1          2 MAXENQ BIT(4),
             14419    1          2 MAXENQ_A(0:3) REDEF MAXENQ BIT(1),
             14420    1          2 PRIOB BIT(4),
             14421    1          2 PRIOB_A(0:3) REDEF PRIOB BIT(1),
             14422    1          2 BUDGET,
             14423    1             3 PCHARGES BIT(1),
             14424    1             3 ICHARGES BIT(1),
             14425    1             3 BKACC BIT(1),
             14426    1             3 BUDLIM BIT(1),
             14427    1             3 BLINDACCTNG BIT(1),
             14428    1             3 MAXC BIT(1),
             14429    1             3 SIGN BIT(1),
             14430    1             3 MACCT BIT(1),
             14431    1             3 ACCUM BIT(1),
             14432    1          2 LIMITS,
             14433    1             3 OUTPUTPRIO BIT(1),
             14434    1             3 EXPIRE,
             14435    1                4 MEXP BIT(1),
             14436    1                4 DEXP BIT(1),
             14437    1             3 TIME BIT(8),
             14438    1             3 TIME_A(0:3) REDEF TIME,
             14439    1                4 MTIME BIT(1),
PL6.E3A0      #001=AS_SUPER_D File=AS_SUPER_D.:E05TSI                            TUE 07/29/97 10:59 Page:205
             14440    1                4 DTIME BIT(1),
             14441    1             3 MEM BIT(8),
             14442    1             3 MEM_A(0:3) REDEF MEM,
             14443    1                4 MMEM BIT(1),
             14444    1                4 DMEM BIT(1),
             14445    1             3 LO BIT(8),
             14446    1             3 LO_A(0:3) REDEF LO,
             14447    1                4 MLO BIT(1),
             14448    1                4 DLO BIT(1),
             14449    1             3 DO_ BIT(8),
             14450    1             3 DO_A(0:3) REDEF DO_,
             14451    1                4 MDO BIT(1),
             14452    1                4 DDO BIT(1),
             14453    1             3 PO BIT(8),
             14454    1             3 PO_A(0:3) REDEF PO,
             14455    1                4 MPO BIT(1),
             14456    1                4 DPO BIT(1),
             14457    1             3 PDIS BIT(8),
             14458    1             3 PDIS_A(0:3) REDEF PDIS,
             14459    1                4 MPDIS BIT(1),
             14460    1                4 DPDIS BIT(1),
             14461    1             3 TDIS BIT(8),
             14462    1             3 TDIS_A(0:3) REDEF TDIS,
             14463    1                4 MTDIS BIT(1),
             14464    1                4 DTDIS BIT(1),
             14465    1             3 FPOOLS BIT(8),
             14466    1             3 FPOOLS_A(0:3) REDEF FPOOLS,
             14467    1                4 MFPOOLS BIT(1),
             14468    1                4 DFPOOLS BIT(1),
             14469    1             3 MPRIO BIT(8),
             14470    1             3 MPRIO_A(0:3) REDEF MPRIO,
             14471    1                4 MMPRIO BIT(1),
             14472    1                4 DMPRIO BIT(1),
             14473    1          2 PSEUDO BIT(1),
             14474    1          2 RESOURCE BIT(1),
             14475    1          2 KEY,
             14476    1             3 * (0:71) UBIN(2) UNAL,
PL6.E3A0      #001=AS_SUPER_D File=AS_SUPER_D.:E05TSI                            TUE 07/29/97 10:59 Page:206
             14477    1          2 KEY_A(0:71) REDEF KEY UBIN(2) UNAL ,
             14478    1          2 FACCOUNT BIT(1) UNAL ,
             14479    1          2 FEBILL BIT(4),
             14480    1          2 FEBILL_A(0:3) REDEF FEBILL BIT(1) ,
             14481    1          2 FEMINTS BIT(4),
             14482    1          2 FEMINTS_A(0:3) REDEF FEMINTS BIT(1) ,
             14483    1          2 FEMFPRG BIT(1),
             14484    1          2 FEPRIV,
             14485    1             3 * (0:%(36*4-1)) UBIN(2) UNAL,
             14486    1          2 FEPRIV_A(0:%(36*4-1)) REDEF FEPRIV UBIN(2) UNAL,
             14487    1          2 FEPPRIV,
             14488    1             3 * (0:%(36*4-1)) UBIN(2) UNAL,
             14489    1          2 FEPPRIV_A(0:%(36*4-1)) REDEF FEPPRIV UBIN(2) UNAL,
             14490    1          2 FEMTIME BIT(4),
             14491    1          2 FEMTIME_A(0:3) REDEF FEMTIME BIT(1),
             14492    1          2 FEMMEM BIT(4),
             14493    1          2 FEMMEM_A(0:3) REDEF FEMMEM BIT(1),
             14494    1          2 FEMACCTMEM BIT(1),
             14495    1          2 FEDBACCN BIT(1),
             14496    1          2 FECXTMEM BIT(8),
             14497    1          2 FECXTMEM_A(0:7) REDEF FECXTMEM BIT(1),
             14498    1          2 FEPSEUDO BIT(1) ,
             14499    1          2 FERESOURCE BIT(1) ,
             14500    1          2 FESTEPACCNT BIT(1),
             14501    1          2 LAST_LOGON_TIME BIT (1);
     1687    14503        %AS$PROJ_HEADER( NAME=AS_CONSTANT_PROJ_HEADER, STCLASS="CONSTANT SYMDEF" );
             14504        %LSET LISTDIR='0'B;
             14513    1   DCL 1 NAME STCLASS ALIGNED,
             14514                                                    /* Creator of project */
             14515    1          2 CREATOR CHAR(20) ALIGNED %INIT (' ') %CHARTEXT('/**/'),
             14516                                                    /* Can modify default attributes */
             14517    1          2 MODIFY_ATTR BIT(1) UNAL %INIT ('1'B) %CHARTEXT('/**/'),
             14518    1          2 PROJ_REMOVED BIT(1) UNAL %INIT ('0'B) %CHARTEXT('/**/'),
             14519    1          2 * BIT(16) UNAL %INIT ('0'B) %CHARTEXT('/**/'),
             14520    1          2 SUB_PROJ_ACCTS UBIN HALF UNAL %INIT (0) %CHARTEXT('/**/'),
             14521                                                    /* Max. num granules this packset */
             14522    1          2 MAX_NUM_GRANS UBIN WORD ALIGNED %INIT (0) %CHARTEXT('/**/'),
PL6.E3A0      #001=AS_SUPER_D File=AS_SUPER_D.:E05TSI                            TUE 07/29/97 10:59 Page:207
             14523                                                    /* Granules given to users */
             14524    1          2 GRANS_ACCUM SBIN WORD ALIGNED %INIT (0) %CHARTEXT('/**/'),
             14525                                                    /* Skeleton for accounts */
             14526    1          2 SKELETON CHAR(8) %INIT ('?') %CHARTEXT('/**/'),
             14527                                                    /* Max. number of accounts on pack*/
             14528    1          2 MAX_NUM_ACCTS UBIN WORD ALIGNED %INIT (0) %CHARTEXT('/**/'),
             14529                                                    /* Number of accounts initialized */
             14530    1          2 NUM_ACCTS SBIN WORD ALIGNED %INIT (0) %CHARTEXT('/**/') LAST
     1688    14532        %PLIST ;
     1689    14533    1   END   AS_SUPER_D ;

PL6.E3A0      #001=AS_SUPER_D File=AS_SUPER_D.:E05TSI                            TUE 07/29/97 10:59 Page:208
--  Include file information  --

   B$JIT_C.:E05TOU  is referenced.
   OCI_SUBS_C.:E05TOU  is referenced.
   XG_SUBS_C.:E05TOU  is referenced.
   XG_PROFILE_C.:E05TOU  is referenced.
   KL_SUPER_C.:E05TOU  is referenced.
   XU_FORMAT_C.:E05TOU  is referenced.
   XU_MACRO_C.:E05TOU  is referenced.
   XU_SUBS_C.:E05TOU  is referenced.
   AS_SUBS_C.:E05TOU  is referenced.
   AS_MAC_C.:E05TOU  cannot be made into a system file and is referenced.
   AS_SUPER_C.:E05TOU  is referenced.
      No diagnostics issued in procedure AS_SUPER_D.
PL6.E3A0      #001=AS_SUPER_D File=AS_SUPER_D.:E05TSI                            TUE 07/29/97 10:59 Page:209

 **** Variables and constants ****

  ****  Section 002  Data  AS_SUPER_D

  ****  Scalars and arrays  ****
OctLoc.c.b A Datatyp(siz) R M Lvl/name                 OctLoc.c.b A Datatyp(siz) R M Lvl/name

 11575-0-0/w STRC(6084)  r     1 AS_DEFAULT_DREC        12570-0-0/w STRC(6084)  r     1 AS_PROJECT_DFLT_DREC
 12317-0-0/w STRC(6084)  r     1 AS_PROJECT_DREC        12046-0-0/w STRC(6084)  r     1 AS_PROJ_ADMIN_DREC
   105-0-0/c CHAR(255)   r     1 FMT_BUF                  205-0-0/w STRC(72)    r     1 FMT_VEC(0:75)
   437-0-0/c CHAR(255)   r     1 IN_BUF                 11324-0-0/w STRC(6084)  r     1 KL_DFLT
 11053-0-0/w STRC(6084)  r     1 KL_DREC                  537-0-0/c CHAR(140)   r     1 OUT_BUF
  2765-0-0/w STRC(504)   r     1 P_PCB                    604-0-0/w UBIN        r     1 WK(0:1023)

  ****  SYMREF variables  ****

  ****  Scalars and arrays  ****
OctLoc.c.b A Datatyp(siz) R M Lvl/name                 OctLoc.c.b A Datatyp(siz) R M Lvl/name

     0-0-0/w UBIN        r     1 ASAVE_                     0-0-0/w PTR         r     1 B$JIT$
     0-0-0/w UBIN        r     1 CFEP_                      0-0-0/w UBIN        r     1 CNTRLC_
     0-0-0/w UBIN        r     1 CNTRLD_                    0-0-0/w UBIN        r     1 CQ_
     0-0-0/w UBIN        r     1 DIA_                       0-0-0/w UBIN        r     1 DISPJOB_
     0-0-0/w UBIN        r     1 EFT_                       0-0-0/w UBIN        r     1 EL_
     0-0-0/w UBIN        r     1 EXMM_                      0-0-0/w UBIN        r     1 EXPM_
     0-0-0/w UBIN        r     1 FMREAD_                    0-0-0/w UBIN        r     1 GPP_
     0-0-0/w UBIN        r     1 INTCON_                    0-0-0/w UBIN        r     1 IOQW_
     0-0-0/w UBIN        r     1 IOQ_                       0-0-0/w UBIN        r     1 JIT_
     0-0-0/w UBIN        r     1 LABEL_                     0-0-0/w UBIN        r     1 MAXM_
     0-0-0/w UBIN        r     1 MFEP_                      0-0-0/w UBIN        r     1 MSYS_
     0-0-0/w UBIN        r     1 NETCON_                    0-0-0/w UBIN        r     1 PIGC_
     0-0-0/w UBIN        r     1 PIGD_                      0-0-0/w UBIN        r     1 PIGETTE_
     0-0-0/w UBIN        r     1 PM_                        0-0-0/w UBIN        r     1 RATES_
     0-0-0/w UBIN        r     1 REPLAY_                    0-0-0/w UBIN        r     1 SCREECH_
     0-0-0/w UBIN        r     1 SEC_                       0-0-0/w UBIN        r     1 SNAP_
     0-0-0/w UBIN        r     1 SPCLMM_                    0-0-0/w UBIN        r     1 SPIDERC_
     0-0-0/w UBIN        r     1 SPIDERD_                   0-0-0/w UBIN        r     1 SUPERAUTH_
PL6.E3A0      #001=AS_SUPER_D File=AS_SUPER_D.:E05TSI                            TUE 07/29/97 10:59 Page:210
     0-0-0/w UBIN        r     1 SUPERD_                    0-0-0/w UBIN        r     1 SUPERFORM_
     0-0-0/w UBIN        r     1 SUPERWSN_                  0-0-0/w UBIN        r     1 SUPER_
     0-0-0/w UBIN        r     1 SYSCON_                    0-0-0/w UBIN        r     1 SYSLOG_
     0-0-0/w UBIN        r     1 TND_                       0-0-0/w UBIN        r     1 VOLINIT_

  ****  BASED and DCB variables  ****

  ****  Scalars and arrays  ****
OctLoc.c.b A Datatyp(siz) R M Lvl/name                 OctLoc.c.b A Datatyp(siz) R M Lvl/name

     0-0-0N  NULL        r     1 M$LO


   No code generated for procedure AS_SUPER_D .
   Procedure AS_SUPER_D requires 4 words of local(AUTO) storage.

    No errors detected in file AS_SUPER_D.:E05TSI    .
PL6.E3A0      #001=AS_SUPER_D File=AS_SUPER_D.:E05TSI                            TUE 07/29/97 10:59 Page:211
          *** CROSS REFERENCE LISTING ***
**     DENOTES     IDENTIFIER DEFINITION
<<                 IDENTIFIER'S VALUE SET
>>                 IDENTIFIER'S VALUE USED
<>                 IDENTIFIER SET AND/OR USED
--                 IDENTIFIER REFERENCED
PL6.E3A0      #001=AS_SUPER_D File=AS_SUPER_D.:E05TSI                            TUE 07/29/97 10:59 Page:212
          MINI XREF LISTING

ASAVE_
      9962**DCL     11293--DCLINIT
ASA_BRKS_LOC
     11643**DCL     11644--REDEF
AS_DEFAULT.BANNER_PERM
     12373**DCL     12374--REDEF
AS_DEFAULT.BUDGET.MACCT
     12278**DCL     12282--REDEF
AS_DEFAULT.BUDGET.MAX_PROJECTS
     12291**DCL     12294--REDEF
AS_DEFAULT.BUDGET.PACCUM
     12274**DCL     12276--REDEF
AS_DEFAULT.BUDGET.PMAXC
     12269**DCL     12271--REDEF
AS_DEFAULT.SETUP_CHRA.TXT
     12389**DCL     12390--REDEF   12391--REDEF
AS_DEFAULT_DREC
     13585**DCL     11416--DCLINIT
AS_DEFAULT_DREC.PASSWORD
     13643**DCL     13647--REDEF
AS_DEFAULT_DREC.RENAME
     13666**DCL     13667--REDEF
AS_DFLT.BANNER_PERM
     12195**DCL     12196--REDEF
AS_DFLT.BUDGET.MACCT
     12100**DCL     12104--REDEF
AS_DFLT.BUDGET.MAX_PROJECTS
     12113**DCL     12116--REDEF
AS_DFLT.BUDGET.PACCUM
     12096**DCL     12098--REDEF
AS_DFLT.BUDGET.PMAXC
     12091**DCL     12093--REDEF
PL6.E3A0      #001=AS_SUPER_D File=AS_SUPER_D.:E05TSI                            TUE 07/29/97 10:59 Page:213
AS_DFLT.SETUP_CHRA.TXT
     12211**DCL     12212--REDEF   12213--REDEF
AS_FE_MODE
     11398**DCL     11411--REDEF
AS_MODE
     11379**DCL     11395--REDEF
AS_MOD_USER.ACCESS
     14408**DCL     14409--REDEF
AS_MOD_USER.BANNER
     14395**DCL     14396--REDEF
AS_MOD_USER.BANNER_PERM
     14397**DCL     14398--REDEF
AS_MOD_USER.BILL
     14403**DCL     14404--REDEF
AS_MOD_USER.CPROC
     14399**DCL     14400--REDEF
AS_MOD_USER.FEBILL
     14479**DCL     14480--REDEF
AS_MOD_USER.FECXTMEM
     14496**DCL     14497--REDEF
AS_MOD_USER.FEMINTS
     14481**DCL     14482--REDEF
AS_MOD_USER.FEMMEM
     14492**DCL     14493--REDEF
AS_MOD_USER.FEMTIME
     14490**DCL     14491--REDEF
AS_MOD_USER.FEPPRIV
     14487**DCL     14489--REDEF
AS_MOD_USER.FEPRIV
     14484**DCL     14486--REDEF
AS_MOD_USER.FORCE_BIT
     14393**DCL     14394--REDEF
AS_MOD_USER.KEY
     14475**DCL     14477--REDEF
AS_MOD_USER.LASTCPROC
     14401**DCL     14402--REDEF
PL6.E3A0      #001=AS_SUPER_D File=AS_SUPER_D.:E05TSI                            TUE 07/29/97 10:59 Page:214
AS_MOD_USER.LIMITS.DO_
     14449**DCL     14450--REDEF
AS_MOD_USER.LIMITS.FPOOLS
     14465**DCL     14466--REDEF
AS_MOD_USER.LIMITS.LO
     14445**DCL     14446--REDEF
AS_MOD_USER.LIMITS.MEM
     14441**DCL     14442--REDEF
AS_MOD_USER.LIMITS.MPRIO
     14469**DCL     14470--REDEF
AS_MOD_USER.LIMITS.PDIS
     14457**DCL     14458--REDEF
AS_MOD_USER.LIMITS.PO
     14453**DCL     14454--REDEF
AS_MOD_USER.LIMITS.TDIS
     14461**DCL     14462--REDEF
AS_MOD_USER.LIMITS.TIME
     14437**DCL     14438--REDEF
AS_MOD_USER.MAXENQ
     14418**DCL     14419--REDEF
AS_MOD_USER.PERM_BIT
     14391**DCL     14392--REDEF
AS_MOD_USER.PPRIV
     14413**DCL     14415--REDEF
AS_MOD_USER.PRIOB
     14420**DCL     14421--REDEF
AS_MOD_USER.PRIV
     14410**DCL     14412--REDEF
AS_MOD_USER.QUAN
     14416**DCL     14417--REDEF
AS_MOD_USER.SETUP
     14389**DCL     14390--REDEF
AS_PROJECT.BANNER_PERM
     12729**DCL     12730--REDEF
AS_PROJECT.BUDGET.MACCT
     12634**DCL     12638--REDEF
PL6.E3A0      #001=AS_SUPER_D File=AS_SUPER_D.:E05TSI                            TUE 07/29/97 10:59 Page:215
AS_PROJECT.BUDGET.MAX_PROJECTS
     12647**DCL     12650--REDEF
AS_PROJECT.BUDGET.PACCUM
     12630**DCL     12632--REDEF
AS_PROJECT.BUDGET.PMAXC
     12625**DCL     12627--REDEF
AS_PROJECT.SETUP_CHRA.TXT
     12745**DCL     12746--REDEF   12747--REDEF
AS_PROJECT_DFLT.BANNER_PERM
     12907**DCL     12908--REDEF
AS_PROJECT_DFLT.BUDGET.MACCT
     12812**DCL     12816--REDEF
AS_PROJECT_DFLT.BUDGET.MAX_PROJECTS
     12825**DCL     12828--REDEF
AS_PROJECT_DFLT.BUDGET.PACCUM
     12808**DCL     12810--REDEF
AS_PROJECT_DFLT.BUDGET.PMAXC
     12803**DCL     12805--REDEF
AS_PROJECT_DFLT.SETUP_CHRA.TXT
     12923**DCL     12924--REDEF   12925--REDEF
AS_PROJECT_DFLT_DREC
     14071**DCL     11419--DCLINIT
AS_PROJECT_DFLT_DREC.PASSWORD
     14129**DCL     14133--REDEF
AS_PROJECT_DFLT_DREC.RENAME
     14152**DCL     14153--REDEF
AS_PROJECT_DREC
     13909**DCL     11418--DCLINIT
AS_PROJECT_DREC.PASSWORD
     13967**DCL     13971--REDEF
AS_PROJECT_DREC.RENAME
     13990**DCL     13991--REDEF
AS_PROJ_ADMIN.BANNER_PERM
     12551**DCL     12552--REDEF
AS_PROJ_ADMIN.BUDGET.MACCT
     12456**DCL     12460--REDEF
PL6.E3A0      #001=AS_SUPER_D File=AS_SUPER_D.:E05TSI                            TUE 07/29/97 10:59 Page:216
AS_PROJ_ADMIN.BUDGET.MAX_PROJECTS
     12469**DCL     12472--REDEF
AS_PROJ_ADMIN.BUDGET.PACCUM
     12452**DCL     12454--REDEF
AS_PROJ_ADMIN.BUDGET.PMAXC
     12447**DCL     12449--REDEF
AS_PROJ_ADMIN.SETUP_CHRA.TXT
     12567**DCL     12568--REDEF   12569--REDEF
AS_PROJ_ADMIN_DREC
     13747**DCL     11417--DCLINIT
AS_PROJ_ADMIN_DREC.PASSWORD
     13805**DCL     13809--REDEF
AS_PROJ_ADMIN_DREC.RENAME
     13828**DCL     13829--REDEF
AS_USERS.BANNER_PERM
     12017**DCL     12018--REDEF
AS_USERS.BUDGET.MACCT
     11922**DCL     11926--REDEF
AS_USERS.BUDGET.MAX_PROJECTS
     11935**DCL     11938--REDEF
AS_USERS.BUDGET.PACCUM
     11918**DCL     11920--REDEF
AS_USERS.BUDGET.PMAXC
     11913**DCL     11915--REDEF
AS_USERS.SETUP_CHRA.TXT
     12033**DCL     12034--REDEF   12035--REDEF
AS_USERS_CONSTANT.BANNER_PERM
     13085**DCL     13086--REDEF
AS_USERS_CONSTANT.BUDGET.MACCT
     12990**DCL     12994--REDEF
AS_USERS_CONSTANT.BUDGET.MAX_PROJECTS
     13003**DCL     13006--REDEF
AS_USERS_CONSTANT.BUDGET.PACCUM
     12986**DCL     12988--REDEF
AS_USERS_CONSTANT.BUDGET.PMAXC
     12981**DCL     12983--REDEF
PL6.E3A0      #001=AS_SUPER_D File=AS_SUPER_D.:E05TSI                            TUE 07/29/97 10:59 Page:217
AS_USERS_CONSTANT.SETUP_CHRA.TXT
     13101**DCL     13102--REDEF   13103--REDEF
B$JIT.CPFLAGS1.SLEAZE
      9768**DCL      9768--REDEF
B$JIT.ERR.MID
      9675**DCL      9675--REDEF
B$JIT.JRESPEAK
      9836**DCL      9837--REDEF
B$JIT.ORIGINATOR_PORT.FROM_CR
      9945**DCL      9945--REDEF    9946--REDEF
B$JIT.PNR
      9849**DCL      9849--REDEF
B$JIT.TSLINE
      9943**DCL      9944--REDEF
B$JIT$
     10016**DCL      9669--IMP-PTR
CFEP_
      9971**DCL     11302--DCLINIT
CNTRLC_
      9981**DCL     11312--DCLINIT
CNTRLD_
      9980**DCL     11311--DCLINIT
CQ_
      9976**DCL     11307--DCLINIT
DIA_
      9965**DCL     11296--DCLINIT
DISPJOB_
      9973**DCL     11304--DCLINIT
EFT_
      9982**DCL     11313--DCLINIT
EL_
      9983**DCL     11314--DCLINIT
ERR_CODE
     11617**DCL     11621--REDEF
EXMM_
      9956**DCL     11287--DCLINIT
PL6.E3A0      #001=AS_SUPER_D File=AS_SUPER_D.:E05TSI                            TUE 07/29/97 10:59 Page:218
EXPM_
      9968**DCL     11299--DCLINIT
FMREAD_
      9966**DCL     11297--DCLINIT
FMT_BUF
     11593**DCL     11499--DCLINIT 11501--DCLINIT
FMT_VEC
     11594**DCL     11524--DCLINIT
GPP_
      9963**DCL     11294--DCLINIT
INTCON_
      9975**DCL     11306--DCLINIT
IN_BUF
     11599**DCL     11601--DCLINIT 11708--DCLINIT
IOQW_
      9969**DCL     11300--DCLINIT
IOQ_
      9970**DCL     11301--DCLINIT
JIT_
      9960**DCL     11291--DCLINIT
KL_DEFAULT.PASSWORD
     14291**DCL     14295--REDEF
KL_DEFAULT.RENAME
     14314**DCL     14315--REDEF
KL_DFLT
     13423**DCL     11415--DCLINIT
KL_DFLT.PASSWORD
     13481**DCL     13485--REDEF
KL_DFLT.RENAME
     13504**DCL     13505--REDEF
KL_DREC
     13261**DCL     11414--DCLINIT
KL_DREC.PASSWORD
     13319**DCL     13323--REDEF
KL_DREC.RENAME
     13342**DCL     13343--REDEF
PL6.E3A0      #001=AS_SUPER_D File=AS_SUPER_D.:E05TSI                            TUE 07/29/97 10:59 Page:219
KL_DREC_CNT.PASSWORD
     13206**DCL     13210--REDEF
KL_DREC_CNT.RENAME
     13229**DCL     13230--REDEF
LABEL_
      9984**DCL     11315--DCLINIT
MAXM_
      9957**DCL     11288--DCLINIT
MFEP_
      9972**DCL     11303--DCLINIT
MSYS_
      9958**DCL     11289--DCLINIT
NETCON_
      9994**DCL     11324--DCLINIT
OUT_BUF
     11600**DCL     11512--DCLINIT 11514--DCLINIT 11602--DCLINIT
PIGC_
      9986**DCL     11317--DCLINIT
PIGD_
      9985**DCL     11316--DCLINIT
PIGETTE_
      9987**DCL     11331--DCLINIT
PM_
      9967**DCL     11298--DCLINIT
PROJ_KEY.TEXT
     11450**DCL     11451--REDEF
PROJ_KEY.TXT.PROJECT
     11452**DCL     11453--REDEF
P_PCB
     11707**DCL     11604--DCLINIT
RATES_
      9998**DCL     11328--DCLINIT
REMEM_VAR
     11639**DCL     11640--REDEF
REM_FCMD
     11641**DCL     11642--REDEF
PL6.E3A0      #001=AS_SUPER_D File=AS_SUPER_D.:E05TSI                            TUE 07/29/97 10:59 Page:220
REPLAY_
      9997**DCL     11327--DCLINIT
SCREECH_
      9978**DCL     11309--DCLINIT
SEC_
      9964**DCL     11295--DCLINIT
SNAP_
      9977**DCL     11308--DCLINIT
SPCLMM_
      9955**DCL     11286--DCLINIT
SPIDERC_
      9993**DCL     11323--DCLINIT
SPIDERD_
      9992**DCL     11322--DCLINIT
SUPERAUTH_
      9988**DCL     11318--DCLINIT
SUPERD_
      9995**DCL     11325--DCLINIT
SUPERFORM_
      9990**DCL     11320--DCLINIT
SUPERWSN_
      9989**DCL     11319--DCLINIT
SUPER_
      9991**DCL     11321--DCLINIT
SYSCON_
      9974**DCL     11305--DCLINIT 11330--DCLINIT
SYSLOG_
      9959**DCL     11290--DCLINIT
TND_
      9961**DCL     11292--DCLINIT
USERS_KEY.TEXT
     11433**DCL     11434--REDEF   11435--REDEF   11439--REDEF   11444--REDEF
VOLINIT_
      9996**DCL     11326--DCLINIT
WK
     11603**DCL     11716--DCLINIT
