PL6.E3A0      #002=AZA$FLTTODEC File=AZA$LOGOFF.:E05TSI                          TUE 07/29/97 11:04 Page:412
     2302        1        /*T***********************************************************/
     2303        2        /*T*                                                         */
     2304        3        /*T* Copyright (c) Bull HN Information Systems Inc., 1997    */
     2305        4        /*T*                                                         */
     2306        5        /*T***********************************************************/
     2307        6        AZA$FLTTODEC: PROC(FLT,DEC) ALTRET;
     2308        7        /*D* NAME:        AZA$FLTTODEC
     2309        8             PURPOSE:     To convert a 1-word REAL value to a 3-word DECIMAL value
     2310        9             CALL:        CALL AZA$FLTTODEC(FLT,DEC) ALTRET(LBL);
     2311       10                             where: FLT is a 1-word REAL value
     2312       11                                    DEC is a 3-word DECIMAL value
     2313       12             DESCRIPTION: FLT is converted from a 1-word REAL floating point value
     2314       13                          into a 3-word unpacked DECIMAL floating point value. This
     2315       14                          value is stored into DEC. If something is wrong with
     2316       15                          FLT, this procedure will ALTRET.
     2317       16        */
     2318       17    1   DCL FLT BIT(36) ALIGNED;
     2319       18    1   DCL 1 DEC,
     2320       19    1         2 SIGN CHAR(1) UNAL,
     2321       20    1         2 DIGITS CHAR(10) UNAL,
     2322       21    1         2 ZERO BIT(1) UNAL,
     2323       22    1         2 EXP SBIN(8) UNAL;
     2324       23    1   DCL 1 CHAR11,
     2325       24    1         2 SIGN CHAR(1) UNAL,
     2326       25    1         2 DIGITS CHAR(10) UNAL;
     2327       26    1   DCL DIGITS SBIN;
     2328       27    1   DCL POWER SBIN;
     2329       28    1   DCL ZERO CHAR(10) CONSTANT INIT('0000000000');
     2330       29    1   DCL XPN_7RTOLS ENTRY(5) ALTRET;
     2331       30        %EJECT;
PL6.E3A0      #002=AZA$FLTTODEC File=AZA$LOGOFF.:E05TSI                          TUE 07/29/97 11:04 Page:413
     2332       31    1      CALL XPN_7RTOLS(FLT,CHAR11,10,DIGITS,POWER) ALTRET(JUSTALT);
     2333       32    1      DEC.SIGN = CHAR11.SIGN;
     2334       33    1      CALL CONCAT(DEC.DIGITS,
     2335       34    1        SUBSTR(ZERO,0,10-DIGITS),
     2336       35    1        SUBSTR(CHAR11.DIGITS,0,DIGITS));
     2337       36    1      DEC.ZERO = '0'B;
     2338       37    1      DEC.EXP = POWER;
     2339       38    1      RETURN;
     2340       39    1   JUSTALT: ALTRETURN;
     2341       40    1   END AZA$FLTTODEC;

PL6.E3A0      #002=AZA$FLTTODEC File=AZA$LOGOFF.:E05TSI                          TUE 07/29/97 11:04 Page:414
--  Include file information  --

   B$JIT_C.:E05TOU  was found in the system file and is never referenced.
   CP_6_C.:E05TOU  was found in the system file and is never referenced.
      No diagnostics issued in procedure AZA$FLTTODEC.

   Procedure AZA$FLTTODEC requires 43 words for executable code.
   Procedure AZA$FLTTODEC requires 16 words of local(AUTO) storage.

    No errors detected in file AZA$LOGOFF.:E05TSI    .

PL6.E3A0      #002=AZA$FLTTODEC File=AZA$LOGOFF.:E05TSI                          TUE 07/29/97 11:04 Page:415

 Object Unit name= AZA$FLTTODEC                               File name= AZA$LOGOFF.:E05TOU
 UTS= JUL 29 '97 11:04:18.76 TUE                              Compiler= PL-6/E31         Sev=      00
 SharedLib= :SHARED_SYSTEM                                    Alt SharedLib=


    ****  Control sections  ****

 Sect   Type Bound  Init  Size OctSiz  Section name(segment info)
    0  RoData even  UTS      3      3  AZA$FLTTODEC
    1   Proc  even  none    43     53  AZA$FLTTODEC
    2  RoData even  none     1      1  AZA$FLTTODEC

    ****  Entry defs  ****

                              Check   Calling
                             calling  sequence
  Sect OctLoc Primary Altret sequence   type   Parms  Name
     1      0   yes    yes     yes      Std        2  AZA$FLTTODEC

  ****  Entry refs  ****

         Check        Calling
        calling       sequence
Altret sequence SRef   type   Args  Name
 yes     yes           Std       5 XPN_7RTOLS
                       nStd      0 X66_AUTO_2
                       Std       0 B_CONSPOOL_D
                       nStd      0 X66_ARET
                       nStd      0 X66_AALT

  ****  Data refs  ****

  Flags:  r = read only, s = secondary
Flgs Name                             Flgs Name                             Flgs Name
     B_VECTNIL
PL6.E3A0      #002=AZA$FLTTODEC File=AZA$LOGOFF.:E05TSI                          TUE 07/29/97 11:04 Page:416

  ****  Segment refs  ****

  Flags:  r = read only, s = secondary
Flgs Name                             Flgs Name                             Flgs Name
     ISSID
PL6.E3A0      #002=AZA$FLTTODEC File=AZA$LOGOFF.:E05TSI                          TUE 07/29/97 11:04 Page:417


     2302        1        /*T***********************************************************/
     2303        2        /*T*                                                         */
     2304        3        /*T* Copyright (c) Bull HN Information Systems Inc., 1997    */
     2305        4        /*T*                                                         */
     2306        5        /*T***********************************************************/
     2307        6        AZA$FLTTODEC: PROC(FLT,DEC) ALTRET;

      6  1 000000   000000 700200 xent  AZA$FLTTODEC TSX0  ! X66_AUTO_2
         1 000001   000020 000002                    ZERO    16,2

     2308        7        /*D* NAME:        AZA$FLTTODEC
     2309        8             PURPOSE:     To convert a 1-word REAL value to a 3-word DECIMAL value
     2310        9             CALL:        CALL AZA$FLTTODEC(FLT,DEC) ALTRET(LBL);
     2311       10                             where: FLT is a 1-word REAL value
     2312       11                                    DEC is a 3-word DECIMAL value
     2313       12             DESCRIPTION: FLT is converted from a 1-word REAL floating point value
     2314       13                          into a 3-word unpacked DECIMAL floating point value. This
     2315       14                          value is stored into DEC. If something is wrong with
     2316       15                          FLT, this procedure will ALTRET.
     2317       16        */
     2318       17    1   DCL FLT BIT(36) ALIGNED;
     2319       18    1   DCL 1 DEC,
     2320       19    1         2 SIGN CHAR(1) UNAL,
     2321       20    1         2 DIGITS CHAR(10) UNAL,
     2322       21    1         2 ZERO BIT(1) UNAL,
     2323       22    1         2 EXP SBIN(8) UNAL;
     2324       23    1   DCL 1 CHAR11,
     2325       24    1         2 SIGN CHAR(1) UNAL,
     2326       25    1         2 DIGITS CHAR(10) UNAL;
     2327       26    1   DCL DIGITS SBIN;
     2328       27    1   DCL POWER SBIN;
     2329       28    1   DCL ZERO CHAR(10) CONSTANT INIT('0000000000');
     2330       29    1   DCL XPN_7RTOLS ENTRY(5) ALTRET;
     2331       30        %EJECT;
PL6.E3A0      #002=AZA$FLTTODEC File=AZA$LOGOFF.:E05TSI                          TUE 07/29/97 11:04 Page:418
     2332       31    1      CALL XPN_7RTOLS(FLT,CHAR11,10,DIGITS,POWER) ALTRET(JUSTALT);

     31  1 000002   200011 630500                    EPPR0   POWER,,AUTO
         1 000003   200016 450500                    STP0    POWER+5,,AUTO
         1 000004   200010 631500                    EPPR1   DIGITS,,AUTO
         1 000005   200015 451500                    STP1    POWER+4,,AUTO
         1 000006   000000 236000 2                  LDQ     0
         1 000007   200014 756100                    STQ     POWER+3,,AUTO
         1 000010   200005 633500                    EPPR3   CHAR11,,AUTO
         1 000011   200013 453500                    STP3    POWER+2,,AUTO
         1 000012   200003 236100                    LDQ     @FLT,,AUTO
         1 000013   200012 756100                    STQ     POWER+1,,AUTO
         1 000014   200012 630500                    EPPR0   POWER+1,,AUTO
         1 000015   000023 631400 xsym               EPPR1   B_VECTNIL+19
         1 000016   000000 701000 xent               TSX1    XPN_7RTOLS
         1 000017   000052 702000 1                  TSX2    JUSTALT

     2333       32    1      DEC.SIGN = CHAR11.SIGN;

     32  1 000020   200004 470500                    LDP0    @DEC,,AUTO
         1 000021   040100 100500                    MLR     fill='040'O
         1 000022   200005 000001                    ADSC9   CHAR11,,AUTO             cn=0,n=1
         1 000023   000000 000001                    ADSC9   0,,PR0                   cn=0,n=1

     2334       33    1      CALL CONCAT(DEC.DIGITS,

     33  1 000024   200010 720100                    LXL0    DIGITS,,AUTO
         1 000025   777765 620010                    EAX0    -11,X0
         1 000026   777777 660003                    ERX0    -1,DU
         1 000027   040100 100440                    MLR     fill='040'O
         1 000030   000000 000010 0                  ADSC9   ZERO                     cn=0,n=*X0
         1 000031   000000 200012                    ADSC9   0,,PR0                   cn=1,n=10
         1 000032   200010 236100                    LDQ     DIGITS,,AUTO
         1 000033   000000 116003                    CMPQ    0,DU
         1 000034   000043 604400 1                  TMOZ    s:36
         1 000035   200010 335100                    LCA     DIGITS,,AUTO
         1 000036   000000 620006                    EAX0    0,QL
PL6.E3A0      #002=AZA$FLTTODEC File=AZA$LOGOFF.:E05TSI                          TUE 07/29/97 11:04 Page:419
         1 000037   200010 721100                    LXL1    DIGITS,,AUTO
         1 000040   040145 100540                    MLR     fill='040'O
         1 000041   200005 200010                    ADSC9   CHAR11,,AUTO             cn=1,n=*X0
         1 000042   000002 600011                    ADSC9   2,A,PR0                  cn=3,n=*X1

     2335       34    1        SUBSTR(ZERO,0,10-DIGITS),
     2336       35    1        SUBSTR(CHAR11.DIGITS,0,DIGITS));
     2337       36    1      DEC.ZERO = '0'B;

     36  1 000043   003100 060400                    CSL     bolr='003'O
         1 000044   000002 000001 xsym               BDSC    B_VECTNIL+2              by=0,bit=0,n=1
         1 000045   000002 600001                    BDSC    2,,PR0                   by=3,bit=0,n=1

     2338       37    1      DEC.EXP = POWER;

     37  1 000046   003100 061500                    CSR     bolr='003'O
         1 000047   200011 000044                    BDSC    POWER,,AUTO              by=0,bit=0,n=36
         1 000050   000002 610010                    BDSC    2,,PR0                   by=3,bit=1,n=8

     2339       38    1      RETURN;

     38  1 000051   000000 702200 xent               TSX2  ! X66_ARET

     2340       39    1   JUSTALT: ALTRETURN;

     39  1 000052   000000 702200 xent  JUSTALT      TSX2  ! X66_AALT
     2341       40    1   END AZA$FLTTODEC;

PL6.E3A0      #002=AZA$FLTTODEC File=AZA$LOGOFF.:E05TSI                          TUE 07/29/97 11:04 Page:420
--  Include file information  --

   B$JIT_C.:E05TOU  was found in the system file and is never referenced.
   CP_6_C.:E05TOU  was found in the system file and is never referenced.
      No diagnostics issued in procedure AZA$FLTTODEC.
PL6.E3A0      #002=AZA$FLTTODEC File=AZA$LOGOFF.:E05TSI                          TUE 07/29/97 11:04 Page:421

 **** Variables and constants ****

  ****  Section 000 RoData AZA$FLTTODEC

  ****  Scalars and arrays  ****
OctLoc.c.b A Datatyp(siz) R M Lvl/name                 OctLoc.c.b A Datatyp(siz) R M Lvl/name

     0-0-0/c CHAR(10)    r     1 ZERO

  ****  Auto variables  ****

  ****  Scalars and arrays  ****
OctLoc.c.b A Datatyp(siz) R M Lvl/name                 OctLoc.c.b A Datatyp(siz) R M Lvl/name

     4-0-0/w PTR         r     1 @DEC                       3-0-0/w PTR         r     1 @FLT
     5-0-0/c STRC(99)    r     1 CHAR11                    *0-0-0/c STRC(108)   r     1 DEC
    10-0-0/w SBIN        r     1 DIGITS                    *0-0-0/w BIT         r     1 FLT
    11-0-0/w SBIN        r     1 POWER


   Procedure AZA$FLTTODEC requires 43 words for executable code.
   Procedure AZA$FLTTODEC requires 16 words of local(AUTO) storage.

    No errors detected in file AZA$LOGOFF.:E05TSI    .
PL6.E3A0      #002=AZA$FLTTODEC File=AZA$LOGOFF.:E05TSI                          TUE 07/29/97 11:04 Page:422
          *** CROSS REFERENCE LISTING ***
**     DENOTES     IDENTIFIER DEFINITION
<<                 IDENTIFIER'S VALUE SET
>>                 IDENTIFIER'S VALUE USED
<>                 IDENTIFIER SET AND/OR USED
--                 IDENTIFIER REFERENCED
PL6.E3A0      #002=AZA$FLTTODEC File=AZA$LOGOFF.:E05TSI                          TUE 07/29/97 11:04 Page:423
          MINI XREF LISTING

CHAR11
        23**DCL        31<>CALL
CHAR11.DIGITS
        25**DCL        33>>CALLBLT
CHAR11.SIGN
        24**DCL        32>>ASSIGN
DEC
        18**DCL         6--PROC
DEC.DIGITS
        20**DCL        33<<CALLBLT
DEC.EXP
        22**DCL        37<<ASSIGN
DEC.SIGN
        19**DCL        32<<ASSIGN
DEC.ZERO
        21**DCL        36<<ASSIGN
DIGITS
        26**DCL        31<>CALL       33>>CALLBLT    33>>CALLBLT
FLT
        17**DCL         6--PROC       31<>CALL
JUSTALT
        39**LABEL      31--CALLALT
POWER
        27**DCL        31<>CALL       37>>ASSIGN
XPN_7RTOLS
        29**DCL-ENT    31--CALL
ZERO
        28**DCL        33>>CALLBLT
