VERSION E05

PL6.E3A0      #001=B_CNTRL_D File=B_CNTRL_D.:E05TSI                              TUE 07/29/97 11:07 Page:1
        1        1        /*M*   B_CNTRL_D   CONTAINS ALL MONITOR TABLES ACCESSED BY CONTROL   */
        2        2        /*T***********************************************************/
        3        3        /*T*                                                         */
        4        4        /*T* Copyright (c) Bull HN Information Systems Inc., 1997    */
        5        5        /*T*                                                         */
        6        6        /*T***********************************************************/
        7        7        /**/
        8        8        B_CNTRL_D: PROC;
        9        9        /**/
       10       10        %INCLUDE CP_6;
       11     5569        %INCLUDE FM_CACHE_C;
       12     5635        %INCLUDE UD_EQU_E;
       13     6024        %LIST;
       14     6025        %INCLUDE FR_CNTRLD_D;
        1+    6026        /*M* FR_CNTRLD_D - CONTROL DISPLAY ONLY RESOURCE MANAGEMENT DATA   */
        2+    6027        /*T***********************************************************/
        3+    6028        /*T*                                                         */
        4+    6029        /*T* Copyright (c) Bull HN Information Systems Inc., 1997    */
        5+    6030        /*T*                                                         */
        6+    6031        /*T***********************************************************/
        7+    6032        /**/
        8+    6033    1   DCL FR_PRC$ (0:4) PTR STATIC SYMDEF INIT(ADDR(NIL),
        9+    6034    1                                            ADDR(FR_PRCB),
       10+    6035    1                                            ADDR(FR_PRCG),
       11+    6036    1                                            ADDR(FR_PRCO),
       12+    6037    1                                            ADDR(FR_PRCP));
       13+    6038    1   DCL FR_PRM$ (0:4) PTR STATIC SYMDEF INIT(ADDR(FR_PRMT),
       14+    6039    1                                            ADDR(FR_PRMB),
       15+    6040    1                                            ADDR(FR_PRMG),
       16+    6041    1                                            ADDR(FR_PRMO),
       17+    6042    1                                            ADDR(FR_PRMP));
       18+    6043    1   DCL FR_MEMC (0:4) SBIN WORD STATIC SYMDEF INIT(0,0,512,0,0);
              6043            /*Right init for GHOST1*/
       19+    6044    1   DCL FR_SUC$ (0:4) PTR STATIC SYMDEF INIT(ADDR(FR_SUCT),
       20+    6045    1                                            ADDR(FR_SUCB),
       21+    6046    1                                            ADDR(FR_SUCG),
       22+    6047    1                                            ADDR(FR_SUCO),
PL6.E3A0      #001=B_CNTRL_D File=B_CNTRL_D.:E05TSI                              TUE 07/29/97 11:07 Page:2
       23+    6048    1                                            ADDR(FR_SUCP));
       24+    6049    1   DCL FR_SUM$ (0:4) PTR STATIC SYMDEF INIT(ADDR(FR_SUMT),
       25+    6050    1                                            ADDR(FR_SUMB),
       26+    6051    1                                            ADDR(FR_SUMG),
       27+    6052    1                                            ADDR(FR_SUMO),
       28+    6053    1                                            ADDR(FR_SUMP));
       29+    6054    1   DCL FR_SUMX SBIN WORD STATIC SYMDEF INIT(-1);
       30+    6055    1   DCL FR_SUNM (0:7) CHAR(8) STATIC SYMDEF INIT(' '*0);
       31+    6056        /**/
       32+    6057    1   DCL FR_PRCB (0:2) SBIN WORD STATIC SYMDEF INIT(0*0);
       33+    6058    1   DCL FR_PRCG (0:2) SBIN WORD STATIC SYMDEF INIT(0*0);
       34+    6059    1   DCL FR_PRCO (0:2) SBIN WORD STATIC SYMDEF INIT(0*0);
       35+    6060    1   DCL FR_PRCP (0:2) SBIN WORD STATIC SYMDEF INIT(0*0);
       36+    6061    1   DCL FR_SUCT (0:7) SBIN WORD STATIC SYMDEF INIT(0*0);
       37+    6062    1   DCL FR_SUCB (0:7) SBIN WORD STATIC SYMDEF INIT(0*0);
       38+    6063    1   DCL FR_SUCG (0:7) SBIN WORD STATIC SYMDEF INIT(0*0);
       39+    6064    1   DCL FR_SUCO (0:7) SBIN WORD STATIC SYMDEF INIT(0*0);
       40+    6065    1   DCL FR_SUCP (0:7) SBIN WORD STATIC SYMDEF INIT(0*0);
       41+    6066        /**/
       15     6067        %INCLUDE JM_CNTRLD_D;
        1+    6068        /*M* JM_CNTRLD_D - CONTROL DISPLAY ONLY DATA FOR JOB MANAGEMENT */
        2+    6069        /*T***********************************************************/
        3+    6070        /*T*                                                         */
        4+    6071        /*T* Copyright (c) Bull HN Information Systems Inc., 1997    */
        5+    6072        /*T*                                                         */
        6+    6073        /*T***********************************************************/
        7+    6074        /**/
        8+    6075    1   DCL JM_LOCK SBIN STATIC SYMDEF INIT(-1); /* Part. Tbl lock                    */
        9+    6076        /**/
       10+    6077    1   DCL JM_CHNG BIT(16) STATIC SYMDEF INIT('0'B); /* Changed partition bits       */
       11+    6078        /**/
       16     6079        %INCLUDE SS_CNTRLD_D;
        1+    6080        /*M* SS_CNTRLD_D - CONTROL DISPLAY ONLY DATA FOR SCHEDULER */
        2+    6081        /*T***********************************************************/
        3+    6082        /*T*                                                         */
        4+    6083        /*T* Copyright (c) Bull HN Information Systems Inc., 1997    */
        5+    6084        /*T*                                                         */
PL6.E3A0      #001=B_CNTRL_D File=B_CNTRL_D.:E05TSI                              TUE 07/29/97 11:07 Page:3
        6+    6085        /*T***********************************************************/
        7+    6086        /**/
        8+    6087    1   DCL S_CUIS(0:4) SBIN STATIC SYMDEF INIT(0*0);/* # USRS CURRENTLY ON           */
        9+    6088    1   DCL S_MUIS(0:4) SBIN STATIC SYMDEF INIT(0,0,32,32,0);/* MAX USRS ALLOWED ON*/
       10+    6089                                           /* S_MUIS SAVED/RESTORED IN RECOVER BUFFER */
       11+    6090    1   DCL S_CTUIS SBIN STATIC SYMDEF INIT(0); /* TOTAL USRS CURRENTLY ON*/
       12+    6091    1   DCL S_TUIS SBIN STATIC SYMDEF INIT(128); /* TOTAL USERS ALLOWED ON            */
       13+    6092                                           /* S_TUIS SAVED/RESTORED IN RECOVER BUFFER */
       17     6093    1   DCL B_CNTRL_LOW UBIN WORD STATIC SYMDEF;
       18     6094        /**/
       19     6095        %INCLUDE ES_CNTRL_D;
        1+    6096        /*M* ES_CNTRL_D - System Security Parameters set by CONTROL        */
        2+    6097        /*T***********************************************************/
        3+    6098        /*T*                                                         */
        4+    6099        /*T* Copyright (c) Bull HN Information Systems Inc., 1997    */
        5+    6100        /*T*                                                         */
        6+    6101        /*T***********************************************************/
        7+    6102        /**/
        8+    6103        /**/
        9+    6104        /* All variables beginning with ES_LOG determine how or whether
       10+    6105           entries will be made to the security log (:SECLOGyyyymmdd.:SYS). */
       11+    6106        /**/
       12+    6107    1   DCL ES_LOGFILEGRANT UBIN WORD STATIC SYMDEF INIT(0);
       13+    6108                                   /* Determines whether granted file accesses
       14+    6109                                      are to be logged. Applies to all files
       15+    6110                                      on the system.
       16+    6111
       17+    6112                                      0=NO     Don't log any
       18+    6113                                      1=YES    Log all
       19+    6114                                      2=MAYBE  Granted accesses may be logged;
       20+    6115                                               whether to log or not is
       21+    6116                                               determined at a lower level
       22+    6117                                               (packset, acct, or file). MAYBE
       23+    6118                                               not implemented for C00.    */
       24+    6119    1   DCL ES_LOGFILEDENY  UBIN WORD STATIC SYMDEF INIT(0);
       25+    6120                                   /* Determines whether denied file accesses
       26+    6121                                      are to be logged. Applies to all files
PL6.E3A0      #001=B_CNTRL_D File=B_CNTRL_D.:E05TSI                              TUE 07/29/97 11:07 Page:4
       27+    6122                                      on the system.
       28+    6123
       29+    6124                                      0=NO     Don't log any
       30+    6125                                      1=YES    Log all
       31+    6126                                      2=MAYBE  Denied accesses may be logged;
       32+    6127                                               whether to log or not is
       33+    6128                                               determined at a lower level
       34+    6129                                               (packset, acct, or file). MAYBE
       35+    6130                                               not implemented for C00.    */
       36+    6131    1   DCL ES_PRIVMASK     BIT(36) STATIC SYMDEF INIT('777777777777'O);
       37+    6132                                   /* Mask of privilege flags anded with
       38+    6133                                      active privileges before any privilege
       39+    6134                                      set.                                 */
       40+    6135    1   DCL ES_STEPPRIVMASK BIT(36) STATIC SYMDEF INIT('777777777777'O);
       41+    6136                                   /* Mask of privilege flags anded with
       42+    6137                                      active privileges at job step.       */
       43+    6138    1   DCL ES_LOGPRIVCHNG  UBIN WORD STATIC SYMDEF INIT(0);
       44+    6139                                   /* Whether/how privilege changes are to
       45+    6140                                      be logged. Determines the use of
       46+    6141                                      ES_PRIVCHNGMASK.
       47+    6142
       48+    6143                                      0=NONE    Don't log priv changes
       49+    6144                                      1=DENIED  Only log denied attempts
       50+    6145                                      2=GRANTED Only log granted changes
       51+    6146                                      3=ALL     Log both denied and granted */
       52+    6147    1   DCL ES_PRIVCHNGMASK BIT(36) STATIC SYMDEF INIT('0'B);
       53+    6148                                   /* Mask of privilege flags, the use of
       54+    6149                                      which is to be logged.                */
       55+    6150    1   DCL ES_LOGMONSER    UBIN WORD STATIC SYMDEF INIT(0);
       56+    6151                                   /* Whether/how the use of certain monitor
       57+    6152                                      services is to be logged. Determines the
       58+    6153                                      use of ES_MONSERTBL.
       59+    6154
       60+    6155                                      0=NONE    Don't log pmme usage
       61+    6156                                      1=DENIED  Only log denied attempts
       62+    6157                                      2=GRANTED Only log granted usage
       63+    6158                                      3=ALL     Log both denied and granted */
PL6.E3A0      #001=B_CNTRL_D File=B_CNTRL_D.:E05TSI                              TUE 07/29/97 11:07 Page:5
       64+    6159    1   DCL ES_MONSERTBL(0:%MAX_FCG#) BIT(36) STATIC SYMDEF INIT('0'B*0);
       65+    6160                                   /* Table of monitor services, use of which
       66+    6161                                      is to be logged. The index into this
       67+    6162                                      table is determined by FCG category.
       68+    6163                                      index into each entry is determined by
       69+    6164                                      pmme CODE. Equates for FCGs, codes, and
       70+    6165                                      pmmes can be found in UD_EQU_E.      */
       71+    6166    1   DCL ES_LOGSYSACC    UBIN WORD STATIC SYMDEF INIT(0);
       72+    6167                                   /* Log system access via SLUG or PRESCAN.
       73+    6168                                      Each successive level includes the
       74+    6169                                      preceding levels.
       75+    6170
       76+    6171                                      <Lvl 0>  0=NONE     (Don't log any.)
       77+    6172                                      <Lvl 1>  1=FAILEDPW (Account entry
       78+    6173                                                           exists in :HLP,
       79+    6174                                                           but password bad.)
       80+    6175                                      <Lvl 2>  2=FAILEDPWNE (Also includes
       81+    6176                                                           those which were
       82+    6177                                                           formatted correctly
       83+    6178                                                           but failed because
       84+    6179                                                           no entry in :HLP.)
       85+    6180                                      <Lvl 3>  3=FAILED   (Failed for any
       86+    6181                                                           reason.)
       87+    6182                                      <Lvl 4>  4=ALL      (Log all accesses.)*/
       88+    6183    1   DCL ES_LOGSYSEXIT   UBIN WORD STATIC SYMDEF INIT(0);
       89+    6184                                   /* Log system exits.
       90+    6185
       91+    6186                                      0=NONE
       92+    6187                                      1=ALL  */
       93+    6188    1   DCL ES_CLEARMEM     UBIN WORD STATIC SYMDEF INIT(1);
       94+    6189                                   /* 0=NO
       95+    6190                                      1=YES
       96+    6191
       97+    6192                                      If yes, clear memory when released. */
       98+    6193    1   DCL ES_PROTECTSECLOG UBIN WORD STATIC SYMDEF INIT(%(24*60*60*100));
       99+    6194                               /* How long to protect :SECLOGyyyymmdd files.
      100+    6195                                      I.e., the number of days a :SECLOG file
PL6.E3A0      #001=B_CNTRL_D File=B_CNTRL_D.:E05TSI                              TUE 07/29/97 11:07 Page:6
      101+    6196                                      will be restricted to read only access
      102+    6197                                      except for the ELF ghost. This value
      103+    6198                                      is given in clock tics.               */
      104+    6199    1   DCL EL_SECLOGSIZE    UBIN WORD STATIC SYMDEF INIT(262143);
      105+    6200                               /* Amount of granules to which :SECLOGyyyymmdd
      106+    6201                                      may grow before current file is turned over
      107+    6202                                      (:SECLOGyymmddhhmmss) and new file is created.  */
       20     6203        %INCLUDE FM_CNTRL_D;
        1+    6204        /*M*   FM_CNTRL_D  -  File management control data */
        2+    6205        /*T***********************************************************/
        3+    6206        /*T*                                                         */
        4+    6207        /*T* Copyright (c) Bull HN Information Systems Inc., 1997    */
        5+    6208        /*T*                                                         */
        6+    6209        /*T***********************************************************/
        7+    6210        /*X* */
        8+    6211        /**/
        9+    6212        /**/
       10+    6213        /**/
       11+    6214    1   DCL 1 FMC_LIMITS(0:%(%CACHETYPES-1)) STATIC SYMDEF,
       12+    6215    1         2 EXPIRE SBIN INIT(5000,          /* CONTROL EXPIRE TIME                */
       13+    6216    1                            5000,
       14+    6217    1                            10000,
       15+    6218    1                            5000,
       16+    6219    1                            1000,
       17+    6220    1                            1000,
       18+    6221    1                            100,
       19+    6222    1                            50,
       20+    6223    1                            50,
       21+    6224    1                            50,
       22+    6225    1                            0*0),
       23+    6226    1         2 UPLIMIT SBIN          INIT(0*0);/* UPDATE LIMIT FROM CONTROL          */
       24+    6227        /* Flag to change all disk writes to write-and-compare */
       25+    6228    1   DCL FM_WRCMP SBIN STATIC SYMDEF INIT(0); /* Non-zero to write-compare         */
       26+    6229        /* Number of "leap froggers" on disk */
       27+    6230    1   DCL NI_IOLEAPERS UBIN STATIC SYMDEF INIT(262143);
       28+    6231        /**/
       21     6232        %INCLUDE FO_CNTRL_D;
PL6.E3A0      #001=B_CNTRL_D File=B_CNTRL_D.:E05TSI                              TUE 07/29/97 11:07 Page:7
        1+    6233        /*M*   FO_CNTRL_D - CONTROL-able data for the output symbionts. */
        2+    6234        /*T***********************************************************/
        3+    6235        /*T*                                                         */
        4+    6236        /*T* Copyright (c) Bull HN Information Systems Inc., 1997    */
        5+    6237        /*T*                                                         */
        6+    6238        /*T***********************************************************/
        7+    6239        /**/
        8+    6240        %VLR_SYMBINFO      (FPTN=FO_SYMBINFO,GRANSCHED=1,STCLASS="STATIC SYMDEF");
              6241        %LSET LISTDIR='0'B;
              6251    1   DCL 1 FO_SYMBINFO STATIC SYMDEF ALIGNED,2 GRANSCHED# UBIN WORD UNAL INIT(1)/**/,2
              6251            GRANLOW#(0:14)UBIN WORD UNAL INIT(0,
              6252    1   1000,500,400,300,200,100,75,50,30,20,10,5,3,2)/**/,2 STREAMFILEID# CHAR(3)INIT('$$$'
              6252            )/**/,2 * UBIN BYTE
              6253    1   UNAL INIT(0)/**/,2 WATCH# BIT(36)INIT('0'B)/**/,2 HOLDEXPIRE# UBIN INIT(36)/**/,2
              6254    1   *(0:12)UBIN WORD UNAL INIT(0*0)/**/;
        9+    6256        /**/
       10+    6257    1   DCL FO_JOBSTATSAGE UBIN STATIC SYMDEF INIT(3);
       11+    6258                             /* Maximum age in days of :JOBSTATS records to be       */
       12+    6259                             /* kept when the :JOBSTATS file is copied over itself   */
       13+    6260                             /* by GHOST1 at system initialization.                  */
       22     6261        %INCLUDE FR_CNTRL_D;
        1+    6262        /*M* FR_CNTRL_D Include file of symdef inited data - resource management part of B_C
              6262        NTRL_D*/
        2+    6263        /*T***********************************************************/
        3+    6264        /*T*                                                         */
        4+    6265        /*T* Copyright (c) Bull HN Information Systems Inc., 1997    */
        5+    6266        /*T*                                                         */
        6+    6267        /*T***********************************************************/
        7+    6268        /*X*DMC,PLM=6,IND=2,ENU=2,DCI=4,CSU=2,ECU=2,THI=2,DTI=0*/
        8+    6269        /**/
        9+    6270        /*  NOTE:  SOME DATA REFFED IN BOTH FR_CNTRL_R AND FR_DATA_R */
       10+    6271        /**/
       11+    6272        /**/
       12+    6273    1   DCL FR_MEMM (0:4) SBIN WORD STATIC SYMDEF INIT(7000000*5);
       13+    6274        /**/
       14+    6275        /*  DCL FR_PRMT (0:2) SBIN WORD STATIC SYMDEF INIT(0,0,0);  PRMT lives in IG_CNTRLNR
              6275        _D now */
PL6.E3A0      #001=B_CNTRL_D File=B_CNTRL_D.:E05TSI                              TUE 07/29/97 11:07 Page:8
       15+    6276    1   DCL FR_PRMB (0:2) SBIN WORD STATIC SYMDEF INIT(2,4,2);
       16+    6277    1   DCL FR_PRMG (0:2) SBIN WORD STATIC SYMDEF INIT(4,4,4);
       17+    6278    1   DCL FR_PRMO (0:2) SBIN WORD STATIC SYMDEF INIT(1,4,1);
       18+    6279    1   DCL FR_PRMP (0:2) SBIN WORD STATIC SYMDEF INIT(0,0,0);
       19+    6280    1   DCL FR_SUMT (0:7) SBIN WORD STATIC SYMDEF INIT(4*0);
       20+    6281    1   DCL FR_SUMB (0:7) SBIN WORD STATIC SYMDEF INIT(4*0);
       21+    6282    1   DCL FR_SUMG (0:7) SBIN WORD STATIC SYMDEF INIT(1*0);
       22+    6283    1   DCL FR_SUMO (0:7) SBIN WORD STATIC SYMDEF INIT(2*0);
       23+    6284    1   DCL FR_SUMP (0:7) SBIN WORD STATIC SYMDEF INIT(0*0);
       24+    6285        /**/
       23     6286        %INCLUDE FT_CNTRL_D;
        1+    6287        /*M*  FT_CNTRL_D - CONTROLABLE PARAMETERS FOR TAPE FILE MANAGEMENT  */
        2+    6288        /*T***********************************************************/
        3+    6289        /*T*                                                         */
        4+    6290        /*T* Copyright (c) Bull HN Information Systems Inc., 1997    */
        5+    6291        /*T*                                                         */
        6+    6292        /*T***********************************************************/
        7+    6293        /**/
        8+    6294        %INCLUDE FT_SUBS;
        1+    6295        /*M* FT_SUBS - tape file management %SUBs file */
        2+    6296        /*T***********************************************************/
        3+    6297        /*T*                                                         */
        4+    6298        /*T* Copyright (c) Bull HN Information Systems Inc., 1997    */
        5+    6299        /*T*                                                         */
        6+    6300        /*T***********************************************************/
        7+    6301        /*X* MOC,MCL=10 */
        8+    6302
        9+    6303         /***
       10+    6304          *** Tape position values for DDT.POS field.
       11+    6305          ***/
       12+    6306
       13+    6307        %SUB FTP_UND#=0/*FTP_UND#*/;            /* Position undetermined or unstable  */
       14+    6308        %SUB FTP_BOV#=1/*FTP_BOV#*/;            /* At beginning of volume (tape)      */
       15+    6309        %SUB FTP_HDR#=2/*FTP_HDR#*/;            /* If a HDR1 isn't next, we're lost   */
       16+    6310        %SUB FTP_BOD#=3/*FTP_BOD#*/;
              6310            /* At beginning of data; after HDR group and file mark */
       17+    6311        %SUB FTP_EOV#=4/*FTP_EOV#*/;            /* At end of tape after EOV labels    */
PL6.E3A0      #001=B_CNTRL_D File=B_CNTRL_D.:E05TSI                              TUE 07/29/97 11:07 Page:9
       18+    6312        %SUB FTP_CHK#=5/*FTP_CHK#*/;            /* Must check next label to determine */
       19+    6313
       20+    6314         /***
       21+    6315          *** Tape protection values for FT_PROT.
       22+    6316          ***/
       23+    6317
       24+    6318        %SUB FT_UNPROT#=0/*FT_UNPROT#*/;        /* Unprotected                        */
       25+    6319        %SUB FT_SEMIPROT#=1/*FT_SEMIPROT#*/;    /* Semi-protected                     */
       26+    6320        %SUB FT_FULLPROT#=2/*FT_FULLPROT#*/;    /* Fully protected                    */
       27+    6321
       28+    6322         /***
       29+    6323          *** Keyin solicit values for DDT.SOLICIT field.
       30+    6324          ***/
       31+    6325
       32+    6326        %SUB FT_OVERSOL#=1/*FT_OVERSOL#*/;      /* Waiting for OVER keyin             */
       33+    6327        %SUB FT_RINGSOL#=2/*FT_RINGSOL#*/;      /* Waiting for RING keyin             */
       34+    6328        %SUB FT_NOWAYSOL#=3/*FT_NOWAYSOL#*/;    /* Negative response to keyin         */
       35+    6329        %SUB FT_AVRSOL#=4/*FT_AVRSOL#*/;        /* AVR in progress                    */
       36+    6330
       37+    6331         /***
       38+    6332          *** UNSOLKEY_MSG# subs.
       39+    6333          ***/
       40+    6334
       41+    6335        %SUB FT_WAITNONE#=0/*FT_WAITNONE#*/;    /* Not waiting for keyin              */
       42+    6336        %SUB FT_WAITRING#=1/*FT_WAITRING#*/;    /* Waiting for RING keyin             */
       43+    6337        %SUB FT_WAITOVER#=2/*FT_WAITOVER#*/;    /* Waiting for OVER keyin             */
       44+    6338
       45+    6339         /***
       46+    6340          *** Tape file management error code for JIT.ERR: FTx-CODE-SEV.
       47+    6341          ***/
       48+    6342
       49+    6343        %MACRO FT$ERR(ERRNAME=FT$ERR,FCG='0624'O,MID='00'O,CODE=0,SEV=2);
       50+    6344        DCL 1 ERRNAME CONSTANT,
       51+    6345              2 FCGN BIT(12) INIT(FCG) UNAL,
       52+    6346              2 MIDN BIT(6) INIT(MID) UNAL,
       53+    6347              2 MON BIT(1) INIT ('1'B) UNAL,
       54+    6348              2 CODEN UBIN(14) INIT(CODE) UNAL,
PL6.E3A0      #001=B_CNTRL_D File=B_CNTRL_D.:E05TSI                              TUE 07/29/97 11:07 Page:10
       55+    6349              2 SEVN UBIN(3) INIT(SEV) UNAL;
       56+    6350        %MEND;
       57+    6351
       58+    6352         /***
       59+    6353          *** FPOOL buffer use.
       60+    6354          ***/
       61+    6355
       62+    6356        %SUB FT_RBUF1=3/*FT_RBUF1*/;
       63+    6357
       64+    6358         /***
       65+    6359          *** Last operation codes.
       66+    6360          ***/
       67+    6361
       68+    6362        %SUB WHOKNOWSEOP#=0/*WHOKNOWSEOP#*/;
       69+    6363        %SUB READEOP#=1/*READEOP#*/;
       70+    6364        %SUB PRECORDEOP#=2/*PRECORDEOP#*/;
       71+    6365        %SUB WRITEEOP#=3/*WRITEEOP#*/;
       72+    6366
       73+    6367         /***
       74+    6368          *** DCB.TRNC codes.
       75+    6369          ***/
       76+    6370
       77+    6371        %SUB FT_NOTRUNC#=0/*FT_NOTRUNC#*/;      /* DCB not trunced                    */
       78+    6372        %SUB FT_EBTRUNC#=1/*FT_EBTRUNC#*/;      /* Empty buffer trunc                 */
       79+    6373        %SUB FT_FBTRUNC#=2/*FT_FBTRUNC#*/;      /* Full buffer trunc                  */
        9+    6374        /**/
       10+    6375    1   DCL FT_PROT SBIN WORD STATIC SYMDEF INIT(FT_UNPROT#); /* TAPE PROTECTION      */
       11+    6376        /**/
       24     6377        %INCLUDE JM_CNTRL_D;
        1+    6378        /*M*   JM_CNTRL_D - CONTROL-able data for the batch scheduler.     */
        2+    6379        /*T***********************************************************/
        3+    6380        /*T*                                                         */
        4+    6381        /*T* Copyright (c) Bull HN Information Systems Inc., 1997    */
        5+    6382        /*T*                                                         */
        6+    6383        /*T***********************************************************/
        7+    6384        /**/
        8+    6385    1   DCL JM_NPART UBIN(36) STATIC SYMDEF INIT(1); /* # of defined partitions       */
PL6.E3A0      #001=B_CNTRL_D File=B_CNTRL_D.:E05TSI                              TUE 07/29/97 11:07 Page:11
        9+    6386    1   DCL JM_PI SBIN STATIC SYMDEF INIT(3);   /* Default priority increment         */
       10+    6387        /* The system limit on the number of jobs from the same account
       11+    6388           which will be allowed to run concurrently...                    */
       12+    6389    1   DCL JM_MAX1ACCT UBIN WORD STATIC SYMDEF INIT(511);
       13+    6390        /**/
       14+    6391        /*! !*/
       15+    6392        %INCLUDE JM$STRUCT;
        1+    6393        /*M* JM$STRUCT:  Based structures used by Multi-Batch Scheduler.  */
        2+    6394        /*T***********************************************************/
        3+    6395        /*T*                                                         */
        4+    6396        /*T* Copyright (c) Bull HN Information Systems Inc., 1997    */
        5+    6397        /*T*                                                         */
        6+    6398        /*T***********************************************************/
        7+    6399        /*X* DMC,DFC */
        8+    6400        /**/
        9+    6401        /**/
       10+    6402        /**/
       11+    6403        /**/
       12+    6404        /*D* NAME:         JM_IF
       13+    6405             PURPOSE:      To contain job info for MBS
       14+    6406             DESCRIPTION:  This structure contains all of the info which
       15+    6407                           MBS needs to know about a batch job.  It is
       16+    6408                           also passed in the job file FIT from PRESCAN
       17+    6409                           to MBS with some of the fields filled in.
       18+    6410
       19+    6411                           The usual rules apply to INITing the structure,
       20+    6412                           controlled by STCLASS.
       21+    6413
       22+    6414                           The structure can be generated with a COUNT
       23+    6415                           word at the front, which is INITed to the
       24+    6416                           size of the whole thing (including the COUNT
       25+    6417                           word).  FIT=YES turns this on; default is NO.
       26+    6418
       27+    6419                           The last item is JNAME (jobname).  This can
       28+    6420                           be generated as CHAR(31), or as CHAR(FPTN.JNL)
       29+    6421                           (JNL is the length of the jobname).
       30+    6422                           CHAR(31) will be used if
PL6.E3A0      #001=B_CNTRL_D File=B_CNTRL_D.:E05TSI                              TUE 07/29/97 11:07 Page:12
       31+    6423
       32+    6424                                o STCLASS = STATIC
       33+    6425                           or   o STCLASS = CONSTANT
       34+    6426                           or   o STCLASS = EXT
       35+    6427                           or   o STCLASS = AUTO
       36+    6428                           or   o STCLASS = SYMREF and VARILEN = NO
       37+    6429                           or   o STCLASS = ""     and VARILEN = NO
       38+    6430
       39+    6431                           Otherwise CHAR(FPTN.JNL) will be used.
       40+    6432                           The default for VARILEN is NO.
       41+    6433
       42+    6434                           Note that this means you must specify VARILEN=YES
       43+    6435                           in order to generate a variable-length PARAMETER.
       44+    6436                           Note also that if STCLASS = BASED then there is
       45+    6437                           no way to generate a CHAR(31) JNAME.
       46+    6438        */
       47+    6439        %MACRO JM_IF (FPTN=JM_IF,
       48+    6440                 FIT       (YES=1,NO=0)=0,
       49+    6441                 VARILEN   (YES=1,NO=0)=0,
       50+    6442                 STCLASS   = STATIC);
       51+    6443
       52+    6444         %LSET LISTDIR='0'B;
       53+    6445         %LSET LISTEXP='1'B;
       54+    6446         %LSET LISTCOM='0'B;
       55+    6447         %LSET LISTSUB='1'B;
       56+    6448         %LSET STR=CONCAT(TEXTCHAR(STCLASS),'        ');
       57+    6449         %IF (SUBSTR(STR,0,6)='STATIC') OR
       58+    6450         (SUBSTR(STR,0,8)='CONSTANT') OR
       59+    6451         (SUBSTR(STR,0,3)='EXT');
       60+    6452         %LSET INIT=CHARTEXT('INIT');
       61+    6453         %ELSE;
       62+    6454         %LSET INIT=CHARTEXT('/*');
       63+    6455         %ENDIF;
       64+    6456
       65+    6457        DCL 1 FPTN STCLASS ALIGNED,
       66+    6458            %IF FIT=1;
       67+    6459              2 COUNT UBIN %INIT(SIZEW(FPTN))%CHARTEXT('/**/'),
PL6.E3A0      #001=B_CNTRL_D File=B_CNTRL_D.:E05TSI                              TUE 07/29/97 11:07 Page:13
       68+    6460            %ENDIF;
       69+    6461              2 LNK$ PTR %INIT(ADDR(NIL))%CHARTEXT('/**/'),
       70+    6462                                /* LNK$     : link in prio chain. */
       71+    6463
       72+    6464              2 NXTJ$ PTR %INIT(ADDR(NIL))%CHARTEXT('/**/'),
       73+    6465                                /* NXTJ$    : link in partition chain. */
       74+    6466
       75+    6467              2 VRLIST$ PTR %INIT(ADDR(NIL))%CHARTEXT('/**/'),
       76+    6468                                /* VRLIST$  : head of virtual res list. */
       77+    6469
       78+    6470              2 XLNK$ PTR %INIT(ADDR(NIL))%CHARTEXT('/**/'),
       79+    6471                                /* XLNK$    : head of EXCL packset list. */
       80+    6472
       81+    6473              2 SLNK$ PTR %INIT(ADDR(NIL))%CHARTEXT('/**/'),
       82+    6474                                /* SLNK$    : head of shared packset list. */
       83+    6475
       84+    6476              2 U UBIN(18) UNAL %INIT(0)%CHARTEXT('/**/'),
       85+    6477                                /* U        : user number when running. */
       86+    6478
       87+    6479              2 * BIT(2) UNAL %INIT('0'B)%CHARTEXT('/**/'),
       88+    6480
       89+    6481              2 PART BIT(16) UNAL %INIT('0'B)%CHARTEXT('/**/'),
       90+    6482                                /* PART     : 1 bit for each eligible partition. */
       91+    6483
       92+    6484              2 FRS UBIN(9) UNAL %INIT(0)%CHARTEXT('/**/'),
       93+    6485                                /* FRS      : final run status. */
       94+    6486
       95+    6487              2 UNSAT_COUNT UBIN(9) UNAL %INIT(0)%CHARTEXT('/**/'),
       96+    6488                                /* UNSAT_COUNT: number of unsatisfied inter-
       97+    6489                                                job dependancies. */
       98+    6490
       99+    6491              2 PNUM UBIN(9) UNAL %INIT(0)%CHARTEXT('/**/'),
      100+    6492                                /* PNUM     : partition number when running. */
      101+    6493
      102+    6494              2 PI UBIN(9) UNAL %INIT(0)%CHARTEXT('/**/'),
      103+    6495                                /* PI       : prio increment to use. */
      104+    6496
PL6.E3A0      #001=B_CNTRL_D File=B_CNTRL_D.:E05TSI                              TUE 07/29/97 11:07 Page:14
      105+    6497              2 SUBMIT_TIME UBIN(36) %INIT(0)%CHARTEXT('/**/'),
      106+    6498                                /* SUBMIT_TIME: time submitted. */
      107+    6499
      108+    6500              2 START_TIME UBIN(36) %INIT(0)%CHARTEXT('/**/'),
      109+    6501                                /* START_TIME : time started running. */
      110+    6502
      111+    6503              2 OFFIP BIT(36) ALIGNED %INIT('0'B)%CHARTEXT('/**/'),
      112+    6504                                /* OFFIP    : Set by JSD$DEL in the monitor
      113+    6505                                              when it's too late to do the
      114+    6506                                              RERUN keyin on this job, due
      115+    6507                                              to the input symb file having
      116+    6508                                              been deleted. */
      117+    6509
      118+    6510              2 TIM UBIN(36) %INIT(0)%CHARTEXT('/**/'),
      119+    6511                                /* TIM      : max runtime in 1/100 sec units. */
      120+    6512
      121+    6513              2 NJD UBIN(9) UNAL %INIT(0)%CHARTEXT('/**/'),
      122+    6514                                /* NJD      : number of job dependancies
      123+    6515                                              for 'O3' ordering, i.e.,
      124+    6516                                              FOLLOW. */
      125+    6517
      126+    6518              2 PRIO UBIN(9) UNAL %INIT(0)%CHARTEXT('/**/'),
      127+    6519                                /* PRIO     : current priority. */
      128+    6520
      129+    6521              2 FLG,
      130+    6522                3 O1 BIT(1) UNAL %INIT('0'B)%CHARTEXT('/**/'),
      131+    6523                                /* FLG.O1   : ORDER specified. */
      132+    6524
      133+    6525                3 O2 BIT(1) UNAL %INIT('0'B)%CHARTEXT('/**/'),
      134+    6526                                /* FLG.O2   : dependancy variables - not
      135+    6527                                              currently used. */
      136+    6528
      137+    6529                3 O3 BIT(1) UNAL %INIT('0'B)%CHARTEXT('/**/'),
      138+    6530                                /* FLG.O3   : FOLLOW specified. */
      139+    6531
      140+    6532                3 ACC BIT(1) UNAL %INIT('0'B)%CHARTEXT('/**/'),
      141+    6533                                /* FLG.ACC  : ACCOUNT specified. */
PL6.E3A0      #001=B_CNTRL_D File=B_CNTRL_D.:E05TSI                              TUE 07/29/97 11:07 Page:15
      142+    6534
      143+    6535                3 RR BIT(1) UNAL %INIT('1'B)%CHARTEXT('/**/'),
      144+    6536                                /* FLG.RR   : RERUN specified. */
      145+    6537
      146+    6538                3 RR2 BIT(1) UNAL %INIT('0'B)%CHARTEXT('/**/'),
      147+    6539                                /* FLG.RR2  : job being rerun. */
      148+    6540
      149+    6541                3 NPI BIT(1) UNAL %INIT('0'B)%CHARTEXT('/**/'),
      150+    6542                                /* NPI      : don't do prio increment. */
      151+    6543
      152+    6544                3 RA BIT(1) UNAL %INIT('0'B)%CHARTEXT('/**/'),
      153+    6545                                /* RA       : DEFER specified. */
      154+    6546
      155+    6547                3 KRERUN BIT(1) UNAL %INIT('0'B)%CHARTEXT('/**/'),
      156+    6548                                /* KRERUN   : RERUN keyin received. */
      157+    6549
      158+    6550              2 STATUS UBIN(9) UNAL %INIT(0)%CHARTEXT('/**/'),
      159+    6551                                /* STATUS   : job status code. */
      160+    6552
      161+    6553              2 MAXPSN UBIN(9) UNAL %INIT(0)%CHARTEXT('/**/'),
      162+    6554                                /* MAXPSN   : number of entries in job's
      163+    6555                                              packset list. */
      164+    6556
      165+    6557              2 MAXVR UBIN(9) UNAL %INIT(0)%CHARTEXT('/**/'),
      166+    6558                                /* MAXVR    : number of entries in virtual
      167+    6559                                              resource list. */
      168+    6560
      169+    6561              2 SYSID UBIN(18) UNAL %INIT(0)%CHARTEXT('/**/'),
      170+    6562                                /* SYSID    : job's SYSID. */
      171+    6563
      172+    6564              2 ACCT CHAR(8) UNAL %INIT(' ')%CHARTEXT('/**/'),
      173+    6565                                /* ACCT     : ACCOUNT. */
      174+    6566
      175+    6567              2 UNAME CHAR(12) UNAL %INIT(' ')%CHARTEXT('/**/'),
      176+    6568                                /* UNAME    : username of job. */
      177+    6569
      178+    6570              2 WOO CHAR(8) UNAL %INIT(' ')%CHARTEXT('/**/'),
PL6.E3A0      #001=B_CNTRL_D File=B_CNTRL_D.:E05TSI                              TUE 07/29/97 11:07 Page:16
      179+    6571                                /* WOO      : WSN of origin. */
      180+    6572
      181+    6573              2 WSN CHAR(8) UNAL %INIT(' ')%CHARTEXT('/**/'),
      182+    6574                                /* WSN      : WSN to run under. */
      183+    6575
      184+    6576              2 RATIM UBIN(36) %INIT(0)%CHARTEXT('/**/'),
      185+    6577                                /* RATIM    : DEFER time. */
      186+    6578
      187+    6579              2 JDID(0:7),
      188+    6580                                /* JDID     : FOLLOW information. */
      189+    6581
      190+    6582                3 RELATION UBIN(3) UNAL %INIT(0*0)%CHARTEXT('/**/'),
      191+    6583                                /* RELATION : required relation of JDSTEPCC
      192+    6584                                              with STEPCC of FOLLOWed job.
      193+    6585                                              Only for FOLLOW_TYPE = 0. */
      194+    6586
      195+    6587                3 FOLLOW_TYPE UBIN(3) UNAL %INIT(0*0)%CHARTEXT('/**/'),
      196+    6588                                /* FOLLOW_TYPE: for FOLLOW(name(STEPCC...)),
      197+    6589                                                  FOLLOW_TYPE = 0;
      198+    6590                                                for FOLLOW(name(OK)) or
      199+    6591                                                  FOLLOW_TYPE = 1.
      200+    6592                                                    FOLLOW(name(ERROR)) or
      201+    6593                                                  FOLLOW_TYPE = 2.
      202+    6594                                                    FOLLOW(name(ABORT)),
      203+    6595                                                  FOLLOW_TYPE = 3.
      204+    6596                                                for FOLLOW,
      205+    6597                                                  FOLLOW_TYPE = 4. */
      206+    6598
      207+    6599                3 * UBIN(11) UNAL %INIT(0*0)%CHARTEXT('/**/'),
      208+    6600
      209+    6601                3 SATISFIED BIT(1) UNAL %INIT('0'B*0)%CHARTEXT('/**/'),
      210+    6602                                /* SATISFIED: set if FOLLOW condition
      211+    6603                                              has been satisfied. */
      212+    6604
      213+    6605                3 SYSID UBIN(18) UNAL %INIT(0*0)%CHARTEXT('/**/'),
      214+    6606                                /* SYSID    : SYSID of FOLLOWed job. */
      215+    6607
PL6.E3A0      #001=B_CNTRL_D File=B_CNTRL_D.:E05TSI                              TUE 07/29/97 11:07 Page:17
      216+    6608              2 JDSTEPCC(0:7) UBIN(9) UNAL %INIT(0*0)%CHARTEXT('/**/'),
      217+    6609                                /* JDSTEPCC : STEPCC limit value which,
      218+    6610                                              together with JDID.RELATION,
      219+    6611                                              and the STEPCC of the FOLLOWed
      220+    6612                                              job, determines whether the
      221+    6613                                              FOLLOWer runs or is deleted.
      222+    6614                                              Only for FOLLOW_TYPE = 0. */
      223+    6615
      224+    6616              2 RRT(0:11) UBIN(18) UNAL %INIT(0*12)%CHARTEXT('/**/'),
      225+    6617                                /* RRT      : table of requirement counts
      226+    6618                                              for resources, indexed by
      227+    6619                                              JM$RIT.VNUM. */
      228+    6620
      229+    6621              2 ORIGINATOR_MODE UBIN(4) UNAL %INIT(0)%CHARTEXT('/**/'),
      230+    6622                                /* ORIGINATOR_MODE: from FS$JOBORIG. */
      231+    6623
      232+    6624              2 ORIGINATOR_PORT,
      233+    6625                                /* ORIGINATOR_PORT: from FS$JOBORIG. */
      234+    6626                3 * UBIN %INIT(0)%CHARTEXT('/**/'),
      235+    6627                3 * UBIN %INIT(0)%CHARTEXT('/**/'),
      236+    6628                3 * UBIN %INIT(0)%CHARTEXT('/**/'),
      237+    6629
      238+    6630              2 * UBIN %INIT(0)%CHARTEXT('/**/'),
      239+    6631              2 * UBIN %INIT(0)%CHARTEXT('/**/'),
      240+    6632              2 * UBIN %INIT(0)%CHARTEXT('/**/'),
      241+    6633
      242+    6634              2 JNL UBIN BYTE CALIGNED %INIT(0)%CHARTEXT('/**/'),
      243+    6635                                /* JNL      : number of significant chars
      244+    6636                                              in JNAME. */
      245+    6637
      246+    6638         %IF ((SUBSTR(STR,0,6)='STATIC') OR
      247+    6639         (SUBSTR(STR,0,8)='CONSTANT') OR
      248+    6640         (SUBSTR(STR,0,6)='AUTO') OR
      249+    6641         (SUBSTR(STR,0,3)='EXT')) OR
      250+    6642         (((SUBSTR(STR,0,6)='      ') OR
      251+    6643           (SUBSTR(STR,0,6)='SYMREF')) AND VARILEN=0);
      252+    6644              2 JNAME CHAR(31) CALIGNED %INIT(' ')%CHARTEXT('/**/');
PL6.E3A0      #001=B_CNTRL_D File=B_CNTRL_D.:E05TSI                              TUE 07/29/97 11:07 Page:18
      253+    6645                                /* JNAME    : JOBNAME. */
      254+    6646
      255+    6647         %ELSE;
      256+    6648              2 JNAME CHAR(FPTN.JNL) CALIGNED;
      257+    6649         %ENDIF;
      258+    6650        %MEND;
      259+    6651        /**/
      260+    6652        /**/
      261+    6653        /*D* NAME:         JM_SN
      262+    6654             PURPOSE:      To define SN (packset) information for MBS
      263+    6655             DESCRIPTION:  This structure contains the information about
      264+    6656                           a single packset.  When present in MBS tables,
      265+    6657                           it is of type MBS and contains a link; when
      266+    6658                           present in a JM_SNLIST, it is of type LIST
      267+    6659                           and contains no link. */
      268+    6660        %MACRO JM_SN (FPTN=JM_SN,LVL=1,LAST=";",ARRAY="",
      269+    6661                 TYP       (MBS=1,LIST=2)=1,
      270+    6662                 STCLASS   = STATIC);
      271+    6663
      272+    6664         %LSET LISTDIR='0'B;
      273+    6665         %LSET LISTEXP='1'B;
      274+    6666         %LSET LISTCOM='0'B;
      275+    6667         %LSET LISTSUB='1'B;
      276+    6668         %LSET STR=CONCAT(TEXTCHAR(STCLASS),'        ');
      277+    6669         %IF (SUBSTR(STR,0,6)='STATIC') OR
      278+    6670         (SUBSTR(STR,0,8)='CONSTANT') OR
      279+    6671         (SUBSTR(STR,0,3)='EXT');
      280+    6672         %LSET INIT=CHARTEXT('INIT');
      281+    6673         %ELSE;
      282+    6674         %LSET INIT=CHARTEXT('/*');
      283+    6675         %ENDIF;
      284+    6676
      285+    6677             /*!* VP Y */
      286+    6678         %IF LVL=1;
      287+    6679        DCL 1 FPTN STCLASS ALIGNED,
      288+    6680         %ELSE;
      289+    6681            %LVL FPTN ARRAY ALIGNED,
PL6.E3A0      #001=B_CNTRL_D File=B_CNTRL_D.:E05TSI                              TUE 07/29/97 11:07 Page:19
      290+    6682         %ENDIF;
      291+    6683             /*!* VP N */
      292+    6684
      293+    6685              %(LVL+1) TXT CHAR(6) CALIGNED %INIT(' '*0)%CHARTEXT('/**/'),
      294+    6686                                /* TXT      : the packset name.                     */
      295+    6687
      296+    6688              %(LVL+1) FLGS,
      297+    6689                                /* FLGS     : attribute flags.                      */
      298+    6690
      299+    6691                %(LVL+2) PUB BIT(1) UNAL %INIT('0'B*0)%CHARTEXT('/**/'),
      300+    6692                                /* PUB      : public usage.                         */
      301+    6693
      302+    6694                %(LVL+2) EXCL BIT(1) UNAL %INIT('0'B*0)%CHARTEXT('/**/'),
      303+    6695                                /* EXCL     : exclusive usage.                      */
      304+    6696
      305+    6697            %IF TYP=1; /* MBS */
      306+    6698
      307+    6699                %(LVL+2) * BIT(7) UNAL %INIT('0'B*0)%CHARTEXT('/**/'),
      308+    6700
      309+    6701              %(LVL+1) * UBIN BYTE UNAL %INIT(0*0)%CHARTEXT('/**/'),
      310+    6702
      311+    6703              %(LVL+1) NXT$ PTR %INIT(ADDR(NIL)*0)%CHARTEXT('/**/') LAST
      312+    6704                                /* NXT$     : link in chain.                        */
      313+    6705
      314+    6706            %ELSE;     /* LIST */
      315+    6707
      316+    6708              %(LVL+1) * BIT(4) UNAL %INIT('0'B*0)%CHARTEXT('/**/'),
      317+    6709
      318+    6710              %(LVL+1) DISP UBIN(3) UNAL %INIT(0*0)%CHARTEXT('/**/') LAST
      319+    6711                                /* DISP     : Flag internal to PRESCAN */
      320+    6712
      321+    6713            %ENDIF;
      322+    6714        %MEND;
      323+    6715        /**/
      324+    6716        /**/
      325+    6717        /*D* NAME:         JM_SNLIST
      326+    6718             PURPOSE:      To generate a list of JM_SN entries
PL6.E3A0      #001=B_CNTRL_D File=B_CNTRL_D.:E05TSI                              TUE 07/29/97 11:07 Page:20
      327+    6719             DESCRIPTION:  This structure is used by PRESCAN to build
      328+    6720                           a table of JM_SN entries, to put into the
      329+    6721                           job file FIT.  If FIT is specified as YES,
      330+    6722                           then a count word COUNT is generated for
      331+    6723                           use on the M$CLOSE. */
      332+    6724        %MACRO JM_SNLIST (FPTN=JM_SNLIST,
      333+    6725                 FIT       (YES=1,NO=0)=0,
      334+    6726                 ARRAY     ="",
      335+    6727                 STCLASS   = STATIC);
      336+    6728
      337+    6729         %LSET LISTDIR='0'B;
      338+    6730         %LSET LISTEXP='1'B;
      339+    6731         %LSET LISTCOM='0'B;
      340+    6732         %LSET LISTSUB='1'B;
      341+    6733         %LSET STR=CONCAT(TEXTCHAR(STCLASS),'        ');
      342+    6734         %IF (SUBSTR(STR,0,6)='STATIC') OR
      343+    6735         (SUBSTR(STR,0,8)='CONSTANT') OR
      344+    6736         (SUBSTR(STR,0,3)='EXT');
      345+    6737         %LSET INIT=CHARTEXT('INIT');
      346+    6738         %ELSE;
      347+    6739         %LSET INIT=CHARTEXT('/*');
      348+    6740         %ENDIF;
      349+    6741
      350+    6742        DCL 1 FPTN STCLASS ALIGNED,
      351+    6743            %IF FIT=1;
      352+    6744              2 COUNT UBIN %INIT(SIZEW(FPTN))%CHARTEXT('/**/'),
      353+    6745            %ENDIF;
      354+    6746
      355+    6747              %JM_SN (FPTN=SN,LVL=2,TYP=LIST,ARRAY=ARRAY,STCLASS=STCLASS);
      356+    6748        %MEND;
      357+    6749        /**/
      358+    6750        /**/
      359+    6751        /*D* NAME:         JM_RES
      360+    6752             PURPOSE:      To define resource information for MBS
      361+    6753             DESCRIPTION:  This structure contains the information
      362+    6754                           describing a single resource requirement.
      363+    6755                           When present in MBS tables, it is of type
PL6.E3A0      #001=B_CNTRL_D File=B_CNTRL_D.:E05TSI                              TUE 07/29/97 11:07 Page:21
      364+    6756                           MBS, and contains a link; when present
      365+    6757                           in a JM_RESLIST, it is of type LIST
      366+    6758                           and contains no link. */
      367+    6759        %MACRO JM_RES (FPTN=JM_RES,LVL=1,LAST=";",ARRAY="",
      368+    6760                 TYP       (MBS=1,LIST=2)=1,
      369+    6761                 STCLASS   = STATIC);
      370+    6762
      371+    6763         %LSET LISTDIR='0'B;
      372+    6764         %LSET LISTEXP='1'B;
      373+    6765         %LSET LISTCOM='0'B;
      374+    6766         %LSET LISTSUB='1'B;
      375+    6767         %LSET STR=CONCAT(TEXTCHAR(STCLASS),'        ');
      376+    6768         %IF (SUBSTR(STR,0,6)='STATIC') OR
      377+    6769         (SUBSTR(STR,0,8)='CONSTANT') OR
      378+    6770         (SUBSTR(STR,0,3)='EXT');
      379+    6771         %LSET INIT=CHARTEXT('INIT');
      380+    6772         %ELSE;
      381+    6773         %LSET INIT=CHARTEXT('/*');
      382+    6774         %ENDIF;
      383+    6775
      384+    6776             /*!* VP Y */
      385+    6777         %IF LVL=1;
      386+    6778        DCL 1 FPTN ARRAY STCLASS ALIGNED,
      387+    6779         %ELSE;
      388+    6780            %LVL FPTN ARRAY ALIGNED,
      389+    6781         %ENDIF;
      390+    6782             /*!* VP N */
      391+    6783
      392+    6784              %(LVL+1) TYPE CHAR(2) UNAL %INIT(' '*0)%CHARTEXT('/**/'),
      393+    6785                                /* TYPE     : Resource type.                        */
      394+    6786
      395+    6787              %(LVL+1) VNUM CHAR(2) UNAL %INIT(' '*0)%CHARTEXT('/**/'),
      396+    6788                                /* VNUM     : Virtual resource number.              */
      397+    6789
      398+    6790              %(LVL+1) VNUMB REDEF VNUM UBIN HALF HALIGNED,
      399+    6791                                /* VNUMB    : ubin redef of VNUM for PRESCAN.       */
      400+    6792
PL6.E3A0      #001=B_CNTRL_D File=B_CNTRL_D.:E05TSI                              TUE 07/29/97 11:07 Page:22
      401+    6793              %(LVL+1) ATTRS BIT(18) UNAL %INIT('0'B*0)%CHARTEXT('/**/'),
      402+    6794                                /* ATTRS    : Requested attrs.                      */
      403+    6795
      404+    6796            %IF TYP = 1; /* MBS */
      405+    6797
      406+    6798              %(LVL+1) NUM UBIN HALF UNAL %INIT(0*0)%CHARTEXT('/**/'),
      407+    6799                                /* NUM      : Number of 'em.                        */
      408+    6800
      409+    6801              %(LVL+1) NXT$ PTR %INIT(ADDR(NIL)*0)%CHARTEXT('/**/') LAST
      410+    6802                                /* NXT$     : link in chain.                        */
      411+    6803
      412+    6804            %ELSE;     /* LIST */
      413+    6805
      414+    6806              %(LVL+1) NUM UBIN HALF UNAL %INIT(0*0)%CHARTEXT('/**/') LAST
      415+    6807
      416+    6808            %ENDIF;
      417+    6809        %MEND;
      418+    6810        /**/
      419+    6811        /**/
      420+    6812        /*D* NAME:         JM_RESLIST
      421+    6813             PURPOSE:      To generate a list of JM_RES entries.
      422+    6814             DESCRIPTION:  Bears same relationship to JM_RES as JM_SNLIST
      423+    6815                           does to JM_SN. */
      424+    6816        %MACRO JM_RESLIST (FPTN=JM_RESLIST,
      425+    6817                 FIT       (YES=1,NO=0)=0,
      426+    6818                 ARRAY     ="",
      427+    6819                 STCLASS   = STATIC);
      428+    6820
      429+    6821         %LSET LISTDIR='0'B;
      430+    6822         %LSET LISTEXP='1'B;
      431+    6823         %LSET LISTCOM='0'B;
      432+    6824         %LSET LISTSUB='1'B;
      433+    6825         %LSET STR=CONCAT(TEXTCHAR(STCLASS),'        ');
      434+    6826         %IF (SUBSTR(STR,0,6)='STATIC') OR
      435+    6827         (SUBSTR(STR,0,8)='CONSTANT') OR
      436+    6828         (SUBSTR(STR,0,3)='EXT');
      437+    6829         %LSET INIT=CHARTEXT('INIT');
PL6.E3A0      #001=B_CNTRL_D File=B_CNTRL_D.:E05TSI                              TUE 07/29/97 11:07 Page:23
      438+    6830         %ELSE;
      439+    6831         %LSET INIT=CHARTEXT('/*');
      440+    6832         %ENDIF;
      441+    6833
      442+    6834        DCL 1 FPTN STCLASS ALIGNED,
      443+    6835            %IF FIT=1;
      444+    6836              2 COUNT UBIN %INIT(SIZEW(FPTN))%CHARTEXT('/**/'),
      445+    6837            %ENDIF;
      446+    6838
      447+    6839              %JM_RES (FPTN=RES,LVL=2,TYP=LIST,ARRAY=ARRAY,STCLASS=STCLASS);
      448+    6840        %MEND;
      449+    6841        /**/
      450+    6842        /**/
      451+    6843        /*D* NAME:         JM_PART
      452+    6844             PURPOSE:      To contain partition info for MBS
      453+    6845             DESCRIPTION:  Each partition has one of these structures,
      454+    6846                           containing the information pertinant to that
      455+    6847                           partition. */
      456+    6848        %MACRO JM_PART (FPTN=JM_PART,STCLASS=STATIC,LVL=1,LAST=";");
      457+    6849
      458+    6850         %LSET LISTDIR='0'B;
      459+    6851         %LSET LISTEXP='1'B;
      460+    6852         %LSET LISTCOM='0'B;
      461+    6853         %LSET LISTSUB='1'B;
      462+    6854         %LSET STR=CONCAT(TEXTCHAR(STCLASS),'        ');
      463+    6855         %IF (SUBSTR(STR,0,6)='STATIC') OR
      464+    6856         (SUBSTR(STR,0,8)='CONSTANT') OR
      465+    6857         (SUBSTR(STR,0,3)='EXT');
      466+    6858         %LSET INIT=CHARTEXT('INIT');
      467+    6859         %ELSE;
      468+    6860         %LSET INIT=CHARTEXT('/*');
      469+    6861         %ENDIF;
      470+    6862
      471+    6863             /*!* VP Y */
      472+    6864         %IF LVL=1;
      473+    6865        DCL 1 FPTN STCLASS ALIGNED,
      474+    6866         %ELSE;
PL6.E3A0      #001=B_CNTRL_D File=B_CNTRL_D.:E05TSI                              TUE 07/29/97 11:07 Page:24
      475+    6867            %LVL FPTN ALIGNED,
      476+    6868         %ENDIF;
      477+    6869             /*!* VP N */
      478+    6870
      479+    6871              %(LVL+1) TL UBIN %INIT(0)%CHARTEXT('/**/'),
      480+    6872                                /* TL       : Lower time limit (1/100 sec)          */
      481+    6873
      482+    6874              %(LVL+1) TU UBIN %INIT(9999999999)%CHARTEXT('/**/'),
      483+    6875                                /* TU       : Upper time limit                      */
      484+    6876
      485+    6877              %(LVL+1) QUAN UBIN %INIT(500000)%CHARTEXT('/**/'),
      486+    6878                                /* QUAN     : Quantum in microseconds               */
      487+    6879
      488+    6880              %(LVL+1) MAX UBIN BYTE UNAL %INIT(2)%CHARTEXT('/**/'),
      489+    6881                                /* MAX      : Max # jobs allowed in this partition  */
      490+    6882
      491+    6883              %(LVL+1) CUR UBIN BYTE UNAL %INIT(0)%CHARTEXT('/**/'),
      492+    6884                                /* CUR      : Current # jobs....                    */
      493+    6885
      494+    6886              %(LVL+1) CPTOT UBIN HALF HALIGNED %INIT(0)%CHARTEXT('/**/'),
      495+    6887                                /* CPTOT    : Total jobs run in this partition
      496+    6888                                              with current partition definitions.   */
      497+    6889
      498+    6890              %(LVL+1) TOT UBIN HALF HALIGNED %INIT(0)%CHARTEXT('/**/'),
      499+    6891                                /* TOT      : Total jobs run in this part.          */
      500+    6892
      501+    6893              %(LVL+1) XPRIO UBIN BYTE UNAL %INIT(1)%CHARTEXT('/**/'),
      502+    6894                                /* XPRIO    : Base execution prio.                  */
      503+    6895
      504+    6896              %(LVL+1) FLG,
      505+    6897                                /* FLG      : control flags.                        */
      506+    6898
      507+    6899                %(LVL+2) * BIT(8) UNAL %INIT('0'B)%CHARTEXT('/**/'),
      508+    6900
      509+    6901                %(LVL+2) LOCK BIT(1) UNAL %INIT('0'B)%CHARTEXT('/**/'),
      510+    6902                                /* LOCK     : partition is locked.                  */
      511+    6903
PL6.E3A0      #001=B_CNTRL_D File=B_CNTRL_D.:E05TSI                              TUE 07/29/97 11:07 Page:25
      512+    6904              %(LVL+1) * UBIN(27) UNAL %INIT(0)%CHARTEXT('/**/'),
      513+    6905
      514+    6906              %(LVL+1) MAX1ACCT UBIN BYTE UNAL %INIT(511)%CHARTEXT('/**/'),
      515+    6907                                /* MAX1ACCT : max # jobs from any single
      516+    6908                                              account that can run in this
      517+    6909                                              partition.                            */
      518+    6910
      519+    6911              %(LVL+1) JOB$ PTR %INIT(ADDR(NIL))%CHARTEXT('/**/'),
      520+    6912                                /* JOB$     : MBS pointer to job's JM$IF            */
      521+    6913
      522+    6914              %(LVL+1) RMAX (0:11) UBIN(18) UNAL %INIT(511,4,4,0*0)%CHARTEXT('/**/'),
      523+    6915                                /* RMAX     : Maximum resources allowed, indexed
      524+    6916                                              as for JM_IF.RRT.                     */
      525+    6917
      526+    6918              %(LVL+1) RMIN (0:11) UBIN(18) UNAL %INIT(0*0)%CHARTEXT('/**/') LAST
      527+    6919                                /* RMIN     : Minimum resources allowed.            */
      528+    6920        %MEND;
      529+    6921        /**/
      530+    6922        /**/
      531+    6923        /*D* NAME:         JM_CITE
      532+    6924             PURPOSE:      To provide a structure for events passed to
      533+    6925                           MBS
      534+    6926             DESCRIPTION:  Events passed to MBS from the outside world
      535+    6927                           use this structure.  Currently, all of these
      536+    6928                           events take the form of an JM_CITE written to
      537+    6929                           MBS thru the CSCG.  In particular, any
      538+    6930                           message written thru CSCG to MBS is assumed
      539+    6931                           to take this form unless it comes from KEYIN
      540+    6932                           (in which case it's a keyin).
      541+    6933
      542+    6934                           Depending on the event being cited, the stucture
      543+    6935                           can take the various forms generated according
      544+    6936                           to TYP.
      545+    6937        */
      546+    6938        %MACRO JM_CITE (FPTN=JM_CITE,LVL=1,LAST=";",
      547+    6939                 TYP       (JOB=1)=1,
      548+    6940                 COD       = 0,
PL6.E3A0      #001=B_CNTRL_D File=B_CNTRL_D.:E05TSI                              TUE 07/29/97 11:07 Page:26
      549+    6941                 STCLASS   = STATIC);
      550+    6942
      551+    6943         %LSET LISTDIR='0'B;
      552+    6944         %LSET LISTEXP='1'B;
      553+    6945         %LSET LISTCOM='0'B;
      554+    6946         %LSET LISTSUB='1'B;
      555+    6947         %LSET STR=CONCAT(TEXTCHAR(STCLASS),'        ');
      556+    6948         %IF (SUBSTR(STR,0,6)='STATIC') OR
      557+    6949         (SUBSTR(STR,0,8)='CONSTANT') OR
      558+    6950         (SUBSTR(STR,0,3)='EXT');
      559+    6951         %LSET INIT=CHARTEXT('INIT');
      560+    6952         %ELSE;
      561+    6953         %LSET INIT=CHARTEXT('/*');
      562+    6954         %ENDIF;
      563+    6955
      564+    6956             /*!* VP Y */
      565+    6957         %IF LVL=1;
      566+    6958        DCL 1 FPTN STCLASS ALIGNED,
      567+    6959         %ELSE;
      568+    6960            %LVL FPTN ALIGNED,
      569+    6961         %ENDIF;
      570+    6962             /*!* VP N */
      571+    6963
      572+    6964              %(LVL+1) CODE UBIN HALF HALIGNED %INIT(COD*0)%CHARTEXT('/**/'),
      573+    6965                                /* CODE     : JMEV_XXXX#; identifies the event
      574+    6966                                              being cited. */
      575+    6967
      576+    6968            %IF TYP=1; /* General JOB/SYSID structure used for many events */
      577+    6969
      578+    6970              %(LVL+1) SYSID UBIN HALF HALIGNED %INIT(0*0)%CHARTEXT('/**/'),
      579+    6971                                /* SYSID    : the SYSID of the selected job.        */
      580+    6972
      581+    6973              %(LVL+1) SUBCODE UBIN %INIT(0*0)%CHARTEXT('/**/'),
      582+    6974                                /* SUBCODE  : further information.                  */
      583+    6975
      584+    6976              %(LVL+1) RECOVERED BIT(1) UNAL %INIT('0'B*0)%CHARTEXT('/**/'),
      585+    6977                                /* RECOVERED: set if event generated by
PL6.E3A0      #001=B_CNTRL_D File=B_CNTRL_D.:E05TSI                              TUE 07/29/97 11:07 Page:27
      586+    6978                                              MBS recovery.                         */
      587+    6979
      588+    6980              %(LVL+1) * BIT(27) UNAL %INIT('0'B*0)%CHARTEXT('/**/'),
      589+    6981
      590+    6982              %(LVL+1) ACCT CHAR(8) UNAL %INIT(' '*0)%CHARTEXT('/**/'),
      591+    6983                                /* ACCT     : account involved (e.g. for
      592+    6984                                              cancel).                              */
      593+    6985
      594+    6986              %(LVL+1) JOFF_INFO REDEF ACCT,
      595+    6987                                /* JOFF_INFO: additional information for
      596+    6988                                              the "job off" event.                  */
      597+    6989
      598+    6990
      599+    6991                %(LVL+2) STATUS UBIN,
      600+    6992                                /* STATUS   : Status of exiting job.
      601+    6993                                              Assumed = %FIN_COMPLETED# for
      602+    6994                                              real JOFF events.  Filled in
      603+    6995                                              with %MBS_xxxx for internally
      604+    6996                                              generated (faked) JOFF events.
      605+    6997                                              See JMR$CHECK_JD.                     */
      606+    6998
      607+    6999                %(LVL+2) FRS UBIN LAST
      608+    7000                                /* FRS      : Final-Run-Status
      609+    7001                                              of exiting job.                       */
      610+    7002
      611+    7003            %ENDIF;
      612+    7004        %MEND;
      613+    7005        /**/
      614+    7006        /**/
      615+    7007        /*D* NAME:         JM_EVENT
      616+    7008             PURPOSE:      To define the structure of an event on the MBS
      617+    7009                           event queue.
      618+    7010             DESCRIPTION:  Each event on MBS's internal queue has this
      619+    7011                           structure. */
      620+    7012        %MACRO JM_EVENT (FPTN=JM_EVENT,LVL=1,LAST=";",COD=0,ARRAY="",STCLASS=STATIC);
      621+    7013
      622+    7014         %LSET LISTDIR='0'B;
PL6.E3A0      #001=B_CNTRL_D File=B_CNTRL_D.:E05TSI                              TUE 07/29/97 11:07 Page:28
      623+    7015         %LSET LISTEXP='1'B;
      624+    7016         %LSET LISTCOM='0'B;
      625+    7017         %LSET LISTSUB='1'B;
      626+    7018         %LSET STR=CONCAT(TEXTCHAR(STCLASS),'        ');
      627+    7019         %IF (SUBSTR(STR,0,6)='STATIC') OR
      628+    7020         (SUBSTR(STR,0,8)='CONSTANT') OR
      629+    7021         (SUBSTR(STR,0,3)='EXT');
      630+    7022         %LSET INIT=CHARTEXT('INIT');
      631+    7023         %ELSE;
      632+    7024         %LSET INIT=CHARTEXT('/*');
      633+    7025         %ENDIF;
      634+    7026
      635+    7027             /*!* VP Y */
      636+    7028         %IF LVL=1;
      637+    7029        DCL 1 FPTN ARRAY STCLASS ALIGNED,
      638+    7030         %ELSE;
      639+    7031            %LVL FPTN ARRAY ALIGNED,
      640+    7032         %ENDIF;
      641+    7033        %LSET LVL2=%(LVL+1);
      642+    7034             /*!* VP N */
      643+    7035
      644+    7036              %(LVL+1) LNK$ PTR UNAL %INIT(ADDR(NIL)*0)%CHARTEXT('/**/'),
      645+    7037                                /* LNK$     : link in chain.                        */
      646+    7038
      647+    7039              %(LVL+1) CODE UBIN HALF UNAL %INIT(COD*0)%CHARTEXT('/**/'),
      648+    7040                                /* CODE     : event code (JMEV_XXXX#).              */
      649+    7041
      650+    7042              %(LVL+1) ENDAC UBIN HALF UNAL %INIT(0*0)%CHARTEXT('/**/'),
      651+    7043                                /* ENDAC    : code (JMEA_XXXX#) indicating
      652+    7044                                              what action to take after
      653+    7045                                              processing the event.                 */
      654+    7046
      655+    7047              %(LVL+1) CITE$ PTR %INIT(ADDR(NIL)*0)%CHARTEXT('/**/'),
      656+    7048                                /* CITE$    : points to JM_CITE frame for
      657+    7049                                              this event.                           */
      658+    7050
      659+    7051              %JM_CITE (FPTN=CITE,LVL=LVL2,LAST=LAST,STCLASS=STCLASS);
PL6.E3A0      #001=B_CNTRL_D File=B_CNTRL_D.:E05TSI                              TUE 07/29/97 11:07 Page:29
      660+    7052                                /* CITE     : provides a place to put
      661+    7053                                              the JM_CITE info directly
      662+    7054                                              in the event frame.                   */
      663+    7055
      664+    7056        %MEND;
      665+    7057        /**/
      666+    7058        /**/
      667+    7059        /*D* NAME:         JM_KEYIN
      668+    7060             PURPOSE:      To define the structure of KEYINs passed to
      669+    7061                           MBS.
      670+    7062             DESCRIPTION:  This structure defines the KEYINs received
      671+    7063                           by MBS. */
      672+    7064        %MACRO JM_KEYIN (FPTN=JM_KEYIN,LVL=1,LAST=";",
      673+    7065                 TYP       (PRIO=1,RERUN=2,ALL=3)=1,
      674+    7066                 KIN       = 0,
      675+    7067                 STCLASS   = STATIC);
      676+    7068
      677+    7069         %LSET LISTDIR='0'B;
      678+    7070         %LSET LISTEXP='1'B;
      679+    7071         %LSET LISTCOM='0'B;
      680+    7072         %LSET LISTSUB='1'B;
      681+    7073         %LSET STR=CONCAT(TEXTCHAR(STCLASS),'        ');
      682+    7074         %IF (SUBSTR(STR,0,6)='STATIC') OR
      683+    7075         (SUBSTR(STR,0,8)='CONSTANT') OR
      684+    7076         (SUBSTR(STR,0,3)='EXT');
      685+    7077         %LSET INIT=CHARTEXT('INIT');
      686+    7078         %ELSE;
      687+    7079         %LSET INIT=CHARTEXT('/*');
      688+    7080         %ENDIF;
      689+    7081
      690+    7082             /*!* VP Y */
      691+    7083         %IF LVL=1;
      692+    7084        DCL 1 FPTN STCLASS ALIGNED,
      693+    7085         %ELSE;
      694+    7086            %LVL FPTN ALIGNED,
      695+    7087         %ENDIF;
      696+    7088             /*!* VP N */
PL6.E3A0      #001=B_CNTRL_D File=B_CNTRL_D.:E05TSI                              TUE 07/29/97 11:07 Page:30
      697+    7089
      698+    7090              %(LVL+1) KIN# UBIN HALF UNAL %INIT(KIN)%CHARTEXT('/**/'),
      699+    7091                                /* KIN#     : the keyin code (KEY_XXXX#).           */
      700+    7092
      701+    7093              %(LVL+1) CADDR BIT(18) UNAL %INIT('0'B)%CHARTEXT('/**/'),
      702+    7094                                /* CADDR    : the address of the console
      703+    7095                                              which issued the keyin.               */
      704+    7096
      705+    7097              %(LVL+1) SYSID UBIN HALF UNAL %INIT(0)%CHARTEXT('/**/'),
      706+    7098                                /* SYSID    : SYSID of job involved (if
      707+    7099                                              applicable).                          */
      708+    7100
      709+    7101              %(LVL+1) * UBIN BYTE UNAL %INIT(0)%CHARTEXT('/**/'),
      710+    7102
      711+    7103              %(LVL+1) CPRIO UBIN BYTE UNAL %INIT(0)%CHARTEXT('/**/'),
      712+    7104                                /* CPRIO    : max prio that this console
      713+    7105                                              can put jobs up to                    */
      714+    7106
      715+    7107              %(LVL+1) WSN CHAR(8) UNAL %INIT(' ')%CHARTEXT('/**/'),
      716+    7108                                /* WSN      : WSN of issuing console; used
      717+    7109                                              ensure that the console is allowed
      718+    7110                                              to muck with the selected job.        */
      719+    7111
      720+    7112            %IF TYP=1;    /*PRIO*/
      721+    7113              %(LVL+1) PRIO UBIN %INIT(0)%CHARTEXT('/**/') LAST
      722+    7114                                /* PRIO     : desired new prio for SYSID.           */
      723+    7115
      724+    7116            %ELSEIF TYP=2;/*RERUN*/
      725+    7117              %(LVL+1) SELECTION SBIN %INIT(0)%CHARTEXT('/**/') LAST
      726+    7118                                /* SELECTION: = 0 ---> !RERUN SYSID
      727+    7119                                              < 0 ---> !RERUN ALL
      728+    7120                                              > 0 ---> !ZAP                         */
      729+    7121
      730+    7122            %ELSEIF TYP=3;/*'ALL' E.G. DELETEIALL, PRIOIALL */
      731+    7123              %(LVL+1) ACCT CHAR(8) %INIT(' ')%CHARTEXT('/**/'),
      732+    7124                                /* ACCT     : if nonblank, restricts the
      733+    7125                                              operation to this account.            */
PL6.E3A0      #001=B_CNTRL_D File=B_CNTRL_D.:E05TSI                              TUE 07/29/97 11:07 Page:31
      734+    7126
      735+    7127              %(LVL+1) NEWPRIO SBIN %INIT(0)%CHARTEXT('/**/'),
      736+    7128                                /* NEWPRIO  : for PRIOALL, the desired prio.        */
      737+    7129
      738+    7130              %(LVL+1) OLDPRIO SBIN %INIT(0)%CHARTEXT('/**/') LAST
      739+    7131                                /* OLDPRIO  : for PRIOALL, -1 means operate
      740+    7132                                              on all jobs, else operate only
      741+    7133                                              on those at this prio.                */
      742+    7134
      743+    7135            %ENDIF;
      744+    7136        %MEND;
       16+    7137        /*!$R!*/
       17+    7138    1   DCL 1 JM_PT STATIC SYMDEF,
       18+    7139              %JM_PART (FPTN=PT1 ,LVL=2,LAST=",",STCLASS="STATIC SYMDEF");
              7140         %LSET LISTDIR='0'B;
              7156    1       2 PT1 ALIGNED,
              7159    1         3 TL UBIN INIT(0)/**/,
              7161    1         3 TU UBIN INIT(9999999999)/**/,
              7163    1         3 QUAN UBIN INIT(500000)/**/,
              7165    1         3 MAX UBIN BYTE UNAL INIT(2)/**/,
              7167    1         3 CUR UBIN BYTE UNAL INIT(0)/**/,
              7169    1         3 CPTOT UBIN HALF HALIGNED INIT(0)/**/,
              7172    1         3 TOT UBIN HALF HALIGNED INIT(0)/**/,
              7174    1         3 XPRIO UBIN BYTE UNAL INIT(1)/**/,
              7176    1         3 FLG,
              7178    1           4 * BIT(8) UNAL INIT('0'B)/**/,
              7179    1           4 LOCK BIT(1) UNAL INIT('0'B)/**/,
              7181    1         3 * UBIN(27) UNAL INIT(0)/**/,
              7182    1         3 MAX1ACCT UBIN BYTE UNAL INIT(511)/**/,
              7186    1         3 JOB$ PTR INIT(ADDR(NIL))/**/,
              7188    1         3 RMAX (0:11) UBIN(18) UNAL INIT(511,4,4,0*0)/**/,
              7191    1         3 RMIN (0:11) UBIN(18) UNAL INIT(0*0)/**/ ,
       19+    7194              %JM_PART (FPTN=PT2 ,LVL=2,LAST=",",STCLASS="STATIC SYMDEF");
              7195         %LSET LISTDIR='0'B;
              7211    1       2 PT2 ALIGNED,
              7214    1         3 TL UBIN INIT(0)/**/,
              7216    1         3 TU UBIN INIT(9999999999)/**/,
PL6.E3A0      #001=B_CNTRL_D File=B_CNTRL_D.:E05TSI                              TUE 07/29/97 11:07 Page:32
              7218    1         3 QUAN UBIN INIT(500000)/**/,
              7220    1         3 MAX UBIN BYTE UNAL INIT(2)/**/,
              7222    1         3 CUR UBIN BYTE UNAL INIT(0)/**/,
              7224    1         3 CPTOT UBIN HALF HALIGNED INIT(0)/**/,
              7227    1         3 TOT UBIN HALF HALIGNED INIT(0)/**/,
              7229    1         3 XPRIO UBIN BYTE UNAL INIT(1)/**/,
              7231    1         3 FLG,
              7233    1           4 * BIT(8) UNAL INIT('0'B)/**/,
              7234    1           4 LOCK BIT(1) UNAL INIT('0'B)/**/,
              7236    1         3 * UBIN(27) UNAL INIT(0)/**/,
              7237    1         3 MAX1ACCT UBIN BYTE UNAL INIT(511)/**/,
              7241    1         3 JOB$ PTR INIT(ADDR(NIL))/**/,
              7243    1         3 RMAX (0:11) UBIN(18) UNAL INIT(511,4,4,0*0)/**/,
              7246    1         3 RMIN (0:11) UBIN(18) UNAL INIT(0*0)/**/ ,
       20+    7249              %JM_PART (FPTN=PT3 ,LVL=2,LAST=",",STCLASS="STATIC SYMDEF");
              7250         %LSET LISTDIR='0'B;
              7266    1       2 PT3 ALIGNED,
              7269    1         3 TL UBIN INIT(0)/**/,
              7271    1         3 TU UBIN INIT(9999999999)/**/,
              7273    1         3 QUAN UBIN INIT(500000)/**/,
              7275    1         3 MAX UBIN BYTE UNAL INIT(2)/**/,
              7277    1         3 CUR UBIN BYTE UNAL INIT(0)/**/,
              7279    1         3 CPTOT UBIN HALF HALIGNED INIT(0)/**/,
              7282    1         3 TOT UBIN HALF HALIGNED INIT(0)/**/,
              7284    1         3 XPRIO UBIN BYTE UNAL INIT(1)/**/,
              7286    1         3 FLG,
              7288    1           4 * BIT(8) UNAL INIT('0'B)/**/,
              7289    1           4 LOCK BIT(1) UNAL INIT('0'B)/**/,
              7291    1         3 * UBIN(27) UNAL INIT(0)/**/,
              7292    1         3 MAX1ACCT UBIN BYTE UNAL INIT(511)/**/,
              7296    1         3 JOB$ PTR INIT(ADDR(NIL))/**/,
              7298    1         3 RMAX (0:11) UBIN(18) UNAL INIT(511,4,4,0*0)/**/,
              7301    1         3 RMIN (0:11) UBIN(18) UNAL INIT(0*0)/**/ ,
       21+    7304              %JM_PART (FPTN=PT4 ,LVL=2,LAST=",",STCLASS="STATIC SYMDEF");
              7305         %LSET LISTDIR='0'B;
              7321    1       2 PT4 ALIGNED,
              7324    1         3 TL UBIN INIT(0)/**/,
PL6.E3A0      #001=B_CNTRL_D File=B_CNTRL_D.:E05TSI                              TUE 07/29/97 11:07 Page:33
              7326    1         3 TU UBIN INIT(9999999999)/**/,
              7328    1         3 QUAN UBIN INIT(500000)/**/,
              7330    1         3 MAX UBIN BYTE UNAL INIT(2)/**/,
              7332    1         3 CUR UBIN BYTE UNAL INIT(0)/**/,
              7334    1         3 CPTOT UBIN HALF HALIGNED INIT(0)/**/,
              7337    1         3 TOT UBIN HALF HALIGNED INIT(0)/**/,
              7339    1         3 XPRIO UBIN BYTE UNAL INIT(1)/**/,
              7341    1         3 FLG,
              7343    1           4 * BIT(8) UNAL INIT('0'B)/**/,
              7344    1           4 LOCK BIT(1) UNAL INIT('0'B)/**/,
              7346    1         3 * UBIN(27) UNAL INIT(0)/**/,
              7347    1         3 MAX1ACCT UBIN BYTE UNAL INIT(511)/**/,
              7351    1         3 JOB$ PTR INIT(ADDR(NIL))/**/,
              7353    1         3 RMAX (0:11) UBIN(18) UNAL INIT(511,4,4,0*0)/**/,
              7356    1         3 RMIN (0:11) UBIN(18) UNAL INIT(0*0)/**/ ,
       22+    7359              %JM_PART (FPTN=PT5 ,LVL=2,LAST=",",STCLASS="STATIC SYMDEF");
              7360         %LSET LISTDIR='0'B;
              7376    1       2 PT5 ALIGNED,
              7379    1         3 TL UBIN INIT(0)/**/,
              7381    1         3 TU UBIN INIT(9999999999)/**/,
              7383    1         3 QUAN UBIN INIT(500000)/**/,
              7385    1         3 MAX UBIN BYTE UNAL INIT(2)/**/,
              7387    1         3 CUR UBIN BYTE UNAL INIT(0)/**/,
              7389    1         3 CPTOT UBIN HALF HALIGNED INIT(0)/**/,
              7392    1         3 TOT UBIN HALF HALIGNED INIT(0)/**/,
              7394    1         3 XPRIO UBIN BYTE UNAL INIT(1)/**/,
              7396    1         3 FLG,
              7398    1           4 * BIT(8) UNAL INIT('0'B)/**/,
              7399    1           4 LOCK BIT(1) UNAL INIT('0'B)/**/,
              7401    1         3 * UBIN(27) UNAL INIT(0)/**/,
              7402    1         3 MAX1ACCT UBIN BYTE UNAL INIT(511)/**/,
              7406    1         3 JOB$ PTR INIT(ADDR(NIL))/**/,
              7408    1         3 RMAX (0:11) UBIN(18) UNAL INIT(511,4,4,0*0)/**/,
              7411    1         3 RMIN (0:11) UBIN(18) UNAL INIT(0*0)/**/ ,
       23+    7414              %JM_PART (FPTN=PT6 ,LVL=2,LAST=",",STCLASS="STATIC SYMDEF");
              7415         %LSET LISTDIR='0'B;
              7431    1       2 PT6 ALIGNED,
PL6.E3A0      #001=B_CNTRL_D File=B_CNTRL_D.:E05TSI                              TUE 07/29/97 11:07 Page:34
              7434    1         3 TL UBIN INIT(0)/**/,
              7436    1         3 TU UBIN INIT(9999999999)/**/,
              7438    1         3 QUAN UBIN INIT(500000)/**/,
              7440    1         3 MAX UBIN BYTE UNAL INIT(2)/**/,
              7442    1         3 CUR UBIN BYTE UNAL INIT(0)/**/,
              7444    1         3 CPTOT UBIN HALF HALIGNED INIT(0)/**/,
              7447    1         3 TOT UBIN HALF HALIGNED INIT(0)/**/,
              7449    1         3 XPRIO UBIN BYTE UNAL INIT(1)/**/,
              7451    1         3 FLG,
              7453    1           4 * BIT(8) UNAL INIT('0'B)/**/,
              7454    1           4 LOCK BIT(1) UNAL INIT('0'B)/**/,
              7456    1         3 * UBIN(27) UNAL INIT(0)/**/,
              7457    1         3 MAX1ACCT UBIN BYTE UNAL INIT(511)/**/,
              7461    1         3 JOB$ PTR INIT(ADDR(NIL))/**/,
              7463    1         3 RMAX (0:11) UBIN(18) UNAL INIT(511,4,4,0*0)/**/,
              7466    1         3 RMIN (0:11) UBIN(18) UNAL INIT(0*0)/**/ ,
       24+    7469              %JM_PART (FPTN=PT7 ,LVL=2,LAST=",",STCLASS="STATIC SYMDEF");
              7470         %LSET LISTDIR='0'B;
              7486    1       2 PT7 ALIGNED,
              7489    1         3 TL UBIN INIT(0)/**/,
              7491    1         3 TU UBIN INIT(9999999999)/**/,
              7493    1         3 QUAN UBIN INIT(500000)/**/,
              7495    1         3 MAX UBIN BYTE UNAL INIT(2)/**/,
              7497    1         3 CUR UBIN BYTE UNAL INIT(0)/**/,
              7499    1         3 CPTOT UBIN HALF HALIGNED INIT(0)/**/,
              7502    1         3 TOT UBIN HALF HALIGNED INIT(0)/**/,
              7504    1         3 XPRIO UBIN BYTE UNAL INIT(1)/**/,
              7506    1         3 FLG,
              7508    1           4 * BIT(8) UNAL INIT('0'B)/**/,
              7509    1           4 LOCK BIT(1) UNAL INIT('0'B)/**/,
              7511    1         3 * UBIN(27) UNAL INIT(0)/**/,
              7512    1         3 MAX1ACCT UBIN BYTE UNAL INIT(511)/**/,
              7516    1         3 JOB$ PTR INIT(ADDR(NIL))/**/,
              7518    1         3 RMAX (0:11) UBIN(18) UNAL INIT(511,4,4,0*0)/**/,
              7521    1         3 RMIN (0:11) UBIN(18) UNAL INIT(0*0)/**/ ,
       25+    7524              %JM_PART (FPTN=PT8 ,LVL=2,LAST=",",STCLASS="STATIC SYMDEF");
              7525         %LSET LISTDIR='0'B;
PL6.E3A0      #001=B_CNTRL_D File=B_CNTRL_D.:E05TSI                              TUE 07/29/97 11:07 Page:35
              7541    1       2 PT8 ALIGNED,
              7544    1         3 TL UBIN INIT(0)/**/,
              7546    1         3 TU UBIN INIT(9999999999)/**/,
              7548    1         3 QUAN UBIN INIT(500000)/**/,
              7550    1         3 MAX UBIN BYTE UNAL INIT(2)/**/,
              7552    1         3 CUR UBIN BYTE UNAL INIT(0)/**/,
              7554    1         3 CPTOT UBIN HALF HALIGNED INIT(0)/**/,
              7557    1         3 TOT UBIN HALF HALIGNED INIT(0)/**/,
              7559    1         3 XPRIO UBIN BYTE UNAL INIT(1)/**/,
              7561    1         3 FLG,
              7563    1           4 * BIT(8) UNAL INIT('0'B)/**/,
              7564    1           4 LOCK BIT(1) UNAL INIT('0'B)/**/,
              7566    1         3 * UBIN(27) UNAL INIT(0)/**/,
              7567    1         3 MAX1ACCT UBIN BYTE UNAL INIT(511)/**/,
              7571    1         3 JOB$ PTR INIT(ADDR(NIL))/**/,
              7573    1         3 RMAX (0:11) UBIN(18) UNAL INIT(511,4,4,0*0)/**/,
              7576    1         3 RMIN (0:11) UBIN(18) UNAL INIT(0*0)/**/ ,
       26+    7579              %JM_PART (FPTN=PT9 ,LVL=2,LAST=",",STCLASS="STATIC SYMDEF");
              7580         %LSET LISTDIR='0'B;
              7596    1       2 PT9 ALIGNED,
              7599    1         3 TL UBIN INIT(0)/**/,
              7601    1         3 TU UBIN INIT(9999999999)/**/,
              7603    1         3 QUAN UBIN INIT(500000)/**/,
              7605    1         3 MAX UBIN BYTE UNAL INIT(2)/**/,
              7607    1         3 CUR UBIN BYTE UNAL INIT(0)/**/,
              7609    1         3 CPTOT UBIN HALF HALIGNED INIT(0)/**/,
              7612    1         3 TOT UBIN HALF HALIGNED INIT(0)/**/,
              7614    1         3 XPRIO UBIN BYTE UNAL INIT(1)/**/,
              7616    1         3 FLG,
              7618    1           4 * BIT(8) UNAL INIT('0'B)/**/,
              7619    1           4 LOCK BIT(1) UNAL INIT('0'B)/**/,
              7621    1         3 * UBIN(27) UNAL INIT(0)/**/,
              7622    1         3 MAX1ACCT UBIN BYTE UNAL INIT(511)/**/,
              7626    1         3 JOB$ PTR INIT(ADDR(NIL))/**/,
              7628    1         3 RMAX (0:11) UBIN(18) UNAL INIT(511,4,4,0*0)/**/,
              7631    1         3 RMIN (0:11) UBIN(18) UNAL INIT(0*0)/**/ ,
       27+    7634              %JM_PART (FPTN=PT10,LVL=2,LAST=",",STCLASS="STATIC SYMDEF");
PL6.E3A0      #001=B_CNTRL_D File=B_CNTRL_D.:E05TSI                              TUE 07/29/97 11:07 Page:36
              7635         %LSET LISTDIR='0'B;
              7651    1       2 PT10 ALIGNED,
              7654    1         3 TL UBIN INIT(0)/**/,
              7656    1         3 TU UBIN INIT(9999999999)/**/,
              7658    1         3 QUAN UBIN INIT(500000)/**/,
              7660    1         3 MAX UBIN BYTE UNAL INIT(2)/**/,
              7662    1         3 CUR UBIN BYTE UNAL INIT(0)/**/,
              7664    1         3 CPTOT UBIN HALF HALIGNED INIT(0)/**/,
              7667    1         3 TOT UBIN HALF HALIGNED INIT(0)/**/,
              7669    1         3 XPRIO UBIN BYTE UNAL INIT(1)/**/,
              7671    1         3 FLG,
              7673    1           4 * BIT(8) UNAL INIT('0'B)/**/,
              7674    1           4 LOCK BIT(1) UNAL INIT('0'B)/**/,
              7676    1         3 * UBIN(27) UNAL INIT(0)/**/,
              7677    1         3 MAX1ACCT UBIN BYTE UNAL INIT(511)/**/,
              7681    1         3 JOB$ PTR INIT(ADDR(NIL))/**/,
              7683    1         3 RMAX (0:11) UBIN(18) UNAL INIT(511,4,4,0*0)/**/,
              7686    1         3 RMIN (0:11) UBIN(18) UNAL INIT(0*0)/**/ ,
       28+    7689              %JM_PART (FPTN=PT11,LVL=2,LAST=",",STCLASS="STATIC SYMDEF");
              7690         %LSET LISTDIR='0'B;
              7706    1       2 PT11 ALIGNED,
              7709    1         3 TL UBIN INIT(0)/**/,
              7711    1         3 TU UBIN INIT(9999999999)/**/,
              7713    1         3 QUAN UBIN INIT(500000)/**/,
              7715    1         3 MAX UBIN BYTE UNAL INIT(2)/**/,
              7717    1         3 CUR UBIN BYTE UNAL INIT(0)/**/,
              7719    1         3 CPTOT UBIN HALF HALIGNED INIT(0)/**/,
              7722    1         3 TOT UBIN HALF HALIGNED INIT(0)/**/,
              7724    1         3 XPRIO UBIN BYTE UNAL INIT(1)/**/,
              7726    1         3 FLG,
              7728    1           4 * BIT(8) UNAL INIT('0'B)/**/,
              7729    1           4 LOCK BIT(1) UNAL INIT('0'B)/**/,
              7731    1         3 * UBIN(27) UNAL INIT(0)/**/,
              7732    1         3 MAX1ACCT UBIN BYTE UNAL INIT(511)/**/,
              7736    1         3 JOB$ PTR INIT(ADDR(NIL))/**/,
              7738    1         3 RMAX (0:11) UBIN(18) UNAL INIT(511,4,4,0*0)/**/,
              7741    1         3 RMIN (0:11) UBIN(18) UNAL INIT(0*0)/**/ ,
PL6.E3A0      #001=B_CNTRL_D File=B_CNTRL_D.:E05TSI                              TUE 07/29/97 11:07 Page:37
       29+    7744              %JM_PART (FPTN=PT12,LVL=2,LAST=",",STCLASS="STATIC SYMDEF");
              7745         %LSET LISTDIR='0'B;
              7761    1       2 PT12 ALIGNED,
              7764    1         3 TL UBIN INIT(0)/**/,
              7766    1         3 TU UBIN INIT(9999999999)/**/,
              7768    1         3 QUAN UBIN INIT(500000)/**/,
              7770    1         3 MAX UBIN BYTE UNAL INIT(2)/**/,
              7772    1         3 CUR UBIN BYTE UNAL INIT(0)/**/,
              7774    1         3 CPTOT UBIN HALF HALIGNED INIT(0)/**/,
              7777    1         3 TOT UBIN HALF HALIGNED INIT(0)/**/,
              7779    1         3 XPRIO UBIN BYTE UNAL INIT(1)/**/,
              7781    1         3 FLG,
              7783    1           4 * BIT(8) UNAL INIT('0'B)/**/,
              7784    1           4 LOCK BIT(1) UNAL INIT('0'B)/**/,
              7786    1         3 * UBIN(27) UNAL INIT(0)/**/,
              7787    1         3 MAX1ACCT UBIN BYTE UNAL INIT(511)/**/,
              7791    1         3 JOB$ PTR INIT(ADDR(NIL))/**/,
              7793    1         3 RMAX (0:11) UBIN(18) UNAL INIT(511,4,4,0*0)/**/,
              7796    1         3 RMIN (0:11) UBIN(18) UNAL INIT(0*0)/**/ ,
       30+    7799              %JM_PART (FPTN=PT13,LVL=2,LAST=",",STCLASS="STATIC SYMDEF");
              7800         %LSET LISTDIR='0'B;
              7816    1       2 PT13 ALIGNED,
              7819    1         3 TL UBIN INIT(0)/**/,
              7821    1         3 TU UBIN INIT(9999999999)/**/,
              7823    1         3 QUAN UBIN INIT(500000)/**/,
              7825    1         3 MAX UBIN BYTE UNAL INIT(2)/**/,
              7827    1         3 CUR UBIN BYTE UNAL INIT(0)/**/,
              7829    1         3 CPTOT UBIN HALF HALIGNED INIT(0)/**/,
              7832    1         3 TOT UBIN HALF HALIGNED INIT(0)/**/,
              7834    1         3 XPRIO UBIN BYTE UNAL INIT(1)/**/,
              7836    1         3 FLG,
              7838    1           4 * BIT(8) UNAL INIT('0'B)/**/,
              7839    1           4 LOCK BIT(1) UNAL INIT('0'B)/**/,
              7841    1         3 * UBIN(27) UNAL INIT(0)/**/,
              7842    1         3 MAX1ACCT UBIN BYTE UNAL INIT(511)/**/,
              7846    1         3 JOB$ PTR INIT(ADDR(NIL))/**/,
              7848    1         3 RMAX (0:11) UBIN(18) UNAL INIT(511,4,4,0*0)/**/,
PL6.E3A0      #001=B_CNTRL_D File=B_CNTRL_D.:E05TSI                              TUE 07/29/97 11:07 Page:38
              7851    1         3 RMIN (0:11) UBIN(18) UNAL INIT(0*0)/**/ ,
       31+    7854              %JM_PART (FPTN=PT14,LVL=2,LAST=",",STCLASS="STATIC SYMDEF");
              7855         %LSET LISTDIR='0'B;
              7871    1       2 PT14 ALIGNED,
              7874    1         3 TL UBIN INIT(0)/**/,
              7876    1         3 TU UBIN INIT(9999999999)/**/,
              7878    1         3 QUAN UBIN INIT(500000)/**/,
              7880    1         3 MAX UBIN BYTE UNAL INIT(2)/**/,
              7882    1         3 CUR UBIN BYTE UNAL INIT(0)/**/,
              7884    1         3 CPTOT UBIN HALF HALIGNED INIT(0)/**/,
              7887    1         3 TOT UBIN HALF HALIGNED INIT(0)/**/,
              7889    1         3 XPRIO UBIN BYTE UNAL INIT(1)/**/,
              7891    1         3 FLG,
              7893    1           4 * BIT(8) UNAL INIT('0'B)/**/,
              7894    1           4 LOCK BIT(1) UNAL INIT('0'B)/**/,
              7896    1         3 * UBIN(27) UNAL INIT(0)/**/,
              7897    1         3 MAX1ACCT UBIN BYTE UNAL INIT(511)/**/,
              7901    1         3 JOB$ PTR INIT(ADDR(NIL))/**/,
              7903    1         3 RMAX (0:11) UBIN(18) UNAL INIT(511,4,4,0*0)/**/,
              7906    1         3 RMIN (0:11) UBIN(18) UNAL INIT(0*0)/**/ ,
       32+    7909              %JM_PART (FPTN=PT15,LVL=2,LAST=",",STCLASS="STATIC SYMDEF");
              7910         %LSET LISTDIR='0'B;
              7926    1       2 PT15 ALIGNED,
              7929    1         3 TL UBIN INIT(0)/**/,
              7931    1         3 TU UBIN INIT(9999999999)/**/,
              7933    1         3 QUAN UBIN INIT(500000)/**/,
              7935    1         3 MAX UBIN BYTE UNAL INIT(2)/**/,
              7937    1         3 CUR UBIN BYTE UNAL INIT(0)/**/,
              7939    1         3 CPTOT UBIN HALF HALIGNED INIT(0)/**/,
              7942    1         3 TOT UBIN HALF HALIGNED INIT(0)/**/,
              7944    1         3 XPRIO UBIN BYTE UNAL INIT(1)/**/,
              7946    1         3 FLG,
              7948    1           4 * BIT(8) UNAL INIT('0'B)/**/,
              7949    1           4 LOCK BIT(1) UNAL INIT('0'B)/**/,
              7951    1         3 * UBIN(27) UNAL INIT(0)/**/,
              7952    1         3 MAX1ACCT UBIN BYTE UNAL INIT(511)/**/,
              7956    1         3 JOB$ PTR INIT(ADDR(NIL))/**/,
PL6.E3A0      #001=B_CNTRL_D File=B_CNTRL_D.:E05TSI                              TUE 07/29/97 11:07 Page:39
              7958    1         3 RMAX (0:11) UBIN(18) UNAL INIT(511,4,4,0*0)/**/,
              7961    1         3 RMIN (0:11) UBIN(18) UNAL INIT(0*0)/**/ ,
       33+    7964              %JM_PART (FPTN=PT16,LVL=2,LAST=";",STCLASS="STATIC SYMDEF");
              7965         %LSET LISTDIR='0'B;
              7981    1       2 PT16 ALIGNED,
              7984    1         3 TL UBIN INIT(0)/**/,
              7986    1         3 TU UBIN INIT(9999999999)/**/,
              7988    1         3 QUAN UBIN INIT(500000)/**/,
              7990    1         3 MAX UBIN BYTE UNAL INIT(2)/**/,
              7992    1         3 CUR UBIN BYTE UNAL INIT(0)/**/,
              7994    1         3 CPTOT UBIN HALF HALIGNED INIT(0)/**/,
              7997    1         3 TOT UBIN HALF HALIGNED INIT(0)/**/,
              7999    1         3 XPRIO UBIN BYTE UNAL INIT(1)/**/,
              8001    1         3 FLG,
              8003    1           4 * BIT(8) UNAL INIT('0'B)/**/,
              8004    1           4 LOCK BIT(1) UNAL INIT('0'B)/**/,
              8006    1         3 * UBIN(27) UNAL INIT(0)/**/,
              8007    1         3 MAX1ACCT UBIN BYTE UNAL INIT(511)/**/,
              8011    1         3 JOB$ PTR INIT(ADDR(NIL))/**/,
              8013    1         3 RMAX (0:11) UBIN(18) UNAL INIT(511,4,4,0*0)/**/,
              8016    1         3 RMIN (0:11) UBIN(18) UNAL INIT(0*0)/**/ ;
       25     8019        %INCLUDE JS_CNTRL_D;
        1+    8020        /*M*  JS_CNTRL_D   EXTENDED LIMITS FOR EXIT CONTROL  */
        2+    8021        /*T***********************************************************/
        3+    8022        /*T*                                                         */
        4+    8023        /*T* Copyright (c) Bull HN Information Systems Inc., 1997    */
        5+    8024        /*T*                                                         */
        6+    8025        /*T***********************************************************/
        7+    8026
        8+    8027        /*   SYSGEN VALUES FOR EXTENDED LIMITS ON EXIT CONTROL */
        9+    8028
       10+    8029        %SUB U_ETIME=5;
       11+    8030        %SUB A_ETIME=9999;
       12+    8031        %SUB D_ETIME=5;
       13+    8032        %SUB C_ETIME=5;
       14+    8033
       15+    8034        %SUB U_ETMDPRM=5;
PL6.E3A0      #001=B_CNTRL_D File=B_CNTRL_D.:E05TSI                              TUE 07/29/97 11:07 Page:40
       16+    8035        %SUB A_ETMDPRM=10;
       17+    8036        %SUB D_ETMDPRM=15;
       18+    8037        %SUB C_ETMDPRM=20;
       19+    8038
       20+    8039        %SUB U_EPRDPRM=5;
       21+    8040        %SUB A_EPRDPRM=10;
       22+    8041        %SUB D_EPRDPRM=15;
       23+    8042        %SUB C_EPRDPRM=20;
       24+    8043
       25+    8044        %SUB U_EREMCPO=5;
       26+    8045        %SUB A_EREMCPO=10;
       27+    8046        %SUB D_EREMCPO=15;
       28+    8047        %SUB C_EREMCPO=20;
       29+    8048
       30+    8049        %SUB U_EREMLO=5;
       31+    8050        %SUB A_EREMLO=10;
       32+    8051        %SUB D_EREMLO=15;
       33+    8052        %SUB C_EREMLO=20;
       34+    8053
       35+    8054        %SUB U_EREMDO=5;
       36+    8055        %SUB A_EREMDO=10;
       37+    8056        %SUB D_EREMDO=15;
       38+    8057        %SUB C_EREMDO=20;
       39+    8058
       40+    8059
       41+    8060    1   DCL 1 JS_TIME(0:3) STATIC SYMDEF SBIN INIT(
       42+    8061    1         C_ETIME,
       43+    8062    1         D_ETIME,
       44+    8063    1         A_ETIME,
       45+    8064    1         U_ETIME);
       46+    8065    1   DCL 1 JS_TMDPRM(0:3) STATIC SYMDEF SBIN INIT(
       47+    8066    1         C_ETMDPRM,
       48+    8067    1         D_ETMDPRM,
       49+    8068    1         A_ETMDPRM,
       50+    8069    1         U_ETMDPRM);
       51+    8070    1   DCL 1 JS_PRDPRM(0:3) STATIC SYMDEF SBIN INIT(
       52+    8071    1         C_EPRDPRM,
PL6.E3A0      #001=B_CNTRL_D File=B_CNTRL_D.:E05TSI                              TUE 07/29/97 11:07 Page:41
       53+    8072    1         D_EPRDPRM,
       54+    8073    1         A_EPRDPRM,
       55+    8074    1         U_EPRDPRM);
       56+    8075    1   DCL 1 JS_REMCPO(0:3) STATIC SYMDEF SBIN INIT(
       57+    8076    1         C_EREMCPO,
       58+    8077    1         D_EREMCPO,
       59+    8078    1         A_EREMCPO,
       60+    8079    1         U_EREMCPO);
       61+    8080    1   DCL 1 JS_REMLO(0:3) STATIC SYMDEF SBIN INIT(
       62+    8081    1         C_EREMLO,
       63+    8082    1         D_EREMLO,
       64+    8083    1         A_EREMLO,
       65+    8084    1         U_EREMLO);
       66+    8085    1   DCL 1 JS_REMDO(0:3) STATIC SYMDEF SBIN INIT(
       67+    8086    1         C_EREMDO,
       68+    8087    1         D_EREMDO,
       69+    8088    1         A_EREMDO,
       70+    8089    1         U_EREMDO);
       71+    8090        /* Flag for whether or not to consider all run units in the system
       72+    8091           as sharable:  0 = use attributes in HEAD record, 1 = try to share
       73+    8092           all run units, 2 = don't automatically share anything.         */
       74+    8093    1   DCL JS_SHARE_ALL SBIN WORD STATIC SYMDEF INIT(0);
       26     8094        %INCLUDE JZ_CNTRL_D;
        1+    8095        /*M* JZ_CNTRL_D - CONTROLABLE ITEMS FOR FCG JZ   */
        2+    8096        /*T***********************************************************/
        3+    8097        /*T*                                                         */
        4+    8098        /*T* Copyright (c) Bull HN Information Systems Inc., 1997    */
        5+    8099        /*T*                                                         */
        6+    8100        /*T***********************************************************/
        7+    8101        /**/
        8+    8102    1   DCL JZ_RETIM UBIN WORD STATIC SYMDEF INIT(900); /* SECONDS OF RETENTION TIME  */
       27     8103        %INCLUDE MM_CNTRL_D;
        1+    8104        /*M* MM_CNTRL_D - Memory management control parameters */
        2+    8105        /*T***********************************************************/
        3+    8106        /*T*                                                         */
        4+    8107        /*T* Copyright (c) Bull HN Information Systems Inc., 1997    */
        5+    8108        /*T*                                                         */
PL6.E3A0      #001=B_CNTRL_D File=B_CNTRL_D.:E05TSI                              TUE 07/29/97 11:07 Page:42
        6+    8109        /*T***********************************************************/
        7+    8110
        8+    8111        /* Threshold of free pages to print out saturation message */
        9+    8112    1   DCL MM_FREETHRESH UBIN STATIC SYMDEF INIT(256);
       10+    8113
       11+    8114        /* Threshold of free pages to not allow anymore users */
       12+    8115    1   DCL MM_NOUSTHRESH UBIN STATIC SYMDEF INIT(50);
       13+    8116
       14+    8117        /* Relative priorities of pages retained which are not currently in
       15+    8118           use. Smaller numbers imply category is more important. Numbers
       16+    8119           should be between 1 and 100. */
       17+    8120    1   DCL MM_AUTO_PRIO UBIN STATIC SYMDEF INIT (20);
       18+    8121    1   DCL MM_CACHE_PRIO UBIN STATIC SYMDEF INIT (10);
       19+    8122    1   DCL MM_CG_PRIO UBIN STATIC SYMDEF INIT (80);
       20+    8123
       28     8124        %INCLUDE SS_CNTRL_D;
        1+    8125        /*M*  SS_CNTRL_D   SCHEDULER CONTROL DATA DEFINITIONS */
        2+    8126        /*T***********************************************************/
        3+    8127        /*T*                                                         */
        4+    8128        /*T* Copyright (c) Bull HN Information Systems Inc., 1997    */
        5+    8129        /*T*                                                         */
        6+    8130        /*T***********************************************************/
        7+    8131        /*                                                                    */
        8+    8132        /*                                                                    */
        9+    8133        /* !R! */
       10+    8134        /*                                                                    */
       11+    8135    1   DCL S_PRIOB(0:4) SBIN STATIC SYMDEF INIT(1*0); /* BASE EXECUTION PRIORITY*/
       12+    8136    1   DCL SL_MF(0:4) SBIN STATIC SYMDEF INIT(10*0); /* MASTER FNC LIMIT, BY MODE*/
       13+    8137    1   DCL SL_MFU(0:4) SBIN STATIC SYMDEF INIT(4*0); /* MF UNBLOCK LIMIT*/
       14+    8138    1   DCL   SL_IOTA(0:4) SBIN STATIC SYMDEF INIT(0,4000*4);
       15+    8139    1   DCL SL_QUAN SBIN STATIC SYMDEF INIT(200000);/* QUANTUM TIME                   */
       16+    8140    1   DCL SL_QMIN(0:4) SBIN STATIC SYMDEF INIT(0,60000*4);
              8140            /* MIN QUANTUN TIME             */
       29     8141        %INCLUDE UMT_CNTRL_D;
        1+    8142        /*M*    UMT_CNTRL_D     CONTROLable params for timezones        */
        2+    8143        /*T***********************************************************/
        3+    8144        /*T*                                                         */
PL6.E3A0      #001=B_CNTRL_D File=B_CNTRL_D.:E05TSI                              TUE 07/29/97 11:07 Page:43
        4+    8145        /*T* Copyright (c) Bull HN Information Systems Inc., 1997    */
        5+    8146        /*T*                                                         */
        6+    8147        /*T***********************************************************/
        7+    8148
        8+    8149    1   DCL UMT_TIMEZONE CHAR(4) STATIC SYMDEF INIT( '    ');
        9+    8150    1   DCL UMT_UTC_OFFSET SBIN STATIC SYMDEF INIT( 0);  /* in centiseconds */
       30     8151        %INCLUDE UQ_CNTRL_D;
        1+    8152        /*M*     UQ_CNTRL_D - ENQ/DEQ CONTROLABLE ITEMS            */
        2+    8153        /*T***********************************************************/
        3+    8154        /*T*                                                         */
        4+    8155        /*T* Copyright (c) Bull HN Information Systems Inc., 1997    */
        5+    8156        /*T*                                                         */
        6+    8157        /*T***********************************************************/
        7+    8158        /**/
        8+    8159    1   DCL UQ_MAXENQ UBIN WORD STATIC SYMDEF INIT(16); /* MAX ENQ/DEQS PER USER      */
       31     8160        /**/
       32     8161    1   DCL B_MUAIS UBIN WORD STATIC SYMDEF;    /* MAX USERS IN SYSTEM - TIGR INITS   */
       33     8162    1   DCL B_CNTRL_HIGH UBIN WORD STATIC SYMDEF;
       34     8163        %INCLUDE IG_CNTRLNR_D;
        1+    8164        /*M* IG_CNTRLNR_D - Nonrecovered CONTROL-able data  */
        2+    8165        /*T***********************************************************/
        3+    8166        /*T*                                                         */
        4+    8167        /*T* Copyright (c) Bull HN Information Systems Inc., 1997    */
        5+    8168        /*T*                                                         */
        6+    8169        /*T***********************************************************/
        7+    8170    1   DCL FR_PRMT(0:2) SBIN WORD STATIC SYMDEF INIT(0,0,0);
        8+    8171        /**/
       35     8172    1   END;

PL6.E3A0      #001=B_CNTRL_D File=B_CNTRL_D.:E05TSI                              TUE 07/29/97 11:07 Page:44
--  Include file information  --

   IG_CNTRLNR_D.:E05TOU  cannot be made into a system file and is referenced.
   UQ_CNTRL_D.:E05TOU  cannot be made into a system file and is referenced.
   UMT_CNTRL_D.:E05TOU  cannot be made into a system file and is referenced.
   SS_CNTRL_D.:E05TOU  cannot be made into a system file and is referenced.
   MM_CNTRL_D.:E05TOU  cannot be made into a system file and is referenced.
   JZ_CNTRL_D.:E05TOU  cannot be made into a system file and is referenced.
   JS_CNTRL_D.:E05TOU  cannot be made into a system file and is referenced.
   JM$STRUCT.:E05TOU  is referenced.
   JM_CNTRL_D.:E05TOU  cannot be made into a system file and is referenced.
   FT_SUBS.:E05TOU  is referenced.
   FT_CNTRL_D.:E05TOU  cannot be made into a system file and is referenced.
   FR_CNTRL_D.:E05TOU  cannot be made into a system file and is referenced.
   FO_CNTRL_D.:E05TOU  cannot be made into a system file and is referenced.
   FM_CNTRL_D.:E05TOU  cannot be made into a system file and is referenced.
   ES_CNTRL_D.:E05TOU  cannot be made into a system file and is referenced.
   SS_CNTRLD_D.:E05TOU  cannot be made into a system file and is referenced.
   JM_CNTRLD_D.:E05TOU  cannot be made into a system file and is referenced.
   FR_CNTRLD_D.:E05TOU  cannot be made into a system file and is referenced.
   UD_EQU_E.:E05TOU  is referenced.
   FM_CACHE_C.:E05TOU  is referenced.
   CP_6_C.:E05TOU  is referenced.
   CP_6.:E05TOU  cannot be made into a system file and is referenced.
      No diagnostics issued in procedure B_CNTRL_D.

   No code generated for procedure B_CNTRL_D .
   Procedure B_CNTRL_D requires 4 words of local(AUTO) storage.

    No errors detected in file B_CNTRL_D.:E05TSI    .

PL6.E3A0      #001=B_CNTRL_D File=B_CNTRL_D.:E05TSI                              TUE 07/29/97 11:07 Page:45

 Object Unit name= B_CNTRL_D                                  File name= B_CNTRL_D.:E05TOU
 UTS= JUL 29 '97 11:07:11.24 TUE                              Compiler= PL-6/E31         Sev=      00
 SharedLib= :SHARED_SYSTEM                                    Alt SharedLib=


    ****  Control sections  ****

 Sect   Type Bound  Init  Size OctSiz  Section name(segment info)
    0   DCB   even  none     0      0  M$UC
    1   Data  even  none   624   1160  B_CNTRL_D
    2   Proc  even  none     0      0  B_CNTRL_D

    ****  Entry defs  ****

                              Check   Calling
                             calling  sequence
  Sect OctLoc Primary Altret sequence   type   Parms  Name
     2      0   yes            yes     ~proc       0  B_CNTRL_D
PL6.E3A0      #001=B_CNTRL_D File=B_CNTRL_D.:E05TSI                              TUE 07/29/97 11:07 Page:46

  ****  Data defs  ****

 Sect OctLoc  Name                           Sect OctLoc  Name
    1      0  FR_PRC$                            1      5  FR_PRM$
    1     12  FR_MEMC                            1     17  FR_SUC$
    1     24  FR_SUM$                            1     31  FR_SUMX
    1     32  FR_SUNM                            1     52  FR_PRCB
    1     55  FR_PRCG                            1     60  FR_PRCO
    1     63  FR_PRCP                            1     66  FR_SUCT
    1     76  FR_SUCB                            1    106  FR_SUCG
    1    116  FR_SUCO                            1    126  FR_SUCP
    1    136  JM_LOCK                            1    137  JM_CHNG
    1    140  S_CUIS                             1    145  S_MUIS
    1    152  S_CTUIS                            1    153  S_TUIS
    1    154  B_CNTRL_LOW                        1    155  ES_LOGFILEGRANT
    1    156  ES_LOGFILEDENY                     1    157  ES_PRIVMASK
    1    160  ES_STEPPRIVMASK                    1    161  ES_LOGPRIVCHNG
    1    162  ES_PRIVCHNGMASK                    1    163  ES_LOGMONSER
    1    164  ES_MONSERTBL                       1    204  ES_LOGSYSACC
    1    205  ES_LOGSYSEXIT                      1    206  ES_CLEARMEM
    1    207  ES_PROTECTSECLOG                   1    210  EL_SECLOGSIZE
    1    211  FMC_LIMITS                         1    237  FM_WRCMP
    1    240  NI_IOLEAPERS                       1    241  FO_SYMBINFO
    1    301  FO_JOBSTATSAGE                     1    302  FR_MEMM
    1    307  FR_PRMB                            1    312  FR_PRMG
    1    315  FR_PRMO                            1    320  FR_PRMP
    1    323  FR_SUMT                            1    333  FR_SUMB
    1    343  FR_SUMG                            1    353  FR_SUMO
    1    363  FR_SUMP                            1    373  FT_PROT
    1    374  JM_NPART                           1    375  JM_PI
    1    376  JM_MAX1ACCT                        1    377  JM_PT
    1   1057  JS_TIME                            1   1063  JS_TMDPRM
    1   1067  JS_PRDPRM                          1   1073  JS_REMCPO
    1   1077  JS_REMLO                           1   1103  JS_REMDO
    1   1107  JS_SHARE_ALL                       1   1110  JZ_RETIM
    1   1111  MM_FREETHRESH                      1   1112  MM_NOUSTHRESH
    1   1113  MM_AUTO_PRIO                       1   1114  MM_CACHE_PRIO
PL6.E3A0      #001=B_CNTRL_D File=B_CNTRL_D.:E05TSI                              TUE 07/29/97 11:07 Page:47
    1   1115  MM_CG_PRIO                         1   1116  S_PRIOB
    1   1123  SL_MF                              1   1130  SL_MFU
    1   1135  SL_IOTA                            1   1142  SL_QUAN
    1   1143  SL_QMIN                            1   1150  UMT_TIMEZONE
    1   1151  UMT_UTC_OFFSET                     1   1152  UQ_MAXENQ
    1   1153  B_MUAIS                            1   1154  B_CNTRL_HIGH
    1   1155  FR_PRMT

  ****  Data refs  ****

  Flags:  r = read only, s = secondary
Flgs Name                             Flgs Name                             Flgs Name
     M$UC

  ****  Segment refs  ****

  Flags:  r = read only, s = secondary
Flgs Name                             Flgs Name                             Flgs Name
     NULLSID                               ISSID
PL6.E3A0      #001=B_CNTRL_D File=B_CNTRL_D.:E05TSI                              TUE 07/29/97 11:07 Page:48


(unnamed)
 Sect OctLoc
   1     000   000000 006014   000052 006000   000055 006000   000060 006000    .....*...-...0..
   1     004   000063 006000   001155 006000   000307 006000   000312 006000    .3...m..........
   1     010   000315 006000   000320 006000   000000 000000   000000 000000    ................
   1     014   000000 001000   000000 000000   000000 000000   000066 006000    .............6..
   1     020   000076 006000   000106 006000   000116 006000   000126 006000    .>...F...N...V..
   1     024   000323 006000   000333 006000   000343 006000   000353 006000    ................
   1     030   000363 006000   777777 777777   040040 040040   040040 040040    ........
   1     034   040040 040040   040040 040040   040040 040040   040040 040040
   1     050*  040040 040040   040040 040040

FR_PRCB
 Sect OctLoc
   1     052   000000 000000   000000 000000   000000 000000                    ............

FR_PRCG
 Sect OctLoc
   1     055   000000 000000   000000 000000   000000 000000                    ............

FR_PRCO
 Sect OctLoc
   1     060   000000 000000   000000 000000   000000 000000                    ............

FR_PRCP
 Sect OctLoc
   1     063   000000 000000   000000 000000   000000 000000                    ............

FR_SUCT
 Sect OctLoc
   1     066   000000 000000   000000 000000   000000 000000   000000 000000    ................
   1     072   000000 000000   000000 000000   000000 000000   000000 000000    ................

FR_SUCB
 Sect OctLoc
   1     076   000000 000000   000000 000000   000000 000000   000000 000000    ................
PL6.E3A0      #001=B_CNTRL_D File=B_CNTRL_D.:E05TSI                              TUE 07/29/97 11:07 Page:49
   1     102   000000 000000   000000 000000   000000 000000   000000 000000    ................

FR_SUCG
 Sect OctLoc
   1     106   000000 000000   000000 000000   000000 000000   000000 000000    ................
   1     112   000000 000000   000000 000000   000000 000000   000000 000000    ................

FR_SUCO
 Sect OctLoc
   1     116   000000 000000   000000 000000   000000 000000   000000 000000    ................
   1     122   000000 000000   000000 000000   000000 000000   000000 000000    ................

FR_SUCP
 Sect OctLoc
   1     126   000000 000000   000000 000000   000000 000000   000000 000000    ................
   1     132   000000 000000   000000 000000   000000 000000   000000 000000    ................

(unnamed)
 Sect OctLoc
   1     136   777777 777777   000000 ******   000000 000000   000000 000000    ................
   1     142   000000 000000   000000 000000   000000 000000   000000 000000    ................
   1     146   000000 000000   000000 000040   000000 000040   000000 000000    ....... ... ....
   1     152   000000 000000   000000 000200   ****** ******   000000 000000    ................
   1     156   000000 000000   777777 777777   777777 777777   000000 000000    ................
   1     162   000000 000000   000000 000000   000000 000000   000000 000000    ................
   1     206*  000000 000001   000040 753000   000000 777777   000000 011610    ..... ..........
   1     212   000000 000000   000000 011610   000000 000000   000000 023420    ................
   1     216   000000 000000   000000 011610   000000 000000   000000 001750    ................
   1     222   000000 000000   000000 001750   000000 000000   000000 000144    ...............d
   1     226   000000 000000   000000 000062   000000 000000   000000 000062    .......2.......2
   1     232   000000 000000   000000 000062   000000 000000   000000 000000    .......2........
   1     236   000000 000000   000000 000000   000000 777777   000000 000001    ................
   1     242   000000 000000   000000 001750   000000 000764   000000 000620    ................
   1     246   000000 000454   000000 000310   000000 000144   000000 000113    ...........d...K
   1     252   000000 000062   000000 000036   000000 000024   000000 000012    ...2............
   1     256   000000 000005   000000 000003   000000 000002   044044 044000    ............$$$.
   1     262   000000 000000   000000 000044   000000 000000   000000 000000    .......$........
PL6.E3A0      #001=B_CNTRL_D File=B_CNTRL_D.:E05TSI                              TUE 07/29/97 11:07 Page:50
   1     266   000000 000000   000000 000000   000000 000000   000000 000000    ................
   1     276*  000000 000000   000000 000000   000000 000000   000000 000003    ................
   1     302   000032 547700   000032 547700   000032 547700   000032 547700    ................
   1     306   000032 547700                                                    ....

FR_PRMB
 Sect OctLoc
   1     307   000000 000002   000000 000004   000000 000002                    ............

FR_PRMG
 Sect OctLoc
   1     312   000000 000004   000000 000004   000000 000004                    ............

FR_PRMO
 Sect OctLoc
   1     315   000000 000001   000000 000004   000000 000001                    ............

FR_PRMP
 Sect OctLoc
   1     320   000000 000000   000000 000000   000000 000000                    ............

FR_SUMT
 Sect OctLoc
   1     323   000000 000004   000000 000004   000000 000004   000000 000004    ................
   1     327   000000 000004   000000 000004   000000 000004   000000 000004    ................

FR_SUMB
 Sect OctLoc
   1     333   000000 000004   000000 000004   000000 000004   000000 000004    ................
   1     337   000000 000004   000000 000004   000000 000004   000000 000004    ................

FR_SUMG
 Sect OctLoc
   1     343   000000 000001   000000 000001   000000 000001   000000 000001    ................
   1     347   000000 000001   000000 000001   000000 000001   000000 000001    ................

FR_SUMO
PL6.E3A0      #001=B_CNTRL_D File=B_CNTRL_D.:E05TSI                              TUE 07/29/97 11:07 Page:51
 Sect OctLoc
   1     353   000000 000002   000000 000002   000000 000002   000000 000002    ................
   1     357   000000 000002   000000 000002   000000 000002   000000 000002    ................

FR_SUMP
 Sect OctLoc
   1     363   000000 000000   000000 000000   000000 000000   000000 000000    ................
   1     367   000000 000000   000000 000000   000000 000000   000000 000000    ................

(unnamed)
 Sect OctLoc
   1     373   000000 000000   000000 000001   000000 000003   000000 000777    ................
   1     377   000000 000000   112402 761777   000001 720440   002000 000000    ....J...........
   1     403   000000 001000   000000 000777   000000 006014   000777 000004    ................
   1     407   000004 000000   000000 000000   000000 000000   000000 000000    ................
   1     413   000000 000000   000000 000000   000000 000000   000000 000000    ................
   1     423*  112402 761777   000001 720440   002000 000000   000000 001000    J...............
   1     427   000000 000777   000000 006014   000777 000004   000004 000000    ................
   1     433   000000 000000   000000 000000   000000 000000   000000 000000    ................
   1     443*  000000 000000   000000 000000   000000 000000   112402 761777    ............J...
   1     447   000001 720440   002000 000000   000000 001000   000000 000777    ................
   1     453   000000 006014   000777 000004   000004 000000   000000 000000    ................
   1     457   000000 000000   000000 000000   000000 000000   000000 000000    ................
   1     467*  000000 000000   000000 000000   112402 761777   000001 720440    ........J.......
   1     473   002000 000000   000000 001000   000000 000777   000000 006014    ................
   1     477   000777 000004   000004 000000   000000 000000   000000 000000    ................
   1     503   000000 000000   000000 000000   000000 000000   000000 000000    ................
   1     513*  000000 000000   112402 761777   000001 720440   002000 000000    ....J...........
   1     517   000000 001000   000000 000777   000000 006014   000777 000004    ................
   1     523   000004 000000   000000 000000   000000 000000   000000 000000    ................
   1     527   000000 000000   000000 000000   000000 000000   000000 000000    ................
   1     537*  112402 761777   000001 720440   002000 000000   000000 001000    J...............
   1     543   000000 000777   000000 006014   000777 000004   000004 000000    ................
   1     547   000000 000000   000000 000000   000000 000000   000000 000000    ................
   1     557*  000000 000000   000000 000000   000000 000000   112402 761777    ............J...
   1     563   000001 720440   002000 000000   000000 001000   000000 000777    ................
   1     567   000000 006014   000777 000004   000004 000000   000000 000000    ................
PL6.E3A0      #001=B_CNTRL_D File=B_CNTRL_D.:E05TSI                              TUE 07/29/97 11:07 Page:52
   1     573   000000 000000   000000 000000   000000 000000   000000 000000    ................
   1     603*  000000 000000   000000 000000   112402 761777   000001 720440    ........J.......
   1     607   002000 000000   000000 001000   000000 000777   000000 006014    ................
   1     613   000777 000004   000004 000000   000000 000000   000000 000000    ................
   1     617   000000 000000   000000 000000   000000 000000   000000 000000    ................
   1     627*  000000 000000   112402 761777   000001 720440   002000 000000    ....J...........
   1     633   000000 001000   000000 000777   000000 006014   000777 000004    ................
   1     637   000004 000000   000000 000000   000000 000000   000000 000000    ................
   1     643   000000 000000   000000 000000   000000 000000   000000 000000    ................
   1     653*  112402 761777   000001 720440   002000 000000   000000 001000    J...............
   1     657   000000 000777   000000 006014   000777 000004   000004 000000    ................
   1     663   000000 000000   000000 000000   000000 000000   000000 000000    ................
   1     673*  000000 000000   000000 000000   000000 000000   112402 761777    ............J...
   1     677   000001 720440   002000 000000   000000 001000   000000 000777    ................
   1     703   000000 006014   000777 000004   000004 000000   000000 000000    ................
   1     707   000000 000000   000000 000000   000000 000000   000000 000000    ................
   1     717*  000000 000000   000000 000000   112402 761777   000001 720440    ........J.......
   1     723   002000 000000   000000 001000   000000 000777   000000 006014    ................
   1     727   000777 000004   000004 000000   000000 000000   000000 000000    ................
   1     733   000000 000000   000000 000000   000000 000000   000000 000000    ................
   1     743*  000000 000000   112402 761777   000001 720440   002000 000000    ....J...........
   1     747   000000 001000   000000 000777   000000 006014   000777 000004    ................
   1     753   000004 000000   000000 000000   000000 000000   000000 000000    ................
   1     757   000000 000000   000000 000000   000000 000000   000000 000000    ................
   1     767*  112402 761777   000001 720440   002000 000000   000000 001000    J...............
   1     773   000000 000777   000000 006014   000777 000004   000004 000000    ................
   1     777   000000 000000   000000 000000   000000 000000   000000 000000    ................
   1    1007*  000000 000000   000000 000000   000000 000000   112402 761777    ............J...
   1    1013   000001 720440   002000 000000   000000 001000   000000 000777    ................
   1    1017   000000 006014   000777 000004   000004 000000   000000 000000    ................
   1    1023   000000 000000   000000 000000   000000 000000   000000 000000    ................
   1    1033*  000000 000000   000000 000000   112402 761777   000001 720440    ........J.......
   1    1037   002000 000000   000000 001000   000000 000777   000000 006014    ................
   1    1043   000777 000004   000004 000000   000000 000000   000000 000000    ................
   1    1047   000000 000000   000000 000000   000000 000000   000000 000000    ................
   1    1057*  000000 000005   000000 000005   000000 023417   000000 000005    ................
   1    1063   000000 000024   000000 000017   000000 000012   000000 000005    ................
PL6.E3A0      #001=B_CNTRL_D File=B_CNTRL_D.:E05TSI                              TUE 07/29/97 11:07 Page:53
   1    1107*  000000 000000   000000 001604   000000 000400   000000 000062    ...............2
   1    1113   000000 000024   000000 000012   000000 000120   000000 000001    ...........P....
   1    1117   000000 000001   000000 000001   000000 000001   000000 000001    ................
   1    1123   000000 000012   000000 000012   000000 000012   000000 000012    ................
   1    1127   000000 000012   000000 000004   000000 000004   000000 000004    ................
   1    1133   000000 000004   000000 000004   000000 000000   000000 007640    ................
   1    1137   000000 007640   000000 007640   000000 007640   000000 606500    ................
   1    1143   000000 000000   000000 165140   000000 165140   000000 165140    ......u`..u`..u`
   1    1147   000000 165140   040040 040040   000000 000000   000000 000020    ..u`    ........
   1    1153   ****** ******   ****** ******                                    ........

FR_PRMT
 Sect OctLoc
   1    1155   000000 000000   000000 000000   000000 000000                    ............
        1        1        /*M*   B_CNTRL_D   CONTAINS ALL MONITOR TABLES ACCESSED BY CONTROL   */
        2        2        /*T***********************************************************/
        3        3        /*T*                                                         */
        4        4        /*T* Copyright (c) Bull HN Information Systems Inc., 1997    */
        5        5        /*T*                                                         */
        6        6        /*T***********************************************************/
        7        7        /**/
        8        8        B_CNTRL_D: PROC;
        9        9        /**/
       10       10        %INCLUDE CP_6;
       11     5569        %INCLUDE FM_CACHE_C;
       12     5635        %INCLUDE UD_EQU_E;
       13     6024        %LIST;
       14     6025        %INCLUDE FR_CNTRLD_D;
        1+    6026        /*M* FR_CNTRLD_D - CONTROL DISPLAY ONLY RESOURCE MANAGEMENT DATA   */
        2+    6027        /*T***********************************************************/
        3+    6028        /*T*                                                         */
        4+    6029        /*T* Copyright (c) Bull HN Information Systems Inc., 1997    */
        5+    6030        /*T*                                                         */
        6+    6031        /*T***********************************************************/
        7+    6032        /**/
        8+    6033    1   DCL FR_PRC$ (0:4) PTR STATIC SYMDEF INIT(ADDR(NIL),
        9+    6034    1                                            ADDR(FR_PRCB),
PL6.E3A0      #001=B_CNTRL_D File=B_CNTRL_D.:E05TSI                              TUE 07/29/97 11:07 Page:54
       10+    6035    1                                            ADDR(FR_PRCG),
       11+    6036    1                                            ADDR(FR_PRCO),
       12+    6037    1                                            ADDR(FR_PRCP));
       13+    6038    1   DCL FR_PRM$ (0:4) PTR STATIC SYMDEF INIT(ADDR(FR_PRMT),
       14+    6039    1                                            ADDR(FR_PRMB),
       15+    6040    1                                            ADDR(FR_PRMG),
       16+    6041    1                                            ADDR(FR_PRMO),
       17+    6042    1                                            ADDR(FR_PRMP));
       18+    6043    1   DCL FR_MEMC (0:4) SBIN WORD STATIC SYMDEF INIT(0,0,512,0,0);
              6043            /*Right init for GHOST1*/
       19+    6044    1   DCL FR_SUC$ (0:4) PTR STATIC SYMDEF INIT(ADDR(FR_SUCT),
       20+    6045    1                                            ADDR(FR_SUCB),
       21+    6046    1                                            ADDR(FR_SUCG),
       22+    6047    1                                            ADDR(FR_SUCO),
       23+    6048    1                                            ADDR(FR_SUCP));
       24+    6049    1   DCL FR_SUM$ (0:4) PTR STATIC SYMDEF INIT(ADDR(FR_SUMT),
       25+    6050    1                                            ADDR(FR_SUMB),
       26+    6051    1                                            ADDR(FR_SUMG),
       27+    6052    1                                            ADDR(FR_SUMO),
       28+    6053    1                                            ADDR(FR_SUMP));
       29+    6054    1   DCL FR_SUMX SBIN WORD STATIC SYMDEF INIT(-1);
       30+    6055    1   DCL FR_SUNM (0:7) CHAR(8) STATIC SYMDEF INIT(' '*0);
       31+    6056        /**/
       32+    6057    1   DCL FR_PRCB (0:2) SBIN WORD STATIC SYMDEF INIT(0*0);
       33+    6058    1   DCL FR_PRCG (0:2) SBIN WORD STATIC SYMDEF INIT(0*0);
       34+    6059    1   DCL FR_PRCO (0:2) SBIN WORD STATIC SYMDEF INIT(0*0);
       35+    6060    1   DCL FR_PRCP (0:2) SBIN WORD STATIC SYMDEF INIT(0*0);
       36+    6061    1   DCL FR_SUCT (0:7) SBIN WORD STATIC SYMDEF INIT(0*0);
       37+    6062    1   DCL FR_SUCB (0:7) SBIN WORD STATIC SYMDEF INIT(0*0);
       38+    6063    1   DCL FR_SUCG (0:7) SBIN WORD STATIC SYMDEF INIT(0*0);
       39+    6064    1   DCL FR_SUCO (0:7) SBIN WORD STATIC SYMDEF INIT(0*0);
       40+    6065    1   DCL FR_SUCP (0:7) SBIN WORD STATIC SYMDEF INIT(0*0);
       41+    6066        /**/
       15     6067        %INCLUDE JM_CNTRLD_D;
        1+    6068        /*M* JM_CNTRLD_D - CONTROL DISPLAY ONLY DATA FOR JOB MANAGEMENT */
        2+    6069        /*T***********************************************************/
        3+    6070        /*T*                                                         */
PL6.E3A0      #001=B_CNTRL_D File=B_CNTRL_D.:E05TSI                              TUE 07/29/97 11:07 Page:55
        4+    6071        /*T* Copyright (c) Bull HN Information Systems Inc., 1997    */
        5+    6072        /*T*                                                         */
        6+    6073        /*T***********************************************************/
        7+    6074        /**/
        8+    6075    1   DCL JM_LOCK SBIN STATIC SYMDEF INIT(-1); /* Part. Tbl lock                    */
        9+    6076        /**/
       10+    6077    1   DCL JM_CHNG BIT(16) STATIC SYMDEF INIT('0'B); /* Changed partition bits       */
       11+    6078        /**/
       16     6079        %INCLUDE SS_CNTRLD_D;
        1+    6080        /*M* SS_CNTRLD_D - CONTROL DISPLAY ONLY DATA FOR SCHEDULER */
        2+    6081        /*T***********************************************************/
        3+    6082        /*T*                                                         */
        4+    6083        /*T* Copyright (c) Bull HN Information Systems Inc., 1997    */
        5+    6084        /*T*                                                         */
        6+    6085        /*T***********************************************************/
        7+    6086        /**/
        8+    6087    1   DCL S_CUIS(0:4) SBIN STATIC SYMDEF INIT(0*0);/* # USRS CURRENTLY ON           */
        9+    6088    1   DCL S_MUIS(0:4) SBIN STATIC SYMDEF INIT(0,0,32,32,0);/* MAX USRS ALLOWED ON*/
       10+    6089                                           /* S_MUIS SAVED/RESTORED IN RECOVER BUFFER */
       11+    6090    1   DCL S_CTUIS SBIN STATIC SYMDEF INIT(0); /* TOTAL USRS CURRENTLY ON*/
       12+    6091    1   DCL S_TUIS SBIN STATIC SYMDEF INIT(128); /* TOTAL USERS ALLOWED ON            */
       13+    6092                                           /* S_TUIS SAVED/RESTORED IN RECOVER BUFFER */
       17     6093    1   DCL B_CNTRL_LOW UBIN WORD STATIC SYMDEF;
       18     6094        /**/
       19     6095        %INCLUDE ES_CNTRL_D;
        1+    6096        /*M* ES_CNTRL_D - System Security Parameters set by CONTROL        */
        2+    6097        /*T***********************************************************/
        3+    6098        /*T*                                                         */
        4+    6099        /*T* Copyright (c) Bull HN Information Systems Inc., 1997    */
        5+    6100        /*T*                                                         */
        6+    6101        /*T***********************************************************/
        7+    6102        /**/
        8+    6103        /**/
        9+    6104        /* All variables beginning with ES_LOG determine how or whether
       10+    6105           entries will be made to the security log (:SECLOGyyyymmdd.:SYS). */
       11+    6106        /**/
       12+    6107    1   DCL ES_LOGFILEGRANT UBIN WORD STATIC SYMDEF INIT(0);
PL6.E3A0      #001=B_CNTRL_D File=B_CNTRL_D.:E05TSI                              TUE 07/29/97 11:07 Page:56
       13+    6108                                   /* Determines whether granted file accesses
       14+    6109                                      are to be logged. Applies to all files
       15+    6110                                      on the system.
       16+    6111
       17+    6112                                      0=NO     Don't log any
       18+    6113                                      1=YES    Log all
       19+    6114                                      2=MAYBE  Granted accesses may be logged;
       20+    6115                                               whether to log or not is
       21+    6116                                               determined at a lower level
       22+    6117                                               (packset, acct, or file). MAYBE
       23+    6118                                               not implemented for C00.    */
       24+    6119    1   DCL ES_LOGFILEDENY  UBIN WORD STATIC SYMDEF INIT(0);
       25+    6120                                   /* Determines whether denied file accesses
       26+    6121                                      are to be logged. Applies to all files
       27+    6122                                      on the system.
       28+    6123
       29+    6124                                      0=NO     Don't log any
       30+    6125                                      1=YES    Log all
       31+    6126                                      2=MAYBE  Denied accesses may be logged;
       32+    6127                                               whether to log or not is
       33+    6128                                               determined at a lower level
       34+    6129                                               (packset, acct, or file). MAYBE
       35+    6130                                               not implemented for C00.    */
       36+    6131    1   DCL ES_PRIVMASK     BIT(36) STATIC SYMDEF INIT('777777777777'O);
       37+    6132                                   /* Mask of privilege flags anded with
       38+    6133                                      active privileges before any privilege
       39+    6134                                      set.                                 */
       40+    6135    1   DCL ES_STEPPRIVMASK BIT(36) STATIC SYMDEF INIT('777777777777'O);
       41+    6136                                   /* Mask of privilege flags anded with
       42+    6137                                      active privileges at job step.       */
       43+    6138    1   DCL ES_LOGPRIVCHNG  UBIN WORD STATIC SYMDEF INIT(0);
       44+    6139                                   /* Whether/how privilege changes are to
       45+    6140                                      be logged. Determines the use of
       46+    6141                                      ES_PRIVCHNGMASK.
       47+    6142
       48+    6143                                      0=NONE    Don't log priv changes
       49+    6144                                      1=DENIED  Only log denied attempts
PL6.E3A0      #001=B_CNTRL_D File=B_CNTRL_D.:E05TSI                              TUE 07/29/97 11:07 Page:57
       50+    6145                                      2=GRANTED Only log granted changes
       51+    6146                                      3=ALL     Log both denied and granted */
       52+    6147    1   DCL ES_PRIVCHNGMASK BIT(36) STATIC SYMDEF INIT('0'B);
       53+    6148                                   /* Mask of privilege flags, the use of
       54+    6149                                      which is to be logged.                */
       55+    6150    1   DCL ES_LOGMONSER    UBIN WORD STATIC SYMDEF INIT(0);
       56+    6151                                   /* Whether/how the use of certain monitor
       57+    6152                                      services is to be logged. Determines the
       58+    6153                                      use of ES_MONSERTBL.
       59+    6154
       60+    6155                                      0=NONE    Don't log pmme usage
       61+    6156                                      1=DENIED  Only log denied attempts
       62+    6157                                      2=GRANTED Only log granted usage
       63+    6158                                      3=ALL     Log both denied and granted */
       64+    6159    1   DCL ES_MONSERTBL(0:%MAX_FCG#) BIT(36) STATIC SYMDEF INIT('0'B*0);
       65+    6160                                   /* Table of monitor services, use of which
       66+    6161                                      is to be logged. The index into this
       67+    6162                                      table is determined by FCG category.
       68+    6163                                      index into each entry is determined by
       69+    6164                                      pmme CODE. Equates for FCGs, codes, and
       70+    6165                                      pmmes can be found in UD_EQU_E.      */
       71+    6166    1   DCL ES_LOGSYSACC    UBIN WORD STATIC SYMDEF INIT(0);
       72+    6167                                   /* Log system access via SLUG or PRESCAN.
       73+    6168                                      Each successive level includes the
       74+    6169                                      preceding levels.
       75+    6170
       76+    6171                                      <Lvl 0>  0=NONE     (Don't log any.)
       77+    6172                                      <Lvl 1>  1=FAILEDPW (Account entry
       78+    6173                                                           exists in :HLP,
       79+    6174                                                           but password bad.)
       80+    6175                                      <Lvl 2>  2=FAILEDPWNE (Also includes
       81+    6176                                                           those which were
       82+    6177                                                           formatted correctly
       83+    6178                                                           but failed because
       84+    6179                                                           no entry in :HLP.)
       85+    6180                                      <Lvl 3>  3=FAILED   (Failed for any
       86+    6181                                                           reason.)
PL6.E3A0      #001=B_CNTRL_D File=B_CNTRL_D.:E05TSI                              TUE 07/29/97 11:07 Page:58
       87+    6182                                      <Lvl 4>  4=ALL      (Log all accesses.)*/
       88+    6183    1   DCL ES_LOGSYSEXIT   UBIN WORD STATIC SYMDEF INIT(0);
       89+    6184                                   /* Log system exits.
       90+    6185
       91+    6186                                      0=NONE
       92+    6187                                      1=ALL  */
       93+    6188    1   DCL ES_CLEARMEM     UBIN WORD STATIC SYMDEF INIT(1);
       94+    6189                                   /* 0=NO
       95+    6190                                      1=YES
       96+    6191
       97+    6192                                      If yes, clear memory when released. */
       98+    6193    1   DCL ES_PROTECTSECLOG UBIN WORD STATIC SYMDEF INIT(%(24*60*60*100));
       99+    6194                               /* How long to protect :SECLOGyyyymmdd files.
      100+    6195                                      I.e., the number of days a :SECLOG file
      101+    6196                                      will be restricted to read only access
      102+    6197                                      except for the ELF ghost. This value
      103+    6198                                      is given in clock tics.               */
      104+    6199    1   DCL EL_SECLOGSIZE    UBIN WORD STATIC SYMDEF INIT(262143);
      105+    6200                               /* Amount of granules to which :SECLOGyyyymmdd
      106+    6201                                      may grow before current file is turned over
      107+    6202                                      (:SECLOGyymmddhhmmss) and new file is created.  */
       20     6203        %INCLUDE FM_CNTRL_D;
        1+    6204        /*M*   FM_CNTRL_D  -  File management control data */
        2+    6205        /*T***********************************************************/
        3+    6206        /*T*                                                         */
        4+    6207        /*T* Copyright (c) Bull HN Information Systems Inc., 1997    */
        5+    6208        /*T*                                                         */
        6+    6209        /*T***********************************************************/
        7+    6210        /*X* */
        8+    6211        /**/
        9+    6212        /**/
       10+    6213        /**/
       11+    6214    1   DCL 1 FMC_LIMITS(0:%(%CACHETYPES-1)) STATIC SYMDEF,
       12+    6215    1         2 EXPIRE SBIN INIT(5000,          /* CONTROL EXPIRE TIME                */
       13+    6216    1                            5000,
       14+    6217    1                            10000,
       15+    6218    1                            5000,
PL6.E3A0      #001=B_CNTRL_D File=B_CNTRL_D.:E05TSI                              TUE 07/29/97 11:07 Page:59
       16+    6219    1                            1000,
       17+    6220    1                            1000,
       18+    6221    1                            100,
       19+    6222    1                            50,
       20+    6223    1                            50,
       21+    6224    1                            50,
       22+    6225    1                            0*0),
       23+    6226    1         2 UPLIMIT SBIN          INIT(0*0);/* UPDATE LIMIT FROM CONTROL          */
       24+    6227        /* Flag to change all disk writes to write-and-compare */
       25+    6228    1   DCL FM_WRCMP SBIN STATIC SYMDEF INIT(0); /* Non-zero to write-compare         */
       26+    6229        /* Number of "leap froggers" on disk */
       27+    6230    1   DCL NI_IOLEAPERS UBIN STATIC SYMDEF INIT(262143);
       28+    6231        /**/
       21     6232        %INCLUDE FO_CNTRL_D;
        1+    6233        /*M*   FO_CNTRL_D - CONTROL-able data for the output symbionts. */
        2+    6234        /*T***********************************************************/
        3+    6235        /*T*                                                         */
        4+    6236        /*T* Copyright (c) Bull HN Information Systems Inc., 1997    */
        5+    6237        /*T*                                                         */
        6+    6238        /*T***********************************************************/
        7+    6239        /**/
        8+    6240        %VLR_SYMBINFO      (FPTN=FO_SYMBINFO,GRANSCHED=1,STCLASS="STATIC SYMDEF");
              6241        %LSET LISTDIR='0'B;
              6251    1   DCL 1 FO_SYMBINFO STATIC SYMDEF ALIGNED,2 GRANSCHED# UBIN WORD UNAL INIT(1)/**/,2
              6251            GRANLOW#(0:14)UBIN WORD UNAL INIT(0,
              6252    1  1000,500,400,300,200,100,75,50,30,20,10,5,3,2)/**/,2 STREAMFILEID# CHAR(3)INIT('$$$'
              6252            )/**/,2 * UBIN BYTE
              6253    1   UNAL INIT(0)/**/,2 WATCH# BIT(36)INIT('0'B)/**/,2 HOLDEXPIRE# UBIN INIT(36)/**/,2
              6254    1   *(0:12)UBIN WORD UNAL INIT(0*0)/**/;
        9+    6256        /**/
       10+    6257    1   DCL FO_JOBSTATSAGE UBIN STATIC SYMDEF INIT(3);
       11+    6258                             /* Maximum age in days of :JOBSTATS records to be       */
       12+    6259                             /* kept when the :JOBSTATS file is copied over itself   */
       13+    6260                             /* by GHOST1 at system initialization.                  */
       22     6261        %INCLUDE FR_CNTRL_D;
        1+    6262       /*M* FR_CNTRL_D Include file of symdef inited data - resource management part of B_C
              6262        NTRL_D*/
PL6.E3A0      #001=B_CNTRL_D File=B_CNTRL_D.:E05TSI                              TUE 07/29/97 11:07 Page:60
        2+    6263        /*T***********************************************************/
        3+    6264        /*T*                                                         */
        4+    6265        /*T* Copyright (c) Bull HN Information Systems Inc., 1997    */
        5+    6266        /*T*                                                         */
        6+    6267        /*T***********************************************************/
        7+    6268        /*X*DMC,PLM=6,IND=2,ENU=2,DCI=4,CSU=2,ECU=2,THI=2,DTI=0*/
        8+    6269        /**/
        9+    6270        /*  NOTE:  SOME DATA REFFED IN BOTH FR_CNTRL_R AND FR_DATA_R */
       10+    6271        /**/
       11+    6272        /**/
       12+    6273    1   DCL FR_MEMM (0:4) SBIN WORD STATIC SYMDEF INIT(7000000*5);
       13+    6274        /**/
       14+    6275        /*  DCL FR_PRMT (0:2) SBIN WORD STATIC SYMDEF INIT(0,0,0); PRMT lives in IG_CNTRLNR
              6275        _D now */
       15+    6276    1   DCL FR_PRMB (0:2) SBIN WORD STATIC SYMDEF INIT(2,4,2);
       16+    6277    1   DCL FR_PRMG (0:2) SBIN WORD STATIC SYMDEF INIT(4,4,4);
       17+    6278    1   DCL FR_PRMO (0:2) SBIN WORD STATIC SYMDEF INIT(1,4,1);
       18+    6279    1   DCL FR_PRMP (0:2) SBIN WORD STATIC SYMDEF INIT(0,0,0);
       19+    6280    1   DCL FR_SUMT (0:7) SBIN WORD STATIC SYMDEF INIT(4*0);
       20+    6281    1   DCL FR_SUMB (0:7) SBIN WORD STATIC SYMDEF INIT(4*0);
       21+    6282    1   DCL FR_SUMG (0:7) SBIN WORD STATIC SYMDEF INIT(1*0);
       22+    6283    1   DCL FR_SUMO (0:7) SBIN WORD STATIC SYMDEF INIT(2*0);
       23+    6284    1   DCL FR_SUMP (0:7) SBIN WORD STATIC SYMDEF INIT(0*0);
       24+    6285        /**/
       23     6286        %INCLUDE FT_CNTRL_D;
        1+    6287        /*M*  FT_CNTRL_D - CONTROLABLE PARAMETERS FOR TAPE FILE MANAGEMENT  */
        2+    6288        /*T***********************************************************/
        3+    6289        /*T*                                                         */
        4+    6290        /*T* Copyright (c) Bull HN Information Systems Inc., 1997    */
        5+    6291        /*T*                                                         */
        6+    6292        /*T***********************************************************/
        7+    6293        /**/
        8+    6294        %INCLUDE FT_SUBS;
        1+    6295        /*M* FT_SUBS - tape file management %SUBs file */
        2+    6296        /*T***********************************************************/
        3+    6297        /*T*                                                         */
        4+    6298        /*T* Copyright (c) Bull HN Information Systems Inc., 1997    */
PL6.E3A0      #001=B_CNTRL_D File=B_CNTRL_D.:E05TSI                              TUE 07/29/97 11:07 Page:61
        5+    6299        /*T*                                                         */
        6+    6300        /*T***********************************************************/
        7+    6301        /*X* MOC,MCL=10 */
        8+    6302
        9+    6303         /***
       10+    6304          *** Tape position values for DDT.POS field.
       11+    6305          ***/
       12+    6306
       13+    6307        %SUB FTP_UND#=0/*FTP_UND#*/;            /* Position undetermined or unstable  */
       14+    6308        %SUB FTP_BOV#=1/*FTP_BOV#*/;            /* At beginning of volume (tape)      */
       15+    6309        %SUB FTP_HDR#=2/*FTP_HDR#*/;            /* If a HDR1 isn't next, we're lost   */
       16+    6310        %SUB FTP_BOD#=3/*FTP_BOD#*/;
              6310            /* At beginning of data; after HDR group and file mark */
       17+    6311        %SUB FTP_EOV#=4/*FTP_EOV#*/;            /* At end of tape after EOV labels    */
       18+    6312        %SUB FTP_CHK#=5/*FTP_CHK#*/;            /* Must check next label to determine */
       19+    6313
       20+    6314         /***
       21+    6315          *** Tape protection values for FT_PROT.
       22+    6316          ***/
       23+    6317
       24+    6318        %SUB FT_UNPROT#=0/*FT_UNPROT#*/;        /* Unprotected                        */
       25+    6319        %SUB FT_SEMIPROT#=1/*FT_SEMIPROT#*/;    /* Semi-protected                     */
       26+    6320        %SUB FT_FULLPROT#=2/*FT_FULLPROT#*/;    /* Fully protected                    */
       27+    6321
       28+    6322         /***
       29+    6323          *** Keyin solicit values for DDT.SOLICIT field.
       30+    6324          ***/
       31+    6325
       32+    6326        %SUB FT_OVERSOL#=1/*FT_OVERSOL#*/;      /* Waiting for OVER keyin             */
       33+    6327        %SUB FT_RINGSOL#=2/*FT_RINGSOL#*/;      /* Waiting for RING keyin             */
       34+    6328        %SUB FT_NOWAYSOL#=3/*FT_NOWAYSOL#*/;    /* Negative response to keyin         */
       35+    6329        %SUB FT_AVRSOL#=4/*FT_AVRSOL#*/;        /* AVR in progress                    */
       36+    6330
       37+    6331         /***
       38+    6332          *** UNSOLKEY_MSG# subs.
       39+    6333          ***/
       40+    6334
PL6.E3A0      #001=B_CNTRL_D File=B_CNTRL_D.:E05TSI                              TUE 07/29/97 11:07 Page:62
       41+    6335        %SUB FT_WAITNONE#=0/*FT_WAITNONE#*/;    /* Not waiting for keyin              */
       42+    6336        %SUB FT_WAITRING#=1/*FT_WAITRING#*/;    /* Waiting for RING keyin             */
       43+    6337        %SUB FT_WAITOVER#=2/*FT_WAITOVER#*/;    /* Waiting for OVER keyin             */
       44+    6338
       45+    6339         /***
       46+    6340          *** Tape file management error code for JIT.ERR: FTx-CODE-SEV.
       47+    6341          ***/
       48+    6342
       49+    6343        %MACRO FT$ERR(ERRNAME=FT$ERR,FCG='0624'O,MID='00'O,CODE=0,SEV=2);
       50+    6344        DCL 1 ERRNAME CONSTANT,
       51+    6345              2 FCGN BIT(12) INIT(FCG) UNAL,
       52+    6346              2 MIDN BIT(6) INIT(MID) UNAL,
       53+    6347              2 MON BIT(1) INIT ('1'B) UNAL,
       54+    6348              2 CODEN UBIN(14) INIT(CODE) UNAL,
       55+    6349              2 SEVN UBIN(3) INIT(SEV) UNAL;
       56+    6350        %MEND;
       57+    6351
       58+    6352         /***
       59+    6353          *** FPOOL buffer use.
       60+    6354          ***/
       61+    6355
       62+    6356        %SUB FT_RBUF1=3/*FT_RBUF1*/;
       63+    6357
       64+    6358         /***
       65+    6359          *** Last operation codes.
       66+    6360          ***/
       67+    6361
       68+    6362        %SUB WHOKNOWSEOP#=0/*WHOKNOWSEOP#*/;
       69+    6363        %SUB READEOP#=1/*READEOP#*/;
       70+    6364        %SUB PRECORDEOP#=2/*PRECORDEOP#*/;
       71+    6365        %SUB WRITEEOP#=3/*WRITEEOP#*/;
       72+    6366
       73+    6367         /***
       74+    6368          *** DCB.TRNC codes.
       75+    6369          ***/
       76+    6370
       77+    6371        %SUB FT_NOTRUNC#=0/*FT_NOTRUNC#*/;      /* DCB not trunced                    */
PL6.E3A0      #001=B_CNTRL_D File=B_CNTRL_D.:E05TSI                              TUE 07/29/97 11:07 Page:63
       78+    6372        %SUB FT_EBTRUNC#=1/*FT_EBTRUNC#*/;      /* Empty buffer trunc                 */
       79+    6373        %SUB FT_FBTRUNC#=2/*FT_FBTRUNC#*/;      /* Full buffer trunc                  */
        9+    6374        /**/
       10+    6375    1   DCL FT_PROT SBIN WORD STATIC SYMDEF INIT(FT_UNPROT#); /* TAPE PROTECTION      */
       11+    6376        /**/
       24     6377        %INCLUDE JM_CNTRL_D;
        1+    6378        /*M*   JM_CNTRL_D - CONTROL-able data for the batch scheduler.     */
        2+    6379        /*T***********************************************************/
        3+    6380        /*T*                                                         */
        4+    6381        /*T* Copyright (c) Bull HN Information Systems Inc., 1997    */
        5+    6382        /*T*                                                         */
        6+    6383        /*T***********************************************************/
        7+    6384        /**/
        8+    6385    1   DCL JM_NPART UBIN(36) STATIC SYMDEF INIT(1); /* # of defined partitions       */
        9+    6386    1   DCL JM_PI SBIN STATIC SYMDEF INIT(3);   /* Default priority increment         */
       10+    6387        /* The system limit on the number of jobs from the same account
       11+    6388           which will be allowed to run concurrently...                    */
       12+    6389    1   DCL JM_MAX1ACCT UBIN WORD STATIC SYMDEF INIT(511);
       13+    6390        /**/
       14+    6391        /*! !*/
       15+    6392        %INCLUDE JM$STRUCT;
        1+    6393        /*M* JM$STRUCT:  Based structures used by Multi-Batch Scheduler.  */
        2+    6394        /*T***********************************************************/
        3+    6395        /*T*                                                         */
        4+    6396        /*T* Copyright (c) Bull HN Information Systems Inc., 1997    */
        5+    6397        /*T*                                                         */
        6+    6398        /*T***********************************************************/
        7+    6399        /*X* DMC,DFC */
        8+    6400        /**/
        9+    6401        /**/
       10+    6402        /**/
       11+    6403        /**/
       12+    6404        /*D* NAME:         JM_IF
       13+    6405             PURPOSE:      To contain job info for MBS
       14+    6406             DESCRIPTION:  This structure contains all of the info which
       15+    6407                           MBS needs to know about a batch job.  It is
       16+    6408                           also passed in the job file FIT from PRESCAN
PL6.E3A0      #001=B_CNTRL_D File=B_CNTRL_D.:E05TSI                              TUE 07/29/97 11:07 Page:64
       17+    6409                           to MBS with some of the fields filled in.
       18+    6410
       19+    6411                           The usual rules apply to INITing the structure,
       20+    6412                           controlled by STCLASS.
       21+    6413
       22+    6414                           The structure can be generated with a COUNT
       23+    6415                           word at the front, which is INITed to the
       24+    6416                           size of the whole thing (including the COUNT
       25+    6417                           word).  FIT=YES turns this on; default is NO.
       26+    6418
       27+    6419                           The last item is JNAME (jobname).  This can
       28+    6420                           be generated as CHAR(31), or as CHAR(FPTN.JNL)
       29+    6421                           (JNL is the length of the jobname).
       30+    6422                           CHAR(31) will be used if
       31+    6423
       32+    6424                                o STCLASS = STATIC
       33+    6425                           or   o STCLASS = CONSTANT
       34+    6426                           or   o STCLASS = EXT
       35+    6427                           or   o STCLASS = AUTO
       36+    6428                           or   o STCLASS = SYMREF and VARILEN = NO
       37+    6429                           or   o STCLASS = ""     and VARILEN = NO
       38+    6430
       39+    6431                           Otherwise CHAR(FPTN.JNL) will be used.
       40+    6432                           The default for VARILEN is NO.
       41+    6433
       42+    6434                           Note that this means you must specify VARILEN=YES
       43+    6435                           in order to generate a variable-length PARAMETER.
       44+    6436                           Note also that if STCLASS = BASED then there is
       45+    6437                           no way to generate a CHAR(31) JNAME.
       46+    6438        */
       47+    6439        %MACRO JM_IF (FPTN=JM_IF,
       48+    6440                 FIT       (YES=1,NO=0)=0,
       49+    6441                 VARILEN   (YES=1,NO=0)=0,
       50+    6442                 STCLASS   = STATIC);
       51+    6443
       52+    6444         %LSET LISTDIR='0'B;
       53+    6445         %LSET LISTEXP='1'B;
PL6.E3A0      #001=B_CNTRL_D File=B_CNTRL_D.:E05TSI                              TUE 07/29/97 11:07 Page:65
       54+    6446         %LSET LISTCOM='0'B;
       55+    6447         %LSET LISTSUB='1'B;
       56+    6448         %LSET STR=CONCAT(TEXTCHAR(STCLASS),'        ');
       57+    6449         %IF (SUBSTR(STR,0,6)='STATIC') OR
       58+    6450         (SUBSTR(STR,0,8)='CONSTANT') OR
       59+    6451         (SUBSTR(STR,0,3)='EXT');
       60+    6452         %LSET INIT=CHARTEXT('INIT');
       61+    6453         %ELSE;
       62+    6454         %LSET INIT=CHARTEXT('/*');
       63+    6455         %ENDIF;
       64+    6456
       65+    6457        DCL 1 FPTN STCLASS ALIGNED,
       66+    6458            %IF FIT=1;
       67+    6459              2 COUNT UBIN %INIT(SIZEW(FPTN))%CHARTEXT('/**/'),
       68+    6460            %ENDIF;
       69+    6461              2 LNK$ PTR %INIT(ADDR(NIL))%CHARTEXT('/**/'),
       70+    6462                                /* LNK$     : link in prio chain. */
       71+    6463
       72+    6464              2 NXTJ$ PTR %INIT(ADDR(NIL))%CHARTEXT('/**/'),
       73+    6465                                /* NXTJ$    : link in partition chain. */
       74+    6466
       75+    6467              2 VRLIST$ PTR %INIT(ADDR(NIL))%CHARTEXT('/**/'),
       76+    6468                                /* VRLIST$  : head of virtual res list. */
       77+    6469
       78+    6470              2 XLNK$ PTR %INIT(ADDR(NIL))%CHARTEXT('/**/'),
       79+    6471                                /* XLNK$    : head of EXCL packset list. */
       80+    6472
       81+    6473              2 SLNK$ PTR %INIT(ADDR(NIL))%CHARTEXT('/**/'),
       82+    6474                                /* SLNK$    : head of shared packset list. */
       83+    6475
       84+    6476              2 U UBIN(18) UNAL %INIT(0)%CHARTEXT('/**/'),
       85+    6477                                /* U        : user number when running. */
       86+    6478
       87+    6479              2 * BIT(2) UNAL %INIT('0'B)%CHARTEXT('/**/'),
       88+    6480
       89+    6481              2 PART BIT(16) UNAL %INIT('0'B)%CHARTEXT('/**/'),
       90+    6482                                /* PART     : 1 bit for each eligible partition. */
PL6.E3A0      #001=B_CNTRL_D File=B_CNTRL_D.:E05TSI                              TUE 07/29/97 11:07 Page:66
       91+    6483
       92+    6484              2 FRS UBIN(9) UNAL %INIT(0)%CHARTEXT('/**/'),
       93+    6485                                /* FRS      : final run status. */
       94+    6486
       95+    6487              2 UNSAT_COUNT UBIN(9) UNAL %INIT(0)%CHARTEXT('/**/'),
       96+    6488                                /* UNSAT_COUNT: number of unsatisfied inter-
       97+    6489                                                job dependancies. */
       98+    6490
       99+    6491              2 PNUM UBIN(9) UNAL %INIT(0)%CHARTEXT('/**/'),
      100+    6492                                /* PNUM     : partition number when running. */
      101+    6493
      102+    6494              2 PI UBIN(9) UNAL %INIT(0)%CHARTEXT('/**/'),
      103+    6495                                /* PI       : prio increment to use. */
      104+    6496
      105+    6497              2 SUBMIT_TIME UBIN(36) %INIT(0)%CHARTEXT('/**/'),
      106+    6498                                /* SUBMIT_TIME: time submitted. */
      107+    6499
      108+    6500              2 START_TIME UBIN(36) %INIT(0)%CHARTEXT('/**/'),
      109+    6501                                /* START_TIME : time started running. */
      110+    6502
      111+    6503              2 OFFIP BIT(36) ALIGNED %INIT('0'B)%CHARTEXT('/**/'),
      112+    6504                                /* OFFIP    : Set by JSD$DEL in the monitor
      113+    6505                                              when it's too late to do the
      114+    6506                                              RERUN keyin on this job, due
      115+    6507                                              to the input symb file having
      116+    6508                                              been deleted. */
      117+    6509
      118+    6510              2 TIM UBIN(36) %INIT(0)%CHARTEXT('/**/'),
      119+    6511                                /* TIM      : max runtime in 1/100 sec units. */
      120+    6512
      121+    6513              2 NJD UBIN(9) UNAL %INIT(0)%CHARTEXT('/**/'),
      122+    6514                                /* NJD      : number of job dependancies
      123+    6515                                              for 'O3' ordering, i.e.,
      124+    6516                                              FOLLOW. */
      125+    6517
      126+    6518              2 PRIO UBIN(9) UNAL %INIT(0)%CHARTEXT('/**/'),
      127+    6519                                /* PRIO     : current priority. */
PL6.E3A0      #001=B_CNTRL_D File=B_CNTRL_D.:E05TSI                              TUE 07/29/97 11:07 Page:67
      128+    6520
      129+    6521              2 FLG,
      130+    6522                3 O1 BIT(1) UNAL %INIT('0'B)%CHARTEXT('/**/'),
      131+    6523                                /* FLG.O1   : ORDER specified. */
      132+    6524
      133+    6525                3 O2 BIT(1) UNAL %INIT('0'B)%CHARTEXT('/**/'),
      134+    6526                                /* FLG.O2   : dependancy variables - not
      135+    6527                                              currently used. */
      136+    6528
      137+    6529                3 O3 BIT(1) UNAL %INIT('0'B)%CHARTEXT('/**/'),
      138+    6530                                /* FLG.O3   : FOLLOW specified. */
      139+    6531
      140+    6532                3 ACC BIT(1) UNAL %INIT('0'B)%CHARTEXT('/**/'),
      141+    6533                                /* FLG.ACC  : ACCOUNT specified. */
      142+    6534
      143+    6535                3 RR BIT(1) UNAL %INIT('1'B)%CHARTEXT('/**/'),
      144+    6536                                /* FLG.RR   : RERUN specified. */
      145+    6537
      146+    6538                3 RR2 BIT(1) UNAL %INIT('0'B)%CHARTEXT('/**/'),
      147+    6539                                /* FLG.RR2  : job being rerun. */
      148+    6540
      149+    6541                3 NPI BIT(1) UNAL %INIT('0'B)%CHARTEXT('/**/'),
      150+    6542                                /* NPI      : don't do prio increment. */
      151+    6543
      152+    6544                3 RA BIT(1) UNAL %INIT('0'B)%CHARTEXT('/**/'),
      153+    6545                                /* RA       : DEFER specified. */
      154+    6546
      155+    6547                3 KRERUN BIT(1) UNAL %INIT('0'B)%CHARTEXT('/**/'),
      156+    6548                                /* KRERUN   : RERUN keyin received. */
      157+    6549
      158+    6550              2 STATUS UBIN(9) UNAL %INIT(0)%CHARTEXT('/**/'),
      159+    6551                                /* STATUS   : job status code. */
      160+    6552
      161+    6553              2 MAXPSN UBIN(9) UNAL %INIT(0)%CHARTEXT('/**/'),
      162+    6554                                /* MAXPSN   : number of entries in job's
      163+    6555                                              packset list. */
      164+    6556
PL6.E3A0      #001=B_CNTRL_D File=B_CNTRL_D.:E05TSI                              TUE 07/29/97 11:07 Page:68
      165+    6557              2 MAXVR UBIN(9) UNAL %INIT(0)%CHARTEXT('/**/'),
      166+    6558                                /* MAXVR    : number of entries in virtual
      167+    6559                                              resource list. */
      168+    6560
      169+    6561              2 SYSID UBIN(18) UNAL %INIT(0)%CHARTEXT('/**/'),
      170+    6562                                /* SYSID    : job's SYSID. */
      171+    6563
      172+    6564              2 ACCT CHAR(8) UNAL %INIT(' ')%CHARTEXT('/**/'),
      173+    6565                                /* ACCT     : ACCOUNT. */
      174+    6566
      175+    6567              2 UNAME CHAR(12) UNAL %INIT(' ')%CHARTEXT('/**/'),
      176+    6568                                /* UNAME    : username of job. */
      177+    6569
      178+    6570              2 WOO CHAR(8) UNAL %INIT(' ')%CHARTEXT('/**/'),
      179+    6571                                /* WOO      : WSN of origin. */
      180+    6572
      181+    6573              2 WSN CHAR(8) UNAL %INIT(' ')%CHARTEXT('/**/'),
      182+    6574                                /* WSN      : WSN to run under. */
      183+    6575
      184+    6576              2 RATIM UBIN(36) %INIT(0)%CHARTEXT('/**/'),
      185+    6577                                /* RATIM    : DEFER time. */
      186+    6578
      187+    6579              2 JDID(0:7),
      188+    6580                                /* JDID     : FOLLOW information. */
      189+    6581
      190+    6582                3 RELATION UBIN(3) UNAL %INIT(0*0)%CHARTEXT('/**/'),
      191+    6583                                /* RELATION : required relation of JDSTEPCC
      192+    6584                                              with STEPCC of FOLLOWed job.
      193+    6585                                              Only for FOLLOW_TYPE = 0. */
      194+    6586
      195+    6587                3 FOLLOW_TYPE UBIN(3) UNAL %INIT(0*0)%CHARTEXT('/**/'),
      196+    6588                                /* FOLLOW_TYPE: for FOLLOW(name(STEPCC...)),
      197+    6589                                                  FOLLOW_TYPE = 0;
      198+    6590                                                for FOLLOW(name(OK)) or
      199+    6591                                                  FOLLOW_TYPE = 1.
      200+    6592                                                    FOLLOW(name(ERROR)) or
      201+    6593                                                  FOLLOW_TYPE = 2.
PL6.E3A0      #001=B_CNTRL_D File=B_CNTRL_D.:E05TSI                              TUE 07/29/97 11:07 Page:69
      202+    6594                                                    FOLLOW(name(ABORT)),
      203+    6595                                                  FOLLOW_TYPE = 3.
      204+    6596                                                for FOLLOW,
      205+    6597                                                  FOLLOW_TYPE = 4. */
      206+    6598
      207+    6599                3 * UBIN(11) UNAL %INIT(0*0)%CHARTEXT('/**/'),
      208+    6600
      209+    6601                3 SATISFIED BIT(1) UNAL %INIT('0'B*0)%CHARTEXT('/**/'),
      210+    6602                                /* SATISFIED: set if FOLLOW condition
      211+    6603                                              has been satisfied. */
      212+    6604
      213+    6605                3 SYSID UBIN(18) UNAL %INIT(0*0)%CHARTEXT('/**/'),
      214+    6606                                /* SYSID    : SYSID of FOLLOWed job. */
      215+    6607
      216+    6608              2 JDSTEPCC(0:7) UBIN(9) UNAL %INIT(0*0)%CHARTEXT('/**/'),
      217+    6609                                /* JDSTEPCC : STEPCC limit value which,
      218+    6610                                              together with JDID.RELATION,
      219+    6611                                              and the STEPCC of the FOLLOWed
      220+    6612                                              job, determines whether the
      221+    6613                                              FOLLOWer runs or is deleted.
      222+    6614                                              Only for FOLLOW_TYPE = 0. */
      223+    6615
      224+    6616              2 RRT(0:11) UBIN(18) UNAL %INIT(0*12)%CHARTEXT('/**/'),
      225+    6617                                /* RRT      : table of requirement counts
      226+    6618                                              for resources, indexed by
      227+    6619                                              JM$RIT.VNUM. */
      228+    6620
      229+    6621              2 ORIGINATOR_MODE UBIN(4) UNAL %INIT(0)%CHARTEXT('/**/'),
      230+    6622                                /* ORIGINATOR_MODE: from FS$JOBORIG. */
      231+    6623
      232+    6624              2 ORIGINATOR_PORT,
      233+    6625                                /* ORIGINATOR_PORT: from FS$JOBORIG. */
      234+    6626                3 * UBIN %INIT(0)%CHARTEXT('/**/'),
      235+    6627                3 * UBIN %INIT(0)%CHARTEXT('/**/'),
      236+    6628                3 * UBIN %INIT(0)%CHARTEXT('/**/'),
      237+    6629
      238+    6630              2 * UBIN %INIT(0)%CHARTEXT('/**/'),
PL6.E3A0      #001=B_CNTRL_D File=B_CNTRL_D.:E05TSI                              TUE 07/29/97 11:07 Page:70
      239+    6631              2 * UBIN %INIT(0)%CHARTEXT('/**/'),
      240+    6632              2 * UBIN %INIT(0)%CHARTEXT('/**/'),
      241+    6633
      242+    6634              2 JNL UBIN BYTE CALIGNED %INIT(0)%CHARTEXT('/**/'),
      243+    6635                                /* JNL      : number of significant chars
      244+    6636                                              in JNAME. */
      245+    6637
      246+    6638         %IF ((SUBSTR(STR,0,6)='STATIC') OR
      247+    6639         (SUBSTR(STR,0,8)='CONSTANT') OR
      248+    6640         (SUBSTR(STR,0,6)='AUTO') OR
      249+    6641         (SUBSTR(STR,0,3)='EXT')) OR
      250+    6642         (((SUBSTR(STR,0,6)='      ') OR
      251+    6643           (SUBSTR(STR,0,6)='SYMREF')) AND VARILEN=0);
      252+    6644              2 JNAME CHAR(31) CALIGNED %INIT(' ')%CHARTEXT('/**/');
      253+    6645                                /* JNAME    : JOBNAME. */
      254+    6646
      255+    6647         %ELSE;
      256+    6648              2 JNAME CHAR(FPTN.JNL) CALIGNED;
      257+    6649         %ENDIF;
      258+    6650        %MEND;
      259+    6651        /**/
      260+    6652        /**/
      261+    6653        /*D* NAME:         JM_SN
      262+    6654             PURPOSE:      To define SN (packset) information for MBS
      263+    6655             DESCRIPTION:  This structure contains the information about
      264+    6656                           a single packset.  When present in MBS tables,
      265+    6657                           it is of type MBS and contains a link; when
      266+    6658                           present in a JM_SNLIST, it is of type LIST
      267+    6659                           and contains no link. */
      268+    6660        %MACRO JM_SN (FPTN=JM_SN,LVL=1,LAST=";",ARRAY="",
      269+    6661                 TYP       (MBS=1,LIST=2)=1,
      270+    6662                 STCLASS   = STATIC);
      271+    6663
      272+    6664         %LSET LISTDIR='0'B;
      273+    6665         %LSET LISTEXP='1'B;
      274+    6666         %LSET LISTCOM='0'B;
      275+    6667         %LSET LISTSUB='1'B;
PL6.E3A0      #001=B_CNTRL_D File=B_CNTRL_D.:E05TSI                              TUE 07/29/97 11:07 Page:71
      276+    6668         %LSET STR=CONCAT(TEXTCHAR(STCLASS),'        ');
      277+    6669         %IF (SUBSTR(STR,0,6)='STATIC') OR
      278+    6670         (SUBSTR(STR,0,8)='CONSTANT') OR
      279+    6671         (SUBSTR(STR,0,3)='EXT');
      280+    6672         %LSET INIT=CHARTEXT('INIT');
      281+    6673         %ELSE;
      282+    6674         %LSET INIT=CHARTEXT('/*');
      283+    6675         %ENDIF;
      284+    6676
      285+    6677             /*!* VP Y */
      286+    6678         %IF LVL=1;
      287+    6679        DCL 1 FPTN STCLASS ALIGNED,
      288+    6680         %ELSE;
      289+    6681            %LVL FPTN ARRAY ALIGNED,
      290+    6682         %ENDIF;
      291+    6683             /*!* VP N */
      292+    6684
      293+    6685              %(LVL+1) TXT CHAR(6) CALIGNED %INIT(' '*0)%CHARTEXT('/**/'),
      294+    6686                                /* TXT      : the packset name.                     */
      295+    6687
      296+    6688              %(LVL+1) FLGS,
      297+    6689                                /* FLGS     : attribute flags.                      */
      298+    6690
      299+    6691                %(LVL+2) PUB BIT(1) UNAL %INIT('0'B*0)%CHARTEXT('/**/'),
      300+    6692                                /* PUB      : public usage.                         */
      301+    6693
      302+    6694                %(LVL+2) EXCL BIT(1) UNAL %INIT('0'B*0)%CHARTEXT('/**/'),
      303+    6695                                /* EXCL     : exclusive usage.                      */
      304+    6696
      305+    6697            %IF TYP=1; /* MBS */
      306+    6698
      307+    6699                %(LVL+2) * BIT(7) UNAL %INIT('0'B*0)%CHARTEXT('/**/'),
      308+    6700
      309+    6701              %(LVL+1) * UBIN BYTE UNAL %INIT(0*0)%CHARTEXT('/**/'),
      310+    6702
      311+    6703              %(LVL+1) NXT$ PTR %INIT(ADDR(NIL)*0)%CHARTEXT('/**/') LAST
      312+    6704                                /* NXT$     : link in chain.                        */
PL6.E3A0      #001=B_CNTRL_D File=B_CNTRL_D.:E05TSI                              TUE 07/29/97 11:07 Page:72
      313+    6705
      314+    6706            %ELSE;     /* LIST */
      315+    6707
      316+    6708              %(LVL+1) * BIT(4) UNAL %INIT('0'B*0)%CHARTEXT('/**/'),
      317+    6709
      318+    6710              %(LVL+1) DISP UBIN(3) UNAL %INIT(0*0)%CHARTEXT('/**/') LAST
      319+    6711                                /* DISP     : Flag internal to PRESCAN */
      320+    6712
      321+    6713            %ENDIF;
      322+    6714        %MEND;
      323+    6715        /**/
      324+    6716        /**/
      325+    6717        /*D* NAME:         JM_SNLIST
      326+    6718             PURPOSE:      To generate a list of JM_SN entries
      327+    6719             DESCRIPTION:  This structure is used by PRESCAN to build
      328+    6720                           a table of JM_SN entries, to put into the
      329+    6721                           job file FIT.  If FIT is specified as YES,
      330+    6722                           then a count word COUNT is generated for
      331+    6723                           use on the M$CLOSE. */
      332+    6724        %MACRO JM_SNLIST (FPTN=JM_SNLIST,
      333+    6725                 FIT       (YES=1,NO=0)=0,
      334+    6726                 ARRAY     ="",
      335+    6727                 STCLASS   = STATIC);
      336+    6728
      337+    6729         %LSET LISTDIR='0'B;
      338+    6730         %LSET LISTEXP='1'B;
      339+    6731         %LSET LISTCOM='0'B;
      340+    6732         %LSET LISTSUB='1'B;
      341+    6733         %LSET STR=CONCAT(TEXTCHAR(STCLASS),'        ');
      342+    6734         %IF (SUBSTR(STR,0,6)='STATIC') OR
      343+    6735         (SUBSTR(STR,0,8)='CONSTANT') OR
      344+    6736         (SUBSTR(STR,0,3)='EXT');
      345+    6737         %LSET INIT=CHARTEXT('INIT');
      346+    6738         %ELSE;
      347+    6739         %LSET INIT=CHARTEXT('/*');
      348+    6740         %ENDIF;
      349+    6741
PL6.E3A0      #001=B_CNTRL_D File=B_CNTRL_D.:E05TSI                              TUE 07/29/97 11:07 Page:73
      350+    6742        DCL 1 FPTN STCLASS ALIGNED,
      351+    6743            %IF FIT=1;
      352+    6744              2 COUNT UBIN %INIT(SIZEW(FPTN))%CHARTEXT('/**/'),
      353+    6745            %ENDIF;
      354+    6746
      355+    6747              %JM_SN (FPTN=SN,LVL=2,TYP=LIST,ARRAY=ARRAY,STCLASS=STCLASS);
      356+    6748        %MEND;
      357+    6749        /**/
      358+    6750        /**/
      359+    6751        /*D* NAME:         JM_RES
      360+    6752             PURPOSE:      To define resource information for MBS
      361+    6753             DESCRIPTION:  This structure contains the information
      362+    6754                           describing a single resource requirement.
      363+    6755                           When present in MBS tables, it is of type
      364+    6756                           MBS, and contains a link; when present
      365+    6757                           in a JM_RESLIST, it is of type LIST
      366+    6758                           and contains no link. */
      367+    6759        %MACRO JM_RES (FPTN=JM_RES,LVL=1,LAST=";",ARRAY="",
      368+    6760                 TYP       (MBS=1,LIST=2)=1,
      369+    6761                 STCLASS   = STATIC);
      370+    6762
      371+    6763         %LSET LISTDIR='0'B;
      372+    6764         %LSET LISTEXP='1'B;
      373+    6765         %LSET LISTCOM='0'B;
      374+    6766         %LSET LISTSUB='1'B;
      375+    6767         %LSET STR=CONCAT(TEXTCHAR(STCLASS),'        ');
      376+    6768         %IF (SUBSTR(STR,0,6)='STATIC') OR
      377+    6769         (SUBSTR(STR,0,8)='CONSTANT') OR
      378+    6770         (SUBSTR(STR,0,3)='EXT');
      379+    6771         %LSET INIT=CHARTEXT('INIT');
      380+    6772         %ELSE;
      381+    6773         %LSET INIT=CHARTEXT('/*');
      382+    6774         %ENDIF;
      383+    6775
      384+    6776             /*!* VP Y */
      385+    6777         %IF LVL=1;
      386+    6778        DCL 1 FPTN ARRAY STCLASS ALIGNED,
PL6.E3A0      #001=B_CNTRL_D File=B_CNTRL_D.:E05TSI                              TUE 07/29/97 11:07 Page:74
      387+    6779         %ELSE;
      388+    6780            %LVL FPTN ARRAY ALIGNED,
      389+    6781         %ENDIF;
      390+    6782             /*!* VP N */
      391+    6783
      392+    6784              %(LVL+1) TYPE CHAR(2) UNAL %INIT(' '*0)%CHARTEXT('/**/'),
      393+    6785                                /* TYPE     : Resource type.                        */
      394+    6786
      395+    6787              %(LVL+1) VNUM CHAR(2) UNAL %INIT(' '*0)%CHARTEXT('/**/'),
      396+    6788                                /* VNUM     : Virtual resource number.              */
      397+    6789
      398+    6790              %(LVL+1) VNUMB REDEF VNUM UBIN HALF HALIGNED,
      399+    6791                                /* VNUMB    : ubin redef of VNUM for PRESCAN.       */
      400+    6792
      401+    6793              %(LVL+1) ATTRS BIT(18) UNAL %INIT('0'B*0)%CHARTEXT('/**/'),
      402+    6794                                /* ATTRS    : Requested attrs.                      */
      403+    6795
      404+    6796            %IF TYP = 1; /* MBS */
      405+    6797
      406+    6798              %(LVL+1) NUM UBIN HALF UNAL %INIT(0*0)%CHARTEXT('/**/'),
      407+    6799                                /* NUM      : Number of 'em.                        */
      408+    6800
      409+    6801              %(LVL+1) NXT$ PTR %INIT(ADDR(NIL)*0)%CHARTEXT('/**/') LAST
      410+    6802                                /* NXT$     : link in chain.                        */
      411+    6803
      412+    6804            %ELSE;     /* LIST */
      413+    6805
      414+    6806              %(LVL+1) NUM UBIN HALF UNAL %INIT(0*0)%CHARTEXT('/**/') LAST
      415+    6807
      416+    6808            %ENDIF;
      417+    6809        %MEND;
      418+    6810        /**/
      419+    6811        /**/
      420+    6812        /*D* NAME:         JM_RESLIST
      421+    6813             PURPOSE:      To generate a list of JM_RES entries.
      422+    6814             DESCRIPTION:  Bears same relationship to JM_RES as JM_SNLIST
      423+    6815                           does to JM_SN. */
PL6.E3A0      #001=B_CNTRL_D File=B_CNTRL_D.:E05TSI                              TUE 07/29/97 11:07 Page:75
      424+    6816        %MACRO JM_RESLIST (FPTN=JM_RESLIST,
      425+    6817                 FIT       (YES=1,NO=0)=0,
      426+    6818                 ARRAY     ="",
      427+    6819                 STCLASS   = STATIC);
      428+    6820
      429+    6821         %LSET LISTDIR='0'B;
      430+    6822         %LSET LISTEXP='1'B;
      431+    6823         %LSET LISTCOM='0'B;
      432+    6824         %LSET LISTSUB='1'B;
      433+    6825         %LSET STR=CONCAT(TEXTCHAR(STCLASS),'        ');
      434+    6826         %IF (SUBSTR(STR,0,6)='STATIC') OR
      435+    6827         (SUBSTR(STR,0,8)='CONSTANT') OR
      436+    6828         (SUBSTR(STR,0,3)='EXT');
      437+    6829         %LSET INIT=CHARTEXT('INIT');
      438+    6830         %ELSE;
      439+    6831         %LSET INIT=CHARTEXT('/*');
      440+    6832         %ENDIF;
      441+    6833
      442+    6834        DCL 1 FPTN STCLASS ALIGNED,
      443+    6835            %IF FIT=1;
      444+    6836              2 COUNT UBIN %INIT(SIZEW(FPTN))%CHARTEXT('/**/'),
      445+    6837            %ENDIF;
      446+    6838
      447+    6839              %JM_RES (FPTN=RES,LVL=2,TYP=LIST,ARRAY=ARRAY,STCLASS=STCLASS);
      448+    6840        %MEND;
      449+    6841        /**/
      450+    6842        /**/
      451+    6843        /*D* NAME:         JM_PART
      452+    6844             PURPOSE:      To contain partition info for MBS
      453+    6845             DESCRIPTION:  Each partition has one of these structures,
      454+    6846                           containing the information pertinant to that
      455+    6847                           partition. */
      456+    6848        %MACRO JM_PART (FPTN=JM_PART,STCLASS=STATIC,LVL=1,LAST=";");
      457+    6849
      458+    6850         %LSET LISTDIR='0'B;
      459+    6851         %LSET LISTEXP='1'B;
      460+    6852         %LSET LISTCOM='0'B;
PL6.E3A0      #001=B_CNTRL_D File=B_CNTRL_D.:E05TSI                              TUE 07/29/97 11:07 Page:76
      461+    6853         %LSET LISTSUB='1'B;
      462+    6854         %LSET STR=CONCAT(TEXTCHAR(STCLASS),'        ');
      463+    6855         %IF (SUBSTR(STR,0,6)='STATIC') OR
      464+    6856         (SUBSTR(STR,0,8)='CONSTANT') OR
      465+    6857         (SUBSTR(STR,0,3)='EXT');
      466+    6858         %LSET INIT=CHARTEXT('INIT');
      467+    6859         %ELSE;
      468+    6860         %LSET INIT=CHARTEXT('/*');
      469+    6861         %ENDIF;
      470+    6862
      471+    6863             /*!* VP Y */
      472+    6864         %IF LVL=1;
      473+    6865        DCL 1 FPTN STCLASS ALIGNED,
      474+    6866         %ELSE;
      475+    6867            %LVL FPTN ALIGNED,
      476+    6868         %ENDIF;
      477+    6869             /*!* VP N */
      478+    6870
      479+    6871              %(LVL+1) TL UBIN %INIT(0)%CHARTEXT('/**/'),
      480+    6872                                /* TL       : Lower time limit (1/100 sec)          */
      481+    6873
      482+    6874              %(LVL+1) TU UBIN %INIT(9999999999)%CHARTEXT('/**/'),
      483+    6875                                /* TU       : Upper time limit                      */
      484+    6876
      485+    6877              %(LVL+1) QUAN UBIN %INIT(500000)%CHARTEXT('/**/'),
      486+    6878                                /* QUAN     : Quantum in microseconds               */
      487+    6879
      488+    6880              %(LVL+1) MAX UBIN BYTE UNAL %INIT(2)%CHARTEXT('/**/'),
      489+    6881                                /* MAX      : Max # jobs allowed in this partition  */
      490+    6882
      491+    6883              %(LVL+1) CUR UBIN BYTE UNAL %INIT(0)%CHARTEXT('/**/'),
      492+    6884                                /* CUR      : Current # jobs....                    */
      493+    6885
      494+    6886              %(LVL+1) CPTOT UBIN HALF HALIGNED %INIT(0)%CHARTEXT('/**/'),
      495+    6887                                /* CPTOT    : Total jobs run in this partition
      496+    6888                                              with current partition definitions.   */
      497+    6889
PL6.E3A0      #001=B_CNTRL_D File=B_CNTRL_D.:E05TSI                              TUE 07/29/97 11:07 Page:77
      498+    6890              %(LVL+1) TOT UBIN HALF HALIGNED %INIT(0)%CHARTEXT('/**/'),
      499+    6891                                /* TOT      : Total jobs run in this part.          */
      500+    6892
      501+    6893              %(LVL+1) XPRIO UBIN BYTE UNAL %INIT(1)%CHARTEXT('/**/'),
      502+    6894                                /* XPRIO    : Base execution prio.                  */
      503+    6895
      504+    6896              %(LVL+1) FLG,
      505+    6897                                /* FLG      : control flags.                        */
      506+    6898
      507+    6899                %(LVL+2) * BIT(8) UNAL %INIT('0'B)%CHARTEXT('/**/'),
      508+    6900
      509+    6901                %(LVL+2) LOCK BIT(1) UNAL %INIT('0'B)%CHARTEXT('/**/'),
      510+    6902                                /* LOCK     : partition is locked.                  */
      511+    6903
      512+    6904              %(LVL+1) * UBIN(27) UNAL %INIT(0)%CHARTEXT('/**/'),
      513+    6905
      514+    6906              %(LVL+1) MAX1ACCT UBIN BYTE UNAL %INIT(511)%CHARTEXT('/**/'),
      515+    6907                                /* MAX1ACCT : max # jobs from any single
      516+    6908                                              account that can run in this
      517+    6909                                              partition.                            */
      518+    6910
      519+    6911              %(LVL+1) JOB$ PTR %INIT(ADDR(NIL))%CHARTEXT('/**/'),
      520+    6912                                /* JOB$     : MBS pointer to job's JM$IF            */
      521+    6913
      522+    6914              %(LVL+1) RMAX (0:11) UBIN(18) UNAL %INIT(511,4,4,0*0)%CHARTEXT('/**/'),
      523+    6915                                /* RMAX     : Maximum resources allowed, indexed
      524+    6916                                              as for JM_IF.RRT.                     */
      525+    6917
      526+    6918              %(LVL+1) RMIN (0:11) UBIN(18) UNAL %INIT(0*0)%CHARTEXT('/**/') LAST
      527+    6919                                /* RMIN     : Minimum resources allowed.            */
      528+    6920        %MEND;
      529+    6921        /**/
      530+    6922        /**/
      531+    6923        /*D* NAME:         JM_CITE
      532+    6924             PURPOSE:      To provide a structure for events passed to
      533+    6925                           MBS
      534+    6926             DESCRIPTION:  Events passed to MBS from the outside world
PL6.E3A0      #001=B_CNTRL_D File=B_CNTRL_D.:E05TSI                              TUE 07/29/97 11:07 Page:78
      535+    6927                           use this structure.  Currently, all of these
      536+    6928                           events take the form of an JM_CITE written to
      537+    6929                           MBS thru the CSCG.  In particular, any
      538+    6930                           message written thru CSCG to MBS is assumed
      539+    6931                           to take this form unless it comes from KEYIN
      540+    6932                           (in which case it's a keyin).
      541+    6933
      542+    6934                           Depending on the event being cited, the stucture
      543+    6935                           can take the various forms generated according
      544+    6936                           to TYP.
      545+    6937        */
      546+    6938        %MACRO JM_CITE (FPTN=JM_CITE,LVL=1,LAST=";",
      547+    6939                 TYP       (JOB=1)=1,
      548+    6940                 COD       = 0,
      549+    6941                 STCLASS   = STATIC);
      550+    6942
      551+    6943         %LSET LISTDIR='0'B;
      552+    6944         %LSET LISTEXP='1'B;
      553+    6945         %LSET LISTCOM='0'B;
      554+    6946         %LSET LISTSUB='1'B;
      555+    6947         %LSET STR=CONCAT(TEXTCHAR(STCLASS),'        ');
      556+    6948         %IF (SUBSTR(STR,0,6)='STATIC') OR
      557+    6949         (SUBSTR(STR,0,8)='CONSTANT') OR
      558+    6950         (SUBSTR(STR,0,3)='EXT');
      559+    6951         %LSET INIT=CHARTEXT('INIT');
      560+    6952         %ELSE;
      561+    6953         %LSET INIT=CHARTEXT('/*');
      562+    6954         %ENDIF;
      563+    6955
      564+    6956             /*!* VP Y */
      565+    6957         %IF LVL=1;
      566+    6958        DCL 1 FPTN STCLASS ALIGNED,
      567+    6959         %ELSE;
      568+    6960            %LVL FPTN ALIGNED,
      569+    6961         %ENDIF;
      570+    6962             /*!* VP N */
      571+    6963
PL6.E3A0      #001=B_CNTRL_D File=B_CNTRL_D.:E05TSI                              TUE 07/29/97 11:07 Page:79
      572+    6964              %(LVL+1) CODE UBIN HALF HALIGNED %INIT(COD*0)%CHARTEXT('/**/'),
      573+    6965                                /* CODE     : JMEV_XXXX#; identifies the event
      574+    6966                                              being cited. */
      575+    6967
      576+    6968            %IF TYP=1; /* General JOB/SYSID structure used for many events */
      577+    6969
      578+    6970              %(LVL+1) SYSID UBIN HALF HALIGNED %INIT(0*0)%CHARTEXT('/**/'),
      579+    6971                                /* SYSID    : the SYSID of the selected job.        */
      580+    6972
      581+    6973              %(LVL+1) SUBCODE UBIN %INIT(0*0)%CHARTEXT('/**/'),
      582+    6974                                /* SUBCODE  : further information.                  */
      583+    6975
      584+    6976              %(LVL+1) RECOVERED BIT(1) UNAL %INIT('0'B*0)%CHARTEXT('/**/'),
      585+    6977                                /* RECOVERED: set if event generated by
      586+    6978                                              MBS recovery.                         */
      587+    6979
      588+    6980              %(LVL+1) * BIT(27) UNAL %INIT('0'B*0)%CHARTEXT('/**/'),
      589+    6981
      590+    6982              %(LVL+1) ACCT CHAR(8) UNAL %INIT(' '*0)%CHARTEXT('/**/'),
      591+    6983                                /* ACCT     : account involved (e.g. for
      592+    6984                                              cancel).                              */
      593+    6985
      594+    6986              %(LVL+1) JOFF_INFO REDEF ACCT,
      595+    6987                                /* JOFF_INFO: additional information for
      596+    6988                                              the "job off" event.                  */
      597+    6989
      598+    6990
      599+    6991                %(LVL+2) STATUS UBIN,
      600+    6992                                /* STATUS   : Status of exiting job.
      601+    6993                                              Assumed = %FIN_COMPLETED# for
      602+    6994                                              real JOFF events.  Filled in
      603+    6995                                              with %MBS_xxxx for internally
      604+    6996                                              generated (faked) JOFF events.
      605+    6997                                              See JMR$CHECK_JD.                     */
      606+    6998
      607+    6999                %(LVL+2) FRS UBIN LAST
      608+    7000                                /* FRS      : Final-Run-Status
PL6.E3A0      #001=B_CNTRL_D File=B_CNTRL_D.:E05TSI                              TUE 07/29/97 11:07 Page:80
      609+    7001                                              of exiting job.                       */
      610+    7002
      611+    7003            %ENDIF;
      612+    7004        %MEND;
      613+    7005        /**/
      614+    7006        /**/
      615+    7007        /*D* NAME:         JM_EVENT
      616+    7008             PURPOSE:      To define the structure of an event on the MBS
      617+    7009                           event queue.
      618+    7010             DESCRIPTION:  Each event on MBS's internal queue has this
      619+    7011                           structure. */
      620+    7012        %MACRO JM_EVENT (FPTN=JM_EVENT,LVL=1,LAST=";",COD=0,ARRAY="",STCLASS=STATIC);
      621+    7013
      622+    7014         %LSET LISTDIR='0'B;
      623+    7015         %LSET LISTEXP='1'B;
      624+    7016         %LSET LISTCOM='0'B;
      625+    7017         %LSET LISTSUB='1'B;
      626+    7018         %LSET STR=CONCAT(TEXTCHAR(STCLASS),'        ');
      627+    7019         %IF (SUBSTR(STR,0,6)='STATIC') OR
      628+    7020         (SUBSTR(STR,0,8)='CONSTANT') OR
      629+    7021         (SUBSTR(STR,0,3)='EXT');
      630+    7022         %LSET INIT=CHARTEXT('INIT');
      631+    7023         %ELSE;
      632+    7024         %LSET INIT=CHARTEXT('/*');
      633+    7025         %ENDIF;
      634+    7026
      635+    7027             /*!* VP Y */
      636+    7028         %IF LVL=1;
      637+    7029        DCL 1 FPTN ARRAY STCLASS ALIGNED,
      638+    7030         %ELSE;
      639+    7031            %LVL FPTN ARRAY ALIGNED,
      640+    7032         %ENDIF;
      641+    7033        %LSET LVL2=%(LVL+1);
      642+    7034             /*!* VP N */
      643+    7035
      644+    7036              %(LVL+1) LNK$ PTR UNAL %INIT(ADDR(NIL)*0)%CHARTEXT('/**/'),
      645+    7037                                /* LNK$     : link in chain.                        */
PL6.E3A0      #001=B_CNTRL_D File=B_CNTRL_D.:E05TSI                              TUE 07/29/97 11:07 Page:81
      646+    7038
      647+    7039              %(LVL+1) CODE UBIN HALF UNAL %INIT(COD*0)%CHARTEXT('/**/'),
      648+    7040                                /* CODE     : event code (JMEV_XXXX#).              */
      649+    7041
      650+    7042              %(LVL+1) ENDAC UBIN HALF UNAL %INIT(0*0)%CHARTEXT('/**/'),
      651+    7043                                /* ENDAC    : code (JMEA_XXXX#) indicating
      652+    7044                                              what action to take after
      653+    7045                                              processing the event.                 */
      654+    7046
      655+    7047              %(LVL+1) CITE$ PTR %INIT(ADDR(NIL)*0)%CHARTEXT('/**/'),
      656+    7048                                /* CITE$    : points to JM_CITE frame for
      657+    7049                                              this event.                           */
      658+    7050
      659+    7051              %JM_CITE (FPTN=CITE,LVL=LVL2,LAST=LAST,STCLASS=STCLASS);
      660+    7052                                /* CITE     : provides a place to put
      661+    7053                                              the JM_CITE info directly
      662+    7054                                              in the event frame.                   */
      663+    7055
      664+    7056        %MEND;
      665+    7057        /**/
      666+    7058        /**/
      667+    7059        /*D* NAME:         JM_KEYIN
      668+    7060             PURPOSE:      To define the structure of KEYINs passed to
      669+    7061                           MBS.
      670+    7062             DESCRIPTION:  This structure defines the KEYINs received
      671+    7063                           by MBS. */
      672+    7064        %MACRO JM_KEYIN (FPTN=JM_KEYIN,LVL=1,LAST=";",
      673+    7065                 TYP       (PRIO=1,RERUN=2,ALL=3)=1,
      674+    7066                 KIN       = 0,
      675+    7067                 STCLASS   = STATIC);
      676+    7068
      677+    7069         %LSET LISTDIR='0'B;
      678+    7070         %LSET LISTEXP='1'B;
      679+    7071         %LSET LISTCOM='0'B;
      680+    7072         %LSET LISTSUB='1'B;
      681+    7073         %LSET STR=CONCAT(TEXTCHAR(STCLASS),'        ');
      682+    7074         %IF (SUBSTR(STR,0,6)='STATIC') OR
PL6.E3A0      #001=B_CNTRL_D File=B_CNTRL_D.:E05TSI                              TUE 07/29/97 11:07 Page:82
      683+    7075         (SUBSTR(STR,0,8)='CONSTANT') OR
      684+    7076         (SUBSTR(STR,0,3)='EXT');
      685+    7077         %LSET INIT=CHARTEXT('INIT');
      686+    7078         %ELSE;
      687+    7079         %LSET INIT=CHARTEXT('/*');
      688+    7080         %ENDIF;
      689+    7081
      690+    7082             /*!* VP Y */
      691+    7083         %IF LVL=1;
      692+    7084        DCL 1 FPTN STCLASS ALIGNED,
      693+    7085         %ELSE;
      694+    7086            %LVL FPTN ALIGNED,
      695+    7087         %ENDIF;
      696+    7088             /*!* VP N */
      697+    7089
      698+    7090              %(LVL+1) KIN# UBIN HALF UNAL %INIT(KIN)%CHARTEXT('/**/'),
      699+    7091                                /* KIN#     : the keyin code (KEY_XXXX#).           */
      700+    7092
      701+    7093              %(LVL+1) CADDR BIT(18) UNAL %INIT('0'B)%CHARTEXT('/**/'),
      702+    7094                                /* CADDR    : the address of the console
      703+    7095                                              which issued the keyin.               */
      704+    7096
      705+    7097              %(LVL+1) SYSID UBIN HALF UNAL %INIT(0)%CHARTEXT('/**/'),
      706+    7098                                /* SYSID    : SYSID of job involved (if
      707+    7099                                              applicable).                          */
      708+    7100
      709+    7101              %(LVL+1) * UBIN BYTE UNAL %INIT(0)%CHARTEXT('/**/'),
      710+    7102
      711+    7103              %(LVL+1) CPRIO UBIN BYTE UNAL %INIT(0)%CHARTEXT('/**/'),
      712+    7104                                /* CPRIO    : max prio that this console
      713+    7105                                              can put jobs up to                    */
      714+    7106
      715+    7107              %(LVL+1) WSN CHAR(8) UNAL %INIT(' ')%CHARTEXT('/**/'),
      716+    7108                                /* WSN      : WSN of issuing console; used
      717+    7109                                              ensure that the console is allowed
      718+    7110                                              to muck with the selected job.        */
      719+    7111
PL6.E3A0      #001=B_CNTRL_D File=B_CNTRL_D.:E05TSI                              TUE 07/29/97 11:07 Page:83
      720+    7112            %IF TYP=1;    /*PRIO*/
      721+    7113              %(LVL+1) PRIO UBIN %INIT(0)%CHARTEXT('/**/') LAST
      722+    7114                                /* PRIO     : desired new prio for SYSID.           */
      723+    7115
      724+    7116            %ELSEIF TYP=2;/*RERUN*/
      725+    7117              %(LVL+1) SELECTION SBIN %INIT(0)%CHARTEXT('/**/') LAST
      726+    7118                                /* SELECTION: = 0 ---> !RERUN SYSID
      727+    7119                                              < 0 ---> !RERUN ALL
      728+    7120                                              > 0 ---> !ZAP                         */
      729+    7121
      730+    7122            %ELSEIF TYP=3;/*'ALL' E.G. DELETEIALL, PRIOIALL */
      731+    7123              %(LVL+1) ACCT CHAR(8) %INIT(' ')%CHARTEXT('/**/'),
      732+    7124                                /* ACCT     : if nonblank, restricts the
      733+    7125                                              operation to this account.            */
      734+    7126
      735+    7127              %(LVL+1) NEWPRIO SBIN %INIT(0)%CHARTEXT('/**/'),
      736+    7128                                /* NEWPRIO  : for PRIOALL, the desired prio.        */
      737+    7129
      738+    7130              %(LVL+1) OLDPRIO SBIN %INIT(0)%CHARTEXT('/**/') LAST
      739+    7131                                /* OLDPRIO  : for PRIOALL, -1 means operate
      740+    7132                                              on all jobs, else operate only
      741+    7133                                              on those at this prio.                */
      742+    7134
      743+    7135            %ENDIF;
      744+    7136        %MEND;
       16+    7137        /*!$R!*/
       17+    7138    1   DCL 1 JM_PT STATIC SYMDEF,
       18+    7139              %JM_PART (FPTN=PT1 ,LVL=2,LAST=",",STCLASS="STATIC SYMDEF");
              7140         %LSET LISTDIR='0'B;
              7156    1       2 PT1 ALIGNED,
              7159    1         3 TL UBIN INIT(0)/**/,
              7161    1         3 TU UBIN INIT(9999999999)/**/,
              7163    1         3 QUAN UBIN INIT(500000)/**/,
              7165    1         3 MAX UBIN BYTE UNAL INIT(2)/**/,
              7167    1         3 CUR UBIN BYTE UNAL INIT(0)/**/,
              7169    1         3 CPTOT UBIN HALF HALIGNED INIT(0)/**/,
              7172    1         3 TOT UBIN HALF HALIGNED INIT(0)/**/,
PL6.E3A0      #001=B_CNTRL_D File=B_CNTRL_D.:E05TSI                              TUE 07/29/97 11:07 Page:84
              7174    1         3 XPRIO UBIN BYTE UNAL INIT(1)/**/,
              7176    1         3 FLG,
              7178    1           4 * BIT(8) UNAL INIT('0'B)/**/,
              7179    1           4 LOCK BIT(1) UNAL INIT('0'B)/**/,
              7181    1         3 * UBIN(27) UNAL INIT(0)/**/,
              7182    1         3 MAX1ACCT UBIN BYTE UNAL INIT(511)/**/,
              7186    1         3 JOB$ PTR INIT(ADDR(NIL))/**/,
              7188    1         3 RMAX (0:11) UBIN(18) UNAL INIT(511,4,4,0*0)/**/,
              7191    1         3 RMIN (0:11) UBIN(18) UNAL INIT(0*0)/**/ ,
       19+    7194              %JM_PART (FPTN=PT2 ,LVL=2,LAST=",",STCLASS="STATIC SYMDEF");
              7195         %LSET LISTDIR='0'B;
              7211    1       2 PT2 ALIGNED,
              7214    1         3 TL UBIN INIT(0)/**/,
              7216    1         3 TU UBIN INIT(9999999999)/**/,
              7218    1         3 QUAN UBIN INIT(500000)/**/,
              7220    1         3 MAX UBIN BYTE UNAL INIT(2)/**/,
              7222    1         3 CUR UBIN BYTE UNAL INIT(0)/**/,
              7224    1         3 CPTOT UBIN HALF HALIGNED INIT(0)/**/,
              7227    1         3 TOT UBIN HALF HALIGNED INIT(0)/**/,
              7229    1         3 XPRIO UBIN BYTE UNAL INIT(1)/**/,
              7231    1         3 FLG,
              7233    1           4 * BIT(8) UNAL INIT('0'B)/**/,
              7234    1           4 LOCK BIT(1) UNAL INIT('0'B)/**/,
              7236    1         3 * UBIN(27) UNAL INIT(0)/**/,
              7237    1         3 MAX1ACCT UBIN BYTE UNAL INIT(511)/**/,
              7241    1         3 JOB$ PTR INIT(ADDR(NIL))/**/,
              7243    1         3 RMAX (0:11) UBIN(18) UNAL INIT(511,4,4,0*0)/**/,
              7246    1         3 RMIN (0:11) UBIN(18) UNAL INIT(0*0)/**/ ,
       20+    7249              %JM_PART (FPTN=PT3 ,LVL=2,LAST=",",STCLASS="STATIC SYMDEF");
              7250         %LSET LISTDIR='0'B;
              7266    1       2 PT3 ALIGNED,
              7269    1         3 TL UBIN INIT(0)/**/,
              7271    1         3 TU UBIN INIT(9999999999)/**/,
              7273    1         3 QUAN UBIN INIT(500000)/**/,
              7275    1         3 MAX UBIN BYTE UNAL INIT(2)/**/,
              7277    1         3 CUR UBIN BYTE UNAL INIT(0)/**/,
              7279    1         3 CPTOT UBIN HALF HALIGNED INIT(0)/**/,
PL6.E3A0      #001=B_CNTRL_D File=B_CNTRL_D.:E05TSI                              TUE 07/29/97 11:07 Page:85
              7282    1         3 TOT UBIN HALF HALIGNED INIT(0)/**/,
              7284    1         3 XPRIO UBIN BYTE UNAL INIT(1)/**/,
              7286    1         3 FLG,
              7288    1           4 * BIT(8) UNAL INIT('0'B)/**/,
              7289    1           4 LOCK BIT(1) UNAL INIT('0'B)/**/,
              7291    1         3 * UBIN(27) UNAL INIT(0)/**/,
              7292    1         3 MAX1ACCT UBIN BYTE UNAL INIT(511)/**/,
              7296    1         3 JOB$ PTR INIT(ADDR(NIL))/**/,
              7298    1         3 RMAX (0:11) UBIN(18) UNAL INIT(511,4,4,0*0)/**/,
              7301    1         3 RMIN (0:11) UBIN(18) UNAL INIT(0*0)/**/ ,
       21+    7304              %JM_PART (FPTN=PT4 ,LVL=2,LAST=",",STCLASS="STATIC SYMDEF");
              7305         %LSET LISTDIR='0'B;
              7321    1       2 PT4 ALIGNED,
              7324    1         3 TL UBIN INIT(0)/**/,
              7326    1         3 TU UBIN INIT(9999999999)/**/,
              7328    1         3 QUAN UBIN INIT(500000)/**/,
              7330    1         3 MAX UBIN BYTE UNAL INIT(2)/**/,
              7332    1         3 CUR UBIN BYTE UNAL INIT(0)/**/,
              7334    1         3 CPTOT UBIN HALF HALIGNED INIT(0)/**/,
              7337    1         3 TOT UBIN HALF HALIGNED INIT(0)/**/,
              7339    1         3 XPRIO UBIN BYTE UNAL INIT(1)/**/,
              7341    1         3 FLG,
              7343    1           4 * BIT(8) UNAL INIT('0'B)/**/,
              7344    1           4 LOCK BIT(1) UNAL INIT('0'B)/**/,
              7346    1         3 * UBIN(27) UNAL INIT(0)/**/,
              7347    1         3 MAX1ACCT UBIN BYTE UNAL INIT(511)/**/,
              7351    1         3 JOB$ PTR INIT(ADDR(NIL))/**/,
              7353    1         3 RMAX (0:11) UBIN(18) UNAL INIT(511,4,4,0*0)/**/,
              7356    1         3 RMIN (0:11) UBIN(18) UNAL INIT(0*0)/**/ ,
       22+    7359              %JM_PART (FPTN=PT5 ,LVL=2,LAST=",",STCLASS="STATIC SYMDEF");
              7360         %LSET LISTDIR='0'B;
              7376    1       2 PT5 ALIGNED,
              7379    1         3 TL UBIN INIT(0)/**/,
              7381    1         3 TU UBIN INIT(9999999999)/**/,
              7383    1         3 QUAN UBIN INIT(500000)/**/,
              7385    1         3 MAX UBIN BYTE UNAL INIT(2)/**/,
              7387    1         3 CUR UBIN BYTE UNAL INIT(0)/**/,
PL6.E3A0      #001=B_CNTRL_D File=B_CNTRL_D.:E05TSI                              TUE 07/29/97 11:07 Page:86
              7389    1         3 CPTOT UBIN HALF HALIGNED INIT(0)/**/,
              7392    1         3 TOT UBIN HALF HALIGNED INIT(0)/**/,
              7394    1         3 XPRIO UBIN BYTE UNAL INIT(1)/**/,
              7396    1         3 FLG,
              7398    1           4 * BIT(8) UNAL INIT('0'B)/**/,
              7399    1           4 LOCK BIT(1) UNAL INIT('0'B)/**/,
              7401    1         3 * UBIN(27) UNAL INIT(0)/**/,
              7402    1         3 MAX1ACCT UBIN BYTE UNAL INIT(511)/**/,
              7406    1         3 JOB$ PTR INIT(ADDR(NIL))/**/,
              7408    1         3 RMAX (0:11) UBIN(18) UNAL INIT(511,4,4,0*0)/**/,
              7411    1         3 RMIN (0:11) UBIN(18) UNAL INIT(0*0)/**/ ,
       23+    7414              %JM_PART (FPTN=PT6 ,LVL=2,LAST=",",STCLASS="STATIC SYMDEF");
              7415         %LSET LISTDIR='0'B;
              7431    1       2 PT6 ALIGNED,
              7434    1         3 TL UBIN INIT(0)/**/,
              7436    1         3 TU UBIN INIT(9999999999)/**/,
              7438    1         3 QUAN UBIN INIT(500000)/**/,
              7440    1         3 MAX UBIN BYTE UNAL INIT(2)/**/,
              7442    1         3 CUR UBIN BYTE UNAL INIT(0)/**/,
              7444    1         3 CPTOT UBIN HALF HALIGNED INIT(0)/**/,
              7447    1         3 TOT UBIN HALF HALIGNED INIT(0)/**/,
              7449    1         3 XPRIO UBIN BYTE UNAL INIT(1)/**/,
              7451    1         3 FLG,
              7453    1           4 * BIT(8) UNAL INIT('0'B)/**/,
              7454    1           4 LOCK BIT(1) UNAL INIT('0'B)/**/,
              7456    1         3 * UBIN(27) UNAL INIT(0)/**/,
              7457    1         3 MAX1ACCT UBIN BYTE UNAL INIT(511)/**/,
              7461    1         3 JOB$ PTR INIT(ADDR(NIL))/**/,
              7463    1         3 RMAX (0:11) UBIN(18) UNAL INIT(511,4,4,0*0)/**/,
              7466    1         3 RMIN (0:11) UBIN(18) UNAL INIT(0*0)/**/ ,
       24+    7469              %JM_PART (FPTN=PT7 ,LVL=2,LAST=",",STCLASS="STATIC SYMDEF");
              7470         %LSET LISTDIR='0'B;
              7486    1       2 PT7 ALIGNED,
              7489    1         3 TL UBIN INIT(0)/**/,
              7491    1         3 TU UBIN INIT(9999999999)/**/,
              7493    1         3 QUAN UBIN INIT(500000)/**/,
              7495    1         3 MAX UBIN BYTE UNAL INIT(2)/**/,
PL6.E3A0      #001=B_CNTRL_D File=B_CNTRL_D.:E05TSI                              TUE 07/29/97 11:07 Page:87
              7497    1         3 CUR UBIN BYTE UNAL INIT(0)/**/,
              7499    1         3 CPTOT UBIN HALF HALIGNED INIT(0)/**/,
              7502    1         3 TOT UBIN HALF HALIGNED INIT(0)/**/,
              7504    1         3 XPRIO UBIN BYTE UNAL INIT(1)/**/,
              7506    1         3 FLG,
              7508    1           4 * BIT(8) UNAL INIT('0'B)/**/,
              7509    1           4 LOCK BIT(1) UNAL INIT('0'B)/**/,
              7511    1         3 * UBIN(27) UNAL INIT(0)/**/,
              7512    1         3 MAX1ACCT UBIN BYTE UNAL INIT(511)/**/,
              7516    1         3 JOB$ PTR INIT(ADDR(NIL))/**/,
              7518    1         3 RMAX (0:11) UBIN(18) UNAL INIT(511,4,4,0*0)/**/,
              7521    1         3 RMIN (0:11) UBIN(18) UNAL INIT(0*0)/**/ ,
       25+    7524              %JM_PART (FPTN=PT8 ,LVL=2,LAST=",",STCLASS="STATIC SYMDEF");
              7525         %LSET LISTDIR='0'B;
              7541    1       2 PT8 ALIGNED,
              7544    1         3 TL UBIN INIT(0)/**/,
              7546    1         3 TU UBIN INIT(9999999999)/**/,
              7548    1         3 QUAN UBIN INIT(500000)/**/,
              7550    1         3 MAX UBIN BYTE UNAL INIT(2)/**/,
              7552    1         3 CUR UBIN BYTE UNAL INIT(0)/**/,
              7554    1         3 CPTOT UBIN HALF HALIGNED INIT(0)/**/,
              7557    1         3 TOT UBIN HALF HALIGNED INIT(0)/**/,
              7559    1         3 XPRIO UBIN BYTE UNAL INIT(1)/**/,
              7561    1         3 FLG,
              7563    1           4 * BIT(8) UNAL INIT('0'B)/**/,
              7564    1           4 LOCK BIT(1) UNAL INIT('0'B)/**/,
              7566    1         3 * UBIN(27) UNAL INIT(0)/**/,
              7567    1         3 MAX1ACCT UBIN BYTE UNAL INIT(511)/**/,
              7571    1         3 JOB$ PTR INIT(ADDR(NIL))/**/,
              7573    1         3 RMAX (0:11) UBIN(18) UNAL INIT(511,4,4,0*0)/**/,
              7576    1         3 RMIN (0:11) UBIN(18) UNAL INIT(0*0)/**/ ,
       26+    7579              %JM_PART (FPTN=PT9 ,LVL=2,LAST=",",STCLASS="STATIC SYMDEF");
              7580         %LSET LISTDIR='0'B;
              7596    1       2 PT9 ALIGNED,
              7599    1         3 TL UBIN INIT(0)/**/,
              7601    1         3 TU UBIN INIT(9999999999)/**/,
              7603    1         3 QUAN UBIN INIT(500000)/**/,
PL6.E3A0      #001=B_CNTRL_D File=B_CNTRL_D.:E05TSI                              TUE 07/29/97 11:07 Page:88
              7605    1         3 MAX UBIN BYTE UNAL INIT(2)/**/,
              7607    1         3 CUR UBIN BYTE UNAL INIT(0)/**/,
              7609    1         3 CPTOT UBIN HALF HALIGNED INIT(0)/**/,
              7612    1         3 TOT UBIN HALF HALIGNED INIT(0)/**/,
              7614    1         3 XPRIO UBIN BYTE UNAL INIT(1)/**/,
              7616    1         3 FLG,
              7618    1           4 * BIT(8) UNAL INIT('0'B)/**/,
              7619    1           4 LOCK BIT(1) UNAL INIT('0'B)/**/,
              7621    1         3 * UBIN(27) UNAL INIT(0)/**/,
              7622    1         3 MAX1ACCT UBIN BYTE UNAL INIT(511)/**/,
              7626    1         3 JOB$ PTR INIT(ADDR(NIL))/**/,
              7628    1         3 RMAX (0:11) UBIN(18) UNAL INIT(511,4,4,0*0)/**/,
              7631    1         3 RMIN (0:11) UBIN(18) UNAL INIT(0*0)/**/ ,
       27+    7634              %JM_PART (FPTN=PT10,LVL=2,LAST=",",STCLASS="STATIC SYMDEF");
              7635         %LSET LISTDIR='0'B;
              7651    1       2 PT10 ALIGNED,
              7654    1         3 TL UBIN INIT(0)/**/,
              7656    1         3 TU UBIN INIT(9999999999)/**/,
              7658    1         3 QUAN UBIN INIT(500000)/**/,
              7660    1         3 MAX UBIN BYTE UNAL INIT(2)/**/,
              7662    1         3 CUR UBIN BYTE UNAL INIT(0)/**/,
              7664    1         3 CPTOT UBIN HALF HALIGNED INIT(0)/**/,
              7667    1         3 TOT UBIN HALF HALIGNED INIT(0)/**/,
              7669    1         3 XPRIO UBIN BYTE UNAL INIT(1)/**/,
              7671    1         3 FLG,
              7673    1           4 * BIT(8) UNAL INIT('0'B)/**/,
              7674    1           4 LOCK BIT(1) UNAL INIT('0'B)/**/,
              7676    1         3 * UBIN(27) UNAL INIT(0)/**/,
              7677    1         3 MAX1ACCT UBIN BYTE UNAL INIT(511)/**/,
              7681    1         3 JOB$ PTR INIT(ADDR(NIL))/**/,
              7683    1         3 RMAX (0:11) UBIN(18) UNAL INIT(511,4,4,0*0)/**/,
              7686    1         3 RMIN (0:11) UBIN(18) UNAL INIT(0*0)/**/ ,
       28+    7689              %JM_PART (FPTN=PT11,LVL=2,LAST=",",STCLASS="STATIC SYMDEF");
              7690         %LSET LISTDIR='0'B;
              7706    1       2 PT11 ALIGNED,
              7709    1         3 TL UBIN INIT(0)/**/,
              7711    1         3 TU UBIN INIT(9999999999)/**/,
PL6.E3A0      #001=B_CNTRL_D File=B_CNTRL_D.:E05TSI                              TUE 07/29/97 11:07 Page:89
              7713    1         3 QUAN UBIN INIT(500000)/**/,
              7715    1         3 MAX UBIN BYTE UNAL INIT(2)/**/,
              7717    1         3 CUR UBIN BYTE UNAL INIT(0)/**/,
              7719    1         3 CPTOT UBIN HALF HALIGNED INIT(0)/**/,
              7722    1         3 TOT UBIN HALF HALIGNED INIT(0)/**/,
              7724    1         3 XPRIO UBIN BYTE UNAL INIT(1)/**/,
              7726    1         3 FLG,
              7728    1           4 * BIT(8) UNAL INIT('0'B)/**/,
              7729    1           4 LOCK BIT(1) UNAL INIT('0'B)/**/,
              7731    1         3 * UBIN(27) UNAL INIT(0)/**/,
              7732    1         3 MAX1ACCT UBIN BYTE UNAL INIT(511)/**/,
              7736    1         3 JOB$ PTR INIT(ADDR(NIL))/**/,
              7738    1         3 RMAX (0:11) UBIN(18) UNAL INIT(511,4,4,0*0)/**/,
              7741    1         3 RMIN (0:11) UBIN(18) UNAL INIT(0*0)/**/ ,
       29+    7744              %JM_PART (FPTN=PT12,LVL=2,LAST=",",STCLASS="STATIC SYMDEF");
              7745         %LSET LISTDIR='0'B;
              7761    1       2 PT12 ALIGNED,
              7764    1         3 TL UBIN INIT(0)/**/,
              7766    1         3 TU UBIN INIT(9999999999)/**/,
              7768    1         3 QUAN UBIN INIT(500000)/**/,
              7770    1         3 MAX UBIN BYTE UNAL INIT(2)/**/,
              7772    1         3 CUR UBIN BYTE UNAL INIT(0)/**/,
              7774    1         3 CPTOT UBIN HALF HALIGNED INIT(0)/**/,
              7777    1         3 TOT UBIN HALF HALIGNED INIT(0)/**/,
              7779    1         3 XPRIO UBIN BYTE UNAL INIT(1)/**/,
              7781    1         3 FLG,
              7783    1           4 * BIT(8) UNAL INIT('0'B)/**/,
              7784    1           4 LOCK BIT(1) UNAL INIT('0'B)/**/,
              7786    1         3 * UBIN(27) UNAL INIT(0)/**/,
              7787    1         3 MAX1ACCT UBIN BYTE UNAL INIT(511)/**/,
              7791    1         3 JOB$ PTR INIT(ADDR(NIL))/**/,
              7793    1         3 RMAX (0:11) UBIN(18) UNAL INIT(511,4,4,0*0)/**/,
              7796    1         3 RMIN (0:11) UBIN(18) UNAL INIT(0*0)/**/ ,
       30+    7799              %JM_PART (FPTN=PT13,LVL=2,LAST=",",STCLASS="STATIC SYMDEF");
              7800         %LSET LISTDIR='0'B;
              7816    1       2 PT13 ALIGNED,
              7819    1         3 TL UBIN INIT(0)/**/,
PL6.E3A0      #001=B_CNTRL_D File=B_CNTRL_D.:E05TSI                              TUE 07/29/97 11:07 Page:90
              7821    1         3 TU UBIN INIT(9999999999)/**/,
              7823    1         3 QUAN UBIN INIT(500000)/**/,
              7825    1         3 MAX UBIN BYTE UNAL INIT(2)/**/,
              7827    1         3 CUR UBIN BYTE UNAL INIT(0)/**/,
              7829    1         3 CPTOT UBIN HALF HALIGNED INIT(0)/**/,
              7832    1         3 TOT UBIN HALF HALIGNED INIT(0)/**/,
              7834    1         3 XPRIO UBIN BYTE UNAL INIT(1)/**/,
              7836    1         3 FLG,
              7838    1           4 * BIT(8) UNAL INIT('0'B)/**/,
              7839    1           4 LOCK BIT(1) UNAL INIT('0'B)/**/,
              7841    1         3 * UBIN(27) UNAL INIT(0)/**/,
              7842    1         3 MAX1ACCT UBIN BYTE UNAL INIT(511)/**/,
              7846    1         3 JOB$ PTR INIT(ADDR(NIL))/**/,
              7848    1         3 RMAX (0:11) UBIN(18) UNAL INIT(511,4,4,0*0)/**/,
              7851    1         3 RMIN (0:11) UBIN(18) UNAL INIT(0*0)/**/ ,
       31+    7854              %JM_PART (FPTN=PT14,LVL=2,LAST=",",STCLASS="STATIC SYMDEF");
              7855         %LSET LISTDIR='0'B;
              7871    1       2 PT14 ALIGNED,
              7874    1         3 TL UBIN INIT(0)/**/,
              7876    1         3 TU UBIN INIT(9999999999)/**/,
              7878    1         3 QUAN UBIN INIT(500000)/**/,
              7880    1         3 MAX UBIN BYTE UNAL INIT(2)/**/,
              7882    1         3 CUR UBIN BYTE UNAL INIT(0)/**/,
              7884    1         3 CPTOT UBIN HALF HALIGNED INIT(0)/**/,
              7887    1         3 TOT UBIN HALF HALIGNED INIT(0)/**/,
              7889    1         3 XPRIO UBIN BYTE UNAL INIT(1)/**/,
              7891    1         3 FLG,
              7893    1           4 * BIT(8) UNAL INIT('0'B)/**/,
              7894    1           4 LOCK BIT(1) UNAL INIT('0'B)/**/,
              7896    1         3 * UBIN(27) UNAL INIT(0)/**/,
              7897    1         3 MAX1ACCT UBIN BYTE UNAL INIT(511)/**/,
              7901    1         3 JOB$ PTR INIT(ADDR(NIL))/**/,
              7903    1         3 RMAX (0:11) UBIN(18) UNAL INIT(511,4,4,0*0)/**/,
              7906    1         3 RMIN (0:11) UBIN(18) UNAL INIT(0*0)/**/ ,
       32+    7909              %JM_PART (FPTN=PT15,LVL=2,LAST=",",STCLASS="STATIC SYMDEF");
              7910         %LSET LISTDIR='0'B;
              7926    1       2 PT15 ALIGNED,
PL6.E3A0      #001=B_CNTRL_D File=B_CNTRL_D.:E05TSI                              TUE 07/29/97 11:07 Page:91
              7929    1         3 TL UBIN INIT(0)/**/,
              7931    1         3 TU UBIN INIT(9999999999)/**/,
              7933    1         3 QUAN UBIN INIT(500000)/**/,
              7935    1         3 MAX UBIN BYTE UNAL INIT(2)/**/,
              7937    1         3 CUR UBIN BYTE UNAL INIT(0)/**/,
              7939    1         3 CPTOT UBIN HALF HALIGNED INIT(0)/**/,
              7942    1         3 TOT UBIN HALF HALIGNED INIT(0)/**/,
              7944    1         3 XPRIO UBIN BYTE UNAL INIT(1)/**/,
              7946    1         3 FLG,
              7948    1           4 * BIT(8) UNAL INIT('0'B)/**/,
              7949    1           4 LOCK BIT(1) UNAL INIT('0'B)/**/,
              7951    1         3 * UBIN(27) UNAL INIT(0)/**/,
              7952    1         3 MAX1ACCT UBIN BYTE UNAL INIT(511)/**/,
              7956    1         3 JOB$ PTR INIT(ADDR(NIL))/**/,
              7958    1         3 RMAX (0:11) UBIN(18) UNAL INIT(511,4,4,0*0)/**/,
              7961    1         3 RMIN (0:11) UBIN(18) UNAL INIT(0*0)/**/ ,
       33+    7964              %JM_PART (FPTN=PT16,LVL=2,LAST=";",STCLASS="STATIC SYMDEF");
              7965         %LSET LISTDIR='0'B;
              7981    1       2 PT16 ALIGNED,
              7984    1         3 TL UBIN INIT(0)/**/,
              7986    1         3 TU UBIN INIT(9999999999)/**/,
              7988    1         3 QUAN UBIN INIT(500000)/**/,
              7990    1         3 MAX UBIN BYTE UNAL INIT(2)/**/,
              7992    1         3 CUR UBIN BYTE UNAL INIT(0)/**/,
              7994    1         3 CPTOT UBIN HALF HALIGNED INIT(0)/**/,
              7997    1         3 TOT UBIN HALF HALIGNED INIT(0)/**/,
              7999    1         3 XPRIO UBIN BYTE UNAL INIT(1)/**/,
              8001    1         3 FLG,
              8003    1           4 * BIT(8) UNAL INIT('0'B)/**/,
              8004    1           4 LOCK BIT(1) UNAL INIT('0'B)/**/,
              8006    1         3 * UBIN(27) UNAL INIT(0)/**/,
              8007    1         3 MAX1ACCT UBIN BYTE UNAL INIT(511)/**/,
              8011    1         3 JOB$ PTR INIT(ADDR(NIL))/**/,
              8013    1         3 RMAX (0:11) UBIN(18) UNAL INIT(511,4,4,0*0)/**/,
              8016    1         3 RMIN (0:11) UBIN(18) UNAL INIT(0*0)/**/ ;
       25     8019        %INCLUDE JS_CNTRL_D;
        1+    8020        /*M*  JS_CNTRL_D   EXTENDED LIMITS FOR EXIT CONTROL  */
PL6.E3A0      #001=B_CNTRL_D File=B_CNTRL_D.:E05TSI                              TUE 07/29/97 11:07 Page:92
        2+    8021        /*T***********************************************************/
        3+    8022        /*T*                                                         */
        4+    8023        /*T* Copyright (c) Bull HN Information Systems Inc., 1997    */
        5+    8024        /*T*                                                         */
        6+    8025        /*T***********************************************************/
        7+    8026
        8+    8027        /*   SYSGEN VALUES FOR EXTENDED LIMITS ON EXIT CONTROL */
        9+    8028
       10+    8029        %SUB U_ETIME=5;
       11+    8030        %SUB A_ETIME=9999;
       12+    8031        %SUB D_ETIME=5;
       13+    8032        %SUB C_ETIME=5;
       14+    8033
       15+    8034        %SUB U_ETMDPRM=5;
       16+    8035        %SUB A_ETMDPRM=10;
       17+    8036        %SUB D_ETMDPRM=15;
       18+    8037        %SUB C_ETMDPRM=20;
       19+    8038
       20+    8039        %SUB U_EPRDPRM=5;
       21+    8040        %SUB A_EPRDPRM=10;
       22+    8041        %SUB D_EPRDPRM=15;
       23+    8042        %SUB C_EPRDPRM=20;
       24+    8043
       25+    8044        %SUB U_EREMCPO=5;
       26+    8045        %SUB A_EREMCPO=10;
       27+    8046        %SUB D_EREMCPO=15;
       28+    8047        %SUB C_EREMCPO=20;
       29+    8048
       30+    8049        %SUB U_EREMLO=5;
       31+    8050        %SUB A_EREMLO=10;
       32+    8051        %SUB D_EREMLO=15;
       33+    8052        %SUB C_EREMLO=20;
       34+    8053
       35+    8054        %SUB U_EREMDO=5;
       36+    8055        %SUB A_EREMDO=10;
       37+    8056        %SUB D_EREMDO=15;
       38+    8057        %SUB C_EREMDO=20;
PL6.E3A0      #001=B_CNTRL_D File=B_CNTRL_D.:E05TSI                              TUE 07/29/97 11:07 Page:93
       39+    8058
       40+    8059
       41+    8060    1   DCL 1 JS_TIME(0:3) STATIC SYMDEF SBIN INIT(
       42+    8061    1         C_ETIME,
       43+    8062    1         D_ETIME,
       44+    8063    1         A_ETIME,
       45+    8064    1         U_ETIME);
       46+    8065    1   DCL 1 JS_TMDPRM(0:3) STATIC SYMDEF SBIN INIT(
       47+    8066    1         C_ETMDPRM,
       48+    8067    1         D_ETMDPRM,
       49+    8068    1         A_ETMDPRM,
       50+    8069    1         U_ETMDPRM);
       51+    8070    1   DCL 1 JS_PRDPRM(0:3) STATIC SYMDEF SBIN INIT(
       52+    8071    1         C_EPRDPRM,
       53+    8072    1         D_EPRDPRM,
       54+    8073    1         A_EPRDPRM,
       55+    8074    1         U_EPRDPRM);
       56+    8075    1   DCL 1 JS_REMCPO(0:3) STATIC SYMDEF SBIN INIT(
       57+    8076    1         C_EREMCPO,
       58+    8077    1         D_EREMCPO,
       59+    8078    1         A_EREMCPO,
       60+    8079    1         U_EREMCPO);
       61+    8080    1   DCL 1 JS_REMLO(0:3) STATIC SYMDEF SBIN INIT(
       62+    8081    1         C_EREMLO,
       63+    8082    1         D_EREMLO,
       64+    8083    1         A_EREMLO,
       65+    8084    1         U_EREMLO);
       66+    8085    1   DCL 1 JS_REMDO(0:3) STATIC SYMDEF SBIN INIT(
       67+    8086    1         C_EREMDO,
       68+    8087    1         D_EREMDO,
       69+    8088    1         A_EREMDO,
       70+    8089    1         U_EREMDO);
       71+    8090        /* Flag for whether or not to consider all run units in the system
       72+    8091           as sharable:  0 = use attributes in HEAD record, 1 = try to share
       73+    8092           all run units, 2 = don't automatically share anything.         */
       74+    8093    1   DCL JS_SHARE_ALL SBIN WORD STATIC SYMDEF INIT(0);
       26     8094        %INCLUDE JZ_CNTRL_D;
PL6.E3A0      #001=B_CNTRL_D File=B_CNTRL_D.:E05TSI                              TUE 07/29/97 11:07 Page:94
        1+    8095        /*M* JZ_CNTRL_D - CONTROLABLE ITEMS FOR FCG JZ   */
        2+    8096        /*T***********************************************************/
        3+    8097        /*T*                                                         */
        4+    8098        /*T* Copyright (c) Bull HN Information Systems Inc., 1997    */
        5+    8099        /*T*                                                         */
        6+    8100        /*T***********************************************************/
        7+    8101        /**/
        8+    8102    1   DCL JZ_RETIM UBIN WORD STATIC SYMDEF INIT(900); /* SECONDS OF RETENTION TIME  */
       27     8103        %INCLUDE MM_CNTRL_D;
        1+    8104        /*M* MM_CNTRL_D - Memory management control parameters */
        2+    8105        /*T***********************************************************/
        3+    8106        /*T*                                                         */
        4+    8107        /*T* Copyright (c) Bull HN Information Systems Inc., 1997    */
        5+    8108        /*T*                                                         */
        6+    8109        /*T***********************************************************/
        7+    8110
        8+    8111        /* Threshold of free pages to print out saturation message */
        9+    8112    1   DCL MM_FREETHRESH UBIN STATIC SYMDEF INIT(256);
       10+    8113
       11+    8114        /* Threshold of free pages to not allow anymore users */
       12+    8115    1   DCL MM_NOUSTHRESH UBIN STATIC SYMDEF INIT(50);
       13+    8116
       14+    8117        /* Relative priorities of pages retained which are not currently in
       15+    8118           use. Smaller numbers imply category is more important. Numbers
       16+    8119           should be between 1 and 100. */
       17+    8120    1   DCL MM_AUTO_PRIO UBIN STATIC SYMDEF INIT (20);
       18+    8121    1   DCL MM_CACHE_PRIO UBIN STATIC SYMDEF INIT (10);
       19+    8122    1   DCL MM_CG_PRIO UBIN STATIC SYMDEF INIT (80);
       20+    8123
       28     8124        %INCLUDE SS_CNTRL_D;
        1+    8125        /*M*  SS_CNTRL_D   SCHEDULER CONTROL DATA DEFINITIONS */
        2+    8126        /*T***********************************************************/
        3+    8127        /*T*                                                         */
        4+    8128        /*T* Copyright (c) Bull HN Information Systems Inc., 1997    */
        5+    8129        /*T*                                                         */
        6+    8130        /*T***********************************************************/
        7+    8131        /*                                                                    */
PL6.E3A0      #001=B_CNTRL_D File=B_CNTRL_D.:E05TSI                              TUE 07/29/97 11:07 Page:95
        8+    8132        /*                                                                    */
        9+    8133        /* !R! */
       10+    8134        /*                                                                    */
       11+    8135    1   DCL S_PRIOB(0:4) SBIN STATIC SYMDEF INIT(1*0); /* BASE EXECUTION PRIORITY*/
       12+    8136    1   DCL SL_MF(0:4) SBIN STATIC SYMDEF INIT(10*0); /* MASTER FNC LIMIT, BY MODE*/
       13+    8137    1   DCL SL_MFU(0:4) SBIN STATIC SYMDEF INIT(4*0); /* MF UNBLOCK LIMIT*/
       14+    8138    1   DCL   SL_IOTA(0:4) SBIN STATIC SYMDEF INIT(0,4000*4);
       15+    8139    1   DCL SL_QUAN SBIN STATIC SYMDEF INIT(200000);/* QUANTUM TIME                   */
       16+    8140    1   DCL SL_QMIN(0:4) SBIN STATIC SYMDEF INIT(0,60000*4);
              8140            /* MIN QUANTUN TIME             */
       29     8141        %INCLUDE UMT_CNTRL_D;
        1+    8142        /*M*    UMT_CNTRL_D     CONTROLable params for timezones        */
        2+    8143        /*T***********************************************************/
        3+    8144        /*T*                                                         */
        4+    8145        /*T* Copyright (c) Bull HN Information Systems Inc., 1997    */
        5+    8146        /*T*                                                         */
        6+    8147        /*T***********************************************************/
        7+    8148
        8+    8149    1   DCL UMT_TIMEZONE CHAR(4) STATIC SYMDEF INIT( '    ');
        9+    8150    1   DCL UMT_UTC_OFFSET SBIN STATIC SYMDEF INIT( 0);  /* in centiseconds */
       30     8151        %INCLUDE UQ_CNTRL_D;
        1+    8152        /*M*     UQ_CNTRL_D - ENQ/DEQ CONTROLABLE ITEMS            */
        2+    8153        /*T***********************************************************/
        3+    8154        /*T*                                                         */
        4+    8155        /*T* Copyright (c) Bull HN Information Systems Inc., 1997    */
        5+    8156        /*T*                                                         */
        6+    8157        /*T***********************************************************/
        7+    8158        /**/
        8+    8159    1   DCL UQ_MAXENQ UBIN WORD STATIC SYMDEF INIT(16); /* MAX ENQ/DEQS PER USER      */
       31     8160        /**/
       32     8161    1   DCL B_MUAIS UBIN WORD STATIC SYMDEF;    /* MAX USERS IN SYSTEM - TIGR INITS   */
       33     8162    1   DCL B_CNTRL_HIGH UBIN WORD STATIC SYMDEF;
       34     8163        %INCLUDE IG_CNTRLNR_D;
        1+    8164        /*M* IG_CNTRLNR_D - Nonrecovered CONTROL-able data  */
        2+    8165        /*T***********************************************************/
        3+    8166        /*T*                                                         */
        4+    8167        /*T* Copyright (c) Bull HN Information Systems Inc., 1997    */
PL6.E3A0      #001=B_CNTRL_D File=B_CNTRL_D.:E05TSI                              TUE 07/29/97 11:07 Page:96
        5+    8168        /*T*                                                         */
        6+    8169        /*T***********************************************************/
        7+    8170    1   DCL FR_PRMT(0:2) SBIN WORD STATIC SYMDEF INIT(0,0,0);
        8+    8171        /**/
       35     8172    1   END;

PL6.E3A0      #001=B_CNTRL_D File=B_CNTRL_D.:E05TSI                              TUE 07/29/97 11:07 Page:97
--  Include file information  --

   IG_CNTRLNR_D.:E05TOU  cannot be made into a system file and is referenced.
   UQ_CNTRL_D.:E05TOU  cannot be made into a system file and is referenced.
   UMT_CNTRL_D.:E05TOU  cannot be made into a system file and is referenced.
   SS_CNTRL_D.:E05TOU  cannot be made into a system file and is referenced.
   MM_CNTRL_D.:E05TOU  cannot be made into a system file and is referenced.
   JZ_CNTRL_D.:E05TOU  cannot be made into a system file and is referenced.
   JS_CNTRL_D.:E05TOU  cannot be made into a system file and is referenced.
   JM$STRUCT.:E05TOU  is referenced.
   JM_CNTRL_D.:E05TOU  cannot be made into a system file and is referenced.
   FT_SUBS.:E05TOU  is referenced.
   FT_CNTRL_D.:E05TOU  cannot be made into a system file and is referenced.
   FR_CNTRL_D.:E05TOU  cannot be made into a system file and is referenced.
   FO_CNTRL_D.:E05TOU  cannot be made into a system file and is referenced.
   FM_CNTRL_D.:E05TOU  cannot be made into a system file and is referenced.
   ES_CNTRL_D.:E05TOU  cannot be made into a system file and is referenced.
   SS_CNTRLD_D.:E05TOU  cannot be made into a system file and is referenced.
   JM_CNTRLD_D.:E05TOU  cannot be made into a system file and is referenced.
   FR_CNTRLD_D.:E05TOU  cannot be made into a system file and is referenced.
   UD_EQU_E.:E05TOU  is referenced.
   FM_CACHE_C.:E05TOU  is referenced.
   CP_6_C.:E05TOU  is referenced.
   CP_6.:E05TOU  cannot be made into a system file and is referenced.
      No diagnostics issued in procedure B_CNTRL_D.
PL6.E3A0      #001=B_CNTRL_D File=B_CNTRL_D.:E05TSI                              TUE 07/29/97 11:07 Page:98

 **** Variables and constants ****

  ****  Section 001  Data  B_CNTRL_D

  ****  Scalars and arrays  ****
OctLoc.c.b A Datatyp(siz) R M Lvl/name                 OctLoc.c.b A Datatyp(siz) R M Lvl/name

    52-0-0/w SBIN        r     1 FR_PRCB(0:2)
    55-0-0/w SBIN        r     1 FR_PRCG(0:2)
    60-0-0/w SBIN        r     1 FR_PRCO(0:2)
    63-0-0/w SBIN        r     1 FR_PRCP(0:2)
   307-0-0/w SBIN        r     1 FR_PRMB(0:2)
   312-0-0/w SBIN        r     1 FR_PRMG(0:2)
   315-0-0/w SBIN        r     1 FR_PRMO(0:2)
   320-0-0/w SBIN        r     1 FR_PRMP(0:2)
  1155-0-0/w SBIN        r     1 FR_PRMT(0:2)
    76-0-0/w SBIN        r     1 FR_SUCB(0:7)
   106-0-0/w SBIN        r     1 FR_SUCG(0:7)
   116-0-0/w SBIN        r     1 FR_SUCO(0:7)
   126-0-0/w SBIN        r     1 FR_SUCP(0:7)
    66-0-0/w SBIN        r     1 FR_SUCT(0:7)
   333-0-0/w SBIN        r     1 FR_SUMB(0:7)
   343-0-0/w SBIN        r     1 FR_SUMG(0:7)
   353-0-0/w SBIN        r     1 FR_SUMO(0:7)
   363-0-0/w SBIN        r     1 FR_SUMP(0:7)
   323-0-0/w SBIN        r     1 FR_SUMT(0:7)


   No code generated for procedure B_CNTRL_D .
   Procedure B_CNTRL_D requires 4 words of local(AUTO) storage.

    No errors detected in file B_CNTRL_D.:E05TSI    .
PL6.E3A0      #001=B_CNTRL_D File=B_CNTRL_D.:E05TSI                              TUE 07/29/97 11:07 Page:99
          *** CROSS REFERENCE LISTING ***
**     DENOTES     IDENTIFIER DEFINITION
<<                 IDENTIFIER'S VALUE SET
>>                 IDENTIFIER'S VALUE USED
<>                 IDENTIFIER SET AND/OR USED
--                 IDENTIFIER REFERENCED
PL6.E3A0      #001=B_CNTRL_D File=B_CNTRL_D.:E05TSI                              TUE 07/29/97 11:07 Page:100
          MINI XREF LISTING

FR_PRCB
      6057**DCL      6034--DCLINIT
FR_PRCG
      6058**DCL      6035--DCLINIT
FR_PRCO
      6059**DCL      6036--DCLINIT
FR_PRCP
      6060**DCL      6037--DCLINIT
FR_PRMB
      6276**DCL      6039--DCLINIT
FR_PRMG
      6277**DCL      6040--DCLINIT
FR_PRMO
      6278**DCL      6041--DCLINIT
FR_PRMP
      6279**DCL      6042--DCLINIT
FR_PRMT
      8170**DCL      6038--DCLINIT
FR_SUCB
      6062**DCL      6045--DCLINIT
FR_SUCG
      6063**DCL      6046--DCLINIT
FR_SUCO
      6064**DCL      6047--DCLINIT
FR_SUCP
      6065**DCL      6048--DCLINIT
FR_SUCT
      6061**DCL      6044--DCLINIT
FR_SUMB
      6281**DCL      6050--DCLINIT
FR_SUMG
      6282**DCL      6051--DCLINIT
PL6.E3A0      #001=B_CNTRL_D File=B_CNTRL_D.:E05TSI                              TUE 07/29/97 11:07 Page:101
FR_SUMO
      6283**DCL      6052--DCLINIT
FR_SUMP
      6284**DCL      6053--DCLINIT
FR_SUMT
      6280**DCL      6049--DCLINIT
