VERSION E05

PL6.E3A0      #001=B_CONSPOOL_D File=B_CONSPOOL_D.:E05TSI                        TUE 07/29/97 11:07 Page:1
        1        1        /*T***********************************************************/
        2        2        /*T*                                                         */
        3        3        /*T* Copyright (c) Bull HN Information Systems Inc., 1997    */
        4        4        /*T*                                                         */
        5        5        /*T***********************************************************/
        6        6        B_CONSPOOL_D: PROC;
        7        7
        8        8    1   DCL B_VECTNIL      BIT(36) CONSTANT SYMDEF INIT('000000177640'O);
        9        9    1   DCL B_NIL$         BIT(36) CONSTANT SYMDEF INIT('000000006014'O);
       10       10    1   DCL B_0            BIT(36) CONSTANT SYMDEF INIT('000000000000'O);
       11       11    1   DCL B_1            BIT(36) CONSTANT SYMDEF INIT('000000000001'O);
       12       12    1   DCL B_2            BIT(36) CONSTANT SYMDEF INIT('000000000002'O);
       13       13    1   DCL B_3            BIT(36) CONSTANT SYMDEF INIT('000000000003'O);
       14       14    1   DCL B_4            BIT(36) CONSTANT SYMDEF INIT('000000000004'O);
       15       15    1   DCL B_5            BIT(36) CONSTANT SYMDEF INIT('000000000005'O);
       16       16    1   DCL B_6            BIT(36) CONSTANT SYMDEF INIT('000000000006'O);
       17       17    1   DCL B_7            BIT(36) CONSTANT SYMDEF INIT('000000000007'O);
       18       18    1   DCL B_8            BIT(36) CONSTANT SYMDEF INIT('000000000010'O);
       19       19    1   DCL B_9            BIT(36) CONSTANT SYMDEF INIT('000000000011'O);
       20       20    1   DCL B_10           BIT(36) CONSTANT SYMDEF INIT('000000000012'O);
       21       21    1   DCL B_11           BIT(36) CONSTANT SYMDEF INIT('000000000013'O);
       22       22    1   DCL B_12           BIT(36) CONSTANT SYMDEF INIT('000000000014'O);
       23       23    1   DCL B_ARG1         BIT(36) CONSTANT SYMDEF INIT('000001000000'O);
       24       24    1   DCL B_ARG2         BIT(36) CONSTANT SYMDEF INIT('000002000000'O);
       25       25    1   DCL B_ARG3         BIT(36) CONSTANT SYMDEF INIT('000003000000'O);
       26       26    1   DCL B_ARG4         BIT(36) CONSTANT SYMDEF INIT('000004000000'O);
       27       27    1   DCL B_ARG5         BIT(36) CONSTANT SYMDEF INIT('000005000000'O);
       28       28    1   DCL B_ARG6         BIT(36) CONSTANT SYMDEF INIT('000006000000'O);
       29       29    1   DCL B_ARG7         BIT(36) CONSTANT SYMDEF INIT('000007000000'O);
       30       30    1   DCL B_ARG8         BIT(36) CONSTANT SYMDEF INIT('000010000000'O);
       31       31    1   DCL B_MINUS1       BIT(36) CONSTANT SYMDEF INIT('777777777777'O);
       32       32    1   DCL B_HIGHBIT      BIT(36) CONSTANT SYMDEF INIT('400000000000'O);
       33       33    1   DCL B_377777777777 BIT(36) CONSTANT SYMDEF INIT('377777777777'O);
       34       34    1   DCL B_000777777777 BIT(36) CONSTANT SYMDEF INIT('000777777777'O);
       35       35    1   DCL B_001000000000 BIT(36) CONSTANT SYMDEF INIT('001000000000'O);
       36       36    1   DCL B_777777600000 BIT(36) CONSTANT SYMDEF INIT('777777600000'O);
       37       37    1   DCL B_BLANKS       BIT(36) CONSTANT SYMDEF INIT('040040040040'O);
PL6.E3A0      #001=B_CONSPOOL_D File=B_CONSPOOL_D.:E05TSI                        TUE 07/29/97 11:07 Page:2
       38       38
       39       39    1   END B_CONSPOOL_D;

PL6.E3A0      #001=B_CONSPOOL_D File=B_CONSPOOL_D.:E05TSI                        TUE 07/29/97 11:07 Page:3
      No diagnostics issued in procedure B_CONSPOOL_D.

   No code generated for procedure B_CONSPOOL_D .
   Procedure B_CONSPOOL_D requires 4 words of local(AUTO) storage.

    No errors detected in file B_CONSPOOL_D.:E05TSI    .

PL6.E3A0      #001=B_CONSPOOL_D File=B_CONSPOOL_D.:E05TSI                        TUE 07/29/97 11:07 Page:4

 Object Unit name= B_CONSPOOL_D                               File name= B_CONSPOOL_D.:E05TOU
 UTS= JUL 29 '97 11:07:47.20 TUE                              Compiler= PL-6/E31         Sev=      00
 SharedLib= :SHARED_SYSTEM                                    Alt SharedLib=


    ****  Control sections  ****

 Sect   Type Bound  Init  Size OctSiz  Section name(segment info)
    0  RoData even  UTS     30     36  B_CONSPOOL_D
    1   Proc  even  none     0      0  B_CONSPOOL_D

    ****  Entry defs  ****

                              Check   Calling
                             calling  sequence
  Sect OctLoc Primary Altret sequence   type   Parms  Name
     1      0   yes            yes     ~proc       0  B_CONSPOOL_D

  ****  Data defs  ****

 Sect OctLoc  Name                           Sect OctLoc  Name
    0      0  B_VECTNIL                          0      1  B_NIL$
    0      2  B_0                                0      3  B_1
    0      4  B_2                                0      5  B_3
    0      6  B_4                                0      7  B_5
    0     10  B_6                                0     11  B_7
    0     12  B_8                                0     13  B_9
    0     14  B_10                               0     15  B_11
    0     16  B_12                               0     17  B_ARG1
    0     20  B_ARG2                             0     21  B_ARG3
    0     22  B_ARG4                             0     23  B_ARG5
    0     24  B_ARG6                             0     25  B_ARG7
    0     26  B_ARG8                             0     27  B_MINUS1
    0     30  B_HIGHBIT                          0     31  B_377777777777
    0     32  B_000777777777                     0     33  B_001000000000
    0     34  B_777777600000                     0     35  B_BLANKS
PL6.E3A0      #001=B_CONSPOOL_D File=B_CONSPOOL_D.:E05TSI                        TUE 07/29/97 11:07 Page:5

        1        1        /*T***********************************************************/
        2        2        /*T*                                                         */
        3        3        /*T* Copyright (c) Bull HN Information Systems Inc., 1997    */
        4        4        /*T*                                                         */
        5        5        /*T***********************************************************/
        6        6        B_CONSPOOL_D: PROC;
        7        7
        8        8    1   DCL B_VECTNIL      BIT(36) CONSTANT SYMDEF INIT('000000177640'O);
        9        9    1   DCL B_NIL$         BIT(36) CONSTANT SYMDEF INIT('000000006014'O);
       10       10    1   DCL B_0            BIT(36) CONSTANT SYMDEF INIT('000000000000'O);
       11       11    1   DCL B_1            BIT(36) CONSTANT SYMDEF INIT('000000000001'O);
       12       12    1   DCL B_2            BIT(36) CONSTANT SYMDEF INIT('000000000002'O);
       13       13    1   DCL B_3            BIT(36) CONSTANT SYMDEF INIT('000000000003'O);
       14       14    1   DCL B_4            BIT(36) CONSTANT SYMDEF INIT('000000000004'O);
       15       15    1   DCL B_5            BIT(36) CONSTANT SYMDEF INIT('000000000005'O);
       16       16    1   DCL B_6            BIT(36) CONSTANT SYMDEF INIT('000000000006'O);
       17       17    1   DCL B_7            BIT(36) CONSTANT SYMDEF INIT('000000000007'O);
       18       18    1   DCL B_8            BIT(36) CONSTANT SYMDEF INIT('000000000010'O);
       19       19    1   DCL B_9            BIT(36) CONSTANT SYMDEF INIT('000000000011'O);
       20       20    1   DCL B_10           BIT(36) CONSTANT SYMDEF INIT('000000000012'O);
       21       21    1   DCL B_11           BIT(36) CONSTANT SYMDEF INIT('000000000013'O);
       22       22    1   DCL B_12           BIT(36) CONSTANT SYMDEF INIT('000000000014'O);
       23       23    1   DCL B_ARG1         BIT(36) CONSTANT SYMDEF INIT('000001000000'O);
       24       24    1   DCL B_ARG2         BIT(36) CONSTANT SYMDEF INIT('000002000000'O);
       25       25    1   DCL B_ARG3         BIT(36) CONSTANT SYMDEF INIT('000003000000'O);
       26       26    1   DCL B_ARG4         BIT(36) CONSTANT SYMDEF INIT('000004000000'O);
       27       27    1   DCL B_ARG5         BIT(36) CONSTANT SYMDEF INIT('000005000000'O);
       28       28    1   DCL B_ARG6         BIT(36) CONSTANT SYMDEF INIT('000006000000'O);
       29       29    1   DCL B_ARG7         BIT(36) CONSTANT SYMDEF INIT('000007000000'O);
       30       30    1   DCL B_ARG8         BIT(36) CONSTANT SYMDEF INIT('000010000000'O);
       31       31    1   DCL B_MINUS1       BIT(36) CONSTANT SYMDEF INIT('777777777777'O);
       32       32    1   DCL B_HIGHBIT      BIT(36) CONSTANT SYMDEF INIT('400000000000'O);
       33       33    1   DCL B_377777777777 BIT(36) CONSTANT SYMDEF INIT('377777777777'O);
       34       34    1   DCL B_000777777777 BIT(36) CONSTANT SYMDEF INIT('000777777777'O);
       35       35    1   DCL B_001000000000 BIT(36) CONSTANT SYMDEF INIT('001000000000'O);
       36       36    1   DCL B_777777600000 BIT(36) CONSTANT SYMDEF INIT('777777600000'O);
       37       37    1   DCL B_BLANKS       BIT(36) CONSTANT SYMDEF INIT('040040040040'O);
PL6.E3A0      #001=B_CONSPOOL_D File=B_CONSPOOL_D.:E05TSI                        TUE 07/29/97 11:07 Page:6
       38       38
       39       39    1   END B_CONSPOOL_D;

PL6.E3A0      #001=B_CONSPOOL_D File=B_CONSPOOL_D.:E05TSI                        TUE 07/29/97 11:07 Page:7
      No diagnostics issued in procedure B_CONSPOOL_D.
PL6.E3A0      #001=B_CONSPOOL_D File=B_CONSPOOL_D.:E05TSI                        TUE 07/29/97 11:07 Page:8

 **** Variables and constants ****


   No code generated for procedure B_CONSPOOL_D .
   Procedure B_CONSPOOL_D requires 4 words of local(AUTO) storage.

    No errors detected in file B_CONSPOOL_D.:E05TSI    .
PL6.E3A0      #001=B_CONSPOOL_D File=B_CONSPOOL_D.:E05TSI                        TUE 07/29/97 11:07 Page:9
          *** CROSS REFERENCE LISTING ***
**     DENOTES     IDENTIFIER DEFINITION
<<                 IDENTIFIER'S VALUE SET
>>                 IDENTIFIER'S VALUE USED
<>                 IDENTIFIER SET AND/OR USED
--                 IDENTIFIER REFERENCED
PL6.E3A0      #001=B_CONSPOOL_D File=B_CONSPOOL_D.:E05TSI                        TUE 07/29/97 11:07 Page:10
          MINI XREF LISTING

