VERSION E05

PL6.E3A0      #001=B_DATA_D File=B_DATA_D.:E05TSI                                TUE 07/29/97 11:08 Page:1
        1        1        /*M*     B_DATA_D - DEFINITION OF VARIOUS SYSTEM WIDE DATA CELLS   */
        2        2        /*T***********************************************************/
        3        3        /*T*                                                         */
        4        4        /*T* Copyright (c) Bull HN Information Systems Inc., 1997    */
        5        5        /*T*                                                         */
        6        6        /*T***********************************************************/
        7        7        /**/
        8        8        B_DATA_D: PROC;
        9        9        /**/
       10       10    1   DCL B$USRT$ PTR STATIC SYMDEF;          /* PTR TO USER TABLES - TIGR INITS    */
       11       11        /**/
       12       12    1   DCL B$P$ PTR STATIC SYMDEF;        /* PTR TO PROCESSOR TABLES - TIGR INITS    */
       13       13    1   DCL B$LOOKUP$ PTR STATIC SYMDEF;        /* PTR to lookup table - TIGR inits   */
       14       14    1   DCL P_NPROCS UBIN WORD STATIC SYMDEF  INIT(0);     /* NUMBER OF PROCESSORS   */
       15       15    1   DCL P_MAXPROCS UBIN WORD STATIC SYMDEF  INIT(0);  /* NUM. OF PROCESSOR SLOTS  */
       16       16        /* TIGR initializes all of this stuff */
       17       17    1   DCL P_AUTO_START UBIN WORD STATIC SYMDEF; /* Start of auto-share area in tbls */
       18       18    1   DCL P_LAST_AUTO UBIN WORD STATIC SYMDEF; /* Last slot used for auto-share     */
       19       19    1   DCL P_AUTOSPACE UBIN WORD STATIC SYMDEF INIT(1); /* Length of auto-share area */
       20       20    1   DCL P_USED_AUTO UBIN WORD STATIC SYMDEF; /* Last used auto-share slot         */
       21       21    1   DCL P_MAX_LOOKUP UBIN WORD STATIC SYMDEF INIT (0); /* # lookup tbl entries    */
       22       22        /**/
       23       23    1   DCL S_DL$ PTR STATIC SYMDEF;            /* PTR TO DOLIST TABLE - TIGR INITS   */
       24       24        /**/
       25       25    1   END;

PL6.E3A0      #001=B_DATA_D File=B_DATA_D.:E05TSI                                TUE 07/29/97 11:08 Page:2
      No diagnostics issued in procedure B_DATA_D.

   No code generated for procedure B_DATA_D .
   Procedure B_DATA_D requires 4 words of local(AUTO) storage.

    No errors detected in file B_DATA_D.:E05TSI    .

PL6.E3A0      #001=B_DATA_D File=B_DATA_D.:E05TSI                                TUE 07/29/97 11:08 Page:3

 Object Unit name= B_DATA_D                                   File name= B_DATA_D.:E05TOU
 UTS= JUL 29 '97 11:08:06.60 TUE                              Compiler= PL-6/E31         Sev=      00
 SharedLib= :SHARED_SYSTEM                                    Alt SharedLib=


    ****  Control sections  ****

 Sect   Type Bound  Init  Size OctSiz  Section name(segment info)
    0   Data  even  none    11     13  B_DATA_D
    1   Proc  even  none     0      0  B_DATA_D

    ****  Entry defs  ****

                              Check   Calling
                             calling  sequence
  Sect OctLoc Primary Altret sequence   type   Parms  Name
     1      0   yes            yes     ~proc       0  B_DATA_D

  ****  Data defs  ****

 Sect OctLoc  Name                           Sect OctLoc  Name
    0      0  B$USRT$                            0      1  B$P$
    0      2  B$LOOKUP$                          0      3  P_NPROCS
    0      4  P_MAXPROCS                         0      5  P_AUTO_START
    0      6  P_LAST_AUTO                        0      7  P_AUTOSPACE
    0     10  P_USED_AUTO                        0     11  P_MAX_LOOKUP
    0     12  S_DL$
PL6.E3A0      #001=B_DATA_D File=B_DATA_D.:E05TSI                                TUE 07/29/97 11:08 Page:4


(unnamed)
 Sect OctLoc
   0     000   ****** ******   ****** ******   ****** ******   000000 000000    ................
   0     004   000000 000000   ****** ******   ****** ******   000000 000001    ................
   0     010   ****** ******   000000 000000   ****** ******                    ............
        1        1        /*M*     B_DATA_D - DEFINITION OF VARIOUS SYSTEM WIDE DATA CELLS   */
        2        2        /*T***********************************************************/
        3        3        /*T*                                                         */
        4        4        /*T* Copyright (c) Bull HN Information Systems Inc., 1997    */
        5        5        /*T*                                                         */
        6        6        /*T***********************************************************/
        7        7        /**/
        8        8        B_DATA_D: PROC;
        9        9        /**/
       10       10    1   DCL B$USRT$ PTR STATIC SYMDEF;          /* PTR TO USER TABLES - TIGR INITS    */
       11       11        /**/
       12       12    1   DCL B$P$ PTR STATIC SYMDEF;        /* PTR TO PROCESSOR TABLES - TIGR INITS    */
       13       13    1   DCL B$LOOKUP$ PTR STATIC SYMDEF;        /* PTR to lookup table - TIGR inits   */
       14       14    1   DCL P_NPROCS UBIN WORD STATIC SYMDEF  INIT(0);     /* NUMBER OF PROCESSORS   */
       15       15    1   DCL P_MAXPROCS UBIN WORD STATIC SYMDEF  INIT(0);  /* NUM. OF PROCESSOR SLOTS  */
       16       16        /* TIGR initializes all of this stuff */
       17       17    1   DCL P_AUTO_START UBIN WORD STATIC SYMDEF; /* Start of auto-share area in tbls */
       18       18    1   DCL P_LAST_AUTO UBIN WORD STATIC SYMDEF; /* Last slot used for auto-share     */
       19       19    1   DCL P_AUTOSPACE UBIN WORD STATIC SYMDEF INIT(1); /* Length of auto-share area */
       20       20    1   DCL P_USED_AUTO UBIN WORD STATIC SYMDEF; /* Last used auto-share slot         */
       21       21    1   DCL P_MAX_LOOKUP UBIN WORD STATIC SYMDEF INIT (0); /* # lookup tbl entries    */
       22       22        /**/
       23       23    1   DCL S_DL$ PTR STATIC SYMDEF;            /* PTR TO DOLIST TABLE - TIGR INITS   */
       24       24        /**/
       25       25    1   END;

PL6.E3A0      #001=B_DATA_D File=B_DATA_D.:E05TSI                                TUE 07/29/97 11:08 Page:5
      No diagnostics issued in procedure B_DATA_D.
PL6.E3A0      #001=B_DATA_D File=B_DATA_D.:E05TSI                                TUE 07/29/97 11:08 Page:6

 **** Variables and constants ****


   No code generated for procedure B_DATA_D .
   Procedure B_DATA_D requires 4 words of local(AUTO) storage.

    No errors detected in file B_DATA_D.:E05TSI    .
PL6.E3A0      #001=B_DATA_D File=B_DATA_D.:E05TSI                                TUE 07/29/97 11:08 Page:7
          *** CROSS REFERENCE LISTING ***
**     DENOTES     IDENTIFIER DEFINITION
<<                 IDENTIFIER'S VALUE SET
>>                 IDENTIFIER'S VALUE USED
<>                 IDENTIFIER SET AND/OR USED
--                 IDENTIFIER REFERENCED
PL6.E3A0      #001=B_DATA_D File=B_DATA_D.:E05TSI                                TUE 07/29/97 11:08 Page:8
          MINI XREF LISTING

