VERSION E05

PL6.E3A0      #001=B_LOC2B_D File=B_LOC2B_D.:E05TSI                              TUE 07/29/97 11:08 Page:1
        1        1        /*M* B_LOC2B_D - CONTAINS STATIC STRUCTURES FOR M$MONINFO PMME */
        2        2        /*T***********************************************************/
        3        3        /*T*                                                         */
        4        4        /*T* Copyright (c) Bull HN Information Systems Inc., 1997    */
        5        5        /*T*                                                         */
        6        6        /*T***********************************************************/
        7        7        B_LOC2B_D: PROC NOAUTO;
        8        8        %INCLUDE UM_CP6;
        9      860        %VLR_SITEINFO (FPTN=B_SITEINFO,STCLASS="STATIC SYMDEF");
       10      879        %VLR_MONINFO (FPTN=B_MONINFO,STCLASS="STATIC SYMDEF");
       11      897        %VLR_MONPTRS (FPTN=B_MONPTRS,STCLASS="STATIC SYMDEF");
       12      912    1   END B_LOC2B_D;

PL6.E3A0      #001=B_LOC2B_D File=B_LOC2B_D.:E05TSI                              TUE 07/29/97 11:08 Page:2
--  Include file information  --

   UM_CP6.:E05TOU  is referenced.
      No diagnostics issued in procedure B_LOC2B_D.

   No code generated for procedure B_LOC2B_D .
   Procedure B_LOC2B_D is declared NOAUTO and requires 94 words of local(STATIC) storage.

    No errors detected in file B_LOC2B_D.:E05TSI    .

PL6.E3A0      #001=B_LOC2B_D File=B_LOC2B_D.:E05TSI                              TUE 07/29/97 11:08 Page:3

 Object Unit name= B_LOC2B_D                                  File name= B_LOC2B_D.:E05TOU
 UTS= JUL 29 '97 11:08:16.80 TUE                              Compiler= PL-6/E31         Sev=      00
 SharedLib= :SHARED_SYSTEM                                    Alt SharedLib=


    ****  Control sections  ****

 Sect   Type Bound  Init  Size OctSiz  Section name(segment info)
    0   Data  even  none    94    136  B_LOC2B_D
    1   Proc  even  none     0      0  B_LOC2B_D

    ****  Entry defs  ****

                              Check   Calling
                             calling  sequence
  Sect OctLoc Primary Altret sequence   type   Parms  Name
     1      0   yes            yes     ~proc       0  B_LOC2B_D

  ****  Data defs  ****

 Sect OctLoc  Name                           Sect OctLoc  Name
    0      2  B_SITEINFO                         0    100  B_MONINFO
    0    120  B_MONPTRS

  ****  Segment refs  ****

  Flags:  r = read only, s = secondary
Flgs Name                             Flgs Name                             Flgs Name
     NULLSID
PL6.E3A0      #001=B_LOC2B_D File=B_LOC2B_D.:E05TSI                              TUE 07/29/97 11:08 Page:4


(unnamed)
 Sect OctLoc
   0     000   ****** ******   ****** ******   040040 040040   001040 040040    ........    .
   0     004   040040 040040   040040 040040   040040 040040   040040 040040
   0     040*  040040 040040   032007 052052   052103 120055   066040 101124        ..***CP-6 AT
   0     044   040131 117125   122040 123105   122126 111103   105041 007040     YOUR SERVICE!.
   0     050   040040 040040   040040 040040   040040 040040   040040 040040
   0     064*  040040 040040   000000 000000   040040 040040   000000 000000        ....    ....
   0     070   040040 040040   040040 000000   060060 060060   040040 040040          ..0000
   0     074   000000 000000   000000 000000   000000 000000   000000 000000    ................
   0     110*  000000 000000   000000 000000   040040 040040   040040 040040    ........
   0     114   000000 000000   000000 000000   000000 000000   ****** ******    ................
   0     120   000000 006014   000000 006014   000000 006014   000000 006014    ................
   0     134*  000000 006014   ****** ******                                    ........
        1        1        /*M* B_LOC2B_D - CONTAINS STATIC STRUCTURES FOR M$MONINFO PMME */
        2        2        /*T***********************************************************/
        3        3        /*T*                                                         */
        4        4        /*T* Copyright (c) Bull HN Information Systems Inc., 1997    */
        5        5        /*T*                                                         */
        6        6        /*T***********************************************************/
        7        7        B_LOC2B_D: PROC NOAUTO;
        8        8        %INCLUDE UM_CP6;
        9      860        %VLR_SITEINFO (FPTN=B_SITEINFO,STCLASS="STATIC SYMDEF");
       10      879        %VLR_MONINFO (FPTN=B_MONINFO,STCLASS="STATIC SYMDEF");
       11      897        %VLR_MONPTRS (FPTN=B_MONPTRS,STCLASS="STATIC SYMDEF");
       12      912    1   END B_LOC2B_D;

PL6.E3A0      #001=B_LOC2B_D File=B_LOC2B_D.:E05TSI                              TUE 07/29/97 11:08 Page:5
--  Include file information  --

   UM_CP6.:E05TOU  is referenced.
      No diagnostics issued in procedure B_LOC2B_D.
PL6.E3A0      #001=B_LOC2B_D File=B_LOC2B_D.:E05TSI                              TUE 07/29/97 11:08 Page:6

 **** Variables and constants ****


   No code generated for procedure B_LOC2B_D .
   Procedure B_LOC2B_D is declared NOAUTO and requires 94 words of local(STATIC) storage.

    No errors detected in file B_LOC2B_D.:E05TSI    .
PL6.E3A0      #001=B_LOC2B_D File=B_LOC2B_D.:E05TSI                              TUE 07/29/97 11:08 Page:7
          *** CROSS REFERENCE LISTING ***
**     DENOTES     IDENTIFIER DEFINITION
<<                 IDENTIFIER'S VALUE SET
>>                 IDENTIFIER'S VALUE USED
<>                 IDENTIFIER SET AND/OR USED
--                 IDENTIFIER REFERENCED
PL6.E3A0      #001=B_LOC2B_D File=B_LOC2B_D.:E05TSI                              TUE 07/29/97 11:08 Page:8
          MINI XREF LISTING

