VERSION E05

PL6.E3A0      #001=B_MONHJIT File=B_MHJIT.:E05TSI                                TUE 07/29/97 11:08 Page:1
        1        1        /*M*  The initial monitor HJIT page.                               */
        2        2        /*T***********************************************************/
        3        3        /*T*                                                         */
        4        4        /*T* Copyright (c) Bull HN Information Systems Inc., 1997    */
        5        5        /*T*                                                         */
        6        6        /*T***********************************************************/
        7        7        B_MONHJIT: PROC;
        8        8        /*
        9        9               THE FOLLOWING FIELDS NEED TO BE FILLED IN BY BOOTSUBR:
       10       10                 1) THE ENTRY LOCATIONS IN THE FOUR MONITOR LINKAGE SEGMENT
       11       11                    ENTRY DESCRIPTORS, XDENT, SCENT, PMMENT, AND REGENT.
       12       12                 2) THE IC'S IN THE TWO INITIAL SAFE STORE FRAMES (STACK
       13       13                    UNDERFLOW FRAME AND GO-TO-INITIAL FRAME)
       14       14        */
       15       15
       16       16
       17       17        %INCLUDE M_INFO_C;
       18      157        %INCLUDE B$JIT_C;
       19      471        %B$JIT0(STCLASS=BASED);
       20      560        %U$JIT1;
       21      634        %M$JIT2;
       22      644        %F$JIT3;
       23      649        %S$JIT4;
       24      655        %J$JIT5;
       25      743        %A$JIT6;
       26      753        %INCLUDE B_STRINGS_C;
       27      882        %INCLUDE B_LSDATA_C;                    /* DESCRIPTOR BASES & BOUNDS FOR HJIT */
       28     4088        /*%INCLUDE B_MLSMAC_C;*/                /* INCLUDEd by B_LSDATA_C             */
       29     4089        %INCLUDE B_MHJMAC_C;
       30     4381
       31     4382            %B_MHJIT (FPTN=B_MHJIT,STCLASS="STATIC SYMDEF");
       32     5412    1   END B_MONHJIT;

PL6.E3A0      #001=B_MONHJIT File=B_MHJIT.:E05TSI                                TUE 07/29/97 11:08 Page:2
--  Include file information  --

   B_MHJMAC_C.:E05TOU  is referenced.
   B_MLSMAC_C.:E05TOU  is referenced.
   B_ULSMAC_C.:E05TOU  is referenced.
   B_LSDATA_C.:E05TOU  cannot be made into a system file and is referenced.
   B_STRINGS_C.:E05TOU  is referenced.
   B$JIT_C.:E05TOU  is referenced.
   M_INFO_C.:E05TOU  is referenced.
      No diagnostics issued in procedure B_MONHJIT.

   No code generated for procedure B_MONHJIT .
   Procedure B_MONHJIT requires 4 words of local(AUTO) storage.

    No errors detected in file B_MHJIT.:E05TSI    .

PL6.E3A0      #001=B_MONHJIT File=B_MHJIT.:E05TSI                                TUE 07/29/97 11:08 Page:3

 Object Unit name= B_MONHJIT                                  File name= B_MHJIT.:E05TOU
 UTS= JUL 29 '97 11:08:28.44 TUE                              Compiler= PL-6/E31         Sev=      00
 SharedLib= :SHARED_SYSTEM                                    Alt SharedLib=


    ****  Control sections  ****

 Sect   Type Bound  Init  Size OctSiz  Section name(segment info)
    0   Data  even  none  2048   4000  B_MONHJIT
    1   Proc  even  none     0      0  B_MONHJIT

    ****  Entry defs  ****

                              Check   Calling
                             calling  sequence
  Sect OctLoc Primary Altret sequence   type   Parms  Name
     1      0   yes            yes     ~proc       0  B_MONHJIT

  ****  Data defs  ****

 Sect OctLoc  Name                           Sect OctLoc  Name
    0      0  B_MHJIT
PL6.E3A0      #001=B_MONHJIT File=B_MHJIT.:E05TSI                                TUE 07/29/97 11:08 Page:4

        1        1        /*M*  The initial monitor HJIT page.                               */
        2        2        /*T***********************************************************/
        3        3        /*T*                                                         */
        4        4        /*T* Copyright (c) Bull HN Information Systems Inc., 1997    */
        5        5        /*T*                                                         */
        6        6        /*T***********************************************************/
        7        7        B_MONHJIT: PROC;
        8        8        /*
        9        9               THE FOLLOWING FIELDS NEED TO BE FILLED IN BY BOOTSUBR:
       10       10                 1) THE ENTRY LOCATIONS IN THE FOUR MONITOR LINKAGE SEGMENT
       11       11                    ENTRY DESCRIPTORS, XDENT, SCENT, PMMENT, AND REGENT.
       12       12                 2) THE IC'S IN THE TWO INITIAL SAFE STORE FRAMES (STACK
       13       13                    UNDERFLOW FRAME AND GO-TO-INITIAL FRAME)
       14       14        */
       15       15
       16       16
       17       17        %INCLUDE M_INFO_C;
       18      157        %INCLUDE B$JIT_C;
       19      471        %B$JIT0(STCLASS=BASED);
       20      560        %U$JIT1;
       21      634        %M$JIT2;
       22      644        %F$JIT3;
       23      649        %S$JIT4;
       24      655        %J$JIT5;
       25      743        %A$JIT6;
       26      753        %INCLUDE B_STRINGS_C;
       27      882        %INCLUDE B_LSDATA_C;                    /* DESCRIPTOR BASES & BOUNDS FOR HJIT */
       28     4088        /*%INCLUDE B_MLSMAC_C;*/                /* INCLUDEd by B_LSDATA_C             */
       29     4089        %INCLUDE B_MHJMAC_C;
       30     4381
       31     4382            %B_MHJIT (FPTN=B_MHJIT,STCLASS="STATIC SYMDEF");
       32     5412    1   END B_MONHJIT;

PL6.E3A0      #001=B_MONHJIT File=B_MHJIT.:E05TSI                                TUE 07/29/97 11:08 Page:5
--  Include file information  --

   B_MHJMAC_C.:E05TOU  is referenced.
   B_MLSMAC_C.:E05TOU  is referenced.
   B_ULSMAC_C.:E05TOU  is referenced.
   B_LSDATA_C.:E05TOU  cannot be made into a system file and is referenced.
   B_STRINGS_C.:E05TOU  is referenced.
   B$JIT_C.:E05TOU  is referenced.
   M_INFO_C.:E05TOU  is referenced.
      No diagnostics issued in procedure B_MONHJIT.
PL6.E3A0      #001=B_MONHJIT File=B_MHJIT.:E05TSI                                TUE 07/29/97 11:08 Page:6

 **** Variables and constants ****

  ****  BASED and DCB variables  ****

  ****  Scalars and arrays  ****
OctLoc.c.b A Datatyp(siz) R M Lvl/name                 OctLoc.c.b A Datatyp(siz) R M Lvl/name

     0-0-0/d STRC(8856)  r     1 B$JIT                      0-0-0/d STRC(10368) r     1 B$MLNK
     0-0-0/d STRC(2592)  r     1 B$ULNK


   No code generated for procedure B_MONHJIT .
   Procedure B_MONHJIT requires 4 words of local(AUTO) storage.

    No errors detected in file B_MHJIT.:E05TSI    .
PL6.E3A0      #001=B_MONHJIT File=B_MHJIT.:E05TSI                                TUE 07/29/97 11:08 Page:7
          *** CROSS REFERENCE LISTING ***
**     DENOTES     IDENTIFIER DEFINITION
<<                 IDENTIFIER'S VALUE SET
>>                 IDENTIFIER'S VALUE USED
<>                 IDENTIFIER SET AND/OR USED
--                 IDENTIFIER REFERENCED
PL6.E3A0      #001=B_MONHJIT File=B_MHJIT.:E05TSI                                TUE 07/29/97 11:08 Page:8
          MINI XREF LISTING

B$JIT
       472**DCL      4443--DCLINIT  4649--DCLINIT
B$JIT.CPFLAGS1.SLEAZE
       571**DCL       571--REDEF
B$JIT.ERR.MID
       478**DCL       478--REDEF
B$JIT.JRESPEAK
       639**DCL       640--REDEF
B$JIT.ORIGINATOR_PORT.FROM_CR
       748**DCL       748--REDEF     749--REDEF
B$JIT.PNR
       652**DCL       652--REDEF
B$JIT.TSLINE
       746**DCL       747--REDEF
B$MLNK
      2980**DCL      4619--DCLINIT  4991--DCLINIT  5162--DCLINIT  5280--DCLINIT  5322--DCLINIT
B$ULNK
      3773**DCL      4595--DCLINIT  4601--DCLINIT  4607--DCLINIT  4613--DCLINIT
