VERSION E05

 11:09 07/29/97  FILE=B_PATCH_D.:E05TSI                                                                  1    BMAP - B00
                                         1  *M* B_PATCH_D MONITOR PATCH AREA FOR USE BY XDELTA.
                                         2  *T***********************************************************
                                         3  *T*                                                         *
                                         4  *T* Copyright (c) Bull HN Information Systems Inc., 1997    *
                                         5  *T*                                                         *
                                         6  *T***********************************************************
                                         7  *P*  NAME:  B_PATCH_D
                                         8  *P*  PURPOSE: TO PROVIDE PATCH SPACE FOR PATCHING THE
                                         9  *P*           MONITOR AND SPACE FOR XDELTA TO EXECUTE
                                        10  *P*           DERAILED INSTRUCTIONS.
                                        11  *D* NAME: B_PATCH_D
                                        12  *
                                        13           ENTDEF   B_XDELTA
                                        14           SYMDEF   B_PATCHDH         DATA PATCH AREA HEADER
                                        15           SYMDEF   B_PATCHD          BEGINNING OF DATA PATCH AREA
                                        16  *
                                        17  *D* THIS MODULE MUST BE LINK'ED IMMEDIATELY FOLLOWING MULTI-PROCESSING
                                        18  *D* PRIVATE PAGE.
                                        19  *
             000000000012               20  DELTSIZE EQU      10                FOR XDELTA
             000000000144               21  DATASIZE EQU      100               FOR MONITOR DATA
                                        22  *
                                        23  *D* THE MONITOR'S PATCH AREAS CONTAIN A 2-WORD HEADER.
                                        24  *D* THE FIRST WORD OF THE HEADER CONTAINS THE ADDRESS OF THE NEXT
                                        25  *D* AVAILABLE PATCH LOCATION. THE SECOND WORD OF THE HEADER CONTAINS
                                        26  *D* THE NUMBER OF WORDS REMAINING IN THE PATCH AREA.
                                        27  *
                                        28  *D* MONITOR DATA PATCH AREA.
 0 000000                               29           USE      B_PATCHDH,0
                                        30           PAGE                       PAGE BOUNDARY
   000000 (0)000002 006000              31  B_PATCHDH ZERO    B_PATCHD,=O6000   CURRENT PATCH LOCATION
   000001    000000 000144              32           ZERO     0,DATASIZE        SIZE LEFT
   000002                               33  B_PATCHD DUP      1,DATASIZE
   000002    000000 000000              34           ZERO
   000003    000000 000000
   000004    000000 000000
   000005    000000 000000
 11:09 07/29/97  FILE=B_PATCH_D.:E05TSI                                                                  2    BMAP - B00
   000006    000000 000000
   000007    000000 000000
   000010    000000 000000
   000011    000000 000000
   000012    000000 000000
   000013    000000 000000
   000014    000000 000000
   000015    000000 000000
   000016    000000 000000
   000017    000000 000000
   000020    000000 000000
   000021    000000 000000
   000022    000000 000000
   000023    000000 000000
   000024    000000 000000
   000025    000000 000000
   000026    000000 000000
   000027    000000 000000
   000030    000000 000000
   000031    000000 000000
   000032    000000 000000
   000033    000000 000000
   000034    000000 000000
   000035    000000 000000
   000036    000000 000000
   000037    000000 000000
   000040    000000 000000
   000041    000000 000000
   000042    000000 000000
   000043    000000 000000
   000044    000000 000000
   000045    000000 000000
   000046    000000 000000
   000047    000000 000000
   000050    000000 000000
   000051    000000 000000
   000052    000000 000000
 11:09 07/29/97  FILE=B_PATCH_D.:E05TSI                                                                  3    BMAP - B00
   000053    000000 000000
   000054    000000 000000
   000055    000000 000000
   000056    000000 000000
   000057    000000 000000
   000060    000000 000000
   000061    000000 000000
   000062    000000 000000
   000063    000000 000000
   000064    000000 000000
   000065    000000 000000
   000066    000000 000000
   000067    000000 000000
   000070    000000 000000
   000071    000000 000000
   000072    000000 000000
   000073    000000 000000
   000074    000000 000000
   000075    000000 000000
   000076    000000 000000
   000077    000000 000000
   000100    000000 000000
   000101    000000 000000
   000102    000000 000000
   000103    000000 000000
   000104    000000 000000
   000105    000000 000000
   000106    000000 000000
   000107    000000 000000
   000110    000000 000000
   000111    000000 000000
   000112    000000 000000
   000113    000000 000000
   000114    000000 000000
   000115    000000 000000
   000116    000000 000000
   000117    000000 000000
 11:09 07/29/97  FILE=B_PATCH_D.:E05TSI                                                                  4    BMAP - B00
   000120    000000 000000
   000121    000000 000000
   000122    000000 000000
   000123    000000 000000
   000124    000000 000000
   000125    000000 000000
   000126    000000 000000
   000127    000000 000000
   000130    000000 000000
   000131    000000 000000
   000132    000000 000000
   000133    000000 000000
   000134    000000 000000
   000135    000000 000000
   000136    000000 000000
   000137    000000 000000
   000140    000000 000000
   000141    000000 000000
   000142    000000 000000
   000143    000000 000000
   000144    000000 000000
   000145    000000 000000
                                        35  *D* XDELTA SPECIAL LOCATIONS.
 2 000000                               36           USE      B_XDELTA,1
   000000                               37  B_XDELTA BSS      DELTSIZE          GENERATE DELTA'S AREA
                                        38           END

  CONTROL SECTION TABLE

   0 DATA   PAGE  000146 B_PATCHDH
   1 RODATA EVEN  000000 LITERALS
   2 CODE   EVEN  000012 B_XDELTA

 11:09 07/29/97  FILE=B_PATCH_D.:E05TSI       SYMBOL TABLE                                               5    BMAP - B00
 07101000 000000000002 B_PATCHD        15        31       *33
 06101000 000000000000 B_PATCHDH       14       *31
 12101002 000000000000 B_XDELTA        13       *37
 41000000 000000000144 DATASIZE       *21        32        33
 41000000 000000000012 DELTSIZE       *20        37

       5 SYMBOLS

       0 MACROS

    SYMBOL SPACE USED    70 WORDS
     MACRO SPACE USED     4 WORDS
   INPUT RECORDS READ    76
 STATEMENTS PROCESSED   121
         ELAPSED TIME  0:01.04
             CPU TIME     0.71 SEC.
        ASSEMBLY RATE 10225 STATEMENTS/CPU MIN.

      NO ERRORS

