VERSION E05

PL6.E3A0      #001=B_POINTER File=B_POINTER_D.:E05TSI                            TUE 07/29/97 11:09 Page:1
        1        1        /*M* Definitions for all constant Linkage Segment pointers.        */
        2        2        /*T***********************************************************/
        3        3        /*T*                                                         */
        4        4        /*T* Copyright (c) Bull HN Information Systems Inc., 1997    */
        5        5        /*T*                                                         */
        6        6        /*T***********************************************************/
        7        7        B_POINTER: PROC;
        8        8
        9        9        %INCLUDE B_MACROS_C;                    /* MACROS FOR GENERATING POINTERS     */
       10      120        %INCLUDE B_SEGIDS_C;                    /* SEGID DEFINITIONS FOR POINTERS     */
       11      659        %INCLUDE B_MAGIC_C;                     /* MAGIC MACROS                       */
       12      777        %INCLUDE B_TABLES_C;                    /* OFFSETS FOR XLATE TABLE POINTERS   */
       13     1468
       14     1469        /* This module defines 'canned' pointers corresponding to all      */
       15     1470        /* monitor and user linkage segment descriptors (with the exception*/
       16     1471        /* of entry descriptors). The canned pointers are NSA pointers     */
       17     1472        /* which specify the appropriate SEGID's for the descriptors which */
       18     1473        /* they reference.                                                 */
       19     1474
       20     1475        /* Canned pointers for the monitor Linkage Segment entries: */
       21     1476               %SEGPTR(NAME=B$IS$,D#=%ISSID);
       22     1481               %SEGPTR(NAME=B$JIT$,D#=%JITSID);
       23     1486               %SEGPTR(NAME=B$BUFSEG$,D#=%BUFSID);
       24     1491               %SEGPTR(NAME=B$ROSEG$,D#=%ROSID);
       25     1496               %SEGPTR(NAME=B$DS1$,D#=%DS1SID);
       26     1501               %SEGPTR(NAME=B$DS2$,D#=%DS2SID);
       27     1506               %SEGPTR(NAME=B$DS3$,D#=%DS3SID);
       28     1511               %SEGPTR(NAME=B$DS4$,D#=%DS4SID);
       29     1516               %SEGPTR(NAME=B$DS5$,D#=%DS5SID);
       30     1521               %SEGPTR(NAME=B$DS6$,D#=%DS6SID);
       31     1526               %SEGPTR(NAME=B$DS7$,D#=%DS7SID);
       32     1531               %SEGPTR(NAME=B$DS8$,D#=%DS8SID);
       33     1536               %SEGPTR(NAME=B$NULL$,D#=%NULLSID);
       34     1541               %SEGPTR(NAME=B$XLATE$,D#=%XLATESID);
       35     1546               %SEGPTR(NAME=B$ECCB$,D#=%ECCBSID);
       36     1551               %SEGPTR(NAME=B$TCB$,D#=%TCBSID);
       37     1556               %SEGPTR(NAME=B$TSTACK$,D#=%TSTACKSID);
PL6.E3A0      #001=B_POINTER File=B_POINTER_D.:E05TSI                            TUE 07/29/97 11:09 Page:2
       38     1561               %SEGPTR(NAME=B$REAL$,D#=%REALSID);
       39     1566               %SEGPTR(NAME=B$IMX$,D#=%IMXSID);
       40     1571               %SEGPTR(NAME=B$USERSS$,D#=%USERSSSID);
       41     1576               %SEGPTR(NAME=B$SDS0$,D#=%SDS0SID);
       42     1581               %SEGPTR(NAME=B$SDS1$,D#=%SDS1SID);
       43     1586               %SEGPTR(NAME=B$USERLS$,D#=%USERLSSID);
       44     1591               %SEGPTR(NAME=B$DBLS$,D#=%DBLSSID);
       45     1596               %SEGPTR(NAME=B$ASLLS$,D#=%ASLLSSID);
       46     1601               %SEGPTR(NAME=B$CPLS$,D#=%CPLSSID);
       47     1606               %SEGPTR(NAME=B$LS$,D#=%LSSID);
       48     1611               %SEGPTR(NAME=B$UPT$,D#=%UPTSID);
       49     1616               %SEGPTR(NAME=B$MPT$,D#=%MPTSID);
       50     1621               %SEGPTR(NAME=B$USERIS$,D#=%USERISSID);
       51     1626               %SEGPTR(NAME=B$MONTSTACK$,D#=%MTSTACKSID);
       52     1631               %SEGPTR(NAME=B$MONJIT$,D#=%MJITSID);
       53     1636               %SEGPTR(NAME=B$MONHJIT$,D#=%MHJITSID);
       54     1641               %SEGPTR(NAME=B$MONSS$,D#=%MONSSSID);
       55     1646               %SEGPTR(NAME=B$USERHJIT$,D#=%USERHJITSID);
       56     1651               %SEGPTR(NAME=B$SBUF1$,D#=%SBUF1SID);
       57     1656               %SEGPTR(NAME=B$SBUF2$,D#=%SBUF2SID);
       58     1661               %SEGPTR(NAME=B$ISB$,D#=%ISBSID);
       59     1666               %SEGPTR(NAME=B$SCU$,D#=%SCUSID);
       60     1671               %SEGPTR(NAME=B$WINDOW$,D#=%WINDOWSID);
       61     1676               %SEGPTR(NAME=B$AS$,D#=%ASSID);
       62     1681               %SEGPTR(NAME=B$MISC$,D#=%MISCSID);
       63     1686               %SEGPTR(NAME=B$CWSQ1$,D#=%CWSQ1SID);
       64     1691               %SEGPTR(NAME=B$CWSQ2$,D#=%CWSQ2SID);
       65     1696               %SEGPTR(NAME=B$CWSQ3$,D#=%CWSQ3SID);
       66     1701               %SEGPTR(NAME=B$CWSQ4$,D#=%CWSQ4SID);
       67     1706               %SEGPTR(NAME=B$CWSQ5$,D#=%CWSQ5SID);
       68     1711               %SEGPTR(NAME=B$CWSQ6$,D#=%CWSQ6SID);
       69     1716               %SEGPTR(NAME=B$CWSQ7$,D#=%CWSQ7SID);
       70     1721               %SEGPTR(NAME=B$CWSQ8$,D#=%CWSQ8SID);
       71     1726               %SEGPTR(NAME=B$CWSQ9$,D#=%CWSQ9SID);
       72     1731               %SEGPTR(NAME=B$CWSQ10$,D#=%CWSQ10SID);
       73     1736               %SEGPTR(NAME=B$CWSQ11$,D#=%CWSQ11SID);
       74     1741               %SEGPTR(NAME=B$CWSQ12$,D#=%CWSQ12SID);
PL6.E3A0      #001=B_POINTER File=B_POINTER_D.:E05TSI                            TUE 07/29/97 11:09 Page:3
       75     1746               %SEGPTR(NAME=B$CWSQ13$,D#=%CWSQ13SID);
       76     1751               %SEGPTR(NAME=B$CWSQ14$,D#=%CWSQ14SID);
       77     1756               %SEGPTR(NAME=B$CWSQ15$,D#=%CWSQ15SID);
       78     1761               %SEGPTR(NAME=B$CWSQ16$,D#=%CWSQ16SID);
       79     1766               %SEGPTR(NAME=B$CPGT1$,D#=%CPGT1SID);
       80     1771               %SEGPTR(NAME=B$CPGT2$,D#=%CPGT2SID);
       81     1776               %SEGPTR(NAME=B$CPGT3$,D#=%CPGT3SID);
       82     1781               %SEGPTR(NAME=B$CPGT4$,D#=%CPGT4SID);
       83     1786               %SEGPTR(NAME=B$CPGT5$,D#=%CPGT5SID);
       84     1791               %SEGPTR(NAME=B$CPGT6$,D#=%CPGT6SID);
       85     1796               %SEGPTR(NAME=B$CPGT7$,D#=%CPGT7SID);
       86     1801               %SEGPTR(NAME=B$CPGT8$,D#=%CPGT8SID);
       87     1806               %SEGPTR(NAME=B$CPGT9$,D#=%CPGT9SID);
       88     1811               %SEGPTR(NAME=B$CPGT10$,D#=%CPGT10SID);
       89     1816               %SEGPTR(NAME=B$CPGT11$,D#=%CPGT11SID);
       90     1821               %SEGPTR(NAME=B$CPGT12$,D#=%CPGT12SID);
       91     1826               %SEGPTR(NAME=B$CPGT13$,D#=%CPGT13SID);
       92     1831               %SEGPTR(NAME=B$CPGT14$,D#=%CPGT14SID);
       93     1836               %SEGPTR(NAME=B$CPGT15$,D#=%CPGT15SID);
       94     1841               %SEGPTR(NAME=B$CPGT16$,D#=%CPGT16SID);
       95     1846               %SEGPTR(NAME=B$JITPG$,D#=%JITPGSID);
       96     1851               %SEGPTR(NAME=B$PPUT$,D#=%PPUTSID);
       97     1856               %SEGPTR(NAME=B$VPT$,D#=%VPTSID);
       98     1861               %SEGPTR(NAME=B$MOUSE$,D#=%MOUSESID);
       99     1866               %SEGPTR(NAME=B$LOWMEM$,D#=%LOWMEMSID);
      100     1871               %SEGPTR(NAME=B$IOPT$,D#=%IOENDSID);
      101     1876               %SEGPTR(NAME=B$TIGR$,D#=%TIGRSID);
      102     1881               %SEGPTR(NAME=B$RONC$,D#=%RONCSID);
      103     1886               %SEGPTR(NAME=B$ROSEG8$,D#=%ROSEG8SID);
      104     1891               %SEGPTR(NAME=B$MISC2$,D#=%MISC2SID);
      105     1896               %SEGPTR(NAME=B$MLS1$,D#=%MLS1SID);
      106     1901               %SEGPTR(NAME=B$WS3MLS$,D#=%WS3MLSSID);
      107     1906               %SEGPTR(NAME=B$LDCTNC$,D#=%LDCTNCSID);
      108     1911                %SEGPTR(NAME=B$MASTPT$,D#=%MASTERPTSID);
      109     1916                %SEGPTR(NAME=B$SLV1PT$,D#=%SLV1PTSID);
      110     1921                %SEGPTR(NAME=B$SLV2PT$,D#=%SLV2PTSID);
      111     1926                %SEGPTR(NAME=B$SLV3PT$,D#=%SLV3PTSID);
PL6.E3A0      #001=B_POINTER File=B_POINTER_D.:E05TSI                            TUE 07/29/97 11:09 Page:4
      112     1931                %SEGPTR(NAME=B$SLV4PT$,D#=%SLV4PTSID);
      113     1936                %SEGPTR(NAME=B$SLV5PT$,D#=%SLV5PTSID);
      114     1941                %SEGPTR(NAME=B$SLV6PT$,D#=%SLV6PTSID);
      115     1946                %SEGPTR(NAME=B$SLV7PT$,D#=%SLV7PTSID);
      116     1951                %SEGPTR(NAME=B$MASTHJIT$,D#=%MASTERHJITSID);
      117     1956                %SEGPTR(NAME=B$SLV1HJIT$,D#=%SLV1HJITSID);
      118     1961                %SEGPTR(NAME=B$SLV2HJIT$,D#=%SLV2HJITSID);
      119     1966                %SEGPTR(NAME=B$SLV3HJIT$,D#=%SLV3HJITSID);
      120     1971                %SEGPTR(NAME=B$SLV4HJIT$,D#=%SLV4HJITSID);
      121     1976                %SEGPTR(NAME=B$SLV5HJIT$,D#=%SLV5HJITSID);
      122     1981                %SEGPTR(NAME=B$SLV6HJIT$,D#=%SLV6HJITSID);
      123     1986                %SEGPTR(NAME=B$SLV7HJIT$,D#=%SLV7HJITSID);
      124     1991                %SEGPTR(NAME=B$FIRM$,D#=%FIRMSID);
      125     1996                %SEGPTR(NAME=B$BUFCACHE$,D#=%BUFCACHESID);
      126     2001                %SEGPTR(NAME=B$CGPT$,D#=%CGPTSID);
      127     2006                %SEGPTR(NAME=B$CGCTXT$,D#=%CGCTXTSID);
      128     2011               %SEGPTR(NAME=B$SEGTBL$,D#=%SEGTBLSID);
      129     2016               %SEGPTR(NAME=B$WSQ0PT$,D#=%WSQ0PTSID);
      130     2021               %SEGPTR(NAME=B$IPHYMAP$,D#=%IPHYMAPSID);
      131     2026               %SEGPTR(NAME=B$MINIQENT$,D#=%MINIQENTSID);
      132     2031                 %B_MPT (FPTN=B_MPT,STCLASS="CONSTANT SYMDEF");
      133     2124
      134     2125
      135     2126        /* DCB pointers for the fixed DCBs */
      136     2127        %EQU ROSEGSIZ = 84;
      137     2128        %EQU DCBSIZ = 98;
      138     2129        %SEGPTR( NAME=B$M$STAR$, D#=%ROSID, DISP="%(ROSEGSIZ*64)" );
      139     2134        %SEGPTR( NAME=B$M$LM$, D#=%ROSID, DISP="%((ROSEGSIZ+DCBSIZ)*64)" );
      140     2139        %SEGPTR( NAME=B$M$UC$, D#=%ROSID, DISP="%((ROSEGSIZ+2*DCBSIZ)*64)" );
      141     2144        %SEGPTR( NAME=B$M$DO$, D#=%ROSID, DISP="%((ROSEGSIZ+3*DCBSIZ)*64)" );
      142     2149
      143     2150        /* Define pointers for common XLATE and SEARCH tables: */
      144     2151        %SEGPTR( NAME=B$SR_NON_BLANK$, D#=%XLATESID, DISP="%(B#SR_NON_BLANK*64)" );
      145     2156        %SEGPTR( NAME=B$SR_NON_ZERO$, D#=%XLATESID, DISP="%(B#SR_NON_ZERO*64)" );
      146     2161        %SEGPTR( NAME=B$SR_NON_DEC$, D#=%XLATESID, DISP="%(B#SR_NON_DEC*64)" );
      147     2166        %SEGPTR( NAME=B$SR_NON_ALPHA$, D#=%XLATESID, DISP="%(B#SR_NON_ALPHA*64)" );
      148     2171        %SEGPTR( NAME=B$XL_ASC_EBC$, D#=%XLATESID, DISP="%(B#XL_ASC_EBC*64)" );
PL6.E3A0      #001=B_POINTER File=B_POINTER_D.:E05TSI                            TUE 07/29/97 11:09 Page:5
      149     2176        %SEGPTR( NAME=B$XL_EBC_ASC$, D#=%XLATESID, DISP="%(B#XL_EBC_ASC*64)" );
      150     2181        %SEGPTR( NAME=B$XL_LOWER$, D#=%XLATESID, DISP="%(B#XL_LOWER*64)" );
      151     2186        %SEGPTR( NAME=B$XL_UPPER$, D#=%XLATESID, DISP="%(B#XL_UPPER*64)" );
      152     2191        %SEGPTR( NAME=B$XL_UR$, D#=%XLATESID, DISP="%(B#XL_UR*64)" );
      153     2196        %SEGPTR( NAME=B$XL_UPPER_UR$, D#=%XLATESID, DISP="%(B#XL_UPPER_UR*64)" );
      154     2201        %SEGPTR( NAME=B$XL_LOWER_UR$, D#=%XLATESID, DISP="%(B#XL_LOWER_UR*64)" );
      155     2206        %SEGPTR( NAME=B$XL_MOD_256$, D#=%XLATESID, DISP="%(B#XL_MOD_256*64)" );
      156     2211        %SEGPTR( NAME=B$XL_ASC_DUMP$, D#=%XLATESID, DISP="%(B#XL_ASC_DUMP*64)" );
      157     2216        %SEGPTR( NAME=B$XL_EBC_DUMP$, D#=%XLATESID, DISP="%(B#XL_EBC_DUMP*64)" );
      158     2221        %SEGPTR( NAME=B$DVTTBL$, D#=%DVTTBLSID);
      159     2226
      160     2227
      161     2228        /* Pointers unique to the User Linkage Segment: */
      162     2229
      163     2230               %SEGPTR(NAME=B$AUTO$,D#=%AUTOSID);
      164     2235               %SEGPTR(NAME=B$COMMON$,D#=%COMMONSID);
      165     2240               %SEGPTR(NAME=B$PIA$,D#=%PIASID);
      166     2245               %SEGPTR(NAME=B$SPCL1$,D#=%SPCL1SID);
      167     2250               %SEGPTR(NAME=B$SPCL2$,D#=%SPCL2SID);
      168     2255               %SEGPTR(NAME=B$SPCL3$,D#=%SPCL3SID);
      169     2260               %SEGPTR(NAME=B$SPCL4$,D#=%SPCL4SID);
      170     2265               %SEGPTR(NAME=B$SPCL5$,D#=%SPCL5SID);
      171     2270               %SEGPTR(NAME=B$SPCL6$,D#=%SPCL6SID);
      172     2275               %SEGPTR(NAME=B$SPCL7$,D#=%SPCL7SID);
      173     2280               %SEGPTR(NAME=B$SPCL8$,D#=%SPCL8SID);
      174     2285              %SEGPTR(NAME=B$VS1$,D#=%VS1SID);
      175     2290              %SEGPTR(NAME=B$VS2$,D#=%VS2SID);
      176     2295              %SEGPTR(NAME=B$VS3$,D#=%VS3SID);
      177     2300
      178     2301
      179     2302        /* There are no pointers unique to the Debugger, ASL or CP Segments. */
      180     2303
      181     2304    1   END B_POINTER;

PL6.E3A0      #001=B_POINTER File=B_POINTER_D.:E05TSI                            TUE 07/29/97 11:09 Page:6
--  Include file information  --

   B_TABLES_C.:E05TOU  is referenced.
   B_MAGIC_C.:E05TOU  is referenced.
   B_SEGIDS_C.:E05TOU  is referenced.
   B_MACROS_C.:E05TOU  is referenced.
      No diagnostics issued in procedure B_POINTER.

   No code generated for procedure B_POINTER .
   Procedure B_POINTER requires 4 words of local(AUTO) storage.

    No errors detected in file B_POINTER_D.:E05TSI    .

PL6.E3A0      #001=B_POINTER File=B_POINTER_D.:E05TSI                            TUE 07/29/97 11:09 Page:7

 Object Unit name= B_POINTER                                  File name= B_POINTER_D.:E05TOU
 UTS= JUL 29 '97 11:09:29.80 TUE                              Compiler= PL-6/E31         Sev=      00
 SharedLib= :SHARED_SYSTEM                                    Alt SharedLib=


    ****  Control sections  ****

 Sect   Type Bound  Init  Size OctSiz  Section name(segment info)
    0  RoData even  UTS    157    235  B_POINTER
    1   Proc  even  none     0      0  B_POINTER

    ****  Entry defs  ****

                              Check   Calling
                             calling  sequence
  Sect OctLoc Primary Altret sequence   type   Parms  Name
     1      0   yes            yes     ~proc       0  B_POINTER

  ****  Data defs  ****

 Sect OctLoc  Name                           Sect OctLoc  Name
    0      0  B$IS$                              0      1  B$JIT$
    0      2  B$BUFSEG$                          0      3  B$ROSEG$
    0      4  B$DS1$                             0      5  B$DS2$
    0      6  B$DS3$                             0      7  B$DS4$
    0     10  B$DS5$                             0     11  B$DS6$
    0     12  B$DS7$                             0     13  B$DS8$
    0     14  B$NULL$                            0     15  B$XLATE$
    0     16  B$ECCB$                            0     17  B$TCB$
    0     20  B$TSTACK$                          0     21  B$REAL$
    0     22  B$IMX$                             0     23  B$USERSS$
    0     24  B$SDS0$                            0     25  B$SDS1$
    0     26  B$USERLS$                          0     27  B$DBLS$
    0     30  B$ASLLS$                           0     31  B$CPLS$
    0     32  B$LS$                              0     33  B$UPT$
    0     34  B$MPT$                             0     35  B$USERIS$
    0     36  B$MONTSTACK$                       0     37  B$MONJIT$
PL6.E3A0      #001=B_POINTER File=B_POINTER_D.:E05TSI                            TUE 07/29/97 11:09 Page:8
    0     40  B$MONHJIT$                         0     41  B$MONSS$
    0     42  B$USERHJIT$                        0     43  B$SBUF1$
    0     44  B$SBUF2$                           0     45  B$ISB$
    0     46  B$SCU$                             0     47  B$WINDOW$
    0     50  B$AS$                              0     51  B$MISC$
    0     52  B$CWSQ1$                           0     53  B$CWSQ2$
    0     54  B$CWSQ3$                           0     55  B$CWSQ4$
    0     56  B$CWSQ5$                           0     57  B$CWSQ6$
    0     60  B$CWSQ7$                           0     61  B$CWSQ8$
    0     62  B$CWSQ9$                           0     63  B$CWSQ10$
    0     64  B$CWSQ11$                          0     65  B$CWSQ12$
    0     66  B$CWSQ13$                          0     67  B$CWSQ14$
    0     70  B$CWSQ15$                          0     71  B$CWSQ16$
    0     72  B$CPGT1$                           0     73  B$CPGT2$
    0     74  B$CPGT3$                           0     75  B$CPGT4$
    0     76  B$CPGT5$                           0     77  B$CPGT6$
    0    100  B$CPGT7$                           0    101  B$CPGT8$
    0    102  B$CPGT9$                           0    103  B$CPGT10$
    0    104  B$CPGT11$                          0    105  B$CPGT12$
    0    106  B$CPGT13$                          0    107  B$CPGT14$
    0    110  B$CPGT15$                          0    111  B$CPGT16$
    0    112  B$JITPG$                           0    113  B$PPUT$
    0    114  B$VPT$                             0    115  B$MOUSE$
    0    116  B$LOWMEM$                          0    117  B$IOPT$
    0    120  B$TIGR$                            0    121  B$RONC$
    0    122  B$ROSEG8$                          0    123  B$MISC2$
    0    124  B$MLS1$                            0    125  B$WS3MLS$
    0    126  B$LDCTNC$                          0    127  B$MASTPT$
    0    130  B$SLV1PT$                          0    131  B$SLV2PT$
    0    132  B$SLV3PT$                          0    133  B$SLV4PT$
    0    134  B$SLV5PT$                          0    135  B$SLV6PT$
    0    136  B$SLV7PT$                          0    137  B$MASTHJIT$
    0    140  B$SLV1HJIT$                        0    141  B$SLV2HJIT$
    0    142  B$SLV3HJIT$                        0    143  B$SLV4HJIT$
    0    144  B$SLV5HJIT$                        0    145  B$SLV6HJIT$
    0    146  B$SLV7HJIT$                        0    147  B$FIRM$
    0    150  B$BUFCACHE$                        0    151  B$CGPT$
PL6.E3A0      #001=B_POINTER File=B_POINTER_D.:E05TSI                            TUE 07/29/97 11:09 Page:9
    0    152  B$CGCTXT$                          0    153  B$SEGTBL$
    0    154  B$WSQ0PT$                          0    155  B$IPHYMAP$
    0    156  B$MINIQENT$                        0    160  B_MPT
    0    174  B$M$STAR$                          0    175  B$M$LM$
    0    176  B$M$UC$                            0    177  B$M$DO$
    0    200  B$SR_NON_BLANK$                    0    201  B$SR_NON_ZERO$
    0    202  B$SR_NON_DEC$                      0    203  B$SR_NON_ALPHA$
    0    204  B$XL_ASC_EBC$                      0    205  B$XL_EBC_ASC$
    0    206  B$XL_LOWER$                        0    207  B$XL_UPPER$
    0    210  B$XL_UR$                           0    211  B$XL_UPPER_UR$
    0    212  B$XL_LOWER_UR$                     0    213  B$XL_MOD_256$
    0    214  B$XL_ASC_DUMP$                     0    215  B$XL_EBC_DUMP$
    0    216  B$DVTTBL$                          0    217  B$AUTO$
    0    220  B$COMMON$                          0    221  B$PIA$
    0    222  B$SPCL1$                           0    223  B$SPCL2$
    0    224  B$SPCL3$                           0    225  B$SPCL4$
    0    226  B$SPCL5$                           0    227  B$SPCL6$
    0    230  B$SPCL7$                           0    231  B$SPCL8$
    0    232  B$VS1$                             0    233  B$VS2$
    0    234  B$VS3$
PL6.E3A0      #001=B_POINTER File=B_POINTER_D.:E05TSI                            TUE 07/29/97 11:09 Page:10


(unnamed)
 Sect OctLoc
   0     000   000000 006000   000000 006001   000000 006002   000000 006003    ................
   0     004   000000 006004   000000 006005   000000 006006   000000 006007    ................
   0     010   000000 006010   000000 006011   000000 006012   000000 006013    ................
   0     014   000000 006014   000000 006015   000000 006016   000000 006017    ................
   0     020   000000 006020   000000 006021   000000 006162   000000 006022    ...........r....
   0     024   000000 006023   000000 006024   000000 006031   000000 006032    ................
   0     030   000000 006033   000000 006034   000000 006035   000000 006036    ................
   0     034   000000 006037   000000 006040   000000 006041   000000 006042    ....... ...!..."
   0     040   000000 006043   000000 006044   000000 006045   000000 006046    ...#...$...%...&
   0     044   000000 006047   000000 006050   000000 006051   000000 006052    ...'...(...)...*
   0     050   000000 006053   000000 006054   000000 006055   000000 006056    ...+...,...-....
   0     054   000000 006057   000000 006060   000000 006061   000000 006062    .../...0...1...2
   0     060   000000 006063   000000 006064   000000 006065   000000 006066    ...3...4...5...6
   0     064   000000 006067   000000 006070   000000 006071   000000 006072    ...7...8...9...:
   0     070   000000 006073   000000 006074   000000 006075   000000 006076    ...;...<...=...>
   0     074   000000 006077   000000 006100   000000 006101   000000 006102    ...?...@...A...B
   0     100   000000 006103   000000 006104   000000 006105   000000 006106    ...C...D...E...F
   0     104   000000 006107   000000 006110   000000 006111   000000 006112    ...G...H...I...J
   0     110   000000 006113   000000 006114   000000 006115   000000 006116    ...K...L...M...N
   0     114   000000 006117   000000 006120   000000 006121   000000 006122    ...O...P...Q...R
   0     120   000000 006123   000000 006124   000000 006125   000000 006130    ...S...T...U...X
   0     124   000000 006132   000000 006133   000000 006134   000000 006135    ...Z...[...\...]
   0     130   000000 006136   000000 006137   000000 006140   000000 006141    ...^..._...`...a
   0     134   000000 006142   000000 006143   000000 006144   000000 006145    ...b...c...d...e
   0     140   000000 006146   000000 006147   000000 006150   000000 006151    ...f...g...h...i
   0     144   000000 006152   000000 006153   000000 006154   000000 006157    ...j...k...l...o
   0     150   000000 006161   000000 006163   000000 006164   000000 006174    ...q...s...t...|
   0     154   000000 006175   000000 006176   000000 006177   ****** ******    ...}...~........
   0     160   000000 006165   000000 006166   000000 006167   000000 006170    ...u...v...w...x
   0     164   000000 006171   000000 006172   000352 006035   000354 006035    ...y...z........
   0     170   000356 006173   000360 006173   000362 006035   000364 006035    ...{...{........
   0     174   000124 006003   000266 006003   000430 006003   000572 006003    .T..............
   0     200   000000 006015   000200 006015   000400 006015   000600 006015    ................
   0     204   001000 006015   001200 006015   001400 006015   001600 006015    ................
PL6.E3A0      #001=B_POINTER File=B_POINTER_D.:E05TSI                            TUE 07/29/97 11:09 Page:11
   0     210   002000 006015   002200 006015   002400 006015   002600 006015    ................
   0     214   003000 006015   003200 006015   000000 006202   000000 006004    ................
   0     220   000000 006005   000000 006020   000000 006021   000000 006022    ................
   0     224   000000 006023   000000 006024   000000 006026   000000 006027    ................
   0     230   000000 006030   000000 006031   000000 006032   000000 006033    ................
   0     234   000000 006034                                                    ....
        1        1        /*M* Definitions for all constant Linkage Segment pointers.        */
        2        2        /*T***********************************************************/
        3        3        /*T*                                                         */
        4        4        /*T* Copyright (c) Bull HN Information Systems Inc., 1997    */
        5        5        /*T*                                                         */
        6        6        /*T***********************************************************/
        7        7        B_POINTER: PROC;
        8        8
        9        9        %INCLUDE B_MACROS_C;                    /* MACROS FOR GENERATING POINTERS     */
       10      120        %INCLUDE B_SEGIDS_C;                    /* SEGID DEFINITIONS FOR POINTERS     */
       11      659        %INCLUDE B_MAGIC_C;                     /* MAGIC MACROS                       */
       12      777        %INCLUDE B_TABLES_C;                    /* OFFSETS FOR XLATE TABLE POINTERS   */
       13     1468
       14     1469        /* This module defines 'canned' pointers corresponding to all      */
       15     1470        /* monitor and user linkage segment descriptors (with the exception*/
       16     1471        /* of entry descriptors). The canned pointers are NSA pointers     */
       17     1472        /* which specify the appropriate SEGID's for the descriptors which */
       18     1473        /* they reference.                                                 */
       19     1474
       20     1475        /* Canned pointers for the monitor Linkage Segment entries: */
       21     1476               %SEGPTR(NAME=B$IS$,D#=%ISSID);
       22     1481               %SEGPTR(NAME=B$JIT$,D#=%JITSID);
       23     1486               %SEGPTR(NAME=B$BUFSEG$,D#=%BUFSID);
       24     1491               %SEGPTR(NAME=B$ROSEG$,D#=%ROSID);
       25     1496               %SEGPTR(NAME=B$DS1$,D#=%DS1SID);
       26     1501               %SEGPTR(NAME=B$DS2$,D#=%DS2SID);
       27     1506               %SEGPTR(NAME=B$DS3$,D#=%DS3SID);
       28     1511               %SEGPTR(NAME=B$DS4$,D#=%DS4SID);
       29     1516               %SEGPTR(NAME=B$DS5$,D#=%DS5SID);
       30     1521               %SEGPTR(NAME=B$DS6$,D#=%DS6SID);
       31     1526               %SEGPTR(NAME=B$DS7$,D#=%DS7SID);
PL6.E3A0      #001=B_POINTER File=B_POINTER_D.:E05TSI                            TUE 07/29/97 11:09 Page:12
       32     1531               %SEGPTR(NAME=B$DS8$,D#=%DS8SID);
       33     1536               %SEGPTR(NAME=B$NULL$,D#=%NULLSID);
       34     1541               %SEGPTR(NAME=B$XLATE$,D#=%XLATESID);
       35     1546               %SEGPTR(NAME=B$ECCB$,D#=%ECCBSID);
       36     1551               %SEGPTR(NAME=B$TCB$,D#=%TCBSID);
       37     1556               %SEGPTR(NAME=B$TSTACK$,D#=%TSTACKSID);
       38     1561               %SEGPTR(NAME=B$REAL$,D#=%REALSID);
       39     1566               %SEGPTR(NAME=B$IMX$,D#=%IMXSID);
       40     1571               %SEGPTR(NAME=B$USERSS$,D#=%USERSSSID);
       41     1576               %SEGPTR(NAME=B$SDS0$,D#=%SDS0SID);
       42     1581               %SEGPTR(NAME=B$SDS1$,D#=%SDS1SID);
       43     1586               %SEGPTR(NAME=B$USERLS$,D#=%USERLSSID);
       44     1591               %SEGPTR(NAME=B$DBLS$,D#=%DBLSSID);
       45     1596               %SEGPTR(NAME=B$ASLLS$,D#=%ASLLSSID);
       46     1601               %SEGPTR(NAME=B$CPLS$,D#=%CPLSSID);
       47     1606               %SEGPTR(NAME=B$LS$,D#=%LSSID);
       48     1611               %SEGPTR(NAME=B$UPT$,D#=%UPTSID);
       49     1616               %SEGPTR(NAME=B$MPT$,D#=%MPTSID);
       50     1621               %SEGPTR(NAME=B$USERIS$,D#=%USERISSID);
       51     1626               %SEGPTR(NAME=B$MONTSTACK$,D#=%MTSTACKSID);
       52     1631               %SEGPTR(NAME=B$MONJIT$,D#=%MJITSID);
       53     1636               %SEGPTR(NAME=B$MONHJIT$,D#=%MHJITSID);
       54     1641               %SEGPTR(NAME=B$MONSS$,D#=%MONSSSID);
       55     1646               %SEGPTR(NAME=B$USERHJIT$,D#=%USERHJITSID);
       56     1651               %SEGPTR(NAME=B$SBUF1$,D#=%SBUF1SID);
       57     1656               %SEGPTR(NAME=B$SBUF2$,D#=%SBUF2SID);
       58     1661               %SEGPTR(NAME=B$ISB$,D#=%ISBSID);
       59     1666               %SEGPTR(NAME=B$SCU$,D#=%SCUSID);
       60     1671               %SEGPTR(NAME=B$WINDOW$,D#=%WINDOWSID);
       61     1676               %SEGPTR(NAME=B$AS$,D#=%ASSID);
       62     1681               %SEGPTR(NAME=B$MISC$,D#=%MISCSID);
       63     1686               %SEGPTR(NAME=B$CWSQ1$,D#=%CWSQ1SID);
       64     1691               %SEGPTR(NAME=B$CWSQ2$,D#=%CWSQ2SID);
       65     1696               %SEGPTR(NAME=B$CWSQ3$,D#=%CWSQ3SID);
       66     1701               %SEGPTR(NAME=B$CWSQ4$,D#=%CWSQ4SID);
       67     1706               %SEGPTR(NAME=B$CWSQ5$,D#=%CWSQ5SID);
       68     1711               %SEGPTR(NAME=B$CWSQ6$,D#=%CWSQ6SID);
PL6.E3A0      #001=B_POINTER File=B_POINTER_D.:E05TSI                            TUE 07/29/97 11:09 Page:13
       69     1716               %SEGPTR(NAME=B$CWSQ7$,D#=%CWSQ7SID);
       70     1721               %SEGPTR(NAME=B$CWSQ8$,D#=%CWSQ8SID);
       71     1726               %SEGPTR(NAME=B$CWSQ9$,D#=%CWSQ9SID);
       72     1731               %SEGPTR(NAME=B$CWSQ10$,D#=%CWSQ10SID);
       73     1736               %SEGPTR(NAME=B$CWSQ11$,D#=%CWSQ11SID);
       74     1741               %SEGPTR(NAME=B$CWSQ12$,D#=%CWSQ12SID);
       75     1746               %SEGPTR(NAME=B$CWSQ13$,D#=%CWSQ13SID);
       76     1751               %SEGPTR(NAME=B$CWSQ14$,D#=%CWSQ14SID);
       77     1756               %SEGPTR(NAME=B$CWSQ15$,D#=%CWSQ15SID);
       78     1761               %SEGPTR(NAME=B$CWSQ16$,D#=%CWSQ16SID);
       79     1766               %SEGPTR(NAME=B$CPGT1$,D#=%CPGT1SID);
       80     1771               %SEGPTR(NAME=B$CPGT2$,D#=%CPGT2SID);
       81     1776               %SEGPTR(NAME=B$CPGT3$,D#=%CPGT3SID);
       82     1781               %SEGPTR(NAME=B$CPGT4$,D#=%CPGT4SID);
       83     1786               %SEGPTR(NAME=B$CPGT5$,D#=%CPGT5SID);
       84     1791               %SEGPTR(NAME=B$CPGT6$,D#=%CPGT6SID);
       85     1796               %SEGPTR(NAME=B$CPGT7$,D#=%CPGT7SID);
       86     1801               %SEGPTR(NAME=B$CPGT8$,D#=%CPGT8SID);
       87     1806               %SEGPTR(NAME=B$CPGT9$,D#=%CPGT9SID);
       88     1811               %SEGPTR(NAME=B$CPGT10$,D#=%CPGT10SID);
       89     1816               %SEGPTR(NAME=B$CPGT11$,D#=%CPGT11SID);
       90     1821               %SEGPTR(NAME=B$CPGT12$,D#=%CPGT12SID);
       91     1826               %SEGPTR(NAME=B$CPGT13$,D#=%CPGT13SID);
       92     1831               %SEGPTR(NAME=B$CPGT14$,D#=%CPGT14SID);
       93     1836               %SEGPTR(NAME=B$CPGT15$,D#=%CPGT15SID);
       94     1841               %SEGPTR(NAME=B$CPGT16$,D#=%CPGT16SID);
       95     1846               %SEGPTR(NAME=B$JITPG$,D#=%JITPGSID);
       96     1851               %SEGPTR(NAME=B$PPUT$,D#=%PPUTSID);
       97     1856               %SEGPTR(NAME=B$VPT$,D#=%VPTSID);
       98     1861               %SEGPTR(NAME=B$MOUSE$,D#=%MOUSESID);
       99     1866               %SEGPTR(NAME=B$LOWMEM$,D#=%LOWMEMSID);
      100     1871               %SEGPTR(NAME=B$IOPT$,D#=%IOENDSID);
      101     1876               %SEGPTR(NAME=B$TIGR$,D#=%TIGRSID);
      102     1881               %SEGPTR(NAME=B$RONC$,D#=%RONCSID);
      103     1886               %SEGPTR(NAME=B$ROSEG8$,D#=%ROSEG8SID);
      104     1891               %SEGPTR(NAME=B$MISC2$,D#=%MISC2SID);
      105     1896               %SEGPTR(NAME=B$MLS1$,D#=%MLS1SID);
PL6.E3A0      #001=B_POINTER File=B_POINTER_D.:E05TSI                            TUE 07/29/97 11:09 Page:14
      106     1901               %SEGPTR(NAME=B$WS3MLS$,D#=%WS3MLSSID);
      107     1906               %SEGPTR(NAME=B$LDCTNC$,D#=%LDCTNCSID);
      108     1911                %SEGPTR(NAME=B$MASTPT$,D#=%MASTERPTSID);
      109     1916                %SEGPTR(NAME=B$SLV1PT$,D#=%SLV1PTSID);
      110     1921                %SEGPTR(NAME=B$SLV2PT$,D#=%SLV2PTSID);
      111     1926                %SEGPTR(NAME=B$SLV3PT$,D#=%SLV3PTSID);
      112     1931                %SEGPTR(NAME=B$SLV4PT$,D#=%SLV4PTSID);
      113     1936                %SEGPTR(NAME=B$SLV5PT$,D#=%SLV5PTSID);
      114     1941                %SEGPTR(NAME=B$SLV6PT$,D#=%SLV6PTSID);
      115     1946                %SEGPTR(NAME=B$SLV7PT$,D#=%SLV7PTSID);
      116     1951                %SEGPTR(NAME=B$MASTHJIT$,D#=%MASTERHJITSID);
      117     1956                %SEGPTR(NAME=B$SLV1HJIT$,D#=%SLV1HJITSID);
      118     1961                %SEGPTR(NAME=B$SLV2HJIT$,D#=%SLV2HJITSID);
      119     1966                %SEGPTR(NAME=B$SLV3HJIT$,D#=%SLV3HJITSID);
      120     1971                %SEGPTR(NAME=B$SLV4HJIT$,D#=%SLV4HJITSID);
      121     1976                %SEGPTR(NAME=B$SLV5HJIT$,D#=%SLV5HJITSID);
      122     1981                %SEGPTR(NAME=B$SLV6HJIT$,D#=%SLV6HJITSID);
      123     1986                %SEGPTR(NAME=B$SLV7HJIT$,D#=%SLV7HJITSID);
      124     1991                %SEGPTR(NAME=B$FIRM$,D#=%FIRMSID);
      125     1996                %SEGPTR(NAME=B$BUFCACHE$,D#=%BUFCACHESID);
      126     2001                %SEGPTR(NAME=B$CGPT$,D#=%CGPTSID);
      127     2006                %SEGPTR(NAME=B$CGCTXT$,D#=%CGCTXTSID);
      128     2011               %SEGPTR(NAME=B$SEGTBL$,D#=%SEGTBLSID);
      129     2016               %SEGPTR(NAME=B$WSQ0PT$,D#=%WSQ0PTSID);
      130     2021               %SEGPTR(NAME=B$IPHYMAP$,D#=%IPHYMAPSID);
      131     2026               %SEGPTR(NAME=B$MINIQENT$,D#=%MINIQENTSID);
      132     2031                 %B_MPT (FPTN=B_MPT,STCLASS="CONSTANT SYMDEF");
      133     2124
      134     2125
      135     2126        /* DCB pointers for the fixed DCBs */
      136     2127        %EQU ROSEGSIZ = 84;
      137     2128        %EQU DCBSIZ = 98;
      138     2129        %SEGPTR( NAME=B$M$STAR$, D#=%ROSID, DISP="%(ROSEGSIZ*64)" );
      139     2134        %SEGPTR( NAME=B$M$LM$, D#=%ROSID, DISP="%((ROSEGSIZ+DCBSIZ)*64)" );
      140     2139        %SEGPTR( NAME=B$M$UC$, D#=%ROSID, DISP="%((ROSEGSIZ+2*DCBSIZ)*64)" );
      141     2144        %SEGPTR( NAME=B$M$DO$, D#=%ROSID, DISP="%((ROSEGSIZ+3*DCBSIZ)*64)" );
      142     2149
PL6.E3A0      #001=B_POINTER File=B_POINTER_D.:E05TSI                            TUE 07/29/97 11:09 Page:15
      143     2150        /* Define pointers for common XLATE and SEARCH tables: */
      144     2151        %SEGPTR( NAME=B$SR_NON_BLANK$, D#=%XLATESID, DISP="%(B#SR_NON_BLANK*64)" );
      145     2156        %SEGPTR( NAME=B$SR_NON_ZERO$, D#=%XLATESID, DISP="%(B#SR_NON_ZERO*64)" );
      146     2161        %SEGPTR( NAME=B$SR_NON_DEC$, D#=%XLATESID, DISP="%(B#SR_NON_DEC*64)" );
      147     2166        %SEGPTR( NAME=B$SR_NON_ALPHA$, D#=%XLATESID, DISP="%(B#SR_NON_ALPHA*64)" );
      148     2171        %SEGPTR( NAME=B$XL_ASC_EBC$, D#=%XLATESID, DISP="%(B#XL_ASC_EBC*64)" );
      149     2176        %SEGPTR( NAME=B$XL_EBC_ASC$, D#=%XLATESID, DISP="%(B#XL_EBC_ASC*64)" );
      150     2181        %SEGPTR( NAME=B$XL_LOWER$, D#=%XLATESID, DISP="%(B#XL_LOWER*64)" );
      151     2186        %SEGPTR( NAME=B$XL_UPPER$, D#=%XLATESID, DISP="%(B#XL_UPPER*64)" );
      152     2191        %SEGPTR( NAME=B$XL_UR$, D#=%XLATESID, DISP="%(B#XL_UR*64)" );
      153     2196        %SEGPTR( NAME=B$XL_UPPER_UR$, D#=%XLATESID, DISP="%(B#XL_UPPER_UR*64)" );
      154     2201        %SEGPTR( NAME=B$XL_LOWER_UR$, D#=%XLATESID, DISP="%(B#XL_LOWER_UR*64)" );
      155     2206        %SEGPTR( NAME=B$XL_MOD_256$, D#=%XLATESID, DISP="%(B#XL_MOD_256*64)" );
      156     2211        %SEGPTR( NAME=B$XL_ASC_DUMP$, D#=%XLATESID, DISP="%(B#XL_ASC_DUMP*64)" );
      157     2216        %SEGPTR( NAME=B$XL_EBC_DUMP$, D#=%XLATESID, DISP="%(B#XL_EBC_DUMP*64)" );
      158     2221        %SEGPTR( NAME=B$DVTTBL$, D#=%DVTTBLSID);
      159     2226
      160     2227
      161     2228        /* Pointers unique to the User Linkage Segment: */
      162     2229
      163     2230               %SEGPTR(NAME=B$AUTO$,D#=%AUTOSID);
      164     2235               %SEGPTR(NAME=B$COMMON$,D#=%COMMONSID);
      165     2240               %SEGPTR(NAME=B$PIA$,D#=%PIASID);
      166     2245               %SEGPTR(NAME=B$SPCL1$,D#=%SPCL1SID);
      167     2250               %SEGPTR(NAME=B$SPCL2$,D#=%SPCL2SID);
      168     2255               %SEGPTR(NAME=B$SPCL3$,D#=%SPCL3SID);
      169     2260               %SEGPTR(NAME=B$SPCL4$,D#=%SPCL4SID);
      170     2265               %SEGPTR(NAME=B$SPCL5$,D#=%SPCL5SID);
      171     2270               %SEGPTR(NAME=B$SPCL6$,D#=%SPCL6SID);
      172     2275               %SEGPTR(NAME=B$SPCL7$,D#=%SPCL7SID);
      173     2280               %SEGPTR(NAME=B$SPCL8$,D#=%SPCL8SID);
      174     2285              %SEGPTR(NAME=B$VS1$,D#=%VS1SID);
      175     2290              %SEGPTR(NAME=B$VS2$,D#=%VS2SID);
      176     2295              %SEGPTR(NAME=B$VS3$,D#=%VS3SID);
      177     2300
      178     2301
      179     2302        /* There are no pointers unique to the Debugger, ASL or CP Segments. */
PL6.E3A0      #001=B_POINTER File=B_POINTER_D.:E05TSI                            TUE 07/29/97 11:09 Page:16
      180     2303
      181     2304    1   END B_POINTER;

PL6.E3A0      #001=B_POINTER File=B_POINTER_D.:E05TSI                            TUE 07/29/97 11:09 Page:17
--  Include file information  --

   B_TABLES_C.:E05TOU  is referenced.
   B_MAGIC_C.:E05TOU  is referenced.
   B_SEGIDS_C.:E05TOU  is referenced.
   B_MACROS_C.:E05TOU  is referenced.
      No diagnostics issued in procedure B_POINTER.
PL6.E3A0      #001=B_POINTER File=B_POINTER_D.:E05TSI                            TUE 07/29/97 11:09 Page:18

 **** Variables and constants ****


   No code generated for procedure B_POINTER .
   Procedure B_POINTER requires 4 words of local(AUTO) storage.

    No errors detected in file B_POINTER_D.:E05TSI    .
PL6.E3A0      #001=B_POINTER File=B_POINTER_D.:E05TSI                            TUE 07/29/97 11:09 Page:19
          *** CROSS REFERENCE LISTING ***
**     DENOTES     IDENTIFIER DEFINITION
<<                 IDENTIFIER'S VALUE SET
>>                 IDENTIFIER'S VALUE USED
<>                 IDENTIFIER SET AND/OR USED
--                 IDENTIFIER REFERENCED
PL6.E3A0      #001=B_POINTER File=B_POINTER_D.:E05TSI                            TUE 07/29/97 11:09 Page:20
          MINI XREF LISTING

B_MPT.AS
      2067**DCL      2070--REDEF
B_MPT.ASDESC
      2099**DCL      2103--REDEF
B_MPT.ECCB
      2082**DCL      2085--REDEF
B_MPT.ECCBDESC
      2117**DCL      2121--REDEF
B_MPT.LS
      2062**DCL      2065--REDEF
B_MPT.LSDESC
      2093**DCL      2097--REDEF
B_MPT.PS
      2072**DCL      2075--REDEF
B_MPT.PSDESC
      2105**DCL      2109--REDEF
B_MPT.SS
      2057**DCL      2060--REDEF
B_MPT.SSDESC
      2087**DCL      2091--REDEF
B_MPT.TCB
      2077**DCL      2080--REDEF
B_MPT.TCBDESC
      2111**DCL      2115--REDEF
