VERSION E05

PL6.E3A0      #001=B_PTRS_D File=B_PTRS_D.:E05TSI                                TUE 07/29/97 11:09 Page:1
        1        1        /*M*  B_PTRS_D - Various system-wide pointers */
        2        2        /*T***********************************************************/
        3        3        /*T*                                                         */
        4        4        /*T* Copyright (c) Bull HN Information Systems Inc., 1997    */
        5        5        /*T*                                                         */
        6        6        /*T***********************************************************/
        7        7        /**/
        8        8        /**/
        9        9        B_PTRS_D: PROC;
       10       10        /* Parameter stack pointers */
       11       11    1   DCL B$PS$(0:19) SBIN CONSTANT SYMDEF INIT
       12       12    1       (0,1,2,3,4,5,6,7,8,9,10,11,12,13,14,15,16,17,18,19);
       13       13        /**/
       14       14    1   END B_PTRS_D;

PL6.E3A0      #001=B_PTRS_D File=B_PTRS_D.:E05TSI                                TUE 07/29/97 11:09 Page:2
      No diagnostics issued in procedure B_PTRS_D.

   No code generated for procedure B_PTRS_D .
   Procedure B_PTRS_D requires 4 words of local(AUTO) storage.

    No errors detected in file B_PTRS_D.:E05TSI    .

PL6.E3A0      #001=B_PTRS_D File=B_PTRS_D.:E05TSI                                TUE 07/29/97 11:09 Page:3

 Object Unit name= B_PTRS_D                                   File name= B_PTRS_D.:E05TOU
 UTS= JUL 29 '97 11:09:47.08 TUE                              Compiler= PL-6/E31         Sev=      00
 SharedLib= :SHARED_SYSTEM                                    Alt SharedLib=


    ****  Control sections  ****

 Sect   Type Bound  Init  Size OctSiz  Section name(segment info)
    0  RoData even  UTS     20     24  B_PTRS_D
    1   Proc  even  none     0      0  B_PTRS_D

    ****  Entry defs  ****

                              Check   Calling
                             calling  sequence
  Sect OctLoc Primary Altret sequence   type   Parms  Name
     1      0   yes            yes     ~proc       0  B_PTRS_D

  ****  Data defs  ****

 Sect OctLoc  Name                           Sect OctLoc  Name
    0      0  B$PS$
PL6.E3A0      #001=B_PTRS_D File=B_PTRS_D.:E05TSI                                TUE 07/29/97 11:09 Page:4


(unnamed)
 Sect OctLoc
   0     000   000000 000000   000000 000001   000000 000002   000000 000003    ................
   0     004   000000 000004   000000 000005   000000 000006   000000 000007    ................
   0     010   000000 000010   000000 000011   000000 000012   000000 000013    ................
   0     014   000000 000014   000000 000015   000000 000016   000000 000017    ................
   0     020   000000 000020   000000 000021   000000 000022   000000 000023    ................
        1        1        /*M*  B_PTRS_D - Various system-wide pointers */
        2        2        /*T***********************************************************/
        3        3        /*T*                                                         */
        4        4        /*T* Copyright (c) Bull HN Information Systems Inc., 1997    */
        5        5        /*T*                                                         */
        6        6        /*T***********************************************************/
        7        7        /**/
        8        8        /**/
        9        9        B_PTRS_D: PROC;
       10       10        /* Parameter stack pointers */
       11       11    1   DCL B$PS$(0:19) SBIN CONSTANT SYMDEF INIT
       12       12    1       (0,1,2,3,4,5,6,7,8,9,10,11,12,13,14,15,16,17,18,19);
       13       13        /**/
       14       14    1   END B_PTRS_D;

PL6.E3A0      #001=B_PTRS_D File=B_PTRS_D.:E05TSI                                TUE 07/29/97 11:09 Page:5
      No diagnostics issued in procedure B_PTRS_D.
PL6.E3A0      #001=B_PTRS_D File=B_PTRS_D.:E05TSI                                TUE 07/29/97 11:09 Page:6

 **** Variables and constants ****


   No code generated for procedure B_PTRS_D .
   Procedure B_PTRS_D requires 4 words of local(AUTO) storage.

    No errors detected in file B_PTRS_D.:E05TSI    .
PL6.E3A0      #001=B_PTRS_D File=B_PTRS_D.:E05TSI                                TUE 07/29/97 11:09 Page:7
          *** CROSS REFERENCE LISTING ***
**     DENOTES     IDENTIFIER DEFINITION
<<                 IDENTIFIER'S VALUE SET
>>                 IDENTIFIER'S VALUE USED
<>                 IDENTIFIER SET AND/OR USED
--                 IDENTIFIER REFERENCED
PL6.E3A0      #001=B_PTRS_D File=B_PTRS_D.:E05TSI                                TUE 07/29/97 11:09 Page:8
          MINI XREF LISTING

