VERSION E05

PL6.E3A0      #001=B_SCREECH_D File=B_SCREECH_D.:E05TSI                          TUE 07/29/97 11:09 Page:1
        1        1        /*M*   B_SCREECH_D    CP-6 SCREECH Codes            */
        2        2        /*T***********************************************************/
        3        3        /*T*                                                         */
        4        4        /*T* Copyright (c) Bull HN Information Systems Inc., 1997    */
        5        5        /*T*                                                         */
        6        6        /*T***********************************************************/
        7        7        B_SCREECH_D: PROC;
        8        8
        9        9        %INCLUDE JS_CP6;
       10      427        %INCLUDE B_SCODE_C;
       11     1095
       12     1096
       13     1097                                                /*  FAULT HANDLER SCREECH CODES       */
       14     1098
       15     1099        %VLP_SCREECH (STCLASS=CONSTANT SYMDEF,FPTN=SC_HFERR,FCG=HF,MID=B,CODE=%S$HFERROR);
       16     1169
       17     1170        %VLP_SCREECH (STCLASS=STATIC SYMDEF,FPTN=SC_HFA7,FCG=HF,MID=A,MPROC=NO,CUSRS=YES,
              1170            ALLUSR=NO);
       18     1240        %VLP_SCREECH (STCLASS=STATIC SYMDEF,FPTN=SC_HFA6,FCG=HF,MID=A,MPROC=NO,CUSRS=YES,
              1240            ALLUSR=NO,SEV=SEV_SUA);
       19     1310
       20     1311
       21     1312        %VLP_SCREECH (STCLASS=CONSTANT SYMDEF,FPTN=SC_HFSSF,FCG=HF,MID=A,CODE=%S$SSFULL,
       22     1313                  MPROC=NO,ALLUSR=NO);
       23     1383
       24     1384        %VLP_SCREECH (STCLASS=CONSTANT SYMDEF,FPTN=SC_HFTSF,FCG=HF,MID=A,CODE=%S$MTSTK,
       25     1385                  MPROC=NO,ALLUSR=NO);
       26     1455
       27     1456        %VLP_SCREECH (STCLASS=CONSTANT SYMDEF,FPTN=SC_TOOLONG,FCG=HF,MID=C,CODE=%S$TOOLONG,
              1456            MPROC=NO,ALLUSR=NO);
       28     1526
       29     1527        %VLP_SCREECH (STCLASS=CONSTANT SYMDEF,FPTN=SC_NEGDIS,FCG=HF,MID=C,CODE=%S$NEGDIS,
              1527            MPROC=NO,ALLUSR=NO);
       30     1597
       31     1598        %VLP_SCREECH (STCLASS=CONSTANT SYMDEF,FPTN=SC_NOTLOCKED,FCG=HF,MID=C,CODE=
              1598            %S$NOTLOCKED,MPROC=NO,ALLUSR=NO);
       32     1668
PL6.E3A0      #001=B_SCREECH_D File=B_SCREECH_D.:E05TSI                          TUE 07/29/97 11:09 Page:2
       33     1669        %VLP_SCREECH (STCLASS=CONSTANT SYMDEF,FPTN=SC_WRONGUSER,FCG=HF,MID=C,CODE=
              1669            %S$WRONGUSER,MPROC=NO,ALLUSR=NO);
       34     1739
       35     1740        %VLP_SCREECH (STCLASS=CONSTANT SYMDEF,FPTN=SC_NEGGATECNT,FCG=HF,MID=C,CODE=
              1740            %S$NEGGATECNT,MPROC=NO,ALLUSR=NO);
       36     1810
       37     1811        %VLP_SCREECH (STCLASS=CONSTANT SYMDEF,FPTN=SC_BADSTIMR,FCG=HF,MID=C,CODE=%S$BADSTIMR
              1811            ,MPROC=NO,ALLUSR=NO);
       38     1881
       39     1882        %VLP_SCREECH (STCLASS=CONSTANT SYMDEF,FPTN=SC_QXDELTA,FCG=HF,MID=A,CODE=%S$QXDELTA);
       40     1952
       41     1953        %VLP_SCODE (STCLASS=STATIC SYMDEF,FPTN=SC_DIAGSNAP,FCG=HF,MID=A,CODE=%S$DIAGSNAP,
       42     1954               CUSR=YES,ROSEG=YES);
       43     2015
       44     2016        %VLP_SCREECH (STCLASS=CONSTANT SYMDEF,FPTN=SC_SLAVE,FCG=HF,MID=A,CODE=%S$SLAVE);
       45     2086
       46     2087
       47     2088
       48     2089                                                /*  EXECUTION CONTROL SCREECH CODES   */
       49     2090
       50     2091        %VLP_SCODE (STCLASS=STATIC SYMDEF,FPTN=SC_USER,AUSER=YES);
       51     2152                                                /* USED BY JSP$PMME FOR M$SCREECH     */
       52     2153
       53     2154        %VLP_SUA   (STCLASS=CONSTANT SYMDEF,FPTN=SC_CPTCB,FCG=JS,MID=A,CODE=%S$CPTCB,
       54     2155                SPBUF=NO,FMBUF=NO,DDSEG=NO,
       55     2156                DBSEG=NO,ASLSEG=NO);
       56     2226
       57     2227        %VLP_SCODE (STCLASS=CONSTANT SYMDEF,FPTN=SC_JSPDTCB,FCG=JS,MID=P,CODE=%S$DTCB,SEV=
              2227            SEV_SUA,
       58     2228               CUSR=YES,ROSEG=YES,ISEG=YES,DDSEG=YES,DBSEG=YES);
       59     2289
       60     2290        %VLP_SCODE (STCLASS=CONSTANT SYMDEF,FPTN=SC_CPEXIT,FCG=JS,MID=P,CODE=%S$CPEXIT,SEV=
              2290            SEV_SUA,
       61     2291               CUSR=YES,ROSEG=YES,ISEG=YES,DDSEG=YES,DBSEG=YES,ASLSEG=YES,CPSEG=YES);
       62     2352
       63     2353        %VLP_SUA     (STCLASS=CONSTANT SYMDEF,FPTN=SC_RNDSPC,FCG=JS,MID=A,CODE=%S$RUNDSPC);
       64     2423
PL6.E3A0      #001=B_SCREECH_D File=B_SCREECH_D.:E05TSI                          TUE 07/29/97 11:09 Page:3
       65     2424        %VLP_SUA (STCLASS=CONSTANT SYMDEF,FPTN=SC_JSECPSUA,FCG=JS,MID=E,CODE=%S$CPSUA,
       66     2425              CGDATA=NO,CURCG=NO);
       67     2495
       68     2496        %VLP_SUA (STCLASS=CONSTANT SYMDEF,FPTN=SC_DELSET,FCG=JL,MID=U,CODE=%S$DELSET,
       69     2497              CGDATA=NO,CURCG=NO,SEV=SEV_SNAP);
       70     2567
       71     2568        %VLP_SUA (STCLASS=CONSTANT SYMDEF,FPTN=SC_JSESSF,FCG=JS,MID=E,CODE=%S$SSFRAME,
       72     2569              CGDATA=NO,CURCG=NO);
       73     2639
       74     2640        %VLP_SCODE (STCLASS=CONSTANT SYMDEF,FPTN=SC_JSNSSF,FCG=JS,MID=N,CODE=%S$SSLIMIT,SEV=
              2640            SEV_SUA,
       75     2641               CUSR=YES,ROSEG=YES,ISEG=YES,DDSEG=YES,ASLSEG=YES);
       76     2702
       77     2703        %VLP_SUA (STCLASS=CONSTANT SYMDEF,FPTN=SC_JSEASF,FCG=JS,MID=E,CODE=%S$MAGIC,
       78     2704              SPBUF=NO,FMBUF=NO,DDSEG=NO,
       79     2705              DBSEG=NO,ASLSEG=NO,CPSEG=NO);
       80     2775
       81     2776        %VLP_SCREECH (STCLASS=CONSTANT SYMDEF,FPTN=SC_GHOST,FCG=JS,MID=U,CODE=%S$GHOST);
       82     2846
       83     2847        %VLP_SUA (STCLASS=CONSTANT SYMDEF,FPTN=SC_FMRUND,FCG=JS,MID=R,CODE=%S$FMRUND,SEV=
              2847            SEV_SNAP);
       84     2917
       85     2918        %VLP_SUA (STCLASS=CONSTANT SYMDEF,FPTN=SC_JSEMING,FCG=JS,MID=E,CODE=%S$MING);
       86     2988
       87     2989        %VLP_SUA (STCLASS=CONSTANT SYMDEF,FPTN=SC_SSPDS,FCG=JS,MID=A,CODE=%S$SSPDS,
       88     2990              CGDATA=NO,CURCG=NO,SEV=SEV_SNAP);
       89     3060
       90     3061        %VLP_SUA (STCLASS=CONSTANT SYMDEF,FPTN=SC_BADNF,FCG=JL,MID=L,CODE=%S$BADNF,
       91     3062              CGDATA=NO,CURCG=NO,SEV=SEV_SNAP);
       92     3132
       93     3133        %VLP_SUA (STCLASS=CONSTANT SYMDEF,FPTN=SC_SYSIDNF,FCG=JL,MID=S,CODE=%S$SYSIDNF,
       94     3134              CGDATA=NO,CURCG=NO,SEV=SEV_SNAP);
       95     3204
       96     3205        %VLP_SUA (STCLASS=CONSTANT SYMDEF,FPTN=SC_INFONF,FCG=JL,MID=S,CODE=%S$INFONF,
       97     3206              CGDATA=NO,CURCG=NO,SEV=SEV_SNAP);
       98     3276
       99     3277        %VLP_SUA (STCLASS=CONSTANT SYMDEF,FPTN=SC_IOERRNF,FCG=JL,MID=L,CODE=%S$IOERRNF,
PL6.E3A0      #001=B_SCREECH_D File=B_SCREECH_D.:E05TSI                          TUE 07/29/97 11:09 Page:4
      100     3278              CGDATA=NO,CURCG=NO,SEV=SEV_SNAP);
      101     3348
      102     3349        %VLP_SUA (STCLASS=CONSTANT SYMDEF,FPTN=SC_IOERRNF_Q,FCG=JQ,MID=S,CODE=%S$IOERRNF,
      103     3350              CGDATA=NO,CURCG=NO,SEV=SEV_SNAP);
      104     3420
      105     3421        %VLP_SUA (STCLASS=CONSTANT SYMDEF,FPTN=SC_LDLNK,FCG=JL,MID=S,CODE=%S$LDLNK,
      106     3422              CGDATA=NO,CURCG=NO,SEV=SEV_SNAP);
      107     3492
      108     3493        %VLP_SUA (STCLASS=CONSTANT SYMDEF,FPTN=SC_VARRAY,FCG=JL,MID=L,CODE=%S$VARRAY,
      109     3494              CGDATA=NO,CURCG=NO,SEV=SEV_SNAP);
      110     3564
      111     3565        %VLP_SUA (STCLASS=CONSTANT SYMDEF,FPTN=SC_WSTAR,FCG=JS,MID=U,CODE=%S$WSTAR,
      112     3566              CGDATA=NO,CURCG=NO,SEV=SEV_SNAP);
      113     3636
      114     3637        %VLP_SUA (STCLASS=CONSTANT SYMDEF,FPTN=SC_SEGLD,FCG=JD,MID=P,CODE=%S$SEGLD,
      115     3638              SPBUF=YES,FMBUF=NO,DDSEG=NO,
      116     3639              DBSEG=NO,ASLSEG=NO,CPSEG=NO);
      117     3709
      118     3710        %VLP_SCODE (STCLASS=CONSTANT SYMDEF,FPTN=SC_ASAVE,FCG=JZ,MID=B,CODE=%S$ASAVE,
      119     3711               ASAVE=YES,PPUT=YES,CUSR=YES);
      120     3772
      121     3773        %VLP_SUA (STCLASS=CONSTANT SYMDEF,FPTN=SC_UE_LCP6_FCN,FCG=UE,MID=P,CODE=
              3773            %S$BAD_LCP6_FCN,
      122     3774              SPBUF=NO,FMBUF=NO,DDSEG=NO,
      123     3775              DBSEG=YES,ASLSEG=NO,CPSEG=NO);
      124     3845
      125     3846        %EJECT;
PL6.E3A0      #001=B_SCREECH_D File=B_SCREECH_D.:E05TSI                          TUE 07/29/97 11:09 Page:5
      126     3847
      127     3848                                                /*   SS SCREECH CODES                 */
      128     3849
      129     3850        %VLP_SCODE (STCLASS=CONSTANT SYMDEF,FPTN=SC_SSUTCB,FCG=SS,MID=U,CODE=%S$DTCB,SEV=
              3850            SEV_SUA,
      130     3851               CUSR=YES,ROSEG=YES,ISEG=YES,DDSEG=YES,DBSEG=YES);
      131     3912
      132     3913        %VLP_SCODE (STCLASS=CONSTANT SYMDEF,FPTN=SC_SSUASF,FCG=SS,MID=U,CODE=%S$MAGIC,SEV=
              3913            SEV_SUA,
      133     3914               CUSR=YES,ROSEG=YES,ISEG=YES,DDSEG=YES,DBSEG=YES);
      134     3975
      135     3976        %VLP_SUA (STCLASS=CONSTANT SYMDEF,FPTN=SC_ASLEVNT,FCG=SS,MID=Q,CODE=%S$NOASLEVNT,
              3976            LDCTS=YES);
      136     4046
      137     4047        %VLP_SCREECH (STCLASS=CONSTANT SYMDEF,FPTN=SC_EVENT,FCG=SS,MID=R,CODE=%S$EVENTERR);
      138     4117
      139     4118        %VLP_SCREECH (STCLASS=CONSTANT SYMDEF,FPTN=SC_DOLIST,FCG=SS,MID=V,CODE=%S$DOLIST);
      140     4188
      141     4189        %VLP_SCREECH (STCLASS=CONSTANT SYMDEF,FPTN=SC_UTIMER,FCG=SS,MID=Q,CODE=%S$UTIMER);
      142     4259        %VLP_SUA (STCLASS=CONSTANT SYMDEF,FPTN=SC_ASSOC,FCG=SS,MID=R,CODE=%S$ASSOC);
      143     4329
      144     4330
      145     4331        %VLP_SCREECH (STCLASS=CONSTANT SYMDEF,FPTN=SC_RESQ,FCG=SS,MID=R,CODE=%S$RESSUBQ);
      146     4401
      147     4402        %VLP_SCREECH (STCLASS=CONSTANT SYMDEF,FPTN=SC_STOPKI,FCG=SS,MID=W,CODE=%S$STOPCPU);
      148     4472
      149     4473        %VLP_SCREECH (STCLASS=CONSTANT SYMDEF,FPTN=SC_MONTIMR,FCG=SS,MID=C,CODE=%S$MONTIMR);
      150     4543
      151     4544
      152     4545
      153     4546                                                /*  SERVICE DECODER SCREECH CODES     */
      154     4547
      155     4548        %VLP_SCREECH (STCLASS=STATIC SYMDEF,FPTN=SC_UDE420,FCG=UD,MID=E,
      156     4549                  CODE=%S$MPMMEFLT,MPROC=NO,CUSRS=YES,ALLUSR=NO,SEV=SEV_SUA);
      157     4619        %VLP_SUA   (STCLASS=CONSTANT SYMDEF,FPTN=SC_UDB421,FCG=UD,MID=B,CODE=%S$MPMMERR,
      158     4620                  CFUS=YES,ENQ=YES,LDCTS=YES,PPUT=YES,CWSPT=YES,CGDATA=YES);
      159     4690
PL6.E3A0      #001=B_SCREECH_D File=B_SCREECH_D.:E05TSI                          TUE 07/29/97 11:09 Page:6
      160     4691                                                /*  Performance monitor screech codes */
      161     4692
      162     4693        %VLP_SCREECH (STCLASS=CONSTANT SYMDEF,FPTN=SC_PHA212,FCG=PH,MID=A,CODE=%S$SC212);
      163     4763        %VLP_SCREECH (STCLASS=CONSTANT SYMDEF,FPTN=SC_PHP212,FCG=PH,MID=P,CODE=%S$SC212);
      164     4833        %VLP_SCREECH (STCLASS=CONSTANT SYMDEF,FPTN=SC_PHA213,FCG=PH,MID=A,CODE=%S$SC213);
      165     4903        %VLP_SCREECH (STCLASS=CONSTANT SYMDEF,FPTN=SC_PHP215,FCG=PH,MID=P,CODE=%S$SC215,SEV=
              4903            SEV_SNAP);
      166     4973        %VLP_SCREECH (STCLASS=CONSTANT SYMDEF,FPTN=SC_PHA216,FCG=PH,MID=A,CODE=%S$SC216);
      167     5043
      168     5044
      169     5045
      170     5046                                                /*  MISC SCREECH CODES                */
      171     5047
      172     5048        %VLP_SCREECH (STCLASS=CONSTANT SYMDEF,FPTN=SC_RVA1000,FCG=RV,MID=A,CODE=%S$SUA);
      173     5118        %VLP_SCODE (STCLASS=CONSTANT SYMDEF,FPTN=SC_ZAP,SEV=SEV_ZAP);
      174     5179
      175     5180    1   END;

PL6.E3A0      #001=B_SCREECH_D File=B_SCREECH_D.:E05TSI                          TUE 07/29/97 11:09 Page:7
--  Include file information  --

   B_SCODE_C.:E05TOU  is referenced.
   JS_CP6.:E05TOU  is referenced.
      No diagnostics issued in procedure B_SCREECH_D.

   No code generated for procedure B_SCREECH_D .
   Procedure B_SCREECH_D requires 4 words of local(AUTO) storage.

    No errors detected in file B_SCREECH_D.:E05TSI    .

PL6.E3A0      #001=B_SCREECH_D File=B_SCREECH_D.:E05TSI                          TUE 07/29/97 11:09 Page:8

 Object Unit name= B_SCREECH_D                                File name= B_SCREECH_D.:E05TOU
 UTS= JUL 29 '97 11:09:57.56 TUE                              Compiler= PL-6/E31         Sev=      00
 SharedLib= :SHARED_SYSTEM                                    Alt SharedLib=


    ****  Control sections  ****

 Sect   Type Bound  Init  Size OctSiz  Section name(segment info)
    0  RoData even  UTS    106    152  B_SCREECH_D
    1   Data  even  none    12     14  B_SCREECH_D
    2   Proc  even  none     0      0  B_SCREECH_D

    ****  Entry defs  ****

                              Check   Calling
                             calling  sequence
  Sect OctLoc Primary Altret sequence   type   Parms  Name
     2      0   yes            yes     ~proc       0  B_SCREECH_D
PL6.E3A0      #001=B_SCREECH_D File=B_SCREECH_D.:E05TSI                          TUE 07/29/97 11:09 Page:9

  ****  Data defs  ****

 Sect OctLoc  Name                           Sect OctLoc  Name
    0      0  SC_HFERR                           1      0  SC_HFA7
    1      2  SC_HFA6                            0      2  SC_HFSSF
    0      4  SC_HFTSF                           0      6  SC_TOOLONG
    0     10  SC_NEGDIS                          0     12  SC_NOTLOCKED
    0     14  SC_WRONGUSER                       0     16  SC_NEGGATECNT
    0     20  SC_BADSTIMR                        0     22  SC_QXDELTA
    1      4  SC_DIAGSNAP                        0     24  SC_SLAVE
    1      6  SC_USER                            0     26  SC_CPTCB
    0     30  SC_JSPDTCB                         0     32  SC_CPEXIT
    0     34  SC_RNDSPC                          0     36  SC_JSECPSUA
    0     40  SC_DELSET                          0     42  SC_JSESSF
    0     44  SC_JSNSSF                          0     46  SC_JSEASF
    0     50  SC_GHOST                           0     52  SC_FMRUND
    0     54  SC_JSEMING                         0     56  SC_SSPDS
    0     60  SC_BADNF                           0     62  SC_SYSIDNF
    0     64  SC_INFONF                          0     66  SC_IOERRNF
    0     70  SC_IOERRNF_Q                       0     72  SC_LDLNK
    0     74  SC_VARRAY                          0     76  SC_WSTAR
    0    100  SC_SEGLD                           0    102  SC_ASAVE
    0    104  SC_UE_LCP6_FCN                     0    106  SC_SSUTCB
    0    110  SC_SSUASF                          0    112  SC_ASLEVNT
    0    114  SC_EVENT                           0    116  SC_DOLIST
    0    120  SC_UTIMER                          0    122  SC_ASSOC
    0    124  SC_RESQ                            0    126  SC_STOPKI
    0    130  SC_MONTIMR                         1     12  SC_UDE420
    0    132  SC_UDB421                          0    134  SC_PHA212
    0    136  SC_PHP212                          0    140  SC_PHA213
    0    142  SC_PHP215                          0    144  SC_PHA216
    0    146  SC_RVA1000                         0    150  SC_ZAP
PL6.E3A0      #001=B_SCREECH_D File=B_SCREECH_D.:E05TSI                          TUE 07/29/97 11:09 Page:10


(unnamed)
 Sect OctLoc
   0     000   100602 410167   777776 177760   100601 410137   777774 167760    @..w....@.._..w.
   0     004   100601 410147   777774 167760   100603 410227   777774 167760    @..g..w.@.....w.
   0     010   100603 410237   777774 167760   100603 410247   777774 167760    @.....w.@.....w.
   0     014   100603 410257   777774 167760   100603 410267   777774 167760    @.....w.@.....w.
   0     020   100603 410277   777774 167760   100601 410467   777776 177760    @.....w.@.......
   0     024   100601 402017   777776 177760   122301 400036   000060 101420    @.......R....0A.
   0     030   122320 401716   000000 101700   122320 400056   000000 101760    R.....A.R.....A.
   0     034   122301 400046   000060 107760   122305 420706   000000 107760    R..&.0G.R.....G.
   0     040   121425 403175   000000 107760   122305 400016   000000 107760    Q..}..G.R.....G.
   0     044   122316 401726   000000 101640   122305 400026   000060 101400    R.....A.R....0A.
   0     050   122325 400067   777776 177760   122322 400075   000060 107760    R..7....R..=.0G.
   0     054   122305 400106   000060 107760   122301 403155   000000 107760    R..F.0G.R..m..G.
   0     060   121414 403105   000000 107760   121423 403115   000000 107760    Q..E..G.Q..M..G.
   0     064   121423 403125   000000 107760   121414 403135   000000 107760    Q..U..G.Q..]..G.
   0     070   122123 403135   000000 107760   121423 403145   000000 107760    RS.]..G.Q..e..G.
   0     074   121414 403165   000000 107760   122325 403225   000000 107760    Q..u..G.R.....G.
   0     100   120420 403216   000060 105400   123202 403205   100400 100000    P....0E.S...@.@.
   0     104   250520 406566   000060 101500   232325 401716   000000 101700    .....0A.......A.
   0     110   232325 400026   000000 101700   232321 406556   001060 107760    ......A......0G.
   0     114   232322 401707   777776 177760   232326 401737   777776 177760    ................
   0     120   232321 401747   777776 177760   232322 401756   000060 107760    .............0G.
   0     124   232322 401767   777776 177760   232327 401777   777776 177760    ................
   0     130   232303 402007   777776 177760   250402 406456   241560 107760    ..............G.
   0     134   201001 403247   777776 177760   201020 403247   777776 177760    ................
   0     140   201001 403257   777776 177760   201020 403275   777776 177760    ................
   0     144   201001 403307   777776 177760   222601 410507   777776 177760    ................
   0     150   000000 400004   000000 000000                                    ........

(unnamed)
 Sect OctLoc
   1     000   100601 400007   777774 167760   100601 400006   777774 167760    @.....w.@.....w.
   1     004   100601 410445   000000 101000   000000 400005   000000 000001    @.....A.........
   1     010   000000 000000   000000 000000   250405 406446   777774 167760    ..............w.
        1        1        /*M*   B_SCREECH_D    CP-6 SCREECH Codes            */
PL6.E3A0      #001=B_SCREECH_D File=B_SCREECH_D.:E05TSI                          TUE 07/29/97 11:09 Page:11
        2        2        /*T***********************************************************/
        3        3        /*T*                                                         */
        4        4        /*T* Copyright (c) Bull HN Information Systems Inc., 1997    */
        5        5        /*T*                                                         */
        6        6        /*T***********************************************************/
        7        7        B_SCREECH_D: PROC;
        8        8
        9        9        %INCLUDE JS_CP6;
       10      427        %INCLUDE B_SCODE_C;
       11     1095
       12     1096
       13     1097                                                /*  FAULT HANDLER SCREECH CODES       */
       14     1098
       15     1099        %VLP_SCREECH (STCLASS=CONSTANT SYMDEF,FPTN=SC_HFERR,FCG=HF,MID=B,CODE=%S$HFERROR);
       16     1169
       17     1170        %VLP_SCREECH (STCLASS=STATIC SYMDEF,FPTN=SC_HFA7,FCG=HF,MID=A,MPROC=NO,CUSRS=YES,
              1170            ALLUSR=NO);
       18     1240        %VLP_SCREECH (STCLASS=STATIC SYMDEF,FPTN=SC_HFA6,FCG=HF,MID=A,MPROC=NO,CUSRS=YES,
              1240            ALLUSR=NO,SEV=SEV_SUA);
       19     1310
       20     1311
       21     1312        %VLP_SCREECH (STCLASS=CONSTANT SYMDEF,FPTN=SC_HFSSF,FCG=HF,MID=A,CODE=%S$SSFULL,
       22     1313                  MPROC=NO,ALLUSR=NO);
       23     1383
       24     1384        %VLP_SCREECH (STCLASS=CONSTANT SYMDEF,FPTN=SC_HFTSF,FCG=HF,MID=A,CODE=%S$MTSTK,
       25     1385                  MPROC=NO,ALLUSR=NO);
       26     1455
       27     1456        %VLP_SCREECH (STCLASS=CONSTANT SYMDEF,FPTN=SC_TOOLONG,FCG=HF,MID=C,CODE=%S$TOOLONG,
              1456            MPROC=NO,ALLUSR=NO);
       28     1526
       29     1527        %VLP_SCREECH (STCLASS=CONSTANT SYMDEF,FPTN=SC_NEGDIS,FCG=HF,MID=C,CODE=%S$NEGDIS,
              1527            MPROC=NO,ALLUSR=NO);
       30     1597
       31     1598        %VLP_SCREECH (STCLASS=CONSTANT SYMDEF,FPTN=SC_NOTLOCKED,FCG=HF,MID=C,CODE=
              1598            %S$NOTLOCKED,MPROC=NO,ALLUSR=NO);
       32     1668
       33     1669        %VLP_SCREECH (STCLASS=CONSTANT SYMDEF,FPTN=SC_WRONGUSER,FCG=HF,MID=C,CODE=
PL6.E3A0      #001=B_SCREECH_D File=B_SCREECH_D.:E05TSI                          TUE 07/29/97 11:09 Page:12
              1669            %S$WRONGUSER,MPROC=NO,ALLUSR=NO);
       34     1739
       35     1740        %VLP_SCREECH (STCLASS=CONSTANT SYMDEF,FPTN=SC_NEGGATECNT,FCG=HF,MID=C,CODE=
              1740            %S$NEGGATECNT,MPROC=NO,ALLUSR=NO);
       36     1810
       37     1811       %VLP_SCREECH (STCLASS=CONSTANT SYMDEF,FPTN=SC_BADSTIMR,FCG=HF,MID=C,CODE=%S$BADSTIMR
              1811            ,MPROC=NO,ALLUSR=NO);
       38     1881
       39     1882       %VLP_SCREECH (STCLASS=CONSTANT SYMDEF,FPTN=SC_QXDELTA,FCG=HF,MID=A,CODE=%S$QXDELTA);
       40     1952
       41     1953        %VLP_SCODE (STCLASS=STATIC SYMDEF,FPTN=SC_DIAGSNAP,FCG=HF,MID=A,CODE=%S$DIAGSNAP,
       42     1954               CUSR=YES,ROSEG=YES);
       43     2015
       44     2016        %VLP_SCREECH (STCLASS=CONSTANT SYMDEF,FPTN=SC_SLAVE,FCG=HF,MID=A,CODE=%S$SLAVE);
       45     2086
       46     2087
       47     2088
       48     2089                                                /*  EXECUTION CONTROL SCREECH CODES   */
       49     2090
       50     2091        %VLP_SCODE (STCLASS=STATIC SYMDEF,FPTN=SC_USER,AUSER=YES);
       51     2152                                                /* USED BY JSP$PMME FOR M$SCREECH     */
       52     2153
       53     2154        %VLP_SUA   (STCLASS=CONSTANT SYMDEF,FPTN=SC_CPTCB,FCG=JS,MID=A,CODE=%S$CPTCB,
       54     2155                SPBUF=NO,FMBUF=NO,DDSEG=NO,
       55     2156                DBSEG=NO,ASLSEG=NO);
       56     2226
       57     2227        %VLP_SCODE (STCLASS=CONSTANT SYMDEF,FPTN=SC_JSPDTCB,FCG=JS,MID=P,CODE=%S$DTCB,SEV=
              2227            SEV_SUA,
       58     2228               CUSR=YES,ROSEG=YES,ISEG=YES,DDSEG=YES,DBSEG=YES);
       59     2289
       60     2290        %VLP_SCODE (STCLASS=CONSTANT SYMDEF,FPTN=SC_CPEXIT,FCG=JS,MID=P,CODE=%S$CPEXIT,SEV=
              2290            SEV_SUA,
       61     2291               CUSR=YES,ROSEG=YES,ISEG=YES,DDSEG=YES,DBSEG=YES,ASLSEG=YES,CPSEG=YES);
       62     2352
       63     2353        %VLP_SUA     (STCLASS=CONSTANT SYMDEF,FPTN=SC_RNDSPC,FCG=JS,MID=A,CODE=%S$RUNDSPC);
       64     2423
       65     2424        %VLP_SUA (STCLASS=CONSTANT SYMDEF,FPTN=SC_JSECPSUA,FCG=JS,MID=E,CODE=%S$CPSUA,
PL6.E3A0      #001=B_SCREECH_D File=B_SCREECH_D.:E05TSI                          TUE 07/29/97 11:09 Page:13
       66     2425              CGDATA=NO,CURCG=NO);
       67     2495
       68     2496        %VLP_SUA (STCLASS=CONSTANT SYMDEF,FPTN=SC_DELSET,FCG=JL,MID=U,CODE=%S$DELSET,
       69     2497              CGDATA=NO,CURCG=NO,SEV=SEV_SNAP);
       70     2567
       71     2568        %VLP_SUA (STCLASS=CONSTANT SYMDEF,FPTN=SC_JSESSF,FCG=JS,MID=E,CODE=%S$SSFRAME,
       72     2569              CGDATA=NO,CURCG=NO);
       73     2639
       74     2640       %VLP_SCODE (STCLASS=CONSTANT SYMDEF,FPTN=SC_JSNSSF,FCG=JS,MID=N,CODE=%S$SSLIMIT,SEV=
              2640            SEV_SUA,
       75     2641               CUSR=YES,ROSEG=YES,ISEG=YES,DDSEG=YES,ASLSEG=YES);
       76     2702
       77     2703        %VLP_SUA (STCLASS=CONSTANT SYMDEF,FPTN=SC_JSEASF,FCG=JS,MID=E,CODE=%S$MAGIC,
       78     2704              SPBUF=NO,FMBUF=NO,DDSEG=NO,
       79     2705              DBSEG=NO,ASLSEG=NO,CPSEG=NO);
       80     2775
       81     2776        %VLP_SCREECH (STCLASS=CONSTANT SYMDEF,FPTN=SC_GHOST,FCG=JS,MID=U,CODE=%S$GHOST);
       82     2846
       83     2847        %VLP_SUA (STCLASS=CONSTANT SYMDEF,FPTN=SC_FMRUND,FCG=JS,MID=R,CODE=%S$FMRUND,SEV=
              2847            SEV_SNAP);
       84     2917
       85     2918        %VLP_SUA (STCLASS=CONSTANT SYMDEF,FPTN=SC_JSEMING,FCG=JS,MID=E,CODE=%S$MING);
       86     2988
       87     2989        %VLP_SUA (STCLASS=CONSTANT SYMDEF,FPTN=SC_SSPDS,FCG=JS,MID=A,CODE=%S$SSPDS,
       88     2990              CGDATA=NO,CURCG=NO,SEV=SEV_SNAP);
       89     3060
       90     3061        %VLP_SUA (STCLASS=CONSTANT SYMDEF,FPTN=SC_BADNF,FCG=JL,MID=L,CODE=%S$BADNF,
       91     3062              CGDATA=NO,CURCG=NO,SEV=SEV_SNAP);
       92     3132
       93     3133        %VLP_SUA (STCLASS=CONSTANT SYMDEF,FPTN=SC_SYSIDNF,FCG=JL,MID=S,CODE=%S$SYSIDNF,
       94     3134              CGDATA=NO,CURCG=NO,SEV=SEV_SNAP);
       95     3204
       96     3205        %VLP_SUA (STCLASS=CONSTANT SYMDEF,FPTN=SC_INFONF,FCG=JL,MID=S,CODE=%S$INFONF,
       97     3206              CGDATA=NO,CURCG=NO,SEV=SEV_SNAP);
       98     3276
       99     3277        %VLP_SUA (STCLASS=CONSTANT SYMDEF,FPTN=SC_IOERRNF,FCG=JL,MID=L,CODE=%S$IOERRNF,
      100     3278              CGDATA=NO,CURCG=NO,SEV=SEV_SNAP);
PL6.E3A0      #001=B_SCREECH_D File=B_SCREECH_D.:E05TSI                          TUE 07/29/97 11:09 Page:14
      101     3348
      102     3349        %VLP_SUA (STCLASS=CONSTANT SYMDEF,FPTN=SC_IOERRNF_Q,FCG=JQ,MID=S,CODE=%S$IOERRNF,
      103     3350              CGDATA=NO,CURCG=NO,SEV=SEV_SNAP);
      104     3420
      105     3421        %VLP_SUA (STCLASS=CONSTANT SYMDEF,FPTN=SC_LDLNK,FCG=JL,MID=S,CODE=%S$LDLNK,
      106     3422              CGDATA=NO,CURCG=NO,SEV=SEV_SNAP);
      107     3492
      108     3493        %VLP_SUA (STCLASS=CONSTANT SYMDEF,FPTN=SC_VARRAY,FCG=JL,MID=L,CODE=%S$VARRAY,
      109     3494              CGDATA=NO,CURCG=NO,SEV=SEV_SNAP);
      110     3564
      111     3565        %VLP_SUA (STCLASS=CONSTANT SYMDEF,FPTN=SC_WSTAR,FCG=JS,MID=U,CODE=%S$WSTAR,
      112     3566              CGDATA=NO,CURCG=NO,SEV=SEV_SNAP);
      113     3636
      114     3637        %VLP_SUA (STCLASS=CONSTANT SYMDEF,FPTN=SC_SEGLD,FCG=JD,MID=P,CODE=%S$SEGLD,
      115     3638              SPBUF=YES,FMBUF=NO,DDSEG=NO,
      116     3639              DBSEG=NO,ASLSEG=NO,CPSEG=NO);
      117     3709
      118     3710        %VLP_SCODE (STCLASS=CONSTANT SYMDEF,FPTN=SC_ASAVE,FCG=JZ,MID=B,CODE=%S$ASAVE,
      119     3711               ASAVE=YES,PPUT=YES,CUSR=YES);
      120     3772
      121     3773        %VLP_SUA (STCLASS=CONSTANT SYMDEF,FPTN=SC_UE_LCP6_FCN,FCG=UE,MID=P,CODE=
              3773            %S$BAD_LCP6_FCN,
      122     3774              SPBUF=NO,FMBUF=NO,DDSEG=NO,
      123     3775              DBSEG=YES,ASLSEG=NO,CPSEG=NO);
      124     3845
      125     3846        %EJECT;
PL6.E3A0      #001=B_SCREECH_D File=B_SCREECH_D.:E05TSI                          TUE 07/29/97 11:09 Page:15
      126     3847
      127     3848                                                /*   SS SCREECH CODES                 */
      128     3849
      129     3850        %VLP_SCODE (STCLASS=CONSTANT SYMDEF,FPTN=SC_SSUTCB,FCG=SS,MID=U,CODE=%S$DTCB,SEV=
              3850            SEV_SUA,
      130     3851               CUSR=YES,ROSEG=YES,ISEG=YES,DDSEG=YES,DBSEG=YES);
      131     3912
      132     3913        %VLP_SCODE (STCLASS=CONSTANT SYMDEF,FPTN=SC_SSUASF,FCG=SS,MID=U,CODE=%S$MAGIC,SEV=
              3913            SEV_SUA,
      133     3914               CUSR=YES,ROSEG=YES,ISEG=YES,DDSEG=YES,DBSEG=YES);
      134     3975
      135     3976        %VLP_SUA (STCLASS=CONSTANT SYMDEF,FPTN=SC_ASLEVNT,FCG=SS,MID=Q,CODE=%S$NOASLEVNT,
              3976            LDCTS=YES);
      136     4046
      137     4047        %VLP_SCREECH (STCLASS=CONSTANT SYMDEF,FPTN=SC_EVENT,FCG=SS,MID=R,CODE=%S$EVENTERR);
      138     4117
      139     4118        %VLP_SCREECH (STCLASS=CONSTANT SYMDEF,FPTN=SC_DOLIST,FCG=SS,MID=V,CODE=%S$DOLIST);
      140     4188
      141     4189        %VLP_SCREECH (STCLASS=CONSTANT SYMDEF,FPTN=SC_UTIMER,FCG=SS,MID=Q,CODE=%S$UTIMER);
      142     4259        %VLP_SUA (STCLASS=CONSTANT SYMDEF,FPTN=SC_ASSOC,FCG=SS,MID=R,CODE=%S$ASSOC);
      143     4329
      144     4330
      145     4331        %VLP_SCREECH (STCLASS=CONSTANT SYMDEF,FPTN=SC_RESQ,FCG=SS,MID=R,CODE=%S$RESSUBQ);
      146     4401
      147     4402        %VLP_SCREECH (STCLASS=CONSTANT SYMDEF,FPTN=SC_STOPKI,FCG=SS,MID=W,CODE=%S$STOPCPU);
      148     4472
      149     4473       %VLP_SCREECH (STCLASS=CONSTANT SYMDEF,FPTN=SC_MONTIMR,FCG=SS,MID=C,CODE=%S$MONTIMR);
      150     4543
      151     4544
      152     4545
      153     4546                                                /*  SERVICE DECODER SCREECH CODES     */
      154     4547
      155     4548        %VLP_SCREECH (STCLASS=STATIC SYMDEF,FPTN=SC_UDE420,FCG=UD,MID=E,
      156     4549                  CODE=%S$MPMMEFLT,MPROC=NO,CUSRS=YES,ALLUSR=NO,SEV=SEV_SUA);
      157     4619        %VLP_SUA   (STCLASS=CONSTANT SYMDEF,FPTN=SC_UDB421,FCG=UD,MID=B,CODE=%S$MPMMERR,
      158     4620                  CFUS=YES,ENQ=YES,LDCTS=YES,PPUT=YES,CWSPT=YES,CGDATA=YES);
      159     4690
PL6.E3A0      #001=B_SCREECH_D File=B_SCREECH_D.:E05TSI                          TUE 07/29/97 11:09 Page:16
      160     4691                                                /*  Performance monitor screech codes */
      161     4692
      162     4693        %VLP_SCREECH (STCLASS=CONSTANT SYMDEF,FPTN=SC_PHA212,FCG=PH,MID=A,CODE=%S$SC212);
      163     4763        %VLP_SCREECH (STCLASS=CONSTANT SYMDEF,FPTN=SC_PHP212,FCG=PH,MID=P,CODE=%S$SC212);
      164     4833        %VLP_SCREECH (STCLASS=CONSTANT SYMDEF,FPTN=SC_PHA213,FCG=PH,MID=A,CODE=%S$SC213);
      165     4903       %VLP_SCREECH (STCLASS=CONSTANT SYMDEF,FPTN=SC_PHP215,FCG=PH,MID=P,CODE=%S$SC215,SEV=
              4903            SEV_SNAP);
      166     4973        %VLP_SCREECH (STCLASS=CONSTANT SYMDEF,FPTN=SC_PHA216,FCG=PH,MID=A,CODE=%S$SC216);
      167     5043
      168     5044
      169     5045
      170     5046                                                /*  MISC SCREECH CODES                */
      171     5047
      172     5048        %VLP_SCREECH (STCLASS=CONSTANT SYMDEF,FPTN=SC_RVA1000,FCG=RV,MID=A,CODE=%S$SUA);
      173     5118        %VLP_SCODE (STCLASS=CONSTANT SYMDEF,FPTN=SC_ZAP,SEV=SEV_ZAP);
      174     5179
      175     5180    1   END;

PL6.E3A0      #001=B_SCREECH_D File=B_SCREECH_D.:E05TSI                          TUE 07/29/97 11:09 Page:17
--  Include file information  --

   B_SCODE_C.:E05TOU  is referenced.
   JS_CP6.:E05TOU  is referenced.
      No diagnostics issued in procedure B_SCREECH_D.
PL6.E3A0      #001=B_SCREECH_D File=B_SCREECH_D.:E05TSI                          TUE 07/29/97 11:09 Page:18

 **** Variables and constants ****


   No code generated for procedure B_SCREECH_D .
   Procedure B_SCREECH_D requires 4 words of local(AUTO) storage.

    No errors detected in file B_SCREECH_D.:E05TSI    .
PL6.E3A0      #001=B_SCREECH_D File=B_SCREECH_D.:E05TSI                          TUE 07/29/97 11:09 Page:19
          *** CROSS REFERENCE LISTING ***
**     DENOTES     IDENTIFIER DEFINITION
<<                 IDENTIFIER'S VALUE SET
>>                 IDENTIFIER'S VALUE USED
<>                 IDENTIFIER SET AND/OR USED
--                 IDENTIFIER REFERENCED
PL6.E3A0      #001=B_SCREECH_D File=B_SCREECH_D.:E05TSI                          TUE 07/29/97 11:09 Page:20
          MINI XREF LISTING

