VERSION E05

 11:10 07/29/97  FILE=B_SSPSL_D.:E05TSI                                                                  1    BMAP - B00
                                         1  *M* B_SSPSL_D    XDELTA special location for special shared processors.
                                         2  *T***********************************************************
                                         3  *T*                                                         *
                                         4  *T* Copyright (c) Bull HN Information Systems Inc., 1997    *
                                         5  *T*                                                         *
                                         6  *T***********************************************************
                                         7  *P* NAME:        B_SSPSL_D
                                         8  *,* PURPOSE:     To generate XDELTA special location for special shared
                                         9                   processors.
                                        10  *,* DESCRIPTION: This module contains read-only-data that contains the
                                        11  *,*              ENTADDR(NIL) or TRA <undefined> double-word location,
                                        12  *,*              XDELTA special location (5-words), and the constant
                                        13  *,*              pointers B$JIT$, B$TCB$, and B$ROS$. This module is
                                        14  *,*              intended to be the first module LINKed into special
                                        15  *,*              shared processor Run Units (IBEX, DELTA, ASL). This
                                        16  *,*              module is coded in GMAP to insure that the memory is
                                        17  *,*              allocated in sequential locations, which could not be
                                        18  *,*              guaranteed if generated in PL-6.
                                        19  *
                                        20         ENTDEF  B_SSPSL_D
                                        21  *
                                        22         SEGREF  JITSID
                                        23         SEGREF  TCBSID
                                        24         SEGREF  ROSID
                                        25  *
                                        26         SYMDEF  B$JIT$
                                        27         SYMDEF  B$TCB$
                                        28         SYMDEF  B$ROS$
                                        29  *
 0 000000                               30         USE     B_SSPSL_D,1
                                        31  *
   000000                               32  B_SSPSL_D NULL
   000000    000000000000               33         DEC     0,0             ENTADDR(NIL) or <undefined>
   000001    000000000000
   000002                               34         BSS     5               XDELTA special location
                                        35  *,* If we don't build these 3 pointers, the LINKer will build them
                                        36  *,* for us, starting at location 0.
 11:10 07/29/97  FILE=B_SSPSL_D.:E05TSI                                                                  2    BMAP - B00
   000007    00000000 X 0000            37  B$JIT$ VFD     O24/0,O12/JITSID
   000010    00000000 X 0000            38  B$TCB$ VFD     O24/0,O12/TCBSID
   000011    00000000 X 0000            39  B$ROS$ VFD     O24/0,O12/ROSID
                                        40  *
                                        41         END

  CONTROL SECTION TABLE

   0 CODE   EVEN  000012 B_SSPSL_D
   1 RODATA EVEN  000000 LITERALS

 11:10 07/29/97  FILE=B_SSPSL_D.:E05TSI       SYMBOL TABLE                                               3    BMAP - B00
 06101000 000000000007 B$JIT$          26       *37
 06101000 000000000011 B$ROS$          28       *39
 06101000 000000000010 B$TCB$          27       *38
 12101000 000000000000 B_SSPSL_D       20       *32
 03601000 000000000000 JITSID         *22        37
 03601002 000000000000 ROSID          *24        39
 03601001 000000000000 TCBSID         *23        38

       7 SYMBOLS

       0 MACROS

    SYMBOL SPACE USED    81 WORDS
     MACRO SPACE USED     0 WORDS
   INPUT RECORDS READ    82
 STATEMENTS PROCESSED    23
         ELAPSED TIME  0:00.76
             CPU TIME     0.38 SEC.
        ASSEMBLY RATE  3632 STATEMENTS/CPU MIN.

      NO ERRORS

