VERSION E05

PL6.E3A0      #001=B_TABLES_D File=B_TABLES_D.:E05TSI                            TUE 07/29/97 11:10 Page:1
        1        1        /*M* B_TABLES_D - Common SEARCH and XLATE tables */
        2        2        /*T***********************************************************/
        3        3        /*T*                                                         */
        4        4        /*T* Copyright (c) Bull HN Information Systems Inc., 1997    */
        5        5        /*T*                                                         */
        6        6        /*T***********************************************************/
        7        7
        8        8        /*P* NAME: B_TABLES_D
        9        9        PURPOSE: Common SEARCH and XLATE tables.
       10       10        DESCRPTION:
       11       11                This module contains the standard set of common SEARCH and
       12       12                XLATE tables.  This set of tables is intended for the English
       13       13                language.  B_ALTTBLS_D contains an alternate set of tables
       14       14                that can be used for a different language.
       15       15        */
       16       16
       17       17        B_TABLES_D: PROC;
       18       18
       19       19        %INCLUDE B_TABLES_C;
       20      710        %INCLUDE B$TABLES_C;
       21      818
       22      819        %LIST;
       23      820        %B_TABLES( NAME=B_TABLES );
               821    1   DCL 1 NAME CONSTANT SYMDEF DALIGNED,
               822            %B_SR_NON_BLANK;    /*   0  Search for non-blank                */
               823    1     2 B_SR_NON_BLANK( 0:511 ) BIT(9) CALIGNED INIT(
               824    1       %B$SR#CTL * 32,                 /*  NULL thru US                */
               825    1       '0'B,                           /*  SP                          */
               826    1       %B$SR#PUNC * 2,                 /*  ! "                         */
               827    1       %( B$SR#PUNC | B$SR#SYM ) * 2,  /*  # $                         */
               828    1       %B$SR#PUNC * 6,                 /*  % & ' ( ) *                 */
               829    1       %( B$SR#PUNC | B$SR#NUM ),      /*  +                           */
               830    1       %B$SR#PUNC,                     /*  ,                           */
               831    1       %( B$SR#PUNC | B$SR#NUM ) * 2,  /*  - .                         */
               832    1       %B$SR#PUNC,                     /*  /                           */
               833    1       %( B$SR#DEC | B$SR#NUM | B$SR#HEX | B$SR#OCT | B$SR#SYM ) * 8,
               834                                            /*  0 thru 7                    */
PL6.E3A0      #001=B_TABLES_D File=B_TABLES_D.:E05TSI                            TUE 07/29/97 11:10 Page:2
               835    1       %( B$SR#DEC | B$SR#NUM | B$SR#HEX | B$SR#SYM ) * 2, /*  8 9     */
               836    1       %B$SR#PUNC * 6,                 /*  : ; < = > ?                 */
               837    1       %( B$SR#PUNC | B$SR#SYM ),      /*  @                           */
               838    1       %( B$SR#ALPHA | B$SR#HEX | B$SR#SYM ) * 6,  /*  A thru F        */
               839    1       %( B$SR#ALPHA | B$SR#SYM ) * 20,/*      G thru Z                */
               840    1       %B$SR#PUNC * 4,                 /*  [ \ ] ^                     */
               841    1       %( B$SR#PUNC | B$SR#SYM ),      /*  _                           */
               842    1       %B$SR#PUNC,                     /*  `                           */
               843    1       %( B$SR#ALPHA | B$SR#HEX | B$SR#SYM ) * 6,  /*  a thru f        */
               844    1       %( B$SR#ALPHA | B$SR#SYM ) * 20,/*      g thru z                */
               845    1       %B$SR#PUNC * 4,                 /*  { | } ~                     */
               846    1       %B$SR#CTL,                      /*  DEL                         */
               847    1       %B$SR#OTHER * 384 ),            /*  non-ASCII characters        */
               849            %B_SR_NON_ZERO;     /*   1  Search for non-zero                 */
               850    1     2 B_SR_NON_ZERO( 0:511 ) BIT(9) CALIGNED INIT(
               851    1       %B$SR#CTL * 32,                 /*  NULL thru US                */
               852    1       %B$SR#PUNC * 3,                 /*  SP ! "                      */
               853    1       %( B$SR#PUNC | B$SR#SYM ) * 2,  /*  # $                         */
               854    1       %B$SR#PUNC * 6,                 /*  % & ' ( ) *                 */
               855    1       %( B$SR#PUNC | B$SR#NUM ),      /*  +                           */
               856    1       %B$SR#PUNC,                     /*  ,                           */
               857    1       %( B$SR#PUNC | B$SR#NUM ) * 2,  /*  - .                         */
               858    1       %B$SR#PUNC,                     /*  /                           */
               859    1       '0'B,                           /*  0                           */
               860    1       %( B$SR#DEC | B$SR#NUM | B$SR#HEX | B$SR#OCT | B$SR#SYM ) * 7,
               861                                            /*  1 thru 7                    */
               862    1       %( B$SR#DEC | B$SR#NUM | B$SR#HEX | B$SR#SYM ) * 2, /*  8 9     */
               863    1       %B$SR#PUNC * 6,                 /*  : ; < = > ?                 */
               864    1       %( B$SR#PUNC | B$SR#SYM ),      /*  @                           */
               865    1       %( B$SR#ALPHA | B$SR#HEX | B$SR#SYM ) * 6,  /*  A thru F        */
               866    1       %( B$SR#ALPHA | B$SR#SYM ) * 20,/*      G thru Z                */
               867    1       %B$SR#PUNC * 4,                 /*  [ \ ] ^                     */
               868    1       %( B$SR#PUNC | B$SR#SYM ),      /*  _                           */
               869    1       %B$SR#PUNC,                     /*  `                           */
               870    1       %( B$SR#ALPHA | B$SR#HEX | B$SR#SYM ) * 6,  /*  a thru f        */
               871    1       %( B$SR#ALPHA | B$SR#SYM ) * 20,/*      g thru z                */
               872    1       %B$SR#PUNC * 4,                 /*  { | { ~                     */
PL6.E3A0      #001=B_TABLES_D File=B_TABLES_D.:E05TSI                            TUE 07/29/97 11:10 Page:3
               873    1       %B$SR#CTL,                      /*  DEL                         */
               874    1       %B$SR#OTHER * 384 ),            /*  non-ASCII characters        */
               876            %B_SR_NON_DEC;      /*   2  Search for non-decimal              */
               877    1     2 B_SR_NON_DEC( 0:511 ) BIT(9) CALIGNED INIT(
               878    1       %B$SR#CTL * 32,                 /*  NULL thru US                */
               879    1       %B$SR#PUNC * 3,                 /*  SP ! "                      */
               880    1       %( B$SR#PUNC | B$SR#SYM ) * 2,  /*  # $                         */
               881    1       %B$SR#PUNC * 6,                 /*  % & ' ( ) *                 */
               882    1       %( B$SR#PUNC | B$SR#NUM ),      /*  +                           */
               883    1       %B$SR#PUNC,                     /*  ,                           */
               884    1       %( B$SR#PUNC | B$SR#NUM ) * 2,  /*  - .                         */
               885    1       %B$SR#PUNC,                     /*  /                           */
               886    1       '0'B * 10,                      /*  0 thru 9                    */
               887    1       %B$SR#PUNC * 6,                 /*  : ; < = > ?                 */
               888    1       %( B$SR#PUNC | B$SR#SYM ),      /*  @                           */
               889    1       %( B$SR#ALPHA | B$SR#HEX | B$SR#SYM ) * 6,  /*  A thru F        */
               890    1       %( B$SR#ALPHA | B$SR#SYM ) * 20,/*  G thru Z                    */
               891    1       %B$SR#PUNC * 4,                 /*  [ \ ] ^                     */
               892    1       %( B$SR#PUNC | B$SR#SYM ),      /*  _                           */
               893    1       %B$SR#PUNC,                     /*  `                           */
               894    1       %( B$SR#ALPHA | B$SR#HEX | B$SR#SYM ) * 6,  /*  a thru f        */
               895    1       %( B$SR#ALPHA | B$SR#SYM ) * 20,/*  g thru z                    */
               896    1       %B$SR#PUNC * 4,                 /*  { | } ~                     */
               897    1       %B$SR#CTL,                      /*  DEL                         */
               898    1       %B$SR#OTHER * 384 ),            /*  non-ASCII characters        */
               900            %B_SR_NON_ALPHA;    /*   3  Search for non-alphabetic           */
               901    1     2 B_SR_NON_ALPHA( 0:511 ) BIT(9) CALIGNED INIT(
               902    1       %B$SR#CTL * 32,                 /*  NULL thru US                */
               903    1       %B$SR#PUNC * 3,                 /*  SP ! "                      */
               904    1       %( B$SR#PUNC | B$SR#SYM ) * 2,  /*  # $                         */
               905    1       %B$SR#PUNC * 6,                 /*  % & ' ( ) *                 */
               906    1       %( B$SR#PUNC | B$SR#NUM ),      /*  +                           */
               907    1       %B$SR#PUNC,                     /*  ,                           */
               908    1       %( B$SR#PUNC | B$SR#NUM ) * 2,  /*  - .                         */
               909    1       %B$SR#PUNC,                     /*  /                           */
               910    1       %( B$SR#DEC | B$SR#NUM | B$SR#HEX | B$SR#OCT | B$SR#SYM ) * 8,
               911                                            /*  0 thru 7                    */
PL6.E3A0      #001=B_TABLES_D File=B_TABLES_D.:E05TSI                            TUE 07/29/97 11:10 Page:4
               912    1       %( B$SR#DEC | B$SR#NUM | B$SR#HEX | B$SR#SYM ) * 2, /*  8 9     */
               913    1       %B$SR#PUNC * 6,                 /*  : ; < = > ?                 */
               914    1       %( B$SR#PUNC | B$SR#SYM ),      /*  @                           */
               915    1       '0'B * 26,                      /*  A thru Z                    */
               916    1       %B$SR#PUNC * 4,                 /*  [ \ ] ^                     */
               917    1       %( B$SR#PUNC | B$SR#SYM ),      /*  _                           */
               918    1       %B$SR#PUNC,                     /*  `                           */
               919    1       '0'B * 26,                      /*  a thru z                    */
               920    1       %B$SR#PUNC * 4,                 /*  { | } ~                     */
               921    1       %B$SR#CTL,                      /*  DEL                         */
               922    1       %B$SR#OTHER * 384 ),            /*  non-ASCII characters        */
               924            %B_XL_ASC_EBC;      /*   4  Translate ASCII to EBCDIC           */
               925    1     2 B_XL_ASC_EBC( 0:511 ) UBIN(9) CALIGNED INIT(
               926            /*Most sig-     Least significant digits    */
               927            /*nificant  000 001 010 011 100 101 110 111 */
               928    1       /* 00000 */   0,  1,  2,  3, 55, 45, 46, 47,
               929    1       /* 00001 */  22,  5, 37, 11, 12, 13, 14, 15,
               930    1       /* 00010 */  16, 17, 18, 19, 60, 61, 50, 38,
               931    1       /* 00011 */  24, 25, 63, 39, 28, 29, 30, 31,
               932    1       /* 00100 */  64, 90,127,123, 91,108, 80,125,
               933    1       /* 00101 */  77, 93, 92, 78,107, 96, 75, 97,
               934    1       /* 00110 */ 240,241,242,243,244,245,246,247,
               935    1       /* 00111 */ 248,249,122, 94, 76,126,110,111,
               936    1       /* 01000 */ 124,193,194,195,196,197,198,199,
               937    1       /* 01001 */ 200,201,209,210,211,212,213,214,
               938    1       /* 01010 */ 215,216,217,226,227,228,229,230,
               939    1       /* 01011 */ 231,232,233, 74,224, 79, 95,109,
               940    1       /* 01100 */ 121,129,130,131,132,133,134,135,
               941    1       /* 01101 */ 136,137,145,146,147,148,149,150,
               942    1       /* 01110 */ 151,152,153,162,163,164,165,166,
               943    1       /* 01111 */ 167,168,169,192,106,208,161,  7,
               944    1       /* 10000 */  32, 33, 34, 35, 36, 21,  6, 23,
               945    1       /* 10001 */  40, 41, 42, 43, 44,  9, 10, 27,
               946    1       /* 10010 */  48, 49, 26, 51, 52, 53, 54,  8,
               947    1       /* 10011 */  56, 57, 58, 59,  4, 20, 62,225,
               948    1       /* 10100 */  65, 66, 67, 68, 69, 70, 71, 72,
               949    1       /* 10101 */  73, 81, 82, 83, 84, 85, 86, 87,
PL6.E3A0      #001=B_TABLES_D File=B_TABLES_D.:E05TSI                            TUE 07/29/97 11:10 Page:5
               950    1       /* 10110 */  88, 89, 98, 99,100,101,102,103,
               951    1       /* 10111 */ 104,105,112,113,114,115,116,117,
               952    1       /* 11000 */ 118,119,120,128,138,139,140,141,
               953    1       /* 11001 */ 142,143,144,154,155,156,157,158,
               954    1       /* 11010 */ 159,160,170,171,172,173,174,175,
               955    1       /* 11011 */ 176,177,178,179,180,181,182,183,
               956    1       /* 11100 */ 184,185,186,187,188,189,190,191,
               957    1       /* 11101 */ 202,203,204,205,206,207,218,219,
               958    1       /* 11110 */ 220,221,222,223,234,235,236,237,
               959    1       /* 11111 */ 238,239,250,251,252,253,254,255,
               960    1       /* 00000 */   0,  1,  2,  3, 55, 45, 46, 47,
               961    1       /* 00001 */  22,  5, 37, 11, 12, 13, 14, 15,
               962    1       /* 00010 */  16, 17, 18, 19, 60, 61, 50, 38,
               963    1       /* 00011 */  24, 25, 63, 39, 28, 29, 30, 31,
               964    1       /* 00100 */  64, 79,127,123, 91,108, 80,125,
               965    1       /* 00101 */  77, 93, 92, 78,107, 96, 75, 97,
               966    1       /* 00110 */ 240,241,242,243,244,245,246,247,
               967    1       /* 00111 */ 248,249,122, 94, 76,126,110,111,
               968    1       /* 01000 */ 124,193,194,195,196,197,198,199,
               969    1       /* 01001 */ 200,201,209,210,211,212,213,214,
               970    1       /* 01010 */ 215,216,217,226,227,228,229,230,
               971    1       /* 01011 */ 231,232,233, 74,224, 90, 95,109,
               972    1       /* 01100 */ 121,129,130,131,132,133,134,135,
               973    1       /* 01101 */ 136,137,145,146,147,148,149,150,
               974    1       /* 01110 */ 151,152,153,162,163,164,165,166,
               975    1       /* 01111 */ 167,168,169,192,106,208,161,  7,
               976    1       /* 10000 */  32, 33, 34, 35, 36, 21,  6, 23,
               977    1       /* 10001 */  40, 41, 42, 43, 44,  9, 10, 27,
               978    1       /* 10010 */  48, 49, 26, 51, 52, 53, 54,  8,
               979    1       /* 10011 */  56, 57, 58, 59,  4, 20, 62,225,
               980    1       /* 10100 */  65, 66, 67, 68, 69, 70, 71, 72,
               981    1       /* 10101 */  73, 81, 82, 83, 84, 85, 86, 87,
               982    1       /* 10110 */  88, 89, 98, 99,100,101,102,103,
               983    1       /* 10111 */ 104,105,112,113,114,115,116,117,
               984    1       /* 11000 */ 118,119,120,128,138,139,140,141,
               985    1       /* 11001 */ 142,143,144,154,155,156,157,158,
               986    1       /* 11010 */ 159,160,170,171,172,173,174,175,
PL6.E3A0      #001=B_TABLES_D File=B_TABLES_D.:E05TSI                            TUE 07/29/97 11:10 Page:6
               987    1       /* 11011 */ 176,177,178,179,180,181,182,183,
               988    1       /* 11100 */ 184,185,186,187,188,189,190,191,
               989    1       /* 11101 */ 202,203,204,205,206,207,218,219,
               990    1       /* 11110 */ 220,221,222,223,234,235,236,237,
               991    1       /* 11111 */ 238,239,250,251,252,253,254,255 ),
               993            %B_XL_EBC_ASC;      /*   5  Translate EBCDIC to ASCII           */
               994    1     2 B_XL_EBC_ASC( 0:511 ) UBIN(9) CALIGNED INIT(
               995            /*            0   1   2   3   4   5   6   7   8   9 */
               996    1       /*     0 */   0,  1,  2,  3,156,  9,134,127,151,141,
               997    1       /*    10 */ 142, 11, 12, 13, 14, 15, 16, 17, 18, 19,
               998    1       /*    20 */ 157,133,  8,135, 24, 25,146,143, 28, 29,
               999    1       /*    30 */  30, 31,128,129,130,131,132, 10, 23, 27,
              1000    1       /*    40 */ 136,137,138,139,140,  5,  6,  7,144,145,
              1001    1       /*    50 */  22,147,148,149,150,  4,152,153,154,155,
              1002    1       /*    60 */  20, 21,158, 26, 32,160,161,162,163,164,
              1003    1       /*    70 */ 165,166,167,168, 91, 46, 60, 40, 43, 93,
              1004    1       /*    80 */  38,169,170,171,172,173,174,175,176,177,
              1005    1       /*    90 */  33, 36, 42, 41, 59, 94, 45, 47,178,179,
              1006    1       /*   100 */ 180,181,182,183,184,185,124, 44, 37, 95,
              1007    1       /*   110 */  62, 63,186,187,188,189,190,191,192,193,
              1008    1       /*   120 */ 194, 96, 58, 35, 64, 39, 61, 34,195, 97,
              1009    1       /*   130 */  98, 99,100,101,102,103,104,105,196,197,
              1010    1       /*   140 */ 198,199,200,201,202,106,107,108,109,110,
              1011    1       /*   150 */ 111,112,113,114,203,204,205,206,207,208,
              1012    1       /*   160 */ 209,126,115,116,117,118,119,120,121,122,
              1013    1       /*   170 */ 210,211,212,213,214,215,216,217,218,219,
              1014    1       /*   180 */ 220,221,222,223,224,225,226,227,228,229,
              1015    1       /*   190 */ 230,231,123, 65, 66, 67, 68, 69, 70, 71,
              1016    1       /*   200 */  72, 73,232,233,234,235,236,237,125, 74,
              1017    1       /*   210 */  75, 76, 77, 78, 79, 80, 81, 82,238,239,
              1018    1       /*   220 */ 240,241,242,243, 92,159, 83, 84, 85, 86,
              1019    1       /*   230 */  87, 88, 89, 90,244,245,246,247,248,249,
              1020    1       /*   240 */  48, 49, 50, 51, 52, 53, 54, 55, 56, 57,
              1021    1       /*   250 */ 250,251,252,253,254,255,
              1022    1       /*     0 */   0,  1,  2,  3,156,  9,134,127,151,141,
              1023    1       /*    10 */ 142, 11, 12, 13, 14, 15, 16, 17, 18, 19,
              1024    1       /*    20 */ 157,133,  8,135, 24, 25,146,143, 28, 29,
PL6.E3A0      #001=B_TABLES_D File=B_TABLES_D.:E05TSI                            TUE 07/29/97 11:10 Page:7
              1025    1       /*    30 */  30, 31,128,129,130,131,132, 10, 23, 27,
              1026    1       /*    40 */ 136,137,138,139,140,  5,  6,  7,144,145,
              1027    1       /*    50 */  22,147,148,149,150,  4,152,153,154,155,
              1028    1       /*    60 */  20, 21,158, 26, 32,160,161,162,163,164,
              1029    1       /*    70 */ 165,166,167,168, 91, 46, 60, 40, 43, 93,
              1030    1       /*    80 */  38,169,170,171,172,173,174,175,176,177,
              1031    1       /*    90 */  33, 36, 42, 41, 59, 94, 45, 47,178,179,
              1032    1       /*   100 */ 180,181,182,183,184,185,124, 44, 37, 95,
              1033    1       /*   110 */  62, 63,186,187,188,189,190,191,192,193,
              1034    1       /*   120 */ 194, 96, 58, 35, 64, 39, 61, 34,195, 97,
              1035    1       /*   130 */  98, 99,100,101,102,103,104,105,196,197,
              1036    1       /*   140 */ 198,199,200,201,202,106,107,108,109,110,
              1037    1       /*   150 */ 111,112,113,114,203,204,205,206,207,208,
              1038    1       /*   160 */ 209,126,115,116,117,118,119,120,121,122,
              1039    1       /*   170 */ 210,211,212,213,214,215,216,217,218,219,
              1040    1       /*   180 */ 220,221,222,223,224,225,226,227,228,229,
              1041    1       /*   190 */ 230,231,123, 65, 66, 67, 68, 69, 70, 71,
              1042    1       /*   200 */  72, 73,232,233,234,235,236,237,125, 74,
              1043    1       /*   210 */  75, 76, 77, 78, 79, 80, 81, 82,238,239,
              1044    1       /*   220 */ 240,241,242,243, 92,159, 83, 84, 85, 86,
              1045    1       /*   230 */  87, 88, 89, 90,244,245,246,247,248,249,
              1046    1       /*   240 */  48, 49, 50, 51, 52, 53, 54, 55, 56, 57,
              1047    1       /*   250 */ 250,251,252,253,254,255 ),
              1049            %B_XL_LOWER;        /*   6  Translate upper to lower case       */
              1050    1     2 B_XL_LOWER( 0:127 ) BIT(36) INIT(
              1051    1       '000001002003'O,'004005006007'O,'010011012013'O,'014015016017'O,
              1052    1       '020021022023'O,'024025026027'O,'030031032033'O,'034035036037'O,
              1053    1       '040041042043'O,'044045046047'O,'050051052053'O,'054055056057'O,
              1054    1       '060061062063'O,'064065066067'O,'070071072073'O,'074075076077'O,
              1055    1       '100141142143'O,'144145146147'O,'150151152153'O,'154155156157'O,
              1056    1       '160161162163'O,'164165166167'O,'170171172133'O,'134135136137'O,
              1057    1       '140141142143'O,'144145146147'O,'150151152153'O,'154155156157'O,
              1058    1       '160161162163'O,'164165166167'O,'170171172173'O,'174175176177'O,
              1059    1       '200201202203'O,'204205206207'O,'210211212213'O,'214215216217'O,
              1060    1       '220221222223'O,'224225226227'O,'230231232233'O,'234235236237'O,
              1061    1       '240241242243'O,'244245246247'O,'250251252253'O,'254255256257'O,
              1062    1       '260261262263'O,'264265266267'O,'270271272273'O,'274275276277'O,
PL6.E3A0      #001=B_TABLES_D File=B_TABLES_D.:E05TSI                            TUE 07/29/97 11:10 Page:8
              1063    1       '300301302303'O,'304305306307'O,'310311312313'O,'314315316317'O,
              1064    1       '320321322323'O,'324325326327'O,'330331332333'O,'334335336337'O,
              1065    1       '340341342343'O,'344345346347'O,'350351352353'O,'354355356357'O,
              1066    1       '360361362363'O,'364365366367'O,'370371372373'O,'374375366377'O,
              1067    1       '400401402403'O,'404405406407'O,'410411412413'O,'414415416417'O,
              1068    1       '420421422423'O,'424425426427'O,'430431432433'O,'434435436437'O,
              1069    1       '440441442443'O,'444445446447'O,'450451452453'O,'454455456457'O,
              1070    1       '460461462463'O,'464465466467'O,'470471472473'O,'474475476477'O,
              1071    1       '500501502503'O,'504505506507'O,'510511512513'O,'514515516517'O,
              1072    1       '520521522523'O,'524525526527'O,'530531532533'O,'534535536537'O,
              1073    1       '540541542543'O,'544545546547'O,'550551552553'O,'554555556557'O,
              1074    1       '560561562563'O,'564565566567'O,'570571572573'O,'574575576577'O,
              1075    1       '600601602603'O,'604605606607'O,'610611612613'O,'614615616617'O,
              1076    1       '620621622623'O,'624625626627'O,'630631632633'O,'634635636637'O,
              1077    1       '640641642643'O,'644645646647'O,'650651652653'O,'654655656657'O,
              1078    1       '660661662663'O,'664665666667'O,'670671672673'O,'674675676677'O,
              1079    1       '700701702703'O,'704705706707'O,'710711712713'O,'714715716717'O,
              1080    1       '720721722723'O,'724725726727'O,'730731732733'O,'734735736737'O,
              1081    1       '740741742743'O,'744745746747'O,'750751752753'O,'754755756757'O,
              1082    1       '760761762763'O,'764765766767'O,'770771772773'O,'774775776777'O ),
              1084            %B_XL_UPPER;        /*   7  Translate lower to upper case       */
              1085    1     2 B_XL_UPPER( 0:127 ) BIT(36) INIT(
              1086    1       '000001002003'O,'004005006007'O,'010011012013'O,'014015016017'O,
              1087    1       '020021022023'O,'024025026027'O,'030031032033'O,'034035036037'O,
              1088    1       '040041042043'O,'044045046047'O,'050051052053'O,'054055056057'O,
              1089    1       '060061062063'O,'064065066067'O,'070071072073'O,'074075076077'O,
              1090    1       '100101102103'O,'104105106107'O,'110111112113'O,'114115116117'O,
              1091    1       '120121122123'O,'124125126127'O,'130131132133'O,'134135136137'O,
              1092    1       '140101102103'O,'104105106107'O,'110111112113'O,'114115116117'O,
              1093    1       '120121122123'O,'124125126127'O,'130131132173'O,'174175176177'O,
              1094    1       '200201202203'O,'204205206207'O,'210211212213'O,'214215216217'O,
              1095    1       '220221222223'O,'224225226227'O,'230231232233'O,'234235236237'O,
              1096    1       '240241242243'O,'244245246247'O,'250251252253'O,'254255256257'O,
              1097    1       '260261262263'O,'264265266267'O,'270271272273'O,'274275276277'O,
              1098    1       '300301302303'O,'304305306307'O,'310311312313'O,'314315316317'O,
              1099    1       '320321322323'O,'324325326327'O,'330331332333'O,'334335336337'O,
              1100    1       '340341342343'O,'344345346347'O,'350351352353'O,'354355356357'O,
PL6.E3A0      #001=B_TABLES_D File=B_TABLES_D.:E05TSI                            TUE 07/29/97 11:10 Page:9
              1101    1       '360361362363'O,'364365366367'O,'370371372373'O,'374375366377'O,
              1102    1       '400401402403'O,'404405406407'O,'410411412413'O,'414415416417'O,
              1103    1       '420421422423'O,'424425426427'O,'430431432433'O,'434435436437'O,
              1104    1       '440441442443'O,'444445446447'O,'450451452453'O,'454455456457'O,
              1105    1       '460461462463'O,'464465466467'O,'470471472473'O,'474475476477'O,
              1106    1       '500501502503'O,'504505506507'O,'510511512513'O,'514515516517'O,
              1107    1       '520521522523'O,'524525526527'O,'530531532533'O,'534535536537'O,
              1108    1       '540541542543'O,'544545546547'O,'550551552553'O,'554555556557'O,
              1109    1       '560561562563'O,'564565566567'O,'570571572573'O,'574575576577'O,
              1110    1       '600601602603'O,'604605606607'O,'610611612613'O,'614615616617'O,
              1111    1       '620621622623'O,'624625626627'O,'630631632633'O,'634635636637'O,
              1112    1       '640641642643'O,'644645646647'O,'650651652653'O,'654655656657'O,
              1113    1       '660661662663'O,'664665666667'O,'670671672673'O,'674675676677'O,
              1114    1       '700701702703'O,'704705706707'O,'710711712713'O,'714715716717'O,
              1115    1       '720721722723'O,'724725726727'O,'730731732733'O,'734735736737'O,
              1116    1       '740741742743'O,'744745746747'O,'750751752753'O,'754755756757'O,
              1117    1       '760761762763'O,'764765766767'O,'770771772773'O,'774775776777'O ),
              1119            %B_XL_UR;           /*   8  Translate to Unit Record char set   */
              1120    1     2 B_XL_UR( 0:511 ) CHAR(1) INIT(
              1121    1       ' '*9,BITASC('011'O),' '*22,
              1122    1       ' ','!','"','#','$','%','&','''','(',')','*','+',',','-','.','/',
              1123    1       '0','1','2','3','4','5','6','7','8','9',':',';','<','=','>','?',
              1124    1       '@','A','B','C','D','E','F','G','H','I','J','K','L','M','N','O',
              1125    1       'P','Q','R','S','T','U','V','W','X','Y','Z','[','\',']','^','_',
              1126    1       '`','a','b','c','d','e','f','g','h','i','j','k','l','m','n','o',
              1127    1       'p','q','r','s','t','u','v','w','x','y','z','{','|','}','~',' ',
              1128    1       ' '*9,BITASC('011'O),' '*22,
              1129    1       ' ','!','"','#','$','%','&','''','(',')','*','+',',','-','.','/',
              1130    1       '0','1','2','3','4','5','6','7','8','9',':',';','<','=','>','?',
              1131    1       '@','A','B','C','D','E','F','G','H','I','J','K','L','M','N','O',
              1132    1       'P','Q','R','S','T','U','V','W','X','Y','Z','[','\',']','^','_',
              1133    1       '`','a','b','c','d','e','f','g','h','i','j','k','l','m','n','o',
              1134    1       'p','q','r','s','t','u','v','w','x','y','z','{','|','}','~',' ',
              1135    1       ' '*9,BITASC('011'O),' '*22,
              1136    1       ' ','!','"','#','$','%','&','''','(',')','*','+',',','-','.','/',
              1137    1       '0','1','2','3','4','5','6','7','8','9',':',';','<','=','>','?',
              1138    1       '@','A','B','C','D','E','F','G','H','I','J','K','L','M','N','O',
PL6.E3A0      #001=B_TABLES_D File=B_TABLES_D.:E05TSI                            TUE 07/29/97 11:10 Page:10
              1139    1       'P','Q','R','S','T','U','V','W','X','Y','Z','[','\',']','^','_',
              1140    1       '`','a','b','c','d','e','f','g','h','i','j','k','l','m','n','o',
              1141    1       'p','q','r','s','t','u','v','w','x','y','z','{','|','}','~',' ',
              1142    1       ' '*9,BITASC('011'O),' '*22,
              1143    1       ' ','!','"','#','$','%','&','''','(',')','*','+',',','-','.','/',
              1144    1       '0','1','2','3','4','5','6','7','8','9',':',';','<','=','>','?',
              1145    1       '@','A','B','C','D','E','F','G','H','I','J','K','L','M','N','O',
              1146    1       'P','Q','R','S','T','U','V','W','X','Y','Z','[','\',']','^','_',
              1147    1       '`','a','b','c','d','e','f','g','h','i','j','k','l','m','n','o',
              1148    1       'p','q','r','s','t','u','v','w','x','y','z','{','|','}','~',' ' ),
              1150            %B_XL_UPPER_UR;     /*   9  Translate to uppercase UR char set  */
              1151    1     2 B_XL_UPPER_UR( 0:511 ) CHAR(1) INIT(
              1152    1       ' '*9,BITASC('011'O),' '*22,
              1153    1       ' ','!','"','#','$','%','&','''','(',')','*','+',',','-','.','/',
              1154    1       '0','1','2','3','4','5','6','7','8','9',':',';','<','=','>','?',
              1155    1       '@','A','B','C','D','E','F','G','H','I','J','K','L','M','N','O',
              1156    1       'P','Q','R','S','T','U','V','W','X','Y','Z','[','\',']','^','_',
              1157    1       '`','A','B','C','D','E','F','G','H','I','J','K','L','M','N','O',
              1158    1       'P','Q','R','S','T','U','V','W','X','Y','Z','{','|','}','~',' ',
              1159    1       ' '*9,BITASC('011'O),' '*22,
              1160    1       ' ','!','"','#','$','%','&','''','(',')','*','+',',','-','.','/',
              1161    1       '0','1','2','3','4','5','6','7','8','9',':',';','<','=','>','?',
              1162    1       '@','A','B','C','D','E','F','G','H','I','J','K','L','M','N','O',
              1163    1       'P','Q','R','S','T','U','V','W','X','Y','Z','[','\',']','^','_',
              1164    1       '`','A','B','C','D','E','F','G','H','I','J','K','L','M','N','O',
              1165    1       'P','Q','R','S','T','U','V','W','X','Y','Z','{','|','}','~',' ',
              1166    1       ' '*9,BITASC('011'O),' '*22,
              1167    1       ' ','!','"','#','$','%','&','''','(',')','*','+',',','-','.','/',
              1168    1       '0','1','2','3','4','5','6','7','8','9',':',';','<','=','>','?',
              1169    1       '@','A','B','C','D','E','F','G','H','I','J','K','L','M','N','O',
              1170    1       'P','Q','R','S','T','U','V','W','X','Y','Z','[','\',']','^','_',
              1171    1       '`','A','B','C','D','E','F','G','H','I','J','K','L','M','N','O',
              1172    1       'P','Q','R','S','T','U','V','W','X','Y','Z','{','|','}','~',' ',
              1173    1       ' '*9,BITASC('011'O),' '*22,
              1174    1       ' ','!','"','#','$','%','&','''','(',')','*','+',',','-','.','/',
              1175    1       '0','1','2','3','4','5','6','7','8','9',':',';','<','=','>','?',
              1176    1       '@','A','B','C','D','E','F','G','H','I','J','K','L','M','N','O',
PL6.E3A0      #001=B_TABLES_D File=B_TABLES_D.:E05TSI                            TUE 07/29/97 11:10 Page:11
              1177    1       'P','Q','R','S','T','U','V','W','X','Y','Z','[','\',']','^','_',
              1178    1       '`','A','B','C','D','E','F','G','H','I','J','K','L','M','N','O',
              1179    1       'P','Q','R','S','T','U','V','W','X','Y','Z','{','|','}','~',' ' ),
              1181            %B_XL_LOWER_UR;     /*  10  Translate to lowercase UR char set  */
              1182    1     2 B_XL_LOWER_UR( 0:511 ) CHAR(1) INIT(
              1183    1       ' '*9,BITASC('011'O),' '*22,
              1184    1       ' ','!','"','#','$','%','&','''','(',')','*','+',',','-','.','/',
              1185    1       '0','1','2','3','4','5','6','7','8','9',':',';','<','=','>','?',
              1186    1       '@','a','b','c','d','e','f','g','h','i','j','k','l','m','n','o',
              1187    1       'p','q','r','s','t','u','v','w','x','y','z','[','\',']','^','_',
              1188    1       '`','a','b','c','d','e','f','g','h','i','j','k','l','m','n','o',
              1189    1       'p','q','r','s','t','u','v','w','x','y','z','{','|','}','~',' ',
              1190    1       ' '*9,BITASC('011'O),' '*22,
              1191    1       ' ','!','"','#','$','%','&','''','(',')','*','+',',','-','.','/',
              1192    1       '0','1','2','3','4','5','6','7','8','9',':',';','<','=','>','?',
              1193    1       '@','a','b','c','d','e','f','g','h','i','j','k','l','m','n','o',
              1194    1       'p','q','r','s','t','u','v','w','x','y','z','[','\',']','^','_',
              1195    1       '`','a','b','c','d','e','f','g','h','i','j','k','l','m','n','o',
              1196    1       'p','q','r','s','t','u','v','w','x','y','z','{','|','}','~',' ',
              1197    1       ' '*9,BITASC('011'O),' '*22,
              1198    1       ' ','!','"','#','$','%','&','''','(',')','*','+',',','-','.','/',
              1199    1       '0','1','2','3','4','5','6','7','8','9',':',';','<','=','>','?',
              1200    1       '@','a','b','c','d','e','f','g','h','i','j','k','l','m','n','o',
              1201    1       'p','q','r','s','t','u','v','w','x','y','z','[','\',']','^','_',
              1202    1       '`','a','b','c','d','e','f','g','h','i','j','k','l','m','n','o',
              1203    1       'p','q','r','s','t','u','v','w','x','y','z','{','|','}','~',' ',
              1204    1       ' '*9,BITASC('011'O),' '*22,
              1205    1       ' ','!','"','#','$','%','&','''','(',')','*','+',',','-','.','/',
              1206    1       '0','1','2','3','4','5','6','7','8','9',':',';','<','=','>','?',
              1207    1       '@','a','b','c','d','e','f','g','h','i','j','k','l','m','n','o',
              1208    1       'p','q','r','s','t','u','v','w','x','y','z','[','\',']','^','_',
              1209    1       '`','a','b','c','d','e','f','g','h','i','j','k','l','m','n','o',
              1210    1       'p','q','r','s','t','u','v','w','x','y','z','{','|','}','~',' ' ),
              1212            %B_XL_MOD_256;      /*  11  Strip hi-order bit from each char   */
              1213    1     2 B_XL_MOD_256( 0:511 ) UBIN(9) CALIGNED INIT(
              1214    1       0,1,2,3,4,5,6,7,8,9,10,11,12,13,14,15,
              1215    1       16,17,18,19,20,21,22,23,24,25,26,27,28,29,30,
PL6.E3A0      #001=B_TABLES_D File=B_TABLES_D.:E05TSI                            TUE 07/29/97 11:10 Page:12
              1216    1       31,32,33,34,35,36,37,38,39,40,41,42,43,44,45,
              1217    1       46,47,48,49,50,51,52,53,54,55,56,57,58,59,60,
              1218    1       61,62,63,64,65,66,67,68,69,70,71,72,73,74,75,
              1219    1       76,77,78,79,80,81,82,83,84,85,86,87,88,89,90,
              1220    1       91,92,93,94,95,96,97,98,99,100,101,102,103,104,105,
              1221    1       106,107,108,109,110,111,112,113,114,115,116,117,118,119,120,
              1222    1       121,122,123,124,125,126,127,128,129,130,131,132,133,134,135,
              1223    1       136,137,138,139,140,141,142,143,144,145,146,147,148,149,150,
              1224    1       151,152,153,154,155,156,157,158,159,160,161,162,163,164,165,
              1225    1       166,167,168,169,170,171,172,173,174,175,176,177,178,179,180,
              1226    1       181,182,183,184,185,186,187,188,189,190,191,192,193,194,195,
              1227    1       196,197,198,199,200,201,202,203,204,205,206,207,208,209,210,
              1228    1       211,212,213,214,215,216,217,218,219,220,221,222,223,224,225,
              1229    1       226,227,228,229,230,231,232,233,234,235,236,237,238,239,240,
              1230    1       241,242,243,244,245,246,247,248,249,250,251,252,253,254,255,
              1231    1       0,1,2,3,4,5,6,7,8,9,10,11,12,13,14,15,
              1232    1       16,17,18,19,20,21,22,23,24,25,26,27,28,29,30,
              1233    1       31,32,33,34,35,36,37,38,39,40,41,42,43,44,45,
              1234    1       46,47,48,49,50,51,52,53,54,55,56,57,58,59,60,
              1235    1       61,62,63,64,65,66,67,68,69,70,71,72,73,74,75,
              1236    1       76,77,78,79,80,81,82,83,84,85,86,87,88,89,90,
              1237    1       91,92,93,94,95,96,97,98,99,100,101,102,103,104,105,
              1238    1       106,107,108,109,110,111,112,113,114,115,116,117,118,119,120,
              1239    1       121,122,123,124,125,126,127,128,129,130,131,132,133,134,135,
              1240    1       136,137,138,139,140,141,142,143,144,145,146,147,148,149,150,
              1241    1       151,152,153,154,155,156,157,158,159,160,161,162,163,164,165,
              1242    1       166,167,168,169,170,171,172,173,174,175,176,177,178,179,180,
              1243    1       181,182,183,184,185,186,187,188,189,190,191,192,193,194,195,
              1244    1       196,197,198,199,200,201,202,203,204,205,206,207,208,209,210,
              1245    1       211,212,213,214,215,216,217,218,219,220,221,222,223,224,225,
              1246    1       226,227,228,229,230,231,232,233,234,235,236,237,238,239,240,
              1247    1       241,242,243,244,245,246,247,248,249,250,251,252,253,254,255 ),
              1249            %B_XL_ASC_DUMP;     /*  12  Translate nonprintable ASCII to dot */
              1250    1     2 B_XL_ASC_DUMP( 0:15 ) CHAR(32) INIT(
              1251    1       '................................',
              1252    1       ' !"#$%&''()*+,-./0123456789:;<=>?',
              1253    1       '@ABCDEFGHIJKLMNOPQRSTUVWXYZ[\]^_',
PL6.E3A0      #001=B_TABLES_D File=B_TABLES_D.:E05TSI                            TUE 07/29/97 11:10 Page:13
              1254    1       '`abcdefghijklmnopqrstuvwxyz{|}~.',
              1255    1       '................................',
              1256    1       ' !"#$%&''()*+,-./0123456789:;<=>?',
              1257    1       '@ABCDEFGHIJKLMNOPQRSTUVWXYZ[\]^_',
              1258    1       '`abcdefghijklmnopqrstuvwxyz{|}~.',
              1259    1       '................................',
              1260    1       ' !"#$%&''()*+,-./0123456789:;<=>?',
              1261    1       '@ABCDEFGHIJKLMNOPQRSTUVWXYZ[\]^_',
              1262    1       '`abcdefghijklmnopqrstuvwxyz{|}~.',
              1263    1       '................................',
              1264    1       ' !"#$%&''()*+,-./0123456789:;<=>?',
              1265    1       '@ABCDEFGHIJKLMNOPQRSTUVWXYZ[\]^_',
              1266    1       '`abcdefghijklmnopqrstuvwxyz{|}~.' ),
              1268            %B_XL_EBC_DUMP;     /*  13  Translate nonprintable EBCDIC to dot*/
              1269    1     2 B_XL_EBC_DUMP( 0:31 ) CHAR(16) INIT(
              1270    1       '................', '................', /* 00 - 1F */
              1271    1       '................', '................', /* 20 - 3F */
              1272    1       ' .........`.<(+|', '&.........!$*);~', /* 40 - 5F */
              1273    1       '-/........^,%_>?','..........:#@''="', /* 60 - 7F */
              1274    1       '.abcdefghi......', '.jklmnopqr......', /* 80 - 9F */
              1275    1       '..stuvwxyz......', '.\{}[]..........', /* A0 - BF */
              1276    1       '{ABCDEFGHI......', '}JKLMNOPQR......', /* C0 - DF */
              1277    1       '..STUVWXYZ......', '0123456789......', /* E0 - FF */
              1278    1       '................', '................', /* 00 - 1F */
              1279    1       '................', '................', /* 20 - 3F */
              1280    1       ' .........`.<(+|', '&.........!$*);~', /* 40 - 5F */
              1281    1       '-/........^,%_>?','..........:#@''="', /* 60 - 7F */
              1282    1       '.abcdefghi......', '.jklmnopqr......', /* 80 - 9F */
              1283    1       '..stuvwxyz......', '.\{}[]..........', /* A0 - BF */
              1284    1       '{ABCDEFGHI......', '}JKLMNOPQR......', /* C0 - DF */
              1285    1       '..STUVWXYZ......', '0123456789......'  /* E0 - FF */ ),
              1287    1       2 * UBIN;
       24     1289
       25     1290    1   END B_TABLES_D;

PL6.E3A0      #001=B_TABLES_D File=B_TABLES_D.:E05TSI                            TUE 07/29/97 11:10 Page:14
--  Include file information  --

   B$TABLES_C.:E05TOU  cannot be made into a system file and is referenced.
   B_TABLES_C.:E05TOU  is referenced.
      No diagnostics issued in procedure B_TABLES_D.

   No code generated for procedure B_TABLES_D .
   Procedure B_TABLES_D requires 4 words of local(AUTO) storage.

    No errors detected in file B_TABLES_D.:E05TSI    .

PL6.E3A0      #001=B_TABLES_D File=B_TABLES_D.:E05TSI                            TUE 07/29/97 11:10 Page:15

 Object Unit name= B_TABLES_D                                 File name= B_TABLES_D.:E05TOU
 UTS= JUL 29 '97 11:10:52.32 TUE                              Compiler= PL-6/E31         Sev=      00
 SharedLib= :SHARED_SYSTEM                                    Alt SharedLib=


    ****  Control sections  ****

 Sect   Type Bound  Init  Size OctSiz  Section name(segment info)
    0  RoData even  UTS   1794   3402  B_TABLES_D
    1   Proc  even  none     0      0  B_TABLES_D

    ****  Entry defs  ****

                              Check   Calling
                             calling  sequence
  Sect OctLoc Primary Altret sequence   type   Parms  Name
     1      0   yes            yes     ~proc       0  B_TABLES_D

  ****  Data defs  ****

 Sect OctLoc  Name                           Sect OctLoc  Name
    0      0  B_TABLES

  ****  Entry refs  ****

         Check        Calling
        calling       sequence
Altret sequence SRef   type   Args  Name
         yes          ~proc      0 B_POINTER
PL6.E3A0      #001=B_TABLES_D File=B_TABLES_D.:E05TSI                            TUE 07/29/97 11:10 Page:16

        1        1        /*M* B_TABLES_D - Common SEARCH and XLATE tables */
        2        2        /*T***********************************************************/
        3        3        /*T*                                                         */
        4        4        /*T* Copyright (c) Bull HN Information Systems Inc., 1997    */
        5        5        /*T*                                                         */
        6        6        /*T***********************************************************/
        7        7
        8        8        /*P* NAME: B_TABLES_D
        9        9        PURPOSE: Common SEARCH and XLATE tables.
       10       10        DESCRPTION:
       11       11                This module contains the standard set of common SEARCH and
       12       12                XLATE tables.  This set of tables is intended for the English
       13       13                language.  B_ALTTBLS_D contains an alternate set of tables
       14       14                that can be used for a different language.
       15       15        */
       16       16
       17       17        B_TABLES_D: PROC;
       18       18
       19       19        %INCLUDE B_TABLES_C;
       20      710        %INCLUDE B$TABLES_C;
       21      818
       22      819        %LIST;
       23      820        %B_TABLES( NAME=B_TABLES );
               821    1   DCL 1 NAME CONSTANT SYMDEF DALIGNED,
               822            %B_SR_NON_BLANK;    /*   0  Search for non-blank                */
               823    1     2 B_SR_NON_BLANK( 0:511 ) BIT(9) CALIGNED INIT(
               824    1       %B$SR#CTL * 32,                 /*  NULL thru US                */
               825    1       '0'B,                           /*  SP                          */
               826    1       %B$SR#PUNC * 2,                 /*  ! "                         */
               827    1       %( B$SR#PUNC | B$SR#SYM ) * 2,  /*  # $                         */
               828    1       %B$SR#PUNC * 6,                 /*  % & ' ( ) *                 */
               829    1       %( B$SR#PUNC | B$SR#NUM ),      /*  +                           */
               830    1       %B$SR#PUNC,                     /*  ,                           */
               831    1       %( B$SR#PUNC | B$SR#NUM ) * 2,  /*  - .                         */
               832    1       %B$SR#PUNC,                     /*  /                           */
               833    1       %( B$SR#DEC | B$SR#NUM | B$SR#HEX | B$SR#OCT | B$SR#SYM ) * 8,
               834                                            /*  0 thru 7                    */
PL6.E3A0      #001=B_TABLES_D File=B_TABLES_D.:E05TSI                            TUE 07/29/97 11:10 Page:17
               835    1       %( B$SR#DEC | B$SR#NUM | B$SR#HEX | B$SR#SYM ) * 2, /*  8 9     */
               836    1       %B$SR#PUNC * 6,                 /*  : ; < = > ?                 */
               837    1       %( B$SR#PUNC | B$SR#SYM ),      /*  @                           */
               838    1       %( B$SR#ALPHA | B$SR#HEX | B$SR#SYM ) * 6,  /*  A thru F        */
               839    1       %( B$SR#ALPHA | B$SR#SYM ) * 20,/*      G thru Z                */
               840    1       %B$SR#PUNC * 4,                 /*  [ \ ] ^                     */
               841    1       %( B$SR#PUNC | B$SR#SYM ),      /*  _                           */
               842    1       %B$SR#PUNC,                     /*  `                           */
               843    1       %( B$SR#ALPHA | B$SR#HEX | B$SR#SYM ) * 6,  /*  a thru f        */
               844    1       %( B$SR#ALPHA | B$SR#SYM ) * 20,/*      g thru z                */
               845    1       %B$SR#PUNC * 4,                 /*  { | } ~                     */
               846    1       %B$SR#CTL,                      /*  DEL                         */
               847    1       %B$SR#OTHER * 384 ),            /*  non-ASCII characters        */
               849            %B_SR_NON_ZERO;     /*   1  Search for non-zero                 */
               850    1     2 B_SR_NON_ZERO( 0:511 ) BIT(9) CALIGNED INIT(
               851    1       %B$SR#CTL * 32,                 /*  NULL thru US                */
               852    1       %B$SR#PUNC * 3,                 /*  SP ! "                      */
               853    1       %( B$SR#PUNC | B$SR#SYM ) * 2,  /*  # $                         */
               854    1       %B$SR#PUNC * 6,                 /*  % & ' ( ) *                 */
               855    1       %( B$SR#PUNC | B$SR#NUM ),      /*  +                           */
               856    1       %B$SR#PUNC,                     /*  ,                           */
               857    1       %( B$SR#PUNC | B$SR#NUM ) * 2,  /*  - .                         */
               858    1       %B$SR#PUNC,                     /*  /                           */
               859    1       '0'B,                           /*  0                           */
               860    1       %( B$SR#DEC | B$SR#NUM | B$SR#HEX | B$SR#OCT | B$SR#SYM ) * 7,
               861                                            /*  1 thru 7                    */
               862    1       %( B$SR#DEC | B$SR#NUM | B$SR#HEX | B$SR#SYM ) * 2, /*  8 9     */
               863    1       %B$SR#PUNC * 6,                 /*  : ; < = > ?                 */
               864    1       %( B$SR#PUNC | B$SR#SYM ),      /*  @                           */
               865    1       %( B$SR#ALPHA | B$SR#HEX | B$SR#SYM ) * 6,  /*  A thru F        */
               866    1       %( B$SR#ALPHA | B$SR#SYM ) * 20,/*      G thru Z                */
               867    1       %B$SR#PUNC * 4,                 /*  [ \ ] ^                     */
               868    1       %( B$SR#PUNC | B$SR#SYM ),      /*  _                           */
               869    1       %B$SR#PUNC,                     /*  `                           */
               870    1       %( B$SR#ALPHA | B$SR#HEX | B$SR#SYM ) * 6,  /*  a thru f        */
               871    1       %( B$SR#ALPHA | B$SR#SYM ) * 20,/*      g thru z                */
               872    1       %B$SR#PUNC * 4,                 /*  { | { ~                     */
PL6.E3A0      #001=B_TABLES_D File=B_TABLES_D.:E05TSI                            TUE 07/29/97 11:10 Page:18
               873    1       %B$SR#CTL,                      /*  DEL                         */
               874    1       %B$SR#OTHER * 384 ),            /*  non-ASCII characters        */
               876            %B_SR_NON_DEC;      /*   2  Search for non-decimal              */
               877    1     2 B_SR_NON_DEC( 0:511 ) BIT(9) CALIGNED INIT(
               878    1       %B$SR#CTL * 32,                 /*  NULL thru US                */
               879    1       %B$SR#PUNC * 3,                 /*  SP ! "                      */
               880    1       %( B$SR#PUNC | B$SR#SYM ) * 2,  /*  # $                         */
               881    1       %B$SR#PUNC * 6,                 /*  % & ' ( ) *                 */
               882    1       %( B$SR#PUNC | B$SR#NUM ),      /*  +                           */
               883    1       %B$SR#PUNC,                     /*  ,                           */
               884    1       %( B$SR#PUNC | B$SR#NUM ) * 2,  /*  - .                         */
               885    1       %B$SR#PUNC,                     /*  /                           */
               886    1       '0'B * 10,                      /*  0 thru 9                    */
               887    1       %B$SR#PUNC * 6,                 /*  : ; < = > ?                 */
               888    1       %( B$SR#PUNC | B$SR#SYM ),      /*  @                           */
               889    1       %( B$SR#ALPHA | B$SR#HEX | B$SR#SYM ) * 6,  /*  A thru F        */
               890    1       %( B$SR#ALPHA | B$SR#SYM ) * 20,/*  G thru Z                    */
               891    1       %B$SR#PUNC * 4,                 /*  [ \ ] ^                     */
               892    1       %( B$SR#PUNC | B$SR#SYM ),      /*  _                           */
               893    1       %B$SR#PUNC,                     /*  `                           */
               894    1       %( B$SR#ALPHA | B$SR#HEX | B$SR#SYM ) * 6,  /*  a thru f        */
               895    1       %( B$SR#ALPHA | B$SR#SYM ) * 20,/*  g thru z                    */
               896    1       %B$SR#PUNC * 4,                 /*  { | } ~                     */
               897    1       %B$SR#CTL,                      /*  DEL                         */
               898    1       %B$SR#OTHER * 384 ),            /*  non-ASCII characters        */
               900            %B_SR_NON_ALPHA;    /*   3  Search for non-alphabetic           */
               901    1     2 B_SR_NON_ALPHA( 0:511 ) BIT(9) CALIGNED INIT(
               902    1       %B$SR#CTL * 32,                 /*  NULL thru US                */
               903    1       %B$SR#PUNC * 3,                 /*  SP ! "                      */
               904    1       %( B$SR#PUNC | B$SR#SYM ) * 2,  /*  # $                         */
               905    1       %B$SR#PUNC * 6,                 /*  % & ' ( ) *                 */
               906    1       %( B$SR#PUNC | B$SR#NUM ),      /*  +                           */
               907    1       %B$SR#PUNC,                     /*  ,                           */
               908    1       %( B$SR#PUNC | B$SR#NUM ) * 2,  /*  - .                         */
               909    1       %B$SR#PUNC,                     /*  /                           */
               910    1       %( B$SR#DEC | B$SR#NUM | B$SR#HEX | B$SR#OCT | B$SR#SYM ) * 8,
               911                                            /*  0 thru 7                    */
PL6.E3A0      #001=B_TABLES_D File=B_TABLES_D.:E05TSI                            TUE 07/29/97 11:10 Page:19
               912    1       %( B$SR#DEC | B$SR#NUM | B$SR#HEX | B$SR#SYM ) * 2, /*  8 9     */
               913    1       %B$SR#PUNC * 6,                 /*  : ; < = > ?                 */
               914    1       %( B$SR#PUNC | B$SR#SYM ),      /*  @                           */
               915    1       '0'B * 26,                      /*  A thru Z                    */
               916    1       %B$SR#PUNC * 4,                 /*  [ \ ] ^                     */
               917    1       %( B$SR#PUNC | B$SR#SYM ),      /*  _                           */
               918    1       %B$SR#PUNC,                     /*  `                           */
               919    1       '0'B * 26,                      /*  a thru z                    */
               920    1       %B$SR#PUNC * 4,                 /*  { | } ~                     */
               921    1       %B$SR#CTL,                      /*  DEL                         */
               922    1       %B$SR#OTHER * 384 ),            /*  non-ASCII characters        */
               924            %B_XL_ASC_EBC;      /*   4  Translate ASCII to EBCDIC           */
               925    1     2 B_XL_ASC_EBC( 0:511 ) UBIN(9) CALIGNED INIT(
               926            /*Most sig-     Least significant digits    */
               927            /*nificant  000 001 010 011 100 101 110 111 */
               928    1       /* 00000 */   0,  1,  2,  3, 55, 45, 46, 47,
               929    1       /* 00001 */  22,  5, 37, 11, 12, 13, 14, 15,
               930    1       /* 00010 */  16, 17, 18, 19, 60, 61, 50, 38,
               931    1       /* 00011 */  24, 25, 63, 39, 28, 29, 30, 31,
               932    1       /* 00100 */  64, 90,127,123, 91,108, 80,125,
               933    1       /* 00101 */  77, 93, 92, 78,107, 96, 75, 97,
               934    1       /* 00110 */ 240,241,242,243,244,245,246,247,
               935    1       /* 00111 */ 248,249,122, 94, 76,126,110,111,
               936    1       /* 01000 */ 124,193,194,195,196,197,198,199,
               937    1       /* 01001 */ 200,201,209,210,211,212,213,214,
               938    1       /* 01010 */ 215,216,217,226,227,228,229,230,
               939    1       /* 01011 */ 231,232,233, 74,224, 79, 95,109,
               940    1       /* 01100 */ 121,129,130,131,132,133,134,135,
               941    1       /* 01101 */ 136,137,145,146,147,148,149,150,
               942    1       /* 01110 */ 151,152,153,162,163,164,165,166,
               943    1       /* 01111 */ 167,168,169,192,106,208,161,  7,
               944    1       /* 10000 */  32, 33, 34, 35, 36, 21,  6, 23,
               945    1       /* 10001 */  40, 41, 42, 43, 44,  9, 10, 27,
               946    1       /* 10010 */  48, 49, 26, 51, 52, 53, 54,  8,
               947    1       /* 10011 */  56, 57, 58, 59,  4, 20, 62,225,
               948    1       /* 10100 */  65, 66, 67, 68, 69, 70, 71, 72,
               949    1       /* 10101 */  73, 81, 82, 83, 84, 85, 86, 87,
PL6.E3A0      #001=B_TABLES_D File=B_TABLES_D.:E05TSI                            TUE 07/29/97 11:10 Page:20
               950    1       /* 10110 */  88, 89, 98, 99,100,101,102,103,
               951    1       /* 10111 */ 104,105,112,113,114,115,116,117,
               952    1       /* 11000 */ 118,119,120,128,138,139,140,141,
               953    1       /* 11001 */ 142,143,144,154,155,156,157,158,
               954    1       /* 11010 */ 159,160,170,171,172,173,174,175,
               955    1       /* 11011 */ 176,177,178,179,180,181,182,183,
               956    1       /* 11100 */ 184,185,186,187,188,189,190,191,
               957    1       /* 11101 */ 202,203,204,205,206,207,218,219,
               958    1       /* 11110 */ 220,221,222,223,234,235,236,237,
               959    1       /* 11111 */ 238,239,250,251,252,253,254,255,
               960    1       /* 00000 */   0,  1,  2,  3, 55, 45, 46, 47,
               961    1       /* 00001 */  22,  5, 37, 11, 12, 13, 14, 15,
               962    1       /* 00010 */  16, 17, 18, 19, 60, 61, 50, 38,
               963    1       /* 00011 */  24, 25, 63, 39, 28, 29, 30, 31,
               964    1       /* 00100 */  64, 79,127,123, 91,108, 80,125,
               965    1       /* 00101 */  77, 93, 92, 78,107, 96, 75, 97,
               966    1       /* 00110 */ 240,241,242,243,244,245,246,247,
               967    1       /* 00111 */ 248,249,122, 94, 76,126,110,111,
               968    1       /* 01000 */ 124,193,194,195,196,197,198,199,
               969    1       /* 01001 */ 200,201,209,210,211,212,213,214,
               970    1       /* 01010 */ 215,216,217,226,227,228,229,230,
               971    1       /* 01011 */ 231,232,233, 74,224, 90, 95,109,
               972    1       /* 01100 */ 121,129,130,131,132,133,134,135,
               973    1       /* 01101 */ 136,137,145,146,147,148,149,150,
               974    1       /* 01110 */ 151,152,153,162,163,164,165,166,
               975    1       /* 01111 */ 167,168,169,192,106,208,161,  7,
               976    1       /* 10000 */  32, 33, 34, 35, 36, 21,  6, 23,
               977    1       /* 10001 */  40, 41, 42, 43, 44,  9, 10, 27,
               978    1       /* 10010 */  48, 49, 26, 51, 52, 53, 54,  8,
               979    1       /* 10011 */  56, 57, 58, 59,  4, 20, 62,225,
               980    1       /* 10100 */  65, 66, 67, 68, 69, 70, 71, 72,
               981    1       /* 10101 */  73, 81, 82, 83, 84, 85, 86, 87,
               982    1       /* 10110 */  88, 89, 98, 99,100,101,102,103,
               983    1       /* 10111 */ 104,105,112,113,114,115,116,117,
               984    1       /* 11000 */ 118,119,120,128,138,139,140,141,
               985    1       /* 11001 */ 142,143,144,154,155,156,157,158,
               986    1       /* 11010 */ 159,160,170,171,172,173,174,175,
PL6.E3A0      #001=B_TABLES_D File=B_TABLES_D.:E05TSI                            TUE 07/29/97 11:10 Page:21
               987    1       /* 11011 */ 176,177,178,179,180,181,182,183,
               988    1       /* 11100 */ 184,185,186,187,188,189,190,191,
               989    1       /* 11101 */ 202,203,204,205,206,207,218,219,
               990    1       /* 11110 */ 220,221,222,223,234,235,236,237,
               991    1       /* 11111 */ 238,239,250,251,252,253,254,255 ),
               993            %B_XL_EBC_ASC;      /*   5  Translate EBCDIC to ASCII           */
               994    1     2 B_XL_EBC_ASC( 0:511 ) UBIN(9) CALIGNED INIT(
               995            /*            0   1   2   3   4   5   6   7   8   9 */
               996    1       /*     0 */   0,  1,  2,  3,156,  9,134,127,151,141,
               997    1       /*    10 */ 142, 11, 12, 13, 14, 15, 16, 17, 18, 19,
               998    1       /*    20 */ 157,133,  8,135, 24, 25,146,143, 28, 29,
               999    1       /*    30 */  30, 31,128,129,130,131,132, 10, 23, 27,
              1000    1       /*    40 */ 136,137,138,139,140,  5,  6,  7,144,145,
              1001    1       /*    50 */  22,147,148,149,150,  4,152,153,154,155,
              1002    1       /*    60 */  20, 21,158, 26, 32,160,161,162,163,164,
              1003    1       /*    70 */ 165,166,167,168, 91, 46, 60, 40, 43, 93,
              1004    1       /*    80 */  38,169,170,171,172,173,174,175,176,177,
              1005    1       /*    90 */  33, 36, 42, 41, 59, 94, 45, 47,178,179,
              1006    1       /*   100 */ 180,181,182,183,184,185,124, 44, 37, 95,
              1007    1       /*   110 */  62, 63,186,187,188,189,190,191,192,193,
              1008    1       /*   120 */ 194, 96, 58, 35, 64, 39, 61, 34,195, 97,
              1009    1       /*   130 */  98, 99,100,101,102,103,104,105,196,197,
              1010    1       /*   140 */ 198,199,200,201,202,106,107,108,109,110,
              1011    1       /*   150 */ 111,112,113,114,203,204,205,206,207,208,
              1012    1       /*   160 */ 209,126,115,116,117,118,119,120,121,122,
              1013    1       /*   170 */ 210,211,212,213,214,215,216,217,218,219,
              1014    1       /*   180 */ 220,221,222,223,224,225,226,227,228,229,
              1015    1       /*   190 */ 230,231,123, 65, 66, 67, 68, 69, 70, 71,
              1016    1       /*   200 */  72, 73,232,233,234,235,236,237,125, 74,
              1017    1       /*   210 */  75, 76, 77, 78, 79, 80, 81, 82,238,239,
              1018    1       /*   220 */ 240,241,242,243, 92,159, 83, 84, 85, 86,
              1019    1       /*   230 */  87, 88, 89, 90,244,245,246,247,248,249,
              1020    1       /*   240 */  48, 49, 50, 51, 52, 53, 54, 55, 56, 57,
              1021    1       /*   250 */ 250,251,252,253,254,255,
              1022    1       /*     0 */   0,  1,  2,  3,156,  9,134,127,151,141,
              1023    1       /*    10 */ 142, 11, 12, 13, 14, 15, 16, 17, 18, 19,
              1024    1       /*    20 */ 157,133,  8,135, 24, 25,146,143, 28, 29,
PL6.E3A0      #001=B_TABLES_D File=B_TABLES_D.:E05TSI                            TUE 07/29/97 11:10 Page:22
              1025    1       /*    30 */  30, 31,128,129,130,131,132, 10, 23, 27,
              1026    1       /*    40 */ 136,137,138,139,140,  5,  6,  7,144,145,
              1027    1       /*    50 */  22,147,148,149,150,  4,152,153,154,155,
              1028    1       /*    60 */  20, 21,158, 26, 32,160,161,162,163,164,
              1029    1       /*    70 */ 165,166,167,168, 91, 46, 60, 40, 43, 93,
              1030    1       /*    80 */  38,169,170,171,172,173,174,175,176,177,
              1031    1       /*    90 */  33, 36, 42, 41, 59, 94, 45, 47,178,179,
              1032    1       /*   100 */ 180,181,182,183,184,185,124, 44, 37, 95,
              1033    1       /*   110 */  62, 63,186,187,188,189,190,191,192,193,
              1034    1       /*   120 */ 194, 96, 58, 35, 64, 39, 61, 34,195, 97,
              1035    1       /*   130 */  98, 99,100,101,102,103,104,105,196,197,
              1036    1       /*   140 */ 198,199,200,201,202,106,107,108,109,110,
              1037    1       /*   150 */ 111,112,113,114,203,204,205,206,207,208,
              1038    1       /*   160 */ 209,126,115,116,117,118,119,120,121,122,
              1039    1       /*   170 */ 210,211,212,213,214,215,216,217,218,219,
              1040    1       /*   180 */ 220,221,222,223,224,225,226,227,228,229,
              1041    1       /*   190 */ 230,231,123, 65, 66, 67, 68, 69, 70, 71,
              1042    1       /*   200 */  72, 73,232,233,234,235,236,237,125, 74,
              1043    1       /*   210 */  75, 76, 77, 78, 79, 80, 81, 82,238,239,
              1044    1       /*   220 */ 240,241,242,243, 92,159, 83, 84, 85, 86,
              1045    1       /*   230 */  87, 88, 89, 90,244,245,246,247,248,249,
              1046    1       /*   240 */  48, 49, 50, 51, 52, 53, 54, 55, 56, 57,
              1047    1       /*   250 */ 250,251,252,253,254,255 ),
              1049            %B_XL_LOWER;        /*   6  Translate upper to lower case       */
              1050    1     2 B_XL_LOWER( 0:127 ) BIT(36) INIT(
              1051    1       '000001002003'O,'004005006007'O,'010011012013'O,'014015016017'O,
              1052    1       '020021022023'O,'024025026027'O,'030031032033'O,'034035036037'O,
              1053    1       '040041042043'O,'044045046047'O,'050051052053'O,'054055056057'O,
              1054    1       '060061062063'O,'064065066067'O,'070071072073'O,'074075076077'O,
              1055    1       '100141142143'O,'144145146147'O,'150151152153'O,'154155156157'O,
              1056    1       '160161162163'O,'164165166167'O,'170171172133'O,'134135136137'O,
              1057    1       '140141142143'O,'144145146147'O,'150151152153'O,'154155156157'O,
              1058    1       '160161162163'O,'164165166167'O,'170171172173'O,'174175176177'O,
              1059    1       '200201202203'O,'204205206207'O,'210211212213'O,'214215216217'O,
              1060    1       '220221222223'O,'224225226227'O,'230231232233'O,'234235236237'O,
              1061    1       '240241242243'O,'244245246247'O,'250251252253'O,'254255256257'O,
              1062    1       '260261262263'O,'264265266267'O,'270271272273'O,'274275276277'O,
PL6.E3A0      #001=B_TABLES_D File=B_TABLES_D.:E05TSI                            TUE 07/29/97 11:10 Page:23
              1063    1       '300301302303'O,'304305306307'O,'310311312313'O,'314315316317'O,
              1064    1       '320321322323'O,'324325326327'O,'330331332333'O,'334335336337'O,
              1065    1       '340341342343'O,'344345346347'O,'350351352353'O,'354355356357'O,
              1066    1       '360361362363'O,'364365366367'O,'370371372373'O,'374375366377'O,
              1067    1       '400401402403'O,'404405406407'O,'410411412413'O,'414415416417'O,
              1068    1       '420421422423'O,'424425426427'O,'430431432433'O,'434435436437'O,
              1069    1       '440441442443'O,'444445446447'O,'450451452453'O,'454455456457'O,
              1070    1       '460461462463'O,'464465466467'O,'470471472473'O,'474475476477'O,
              1071    1       '500501502503'O,'504505506507'O,'510511512513'O,'514515516517'O,
              1072    1       '520521522523'O,'524525526527'O,'530531532533'O,'534535536537'O,
              1073    1       '540541542543'O,'544545546547'O,'550551552553'O,'554555556557'O,
              1074    1       '560561562563'O,'564565566567'O,'570571572573'O,'574575576577'O,
              1075    1       '600601602603'O,'604605606607'O,'610611612613'O,'614615616617'O,
              1076    1       '620621622623'O,'624625626627'O,'630631632633'O,'634635636637'O,
              1077    1       '640641642643'O,'644645646647'O,'650651652653'O,'654655656657'O,
              1078    1       '660661662663'O,'664665666667'O,'670671672673'O,'674675676677'O,
              1079    1       '700701702703'O,'704705706707'O,'710711712713'O,'714715716717'O,
              1080    1       '720721722723'O,'724725726727'O,'730731732733'O,'734735736737'O,
              1081    1       '740741742743'O,'744745746747'O,'750751752753'O,'754755756757'O,
              1082    1       '760761762763'O,'764765766767'O,'770771772773'O,'774775776777'O ),
              1084            %B_XL_UPPER;        /*   7  Translate lower to upper case       */
              1085    1     2 B_XL_UPPER( 0:127 ) BIT(36) INIT(
              1086    1       '000001002003'O,'004005006007'O,'010011012013'O,'014015016017'O,
              1087    1       '020021022023'O,'024025026027'O,'030031032033'O,'034035036037'O,
              1088    1       '040041042043'O,'044045046047'O,'050051052053'O,'054055056057'O,
              1089    1       '060061062063'O,'064065066067'O,'070071072073'O,'074075076077'O,
              1090    1       '100101102103'O,'104105106107'O,'110111112113'O,'114115116117'O,
              1091    1       '120121122123'O,'124125126127'O,'130131132133'O,'134135136137'O,
              1092    1       '140101102103'O,'104105106107'O,'110111112113'O,'114115116117'O,
              1093    1       '120121122123'O,'124125126127'O,'130131132173'O,'174175176177'O,
              1094    1       '200201202203'O,'204205206207'O,'210211212213'O,'214215216217'O,
              1095    1       '220221222223'O,'224225226227'O,'230231232233'O,'234235236237'O,
              1096    1       '240241242243'O,'244245246247'O,'250251252253'O,'254255256257'O,
              1097    1       '260261262263'O,'264265266267'O,'270271272273'O,'274275276277'O,
              1098    1       '300301302303'O,'304305306307'O,'310311312313'O,'314315316317'O,
              1099    1       '320321322323'O,'324325326327'O,'330331332333'O,'334335336337'O,
              1100    1       '340341342343'O,'344345346347'O,'350351352353'O,'354355356357'O,
PL6.E3A0      #001=B_TABLES_D File=B_TABLES_D.:E05TSI                            TUE 07/29/97 11:10 Page:24
              1101    1       '360361362363'O,'364365366367'O,'370371372373'O,'374375366377'O,
              1102    1       '400401402403'O,'404405406407'O,'410411412413'O,'414415416417'O,
              1103    1       '420421422423'O,'424425426427'O,'430431432433'O,'434435436437'O,
              1104    1       '440441442443'O,'444445446447'O,'450451452453'O,'454455456457'O,
              1105    1       '460461462463'O,'464465466467'O,'470471472473'O,'474475476477'O,
              1106    1       '500501502503'O,'504505506507'O,'510511512513'O,'514515516517'O,
              1107    1       '520521522523'O,'524525526527'O,'530531532533'O,'534535536537'O,
              1108    1       '540541542543'O,'544545546547'O,'550551552553'O,'554555556557'O,
              1109    1       '560561562563'O,'564565566567'O,'570571572573'O,'574575576577'O,
              1110    1       '600601602603'O,'604605606607'O,'610611612613'O,'614615616617'O,
              1111    1       '620621622623'O,'624625626627'O,'630631632633'O,'634635636637'O,
              1112    1       '640641642643'O,'644645646647'O,'650651652653'O,'654655656657'O,
              1113    1       '660661662663'O,'664665666667'O,'670671672673'O,'674675676677'O,
              1114    1       '700701702703'O,'704705706707'O,'710711712713'O,'714715716717'O,
              1115    1       '720721722723'O,'724725726727'O,'730731732733'O,'734735736737'O,
              1116    1       '740741742743'O,'744745746747'O,'750751752753'O,'754755756757'O,
              1117    1       '760761762763'O,'764765766767'O,'770771772773'O,'774775776777'O ),
              1119            %B_XL_UR;           /*   8  Translate to Unit Record char set   */
              1120    1     2 B_XL_UR( 0:511 ) CHAR(1) INIT(
              1121    1       ' '*9,BITASC('011'O),' '*22,
              1122    1       ' ','!','"','#','$','%','&','''','(',')','*','+',',','-','.','/',
              1123    1       '0','1','2','3','4','5','6','7','8','9',':',';','<','=','>','?',
              1124    1       '@','A','B','C','D','E','F','G','H','I','J','K','L','M','N','O',
              1125    1       'P','Q','R','S','T','U','V','W','X','Y','Z','[','\',']','^','_',
              1126    1       '`','a','b','c','d','e','f','g','h','i','j','k','l','m','n','o',
              1127    1       'p','q','r','s','t','u','v','w','x','y','z','{','|','}','~',' ',
              1128    1       ' '*9,BITASC('011'O),' '*22,
              1129    1       ' ','!','"','#','$','%','&','''','(',')','*','+',',','-','.','/',
              1130    1       '0','1','2','3','4','5','6','7','8','9',':',';','<','=','>','?',
              1131    1       '@','A','B','C','D','E','F','G','H','I','J','K','L','M','N','O',
              1132    1       'P','Q','R','S','T','U','V','W','X','Y','Z','[','\',']','^','_',
              1133    1       '`','a','b','c','d','e','f','g','h','i','j','k','l','m','n','o',
              1134    1       'p','q','r','s','t','u','v','w','x','y','z','{','|','}','~',' ',
              1135    1       ' '*9,BITASC('011'O),' '*22,
              1136    1       ' ','!','"','#','$','%','&','''','(',')','*','+',',','-','.','/',
              1137    1       '0','1','2','3','4','5','6','7','8','9',':',';','<','=','>','?',
              1138    1       '@','A','B','C','D','E','F','G','H','I','J','K','L','M','N','O',
PL6.E3A0      #001=B_TABLES_D File=B_TABLES_D.:E05TSI                            TUE 07/29/97 11:10 Page:25
              1139    1       'P','Q','R','S','T','U','V','W','X','Y','Z','[','\',']','^','_',
              1140    1       '`','a','b','c','d','e','f','g','h','i','j','k','l','m','n','o',
              1141    1       'p','q','r','s','t','u','v','w','x','y','z','{','|','}','~',' ',
              1142    1       ' '*9,BITASC('011'O),' '*22,
              1143    1       ' ','!','"','#','$','%','&','''','(',')','*','+',',','-','.','/',
              1144    1       '0','1','2','3','4','5','6','7','8','9',':',';','<','=','>','?',
              1145    1       '@','A','B','C','D','E','F','G','H','I','J','K','L','M','N','O',
              1146    1       'P','Q','R','S','T','U','V','W','X','Y','Z','[','\',']','^','_',
              1147    1       '`','a','b','c','d','e','f','g','h','i','j','k','l','m','n','o',
              1148    1       'p','q','r','s','t','u','v','w','x','y','z','{','|','}','~',' ' ),
              1150            %B_XL_UPPER_UR;     /*   9  Translate to uppercase UR char set  */
              1151    1     2 B_XL_UPPER_UR( 0:511 ) CHAR(1) INIT(
              1152    1       ' '*9,BITASC('011'O),' '*22,
              1153    1       ' ','!','"','#','$','%','&','''','(',')','*','+',',','-','.','/',
              1154    1       '0','1','2','3','4','5','6','7','8','9',':',';','<','=','>','?',
              1155    1       '@','A','B','C','D','E','F','G','H','I','J','K','L','M','N','O',
              1156    1       'P','Q','R','S','T','U','V','W','X','Y','Z','[','\',']','^','_',
              1157    1       '`','A','B','C','D','E','F','G','H','I','J','K','L','M','N','O',
              1158    1       'P','Q','R','S','T','U','V','W','X','Y','Z','{','|','}','~',' ',
              1159    1       ' '*9,BITASC('011'O),' '*22,
              1160    1       ' ','!','"','#','$','%','&','''','(',')','*','+',',','-','.','/',
              1161    1       '0','1','2','3','4','5','6','7','8','9',':',';','<','=','>','?',
              1162    1       '@','A','B','C','D','E','F','G','H','I','J','K','L','M','N','O',
              1163    1       'P','Q','R','S','T','U','V','W','X','Y','Z','[','\',']','^','_',
              1164    1       '`','A','B','C','D','E','F','G','H','I','J','K','L','M','N','O',
              1165    1       'P','Q','R','S','T','U','V','W','X','Y','Z','{','|','}','~',' ',
              1166    1       ' '*9,BITASC('011'O),' '*22,
              1167    1       ' ','!','"','#','$','%','&','''','(',')','*','+',',','-','.','/',
              1168    1       '0','1','2','3','4','5','6','7','8','9',':',';','<','=','>','?',
              1169    1       '@','A','B','C','D','E','F','G','H','I','J','K','L','M','N','O',
              1170    1       'P','Q','R','S','T','U','V','W','X','Y','Z','[','\',']','^','_',
              1171    1       '`','A','B','C','D','E','F','G','H','I','J','K','L','M','N','O',
              1172    1       'P','Q','R','S','T','U','V','W','X','Y','Z','{','|','}','~',' ',
              1173    1       ' '*9,BITASC('011'O),' '*22,
              1174    1       ' ','!','"','#','$','%','&','''','(',')','*','+',',','-','.','/',
              1175    1       '0','1','2','3','4','5','6','7','8','9',':',';','<','=','>','?',
              1176    1       '@','A','B','C','D','E','F','G','H','I','J','K','L','M','N','O',
PL6.E3A0      #001=B_TABLES_D File=B_TABLES_D.:E05TSI                            TUE 07/29/97 11:10 Page:26
              1177    1       'P','Q','R','S','T','U','V','W','X','Y','Z','[','\',']','^','_',
              1178    1       '`','A','B','C','D','E','F','G','H','I','J','K','L','M','N','O',
              1179    1       'P','Q','R','S','T','U','V','W','X','Y','Z','{','|','}','~',' ' ),
              1181            %B_XL_LOWER_UR;     /*  10  Translate to lowercase UR char set  */
              1182    1     2 B_XL_LOWER_UR( 0:511 ) CHAR(1) INIT(
              1183    1       ' '*9,BITASC('011'O),' '*22,
              1184    1       ' ','!','"','#','$','%','&','''','(',')','*','+',',','-','.','/',
              1185    1       '0','1','2','3','4','5','6','7','8','9',':',';','<','=','>','?',
              1186    1       '@','a','b','c','d','e','f','g','h','i','j','k','l','m','n','o',
              1187    1       'p','q','r','s','t','u','v','w','x','y','z','[','\',']','^','_',
              1188    1       '`','a','b','c','d','e','f','g','h','i','j','k','l','m','n','o',
              1189    1       'p','q','r','s','t','u','v','w','x','y','z','{','|','}','~',' ',
              1190    1       ' '*9,BITASC('011'O),' '*22,
              1191    1       ' ','!','"','#','$','%','&','''','(',')','*','+',',','-','.','/',
              1192    1       '0','1','2','3','4','5','6','7','8','9',':',';','<','=','>','?',
              1193    1       '@','a','b','c','d','e','f','g','h','i','j','k','l','m','n','o',
              1194    1       'p','q','r','s','t','u','v','w','x','y','z','[','\',']','^','_',
              1195    1       '`','a','b','c','d','e','f','g','h','i','j','k','l','m','n','o',
              1196    1       'p','q','r','s','t','u','v','w','x','y','z','{','|','}','~',' ',
              1197    1       ' '*9,BITASC('011'O),' '*22,
              1198    1       ' ','!','"','#','$','%','&','''','(',')','*','+',',','-','.','/',
              1199    1       '0','1','2','3','4','5','6','7','8','9',':',';','<','=','>','?',
              1200    1       '@','a','b','c','d','e','f','g','h','i','j','k','l','m','n','o',
              1201    1       'p','q','r','s','t','u','v','w','x','y','z','[','\',']','^','_',
              1202    1       '`','a','b','c','d','e','f','g','h','i','j','k','l','m','n','o',
              1203    1       'p','q','r','s','t','u','v','w','x','y','z','{','|','}','~',' ',
              1204    1       ' '*9,BITASC('011'O),' '*22,
              1205    1       ' ','!','"','#','$','%','&','''','(',')','*','+',',','-','.','/',
              1206    1       '0','1','2','3','4','5','6','7','8','9',':',';','<','=','>','?',
              1207    1       '@','a','b','c','d','e','f','g','h','i','j','k','l','m','n','o',
              1208    1       'p','q','r','s','t','u','v','w','x','y','z','[','\',']','^','_',
              1209    1       '`','a','b','c','d','e','f','g','h','i','j','k','l','m','n','o',
              1210    1       'p','q','r','s','t','u','v','w','x','y','z','{','|','}','~',' ' ),
              1212            %B_XL_MOD_256;      /*  11  Strip hi-order bit from each char   */
              1213    1     2 B_XL_MOD_256( 0:511 ) UBIN(9) CALIGNED INIT(
              1214    1       0,1,2,3,4,5,6,7,8,9,10,11,12,13,14,15,
              1215    1       16,17,18,19,20,21,22,23,24,25,26,27,28,29,30,
PL6.E3A0      #001=B_TABLES_D File=B_TABLES_D.:E05TSI                            TUE 07/29/97 11:10 Page:27
              1216    1       31,32,33,34,35,36,37,38,39,40,41,42,43,44,45,
              1217    1       46,47,48,49,50,51,52,53,54,55,56,57,58,59,60,
              1218    1       61,62,63,64,65,66,67,68,69,70,71,72,73,74,75,
              1219    1       76,77,78,79,80,81,82,83,84,85,86,87,88,89,90,
              1220    1       91,92,93,94,95,96,97,98,99,100,101,102,103,104,105,
              1221    1       106,107,108,109,110,111,112,113,114,115,116,117,118,119,120,
              1222    1       121,122,123,124,125,126,127,128,129,130,131,132,133,134,135,
              1223    1       136,137,138,139,140,141,142,143,144,145,146,147,148,149,150,
              1224    1       151,152,153,154,155,156,157,158,159,160,161,162,163,164,165,
              1225    1       166,167,168,169,170,171,172,173,174,175,176,177,178,179,180,
              1226    1       181,182,183,184,185,186,187,188,189,190,191,192,193,194,195,
              1227    1       196,197,198,199,200,201,202,203,204,205,206,207,208,209,210,
              1228    1       211,212,213,214,215,216,217,218,219,220,221,222,223,224,225,
              1229    1       226,227,228,229,230,231,232,233,234,235,236,237,238,239,240,
              1230    1       241,242,243,244,245,246,247,248,249,250,251,252,253,254,255,
              1231    1       0,1,2,3,4,5,6,7,8,9,10,11,12,13,14,15,
              1232    1       16,17,18,19,20,21,22,23,24,25,26,27,28,29,30,
              1233    1       31,32,33,34,35,36,37,38,39,40,41,42,43,44,45,
              1234    1       46,47,48,49,50,51,52,53,54,55,56,57,58,59,60,
              1235    1       61,62,63,64,65,66,67,68,69,70,71,72,73,74,75,
              1236    1       76,77,78,79,80,81,82,83,84,85,86,87,88,89,90,
              1237    1       91,92,93,94,95,96,97,98,99,100,101,102,103,104,105,
              1238    1       106,107,108,109,110,111,112,113,114,115,116,117,118,119,120,
              1239    1       121,122,123,124,125,126,127,128,129,130,131,132,133,134,135,
              1240    1       136,137,138,139,140,141,142,143,144,145,146,147,148,149,150,
              1241    1       151,152,153,154,155,156,157,158,159,160,161,162,163,164,165,
              1242    1       166,167,168,169,170,171,172,173,174,175,176,177,178,179,180,
              1243    1       181,182,183,184,185,186,187,188,189,190,191,192,193,194,195,
              1244    1       196,197,198,199,200,201,202,203,204,205,206,207,208,209,210,
              1245    1       211,212,213,214,215,216,217,218,219,220,221,222,223,224,225,
              1246    1       226,227,228,229,230,231,232,233,234,235,236,237,238,239,240,
              1247    1       241,242,243,244,245,246,247,248,249,250,251,252,253,254,255 ),
              1249            %B_XL_ASC_DUMP;     /*  12  Translate nonprintable ASCII to dot */
              1250    1     2 B_XL_ASC_DUMP( 0:15 ) CHAR(32) INIT(
              1251    1       '................................',
              1252    1       ' !"#$%&''()*+,-./0123456789:;<=>?',
              1253    1       '@ABCDEFGHIJKLMNOPQRSTUVWXYZ[\]^_',
PL6.E3A0      #001=B_TABLES_D File=B_TABLES_D.:E05TSI                            TUE 07/29/97 11:10 Page:28
              1254    1       '`abcdefghijklmnopqrstuvwxyz{|}~.',
              1255    1       '................................',
              1256    1       ' !"#$%&''()*+,-./0123456789:;<=>?',
              1257    1       '@ABCDEFGHIJKLMNOPQRSTUVWXYZ[\]^_',
              1258    1       '`abcdefghijklmnopqrstuvwxyz{|}~.',
              1259    1       '................................',
              1260    1       ' !"#$%&''()*+,-./0123456789:;<=>?',
              1261    1       '@ABCDEFGHIJKLMNOPQRSTUVWXYZ[\]^_',
              1262    1       '`abcdefghijklmnopqrstuvwxyz{|}~.',
              1263    1       '................................',
              1264    1       ' !"#$%&''()*+,-./0123456789:;<=>?',
              1265    1       '@ABCDEFGHIJKLMNOPQRSTUVWXYZ[\]^_',
              1266    1       '`abcdefghijklmnopqrstuvwxyz{|}~.' ),
              1268            %B_XL_EBC_DUMP;     /*  13  Translate nonprintable EBCDIC to dot*/
              1269    1     2 B_XL_EBC_DUMP( 0:31 ) CHAR(16) INIT(
              1270    1       '................', '................', /* 00 - 1F */
              1271    1       '................', '................', /* 20 - 3F */
              1272    1       ' .........`.<(+|', '&.........!$*);~', /* 40 - 5F */
              1273    1       '-/........^,%_>?','..........:#@''="', /* 60 - 7F */
              1274    1       '.abcdefghi......', '.jklmnopqr......', /* 80 - 9F */
              1275    1       '..stuvwxyz......', '.\{}[]..........', /* A0 - BF */
              1276    1       '{ABCDEFGHI......', '}JKLMNOPQR......', /* C0 - DF */
              1277    1       '..STUVWXYZ......', '0123456789......', /* E0 - FF */
              1278    1       '................', '................', /* 00 - 1F */
              1279    1       '................', '................', /* 20 - 3F */
              1280    1       ' .........`.<(+|', '&.........!$*);~', /* 40 - 5F */
              1281    1       '-/........^,%_>?','..........:#@''="', /* 60 - 7F */
              1282    1       '.abcdefghi......', '.jklmnopqr......', /* 80 - 9F */
              1283    1       '..stuvwxyz......', '.\{}[]..........', /* A0 - BF */
              1284    1       '{ABCDEFGHI......', '}JKLMNOPQR......', /* C0 - DF */
              1285    1       '..STUVWXYZ......', '0123456789......'  /* E0 - FF */ ),
              1287    1       2 * UBIN;
       24     1289
       25     1290    1   END B_TABLES_D;

PL6.E3A0      #001=B_TABLES_D File=B_TABLES_D.:E05TSI                            TUE 07/29/97 11:10 Page:29
--  Include file information  --

   B$TABLES_C.:E05TOU  cannot be made into a system file and is referenced.
   B_TABLES_C.:E05TOU  is referenced.
      No diagnostics issued in procedure B_TABLES_D.
PL6.E3A0      #001=B_TABLES_D File=B_TABLES_D.:E05TSI                            TUE 07/29/97 11:10 Page:30

 **** Variables and constants ****


   No code generated for procedure B_TABLES_D .
   Procedure B_TABLES_D requires 4 words of local(AUTO) storage.

    No errors detected in file B_TABLES_D.:E05TSI    .
PL6.E3A0      #001=B_TABLES_D File=B_TABLES_D.:E05TSI                            TUE 07/29/97 11:10 Page:31
          *** CROSS REFERENCE LISTING ***
**     DENOTES     IDENTIFIER DEFINITION
<<                 IDENTIFIER'S VALUE SET
>>                 IDENTIFIER'S VALUE USED
<>                 IDENTIFIER SET AND/OR USED
--                 IDENTIFIER REFERENCED
PL6.E3A0      #001=B_TABLES_D File=B_TABLES_D.:E05TSI                            TUE 07/29/97 11:10 Page:32
          MINI XREF LISTING

