VERSION E05

PL6.E3A0      #001=B_USERHJIT File=B_UHJIT_D.:E05TSI                             TUE 07/29/97 11:11 Page:1
        1        1        /*T***********************************************************/
        2        2        /*T*                                                         */
        3        3        /*T* Copyright (c) Bull HN Information Systems Inc., 1997    */
        4        4        /*T*                                                         */
        5        5        /*T***********************************************************/
        6        6        B_USERHJIT: PROC;
        7        7        /*M*  The initial user HJIT page.                               */
        8        8        %INCLUDE M_INFO_C;
        9      148        %INCLUDE B$JIT_C;
       10      462        %B$JIT0(STCLASS=BASED);
       11      551        %U$JIT1;
       12      625        %M$JIT2;
       13      635        %F$JIT3;
       14      640        %S$JIT4;
       15      646        %J$JIT5;
       16      734        %A$JIT6;
       17      744        %INCLUDE B_LSDATA_C;
       18     3950        /*%INCLUDE B_ULSMAC_C;*/                /* INCLUDEd by B_LSDATA_C             */
       19     3951        %INCLUDE B_UHJMAC_C;
       20     4280
       21     4281            %B_UHJIT (FPTN=B_UHJIT,STCLASS="STATIC SYMDEF");
       22     5252    1   END B_USERHJIT;

PL6.E3A0      #001=B_USERHJIT File=B_UHJIT_D.:E05TSI                             TUE 07/29/97 11:11 Page:2
--  Include file information  --

   B_UHJMAC_C.:E05TOU  is referenced.
   B_MLSMAC_C.:E05TOU  is referenced.
   B_ULSMAC_C.:E05TOU  is referenced.
   B_LSDATA_C.:E05TOU  cannot be made into a system file and is referenced.
   B$JIT_C.:E05TOU  is referenced.
   M_INFO_C.:E05TOU  is referenced.
      No diagnostics issued in procedure B_USERHJIT.

   No code generated for procedure B_USERHJIT .
   Procedure B_USERHJIT requires 4 words of local(AUTO) storage.

    No errors detected in file B_UHJIT_D.:E05TSI    .

PL6.E3A0      #001=B_USERHJIT File=B_UHJIT_D.:E05TSI                             TUE 07/29/97 11:11 Page:3

 Object Unit name= B_USERHJIT                                 File name= B_UHJIT_D.:E05TOU
 UTS= JUL 29 '97 11:11:14.72 TUE                              Compiler= PL-6/E31         Sev=      00
 SharedLib= :SHARED_SYSTEM                                    Alt SharedLib=


    ****  Control sections  ****

 Sect   Type Bound  Init  Size OctSiz  Section name(segment info)
    0   Data  even  none  1024   2000  B_USERHJIT
    1   Proc  even  none     0      0  B_USERHJIT

    ****  Entry defs  ****

                              Check   Calling
                             calling  sequence
  Sect OctLoc Primary Altret sequence   type   Parms  Name
     1      0   yes            yes     ~proc       0  B_USERHJIT

  ****  Data defs  ****

 Sect OctLoc  Name                           Sect OctLoc  Name
    0      0  B_UHJIT
PL6.E3A0      #001=B_USERHJIT File=B_UHJIT_D.:E05TSI                             TUE 07/29/97 11:11 Page:4

        1        1        /*T***********************************************************/
        2        2        /*T*                                                         */
        3        3        /*T* Copyright (c) Bull HN Information Systems Inc., 1997    */
        4        4        /*T*                                                         */
        5        5        /*T***********************************************************/
        6        6        B_USERHJIT: PROC;
        7        7        /*M*  The initial user HJIT page.                               */
        8        8        %INCLUDE M_INFO_C;
        9      148        %INCLUDE B$JIT_C;
       10      462        %B$JIT0(STCLASS=BASED);
       11      551        %U$JIT1;
       12      625        %M$JIT2;
       13      635        %F$JIT3;
       14      640        %S$JIT4;
       15      646        %J$JIT5;
       16      734        %A$JIT6;
       17      744        %INCLUDE B_LSDATA_C;
       18     3950        /*%INCLUDE B_ULSMAC_C;*/                /* INCLUDEd by B_LSDATA_C             */
       19     3951        %INCLUDE B_UHJMAC_C;
       20     4280
       21     4281            %B_UHJIT (FPTN=B_UHJIT,STCLASS="STATIC SYMDEF");
       22     5252    1   END B_USERHJIT;

PL6.E3A0      #001=B_USERHJIT File=B_UHJIT_D.:E05TSI                             TUE 07/29/97 11:11 Page:5
--  Include file information  --

   B_UHJMAC_C.:E05TOU  is referenced.
   B_MLSMAC_C.:E05TOU  is referenced.
   B_ULSMAC_C.:E05TOU  is referenced.
   B_LSDATA_C.:E05TOU  cannot be made into a system file and is referenced.
   B$JIT_C.:E05TOU  is referenced.
   M_INFO_C.:E05TOU  is referenced.
      No diagnostics issued in procedure B_USERHJIT.
PL6.E3A0      #001=B_USERHJIT File=B_UHJIT_D.:E05TSI                             TUE 07/29/97 11:11 Page:6

 **** Variables and constants ****

  ****  BASED and DCB variables  ****

  ****  Scalars and arrays  ****
OctLoc.c.b A Datatyp(siz) R M Lvl/name                 OctLoc.c.b A Datatyp(siz) R M Lvl/name

     0-0-0/d STRC(8856)  r     1 B$JIT                      0-0-0/d STRC(2592)  r     1 B$ULNK


   No code generated for procedure B_USERHJIT .
   Procedure B_USERHJIT requires 4 words of local(AUTO) storage.

    No errors detected in file B_UHJIT_D.:E05TSI    .
PL6.E3A0      #001=B_USERHJIT File=B_UHJIT_D.:E05TSI                             TUE 07/29/97 11:11 Page:7
          *** CROSS REFERENCE LISTING ***
**     DENOTES     IDENTIFIER DEFINITION
<<                 IDENTIFIER'S VALUE SET
>>                 IDENTIFIER'S VALUE USED
<>                 IDENTIFIER SET AND/OR USED
--                 IDENTIFIER REFERENCED
PL6.E3A0      #001=B_USERHJIT File=B_UHJIT_D.:E05TSI                             TUE 07/29/97 11:11 Page:8
          MINI XREF LISTING

B$JIT
       463**DCL      4320--DCLINIT  4519--DCLINIT  4695--DCLINIT  4871--DCLINIT
B$JIT.CPFLAGS1.SLEAZE
       562**DCL       562--REDEF
B$JIT.ERR.MID
       469**DCL       469--REDEF
B$JIT.JRESPEAK
       630**DCL       631--REDEF
B$JIT.ORIGINATOR_PORT.FROM_CR
       739**DCL       739--REDEF     740--REDEF
B$JIT.PNR
       643**DCL       643--REDEF
B$JIT.TSLINE
       737**DCL       738--REDEF
B$ULNK
      3635**DCL      5123--DCLINIT  5165--DCLINIT
