VERSION E05

PL6.E3A0      #001=B_POINTER File=B_USRPTRS_D.:E05TSI                            TUE 07/29/97 11:11 Page:1
        1        1        /*M*     B_USRPTRS_D Definitions for user Linkage Segment Pointers   */
        2        2        /*T***********************************************************/
        3        3        /*T*                                                         */
        4        4        /*T* Copyright (c) Bull HN Information Systems Inc., 1997    */
        5        5        /*T*                                                         */
        6        6        /*T***********************************************************/
        7        7        B_POINTER: PROC;
        8        8
        9        9        %INCLUDE B_MACROS_C;                    /* MACROS FOR GENERATING POINTERS     */
       10      120        %INCLUDE B_SEGIDS_C;                    /* SEGID DEFINITIONS FOR POINTERS     */
       11      659        %INCLUDE B_TABLES_C;                    /* OFFSETS FOR XLATE TABLE POINTERS   */
       12     1350
       13     1351        /* This module defines 'canned' pointers corresponding to all      */
       14     1352        /* user Linkage Segment descriptors (with the exception            */
       15     1353        /* of entry descriptors). The canned pointers are NSA pointers     */
       16     1354        /* which specify the appropriate SEGID's for the descriptors which */
       17     1355        /* they reference.                                                 */
       18     1356
       19     1357               %SEGPTR(NAME=B$IS$,D#=%ISSID);
       20     1362               %SEGPTR(NAME=B$BUFSEG$,D#=%BUFSID);
       21     1367               %SEGPTR(NAME=B$DS1$,D#=%DS1SID);
       22     1372               %SEGPTR(NAME=B$AUTO$,D#=%AUTOSID);
       23     1377               %SEGPTR(NAME=B$DS2$,D#=%DS2SID);
       24     1382               %SEGPTR(NAME=B$COMMON$,D#=%COMMONSID);
       25     1387               %SEGPTR(NAME=B$DS3$,D#=%DS3SID);
       26     1392               %SEGPTR(NAME=B$DS4$,D#=%DS4SID);
       27     1397               %SEGPTR(NAME=B$DS5$,D#=%DS5SID);
       28     1402               %SEGPTR(NAME=B$DS6$,D#=%DS6SID);
       29     1407               %SEGPTR(NAME=B$DS7$,D#=%DS7SID);
       30     1412               %SEGPTR(NAME=B$DS8$,D#=%DS8SID);
       31     1417               %SEGPTR(NAME=B$NULL$,D#=%NULLSID);
       32     1422               %SEGPTR(NAME=B$ECCB$,D#=%ECCBSID);
       33     1427               %SEGPTR(NAME=B$PIA$,D#=%PIASID);
       34     1432               %SEGPTR(NAME=B$SPCL1$,D#=%SPCL1SID);
       35     1437               %SEGPTR(NAME=B$SPCL2$,D#=%SPCL2SID);
       36     1442               %SEGPTR(NAME=B$SPCL3$,D#=%SPCL3SID);
       37     1447               %SEGPTR(NAME=B$SPCL4$,D#=%SPCL4SID);
PL6.E3A0      #001=B_POINTER File=B_USRPTRS_D.:E05TSI                            TUE 07/29/97 11:11 Page:2
       38     1452               %SEGPTR(NAME=B$SPCL5$,D#=%SPCL5SID);
       39     1457               %SEGPTR(NAME=B$SPCL6$,D#=%SPCL6SID);
       40     1462               %SEGPTR(NAME=B$SPCL7$,D#=%SPCL7SID);
       41     1467               %SEGPTR(NAME=B$SPCL8$,D#=%SPCL8SID);
       42     1472        /* Define pointers for the first 9 parameter stack descriptors:    */
       43     1473        %SEGPTR     (NAME=B$PS0$, D#='0000'O);
       44     1478        %SEGPTR     (NAME=B$PS1$, D#='0001'O);
       45     1483        %SEGPTR     (NAME=B$PS2$, D#='0002'O);
       46     1488        %SEGPTR     (NAME=B$PS3$, D#='0003'O);
       47     1493        %SEGPTR     (NAME=B$PS4$, D#='0004'O);
       48     1498        %SEGPTR     (NAME=B$PS5$, D#='0005'O);
       49     1503        %SEGPTR     (NAME=B$PS6$, D#='0006'O);
       50     1508        %SEGPTR     (NAME=B$PS7$, D#='0007'O);
       51     1513        %SEGPTR     (NAME=B$PS8$, D#='0010'O);
       52     1518        /* Define pointers for common XLATE and SEARCH tables:   */
       53     1519        %SEGPTR( NAME=B$SR_NON_BLANK$, D#=%XLATESID, DISP="%(B#SR_NON_BLANK*64)" );
       54     1524        %SEGPTR( NAME=B$SR_NON_ZERO$, D#=%XLATESID, DISP="%(B#SR_NON_ZERO*64)" );
       55     1529        %SEGPTR( NAME=B$SR_NON_DEC$, D#=%XLATESID, DISP="%(B#SR_NON_DEC*64)" );
       56     1534        %SEGPTR( NAME=B$SR_NON_ALPHA$, D#=%XLATESID, DISP="%(B#SR_NON_ALPHA*64)" );
       57     1539        %SEGPTR( NAME=B$XL_ASC_EBC$, D#=%XLATESID, DISP="%(B#XL_ASC_EBC*64)" );
       58     1544        %SEGPTR( NAME=B$XL_EBC_ASC$, D#=%XLATESID, DISP="%(B#XL_EBC_ASC*64)" );
       59     1549        %SEGPTR( NAME=B$XL_LOWER$, D#=%XLATESID, DISP="%(B#XL_LOWER*64)" );
       60     1554        %SEGPTR( NAME=B$XL_UPPER$, D#=%XLATESID, DISP="%(B#XL_UPPER*64)" );
       61     1559        %SEGPTR( NAME=B$XL_UR$, D#=%XLATESID, DISP="%(B#XL_UR*64)" );
       62     1564        %SEGPTR( NAME=B$XL_UPPER_UR$, D#=%XLATESID, DISP="%(B#XL_UPPER_UR*64)" );
       63     1569        %SEGPTR( NAME=B$XL_LOWER_UR$, D#=%XLATESID, DISP="%(B#XL_LOWER_UR*64)" );
       64     1574        %SEGPTR( NAME=B$XL_MOD_256$, D#=%XLATESID, DISP="%(B#XL_MOD_256*64)" );
       65     1579        %SEGPTR( NAME=B$XL_ASC_DUMP$, D#=%XLATESID, DISP="%(B#XL_ASC_DUMP*64)" );
       66     1584        %SEGPTR( NAME=B$XL_EBC_DUMP$, D#=%XLATESID, DISP="%(B#XL_EBC_DUMP*64)" );
       67     1589
       68     1590    1   END;

PL6.E3A0      #001=B_POINTER File=B_USRPTRS_D.:E05TSI                            TUE 07/29/97 11:11 Page:3
--  Include file information  --

   B_TABLES_C.:E05TOU  is referenced.
   B_SEGIDS_C.:E05TOU  is referenced.
   B_MACROS_C.:E05TOU  is referenced.
      No diagnostics issued in procedure B_POINTER.

   No code generated for procedure B_POINTER .
   Procedure B_POINTER requires 4 words of local(AUTO) storage.

    No errors detected in file B_USRPTRS_D.:E05TSI    .

PL6.E3A0      #001=B_POINTER File=B_USRPTRS_D.:E05TSI                            TUE 07/29/97 11:11 Page:4

 Object Unit name= B_POINTER                                  File name= B_USRPTRS_D.:E05TOU
 UTS= JUL 29 '97 11:11:55.84 TUE                              Compiler= PL-6/E31         Sev=      00
 SharedLib= :SHARED_SYSTEM                                    Alt SharedLib=


    ****  Control sections  ****

 Sect   Type Bound  Init  Size OctSiz  Section name(segment info)
    0  RoData even  UTS     46     56  B_POINTER
    1   Proc  even  none     0      0  B_POINTER

    ****  Entry defs  ****

                              Check   Calling
                             calling  sequence
  Sect OctLoc Primary Altret sequence   type   Parms  Name
     1      0   yes            yes     ~proc       0  B_POINTER

  ****  Data defs  ****

 Sect OctLoc  Name                           Sect OctLoc  Name
    0      0  B$IS$                              0      1  B$BUFSEG$
    0      2  B$DS1$                             0      3  B$AUTO$
    0      4  B$DS2$                             0      5  B$COMMON$
    0      6  B$DS3$                             0      7  B$DS4$
    0     10  B$DS5$                             0     11  B$DS6$
    0     12  B$DS7$                             0     13  B$DS8$
    0     14  B$NULL$                            0     15  B$ECCB$
    0     16  B$PIA$                             0     17  B$SPCL1$
    0     20  B$SPCL2$                           0     21  B$SPCL3$
    0     22  B$SPCL4$                           0     23  B$SPCL5$
    0     24  B$SPCL6$                           0     25  B$SPCL7$
    0     26  B$SPCL8$                           0     27  B$PS0$
    0     30  B$PS1$                             0     31  B$PS2$
    0     32  B$PS3$                             0     33  B$PS4$
    0     34  B$PS5$                             0     35  B$PS6$
    0     36  B$PS7$                             0     37  B$PS8$
PL6.E3A0      #001=B_POINTER File=B_USRPTRS_D.:E05TSI                            TUE 07/29/97 11:11 Page:5
    0     40  B$SR_NON_BLANK$                    0     41  B$SR_NON_ZERO$
    0     42  B$SR_NON_DEC$                      0     43  B$SR_NON_ALPHA$
    0     44  B$XL_ASC_EBC$                      0     45  B$XL_EBC_ASC$
    0     46  B$XL_LOWER$                        0     47  B$XL_UPPER$
    0     50  B$XL_UR$                           0     51  B$XL_UPPER_UR$
    0     52  B$XL_LOWER_UR$                     0     53  B$XL_MOD_256$
    0     54  B$XL_ASC_DUMP$                     0     55  B$XL_EBC_DUMP$
PL6.E3A0      #001=B_POINTER File=B_USRPTRS_D.:E05TSI                            TUE 07/29/97 11:11 Page:6

        1        1        /*M*     B_USRPTRS_D Definitions for user Linkage Segment Pointers   */
        2        2        /*T***********************************************************/
        3        3        /*T*                                                         */
        4        4        /*T* Copyright (c) Bull HN Information Systems Inc., 1997    */
        5        5        /*T*                                                         */
        6        6        /*T***********************************************************/
        7        7        B_POINTER: PROC;
        8        8
        9        9        %INCLUDE B_MACROS_C;                    /* MACROS FOR GENERATING POINTERS     */
       10      120        %INCLUDE B_SEGIDS_C;                    /* SEGID DEFINITIONS FOR POINTERS     */
       11      659        %INCLUDE B_TABLES_C;                    /* OFFSETS FOR XLATE TABLE POINTERS   */
       12     1350
       13     1351        /* This module defines 'canned' pointers corresponding to all      */
       14     1352        /* user Linkage Segment descriptors (with the exception            */
       15     1353        /* of entry descriptors). The canned pointers are NSA pointers     */
       16     1354        /* which specify the appropriate SEGID's for the descriptors which */
       17     1355        /* they reference.                                                 */
       18     1356
       19     1357               %SEGPTR(NAME=B$IS$,D#=%ISSID);
       20     1362               %SEGPTR(NAME=B$BUFSEG$,D#=%BUFSID);
       21     1367               %SEGPTR(NAME=B$DS1$,D#=%DS1SID);
       22     1372               %SEGPTR(NAME=B$AUTO$,D#=%AUTOSID);
       23     1377               %SEGPTR(NAME=B$DS2$,D#=%DS2SID);
       24     1382               %SEGPTR(NAME=B$COMMON$,D#=%COMMONSID);
       25     1387               %SEGPTR(NAME=B$DS3$,D#=%DS3SID);
       26     1392               %SEGPTR(NAME=B$DS4$,D#=%DS4SID);
       27     1397               %SEGPTR(NAME=B$DS5$,D#=%DS5SID);
       28     1402               %SEGPTR(NAME=B$DS6$,D#=%DS6SID);
       29     1407               %SEGPTR(NAME=B$DS7$,D#=%DS7SID);
       30     1412               %SEGPTR(NAME=B$DS8$,D#=%DS8SID);
       31     1417               %SEGPTR(NAME=B$NULL$,D#=%NULLSID);
       32     1422               %SEGPTR(NAME=B$ECCB$,D#=%ECCBSID);
       33     1427               %SEGPTR(NAME=B$PIA$,D#=%PIASID);
       34     1432               %SEGPTR(NAME=B$SPCL1$,D#=%SPCL1SID);
       35     1437               %SEGPTR(NAME=B$SPCL2$,D#=%SPCL2SID);
       36     1442               %SEGPTR(NAME=B$SPCL3$,D#=%SPCL3SID);
       37     1447               %SEGPTR(NAME=B$SPCL4$,D#=%SPCL4SID);
PL6.E3A0      #001=B_POINTER File=B_USRPTRS_D.:E05TSI                            TUE 07/29/97 11:11 Page:7
       38     1452               %SEGPTR(NAME=B$SPCL5$,D#=%SPCL5SID);
       39     1457               %SEGPTR(NAME=B$SPCL6$,D#=%SPCL6SID);
       40     1462               %SEGPTR(NAME=B$SPCL7$,D#=%SPCL7SID);
       41     1467               %SEGPTR(NAME=B$SPCL8$,D#=%SPCL8SID);
       42     1472        /* Define pointers for the first 9 parameter stack descriptors:    */
       43     1473        %SEGPTR     (NAME=B$PS0$, D#='0000'O);
       44     1478        %SEGPTR     (NAME=B$PS1$, D#='0001'O);
       45     1483        %SEGPTR     (NAME=B$PS2$, D#='0002'O);
       46     1488        %SEGPTR     (NAME=B$PS3$, D#='0003'O);
       47     1493        %SEGPTR     (NAME=B$PS4$, D#='0004'O);
       48     1498        %SEGPTR     (NAME=B$PS5$, D#='0005'O);
       49     1503        %SEGPTR     (NAME=B$PS6$, D#='0006'O);
       50     1508        %SEGPTR     (NAME=B$PS7$, D#='0007'O);
       51     1513        %SEGPTR     (NAME=B$PS8$, D#='0010'O);
       52     1518        /* Define pointers for common XLATE and SEARCH tables:   */
       53     1519        %SEGPTR( NAME=B$SR_NON_BLANK$, D#=%XLATESID, DISP="%(B#SR_NON_BLANK*64)" );
       54     1524        %SEGPTR( NAME=B$SR_NON_ZERO$, D#=%XLATESID, DISP="%(B#SR_NON_ZERO*64)" );
       55     1529        %SEGPTR( NAME=B$SR_NON_DEC$, D#=%XLATESID, DISP="%(B#SR_NON_DEC*64)" );
       56     1534        %SEGPTR( NAME=B$SR_NON_ALPHA$, D#=%XLATESID, DISP="%(B#SR_NON_ALPHA*64)" );
       57     1539        %SEGPTR( NAME=B$XL_ASC_EBC$, D#=%XLATESID, DISP="%(B#XL_ASC_EBC*64)" );
       58     1544        %SEGPTR( NAME=B$XL_EBC_ASC$, D#=%XLATESID, DISP="%(B#XL_EBC_ASC*64)" );
       59     1549        %SEGPTR( NAME=B$XL_LOWER$, D#=%XLATESID, DISP="%(B#XL_LOWER*64)" );
       60     1554        %SEGPTR( NAME=B$XL_UPPER$, D#=%XLATESID, DISP="%(B#XL_UPPER*64)" );
       61     1559        %SEGPTR( NAME=B$XL_UR$, D#=%XLATESID, DISP="%(B#XL_UR*64)" );
       62     1564        %SEGPTR( NAME=B$XL_UPPER_UR$, D#=%XLATESID, DISP="%(B#XL_UPPER_UR*64)" );
       63     1569        %SEGPTR( NAME=B$XL_LOWER_UR$, D#=%XLATESID, DISP="%(B#XL_LOWER_UR*64)" );
       64     1574        %SEGPTR( NAME=B$XL_MOD_256$, D#=%XLATESID, DISP="%(B#XL_MOD_256*64)" );
       65     1579        %SEGPTR( NAME=B$XL_ASC_DUMP$, D#=%XLATESID, DISP="%(B#XL_ASC_DUMP*64)" );
       66     1584        %SEGPTR( NAME=B$XL_EBC_DUMP$, D#=%XLATESID, DISP="%(B#XL_EBC_DUMP*64)" );
       67     1589
       68     1590    1   END;

PL6.E3A0      #001=B_POINTER File=B_USRPTRS_D.:E05TSI                            TUE 07/29/97 11:11 Page:8
--  Include file information  --

   B_TABLES_C.:E05TOU  is referenced.
   B_SEGIDS_C.:E05TOU  is referenced.
   B_MACROS_C.:E05TOU  is referenced.
      No diagnostics issued in procedure B_POINTER.
PL6.E3A0      #001=B_POINTER File=B_USRPTRS_D.:E05TSI                            TUE 07/29/97 11:11 Page:9

 **** Variables and constants ****


   No code generated for procedure B_POINTER .
   Procedure B_POINTER requires 4 words of local(AUTO) storage.

    No errors detected in file B_USRPTRS_D.:E05TSI    .
PL6.E3A0      #001=B_POINTER File=B_USRPTRS_D.:E05TSI                            TUE 07/29/97 11:11 Page:10
          *** CROSS REFERENCE LISTING ***
**     DENOTES     IDENTIFIER DEFINITION
<<                 IDENTIFIER'S VALUE SET
>>                 IDENTIFIER'S VALUE USED
<>                 IDENTIFIER SET AND/OR USED
--                 IDENTIFIER REFERENCED
PL6.E3A0      #001=B_POINTER File=B_USRPTRS_D.:E05TSI                            TUE 07/29/97 11:11 Page:11
          MINI XREF LISTING

