VERSION E05

PL6.E3A0      #001=B_DELTA_D File=B_XDELTA_D.:E05TSI                             TUE 07/29/97 11:12 Page:1
        1        1        /*M*  B_XDELTA_D - Based structures for XDELTA default searches */
        2        2        /*T***********************************************************/
        3        3        /*T*                                                         */
        4        4        /*T* Copyright (c) Bull HN Information Systems Inc., 1997    */
        5        5        /*T*                                                         */
        6        6        /*T***********************************************************/
        7        7        /**/
        8        8        /**/
        9        9        B_DELTA_D: PROC;
       10       10        /**/
       11       11        /**/
       12       12    1   DCL B$JIT$ PTR SYMREF;                  /* FOR B$JIT IMPLICIT POINTER         */
       13       13        %INCLUDE B$JIT;
       14      616        %INCLUDE F$DCB;
       15      665        %INCLUDE FM$MACROS;
       16     1040        %FM$CFU;
       17     1046        %FM$CFUA;
       18     1052        %FM$FIT;
       19     1055        %FM$GRAN;
       20     1059        %FM$SET;
       21     1064        %INCLUDE FM_CACHE_R;
       22     1076        %INCLUDE FM_CACHE_C;
       23     1142        %FMC$CACHE;
       24     1165        /**/
       25     1166        %INCLUDE B$USER;
       26     1382        %B$USERREFS;
       27     1386        %INCLUDE B$P;
       28     1470        /**/
       29     1471        %INCLUDE KI_MACROS_C;
       30     2079        %KI$FEI (STCLASS=BASED);
       31     2163        %KI$ROUTE (STCLASS=BASED);
       32     2217        %INCLUDE M_INFO_C;
       33     2357        %INCLUDE NK$LDCT;
       34     2459        %NK$LDCT;
       35     2505        %INCLUDE FR$RAT;
       36     2558        %FR$RAT;
       37     2598        /**/
PL6.E3A0      #001=B_DELTA_D File=B_XDELTA_D.:E05TSI                             TUE 07/29/97 11:12 Page:2
       38     2599        %INCLUDE KQ_MAC_C;
       39     5149        %INCLUDE KQ_SUBS_C;
       40     5449        %INCLUDE KC$CP6V_C;
       41     5569        %INCLUDE KC_CP6;
       42     6129        %INCLUDE KQM_MAC_C;
       43     6502        %KQ_ACB (FPTN=KQ$ACB,STCLASS=BASED);
       44     6532        %KQ_BAP (FPTN=KQ$BAP,STCLASS=BASED);
       45     6621        %KQ_DSB (FPTN=KQ$DSB,STCLASS=BASED);
       46     6664        %KQ_BTN (FPTN=KQ$BTN,STCLASS=BASED);
       47     6696        %KQ_CG  (FPTN=KQ$CG,STCLASS=BASED);
       48     7435        %KQ_DBLK (FPTN=KQ$DBLK,STCLASS=BASED);
       49     7488        %KQ_DGRAN(FPTN=KQ$DGRAN,STCLASS=BASED);
       50     7635        %KQ_MBLK (FPTN=KQ$MBLK,STCLASS=BASED);
       51     7905        %KQ_MBLK (FPTN=KQ$SMBLK,STCLASS=BASED,SUPR=1);
       52     8175        %KQ_MLH  (FPTN=KQ$MLH,STCLASS=BASED);
       53     8245        %KQ_MTYP (FPTN=KQ$MTYP,STCLASS=BASED);
       54     8319        %KQ_QTN  (FPTN=KQ$QTN,STCLASS=BASED);
       55     8792        %KQ_RBLK (FPTN=KQ$RBLK,STCLASS=BASED);
       56     8978        %KQ_RBLK (FPTN=KQ$TRBLK,STCLASS=BASED,TERM=1);
       57     9164        %KQ_STA  (FPTN=KQ$STA,STCLASS=BASED);
       58     9503        %KQ_THDR (FPTN=KQ$THDR,STCLASS=BASED);
       59     9541        %VLP_SETSTA (FPTN=VLP$SETSTA,STCLASS=BASED);
       60     9569        %VLP_STATION (FPTN=VLP$STATION,STCLASS=BASED);
       61     9596        %INCLUDE KQ_DATA_R;
       62    10428        /**/
       63    10429        %INCLUDE B$SS;
       64    10608        %INCLUDE UE_CP6;
       65    11299        %B$TCB;
       66    11302        %INCLUDE B$ROSEG;
       67    11365        /**/
       68    11366        %INCLUDE NI$TABLES;
       69    11582    1   DCL NI$CHT$ PTR SYMREF;
       70    11583        %NI$CHT;
       71    11586        %NI$DCT;
       72    11634        %NI$DQH;
       73    11657        %NI$REQ;
       74    11682        %NI$SQH;
PL6.E3A0      #001=B_DELTA_D File=B_XDELTA_D.:E05TSI                             TUE 07/29/97 11:12 Page:3
       75    11695        %INCLUDE N$REQ;
       76    11769        %N$REQ;
       77    11827        /**/
       78    11828        %INCLUDE IR_DATA_M;
       79    11992        %RV_BUFF (NAME=RV_BUFF, STCLASS=BASED);
       80    12028        /**/
       81    12029    1   DCL CHAR1(0:0) CHAR(1) BASED;
       82    12030    1   DCL CHAR2(0:0) CHAR(2) BASED;
       83    12031    1   DCL CHAR3(0:0) CHAR(3) BASED;
       84    12032    1   DCL CHAR4(0:0) CHAR(4) BASED;
       85    12033        /**/
       86    12034    1   END B_DELTA_D;

PL6.E3A0      #001=B_DELTA_D File=B_XDELTA_D.:E05TSI                             TUE 07/29/97 11:12 Page:4
--  Include file information  --

   IR_DATA_M.:E05TOU  is referenced.
   N$REQ.:E05TOU  is referenced.
   NI$TABLES.:E05TOU  is referenced.
   B$ROSEG.:E05TOU  cannot be made into a system file and is referenced.
   UE_CP6.:E05TOU  is referenced.
   B$SS.:E05TOU  cannot be made into a system file and is referenced.
   KQ_DATA_R.:E05TOU  cannot be made into a system file and is referenced.
   HF_DATA_R.:E05TOU  is referenced.
   KQM_MAC_C.:E05TOU  is referenced.
   KC_CP6.:E05TOU  is referenced.
   KC$CP6V_C.:E05TOU  is referenced.
   KQ_SUBS_C.:E05TOU  is referenced.
   KQ_MAC_C.:E05TOU  is referenced.
   FR$RAT.:E05TOU  is referenced.
   NK$LDCT.:E05TOU  is referenced.
   M_INFO_C.:E05TOU  is referenced.
   KI_MACROS_C.:E05TOU  is referenced.
   B$P.:E05TOU  cannot be made into a system file and is referenced.
   B$USER.:E05TOU  cannot be made into a system file and is referenced.
   FM_CACHE_C.:E05TOU  is referenced.
   FM_CACHE_R.:E05TOU  cannot be made into a system file and is referenced.
   FM$MACROS.:E05TOU  is referenced.
   F$DCB.:E05TOU  cannot be made into a system file and is referenced.
   B$JIT_C.:E05TOU  is referenced.
   B$JIT.:E05TOU  cannot be made into a system file and is referenced.
      No diagnostics issued in procedure B_DELTA_D.

   No code generated for procedure B_DELTA_D .
   Procedure B_DELTA_D requires 4 words of local(AUTO) storage.

    No errors detected in file B_XDELTA_D.:E05TSI    .

PL6.E3A0      #001=B_DELTA_D File=B_XDELTA_D.:E05TSI                             TUE 07/29/97 11:12 Page:5

 Object Unit name= B_DELTA_D                                  File name= B_XDELTA_D.:E05TOU
 UTS= JUL 29 '97 11:12:15.08 TUE                              Compiler= PL-6/E31         Sev=      00
 SharedLib= :SHARED_SYSTEM                                    Alt SharedLib=


    ****  Control sections  ****

 Sect   Type Bound  Init  Size OctSiz  Section name(segment info)
    0   Proc  even  none     0      0  B_DELTA_D

    ****  Entry defs  ****

                              Check   Calling
                             calling  sequence
  Sect OctLoc Primary Altret sequence   type   Parms  Name
     0      0   yes            yes     ~proc       0  B_DELTA_D

  ****  Data refs  ****

  Flags:  r = read only, s = secondary
Flgs Name                             Flgs Name                             Flgs Name
     B$JIT$                                FMC_CACHE$                            FMC_TYPTBL$
     FMC_STATS$                            FMC_CACHESIZ                          FMC_CACHESIZN
     FMC_CACHEPGCNT                        FMC_CACHEPGCNT$                       FMC_LOCK
     FMC_MASK                         r    FMC_MASKTBL                           S$CU$
     B$USRT$                               P_NPROCS                              P_MAXPROCS
     P_AUTO_START                          P_LAST_AUTO                           P_AUTOSPACE
     P_USED_AUTO                           P_MAX_LOOKUP                          B$P$
     B$LOOKUP$                             KQ_BASEDELAY                          KQ_CGLGATE
     KQ_DEBUG                              KQ_MONTIMR                            KQ_SQUEEZE
     KQ_CLKCNT                             KQ_XFGATE                             KQ_STATS
     KQ_LOGGATE                            KQ_LOG                                KQ_LOGCG
     KQ_LOGCNT                             KQ_LOGENT#                            KQ_HDLOG$
     KQ_CURLOG$                            KQ_LOGSTRT                            KQ_ERRLOG_GATE
     KQ_IRBLK                              KQ_IRBLKT                             KQ_IMTYP
     KQ_IMLH                               KQ_IMBLK                              NI$CHT$
PL6.E3A0      #001=B_DELTA_D File=B_XDELTA_D.:E05TSI                             TUE 07/29/97 11:12 Page:6

        1        1        /*M*  B_XDELTA_D - Based structures for XDELTA default searches */
        2        2        /*T***********************************************************/
        3        3        /*T*                                                         */
        4        4        /*T* Copyright (c) Bull HN Information Systems Inc., 1997    */
        5        5        /*T*                                                         */
        6        6        /*T***********************************************************/
        7        7        /**/
        8        8        /**/
        9        9        B_DELTA_D: PROC;
       10       10        /**/
       11       11        /**/
       12       12    1   DCL B$JIT$ PTR SYMREF;                  /* FOR B$JIT IMPLICIT POINTER         */
       13       13        %INCLUDE B$JIT;
       14      616        %INCLUDE F$DCB;
       15      665        %INCLUDE FM$MACROS;
       16     1040        %FM$CFU;
       17     1046        %FM$CFUA;
       18     1052        %FM$FIT;
       19     1055        %FM$GRAN;
       20     1059        %FM$SET;
       21     1064        %INCLUDE FM_CACHE_R;
       22     1076        %INCLUDE FM_CACHE_C;
       23     1142        %FMC$CACHE;
       24     1165        /**/
       25     1166        %INCLUDE B$USER;
       26     1382        %B$USERREFS;
       27     1386        %INCLUDE B$P;
       28     1470        /**/
       29     1471        %INCLUDE KI_MACROS_C;
       30     2079        %KI$FEI (STCLASS=BASED);
       31     2163        %KI$ROUTE (STCLASS=BASED);
       32     2217        %INCLUDE M_INFO_C;
       33     2357        %INCLUDE NK$LDCT;
       34     2459        %NK$LDCT;
       35     2505        %INCLUDE FR$RAT;
       36     2558        %FR$RAT;
       37     2598        /**/
PL6.E3A0      #001=B_DELTA_D File=B_XDELTA_D.:E05TSI                             TUE 07/29/97 11:12 Page:7
       38     2599        %INCLUDE KQ_MAC_C;
       39     5149        %INCLUDE KQ_SUBS_C;
       40     5449        %INCLUDE KC$CP6V_C;
       41     5569        %INCLUDE KC_CP6;
       42     6129        %INCLUDE KQM_MAC_C;
       43     6502        %KQ_ACB (FPTN=KQ$ACB,STCLASS=BASED);
       44     6532        %KQ_BAP (FPTN=KQ$BAP,STCLASS=BASED);
       45     6621        %KQ_DSB (FPTN=KQ$DSB,STCLASS=BASED);
       46     6664        %KQ_BTN (FPTN=KQ$BTN,STCLASS=BASED);
       47     6696        %KQ_CG  (FPTN=KQ$CG,STCLASS=BASED);
       48     7435        %KQ_DBLK (FPTN=KQ$DBLK,STCLASS=BASED);
       49     7488        %KQ_DGRAN(FPTN=KQ$DGRAN,STCLASS=BASED);
       50     7635        %KQ_MBLK (FPTN=KQ$MBLK,STCLASS=BASED);
       51     7905        %KQ_MBLK (FPTN=KQ$SMBLK,STCLASS=BASED,SUPR=1);
       52     8175        %KQ_MLH  (FPTN=KQ$MLH,STCLASS=BASED);
       53     8245        %KQ_MTYP (FPTN=KQ$MTYP,STCLASS=BASED);
       54     8319        %KQ_QTN  (FPTN=KQ$QTN,STCLASS=BASED);
       55     8792        %KQ_RBLK (FPTN=KQ$RBLK,STCLASS=BASED);
       56     8978        %KQ_RBLK (FPTN=KQ$TRBLK,STCLASS=BASED,TERM=1);
       57     9164        %KQ_STA  (FPTN=KQ$STA,STCLASS=BASED);
       58     9503        %KQ_THDR (FPTN=KQ$THDR,STCLASS=BASED);
       59     9541        %VLP_SETSTA (FPTN=VLP$SETSTA,STCLASS=BASED);
       60     9569        %VLP_STATION (FPTN=VLP$STATION,STCLASS=BASED);
       61     9596        %INCLUDE KQ_DATA_R;
       62    10428        /**/
       63    10429        %INCLUDE B$SS;
       64    10608        %INCLUDE UE_CP6;
       65    11299        %B$TCB;
       66    11302        %INCLUDE B$ROSEG;
       67    11365        /**/
       68    11366        %INCLUDE NI$TABLES;
       69    11582    1   DCL NI$CHT$ PTR SYMREF;
       70    11583        %NI$CHT;
       71    11586        %NI$DCT;
       72    11634        %NI$DQH;
       73    11657        %NI$REQ;
       74    11682        %NI$SQH;
PL6.E3A0      #001=B_DELTA_D File=B_XDELTA_D.:E05TSI                             TUE 07/29/97 11:12 Page:8
       75    11695        %INCLUDE N$REQ;
       76    11769        %N$REQ;
       77    11827        /**/
       78    11828        %INCLUDE IR_DATA_M;
       79    11992        %RV_BUFF (NAME=RV_BUFF, STCLASS=BASED);
       80    12028        /**/
       81    12029    1   DCL CHAR1(0:0) CHAR(1) BASED;
       82    12030    1   DCL CHAR2(0:0) CHAR(2) BASED;
       83    12031    1   DCL CHAR3(0:0) CHAR(3) BASED;
       84    12032    1   DCL CHAR4(0:0) CHAR(4) BASED;
       85    12033        /**/
       86    12034    1   END B_DELTA_D;

PL6.E3A0      #001=B_DELTA_D File=B_XDELTA_D.:E05TSI                             TUE 07/29/97 11:12 Page:9
--  Include file information  --

   IR_DATA_M.:E05TOU  is referenced.
   N$REQ.:E05TOU  is referenced.
   NI$TABLES.:E05TOU  is referenced.
   B$ROSEG.:E05TOU  cannot be made into a system file and is referenced.
   UE_CP6.:E05TOU  is referenced.
   B$SS.:E05TOU  cannot be made into a system file and is referenced.
   KQ_DATA_R.:E05TOU  cannot be made into a system file and is referenced.
   HF_DATA_R.:E05TOU  is referenced.
   KQM_MAC_C.:E05TOU  is referenced.
   KC_CP6.:E05TOU  is referenced.
   KC$CP6V_C.:E05TOU  is referenced.
   KQ_SUBS_C.:E05TOU  is referenced.
   KQ_MAC_C.:E05TOU  is referenced.
   FR$RAT.:E05TOU  is referenced.
   NK$LDCT.:E05TOU  is referenced.
   M_INFO_C.:E05TOU  is referenced.
   KI_MACROS_C.:E05TOU  is referenced.
   B$P.:E05TOU  cannot be made into a system file and is referenced.
   B$USER.:E05TOU  cannot be made into a system file and is referenced.
   FM_CACHE_C.:E05TOU  is referenced.
   FM_CACHE_R.:E05TOU  cannot be made into a system file and is referenced.
   FM$MACROS.:E05TOU  is referenced.
   F$DCB.:E05TOU  cannot be made into a system file and is referenced.
   B$JIT_C.:E05TOU  is referenced.
   B$JIT.:E05TOU  cannot be made into a system file and is referenced.
      No diagnostics issued in procedure B_DELTA_D.
PL6.E3A0      #001=B_DELTA_D File=B_XDELTA_D.:E05TSI                             TUE 07/29/97 11:12 Page:10

 **** Variables and constants ****

  ****  SYMREF variables  ****

  ****  Scalars and arrays  ****
OctLoc.c.b A Datatyp(siz) R M Lvl/name                 OctLoc.c.b A Datatyp(siz) R M Lvl/name

     0-0-0/w PTR         r     1 B$JIT$                     0-0-0/w PTR               1 B$LOOKUP$
     0-0-0/w PTR               1 B$P$                       0-0-0/w PTR               1 B$USRT$
     0-0-0/w PTR         r     1 FMC_CACHE$                 0-0-0/w SBIN              1 FMC_CACHEPGCNT
     0-0-0/w PTR         r     1 FMC_CACHEPGCNT$            0-0-0/w STRC              1 FMC_CACHEPGCNT$R
     0-0-0/w SBIN              1 FMC_CACHESIZ               0-0-0/w SBIN              1 FMC_CACHESIZN
     0-0-0/b BIT (72)          1 FMC_LOCK                   0-0-0/b BIT               1 FMC_MASK
     0-0-0/b BIT               1 FMC_MASKTBL(0:17)
     0-0-0/w PTR               1 FMC_STATS$                 0-0-0/w PTR               1 FMC_TYPTBL$
     0-0-0/w SBIN              1 KQ_BASEDELAY               0-0-0/w BIT (72)          1 KQ_CGLGATE
     0-0-0/w SBIN              1 KQ_CLKCNT                  0-0-0/w PTR               1 KQ_CURLOG$
     0-0-0/w UBIN              1 KQ_DEBUG                   0-0-0/b BIT (72)          1 KQ_ERRLOG_GATE
     0-0-0/w PTR               1 KQ_HDLOG$                  0-0-0/d STRC(576)         1 KQ_IMBLK
     0-0-0/w STRC(288)         1 KQ_IMLH                    0-0-0/d STRC(360)         1 KQ_IMTYP
     0-0-0/d STRC(648)         1 KQ_IRBLK                   0-0-0/d STRC(504)         1 KQ_IRBLKT
     0-0-0/b STRC              1 KQ_LOG                     0-0-0/w UBIN              1 KQ_LOGCG
     0-0-0/w SBIN              1 KQ_LOGCNT                  0-0-0/w UBIN              1 KQ_LOGENT#
     0-0-0/b BIT (72)          1 KQ_LOGGATE                 0-0-0/b BIT               1 KQ_LOGSTRT
     0-0-0/w UBIN              1 KQ_MONTIMR                 0-0-0/w SBIN              1 KQ_SQUEEZE
     0-0-0/w STRC(288)         1 KQ_STATS                   0-0-0/w BIT (72)          1 KQ_XFGATE
     0-0-0/w PTR         r     1 NI$CHT$                    0-0-0/w UBIN              1 P_AUTOSPACE
     0-0-0/w UBIN              1 P_AUTO_START               0-0-0/w UBIN              1 P_LAST_AUTO
     0-0-0/w UBIN              1 P_MAXPROCS                 0-0-0/w UBIN              1 P_MAX_LOOKUP
     0-0-0/w UBIN              1 P_NPROCS                   0-0-0/w UBIN              1 P_USED_AUTO
     0-0-0/w PTR               1 S$CU$

  ****  BASED and DCB variables  ****

  ****  Scalars and arrays  ****
OctLoc.c.b A Datatyp(siz) R M Lvl/name                 OctLoc.c.b A Datatyp(siz) R M Lvl/name

PL6.E3A0      #001=B_DELTA_D File=B_XDELTA_D.:E05TSI                             TUE 07/29/97 11:12 Page:11
     0-0-0/d STRC(396)         1 B$DO                       0-0-0/d STRC(432)         1 B$DOCONT
     0-0-0/d STRC(8856)        1 B$JIT
     0-0-0/w UBIN              1 B$LOOKUP(0:0)
     0-0-0/d STRC(1224)        1 B$P(0:0)                   0-0-0/w STRC(270)         1 B$PROCDS
     0-0-0/d STRC(72)          1 B$ROAVAIL
     0-0-0/w PTR               1 B$RODCB$(0:0)
     0-0-0/d STRC(3024)        1 B$ROSEG                    0-0-0/d STRC(2304)        1 B$SS
     0-0-0/w STRC(144)         1 B$TCB                      0-0-0/d STRC(576)         1 B$U
     0-0-0/w STRC(576)         1 B$USER(0:0)                0-0-0/c CHAR              1 CHAR1(0:0)
     0-0-0/c CHAR(2)           1 CHAR2(0:0)                 0-0-0/c CHAR(3)           1 CHAR3(0:0)
     0-0-0/c CHAR(4)           1 CHAR4(0:0)                 0-0-0/d ASTR(3528)  r     1 F$DCB
     0-0-0/w STRC(288)         1 FM$CFU                     0-0-0/w STRC(288)         1 FM$CFUA
     0-0-0/w STRC(1116)        1 FM$FIT                     0-0-0/w STRC(180)         1 FM$GRAN
     0-0-0/w STRC(288)         1 FM$SET(0:0)                0-0-0/w SBIN              1 FMC$CACHEPGCNT
     0-0-0/w STRC(216)         1 FMC$CACHETBL(0:0)
     0-0-0/w STRC(324)         1 FR$RAT                     0-0-0/w STRC(612)         1 KI$FEI
     0-0-0/w STRC(216)         1 KI$ROUTE                   0-0-0/d STRC(252)         1 KQ$ACB
     0-0-0/d STRC(432)         1 KQ$BAP                     0-0-0/w STRC(252)         1 KQ$BTN
     0-0-0/d STRC(6516)        1 KQ$CG                      0-0-0/d STRC(216)         1 KQ$DBLK
     0-0-0/d STRC(1152)        1 KQ$DGRAN                   0-0-0/d STRC(1944)        1 KQ$DSB
     0-0-0/d STRC(576)         1 KQ$MBLK                    0-0-0/w STRC(288)         1 KQ$MLH
     0-0-0/d STRC(360)         1 KQ$MTYP                    0-0-0/d STRC(1908)        1 KQ$QTN
     0-0-0/d STRC(648)         1 KQ$RBLK                    0-0-0/d STRC(576)         1 KQ$SMBLK
     0-0-0/d STRC(1296)        1 KQ$STA                     0-0-0/w STRC(216)         1 KQ$THDR
     0-0-0/d STRC(504)         1 KQ$TRBLK                   0-0-0/d STRC(1080)        1 N$REQ
     0-0-0/w STRC(72)          1 NI$CHT(0:127)              0-0-0/w STRC(1332)        1 NI$DCT
     0-0-0/w STRC(648)         1 NI$DQH                     0-0-0/d STRC(504)         1 NI$REQ
     0-0-0/w STRC(252)         1 NI$SQH                     0-0-0/d STRC(864)         1 NK$LDCT
     0-0-0/d STRC(36864)       1 RV_BUFF                    0-0-0/w STRC(432)         1 VLP$SETSTA
     0-0-0/w STRC(288)         1 VLP$STATION


   No code generated for procedure B_DELTA_D .
   Procedure B_DELTA_D requires 4 words of local(AUTO) storage.
PL6.E3A0      #001=B_DELTA_D File=B_XDELTA_D.:E05TSI                             TUE 07/29/97 11:12 Page:12

    No errors detected in file B_XDELTA_D.:E05TSI    .
PL6.E3A0      #001=B_DELTA_D File=B_XDELTA_D.:E05TSI                             TUE 07/29/97 11:12 Page:13
          *** CROSS REFERENCE LISTING ***
**     DENOTES     IDENTIFIER DEFINITION
<<                 IDENTIFIER'S VALUE SET
>>                 IDENTIFIER'S VALUE USED
<>                 IDENTIFIER SET AND/OR USED
--                 IDENTIFIER REFERENCED
PL6.E3A0      #001=B_DELTA_D File=B_XDELTA_D.:E05TSI                             TUE 07/29/97 11:12 Page:14
          MINI XREF LISTING

B$DO.ECCINFO
      1317**DCL      1318--REDEF
B$JIT.CPFLAGS1.SLEAZE
       434**DCL       434--REDEF
B$JIT.ERR.MID
       341**DCL       341--REDEF
B$JIT.JRESPEAK
       502**DCL       503--REDEF
B$JIT.ORIGINATOR_PORT.FROM_CR
       611**DCL       611--REDEF     612--REDEF
B$JIT.PNR
       515**DCL       515--REDEF
B$JIT.TSLINE
       609**DCL       610--REDEF
B$JIT$
        12**DCL       335--IMP-PTR
B$SS.RVA
     10481**DCL     10482--REDEF
B$U.MISC
      1296**DCL      1297--REDEF
B$USER.MISC
      1372**DCL      1373--REDEF
F$DCB.ACTPOS
       642**DCL       642--REDEF
F$DCB.ARS
       617**DCL       617--REDEF
F$DCB.ATTR
       635**DCL       636--REDEF
F$DCB.BORROW
       650**DCL       650--REDEF     650--REDEF     650--REDEF
F$DCB.DCBNAME.L
       664**DCL       664--IMP-SIZ
PL6.E3A0      #001=B_DELTA_D File=B_XDELTA_D.:E05TSI                             TUE 07/29/97 11:12 Page:15
F$DCB.EOMCHAR
       621**DCL       621--REDEF
F$DCB.FLDID
       645**DCL       645--REDEF
F$DCB.FORM$
       639**DCL       639--REDEF
F$DCB.FSECT
       655**DCL       655--REDEF
F$DCB.FSN
       632**DCL       632--REDEF     632--REDEF     633--REDEF
F$DCB.HEADER$
       638**DCL       638--REDEF
F$DCB.IXTNSIZE
       636**DCL       636--REDEF
F$DCB.LASTSTA$
       626**DCL       626--REDEF
F$DCB.LVL
       651**DCL       651--REDEF
F$DCB.NAME.C
       626**DCL       626--REDEF
F$DCB.NOEOF
       647**DCL       647--REDEF
F$DCB.NRECS
       637**DCL       637--REDEF
F$DCB.NRECX
       656**DCL       656--REDEF
F$DCB.OHDR
       648**DCL       648--REDEF
F$DCB.ORG
       631**DCL       631--REDEF
F$DCB.PRECNO
       654**DCL       654--REDEF
F$DCB.RCSZ
       659**DCL       659--REDEF
F$DCB.RES
       627**DCL       627--REDEF
PL6.E3A0      #001=B_DELTA_D File=B_XDELTA_D.:E05TSI                             TUE 07/29/97 11:12 Page:16
F$DCB.SETX
       639**DCL       639--REDEF
F$DCB.TAB$
       638**DCL       639--REDEF
F$DCB.TDA
       653**DCL       653--REDEF
F$DCB.WSN
       628**DCL       628--REDEF
FM$CFU.ACCTX
      1042**DCL      1042--REDEF
FM$SET.USERLIST
      1061**DCL      1061--REDEF
FMC_CACHE$
      1072**DCL      1144--IMP-PTR
FMC_CACHEPGCNT$
      1073**DCL      1073--IMP-PTR  1073--REDEF
KI$FEI.BD$
      2127**DCL      2128--REDEF
KI$FEI.BDAD.WADDR
      2129**DCL      2130--REDEF
KI$FEI.RCVPB
      2143**DCL      2144--REDEF
KQ$CG.AUCTL.DVBYTE.REREAD
      7154**DCL      7155--REDEF
KQ$DSB.ASR
      6636**DCL      6645--REDEF
KQ$DSB.DESC.FLG
      6656**DCL      6657--REDEF
KQ$MBLK.DVE.EOMCHAR
      7750**DCL      7752--REDEF
KQ$MBLK.KEY1
      7676**DCL      7678--REDEF
KQ$MBLK.KEY2
      7685**DCL      7703--REDEF
KQ$MBLK.LNK$
      7650**DCL      7652--REDEF    7658--REDEF    7662--REDEF
PL6.E3A0      #001=B_DELTA_D File=B_XDELTA_D.:E05TSI                             TUE 07/29/97 11:12 Page:17
KQ$MBLK.TYC
      7799**DCL      7801--REDEF
KQ$MBLK.XSP.MREQ$
      7705**DCL      7709--REDEF
KQ$QTN.MXACT
      8678**DCL      8680--REDEF
KQ$QTN.STA.ACTTYC
      8400**DCL      8404--REDEF
KQ$QTN.STA.DCBLNK$
      8407**DCL      8410--REDEF    8414--REDEF
KQ$QTN.STA.EVCNT
      8493**DCL      8496--REDEF
KQ$QTN.STA.EVNT
      8459**DCL      8463--REDEF    8466--REDEF
KQ$QTN.STA.OPNBLKED
      8520**DCL      8523--REDEF
KQ$QTN.STA.OPNREJ
      8526**DCL      8528--REDEF
KQ$QTN.STA.SUCCREAD
      8449**DCL      8453--REDEF
KQ$QTN.STA.TCOUNT
      8578**DCL      8584--REDEF
KQ$QTN.STA.VGOT$
      8563**DCL      8567--REDEF    8571--REDEF
KQ$RBLK.BUF$
      8927**DCL      8929--REDEF
KQ$RBLK.CNACTD
      8841**DCL      8850--REDEF
KQ$RBLK.DBLKX
      8947**DCL      8951--REDEF
KQ$RBLK.EOFNONE
      8819**DCL      8822--REDEF
KQ$RBLK.FROMQ
      8825**DCL      8828--REDEF
KQ$RBLK.KEY1R
      8866**DCL      8867--REDEF
PL6.E3A0      #001=B_DELTA_D File=B_XDELTA_D.:E05TSI                             TUE 07/29/97 11:12 Page:18
KQ$RBLK.KEY2R
      8871**DCL      8872--REDEF
KQ$RBLK.LATCH
      8814**DCL      8816--REDEF
KQ$RBLK.LWRITES$
      8958**DCL      8962--REDEF
KQ$SMBLK.KEY1
      7946**DCL      7948--REDEF
KQ$SMBLK.KEY2
      7955**DCL      7973--REDEF
KQ$SMBLK.LNK$
      7920**DCL      7922--REDEF    7928--REDEF    7932--REDEF
KQ$SMBLK.STA$
      8140**DCL      8143--REDEF    8147--REDEF
KQ$SMBLK.USR
      8111**DCL      8116--REDEF
KQ$SMBLK.XSP.MREQ$
      7975**DCL      7979--REDEF
KQ$STA.ACTTYC
      9230**DCL      9234--REDEF
KQ$STA.DCBLNK$
      9237**DCL      9240--REDEF    9244--REDEF
KQ$STA.EVCNT
      9323**DCL      9326--REDEF
KQ$STA.EVNT
      9289**DCL      9293--REDEF    9296--REDEF
KQ$STA.OPNBLKED
      9350**DCL      9353--REDEF
KQ$STA.OPNREJ
      9356**DCL      9358--REDEF
KQ$STA.SUCCREAD
      9279**DCL      9283--REDEF
KQ$STA.TCOUNT
      9408**DCL      9414--REDEF
KQ$STA.VGOT$
      9393**DCL      9397--REDEF    9401--REDEF
PL6.E3A0      #001=B_DELTA_D File=B_XDELTA_D.:E05TSI                             TUE 07/29/97 11:12 Page:19
KQ$TRBLK.CNACTD
      9027**DCL      9036--REDEF
KQ$TRBLK.DBLK$
      9090**DCL      9094--REDEF    9097--REDEF
KQ$TRBLK.EOFNONE
      9005**DCL      9008--REDEF
KQ$TRBLK.FROMQ
      9011**DCL      9014--REDEF
KQ$TRBLK.KEY1R
      9052**DCL      9053--REDEF
KQ$TRBLK.KEY2R
      9057**DCL      9058--REDEF
KQ$TRBLK.LATCH
      9000**DCL      9002--REDEF
KQ_IMBLK.DVE.EOMCHAR
     10270**DCL     10272--REDEF
KQ_IMBLK.KEY1
     10196**DCL     10198--REDEF
KQ_IMBLK.KEY2
     10205**DCL     10223--REDEF
KQ_IMBLK.LNK$
     10170**DCL     10172--REDEF   10178--REDEF   10182--REDEF
KQ_IMBLK.TYC
     10319**DCL     10321--REDEF
KQ_IMBLK.XSP.MREQ$
     10225**DCL     10229--REDEF
KQ_IRBLK.BUF$
      9774**DCL      9776--REDEF
KQ_IRBLK.CNACTD
      9688**DCL      9697--REDEF
KQ_IRBLK.DBLKX
      9794**DCL      9798--REDEF
KQ_IRBLK.EOFNONE
      9666**DCL      9669--REDEF
KQ_IRBLK.FROMQ
      9672**DCL      9675--REDEF
PL6.E3A0      #001=B_DELTA_D File=B_XDELTA_D.:E05TSI                             TUE 07/29/97 11:12 Page:20
KQ_IRBLK.KEY1R
      9713**DCL      9714--REDEF
KQ_IRBLK.KEY2R
      9718**DCL      9719--REDEF
KQ_IRBLK.LATCH
      9661**DCL      9663--REDEF
KQ_IRBLK.LWRITES$
      9805**DCL      9809--REDEF
KQ_IRBLKT.CNACTD
      9874**DCL      9883--REDEF
KQ_IRBLKT.DBLK$
      9937**DCL      9941--REDEF    9944--REDEF
KQ_IRBLKT.EOFNONE
      9852**DCL      9855--REDEF
KQ_IRBLKT.FROMQ
      9858**DCL      9861--REDEF
KQ_IRBLKT.KEY1R
      9899**DCL      9900--REDEF
KQ_IRBLKT.KEY2R
      9904**DCL      9905--REDEF
KQ_IRBLKT.LATCH
      9847**DCL      9849--REDEF
N$REQ.BUFADDR
     11787**DCL     11788--REDEF   11788--REDEF
N$REQ.DLA.DRELADDR
     11779**DCL     11779--REDEF
N$REQ.DVE.EOMCHAR
     11816**DCL     11817--REDEF
N$REQ.EAINFO
     11810**DCL     11810--REDEF
N$REQ.EAINFOX
     11810**DCL     11811--REDEF
N$REQ.EVNTINFO
     11811**DCL     11811--REDEF
N$REQ.STATUS
     11792**DCL     11798--REDEF
PL6.E3A0      #001=B_DELTA_D File=B_XDELTA_D.:E05TSI                             TUE 07/29/97 11:12 Page:21
NI$CHT$
     11582**DCL     11584--IMP-PTR
NI$DCT.DP
     11615**DCL     11622--REDEF   11625--REDEF   11626--REDEF   11628--REDEF   11628--REDEF   11629--REDEF
     11630--REDEF   11630--REDEF
NI$DCT.MPC.IOCHANX
     11623**DCL     11623--REDEF
NI$DQH.IOCHANX
     11645**DCL     11646--REDEF
NI$DQH.MBX$
     11654**DCL     11655--REDEF
NI$REQ.DCW
     11668**DCL     11671--REDEF
NI$REQ.DCW.TALLY
     11669**DCL     11669--REDEF
NI$REQ.IDCW.EXTA
     11671**DCL     11671--REDEF
NI$REQ.PCW
     11673**DCL     11677--REDEF
NI$REQ.SEEK
     11678**DCL     11679--REDEF   11680--REDEF
NI$SQH.DOOR
     11691**DCL     11691--REDEF
NK$LDCT.DDT$
      2474**DCL      2474--REDEF
NK$LDCT.IOQ$
      2473**DCL      2474--REDEF
NK$LDCT.LDCTX
      2475**DCL      2475--REDEF
NK$LDCT.LKFLG.ABORTED
      2487**DCL      2488--REDEF
NK$LDCT.RLCID.LDCTX
      2497**DCL      2497--REDEF
NK$LDCT.STA$
      2493**DCL      2494--REDEF
NK$LDCT.SYMB$
PL6.E3A0      #001=B_DELTA_D File=B_XDELTA_D.:E05TSI                             TUE 07/29/97 11:12 Page:22
      2472**DCL      2472--REDEF    2472--REDEF    2473--REDEF
VLP$STATION.MSGIDXT
      9591**DCL      9594--REDEF
