VERSION E05

PL6.E3A0      #001=CPC$EXIT File=CPC$EXIT.:E05TSI                                TUE 07/29/97 11:23 Page:1
        1        1        /*M*    CPC$EXIT    Single point to issue all M$CPEXITs from IBEX             */
        2        2        /*T***********************************************************/
        3        3        /*T*                                                         */
        4        4        /*T* Copyright (c) Bull HN Information Systems Inc., 1997    */
        5        5        /*T*                                                         */
        6        6        /*T***********************************************************/
        7        7        /*X*  DMC,DFC   */
        8        8        CPC$EXIT:
        9        9                PROC  ALTRET;
       10       10          /***** Include files *****/
       11       11                %INCLUDE B$JIT;
       12      301                %INCLUDE CP_6;
       13      382                %INCLUDE CP_MACROS_C;
       14     1134                %INCLUDE CP_PERR_C;
       15     1472                %INCLUDE CP_SUBS_C;
       16     2389                %INCLUDE XU_MACRO_C;
       17     5495                %INCLUDE CP_DATA_R;
       18     8058          /***** External routines *****/
       19     8059    1   DCL     CPC$GETDCB     ENTRY(2);
       20     8060    1   DCL     CPC$RELDCB     ENTRY(1);
       21     8061          /***** Based structures *****/
       22     8062        %SEG$2;
       23     8122        %B$TCB (STCLASS="BASED(B$TCB$)");
       24     8125        %B$EXCFR;
       25     8143          /***** Fpts *****/
       26     8144        %FPT_CPEXIT (FPTN=FPT$CPEXIT,STCLASS=BASED);
       27     8170        %EJECT;
PL6.E3A0      #001=CPC$EXIT File=CPC$EXIT.:E05TSI                                TUE 07/29/97 11:23 Page:2
       28     8171    1           CALL CPC$RELDCB (M$IBEX_NUM);
       29     8172    1           CALL CPC$RELDCB (M$IBEX1_NUM);
       30     8173    1           CALL CPC$RELDCB (M$IBEX2_NUM);
       31     8174        /*
       32     8175             ***** If we have M$LL and we own it
       33     8176                   release it before exiting ...
       34     8177        */
       35     8178    1           IF SEG$2.LLDCB# ~= 0
       36     8179    1           AND SEG$2.FLAGS.IBEX_OWNS_M$LL
       37     8180    1           AND SEG$2.LLDCB# ~= M$UC_NUM
       38     8181    1           AND SEG$2.LLDCB# ~= M$IBEX2_NUM
       39     8182    1              THEN
       40     8183    2                 DO;   /* Release M$LL */
       41     8184    2                    CALL CPC$RELDCB (M$LL_NUM);
       42     8185    2                 END;
       43     8186        /**/
       44     8187    1           CALL M$CPEXIT(SEG$2.FPT_CPEXIT$->FPT$CPEXIT) ALTRET(E_M$CPEXIT);
       45     8188    1   E_M$CPEXIT:
       46     8189    1           B$JIT.USRERR = B$TCB.ALT$ -> B$EXCFR.ERR;
       47     8190    1           CALL CPC$GETDCB (M$IBEX_NUM, IBEXTXTC);
       48     8191    1           CALL CPC$GETDCB (M$IBEX1_NUM, IBEX1TXTC);
       49     8192    1           ALTRETURN;
       50     8193    1   END     CPC$EXIT;

PL6.E3A0      #001=CPC$EXIT File=CPC$EXIT.:E05TSI                                TUE 07/29/97 11:23 Page:3
--  Include file information  --

   CP_DATA_R.:E05TOU  cannot be made into a system file and is referenced.
   XU_MACRO_C.:E05TOU  is referenced.
   CP_SUBS_C.:E05TOU  is referenced.
   CP_PERR_C.:E05TOU  is referenced.
   CP_MACROS_C.:E05TOU  is referenced.
   CP_6.:E05TOU  cannot be made into a system file and is referenced.
   B$JIT.:E05TOU  cannot be made into a system file and is referenced.
   B$JIT_C.:E05TOU  was found in the system file and is referenced.
   CP_6_C.:E05TOU  was found in the system file and is referenced.
      No diagnostics issued in procedure CPC$EXIT.

   Procedure CPC$EXIT requires 50 words for executable code.
   Procedure CPC$EXIT requires 4 words of local(AUTO) storage.

    No errors detected in file CPC$EXIT.:E05TSI    .

PL6.E3A0      #001=CPC$EXIT File=CPC$EXIT.:E05TSI                                TUE 07/29/97 11:23 Page:4

 Object Unit name= CPC$EXIT                                   File name= CPC$EXIT.:E05TOU
 UTS= JUL 29 '97 11:23:28.08 TUE                              Compiler= PL-6/E31         Sev=      00
 SharedLib= :SHARED_SYSTEM                                    Alt SharedLib=


    ****  Control sections  ****

 Sect   Type Bound  Init  Size OctSiz  Section name(segment info)
    0   DCB   even  none     0      0  M$UC
    1   Proc  even  none    50     62  CPC$EXIT
    2  RoData even  none     8     10  CPC$EXIT

    ****  Entry defs  ****

                              Check   Calling
                             calling  sequence
  Sect OctLoc Primary Altret sequence   type   Parms  Name
     1      0   yes    yes     yes      Std        0  CPC$EXIT

  ****  Entry refs  ****

         Check        Calling
        calling       sequence
Altret sequence SRef   type   Args  Name
         yes           Std       1 CPC$RELDCB
         yes           Std       2 CPC$GETDCB
                       nStd      0 X66_AUTO_0
                       Std       0 B_CONSPOOL_D
                       nStd      0 X66_AALT
PL6.E3A0      #001=CPC$EXIT File=CPC$EXIT.:E05TSI                                TUE 07/29/97 11:23 Page:5

  ****  Data refs  ****

  Flags:  r = read only, s = secondary
Flgs Name                             Flgs Name                             Flgs Name
     M$UC                             r    SEG2$                            r    B$JIT$
r    B$TCB$                                M$UC_NUM                              M$IBEX_NUM
     M$IBEX1_NUM                           M$IBEX2_NUM                           M$LL_NUM
     IBEXTXTC                              IBEX1TXTC                             B_VECTNIL

  ****  Segment refs  ****

  Flags:  r = read only, s = secondary
Flgs Name                             Flgs Name                             Flgs Name
     ISSID
PL6.E3A0      #001=CPC$EXIT File=CPC$EXIT.:E05TSI                                TUE 07/29/97 11:23 Page:6


        1        1        /*M*    CPC$EXIT    Single point to issue all M$CPEXITs from IBEX             */
        2        2        /*T***********************************************************/
        3        3        /*T*                                                         */
        4        4        /*T* Copyright (c) Bull HN Information Systems Inc., 1997    */
        5        5        /*T*                                                         */
        6        6        /*T***********************************************************/
        7        7        /*X*  DMC,DFC   */
        8        8        CPC$EXIT:
        9        9                PROC  ALTRET;

      9  1 000000   000000 700200 xent  CPC$EXIT     TSX0  ! X66_AUTO_0
         1 000001   000004 000000                    ZERO    4,0

       10       10          /***** Include files *****/
       11       11                %INCLUDE B$JIT;
       12      301                %INCLUDE CP_6;
       13      382                %INCLUDE CP_MACROS_C;
       14     1134                %INCLUDE CP_PERR_C;
       15     1472                %INCLUDE CP_SUBS_C;
       16     2389                %INCLUDE XU_MACRO_C;
       17     5495                %INCLUDE CP_DATA_R;
       18     8058          /***** External routines *****/
       19     8059    1   DCL     CPC$GETDCB     ENTRY(2);
       20     8060    1   DCL     CPC$RELDCB     ENTRY(1);
       21     8061          /***** Based structures *****/
       22     8062        %SEG$2;
       23     8122        %B$TCB (STCLASS="BASED(B$TCB$)");
       24     8125        %B$EXCFR;
       25     8143          /***** Fpts *****/
       26     8144        %FPT_CPEXIT (FPTN=FPT$CPEXIT,STCLASS=BASED);
       27     8170        %EJECT;
PL6.E3A0      #001=CPC$EXIT File=CPC$EXIT.:E05TSI                                TUE 07/29/97 11:23 Page:7
       28     8171    1           CALL CPC$RELDCB (M$IBEX_NUM);

   8171  1 000002   000000 630400 2                  EPPR0   0
         1 000003   000017 631400 xsym               EPPR1   B_VECTNIL+15
         1 000004   000000 701000 xent               TSX1    CPC$RELDCB
         1 000005   000000 011000                    NOP     0

       29     8172    1           CALL CPC$RELDCB (M$IBEX1_NUM);

   8172  1 000006   000001 630400 2                  EPPR0   1
         1 000007   000017 631400 xsym               EPPR1   B_VECTNIL+15
         1 000010   000000 701000 xent               TSX1    CPC$RELDCB
         1 000011   000000 011000                    NOP     0

       30     8173    1           CALL CPC$RELDCB (M$IBEX2_NUM);

   8173  1 000012   000002 630400 2                  EPPR0   2
         1 000013   000017 631400 xsym               EPPR1   B_VECTNIL+15
         1 000014   000000 701000 xent               TSX1    CPC$RELDCB
         1 000015   000000 011000                    NOP     0

       31     8174        /*
       32     8175             ***** If we have M$LL and we own it
       33     8176                   release it before exiting ...
       34     8177        */
       35     8178    1           IF SEG$2.LLDCB# ~= 0

   8178  1 000016   000000 470400 xsym               LDP0    SEG2$
         1 000017   000000 720100                    LXL0    0,,PR0
         1 000020   000036 600000 1                  TZE     s:8187
         1 000021   000000 236100                    LDQ     0,,PR0
         1 000022   000004 316003                    CANQ    4,DU
         1 000023   000036 600000 1                  TZE     s:8187
         1 000024   000000 236100                    LDQ     0,,PR0
         1 000025   777777 376007                    ANQ     -1,DL
         1 000026   000000 116000 xsym               CMPQ    M$UC_NUM
         1 000027   000036 600000 1                  TZE     s:8187
PL6.E3A0      #001=CPC$EXIT File=CPC$EXIT.:E05TSI                                TUE 07/29/97 11:23 Page:8
         1 000030   000000 116000 xsym               CMPQ    M$IBEX2_NUM
         1 000031   000036 600000 1                  TZE     s:8187

       36     8179    1           AND SEG$2.FLAGS.IBEX_OWNS_M$LL
       37     8180    1           AND SEG$2.LLDCB# ~= M$UC_NUM
       38     8181    1           AND SEG$2.LLDCB# ~= M$IBEX2_NUM
       39     8182    1              THEN
       40     8183    2                 DO;   /* Release M$LL */

       41     8184    2                    CALL CPC$RELDCB (M$LL_NUM);

   8184  1 000032   000003 630400 2                  EPPR0   3
         1 000033   000017 631400 xsym               EPPR1   B_VECTNIL+15
         1 000034   000000 701000 xent               TSX1    CPC$RELDCB
         1 000035   000000 011000                    NOP     0

       42     8185    2                 END;

       43     8186        /**/
       44     8187    1           CALL M$CPEXIT(SEG$2.FPT_CPEXIT$->FPT$CPEXIT) ALTRET(E_M$CPEXIT);

   8187  1 000036   000000 470400 xsym               LDP0    SEG2$
         1 000037   000166 471500                    LDP1    118,,PR0
         1 000040   100000 630500                    EPPR0   0,,PR1
         1 000041   400012 713400                    CLIMB   alt,+10
         1 000042   402400 401760                    pmme    nvectors=6
         1 000043   000044 702000 1                  TSX2    E_M$CPEXIT

       45     8188    1   E_M$CPEXIT:
       46     8189    1           B$JIT.USRERR = B$TCB.ALT$ -> B$EXCFR.ERR;

   8189  1 000044   000000 470400 xsym  E_M$CPEXIT   LDP0    B$TCB$
         1 000045   000000 471500                    LDP1    0,,PR0
         1 000046   100102 236100                    LDQ     66,,PR1
         1 000047   000000 473400 xsym               LDP3    B$JIT$
         1 000050   300144 756100                    STQ     100,,PR3

PL6.E3A0      #001=CPC$EXIT File=CPC$EXIT.:E05TSI                                TUE 07/29/97 11:23 Page:9
       47     8190    1           CALL CPC$GETDCB (M$IBEX_NUM, IBEXTXTC);

   8190  1 000051   000004 630400 2                  EPPR0   4
         1 000052   000020 631400 xsym               EPPR1   B_VECTNIL+16
         1 000053   000000 701000 xent               TSX1    CPC$GETDCB
         1 000054   000000 011000                    NOP     0

       48     8191    1           CALL CPC$GETDCB (M$IBEX1_NUM, IBEX1TXTC);

   8191  1 000055   000006 630400 2                  EPPR0   6
         1 000056   000020 631400 xsym               EPPR1   B_VECTNIL+16
         1 000057   000000 701000 xent               TSX1    CPC$GETDCB
         1 000060   000000 011000                    NOP     0

       49     8192    1           ALTRETURN;

   8192  1 000061   000000 702200 xent               TSX2  ! X66_AALT
       50     8193    1   END     CPC$EXIT;

PL6.E3A0      #001=CPC$EXIT File=CPC$EXIT.:E05TSI                                TUE 07/29/97 11:23 Page:10
--  Include file information  --

   CP_DATA_R.:E05TOU  cannot be made into a system file and is referenced.
   XU_MACRO_C.:E05TOU  is referenced.
   CP_SUBS_C.:E05TOU  is referenced.
   CP_PERR_C.:E05TOU  is referenced.
   CP_MACROS_C.:E05TOU  is referenced.
   CP_6.:E05TOU  cannot be made into a system file and is referenced.
   B$JIT.:E05TOU  cannot be made into a system file and is referenced.
   B$JIT_C.:E05TOU  was found in the system file and is referenced.
   CP_6_C.:E05TOU  was found in the system file and is referenced.
      No diagnostics issued in procedure CPC$EXIT.
PL6.E3A0      #001=CPC$EXIT File=CPC$EXIT.:E05TSI                                TUE 07/29/97 11:23 Page:11

 **** Variables and constants ****

  ****  SYMREF variables  ****

  ****  Scalars and arrays  ****
OctLoc.c.b A Datatyp(siz) R M Lvl/name                 OctLoc.c.b A Datatyp(siz) R M Lvl/name

     0-0-0/w PTR         r     1 B$JIT$                     0-0-0/w PTR         r     1 B$TCB$
     0-0-0/d STRC(72)    r     1 IBEX1TXTC                  0-0-0/d STRC(63)    r     1 IBEXTXTC
     0-0-0/w UBIN        r     1 M$IBEX1_NUM                0-0-0/w UBIN        r     1 M$IBEX2_NUM
     0-0-0/w UBIN        r     1 M$IBEX_NUM                 0-0-0/w UBIN        r     1 M$LL_NUM
     0-0-0/w UBIN        r     1 M$UC_NUM                   0-0-0/w PTR         r     1 SEG2$

  ****  BASED and DCB variables  ****

  ****  Scalars and arrays  ****
OctLoc.c.b A Datatyp(siz) R M Lvl/name                 OctLoc.c.b A Datatyp(siz) R M Lvl/name

     0-0-0/w STRC(2448)  r     1 B$EXCFR                    0-0-0/d STRC(8856)  r     1 B$JIT
     0-0-0/w STRC(144)   r     1 B$TCB                      0-0-0/d STRC(504)   r     1 FPT$CPEXIT
     0-0-0/w STRC(6264)  r     1 SEG$2


   Procedure CPC$EXIT requires 50 words for executable code.
   Procedure CPC$EXIT requires 4 words of local(AUTO) storage.

    No errors detected in file CPC$EXIT.:E05TSI    .
PL6.E3A0      #001=CPC$EXIT File=CPC$EXIT.:E05TSI                                TUE 07/29/97 11:23 Page:12
          *** CROSS REFERENCE LISTING ***
**     DENOTES     IDENTIFIER DEFINITION
<<                 IDENTIFIER'S VALUE SET
>>                 IDENTIFIER'S VALUE USED
<>                 IDENTIFIER SET AND/OR USED
--                 IDENTIFIER REFERENCED
PL6.E3A0      #001=CPC$EXIT File=CPC$EXIT.:E05TSI                                TUE 07/29/97 11:23 Page:13
          MINI XREF LISTING

B$EXCFR.ASL
      8126**DCL      8126--REDEF
B$EXCFR.ERR
      8140**DCL      8189>>ASSIGN
B$EXCFR.ERR.ERR#
      8140**DCL      8140--REDEF
B$EXCFR.EVID
      8139**DCL      8139--REDEF    8140--REDEF
B$EXCFR.IR
      8127**DCL      8127--REDEF
B$EXCFR.PREVSZ
      8126**DCL      8126--REDEF
B$EXCFR.SUBC
      8138**DCL      8138--REDEF    8139--REDEF    8139--REDEF
B$JIT.CPFLAGS1.SLEAZE
       119**DCL       119--REDEF
B$JIT.ERR.MID
        26**DCL        26--REDEF
B$JIT.JRESPEAK
       187**DCL       188--REDEF
B$JIT.ORIGINATOR_PORT.FROM_CR
       296**DCL       296--REDEF     297--REDEF
B$JIT.PNR
       200**DCL       200--REDEF
B$JIT.TSLINE
       294**DCL       295--REDEF
B$JIT.USRERR
       161**DCL      8189<<ASSIGN
B$JIT$
      7991**DCL        20--IMP-PTR  8189>>ASSIGN
B$TCB.ALT$
      8123**DCL      8189>>ASSIGN
PL6.E3A0      #001=CPC$EXIT File=CPC$EXIT.:E05TSI                                TUE 07/29/97 11:23 Page:14
B$TCB$
      7993**DCL      8123--IMP-PTR  8189>>ASSIGN
CAMR_REC.ACSVEH_
      7030**DCL      7031--REDEF
CAMR_REC.ALTKEYS_
      7036**DCL      7037--REDEF    7037--REDEF
CAMR_REC.HDR_
      7035**DCL      7036--REDEF
CAMR_REC.TAB_
      7034**DCL      7035--REDEF
CAMR_REC.UHL_
      7028**DCL      7029--REDEF    7029--REDEF
CAMR_REC.V.FSN#
      7068**DCL      7068--REDEF    7068--REDEF
CAMR_REC.WSN_
      7034**DCL      7034--REDEF
CFPT_CLOSE.SN_
      5872**DCL      5872--REDEF
CFPT_CLOSE.UTL_
      5873**DCL      5873--REDEF
CFPT_CLOSE.V.EXPIRE#
      5887**DCL      5887--REDEF
CFPT_CLOSE.V.TYPE#
      5885**DCL      5885--REDEF
CFPT_CLOSE.V.XTNSIZE#
      5882**DCL      5882--REDEF    5884--REDEF
CFPT_OPEN.ACSVEH_
      5807**DCL      5808--REDEF
CFPT_OPEN.ALTKEYS_
      5813**DCL      5814--REDEF    5814--REDEF
CFPT_OPEN.HDR_
      5812**DCL      5813--REDEF
CFPT_OPEN.TAB_
      5811**DCL      5812--REDEF
CFPT_OPEN.UHL_
      5805**DCL      5806--REDEF    5806--REDEF
PL6.E3A0      #001=CPC$EXIT File=CPC$EXIT.:E05TSI                                TUE 07/29/97 11:23 Page:15
CFPT_OPEN.V.FSN#
      5845**DCL      5845--REDEF    5845--REDEF
CFPT_OPEN.WSN_
      5811**DCL      5811--REDEF
CFPT_READ.STATION_
      5911**DCL      5912--REDEF
CFPT_READ.V.DVBYTE.REREAD#
      5923**DCL      5923--REDEF
CFPT_READ.V.INDX#
      5921**DCL      5921--REDEF
CFPT_READUC.STATION_
      6281**DCL      6282--REDEF
CFPT_READUC.V.DVBYTE.REREAD#
      6293**DCL      6293--REDEF
CFPT_READUC.V.INDX#
      6291**DCL      6291--REDEF
CFPT_TRTN.V.IR#
      6517**DCL      6518--REDEF
CFPT_WRITE.STATION_
      5949**DCL      5949--REDEF
CFPT_WRITE.V.DVBYTE.VFC#
      5956**DCL      5956--REDEF
CFPT_WRITEUC.STATION_
      6249**DCL      6249--REDEF
CFPT_WRITEUC.V.DVBYTE.VFC#
      6256**DCL      6256--REDEF
CFPT_XXX.V.STEPCC#
      7229**DCL      7229--REDEF
CGETCMD.OUT$
      7250**DCL      7256--REDEF
CPC$GETDCB
      8059**DCL-ENT  8190--CALL     8191--CALL
CPC$RELDCB
      8060**DCL-ENT  8171--CALL     8172--CALL     8173--CALL     8184--CALL
CVLP_TRMCTL.BREAKCOUNT
      6841**DCL      6842--REDEF
PL6.E3A0      #001=CPC$EXIT File=CPC$EXIT.:E05TSI                                TUE 07/29/97 11:23 Page:16
CVLP_WINDOW.FWINDOW#
      6937**DCL      6937--REDEF    6938--REDEF
E_M$CPEXIT
      8189**LABEL    8187--CALLALT
FPT$CPEXIT
      8157**DCL      8187<>CALL
IBEX1TXTC
      8003**DCL      8191<>CALL
IBEXTXTC
      8000**DCL      8190<>CALL
M$CPEXIT
       324**DCL-ENT  8187--CALL
M$IBEX1_NUM
      7997**DCL      8172<>CALL     8191<>CALL
M$IBEX2_NUM
      7998**DCL      8173<>CALL     8178>>IF
M$IBEX_NUM
      7996**DCL      8171<>CALL     8190<>CALL
M$LL_NUM
      7999**DCL      8184<>CALL
M$UC_NUM
      7994**DCL      8178>>IF
SEG$2.FLAGS.IBEX_OWNS_M$LL
      8080**DCL      8178>>IF
SEG$2.FPT_CPEXIT$
      8104**DCL      8187>>CALL
SEG$2.LLDCB#
      8083**DCL      8178>>IF       8178>>IF       8178>>IF
SEG2$
      7984**DCL      8063--IMP-PTR  8178>>IF       8178>>IF       8178>>IF       8178>>IF       8187>>CALL
