VERSION E05

PL6.E3A0      #001=CPD$SET_NODES File=CPD$SETUP_NODES.:E05TSI                    TUE 07/29/97 11:33 Page:1
        1        1        /*M*          CPD$SET_NODES  Sets the pointer to the nodes for the parse.  */
        2        2        /*T***********************************************************/
        3        3        /*T*                                                         */
        4        4        /*T* Copyright (c) Bull HN Information Systems Inc., 1997    */
        5        5        /*T*                                                         */
        6        6        /*T***********************************************************/
        7        7        /*X*  DMC,DFC   */
        8        8        /**/
        9        9        /*P*          NAME:    CPD$SET_NODES
       10       10                      PURPOSE:    This routine is called following gross identification
       11       11                               of an IBEX command; its function is to set the
       12       12                               nodes pointer, pointer to special routine to
       13       13                               handle syntax checking and flag on call to GETCMD.
       14       14        */
       15       15        CPD$SET_NODES:
       16       16                PROC(PCB, NODES$, SPCL$$, CALL_FLG) ;
       17       17        %EJECT;
PL6.E3A0      #001=CPD$SET_NODES File=CPD$SETUP_NODES.:E05TSI                    TUE 07/29/97 11:33 Page:2
       18       18                %INCLUDE CP_MACROS_C;
       19      770                %INCLUDE CP_SUBS_C;
       20     1687                %INCLUDE XU_MACRO_C;
       21     4793        /*
       22     4794            ***       PARAMETER
       23     4795        */
       24     4796            %P_PCB (NAME=PCB, STCLASS=PARAM);
       25     4995    1       DCL NODES$ PTR ;
       26     4996    1       DCL CALL_FLG BIT(1) ALIGNED;
       27     4997    1       DCL SPCL$$ EPTR ;
       28     4998        /*
       29     4999            ***       nodes references
       30     5000        */
       31     5001    1   DCL     ACCEPT_     BIT(36)      SYMREF;
       32     5002    1   DCL     ACQUIRE_    BIT(36)      SYMREF;
       33     5003    1   DCL     ATITLE_     BIT(36)      SYMREF;
       34     5004    1   DCL     BACKUP_     BIT(36)      SYMREF;
       35     5005    1   DCL     BATCH_      BIT(36)      SYMREF;
       36     5006    1   DCL     BYE_        BIT(36)      SYMREF;
       37     5007    1   DCL     CANCEL_     BIT(36)      SYMREF;
       38     5008    1   DCL     CHECK_      BIT(36)      SYMREF;
       39     5009    1   DCL     COMMENT_    BIT(36)      SYMREF;
       40     5010    1   DCL     CPSL_NODES  BIT(36)      SYMREF;
       41     5011    1   DCL     DEFAULT_    BIT(36)      SYMREF;
       42     5012    1   DCL     DIRECTORY_  BIT(36)      SYMREF;
       43     5013    1   DCL     DISPLAY_    BIT(36)      SYMREF;
       44     5014    1   DCL     DONT_       BIT(36)      SYMREF;
       45     5015    1   DCL     DRIBBLE_    BIT(36)      SYMREF;
       46     5016    1   DCL     ECHO_       BIT(36)      SYMREF;
       47     5017    1   DCL     EJECT_      BIT(36)      SYMREF;
       48     5018    1   DCL     EXPOUND_    BIT(36)      SYMREF;
       49     5019    1   DCL     GET_        BIT(36)      SYMREF;
       50     5020    1   DCL     GLOBAL_     BIT(36)      SYMREF;
       51     5021    1   DCL     GOTO_       BIT(36)      SYMREF;
       52     5022    1   DCL     HELP_       BIT(36)      SYMREF;
       53     5023    1   DCL     IF_         BIT(36)      SYMREF;
       54     5024    1   DCL     INCLUDE_    BIT(36)      SYMREF;
PL6.E3A0      #001=CPD$SET_NODES File=CPD$SETUP_NODES.:E05TSI                    TUE 07/29/97 11:33 Page:3
       55     5025    1   DCL     JOB_        BIT(36)      SYMREF;
       56     5026    1   DCL     LET_        BIT(36)      SYMREF;
       57     5027    1   DCL     LIMIT_      BIT(36)      SYMREF;
       58     5028    1   DCL     LIST_       BIT(36)      SYMREF;
       59     5029    1   DCL     MESSAGE_    BIT(36)      SYMREF;
       60     5030    1   DCL     NOTIFY_     BIT(36)      SYMREF;
       61     5031    1   DCL     ORES_       BIT(36)      SYMREF;
       62     5032    1   DCL     OUTPUT_     BIT(36)      SYMREF;
       63     5033    1   DCL     PASSWORD_   BIT(36)      SYMREF;
       64     5034    1   DCL     PLATEN_     BIT(36)      SYMREF;
       65     5035    1   DCL     POINT_      BIT(36)      SYMREF;
       66     5036    1   DCL     POSITION_   BIT(36)      SYMREF;
       67     5037    1   DCL     PRIORITY_   BIT(36)      SYMREF;
       68     5038    1   DCL     PRIV_       BIT(36)      SYMREF;
       69     5039    1   DCL     RELEASE_    BIT(36)      SYMREF;
       70     5040    1   DCL     PROFILE_    BIT(36)      SYMREF;
       71     5041    1   DCL     PROTECT_    BIT(36)      SYMREF;
       72     5042    1   DCL     PROMPT_     BIT(36)      SYMREF;
       73     5043    1   DCL     REPORT_     BIT(36)      SYMREF;
       74     5044    1   DCL     RESOURCE_   BIT(36)      SYMREF;
       75     5045    1   DCL     RU_         BIT(36)      SYMREF;
       76     5046    1   DCL     SAVE_       BIT(36)      SYMREF;
       77     5047    1   DCL     SETUP_      BIT(36)      SYMREF;
       78     5048    1   DCL     START_      BIT(36)      SYMREF;
       79     5049    1   DCL     STATUS_     BIT(36)      SYMREF;
       80     5050    1   DCL     SWITCH_     BIT(36)      SYMREF;
       81     5051    1   DCL     TABS_       BIT(36)      SYMREF;
       82     5052    1   DCL     TIME_       BIT(36)      SYMREF;
       83     5053    1   DCL     TITLE_      BIT(36)      SYMREF;
       84     5054    1   DCL     UNDER_      BIT(36)      SYMREF;
       85     5055    1   DCL     WHEN_       BIT(36)      SYMREF;
       86     5056    1   DCL     XEQ_        BIT(36)      SYMREF;
       87     5057    1   DCL     XMIT_       BIT(36)      SYMREF;
       88     5058        /*
       89     5059            ***       entry references
       90     5060        */
       91     5061    1   DCL     CPX$ACCEPT        ENTRY(1);
PL6.E3A0      #001=CPD$SET_NODES File=CPD$SETUP_NODES.:E05TSI                    TUE 07/29/97 11:33 Page:4
       92     5062    1   DCL     CPX$ACQUIRE       ENTRY(1);
       93     5063    1   DCL     CPX$ATITLE        ENTRY(1);
       94     5064    1   DCL     CPX$BATXEQ        ENTRY(1);
       95     5065    1   DCL     CPX$BYE           ENTRY(1);
       96     5066    1   DCL     CPX$CHECKNOTIFY   ENTRY(1);
       97     5067    1   DCL     CPX$COMMENT       ENTRY(1);
       98     5068    1   DCL     CPX$COUPLE        ENTRY(1);
       99     5069    1   DCL     CPX$DECOUPLE      ENTRY(1);
      100     5070    1   DCL     CPX$DEFAULT       ENTRY(1);
      101     5071    1   DCL     CPX$DELETE        ENTRY(1);
      102     5072    1   DCL     CPX$DELTA         ENTRY(1);
      103     5073    1   DCL     CPX$DIRECTORY     ENTRY(1);
      104     5074    1   DCL     CPX$DISPLAY       ENTRY(1);
      105     5075    1   DCL     CPX$DONT          ENTRY(1);
      106     5076    1   DCL     CPX$DRIBBLE       ENTRY(1);
      107     5077    1   DCL     CPX$ECHO          ENTRY(1);
      108     5078    1   DCL     CPX$EJECT         ENTRY(1);
      109     5079    1   DCL     CPX$EXPOUND       ENTRY(1);
      110     5080    1   DCL     CPX$GET           ENTRY(1);
      111     5081    1   DCL     CPX$GLOBAL        ENTRY(1);
      112     5082    1   DCL     CPX$GO            ENTRY(1);
      113     5083    1   DCL     CPX$GOTO          ENTRY(1);
      114     5084    1   DCL     CPX$HELP          ENTRY(1);
      115     5085    1   DCL     CPX$JOB           ENTRY(1);
      116     5086    1   DCL     CPX$LET           ENTRY(1);
      117     5087    1   DCL     CPX$LIST          ENTRY(1);
      118     5088    1   DCL     CPX$LIMIT         ENTRY(1);
      119     5089    1   DCL     CPX$LOCATE        ENTRY(1);
      120     5090    1   DCL     CPX$MESSAGE       ENTRY(1);
      121     5091    1   DCL     CPX$PASSWORD      ENTRY(1);
      122     5092    1   DCL     CPX$PLATEN        ENTRY(1);
      123     5093    1   DCL     CPX$POINT         ENTRY(1);
      124     5094    1   DCL     CPX$POSITION      ENTRY(1);
      125     5095    1   DCL     CPX$PRIORITY      ENTRY(1);
      126     5096    1   DCL     CPX$PRIV          ENTRY(1);
      127     5097    1   DCL     CPX$PROFILE       ENTRY(1);
      128     5098    1   DCL     CPX$PROTECT       ENTRY(1);
PL6.E3A0      #001=CPD$SET_NODES File=CPD$SETUP_NODES.:E05TSI                    TUE 07/29/97 11:33 Page:5
      129     5099    1   DCL     CPX$QUIT          ENTRY(1);
      130     5100    1   DCL     CPX$RESOURC       ENTRY(1);
      131     5101    1   DCL     CPX$RUNIT         ENTRY(1);
      132     5102    1   DCL     CPX$SAVE          ENTRY(1);
      133     5103    1   DCL     CPX$SETUP         ENTRY(1);
      134     5104    1   DCL     CPX$START         ENTRY(1);
      135     5105    1   DCL     CPX$STATUS        ENTRY(1);
      136     5106    1   DCL     CPX$SWITCH        ENTRY(1);
      137     5107    1   DCL     CPX$TABS          ENTRY(1);
      138     5108    1   DCL     CPX$TIME          ENTRY(1);
      139     5109    1   DCL     CPX$TITLE         ENTRY(1);
      140     5110    1   DCL     CPX$U             ENTRY(1);
      141     5111        /*
      142     5112            ***       MISCELLANEOUS STRUCTURES
      143     5113        */
      144     5114                %PARSE$OUT(NAME=P$B,STCLASS=BASED);
      145     5159                %PARSE$SYM(NAME=P$S,STCLASS=BASED);
      146     5197    1           DCL B$TEXT CHAR(%CPBUFFSIZE) BASED;
      147     5198
      148     5199    1     CALL_FLG = '1'B ;
      149     5200    1     IF PCB.OUT$->P$B.TEMP THEN
      150     5201    2         DO;
      151     5202    2             CALL INSERT (PCB.TEXT$->B$TEXT,
      152     5203    2             PCB.OUT$->P$B.SUBLK$(0)->P$B.CPOS,
      153     5204    2             PCB.OUT$->P$B.SUBLK$(0)->P$S.COUNT+1, /* One for ':' */
      154     5205    2                       ' ');
      155     5206    2             PCB.OUT$ = PCB.OUT$->P$B.SUBLK$(1);
      156     5207    2         END;
      157     5208        /**/
      158     5209    2     DO CASE(PCB.OUT$->P$B.CODE);
      159     5210        /**/
      160     5211    2         CASE(ELSE);
      161     5212    2             CALL_FLG = '0'B ;
      162     5213    2         CASE(ADJUSTCMND, ERASECMND, HOLDCMND, LDEVCMND, PRINTCMND, RESETCMND,
      163     5214    2                SETCMND, TERMINALCMND, UNHOLDCMND);
      164     5215    2             NODES$ = ADDR(CPSL_NODES);
      165     5216        /**/
PL6.E3A0      #001=CPD$SET_NODES File=CPD$SETUP_NODES.:E05TSI                    TUE 07/29/97 11:33 Page:6
      166     5217        /**/
      167     5218    2         CASE(ACCEPTCMND);
      168     5219    2             NODES$ = ADDR(ACCEPT_);
      169     5220        /**/
      170     5221    2         CASE(ACQUIRECMND);
      171     5222    2             NODES$ = ADDR(ACQUIRE_);
      172     5223    2             SPCL$$ = ENTADDR(CPX$ACQUIRE);
      173     5224        /**/
      174     5225    2         CASE(ATITLECMND);
      175     5226    2             NODES$ = ADDR(ATITLE_);
      176     5227    2             SPCL$$ = ENTADDR(CPX$ATITLE);
      177     5228        /**/
      178     5229    2         CASE(BACKUPCMND);
      179     5230    2             NODES$ = ADDR(BACKUP_);
      180     5231        /**/
      181     5232    2         CASE(BATCHCMND);
      182     5233    2             NODES$ = ADDR(BATCH_);
      183     5234    2             SPCL$$ = ENTADDR(CPX$BATXEQ);
      184     5235        /**/
      185     5236    2         CASE(BYECMND);
      186     5237    2             NODES$ = ADDR(BYE_);
      187     5238        /**/
      188     5239    2         CASE(CANCELCMND);
      189     5240    2             NODES$ = ADDR(CANCEL_);
      190     5241    2             SPCL$$ = ENTADDR(CPX$CHECKNOTIFY);
      191     5242        /**/
      192     5243    2         CASE(CHECKCMND);
      193     5244    2              NODES$ = ADDR(CHECK_);
      194     5245    2              SPCL$$ = ENTADDR(CPX$CHECKNOTIFY);
      195     5246        /**/
      196     5247    2         CASE(COMMENTCMND);
      197     5248    2              NODES$ = ADDR(COMMENT_);
      198     5249    2              SPCL$$ = ENTADDR(CPX$COMMENT);
      199     5250        /**/
      200     5251    2         CASE(DEFAULTCMND);
      201     5252    2              NODES$ = ADDR(DEFAULT_);
      202     5253    2              SPCL$$ = ENTADDR(CPX$BATXEQ);
PL6.E3A0      #001=CPD$SET_NODES File=CPD$SETUP_NODES.:E05TSI                    TUE 07/29/97 11:33 Page:7
      203     5254        /**/
      204     5255    2         CASE(DIRECTORYCMND);
      205     5256    2              NODES$ = ADDR(DIRECTORY_);
      206     5257    2              SPCL$$ = ENTADDR(CPX$DIRECTORY);
      207     5258        /**/
      208     5259    2         CASE(DISPLAYCMND);
      209     5260    2              NODES$ = ADDR(DISPLAY_);
      210     5261    2              SPCL$$ = ENTADDR(CPX$DISPLAY);
      211     5262        /**/
      212     5263    2         CASE(DONTCMND);
      213     5264    2              NODES$ = ADDR(DONT_);
      214     5265    2              SPCL$$ = ENTADDR(CPX$DONT);
      215     5266        /**/
      216     5267    2         CASE(DRIBBLECMND);
      217     5268    2              NODES$ = ADDR(DRIBBLE_);
      218     5269    2              SPCL$$ = ENTADDR(CPX$DRIBBLE);
      219     5270        /**/
      220     5271    2         CASE(ECHOCMND);
      221     5272    2              NODES$ = ADDR(ECHO_);
      222     5273    2              SPCL$$ = ENTADDR(CPX$ECHO);
      223     5274        /**/
      224     5275    2         CASE(EJECTCMND);
      225     5276    2              NODES$ = ADDR(EJECT_);
      226     5277    2              SPCL$$ = ENTADDR(CPX$EJECT);
      227     5278        /**/
      228     5279    2         CASE(EXPOUNDCMND);
      229     5280    2              NODES$ = ADDR(EXPOUND_);
      230     5281    2              SPCL$$ = ENTADDR(CPX$EXPOUND);
      231     5282        /**/
      232     5283    2         CASE(GETCMND);
      233     5284    2              NODES$ = ADDR(GET_);
      234     5285    2              SPCL$$ = ENTADDR(CPX$GET);
      235     5286        /**/
      236     5287    2         CASE(GLOBALCMND);
      237     5288    2              NODES$ = ADDR(GLOBAL_);
      238     5289    2              SPCL$$ = ENTADDR(CPX$BATXEQ);
      239     5290        /**/
PL6.E3A0      #001=CPD$SET_NODES File=CPD$SETUP_NODES.:E05TSI                    TUE 07/29/97 11:33 Page:8
      240     5291    2         CASE(GOTOCMND);
      241     5292    2              NODES$ = ADDR(GOTO_);
      242     5293    2              SPCL$$ = ENTADDR(CPX$GOTO);
      243     5294        /**/
      244     5295    2         CASE(HELPCMND);
      245     5296    2              NODES$ = ADDR(HELP_);
      246     5297    2              SPCL$$ = ENTADDR(CPX$HELP);
      247     5298        /**/
      248     5299    2         CASE(INCLUDECMND);
      249     5300    2              NODES$ = ADDR(INCLUDE_);
      250     5301    2              SPCL$$ = ENTADDR(CPX$BATXEQ);
      251     5302        /**/
      252     5303    2         CASE(IFCMND);
      253     5304    2              NODES$ = ADDR(IF_);
      254     5305    2              SPCL$$ = ENTADDR(CPX$LET);
      255     5306        /**/
      256     5307    2         CASE(JOBCMND);
      257     5308    2              NODES$ = ADDR(JOB_);
      258     5309    2              SPCL$$ = ENTADDR(CPX$JOB);
      259     5310        /**/
      260     5311    2         CASE(LETCMND);
      261     5312    2              NODES$ = ADDR(LET_);
      262     5313    2              SPCL$$ = ENTADDR(CPX$LET);
      263     5314        /**/
      264     5315    2         CASE(LIMITCMND);
      265     5316    2              NODES$ = ADDR(LIMIT_);
      266     5317    2              SPCL$$ = ENTADDR(CPX$LIMIT);
      267     5318        /**/
      268     5319    2         CASE(LISTCMND);
      269     5320    2             NODES$ = ADDR(LIST_);
      270     5321    2             SPCL$$ = ENTADDR(CPX$LIST);
      271     5322        /**/
      272     5323    2         CASE(MESSAGECMND);
      273     5324    2             NODES$ = ADDR(MESSAGE_);
      274     5325    2             SPCL$$ = ENTADDR(CPX$MESSAGE);
      275     5326        /**/
      276     5327    2         CASE(NOTIFYCMND);
PL6.E3A0      #001=CPD$SET_NODES File=CPD$SETUP_NODES.:E05TSI                    TUE 07/29/97 11:33 Page:9
      277     5328    2             NODES$ = ADDR(NOTIFY_);
      278     5329    2             SPCL$$ = ENTADDR(CPX$CHECKNOTIFY);
      279     5330        /**/
      280     5331    2         CASE(ORESCMND);
      281     5332    2             NODES$ = ADDR(ORES_);
      282     5333    2             SPCL$$ = ENTADDR(CPX$RESOURC);
      283     5334        /**/
      284     5335    2         CASE(OUTPUTCMND);
      285     5336    2             NODES$ = ADDR(OUTPUT_);
      286     5337    2             SPCL$$ = ENTADDR(CPX$LET);
      287     5338        /**/
      288     5339    2         CASE(PASSWORDCMND);
      289     5340    2             NODES$ = ADDR(PASSWORD_);
      290     5341    2             SPCL$$ = ENTADDR(CPX$PASSWORD);
      291     5342        /**/
      292     5343    2         CASE(PLATENCMND);
      293     5344    2             NODES$ = ADDR(PLATEN_);
      294     5345    2             SPCL$$ = ENTADDR(CPX$PLATEN);
      295     5346        /**/
      296     5347    2         CASE(POINTCMND);
      297     5348    2              NODES$ = ADDR(POINT_);
      298     5349    2              SPCL$$ = ENTADDR(CPX$POINT);
      299     5350        /**/
      300     5351    2         CASE(POSITIONCMND);
      301     5352    2              NODES$ = ADDR(POSITION_);
      302     5353    2              SPCL$$ = ENTADDR(CPX$POSITION);
      303     5354    2         CASE(PRIORITYCMND);
      304     5355    2             NODES$ = ADDR(PRIORITY_);
      305     5356    2             SPCL$$ = ENTADDR(CPX$PRIORITY);
      306     5357        /**/
      307     5358    2         CASE(PRIVCMND);
      308     5359    2             NODES$ = ADDR(PRIV_);
      309     5360        /**/
      310     5361    2         CASE(PROFILECMND);
      311     5362    2             NODES$ = ADDR(PROFILE_);
      312     5363        /* ****   PERFORM THE FOLLOWING VALIDITY CHECK:
      313     5364                  PROFILE NAME NOT TO EXCEED 11 CHARACTERS
PL6.E3A0      #001=CPD$SET_NODES File=CPD$SETUP_NODES.:E05TSI                    TUE 07/29/97 11:33 Page:10
      314     5365        */
      315     5366        /**/
      316     5367    2         CASE(PROMPTCMND);
      317     5368    2             NODES$ = ADDR(PROMPT_);
      318     5369        /**/
      319     5370    2         CASE(PROTECTCMND);
      320     5371    2              NODES$ = ADDR(PROTECT_);
      321     5372    2              SPCL$$ = ENTADDR(CPX$PROTECT);
      322     5373        /**/
      323     5374    2         CASE(RELEASECMND);
      324     5375    2             NODES$ = ADDR(RELEASE_);
      325     5376    2             SPCL$$ = ENTADDR(CPX$RESOURC);
      326     5377        /**/
      327     5378    2         CASE(REPORTCMND);
      328     5379    2             NODES$ = ADDR(REPORT_);
      329     5380        /**/
      330     5381    2         CASE(RESOURCECMND);
      331     5382    2             NODES$ = ADDR(RESOURCE_);
      332     5383    2             SPCL$$ = ENTADDR(CPX$RESOURC);
      333     5384        /**/
      334     5385    2         CASE(SAVECMND);
      335     5386    2             NODES$ = ADDR(SAVE_);
      336     5387    2             SPCL$$ = ENTADDR(CPX$SAVE);
      337     5388        /**/
      338     5389    2         CASE(SETUPCMND);
      339     5390    2             NODES$ = ADDR(SETUP_);
      340     5391    2             SPCL$$ = ENTADDR(CPX$SETUP);
      341     5392        /**/
      342     5393    2         CASE(STARTCMND);
      343     5394    2             NODES$ = ADDR(START_);
      344     5395    2             SPCL$$ = ENTADDR(CPX$START);
      345     5396        /**/
      346     5397    2         CASE(STATUSCMND);
      347     5398    2             NODES$ = ADDR(STATUS_);
      348     5399    2             SPCL$$ = ENTADDR(CPX$STATUS);
      349     5400        /**/
      350     5401    2         CASE(SWITCHCMND);
PL6.E3A0      #001=CPD$SET_NODES File=CPD$SETUP_NODES.:E05TSI                    TUE 07/29/97 11:33 Page:11
      351     5402    2             NODES$ = ADDR(SWITCH_);
      352     5403    2             SPCL$$ = ENTADDR(CPX$SWITCH);
      353     5404        /**/
      354     5405    2         CASE(TABSCMND);
      355     5406    2             NODES$ = ADDR(TABS_);
      356     5407    2             SPCL$$ = ENTADDR(CPX$TABS);
      357     5408        /**/
      358     5409    2         CASE(TIMECMND);
      359     5410    2             NODES$ = ADDR(TIME_);
      360     5411    2              SPCL$$ = ENTADDR(CPX$TIME);
      361     5412        /**/
      362     5413    2         CASE(TITLECMND);
      363     5414    2             NODES$ = ADDR(TITLE_);
      364     5415    2             SPCL$$ = ENTADDR(CPX$TITLE);
      365     5416        /**/
      366     5417    2         CASE(UCMND);
      367     5418    2             NODES$ = ADDR(UNDER_);
      368     5419    2             SPCL$$ = ENTADDR(CPX$U);
      369     5420        /**/
      370     5421    2         CASE(WHENCMND);
      371     5422    2             NODES$ = ADDR(WHEN_);
      372     5423    2             SPCL$$ = ENTADDR(CPX$LET);
      373     5424        /**/
      374     5425    2         CASE(XEQCMND);
      375     5426    2             NODES$ = ADDR(XEQ_);
      376     5427    2             SPCL$$ = ENTADDR(CPX$BATXEQ);
      377     5428        /**/
      378     5429    2         CASE(XMITCMND);
      379     5430    2             NODES$ = ADDR(XMIT_);
      380     5431    2             SPCL$$ = ENTADDR(CPX$BATXEQ);
      381     5432        /**/
      382     5433    2         CASE(RUNITCMND,MINICMND);
      383     5434    2             NODES$ = ADDR(RU_);
      384     5435    2             SPCL$$ = ENTADDR(CPX$RUNIT);
      385     5436        /**/
      386     5437    2     END;
      387     5438        /**/
PL6.E3A0      #001=CPD$SET_NODES File=CPD$SETUP_NODES.:E05TSI                    TUE 07/29/97 11:33 Page:12
      388     5439    1     RETURN ;
      389     5440        /**/
      390     5441    1   END   CPD$SET_NODES ;
      391     5442        %EOD ;

PL6.E3A0      #001=CPD$SET_NODES File=CPD$SETUP_NODES.:E05TSI                    TUE 07/29/97 11:33 Page:13
--  Include file information  --

   XU_MACRO_C.:E05TOU  is referenced.
   CP_SUBS_C.:E05TOU  is referenced.
   CP_MACROS_C.:E05TOU  is referenced.
   B$JIT_C.:E05TOU  was found in the system file and is never referenced.
   CP_6_C.:E05TOU  was found in the system file and is never referenced.
      No diagnostics issued in procedure CPD$SET_NODES.

   Procedure CPD$SET_NODES requires 490 words for executable code.
   Procedure CPD$SET_NODES requires 8 words of local(AUTO) storage.

PL6.E3A0      #001=CPD$SET_NODES File=CPD$SETUP_NODES.:E05TSI                    TUE 07/29/97 11:33 Page:14

 Object Unit name= CPD$SET_NODES                              File name= CPD$SETUP_NODES.:E05TOU
 UTS= JUL 29 '97 11:33:27.84 TUE                              Compiler= PL-6/E31         Sev=      00
 SharedLib= :SHARED_SYSTEM                                    Alt SharedLib=


    ****  Control sections  ****

 Sect   Type Bound  Init  Size OctSiz  Section name(segment info)
    0   Proc  even  none   490    752  CPD$SET_NODES
    1  RoData even  none    57     71  CPD$SET_NODES

    ****  Entry defs  ****

                              Check   Calling
                             calling  sequence
  Sect OctLoc Primary Altret sequence   type   Parms  Name
     0      0   yes            yes      Std        4  CPD$SET_NODES

  ****  Entry refs  ****

         Check        Calling
        calling       sequence
Altret sequence SRef   type   Args  Name
         yes           Std       1 CPX$ACQUIRE
         yes           Std       1 CPX$ATITLE
         yes           Std       1 CPX$COMMENT
         yes           Std       1 CPX$LIMIT
         yes           Std       1 CPX$HELP
         yes           Std       1 CPX$JOB
         yes           Std       1 CPX$SWITCH
         yes           Std       1 CPX$TITLE
         yes           Std       1 CPX$LET
         yes           Std       1 CPX$SAVE
         yes           Std       1 CPX$CHECKNOTIFY
         yes           Std       1 CPX$EJECT
         yes           Std       1 CPX$MESSAGE
         yes           Std       1 CPX$PROTECT
PL6.E3A0      #001=CPD$SET_NODES File=CPD$SETUP_NODES.:E05TSI                    TUE 07/29/97 11:33 Page:15
         yes           Std       1 CPX$STATUS
         yes           Std       1 CPX$START
         yes           Std       1 CPX$TIME
         yes           Std       1 CPX$TABS
         yes           Std       1 CPX$SETUP
         yes           Std       1 CPX$PLATEN
         yes           Std       1 CPX$DONT
         yes           Std       1 CPX$RESOURC
         yes           Std       1 CPX$POSITION
         yes           Std       1 CPX$BATXEQ
         yes           Std       1 CPX$DIRECTORY
         yes           Std       1 CPX$DISPLAY
         yes           Std       1 CPX$ECHO
         yes           Std       1 CPX$POINT
         yes           Std       1 CPX$DRIBBLE
         yes           Std       1 CPX$EXPOUND
         yes           Std       1 CPX$LIST
         yes           Std       1 CPX$PASSWORD
         yes           Std       1 CPX$RUNIT
         yes           Std       1 CPX$GET
         yes           Std       1 CPX$GOTO
         yes           Std       1 CPX$PRIORITY
         yes           Std       1 CPX$U
                       nStd      0 X66_AUTO_4
                       Std       0 B_CONSPOOL_D
                       nStd      0 X66_ARET
PL6.E3A0      #001=CPD$SET_NODES File=CPD$SETUP_NODES.:E05TSI                    TUE 07/29/97 11:33 Page:16

  ****  Data refs  ****

  Flags:  r = read only, s = secondary
Flgs Name                             Flgs Name                             Flgs Name
     ACCEPT_                               ACQUIRE_                              ATITLE_
     BACKUP_                               BATCH_                                BYE_
     CANCEL_                               CHECK_                                COMMENT_
     CPSL_NODES                            DEFAULT_                              DIRECTORY_
     DISPLAY_                              DONT_                                 DRIBBLE_
     ECHO_                                 EJECT_                                EXPOUND_
     GET_                                  GLOBAL_                               GOTO_
     HELP_                                 IF_                                   INCLUDE_
     JOB_                                  LET_                                  LIMIT_
     LIST_                                 MESSAGE_                              NOTIFY_
     ORES_                                 OUTPUT_                               PASSWORD_
     PLATEN_                               POINT_                                POSITION_
     PRIORITY_                             PRIV_                                 RELEASE_
     PROFILE_                              PROTECT_                              PROMPT_
     REPORT_                               RESOURCE_                             RU_
     SAVE_                                 SETUP_                                START_
     STATUS_                               SWITCH_                               TABS_
     TIME_                                 TITLE_                                UNDER_
     WHEN_                                 XEQ_                                  XMIT_
     B_VECTNIL

  ****  Segment refs  ****

  Flags:  r = read only, s = secondary
Flgs Name                             Flgs Name                             Flgs Name
     ISSID
PL6.E3A0      #001=CPD$SET_NODES File=CPD$SETUP_NODES.:E05TSI                    TUE 07/29/97 11:33 Page:17


        1        1        /*M*          CPD$SET_NODES  Sets the pointer to the nodes for the parse.  */
        2        2        /*T***********************************************************/
        3        3        /*T*                                                         */
        4        4        /*T* Copyright (c) Bull HN Information Systems Inc., 1997    */
        5        5        /*T*                                                         */
        6        6        /*T***********************************************************/
        7        7        /*X*  DMC,DFC   */
        8        8        /**/
        9        9        /*P*          NAME:    CPD$SET_NODES
       10       10                      PURPOSE:    This routine is called following gross identification
       11       11                               of an IBEX command; its function is to set the
       12       12                               nodes pointer, pointer to special routine to
       13       13                               handle syntax checking and flag on call to GETCMD.
       14       14        */
       15       15        CPD$SET_NODES:
       16       16                PROC(PCB, NODES$, SPCL$$, CALL_FLG) ;

     16  0 000000   000000 700200 xent  CPD$SET_NOD* TSX0  ! X66_AUTO_4
         0 000001   000010 000004                    ZERO    8,4

       17       17        %EJECT;
PL6.E3A0      #001=CPD$SET_NODES File=CPD$SETUP_NODES.:E05TSI                    TUE 07/29/97 11:33 Page:18
       18       18                %INCLUDE CP_MACROS_C;
       19      770                %INCLUDE CP_SUBS_C;
       20     1687                %INCLUDE XU_MACRO_C;
       21     4793        /*
       22     4794            ***       PARAMETER
       23     4795        */
       24     4796            %P_PCB (NAME=PCB, STCLASS=PARAM);
       25     4995    1       DCL NODES$ PTR ;
       26     4996    1       DCL CALL_FLG BIT(1) ALIGNED;
       27     4997    1       DCL SPCL$$ EPTR ;
       28     4998        /*
       29     4999            ***       nodes references
       30     5000        */
       31     5001    1   DCL     ACCEPT_     BIT(36)      SYMREF;
       32     5002    1   DCL     ACQUIRE_    BIT(36)      SYMREF;
       33     5003    1   DCL     ATITLE_     BIT(36)      SYMREF;
       34     5004    1   DCL     BACKUP_     BIT(36)      SYMREF;
       35     5005    1   DCL     BATCH_      BIT(36)      SYMREF;
       36     5006    1   DCL     BYE_        BIT(36)      SYMREF;
       37     5007    1   DCL     CANCEL_     BIT(36)      SYMREF;
       38     5008    1   DCL     CHECK_      BIT(36)      SYMREF;
       39     5009    1   DCL     COMMENT_    BIT(36)      SYMREF;
       40     5010    1   DCL     CPSL_NODES  BIT(36)      SYMREF;
       41     5011    1   DCL     DEFAULT_    BIT(36)      SYMREF;
       42     5012    1   DCL     DIRECTORY_  BIT(36)      SYMREF;
       43     5013    1   DCL     DISPLAY_    BIT(36)      SYMREF;
       44     5014    1   DCL     DONT_       BIT(36)      SYMREF;
       45     5015    1   DCL     DRIBBLE_    BIT(36)      SYMREF;
       46     5016    1   DCL     ECHO_       BIT(36)      SYMREF;
       47     5017    1   DCL     EJECT_      BIT(36)      SYMREF;
       48     5018    1   DCL     EXPOUND_    BIT(36)      SYMREF;
       49     5019    1   DCL     GET_        BIT(36)      SYMREF;
       50     5020    1   DCL     GLOBAL_     BIT(36)      SYMREF;
       51     5021    1   DCL     GOTO_       BIT(36)      SYMREF;
       52     5022    1   DCL     HELP_       BIT(36)      SYMREF;
       53     5023    1   DCL     IF_         BIT(36)      SYMREF;
       54     5024    1   DCL     INCLUDE_    BIT(36)      SYMREF;
PL6.E3A0      #001=CPD$SET_NODES File=CPD$SETUP_NODES.:E05TSI                    TUE 07/29/97 11:33 Page:19
       55     5025    1   DCL     JOB_        BIT(36)      SYMREF;
       56     5026    1   DCL     LET_        BIT(36)      SYMREF;
       57     5027    1   DCL     LIMIT_      BIT(36)      SYMREF;
       58     5028    1   DCL     LIST_       BIT(36)      SYMREF;
       59     5029    1   DCL     MESSAGE_    BIT(36)      SYMREF;
       60     5030    1   DCL     NOTIFY_     BIT(36)      SYMREF;
       61     5031    1   DCL     ORES_       BIT(36)      SYMREF;
       62     5032    1   DCL     OUTPUT_     BIT(36)      SYMREF;
       63     5033    1   DCL     PASSWORD_   BIT(36)      SYMREF;
       64     5034    1   DCL     PLATEN_     BIT(36)      SYMREF;
       65     5035    1   DCL     POINT_      BIT(36)      SYMREF;
       66     5036    1   DCL     POSITION_   BIT(36)      SYMREF;
       67     5037    1   DCL     PRIORITY_   BIT(36)      SYMREF;
       68     5038    1   DCL     PRIV_       BIT(36)      SYMREF;
       69     5039    1   DCL     RELEASE_    BIT(36)      SYMREF;
       70     5040    1   DCL     PROFILE_    BIT(36)      SYMREF;
       71     5041    1   DCL     PROTECT_    BIT(36)      SYMREF;
       72     5042    1   DCL     PROMPT_     BIT(36)      SYMREF;
       73     5043    1   DCL     REPORT_     BIT(36)      SYMREF;
       74     5044    1   DCL     RESOURCE_   BIT(36)      SYMREF;
       75     5045    1   DCL     RU_         BIT(36)      SYMREF;
       76     5046    1   DCL     SAVE_       BIT(36)      SYMREF;
       77     5047    1   DCL     SETUP_      BIT(36)      SYMREF;
       78     5048    1   DCL     START_      BIT(36)      SYMREF;
       79     5049    1   DCL     STATUS_     BIT(36)      SYMREF;
       80     5050    1   DCL     SWITCH_     BIT(36)      SYMREF;
       81     5051    1   DCL     TABS_       BIT(36)      SYMREF;
       82     5052    1   DCL     TIME_       BIT(36)      SYMREF;
       83     5053    1   DCL     TITLE_      BIT(36)      SYMREF;
       84     5054    1   DCL     UNDER_      BIT(36)      SYMREF;
       85     5055    1   DCL     WHEN_       BIT(36)      SYMREF;
       86     5056    1   DCL     XEQ_        BIT(36)      SYMREF;
       87     5057    1   DCL     XMIT_       BIT(36)      SYMREF;
       88     5058        /*
       89     5059            ***       entry references
       90     5060        */
       91     5061    1   DCL     CPX$ACCEPT        ENTRY(1);
PL6.E3A0      #001=CPD$SET_NODES File=CPD$SETUP_NODES.:E05TSI                    TUE 07/29/97 11:33 Page:20
       92     5062    1   DCL     CPX$ACQUIRE       ENTRY(1);
       93     5063    1   DCL     CPX$ATITLE        ENTRY(1);
       94     5064    1   DCL     CPX$BATXEQ        ENTRY(1);
       95     5065    1   DCL     CPX$BYE           ENTRY(1);
       96     5066    1   DCL     CPX$CHECKNOTIFY   ENTRY(1);
       97     5067    1   DCL     CPX$COMMENT       ENTRY(1);
       98     5068    1   DCL     CPX$COUPLE        ENTRY(1);
       99     5069    1   DCL     CPX$DECOUPLE      ENTRY(1);
      100     5070    1   DCL     CPX$DEFAULT       ENTRY(1);
      101     5071    1   DCL     CPX$DELETE        ENTRY(1);
      102     5072    1   DCL     CPX$DELTA         ENTRY(1);
      103     5073    1   DCL     CPX$DIRECTORY     ENTRY(1);
      104     5074    1   DCL     CPX$DISPLAY       ENTRY(1);
      105     5075    1   DCL     CPX$DONT          ENTRY(1);
      106     5076    1   DCL     CPX$DRIBBLE       ENTRY(1);
      107     5077    1   DCL     CPX$ECHO          ENTRY(1);
      108     5078    1   DCL     CPX$EJECT         ENTRY(1);
      109     5079    1   DCL     CPX$EXPOUND       ENTRY(1);
      110     5080    1   DCL     CPX$GET           ENTRY(1);
      111     5081    1   DCL     CPX$GLOBAL        ENTRY(1);
      112     5082    1   DCL     CPX$GO            ENTRY(1);
      113     5083    1   DCL     CPX$GOTO          ENTRY(1);
      114     5084    1   DCL     CPX$HELP          ENTRY(1);
      115     5085    1   DCL     CPX$JOB           ENTRY(1);
      116     5086    1   DCL     CPX$LET           ENTRY(1);
      117     5087    1   DCL     CPX$LIST          ENTRY(1);
      118     5088    1   DCL     CPX$LIMIT         ENTRY(1);
      119     5089    1   DCL     CPX$LOCATE        ENTRY(1);
      120     5090    1   DCL     CPX$MESSAGE       ENTRY(1);
      121     5091    1   DCL     CPX$PASSWORD      ENTRY(1);
      122     5092    1   DCL     CPX$PLATEN        ENTRY(1);
      123     5093    1   DCL     CPX$POINT         ENTRY(1);
      124     5094    1   DCL     CPX$POSITION      ENTRY(1);
      125     5095    1   DCL     CPX$PRIORITY      ENTRY(1);
      126     5096    1   DCL     CPX$PRIV          ENTRY(1);
      127     5097    1   DCL     CPX$PROFILE       ENTRY(1);
      128     5098    1   DCL     CPX$PROTECT       ENTRY(1);
PL6.E3A0      #001=CPD$SET_NODES File=CPD$SETUP_NODES.:E05TSI                    TUE 07/29/97 11:33 Page:21
      129     5099    1   DCL     CPX$QUIT          ENTRY(1);
      130     5100    1   DCL     CPX$RESOURC       ENTRY(1);
      131     5101    1   DCL     CPX$RUNIT         ENTRY(1);
      132     5102    1   DCL     CPX$SAVE          ENTRY(1);
      133     5103    1   DCL     CPX$SETUP         ENTRY(1);
      134     5104    1   DCL     CPX$START         ENTRY(1);
      135     5105    1   DCL     CPX$STATUS        ENTRY(1);
      136     5106    1   DCL     CPX$SWITCH        ENTRY(1);
      137     5107    1   DCL     CPX$TABS          ENTRY(1);
      138     5108    1   DCL     CPX$TIME          ENTRY(1);
      139     5109    1   DCL     CPX$TITLE         ENTRY(1);
      140     5110    1   DCL     CPX$U             ENTRY(1);
      141     5111        /*
      142     5112            ***       MISCELLANEOUS STRUCTURES
      143     5113        */
      144     5114                %PARSE$OUT(NAME=P$B,STCLASS=BASED);
      145     5159                %PARSE$SYM(NAME=P$S,STCLASS=BASED);
      146     5197    1           DCL B$TEXT CHAR(%CPBUFFSIZE) BASED;
      147     5198
      148     5199    1     CALL_FLG = '1'B ;

   5199  0 000002   400000 236003                    LDQ     -131072,DU
         0 000003   200006 470500                    LDP0    @CALL_FLG,,AUTO
         0 000004   000000 756100                    STQ     0,,PR0

      149     5200    1     IF PCB.OUT$->P$B.TEMP THEN

   5200  0 000005   200003 471500                    LDP1    @PCB,,AUTO
         0 000006   100003 473500                    LDP3    3,,PR1
         0 000007   300000 234100                    SZN     0,,PR3
         0 000010   000025 605000 0                  TPL     s:5209

      150     5201    2         DO;

      151     5202    2             CALL INSERT (PCB.TEXT$->B$TEXT,

   5202  0 000011   100000 474500                    LDP4    0,,PR1
PL6.E3A0      #001=CPD$SET_NODES File=CPD$SETUP_NODES.:E05TSI                    TUE 07/29/97 11:33 Page:22
         0 000012   300003 475500                    LDP5    3,,PR3
         0 000013   500002 235100                    LDA     2,,PR5
         0 000014   500004 236100                    LDQ     4,,PR5
         0 000015   000033 772000                    QRL     27
         0 000016   000001 620006                    EAX0    1,QL
         0 000017   040145 100400                    MLR     fill='040'O
         0 000020   000035 000001 xsym               ADSC9   B_VECTNIL+29             cn=0,n=1
         0 000021   400000 000010                    ADSC9   0,A,PR4                  cn=0,n=*X0

      152     5203    2             PCB.OUT$->P$B.SUBLK$(0)->P$B.CPOS,
      153     5204    2             PCB.OUT$->P$B.SUBLK$(0)->P$S.COUNT+1, /* One for ':' */
      154     5205    2                       ' ');
      155     5206    2             PCB.OUT$ = PCB.OUT$->P$B.SUBLK$(1);

   5206  0 000022   100003 473500                    LDP3    3,,PR1
         0 000023   300004 236100                    LDQ     4,,PR3
         0 000024   100003 756100                    STQ     3,,PR1

      156     5207    2         END;

      157     5208        /**/
      158     5209    2     DO CASE(PCB.OUT$->P$B.CODE);

   5209  0 000025   100003 473500                    LDP3    3,,PR1
         0 000026   300000 720100                    LXL0    0,,PR3
         0 000027   000127 100003                    CMPX0   87,DU
         0 000030   000032 602010 0                  TNC     s:5209+5,X0
         0 000031   000161 710000 0                  TRA     s:5212
         0 000032   000161 710000 0                  TRA     s:5212
         0 000033   000167 710000 0                  TRA     s:5219
         0 000034   000173 710000 0                  TRA     s:5222
         0 000035   000163 710000 0                  TRA     s:5215
         0 000036   000202 710000 0                  TRA     s:5226
         0 000037   000211 710000 0                  TRA     s:5230
         0 000040   000215 710000 0                  TRA     s:5233
         0 000041   000224 710000 0                  TRA     s:5237
         0 000042   000230 710000 0                  TRA     s:5240
PL6.E3A0      #001=CPD$SET_NODES File=CPD$SETUP_NODES.:E05TSI                    TUE 07/29/97 11:33 Page:23
         0 000043   000237 710000 0                  TRA     s:5244
         0 000044   000161 710000 0                  TRA     s:5212
         0 000045   000246 710000 0                  TRA     s:5248
         0 000046   000161 710000 0                  TRA     s:5212
         0 000047   000161 710000 0                  TRA     s:5212
         0 000050   000161 710000 0                  TRA     s:5212
         0 000051   000255 710000 0                  TRA     s:5252
         0 000052   000743 710000 0                  TRA     s:5434
         0 000053   000264 710000 0                  TRA     s:5256
         0 000054   000273 710000 0                  TRA     s:5260
         0 000055   000302 710000 0                  TRA     s:5264
         0 000056   000320 710000 0                  TRA     s:5272
         0 000057   000161 710000 0                  TRA     s:5212
         0 000060   000161 710000 0                  TRA     s:5212
         0 000061   000163 710000 0                  TRA     s:5215
         0 000062   000345 710000 0                  TRA     s:5284
         0 000063   000354 710000 0                  TRA     s:5288
         0 000064   000161 710000 0                  TRA     s:5212
         0 000065   000363 710000 0                  TRA     s:5292
         0 000066   000372 710000 0                  TRA     s:5296
         0 000067   000410 710000 0                  TRA     s:5304
         0 000070   000161 710000 0                  TRA     s:5212
         0 000071   000417 710000 0                  TRA     s:5308
         0 000072   000161 710000 0                  TRA     s:5212
         0 000073   000163 710000 0                  TRA     s:5215
         0 000074   000426 710000 0                  TRA     s:5312
         0 000075   000435 710000 0                  TRA     s:5316
         0 000076   000161 710000 0                  TRA     s:5212
         0 000077   000444 710000 0                  TRA     s:5320
         0 000100   000161 710000 0                  TRA     s:5212
         0 000101   000453 710000 0                  TRA     s:5324
         0 000102   000462 710000 0                  TRA     s:5328
         0 000103   000161 710000 0                  TRA     s:5212
         0 000104   000471 710000 0                  TRA     s:5332
         0 000105   000500 710000 0                  TRA     s:5336
         0 000106   000507 710000 0                  TRA     s:5340
         0 000107   000161 710000 0                  TRA     s:5212
PL6.E3A0      #001=CPD$SET_NODES File=CPD$SETUP_NODES.:E05TSI                    TUE 07/29/97 11:33 Page:24
         0 000110   000516 710000 0                  TRA     s:5344
         0 000111   000161 710000 0                  TRA     s:5212
         0 000112   000163 710000 0                  TRA     s:5215
         0 000113   000543 710000 0                  TRA     s:5355
         0 000114   000552 710000 0                  TRA     s:5359
         0 000115   000556 710000 0                  TRA     s:5362
         0 000116   000566 710000 0                  TRA     s:5371
         0 000117   000161 710000 0                  TRA     s:5212
         0 000120   000161 710000 0                  TRA     s:5212
         0 000121   000161 710000 0                  TRA     s:5212
         0 000122   000575 710000 0                  TRA     s:5375
         0 000123   000604 710000 0                  TRA     s:5379
         0 000124   000163 710000 0                  TRA     s:5215
         0 000125   000610 710000 0                  TRA     s:5382
         0 000126   000161 710000 0                  TRA     s:5212
         0 000127   000743 710000 0                  TRA     s:5434
         0 000130   000617 710000 0                  TRA     s:5386
         0 000131   000163 710000 0                  TRA     s:5215
         0 000132   000626 710000 0                  TRA     s:5390
         0 000133   000635 710000 0                  TRA     s:5394
         0 000134   000644 710000 0                  TRA     s:5398
         0 000135   000653 710000 0                  TRA     s:5402
         0 000136   000662 710000 0                  TRA     s:5406
         0 000137   000163 710000 0                  TRA     s:5215
         0 000140   000671 710000 0                  TRA     s:5410
         0 000141   000700 710000 0                  TRA     s:5414
         0 000142   000707 710000 0                  TRA     s:5418
         0 000143   000725 710000 0                  TRA     s:5426
         0 000144   000734 710000 0                  TRA     s:5430
         0 000145   000401 710000 0                  TRA     s:5300
         0 000146   000311 710000 0                  TRA     s:5268
         0 000147   000562 710000 0                  TRA     s:5368
         0 000150   000161 710000 0                  TRA     s:5212
         0 000151   000161 710000 0                  TRA     s:5212
         0 000152   000336 710000 0                  TRA     s:5280
         0 000153   000525 710000 0                  TRA     s:5348
         0 000154   000534 710000 0                  TRA     s:5352
PL6.E3A0      #001=CPD$SET_NODES File=CPD$SETUP_NODES.:E05TSI                    TUE 07/29/97 11:33 Page:25
         0 000155   000163 710000 0                  TRA     s:5215
         0 000156   000163 710000 0                  TRA     s:5215
         0 000157   000327 710000 0                  TRA     s:5276
         0 000160   000716 710000 0                  TRA     s:5422

      159     5210        /**/
      160     5211    2         CASE(ELSE);

      161     5212    2             CALL_FLG = '0'B ;

   5212  0 000161   000000 450100                    STZ     0,,PR0
         0 000162   000751 710000 0                  TRA     s:5439

      162     5213    2         CASE(ADJUSTCMND, ERASECMND, HOLDCMND, LDEVCMND, PRINTCMND, RESETCMND,

      163     5214    2                SETCMND, TERMINALCMND, UNHOLDCMND);
      164     5215    2             NODES$ = ADDR(CPSL_NODES);

   5215  0 000163   000000 236000 1                  LDQ     0
         0 000164   200004 474500                    LDP4    @NODES$,,AUTO
         0 000165   400000 756100                    STQ     0,,PR4
         0 000166   000751 710000 0                  TRA     s:5439

      165     5216        /**/
      166     5217        /**/
      167     5218    2         CASE(ACCEPTCMND);

      168     5219    2             NODES$ = ADDR(ACCEPT_);

   5219  0 000167   000001 236000 1                  LDQ     1
         0 000170   200004 474500                    LDP4    @NODES$,,AUTO
         0 000171   400000 756100                    STQ     0,,PR4
         0 000172   000751 710000 0                  TRA     s:5439

      169     5220        /**/
      170     5221    2         CASE(ACQUIRECMND);

PL6.E3A0      #001=CPD$SET_NODES File=CPD$SETUP_NODES.:E05TSI                    TUE 07/29/97 11:33 Page:26
      171     5222    2             NODES$ = ADDR(ACQUIRE_);

   5222  0 000173   000002 236000 1                  LDQ     2
         0 000174   200004 474500                    LDP4    @NODES$,,AUTO
         0 000175   400000 756100                    STQ     0,,PR4

      172     5223    2             SPCL$$ = ENTADDR(CPX$ACQUIRE);

   5223  0 000176   000000 636000 xent               EAQ     CPX$ACQUIRE
         0 000177   200005 473500                    LDP3    @SPCL$$,,AUTO
         0 000200   300000 756100                    STQ     0,,PR3
         0 000201   000751 710000 0                  TRA     s:5439

      173     5224        /**/
      174     5225    2         CASE(ATITLECMND);

      175     5226    2             NODES$ = ADDR(ATITLE_);

   5226  0 000202   000003 236000 1                  LDQ     3
         0 000203   200004 474500                    LDP4    @NODES$,,AUTO
         0 000204   400000 756100                    STQ     0,,PR4

      176     5227    2             SPCL$$ = ENTADDR(CPX$ATITLE);

   5227  0 000205   000000 636000 xent               EAQ     CPX$ATITLE
         0 000206   200005 473500                    LDP3    @SPCL$$,,AUTO
         0 000207   300000 756100                    STQ     0,,PR3
         0 000210   000751 710000 0                  TRA     s:5439

      177     5228        /**/
      178     5229    2         CASE(BACKUPCMND);

      179     5230    2             NODES$ = ADDR(BACKUP_);

   5230  0 000211   000004 236000 1                  LDQ     4
         0 000212   200004 474500                    LDP4    @NODES$,,AUTO
         0 000213   400000 756100                    STQ     0,,PR4
PL6.E3A0      #001=CPD$SET_NODES File=CPD$SETUP_NODES.:E05TSI                    TUE 07/29/97 11:33 Page:27
         0 000214   000751 710000 0                  TRA     s:5439

      180     5231        /**/
      181     5232    2         CASE(BATCHCMND);

      182     5233    2             NODES$ = ADDR(BATCH_);

   5233  0 000215   000005 236000 1                  LDQ     5
         0 000216   200004 474500                    LDP4    @NODES$,,AUTO
         0 000217   400000 756100                    STQ     0,,PR4

      183     5234    2             SPCL$$ = ENTADDR(CPX$BATXEQ);

   5234  0 000220   000000 636000 xent               EAQ     CPX$BATXEQ
         0 000221   200005 473500                    LDP3    @SPCL$$,,AUTO
         0 000222   300000 756100                    STQ     0,,PR3
         0 000223   000751 710000 0                  TRA     s:5439

      184     5235        /**/
      185     5236    2         CASE(BYECMND);

      186     5237    2             NODES$ = ADDR(BYE_);

   5237  0 000224   000006 236000 1                  LDQ     6
         0 000225   200004 474500                    LDP4    @NODES$,,AUTO
         0 000226   400000 756100                    STQ     0,,PR4
         0 000227   000751 710000 0                  TRA     s:5439

      187     5238        /**/
      188     5239    2         CASE(CANCELCMND);

      189     5240    2             NODES$ = ADDR(CANCEL_);

   5240  0 000230   000007 236000 1                  LDQ     7
         0 000231   200004 474500                    LDP4    @NODES$,,AUTO
         0 000232   400000 756100                    STQ     0,,PR4

PL6.E3A0      #001=CPD$SET_NODES File=CPD$SETUP_NODES.:E05TSI                    TUE 07/29/97 11:33 Page:28
      190     5241    2             SPCL$$ = ENTADDR(CPX$CHECKNOTIFY);

   5241  0 000233   000000 636000 xent               EAQ     CPX$CHECKNOTIFY
         0 000234   200005 473500                    LDP3    @SPCL$$,,AUTO
         0 000235   300000 756100                    STQ     0,,PR3
         0 000236   000751 710000 0                  TRA     s:5439

      191     5242        /**/
      192     5243    2         CASE(CHECKCMND);

      193     5244    2              NODES$ = ADDR(CHECK_);

   5244  0 000237   000010 236000 1                  LDQ     8
         0 000240   200004 474500                    LDP4    @NODES$,,AUTO
         0 000241   400000 756100                    STQ     0,,PR4

      194     5245    2              SPCL$$ = ENTADDR(CPX$CHECKNOTIFY);

   5245  0 000242   000000 636000 xent               EAQ     CPX$CHECKNOTIFY
         0 000243   200005 473500                    LDP3    @SPCL$$,,AUTO
         0 000244   300000 756100                    STQ     0,,PR3
         0 000245   000751 710000 0                  TRA     s:5439

      195     5246        /**/
      196     5247    2         CASE(COMMENTCMND);

      197     5248    2              NODES$ = ADDR(COMMENT_);

   5248  0 000246   000011 236000 1                  LDQ     9
         0 000247   200004 474500                    LDP4    @NODES$,,AUTO
         0 000250   400000 756100                    STQ     0,,PR4

      198     5249    2              SPCL$$ = ENTADDR(CPX$COMMENT);

   5249  0 000251   000000 636000 xent               EAQ     CPX$COMMENT
         0 000252   200005 473500                    LDP3    @SPCL$$,,AUTO
         0 000253   300000 756100                    STQ     0,,PR3
PL6.E3A0      #001=CPD$SET_NODES File=CPD$SETUP_NODES.:E05TSI                    TUE 07/29/97 11:33 Page:29
         0 000254   000751 710000 0                  TRA     s:5439

      199     5250        /**/
      200     5251    2         CASE(DEFAULTCMND);

      201     5252    2              NODES$ = ADDR(DEFAULT_);

   5252  0 000255   000012 236000 1                  LDQ     10
         0 000256   200004 474500                    LDP4    @NODES$,,AUTO
         0 000257   400000 756100                    STQ     0,,PR4

      202     5253    2              SPCL$$ = ENTADDR(CPX$BATXEQ);

   5253  0 000260   000000 636000 xent               EAQ     CPX$BATXEQ
         0 000261   200005 473500                    LDP3    @SPCL$$,,AUTO
         0 000262   300000 756100                    STQ     0,,PR3
         0 000263   000751 710000 0                  TRA     s:5439

      203     5254        /**/
      204     5255    2         CASE(DIRECTORYCMND);

      205     5256    2              NODES$ = ADDR(DIRECTORY_);

   5256  0 000264   000013 236000 1                  LDQ     11
         0 000265   200004 474500                    LDP4    @NODES$,,AUTO
         0 000266   400000 756100                    STQ     0,,PR4

      206     5257    2              SPCL$$ = ENTADDR(CPX$DIRECTORY);

   5257  0 000267   000000 636000 xent               EAQ     CPX$DIRECTORY
         0 000270   200005 473500                    LDP3    @SPCL$$,,AUTO
         0 000271   300000 756100                    STQ     0,,PR3
         0 000272   000751 710000 0                  TRA     s:5439

      207     5258        /**/
      208     5259    2         CASE(DISPLAYCMND);

PL6.E3A0      #001=CPD$SET_NODES File=CPD$SETUP_NODES.:E05TSI                    TUE 07/29/97 11:33 Page:30
      209     5260    2              NODES$ = ADDR(DISPLAY_);

   5260  0 000273   000014 236000 1                  LDQ     12
         0 000274   200004 474500                    LDP4    @NODES$,,AUTO
         0 000275   400000 756100                    STQ     0,,PR4

      210     5261    2              SPCL$$ = ENTADDR(CPX$DISPLAY);

   5261  0 000276   000000 636000 xent               EAQ     CPX$DISPLAY
         0 000277   200005 473500                    LDP3    @SPCL$$,,AUTO
         0 000300   300000 756100                    STQ     0,,PR3
         0 000301   000751 710000 0                  TRA     s:5439

      211     5262        /**/
      212     5263    2         CASE(DONTCMND);

      213     5264    2              NODES$ = ADDR(DONT_);

   5264  0 000302   000015 236000 1                  LDQ     13
         0 000303   200004 474500                    LDP4    @NODES$,,AUTO
         0 000304   400000 756100                    STQ     0,,PR4

      214     5265    2              SPCL$$ = ENTADDR(CPX$DONT);

   5265  0 000305   000000 636000 xent               EAQ     CPX$DONT
         0 000306   200005 473500                    LDP3    @SPCL$$,,AUTO
         0 000307   300000 756100                    STQ     0,,PR3
         0 000310   000751 710000 0                  TRA     s:5439

      215     5266        /**/
      216     5267    2         CASE(DRIBBLECMND);

      217     5268    2              NODES$ = ADDR(DRIBBLE_);

   5268  0 000311   000016 236000 1                  LDQ     14
         0 000312   200004 474500                    LDP4    @NODES$,,AUTO
         0 000313   400000 756100                    STQ     0,,PR4
PL6.E3A0      #001=CPD$SET_NODES File=CPD$SETUP_NODES.:E05TSI                    TUE 07/29/97 11:33 Page:31

      218     5269    2              SPCL$$ = ENTADDR(CPX$DRIBBLE);

   5269  0 000314   000000 636000 xent               EAQ     CPX$DRIBBLE
         0 000315   200005 473500                    LDP3    @SPCL$$,,AUTO
         0 000316   300000 756100                    STQ     0,,PR3
         0 000317   000751 710000 0                  TRA     s:5439

      219     5270        /**/
      220     5271    2         CASE(ECHOCMND);

      221     5272    2              NODES$ = ADDR(ECHO_);

   5272  0 000320   000017 236000 1                  LDQ     15
         0 000321   200004 474500                    LDP4    @NODES$,,AUTO
         0 000322   400000 756100                    STQ     0,,PR4

      222     5273    2              SPCL$$ = ENTADDR(CPX$ECHO);

   5273  0 000323   000000 636000 xent               EAQ     CPX$ECHO
         0 000324   200005 473500                    LDP3    @SPCL$$,,AUTO
         0 000325   300000 756100                    STQ     0,,PR3
         0 000326   000751 710000 0                  TRA     s:5439

      223     5274        /**/
      224     5275    2         CASE(EJECTCMND);

      225     5276    2              NODES$ = ADDR(EJECT_);

   5276  0 000327   000020 236000 1                  LDQ     16
         0 000330   200004 474500                    LDP4    @NODES$,,AUTO
         0 000331   400000 756100                    STQ     0,,PR4

      226     5277    2              SPCL$$ = ENTADDR(CPX$EJECT);

   5277  0 000332   000000 636000 xent               EAQ     CPX$EJECT
         0 000333   200005 473500                    LDP3    @SPCL$$,,AUTO
PL6.E3A0      #001=CPD$SET_NODES File=CPD$SETUP_NODES.:E05TSI                    TUE 07/29/97 11:33 Page:32
         0 000334   300000 756100                    STQ     0,,PR3
         0 000335   000751 710000 0                  TRA     s:5439

      227     5278        /**/
      228     5279    2         CASE(EXPOUNDCMND);

      229     5280    2              NODES$ = ADDR(EXPOUND_);

   5280  0 000336   000021 236000 1                  LDQ     17
         0 000337   200004 474500                    LDP4    @NODES$,,AUTO
         0 000340   400000 756100                    STQ     0,,PR4

      230     5281    2              SPCL$$ = ENTADDR(CPX$EXPOUND);

   5281  0 000341   000000 636000 xent               EAQ     CPX$EXPOUND
         0 000342   200005 473500                    LDP3    @SPCL$$,,AUTO
         0 000343   300000 756100                    STQ     0,,PR3
         0 000344   000751 710000 0                  TRA     s:5439

      231     5282        /**/
      232     5283    2         CASE(GETCMND);

      233     5284    2              NODES$ = ADDR(GET_);

   5284  0 000345   000022 236000 1                  LDQ     18
         0 000346   200004 474500                    LDP4    @NODES$,,AUTO
         0 000347   400000 756100                    STQ     0,,PR4

      234     5285    2              SPCL$$ = ENTADDR(CPX$GET);

   5285  0 000350   000000 636000 xent               EAQ     CPX$GET
         0 000351   200005 473500                    LDP3    @SPCL$$,,AUTO
         0 000352   300000 756100                    STQ     0,,PR3
         0 000353   000751 710000 0                  TRA     s:5439

      235     5286        /**/
      236     5287    2         CASE(GLOBALCMND);
PL6.E3A0      #001=CPD$SET_NODES File=CPD$SETUP_NODES.:E05TSI                    TUE 07/29/97 11:33 Page:33

      237     5288    2              NODES$ = ADDR(GLOBAL_);

   5288  0 000354   000023 236000 1                  LDQ     19
         0 000355   200004 474500                    LDP4    @NODES$,,AUTO
         0 000356   400000 756100                    STQ     0,,PR4

      238     5289    2              SPCL$$ = ENTADDR(CPX$BATXEQ);

   5289  0 000357   000000 636000 xent               EAQ     CPX$BATXEQ
         0 000360   200005 473500                    LDP3    @SPCL$$,,AUTO
         0 000361   300000 756100                    STQ     0,,PR3
         0 000362   000751 710000 0                  TRA     s:5439

      239     5290        /**/
      240     5291    2         CASE(GOTOCMND);

      241     5292    2              NODES$ = ADDR(GOTO_);

   5292  0 000363   000024 236000 1                  LDQ     20
         0 000364   200004 474500                    LDP4    @NODES$,,AUTO
         0 000365   400000 756100                    STQ     0,,PR4

      242     5293    2              SPCL$$ = ENTADDR(CPX$GOTO);

   5293  0 000366   000000 636000 xent               EAQ     CPX$GOTO
         0 000367   200005 473500                    LDP3    @SPCL$$,,AUTO
         0 000370   300000 756100                    STQ     0,,PR3
         0 000371   000751 710000 0                  TRA     s:5439

      243     5294        /**/
      244     5295    2         CASE(HELPCMND);

      245     5296    2              NODES$ = ADDR(HELP_);

   5296  0 000372   000025 236000 1                  LDQ     21
         0 000373   200004 474500                    LDP4    @NODES$,,AUTO
PL6.E3A0      #001=CPD$SET_NODES File=CPD$SETUP_NODES.:E05TSI                    TUE 07/29/97 11:33 Page:34
         0 000374   400000 756100                    STQ     0,,PR4

      246     5297    2              SPCL$$ = ENTADDR(CPX$HELP);

   5297  0 000375   000000 636000 xent               EAQ     CPX$HELP
         0 000376   200005 473500                    LDP3    @SPCL$$,,AUTO
         0 000377   300000 756100                    STQ     0,,PR3
         0 000400   000751 710000 0                  TRA     s:5439

      247     5298        /**/
      248     5299    2         CASE(INCLUDECMND);

      249     5300    2              NODES$ = ADDR(INCLUDE_);

   5300  0 000401   000026 236000 1                  LDQ     22
         0 000402   200004 474500                    LDP4    @NODES$,,AUTO
         0 000403   400000 756100                    STQ     0,,PR4

      250     5301    2              SPCL$$ = ENTADDR(CPX$BATXEQ);

   5301  0 000404   000000 636000 xent               EAQ     CPX$BATXEQ
         0 000405   200005 473500                    LDP3    @SPCL$$,,AUTO
         0 000406   300000 756100                    STQ     0,,PR3
         0 000407   000751 710000 0                  TRA     s:5439

      251     5302        /**/
      252     5303    2         CASE(IFCMND);

      253     5304    2              NODES$ = ADDR(IF_);

   5304  0 000410   000027 236000 1                  LDQ     23
         0 000411   200004 474500                    LDP4    @NODES$,,AUTO
         0 000412   400000 756100                    STQ     0,,PR4

      254     5305    2              SPCL$$ = ENTADDR(CPX$LET);

   5305  0 000413   000000 636000 xent               EAQ     CPX$LET
PL6.E3A0      #001=CPD$SET_NODES File=CPD$SETUP_NODES.:E05TSI                    TUE 07/29/97 11:33 Page:35
         0 000414   200005 473500                    LDP3    @SPCL$$,,AUTO
         0 000415   300000 756100                    STQ     0,,PR3
         0 000416   000751 710000 0                  TRA     s:5439

      255     5306        /**/
      256     5307    2         CASE(JOBCMND);

      257     5308    2              NODES$ = ADDR(JOB_);

   5308  0 000417   000030 236000 1                  LDQ     24
         0 000420   200004 474500                    LDP4    @NODES$,,AUTO
         0 000421   400000 756100                    STQ     0,,PR4

      258     5309    2              SPCL$$ = ENTADDR(CPX$JOB);

   5309  0 000422   000000 636000 xent               EAQ     CPX$JOB
         0 000423   200005 473500                    LDP3    @SPCL$$,,AUTO
         0 000424   300000 756100                    STQ     0,,PR3
         0 000425   000751 710000 0                  TRA     s:5439

      259     5310        /**/
      260     5311    2         CASE(LETCMND);

      261     5312    2              NODES$ = ADDR(LET_);

   5312  0 000426   000031 236000 1                  LDQ     25
         0 000427   200004 474500                    LDP4    @NODES$,,AUTO
         0 000430   400000 756100                    STQ     0,,PR4

      262     5313    2              SPCL$$ = ENTADDR(CPX$LET);

   5313  0 000431   000000 636000 xent               EAQ     CPX$LET
         0 000432   200005 473500                    LDP3    @SPCL$$,,AUTO
         0 000433   300000 756100                    STQ     0,,PR3
         0 000434   000751 710000 0                  TRA     s:5439

      263     5314        /**/
PL6.E3A0      #001=CPD$SET_NODES File=CPD$SETUP_NODES.:E05TSI                    TUE 07/29/97 11:33 Page:36
      264     5315    2         CASE(LIMITCMND);

      265     5316    2              NODES$ = ADDR(LIMIT_);

   5316  0 000435   000032 236000 1                  LDQ     26
         0 000436   200004 474500                    LDP4    @NODES$,,AUTO
         0 000437   400000 756100                    STQ     0,,PR4

      266     5317    2              SPCL$$ = ENTADDR(CPX$LIMIT);

   5317  0 000440   000000 636000 xent               EAQ     CPX$LIMIT
         0 000441   200005 473500                    LDP3    @SPCL$$,,AUTO
         0 000442   300000 756100                    STQ     0,,PR3
         0 000443   000751 710000 0                  TRA     s:5439

      267     5318        /**/
      268     5319    2         CASE(LISTCMND);

      269     5320    2             NODES$ = ADDR(LIST_);

   5320  0 000444   000033 236000 1                  LDQ     27
         0 000445   200004 474500                    LDP4    @NODES$,,AUTO
         0 000446   400000 756100                    STQ     0,,PR4

      270     5321    2             SPCL$$ = ENTADDR(CPX$LIST);

   5321  0 000447   000000 636000 xent               EAQ     CPX$LIST
         0 000450   200005 473500                    LDP3    @SPCL$$,,AUTO
         0 000451   300000 756100                    STQ     0,,PR3
         0 000452   000751 710000 0                  TRA     s:5439

      271     5322        /**/
      272     5323    2         CASE(MESSAGECMND);

      273     5324    2             NODES$ = ADDR(MESSAGE_);

   5324  0 000453   000034 236000 1                  LDQ     28
PL6.E3A0      #001=CPD$SET_NODES File=CPD$SETUP_NODES.:E05TSI                    TUE 07/29/97 11:33 Page:37
         0 000454   200004 474500                    LDP4    @NODES$,,AUTO
         0 000455   400000 756100                    STQ     0,,PR4

      274     5325    2             SPCL$$ = ENTADDR(CPX$MESSAGE);

   5325  0 000456   000000 636000 xent               EAQ     CPX$MESSAGE
         0 000457   200005 473500                    LDP3    @SPCL$$,,AUTO
         0 000460   300000 756100                    STQ     0,,PR3
         0 000461   000751 710000 0                  TRA     s:5439

      275     5326        /**/
      276     5327    2         CASE(NOTIFYCMND);

      277     5328    2             NODES$ = ADDR(NOTIFY_);

   5328  0 000462   000035 236000 1                  LDQ     29
         0 000463   200004 474500                    LDP4    @NODES$,,AUTO
         0 000464   400000 756100                    STQ     0,,PR4

      278     5329    2             SPCL$$ = ENTADDR(CPX$CHECKNOTIFY);

   5329  0 000465   000000 636000 xent               EAQ     CPX$CHECKNOTIFY
         0 000466   200005 473500                    LDP3    @SPCL$$,,AUTO
         0 000467   300000 756100                    STQ     0,,PR3
         0 000470   000751 710000 0                  TRA     s:5439

      279     5330        /**/
      280     5331    2         CASE(ORESCMND);

      281     5332    2             NODES$ = ADDR(ORES_);

   5332  0 000471   000036 236000 1                  LDQ     30
         0 000472   200004 474500                    LDP4    @NODES$,,AUTO
         0 000473   400000 756100                    STQ     0,,PR4

      282     5333    2             SPCL$$ = ENTADDR(CPX$RESOURC);

PL6.E3A0      #001=CPD$SET_NODES File=CPD$SETUP_NODES.:E05TSI                    TUE 07/29/97 11:33 Page:38
   5333  0 000474   000000 636000 xent               EAQ     CPX$RESOURC
         0 000475   200005 473500                    LDP3    @SPCL$$,,AUTO
         0 000476   300000 756100                    STQ     0,,PR3
         0 000477   000751 710000 0                  TRA     s:5439

      283     5334        /**/
      284     5335    2         CASE(OUTPUTCMND);

      285     5336    2             NODES$ = ADDR(OUTPUT_);

   5336  0 000500   000037 236000 1                  LDQ     31
         0 000501   200004 474500                    LDP4    @NODES$,,AUTO
         0 000502   400000 756100                    STQ     0,,PR4

      286     5337    2             SPCL$$ = ENTADDR(CPX$LET);

   5337  0 000503   000000 636000 xent               EAQ     CPX$LET
         0 000504   200005 473500                    LDP3    @SPCL$$,,AUTO
         0 000505   300000 756100                    STQ     0,,PR3
         0 000506   000751 710000 0                  TRA     s:5439

      287     5338        /**/
      288     5339    2         CASE(PASSWORDCMND);

      289     5340    2             NODES$ = ADDR(PASSWORD_);

   5340  0 000507   000040 236000 1                  LDQ     32
         0 000510   200004 474500                    LDP4    @NODES$,,AUTO
         0 000511   400000 756100                    STQ     0,,PR4

      290     5341    2             SPCL$$ = ENTADDR(CPX$PASSWORD);

   5341  0 000512   000000 636000 xent               EAQ     CPX$PASSWORD
         0 000513   200005 473500                    LDP3    @SPCL$$,,AUTO
         0 000514   300000 756100                    STQ     0,,PR3
         0 000515   000751 710000 0                  TRA     s:5439

PL6.E3A0      #001=CPD$SET_NODES File=CPD$SETUP_NODES.:E05TSI                    TUE 07/29/97 11:33 Page:39
      291     5342        /**/
      292     5343    2         CASE(PLATENCMND);

      293     5344    2             NODES$ = ADDR(PLATEN_);

   5344  0 000516   000041 236000 1                  LDQ     33
         0 000517   200004 474500                    LDP4    @NODES$,,AUTO
         0 000520   400000 756100                    STQ     0,,PR4

      294     5345    2             SPCL$$ = ENTADDR(CPX$PLATEN);

   5345  0 000521   000000 636000 xent               EAQ     CPX$PLATEN
         0 000522   200005 473500                    LDP3    @SPCL$$,,AUTO
         0 000523   300000 756100                    STQ     0,,PR3
         0 000524   000751 710000 0                  TRA     s:5439

      295     5346        /**/
      296     5347    2         CASE(POINTCMND);

      297     5348    2              NODES$ = ADDR(POINT_);

   5348  0 000525   000042 236000 1                  LDQ     34
         0 000526   200004 474500                    LDP4    @NODES$,,AUTO
         0 000527   400000 756100                    STQ     0,,PR4

      298     5349    2              SPCL$$ = ENTADDR(CPX$POINT);

   5349  0 000530   000000 636000 xent               EAQ     CPX$POINT
         0 000531   200005 473500                    LDP3    @SPCL$$,,AUTO
         0 000532   300000 756100                    STQ     0,,PR3
         0 000533   000751 710000 0                  TRA     s:5439

      299     5350        /**/
      300     5351    2         CASE(POSITIONCMND);

      301     5352    2              NODES$ = ADDR(POSITION_);

PL6.E3A0      #001=CPD$SET_NODES File=CPD$SETUP_NODES.:E05TSI                    TUE 07/29/97 11:33 Page:40
   5352  0 000534   000043 236000 1                  LDQ     35
         0 000535   200004 474500                    LDP4    @NODES$,,AUTO
         0 000536   400000 756100                    STQ     0,,PR4

      302     5353    2              SPCL$$ = ENTADDR(CPX$POSITION);

   5353  0 000537   000000 636000 xent               EAQ     CPX$POSITION
         0 000540   200005 473500                    LDP3    @SPCL$$,,AUTO
         0 000541   300000 756100                    STQ     0,,PR3
         0 000542   000751 710000 0                  TRA     s:5439

      303     5354    2         CASE(PRIORITYCMND);

      304     5355    2             NODES$ = ADDR(PRIORITY_);

   5355  0 000543   000044 236000 1                  LDQ     36
         0 000544   200004 474500                    LDP4    @NODES$,,AUTO
         0 000545   400000 756100                    STQ     0,,PR4

      305     5356    2             SPCL$$ = ENTADDR(CPX$PRIORITY);

   5356  0 000546   000000 636000 xent               EAQ     CPX$PRIORITY
         0 000547   200005 473500                    LDP3    @SPCL$$,,AUTO
         0 000550   300000 756100                    STQ     0,,PR3
         0 000551   000751 710000 0                  TRA     s:5439

      306     5357        /**/
      307     5358    2         CASE(PRIVCMND);

      308     5359    2             NODES$ = ADDR(PRIV_);

   5359  0 000552   000045 236000 1                  LDQ     37
         0 000553   200004 474500                    LDP4    @NODES$,,AUTO
         0 000554   400000 756100                    STQ     0,,PR4
         0 000555   000751 710000 0                  TRA     s:5439

      309     5360        /**/
PL6.E3A0      #001=CPD$SET_NODES File=CPD$SETUP_NODES.:E05TSI                    TUE 07/29/97 11:33 Page:41
      310     5361    2         CASE(PROFILECMND);

      311     5362    2             NODES$ = ADDR(PROFILE_);

   5362  0 000556   000046 236000 1                  LDQ     38
         0 000557   200004 474500                    LDP4    @NODES$,,AUTO
         0 000560   400000 756100                    STQ     0,,PR4
         0 000561   000751 710000 0                  TRA     s:5439

      312     5363        /* ****   PERFORM THE FOLLOWING VALIDITY CHECK:
      313     5364                  PROFILE NAME NOT TO EXCEED 11 CHARACTERS
      314     5365        */
      315     5366        /**/
      316     5367    2         CASE(PROMPTCMND);

      317     5368    2             NODES$ = ADDR(PROMPT_);

   5368  0 000562   000047 236000 1                  LDQ     39
         0 000563   200004 474500                    LDP4    @NODES$,,AUTO
         0 000564   400000 756100                    STQ     0,,PR4
         0 000565   000751 710000 0                  TRA     s:5439

      318     5369        /**/
      319     5370    2         CASE(PROTECTCMND);

      320     5371    2              NODES$ = ADDR(PROTECT_);

   5371  0 000566   000050 236000 1                  LDQ     40
         0 000567   200004 474500                    LDP4    @NODES$,,AUTO
         0 000570   400000 756100                    STQ     0,,PR4

      321     5372    2              SPCL$$ = ENTADDR(CPX$PROTECT);

   5372  0 000571   000000 636000 xent               EAQ     CPX$PROTECT
         0 000572   200005 473500                    LDP3    @SPCL$$,,AUTO
         0 000573   300000 756100                    STQ     0,,PR3
         0 000574   000751 710000 0                  TRA     s:5439
PL6.E3A0      #001=CPD$SET_NODES File=CPD$SETUP_NODES.:E05TSI                    TUE 07/29/97 11:33 Page:42

      322     5373        /**/
      323     5374    2         CASE(RELEASECMND);

      324     5375    2             NODES$ = ADDR(RELEASE_);

   5375  0 000575   000051 236000 1                  LDQ     41
         0 000576   200004 474500                    LDP4    @NODES$,,AUTO
         0 000577   400000 756100                    STQ     0,,PR4

      325     5376    2             SPCL$$ = ENTADDR(CPX$RESOURC);

   5376  0 000600   000000 636000 xent               EAQ     CPX$RESOURC
         0 000601   200005 473500                    LDP3    @SPCL$$,,AUTO
         0 000602   300000 756100                    STQ     0,,PR3
         0 000603   000751 710000 0                  TRA     s:5439

      326     5377        /**/
      327     5378    2         CASE(REPORTCMND);

      328     5379    2             NODES$ = ADDR(REPORT_);

   5379  0 000604   000052 236000 1                  LDQ     42
         0 000605   200004 474500                    LDP4    @NODES$,,AUTO
         0 000606   400000 756100                    STQ     0,,PR4
         0 000607   000751 710000 0                  TRA     s:5439

      329     5380        /**/
      330     5381    2         CASE(RESOURCECMND);

      331     5382    2             NODES$ = ADDR(RESOURCE_);

   5382  0 000610   000053 236000 1                  LDQ     43
         0 000611   200004 474500                    LDP4    @NODES$,,AUTO
         0 000612   400000 756100                    STQ     0,,PR4

      332     5383    2             SPCL$$ = ENTADDR(CPX$RESOURC);
PL6.E3A0      #001=CPD$SET_NODES File=CPD$SETUP_NODES.:E05TSI                    TUE 07/29/97 11:33 Page:43

   5383  0 000613   000000 636000 xent               EAQ     CPX$RESOURC
         0 000614   200005 473500                    LDP3    @SPCL$$,,AUTO
         0 000615   300000 756100                    STQ     0,,PR3
         0 000616   000751 710000 0                  TRA     s:5439

      333     5384        /**/
      334     5385    2         CASE(SAVECMND);

      335     5386    2             NODES$ = ADDR(SAVE_);

   5386  0 000617   000054 236000 1                  LDQ     44
         0 000620   200004 474500                    LDP4    @NODES$,,AUTO
         0 000621   400000 756100                    STQ     0,,PR4

      336     5387    2             SPCL$$ = ENTADDR(CPX$SAVE);

   5387  0 000622   000000 636000 xent               EAQ     CPX$SAVE
         0 000623   200005 473500                    LDP3    @SPCL$$,,AUTO
         0 000624   300000 756100                    STQ     0,,PR3
         0 000625   000751 710000 0                  TRA     s:5439

      337     5388        /**/
      338     5389    2         CASE(SETUPCMND);

      339     5390    2             NODES$ = ADDR(SETUP_);

   5390  0 000626   000055 236000 1                  LDQ     45
         0 000627   200004 474500                    LDP4    @NODES$,,AUTO
         0 000630   400000 756100                    STQ     0,,PR4

      340     5391    2             SPCL$$ = ENTADDR(CPX$SETUP);

   5391  0 000631   000000 636000 xent               EAQ     CPX$SETUP
         0 000632   200005 473500                    LDP3    @SPCL$$,,AUTO
         0 000633   300000 756100                    STQ     0,,PR3
         0 000634   000751 710000 0                  TRA     s:5439
PL6.E3A0      #001=CPD$SET_NODES File=CPD$SETUP_NODES.:E05TSI                    TUE 07/29/97 11:33 Page:44

      341     5392        /**/
      342     5393    2         CASE(STARTCMND);

      343     5394    2             NODES$ = ADDR(START_);

   5394  0 000635   000056 236000 1                  LDQ     46
         0 000636   200004 474500                    LDP4    @NODES$,,AUTO
         0 000637   400000 756100                    STQ     0,,PR4

      344     5395    2             SPCL$$ = ENTADDR(CPX$START);

   5395  0 000640   000000 636000 xent               EAQ     CPX$START
         0 000641   200005 473500                    LDP3    @SPCL$$,,AUTO
         0 000642   300000 756100                    STQ     0,,PR3
         0 000643   000751 710000 0                  TRA     s:5439

      345     5396        /**/
      346     5397    2         CASE(STATUSCMND);

      347     5398    2             NODES$ = ADDR(STATUS_);

   5398  0 000644   000057 236000 1                  LDQ     47
         0 000645   200004 474500                    LDP4    @NODES$,,AUTO
         0 000646   400000 756100                    STQ     0,,PR4

      348     5399    2             SPCL$$ = ENTADDR(CPX$STATUS);

   5399  0 000647   000000 636000 xent               EAQ     CPX$STATUS
         0 000650   200005 473500                    LDP3    @SPCL$$,,AUTO
         0 000651   300000 756100                    STQ     0,,PR3
         0 000652   000751 710000 0                  TRA     s:5439

      349     5400        /**/
      350     5401    2         CASE(SWITCHCMND);

      351     5402    2             NODES$ = ADDR(SWITCH_);
PL6.E3A0      #001=CPD$SET_NODES File=CPD$SETUP_NODES.:E05TSI                    TUE 07/29/97 11:33 Page:45

   5402  0 000653   000060 236000 1                  LDQ     48
         0 000654   200004 474500                    LDP4    @NODES$,,AUTO
         0 000655   400000 756100                    STQ     0,,PR4

      352     5403    2             SPCL$$ = ENTADDR(CPX$SWITCH);

   5403  0 000656   000000 636000 xent               EAQ     CPX$SWITCH
         0 000657   200005 473500                    LDP3    @SPCL$$,,AUTO
         0 000660   300000 756100                    STQ     0,,PR3
         0 000661   000751 710000 0                  TRA     s:5439

      353     5404        /**/
      354     5405    2         CASE(TABSCMND);

      355     5406    2             NODES$ = ADDR(TABS_);

   5406  0 000662   000061 236000 1                  LDQ     49
         0 000663   200004 474500                    LDP4    @NODES$,,AUTO
         0 000664   400000 756100                    STQ     0,,PR4

      356     5407    2             SPCL$$ = ENTADDR(CPX$TABS);

   5407  0 000665   000000 636000 xent               EAQ     CPX$TABS
         0 000666   200005 473500                    LDP3    @SPCL$$,,AUTO
         0 000667   300000 756100                    STQ     0,,PR3
         0 000670   000751 710000 0                  TRA     s:5439

      357     5408        /**/
      358     5409    2         CASE(TIMECMND);

      359     5410    2             NODES$ = ADDR(TIME_);

   5410  0 000671   000062 236000 1                  LDQ     50
         0 000672   200004 474500                    LDP4    @NODES$,,AUTO
         0 000673   400000 756100                    STQ     0,,PR4

PL6.E3A0      #001=CPD$SET_NODES File=CPD$SETUP_NODES.:E05TSI                    TUE 07/29/97 11:33 Page:46
      360     5411    2              SPCL$$ = ENTADDR(CPX$TIME);

   5411  0 000674   000000 636000 xent               EAQ     CPX$TIME
         0 000675   200005 473500                    LDP3    @SPCL$$,,AUTO
         0 000676   300000 756100                    STQ     0,,PR3
         0 000677   000751 710000 0                  TRA     s:5439

      361     5412        /**/
      362     5413    2         CASE(TITLECMND);

      363     5414    2             NODES$ = ADDR(TITLE_);

   5414  0 000700   000063 236000 1                  LDQ     51
         0 000701   200004 474500                    LDP4    @NODES$,,AUTO
         0 000702   400000 756100                    STQ     0,,PR4

      364     5415    2             SPCL$$ = ENTADDR(CPX$TITLE);

   5415  0 000703   000000 636000 xent               EAQ     CPX$TITLE
         0 000704   200005 473500                    LDP3    @SPCL$$,,AUTO
         0 000705   300000 756100                    STQ     0,,PR3
         0 000706   000751 710000 0                  TRA     s:5439

      365     5416        /**/
      366     5417    2         CASE(UCMND);

      367     5418    2             NODES$ = ADDR(UNDER_);

   5418  0 000707   000064 236000 1                  LDQ     52
         0 000710   200004 474500                    LDP4    @NODES$,,AUTO
         0 000711   400000 756100                    STQ     0,,PR4

      368     5419    2             SPCL$$ = ENTADDR(CPX$U);

   5419  0 000712   000000 636000 xent               EAQ     CPX$U
         0 000713   200005 473500                    LDP3    @SPCL$$,,AUTO
         0 000714   300000 756100                    STQ     0,,PR3
PL6.E3A0      #001=CPD$SET_NODES File=CPD$SETUP_NODES.:E05TSI                    TUE 07/29/97 11:33 Page:47
         0 000715   000751 710000 0                  TRA     s:5439

      369     5420        /**/
      370     5421    2         CASE(WHENCMND);

      371     5422    2             NODES$ = ADDR(WHEN_);

   5422  0 000716   000065 236000 1                  LDQ     53
         0 000717   200004 474500                    LDP4    @NODES$,,AUTO
         0 000720   400000 756100                    STQ     0,,PR4

      372     5423    2             SPCL$$ = ENTADDR(CPX$LET);

   5423  0 000721   000000 636000 xent               EAQ     CPX$LET
         0 000722   200005 473500                    LDP3    @SPCL$$,,AUTO
         0 000723   300000 756100                    STQ     0,,PR3
         0 000724   000751 710000 0                  TRA     s:5439

      373     5424        /**/
      374     5425    2         CASE(XEQCMND);

      375     5426    2             NODES$ = ADDR(XEQ_);

   5426  0 000725   000066 236000 1                  LDQ     54
         0 000726   200004 474500                    LDP4    @NODES$,,AUTO
         0 000727   400000 756100                    STQ     0,,PR4

      376     5427    2             SPCL$$ = ENTADDR(CPX$BATXEQ);

   5427  0 000730   000000 636000 xent               EAQ     CPX$BATXEQ
         0 000731   200005 473500                    LDP3    @SPCL$$,,AUTO
         0 000732   300000 756100                    STQ     0,,PR3
         0 000733   000751 710000 0                  TRA     s:5439

      377     5428        /**/
      378     5429    2         CASE(XMITCMND);

PL6.E3A0      #001=CPD$SET_NODES File=CPD$SETUP_NODES.:E05TSI                    TUE 07/29/97 11:33 Page:48
      379     5430    2             NODES$ = ADDR(XMIT_);

   5430  0 000734   000067 236000 1                  LDQ     55
         0 000735   200004 474500                    LDP4    @NODES$,,AUTO
         0 000736   400000 756100                    STQ     0,,PR4

      380     5431    2             SPCL$$ = ENTADDR(CPX$BATXEQ);

   5431  0 000737   000000 636000 xent               EAQ     CPX$BATXEQ
         0 000740   200005 473500                    LDP3    @SPCL$$,,AUTO
         0 000741   300000 756100                    STQ     0,,PR3
         0 000742   000751 710000 0                  TRA     s:5439

      381     5432        /**/
      382     5433    2         CASE(RUNITCMND,MINICMND);

      383     5434    2             NODES$ = ADDR(RU_);

   5434  0 000743   000070 236000 1                  LDQ     56
         0 000744   200004 474500                    LDP4    @NODES$,,AUTO
         0 000745   400000 756100                    STQ     0,,PR4

      384     5435    2             SPCL$$ = ENTADDR(CPX$RUNIT);

   5435  0 000746   000000 636000 xent               EAQ     CPX$RUNIT
         0 000747   200005 473500                    LDP3    @SPCL$$,,AUTO
         0 000750   300000 756100                    STQ     0,,PR3

      385     5436        /**/
      386     5437    2     END;

      387     5438        /**/
      388     5439    1     RETURN ;

   5439  0 000751   000000 702200 xent               TSX2  ! X66_ARET
      389     5440        /**/
      390     5441    1   END   CPD$SET_NODES ;
PL6.E3A0      #001=CPD$SET_NODES File=CPD$SETUP_NODES.:E05TSI                    TUE 07/29/97 11:33 Page:49
      391     5442        %EOD ;

PL6.E3A0      #001=CPD$SET_NODES File=CPD$SETUP_NODES.:E05TSI                    TUE 07/29/97 11:33 Page:50
--  Include file information  --

   XU_MACRO_C.:E05TOU  is referenced.
   CP_SUBS_C.:E05TOU  is referenced.
   CP_MACROS_C.:E05TOU  is referenced.
   B$JIT_C.:E05TOU  was found in the system file and is never referenced.
   CP_6_C.:E05TOU  was found in the system file and is never referenced.
      No diagnostics issued in procedure CPD$SET_NODES.
PL6.E3A0      #001=CPD$SET_NODES File=CPD$SETUP_NODES.:E05TSI                    TUE 07/29/97 11:33 Page:51

 **** Variables and constants ****

  ****  Auto variables  ****

  ****  Scalars and arrays  ****
OctLoc.c.b A Datatyp(siz) R M Lvl/name                 OctLoc.c.b A Datatyp(siz) R M Lvl/name

     6-0-0/w PTR         r     1 @CALL_FLG                  4-0-0/w PTR         r     1 @NODES$
     3-0-0/w PTR         r     1 @PCB                       5-0-0/w PTR         r     1 @SPCL$$
    *0-0-0/w BIT         r     1 CALL_FLG                  *0-0-0/w PTR         r     1 NODES$
    *0-0-0/w STRC(504)   r     1 PCB                       *0-0-0/w EPTR        r     1 SPCL$$

  ****  SYMREF variables  ****

  ****  Scalars and arrays  ****
OctLoc.c.b A Datatyp(siz) R M Lvl/name                 OctLoc.c.b A Datatyp(siz) R M Lvl/name

     0-0-0/b BIT         r     1 ACCEPT_                    0-0-0/b BIT         r     1 ACQUIRE_
     0-0-0/b BIT         r     1 ATITLE_                    0-0-0/b BIT         r     1 BACKUP_
     0-0-0/b BIT         r     1 BATCH_                     0-0-0/b BIT         r     1 BYE_
     0-0-0/b BIT         r     1 CANCEL_                    0-0-0/b BIT         r     1 CHECK_
     0-0-0/b BIT         r     1 COMMENT_                   0-0-0/b BIT         r     1 CPSL_NODES
     0-0-0/b BIT         r     1 DEFAULT_                   0-0-0/b BIT         r     1 DIRECTORY_
     0-0-0/b BIT         r     1 DISPLAY_                   0-0-0/b BIT         r     1 DONT_
     0-0-0/b BIT         r     1 DRIBBLE_                   0-0-0/b BIT         r     1 ECHO_
     0-0-0/b BIT         r     1 EJECT_                     0-0-0/b BIT         r     1 EXPOUND_
     0-0-0/b BIT         r     1 GET_                       0-0-0/b BIT         r     1 GLOBAL_
     0-0-0/b BIT         r     1 GOTO_                      0-0-0/b BIT         r     1 HELP_
     0-0-0/b BIT         r     1 IF_                        0-0-0/b BIT         r     1 INCLUDE_
     0-0-0/b BIT         r     1 JOB_                       0-0-0/b BIT         r     1 LET_
     0-0-0/b BIT         r     1 LIMIT_                     0-0-0/b BIT         r     1 LIST_
     0-0-0/b BIT         r     1 MESSAGE_                   0-0-0/b BIT         r     1 NOTIFY_
     0-0-0/b BIT         r     1 ORES_                      0-0-0/b BIT         r     1 OUTPUT_
     0-0-0/b BIT         r     1 PASSWORD_                  0-0-0/b BIT         r     1 PLATEN_
     0-0-0/b BIT         r     1 POINT_                     0-0-0/b BIT         r     1 POSITION_
     0-0-0/b BIT         r     1 PRIORITY_                  0-0-0/b BIT         r     1 PRIV_
     0-0-0/b BIT         r     1 PROFILE_                   0-0-0/b BIT         r     1 PROMPT_
PL6.E3A0      #001=CPD$SET_NODES File=CPD$SETUP_NODES.:E05TSI                    TUE 07/29/97 11:33 Page:52
     0-0-0/b BIT         r     1 PROTECT_                   0-0-0/b BIT         r     1 RELEASE_
     0-0-0/b BIT         r     1 REPORT_                    0-0-0/b BIT         r     1 RESOURCE_
     0-0-0/b BIT         r     1 RU_                        0-0-0/b BIT         r     1 SAVE_
     0-0-0/b BIT         r     1 SETUP_                     0-0-0/b BIT         r     1 START_
     0-0-0/b BIT         r     1 STATUS_                    0-0-0/b BIT         r     1 SWITCH_
     0-0-0/b BIT         r     1 TABS_                      0-0-0/b BIT         r     1 TIME_
     0-0-0/b BIT         r     1 TITLE_                     0-0-0/b BIT         r     1 UNDER_
     0-0-0/b BIT         r     1 WHEN_                      0-0-0/b BIT         r     1 XEQ_
     0-0-0/b BIT         r     1 XMIT_

  ****  BASED and DCB variables  ****

  ****  Scalars and arrays  ****
OctLoc.c.b A Datatyp(siz) R M Lvl/name                 OctLoc.c.b A Datatyp(siz) R M Lvl/name

     0-0-0/c CHAR(256)   r     1 B$TEXT                     0-0-0/w STRC(144)   r     1 P$B
     0-0-0/w ASTR(153)   r     1 P$S


   Procedure CPD$SET_NODES requires 490 words for executable code.
   Procedure CPD$SET_NODES requires 8 words of local(AUTO) storage.
PL6.E3A0      #001=CPD$SET_NODES File=CPD$SETUP_NODES.:E05TSI                    TUE 07/29/97 11:33 Page:53
          *** CROSS REFERENCE LISTING ***
**     DENOTES     IDENTIFIER DEFINITION
<<                 IDENTIFIER'S VALUE SET
>>                 IDENTIFIER'S VALUE USED
<>                 IDENTIFIER SET AND/OR USED
--                 IDENTIFIER REFERENCED
PL6.E3A0      #001=CPD$SET_NODES File=CPD$SETUP_NODES.:E05TSI                    TUE 07/29/97 11:33 Page:54
          MINI XREF LISTING

ACCEPT_
      5001**DCL      5219--ASSIGN
ACQUIRE_
      5002**DCL      5222--ASSIGN
ATITLE_
      5003**DCL      5226--ASSIGN
B$TEXT
      5197**DCL      5202<<CALLBLT
BACKUP_
      5004**DCL      5230--ASSIGN
BATCH_
      5005**DCL      5233--ASSIGN
BYE_
      5006**DCL      5237--ASSIGN
CALL_FLG
      4996**DCL        15--PROC     5199<<ASSIGN   5212<<ASSIGN
CANCEL_
      5007**DCL      5240--ASSIGN
CHECK_
      5008**DCL      5244--ASSIGN
COMMENT_
      5009**DCL      5248--ASSIGN
CPSL_NODES
      5010**DCL      5215--ASSIGN
CPX$ACQUIRE
      5062**DCL-ENT  5223--ASSIGN
CPX$ATITLE
      5063**DCL-ENT  5227--ASSIGN
CPX$BATXEQ
      5064**DCL-ENT  5234--ASSIGN   5253--ASSIGN   5289--ASSIGN   5301--ASSIGN   5427--ASSIGN   5431--ASSIGN
CPX$CHECKNOTIFY
      5066**DCL-ENT  5241--ASSIGN   5245--ASSIGN   5329--ASSIGN
PL6.E3A0      #001=CPD$SET_NODES File=CPD$SETUP_NODES.:E05TSI                    TUE 07/29/97 11:33 Page:55
CPX$COMMENT
      5067**DCL-ENT  5249--ASSIGN
CPX$DIRECTORY
      5073**DCL-ENT  5257--ASSIGN
CPX$DISPLAY
      5074**DCL-ENT  5261--ASSIGN
CPX$DONT
      5075**DCL-ENT  5265--ASSIGN
CPX$DRIBBLE
      5076**DCL-ENT  5269--ASSIGN
CPX$ECHO
      5077**DCL-ENT  5273--ASSIGN
CPX$EJECT
      5078**DCL-ENT  5277--ASSIGN
CPX$EXPOUND
      5079**DCL-ENT  5281--ASSIGN
CPX$GET
      5080**DCL-ENT  5285--ASSIGN
CPX$GOTO
      5083**DCL-ENT  5293--ASSIGN
CPX$HELP
      5084**DCL-ENT  5297--ASSIGN
CPX$JOB
      5085**DCL-ENT  5309--ASSIGN
CPX$LET
      5086**DCL-ENT  5305--ASSIGN   5313--ASSIGN   5337--ASSIGN   5423--ASSIGN
CPX$LIMIT
      5088**DCL-ENT  5317--ASSIGN
CPX$LIST
      5087**DCL-ENT  5321--ASSIGN
CPX$MESSAGE
      5090**DCL-ENT  5325--ASSIGN
CPX$PASSWORD
      5091**DCL-ENT  5341--ASSIGN
CPX$PLATEN
      5092**DCL-ENT  5345--ASSIGN
PL6.E3A0      #001=CPD$SET_NODES File=CPD$SETUP_NODES.:E05TSI                    TUE 07/29/97 11:33 Page:56
CPX$POINT
      5093**DCL-ENT  5349--ASSIGN
CPX$POSITION
      5094**DCL-ENT  5353--ASSIGN
CPX$PRIORITY
      5095**DCL-ENT  5356--ASSIGN
CPX$PROTECT
      5098**DCL-ENT  5372--ASSIGN
CPX$RESOURC
      5100**DCL-ENT  5333--ASSIGN   5376--ASSIGN   5383--ASSIGN
CPX$RUNIT
      5101**DCL-ENT  5435--ASSIGN
CPX$SAVE
      5102**DCL-ENT  5387--ASSIGN
CPX$SETUP
      5103**DCL-ENT  5391--ASSIGN
CPX$START
      5104**DCL-ENT  5395--ASSIGN
CPX$STATUS
      5105**DCL-ENT  5399--ASSIGN
CPX$SWITCH
      5106**DCL-ENT  5403--ASSIGN
CPX$TABS
      5107**DCL-ENT  5407--ASSIGN
CPX$TIME
      5108**DCL-ENT  5411--ASSIGN
CPX$TITLE
      5109**DCL-ENT  5415--ASSIGN
CPX$U
      5110**DCL-ENT  5419--ASSIGN
DEFAULT_
      5011**DCL      5252--ASSIGN
DIRECTORY_
      5012**DCL      5256--ASSIGN
DISPLAY_
      5013**DCL      5260--ASSIGN
PL6.E3A0      #001=CPD$SET_NODES File=CPD$SETUP_NODES.:E05TSI                    TUE 07/29/97 11:33 Page:57
DONT_
      5014**DCL      5264--ASSIGN
DRIBBLE_
      5015**DCL      5268--ASSIGN
ECHO_
      5016**DCL      5272--ASSIGN
EJECT_
      5017**DCL      5276--ASSIGN
EXPOUND_
      5018**DCL      5280--ASSIGN
GET_
      5019**DCL      5284--ASSIGN
GLOBAL_
      5020**DCL      5288--ASSIGN
GOTO_
      5021**DCL      5292--ASSIGN
HELP_
      5022**DCL      5296--ASSIGN
IF_
      5023**DCL      5304--ASSIGN
INCLUDE_
      5024**DCL      5300--ASSIGN
JOB_
      5025**DCL      5308--ASSIGN
LET_
      5026**DCL      5312--ASSIGN
LIMIT_
      5027**DCL      5316--ASSIGN
LIST_
      5028**DCL      5320--ASSIGN
MESSAGE_
      5029**DCL      5324--ASSIGN
NODES$
      4995**DCL        15--PROC     5215<<ASSIGN   5219<<ASSIGN   5222<<ASSIGN   5226<<ASSIGN   5230<<ASSIGN
      5233<<ASSIGN   5237<<ASSIGN   5240<<ASSIGN   5244<<ASSIGN   5248<<ASSIGN   5252<<ASSIGN   5256<<ASSIGN
      5260<<ASSIGN   5264<<ASSIGN   5268<<ASSIGN   5272<<ASSIGN   5276<<ASSIGN   5280<<ASSIGN   5284<<ASSIGN
PL6.E3A0      #001=CPD$SET_NODES File=CPD$SETUP_NODES.:E05TSI                    TUE 07/29/97 11:33 Page:58
      5288<<ASSIGN   5292<<ASSIGN   5296<<ASSIGN   5300<<ASSIGN   5304<<ASSIGN   5308<<ASSIGN   5312<<ASSIGN
      5316<<ASSIGN   5320<<ASSIGN   5324<<ASSIGN   5328<<ASSIGN   5332<<ASSIGN   5336<<ASSIGN   5340<<ASSIGN
      5344<<ASSIGN   5348<<ASSIGN   5352<<ASSIGN   5355<<ASSIGN   5359<<ASSIGN   5362<<ASSIGN   5368<<ASSIGN
      5371<<ASSIGN   5375<<ASSIGN   5379<<ASSIGN   5382<<ASSIGN   5386<<ASSIGN   5390<<ASSIGN   5394<<ASSIGN
      5398<<ASSIGN   5402<<ASSIGN   5406<<ASSIGN   5410<<ASSIGN   5414<<ASSIGN   5418<<ASSIGN   5422<<ASSIGN
      5426<<ASSIGN   5430<<ASSIGN   5434<<ASSIGN
NOTIFY_
      5030**DCL      5328--ASSIGN
ORES_
      5031**DCL      5332--ASSIGN
OUTPUT_
      5032**DCL      5336--ASSIGN
P$B.CODE
      5128**DCL      5209>>DOCASE
P$B.CPOS
      5146**DCL      5202>>CALLBLT
P$B.SUBLK$
      5153**DCL      5202>>CALLBLT  5202>>CALLBLT  5206>>ASSIGN
P$B.TEMP
      5121**DCL      5200>>IF
P$S.COUNT
      5189**DCL      5192--IMP-SIZ  5202>>CALLBLT
PASSWORD_
      5033**DCL      5340--ASSIGN
PCB
      4814**DCL        15--PROC
PCB.OUT$
      4827**DCL      5200>>IF       5202>>CALLBLT  5202>>CALLBLT  5206<<ASSIGN   5206>>ASSIGN   5209>>DOCASE
PCB.TEXT$
      4815**DCL      5202>>CALLBLT
PLATEN_
      5034**DCL      5344--ASSIGN
POINT_
      5035**DCL      5348--ASSIGN
POSITION_
      5036**DCL      5352--ASSIGN
PL6.E3A0      #001=CPD$SET_NODES File=CPD$SETUP_NODES.:E05TSI                    TUE 07/29/97 11:33 Page:59
PRIORITY_
      5037**DCL      5355--ASSIGN
PRIV_
      5038**DCL      5359--ASSIGN
PROFILE_
      5040**DCL      5362--ASSIGN
PROMPT_
      5042**DCL      5368--ASSIGN
PROTECT_
      5041**DCL      5371--ASSIGN
RELEASE_
      5039**DCL      5375--ASSIGN
REPORT_
      5043**DCL      5379--ASSIGN
RESOURCE_
      5044**DCL      5382--ASSIGN
RU_
      5045**DCL      5434--ASSIGN
SAVE_
      5046**DCL      5386--ASSIGN
SETUP_
      5047**DCL      5390--ASSIGN
SPCL$$
      4997**DCL        15--PROC     5223<<ASSIGN   5227<<ASSIGN   5234<<ASSIGN   5241<<ASSIGN   5245<<ASSIGN
      5249<<ASSIGN   5253<<ASSIGN   5257<<ASSIGN   5261<<ASSIGN   5265<<ASSIGN   5269<<ASSIGN   5273<<ASSIGN
      5277<<ASSIGN   5281<<ASSIGN   5285<<ASSIGN   5289<<ASSIGN   5293<<ASSIGN   5297<<ASSIGN   5301<<ASSIGN
      5305<<ASSIGN   5309<<ASSIGN   5313<<ASSIGN   5317<<ASSIGN   5321<<ASSIGN   5325<<ASSIGN   5329<<ASSIGN
      5333<<ASSIGN   5337<<ASSIGN   5341<<ASSIGN   5345<<ASSIGN   5349<<ASSIGN   5353<<ASSIGN   5356<<ASSIGN
      5372<<ASSIGN   5376<<ASSIGN   5383<<ASSIGN   5387<<ASSIGN   5391<<ASSIGN   5395<<ASSIGN   5399<<ASSIGN
      5403<<ASSIGN   5407<<ASSIGN   5411<<ASSIGN   5415<<ASSIGN   5419<<ASSIGN   5423<<ASSIGN   5427<<ASSIGN
      5431<<ASSIGN   5435<<ASSIGN
START_
      5048**DCL      5394--ASSIGN
STATUS_
      5049**DCL      5398--ASSIGN
SWITCH_
PL6.E3A0      #001=CPD$SET_NODES File=CPD$SETUP_NODES.:E05TSI                    TUE 07/29/97 11:33 Page:60
      5050**DCL      5402--ASSIGN
TABS_
      5051**DCL      5406--ASSIGN
TIME_
      5052**DCL      5410--ASSIGN
TITLE_
      5053**DCL      5414--ASSIGN
UNDER_
      5054**DCL      5418--ASSIGN
WHEN_
      5055**DCL      5422--ASSIGN
XEQ_
      5056**DCL      5426--ASSIGN
XMIT_
      5057**DCL      5430--ASSIGN

PL6.E3A0      #002=CPD$NULL_SFROUTINE File=CPD$SETUP_NODES.:E05TSI               TUE 07/29/97 11:33 Page:61
      392        1        /*T***********************************************************/
      393        2        /*T*                                                         */
      394        3        /*T* Copyright (c) Bull HN Information Systems Inc., 1997    */
      395        4        /*T*                                                         */
      396        5        /*T***********************************************************/
      397        6        /*X*  DMC,DFC   */
      398        7        /**/
      399        8        /*P*          NAME:    CPD$NULL_SFROUTINE
      400        9                      PURPOSE:    This routine is called to do success-fail for run unit
      401       10                               commands. SCAN in IBEX and PRESCAN need a dummy
      402       11                               routine to satisfy the U$$ needed for RU_ node.
      403       12                               This routine does nothing but RETURN.
      404       13        */
      405       14        CPD$NULL_SFROUTINE: PROC(DUMMY) ;
      406       15
      407       16    1   DCL DUMMY UBIN WORD ;
      408       17
      409       18    1         RETURN ;
      410       19
      411       20    1   END   CPD$NULL_SFROUTINE ;

PL6.E3A0      #002=CPD$NULL_SFROUTINE File=CPD$SETUP_NODES.:E05TSI               TUE 07/29/97 11:33 Page:62
--  Include file information  --

   B$JIT_C.:E05TOU  was found in the system file and is never referenced.
   CP_6_C.:E05TOU  was found in the system file and is never referenced.
      No diagnostics issued in procedure CPD$NULL_SFROUTINE.

   Procedure CPD$NULL_SFROUTINE requires 3 words for executable code.
   Procedure CPD$NULL_SFROUTINE requires 4 words of local(AUTO) storage.

    No errors detected in file CPD$SETUP_NODES.:E05TSI    .

PL6.E3A0      #002=CPD$NULL_SFROUTINE File=CPD$SETUP_NODES.:E05TSI               TUE 07/29/97 11:33 Page:63

 Object Unit name= CPD$NULL_SFROUTINE                         File name= CPD$SETUP_NODES.:E05TOU
 UTS= JUL 29 '97 11:33:41.72 TUE                              Compiler= PL-6/E31         Sev=      00
 SharedLib= :SHARED_SYSTEM                                    Alt SharedLib=


    ****  Control sections  ****

 Sect   Type Bound  Init  Size OctSiz  Section name(segment info)
    0   Proc  even  none     3      3  CPD$NULL_SFROUTINE

    ****  Entry defs  ****

                              Check   Calling
                             calling  sequence
  Sect OctLoc Primary Altret sequence   type   Parms  Name
     0      0   yes            yes      Std        1  CPD$NULL_SFROUTINE

  ****  Entry refs  ****

         Check        Calling
        calling       sequence
Altret sequence SRef   type   Args  Name
                       nStd      0 X66_AUTO_1
                       nStd      0 X66_ARET
PL6.E3A0      #002=CPD$NULL_SFROUTINE File=CPD$SETUP_NODES.:E05TSI               TUE 07/29/97 11:33 Page:64


      392        1        /*T***********************************************************/
      393        2        /*T*                                                         */
      394        3        /*T* Copyright (c) Bull HN Information Systems Inc., 1997    */
      395        4        /*T*                                                         */
      396        5        /*T***********************************************************/
      397        6        /*X*  DMC,DFC   */
      398        7        /**/
      399        8        /*P*          NAME:    CPD$NULL_SFROUTINE
      400        9                      PURPOSE:    This routine is called to do success-fail for run unit
      401       10                               commands. SCAN in IBEX and PRESCAN need a dummy
      402       11                               routine to satisfy the U$$ needed for RU_ node.
      403       12                               This routine does nothing but RETURN.
      404       13        */
      405       14        CPD$NULL_SFROUTINE: PROC(DUMMY) ;

     14  0 000000   000000 700200 xent  CPD$NULL_SF* TSX0  ! X66_AUTO_1
         0 000001   000004 000001                    ZERO    4,1

      406       15
      407       16    1   DCL DUMMY UBIN WORD ;
      408       17
      409       18    1         RETURN ;

     18  0 000002   000000 702200 xent               TSX2  ! X66_ARET
      410       19
      411       20    1   END   CPD$NULL_SFROUTINE ;

PL6.E3A0      #002=CPD$NULL_SFROUTINE File=CPD$SETUP_NODES.:E05TSI               TUE 07/29/97 11:33 Page:65
--  Include file information  --

   B$JIT_C.:E05TOU  was found in the system file and is never referenced.
   CP_6_C.:E05TOU  was found in the system file and is never referenced.
      No diagnostics issued in procedure CPD$NULL_SFROUTINE.
PL6.E3A0      #002=CPD$NULL_SFROUTINE File=CPD$SETUP_NODES.:E05TSI               TUE 07/29/97 11:33 Page:66

 **** Variables and constants ****

  ****  Auto variables  ****

  ****  Scalars and arrays  ****
OctLoc.c.b A Datatyp(siz) R M Lvl/name                 OctLoc.c.b A Datatyp(siz) R M Lvl/name

     3-0-0/w PTR         r     1 @DUMMY                    *0-0-0/w UBIN        r     1 DUMMY


   Procedure CPD$NULL_SFROUTINE requires 3 words for executable code.
   Procedure CPD$NULL_SFROUTINE requires 4 words of local(AUTO) storage.

    No errors detected in file CPD$SETUP_NODES.:E05TSI    .
PL6.E3A0      #002=CPD$NULL_SFROUTINE File=CPD$SETUP_NODES.:E05TSI               TUE 07/29/97 11:33 Page:67
          *** CROSS REFERENCE LISTING ***
**     DENOTES     IDENTIFIER DEFINITION
<<                 IDENTIFIER'S VALUE SET
>>                 IDENTIFIER'S VALUE USED
<>                 IDENTIFIER SET AND/OR USED
--                 IDENTIFIER REFERENCED
PL6.E3A0      #002=CPD$NULL_SFROUTINE File=CPD$SETUP_NODES.:E05TSI               TUE 07/29/97 11:33 Page:68
          MINI XREF LISTING

DUMMY
        16**DCL        14--PROC
