PL6.E3A0      #001=CPE$IBEX2 File=CPE$IBEX2.:E05TSI                              TUE 07/29/97 11:35 Page:487
     3131    19930    3               CALL CLOSEMYDCB ;

  19930  2 015234   015337 701000 2                  TSX1    CLOSEMYDCB
         2 015235   000000 011000                    NOP     0

     3132    19931    3           OPNMYDCB.V.DCB# = DCBSLOT ;

  19931  2 015236   200016 720100                    LXL0    DCBSLOT,,AUTO
         2 015237   202176 740100                    STX0    I+34,,AUTO

     3133    19932    3           OPNMYDCB.V.RES# = B$ROS$->B$ROSEG.LDEVNAME(STREAM) ;

  19932  2 015240   000000 470400 xsym               LDP0    B$ROS$
         2 015241   202127 721100                    LXL1    STREAM,,AUTO
         2 015242   000054 236111                    LDQ     44,X1,PR0
         2 015243   202202 756100                    STQ     I+38,,AUTO

     3134    19933    3           OPNMYDCB.V.ASN# = %DEVICE# ;

  19933  2 015244   000003 236007                    LDQ     3,DL
         2 015245   202177 552104                    STBQ    I+35,'04'O,AUTO

     3135    19934    4           CALL M$OPEN(OPNMYDCB) WHENALTRETURN DO; ALTRETURN; END ;

  19934  2 015246   202132 630500                    EPPR0   OPNMYDCB,,AUTO
         2 015247   450000 713400                    CLIMB   alt,open
         2 015250   410400 401760                    pmme    nvectors=18
         2 015251   015253 702000 2                  TSX2    s:19934+5
         2 015252   015255 710000 2                  TRA     s:19936

  19934  2 015253   202304 221300                    LDX1  ! SIZ+1,,AUTO
         2 015254   000000 702211                    TSX2  ! 0,X1

     3136    19935
     3137    19936    3           FPT_TRMCTL.V.DCB# = DCBSLOT ;

  19936  2 015255   200016 720100                    LXL0    DCBSLOT,,AUTO
PL6.E3A0      #001=CPE$IBEX2 File=CPE$IBEX2.:E05TSI                              TUE 07/29/97 11:35 Page:488
         2 015256   202270 740100                    STX0    WAIT_INT+4,,AUTO

     3138    19937    3           OPEN = %YES# ;

  19937  2 015257   400000 236003                    LDQ     -131072,DU
         2 015260   202130 756100                    STQ     OPEN,,AUTO

     3139    19938    3           RETURN ;

  19938  2 015261   202304 221300                    LDX1  ! SIZ+1,,AUTO
         2 015262   000001 702211                    TSX2  ! 1,X1

     3140    19939
     3141    19940    3   END   SETUP_TCTL_DCB ;
     3142    19941        %EJECT ;
PL6.E3A0      #001=CPE$IBEX2 File=CPE$IBEX2.:E05TSI                              TUE 07/29/97 11:35 Page:489
     3143    19942    2   MOVE_COMMA_BLANK: PROC ;

  19942  2 015263   202310 741300       MOVE_COMMA_* STX1  ! TBUFF,,AUTO

     3144    19943
     3145    19944    3           INBUFF = ',' ;

  19944  2 015264   040100 100400                    MLR     fill='040'O
         2 015265   000121 000001 3                  ADSC9   81                       cn=0,n=1
         2 015266   200037 001000                    ADSC9   INBUFF,,AUTO             cn=0,n=512

     3146    19945    3           CALL CPB$BLDIMAGE(OUTBUFF$, DEST$, IN$, 1, TAB_VAL)

  19945  2 015267   200474 630500                    EPPR0   TAB_VAL,,AUTO
         2 015270   202356 450500                    STP0    CLSDCB+34,,AUTO
         2 015271   000033 236000 3                  LDQ     27
         2 015272   202355 756100                    STQ     CLSDCB+33,,AUTO
         2 015273   200034 631500                    EPPR1   IN$,,AUTO
         2 015274   202354 451500                    STP1    CLSDCB+32,,AUTO
         2 015275   200035 633500                    EPPR3   DEST$,,AUTO
         2 015276   202353 453500                    STP3    CLSDCB+31,,AUTO
         2 015277   200036 634500                    EPPR4   OUTBUFF$,,AUTO
         2 015300   202352 454500                    STP4    CLSDCB+30,,AUTO
         2 015301   202352 630500                    EPPR0   CLSDCB+30,,AUTO
         2 015302   000023 631400 xsym               EPPR1   B_VECTNIL+19
         2 015303   000000 701000 xent               TSX1    CPB$BLDIMAGE
         2 015304   015306 702000 2                  TSX2    s:19947
         2 015305   015306 710000 2                  TRA     s:19947

     3147    19946    4           WHENALTRETURN DO ; END ;

     3148    19947    3           IF DEST$ ~= PINCRC(OUTBUFF$, TAB_VAL)

  19947  2 015306   200474 236100                    LDQ     TAB_VAL,,AUTO
         2 015307   000020 736000                    QLS     16
         2 015310   200036 036100                    ADLQ    OUTBUFF$,,AUTO
         2 015311   200035 116100                    CMPQ    DEST$,,AUTO
PL6.E3A0      #001=CPE$IBEX2 File=CPE$IBEX2.:E05TSI                              TUE 07/29/97 11:35 Page:490
         2 015312   015335 600000 2                  TZE     s:19954

     3149    19948    3           THEN
     3150    19949    4           DO ;

     3151    19950    4              INBUFF = ' ' ;

  19950  2 015313   040100 100400                    MLR     fill='040'O
         2 015314   000035 000001 xsym               ADSC9   B_VECTNIL+29             cn=0,n=1
         2 015315   200037 001000                    ADSC9   INBUFF,,AUTO             cn=0,n=512

     3152    19951    4              CALL CPB$BLDIMAGE(OUTBUFF$, DEST$, IN$, 1, TAB_VAL)

  19951  2 015316   200474 630500                    EPPR0   TAB_VAL,,AUTO
         2 015317   202356 450500                    STP0    CLSDCB+34,,AUTO
         2 015320   000033 236000 3                  LDQ     27
         2 015321   202355 756100                    STQ     CLSDCB+33,,AUTO
         2 015322   200034 631500                    EPPR1   IN$,,AUTO
         2 015323   202354 451500                    STP1    CLSDCB+32,,AUTO
         2 015324   200035 633500                    EPPR3   DEST$,,AUTO
         2 015325   202353 453500                    STP3    CLSDCB+31,,AUTO
         2 015326   200036 634500                    EPPR4   OUTBUFF$,,AUTO
         2 015327   202352 454500                    STP4    CLSDCB+30,,AUTO
         2 015330   202352 630500                    EPPR0   CLSDCB+30,,AUTO
         2 015331   000023 631400 xsym               EPPR1   B_VECTNIL+19
         2 015332   000000 701000 xent               TSX1    CPB$BLDIMAGE
         2 015333   015335 702000 2                  TSX2    s:19954
         2 015334   015335 710000 2                  TRA     s:19954

     3153    19952    5              WHENALTRETURN DO ; END ;

     3154    19953    4              END ;                        /* Then Do                            */

     3155    19954    3           RETURN ;

  19954  2 015335   202310 221300                    LDX1  ! TBUFF,,AUTO
         2 015336   000001 702211                    TSX2  ! 1,X1
PL6.E3A0      #001=CPE$IBEX2 File=CPE$IBEX2.:E05TSI                              TUE 07/29/97 11:35 Page:491

     3156    19955    3   END   MOVE_COMMA_BLANK ;
     3157    19956        %EJECT ;
PL6.E3A0      #001=CPE$IBEX2 File=CPE$IBEX2.:E05TSI                              TUE 07/29/97 11:35 Page:492
     3158    19957    2   CLOSEMYDCB: PROC ;

  19957  2 015337   202310 741300       CLOSEMYDCB   STX1  ! TBUFF,,AUTO

     3159    19958    3           IF OPEN

  19958  2 015340   202130 234100                    SZN     OPEN,,AUTO
         2 015341   015346 605000 2                  TPL     s:19961

     3160    19959    3           THEN
     3161    19960    3           CALL CLOSE_DCB(DCBSLOT);

  19960  2 015342   200016 630500                    EPPR0   DCBSLOT,,AUTO
         2 015343   202313 450500                    STP0    TBUFF+3,,AUTO
         2 015344   017561 701000 2                  TSX1    CLOSE_DCB
         2 015345   000000 011000                    NOP     0

     3162    19961    3           RETURN ;

  19961  2 015346   202310 221300                    LDX1  ! TBUFF,,AUTO
         2 015347   000001 702211                    TSX2  ! 1,X1

     3163    19962    3   END   CLOSEMYDCB ;
     3164    19963        %EJECT ;
PL6.E3A0      #001=CPE$IBEX2 File=CPE$IBEX2.:E05TSI                              TUE 07/29/97 11:35 Page:493
     3165    19964    2   PUT_FLAG: PROC (FLAG, TEXT, LENGTH) ALTRET;

  19964  2 015350   202304 741300       PUT_FLAG     STX1  ! SIZ+1,,AUTO

     3166    19965
     3167    19966    3   DCL FLAG BIT (2) UNAL;
     3168    19967    3   DCL TEXT CHAR (LENGTH);
     3169    19968    3   DCL LENGTH UBIN WORD;
     3170    19969
     3171    19970    3           IF FLAG = %YES#

  19970  2 015351   202305 470500                    LDP0    @FLAG,,AUTO
         2 015352   000000 066500                    CMPB    filb='0'B
         2 015353   000000 000002                    BDSC    0,,PR0                   by=0,bit=0,n=2
         2 015354   000030 000022 xsym               BDSC    B_VECTNIL+24             by=0,bit=0,n=18
         2 015355   015406 601000 2                  TNZ     s:19981

     3172    19971    4           THEN DO;

     3173    19972
     3174    19973    4              CALL MOVE_COMMA_BLANK ;

  19973  2 015356   015263 701000 2                  TSX1    MOVE_COMMA_BLANK
         2 015357   000000 011000                    NOP     0

     3175    19974    4              LEN = LENGTH ;

  19974  2 015360   202307 470500                    LDP0    @LENGTH,,AUTO
         2 015361   000000 235100                    LDA     0,,PR0
         2 015362   202131 755100                    STA     LEN,,AUTO

     3176    19975    4              INBUFF = TEXT ;

  19975  2 015363   000000 720100                    LXL0    0,,PR0
         2 015364   202306 471500                    LDP1    @TEXT,,AUTO
         2 015365   040100 100540                    MLR     fill='040'O
         2 015366   100000 000010                    ADSC9   0,,PR1                   cn=0,n=*X0
PL6.E3A0      #001=CPE$IBEX2 File=CPE$IBEX2.:E05TSI                              TUE 07/29/97 11:35 Page:494
         2 015367   200037 001000                    ADSC9   INBUFF,,AUTO             cn=0,n=512

     3177    19976    4              CALL CPB$BLDIMAGE (OUTBUFF$, DEST$, IN$, LEN, TAB_VAL)

  19976  2 015370   200474 633500                    EPPR3   TAB_VAL,,AUTO
         2 015371   202356 453500                    STP3    CLSDCB+34,,AUTO
         2 015372   202131 634500                    EPPR4   LEN,,AUTO
         2 015373   202355 454500                    STP4    CLSDCB+33,,AUTO
         2 015374   200034 635500                    EPPR5   IN$,,AUTO
         2 015375   202354 455500                    STP5    CLSDCB+32,,AUTO
         2 015376   200035 636500                    EPPR6   DEST$,,AUTO
         2 015377   202353 456500                    STP6    CLSDCB+31,,AUTO
         2 015400   200036 637500                    EPPR7   OUTBUFF$,,AUTO
         2 015401   202352 457500                    STP7    CLSDCB+30,,AUTO
         2 015402   202352 630500                    EPPR0   CLSDCB+30,,AUTO
         2 015403   000023 631400 xsym               EPPR1   B_VECTNIL+19
         2 015404   000000 701000 xent               TSX1    CPB$BLDIMAGE
         2 015405   015410 702000 2                  TSX2    OOPS

     3178    19977    4                ALTRET (OOPS);
     3179    19978
     3180    19979    4              END;

     3181    19980
     3182    19981    3           RETURN;

  19981  2 015406   202304 221300                    LDX1  ! SIZ+1,,AUTO
         2 015407   000001 702211                    TSX2  ! 1,X1

     3183    19982
     3184    19983    3   OOPS:   ALTRETURN;

  19983  2 015410   202304 221300       OOPS         LDX1  ! SIZ+1,,AUTO
         2 015411   000000 702211                    TSX2  ! 0,X1

     3185    19984
     3186    19985    3   END PUT_FLAG;
PL6.E3A0      #001=CPE$IBEX2 File=CPE$IBEX2.:E05TSI                              TUE 07/29/97 11:35 Page:495
     3187    19986    2   END   DILDEV;
     3188    19987        %EJECT ;
PL6.E3A0      #001=CPE$IBEX2 File=CPE$IBEX2.:E05TSI                              TUE 07/29/97 11:35 Page:496
     3189    19988    1   FIND_ALL_LDEVS: PROC(N, OPT, OPTLEN) ALTRET ;

  19988  2 015412   202102 741300       FIND_ALL_LD* STX1  ! FPT_UNFID,,AUTO

     3190    19989
     3191    19990    2   DCL N SBIN ;
     3192    19991    2   DCL OPT CHAR(4) ;
     3193    19992    2   DCL OPTLEN UBIN ;
     3194    19993    2   DCL 1 BAD_LDEV_NAME,
     3195    19994    2         2 CNT UBIN BYTE CALIGNED,
     3196    19995    2         2 TXT CHAR(4) CALIGNED ;
     3197    19996
     3198    19997    3             DO WHILE('1'B);

     3199    19998    3               CALL DILDEV(N,OPT,OPTLEN)ALTRET(ENDIT);

  19998  2 015413   202104 237100                    LDAQ    @OPT,,AUTO
         2 015414   202112 757100                    STAQ    @OPT,,AUTO
         2 015415   202103 236100                    LDQ     @N,,AUTO
         2 015416   202111 756100                    STQ     @N,,AUTO
         2 015417   013636 701000 2                  TSX1    DILDEV
         2 015420   015463 702000 2                  TSX2    ENDIT

     3200    19999    3               IF OUTBUFF~=' ' AND DILDEV_OPT THEN

  19999  2 015421   040000 106500                    CMPC    fill='040'O
         2 015422   200237 001000                    ADSC9   OUTBUFF,,AUTO            cn=0,n=512
         2 015423   000035 000001 xsym               ADSC9   B_VECTNIL+29             cn=0,n=1
         2 015424   015455 600000 2                  TZE     s:20005
         2 015425   200023 234100                    SZN     DILDEV_OPT,,AUTO
         2 015426   015455 605000 2                  TPL     s:20005

     3201    20000    4                 DO ;

     3202    20001    4                   SEG$2.FPT_WRITE$->FPT$WRITE.BUF_.BOUND=POFFC(DEST$,OUTBUFF$) ;

  20001  2 015427   000000 470400 xsym               LDP0    SEG2$
PL6.E3A0      #001=CPE$IBEX2 File=CPE$IBEX2.:E05TSI                              TUE 07/29/97 11:35 Page:497
         2 015430   000165 471500                    LDP1    117,,PR0
         2 015431   200036 236100                    LDQ     OUTBUFF$,,AUTO
         2 015432   000020 772000                    QRL     16
         2 015433   202352 756100                    STQ     CLSDCB+30,,AUTO
         2 015434   200035 236100                    LDQ     DEST$,,AUTO
         2 015435   000020 772000                    QRL     16
         2 015436   202352 136100                    SBLQ    CLSDCB+30,,AUTO
         2 015437   000020 736000                    QLS     16
         2 015440   100004 676100                    ERQ     4,,PR1
         2 015441   000034 376000 xsym               ANQ     B_VECTNIL+28
         2 015442   100004 656100                    ERSQ    4,,PR1

     3203    20002    4                   SEG$2.FPT_WRITE$->FPT$WRITE.BUF_.BUF$=OUTBUFF$ ;

  20002  2 015443   000165 471500                    LDP1    117,,PR0
         2 015444   200036 236100                    LDQ     OUTBUFF$,,AUTO
         2 015445   100005 756100                    STQ     5,,PR1

     3204    20003    4                   CALL CPE$LISTOUT(SEG$2.FPT_WRITE$) ALTRET(FIND_ALL_LDEVS_ERR) ;

  20003  2 015446   000000 236000 xsym               LDQ     SEG2$
         2 015447   000165 036003                    ADLQ    117,DU
         2 015450   202352 756100                    STQ     CLSDCB+30,,AUTO
         2 015451   202352 630500                    EPPR0   CLSDCB+30,,AUTO
         2 015452   000017 631400 xsym               EPPR1   B_VECTNIL+15
         2 015453   000000 701000 xent               TSX1    CPE$LISTOUT
         2 015454   015614 702000 2                  TSX2    FIND_ALL_LDEVS_ERR

     3205    20004    4                 END ; /*  Then Do */

     3206    20005    3               IF DILDEV_OPT

  20005  2 015455   200023 234100                    SZN     DILDEV_OPT,,AUTO
         2 015456   015413 605000 2                  TPL     s:19998

     3207    20006    3                 THEN
     3208    20007    3                   OUTBUFF=' ';
PL6.E3A0      #001=CPE$IBEX2 File=CPE$IBEX2.:E05TSI                              TUE 07/29/97 11:35 Page:498

  20007  2 015457   040100 100400                    MLR     fill='040'O
         2 015460   000035 000001 xsym               ADSC9   B_VECTNIL+29             cn=0,n=1
         2 015461   200237 001000                    ADSC9   OUTBUFF,,AUTO            cn=0,n=512

     3209    20008    3             END;

  20008  2 015462   015413 710000 2                  TRA     s:19998

     3210    20009    2   ENDIT:
     3211    20010    2             IF OUTBUFF~=' ' AND NOT DILDEV_OPT THEN

  20010  2 015463   040000 106500       ENDIT        CMPC    fill='040'O
         2 015464   200237 001000                    ADSC9   OUTBUFF,,AUTO            cn=0,n=512
         2 015465   000035 000001 xsym               ADSC9   B_VECTNIL+29             cn=0,n=1
         2 015466   015517 600000 2                  TZE     s:20016
         2 015467   200023 234100                    SZN     DILDEV_OPT,,AUTO
         2 015470   015517 604000 2                  TMI     s:20016

     3212    20011    3               DO ;

     3213    20012    3                 SEG$2.FPT_WRITE$->FPT$WRITE.BUF_.BOUND=POFFC(DEST$,OUTBUFF$) ;

  20012  2 015471   000000 470400 xsym               LDP0    SEG2$
         2 015472   000165 471500                    LDP1    117,,PR0
         2 015473   200036 236100                    LDQ     OUTBUFF$,,AUTO
         2 015474   000020 772000                    QRL     16
         2 015475   202352 756100                    STQ     CLSDCB+30,,AUTO
         2 015476   200035 236100                    LDQ     DEST$,,AUTO
         2 015477   000020 772000                    QRL     16
         2 015500   202352 136100                    SBLQ    CLSDCB+30,,AUTO
         2 015501   000020 736000                    QLS     16
         2 015502   100004 676100                    ERQ     4,,PR1
         2 015503   000034 376000 xsym               ANQ     B_VECTNIL+28
         2 015504   100004 656100                    ERSQ    4,,PR1

     3214    20013    3                 SEG$2.FPT_WRITE$->FPT$WRITE.BUF_.BUF$=OUTBUFF$ ;
PL6.E3A0      #001=CPE$IBEX2 File=CPE$IBEX2.:E05TSI                              TUE 07/29/97 11:35 Page:499

  20013  2 015505   000165 471500                    LDP1    117,,PR0
         2 015506   200036 236100                    LDQ     OUTBUFF$,,AUTO
         2 015507   100005 756100                    STQ     5,,PR1

     3215    20014    3                 CALL CPE$LISTOUT(SEG$2.FPT_WRITE$) ALTRET(FIND_ALL_LDEVS_ERR) ;

  20014  2 015510   000000 236000 xsym               LDQ     SEG2$
         2 015511   000165 036003                    ADLQ    117,DU
         2 015512   202352 756100                    STQ     CLSDCB+30,,AUTO
         2 015513   202352 630500                    EPPR0   CLSDCB+30,,AUTO
         2 015514   000017 631400 xsym               EPPR1   B_VECTNIL+15
         2 015515   000000 701000 xent               TSX1    CPE$LISTOUT
         2 015516   015614 702000 2                  TSX2    FIND_ALL_LDEVS_ERR

     3216    20015    3               END ; /*  Then Do */

     3217    20016    2             IF NOT DILDEV_OPT

  20016  2 015517   200023 234100                    SZN     DILDEV_OPT,,AUTO
         2 015520   015524 604000 2                  TMI     s:20019

     3218    20017    2               THEN
     3219    20018    2                 OUTBUFF=' ';

  20018  2 015521   040100 100400                    MLR     fill='040'O
         2 015522   000035 000001 xsym               ADSC9   B_VECTNIL+29             cn=0,n=1
         2 015523   200237 001000                    ADSC9   OUTBUFF,,AUTO            cn=0,n=512

     3220    20019    2             IF LDEVS_EXIST = %NO#

  20019  2 015524   200021 234100                    SZN     LDEVS_EXIST,,AUTO
         2 015525   015612 604000 2                  TMI     s:20038

     3221    20020    2               THEN
     3222    20021    2                 IF OPTLEN = 0

PL6.E3A0      #001=CPE$IBEX2 File=CPE$IBEX2.:E05TSI                              TUE 07/29/97 11:35 Page:500
  20021  2 015526   202105 470500                    LDP0    @OPTLEN,,AUTO
         2 015527   000000 235100                    LDA     0,,PR0
         2 015530   015545 601000 2                  TNZ     s:20029

     3223    20022    2                   THEN
     3224    20023    3                     DO ;

     3225    20024    3                       SEG$2.FPT_WRITE$->FPT$WRITE.BUF_ = VECTOR(LDEVNHDR) ;

  20024  2 015531   000000 471400 xsym               LDP1    SEG2$
         2 015532   100165 473500                    LDP3    117,,PR1
         2 015533   000430 237000 3                  LDAQ    280
         2 015534   300004 757100                    STAQ    4,,PR3

     3226    20025    3                       CALL CPE$LISTOUT(SEG$2.FPT_WRITE$) ALTRET(FIND_ALL_LDEVS_ERR) ;

  20025  2 015535   000000 236000 xsym               LDQ     SEG2$
         2 015536   000165 036003                    ADLQ    117,DU
         2 015537   202352 756100                    STQ     CLSDCB+30,,AUTO
         2 015540   202352 630500                    EPPR0   CLSDCB+30,,AUTO
         2 015541   000017 631400 xsym               EPPR1   B_VECTNIL+15
         2 015542   000000 701000 xent               TSX1    CPE$LISTOUT
         2 015543   015614 702000 2                  TSX2    FIND_ALL_LDEVS_ERR

     3227    20026    3                     END ; /* Then Do */

  20026  2 015544   015612 710000 2                  TRA     s:20038

     3228    20027    2                   ELSE
     3229    20028    3                     DO ;

     3230    20029    3                       BAD_LDEV_NAME.CNT = OPTLEN ;

  20029  2 015545   000000 236100                    LDQ     0,,PR0
         2 015546   000033 736000                    QLS     27
         2 015547   202106 552140                    STBQ    BAD_LDEV_NAME,'40'O,AUTO

PL6.E3A0      #001=CPE$IBEX2 File=CPE$IBEX2.:E05TSI                              TUE 07/29/97 11:35 Page:501
     3231    20030    3                       BAD_LDEV_NAME.TXT = OPT ;

  20030  2 015550   202104 471500                    LDP1    @OPT,,AUTO
         2 015551   040100 100500                    MLR     fill='040'O
         2 015552   100000 000004                    ADSC9   0,,PR1                   cn=0,n=4
         2 015553   202106 200004                    ADSC9   BAD_LDEV_NAME,,AUTO      cn=1,n=4

     3232    20031    3                       IF OPTLEN = 2

  20031  2 015554   000000 235100                    LDA     0,,PR0
         2 015555   000002 115007                    CMPA    2,DL
         2 015556   015575 601000 2                  TNZ     s:20036

     3233    20032    3                         THEN
     3234    20033    3                           CALL CPC$WRITEMSGE(E_NOLDEVTHATTYPE,,BAD_LDEV_NAME,,,

  20033  2 015557   000001 236000 3                  LDQ     1
         2 015560   000001 235000 xsym               LDA     B_VECTNIL+1
         2 015561   202356 757100                    STAQ    CLSDCB+34,,AUTO
         2 015562   000001 236000 xsym               LDQ     B_VECTNIL+1
         2 015563   202355 756100                    STQ     CLSDCB+33,,AUTO
         2 015564   202106 633500                    EPPR3   BAD_LDEV_NAME,,AUTO
         2 015565   202354 453500                    STP3    CLSDCB+32,,AUTO
         2 015566   000432 235000 3                  LDA     282
         2 015567   202352 757100                    STAQ    CLSDCB+30,,AUTO
         2 015570   202352 630500                    EPPR0   CLSDCB+30,,AUTO
         2 015571   000024 631400 xsym               EPPR1   B_VECTNIL+20
         2 015572   000000 701000 xent               TSX1    CPC$WRITEMSGE
         2 015573   000000 011000                    NOP     0
         2 015574   015612 710000 2                  TRA     s:20038

     3235    20034    3                                 %YES#) ;
     3236    20035    3                         ELSE
     3237    20036    3                           CALL CPC$WRITEMSGE(E_NOSUCHLDEV,,BAD_LDEV_NAME,,,%YES#) ;

  20036  2 015575   000001 236000 3                  LDQ     1
         2 015576   000001 235000 xsym               LDA     B_VECTNIL+1
PL6.E3A0      #001=CPE$IBEX2 File=CPE$IBEX2.:E05TSI                              TUE 07/29/97 11:35 Page:502
         2 015577   202356 757100                    STAQ    CLSDCB+34,,AUTO
         2 015600   000001 236000 xsym               LDQ     B_VECTNIL+1
         2 015601   202355 756100                    STQ     CLSDCB+33,,AUTO
         2 015602   202106 633500                    EPPR3   BAD_LDEV_NAME,,AUTO
         2 015603   202354 453500                    STP3    CLSDCB+32,,AUTO
         2 015604   000030 235000 3                  LDA     24
         2 015605   202352 757100                    STAQ    CLSDCB+30,,AUTO
         2 015606   202352 630500                    EPPR0   CLSDCB+30,,AUTO
         2 015607   000024 631400 xsym               EPPR1   B_VECTNIL+20
         2 015610   000000 701000 xent               TSX1    CPC$WRITEMSGE
         2 015611   000000 011000                    NOP     0

     3238    20037    3                     END ; /* Else Do */

     3239    20038    2         RETURN ;

  20038  2 015612   202102 221300                    LDX1  ! FPT_UNFID,,AUTO
         2 015613   000001 702211                    TSX2  ! 1,X1

     3240    20039
     3241    20040    2   FIND_ALL_LDEVS_ERR:
     3242    20041    2         ALTRETURN ;

  20041  2 015614   202102 221300       FIND_ALL_LD* LDX1  ! FPT_UNFID,,AUTO
         2 015615   000000 702211                    TSX2  ! 0,X1

     3243    20042
     3244    20043    2   END   FIND_ALL_LDEVS ;
     3245    20044                   %EJECT;
PL6.E3A0      #001=CPE$IBEX2 File=CPE$IBEX2.:E05TSI                              TUE 07/29/97 11:35 Page:503
     3246    20045        /**********************************************************************/
     3247    20046        /*I*   NAME:   DISPNOTIFY
     3248    20047               PURPOSE: Display the settings of various flags for NOTIFY
     3249    20048               CALL:   CALL DISPNOTIFY
     3250    20049               INTERFACE: CPC$WRITEMSGE,CPE$LISTOUT,CPB$BLDIMAGE,CPJ$READ_S, CPC$OPEN_S
     3251    20050               INPUT:
     3252    20051               OUTPUT: flag settings in the *S NOTIFY record.
     3253    20052               DESCRIPTION: The various flag settings in the *S NOTIFY record are
     3254    20053                       reflected on the listing device.
     3255    20054        */
     3256    20055        /**********************************************************************/
     3257    20056    1   DISPNOTIFY: PROC ALTRET ;

  20056  2 015616   202072 741300       DISPNOTIFY   STX1  ! VLP_SN+4,,AUTO

     3258    20057
     3259    20058        %CP_CHFLAGS (FPTN=CP_CHFLAGS, STCLASS=AUTO) ;
     3260    20192    2   DCL OUTBUFF2 CHAR(120) ;
     3261    20193    2   DCL OUTBUFF2$ PTR ;
     3262    20194    2   DCL DEST2$ PTR ;
     3263    20195    2   DCL LEN UBIN WORD ;
     3264    20196    2   DCL WAIT_INT CHAR(3) ;
     3265    20197
     3266    20198    2     FPT_CLOSE = CFPT_CLOSE;

  20198  2 015617   000100 100400                    MLR     fill='000'O
         2 015620   000000 000170 xsym               ADSC9   CFPT_CLOSE               cn=0,n=120
         2 015621   201676 000170                    ADSC9   FPT_CLOSE,,AUTO          cn=0,n=120

     3267    20199    2     FPT_CLOSE.V_ = VECTOR(FPT_CLOSE.V);

  20199  2 015622   000003 235000 3                  LDA     3
         2 015623   202352 452500                    STP2    CLSDCB+30,,AUTO
         2 015624   202352 236100                    LDQ     CLSDCB+30,,AUTO
         2 015625   001730 036003                    ADLQ    984,DU
         2 015626   201676 757100                    STAQ    FPT_CLOSE,,AUTO

PL6.E3A0      #001=CPE$IBEX2 File=CPE$IBEX2.:E05TSI                              TUE 07/29/97 11:35 Page:504
     3268    20200    2     FPT_CLOSE.V.DISP# = %SAVE# ;

  20200  2 015627   000002 236007                    LDQ     2,DL
         2 015630   201730 552104                    STBQ    FPT_CLOSE+26,'04'O,AUTO

     3269    20201    2     FPT_CLOSE.V.DCB# = M$IBEX1_NUM ;

  20201  2 015631   000000 720000 xsym               LXL0    M$IBEX1_NUM
         2 015632   201730 740100                    STX0    FPT_CLOSE+26,,AUTO

     3270    20202    2     CALL CPC$OPEN_S (M$IBEX1_NUM) ALTRET(DISPNOTIFY_ALT) ;

  20202  2 015633   000006 630400 3                  EPPR0   6
         2 015634   000017 631400 xsym               EPPR1   B_VECTNIL+15
         2 015635   000000 701000 xent               TSX1    CPC$OPEN_S
         2 015636   017046 702000 2                  TSX2    DISPNOTIFY_ALT

     3271    20203    2     CALL CPJ$READ_S (M$IBEX1_NUM,VECTOR(K_NOTIFY),VECTOR(CP_CHFLAGS))

  20203  2 015637   000436 235000 3                  LDA     286
         2 015640   202352 452500                    STP2    CLSDCB+30,,AUTO
         2 015641   202352 236100                    LDQ     CLSDCB+30,,AUTO
         2 015642   002073 036003                    ADLQ    1083,DU
         2 015643   202354 757100                    STAQ    CLSDCB+32,,AUTO
         2 015644   202354 630500                    EPPR0   CLSDCB+32,,AUTO
         2 015645   202360 450500                    STP0    CLSDCB+36,,AUTO
         2 015646   000440 237000 3                  LDAQ    288
         2 015647   202356 757100                    STAQ    CLSDCB+34,,AUTO
         2 015650   202356 630500                    EPPR0   CLSDCB+34,,AUTO
         2 015651   000021 631400 xsym               EPPR1   B_VECTNIL+17
         2 015652   000000 701000 xent               TSX1    CPJ$READ_S
         2 015653   015655 702000 2                  TSX2    s:20206
         2 015654   015714 710000 2                  TRA     s:20218

     3272    20204    2             WHENALTRETURN
     3273    20205    3               DO ;

PL6.E3A0      #001=CPE$IBEX2 File=CPE$IBEX2.:E05TSI                              TUE 07/29/97 11:35 Page:505
     3274    20206    3                 IF B$TCB.ALT$->B$EXCFR.ERR.ERR# ~= %E$NOKEY

  20206  2 015655   000000 470400 xsym               LDP0    B$TCB$
         2 015656   000000 471500                    LDP1    0,,PR0
         2 015657   100102 236100                    LDQ     66,,PR1
         2 015660   377770 376007                    ANQ     131064,DL
         2 015661   001020 116007                    CMPQ    528,DL
         2 015662   017033 601000 2                  TNZ     DISPNOTIFY_ERR

     3275    20207    3                   THEN
     3276    20208    3                     GOTO DISPNOTIFY_ERR ;
     3277    20209    3                 OUTBUFF = '   Notify: none' ;

  20209  2 015663   040100 100400                    MLR     fill='040'O
         2 015664   001616 000017 1                  ADSC9   CONSTCLS+400             cn=0,n=15
         2 015665   200237 001000                    ADSC9   OUTBUFF,,AUTO            cn=0,n=512

     3278    20210    3                 SEG$2.FPT_WRITE$->FPT$WRITE.BUF_.BOUND = 14 ;

  20210  2 015666   000000 471400 xsym               LDP1    SEG2$
         2 015667   100165 473500                    LDP3    117,,PR1
         2 015670   300004 236100                    LDQ     4,,PR3
         2 015671   177777 376007                    ANQ     65535,DL
         2 015672   000437 276000 3                  ORQ     287
         2 015673   300004 756100                    STQ     4,,PR3

     3279    20211    3                 SEG$2.FPT_WRITE$->FPT$WRITE.BUF_.BUF$ = ADDR(OUTBUFF) ;

  20211  2 015674   100165 473500                    LDP3    117,,PR1
         2 015675   200237 634500                    EPPR4   OUTBUFF,,AUTO
         2 015676   300005 454500                    STP4    5,,PR3

     3280    20212    3                 CALL CPE$LISTOUT(SEG$2.FPT_WRITE$) ALTRET(DISPNOTIFY_ALT) ;

  20212  2 015677   000000 236000 xsym               LDQ     SEG2$
         2 015700   000165 036003                    ADLQ    117,DU
         2 015701   202352 756100                    STQ     CLSDCB+30,,AUTO
PL6.E3A0      #001=CPE$IBEX2 File=CPE$IBEX2.:E05TSI                              TUE 07/29/97 11:35 Page:506
         2 015702   202352 630500                    EPPR0   CLSDCB+30,,AUTO
         2 015703   000017 631400 xsym               EPPR1   B_VECTNIL+15
         2 015704   000000 701000 xent               TSX1    CPE$LISTOUT
         2 015705   017046 702000 2                  TSX2    DISPNOTIFY_ALT

     3281    20213    4                 CALL M$CLOSE(FPT_CLOSE) WHENALTRETURN DO ;

  20213  2 015706   201676 630500                    EPPR0   FPT_CLOSE,,AUTO
         2 015707   450001 713400                    CLIMB   alt,close
         2 015710   406000 401760                    pmme    nvectors=13
         2 015711   015713 702000 2                  TSX2    s:20215
         2 015712   015713 710000 2                  TRA     s:20215

     3282    20214    4                                         END ;

     3283    20215    3                 GOTO DISPNOTIFY_RET ;

  20215  2 015713   017031 710000 2                  TRA     DISPNOTIFY_RET

     3284    20216    3               END ;   /* Whenaltreturn Do */
     3285    20217
     3286    20218    3     CALL M$CLOSE(FPT_CLOSE) WHENALTRETURN DO ;

  20218  2 015714   201676 630500                    EPPR0   FPT_CLOSE,,AUTO
         2 015715   450001 713400                    CLIMB   alt,close
         2 015716   406000 401760                    pmme    nvectors=13
         2 015717   015721 702000 2                  TSX2    s:20220
         2 015720   015721 710000 2                  TRA     s:20220

     3287    20219    3                             END ;

     3288    20220    2     IN$ = ADDR(INBUFF) ;

  20220  2 015721   200037 630500                    EPPR0   INBUFF,,AUTO
         2 015722   200034 450500                    STP0    IN$,,AUTO

     3289    20221    2     OUTBUFF$ = ADDR(OUTBUFF) ;
PL6.E3A0      #001=CPE$IBEX2 File=CPE$IBEX2.:E05TSI                              TUE 07/29/97 11:35 Page:507

  20221  2 015723   200237 631500                    EPPR1   OUTBUFF,,AUTO
         2 015724   200036 451500                    STP1    OUTBUFF$,,AUTO

     3290    20222    2     DEST$ = OUTBUFF$ ;

  20222  2 015725   200036 236100                    LDQ     OUTBUFF$,,AUTO
         2 015726   200035 756100                    STQ     DEST$,,AUTO

     3291    20223    2     OUTBUFF = '   Notify:' ;

  20223  2 015727   040100 100400                    MLR     fill='040'O
         2 015730   001616 000012 1                  ADSC9   CONSTCLS+400             cn=0,n=10
         2 015731   200237 001000                    ADSC9   OUTBUFF,,AUTO            cn=0,n=512

     3292    20224    2     SEG$2.FPT_WRITE$->FPT$WRITE.BUF_.BOUND = 9 ;

  20224  2 015732   000000 473400 xsym               LDP3    SEG2$
         2 015733   300165 474500                    LDP4    117,,PR3
         2 015734   400004 236100                    LDQ     4,,PR4
         2 015735   177777 376007                    ANQ     65535,DL
         2 015736   000442 276000 3                  ORQ     290
         2 015737   400004 756100                    STQ     4,,PR4

     3293    20225    2     SEG$2.FPT_WRITE$->FPT$WRITE.BUF_.BUF$ = OUTBUFF$ ;

  20225  2 015740   300165 470500                    LDP0    117,,PR3
         2 015741   200036 236100                    LDQ     OUTBUFF$,,AUTO
         2 015742   000005 756100                    STQ     5,,PR0

     3294    20226    2     CALL CPE$LISTOUT(SEG$2.FPT_WRITE$) ALTRET(DISPNOTIFY_ALT) ;

  20226  2 015743   000000 236000 xsym               LDQ     SEG2$
         2 015744   000165 036003                    ADLQ    117,DU
         2 015745   202352 756100                    STQ     CLSDCB+30,,AUTO
         2 015746   202352 630500                    EPPR0   CLSDCB+30,,AUTO
         2 015747   000017 631400 xsym               EPPR1   B_VECTNIL+15
PL6.E3A0      #001=CPE$IBEX2 File=CPE$IBEX2.:E05TSI                              TUE 07/29/97 11:35 Page:508
         2 015750   000000 701000 xent               TSX1    CPE$LISTOUT
         2 015751   017046 702000 2                  TSX2    DISPNOTIFY_ALT

     3295    20227
     3296    20228    2     INBUFF = '     Use ' ;

  20228  2 015752   040100 100400                    MLR     fill='040'O
         2 015753   001622 000011 1                  ADSC9   CONSTCLS+404             cn=0,n=9
         2 015754   200037 001000                    ADSC9   INBUFF,,AUTO             cn=0,n=512

     3297    20229    2     CALL CPB$BLDIMAGE(OUTBUFF$, DEST$, IN$, 9) ALTRET(DISPNOTIFY_ALT) ;

  20229  2 015755   000124 236000 3                  LDQ     84
         2 015756   202355 756100                    STQ     CLSDCB+33,,AUTO
         2 015757   200034 630500                    EPPR0   IN$,,AUTO
         2 015760   202354 450500                    STP0    CLSDCB+32,,AUTO
         2 015761   200035 631500                    EPPR1   DEST$,,AUTO
         2 015762   202353 451500                    STP1    CLSDCB+31,,AUTO
         2 015763   200036 633500                    EPPR3   OUTBUFF$,,AUTO
         2 015764   202352 453500                    STP3    CLSDCB+30,,AUTO
         2 015765   202352 630500                    EPPR0   CLSDCB+30,,AUTO
         2 015766   000022 631400 xsym               EPPR1   B_VECTNIL+18
         2 015767   000000 701000 xent               TSX1    CPB$BLDIMAGE
         2 015770   017046 702000 2                  TSX2    DISPNOTIFY_ALT

     3298    20230    2     VLP_SN = CP_CHFLAGS.USE_SN ;

  20230  2 015771   000100 100500                    MLR     fill='000'O
         2 015772   202113 000012                    ADSC9   @OPTLEN,,AUTO            cn=0,n=10
         2 015773   202066 000012                    ADSC9   VLP_SN,,AUTO             cn=0,n=10

     3299    20231    2     IF VLP_SN.SN#(0) ~= ' '

  20231  2 015774   040000 106500                    CMPC    fill='040'O
         2 015775   202067 000006                    ADSC9   VLP_SN+1,,AUTO           cn=0,n=6
         2 015776   000035 000001 xsym               ADSC9   B_VECTNIL+29             cn=0,n=1
         2 015777   016046 600000 2                  TZE     s:20240
PL6.E3A0      #001=CPE$IBEX2 File=CPE$IBEX2.:E05TSI                              TUE 07/29/97 11:35 Page:509

     3300    20232    2         THEN
     3301    20233    3             DO ;

     3302    20234    3               CALL CONCAT(INBUFF,'DP#',VLP_SN.SN#(0)) ;

  20234  2 016000   001476 236000 1                  LDQ     CONSTCLS+320
         2 016001   000357 376000 3                  ANQ     239
         2 016002   000040 276007                    ORQ     32,DL
         2 016003   200037 756100                    STQ     INBUFF,,AUTO
         2 016004   040100 100500                    MLR     fill='040'O
         2 016005   202067 000006                    ADSC9   VLP_SN+1,,AUTO           cn=0,n=6
         2 016006   200037 600775                    ADSC9   INBUFF,,AUTO             cn=3,n=509

     3303    20235    3               CALL SEARCHR(IND1, TEMP, SRCHTBL, VLP_SN.SN#(0)) ;

  20235  2 016007   000000 470400 xsym               LDP0    B$SR_NON_BLANK$
         2 016010   000000 165500                    TCTR
         2 016011   202067 000006                    ADSC9   VLP_SN+1,,AUTO           cn=0,n=6
         2 016012   000000 000100                    ARG     0,,PR0
         2 016013   200015 000100                    ARG     IND1,,AUTO
         2 016014   200015 235100                    LDA     IND1,,AUTO
         2 016015   000033 771000                    ARL     27
         2 016016   200014 755100                    STA     TEMP,,AUTO
         2 016017   200015 551140                    STBA    IND1,'40'O,AUTO
         2 016020   016023 606400 2                  TTN     s:20236
         2 016021   000005 236007                    LDQ     5,DL
         2 016022   200015 156100                    SSQ     IND1,,AUTO

     3304    20236    3               CALL INSERT(INBUFF, IND1+4, 1, '/') ;

  20236  2 016023   200015 236100                    LDQ     IND1,,AUTO
         2 016024   040106 100400                    MLR     fill='040'O
         2 016025   000443 000001 3                  ADSC9   291                      cn=0,n=1
         2 016026   200040 000001                    ADSC9   INBUFF+1,Q,AUTO          cn=0,n=1

     3305    20237    3               CALL CPB$BLDIMAGE(OUTBUFF$, DEST$, IN$, IND1+5)
PL6.E3A0      #001=CPE$IBEX2 File=CPE$IBEX2.:E05TSI                              TUE 07/29/97 11:35 Page:510

  20237  2 016027   200015 236100                    LDQ     IND1,,AUTO
         2 016030   000005 036007                    ADLQ    5,DL
         2 016031   202352 756100                    STQ     CLSDCB+30,,AUTO
         2 016032   202352 631500                    EPPR1   CLSDCB+30,,AUTO
         2 016033   202357 451500                    STP1    CLSDCB+35,,AUTO
         2 016034   200034 633500                    EPPR3   IN$,,AUTO
         2 016035   202356 453500                    STP3    CLSDCB+34,,AUTO
         2 016036   200035 634500                    EPPR4   DEST$,,AUTO
         2 016037   202355 454500                    STP4    CLSDCB+33,,AUTO
         2 016040   200036 635500                    EPPR5   OUTBUFF$,,AUTO
         2 016041   202354 455500                    STP5    CLSDCB+32,,AUTO
         2 016042   202354 630500                    EPPR0   CLSDCB+32,,AUTO
         2 016043   000022 631400 xsym               EPPR1   B_VECTNIL+18
         2 016044   000000 701000 xent               TSX1    CPB$BLDIMAGE
         2 016045   017046 702000 2                  TSX2    DISPNOTIFY_ALT

     3306    20238    3                     ALTRET(DISPNOTIFY_ALT) ;
     3307    20239    3             END ; /* Then Do */

     3308    20240    2     INBUFF = CP_CHFLAGS.USE_NAME.NAME# ;

  20240  2 016046   040100 100500                    MLR     fill='040'O
         2 016047   202075 200037                    ADSC9   N,,AUTO                  cn=1,n=31
         2 016050   200037 001000                    ADSC9   INBUFF,,AUTO             cn=0,n=512

     3309    20241    2     IND1 = CP_CHFLAGS.USE_NAME.L# ;

  20241  2 016051   202075 236100                    LDQ     N,,AUTO
         2 016052   000033 772000                    QRL     27
         2 016053   200015 756100                    STQ     IND1,,AUTO

     3310    20242    2     CALL INSERT(INBUFF, IND1, 1, '.') ;

  20242  2 016054   040106 100400                    MLR     fill='040'O
         2 016055   000360 000001 3                  ADSC9   240                      cn=0,n=1
         2 016056   200037 000001                    ADSC9   INBUFF,Q,AUTO            cn=0,n=1
PL6.E3A0      #001=CPE$IBEX2 File=CPE$IBEX2.:E05TSI                              TUE 07/29/97 11:35 Page:511

     3311    20243    2     CALL CPB$BLDIMAGE(OUTBUFF$, DEST$, IN$, IND1+1) ALTRET(DISPNOTIFY_ALT) ;

  20243  2 016057   200015 235100                    LDA     IND1,,AUTO
         2 016060   000001 035007                    ADLA    1,DL
         2 016061   202352 755100                    STA     CLSDCB+30,,AUTO
         2 016062   202352 630500                    EPPR0   CLSDCB+30,,AUTO
         2 016063   202357 450500                    STP0    CLSDCB+35,,AUTO
         2 016064   200034 631500                    EPPR1   IN$,,AUTO
         2 016065   202356 451500                    STP1    CLSDCB+34,,AUTO
         2 016066   200035 633500                    EPPR3   DEST$,,AUTO
         2 016067   202355 453500                    STP3    CLSDCB+33,,AUTO
         2 016070   200036 634500                    EPPR4   OUTBUFF$,,AUTO
         2 016071   202354 454500                    STP4    CLSDCB+32,,AUTO
         2 016072   202354 630500                    EPPR0   CLSDCB+32,,AUTO
         2 016073   000022 631400 xsym               EPPR1   B_VECTNIL+18
         2 016074   000000 701000 xent               TSX1    CPB$BLDIMAGE
         2 016075   017046 702000 2                  TSX2    DISPNOTIFY_ALT

     3312    20244    2     IF CP_CHFLAGS.USE_ACCT ~= ' '

  20244  2 016076   040000 106500                    CMPC    fill='040'O
         2 016077   202073 000010                    ADSC9   CP_CHFLAGS,,AUTO         cn=0,n=8
         2 016100   000035 000001 xsym               ADSC9   B_VECTNIL+29             cn=0,n=1
         2 016101   016140 600000 2                  TZE     s:20252

     3313    20245    2         THEN
     3314    20246    3             DO ;

     3315    20247    3               INBUFF = CP_CHFLAGS.USE_ACCT ;

  20247  2 016102   040100 100500                    MLR     fill='040'O
         2 016103   202073 000010                    ADSC9   CP_CHFLAGS,,AUTO         cn=0,n=8
         2 016104   200037 001000                    ADSC9   INBUFF,,AUTO             cn=0,n=512

     3316    20248    3               CALL SEARCHR(IND1, TEMP, SRCHTBL, CP_CHFLAGS.USE_ACCT) ;

PL6.E3A0      #001=CPE$IBEX2 File=CPE$IBEX2.:E05TSI                              TUE 07/29/97 11:35 Page:512
  20248  2 016105   000000 470400 xsym               LDP0    B$SR_NON_BLANK$
         2 016106   000000 165500                    TCTR
         2 016107   202073 000010                    ADSC9   CP_CHFLAGS,,AUTO         cn=0,n=8
         2 016110   000000 000100                    ARG     0,,PR0
         2 016111   200015 000100                    ARG     IND1,,AUTO
         2 016112   200015 235100                    LDA     IND1,,AUTO
         2 016113   000033 771000                    ARL     27
         2 016114   200014 755100                    STA     TEMP,,AUTO
         2 016115   200015 551140                    STBA    IND1,'40'O,AUTO
         2 016116   016121 606400 2                  TTN     s:20249
         2 016117   000007 236007                    LDQ     7,DL
         2 016120   200015 156100                    SSQ     IND1,,AUTO

     3317    20249    3               CALL CPB$BLDIMAGE(OUTBUFF$, DEST$, IN$, IND1+1)

  20249  2 016121   200015 236100                    LDQ     IND1,,AUTO
         2 016122   000001 036007                    ADLQ    1,DL
         2 016123   202352 756100                    STQ     CLSDCB+30,,AUTO
         2 016124   202352 631500                    EPPR1   CLSDCB+30,,AUTO
         2 016125   202357 451500                    STP1    CLSDCB+35,,AUTO
         2 016126   200034 633500                    EPPR3   IN$,,AUTO
         2 016127   202356 453500                    STP3    CLSDCB+34,,AUTO
         2 016130   200035 634500                    EPPR4   DEST$,,AUTO
         2 016131   202355 454500                    STP4    CLSDCB+33,,AUTO
         2 016132   200036 635500                    EPPR5   OUTBUFF$,,AUTO
         2 016133   202354 455500                    STP5    CLSDCB+32,,AUTO
         2 016134   202354 630500                    EPPR0   CLSDCB+32,,AUTO
         2 016135   000022 631400 xsym               EPPR1   B_VECTNIL+18
         2 016136   000000 701000 xent               TSX1    CPB$BLDIMAGE
         2 016137   017046 702000 2                  TSX2    DISPNOTIFY_ALT

     3318    20250    3                     ALTRET(DISPNOTIFY_ALT) ;
     3319    20251    3             END ; /* Then Do */

     3320    20252    2     IF CP_CHFLAGS.USE_PASS ~= ' '

  20252  2 016140   040000 106500                    CMPC    fill='040'O
PL6.E3A0      #001=CPE$IBEX2 File=CPE$IBEX2.:E05TSI                              TUE 07/29/97 11:35 Page:513
         2 016141   202105 000010                    ADSC9   @OPTLEN,,AUTO            cn=0,n=8
         2 016142   000035 000001 xsym               ADSC9   B_VECTNIL+29             cn=0,n=1
         2 016143   016204 600000 2                  TZE     s:20260

     3321    20253    2         THEN
     3322    20254    3             DO ;

     3323    20255    3               CALL CONCAT(INBUFF, '.', CP_CHFLAGS.USE_PASS) ;

  20255  2 016144   056000 236003                    LDQ     23552,DU
         2 016145   200037 756100                    STQ     INBUFF,,AUTO
         2 016146   040100 100500                    MLR     fill='040'O
         2 016147   202105 000010                    ADSC9   @OPTLEN,,AUTO            cn=0,n=8
         2 016150   200037 200777                    ADSC9   INBUFF,,AUTO             cn=1,n=511

     3324    20256    3               CALL SEARCHR(IND1, TEMP, SRCHTBL, CP_CHFLAGS.USE_PASS) ;

  20256  2 016151   000000 470400 xsym               LDP0    B$SR_NON_BLANK$
         2 016152   000000 165500                    TCTR
         2 016153   202105 000010                    ADSC9   @OPTLEN,,AUTO            cn=0,n=8
         2 016154   000000 000100                    ARG     0,,PR0
         2 016155   200015 000100                    ARG     IND1,,AUTO
         2 016156   200015 235100                    LDA     IND1,,AUTO
         2 016157   000033 771000                    ARL     27
         2 016160   200014 755100                    STA     TEMP,,AUTO
         2 016161   200015 551140                    STBA    IND1,'40'O,AUTO
         2 016162   016165 606400 2                  TTN     s:20257
         2 016163   000007 236007                    LDQ     7,DL
         2 016164   200015 156100                    SSQ     IND1,,AUTO

     3325    20257    3               CALL CPB$BLDIMAGE(OUTBUFF$, DEST$, IN$, IND1+2)

  20257  2 016165   200015 236100                    LDQ     IND1,,AUTO
         2 016166   000002 036007                    ADLQ    2,DL
         2 016167   202352 756100                    STQ     CLSDCB+30,,AUTO
         2 016170   202352 631500                    EPPR1   CLSDCB+30,,AUTO
         2 016171   202357 451500                    STP1    CLSDCB+35,,AUTO
PL6.E3A0      #001=CPE$IBEX2 File=CPE$IBEX2.:E05TSI                              TUE 07/29/97 11:35 Page:514
         2 016172   200034 633500                    EPPR3   IN$,,AUTO
         2 016173   202356 453500                    STP3    CLSDCB+34,,AUTO
         2 016174   200035 634500                    EPPR4   DEST$,,AUTO
         2 016175   202355 454500                    STP4    CLSDCB+33,,AUTO
         2 016176   200036 635500                    EPPR5   OUTBUFF$,,AUTO
         2 016177   202354 455500                    STP5    CLSDCB+32,,AUTO
         2 016200   202354 630500                    EPPR0   CLSDCB+32,,AUTO
         2 016201   000022 631400 xsym               EPPR1   B_VECTNIL+18
         2 016202   000000 701000 xent               TSX1    CPB$BLDIMAGE
         2 016203   017046 702000 2                  TSX2    DISPNOTIFY_ALT

     3326    20258    3                     ALTRET(DISPNOTIFY_ALT) ;
     3327    20259    3             END ; /* Then Do */

     3328    20260    2     IF CP_CHFLAGS.FLG.WAIT

  20260  2 016204   202124 236100                    LDQ     IND2,,AUTO
         2 016205   000020 316007                    CANQ    16,DL
         2 016206   016331 600000 2                  TZE     s:20285

     3329    20261    2         THEN
     3330    20262    3             DO ;

     3331    20263    3               INBUFF = ',  Wait ' ;

  20263  2 016207   040100 100400                    MLR     fill='040'O
         2 016210   001625 000010 1                  ADSC9   CONSTCLS+407             cn=0,n=8
         2 016211   200037 001000                    ADSC9   INBUFF,,AUTO             cn=0,n=512

     3332    20264    3               CALL CPB$BLDIMAGE(OUTBUFF$, DEST$, IN$, 8)

  20264  2 016212   000113 236000 3                  LDQ     75
         2 016213   202355 756100                    STQ     CLSDCB+33,,AUTO
         2 016214   200034 630500                    EPPR0   IN$,,AUTO
         2 016215   202354 450500                    STP0    CLSDCB+32,,AUTO
         2 016216   200035 631500                    EPPR1   DEST$,,AUTO
         2 016217   202353 451500                    STP1    CLSDCB+31,,AUTO
PL6.E3A0      #001=CPE$IBEX2 File=CPE$IBEX2.:E05TSI                              TUE 07/29/97 11:35 Page:515
         2 016220   200036 633500                    EPPR3   OUTBUFF$,,AUTO
         2 016221   202352 453500                    STP3    CLSDCB+30,,AUTO
         2 016222   202352 630500                    EPPR0   CLSDCB+30,,AUTO
         2 016223   000022 631400 xsym               EPPR1   B_VECTNIL+18
         2 016224   000000 701000 xent               TSX1    CPB$BLDIMAGE
         2 016225   017046 702000 2                  TSX2    DISPNOTIFY_ALT

     3333    20265    3                   ALTRET(DISPNOTIFY_ALT) ;
     3334    20266    3               IF CP_CHFLAGS.WAIT_DONE

  20266  2 016226   202123 236100                    LDQ     COUNTER2+2,,AUTO
         2 016227   200000 316007                    CANQ    65536,DL
         2 016230   016251 600000 2                  TZE     s:20275

     3335    20267    3                 THEN
     3336    20268    4                   DO ;

     3337    20269    4                     INBUFF = 'Done ' ;

  20269  2 016231   040100 100400                    MLR     fill='040'O
         2 016232   001627 000005 1                  ADSC9   CONSTCLS+409             cn=0,n=5
         2 016233   200037 001000                    ADSC9   INBUFF,,AUTO             cn=0,n=512

     3338    20270    4                     CALL CPB$BLDIMAGE(OUTBUFF$, DEST$, IN$, 5)

  20270  2 016234   000110 236000 3                  LDQ     72
         2 016235   202355 756100                    STQ     CLSDCB+33,,AUTO
         2 016236   200034 630500                    EPPR0   IN$,,AUTO
         2 016237   202354 450500                    STP0    CLSDCB+32,,AUTO
         2 016240   200035 631500                    EPPR1   DEST$,,AUTO
         2 016241   202353 451500                    STP1    CLSDCB+31,,AUTO
         2 016242   200036 633500                    EPPR3   OUTBUFF$,,AUTO
         2 016243   202352 453500                    STP3    CLSDCB+30,,AUTO
         2 016244   202352 630500                    EPPR0   CLSDCB+30,,AUTO
         2 016245   000022 631400 xsym               EPPR1   B_VECTNIL+18
         2 016246   000000 701000 xent               TSX1    CPB$BLDIMAGE
         2 016247   017046 702000 2                  TSX2    DISPNOTIFY_ALT
PL6.E3A0      #001=CPE$IBEX2 File=CPE$IBEX2.:E05TSI                              TUE 07/29/97 11:35 Page:516

     3339    20271    4                           ALTRET(DISPNOTIFY_ALT) ;
     3340    20272    4                   END ; /* Then Do */

  20272  2 016250   016270 710000 2                  TRA     s:20279

     3341    20273    3                 ELSE
     3342    20274    4                   DO ;

     3343    20275    4                     INBUFF = 'Print ' ;

  20275  2 016251   040100 100400                    MLR     fill='040'O
         2 016252   001631 000006 1                  ADSC9   CONSTCLS+411             cn=0,n=6
         2 016253   200037 001000                    ADSC9   INBUFF,,AUTO             cn=0,n=512

     3344    20276    4                     CALL CPB$BLDIMAGE(OUTBUFF$, DEST$, IN$, 6)

  20276  2 016254   000052 236000 3                  LDQ     42
         2 016255   202355 756100                    STQ     CLSDCB+33,,AUTO
         2 016256   200034 630500                    EPPR0   IN$,,AUTO
         2 016257   202354 450500                    STP0    CLSDCB+32,,AUTO
         2 016260   200035 631500                    EPPR1   DEST$,,AUTO
         2 016261   202353 451500                    STP1    CLSDCB+31,,AUTO
         2 016262   200036 633500                    EPPR3   OUTBUFF$,,AUTO
         2 016263   202352 453500                    STP3    CLSDCB+30,,AUTO
         2 016264   202352 630500                    EPPR0   CLSDCB+30,,AUTO
         2 016265   000022 631400 xsym               EPPR1   B_VECTNIL+18
         2 016266   000000 701000 xent               TSX1    CPB$BLDIMAGE
         2 016267   017046 702000 2                  TSX2    DISPNOTIFY_ALT

     3345    20277    4                           ALTRET(DISPNOTIFY_ALT) ;
     3346    20278    4                   END ; /* Else Do */

     3347    20279    3               IND1 = CP_CHFLAGS.WAIT_INT ;

  20279  2 016270   202125 235100                    LDA     TEMP,,AUTO
         2 016271   202126 236100                    LDQ     UC_FLG,,AUTO
PL6.E3A0      #001=CPE$IBEX2 File=CPE$IBEX2.:E05TSI                              TUE 07/29/97 11:35 Page:517
         2 016272   000022 773000                    LRL     18
         2 016273   200015 756100                    STQ     IND1,,AUTO

     3348    20280    3               CALL BINCHAR(WAIT_INT,IND1) ;

  20280  2 016274   000000 235003                    LDA     0,DU
         2 016275   202352 757100                    STAQ    CLSDCB+30,,AUTO
         2 016276   000100 301500                    BTD
         2 016277   202352 000010                    NDSC9   CLSDCB+30,,AUTO          cn=0,s=lsgnf,sf=0,n=8
         2 016300   202264 030003                    NDSC9   WAIT_INT,,AUTO           cn=0,s=nosgn,sf=0,n=3

     3349    20281    3               CALL CPE$RZEROS(WAIT_INT, SIZEC(WAIT_INT), IND1) ;

  20281  2 016301   200015 630500                    EPPR0   IND1,,AUTO
         2 016302   202354 450500                    STP0    CLSDCB+32,,AUTO
         2 016303   000055 236000 3                  LDQ     45
         2 016304   202353 756100                    STQ     CLSDCB+31,,AUTO
         2 016305   202264 631500                    EPPR1   WAIT_INT,,AUTO
         2 016306   202352 451500                    STP1    CLSDCB+30,,AUTO
         2 016307   202352 630500                    EPPR0   CLSDCB+30,,AUTO
         2 016310   000021 631400 xsym               EPPR1   B_VECTNIL+17
         2 016311   000000 701000 xent               TSX1    CPE$RZEROS
         2 016312   000000 011000                    NOP     0

     3350    20282    3               CALL CPB$BLDIMAGE(OUTBUFF$,DEST$,ADDR(WAIT_INT),IND1)

  20282  2 016313   202264 630500                    EPPR0   WAIT_INT,,AUTO
         2 016314   202352 450500                    STP0    CLSDCB+30,,AUTO
         2 016315   200015 631500                    EPPR1   IND1,,AUTO
         2 016316   202357 451500                    STP1    CLSDCB+35,,AUTO
         2 016317   202352 633500                    EPPR3   CLSDCB+30,,AUTO
         2 016320   202356 453500                    STP3    CLSDCB+34,,AUTO
         2 016321   200035 634500                    EPPR4   DEST$,,AUTO
         2 016322   202355 454500                    STP4    CLSDCB+33,,AUTO
         2 016323   200036 635500                    EPPR5   OUTBUFF$,,AUTO
         2 016324   202354 455500                    STP5    CLSDCB+32,,AUTO
         2 016325   202354 630500                    EPPR0   CLSDCB+32,,AUTO
PL6.E3A0      #001=CPE$IBEX2 File=CPE$IBEX2.:E05TSI                              TUE 07/29/97 11:35 Page:518
         2 016326   000022 631400 xsym               EPPR1   B_VECTNIL+18
         2 016327   000000 701000 xent               TSX1    CPB$BLDIMAGE
         2 016330   017046 702000 2                  TSX2    DISPNOTIFY_ALT

     3351    20283    3                       ALTRET(DISPNOTIFY_ALT) ;
     3352    20284    3             END ; /* Then Do */

     3353    20285    2     IF OUTBUFF ~= ' '

  20285  2 016331   040000 106500                    CMPC    fill='040'O
         2 016332   200237 001000                    ADSC9   OUTBUFF,,AUTO            cn=0,n=512
         2 016333   000035 000001 xsym               ADSC9   B_VECTNIL+29             cn=0,n=1
         2 016334   016363 600000 2                  TZE     s:20293

     3354    20286    2         THEN
     3355    20287    3             DO ;

     3356    20288    3               SEG$2.FPT_WRITE$->FPT$WRITE.BUF_.BOUND=POFFC(DEST$,OUTBUFF$) ;

  20288  2 016335   000000 470400 xsym               LDP0    SEG2$
         2 016336   000165 471500                    LDP1    117,,PR0
         2 016337   200036 236100                    LDQ     OUTBUFF$,,AUTO
         2 016340   000020 772000                    QRL     16
         2 016341   202352 756100                    STQ     CLSDCB+30,,AUTO
         2 016342   200035 236100                    LDQ     DEST$,,AUTO
         2 016343   000020 772000                    QRL     16
         2 016344   202352 136100                    SBLQ    CLSDCB+30,,AUTO
         2 016345   000020 736000                    QLS     16
         2 016346   100004 676100                    ERQ     4,,PR1
         2 016347   000034 376000 xsym               ANQ     B_VECTNIL+28
         2 016350   100004 656100                    ERSQ    4,,PR1

     3357    20289    3               SEG$2.FPT_WRITE$->FPT$WRITE.BUF_.BUF$=OUTBUFF$ ;

  20289  2 016351   000165 471500                    LDP1    117,,PR0
         2 016352   200036 236100                    LDQ     OUTBUFF$,,AUTO
         2 016353   100005 756100                    STQ     5,,PR1
PL6.E3A0      #001=CPE$IBEX2 File=CPE$IBEX2.:E05TSI                              TUE 07/29/97 11:35 Page:519

     3358    20290    3               CALL CPE$LISTOUT(SEG$2.FPT_WRITE$) ALTRET(DISPNOTIFY_ALT) ;

  20290  2 016354   000000 236000 xsym               LDQ     SEG2$
         2 016355   000165 036003                    ADLQ    117,DU
         2 016356   202352 756100                    STQ     CLSDCB+30,,AUTO
         2 016357   202352 630500                    EPPR0   CLSDCB+30,,AUTO
         2 016360   000017 631400 xsym               EPPR1   B_VECTNIL+15
         2 016361   000000 701000 xent               TSX1    CPE$LISTOUT
         2 016362   017046 702000 2                  TSX2    DISPNOTIFY_ALT

     3359    20291    3             END ; /* Then Do */

     3360    20292
     3361    20293    2     OUTBUFF2 = ' ' ;

  20293  2 016363   040100 100400                    MLR     fill='040'O
         2 016364   000035 000001 xsym               ADSC9   B_VECTNIL+29             cn=0,n=1
         2 016365   202223 000170                    ADSC9   OUTBUFF2,,AUTO           cn=0,n=120

     3362    20294    2     OUTBUFF2$ = ADDR(OUTBUFF2) ;

  20294  2 016366   202223 630500                    EPPR0   OUTBUFF2,,AUTO
         2 016367   202261 450500                    STP0    OUTBUFF2$,,AUTO

     3363    20295    2     DEST2$ = OUTBUFF2$ ;

  20295  2 016370   202261 236100                    LDQ     OUTBUFF2$,,AUTO
         2 016371   202262 756100                    STQ     DEST2$,,AUTO

     3364    20296
     3365    20297    2     OUTBUFF = '     Flags:' ;

  20297  2 016372   040100 100400                    MLR     fill='040'O
         2 016373   001633 000013 1                  ADSC9   CONSTCLS+413             cn=0,n=11
         2 016374   200237 001000                    ADSC9   OUTBUFF,,AUTO            cn=0,n=512

PL6.E3A0      #001=CPE$IBEX2 File=CPE$IBEX2.:E05TSI                              TUE 07/29/97 11:35 Page:520
     3366    20298    2     SEG$2.FPT_WRITE$->FPT$WRITE.BUF_.BOUND = 10 ;

  20298  2 016375   000000 471400 xsym               LDP1    SEG2$
         2 016376   100165 473500                    LDP3    117,,PR1
         2 016377   300004 236100                    LDQ     4,,PR3
         2 016400   177777 376007                    ANQ     65535,DL
         2 016401   000141 276000 3                  ORQ     97
         2 016402   300004 756100                    STQ     4,,PR3

     3367    20299    2     SEG$2.FPT_WRITE$->FPT$WRITE.BUF_.BUF$ = OUTBUFF$ ;

  20299  2 016403   100165 470500                    LDP0    117,,PR1
         2 016404   200036 236100                    LDQ     OUTBUFF$,,AUTO
         2 016405   000005 756100                    STQ     5,,PR0

     3368    20300    2     CALL CPE$LISTOUT(SEG$2.FPT_WRITE$) ALTRET(DISPNOTIFY_ALT) ;

  20300  2 016406   000000 236000 xsym               LDQ     SEG2$
         2 016407   000165 036003                    ADLQ    117,DU
         2 016410   202352 756100                    STQ     CLSDCB+30,,AUTO
         2 016411   202352 630500                    EPPR0   CLSDCB+30,,AUTO
         2 016412   000017 631400 xsym               EPPR1   B_VECTNIL+15
         2 016413   000000 701000 xent               TSX1    CPE$LISTOUT
         2 016414   017046 702000 2                  TSX2    DISPNOTIFY_ALT

     3369    20301    2     DEST$ = OUTBUFF$ ;

  20301  2 016415   200036 236100                    LDQ     OUTBUFF$,,AUTO
         2 016416   200035 756100                    STQ     DEST$,,AUTO

     3370    20302              /* Setup Set and Reset in respective buffers */
     3371    20303    2     TAB_VAL = 7 ;

  20303  2 016417   000007 235007                    LDA     7,DL
         2 016420   200474 755100                    STA     TAB_VAL,,AUTO

     3372    20304    2     INBUFF = 'Set:' ;
PL6.E3A0      #001=CPE$IBEX2 File=CPE$IBEX2.:E05TSI                              TUE 07/29/97 11:35 Page:521

  20304  2 016421   040100 100400                    MLR     fill='040'O
         2 016422   001450 000004 1                  ADSC9   CONSTCLS+298             cn=0,n=4
         2 016423   200037 001000                    ADSC9   INBUFF,,AUTO             cn=0,n=512

     3373    20305    2     CALL CPB$BLDIMAGE(OUTBUFF$, DEST$, IN$, 4, TAB_VAL) ALTRET(DISPNOTIFY_ALT) ;

  20305  2 016424   200474 630500                    EPPR0   TAB_VAL,,AUTO
         2 016425   202356 450500                    STP0    CLSDCB+34,,AUTO
         2 016426   000103 236000 3                  LDQ     67
         2 016427   202355 756100                    STQ     CLSDCB+33,,AUTO
         2 016430   200034 631500                    EPPR1   IN$,,AUTO
         2 016431   202354 451500                    STP1    CLSDCB+32,,AUTO
         2 016432   200035 633500                    EPPR3   DEST$,,AUTO
         2 016433   202353 453500                    STP3    CLSDCB+31,,AUTO
         2 016434   200036 634500                    EPPR4   OUTBUFF$,,AUTO
         2 016435   202352 454500                    STP4    CLSDCB+30,,AUTO
         2 016436   202352 630500                    EPPR0   CLSDCB+30,,AUTO
         2 016437   000023 631400 xsym               EPPR1   B_VECTNIL+19
         2 016440   000000 701000 xent               TSX1    CPB$BLDIMAGE
         2 016441   017046 702000 2                  TSX2    DISPNOTIFY_ALT

     3374    20306    2     INBUFF = 'Reset:' ;

  20306  2 016442   040100 100400                    MLR     fill='040'O
         2 016443   001452 000006 1                  ADSC9   CONSTCLS+300             cn=0,n=6
         2 016444   200037 001000                    ADSC9   INBUFF,,AUTO             cn=0,n=512

     3375    20307    2     CALL CPB$BLDIMAGE(OUTBUFF2$, DEST2$, IN$, 6, TAB_VAL) ALTRET(DISPNOTIFY_ALT) ;

  20307  2 016445   200474 630500                    EPPR0   TAB_VAL,,AUTO
         2 016446   202356 450500                    STP0    CLSDCB+34,,AUTO
         2 016447   000052 236000 3                  LDQ     42
         2 016450   202355 756100                    STQ     CLSDCB+33,,AUTO
         2 016451   200034 631500                    EPPR1   IN$,,AUTO
         2 016452   202354 451500                    STP1    CLSDCB+32,,AUTO
         2 016453   202262 633500                    EPPR3   DEST2$,,AUTO
PL6.E3A0      #001=CPE$IBEX2 File=CPE$IBEX2.:E05TSI                              TUE 07/29/97 11:35 Page:522
         2 016454   202353 453500                    STP3    CLSDCB+31,,AUTO
         2 016455   202261 634500                    EPPR4   OUTBUFF2$,,AUTO
         2 016456   202352 454500                    STP4    CLSDCB+30,,AUTO
         2 016457   202352 630500                    EPPR0   CLSDCB+30,,AUTO
         2 016460   000023 631400 xsym               EPPR1   B_VECTNIL+19
         2 016461   000000 701000 xent               TSX1    CPB$BLDIMAGE
         2 016462   017046 702000 2                  TSX2    DISPNOTIFY_ALT

     3376    20308    2     IF CP_CHFLAGS.SYSTEM

  20308  2 016463   202123 236100                    LDQ     COUNTER2+2,,AUTO
         2 016464   400000 316007                    CANQ    -131072,DL
         2 016465   016506 600000 2                  TZE     s:20316

     3377    20309    2         THEN
     3378    20310    3             DO ;

     3379    20311    3               INBUFF = ' System,' ;

  20311  2 016466   040100 100400                    MLR     fill='040'O
         2 016467   001636 000010 1                  ADSC9   CONSTCLS+416             cn=0,n=8
         2 016470   200037 001000                    ADSC9   INBUFF,,AUTO             cn=0,n=512

     3380    20312    3               CALL CPB$BLDIMAGE(OUTBUFF$, DEST$, IN$, 8) ALTRET(DISPNOTIFY_ALT) ;

  20312  2 016471   000113 236000 3                  LDQ     75
         2 016472   202355 756100                    STQ     CLSDCB+33,,AUTO
         2 016473   200034 630500                    EPPR0   IN$,,AUTO
         2 016474   202354 450500                    STP0    CLSDCB+32,,AUTO
         2 016475   200035 631500                    EPPR1   DEST$,,AUTO
         2 016476   202353 451500                    STP1    CLSDCB+31,,AUTO
         2 016477   200036 633500                    EPPR3   OUTBUFF$,,AUTO
         2 016500   202352 453500                    STP3    CLSDCB+30,,AUTO
         2 016501   202352 630500                    EPPR0   CLSDCB+30,,AUTO
         2 016502   000022 631400 xsym               EPPR1   B_VECTNIL+18
         2 016503   000000 701000 xent               TSX1    CPB$BLDIMAGE
         2 016504   017046 702000 2                  TSX2    DISPNOTIFY_ALT
PL6.E3A0      #001=CPE$IBEX2 File=CPE$IBEX2.:E05TSI                              TUE 07/29/97 11:35 Page:523

     3381    20313    3             END ;

  20313  2 016505   016525 710000 2                  TRA     s:20319

     3382    20314    2         ELSE
     3383    20315    3             DO ;

     3384    20316    3               INBUFF = ' System,' ;

  20316  2 016506   040100 100400                    MLR     fill='040'O
         2 016507   001636 000010 1                  ADSC9   CONSTCLS+416             cn=0,n=8
         2 016510   200037 001000                    ADSC9   INBUFF,,AUTO             cn=0,n=512

     3385    20317    3               CALL CPB$BLDIMAGE(OUTBUFF2$, DEST2$, IN$, 8) ALTRET(DISPNOTIFY_ALT) ;

  20317  2 016511   000113 236000 3                  LDQ     75
         2 016512   202355 756100                    STQ     CLSDCB+33,,AUTO
         2 016513   200034 630500                    EPPR0   IN$,,AUTO
         2 016514   202354 450500                    STP0    CLSDCB+32,,AUTO
         2 016515   202262 631500                    EPPR1   DEST2$,,AUTO
         2 016516   202353 451500                    STP1    CLSDCB+31,,AUTO
         2 016517   202261 633500                    EPPR3   OUTBUFF2$,,AUTO
         2 016520   202352 453500                    STP3    CLSDCB+30,,AUTO
         2 016521   202352 630500                    EPPR0   CLSDCB+30,,AUTO
         2 016522   000022 631400 xsym               EPPR1   B_VECTNIL+18
         2 016523   000000 701000 xent               TSX1    CPB$BLDIMAGE
         2 016524   017046 702000 2                  TSX2    DISPNOTIFY_ALT

     3386    20318    3             END ;

     3387    20319    2     IF CP_CHFLAGS.FLG.TERM

  20319  2 016525   202124 236100                    LDQ     IND2,,AUTO
         2 016526   040000 316007                    CANQ    16384,DL
         2 016527   016550 600000 2                  TZE     s:20327

PL6.E3A0      #001=CPE$IBEX2 File=CPE$IBEX2.:E05TSI                              TUE 07/29/97 11:35 Page:524
     3388    20320    2         THEN
     3389    20321    3             DO ;

     3390    20322    3               INBUFF = ' Terminal,' ;

  20322  2 016530   040100 100400                    MLR     fill='040'O
         2 016531   001640 000012 1                  ADSC9   CONSTCLS+418             cn=0,n=10
         2 016532   200037 001000                    ADSC9   INBUFF,,AUTO             cn=0,n=512

     3391    20323    3               CALL CPB$BLDIMAGE(OUTBUFF$, DEST$, IN$, 10) ALTRET(DISPNOTIFY_ALT) ;

  20323  2 016533   000051 236000 3                  LDQ     41
         2 016534   202355 756100                    STQ     CLSDCB+33,,AUTO
         2 016535   200034 630500                    EPPR0   IN$,,AUTO
         2 016536   202354 450500                    STP0    CLSDCB+32,,AUTO
         2 016537   200035 631500                    EPPR1   DEST$,,AUTO
         2 016540   202353 451500                    STP1    CLSDCB+31,,AUTO
         2 016541   200036 633500                    EPPR3   OUTBUFF$,,AUTO
         2 016542   202352 453500                    STP3    CLSDCB+30,,AUTO
         2 016543   202352 630500                    EPPR0   CLSDCB+30,,AUTO
         2 016544   000022 631400 xsym               EPPR1   B_VECTNIL+18
         2 016545   000000 701000 xent               TSX1    CPB$BLDIMAGE
         2 016546   017046 702000 2                  TSX2    DISPNOTIFY_ALT

     3392    20324    3             END ;

  20324  2 016547   016567 710000 2                  TRA     s:20330

     3393    20325    2         ELSE
     3394    20326    3             DO ;

     3395    20327    3               INBUFF = ' Terminal,' ;

  20327  2 016550   040100 100400                    MLR     fill='040'O
         2 016551   001640 000012 1                  ADSC9   CONSTCLS+418             cn=0,n=10
         2 016552   200037 001000                    ADSC9   INBUFF,,AUTO             cn=0,n=512

PL6.E3A0      #001=CPE$IBEX2 File=CPE$IBEX2.:E05TSI                              TUE 07/29/97 11:35 Page:525
     3396    20328    3               CALL CPB$BLDIMAGE(OUTBUFF2$, DEST2$, IN$, 10) ALTRET(DISPNOTIFY_ALT) ;

  20328  2 016553   000051 236000 3                  LDQ     41
         2 016554   202355 756100                    STQ     CLSDCB+33,,AUTO
         2 016555   200034 630500                    EPPR0   IN$,,AUTO
         2 016556   202354 450500                    STP0    CLSDCB+32,,AUTO
         2 016557   202262 631500                    EPPR1   DEST2$,,AUTO
         2 016560   202353 451500                    STP1    CLSDCB+31,,AUTO
         2 016561   202261 633500                    EPPR3   OUTBUFF2$,,AUTO
         2 016562   202352 453500                    STP3    CLSDCB+30,,AUTO
         2 016563   202352 630500                    EPPR0   CLSDCB+30,,AUTO
         2 016564   000022 631400 xsym               EPPR1   B_VECTNIL+18
         2 016565   000000 701000 xent               TSX1    CPB$BLDIMAGE
         2 016566   017046 702000 2                  TSX2    DISPNOTIFY_ALT

     3397    20329    3             END ;

     3398    20330    2     IF CP_CHFLAGS.FLG.INPUT

  20330  2 016567   202124 236100                    LDQ     IND2,,AUTO
         2 016570   020000 316007                    CANQ    8192,DL
         2 016571   016612 600000 2                  TZE     s:20338

     3399    20331    2         THEN
     3400    20332    3             DO ;

     3401    20333    3               INBUFF = ' Input,' ;

  20333  2 016572   040100 100400                    MLR     fill='040'O
         2 016573   001643 000007 1                  ADSC9   CONSTCLS+421             cn=0,n=7
         2 016574   200037 001000                    ADSC9   INBUFF,,AUTO             cn=0,n=512

     3402    20334    3               CALL CPB$BLDIMAGE(OUTBUFF$, DEST$, IN$, 7) ALTRET(DISPNOTIFY_ALT) ;

  20334  2 016575   000053 236000 3                  LDQ     43
         2 016576   202355 756100                    STQ     CLSDCB+33,,AUTO
         2 016577   200034 630500                    EPPR0   IN$,,AUTO
PL6.E3A0      #001=CPE$IBEX2 File=CPE$IBEX2.:E05TSI                              TUE 07/29/97 11:35 Page:526
         2 016600   202354 450500                    STP0    CLSDCB+32,,AUTO
         2 016601   200035 631500                    EPPR1   DEST$,,AUTO
         2 016602   202353 451500                    STP1    CLSDCB+31,,AUTO
         2 016603   200036 633500                    EPPR3   OUTBUFF$,,AUTO
         2 016604   202352 453500                    STP3    CLSDCB+30,,AUTO
         2 016605   202352 630500                    EPPR0   CLSDCB+30,,AUTO
         2 016606   000022 631400 xsym               EPPR1   B_VECTNIL+18
         2 016607   000000 701000 xent               TSX1    CPB$BLDIMAGE
         2 016610   017046 702000 2                  TSX2    DISPNOTIFY_ALT

     3403    20335    3             END ;

  20335  2 016611   016631 710000 2                  TRA     s:20341

     3404    20336    2         ELSE
     3405    20337    3             DO ;

     3406    20338    3               INBUFF = ' Input,' ;

  20338  2 016612   040100 100400                    MLR     fill='040'O
         2 016613   001643 000007 1                  ADSC9   CONSTCLS+421             cn=0,n=7
         2 016614   200037 001000                    ADSC9   INBUFF,,AUTO             cn=0,n=512

     3407    20339    3               CALL CPB$BLDIMAGE(OUTBUFF2$, DEST2$, IN$, 7) ALTRET(DISPNOTIFY_ALT) ;

  20339  2 016615   000053 236000 3                  LDQ     43
         2 016616   202355 756100                    STQ     CLSDCB+33,,AUTO
         2 016617   200034 630500                    EPPR0   IN$,,AUTO
         2 016620   202354 450500                    STP0    CLSDCB+32,,AUTO
         2 016621   202262 631500                    EPPR1   DEST2$,,AUTO
         2 016622   202353 451500                    STP1    CLSDCB+31,,AUTO
         2 016623   202261 633500                    EPPR3   OUTBUFF2$,,AUTO
         2 016624   202352 453500                    STP3    CLSDCB+30,,AUTO
         2 016625   202352 630500                    EPPR0   CLSDCB+30,,AUTO
         2 016626   000022 631400 xsym               EPPR1   B_VECTNIL+18
         2 016627   000000 701000 xent               TSX1    CPB$BLDIMAGE
         2 016630   017046 702000 2                  TSX2    DISPNOTIFY_ALT
PL6.E3A0      #001=CPE$IBEX2 File=CPE$IBEX2.:E05TSI                              TUE 07/29/97 11:35 Page:527

     3408    20340    3             END ;

     3409    20341    2     IF CP_CHFLAGS.FLG.OUTPUT

  20341  2 016631   202124 236100                    LDQ     IND2,,AUTO
         2 016632   010000 316007                    CANQ    4096,DL
         2 016633   016654 600000 2                  TZE     s:20349

     3410    20342    2         THEN
     3411    20343    3             DO ;

     3412    20344    3               INBUFF = ' Output,' ;

  20344  2 016634   040100 100400                    MLR     fill='040'O
         2 016635   001645 000010 1                  ADSC9   CONSTCLS+423             cn=0,n=8
         2 016636   200037 001000                    ADSC9   INBUFF,,AUTO             cn=0,n=512

     3413    20345    3               CALL CPB$BLDIMAGE(OUTBUFF$, DEST$, IN$, 8) ALTRET(DISPNOTIFY_ALT) ;

  20345  2 016637   000113 236000 3                  LDQ     75
         2 016640   202355 756100                    STQ     CLSDCB+33,,AUTO
         2 016641   200034 630500                    EPPR0   IN$,,AUTO
         2 016642   202354 450500                    STP0    CLSDCB+32,,AUTO
         2 016643   200035 631500                    EPPR1   DEST$,,AUTO
         2 016644   202353 451500                    STP1    CLSDCB+31,,AUTO
         2 016645   200036 633500                    EPPR3   OUTBUFF$,,AUTO
         2 016646   202352 453500                    STP3    CLSDCB+30,,AUTO
         2 016647   202352 630500                    EPPR0   CLSDCB+30,,AUTO
         2 016650   000022 631400 xsym               EPPR1   B_VECTNIL+18
         2 016651   000000 701000 xent               TSX1    CPB$BLDIMAGE
         2 016652   017046 702000 2                  TSX2    DISPNOTIFY_ALT

     3414    20346    3             END ;

  20346  2 016653   016673 710000 2                  TRA     s:20352

PL6.E3A0      #001=CPE$IBEX2 File=CPE$IBEX2.:E05TSI                              TUE 07/29/97 11:35 Page:528
     3415    20347    2         ELSE
     3416    20348    3             DO ;

     3417    20349    3               INBUFF = ' Output,' ;

  20349  2 016654   040100 100400                    MLR     fill='040'O
         2 016655   001645 000010 1                  ADSC9   CONSTCLS+423             cn=0,n=8
         2 016656   200037 001000                    ADSC9   INBUFF,,AUTO             cn=0,n=512

     3418    20350    3               CALL CPB$BLDIMAGE(OUTBUFF2$, DEST2$, IN$, 8) ALTRET(DISPNOTIFY_ALT) ;

  20350  2 016657   000113 236000 3                  LDQ     75
         2 016660   202355 756100                    STQ     CLSDCB+33,,AUTO
         2 016661   200034 630500                    EPPR0   IN$,,AUTO
         2 016662   202354 450500                    STP0    CLSDCB+32,,AUTO
         2 016663   202262 631500                    EPPR1   DEST2$,,AUTO
         2 016664   202353 451500                    STP1    CLSDCB+31,,AUTO
         2 016665   202261 633500                    EPPR3   OUTBUFF2$,,AUTO
         2 016666   202352 453500                    STP3    CLSDCB+30,,AUTO
         2 016667   202352 630500                    EPPR0   CLSDCB+30,,AUTO
         2 016670   000022 631400 xsym               EPPR1   B_VECTNIL+18
         2 016671   000000 701000 xent               TSX1    CPB$BLDIMAGE
         2 016672   017046 702000 2                  TSX2    DISPNOTIFY_ALT

     3419    20351    3             END ;

     3420    20352    2     IF CP_CHFLAGS.FLG.RUNNING

  20352  2 016673   202124 236100                    LDQ     IND2,,AUTO
         2 016674   004000 316007                    CANQ    2048,DL
         2 016675   016716 600000 2                  TZE     s:20360

     3421    20353    2         THEN
     3422    20354    3             DO ;

     3423    20355    3               INBUFF = ' Running,' ;

PL6.E3A0      #001=CPE$IBEX2 File=CPE$IBEX2.:E05TSI                              TUE 07/29/97 11:35 Page:529
  20355  2 016676   040100 100400                    MLR     fill='040'O
         2 016677   001647 000011 1                  ADSC9   CONSTCLS+425             cn=0,n=9
         2 016700   200037 001000                    ADSC9   INBUFF,,AUTO             cn=0,n=512

     3424    20356    3               CALL CPB$BLDIMAGE(OUTBUFF$, DEST$, IN$, 9) ALTRET(DISPNOTIFY_ALT) ;

  20356  2 016701   000124 236000 3                  LDQ     84
         2 016702   202355 756100                    STQ     CLSDCB+33,,AUTO
         2 016703   200034 630500                    EPPR0   IN$,,AUTO
         2 016704   202354 450500                    STP0    CLSDCB+32,,AUTO
         2 016705   200035 631500                    EPPR1   DEST$,,AUTO
         2 016706   202353 451500                    STP1    CLSDCB+31,,AUTO
         2 016707   200036 633500                    EPPR3   OUTBUFF$,,AUTO
         2 016710   202352 453500                    STP3    CLSDCB+30,,AUTO
         2 016711   202352 630500                    EPPR0   CLSDCB+30,,AUTO
         2 016712   000022 631400 xsym               EPPR1   B_VECTNIL+18
         2 016713   000000 701000 xent               TSX1    CPB$BLDIMAGE
         2 016714   017046 702000 2                  TSX2    DISPNOTIFY_ALT

     3425    20357    3             END ;

  20357  2 016715   016735 710000 2                  TRA     s:20364

     3426    20358    2         ELSE
     3427    20359    3             DO ;

     3428    20360    3               INBUFF = ' Running,' ;

  20360  2 016716   040100 100400                    MLR     fill='040'O
         2 016717   001647 000011 1                  ADSC9   CONSTCLS+425             cn=0,n=9
         2 016720   200037 001000                    ADSC9   INBUFF,,AUTO             cn=0,n=512

     3429    20361    3               CALL CPB$BLDIMAGE(OUTBUFF2$, DEST2$, IN$, 9) ALTRET(DISPNOTIFY_ALT) ;

  20361  2 016721   000124 236000 3                  LDQ     84
         2 016722   202355 756100                    STQ     CLSDCB+33,,AUTO
         2 016723   200034 630500                    EPPR0   IN$,,AUTO
PL6.E3A0      #001=CPE$IBEX2 File=CPE$IBEX2.:E05TSI                              TUE 07/29/97 11:35 Page:530
         2 016724   202354 450500                    STP0    CLSDCB+32,,AUTO
         2 016725   202262 631500                    EPPR1   DEST2$,,AUTO
         2 016726   202353 451500                    STP1    CLSDCB+31,,AUTO
         2 016727   202261 633500                    EPPR3   OUTBUFF2$,,AUTO
         2 016730   202352 453500                    STP3    CLSDCB+30,,AUTO
         2 016731   202352 630500                    EPPR0   CLSDCB+30,,AUTO
         2 016732   000022 631400 xsym               EPPR1   B_VECTNIL+18
         2 016733   000000 701000 xent               TSX1    CPB$BLDIMAGE
         2 016734   017046 702000 2                  TSX2    DISPNOTIFY_ALT

     3430    20362    3             END ;

     3431    20363                      /* If any flags Set, then output buffer. */
     3432    20364    2     LEN = POFFC(DEST$,OUTBUFF$) ;

  20364  2 016735   200036 236100                    LDQ     OUTBUFF$,,AUTO
         2 016736   000020 772000                    QRL     16
         2 016737   202352 756100                    STQ     CLSDCB+30,,AUTO
         2 016740   200035 236100                    LDQ     DEST$,,AUTO
         2 016741   000020 772000                    QRL     16
         2 016742   202352 136100                    SBLQ    CLSDCB+30,,AUTO
         2 016743   202263 756100                    STQ     LEN,,AUTO

     3433    20365    2     IF LEN>(SIZEC('Set:')+TAB_VAL)

  20365  2 016744   200474 236100                    LDQ     TAB_VAL,,AUTO
         2 016745   000004 036007                    ADLQ    4,DL
         2 016746   016751 604000 2                  TMI     s:20368
         2 016747   202263 116100                    CMPQ    LEN,,AUTO
         2 016750   016773 603000 2                  TRC     s:20374

     3434    20366    2         THEN
     3435    20367    3             DO ;

     3436    20368    3               SEG$2.FPT_WRITE$->FPT$WRITE.BUF_.BOUND = LEN-2 ;

  20368  2 016751   000000 470400 xsym               LDP0    SEG2$
PL6.E3A0      #001=CPE$IBEX2 File=CPE$IBEX2.:E05TSI                              TUE 07/29/97 11:35 Page:531
         2 016752   000165 471500                    LDP1    117,,PR0
         2 016753   202263 236100                    LDQ     LEN,,AUTO
         2 016754   000002 136007                    SBLQ    2,DL
         2 016755   000020 736000                    QLS     16
         2 016756   100004 676100                    ERQ     4,,PR1
         2 016757   000034 376000 xsym               ANQ     B_VECTNIL+28
         2 016760   100004 656100                    ERSQ    4,,PR1

     3437    20369    3               SEG$2.FPT_WRITE$->FPT$WRITE.BUF_.BUF$ = OUTBUFF$ ;

  20369  2 016761   000165 471500                    LDP1    117,,PR0
         2 016762   200036 236100                    LDQ     OUTBUFF$,,AUTO
         2 016763   100005 756100                    STQ     5,,PR1

     3438    20370    3               CALL CPE$LISTOUT(SEG$2.FPT_WRITE$) ALTRET(DISPNOTIFY_ALT) ;

  20370  2 016764   000000 236000 xsym               LDQ     SEG2$
         2 016765   000165 036003                    ADLQ    117,DU
         2 016766   202352 756100                    STQ     CLSDCB+30,,AUTO
         2 016767   202352 630500                    EPPR0   CLSDCB+30,,AUTO
         2 016770   000017 631400 xsym               EPPR1   B_VECTNIL+15
         2 016771   000000 701000 xent               TSX1    CPE$LISTOUT
         2 016772   017046 702000 2                  TSX2    DISPNOTIFY_ALT

     3439    20371    3             END ; /* Then Do */

     3440    20372
     3441    20373                      /* If any flags Reset, then output buffer. */
     3442    20374    2     LEN = POFFC(DEST2$,OUTBUFF2$) ;

  20374  2 016773   202261 236100                    LDQ     OUTBUFF2$,,AUTO
         2 016774   000020 772000                    QRL     16
         2 016775   202352 756100                    STQ     CLSDCB+30,,AUTO
         2 016776   202262 236100                    LDQ     DEST2$,,AUTO
         2 016777   000020 772000                    QRL     16
         2 017000   202352 136100                    SBLQ    CLSDCB+30,,AUTO
         2 017001   202263 756100                    STQ     LEN,,AUTO
PL6.E3A0      #001=CPE$IBEX2 File=CPE$IBEX2.:E05TSI                              TUE 07/29/97 11:35 Page:532

     3443    20375    2     IF LEN>(SIZEC('Reset:')+TAB_VAL)

  20375  2 017002   200474 236100                    LDQ     TAB_VAL,,AUTO
         2 017003   000006 036007                    ADLQ    6,DL
         2 017004   017007 604000 2                  TMI     s:20378
         2 017005   202263 116100                    CMPQ    LEN,,AUTO
         2 017006   017031 603000 2                  TRC     DISPNOTIFY_RET

     3444    20376    2         THEN
     3445    20377    3             DO ;

     3446    20378    3               SEG$2.FPT_WRITE$->FPT$WRITE.BUF_.BOUND = LEN-2 ;

  20378  2 017007   000000 470400 xsym               LDP0    SEG2$
         2 017010   000165 471500                    LDP1    117,,PR0
         2 017011   202263 236100                    LDQ     LEN,,AUTO
         2 017012   000002 136007                    SBLQ    2,DL
         2 017013   000020 736000                    QLS     16
         2 017014   100004 676100                    ERQ     4,,PR1
         2 017015   000034 376000 xsym               ANQ     B_VECTNIL+28
         2 017016   100004 656100                    ERSQ    4,,PR1

     3447    20379    3               SEG$2.FPT_WRITE$->FPT$WRITE.BUF_.BUF$ = OUTBUFF2$ ;

  20379  2 017017   000165 471500                    LDP1    117,,PR0
         2 017020   202261 236100                    LDQ     OUTBUFF2$,,AUTO
         2 017021   100005 756100                    STQ     5,,PR1

     3448    20380    3               CALL CPE$LISTOUT(SEG$2.FPT_WRITE$) ALTRET(DISPNOTIFY_ALT) ;

  20380  2 017022   000000 236000 xsym               LDQ     SEG2$
         2 017023   000165 036003                    ADLQ    117,DU
         2 017024   202352 756100                    STQ     CLSDCB+30,,AUTO
         2 017025   202352 630500                    EPPR0   CLSDCB+30,,AUTO
         2 017026   000017 631400 xsym               EPPR1   B_VECTNIL+15
         2 017027   000000 701000 xent               TSX1    CPE$LISTOUT
PL6.E3A0      #001=CPE$IBEX2 File=CPE$IBEX2.:E05TSI                              TUE 07/29/97 11:35 Page:533
         2 017030   017046 702000 2                  TSX2    DISPNOTIFY_ALT

     3449    20381    3             END ; /* Then Do */

     3450    20382
     3451    20383    2   DISPNOTIFY_RET:
     3452    20384    2     RETURN ;

  20384  2 017031   202072 221300       DISPNOTIFY_* LDX1  ! VLP_SN+4,,AUTO
         2 017032   000001 702211                    TSX2  ! 1,X1

     3453    20385
     3454    20386    2   DISPNOTIFY_ERR:
     3455    20387    2     IF DCBADDR(M$IBEX1_NUM)->F$DCB.FCD#

  20387  2 017033   000102 473400 3     DISPNOTIFY_* LDP3    66
         2 017034   300000 474500                    LDP4    0,,PR3
         2 017035   000000 720000 xsym               LXL0    M$IBEX1_NUM
         2 017036   400000 475510                    LDP5    0,X0,PR4
         2 017037   500031 236100                    LDQ     25,,PR5
         2 017040   020000 316007                    CANQ    8192,DL
         2 017041   017046 600000 2                  TZE     DISPNOTIFY_ALT

     3456    20388    2         THEN
     3457    20389    2             CALL M$CLOSE(FPT_CLOSE) ALTRET(DISPNOTIFY_ALT) ;

  20389  2 017042   201676 630500                    EPPR0   FPT_CLOSE,,AUTO
         2 017043   450001 713400                    CLIMB   alt,close
         2 017044   406000 401760                    pmme    nvectors=13
         2 017045   017046 702000 2                  TSX2    DISPNOTIFY_ALT

     3458    20390
     3459    20391    2   DISPNOTIFY_ALT:
     3460    20392    2     ALTRETURN ;

  20392  2 017046   202072 221300       DISPNOTIFY_* LDX1  ! VLP_SN+4,,AUTO
         2 017047   000000 702211                    TSX2  ! 0,X1
PL6.E3A0      #001=CPE$IBEX2 File=CPE$IBEX2.:E05TSI                              TUE 07/29/97 11:35 Page:534

     3461    20393
     3462    20394    2   END   DISPNOTIFY ;
     3463    20395        %EJECT ;
PL6.E3A0      #001=CPE$IBEX2 File=CPE$IBEX2.:E05TSI                              TUE 07/29/97 11:35 Page:535
     3464    20396        /**********************************************************************/
     3465    20397        /*I*   NAME:   DISPWHEN
     3466    20398               PURPOSE: Display the WHEN command record from the *S file.
     3467    20399               CALL:   CALL DISPWHEN
     3468    20400               INTERFACE: CPC$WRITEMSGE,CPE$LISTOUT,CPB$BLDIMAGE,CPJ$READ_S, CPC$OPEN_S
     3469    20401               INPUT:
     3470    20402               OUTPUT: The WHEN command from the *S WHEN record.
     3471    20403               DESCRIPTION: The WHEN command in the *S WHEN record is displayed
     3472    20404                       on the listing device.
     3473    20405        */
     3474    20406        /**********************************************************************/
     3475    20407    1   DISPWHEN: PROC ALTRET ;

  20407  2 017050   202072 741300       DISPWHEN     STX1  ! VLP_SN+4,,AUTO

     3476    20408
     3477    20409    2     INBUFF = '   When: %Q' ;

  20409  2 017051   040100 100400                    MLR     fill='040'O
         2 017052   001652 000013 1                  ADSC9   CONSTCLS+428             cn=0,n=11
         2 017053   200037 001000                    ADSC9   INBUFF,,AUTO             cn=0,n=512

     3478    20410    2     F_FDS = CF_FDS ;

  20410  2 017054   000100 100400                    MLR     fill='000'O
         2 017055   000317 000170 1                  ADSC9   CF_FDS                   cn=0,n=120
         2 017056   200513 000170                    ADSC9   F_FDS,,AUTO              cn=0,n=120

     3479    20411    2     F_FDS.OUTPUT# = ENTADDR(CPK$FDS_OUTPUT) ;

  20411  2 017057   000000 636000 xent               EAQ     CPK$FDS_OUTPUT
         2 017060   200527 756100                    STQ     F_FDS+12,,AUTO

     3480    20412    2     F_FDS.VECTR$ = ADDR(FMT_VEC(0)) ;

  20412  2 017061   200551 630500                    EPPR0   FMT_VEC,,AUTO
         2 017062   200525 450500                    STP0    F_FDS+10,,AUTO
PL6.E3A0      #001=CPE$IBEX2 File=CPE$IBEX2.:E05TSI                              TUE 07/29/97 11:35 Page:536

     3481    20413    2     F_FDS.BUF_ = VECTOR(OUTBUFF) ;

  20413  2 017063   000046 235000 3                  LDA     38
         2 017064   202352 452500                    STP2    CLSDCB+30,,AUTO
         2 017065   202352 236100                    LDQ     CLSDCB+30,,AUTO
         2 017066   000237 036003                    ADLQ    159,DU
         2 017067   200520 757100                    STAQ    F_FDS+5,,AUTO

     3482    20414    2     F_FDS.FMT_ = VECTOR(INBUFF) ;

  20414  2 017070   000046 235000 3                  LDA     38
         2 017071   202352 452500                    STP2    CLSDCB+30,,AUTO
         2 017072   202352 236100                    LDQ     CLSDCB+30,,AUTO
         2 017073   000037 036003                    ADLQ    31,DU
         2 017074   200513 755100                    STA     F_FDS,,AUTO
         2 017075   200514 756100                    STQ     F_FDS+1,,AUTO

     3483    20415    2     FMT_VEC = '0'B ;

  20415  2 017076   000100 100400                    MLR     fill='000'O
         2 017077   000002 000001 xsym               ADSC9   B_VECTNIL+2              cn=0,n=1
         2 017100   200551 000300                    ADSC9   FMT_VEC,,AUTO            cn=0,n=192

     3484    20416    2     OUTBUFF = ' ' ;

  20416  2 017101   040100 100400                    MLR     fill='040'O
         2 017102   000035 000001 xsym               ADSC9   B_VECTNIL+29             cn=0,n=1
         2 017103   200237 001000                    ADSC9   OUTBUFF,,AUTO            cn=0,n=512

     3485    20417    2     CALL CPC$OPEN_LL ;

  20417  2 017104   000002 631400 xsym               EPPR1   B_VECTNIL+2
         2 017105   000000 701000 xent               TSX1    CPC$OPEN_LL
         2 017106   000000 011000                    NOP     0

     3486    20418    2     IF B$JIT.CPFLAGS1.WHEN_INPUT
PL6.E3A0      #001=CPE$IBEX2 File=CPE$IBEX2.:E05TSI                              TUE 07/29/97 11:35 Page:537

  20418  2 017107   000000 470400 xsym               LDP0    B$JIT$
         2 017110   000143 236100                    LDQ     99,,PR0
         2 017111   000400 316003                    CANQ    256,DU
         2 017112   017323 600000 2                  TZE     WHEN_NONE

     3487    20419    2         THEN
     3488    20420    3             DO ;

     3489    20421    3               FPT_CLOSE = CFPT_CLOSE;

  20421  2 017113   000100 100400                    MLR     fill='000'O
         2 017114   000000 000170 xsym               ADSC9   CFPT_CLOSE               cn=0,n=120
         2 017115   201676 000170                    ADSC9   FPT_CLOSE,,AUTO          cn=0,n=120

     3490    20422    3               FPT_CLOSE.V_ = VECTOR(FPT_CLOSE.V);

  20422  2 017116   000003 235000 3                  LDA     3
         2 017117   202352 452500                    STP2    CLSDCB+30,,AUTO
         2 017120   202352 236100                    LDQ     CLSDCB+30,,AUTO
         2 017121   001730 036003                    ADLQ    984,DU
         2 017122   201676 757100                    STAQ    FPT_CLOSE,,AUTO

     3491    20423    3               FPT_CLOSE.V.DISP# = %SAVE# ;

  20423  2 017123   000002 236007                    LDQ     2,DL
         2 017124   201730 552104                    STBQ    FPT_CLOSE+26,'04'O,AUTO

     3492    20424    3               FPT_CLOSE.V.DCB# = M$IBEX1_NUM ;

  20424  2 017125   000000 720000 xsym               LXL0    M$IBEX1_NUM
         2 017126   201730 740100                    STX0    FPT_CLOSE+26,,AUTO

     3493    20425    3               CALL CPG$GET_WHEN_CNTL_REC(WHEN_CNTL_REC_CHANGED, STAR_S_IS_OPEN)

  20425  2 017127   200025 631500                    EPPR1   STAR_S_IS_OPEN,,AUTO
         2 017130   202353 451500                    STP1    CLSDCB+31,,AUTO
PL6.E3A0      #001=CPE$IBEX2 File=CPE$IBEX2.:E05TSI                              TUE 07/29/97 11:35 Page:538
         2 017131   200024 633500                    EPPR3   WHEN_CNTL_REC_CHANGED,,AUTO
         2 017132   202352 453500                    STP3    CLSDCB+30,,AUTO
         2 017133   202352 630500                    EPPR0   CLSDCB+30,,AUTO
         2 017134   000020 631400 xsym               EPPR1   B_VECTNIL+16
         2 017135   000000 701000 xent               TSX1    CPG$GET_WHEN_CNTL_REC
         2 017136   017337 702000 2                  TSX2    DISPWHEN_ALT

     3494    20426    3                                                            ALTRET(DISPWHEN_ALT) ;
     3495    20427    3               IF SEG$2.WHEN_CNTL_REC$->WHEN$CNTL_REC.WHEN.OPT(SEG$2.WHEN_CNTL_REC$

  20427  2 017137   000000 470400 xsym               LDP0    SEG2$
         2 017140   000175 471500                    LDP1    125,,PR0
         2 017141   100000 236100                    LDQ     0,,PR1
         2 017142   000022 772000                    QRL     18
         2 017143   000777 376007                    ANQ     511,DL
         2 017144   000003 402007                    MPY     3,DL
         2 017145   003100 061506                    CSR     bolr='003'O
         2 017146   100001 000002                    BDSC    1,Q,PR1                  by=0,bit=0,n=2
         2 017147   202352 000044                    BDSC    CLSDCB+30,,AUTO          by=0,bit=0,n=36
         2 017150   202352 236100                    LDQ     CLSDCB+30,,AUTO
         2 017151   000002 116007                    CMPQ    2,DL
         2 017152   017166 600000 2                  TZE     s:20433
         2 017153   000175 471500                    LDP1    125,,PR0
         2 017154   100000 236100                    LDQ     0,,PR1
         2 017155   000022 772000                    QRL     18
         2 017156   000777 376007                    ANQ     511,DL
         2 017157   000003 402007                    MPY     3,DL
         2 017160   003100 061506                    CSR     bolr='003'O
         2 017161   100001 000002                    BDSC    1,Q,PR1                  by=0,bit=0,n=2
         2 017162   202353 000044                    BDSC    CLSDCB+31,,AUTO          by=0,bit=0,n=36
         2 017163   202353 236100                    LDQ     CLSDCB+31,,AUTO
         2 017164   000000 116003                    CMPQ    0,DU
         2 017165   017176 601000 2                  TNZ     s:20439

     3496    20428    3                                          ->WHEN$CNTL_REC.STATE_LEV) = %WHEN_DONT#
     3497    20429    3                 OR SEG$2.WHEN_CNTL_REC$->WHEN$CNTL_REC.WHEN.OPT(SEG$2.WHEN_CNTL_REC$
     3498    20430    3                                          ->WHEN$CNTL_REC.STATE_LEV) = %WHEN_NONE#
PL6.E3A0      #001=CPE$IBEX2 File=CPE$IBEX2.:E05TSI                              TUE 07/29/97 11:35 Page:539
     3499    20431    3                 THEN
     3500    20432    4                   DO ;

     3501    20433    4                     IF STAR_S_IS_OPEN

  20433  2 017166   200025 234100                    SZN     STAR_S_IS_OPEN,,AUTO
         2 017167   017175 605000 2                  TPL     s:20437

     3502    20434    4                       THEN
     3503    20435    5                         CALL M$CLOSE(FPT_CLOSE) WHENALTRETURN DO ;

  20435  2 017170   201676 630500                    EPPR0   FPT_CLOSE,,AUTO
         2 017171   450001 713400                    CLIMB   alt,close
         2 017172   406000 401760                    pmme    nvectors=13
         2 017173   017175 702000 2                  TSX2    s:20437
         2 017174   017175 710000 2                  TRA     s:20437

     3504    20436    5                                                               END ;

     3505    20437    4                     GOTO WHEN_NONE ;

  20437  2 017175   017323 710000 2                  TRA     WHEN_NONE

     3506    20438    4                   END ; /* Then Do */
     3507    20439    3               F_FDS.NVECS# = 0 ;

  20439  2 017176   200524 450100                    STZ     F_FDS+9,,AUTO

     3508    20440    3               CALL X$FORMAT(F_FDS) ;

  20440  2 017177   200513 631500                    EPPR1   F_FDS,,AUTO
         2 017200   202352 451500                    STP1    CLSDCB+30,,AUTO
         2 017201   202352 630500                    EPPR0   CLSDCB+30,,AUTO
         2 017202   000017 631400 xsym               EPPR1   B_VECTNIL+15
         2 017203   000000 701000 xent               TSX1    X$FORMAT
         2 017204   000000 011000                    NOP     0

PL6.E3A0      #001=CPE$IBEX2 File=CPE$IBEX2.:E05TSI                              TUE 07/29/97 11:35 Page:540
     3509    20441    3               K_WHEN = CK_WHEN ;

  20441  2 017205   000100 100400                    MLR     fill='000'O
         2 017206   000356 000006 1                  ADSC9   CK_WHEN                  cn=0,n=6
         2 017207   201652 000006                    ADSC9   K_WHEN,,AUTO             cn=0,n=6

     3510    20442    3               K_WHEN.NUM = SEG$2.WHEN_CNTL_REC$->WHEN$CNTL_REC.STATE_LEV ;

  20442  2 017210   000000 470400 xsym               LDP0    SEG2$
         2 017211   000175 471500                    LDP1    125,,PR0
         2 017212   100000 236100                    LDQ     0,,PR1
         2 017213   201653 552120                    STBQ    K_WHEN+1,'20'O,AUTO

     3511    20443    3               IF ~STAR_S_IS_OPEN

  20443  2 017214   200025 236100                    LDQ     STAR_S_IS_OPEN,,AUTO
         2 017215   400000 376003                    ANQ     -131072,DU
         2 017216   400000 676003                    ERQ     -131072,DU
         2 017217   017224 600000 2                  TZE     s:20446

     3512    20444    3                 THEN
     3513    20445    3                   CALL CPC$OPEN_S(M$IBEX1_NUM) ALTRET(DISPWHEN_ALT);

  20445  2 017220   000006 630400 3                  EPPR0   6
         2 017221   000017 631400 xsym               EPPR1   B_VECTNIL+15
         2 017222   000000 701000 xent               TSX1    CPC$OPEN_S
         2 017223   017337 702000 2                  TSX2    DISPWHEN_ALT

     3514    20446    3               CALL CPJ$READ_S (M$IBEX1_NUM,VECTOR(K_WHEN),

  20446  2 017224   000023 235000 3                  LDA     19
         2 017225   202352 452500                    STP2    CLSDCB+30,,AUTO
         2 017226   202352 236100                    LDQ     CLSDCB+30,,AUTO
         2 017227   001652 036003                    ADLQ    938,DU
         2 017230   000000 470400 xsym               LDP0    SEG2$
         2 017231   000171 471500                    LDP1    121,,PR0
         2 017232   202354 757100                    STAQ    CLSDCB+32,,AUTO
PL6.E3A0      #001=CPE$IBEX2 File=CPE$IBEX2.:E05TSI                              TUE 07/29/97 11:35 Page:541
         2 017233   000444 235000 3                  LDA     292
         2 017234   202356 451500                    STP1    CLSDCB+34,,AUTO
         2 017235   202356 236100                    LDQ     CLSDCB+34,,AUTO
         2 017236   202362 757100                    STAQ    CLSDCB+38,,AUTO
         2 017237   202354 237100                    LDAQ    CLSDCB+32,,AUTO
         2 017240   202360 757100                    STAQ    CLSDCB+36,,AUTO
         2 017241   202362 237100                    LDAQ    CLSDCB+38,,AUTO
         2 017242   202364 757100                    STAQ    CLSDCB+40,,AUTO
         2 017243   202364 633500                    EPPR3   CLSDCB+40,,AUTO
         2 017244   202370 453500                    STP3    CLSDCB+44,,AUTO
         2 017245   202360 634500                    EPPR4   CLSDCB+36,,AUTO
         2 017246   202367 454500                    STP4    CLSDCB+43,,AUTO
         2 017247   000006 236000 3                  LDQ     6
         2 017250   202366 756100                    STQ     CLSDCB+42,,AUTO
         2 017251   202366 630500                    EPPR0   CLSDCB+42,,AUTO
         2 017252   000021 631400 xsym               EPPR1   B_VECTNIL+17
         2 017253   000000 701000 xent               TSX1    CPJ$READ_S
         2 017254   017337 702000 2                  TSX2    DISPWHEN_ALT

     3515    20447    3                           VECTOR(SEG$2.CPBUFF$->CP$BUFF)) ALTRET(DISPWHEN_ALT) ;
     3516    20448    3               TEMP = DCBADDR(M$IBEX1_NUM) -> F$DCB.ARS# ;

  20448  2 017255   000102 470400 3                  LDP0    66
         2 017256   000000 471500                    LDP1    0,,PR0
         2 017257   000000 720000 xsym               LXL0    M$IBEX1_NUM
         2 017260   100000 473510                    LDP3    0,X0,PR1
         2 017261   300000 235100                    LDA     0,,PR3
         2 017262   200014 755100                    STA     TEMP,,AUTO

     3517    20449    3               TVAL = DCBADDR(SEG$2.LLDCB#) -> F$DCB.WIDTH# ;

  20449  2 017263   000000 474400 xsym               LDP4    SEG2$
         2 017264   400000 721100                    LXL1    0,,PR4
         2 017265   100000 475511                    LDP5    0,X1,PR1
         2 017266   500004 236100                    LDQ     4,,PR5
         2 017267   000777 376007                    ANQ     511,DL
         2 017270   200013 756100                    STQ     TVAL,,AUTO
PL6.E3A0      #001=CPE$IBEX2 File=CPE$IBEX2.:E05TSI                              TUE 07/29/97 11:35 Page:542

     3518    20450    3               IF TVAL ~= 0

  20450  2 017271   017301 600000 2                  TZE     s:20453

     3519    20451    3                 THEN
     3520    20452    3                   F_FDS.BUF_ = VECTOR(SUBSTR(OUTBUFF,0,TVAL-1)) ;

  20452  2 017272   200013 235100                    LDA     TVAL,,AUTO
         2 017273   000020 735000                    ALS     16
         2 017274   200140 135007                    SBLA    65632,DL
         2 017275   202352 452500                    STP2    CLSDCB+30,,AUTO
         2 017276   202352 236100                    LDQ     CLSDCB+30,,AUTO
         2 017277   000237 036003                    ADLQ    159,DU
         2 017300   200520 757100                    STAQ    F_FDS+5,,AUTO

     3521    20453    4               CALL M$CLOSE(FPT_CLOSE) WHENALTRETURN DO ;

  20453  2 017301   201676 630500                    EPPR0   FPT_CLOSE,,AUTO
         2 017302   450001 713400                    CLIMB   alt,close
         2 017303   406000 401760                    pmme    nvectors=13
         2 017304   017306 702000 2                  TSX2    s:20455
         2 017305   017306 710000 2                  TRA     s:20455

     3522    20454    4                                                   END ;

     3523    20455    3               FMT_VEC(0) = VECTOR(SEG$2.CPBUFF$->CP$BUFF) ;

  20455  2 017306   000000 470400 xsym               LDP0    SEG2$
         2 017307   000171 471500                    LDP1    121,,PR0
         2 017310   000444 235000 3                  LDA     292
         2 017311   202352 451500                    STP1    CLSDCB+30,,AUTO
         2 017312   202352 236100                    LDQ     CLSDCB+30,,AUTO
         2 017313   200551 755100                    STA     FMT_VEC,,AUTO
         2 017314   200552 756100                    STQ     FMT_VEC+1,,AUTO

     3524    20456    3               F_FDS.NVECS# = 1 ;
PL6.E3A0      #001=CPE$IBEX2 File=CPE$IBEX2.:E05TSI                              TUE 07/29/97 11:35 Page:543

  20456  2 017315   000001 235007                    LDA     1,DL
         2 017316   200524 755100                    STA     F_FDS+9,,AUTO

     3525    20457    3               INBUFF = '     %>A%Q' ;

  20457  2 017317   040100 100400                    MLR     fill='040'O
         2 017320   001655 000012 1                  ADSC9   CONSTCLS+431             cn=0,n=10
         2 017321   200037 001000                    ADSC9   INBUFF,,AUTO             cn=0,n=512

     3526    20458    3             END ; /* Then Do */

  20458  2 017322   017327 710000 2                  TRA     s:20465

     3527    20459    2         ELSE
     3528    20460    3             DO ;

     3529    20461    3   WHEN_NONE:
     3530    20462    3               F_FDS.NVECS# = 0 ;

  20462  2 017323   200524 450100       WHEN_NONE    STZ     F_FDS+9,,AUTO

     3531    20463    3               CALL INSERT(INBUFF, 9, , 'none%Q') ;

  20463  2 017324   040100 100400                    MLR     fill='040'O
         2 017325   001660 000006 1                  ADSC9   CONSTCLS+434             cn=0,n=6
         2 017326   200041 200767                    ADSC9   INBUFF+2,,AUTO           cn=1,n=503

     3532    20464    3             END ; /* Else Do */

     3533    20465    2     CALL X$FORMAT(F_FDS) ;

  20465  2 017327   200513 630500                    EPPR0   F_FDS,,AUTO
         2 017330   202352 450500                    STP0    CLSDCB+30,,AUTO
         2 017331   202352 630500                    EPPR0   CLSDCB+30,,AUTO
         2 017332   000017 631400 xsym               EPPR1   B_VECTNIL+15
         2 017333   000000 701000 xent               TSX1    X$FORMAT
PL6.E3A0      #001=CPE$IBEX2 File=CPE$IBEX2.:E05TSI                              TUE 07/29/97 11:35 Page:544
         2 017334   000000 011000                    NOP     0

     3534    20466    2     RETURN ;

  20466  2 017335   202072 221300                    LDX1  ! VLP_SN+4,,AUTO
         2 017336   000001 702211                    TSX2  ! 1,X1

     3535    20467
     3536    20468    2   DISPWHEN_ALT:
     3537    20469    3     CALL M$CLOSE(FPT_CLOSE) WHENALTRETURN DO ;

  20469  2 017337   201676 630500       DISPWHEN_ALT EPPR0   FPT_CLOSE,,AUTO
         2 017340   450001 713400                    CLIMB   alt,close
         2 017341   406000 401760                    pmme    nvectors=13
         2 017342   017344 702000 2                  TSX2    s:20471
         2 017343   017344 710000 2                  TRA     s:20471

     3538    20470    3                                           END ;

     3539    20471    2     ALTRETURN ;

  20471  2 017344   202072 221300                    LDX1  ! VLP_SN+4,,AUTO
         2 017345   000000 702211                    TSX2  ! 0,X1

     3540    20472
     3541    20473    2   END   DISPWHEN ;
     3542    20474        %EJECT ;
PL6.E3A0      #001=CPE$IBEX2 File=CPE$IBEX2.:E05TSI                              TUE 07/29/97 11:35 Page:545
     3543    20475    1   FIND_OR_CREATE_STREAM: PROC(RES#, CREATE_FLG, DCB#, OPEN_FLG) ALTRET;

  20475  2 017346   202072 741300       FIND_OR_CRE* STX1  ! VLP_SN+4,,AUTO

     3544    20476        /*
     3545    20477            FIND_OR_CREATE_STREAM will first try to locate a DCB directed to that
     3546    20478              stream.  If it locates a DCB that is open it returns the DCB# to the
     3547    20479              calling routine (OPEN_FLG has been reset, this routine did not open
     3548    20480              the DCB).  If it locates a DCB that is not open, it opens the DCB to
     3549    20481              the stream, sets OPEN_FLG, and returns the DCB# to calling routine.
     3550    20482              If it does not locate a DCB, it will look to see if the CREATE_FLG is
     3551    20483              set.  If it is not, FIND_OR_CREATE_STREAM will ALTRETURN.  Otherwise,
     3552    20484              FIND_AND_CREATE_STREAM will open the DCB with res=RES#, set OPEN_FLG,
     3553    20485              and return the DCB# to the calling routine.
     3554    20486
     3555    20487              If RES# is just a 2 character device name, ie 'UC, then the CREATE_FLG
     3556    20488              is ignored.
     3557    20489        */
     3558    20490        /*
     3559    20491          *** Parameters
     3560    20492        */
     3561    20493    2   DCL RES# CHAR(4);
     3562    20494    2   DCL 1 RES#_R REDEF RES#,
     3563    20495    2         2 DEV CHAR(2),
     3564    20496    2         2 NUM CHAR(2);
     3565    20497    2   DCL CREATE_FLG BIT(1) ALIGNED;
     3566    20498    2   DCL DCB# UBIN WORD;
     3567    20499    2   DCL OPEN_FLG BIT(1) ALIGNED;
     3568    20500
     3569    20501        /*
     3570    20502          *** Auto
     3571    20503        */
     3572    20504    2   DCL I UBIN WORD ;
     3573    20505    2   DCL K UBIN ;
     3574    20506    2   DCL GOT_STREAM BIT(1);
     3575    20507    2   DCL IGNORE_CREATE_FLG BIT(1);
     3576    20508    2   DCL DCBTAB$ PTR ;
PL6.E3A0      #001=CPE$IBEX2 File=CPE$IBEX2.:E05TSI                              TUE 07/29/97 11:35 Page:546
     3577    20509    2   DCL DCB$ PTR;
     3578    20510        %FPT_OPEN(FPTN=OPNDCB,STCLASS=);
     3579    20619        /*
     3580    20620          *** Constant
     3581    20621        */
     3582    20622        %FPT_OPEN(FPTN=CONSTOPN,STCLASS=CONSTANT,ASN=DEVICE,FUN=CREATE);
     3583    20731        /**/
     3584    20732    2           OPEN_FLG = %NO# ;

  20732  2 017347   202076 470500                    LDP0    @OPEN_FLG,,AUTO
         2 017350   000000 450100                    STZ     0,,PR0

     3585    20733    2           GOT_STREAM = %NO#;

  20733  2 017351   202101 450100                    STZ     GOT_STREAM,,AUTO

     3586    20734    2           DCBTAB$ = B$ROS$->B$ROSEG.DCBPTR$ ;

  20734  2 017352   000000 471400 xsym               LDP1    B$ROS$
         2 017353   100000 236100                    LDQ     0,,PR1
         2 017354   202103 756100                    STQ     DCBTAB$,,AUTO

     3587    20735    2           K = B$ROS$->B$ROSEG.NUMDCBS ;

  20735  2 017355   100002 236100                    LDQ     2,,PR1
         2 017356   000022 772000                    QRL     18
         2 017357   202100 756100                    STQ     K,,AUTO

     3588    20736    2           IF RES#_R.NUM = ' '

  20736  2 017360   202073 473500                    LDP3    @RES#,,AUTO
         2 017361   040000 106500                    CMPC    fill='040'O
         2 017362   300000 400002                    ADSC9   0,,PR3                   cn=2,n=2
         2 017363   000035 000001 xsym               ADSC9   B_VECTNIL+29             cn=0,n=1
         2 017364   017370 601000 2                  TNZ     s:20740

     3589    20737    2           THEN
PL6.E3A0      #001=CPE$IBEX2 File=CPE$IBEX2.:E05TSI                              TUE 07/29/97 11:35 Page:547
     3590    20738    2             IGNORE_CREATE_FLG = %YES#;

  20738  2 017365   400000 236003                    LDQ     -131072,DU
         2 017366   202102 756100                    STQ     IGNORE_CREATE_FLG,,AUTO
         2 017367   017371 710000 2                  TRA     s:20745

     3591    20739    2           ELSE
     3592    20740    2             IGNORE_CREATE_FLG = %NO#;

  20740  2 017370   202102 450100                    STZ     IGNORE_CREATE_FLG,,AUTO

     3593    20741        /*
     3594    20742              First look for a dcb open to the specified stream,
     3595    20743              failing locating one, open a dcb to that stream.
     3596    20744        */
     3597    20745    3           DO I=2 TO K-1 ;

  20745  2 017371   000002 235007                    LDA     2,DL
         2 017372   202077 755100                    STA     I,,AUTO
         2 017373   017445 710000 2                  TRA     s:20763+3

     3598    20746    3             IF DCBADDR(I)~=ADDR(NIL)

  20746  2 017374   000102 470400 3                  LDP0    66
         2 017375   000000 471500                    LDP1    0,,PR0
         2 017376   202077 720100                    LXL0    I,,AUTO
         2 017377   100000 236110                    LDQ     0,X0,PR1
         2 017400   000001 116000 xsym               CMPQ    B_VECTNIL+1
         2 017401   017436 600000 2                  TZE     s:20760

     3599    20747    3             THEN
     3600    20748    4               DO;

     3601    20749    4                 DCB$ = DCBADDR(I);

  20749  2 017402   202104 756100                    STQ     DCB$,,AUTO

PL6.E3A0      #001=CPE$IBEX2 File=CPE$IBEX2.:E05TSI                              TUE 07/29/97 11:35 Page:548
     3602    20750    4                IF B$ROS$->B$ROSEG.LDEVNAME(DCBADDR(I)->F$DCB.STR#) = RES# OR DCBADDR(
             20750                          I)->F$DCB.RES# = RES#

  20750  2 017403   100000 473510                    LDP3    0,X0,PR1
         2 017404   300077 721100                    LXL1    63,,PR3
         2 017405   000777 361003                    ANX1    511,DU
         2 017406   000000 635011                    EAA     0,X1
         2 017407   000020 771000                    ARL     16
         2 017410   000000 474400 xsym               LDP4    B$ROS$
         2 017411   202073 475500                    LDP5    @RES#,,AUTO
         2 017412   040100 106505                    CMPC    fill='040'O
         2 017413   400054 000004                    ADSC9   44,A,PR4                 cn=0,n=4
         2 017414   500000 000004                    ADSC9   0,,PR5                   cn=0,n=4
         2 017415   017422 600000 2                  TZE     s:20753
         2 017416   040100 106500                    CMPC    fill='040'O
         2 017417   300026 000004                    ADSC9   22,,PR3                  cn=0,n=4
         2 017420   500000 000004                    ADSC9   0,,PR5                   cn=0,n=4
         2 017421   017427 601000 2                  TNZ     s:20756

     3603    20751    4                 THEN
     3604    20752    5                   DO;

     3605    20753    5                     GOT_STREAM = %YES#;

  20753  2 017422   400000 236003                    LDQ     -131072,DU
         2 017423   202101 756100                    STQ     GOT_STREAM,,AUTO

     3606    20754    5                     DCB# = I;

  20754  2 017424   202075 476500                    LDP6    @DCB#,,AUTO
         2 017425   202077 235100                    LDA     I,,AUTO
         2 017426   600000 755100                    STA     0,,PR6

     3607    20755    5                   END; /* Then Do */

     3608    20756    4                 IF DCBADDR(I)->F$DCB.FCD# AND GOT_STREAM

PL6.E3A0      #001=CPE$IBEX2 File=CPE$IBEX2.:E05TSI                              TUE 07/29/97 11:35 Page:549
  20756  2 017427   300031 236100                    LDQ     25,,PR3
         2 017430   020000 316007                    CANQ    8192,DL
         2 017431   017436 600000 2                  TZE     s:20760
         2 017432   202101 234100                    SZN     GOT_STREAM,,AUTO
         2 017433   017436 605000 2                  TPL     s:20760

     3609    20757    4                 THEN
     3610    20758    4                   RETURN ;

  20758  2 017434   202072 221300                    LDX1  ! VLP_SN+4,,AUTO
         2 017435   000001 702211                    TSX2  ! 1,X1

     3611    20759    4               END; /* Then Do */
     3612    20760    3               IF GOT_STREAM

  20760  2 017436   202101 234100                    SZN     GOT_STREAM,,AUTO
         2 017437   017442 605000 2                  TPL     s:20763

     3613    20761    3                 THEN
     3614    20762    3                   I = K;  /* Get out of this loop */

  20762  2 017440   202100 235100                    LDA     K,,AUTO
         2 017441   202077 755100                    STA     I,,AUTO

     3615    20763    3           END ;                        /* Do I                               */

  20763  2 017442   202077 235100                    LDA     I,,AUTO
         2 017443   000001 035007                    ADLA    1,DL
         2 017444   202077 755100                    STA     I,,AUTO
         2 017445   202077 236100                    LDQ     I,,AUTO
         2 017446   202100 116100                    CMPQ    K,,AUTO
         2 017447   017374 602000 2                  TNC     s:20746

     3616    20764        /*
     3617    20765              No dcb open to this stream.  If we didn't find a dcb see if there
     3618    20766              is an LDEV defined.
     3619    20767        */
PL6.E3A0      #001=CPE$IBEX2 File=CPE$IBEX2.:E05TSI                              TUE 07/29/97 11:35 Page:550
     3620    20768    2           IF NOT GOT_STREAM

  20768  2 017450   202101 234100                    SZN     GOT_STREAM,,AUTO
         2 017451   017472 604000 2                  TMI     s:20778

     3621    20769    2             THEN
     3622    20770    3               DO I = 0 TO 15;

  20770  2 017452   202077 450100                    STZ     I,,AUTO

     3623    20771    3                 IF B$ROS$->B$ROSEG.LDEVNAME(I) = RES#

  20771  2 017453   202077 235100                    LDA     I,,AUTO
         2 017454   000002 735000                    ALS     2
         2 017455   000000 470400 xsym               LDP0    B$ROS$
         2 017456   202073 471500                    LDP1    @RES#,,AUTO
         2 017457   040100 106505                    CMPC    fill='040'O
         2 017460   000054 000004                    ADSC9   44,A,PR0                 cn=0,n=4
         2 017461   100000 000004                    ADSC9   0,,PR1                   cn=0,n=4
         2 017462   017465 601000 2                  TNZ     s:20774

     3624    20772    3                   THEN
     3625    20773    3                     IGNORE_CREATE_FLG = %YES#;

  20773  2 017463   400000 236003                    LDQ     -131072,DU
         2 017464   202102 756100                    STQ     IGNORE_CREATE_FLG,,AUTO

     3626    20774    3               END; /* Do I */

  20774  2 017465   202077 236100                    LDQ     I,,AUTO
         2 017466   000001 036007                    ADLQ    1,DL
         2 017467   202077 756100                    STQ     I,,AUTO
         2 017470   000020 116007                    CMPQ    16,DL
         2 017471   017453 602000 2                  TNC     s:20771

     3627    20775        /*
     3628    20776              If we do not have a stream, and we can not create one, then ALTRETURN.
PL6.E3A0      #001=CPE$IBEX2 File=CPE$IBEX2.:E05TSI                              TUE 07/29/97 11:35 Page:551
     3629    20777        */
     3630    20778    2           IF NOT (GOT_STREAM OR IGNORE_CREATE_FLG OR CREATE_FLG)

  20778  2 017472   202101 234100                    SZN     GOT_STREAM,,AUTO
         2 017473   017503 604000 2                  TMI     s:20781
         2 017474   202102 234100                    SZN     IGNORE_CREATE_FLG,,AUTO
         2 017475   017503 604000 2                  TMI     s:20781
         2 017476   202074 470500                    LDP0    @CREATE_FLG,,AUTO
         2 017477   000000 234100                    SZN     0,,PR0
         2 017500   017503 604000 2                  TMI     s:20781

     3631    20779    2           THEN /* We don't have one, and we are not allowed to create one. */
     3632    20780    2             ALTRETURN;

  20780  2 017501   202072 221300                    LDX1  ! VLP_SN+4,,AUTO
         2 017502   000000 702211                    TSX2  ! 0,X1

     3633    20781    2           OPNDCB = CONSTOPN;

  20781  2 017503   000100 100400                    MLR     fill='000'O
         2 017504   000704 000350 1                  ADSC9   CONSTOPN                 cn=0,n=232
         2 017505   202106 000350                    ADSC9   OPNDCB,,AUTO             cn=0,n=232

     3634    20782    2           OPNDCB.V_ = VECTOR(OPNDCB.V) ;

  20782  2 017506   000064 235000 3                  LDA     52
         2 017507   202352 452500                    STP2    CLSDCB+30,,AUTO
         2 017510   202352 236100                    LDQ     CLSDCB+30,,AUTO
         2 017511   002152 036003                    ADLQ    1130,DU
         2 017512   202106 757100                    STAQ    OPNDCB,,AUTO

     3635    20783    2           IF NOT GOT_STREAM

  20783  2 017513   202101 234100                    SZN     GOT_STREAM,,AUTO
         2 017514   017520 604000 2                  TMI     s:20786

     3636    20784    2           THEN   /* Need to use M$IBEX */
PL6.E3A0      #001=CPE$IBEX2 File=CPE$IBEX2.:E05TSI                              TUE 07/29/97 11:35 Page:552
     3637    20785    2             DCB# = M$IBEX1_NUM ;

  20785  2 017515   202075 470500                    LDP0    @DCB#,,AUTO
         2 017516   000000 235000 xsym               LDA     M$IBEX1_NUM
         2 017517   000000 755100                    STA     0,,PR0

     3638    20786    2           IF DCBADDR(DCB#)->F$DCB.FCD#

  20786  2 017520   000102 470400 3                  LDP0    66
         2 017521   000000 471500                    LDP1    0,,PR0
         2 017522   202075 473500                    LDP3    @DCB#,,AUTO
         2 017523   300000 720100                    LXL0    0,,PR3
         2 017524   100000 474510                    LDP4    0,X0,PR1
         2 017525   400031 236100                    LDQ     25,,PR4
         2 017526   020000 316007                    CANQ    8192,DL
         2 017527   017534 600000 2                  TZE     s:20789

     3639    20787    2             THEN
     3640    20788    2               CALL CLOSE_DCB(DCB#);

  20788  2 017530   202075 236100                    LDQ     @DCB#,,AUTO
         2 017531   202313 756100                    STQ     TBUFF+3,,AUTO
         2 017532   017561 701000 2                  TSX1    CLOSE_DCB
         2 017533   000000 011000                    NOP     0

     3641    20789    2           OPNDCB.V.DCB# = DCB#;

  20789  2 017534   202075 470500                    LDP0    @DCB#,,AUTO
         2 017535   000000 720100                    LXL0    0,,PR0
         2 017536   202152 740100                    STX0    I+14,,AUTO

     3642    20790    2           OPNDCB.V.RES# = RES#;

  20790  2 017537   202073 471500                    LDP1    @RES#,,AUTO
         2 017540   040100 100500                    MLR     fill='040'O
         2 017541   100000 000004                    ADSC9   0,,PR1                   cn=0,n=4
         2 017542   202156 000004                    ADSC9   I+18,,AUTO               cn=0,n=4
PL6.E3A0      #001=CPE$IBEX2 File=CPE$IBEX2.:E05TSI                              TUE 07/29/97 11:35 Page:553

     3643    20791    2           OPNDCB.V.ASN# = %DEVICE# ;

  20791  2 017543   000003 236007                    LDQ     3,DL
         2 017544   202153 552104                    STBQ    I+15,'04'O,AUTO

     3644    20792    3           CALL M$OPEN(OPNDCB) WHENALTRETURN DO;

  20792  2 017545   202106 630500                    EPPR0   OPNDCB,,AUTO
         2 017546   450000 713400                    CLIMB   alt,open
         2 017547   410400 401760                    pmme    nvectors=18
         2 017550   017552 702000 2                  TSX2    s:20793
         2 017551   017554 710000 2                  TRA     s:20795

     3645    20793    3                                  ALTRETURN;

  20793  2 017552   202072 221300                    LDX1  ! VLP_SN+4,,AUTO
         2 017553   000000 702211                    TSX2  ! 0,X1

     3646    20794    3                                 END;
     3647    20795    2           OPEN_FLG = %YES# ;

  20795  2 017554   400000 236003                    LDQ     -131072,DU
         2 017555   202076 470500                    LDP0    @OPEN_FLG,,AUTO
         2 017556   000000 756100                    STQ     0,,PR0

     3648    20796    2           RETURN ;

  20796  2 017557   202072 221300                    LDX1  ! VLP_SN+4,,AUTO
         2 017560   000001 702211                    TSX2  ! 1,X1

     3649    20797
     3650    20798    2   END   FIND_OR_CREATE_STREAM;
     3651    20799        %EJECT ;
PL6.E3A0      #001=CPE$IBEX2 File=CPE$IBEX2.:E05TSI                              TUE 07/29/97 11:35 Page:554
     3652    20800    1   CLOSE_DCB: PROC(DCB#) ;

  20800  2 017561   202312 741300       CLOSE_DCB    STX1  ! TBUFF+2,,AUTO

     3653    20801
     3654    20802        /*
     3655    20803          *** Parameters
     3656    20804        */
     3657    20805    2   DCL DCB# UBIN WORD;
     3658    20806        /*
     3659    20807          *** Auto
     3660    20808        */
     3661    20809        %FPT_CLOSE(FPTN=CLSDCB,STCLASS=);
     3662    20851        /*
     3663    20852          *** Constant
     3664    20853        */
     3665    20854        %FPT_CLOSE(FPTN=CONSTCLS,STCLASS=CONSTANT,DISP=SAVE);
     3666    20896
     3667    20897    2           CLSDCB=CONSTCLS;

  20897  2 017562   000100 100400                    MLR     fill='000'O
         2 017563   000776 000170 1                  ADSC9   CONSTCLS                 cn=0,n=120
         2 017564   202314 000170                    ADSC9   CLSDCB,,AUTO             cn=0,n=120

     3668    20898    2           CLSDCB.V.DCB#=DCB#;

  20898  2 017565   202313 470500                    LDP0    @DCB#,,AUTO
         2 017566   000000 720100                    LXL0    0,,PR0
         2 017567   202346 740100                    STX0    CLSDCB+26,,AUTO

     3669    20899    2           CLSDCB.V_=VECTOR(CLSDCB.V);

  20899  2 017570   000003 235000 3                  LDA     3
         2 017571   202352 452500                    STP2    CLSDCB+30,,AUTO
         2 017572   202352 236100                    LDQ     CLSDCB+30,,AUTO
         2 017573   002346 036003                    ADLQ    1254,DU
         2 017574   202314 757100                    STAQ    CLSDCB,,AUTO
PL6.E3A0      #001=CPE$IBEX2 File=CPE$IBEX2.:E05TSI                              TUE 07/29/97 11:35 Page:555

     3670    20900    3           CALL M$CLOSE(CLSDCB) WHENALTRETURN DO;

  20900  2 017575   202314 630500                    EPPR0   CLSDCB,,AUTO
         2 017576   450001 713400                    CLIMB   alt,close
         2 017577   406000 401760                    pmme    nvectors=13
         2 017600   017602 702000 2                  TSX2    s:20902
         2 017601   017602 710000 2                  TRA     s:20902

     3671    20901    3                                  END ;

     3672    20902    2           RETURN ;

  20902  2 017602   202312 221300                    LDX1  ! TBUFF+2,,AUTO
         2 017603   000001 702211                    TSX2  ! 1,X1
     3673    20903    2   END   CLOSE_DCB ;
     3674    20904    1   END CPE$IBEX2;

PL6.E3A0      #001=CPE$IBEX2 File=CPE$IBEX2.:E05TSI                              TUE 07/29/97 11:35 Page:556
--  Include file information  --

   NK_VFC_C.:E05TOU  is referenced.
   B_MICROPS_C.:E05TOU  is referenced.
   KL_SUPER_C.:E05TOU  is referenced.
   CP_DATA_R.:E05TOU  cannot be made into a system file and is referenced.
   AS_SUPER_C.:E05TOU  is referenced.
   B_ERRORS_C.:E05TOU  is referenced.
   CP_6_SUBS.:E05TOU  is referenced.
   CP_PERR_C.:E05TOU  is referenced.
   CP_SUBS_C.:E05TOU  is referenced.
   FM$MACROS.:E05TOU  is referenced.
   XU_FORMAT_C.:E05TOU  is referenced.
   XU_MACRO_C.:E05TOU  is referenced.
   CX_MACROS_M.:E05TOU  is referenced.
   CP_MACROS_C.:E05TOU  is referenced.
   B$TABLES_C.:E05TOU  cannot be made into a system file and is referenced.
   B_MACROS_C.:E05TOU  is referenced.
   B_STRINGS_C.:E05TOU  is referenced.
   B$ROSEG.:E05TOU  cannot be made into a system file and is referenced.
   B$JIT.:E05TOU  cannot be made into a system file and is referenced.
   CP_6.:E05TOU  cannot be made into a system file and is referenced.
   B$JIT_C.:E05TOU  was found in the system file and is referenced.
   CP_6_C.:E05TOU  was found in the system file and is referenced.
      No diagnostics issued in procedure CPE$IBEX2.
PL6.E3A0      #001=CPE$IBEX2 File=CPE$IBEX2.:E05TSI                              TUE 07/29/97 11:35 Page:557

 **** Variables and constants ****

  ****  Section 001 RoData CPE$IBEX2

  ****  Scalars and arrays  ****
OctLoc.c.b A Datatyp(siz) R M Lvl/name                 OctLoc.c.b A Datatyp(siz) R M Lvl/name

   474-0-0/c CHAR(7)     r     1 ACCESS_FLAGS(0:11)
   674-0-0/d STRC(288)   r     1 CFPT_TRMCTL              317-0-0/w STRC(1080)  r     1 CF_FDS
   356-0-0/d STRC(54)    r     1 CK_WHEN                  636-0-0/d STRC(1080)  r     1 CONSTCLS
   776-0-0/d STRC(1080)  r     1 CONSTCLS                 544-0-0/d STRC(2088)  r     1 CONSTOPN
   704-0-0/d STRC(2088)  r     1 CONSTOPN                   0-0-0/c CHAR(9)     r     1 CONTAB
   367-0-0/c CHAR(19)    r     1 DCBHDR                   374-0-0/c CHAR(24)    r     1 DCBNHDR
   402-0-0/c CHAR(24)    r     1 DISPHDR1                 360-0-0/w STRC        r     1 E_BADPASS
   362-0-0/w STRC        r     1 E_NOASGN                 365-0-0/w STRC        r     1 E_NOLDEVTHATTYPE
   364-0-0/w STRC        r     1 E_NOSUCHLDEV             363-0-0/w STRC        r     1 E_PASSCHNGE
   361-0-0/w STRC        r     1 E_QUIT
   366-0-0/c CHAR        r     1 FDCB_CHAR(0:0)
   410-0-0/w STRC(117)   r     1 FLAGS_TBL(0:12)
     3-0-0/c CHAR(20)    r     1 LDEVHDR                   10-0-0/c CHAR(25)    r     1 LDEVNHDR
    20-0-0/d STRC(45)    r     1 M$DODCB
   521-0-0/b BIT (9)     r     1 MOPS_7_2_STR(0:5)
    23-0-0/w STRC(144)   r     1 OPT_TBL(0:46)             22-0-0/w SBIN        r     1 OPT_TBLSZE

  ****  Auto variables  ****

  ****  Scalars and arrays  ****
OctLoc.c.b A Datatyp(siz) R M Lvl/name                 OctLoc.c.b A Datatyp(siz) R M Lvl/name

  2132-0-0/w PTR         r     1 @AMOPTN1$               2133-0-0/w PTR         r     1 @AMOPTN2$
  2074-0-0/w PTR         r     1 @CREATE_FLG             2075-0-0/w PTR         r     1 @DCB#
  2313-0-0/w PTR         r     1 @DCB#                   2075-0-0/w PTR         r     1 @DCB$
  2305-0-0/w PTR         r     1 @FLAG                   2306-0-0/w PTR         r     1 @KEYWD
  2305-0-0/w PTR         r     1 @KEYWDSZE               2307-0-0/w PTR         r     1 @KEYWDVAL
  2307-0-0/w PTR         r     1 @LENGTH                 2111-0-0/w PTR         r     1 @N
  2103-0-0/w PTR         r     1 @N                      2076-0-0/w PTR         r     1 @OPEN_FLG
  2112-0-0/w PTR         r     1 @OPT                    2104-0-0/w PTR         r     1 @OPT
PL6.E3A0      #001=CPE$IBEX2 File=CPE$IBEX2.:E05TSI                              TUE 07/29/97 11:35 Page:558
  2131-0-0/w PTR         r     1 @OPTION                 2113-0-0/w PTR         r     1 @OPTLEN
  2105-0-0/w PTR         r     1 @OPTLEN                 2131-0-0/w PTR         r     1 @OPTN
  2132-0-0/w PTR         r     1 @OSZE                   2133-0-0/w PTR         r     1 @OTEXT$
     3-0-0/w PTR         r     1 @P$PCB                  2131-0-0/w PTR         r     1 @PMSN$
  2073-0-0/w PTR         r     1 @RES#                   2076-0-0/w PTR         r     1 @TAB_VAL
  2306-0-0/w PTR         r     1 @TEXT                    510-0-0/b BIT         r     1 ACTIVE_PRIVS
    *0-0-0/w PTR         r     1 AMOPTN1$                  *0-0-0/w PTR         r     1 AMOPTN2$
   470-0-0/w UBIN        r     1 ASN                      511-0-0/c STRC(45)    r     1 BAD_LDEV_NAME
  2106-0-0/c STRC(45)    r     1 BAD_LDEV_NAME              4-0-0/w PTR         r     1 BLK$
  2074-0-0/c CHAR(10)    r     1 CHR10                   2077-0-0/c CHAR(11)    r     1 CHR11
  2077-0-0/c CHAR        r     1 CHR11A(0:10)            2314-0-0/d STRC(1080)  r     1 CLSDCB
  2133-0-0/b BIT         r     1 CNTLS_A(0:17)           2116-0-0/c CHAR(12)    r     1 COUNTER1
  2121-0-0/c CHAR(12)    r     1 COUNTER2                 475-0-0/w UBIN        r     1 CPOS
  1654-0-0/w STRC(180)   r     1 CPSL_PARAM              2073-0-0/w STRC(3168)  r     1 CP_CHFLAGS
    *0-0-0/w BIT         r     1 CREATE_FLG                 7-0-0/w UBIN        r     1 DCB#
    *0-0-0/w UBIN        r     1 DCB#                      *0-0-0/w UBIN        r     1 DCB#
    10-0-0/w PTR         r     1 DCB$                      *0-0-0/w PTR         r     1 DCB$
  2114-0-0/w PTR         r     1 DCB$                    2104-0-0/w PTR         r     1 DCB$
    16-0-0/w UBIN        r     1 DCBSLOT                 2073-0-0/b BIT         r     1 DCBS_EXIST
  2307-0-0/w PTR         r     1 DCBTAB$                 2103-0-0/w PTR         r     1 DCBTAB$
   440-0-0/d STRC(288)   r     1 DCB_NAME
   440-0-0/d CHAR        r     1 DCB_NAMEA(0:31)
    35-0-0/w PTR         r     1 DEST$                   2262-0-0/w PTR         r     1 DEST2$
    23-0-0/b BIT         r     1 DILDEV_OPT              2077-0-0/c STRC(126)   r     1 ETMF
     6-0-0/w PTR         r     1 FID$                      *0-0-0/b BIT (2)     r     1 FLAG
  2073-0-0/b BIT         r     1 FLAGS_VAL(0:12)
   551-0-0/b BIT (72)    r     1 FMT_VEC(0:23)           2115-0-0/w PTR         r     1 FORM$
  1676-0-0/d STRC(1080)  r     1 FPT_CLOSE               1736-0-0/d STRC(360)   r     1 FPT_DEVICE
  1734-0-0/d STRC(72)    r     1 FPT_DISPLAY              632-0-0/d STRC(144)   r     1 FPT_DRIBBLE
  1750-0-0/d STRC(2088)  r     1 FPT_OPEN                2042-0-0/d STRC(504)   r     1 FPT_READ
  1662-0-0/d STRC(432)   r     1 FPT_TIME                2262-0-0/d STRC(288)   r     1 FPT_TRMCTL
  2060-0-0/d STRC(216)   r     1 FPT_TRMISC              2102-0-0/d STRC(792)   r     1 FPT_UNFID
   513-0-0/w STRC(1080)  r     1 F_FDS                   2101-0-0/b BIT         r     1 GOT_STREAM
   472-0-0/w UBIN        r     1 I                       2076-0-0/w UBIN        r     1 I
  2132-0-0/w SBIN        r     1 I                       2134-0-0/w SBIN        r     1 I
  2134-0-0/w SBIN        r     1 I                       2073-0-0/w SBIN        r     1 I
  2073-0-0/w UBIN        r     1 I                       2305-0-0/w UBIN        r     1 I
PL6.E3A0      #001=CPE$IBEX2 File=CPE$IBEX2.:E05TSI                              TUE 07/29/97 11:35 Page:559
  2077-0-0/w UBIN        r     1 I                       2102-0-0/b BIT         r     1 IGNORE_CREATE_FLG
    34-0-0/w PTR         r     1 IN$                       37-0-0/c CHAR(512)   r     1 INBUFF
    15-0-0/w UBIN        r     1 IND1                    2124-0-0/w UBIN        r     1 IND2
   473-0-0/w UBIN        r     1 J                       2077-0-0/w UBIN        r     1 J
  2074-0-0/w UBIN        r     1 J                       2306-0-0/w UBIN        r     1 K
  2100-0-0/w UBIN        r     1 K                         *0-0-0/c CHAR(10)    r     1 KEYWD
    *0-0-0/w UBIN        r     1 KEYWDSZE                  *0-0-0/w UBIN        r     1 KEYWDVAL
  1652-0-0/d STRC(54)    r     1 K_WHEN                    21-0-0/b BIT         r     1 LDEVS_EXIST
    22-0-0/b BIT         r     1 LDEVS_HDR_PRINTED        476-0-0/w SBIN        r     1 LEN
  2131-0-0/w SBIN        r     1 LEN                     2263-0-0/w UBIN        r     1 LEN
    *0-0-0/w UBIN        r     1 LENGTH                  1642-0-0/d STRC(252)   r     1 LOAD_VAR
   631-0-0/b BIT         r     1 MSGFLAG                 2075-0-0/w UBIN        r     1 N
    *0-0-0/w SBIN        r     1 N                         *0-0-0/w SBIN        r     1 N
  2074-0-0/b BIT         r     1 NEED_COMMA                32-0-0/w CHAR(8)     r     1 NEWPASSWORD
  2073-0-0/c STRC(126)   r     1 NR                        30-0-0/w CHAR(8)     r     1 OLDPASSWORD
     5-0-0/w PTR         r     1 ONOVERINTO$             2130-0-0/b BIT         r     1 OPEN
    *0-0-0/w BIT         r     1 OPEN_FLG                2106-0-0/d STRC(2088)  r     1 OPNDCB
  2132-0-0/d STRC(2088)  r     1 OPNMYDCB                2077-0-0/c CHAR(4)     r     1 OPT
    *0-0-0/c CHAR(4)     r     1 OPT                       *0-0-0/c CHAR(4)     r     1 OPT
    *0-0-0/w UBIN        r     1 OPTION                  2100-0-0/w UBIN        r     1 OPTLEN
    *0-0-0/w UBIN        r     1 OPTLEN                    *0-0-0/w UBIN        r     1 OPTLEN
    *0-0-0/w UBIN        r     1 OPTN                      *0-0-0/w UBIN        r     1 OSZE
    *0-0-0/w PTR         r     1 OTEXT$                   237-0-0/c CHAR(512)   r     1 OUTBUFF
    36-0-0/w PTR         r     1 OUTBUFF$                2223-0-0/c CHAR(120)   r     1 OUTBUFF2
  2261-0-0/w PTR         r     1 OUTBUFF2$                 *0-0-0/w STRC(504)   r     1 P$PCB
    *0-0-0/w PTR         r     1 PMSN$                    471-0-0/c CHAR(4)     r     1 RES
    20-0-0/c CHAR(4)     r     1 RES#                      *0-0-0/c CHAR(4)     r     1 RES#
    *0-0-0/c STRC        r     1 RES#_R                  2075-0-0/b BIT         r     1 SET_FLG
  2303-0-0/w UBIN        r     1 SIZ                       25-0-0/b BIT         r     1 STAR_S_IS_OPEN
  2073-0-0/c CHAR(3)     r     1 STEPCC                  2127-0-0/w UBIN        r     1 STREAM
    17-0-0/b BIT         r     1 STREAM_OPEN              506-0-0/c CHAR(6)     r     1 SYSID
  2100-0-0/w UBIN        r     1 TAB2_VAL                 474-0-0/w SBIN        r     1 TAB_VAL
    *0-0-0/w SBIN        r     1 TAB_VAL                 2077-0-0/c CHAR(6)     r     1 TBUFF
  2310-0-0/c CHAR(6)     r     1 TBUFF                     14-0-0/w UBIN        r     1 TEMP
  2125-0-0/w UBIN        r     1 TEMP                      11-0-0/w PTR         r     1 TEMP$
    12-0-0/w PTR         r     1 TEMP1$                  2076-0-0/w PTR         r     1 TEMP2$
    14-0-0/w STRC        r     1 TEMPO                     *0-0-0/c ACHR        r     1 TEXT
PL6.E3A0      #001=CPE$IBEX2 File=CPE$IBEX2.:E05TSI                              TUE 07/29/97 11:35 Page:560
   477-0-0/c STRC(234)   r     1 TMDATE                   477-0-0/c CHAR(26)    r     1 TMDATEBUFF
    13-0-0/w SBIN        r     1 TVAL                    2126-0-0/b BIT         r     1 UC_FLG
   450-0-0/c CHAR(64)    r     1 UNFID                   2073-0-0/c CHAR(3)     r     1 USRNUM
  2066-0-0/d STRC(90)    r     1 VLP_SN                  2272-0-0/d STRC(288)   r     1 VLP_WINDOW
  2264-0-0/c CHAR(3)     r     1 WAIT_INT
    24-0-0/b BIT         r     1 WHEN_CNTL_REC_CHANGED

  ****  SYMREF variables  ****

  ****  Scalars and arrays  ****
OctLoc.c.b A Datatyp(siz) R M Lvl/name                 OctLoc.c.b A Datatyp(siz) R M Lvl/name

     0-0-0/w PTR         r     1 B$JIT$                     0-0-0/w PTR         r     1 B$ROS$
     0-0-0/w PTR         r     1 B$ROS$                     0-0-0/w PTR         r     1 B$SR_NON_BLANK$
     0-0-0/w PTR         r     1 B$TCB$                     0-0-0/d STRC(1080)  r     1 CFPT_CLOSE
     0-0-0/d STRC(360)   r     1 CFPT_DEVICE                0-0-0/d STRC(72)    r     1 CFPT_DISPLAY
     0-0-0/d STRC(144)   r     1 CFPT_DRIBBLE               0-0-0/d STRC(2088)  r     1 CFPT_OPEN
     0-0-0/d STRC(504)   r     1 CFPT_READ                  0-0-0/d STRC(432)   r     1 CFPT_TIME
     0-0-0/d STRC(216)   r     1 CFPT_TRMISC                0-0-0/d STRC(792)   r     1 CFPT_UNFID
     0-0-0/d STRC(432)   r     1 CFPT_WRITE                 0-0-0/c STRC(63)    r     1 K_NOTIFY
     0-0-0/d STRC(27)    r     1 LISTDCB                    0-0-0/w UBIN        r     1 M$IBEX1_NUM
     0-0-0/w UBIN        r     1 M$UC_NUM                   0-0-0/w PTR         r     1 SEG2$
     0-0-0/w PTR         r     1 SEG3$                      0-0-0/c STRC(27)    r     1 STARA

  ****  BASED and DCB variables  ****

  ****  Scalars and arrays  ****
OctLoc.c.b A Datatyp(siz) R M Lvl/name                 OctLoc.c.b A Datatyp(siz) R M Lvl/name

     0-0-0/c STRC(72)    r     1 AM$ACCT                    0-0-0/d STRC(72)    r     1 AM$ALTKEYS
     0-0-0/c STRC(54)    r     1 AM$FORM                    0-0-0/d STRC(612)   r     1 AM$FPRG
     0-0-0/w ASTR(45)    r     1 AM$HDR                     0-0-0/c STRC(288)   r     1 AM$NAME
     0-0-0/w STRC(432)   r     1 AM$SETSTA                  0-0-0/d STRC(2736)  r     1 AM$SN
     0-0-0/w STRC(288)   r     1 AM$TAB                     0-0-0/w STRC(432)   r     1 AM$VIRTUAL
     0-0-0/d STRC(288)   r     1 AM$WINDOW                  0-0-0/c STRC(72)    r     1 AM$WSN
     0-0-0/d STRC(1440)  r     1 AMR$REC$                   0-0-0/w STRC(2448)  r     1 B$EXCFR
     0-0-0/d STRC(8856)  r     1 B$JIT                      0-0-0/d STRC(3024)  r     1 B$ROSEG
PL6.E3A0      #001=CPE$IBEX2 File=CPE$IBEX2.:E05TSI                              TUE 07/29/97 11:35 Page:561
     0-0-0/w STRC(144)   r     1 B$TCB                      0-0-0/b BIT         r     1 BIT$1
     0-0-0/b BIT (2)     r     1 BIT$2                      0-0-0/b BIT         r     1 CNTLS(0:17)
     0-0-0/w STRC(288)   r     1 CODE14                     0-0-0/w STRC(1404)  r     1 CODE16
     0-0-0/w CHAR(256)   r     1 CP$BUFF                    0-0-0/w STRC(828)   r     1 ERR$BLK
     0-0-0/d ASTR(3528)  r     1 F$DCB                      0-0-0/d STRC(432)   r     1 FPT$WRITE
     0-0-0/w STRC(6084)  r     1 KL$DREC                    0-0-0N  NULL        r     1 M$UC
     0-0-0/w STRC(144)   r     1 P$B                        0-0-0/w ASTR(153)   r     1 P$S
     0-0-0/w STRC(6264)  r     1 SEG$2                      0-0-0/d STRC(4608)  r     1 SRCHTBL
     0-0-0/c ASTR(9)     r     1 TEXTC                      0-0-0/c ASTR(0)     r     1 VARY$STRNG
     0-0-0/c ACHR        r     1 VARY$STRNG                 0-0-0/c STRC(90)    r     1 VLP$ACCESS
     0-0-0/c ASTR(27)    r     1 VLP$ACSVEH                 0-0-0/w STRC        r     1 VLP$ATTR
     0-0-0/w ASTR(45)    r     1 VLP$HDR                    0-0-0/d STRC(333)   r     1 WHEN$CNTL_REC


   Procedure CPE$IBEX2 requires 8068 words for executable code.
   Procedure CPE$IBEX2 requires 1320 words of local(AUTO) storage.

    No errors detected in file CPE$IBEX2.:E05TSI    .
PL6.E3A0      #001=CPE$IBEX2 File=CPE$IBEX2.:E05TSI                              TUE 07/29/97 11:35 Page:562
          *** CROSS REFERENCE LISTING ***
**     DENOTES     IDENTIFIER DEFINITION
<<                 IDENTIFIER'S VALUE SET
>>                 IDENTIFIER'S VALUE USED
<>                 IDENTIFIER SET AND/OR USED
--                 IDENTIFIER REFERENCED
PL6.E3A0      #001=CPE$IBEX2 File=CPE$IBEX2.:E05TSI                              TUE 07/29/97 11:35 Page:563
          MINI XREF LISTING

ACCESS_FLAGS IN PROCEDURE DISP_PMSN
     18901**DCL     18909>>ASSIGN
ACTIVE_PRIVS
     14374**DCL     17475<<ASSIGN  17493>>ASSIGN  17525>>ASSIGN
ALTRETUR IN PROCEDURE DILDEV
     19697**LABEL   19692--CALLALT
AM$ACCT
     15287**DCL     17683--ASSIGN
AM$ALTKEYS.K.KEYL#
     15440**DCL     18496>>ASSIGN
AM$ALTKEYS.K.KEYX#
     15440**DCL     18494>>ASSIGN
AM$ALTKEYS.K.UNIQUE#
     15439**DCL     18498>>IF
AM$ALTKEYS.SIZ#
     15439**DCL     18493>>DOINDEX 18505>>IF
AM$FORM.FORM# IN PROCEDURE DISPDCB
     17637**DCL     18251>>CALLBLT
AM$FPRG.ACCT#
     15424**DCL     18520--ASSIGN
AM$FPRG.NAME
     15423**DCL     18519--ASSIGN
AM$FPRG.PASS#
     15425**DCL     18521--ASSIGN
AM$FPRG.PSN#
     15423**DCL     18522>>IF      18527>>ASSIGN
AM$HDR.CTL.COUNT# IN PROCEDURE DISPDCB
     17623**DCL     18201>>IF      18204>>ASSIGN
AM$HDR.CTL.HEADERHEIGHT# IN PROCEDURE DISPDCB
     17622**DCL     18187>>IF      18190>>ASSIGN
AM$HDR.CTL.INDENT# IN PROCEDURE DISPDCB
     17622**DCL     18194>>IF      18197>>ASSIGN
PL6.E3A0      #001=CPE$IBEX2 File=CPE$IBEX2.:E05TSI                              TUE 07/29/97 11:35 Page:564
AM$HDR.CTL.RESETPAGE# IN PROCEDURE DISPDCB
     17621**DCL     18221>>IF
AM$HDR.TITL.L# IN PROCEDURE DISPDCB
     17623**DCL     17624--IMP-SIZ 18208>>IF      18214>>ASSIGN
AM$HDR.TITL.TITLE# IN PROCEDURE DISPDCB
     17624**DCL     18215--CALL
AM$NAME
     15274**DCL     17680--ASSIGN
AM$SETSTA.ISTA.DIRONLY#
     15334**DCL     18404--CALL
AM$SETSTA.ISTA.EOFNONE#
     15333**DCL     18406--CALL
AM$SETSTA.ISTA.EOFONE#
     15333**DCL     18408--CALL
AM$SETSTA.ISTA.EOFTIME#
     15335**DCL     18410>>ASSIGN
AM$SETSTA.ISTA.ILATCH#
     15332**DCL     18415--CALL
AM$SETSTA.ISTA.ILOCK#
     15332**DCL     18417--CALL
AM$SETSTA.ISTA.IMSGTYP#
     15332**DCL     18419--CALL    18419--CALL
AM$SETSTA.ISTA.ISTATION#
     15331**DCL     18422--CALL    18422--CALL
AM$SETSTA.MYSTATION#
     15331**DCL     18425--CALL    18425--CALL
AM$SETSTA.OSTA.ALLDCBS#
     15338**DCL     18398--CALL
AM$SETSTA.OSTA.ALLTRMS#
     15338**DCL     18400--CALL
AM$SETSTA.OSTA.ANYDCB#
     15339**DCL     18402--CALL
AM$SETSTA.OSTA.OLATCH#
     15337**DCL     18428--CALL
AM$SETSTA.OSTA.OLOCK#
     15337**DCL     18430--CALL
PL6.E3A0      #001=CPE$IBEX2 File=CPE$IBEX2.:E05TSI                              TUE 07/29/97 11:35 Page:565
AM$SETSTA.OSTA.OMSGTYP#
     15336**DCL     18432--CALL    18432--CALL
AM$SETSTA.OSTA.OSTATION#
     15336**DCL     18435--CALL    18435--CALL
AM$SETSTA.OSTA.WAS#
     15340**DCL     18438--CALL
AM$SN.NUM#
     15300**DCL     17687>>ASSIGN
AM$TAB.MARGIN# IN PROCEDURE DISPDCB
     17607**DCL     18146>>IF      18149>>ASSIGN
AM$TAB.TABS# IN PROCEDURE DISPDCB
     17607**DCL     18155>>IF      18163>>IF      18166>>CALLBLT
AM$VIRTUAL.INITIALIZE#
     15354**DCL     18445--CALL
AM$VIRTUAL.INITVALUE#
     15356**DCL     18447>>ASSIGN
AM$VIRTUAL.MINPHYS#
     15357**DCL     18452>>ASSIGN
AM$VIRTUAL.NOFILE#
     15354**DCL     18457--CALL
AM$VIRTUAL.PHYSICAL#
     15357**DCL     18459>>ASSIGN
AM$VIRTUAL.SEGNUM#
     15355**DCL     18464>>DOCASE
AM$VIRTUAL.SEGSIZE#
     15356**DCL     18477>>ASSIGN
AM$WINDOW.BTMBRDR#
     15397**DCL     18051--CALL
AM$WINDOW.FWINDOW#
     15381**DCL     15381--REDEF   15382--REDEF   18000>>IF      18002>>CALLBLT
AM$WINDOW.HBRDRCHR#
     15398**DCL     18075>>IF      18077>>CALLBLT
AM$WINDOW.HBRDRSIZ#
     15398**DCL     18070>>ASSIGN
AM$WINDOW.LENGTH#
     15395**DCL     18027>>ASSIGN
PL6.E3A0      #001=CPE$IBEX2 File=CPE$IBEX2.:E05TSI                              TUE 07/29/97 11:35 Page:566
AM$WINDOW.LFTBRDR#
     15399**DCL     18066--CALL
AM$WINDOW.MINLENGTH#
     15400**DCL     18032>>ASSIGN
AM$WINDOW.MINWIDTH#
     15401**DCL     18042>>ASSIGN
AM$WINDOW.POSITION#
     15395**DCL     18007>>DOCASE
AM$WINDOW.REMOVABLE#
     15402**DCL     18047--CALL
AM$WINDOW.RHTBRDR#
     15399**DCL     18068--CALL
AM$WINDOW.TOPBRDR#
     15397**DCL     18049--CALL
AM$WINDOW.VBRDRCHR#
     15400**DCL     18058>>IF      18060>>CALLBLT
AM$WINDOW.VBRDRSIZ#
     15399**DCL     18053>>ASSIGN
AM$WINDOW.WIDTH#
     15395**DCL     18037>>ASSIGN
AM$WSN
     15313**DCL     17692--ASSIGN
AMOPTN1$ IN PROCEDURE DISP_OPT_YESNO
     18938**DCL     18935--PROC    18944--IF      18944>>IF      18962--IF      18965>>IF
AMOPTN2$ IN PROCEDURE DISP_OPT_YESNO
     18939**DCL     18935--PROC    18944--IF      18975>>IF
AMR$REC$.ACCESS_
     16162**DCL     18085>>IF      18088>>ASSIGN  18089>>ASSIGN
AMR$REC$.ACCT_
     16164**DCL     17681>>IF      17683>>ASSIGN
AMR$REC$.ACSVEH_
     16162**DCL     16163--REDEF   17972>>IF      17978>>ASSIGN  17979>>ASSIGN  17995>>CALL    17999>>ASSIGN
AMR$REC$.ALTKEYS_
     16168**DCL     16169--REDEF   16169--REDEF   18486>>IF      18493>>DOINDEX 18494>>ASSIGN  18496>>ASSIGN
     18498>>IF      18505>>IF
AMR$REC$.FORM_
PL6.E3A0      #001=CPE$IBEX2 File=CPE$IBEX2.:E05TSI                              TUE 07/29/97 11:35 Page:567
     16168**DCL     18248>>IF      18251>>CALLBLT
AMR$REC$.FPRG_
     16169**DCL     18519>>ASSIGN  18520>>ASSIGN  18521>>ASSIGN  18522>>IF      18527>>ASSIGN
AMR$REC$.HDR_
     16167**DCL     16168--REDEF   18184>>IF      18187>>IF      18190>>ASSIGN  18194>>IF      18197>>ASSIGN
     18201>>IF      18204>>ASSIGN  18208>>IF      18214>>ASSIGN  18215>>CALL    18221>>IF
AMR$REC$.NAME_
     16161**DCL     17678>>IF      17680>>ASSIGN
AMR$REC$.SETSTA_
     16161**DCL     18394>>IF      18398>>CALL    18400>>CALL    18402>>CALL    18404>>CALL    18406>>CALL
     18408>>CALL    18410>>ASSIGN  18415>>CALL    18417>>CALL    18419>>CALL    18419>>CALL    18422>>CALL
     18422>>CALL    18425>>CALL    18425>>CALL    18428>>CALL    18430>>CALL    18432>>CALL    18432>>CALL
     18435>>CALL    18435>>CALL    18438>>CALL
AMR$REC$.SN_
     16160**DCL     17684>>IF      17687>>ASSIGN  17688>>ASSIGN
AMR$REC$.TAB_
     16166**DCL     16167--REDEF   18142>>IF      18146>>IF      18149>>ASSIGN  18155>>IF      18163>>IF
     18166>>CALLBLT
AMR$REC$.UHL_
     16160**DCL     16161--REDEF   16161--REDEF
AMR$REC$.V.ACS#
     16180**DCL     17862>>IF      17867>>DOCASE
AMR$REC$.V.ANSISPANSEQ#
     16193**DCL     18107--CALL
AMR$REC$.V.ASN#
     16179**DCL     17693--ASSIGN  17974>>DOCASE  18396>>DOCASE  18488>>DOCASE
AMR$REC$.V.AU#
     16198**DCL     18364--CALL
AMR$REC$.V.BLKL#
     16186**DCL     17881>>IF      17884>>ASSIGN
AMR$REC$.V.BLOCKED#
     16181**DCL     18106--CALL
AMR$REC$.V.BUPM#
     16182**DCL     18290--CALL
AMR$REC$.V.CNVRT#
     16189**DCL     18115--CALL
PL6.E3A0      #001=CPE$IBEX2 File=CPE$IBEX2.:E05TSI                              TUE 07/29/97 11:35 Page:568
AMR$REC$.V.COMP#
     16181**DCL     18230--CALL
AMR$REC$.V.COPIES#
     16201**DCL     18259>>IF      18262>>ASSIGN
AMR$REC$.V.CTG#
     16173**DCL     18182--CALL
AMR$REC$.V.CVOL#
     16174**DCL     18280--CALL
AMR$REC$.V.DCBCONLGL#
     16191**DCL     18365>>IF      18367--CALL
AMR$REC$.V.DENSITY#
     16201**DCL     17895>>IF      17900>>DOCASE
AMR$REC$.V.DISP#
     16185**DCL     17846>>IF      17851>>DOCASE
AMR$REC$.V.DVFC#
     16196**DCL     18240>>IF      18243>>CALLBLT
AMR$REC$.V.EBCDIC#
     16189**DCL     18110>>IF      18113--CALL
AMR$REC$.V.EVENT#
     16199**DCL     18384>>IF      18387>>ASSIGN
AMR$REC$.V.EXIST#
     16173**DCL     17742>>IF      17747>>DOCASE
AMR$REC$.V.EXPIRE#
     16189**DCL     17917>>IF      17922>>IF      17931>>CALLBLT
AMR$REC$.V.FSN#
     16200**DCL     16200--REDEF   16200--REDEF   18292>>IF      18295>>ASSIGN
AMR$REC$.V.FUN#
     16179**DCL     17704>>IF      17709>>DOCASE
AMR$REC$.V.GHSTACS#
     16184**DCL     18376>>IF      18379>>ASSIGN
AMR$REC$.V.IGNOREFSN#
     16193**DCL     18540--CALL
AMR$REC$.V.INITZ.SCRUB#
     16170**DCL     17700>>IF      17702--CALL
AMR$REC$.V.IOERROK#
     16191**DCL     18541--CALL
PL6.E3A0      #001=CPE$IBEX2 File=CPE$IBEX2.:E05TSI                              TUE 07/29/97 11:35 Page:569
AMR$REC$.V.IXTNSIZE#
     16188**DCL     18134>>IF      18137>>ASSIGN
AMR$REC$.V.JRNLBYPASS#
     16183**DCL     18371--CALL
AMR$REC$.V.KEYL#
     16185**DCL     17944>>IF      17947>>ASSIGN
AMR$REC$.V.KEYX#
     16184**DCL     17937>>IF      17940>>ASSIGN
AMR$REC$.V.LINES#
     16199**DCL     18282>>IF      18285>>ASSIGN
AMR$REC$.V.LOAD#
     16183**DCL     18369--CALL
AMR$REC$.V.LRDL0#
     16187**DCL     17965>>IF      17968>>ASSIGN
AMR$REC$.V.LSLIDE#
     16186**DCL     17958>>IF      17961>>ASSIGN
AMR$REC$.V.LSTAOR#
     16183**DCL     18370--CALL
AMR$REC$.V.MAXVOL#
     16195**DCL     18273>>IF      18276>>ASSIGN
AMR$REC$.V.NRECS#
     16188**DCL     18119>>IF      18122>>ASSIGN
AMR$REC$.V.ORG#
     16180**DCL     17761>>IF      17766>>DOCASE
AMR$REC$.V.QISS#
     16198**DCL     18368--CALL
AMR$REC$.V.RECL#
     16186**DCL     17888>>IF      17891>>ASSIGN
AMR$REC$.V.RES#
     16184**DCL     17694--ASSIGN
AMR$REC$.V.SEEDSPECIFIED#
     16193**DCL     18542>>IF      18544--CALL
AMR$REC$.V.SEQ#
     16197**DCL     18301>>IF      18304--CALL
AMR$REC$.V.SEQCOL#
     16197**DCL     18305>>ASSIGN
PL6.E3A0      #001=CPE$IBEX2 File=CPE$IBEX2.:E05TSI                              TUE 07/29/97 11:35 Page:570
AMR$REC$.V.SEQID#
     16199**DCL     18308>>IF      18311>>CALLBLT
AMR$REC$.V.SHARE#
     16174**DCL     17723>>IF      17728>>DOCASE
AMR$REC$.V.SPANNED#
     16182**DCL     18109--CALL
AMR$REC$.V.SPARE#
     16187**DCL     17951>>IF      17954>>ASSIGN
AMR$REC$.V.TERMCONLGL#
     16192**DCL     18372>>IF      18374--CALL
AMR$REC$.V.TYPE#
     16181**DCL     18232>>IF      18235>>CALLBLT
AMR$REC$.V.UOPT#
     16179**DCL     18322>>IF      18327>>IF
AMR$REC$.V.VOL#
     16194**DCL     18267>>IF      18270>>ASSIGN
AMR$REC$.V.VOLACCESS#
     16198**DCL     18346>>IF      18351>>DOCASE
AMR$REC$.V.XTEND#
     16190**DCL     18289--CALL
AMR$REC$.V.XTNSIZE#
     16188**DCL     18126>>IF      18129>>ASSIGN
AMR$REC$.VIRTUAL_
     16161**DCL     18445>>CALL    18447>>ASSIGN  18452>>ASSIGN  18457>>CALL    18459>>ASSIGN  18464>>DOCASE
     18477>>ASSIGN
AMR$REC$.WSN_
     16166**DCL     16166--REDEF   17690>>IF      17692>>ASSIGN
AS$USERS.BANNER_PERM
     15199**DCL     15200--REDEF
AS$USERS.BUDGET.MACCT
     15104**DCL     15108--REDEF
AS$USERS.BUDGET.MAX_PROJECTS
     15117**DCL     15120--REDEF
AS$USERS.BUDGET.PACCUM
     15100**DCL     15102--REDEF
AS$USERS.BUDGET.PMAXC
PL6.E3A0      #001=CPE$IBEX2 File=CPE$IBEX2.:E05TSI                              TUE 07/29/97 11:35 Page:571
     15095**DCL     15097--REDEF
AS$USERS.SETUP_CHRA.TXT
     15215**DCL     15216--REDEF   15217--REDEF
ASN
     14351**DCL     18532--ASSIGN  18533<<ASSIGN
ASZ$SCRAMBLE
     14691**DCL-ENT 17230--CALL    17231--CALL
AS_USERS.BANNER_PERM
     14824**DCL     14825--REDEF
AS_USERS.BUDGET.MACCT
     14729**DCL     14733--REDEF
AS_USERS.BUDGET.MAX_PROJECTS
     14742**DCL     14745--REDEF
AS_USERS.BUDGET.PACCUM
     14725**DCL     14727--REDEF
AS_USERS.BUDGET.PMAXC
     14720**DCL     14722--REDEF
AS_USERS.SETUP_CHRA.TXT
     14840**DCL     14841--REDEF   14842--REDEF
B$EXCFR.ASL
     14934**DCL     14934--REDEF
B$EXCFR.ERR
     14948**DCL     16991>>ASSIGN  17278>>ASSIGN  17529>>ASSIGN  18557>>ASSIGN
B$EXCFR.ERR.ERR#
     14948**DCL     14948--REDEF   20206>>IF
B$EXCFR.EVID
     14947**DCL     14947--REDEF   14948--REDEF
B$EXCFR.IR
     14935**DCL     14935--REDEF
B$EXCFR.PREVSZ
     14934**DCL     14934--REDEF
B$EXCFR.SUBC
     14946**DCL     14946--REDEF   14947--REDEF   14947--REDEF
B$JIT.ACCEPT_FLAGS.ANNOUNCE
       261**DCL     18617>>ASSIGN
B$JIT.ACCEPT_FLAGS.BROADCAST
PL6.E3A0      #001=CPE$IBEX2 File=CPE$IBEX2.:E05TSI                              TUE 07/29/97 11:35 Page:572
       261**DCL     18618>>ASSIGN
B$JIT.ACCEPT_FLAGS.SEND
       261**DCL     18628>>ASSIGN
B$JIT.ACCN
       113**DCL     18716>>CALLBLT 18717--CALL
B$JIT.BUDLIM
       250**DCL     19057>>IF      19063>>CALLBLT
B$JIT.CPFLAGS1.DRIBBLE
       205**DCL     18620>>ASSIGN
B$JIT.CPFLAGS1.ECHO
       206**DCL     16915<<ASSIGN  17013<<ASSIGN  18621>>ASSIGN
B$JIT.CPFLAGS1.JSTEP
       202**DCL     16612>>IF      17151>>IF
B$JIT.CPFLAGS1.NOTIFY
       205**DCL     16906<<ASSIGN  18624>>ASSIGN
B$JIT.CPFLAGS1.PROTECT
       206**DCL     16903<<ASSIGN  17317<<ASSIGN  18627>>ASSIGN
B$JIT.CPFLAGS1.SLEAZE
       207**DCL       207--REDEF
B$JIT.CPFLAGS1.WHEN_INPUT
       203**DCL     16927>>IF      18605>>IF      20418>>IF
B$JIT.ERR.MID
       114**DCL       114--REDEF
B$JIT.FACCN
       113**DCL     18752>>CALLBLT 18754>>CALLBLT 18764>>CALLBLT 18765>>CALLBLT
B$JIT.FEXT
       281**DCL     17160<<ASSIGN
B$JIT.FPSN
       194**DCL     18749>>IF      18760>>CALLBLT 18762>>CALLBLT
B$JIT.JRESPEAK
       275**DCL       276--REDEF
B$JIT.ORIGINATOR_PORT.FROM_CR
       384**DCL       384--REDEF     385--REDEF
B$JIT.PNR
       288**DCL       288--REDEF
B$JIT.PRDPRM
PL6.E3A0      #001=CPE$IBEX2 File=CPE$IBEX2.:E05TSI                              TUE 07/29/97 11:35 Page:573
       282**DCL     18793>>IF      18795>>ASSIGN
B$JIT.PRFLAGS.COMMENT
       197**DCL     16606<<ASSIGN  16620<<ASSIGN  16912<<ASSIGN  18619>>ASSIGN
B$JIT.PRFLAGS.EXPOUND
       198**DCL     16918<<ASSIGN  17097<<ASSIGN  18622>>ASSIGN
B$JIT.PRFLAGS.LIST
       197**DCL     16909<<ASSIGN  17145<<ASSIGN  17162<<ASSIGN  18623>>ASSIGN
B$JIT.PRFLAGS.LS
       197**DCL     17161<<ASSIGN
B$JIT.PRFLAGS.POINT
       198**DCL     16921<<ASSIGN  17291<<ASSIGN  18625>>ASSIGN
B$JIT.PRFLAGS.POSITION
       198**DCL     16924<<ASSIGN  17304<<ASSIGN  18626>>ASSIGN
B$JIT.PRFLAGS.WHEN
       198**DCL     16947<<ASSIGN  18629>>ASSIGN
B$JIT.PRIV.ACTIVE
       114**DCL     17475>>ASSIGN  17476<<ASSIGN  17493<<ASSIGN  17525<<ASSIGN
B$JIT.RERUN
       288**DCL     17372>>IF
B$JIT.STEPCC
       340**DCL     18844>>CALLBLT
B$JIT.SYSID
       113**DCL     17368>>CALLBLT 18725>>CALLBLT
B$JIT.TSLINE
       382**DCL       383--REDEF
B$JIT.UNAME
       113**DCL     18720>>CALLBLT 18721--CALL
B$JIT.USER
       113**DCL     18731>>ASSIGN
B$JIT.USRERR
       249**DCL     16749<<ASSIGN  16991<<ASSIGN  17278<<ASSIGN  17529<<ASSIGN  17547<>CALL    18557<<ASSIGN
B$JIT.USRERR.CODE
       249**DCL     16826>>IF      16835<<ASSIGN  17534>>IF      17534>>IF      17544<<ASSIGN  17548<<ASSIGN
B$JIT.WOO
       113**DCL     19114>>CALLBLT 19115--CALL
B$JIT$
PL6.E3A0      #001=CPE$IBEX2 File=CPE$IBEX2.:E05TSI                              TUE 07/29/97 11:35 Page:574
     11099**DCL       108--IMP-PTR 16606>>ASSIGN  16612>>IF      16620>>ASSIGN  16749>>ASSIGN  16826>>IF
     16835>>ASSIGN  16903>>ASSIGN  16906>>ASSIGN  16909>>ASSIGN  16912>>ASSIGN  16915>>ASSIGN  16918>>ASSIGN
     16921>>ASSIGN  16924>>ASSIGN  16927>>IF      16947>>ASSIGN  16991>>ASSIGN  17013>>ASSIGN  17097>>ASSIGN
     17145>>ASSIGN  17151>>IF      17160>>ASSIGN  17161>>ASSIGN  17162>>ASSIGN  17278>>ASSIGN  17291>>ASSIGN
     17304>>ASSIGN  17317>>ASSIGN  17368>>CALLBLT 17372>>IF      17475>>ASSIGN  17476>>ASSIGN  17493>>ASSIGN
     17525>>ASSIGN  17529>>ASSIGN  17534>>IF      17534>>IF      17544>>ASSIGN  17547>>CALL    17548>>ASSIGN
     18557>>ASSIGN  18605>>IF      18617>>ASSIGN  18618>>ASSIGN  18619>>ASSIGN  18620>>ASSIGN  18621>>ASSIGN
     18622>>ASSIGN  18623>>ASSIGN  18624>>ASSIGN  18625>>ASSIGN  18626>>ASSIGN  18627>>ASSIGN  18628>>ASSIGN
     18629>>ASSIGN  18716>>CALLBLT 18717>>CALL    18720>>CALLBLT 18721>>CALL    18725>>CALLBLT 18731>>ASSIGN
     18749>>IF      18752>>CALLBLT 18754>>CALLBLT 18760>>CALLBLT 18762>>CALLBLT 18764>>CALLBLT 18765>>CALLBLT
     18793>>IF      18795>>ASSIGN  18844>>CALLBLT 19057>>IF      19063>>CALLBLT 19114>>CALLBLT 19115>>CALL
     20418>>IF
B$ROS$
     11100**DCL     20734>>ASSIGN  20735>>ASSIGN  20750>>IF      20771>>IF
B$ROS$ IN PROCEDURE DILDEV
     19229**DCL     19669>>DOWHILE 19669>>DOWHILE 19673>>IF      19678>>IF      19709>>ASSIGN  19738>>CALLBLT
     19820>>CALLBLT 19906>>ASSIGN  19907>>ASSIGN  19932>>ASSIGN
B$ROSEG.DCBPTR$
       400**DCL     19906>>ASSIGN  20734>>ASSIGN
B$ROSEG.LDEVNAME
       410**DCL     19669>>DOWHILE 19678>>IF      19709>>ASSIGN  19738>>CALLBLT 19820>>CALLBLT 19932>>ASSIGN
     20750>>IF      20771>>IF
B$ROSEG.NUMDCBS
       402**DCL     19907>>ASSIGN  20735>>ASSIGN
B$ROSEG.STREAMID.FLG
       412**DCL     19669>>DOWHILE
B$ROSEG.STREAMID.UC_STR
       418**DCL     19673>>IF
B$SR_NON_BLANK$
     15620**DCL     15621--IMP-PTR 19745>>CALLBLT 20235>>CALLBLT 20248>>CALLBLT 20256>>CALLBLT
B$TCB.ALT$
     14952**DCL     16991>>ASSIGN  17278>>ASSIGN  17529>>ASSIGN  18557>>ASSIGN  20206>>IF
B$TCB$
     11101**DCL     14952--IMP-PTR 16991>>ASSIGN  17278>>ASSIGN  17529>>ASSIGN  18557>>ASSIGN  20206>>IF
BAD_LDEV_NAME
     14375**DCL     17055<>CALL
PL6.E3A0      #001=CPE$IBEX2 File=CPE$IBEX2.:E05TSI                              TUE 07/29/97 11:35 Page:575
BAD_LDEV_NAME.SIZ
     14376**DCL     17053<<ASSIGN
BAD_LDEV_NAME.TEXT
     14377**DCL     17054<<ASSIGN
BAD_LDEV_NAME IN PROCEDURE FIND_ALL_LDEVS
     19993**DCL     20033<>CALL    20036<>CALL
BAD_LDEV_NAME.CNT IN PROCEDURE FIND_ALL_LDEVS
     19994**DCL     20029<<ASSIGN
BAD_LDEV_NAME.TXT IN PROCEDURE FIND_ALL_LDEVS
     19995**DCL     20030<<ASSIGN
BEGIN IN PROCEDURE DILDEV
     19668**LABEL   19688--GOTO
BIT$1 IN PROCEDURE DISP_OPT_YESNO
     18940**DCL     18975>>IF
BIT$2 IN PROCEDURE DISP_OPT_YESNO
     18941**DCL     18944>>IF      18965>>IF
BLK$
     14314**DCL     15629--IMP-PTR 15675--IMP-PTR 16599<<ASSIGN  16603>>IF      16616>>ASSIGN  16617>>ASSIGN
     16618<>CALL    16681<<ASSIGN  16688>>IF      16696>>DOWHILE 16697>>ASSIGN  16895<<ASSIGN  16898>>DOWHILE
     16899>>ASSIGN  17034<<ASSIGN  17035>>IF      17045>>IF      17047>>ASSIGN  17047>>ASSIGN  17049>>CALLBLT
     17049>>CALLBLT 17049>>CALLBLT 17049>>CALLBLT 17059>>IF      17059>>IF      17059>>IF      17137<<ASSIGN
     17141>>IF      17157>>ASSIGN  17158>>ASSIGN  17159<>CALL    17203<<ASSIGN  17215>>IF      17217>>DOWHILE
     17218>>ASSIGN
CAMR_REC.ACSVEH_
     10138**DCL     10139--REDEF
CAMR_REC.ALTKEYS_
     10144**DCL     10145--REDEF   10145--REDEF
CAMR_REC.HDR_
     10143**DCL     10144--REDEF
CAMR_REC.TAB_
     10142**DCL     10143--REDEF
CAMR_REC.UHL_
     10136**DCL     10137--REDEF   10137--REDEF
CAMR_REC.V.FSN#
     10176**DCL     10176--REDEF   10176--REDEF
CAMR_REC.WSN_
PL6.E3A0      #001=CPE$IBEX2 File=CPE$IBEX2.:E05TSI                              TUE 07/29/97 11:35 Page:576
     10142**DCL     10142--REDEF
CFPT_CLOSE
      8980**DCL     16930>>ASSIGN  17247>>ASSIGN  17271>>ASSIGN  17478>>ASSIGN  20198>>ASSIGN  20421>>ASSIGN
CFPT_CLOSE.SN_
      8980**DCL      8980--REDEF
CFPT_CLOSE.UTL_
      8981**DCL      8981--REDEF
CFPT_CLOSE.V.EXPIRE#
      8995**DCL      8995--REDEF
CFPT_CLOSE.V.TYPE#
      8993**DCL      8993--REDEF
CFPT_CLOSE.V.XTNSIZE#
      8990**DCL      8990--REDEF    8992--REDEF
CFPT_DEVICE
      9641**DCL     17032>>ASSIGN
CFPT_DISPLAY
      8846**DCL     17408>>ASSIGN
CFPT_DRIBBLE
     10323**DCL     16950>>ASSIGN
CFPT_OPEN
      8913**DCL     17482>>ASSIGN  18774>>ASSIGN
CFPT_OPEN.ACSVEH_
      8915**DCL      8916--REDEF
CFPT_OPEN.ALTKEYS_
      8921**DCL      8922--REDEF    8922--REDEF
CFPT_OPEN.HDR_
      8920**DCL      8921--REDEF
CFPT_OPEN.TAB_
      8919**DCL      8920--REDEF
CFPT_OPEN.UHL_
      8913**DCL      8914--REDEF    8914--REDEF
CFPT_OPEN.V.FSN#
      8953**DCL      8953--REDEF    8953--REDEF
CFPT_OPEN.V.RECL#
      8939**DCL     17888>>IF
CFPT_OPEN.WSN_
PL6.E3A0      #001=CPE$IBEX2 File=CPE$IBEX2.:E05TSI                              TUE 07/29/97 11:35 Page:577
      8919**DCL      8919--REDEF
CFPT_READ
      9016**DCL     17496>>ASSIGN
CFPT_READ.STATION_
      9019**DCL      9020--REDEF
CFPT_READ.V.DVBYTE.REREAD#
      9031**DCL      9031--REDEF
CFPT_READ.V.INDX#
      9029**DCL      9029--REDEF
CFPT_READUC.STATION_
      9389**DCL      9390--REDEF
CFPT_READUC.V.DVBYTE.REREAD#
      9401**DCL      9401--REDEF
CFPT_READUC.V.INDX#
      9399**DCL      9399--REDEF
CFPT_TIME
      8827**DCL     17338>>ASSIGN
CFPT_TRMCTL IN PROCEDURE DILDEV
     19595**DCL     19795>>ASSIGN
CFPT_TRMCTL.V IN PROCEDURE DILDEV
     19603**DCL     19597--DCLINIT
CFPT_TRMISC
      9331**DCL     16956>>ASSIGN
CFPT_TRTN.V.IR#
      9625**DCL      9626--REDEF
CFPT_UNFID
      9310**DCL     17675>>ASSIGN  18517>>ASSIGN
CFPT_WRITE
      9055**DCL     16682>>ASSIGN  17348>>ASSIGN
CFPT_WRITE.STATION_
      9057**DCL      9057--REDEF
CFPT_WRITE.V.DVBYTE.VFC#
      9064**DCL      9064--REDEF
CFPT_WRITEUC.STATION_
      9357**DCL      9357--REDEF
CFPT_WRITEUC.V.DVBYTE.VFC#
PL6.E3A0      #001=CPE$IBEX2 File=CPE$IBEX2.:E05TSI                              TUE 07/29/97 11:35 Page:578
      9364**DCL      9364--REDEF
CFPT_XXX.V.STEPCC#
     10337**DCL     10337--REDEF
CF_FDS
     14426**DCL     20410>>ASSIGN
CGETCMD.OUT$
     10358**DCL     10364--REDEF
CHR10 IN PROCEDURE DISPBUDGET
     19047**DCL     19063<<CALLBLT 19064>>CALLBLT 19081<<CALLBLT 19082>>CALLBLT
CHR11 IN PROCEDURE DISPBUDGET
     19048**DCL     19049--REDEF   19064<<CALLBLT 19066--DOWHILE 19069<<ASSIGN  19069>>ASSIGN  19069--ASSIGN
     19070--CALL    19070--CALL    19082<<CALLBLT 19084--DOWHILE 19087<<ASSIGN  19087>>ASSIGN  19087--ASSIGN
     19088--CALL    19088--CALL
CHR11A IN PROCEDURE DISPBUDGET
     19049**DCL     19066>>DOWHILE 19084>>DOWHILE
CK_WHEN
     14919**DCL     20441>>ASSIGN
CLOSEMYDCB IN PROCEDURE DILDEV
     19957**PROC    19687--CALL    19693--CALL    19697--CALL    19706--CALL    19930--CALL
CLOSE_DCB
     20800**PROC    17071--CALL    19960--CALL    20788--CALL
CLSDCB IN PROCEDURE CLOSE_DCB
     20832**DCL     20897<<ASSIGN  20900<>CALL
CLSDCB.SN_ IN PROCEDURE CLOSE_DCB
     20832**DCL     20832--REDEF
CLSDCB.UTL_ IN PROCEDURE CLOSE_DCB
     20833**DCL     20833--REDEF
CLSDCB.V IN PROCEDURE CLOSE_DCB
     20837**DCL     20899--ASSIGN
CLSDCB.V.DCB# IN PROCEDURE CLOSE_DCB
     20838**DCL     20898<<ASSIGN
CLSDCB.V.EXPIRE# IN PROCEDURE CLOSE_DCB
     20847**DCL     20847--REDEF
CLSDCB.V.TYPE# IN PROCEDURE CLOSE_DCB
     20845**DCL     20845--REDEF
CLSDCB.V.XTNSIZE# IN PROCEDURE CLOSE_DCB
PL6.E3A0      #001=CPE$IBEX2 File=CPE$IBEX2.:E05TSI                              TUE 07/29/97 11:35 Page:579
     20842**DCL     20842--REDEF   20844--REDEF
CLSDCB.V_ IN PROCEDURE CLOSE_DCB
     20832**DCL     20899<<ASSIGN
CLSMYDCB.SN_ IN PROCEDURE DILDEV
     19491**DCL     19491--REDEF
CLSMYDCB.UTL_ IN PROCEDURE DILDEV
     19492**DCL     19492--REDEF
CLSMYDCB.V.EXPIRE# IN PROCEDURE DILDEV
     19506**DCL     19506--REDEF
CLSMYDCB.V.TYPE# IN PROCEDURE DILDEV
     19504**DCL     19504--REDEF
CLSMYDCB.V.XTNSIZE# IN PROCEDURE DILDEV
     19501**DCL     19501--REDEF   19503--REDEF
CNTLS IN PROCEDURE DISP_PMSN
     18898**DCL     18904>>ASSIGN
CNTLS_A IN PROCEDURE DISP_PMSN
     18899**DCL     18904<<ASSIGN  18906>>IF
CNVRT_BLD
     18869**PROC    17437--CALL    17885--CALL    17892--CALL    17941--CALL    17948--CALL    17955--CALL
     17962--CALL    17969--CALL    18030--CALL    18035--CALL    18040--CALL    18045--CALL    18056--CALL
     18073--CALL    18123--CALL    18130--CALL    18138--CALL    18150--CALL    18191--CALL    18198--CALL
     18205--CALL    18263--CALL    18271--CALL    18277--CALL    18286--CALL    18296--CALL    18306--CALL
     18325--CALL    18380--CALL    18388--CALL    18413--CALL    18450--CALL    18455--CALL    18462--CALL
     18480--CALL    18495--CALL    18497--CALL    18800--CALL    19753--CALL    19757--CALL    19762--CALL
     19765--CALL    19772--CALL    19839--CALL    19841--CALL    19843--CALL    19845--CALL    19861--CALL
     19878--CALL
CNVRT_BLD50 IN PROCEDURE CNVRT_BLD
     18876**LABEL   18874--CALLALT 18878--CALLALT
CODE14.CGRANS
     15454**DCL     18792>>ASSIGN
CODE14.MGRANS
     15454**DCL     18792>>ASSIGN
CODE16.COPIES IN PROCEDURE DILDEV
     19224**DCL     19764>>ASSIGN
CODE16.FORM IN PROCEDURE DILDEV
     19222**DCL     19744>>CALLBLT 19745>>CALLBLT
PL6.E3A0      #001=CPE$IBEX2 File=CPE$IBEX2.:E05TSI                              TUE 07/29/97 11:35 Page:580
CODE16.LINENO IN PROCEDURE DILDEV
     19223**DCL     19750>>IF      19754>>ASSIGN
CODE16.PAGENO IN PROCEDURE DILDEV
     19222**DCL     19749>>ASSIGN
CODE16.RECNO IN PROCEDURE DILDEV
     19222**DCL     19761>>ASSIGN
COMMENT70
     16620**LABEL   16614--GOTO
COMMENT80
     16620**LABEL   16618--CALLALT
CONSTCLS IN PROCEDURE CLOSE_DCB
     20877**DCL     20897>>ASSIGN
CONSTCLS.SN_ IN PROCEDURE CLOSE_DCB
     20877**DCL     20877--REDEF
CONSTCLS.UTL_ IN PROCEDURE CLOSE_DCB
     20878**DCL     20878--REDEF
CONSTCLS.V IN PROCEDURE CLOSE_DCB
     20882**DCL     20877--DCLINIT
CONSTCLS.V.EXPIRE# IN PROCEDURE CLOSE_DCB
     20892**DCL     20892--REDEF
CONSTCLS.V.TYPE# IN PROCEDURE CLOSE_DCB
     20890**DCL     20890--REDEF
CONSTCLS.V.XTNSIZE# IN PROCEDURE CLOSE_DCB
     20887**DCL     20887--REDEF   20889--REDEF
CONSTCLS.SN_ IN PROCEDURE DILDEV
     19533**DCL     19533--REDEF
CONSTCLS.UTL_ IN PROCEDURE DILDEV
     19534**DCL     19534--REDEF
CONSTCLS.V IN PROCEDURE DILDEV
     19538**DCL     19533--DCLINIT
CONSTCLS.V.EXPIRE# IN PROCEDURE DILDEV
     19548**DCL     19548--REDEF
CONSTCLS.V.TYPE# IN PROCEDURE DILDEV
     19546**DCL     19546--REDEF
CONSTCLS.V.XTNSIZE# IN PROCEDURE DILDEV
     19543**DCL     19543--REDEF   19545--REDEF
PL6.E3A0      #001=CPE$IBEX2 File=CPE$IBEX2.:E05TSI                              TUE 07/29/97 11:35 Page:581
CONSTOPN IN PROCEDURE DILDEV
     19424**DCL     19707>>ASSIGN  19925>>ASSIGN
CONSTOPN.ACSVEH_ IN PROCEDURE DILDEV
     19426**DCL     19427--REDEF
CONSTOPN.ALTKEYS_ IN PROCEDURE DILDEV
     19432**DCL     19433--REDEF   19433--REDEF
CONSTOPN.HDR_ IN PROCEDURE DILDEV
     19431**DCL     19432--REDEF
CONSTOPN.TAB_ IN PROCEDURE DILDEV
     19430**DCL     19431--REDEF
CONSTOPN.UHL_ IN PROCEDURE DILDEV
     19424**DCL     19425--REDEF   19425--REDEF
CONSTOPN.V IN PROCEDURE DILDEV
     19433**DCL     19424--DCLINIT
CONSTOPN.V.FSN# IN PROCEDURE DILDEV
     19464**DCL     19464--REDEF   19464--REDEF
CONSTOPN.WSN_ IN PROCEDURE DILDEV
     19430**DCL     19430--REDEF
CONSTOPN IN PROCEDURE FIND_OR_CREATE_STREAM
     20687**DCL     20781>>ASSIGN
CONSTOPN.ACSVEH_ IN PROCEDURE FIND_OR_CREATE_STREAM
     20689**DCL     20690--REDEF
CONSTOPN.ALTKEYS_ IN PROCEDURE FIND_OR_CREATE_STREAM
     20695**DCL     20696--REDEF   20696--REDEF
CONSTOPN.HDR_ IN PROCEDURE FIND_OR_CREATE_STREAM
     20694**DCL     20695--REDEF
CONSTOPN.TAB_ IN PROCEDURE FIND_OR_CREATE_STREAM
     20693**DCL     20694--REDEF
CONSTOPN.UHL_ IN PROCEDURE FIND_OR_CREATE_STREAM
     20687**DCL     20688--REDEF   20688--REDEF
CONSTOPN.V IN PROCEDURE FIND_OR_CREATE_STREAM
     20696**DCL     20687--DCLINIT
CONSTOPN.V.FSN# IN PROCEDURE FIND_OR_CREATE_STREAM
     20727**DCL     20727--REDEF   20727--REDEF
CONSTOPN.WSN_ IN PROCEDURE FIND_OR_CREATE_STREAM
     20693**DCL     20693--REDEF
PL6.E3A0      #001=CPE$IBEX2 File=CPE$IBEX2.:E05TSI                              TUE 07/29/97 11:35 Page:582
CONTAB
     14327**DCL     18737>>CALLBLT
COUNTER1 IN PROCEDURE DILDEV
     19233**DCL     19828<<CALLBLT 19829<>CALL    19829--CALL    19834>>CALLBLT
COUNTER2 IN PROCEDURE DILDEV
     19234**DCL     19831<<CALLBLT 19832<>CALL    19832--CALL    19834>>CALLBLT
CP$BUFF
     14931**DCL     20446--CALL    20455--ASSIGN
CPB$BLDIMAGE
     14667**DCL-ENT 17362--CALL    17366--CALL    17370--CALL    17376--CALL    17440--CALL    17665--CALL
     17668--CALL    17671--CALL    17698--CALL    17708--CALL    17720--CALL    17727--CALL    17739--CALL
     17746--CALL    17758--CALL    17765--CALL    17843--CALL    17850--CALL    17859--CALL    17866--CALL
     17878--CALL    17899--CALL    17914--CALL    17921--CALL    17926--CALL    17933--CALL    17977--CALL
     17984--CALL    17986--CALL    17992--CALL    17997--CALL    18004--CALL    18025--CALL    18063--CALL
     18080--CALL    18093--CALL    18096--CALL    18098--CALL    18101--CALL    18159--CALL    18168--CALL
     18171--CALL    18179--CALL    18212--CALL    18215--CALL    18218--CALL    18226--CALL    18237--CALL
     18245--CALL    18253--CALL    18255--CALL    18313--CALL    18316--CALL    18332--CALL    18340--CALL
     18350--CALL    18362--CALL    18476--CALL    18492--CALL    18514--CALL    18538--CALL    18641--CALL
     18648--CALL    18660--CALL    18667--CALL    18671--CALL    18717--CALL    18719--CALL    18721--CALL
     18724--CALL    18727--CALL    18730--CALL    18742--CALL    18755--CALL    18763--CALL    18766--CALL
     18846--CALL    18874--CALL    18878--CALL    18911--CALL    18949--CALL    18956--CALL    18981--CALL
     19013--CALL    19020--CALL    19026--CALL    19029--CALL    19062--CALL    19070--CALL    19077--CALL
     19080--CALL    19088--CALL    19115--CALL    19740--CALL    19747--CALL    19778--CALL    19782--CALL
     19821--CALL    19826--CALL    19836--CALL    19870--CALL    19887--CALL    19945--CALL    19951--CALL
     19976--CALL    20229--CALL    20237--CALL    20243--CALL    20249--CALL    20257--CALL    20264--CALL
     20270--CALL    20276--CALL    20282--CALL    20305--CALL    20307--CALL    20312--CALL    20317--CALL
     20323--CALL    20328--CALL    20334--CALL    20339--CALL    20345--CALL    20350--CALL    20356--CALL
     20361--CALL
CPB$PLATEN
     14680**DCL-ENT 16725--CALL    16793--CALL
CPB$REPORT
     14643**DCL-ENT 16726--CALL    16804--CALL
CPC$GETSEG
     14645**DCL-ENT 17473--CALL    18773--CALL
CPC$OPEN_LL
     14646**DCL-ENT 17038--CALL    20417--CALL
PL6.E3A0      #001=CPE$IBEX2 File=CPE$IBEX2.:E05TSI                              TUE 07/29/97 11:35 Page:583
CPC$OPEN_S
     14658**DCL-ENT 20202--CALL    20445--CALL
CPC$RDHLP
     14659**DCL-ENT 17207--CALL
CPC$RELSEG
     14660**DCL-ENT 16755--CALL    16839--CALL    17533--CALL    17565--CALL    18797--CALL
CPC$SCREECH
     14690**DCL-ENT 17551--CALL    18816--CALL
CPC$WRHLP
     14661**DCL-ENT 17243--CALL
CPC$WRITEMSGE
     14644**DCL-ENT 17055--CALL    17257--CALL    20033--CALL    20036--CALL
CPE$GENRUAM
     14663**DCL-ENT 16618--CALL    17159--CALL
CPE$LISTOUT
     14664**DCL-ENT 17380--CALL    17419--CALL    17428--CALL    17444--CALL    17516--CALL    17542--CALL
     18551--CALL    18604--CALL    18684--CALL    18745--CALL    18802--CALL    18850--CALL    19091--CALL
     19118--CALL    19719--CALL    19805--CALL    20003--CALL    20014--CALL    20025--CALL    20212--CALL
     20226--CALL    20290--CALL    20300--CALL    20370--CALL    20380--CALL
CPE$RFEXT
     14662**DCL-ENT 16619--CALL
CPE$RZEROS
     14666**DCL-ENT 17369--CALL    17416--CALL    17425--CALL    17932--CALL    18167--CALL    18726--CALL
     18845--CALL    18877--CALL    19829--CALL    19832--CALL    20281--CALL
CPE$TIME
     17336**ENTRY   16795--CALL    17446--CALL
CPF$DIPROFILES
     14686**DCL-ENT 16809--CALL
CPF$PPRIV
     14683**DCL-ENT 16718--CALL    16766--CALL
CPF$PRIV
     14684**DCL-ENT 16717--CALL    16764--CALL
CPF$PROFILE
     14685**DCL-ENT 16728--CALL
CPF$SWITCH
     14668**DCL-ENT 16715--CALL    16758--CALL
PL6.E3A0      #001=CPE$IBEX2 File=CPE$IBEX2.:E05TSI                              TUE 07/29/97 11:35 Page:584
CPF$TERMINAL
     14682**DCL-ENT 16716--CALL    16761--CALL
CPG$GET_WHEN_CNTL_REC
     14677**DCL-ENT 16934--CALL    20425--CALL
CPG$LET
     14676**DCL-ENT 16724--CALL    16798--CALL    16801--CALL
CPG$PUT_WHEN_CNTL_REC
     14678**DCL-ENT 16940--CALL
CPG$SET_WHEN_STATE
     14679**DCL-ENT 18607--CALL
CPH$GLOBAL
     14675**DCL-ENT 16723--CALL    16786--CALL
CPI$DIRECTORY
     14670**DCL-ENT 16772--CALL
CPI$PRIORITY
     14687**DCL-ENT 16727--CALL    16807--CALL
CPI$SETUP
     14671**DCL-ENT 16777--CALL    18811--CALL
CPI$TABS
     14669**DCL-ENT 16719--CALL    16769--CALL
CPJ$LIMIT
     14672**DCL-ENT 16721--CALL    16780--CALL
CPJ$READ_S
     14673**DCL-ENT 20203--CALL    20446--CALL
CPK$FDS_OUTPUT
     14688**DCL-ENT 20411--ASSIGN
CPO$ORES
     14674**DCL-ENT 16722--CALL    16783--CALL
CPOS
     14356**DCL     16833<<ASSIGN  16834<>CALL
CPSL_PARAM
     15954**DCL     16740<<ASSIGN  16741<>CALL
CPSL_PARAM.ERRCODE
     15962**DCL     16742>>IF      16749>>ASSIGN
CPSL_PARAM.FLAGS.REPORTED_TO_USER
     15959**DCL     16744>>IF
PL6.E3A0      #001=CPE$IBEX2 File=CPE$IBEX2.:E05TSI                              TUE 07/29/97 11:35 Page:585
CP_CHFLAGS IN PROCEDURE DISPNOTIFY
     20071**DCL     20203--CALL
CP_CHFLAGS.FLG.INPUT IN PROCEDURE DISPNOTIFY
     20094**DCL     20330>>IF
CP_CHFLAGS.FLG.OUTPUT IN PROCEDURE DISPNOTIFY
     20095**DCL     20341>>IF
CP_CHFLAGS.FLG.RUNNING IN PROCEDURE DISPNOTIFY
     20096**DCL     20352>>IF
CP_CHFLAGS.FLG.TERM IN PROCEDURE DISPNOTIFY
     20093**DCL     20319>>IF
CP_CHFLAGS.FLG.WAIT IN PROCEDURE DISPNOTIFY
     20103**DCL     20260>>IF
CP_CHFLAGS.SYSTEM IN PROCEDURE DISPNOTIFY
     20086**DCL     20308>>IF
CP_CHFLAGS.USE_ACCT IN PROCEDURE DISPNOTIFY
     20072**DCL     20244>>IF      20247>>ASSIGN  20248>>CALLBLT
CP_CHFLAGS.USE_NAME.L# IN PROCEDURE DISPNOTIFY
     20074**DCL     20241>>ASSIGN
CP_CHFLAGS.USE_NAME.NAME# IN PROCEDURE DISPNOTIFY
     20075**DCL     20240>>ASSIGN
CP_CHFLAGS.USE_PASS IN PROCEDURE DISPNOTIFY
     20076**DCL     20252>>IF      20255>>CALLBLT 20256>>CALLBLT
CP_CHFLAGS.USE_SN IN PROCEDURE DISPNOTIFY
     20079**DCL     20230>>ASSIGN
CP_CHFLAGS.WAIT_DONE IN PROCEDURE DISPNOTIFY
     20087**DCL     20266>>IF
CP_CHFLAGS.WAIT_INT IN PROCEDURE DISPNOTIFY
     20106**DCL     20279>>ASSIGN
CREATE_FLG IN PROCEDURE FIND_OR_CREATE_STREAM
     20497**DCL     20475--PROC    20778>>IF
CVLP_TRMCTL.BREAKCOUNT
      9949**DCL      9950--REDEF
CVLP_WINDOW.FWINDOW#
     10045**DCL     10045--REDEF   10046--REDEF
CXB$CHKFORT
     14681**DCL-ENT 16739--CALL
PL6.E3A0      #001=CPE$IBEX2 File=CPE$IBEX2.:E05TSI                              TUE 07/29/97 11:35 Page:586
CXC$READAM
     14665**DCL-ENT 16741--CALL
CXP$POSTERR
     14692**DCL-ENT 16628--CALL    16834--CALL    17165--CALL    17267--CALL    17547--CALL
DCB#
     14317**DCL     17039<<ASSIGN  17051<>CALL    17066>>ASSIGN  17071<>CALL
DCB# IN PROCEDURE CLOSE_DCB
     20805**DCL     20800--PROC    20898>>ASSIGN
DCB# IN PROCEDURE FIND_OR_CREATE_STREAM
     20498**DCL     20475--PROC    20754<<ASSIGN  20785<<ASSIGN  20786--IF      20788<>CALL    20789>>ASSIGN
DCB$
     14318**DCL     16738<<ASSIGN  16739<>CALL    16741<>CALL    16753<>CALL
DCB$ IN PROCEDURE DILDEV
     19231**DCL     19713<<ASSIGN  19714>>ASSIGN  19738>>CALLBLT 19738>>CALLBLT 19766>>IF      19769>>ASSIGN
     19773>>ASSIGN  19780>>CALLBLT 19780>>CALLBLT
DCB$ IN PROCEDURE DISPDCB
     17585**DCL     17583--PROC    17667>>ASSIGN  17668>>CALL
DCB$ IN PROCEDURE FIND_OR_CREATE_STREAM
     20509**DCL     20749<<ASSIGN
DCBHDR IN PROCEDURE DISPDCBS
     17467**DCL     17515--ASSIGN
DCBNHDR IN PROCEDURE DISPDCBS
     17468**DCL     17541--ASSIGN
DCBSLOT
     14328**DCL     19165<<ASSIGN  19704--IF      19708>>ASSIGN  19713--ASSIGN  19927<<ASSIGN  19928--IF
     19931>>ASSIGN  19936>>ASSIGN  19960<>CALL
DCBS_EXIST IN PROCEDURE DISPDCBS
     17469**DCL     17481<<ASSIGN  17512>>IF      17520<<ASSIGN  17538>>IF
DCBTAB$ IN PROCEDURE FIND_OR_CREATE_STREAM
     20508**DCL     20734<<ASSIGN
DCBTAB$ IN PROCEDURE SETUP_TCTL_DCB
     19903**DCL     19906<<ASSIGN
DCB_NAME
     14346**DCL     14349--REDEF   17500--ASSIGN  17519--CALL
DCB_NAMEA
     14349**DCL     17509>>IF
PL6.E3A0      #001=CPE$IBEX2 File=CPE$IBEX2.:E05TSI                              TUE 07/29/97 11:35 Page:587
DEST$
     14342**DCL     17357<<ASSIGN  17362<>CALL    17366<>CALL    17370<>CALL    17376<>CALL    17434<<ASSIGN
     17440<>CALL    17443>>ASSIGN  17661<<ASSIGN  17662>>ASSIGN  17665<>CALL    17668<>CALL    17671<>CALL
     17697<<ASSIGN  17697>>ASSIGN  17698<>CALL    17708<>CALL    17720<>CALL    17727<>CALL    17739<>CALL
     17746<>CALL    17758<>CALL    17765<>CALL    17843<>CALL    17850<>CALL    17859<>CALL    17866<>CALL
     17878<>CALL    17899<>CALL    17914<>CALL    17921<>CALL    17926<>CALL    17933<>CALL    17977<>CALL
     17984<>CALL    17986<>CALL    17990<<ASSIGN  17990>>ASSIGN  17992<>CALL    17997<>CALL    18004<>CALL
     18025<>CALL    18063<>CALL    18080<>CALL    18093<>CALL    18096<>CALL    18098<>CALL    18101<>CALL
     18159<>CALL    18168<>CALL    18171<>CALL    18177<<ASSIGN  18177>>ASSIGN  18179<>CALL    18212<>CALL
     18215<>CALL    18218<>CALL    18226<>CALL    18237<>CALL    18245<>CALL    18253<>CALL    18255<>CALL
     18313<>CALL    18316<>CALL    18332<>CALL    18340<>CALL    18350<>CALL    18362<>CALL    18476<>CALL
     18492<>CALL    18514<>CALL    18538<>CALL    18546>>IF      18550>>ASSIGN  18612<<ASSIGN  18635<<ASSIGN
     18641<>CALL    18648<>CALL    18660<>CALL    18667<>CALL    18671<>CALL    18678>>ASSIGN  18712<<ASSIGN
     18713>>ASSIGN  18717<>CALL    18719<>CALL    18721<>CALL    18724<>CALL    18727<>CALL    18730<>CALL
     18742<>CALL    18744>>ASSIGN  18747<<ASSIGN  18755<>CALL    18763<>CALL    18766<>CALL    18801>>ASSIGN
     18841<<ASSIGN  18843<<ASSIGN  18843>>ASSIGN  18846<>CALL    18848>>ASSIGN  18874<>CALL    18878<>CALL
     18911<>CALL    18949<>CALL    18956<>CALL    18981<>CALL    19013<>CALL    19020<>CALL    19026<>CALL
     19029<>CALL    19054<<ASSIGN  19056<<ASSIGN  19056>>ASSIGN  19062<>CALL    19070<>CALL    19077<>CALL
     19080<>CALL    19088<>CALL    19089>>ASSIGN  19111<<ASSIGN  19113<<ASSIGN  19113>>ASSIGN  19115<>CALL
     19116>>ASSIGN  19173<<ASSIGN  19729<<ASSIGN  19740<>CALL    19747<>CALL    19778<>CALL    19782<>CALL
     19815<<ASSIGN  19821<>CALL    19826<>CALL    19836<>CALL    19870<>CALL    19887<>CALL    19945<>CALL
     19947>>IF      19951<>CALL    19976<>CALL    20001>>ASSIGN  20012>>ASSIGN  20222<<ASSIGN  20229<>CALL
     20237<>CALL    20243<>CALL    20249<>CALL    20257<>CALL    20264<>CALL    20270<>CALL    20276<>CALL
     20282<>CALL    20288>>ASSIGN  20301<<ASSIGN  20305<>CALL    20312<>CALL    20323<>CALL    20334<>CALL
     20345<>CALL    20356<>CALL    20364>>ASSIGN
DEST2$ IN PROCEDURE DISPNOTIFY
     20194**DCL     20295<<ASSIGN  20307<>CALL    20317<>CALL    20328<>CALL    20339<>CALL    20350<>CALL
     20361<>CALL    20374>>ASSIGN
DILDEV
     19215**PROC    19998--CALL
DILDEV_OPT
     14335**DCL     19149<<ASSIGN  19154<<ASSIGN  19159<<ASSIGN  19725>>IF      19741>>IF      19811>>IF
     19822>>IF      19999>>IF      20005>>IF      20010>>IF      20016>>IF
DISP12
     16752**LABEL   16836--GOTO
DISP45
PL6.E3A0      #001=CPE$IBEX2 File=CPE$IBEX2.:E05TSI                              TUE 07/29/97 11:35 Page:588
     16819**LABEL   16746--GOTO    16750--GOTO
DISP47
     16826**LABEL   16753--CALLALT
DISP50
     16839**LABEL   16691--CALLALT 16703--CALLALT 16704--CALLALT 16705--CALLALT 16706--CALLALT 16707--CALLALT
     16708--CALLALT 16715--CALLALT 16716--CALLALT 16717--CALLALT 16718--CALLALT 16719--CALLALT 16720--CALLALT
     16721--CALLALT 16722--CALLALT 16723--CALLALT 16724--CALLALT 16725--CALLALT 16726--CALLALT 16727--CALLALT
     16728--CALLALT 16729--CALLALT 16730--CALLALT 16732--CALLALT 16734--CALLALT 16736--CALLALT 16758--CALLALT
     16761--CALLALT 16764--CALLALT 16766--CALLALT 16769--CALLALT 16772--CALLALT 16774--CALLALT 16777--CALLALT
     16780--CALLALT 16783--CALLALT 16786--CALLALT 16788--CALLALT 16790--CALLALT 16793--CALLALT 16795--CALLALT
     16798--CALLALT 16801--CALLALT 16804--CALLALT 16807--CALLALT 16809--CALLALT 16811--CALLALT 16813--CALLALT
     16815--CALLALT
DISPBUDGET
     19045**PROC    16729--CALL    16811--CALL
DISPBUDGET50 IN PROCEDURE DISPBUDGET
     19090**LABEL   19062--CALLALT 19070--CALLALT 19077--CALLALT 19080--CALLALT 19088--CALLALT 19091--CALLALT
DISPDCB
     17583**PROC    16753--CALL    17519--CALL
DISPDCB55 IN PROCEDURE DISPDCB
     18551**LABEL   17665--CALLALT 17668--CALLALT 17671--CALLALT 17698--CALLALT 17702--CALLALT 17708--CALLALT
     17720--CALLALT 17727--CALLALT 17739--CALLALT 17746--CALLALT 17758--CALLALT 17765--CALLALT 17843--CALLALT
     17850--CALLALT 17859--CALLALT 17866--CALLALT 17878--CALLALT 17885--CALLALT 17892--CALLALT 17899--CALLALT
     17914--CALLALT 17921--CALLALT 17926--CALLALT 17933--CALLALT 17941--CALLALT 17948--CALLALT 17955--CALLALT
     17962--CALLALT 17969--CALLALT 17977--CALLALT 17984--CALLALT 17986--CALLALT 17992--CALLALT 17995--CALLALT
     17997--CALLALT 18004--CALLALT 18025--CALLALT 18030--CALLALT 18035--CALLALT 18040--CALLALT 18045--CALLALT
     18047--CALLALT 18049--CALLALT 18051--CALLALT 18056--CALLALT 18063--CALLALT 18066--CALLALT 18068--CALLALT
     18073--CALLALT 18080--CALLALT 18093--CALLALT 18096--CALLALT 18098--CALLALT 18099--CALLALT 18101--CALLALT
     18106--CALLALT 18107--CALLALT 18109--CALLALT 18113--CALLALT 18115--CALLALT 18123--CALLALT 18130--CALLALT
     18138--CALLALT 18150--CALLALT 18159--CALLALT 18168--CALLALT 18171--CALLALT 18179--CALLALT 18182--CALLALT
     18191--CALLALT 18198--CALLALT 18205--CALLALT 18212--CALLALT 18215--CALLALT 18218--CALLALT 18226--CALLALT
     18230--CALLALT 18237--CALLALT 18245--CALLALT 18253--CALLALT 18255--CALLALT 18263--CALLALT 18271--CALLALT
     18277--CALLALT 18280--CALLALT 18286--CALLALT 18289--CALLALT 18290--CALLALT 18296--CALLALT 18304--CALLALT
     18306--CALLALT 18313--CALLALT 18316--CALLALT 18325--CALLALT 18332--CALLALT 18340--CALLALT 18350--CALLALT
     18362--CALLALT 18364--CALLALT 18367--CALLALT 18368--CALLALT 18369--CALLALT 18370--CALLALT 18371--CALLALT
     18374--CALLALT 18380--CALLALT 18388--CALLALT 18398--CALLALT 18400--CALLALT 18402--CALLALT 18404--CALLALT
     18406--CALLALT 18408--CALLALT 18413--CALLALT 18415--CALLALT 18417--CALLALT 18419--CALLALT 18422--CALLALT
PL6.E3A0      #001=CPE$IBEX2 File=CPE$IBEX2.:E05TSI                              TUE 07/29/97 11:35 Page:589
     18425--CALLALT 18428--CALLALT 18430--CALLALT 18432--CALLALT 18435--CALLALT 18438--CALLALT 18445--CALLALT
     18450--CALLALT 18455--CALLALT 18457--CALLALT 18462--CALLALT 18476--CALLALT 18480--CALLALT 18492--CALLALT
     18495--CALLALT 18497--CALLALT 18514--CALLALT 18535--CALLALT 18538--CALLALT 18540--CALLALT 18541--CALLALT
     18544--CALLALT 18551--CALLALT
DISPDCB60 IN PROCEDURE DISPDCB
     18551**LABEL   17696--CALLALT
DISPDCBS
     17465**PROC    16705--CALL    16732--CALL
DISPDCBS10 IN PROCEDURE DISPDCBS
     17518**LABEL   17506--CALLALT
DISPDCBS20 IN PROCEDURE DISPDCBS
     17525**LABEL   17491--CALLALT
DISPDCBS45 IN PROCEDURE DISPDCBS
     17548**LABEL   17473--CALLALT
DISPDCBS5 IN PROCEDURE DISPDCBS
     17503**LABEL   17522--GOTO
DISPDCBS57 IN PROCEDURE DISPDCBS
     17548**LABEL   17516--CALLALT 17519--CALLALT 17542--CALLALT
DISPFLGS
     18573**PROC    16704--CALL    16734--CALL
DISPFLGS50 IN PROCEDURE DISPFLGS
     18684**LABEL   18604--CALLALT 18607--CALLALT 18641--CALLALT 18648--CALLALT 18660--CALLALT 18667--CALLALT
     18671--CALLALT 18684--CALLALT
DISPHDR1 IN PROCEDURE DISPFLGS
     18574**DCL     18603--ASSIGN
DISPLAY_ALTRET IN PROCEDURE DISPLAY_NORMAL_LDEV
     19791**LABEL   19711--CALLALT 19719--CALLALT 19740--CALLALT 19747--CALLALT 19778--CALLALT 19782--CALLALT
DISPLAY_NORMAL_LDEV IN PROCEDURE DILDEV
     19700**PROC    19692--CALL
DISPLAY_RETURN IN PROCEDURE DISPLAY_NORMAL_LDEV
     19788**LABEL   19743--GOTO
DISPLAY_WINDOW_OPTS IN PROCEDURE DILDEV
     19794**PROC    19685--CALL
DISPLDEV
     19136**PROC    16706--CALL    16790--CALL
DISPLDEV_ERR IN PROCEDURE DISPLDEV
PL6.E3A0      #001=CPE$IBEX2 File=CPE$IBEX2.:E05TSI                              TUE 07/29/97 11:35 Page:590
     19211**LABEL   19174--CALLALT 19204--CALLALT
DISPLDEV_RET IN PROCEDURE DISPLDEV
     19208**LABEL   19175--GOTO
DISPNOTIFY
     20056**PROC    16707--CALL    16788--CALL
DISPNOTIFY_ALT IN PROCEDURE DISPNOTIFY
     20392**LABEL   20202--CALLALT 20212--CALLALT 20226--CALLALT 20229--CALLALT 20237--CALLALT 20243--CALLALT
     20249--CALLALT 20257--CALLALT 20264--CALLALT 20270--CALLALT 20276--CALLALT 20282--CALLALT 20290--CALLALT
     20300--CALLALT 20305--CALLALT 20307--CALLALT 20312--CALLALT 20317--CALLALT 20323--CALLALT 20328--CALLALT
     20334--CALLALT 20339--CALLALT 20345--CALLALT 20350--CALLALT 20356--CALLALT 20361--CALLALT 20370--CALLALT
     20380--CALLALT 20389--CALLALT
DISPNOTIFY_ERR IN PROCEDURE DISPNOTIFY
     20387**LABEL   20208--GOTO
DISPNOTIFY_RET IN PROCEDURE DISPNOTIFY
     20384**LABEL   20215--GOTO
DISPSTEPCC
     18836**PROC    16720--CALL    16774--CALL
DISPSTEPCC50 IN PROCEDURE DISPSTEPCC
     18849**LABEL   18846--CALLALT 18850--CALLALT
DISPSYS
     17398**PROC    16691--CALL
DISPSYS50 IN PROCEDURE DISPSYS
     17443**LABEL   17419--CALLALT 17428--CALLALT 17437--CALLALT 17440--CALLALT 17444--CALLALT 17446--CALLALT
DISPUSER
     18707**PROC    16703--CALL    16736--CALL
DISPUSER20 IN PROCEDURE DISPUSER
     18783**LABEL   18784--CALLALT
DISPUSER30 IN PROCEDURE DISPUSER
     18793**LABEL   18788--CALLALT
DISPUSER50 IN PROCEDURE DISPUSER
     18810**LABEL   18717--CALLALT 18719--CALLALT 18721--CALLALT 18724--CALLALT 18727--CALLALT 18730--CALLALT
     18742--CALLALT 18745--CALLALT 18755--CALLALT 18763--CALLALT 18766--CALLALT 18800--CALLALT 18802--CALLALT
     18811--CALLALT
DISPUSER60 IN PROCEDURE DISPUSER
     18810**LABEL   18773--CALLALT
DISPWHEN
PL6.E3A0      #001=CPE$IBEX2 File=CPE$IBEX2.:E05TSI                              TUE 07/29/97 11:35 Page:591
     20407**PROC    16708--CALL    16813--CALL
DISPWHEN_ALT IN PROCEDURE DISPWHEN
     20469**LABEL   20425--CALLALT 20445--CALLALT 20446--CALLALT
DISPWSN
     19107**PROC    16730--CALL    16815--CALL
DISPWSN50 IN PROCEDURE DISPWSN
     19121**LABEL   19115--CALLALT 19118--CALLALT
DISP_OPT_TEXT
     19001**PROC    18419--CALL    18422--CALL    18425--CALL    18432--CALL    18435--CALL
DISP_OPT_TEXT50 IN PROCEDURE DISP_OPT_TEXT
     19032**LABEL   19013--CALLALT 19020--CALLALT 19026--CALLALT 19029--CALLALT
DISP_OPT_YESNO
     18935**PROC    17702--CALL    18047--CALL    18049--CALL    18051--CALL    18066--CALL    18068--CALL
     18106--CALL    18107--CALL    18109--CALL    18113--CALL    18115--CALL    18182--CALL    18230--CALL
     18280--CALL    18289--CALL    18290--CALL    18304--CALL    18364--CALL    18367--CALL    18368--CALL
     18369--CALL    18370--CALL    18371--CALL    18374--CALL    18398--CALL    18400--CALL    18402--CALL
     18404--CALL    18406--CALL    18408--CALL    18415--CALL    18417--CALL    18428--CALL    18430--CALL
     18438--CALL    18445--CALL    18457--CALL    18540--CALL    18541--CALL    18544--CALL
DISP_OPT_YESNO10 IN PROCEDURE DISP_OPT_YESNO
     18979**LABEL   18967--GOTO
DISP_OPT_YESNO50 IN PROCEDURE DISP_OPT_YESNO
     18984**LABEL   18949--CALLALT 18956--CALLALT 18981--CALLALT
DISP_PMSN
     18895**PROC    17995--CALL    18099--CALL
DONT75
     16985**LABEL   16934--CALLALT 16942--CALLALT 16943--GOTO    16945--CALLALT 16953--CALLALT 16985--CALLALT
EJECT_RET
     17074**LABEL   17056--GOTO
ENDIT IN PROCEDURE FIND_ALL_LDEVS
     20010**LABEL   19998--CALLALT
ERR$BLK.FIRST
     15923**DCL     16819>>IF
ETMF IN PROCEDURE DISPSYS
     17402**DCL     17427--ASSIGN
ETMF.HDR IN PROCEDURE DISPSYS
     17403**DCL     17426<<ASSIGN
PL6.E3A0      #001=CPE$IBEX2 File=CPE$IBEX2.:E05TSI                              TUE 07/29/97 11:35 Page:592
ETMF.NR IN PROCEDURE DISPSYS
     17404**DCL     17424<<CALLBLT 17425<>CALL    17425--CALL
E_BADPASS
     16400**DCL     17267<>CALL
E_NOASGN
     16440**DCL     16834<>CALL
E_NOLDEVTHATTYPE
     16527**DCL     20033<>CALL
E_NOSUCHLDEV
     16479**DCL     17055<>CALL    20036<>CALL
E_PASSCHNGE
     16460**DCL     17257<>CALL
E_QUIT
     16420**DCL     16628<>CALL    17165<>CALL
F$DCB.ACTPOS
     15047**DCL     15047--REDEF
F$DCB.ARS#
     15021**DCL     15021--REDEF   20448>>ASSIGN
F$DCB.ATTR
     15040**DCL     15041--REDEF
F$DCB.BORROW
     15055**DCL     15055--REDEF   15055--REDEF   15055--REDEF
F$DCB.CFU$
     15056**DCL     19713>>ASSIGN
F$DCB.DCBNAME.L
     15069**DCL     15069--IMP-SIZ
F$DCB.EOMCHAR#
     15025**DCL     15025--REDEF
F$DCB.FCD#
     15034**DCL     17559>>IF      19704>>IF      19915>>IF      19928>>IF      20387>>IF      20756>>IF
     20786>>IF
F$DCB.FLDID
     15050**DCL     15050--REDEF
F$DCB.FORM$
     15044**DCL     15044--REDEF   19714>>ASSIGN
F$DCB.FSECT
PL6.E3A0      #001=CPE$IBEX2 File=CPE$IBEX2.:E05TSI                              TUE 07/29/97 11:35 Page:593
     15060**DCL     15060--REDEF
F$DCB.FSN#
     15037**DCL     15037--REDEF   15037--REDEF   15038--REDEF
F$DCB.HEADER$
     15043**DCL     15043--REDEF   19766>>IF      19769>>ASSIGN  19773>>ASSIGN  19780>>CALLBLT 19780>>CALLBLT
F$DCB.IXTNSIZE#
     15041**DCL     15041--REDEF
F$DCB.LASTSTA$
     15030**DCL     15030--REDEF
F$DCB.LVL
     15056**DCL     15056--REDEF
F$DCB.NAME#.C
     15031**DCL     15031--REDEF
F$DCB.NOEOF
     15053**DCL     15053--REDEF
F$DCB.NRECS#
     15042**DCL     15042--REDEF
F$DCB.NRECX
     15061**DCL     15061--REDEF
F$DCB.OHDR
     15053**DCL     15053--REDEF
F$DCB.ORG#
     15036**DCL     15036--REDEF
F$DCB.PRECNO
     15059**DCL     15059--REDEF
F$DCB.RCSZ
     15065**DCL     15065--REDEF
F$DCB.RES#
     15032**DCL     15032--REDEF   19738>>CALLBLT 20750>>IF
F$DCB.SETX
     15044**DCL     15044--REDEF
F$DCB.STR#
     15061**DCL     19915>>IF      20750>>IF
F$DCB.TAB$
     15044**DCL     15044--REDEF
F$DCB.TDA
PL6.E3A0      #001=CPE$IBEX2 File=CPE$IBEX2.:E05TSI                              TUE 07/29/97 11:35 Page:594
     15058**DCL     15059--REDEF
F$DCB.WIDTH#
     15028**DCL     20449>>ASSIGN
F$DCB.WSN#
     15032**DCL     15032--REDEF   19738>>CALLBLT
FDCB_CHAR IN PROCEDURE DISPDCBS
     17466**DCL     17509>>IF
FID$
     14316**DCL     16617<<ASSIGN  16618<>CALL    17158<<ASSIGN  17159<>CALL
FIND_ALL_LDEVS
     19988**PROC    19174--CALL    19204--CALL
FIND_ALL_LDEVS_ERR IN PROCEDURE FIND_ALL_LDEVS
     20041**LABEL   20003--CALLALT 20014--CALLALT 20025--CALLALT
FIND_OR_CREATE_STREAM
     20475**PROC    17051--CALL
FLAG IN PROCEDURE PUT_FLAG
     19966**DCL     19964--PROC    19970>>IF
FLAGS_TBL.HDR IN PROCEDURE DISPFLGS
     18580**DCL     18663>>ASSIGN
FLAGS_TBL.LEN IN PROCEDURE DISPFLGS
     18578**DCL     18664>>ASSIGN
FLAGS_VAL IN PROCEDURE DISPFLGS
     18596**DCL     18616<<ASSIGN  18617<<ASSIGN  18618<<ASSIGN  18619<<ASSIGN  18620<<ASSIGN  18621<<ASSIGN
     18622<<ASSIGN  18623<<ASSIGN  18624<<ASSIGN  18625<<ASSIGN  18626<<ASSIGN  18627<<ASSIGN  18628<<ASSIGN
     18629<<ASSIGN  18653>>IF
FMT_VEC
     14639**DCL     20412--ASSIGN  20415<<ASSIGN  20455<<ASSIGN
FORM$ IN PROCEDURE DILDEV
     19232**DCL     19714<<ASSIGN  19744>>CALLBLT 19745>>CALLBLT 19749>>ASSIGN  19750>>IF      19754>>ASSIGN
     19761>>ASSIGN  19764>>ASSIGN
FPT$WRITE
     16050**DCL     16682<<ASSIGN  17348<<ASSIGN
FPT$WRITE.BUF_
     16050**DCL     17350<<ASSIGN  17361<<ASSIGN  17418<<ASSIGN  17427<<ASSIGN  17515<<ASSIGN  17541<<ASSIGN
     18603<<ASSIGN  19718<<ASSIGN  19804<<ASSIGN  20024<<ASSIGN
FPT$WRITE.BUF_.BOUND
PL6.E3A0      #001=CPE$IBEX2 File=CPE$IBEX2.:E05TSI                              TUE 07/29/97 11:35 Page:595
     16050**DCL     17443<<ASSIGN  18550<<ASSIGN  18683<<ASSIGN  18744<<ASSIGN  18801<<ASSIGN  18848<<ASSIGN
     19089<<ASSIGN  19116<<ASSIGN  20001<<ASSIGN  20012<<ASSIGN  20210<<ASSIGN  20224<<ASSIGN  20288<<ASSIGN
     20298<<ASSIGN  20368<<ASSIGN  20378<<ASSIGN
FPT$WRITE.BUF_.BUF$
     16052**DCL     17442<<ASSIGN  18549<<ASSIGN  18682<<ASSIGN  18715<<ASSIGN  18743<<ASSIGN  18849<<ASSIGN
     19090<<ASSIGN  19117<<ASSIGN  20002<<ASSIGN  20013<<ASSIGN  20211<<ASSIGN  20225<<ASSIGN  20289<<ASSIGN
     20299<<ASSIGN  20369<<ASSIGN  20379<<ASSIGN
FPT$WRITE.STATION_
     16052**DCL     16052--REDEF
FPT$WRITE.V
     16053**DCL     16683--ASSIGN  17349--ASSIGN
FPT$WRITE.V.DVBYTE.VFC#
     16059**DCL     16059--REDEF
FPT$WRITE.V_
     16050**DCL     16683<<ASSIGN  17349<<ASSIGN
FPT_CLOSE
     16014**DCL     16930<<ASSIGN  16942<>CALL    16945<>CALL    17247<<ASSIGN  17251<>CALL    17271<<ASSIGN
     17275<>CALL    17478<<ASSIGN  17532<>CALL    17563<>CALL    20198<<ASSIGN  20213<>CALL    20218<>CALL
     20389<>CALL    20421<<ASSIGN  20435<>CALL    20453<>CALL    20469<>CALL
FPT_CLOSE.SN_
     16014**DCL     16014--REDEF
FPT_CLOSE.UTL_
     16015**DCL     16015--REDEF
FPT_CLOSE.V
     16019**DCL     16931--ASSIGN  17248--ASSIGN  17272--ASSIGN  17479--ASSIGN  20199--ASSIGN  20422--ASSIGN
FPT_CLOSE.V.DCB#
     16020**DCL     16932<<ASSIGN  17249<<ASSIGN  17273<<ASSIGN  17530<<ASSIGN  17562<<ASSIGN  20201<<ASSIGN
     20424<<ASSIGN
FPT_CLOSE.V.DISP#
     16023**DCL     16933<<ASSIGN  17250<<ASSIGN  17274<<ASSIGN  17531<<ASSIGN  17561<<ASSIGN  20200<<ASSIGN
     20423<<ASSIGN
FPT_CLOSE.V.EXPIRE#
     16029**DCL     16029--REDEF
FPT_CLOSE.V.TYPE#
     16027**DCL     16027--REDEF
FPT_CLOSE.V.XTNSIZE#
PL6.E3A0      #001=CPE$IBEX2 File=CPE$IBEX2.:E05TSI                              TUE 07/29/97 11:35 Page:596
     16024**DCL     16024--REDEF   16026--REDEF
FPT_CLOSE.V_
     16014**DCL     16931<<ASSIGN  17248<<ASSIGN  17272<<ASSIGN  17479<<ASSIGN  20199<<ASSIGN  20422<<ASSIGN
FPT_DEVICE
     16088**DCL     17032<<ASSIGN  17067<>CALL
FPT_DEVICE.V
     16089**DCL     17033--ASSIGN
FPT_DEVICE.V.CLEAR#
     16090**DCL     17062<<ASSIGN
FPT_DEVICE.V.DCB#
     16089**DCL     17066<<ASSIGN
FPT_DEVICE.V.PAGE#
     16090**DCL     17040<<ASSIGN  17064<<ASSIGN
FPT_DEVICE.V_
     16088**DCL     17033<<ASSIGN
FPT_DISPLAY
     16075**DCL     17408<<ASSIGN  17410<>CALL
FPT_DISPLAY.RESULTS_
     16075**DCL     17409<<ASSIGN
FPT_DRIBBLE
     14656**DCL     16950<<ASSIGN  16953<>CALL
FPT_DRIBBLE.V
     14656**DCL     16951--ASSIGN
FPT_DRIBBLE.V.DRIBBLE#
     14656**DCL     16952<<ASSIGN
FPT_DRIBBLE.V_
     14656**DCL     16951<<ASSIGN
FPT_OPEN
     16269**DCL     17482<<ASSIGN  17491<>CALL    18774<<ASSIGN  18784<>CALL
FPT_OPEN.ACSVEH_
     16271**DCL     16272--REDEF
FPT_OPEN.ALTKEYS_
     16277**DCL     16278--REDEF   16278--REDEF
FPT_OPEN.FPARAM_
     16274**DCL     18780<<ASSIGN
FPT_OPEN.HDR_
PL6.E3A0      #001=CPE$IBEX2 File=CPE$IBEX2.:E05TSI                              TUE 07/29/97 11:35 Page:597
     16276**DCL     16277--REDEF
FPT_OPEN.NAME_
     16270**DCL     17484<<ASSIGN
FPT_OPEN.TAB_
     16275**DCL     16276--REDEF
FPT_OPEN.UHL_
     16269**DCL     16270--REDEF   16270--REDEF
FPT_OPEN.V
     16278**DCL     17483--ASSIGN  18775--ASSIGN
FPT_OPEN.V.ACS#
     16289**DCL     17489<<ASSIGN
FPT_OPEN.V.ASN#
     16288**DCL     17486<<ASSIGN  18777<<ASSIGN
FPT_OPEN.V.DCB#
     16278**DCL     17485<<ASSIGN  18776<<ASSIGN
FPT_OPEN.V.FSN#
     16309**DCL     16309--REDEF   16309--REDEF
FPT_OPEN.V.FUN#
     16288**DCL     17487<<ASSIGN
FPT_OPEN.V.INITZ.SCRUB#
     16279**DCL     17490<<ASSIGN  18778<<ASSIGN
FPT_OPEN.V.ORG#
     16289**DCL     17488<<ASSIGN
FPT_OPEN.V_
     16269**DCL     17483<<ASSIGN  18775<<ASSIGN
FPT_OPEN.WSN_
     16275**DCL     16275--REDEF
FPT_READ
     16330**DCL     17496<<ASSIGN  17506<>CALL
FPT_READ.BUF_.BOUND
     16332**DCL     17499<<ASSIGN
FPT_READ.BUF_.BUF$
     16333**DCL     17498<<ASSIGN
FPT_READ.KEY_
     16330**DCL     17500<<ASSIGN
FPT_READ.STATION_
PL6.E3A0      #001=CPE$IBEX2 File=CPE$IBEX2.:E05TSI                              TUE 07/29/97 11:35 Page:598
     16333**DCL     16334--REDEF
FPT_READ.V
     16334**DCL     17497--ASSIGN
FPT_READ.V.DCB#
     16334**DCL     17503<<ASSIGN
FPT_READ.V.DVBYTE.REREAD#
     16345**DCL     16345--REDEF
FPT_READ.V.INDX#
     16343**DCL     16343--REDEF
FPT_READ.V.KEYR#
     16335**DCL     17502<<ASSIGN
FPT_READ.V.KEYS#
     16335**DCL     17501<<ASSIGN
FPT_READ.V_
     16330**DCL     17497<<ASSIGN
FPT_TIME
     15983**DCL     17338<<ASSIGN  17342<>CALL
FPT_TIME.DATE_
     15983**DCL     17340<<ASSIGN
FPT_TIME.TIME_
     15985**DCL     17341<<ASSIGN
FPT_TIME.V
     15987**DCL     17339--ASSIGN
FPT_TIME.V_
     15983**DCL     17339<<ASSIGN
FPT_TRMCTL IN PROCEDURE DILDEV
     19568**DCL     19795<<ASSIGN  19800<>CALL
FPT_TRMCTL.TRMCTL_ IN PROCEDURE DILDEV
     19574**DCL     19797<<ASSIGN
FPT_TRMCTL.V IN PROCEDURE DILDEV
     19576**DCL     19796--ASSIGN
FPT_TRMCTL.V.DCB# IN PROCEDURE DILDEV
     19576**DCL     19918<<ASSIGN  19936<<ASSIGN
FPT_TRMCTL.V.VLPTYPE# IN PROCEDURE DILDEV
     19576**DCL     19798<<ASSIGN
FPT_TRMCTL.V_ IN PROCEDURE DILDEV
PL6.E3A0      #001=CPE$IBEX2 File=CPE$IBEX2.:E05TSI                              TUE 07/29/97 11:35 Page:599
     19570**DCL     19796<<ASSIGN
FPT_TRMISC
     16366**DCL     16956<<ASSIGN  16985<>CALL
FPT_TRMISC.V
     16370**DCL     16957--ASSIGN
FPT_TRMISC.V.ANNOUNCE#
     16371**DCL     16965<<ASSIGN  16973<<ASSIGN  16981<<ASSIGN
FPT_TRMISC.V.BROADCAST#
     16370**DCL     16964<<ASSIGN  16975<<ASSIGN  16980<<ASSIGN
FPT_TRMISC.V.DCB#
     16370**DCL     16958<<ASSIGN
FPT_TRMISC.V.SEND#
     16370**DCL     16963<<ASSIGN  16977<<ASSIGN  16979<<ASSIGN
FPT_TRMISC.V_
     16368**DCL     16957<<ASSIGN
FPT_UNFID IN PROCEDURE DISPDCB
     17650**DCL     17675<<ASSIGN  17696<>CALL    18517<<ASSIGN  18535<>CALL
FPT_UNFID.ACCT_ IN PROCEDURE DISPDCB
     17651**DCL     17683<<ASSIGN  18520<<ASSIGN
FPT_UNFID.ASN_ IN PROCEDURE DISPDCB
     17653**DCL     17693<<ASSIGN  18532<<ASSIGN
FPT_UNFID.LEN_ IN PROCEDURE DISPDCB
     17653**DCL     17695<<ASSIGN
FPT_UNFID.NAME_ IN PROCEDURE DISPDCB
     17651**DCL     17680<<ASSIGN  18519<<ASSIGN
FPT_UNFID.PASS_ IN PROCEDURE DISPDCB
     17651**DCL     18521<<ASSIGN
FPT_UNFID.RES_ IN PROCEDURE DISPDCB
     17653**DCL     17694<<ASSIGN  18529<<ASSIGN
FPT_UNFID.SN_ IN PROCEDURE DISPDCB
     17652**DCL     17688<<ASSIGN  18524<<ASSIGN  18528<<ASSIGN
FPT_UNFID.TEXTFID_ IN PROCEDURE DISPDCB
     17650**DCL     17677<<ASSIGN  18534<<ASSIGN
FPT_UNFID.V IN PROCEDURE DISPDCB
     17654**DCL     17676--ASSIGN  18518--ASSIGN
FPT_UNFID.V_ IN PROCEDURE DISPDCB
PL6.E3A0      #001=CPE$IBEX2 File=CPE$IBEX2.:E05TSI                              TUE 07/29/97 11:35 Page:600
     17650**DCL     17676<<ASSIGN  18518<<ASSIGN
FPT_UNFID.WSN_ IN PROCEDURE DISPDCB
     17652**DCL     17692<<ASSIGN
F_FDS
     14540**DCL     20410<<ASSIGN  20440<>CALL    20465<>CALL
F_FDS.BUF_
     14557**DCL     20413<<ASSIGN  20452<<ASSIGN
F_FDS.FMT_
     14544**DCL     20414<<ASSIGN
F_FDS.NVECS#
     14568**DCL     20439<<ASSIGN  20456<<ASSIGN  20462<<ASSIGN
F_FDS.OUTPUT#
     14594**DCL     20411<<ASSIGN
F_FDS.VECTR$
     14570**DCL     20412<<ASSIGN
GOT_STREAM IN PROCEDURE FIND_OR_CREATE_STREAM
     20506**DCL     20733<<ASSIGN  20753<<ASSIGN  20756>>IF      20760>>IF      20768>>IF      20778>>IF
     20783>>IF
I
     14353**DCL     16694<<ASSIGN  16696>>DOWHILE 16697>>ASSIGN  16817<<ASSIGN  16817>>ASSIGN  16896<<ASSIGN
     16898>>DOWHILE 16899>>ASSIGN  16987<<ASSIGN  16987>>ASSIGN  17214<<ASSIGN  17217>>DOWHILE 17218>>ASSIGN
     17225<<ASSIGN  17225>>ASSIGN  18493<<DOINDEX 18494>>ASSIGN  18496>>ASSIGN  18498>>IF      18505>>IF
I IN PROCEDURE DISPBUDGET
     19046**DCL     19065<<ASSIGN  19066>>DOWHILE 19066>>DOWHILE 19067<<ASSIGN  19067>>ASSIGN  19069>>ASSIGN
     19069>>ASSIGN  19083<<ASSIGN  19084>>DOWHILE 19084>>DOWHILE 19085<<ASSIGN  19085>>ASSIGN  19087>>ASSIGN
     19087>>ASSIGN
I IN PROCEDURE DISPFLGS
     18599**DCL     18634<<DOINDEX
I IN PROCEDURE DISPLDEV
     19137**DCL     19178<<DOINDEX 19179>>DOCASE  19186>>DOINDEX 19187>>ASSIGN
I IN PROCEDURE DISP_OPT_TEXT
     19006**DCL     19014<<DOINDEX 19015>>IF      19018>>ASSIGN  19019>>ASSIGN  19022<<ASSIGN
I IN PROCEDURE DISP_OPT_YESNO
     18936**DCL     18950<<DOINDEX 18951>>IF      18954>>ASSIGN  18955>>ASSIGN  18958<<ASSIGN
I IN PROCEDURE DISP_PMSN
     18897**DCL     18905<<DOINDEX 18906>>IF      18909>>ASSIGN
PL6.E3A0      #001=CPE$IBEX2 File=CPE$IBEX2.:E05TSI                              TUE 07/29/97 11:35 Page:601
I IN PROCEDURE FIND_OR_CREATE_STREAM
     20504**DCL     20745<<DOINDEX 20746--IF      20749--ASSIGN  20750--IF      20750--IF      20754>>ASSIGN
     20756--IF      20762<<ASSIGN  20770<<DOINDEX 20771>>IF
I IN PROCEDURE SETUP_TCTL_DCB
     19901**DCL     19912<<DOINDEX 19913--IF      19915--IF      19915--IF      19918>>ASSIGN
IGNORE_CREATE_FLG IN PROCEDURE FIND_OR_CREATE_STREAM
     20507**DCL     20738<<ASSIGN  20740<<ASSIGN  20773<<ASSIGN  20778>>IF
IN$
     14341**DCL     17355<<ASSIGN  17362<>CALL    17364<<ASSIGN  17366<>CALL    17376<>CALL    17660<<ASSIGN
     17665<>CALL    17671<>CALL    17698<>CALL    17699<<ASSIGN  17708<>CALL    17720<>CALL    17727<>CALL
     17739<>CALL    17746<>CALL    17758<>CALL    17765<>CALL    17843<>CALL    17850<>CALL    17859<>CALL
     17866<>CALL    17878<>CALL    17899<>CALL    17914<>CALL    17921<>CALL    17926<>CALL    17977<>CALL
     17984<>CALL    17986<>CALL    17992<>CALL    17997<>CALL    18004<>CALL    18025<>CALL    18063<>CALL
     18080<>CALL    18093<>CALL    18096<>CALL    18098<>CALL    18101<>CALL    18159<>CALL    18171<>CALL
     18179<>CALL    18212<>CALL    18218<>CALL    18226<>CALL    18237<>CALL    18245<>CALL    18253<>CALL
     18255<>CALL    18313<>CALL    18316<>CALL    18332<>CALL    18340<>CALL    18350<>CALL    18362<>CALL
     18476<>CALL    18492<>CALL    18514<>CALL    18538<>CALL    18610<<ASSIGN  18641<>CALL    18648<>CALL
     18660<>CALL    18667<>CALL    18671<>CALL    18710<<ASSIGN  18719<>CALL    18724<>CALL    18730<>CALL
     18755<>CALL    18763<>CALL    18766<>CALL    18911<>CALL    18949<>CALL    18956<>CALL    18981<>CALL
     19013<>CALL    19020<>CALL    19026<>CALL    19029<>CALL    19061<<ASSIGN  19062<>CALL    19075<<ASSIGN
     19077<>CALL    19080<>CALL    19164<<ASSIGN  19740<>CALL    19747<>CALL    19778<>CALL    19782<>CALL
     19821<>CALL    19826<>CALL    19836<>CALL    19870<>CALL    19887<>CALL    19945<>CALL    19951<>CALL
     19976<>CALL    20220<<ASSIGN  20229<>CALL    20237<>CALL    20243<>CALL    20249<>CALL    20257<>CALL
     20264<>CALL    20270<>CALL    20276<>CALL    20305<>CALL    20307<>CALL    20312<>CALL    20317<>CALL
     20323<>CALL    20328<>CALL    20334<>CALL    20339<>CALL    20345<>CALL    20350<>CALL    20356<>CALL
     20361<>CALL
INBUFF
     14344**DCL     17364--ASSIGN  17365<<ASSIGN  17375<<ASSIGN  17439<<ASSIGN  17440--CALL    17660--ASSIGN
     17664<<ASSIGN  17670<<ASSIGN  17677--ASSIGN  17699--ASSIGN  17707<<ASSIGN  17711<<ASSIGN  17714<<ASSIGN
     17717<<ASSIGN  17726<<ASSIGN  17730<<ASSIGN  17733<<ASSIGN  17736<<ASSIGN  17745<<ASSIGN  17749<<ASSIGN
     17752<<ASSIGN  17755<<ASSIGN  17764<<ASSIGN  17768<<ASSIGN  17771<<ASSIGN  17774<<ASSIGN  17777<<ASSIGN
     17780<<ASSIGN  17783<<ASSIGN  17786<<ASSIGN  17789<<ASSIGN  17792<<ASSIGN  17795<<ASSIGN  17798<<ASSIGN
     17801<<ASSIGN  17804<<ASSIGN  17807<<ASSIGN  17810<<ASSIGN  17813<<ASSIGN  17816<<ASSIGN  17819<<ASSIGN
     17822<<ASSIGN  17825<<ASSIGN  17828<<ASSIGN  17831<<ASSIGN  17834<<ASSIGN  17837<<ASSIGN  17840<<ASSIGN
     17849<<ASSIGN  17853<<ASSIGN  17856<<ASSIGN  17865<<ASSIGN  17869<<ASSIGN  17872<<ASSIGN  17875<<ASSIGN
     17898<<ASSIGN  17902<<ASSIGN  17905<<ASSIGN  17908<<ASSIGN  17911<<ASSIGN  17920<<ASSIGN  17925<<ASSIGN
PL6.E3A0      #001=CPE$IBEX2 File=CPE$IBEX2.:E05TSI                              TUE 07/29/97 11:35 Page:602
     17976<<ASSIGN  17983<<ASSIGN  17985<<ASSIGN  17991<<ASSIGN  17996<<ASSIGN  18002<<CALLBLT 18003>>CALLBLT
     18009<<ASSIGN  18012<<ASSIGN  18015<<ASSIGN  18018<<ASSIGN  18060<<CALLBLT 18062>>CALLBLT 18077<<CALLBLT
     18079>>CALLBLT 18092<<ASSIGN  18094<<ASSIGN  18095>>CALLBLT 18097<<ASSIGN  18100<<ASSIGN  18158<<ASSIGN
     18170<<ASSIGN  18178<<ASSIGN  18211<<ASSIGN  18217<<ASSIGN  18224<<ASSIGN  18235<<CALLBLT 18236>>CALLBLT
     18243<<CALLBLT 18244>>CALLBLT 18251<<CALLBLT 18252>>CALLBLT 18254<<ASSIGN  18311<<CALLBLT 18312>>CALLBLT
     18315<<ASSIGN  18330<<ASSIGN  18338<<ASSIGN  18349<<ASSIGN  18353<<ASSIGN  18356<<ASSIGN  18359<<ASSIGN
     18466<<ASSIGN  18468<<ASSIGN  18470<<ASSIGN  18472<<ASSIGN  18474>>IF      18490<<ASSIGN  18500<<ASSIGN
     18507<<CALLBLT 18511<<CALLBLT 18536<<CALLBLT 18537>>CALLBLT 18610--ASSIGN  18640<<ASSIGN  18647<<ASSIGN
     18659<<ASSIGN  18663<<ASSIGN  18710--ASSIGN  18718<<ASSIGN  18723<<ASSIGN  18729<<ASSIGN  18748<<ASSIGN
     18754<<CALLBLT 18762<<CALLBLT 18765<<CALLBLT 18909<<ASSIGN  18910>>CALLBLT 18948<<ASSIGN  18954<<ASSIGN
     18979<<ASSIGN  19012<<ASSIGN  19018<<ASSIGN  19025<<ASSIGN  19027<<ASSIGN  19060<<ASSIGN  19061--ASSIGN
     19074<<ASSIGN  19075--ASSIGN  19079<<ASSIGN  19164--ASSIGN  19738<<CALLBLT 19744<<CALLBLT 19746<<CALLBLT
     19777<<ASSIGN  19780<<CALLBLT 19820<<CALLBLT 19825<<ASSIGN  19833<<ASSIGN  19834<<CALLBLT 19868<<ASSIGN
     19869<<CALLBLT 19885<<ASSIGN  19886<<CALLBLT 19944<<ASSIGN  19950<<ASSIGN  19975<<ASSIGN  20220--ASSIGN
     20228<<ASSIGN  20234<<CALLBLT 20236<<CALLBLT 20240<<ASSIGN  20242<<CALLBLT 20247<<ASSIGN  20255<<CALLBLT
     20263<<ASSIGN  20269<<ASSIGN  20275<<ASSIGN  20304<<ASSIGN  20306<<ASSIGN  20311<<ASSIGN  20316<<ASSIGN
     20322<<ASSIGN  20327<<ASSIGN  20333<<ASSIGN  20338<<ASSIGN  20344<<ASSIGN  20349<<ASSIGN  20355<<ASSIGN
     20360<<ASSIGN  20409<<ASSIGN  20414--ASSIGN  20457<<ASSIGN  20463<<CALLBLT
IND1
     14326**DCL     19745<<CALLBLT 19746>>CALLBLT 19749<<ASSIGN  19750>>IF      19753<>CALL    19754<<ASSIGN
     19755>>IF      19757<>CALL    19761<<ASSIGN  19762<>CALL    19764<<ASSIGN  19765<>CALL    19769<<ASSIGN
     19770>>IF      19772<>CALL    19773<<ASSIGN  19774>>IF      19782>>CALL    19827<<ASSIGN  19828>>CALLBLT
     19838<<ASSIGN  19839<>CALL    19840<<ASSIGN  19841<>CALL    19842<<ASSIGN  19843<>CALL    19844<<ASSIGN
     19845<>CALL    19859<<ASSIGN  19861<>CALL    19863<<ASSIGN  19864>>IF      19876<<ASSIGN  19878<>CALL
     19880<<ASSIGN  19881>>IF      20235<<CALLBLT 20236>>CALLBLT 20237>>CALL    20241<<ASSIGN  20242>>CALLBLT
     20243>>CALL    20248<<CALLBLT 20249>>CALL    20256<<CALLBLT 20257>>CALL    20279<<ASSIGN  20280>>CALLBLT
     20281<>CALL    20282<>CALL
IND2 IN PROCEDURE DILDEV
     19235**DCL     19830<<ASSIGN  19831>>CALLBLT
J
     14354**DCL     16959<<ASSIGN  16968>>DOWHILE 16969>>ASSIGN  16983<<ASSIGN  16983>>ASSIGN
J IN PROCEDURE DISPFLGS
     18600**DCL     18652<<DOINDEX 18653>>IF      18663>>ASSIGN  18664>>ASSIGN
J IN PROCEDURE DISPLDEV
     19138**DCL     19186<<DOINDEX 19187>>ASSIGN
K IN PROCEDURE FIND_OR_CREATE_STREAM
PL6.E3A0      #001=CPE$IBEX2 File=CPE$IBEX2.:E05TSI                              TUE 07/29/97 11:35 Page:603
     20505**DCL     20735<<ASSIGN  20745>>DOINDEX 20762>>ASSIGN
K IN PROCEDURE SETUP_TCTL_DCB
     19902**DCL     19907<<ASSIGN  19912>>DOINDEX
KEYWD IN PROCEDURE CNVRT_BLD
     18871**DCL     18869--PROC    18874--CALL
KEYWDSZE IN PROCEDURE CNVRT_BLD
     18870**DCL     18869--PROC    18874<>CALL
KEYWDVAL IN PROCEDURE CNVRT_BLD
     18872**DCL     18869--PROC    18876>>CALLBLT
KL$DREC.PASSWORD
     15527**DCL     15531--REDEF   17235>>IF      17242<<ASSIGN
KL$DREC.RENAME
     15550**DCL     15551--REDEF
K_NOTIFY
     11133**DCL     20203--CALL
K_WHEN
     14901**DCL     20441<<ASSIGN  20446--CALL
K_WHEN.NUM
     14904**DCL     20442<<ASSIGN
LDEVHDR
     14331**DCL     19718--ASSIGN  19804--ASSIGN
LDEVNHDR
     14332**DCL     20024--ASSIGN
LDEVS_EXIST
     14333**DCL     19172<<ASSIGN  19202<<ASSIGN  19722>>IF      19724<<ASSIGN  19808>>IF      19810<<ASSIGN
     20019>>IF
LDEVS_HDR_PRINTED
     14334**DCL     19144<<ASSIGN  19715>>IF      19720<<ASSIGN  19801>>IF      19806<<ASSIGN
LEN
     14357**DCL     14359--IMP-SIZ 17369<>CALL    17370<>CALL    17667<<ASSIGN  17668<>CALL    17687<<ASSIGN
     17688>>ASSIGN  17695--ASSIGN  17698<>CALL    17712<<ASSIGN  17715<<ASSIGN  17718<<ASSIGN  17720<>CALL
     17731<<ASSIGN  17734<<ASSIGN  17737<<ASSIGN  17739<>CALL    17750<<ASSIGN  17753<<ASSIGN  17756<<ASSIGN
     17758<>CALL    17769<<ASSIGN  17772<<ASSIGN  17775<<ASSIGN  17778<<ASSIGN  17781<<ASSIGN  17784<<ASSIGN
     17787<<ASSIGN  17790<<ASSIGN  17793<<ASSIGN  17796<<ASSIGN  17799<<ASSIGN  17802<<ASSIGN  17805<<ASSIGN
     17808<<ASSIGN  17811<<ASSIGN  17814<<ASSIGN  17817<<ASSIGN  17820<<ASSIGN  17823<<ASSIGN  17826<<ASSIGN
     17829<<ASSIGN  17832<<ASSIGN  17835<<ASSIGN  17838<<ASSIGN  17841<<ASSIGN  17843<>CALL    17854<<ASSIGN
PL6.E3A0      #001=CPE$IBEX2 File=CPE$IBEX2.:E05TSI                              TUE 07/29/97 11:35 Page:604
     17857<<ASSIGN  17859<>CALL    17870<<ASSIGN  17873<<ASSIGN  17876<<ASSIGN  17878<>CALL    17903<<ASSIGN
     17906<<ASSIGN  17909<<ASSIGN  17912<<ASSIGN  17914<>CALL    17932<>CALL    17933<>CALL    17982<<ASSIGN
     17984<>CALL    18003<<CALLBLT 18004<>CALL    18010<<ASSIGN  18013<<ASSIGN  18016<<ASSIGN  18019<<ASSIGN
     18021<<ASSIGN  18023>>IF      18025<>CALL    18062<<CALLBLT 18063<>CALL    18079<<CALLBLT 18080<>CALL
     18095<<CALLBLT 18096<>CALL    18167<>CALL    18168<>CALL    18214<<ASSIGN  18215<>CALL    18225<<ASSIGN
     18226<>CALL    18236<<CALLBLT 18237<>CALL    18244<<CALLBLT 18245<>CALL    18252<<CALLBLT 18253<>CALL
     18312<<CALLBLT 18313<>CALL    18331<<ASSIGN  18332<>CALL    18339<<ASSIGN  18340<>CALL    18354<<ASSIGN
     18357<<ASSIGN  18360<<ASSIGN  18362<>CALL    18491<<ASSIGN  18492<>CALL    18501<<ASSIGN  18504<<ASSIGN
     18507>>CALLBLT 18508<<ASSIGN  18508>>ASSIGN  18511>>CALLBLT 18512<<ASSIGN  18512>>ASSIGN  18514<>CALL
     18537<<CALLBLT 18538<>CALL    18664<<ASSIGN  18667<>CALL    18671<>CALL    18678<<ASSIGN  18679>>IF
     18683>>ASSIGN  18716<<CALLBLT 18717<>CALL    18720<<CALLBLT 18721<>CALL    18726<>CALL    18727<>CALL
     18732<<ASSIGN  18739<<ASSIGN  18739>>ASSIGN  18741>>ASSIGN  18741>>ASSIGN  18742<>CALL    18752<<CALLBLT
     18753<<ASSIGN  18753>>ASSIGN  18754>>CALLBLT 18755<>CALL    18760<<CALLBLT 18761<<ASSIGN  18761>>ASSIGN
     18762>>CALLBLT 18763<>CALL    18764<<CALLBLT 18765>>CALLBLT 18766>>CALL    18779<<ASSIGN  18780>>ASSIGN
     18781<<ASSIGN  18782>>ASSIGN  18786<<ASSIGN  18788<>CALL    18845<>CALL    18846<>CALL    18877<>CALL
     18878<>CALL    18910<<CALLBLT 18911<>CALL    18955<<ASSIGN  18956<>CALL    18980<<ASSIGN  18981<>CALL
     19019<<ASSIGN  19020<>CALL    19028<<CALLBLT 19029<>CALL    19076<<ASSIGN  19077<>CALL    19114<<CALLBLT
     19115<>CALL
LEN IN PROCEDURE DILDEV
     19240**DCL     19829<>CALL    19834>>CALLBLT 19836>>CALL    19974<<ASSIGN  19976<>CALL
LEN IN PROCEDURE DISPNOTIFY
     20195**DCL     20364<<ASSIGN  20365>>IF      20368>>ASSIGN  20374<<ASSIGN  20375>>IF      20378>>ASSIGN
LENGTH IN PROCEDURE PUT_FLAG
     19968**DCL     19964--PROC    19967--IMP-SIZ 19974>>ASSIGN  19975>>ASSIGN
LIST70
     17162**LABEL   17153--GOTO
LIST80
     17162**LABEL   17159--CALLALT
LISTDCB
     11154**DCL     17159--CALL
LOAD_VAR
     14885**DCL     17409--ASSIGN
LOAD_VAR.ETMF
     14885**DCL     17421>>IF      17423<<ASSIGN  17424>>CALLBLT
LOAD_VAR.RESP
     14885**DCL     17430>>IF      17432<<ASSIGN  17437<>CALL
PL6.E3A0      #001=CPE$IBEX2 File=CPE$IBEX2.:E05TSI                              TUE 07/29/97 11:35 Page:605
LOAD_VAR.USERS
     14885**DCL     17412>>IF      17414<<ASSIGN  17415>>CALLBLT
M$CLOSE
        27**DCL-ENT 16942--CALL    16945--CALL    17251--CALL    17275--CALL    17532--CALL    17563--CALL
     20213--CALL    20218--CALL    20389--CALL    20435--CALL    20453--CALL    20469--CALL    20900--CALL
M$DEVICE
        31**DCL-ENT 17067--CALL
M$DISPLAY
        94**DCL-ENT 17410--CALL
M$DODCB
     14360**DCL     16618--CALL    16619--CALL
M$DRIBBLE
        57**DCL-ENT 16953--CALL
M$GTRMCTL
        51**DCL-ENT 19800--CALL
M$IBEX1_NUM
     11105**DCL     16741<>CALL    16932>>ASSIGN  17207<>CALL    17243<>CALL    17249>>ASSIGN  17273>>ASSIGN
     17485>>ASSIGN  17503>>ASSIGN  17530>>ASSIGN  17559--IF      17562>>ASSIGN  18776>>ASSIGN  19165>>ASSIGN
     19927>>ASSIGN  20201>>ASSIGN  20202<>CALL    20203<>CALL    20387--IF      20424>>ASSIGN  20445<>CALL
     20446<>CALL    20448--ASSIGN  20785>>ASSIGN
M$OPEN
        27**DCL-ENT 17491--CALL    18784--CALL    19711--CALL    19934--CALL    20792--CALL
M$READ
        28**DCL-ENT 17506--CALL
M$TIME
        94**DCL-ENT 17342--CALL
M$TRMISC
        56**DCL-ENT 16985--CALL
M$UC_NUM
     11102**DCL     16958>>ASSIGN
M$UNFID
        90**DCL-ENT 17696--CALL    18535--CALL
MOPS_7_2_STR IN PROCEDURE DISPBUDGET
     19050**DCL     19064>>CALLBLT 19082>>CALLBLT
MOVE_COMMA_BLANK IN PROCEDURE DILDEV
     19942**PROC    19860--CALL    19867--CALL    19877--CALL    19884--CALL    19973--CALL
PL6.E3A0      #001=CPE$IBEX2 File=CPE$IBEX2.:E05TSI                              TUE 07/29/97 11:35 Page:606
MSGFLAG
     14641**DCL     18806<<ASSIGN  18811<>CALL
N IN PROCEDURE DILDEV
     19216**DCL     19215--PROC    19668>>IF      19668>>IF      19669>>DOWHILE 19669>>DOWHILE 19671<<ASSIGN
     19671>>ASSIGN  19671>>IF      19673>>IF      19678>>IF      19684>>ASSIGN  19686<<ASSIGN  19686>>ASSIGN
     19694<<ASSIGN  19694>>ASSIGN  19709>>ASSIGN  19738>>CALLBLT 19820>>CALLBLT
N IN PROCEDURE DISPLDEV
     19139**DCL     19170<<ASSIGN  19174<>CALL    19201<<ASSIGN  19204<>CALL
N IN PROCEDURE FIND_ALL_LDEVS
     19990**DCL     19988--PROC    19998<>CALL
NEED_COMMA IN PROCEDURE DISPFLGS
     18597**DCL     18633<<ASSIGN  18656>>IF      18665>>IF      18673<<ASSIGN  18687<<ASSIGN
NEWPASSWORD
     14340**DCL     17213<<ASSIGN  17223<<ASSIGN  17231<>CALL    17242>>ASSIGN
NR IN PROCEDURE DISPSYS
     17399**DCL     17418--ASSIGN
NR.HDR IN PROCEDURE DISPSYS
     17400**DCL     17417<<ASSIGN
NR.USRS IN PROCEDURE DISPSYS
     17401**DCL     17415<<CALLBLT 17416<>CALL    17416--CALL
OLDPASSWORD
     14339**DCL     17212<<ASSIGN  17221<<ASSIGN  17230<>CALL    17235>>IF
ONOVERINTO$
     14315**DCL     16616<<ASSIGN  16618<>CALL    17157<<ASSIGN  17159<>CALL
OOPS IN PROCEDURE PUT_FLAG
     19983**LABEL   19976--CALLALT
OPEN IN PROCEDURE DILDEV
     19239**DCL     19712<<ASSIGN  19905<<ASSIGN  19937<<ASSIGN  19958>>IF
OPEN_FLG IN PROCEDURE FIND_OR_CREATE_STREAM
     20499**DCL     20475--PROC    20732<<ASSIGN  20795<<ASSIGN
OPNDCB IN PROCEDURE FIND_OR_CREATE_STREAM
     20575**DCL     20781<<ASSIGN  20792<>CALL
OPNDCB.ACSVEH_ IN PROCEDURE FIND_OR_CREATE_STREAM
     20577**DCL     20578--REDEF
OPNDCB.ALTKEYS_ IN PROCEDURE FIND_OR_CREATE_STREAM
     20583**DCL     20584--REDEF   20584--REDEF
PL6.E3A0      #001=CPE$IBEX2 File=CPE$IBEX2.:E05TSI                              TUE 07/29/97 11:35 Page:607
OPNDCB.HDR_ IN PROCEDURE FIND_OR_CREATE_STREAM
     20582**DCL     20583--REDEF
OPNDCB.TAB_ IN PROCEDURE FIND_OR_CREATE_STREAM
     20581**DCL     20582--REDEF
OPNDCB.UHL_ IN PROCEDURE FIND_OR_CREATE_STREAM
     20575**DCL     20576--REDEF   20576--REDEF
OPNDCB.V IN PROCEDURE FIND_OR_CREATE_STREAM
     20584**DCL     20782--ASSIGN
OPNDCB.V.ASN# IN PROCEDURE FIND_OR_CREATE_STREAM
     20594**DCL     20791<<ASSIGN
OPNDCB.V.DCB# IN PROCEDURE FIND_OR_CREATE_STREAM
     20584**DCL     20789<<ASSIGN
OPNDCB.V.FSN# IN PROCEDURE FIND_OR_CREATE_STREAM
     20615**DCL     20615--REDEF   20615--REDEF
OPNDCB.V.RES# IN PROCEDURE FIND_OR_CREATE_STREAM
     20599**DCL     20790<<ASSIGN
OPNDCB.V_ IN PROCEDURE FIND_OR_CREATE_STREAM
     20575**DCL     20782<<ASSIGN
OPNDCB.WSN_ IN PROCEDURE FIND_OR_CREATE_STREAM
     20581**DCL     20581--REDEF
OPNMYDCB IN PROCEDURE DILDEV
     19315**DCL     19707<<ASSIGN  19711<>CALL    19925<<ASSIGN  19934<>CALL
OPNMYDCB.ACSVEH_ IN PROCEDURE DILDEV
     19317**DCL     19318--REDEF
OPNMYDCB.ALTKEYS_ IN PROCEDURE DILDEV
     19323**DCL     19324--REDEF   19324--REDEF
OPNMYDCB.HDR_ IN PROCEDURE DILDEV
     19322**DCL     19323--REDEF
OPNMYDCB.TAB_ IN PROCEDURE DILDEV
     19321**DCL     19322--REDEF
OPNMYDCB.UHL_ IN PROCEDURE DILDEV
     19315**DCL     19316--REDEF   19316--REDEF
OPNMYDCB.V IN PROCEDURE DILDEV
     19324**DCL     19710--ASSIGN  19926--ASSIGN
OPNMYDCB.V.ASN# IN PROCEDURE DILDEV
     19334**DCL     19933<<ASSIGN
PL6.E3A0      #001=CPE$IBEX2 File=CPE$IBEX2.:E05TSI                              TUE 07/29/97 11:35 Page:608
OPNMYDCB.V.DCB# IN PROCEDURE DILDEV
     19324**DCL     19708<<ASSIGN  19931<<ASSIGN
OPNMYDCB.V.FSN# IN PROCEDURE DILDEV
     19355**DCL     19355--REDEF   19355--REDEF
OPNMYDCB.V.RES# IN PROCEDURE DILDEV
     19339**DCL     19709<<ASSIGN  19932<<ASSIGN
OPNMYDCB.V_ IN PROCEDURE DILDEV
     19315**DCL     19710<<ASSIGN  19926<<ASSIGN
OPNMYDCB.WSN_ IN PROCEDURE DILDEV
     19321**DCL     19321--REDEF
OPT IN PROCEDURE DILDEV
     19217**DCL     19215--PROC    19678>>IF
OPT IN PROCEDURE DISPLDEV
     19141**DCL     19150<<ASSIGN  19155<<ASSIGN  19160<<ASSIGN  19174<>CALL    19182<<ASSIGN  19191<<ASSIGN
     19195<<ASSIGN  19204<>CALL
OPT IN PROCEDURE FIND_ALL_LDEVS
     19991**DCL     19988--PROC    19998<>CALL    20030>>ASSIGN
OPTION IN PROCEDURE DISP_OPT_TEXT
     19002**DCL     19001--PROC    19015>>IF
OPTLEN IN PROCEDURE DILDEV
     19218**DCL     19215--PROC    19678>>IF      19678>>IF
OPTLEN IN PROCEDURE DISPLDEV
     19142**DCL     19151<<ASSIGN  19156<<ASSIGN  19161<<ASSIGN  19174<>CALL    19183<<ASSIGN  19192<<ASSIGN
     19196<<ASSIGN  19204<>CALL
OPTLEN IN PROCEDURE FIND_ALL_LDEVS
     19992**DCL     19988--PROC    19998<>CALL    20021>>IF      20029>>ASSIGN  20031>>IF
OPTN IN PROCEDURE DISP_OPT_YESNO
     18937**DCL     18935--PROC    18951>>IF
OPT_TBL.HDR
     14387**DCL     18954>>ASSIGN  19018>>ASSIGN
OPT_TBL.LEN
     14384**DCL     18955>>ASSIGN  19019>>ASSIGN
OPT_TBL.OPTION
     14397**DCL     18951>>IF      19015>>IF
OPT_TBLSZE
     14382**DCL     18950>>DOINDEX 18958>>ASSIGN  19014>>DOINDEX 19022>>ASSIGN
PL6.E3A0      #001=CPE$IBEX2 File=CPE$IBEX2.:E05TSI                              TUE 07/29/97 11:35 Page:609
OSZE IN PROCEDURE DISP_OPT_TEXT
     19003**DCL     19001--PROC    19004--IMP-SIZ 19009>>IF      19027>>ASSIGN  19028>>CALLBLT
OTEXT$ IN PROCEDURE DISP_OPT_TEXT
     19005**DCL     19001--PROC    19009>>IF      19027>>ASSIGN  19028>>CALLBLT
OUTBUFF
     14345**DCL     17356--ASSIGN  17358<<ASSIGN  17361--ASSIGN  17433--ASSIGN  17435<<ASSIGN  17659<<ASSIGN
     17661--ASSIGN  18609<<ASSIGN  18611--ASSIGN  18636<<ASSIGN  18711<<ASSIGN  18712--ASSIGN  18840--ASSIGN
     18842<<ASSIGN  19053--ASSIGN  19055<<ASSIGN  19110--ASSIGN  19112<<ASSIGN  19145--ASSIGN  19171<<ASSIGN
     19200<<ASSIGN  19728<<ASSIGN  19814<<ASSIGN  19999>>IF      20007<<ASSIGN  20010>>IF      20018<<ASSIGN
     20209<<ASSIGN  20211--ASSIGN  20221--ASSIGN  20223<<ASSIGN  20285>>IF      20297<<ASSIGN  20413--ASSIGN
     20416<<ASSIGN  20452--ASSIGN
OUTBUFF$
     14343**DCL     17356<<ASSIGN  17357>>ASSIGN  17362<>CALL    17366<>CALL    17370<>CALL    17376<>CALL
     17433<<ASSIGN  17434>>ASSIGN  17440<>CALL    17442>>ASSIGN  17443>>ASSIGN  17662<<ASSIGN  17665<>CALL
     17668<>CALL    17671<>CALL    17698<>CALL    17708<>CALL    17720<>CALL    17727<>CALL    17739<>CALL
     17746<>CALL    17758<>CALL    17765<>CALL    17843<>CALL    17850<>CALL    17859<>CALL    17866<>CALL
     17878<>CALL    17899<>CALL    17914<>CALL    17921<>CALL    17926<>CALL    17933<>CALL    17977<>CALL
     17984<>CALL    17986<>CALL    17992<>CALL    17997<>CALL    18004<>CALL    18025<>CALL    18063<>CALL
     18080<>CALL    18093<>CALL    18096<>CALL    18098<>CALL    18101<>CALL    18159<>CALL    18168<>CALL
     18171<>CALL    18179<>CALL    18212<>CALL    18215<>CALL    18218<>CALL    18226<>CALL    18237<>CALL
     18245<>CALL    18253<>CALL    18255<>CALL    18313<>CALL    18316<>CALL    18332<>CALL    18340<>CALL
     18350<>CALL    18362<>CALL    18476<>CALL    18492<>CALL    18514<>CALL    18538<>CALL    18546>>IF
     18549>>ASSIGN  18550>>ASSIGN  18611<<ASSIGN  18612>>ASSIGN  18635>>ASSIGN  18641<>CALL    18648<>CALL
     18660<>CALL    18667<>CALL    18671<>CALL    18678>>ASSIGN  18682>>ASSIGN  18713<<ASSIGN  18715>>ASSIGN
     18717<>CALL    18719<>CALL    18721<>CALL    18724<>CALL    18727<>CALL    18730<>CALL    18742<>CALL
     18743>>ASSIGN  18744>>ASSIGN  18747>>ASSIGN  18755<>CALL    18763<>CALL    18766<>CALL    18801>>ASSIGN
     18840<<ASSIGN  18841>>ASSIGN  18846<>CALL    18848>>ASSIGN  18849>>ASSIGN  18874<>CALL    18878<>CALL
     18911<>CALL    18949<>CALL    18956<>CALL    18981<>CALL    19013<>CALL    19020<>CALL    19026<>CALL
     19029<>CALL    19053<<ASSIGN  19054>>ASSIGN  19062<>CALL    19070<>CALL    19077<>CALL    19080<>CALL
     19088<>CALL    19089>>ASSIGN  19090>>ASSIGN  19110<<ASSIGN  19111>>ASSIGN  19115<>CALL    19116>>ASSIGN
     19117>>ASSIGN  19145<<ASSIGN  19173>>ASSIGN  19729>>ASSIGN  19740<>CALL    19747<>CALL    19778<>CALL
     19782<>CALL    19815>>ASSIGN  19821<>CALL    19826<>CALL    19836<>CALL    19870<>CALL    19887<>CALL
     19945<>CALL    19947>>IF      19951<>CALL    19976<>CALL    20001>>ASSIGN  20002>>ASSIGN  20012>>ASSIGN
     20013>>ASSIGN  20221<<ASSIGN  20222>>ASSIGN  20225>>ASSIGN  20229<>CALL    20237<>CALL    20243<>CALL
     20249<>CALL    20257<>CALL    20264<>CALL    20270<>CALL    20276<>CALL    20282<>CALL    20288>>ASSIGN
     20289>>ASSIGN  20299>>ASSIGN  20301>>ASSIGN  20305<>CALL    20312<>CALL    20323<>CALL    20334<>CALL
PL6.E3A0      #001=CPE$IBEX2 File=CPE$IBEX2.:E05TSI                              TUE 07/29/97 11:35 Page:610
     20345<>CALL    20356<>CALL    20364>>ASSIGN  20369>>ASSIGN
OUTBUFF2 IN PROCEDURE DISPNOTIFY
     20192**DCL     20293<<ASSIGN  20294--ASSIGN
OUTBUFF2$ IN PROCEDURE DISPNOTIFY
     20193**DCL     20294<<ASSIGN  20295>>ASSIGN  20307<>CALL    20317<>CALL    20328<>CALL    20339<>CALL
     20350<>CALL    20361<>CALL    20374>>ASSIGN  20379>>ASSIGN
P$B.CODE
     15637**DCL     16701>>DOCASE  16901>>DOCASE  16971>>DOCASE  17219>>DOCASE  17351>>IF      19146>>DOCASE
     19179>>DOCASE  19188>>DOCASE
P$B.NSUBLKS
     15641**DCL     16603>>IF      16688>>IF      16696>>DOWHILE 16898>>DOWHILE 16960>>IF      16968>>DOWHILE
     17035>>IF      17045>>IF      17059>>IF      17141>>IF      17215>>IF      17217>>DOWHILE 19167>>IF
     19178>>DOINDEX 19186>>DOINDEX
P$B.SUBLK$
     15662**DCL     16616>>ASSIGN  16617>>ASSIGN  16617>>ASSIGN  16697>>ASSIGN  16738>>ASSIGN  16899>>ASSIGN
     16969>>ASSIGN  17045>>IF      17047>>ASSIGN  17047>>ASSIGN  17047>>ASSIGN  17047>>ASSIGN  17049>>CALLBLT
     17049>>CALLBLT 17049>>CALLBLT 17049>>CALLBLT 17049>>CALLBLT 17049>>CALLBLT 17049>>CALLBLT 17049>>CALLBLT
     17059>>IF      17059>>IF      17059>>IF      17059>>IF      17059>>IF      17157>>ASSIGN  17158>>ASSIGN
     17158>>ASSIGN  17218>>ASSIGN  19179>>DOCASE  19186>>DOINDEX 19187>>ASSIGN  19187>>ASSIGN
P$PCB
     15725**DCL        16--PROC    16596--ENTRY   16678--ENTRY   16715<>CALL    16716<>CALL    16717<>CALL
     16719<>CALL    16721<>CALL    16722<>CALL    16723<>CALL    16724<>CALL    16725<>CALL    16726<>CALL
     16727<>CALL    16728<>CALL    16758<>CALL    16761<>CALL    16764<>CALL    16769<>CALL    16772<>CALL
     16777<>CALL    16780<>CALL    16783<>CALL    16786<>CALL    16793<>CALL    16795<>CALL    16798<>CALL
     16801<>CALL    16804<>CALL    16807<>CALL    16809<>CALL    16892--ENTRY   17011--ENTRY   17030--ENTRY
     17095--ENTRY   17134--ENTRY   17200--ENTRY   17288--ENTRY   17301--ENTRY   17314--ENTRY   17335--ENTRY
     17351--IF      18811<>CALL
P$PCB.OUT$
     15738**DCL     16599>>ASSIGN  16681>>ASSIGN  16714<<ASSIGN  16757<<ASSIGN  16760<<ASSIGN  16763<<ASSIGN
     16768<<ASSIGN  16771<<ASSIGN  16776<<ASSIGN  16779<<ASSIGN  16782<<ASSIGN  16785<<ASSIGN  16792<<ASSIGN
     16797<<ASSIGN  16800<<ASSIGN  16803<<ASSIGN  16806<<ASSIGN  16895>>ASSIGN  17034>>ASSIGN  17137>>ASSIGN
     17203>>ASSIGN  17351>>IF      18810<<ASSIGN
P$S.COUNT
     15698**DCL     15701--IMP-SIZ 17047>>ASSIGN  17049>>CALLBLT 17049>>CALLBLT 17059>>IF      17221>>ASSIGN
     17223>>ASSIGN  19191>>ASSIGN  19195>>ASSIGN
P$S.CPOS
PL6.E3A0      #001=CPE$IBEX2 File=CPE$IBEX2.:E05TSI                              TUE 07/29/97 11:35 Page:611
     15690**DCL     16833>>ASSIGN
P$S.TEXT
     15701**DCL     17047>>ASSIGN  17049>>CALLBLT 17049>>CALLBLT 17059>>IF      17221>>ASSIGN  17223>>ASSIGN
     19191>>ASSIGN  19195>>ASSIGN
PASSWORD50
     17250**LABEL   17207--CALLALT 17243--CALLALT
PASSWORD60
     17250**LABEL   17238--GOTO
PASSWORD68
     17268**LABEL   17268--GOTO
PASSWORD70
     17274**LABEL   17251--CALLALT 17275--CALLALT
PMSN$ IN PROCEDURE DISP_PMSN
     18896**DCL     18895--PROC    18904>>ASSIGN
PMSN50 IN PROCEDURE DISP_PMSN
     18913**LABEL   18911--CALLALT
PUT_FLAG IN PROCEDURE DILDEV
     19964**PROC    19846--CALL    19848--CALL    19850--CALL    19852--CALL    19854--CALL
RES
     14352**DCL     18529--ASSIGN  18530<<ASSIGN
RES#
     14330**DCL     17047<<ASSIGN  17049<<CALLBLT 17051<>CALL    17054>>ASSIGN
RES# IN PROCEDURE FIND_OR_CREATE_STREAM
     20493**DCL     20475--PROC    20494--REDEF   20750>>IF      20750>>IF      20771>>IF      20790>>ASSIGN
RES#_R.NUM IN PROCEDURE FIND_OR_CREATE_STREAM
     20496**DCL     20736>>IF
SEG$2.ACCUM_CHG
     15004**DCL     19063>>CALLBLT 19081>>CALLBLT
SEG$2.CPBUFF$
     14999**DCL     20446>>CALL    20455>>ASSIGN
SEG$2.ERRBUF
     14980**DCL     16628--CALL    16819--IF      16834--CALL    17165--CALL    17267--CALL    17547--CALL
SEG$2.FPT_WRITE$
     14995**DCL     16682>>ASSIGN  16683>>ASSIGN  16683>>ASSIGN  17348>>ASSIGN  17349>>ASSIGN  17349>>ASSIGN
     17350>>ASSIGN  17361>>ASSIGN  17380<>CALL    17418>>ASSIGN  17419<>CALL    17427>>ASSIGN  17428<>CALL
     17442>>ASSIGN  17443>>ASSIGN  17444<>CALL    17515>>ASSIGN  17516<>CALL    17541>>ASSIGN  17542<>CALL
PL6.E3A0      #001=CPE$IBEX2 File=CPE$IBEX2.:E05TSI                              TUE 07/29/97 11:35 Page:612
     18549>>ASSIGN  18550>>ASSIGN  18551<>CALL    18603>>ASSIGN  18604<>CALL    18682>>ASSIGN  18683>>ASSIGN
     18684<>CALL    18715>>ASSIGN  18743>>ASSIGN  18744>>ASSIGN  18745<>CALL    18801>>ASSIGN  18802<>CALL
     18848>>ASSIGN  18849>>ASSIGN  18850<>CALL    19089>>ASSIGN  19090>>ASSIGN  19091<>CALL    19116>>ASSIGN
     19117>>ASSIGN  19118<>CALL    19718>>ASSIGN  19719<>CALL    19804>>ASSIGN  19805<>CALL    20001>>ASSIGN
     20002>>ASSIGN  20003<>CALL    20012>>ASSIGN  20013>>ASSIGN  20014<>CALL    20024>>ASSIGN  20025<>CALL
     20210>>ASSIGN  20211>>ASSIGN  20212<>CALL    20224>>ASSIGN  20225>>ASSIGN  20226<>CALL    20288>>ASSIGN
     20289>>ASSIGN  20290<>CALL    20298>>ASSIGN  20299>>ASSIGN  20300<>CALL    20368>>ASSIGN  20369>>ASSIGN
     20370<>CALL    20378>>ASSIGN  20379>>ASSIGN  20380<>CALL
SEG$2.HLP$
     14985**DCL     17235>>IF      17242>>ASSIGN
SEG$2.LLDCB#
     14975**DCL     17039>>ASSIGN  20449--ASSIGN
SEG$2.WHEN_CNTL_REC$
     15003**DCL     16936>>ASSIGN  16936>>ASSIGN  16938>>ASSIGN  16938>>ASSIGN  20427>>IF      20427>>IF
     20427>>IF      20427>>IF      20442>>ASSIGN
SEG2$
     11092**DCL     14955--IMP-PTR 16628>>CALL    16682>>ASSIGN  16683>>ASSIGN  16683>>ASSIGN  16819>>IF
     16834>>CALL    16936>>ASSIGN  16936>>ASSIGN  16938>>ASSIGN  16938>>ASSIGN  17039>>ASSIGN  17165>>CALL
     17235>>IF      17242>>ASSIGN  17267>>CALL    17348>>ASSIGN  17349>>ASSIGN  17349>>ASSIGN  17350>>ASSIGN
     17361>>ASSIGN  17380>>CALL    17418>>ASSIGN  17419>>CALL    17427>>ASSIGN  17428>>CALL    17442>>ASSIGN
     17443>>ASSIGN  17444>>CALL    17515>>ASSIGN  17516>>CALL    17541>>ASSIGN  17542>>CALL    17547>>CALL
     18549>>ASSIGN  18550>>ASSIGN  18551>>CALL    18603>>ASSIGN  18604>>CALL    18682>>ASSIGN  18683>>ASSIGN
     18684>>CALL    18715>>ASSIGN  18743>>ASSIGN  18744>>ASSIGN  18745>>CALL    18801>>ASSIGN  18802>>CALL
     18848>>ASSIGN  18849>>ASSIGN  18850>>CALL    19063>>CALLBLT 19081>>CALLBLT 19089>>ASSIGN  19090>>ASSIGN
     19091>>CALL    19116>>ASSIGN  19117>>ASSIGN  19118>>CALL    19718>>ASSIGN  19719>>CALL    19804>>ASSIGN
     19805>>CALL    20001>>ASSIGN  20002>>ASSIGN  20003>>CALL    20012>>ASSIGN  20013>>ASSIGN  20014>>CALL
     20024>>ASSIGN  20025>>CALL    20210>>ASSIGN  20211>>ASSIGN  20212>>CALL    20224>>ASSIGN  20225>>ASSIGN
     20226>>CALL    20288>>ASSIGN  20289>>ASSIGN  20290>>CALL    20298>>ASSIGN  20299>>ASSIGN  20300>>CALL
     20368>>ASSIGN  20369>>ASSIGN  20370>>CALL    20378>>ASSIGN  20379>>ASSIGN  20380>>CALL    20427>>IF
     20427>>IF      20427>>IF      20427>>IF      20442>>ASSIGN  20446>>CALL    20449>>ASSIGN  20455>>ASSIGN
SEG3$
     11093**DCL     16160--IMP-PTR 16755<>CALL    16839<>CALL    17473<>CALL    17498>>ASSIGN  17533<>CALL
     17565<>CALL    17678>>IF      17680>>ASSIGN  17681>>IF      17683>>ASSIGN  17684>>IF      17687>>ASSIGN
     17688>>ASSIGN  17690>>IF      17692>>ASSIGN  17693>>ASSIGN  17694>>ASSIGN  17700>>IF      17702>>CALL
     17704>>IF      17709>>DOCASE  17723>>IF      17728>>DOCASE  17742>>IF      17747>>DOCASE  17761>>IF
     17766>>DOCASE  17846>>IF      17851>>DOCASE  17862>>IF      17867>>DOCASE  17881>>IF      17884>>ASSIGN
PL6.E3A0      #001=CPE$IBEX2 File=CPE$IBEX2.:E05TSI                              TUE 07/29/97 11:35 Page:613
     17888>>IF      17891>>ASSIGN  17895>>IF      17900>>DOCASE  17917>>IF      17922>>IF      17931>>CALLBLT
     17937>>IF      17940>>ASSIGN  17944>>IF      17947>>ASSIGN  17951>>IF      17954>>ASSIGN  17958>>IF
     17961>>ASSIGN  17965>>IF      17968>>ASSIGN  17972>>IF      17974>>DOCASE  17978>>ASSIGN  17979>>ASSIGN
     17995>>CALL    17999>>ASSIGN  18085>>IF      18088>>ASSIGN  18089>>ASSIGN  18106>>CALL    18107>>CALL
     18109>>CALL    18110>>IF      18113>>CALL    18115>>CALL    18119>>IF      18122>>ASSIGN  18126>>IF
     18129>>ASSIGN  18134>>IF      18137>>ASSIGN  18142>>IF      18146>>IF      18149>>ASSIGN  18155>>IF
     18163>>IF      18166>>CALLBLT 18182>>CALL    18184>>IF      18187>>IF      18190>>ASSIGN  18194>>IF
     18197>>ASSIGN  18201>>IF      18204>>ASSIGN  18208>>IF      18214>>ASSIGN  18215>>CALL    18221>>IF
     18230>>CALL    18232>>IF      18235>>CALLBLT 18240>>IF      18243>>CALLBLT 18248>>IF      18251>>CALLBLT
     18259>>IF      18262>>ASSIGN  18267>>IF      18270>>ASSIGN  18273>>IF      18276>>ASSIGN  18280>>CALL
     18282>>IF      18285>>ASSIGN  18289>>CALL    18290>>CALL    18292>>IF      18295>>ASSIGN  18301>>IF
     18304>>CALL    18305>>ASSIGN  18308>>IF      18311>>CALLBLT 18322>>IF      18327>>IF      18346>>IF
     18351>>DOCASE  18364>>CALL    18365>>IF      18367>>CALL    18368>>CALL    18369>>CALL    18370>>CALL
     18371>>CALL    18372>>IF      18374>>CALL    18376>>IF      18379>>ASSIGN  18384>>IF      18387>>ASSIGN
     18394>>IF      18396>>DOCASE  18398>>CALL    18400>>CALL    18402>>CALL    18404>>CALL    18406>>CALL
     18408>>CALL    18410>>ASSIGN  18415>>CALL    18417>>CALL    18419>>CALL    18419>>CALL    18422>>CALL
     18422>>CALL    18425>>CALL    18425>>CALL    18428>>CALL    18430>>CALL    18432>>CALL    18432>>CALL
     18435>>CALL    18435>>CALL    18438>>CALL    18445>>CALL    18447>>ASSIGN  18452>>ASSIGN  18457>>CALL
     18459>>ASSIGN  18464>>DOCASE  18477>>ASSIGN  18486>>IF      18488>>DOCASE  18493>>DOINDEX 18494>>ASSIGN
     18496>>ASSIGN  18498>>IF      18505>>IF      18519>>ASSIGN  18520>>ASSIGN  18521>>ASSIGN  18522>>IF
     18527>>ASSIGN  18540>>CALL    18541>>CALL    18542>>IF      18544>>CALL    18773<>CALL    18780>>ASSIGN
     18782>>ASSIGN  18787>>ASSIGN  18797<>CALL
SETUP_TCTL_DCB IN PROCEDURE DILDEV
     19897**PROC    19799--CALL
SET_FLG IN PROCEDURE DISPFLGS
     18598**DCL     18632<<ASSIGN  18637>>IF      18653>>IF      18686<<ASSIGN
SIZ IN PROCEDURE DISPLAY_NORMAL_LDEV
     19702**DCL     19731<<ASSIGN  19736<<ASSIGN  19740<>CALL
SRCHTBL
     15621**DCL     19745>>CALLBLT 20235>>CALLBLT 20248>>CALLBLT 20256>>CALLBLT
STARA
     11121**DCL     17484--ASSIGN
STAR_S_IS_OPEN
     14337**DCL     16934<>CALL    16940<>CALL    20425<>CALL    20433>>IF      20443>>IF
STEPCC IN PROCEDURE DISPSTEPCC
     18837**DCL     18844<<CALLBLT 18845<>CALL    18845--CALL    18846--CALL
PL6.E3A0      #001=CPE$IBEX2 File=CPE$IBEX2.:E05TSI                              TUE 07/29/97 11:35 Page:614
STREAM IN PROCEDURE DILDEV
     19238**DCL     19684<<ASSIGN  19915>>IF      19932>>ASSIGN
STREAM_OPEN
     14329**DCL     17041<<ASSIGN  17051<>CALL    17069>>IF
SYSID
     14373**DCL     17368<<CALLBLT 17369<>CALL    17369--CALL    17370--CALL    18725<<CALLBLT 18726<>CALL
     18726--CALL    18727--CALL
TAB2_VAL IN PROCEDURE DISPFLGS
     18601**DCL     18643<<ASSIGN  18650<<ASSIGN  18660<>CALL    18667<>CALL    18679>>IF
TAB_VAL
     14355**DCL     16752<<ASSIGN  16753<>CALL    17359<<ASSIGN  17362<>CALL    17366<>CALL    17370<>CALL
     17376<>CALL    17436<<ASSIGN  17518<<ASSIGN  17519<>CALL    18613<<ASSIGN  18641<>CALL    18643>>ASSIGN
     18648<>CALL    18650>>ASSIGN  18714<<ASSIGN  18717<>CALL    18755<>CALL    18874<>CALL    18878<>CALL
     18911<>CALL    18949<>CALL    18956<>CALL    18981<>CALL    19013<>CALL    19020<>CALL    19026<>CALL
     19029<>CALL    19062<>CALL    19077<>CALL    19080<>CALL    19730<<ASSIGN  19731>>ASSIGN  19735<<ASSIGN
     19778<>CALL    19782<>CALL    19816<<ASSIGN  19819<<ASSIGN  19870<>CALL    19887<>CALL    19945<>CALL
     19947>>IF      19951<>CALL    19976<>CALL    20303<<ASSIGN  20305<>CALL    20307<>CALL    20365>>IF
     20375>>IF
TAB_VAL IN PROCEDURE DISPDCB
     17586**DCL     17583--PROC    17665<>CALL    17708<>CALL    17720<>CALL    17727<>CALL    17739<>CALL
     17746<>CALL    17758<>CALL    17765<>CALL    17843<>CALL    17850<>CALL    17859<>CALL    17866<>CALL
     17878<>CALL    17899<>CALL    17914<>CALL    17921<>CALL    17926<>CALL    17933<>CALL    17977<>CALL
     17984<>CALL    17986<>CALL    17992<>CALL    17997<>CALL    18004<>CALL    18025<>CALL    18063<>CALL
     18080<>CALL    18093<>CALL    18096<>CALL    18098<>CALL    18101<>CALL    18159<>CALL    18168<>CALL
     18171<>CALL    18179<>CALL    18212<>CALL    18215<>CALL    18218<>CALL    18226<>CALL    18237<>CALL
     18245<>CALL    18253<>CALL    18255<>CALL    18313<>CALL    18316<>CALL    18332<>CALL    18340<>CALL
     18350<>CALL    18362<>CALL    18476<>CALL    18492<>CALL    18514<>CALL    18538<>CALL    18546>>IF
TBUFF IN PROCEDURE CNVRT_BLD
     18873**DCL     18876<<CALLBLT 18877<>CALL    18877--CALL    18878--CALL
TBUFF IN PROCEDURE DISPDCB
     17584**DCL     17931<<CALLBLT 17932<>CALL    17932--CALL    17933--CALL    18166<<CALLBLT 18167<>CALL
     18167--CALL    18168--CALL
TEMP
     14322**DCL     14323--REDEF   18731<<ASSIGN  18735>>DOUNTIL 18738<<ASSIGN  20235<<CALLBLT 20248<<CALLBLT
     20256<<CALLBLT 20448<<ASSIGN
TEMP IN PROCEDURE DILDEV
PL6.E3A0      #001=CPE$IBEX2 File=CPE$IBEX2.:E05TSI                              TUE 07/29/97 11:35 Page:615
     19236**DCL     19745<<CALLBLT 19832<>CALL    19834>>CALLBLT 19836>>CALL
TEMP$
     14319**DCL     16697<<ASSIGN  16701>>DOCASE  16714>>ASSIGN  16738>>ASSIGN  16757>>ASSIGN  16760>>ASSIGN
     16763>>ASSIGN  16768>>ASSIGN  16771>>ASSIGN  16776>>ASSIGN  16779>>ASSIGN  16782>>ASSIGN  16785>>ASSIGN
     16792>>ASSIGN  16797>>ASSIGN  16800>>ASSIGN  16803>>ASSIGN  16806>>ASSIGN  16833>>ASSIGN  16899<<ASSIGN
     16901>>DOCASE  16960>>IF      16968>>DOWHILE 16969>>ASSIGN  17218<<ASSIGN  17219>>DOCASE  17221>>ASSIGN
     17221>>ASSIGN  17223>>ASSIGN  17223>>ASSIGN  18810>>ASSIGN  19146>>DOCASE  19167>>IF      19178>>DOINDEX
     19179>>DOCASE  19186>>DOINDEX 19187>>ASSIGN
TEMP1$
     14320**DCL     16969<<ASSIGN  16971>>DOCASE  17979<<ASSIGN  17982>>ASSIGN  17983>>ASSIGN  17983>>ASSIGN
     17987>>ASSIGN  17988<<ASSIGN  17988>>ASSIGN  17988>>ASSIGN  17999<<ASSIGN  18000>>IF      18002>>CALLBLT
     18007>>DOCASE  18027>>ASSIGN  18032>>ASSIGN  18037>>ASSIGN  18042>>ASSIGN  18047>>CALL    18049>>CALL
     18051>>CALL    18053>>ASSIGN  18058>>IF      18060>>CALLBLT 18066>>CALL    18068>>CALL    18070>>ASSIGN
     18075>>IF      18077>>CALLBLT 18089<<ASSIGN  18094>>ASSIGN  18099<>CALL    18103<<ASSIGN  18103>>ASSIGN
     18787<<ASSIGN  18788<>CALL    18792>>ASSIGN  18792>>ASSIGN
TEMP2$ IN PROCEDURE DISPLDEV
     19140**DCL     19187<<ASSIGN  19188>>DOCASE  19191>>ASSIGN  19191>>ASSIGN  19195>>ASSIGN  19195>>ASSIGN
TEMPO.LSD
     14325**DCL     18737>>CALLBLT
TEMPO.REST
     14324**DCL     18738>>ASSIGN
TEXT IN PROCEDURE PUT_FLAG
     19967**DCL     19964--PROC    19975>>ASSIGN
TEXTC.SIZ
     14927**DCL     14928--IMP-SIZ 17667>>ASSIGN
TEXTC.TEXT
     14928**DCL     17668--CALL
TIME50
     17380**LABEL   17362--CALLALT 17366--CALLALT 17370--CALLALT 17376--CALLALT 17380--CALLALT
TMDATE
     14363**DCL     14372--REDEF   17350--ASSIGN
TMDATE.DATE
     14365**DCL     17340--ASSIGN
TMDATE.TIME
     14367**DCL     17341--ASSIGN
TMDATE.TIME.MSEC
PL6.E3A0      #001=CPE$IBEX2 File=CPE$IBEX2.:E05TSI                              TUE 07/29/97 11:35 Page:616
     14371**DCL     17344<<ASSIGN
TMDATE.TIME.SEC
     14370**DCL     17343<<ASSIGN
TMDATEBUFF
     14372**DCL     17337<<ASSIGN  17355--ASSIGN  17362--CALL
TVAL
     14321**DCL     17884<<ASSIGN  17885<>CALL    17891<<ASSIGN  17892<>CALL    17940<<ASSIGN  17941<>CALL
     17947<<ASSIGN  17948<>CALL    17954<<ASSIGN  17955<>CALL    17961<<ASSIGN  17962<>CALL    17968<<ASSIGN
     17969<>CALL    17978<<ASSIGN  17981>>DOWHILE 17987<<ASSIGN  17987>>ASSIGN  18027<<ASSIGN  18028>>IF
     18030<>CALL    18032<<ASSIGN  18033>>IF      18035<>CALL    18037<<ASSIGN  18038>>IF      18040<>CALL
     18042<<ASSIGN  18043>>IF      18045<>CALL    18053<<ASSIGN  18054>>IF      18056<>CALL    18070<<ASSIGN
     18071>>IF      18073<>CALL    18088<<ASSIGN  18091>>DOWHILE 18102<<ASSIGN  18102>>ASSIGN  18122<<ASSIGN
     18123<>CALL    18129<<ASSIGN  18130<>CALL    18137<<ASSIGN  18138<>CALL    18149<<ASSIGN  18150<>CALL
     18162<<DOINDEX 18163>>IF      18166>>CALLBLT 18175<<ASSIGN  18190<<ASSIGN  18191<>CALL    18197<<ASSIGN
     18198<>CALL    18204<<ASSIGN  18205<>CALL    18262<<ASSIGN  18263<>CALL    18270<<ASSIGN  18271<>CALL
     18276<<ASSIGN  18277<>CALL    18285<<ASSIGN  18286<>CALL    18295<<ASSIGN  18296<>CALL    18305<<ASSIGN
     18306<>CALL    18321<<DOINDEX 18322>>IF      18325<>CALL    18327>>IF      18379<<ASSIGN  18380<>CALL
     18387<<ASSIGN  18388<>CALL    18410<<ASSIGN  18411>>IF      18413<>CALL    18447<<ASSIGN  18448>>IF
     18450<>CALL    18452<<ASSIGN  18453>>IF      18455<>CALL    18459<<ASSIGN  18460>>IF      18462<>CALL
     18477<<ASSIGN  18478>>IF      18480<>CALL    18494<<ASSIGN  18495<>CALL    18496<<ASSIGN  18497<>CALL
     18733<<ASSIGN  18736<<ASSIGN  18736>>ASSIGN  18737>>CALLBLT 18783<<ASSIGN  18792<<ASSIGN  18793>>IF
     18795<<ASSIGN  18798>>IF      18799<<ASSIGN  18800<>CALL    20449<<ASSIGN  20450>>IF      20452>>ASSIGN
UC_FLG IN PROCEDURE DILDEV
     19237**DCL     19675<<ASSIGN  19677<<ASSIGN  19681>>IF
UNFID
     14350**DCL     18534--ASSIGN  18536>>CALLBLT
USRNUM IN PROCEDURE DISPUSER
     18708**DCL     18734<<ASSIGN  18737<<CALLBLT 18741<<ASSIGN  18741>>ASSIGN  18742--CALL
VARY$STRNG
     14358**DCL     17688--ASSIGN  18780--ASSIGN  18782<<ASSIGN
VARY$STRNG IN PROCEDURE DISP_OPT_TEXT
     19004**DCL     19009>>IF      19027>>ASSIGN  19028>>CALLBLT
VLP$ACCESS.ACCT# IN PROCEDURE DISPDCB
     17595**DCL     18094>>ASSIGN
VLP$ACSVEH.C IN PROCEDURE DISPDCB
     17591**DCL     17592--IMP-SIZ 17982>>ASSIGN  17983>>ASSIGN  17987>>ASSIGN  17988>>ASSIGN
PL6.E3A0      #001=CPE$IBEX2 File=CPE$IBEX2.:E05TSI                              TUE 07/29/97 11:35 Page:617
VLP$ACSVEH.VEHICLE# IN PROCEDURE DISPDCB
     17592**DCL     17983>>ASSIGN
VLP$ATTR.SIZE# IN PROCEDURE DISPDCB
     17588**DCL     17978>>ASSIGN  18088>>ASSIGN
VLP$HDR.CTL.COUNT# IN PROCEDURE DILDEV
     19663**DCL     19769>>ASSIGN
VLP$HDR.TITL.L# IN PROCEDURE DILDEV
     19663**DCL     19664--IMP-SIZ 19773>>ASSIGN  19780>>CALLBLT
VLP$HDR.TITL.TITLE# IN PROCEDURE DILDEV
     19664**DCL     19780>>CALLBLT
VLP_SN
     16384**DCL     18528--ASSIGN  20230<<ASSIGN
VLP_SN.NUM#
     16384**DCL     18526<<ASSIGN
VLP_SN.SN#
     16384**DCL     18527<<ASSIGN  20231>>IF      20234>>CALLBLT 20235>>CALLBLT
VLP_WINDOW IN PROCEDURE DILDEV
     19624**DCL     19797--ASSIGN
VLP_WINDOW.BTMBRDR# IN PROCEDURE DILDEV
     19640**DCL     19848<>CALL
VLP_WINDOW.FWINDOW# IN PROCEDURE DILDEV
     19624**DCL     19624--REDEF   19625--REDEF
VLP_WINDOW.HBRDRCHR# IN PROCEDURE DILDEV
     19641**DCL     19863>>ASSIGN  19869>>CALLBLT
VLP_WINDOW.HBRDRSIZ# IN PROCEDURE DILDEV
     19641**DCL     19856>>IF      19859>>ASSIGN
VLP_WINDOW.LENGTH# IN PROCEDURE DILDEV
     19638**DCL     19838>>ASSIGN
VLP_WINDOW.LFTBRDR# IN PROCEDURE DILDEV
     19642**DCL     19850<>CALL
VLP_WINDOW.MINLENGTH# IN PROCEDURE DILDEV
     19643**DCL     19844>>ASSIGN
VLP_WINDOW.MINWIDTH# IN PROCEDURE DILDEV
     19644**DCL     19842>>ASSIGN
VLP_WINDOW.ORG_PST.COLUMN IN PROCEDURE DILDEV
     19639**DCL     19830>>ASSIGN
PL6.E3A0      #001=CPE$IBEX2 File=CPE$IBEX2.:E05TSI                              TUE 07/29/97 11:35 Page:618
VLP_WINDOW.ORG_PST.LINE IN PROCEDURE DILDEV
     19639**DCL     19827>>ASSIGN
VLP_WINDOW.REMOVABLE# IN PROCEDURE DILDEV
     19645**DCL     19854<>CALL
VLP_WINDOW.RHTBRDR# IN PROCEDURE DILDEV
     19642**DCL     19852<>CALL
VLP_WINDOW.TOPBRDR# IN PROCEDURE DILDEV
     19640**DCL     19846<>CALL
VLP_WINDOW.VBRDRCHR# IN PROCEDURE DILDEV
     19643**DCL     19880>>ASSIGN  19886>>CALLBLT
VLP_WINDOW.VBRDRSIZ# IN PROCEDURE DILDEV
     19642**DCL     19873>>IF      19876>>ASSIGN
VLP_WINDOW.WIDTH# IN PROCEDURE DILDEV
     19638**DCL     19840>>ASSIGN
WAIT_INT IN PROCEDURE DISPNOTIFY
     20196**DCL     20280<<CALLBLT 20281<>CALL    20281--CALL    20282--CALL
WHEN$CNTL_REC.CUR_LEV
     15946**DCL     16936>>ASSIGN  16938>>ASSIGN
WHEN$CNTL_REC.STATE_LEV
     15947**DCL     16936<<ASSIGN  20427>>IF      20427>>IF      20442>>ASSIGN
WHEN$CNTL_REC.WHEN.OPT
     15950**DCL     16938<<ASSIGN  20427>>IF      20427>>IF
WHEN_CNTL_REC_CHANGED
     14336**DCL     16934<>CALL    20425<>CALL
WHEN_NONE IN PROCEDURE DISPWHEN
     20462**LABEL   20437--GOTO
WINDOW_OPTS_ALT IN PROCEDURE DISPLAY_WINDOW_OPTS
     19894**LABEL   19799--CALLALT 19800--CALLALT 19805--CALLALT 19821--CALLALT 19826--CALLALT 19836--CALLALT
     19846--CALLALT 19848--CALLALT 19850--CALLALT 19852--CALLALT 19854--CALLALT 19870--CALLALT 19887--CALLALT
WINDOW_OPTS_RET IN PROCEDURE DISPLAY_WINDOW_OPTS
     19891**LABEL   19824--GOTO
X$FORMAT
     14693**DCL-ENT 20440--CALL    20465--CALL
XSF$LOCCODE
     14689**DCL-ENT 18788--CALL
