PL6.E3A0      #002=CPF$SET_PROMPT File=CPF$IBEX3.:E05TSI                         TUE 07/29/97 11:41 Page:241
     1257        1        /*M* Return a vector of the desired PROMPT type */
     1258        2        /*T***********************************************************/
     1259        3        /*T*                                                         */
     1260        4        /*T* Copyright (c) Bull HN Information Systems Inc., 1997    */
     1261        5        /*T*                                                         */
     1262        6        /*T***********************************************************/
     1263        7        /*X*  DMC,DFC   */
     1264        8        /*P*   NAME:   CPF$SET_PROMPT
     1265        9               PURPOSE: To set up the desired prompt in SEG$2.RPROMPT$
     1266       10               INPUT: PROMPT_TYPE - type of prompt to setup (PRMT_x)
     1267       11               OUTPUT: PROMPT_ - vector framing the prompt.
     1268       12               DESCRIPTION: CPF$SET_PROMPT will use the default prompt if
     1269       13                      the user hasn't specified one, else the user's is used.
     1270       14               REFERENCE: Programmers Reference Manual
     1271       15        */
     1272       16        /**********************************************************************/
     1273       17        CPF$SET_PROMPT: PROC (PROMPT_, PROMPT_TYPE);
     1274       18    1     DCL PROMPT_ VECTOR ALIGNED;
     1275       19    1     DCL PROMPT_TYPE SBIN;
     1276       20
     1277       21          %INCLUDE B$JIT;
     1278      311          %INCLUDE CP_6;
     1279      392          %INCLUDE CP_6_SUBS;
     1280      932          %INCLUDE XU_MACRO_C;
     1281     4038          %INCLUDE CP_MACROS_C;
     1282     4790          %INCLUDE CP_SUBS_C;
     1283     5707          %INCLUDE CP_DATA_R;
     1284     8270          %INCLUDE XUE_MACRO_C;
     1285     9014          %INCLUDE XUE_SUBS_C;
     1286     9194        /***** Constants *****/
     1287     9195    1     DCL XUE_PREEXP SBIN SYMREF READONLY;
     1288     9196        /***** Structures *****/
     1289     9197          %SEG$2;
     1290     9257          %XUE_PPCB (NAME=CXUE_PPCB, STCLASS=CONSTANT, WKSZ="SIZEW(WORK_AREA)",
     1291     9258                     FUN=CPG$FUN$$, PROCNAME=IBEX_NAME, ROOT=XUE_PREEXP);
     1292     9525          %XUE_PPCB (NAME=XUE_PPCB, STCLASS=AUTO);
     1293     9792          %CP_PROMPT (NAME=PROMPT, STCLASS=BASED);
PL6.E3A0      #002=CPF$SET_PROMPT File=CPF$IBEX3.:E05TSI                         TUE 07/29/97 11:41 Page:242
     1294     9812          %FPT_CLOSE (FPTN=FPT$CLOSE, STCLASS=BASED);
     1295     9854        /***** Auto ******/
     1296     9855    1     DCL WORK_AREA (0:1023) SBIN;
     1297     9856    1     DCL PROMPT# SBIN;
     1298     9857    1     DCL CPOS UBIN;
     1299     9858    1     DCL VALUE SBIN;
     1300     9859        /***** Entries *****/
     1301     9860    1     DCL CPC$WRITEMSGE ENTRY(6);
     1302     9861    1     DCL CXP$POSTERR ENTRY(5);
     1303     9862    1     DCL CPG$FUN$$ ENTRY(1);
     1304     9863    1     DCL CPC$OPEN_S ENTRY(1) ALTRET;
     1305     9864    1     DCL CPJ$READ_S ENTRY(3) ALTRET;
     1306     9865    1     DCL X$PRE_PROCESS ENTRY(1) ALTRET;
     1307     9866
     1308     9867    1     PROMPT# = PROMPT_TYPE;
     1309     9868    1     SEG$2.LASTPROMPT = PROMPT#;
     1310     9869    1     IF NOT (B$JIT.PROMPTS & PROMPT_MASK(PROMPT#))
     1311     9870    1       THEN
     1312     9871    1         GOTO SET_DEFAULT_PROMPT;
     1313     9872    1     IF  (PROMPT# ~= PRMT_R
     1314     9873    1     AND (B$JIT.MODE ~= %M_INT# OR B$JIT.NEXTCC ~= %CC_FROMUC#))
     1315     9874    2       THEN DO;
     1316     9875    2         PROMPT# = PRMT_N;
     1317     9876    2         GOTO SET_DEFAULT_PROMPT;
     1318     9877    2       END;
     1319     9878    1     IF SEG$2.SPROMPT$->PROMPT.TYPE_ ~= PROMPT#
     1320     9879    2       THEN DO;  /* we don't have the desired user prompt, get it */
     1321     9880    2         CALL CPC$OPEN_S (M$IBEX1_NUM) ALTRET (USE_DEFAULT_PROMPT);
     1322     9881    2         CALL CPJ$READ_S (M$IBEX1_NUM, PROMPT_KEYS (PROMPT#),
     1323     9882    2                          VECTOR (SEG$2.SPROMPT$->PROMPT))
     1324     9883    2                            ALTRET (USE_DEFAULT_PROMPT);
     1325     9884    2         SEG$2.FPT_CLOSE$->FPT$CLOSE.V.DCB# = M$IBEX1_NUM;
     1326     9885    2         SEG$2.FPT_CLOSE$->FPT$CLOSE.V.DISP# = %SAVE#;
     1327     9886    3         CALL M$CLOSE(SEG$2.FPT_CLOSE$->FPT$CLOSE) WHENALTRETURN DO; END;
     1328     9887    2       END;
     1329     9888    1     IF SEG$2.SPROMPT$->PROMPT.PPROCESS_
     1330     9889    2       THEN DO;  /* We need to reevaluate this one every time */
PL6.E3A0      #002=CPF$SET_PROMPT File=CPF$IBEX3.:E05TSI                         TUE 07/29/97 11:41 Page:243
     1331     9890    2         XUE_PPCB = CXUE_PPCB;
     1332     9891    2         XUE_PPCB.ECB.WORK$ = ADDR(WORK_AREA);
     1333     9892    2         XUE_PPCB.ECB.WORK_DCB# = M$IBEX1_NUM;
     1334     9893    2         XUE_PPCB.INBUF$ = ADDR (SEG$2.SPROMPT$->PROMPT.TEXT_);
     1335     9894    2         XUE_PPCB.ICHARS# = SEG$2.SPROMPT$->PROMPT.LEN_;
     1336     9895    2         XUE_PPCB.OUTBUF$ = ADDR (SEG$2.PROMPT$->PROMPT.TEXT_);
     1337     9896    2         XUE_PPCB.OCHARS# = LENGTHC (SEG$2.PROMPT$->PROMPT.TEXT_);
     1338     9897    2         SEG$2.FLAGS.USE_REMEM = '1'B;
     1339     9898    2         CALL X$PRE_PROCESS (XUE_PPCB)
     1340     9899    3           WHENALTRETURN DO;
     1341     9900    3             CPOS = XUE_PPCB.ECB.ERR_POS#;
     1342     9901    3             VALUE = XUE_PPCB.ECB.ERR_DCB#;
     1343     9902    3             CALL CXP$POSTERR (ADDR(SEG$2.ERRBUF),CPOS,XUE_PPCB.ECB.ERR,,VALUE);
     1344     9903    3             SEG$2.FLAGS.USE_REMEM = '0'B;
     1345     9904    3             GOTO KILL_NON_DEFAULT_PROMPT;
     1346     9905    3           END;
     1347     9906    2         SEG$2.FLAGS.USE_REMEM = '0'B;
     1348     9907    2         SEG$2.PROMPT$->PROMPT.VFC_ = SEG$2.SPROMPT$->PROMPT.VFC_;
     1349     9908    2         SEG$2.PROMPT$->PROMPT.LEN_ = XUE_PPCB.RCHARS#;
     1350     9909    2       END;
     1351     9910    2       ELSE DO;
     1352     9911    2         SEG$2.PROMPT$->PROMPT = SEG$2.SPROMPT$->PROMPT;
     1353     9912    2       END;
     1354     9913    1     IF SEG$2.PROMPT$->PROMPT.LEN_ > 94 /* max prompt length */ THEN GOTO
              9913              SET_DEFAULT_PROMPT;
     1355     9914    1     PROMPT_ = VECTOR (SUBSTR (SEG$2.PROMPT$->PROMPT.VFC_, 0,
     1356     9915    1                               SEG$2.PROMPT$->PROMPT.LEN_+1));
     1357     9916    1     RETURN;
     1358     9917
     1359     9918    1   USE_DEFAULT_PROMPT:  /* we couldn't get the user's prompt */
     1360     9919    1     CALL CPC$WRITEMSGE (B$JIT.USRERR, M$IBEX1_NUM);
     1361     9920    1     B$JIT.USRERR = '0'B;
     1362     9921    1   KILL_NON_DEFAULT_PROMPT:
     1363     9922    1     B$JIT.PROMPTS = B$JIT.PROMPTS & ~PROMPT_MASK(PROMPT#);
     1364     9923    1   SET_DEFAULT_PROMPT:
     1365     9924    1     PROMPT_ = PROMPTS (PROMPT#);
     1366     9925    1     RETURN;
PL6.E3A0      #002=CPF$SET_PROMPT File=CPF$IBEX3.:E05TSI                         TUE 07/29/97 11:41 Page:244
     1367     9926    1   END CPF$SET_PROMPT;
     1368     9927        %EOD;

PL6.E3A0      #002=CPF$SET_PROMPT File=CPF$IBEX3.:E05TSI                         TUE 07/29/97 11:41 Page:245
--  Include file information  --

   XUE_SUBS_C.:E05TOU  is referenced.
   XUE_MACRO_C.:E05TOU  is referenced.
   CP_DATA_R.:E05TOU  cannot be made into a system file and is referenced.
   CP_SUBS_C.:E05TOU  is referenced.
   CP_MACROS_C.:E05TOU  is referenced.
   XU_MACRO_C.:E05TOU  is referenced.
   CP_6_SUBS.:E05TOU  is referenced.
   CP_6.:E05TOU  cannot be made into a system file and is referenced.
   B$JIT.:E05TOU  cannot be made into a system file and is referenced.
   B$JIT_C.:E05TOU  was found in the system file and is referenced.
   CP_6_C.:E05TOU  was found in the system file and is referenced.
      No diagnostics issued in procedure CPF$SET_PROMPT.

   Procedure CPF$SET_PROMPT requires 201 words for executable code.
   Procedure CPF$SET_PROMPT requires 1076 words of local(AUTO) storage.

PL6.E3A0      #002=CPF$SET_PROMPT File=CPF$IBEX3.:E05TSI                         TUE 07/29/97 11:41 Page:246

 Object Unit name= CPF$SET_PROMPT                             File name= CPF$IBEX3.:E05TOU
 UTS= JUL 29 '97 11:41:44.72 TUE                              Compiler= PL-6/E31         Sev=      00
 SharedLib= :SHARED_SYSTEM                                    Alt SharedLib=


    ****  Control sections  ****

 Sect   Type Bound  Init  Size OctSiz  Section name(segment info)
    0   DCB   even  none     0      0  M$UC
    1  RoData even  UTS     34     42  CPF$SET_PROMPT
    2   Proc  even  none   201    311  CPF$SET_PROMPT
    3  RoData even  none     5      5  CPF$SET_PROMPT

    ****  Entry defs  ****

                              Check   Calling
                             calling  sequence
  Sect OctLoc Primary Altret sequence   type   Parms  Name
     2      0   yes            yes      Std        2  CPF$SET_PROMPT

  ****  Entry refs  ****

         Check        Calling
        calling       sequence
Altret sequence SRef   type   Args  Name
         yes           Std       1 CPG$FUN$$
 yes     yes           Std       1 CPC$OPEN_S
 yes     yes           Std       1 X$PRE_PROCESS
 yes     yes           Std       3 CPJ$READ_S
         yes           Std       6 CPC$WRITEMSGE
         yes           Std       5 CXP$POSTERR
                       nStd      0 X66_AUTO_2
                       Std       0 B_CONSPOOL_D
                       nStd      0 X66_ARET
PL6.E3A0      #002=CPF$SET_PROMPT File=CPF$IBEX3.:E05TSI                         TUE 07/29/97 11:41 Page:247

  ****  Data refs  ****

  Flags:  r = read only, s = secondary
Flgs Name                             Flgs Name                             Flgs Name
     M$UC                                  IBEX_NAME                        r    SEG2$
r    B$JIT$                                M$IBEX1_NUM                           PROMPT_KEYS
     PROMPTS                               PROMPT_MASK                      r    XUE_PREEXP
     B_VECTNIL

  ****  Segment refs  ****

  Flags:  r = read only, s = secondary
Flgs Name                             Flgs Name                             Flgs Name
     NULLSID                               ISSID
PL6.E3A0      #002=CPF$SET_PROMPT File=CPF$IBEX3.:E05TSI                         TUE 07/29/97 11:41 Page:248


     1257        1        /*M* Return a vector of the desired PROMPT type */
     1258        2        /*T***********************************************************/
     1259        3        /*T*                                                         */
     1260        4        /*T* Copyright (c) Bull HN Information Systems Inc., 1997    */
     1261        5        /*T*                                                         */
     1262        6        /*T***********************************************************/
     1263        7        /*X*  DMC,DFC   */
     1264        8        /*P*   NAME:   CPF$SET_PROMPT
     1265        9               PURPOSE: To set up the desired prompt in SEG$2.RPROMPT$
     1266       10               INPUT: PROMPT_TYPE - type of prompt to setup (PRMT_x)
     1267       11               OUTPUT: PROMPT_ - vector framing the prompt.
     1268       12               DESCRIPTION: CPF$SET_PROMPT will use the default prompt if
     1269       13                      the user hasn't specified one, else the user's is used.
     1270       14               REFERENCE: Programmers Reference Manual
     1271       15        */
     1272       16        /**********************************************************************/
     1273       17        CPF$SET_PROMPT: PROC (PROMPT_, PROMPT_TYPE);

     17  2 000000   000000 700200 xent  CPF$SET_PRO* TSX0  ! X66_AUTO_2
         2 000001   002064 000002                    ZERO    1076,2

     1274       18    1     DCL PROMPT_ VECTOR ALIGNED;
     1275       19    1     DCL PROMPT_TYPE SBIN;
     1276       20
     1277       21          %INCLUDE B$JIT;
     1278      311          %INCLUDE CP_6;
     1279      392          %INCLUDE CP_6_SUBS;
     1280      932          %INCLUDE XU_MACRO_C;
     1281     4038          %INCLUDE CP_MACROS_C;
     1282     4790          %INCLUDE CP_SUBS_C;
     1283     5707          %INCLUDE CP_DATA_R;
     1284     8270          %INCLUDE XUE_MACRO_C;
     1285     9014          %INCLUDE XUE_SUBS_C;
     1286     9194        /***** Constants *****/
     1287     9195    1     DCL XUE_PREEXP SBIN SYMREF READONLY;
     1288     9196        /***** Structures *****/
PL6.E3A0      #002=CPF$SET_PROMPT File=CPF$IBEX3.:E05TSI                         TUE 07/29/97 11:41 Page:249
     1289     9197          %SEG$2;
     1290     9257          %XUE_PPCB (NAME=CXUE_PPCB, STCLASS=CONSTANT, WKSZ="SIZEW(WORK_AREA)",
     1291     9258                     FUN=CPG$FUN$$, PROCNAME=IBEX_NAME, ROOT=XUE_PREEXP);
     1292     9525          %XUE_PPCB (NAME=XUE_PPCB, STCLASS=AUTO);
     1293     9792          %CP_PROMPT (NAME=PROMPT, STCLASS=BASED);
     1294     9812          %FPT_CLOSE (FPTN=FPT$CLOSE, STCLASS=BASED);
     1295     9854        /***** Auto ******/
     1296     9855    1     DCL WORK_AREA (0:1023) SBIN;
     1297     9856    1     DCL PROMPT# SBIN;
     1298     9857    1     DCL CPOS UBIN;
     1299     9858    1     DCL VALUE SBIN;
     1300     9859        /***** Entries *****/
     1301     9860    1     DCL CPC$WRITEMSGE ENTRY(6);
     1302     9861    1     DCL CXP$POSTERR ENTRY(5);
     1303     9862    1     DCL CPG$FUN$$ ENTRY(1);
     1304     9863    1     DCL CPC$OPEN_S ENTRY(1) ALTRET;
     1305     9864    1     DCL CPJ$READ_S ENTRY(3) ALTRET;
     1306     9865    1     DCL X$PRE_PROCESS ENTRY(1) ALTRET;
     1307     9866
     1308     9867    1     PROMPT# = PROMPT_TYPE;

   9867  2 000002   200004 470500                    LDP0    @PROMPT_TYPE,,AUTO
         2 000003   000000 235100                    LDA     0,,PR0
         2 000004   202050 755100                    STA     PROMPT#,,AUTO

     1309     9868    1     SEG$2.LASTPROMPT = PROMPT#;

   9868  2 000005   000000 620005                    EAX0    0,AL
         2 000006   000000 471400 xsym               LDP1    SEG2$
         2 000007   100002 440100                    SXL0    2,,PR1

     1310     9869    1     IF NOT (B$JIT.PROMPTS & PROMPT_MASK(PROMPT#))

   9869  2 000010   202050 721100                    LXL1    PROMPT#,,AUTO
         2 000011   000000 236011 xsym               LDQ     PROMPT_MASK,X1
         2 000012   760000 376003                    ANQ     -8192,DU
         2 000013   202054 756100                    STQ     VALUE+2,,AUTO
PL6.E3A0      #002=CPF$SET_PROMPT File=CPF$IBEX3.:E05TSI                         TUE 07/29/97 11:41 Page:250
         2 000014   000000 473400 xsym               LDP3    B$JIT$
         2 000015   300153 236100                    LDQ     107,,PR3
         2 000016   000026 736000                    QLS     22
         2 000017   760000 376003                    ANQ     -8192,DU
         2 000020   202054 376100                    ANQ     VALUE+2,,AUTO
         2 000021   000302 600000 2                  TZE     SET_DEFAULT_PROMPT

     1311     9870    1       THEN
     1312     9871    1         GOTO SET_DEFAULT_PROMPT;
     1313     9872    1     IF  (PROMPT# ~= PRMT_R

   9872  2 000022   202050 235100                    LDA     PROMPT#,,AUTO
         2 000023   000004 115007                    CMPA    4,DL
         2 000024   000040 600000 2                  TZE     s:9878
         2 000025   300000 236100                    LDQ     0,,PR3
         2 000026   740000 376003                    ANQ     -16384,DU
         2 000027   140000 116003                    CMPQ    49152,DU
         2 000030   000035 601000 2                  TNZ     s:9875
         2 000031   300151 236100                    LDQ     105,,PR3
         2 000032   000777 376003                    ANQ     511,DU
         2 000033   000003 116003                    CMPQ    3,DU
         2 000034   000040 600000 2                  TZE     s:9878

     1314     9873    1     AND (B$JIT.MODE ~= %M_INT# OR B$JIT.NEXTCC ~= %CC_FROMUC#))
     1315     9874    2       THEN DO;

     1316     9875    2         PROMPT# = PRMT_N;

   9875  2 000035   000001 236007                    LDQ     1,DL
         2 000036   202050 756100                    STQ     PROMPT#,,AUTO

     1317     9876    2         GOTO SET_DEFAULT_PROMPT;

   9876  2 000037   000302 710000 2                  TRA     SET_DEFAULT_PROMPT

     1318     9877    2       END;
     1319     9878    1     IF SEG$2.SPROMPT$->PROMPT.TYPE_ ~= PROMPT#
PL6.E3A0      #002=CPF$SET_PROMPT File=CPF$IBEX3.:E05TSI                         TUE 07/29/97 11:41 Page:251

   9878  2 000040   100177 474500                    LDP4    127,,PR1
         2 000041   400000 236100                    LDQ     0,,PR4
         2 000042   777777 376007                    ANQ     -1,DL
         2 000043   202050 116100                    CMPQ    PROMPT#,,AUTO
         2 000044   000107 600000 2                  TZE     s:9888

     1320     9879    2       THEN DO;  /* we don't have the desired user prompt, get it */

     1321     9880    2         CALL CPC$OPEN_S (M$IBEX1_NUM) ALTRET (USE_DEFAULT_PROMPT);

   9880  2 000045   000000 630400 3                  EPPR0   0
         2 000046   000017 631400 xsym               EPPR1   B_VECTNIL+15
         2 000047   000000 701000 xent               TSX1    CPC$OPEN_S
         2 000050   000251 702000 2                  TSX2    USE_DEFAULT_PROMPT

     1322     9881    2         CALL CPJ$READ_S (M$IBEX1_NUM, PROMPT_KEYS (PROMPT#),

   9881  2 000051   000000 470400 xsym               LDP0    SEG2$
         2 000052   000177 471500                    LDP1    127,,PR0
         2 000053   000001 235000 3                  LDA     1
         2 000054   202054 451500                    STP1    VALUE+2,,AUTO
         2 000055   202054 236100                    LDQ     VALUE+2,,AUTO
         2 000056   202056 757100                    STAQ    VALUE+4,,AUTO
         2 000057   202056 633500                    EPPR3   VALUE+4,,AUTO
         2 000060   202062 453500                    STP3    VALUE+8,,AUTO
         2 000061   202050 236100                    LDQ     PROMPT#,,AUTO
         2 000062   000023 736000                    QLS     19
         2 000063   000002 036000 3                  ADLQ    2
         2 000064   000000 235000 3                  LDA     0
         2 000065   202060 757100                    STAQ    VALUE+6,,AUTO
         2 000066   202060 630500                    EPPR0   VALUE+6,,AUTO
         2 000067   000021 631400 xsym               EPPR1   B_VECTNIL+17
         2 000070   000000 701000 xent               TSX1    CPJ$READ_S
         2 000071   000251 702000 2                  TSX2    USE_DEFAULT_PROMPT

     1323     9882    2                          VECTOR (SEG$2.SPROMPT$->PROMPT))
PL6.E3A0      #002=CPF$SET_PROMPT File=CPF$IBEX3.:E05TSI                         TUE 07/29/97 11:41 Page:252
     1324     9883    2                            ALTRET (USE_DEFAULT_PROMPT);
     1325     9884    2         SEG$2.FPT_CLOSE$->FPT$CLOSE.V.DCB# = M$IBEX1_NUM;

   9884  2 000072   000000 470400 xsym               LDP0    SEG2$
         2 000073   000163 471500                    LDP1    115,,PR0
         2 000074   000000 720000 xsym               LXL0    M$IBEX1_NUM
         2 000075   100032 740100                    STX0    26,,PR1

     1326     9885    2         SEG$2.FPT_CLOSE$->FPT$CLOSE.V.DISP# = %SAVE#;

   9885  2 000076   000163 471500                    LDP1    115,,PR0
         2 000077   000002 236007                    LDQ     2,DL
         2 000100   100032 552104                    STBQ    26,'04'O,PR1

     1327     9886    3         CALL M$CLOSE(SEG$2.FPT_CLOSE$->FPT$CLOSE) WHENALTRETURN DO; END;

   9886  2 000101   000163 471500                    LDP1    115,,PR0
         2 000102   100000 630500                    EPPR0   0,,PR1
         2 000103   450001 713400                    CLIMB   alt,close
         2 000104   406000 401760                    pmme    nvectors=13
         2 000105   000107 702000 2                  TSX2    s:9888
         2 000106   000107 710000 2                  TRA     s:9888

     1328     9887    2       END;

     1329     9888    1     IF SEG$2.SPROMPT$->PROMPT.PPROCESS_

   9888  2 000107   000000 470400 xsym               LDP0    SEG2$
         2 000110   000177 471500                    LDP1    127,,PR0
         2 000111   100000 236100                    LDQ     0,,PR1
         2 000112   000400 316003                    CANQ    256,DU
         2 000113   000223 600000 2                  TZE     s:9911

     1330     9889    2       THEN DO;  /* We need to reevaluate this one every time */

     1331     9890    2         XUE_PPCB = CXUE_PPCB;

PL6.E3A0      #002=CPF$SET_PROMPT File=CPF$IBEX3.:E05TSI                         TUE 07/29/97 11:41 Page:253
   9890  2 000114   000100 100400                    MLR     fill='000'O
         2 000115   000000 000210 1                  ADSC9   CXUE_PPCB                cn=0,n=136
         2 000116   200006 000210                    ADSC9   XUE_PPCB,,AUTO           cn=0,n=136

     1332     9891    2         XUE_PPCB.ECB.WORK$ = ADDR(WORK_AREA);

   9891  2 000117   200050 633500                    EPPR3   WORK_AREA,,AUTO
         2 000120   200015 453500                    STP3    XUE_PPCB+7,,AUTO

     1333     9892    2         XUE_PPCB.ECB.WORK_DCB# = M$IBEX1_NUM;

   9892  2 000121   000000 235000 xsym               LDA     M$IBEX1_NUM
         2 000122   200017 755100                    STA     XUE_PPCB+9,,AUTO

     1334     9893    2         XUE_PPCB.INBUF$ = ADDR (SEG$2.SPROMPT$->PROMPT.TEXT_);

   9893  2 000123   202054 451500                    STP1    VALUE+2,,AUTO
         2 000124   202054 236100                    LDQ     VALUE+2,,AUTO
         2 000125   000003 036000 3                  ADLQ    3
         2 000126   200006 756100                    STQ     XUE_PPCB,,AUTO

     1335     9894    2         XUE_PPCB.ICHARS# = SEG$2.SPROMPT$->PROMPT.LEN_;

   9894  2 000127   000177 471500                    LDP1    127,,PR0
         2 000130   100000 236100                    LDQ     0,,PR1
         2 000131   000033 772000                    QRL     27
         2 000132   200007 756100                    STQ     XUE_PPCB+1,,AUTO

     1336     9895    2         XUE_PPCB.OUTBUF$ = ADDR (SEG$2.PROMPT$->PROMPT.TEXT_);

   9895  2 000133   000200 474500                    LDP4    128,,PR0
         2 000134   202054 454500                    STP4    VALUE+2,,AUTO
         2 000135   202054 236100                    LDQ     VALUE+2,,AUTO
         2 000136   000003 036000 3                  ADLQ    3
         2 000137   200010 756100                    STQ     XUE_PPCB+2,,AUTO

     1337     9896    2         XUE_PPCB.OCHARS# = LENGTHC (SEG$2.PROMPT$->PROMPT.TEXT_);
PL6.E3A0      #002=CPF$SET_PROMPT File=CPF$IBEX3.:E05TSI                         TUE 07/29/97 11:41 Page:254

   9896  2 000140   000200 471500                    LDP1    128,,PR0
         2 000141   000200 235007                    LDA     128,DL
         2 000142   200011 755100                    STA     XUE_PPCB+3,,AUTO

     1338     9897    2         SEG$2.FLAGS.USE_REMEM = '1'B;

   9897  2 000143   000020 236003                    LDQ     16,DU
         2 000144   000000 256100                    ORSQ    0,,PR0

     1339     9898    2         CALL X$PRE_PROCESS (XUE_PPCB)

   9898  2 000145   200006 633500                    EPPR3   XUE_PPCB,,AUTO
         2 000146   202054 453500                    STP3    VALUE+2,,AUTO
         2 000147   202054 630500                    EPPR0   VALUE+2,,AUTO
         2 000150   000017 631400 xsym               EPPR1   B_VECTNIL+15
         2 000151   000000 701000 xent               TSX1    X$PRE_PROCESS
         2 000152   000154 702000 2                  TSX2    s:9900
         2 000153   000207 710000 2                  TRA     s:9906

     1340     9899    3           WHENALTRETURN DO;

     1341     9900    3             CPOS = XUE_PPCB.ECB.ERR_POS#;

   9900  2 000154   200024 235100                    LDA     XUE_PPCB+14,,AUTO
         2 000155   000022 771000                    ARL     18
         2 000156   202051 755100                    STA     CPOS,,AUTO

     1342     9901    3             VALUE = XUE_PPCB.ECB.ERR_DCB#;

   9901  2 000157   200024 236100                    LDQ     XUE_PPCB+14,,AUTO
         2 000160   777777 376007                    ANQ     -1,DL
         2 000161   202052 756100                    STQ     VALUE,,AUTO

     1343     9902    3             CALL CXP$POSTERR (ADDR(SEG$2.ERRBUF),CPOS,XUE_PPCB.ECB.ERR,,VALUE);

   9902  2 000162   000000 236000 xsym               LDQ     SEG2$
PL6.E3A0      #002=CPF$SET_PROMPT File=CPF$IBEX3.:E05TSI                         TUE 07/29/97 11:41 Page:255
         2 000163   000003 036003                    ADLQ    3,DU
         2 000164   202054 756100                    STQ     VALUE+2,,AUTO
         2 000165   202052 630500                    EPPR0   VALUE,,AUTO
         2 000166   202061 450500                    STP0    VALUE+7,,AUTO
         2 000167   000001 236000 xsym               LDQ     B_VECTNIL+1
         2 000170   202060 756100                    STQ     VALUE+6,,AUTO
         2 000171   200025 631500                    EPPR1   XUE_PPCB+15,,AUTO
         2 000172   202057 451500                    STP1    VALUE+5,,AUTO
         2 000173   202051 633500                    EPPR3   CPOS,,AUTO
         2 000174   202056 453500                    STP3    VALUE+4,,AUTO
         2 000175   202054 634500                    EPPR4   VALUE+2,,AUTO
         2 000176   202055 454500                    STP4    VALUE+3,,AUTO
         2 000177   202055 630500                    EPPR0   VALUE+3,,AUTO
         2 000200   000023 631400 xsym               EPPR1   B_VECTNIL+19
         2 000201   000000 701000 xent               TSX1    CXP$POSTERR
         2 000202   000000 011000                    NOP     0

     1344     9903    3             SEG$2.FLAGS.USE_REMEM = '0'B;

   9903  2 000203   000000 470400 xsym               LDP0    SEG2$
         2 000204   000004 236000 3                  LDQ     4
         2 000205   000000 356100                    ANSQ    0,,PR0

     1345     9904    3             GOTO KILL_NON_DEFAULT_PROMPT;

   9904  2 000206   000264 710000 2                  TRA     KILL_NON_DEFAULT_PROMPT

     1346     9905    3           END;
     1347     9906    2         SEG$2.FLAGS.USE_REMEM = '0'B;

   9906  2 000207   000000 470400 xsym               LDP0    SEG2$
         2 000210   000004 236000 3                  LDQ     4
         2 000211   000000 356100                    ANSQ    0,,PR0

     1348     9907    2         SEG$2.PROMPT$->PROMPT.VFC_ = SEG$2.SPROMPT$->PROMPT.VFC_;

   9907  2 000212   000200 471500                    LDP1    128,,PR0
PL6.E3A0      #002=CPF$SET_PROMPT File=CPF$IBEX3.:E05TSI                         TUE 07/29/97 11:41 Page:256
         2 000213   000177 473500                    LDP3    127,,PR0
         2 000214   300001 236100                    LDQ     1,,PR3
         2 000215   100001 552140                    STBQ    1,'40'O,PR1

     1349     9908    2         SEG$2.PROMPT$->PROMPT.LEN_ = XUE_PPCB.RCHARS#;

   9908  2 000216   000200 471500                    LDP1    128,,PR0
         2 000217   200012 236100                    LDQ     XUE_PPCB+4,,AUTO
         2 000220   000033 736000                    QLS     27
         2 000221   100000 552140                    STBQ    0,'40'O,PR1

     1350     9909    2       END;

   9909  2 000222   000227 710000 2                  TRA     s:9913

     1351     9910    2       ELSE DO;

     1352     9911    2         SEG$2.PROMPT$->PROMPT = SEG$2.SPROMPT$->PROMPT;

   9911  2 000223   000200 473500                    LDP3    128,,PR0
         2 000224   000100 100500                    MLR     fill='000'O
         2 000225   100000 000205                    ADSC9   0,,PR1                   cn=0,n=133
         2 000226   300000 000205                    ADSC9   0,,PR3                   cn=0,n=133

     1353     9912    2       END;

     1354     9913    1     IF SEG$2.PROMPT$->PROMPT.LEN_ > 94 /* max prompt length */ THEN GOTO
              9913              SET_DEFAULT_PROMPT;

   9913  2 000227   000200 471500                    LDP1    128,,PR0
         2 000230   100000 236100                    LDQ     0,,PR1
         2 000231   777000 376003                    ANQ     -512,DU
         2 000232   137000 116003                    CMPQ    48640,DU
         2 000233   000302 603000 2                  TRC     SET_DEFAULT_PROMPT

     1355     9914    1     PROMPT_ = VECTOR (SUBSTR (SEG$2.PROMPT$->PROMPT.VFC_, 0,

PL6.E3A0      #002=CPF$SET_PROMPT File=CPF$IBEX3.:E05TSI                         TUE 07/29/97 11:41 Page:257
   9914  2 000234   100000 236100                    LDQ     0,,PR1
         2 000235   000033 772000                    QRL     27
         2 000236   000001 620006                    EAX0    1,QL
         2 000237   000000 635010                    EAA     0,X0
         2 000240   000002 771000                    ARL     2
         2 000241   000140 135007                    SBLA    96,DL
         2 000242   202054 451500                    STP1    VALUE+2,,AUTO
         2 000243   202054 236100                    LDQ     VALUE+2,,AUTO
         2 000244   000001 036003                    ADLQ    1,DU
         2 000245   200003 473500                    LDP3    @PROMPT_,,AUTO
         2 000246   300000 755100                    STA     0,,PR3
         2 000247   300001 756100                    STQ     1,,PR3

     1356     9915    1                               SEG$2.PROMPT$->PROMPT.LEN_+1));
     1357     9916    1     RETURN;

   9916  2 000250   000000 702200 xent               TSX2  ! X66_ARET

     1358     9917
     1359     9918    1   USE_DEFAULT_PROMPT:  /* we couldn't get the user's prompt */
     1360     9919    1     CALL CPC$WRITEMSGE (B$JIT.USRERR, M$IBEX1_NUM);

   9919  2 000251   000000 236000 3     USE_DEFAULT* LDQ     0
         2 000252   202055 756100                    STQ     VALUE+3,,AUTO
         2 000253   000000 236000 xsym               LDQ     B$JIT$
         2 000254   000144 036003                    ADLQ    100,DU
         2 000255   202054 756100                    STQ     VALUE+2,,AUTO
         2 000256   202054 630500                    EPPR0   VALUE+2,,AUTO
         2 000257   000020 631400 xsym               EPPR1   B_VECTNIL+16
         2 000260   000000 701000 xent               TSX1    CPC$WRITEMSGE
         2 000261   000000 011000                    NOP     0

     1361     9920    1     B$JIT.USRERR = '0'B;

   9920  2 000262   000000 470400 xsym               LDP0    B$JIT$
         2 000263   000144 450100                    STZ     100,,PR0

PL6.E3A0      #002=CPF$SET_PROMPT File=CPF$IBEX3.:E05TSI                         TUE 07/29/97 11:41 Page:258
     1362     9921    1   KILL_NON_DEFAULT_PROMPT:
     1363     9922    1     B$JIT.PROMPTS = B$JIT.PROMPTS & ~PROMPT_MASK(PROMPT#);

   9922  2 000264   202050 720100       KILL_NON_DE* LXL0    PROMPT#,,AUTO
         2 000265   000000 236010 xsym               LDQ     PROMPT_MASK,X0
         2 000266   760000 376003                    ANQ     -8192,DU
         2 000267   760000 676003                    ERQ     -8192,DU
         2 000270   202054 756100                    STQ     VALUE+2,,AUTO
         2 000271   000000 470400 xsym               LDP0    B$JIT$
         2 000272   000153 236100                    LDQ     107,,PR0
         2 000273   000026 736000                    QLS     22
         2 000274   760000 376003                    ANQ     -8192,DU
         2 000275   202054 376100                    ANQ     VALUE+2,,AUTO
         2 000276   000026 772000                    QRL     22
         2 000277   000153 676100                    ERQ     107,,PR0
         2 000300   037000 376007                    ANQ     15872,DL
         2 000301   000153 656100                    ERSQ    107,,PR0

     1364     9923    1   SET_DEFAULT_PROMPT:
     1365     9924    1     PROMPT_ = PROMPTS (PROMPT#);

   9924  2 000302   200003 470500       SET_DEFAULT* LDP0    @PROMPT_,,AUTO
         2 000303   202050 235100                    LDA     PROMPT#,,AUTO
         2 000304   000001 735000                    ALS     1
         2 000305   000000 237005 xsym               LDAQ    PROMPTS,AL
         2 000306   000000 755100                    STA     0,,PR0
         2 000307   000001 756100                    STQ     1,,PR0

     1366     9925    1     RETURN;

   9925  2 000310   000000 702200 xent               TSX2  ! X66_ARET
     1367     9926    1   END CPF$SET_PROMPT;
     1368     9927        %EOD;

PL6.E3A0      #002=CPF$SET_PROMPT File=CPF$IBEX3.:E05TSI                         TUE 07/29/97 11:41 Page:259
--  Include file information  --

   XUE_SUBS_C.:E05TOU  is referenced.
   XUE_MACRO_C.:E05TOU  is referenced.
   CP_DATA_R.:E05TOU  cannot be made into a system file and is referenced.
   CP_SUBS_C.:E05TOU  is referenced.
   CP_MACROS_C.:E05TOU  is referenced.
   XU_MACRO_C.:E05TOU  is referenced.
   CP_6_SUBS.:E05TOU  is referenced.
   CP_6.:E05TOU  cannot be made into a system file and is referenced.
   B$JIT.:E05TOU  cannot be made into a system file and is referenced.
   B$JIT_C.:E05TOU  was found in the system file and is referenced.
   CP_6_C.:E05TOU  was found in the system file and is referenced.
      No diagnostics issued in procedure CPF$SET_PROMPT.
PL6.E3A0      #002=CPF$SET_PROMPT File=CPF$IBEX3.:E05TSI                         TUE 07/29/97 11:41 Page:260

 **** Variables and constants ****

  ****  Section 001 RoData CPF$SET_PROMPT

  ****  Scalars and arrays  ****
OctLoc.c.b A Datatyp(siz) R M Lvl/name                 OctLoc.c.b A Datatyp(siz) R M Lvl/name

     0-0-0/d STRC(1224)  r     1 CXUE_PPCB

  ****  Auto variables  ****

  ****  Scalars and arrays  ****
OctLoc.c.b A Datatyp(siz) R M Lvl/name                 OctLoc.c.b A Datatyp(siz) R M Lvl/name

     3-0-0/w PTR         r     1 @PROMPT_                   4-0-0/w PTR         r     1 @PROMPT_TYPE
  2051-0-0/w UBIN        r     1 CPOS                    2050-0-0/w SBIN        r     1 PROMPT#
    *0-0-0/w VECT        r     1 PROMPT_                   *0-0-0/w SBIN        r     1 PROMPT_TYPE
  2052-0-0/w SBIN        r     1 VALUE                     50-0-0/w SBIN        r     1 WORK_AREA(0:1023)
     6-0-0/d STRC(1224)  r     1 XUE_PPCB

  ****  SYMREF variables  ****

  ****  Scalars and arrays  ****
OctLoc.c.b A Datatyp(siz) R M Lvl/name                 OctLoc.c.b A Datatyp(siz) R M Lvl/name

     0-0-0/w PTR         r     1 B$JIT$                     0-0-0/c STRC(45)    r     1 IBEX_NAME
     0-0-0/w UBIN        r     1 M$IBEX1_NUM
     0-0-0/d VECT        r     1 PROMPTS(0:4)
     0-0-0/d VECT        r     1 PROMPT_KEYS(0:4)
     0-0-0/w BIT (5)     r     1 PROMPT_MASK(0:4)
     0-0-0/w PTR         r     1 SEG2$                      0-0-0/w SBIN        r     1 XUE_PREEXP

  ****  BASED and DCB variables  ****

  ****  Scalars and arrays  ****
OctLoc.c.b A Datatyp(siz) R M Lvl/name                 OctLoc.c.b A Datatyp(siz) R M Lvl/name

PL6.E3A0      #002=CPF$SET_PROMPT File=CPF$IBEX3.:E05TSI                         TUE 07/29/97 11:41 Page:261
     0-0-0/d STRC(8856)  r     1 B$JIT                      0-0-0/d STRC(1080)  r     1 FPT$CLOSE
     0-0-0/d STRC(1197)  r     1 PROMPT                     0-0-0/w STRC(6264)  r     1 SEG$2


   Procedure CPF$SET_PROMPT requires 201 words for executable code.
   Procedure CPF$SET_PROMPT requires 1076 words of local(AUTO) storage.
PL6.E3A0      #002=CPF$SET_PROMPT File=CPF$IBEX3.:E05TSI                         TUE 07/29/97 11:41 Page:262
          *** CROSS REFERENCE LISTING ***
**     DENOTES     IDENTIFIER DEFINITION
<<                 IDENTIFIER'S VALUE SET
>>                 IDENTIFIER'S VALUE USED
<>                 IDENTIFIER SET AND/OR USED
--                 IDENTIFIER REFERENCED
PL6.E3A0      #002=CPF$SET_PROMPT File=CPF$IBEX3.:E05TSI                         TUE 07/29/97 11:41 Page:263
          MINI XREF LISTING

B$JIT.CPFLAGS1.SLEAZE
       129**DCL       129--REDEF
B$JIT.ERR.MID
        36**DCL        36--REDEF
B$JIT.JRESPEAK
       197**DCL       198--REDEF
B$JIT.MODE
        30**DCL      9872>>IF
B$JIT.NEXTCC
       177**DCL      9872>>IF
B$JIT.ORIGINATOR_PORT.FROM_CR
       306**DCL       306--REDEF     307--REDEF
B$JIT.PNR
       210**DCL       210--REDEF
B$JIT.PROMPTS
       184**DCL      9869>>IF       9922<<ASSIGN   9922>>ASSIGN
B$JIT.TSLINE
       304**DCL       305--REDEF
B$JIT.USRERR
       171**DCL      9919<>CALL     9920<<ASSIGN
B$JIT$
      8203**DCL        30--IMP-PTR  9869>>IF       9872>>IF       9872>>IF       9919>>CALL     9920>>ASSIGN
      9922>>ASSIGN   9922>>ASSIGN
CAMR_REC.ACSVEH_
      7242**DCL      7243--REDEF
CAMR_REC.ALTKEYS_
      7248**DCL      7249--REDEF    7249--REDEF
CAMR_REC.HDR_
      7247**DCL      7248--REDEF
CAMR_REC.TAB_
      7246**DCL      7247--REDEF
CAMR_REC.UHL_
PL6.E3A0      #002=CPF$SET_PROMPT File=CPF$IBEX3.:E05TSI                         TUE 07/29/97 11:41 Page:264
      7240**DCL      7241--REDEF    7241--REDEF
CAMR_REC.V.FSN#
      7280**DCL      7280--REDEF    7280--REDEF
CAMR_REC.WSN_
      7246**DCL      7246--REDEF
CFPT_CLOSE.SN_
      6084**DCL      6084--REDEF
CFPT_CLOSE.UTL_
      6085**DCL      6085--REDEF
CFPT_CLOSE.V.EXPIRE#
      6099**DCL      6099--REDEF
CFPT_CLOSE.V.TYPE#
      6097**DCL      6097--REDEF
CFPT_CLOSE.V.XTNSIZE#
      6094**DCL      6094--REDEF    6096--REDEF
CFPT_OPEN.ACSVEH_
      6019**DCL      6020--REDEF
CFPT_OPEN.ALTKEYS_
      6025**DCL      6026--REDEF    6026--REDEF
CFPT_OPEN.HDR_
      6024**DCL      6025--REDEF
CFPT_OPEN.TAB_
      6023**DCL      6024--REDEF
CFPT_OPEN.UHL_
      6017**DCL      6018--REDEF    6018--REDEF
CFPT_OPEN.V.FSN#
      6057**DCL      6057--REDEF    6057--REDEF
CFPT_OPEN.WSN_
      6023**DCL      6023--REDEF
CFPT_READ.STATION_
      6123**DCL      6124--REDEF
CFPT_READ.V.DVBYTE.REREAD#
      6135**DCL      6135--REDEF
CFPT_READ.V.INDX#
      6133**DCL      6133--REDEF
CFPT_READUC.STATION_
PL6.E3A0      #002=CPF$SET_PROMPT File=CPF$IBEX3.:E05TSI                         TUE 07/29/97 11:41 Page:265
      6493**DCL      6494--REDEF
CFPT_READUC.V.DVBYTE.REREAD#
      6505**DCL      6505--REDEF
CFPT_READUC.V.INDX#
      6503**DCL      6503--REDEF
CFPT_TRTN.V.IR#
      6729**DCL      6730--REDEF
CFPT_WRITE.STATION_
      6161**DCL      6161--REDEF
CFPT_WRITE.V.DVBYTE.VFC#
      6168**DCL      6168--REDEF
CFPT_WRITEUC.STATION_
      6461**DCL      6461--REDEF
CFPT_WRITEUC.V.DVBYTE.VFC#
      6468**DCL      6468--REDEF
CFPT_XXX.V.STEPCC#
      7441**DCL      7441--REDEF
CGETCMD.OUT$
      7462**DCL      7468--REDEF
CPC$OPEN_S
      9863**DCL-ENT  9880--CALL
CPC$WRITEMSGE
      9860**DCL-ENT  9919--CALL
CPG$FUN$$
      9862**DCL-ENT  9375--DCLINIT
CPJ$READ_S
      9864**DCL-ENT  9881--CALL
CPOS
      9857**DCL      9900<<ASSIGN   9902<>CALL
CVLP_TRMCTL.BREAKCOUNT
      7053**DCL      7054--REDEF
CVLP_WINDOW.FWINDOW#
      7149**DCL      7149--REDEF    7150--REDEF
CXP$POSTERR
      9861**DCL-ENT  9902--CALL
CXUE_PPCB
PL6.E3A0      #002=CPF$SET_PROMPT File=CPF$IBEX3.:E05TSI                         TUE 07/29/97 11:41 Page:266
      9273**DCL      9890>>ASSIGN
FPT$CLOSE
      9835**DCL      9886<>CALL
FPT$CLOSE.SN_
      9835**DCL      9835--REDEF
FPT$CLOSE.UTL_
      9836**DCL      9836--REDEF
FPT$CLOSE.V.DCB#
      9841**DCL      9884<<ASSIGN
FPT$CLOSE.V.DISP#
      9844**DCL      9885<<ASSIGN
FPT$CLOSE.V.EXPIRE#
      9850**DCL      9850--REDEF
FPT$CLOSE.V.TYPE#
      9848**DCL      9848--REDEF
FPT$CLOSE.V.XTNSIZE#
      9845**DCL      9845--REDEF    9847--REDEF
IBEX_NAME
      6911**DCL      9435--DCLINIT
KILL_NON_DEFAULT_PROMPT
      9922**LABEL    9904--GOTO
M$CLOSE
       320**DCL-ENT  9886--CALL
M$IBEX1_NUM
      8209**DCL      9880<>CALL     9881<>CALL     9884>>ASSIGN   9892>>ASSIGN   9919<>CALL
PROMPT
      9805**DCL      9881--CALL     9911<<ASSIGN   9911>>ASSIGN
PROMPT.LEN_
      9806**DCL      9894>>ASSIGN   9908<<ASSIGN   9913>>IF       9914>>ASSIGN
PROMPT.PPROCESS_
      9807**DCL      9888>>IF
PROMPT.TEXT_
      9810**DCL      9893--ASSIGN   9895--ASSIGN   9896--ASSIGN
PROMPT.TYPE_
      9808**DCL      9878>>IF
PROMPT.VFC_
PL6.E3A0      #002=CPF$SET_PROMPT File=CPF$IBEX3.:E05TSI                         TUE 07/29/97 11:41 Page:267
      9809**DCL      9907<<ASSIGN   9907>>ASSIGN   9914--ASSIGN
PROMPT#
      9856**DCL      9867<<ASSIGN   9868>>ASSIGN   9869>>IF       9872>>IF       9875<<ASSIGN   9878>>IF
      9881>>CALL     9922>>ASSIGN   9924>>ASSIGN
PROMPTS
      8222**DCL      9924>>ASSIGN
PROMPT_
        18**DCL        17--PROC     9914<<ASSIGN   9924<<ASSIGN
PROMPT_KEYS
      8221**DCL      9881<>CALL
PROMPT_MASK
      8223**DCL      9869>>IF       9922>>ASSIGN
PROMPT_TYPE
        19**DCL        17--PROC     9867>>ASSIGN
SEG$2.ERRBUF
      9223**DCL      9902--CALL
SEG$2.FLAGS.USE_REMEM
      9213**DCL      9897<<ASSIGN   9903<<ASSIGN   9906<<ASSIGN
SEG$2.FPT_CLOSE$
      9236**DCL      9884>>ASSIGN   9885>>ASSIGN   9886>>CALL
SEG$2.LASTPROMPT
      9222**DCL      9868<<ASSIGN
SEG$2.PROMPT$
      9249**DCL      9895>>ASSIGN   9896>>ASSIGN   9907>>ASSIGN   9908>>ASSIGN   9911>>ASSIGN   9913>>IF
      9914>>ASSIGN   9914>>ASSIGN
SEG$2.SPROMPT$
      9248**DCL      9878>>IF       9881>>CALL     9888>>IF       9893>>ASSIGN   9894>>ASSIGN   9907>>ASSIGN
      9911>>ASSIGN
SEG2$
      8196**DCL      9198--IMP-PTR  9868>>ASSIGN   9878>>IF       9881>>CALL     9884>>ASSIGN   9885>>ASSIGN
      9886>>CALL     9888>>IF       9893>>ASSIGN   9894>>ASSIGN   9895>>ASSIGN   9896>>ASSIGN   9897>>ASSIGN
      9902>>CALL     9903>>ASSIGN   9906>>ASSIGN   9907>>ASSIGN   9907>>ASSIGN   9908>>ASSIGN   9911>>ASSIGN
      9911>>ASSIGN   9913>>IF       9914>>ASSIGN   9914>>ASSIGN
SET_DEFAULT_PROMPT
      9924**LABEL    9871--GOTO     9876--GOTO     9913--GOTO
USE_DEFAULT_PROMPT
PL6.E3A0      #002=CPF$SET_PROMPT File=CPF$IBEX3.:E05TSI                         TUE 07/29/97 11:41 Page:268
      9919**LABEL    9880--CALLALT  9881--CALLALT
VALUE
      9858**DCL      9901<<ASSIGN   9902<>CALL
WORK_AREA
      9855**DCL      9351--DCLINIT  9891--ASSIGN
X$PRE_PROCESS
      9865**DCL-ENT  9898--CALL
XUE_PPCB
      9540**DCL      9890<<ASSIGN   9898<>CALL
XUE_PPCB.ECB.ERR
      9687**DCL      9902<>CALL
XUE_PPCB.ECB.ERR_DCB#
      9679**DCL      9901>>ASSIGN
XUE_PPCB.ECB.ERR_POS#
      9670**DCL      9900>>ASSIGN
XUE_PPCB.ECB.WORK$
      9613**DCL      9891<<ASSIGN
XUE_PPCB.ECB.WORK_DCB#
      9625**DCL      9892<<ASSIGN
XUE_PPCB.ICHARS#
      9549**DCL      9894<<ASSIGN
XUE_PPCB.INBUF$
      9544**DCL      9893<<ASSIGN
XUE_PPCB.OCHARS#
      9563**DCL      9896<<ASSIGN
XUE_PPCB.OUTBUF$
      9556**DCL      9895<<ASSIGN
XUE_PPCB.RCHARS#
      9570**DCL      9908>>ASSIGN
XUE_PREEXP
      9195**DCL      9310--DCLINIT

PL6.E3A0      #003=CPF$FIND_UCNN File=CPF$IBEX3.:E05TSI                          TUE 07/29/97 11:42 Page:269
     1369        1        /*M* Locate the UCnn stream for the TERMINAL cmd */
     1370        2        /*T***********************************************************/
     1371        3        /*T*                                                         */
     1372        4        /*T* Copyright (c) Bull HN Information Systems Inc., 1997    */
     1373        5        /*T*                                                         */
     1374        6        /*T***********************************************************/
     1375        7        /*X*  DMC,DFC   */
     1376        8        /*P*   NAME:   CPF$FIND_UCNN
     1377        9               PURPOSE: To locate a stream that has the RES=UCnn.
     1378       10               DESCRIPTION: CPF$FIND_UCNN looks though the table of DCBs
     1379       11                      to locate a DCB with RES=UCnn.  CPF$FIND_UCNN will
     1380       12                      return the DCB# of the dcb found, otherwise it will
     1381       13                      altreturn back to the calling routine.
     1382       14               REFERENCE: Programmers Reference Manual
     1383       15        */
     1384       16        /**********************************************************************/
     1385       17        CPF$FIND_UCNN:
     1386       18          PROC(STRM, DCB#) ALTRET;
     1387       19              %INCLUDE CP_6 ;
     1388      100              %INCLUDE B$ROSEG ;
     1389      163        /*
     1390      164          *** Parameters
     1391      165        */
     1392      166    1   DCL STRM CHAR(2) ;
     1393      167    1   DCL DCB# UBIN WORD ;
     1394      168        /*
     1395      169          *** Auto
     1396      170        */
     1397      171    1   DCL I UBIN WORD ;
     1398      172    1   DCL RES CHAR(4) ;
     1399      173        /*
     1400      174          *** Symrefs
     1401      175        */
     1402      176    1   DCL B$ROS$ PTR SYMREF ;
     1403      177        %F$DCB ;
     1404      234        /**/
     1405      235    1         CALL CONCAT(RES, 'UC', STRM) ;
PL6.E3A0      #003=CPF$FIND_UCNN File=CPF$IBEX3.:E05TSI                          TUE 07/29/97 11:42 Page:270
     1406      236    2         DO I=1 TO B$ROS$->B$ROSEG.NUMDCBS ;
     1407      237    2             IF DCBADDR(I)~=ADDR(NIL)
     1408      238    2               THEN
     1409      239    2                 IF DCBADDR(I)->F$DCB.FCD# AND DCBADDR(I)->F$DCB.RES#=RES
     1410      240    2                   THEN
     1411      241    3                     DO ;
     1412      242    3                       DCB# = I ;
     1413      243    3                       RETURN ;
     1414      244    3                     END ; /* Then Do */
     1415      245    2         END ; /* Do I */
     1416      246        /**/
     1417      247    1         ALTRETURN ;
     1418      248    1   END   CPF$FIND_UCNN ;

PL6.E3A0      #003=CPF$FIND_UCNN File=CPF$IBEX3.:E05TSI                          TUE 07/29/97 11:42 Page:271
--  Include file information  --

   B$ROSEG.:E05TOU  cannot be made into a system file and is referenced.
   CP_6.:E05TOU  cannot be made into a system file and is referenced.
   B$JIT_C.:E05TOU  was found in the system file and is never referenced.
   CP_6_C.:E05TOU  was found in the system file and is referenced.
      No diagnostics issued in procedure CPF$FIND_UCNN.

   Procedure CPF$FIND_UCNN requires 37 words for executable code.
   Procedure CPF$FIND_UCNN requires 8 words of local(AUTO) storage.

    No errors detected in file CPF$IBEX3.:E05TSI    .

PL6.E3A0      #003=CPF$FIND_UCNN File=CPF$IBEX3.:E05TSI                          TUE 07/29/97 11:42 Page:272

 Object Unit name= CPF$FIND_UCNN                              File name= CPF$IBEX3.:E05TOU
 UTS= JUL 29 '97 11:42:12.12 TUE                              Compiler= PL-6/E31         Sev=      00
 SharedLib= :SHARED_SYSTEM                                    Alt SharedLib=


    ****  Control sections  ****

 Sect   Type Bound  Init  Size OctSiz  Section name(segment info)
    0   DCB   even  none     0      0  M$UC
    1  RoData even  UTS      1      1  CPF$FIND_UCNN
    2   Proc  even  none    37     45  CPF$FIND_UCNN
    3  RoData even  none     1      1  CPF$FIND_UCNN

    ****  Entry defs  ****

                              Check   Calling
                             calling  sequence
  Sect OctLoc Primary Altret sequence   type   Parms  Name
     2      0   yes    yes     yes      Std        2  CPF$FIND_UCNN

  ****  Entry refs  ****

         Check        Calling
        calling       sequence
Altret sequence SRef   type   Args  Name
                       nStd      0 X66_AUTO_2
                       Std       0 B_CONSPOOL_D
                       nStd      0 X66_ARET
                       nStd      0 X66_AALT

  ****  Data refs  ****

  Flags:  r = read only, s = secondary
Flgs Name                             Flgs Name                             Flgs Name
     M$UC                                  B$ROS$                                B_VECTNIL
PL6.E3A0      #003=CPF$FIND_UCNN File=CPF$IBEX3.:E05TSI                          TUE 07/29/97 11:42 Page:273

  ****  Segment refs  ****

  Flags:  r = read only, s = secondary
Flgs Name                             Flgs Name                             Flgs Name
     ROSID
PL6.E3A0      #003=CPF$FIND_UCNN File=CPF$IBEX3.:E05TSI                          TUE 07/29/97 11:42 Page:274


     1369        1        /*M* Locate the UCnn stream for the TERMINAL cmd */
     1370        2        /*T***********************************************************/
     1371        3        /*T*                                                         */
     1372        4        /*T* Copyright (c) Bull HN Information Systems Inc., 1997    */
     1373        5        /*T*                                                         */
     1374        6        /*T***********************************************************/
     1375        7        /*X*  DMC,DFC   */
     1376        8        /*P*   NAME:   CPF$FIND_UCNN
     1377        9               PURPOSE: To locate a stream that has the RES=UCnn.
     1378       10               DESCRIPTION: CPF$FIND_UCNN looks though the table of DCBs
     1379       11                      to locate a DCB with RES=UCnn.  CPF$FIND_UCNN will
     1380       12                      return the DCB# of the dcb found, otherwise it will
     1381       13                      altreturn back to the calling routine.
     1382       14               REFERENCE: Programmers Reference Manual
     1383       15        */
     1384       16        /**********************************************************************/
     1385       17        CPF$FIND_UCNN:
     1386       18          PROC(STRM, DCB#) ALTRET;

     18  2 000000   000000 700200 xent  CPF$FIND_UC* TSX0  ! X66_AUTO_2
         2 000001   000010 000002                    ZERO    8,2

     1387       19              %INCLUDE CP_6 ;
     1388      100              %INCLUDE B$ROSEG ;
     1389      163        /*
     1390      164          *** Parameters
     1391      165        */
     1392      166    1   DCL STRM CHAR(2) ;
     1393      167    1   DCL DCB# UBIN WORD ;
     1394      168        /*
     1395      169          *** Auto
     1396      170        */
     1397      171    1   DCL I UBIN WORD ;
     1398      172    1   DCL RES CHAR(4) ;
     1399      173        /*
     1400      174          *** Symrefs
PL6.E3A0      #003=CPF$FIND_UCNN File=CPF$IBEX3.:E05TSI                          TUE 07/29/97 11:42 Page:275
     1401      175        */
     1402      176    1   DCL B$ROS$ PTR SYMREF ;
     1403      177        %F$DCB ;
     1404      234        /**/
     1405      235    1         CALL CONCAT(RES, 'UC', STRM) ;

    235  2 000002   000000 220000 1                  LDX0    0
         2 000003   200006 740100                    STX0    RES,,AUTO
         2 000004   200003 470500                    LDP0    @STRM,,AUTO
         2 000005   040100 100500                    MLR     fill='040'O
         2 000006   000000 000002                    ADSC9   0,,PR0                   cn=0,n=2
         2 000007   200006 400002                    ADSC9   RES,,AUTO                cn=2,n=2

     1406      236    2         DO I=1 TO B$ROS$->B$ROSEG.NUMDCBS ;

    236  2 000010   000001 235007                    LDA     1,DL
         2 000011   200005 755100                    STA     I,,AUTO
         2 000012   000037 710000 2                  TRA     s:245+3

     1407      237    2             IF DCBADDR(I)~=ADDR(NIL)

    237  2 000013   000000 470400 3                  LDP0    0
         2 000014   000000 471500                    LDP1    0,,PR0
         2 000015   200005 720100                    LXL0    I,,AUTO
         2 000016   100000 236110                    LDQ     0,X0,PR1
         2 000017   000001 116000 xsym               CMPQ    B_VECTNIL+1
         2 000020   000034 600000 2                  TZE     s:245

     1408      238    2               THEN
     1409      239    2                 IF DCBADDR(I)->F$DCB.FCD# AND DCBADDR(I)->F$DCB.RES#=RES

    239  2 000021   100000 473510                    LDP3    0,X0,PR1
         2 000022   300031 236100                    LDQ     25,,PR3
         2 000023   020000 316007                    CANQ    8192,DL
         2 000024   000034 600000 2                  TZE     s:245
         2 000025   300026 236100                    LDQ     22,,PR3
         2 000026   200006 116100                    CMPQ    RES,,AUTO
PL6.E3A0      #003=CPF$FIND_UCNN File=CPF$IBEX3.:E05TSI                          TUE 07/29/97 11:42 Page:276
         2 000027   000034 601000 2                  TNZ     s:245

     1410      240    2                   THEN
     1411      241    3                     DO ;

     1412      242    3                       DCB# = I ;

    242  2 000030   200004 474500                    LDP4    @DCB#,,AUTO
         2 000031   200005 235100                    LDA     I,,AUTO
         2 000032   400000 755100                    STA     0,,PR4

     1413      243    3                       RETURN ;

    243  2 000033   000000 702200 xent               TSX2  ! X66_ARET

     1414      244    3                     END ; /* Then Do */
     1415      245    2         END ; /* Do I */

    245  2 000034   200005 235100                    LDA     I,,AUTO
         2 000035   000001 035007                    ADLA    1,DL
         2 000036   200005 755100                    STA     I,,AUTO
         2 000037   000000 470400 xsym               LDP0    B$ROS$
         2 000040   000002 236100                    LDQ     2,,PR0
         2 000041   000022 772000                    QRL     18
         2 000042   200005 116100                    CMPQ    I,,AUTO
         2 000043   000013 603000 2                  TRC     s:237

     1416      246        /**/
     1417      247    1         ALTRETURN ;

    247  2 000044   000000 702200 xent               TSX2  ! X66_AALT
     1418      248    1   END   CPF$FIND_UCNN ;

PL6.E3A0      #003=CPF$FIND_UCNN File=CPF$IBEX3.:E05TSI                          TUE 07/29/97 11:42 Page:277
--  Include file information  --

   B$ROSEG.:E05TOU  cannot be made into a system file and is referenced.
   CP_6.:E05TOU  cannot be made into a system file and is referenced.
   B$JIT_C.:E05TOU  was found in the system file and is never referenced.
   CP_6_C.:E05TOU  was found in the system file and is referenced.
      No diagnostics issued in procedure CPF$FIND_UCNN.
PL6.E3A0      #003=CPF$FIND_UCNN File=CPF$IBEX3.:E05TSI                          TUE 07/29/97 11:42 Page:278

 **** Variables and constants ****

  ****  Auto variables  ****

  ****  Scalars and arrays  ****
OctLoc.c.b A Datatyp(siz) R M Lvl/name                 OctLoc.c.b A Datatyp(siz) R M Lvl/name

     4-0-0/w PTR         r     1 @DCB#                      3-0-0/w PTR         r     1 @STRM
    *0-0-0/w UBIN        r     1 DCB#                       5-0-0/w UBIN        r     1 I
     6-0-0/c CHAR(4)     r     1 RES                       *0-0-0/c CHAR(2)     r     1 STRM

  ****  SYMREF variables  ****

  ****  Scalars and arrays  ****
OctLoc.c.b A Datatyp(siz) R M Lvl/name                 OctLoc.c.b A Datatyp(siz) R M Lvl/name

     0-0-0/w PTR         r     1 B$ROS$

  ****  BASED and DCB variables  ****

  ****  Scalars and arrays  ****
OctLoc.c.b A Datatyp(siz) R M Lvl/name                 OctLoc.c.b A Datatyp(siz) R M Lvl/name

     0-0-0/d STRC(3024)  r     1 B$ROSEG                    0-0-0/d ASTR(3528)  r     1 F$DCB


   Procedure CPF$FIND_UCNN requires 37 words for executable code.
   Procedure CPF$FIND_UCNN requires 8 words of local(AUTO) storage.

    No errors detected in file CPF$IBEX3.:E05TSI    .
PL6.E3A0      #003=CPF$FIND_UCNN File=CPF$IBEX3.:E05TSI                          TUE 07/29/97 11:42 Page:279
          *** CROSS REFERENCE LISTING ***
**     DENOTES     IDENTIFIER DEFINITION
<<                 IDENTIFIER'S VALUE SET
>>                 IDENTIFIER'S VALUE USED
<>                 IDENTIFIER SET AND/OR USED
--                 IDENTIFIER REFERENCED
PL6.E3A0      #003=CPF$FIND_UCNN File=CPF$IBEX3.:E05TSI                          TUE 07/29/97 11:42 Page:280
          MINI XREF LISTING

B$ROS$
       176**DCL       236>>DOINDEX
B$ROSEG.NUMDCBS
       113**DCL       236>>DOINDEX
DCB#
       167**DCL        17--PROC      242<<ASSIGN
F$DCB.ACTPOS
       210**DCL       210--REDEF
F$DCB.ARS#
       184**DCL       184--REDEF
F$DCB.ATTR
       203**DCL       204--REDEF
F$DCB.BORROW
       218**DCL       218--REDEF     218--REDEF     218--REDEF
F$DCB.DCBNAME.L
       232**DCL       232--IMP-SIZ
F$DCB.EOMCHAR#
       188**DCL       188--REDEF
F$DCB.FCD#
       197**DCL       239>>IF
F$DCB.FLDID
       213**DCL       213--REDEF
F$DCB.FORM$
       207**DCL       207--REDEF
F$DCB.FSECT
       223**DCL       223--REDEF
F$DCB.FSN#
       200**DCL       200--REDEF     200--REDEF     201--REDEF
F$DCB.HEADER$
       206**DCL       206--REDEF
F$DCB.IXTNSIZE#
       204**DCL       204--REDEF
PL6.E3A0      #003=CPF$FIND_UCNN File=CPF$IBEX3.:E05TSI                          TUE 07/29/97 11:42 Page:281
F$DCB.LASTSTA$
       193**DCL       193--REDEF
F$DCB.LVL
       219**DCL       219--REDEF
F$DCB.NAME#.C
       194**DCL       194--REDEF
F$DCB.NOEOF
       216**DCL       216--REDEF
F$DCB.NRECS#
       205**DCL       205--REDEF
F$DCB.NRECX
       224**DCL       224--REDEF
F$DCB.OHDR
       216**DCL       216--REDEF
F$DCB.ORG#
       199**DCL       199--REDEF
F$DCB.PRECNO
       222**DCL       222--REDEF
F$DCB.RCSZ
       228**DCL       228--REDEF
F$DCB.RES#
       195**DCL       195--REDEF     239>>IF
F$DCB.SETX
       207**DCL       207--REDEF
F$DCB.TAB$
       207**DCL       207--REDEF
F$DCB.TDA
       221**DCL       222--REDEF
F$DCB.WSN#
       195**DCL       195--REDEF
I
       171**DCL       236<<DOINDEX   237--IF        239--IF        239--IF        242>>ASSIGN
RES
       172**DCL       235<<CALLBLT   239>>IF
STRM
       166**DCL        17--PROC      235>>CALLBLT
