PL6.E3A0      #003=CPK$FDS_OUTPUT File=CPK$CHECK.:E05TSI                         TUE 07/29/97 11:57 Page:543
     3366        1        /*T***********************************************************/
     3367        2        /*T*                                                         */
     3368        3        /*T* Copyright (c) Bull HN Information Systems Inc., 1997    */
     3369        4        /*T*                                                         */
     3370        5        /*T***********************************************************/
     3371        6        /**********************************************************************/
     3372        7        /*F*   NAME:   CPK$FDS_OUTPUT
     3373        8               PURPOSE: To call M$WRITE for X$FORMAT.  In this way any ALTRETURNs
     3374        9                       from M$WRITE can be handled.  CPK$FDS_OUTPUT always ALTRETs
     3375       10                       back to X$FORMAT.
     3376       11               DESCRIPTION: CPK$FDS_OUTPUT is called by X$FORMAT, if IBEX does not
     3377       12                       have any error posted, the M$WRITE will be performed,
     3378       13                       otherwise, no call to M$WRITE will be done.
     3379       14        */
     3380       15        /*D*   NAME:   CPK$FDS_OUTPUT
     3381       16               CALL:   CALL CPK$FDS_OUTPUT(OUTBUF_VEC,F_FDS) ;
     3382       17               INTERFACE: X$FORMAT
     3383       18               INPUT:  OUTBUF_VEC  - is a vector framing the buffer used by X$FORMAT.
     3384       19                       F_FDS       - is the data block used by X$FORMAT.
     3385       20               DESCRIPTION: If IBEX does not have any errors posted, IBEX will
     3386       21                       call M$WRITE, then CPK$FDS_OUTPUT altreturns to X$FORMAT.
     3387       22        */
     3388       23        /**********************************************************************/
     3389       24        CPK$FDS_OUTPUT: PROC (OUTBUF_VEC,F_FDS) ALTRET ;
     3390       25
     3391       26             /***** Includes *****/
     3392       27
     3393       28        %INCLUDE CP_6 ;
     3394      109        %INCLUDE CP_6_SUBS ;
     3395      649        %INCLUDE XU_FORMAT_C ;
     3396      811        %INCLUDE B_MACROS_C ;
     3397      922        %INCLUDE CP_MACROS_C ;
     3398     1674        %INCLUDE XU_MACRO_C ;
     3399     4780        %INCLUDE CP_DATA_R ;
     3400     7343        %INCLUDE B_ERRORS_C ;
     3401     8470        %INCLUDE CP_PERR_C ;
     3402     8808
PL6.E3A0      #003=CPK$FDS_OUTPUT File=CPK$CHECK.:E05TSI                         TUE 07/29/97 11:57 Page:544
     3403     8809             /***** Entries *****/
     3404     8810
     3405     8811    1   DCL CXP$POSTERR ENTRY(5);
     3406     8812
     3407     8813             /***** Parameters *****/
     3408     8814
     3409     8815    1   DCL OUTBUF_VEC VECTOR PARAM ;
     3410     8816        %F_FDS (STCLASS=PARAM) ;
     3411     8929
     3412     8930             /***** Based declarations *****/
     3413     8931
     3414     8932        %FPT_WRITE(FPTN=FPT$WRITE,STCLASS=BASED) ;
     3415     8963        %ERR_BLK (NAME=ERR$BLK, STCLASS=BASED) ;
     3416     8988        %B$TCB (STCLASS="BASED(B$TCB$)") ;
     3417     8991        %B$ALT ;
     3418     8999        %B$EXCFR ;
     3419     9017        %SEG$2 ;
     3420     9077
     3421     9078             /***** Auto declarations *****/
     3422     9079
     3423     9080        %FPT_WRITE (FPTN=FPT_WRITE,STCLASS=AUTO) ;
     3424     9111    1   DCL DCB# UBIN WORD ;
     3425     9112        %VLP_ERRCODE (FPTN=E_LLSET2KEYF,MID=K,ERR#=E$LLSET2KEYF,FCG=CP,STCLASS=CONSTANT);
     3426     9157        %VLP_ERRCODE (FPTN=ERR_CODE, STCLASS=AUTO) ;
     3427     9202
     3428     9203             /***** Procedure *****/
     3429     9204
     3430     9205    1         IF ADDR(SEG$2.ERRBUF)->ERR$BLK.FIRST = 0
     3431     9206    1             THEN
     3432     9207    2               DO ;
     3433     9208    2                 FPT_WRITE = F_FDS.WRITEFPT$->FPT$WRITE ;
     3434     9209    2                 FPT_WRITE.V_ = VECTOR(FPT_WRITE.V) ;
     3435     9210    2                 FPT_WRITE.V.DCB# = SEG2$->SEG$2.LLDCB# ;
     3436     9211    2                 CALL M$WRITE (FPT_WRITE) WHENALTRETURN
     3437     9212    3                         DO ;
     3438     9213    3                           DCB# = FPT_WRITE.V.DCB# ;
     3439     9214    3                           IF B$TCB.ALT$->B$EXCFR.ERR.ERR# = %E$WRWOKEY
PL6.E3A0      #003=CPK$FDS_OUTPUT File=CPK$CHECK.:E05TSI                         TUE 07/29/97 11:57 Page:545
     3440     9215    3                             THEN
     3441     9216    3                               ERR_CODE = E_LLSET2KEYF ;
     3442     9217    3                             ELSE
     3443     9218    3                               ERR_CODE = B$TCB.ALT$->B$EXCFR.ERR ;
     3444     9219    3                           CALL CXP$POSTERR (ADDR(SEG$2.ERRBUF), 511,
     3445     9220    3                                 ERR_CODE,,DCB#) ;
     3446     9221    3                         END ; /* Whenaltreturn Do */
     3447     9222    2                 END ; /* Then Do */
     3448     9223
     3449     9224    1         ALTRETURN ;
     3450     9225        /*E*       ERROR:   CPK-E$LLSET2KEYF-C
     3451     9226                   MESSAGE: M$LL is SET to a KEYED file.  Unable to do this WRITE.
     3452     9227                   DESCRIPTION: The user has SET M$LL to a KEYED file, and IBEX is not
     3453     9228                                specifying a key on this WRITE.
     3454     9229        */
     3455     9230    1   END   CPK$FDS_OUTPUT ;

PL6.E3A0      #003=CPK$FDS_OUTPUT File=CPK$CHECK.:E05TSI                         TUE 07/29/97 11:57 Page:546
--  Include file information  --

   CP_PERR_C.:E05TOU  is referenced.
   B_ERRORS_C.:E05TOU  is referenced.
   CP_DATA_R.:E05TOU  cannot be made into a system file and is referenced.
   XU_MACRO_C.:E05TOU  is referenced.
   CP_MACROS_C.:E05TOU  is referenced.
   B_MACROS_C.:E05TOU  is referenced.
   XU_FORMAT_C.:E05TOU  is referenced.
   CP_6_SUBS.:E05TOU  is referenced.
   CP_6.:E05TOU  cannot be made into a system file and is referenced.
   B$JIT_C.:E05TOU  was found in the system file and is never referenced.
   CP_6_C.:E05TOU  was found in the system file and is referenced.
      No diagnostics issued in procedure CPK$FDS_OUTPUT.

   Procedure CPK$FDS_OUTPUT requires 54 words for executable code.
   Procedure CPK$FDS_OUTPUT requires 26 words of local(AUTO) storage.

    No errors detected in file CPK$CHECK.:E05TSI    .

PL6.E3A0      #003=CPK$FDS_OUTPUT File=CPK$CHECK.:E05TSI                         TUE 07/29/97 11:57 Page:547

 Object Unit name= CPK$FDS_OUTPUT                             File name= CPK$CHECK.:E05TOU
 UTS= JUL 29 '97 11:57:54.12 TUE                              Compiler= PL-6/E31         Sev=      00
 SharedLib= :SHARED_SYSTEM                                    Alt SharedLib=


    ****  Control sections  ****

 Sect   Type Bound  Init  Size OctSiz  Section name(segment info)
    0   DCB   even  none     0      0  M$UC
    1  RoData even  UTS      1      1  CPK$FDS_OUTPUT
    2   Proc  even  none    54     66  CPK$FDS_OUTPUT
    3  RoData even  none     3      3  CPK$FDS_OUTPUT

    ****  Entry defs  ****

                              Check   Calling
                             calling  sequence
  Sect OctLoc Primary Altret sequence   type   Parms  Name
     2      0   yes    yes     yes      Std        2  CPK$FDS_OUTPUT

  ****  Entry refs  ****

         Check        Calling
        calling       sequence
Altret sequence SRef   type   Args  Name
         yes           Std       5 CXP$POSTERR
                       nStd      0 X66_AUTO_2
                       Std       0 B_CONSPOOL_D
                       nStd      0 X66_AALT

  ****  Data refs  ****

  Flags:  r = read only, s = secondary
Flgs Name                             Flgs Name                             Flgs Name
     M$UC                             r    SEG2$                            r    B$TCB$
     B_VECTNIL
PL6.E3A0      #003=CPK$FDS_OUTPUT File=CPK$CHECK.:E05TSI                         TUE 07/29/97 11:57 Page:548

  ****  Segment refs  ****

  Flags:  r = read only, s = secondary
Flgs Name                             Flgs Name                             Flgs Name
     ISSID
PL6.E3A0      #003=CPK$FDS_OUTPUT File=CPK$CHECK.:E05TSI                         TUE 07/29/97 11:57 Page:549


     3366        1        /*T***********************************************************/
     3367        2        /*T*                                                         */
     3368        3        /*T* Copyright (c) Bull HN Information Systems Inc., 1997    */
     3369        4        /*T*                                                         */
     3370        5        /*T***********************************************************/
     3371        6        /**********************************************************************/
     3372        7        /*F*   NAME:   CPK$FDS_OUTPUT
     3373        8               PURPOSE: To call M$WRITE for X$FORMAT.  In this way any ALTRETURNs
     3374        9                       from M$WRITE can be handled.  CPK$FDS_OUTPUT always ALTRETs
     3375       10                       back to X$FORMAT.
     3376       11               DESCRIPTION: CPK$FDS_OUTPUT is called by X$FORMAT, if IBEX does not
     3377       12                       have any error posted, the M$WRITE will be performed,
     3378       13                       otherwise, no call to M$WRITE will be done.
     3379       14        */
     3380       15        /*D*   NAME:   CPK$FDS_OUTPUT
     3381       16               CALL:   CALL CPK$FDS_OUTPUT(OUTBUF_VEC,F_FDS) ;
     3382       17               INTERFACE: X$FORMAT
     3383       18               INPUT:  OUTBUF_VEC  - is a vector framing the buffer used by X$FORMAT.
     3384       19                       F_FDS       - is the data block used by X$FORMAT.
     3385       20               DESCRIPTION: If IBEX does not have any errors posted, IBEX will
     3386       21                       call M$WRITE, then CPK$FDS_OUTPUT altreturns to X$FORMAT.
     3387       22        */
     3388       23        /**********************************************************************/
     3389       24        CPK$FDS_OUTPUT: PROC (OUTBUF_VEC,F_FDS) ALTRET ;

     24  2 000000   000000 700200 xent  CPK$FDS_OUT* TSX0  ! X66_AUTO_2
         2 000001   000032 000002                    ZERO    26,2

     3390       25
     3391       26             /***** Includes *****/
     3392       27
     3393       28        %INCLUDE CP_6 ;
     3394      109        %INCLUDE CP_6_SUBS ;
     3395      649        %INCLUDE XU_FORMAT_C ;
     3396      811        %INCLUDE B_MACROS_C ;
     3397      922        %INCLUDE CP_MACROS_C ;
PL6.E3A0      #003=CPK$FDS_OUTPUT File=CPK$CHECK.:E05TSI                         TUE 07/29/97 11:57 Page:550
     3398     1674        %INCLUDE XU_MACRO_C ;
     3399     4780        %INCLUDE CP_DATA_R ;
     3400     7343        %INCLUDE B_ERRORS_C ;
     3401     8470        %INCLUDE CP_PERR_C ;
     3402     8808
     3403     8809             /***** Entries *****/
     3404     8810
     3405     8811    1   DCL CXP$POSTERR ENTRY(5);
     3406     8812
     3407     8813             /***** Parameters *****/
     3408     8814
     3409     8815    1   DCL OUTBUF_VEC VECTOR PARAM ;
     3410     8816        %F_FDS (STCLASS=PARAM) ;
     3411     8929
     3412     8930             /***** Based declarations *****/
     3413     8931
     3414     8932        %FPT_WRITE(FPTN=FPT$WRITE,STCLASS=BASED) ;
     3415     8963        %ERR_BLK (NAME=ERR$BLK, STCLASS=BASED) ;
     3416     8988        %B$TCB (STCLASS="BASED(B$TCB$)") ;
     3417     8991        %B$ALT ;
     3418     8999        %B$EXCFR ;
     3419     9017        %SEG$2 ;
     3420     9077
     3421     9078             /***** Auto declarations *****/
     3422     9079
     3423     9080        %FPT_WRITE (FPTN=FPT_WRITE,STCLASS=AUTO) ;
     3424     9111    1   DCL DCB# UBIN WORD ;
     3425     9112        %VLP_ERRCODE (FPTN=E_LLSET2KEYF,MID=K,ERR#=E$LLSET2KEYF,FCG=CP,STCLASS=CONSTANT);
     3426     9157        %VLP_ERRCODE (FPTN=ERR_CODE, STCLASS=AUTO) ;
     3427     9202
     3428     9203             /***** Procedure *****/
     3429     9204
     3430     9205    1         IF ADDR(SEG$2.ERRBUF)->ERR$BLK.FIRST = 0

   9205  2 000002   000000 470400 xsym               LDP0    SEG2$
         2 000003   000004 235100                    LDA     4,,PR0
         2 000004   000065 601000 2                  TNZ     s:9224
PL6.E3A0      #003=CPK$FDS_OUTPUT File=CPK$CHECK.:E05TSI                         TUE 07/29/97 11:57 Page:551

     3431     9206    1             THEN
     3432     9207    2               DO ;

     3433     9208    2                 FPT_WRITE = F_FDS.WRITEFPT$->FPT$WRITE ;

   9208  2 000005   200004 471500                    LDP1    @F_FDS,,AUTO
         2 000006   100031 473500                    LDP3    25,,PR1
         2 000007   000100 100500                    MLR     fill='000'O
         2 000010   300000 000060                    ADSC9   0,,PR3                   cn=0,n=48
         2 000011   200006 000060                    ADSC9   FPT_WRITE,,AUTO          cn=0,n=48

     3434     9209    2                 FPT_WRITE.V_ = VECTOR(FPT_WRITE.V) ;

   9209  2 000012   000000 235000 3                  LDA     0
         2 000013   200024 452500                    STP2    ERR_CODE+1,,AUTO
         2 000014   200024 236100                    LDQ     ERR_CODE+1,,AUTO
         2 000015   000016 036003                    ADLQ    14,DU
         2 000016   200006 757100                    STAQ    FPT_WRITE,,AUTO

     3435     9210    2                 FPT_WRITE.V.DCB# = SEG2$->SEG$2.LLDCB# ;

   9210  2 000017   000000 720100                    LXL0    0,,PR0
         2 000020   200016 740100                    STX0    FPT_WRITE+8,,AUTO

     3436     9211    2                 CALL M$WRITE (FPT_WRITE) WHENALTRETURN

   9211  2 000021   200006 630500                    EPPR0   FPT_WRITE,,AUTO
         2 000022   440001 713400                    CLIMB   alt,write
         2 000023   401400 401760                    pmme    nvectors=4
         2 000024   000026 702000 2                  TSX2    s:9213
         2 000025   000065 710000 2                  TRA     s:9224

     3437     9212    3                         DO ;

     3438     9213    3                           DCB# = FPT_WRITE.V.DCB# ;

PL6.E3A0      #003=CPK$FDS_OUTPUT File=CPK$CHECK.:E05TSI                         TUE 07/29/97 11:57 Page:552
   9213  2 000026   200016 235100                    LDA     FPT_WRITE+8,,AUTO
         2 000027   000022 771000                    ARL     18
         2 000030   200022 755100                    STA     DCB#,,AUTO

     3439     9214    3                           IF B$TCB.ALT$->B$EXCFR.ERR.ERR# = %E$WRWOKEY

   9214  2 000031   000000 470400 xsym               LDP0    B$TCB$
         2 000032   000000 471500                    LDP1    0,,PR0
         2 000033   100102 236100                    LDQ     66,,PR1
         2 000034   377770 376007                    ANQ     131064,DL
         2 000035   001010 116007                    CMPQ    520,DL
         2 000036   000042 601000 2                  TNZ     s:9218

     3440     9215    3                             THEN
     3441     9216    3                               ERR_CODE = E_LLSET2KEYF ;

   9216  2 000037   000000 236000 1                  LDQ     E_LLSET2KEYF
         2 000040   200023 756100                    STQ     ERR_CODE,,AUTO
         2 000041   000044 710000 2                  TRA     s:9219

     3442     9217    3                             ELSE
     3443     9218    3                               ERR_CODE = B$TCB.ALT$->B$EXCFR.ERR ;

   9218  2 000042   100102 236100                    LDQ     66,,PR1
         2 000043   200023 756100                    STQ     ERR_CODE,,AUTO

     3444     9219    3                           CALL CXP$POSTERR (ADDR(SEG$2.ERRBUF), 511,

   9219  2 000044   000000 236000 xsym               LDQ     SEG2$
         2 000045   000003 036003                    ADLQ    3,DU
         2 000046   200024 756100                    STQ     ERR_CODE+1,,AUTO
         2 000047   200022 631500                    EPPR1   DCB#,,AUTO
         2 000050   200031 451500                    STP1    ERR_CODE+6,,AUTO
         2 000051   000001 236000 xsym               LDQ     B_VECTNIL+1
         2 000052   200030 756100                    STQ     ERR_CODE+5,,AUTO
         2 000053   200023 633500                    EPPR3   ERR_CODE,,AUTO
         2 000054   200027 453500                    STP3    ERR_CODE+4,,AUTO
PL6.E3A0      #003=CPK$FDS_OUTPUT File=CPK$CHECK.:E05TSI                         TUE 07/29/97 11:57 Page:553
         2 000055   000002 236000 3                  LDQ     2
         2 000056   200026 756100                    STQ     ERR_CODE+3,,AUTO
         2 000057   200024 634500                    EPPR4   ERR_CODE+1,,AUTO
         2 000060   200025 454500                    STP4    ERR_CODE+2,,AUTO
         2 000061   200025 630500                    EPPR0   ERR_CODE+2,,AUTO
         2 000062   000023 631400 xsym               EPPR1   B_VECTNIL+19
         2 000063   000000 701000 xent               TSX1    CXP$POSTERR
         2 000064   000000 011000                    NOP     0

     3445     9220    3                                 ERR_CODE,,DCB#) ;
     3446     9221    3                         END ; /* Whenaltreturn Do */

     3447     9222    2                 END ; /* Then Do */

     3448     9223
     3449     9224    1         ALTRETURN ;

   9224  2 000065   000000 702200 xent               TSX2  ! X66_AALT
     3450     9225        /*E*       ERROR:   CPK-E$LLSET2KEYF-C
     3451     9226                   MESSAGE: M$LL is SET to a KEYED file.  Unable to do this WRITE.
     3452     9227                   DESCRIPTION: The user has SET M$LL to a KEYED file, and IBEX is not
     3453     9228                                specifying a key on this WRITE.
     3454     9229        */
     3455     9230    1   END   CPK$FDS_OUTPUT ;

PL6.E3A0      #003=CPK$FDS_OUTPUT File=CPK$CHECK.:E05TSI                         TUE 07/29/97 11:57 Page:554
--  Include file information  --

   CP_PERR_C.:E05TOU  is referenced.
   B_ERRORS_C.:E05TOU  is referenced.
   CP_DATA_R.:E05TOU  cannot be made into a system file and is referenced.
   XU_MACRO_C.:E05TOU  is referenced.
   CP_MACROS_C.:E05TOU  is referenced.
   B_MACROS_C.:E05TOU  is referenced.
   XU_FORMAT_C.:E05TOU  is referenced.
   CP_6_SUBS.:E05TOU  is referenced.
   CP_6.:E05TOU  cannot be made into a system file and is referenced.
   B$JIT_C.:E05TOU  was found in the system file and is never referenced.
   CP_6_C.:E05TOU  was found in the system file and is referenced.
      No diagnostics issued in procedure CPK$FDS_OUTPUT.
PL6.E3A0      #003=CPK$FDS_OUTPUT File=CPK$CHECK.:E05TSI                         TUE 07/29/97 11:57 Page:555

 **** Variables and constants ****

  ****  Section 001 RoData CPK$FDS_OUTPUT

  ****  Scalars and arrays  ****
OctLoc.c.b A Datatyp(siz) R M Lvl/name                 OctLoc.c.b A Datatyp(siz) R M Lvl/name

     0-0-0/w STRC        r     1 E_LLSET2KEYF

  ****  Auto variables  ****

  ****  Scalars and arrays  ****
OctLoc.c.b A Datatyp(siz) R M Lvl/name                 OctLoc.c.b A Datatyp(siz) R M Lvl/name

     4-0-0/w PTR         r     1 @F_FDS                     3-0-0/w PTR         r     1 @OUTBUF_VEC
    22-0-0/w UBIN        r     1 DCB#                      23-0-0/w STRC        r     1 ERR_CODE
     6-0-0/d STRC(432)   r     1 FPT_WRITE                 *0-0-0/w STRC(1080)  r     1 F_FDS
    *0-0-0/d VECT        r     1 OUTBUF_VEC

  ****  SYMREF variables  ****

  ****  Scalars and arrays  ****
OctLoc.c.b A Datatyp(siz) R M Lvl/name                 OctLoc.c.b A Datatyp(siz) R M Lvl/name

     0-0-0/w PTR         r     1 B$TCB$                     0-0-0/w PTR         r     1 SEG2$

  ****  BASED and DCB variables  ****

  ****  Scalars and arrays  ****
OctLoc.c.b A Datatyp(siz) R M Lvl/name                 OctLoc.c.b A Datatyp(siz) R M Lvl/name

     0-0-0/w STRC(2448)  r     1 B$EXCFR                    0-0-0/w STRC(144)   r     1 B$TCB
     0-0-0/w STRC(828)   r     1 ERR$BLK                    0-0-0/d STRC(432)   r     1 FPT$WRITE
     0-0-0/w STRC(6264)  r     1 SEG$2

PL6.E3A0      #003=CPK$FDS_OUTPUT File=CPK$CHECK.:E05TSI                         TUE 07/29/97 11:57 Page:556

   Procedure CPK$FDS_OUTPUT requires 54 words for executable code.
   Procedure CPK$FDS_OUTPUT requires 26 words of local(AUTO) storage.

    No errors detected in file CPK$CHECK.:E05TSI    .
PL6.E3A0      #003=CPK$FDS_OUTPUT File=CPK$CHECK.:E05TSI                         TUE 07/29/97 11:57 Page:557
          *** CROSS REFERENCE LISTING ***
**     DENOTES     IDENTIFIER DEFINITION
<<                 IDENTIFIER'S VALUE SET
>>                 IDENTIFIER'S VALUE USED
<>                 IDENTIFIER SET AND/OR USED
--                 IDENTIFIER REFERENCED
PL6.E3A0      #003=CPK$FDS_OUTPUT File=CPK$CHECK.:E05TSI                         TUE 07/29/97 11:57 Page:558
          MINI XREF LISTING

B$ALT.CODE
      8993**DCL      8993--REDEF    8994--REDEF    8994--REDEF
B$ALT.ERR.ERR#
      8995**DCL      8995--REDEF
B$ALT.EVID
      8994**DCL      8994--REDEF    8994--REDEF
B$EXCFR.ASL
      9000**DCL      9000--REDEF
B$EXCFR.ERR
      9014**DCL      9218>>ASSIGN
B$EXCFR.ERR.ERR#
      9014**DCL      9014--REDEF    9214>>IF
B$EXCFR.EVID
      9013**DCL      9013--REDEF    9014--REDEF
B$EXCFR.IR
      9001**DCL      9001--REDEF
B$EXCFR.PREVSZ
      9000**DCL      9000--REDEF
B$EXCFR.SUBC
      9012**DCL      9012--REDEF    9013--REDEF    9013--REDEF
B$TCB.ALT$
      8989**DCL      9214>>IF       9218>>ASSIGN
B$TCB$
      7278**DCL      8989--IMP-PTR  9214>>IF       9218>>ASSIGN
CAMR_REC.ACSVEH_
      6315**DCL      6316--REDEF
CAMR_REC.ALTKEYS_
      6321**DCL      6322--REDEF    6322--REDEF
CAMR_REC.HDR_
      6320**DCL      6321--REDEF
CAMR_REC.TAB_
      6319**DCL      6320--REDEF
PL6.E3A0      #003=CPK$FDS_OUTPUT File=CPK$CHECK.:E05TSI                         TUE 07/29/97 11:57 Page:559
CAMR_REC.UHL_
      6313**DCL      6314--REDEF    6314--REDEF
CAMR_REC.V.FSN#
      6353**DCL      6353--REDEF    6353--REDEF
CAMR_REC.WSN_
      6319**DCL      6319--REDEF
CFPT_CLOSE.SN_
      5157**DCL      5157--REDEF
CFPT_CLOSE.UTL_
      5158**DCL      5158--REDEF
CFPT_CLOSE.V.EXPIRE#
      5172**DCL      5172--REDEF
CFPT_CLOSE.V.TYPE#
      5170**DCL      5170--REDEF
CFPT_CLOSE.V.XTNSIZE#
      5167**DCL      5167--REDEF    5169--REDEF
CFPT_OPEN.ACSVEH_
      5092**DCL      5093--REDEF
CFPT_OPEN.ALTKEYS_
      5098**DCL      5099--REDEF    5099--REDEF
CFPT_OPEN.HDR_
      5097**DCL      5098--REDEF
CFPT_OPEN.TAB_
      5096**DCL      5097--REDEF
CFPT_OPEN.UHL_
      5090**DCL      5091--REDEF    5091--REDEF
CFPT_OPEN.V.FSN#
      5130**DCL      5130--REDEF    5130--REDEF
CFPT_OPEN.WSN_
      5096**DCL      5096--REDEF
CFPT_READ.STATION_
      5196**DCL      5197--REDEF
CFPT_READ.V.DVBYTE.REREAD#
      5208**DCL      5208--REDEF
CFPT_READ.V.INDX#
      5206**DCL      5206--REDEF
PL6.E3A0      #003=CPK$FDS_OUTPUT File=CPK$CHECK.:E05TSI                         TUE 07/29/97 11:57 Page:560
CFPT_READUC.STATION_
      5566**DCL      5567--REDEF
CFPT_READUC.V.DVBYTE.REREAD#
      5578**DCL      5578--REDEF
CFPT_READUC.V.INDX#
      5576**DCL      5576--REDEF
CFPT_TRTN.V.IR#
      5802**DCL      5803--REDEF
CFPT_WRITE.STATION_
      5234**DCL      5234--REDEF
CFPT_WRITE.V.DVBYTE.VFC#
      5241**DCL      5241--REDEF
CFPT_WRITEUC.STATION_
      5534**DCL      5534--REDEF
CFPT_WRITEUC.V.DVBYTE.VFC#
      5541**DCL      5541--REDEF
CFPT_XXX.V.STEPCC#
      6514**DCL      6514--REDEF
CGETCMD.OUT$
      6535**DCL      6541--REDEF
CVLP_TRMCTL.BREAKCOUNT
      6126**DCL      6127--REDEF
CVLP_WINDOW.FWINDOW#
      6222**DCL      6222--REDEF    6223--REDEF
CXP$POSTERR
      8811**DCL-ENT  9219--CALL
DCB#
      9111**DCL      9213<<ASSIGN   9219<>CALL
ERR$BLK.FIRST
      8979**DCL      9205>>IF
ERR_CODE
      9169**DCL      9216<<ASSIGN   9218<<ASSIGN   9219<>CALL
E_LLSET2KEYF
      9124**DCL      9216>>ASSIGN
FPT$WRITE
      8949**DCL      9208>>ASSIGN
PL6.E3A0      #003=CPK$FDS_OUTPUT File=CPK$CHECK.:E05TSI                         TUE 07/29/97 11:57 Page:561
FPT$WRITE.STATION_
      8951**DCL      8951--REDEF
FPT$WRITE.V.DVBYTE.VFC#
      8958**DCL      8958--REDEF
FPT_WRITE
      9097**DCL      9208<<ASSIGN   9211<>CALL
FPT_WRITE.STATION_
      9099**DCL      9099--REDEF
FPT_WRITE.V
      9100**DCL      9209--ASSIGN
FPT_WRITE.V.DCB#
      9100**DCL      9210<<ASSIGN   9213>>ASSIGN
FPT_WRITE.V.DVBYTE.VFC#
      9106**DCL      9106--REDEF
FPT_WRITE.V_
      9097**DCL      9209<<ASSIGN
F_FDS
      8830**DCL        24--PROC
F_FDS.WRITEFPT$
      8916**DCL      9208>>ASSIGN
M$WRITE
        38**DCL-ENT  9211--CALL
OUTBUF_VEC
      8815**DCL        24--PROC
SEG$2.ERRBUF
      9043**DCL      9205--IF       9219--CALL
SEG$2.LLDCB#
      9038**DCL      9210>>ASSIGN
SEG2$
      7269**DCL      9018--IMP-PTR  9205>>IF       9210>>ASSIGN   9219>>CALL
