PL6.E3A0      #002=CPK$CHECK_OUTPUT File=CPK$CHECK.:E05TSI                       TUE 07/29/97 11:57 Page:377
     2333        1        /*T***********************************************************/
     2334        2        /*T*                                                         */
     2335        3        /*T* Copyright (c) Bull HN Information Systems Inc., 1997    */
     2336        4        /*T*                                                         */
     2337        5        /*T***********************************************************/
     2338        6        /**********************************************************************/
     2339        7        /*F*   NAME:   CPK$CHECK_OUTPUT
     2340        8               PURPOSE: To output the jobstats that have been returned
     2341        9        DCL SYSTEM_OK# BIT(1) ;
     2342       10                       from the M$JOBSTATS.
     2343       11               DESCRIPTION: CPK$CHECK_OUTPUT is passed a pointer to the jobstats
     2344       12                       to be used as the driver for the output using X$FORMAT.
     2345       13        */
     2346       14        /*D*   NAME:   CPK$CHECK_OUTPUT
     2347       15               CALL:   CALL CPK$CHECK_OUTPUT(CH_XFORMAT) ;
     2348       16               INTERFACE: X$FORMAT
     2349       17               INPUT:  CH_XFORMAT  - is the data to be output using X$FORMAT.
     2350       18               OUTPUT: Specified message to device assigned to M$LL.
     2351       19               DESCRIPTION: The jobstats that have been received is output using
     2352       20                       X$FORMAT.
     2353       21        */
     2354       22        /**********************************************************************/
     2355       23        CPK$CHECK_OUTPUT: PROC (CH_XFORMAT,NLINES) ;
     2356       24
     2357       25             /***** Includes *****/
     2358       26
     2359       27        %INCLUDE B$JIT ;
     2360      317        %INCLUDE CP_6 ;
     2361      398        %INCLUDE CP_6_SUBS ;
     2362      938        %INCLUDE CP_SUBS_C ;
     2363     1855        %INCLUDE CP_MACROS_C ;
     2364     2607        %INCLUDE XU_MACRO_C ;
     2365     5713        %INCLUDE CP_DATA_R ;
     2366     8276        %INCLUDE B_ERRORS_C ;
     2367     9403        %INCLUDE OC$MESSHD_C ;
     2368     9424        %INCLUDE XU_FORMAT_C ;
     2369     9586        %INCLUDE XSJ_MAC_C ;
PL6.E3A0      #002=CPK$CHECK_OUTPUT File=CPK$CHECK.:E05TSI                       TUE 07/29/97 11:57 Page:378
     2370     9665        %INCLUDE XSJ_SUBS_C ;
     2371     9692        %INCLUDE NK_VFC_C ;
     2372     9766
     2373     9767             /***** Parameters *****/
     2374     9768
     2375     9769        %CH_XFORMAT                           ( FPTN = CH_XFORMAT,
     2376     9770              STCLASS=" ") ;
     2377     9794    1     DCL NLINES UBIN WORD ;  /* Number of lines to print the output */
     2378     9795
     2379     9796             /***** Based data *****/
     2380     9797
     2381     9798        %VLA_JOBSTATS_ISRCH                       ( FPTN = VLA$INPUT, STCLASS = BASED) ;
     2382     9825        %VLA_JOBSTATS_OSRCH                       ( FPTN=VLA$OUTPUT, STCLASS = BASED) ;
     2383     9842        %SEG$2 ;
     2384     9902    1   DCL CH$PART (0:15) BIT(1) BASED ;
     2385     9903        %VLP_JOBNAME (FPTN=VLP$JOBNAME,STCLASS=BASED) ;
     2386     9917        %XSJ_JOBINFO( FPTN = XSJ$JOBINFO, STCLASS = BASED) ;
     2387     9932        %FPT_WRITE( FPTN = FPT$WRITE, STCLASS = BASED) ;
     2388     9963        %F$DCB (DCBN=F$DCB) ;
     2389    10020
     2390    10021             /***** Ptr declarations *****/
     2391    10022
     2392    10023    1   DCL BUF$ PTR ;
     2393    10024    1   DCL TEMP$ PTR ;
     2394    10025
     2395    10026             /***** Entries *****/
     2396    10027
     2397    10028    1   DCL X$FORMAT ENTRY(1) ;
     2398    10029    1   DCL CPK$FDS_OUTPUT ENTRY(2) ALTRET ;
     2399    10030
     2400    10031             /***** Constant data *****/
     2401    10032
     2402    10033        %F_FDS                                  ( NAME = CF_FDS,
     2403    10034              STCLASS = CONSTANT,
     2404    10035              TRUNC = NO,
     2405    10036              DVFC = %VFC_TRANSITION1 ,
     2406    10037              WRAPTAB = 4) ;
PL6.E3A0      #002=CPK$CHECK_OUTPUT File=CPK$CHECK.:E05TSI                       TUE 07/29/97 11:57 Page:379
     2407    10150    1   DCL BLANK_FMT CHAR(0) CONSTANT INIT('    ') ;
     2408    10151    1   DCL O_BELL BIT(9) CONSTANT INIT('007'O) ;
     2409    10152    1   DCL BELL REDEF O_BELL CHAR(1) ;
     2410    10153    1   DCL INPUT_HDR_FMT CHAR(0) CONSTANT INIT('%0A') ;
     2411    10154    1   DCL INPUT_HDR CHAR(0) CONSTANT INIT
     2412    10155    1         (' AHE PRI SYSID O A F D MAX TIME   MEM ACCOUNT  1 *PARTITION* 16 JOB NAME') ;
     2413    10156    1   DCL RUN_HDR CHAR(0) CONSTANT INIT
     2414    10157    1         (' STA PRI SYSID O A F D MAX TIME   MEM ACCOUNT  PART JOB NAME') ;
     2415    10158    1   DCL DFLT_OUTPUT_HDR_FMT CHAR(0) CONSTANT INIT('%0A') ;
     2416    10159    1   DCL DFLT_OUTPUT_HDR CHAR(0) CONSTANT INIT
     2417    10160    1         ('  STATUS    SYSID   ACCOUNT PR CP   HC GRAN   FORM      WOD DEV JOB NAME') ;
     2418    10161    1   DCL INPUT_MESS_FMT CHAR(0) CONSTANT INIT
     2419    10162    1         ('%4D%1X%3D%1X%5D%1X%1A%1X%1A%1X%1A%1X%1A%1X%8A%2X%4D%1X%8A%1X%16A%1X%>A') ;
     2420    10163    1   DCL RUN_MESS_FMT CHAR(0) CONSTANT INIT
     2421    10164    1         ('%4A%1X%3D%1X%5D%1X%1A%1X%1A%1X%1A%1X%1A%1X%8A%2X%4D%1X%8A%2X%2D%2X%>A') ;
     2422    10165    1   DCL OUTPUT_NOWAIT_MESS_FMT CHAR(0) CONSTANT INIT
     2423    10166    1         (' %8A %5D-%D%20-%8>A %2D%3D %1A%3D %4D %6>A %8>A %2A%2A %>A') ;
     2424    10167    1   DCL OUTPUT_NOWAIT_MESS_FMT2 CHAR(0) CONSTANT INIT
     2425    10168    1         (' %8A %2D-%D%20-%8>A %2D%3D %1A%3D %4D %6>A %8>A %2A%2A %>A') ;
     2426    10169    1   DCL OUTPUT_WAIT_MESS_FMT CHAR(0) CONSTANT INIT
     2427    10170    1         ('%3D %5A %5D-%D%20-%8>A %2D%3D %1A%3D %4D %6>A %8>A %2A%2A %>A') ;
     2428    10171    1   DCL OUTPUT_WAIT_MESS_FMT2 CHAR(0) CONSTANT INIT
     2429    10172    1         ('%3D %5A %2D-%D%20-%8>A %2D%3D %1A%3D %4D %6>A %8>A %2A%2A %>A') ;
     2430    10173    1   DCL SYSID_RUN_MESS_FMT CHAR(0) CONSTANT INIT
     2431    10174    1         ('%D %<>A.%<>A running %<>A/%<>A%Q - %<>A') ;
     2432    10175    1   DCL SYSID_FOLL_MESS_FMT CHAR(0) CONSTANT INIT
     2433    10176    1         ('%D %<>A.%<>A waiting to follow %D%N(,%D%)%Q - %<>A') ;
     2434    10177    1   DCL SYSID_WPART_MESS_FMT CHAR(0) CONSTANT INIT
     2435    10178    1         ('%D %<>A.%<>A no partition available.%Q - %<>A') ;
     2436    10179    1   DCL SYSID_OTHER_MESS_FMT CHAR(0) CONSTANT INIT
     2437    10180    1         ('%D %<>A.%<>A stuck in some priority queue.%Q - %<>A') ;
     2438    10181    1   DCL SYSID_WPS_MESS_FMT CHAR(0) CONSTANT INIT
     2439    10182    1         ('%D %<>A.%<>A waiting for disk packset.%Q - %<>A') ;
     2440    10183    1   DCL SYSID_WAIT_MESS_FMT CHAR(0) CONSTANT INIT
     2441    10184    1         ('%D %<>A.%<>A waiting %D to run at prio %D%Q - %<>A') ;
     2442    10185    1   DCL SYSID_DEFERRED_MESS_FMT CHAR(0) CONSTANT INIT
     2443    10186    1         ('%D %<>A.%<>A deferred to %..2U%Q - %<>A') ;
PL6.E3A0      #002=CPK$CHECK_OUTPUT File=CPK$CHECK.:E05TSI                       TUE 07/29/97 11:57 Page:380
     2444    10187    1   DCL SYSID_OUTPUT_MESS_FMT CHAR(0) CONSTANT INIT
     2445    10188    1         ('%D-%D %<>A.%<>A %<>A on %<>A%<>A@%<>A%Q - %<>A') ;
     2446    10189    1   DCL SYSID_OUTPUT_WAIT_MESS_FMT CHAR(0) CONSTANT INIT
     2447    10190    1         ('%D-%D %<>A.%<>A waiting %D to %<>A on %<>A%<>A@%<>A%Q - %<>A') ;
     2448    10191    1   DCL SYSID_OUTPUT_NODEV_MESS_FMT CHAR(0) CONSTANT INIT
     2449    10192    1         ('%D-%D %<>A.%<>A waiting %<>A to %<>A on %<>A%<>A@%<>A%Q - %<>A') ;
     2450    10193    1   DCL NONE_MESS_FMT CHAR(0) CONSTANT INIT ('...None') ;
     2451    10194    1   DCL NONE_IN_MESS_FMT CHAR(0) CONSTANT INIT ('...None (In)') ;
     2452    10195    1   DCL NONE_RUN_MESS_FMT CHAR(0) CONSTANT INIT ('...None (Run)') ;
     2453    10196    1   DCL NONE_OUT_MESS_FMT CHAR(0) CONSTANT INIT ('...None (Out)') ;
     2454    10197    1   DCL TIME_DI_MESS_HDR CHAR(0) CONSTANT INIT(' %..2U %D*%D <%D%Q%A') ;
     2455    10198    1   DCL NO_TERM_OUT_HDR CHAR(0) CONSTANT INIT('%D No terminal output found.') ;
     2456    10199    1   DCL NO_SUCH_MESS_HDR CHAR(0) CONSTANT INIT(
             10199            'No such message number for CHECK.  Oops.') ;
     2457    10200    1   DCL APRESCAN_FMT1 CHAR(0) CONSTANT INIT('Job %<>A submitted.') ;
     2458    10201    1   DCL APRESCAN_FMT2 CHAR(0) CONSTANT INIT('Job %D %<>A submitted.') ;
     2459    10202    1   DCL COMPLETED_FMT1 CHAR(0) CONSTANT INIT('%<>A completed.') ;
     2460    10203    1   DCL COMPLETED_FMT2 CHAR(0) CONSTANT INIT('%D %<>A completed.') ;
     2461    10204    1   DCL NUM_LISTED_HDR_FMT CHAR(0) CONSTANT INIT('%4D%0A') ;
     2462    10205    1   DCL NUM_LISTED_MESS CHAR(0) CONSTANT INIT(' items Listed.') ;
     2463    10206    1   DCL HELD_LINE_FMT (0:79) CHAR(1) CONSTANT INIT('-'*0) ;
     2464    10207    1   DCL OUT_TYPE_ARRY (0:5) CHAR(8) UNAL CONSTANT INIT
     2465    10208    1         (   'Printing',
     2466    10209    1             'Punching',
     2467    10210    1             'Beaming',
     2468    10211    1             'Plotting',
     2469    10212    1             'Typing',
     2470    10213    1             'On Dev.') ;
     2471    10214    1   DCL LC_OUT_TYPE_ARRY (0:5) CHAR(8) UNAL CONSTANT INIT
     2472    10215    1         (   'printing',
     2473    10216    1             'punching',
     2474    10217    1             'beaming',
     2475    10218    1             'plotting',
     2476    10219    1             'typing',
     2477    10220    1             'on dev.') ;
     2478    10221    1   DCL SH_OUT_TYPE_ARRY (0:5) CHAR(8) UNAL CONSTANT INIT
     2479    10222    1         (   'print',
PL6.E3A0      #002=CPK$CHECK_OUTPUT File=CPK$CHECK.:E05TSI                       TUE 07/29/97 11:57 Page:381
     2480    10223    1             'punch',
     2481    10224    1             'beam',
     2482    10225    1             'plot',
     2483    10226    1             'type',
     2484    10227    1             'output');
     2485    10228    1   DCL FMT1 CHAR(0) CONSTANT INIT('%D-%D %<>A.%<>A doesn''t exist.%Q - %<>A') ;
     2486    10229    1   DCL FMTVEC_ BIT(72) CONSTANT DALIGNED INIT( VECTOR( FMTVEC ) );
     2487    10230    1   DCL FMTVEC1_ BIT(72) CONSTANT DALIGNED INIT( VECTOR( FMTVEC1 ) );
     2488    10231    1   DCL FMTVEC2_ BIT(72) CONSTANT DALIGNED INIT( VECTOR( FMTVEC2 ) );
     2489    10232    1   DCL FMTVEC CHAR(0) CONSTANT INIT('%D %<>A.%<>A %<>A %..2U%Q - %<>A') ;
     2490    10233    1   DCL FMTVEC1 CHAR(0) CONSTANT INIT('%D %<>A.%<>A %<>A %..2U with STEPCC=%D%Q - %<>A')
             10233            ;
     2491    10234    1   DCL FMTVEC2 CHAR(0) CONSTANT INIT
     2492    10235    1         ('%D %<>A.%<>A rejected at record %D (%<>A) at %..2U%Q - %<>A') ;
     2493    10236    1   DCL LIMIT_FMT_BUF CHAR(0) CONSTANT INIT('%D %<>A.%<>A limit %<>A') ;
     2494    10237    1   DCL EXTRA_LIMITS_FMT CHAR(0) CONSTANT INIT (',%<>A') ;
     2495    10238    1   DCL LIMIT_COMMENT_FMT CHAR(0) CONSTANT INIT (' exceeded%Q - %<>A') ;
     2496    10239    1   DCL MBS_DELETED_ BIT(72) CONSTANT DALIGNED INIT( VECTOR( MBS_DELETED ) );
     2497    10240    1   DCL MBS_CANCELED_ BIT(72) CONSTANT DALIGNED INIT( VECTOR( MBS_CANCELED ) );
     2498    10241    1   DCL MBS_SHAFTED_ BIT(72) CONSTANT DALIGNED INIT( VECTOR( MBS_SHAFTED ) );
     2499    10242    1   DCL MBS_FILERR_ BIT(72) CONSTANT DALIGNED INIT( VECTOR( MBS_FILERR ) );
     2500    10243    1   DCL PRE_PASSED_ BIT(72) CONSTANT DALIGNED INIT( VECTOR( PRE_PASSED ) );
     2501    10244    1   DCL REJ_JOB_ BIT(72) CONSTANT DALIGNED INIT( VECTOR( REJ_JOB ) );
     2502    10245    1   DCL REJ_RES_ BIT(72) CONSTANT DALIGNED INIT( VECTOR( REJ_RES ) );
     2503    10246    1   DCL REJ_SYNTAX_ BIT(72) CONSTANT DALIGNED INIT( VECTOR( REJ_SYNTAX ) );
     2504    10247    1   DCL REJ_IO_ BIT(72) CONSTANT DALIGNED INIT( VECTOR( REJ_IO ) );
     2505    10248    1   DCL REJ_JOBIMBED_ BIT(72) CONSTANT DALIGNED INIT( VECTOR( REJ_JOBIMBED ) );
     2506    10249    1   DCL REJ_BADID_ BIT(72) CONSTANT DALIGNED INIT( VECTOR( REJ_BADID ) );
     2507    10250    1   DCL REJ_NORES_ BIT(72) CONSTANT DALIGNED INIT( VECTOR( REJ_NORES ) );
     2508    10251    1   DCL REJ_PRESCAN_ BIT(72) CONSTANT DALIGNED INIT( VECTOR( REJ_PRESCAN ) );
     2509    10252    1   DCL REJ_RESIMBED_ BIT(72) CONSTANT DALIGNED INIT( VECTOR( REJ_RESIMBED ) );
     2510    10253    1   DCL REJ_NOBATCH_ BIT(72) CONSTANT DALIGNED INIT( VECTOR( REJ_NOBATCH ) );
     2511    10254    1   DCL FIN_RECOVER_ BIT(72) CONSTANT DALIGNED INIT( VECTOR( FIN_RECOVER ) );
     2512    10255    1   DCL FIN_ABNORMAL_ BIT(72) CONSTANT DALIGNED INIT( VECTOR( FIN_ABNORMAL ) );
     2513    10256    1   DCL FIN_COMPLETED_ BIT(72) CONSTANT DALIGNED INIT( VECTOR( FIN_COMPLETED ) );
     2514    10257    1   DCL FIN_ABNORMAL_UNKNOWN_ BIT(72) CONSTANT DALIGNED INIT( VECTOR(
             10257            FIN_ABNORMAL_UNKNOWN ) );
PL6.E3A0      #002=CPK$CHECK_OUTPUT File=CPK$CHECK.:E05TSI                       TUE 07/29/97 11:57 Page:382
     2515    10258    1   DCL MBS_DELETED CHAR(0) CONSTANT INIT( 'Deleted by operator' );
     2516    10259    1   DCL MBS_CANCELED CHAR(0) CONSTANT INIT( 'Canceled by user' );
     2517    10260    1   DCL MBS_SHAFTED CHAR(0) CONSTANT INIT( 'Deleted by MBS for FOLLOW condition' );
     2518    10261    1   DCL MBS_FILERR CHAR(0) CONSTANT INIT( 'Canceled by MBS due to file inconsistency' );
     2519    10262    1   DCL PRE_PASSED CHAR(0) CONSTANT INIT( 'Passed PRESCAN successfully' );
     2520    10263    1   DCL REJ_JOB CHAR(0) CONSTANT INIT( 'bad !JOB' );
     2521    10264    1   DCL REJ_RES CHAR(0) CONSTANT INIT( 'bad !RESOURCE' );
     2522    10265    1   DCL REJ_SYNTAX CHAR(0) CONSTANT INIT( 'syntax error' );
     2523    10266    1   DCL REJ_IO CHAR(0) CONSTANT INIT( 'I/O error' );
     2524    10267    1   DCL REJ_JOBIMBED CHAR(0) CONSTANT INIT( 'imbedded !JOB' );
     2525    10268    1   DCL REJ_BADID CHAR(0) CONSTANT INIT( 'invalid ACCOUNT, USER, or PASSWORD on !JOB' );
     2526    10269    1   DCL REJ_NORES CHAR(0) CONSTANT INIT( 'too many resources specified' );
     2527    10270    1   DCL REJ_PRESCAN CHAR(0) CONSTANT INIT( 'PRESCAN problem' );
     2528    10271    1   DCL REJ_RESIMBED CHAR(0) CONSTANT INIT( 'imbedded !RESOURCE' );
     2529    10272    1   DCL REJ_NOBATCH CHAR(0) CONSTANT INIT( 'you are not authorized for BATCH' );
     2530    10273    1   DCL FIN_RECOVER CHAR(0) CONSTANT INIT( 'Caught in RECOVERY' );
     2531    10274    1   DCL FIN_ABNORMAL CHAR(0) CONSTANT INIT( 'Completed ABNORMALLY' );
     2532    10275    1   DCL FIN_COMPLETED CHAR(0) CONSTANT INIT( 'completed successfully at ');
     2533    10276    1   DCL FIN_ABNORMAL_UNKNOWN CHAR(0) CONSTANT INIT
     2534    10277    1                 ( 'completed ABNORMALLY with unknown error code') ;
     2535    10278    1   DCL RS__(0:8) BIT(72) CONSTANT DALIGNED INIT( VECTOR( RS_ERR ),
     2536    10279    1                                               VECTOR( RS_XXX ),
     2537    10280    1                                               VECTOR( RS_SSP ),
     2538    10281    1                                               VECTOR( RS_ABRT ),
     2539    10282    1                                               VECTOR( RS_EKEY ),
     2540    10283    1                                               VECTOR( RS_OFF ),
     2541    10284    1                                               VECTOR( RS_LIMX ),
     2542    10285    1                                               VECTOR( RS_DROP ),
     2543    10286    1                                               VECTOR( RS_XKEY ) );
     2544    10287    1   DCL XL__(0:8) BIT(72) CONSTANT DALIGNED INIT( VECTOR( XL_TIME ),
     2545    10288    1                                               VECTOR( XL_STACK ),
     2546    10289    1                                               VECTOR( XL_TAPE ),
     2547    10290    1                                               VECTOR( XL_TDISK ),
     2548    10291    1                                               VECTOR( XL_PDISK ),
     2549    10292    1                                               VECTOR( XL_DO ),
     2550    10293    1                                               VECTOR( XL_LO ),
     2551    10294    1                                               VECTOR( XL_PLO ),
PL6.E3A0      #002=CPK$CHECK_OUTPUT File=CPK$CHECK.:E05TSI                       TUE 07/29/97 11:57 Page:383
     2552    10295    1                                               VECTOR( XL_PO ) );
     2553    10296    1   DCL RS_CAN_ BIT(72) CONSTANT DALIGNED INIT( VECTOR( RS_CAN ) );
     2554    10297    1   DCL RS_ERR CHAR(0) CONSTANT INIT( 'M$ERR pmme' );
     2555    10298    1   DCL RS_XXX CHAR(0) CONSTANT INIT( 'M$XXX pmme' );
     2556    10299    1   DCL RS_SSP CHAR(0) CONSTANT INIT( 'Aborted by special shared processor' );
     2557    10300    1   DCL RS_ABRT CHAR(0) CONSTANT INIT( 'Aborted by monitor (ABORTM)' );
     2558    10301    1   DCL RS_EKEY CHAR(0) CONSTANT INIT( 'Errored by operator' );
     2559    10302    1   DCL RS_OFF CHAR(0) CONSTANT INIT( 'Aborted by monitor (!X)' );
     2560    10303    1   DCL RS_LIMX CHAR(0) CONSTANT INIT( 'Limit exceeded' );
     2561    10304    1   DCL RS_DROP CHAR(0) CONSTANT INIT( 'Line disconnect' );
     2562    10305    1   DCL RS_XKEY CHAR(0) CONSTANT INIT( 'Aborted by operator' );
     2563    10306    1   DCL RS_CAN CHAR(0) CONSTANT INIT( 'Canceled by user' );
     2564    10307    1   DCL XL_TIME CHAR(0) CONSTANT INIT( 'TIME' );
     2565    10308    1   DCL XL_STACK CHAR(0) CONSTANT INIT( 'STACK' );
     2566    10309    1   DCL XL_TAPE CHAR(0) CONSTANT INIT( 'TAPE' );
     2567    10310    1   DCL XL_TDISK CHAR(0) CONSTANT INIT( 'TDIS' );
     2568    10311    1   DCL XL_PDISK CHAR(0) CONSTANT INIT( 'PDIS' );
     2569    10312    1   DCL XL_DO CHAR(0) CONSTANT INIT( 'DO' );
     2570    10313    1   DCL XL_LO CHAR(0) CONSTANT INIT( 'LO' );
     2571    10314    1   DCL XL_PLO CHAR(0) CONSTANT INIT( 'PLO' );
     2572    10315    1   DCL XL_PO CHAR(0) CONSTANT INIT( 'PO' );
     2573    10316    1   DCL AHEAD_HDR CHAR(0) CONSTANT INIT('Ahead') ;
     2574    10317    1   DCL RUN_TEXT_HDR CHAR(0) CONSTANT INIT('Run') ;
     2575    10318    1   DCL BATCH_HDR CHAR(0) CONSTANT INIT('B') ;
     2576    10319    1   DCL ONLINE_HDR CHAR(0) CONSTANT INIT('O') ;
     2577    10320    1   DCL GHOST_HDR CHAR(0) CONSTANT INIT('G') ;
     2578    10321    1   DCL TP_HDR CHAR(0) CONSTANT INIT('T') ;
     2579    10322    1   DCL A_CHAR CHAR(0) CONSTANT INIT('A') ;
     2580    10323    1   DCL D_CHAR CHAR(0) CONSTANT INIT('D') ;
     2581    10324    1   DCL H_CHAR CHAR(0) CONSTANT INIT('H') ;
     2582    10325    1   DCL F_CHAR CHAR(0) CONSTANT INIT('F') ;
     2583    10326    1   DCL O_CHAR CHAR(0) CONSTANT INIT('O') ;
     2584    10327    1   DCL BLANK_CHAR CHAR(0) CONSTANT INIT(' ') ;
     2585    10328    1   DCL PART_ARRY (0:15) CHAR(1) CONSTANT
     2586    10329    1         INIT('1','2','3','4','5','6','7','8','9','0','1','2','3','4','5','6') ;
     2587    10330    1   DCL NODEV_HDR CHAR(0) CONSTANT INIT ('NODEV') ;
     2588    10331    1   DCL NODEV_HDR2 CHAR(0) CONSTANT INIT ('Nodev') ;
PL6.E3A0      #002=CPK$CHECK_OUTPUT File=CPK$CHECK.:E05TSI                       TUE 07/29/97 11:57 Page:384
     2589    10332
     2590    10333             /***** AUTO data *****/
     2591    10334
     2592    10335        %F_FDS                                      ( NAME = F_FDS,
     2593    10336              STCLASS = AUTO) ;
     2594    10449    1   DCL FMT_VEC(0:75) BIT(72) ;
     2595    10450    1   DCL OUT_BUF CHAR(150) ;
     2596    10451    1   DCL I UBIN WORD ;
     2597    10452    1   DCL II UBIN WORD ;
     2598    10453    1   DCL NFOLL UBIN WORD ;
     2599    10454    1   DCL BITSET UBIN WORD ;
     2600    10455    1   DCL UTS SBIN WORD ;
     2601    10456    1   DCL 1 STATE_BUF ALIGNED,
     2602    10457    1         2 NUM UBIN WORD UNAL,
     2603    10458    1         2 ESC_Q CHAR(4) UNAL,
     2604    10459    1         2 TIME_USED UBIN WORD UNAL,
     2605    10460    1         2 TIME_REMAIN UBIN WORD UNAL;
     2606    10461    1   DCL TIME_BUF CHAR(8) ;
     2607    10462    1   DCL TIME_BUF1 CHAR(8) ;
     2608    10463    1   DCL PART_BUF CHAR(16) ;
     2609    10464    1   DCL DEVTYPE CHAR(2) ;
     2610    10465    1   DCL NUM_AHEAD UBIN WORD ;
     2611    10466    1   DCL TYPE_NUM UBIN WORD ;
     2612    10467    1   DCL STEPCC UBIN WORD ;
     2613    10468    1   DCL STEPCC_ BIT(72) DALIGNED ;
     2614    10469    1   DCL RECNO_ BIT(72) DALIGNED ;
     2615    10470    1   DCL FMT_BUF CHAR(80) ;
     2616    10471    1   DCL LIMIT_BUF CHAR(80) ;
     2617    10472    1   DCL START UBIN WORD ;
     2618    10473    1   DCL NCHARS UBIN WORD ;
     2619    10474    1   DCL WIDTH UBIN WORD ;
     2620    10475
     2621    10476             /***** Auto FPTs *****/
     2622    10477
     2623    10478        %VLR_DISPLAY  (FPTN = VLR_DISPLAY,STCLASS=AUTO) ;
     2624    10492        %FPT_DISPLAY  (FPTN = FPT_DISPLAY,STCLASS=AUTO) ;
     2625    10505        %FPT_TIME (FPTN = FPT_TIME,STCLASS=AUTO) ;
PL6.E3A0      #002=CPK$CHECK_OUTPUT File=CPK$CHECK.:E05TSI                       TUE 07/29/97 11:57 Page:385
     2626    10524        %FPT_STATE(FPTN=FPT_STATE,STCLASS=AUTO) ;
     2627    10538
     2628    10539             /***** Procedure *****/
     2629    10540
     2630    10541    1         FMT_VEC = '0'B ;
     2631    10542    1         OUT_BUF = ' ' ;
     2632    10543    1         F_FDS = CF_FDS ;
     2633    10544    1         F_FDS.OUTPUT# = ENTADDR(CPK$FDS_OUTPUT) ;
     2634    10545    1         F_FDS.VECTR$ = ADDR(FMT_VEC(0)) ;
     2635    10546    1         F_FDS.BUF_ = VECTOR(OUT_BUF) ;
     2636    10547
     2637    10548    1         BUF$ = CH_XFORMAT.BUF$ ;
     2638    10549
     2639    10550    2         DO CASE (CH_XFORMAT.MSG#) ;
     2640    10551
     2641    10552    2             CASE(%CP_INPUT_MESS,%CP_RUN_MESS) ;
     2642    10553    2               IF (CH_XFORMAT.MSG# = %CP_INPUT_MESS)
     2643    10554    2                 THEN
     2644    10555    3                   DO ;
     2645    10556    3                     F_FDS.FMT_ = VECTOR(INPUT_MESS_FMT) ;
     2646    10557    3                     FMT_VEC(0) = VECTOR(BUF$->VLA$INPUT.AHEAD) ;
     2647    10558    3                   END ; /* THEN DO */
     2648    10559    2                 ELSE
     2649    10560    3                   DO ;
     2650    10561    3                     F_FDS.FMT_ = VECTOR(RUN_MESS_FMT) ;
     2651    10562    3                     FMT_VEC(0) = VECTOR(RUN_TEXT_HDR) ;
     2652    10563    3                   END ; /* ELSE DO */
     2653    10564    2               FMT_VEC(1) = VECTOR(BUF$->VLA$INPUT.IPRIO) ;
     2654    10565    2               FMT_VEC(2) = VECTOR(BUF$->VLA$INPUT.SYSID) ;
     2655    10566    2               IF (BUF$ -> VLA$INPUT.FLG.O1)
     2656    10567    2                 THEN FMT_VEC(3) = VECTOR(O_CHAR) ;
     2657    10568    2                 ELSE FMT_VEC(3) = VECTOR(BLANK_CHAR) ;
     2658    10569    2               IF (BUF$ -> VLA$INPUT.FLG.ACC)
     2659    10570    2                 THEN FMT_VEC(4) = VECTOR(A_CHAR) ;
     2660    10571    2                 ELSE FMT_VEC(4) = VECTOR(BLANK_CHAR) ;
     2661    10572    2               IF (BUF$ -> VLA$INPUT.FLG.O3)
     2662    10573    2                 THEN FMT_VEC(5) = VECTOR(F_CHAR) ;
PL6.E3A0      #002=CPK$CHECK_OUTPUT File=CPK$CHECK.:E05TSI                       TUE 07/29/97 11:57 Page:386
     2663    10574    2                 ELSE FMT_VEC(5) = VECTOR(BLANK_CHAR) ;
     2664    10575    2               IF (BUF$ -> VLA$INPUT.FLG.RA)
     2665    10576    2                 THEN FMT_VEC(6) = VECTOR(D_CHAR) ;
     2666    10577    2                 ELSE FMT_VEC(6) = VECTOR(BLANK_CHAR) ;
     2667    10578    2               UTS = BUF$ -> VLA$INPUT.TIM ;
     2668    10579    2               CALL CONVERT_TIME(UTS,TIME_BUF) ;
     2669    10580    2               FMT_VEC(7) = VECTOR( TIME_BUF ) ;
     2670    10581    2               FMT_VEC(8) = VECTOR(BUF$->VLA$INPUT.RRT(0)) ;
     2671    10582    2               FMT_VEC(9) = VECTOR(BUF$->VLA$INPUT.ACCT) ;
     2672    10583    2               IF (CH_XFORMAT.MSG# = %CP_INPUT_MESS)
     2673    10584    2                 THEN
     2674    10585    3                   DO ;
     2675    10586    3                     TEMP$ = ADDR(BUF$->VLA$INPUT.PART) ;
     2676    10587    4                     DO I = 0 TO 15 ;
     2677    10588    4                       IF (TEMP$->CH$PART(I))
     2678    10589    4                         THEN CALL INSERT(PART_BUF,I,1,PART_ARRY(I)) ;
     2679    10590    4                         ELSE CALL INSERT(PART_BUF,I,1,'.') ;
     2680    10591    4                     END ; /* DO I */
     2681    10592    3                     FMT_VEC(10) = VECTOR(PART_BUF) ;
     2682    10593    3                   END ; /* THEN DO */
     2683    10594    2                 ELSE FMT_VEC(10) = VECTOR(BUF$->VLA$INPUT.PNUM) ;
     2684    10595    2               FMT_VEC(11) = VECTOR(BUF$->VLA$INPUT.JNAME) ;
     2685    10596    2               F_FDS.NVECS# = 12 ;
     2686    10597
     2687    10598    2             CASE(%CP_OUTPUT_MESS) ;
     2688    10599    2               IF (BUF$->VLA$OUTPUT.DEVNAME = ' ')
     2689    10600    2                 THEN
     2690    10601    3                   DO ;                                  /* Waiting to output. */
     2691    10602    3                       IF BUF$ -> VLA$OUTPUT.SYSID < 99 AND
     2692    10603    3                           BUF$ -> VLA$OUTPUT.NUM > 99
     2693    10604    3                         THEN F_FDS.FMT_ = VECTOR(OUTPUT_WAIT_MESS_FMT2) ;
     2694    10605    3                         ELSE F_FDS.FMT_ = VECTOR(OUTPUT_WAIT_MESS_FMT) ;
     2695    10606    3                       NUM_AHEAD = BUF$ -> VLA$OUTPUT.AHEAD ;
     2696    10607    3                       FMT_VEC(0) = VECTOR(NUM_AHEAD) ;
     2697    10608    3                       IF (BUF$ -> VLA$OUTPUT.FLG.DEVAVAIL)
     2698    10609    3                         THEN FMT_VEC(1) = VECTOR(AHEAD_HDR) ;
     2699    10610    3                         ELSE FMT_VEC(1) = VECTOR(NODEV_HDR2) ;
PL6.E3A0      #002=CPK$CHECK_OUTPUT File=CPK$CHECK.:E05TSI                       TUE 07/29/97 11:57 Page:387
     2700    10611    3                       I = 1 ;
     2701    10612    3                   END ; /* THEN DO */
     2702    10613    2                 ELSE                                    /* Being output.*/
     2703    10614    3                   DO ;
     2704    10615    3                       IF BUF$ -> VLA$OUTPUT.SYSID < 99 AND
     2705    10616    3                           BUF$ -> VLA$OUTPUT.NUM > 99
     2706    10617    3                         THEN F_FDS.FMT_ = VECTOR(OUTPUT_NOWAIT_MESS_FMT2) ;
     2707    10618    3                         ELSE F_FDS.FMT_ = VECTOR(OUTPUT_NOWAIT_MESS_FMT) ;
     2708    10619    3                       I = 0 ;
     2709    10620    3                       CALL GET_OUTPUT_TYPE(I,OUT_TYPE_ARRY) ;
     2710    10621    3                   END ; /* ELSE DO */
     2711    10622    2               FMT_VEC(I+1) = VECTOR(BUF$->VLA$OUTPUT.SYSID) ;
     2712    10623    2               FMT_VEC(I+2) = VECTOR(BUF$->VLA$OUTPUT.NUM) ;
     2713    10624    2               FMT_VEC(I+3) = VECTOR(BUF$->VLA$OUTPUT.ACCT);
     2714    10625    2               FMT_VEC(I+4) = VECTOR(BUF$->VLA$OUTPUT.PRIO) ;
     2715    10626    2               FMT_VEC(I+5) = VECTOR(BUF$->VLA$OUTPUT.COPIES) ;
     2716    10627    2               IF BUF$->VLA$OUTPUT.FLG.SAP
     2717    10628    2                 THEN
     2718    10629    2                   FMT_VEC(I+6) = VECTOR(H_CHAR) ;
     2719    10630    2                 ELSE
     2720    10631    2                   FMT_VEC(I+6) = VECTOR(BLANK_CHAR) ;
     2721    10632    2               FMT_VEC(I+7) = VECTOR(BUF$->VLA$OUTPUT.SAPCOPIES) ;
     2722    10633    2               FMT_VEC(I+8) = VECTOR(BUF$->VLA$OUTPUT.GRANS) ;
     2723    10634    2               FMT_VEC(I+9) = VECTOR(BUF$->VLA$OUTPUT.FORM) ;
     2724    10635    2               IF BUF$->VLA$OUTPUT.DEVNAME = ' '
     2725    10636    2                 THEN
     2726    10637    2                   FMT_VEC(I+10) = VECTOR(BUF$->VLA$OUTPUT.WOD) ;
     2727    10638    2                 ELSE
     2728    10639    2                   FMT_VEC(I+10) = VECTOR(BUF$->VLA$OUTPUT.TNAME) ;
     2729    10640    2               FMT_VEC(I+11) = VECTOR(BUF$->VLA$OUTPUT.DEVTYP) ;
     2730    10641    2               FMT_VEC(I+12) = VECTOR(BUF$->VLA$OUTPUT.DEVNAME) ;
     2731    10642    2               FMT_VEC(I+13) = VECTOR(BUF$->VLA$OUTPUT.JNAME) ;
     2732    10643    2               F_FDS.NVECS# = I + 13 + 1 ;
     2733    10644
     2734    10645    2             CASE( %CP_SYSID_RUN_MESS,
     2735    10646    2                   %CP_SYSID_FOLL_MESS,
     2736    10647    2                   %CP_SYSID_RUNAFTER_MESS,
PL6.E3A0      #002=CPK$CHECK_OUTPUT File=CPK$CHECK.:E05TSI                       TUE 07/29/97 11:57 Page:388
     2737    10648    2                   %CP_SYSID_WPART_MESS,
     2738    10649    2                   %CP_SYSID_OTHER_MESS,
     2739    10650    2                   %CP_SYSID_WPS_MESS,
     2740    10651    2                   %CP_SYSID_WAIT_MESS) ;
     2741    10652    2               CALL OUTPUT_SYSID_IN_AND_RUN ;
     2742    10653
     2743    10654    2             CASE(%CP_SYSID_OQ_MESS) ;
     2744    10655    2               CALL OUTPUT_SYSID_OQ ;
     2745    10656
     2746    10657    2             CASE(%CP_INPUT_HDR) ;
     2747    10658    2               F_FDS.FMT_ = VECTOR(INPUT_HDR_FMT) ;
     2748    10659    2               FMT_VEC(0) = VECTOR(INPUT_HDR) ;
     2749    10660    2               F_FDS.NVECS# = 1 ;
     2750    10661
     2751    10662    2             CASE(%CP_RUN_HDR) ;
     2752    10663    2               F_FDS.FMT_ = VECTOR(INPUT_HDR_FMT) ;
     2753    10664    2               FMT_VEC(0) = VECTOR(RUN_HDR) ;
     2754    10665    2               F_FDS.NVECS# = 1 ;
     2755    10666
     2756    10667    2             CASE(%CP_DFLT_OUTPUT_HDR) ;
     2757    10668    2               F_FDS.FMT_ = VECTOR(DFLT_OUTPUT_HDR_FMT) ;
     2758    10669    2               FMT_VEC(0) = VECTOR(DFLT_OUTPUT_HDR) ;
     2759    10670    2               F_FDS.NVECS# = 1 ;
     2760    10671
     2761    10672    2             CASE(%CP_NUM_LISTED) ;
     2762    10673    2               F_FDS.FMT_ = VECTOR(NUM_LISTED_HDR_FMT) ;
     2763    10674    2               I = CH_XFORMAT.NUM# ;
     2764    10675    2               FMT_VEC(0) = VECTOR(I) ;
     2765    10676    2               FMT_VEC(1) = VECTOR(NUM_LISTED_MESS) ;
     2766    10677    2               F_FDS.NVECS# = 2 ;
     2767    10678
     2768    10679    2             CASE(%CP_NONE_IN_MESS) ;
     2769    10680    2               F_FDS.FMT_ = VECTOR(NONE_IN_MESS_FMT) ;
     2770    10681    2               F_FDS.NVECS# = 0 ;
     2771    10682
     2772    10683    2             CASE(%CP_NONE_RUN_MESS) ;
     2773    10684    2               F_FDS.FMT_ = VECTOR(NONE_RUN_MESS_FMT) ;
PL6.E3A0      #002=CPK$CHECK_OUTPUT File=CPK$CHECK.:E05TSI                       TUE 07/29/97 11:57 Page:389
     2774    10685    2               F_FDS.NVECS# = 0 ;
     2775    10686
     2776    10687    2             CASE(%CP_NONE_OUT_MESS) ;
     2777    10688    2               F_FDS.FMT_ = VECTOR(NONE_OUT_MESS_FMT) ;
     2778    10689    2               F_FDS.NVECS# = 0 ;
     2779    10690
     2780    10691    2             CASE(%CP_NONE_MESS) ;
     2781    10692    2               F_FDS.FMT_ = VECTOR(NONE_MESS_FMT) ;
     2782    10693    2               F_FDS.NVECS# = 0 ;
     2783    10694
     2784    10695    2             CASE(%CP_NOTF_MESS) ;
     2785    10696    2               I = 0 ;
     2786    10697    2               II = 4 ;
     2787    10698    2               FMT_BUF = 'Job' ;
     2788    10699    2               IF CH_XFORMAT.SYSID# ~= 0
     2789    10700    2                 THEN
     2790    10701    3                   DO ;                                  /* SYSID specified. */
     2791    10702    3                     CALL INSERT(FMT_BUF,II,4,'%<>D') ;
     2792    10703    3                     II = II + 4 ;
     2793    10704    3                     FMT_VEC(I) = VECTOR(CH_XFORMAT.SYSID#) ;
     2794    10705    3                     I = I + 1 ;
     2795    10706    3                     IF CH_XFORMAT.NUM# ~= 0
     2796    10707    3                       THEN
     2797    10708    4                         DO ;                                  /* NUM specified. */
     2798    10709    4                           CALL INSERT(FMT_BUF,II,6,'-%<>D') ;
     2799    10710    4                           II = II + 6 ;
     2800    10711    4                           FMT_VEC(I) = VECTOR(CH_XFORMAT.NUM#) ;
     2801    10712    4                           I = I + 1 ;
     2802    10713    4                         END ; /* THEN DO */
     2803    10714    3                       ELSE
     2804    10715    3                         II = II + 1;  /* Insert a blank. */
     2805    10716    3                   END ; /* THEN DO */
     2806    10717    2               IF CH_XFORMAT.JOBNAME# ~= ' '
     2807    10718    2                 THEN
     2808    10719    3                   DO ;                                  /* JOBNAME specified. */
     2809    10720    3                     CALL INSERT(FMT_BUF,II,5,'%<>A.') ;
     2810    10721    3                     II = II + 5 ;
PL6.E3A0      #002=CPK$CHECK_OUTPUT File=CPK$CHECK.:E05TSI                       TUE 07/29/97 11:57 Page:390
     2811    10722    3                     FMT_VEC(I) = VECTOR(CH_XFORMAT.JOBNAME#) ;
     2812    10723    3                     I = I + 1 ;
     2813    10724    3                   END ; /* THEN DO */
     2814    10725    2               IF CH_XFORMAT.ACCT# ~= ' '
     2815    10726    2                 THEN
     2816    10727    3                   DO ;                                  /* ACCT specified. */
     2817    10728    3                     IF SUBSTR(FMT_BUF,II-1,1) ~= '.'
     2818    10729    3                       THEN
     2819    10730    4                         DO ;                            /* No JOBNAME */
     2820    10731    4                           CALL INSERT(FMT_BUF,II,1,'.') ;
     2821    10732    4                           II = II + 1 ;
     2822    10733    4                         END ; /* THEN DO */
     2823    10734    3                     CALL INSERT(FMT_BUF,II,5,'%<>A') ;
     2824    10735    3                     II = II + 5 ;
     2825    10736    3                     FMT_VEC(I) = VECTOR(CH_XFORMAT.ACCT#) ;
     2826    10737    3                     I = I + 1 ;
     2827    10738    3                   END ; /* THEN DO */
     2828    10739    2               IF SUBSTR(FMT_BUF,II-1,1) ~= ' '
     2829    10740    2                 THEN II = II + 1 ;    /* Add a blank */
     2830    10741    2               CALL INSERT(FMT_BUF,II,14,'was not found.') ;
     2831    10742    2               II = II + 14 ;
     2832    10743    2               F_FDS.NVECS# = I ;
     2833    10744    2               F_FDS.FMT_ = VECTOR(FMT_BUF) ;
     2834    10745
     2835    10746    2             CASE(%CP_APRESCAN_MESS) ;
     2836    10747    2               I = 0 ;
     2837    10748    2               IF (CH_XFORMAT.SYSID# ~= 0)
     2838    10749    2                 THEN
     2839    10750    3                   DO ;                          /* SYSID */
     2840    10751    3                     F_FDS.FMT_ = VECTOR(APRESCAN_FMT2) ;
     2841    10752    3                     FMT_VEC(0) = VECTOR(CH_XFORMAT.SYSID#) ;
     2842    10753    3                     I = 1 ;
     2843    10754    3                   END ; /* THEN DO */
     2844    10755    2                 ELSE F_FDS.FMT_ = VECTOR(APRESCAN_FMT1) ;   /* No SYSID */
     2845    10756    2                 FMT_VEC(I) = VECTOR(CH_XFORMAT.JOBNAME#) ;
     2846    10757    2                 F_FDS.NVECS# = I + 1 ;
     2847    10758
PL6.E3A0      #002=CPK$CHECK_OUTPUT File=CPK$CHECK.:E05TSI                       TUE 07/29/97 11:57 Page:391
     2848    10759    2             CASE(%CP_COMPLETED_MESS) ;
     2849    10760    2               I = 0 ;
     2850    10761    2               IF (CH_XFORMAT.SYSID# ~= 0)
     2851    10762    2                 THEN
     2852    10763    3                   DO ;                          /* SYSID */
     2853    10764    3                     F_FDS.FMT_ = VECTOR(COMPLETED_FMT2) ;
     2854    10765    3                     FMT_VEC(0) = VECTOR(CH_XFORMAT.SYSID#) ;
     2855    10766    3                     I = 1 ;
     2856    10767    3                   END ; /* THEN DO */
     2857    10768    2                 ELSE F_FDS.FMT_ = VECTOR(COMPLETED_FMT1) ;   /* No SYSID */
     2858    10769    2                 FMT_VEC(I) = VECTOR(CH_XFORMAT.JOBNAME#) ;
     2859    10770    2                 F_FDS.NVECS# = I + 1 ;
     2860    10771
     2861    10772    2             CASE(%CP_DOESNT_EXIST_MESS) ;
     2862    10773    2               F_FDS.FMT_ = VECTOR(FMT1) ;
     2863    10774    2               FMT_VEC(0) = VECTOR(CH_XFORMAT.SYSID#) ;
     2864    10775    2               FMT_VEC(1) = VECTOR(CH_XFORMAT.NUM#) ;
     2865    10776    2               FMT_VEC(2) = VECTOR(CH_XFORMAT.JOBNAME#) ;
     2866    10777    2               FMT_VEC(3) = VECTOR(CH_XFORMAT.ACCT#) ;
     2867    10778    2               IF (CH_XFORMAT.COMMENT# ~= ' ')
     2868    10779    2                 THEN
     2869    10780    3                   DO ;
     2870    10781    3                     I = 4 ;
     2871    10782    3                     FMT_VEC(4) = VECTOR(CH_XFORMAT.COMMENT#) ;
     2872    10783    3                   END ; /* THEN DO */
     2873    10784    2                 ELSE I = 3 ;
     2874    10785    2               F_FDS.NVECS# = I + 1 ;
     2875    10786
     2876    10787
     2877    10788    2             CASE(%CP_FINAL_STAT_MESS) ;
     2878    10789    2               CALL OUTPUT_FINAL_STATUS ;
     2879    10790
     2880    10791    2             CASE(%CP_TIME_DI_MESS,
     2881    10792    2                   %CP_TIME_DI_W_BELL_MESS) ;
     2882    10793    2               FPT_DISPLAY = CFPT_DISPLAY ;
     2883    10794    2               FPT_DISPLAY.RESULTS_ = VECTOR(VLR_DISPLAY) ;
     2884    10795    2               CALL M$DISPLAY (FPT_DISPLAY) ;
PL6.E3A0      #002=CPK$CHECK_OUTPUT File=CPK$CHECK.:E05TSI                       TUE 07/29/97 11:57 Page:392
     2885    10796    2               FPT_TIME = CFPT_TIME ;
     2886    10797    2               FPT_TIME.V_ = VECTOR(FPT_TIME.V) ;
     2887    10798    2               FPT_TIME.TSTAMP_ = VECTOR(UTS) ;
     2888    10799    2               CALL M$TIME(FPT_TIME) ;
     2889    10800    2               F_FDS.FMT_ = VECTOR(TIME_DI_MESS_HDR) ;
     2890    10801    2               FMT_VEC(0) = VECTOR(UTS) ;
     2891    10802    2               FMT_VEC(1) = VECTOR(VLR_DISPLAY.USERS) ;
     2892    10803    2               FMT_VEC(2) = VECTOR(VLR_DISPLAY.ETMF) ;
     2893    10804    2               FMT_VEC(3) = VECTOR(VLR_DISPLAY.RESP) ;
     2894    10805    2               IF CH_XFORMAT.MSG# = %CP_TIME_DI_MESS
     2895    10806    2                 THEN
     2896    10807    2                   F_FDS.NVECS# = 4 ;
     2897    10808    2                 ELSE
     2898    10809    3                   DO ;
     2899    10810    3                     FMT_VEC(4) = VECTOR(BELL) ;
     2900    10811    3                     F_FDS.NVECS# = 5 ;
     2901    10812    3                   END ; /* Else Do */
     2902    10813
     2903    10814    2             CASE(%CP_BLANKLINE_MESS) ;
     2904    10815    2               F_FDS.FMT_ = VECTOR(BLANK_FMT) ;
     2905    10816    2               F_FDS.NVECS# = 0 ;
     2906    10817
     2907    10818    2             CASE(%CP_NO_TERM_OUT_MESS) ;
     2908    10819    2               F_FDS.FMT_ = VECTOR(NO_TERM_OUT_HDR) ;
     2909    10820    2               FMT_VEC(0) = VECTOR(CH_XFORMAT.SYSID#) ;
     2910    10821    2               F_FDS.NVECS# = 1 ;
     2911    10822
     2912    10823    2             CASE(%CP_HELD_LINE) ;
     2913    10824    2               F_FDS.FMT_ = VECTOR(HELD_LINE_FMT) ;
     2914    10825    2               F_FDS.NVECS# = 0 ;
     2915    10826
     2916    10827    2             CASE(ELSE) ;
     2917    10828    2               F_FDS.FMT_ = VECTOR(NO_SUCH_MESS_HDR) ;
     2918    10829
     2919    10830    2         END ; /* DO CASE */
     2920    10831
     2921    10832    1         CALL X$FORMAT(F_FDS) ;
PL6.E3A0      #002=CPK$CHECK_OUTPUT File=CPK$CHECK.:E05TSI                       TUE 07/29/97 11:57 Page:393
     2922    10833    1         IF ADDR(NLINES) ~= ADDR(NIL)
     2923    10834    1             THEN
     2924    10835    2               DO ;
     2925    10836    2                 NCHARS = F_FDS.WRITEFPT$->FPT$WRITE.BUF_.BOUND+1 ;
     2926    10837    2                 WIDTH = DCBADDR(SEG2$->SEG$2.LLDCB#)->F$DCB.WIDTH# ;
     2927    10838    2                 IF WIDTH = 0
     2928    10839    2                   THEN
     2929    10840    3                     DO ;
     2930    10841    3                       NCHARS = 0 ;
     2931    10842    3                       NLINES = 1 ;
     2932    10843    3                     END ; /* Then Do */
     2933    10844    2                   ELSE
     2934    10845    2                     NLINES = 0 ;
     2935    10846    3                 DO WHILE(NCHARS > 0) ;
     2936    10847    3                   IF NCHARS > WIDTH
     2937    10848    3                     THEN
     2938    10849    3                       NCHARS = NCHARS - WIDTH ;
     2939    10850    3                     ELSE
     2940    10851    3                       NCHARS = 0 ;
     2941    10852    3                   NLINES = NLINES + 1 ;
     2942    10853    3                 END ; /* Do While */
     2943    10854    2               END ; /* Then Do */
     2944    10855    1         RETURN ;
     2945    10856        %EJECT ;
PL6.E3A0      #002=CPK$CHECK_OUTPUT File=CPK$CHECK.:E05TSI                       TUE 07/29/97 11:57 Page:394
     2946    10857    1   CONVERT_TIME: PROC(CSECS,TIME_BUF) ;
     2947    10858
     2948    10859        /***** Parameters *****/
     2949    10860
     2950    10861    2   DCL CSECS SBIN WORD ;      /* A time value in centi-seconds */
     2951    10862    2   DCL TIME_BUF CHAR(8) ;
     2952    10863    2   DCL 1 TIME_ REDEF TIME_BUF,
     2953    10864    2         2 HR  CHAR(2),
     2954    10865    2         2 *   CHAR(1),
     2955    10866    2         2 MIN CHAR(2),
     2956    10867    2         2 *   CHAR(1),
     2957    10868    2         2 SEC CHAR(2);
     2958    10869
     2959    10870        /***** Auto *****/
     2960    10871
     2961    10872    2   DCL I UBIN WORD ;
     2962    10873    2   DCL HOUR SBIN WORD ;
     2963    10874    2   DCL MIN SBIN WORD ;
     2964    10875    2   DCL SEC SBIN WORD ;
     2965    10876
     2966    10877        /***** Procedure *****/
     2967    10878
     2968    10879    2               SEC = CSECS/100 ;
     2969    10880    2               MIN = SEC/60 ;
     2970    10881    2               HOUR = MIN/60;
     2971    10882
     2972    10883    2               TIME_BUF = '**:**:**';
     2973    10884    2               CALL BINCHAR(TIME_.HR, HOUR) ;
     2974    10885    2               CALL BINCHAR(TIME_.MIN, MOD(MIN,60));
     2975    10886    2               CALL BINCHAR(TIME_.SEC, MOD(SEC,60));
     2976    10887
     2977    10888                    /* Now trim off hours and tens of minutes off the string
     2978    10889                       if we can (ie. they're zero).                        */
     2979    10890
     2980    10891    2               IF (MIN <= 9) THEN SUBSTR (TIME_BUF, 0, 4) = '    ';
     2981    10892    2               ELSE IF (HOUR = 0) THEN SUBSTR (TIME_BUF, 0, 3) = '   ';
     2982    10893    2               ELSE IF (HOUR <= 9) THEN SUBSTR (TIME_BUF, 0, 1) = ' ';
PL6.E3A0      #002=CPK$CHECK_OUTPUT File=CPK$CHECK.:E05TSI                       TUE 07/29/97 11:57 Page:395
     2983    10894    2               RETURN ;
     2984    10895
     2985    10896    2   END   CONVERT_TIME ;
     2986    10897
     2987    10898        %EJECT ;
PL6.E3A0      #002=CPK$CHECK_OUTPUT File=CPK$CHECK.:E05TSI                       TUE 07/29/97 11:57 Page:396
     2988    10899    1   GET_OUTPUT_TYPE:    PROC(VEC#,TYPE_ARRY) ;
     2989    10900
     2990    10901        /***** Parameters *****/
     2991    10902
     2992    10903    2   DCL VEC# UBIN WORD ;
     2993    10904    2   DCL TYPE_ARRY (0:6) CHAR(8) UNAL ;
     2994    10905
     2995    10906        /***** Constants *****/
     2996    10907    2   DCL DEV_TYPES (0:4) CHAR(4) CONSTANT INIT ('LP','CP','JE','PL','PR') ;
     2997    10908    2   DCL DEV_TYPES_STR REDEF DEV_TYPES CHAR(20) ;
     2998    10909
     2999    10910        /***** Auto *****/
     3000    10911
     3001    10912    2   DCL TYPE_NUM UBIN WORD ;
     3002    10913
     3003    10914        /***** Procedure *****/
     3004    10915
     3005    10916    2         DEVTYPE = BUF$ -> VLA$OUTPUT.DEVTYP ;
     3006    10917    2         CALL INDEX(TYPE_NUM,DEVTYPE,DEV_TYPES_STR) ;
     3007    10918    2         FMT_VEC(VEC#) = VECTOR(TYPE_ARRY(TYPE_NUM/4)) ;
     3008    10919
     3009    10920    2         RETURN ;
     3010    10921    2   END   GET_OUTPUT_TYPE ;
     3011    10922        %EJECT ;
PL6.E3A0      #002=CPK$CHECK_OUTPUT File=CPK$CHECK.:E05TSI                       TUE 07/29/97 11:57 Page:397
     3012    10923    1   OUTPUT_FINAL_STATUS:  PROC ;
     3013    10924
     3014    10925    2         FMT_VEC(0) = VECTOR(CH_XFORMAT.SYSID#) ;
     3015    10926    2         FMT_VEC(1) = VECTOR(CH_XFORMAT.JOBNAME#) ;
     3016    10927    2         FMT_VEC(2) = VECTOR(CH_XFORMAT.ACCT#) ;
     3017    10928
     3018    10929    2         STEPCC = CH_XFORMAT.BUF$ -> XSJ$JOBINFO.STEPCC# ;
     3019    10930    2         STEPCC_ = VECTOR(NIL) ;
     3020    10931    2         RECNO_ = VECTOR(CH_XFORMAT.BUF$ -> XSJ$JOBINFO.RECNO#) ;
     3021    10932    3         DO CASE(CH_XFORMAT.BUF$ -> XSJ$JOBINFO.STATUS#) ;
     3022    10933
     3023    10934    3             CASE(%MBS_DELETED#) ;
     3024    10935    3               FMT_VEC(3) = MBS_DELETED_ ;
     3025    10936
     3026    10937    3             CASE(%MBS_CANCELED#) ;
     3027    10938    3               FMT_VEC(3) = MBS_CANCELED_ ;
     3028    10939
     3029    10940    3             CASE(%MBS_SHAFTED#) ;
     3030    10941    3               FMT_VEC(3) = MBS_SHAFTED_ ;
     3031    10942
     3032    10943    3             CASE(%MBS_FILERR#) ;
     3033    10944    3               FMT_VEC(3) = MBS_FILERR_ ;
     3034    10945
     3035    10946    3             CASE(%PRE_PASSED#) ;
     3036    10947    3               FMT_VEC(3) = PRE_PASSED_ ;
     3037    10948
     3038    10949    3             CASE(%REJ_JOB#) ;
     3039    10950    3               FMT_VEC(4) = REJ_JOB_ ;
     3040    10951    3               GOTO REJECTED_MSG ;
     3041    10952
     3042    10953    3             CASE(%REJ_RES#) ;
     3043    10954    3               FMT_VEC(4) = REJ_RES_ ;
     3044    10955    3               GOTO REJECTED_MSG ;
     3045    10956
     3046    10957    3             CASE(%REJ_SYNTAX#) ;
     3047    10958    3               FMT_VEC(4) = REJ_SYNTAX_ ;
     3048    10959    3               GOTO REJECTED_MSG ;
PL6.E3A0      #002=CPK$CHECK_OUTPUT File=CPK$CHECK.:E05TSI                       TUE 07/29/97 11:57 Page:398
     3049    10960
     3050    10961    3             CASE(%REJ_IO#) ;
     3051    10962    3               FMT_VEC(4) = REJ_IO_ ;
     3052    10963    3               GOTO REJECTED_MSG ;
     3053    10964
     3054    10965    3             CASE(%REJ_JOBIMBED#) ;
     3055    10966    3               FMT_VEC(4) = REJ_JOBIMBED_ ;
     3056    10967    3               GOTO REJECTED_MSG ;
     3057    10968
     3058    10969    3             CASE(%REJ_BADID#) ;
     3059    10970    3               FMT_VEC(4) = REJ_BADID_ ;
     3060    10971    3               GOTO REJECTED_MSG ;
     3061    10972
     3062    10973    3             CASE(%REJ_NORES#) ;
     3063    10974    3               FMT_VEC(4) = REJ_NORES_ ;
     3064    10975    3               GOTO REJECTED_MSG ;
     3065    10976
     3066    10977    3             CASE(%REJ_PRESCAN#) ;
     3067    10978    3               FMT_VEC(4) = REJ_PRESCAN_ ;
     3068    10979    3               GOTO REJECTED_MSG ;
     3069    10980
     3070    10981    3             CASE(%REJ_RESIMBED#) ;
     3071    10982    3               FMT_VEC(4) = REJ_RESIMBED_ ;
     3072    10983    3               GOTO REJECTED_MSG ;
     3073    10984
     3074    10985    3             CASE(%REJ_NOBATCH#) ;
     3075    10986    3               FMT_VEC(4) = REJ_NOBATCH_ ;
     3076    10987    3               GOTO REJECTED_MSG ;
     3077    10988
     3078    10989    3             CASE(%FIN_RECOVER#) ;
     3079    10990    3               FMT_VEC(3) = FIN_RECOVER_ ;
     3080    10991
     3081    10992    3             CASE(%FIN_ABNORMAL#) ;
     3082    10993    3               IF (CH_XFORMAT.BUF$->XSJ$JOBINFO.FRS# = %RS_CAN#)
     3083    10994    3                 THEN FMT_VEC(3) = RS_CAN_ ;
     3084    10995    3                 ELSE
     3085    10996    4                   DO ;
PL6.E3A0      #002=CPK$CHECK_OUTPUT File=CPK$CHECK.:E05TSI                       TUE 07/29/97 11:57 Page:399
     3086    10997    4                     START = 0 ;
     3087    10998    4                     CALL GETBIT(CH_XFORMAT.BUF$->XSJ$JOBINFO.FRS#,START)
     3088    10999    4                         ALTRET(NOFRS) ;
     3089    11000    4                     FMT_VEC(3) = RS__(BITSET) ;
     3090    11001    4                     IF FMT_VEC(3) = VECTOR(RS_LIMX)
     3091    11002    4                       THEN
     3092    11003    4                         CALL SETUP_LIMIT_VECTOR(CH_XFORMAT.BUF$->
     3093    11004    4                                                         XSJ$JOBINFO.XLIMFLG#)
     3094    11005    5                                                 WHENRETURN DO ;
     3095    11006    5                                                   GOTO ADD_COMMENT ;
     3096    11007    5                                                 END ; /* Whenreturn Do */
     3097    11008    5                                                 WHENALTRETURN DO ;
     3098    11009    5                                                   GOTO SIMPLE_MSG ;
     3099    11010    5                                                 END ; /* Whenaltreturn Do */
     3100    11011    4                   END ; /* THEN DO */
     3101    11012
     3102    11013    3             CASE(%FIN_COMPLETED#) ;
     3103    11014    3               FMT_VEC(3) = FIN_COMPLETED_ ;
     3104    11015    3               IF STEPCC ~= 0
     3105    11016    3                 THEN STEPCC_ = VECTOR(STEPCC) ;
     3106    11017
     3107    11018    3             CASE( ELSE ) ;
     3108    11019    3               FMT_VEC(3) = FIN_ABNORMAL_UNKNOWN_ ;
     3109    11020
     3110    11021    3         END ; /* DO CASE */
     3111    11022
     3112    11023    3         DO WHILE ('0'B) ;
     3113    11024    3   NOFRS:    FMT_VEC(3) = FIN_ABNORMAL_ ;
     3114    11025    3             IF STEPCC ~= 0
     3115    11026    3               THEN STEPCC_ = VECTOR(STEPCC) ;
     3116    11027    3         END ; /* DO WHILE */
     3117    11028
     3118    11029    2   SIMPLE_MSG:
     3119    11030
     3120    11031    2         FMT_VEC(4) = VECTOR(CH_XFORMAT.BUF$->XSJ$JOBINFO.OFF_TIME#) ;
     3121    11032    2         IF STEPCC_ = VECTOR(NIL)
     3122    11033    2             THEN
PL6.E3A0      #002=CPK$CHECK_OUTPUT File=CPK$CHECK.:E05TSI                       TUE 07/29/97 11:57 Page:400
     3123    11034    3               DO ;
     3124    11035    3                 I = 4 ;
     3125    11036    3                 F_FDS.FMT_ = FMTVEC_ ;
     3126    11037    3               END ; /* THEN DO */
     3127    11038    2             ELSE
     3128    11039    3               DO ;
     3129    11040    3                 FMT_VEC(5) = STEPCC_ ;
     3130    11041    3                 I = 5 ;
     3131    11042    3                 F_FDS.FMT_ = FMTVEC1_ ;
     3132    11043    3               END ; /* ELSE DO */
     3133    11044
     3134    11045    3         DO WHILE('0'B) ;
     3135    11046
     3136    11047    3   REJECTED_MSG:
     3137    11048    3             FMT_VEC(3) = RECNO_ ;
     3138    11049    3             FMT_VEC(5) = VECTOR(CH_XFORMAT.BUF$ -> XSJ$JOBINFO.OFF_TIME#) ;
     3139    11050    3             I = 5 ;
     3140    11051    3             F_FDS.FMT_ = FMTVEC2_ ;
     3141    11052    3         END ; /* DO WHILE */
     3142    11053
     3143    11054    2   ADD_COMMENT:
     3144    11055    2         IF (CH_XFORMAT.COMMENT# ~= ' ')
     3145    11056    2             THEN
     3146    11057    3               DO ;
     3147    11058    3                 FMT_VEC(I+1) = VECTOR(CH_XFORMAT.COMMENT#) ;
     3148    11059    3                 I = I + 1 ;
     3149    11060    3               END ; /* THEN DO */
     3150    11061    2         F_FDS.NVECS# = I + 1 ;
     3151    11062
     3152    11063    2         RETURN ;
     3153    11064
     3154    11065        %EJECT ;
PL6.E3A0      #002=CPK$CHECK_OUTPUT File=CPK$CHECK.:E05TSI                       TUE 07/29/97 11:57 Page:401
     3155    11066    2   GETBIT:   PROC (MASK, START) ALTRET ;
     3156    11067
     3157    11068    3   DCL MASK(0:8) BIT(1) UNAL ;
     3158    11069    3   DCL START UBIN WORD ;
     3159    11070
     3160    11071    4         DO BITSET = START TO 8;
     3161    11072    4             IF MASK(8-BITSET)
     3162    11073    4               THEN RETURN ;
     3163    11074    4         END ; /* DO BITSET */
     3164    11075
     3165    11076    3         ALTRETURN ;
     3166    11077
     3167    11078    3   END   GETBIT ;
     3168    11079        %EJECT ;
PL6.E3A0      #002=CPK$CHECK_OUTPUT File=CPK$CHECK.:E05TSI                       TUE 07/29/97 11:57 Page:402
     3169    11080    2   SETUP_LIMIT_VECTOR: PROC(MASK) ALTRET ;
     3170    11081
     3171    11082    3   DCL MASK BIT(9) UNAL ;
     3172    11083    3   DCL CHR_POS UBIN WORD ;
     3173    11084    3   DCL EXTRA_SZ UBIN WORD ;
     3174    11085    3   DCL NOT_DONE BIT(1) ;
     3175    11086    3   DCL RETFLG BIT(1) ;
     3176    11087
     3177    11088    3         LIMIT_BUF = LIMIT_FMT_BUF ;
     3178    11089    3         CHR_POS = SIZEC(LIMIT_FMT_BUF) ;
     3179    11090    3         EXTRA_SZ = SIZEC(EXTRA_LIMITS_FMT) ;
     3180    11091    3         NOT_DONE = %YES# ;
     3181    11092    3         I = 3 ;
     3182    11093
     3183    11094    4         DO WHILE(NOT_DONE) ;
     3184    11095    5             CALL GETBIT(MASK, START) WHENRETURN DO ;
     3185    11096    5                             FMT_VEC(I) = XL__(BITSET) ;
     3186    11097    5                             IF I > 3
     3187    11098    5                               THEN
     3188    11099    6                                 DO ;
     3189    11100    6                                   SUBSTR(LIMIT_BUF,CHR_POS,EXTRA_SZ) =
     3190    11101    6                                           EXTRA_LIMITS_FMT ;
     3191    11102    6                                   CHR_POS = CHR_POS + EXTRA_SZ ;
     3192    11103    6                                 END ; /* Then Do */
     3193    11104    5                             START = BITSET + 1 ;
     3194    11105    5                             IF START > 8
     3195    11106    5                               THEN
     3196    11107    5                                 NOT_DONE = %NO# ;
     3197    11108    5                             I = I + 1 ;
     3198    11109    5                           END ; /* Whenreturn Do */
     3199    11110    5                           WHENALTRETURN DO ;
     3200    11111    5                             NOT_DONE = %NO# ;
     3201    11112    5                             IF I = 3
     3202    11113    5                               THEN
     3203    11114    5                                   RETFLG = %NO# ;
     3204    11115    5                               ELSE
     3205    11116    5                                   RETFLG = %YES# ;
PL6.E3A0      #002=CPK$CHECK_OUTPUT File=CPK$CHECK.:E05TSI                       TUE 07/29/97 11:57 Page:403
     3206    11117    5                           END ; /* Whenaltreturn Do */
     3207    11118    4         END ; /* Do While */
     3208    11119
     3209    11120    3         IF NOT RETFLG
     3210    11121    3             THEN
     3211    11122    3               ALTRETURN ;
     3212    11123
     3213    11124    3         SUBSTR(LIMIT_BUF,CHR_POS) = LIMIT_COMMENT_FMT ;
     3214    11125    3         I = I - 1 ;
     3215    11126    3         F_FDS.FMT_ = VECTOR(LIMIT_BUF) ;
     3216    11127    3         RETURN ;
     3217    11128
     3218    11129    3   END   SETUP_LIMIT_VECTOR ;
     3219    11130    2   END   OUTPUT_FINAL_STATUS ;
     3220    11131        %EJECT ;
PL6.E3A0      #002=CPK$CHECK_OUTPUT File=CPK$CHECK.:E05TSI                       TUE 07/29/97 11:57 Page:404
     3221    11132    1   OUTPUT_SYSID_IN_AND_RUN: PROC ;
     3222    11133
     3223    11134    2         FMT_VEC(0) = VECTOR(BUF$->VLA$INPUT.SYSID) ;
     3224    11135    2         FMT_VEC(1) = VECTOR(BUF$->VLA$INPUT.JNAME) ;
     3225    11136    2         FMT_VEC(2) = VECTOR(BUF$->VLA$INPUT.ACCT) ;
     3226    11137    2         I = 2 ;
     3227    11138    3         DO CASE(CH_XFORMAT.MSG#) ;
     3228    11139
     3229    11140    3             CASE(%CP_SYSID_RUN_MESS) ;
     3230    11141    3               F_FDS.FMT_ = VECTOR(SYSID_RUN_MESS_FMT) ;
     3231    11142    3               STATE_BUF = '0'B ;
     3232    11143    3               STATE_BUF.ESC_Q = ' ' ;
     3233    11144    3               STATE_BUF.TIME_REMAIN = BUF$ -> VLA$INPUT.TIM ;
     3234    11145    3               FPT_STATE.V_ = VECTOR(FPT_STATE.V) ;
     3235    11146    3               FPT_STATE.BUF_ = VECTOR(STATE_BUF) ;
     3236    11147    3               FPT_STATE.V.SYSID# = BUF$ -> VLA$INPUT.SYSID ;
     3237    11148
     3238    11149    3               CALL M$STATE(FPT_STATE) ALTRET (STATE_ERR) ;
     3239    11150    3   STATE_ERR:
     3240    11151    3               CALL CONVERT_TIME(STATE_BUF.TIME_REMAIN,TIME_BUF) ;
     3241    11152    3               FMT_VEC(I+1) = VECTOR(TIME_BUF) ;
     3242    11153    3               CALL CONVERT_TIME(STATE_BUF.TIME_USED,TIME_BUF1) ;
     3243    11154    3               FMT_VEC(I+2) = VECTOR(TIME_BUF1) ;
     3244    11155    3               I = I + 2 ;
     3245    11156
     3246    11157    3             CASE(%CP_SYSID_FOLL_MESS) ;
     3247    11158    3               F_FDS.FMT_ = VECTOR(SYSID_FOLL_MESS_FMT) ;
     3248    11159    3               NFOLL = BUF$ -> VLA$INPUT.NFOLL - 1 ;
     3249    11160    3               FMT_VEC(I+1) = VECTOR(BUF$ -> VLA$INPUT.JDID.SYSID(0)) ;
     3250    11161    3               FMT_VEC(I+2) = VECTOR(NFOLL) ;
     3251    11162    3               I = I + 2 ;
     3252    11163    4               DO II = 1 TO NFOLL ;
     3253    11164    4                 I = I + 1 ;
     3254    11165    4                 FMT_VEC(I) = VECTOR(BUF$ -> VLA$INPUT.JDID.SYSID(II)) ;
     3255    11166    4               END ; /* DO I */
     3256    11167
     3257    11168    3             CASE(%CP_SYSID_RUNAFTER_MESS) ;
PL6.E3A0      #002=CPK$CHECK_OUTPUT File=CPK$CHECK.:E05TSI                       TUE 07/29/97 11:57 Page:405
     3258    11169    3               F_FDS.FMT_ = VECTOR(SYSID_DEFERRED_MESS_FMT) ;
     3259    11170    3               FMT_VEC(I+1) = VECTOR(BUF$->VLA$INPUT.RATIM) ;
     3260    11171    3               I = I + 1 ;
     3261    11172
     3262    11173    3             CASE(%CP_SYSID_WPART_MESS) ;
     3263    11174    3               F_FDS.FMT_ = VECTOR(SYSID_WPART_MESS_FMT) ;
     3264    11175
     3265    11176    3             CASE(%CP_SYSID_OTHER_MESS) ;
     3266    11177    3               F_FDS.FMT_ = VECTOR(SYSID_OTHER_MESS_FMT) ;
     3267    11178
     3268    11179    3             CASE(%CP_SYSID_WPS_MESS) ;
     3269    11180    3               F_FDS.FMT_ = VECTOR(SYSID_WPS_MESS_FMT) ;
     3270    11181
     3271    11182    3             CASE(%CP_SYSID_WAIT_MESS) ;
     3272    11183    3               F_FDS.FMT_ = VECTOR(SYSID_WAIT_MESS_FMT) ;
     3273    11184    3               FMT_VEC(I+1) = VECTOR(BUF$->VLA$INPUT.AHEAD) ;
     3274    11185    3               FMT_VEC(I+2) = VECTOR(BUF$->VLA$INPUT.PRIO) ;
     3275    11186    3               I = I + 2 ;
     3276    11187
     3277    11188    3         END ; /* DO CASE */
     3278    11189
     3279    11190    2         IF (CH_XFORMAT.COMMENT# ~= ' ')
     3280    11191    2           THEN
     3281    11192    3             DO ;
     3282    11193    3               FMT_VEC(I+1) = VECTOR(CH_XFORMAT.COMMENT#) ;
     3283    11194    3               I = I + 1 ;
     3284    11195    3             END ; /* THEN DO */
     3285    11196    2         F_FDS.NVECS# = I + 1 ;
     3286    11197
     3287    11198    2         RETURN ;
     3288    11199
     3289    11200    2   END   OUTPUT_SYSID_IN_AND_RUN ;
     3290    11201        %EJECT ;
PL6.E3A0      #002=CPK$CHECK_OUTPUT File=CPK$CHECK.:E05TSI                       TUE 07/29/97 11:57 Page:406
     3291    11202    1   OUTPUT_SYSID_OQ:    PROC ;
     3292    11203
     3293    11204    2         FMT_VEC(0) = VECTOR(BUF$ -> VLA$OUTPUT.SYSID) ;
     3294    11205    2         FMT_VEC(1) = VECTOR(BUF$ -> VLA$OUTPUT.NUM) ;
     3295    11206    2         FMT_VEC(2) = VECTOR(BUF$ -> VLA$OUTPUT.JNAME) ;
     3296    11207    2         FMT_VEC(3) = VECTOR(BUF$ -> VLA$OUTPUT.ACCT) ;
     3297    11208    2         I = 3 ;
     3298    11209    2         II = 16 ;
     3299    11210    2         FMT_BUF = '%D-%D %<>A.%<>A' ;
     3300    11211    2         IF (BUF$->VLA$OUTPUT.DEVNAME = ' ')
     3301    11212    2           THEN                                             /* Waiting to be output. */
     3302    11213    3             DO ;
     3303    11214    3               CALL GET_OUTPUT_TYPE(5,SH_OUT_TYPE_ARRY) ;
     3304    11215    3               I = 5 ;
     3305    11216    3               CALL INSERT(FMT_BUF,II,8,'waiting') ;
     3306    11217    3               II = II + 8 ;
     3307    11218    3               IF (BUF$ -> VLA$OUTPUT.FLG.DEVAVAIL)
     3308    11219    3                 THEN
     3309    11220    4                   DO ;
     3310    11221    4                     NUM_AHEAD = BUF$ -> VLA$OUTPUT.AHEAD ;
     3311    11222    4                     FMT_VEC(4) = VECTOR(NUM_AHEAD) ;
     3312    11223    4                     CALL INSERT(FMT_BUF,II,11,'%D to %<>A') ;
     3313    11224    4                     II = II + 11 ;
     3314    11225    4                   END ; /* THEN DO */
     3315    11226    3                 ELSE
     3316    11227    4                   DO ;                                  /* Waiting NODEV. */
     3317    11228    4                     FMT_VEC(4) = VECTOR(NODEV_HDR) ;
     3318    11229    4                     CALL INSERT(FMT_BUF,II,13,'%<>A to %<>A') ;
     3319    11230    4                     II = II + 13 ;
     3320    11231    4                   END ; /* ELSE DO */
     3321    11232    3                   CALL INSERT(FMT_BUF,II,3,'on') ;
     3322    11233    3                   II = II + 3 ;
     3323    11234    3             END ; /* THEN DO */
     3324    11235    2           ELSE
     3325    11236    3             DO ;                                        /* Being output. */
     3326    11237    3                 CALL GET_OUTPUT_TYPE(4,LC_OUT_TYPE_ARRY) ;
     3327    11238    3                 I = 4 ;
PL6.E3A0      #002=CPK$CHECK_OUTPUT File=CPK$CHECK.:E05TSI                       TUE 07/29/97 11:57 Page:407
     3328    11239    3                 CALL INSERT(FMT_BUF,II,8,'%<>A on') ;
     3329    11240    3                 II = II + 8 ;
     3330    11241    3               END ; /* ELSE DO */
     3331    11242    2         FMT_VEC(I+1) = VECTOR(BUF$ -> VLA$OUTPUT.DEVTYP) ;
     3332    11243    2         FMT_VEC(I+2) = VECTOR(BUF$ -> VLA$OUTPUT.DEVNAME) ;
     3333    11244    2         IF BUF$->VLA$OUTPUT.DEVNAME = ' '
     3334    11245    2             THEN
     3335    11246    2               FMT_VEC(I+3) = VECTOR(BUF$ -> VLA$OUTPUT.WOD) ;
     3336    11247    2             ELSE
     3337    11248    2               FMT_VEC(I+3) = VECTOR(BUF$ -> VLA$OUTPUT.TNAME) ;
     3338    11249    2         I = I + 3 ;
     3339    11250    2         CALL INSERT(FMT_BUF,II,13,'%<>A%<>A@%<>A') ;
     3340    11251    2         II = II + 13 ;
     3341    11252    2         STEPCC = CH_XFORMAT.STAT$ -> XSJ$JOBINFO.STEPCC# ;
     3342    11253    2         IF STEPCC ~= 0
     3343    11254    2             THEN
     3344    11255    3               DO ;
     3345    11256    3                 FMT_VEC(I+1) = VECTOR(STEPCC) ;
     3346    11257    3                 CALL INSERT(FMT_BUF,II,15,' with STEPCC=%D') ;
     3347    11258    3                 II = II + 15 ;
     3348    11259    3                 I = I + 1 ;
     3349    11260    3               END ; /* THEN DO */
     3350    11261    2         IF (CH_XFORMAT.COMMENT# ~= ' ')
     3351    11262    2           THEN
     3352    11263    3             DO ;
     3353    11264    3               FMT_VEC(I+1) = VECTOR(CH_XFORMAT.COMMENT#) ;
     3354    11265    3               I = I + 1 ;
     3355    11266    3               CALL INSERT(FMT_BUF,II,7,' - %<>A') ;
     3356    11267    3               II = II + 7 ;
     3357    11268    3             END ; /* THEN DO */
     3358    11269    2         F_FDS.NVECS# = I + 1 ;
     3359    11270    2         F_FDS.FMT_ = VECTOR(FMT_BUF) ;
     3360    11271
     3361    11272    2         RETURN ;
     3362    11273
     3363    11274    2   END   OUTPUT_SYSID_OQ ;
     3364    11275    1   END   CPK$CHECK_OUTPUT ;
PL6.E3A0      #002=CPK$CHECK_OUTPUT File=CPK$CHECK.:E05TSI                       TUE 07/29/97 11:57 Page:408
     3365    11276        %EOD ;

PL6.E3A0      #002=CPK$CHECK_OUTPUT File=CPK$CHECK.:E05TSI                       TUE 07/29/97 11:57 Page:409
--  Include file information  --

   NK_VFC_C.:E05TOU  is referenced.
   XSJ_SUBS_C.:E05TOU  is referenced.
   XSJ_MAC_C.:E05TOU  is referenced.
   XU_FORMAT_C.:E05TOU  is referenced.
   OC$MESSHD_C.:E05TOU  is referenced.
   B_ERRORS_C.:E05TOU  is referenced.
   CP_DATA_R.:E05TOU  cannot be made into a system file and is referenced.
   XU_MACRO_C.:E05TOU  is referenced.
   CP_MACROS_C.:E05TOU  is referenced.
   CP_SUBS_C.:E05TOU  is referenced.
   CP_6_SUBS.:E05TOU  is referenced.
   CP_6.:E05TOU  cannot be made into a system file and is referenced.
   B$JIT.:E05TOU  cannot be made into a system file and is referenced.
   B$JIT_C.:E05TOU  was found in the system file and is referenced.
   CP_6_C.:E05TOU  was found in the system file and is referenced.
      No diagnostics issued in procedure CPK$CHECK_OUTPUT.

   Procedure CPK$CHECK_OUTPUT requires 1651 words for executable code.
   Procedure CPK$CHECK_OUTPUT requires 338 words of local(AUTO) storage.

PL6.E3A0      #002=CPK$CHECK_OUTPUT File=CPK$CHECK.:E05TSI                       TUE 07/29/97 11:57 Page:410

 Object Unit name= CPK$CHECK_OUTPUT                           File name= CPK$CHECK.:E05TOU
 UTS= JUL 29 '97 11:57:00.32 TUE                              Compiler= PL-6/E31         Sev=      00
 SharedLib= :SHARED_SYSTEM                                    Alt SharedLib=


    ****  Control sections  ****

 Sect   Type Bound  Init  Size OctSiz  Section name(segment info)
    0   DCB   even  none     0      0  M$UC
    1  RoData even  UTS    806   1446  CPK$CHECK_OUTPUT
    2   Proc  even  none  1651   3163  CPK$CHECK_OUTPUT
    3  RoData even  none   118    166  CPK$CHECK_OUTPUT

    ****  Entry defs  ****

                              Check   Calling
                             calling  sequence
  Sect OctLoc Primary Altret sequence   type   Parms  Name
     2      0   yes            yes      Std        2  CPK$CHECK_OUTPUT

  ****  Entry refs  ****

         Check        Calling
        calling       sequence
Altret sequence SRef   type   Args  Name
 yes     yes           Std       2 CPK$FDS_OUTPUT
         yes           Std       1 X$FORMAT
                       nStd      0 X66_AUTO_2
                       Std       0 B_CONSPOOL_D
                       nStd      0 X66_ARET
PL6.E3A0      #002=CPK$CHECK_OUTPUT File=CPK$CHECK.:E05TSI                       TUE 07/29/97 11:57 Page:411

  ****  Data refs  ****

  Flags:  r = read only, s = secondary
Flgs Name                             Flgs Name                             Flgs Name
     M$UC                                  CFPT_TIME                             CFPT_DISPLAY
r    SEG2$                            r    B$JIT$                                B_VECTNIL

  ****  Segment refs  ****

  Flags:  r = read only, s = secondary
Flgs Name                             Flgs Name                             Flgs Name
     NULLSID                               ISSID                                 ROSID
PL6.E3A0      #002=CPK$CHECK_OUTPUT File=CPK$CHECK.:E05TSI                       TUE 07/29/97 11:57 Page:412


     2333        1        /*T***********************************************************/
     2334        2        /*T*                                                         */
     2335        3        /*T* Copyright (c) Bull HN Information Systems Inc., 1997    */
     2336        4        /*T*                                                         */
     2337        5        /*T***********************************************************/
     2338        6        /**********************************************************************/
     2339        7        /*F*   NAME:   CPK$CHECK_OUTPUT
     2340        8               PURPOSE: To output the jobstats that have been returned
     2341        9        DCL SYSTEM_OK# BIT(1) ;
     2342       10                       from the M$JOBSTATS.
     2343       11               DESCRIPTION: CPK$CHECK_OUTPUT is passed a pointer to the jobstats
     2344       12                       to be used as the driver for the output using X$FORMAT.
     2345       13        */
     2346       14        /*D*   NAME:   CPK$CHECK_OUTPUT
     2347       15               CALL:   CALL CPK$CHECK_OUTPUT(CH_XFORMAT) ;
     2348       16               INTERFACE: X$FORMAT
     2349       17               INPUT:  CH_XFORMAT  - is the data to be output using X$FORMAT.
     2350       18               OUTPUT: Specified message to device assigned to M$LL.
     2351       19               DESCRIPTION: The jobstats that have been received is output using
     2352       20                       X$FORMAT.
     2353       21        */
     2354       22        /**********************************************************************/
     2355       23        CPK$CHECK_OUTPUT: PROC (CH_XFORMAT,NLINES) ;

     23  2 000000   000000 700200 xent  CPK$CHECK_O* TSX0  ! X66_AUTO_2
         2 000001   000522 000002                    ZERO    338,2

     2356       24
     2357       25             /***** Includes *****/
     2358       26
     2359       27        %INCLUDE B$JIT ;
     2360      317        %INCLUDE CP_6 ;
     2361      398        %INCLUDE CP_6_SUBS ;
     2362      938        %INCLUDE CP_SUBS_C ;
     2363     1855        %INCLUDE CP_MACROS_C ;
     2364     2607        %INCLUDE XU_MACRO_C ;
PL6.E3A0      #002=CPK$CHECK_OUTPUT File=CPK$CHECK.:E05TSI                       TUE 07/29/97 11:57 Page:413
     2365     5713        %INCLUDE CP_DATA_R ;
     2366     8276        %INCLUDE B_ERRORS_C ;
     2367     9403        %INCLUDE OC$MESSHD_C ;
     2368     9424        %INCLUDE XU_FORMAT_C ;
     2369     9586        %INCLUDE XSJ_MAC_C ;
     2370     9665        %INCLUDE XSJ_SUBS_C ;
     2371     9692        %INCLUDE NK_VFC_C ;
     2372     9766
     2373     9767             /***** Parameters *****/
     2374     9768
     2375     9769        %CH_XFORMAT                           ( FPTN = CH_XFORMAT,
     2376     9770              STCLASS=" ") ;
     2377     9794    1     DCL NLINES UBIN WORD ;  /* Number of lines to print the output */
     2378     9795
     2379     9796             /***** Based data *****/
     2380     9797
     2381     9798        %VLA_JOBSTATS_ISRCH                       ( FPTN = VLA$INPUT, STCLASS = BASED) ;
     2382     9825        %VLA_JOBSTATS_OSRCH                       ( FPTN=VLA$OUTPUT, STCLASS = BASED) ;
     2383     9842        %SEG$2 ;
     2384     9902    1   DCL CH$PART (0:15) BIT(1) BASED ;
     2385     9903        %VLP_JOBNAME (FPTN=VLP$JOBNAME,STCLASS=BASED) ;
     2386     9917        %XSJ_JOBINFO( FPTN = XSJ$JOBINFO, STCLASS = BASED) ;
     2387     9932        %FPT_WRITE( FPTN = FPT$WRITE, STCLASS = BASED) ;
     2388     9963        %F$DCB (DCBN=F$DCB) ;
     2389    10020
     2390    10021             /***** Ptr declarations *****/
     2391    10022
     2392    10023    1   DCL BUF$ PTR ;
     2393    10024    1   DCL TEMP$ PTR ;
     2394    10025
     2395    10026             /***** Entries *****/
     2396    10027
     2397    10028    1   DCL X$FORMAT ENTRY(1) ;
     2398    10029    1   DCL CPK$FDS_OUTPUT ENTRY(2) ALTRET ;
     2399    10030
     2400    10031             /***** Constant data *****/
     2401    10032
PL6.E3A0      #002=CPK$CHECK_OUTPUT File=CPK$CHECK.:E05TSI                       TUE 07/29/97 11:57 Page:414
     2402    10033        %F_FDS                                  ( NAME = CF_FDS,
     2403    10034              STCLASS = CONSTANT,
     2404    10035              TRUNC = NO,
     2405    10036              DVFC = %VFC_TRANSITION1 ,
     2406    10037              WRAPTAB = 4) ;
     2407    10150    1   DCL BLANK_FMT CHAR(0) CONSTANT INIT('    ') ;
     2408    10151    1   DCL O_BELL BIT(9) CONSTANT INIT('007'O) ;
     2409    10152    1   DCL BELL REDEF O_BELL CHAR(1) ;
     2410    10153    1   DCL INPUT_HDR_FMT CHAR(0) CONSTANT INIT('%0A') ;
     2411    10154    1   DCL INPUT_HDR CHAR(0) CONSTANT INIT
     2412    10155    1         (' AHE PRI SYSID O A F D MAX TIME   MEM ACCOUNT 1 *PARTITION* 16 JOB NAME') ;
     2413    10156    1   DCL RUN_HDR CHAR(0) CONSTANT INIT
     2414    10157    1         (' STA PRI SYSID O A F D MAX TIME   MEM ACCOUNT  PART JOB NAME') ;
     2415    10158    1   DCL DFLT_OUTPUT_HDR_FMT CHAR(0) CONSTANT INIT('%0A') ;
     2416    10159    1   DCL DFLT_OUTPUT_HDR CHAR(0) CONSTANT INIT
     2417    10160    1         ('  STATUS    SYSID   ACCOUNT PR CP   HC GRAN   FORM     WOD DEV JOB NAME') ;
     2418    10161    1   DCL INPUT_MESS_FMT CHAR(0) CONSTANT INIT
     2419    10162    1         ('%4D%1X%3D%1X%5D%1X%1A%1X%1A%1X%1A%1X%1A%1X%8A%2X%4D%1X%8A%1X%16A%1X%>A') ;
     2420    10163    1   DCL RUN_MESS_FMT CHAR(0) CONSTANT INIT
     2421    10164    1         ('%4A%1X%3D%1X%5D%1X%1A%1X%1A%1X%1A%1X%1A%1X%8A%2X%4D%1X%8A%2X%2D%2X%>A') ;
     2422    10165    1   DCL OUTPUT_NOWAIT_MESS_FMT CHAR(0) CONSTANT INIT
     2423    10166    1         (' %8A %5D-%D%20-%8>A %2D%3D %1A%3D %4D %6>A %8>A %2A%2A %>A') ;
     2424    10167    1   DCL OUTPUT_NOWAIT_MESS_FMT2 CHAR(0) CONSTANT INIT
     2425    10168    1         (' %8A %2D-%D%20-%8>A %2D%3D %1A%3D %4D %6>A %8>A %2A%2A %>A') ;
     2426    10169    1   DCL OUTPUT_WAIT_MESS_FMT CHAR(0) CONSTANT INIT
     2427    10170    1         ('%3D %5A %5D-%D%20-%8>A %2D%3D %1A%3D %4D %6>A %8>A %2A%2A %>A') ;
     2428    10171    1   DCL OUTPUT_WAIT_MESS_FMT2 CHAR(0) CONSTANT INIT
     2429    10172    1         ('%3D %5A %2D-%D%20-%8>A %2D%3D %1A%3D %4D %6>A %8>A %2A%2A %>A') ;
     2430    10173    1   DCL SYSID_RUN_MESS_FMT CHAR(0) CONSTANT INIT
     2431    10174    1         ('%D %<>A.%<>A running %<>A/%<>A%Q - %<>A') ;
     2432    10175    1   DCL SYSID_FOLL_MESS_FMT CHAR(0) CONSTANT INIT
     2433    10176    1         ('%D %<>A.%<>A waiting to follow %D%N(,%D%)%Q - %<>A') ;
     2434    10177    1   DCL SYSID_WPART_MESS_FMT CHAR(0) CONSTANT INIT
     2435    10178    1         ('%D %<>A.%<>A no partition available.%Q - %<>A') ;
     2436    10179    1   DCL SYSID_OTHER_MESS_FMT CHAR(0) CONSTANT INIT
     2437    10180    1         ('%D %<>A.%<>A stuck in some priority queue.%Q - %<>A') ;
     2438    10181    1   DCL SYSID_WPS_MESS_FMT CHAR(0) CONSTANT INIT
PL6.E3A0      #002=CPK$CHECK_OUTPUT File=CPK$CHECK.:E05TSI                       TUE 07/29/97 11:57 Page:415
     2439    10182    1         ('%D %<>A.%<>A waiting for disk packset.%Q - %<>A') ;
     2440    10183    1   DCL SYSID_WAIT_MESS_FMT CHAR(0) CONSTANT INIT
     2441    10184    1         ('%D %<>A.%<>A waiting %D to run at prio %D%Q - %<>A') ;
     2442    10185    1   DCL SYSID_DEFERRED_MESS_FMT CHAR(0) CONSTANT INIT
     2443    10186    1         ('%D %<>A.%<>A deferred to %..2U%Q - %<>A') ;
     2444    10187    1   DCL SYSID_OUTPUT_MESS_FMT CHAR(0) CONSTANT INIT
     2445    10188    1         ('%D-%D %<>A.%<>A %<>A on %<>A%<>A@%<>A%Q - %<>A') ;
     2446    10189    1   DCL SYSID_OUTPUT_WAIT_MESS_FMT CHAR(0) CONSTANT INIT
     2447    10190    1         ('%D-%D %<>A.%<>A waiting %D to %<>A on %<>A%<>A@%<>A%Q - %<>A') ;
     2448    10191    1   DCL SYSID_OUTPUT_NODEV_MESS_FMT CHAR(0) CONSTANT INIT
     2449    10192    1         ('%D-%D %<>A.%<>A waiting %<>A to %<>A on %<>A%<>A@%<>A%Q - %<>A') ;
     2450    10193    1   DCL NONE_MESS_FMT CHAR(0) CONSTANT INIT ('...None') ;
     2451    10194    1   DCL NONE_IN_MESS_FMT CHAR(0) CONSTANT INIT ('...None (In)') ;
     2452    10195    1   DCL NONE_RUN_MESS_FMT CHAR(0) CONSTANT INIT ('...None (Run)') ;
     2453    10196    1   DCL NONE_OUT_MESS_FMT CHAR(0) CONSTANT INIT ('...None (Out)') ;
     2454    10197    1   DCL TIME_DI_MESS_HDR CHAR(0) CONSTANT INIT(' %..2U %D*%D <%D%Q%A') ;
     2455    10198    1   DCL NO_TERM_OUT_HDR CHAR(0) CONSTANT INIT('%D No terminal output found.') ;
     2456    10199    1   DCL NO_SUCH_MESS_HDR CHAR(0) CONSTANT INIT(
             10199            'No such message number for CHECK.  Oops.') ;
     2457    10200    1   DCL APRESCAN_FMT1 CHAR(0) CONSTANT INIT('Job %<>A submitted.') ;
     2458    10201    1   DCL APRESCAN_FMT2 CHAR(0) CONSTANT INIT('Job %D %<>A submitted.') ;
     2459    10202    1   DCL COMPLETED_FMT1 CHAR(0) CONSTANT INIT('%<>A completed.') ;
     2460    10203    1   DCL COMPLETED_FMT2 CHAR(0) CONSTANT INIT('%D %<>A completed.') ;
     2461    10204    1   DCL NUM_LISTED_HDR_FMT CHAR(0) CONSTANT INIT('%4D%0A') ;
     2462    10205    1   DCL NUM_LISTED_MESS CHAR(0) CONSTANT INIT(' items Listed.') ;
     2463    10206    1   DCL HELD_LINE_FMT (0:79) CHAR(1) CONSTANT INIT('-'*0) ;
     2464    10207    1   DCL OUT_TYPE_ARRY (0:5) CHAR(8) UNAL CONSTANT INIT
     2465    10208    1         (   'Printing',
     2466    10209    1             'Punching',
     2467    10210    1             'Beaming',
     2468    10211    1             'Plotting',
     2469    10212    1             'Typing',
     2470    10213    1             'On Dev.') ;
     2471    10214    1   DCL LC_OUT_TYPE_ARRY (0:5) CHAR(8) UNAL CONSTANT INIT
     2472    10215    1         (   'printing',
     2473    10216    1             'punching',
     2474    10217    1             'beaming',
PL6.E3A0      #002=CPK$CHECK_OUTPUT File=CPK$CHECK.:E05TSI                       TUE 07/29/97 11:57 Page:416
     2475    10218    1             'plotting',
     2476    10219    1             'typing',
     2477    10220    1             'on dev.') ;
     2478    10221    1   DCL SH_OUT_TYPE_ARRY (0:5) CHAR(8) UNAL CONSTANT INIT
     2479    10222    1         (   'print',
     2480    10223    1             'punch',
     2481    10224    1             'beam',
     2482    10225    1             'plot',
     2483    10226    1             'type',
     2484    10227    1             'output');
     2485    10228    1   DCL FMT1 CHAR(0) CONSTANT INIT('%D-%D %<>A.%<>A doesn''t exist.%Q - %<>A') ;
     2486    10229    1   DCL FMTVEC_ BIT(72) CONSTANT DALIGNED INIT( VECTOR( FMTVEC ) );
     2487    10230    1   DCL FMTVEC1_ BIT(72) CONSTANT DALIGNED INIT( VECTOR( FMTVEC1 ) );
     2488    10231    1   DCL FMTVEC2_ BIT(72) CONSTANT DALIGNED INIT( VECTOR( FMTVEC2 ) );
     2489    10232    1   DCL FMTVEC CHAR(0) CONSTANT INIT('%D %<>A.%<>A %<>A %..2U%Q - %<>A') ;
     2490    10233    1  DCL FMTVEC1 CHAR(0) CONSTANT INIT('%D %<>A.%<>A %<>A %..2U with STEPCC=%D%Q - %<>A')
             10233            ;
     2491    10234    1   DCL FMTVEC2 CHAR(0) CONSTANT INIT
     2492    10235    1         ('%D %<>A.%<>A rejected at record %D (%<>A) at %..2U%Q - %<>A') ;
     2493    10236    1   DCL LIMIT_FMT_BUF CHAR(0) CONSTANT INIT('%D %<>A.%<>A limit %<>A') ;
     2494    10237    1   DCL EXTRA_LIMITS_FMT CHAR(0) CONSTANT INIT (',%<>A') ;
     2495    10238    1   DCL LIMIT_COMMENT_FMT CHAR(0) CONSTANT INIT (' exceeded%Q - %<>A') ;
     2496    10239    1   DCL MBS_DELETED_ BIT(72) CONSTANT DALIGNED INIT( VECTOR( MBS_DELETED ) );
     2497    10240    1   DCL MBS_CANCELED_ BIT(72) CONSTANT DALIGNED INIT( VECTOR( MBS_CANCELED ) );
     2498    10241    1   DCL MBS_SHAFTED_ BIT(72) CONSTANT DALIGNED INIT( VECTOR( MBS_SHAFTED ) );
     2499    10242    1   DCL MBS_FILERR_ BIT(72) CONSTANT DALIGNED INIT( VECTOR( MBS_FILERR ) );
     2500    10243    1   DCL PRE_PASSED_ BIT(72) CONSTANT DALIGNED INIT( VECTOR( PRE_PASSED ) );
     2501    10244    1   DCL REJ_JOB_ BIT(72) CONSTANT DALIGNED INIT( VECTOR( REJ_JOB ) );
     2502    10245    1   DCL REJ_RES_ BIT(72) CONSTANT DALIGNED INIT( VECTOR( REJ_RES ) );
     2503    10246    1   DCL REJ_SYNTAX_ BIT(72) CONSTANT DALIGNED INIT( VECTOR( REJ_SYNTAX ) );
     2504    10247    1   DCL REJ_IO_ BIT(72) CONSTANT DALIGNED INIT( VECTOR( REJ_IO ) );
     2505    10248    1   DCL REJ_JOBIMBED_ BIT(72) CONSTANT DALIGNED INIT( VECTOR( REJ_JOBIMBED ) );
     2506    10249    1   DCL REJ_BADID_ BIT(72) CONSTANT DALIGNED INIT( VECTOR( REJ_BADID ) );
     2507    10250    1   DCL REJ_NORES_ BIT(72) CONSTANT DALIGNED INIT( VECTOR( REJ_NORES ) );
     2508    10251    1   DCL REJ_PRESCAN_ BIT(72) CONSTANT DALIGNED INIT( VECTOR( REJ_PRESCAN ) );
     2509    10252    1   DCL REJ_RESIMBED_ BIT(72) CONSTANT DALIGNED INIT( VECTOR( REJ_RESIMBED ) );
     2510    10253    1   DCL REJ_NOBATCH_ BIT(72) CONSTANT DALIGNED INIT( VECTOR( REJ_NOBATCH ) );
PL6.E3A0      #002=CPK$CHECK_OUTPUT File=CPK$CHECK.:E05TSI                       TUE 07/29/97 11:57 Page:417
     2511    10254    1   DCL FIN_RECOVER_ BIT(72) CONSTANT DALIGNED INIT( VECTOR( FIN_RECOVER ) );
     2512    10255    1   DCL FIN_ABNORMAL_ BIT(72) CONSTANT DALIGNED INIT( VECTOR( FIN_ABNORMAL ) );
     2513    10256    1   DCL FIN_COMPLETED_ BIT(72) CONSTANT DALIGNED INIT( VECTOR( FIN_COMPLETED ) );
     2514    10257    1   DCL FIN_ABNORMAL_UNKNOWN_ BIT(72) CONSTANT DALIGNED INIT( VECTOR(
             10257            FIN_ABNORMAL_UNKNOWN ) );
     2515    10258    1   DCL MBS_DELETED CHAR(0) CONSTANT INIT( 'Deleted by operator' );
     2516    10259    1   DCL MBS_CANCELED CHAR(0) CONSTANT INIT( 'Canceled by user' );
     2517    10260    1   DCL MBS_SHAFTED CHAR(0) CONSTANT INIT( 'Deleted by MBS for FOLLOW condition' );
     2518    10261    1  DCL MBS_FILERR CHAR(0) CONSTANT INIT( 'Canceled by MBS due to file inconsistency' );
     2519    10262    1   DCL PRE_PASSED CHAR(0) CONSTANT INIT( 'Passed PRESCAN successfully' );
     2520    10263    1   DCL REJ_JOB CHAR(0) CONSTANT INIT( 'bad !JOB' );
     2521    10264    1   DCL REJ_RES CHAR(0) CONSTANT INIT( 'bad !RESOURCE' );
     2522    10265    1   DCL REJ_SYNTAX CHAR(0) CONSTANT INIT( 'syntax error' );
     2523    10266    1   DCL REJ_IO CHAR(0) CONSTANT INIT( 'I/O error' );
     2524    10267    1   DCL REJ_JOBIMBED CHAR(0) CONSTANT INIT( 'imbedded !JOB' );
     2525    10268    1  DCL REJ_BADID CHAR(0) CONSTANT INIT( 'invalid ACCOUNT, USER, or PASSWORD on !JOB' );
     2526    10269    1   DCL REJ_NORES CHAR(0) CONSTANT INIT( 'too many resources specified' );
     2527    10270    1   DCL REJ_PRESCAN CHAR(0) CONSTANT INIT( 'PRESCAN problem' );
     2528    10271    1   DCL REJ_RESIMBED CHAR(0) CONSTANT INIT( 'imbedded !RESOURCE' );
     2529    10272    1   DCL REJ_NOBATCH CHAR(0) CONSTANT INIT( 'you are not authorized for BATCH' );
     2530    10273    1   DCL FIN_RECOVER CHAR(0) CONSTANT INIT( 'Caught in RECOVERY' );
     2531    10274    1   DCL FIN_ABNORMAL CHAR(0) CONSTANT INIT( 'Completed ABNORMALLY' );
     2532    10275    1   DCL FIN_COMPLETED CHAR(0) CONSTANT INIT( 'completed successfully at ');
     2533    10276    1   DCL FIN_ABNORMAL_UNKNOWN CHAR(0) CONSTANT INIT
     2534    10277    1                 ( 'completed ABNORMALLY with unknown error code') ;
     2535    10278    1   DCL RS__(0:8) BIT(72) CONSTANT DALIGNED INIT( VECTOR( RS_ERR ),
     2536    10279    1                                               VECTOR( RS_XXX ),
     2537    10280    1                                               VECTOR( RS_SSP ),
     2538    10281    1                                               VECTOR( RS_ABRT ),
     2539    10282    1                                               VECTOR( RS_EKEY ),
     2540    10283    1                                               VECTOR( RS_OFF ),
     2541    10284    1                                               VECTOR( RS_LIMX ),
     2542    10285    1                                               VECTOR( RS_DROP ),
     2543    10286    1                                               VECTOR( RS_XKEY ) );
     2544    10287    1   DCL XL__(0:8) BIT(72) CONSTANT DALIGNED INIT( VECTOR( XL_TIME ),
     2545    10288    1                                               VECTOR( XL_STACK ),
     2546    10289    1                                               VECTOR( XL_TAPE ),
PL6.E3A0      #002=CPK$CHECK_OUTPUT File=CPK$CHECK.:E05TSI                       TUE 07/29/97 11:57 Page:418
     2547    10290    1                                               VECTOR( XL_TDISK ),
     2548    10291    1                                               VECTOR( XL_PDISK ),
     2549    10292    1                                               VECTOR( XL_DO ),
     2550    10293    1                                               VECTOR( XL_LO ),
     2551    10294    1                                               VECTOR( XL_PLO ),
     2552    10295    1                                               VECTOR( XL_PO ) );
     2553    10296    1   DCL RS_CAN_ BIT(72) CONSTANT DALIGNED INIT( VECTOR( RS_CAN ) );
     2554    10297    1   DCL RS_ERR CHAR(0) CONSTANT INIT( 'M$ERR pmme' );
     2555    10298    1   DCL RS_XXX CHAR(0) CONSTANT INIT( 'M$XXX pmme' );
     2556    10299    1   DCL RS_SSP CHAR(0) CONSTANT INIT( 'Aborted by special shared processor' );
     2557    10300    1   DCL RS_ABRT CHAR(0) CONSTANT INIT( 'Aborted by monitor (ABORTM)' );
     2558    10301    1   DCL RS_EKEY CHAR(0) CONSTANT INIT( 'Errored by operator' );
     2559    10302    1   DCL RS_OFF CHAR(0) CONSTANT INIT( 'Aborted by monitor (!X)' );
     2560    10303    1   DCL RS_LIMX CHAR(0) CONSTANT INIT( 'Limit exceeded' );
     2561    10304    1   DCL RS_DROP CHAR(0) CONSTANT INIT( 'Line disconnect' );
     2562    10305    1   DCL RS_XKEY CHAR(0) CONSTANT INIT( 'Aborted by operator' );
     2563    10306    1   DCL RS_CAN CHAR(0) CONSTANT INIT( 'Canceled by user' );
     2564    10307    1   DCL XL_TIME CHAR(0) CONSTANT INIT( 'TIME' );
     2565    10308    1   DCL XL_STACK CHAR(0) CONSTANT INIT( 'STACK' );
     2566    10309    1   DCL XL_TAPE CHAR(0) CONSTANT INIT( 'TAPE' );
     2567    10310    1   DCL XL_TDISK CHAR(0) CONSTANT INIT( 'TDIS' );
     2568    10311    1   DCL XL_PDISK CHAR(0) CONSTANT INIT( 'PDIS' );
     2569    10312    1   DCL XL_DO CHAR(0) CONSTANT INIT( 'DO' );
     2570    10313    1   DCL XL_LO CHAR(0) CONSTANT INIT( 'LO' );
     2571    10314    1   DCL XL_PLO CHAR(0) CONSTANT INIT( 'PLO' );
     2572    10315    1   DCL XL_PO CHAR(0) CONSTANT INIT( 'PO' );
     2573    10316    1   DCL AHEAD_HDR CHAR(0) CONSTANT INIT('Ahead') ;
     2574    10317    1   DCL RUN_TEXT_HDR CHAR(0) CONSTANT INIT('Run') ;
     2575    10318    1   DCL BATCH_HDR CHAR(0) CONSTANT INIT('B') ;
     2576    10319    1   DCL ONLINE_HDR CHAR(0) CONSTANT INIT('O') ;
     2577    10320    1   DCL GHOST_HDR CHAR(0) CONSTANT INIT('G') ;
     2578    10321    1   DCL TP_HDR CHAR(0) CONSTANT INIT('T') ;
     2579    10322    1   DCL A_CHAR CHAR(0) CONSTANT INIT('A') ;
     2580    10323    1   DCL D_CHAR CHAR(0) CONSTANT INIT('D') ;
     2581    10324    1   DCL H_CHAR CHAR(0) CONSTANT INIT('H') ;
     2582    10325    1   DCL F_CHAR CHAR(0) CONSTANT INIT('F') ;
     2583    10326    1   DCL O_CHAR CHAR(0) CONSTANT INIT('O') ;
PL6.E3A0      #002=CPK$CHECK_OUTPUT File=CPK$CHECK.:E05TSI                       TUE 07/29/97 11:57 Page:419
     2584    10327    1   DCL BLANK_CHAR CHAR(0) CONSTANT INIT(' ') ;
     2585    10328    1   DCL PART_ARRY (0:15) CHAR(1) CONSTANT
     2586    10329    1         INIT('1','2','3','4','5','6','7','8','9','0','1','2','3','4','5','6') ;
     2587    10330    1   DCL NODEV_HDR CHAR(0) CONSTANT INIT ('NODEV') ;
     2588    10331    1   DCL NODEV_HDR2 CHAR(0) CONSTANT INIT ('Nodev') ;
     2589    10332
     2590    10333             /***** AUTO data *****/
     2591    10334
     2592    10335        %F_FDS                                      ( NAME = F_FDS,
     2593    10336              STCLASS = AUTO) ;
     2594    10449    1   DCL FMT_VEC(0:75) BIT(72) ;
     2595    10450    1   DCL OUT_BUF CHAR(150) ;
     2596    10451    1   DCL I UBIN WORD ;
     2597    10452    1   DCL II UBIN WORD ;
     2598    10453    1   DCL NFOLL UBIN WORD ;
     2599    10454    1   DCL BITSET UBIN WORD ;
     2600    10455    1   DCL UTS SBIN WORD ;
     2601    10456    1   DCL 1 STATE_BUF ALIGNED,
     2602    10457    1         2 NUM UBIN WORD UNAL,
     2603    10458    1         2 ESC_Q CHAR(4) UNAL,
     2604    10459    1         2 TIME_USED UBIN WORD UNAL,
     2605    10460    1         2 TIME_REMAIN UBIN WORD UNAL;
     2606    10461    1   DCL TIME_BUF CHAR(8) ;
     2607    10462    1   DCL TIME_BUF1 CHAR(8) ;
     2608    10463    1   DCL PART_BUF CHAR(16) ;
     2609    10464    1   DCL DEVTYPE CHAR(2) ;
     2610    10465    1   DCL NUM_AHEAD UBIN WORD ;
     2611    10466    1   DCL TYPE_NUM UBIN WORD ;
     2612    10467    1   DCL STEPCC UBIN WORD ;
     2613    10468    1   DCL STEPCC_ BIT(72) DALIGNED ;
     2614    10469    1   DCL RECNO_ BIT(72) DALIGNED ;
     2615    10470    1   DCL FMT_BUF CHAR(80) ;
     2616    10471    1   DCL LIMIT_BUF CHAR(80) ;
     2617    10472    1   DCL START UBIN WORD ;
     2618    10473    1   DCL NCHARS UBIN WORD ;
     2619    10474    1   DCL WIDTH UBIN WORD ;
     2620    10475
PL6.E3A0      #002=CPK$CHECK_OUTPUT File=CPK$CHECK.:E05TSI                       TUE 07/29/97 11:57 Page:420
     2621    10476             /***** Auto FPTs *****/
     2622    10477
     2623    10478        %VLR_DISPLAY  (FPTN = VLR_DISPLAY,STCLASS=AUTO) ;
     2624    10492        %FPT_DISPLAY  (FPTN = FPT_DISPLAY,STCLASS=AUTO) ;
     2625    10505        %FPT_TIME (FPTN = FPT_TIME,STCLASS=AUTO) ;
     2626    10524        %FPT_STATE(FPTN=FPT_STATE,STCLASS=AUTO) ;
     2627    10538
     2628    10539             /***** Procedure *****/
     2629    10540
     2630    10541    1         FMT_VEC = '0'B ;

  10541  2 000002   000100 100400                    MLR     fill='000'O
         2 000003   000002 000001 xsym               ADSC9   B_VECTNIL+2              cn=0,n=1
         2 000004   200045 001140                    ADSC9   FMT_VEC,,AUTO            cn=0,n=608

     2631    10542    1         OUT_BUF = ' ' ;

  10542  2 000005   040100 100400                    MLR     fill='040'O
         2 000006   000035 000001 xsym               ADSC9   B_VECTNIL+29             cn=0,n=1
         2 000007   200275 000226                    ADSC9   OUT_BUF,,AUTO            cn=0,n=150

     2632    10543    1         F_FDS = CF_FDS ;

  10543  2 000010   000100 100400                    MLR     fill='000'O
         2 000011   000000 000170 1                  ADSC9   CF_FDS                   cn=0,n=120
         2 000012   200007 000170                    ADSC9   F_FDS,,AUTO              cn=0,n=120

     2633    10544    1         F_FDS.OUTPUT# = ENTADDR(CPK$FDS_OUTPUT) ;

  10544  2 000013   000000 636000 xent               EAQ     CPK$FDS_OUTPUT
         2 000014   200023 756100                    STQ     F_FDS+12,,AUTO

     2634    10545    1         F_FDS.VECTR$ = ADDR(FMT_VEC(0)) ;

  10545  2 000015   200045 630500                    EPPR0   FMT_VEC,,AUTO
         2 000016   200021 450500                    STP0    F_FDS+10,,AUTO

PL6.E3A0      #002=CPK$CHECK_OUTPUT File=CPK$CHECK.:E05TSI                       TUE 07/29/97 11:57 Page:421
     2635    10546    1         F_FDS.BUF_ = VECTOR(OUT_BUF) ;

  10546  2 000017   000000 235000 3                  LDA     0
         2 000020   200520 452500                    STP2    @START+2,,AUTO
         2 000021   200520 236100                    LDQ     @START+2,,AUTO
         2 000022   000275 036003                    ADLQ    189,DU
         2 000023   200014 757100                    STAQ    F_FDS+5,,AUTO

     2636    10547
     2637    10548    1         BUF$ = CH_XFORMAT.BUF$ ;

  10548  2 000024   200003 471500                    LDP1    @CH_XFORMAT,,AUTO
         2 000025   100015 236100                    LDQ     13,,PR1
         2 000026   200005 756100                    STQ     BUF$,,AUTO

     2638    10549
     2639    10550    2         DO CASE (CH_XFORMAT.MSG#) ;

  10550  2 000027   100000 235100                    LDA     0,,PR1
         2 000030   000036 115007                    CMPA    30,DL
         2 000031   000033 602005 2                  TNC     s:10550+4,AL
         2 000032   001372 710000 2                  TRA     s:10828
         2 000033   001372 710000 2                  TRA     s:10828
         2 000034   000605 710000 2                  TRA     s:10658
         2 000035   000071 710000 2                  TRA     s:10553
         2 000036   000640 710000 2                  TRA     s:10673
         2 000037   000700 710000 2                  TRA     s:10692
         2 000040   000627 710000 2                  TRA     s:10668
         2 000041   000302 710000 2                  TRA     s:10599
         2 000042   000616 710000 2                  TRA     s:10663
         2 000043   000071 710000 2                  TRA     s:10553
         2 000044   001243 710000 2                  TRA     s:10793
         2 000045   000602 710000 2                  TRA     s:10655
         2 000046   000705 710000 2                  TRA     s:10696
         2 000047   001132 710000 2                  TRA     s:10760
         2 000050   001075 710000 2                  TRA     s:10747
         2 000051   001167 710000 2                  TRA     s:10773
PL6.E3A0      #002=CPK$CHECK_OUTPUT File=CPK$CHECK.:E05TSI                       TUE 07/29/97 11:57 Page:422
         2 000052   001240 710000 2                  TRA     s:10789
         2 000053   000577 710000 2                  TRA     s:10652
         2 000054   000577 710000 2                  TRA     s:10652
         2 000055   000577 710000 2                  TRA     s:10652
         2 000056   000577 710000 2                  TRA     s:10652
         2 000057   000577 710000 2                  TRA     s:10652
         2 000060   000577 710000 2                  TRA     s:10652
         2 000061   000577 710000 2                  TRA     s:10652
         2 000062   000661 710000 2                  TRA     s:10680
         2 000063   000666 710000 2                  TRA     s:10684
         2 000064   000673 710000 2                  TRA     s:10688
         2 000065   001345 710000 2                  TRA     s:10815
         2 000066   001352 710000 2                  TRA     s:10819
         2 000067   001243 710000 2                  TRA     s:10793
         2 000070   001365 710000 2                  TRA     s:10824

     2640    10551
     2641    10552    2             CASE(%CP_INPUT_MESS,%CP_RUN_MESS) ;

     2642    10553    2               IF (CH_XFORMAT.MSG# = %CP_INPUT_MESS)

  10553  2 000071   000002 115007                    CMPA    2,DL
         2 000072   000104 601000 2                  TNZ     s:10561

     2643    10554    2                 THEN
     2644    10555    3                   DO ;

     2645    10556    3                     F_FDS.FMT_ = VECTOR(INPUT_MESS_FMT) ;

  10556  2 000073   000002 237000 3                  LDAQ    2
         2 000074   200007 755100                    STA     F_FDS,,AUTO
         2 000075   200010 756100                    STQ     F_FDS+1,,AUTO

     2646    10557    3                     FMT_VEC(0) = VECTOR(BUF$->VLA$INPUT.AHEAD) ;

  10557  2 000076   777640 235007                    LDA     -96,DL
         2 000077   200005 236100                    LDQ     BUF$,,AUTO
PL6.E3A0      #002=CPK$CHECK_OUTPUT File=CPK$CHECK.:E05TSI                       TUE 07/29/97 11:57 Page:423
         2 000100   000007 036003                    ADLQ    7,DU
         2 000101   200045 755100                    STA     FMT_VEC,,AUTO
         2 000102   200046 756100                    STQ     FMT_VEC+1,,AUTO

     2647    10558    3                   END ; /* THEN DO */

  10558  2 000103   000112 710000 2                  TRA     s:10564

     2648    10559    2                 ELSE
     2649    10560    3                   DO ;

     2650    10561    3                     F_FDS.FMT_ = VECTOR(RUN_MESS_FMT) ;

  10561  2 000104   000004 237000 3                  LDAQ    4
         2 000105   200007 755100                    STA     F_FDS,,AUTO
         2 000106   200010 756100                    STQ     F_FDS+1,,AUTO

     2651    10562    3                     FMT_VEC(0) = VECTOR(RUN_TEXT_HDR) ;

  10562  2 000107   000006 237000 3                  LDAQ    6
         2 000110   200045 755100                    STA     FMT_VEC,,AUTO
         2 000111   200046 756100                    STQ     FMT_VEC+1,,AUTO

     2652    10563    3                   END ; /* ELSE DO */

     2653    10564    2               FMT_VEC(1) = VECTOR(BUF$->VLA$INPUT.IPRIO) ;

  10564  2 000112   177640 235007                    LDA     65440,DL
         2 000113   200005 236100                    LDQ     BUF$,,AUTO
         2 000114   000001 036000 3                  ADLQ    1
         2 000115   200047 755100                    STA     FMT_VEC+2,,AUTO
         2 000116   200050 756100                    STQ     FMT_VEC+3,,AUTO

     2654    10565    2               FMT_VEC(2) = VECTOR(BUF$->VLA$INPUT.SYSID) ;

  10565  2 000117   377640 235007                    LDA     130976,DL
         2 000120   200005 236100                    LDQ     BUF$,,AUTO
PL6.E3A0      #002=CPK$CHECK_OUTPUT File=CPK$CHECK.:E05TSI                       TUE 07/29/97 11:57 Page:424
         2 000121   000010 036000 3                  ADLQ    8
         2 000122   200051 755100                    STA     FMT_VEC+4,,AUTO
         2 000123   200052 756100                    STQ     FMT_VEC+5,,AUTO

     2655    10566    2               IF (BUF$ -> VLA$INPUT.FLG.O1)

  10566  2 000124   200005 473500                    LDP3    BUF$,,AUTO
         2 000125   300006 234100                    SZN     6,,PR3
         2 000126   000133 605000 2                  TPL     s:10568

     2656    10567    2                 THEN FMT_VEC(3) = VECTOR(O_CHAR) ;

  10567  2 000127   000012 237000 3                  LDAQ    10
         2 000130   200053 755100                    STA     FMT_VEC+6,,AUTO
         2 000131   200054 756100                    STQ     FMT_VEC+7,,AUTO
         2 000132   000136 710000 2                  TRA     s:10569

     2657    10568    2                 ELSE FMT_VEC(3) = VECTOR(BLANK_CHAR) ;

  10568  2 000133   000014 237000 3                  LDAQ    12
         2 000134   200053 755100                    STA     FMT_VEC+6,,AUTO
         2 000135   200054 756100                    STQ     FMT_VEC+7,,AUTO

     2658    10569    2               IF (BUF$ -> VLA$INPUT.FLG.ACC)

  10569  2 000136   300006 236100                    LDQ     6,,PR3
         2 000137   040000 316003                    CANQ    16384,DU
         2 000140   000145 600000 2                  TZE     s:10571

     2659    10570    2                 THEN FMT_VEC(4) = VECTOR(A_CHAR) ;

  10570  2 000141   000016 237000 3                  LDAQ    14
         2 000142   200055 755100                    STA     FMT_VEC+8,,AUTO
         2 000143   200056 756100                    STQ     FMT_VEC+9,,AUTO
         2 000144   000150 710000 2                  TRA     s:10572

     2660    10571    2                 ELSE FMT_VEC(4) = VECTOR(BLANK_CHAR) ;
PL6.E3A0      #002=CPK$CHECK_OUTPUT File=CPK$CHECK.:E05TSI                       TUE 07/29/97 11:57 Page:425

  10571  2 000145   000014 237000 3                  LDAQ    12
         2 000146   200055 755100                    STA     FMT_VEC+8,,AUTO
         2 000147   200056 756100                    STQ     FMT_VEC+9,,AUTO

     2661    10572    2               IF (BUF$ -> VLA$INPUT.FLG.O3)

  10572  2 000150   300006 236100                    LDQ     6,,PR3
         2 000151   100000 316003                    CANQ    32768,DU
         2 000152   000157 600000 2                  TZE     s:10574

     2662    10573    2                 THEN FMT_VEC(5) = VECTOR(F_CHAR) ;

  10573  2 000153   000020 237000 3                  LDAQ    16
         2 000154   200057 755100                    STA     FMT_VEC+10,,AUTO
         2 000155   200060 756100                    STQ     FMT_VEC+11,,AUTO
         2 000156   000162 710000 2                  TRA     s:10575

     2663    10574    2                 ELSE FMT_VEC(5) = VECTOR(BLANK_CHAR) ;

  10574  2 000157   000014 237000 3                  LDAQ    12
         2 000160   200057 755100                    STA     FMT_VEC+10,,AUTO
         2 000161   200060 756100                    STQ     FMT_VEC+11,,AUTO

     2664    10575    2               IF (BUF$ -> VLA$INPUT.FLG.RA)

  10575  2 000162   300006 236100                    LDQ     6,,PR3
         2 000163   002000 316003                    CANQ    1024,DU
         2 000164   000171 600000 2                  TZE     s:10577

     2665    10576    2                 THEN FMT_VEC(6) = VECTOR(D_CHAR) ;

  10576  2 000165   000022 237000 3                  LDAQ    18
         2 000166   200061 755100                    STA     FMT_VEC+12,,AUTO
         2 000167   200062 756100                    STQ     FMT_VEC+13,,AUTO
         2 000170   000174 710000 2                  TRA     s:10578

PL6.E3A0      #002=CPK$CHECK_OUTPUT File=CPK$CHECK.:E05TSI                       TUE 07/29/97 11:57 Page:426
     2666    10577    2                 ELSE FMT_VEC(6) = VECTOR(BLANK_CHAR) ;

  10577  2 000171   000014 237000 3                  LDAQ    12
         2 000172   200061 755100                    STA     FMT_VEC+12,,AUTO
         2 000173   200062 756100                    STQ     FMT_VEC+13,,AUTO

     2667    10578    2               UTS = BUF$ -> VLA$INPUT.TIM ;

  10578  2 000174   300040 235100                    LDA     32,,PR3
         2 000175   200347 755100                    STA     UTS,,AUTO

     2668    10579    2               CALL CONVERT_TIME(UTS,TIME_BUF) ;

  10579  2 000176   200354 634500                    EPPR4   TIME_BUF,,AUTO
         2 000177   200510 454500                    STP4    @MASK+1,,AUTO
         2 000200   200347 635500                    EPPR5   UTS,,AUTO
         2 000201   200507 455500                    STP5    FPT_STATE+9,,AUTO
         2 000202   001454 701000 2                  TSX1    CONVERT_TIME
         2 000203   000000 011000                    NOP     0

     2669    10580    2               FMT_VEC(7) = VECTOR( TIME_BUF ) ;

  10580  2 000204   000011 235000 3                  LDA     9
         2 000205   200520 452500                    STP2    @START+2,,AUTO
         2 000206   200520 236100                    LDQ     @START+2,,AUTO
         2 000207   000354 036003                    ADLQ    236,DU
         2 000210   200063 755100                    STA     FMT_VEC+14,,AUTO
         2 000211   200064 756100                    STQ     FMT_VEC+15,,AUTO

     2670    10581    2               FMT_VEC(8) = VECTOR(BUF$->VLA$INPUT.RRT(0)) ;

  10581  2 000212   377640 235007                    LDA     130976,DL
         2 000213   200005 236100                    LDQ     BUF$,,AUTO
         2 000214   000032 036003                    ADLQ    26,DU
         2 000215   200065 755100                    STA     FMT_VEC+16,,AUTO
         2 000216   200066 756100                    STQ     FMT_VEC+17,,AUTO

PL6.E3A0      #002=CPK$CHECK_OUTPUT File=CPK$CHECK.:E05TSI                       TUE 07/29/97 11:57 Page:427
     2671    10582    2               FMT_VEC(9) = VECTOR(BUF$->VLA$INPUT.ACCT) ;

  10582  2 000217   000011 235000 3                  LDA     9
         2 000220   200005 236100                    LDQ     BUF$,,AUTO
         2 000221   000010 036003                    ADLQ    8,DU
         2 000222   200067 755100                    STA     FMT_VEC+18,,AUTO
         2 000223   200070 756100                    STQ     FMT_VEC+19,,AUTO

     2672    10583    2               IF (CH_XFORMAT.MSG# = %CP_INPUT_MESS)

  10583  2 000224   200003 470500                    LDP0    @CH_XFORMAT,,AUTO
         2 000225   000000 235100                    LDA     0,,PR0
         2 000226   000002 115007                    CMPA    2,DL
         2 000227   000265 601000 2                  TNZ     s:10594

     2673    10584    2                 THEN
     2674    10585    3                   DO ;

     2675    10586    3                     TEMP$ = ADDR(BUF$->VLA$INPUT.PART) ;

  10586  2 000230   200005 236100                    LDQ     BUF$,,AUTO
         2 000231   000024 036000 3                  ADLQ    20
         2 000232   200006 756100                    STQ     TEMP$,,AUTO

     2676    10587    4                     DO I = 0 TO 15 ;

  10587  2 000233   200343 450100                    STZ     I,,AUTO

     2677    10588    4                       IF (TEMP$->CH$PART(I))

  10588  2 000234   200006 470500                    LDP0    TEMP$,,AUTO
         2 000235   200343 235100                    LDA     I,,AUTO
         2 000236   000000 066505                    CMPB    filb='0'B
         2 000237   000000 000001                    BDSC    0,A,PR0                  by=0,bit=0,n=1
         2 000240   000002 000022 xsym               BDSC    B_VECTNIL+2              by=0,bit=0,n=18
         2 000241   000246 600000 2                  TZE     s:10590

PL6.E3A0      #002=CPK$CHECK_OUTPUT File=CPK$CHECK.:E05TSI                       TUE 07/29/97 11:57 Page:428
     2678    10589    4                         THEN CALL INSERT(PART_BUF,I,1,PART_ARRY(I)) ;

  10589  2 000242   040105 100405                    MLR     fill='040'O
         2 000243   001363 000001 1                  ADSC9   PART_ARRY,A              cn=0,n=1
         2 000244   200360 000001                    ADSC9   PART_BUF,A,AUTO          cn=0,n=1
         2 000245   000251 710000 2                  TRA     s:10591

     2679    10590    4                         ELSE CALL INSERT(PART_BUF,I,1,'.') ;

  10590  2 000246   040105 100400                    MLR     fill='040'O
         2 000247   000025 000001 3                  ADSC9   21                       cn=0,n=1
         2 000250   200360 000001                    ADSC9   PART_BUF,A,AUTO          cn=0,n=1

     2680    10591    4                     END ; /* DO I */

  10591  2 000251   200343 235100                    LDA     I,,AUTO
         2 000252   000001 035007                    ADLA    1,DL
         2 000253   200343 755100                    STA     I,,AUTO
         2 000254   000020 115007                    CMPA    16,DL
         2 000255   000234 602000 2                  TNC     s:10588

     2681    10592    3                     FMT_VEC(10) = VECTOR(PART_BUF) ;

  10592  2 000256   000026 235000 3                  LDA     22
         2 000257   200520 452500                    STP2    @START+2,,AUTO
         2 000260   200520 236100                    LDQ     @START+2,,AUTO
         2 000261   000360 036003                    ADLQ    240,DU
         2 000262   200071 755100                    STA     FMT_VEC+20,,AUTO
         2 000263   200072 756100                    STQ     FMT_VEC+21,,AUTO

     2682    10593    3                   END ; /* THEN DO */

  10593  2 000264   000272 710000 2                  TRA     s:10595

     2683    10594    2                 ELSE FMT_VEC(10) = VECTOR(BUF$->VLA$INPUT.PNUM) ;

  10594  2 000265   177640 235007                    LDA     65440,DL
PL6.E3A0      #002=CPK$CHECK_OUTPUT File=CPK$CHECK.:E05TSI                       TUE 07/29/97 11:57 Page:429
         2 000266   200005 236100                    LDQ     BUF$,,AUTO
         2 000267   000003 036003                    ADLQ    3,DU
         2 000270   200071 755100                    STA     FMT_VEC+20,,AUTO
         2 000271   200072 756100                    STQ     FMT_VEC+21,,AUTO

     2684    10595    2               FMT_VEC(11) = VECTOR(BUF$->VLA$INPUT.JNAME) ;

  10595  2 000272   000027 235000 3                  LDA     23
         2 000273   200005 236100                    LDQ     BUF$,,AUTO
         2 000274   000021 036003                    ADLQ    17,DU
         2 000275   200073 755100                    STA     FMT_VEC+22,,AUTO
         2 000276   200074 756100                    STQ     FMT_VEC+23,,AUTO

     2685    10596    2               F_FDS.NVECS# = 12 ;

  10596  2 000277   000014 235007                    LDA     12,DL
         2 000300   200020 755100                    STA     F_FDS+9,,AUTO
         2 000301   001375 710000 2                  TRA     s:10832

     2686    10597
     2687    10598    2             CASE(%CP_OUTPUT_MESS) ;

     2688    10599    2               IF (BUF$->VLA$OUTPUT.DEVNAME = ' ')

  10599  2 000302   200005 473500                    LDP3    BUF$,,AUTO
         2 000303   300010 720100                    LXL0    8,,PR3
         2 000304   040040 100003                    CMPX0   16416,DU
         2 000305   000351 601000 2                  TNZ     s:10615

     2689    10600    2                 THEN
     2690    10601    3                   DO ;                                  /* Waiting to output. */

     2691    10602    3                       IF BUF$ -> VLA$OUTPUT.SYSID < 99 AND

  10602  2 000306   300005 221100                    LDX1    5,,PR3
         2 000307   000143 101003                    CMPX1   99,DU
         2 000310   000320 603000 2                  TRC     s:10605
PL6.E3A0      #002=CPK$CHECK_OUTPUT File=CPK$CHECK.:E05TSI                       TUE 07/29/97 11:57 Page:430
         2 000311   300005 722100                    LXL2    5,,PR3
         2 000312   000144 102003                    CMPX2   100,DU
         2 000313   000320 602000 2                  TNC     s:10605

     2692    10603    3                           BUF$ -> VLA$OUTPUT.NUM > 99
     2693    10604    3                         THEN F_FDS.FMT_ = VECTOR(OUTPUT_WAIT_MESS_FMT2) ;

  10604  2 000314   000030 237000 3                  LDAQ    24
         2 000315   200007 755100                    STA     F_FDS,,AUTO
         2 000316   200010 756100                    STQ     F_FDS+1,,AUTO
         2 000317   000323 710000 2                  TRA     s:10606

     2694    10605    3                         ELSE F_FDS.FMT_ = VECTOR(OUTPUT_WAIT_MESS_FMT) ;

  10605  2 000320   000032 237000 3                  LDAQ    26
         2 000321   200007 755100                    STA     F_FDS,,AUTO
         2 000322   200010 756100                    STQ     F_FDS+1,,AUTO

     2695    10606    3                       NUM_AHEAD = BUF$ -> VLA$OUTPUT.AHEAD ;

  10606  2 000323   300023 236100                    LDQ     19,,PR3
         2 000324   000022 772000                    QRL     18
         2 000325   200365 756100                    STQ     NUM_AHEAD,,AUTO

     2696    10607    3                       FMT_VEC(0) = VECTOR(NUM_AHEAD) ;

  10607  2 000326   777640 235007                    LDA     -96,DL
         2 000327   200520 452500                    STP2    @START+2,,AUTO
         2 000330   200520 236100                    LDQ     @START+2,,AUTO
         2 000331   000365 036003                    ADLQ    245,DU
         2 000332   200045 755100                    STA     FMT_VEC,,AUTO
         2 000333   200046 756100                    STQ     FMT_VEC+1,,AUTO

     2697    10608    3                       IF (BUF$ -> VLA$OUTPUT.FLG.DEVAVAIL)

  10608  2 000334   300004 236100                    LDQ     4,,PR3
         2 000335   040000 316003                    CANQ    16384,DU
PL6.E3A0      #002=CPK$CHECK_OUTPUT File=CPK$CHECK.:E05TSI                       TUE 07/29/97 11:57 Page:431
         2 000336   000343 600000 2                  TZE     s:10610

     2698    10609    3                         THEN FMT_VEC(1) = VECTOR(AHEAD_HDR) ;

  10609  2 000337   000034 237000 3                  LDAQ    28
         2 000340   200047 755100                    STA     FMT_VEC+2,,AUTO
         2 000341   200050 756100                    STQ     FMT_VEC+3,,AUTO
         2 000342   000346 710000 2                  TRA     s:10611

     2699    10610    3                         ELSE FMT_VEC(1) = VECTOR(NODEV_HDR2) ;

  10610  2 000343   000036 237000 3                  LDAQ    30
         2 000344   200047 755100                    STA     FMT_VEC+2,,AUTO
         2 000345   200050 756100                    STQ     FMT_VEC+3,,AUTO

     2700    10611    3                       I = 1 ;

  10611  2 000346   000001 235007                    LDA     1,DL
         2 000347   200343 755100                    STA     I,,AUTO

     2701    10612    3                   END ; /* THEN DO */

  10612  2 000350   000375 710000 2                  TRA     s:10622

     2702    10613    2                 ELSE                                    /* Being output.*/
     2703    10614    3                   DO ;

     2704    10615    3                       IF BUF$ -> VLA$OUTPUT.SYSID < 99 AND

  10615  2 000351   300005 221100                    LDX1    5,,PR3
         2 000352   000143 101003                    CMPX1   99,DU
         2 000353   000363 603000 2                  TRC     s:10618
         2 000354   300005 722100                    LXL2    5,,PR3
         2 000355   000144 102003                    CMPX2   100,DU
         2 000356   000363 602000 2                  TNC     s:10618

     2705    10616    3                           BUF$ -> VLA$OUTPUT.NUM > 99
PL6.E3A0      #002=CPK$CHECK_OUTPUT File=CPK$CHECK.:E05TSI                       TUE 07/29/97 11:57 Page:432
     2706    10617    3                         THEN F_FDS.FMT_ = VECTOR(OUTPUT_NOWAIT_MESS_FMT2) ;

  10617  2 000357   000040 237000 3                  LDAQ    32
         2 000360   200007 755100                    STA     F_FDS,,AUTO
         2 000361   200010 756100                    STQ     F_FDS+1,,AUTO
         2 000362   000366 710000 2                  TRA     s:10619

     2707    10618    3                         ELSE F_FDS.FMT_ = VECTOR(OUTPUT_NOWAIT_MESS_FMT) ;

  10618  2 000363   000042 237000 3                  LDAQ    34
         2 000364   200007 755100                    STA     F_FDS,,AUTO
         2 000365   200010 756100                    STQ     F_FDS+1,,AUTO

     2708    10619    3                       I = 0 ;

  10619  2 000366   200343 450100                    STZ     I,,AUTO

     2709    10620    3                       CALL GET_OUTPUT_TYPE(I,OUT_TYPE_ARRY) ;

  10620  2 000367   000044 236000 3                  LDQ     36
         2 000370   200510 756100                    STQ     @MASK+1,,AUTO
         2 000371   200343 634500                    EPPR4   I,,AUTO
         2 000372   200507 454500                    STP4    FPT_STATE+9,,AUTO
         2 000373   001534 701000 2                  TSX1    GET_OUTPUT_TYPE
         2 000374   000000 011000                    NOP     0

     2710    10621    3                   END ; /* ELSE DO */

     2711    10622    2               FMT_VEC(I+1) = VECTOR(BUF$->VLA$OUTPUT.SYSID) ;

  10622  2 000375   200343 235100                    LDA     I,,AUTO
         2 000376   000001 735000                    ALS     1
         2 000377   000000 620005                    EAX0    0,AL
         2 000400   377640 235007                    LDA     130976,DL
         2 000401   200005 236100                    LDQ     BUF$,,AUTO
         2 000402   000005 036003                    ADLQ    5,DU
         2 000403   200047 755110                    STA     FMT_VEC+2,X0,AUTO
PL6.E3A0      #002=CPK$CHECK_OUTPUT File=CPK$CHECK.:E05TSI                       TUE 07/29/97 11:57 Page:433
         2 000404   200050 756110                    STQ     FMT_VEC+3,X0,AUTO

     2712    10623    2               FMT_VEC(I+2) = VECTOR(BUF$->VLA$OUTPUT.NUM) ;

  10623  2 000405   200343 235100                    LDA     I,,AUTO
         2 000406   000001 735000                    ALS     1
         2 000407   000000 620005                    EAX0    0,AL
         2 000410   377640 235007                    LDA     130976,DL
         2 000411   200005 236100                    LDQ     BUF$,,AUTO
         2 000412   000045 036000 3                  ADLQ    37
         2 000413   200051 755110                    STA     FMT_VEC+4,X0,AUTO
         2 000414   200052 756110                    STQ     FMT_VEC+5,X0,AUTO

     2713    10624    2               FMT_VEC(I+3) = VECTOR(BUF$->VLA$OUTPUT.ACCT);

  10624  2 000415   200343 235100                    LDA     I,,AUTO
         2 000416   000001 735000                    ALS     1
         2 000417   000000 620005                    EAX0    0,AL
         2 000420   000011 235000 3                  LDA     9
         2 000421   200005 236100                    LDQ     BUF$,,AUTO
         2 000422   000011 036003                    ADLQ    9,DU
         2 000423   200053 755110                    STA     FMT_VEC+6,X0,AUTO
         2 000424   200054 756110                    STQ     FMT_VEC+7,X0,AUTO

     2714    10625    2               FMT_VEC(I+4) = VECTOR(BUF$->VLA$OUTPUT.PRIO) ;

  10625  2 000425   200343 235100                    LDA     I,,AUTO
         2 000426   000001 735000                    ALS     1
         2 000427   000000 620005                    EAX0    0,AL
         2 000430   177640 235007                    LDA     65440,DL
         2 000431   200005 236100                    LDQ     BUF$,,AUTO
         2 000432   000046 036000 3                  ADLQ    38
         2 000433   200055 755110                    STA     FMT_VEC+8,X0,AUTO
         2 000434   200056 756110                    STQ     FMT_VEC+9,X0,AUTO

     2715    10626    2               FMT_VEC(I+5) = VECTOR(BUF$->VLA$OUTPUT.COPIES) ;

PL6.E3A0      #002=CPK$CHECK_OUTPUT File=CPK$CHECK.:E05TSI                       TUE 07/29/97 11:57 Page:434
  10626  2 000435   200343 235100                    LDA     I,,AUTO
         2 000436   000001 735000                    ALS     1
         2 000437   000000 620005                    EAX0    0,AL
         2 000440   177640 235007                    LDA     65440,DL
         2 000441   200005 236100                    LDQ     BUF$,,AUTO
         2 000442   000047 036000 3                  ADLQ    39
         2 000443   200057 755110                    STA     FMT_VEC+10,X0,AUTO
         2 000444   200060 756110                    STQ     FMT_VEC+11,X0,AUTO

     2716    10627    2               IF BUF$->VLA$OUTPUT.FLG.SAP

  10627  2 000445   200005 470500                    LDP0    BUF$,,AUTO
         2 000446   000004 236100                    LDQ     4,,PR0
         2 000447   200000 316003                    CANQ    65536,DU
         2 000450   000461 600000 2                  TZE     s:10631

     2717    10628    2                 THEN
     2718    10629    2                   FMT_VEC(I+6) = VECTOR(H_CHAR) ;

  10629  2 000451   200343 235100                    LDA     I,,AUTO
         2 000452   000001 735000                    ALS     1
         2 000453   000000 620005                    EAX0    0,AL
         2 000454   000000 621005                    EAX1    0,AL
         2 000455   000050 237000 3                  LDAQ    40
         2 000456   200061 755110                    STA     FMT_VEC+12,X0,AUTO
         2 000457   200062 756111                    STQ     FMT_VEC+13,X1,AUTO
         2 000460   000470 710000 2                  TRA     s:10632

     2719    10630    2                 ELSE
     2720    10631    2                   FMT_VEC(I+6) = VECTOR(BLANK_CHAR) ;

  10631  2 000461   200343 235100                    LDA     I,,AUTO
         2 000462   000001 735000                    ALS     1
         2 000463   000000 620005                    EAX0    0,AL
         2 000464   000000 621005                    EAX1    0,AL
         2 000465   000014 237000 3                  LDAQ    12
         2 000466   200061 755110                    STA     FMT_VEC+12,X0,AUTO
PL6.E3A0      #002=CPK$CHECK_OUTPUT File=CPK$CHECK.:E05TSI                       TUE 07/29/97 11:57 Page:435
         2 000467   200062 756111                    STQ     FMT_VEC+13,X1,AUTO

     2721    10632    2               FMT_VEC(I+7) = VECTOR(BUF$->VLA$OUTPUT.SAPCOPIES) ;

  10632  2 000470   200343 235100                    LDA     I,,AUTO
         2 000471   000001 735000                    ALS     1
         2 000472   000000 620005                    EAX0    0,AL
         2 000473   177640 235007                    LDA     65440,DL
         2 000474   200005 236100                    LDQ     BUF$,,AUTO
         2 000475   000003 036003                    ADLQ    3,DU
         2 000476   200063 755110                    STA     FMT_VEC+14,X0,AUTO
         2 000477   200064 756110                    STQ     FMT_VEC+15,X0,AUTO

     2722    10633    2               FMT_VEC(I+8) = VECTOR(BUF$->VLA$OUTPUT.GRANS) ;

  10633  2 000500   200343 235100                    LDA     I,,AUTO
         2 000501   000001 735000                    ALS     1
         2 000502   000000 620005                    EAX0    0,AL
         2 000503   377640 235007                    LDA     130976,DL
         2 000504   200005 236100                    LDQ     BUF$,,AUTO
         2 000505   000010 036000 3                  ADLQ    8
         2 000506   200065 755110                    STA     FMT_VEC+16,X0,AUTO
         2 000507   200066 756110                    STQ     FMT_VEC+17,X0,AUTO

     2723    10634    2               FMT_VEC(I+9) = VECTOR(BUF$->VLA$OUTPUT.FORM) ;

  10634  2 000510   200343 235100                    LDA     I,,AUTO
         2 000511   000001 735000                    ALS     1
         2 000512   000000 620005                    EAX0    0,AL
         2 000513   000052 235000 3                  LDA     42
         2 000514   200005 236100                    LDQ     BUF$,,AUTO
         2 000515   000007 036003                    ADLQ    7,DU
         2 000516   200067 755110                    STA     FMT_VEC+18,X0,AUTO
         2 000517   200070 756110                    STQ     FMT_VEC+19,X0,AUTO

     2724    10635    2               IF BUF$->VLA$OUTPUT.DEVNAME = ' '

PL6.E3A0      #002=CPK$CHECK_OUTPUT File=CPK$CHECK.:E05TSI                       TUE 07/29/97 11:57 Page:436
  10635  2 000520   000010 720100                    LXL0    8,,PR0
         2 000521   040040 100003                    CMPX0   16416,DU
         2 000522   000534 601000 2                  TNZ     s:10639

     2725    10636    2                 THEN
     2726    10637    2                   FMT_VEC(I+10) = VECTOR(BUF$->VLA$OUTPUT.WOD) ;

  10637  2 000523   200343 235100                    LDA     I,,AUTO
         2 000524   000001 735000                    ALS     1
         2 000525   000000 621005                    EAX1    0,AL
         2 000526   000011 235000 3                  LDA     9
         2 000527   200005 236100                    LDQ     BUF$,,AUTO
         2 000530   000025 036003                    ADLQ    21,DU
         2 000531   200071 755111                    STA     FMT_VEC+20,X1,AUTO
         2 000532   200072 756111                    STQ     FMT_VEC+21,X1,AUTO
         2 000533   000543 710000 2                  TRA     s:10640

     2727    10638    2                 ELSE
     2728    10639    2                   FMT_VEC(I+10) = VECTOR(BUF$->VLA$OUTPUT.TNAME) ;

  10639  2 000534   200343 235100                    LDA     I,,AUTO
         2 000535   000001 735000                    ALS     1
         2 000536   000000 621005                    EAX1    0,AL
         2 000537   000011 235000 3                  LDA     9
         2 000540   200005 236100                    LDQ     BUF$,,AUTO
         2 000541   200071 755111                    STA     FMT_VEC+20,X1,AUTO
         2 000542   200072 756111                    STQ     FMT_VEC+21,X1,AUTO

     2729    10640    2               FMT_VEC(I+11) = VECTOR(BUF$->VLA$OUTPUT.DEVTYP) ;

  10640  2 000543   200343 235100                    LDA     I,,AUTO
         2 000544   000001 735000                    ALS     1
         2 000545   000000 620005                    EAX0    0,AL
         2 000546   377640 235007                    LDA     130976,DL
         2 000547   200005 236100                    LDQ     BUF$,,AUTO
         2 000550   000002 036003                    ADLQ    2,DU
         2 000551   200073 755110                    STA     FMT_VEC+22,X0,AUTO
PL6.E3A0      #002=CPK$CHECK_OUTPUT File=CPK$CHECK.:E05TSI                       TUE 07/29/97 11:57 Page:437
         2 000552   200074 756110                    STQ     FMT_VEC+23,X0,AUTO

     2730    10641    2               FMT_VEC(I+12) = VECTOR(BUF$->VLA$OUTPUT.DEVNAME) ;

  10641  2 000553   200343 235100                    LDA     I,,AUTO
         2 000554   000001 735000                    ALS     1
         2 000555   000000 620005                    EAX0    0,AL
         2 000556   377640 235007                    LDA     130976,DL
         2 000557   200005 236100                    LDQ     BUF$,,AUTO
         2 000560   000053 036000 3                  ADLQ    43
         2 000561   200075 755110                    STA     FMT_VEC+24,X0,AUTO
         2 000562   200076 756110                    STQ     FMT_VEC+25,X0,AUTO

     2731    10642    2               FMT_VEC(I+13) = VECTOR(BUF$->VLA$OUTPUT.JNAME) ;

  10642  2 000563   200343 235100                    LDA     I,,AUTO
         2 000564   000001 735000                    ALS     1
         2 000565   000000 620005                    EAX0    0,AL
         2 000566   000027 235000 3                  LDA     23
         2 000567   200005 236100                    LDQ     BUF$,,AUTO
         2 000570   000013 036003                    ADLQ    11,DU
         2 000571   200077 755110                    STA     FMT_VEC+26,X0,AUTO
         2 000572   200100 756110                    STQ     FMT_VEC+27,X0,AUTO

     2732    10643    2               F_FDS.NVECS# = I + 13 + 1 ;

  10643  2 000573   200343 235100                    LDA     I,,AUTO
         2 000574   000016 035007                    ADLA    14,DL
         2 000575   200020 755100                    STA     F_FDS+9,,AUTO
         2 000576   001375 710000 2                  TRA     s:10832

     2733    10644
     2734    10645    2             CASE( %CP_SYSID_RUN_MESS,

     2735    10646    2                   %CP_SYSID_FOLL_MESS,
     2736    10647    2                   %CP_SYSID_RUNAFTER_MESS,
     2737    10648    2                   %CP_SYSID_WPART_MESS,
PL6.E3A0      #002=CPK$CHECK_OUTPUT File=CPK$CHECK.:E05TSI                       TUE 07/29/97 11:57 Page:438
     2738    10649    2                   %CP_SYSID_OTHER_MESS,
     2739    10650    2                   %CP_SYSID_WPS_MESS,
     2740    10651    2                   %CP_SYSID_WAIT_MESS) ;
     2741    10652    2               CALL OUTPUT_SYSID_IN_AND_RUN ;

  10652  2 000577   002330 701000 2                  TSX1    OUTPUT_SYSID_IN_AND_RUN
         2 000600   000000 011000                    NOP     0
         2 000601   001375 710000 2                  TRA     s:10832

     2742    10653
     2743    10654    2             CASE(%CP_SYSID_OQ_MESS) ;

     2744    10655    2               CALL OUTPUT_SYSID_OQ ;

  10655  2 000602   002656 701000 2                  TSX1    OUTPUT_SYSID_OQ
         2 000603   000000 011000                    NOP     0
         2 000604   001375 710000 2                  TRA     s:10832

     2745    10656
     2746    10657    2             CASE(%CP_INPUT_HDR) ;

     2747    10658    2               F_FDS.FMT_ = VECTOR(INPUT_HDR_FMT) ;

  10658  2 000605   000054 237000 3                  LDAQ    44
         2 000606   200007 755100                    STA     F_FDS,,AUTO
         2 000607   200010 756100                    STQ     F_FDS+1,,AUTO

     2748    10659    2               FMT_VEC(0) = VECTOR(INPUT_HDR) ;

  10659  2 000610   000056 237000 3                  LDAQ    46
         2 000611   200045 755100                    STA     FMT_VEC,,AUTO
         2 000612   200046 756100                    STQ     FMT_VEC+1,,AUTO

     2749    10660    2               F_FDS.NVECS# = 1 ;

  10660  2 000613   000001 235007                    LDA     1,DL
         2 000614   200020 755100                    STA     F_FDS+9,,AUTO
PL6.E3A0      #002=CPK$CHECK_OUTPUT File=CPK$CHECK.:E05TSI                       TUE 07/29/97 11:57 Page:439
         2 000615   001375 710000 2                  TRA     s:10832

     2750    10661
     2751    10662    2             CASE(%CP_RUN_HDR) ;

     2752    10663    2               F_FDS.FMT_ = VECTOR(INPUT_HDR_FMT) ;

  10663  2 000616   000054 237000 3                  LDAQ    44
         2 000617   200007 755100                    STA     F_FDS,,AUTO
         2 000620   200010 756100                    STQ     F_FDS+1,,AUTO

     2753    10664    2               FMT_VEC(0) = VECTOR(RUN_HDR) ;

  10664  2 000621   000060 237000 3                  LDAQ    48
         2 000622   200045 755100                    STA     FMT_VEC,,AUTO
         2 000623   200046 756100                    STQ     FMT_VEC+1,,AUTO

     2754    10665    2               F_FDS.NVECS# = 1 ;

  10665  2 000624   000001 235007                    LDA     1,DL
         2 000625   200020 755100                    STA     F_FDS+9,,AUTO
         2 000626   001375 710000 2                  TRA     s:10832

     2755    10666
     2756    10667    2             CASE(%CP_DFLT_OUTPUT_HDR) ;

     2757    10668    2               F_FDS.FMT_ = VECTOR(DFLT_OUTPUT_HDR_FMT) ;

  10668  2 000627   000062 237000 3                  LDAQ    50
         2 000630   200007 755100                    STA     F_FDS,,AUTO
         2 000631   200010 756100                    STQ     F_FDS+1,,AUTO

     2758    10669    2               FMT_VEC(0) = VECTOR(DFLT_OUTPUT_HDR) ;

  10669  2 000632   000064 237000 3                  LDAQ    52
         2 000633   200045 755100                    STA     FMT_VEC,,AUTO
         2 000634   200046 756100                    STQ     FMT_VEC+1,,AUTO
PL6.E3A0      #002=CPK$CHECK_OUTPUT File=CPK$CHECK.:E05TSI                       TUE 07/29/97 11:57 Page:440

     2759    10670    2               F_FDS.NVECS# = 1 ;

  10670  2 000635   000001 235007                    LDA     1,DL
         2 000636   200020 755100                    STA     F_FDS+9,,AUTO
         2 000637   001375 710000 2                  TRA     s:10832

     2760    10671
     2761    10672    2             CASE(%CP_NUM_LISTED) ;

     2762    10673    2               F_FDS.FMT_ = VECTOR(NUM_LISTED_HDR_FMT) ;

  10673  2 000640   000066 237000 3                  LDAQ    54
         2 000641   200007 755100                    STA     F_FDS,,AUTO
         2 000642   200010 756100                    STQ     F_FDS+1,,AUTO

     2763    10674    2               I = CH_XFORMAT.NUM# ;

  10674  2 000643   100014 235100                    LDA     12,,PR1
         2 000644   200343 755100                    STA     I,,AUTO

     2764    10675    2               FMT_VEC(0) = VECTOR(I) ;

  10675  2 000645   777640 235007                    LDA     -96,DL
         2 000646   200520 452500                    STP2    @START+2,,AUTO
         2 000647   200520 236100                    LDQ     @START+2,,AUTO
         2 000650   000343 036003                    ADLQ    227,DU
         2 000651   200045 755100                    STA     FMT_VEC,,AUTO
         2 000652   200046 756100                    STQ     FMT_VEC+1,,AUTO

     2765    10676    2               FMT_VEC(1) = VECTOR(NUM_LISTED_MESS) ;

  10676  2 000653   000070 237000 3                  LDAQ    56
         2 000654   200047 755100                    STA     FMT_VEC+2,,AUTO
         2 000655   200050 756100                    STQ     FMT_VEC+3,,AUTO

     2766    10677    2               F_FDS.NVECS# = 2 ;
PL6.E3A0      #002=CPK$CHECK_OUTPUT File=CPK$CHECK.:E05TSI                       TUE 07/29/97 11:57 Page:441

  10677  2 000656   000002 235007                    LDA     2,DL
         2 000657   200020 755100                    STA     F_FDS+9,,AUTO
         2 000660   001375 710000 2                  TRA     s:10832

     2767    10678
     2768    10679    2             CASE(%CP_NONE_IN_MESS) ;

     2769    10680    2               F_FDS.FMT_ = VECTOR(NONE_IN_MESS_FMT) ;

  10680  2 000661   000072 237000 3                  LDAQ    58
         2 000662   200007 755100                    STA     F_FDS,,AUTO
         2 000663   200010 756100                    STQ     F_FDS+1,,AUTO

     2770    10681    2               F_FDS.NVECS# = 0 ;

  10681  2 000664   200020 450100                    STZ     F_FDS+9,,AUTO
         2 000665   001375 710000 2                  TRA     s:10832

     2771    10682
     2772    10683    2             CASE(%CP_NONE_RUN_MESS) ;

     2773    10684    2               F_FDS.FMT_ = VECTOR(NONE_RUN_MESS_FMT) ;

  10684  2 000666   000074 237000 3                  LDAQ    60
         2 000667   200007 755100                    STA     F_FDS,,AUTO
         2 000670   200010 756100                    STQ     F_FDS+1,,AUTO

     2774    10685    2               F_FDS.NVECS# = 0 ;

  10685  2 000671   200020 450100                    STZ     F_FDS+9,,AUTO
         2 000672   001375 710000 2                  TRA     s:10832

     2775    10686
     2776    10687    2             CASE(%CP_NONE_OUT_MESS) ;

     2777    10688    2               F_FDS.FMT_ = VECTOR(NONE_OUT_MESS_FMT) ;
PL6.E3A0      #002=CPK$CHECK_OUTPUT File=CPK$CHECK.:E05TSI                       TUE 07/29/97 11:57 Page:442

  10688  2 000673   000076 237000 3                  LDAQ    62
         2 000674   200007 755100                    STA     F_FDS,,AUTO
         2 000675   200010 756100                    STQ     F_FDS+1,,AUTO

     2778    10689    2               F_FDS.NVECS# = 0 ;

  10689  2 000676   200020 450100                    STZ     F_FDS+9,,AUTO
         2 000677   001375 710000 2                  TRA     s:10832

     2779    10690
     2780    10691    2             CASE(%CP_NONE_MESS) ;

     2781    10692    2               F_FDS.FMT_ = VECTOR(NONE_MESS_FMT) ;

  10692  2 000700   000100 237000 3                  LDAQ    64
         2 000701   200007 755100                    STA     F_FDS,,AUTO
         2 000702   200010 756100                    STQ     F_FDS+1,,AUTO

     2782    10693    2               F_FDS.NVECS# = 0 ;

  10693  2 000703   200020 450100                    STZ     F_FDS+9,,AUTO
         2 000704   001375 710000 2                  TRA     s:10832

     2783    10694
     2784    10695    2             CASE(%CP_NOTF_MESS) ;

     2785    10696    2               I = 0 ;

  10696  2 000705   200343 450100                    STZ     I,,AUTO

     2786    10697    2               II = 4 ;

  10697  2 000706   000004 235007                    LDA     4,DL
         2 000707   200344 755100                    STA     II,,AUTO

     2787    10698    2               FMT_BUF = 'Job' ;
PL6.E3A0      #002=CPK$CHECK_OUTPUT File=CPK$CHECK.:E05TSI                       TUE 07/29/97 11:57 Page:443

  10698  2 000710   040100 100400                    MLR     fill='040'O
         2 000711   001400 000003 1                  ADSC9   DEV_TYPES+5              cn=0,n=3
         2 000712   200374 000120                    ADSC9   FMT_BUF,,AUTO            cn=0,n=80

     2788    10699    2               IF CH_XFORMAT.SYSID# ~= 0

  10699  2 000713   100001 235100                    LDA     1,,PR1
         2 000714   000765 600000 2                  TZE     s:10717

     2789    10700    2                 THEN
     2790    10701    3                   DO ;                                  /* SYSID specified. */

     2791    10702    3                     CALL INSERT(FMT_BUF,II,4,'%<>D') ;

  10702  2 000715   200344 235100                    LDA     II,,AUTO
         2 000716   040105 100400                    MLR     fill='040'O
         2 000717   001401 000004 1                  ADSC9   DEV_TYPES+6              cn=0,n=4
         2 000720   200374 000004                    ADSC9   FMT_BUF,A,AUTO           cn=0,n=4

     2792    10703    3                     II = II + 4 ;

  10703  2 000721   000004 035007                    ADLA    4,DL
         2 000722   200344 755100                    STA     II,,AUTO

     2793    10704    3                     FMT_VEC(I) = VECTOR(CH_XFORMAT.SYSID#) ;

  10704  2 000723   200343 235100                    LDA     I,,AUTO
         2 000724   000001 735000                    ALS     1
         2 000725   000000 620005                    EAX0    0,AL
         2 000726   777640 235007                    LDA     -96,DL
         2 000727   200003 236100                    LDQ     @CH_XFORMAT,,AUTO
         2 000730   000001 036003                    ADLQ    1,DU
         2 000731   200045 755110                    STA     FMT_VEC,X0,AUTO
         2 000732   200046 756110                    STQ     FMT_VEC+1,X0,AUTO

     2794    10705    3                     I = I + 1 ;
PL6.E3A0      #002=CPK$CHECK_OUTPUT File=CPK$CHECK.:E05TSI                       TUE 07/29/97 11:57 Page:444

  10705  2 000733   200343 235100                    LDA     I,,AUTO
         2 000734   000001 035007                    ADLA    1,DL
         2 000735   200343 755100                    STA     I,,AUTO

     2795    10706    3                     IF CH_XFORMAT.NUM# ~= 0

  10706  2 000736   100014 235100                    LDA     12,,PR1
         2 000737   000762 600000 2                  TZE     s:10715

     2796    10707    3                       THEN
     2797    10708    4                         DO ;                                  /* NUM specified. */

     2798    10709    4                           CALL INSERT(FMT_BUF,II,6,'-%<>D') ;

  10709  2 000740   200344 236100                    LDQ     II,,AUTO
         2 000741   040106 100400                    MLR     fill='040'O
         2 000742   001402 000005 1                  ADSC9   DEV_TYPES+7              cn=0,n=5
         2 000743   200374 000006                    ADSC9   FMT_BUF,Q,AUTO           cn=0,n=6

     2799    10710    4                           II = II + 6 ;

  10710  2 000744   000006 036007                    ADLQ    6,DL
         2 000745   200344 756100                    STQ     II,,AUTO

     2800    10711    4                           FMT_VEC(I) = VECTOR(CH_XFORMAT.NUM#) ;

  10711  2 000746   200343 235100                    LDA     I,,AUTO
         2 000747   000001 735000                    ALS     1
         2 000750   000000 620005                    EAX0    0,AL
         2 000751   777640 235007                    LDA     -96,DL
         2 000752   200003 236100                    LDQ     @CH_XFORMAT,,AUTO
         2 000753   000014 036003                    ADLQ    12,DU
         2 000754   200045 755110                    STA     FMT_VEC,X0,AUTO
         2 000755   200046 756110                    STQ     FMT_VEC+1,X0,AUTO

     2801    10712    4                           I = I + 1 ;
PL6.E3A0      #002=CPK$CHECK_OUTPUT File=CPK$CHECK.:E05TSI                       TUE 07/29/97 11:57 Page:445

  10712  2 000756   200343 235100                    LDA     I,,AUTO
         2 000757   000001 035007                    ADLA    1,DL
         2 000760   200343 755100                    STA     I,,AUTO

     2802    10713    4                         END ; /* THEN DO */

  10713  2 000761   000765 710000 2                  TRA     s:10717

     2803    10714    3                       ELSE
     2804    10715    3                         II = II + 1;  /* Insert a blank. */

  10715  2 000762   200344 236100                    LDQ     II,,AUTO
         2 000763   000001 036007                    ADLQ    1,DL
         2 000764   200344 756100                    STQ     II,,AUTO

     2805    10716    3                   END ; /* THEN DO */

     2806    10717    2               IF CH_XFORMAT.JOBNAME# ~= ' '

  10717  2 000765   040000 106500                    CMPC    fill='040'O
         2 000766   100004 000037                    ADSC9   4,,PR1                   cn=0,n=31
         2 000767   000035 000001 xsym               ADSC9   B_VECTNIL+29             cn=0,n=1
         2 000770   001012 600000 2                  TZE     s:10725

     2807    10718    2                 THEN
     2808    10719    3                   DO ;                                  /* JOBNAME specified. */

     2809    10720    3                     CALL INSERT(FMT_BUF,II,5,'%<>A.') ;

  10720  2 000771   200344 235100                    LDA     II,,AUTO
         2 000772   040105 100400                    MLR     fill='040'O
         2 000773   001404 000005 1                  ADSC9   DEV_TYPES+9              cn=0,n=5
         2 000774   200374 000005                    ADSC9   FMT_BUF,A,AUTO           cn=0,n=5

     2810    10721    3                     II = II + 5 ;

PL6.E3A0      #002=CPK$CHECK_OUTPUT File=CPK$CHECK.:E05TSI                       TUE 07/29/97 11:57 Page:446
  10721  2 000775   000005 035007                    ADLA    5,DL
         2 000776   200344 755100                    STA     II,,AUTO

     2811    10722    3                     FMT_VEC(I) = VECTOR(CH_XFORMAT.JOBNAME#) ;

  10722  2 000777   200343 236100                    LDQ     I,,AUTO
         2 001000   000001 736000                    QLS     1
         2 001001   000027 235000 3                  LDA     23
         2 001002   000000 620006                    EAX0    0,QL
         2 001003   200003 236100                    LDQ     @CH_XFORMAT,,AUTO
         2 001004   000004 036003                    ADLQ    4,DU
         2 001005   200045 755110                    STA     FMT_VEC,X0,AUTO
         2 001006   200046 756110                    STQ     FMT_VEC+1,X0,AUTO

     2812    10723    3                     I = I + 1 ;

  10723  2 001007   200343 235100                    LDA     I,,AUTO
         2 001010   000001 035007                    ADLA    1,DL
         2 001011   200343 755100                    STA     I,,AUTO

     2813    10724    3                   END ; /* THEN DO */

     2814    10725    2               IF CH_XFORMAT.ACCT# ~= ' '

  10725  2 001012   040000 106500                    CMPC    fill='040'O
         2 001013   100002 000010                    ADSC9   2,,PR1                   cn=0,n=8
         2 001014   000035 000001 xsym               ADSC9   B_VECTNIL+29             cn=0,n=1
         2 001015   001050 600000 2                  TZE     s:10739

     2815    10726    2                 THEN
     2816    10727    3                   DO ;                                  /* ACCT specified. */

     2817    10728    3                     IF SUBSTR(FMT_BUF,II-1,1) ~= '.'

  10728  2 001016   200344 235100                    LDA     II,,AUTO
         2 001017   040000 106505                    CMPC    fill='040'O
         2 001020   200373 600001                    ADSC9   RECNO_+1,A,AUTO          cn=3,n=1
PL6.E3A0      #002=CPK$CHECK_OUTPUT File=CPK$CHECK.:E05TSI                       TUE 07/29/97 11:57 Page:447
         2 001021   000025 000001 3                  ADSC9   21                       cn=0,n=1
         2 001022   001030 600000 2                  TZE     s:10734

     2818    10729    3                       THEN
     2819    10730    4                         DO ;                            /* No JOBNAME */

     2820    10731    4                           CALL INSERT(FMT_BUF,II,1,'.') ;

  10731  2 001023   040105 100400                    MLR     fill='040'O
         2 001024   000025 000001 3                  ADSC9   21                       cn=0,n=1
         2 001025   200374 000001                    ADSC9   FMT_BUF,A,AUTO           cn=0,n=1

     2821    10732    4                           II = II + 1 ;

  10732  2 001026   000001 035007                    ADLA    1,DL
         2 001027   200344 755100                    STA     II,,AUTO

     2822    10733    4                         END ; /* THEN DO */

     2823    10734    3                     CALL INSERT(FMT_BUF,II,5,'%<>A') ;

  10734  2 001030   040105 100400                    MLR     fill='040'O
         2 001031   001404 000004 1                  ADSC9   DEV_TYPES+9              cn=0,n=4
         2 001032   200374 000005                    ADSC9   FMT_BUF,A,AUTO           cn=0,n=5

     2824    10735    3                     II = II + 5 ;

  10735  2 001033   000005 035007                    ADLA    5,DL
         2 001034   200344 755100                    STA     II,,AUTO

     2825    10736    3                     FMT_VEC(I) = VECTOR(CH_XFORMAT.ACCT#) ;

  10736  2 001035   200343 236100                    LDQ     I,,AUTO
         2 001036   000001 736000                    QLS     1
         2 001037   000011 235000 3                  LDA     9
         2 001040   000000 620006                    EAX0    0,QL
         2 001041   200003 236100                    LDQ     @CH_XFORMAT,,AUTO
PL6.E3A0      #002=CPK$CHECK_OUTPUT File=CPK$CHECK.:E05TSI                       TUE 07/29/97 11:57 Page:448
         2 001042   000002 036003                    ADLQ    2,DU
         2 001043   200045 755110                    STA     FMT_VEC,X0,AUTO
         2 001044   200046 756110                    STQ     FMT_VEC+1,X0,AUTO

     2826    10737    3                     I = I + 1 ;

  10737  2 001045   200343 235100                    LDA     I,,AUTO
         2 001046   000001 035007                    ADLA    1,DL
         2 001047   200343 755100                    STA     I,,AUTO

     2827    10738    3                   END ; /* THEN DO */

     2828    10739    2               IF SUBSTR(FMT_BUF,II-1,1) ~= ' '

  10739  2 001050   200344 235100                    LDA     II,,AUTO
         2 001051   040000 106505                    CMPC    fill='040'O
         2 001052   200373 600001                    ADSC9   RECNO_+1,A,AUTO          cn=3,n=1
         2 001053   000035 000001 xsym               ADSC9   B_VECTNIL+29             cn=0,n=1
         2 001054   001057 600000 2                  TZE     s:10741

     2829    10740    2                 THEN II = II + 1 ;    /* Add a blank */

  10740  2 001055   000001 035007                    ADLA    1,DL
         2 001056   200344 755100                    STA     II,,AUTO

     2830    10741    2               CALL INSERT(FMT_BUF,II,14,'was not found.') ;

  10741  2 001057   040105 100400                    MLR     fill='040'O
         2 001060   001406 000016 1                  ADSC9   DEV_TYPES+11             cn=0,n=14
         2 001061   200374 000016                    ADSC9   FMT_BUF,A,AUTO           cn=0,n=14

     2831    10742    2               II = II + 14 ;

  10742  2 001062   000016 035007                    ADLA    14,DL
         2 001063   200344 755100                    STA     II,,AUTO

     2832    10743    2               F_FDS.NVECS# = I ;
PL6.E3A0      #002=CPK$CHECK_OUTPUT File=CPK$CHECK.:E05TSI                       TUE 07/29/97 11:57 Page:449

  10743  2 001064   200343 236100                    LDQ     I,,AUTO
         2 001065   200020 756100                    STQ     F_FDS+9,,AUTO

     2833    10744    2               F_FDS.FMT_ = VECTOR(FMT_BUF) ;

  10744  2 001066   000102 235000 3                  LDA     66
         2 001067   200520 452500                    STP2    @START+2,,AUTO
         2 001070   200520 236100                    LDQ     @START+2,,AUTO
         2 001071   000374 036003                    ADLQ    252,DU
         2 001072   200007 755100                    STA     F_FDS,,AUTO
         2 001073   200010 756100                    STQ     F_FDS+1,,AUTO
         2 001074   001375 710000 2                  TRA     s:10832

     2834    10745
     2835    10746    2             CASE(%CP_APRESCAN_MESS) ;

     2836    10747    2               I = 0 ;

  10747  2 001075   200343 450100                    STZ     I,,AUTO

     2837    10748    2               IF (CH_XFORMAT.SYSID# ~= 0)

  10748  2 001076   100001 235100                    LDA     1,,PR1
         2 001077   001113 600000 2                  TZE     s:10755

     2838    10749    2                 THEN
     2839    10750    3                   DO ;                          /* SYSID */

     2840    10751    3                     F_FDS.FMT_ = VECTOR(APRESCAN_FMT2) ;

  10751  2 001100   000104 237000 3                  LDAQ    68
         2 001101   200007 755100                    STA     F_FDS,,AUTO
         2 001102   200010 756100                    STQ     F_FDS+1,,AUTO

     2841    10752    3                     FMT_VEC(0) = VECTOR(CH_XFORMAT.SYSID#) ;

PL6.E3A0      #002=CPK$CHECK_OUTPUT File=CPK$CHECK.:E05TSI                       TUE 07/29/97 11:57 Page:450
  10752  2 001103   777640 235007                    LDA     -96,DL
         2 001104   200003 236100                    LDQ     @CH_XFORMAT,,AUTO
         2 001105   000001 036003                    ADLQ    1,DU
         2 001106   200045 755100                    STA     FMT_VEC,,AUTO
         2 001107   200046 756100                    STQ     FMT_VEC+1,,AUTO

     2842    10753    3                     I = 1 ;

  10753  2 001110   000001 235007                    LDA     1,DL
         2 001111   200343 755100                    STA     I,,AUTO

     2843    10754    3                   END ; /* THEN DO */

  10754  2 001112   001116 710000 2                  TRA     s:10756

     2844    10755    2                 ELSE F_FDS.FMT_ = VECTOR(APRESCAN_FMT1) ;   /* No SYSID */

  10755  2 001113   000106 237000 3                  LDAQ    70
         2 001114   200007 755100                    STA     F_FDS,,AUTO
         2 001115   200010 756100                    STQ     F_FDS+1,,AUTO

     2845    10756    2                 FMT_VEC(I) = VECTOR(CH_XFORMAT.JOBNAME#) ;

  10756  2 001116   200343 235100                    LDA     I,,AUTO
         2 001117   000001 735000                    ALS     1
         2 001120   000000 620005                    EAX0    0,AL
         2 001121   000027 235000 3                  LDA     23
         2 001122   200003 236100                    LDQ     @CH_XFORMAT,,AUTO
         2 001123   000004 036003                    ADLQ    4,DU
         2 001124   200045 755110                    STA     FMT_VEC,X0,AUTO
         2 001125   200046 756110                    STQ     FMT_VEC+1,X0,AUTO

     2846    10757    2                 F_FDS.NVECS# = I + 1 ;

  10757  2 001126   200343 235100                    LDA     I,,AUTO
         2 001127   000001 035007                    ADLA    1,DL
         2 001130   200020 755100                    STA     F_FDS+9,,AUTO
PL6.E3A0      #002=CPK$CHECK_OUTPUT File=CPK$CHECK.:E05TSI                       TUE 07/29/97 11:57 Page:451
         2 001131   001375 710000 2                  TRA     s:10832

     2847    10758
     2848    10759    2             CASE(%CP_COMPLETED_MESS) ;

     2849    10760    2               I = 0 ;

  10760  2 001132   200343 450100                    STZ     I,,AUTO

     2850    10761    2               IF (CH_XFORMAT.SYSID# ~= 0)

  10761  2 001133   100001 235100                    LDA     1,,PR1
         2 001134   001150 600000 2                  TZE     s:10768

     2851    10762    2                 THEN
     2852    10763    3                   DO ;                          /* SYSID */

     2853    10764    3                     F_FDS.FMT_ = VECTOR(COMPLETED_FMT2) ;

  10764  2 001135   000110 237000 3                  LDAQ    72
         2 001136   200007 755100                    STA     F_FDS,,AUTO
         2 001137   200010 756100                    STQ     F_FDS+1,,AUTO

     2854    10765    3                     FMT_VEC(0) = VECTOR(CH_XFORMAT.SYSID#) ;

  10765  2 001140   777640 235007                    LDA     -96,DL
         2 001141   200003 236100                    LDQ     @CH_XFORMAT,,AUTO
         2 001142   000001 036003                    ADLQ    1,DU
         2 001143   200045 755100                    STA     FMT_VEC,,AUTO
         2 001144   200046 756100                    STQ     FMT_VEC+1,,AUTO

     2855    10766    3                     I = 1 ;

  10766  2 001145   000001 235007                    LDA     1,DL
         2 001146   200343 755100                    STA     I,,AUTO

     2856    10767    3                   END ; /* THEN DO */
PL6.E3A0      #002=CPK$CHECK_OUTPUT File=CPK$CHECK.:E05TSI                       TUE 07/29/97 11:57 Page:452

  10767  2 001147   001153 710000 2                  TRA     s:10769

     2857    10768    2                 ELSE F_FDS.FMT_ = VECTOR(COMPLETED_FMT1) ;   /* No SYSID */

  10768  2 001150   000112 237000 3                  LDAQ    74
         2 001151   200007 755100                    STA     F_FDS,,AUTO
         2 001152   200010 756100                    STQ     F_FDS+1,,AUTO

     2858    10769    2                 FMT_VEC(I) = VECTOR(CH_XFORMAT.JOBNAME#) ;

  10769  2 001153   200343 235100                    LDA     I,,AUTO
         2 001154   000001 735000                    ALS     1
         2 001155   000000 620005                    EAX0    0,AL
         2 001156   000027 235000 3                  LDA     23
         2 001157   200003 236100                    LDQ     @CH_XFORMAT,,AUTO
         2 001160   000004 036003                    ADLQ    4,DU
         2 001161   200045 755110                    STA     FMT_VEC,X0,AUTO
         2 001162   200046 756110                    STQ     FMT_VEC+1,X0,AUTO

     2859    10770    2                 F_FDS.NVECS# = I + 1 ;

  10770  2 001163   200343 235100                    LDA     I,,AUTO
         2 001164   000001 035007                    ADLA    1,DL
         2 001165   200020 755100                    STA     F_FDS+9,,AUTO
         2 001166   001375 710000 2                  TRA     s:10832

     2860    10771
     2861    10772    2             CASE(%CP_DOESNT_EXIST_MESS) ;

     2862    10773    2               F_FDS.FMT_ = VECTOR(FMT1) ;

  10773  2 001167   000114 237000 3                  LDAQ    76
         2 001170   200007 755100                    STA     F_FDS,,AUTO
         2 001171   200010 756100                    STQ     F_FDS+1,,AUTO

     2863    10774    2               FMT_VEC(0) = VECTOR(CH_XFORMAT.SYSID#) ;
PL6.E3A0      #002=CPK$CHECK_OUTPUT File=CPK$CHECK.:E05TSI                       TUE 07/29/97 11:57 Page:453

  10774  2 001172   777640 235007                    LDA     -96,DL
         2 001173   200003 236100                    LDQ     @CH_XFORMAT,,AUTO
         2 001174   000001 036003                    ADLQ    1,DU
         2 001175   200045 755100                    STA     FMT_VEC,,AUTO
         2 001176   200046 756100                    STQ     FMT_VEC+1,,AUTO

     2864    10775    2               FMT_VEC(1) = VECTOR(CH_XFORMAT.NUM#) ;

  10775  2 001177   777640 235007                    LDA     -96,DL
         2 001200   200003 236100                    LDQ     @CH_XFORMAT,,AUTO
         2 001201   000014 036003                    ADLQ    12,DU
         2 001202   200047 755100                    STA     FMT_VEC+2,,AUTO
         2 001203   200050 756100                    STQ     FMT_VEC+3,,AUTO

     2865    10776    2               FMT_VEC(2) = VECTOR(CH_XFORMAT.JOBNAME#) ;

  10776  2 001204   000027 235000 3                  LDA     23
         2 001205   200003 236100                    LDQ     @CH_XFORMAT,,AUTO
         2 001206   000004 036003                    ADLQ    4,DU
         2 001207   200051 755100                    STA     FMT_VEC+4,,AUTO
         2 001210   200052 756100                    STQ     FMT_VEC+5,,AUTO

     2866    10777    2               FMT_VEC(3) = VECTOR(CH_XFORMAT.ACCT#) ;

  10777  2 001211   000011 235000 3                  LDA     9
         2 001212   200003 236100                    LDQ     @CH_XFORMAT,,AUTO
         2 001213   000002 036003                    ADLQ    2,DU
         2 001214   200053 755100                    STA     FMT_VEC+6,,AUTO
         2 001215   200054 756100                    STQ     FMT_VEC+7,,AUTO

     2867    10778    2               IF (CH_XFORMAT.COMMENT# ~= ' ')

  10778  2 001216   040000 106500                    CMPC    fill='040'O
         2 001217   100017 000030                    ADSC9   15,,PR1                  cn=0,n=24
         2 001220   000035 000001 xsym               ADSC9   B_VECTNIL+29             cn=0,n=1
         2 001221   001232 600000 2                  TZE     s:10784
PL6.E3A0      #002=CPK$CHECK_OUTPUT File=CPK$CHECK.:E05TSI                       TUE 07/29/97 11:57 Page:454

     2868    10779    2                 THEN
     2869    10780    3                   DO ;

     2870    10781    3                     I = 4 ;

  10781  2 001222   000004 235007                    LDA     4,DL
         2 001223   200343 755100                    STA     I,,AUTO

     2871    10782    3                     FMT_VEC(4) = VECTOR(CH_XFORMAT.COMMENT#) ;

  10782  2 001224   000103 235000 3                  LDA     67
         2 001225   200003 236100                    LDQ     @CH_XFORMAT,,AUTO
         2 001226   000017 036003                    ADLQ    15,DU
         2 001227   200055 755100                    STA     FMT_VEC+8,,AUTO
         2 001230   200056 756100                    STQ     FMT_VEC+9,,AUTO

     2872    10783    3                   END ; /* THEN DO */

  10783  2 001231   001234 710000 2                  TRA     s:10785

     2873    10784    2                 ELSE I = 3 ;

  10784  2 001232   000003 235007                    LDA     3,DL
         2 001233   200343 755100                    STA     I,,AUTO

     2874    10785    2               F_FDS.NVECS# = I + 1 ;

  10785  2 001234   200343 235100                    LDA     I,,AUTO
         2 001235   000001 035007                    ADLA    1,DL
         2 001236   200020 755100                    STA     F_FDS+9,,AUTO
         2 001237   001375 710000 2                  TRA     s:10832

     2875    10786
     2876    10787
     2877    10788    2             CASE(%CP_FINAL_STAT_MESS) ;

PL6.E3A0      #002=CPK$CHECK_OUTPUT File=CPK$CHECK.:E05TSI                       TUE 07/29/97 11:57 Page:455
     2878    10789    2               CALL OUTPUT_FINAL_STATUS ;

  10789  2 001240   001564 701000 2                  TSX1    OUTPUT_FINAL_STATUS
         2 001241   000000 011000                    NOP     0
         2 001242   001375 710000 2                  TRA     s:10832

     2879    10790
     2880    10791    2             CASE(%CP_TIME_DI_MESS,

     2881    10792    2                   %CP_TIME_DI_W_BELL_MESS) ;
     2882    10793    2               FPT_DISPLAY = CFPT_DISPLAY ;

  10793  2 001243   000000 237000 xsym               LDAQ    CFPT_DISPLAY
         2 001244   200460 757100                    STAQ    FPT_DISPLAY,,AUTO

     2883    10794    2               FPT_DISPLAY.RESULTS_ = VECTOR(VLR_DISPLAY) ;

  10794  2 001245   000116 235000 3                  LDA     78
         2 001246   200520 452500                    STP2    @START+2,,AUTO
         2 001247   200520 236100                    LDQ     @START+2,,AUTO
         2 001250   000450 036003                    ADLQ    296,DU
         2 001251   200460 757100                    STAQ    FPT_DISPLAY,,AUTO

     2884    10795    2               CALL M$DISPLAY (FPT_DISPLAY) ;

  10795  2 001252   200460 630500                    EPPR0   FPT_DISPLAY,,AUTO
         2 001253   020007 713400                    CLIMB   8199
         2 001254   400000 401760                    pmme    nvectors=1

     2885    10796    2               FPT_TIME = CFPT_TIME ;

  10796  2 001255   000100 100400                    MLR     fill='000'O
         2 001256   000000 000060 xsym               ADSC9   CFPT_TIME                cn=0,n=48
         2 001257   200462 000060                    ADSC9   FPT_TIME,,AUTO           cn=0,n=48

     2886    10797    2               FPT_TIME.V_ = VECTOR(FPT_TIME.V) ;

PL6.E3A0      #002=CPK$CHECK_OUTPUT File=CPK$CHECK.:E05TSI                       TUE 07/29/97 11:57 Page:456
  10797  2 001260   000011 235000 3                  LDA     9
         2 001261   200520 452500                    STP2    @START+2,,AUTO
         2 001262   200520 236100                    LDQ     @START+2,,AUTO
         2 001263   000474 036003                    ADLQ    316,DU
         2 001264   200462 757100                    STAQ    FPT_TIME,,AUTO

     2887    10798    2               FPT_TIME.TSTAMP_ = VECTOR(UTS) ;

  10798  2 001265   777640 235007                    LDA     -96,DL
         2 001266   200520 452500                    STP2    @START+2,,AUTO
         2 001267   200520 236100                    LDQ     @START+2,,AUTO
         2 001270   000347 036003                    ADLQ    231,DU
         2 001271   200472 757100                    STAQ    FPT_TIME+8,,AUTO

     2888    10799    2               CALL M$TIME(FPT_TIME) ;

  10799  2 001272   200462 630500                    EPPR0   FPT_TIME,,AUTO
         2 001273   020004 713400                    CLIMB   8196
         2 001274   402000 401760                    pmme    nvectors=5

     2889    10800    2               F_FDS.FMT_ = VECTOR(TIME_DI_MESS_HDR) ;

  10800  2 001275   000120 237000 3                  LDAQ    80
         2 001276   200007 755100                    STA     F_FDS,,AUTO
         2 001277   200010 756100                    STQ     F_FDS+1,,AUTO

     2890    10801    2               FMT_VEC(0) = VECTOR(UTS) ;

  10801  2 001300   777640 235007                    LDA     -96,DL
         2 001301   200520 452500                    STP2    @START+2,,AUTO
         2 001302   200520 236100                    LDQ     @START+2,,AUTO
         2 001303   000347 036003                    ADLQ    231,DU
         2 001304   200045 755100                    STA     FMT_VEC,,AUTO
         2 001305   200046 756100                    STQ     FMT_VEC+1,,AUTO

     2891    10802    2               FMT_VEC(1) = VECTOR(VLR_DISPLAY.USERS) ;

PL6.E3A0      #002=CPK$CHECK_OUTPUT File=CPK$CHECK.:E05TSI                       TUE 07/29/97 11:57 Page:457
  10802  2 001306   777640 235007                    LDA     -96,DL
         2 001307   200520 452500                    STP2    @START+2,,AUTO
         2 001310   200520 236100                    LDQ     @START+2,,AUTO
         2 001311   000450 036003                    ADLQ    296,DU
         2 001312   200047 755100                    STA     FMT_VEC+2,,AUTO
         2 001313   200050 756100                    STQ     FMT_VEC+3,,AUTO

     2892    10803    2               FMT_VEC(2) = VECTOR(VLR_DISPLAY.ETMF) ;

  10803  2 001314   777640 235007                    LDA     -96,DL
         2 001315   200520 452500                    STP2    @START+2,,AUTO
         2 001316   200520 236100                    LDQ     @START+2,,AUTO
         2 001317   000451 036003                    ADLQ    297,DU
         2 001320   200051 755100                    STA     FMT_VEC+4,,AUTO
         2 001321   200052 756100                    STQ     FMT_VEC+5,,AUTO

     2893    10804    2               FMT_VEC(3) = VECTOR(VLR_DISPLAY.RESP) ;

  10804  2 001322   777640 235007                    LDA     -96,DL
         2 001323   200520 452500                    STP2    @START+2,,AUTO
         2 001324   200520 236100                    LDQ     @START+2,,AUTO
         2 001325   000452 036003                    ADLQ    298,DU
         2 001326   200053 755100                    STA     FMT_VEC+6,,AUTO
         2 001327   200054 756100                    STQ     FMT_VEC+7,,AUTO

     2894    10805    2               IF CH_XFORMAT.MSG# = %CP_TIME_DI_MESS

  10805  2 001330   200003 470500                    LDP0    @CH_XFORMAT,,AUTO
         2 001331   000000 235100                    LDA     0,,PR0
         2 001332   000011 115007                    CMPA    9,DL
         2 001333   001337 601000 2                  TNZ     s:10810

     2895    10806    2                 THEN
     2896    10807    2                   F_FDS.NVECS# = 4 ;

  10807  2 001334   000004 235007                    LDA     4,DL
         2 001335   200020 755100                    STA     F_FDS+9,,AUTO
PL6.E3A0      #002=CPK$CHECK_OUTPUT File=CPK$CHECK.:E05TSI                       TUE 07/29/97 11:57 Page:458
         2 001336   001375 710000 2                  TRA     s:10832

     2897    10808    2                 ELSE
     2898    10809    3                   DO ;

     2899    10810    3                     FMT_VEC(4) = VECTOR(BELL) ;

  10810  2 001337   000122 237000 3                  LDAQ    82
         2 001340   200055 755100                    STA     FMT_VEC+8,,AUTO
         2 001341   200056 756100                    STQ     FMT_VEC+9,,AUTO

     2900    10811    3                     F_FDS.NVECS# = 5 ;

  10811  2 001342   000005 235007                    LDA     5,DL
         2 001343   200020 755100                    STA     F_FDS+9,,AUTO

     2901    10812    3                   END ; /* Else Do */

  10812  2 001344   001375 710000 2                  TRA     s:10832

     2902    10813
     2903    10814    2             CASE(%CP_BLANKLINE_MESS) ;

     2904    10815    2               F_FDS.FMT_ = VECTOR(BLANK_FMT) ;

  10815  2 001345   000124 237000 3                  LDAQ    84
         2 001346   200007 755100                    STA     F_FDS,,AUTO
         2 001347   200010 756100                    STQ     F_FDS+1,,AUTO

     2905    10816    2               F_FDS.NVECS# = 0 ;

  10816  2 001350   200020 450100                    STZ     F_FDS+9,,AUTO
         2 001351   001375 710000 2                  TRA     s:10832

     2906    10817
     2907    10818    2             CASE(%CP_NO_TERM_OUT_MESS) ;

PL6.E3A0      #002=CPK$CHECK_OUTPUT File=CPK$CHECK.:E05TSI                       TUE 07/29/97 11:57 Page:459
     2908    10819    2               F_FDS.FMT_ = VECTOR(NO_TERM_OUT_HDR) ;

  10819  2 001352   000126 237000 3                  LDAQ    86
         2 001353   200007 755100                    STA     F_FDS,,AUTO
         2 001354   200010 756100                    STQ     F_FDS+1,,AUTO

     2909    10820    2               FMT_VEC(0) = VECTOR(CH_XFORMAT.SYSID#) ;

  10820  2 001355   777640 235007                    LDA     -96,DL
         2 001356   200003 236100                    LDQ     @CH_XFORMAT,,AUTO
         2 001357   000001 036003                    ADLQ    1,DU
         2 001360   200045 755100                    STA     FMT_VEC,,AUTO
         2 001361   200046 756100                    STQ     FMT_VEC+1,,AUTO

     2910    10821    2               F_FDS.NVECS# = 1 ;

  10821  2 001362   000001 235007                    LDA     1,DL
         2 001363   200020 755100                    STA     F_FDS+9,,AUTO
         2 001364   001375 710000 2                  TRA     s:10832

     2911    10822
     2912    10823    2             CASE(%CP_HELD_LINE) ;

     2913    10824    2               F_FDS.FMT_ = VECTOR(HELD_LINE_FMT) ;

  10824  2 001365   000130 237000 3                  LDAQ    88
         2 001366   200007 755100                    STA     F_FDS,,AUTO
         2 001367   200010 756100                    STQ     F_FDS+1,,AUTO

     2914    10825    2               F_FDS.NVECS# = 0 ;

  10825  2 001370   200020 450100                    STZ     F_FDS+9,,AUTO
         2 001371   001375 710000 2                  TRA     s:10832

     2915    10826
     2916    10827    2             CASE(ELSE) ;

PL6.E3A0      #002=CPK$CHECK_OUTPUT File=CPK$CHECK.:E05TSI                       TUE 07/29/97 11:57 Page:460
     2917    10828    2               F_FDS.FMT_ = VECTOR(NO_SUCH_MESS_HDR) ;

  10828  2 001372   000132 237000 3                  LDAQ    90
         2 001373   200007 755100                    STA     F_FDS,,AUTO
         2 001374   200010 756100                    STQ     F_FDS+1,,AUTO

     2918    10829
     2919    10830    2         END ; /* DO CASE */

     2920    10831
     2921    10832    1         CALL X$FORMAT(F_FDS) ;

  10832  2 001375   200007 630500                    EPPR0   F_FDS,,AUTO
         2 001376   200520 450500                    STP0    @START+2,,AUTO
         2 001377   200520 630500                    EPPR0   @START+2,,AUTO
         2 001400   000017 631400 xsym               EPPR1   B_VECTNIL+15
         2 001401   000000 701000 xent               TSX1    X$FORMAT
         2 001402   000000 011000                    NOP     0

     2922    10833    1         IF ADDR(NLINES) ~= ADDR(NIL)

  10833  2 001403   200004 236100                    LDQ     @NLINES,,AUTO
         2 001404   000001 116000 xsym               CMPQ    B_VECTNIL+1
         2 001405   001453 600000 2                  TZE     s:10855

     2923    10834    1             THEN
     2924    10835    2               DO ;

     2925    10836    2                 NCHARS = F_FDS.WRITEFPT$->FPT$WRITE.BUF_.BOUND+1 ;

  10836  2 001406   200040 470500                    LDP0    F_FDS+25,,AUTO
         2 001407   000004 236100                    LDQ     4,,PR0
         2 001410   000020 772000                    QRL     16
         2 001411   000001 036007                    ADLQ    1,DL
         2 001412   200445 756100                    STQ     NCHARS,,AUTO

     2926    10837    2                 WIDTH = DCBADDR(SEG2$->SEG$2.LLDCB#)->F$DCB.WIDTH# ;
PL6.E3A0      #002=CPK$CHECK_OUTPUT File=CPK$CHECK.:E05TSI                       TUE 07/29/97 11:57 Page:461

  10837  2 001413   000117 471400 3                  LDP1    79
         2 001414   100000 473500                    LDP3    0,,PR1
         2 001415   000000 474400 xsym               LDP4    SEG2$
         2 001416   400000 720100                    LXL0    0,,PR4
         2 001417   300000 475510                    LDP5    0,X0,PR3
         2 001420   500004 236100                    LDQ     4,,PR5
         2 001421   000777 376007                    ANQ     511,DL
         2 001422   200446 756100                    STQ     WIDTH,,AUTO

     2927    10838    2                 IF WIDTH = 0

  10838  2 001423   001431 601000 2                  TNZ     s:10845

     2928    10839    2                   THEN
     2929    10840    3                     DO ;

     2930    10841    3                       NCHARS = 0 ;

  10841  2 001424   200445 450100                    STZ     NCHARS,,AUTO

     2931    10842    3                       NLINES = 1 ;

  10842  2 001425   000001 235007                    LDA     1,DL
         2 001426   200004 476500                    LDP6    @NLINES,,AUTO
         2 001427   600000 755100                    STA     0,,PR6

     2932    10843    3                     END ; /* Then Do */

  10843  2 001430   001433 710000 2                  TRA     s:10846

     2933    10844    2                   ELSE
     2934    10845    2                     NLINES = 0 ;

  10845  2 001431   200004 476500                    LDP6    @NLINES,,AUTO
         2 001432   600000 450100                    STZ     0,,PR6

PL6.E3A0      #002=CPK$CHECK_OUTPUT File=CPK$CHECK.:E05TSI                       TUE 07/29/97 11:57 Page:462
     2935    10846    3                 DO WHILE(NCHARS > 0) ;

  10846  2 001433   200445 235100                    LDA     NCHARS,,AUTO
         2 001434   001453 600000 2                  TZE     s:10855

     2936    10847    3                   IF NCHARS > WIDTH

  10847  2 001435   200446 236100                    LDQ     WIDTH,,AUTO
         2 001436   200445 116100                    CMPQ    NCHARS,,AUTO
         2 001437   001444 603000 2                  TRC     s:10851

     2937    10848    3                     THEN
     2938    10849    3                       NCHARS = NCHARS - WIDTH ;

  10849  2 001440   200445 236100                    LDQ     NCHARS,,AUTO
         2 001441   200446 136100                    SBLQ    WIDTH,,AUTO
         2 001442   200445 756100                    STQ     NCHARS,,AUTO
         2 001443   001445 710000 2                  TRA     s:10852

     2939    10850    3                     ELSE
     2940    10851    3                       NCHARS = 0 ;

  10851  2 001444   200445 450100                    STZ     NCHARS,,AUTO

     2941    10852    3                   NLINES = NLINES + 1 ;

  10852  2 001445   200004 470500                    LDP0    @NLINES,,AUTO
         2 001446   000000 235100                    LDA     0,,PR0
         2 001447   000001 035007                    ADLA    1,DL
         2 001450   000000 755100                    STA     0,,PR0

     2942    10853    3                 END ; /* Do While */

  10853  2 001451   200445 236100                    LDQ     NCHARS,,AUTO
         2 001452   001435 601000 2                  TNZ     s:10847

     2943    10854    2               END ; /* Then Do */
PL6.E3A0      #002=CPK$CHECK_OUTPUT File=CPK$CHECK.:E05TSI                       TUE 07/29/97 11:57 Page:463

     2944    10855    1         RETURN ;

  10855  2 001453   000000 702200 xent               TSX2  ! X66_ARET

     2945    10856        %EJECT ;
PL6.E3A0      #002=CPK$CHECK_OUTPUT File=CPK$CHECK.:E05TSI                       TUE 07/29/97 11:57 Page:464
     2946    10857    1   CONVERT_TIME: PROC(CSECS,TIME_BUF) ;

  10857  2 001454   200506 741300       CONVERT_TIME STX1  ! FPT_STATE+8,,AUTO

     2947    10858
     2948    10859        /***** Parameters *****/
     2949    10860
     2950    10861    2   DCL CSECS SBIN WORD ;      /* A time value in centi-seconds */
     2951    10862    2   DCL TIME_BUF CHAR(8) ;
     2952    10863    2   DCL 1 TIME_ REDEF TIME_BUF,
     2953    10864    2         2 HR  CHAR(2),
     2954    10865    2         2 *   CHAR(1),
     2955    10866    2         2 MIN CHAR(2),
     2956    10867    2         2 *   CHAR(1),
     2957    10868    2         2 SEC CHAR(2);
     2958    10869
     2959    10870        /***** Auto *****/
     2960    10871
     2961    10872    2   DCL I UBIN WORD ;
     2962    10873    2   DCL HOUR SBIN WORD ;
     2963    10874    2   DCL MIN SBIN WORD ;
     2964    10875    2   DCL SEC SBIN WORD ;
     2965    10876
     2966    10877        /***** Procedure *****/
     2967    10878
     2968    10879    2               SEC = CSECS/100 ;

  10879  2 001455   200507 470500                    LDP0    @CSECS,,AUTO
         2 001456   000000 236100                    LDQ     0,,PR0
         2 001457   000144 506007                    DIV     100,DL
         2 001460   200514 756100                    STQ     SEC,,AUTO

     2969    10880    2               MIN = SEC/60 ;

  10880  2 001461   000074 506007                    DIV     60,DL
         2 001462   200513 756100                    STQ     MIN,,AUTO

PL6.E3A0      #002=CPK$CHECK_OUTPUT File=CPK$CHECK.:E05TSI                       TUE 07/29/97 11:57 Page:465
     2970    10881    2               HOUR = MIN/60;

  10881  2 001463   000074 506007                    DIV     60,DL
         2 001464   200512 756100                    STQ     HOUR,,AUTO

     2971    10882
     2972    10883    2               TIME_BUF = '**:**:**';

  10883  2 001465   200510 471500                    LDP1    @TIME_BUF,,AUTO
         2 001466   040100 100400                    MLR     fill='040'O
         2 001467   001412 000010 1                  ADSC9   DEV_TYPES+15             cn=0,n=8
         2 001470   100000 000010                    ADSC9   0,,PR1                   cn=0,n=8

     2973    10884    2               CALL BINCHAR(TIME_.HR, HOUR) ;

  10884  2 001471   000100 301500                    BTD
         2 001472   200512 000004                    NDSC9   HOUR,,AUTO               cn=0,s=lsgnf,sf=0,n=4
         2 001473   100000 030002                    NDSC9   0,,PR1                   cn=0,s=nosgn,sf=0,n=2

     2974    10885    2               CALL BINCHAR(TIME_.MIN, MOD(MIN,60));

  10885  2 001474   200513 236100                    LDQ     MIN,,AUTO
         2 001475   000074 506007                    DIV     60,DL
         2 001476   200520 755100                    STA     @START+2,,AUTO
         2 001477   000100 301500                    BTD
         2 001500   200520 000004                    NDSC9   @START+2,,AUTO           cn=0,s=lsgnf,sf=0,n=4
         2 001501   100000 630002                    NDSC9   0,,PR1                   cn=3,s=nosgn,sf=0,n=2

     2975    10886    2               CALL BINCHAR(TIME_.SEC, MOD(SEC,60));

  10886  2 001502   200514 236100                    LDQ     SEC,,AUTO
         2 001503   000074 506007                    DIV     60,DL
         2 001504   200520 755100                    STA     @START+2,,AUTO
         2 001505   000100 301500                    BTD
         2 001506   200520 000004                    NDSC9   @START+2,,AUTO           cn=0,s=lsgnf,sf=0,n=4
         2 001507   100001 430002                    NDSC9   1,,PR1                   cn=2,s=nosgn,sf=0,n=2

PL6.E3A0      #002=CPK$CHECK_OUTPUT File=CPK$CHECK.:E05TSI                       TUE 07/29/97 11:57 Page:466
     2976    10887
     2977    10888                    /* Now trim off hours and tens of minutes off the string
     2978    10889                       if we can (ie. they're zero).                        */
     2979    10890
     2980    10891    2               IF (MIN <= 9) THEN SUBSTR (TIME_BUF, 0, 4) = '    ';

  10891  2 001510   200513 235100                    LDA     MIN,,AUTO
         2 001511   000011 115007                    CMPA    9,DL
         2 001512   001517 605400 2                  TPNZ    s:10892

  10891  2 001513   040100 100400                    MLR     fill='040'O
         2 001514   001414 000004 1                  ADSC9   DEV_TYPES+17             cn=0,n=4
         2 001515   100000 000004                    ADSC9   0,,PR1                   cn=0,n=4
         2 001516   001532 710000 2                  TRA     s:10894

     2981    10892    2               ELSE IF (HOUR = 0) THEN SUBSTR (TIME_BUF, 0, 3) = '   ';

  10892  2 001517   200512 236100                    LDQ     HOUR,,AUTO
         2 001520   001525 601000 2                  TNZ     s:10893

  10892  2 001521   040100 100400                    MLR     fill='040'O
         2 001522   001414 000003 1                  ADSC9   DEV_TYPES+17             cn=0,n=3
         2 001523   100000 000003                    ADSC9   0,,PR1                   cn=0,n=3
         2 001524   001532 710000 2                  TRA     s:10894

     2982    10893    2               ELSE IF (HOUR <= 9) THEN SUBSTR (TIME_BUF, 0, 1) = ' ';

  10893  2 001525   000011 116007                    CMPQ    9,DL
         2 001526   001532 605400 2                  TPNZ    s:10894

  10893  2 001527   040100 100400                    MLR     fill='040'O
         2 001530   000035 000001 xsym               ADSC9   B_VECTNIL+29             cn=0,n=1
         2 001531   100000 000001                    ADSC9   0,,PR1                   cn=0,n=1

     2983    10894    2               RETURN ;

  10894  2 001532   200506 221300                    LDX1  ! FPT_STATE+8,,AUTO
PL6.E3A0      #002=CPK$CHECK_OUTPUT File=CPK$CHECK.:E05TSI                       TUE 07/29/97 11:57 Page:467
         2 001533   000001 702211                    TSX2  ! 1,X1

     2984    10895
     2985    10896    2   END   CONVERT_TIME ;
     2986    10897
     2987    10898        %EJECT ;
PL6.E3A0      #002=CPK$CHECK_OUTPUT File=CPK$CHECK.:E05TSI                       TUE 07/29/97 11:57 Page:468
     2988    10899    1   GET_OUTPUT_TYPE:    PROC(VEC#,TYPE_ARRY) ;

  10899  2 001534   200506 741300       GET_OUTPUT_* STX1  ! FPT_STATE+8,,AUTO

     2989    10900
     2990    10901        /***** Parameters *****/
     2991    10902
     2992    10903    2   DCL VEC# UBIN WORD ;
     2993    10904    2   DCL TYPE_ARRY (0:6) CHAR(8) UNAL ;
     2994    10905
     2995    10906        /***** Constants *****/
     2996    10907    2   DCL DEV_TYPES (0:4) CHAR(4) CONSTANT INIT ('LP','CP','JE','PL','PR') ;
     2997    10908    2   DCL DEV_TYPES_STR REDEF DEV_TYPES CHAR(20) ;
     2998    10909
     2999    10910        /***** Auto *****/
     3000    10911
     3001    10912    2   DCL TYPE_NUM UBIN WORD ;
     3002    10913
     3003    10914        /***** Procedure *****/
     3004    10915
     3005    10916    2         DEVTYPE = BUF$ -> VLA$OUTPUT.DEVTYP ;

  10916  2 001535   200005 470500                    LDP0    BUF$,,AUTO
         2 001536   000002 220100                    LDX0    2,,PR0
         2 001537   200364 740100                    STX0    DEVTYPE,,AUTO

     3006    10917    2         CALL INDEX(TYPE_NUM,DEVTYPE,DEV_TYPES_STR) ;

  10917  2 001540   000100 120400                    SCD
         2 001541   001373 000024 1                  ADSC9   DEV_TYPES                cn=0,n=20
         2 001542   200364 000002                    ADSC9   DEVTYPE,,AUTO            cn=0,n=2
         2 001543   200511 000100                    ARG     TYPE_NUM,,AUTO
         2 001544   001546 607000 2                  TTF     s:10918
         2 001545   200511 054100                    AOS     TYPE_NUM,,AUTO

     3007    10918    2         FMT_VEC(VEC#) = VECTOR(TYPE_ARRY(TYPE_NUM/4)) ;

PL6.E3A0      #002=CPK$CHECK_OUTPUT File=CPK$CHECK.:E05TSI                       TUE 07/29/97 11:57 Page:469
  10918  2 001546   200507 471500                    LDP1    @VEC#,,AUTO
         2 001547   100000 722100                    LXL2    0,,PR1
         2 001550   000000 635012                    EAA     0,X2
         2 001551   000021 771000                    ARL     17
         2 001552   200511 236100                    LDQ     TYPE_NUM,,AUTO
         2 001553   000002 772000                    QRL     2
         2 001554   000000 623005                    EAX3    0,AL
         2 001555   000011 235000 3                  LDA     9
         2 001556   000023 736000                    QLS     19
         2 001557   200510 036100                    ADLQ    @TYPE_ARRY,,AUTO
         2 001560   200045 755113                    STA     FMT_VEC,X3,AUTO
         2 001561   200046 756113                    STQ     FMT_VEC+1,X3,AUTO

     3008    10919
     3009    10920    2         RETURN ;

  10920  2 001562   200506 221300                    LDX1  ! FPT_STATE+8,,AUTO
         2 001563   000001 702211                    TSX2  ! 1,X1

     3010    10921    2   END   GET_OUTPUT_TYPE ;
     3011    10922        %EJECT ;
PL6.E3A0      #002=CPK$CHECK_OUTPUT File=CPK$CHECK.:E05TSI                       TUE 07/29/97 11:57 Page:470
     3012    10923    1   OUTPUT_FINAL_STATUS:  PROC ;

  10923  2 001564   200504 741300       OUTPUT_FINA* STX1  ! FPT_STATE+6,,AUTO

     3013    10924
     3014    10925    2         FMT_VEC(0) = VECTOR(CH_XFORMAT.SYSID#) ;

  10925  2 001565   777640 235007                    LDA     -96,DL
         2 001566   200003 236100                    LDQ     @CH_XFORMAT,,AUTO
         2 001567   000001 036003                    ADLQ    1,DU
         2 001570   200045 755100                    STA     FMT_VEC,,AUTO
         2 001571   200046 756100                    STQ     FMT_VEC+1,,AUTO

     3015    10926    2         FMT_VEC(1) = VECTOR(CH_XFORMAT.JOBNAME#) ;

  10926  2 001572   000027 235000 3                  LDA     23
         2 001573   200003 236100                    LDQ     @CH_XFORMAT,,AUTO
         2 001574   000004 036003                    ADLQ    4,DU
         2 001575   200047 755100                    STA     FMT_VEC+2,,AUTO
         2 001576   200050 756100                    STQ     FMT_VEC+3,,AUTO

     3016    10927    2         FMT_VEC(2) = VECTOR(CH_XFORMAT.ACCT#) ;

  10927  2 001577   000011 235000 3                  LDA     9
         2 001600   200003 236100                    LDQ     @CH_XFORMAT,,AUTO
         2 001601   000002 036003                    ADLQ    2,DU
         2 001602   200051 755100                    STA     FMT_VEC+4,,AUTO
         2 001603   200052 756100                    STQ     FMT_VEC+5,,AUTO

     3017    10928
     3018    10929    2         STEPCC = CH_XFORMAT.BUF$ -> XSJ$JOBINFO.STEPCC# ;

  10929  2 001604   200003 470500                    LDP0    @CH_XFORMAT,,AUTO
         2 001605   000015 471500                    LDP1    13,,PR0
         2 001606   100000 236100                    LDQ     0,,PR1
         2 001607   000011 772000                    QRL     9
         2 001610   000777 376007                    ANQ     511,DL
PL6.E3A0      #002=CPK$CHECK_OUTPUT File=CPK$CHECK.:E05TSI                       TUE 07/29/97 11:57 Page:471
         2 001611   200367 756100                    STQ     STEPCC,,AUTO

     3019    10930    2         STEPCC_ = VECTOR(NIL) ;

  10930  2 001612   000134 237000 3                  LDAQ    92
         2 001613   200370 757100                    STAQ    STEPCC_,,AUTO

     3020    10931    2         RECNO_ = VECTOR(CH_XFORMAT.BUF$ -> XSJ$JOBINFO.RECNO#) ;

  10931  2 001614   000015 471500                    LDP1    13,,PR0
         2 001615   777640 235007                    LDA     -96,DL
         2 001616   200520 451500                    STP1    @START+2,,AUTO
         2 001617   200520 236100                    LDQ     @START+2,,AUTO
         2 001620   000001 036003                    ADLQ    1,DU
         2 001621   200372 757100                    STAQ    RECNO_,,AUTO

     3021    10932    3         DO CASE(CH_XFORMAT.BUF$ -> XSJ$JOBINFO.STATUS#) ;

  10932  2 001622   000015 471500                    LDP1    13,,PR0
         2 001623   100000 236100                    LDQ     0,,PR1
         2 001624   000777 376007                    ANQ     511,DL
         2 001625   000036 136007                    SBLQ    30,DL
         2 001626   000036 116007                    CMPQ    30,DL
         2 001627   001631 602006 2                  TNC     s:10932+7,QL
         2 001630   002044 710000 2                  TRA     s:11019
         2 001631   001667 710000 2                  TRA     s:10935
         2 001632   001673 710000 2                  TRA     s:10938
         2 001633   001677 710000 2                  TRA     s:10941
         2 001634   001707 710000 2                  TRA     s:10947
         2 001635   002044 710000 2                  TRA     s:11019
         2 001636   002044 710000 2                  TRA     s:11019
         2 001637   002044 710000 2                  TRA     s:11019
         2 001640   002044 710000 2                  TRA     s:11019
         2 001641   002044 710000 2                  TRA     s:11019
         2 001642   002044 710000 2                  TRA     s:11019
         2 001643   001713 710000 2                  TRA     s:10950
         2 001644   001717 710000 2                  TRA     s:10954
PL6.E3A0      #002=CPK$CHECK_OUTPUT File=CPK$CHECK.:E05TSI                       TUE 07/29/97 11:57 Page:472
         2 001645   001723 710000 2                  TRA     s:10958
         2 001646   001727 710000 2                  TRA     s:10962
         2 001647   001733 710000 2                  TRA     s:10966
         2 001650   001753 710000 2                  TRA     s:10982
         2 001651   001737 710000 2                  TRA     s:10970
         2 001652   001743 710000 2                  TRA     s:10974
         2 001653   001747 710000 2                  TRA     s:10978
         2 001654   001757 710000 2                  TRA     s:10986
         2 001655   001703 710000 2                  TRA     s:10944
         2 001656   002044 710000 2                  TRA     s:11019
         2 001657   002044 710000 2                  TRA     s:11019
         2 001660   002044 710000 2                  TRA     s:11019
         2 001661   002044 710000 2                  TRA     s:11019
         2 001662   002044 710000 2                  TRA     s:11019
         2 001663   002044 710000 2                  TRA     s:11019
         2 001664   001763 710000 2                  TRA     s:10990
         2 001665   001767 710000 2                  TRA     s:10993
         2 001666   002031 710000 2                  TRA     s:11014

     3022    10933
     3023    10934    3             CASE(%MBS_DELETED#) ;

     3024    10935    3               FMT_VEC(3) = MBS_DELETED_ ;

  10935  2 001667   000752 237000 1                  LDAQ    MBS_DELETED_
         2 001670   200053 755100                    STA     FMT_VEC+6,,AUTO
         2 001671   200054 756100                    STQ     FMT_VEC+7,,AUTO
         2 001672   002047 710000 2                  TRA     s:11023

     3025    10936
     3026    10937    3             CASE(%MBS_CANCELED#) ;

     3027    10938    3               FMT_VEC(3) = MBS_CANCELED_ ;

  10938  2 001673   000754 237000 1                  LDAQ    MBS_CANCELED_
         2 001674   200053 755100                    STA     FMT_VEC+6,,AUTO
         2 001675   200054 756100                    STQ     FMT_VEC+7,,AUTO
PL6.E3A0      #002=CPK$CHECK_OUTPUT File=CPK$CHECK.:E05TSI                       TUE 07/29/97 11:57 Page:473
         2 001676   002047 710000 2                  TRA     s:11023

     3028    10939
     3029    10940    3             CASE(%MBS_SHAFTED#) ;

     3030    10941    3               FMT_VEC(3) = MBS_SHAFTED_ ;

  10941  2 001677   000756 237000 1                  LDAQ    MBS_SHAFTED_
         2 001700   200053 755100                    STA     FMT_VEC+6,,AUTO
         2 001701   200054 756100                    STQ     FMT_VEC+7,,AUTO
         2 001702   002047 710000 2                  TRA     s:11023

     3031    10942
     3032    10943    3             CASE(%MBS_FILERR#) ;

     3033    10944    3               FMT_VEC(3) = MBS_FILERR_ ;

  10944  2 001703   000760 237000 1                  LDAQ    MBS_FILERR_
         2 001704   200053 755100                    STA     FMT_VEC+6,,AUTO
         2 001705   200054 756100                    STQ     FMT_VEC+7,,AUTO
         2 001706   002047 710000 2                  TRA     s:11023

     3034    10945
     3035    10946    3             CASE(%PRE_PASSED#) ;

     3036    10947    3               FMT_VEC(3) = PRE_PASSED_ ;

  10947  2 001707   000762 237000 1                  LDAQ    PRE_PASSED_
         2 001710   200053 755100                    STA     FMT_VEC+6,,AUTO
         2 001711   200054 756100                    STQ     FMT_VEC+7,,AUTO
         2 001712   002047 710000 2                  TRA     s:11023

     3037    10948
     3038    10949    3             CASE(%REJ_JOB#) ;

     3039    10950    3               FMT_VEC(4) = REJ_JOB_ ;

PL6.E3A0      #002=CPK$CHECK_OUTPUT File=CPK$CHECK.:E05TSI                       TUE 07/29/97 11:57 Page:474
  10950  2 001713   000764 237000 1                  LDAQ    REJ_JOB_
         2 001714   200055 755100                    STA     FMT_VEC+8,,AUTO
         2 001715   200056 756100                    STQ     FMT_VEC+9,,AUTO

     3040    10951    3               GOTO REJECTED_MSG ;

  10951  2 001716   002114 710000 2                  TRA     REJECTED_MSG

     3041    10952
     3042    10953    3             CASE(%REJ_RES#) ;

     3043    10954    3               FMT_VEC(4) = REJ_RES_ ;

  10954  2 001717   000766 237000 1                  LDAQ    REJ_RES_
         2 001720   200055 755100                    STA     FMT_VEC+8,,AUTO
         2 001721   200056 756100                    STQ     FMT_VEC+9,,AUTO

     3044    10955    3               GOTO REJECTED_MSG ;

  10955  2 001722   002114 710000 2                  TRA     REJECTED_MSG

     3045    10956
     3046    10957    3             CASE(%REJ_SYNTAX#) ;

     3047    10958    3               FMT_VEC(4) = REJ_SYNTAX_ ;

  10958  2 001723   000770 237000 1                  LDAQ    REJ_SYNTAX_
         2 001724   200055 755100                    STA     FMT_VEC+8,,AUTO
         2 001725   200056 756100                    STQ     FMT_VEC+9,,AUTO

     3048    10959    3               GOTO REJECTED_MSG ;

  10959  2 001726   002114 710000 2                  TRA     REJECTED_MSG

     3049    10960
     3050    10961    3             CASE(%REJ_IO#) ;

PL6.E3A0      #002=CPK$CHECK_OUTPUT File=CPK$CHECK.:E05TSI                       TUE 07/29/97 11:57 Page:475
     3051    10962    3               FMT_VEC(4) = REJ_IO_ ;

  10962  2 001727   000772 237000 1                  LDAQ    REJ_IO_
         2 001730   200055 755100                    STA     FMT_VEC+8,,AUTO
         2 001731   200056 756100                    STQ     FMT_VEC+9,,AUTO

     3052    10963    3               GOTO REJECTED_MSG ;

  10963  2 001732   002114 710000 2                  TRA     REJECTED_MSG

     3053    10964
     3054    10965    3             CASE(%REJ_JOBIMBED#) ;

     3055    10966    3               FMT_VEC(4) = REJ_JOBIMBED_ ;

  10966  2 001733   000774 237000 1                  LDAQ    REJ_JOBIMBED_
         2 001734   200055 755100                    STA     FMT_VEC+8,,AUTO
         2 001735   200056 756100                    STQ     FMT_VEC+9,,AUTO

     3056    10967    3               GOTO REJECTED_MSG ;

  10967  2 001736   002114 710000 2                  TRA     REJECTED_MSG

     3057    10968
     3058    10969    3             CASE(%REJ_BADID#) ;

     3059    10970    3               FMT_VEC(4) = REJ_BADID_ ;

  10970  2 001737   000776 237000 1                  LDAQ    REJ_BADID_
         2 001740   200055 755100                    STA     FMT_VEC+8,,AUTO
         2 001741   200056 756100                    STQ     FMT_VEC+9,,AUTO

     3060    10971    3               GOTO REJECTED_MSG ;

  10971  2 001742   002114 710000 2                  TRA     REJECTED_MSG

     3061    10972
PL6.E3A0      #002=CPK$CHECK_OUTPUT File=CPK$CHECK.:E05TSI                       TUE 07/29/97 11:57 Page:476
     3062    10973    3             CASE(%REJ_NORES#) ;

     3063    10974    3               FMT_VEC(4) = REJ_NORES_ ;

  10974  2 001743   001000 237000 1                  LDAQ    REJ_NORES_
         2 001744   200055 755100                    STA     FMT_VEC+8,,AUTO
         2 001745   200056 756100                    STQ     FMT_VEC+9,,AUTO

     3064    10975    3               GOTO REJECTED_MSG ;

  10975  2 001746   002114 710000 2                  TRA     REJECTED_MSG

     3065    10976
     3066    10977    3             CASE(%REJ_PRESCAN#) ;

     3067    10978    3               FMT_VEC(4) = REJ_PRESCAN_ ;

  10978  2 001747   001002 237000 1                  LDAQ    REJ_PRESCAN_
         2 001750   200055 755100                    STA     FMT_VEC+8,,AUTO
         2 001751   200056 756100                    STQ     FMT_VEC+9,,AUTO

     3068    10979    3               GOTO REJECTED_MSG ;

  10979  2 001752   002114 710000 2                  TRA     REJECTED_MSG

     3069    10980
     3070    10981    3             CASE(%REJ_RESIMBED#) ;

     3071    10982    3               FMT_VEC(4) = REJ_RESIMBED_ ;

  10982  2 001753   001004 237000 1                  LDAQ    REJ_RESIMBED_
         2 001754   200055 755100                    STA     FMT_VEC+8,,AUTO
         2 001755   200056 756100                    STQ     FMT_VEC+9,,AUTO

     3072    10983    3               GOTO REJECTED_MSG ;

  10983  2 001756   002114 710000 2                  TRA     REJECTED_MSG
PL6.E3A0      #002=CPK$CHECK_OUTPUT File=CPK$CHECK.:E05TSI                       TUE 07/29/97 11:57 Page:477

     3073    10984
     3074    10985    3             CASE(%REJ_NOBATCH#) ;

     3075    10986    3               FMT_VEC(4) = REJ_NOBATCH_ ;

  10986  2 001757   001006 237000 1                  LDAQ    REJ_NOBATCH_
         2 001760   200055 755100                    STA     FMT_VEC+8,,AUTO
         2 001761   200056 756100                    STQ     FMT_VEC+9,,AUTO

     3076    10987    3               GOTO REJECTED_MSG ;

  10987  2 001762   002114 710000 2                  TRA     REJECTED_MSG

     3077    10988
     3078    10989    3             CASE(%FIN_RECOVER#) ;

     3079    10990    3               FMT_VEC(3) = FIN_RECOVER_ ;

  10990  2 001763   001010 237000 1                  LDAQ    FIN_RECOVER_
         2 001764   200053 755100                    STA     FMT_VEC+6,,AUTO
         2 001765   200054 756100                    STQ     FMT_VEC+7,,AUTO
         2 001766   002047 710000 2                  TRA     s:11023

     3080    10991
     3081    10992    3             CASE(%FIN_ABNORMAL#) ;

     3082    10993    3               IF (CH_XFORMAT.BUF$->XSJ$JOBINFO.FRS# = %RS_CAN#)

  10993  2 001767   100000 236100                    LDQ     0,,PR1
         2 001770   777000 376003                    ANQ     -512,DU
         2 001771   021000 116003                    CMPQ    8704,DU
         2 001772   001777 601000 2                  TNZ     s:10997

     3083    10994    3                 THEN FMT_VEC(3) = RS_CAN_ ;

  10994  2 001773   001250 237000 1                  LDAQ    RS_CAN_
PL6.E3A0      #002=CPK$CHECK_OUTPUT File=CPK$CHECK.:E05TSI                       TUE 07/29/97 11:57 Page:478
         2 001774   200053 755100                    STA     FMT_VEC+6,,AUTO
         2 001775   200054 756100                    STQ     FMT_VEC+7,,AUTO
         2 001776   002047 710000 2                  TRA     s:11023

     3084    10995    3                 ELSE
     3085    10996    4                   DO ;

     3086    10997    4                     START = 0 ;

  10997  2 001777   200444 450100                    STZ     START,,AUTO

     3087    10998    4                     CALL GETBIT(CH_XFORMAT.BUF$->XSJ$JOBINFO.FRS#,START)

  10998  2 002000   000015 471500                    LDP1    13,,PR0
         2 002001   200444 633500                    EPPR3   START,,AUTO
         2 002002   200516 453500                    STP3    @MASK+1,,AUTO
         2 002003   200515 451500                    STP1    SEC+1,,AUTO
         2 002004   002160 701000 2                  TSX1    GETBIT
         2 002005   002050 702000 2                  TSX2    NOFRS

     3088    10999    4                         ALTRET(NOFRS) ;
     3089    11000    4                     FMT_VEC(3) = RS__(BITSET) ;

  11000  2 002006   200346 235100                    LDA     BITSET,,AUTO
         2 002007   000001 735000                    ALS     1
         2 002010   001204 237005 1                  LDAQ    RS__,AL
         2 002011   200053 755100                    STA     FMT_VEC+6,,AUTO
         2 002012   200054 756100                    STQ     FMT_VEC+7,,AUTO

     3090    11001    4                     IF FMT_VEC(3) = VECTOR(RS_LIMX)

  11001  2 002013   000000 106500                    CMPC    fill='000'O
         2 002014   200053 000010                    ADSC9   FMT_VEC+6,,AUTO          cn=0,n=8
         2 002015   000136 000010 3                  ADSC9   94                       cn=0,n=8
         2 002016   002047 601000 2                  TNZ     s:11023

     3091    11002    4                       THEN
PL6.E3A0      #002=CPK$CHECK_OUTPUT File=CPK$CHECK.:E05TSI                       TUE 07/29/97 11:57 Page:479
     3092    11003    4                         CALL SETUP_LIMIT_VECTOR(CH_XFORMAT.BUF$->

  11003  2 002017   200003 470500                    LDP0    @CH_XFORMAT,,AUTO
         2 002020   000015 471500                    LDP1    13,,PR0
         2 002021   200520 451500                    STP1    @START+2,,AUTO
         2 002022   200520 236100                    LDQ     @START+2,,AUTO
         2 002023   200000 036007                    ADLQ    65536,DL
         2 002024   200507 756100                    STQ     @VEC#,,AUTO
         2 002025   002207 701000 2                  TSX1    SETUP_LIMIT_VECTOR
         2 002026   002030 702000 2                  TSX2    s:11009

     3093    11004    4                                                         XSJ$JOBINFO.XLIMFLG#)
     3094    11005    5                                                 WHENRETURN DO ;

     3095    11006    5                                                   GOTO ADD_COMMENT ;

  11006  2 002027   002133 710000 2                  TRA     ADD_COMMENT

     3096    11007    5                                                 END ; /* Whenreturn Do */
     3097    11008    5                                                 WHENALTRETURN DO ;

     3098    11009    5                                                   GOTO SIMPLE_MSG ;

  11009  2 002030   002062 710000 2                  TRA     SIMPLE_MSG

     3099    11010    5                                                 END ; /* Whenaltreturn Do */
     3100    11011    4                   END ; /* THEN DO */
     3101    11012
     3102    11013    3             CASE(%FIN_COMPLETED#) ;

     3103    11014    3               FMT_VEC(3) = FIN_COMPLETED_ ;

  11014  2 002031   001014 237000 1                  LDAQ    FIN_COMPLETED_
         2 002032   200053 755100                    STA     FMT_VEC+6,,AUTO
         2 002033   200054 756100                    STQ     FMT_VEC+7,,AUTO

     3104    11015    3               IF STEPCC ~= 0
PL6.E3A0      #002=CPK$CHECK_OUTPUT File=CPK$CHECK.:E05TSI                       TUE 07/29/97 11:57 Page:480

  11015  2 002034   200367 235100                    LDA     STEPCC,,AUTO
         2 002035   002047 600000 2                  TZE     s:11023

     3105    11016    3                 THEN STEPCC_ = VECTOR(STEPCC) ;

  11016  2 002036   777640 235007                    LDA     -96,DL
         2 002037   200520 452500                    STP2    @START+2,,AUTO
         2 002040   200520 236100                    LDQ     @START+2,,AUTO
         2 002041   000367 036003                    ADLQ    247,DU
         2 002042   200370 757100                    STAQ    STEPCC_,,AUTO
         2 002043   002047 710000 2                  TRA     s:11023

     3106    11017
     3107    11018    3             CASE( ELSE ) ;

     3108    11019    3               FMT_VEC(3) = FIN_ABNORMAL_UNKNOWN_ ;

  11019  2 002044   001016 237000 1                  LDAQ    FIN_ABNORMAL_UNKNOWN_
         2 002045   200053 755100                    STA     FMT_VEC+6,,AUTO
         2 002046   200054 756100                    STQ     FMT_VEC+7,,AUTO

     3109    11020
     3110    11021    3         END ; /* DO CASE */

     3111    11022
     3112    11023    3         DO WHILE ('0'B) ;

  11023  2 002047   002062 710000 2                  TRA     SIMPLE_MSG

     3113    11024    3   NOFRS:    FMT_VEC(3) = FIN_ABNORMAL_ ;

  11024  2 002050   001012 237000 1     NOFRS        LDAQ    FIN_ABNORMAL_
         2 002051   200053 755100                    STA     FMT_VEC+6,,AUTO
         2 002052   200054 756100                    STQ     FMT_VEC+7,,AUTO

     3114    11025    3             IF STEPCC ~= 0
PL6.E3A0      #002=CPK$CHECK_OUTPUT File=CPK$CHECK.:E05TSI                       TUE 07/29/97 11:57 Page:481

  11025  2 002053   200367 235100                    LDA     STEPCC,,AUTO
         2 002054   002062 600000 2                  TZE     SIMPLE_MSG

     3115    11026    3               THEN STEPCC_ = VECTOR(STEPCC) ;

  11026  2 002055   777640 235007                    LDA     -96,DL
         2 002056   200520 452500                    STP2    @START+2,,AUTO
         2 002057   200520 236100                    LDQ     @START+2,,AUTO
         2 002060   000367 036003                    ADLQ    247,DU
         2 002061   200370 757100                    STAQ    STEPCC_,,AUTO

     3116    11027    3         END ; /* DO WHILE */

     3117    11028
     3118    11029    2   SIMPLE_MSG:
     3119    11030
     3120    11031    2         FMT_VEC(4) = VECTOR(CH_XFORMAT.BUF$->XSJ$JOBINFO.OFF_TIME#) ;

  11031  2 002062   200003 470500       SIMPLE_MSG   LDP0    @CH_XFORMAT,,AUTO
         2 002063   000015 471500                    LDP1    13,,PR0
         2 002064   777640 235007                    LDA     -96,DL
         2 002065   200520 451500                    STP1    @START+2,,AUTO
         2 002066   200520 236100                    LDQ     @START+2,,AUTO
         2 002067   000002 036003                    ADLQ    2,DU
         2 002070   200055 755100                    STA     FMT_VEC+8,,AUTO
         2 002071   200056 756100                    STQ     FMT_VEC+9,,AUTO

     3121    11032    2         IF STEPCC_ = VECTOR(NIL)

  11032  2 002072   200370 237100                    LDAQ    STEPCC_,,AUTO
         2 002073   000134 117000 3                  CMPAQ   92
         2 002074   002103 601000 2                  TNZ     s:11040

     3122    11033    2             THEN
     3123    11034    3               DO ;

PL6.E3A0      #002=CPK$CHECK_OUTPUT File=CPK$CHECK.:E05TSI                       TUE 07/29/97 11:57 Page:482
     3124    11035    3                 I = 4 ;

  11035  2 002075   000004 235007                    LDA     4,DL
         2 002076   200343 755100                    STA     I,,AUTO

     3125    11036    3                 F_FDS.FMT_ = FMTVEC_ ;

  11036  2 002077   000664 237000 1                  LDAQ    FMTVEC_
         2 002100   200007 755100                    STA     F_FDS,,AUTO
         2 002101   200010 756100                    STQ     F_FDS+1,,AUTO

     3126    11037    3               END ; /* THEN DO */

  11037  2 002102   002113 710000 2                  TRA     s:11045

     3127    11038    2             ELSE
     3128    11039    3               DO ;

     3129    11040    3                 FMT_VEC(5) = STEPCC_ ;

  11040  2 002103   200370 237100                    LDAQ    STEPCC_,,AUTO
         2 002104   200057 755100                    STA     FMT_VEC+10,,AUTO
         2 002105   200060 756100                    STQ     FMT_VEC+11,,AUTO

     3130    11041    3                 I = 5 ;

  11041  2 002106   000005 235007                    LDA     5,DL
         2 002107   200343 755100                    STA     I,,AUTO

     3131    11042    3                 F_FDS.FMT_ = FMTVEC1_ ;

  11042  2 002110   000666 237000 1                  LDAQ    FMTVEC1_
         2 002111   200007 755100                    STA     F_FDS,,AUTO
         2 002112   200010 756100                    STQ     F_FDS+1,,AUTO

     3132    11043    3               END ; /* ELSE DO */

PL6.E3A0      #002=CPK$CHECK_OUTPUT File=CPK$CHECK.:E05TSI                       TUE 07/29/97 11:57 Page:483
     3133    11044
     3134    11045    3         DO WHILE('0'B) ;

  11045  2 002113   002133 710000 2                  TRA     ADD_COMMENT

     3135    11046
     3136    11047    3   REJECTED_MSG:
     3137    11048    3             FMT_VEC(3) = RECNO_ ;

  11048  2 002114   200372 237100       REJECTED_MSG LDAQ    RECNO_,,AUTO
         2 002115   200053 755100                    STA     FMT_VEC+6,,AUTO
         2 002116   200054 756100                    STQ     FMT_VEC+7,,AUTO

     3138    11049    3             FMT_VEC(5) = VECTOR(CH_XFORMAT.BUF$ -> XSJ$JOBINFO.OFF_TIME#) ;

  11049  2 002117   000015 471500                    LDP1    13,,PR0
         2 002120   777640 235007                    LDA     -96,DL
         2 002121   200520 451500                    STP1    @START+2,,AUTO
         2 002122   200520 236100                    LDQ     @START+2,,AUTO
         2 002123   000002 036003                    ADLQ    2,DU
         2 002124   200057 755100                    STA     FMT_VEC+10,,AUTO
         2 002125   200060 756100                    STQ     FMT_VEC+11,,AUTO

     3139    11050    3             I = 5 ;

  11050  2 002126   000005 235007                    LDA     5,DL
         2 002127   200343 755100                    STA     I,,AUTO

     3140    11051    3             F_FDS.FMT_ = FMTVEC2_ ;

  11051  2 002130   000670 237000 1                  LDAQ    FMTVEC2_
         2 002131   200007 755100                    STA     F_FDS,,AUTO
         2 002132   200010 756100                    STQ     F_FDS+1,,AUTO

     3141    11052    3         END ; /* DO WHILE */

     3142    11053
PL6.E3A0      #002=CPK$CHECK_OUTPUT File=CPK$CHECK.:E05TSI                       TUE 07/29/97 11:57 Page:484
     3143    11054    2   ADD_COMMENT:
     3144    11055    2         IF (CH_XFORMAT.COMMENT# ~= ' ')

  11055  2 002133   200003 470500       ADD_COMMENT  LDP0    @CH_XFORMAT,,AUTO
         2 002134   040000 106500                    CMPC    fill='040'O
         2 002135   000017 000030                    ADSC9   15,,PR0                  cn=0,n=24
         2 002136   000035 000001 xsym               ADSC9   B_VECTNIL+29             cn=0,n=1
         2 002137   002153 600000 2                  TZE     s:11061

     3145    11056    2             THEN
     3146    11057    3               DO ;

     3147    11058    3                 FMT_VEC(I+1) = VECTOR(CH_XFORMAT.COMMENT#) ;

  11058  2 002140   200343 235100                    LDA     I,,AUTO
         2 002141   000001 735000                    ALS     1
         2 002142   000000 620005                    EAX0    0,AL
         2 002143   000103 235000 3                  LDA     67
         2 002144   200003 236100                    LDQ     @CH_XFORMAT,,AUTO
         2 002145   000017 036003                    ADLQ    15,DU
         2 002146   200047 755110                    STA     FMT_VEC+2,X0,AUTO
         2 002147   200050 756110                    STQ     FMT_VEC+3,X0,AUTO

     3148    11059    3                 I = I + 1 ;

  11059  2 002150   200343 235100                    LDA     I,,AUTO
         2 002151   000001 035007                    ADLA    1,DL
         2 002152   200343 755100                    STA     I,,AUTO

     3149    11060    3               END ; /* THEN DO */

     3150    11061    2         F_FDS.NVECS# = I + 1 ;

  11061  2 002153   200343 235100                    LDA     I,,AUTO
         2 002154   000001 035007                    ADLA    1,DL
         2 002155   200020 755100                    STA     F_FDS+9,,AUTO

PL6.E3A0      #002=CPK$CHECK_OUTPUT File=CPK$CHECK.:E05TSI                       TUE 07/29/97 11:57 Page:485
     3151    11062
     3152    11063    2         RETURN ;

  11063  2 002156   200504 221300                    LDX1  ! FPT_STATE+6,,AUTO
         2 002157   000001 702211                    TSX2  ! 1,X1

     3153    11064
     3154    11065        %EJECT ;
PL6.E3A0      #002=CPK$CHECK_OUTPUT File=CPK$CHECK.:E05TSI                       TUE 07/29/97 11:57 Page:486
     3155    11066    2   GETBIT:   PROC (MASK, START) ALTRET ;

  11066  2 002160   200514 741300       GETBIT       STX1  ! SEC,,AUTO

     3156    11067
     3157    11068    3   DCL MASK(0:8) BIT(1) UNAL ;
     3158    11069    3   DCL START UBIN WORD ;
     3159    11070
     3160    11071    4         DO BITSET = START TO 8;

  11071  2 002161   200516 470500                    LDP0    @START,,AUTO
         2 002162   000000 235100                    LDA     0,,PR0
         2 002163   200346 755100                    STA     BITSET,,AUTO
         2 002164   002203 710000 2                  TRA     s:11074+3

     3161    11072    4             IF MASK(8-BITSET)

  11072  2 002165   000000 235003                    LDA     0,DU
         2 002166   200346 135100                    SBLA    BITSET,,AUTO
         2 002167   002171 605000 2                  TPL     s:11072+4
         2 002170   000044 035003                    ADLA    36,DU
         2 002171   200515 470500                    LDP0    @MASK,,AUTO
         2 002172   000000 066505                    CMPB    filb='0'B
         2 002173   000000 100001                    BDSC    0,A,PR0                  by=0,bit=8,n=1
         2 002174   000002 000022 xsym               BDSC    B_VECTNIL+2              by=0,bit=0,n=18
         2 002175   002200 600000 2                  TZE     s:11074

     3162    11073    4               THEN RETURN ;

  11073  2 002176   200514 221300                    LDX1  ! SEC,,AUTO
         2 002177   000001 702211                    TSX2  ! 1,X1

     3163    11074    4         END ; /* DO BITSET */

  11074  2 002200   200346 235100                    LDA     BITSET,,AUTO
         2 002201   000001 035007                    ADLA    1,DL
         2 002202   200346 755100                    STA     BITSET,,AUTO
PL6.E3A0      #002=CPK$CHECK_OUTPUT File=CPK$CHECK.:E05TSI                       TUE 07/29/97 11:57 Page:487
         2 002203   000011 115007                    CMPA    9,DL
         2 002204   002165 602000 2                  TNC     s:11072

     3164    11075
     3165    11076    3         ALTRETURN ;

  11076  2 002205   200514 221300                    LDX1  ! SEC,,AUTO
         2 002206   000000 702211                    TSX2  ! 0,X1

     3166    11077
     3167    11078    3   END   GETBIT ;
     3168    11079        %EJECT ;
PL6.E3A0      #002=CPK$CHECK_OUTPUT File=CPK$CHECK.:E05TSI                       TUE 07/29/97 11:57 Page:488
     3169    11080    2   SETUP_LIMIT_VECTOR: PROC(MASK) ALTRET ;

  11080  2 002207   200506 741300       SETUP_LIMIT* STX1  ! FPT_STATE+8,,AUTO

     3170    11081
     3171    11082    3   DCL MASK BIT(9) UNAL ;
     3172    11083    3   DCL CHR_POS UBIN WORD ;
     3173    11084    3   DCL EXTRA_SZ UBIN WORD ;
     3174    11085    3   DCL NOT_DONE BIT(1) ;
     3175    11086    3   DCL RETFLG BIT(1) ;
     3176    11087
     3177    11088    3         LIMIT_BUF = LIMIT_FMT_BUF ;

  11088  2 002210   040100 100400                    MLR     fill='040'O
         2 002211   000735 000027 1                  ADSC9   LIMIT_FMT_BUF            cn=0,n=23
         2 002212   200420 000120                    ADSC9   LIMIT_BUF,,AUTO          cn=0,n=80

     3178    11089    3         CHR_POS = SIZEC(LIMIT_FMT_BUF) ;

  11089  2 002213   000027 235007                    LDA     23,DL
         2 002214   200510 755100                    STA     CHR_POS,,AUTO

     3179    11090    3         EXTRA_SZ = SIZEC(EXTRA_LIMITS_FMT) ;

  11090  2 002215   000005 236007                    LDQ     5,DL
         2 002216   200511 756100                    STQ     EXTRA_SZ,,AUTO

     3180    11091    3         NOT_DONE = %YES# ;

  11091  2 002217   400000 236003                    LDQ     -131072,DU
         2 002220   200512 756100                    STQ     NOT_DONE,,AUTO

     3181    11092    3         I = 3 ;

  11092  2 002221   000003 235007                    LDA     3,DL
         2 002222   200343 755100                    STA     I,,AUTO

PL6.E3A0      #002=CPK$CHECK_OUTPUT File=CPK$CHECK.:E05TSI                       TUE 07/29/97 11:57 Page:489
     3182    11093
     3183    11094    4         DO WHILE(NOT_DONE) ;

  11094  2 002223   200512 234100                    SZN     NOT_DONE,,AUTO
         2 002224   002302 605000 2                  TPL     s:11120

     3184    11095    5             CALL GETBIT(MASK, START) WHENRETURN DO ;

  11095  2 002225   200444 630500                    EPPR0   START,,AUTO
         2 002226   200516 450500                    STP0    @START,,AUTO
         2 002227   200507 236100                    LDQ     @MASK,,AUTO
         2 002230   200515 756100                    STQ     @MASK,,AUTO
         2 002231   002160 701000 2                  TSX1    GETBIT
         2 002232   002270 702000 2                  TSX2    s:11111

     3185    11096    5                             FMT_VEC(I) = XL__(BITSET) ;

  11096  2 002233   200343 235100                    LDA     I,,AUTO
         2 002234   000001 735000                    ALS     1
         2 002235   000000 620005                    EAX0    0,AL
         2 002236   000000 621005                    EAX1    0,AL
         2 002237   200346 236100                    LDQ     BITSET,,AUTO
         2 002240   000001 736000                    QLS     1
         2 002241   001226 237006 1                  LDAQ    XL__,QL
         2 002242   200045 755110                    STA     FMT_VEC,X0,AUTO
         2 002243   200046 756111                    STQ     FMT_VEC+1,X1,AUTO

     3186    11097    5                             IF I > 3

  11097  2 002244   200343 235100                    LDA     I,,AUTO
         2 002245   000004 115007                    CMPA    4,DL
         2 002246   002256 602000 2                  TNC     s:11104

     3187    11098    5                               THEN
     3188    11099    6                                 DO ;

     3189    11100    6                                   SUBSTR(LIMIT_BUF,CHR_POS,EXTRA_SZ) =
PL6.E3A0      #002=CPK$CHECK_OUTPUT File=CPK$CHECK.:E05TSI                       TUE 07/29/97 11:57 Page:490

  11100  2 002247   200511 720100                    LXL0    EXTRA_SZ,,AUTO
         2 002250   200510 236100                    LDQ     CHR_POS,,AUTO
         2 002251   040146 100400                    MLR     fill='040'O
         2 002252   000743 000005 1                  ADSC9   EXTRA_LIMITS_FMT         cn=0,n=5
         2 002253   200420 000010                    ADSC9   LIMIT_BUF,Q,AUTO         cn=0,n=*X0

     3190    11101    6                                           EXTRA_LIMITS_FMT ;
     3191    11102    6                                   CHR_POS = CHR_POS + EXTRA_SZ ;

  11102  2 002254   200511 036100                    ADLQ    EXTRA_SZ,,AUTO
         2 002255   200510 756100                    STQ     CHR_POS,,AUTO

     3192    11103    6                                 END ; /* Then Do */

     3193    11104    5                             START = BITSET + 1 ;

  11104  2 002256   200346 235100                    LDA     BITSET,,AUTO
         2 002257   000001 035007                    ADLA    1,DL
         2 002260   200444 755100                    STA     START,,AUTO

     3194    11105    5                             IF START > 8

  11105  2 002261   000011 115007                    CMPA    9,DL
         2 002262   002264 602000 2                  TNC     s:11108

     3195    11106    5                               THEN
     3196    11107    5                                 NOT_DONE = %NO# ;

  11107  2 002263   200512 450100                    STZ     NOT_DONE,,AUTO

     3197    11108    5                             I = I + 1 ;

  11108  2 002264   200343 236100                    LDQ     I,,AUTO
         2 002265   000001 036007                    ADLQ    1,DL
         2 002266   200343 756100                    STQ     I,,AUTO

PL6.E3A0      #002=CPK$CHECK_OUTPUT File=CPK$CHECK.:E05TSI                       TUE 07/29/97 11:57 Page:491
     3198    11109    5                           END ; /* Whenreturn Do */

  11109  2 002267   002300 710000 2                  TRA     s:11118

     3199    11110    5                           WHENALTRETURN DO ;

     3200    11111    5                             NOT_DONE = %NO# ;

  11111  2 002270   200512 450100                    STZ     NOT_DONE,,AUTO

     3201    11112    5                             IF I = 3

  11112  2 002271   200343 235100                    LDA     I,,AUTO
         2 002272   000003 115007                    CMPA    3,DL
         2 002273   002276 601000 2                  TNZ     s:11116

     3202    11113    5                               THEN
     3203    11114    5                                   RETFLG = %NO# ;

  11114  2 002274   200513 450100                    STZ     RETFLG,,AUTO
         2 002275   002300 710000 2                  TRA     s:11118

     3204    11115    5                               ELSE
     3205    11116    5                                   RETFLG = %YES# ;

  11116  2 002276   400000 236003                    LDQ     -131072,DU
         2 002277   200513 756100                    STQ     RETFLG,,AUTO

     3206    11117    5                           END ; /* Whenaltreturn Do */

     3207    11118    4         END ; /* Do While */

  11118  2 002300   200512 234100                    SZN     NOT_DONE,,AUTO
         2 002301   002225 604000 2                  TMI     s:11095

     3208    11119
     3209    11120    3         IF NOT RETFLG
PL6.E3A0      #002=CPK$CHECK_OUTPUT File=CPK$CHECK.:E05TSI                       TUE 07/29/97 11:57 Page:492

  11120  2 002302   200513 234100                    SZN     RETFLG,,AUTO
         2 002303   002306 604000 2                  TMI     s:11124

     3210    11121    3             THEN
     3211    11122    3               ALTRETURN ;

  11122  2 002304   200506 221300                    LDX1  ! FPT_STATE+8,,AUTO
         2 002305   000000 702211                    TSX2  ! 0,X1

     3212    11123
     3213    11124    3         SUBSTR(LIMIT_BUF,CHR_POS) = LIMIT_COMMENT_FMT ;

  11124  2 002306   200510 720100                    LXL0    CHR_POS,,AUTO
         2 002307   777657 620010                    EAX0    -81,X0
         2 002310   777777 660003                    ERX0    -1,DU
         2 002311   200510 235100                    LDA     CHR_POS,,AUTO
         2 002312   040145 100400                    MLR     fill='040'O
         2 002313   000745 000022 1                  ADSC9   LIMIT_COMMENT_FMT        cn=0,n=18
         2 002314   200420 000010                    ADSC9   LIMIT_BUF,A,AUTO         cn=0,n=*X0

     3214    11125    3         I = I - 1 ;

  11125  2 002315   200343 236100                    LDQ     I,,AUTO
         2 002316   000001 136007                    SBLQ    1,DL
         2 002317   200343 756100                    STQ     I,,AUTO

     3215    11126    3         F_FDS.FMT_ = VECTOR(LIMIT_BUF) ;

  11126  2 002320   000102 235000 3                  LDA     66
         2 002321   200520 452500                    STP2    @START+2,,AUTO
         2 002322   200520 236100                    LDQ     @START+2,,AUTO
         2 002323   000420 036003                    ADLQ    272,DU
         2 002324   200007 755100                    STA     F_FDS,,AUTO
         2 002325   200010 756100                    STQ     F_FDS+1,,AUTO

     3216    11127    3         RETURN ;
PL6.E3A0      #002=CPK$CHECK_OUTPUT File=CPK$CHECK.:E05TSI                       TUE 07/29/97 11:57 Page:493

  11127  2 002326   200506 221300                    LDX1  ! FPT_STATE+8,,AUTO
         2 002327   000001 702211                    TSX2  ! 1,X1

     3217    11128
     3218    11129    3   END   SETUP_LIMIT_VECTOR ;
     3219    11130    2   END   OUTPUT_FINAL_STATUS ;
     3220    11131        %EJECT ;
PL6.E3A0      #002=CPK$CHECK_OUTPUT File=CPK$CHECK.:E05TSI                       TUE 07/29/97 11:57 Page:494
     3221    11132    1   OUTPUT_SYSID_IN_AND_RUN: PROC ;

  11132  2 002330   200504 741300       OUTPUT_SYSI* STX1  ! FPT_STATE+6,,AUTO

     3222    11133
     3223    11134    2         FMT_VEC(0) = VECTOR(BUF$->VLA$INPUT.SYSID) ;

  11134  2 002331   377640 235007                    LDA     130976,DL
         2 002332   200005 236100                    LDQ     BUF$,,AUTO
         2 002333   000010 036000 3                  ADLQ    8
         2 002334   200045 755100                    STA     FMT_VEC,,AUTO
         2 002335   200046 756100                    STQ     FMT_VEC+1,,AUTO

     3224    11135    2         FMT_VEC(1) = VECTOR(BUF$->VLA$INPUT.JNAME) ;

  11135  2 002336   000027 235000 3                  LDA     23
         2 002337   200005 236100                    LDQ     BUF$,,AUTO
         2 002340   000021 036003                    ADLQ    17,DU
         2 002341   200047 755100                    STA     FMT_VEC+2,,AUTO
         2 002342   200050 756100                    STQ     FMT_VEC+3,,AUTO

     3225    11136    2         FMT_VEC(2) = VECTOR(BUF$->VLA$INPUT.ACCT) ;

  11136  2 002343   000011 235000 3                  LDA     9
         2 002344   200005 236100                    LDQ     BUF$,,AUTO
         2 002345   000010 036003                    ADLQ    8,DU
         2 002346   200051 755100                    STA     FMT_VEC+4,,AUTO
         2 002347   200052 756100                    STQ     FMT_VEC+5,,AUTO

     3226    11137    2         I = 2 ;

  11137  2 002350   000002 235007                    LDA     2,DL
         2 002351   200343 755100                    STA     I,,AUTO

     3227    11138    3         DO CASE(CH_XFORMAT.MSG#) ;

  11138  2 002352   200003 470500                    LDP0    @CH_XFORMAT,,AUTO
PL6.E3A0      #002=CPK$CHECK_OUTPUT File=CPK$CHECK.:E05TSI                       TUE 07/29/97 11:57 Page:495
         2 002353   000000 235100                    LDA     0,,PR0
         2 002354   000020 135007                    SBLA    16,DL
         2 002355   000007 115007                    CMPA    7,DL
         2 002356   002360 602005 2                  TNC     s:11138+6,AL
         2 002357   002631 710000 2                  TRA     s:11190
         2 002360   002367 710000 2                  TRA     s:11141
         2 002361   002465 710000 2                  TRA     s:11158
         2 002362   002550 710000 2                  TRA     s:11169
         2 002363   002567 710000 2                  TRA     s:11174
         2 002364   002573 710000 2                  TRA     s:11177
         2 002365   002577 710000 2                  TRA     s:11180
         2 002366   002603 710000 2                  TRA     s:11183

     3228    11139
     3229    11140    3             CASE(%CP_SYSID_RUN_MESS) ;

     3230    11141    3               F_FDS.FMT_ = VECTOR(SYSID_RUN_MESS_FMT) ;

  11141  2 002367   000140 237000 3                  LDAQ    96
         2 002370   200007 755100                    STA     F_FDS,,AUTO
         2 002371   200010 756100                    STQ     F_FDS+1,,AUTO

     3231    11142    3               STATE_BUF = '0'B ;

  11142  2 002372   000100 100400                    MLR     fill='000'O
         2 002373   000002 000001 xsym               ADSC9   B_VECTNIL+2              cn=0,n=1
         2 002374   200350 000020                    ADSC9   STATE_BUF,,AUTO          cn=0,n=16

     3232    11143    3               STATE_BUF.ESC_Q = ' ' ;

  11143  2 002375   000035 236000 xsym               LDQ     B_VECTNIL+29
         2 002376   200351 756100                    STQ     STATE_BUF+1,,AUTO

     3233    11144    3               STATE_BUF.TIME_REMAIN = BUF$ -> VLA$INPUT.TIM ;

  11144  2 002377   200005 471500                    LDP1    BUF$,,AUTO
         2 002400   100040 235100                    LDA     32,,PR1
PL6.E3A0      #002=CPK$CHECK_OUTPUT File=CPK$CHECK.:E05TSI                       TUE 07/29/97 11:57 Page:496
         2 002401   200353 755100                    STA     STATE_BUF+3,,AUTO

     3234    11145    3               FPT_STATE.V_ = VECTOR(FPT_STATE.V) ;

  11145  2 002402   000011 235000 3                  LDA     9
         2 002403   200520 452500                    STP2    @START+2,,AUTO
         2 002404   200520 236100                    LDQ     @START+2,,AUTO
         2 002405   000502 036003                    ADLQ    322,DU
         2 002406   200476 757100                    STAQ    FPT_STATE,,AUTO

     3235    11146    3               FPT_STATE.BUF_ = VECTOR(STATE_BUF) ;

  11146  2 002407   000026 235000 3                  LDA     22
         2 002410   200520 452500                    STP2    @START+2,,AUTO
         2 002411   200520 236100                    LDQ     @START+2,,AUTO
         2 002412   000350 036003                    ADLQ    232,DU
         2 002413   200500 757100                    STAQ    FPT_STATE+2,,AUTO

     3236    11147    3               FPT_STATE.V.SYSID# = BUF$ -> VLA$INPUT.SYSID ;

  11147  2 002414   100006 236100                    LDQ     6,,PR1
         2 002415   777777 376007                    ANQ     -1,DL
         2 002416   200502 756100                    STQ     FPT_STATE+4,,AUTO

     3237    11148
     3238    11149    3               CALL M$STATE(FPT_STATE) ALTRET (STATE_ERR) ;

  11149  2 002417   200476 630500                    EPPR0   FPT_STATE,,AUTO
         2 002420   420010 713400                    CLIMB   alt,+8200
         2 002421   400400 401760                    pmme    nvectors=2
         2 002422   002423 702000 2                  TSX2    STATE_ERR

     3239    11150    3   STATE_ERR:
     3240    11151    3               CALL CONVERT_TIME(STATE_BUF.TIME_REMAIN,TIME_BUF) ;

  11151  2 002423   200354 630500       STATE_ERR    EPPR0   TIME_BUF,,AUTO
         2 002424   200510 450500                    STP0    CHR_POS,,AUTO
PL6.E3A0      #002=CPK$CHECK_OUTPUT File=CPK$CHECK.:E05TSI                       TUE 07/29/97 11:57 Page:497
         2 002425   200353 631500                    EPPR1   STATE_BUF+3,,AUTO
         2 002426   200507 451500                    STP1    @MASK,,AUTO
         2 002427   001454 701000 2                  TSX1    CONVERT_TIME
         2 002430   000000 011000                    NOP     0

     3241    11152    3               FMT_VEC(I+1) = VECTOR(TIME_BUF) ;

  11152  2 002431   200343 235100                    LDA     I,,AUTO
         2 002432   000001 735000                    ALS     1
         2 002433   000000 620005                    EAX0    0,AL
         2 002434   000011 235000 3                  LDA     9
         2 002435   200520 452500                    STP2    @START+2,,AUTO
         2 002436   200520 236100                    LDQ     @START+2,,AUTO
         2 002437   000354 036003                    ADLQ    236,DU
         2 002440   200047 755110                    STA     FMT_VEC+2,X0,AUTO
         2 002441   200050 756110                    STQ     FMT_VEC+3,X0,AUTO

     3242    11153    3               CALL CONVERT_TIME(STATE_BUF.TIME_USED,TIME_BUF1) ;

  11153  2 002442   200356 630500                    EPPR0   TIME_BUF1,,AUTO
         2 002443   200510 450500                    STP0    CHR_POS,,AUTO
         2 002444   200352 631500                    EPPR1   STATE_BUF+2,,AUTO
         2 002445   200507 451500                    STP1    @MASK,,AUTO
         2 002446   001454 701000 2                  TSX1    CONVERT_TIME
         2 002447   000000 011000                    NOP     0

     3243    11154    3               FMT_VEC(I+2) = VECTOR(TIME_BUF1) ;

  11154  2 002450   200343 235100                    LDA     I,,AUTO
         2 002451   000001 735000                    ALS     1
         2 002452   000000 620005                    EAX0    0,AL
         2 002453   000011 235000 3                  LDA     9
         2 002454   200520 452500                    STP2    @START+2,,AUTO
         2 002455   200520 236100                    LDQ     @START+2,,AUTO
         2 002456   000356 036003                    ADLQ    238,DU
         2 002457   200051 755110                    STA     FMT_VEC+4,X0,AUTO
         2 002460   200052 756110                    STQ     FMT_VEC+5,X0,AUTO
PL6.E3A0      #002=CPK$CHECK_OUTPUT File=CPK$CHECK.:E05TSI                       TUE 07/29/97 11:57 Page:498

     3244    11155    3               I = I + 2 ;

  11155  2 002461   200343 235100                    LDA     I,,AUTO
         2 002462   000002 035007                    ADLA    2,DL
         2 002463   200343 755100                    STA     I,,AUTO
         2 002464   002631 710000 2                  TRA     s:11190

     3245    11156
     3246    11157    3             CASE(%CP_SYSID_FOLL_MESS) ;

     3247    11158    3               F_FDS.FMT_ = VECTOR(SYSID_FOLL_MESS_FMT) ;

  11158  2 002465   000142 237000 3                  LDAQ    98
         2 002466   200007 755100                    STA     F_FDS,,AUTO
         2 002467   200010 756100                    STQ     F_FDS+1,,AUTO

     3248    11159    3               NFOLL = BUF$ -> VLA$INPUT.NFOLL - 1 ;

  11159  2 002470   200005 471500                    LDP1    BUF$,,AUTO
         2 002471   100006 236100                    LDQ     6,,PR1
         2 002472   000022 772000                    QRL     18
         2 002473   000777 376007                    ANQ     511,DL
         2 002474   000001 136007                    SBLQ    1,DL
         2 002475   200345 756100                    STQ     NFOLL,,AUTO

     3249    11160    3               FMT_VEC(I+1) = VECTOR(BUF$ -> VLA$INPUT.JDID.SYSID(0)) ;

  11160  2 002476   200343 235100                    LDA     I,,AUTO
         2 002477   000001 735000                    ALS     1
         2 002500   000000 620005                    EAX0    0,AL
         2 002501   377640 235007                    LDA     130976,DL
         2 002502   200005 236100                    LDQ     BUF$,,AUTO
         2 002503   000144 036000 3                  ADLQ    100
         2 002504   200047 755110                    STA     FMT_VEC+2,X0,AUTO
         2 002505   200050 756110                    STQ     FMT_VEC+3,X0,AUTO

PL6.E3A0      #002=CPK$CHECK_OUTPUT File=CPK$CHECK.:E05TSI                       TUE 07/29/97 11:57 Page:499
     3250    11161    3               FMT_VEC(I+2) = VECTOR(NFOLL) ;

  11161  2 002506   200343 235100                    LDA     I,,AUTO
         2 002507   000001 735000                    ALS     1
         2 002510   000000 620005                    EAX0    0,AL
         2 002511   777640 235007                    LDA     -96,DL
         2 002512   200520 452500                    STP2    @START+2,,AUTO
         2 002513   200520 236100                    LDQ     @START+2,,AUTO
         2 002514   000345 036003                    ADLQ    229,DU
         2 002515   200051 755110                    STA     FMT_VEC+4,X0,AUTO
         2 002516   200052 756110                    STQ     FMT_VEC+5,X0,AUTO

     3251    11162    3               I = I + 2 ;

  11162  2 002517   200343 235100                    LDA     I,,AUTO
         2 002520   000002 035007                    ADLA    2,DL
         2 002521   200343 755100                    STA     I,,AUTO

     3252    11163    4               DO II = 1 TO NFOLL ;

  11163  2 002522   000001 236007                    LDQ     1,DL
         2 002523   200344 756100                    STQ     II,,AUTO
         2 002524   002544 710000 2                  TRA     s:11166+3

     3253    11164    4                 I = I + 1 ;

  11164  2 002525   200343 235100                    LDA     I,,AUTO
         2 002526   000001 035007                    ADLA    1,DL
         2 002527   200343 755100                    STA     I,,AUTO

     3254    11165    4                 FMT_VEC(I) = VECTOR(BUF$ -> VLA$INPUT.JDID.SYSID(II)) ;

  11165  2 002530   000001 735000                    ALS     1
         2 002531   000000 620005                    EAX0    0,AL
         2 002532   377640 235007                    LDA     130976,DL
         2 002533   200344 236100                    LDQ     II,,AUTO
         2 002534   000022 736000                    QLS     18
PL6.E3A0      #002=CPK$CHECK_OUTPUT File=CPK$CHECK.:E05TSI                       TUE 07/29/97 11:57 Page:500
         2 002535   000144 036000 3                  ADLQ    100
         2 002536   200005 036100                    ADLQ    BUF$,,AUTO
         2 002537   200045 755110                    STA     FMT_VEC,X0,AUTO
         2 002540   200046 756110                    STQ     FMT_VEC+1,X0,AUTO

     3255    11166    4               END ; /* DO I */

  11166  2 002541   200344 235100                    LDA     II,,AUTO
         2 002542   000001 035007                    ADLA    1,DL
         2 002543   200344 755100                    STA     II,,AUTO
         2 002544   200345 236100                    LDQ     NFOLL,,AUTO
         2 002545   200344 116100                    CMPQ    II,,AUTO
         2 002546   002525 603000 2                  TRC     s:11164
         2 002547   002631 710000 2                  TRA     s:11190

     3256    11167
     3257    11168    3             CASE(%CP_SYSID_RUNAFTER_MESS) ;

     3258    11169    3               F_FDS.FMT_ = VECTOR(SYSID_DEFERRED_MESS_FMT) ;

  11169  2 002550   000146 237000 3                  LDAQ    102
         2 002551   200007 755100                    STA     F_FDS,,AUTO
         2 002552   200010 756100                    STQ     F_FDS+1,,AUTO

     3259    11170    3               FMT_VEC(I+1) = VECTOR(BUF$->VLA$INPUT.RATIM) ;

  11170  2 002553   200343 235100                    LDA     I,,AUTO
         2 002554   000001 735000                    ALS     1
         2 002555   000000 620005                    EAX0    0,AL
         2 002556   777640 235007                    LDA     -96,DL
         2 002557   200005 236100                    LDQ     BUF$,,AUTO
         2 002560   000031 036003                    ADLQ    25,DU
         2 002561   200047 755110                    STA     FMT_VEC+2,X0,AUTO
         2 002562   200050 756110                    STQ     FMT_VEC+3,X0,AUTO

     3260    11171    3               I = I + 1 ;

PL6.E3A0      #002=CPK$CHECK_OUTPUT File=CPK$CHECK.:E05TSI                       TUE 07/29/97 11:57 Page:501
  11171  2 002563   200343 235100                    LDA     I,,AUTO
         2 002564   000001 035007                    ADLA    1,DL
         2 002565   200343 755100                    STA     I,,AUTO
         2 002566   002631 710000 2                  TRA     s:11190

     3261    11172
     3262    11173    3             CASE(%CP_SYSID_WPART_MESS) ;

     3263    11174    3               F_FDS.FMT_ = VECTOR(SYSID_WPART_MESS_FMT) ;

  11174  2 002567   000150 237000 3                  LDAQ    104
         2 002570   200007 755100                    STA     F_FDS,,AUTO
         2 002571   200010 756100                    STQ     F_FDS+1,,AUTO
         2 002572   002631 710000 2                  TRA     s:11190

     3264    11175
     3265    11176    3             CASE(%CP_SYSID_OTHER_MESS) ;

     3266    11177    3               F_FDS.FMT_ = VECTOR(SYSID_OTHER_MESS_FMT) ;

  11177  2 002573   000152 237000 3                  LDAQ    106
         2 002574   200007 755100                    STA     F_FDS,,AUTO
         2 002575   200010 756100                    STQ     F_FDS+1,,AUTO
         2 002576   002631 710000 2                  TRA     s:11190

     3267    11178
     3268    11179    3             CASE(%CP_SYSID_WPS_MESS) ;

     3269    11180    3               F_FDS.FMT_ = VECTOR(SYSID_WPS_MESS_FMT) ;

  11180  2 002577   000154 237000 3                  LDAQ    108
         2 002600   200007 755100                    STA     F_FDS,,AUTO
         2 002601   200010 756100                    STQ     F_FDS+1,,AUTO
         2 002602   002631 710000 2                  TRA     s:11190

     3270    11181
     3271    11182    3             CASE(%CP_SYSID_WAIT_MESS) ;
PL6.E3A0      #002=CPK$CHECK_OUTPUT File=CPK$CHECK.:E05TSI                       TUE 07/29/97 11:57 Page:502

     3272    11183    3               F_FDS.FMT_ = VECTOR(SYSID_WAIT_MESS_FMT) ;

  11183  2 002603   000156 237000 3                  LDAQ    110
         2 002604   200007 755100                    STA     F_FDS,,AUTO
         2 002605   200010 756100                    STQ     F_FDS+1,,AUTO

     3273    11184    3               FMT_VEC(I+1) = VECTOR(BUF$->VLA$INPUT.AHEAD) ;

  11184  2 002606   200343 235100                    LDA     I,,AUTO
         2 002607   000001 735000                    ALS     1
         2 002610   000000 620005                    EAX0    0,AL
         2 002611   777640 235007                    LDA     -96,DL
         2 002612   200005 236100                    LDQ     BUF$,,AUTO
         2 002613   000007 036003                    ADLQ    7,DU
         2 002614   200047 755110                    STA     FMT_VEC+2,X0,AUTO
         2 002615   200050 756110                    STQ     FMT_VEC+3,X0,AUTO

     3274    11185    3               FMT_VEC(I+2) = VECTOR(BUF$->VLA$INPUT.PRIO) ;

  11185  2 002616   200343 235100                    LDA     I,,AUTO
         2 002617   000001 735000                    ALS     1
         2 002620   000000 620005                    EAX0    0,AL
         2 002621   177640 235007                    LDA     65440,DL
         2 002622   200005 236100                    LDQ     BUF$,,AUTO
         2 002623   000145 036000 3                  ADLQ    101
         2 002624   200051 755110                    STA     FMT_VEC+4,X0,AUTO
         2 002625   200052 756110                    STQ     FMT_VEC+5,X0,AUTO

     3275    11186    3               I = I + 2 ;

  11186  2 002626   200343 235100                    LDA     I,,AUTO
         2 002627   000002 035007                    ADLA    2,DL
         2 002630   200343 755100                    STA     I,,AUTO

     3276    11187
     3277    11188    3         END ; /* DO CASE */
PL6.E3A0      #002=CPK$CHECK_OUTPUT File=CPK$CHECK.:E05TSI                       TUE 07/29/97 11:57 Page:503

     3278    11189
     3279    11190    2         IF (CH_XFORMAT.COMMENT# ~= ' ')

  11190  2 002631   200003 470500                    LDP0    @CH_XFORMAT,,AUTO
         2 002632   040000 106500                    CMPC    fill='040'O
         2 002633   000017 000030                    ADSC9   15,,PR0                  cn=0,n=24
         2 002634   000035 000001 xsym               ADSC9   B_VECTNIL+29             cn=0,n=1
         2 002635   002651 600000 2                  TZE     s:11196

     3280    11191    2           THEN
     3281    11192    3             DO ;

     3282    11193    3               FMT_VEC(I+1) = VECTOR(CH_XFORMAT.COMMENT#) ;

  11193  2 002636   200343 235100                    LDA     I,,AUTO
         2 002637   000001 735000                    ALS     1
         2 002640   000000 620005                    EAX0    0,AL
         2 002641   000103 235000 3                  LDA     67
         2 002642   200003 236100                    LDQ     @CH_XFORMAT,,AUTO
         2 002643   000017 036003                    ADLQ    15,DU
         2 002644   200047 755110                    STA     FMT_VEC+2,X0,AUTO
         2 002645   200050 756110                    STQ     FMT_VEC+3,X0,AUTO

     3283    11194    3               I = I + 1 ;

  11194  2 002646   200343 235100                    LDA     I,,AUTO
         2 002647   000001 035007                    ADLA    1,DL
         2 002650   200343 755100                    STA     I,,AUTO

     3284    11195    3             END ; /* THEN DO */

     3285    11196    2         F_FDS.NVECS# = I + 1 ;

  11196  2 002651   200343 235100                    LDA     I,,AUTO
         2 002652   000001 035007                    ADLA    1,DL
         2 002653   200020 755100                    STA     F_FDS+9,,AUTO
PL6.E3A0      #002=CPK$CHECK_OUTPUT File=CPK$CHECK.:E05TSI                       TUE 07/29/97 11:57 Page:504

     3286    11197
     3287    11198    2         RETURN ;

  11198  2 002654   200504 221300                    LDX1  ! FPT_STATE+6,,AUTO
         2 002655   000001 702211                    TSX2  ! 1,X1

     3288    11199
     3289    11200    2   END   OUTPUT_SYSID_IN_AND_RUN ;
     3290    11201        %EJECT ;
PL6.E3A0      #002=CPK$CHECK_OUTPUT File=CPK$CHECK.:E05TSI                       TUE 07/29/97 11:57 Page:505
     3291    11202    1   OUTPUT_SYSID_OQ:    PROC ;

  11202  2 002656   200504 741300       OUTPUT_SYSI* STX1  ! FPT_STATE+6,,AUTO

     3292    11203
     3293    11204    2         FMT_VEC(0) = VECTOR(BUF$ -> VLA$OUTPUT.SYSID) ;

  11204  2 002657   377640 235007                    LDA     130976,DL
         2 002660   200005 236100                    LDQ     BUF$,,AUTO
         2 002661   000005 036003                    ADLQ    5,DU
         2 002662   200045 755100                    STA     FMT_VEC,,AUTO
         2 002663   200046 756100                    STQ     FMT_VEC+1,,AUTO

     3294    11205    2         FMT_VEC(1) = VECTOR(BUF$ -> VLA$OUTPUT.NUM) ;

  11205  2 002664   377640 235007                    LDA     130976,DL
         2 002665   200005 236100                    LDQ     BUF$,,AUTO
         2 002666   000045 036000 3                  ADLQ    37
         2 002667   200047 755100                    STA     FMT_VEC+2,,AUTO
         2 002670   200050 756100                    STQ     FMT_VEC+3,,AUTO

     3295    11206    2         FMT_VEC(2) = VECTOR(BUF$ -> VLA$OUTPUT.JNAME) ;

  11206  2 002671   000027 235000 3                  LDA     23
         2 002672   200005 236100                    LDQ     BUF$,,AUTO
         2 002673   000013 036003                    ADLQ    11,DU
         2 002674   200051 755100                    STA     FMT_VEC+4,,AUTO
         2 002675   200052 756100                    STQ     FMT_VEC+5,,AUTO

     3296    11207    2         FMT_VEC(3) = VECTOR(BUF$ -> VLA$OUTPUT.ACCT) ;

  11207  2 002676   000011 235000 3                  LDA     9
         2 002677   200005 236100                    LDQ     BUF$,,AUTO
         2 002700   000011 036003                    ADLQ    9,DU
         2 002701   200053 755100                    STA     FMT_VEC+6,,AUTO
         2 002702   200054 756100                    STQ     FMT_VEC+7,,AUTO

PL6.E3A0      #002=CPK$CHECK_OUTPUT File=CPK$CHECK.:E05TSI                       TUE 07/29/97 11:57 Page:506
     3297    11208    2         I = 3 ;

  11208  2 002703   000003 235007                    LDA     3,DL
         2 002704   200343 755100                    STA     I,,AUTO

     3298    11209    2         II = 16 ;

  11209  2 002705   000020 235007                    LDA     16,DL
         2 002706   200344 755100                    STA     II,,AUTO

     3299    11210    2         FMT_BUF = '%D-%D %<>A.%<>A' ;

  11210  2 002707   040100 100400                    MLR     fill='040'O
         2 002710   001415 000017 1                  ADSC9   DEV_TYPES+18             cn=0,n=15
         2 002711   200374 000120                    ADSC9   FMT_BUF,,AUTO            cn=0,n=80

     3300    11211    2         IF (BUF$->VLA$OUTPUT.DEVNAME = ' ')

  11211  2 002712   200005 470500                    LDP0    BUF$,,AUTO
         2 002713   000010 720100                    LXL0    8,,PR0
         2 002714   040040 100003                    CMPX0   16416,DU
         2 002715   002777 601000 2                  TNZ     s:11237

     3301    11212    2           THEN                                            /* Waiting to be output. */
     3302    11213    3             DO ;

     3303    11214    3               CALL GET_OUTPUT_TYPE(5,SH_OUT_TYPE_ARRY) ;

  11214  2 002716   000160 236000 3                  LDQ     112
         2 002717   200510 756100                    STQ     CHR_POS,,AUTO
         2 002720   000161 236000 3                  LDQ     113
         2 002721   200507 756100                    STQ     @MASK,,AUTO
         2 002722   001534 701000 2                  TSX1    GET_OUTPUT_TYPE
         2 002723   000000 011000                    NOP     0

     3304    11215    3               I = 5 ;

PL6.E3A0      #002=CPK$CHECK_OUTPUT File=CPK$CHECK.:E05TSI                       TUE 07/29/97 11:57 Page:507
  11215  2 002724   000005 235007                    LDA     5,DL
         2 002725   200343 755100                    STA     I,,AUTO

     3305    11216    3               CALL INSERT(FMT_BUF,II,8,'waiting') ;

  11216  2 002726   200344 236100                    LDQ     II,,AUTO
         2 002727   040106 100400                    MLR     fill='040'O
         2 002730   001421 000007 1                  ADSC9   DEV_TYPES+22             cn=0,n=7
         2 002731   200374 000010                    ADSC9   FMT_BUF,Q,AUTO           cn=0,n=8

     3306    11217    3               II = II + 8 ;

  11217  2 002732   000010 036007                    ADLQ    8,DL
         2 002733   200344 756100                    STQ     II,,AUTO

     3307    11218    3               IF (BUF$ -> VLA$OUTPUT.FLG.DEVAVAIL)

  11218  2 002734   200005 470500                    LDP0    BUF$,,AUTO
         2 002735   000004 236100                    LDQ     4,,PR0
         2 002736   040000 316003                    CANQ    16384,DU
         2 002737   002760 600000 2                  TZE     s:11228

     3308    11219    3                 THEN
     3309    11220    4                   DO ;

     3310    11221    4                     NUM_AHEAD = BUF$ -> VLA$OUTPUT.AHEAD ;

  11221  2 002740   000023 236100                    LDQ     19,,PR0
         2 002741   000022 772000                    QRL     18
         2 002742   200365 756100                    STQ     NUM_AHEAD,,AUTO

     3311    11222    4                     FMT_VEC(4) = VECTOR(NUM_AHEAD) ;

  11222  2 002743   777640 235007                    LDA     -96,DL
         2 002744   200520 452500                    STP2    @START+2,,AUTO
         2 002745   200520 236100                    LDQ     @START+2,,AUTO
         2 002746   000365 036003                    ADLQ    245,DU
PL6.E3A0      #002=CPK$CHECK_OUTPUT File=CPK$CHECK.:E05TSI                       TUE 07/29/97 11:57 Page:508
         2 002747   200055 755100                    STA     FMT_VEC+8,,AUTO
         2 002750   200056 756100                    STQ     FMT_VEC+9,,AUTO

     3312    11223    4                     CALL INSERT(FMT_BUF,II,11,'%D to %<>A') ;

  11223  2 002751   200344 235100                    LDA     II,,AUTO
         2 002752   040105 100400                    MLR     fill='040'O
         2 002753   001423 000012 1                  ADSC9   DEV_TYPES+24             cn=0,n=10
         2 002754   200374 000013                    ADSC9   FMT_BUF,A,AUTO           cn=0,n=11

     3313    11224    4                     II = II + 11 ;

  11224  2 002755   000013 035007                    ADLA    11,DL
         2 002756   200344 755100                    STA     II,,AUTO

     3314    11225    4                   END ; /* THEN DO */

  11225  2 002757   002771 710000 2                  TRA     s:11232

     3315    11226    3                 ELSE
     3316    11227    4                   DO ;                                  /* Waiting NODEV. */

     3317    11228    4                     FMT_VEC(4) = VECTOR(NODEV_HDR) ;

  11228  2 002760   000162 237000 3                  LDAQ    114
         2 002761   200055 755100                    STA     FMT_VEC+8,,AUTO
         2 002762   200056 756100                    STQ     FMT_VEC+9,,AUTO

     3318    11229    4                     CALL INSERT(FMT_BUF,II,13,'%<>A to %<>A') ;

  11229  2 002763   200344 235100                    LDA     II,,AUTO
         2 002764   040105 100400                    MLR     fill='040'O
         2 002765   001426 000014 1                  ADSC9   DEV_TYPES+27             cn=0,n=12
         2 002766   200374 000015                    ADSC9   FMT_BUF,A,AUTO           cn=0,n=13

     3319    11230    4                     II = II + 13 ;

PL6.E3A0      #002=CPK$CHECK_OUTPUT File=CPK$CHECK.:E05TSI                       TUE 07/29/97 11:57 Page:509
  11230  2 002767   000015 035007                    ADLA    13,DL
         2 002770   200344 755100                    STA     II,,AUTO

     3320    11231    4                   END ; /* ELSE DO */

     3321    11232    3                   CALL INSERT(FMT_BUF,II,3,'on') ;

  11232  2 002771   040105 100400                    MLR     fill='040'O
         2 002772   001431 000002 1                  ADSC9   DEV_TYPES+30             cn=0,n=2
         2 002773   200374 000003                    ADSC9   FMT_BUF,A,AUTO           cn=0,n=3

     3322    11233    3                   II = II + 3 ;

  11233  2 002774   000003 035007                    ADLA    3,DL
         2 002775   200344 755100                    STA     II,,AUTO

     3323    11234    3             END ; /* THEN DO */

  11234  2 002776   003015 710000 2                  TRA     s:11242

     3324    11235    2           ELSE
     3325    11236    3             DO ;                                        /* Being output. */

     3326    11237    3                 CALL GET_OUTPUT_TYPE(4,LC_OUT_TYPE_ARRY) ;

  11237  2 002777   000164 236000 3                  LDQ     116
         2 003000   200510 756100                    STQ     CHR_POS,,AUTO
         2 003001   000165 236000 3                  LDQ     117
         2 003002   200507 756100                    STQ     @MASK,,AUTO
         2 003003   001534 701000 2                  TSX1    GET_OUTPUT_TYPE
         2 003004   000000 011000                    NOP     0

     3327    11238    3                 I = 4 ;

  11238  2 003005   000004 235007                    LDA     4,DL
         2 003006   200343 755100                    STA     I,,AUTO

PL6.E3A0      #002=CPK$CHECK_OUTPUT File=CPK$CHECK.:E05TSI                       TUE 07/29/97 11:57 Page:510
     3328    11239    3                 CALL INSERT(FMT_BUF,II,8,'%<>A on') ;

  11239  2 003007   200344 236100                    LDQ     II,,AUTO
         2 003010   040106 100400                    MLR     fill='040'O
         2 003011   001432 000007 1                  ADSC9   DEV_TYPES+31             cn=0,n=7
         2 003012   200374 000010                    ADSC9   FMT_BUF,Q,AUTO           cn=0,n=8

     3329    11240    3                 II = II + 8 ;

  11240  2 003013   000010 036007                    ADLQ    8,DL
         2 003014   200344 756100                    STQ     II,,AUTO

     3330    11241    3               END ; /* ELSE DO */

     3331    11242    2         FMT_VEC(I+1) = VECTOR(BUF$ -> VLA$OUTPUT.DEVTYP) ;

  11242  2 003015   200343 235100                    LDA     I,,AUTO
         2 003016   000001 735000                    ALS     1
         2 003017   000000 620005                    EAX0    0,AL
         2 003020   377640 235007                    LDA     130976,DL
         2 003021   200005 236100                    LDQ     BUF$,,AUTO
         2 003022   000002 036003                    ADLQ    2,DU
         2 003023   200047 755110                    STA     FMT_VEC+2,X0,AUTO
         2 003024   200050 756110                    STQ     FMT_VEC+3,X0,AUTO

     3332    11243    2         FMT_VEC(I+2) = VECTOR(BUF$ -> VLA$OUTPUT.DEVNAME) ;

  11243  2 003025   200343 235100                    LDA     I,,AUTO
         2 003026   000001 735000                    ALS     1
         2 003027   000000 620005                    EAX0    0,AL
         2 003030   377640 235007                    LDA     130976,DL
         2 003031   200005 236100                    LDQ     BUF$,,AUTO
         2 003032   000053 036000 3                  ADLQ    43
         2 003033   200051 755110                    STA     FMT_VEC+4,X0,AUTO
         2 003034   200052 756110                    STQ     FMT_VEC+5,X0,AUTO

     3333    11244    2         IF BUF$->VLA$OUTPUT.DEVNAME = ' '
PL6.E3A0      #002=CPK$CHECK_OUTPUT File=CPK$CHECK.:E05TSI                       TUE 07/29/97 11:57 Page:511

  11244  2 003035   200005 470500                    LDP0    BUF$,,AUTO
         2 003036   000010 720100                    LXL0    8,,PR0
         2 003037   040040 100003                    CMPX0   16416,DU
         2 003040   003052 601000 2                  TNZ     s:11248

     3334    11245    2             THEN
     3335    11246    2               FMT_VEC(I+3) = VECTOR(BUF$ -> VLA$OUTPUT.WOD) ;

  11246  2 003041   200343 235100                    LDA     I,,AUTO
         2 003042   000001 735000                    ALS     1
         2 003043   000000 621005                    EAX1    0,AL
         2 003044   000011 235000 3                  LDA     9
         2 003045   200005 236100                    LDQ     BUF$,,AUTO
         2 003046   000025 036003                    ADLQ    21,DU
         2 003047   200053 755111                    STA     FMT_VEC+6,X1,AUTO
         2 003050   200054 756111                    STQ     FMT_VEC+7,X1,AUTO
         2 003051   003061 710000 2                  TRA     s:11249

     3336    11247    2             ELSE
     3337    11248    2               FMT_VEC(I+3) = VECTOR(BUF$ -> VLA$OUTPUT.TNAME) ;

  11248  2 003052   200343 235100                    LDA     I,,AUTO
         2 003053   000001 735000                    ALS     1
         2 003054   000000 621005                    EAX1    0,AL
         2 003055   000011 235000 3                  LDA     9
         2 003056   200005 236100                    LDQ     BUF$,,AUTO
         2 003057   200053 755111                    STA     FMT_VEC+6,X1,AUTO
         2 003060   200054 756111                    STQ     FMT_VEC+7,X1,AUTO

     3338    11249    2         I = I + 3 ;

  11249  2 003061   200343 235100                    LDA     I,,AUTO
         2 003062   000003 035007                    ADLA    3,DL
         2 003063   200343 755100                    STA     I,,AUTO

     3339    11250    2         CALL INSERT(FMT_BUF,II,13,'%<>A%<>A@%<>A') ;
PL6.E3A0      #002=CPK$CHECK_OUTPUT File=CPK$CHECK.:E05TSI                       TUE 07/29/97 11:57 Page:512

  11250  2 003064   200344 236100                    LDQ     II,,AUTO
         2 003065   040106 100400                    MLR     fill='040'O
         2 003066   001434 000015 1                  ADSC9   DEV_TYPES+33             cn=0,n=13
         2 003067   200374 000015                    ADSC9   FMT_BUF,Q,AUTO           cn=0,n=13

     3340    11251    2         II = II + 13 ;

  11251  2 003070   000015 036007                    ADLQ    13,DL
         2 003071   200344 756100                    STQ     II,,AUTO

     3341    11252    2         STEPCC = CH_XFORMAT.STAT$ -> XSJ$JOBINFO.STEPCC# ;

  11252  2 003072   200003 471500                    LDP1    @CH_XFORMAT,,AUTO
         2 003073   100016 473500                    LDP3    14,,PR1
         2 003074   300000 236100                    LDQ     0,,PR3
         2 003075   000011 772000                    QRL     9
         2 003076   000777 376007                    ANQ     511,DL
         2 003077   200367 756100                    STQ     STEPCC,,AUTO

     3342    11253    2         IF STEPCC ~= 0

  11253  2 003100   003123 600000 2                  TZE     s:11261

     3343    11254    2             THEN
     3344    11255    3               DO ;

     3345    11256    3                 FMT_VEC(I+1) = VECTOR(STEPCC) ;

  11256  2 003101   200343 235100                    LDA     I,,AUTO
         2 003102   000001 735000                    ALS     1
         2 003103   000000 620005                    EAX0    0,AL
         2 003104   777640 235007                    LDA     -96,DL
         2 003105   200520 452500                    STP2    @START+2,,AUTO
         2 003106   200520 236100                    LDQ     @START+2,,AUTO
         2 003107   000367 036003                    ADLQ    247,DU
         2 003110   200047 755110                    STA     FMT_VEC+2,X0,AUTO
PL6.E3A0      #002=CPK$CHECK_OUTPUT File=CPK$CHECK.:E05TSI                       TUE 07/29/97 11:57 Page:513
         2 003111   200050 756110                    STQ     FMT_VEC+3,X0,AUTO

     3346    11257    3                 CALL INSERT(FMT_BUF,II,15,' with STEPCC=%D') ;

  11257  2 003112   200344 235100                    LDA     II,,AUTO
         2 003113   040105 100400                    MLR     fill='040'O
         2 003114   001440 000017 1                  ADSC9   DEV_TYPES+37             cn=0,n=15
         2 003115   200374 000017                    ADSC9   FMT_BUF,A,AUTO           cn=0,n=15

     3347    11258    3                 II = II + 15 ;

  11258  2 003116   000017 035007                    ADLA    15,DL
         2 003117   200344 755100                    STA     II,,AUTO

     3348    11259    3                 I = I + 1 ;

  11259  2 003120   200343 236100                    LDQ     I,,AUTO
         2 003121   000001 036007                    ADLQ    1,DL
         2 003122   200343 756100                    STQ     I,,AUTO

     3349    11260    3               END ; /* THEN DO */

     3350    11261    2         IF (CH_XFORMAT.COMMENT# ~= ' ')

  11261  2 003123   040000 106500                    CMPC    fill='040'O
         2 003124   100017 000030                    ADSC9   15,,PR1                  cn=0,n=24
         2 003125   000035 000001 xsym               ADSC9   B_VECTNIL+29             cn=0,n=1
         2 003126   003150 600000 2                  TZE     s:11269

     3351    11262    2           THEN
     3352    11263    3             DO ;

     3353    11264    3               FMT_VEC(I+1) = VECTOR(CH_XFORMAT.COMMENT#) ;

  11264  2 003127   200343 235100                    LDA     I,,AUTO
         2 003130   000001 735000                    ALS     1
         2 003131   000000 620005                    EAX0    0,AL
PL6.E3A0      #002=CPK$CHECK_OUTPUT File=CPK$CHECK.:E05TSI                       TUE 07/29/97 11:57 Page:514
         2 003132   000103 235000 3                  LDA     67
         2 003133   200003 236100                    LDQ     @CH_XFORMAT,,AUTO
         2 003134   000017 036003                    ADLQ    15,DU
         2 003135   200047 755110                    STA     FMT_VEC+2,X0,AUTO
         2 003136   200050 756110                    STQ     FMT_VEC+3,X0,AUTO

     3354    11265    3               I = I + 1 ;

  11265  2 003137   200343 235100                    LDA     I,,AUTO
         2 003140   000001 035007                    ADLA    1,DL
         2 003141   200343 755100                    STA     I,,AUTO

     3355    11266    3               CALL INSERT(FMT_BUF,II,7,' - %<>A') ;

  11266  2 003142   200344 236100                    LDQ     II,,AUTO
         2 003143   040106 100400                    MLR     fill='040'O
         2 003144   001444 000007 1                  ADSC9   DEV_TYPES+41             cn=0,n=7
         2 003145   200374 000007                    ADSC9   FMT_BUF,Q,AUTO           cn=0,n=7

     3356    11267    3               II = II + 7 ;

  11267  2 003146   000007 036007                    ADLQ    7,DL
         2 003147   200344 756100                    STQ     II,,AUTO

     3357    11268    3             END ; /* THEN DO */

     3358    11269    2         F_FDS.NVECS# = I + 1 ;

  11269  2 003150   200343 235100                    LDA     I,,AUTO
         2 003151   000001 035007                    ADLA    1,DL
         2 003152   200020 755100                    STA     F_FDS+9,,AUTO

     3359    11270    2         F_FDS.FMT_ = VECTOR(FMT_BUF) ;

  11270  2 003153   000102 235000 3                  LDA     66
         2 003154   200520 452500                    STP2    @START+2,,AUTO
         2 003155   200520 236100                    LDQ     @START+2,,AUTO
PL6.E3A0      #002=CPK$CHECK_OUTPUT File=CPK$CHECK.:E05TSI                       TUE 07/29/97 11:57 Page:515
         2 003156   000374 036003                    ADLQ    252,DU
         2 003157   200007 755100                    STA     F_FDS,,AUTO
         2 003160   200010 756100                    STQ     F_FDS+1,,AUTO

     3360    11271
     3361    11272    2         RETURN ;

  11272  2 003161   200504 221300                    LDX1  ! FPT_STATE+6,,AUTO
         2 003162   000001 702211                    TSX2  ! 1,X1
     3362    11273
     3363    11274    2   END   OUTPUT_SYSID_OQ ;
     3364    11275    1   END   CPK$CHECK_OUTPUT ;
     3365    11276        %EOD ;

PL6.E3A0      #002=CPK$CHECK_OUTPUT File=CPK$CHECK.:E05TSI                       TUE 07/29/97 11:57 Page:516
--  Include file information  --

   NK_VFC_C.:E05TOU  is referenced.
   XSJ_SUBS_C.:E05TOU  is referenced.
   XSJ_MAC_C.:E05TOU  is referenced.
   XU_FORMAT_C.:E05TOU  is referenced.
   OC$MESSHD_C.:E05TOU  is referenced.
   B_ERRORS_C.:E05TOU  is referenced.
   CP_DATA_R.:E05TOU  cannot be made into a system file and is referenced.
   XU_MACRO_C.:E05TOU  is referenced.
   CP_MACROS_C.:E05TOU  is referenced.
   CP_SUBS_C.:E05TOU  is referenced.
   CP_6_SUBS.:E05TOU  is referenced.
   CP_6.:E05TOU  cannot be made into a system file and is referenced.
   B$JIT.:E05TOU  cannot be made into a system file and is referenced.
   B$JIT_C.:E05TOU  was found in the system file and is referenced.
   CP_6_C.:E05TOU  was found in the system file and is referenced.
      No diagnostics issued in procedure CPK$CHECK_OUTPUT.
PL6.E3A0      #002=CPK$CHECK_OUTPUT File=CPK$CHECK.:E05TSI                       TUE 07/29/97 11:57 Page:517

 **** Variables and constants ****

  ****  Section 001 RoData CPK$CHECK_OUTPUT

  ****  Scalars and arrays  ****
OctLoc.c.b A Datatyp(siz) R M Lvl/name                 OctLoc.c.b A Datatyp(siz) R M Lvl/name

  1346-0-0/c CHAR(5)     r     1 AHEAD_HDR                530-0-0/c CHAR(19)    r     1 APRESCAN_FMT1
   535-0-0/c CHAR(22)    r     1 APRESCAN_FMT2           1355-0-0/c CHAR        r     1 A_CHAR
    37-0-0/c CHAR        r     1 BELL                    1362-0-0/c CHAR        r     1 BLANK_CHAR
    36-0-0/c CHAR(4)     r     1 BLANK_FMT                  0-0-0/w STRC(1080)  r     1 CF_FDS
   543-0-0/c CHAR(15)    r     1 COMPLETED_FMT1           547-0-0/c CHAR(18)    r     1 COMPLETED_FMT2
  1373-0-0/c CHAR(4)     r     1 DEV_TYPES(0:4)
  1373-0-0/c CHAR(20)    r     1 DEV_TYPES_STR            103-0-0/c CHAR(72)    r     1 DFLT_OUTPUT_HDR
   102-0-0/c CHAR(3)     r     1 DFLT_OUTPUT_HDR_FMT     1356-0-0/c CHAR        r     1 D_CHAR
   743-0-0/c CHAR(5)     r     1 EXTRA_LIMITS_FMT        1154-0-0/c CHAR(20)    r     1 FIN_ABNORMAL
  1012-0-0/d BIT (72)    r     1 FIN_ABNORMAL_           1170-0-0/c CHAR(44)    r     1 FIN_ABNORMAL_UNKNOWN
  1016-0-0/d BIT (72)    r     1 FIN_ABNORMAL_UNKNOWN_
  1161-0-0/c CHAR(26)    r     1 FIN_COMPLETED           1014-0-0/d BIT (72)    r     1 FIN_COMPLETED_
  1147-0-0/c CHAR(18)    r     1 FIN_RECOVER             1010-0-0/d BIT (72)    r     1 FIN_RECOVER_
   652-0-0/c CHAR(39)    r     1 FMT1                     672-0-0/c CHAR(32)    r     1 FMTVEC
   702-0-0/c CHAR(47)    r     1 FMTVEC1                  666-0-0/d BIT (72)    r     1 FMTVEC1_
   716-0-0/c CHAR(59)    r     1 FMTVEC2                  670-0-0/d BIT (72)    r     1 FMTVEC2_
   664-0-0/d BIT (72)    r     1 FMTVEC_                 1360-0-0/c CHAR        r     1 F_CHAR
   562-0-0/c CHAR        r     1 HELD_LINE_FMT(0:79)
  1357-0-0/c CHAR        r     1 H_CHAR                    41-0-0/c CHAR(72)    r     1 INPUT_HDR
    40-0-0/c CHAR(3)     r     1 INPUT_HDR_FMT            125-0-0/c CHAR(70)    r     1 INPUT_MESS_FMT
   622-0-0/c CHAR(8)     r     1 LC_OUT_TYPE_ARRY(0:5)
   745-0-0/c CHAR(18)    r     1 LIMIT_COMMENT_FMT        735-0-0/c CHAR(23)    r     1 LIMIT_FMT_BUF
  1025-0-0/c CHAR(16)    r     1 MBS_CANCELED             754-0-0/d BIT (72)    r     1 MBS_CANCELED_
  1020-0-0/c CHAR(19)    r     1 MBS_DELETED              752-0-0/d BIT (72)    r     1 MBS_DELETED_
  1042-0-0/c CHAR(41)    r     1 MBS_FILERR               760-0-0/d BIT (72)    r     1 MBS_FILERR_
  1031-0-0/c CHAR(35)    r     1 MBS_SHAFTED              756-0-0/d BIT (72)    r     1 MBS_SHAFTED_
  1367-0-0/c CHAR(5)     r     1 NODEV_HDR               1371-0-0/c CHAR(5)     r     1 NODEV_HDR2
   467-0-0/c CHAR(12)    r     1 NONE_IN_MESS_FMT         465-0-0/c CHAR(7)     r     1 NONE_MESS_FMT
   476-0-0/c CHAR(13)    r     1 NONE_OUT_MESS_FMT        472-0-0/c CHAR(13)    r     1 NONE_RUN_MESS_FMT
   516-0-0/c CHAR(40)    r     1 NO_SUCH_MESS_HDR         507-0-0/c CHAR(28)    r     1 NO_TERM_OUT_HDR
PL6.E3A0      #002=CPK$CHECK_OUTPUT File=CPK$CHECK.:E05TSI                       TUE 07/29/97 11:57 Page:518
   554-0-0/c CHAR(6)     r     1 NUM_LISTED_HDR_FMT       556-0-0/c CHAR(14)    r     1 NUM_LISTED_MESS
   171-0-0/c CHAR(58)    r     1 OUTPUT_NOWAIT_MESS_FMT
   210-0-0/c CHAR(58)    r     1 OUTPUT_NOWAIT_MESS_FMT2
   227-0-0/c CHAR(61)    r     1 OUTPUT_WAIT_MESS_FMT
   247-0-0/c CHAR(61)    r     1 OUTPUT_WAIT_MESS_FMT2
   606-0-0/c CHAR(8)     r     1 OUT_TYPE_ARRY(0:5)
    37-0-0/b BIT (9)     r     1 O_BELL                  1361-0-0/c CHAR        r     1 O_CHAR
  1363-0-0/c CHAR        r     1 PART_ARRY(0:15)
  1055-0-0/c CHAR(27)    r     1 PRE_PASSED               762-0-0/d BIT (72)    r     1 PRE_PASSED_
  1104-0-0/c CHAR(42)    r     1 REJ_BADID                776-0-0/d BIT (72)    r     1 REJ_BADID_
  1075-0-0/c CHAR(9)     r     1 REJ_IO                   772-0-0/d BIT (72)    r     1 REJ_IO_
  1064-0-0/c CHAR(8)     r     1 REJ_JOB                 1100-0-0/c CHAR(13)    r     1 REJ_JOBIMBED
   774-0-0/d BIT (72)    r     1 REJ_JOBIMBED_            764-0-0/d BIT (72)    r     1 REJ_JOB_
  1137-0-0/c CHAR(32)    r     1 REJ_NOBATCH             1006-0-0/d BIT (72)    r     1 REJ_NOBATCH_
  1117-0-0/c CHAR(28)    r     1 REJ_NORES               1000-0-0/d BIT (72)    r     1 REJ_NORES_
  1126-0-0/c CHAR(15)    r     1 REJ_PRESCAN             1002-0-0/d BIT (72)    r     1 REJ_PRESCAN_
  1066-0-0/c CHAR(13)    r     1 REJ_RES                 1132-0-0/c CHAR(18)    r     1 REJ_RESIMBED
  1004-0-0/d BIT (72)    r     1 REJ_RESIMBED_            766-0-0/d BIT (72)    r     1 REJ_RES_
  1072-0-0/c CHAR(12)    r     1 REJ_SYNTAX               770-0-0/d BIT (72)    r     1 REJ_SYNTAX_
  1271-0-0/c CHAR(27)    r     1 RS_ABRT                 1330-0-0/c CHAR(16)    r     1 RS_CAN
  1250-0-0/d BIT (72)    r     1 RS_CAN_                 1317-0-0/c CHAR(15)    r     1 RS_DROP
  1300-0-0/c CHAR(19)    r     1 RS_EKEY                 1252-0-0/c CHAR(10)    r     1 RS_ERR
  1313-0-0/c CHAR(14)    r     1 RS_LIMX                 1305-0-0/c CHAR(23)    r     1 RS_OFF
  1260-0-0/c CHAR(35)    r     1 RS_SSP                  1323-0-0/c CHAR(19)    r     1 RS_XKEY
  1255-0-0/c CHAR(10)    r     1 RS_XXX                  1204-0-0/d BIT (72)    r     1 RS__(0:8)
    63-0-0/c CHAR(60)    r     1 RUN_HDR                  147-0-0/c CHAR(69)    r     1 RUN_MESS_FMT
  1350-0-0/c CHAR(3)     r     1 RUN_TEXT_HDR
   636-0-0/c CHAR(8)     r     1 SH_OUT_TYPE_ARRY(0:5)
   400-0-0/c CHAR(39)    r     1 SYSID_DEFERRED_MESS_FMT
   301-0-0/c CHAR(50)    r     1 SYSID_FOLL_MESS_FMT      332-0-0/c CHAR(51)    r     1 SYSID_OTHER_MESS_FMT
   267-0-0/c CHAR(39)    r     1 SYSID_RUN_MESS_FMT       363-0-0/c CHAR(50)    r     1 SYSID_WAIT_MESS_FMT
   316-0-0/c CHAR(45)    r     1 SYSID_WPART_MESS_FMT     347-0-0/c CHAR(47)    r     1 SYSID_WPS_MESS_FMT
   502-0-0/c CHAR(20)    r     1 TIME_DI_MESS_HDR        1342-0-0/c CHAR(2)     r     1 XL_DO
  1343-0-0/c CHAR(2)     r     1 XL_LO                   1341-0-0/c CHAR(4)     r     1 XL_PDISK
  1344-0-0/c CHAR(3)     r     1 XL_PLO                  1345-0-0/c CHAR(2)     r     1 XL_PO
  1335-0-0/c CHAR(5)     r     1 XL_STACK                1337-0-0/c CHAR(4)     r     1 XL_TAPE
  1340-0-0/c CHAR(4)     r     1 XL_TDISK                1334-0-0/c CHAR(4)     r     1 XL_TIME
PL6.E3A0      #002=CPK$CHECK_OUTPUT File=CPK$CHECK.:E05TSI                       TUE 07/29/97 11:57 Page:519
  1226-0-0/d BIT (72)    r     1 XL__(0:8)

  ****  Auto variables  ****

  ****  Scalars and arrays  ****
OctLoc.c.b A Datatyp(siz) R M Lvl/name                 OctLoc.c.b A Datatyp(siz) R M Lvl/name

     3-0-0/w PTR         r     1 @CH_XFORMAT              507-0-0/w PTR         r     1 @CSECS
   515-0-0/w PTR         r     1 @MASK                    507-0-0/w PTR         r     1 @MASK
     4-0-0/w PTR         r     1 @NLINES                  516-0-0/w PTR         r     1 @START
   510-0-0/w PTR         r     1 @TIME_BUF                510-0-0/w PTR         r     1 @TYPE_ARRY
   507-0-0/w PTR         r     1 @VEC#                    346-0-0/w UBIN        r     1 BITSET
     5-0-0/w PTR         r     1 BUF$                     510-0-0/w UBIN        r     1 CHR_POS
    *0-0-0/w STRC(756)   r     1 CH_XFORMAT                *0-0-0/w SBIN        r     1 CSECS
   364-0-0/c CHAR(2)     r     1 DEVTYPE                  511-0-0/w UBIN        r     1 EXTRA_SZ
   374-0-0/c CHAR(80)    r     1 FMT_BUF                   45-0-0/b BIT (72)    r     1 FMT_VEC(0:75)
   460-0-0/d STRC(72)    r     1 FPT_DISPLAY              476-0-0/d STRC(216)   r     1 FPT_STATE
   462-0-0/d STRC(432)   r     1 FPT_TIME                   7-0-0/w STRC(1080)  r     1 F_FDS
   512-0-0/w SBIN        r     1 HOUR                     343-0-0/w UBIN        r     1 I
   344-0-0/w UBIN        r     1 II                       420-0-0/c CHAR(80)    r     1 LIMIT_BUF
    *0-0-0/b BIT         r     1 MASK(0:8)                 *0-0-0/b BIT (9)     r     1 MASK
   513-0-0/w SBIN        r     1 MIN                      445-0-0/w UBIN        r     1 NCHARS
   345-0-0/w UBIN        r     1 NFOLL                     *0-0-0/w UBIN        r     1 NLINES
   512-0-0/b BIT         r     1 NOT_DONE                 365-0-0/w UBIN        r     1 NUM_AHEAD
   275-0-0/c CHAR(150)   r     1 OUT_BUF                  360-0-0/c CHAR(16)    r     1 PART_BUF
   372-0-0/d BIT (72)    r     1 RECNO_                   513-0-0/b BIT         r     1 RETFLG
   514-0-0/w SBIN        r     1 SEC                      444-0-0/w UBIN        r     1 START
    *0-0-0/w UBIN        r     1 START                    350-0-0/w STRC(144)   r     1 STATE_BUF
   367-0-0/w UBIN        r     1 STEPCC                   370-0-0/d BIT (72)    r     1 STEPCC_
     6-0-0/w PTR         r     1 TEMP$                     *0-0-0/c STRC(72)    r     1 TIME_
   354-0-0/c CHAR(8)     r     1 TIME_BUF                  *0-0-0/c CHAR(8)     r     1 TIME_BUF
   356-0-0/c CHAR(8)     r     1 TIME_BUF1
    *0-0-0/c CHAR(8)     r     1 TYPE_ARRY(0:6)
   511-0-0/w UBIN        r     1 TYPE_NUM                 347-0-0/w SBIN        r     1 UTS
    *0-0-0/w UBIN        r     1 VEC#                     450-0-0/d STRC(252)   r     1 VLR_DISPLAY
   446-0-0/w UBIN        r     1 WIDTH

PL6.E3A0      #002=CPK$CHECK_OUTPUT File=CPK$CHECK.:E05TSI                       TUE 07/29/97 11:57 Page:520
  ****  SYMREF variables  ****

  ****  Scalars and arrays  ****
OctLoc.c.b A Datatyp(siz) R M Lvl/name                 OctLoc.c.b A Datatyp(siz) R M Lvl/name

     0-0-0/w PTR         r     1 B$JIT$                     0-0-0/d STRC(72)    r     1 CFPT_DISPLAY
     0-0-0/d STRC(432)   r     1 CFPT_TIME                  0-0-0/w PTR         r     1 SEG2$

  ****  BASED and DCB variables  ****

  ****  Scalars and arrays  ****
OctLoc.c.b A Datatyp(siz) R M Lvl/name                 OctLoc.c.b A Datatyp(siz) R M Lvl/name

     0-0-0/b BIT         r     1 CH$PART(0:15)              0-0-0/d ASTR(3528)  r     1 F$DCB
     0-0-0/d STRC(432)   r     1 FPT$WRITE                  0-0-0/w STRC(6264)  r     1 SEG$2
     0-0-0/w STRC(2304)  r     1 VLA$INPUT                  0-0-0/w STRC(1008)  r     1 VLA$OUTPUT
     0-0-0/w STRC(180)   r     1 XSJ$JOBINFO


   Procedure CPK$CHECK_OUTPUT requires 1651 words for executable code.
   Procedure CPK$CHECK_OUTPUT requires 338 words of local(AUTO) storage.
PL6.E3A0      #002=CPK$CHECK_OUTPUT File=CPK$CHECK.:E05TSI                       TUE 07/29/97 11:57 Page:521
          *** CROSS REFERENCE LISTING ***
**     DENOTES     IDENTIFIER DEFINITION
<<                 IDENTIFIER'S VALUE SET
>>                 IDENTIFIER'S VALUE USED
<>                 IDENTIFIER SET AND/OR USED
--                 IDENTIFIER REFERENCED
PL6.E3A0      #002=CPK$CHECK_OUTPUT File=CPK$CHECK.:E05TSI                       TUE 07/29/97 11:57 Page:522
          MINI XREF LISTING

ADD_COMMENT IN PROCEDURE OUTPUT_FINAL_STATUS
     11055**LABEL   11006--GOTO
AHEAD_HDR
     10316**DCL     10609--ASSIGN
APRESCAN_FMT1
     10200**DCL     10755--ASSIGN
APRESCAN_FMT2
     10201**DCL     10751--ASSIGN
A_CHAR
     10322**DCL     10570--ASSIGN
B$JIT.CPFLAGS1.SLEAZE
       135**DCL       135--REDEF
B$JIT.ERR.MID
        42**DCL        42--REDEF
B$JIT.JRESPEAK
       203**DCL       204--REDEF
B$JIT.ORIGINATOR_PORT.FROM_CR
       312**DCL       312--REDEF     313--REDEF
B$JIT.PNR
       216**DCL       216--REDEF
B$JIT.TSLINE
       310**DCL       311--REDEF
B$JIT$
      8209**DCL        36--IMP-PTR
BELL
     10152**DCL     10810--ASSIGN
BITSET
     10454**DCL     11000>>ASSIGN  11071<<DOINDEX 11072>>IF      11096>>ASSIGN  11104>>ASSIGN
BLANK_CHAR
     10327**DCL     10568--ASSIGN  10571--ASSIGN  10574--ASSIGN  10577--ASSIGN  10631--ASSIGN
BLANK_FMT
     10150**DCL     10815--ASSIGN
PL6.E3A0      #002=CPK$CHECK_OUTPUT File=CPK$CHECK.:E05TSI                       TUE 07/29/97 11:57 Page:523
BUF$
     10023**DCL     10548<<ASSIGN  10557>>ASSIGN  10564>>ASSIGN  10565>>ASSIGN  10566>>IF      10569>>IF
     10572>>IF      10575>>IF      10578>>ASSIGN  10581>>ASSIGN  10582>>ASSIGN  10586>>ASSIGN  10594>>ASSIGN
     10595>>ASSIGN  10599>>IF      10602>>IF      10602>>IF      10606>>ASSIGN  10608>>IF      10615>>IF
     10615>>IF      10622>>ASSIGN  10623>>ASSIGN  10624>>ASSIGN  10625>>ASSIGN  10626>>ASSIGN  10627>>IF
     10632>>ASSIGN  10633>>ASSIGN  10634>>ASSIGN  10635>>IF      10637>>ASSIGN  10639>>ASSIGN  10640>>ASSIGN
     10641>>ASSIGN  10642>>ASSIGN  10916>>ASSIGN  11134>>ASSIGN  11135>>ASSIGN  11136>>ASSIGN  11144>>ASSIGN
     11147>>ASSIGN  11159>>ASSIGN  11160>>ASSIGN  11165>>ASSIGN  11170>>ASSIGN  11184>>ASSIGN  11185>>ASSIGN
     11204>>ASSIGN  11205>>ASSIGN  11206>>ASSIGN  11207>>ASSIGN  11211>>IF      11218>>IF      11221>>ASSIGN
     11242>>ASSIGN  11243>>ASSIGN  11244>>IF      11246>>ASSIGN  11248>>ASSIGN
CAMR_REC.ACSVEH_
      7248**DCL      7249--REDEF
CAMR_REC.ALTKEYS_
      7254**DCL      7255--REDEF    7255--REDEF
CAMR_REC.HDR_
      7253**DCL      7254--REDEF
CAMR_REC.TAB_
      7252**DCL      7253--REDEF
CAMR_REC.UHL_
      7246**DCL      7247--REDEF    7247--REDEF
CAMR_REC.V.FSN#
      7286**DCL      7286--REDEF    7286--REDEF
CAMR_REC.WSN_
      7252**DCL      7252--REDEF
CFPT_CLOSE.SN_
      6090**DCL      6090--REDEF
CFPT_CLOSE.UTL_
      6091**DCL      6091--REDEF
CFPT_CLOSE.V.EXPIRE#
      6105**DCL      6105--REDEF
CFPT_CLOSE.V.TYPE#
      6103**DCL      6103--REDEF
CFPT_CLOSE.V.XTNSIZE#
      6100**DCL      6100--REDEF    6102--REDEF
CFPT_DISPLAY
      5956**DCL     10793>>ASSIGN
PL6.E3A0      #002=CPK$CHECK_OUTPUT File=CPK$CHECK.:E05TSI                       TUE 07/29/97 11:57 Page:524
CFPT_OPEN.ACSVEH_
      6025**DCL      6026--REDEF
CFPT_OPEN.ALTKEYS_
      6031**DCL      6032--REDEF    6032--REDEF
CFPT_OPEN.HDR_
      6030**DCL      6031--REDEF
CFPT_OPEN.TAB_
      6029**DCL      6030--REDEF
CFPT_OPEN.UHL_
      6023**DCL      6024--REDEF    6024--REDEF
CFPT_OPEN.V.FSN#
      6063**DCL      6063--REDEF    6063--REDEF
CFPT_OPEN.WSN_
      6029**DCL      6029--REDEF
CFPT_READ.STATION_
      6129**DCL      6130--REDEF
CFPT_READ.V.DVBYTE.REREAD#
      6141**DCL      6141--REDEF
CFPT_READ.V.INDX#
      6139**DCL      6139--REDEF
CFPT_READUC.STATION_
      6499**DCL      6500--REDEF
CFPT_READUC.V.DVBYTE.REREAD#
      6511**DCL      6511--REDEF
CFPT_READUC.V.INDX#
      6509**DCL      6509--REDEF
CFPT_TIME
      5937**DCL     10796>>ASSIGN
CFPT_TRTN.V.IR#
      6735**DCL      6736--REDEF
CFPT_WRITE.STATION_
      6167**DCL      6167--REDEF
CFPT_WRITE.V.DVBYTE.VFC#
      6174**DCL      6174--REDEF
CFPT_WRITEUC.STATION_
      6467**DCL      6467--REDEF
PL6.E3A0      #002=CPK$CHECK_OUTPUT File=CPK$CHECK.:E05TSI                       TUE 07/29/97 11:57 Page:525
CFPT_WRITEUC.V.DVBYTE.VFC#
      6474**DCL      6474--REDEF
CFPT_XXX.V.STEPCC#
      7447**DCL      7447--REDEF
CF_FDS
     10051**DCL     10543>>ASSIGN
CGETCMD.OUT$
      7468**DCL      7474--REDEF
CH$PART
      9902**DCL     10588>>IF
CHR_POS IN PROCEDURE SETUP_LIMIT_VECTOR
     11083**DCL     11089<<ASSIGN  11100>>ASSIGN  11102<<ASSIGN  11102>>ASSIGN  11124>>ASSIGN
CH_XFORMAT
      9783**DCL        23--PROC
CH_XFORMAT.ACCT#
      9786**DCL     10725>>IF      10736--ASSIGN  10777--ASSIGN  10927--ASSIGN
CH_XFORMAT.BUF$
      9790**DCL     10548>>ASSIGN  10929>>ASSIGN  10931>>ASSIGN  10932>>DOCASE  10993>>IF      10998>>CALL
     11003>>CALL    11031>>ASSIGN  11049>>ASSIGN
CH_XFORMAT.COMMENT#
      9792**DCL     10778>>IF      10782--ASSIGN  11055>>IF      11058--ASSIGN  11190>>IF      11193--ASSIGN
     11261>>IF      11264--ASSIGN
CH_XFORMAT.JOBNAME#
      9787**DCL     10717>>IF      10722--ASSIGN  10756--ASSIGN  10769--ASSIGN  10776--ASSIGN  10926--ASSIGN
CH_XFORMAT.MSG#
      9784**DCL     10550>>DOCASE  10553>>IF      10583>>IF      10805>>IF      11138>>DOCASE
CH_XFORMAT.NUM#
      9789**DCL     10674>>ASSIGN  10706>>IF      10711--ASSIGN  10775--ASSIGN
CH_XFORMAT.STAT$
      9791**DCL     11252>>ASSIGN
CH_XFORMAT.SYSID#
      9785**DCL     10699>>IF      10704--ASSIGN  10748>>IF      10752--ASSIGN  10761>>IF      10765--ASSIGN
     10774--ASSIGN  10820--ASSIGN  10925--ASSIGN
COMPLETED_FMT1
     10202**DCL     10768--ASSIGN
COMPLETED_FMT2
PL6.E3A0      #002=CPK$CHECK_OUTPUT File=CPK$CHECK.:E05TSI                       TUE 07/29/97 11:57 Page:526
     10203**DCL     10764--ASSIGN
CONVERT_TIME
     10857**PROC    10579--CALL    11151--CALL    11153--CALL
CPK$FDS_OUTPUT
     10029**DCL-ENT 10544--ASSIGN
CSECS IN PROCEDURE CONVERT_TIME
     10861**DCL     10857--PROC    10879>>ASSIGN
CVLP_TRMCTL.BREAKCOUNT
      7059**DCL      7060--REDEF
CVLP_WINDOW.FWINDOW#
      7155**DCL      7155--REDEF    7156--REDEF
DEVTYPE
     10464**DCL     10916<<ASSIGN  10917>>CALLBLT
DEV_TYPES IN PROCEDURE GET_OUTPUT_TYPE
     10907**DCL     10908--REDEF
DEV_TYPES_STR IN PROCEDURE GET_OUTPUT_TYPE
     10908**DCL     10917>>CALLBLT
DFLT_OUTPUT_HDR
     10159**DCL     10669--ASSIGN
DFLT_OUTPUT_HDR_FMT
     10158**DCL     10668--ASSIGN
D_CHAR
     10323**DCL     10576--ASSIGN
EXTRA_LIMITS_FMT
     10237**DCL     11090--ASSIGN  11100>>ASSIGN
EXTRA_SZ IN PROCEDURE SETUP_LIMIT_VECTOR
     11084**DCL     11090<<ASSIGN  11100>>ASSIGN  11102>>ASSIGN
F$DCB.ACTPOS
      9996**DCL      9996--REDEF
F$DCB.ARS#
      9970**DCL      9970--REDEF
F$DCB.ATTR
      9989**DCL      9990--REDEF
F$DCB.BORROW
     10004**DCL     10004--REDEF   10004--REDEF   10004--REDEF
F$DCB.DCBNAME.L
PL6.E3A0      #002=CPK$CHECK_OUTPUT File=CPK$CHECK.:E05TSI                       TUE 07/29/97 11:57 Page:527
     10018**DCL     10018--IMP-SIZ
F$DCB.EOMCHAR#
      9974**DCL      9974--REDEF
F$DCB.FLDID
      9999**DCL      9999--REDEF
F$DCB.FORM$
      9993**DCL      9993--REDEF
F$DCB.FSECT
     10009**DCL     10009--REDEF
F$DCB.FSN#
      9986**DCL      9986--REDEF    9986--REDEF    9987--REDEF
F$DCB.HEADER$
      9992**DCL      9992--REDEF
F$DCB.IXTNSIZE#
      9990**DCL      9990--REDEF
F$DCB.LASTSTA$
      9979**DCL      9979--REDEF
F$DCB.LVL
     10005**DCL     10005--REDEF
F$DCB.NAME#.C
      9980**DCL      9980--REDEF
F$DCB.NOEOF
     10002**DCL     10002--REDEF
F$DCB.NRECS#
      9991**DCL      9991--REDEF
F$DCB.NRECX
     10010**DCL     10010--REDEF
F$DCB.OHDR
     10002**DCL     10002--REDEF
F$DCB.ORG#
      9985**DCL      9985--REDEF
F$DCB.PRECNO
     10008**DCL     10008--REDEF
F$DCB.RCSZ
     10014**DCL     10014--REDEF
F$DCB.RES#
PL6.E3A0      #002=CPK$CHECK_OUTPUT File=CPK$CHECK.:E05TSI                       TUE 07/29/97 11:57 Page:528
      9981**DCL      9981--REDEF
F$DCB.SETX
      9993**DCL      9993--REDEF
F$DCB.TAB$
      9993**DCL      9993--REDEF
F$DCB.TDA
     10007**DCL     10008--REDEF
F$DCB.WIDTH#
      9977**DCL     10837>>ASSIGN
F$DCB.WSN#
      9981**DCL      9981--REDEF
FIN_ABNORMAL
     10274**DCL     10255--DCLINIT
FIN_ABNORMAL_
     10255**DCL     11024>>ASSIGN
FIN_ABNORMAL_UNKNOWN
     10276**DCL     10257--DCLINIT
FIN_ABNORMAL_UNKNOWN_
     10257**DCL     11019>>ASSIGN
FIN_COMPLETED
     10275**DCL     10256--DCLINIT
FIN_COMPLETED_
     10256**DCL     11014>>ASSIGN
FIN_RECOVER
     10273**DCL     10254--DCLINIT
FIN_RECOVER_
     10254**DCL     10990>>ASSIGN
FMT1
     10228**DCL     10773--ASSIGN
FMTVEC
     10232**DCL     10229--DCLINIT
FMTVEC1
     10233**DCL     10230--DCLINIT
FMTVEC1_
     10230**DCL     11042>>ASSIGN
FMTVEC2
PL6.E3A0      #002=CPK$CHECK_OUTPUT File=CPK$CHECK.:E05TSI                       TUE 07/29/97 11:57 Page:529
     10234**DCL     10231--DCLINIT
FMTVEC2_
     10231**DCL     11051>>ASSIGN
FMTVEC_
     10229**DCL     11036>>ASSIGN
FMT_BUF
     10470**DCL     10698<<ASSIGN  10702<<CALLBLT 10709<<CALLBLT 10720<<CALLBLT 10728>>IF      10731<<CALLBLT
     10734<<CALLBLT 10739>>IF      10741<<CALLBLT 10744--ASSIGN  11210<<ASSIGN  11216<<CALLBLT 11223<<CALLBLT
     11229<<CALLBLT 11232<<CALLBLT 11239<<CALLBLT 11250<<CALLBLT 11257<<CALLBLT 11266<<CALLBLT 11270--ASSIGN
FMT_VEC
     10449**DCL     10541<<ASSIGN  10545--ASSIGN  10557<<ASSIGN  10562<<ASSIGN  10564<<ASSIGN  10565<<ASSIGN
     10567<<ASSIGN  10568<<ASSIGN  10570<<ASSIGN  10571<<ASSIGN  10573<<ASSIGN  10574<<ASSIGN  10576<<ASSIGN
     10577<<ASSIGN  10580<<ASSIGN  10581<<ASSIGN  10582<<ASSIGN  10592<<ASSIGN  10594<<ASSIGN  10595<<ASSIGN
     10607<<ASSIGN  10609<<ASSIGN  10610<<ASSIGN  10622<<ASSIGN  10623<<ASSIGN  10624<<ASSIGN  10625<<ASSIGN
     10626<<ASSIGN  10629<<ASSIGN  10631<<ASSIGN  10632<<ASSIGN  10633<<ASSIGN  10634<<ASSIGN  10637<<ASSIGN
     10639<<ASSIGN  10640<<ASSIGN  10641<<ASSIGN  10642<<ASSIGN  10659<<ASSIGN  10664<<ASSIGN  10669<<ASSIGN
     10675<<ASSIGN  10676<<ASSIGN  10704<<ASSIGN  10711<<ASSIGN  10722<<ASSIGN  10736<<ASSIGN  10752<<ASSIGN
     10756<<ASSIGN  10765<<ASSIGN  10769<<ASSIGN  10774<<ASSIGN  10775<<ASSIGN  10776<<ASSIGN  10777<<ASSIGN
     10782<<ASSIGN  10801<<ASSIGN  10802<<ASSIGN  10803<<ASSIGN  10804<<ASSIGN  10810<<ASSIGN  10820<<ASSIGN
     10918<<ASSIGN  10925<<ASSIGN  10926<<ASSIGN  10927<<ASSIGN  10935<<ASSIGN  10938<<ASSIGN  10941<<ASSIGN
     10944<<ASSIGN  10947<<ASSIGN  10950<<ASSIGN  10954<<ASSIGN  10958<<ASSIGN  10962<<ASSIGN  10966<<ASSIGN
     10970<<ASSIGN  10974<<ASSIGN  10978<<ASSIGN  10982<<ASSIGN  10986<<ASSIGN  10990<<ASSIGN  10994<<ASSIGN
     11000<<ASSIGN  11001>>IF      11014<<ASSIGN  11019<<ASSIGN  11024<<ASSIGN  11031<<ASSIGN  11040<<ASSIGN
     11048<<ASSIGN  11049<<ASSIGN  11058<<ASSIGN  11096<<ASSIGN  11134<<ASSIGN  11135<<ASSIGN  11136<<ASSIGN
     11152<<ASSIGN  11154<<ASSIGN  11160<<ASSIGN  11161<<ASSIGN  11165<<ASSIGN  11170<<ASSIGN  11184<<ASSIGN
     11185<<ASSIGN  11193<<ASSIGN  11204<<ASSIGN  11205<<ASSIGN  11206<<ASSIGN  11207<<ASSIGN  11222<<ASSIGN
     11228<<ASSIGN  11242<<ASSIGN  11243<<ASSIGN  11246<<ASSIGN  11248<<ASSIGN  11256<<ASSIGN  11264<<ASSIGN
FPT$WRITE.BUF_.BOUND
      9949**DCL     10836>>ASSIGN
FPT$WRITE.STATION_
      9951**DCL      9951--REDEF
FPT$WRITE.V.DVBYTE.VFC#
      9958**DCL      9958--REDEF
FPT_DISPLAY
     10503**DCL     10793<<ASSIGN  10795<>CALL
FPT_DISPLAY.RESULTS_
PL6.E3A0      #002=CPK$CHECK_OUTPUT File=CPK$CHECK.:E05TSI                       TUE 07/29/97 11:57 Page:530
     10503**DCL     10794<<ASSIGN
FPT_STATE
     10535**DCL     11149<>CALL
FPT_STATE.BUF_
     10535**DCL     11146<<ASSIGN
FPT_STATE.V
     10535**DCL     11145--ASSIGN
FPT_STATE.V.SYSID#
     10536**DCL     11147<<ASSIGN
FPT_STATE.V_
     10535**DCL     11145<<ASSIGN
FPT_TIME
     10516**DCL     10796<<ASSIGN  10799<>CALL
FPT_TIME.TSTAMP_
     10519**DCL     10798<<ASSIGN
FPT_TIME.V
     10520**DCL     10797--ASSIGN
FPT_TIME.V_
     10516**DCL     10797<<ASSIGN
F_CHAR
     10325**DCL     10573--ASSIGN
F_FDS
     10350**DCL     10543<<ASSIGN  10832<>CALL
F_FDS.BUF_
     10367**DCL     10546<<ASSIGN
F_FDS.FMT_
     10354**DCL     10556<<ASSIGN  10561<<ASSIGN  10604<<ASSIGN  10605<<ASSIGN  10617<<ASSIGN  10618<<ASSIGN
     10658<<ASSIGN  10663<<ASSIGN  10668<<ASSIGN  10673<<ASSIGN  10680<<ASSIGN  10684<<ASSIGN  10688<<ASSIGN
     10692<<ASSIGN  10744<<ASSIGN  10751<<ASSIGN  10755<<ASSIGN  10764<<ASSIGN  10768<<ASSIGN  10773<<ASSIGN
     10800<<ASSIGN  10815<<ASSIGN  10819<<ASSIGN  10824<<ASSIGN  10828<<ASSIGN  11036<<ASSIGN  11042<<ASSIGN
     11051<<ASSIGN  11126<<ASSIGN  11141<<ASSIGN  11158<<ASSIGN  11169<<ASSIGN  11174<<ASSIGN  11177<<ASSIGN
     11180<<ASSIGN  11183<<ASSIGN  11270<<ASSIGN
F_FDS.NVECS#
     10378**DCL     10596<<ASSIGN  10643<<ASSIGN  10660<<ASSIGN  10665<<ASSIGN  10670<<ASSIGN  10677<<ASSIGN
     10681<<ASSIGN  10685<<ASSIGN  10689<<ASSIGN  10693<<ASSIGN  10743<<ASSIGN  10757<<ASSIGN  10770<<ASSIGN
     10785<<ASSIGN  10807<<ASSIGN  10811<<ASSIGN  10816<<ASSIGN  10821<<ASSIGN  10825<<ASSIGN  11061<<ASSIGN
PL6.E3A0      #002=CPK$CHECK_OUTPUT File=CPK$CHECK.:E05TSI                       TUE 07/29/97 11:57 Page:531
     11196<<ASSIGN  11269<<ASSIGN
F_FDS.OUTPUT#
     10404**DCL     10544<<ASSIGN
F_FDS.VECTR$
     10380**DCL     10545<<ASSIGN
F_FDS.WRITEFPT$
     10436**DCL     10836>>ASSIGN
GETBIT IN PROCEDURE OUTPUT_FINAL_STATUS
     11066**PROC    10998--CALL    11095--CALL
GET_OUTPUT_TYPE
     10899**PROC    10620--CALL    11214--CALL    11237--CALL
HELD_LINE_FMT
     10206**DCL     10824--ASSIGN
HOUR IN PROCEDURE CONVERT_TIME
     10873**DCL     10881<<ASSIGN  10884>>CALLBLT 10892>>IF      10893>>IF
H_CHAR
     10324**DCL     10629--ASSIGN
I
     10451**DCL     10587<<DOINDEX 10588>>IF      10589>>CALLBLT 10589>>CALLBLT 10590>>CALLBLT 10611<<ASSIGN
     10619<<ASSIGN  10620<>CALL    10622>>ASSIGN  10623>>ASSIGN  10624>>ASSIGN  10625>>ASSIGN  10626>>ASSIGN
     10629>>ASSIGN  10631>>ASSIGN  10632>>ASSIGN  10633>>ASSIGN  10634>>ASSIGN  10637>>ASSIGN  10639>>ASSIGN
     10640>>ASSIGN  10641>>ASSIGN  10642>>ASSIGN  10643>>ASSIGN  10674<<ASSIGN  10675--ASSIGN  10696<<ASSIGN
     10704>>ASSIGN  10705<<ASSIGN  10705>>ASSIGN  10711>>ASSIGN  10712<<ASSIGN  10712>>ASSIGN  10722>>ASSIGN
     10723<<ASSIGN  10723>>ASSIGN  10736>>ASSIGN  10737<<ASSIGN  10737>>ASSIGN  10743>>ASSIGN  10747<<ASSIGN
     10753<<ASSIGN  10756>>ASSIGN  10757>>ASSIGN  10760<<ASSIGN  10766<<ASSIGN  10769>>ASSIGN  10770>>ASSIGN
     10781<<ASSIGN  10784<<ASSIGN  10785>>ASSIGN  11035<<ASSIGN  11041<<ASSIGN  11050<<ASSIGN  11058>>ASSIGN
     11059<<ASSIGN  11059>>ASSIGN  11061>>ASSIGN  11092<<ASSIGN  11096>>ASSIGN  11097>>IF      11108<<ASSIGN
     11108>>ASSIGN  11112>>IF      11125<<ASSIGN  11125>>ASSIGN  11137<<ASSIGN  11152>>ASSIGN  11154>>ASSIGN
     11155<<ASSIGN  11155>>ASSIGN  11160>>ASSIGN  11161>>ASSIGN  11162<<ASSIGN  11162>>ASSIGN  11164<<ASSIGN
     11164>>ASSIGN  11165>>ASSIGN  11170>>ASSIGN  11171<<ASSIGN  11171>>ASSIGN  11184>>ASSIGN  11185>>ASSIGN
     11186<<ASSIGN  11186>>ASSIGN  11193>>ASSIGN  11194<<ASSIGN  11194>>ASSIGN  11196>>ASSIGN  11208<<ASSIGN
     11215<<ASSIGN  11238<<ASSIGN  11242>>ASSIGN  11243>>ASSIGN  11246>>ASSIGN  11248>>ASSIGN  11249<<ASSIGN
     11249>>ASSIGN  11256>>ASSIGN  11259<<ASSIGN  11259>>ASSIGN  11264>>ASSIGN  11265<<ASSIGN  11265>>ASSIGN
     11269>>ASSIGN
II
     10452**DCL     10697<<ASSIGN  10702>>CALLBLT 10703<<ASSIGN  10703>>ASSIGN  10709>>CALLBLT 10710<<ASSIGN
PL6.E3A0      #002=CPK$CHECK_OUTPUT File=CPK$CHECK.:E05TSI                       TUE 07/29/97 11:57 Page:532
     10710>>ASSIGN  10715<<ASSIGN  10715>>ASSIGN  10720>>CALLBLT 10721<<ASSIGN  10721>>ASSIGN  10728>>IF
     10731>>CALLBLT 10732<<ASSIGN  10732>>ASSIGN  10734>>CALLBLT 10735<<ASSIGN  10735>>ASSIGN  10739>>IF
     10740<<ASSIGN  10740>>ASSIGN  10741>>CALLBLT 10742<<ASSIGN  10742>>ASSIGN  11163<<DOINDEX 11165>>ASSIGN
     11209<<ASSIGN  11216>>CALLBLT 11217<<ASSIGN  11217>>ASSIGN  11223>>CALLBLT 11224<<ASSIGN  11224>>ASSIGN
     11229>>CALLBLT 11230<<ASSIGN  11230>>ASSIGN  11232>>CALLBLT 11233<<ASSIGN  11233>>ASSIGN  11239>>CALLBLT
     11240<<ASSIGN  11240>>ASSIGN  11250>>CALLBLT 11251<<ASSIGN  11251>>ASSIGN  11257>>CALLBLT 11258<<ASSIGN
     11258>>ASSIGN  11266>>CALLBLT 11267<<ASSIGN  11267>>ASSIGN
INPUT_HDR
     10154**DCL     10659--ASSIGN
INPUT_HDR_FMT
     10153**DCL     10658--ASSIGN  10663--ASSIGN
INPUT_MESS_FMT
     10161**DCL     10556--ASSIGN
LC_OUT_TYPE_ARRY
     10214**DCL     11237<>CALL
LIMIT_BUF
     10471**DCL     11088<<ASSIGN  11100<<ASSIGN  11124<<ASSIGN  11126--ASSIGN
LIMIT_COMMENT_FMT
     10238**DCL     11124>>ASSIGN
LIMIT_FMT_BUF
     10236**DCL     11088>>ASSIGN  11089--ASSIGN
M$DISPLAY
       393**DCL-ENT 10795--CALL
M$STATE
       394**DCL-ENT 11149--CALL
M$TIME
       393**DCL-ENT 10799--CALL
MASK IN PROCEDURE GETBIT
     11068**DCL     11066--PROC    11072>>IF
MASK IN PROCEDURE SETUP_LIMIT_VECTOR
     11082**DCL     11080--PROC    11095<>CALL
MBS_CANCELED
     10259**DCL     10240--DCLINIT
MBS_CANCELED_
     10240**DCL     10938>>ASSIGN
MBS_DELETED
PL6.E3A0      #002=CPK$CHECK_OUTPUT File=CPK$CHECK.:E05TSI                       TUE 07/29/97 11:57 Page:533
     10258**DCL     10239--DCLINIT
MBS_DELETED_
     10239**DCL     10935>>ASSIGN
MBS_FILERR
     10261**DCL     10242--DCLINIT
MBS_FILERR_
     10242**DCL     10944>>ASSIGN
MBS_SHAFTED
     10260**DCL     10241--DCLINIT
MBS_SHAFTED_
     10241**DCL     10941>>ASSIGN
MIN IN PROCEDURE CONVERT_TIME
     10874**DCL     10880<<ASSIGN  10881>>ASSIGN  10885>>CALLBLT 10891>>IF
NCHARS
     10473**DCL     10836<<ASSIGN  10841<<ASSIGN  10846>>DOWHILE 10847>>IF      10849<<ASSIGN  10849>>ASSIGN
     10851<<ASSIGN
NFOLL
     10453**DCL     11159<<ASSIGN  11161--ASSIGN  11163>>DOINDEX
NLINES
      9794**DCL        23--PROC    10833--IF      10842<<ASSIGN  10845<<ASSIGN  10852<<ASSIGN  10852>>ASSIGN
NODEV_HDR
     10330**DCL     11228--ASSIGN
NODEV_HDR2
     10331**DCL     10610--ASSIGN
NOFRS IN PROCEDURE OUTPUT_FINAL_STATUS
     11024**LABEL   10998--CALLALT
NONE_IN_MESS_FMT
     10194**DCL     10680--ASSIGN
NONE_MESS_FMT
     10193**DCL     10692--ASSIGN
NONE_OUT_MESS_FMT
     10196**DCL     10688--ASSIGN
NONE_RUN_MESS_FMT
     10195**DCL     10684--ASSIGN
NOT_DONE IN PROCEDURE SETUP_LIMIT_VECTOR
     11085**DCL     11091<<ASSIGN  11094>>DOWHILE 11107<<ASSIGN  11111<<ASSIGN
PL6.E3A0      #002=CPK$CHECK_OUTPUT File=CPK$CHECK.:E05TSI                       TUE 07/29/97 11:57 Page:534
NO_SUCH_MESS_HDR
     10199**DCL     10828--ASSIGN
NO_TERM_OUT_HDR
     10198**DCL     10819--ASSIGN
NUM_AHEAD
     10465**DCL     10606<<ASSIGN  10607--ASSIGN  11221<<ASSIGN  11222--ASSIGN
NUM_LISTED_HDR_FMT
     10204**DCL     10673--ASSIGN
NUM_LISTED_MESS
     10205**DCL     10676--ASSIGN
OUTPUT_FINAL_STATUS
     10923**PROC    10789--CALL
OUTPUT_NOWAIT_MESS_FMT
     10165**DCL     10618--ASSIGN
OUTPUT_NOWAIT_MESS_FMT2
     10167**DCL     10617--ASSIGN
OUTPUT_SYSID_IN_AND_RUN
     11132**PROC    10652--CALL
OUTPUT_SYSID_OQ
     11202**PROC    10655--CALL
OUTPUT_WAIT_MESS_FMT
     10169**DCL     10605--ASSIGN
OUTPUT_WAIT_MESS_FMT2
     10171**DCL     10604--ASSIGN
OUT_BUF
     10450**DCL     10542<<ASSIGN  10546--ASSIGN
OUT_TYPE_ARRY
     10207**DCL     10620<>CALL
O_BELL
     10151**DCL     10152--REDEF
O_CHAR
     10326**DCL     10567--ASSIGN
PART_ARRY
     10328**DCL     10589>>CALLBLT
PART_BUF
     10463**DCL     10589<<CALLBLT 10590<<CALLBLT 10592--ASSIGN
PL6.E3A0      #002=CPK$CHECK_OUTPUT File=CPK$CHECK.:E05TSI                       TUE 07/29/97 11:57 Page:535
PRE_PASSED
     10262**DCL     10243--DCLINIT
PRE_PASSED_
     10243**DCL     10947>>ASSIGN
RECNO_
     10469**DCL     10931<<ASSIGN  11048>>ASSIGN
REJECTED_MSG IN PROCEDURE OUTPUT_FINAL_STATUS
     11048**LABEL   10951--GOTO    10955--GOTO    10959--GOTO    10963--GOTO    10967--GOTO    10971--GOTO
     10975--GOTO    10979--GOTO    10983--GOTO    10987--GOTO
REJ_BADID
     10268**DCL     10249--DCLINIT
REJ_BADID_
     10249**DCL     10970>>ASSIGN
REJ_IO
     10266**DCL     10247--DCLINIT
REJ_IO_
     10247**DCL     10962>>ASSIGN
REJ_JOB
     10263**DCL     10244--DCLINIT
REJ_JOBIMBED
     10267**DCL     10248--DCLINIT
REJ_JOBIMBED_
     10248**DCL     10966>>ASSIGN
REJ_JOB_
     10244**DCL     10950>>ASSIGN
REJ_NOBATCH
     10272**DCL     10253--DCLINIT
REJ_NOBATCH_
     10253**DCL     10986>>ASSIGN
REJ_NORES
     10269**DCL     10250--DCLINIT
REJ_NORES_
     10250**DCL     10974>>ASSIGN
REJ_PRESCAN
     10270**DCL     10251--DCLINIT
REJ_PRESCAN_
PL6.E3A0      #002=CPK$CHECK_OUTPUT File=CPK$CHECK.:E05TSI                       TUE 07/29/97 11:57 Page:536
     10251**DCL     10978>>ASSIGN
REJ_RES
     10264**DCL     10245--DCLINIT
REJ_RESIMBED
     10271**DCL     10252--DCLINIT
REJ_RESIMBED_
     10252**DCL     10982>>ASSIGN
REJ_RES_
     10245**DCL     10954>>ASSIGN
REJ_SYNTAX
     10265**DCL     10246--DCLINIT
REJ_SYNTAX_
     10246**DCL     10958>>ASSIGN
RETFLG IN PROCEDURE SETUP_LIMIT_VECTOR
     11086**DCL     11114<<ASSIGN  11116<<ASSIGN  11120>>IF
RS_ABRT
     10300**DCL     10281--DCLINIT
RS_CAN
     10306**DCL     10296--DCLINIT
RS_CAN_
     10296**DCL     10994>>ASSIGN
RS_DROP
     10304**DCL     10285--DCLINIT
RS_EKEY
     10301**DCL     10282--DCLINIT
RS_ERR
     10297**DCL     10278--DCLINIT
RS_LIMX
     10303**DCL     10284--DCLINIT 11001--IF
RS_OFF
     10302**DCL     10283--DCLINIT
RS_SSP
     10299**DCL     10280--DCLINIT
RS_XKEY
     10305**DCL     10286--DCLINIT
RS_XXX
PL6.E3A0      #002=CPK$CHECK_OUTPUT File=CPK$CHECK.:E05TSI                       TUE 07/29/97 11:57 Page:537
     10298**DCL     10279--DCLINIT
RS__
     10278**DCL     11000>>ASSIGN
RUN_HDR
     10156**DCL     10664--ASSIGN
RUN_MESS_FMT
     10163**DCL     10561--ASSIGN
RUN_TEXT_HDR
     10317**DCL     10562--ASSIGN
SEC IN PROCEDURE CONVERT_TIME
     10875**DCL     10879<<ASSIGN  10880>>ASSIGN  10886>>CALLBLT
SEG$2.LLDCB#
      9863**DCL     10837--ASSIGN
SEG2$
      8202**DCL      9843--IMP-PTR 10837>>ASSIGN
SETUP_LIMIT_VECTOR IN PROCEDURE OUTPUT_FINAL_STATUS
     11080**PROC    11003--CALL
SH_OUT_TYPE_ARRY
     10221**DCL     11214<>CALL
SIMPLE_MSG IN PROCEDURE OUTPUT_FINAL_STATUS
     11031**LABEL   11009--GOTO
START
     10472**DCL     10997<<ASSIGN  10998<>CALL    11095<>CALL    11104<<ASSIGN  11105>>IF
START IN PROCEDURE GETBIT
     11069**DCL     11066--PROC    11071>>DOINDEX
STATE_BUF
     10456**DCL     11142<<ASSIGN  11146--ASSIGN
STATE_BUF.ESC_Q
     10458**DCL     11143<<ASSIGN
STATE_BUF.TIME_REMAIN
     10460**DCL     11144<<ASSIGN  11151<>CALL
STATE_BUF.TIME_USED
     10459**DCL     11153<>CALL
STATE_ERR IN PROCEDURE OUTPUT_SYSID_IN_AND_RUN
     11151**LABEL   11149--CALLALT
STEPCC
PL6.E3A0      #002=CPK$CHECK_OUTPUT File=CPK$CHECK.:E05TSI                       TUE 07/29/97 11:57 Page:538
     10467**DCL     10929<<ASSIGN  11015>>IF      11016--ASSIGN  11025>>IF      11026--ASSIGN  11252<<ASSIGN
     11253>>IF      11256--ASSIGN
STEPCC_
     10468**DCL     10930<<ASSIGN  11016<<ASSIGN  11026<<ASSIGN  11032>>IF      11040>>ASSIGN
SYSID_DEFERRED_MESS_FMT
     10185**DCL     11169--ASSIGN
SYSID_FOLL_MESS_FMT
     10175**DCL     11158--ASSIGN
SYSID_OTHER_MESS_FMT
     10179**DCL     11177--ASSIGN
SYSID_RUN_MESS_FMT
     10173**DCL     11141--ASSIGN
SYSID_WAIT_MESS_FMT
     10183**DCL     11183--ASSIGN
SYSID_WPART_MESS_FMT
     10177**DCL     11174--ASSIGN
SYSID_WPS_MESS_FMT
     10181**DCL     11180--ASSIGN
TEMP$
     10024**DCL     10586<<ASSIGN  10588>>IF
TIME_.HR IN PROCEDURE CONVERT_TIME
     10864**DCL     10884<<CALLBLT
TIME_.MIN IN PROCEDURE CONVERT_TIME
     10866**DCL     10885<<CALLBLT
TIME_.SEC IN PROCEDURE CONVERT_TIME
     10868**DCL     10886<<CALLBLT
TIME_BUF
     10461**DCL     10579<>CALL    10580--ASSIGN  11151<>CALL    11152--ASSIGN
TIME_BUF IN PROCEDURE CONVERT_TIME
     10862**DCL     10857--PROC    10863--REDEF   10883<<ASSIGN  10891<<ASSIGN  10892<<ASSIGN  10893<<ASSIGN
TIME_BUF1
     10462**DCL     11153<>CALL    11154--ASSIGN
TIME_DI_MESS_HDR
     10197**DCL     10800--ASSIGN
TYPE_ARRY IN PROCEDURE GET_OUTPUT_TYPE
     10904**DCL     10899--PROC    10918--ASSIGN
PL6.E3A0      #002=CPK$CHECK_OUTPUT File=CPK$CHECK.:E05TSI                       TUE 07/29/97 11:57 Page:539
TYPE_NUM IN PROCEDURE GET_OUTPUT_TYPE
     10912**DCL     10917<<CALLBLT 10918>>ASSIGN
UTS
     10455**DCL     10578<<ASSIGN  10579<>CALL    10798--ASSIGN  10801--ASSIGN
VEC# IN PROCEDURE GET_OUTPUT_TYPE
     10903**DCL     10899--PROC    10918>>ASSIGN
VLA$INPUT.ACCT
      9817**DCL     10582--ASSIGN  11136--ASSIGN
VLA$INPUT.AHEAD
      9817**DCL     10557--ASSIGN  11184--ASSIGN
VLA$INPUT.FLG.ACC
      9814**DCL     10569>>IF
VLA$INPUT.FLG.O1
      9813**DCL     10566>>IF
VLA$INPUT.FLG.O3
      9814**DCL     10572>>IF
VLA$INPUT.FLG.RA
      9816**DCL     10575>>IF
VLA$INPUT.IPRIO
      9812**DCL     10564--ASSIGN
VLA$INPUT.JDID.SYSID
      9822**DCL     11160--ASSIGN  11165--ASSIGN
VLA$INPUT.JNAME
      9819**DCL     10595--ASSIGN  11135--ASSIGN
VLA$INPUT.NFOLL
      9816**DCL     11159>>ASSIGN
VLA$INPUT.PART
      9811**DCL     10586--ASSIGN
VLA$INPUT.PNUM
      9811**DCL     10594--ASSIGN
VLA$INPUT.PRIO
      9812**DCL     11185--ASSIGN
VLA$INPUT.RATIM
      9819**DCL     11170--ASSIGN
VLA$INPUT.RRT
      9820**DCL     10581--ASSIGN
PL6.E3A0      #002=CPK$CHECK_OUTPUT File=CPK$CHECK.:E05TSI                       TUE 07/29/97 11:57 Page:540
VLA$INPUT.SYSID
      9817**DCL     10565--ASSIGN  11134--ASSIGN  11147>>ASSIGN
VLA$INPUT.TIM
      9820**DCL     10578>>ASSIGN  11144>>ASSIGN
VLA$OUTPUT.ACCT
      9839**DCL     10624--ASSIGN  11207--ASSIGN
VLA$OUTPUT.AHEAD
      9839**DCL     10606>>ASSIGN  11221>>ASSIGN
VLA$OUTPUT.COPIES
      9836**DCL     10626--ASSIGN
VLA$OUTPUT.DEVNAME
      9838**DCL     10599>>IF      10635>>IF      10641--ASSIGN  11211>>IF      11243--ASSIGN  11244>>IF
VLA$OUTPUT.DEVTYP
      9836**DCL     10640--ASSIGN  10916>>ASSIGN  11242--ASSIGN
VLA$OUTPUT.FLG.DEVAVAIL
      9837**DCL     10608>>IF      11218>>IF
VLA$OUTPUT.FLG.SAP
      9837**DCL     10627>>IF
VLA$OUTPUT.FORM
      9838**DCL     10634--ASSIGN
VLA$OUTPUT.GRANS
      9838**DCL     10633--ASSIGN
VLA$OUTPUT.JNAME
      9839**DCL     10642--ASSIGN  11206--ASSIGN
VLA$OUTPUT.NUM
      9838**DCL     10602>>IF      10615>>IF      10623--ASSIGN  11205--ASSIGN
VLA$OUTPUT.PRIO
      9836**DCL     10625--ASSIGN
VLA$OUTPUT.SAPCOPIES
      9836**DCL     10632--ASSIGN
VLA$OUTPUT.SYSID
      9838**DCL     10602>>IF      10615>>IF      10622--ASSIGN  11204--ASSIGN
VLA$OUTPUT.TNAME
      9836**DCL     10639--ASSIGN  11248--ASSIGN
VLA$OUTPUT.WOD
      9839**DCL     10637--ASSIGN  11246--ASSIGN
PL6.E3A0      #002=CPK$CHECK_OUTPUT File=CPK$CHECK.:E05TSI                       TUE 07/29/97 11:57 Page:541
VLR_DISPLAY
     10489**DCL     10794--ASSIGN
VLR_DISPLAY.ETMF
     10489**DCL     10803--ASSIGN
VLR_DISPLAY.RESP
     10489**DCL     10804--ASSIGN
VLR_DISPLAY.USERS
     10489**DCL     10802--ASSIGN
WIDTH
     10474**DCL     10837<<ASSIGN  10838>>IF      10847>>IF      10849>>ASSIGN
X$FORMAT
     10028**DCL-ENT 10832--CALL
XL_DO
     10312**DCL     10292--DCLINIT
XL_LO
     10313**DCL     10293--DCLINIT
XL_PDISK
     10311**DCL     10291--DCLINIT
XL_PLO
     10314**DCL     10294--DCLINIT
XL_PO
     10315**DCL     10295--DCLINIT
XL_STACK
     10308**DCL     10288--DCLINIT
XL_TAPE
     10309**DCL     10289--DCLINIT
XL_TDISK
     10310**DCL     10290--DCLINIT
XL_TIME
     10307**DCL     10287--DCLINIT
XL__
     10287**DCL     11096>>ASSIGN
XSJ$JOBINFO.FRS#
      9928**DCL     10993>>IF      10998<>CALL
XSJ$JOBINFO.OFF_TIME#
      9929**DCL     11031--ASSIGN  11049--ASSIGN
PL6.E3A0      #002=CPK$CHECK_OUTPUT File=CPK$CHECK.:E05TSI                       TUE 07/29/97 11:57 Page:542
XSJ$JOBINFO.RECNO#
      9929**DCL     10931--ASSIGN
XSJ$JOBINFO.STATUS#
      9929**DCL     10932>>DOCASE
XSJ$JOBINFO.STEPCC#
      9928**DCL     10929>>ASSIGN  11252>>ASSIGN
XSJ$JOBINFO.XLIMFLG#
      9928**DCL     11003<>CALL

