VERSION E05

PL6.E3A0      #001=CPM$MINI File=CPM$MINI.:E05TSI                                TUE 07/29/97 11:58 Page:1
        1        1        /*M*    CPM$MINI    Module which interfaces IBEX and DUD$MINI   */
        2        2        /*T***********************************************************/
        3        3        /*T*                                                         */
        4        4        /*T* Copyright (c) Bull HN Information Systems Inc., 1997    */
        5        5        /*T*                                                         */
        6        6        /*T***********************************************************/
        7        7        CPM$MINI: PROC ALTRET;
        8        8        /***** Include files *****/
        9        9          %INCLUDE B$JIT;
       10      299          %INCLUDE CP_6;
       11      380          %INCLUDE CP_6_SUBS;
       12      920          %INCLUDE CP_MACROS_C;
       13     1672          %INCLUDE XU_MACRO_C;
       14     4778          %INCLUDE CP_DATA_R;
       15     7341        /***** External routines *****/
       16     7342    1     DCL DUD$MINI ENTRY(1);
       17     7343        /***** Fpts *****/
       18     7344          %FPT_MONINFO (STCLASS=AUTO);
       19     7359        %XUG_GETCMD (NAME=GET$CMD, STCLASS=BASED);
       20     7697          %VLR_SITEINFO (STCLASS=AUTO);
       21     7716        /***** Based structures *****/
       22     7717          %SEG$2;
       23     7777        %EJECT;
PL6.E3A0      #001=CPM$MINI File=CPM$MINI.:E05TSI                                TUE 07/29/97 11:58 Page:2
       24     7778        /*
       25     7779             ***** MINI may only be used ONLINE ...
       26     7780        */
       27     7781    1     IF B$JIT.MODE ~= %M_INT#
       28     7782    1        THEN
       29     7783    1           ALTRETURN;
       30     7784        /*
       31     7785             ***** Find out what site this is...
       32     7786        */
       33     7787    1     FPT_MONINFO = CFPT_MONINFO;
       34     7788    1     FPT_MONINFO.SITEINFO_ = VECTOR(VLR_SITEINFO);
       35     7789    1     CALL M$MONINFO (FPT_MONINFO)
       36     7790    2       WHENALTRETURN DO;
       37     7791    2         RETURN;
       38     7792    2       END;
       39     7793        /*
       40     7794             ****** We only allow MINI access to HOST and ACTC people here.
       41     7795        */
       42     7796    1     IF SUBSTR(VLR_SITEINFO.SITE_NAME#.C,0,5) ~= 'LADC ' OR
       43     7797    1        ( SUBSTR(B$JIT.ACCN, 3, 4) ~= 'HOST' AND
       44     7798    1          SUBSTR(B$JIT.ACCN, 3, 4) ~= 'ACTC' )
       45     7799    1       THEN
       46     7800    1         ALTRETURN;
       47     7801        /*
       48     7802             ***** If we got this far then it's ok to call DUD$MINI ...
       49     7803        */
       50     7804    1     CALL DUD$MINI;
       51     7805        /*
       52     7806             ***** Fix the prompt ...
       53     7807        */
       54     7808    1     SEG$2.GETCMD$->GET$CMD.ALWAYS_SET_PROMPT# = %YES#;
       55     7809    1     RETURN;
       56     7810    1   END CPM$MINI;

PL6.E3A0      #001=CPM$MINI File=CPM$MINI.:E05TSI                                TUE 07/29/97 11:58 Page:3
--  Include file information  --

   CP_DATA_R.:E05TOU  cannot be made into a system file and is referenced.
   XU_MACRO_C.:E05TOU  is referenced.
   CP_MACROS_C.:E05TOU  is referenced.
   CP_6_SUBS.:E05TOU  is referenced.
   CP_6.:E05TOU  cannot be made into a system file and is referenced.
   B$JIT.:E05TOU  cannot be made into a system file and is referenced.
   B$JIT_C.:E05TOU  was found in the system file and is referenced.
   CP_6_C.:E05TOU  was found in the system file and is referenced.
      No diagnostics issued in procedure CPM$MINI.

   Procedure CPM$MINI requires 44 words for executable code.
   Procedure CPM$MINI requires 80 words of local(AUTO) storage.

    No errors detected in file CPM$MINI.:E05TSI    .

PL6.E3A0      #001=CPM$MINI File=CPM$MINI.:E05TSI                                TUE 07/29/97 11:58 Page:4

 Object Unit name= CPM$MINI                                   File name= CPM$MINI.:E05TOU
 UTS= JUL 29 '97 11:58:27.04 TUE                              Compiler= PL-6/E31         Sev=      00
 SharedLib= :SHARED_SYSTEM                                    Alt SharedLib=


    ****  Control sections  ****

 Sect   Type Bound  Init  Size OctSiz  Section name(segment info)
    0   DCB   even  none     0      0  M$UC
    1  RoData even  UTS      4      4  CPM$MINI
    2   Proc  even  none    44     54  CPM$MINI
    3  RoData even  none     1      1  CPM$MINI

    ****  Entry defs  ****

                              Check   Calling
                             calling  sequence
  Sect OctLoc Primary Altret sequence   type   Parms  Name
     2      0   yes    yes     yes      Std        0  CPM$MINI

  ****  Entry refs  ****

         Check        Calling
        calling       sequence
Altret sequence SRef   type   Args  Name
         yes           Std       1 DUD$MINI
                       nStd      0 X66_AUTO_0
                       nStd      0 X66_AALT
                       nStd      0 X66_ARET
                       Std       0 B_CONSPOOL_D
PL6.E3A0      #001=CPM$MINI File=CPM$MINI.:E05TSI                                TUE 07/29/97 11:58 Page:5

  ****  Data refs  ****

  Flags:  r = read only, s = secondary
Flgs Name                             Flgs Name                             Flgs Name
     M$UC                                  CFPT_MONINFO                     r    SEG2$
r    B$JIT$                                B_VECTNIL
PL6.E3A0      #001=CPM$MINI File=CPM$MINI.:E05TSI                                TUE 07/29/97 11:58 Page:6


        1        1        /*M*    CPM$MINI    Module which interfaces IBEX and DUD$MINI   */
        2        2        /*T***********************************************************/
        3        3        /*T*                                                         */
        4        4        /*T* Copyright (c) Bull HN Information Systems Inc., 1997    */
        5        5        /*T*                                                         */
        6        6        /*T***********************************************************/
        7        7        CPM$MINI: PROC ALTRET;

      7  2 000000   000000 700200 xent  CPM$MINI     TSX0  ! X66_AUTO_0
         2 000001   000120 000000                    ZERO    80,0

        8        8        /***** Include files *****/
        9        9          %INCLUDE B$JIT;
       10      299          %INCLUDE CP_6;
       11      380          %INCLUDE CP_6_SUBS;
       12      920          %INCLUDE CP_MACROS_C;
       13     1672          %INCLUDE XU_MACRO_C;
       14     4778          %INCLUDE CP_DATA_R;
       15     7341        /***** External routines *****/
       16     7342    1     DCL DUD$MINI ENTRY(1);
       17     7343        /***** Fpts *****/
       18     7344          %FPT_MONINFO (STCLASS=AUTO);
       19     7359        %XUG_GETCMD (NAME=GET$CMD, STCLASS=BASED);
       20     7697          %VLR_SITEINFO (STCLASS=AUTO);
       21     7716        /***** Based structures *****/
       22     7717          %SEG$2;
       23     7777        %EJECT;
PL6.E3A0      #001=CPM$MINI File=CPM$MINI.:E05TSI                                TUE 07/29/97 11:58 Page:7
       24     7778        /*
       25     7779             ***** MINI may only be used ONLINE ...
       26     7780        */
       27     7781    1     IF B$JIT.MODE ~= %M_INT#

   7781  2 000002   000000 470400 xsym               LDP0    B$JIT$
         2 000003   000000 236100                    LDQ     0,,PR0
         2 000004   740000 376003                    ANQ     -16384,DU
         2 000005   140000 116003                    CMPQ    49152,DU
         2 000006   000010 600000 2                  TZE     s:7787

       28     7782    1        THEN
       29     7783    1           ALTRETURN;

   7783  2 000007   000000 702200 xent               TSX2  ! X66_AALT

       30     7784        /*
       31     7785             ***** Find out what site this is...
       32     7786        */
       33     7787    1     FPT_MONINFO = CFPT_MONINFO;

   7787  2 000010   000100 100400                    MLR     fill='000'O
         2 000011   000000 000060 xsym               ADSC9   CFPT_MONINFO             cn=0,n=48
         2 000012   200004 000060                    ADSC9   FPT_MONINFO,,AUTO        cn=0,n=48

       34     7788    1     FPT_MONINFO.SITEINFO_ = VECTOR(VLR_SITEINFO);

   7788  2 000013   000000 235000 3                  LDA     0
         2 000014   200116 452500                    STP2    VLR_SITEINFO+62,,AUTO
         2 000015   200116 236100                    LDQ     VLR_SITEINFO+62,,AUTO
         2 000016   000020 036003                    ADLQ    16,DU
         2 000017   200004 757100                    STAQ    FPT_MONINFO,,AUTO

       35     7789    1     CALL M$MONINFO (FPT_MONINFO)

   7789  2 000020   200004 630500                    EPPR0   FPT_MONINFO,,AUTO
         2 000021   420023 713400                    CLIMB   alt,+8211
PL6.E3A0      #001=CPM$MINI File=CPM$MINI.:E05TSI                                TUE 07/29/97 11:58 Page:8
         2 000022   402400 401760                    pmme    nvectors=6
         2 000023   000025 702000 2                  TSX2    s:7791
         2 000024   000026 710000 2                  TRA     s:7796

       36     7790    2       WHENALTRETURN DO;

       37     7791    2         RETURN;

   7791  2 000025   000000 702200 xent               TSX2  ! X66_ARET

       38     7792    2       END;
       39     7793        /*
       40     7794             ****** We only allow MINI access to HOST and ACTC people here.
       41     7795        */
       42     7796    1     IF SUBSTR(VLR_SITEINFO.SITE_NAME#.C,0,5) ~= 'LADC ' OR

   7796  2 000026   040000 106500                    CMPC    fill='040'O
         2 000027   200021 200005                    ADSC9   VLR_SITEINFO+1,,AUTO     cn=1,n=5
         2 000030   000000 000005 1                  ADSC9   0                        cn=0,n=5
         2 000031   000043 601000 2                  TNZ     s:7800
         2 000032   000000 470400 xsym               LDP0    B$JIT$
         2 000033   040000 106500                    CMPC    fill='040'O
         2 000034   000001 600004                    ADSC9   1,,PR0                   cn=3,n=4
         2 000035   000002 000004 1                  ADSC9   2                        cn=0,n=4
         2 000036   000044 600000 2                  TZE     s:7804
         2 000037   040000 106500                    CMPC    fill='040'O
         2 000040   000001 600004                    ADSC9   1,,PR0                   cn=3,n=4
         2 000041   000003 000004 1                  ADSC9   3                        cn=0,n=4
         2 000042   000044 600000 2                  TZE     s:7804

       43     7797    1        ( SUBSTR(B$JIT.ACCN, 3, 4) ~= 'HOST' AND
       44     7798    1          SUBSTR(B$JIT.ACCN, 3, 4) ~= 'ACTC' )
       45     7799    1       THEN
       46     7800    1         ALTRETURN;

   7800  2 000043   000000 702200 xent               TSX2  ! X66_AALT

PL6.E3A0      #001=CPM$MINI File=CPM$MINI.:E05TSI                                TUE 07/29/97 11:58 Page:9
       47     7801        /*
       48     7802             ***** If we got this far then it's ok to call DUD$MINI ...
       49     7803        */
       50     7804    1     CALL DUD$MINI;

   7804  2 000044   000002 631400 xsym               EPPR1   B_VECTNIL+2
         2 000045   000000 701000 xent               TSX1    DUD$MINI
         2 000046   000000 011000                    NOP     0

       51     7805        /*
       52     7806             ***** Fix the prompt ...
       53     7807        */
       54     7808    1     SEG$2.GETCMD$->GET$CMD.ALWAYS_SET_PROMPT# = %YES#;

   7808  2 000047   000000 470400 xsym               LDP0    SEG2$
         2 000050   000173 471500                    LDP1    123,,PR0
         2 000051   002000 236003                    LDQ     1024,DU
         2 000052   100006 256100                    ORSQ    6,,PR1

       55     7809    1     RETURN;

   7809  2 000053   000000 702200 xent               TSX2  ! X66_ARET
       56     7810    1   END CPM$MINI;

PL6.E3A0      #001=CPM$MINI File=CPM$MINI.:E05TSI                                TUE 07/29/97 11:58 Page:10
--  Include file information  --

   CP_DATA_R.:E05TOU  cannot be made into a system file and is referenced.
   XU_MACRO_C.:E05TOU  is referenced.
   CP_MACROS_C.:E05TOU  is referenced.
   CP_6_SUBS.:E05TOU  is referenced.
   CP_6.:E05TOU  cannot be made into a system file and is referenced.
   B$JIT.:E05TOU  cannot be made into a system file and is referenced.
   B$JIT_C.:E05TOU  was found in the system file and is referenced.
   CP_6_C.:E05TOU  was found in the system file and is referenced.
      No diagnostics issued in procedure CPM$MINI.
PL6.E3A0      #001=CPM$MINI File=CPM$MINI.:E05TSI                                TUE 07/29/97 11:58 Page:11

 **** Variables and constants ****

  ****  Auto variables  ****

  ****  Scalars and arrays  ****
OctLoc.c.b A Datatyp(siz) R M Lvl/name                 OctLoc.c.b A Datatyp(siz) R M Lvl/name

     4-0-0/d STRC(432)   r     1 FPT_MONINFO               20-0-0/d STRC(2232)  r     1 VLR_SITEINFO

  ****  SYMREF variables  ****

  ****  Scalars and arrays  ****
OctLoc.c.b A Datatyp(siz) R M Lvl/name                 OctLoc.c.b A Datatyp(siz) R M Lvl/name

     0-0-0/w PTR         r     1 B$JIT$                     0-0-0/d STRC(432)   r     1 CFPT_MONINFO
     0-0-0/w PTR         r     1 SEG2$

  ****  BASED and DCB variables  ****

  ****  Scalars and arrays  ****
OctLoc.c.b A Datatyp(siz) R M Lvl/name                 OctLoc.c.b A Datatyp(siz) R M Lvl/name

     0-0-0/d STRC(8856)  r     1 B$JIT                      0-0-0/d STRC(1512)  r     1 GET$CMD
     0-0-0/w STRC(6264)  r     1 SEG$2


   Procedure CPM$MINI requires 44 words for executable code.
   Procedure CPM$MINI requires 80 words of local(AUTO) storage.

    No errors detected in file CPM$MINI.:E05TSI    .
PL6.E3A0      #001=CPM$MINI File=CPM$MINI.:E05TSI                                TUE 07/29/97 11:58 Page:12
          *** CROSS REFERENCE LISTING ***
**     DENOTES     IDENTIFIER DEFINITION
<<                 IDENTIFIER'S VALUE SET
>>                 IDENTIFIER'S VALUE USED
<>                 IDENTIFIER SET AND/OR USED
--                 IDENTIFIER REFERENCED
PL6.E3A0      #001=CPM$MINI File=CPM$MINI.:E05TSI                                TUE 07/29/97 11:58 Page:13
          MINI XREF LISTING

B$JIT.ACCN
        23**DCL      7796>>IF       7796>>IF
B$JIT.CPFLAGS1.SLEAZE
       117**DCL       117--REDEF
B$JIT.ERR.MID
        24**DCL        24--REDEF
B$JIT.JRESPEAK
       185**DCL       186--REDEF
B$JIT.MODE
        18**DCL      7781>>IF
B$JIT.ORIGINATOR_PORT.FROM_CR
       294**DCL       294--REDEF     295--REDEF
B$JIT.PNR
       198**DCL       198--REDEF
B$JIT.TSLINE
       292**DCL       293--REDEF
B$JIT$
      7274**DCL        18--IMP-PTR  7781>>IF       7796>>IF       7796>>IF
CAMR_REC.ACSVEH_
      6313**DCL      6314--REDEF
CAMR_REC.ALTKEYS_
      6319**DCL      6320--REDEF    6320--REDEF
CAMR_REC.HDR_
      6318**DCL      6319--REDEF
CAMR_REC.TAB_
      6317**DCL      6318--REDEF
CAMR_REC.UHL_
      6311**DCL      6312--REDEF    6312--REDEF
CAMR_REC.V.FSN#
      6351**DCL      6351--REDEF    6351--REDEF
CAMR_REC.WSN_
      6317**DCL      6317--REDEF
PL6.E3A0      #001=CPM$MINI File=CPM$MINI.:E05TSI                                TUE 07/29/97 11:58 Page:14
CFPT_CLOSE.SN_
      5155**DCL      5155--REDEF
CFPT_CLOSE.UTL_
      5156**DCL      5156--REDEF
CFPT_CLOSE.V.EXPIRE#
      5170**DCL      5170--REDEF
CFPT_CLOSE.V.TYPE#
      5168**DCL      5168--REDEF
CFPT_CLOSE.V.XTNSIZE#
      5165**DCL      5165--REDEF    5167--REDEF
CFPT_MONINFO
      6454**DCL      7787>>ASSIGN
CFPT_OPEN.ACSVEH_
      5090**DCL      5091--REDEF
CFPT_OPEN.ALTKEYS_
      5096**DCL      5097--REDEF    5097--REDEF
CFPT_OPEN.HDR_
      5095**DCL      5096--REDEF
CFPT_OPEN.TAB_
      5094**DCL      5095--REDEF
CFPT_OPEN.UHL_
      5088**DCL      5089--REDEF    5089--REDEF
CFPT_OPEN.V.FSN#
      5128**DCL      5128--REDEF    5128--REDEF
CFPT_OPEN.WSN_
      5094**DCL      5094--REDEF
CFPT_READ.STATION_
      5194**DCL      5195--REDEF
CFPT_READ.V.DVBYTE.REREAD#
      5206**DCL      5206--REDEF
CFPT_READ.V.INDX#
      5204**DCL      5204--REDEF
CFPT_READUC.STATION_
      5564**DCL      5565--REDEF
CFPT_READUC.V.DVBYTE.REREAD#
      5576**DCL      5576--REDEF
PL6.E3A0      #001=CPM$MINI File=CPM$MINI.:E05TSI                                TUE 07/29/97 11:58 Page:15
CFPT_READUC.V.INDX#
      5574**DCL      5574--REDEF
CFPT_TRTN.V.IR#
      5800**DCL      5801--REDEF
CFPT_WRITE.STATION_
      5232**DCL      5232--REDEF
CFPT_WRITE.V.DVBYTE.VFC#
      5239**DCL      5239--REDEF
CFPT_WRITEUC.STATION_
      5532**DCL      5532--REDEF
CFPT_WRITEUC.V.DVBYTE.VFC#
      5539**DCL      5539--REDEF
CFPT_XXX.V.STEPCC#
      6512**DCL      6512--REDEF
CGETCMD.OUT$
      6533**DCL      6539--REDEF
CVLP_TRMCTL.BREAKCOUNT
      6124**DCL      6125--REDEF
CVLP_WINDOW.FWINDOW#
      6220**DCL      6220--REDEF    6221--REDEF
DUD$MINI
      7342**DCL-ENT  7804--CALL
FPT_MONINFO
      7355**DCL      7787<<ASSIGN   7789<>CALL
FPT_MONINFO.SITEINFO_
      7355**DCL      7788<<ASSIGN
GET$CMD.ALWAYS_SET_PROMPT#
      7460**DCL      7808<<ASSIGN
GET$CMD.OUT$
      7377**DCL      7383--REDEF
M$MONINFO
       376**DCL-ENT  7789--CALL
SEG$2.GETCMD$
      7764**DCL      7808>>ASSIGN
SEG2$
      7267**DCL      7718--IMP-PTR  7808>>ASSIGN
PL6.E3A0      #001=CPM$MINI File=CPM$MINI.:E05TSI                                TUE 07/29/97 11:58 Page:16
VLR_SITEINFO
      7708**DCL      7788--ASSIGN
VLR_SITEINFO.SITE_NAME#.C
      7709**DCL      7796>>IF
