VERSION E05

PL6.E3A0      #001=CPT$TRAP File=CPT$TRAP.:E05TSI                                TUE 07/29/97 12:04 Page:1
        1        1        /*M*    CPT$TRAP    IBEX Trap Handler                                         */
        2        2        /*T***********************************************************/
        3        3        /*T*                                                         */
        4        4        /*T* Copyright (c) Bull HN Information Systems Inc., 1997    */
        5        5        /*T*                                                         */
        6        6        /*T***********************************************************/
        7        7        /*X*  DMC,DFC   */
        8        8        /*P*    NAME:    CPT$TRAP
        9        9                PURPOSE:    This is a routine to print diagnostic messages in the
       10       10                         event of an IBEX trap; since IBEX should not trap in the
       11       11                         first place, it should be considered strictly debugging code
       12       12        */
       13       13        CPT$TRAP:
       14       14          PROC  ASYNC;
       15       15        /***** Include files *****/
       16       16         %INCLUDE B$JIT;
       17      306          %INCLUDE CP_6;
       18      387          %INCLUDE CP_6_SUBS;
       19      927          %INCLUDE CP_PERR_C;
       20     1265          %INCLUDE CP_SUBS_C;
       21     2182        /***** Macro invocations *****/
       22     2183        %B$TCB (STCLASS="BASED(B$TCB$)");
       23     2186        %B$EXCFR (STCLASS=BASED);
       24     2204        /***** External data *****/
       25     2205    1   DCL B$JIT$ PTR SYMREF READONLY;
       26     2206    1   DCL B$TCB$ PTR SYMREF READONLY;
       27     2207        /***** Error messages *****/
       28     2208        /*E*    ERROR: CPT-E$SUATRAP-0
       29     2209                MESSAGE: IBEX has trapped!
       30     2210        Please describe the circumstances to your system manager. */
       31     2211        /***** External routines *****/
       32     2212    1     DCL CPC$SCREECH ENTRY(2);
       33     2213        %EJECT;
PL6.E3A0      #001=CPT$TRAP File=CPT$TRAP.:E05TSI                                TUE 07/29/97 12:04 Page:2
       34     2214    1     CALL CPC$SCREECH (E$SUATRAP,CPT$IBEXMID);
       35     2215    1     CALL M$EXIT;
       36     2216    1   END CPT$TRAP;

PL6.E3A0      #001=CPT$TRAP File=CPT$TRAP.:E05TSI                                TUE 07/29/97 12:04 Page:3
--  Include file information  --

   CP_SUBS_C.:E05TOU  is referenced.
   CP_PERR_C.:E05TOU  is referenced.
   CP_6_SUBS.:E05TOU  is referenced.
   CP_6.:E05TOU  cannot be made into a system file and is referenced.
   B$JIT.:E05TOU  cannot be made into a system file and is referenced.
   B$JIT_C.:E05TOU  was found in the system file and is referenced.
   CP_6_C.:E05TOU  was found in the system file and is referenced.
      No diagnostics issued in procedure CPT$TRAP.

   Procedure CPT$TRAP requires 9 words for executable code.
   Procedure CPT$TRAP requires 4 words of local(AUTO) storage.

    No errors detected in file CPT$TRAP.:E05TSI    .

PL6.E3A0      #001=CPT$TRAP File=CPT$TRAP.:E05TSI                                TUE 07/29/97 12:04 Page:4

 Object Unit name= CPT$TRAP                                   File name= CPT$TRAP.:E05TOU
 UTS= JUL 29 '97 12:04:34.32 TUE                              Compiler= PL-6/E31         Sev=      00
 SharedLib= :SHARED_SYSTEM                                    Alt SharedLib=


    ****  Control sections  ****

 Sect   Type Bound  Init  Size OctSiz  Section name(segment info)
    0   DCB   even  none     0      0  M$UC
    1   Proc  even  none     9     11  CPT$TRAP
    2  RoData even  none     4      4  CPT$TRAP

    ****  Entry defs  ****

                              Check   Calling
                             calling  sequence
  Sect OctLoc Primary Altret sequence   type   Parms  Name
     1      0   yes            yes     Async       0  CPT$TRAP

  ****  Entry refs  ****

         Check        Calling
        calling       sequence
Altret sequence SRef   type   Args  Name
         yes           Std       2 CPC$SCREECH
                       nStd      0 X66_AAUTO
                       Std       0 B_CONSPOOL_D
                       nStd      0 X66_AARET

  ****  Data refs  ****

  Flags:  r = read only, s = secondary
Flgs Name                             Flgs Name                             Flgs Name
     M$UC                             r    B$JIT$                           r    B$TCB$
     B_VECTNIL
PL6.E3A0      #001=CPT$TRAP File=CPT$TRAP.:E05TSI                                TUE 07/29/97 12:04 Page:5

  ****  Segment refs  ****

  Flags:  r = read only, s = secondary
Flgs Name                             Flgs Name                             Flgs Name
     ISSID
PL6.E3A0      #001=CPT$TRAP File=CPT$TRAP.:E05TSI                                TUE 07/29/97 12:04 Page:6


        1        1        /*M*    CPT$TRAP    IBEX Trap Handler                                         */
        2        2        /*T***********************************************************/
        3        3        /*T*                                                         */
        4        4        /*T* Copyright (c) Bull HN Information Systems Inc., 1997    */
        5        5        /*T*                                                         */
        6        6        /*T***********************************************************/
        7        7        /*X*  DMC,DFC   */
        8        8        /*P*    NAME:    CPT$TRAP
        9        9                PURPOSE:    This is a routine to print diagnostic messages in the
       10       10                         event of an IBEX trap; since IBEX should not trap in the
       11       11                         first place, it should be considered strictly debugging code
       12       12        */
       13       13        CPT$TRAP:
       14       14          PROC  ASYNC;

     14  1 000000   000000 700200 xent  CPT$TRAP     TSX0  ! X66_AAUTO
         1 000001   000004 000000                    ZERO    4,0

       15       15        /***** Include files *****/
       16       16         %INCLUDE B$JIT;
       17      306          %INCLUDE CP_6;
       18      387          %INCLUDE CP_6_SUBS;
       19      927          %INCLUDE CP_PERR_C;
       20     1265          %INCLUDE CP_SUBS_C;
       21     2182        /***** Macro invocations *****/
       22     2183        %B$TCB (STCLASS="BASED(B$TCB$)");
       23     2186        %B$EXCFR (STCLASS=BASED);
       24     2204        /***** External data *****/
       25     2205    1   DCL B$JIT$ PTR SYMREF READONLY;
       26     2206    1   DCL B$TCB$ PTR SYMREF READONLY;
       27     2207        /***** Error messages *****/
       28     2208        /*E*    ERROR: CPT-E$SUATRAP-0
       29     2209                MESSAGE: IBEX has trapped!
       30     2210        Please describe the circumstances to your system manager. */
       31     2211        /***** External routines *****/
       32     2212    1     DCL CPC$SCREECH ENTRY(2);
PL6.E3A0      #001=CPT$TRAP File=CPT$TRAP.:E05TSI                                TUE 07/29/97 12:04 Page:7
       33     2213        %EJECT;
PL6.E3A0      #001=CPT$TRAP File=CPT$TRAP.:E05TSI                                TUE 07/29/97 12:04 Page:8
       34     2214    1     CALL CPC$SCREECH (E$SUATRAP,CPT$IBEXMID);

   2214  1 000002   000002 630400 2                  EPPR0   2
         1 000003   000020 631400 xsym               EPPR1   B_VECTNIL+16
         1 000004   000000 701000 xent               TSX1    CPC$SCREECH
         1 000005   000000 011000                    NOP     0

       35     2215    1     CALL M$EXIT;

   2215  1 000006   000001 713400                    CLIMB   exit
         1 000007   000000 401760                    pmme    nvectors=0

       36     2216    1   END CPT$TRAP;

   2216  1 000010   000000 702200 xent               TSX2  ! X66_AARET

PL6.E3A0      #001=CPT$TRAP File=CPT$TRAP.:E05TSI                                TUE 07/29/97 12:04 Page:9
--  Include file information  --

   CP_SUBS_C.:E05TOU  is referenced.
   CP_PERR_C.:E05TOU  is referenced.
   CP_6_SUBS.:E05TOU  is referenced.
   CP_6.:E05TOU  cannot be made into a system file and is referenced.
   B$JIT.:E05TOU  cannot be made into a system file and is referenced.
   B$JIT_C.:E05TOU  was found in the system file and is referenced.
   CP_6_C.:E05TOU  was found in the system file and is referenced.
      No diagnostics issued in procedure CPT$TRAP.
PL6.E3A0      #001=CPT$TRAP File=CPT$TRAP.:E05TSI                                TUE 07/29/97 12:04 Page:10

 **** Variables and constants ****

  ****  SYMREF variables  ****

  ****  Scalars and arrays  ****
OctLoc.c.b A Datatyp(siz) R M Lvl/name                 OctLoc.c.b A Datatyp(siz) R M Lvl/name

     0-0-0/w PTR         r     1 B$JIT$                     0-0-0/w PTR         r     1 B$TCB$


   Procedure CPT$TRAP requires 9 words for executable code.
   Procedure CPT$TRAP requires 4 words of local(AUTO) storage.

    No errors detected in file CPT$TRAP.:E05TSI    .
PL6.E3A0      #001=CPT$TRAP File=CPT$TRAP.:E05TSI                                TUE 07/29/97 12:04 Page:11
          *** CROSS REFERENCE LISTING ***
**     DENOTES     IDENTIFIER DEFINITION
<<                 IDENTIFIER'S VALUE SET
>>                 IDENTIFIER'S VALUE USED
<>                 IDENTIFIER SET AND/OR USED
--                 IDENTIFIER REFERENCED
PL6.E3A0      #001=CPT$TRAP File=CPT$TRAP.:E05TSI                                TUE 07/29/97 12:04 Page:12
          MINI XREF LISTING

B$EXCFR.ASL
      2187**DCL      2187--REDEF
B$EXCFR.ERR.ERR#
      2201**DCL      2201--REDEF
B$EXCFR.EVID
      2200**DCL      2200--REDEF    2201--REDEF
B$EXCFR.IR
      2188**DCL      2188--REDEF
B$EXCFR.PREVSZ
      2187**DCL      2187--REDEF
B$EXCFR.SUBC
      2199**DCL      2199--REDEF    2200--REDEF    2200--REDEF
B$JIT.CPFLAGS1.SLEAZE
       124**DCL       124--REDEF
B$JIT.ERR.MID
        31**DCL        31--REDEF
B$JIT.JRESPEAK
       192**DCL       193--REDEF
B$JIT.ORIGINATOR_PORT.FROM_CR
       301**DCL       301--REDEF     302--REDEF
B$JIT.PNR
       205**DCL       205--REDEF
B$JIT.TSLINE
       299**DCL       300--REDEF
B$JIT$
      2205**DCL        25--IMP-PTR
B$TCB$
      2206**DCL      2184--IMP-PTR
CPC$SCREECH
      2212**DCL-ENT  2214--CALL
M$EXIT
       327**DCL-ENT  2215--CALL
