VERSION E05

PL6.E3A0      #001=CPX$CONTEXT1 File=CPX$CONTEXT1.:E05TSI                        TUE 07/29/97 12:05 Page:1
        1        1        /*M*    CPX$CONTEXT1    subroutine which checks for context errors for IBEX   */
        2        2        /*T***********************************************************/
        3        3        /*T*                                                         */
        4        4        /*T* Copyright (c) Bull HN Information Systems Inc., 1997    */
        5        5        /*T*                                                         */
        6        6        /*T***********************************************************/
        7        7        /*X*  DMC,DFC   */
        8        8        /*P*    NAME: CPX$CONTEXT1
        9        9                PURPOSE: To check for context errors for IBEX                         */
       10       10        /******************************************************************************/
       11       11        CPX$CONTEXT1:
       12       12                PROC (P_PARAM);
       13       13        /***** include files *****/
       14       14          %INCLUDE CP_6;
       15       95          %INCLUDE CP_MACROS_C;
       16      847          %INCLUDE CP_SUBS_C;
       17     1764          %INCLUDE CP_PERR_C;
       18     2102          %INCLUDE XU_MACRO_C;
       19     5208          %INCLUDE XU_SUBS_C;
       20     5300        /***** fpts *****/
       21     5301          %PARSE$PARAM (NAME=P_PARAM);
       22     5382          %PARSE$SYM (NAME=P$S,STCLASS=BASED);
       23     5420          %PARSE$OUT (NAME=P$B,STCLASS=BASED);
       24     5465          %U$PARAM (NAME=U$PARAM,STCLASS="BASED(P_PARAM.USER$)");
       25     5481          %VLR_FID (FPTN=FID_RESULTS,STCLASS=AUTO);
       26     5500        /***** external routines *****/
       27     5501    1   DCL CXP$POSTERR ENTRY(5);
       28     5502    1   DCL CPX$OCTBIN ENTRY(2) ALTRET;
       29     5503        /***** declarations *****/
       30     5504    1   DCL PTR$ PTR AUTO;
       31     5505    1   DCL PTR1$ PTR AUTO;
       32     5506    1   DCL VALUE SBIN WORD AUTO;
       33     5507    1   DCL INDX UBIN WORD AUTO;
       34     5508        %EJECT;
PL6.E3A0      #001=CPX$CONTEXT1 File=CPX$CONTEXT1.:E05TSI                        TUE 07/29/97 12:05 Page:2
       35     5509        /***** error msgs *****/
       36     5510        %ERR_CODE (NAME=E_BDCVAL,MID#=CPX$IBEXMID,CODE#=E$BDCVAL,STCLASS=CONSTANT);
       37     5530        /*E*    ERROR: CPX-E$BDCVAL-0
       38     5531                MESSAGE: Illegal decimal value
       39     5532        */
       40     5533        %ERR_CODE (NAME=E_BOCVAL,MID#=CPX$IBEXMID,CODE#=E$BOCVAL,STCLASS=CONSTANT);
       41     5553        /*E*    ERROR: CPX-E$BOCVAL-0
       42     5554                MESSAGE: Illegal octal value
       43     5555        */
       44     5556        /*E*    ERROR: CPX-E$XATTOOLNG-0
       45     5557                MESSAGE: ATITLE must be 32 chars or less.
       46     5558        */
       47     5559        %ERR_CODE (NAME=E_XATTOOLNG,MID#=CPX$IBEXMID,CODE#=E$XATTOOLNG,STCLASS=CONSTANT);
       48     5579        %EJECT;
PL6.E3A0      #001=CPX$CONTEXT1 File=CPX$CONTEXT1.:E05TSI                        TUE 07/29/97 12:05 Page:3
       49     5580    1   CPX$ACCEPT: ENTRY (P_PARAM);
       50     5581    1           RETURN;
       51     5582    1   CPX$ATITLE: ENTRY (P_PARAM);
       52     5583        /*
       53     5584             ***** Strip any trailing blanks ...
       54     5585        */
       55     5586    2           DO WHILE (P_PARAM.OUT$ -> P$S.COUNT > 0
       56     5587    2                 AND SUBSTR(P_PARAM.OUT$ -> P$S.TEXT,
       57     5588    2                 P_PARAM.OUT$ -> P$S.COUNT-1,1) = ' ');
       58     5589    2              P_PARAM.OUT$ -> P$S.COUNT = P_PARAM.OUT$ -> P$S.COUNT - 1;
       59     5590    2           END;
       60     5591    1           IF P_PARAM.OUT$ -> P$S.COUNT > 32
       61     5592    1           THEN
       62     5593    1              CALL CXP$POSTERR(U$PARAM.ERRBUF$,P_PARAM.OUT$->P$S.CPOS+32,
       63     5594    1                    E_XATTOOLNG);
       64     5595    1           RETURN;
       65     5596    1   CPX$CANCEL: ENTRY (P_PARAM);
       66     5597    1           RETURN;
       67     5598    1   CPX$COUPLE: ENTRY (P_PARAM);
       68     5599    1           RETURN;
       69     5600    1   CPX$DECOUPLE: ENTRY (P_PARAM);
       70     5601    1           RETURN;
       71     5602    1   CPX$DEFAULT: ENTRY (P_PARAM);
       72     5603    1           RETURN;
       73     5604    1   CPX$DELTA: ENTRY (P_PARAM);
       74     5605    1           RETURN;
       75     5606    1   END CPX$CONTEXT1;

PL6.E3A0      #001=CPX$CONTEXT1 File=CPX$CONTEXT1.:E05TSI                        TUE 07/29/97 12:05 Page:4
--  Include file information  --

   XU_SUBS_C.:E05TOU  is referenced.
   XU_MACRO_C.:E05TOU  is referenced.
   CP_PERR_C.:E05TOU  is referenced.
   CP_SUBS_C.:E05TOU  is referenced.
   CP_MACROS_C.:E05TOU  is referenced.
   CP_6.:E05TOU  cannot be made into a system file and is referenced.
   B$JIT_C.:E05TOU  was found in the system file and is never referenced.
   CP_6_C.:E05TOU  was found in the system file and is referenced.
      No diagnostics issued in procedure CPX$CONTEXT1.

   Procedure CPX$CONTEXT1 requires 58 words for executable code.
   Procedure CPX$CONTEXT1 requires 22 words of local(AUTO) storage.

    No errors detected in file CPX$CONTEXT1.:E05TSI    .

PL6.E3A0      #001=CPX$CONTEXT1 File=CPX$CONTEXT1.:E05TSI                        TUE 07/29/97 12:05 Page:5

 Object Unit name= CPX$CONTEXT1                               File name= CPX$CONTEXT1.:E05TOU
 UTS= JUL 29 '97 12:05:26.48 TUE                              Compiler= PL-6/E31         Sev=      00
 SharedLib= :SHARED_SYSTEM                                    Alt SharedLib=


    ****  Control sections  ****

 Sect   Type Bound  Init  Size OctSiz  Section name(segment info)
    0   DCB   even  none     0      0  M$UC
    1  RoData even  UTS      3      3  CPX$CONTEXT1
    2   Proc  even  none    58     72  CPX$CONTEXT1
    3  RoData even  none     1      1  CPX$CONTEXT1

    ****  Entry defs  ****

                              Check   Calling
                             calling  sequence
  Sect OctLoc Primary Altret sequence   type   Parms  Name
     2      0   yes            yes      Std        1  CPX$CONTEXT1
     2      3                  yes      Std        1  CPX$ACCEPT
     2      6                  yes      Std        1  CPX$ATITLE
     2     53                  yes      Std        1  CPX$CANCEL
     2     56                  yes      Std        1  CPX$COUPLE
     2     61                  yes      Std        1  CPX$DECOUPLE
     2     64                  yes      Std        1  CPX$DEFAULT
     2     67                  yes      Std        1  CPX$DELTA

  ****  Entry refs  ****

         Check        Calling
        calling       sequence
Altret sequence SRef   type   Args  Name
         yes           Std       5 CXP$POSTERR
                       nStd      0 X66_AUTO_1
                       nStd      0 X66_ARET
                       Std       0 B_CONSPOOL_D
PL6.E3A0      #001=CPX$CONTEXT1 File=CPX$CONTEXT1.:E05TSI                        TUE 07/29/97 12:05 Page:6

  ****  Data refs  ****

  Flags:  r = read only, s = secondary
Flgs Name                             Flgs Name                             Flgs Name
     M$UC                                  B_VECTNIL

  ****  Segment refs  ****

  Flags:  r = read only, s = secondary
Flgs Name                             Flgs Name                             Flgs Name
     ISSID
PL6.E3A0      #001=CPX$CONTEXT1 File=CPX$CONTEXT1.:E05TSI                        TUE 07/29/97 12:05 Page:7


        1        1        /*M*    CPX$CONTEXT1    subroutine which checks for context errors for IBEX   */
        2        2        /*T***********************************************************/
        3        3        /*T*                                                         */
        4        4        /*T* Copyright (c) Bull HN Information Systems Inc., 1997    */
        5        5        /*T*                                                         */
        6        6        /*T***********************************************************/
        7        7        /*X*  DMC,DFC   */
        8        8        /*P*    NAME: CPX$CONTEXT1
        9        9                PURPOSE: To check for context errors for IBEX                         */
       10       10        /******************************************************************************/
       11       11        CPX$CONTEXT1:
       12       12                PROC (P_PARAM);

     12  2 000000   000000 700200 xent  CPX$CONTEXT1 TSX0  ! X66_AUTO_1
         2 000001   000026 000001                    ZERO    22,1
         2 000002   000005 710000 2                  TRA     s:5581

       13       13        /***** include files *****/
       14       14          %INCLUDE CP_6;
       15       95          %INCLUDE CP_MACROS_C;
       16      847          %INCLUDE CP_SUBS_C;
       17     1764          %INCLUDE CP_PERR_C;
       18     2102          %INCLUDE XU_MACRO_C;
       19     5208          %INCLUDE XU_SUBS_C;
       20     5300        /***** fpts *****/
       21     5301          %PARSE$PARAM (NAME=P_PARAM);
       22     5382          %PARSE$SYM (NAME=P$S,STCLASS=BASED);
       23     5420          %PARSE$OUT (NAME=P$B,STCLASS=BASED);
       24     5465          %U$PARAM (NAME=U$PARAM,STCLASS="BASED(P_PARAM.USER$)");
       25     5481          %VLR_FID (FPTN=FID_RESULTS,STCLASS=AUTO);
       26     5500        /***** external routines *****/
       27     5501    1   DCL CXP$POSTERR ENTRY(5);
       28     5502    1   DCL CPX$OCTBIN ENTRY(2) ALTRET;
       29     5503        /***** declarations *****/
       30     5504    1   DCL PTR$ PTR AUTO;
       31     5505    1   DCL PTR1$ PTR AUTO;
PL6.E3A0      #001=CPX$CONTEXT1 File=CPX$CONTEXT1.:E05TSI                        TUE 07/29/97 12:05 Page:8
       32     5506    1   DCL VALUE SBIN WORD AUTO;
       33     5507    1   DCL INDX UBIN WORD AUTO;
       34     5508        %EJECT;
PL6.E3A0      #001=CPX$CONTEXT1 File=CPX$CONTEXT1.:E05TSI                        TUE 07/29/97 12:05 Page:9
       35     5509        /***** error msgs *****/
       36     5510        %ERR_CODE (NAME=E_BDCVAL,MID#=CPX$IBEXMID,CODE#=E$BDCVAL,STCLASS=CONSTANT);
       37     5530        /*E*    ERROR: CPX-E$BDCVAL-0
       38     5531                MESSAGE: Illegal decimal value
       39     5532        */
       40     5533        %ERR_CODE (NAME=E_BOCVAL,MID#=CPX$IBEXMID,CODE#=E$BOCVAL,STCLASS=CONSTANT);
       41     5553        /*E*    ERROR: CPX-E$BOCVAL-0
       42     5554                MESSAGE: Illegal octal value
       43     5555        */
       44     5556        /*E*    ERROR: CPX-E$XATTOOLNG-0
       45     5557                MESSAGE: ATITLE must be 32 chars or less.
       46     5558        */
       47     5559        %ERR_CODE (NAME=E_XATTOOLNG,MID#=CPX$IBEXMID,CODE#=E$XATTOOLNG,STCLASS=CONSTANT);
       48     5579        %EJECT;
PL6.E3A0      #001=CPX$CONTEXT1 File=CPX$CONTEXT1.:E05TSI                        TUE 07/29/97 12:05 Page:10
       49     5580    1   CPX$ACCEPT: ENTRY (P_PARAM);

   5580  2 000003   000000 700200 xent  CPX$ACCEPT   TSX0  ! X66_AUTO_1
         2 000004   000026 000001                    ZERO    22,1

       50     5581    1           RETURN;

   5581  2 000005   000000 702200 xent               TSX2  ! X66_ARET

       51     5582    1   CPX$ATITLE: ENTRY (P_PARAM);

   5582  2 000006   000000 700200 xent  CPX$ATITLE   TSX0  ! X66_AUTO_1
         2 000007   000026 000001                    ZERO    22,1

       52     5583        /*
       53     5584             ***** Strip any trailing blanks ...
       54     5585        */
       55     5586    2           DO WHILE (P_PARAM.OUT$ -> P$S.COUNT > 0

   5586  2 000010   000016 710000 2                  TRA     s:5590

       56     5587    2                 AND SUBSTR(P_PARAM.OUT$ -> P$S.TEXT,
       57     5588    2                 P_PARAM.OUT$ -> P$S.COUNT-1,1) = ' ');
       58     5589    2              P_PARAM.OUT$ -> P$S.COUNT = P_PARAM.OUT$ -> P$S.COUNT - 1;

   5589  2 000011   200003 470500                    LDP0    @P_PARAM,,AUTO
         2 000012   000002 471500                    LDP1    2,,PR0
         2 000013   100004 236100                    LDQ     4,,PR1
         2 000014   777000 036003                    ADLQ    -512,DU
         2 000015   100004 552140                    STBQ    4,'40'O,PR1

       59     5590    2           END;

   5590  2 000016   200003 470500                    LDP0    @P_PARAM,,AUTO
         2 000017   000002 471500                    LDP1    2,,PR0
         2 000020   100004 236100                    LDQ     4,,PR1
         2 000021   777000 316003                    CANQ    -512,DU
PL6.E3A0      #001=CPX$CONTEXT1 File=CPX$CONTEXT1.:E05TSI                        TUE 07/29/97 12:05 Page:11
         2 000022   000031 600000 2                  TZE     s:5591
         2 000023   100004 236100                    LDQ     4,,PR1
         2 000024   000033 772000                    QRL     27
         2 000025   040000 106506                    CMPC    fill='040'O
         2 000026   100004 000001                    ADSC9   4,Q,PR1                  cn=0,n=1
         2 000027   000035 000001 xsym               ADSC9   B_VECTNIL+29             cn=0,n=1
         2 000030   000011 600000 2                  TZE     s:5589

       60     5591    1           IF P_PARAM.OUT$ -> P$S.COUNT > 32

   5591  2 000031   100004 236100                    LDQ     4,,PR1
         2 000032   777000 376003                    ANQ     -512,DU
         2 000033   041000 116003                    CMPQ    16896,DU
         2 000034   000052 602000 2                  TNC     s:5595

       61     5592    1           THEN
       62     5593    1              CALL CXP$POSTERR(U$PARAM.ERRBUF$,P_PARAM.OUT$->P$S.CPOS+32,

   5593  2 000035   000006 473500                    LDP3    6,,PR0
         2 000036   100002 235100                    LDA     2,,PR1
         2 000037   000040 035007                    ADLA    32,DL
         2 000040   200022 755100                    STA     @P_PARAM+15,,AUTO
         2 000041   000000 236000 3                  LDQ     0
         2 000042   200025 756100                    STQ     @P_PARAM+18,,AUTO
         2 000043   200022 631500                    EPPR1   @P_PARAM+15,,AUTO
         2 000044   200024 451500                    STP1    @P_PARAM+17,,AUTO
         2 000045   200023 453500                    STP3    @P_PARAM+16,,AUTO
         2 000046   200023 630500                    EPPR0   @P_PARAM+16,,AUTO
         2 000047   000021 631400 xsym               EPPR1   B_VECTNIL+17
         2 000050   000000 701000 xent               TSX1    CXP$POSTERR
         2 000051   000000 011000                    NOP     0

       63     5594    1                    E_XATTOOLNG);
       64     5595    1           RETURN;

   5595  2 000052   000000 702200 xent               TSX2  ! X66_ARET

PL6.E3A0      #001=CPX$CONTEXT1 File=CPX$CONTEXT1.:E05TSI                        TUE 07/29/97 12:05 Page:12
       65     5596    1   CPX$CANCEL: ENTRY (P_PARAM);

   5596  2 000053   000000 700200 xent  CPX$CANCEL   TSX0  ! X66_AUTO_1
         2 000054   000026 000001                    ZERO    22,1

       66     5597    1           RETURN;

   5597  2 000055   000000 702200 xent               TSX2  ! X66_ARET

       67     5598    1   CPX$COUPLE: ENTRY (P_PARAM);

   5598  2 000056   000000 700200 xent  CPX$COUPLE   TSX0  ! X66_AUTO_1
         2 000057   000026 000001                    ZERO    22,1

       68     5599    1           RETURN;

   5599  2 000060   000000 702200 xent               TSX2  ! X66_ARET

       69     5600    1   CPX$DECOUPLE: ENTRY (P_PARAM);

   5600  2 000061   000000 700200 xent  CPX$DECOUPLE TSX0  ! X66_AUTO_1
         2 000062   000026 000001                    ZERO    22,1

       70     5601    1           RETURN;

   5601  2 000063   000000 702200 xent               TSX2  ! X66_ARET

       71     5602    1   CPX$DEFAULT: ENTRY (P_PARAM);

   5602  2 000064   000000 700200 xent  CPX$DEFAULT  TSX0  ! X66_AUTO_1
         2 000065   000026 000001                    ZERO    22,1

       72     5603    1           RETURN;

   5603  2 000066   000000 702200 xent               TSX2  ! X66_ARET

       73     5604    1   CPX$DELTA: ENTRY (P_PARAM);
PL6.E3A0      #001=CPX$CONTEXT1 File=CPX$CONTEXT1.:E05TSI                        TUE 07/29/97 12:05 Page:13

   5604  2 000067   000000 700200 xent  CPX$DELTA    TSX0  ! X66_AUTO_1
         2 000070   000026 000001                    ZERO    22,1

       74     5605    1           RETURN;

   5605  2 000071   000000 702200 xent               TSX2  ! X66_ARET
       75     5606    1   END CPX$CONTEXT1;

PL6.E3A0      #001=CPX$CONTEXT1 File=CPX$CONTEXT1.:E05TSI                        TUE 07/29/97 12:05 Page:14
--  Include file information  --

   XU_SUBS_C.:E05TOU  is referenced.
   XU_MACRO_C.:E05TOU  is referenced.
   CP_PERR_C.:E05TOU  is referenced.
   CP_SUBS_C.:E05TOU  is referenced.
   CP_MACROS_C.:E05TOU  is referenced.
   CP_6.:E05TOU  cannot be made into a system file and is referenced.
   B$JIT_C.:E05TOU  was found in the system file and is never referenced.
   CP_6_C.:E05TOU  was found in the system file and is referenced.
      No diagnostics issued in procedure CPX$CONTEXT1.
PL6.E3A0      #001=CPX$CONTEXT1 File=CPX$CONTEXT1.:E05TSI                        TUE 07/29/97 12:05 Page:15

 **** Variables and constants ****

  ****  Section 001 RoData CPX$CONTEXT1

  ****  Scalars and arrays  ****
OctLoc.c.b A Datatyp(siz) R M Lvl/name                 OctLoc.c.b A Datatyp(siz) R M Lvl/name

     2-0-0/w STRC        r     1 E_XATTOOLNG

  ****  Auto variables  ****

  ****  Scalars and arrays  ****
OctLoc.c.b A Datatyp(siz) R M Lvl/name                 OctLoc.c.b A Datatyp(siz) R M Lvl/name

     3-0-0/w PTR         r     1 @P_PARAM                  *0-0-0/w STRC(270)   r     1 P_PARAM

  ****  BASED and DCB variables  ****

  ****  Scalars and arrays  ****
OctLoc.c.b A Datatyp(siz) R M Lvl/name                 OctLoc.c.b A Datatyp(siz) R M Lvl/name

     0-0-0/w ASTR(153)   r     1 P$S                        0-0-0/w STRC(576)   r     1 U$PARAM


   Procedure CPX$CONTEXT1 requires 58 words for executable code.
   Procedure CPX$CONTEXT1 requires 22 words of local(AUTO) storage.

    No errors detected in file CPX$CONTEXT1.:E05TSI    .
PL6.E3A0      #001=CPX$CONTEXT1 File=CPX$CONTEXT1.:E05TSI                        TUE 07/29/97 12:05 Page:16
          *** CROSS REFERENCE LISTING ***
**     DENOTES     IDENTIFIER DEFINITION
<<                 IDENTIFIER'S VALUE SET
>>                 IDENTIFIER'S VALUE USED
<>                 IDENTIFIER SET AND/OR USED
--                 IDENTIFIER REFERENCED
PL6.E3A0      #001=CPX$CONTEXT1 File=CPX$CONTEXT1.:E05TSI                        TUE 07/29/97 12:05 Page:17
          MINI XREF LISTING

CXP$POSTERR
      5501**DCL-ENT  5593--CALL
E_XATTOOLNG
      5572**DCL      5593<>CALL
P$S.COUNT
      5412**DCL      5415--IMP-SIZ  5586>>DOWHILE  5586>>DOWHILE  5586>>DOWHILE  5589<<ASSIGN   5589>>ASSIGN
      5591>>IF
P$S.CPOS
      5404**DCL      5593>>CALL
P$S.TEXT
      5415**DCL      5586>>DOWHILE
P_PARAM
      5320**DCL        11--PROC     5580--ENTRY    5582--ENTRY    5596--ENTRY    5598--ENTRY    5600--ENTRY
      5602--ENTRY    5604--ENTRY
P_PARAM.OUT$
      5350**DCL      5586>>DOWHILE  5586>>DOWHILE  5586>>DOWHILE  5586>>DOWHILE  5589>>ASSIGN   5589>>ASSIGN
      5591>>IF       5593>>CALL
P_PARAM.USER$
      5368**DCL      5466--IMP-PTR  5593>>CALL
U$PARAM.ERRBUF$
      5467**DCL      5593<>CALL
