VERSION E05

PL6.E3A0      #001=CPX$CONTEXT2 File=CPX$CONTEXT2.:E05TSI                        TUE 07/29/97 12:06 Page:1
        1        1        /*M*    CPX$CONTEXT2    subroutine which checks for context errors for IBEX   */
        2        2        /*T***********************************************************/
        3        3        /*T*                                                         */
        4        4        /*T* Copyright (c) Bull HN Information Systems Inc., 1997    */
        5        5        /*T*                                                         */
        6        6        /*T***********************************************************/
        7        7        /*X*    AND,DMC,IPC,IND=3,CTI=6,ECU=3,DCI=3,DTI=3                             */
        8        8        /*P*    NAME: CPX$CONTEXT2
        9        9                PURPOSE: To check for context errors for IBEX                         */
       10       10        /******************************************************************************/
       11       11        CPX$CONTEXT2:
       12       12                PROC (P_PARAM);
       13       13        /***** include files *****/
       14       14          %INCLUDE B$JIT;
       15      304        %INCLUDE B_MACROS_C;
       16      415          %INCLUDE CP_6;
       17      496          %INCLUDE CP_MACROS_C;
       18     1248          %INCLUDE CP_SUBS_C;
       19     2165          %INCLUDE CP_PERR_C;
       20     2503          %INCLUDE CP_6_SUBS;
       21     3043          %INCLUDE XU_MACRO_C;
       22     6149          %INCLUDE XU_SUBS_C;
       23     6241          %INCLUDE JG_GHOSTS_C;
       24     6331          %INCLUDE UM_ERRORS_C;
       25     6365        /**/
       26     6366        /***** fpts *****/
       27     6367          %FPT_FID (FPTN=FPT_FID,STCLASS=AUTO);
       28     6390          %PARSE$PARAM (NAME=P_PARAM);
       29     6471          %PARSE$SYM (NAME=P$S,STCLASS=BASED,SCRMODE="BIT(18)");
       30     6509          %PARSE$OUT (NAME=P$B,STCLASS=BASED);
       31     6554          %P$PCB (NAME=P$PCB,STCLASS=BASED);
       32     6755          %U$PARAM (NAME=U$PARAM,STCLASS="BASED(P_PARAM.USER$)");
       33     6771          %VLR_FID (FPTN=FID_RESULTS,STCLASS=AUTO);
       34     6790          %VLP_NAME (FPTN=FID_NAME,STCLASS=AUTO,LEN=31);
       35     6817          %VLP_SN (FPTN=FID_SN,STCLASS=AUTO,N=50);
       36     6830          %VLP_ACCT (FPTN=FID_ACCT,STCLASS=AUTO);
       37     6843          %VLP_PASS (FPTN=FID_PASS,STCLASS=AUTO);
PL6.E3A0      #001=CPX$CONTEXT2 File=CPX$CONTEXT2.:E05TSI                        TUE 07/29/97 12:06 Page:2
       38     6856          %VLP_WSN (FPTN=FID_WSN,STCLASS=AUTO);
       39     6869        /***** symrefs *****/
       40     6870    1   DCL B$JIT$ PTR SYMREF;
       41     6871    1   DCL B$TCB$ PTR SYMREF;
       42     6872        /***** symdefs *****/
       43     6873    1   DCL IBEX_PASSWORD BIT(1) CONSTANT SYMDEF INIT('1'B);
       44     6874    1   DCL IBEX_MESSAGE BIT(1) CONSTANT SYMDEF INIT('1'B);
       45     6875        /***** constant data *****/
       46     6876        %FPT_FID (FPTN=CFPT_FID,STCLASS=CONSTANT);
       47     6899        /***** external routines *****/
       48     6900    1   DCL CXP$POSTERR ENTRY(5);
       49     6901    1   DCL CXX$DECBIN ENTRY(2) ALTRET;
       50     6902    1   DCL CXX$OCTBIN ENTRY(2) ALTRET;
       51     6903        /***** declarations *****/
       52     6904        %CP_BLANK_PASS_INFO (STCLASS=AUTO);
       53     6909    1   DCL PTR$ PTR AUTO;
       54     6910    1   DCL PTR1$ PTR AUTO;
       55     6911    1   DCL VALUE SBIN WORD AUTO;
       56     6912    1   DCL INDX UBIN WORD AUTO;
       57     6913    1   DCL FID_ASN UBIN(9);
       58     6914    1   DCL FID_RES CHAR(4);
       59     6915    1   DCL SBINMAX_O BIT(36) CONSTANT INIT('377777777776'O);
       60     6916    1   DCL SBINMAX REDEF SBINMAX_O SBIN WORD;
       61     6917        /***** Based structures *****/
       62     6918        %B$TCB (STCLASS="BASED(B$TCB$)");
       63     6921        %B$EXCFR;
       64     6939        %ERR_BLK (NAME=ERR$BLK,STCLASS=BASED);
       65     6964    1   DCL BUFF$TEXT CHAR(%CPBUFFSIZE) BASED;
       66     6965        %EJECT;
PL6.E3A0      #001=CPX$CONTEXT2 File=CPX$CONTEXT2.:E05TSI                        TUE 07/29/97 12:06 Page:3
       67     6966        /***** error msgs *****/
       68     6967        %VLP_ERRCODE (FPTN=E_BDCVAL,FCG=CP,ERR#=E$BDCVAL,MID=X,STCLASS=CONSTANT);
       69     7012        %VLP_ERRCODE (FPTN=E_XBAFID,FCG=CP,MID=X,ERR#=E$XBAFID,STCLASS=CONSTANT);
       70     7057        /*E*    ERROR: CPX-E$XBAFID
       71     7058                MESSAGE: May not be a device fid.
       72     7059        */
       73     7060        %VLP_ERRCODE (FPTN=E_XBDIRFID,FCG=CP,ERR#=E$XBDIRFID,MID=X,STCLASS=CONSTANT);
       74     7105        /*E*    ERROR: CPX-E$XBDIRFID-0
       75     7106                MESSAGE: FID may only consist of DP#SN.ACCOUNT or .ACCOUNT
       76     7107        */
       77     7108        %VLP_ERRCODE (FPTN=E_XNORU,FCG=CP,ERR#=E$XNORU,MID=X,STCLASS=CONSTANT);
       78     7153        /*E*    ERROR: CPX-E$XNORU-0
       79     7154                MESSAGE: Run unit unspecified
       80     7155                DESCRIPTION: A run unit name wasn't specified, probably the user
       81     7156                             typed only a period.
       82     7157        */
       83     7158        %VLP_ERRCODE (FPTN=E_XNOFILE,FCG=CP,ERR#=E$XNOFILE,MID=X,STCLASS=CONSTANT);
       84     7203        /*E*    ERROR: CPX-E$XNOFILE-0
       85     7204                MESSAGE: File name unspecified
       86     7205        */
       87     7206        %VLP_ERRCODE (FPTN=E_XBIGDBUG,FCG=CP,ERR#=E$XBIGDBUG,MID=X,STCLASS=CONSTANT);
       88     7251        /*E*    ERROR: CPX-E$XBIGDBUG-0
       89     7252                MESSAGE: Debug processor name greater than 11 characters
       90     7253        */
       91     7254        %VLP_ERRCODE (FPTN=E_XBIGDCB,ERR#=E$XBIGDCB,FCG=CP,MID=X,
       92     7255                        STCLASS=CONSTANT) ;
       93     7300        /*E*    ERROR: CPX-E$XBIGDCB-0
       94     7301                MESSAGE: DCB name too long
       95     7302                MESSAGE1: DCB name > 31 characters or unit number > 29 digits
       96     7303         */
       97     7304        %VLP_ERRCODE (FPTN=E_XILLDCB,ERR#=E$XILLDCB,FCG=CP,MID=X,
       98     7305                        STCLASS=CONSTANT) ;
       99     7350        /*E*    ERROR: CPX-E$XILLDCB-0
      100     7351                MESSAGE: Illegal DCB name specified
      101     7352                MESSAGE1: DCB names M$UC and M$LM disallowed
      102     7353        */
      103     7354        %VLP_ERRCODE (FPTN=E_XNULLSTRING,ERR#=E$XNULLSTRING,FCG=CP,MID=X,
PL6.E3A0      #001=CPX$CONTEXT2 File=CPX$CONTEXT2.:E05TSI                        TUE 07/29/97 12:06 Page:4
      104     7355                        STCLASS=CONSTANT) ;
      105     7400        /*E*    ERROR: CPX-E$XNULLSTRING-C
      106     7401                MESSAGE: Illegal use of the NULL string.
      107     7402                MESSAGE1: The NULL string is illegal on the left side of a substitution.
      108     7403        */
      109     7404        %VLP_ERRCODE (FPTN=E_XBIG67108863,FCG=CP,ERR#=E$XBIG67108863,MID=X,STCLASS=CONSTANT)
              7404            ;
      110     7449        /*E*    ERROR:   CPX-E$XBIG67108863-0
      111     7450                MESSAGE: Value greater than 67108863.
      112     7451                MESSAGE1: START or END record number must be less than 2**26
      113     7452        */
      114     7453        %VLP_ERRCODE (FPTN=E_JPBIGACCT,FCG=CP,MID=X,ERR#=E$JPBIGACCT,STCLASS=CONSTANT);
      115     7498        %VLP_ERRCODE(FPTN=E_JPBIGJNAME,FCG=CP,MID=X,ERR#=E$JPBIGJNAME,STCLASS=CONSTANT);
      116     7543        %VLP_ERRCODE (FPTN=E_JPILLSYSID,FCG=CP,MID=X,ERR#=E$JPILLSYSID,STCLASS=CONSTANT);
      117     7588        %VLP_ERRCODE (FPTN=E_JPBIGWSN,FCG=CP,MID=X,ERR#=E$JPBIGWSN,STCLASS=CONSTANT);
      118     7633        %VLP_ERRCODE (FPTN=E_CHBIGFORM,FCG=CP,ERR#=E$CHBIGFORM,MID=X,STCLASS=CONSTANT);
      119     7678        /*E*   ERROR: CPX-E$CHBIGFORM-0
      120     7679                MESSAGE: FORM name greater than 6 characters
      121     7680        */
      122     7681        %VLP_ERRCODE (FPTN=E_CHBIGTERM,FCG=CP,ERR#=E$CHBIGTERM,MID=X,STCLASS=CONSTANT);
      123     7726        /*E*   ERROR: CPX-E$CHBIGTERM-0
      124     7727                MESSAGE: TERM name greater than 8 characters
      125     7728        */
      126     7729        %VLP_ERRCODE (FPTN=E_CHBIGDEV,FCG=CP,ERR#=E$CHBIGDEV,MID=X,STCLASS=CONSTANT);
      127     7774        /*E*   ERROR: CPX-E$CHBIGDEV-0
      128     7775                MESSAGE: DEV name greater than 2 characters
      129     7776        */
      130     7777        %VLP_ERRCODE (FPTN=E_BDSTRMNAME,MID=X,ERR#=E$BDSTRMNAME,FCG=CP,STCLASS=CONSTANT);
      131     7822        /*E*    ERROR: CPX-E$BDSTRMNAME-C
      132     7823                MESSAGE: Must be 2 characters long.
      133     7824                MESSAGE1: LDEV stream name must be 2 characters long.
      134     7825        */
      135     7826        %VLP_ERRCODE (FPTN=E_BDSTRMNUM,MID=X,ERR#=E$BDSTRMNUM,FCG=CP,STCLASS=CONSTANT);
      136     7871        /*E*    ERROR: CPX-E$BDSTRMNUM-C
      137     7872                MESSAGE: Must be 2 digits long.
      138     7873                MESSAGE1: LDEV stream number must be 2 digits long.
      139     7874        */
PL6.E3A0      #001=CPX$CONTEXT2 File=CPX$CONTEXT2.:E05TSI                        TUE 07/29/97 12:06 Page:5
      140     7875             %EJECT;
PL6.E3A0      #001=CPX$CONTEXT2 File=CPX$CONTEXT2.:E05TSI                        TUE 07/29/97 12:06 Page:6
      141     7876        %EJECT;
PL6.E3A0      #001=CPX$CONTEXT2 File=CPX$CONTEXT2.:E05TSI                        TUE 07/29/97 12:06 Page:7
      142     7877    1   CPX$BATXEQ: ENTRY (P_PARAM);
      143     7878    1           PTR$ = P_PARAM.OUT$;
      144     7879    2           DO CASE (PTR$ -> P$B.CODE);
      145     7880    2            CASE (BA_FID);
      146     7881        /*
      147     7882             ***** DEVICE fids are not acceptable for input ...
      148     7883        */
      149     7884    2              CALL CNVRT_FID ALTRET(BATXEQ_ERR);
      150     7885    2              IF FID_ASN = %DEVICE#
      151     7886    2              THEN
      152     7887    2                 CALL POSTERR (E_XBAFID);
      153     7888    2            CASE (BA_DFID);
      154     7889        /*
      155     7890             ***** Any valid fid is ok for output ...
      156     7891        */
      157     7892    2              CALL CNVRT_FID ALTRET(BATXEQ_ERR);
      158     7893    2            CASE (BA_KEY);
      159     7894        /*
      160     7895             ***** Make sure that a valid KEY was specified ...
      161     7896        */
      162     7897    2            CASE (BA_NUM);
      163     7898        /*
      164     7899             ***** When positioning by number IBEX uses M$PRECORD.
      165     7900                   The number is an SBIN value. Check that not exceeded ...
      166     7901        */
      167     7902    2              CALL CXX$DECBIN (PTR$ -> P$S.COUNT,VALUE) ALTRET(E_DECBIN);
      168     7903    2              IF VALUE > 67108863
      169     7904    2              THEN
      170     7905    2                 CALL POSTERR (E_XBIG67108863);
      171     7906    2            CASE (BA_STRING);
      172     7907    2              IF PTR$ -> P$B.SUBLK$(0) -> P$S.COUNT = 0
      173     7908    2              THEN
      174     7909    2                 CALL POSTERR (E_XNULLSTRING);
      175     7910    2           END;
      176     7911    1   BATXEQ_ERR:
      177     7912    1           RETURN;
      178     7913                  %EJECT;
PL6.E3A0      #001=CPX$CONTEXT2 File=CPX$CONTEXT2.:E05TSI                        TUE 07/29/97 12:06 Page:8
      179     7914    1   CPX$CHECKNOTIFY: ENTRY (P_PARAM) ;
      180     7915    1           PTR$ = P_PARAM.OUT$ ;
      181     7916    1           IF PTR$ -> P$B.NDTYPE = %DEC#
      182     7917    1           THEN
      183     7918    1              CALL CXX$DECBIN(PTR$->P$S.COUNT,VALUE) ALTRET(E_DECBIN) ;
      184     7919    2           DO CASE(PTR$ -> P$B.CODE) ;
      185     7920    2            CASE(%CH_ACCT) ;
      186     7921    2              IF PTR$ -> P$S.COUNT > 8
      187     7922    2              THEN
      188     7923    2                 CALL POSTERR(E_JPBIGACCT) ;
      189     7924
      190     7925    2            CASE(%CH_AT_WSN) ;
      191     7926    2              IF PTR$ -> P$B.NSUBLKS > 0
      192     7927    2              THEN
      193     7928    2                 IF PTR$ -> P$B.SUBLK$(0) -> P$S.COUNT > 8
      194     7929    2                 THEN
      195     7930    3                    DO ;
      196     7931    3                       PTR$ = PTR$ -> P$B.SUBLK$(0) ;
      197     7932    3                       CALL POSTERR(E_JPBIGWSN) ;
      198     7933    3                    END ; /* THEN DO */
      199     7934
      200     7935    2            CASE(%CH_AT_TERM) ;
      201     7936    2              IF PTR$ -> P$B.NSUBLKS > 0
      202     7937    2              THEN
      203     7938    2                 IF PTR$ -> P$B.SUBLK$(0) -> P$S.COUNT > 8
      204     7939    2                 THEN
      205     7940    3                    DO ;
      206     7941    3                       PTR$ = PTR$ -> P$B.SUBLK$(0) ;
      207     7942    3                       CALL POSTERR(E_CHBIGTERM) ;
      208     7943    3                    END ; /* THEN DO */
      209     7944
      210     7945    2            CASE(%CH_USEFID) ;
      211     7946        /*
      212     7947             ***** DEVICE fids are not acceptable for USE files.
      213     7948        */
      214     7949    2              CALL CNVRT_FID ALTRET(CHECKNOTIFY_ERR) ;
      215     7950    2              IF FID_ASN = %DEVICE#
PL6.E3A0      #001=CPX$CONTEXT2 File=CPX$CONTEXT2.:E05TSI                        TUE 07/29/97 12:06 Page:9
      216     7951    2              THEN
      217     7952    2                 CALL POSTERR(E_XBAFID) ;
      218     7953
      219     7954    2            CASE(%CH_DEV) ;
      220     7955    2              IF PTR$ -> P$S.COUNT > 2
      221     7956    2              THEN
      222     7957    2                 CALL POSTERR(E_CHBIGDEV) ;
      223     7958
      224     7959    2            CASE(%CH_FORM) ;
      225     7960    2              IF PTR$ -> P$S.COUNT > 6
      226     7961    2              THEN
      227     7962    2                 CALL POSTERR(E_CHBIGFORM) ;
      228     7963
      229     7964    2            CASE(%CH_JOBNAME) ;
      230     7965    2              IF PTR$ -> P$S.COUNT > 31
      231     7966    2              THEN
      232     7967    2                 CALL POSTERR(E_JPBIGJNAME);
      233     7968
      234     7969    2            CASE(%CH_SYSID, %CH_SYSID_NUM) ;
      235     7970    2              IF VALUE > 99999
      236     7971    2              THEN
      237     7972    2                 CALL POSTERR(E_JPILLSYSID);
      238     7973
      239     7974    2           END ; /* DO CASE */
      240     7975    1   CHECKNOTIFY_ERR:
      241     7976    1           RETURN ;
      242     7977        %EJECT ;
PL6.E3A0      #001=CPX$CONTEXT2 File=CPX$CONTEXT2.:E05TSI                        TUE 07/29/97 12:06 Page:10
      243     7978    1   CPX$COMMENT: ENTRY (P_PARAM);
      244     7979        /*
      245     7980          ****    CHECK FOR FID ERRORS
      246     7981        */
      247     7982    1           PTR$ = P_PARAM.OUT$;
      248     7983    1           CALL CNVRT_FID ALTRET(COMMENT_ERR);
      249     7984    1   COMMENT_ERR:
      250     7985    1           RETURN;
      251     7986                   %EJECT;
PL6.E3A0      #001=CPX$CONTEXT2 File=CPX$CONTEXT2.:E05TSI                        TUE 07/29/97 12:06 Page:11
      252     7987    1   CPX$DIRECTORY: ENTRY (P_PARAM);
      253     7988    1           PTR$ = P_PARAM.OUT$;
      254     7989    1           CALL CNVRT_FID ALTRET(FID_ERR);
      255     7990        /*
      256     7991          ****    COMMAND ERROR IF OTHER THAN DP#nn.acct OR .acct SPECIFIED
      257     7992          ****    OR IF JUST A PERIOD SPECIFIED.
      258     7993        */
      259     7994    1           IF (FID_RESULTS.ACCT = %NO#) OR (FID_ACCT.ACCT# = ' ') THEN
      260     7995    1              GOTO DIR_ERR;
      261     7996    1           IF ((FID_RESULTS.NAME = %YES#) OR (FID_RESULTS.PASS = %YES#)
      262     7997    1                 OR (FID_RESULTS.WSN = %YES#) OR (FID_ASN ~= %FILE#)) THEN
      263     7998    1              GOTO DIR_ERR;
      264     7999        /*
      265     8000          ****    ONLY ALLOW SPECIFICATION OF ONE SN
      266     8001        */
      267     8002    1           IF FID_SN.NUM# > 1 THEN
      268     8003    1              GOTO DIR_ERR;
      269     8004    1   FID_ERR:
      270     8005    1           RETURN;
      271     8006    1   DIR_ERR:
      272     8007    1           CALL POSTERR(E_XBDIRFID);
      273     8008    1           RETURN;
      274     8009                  %EJECT;
PL6.E3A0      #001=CPX$CONTEXT2 File=CPX$CONTEXT2.:E05TSI                        TUE 07/29/97 12:06 Page:12
      275     8010    1   CPX$DISPLAY: ENTRY (P_PARAM);
      276     8011    1           PTR$ = P_PARAM.OUT$;
      277     8012    1           PTR1$ = PTR$->P$B.SUBLK$(0);
      278     8013        /*
      279     8014        ****    Check for valid dcb name...
      280     8015        */
      281     8016    2           DO CASE(PTR$ -> P$S.CODE);
      282     8017    2            CASE(DDCBOPT);
      283     8018    2              CALL CHK_DCBNAME;
      284     8019    2            CASE(%LDEV_STRM_NAME#) ;
      285     8020    2              IF PTR$->P$S.COUNT ~= 2
      286     8021    2              THEN
      287     8022    2                 CALL POSTERR(E_BDSTRMNAME) ;
      288     8023    2            CASE(%LDEV_STRM_NUM#) ;
      289     8024    2              IF PTR$->P$S.COUNT ~= 2
      290     8025    2              THEN
      291     8026    2                 CALL POSTERR(E_BDSTRMNUM) ;
      292     8027    2           END;
      293     8028    1           RETURN;
      294     8029                   %EJECT;
PL6.E3A0      #001=CPX$CONTEXT2 File=CPX$CONTEXT2.:E05TSI                        TUE 07/29/97 12:06 Page:13
      295     8030    1   CPX$EJECT: ENTRY (P_PARAM);
      296     8031    2           DO INDX=0 TO P_PARAM.OUT$->P$B.NSUBLKS-1;
      297     8032    2              PTR$ = P_PARAM.OUT$->P$B.SUBLK$(INDX);
      298     8033    3              DO CASE(INDX);
      299     8034    3               CASE(0) ;
      300     8035    3                 IF PTR$->P$S.COUNT ~= 2
      301     8036    3                 THEN
      302     8037    3                    CALL POSTERR(E_BDSTRMNAME) ;
      303     8038    3               CASE(1) ;
      304     8039    3                 IF PTR$->P$S.COUNT ~= 2
      305     8040    3                 THEN
      306     8041    3                    CALL POSTERR(E_BDSTRMNUM) ;
      307     8042    3              END; /* Do Case */
      308     8043    2           END; /* Do INDX */
      309     8044    1           RETURN;
      310     8045                   %EJECT;
PL6.E3A0      #001=CPX$CONTEXT2 File=CPX$CONTEXT2.:E05TSI                        TUE 07/29/97 12:06 Page:14
      311     8046    1   CPX$LIST: ENTRY (P_PARAM);
      312     8047        /*
      313     8048          ****    CHECK FOR FID ERRORS
      314     8049        */
      315     8050    1           PTR$ = P_PARAM.OUT$;
      316     8051    1           CALL CNVRT_FID ALTRET(LIST_ERR);
      317     8052    1   LIST_ERR:
      318     8053    1           RETURN;
      319     8054                  %EJECT;
PL6.E3A0      #001=CPX$CONTEXT2 File=CPX$CONTEXT2.:E05TSI                        TUE 07/29/97 12:06 Page:15
      320     8055    1   CPX$GET: ENTRY (P_PARAM);
      321     8056        /*
      322     8057          ****   CHECK FOR FID ERRORS
      323     8058        */
      324     8059    1           PTR$ = P_PARAM.OUT$;
      325     8060    1           CALL CNVRT_FID ALTRET(GET_ERR);
      326     8061        /*
      327     8062          ****    FILE NAME MUST BE SPECIFIED
      328     8063        */
      329     8064    1           IF FID_NAME.L# = 0 THEN
      330     8065    1              CALL POSTERR(E_XNOFILE);
      331     8066    1   GET_ERR:
      332     8067    1           RETURN;
      333     8068                   %EJECT;
PL6.E3A0      #001=CPX$CONTEXT2 File=CPX$CONTEXT2.:E05TSI                        TUE 07/29/97 12:06 Page:16
      334     8069    1   CPX$RUNIT: ENTRY (P_PARAM);
      335     8070        /*
      336     8071          ****   CHECK FOR FID ERRORS
      337     8072        */
      338     8073    1           PTR$ = P_PARAM.OUT$;
      339     8074    1           CALL CNVRT_FID ALTRET(RUNIT_ERR);
      340     8075        /*
      341     8076          ****    RUN UNIT NAME MUST BE SPECIFIED
      342     8077        */
      343     8078    2           DO CASE(PTR$->P$S.CODE);
      344     8079    2            CASE(RUNUNITOPT);
      345     8080    2              IF FID_NAME.L# = 0 THEN
      346     8081    2                 CALL POSTERR(E_XNORU);
      347     8082    2           END;
      348     8083    1   RUNIT_ERR:
      349     8084    1           RETURN;
      350     8085                   %EJECT;
PL6.E3A0      #001=CPX$CONTEXT2 File=CPX$CONTEXT2.:E05TSI                        TUE 07/29/97 12:06 Page:17
      351     8086    1   CPX$RUNQM: ENTRY (P_PARAM);
      352     8087    1           PTR$ = P_PARAM.OUT$;
      353     8088        /*
      354     8089          ****    If run unit name has a '?' in it, reject (back up).
      355     8090        */
      356     8091    2           DO CASE(PTR$->P$S.CODE);
      357     8092    2            CASE(RUNITCMND);
      358     8093    2              PTR$ = PTR$ -> P$B.SUBLK$(0);
      359     8094    2              IF PTR$ -> P$S.COUNT = 0 THEN RETURN;
      360     8095    2              CALL INDEX (INDX, '.', SUBSTR (PTR$ -> P$S.TEXT, 0,
      361     8096    2                    PTR$ -> P$S.COUNT));
      362     8097    2              CALL INDEX (VALUE, '?', SUBSTR (PTR$ -> P$S.TEXT, 0, INDX))
      363     8098    3              WHENRETURN DO;
      364     8099    3                    P_PARAM.CHARPOS = PTR$ -> P$S.CPOS;
      365     8100    3                    P_PARAM.REJECT = %YES#;
      366     8101    3                    IF NOT P_PARAM.PCB$ -> P$PCB.NXT
      367     8102    3                    THEN
      368     8103    3                       P_PARAM.PCB$ -> P$PCB.HI_CHAR = PTR$ -> P$S.CPOS;
      369     8104    3                    RETURN;
      370     8105    3                 END;
      371     8106    2           END;
      372     8107    1           RETURN;
      373     8108                   %EJECT;
PL6.E3A0      #001=CPX$CONTEXT2 File=CPX$CONTEXT2.:E05TSI                        TUE 07/29/97 12:06 Page:18
      374     8109    1   CPX$FIRST_PASS: ENTRY (P_PARAM);
      375     8110    1           PTR$ = P_PARAM.OUT$;
      376     8111        /*
      377     8112          ****    If run unit name call CPX$RUNQM to if a ?' is in it.
      378     8113        */
      379     8114    1   CASE_BLK:
      380     8115    2           DO CASE(PTR$->P$S.CODE);
      381     8116    2            CASE(RUNITCMND);
      382     8117    2              CALL CPX$RUNQM(P_PARAM);
      383     8118
      384     8119    2            CASE(PASSWORDCMND);
      385     8120    2              IF IBEX_PASSWORD
      386     8121    2              THEN EXIT CASE_BLK;
      387     8122    2              P_PARAM.REJECT = %YES#;
      388     8123    2              P_PARAM.CHARPOS = 0;
      389     8124
      390     8125    2            CASE(MESSAGECMND);
      391     8126    2              IF IBEX_MESSAGE
      392     8127    2              THEN EXIT CASE_BLK;
      393     8128    2              P_PARAM.REJECT = %YES#;
      394     8129    2              P_PARAM.CHARPOS = 0;
      395     8130    2           END;
      396     8131    1           RETURN;
      397     8132                   %EJECT;
PL6.E3A0      #001=CPX$CONTEXT2 File=CPX$CONTEXT2.:E05TSI                        TUE 07/29/97 12:06 Page:19
      398     8133    1   CPX$SAVE: ENTRY (P_PARAM);
      399     8134    1           PTR$ = P_PARAM.OUT$;
      400     8135    1           CALL CNVRT_FID ALTRET(SAVE_ERR);
      401     8136        /*
      402     8137          ****     FILE NAME MUST BE SPECIFIED
      403     8138        */
      404     8139    1           IF FID_NAME.L# = 0 THEN
      405     8140    1              CALL POSTERR(E_XNOFILE);
      406     8141    1   SAVE_ERR:
      407     8142    1           RETURN;
      408     8143                  %EJECT;
PL6.E3A0      #001=CPX$CONTEXT2 File=CPX$CONTEXT2.:E05TSI                        TUE 07/29/97 12:06 Page:20
      409     8144    1   CPX$START: ENTRY (P_PARAM);
      410     8145        /*
      411     8146          ****   CHECK FOR FID ERRORS
      412     8147        */
      413     8148    1           PTR$ = P_PARAM.OUT$;
      414     8149    1           CALL CNVRT_FID ALTRET(START_ERR);
      415     8150    2           DO CASE(PTR$->P$S.CODE);
      416     8151    2            CASE(RUNUNITOPT);
      417     8152        /*
      418     8153          ****       RUN UNIT NAME MUST BE SPECIFIED
      419     8154        */
      420     8155    2              IF FID_NAME.L# = 0 THEN
      421     8156    2                 CALL POSTERR(E_XNORU);
      422     8157    2            CASE(SDEBUGOPT);
      423     8158        /*
      424     8159           ****    DEBUGGER NAME CAN'T EXCEED 11 CHARS.
      425     8160        */
      426     8161    2              IF PTR$->P$S.COUNT > 11 THEN
      427     8162    2                 CALL POSTERR(E_XBIGDBUG);
      428     8163    2           END;
      429     8164    1   START_ERR:
      430     8165    1           RETURN;
      431     8166                  %EJECT;
PL6.E3A0      #001=CPX$CONTEXT2 File=CPX$CONTEXT2.:E05TSI                        TUE 07/29/97 12:06 Page:21
      432     8167    1   CPX$U:  ENTRY (P_PARAM);
      433     8168        /*
      434     8169          ****    DEBUGGER NAME CAN'T EXCEED 11 CHARS.
      435     8170        */
      436     8171    1           PTR$ = P_PARAM.OUT$;
      437     8172    1           IF PTR$->P$S.COUNT > 11 THEN
      438     8173    1              CALL POSTERR(E_XBIGDBUG);
      439     8174    1           RETURN;
      440     8175    1   E_DECBIN:
      441     8176    1           CALL POSTERR(E_BDCVAL);
      442     8177    1           RETURN;
      443     8178                  %EJECT;
PL6.E3A0      #001=CPX$CONTEXT2 File=CPX$CONTEXT2.:E05TSI                        TUE 07/29/97 12:06 Page:22
      444     8179    1   CPX$DRIBBLE: ENTRY (P_PARAM);
      445     8180        /*
      446     8181          ****    CHECK FOR FID ERRORS
      447     8182        */
      448     8183    1           PTR$ = P_PARAM.OUT$;
      449     8184    1           CALL CNVRT_FID ALTRET(DRIBBLE_ERR);
      450     8185    1   DRIBBLE_ERR:
      451     8186    1           RETURN;
      452     8187                  %EJECT;
PL6.E3A0      #001=CPX$CONTEXT2 File=CPX$CONTEXT2.:E05TSI                        TUE 07/29/97 12:06 Page:23
      453     8188        /**********************************************************************/
      454     8189        /*I*      NAME:CNVRT_FID
      455     8190                  PURPOSE:  BREAKS UP A FID INTO ITS VARIOUS COMPONENTS
      456     8191                  INPUT:    PTR$->P$S.TEXT
      457     8192                  OUTPUT:   FID into various vlp's
      458     8193                            errors output resulting from M$FID pmme execution
      459     8194                            Password blanked out in seg$2.cpbuff
      460     8195        */
      461     8196        /**********************************************************************/
      462     8197    1   CNVRT_FID: PROC ALTRET;
      463     8198        /*
      464     8199          ****    BREAK UP THE FID
      465     8200        */
      466     8201    2              FPT_FID =CFPT_FID;
      467     8202    2              FPT_FID.V_=VECTOR(FPT_FID.V);
      468     8203    2              FPT_FID.SN_ = VECTOR(FID_SN);
      469     8204    2              FPT_FID.WSN_ = VECTOR(FID_WSN);
      470     8205    2              FPT_FID.ASN_ = VECTOR(FID_ASN);
      471     8206    2              FPT_FID.RES_ = VECTOR(FID_RES);
      472     8207    2              FPT_FID.NAME_ = VECTOR(FID_NAME);
      473     8208    2              FPT_FID.ACCT_ = VECTOR(FID_ACCT);
      474     8209    2              FPT_FID.PASS_ = VECTOR(FID_PASS);
      475     8210    2              FPT_FID.RESULTS_ = VECTOR(FID_RESULTS);
      476     8211    2              FPT_FID.TEXTFID_ = VECTOR(PTR$->P$S.TEXT);
      477     8212    2              CALL M$FID(FPT_FID) ALTRET(CNVRT_FID50);
      478     8213    2              RETURN;
      479     8214    2   CNVRT_FID50:
      480     8215    2              CALL POSTERR (B$TCB.ALT$ -> B$EXCFR.ERR);
      481     8216    2              ALTRETURN;
      482     8217    2      END CNVRT_FID;
      483     8218                 %EJECT;
PL6.E3A0      #001=CPX$CONTEXT2 File=CPX$CONTEXT2.:E05TSI                        TUE 07/29/97 12:06 Page:24
      484     8219        /**********************************************************************/
      485     8220        /*I*      NAME:   CHK_DCBNAME
      486     8221                  PURPOSE: VALIDATE A DCB NAME
      487     8222                  INPUT:   PTR$->P$S
      488     8223                           PTR1$->P$B
      489     8224        */
      490     8225        /**********************************************************************/
      491     8226    1   CHK_DCBNAME: PROC ;
      492     8227    2   DCL I SBIN;
      493     8228    2   DCL J SBIN;
      494     8229    2   DCL 1 DCBNAME BASED UNAL,
      495     8230    2         2 COUNT UBIN(9) UNAL,
      496     8231    2         2 TEXT(0:0) CHAR(1);
      497     8232        /**/
      498     8233        /**/
      499     8234        /*
      500     8235          ****    CHECK DCB LENGTH ... CAN'T EXCEED 29 CHARS, IF FORTRAN TYPE.
      501     8236                  OTHERWISE 31 CHARS. MAX.
      502     8237        */
      503     8238    2              IF PTR$->P$S.COUNT > 29 THEN
      504     8239    3                 DO;
      505     8240    3                    I = PTR$->P$S.COUNT-1;           /*CHK IF UNIT NUMBER SPEC'D*/
      506     8241    3                    J = 0;
      507     8242    4                    DO WHILE (I>=0);
      508     8243    4                       IF (PTR1$->DCBNAME.TEXT(I) >= '0' AND
      509     8244    4                             PTR1$->DCBNAME.TEXT(I) <= '9') THEN
      510     8245    4                          J = J+1;
      511     8246    4                       ELSE ;
      512     8247    4                       I = I-1;
      513     8248    4                    END;
      514     8249    3                    IF (J > 29) OR (PTR$->P$S.COUNT > 31) THEN
      515     8250    3                       CALL POSTERR(E_XBIGDCB);
      516     8251    3                 END;
      517     8252    2              ELSE
      518     8253    2                 IF (PTR$->P$S.TEXT = 'M$UC' OR
      519     8254    2                       PTR$->P$S.TEXT = 'M$LM') THEN
      520     8255    2                    CALL POSTERR(E_XILLDCB);
PL6.E3A0      #001=CPX$CONTEXT2 File=CPX$CONTEXT2.:E05TSI                        TUE 07/29/97 12:06 Page:25
      521     8256    2              RETURN;
      522     8257    2      END CHK_DCBNAME;
      523     8258        %EJECT;
PL6.E3A0      #001=CPX$CONTEXT2 File=CPX$CONTEXT2.:E05TSI                        TUE 07/29/97 12:06 Page:26
      524     8259        /******************************************************************************/
      525     8260        /*I*      NAME: POSTERR
      526     8261                  PURPOSE: Calls CXP$POSTERR with appropriate parameters.
      527     8262                  INPUT: The parameter is an error code.  PTR$ points to the offending
      528     8263                         parse output block.
      529     8264        */
      530     8265        /******************************************************************************/
      531     8266    1   POSTERR:   PROC(ERRCODE);
      532     8267    2   DCL ERRCODE BIT(36) ALIGNED;
      533     8268        /**/
      534     8269    2              CALL CXP$POSTERR(U$PARAM.ERRBUF$,PTR$->P$B.CPOS,ERRCODE);
      535     8270    2              RETURN;
      536     8271    2      END POSTERR;
      537     8272    1   END CPX$CONTEXT2;

PL6.E3A0      #001=CPX$CONTEXT2 File=CPX$CONTEXT2.:E05TSI                        TUE 07/29/97 12:06 Page:27
--  Include file information  --

   UM_ERRORS_C.:E05TOU  is referenced.
   JG_GHOSTS_C.:E05TOU  is referenced.
   XU_SUBS_C.:E05TOU  is referenced.
   XU_MACRO_C.:E05TOU  is referenced.
   CP_6_SUBS.:E05TOU  is referenced.
   CP_PERR_C.:E05TOU  is referenced.
   CP_SUBS_C.:E05TOU  is referenced.
   CP_MACROS_C.:E05TOU  is referenced.
   CP_6.:E05TOU  cannot be made into a system file and is referenced.
   B_MACROS_C.:E05TOU  is referenced.
   B$JIT.:E05TOU  cannot be made into a system file and is referenced.
   B$JIT_C.:E05TOU  was found in the system file and is referenced.
   CP_6_C.:E05TOU  was found in the system file and is referenced.
      No diagnostics issued in procedure CPX$CONTEXT2.

   Procedure CPX$CONTEXT2 requires 1182 words for executable code.
   Procedure CPX$CONTEXT2 requires 146 words of local(AUTO) storage.

    No errors detected in file CPX$CONTEXT2.:E05TSI    .

PL6.E3A0      #001=CPX$CONTEXT2 File=CPX$CONTEXT2.:E05TSI                        TUE 07/29/97 12:06 Page:28

 Object Unit name= CPX$CONTEXT2                               File name= CPX$CONTEXT2.:E05TOU
 UTS= JUL 29 '97 12:06:12.84 TUE                              Compiler= PL-6/E31         Sev=      00
 SharedLib= :SHARED_SYSTEM                                    Alt SharedLib=


    ****  Control sections  ****

 Sect   Type Bound  Init  Size OctSiz  Section name(segment info)
    0   DCB   even  none     0      0  M$UC
    1  RoData even  UTS     48     60  CPX$CONTEXT2
    2   Proc  even  none  1182   2236  CPX$CONTEXT2
    3  RoData even  none    33     41  CPX$CONTEXT2

    ****  Entry defs  ****

                              Check   Calling
                             calling  sequence
  Sect OctLoc Primary Altret sequence   type   Parms  Name
     2      0   yes            yes      Std        1  CPX$CONTEXT2
     2      3                  yes      Std        1  CPX$BATXEQ
     2    106                  yes      Std        1  CPX$CHECKNOTIFY
     2   1270                  yes      Std        1  CPX$COMMENT
     2   1300                  yes      Std        1  CPX$DIRECTORY
     2   1341                  yes      Std        1  CPX$DISPLAY
     2   1410                  yes      Std        1  CPX$EJECT
     2   1465                  yes      Std        1  CPX$LIST
     2   1475                  yes      Std        1  CPX$GET
     2   1514                  yes      Std        1  CPX$RUNIT
     2   1542                  yes      Std        1  CPX$RUNQM
     2   1621                  yes      Std        1  CPX$FIRST_PASS
     2   1705                  yes      Std        1  CPX$SAVE
     2   1724                  yes      Std        1  CPX$START
     2   1764                  yes      Std        1  CPX$U
     2   2010                  yes      Std        1  CPX$DRIBBLE
PL6.E3A0      #001=CPX$CONTEXT2 File=CPX$CONTEXT2.:E05TSI                        TUE 07/29/97 12:06 Page:29

  ****  Data defs  ****

 Sect OctLoc  Name                           Sect OctLoc  Name
    1      0  IBEX_PASSWORD                      1      1  IBEX_MESSAGE

  ****  Entry refs  ****

         Check        Calling
        calling       sequence
Altret sequence SRef   type   Args  Name
 yes     yes           Std       2 CXX$DECBIN
         yes           Std       5 CXP$POSTERR
                       nStd      0 X66_AUTO_1
                       Std       0 B_CONSPOOL_D
                       nStd      0 X66_ARET

  ****  Data refs  ****

  Flags:  r = read only, s = secondary
Flgs Name                             Flgs Name                             Flgs Name
     M$UC                                  B$JIT$                                B$TCB$
     B_VECTNIL

  ****  Segment refs  ****

  Flags:  r = read only, s = secondary
Flgs Name                             Flgs Name                             Flgs Name
     ISSID                                 NULLSID
PL6.E3A0      #001=CPX$CONTEXT2 File=CPX$CONTEXT2.:E05TSI                        TUE 07/29/97 12:06 Page:30


        1        1        /*M*    CPX$CONTEXT2    subroutine which checks for context errors for IBEX   */
        2        2        /*T***********************************************************/
        3        3        /*T*                                                         */
        4        4        /*T* Copyright (c) Bull HN Information Systems Inc., 1997    */
        5        5        /*T*                                                         */
        6        6        /*T***********************************************************/
        7        7        /*X*    AND,DMC,IPC,IND=3,CTI=6,ECU=3,DCI=3,DTI=3                             */
        8        8        /*P*    NAME: CPX$CONTEXT2
        9        9                PURPOSE: To check for context errors for IBEX                         */
       10       10        /******************************************************************************/
       11       11        CPX$CONTEXT2:
       12       12                PROC (P_PARAM);

     12  2 000000   000000 700200 xent  CPX$CONTEXT2 TSX0  ! X66_AUTO_1
         2 000001   000222 000001                    ZERO    146,1
         2 000002   000005 710000 2                  TRA     s:7878

       13       13        /***** include files *****/
       14       14          %INCLUDE B$JIT;
       15      304        %INCLUDE B_MACROS_C;
       16      415          %INCLUDE CP_6;
       17      496          %INCLUDE CP_MACROS_C;
       18     1248          %INCLUDE CP_SUBS_C;
       19     2165          %INCLUDE CP_PERR_C;
       20     2503          %INCLUDE CP_6_SUBS;
       21     3043          %INCLUDE XU_MACRO_C;
       22     6149          %INCLUDE XU_SUBS_C;
       23     6241          %INCLUDE JG_GHOSTS_C;
       24     6331          %INCLUDE UM_ERRORS_C;
       25     6365        /**/
       26     6366        /***** fpts *****/
       27     6367          %FPT_FID (FPTN=FPT_FID,STCLASS=AUTO);
       28     6390          %PARSE$PARAM (NAME=P_PARAM);
       29     6471          %PARSE$SYM (NAME=P$S,STCLASS=BASED,SCRMODE="BIT(18)");
       30     6509          %PARSE$OUT (NAME=P$B,STCLASS=BASED);
       31     6554          %P$PCB (NAME=P$PCB,STCLASS=BASED);
PL6.E3A0      #001=CPX$CONTEXT2 File=CPX$CONTEXT2.:E05TSI                        TUE 07/29/97 12:06 Page:31
       32     6755          %U$PARAM (NAME=U$PARAM,STCLASS="BASED(P_PARAM.USER$)");
       33     6771          %VLR_FID (FPTN=FID_RESULTS,STCLASS=AUTO);
       34     6790          %VLP_NAME (FPTN=FID_NAME,STCLASS=AUTO,LEN=31);
       35     6817          %VLP_SN (FPTN=FID_SN,STCLASS=AUTO,N=50);
       36     6830          %VLP_ACCT (FPTN=FID_ACCT,STCLASS=AUTO);
       37     6843          %VLP_PASS (FPTN=FID_PASS,STCLASS=AUTO);
       38     6856          %VLP_WSN (FPTN=FID_WSN,STCLASS=AUTO);
       39     6869        /***** symrefs *****/
       40     6870    1   DCL B$JIT$ PTR SYMREF;
       41     6871    1   DCL B$TCB$ PTR SYMREF;
       42     6872        /***** symdefs *****/
       43     6873    1   DCL IBEX_PASSWORD BIT(1) CONSTANT SYMDEF INIT('1'B);
       44     6874    1   DCL IBEX_MESSAGE BIT(1) CONSTANT SYMDEF INIT('1'B);
       45     6875        /***** constant data *****/
       46     6876        %FPT_FID (FPTN=CFPT_FID,STCLASS=CONSTANT);
       47     6899        /***** external routines *****/
       48     6900    1   DCL CXP$POSTERR ENTRY(5);
       49     6901    1   DCL CXX$DECBIN ENTRY(2) ALTRET;
       50     6902    1   DCL CXX$OCTBIN ENTRY(2) ALTRET;
       51     6903        /***** declarations *****/
       52     6904        %CP_BLANK_PASS_INFO (STCLASS=AUTO);
       53     6909    1   DCL PTR$ PTR AUTO;
       54     6910    1   DCL PTR1$ PTR AUTO;
       55     6911    1   DCL VALUE SBIN WORD AUTO;
       56     6912    1   DCL INDX UBIN WORD AUTO;
       57     6913    1   DCL FID_ASN UBIN(9);
       58     6914    1   DCL FID_RES CHAR(4);
       59     6915    1   DCL SBINMAX_O BIT(36) CONSTANT INIT('377777777776'O);
       60     6916    1   DCL SBINMAX REDEF SBINMAX_O SBIN WORD;
       61     6917        /***** Based structures *****/
       62     6918        %B$TCB (STCLASS="BASED(B$TCB$)");
       63     6921        %B$EXCFR;
       64     6939        %ERR_BLK (NAME=ERR$BLK,STCLASS=BASED);
       65     6964    1   DCL BUFF$TEXT CHAR(%CPBUFFSIZE) BASED;
       66     6965        %EJECT;
PL6.E3A0      #001=CPX$CONTEXT2 File=CPX$CONTEXT2.:E05TSI                        TUE 07/29/97 12:06 Page:32
       67     6966        /***** error msgs *****/
       68     6967        %VLP_ERRCODE (FPTN=E_BDCVAL,FCG=CP,ERR#=E$BDCVAL,MID=X,STCLASS=CONSTANT);
       69     7012        %VLP_ERRCODE (FPTN=E_XBAFID,FCG=CP,MID=X,ERR#=E$XBAFID,STCLASS=CONSTANT);
       70     7057        /*E*    ERROR: CPX-E$XBAFID
       71     7058                MESSAGE: May not be a device fid.
       72     7059        */
       73     7060        %VLP_ERRCODE (FPTN=E_XBDIRFID,FCG=CP,ERR#=E$XBDIRFID,MID=X,STCLASS=CONSTANT);
       74     7105        /*E*    ERROR: CPX-E$XBDIRFID-0
       75     7106                MESSAGE: FID may only consist of DP#SN.ACCOUNT or .ACCOUNT
       76     7107        */
       77     7108        %VLP_ERRCODE (FPTN=E_XNORU,FCG=CP,ERR#=E$XNORU,MID=X,STCLASS=CONSTANT);
       78     7153        /*E*    ERROR: CPX-E$XNORU-0
       79     7154                MESSAGE: Run unit unspecified
       80     7155                DESCRIPTION: A run unit name wasn't specified, probably the user
       81     7156                             typed only a period.
       82     7157        */
       83     7158        %VLP_ERRCODE (FPTN=E_XNOFILE,FCG=CP,ERR#=E$XNOFILE,MID=X,STCLASS=CONSTANT);
       84     7203        /*E*    ERROR: CPX-E$XNOFILE-0
       85     7204                MESSAGE: File name unspecified
       86     7205        */
       87     7206        %VLP_ERRCODE (FPTN=E_XBIGDBUG,FCG=CP,ERR#=E$XBIGDBUG,MID=X,STCLASS=CONSTANT);
       88     7251        /*E*    ERROR: CPX-E$XBIGDBUG-0
       89     7252                MESSAGE: Debug processor name greater than 11 characters
       90     7253        */
       91     7254        %VLP_ERRCODE (FPTN=E_XBIGDCB,ERR#=E$XBIGDCB,FCG=CP,MID=X,
       92     7255                        STCLASS=CONSTANT) ;
       93     7300        /*E*    ERROR: CPX-E$XBIGDCB-0
       94     7301                MESSAGE: DCB name too long
       95     7302                MESSAGE1: DCB name > 31 characters or unit number > 29 digits
       96     7303         */
       97     7304        %VLP_ERRCODE (FPTN=E_XILLDCB,ERR#=E$XILLDCB,FCG=CP,MID=X,
       98     7305                        STCLASS=CONSTANT) ;
       99     7350        /*E*    ERROR: CPX-E$XILLDCB-0
      100     7351                MESSAGE: Illegal DCB name specified
      101     7352                MESSAGE1: DCB names M$UC and M$LM disallowed
      102     7353        */
      103     7354        %VLP_ERRCODE (FPTN=E_XNULLSTRING,ERR#=E$XNULLSTRING,FCG=CP,MID=X,
PL6.E3A0      #001=CPX$CONTEXT2 File=CPX$CONTEXT2.:E05TSI                        TUE 07/29/97 12:06 Page:33
      104     7355                        STCLASS=CONSTANT) ;
      105     7400        /*E*    ERROR: CPX-E$XNULLSTRING-C
      106     7401                MESSAGE: Illegal use of the NULL string.
      107     7402                MESSAGE1: The NULL string is illegal on the left side of a substitution.
      108     7403        */
      109     7404       %VLP_ERRCODE (FPTN=E_XBIG67108863,FCG=CP,ERR#=E$XBIG67108863,MID=X,STCLASS=CONSTANT)
              7404            ;
      110     7449        /*E*    ERROR:   CPX-E$XBIG67108863-0
      111     7450                MESSAGE: Value greater than 67108863.
      112     7451                MESSAGE1: START or END record number must be less than 2**26
      113     7452        */
      114     7453        %VLP_ERRCODE (FPTN=E_JPBIGACCT,FCG=CP,MID=X,ERR#=E$JPBIGACCT,STCLASS=CONSTANT);
      115     7498        %VLP_ERRCODE(FPTN=E_JPBIGJNAME,FCG=CP,MID=X,ERR#=E$JPBIGJNAME,STCLASS=CONSTANT);
      116     7543        %VLP_ERRCODE (FPTN=E_JPILLSYSID,FCG=CP,MID=X,ERR#=E$JPILLSYSID,STCLASS=CONSTANT);
      117     7588        %VLP_ERRCODE (FPTN=E_JPBIGWSN,FCG=CP,MID=X,ERR#=E$JPBIGWSN,STCLASS=CONSTANT);
      118     7633        %VLP_ERRCODE (FPTN=E_CHBIGFORM,FCG=CP,ERR#=E$CHBIGFORM,MID=X,STCLASS=CONSTANT);
      119     7678        /*E*   ERROR: CPX-E$CHBIGFORM-0
      120     7679                MESSAGE: FORM name greater than 6 characters
      121     7680        */
      122     7681        %VLP_ERRCODE (FPTN=E_CHBIGTERM,FCG=CP,ERR#=E$CHBIGTERM,MID=X,STCLASS=CONSTANT);
      123     7726        /*E*   ERROR: CPX-E$CHBIGTERM-0
      124     7727                MESSAGE: TERM name greater than 8 characters
      125     7728        */
      126     7729        %VLP_ERRCODE (FPTN=E_CHBIGDEV,FCG=CP,ERR#=E$CHBIGDEV,MID=X,STCLASS=CONSTANT);
      127     7774        /*E*   ERROR: CPX-E$CHBIGDEV-0
      128     7775                MESSAGE: DEV name greater than 2 characters
      129     7776        */
      130     7777        %VLP_ERRCODE (FPTN=E_BDSTRMNAME,MID=X,ERR#=E$BDSTRMNAME,FCG=CP,STCLASS=CONSTANT);
      131     7822        /*E*    ERROR: CPX-E$BDSTRMNAME-C
      132     7823                MESSAGE: Must be 2 characters long.
      133     7824                MESSAGE1: LDEV stream name must be 2 characters long.
      134     7825        */
      135     7826        %VLP_ERRCODE (FPTN=E_BDSTRMNUM,MID=X,ERR#=E$BDSTRMNUM,FCG=CP,STCLASS=CONSTANT);
      136     7871        /*E*    ERROR: CPX-E$BDSTRMNUM-C
      137     7872                MESSAGE: Must be 2 digits long.
      138     7873                MESSAGE1: LDEV stream number must be 2 digits long.
      139     7874        */
PL6.E3A0      #001=CPX$CONTEXT2 File=CPX$CONTEXT2.:E05TSI                        TUE 07/29/97 12:06 Page:34
      140     7875             %EJECT;
PL6.E3A0      #001=CPX$CONTEXT2 File=CPX$CONTEXT2.:E05TSI                        TUE 07/29/97 12:06 Page:35
      141     7876        %EJECT;
PL6.E3A0      #001=CPX$CONTEXT2 File=CPX$CONTEXT2.:E05TSI                        TUE 07/29/97 12:06 Page:36
      142     7877    1   CPX$BATXEQ: ENTRY (P_PARAM);

   7877  2 000003   000000 700200 xent  CPX$BATXEQ   TSX0  ! X66_AUTO_1
         2 000004   000222 000001                    ZERO    146,1

      143     7878    1           PTR$ = P_PARAM.OUT$;

   7878  2 000005   200003 470500                    LDP0    @P_PARAM,,AUTO
         2 000006   000002 236100                    LDQ     2,,PR0
         2 000007   200201 756100                    STQ     PTR$,,AUTO

      144     7879    2           DO CASE (PTR$ -> P$B.CODE);

   7879  2 000010   200201 471500                    LDP1    PTR$,,AUTO
         2 000011   100000 720100                    LXL0    0,,PR1
         2 000012   000022 100003                    CMPX0   18,DU
         2 000013   000015 602010 2                  TNC     s:7879+5,X0
         2 000014   000105 710000 2                  TRA     BATXEQ_ERR
         2 000015   000105 710000 2                  TRA     BATXEQ_ERR
         2 000016   000105 710000 2                  TRA     BATXEQ_ERR
         2 000017   000052 710000 2                  TRA     s:7892
         2 000020   000105 710000 2                  TRA     BATXEQ_ERR
         2 000021   000037 710000 2                  TRA     s:7884
         2 000022   000105 710000 2                  TRA     BATXEQ_ERR
         2 000023   000105 710000 2                  TRA     BATXEQ_ERR
         2 000024   000105 710000 2                  TRA     BATXEQ_ERR
         2 000025   000105 710000 2                  TRA     BATXEQ_ERR
         2 000026   000105 710000 2                  TRA     BATXEQ_ERR
         2 000027   000105 710000 2                  TRA     BATXEQ_ERR
         2 000030   000055 710000 2                  TRA     s:7902
         2 000031   000105 710000 2                  TRA     BATXEQ_ERR
         2 000032   000105 710000 2                  TRA     BATXEQ_ERR
         2 000033   000105 710000 2                  TRA     BATXEQ_ERR
         2 000034   000105 710000 2                  TRA     BATXEQ_ERR
         2 000035   000105 710000 2                  TRA     BATXEQ_ERR
         2 000036   000075 710000 2                  TRA     s:7907

PL6.E3A0      #001=CPX$CONTEXT2 File=CPX$CONTEXT2.:E05TSI                        TUE 07/29/97 12:06 Page:37
      145     7880    2            CASE (BA_FID);

      146     7881        /*
      147     7882             ***** DEVICE fids are not acceptable for input ...
      148     7883        */
      149     7884    2              CALL CNVRT_FID ALTRET(BATXEQ_ERR);

   7884  2 000037   002020 701000 2                  TSX1    CNVRT_FID
         2 000040   000105 702000 2                  TSX2    BATXEQ_ERR

      150     7885    2              IF FID_ASN = %DEVICE#

   7885  2 000041   200205 236100                    LDQ     FID_ASN,,AUTO
         2 000042   777000 376003                    ANQ     -512,DU
         2 000043   003000 116003                    CMPQ    1536,DU
         2 000044   000105 601000 2                  TNZ     BATXEQ_ERR

      151     7886    2              THEN
      152     7887    2                 CALL POSTERR (E_XBAFID);

   7887  2 000045   000000 236000 3                  LDQ     0
         2 000046   200215 756100                    STQ     J+3,,AUTO
         2 000047   002217 701000 2                  TSX1    POSTERR
         2 000050   000000 011000                    NOP     0
         2 000051   000105 710000 2                  TRA     BATXEQ_ERR

      153     7888    2            CASE (BA_DFID);

      154     7889        /*
      155     7890             ***** Any valid fid is ok for output ...
      156     7891        */
      157     7892    2              CALL CNVRT_FID ALTRET(BATXEQ_ERR);

   7892  2 000052   002020 701000 2                  TSX1    CNVRT_FID
         2 000053   000105 702000 2                  TSX2    BATXEQ_ERR
         2 000054   000105 710000 2                  TRA     BATXEQ_ERR

PL6.E3A0      #001=CPX$CONTEXT2 File=CPX$CONTEXT2.:E05TSI                        TUE 07/29/97 12:06 Page:38
      158     7893    2            CASE (BA_KEY);

      159     7894        /*
      160     7895             ***** Make sure that a valid KEY was specified ...
      161     7896        */
      162     7897    2            CASE (BA_NUM);

      163     7898        /*
      164     7899             ***** When positioning by number IBEX uses M$PRECORD.
      165     7900                   The number is an SBIN value. Check that not exceeded ...
      166     7901        */
      167     7902    2              CALL CXX$DECBIN (PTR$ -> P$S.COUNT,VALUE) ALTRET(E_DECBIN);

   7902  2 000055   200203 633500                    EPPR3   VALUE,,AUTO
         2 000056   200217 453500                    STP3    @ERRCODE+2,,AUTO
         2 000057   000004 036003                    ADLQ    4,DU
         2 000060   200216 756100                    STQ     @ERRCODE+1,,AUTO
         2 000061   200216 630500                    EPPR0   @ERRCODE+1,,AUTO
         2 000062   000020 631400 xsym               EPPR1   B_VECTNIL+16
         2 000063   000000 701000 xent               TSX1    CXX$DECBIN
         2 000064   002003 702000 2                  TSX2    E_DECBIN

      168     7903    2              IF VALUE > 67108863

   7903  2 000065   200203 235100                    LDA     VALUE,,AUTO
         2 000066   000001 115000 3                  CMPA    1
         2 000067   000105 604400 2                  TMOZ    BATXEQ_ERR

      169     7904    2              THEN
      170     7905    2                 CALL POSTERR (E_XBIG67108863);

   7905  2 000070   000002 236000 3                  LDQ     2
         2 000071   200215 756100                    STQ     J+3,,AUTO
         2 000072   002217 701000 2                  TSX1    POSTERR
         2 000073   000000 011000                    NOP     0
         2 000074   000105 710000 2                  TRA     BATXEQ_ERR

PL6.E3A0      #001=CPX$CONTEXT2 File=CPX$CONTEXT2.:E05TSI                        TUE 07/29/97 12:06 Page:39
      171     7906    2            CASE (BA_STRING);

      172     7907    2              IF PTR$ -> P$B.SUBLK$(0) -> P$S.COUNT = 0

   7907  2 000075   100003 473500                    LDP3    3,,PR1
         2 000076   300004 236100                    LDQ     4,,PR3
         2 000077   777000 316003                    CANQ    -512,DU
         2 000100   000105 601000 2                  TNZ     BATXEQ_ERR

      173     7908    2              THEN
      174     7909    2                 CALL POSTERR (E_XNULLSTRING);

   7909  2 000101   000003 236000 3                  LDQ     3
         2 000102   200215 756100                    STQ     J+3,,AUTO
         2 000103   002217 701000 2                  TSX1    POSTERR
         2 000104   000000 011000                    NOP     0

      175     7910    2           END;

      176     7911    1   BATXEQ_ERR:
      177     7912    1           RETURN;

   7912  2 000105   000000 702200 xent  BATXEQ_ERR   TSX2  ! X66_ARET

      178     7913                  %EJECT;
PL6.E3A0      #001=CPX$CONTEXT2 File=CPX$CONTEXT2.:E05TSI                        TUE 07/29/97 12:06 Page:40
      179     7914    1   CPX$CHECKNOTIFY: ENTRY (P_PARAM) ;

   7914  2 000106   000000 700200 xent  CPX$CHECKNO* TSX0  ! X66_AUTO_1
         2 000107   000222 000001                    ZERO    146,1

      180     7915    1           PTR$ = P_PARAM.OUT$ ;

   7915  2 000110   200003 470500                    LDP0    @P_PARAM,,AUTO
         2 000111   000002 236100                    LDQ     2,,PR0
         2 000112   200201 756100                    STQ     PTR$,,AUTO

      181     7916    1           IF PTR$ -> P$B.NDTYPE = %DEC#

   7916  2 000113   200201 471500                    LDP1    PTR$,,AUTO
         2 000114   100000 236100                    LDQ     0,,PR1
         2 000115   000077 376003                    ANQ     63,DU
         2 000116   000022 116003                    CMPQ    18,DU
         2 000117   000131 601000 2                  TNZ     s:7919

      182     7917    1           THEN
      183     7918    1              CALL CXX$DECBIN(PTR$->P$S.COUNT,VALUE) ALTRET(E_DECBIN) ;

   7918  2 000120   200203 633500                    EPPR3   VALUE,,AUTO
         2 000121   200217 453500                    STP3    @ERRCODE+2,,AUTO
         2 000122   200201 236100                    LDQ     PTR$,,AUTO
         2 000123   000004 036003                    ADLQ    4,DU
         2 000124   200216 756100                    STQ     @ERRCODE+1,,AUTO
         2 000125   200216 630500                    EPPR0   @ERRCODE+1,,AUTO
         2 000126   000020 631400 xsym               EPPR1   B_VECTNIL+16
         2 000127   000000 701000 xent               TSX1    CXX$DECBIN
         2 000130   002003 702000 2                  TSX2    E_DECBIN

      184     7919    2           DO CASE(PTR$ -> P$B.CODE) ;

   7919  2 000131   200201 470500                    LDP0    PTR$,,AUTO
         2 000132   000000 720100                    LXL0    0,,PR0
         2 000133   001007 100003                    CMPX0   519,DU
PL6.E3A0      #001=CPX$CONTEXT2 File=CPX$CONTEXT2.:E05TSI                        TUE 07/29/97 12:06 Page:41
         2 000134   000136 602010 2                  TNC     s:7919+5,X0
         2 000135   001267 710000 2                  TRA     CHECKNOTIFY_ERR
         2 000136   001267 710000 2                  TRA     CHECKNOTIFY_ERR
         2 000137   001247 710000 2                  TRA     s:7965
         2 000140   001267 710000 2                  TRA     CHECKNOTIFY_ERR
         2 000141   001267 710000 2                  TRA     CHECKNOTIFY_ERR
         2 000142   001267 710000 2                  TRA     CHECKNOTIFY_ERR
         2 000143   001267 710000 2                  TRA     CHECKNOTIFY_ERR
         2 000144   001267 710000 2                  TRA     CHECKNOTIFY_ERR
         2 000145   001267 710000 2                  TRA     CHECKNOTIFY_ERR
         2 000146   001267 710000 2                  TRA     CHECKNOTIFY_ERR
         2 000147   001267 710000 2                  TRA     CHECKNOTIFY_ERR
         2 000150   001267 710000 2                  TRA     CHECKNOTIFY_ERR
         2 000151   001267 710000 2                  TRA     CHECKNOTIFY_ERR
         2 000152   001267 710000 2                  TRA     CHECKNOTIFY_ERR
         2 000153   001267 710000 2                  TRA     CHECKNOTIFY_ERR
         2 000154   001267 710000 2                  TRA     CHECKNOTIFY_ERR
         2 000155   001267 710000 2                  TRA     CHECKNOTIFY_ERR
         2 000156   001267 710000 2                  TRA     CHECKNOTIFY_ERR
         2 000157   001267 710000 2                  TRA     CHECKNOTIFY_ERR
         2 000160   001267 710000 2                  TRA     CHECKNOTIFY_ERR
         2 000161   001267 710000 2                  TRA     CHECKNOTIFY_ERR
         2 000162   001267 710000 2                  TRA     CHECKNOTIFY_ERR
         2 000163   001267 710000 2                  TRA     CHECKNOTIFY_ERR
         2 000164   001267 710000 2                  TRA     CHECKNOTIFY_ERR
         2 000165   001267 710000 2                  TRA     CHECKNOTIFY_ERR
         2 000166   001267 710000 2                  TRA     CHECKNOTIFY_ERR
         2 000167   001267 710000 2                  TRA     CHECKNOTIFY_ERR
         2 000170   001267 710000 2                  TRA     CHECKNOTIFY_ERR
         2 000171   001267 710000 2                  TRA     CHECKNOTIFY_ERR
         2 000172   001267 710000 2                  TRA     CHECKNOTIFY_ERR
         2 000173   001267 710000 2                  TRA     CHECKNOTIFY_ERR
         2 000174   001267 710000 2                  TRA     CHECKNOTIFY_ERR
         2 000175   001267 710000 2                  TRA     CHECKNOTIFY_ERR
         2 000176   001267 710000 2                  TRA     CHECKNOTIFY_ERR
         2 000177   001267 710000 2                  TRA     CHECKNOTIFY_ERR
         2 000200   001267 710000 2                  TRA     CHECKNOTIFY_ERR
PL6.E3A0      #001=CPX$CONTEXT2 File=CPX$CONTEXT2.:E05TSI                        TUE 07/29/97 12:06 Page:42
         2 000201   001267 710000 2                  TRA     CHECKNOTIFY_ERR
         2 000202   001267 710000 2                  TRA     CHECKNOTIFY_ERR
         2 000203   001267 710000 2                  TRA     CHECKNOTIFY_ERR
         2 000204   001267 710000 2                  TRA     CHECKNOTIFY_ERR
         2 000205   001267 710000 2                  TRA     CHECKNOTIFY_ERR
         2 000206   001267 710000 2                  TRA     CHECKNOTIFY_ERR
         2 000207   001267 710000 2                  TRA     CHECKNOTIFY_ERR
         2 000210   001267 710000 2                  TRA     CHECKNOTIFY_ERR
         2 000211   001267 710000 2                  TRA     CHECKNOTIFY_ERR
         2 000212   001267 710000 2                  TRA     CHECKNOTIFY_ERR
         2 000213   001267 710000 2                  TRA     CHECKNOTIFY_ERR
         2 000214   001267 710000 2                  TRA     CHECKNOTIFY_ERR
         2 000215   001267 710000 2                  TRA     CHECKNOTIFY_ERR
         2 000216   001267 710000 2                  TRA     CHECKNOTIFY_ERR
         2 000217   001267 710000 2                  TRA     CHECKNOTIFY_ERR
         2 000220   001267 710000 2                  TRA     CHECKNOTIFY_ERR
         2 000221   001267 710000 2                  TRA     CHECKNOTIFY_ERR
         2 000222   001267 710000 2                  TRA     CHECKNOTIFY_ERR
         2 000223   001267 710000 2                  TRA     CHECKNOTIFY_ERR
         2 000224   001267 710000 2                  TRA     CHECKNOTIFY_ERR
         2 000225   001267 710000 2                  TRA     CHECKNOTIFY_ERR
         2 000226   001267 710000 2                  TRA     CHECKNOTIFY_ERR
         2 000227   001267 710000 2                  TRA     CHECKNOTIFY_ERR
         2 000230   001267 710000 2                  TRA     CHECKNOTIFY_ERR
         2 000231   001267 710000 2                  TRA     CHECKNOTIFY_ERR
         2 000232   001267 710000 2                  TRA     CHECKNOTIFY_ERR
         2 000233   001267 710000 2                  TRA     CHECKNOTIFY_ERR
         2 000234   001267 710000 2                  TRA     CHECKNOTIFY_ERR
         2 000235   001267 710000 2                  TRA     CHECKNOTIFY_ERR
         2 000236   001267 710000 2                  TRA     CHECKNOTIFY_ERR
         2 000237   001267 710000 2                  TRA     CHECKNOTIFY_ERR
         2 000240   001267 710000 2                  TRA     CHECKNOTIFY_ERR
         2 000241   001267 710000 2                  TRA     CHECKNOTIFY_ERR
         2 000242   001267 710000 2                  TRA     CHECKNOTIFY_ERR
         2 000243   001267 710000 2                  TRA     CHECKNOTIFY_ERR
         2 000244   001267 710000 2                  TRA     CHECKNOTIFY_ERR
         2 000245   001267 710000 2                  TRA     CHECKNOTIFY_ERR
PL6.E3A0      #001=CPX$CONTEXT2 File=CPX$CONTEXT2.:E05TSI                        TUE 07/29/97 12:06 Page:43
         2 000246   001267 710000 2                  TRA     CHECKNOTIFY_ERR
         2 000247   001267 710000 2                  TRA     CHECKNOTIFY_ERR
         2 000250   001267 710000 2                  TRA     CHECKNOTIFY_ERR
         2 000251   001267 710000 2                  TRA     CHECKNOTIFY_ERR
         2 000252   001267 710000 2                  TRA     CHECKNOTIFY_ERR
         2 000253   001267 710000 2                  TRA     CHECKNOTIFY_ERR
         2 000254   001267 710000 2                  TRA     CHECKNOTIFY_ERR
         2 000255   001267 710000 2                  TRA     CHECKNOTIFY_ERR
         2 000256   001267 710000 2                  TRA     CHECKNOTIFY_ERR
         2 000257   001267 710000 2                  TRA     CHECKNOTIFY_ERR
         2 000260   001267 710000 2                  TRA     CHECKNOTIFY_ERR
         2 000261   001267 710000 2                  TRA     CHECKNOTIFY_ERR
         2 000262   001267 710000 2                  TRA     CHECKNOTIFY_ERR
         2 000263   001267 710000 2                  TRA     CHECKNOTIFY_ERR
         2 000264   001267 710000 2                  TRA     CHECKNOTIFY_ERR
         2 000265   001267 710000 2                  TRA     CHECKNOTIFY_ERR
         2 000266   001267 710000 2                  TRA     CHECKNOTIFY_ERR
         2 000267   001267 710000 2                  TRA     CHECKNOTIFY_ERR
         2 000270   001267 710000 2                  TRA     CHECKNOTIFY_ERR
         2 000271   001267 710000 2                  TRA     CHECKNOTIFY_ERR
         2 000272   001267 710000 2                  TRA     CHECKNOTIFY_ERR
         2 000273   001267 710000 2                  TRA     CHECKNOTIFY_ERR
         2 000274   001267 710000 2                  TRA     CHECKNOTIFY_ERR
         2 000275   001267 710000 2                  TRA     CHECKNOTIFY_ERR
         2 000276   001267 710000 2                  TRA     CHECKNOTIFY_ERR
         2 000277   001267 710000 2                  TRA     CHECKNOTIFY_ERR
         2 000300   001267 710000 2                  TRA     CHECKNOTIFY_ERR
         2 000301   001267 710000 2                  TRA     CHECKNOTIFY_ERR
         2 000302   001267 710000 2                  TRA     CHECKNOTIFY_ERR
         2 000303   001267 710000 2                  TRA     CHECKNOTIFY_ERR
         2 000304   001267 710000 2                  TRA     CHECKNOTIFY_ERR
         2 000305   001267 710000 2                  TRA     CHECKNOTIFY_ERR
         2 000306   001267 710000 2                  TRA     CHECKNOTIFY_ERR
         2 000307   001267 710000 2                  TRA     CHECKNOTIFY_ERR
         2 000310   001267 710000 2                  TRA     CHECKNOTIFY_ERR
         2 000311   001267 710000 2                  TRA     CHECKNOTIFY_ERR
         2 000312   001267 710000 2                  TRA     CHECKNOTIFY_ERR
PL6.E3A0      #001=CPX$CONTEXT2 File=CPX$CONTEXT2.:E05TSI                        TUE 07/29/97 12:06 Page:44
         2 000313   001267 710000 2                  TRA     CHECKNOTIFY_ERR
         2 000314   001267 710000 2                  TRA     CHECKNOTIFY_ERR
         2 000315   001267 710000 2                  TRA     CHECKNOTIFY_ERR
         2 000316   001267 710000 2                  TRA     CHECKNOTIFY_ERR
         2 000317   001267 710000 2                  TRA     CHECKNOTIFY_ERR
         2 000320   001267 710000 2                  TRA     CHECKNOTIFY_ERR
         2 000321   001267 710000 2                  TRA     CHECKNOTIFY_ERR
         2 000322   001267 710000 2                  TRA     CHECKNOTIFY_ERR
         2 000323   001267 710000 2                  TRA     CHECKNOTIFY_ERR
         2 000324   001267 710000 2                  TRA     CHECKNOTIFY_ERR
         2 000325   001267 710000 2                  TRA     CHECKNOTIFY_ERR
         2 000326   001267 710000 2                  TRA     CHECKNOTIFY_ERR
         2 000327   001267 710000 2                  TRA     CHECKNOTIFY_ERR
         2 000330   001267 710000 2                  TRA     CHECKNOTIFY_ERR
         2 000331   001267 710000 2                  TRA     CHECKNOTIFY_ERR
         2 000332   001267 710000 2                  TRA     CHECKNOTIFY_ERR
         2 000333   001267 710000 2                  TRA     CHECKNOTIFY_ERR
         2 000334   001267 710000 2                  TRA     CHECKNOTIFY_ERR
         2 000335   001267 710000 2                  TRA     CHECKNOTIFY_ERR
         2 000336   001267 710000 2                  TRA     CHECKNOTIFY_ERR
         2 000337   001267 710000 2                  TRA     CHECKNOTIFY_ERR
         2 000340   001267 710000 2                  TRA     CHECKNOTIFY_ERR
         2 000341   001267 710000 2                  TRA     CHECKNOTIFY_ERR
         2 000342   001267 710000 2                  TRA     CHECKNOTIFY_ERR
         2 000343   001267 710000 2                  TRA     CHECKNOTIFY_ERR
         2 000344   001267 710000 2                  TRA     CHECKNOTIFY_ERR
         2 000345   001267 710000 2                  TRA     CHECKNOTIFY_ERR
         2 000346   001267 710000 2                  TRA     CHECKNOTIFY_ERR
         2 000347   001267 710000 2                  TRA     CHECKNOTIFY_ERR
         2 000350   001267 710000 2                  TRA     CHECKNOTIFY_ERR
         2 000351   001267 710000 2                  TRA     CHECKNOTIFY_ERR
         2 000352   001267 710000 2                  TRA     CHECKNOTIFY_ERR
         2 000353   001267 710000 2                  TRA     CHECKNOTIFY_ERR
         2 000354   001267 710000 2                  TRA     CHECKNOTIFY_ERR
         2 000355   001267 710000 2                  TRA     CHECKNOTIFY_ERR
         2 000356   001267 710000 2                  TRA     CHECKNOTIFY_ERR
         2 000357   001267 710000 2                  TRA     CHECKNOTIFY_ERR
PL6.E3A0      #001=CPX$CONTEXT2 File=CPX$CONTEXT2.:E05TSI                        TUE 07/29/97 12:06 Page:45
         2 000360   001267 710000 2                  TRA     CHECKNOTIFY_ERR
         2 000361   001267 710000 2                  TRA     CHECKNOTIFY_ERR
         2 000362   001267 710000 2                  TRA     CHECKNOTIFY_ERR
         2 000363   001267 710000 2                  TRA     CHECKNOTIFY_ERR
         2 000364   001267 710000 2                  TRA     CHECKNOTIFY_ERR
         2 000365   001267 710000 2                  TRA     CHECKNOTIFY_ERR
         2 000366   001267 710000 2                  TRA     CHECKNOTIFY_ERR
         2 000367   001267 710000 2                  TRA     CHECKNOTIFY_ERR
         2 000370   001267 710000 2                  TRA     CHECKNOTIFY_ERR
         2 000371   001267 710000 2                  TRA     CHECKNOTIFY_ERR
         2 000372   001267 710000 2                  TRA     CHECKNOTIFY_ERR
         2 000373   001267 710000 2                  TRA     CHECKNOTIFY_ERR
         2 000374   001267 710000 2                  TRA     CHECKNOTIFY_ERR
         2 000375   001267 710000 2                  TRA     CHECKNOTIFY_ERR
         2 000376   001267 710000 2                  TRA     CHECKNOTIFY_ERR
         2 000377   001267 710000 2                  TRA     CHECKNOTIFY_ERR
         2 000400   001267 710000 2                  TRA     CHECKNOTIFY_ERR
         2 000401   001267 710000 2                  TRA     CHECKNOTIFY_ERR
         2 000402   001267 710000 2                  TRA     CHECKNOTIFY_ERR
         2 000403   001267 710000 2                  TRA     CHECKNOTIFY_ERR
         2 000404   001267 710000 2                  TRA     CHECKNOTIFY_ERR
         2 000405   001267 710000 2                  TRA     CHECKNOTIFY_ERR
         2 000406   001267 710000 2                  TRA     CHECKNOTIFY_ERR
         2 000407   001267 710000 2                  TRA     CHECKNOTIFY_ERR
         2 000410   001267 710000 2                  TRA     CHECKNOTIFY_ERR
         2 000411   001267 710000 2                  TRA     CHECKNOTIFY_ERR
         2 000412   001267 710000 2                  TRA     CHECKNOTIFY_ERR
         2 000413   001267 710000 2                  TRA     CHECKNOTIFY_ERR
         2 000414   001267 710000 2                  TRA     CHECKNOTIFY_ERR
         2 000415   001267 710000 2                  TRA     CHECKNOTIFY_ERR
         2 000416   001267 710000 2                  TRA     CHECKNOTIFY_ERR
         2 000417   001267 710000 2                  TRA     CHECKNOTIFY_ERR
         2 000420   001267 710000 2                  TRA     CHECKNOTIFY_ERR
         2 000421   001267 710000 2                  TRA     CHECKNOTIFY_ERR
         2 000422   001267 710000 2                  TRA     CHECKNOTIFY_ERR
         2 000423   001267 710000 2                  TRA     CHECKNOTIFY_ERR
         2 000424   001267 710000 2                  TRA     CHECKNOTIFY_ERR
PL6.E3A0      #001=CPX$CONTEXT2 File=CPX$CONTEXT2.:E05TSI                        TUE 07/29/97 12:06 Page:46
         2 000425   001267 710000 2                  TRA     CHECKNOTIFY_ERR
         2 000426   001267 710000 2                  TRA     CHECKNOTIFY_ERR
         2 000427   001267 710000 2                  TRA     CHECKNOTIFY_ERR
         2 000430   001267 710000 2                  TRA     CHECKNOTIFY_ERR
         2 000431   001267 710000 2                  TRA     CHECKNOTIFY_ERR
         2 000432   001267 710000 2                  TRA     CHECKNOTIFY_ERR
         2 000433   001267 710000 2                  TRA     CHECKNOTIFY_ERR
         2 000434   001267 710000 2                  TRA     CHECKNOTIFY_ERR
         2 000435   001267 710000 2                  TRA     CHECKNOTIFY_ERR
         2 000436   001267 710000 2                  TRA     CHECKNOTIFY_ERR
         2 000437   001267 710000 2                  TRA     CHECKNOTIFY_ERR
         2 000440   001267 710000 2                  TRA     CHECKNOTIFY_ERR
         2 000441   001267 710000 2                  TRA     CHECKNOTIFY_ERR
         2 000442   001267 710000 2                  TRA     CHECKNOTIFY_ERR
         2 000443   001267 710000 2                  TRA     CHECKNOTIFY_ERR
         2 000444   001267 710000 2                  TRA     CHECKNOTIFY_ERR
         2 000445   001267 710000 2                  TRA     CHECKNOTIFY_ERR
         2 000446   001267 710000 2                  TRA     CHECKNOTIFY_ERR
         2 000447   001267 710000 2                  TRA     CHECKNOTIFY_ERR
         2 000450   001267 710000 2                  TRA     CHECKNOTIFY_ERR
         2 000451   001267 710000 2                  TRA     CHECKNOTIFY_ERR
         2 000452   001267 710000 2                  TRA     CHECKNOTIFY_ERR
         2 000453   001267 710000 2                  TRA     CHECKNOTIFY_ERR
         2 000454   001267 710000 2                  TRA     CHECKNOTIFY_ERR
         2 000455   001267 710000 2                  TRA     CHECKNOTIFY_ERR
         2 000456   001267 710000 2                  TRA     CHECKNOTIFY_ERR
         2 000457   001267 710000 2                  TRA     CHECKNOTIFY_ERR
         2 000460   001267 710000 2                  TRA     CHECKNOTIFY_ERR
         2 000461   001267 710000 2                  TRA     CHECKNOTIFY_ERR
         2 000462   001267 710000 2                  TRA     CHECKNOTIFY_ERR
         2 000463   001267 710000 2                  TRA     CHECKNOTIFY_ERR
         2 000464   001267 710000 2                  TRA     CHECKNOTIFY_ERR
         2 000465   001267 710000 2                  TRA     CHECKNOTIFY_ERR
         2 000466   001267 710000 2                  TRA     CHECKNOTIFY_ERR
         2 000467   001267 710000 2                  TRA     CHECKNOTIFY_ERR
         2 000470   001267 710000 2                  TRA     CHECKNOTIFY_ERR
         2 000471   001267 710000 2                  TRA     CHECKNOTIFY_ERR
PL6.E3A0      #001=CPX$CONTEXT2 File=CPX$CONTEXT2.:E05TSI                        TUE 07/29/97 12:06 Page:47
         2 000472   001267 710000 2                  TRA     CHECKNOTIFY_ERR
         2 000473   001267 710000 2                  TRA     CHECKNOTIFY_ERR
         2 000474   001267 710000 2                  TRA     CHECKNOTIFY_ERR
         2 000475   001267 710000 2                  TRA     CHECKNOTIFY_ERR
         2 000476   001267 710000 2                  TRA     CHECKNOTIFY_ERR
         2 000477   001267 710000 2                  TRA     CHECKNOTIFY_ERR
         2 000500   001267 710000 2                  TRA     CHECKNOTIFY_ERR
         2 000501   001267 710000 2                  TRA     CHECKNOTIFY_ERR
         2 000502   001267 710000 2                  TRA     CHECKNOTIFY_ERR
         2 000503   001267 710000 2                  TRA     CHECKNOTIFY_ERR
         2 000504   001267 710000 2                  TRA     CHECKNOTIFY_ERR
         2 000505   001267 710000 2                  TRA     CHECKNOTIFY_ERR
         2 000506   001267 710000 2                  TRA     CHECKNOTIFY_ERR
         2 000507   001267 710000 2                  TRA     CHECKNOTIFY_ERR
         2 000510   001267 710000 2                  TRA     CHECKNOTIFY_ERR
         2 000511   001267 710000 2                  TRA     CHECKNOTIFY_ERR
         2 000512   001267 710000 2                  TRA     CHECKNOTIFY_ERR
         2 000513   001267 710000 2                  TRA     CHECKNOTIFY_ERR
         2 000514   001267 710000 2                  TRA     CHECKNOTIFY_ERR
         2 000515   001267 710000 2                  TRA     CHECKNOTIFY_ERR
         2 000516   001267 710000 2                  TRA     CHECKNOTIFY_ERR
         2 000517   001267 710000 2                  TRA     CHECKNOTIFY_ERR
         2 000520   001267 710000 2                  TRA     CHECKNOTIFY_ERR
         2 000521   001267 710000 2                  TRA     CHECKNOTIFY_ERR
         2 000522   001267 710000 2                  TRA     CHECKNOTIFY_ERR
         2 000523   001267 710000 2                  TRA     CHECKNOTIFY_ERR
         2 000524   001267 710000 2                  TRA     CHECKNOTIFY_ERR
         2 000525   001267 710000 2                  TRA     CHECKNOTIFY_ERR
         2 000526   001267 710000 2                  TRA     CHECKNOTIFY_ERR
         2 000527   001267 710000 2                  TRA     CHECKNOTIFY_ERR
         2 000530   001267 710000 2                  TRA     CHECKNOTIFY_ERR
         2 000531   001267 710000 2                  TRA     CHECKNOTIFY_ERR
         2 000532   001267 710000 2                  TRA     CHECKNOTIFY_ERR
         2 000533   001267 710000 2                  TRA     CHECKNOTIFY_ERR
         2 000534   001267 710000 2                  TRA     CHECKNOTIFY_ERR
         2 000535   001267 710000 2                  TRA     CHECKNOTIFY_ERR
         2 000536   001267 710000 2                  TRA     CHECKNOTIFY_ERR
PL6.E3A0      #001=CPX$CONTEXT2 File=CPX$CONTEXT2.:E05TSI                        TUE 07/29/97 12:06 Page:48
         2 000537   001267 710000 2                  TRA     CHECKNOTIFY_ERR
         2 000540   001267 710000 2                  TRA     CHECKNOTIFY_ERR
         2 000541   001267 710000 2                  TRA     CHECKNOTIFY_ERR
         2 000542   001267 710000 2                  TRA     CHECKNOTIFY_ERR
         2 000543   001267 710000 2                  TRA     CHECKNOTIFY_ERR
         2 000544   001267 710000 2                  TRA     CHECKNOTIFY_ERR
         2 000545   001267 710000 2                  TRA     CHECKNOTIFY_ERR
         2 000546   001267 710000 2                  TRA     CHECKNOTIFY_ERR
         2 000547   001267 710000 2                  TRA     CHECKNOTIFY_ERR
         2 000550   001267 710000 2                  TRA     CHECKNOTIFY_ERR
         2 000551   001267 710000 2                  TRA     CHECKNOTIFY_ERR
         2 000552   001267 710000 2                  TRA     CHECKNOTIFY_ERR
         2 000553   001267 710000 2                  TRA     CHECKNOTIFY_ERR
         2 000554   001267 710000 2                  TRA     CHECKNOTIFY_ERR
         2 000555   001267 710000 2                  TRA     CHECKNOTIFY_ERR
         2 000556   001267 710000 2                  TRA     CHECKNOTIFY_ERR
         2 000557   001267 710000 2                  TRA     CHECKNOTIFY_ERR
         2 000560   001267 710000 2                  TRA     CHECKNOTIFY_ERR
         2 000561   001267 710000 2                  TRA     CHECKNOTIFY_ERR
         2 000562   001267 710000 2                  TRA     CHECKNOTIFY_ERR
         2 000563   001267 710000 2                  TRA     CHECKNOTIFY_ERR
         2 000564   001267 710000 2                  TRA     CHECKNOTIFY_ERR
         2 000565   001267 710000 2                  TRA     CHECKNOTIFY_ERR
         2 000566   001267 710000 2                  TRA     CHECKNOTIFY_ERR
         2 000567   001267 710000 2                  TRA     CHECKNOTIFY_ERR
         2 000570   001267 710000 2                  TRA     CHECKNOTIFY_ERR
         2 000571   001267 710000 2                  TRA     CHECKNOTIFY_ERR
         2 000572   001267 710000 2                  TRA     CHECKNOTIFY_ERR
         2 000573   001267 710000 2                  TRA     CHECKNOTIFY_ERR
         2 000574   001267 710000 2                  TRA     CHECKNOTIFY_ERR
         2 000575   001267 710000 2                  TRA     CHECKNOTIFY_ERR
         2 000576   001267 710000 2                  TRA     CHECKNOTIFY_ERR
         2 000577   001267 710000 2                  TRA     CHECKNOTIFY_ERR
         2 000600   001267 710000 2                  TRA     CHECKNOTIFY_ERR
         2 000601   001267 710000 2                  TRA     CHECKNOTIFY_ERR
         2 000602   001267 710000 2                  TRA     CHECKNOTIFY_ERR
         2 000603   001267 710000 2                  TRA     CHECKNOTIFY_ERR
PL6.E3A0      #001=CPX$CONTEXT2 File=CPX$CONTEXT2.:E05TSI                        TUE 07/29/97 12:06 Page:49
         2 000604   001267 710000 2                  TRA     CHECKNOTIFY_ERR
         2 000605   001267 710000 2                  TRA     CHECKNOTIFY_ERR
         2 000606   001267 710000 2                  TRA     CHECKNOTIFY_ERR
         2 000607   001267 710000 2                  TRA     CHECKNOTIFY_ERR
         2 000610   001267 710000 2                  TRA     CHECKNOTIFY_ERR
         2 000611   001267 710000 2                  TRA     CHECKNOTIFY_ERR
         2 000612   001267 710000 2                  TRA     CHECKNOTIFY_ERR
         2 000613   001267 710000 2                  TRA     CHECKNOTIFY_ERR
         2 000614   001267 710000 2                  TRA     CHECKNOTIFY_ERR
         2 000615   001267 710000 2                  TRA     CHECKNOTIFY_ERR
         2 000616   001267 710000 2                  TRA     CHECKNOTIFY_ERR
         2 000617   001267 710000 2                  TRA     CHECKNOTIFY_ERR
         2 000620   001267 710000 2                  TRA     CHECKNOTIFY_ERR
         2 000621   001267 710000 2                  TRA     CHECKNOTIFY_ERR
         2 000622   001267 710000 2                  TRA     CHECKNOTIFY_ERR
         2 000623   001267 710000 2                  TRA     CHECKNOTIFY_ERR
         2 000624   001267 710000 2                  TRA     CHECKNOTIFY_ERR
         2 000625   001267 710000 2                  TRA     CHECKNOTIFY_ERR
         2 000626   001267 710000 2                  TRA     CHECKNOTIFY_ERR
         2 000627   001267 710000 2                  TRA     CHECKNOTIFY_ERR
         2 000630   001267 710000 2                  TRA     CHECKNOTIFY_ERR
         2 000631   001267 710000 2                  TRA     CHECKNOTIFY_ERR
         2 000632   001267 710000 2                  TRA     CHECKNOTIFY_ERR
         2 000633   001267 710000 2                  TRA     CHECKNOTIFY_ERR
         2 000634   001267 710000 2                  TRA     CHECKNOTIFY_ERR
         2 000635   001267 710000 2                  TRA     CHECKNOTIFY_ERR
         2 000636   001267 710000 2                  TRA     CHECKNOTIFY_ERR
         2 000637   001267 710000 2                  TRA     CHECKNOTIFY_ERR
         2 000640   001267 710000 2                  TRA     CHECKNOTIFY_ERR
         2 000641   001267 710000 2                  TRA     CHECKNOTIFY_ERR
         2 000642   001267 710000 2                  TRA     CHECKNOTIFY_ERR
         2 000643   001267 710000 2                  TRA     CHECKNOTIFY_ERR
         2 000644   001267 710000 2                  TRA     CHECKNOTIFY_ERR
         2 000645   001267 710000 2                  TRA     CHECKNOTIFY_ERR
         2 000646   001267 710000 2                  TRA     CHECKNOTIFY_ERR
         2 000647   001267 710000 2                  TRA     CHECKNOTIFY_ERR
         2 000650   001267 710000 2                  TRA     CHECKNOTIFY_ERR
PL6.E3A0      #001=CPX$CONTEXT2 File=CPX$CONTEXT2.:E05TSI                        TUE 07/29/97 12:06 Page:50
         2 000651   001267 710000 2                  TRA     CHECKNOTIFY_ERR
         2 000652   001267 710000 2                  TRA     CHECKNOTIFY_ERR
         2 000653   001267 710000 2                  TRA     CHECKNOTIFY_ERR
         2 000654   001267 710000 2                  TRA     CHECKNOTIFY_ERR
         2 000655   001267 710000 2                  TRA     CHECKNOTIFY_ERR
         2 000656   001267 710000 2                  TRA     CHECKNOTIFY_ERR
         2 000657   001267 710000 2                  TRA     CHECKNOTIFY_ERR
         2 000660   001267 710000 2                  TRA     CHECKNOTIFY_ERR
         2 000661   001267 710000 2                  TRA     CHECKNOTIFY_ERR
         2 000662   001267 710000 2                  TRA     CHECKNOTIFY_ERR
         2 000663   001267 710000 2                  TRA     CHECKNOTIFY_ERR
         2 000664   001267 710000 2                  TRA     CHECKNOTIFY_ERR
         2 000665   001267 710000 2                  TRA     CHECKNOTIFY_ERR
         2 000666   001267 710000 2                  TRA     CHECKNOTIFY_ERR
         2 000667   001267 710000 2                  TRA     CHECKNOTIFY_ERR
         2 000670   001267 710000 2                  TRA     CHECKNOTIFY_ERR
         2 000671   001267 710000 2                  TRA     CHECKNOTIFY_ERR
         2 000672   001267 710000 2                  TRA     CHECKNOTIFY_ERR
         2 000673   001267 710000 2                  TRA     CHECKNOTIFY_ERR
         2 000674   001267 710000 2                  TRA     CHECKNOTIFY_ERR
         2 000675   001267 710000 2                  TRA     CHECKNOTIFY_ERR
         2 000676   001267 710000 2                  TRA     CHECKNOTIFY_ERR
         2 000677   001267 710000 2                  TRA     CHECKNOTIFY_ERR
         2 000700   001267 710000 2                  TRA     CHECKNOTIFY_ERR
         2 000701   001267 710000 2                  TRA     CHECKNOTIFY_ERR
         2 000702   001267 710000 2                  TRA     CHECKNOTIFY_ERR
         2 000703   001267 710000 2                  TRA     CHECKNOTIFY_ERR
         2 000704   001267 710000 2                  TRA     CHECKNOTIFY_ERR
         2 000705   001267 710000 2                  TRA     CHECKNOTIFY_ERR
         2 000706   001267 710000 2                  TRA     CHECKNOTIFY_ERR
         2 000707   001267 710000 2                  TRA     CHECKNOTIFY_ERR
         2 000710   001267 710000 2                  TRA     CHECKNOTIFY_ERR
         2 000711   001267 710000 2                  TRA     CHECKNOTIFY_ERR
         2 000712   001267 710000 2                  TRA     CHECKNOTIFY_ERR
         2 000713   001267 710000 2                  TRA     CHECKNOTIFY_ERR
         2 000714   001267 710000 2                  TRA     CHECKNOTIFY_ERR
         2 000715   001267 710000 2                  TRA     CHECKNOTIFY_ERR
PL6.E3A0      #001=CPX$CONTEXT2 File=CPX$CONTEXT2.:E05TSI                        TUE 07/29/97 12:06 Page:51
         2 000716   001267 710000 2                  TRA     CHECKNOTIFY_ERR
         2 000717   001267 710000 2                  TRA     CHECKNOTIFY_ERR
         2 000720   001267 710000 2                  TRA     CHECKNOTIFY_ERR
         2 000721   001267 710000 2                  TRA     CHECKNOTIFY_ERR
         2 000722   001267 710000 2                  TRA     CHECKNOTIFY_ERR
         2 000723   001267 710000 2                  TRA     CHECKNOTIFY_ERR
         2 000724   001267 710000 2                  TRA     CHECKNOTIFY_ERR
         2 000725   001267 710000 2                  TRA     CHECKNOTIFY_ERR
         2 000726   001267 710000 2                  TRA     CHECKNOTIFY_ERR
         2 000727   001267 710000 2                  TRA     CHECKNOTIFY_ERR
         2 000730   001267 710000 2                  TRA     CHECKNOTIFY_ERR
         2 000731   001267 710000 2                  TRA     CHECKNOTIFY_ERR
         2 000732   001267 710000 2                  TRA     CHECKNOTIFY_ERR
         2 000733   001267 710000 2                  TRA     CHECKNOTIFY_ERR
         2 000734   001267 710000 2                  TRA     CHECKNOTIFY_ERR
         2 000735   001267 710000 2                  TRA     CHECKNOTIFY_ERR
         2 000736   001267 710000 2                  TRA     CHECKNOTIFY_ERR
         2 000737   001267 710000 2                  TRA     CHECKNOTIFY_ERR
         2 000740   001267 710000 2                  TRA     CHECKNOTIFY_ERR
         2 000741   001267 710000 2                  TRA     CHECKNOTIFY_ERR
         2 000742   001267 710000 2                  TRA     CHECKNOTIFY_ERR
         2 000743   001267 710000 2                  TRA     CHECKNOTIFY_ERR
         2 000744   001267 710000 2                  TRA     CHECKNOTIFY_ERR
         2 000745   001267 710000 2                  TRA     CHECKNOTIFY_ERR
         2 000746   001267 710000 2                  TRA     CHECKNOTIFY_ERR
         2 000747   001267 710000 2                  TRA     CHECKNOTIFY_ERR
         2 000750   001267 710000 2                  TRA     CHECKNOTIFY_ERR
         2 000751   001267 710000 2                  TRA     CHECKNOTIFY_ERR
         2 000752   001267 710000 2                  TRA     CHECKNOTIFY_ERR
         2 000753   001267 710000 2                  TRA     CHECKNOTIFY_ERR
         2 000754   001267 710000 2                  TRA     CHECKNOTIFY_ERR
         2 000755   001267 710000 2                  TRA     CHECKNOTIFY_ERR
         2 000756   001267 710000 2                  TRA     CHECKNOTIFY_ERR
         2 000757   001267 710000 2                  TRA     CHECKNOTIFY_ERR
         2 000760   001267 710000 2                  TRA     CHECKNOTIFY_ERR
         2 000761   001267 710000 2                  TRA     CHECKNOTIFY_ERR
         2 000762   001267 710000 2                  TRA     CHECKNOTIFY_ERR
PL6.E3A0      #001=CPX$CONTEXT2 File=CPX$CONTEXT2.:E05TSI                        TUE 07/29/97 12:06 Page:52
         2 000763   001267 710000 2                  TRA     CHECKNOTIFY_ERR
         2 000764   001267 710000 2                  TRA     CHECKNOTIFY_ERR
         2 000765   001267 710000 2                  TRA     CHECKNOTIFY_ERR
         2 000766   001267 710000 2                  TRA     CHECKNOTIFY_ERR
         2 000767   001267 710000 2                  TRA     CHECKNOTIFY_ERR
         2 000770   001267 710000 2                  TRA     CHECKNOTIFY_ERR
         2 000771   001267 710000 2                  TRA     CHECKNOTIFY_ERR
         2 000772   001267 710000 2                  TRA     CHECKNOTIFY_ERR
         2 000773   001267 710000 2                  TRA     CHECKNOTIFY_ERR
         2 000774   001267 710000 2                  TRA     CHECKNOTIFY_ERR
         2 000775   001267 710000 2                  TRA     CHECKNOTIFY_ERR
         2 000776   001267 710000 2                  TRA     CHECKNOTIFY_ERR
         2 000777   001267 710000 2                  TRA     CHECKNOTIFY_ERR
         2 001000   001267 710000 2                  TRA     CHECKNOTIFY_ERR
         2 001001   001267 710000 2                  TRA     CHECKNOTIFY_ERR
         2 001002   001267 710000 2                  TRA     CHECKNOTIFY_ERR
         2 001003   001267 710000 2                  TRA     CHECKNOTIFY_ERR
         2 001004   001267 710000 2                  TRA     CHECKNOTIFY_ERR
         2 001005   001267 710000 2                  TRA     CHECKNOTIFY_ERR
         2 001006   001267 710000 2                  TRA     CHECKNOTIFY_ERR
         2 001007   001267 710000 2                  TRA     CHECKNOTIFY_ERR
         2 001010   001267 710000 2                  TRA     CHECKNOTIFY_ERR
         2 001011   001267 710000 2                  TRA     CHECKNOTIFY_ERR
         2 001012   001267 710000 2                  TRA     CHECKNOTIFY_ERR
         2 001013   001267 710000 2                  TRA     CHECKNOTIFY_ERR
         2 001014   001267 710000 2                  TRA     CHECKNOTIFY_ERR
         2 001015   001267 710000 2                  TRA     CHECKNOTIFY_ERR
         2 001016   001267 710000 2                  TRA     CHECKNOTIFY_ERR
         2 001017   001267 710000 2                  TRA     CHECKNOTIFY_ERR
         2 001020   001267 710000 2                  TRA     CHECKNOTIFY_ERR
         2 001021   001267 710000 2                  TRA     CHECKNOTIFY_ERR
         2 001022   001267 710000 2                  TRA     CHECKNOTIFY_ERR
         2 001023   001267 710000 2                  TRA     CHECKNOTIFY_ERR
         2 001024   001267 710000 2                  TRA     CHECKNOTIFY_ERR
         2 001025   001267 710000 2                  TRA     CHECKNOTIFY_ERR
         2 001026   001267 710000 2                  TRA     CHECKNOTIFY_ERR
         2 001027   001267 710000 2                  TRA     CHECKNOTIFY_ERR
PL6.E3A0      #001=CPX$CONTEXT2 File=CPX$CONTEXT2.:E05TSI                        TUE 07/29/97 12:06 Page:53
         2 001030   001267 710000 2                  TRA     CHECKNOTIFY_ERR
         2 001031   001267 710000 2                  TRA     CHECKNOTIFY_ERR
         2 001032   001267 710000 2                  TRA     CHECKNOTIFY_ERR
         2 001033   001267 710000 2                  TRA     CHECKNOTIFY_ERR
         2 001034   001267 710000 2                  TRA     CHECKNOTIFY_ERR
         2 001035   001267 710000 2                  TRA     CHECKNOTIFY_ERR
         2 001036   001267 710000 2                  TRA     CHECKNOTIFY_ERR
         2 001037   001267 710000 2                  TRA     CHECKNOTIFY_ERR
         2 001040   001267 710000 2                  TRA     CHECKNOTIFY_ERR
         2 001041   001267 710000 2                  TRA     CHECKNOTIFY_ERR
         2 001042   001267 710000 2                  TRA     CHECKNOTIFY_ERR
         2 001043   001267 710000 2                  TRA     CHECKNOTIFY_ERR
         2 001044   001267 710000 2                  TRA     CHECKNOTIFY_ERR
         2 001045   001267 710000 2                  TRA     CHECKNOTIFY_ERR
         2 001046   001267 710000 2                  TRA     CHECKNOTIFY_ERR
         2 001047   001267 710000 2                  TRA     CHECKNOTIFY_ERR
         2 001050   001267 710000 2                  TRA     CHECKNOTIFY_ERR
         2 001051   001267 710000 2                  TRA     CHECKNOTIFY_ERR
         2 001052   001267 710000 2                  TRA     CHECKNOTIFY_ERR
         2 001053   001267 710000 2                  TRA     CHECKNOTIFY_ERR
         2 001054   001267 710000 2                  TRA     CHECKNOTIFY_ERR
         2 001055   001267 710000 2                  TRA     CHECKNOTIFY_ERR
         2 001056   001267 710000 2                  TRA     CHECKNOTIFY_ERR
         2 001057   001267 710000 2                  TRA     CHECKNOTIFY_ERR
         2 001060   001267 710000 2                  TRA     CHECKNOTIFY_ERR
         2 001061   001267 710000 2                  TRA     CHECKNOTIFY_ERR
         2 001062   001267 710000 2                  TRA     CHECKNOTIFY_ERR
         2 001063   001267 710000 2                  TRA     CHECKNOTIFY_ERR
         2 001064   001267 710000 2                  TRA     CHECKNOTIFY_ERR
         2 001065   001267 710000 2                  TRA     CHECKNOTIFY_ERR
         2 001066   001267 710000 2                  TRA     CHECKNOTIFY_ERR
         2 001067   001267 710000 2                  TRA     CHECKNOTIFY_ERR
         2 001070   001267 710000 2                  TRA     CHECKNOTIFY_ERR
         2 001071   001267 710000 2                  TRA     CHECKNOTIFY_ERR
         2 001072   001267 710000 2                  TRA     CHECKNOTIFY_ERR
         2 001073   001267 710000 2                  TRA     CHECKNOTIFY_ERR
         2 001074   001267 710000 2                  TRA     CHECKNOTIFY_ERR
PL6.E3A0      #001=CPX$CONTEXT2 File=CPX$CONTEXT2.:E05TSI                        TUE 07/29/97 12:06 Page:54
         2 001075   001267 710000 2                  TRA     CHECKNOTIFY_ERR
         2 001076   001267 710000 2                  TRA     CHECKNOTIFY_ERR
         2 001077   001267 710000 2                  TRA     CHECKNOTIFY_ERR
         2 001100   001267 710000 2                  TRA     CHECKNOTIFY_ERR
         2 001101   001267 710000 2                  TRA     CHECKNOTIFY_ERR
         2 001102   001267 710000 2                  TRA     CHECKNOTIFY_ERR
         2 001103   001267 710000 2                  TRA     CHECKNOTIFY_ERR
         2 001104   001267 710000 2                  TRA     CHECKNOTIFY_ERR
         2 001105   001267 710000 2                  TRA     CHECKNOTIFY_ERR
         2 001106   001267 710000 2                  TRA     CHECKNOTIFY_ERR
         2 001107   001267 710000 2                  TRA     CHECKNOTIFY_ERR
         2 001110   001267 710000 2                  TRA     CHECKNOTIFY_ERR
         2 001111   001267 710000 2                  TRA     CHECKNOTIFY_ERR
         2 001112   001267 710000 2                  TRA     CHECKNOTIFY_ERR
         2 001113   001267 710000 2                  TRA     CHECKNOTIFY_ERR
         2 001114   001267 710000 2                  TRA     CHECKNOTIFY_ERR
         2 001115   001267 710000 2                  TRA     CHECKNOTIFY_ERR
         2 001116   001267 710000 2                  TRA     CHECKNOTIFY_ERR
         2 001117   001267 710000 2                  TRA     CHECKNOTIFY_ERR
         2 001120   001267 710000 2                  TRA     CHECKNOTIFY_ERR
         2 001121   001267 710000 2                  TRA     CHECKNOTIFY_ERR
         2 001122   001145 710000 2                  TRA     s:7921
         2 001123   001212 710000 2                  TRA     s:7949
         2 001124   001267 710000 2                  TRA     CHECKNOTIFY_ERR
         2 001125   001267 710000 2                  TRA     CHECKNOTIFY_ERR
         2 001126   001267 710000 2                  TRA     CHECKNOTIFY_ERR
         2 001127   001267 710000 2                  TRA     CHECKNOTIFY_ERR
         2 001130   001260 710000 2                  TRA     s:7970
         2 001131   001260 710000 2                  TRA     s:7970
         2 001132   001267 710000 2                  TRA     CHECKNOTIFY_ERR
         2 001133   001267 710000 2                  TRA     CHECKNOTIFY_ERR
         2 001134   001267 710000 2                  TRA     CHECKNOTIFY_ERR
         2 001135   001267 710000 2                  TRA     CHECKNOTIFY_ERR
         2 001136   001174 710000 2                  TRA     s:7936
         2 001137   001267 710000 2                  TRA     CHECKNOTIFY_ERR
         2 001140   001156 710000 2                  TRA     s:7926
         2 001141   001236 710000 2                  TRA     s:7960
PL6.E3A0      #001=CPX$CONTEXT2 File=CPX$CONTEXT2.:E05TSI                        TUE 07/29/97 12:06 Page:55
         2 001142   001267 710000 2                  TRA     CHECKNOTIFY_ERR
         2 001143   001267 710000 2                  TRA     CHECKNOTIFY_ERR
         2 001144   001225 710000 2                  TRA     s:7955

      185     7920    2            CASE(%CH_ACCT) ;

      186     7921    2              IF PTR$ -> P$S.COUNT > 8

   7921  2 001145   000004 236100                    LDQ     4,,PR0
         2 001146   777000 376003                    ANQ     -512,DU
         2 001147   011000 116003                    CMPQ    4608,DU
         2 001150   001267 602000 2                  TNC     CHECKNOTIFY_ERR

      187     7922    2              THEN
      188     7923    2                 CALL POSTERR(E_JPBIGACCT) ;

   7923  2 001151   000004 236000 3                  LDQ     4
         2 001152   200215 756100                    STQ     J+3,,AUTO
         2 001153   002217 701000 2                  TSX1    POSTERR
         2 001154   000000 011000                    NOP     0
         2 001155   001267 710000 2                  TRA     CHECKNOTIFY_ERR

      189     7924
      190     7925    2            CASE(%CH_AT_WSN) ;

      191     7926    2              IF PTR$ -> P$B.NSUBLKS > 0

   7926  2 001156   000001 221100                    LDX1    1,,PR0
         2 001157   001267 600000 2                  TZE     CHECKNOTIFY_ERR

      192     7927    2              THEN
      193     7928    2                 IF PTR$ -> P$B.SUBLK$(0) -> P$S.COUNT > 8

   7928  2 001160   000003 471500                    LDP1    3,,PR0
         2 001161   100004 236100                    LDQ     4,,PR1
         2 001162   777000 376003                    ANQ     -512,DU
         2 001163   011000 116003                    CMPQ    4608,DU
PL6.E3A0      #001=CPX$CONTEXT2 File=CPX$CONTEXT2.:E05TSI                        TUE 07/29/97 12:06 Page:56
         2 001164   001267 602000 2                  TNC     CHECKNOTIFY_ERR

      194     7929    2                 THEN
      195     7930    3                    DO ;

      196     7931    3                       PTR$ = PTR$ -> P$B.SUBLK$(0) ;

   7931  2 001165   000003 236100                    LDQ     3,,PR0
         2 001166   200201 756100                    STQ     PTR$,,AUTO

      197     7932    3                       CALL POSTERR(E_JPBIGWSN) ;

   7932  2 001167   000005 236000 3                  LDQ     5
         2 001170   200215 756100                    STQ     J+3,,AUTO
         2 001171   002217 701000 2                  TSX1    POSTERR
         2 001172   000000 011000                    NOP     0

      198     7933    3                    END ; /* THEN DO */

   7933  2 001173   001267 710000 2                  TRA     CHECKNOTIFY_ERR

      199     7934
      200     7935    2            CASE(%CH_AT_TERM) ;

      201     7936    2              IF PTR$ -> P$B.NSUBLKS > 0

   7936  2 001174   000001 221100                    LDX1    1,,PR0
         2 001175   001267 600000 2                  TZE     CHECKNOTIFY_ERR

      202     7937    2              THEN
      203     7938    2                 IF PTR$ -> P$B.SUBLK$(0) -> P$S.COUNT > 8

   7938  2 001176   000003 471500                    LDP1    3,,PR0
         2 001177   100004 236100                    LDQ     4,,PR1
         2 001200   777000 376003                    ANQ     -512,DU
         2 001201   011000 116003                    CMPQ    4608,DU
         2 001202   001267 602000 2                  TNC     CHECKNOTIFY_ERR
PL6.E3A0      #001=CPX$CONTEXT2 File=CPX$CONTEXT2.:E05TSI                        TUE 07/29/97 12:06 Page:57

      204     7939    2                 THEN
      205     7940    3                    DO ;

      206     7941    3                       PTR$ = PTR$ -> P$B.SUBLK$(0) ;

   7941  2 001203   000003 236100                    LDQ     3,,PR0
         2 001204   200201 756100                    STQ     PTR$,,AUTO

      207     7942    3                       CALL POSTERR(E_CHBIGTERM) ;

   7942  2 001205   000006 236000 3                  LDQ     6
         2 001206   200215 756100                    STQ     J+3,,AUTO
         2 001207   002217 701000 2                  TSX1    POSTERR
         2 001210   000000 011000                    NOP     0

      208     7943    3                    END ; /* THEN DO */

   7943  2 001211   001267 710000 2                  TRA     CHECKNOTIFY_ERR

      209     7944
      210     7945    2            CASE(%CH_USEFID) ;

      211     7946        /*
      212     7947             ***** DEVICE fids are not acceptable for USE files.
      213     7948        */
      214     7949    2              CALL CNVRT_FID ALTRET(CHECKNOTIFY_ERR) ;

   7949  2 001212   002020 701000 2                  TSX1    CNVRT_FID
         2 001213   001267 702000 2                  TSX2    CHECKNOTIFY_ERR

      215     7950    2              IF FID_ASN = %DEVICE#

   7950  2 001214   200205 236100                    LDQ     FID_ASN,,AUTO
         2 001215   777000 376003                    ANQ     -512,DU
         2 001216   003000 116003                    CMPQ    1536,DU
         2 001217   001267 601000 2                  TNZ     CHECKNOTIFY_ERR
PL6.E3A0      #001=CPX$CONTEXT2 File=CPX$CONTEXT2.:E05TSI                        TUE 07/29/97 12:06 Page:58

      216     7951    2              THEN
      217     7952    2                 CALL POSTERR(E_XBAFID) ;

   7952  2 001220   000000 236000 3                  LDQ     0
         2 001221   200215 756100                    STQ     J+3,,AUTO
         2 001222   002217 701000 2                  TSX1    POSTERR
         2 001223   000000 011000                    NOP     0
         2 001224   001267 710000 2                  TRA     CHECKNOTIFY_ERR

      218     7953
      219     7954    2            CASE(%CH_DEV) ;

      220     7955    2              IF PTR$ -> P$S.COUNT > 2

   7955  2 001225   000004 236100                    LDQ     4,,PR0
         2 001226   777000 376003                    ANQ     -512,DU
         2 001227   003000 116003                    CMPQ    1536,DU
         2 001230   001267 602000 2                  TNC     CHECKNOTIFY_ERR

      221     7956    2              THEN
      222     7957    2                 CALL POSTERR(E_CHBIGDEV) ;

   7957  2 001231   000007 236000 3                  LDQ     7
         2 001232   200215 756100                    STQ     J+3,,AUTO
         2 001233   002217 701000 2                  TSX1    POSTERR
         2 001234   000000 011000                    NOP     0
         2 001235   001267 710000 2                  TRA     CHECKNOTIFY_ERR

      223     7958
      224     7959    2            CASE(%CH_FORM) ;

      225     7960    2              IF PTR$ -> P$S.COUNT > 6

   7960  2 001236   000004 236100                    LDQ     4,,PR0
         2 001237   777000 376003                    ANQ     -512,DU
         2 001240   007000 116003                    CMPQ    3584,DU
PL6.E3A0      #001=CPX$CONTEXT2 File=CPX$CONTEXT2.:E05TSI                        TUE 07/29/97 12:06 Page:59
         2 001241   001267 602000 2                  TNC     CHECKNOTIFY_ERR

      226     7961    2              THEN
      227     7962    2                 CALL POSTERR(E_CHBIGFORM) ;

   7962  2 001242   000010 236000 3                  LDQ     8
         2 001243   200215 756100                    STQ     J+3,,AUTO
         2 001244   002217 701000 2                  TSX1    POSTERR
         2 001245   000000 011000                    NOP     0
         2 001246   001267 710000 2                  TRA     CHECKNOTIFY_ERR

      228     7963
      229     7964    2            CASE(%CH_JOBNAME) ;

      230     7965    2              IF PTR$ -> P$S.COUNT > 31

   7965  2 001247   000004 236100                    LDQ     4,,PR0
         2 001250   777000 376003                    ANQ     -512,DU
         2 001251   040000 116003                    CMPQ    16384,DU
         2 001252   001267 602000 2                  TNC     CHECKNOTIFY_ERR

      231     7966    2              THEN
      232     7967    2                 CALL POSTERR(E_JPBIGJNAME);

   7967  2 001253   000011 236000 3                  LDQ     9
         2 001254   200215 756100                    STQ     J+3,,AUTO
         2 001255   002217 701000 2                  TSX1    POSTERR
         2 001256   000000 011000                    NOP     0
         2 001257   001267 710000 2                  TRA     CHECKNOTIFY_ERR

      233     7968
      234     7969    2            CASE(%CH_SYSID, %CH_SYSID_NUM) ;

      235     7970    2              IF VALUE > 99999

   7970  2 001260   200203 235100                    LDA     VALUE,,AUTO
         2 001261   303237 115007                    CMPA    99999,DL
PL6.E3A0      #001=CPX$CONTEXT2 File=CPX$CONTEXT2.:E05TSI                        TUE 07/29/97 12:06 Page:60
         2 001262   001267 604400 2                  TMOZ    CHECKNOTIFY_ERR

      236     7971    2              THEN
      237     7972    2                 CALL POSTERR(E_JPILLSYSID);

   7972  2 001263   000012 236000 3                  LDQ     10
         2 001264   200215 756100                    STQ     J+3,,AUTO
         2 001265   002217 701000 2                  TSX1    POSTERR
         2 001266   000000 011000                    NOP     0

      238     7973
      239     7974    2           END ; /* DO CASE */

      240     7975    1   CHECKNOTIFY_ERR:
      241     7976    1           RETURN ;

   7976  2 001267   000000 702200 xent  CHECKNOTIFY* TSX2  ! X66_ARET

      242     7977        %EJECT ;
PL6.E3A0      #001=CPX$CONTEXT2 File=CPX$CONTEXT2.:E05TSI                        TUE 07/29/97 12:06 Page:61
      243     7978    1   CPX$COMMENT: ENTRY (P_PARAM);

   7978  2 001270   000000 700200 xent  CPX$COMMENT  TSX0  ! X66_AUTO_1
         2 001271   000222 000001                    ZERO    146,1

      244     7979        /*
      245     7980          ****    CHECK FOR FID ERRORS
      246     7981        */
      247     7982    1           PTR$ = P_PARAM.OUT$;

   7982  2 001272   200003 470500                    LDP0    @P_PARAM,,AUTO
         2 001273   000002 236100                    LDQ     2,,PR0
         2 001274   200201 756100                    STQ     PTR$,,AUTO

      248     7983    1           CALL CNVRT_FID ALTRET(COMMENT_ERR);

   7983  2 001275   002020 701000 2                  TSX1    CNVRT_FID
         2 001276   001277 702000 2                  TSX2    COMMENT_ERR

      249     7984    1   COMMENT_ERR:
      250     7985    1           RETURN;

   7985  2 001277   000000 702200 xent  COMMENT_ERR  TSX2  ! X66_ARET

      251     7986                   %EJECT;
PL6.E3A0      #001=CPX$CONTEXT2 File=CPX$CONTEXT2.:E05TSI                        TUE 07/29/97 12:06 Page:62
      252     7987    1   CPX$DIRECTORY: ENTRY (P_PARAM);

   7987  2 001300   000000 700200 xent  CPX$DIRECTO* TSX0  ! X66_AUTO_1
         2 001301   000222 000001                    ZERO    146,1

      253     7988    1           PTR$ = P_PARAM.OUT$;

   7988  2 001302   200003 470500                    LDP0    @P_PARAM,,AUTO
         2 001303   000002 236100                    LDQ     2,,PR0
         2 001304   200201 756100                    STQ     PTR$,,AUTO

      254     7989    1           CALL CNVRT_FID ALTRET(FID_ERR);

   7989  2 001305   002020 701000 2                  TSX1    CNVRT_FID
         2 001306   001333 702000 2                  TSX2    FID_ERR

      255     7990        /*
      256     7991          ****    COMMAND ERROR IF OTHER THAN DP#nn.acct OR .acct SPECIFIED
      257     7992          ****    OR IF JUST A PERIOD SPECIFIED.
      258     7993        */
      259     7994    1           IF (FID_RESULTS.ACCT = %NO#) OR (FID_ACCT.ACCT# = ' ') THEN

   7994  2 001307   200034 236100                    LDQ     FID_RESULTS,,AUTO
         2 001310   200000 316003                    CANQ    65536,DU
         2 001311   001334 600000 2                  TZE     DIR_ERR
         2 001312   200172 237100                    LDAQ    FID_ACCT,,AUTO
         2 001313   000014 117000 3                  CMPAQ   12
         2 001314   001334 600000 2                  TZE     DIR_ERR

      260     7995    1              GOTO DIR_ERR;
      261     7996    1           IF ((FID_RESULTS.NAME = %YES#) OR (FID_RESULTS.PASS = %YES#)

   7996  2 001315   200034 234100                    SZN     FID_RESULTS,,AUTO
         2 001316   001334 604000 2                  TMI     DIR_ERR
         2 001317   200034 236100                    LDQ     FID_RESULTS,,AUTO
         2 001320   100000 316003                    CANQ    32768,DU
         2 001321   001334 601000 2                  TNZ     DIR_ERR
PL6.E3A0      #001=CPX$CONTEXT2 File=CPX$CONTEXT2.:E05TSI                        TUE 07/29/97 12:06 Page:63
         2 001322   020000 316003                    CANQ    8192,DU
         2 001323   001334 601000 2                  TNZ     DIR_ERR
         2 001324   200205 236100                    LDQ     FID_ASN,,AUTO
         2 001325   777000 376003                    ANQ     -512,DU
         2 001326   001000 116003                    CMPQ    512,DU
         2 001327   001334 601000 2                  TNZ     DIR_ERR

      262     7997    1                 OR (FID_RESULTS.WSN = %YES#) OR (FID_ASN ~= %FILE#)) THEN
      263     7998    1              GOTO DIR_ERR;
      264     7999        /*
      265     8000          ****    ONLY ALLOW SPECIFICATION OF ONE SN
      266     8001        */
      267     8002    1           IF FID_SN.NUM# > 1 THEN

   8002  2 001330   200056 235100                    LDA     FID_SN,,AUTO
         2 001331   000001 115007                    CMPA    1,DL
         2 001332   001334 605400 2                  TPNZ    DIR_ERR

      268     8003    1              GOTO DIR_ERR;
      269     8004    1   FID_ERR:
      270     8005    1           RETURN;

   8005  2 001333   000000 702200 xent  FID_ERR      TSX2  ! X66_ARET

      271     8006    1   DIR_ERR:
      272     8007    1           CALL POSTERR(E_XBDIRFID);

   8007  2 001334   000016 236000 3     DIR_ERR      LDQ     14
         2 001335   200215 756100                    STQ     J+3,,AUTO
         2 001336   002217 701000 2                  TSX1    POSTERR
         2 001337   000000 011000                    NOP     0

      273     8008    1           RETURN;

   8008  2 001340   000000 702200 xent               TSX2  ! X66_ARET

      274     8009                  %EJECT;
PL6.E3A0      #001=CPX$CONTEXT2 File=CPX$CONTEXT2.:E05TSI                        TUE 07/29/97 12:06 Page:64
      275     8010    1   CPX$DISPLAY: ENTRY (P_PARAM);

   8010  2 001341   000000 700200 xent  CPX$DISPLAY  TSX0  ! X66_AUTO_1
         2 001342   000222 000001                    ZERO    146,1

      276     8011    1           PTR$ = P_PARAM.OUT$;

   8011  2 001343   200003 470500                    LDP0    @P_PARAM,,AUTO
         2 001344   000002 236100                    LDQ     2,,PR0
         2 001345   200201 756100                    STQ     PTR$,,AUTO

      277     8012    1           PTR1$ = PTR$->P$B.SUBLK$(0);

   8012  2 001346   200201 471500                    LDP1    PTR$,,AUTO
         2 001347   100003 236100                    LDQ     3,,PR1
         2 001350   200202 756100                    STQ     PTR1$,,AUTO

      278     8013        /*
      279     8014        ****    Check for valid dcb name...
      280     8015        */
      281     8016    2           DO CASE(PTR$ -> P$S.CODE);

   8016  2 001351   100000 720100                    LXL0    0,,PR1
         2 001352   000006 100003                    CMPX0   6,DU
         2 001353   001355 602010 2                  TNC     s:8016+4,X0
         2 001354   001407 710000 2                  TRA     s:8028
         2 001355   001407 710000 2                  TRA     s:8028
         2 001356   001407 710000 2                  TRA     s:8028
         2 001357   001407 710000 2                  TRA     s:8028
         2 001360   001366 710000 2                  TRA     s:8020
         2 001361   001377 710000 2                  TRA     s:8024
         2 001362   001363 710000 2                  TRA     s:8018

      282     8017    2            CASE(DDCBOPT);

      283     8018    2              CALL CHK_DCBNAME;

PL6.E3A0      #001=CPX$CONTEXT2 File=CPX$CONTEXT2.:E05TSI                        TUE 07/29/97 12:06 Page:65
   8018  2 001363   002127 701000 2                  TSX1    CHK_DCBNAME
         2 001364   000000 011000                    NOP     0
         2 001365   001407 710000 2                  TRA     s:8028

      284     8019    2            CASE(%LDEV_STRM_NAME#) ;

      285     8020    2              IF PTR$->P$S.COUNT ~= 2

   8020  2 001366   100004 236100                    LDQ     4,,PR1
         2 001367   777000 376003                    ANQ     -512,DU
         2 001370   002000 116003                    CMPQ    1024,DU
         2 001371   001407 600000 2                  TZE     s:8028

      286     8021    2              THEN
      287     8022    2                 CALL POSTERR(E_BDSTRMNAME) ;

   8022  2 001372   000017 236000 3                  LDQ     15
         2 001373   200215 756100                    STQ     J+3,,AUTO
         2 001374   002217 701000 2                  TSX1    POSTERR
         2 001375   000000 011000                    NOP     0
         2 001376   001407 710000 2                  TRA     s:8028

      288     8023    2            CASE(%LDEV_STRM_NUM#) ;

      289     8024    2              IF PTR$->P$S.COUNT ~= 2

   8024  2 001377   100004 236100                    LDQ     4,,PR1
         2 001400   777000 376003                    ANQ     -512,DU
         2 001401   002000 116003                    CMPQ    1024,DU
         2 001402   001407 600000 2                  TZE     s:8028

      290     8025    2              THEN
      291     8026    2                 CALL POSTERR(E_BDSTRMNUM) ;

   8026  2 001403   000020 236000 3                  LDQ     16
         2 001404   200215 756100                    STQ     J+3,,AUTO
         2 001405   002217 701000 2                  TSX1    POSTERR
PL6.E3A0      #001=CPX$CONTEXT2 File=CPX$CONTEXT2.:E05TSI                        TUE 07/29/97 12:06 Page:66
         2 001406   000000 011000                    NOP     0

      292     8027    2           END;

      293     8028    1           RETURN;

   8028  2 001407   000000 702200 xent               TSX2  ! X66_ARET

      294     8029                   %EJECT;
PL6.E3A0      #001=CPX$CONTEXT2 File=CPX$CONTEXT2.:E05TSI                        TUE 07/29/97 12:06 Page:67
      295     8030    1   CPX$EJECT: ENTRY (P_PARAM);

   8030  2 001410   000000 700200 xent  CPX$EJECT    TSX0  ! X66_AUTO_1
         2 001411   000222 000001                    ZERO    146,1

      296     8031    2           DO INDX=0 TO P_PARAM.OUT$->P$B.NSUBLKS-1;

   8031  2 001412   200204 450100                    STZ     INDX,,AUTO
         2 001413   001455 710000 2                  TRA     s:8043+3

      297     8032    2              PTR$ = P_PARAM.OUT$->P$B.SUBLK$(INDX);

   8032  2 001414   200003 470500                    LDP0    @P_PARAM,,AUTO
         2 001415   000002 471500                    LDP1    2,,PR0
         2 001416   200204 720100                    LXL0    INDX,,AUTO
         2 001417   100003 236110                    LDQ     3,X0,PR1
         2 001420   200201 756100                    STQ     PTR$,,AUTO

      298     8033    3              DO CASE(INDX);

   8033  2 001421   200204 235100                    LDA     INDX,,AUTO
         2 001422   000002 115007                    CMPA    2,DL
         2 001423   001425 602005 2                  TNC     s:8033+4,AL
         2 001424   001452 710000 2                  TRA     s:8043
         2 001425   001427 710000 2                  TRA     s:8035
         2 001426   001441 710000 2                  TRA     s:8039

      299     8034    3               CASE(0) ;

      300     8035    3                 IF PTR$->P$S.COUNT ~= 2

   8035  2 001427   200201 473500                    LDP3    PTR$,,AUTO
         2 001430   300004 236100                    LDQ     4,,PR3
         2 001431   777000 376003                    ANQ     -512,DU
         2 001432   002000 116003                    CMPQ    1024,DU
         2 001433   001452 600000 2                  TZE     s:8043

PL6.E3A0      #001=CPX$CONTEXT2 File=CPX$CONTEXT2.:E05TSI                        TUE 07/29/97 12:06 Page:68
      301     8036    3                 THEN
      302     8037    3                    CALL POSTERR(E_BDSTRMNAME) ;

   8037  2 001434   000017 236000 3                  LDQ     15
         2 001435   200215 756100                    STQ     J+3,,AUTO
         2 001436   002217 701000 2                  TSX1    POSTERR
         2 001437   000000 011000                    NOP     0
         2 001440   001452 710000 2                  TRA     s:8043

      303     8038    3               CASE(1) ;

      304     8039    3                 IF PTR$->P$S.COUNT ~= 2

   8039  2 001441   200201 473500                    LDP3    PTR$,,AUTO
         2 001442   300004 236100                    LDQ     4,,PR3
         2 001443   777000 376003                    ANQ     -512,DU
         2 001444   002000 116003                    CMPQ    1024,DU
         2 001445   001452 600000 2                  TZE     s:8043

      305     8040    3                 THEN
      306     8041    3                    CALL POSTERR(E_BDSTRMNUM) ;

   8041  2 001446   000020 236000 3                  LDQ     16
         2 001447   200215 756100                    STQ     J+3,,AUTO
         2 001450   002217 701000 2                  TSX1    POSTERR
         2 001451   000000 011000                    NOP     0

      307     8042    3              END; /* Do Case */

      308     8043    2           END; /* Do INDX */

   8043  2 001452   200204 235100                    LDA     INDX,,AUTO
         2 001453   000001 035007                    ADLA    1,DL
         2 001454   200204 755100                    STA     INDX,,AUTO
         2 001455   200003 470500                    LDP0    @P_PARAM,,AUTO
         2 001456   000002 471500                    LDP1    2,,PR0
         2 001457   100001 236100                    LDQ     1,,PR1
PL6.E3A0      #001=CPX$CONTEXT2 File=CPX$CONTEXT2.:E05TSI                        TUE 07/29/97 12:06 Page:69
         2 001460   000022 772000                    QRL     18
         2 001461   200204 116100                    CMPQ    INDX,,AUTO
         2 001462   001464 600000 2                  TZE     s:8044
         2 001463   001414 603000 2                  TRC     s:8032

      309     8044    1           RETURN;

   8044  2 001464   000000 702200 xent               TSX2  ! X66_ARET

      310     8045                   %EJECT;
PL6.E3A0      #001=CPX$CONTEXT2 File=CPX$CONTEXT2.:E05TSI                        TUE 07/29/97 12:06 Page:70
      311     8046    1   CPX$LIST: ENTRY (P_PARAM);

   8046  2 001465   000000 700200 xent  CPX$LIST     TSX0  ! X66_AUTO_1
         2 001466   000222 000001                    ZERO    146,1

      312     8047        /*
      313     8048          ****    CHECK FOR FID ERRORS
      314     8049        */
      315     8050    1           PTR$ = P_PARAM.OUT$;

   8050  2 001467   200003 470500                    LDP0    @P_PARAM,,AUTO
         2 001470   000002 236100                    LDQ     2,,PR0
         2 001471   200201 756100                    STQ     PTR$,,AUTO

      316     8051    1           CALL CNVRT_FID ALTRET(LIST_ERR);

   8051  2 001472   002020 701000 2                  TSX1    CNVRT_FID
         2 001473   001474 702000 2                  TSX2    LIST_ERR

      317     8052    1   LIST_ERR:
      318     8053    1           RETURN;

   8053  2 001474   000000 702200 xent  LIST_ERR     TSX2  ! X66_ARET

      319     8054                  %EJECT;
PL6.E3A0      #001=CPX$CONTEXT2 File=CPX$CONTEXT2.:E05TSI                        TUE 07/29/97 12:06 Page:71
      320     8055    1   CPX$GET: ENTRY (P_PARAM);

   8055  2 001475   000000 700200 xent  CPX$GET      TSX0  ! X66_AUTO_1
         2 001476   000222 000001                    ZERO    146,1

      321     8056        /*
      322     8057          ****   CHECK FOR FID ERRORS
      323     8058        */
      324     8059    1           PTR$ = P_PARAM.OUT$;

   8059  2 001477   200003 470500                    LDP0    @P_PARAM,,AUTO
         2 001500   000002 236100                    LDQ     2,,PR0
         2 001501   200201 756100                    STQ     PTR$,,AUTO

      325     8060    1           CALL CNVRT_FID ALTRET(GET_ERR);

   8060  2 001502   002020 701000 2                  TSX1    CNVRT_FID
         2 001503   001513 702000 2                  TSX2    GET_ERR

      326     8061        /*
      327     8062          ****    FILE NAME MUST BE SPECIFIED
      328     8063        */
      329     8064    1           IF FID_NAME.L# = 0 THEN

   8064  2 001504   200046 236100                    LDQ     FID_NAME,,AUTO
         2 001505   777000 316003                    CANQ    -512,DU
         2 001506   001513 601000 2                  TNZ     GET_ERR

      330     8065    1              CALL POSTERR(E_XNOFILE);

   8065  2 001507   000021 236000 3                  LDQ     17
         2 001510   200215 756100                    STQ     J+3,,AUTO
         2 001511   002217 701000 2                  TSX1    POSTERR
         2 001512   000000 011000                    NOP     0

      331     8066    1   GET_ERR:
      332     8067    1           RETURN;
PL6.E3A0      #001=CPX$CONTEXT2 File=CPX$CONTEXT2.:E05TSI                        TUE 07/29/97 12:06 Page:72

   8067  2 001513   000000 702200 xent  GET_ERR      TSX2  ! X66_ARET

      333     8068                   %EJECT;
PL6.E3A0      #001=CPX$CONTEXT2 File=CPX$CONTEXT2.:E05TSI                        TUE 07/29/97 12:06 Page:73
      334     8069    1   CPX$RUNIT: ENTRY (P_PARAM);

   8069  2 001514   000000 700200 xent  CPX$RUNIT    TSX0  ! X66_AUTO_1
         2 001515   000222 000001                    ZERO    146,1

      335     8070        /*
      336     8071          ****   CHECK FOR FID ERRORS
      337     8072        */
      338     8073    1           PTR$ = P_PARAM.OUT$;

   8073  2 001516   200003 470500                    LDP0    @P_PARAM,,AUTO
         2 001517   000002 236100                    LDQ     2,,PR0
         2 001520   200201 756100                    STQ     PTR$,,AUTO

      339     8074    1           CALL CNVRT_FID ALTRET(RUNIT_ERR);

   8074  2 001521   002020 701000 2                  TSX1    CNVRT_FID
         2 001522   001541 702000 2                  TSX2    RUNIT_ERR

      340     8075        /*
      341     8076          ****    RUN UNIT NAME MUST BE SPECIFIED
      342     8077        */
      343     8078    2           DO CASE(PTR$->P$S.CODE);

   8078  2 001523   200201 470500                    LDP0    PTR$,,AUTO
         2 001524   000000 720100                    LXL0    0,,PR0
         2 001525   000002 100003                    CMPX0   2,DU
         2 001526   001530 602010 2                  TNC     s:8078+5,X0
         2 001527   001541 710000 2                  TRA     RUNIT_ERR
         2 001530   001541 710000 2                  TRA     RUNIT_ERR
         2 001531   001532 710000 2                  TRA     s:8080

      344     8079    2            CASE(RUNUNITOPT);

      345     8080    2              IF FID_NAME.L# = 0 THEN

   8080  2 001532   200046 236100                    LDQ     FID_NAME,,AUTO
PL6.E3A0      #001=CPX$CONTEXT2 File=CPX$CONTEXT2.:E05TSI                        TUE 07/29/97 12:06 Page:74
         2 001533   777000 316003                    CANQ    -512,DU
         2 001534   001541 601000 2                  TNZ     RUNIT_ERR

      346     8081    2                 CALL POSTERR(E_XNORU);

   8081  2 001535   000022 236000 3                  LDQ     18
         2 001536   200215 756100                    STQ     J+3,,AUTO
         2 001537   002217 701000 2                  TSX1    POSTERR
         2 001540   000000 011000                    NOP     0

      347     8082    2           END;

      348     8083    1   RUNIT_ERR:
      349     8084    1           RETURN;

   8084  2 001541   000000 702200 xent  RUNIT_ERR    TSX2  ! X66_ARET

      350     8085                   %EJECT;
PL6.E3A0      #001=CPX$CONTEXT2 File=CPX$CONTEXT2.:E05TSI                        TUE 07/29/97 12:06 Page:75
      351     8086    1   CPX$RUNQM: ENTRY (P_PARAM);

   8086  2 001542   000000 700200 xent  CPX$RUNQM    TSX0  ! X66_AUTO_1
         2 001543   000222 000001                    ZERO    146,1

      352     8087    1           PTR$ = P_PARAM.OUT$;

   8087  2 001544   200003 470500                    LDP0    @P_PARAM,,AUTO
         2 001545   000002 236100                    LDQ     2,,PR0
         2 001546   200201 756100                    STQ     PTR$,,AUTO

      353     8088        /*
      354     8089          ****    If run unit name has a '?' in it, reject (back up).
      355     8090        */
      356     8091    2           DO CASE(PTR$->P$S.CODE);

   8091  2 001547   200201 471500                    LDP1    PTR$,,AUTO
         2 001550   100000 236100                    LDQ     0,,PR1
         2 001551   777777 376007                    ANQ     -1,DL
         2 001552   000075 136007                    SBLQ    61,DL
         2 001553   000001 116007                    CMPQ    1,DL
         2 001554   001556 602006 2                  TNC     s:8091+7,QL
         2 001555   001620 710000 2                  TRA     s:8107
         2 001556   001557 710000 2                  TRA     s:8093

      357     8092    2            CASE(RUNITCMND);

      358     8093    2              PTR$ = PTR$ -> P$B.SUBLK$(0);

   8093  2 001557   100003 236100                    LDQ     3,,PR1
         2 001560   200201 756100                    STQ     PTR$,,AUTO

      359     8094    2              IF PTR$ -> P$S.COUNT = 0 THEN RETURN;

   8094  2 001561   200201 471500                    LDP1    PTR$,,AUTO
         2 001562   100004 236100                    LDQ     4,,PR1
         2 001563   777000 316003                    CANQ    -512,DU
PL6.E3A0      #001=CPX$CONTEXT2 File=CPX$CONTEXT2.:E05TSI                        TUE 07/29/97 12:06 Page:76
         2 001564   001566 601000 2                  TNZ     s:8095

   8094  2 001565   000000 702200 xent               TSX2  ! X66_ARET

      360     8095    2              CALL INDEX (INDX, '.', SUBSTR (PTR$ -> P$S.TEXT, 0,

   8095  2 001566   100004 236100                    LDQ     4,,PR1
         2 001567   000033 772000                    QRL     27
         2 001570   000000 620006                    EAX0    0,QL
         2 001571   000000 124540                    SCM     mask='000'O
         2 001572   100004 200010                    ADSC9   4,,PR1                   cn=1,n=*X0
         2 001573   000023 000001 3                  ADSC9   19                       cn=0,n=1
         2 001574   200204 000100                    ARG     INDX,,AUTO

      361     8096    2                    PTR$ -> P$S.COUNT));
      362     8097    2              CALL INDEX (VALUE, '?', SUBSTR (PTR$ -> P$S.TEXT, 0, INDX))

   8097  2 001575   100004 236100                    LDQ     4,,PR1
         2 001576   000033 772000                    QRL     27
         2 001577   200204 720100                    LXL0    INDX,,AUTO
         2 001600   000000 124540                    SCM     mask='000'O
         2 001601   100004 200010                    ADSC9   4,,PR1                   cn=1,n=*X0
         2 001602   000024 000001 3                  ADSC9   20                       cn=0,n=1
         2 001603   200203 000100                    ARG     VALUE,,AUTO
         2 001604   001620 606400 2                  TTN     s:8107

      363     8098    3              WHENRETURN DO;

      364     8099    3                    P_PARAM.CHARPOS = PTR$ -> P$S.CPOS;

   8099  2 001605   100002 235100                    LDA     2,,PR1
         2 001606   000004 755100                    STA     4,,PR0

      365     8100    3                    P_PARAM.REJECT = %YES#;

   8100  2 001607   000200 236003                    LDQ     128,DU
         2 001610   000000 256100                    ORSQ    0,,PR0
PL6.E3A0      #001=CPX$CONTEXT2 File=CPX$CONTEXT2.:E05TSI                        TUE 07/29/97 12:06 Page:77

      366     8101    3                    IF NOT P_PARAM.PCB$ -> P$PCB.NXT

   8101  2 001611   000005 473500                    LDP3    5,,PR0
         2 001612   300005 236100                    LDQ     5,,PR3
         2 001613   040000 316007                    CANQ    16384,DL
         2 001614   001617 601000 2                  TNZ     s:8104

      367     8102    3                    THEN
      368     8103    3                       P_PARAM.PCB$ -> P$PCB.HI_CHAR = PTR$ -> P$S.CPOS;

   8103  2 001615   100002 235100                    LDA     2,,PR1
         2 001616   300012 755100                    STA     10,,PR3

      369     8104    3                    RETURN;

   8104  2 001617   000000 702200 xent               TSX2  ! X66_ARET

      370     8105    3                 END;
      371     8106    2           END;

      372     8107    1           RETURN;

   8107  2 001620   000000 702200 xent               TSX2  ! X66_ARET

      373     8108                   %EJECT;
PL6.E3A0      #001=CPX$CONTEXT2 File=CPX$CONTEXT2.:E05TSI                        TUE 07/29/97 12:06 Page:78
      374     8109    1   CPX$FIRST_PASS: ENTRY (P_PARAM);

   8109  2 001621   000000 700200 xent  CPX$FIRST_P* TSX0  ! X66_AUTO_1
         2 001622   000222 000001                    ZERO    146,1

      375     8110    1           PTR$ = P_PARAM.OUT$;

   8110  2 001623   200003 470500                    LDP0    @P_PARAM,,AUTO
         2 001624   000002 236100                    LDQ     2,,PR0
         2 001625   200201 756100                    STQ     PTR$,,AUTO

      376     8111        /*
      377     8112          ****    If run unit name call CPX$RUNQM to if a ?' is in it.
      378     8113        */
      379     8114    1   CASE_BLK:
      380     8115    2           DO CASE(PTR$->P$S.CODE);

   8115  2 001626   200201 471500       CASE_BLK     LDP1    PTR$,,AUTO
         2 001627   100000 236100                    LDQ     0,,PR1
         2 001630   777777 376007                    ANQ     -1,DL
         2 001631   000047 136007                    SBLQ    39,DL
         2 001632   000027 116007                    CMPQ    23,DL
         2 001633   001635 602006 2                  TNC     CASE_BLK+7,QL
         2 001634   001704 710000 2                  TRA     s:8131
         2 001635   001677 710000 2                  TRA     s:8126
         2 001636   001704 710000 2                  TRA     s:8131
         2 001637   001704 710000 2                  TRA     s:8131
         2 001640   001704 710000 2                  TRA     s:8131
         2 001641   001704 710000 2                  TRA     s:8131
         2 001642   001671 710000 2                  TRA     s:8120
         2 001643   001704 710000 2                  TRA     s:8131
         2 001644   001704 710000 2                  TRA     s:8131
         2 001645   001704 710000 2                  TRA     s:8131
         2 001646   001704 710000 2                  TRA     s:8131
         2 001647   001704 710000 2                  TRA     s:8131
         2 001650   001704 710000 2                  TRA     s:8131
         2 001651   001704 710000 2                  TRA     s:8131
PL6.E3A0      #001=CPX$CONTEXT2 File=CPX$CONTEXT2.:E05TSI                        TUE 07/29/97 12:06 Page:79
         2 001652   001704 710000 2                  TRA     s:8131
         2 001653   001704 710000 2                  TRA     s:8131
         2 001654   001704 710000 2                  TRA     s:8131
         2 001655   001704 710000 2                  TRA     s:8131
         2 001656   001704 710000 2                  TRA     s:8131
         2 001657   001704 710000 2                  TRA     s:8131
         2 001660   001704 710000 2                  TRA     s:8131
         2 001661   001704 710000 2                  TRA     s:8131
         2 001662   001704 710000 2                  TRA     s:8131
         2 001663   001664 710000 2                  TRA     s:8117

      381     8116    2            CASE(RUNITCMND);

      382     8117    2              CALL CPX$RUNQM(P_PARAM);

   8117  2 001664   200003 630500                    EPPR0   @P_PARAM,,AUTO
         2 001665   000017 631400 xsym               EPPR1   B_VECTNIL+15
         2 001666   001542 701000 2                  TSX1    s:8086
         2 001667   000000 011000                    NOP     0
         2 001670   001704 710000 2                  TRA     s:8131

      383     8118
      384     8119    2            CASE(PASSWORDCMND);

      385     8120    2              IF IBEX_PASSWORD

   8120  2 001671   000000 234000 1                  SZN     IBEX_PASSWORD
         2 001672   001704 604000 2                  TMI     s:8131

      386     8121    2              THEN EXIT CASE_BLK;
      387     8122    2              P_PARAM.REJECT = %YES#;

   8122  2 001673   000200 236003                    LDQ     128,DU
         2 001674   000000 256100                    ORSQ    0,,PR0

      388     8123    2              P_PARAM.CHARPOS = 0;

PL6.E3A0      #001=CPX$CONTEXT2 File=CPX$CONTEXT2.:E05TSI                        TUE 07/29/97 12:06 Page:80
   8123  2 001675   000004 450100                    STZ     4,,PR0
         2 001676   001704 710000 2                  TRA     s:8131

      389     8124
      390     8125    2            CASE(MESSAGECMND);

      391     8126    2              IF IBEX_MESSAGE

   8126  2 001677   000001 234000 1                  SZN     IBEX_MESSAGE
         2 001700   001704 604000 2                  TMI     s:8131

      392     8127    2              THEN EXIT CASE_BLK;
      393     8128    2              P_PARAM.REJECT = %YES#;

   8128  2 001701   000200 236003                    LDQ     128,DU
         2 001702   000000 256100                    ORSQ    0,,PR0

      394     8129    2              P_PARAM.CHARPOS = 0;

   8129  2 001703   000004 450100                    STZ     4,,PR0

      395     8130    2           END;

      396     8131    1           RETURN;

   8131  2 001704   000000 702200 xent               TSX2  ! X66_ARET

      397     8132                   %EJECT;
PL6.E3A0      #001=CPX$CONTEXT2 File=CPX$CONTEXT2.:E05TSI                        TUE 07/29/97 12:06 Page:81
      398     8133    1   CPX$SAVE: ENTRY (P_PARAM);

   8133  2 001705   000000 700200 xent  CPX$SAVE     TSX0  ! X66_AUTO_1
         2 001706   000222 000001                    ZERO    146,1

      399     8134    1           PTR$ = P_PARAM.OUT$;

   8134  2 001707   200003 470500                    LDP0    @P_PARAM,,AUTO
         2 001710   000002 236100                    LDQ     2,,PR0
         2 001711   200201 756100                    STQ     PTR$,,AUTO

      400     8135    1           CALL CNVRT_FID ALTRET(SAVE_ERR);

   8135  2 001712   002020 701000 2                  TSX1    CNVRT_FID
         2 001713   001723 702000 2                  TSX2    SAVE_ERR

      401     8136        /*
      402     8137          ****     FILE NAME MUST BE SPECIFIED
      403     8138        */
      404     8139    1           IF FID_NAME.L# = 0 THEN

   8139  2 001714   200046 236100                    LDQ     FID_NAME,,AUTO
         2 001715   777000 316003                    CANQ    -512,DU
         2 001716   001723 601000 2                  TNZ     SAVE_ERR

      405     8140    1              CALL POSTERR(E_XNOFILE);

   8140  2 001717   000021 236000 3                  LDQ     17
         2 001720   200215 756100                    STQ     J+3,,AUTO
         2 001721   002217 701000 2                  TSX1    POSTERR
         2 001722   000000 011000                    NOP     0

      406     8141    1   SAVE_ERR:
      407     8142    1           RETURN;

   8142  2 001723   000000 702200 xent  SAVE_ERR     TSX2  ! X66_ARET

PL6.E3A0      #001=CPX$CONTEXT2 File=CPX$CONTEXT2.:E05TSI                        TUE 07/29/97 12:06 Page:82
      408     8143                  %EJECT;
PL6.E3A0      #001=CPX$CONTEXT2 File=CPX$CONTEXT2.:E05TSI                        TUE 07/29/97 12:06 Page:83
      409     8144    1   CPX$START: ENTRY (P_PARAM);

   8144  2 001724   000000 700200 xent  CPX$START    TSX0  ! X66_AUTO_1
         2 001725   000222 000001                    ZERO    146,1

      410     8145        /*
      411     8146          ****   CHECK FOR FID ERRORS
      412     8147        */
      413     8148    1           PTR$ = P_PARAM.OUT$;

   8148  2 001726   200003 470500                    LDP0    @P_PARAM,,AUTO
         2 001727   000002 236100                    LDQ     2,,PR0
         2 001730   200201 756100                    STQ     PTR$,,AUTO

      414     8149    1           CALL CNVRT_FID ALTRET(START_ERR);

   8149  2 001731   002020 701000 2                  TSX1    CNVRT_FID
         2 001732   001763 702000 2                  TSX2    START_ERR

      415     8150    2           DO CASE(PTR$->P$S.CODE);

   8150  2 001733   200201 470500                    LDP0    PTR$,,AUTO
         2 001734   000000 720100                    LXL0    0,,PR0
         2 001735   000003 100003                    CMPX0   3,DU
         2 001736   001740 602010 2                  TNC     s:8150+5,X0
         2 001737   001763 710000 2                  TRA     START_ERR
         2 001740   001763 710000 2                  TRA     START_ERR
         2 001741   001743 710000 2                  TRA     s:8155
         2 001742   001753 710000 2                  TRA     s:8161

      416     8151    2            CASE(RUNUNITOPT);

      417     8152        /*
      418     8153          ****       RUN UNIT NAME MUST BE SPECIFIED
      419     8154        */
      420     8155    2              IF FID_NAME.L# = 0 THEN

PL6.E3A0      #001=CPX$CONTEXT2 File=CPX$CONTEXT2.:E05TSI                        TUE 07/29/97 12:06 Page:84
   8155  2 001743   200046 236100                    LDQ     FID_NAME,,AUTO
         2 001744   777000 316003                    CANQ    -512,DU
         2 001745   001763 601000 2                  TNZ     START_ERR

      421     8156    2                 CALL POSTERR(E_XNORU);

   8156  2 001746   000022 236000 3                  LDQ     18
         2 001747   200215 756100                    STQ     J+3,,AUTO
         2 001750   002217 701000 2                  TSX1    POSTERR
         2 001751   000000 011000                    NOP     0
         2 001752   001763 710000 2                  TRA     START_ERR

      422     8157    2            CASE(SDEBUGOPT);

      423     8158        /*
      424     8159           ****    DEBUGGER NAME CAN'T EXCEED 11 CHARS.
      425     8160        */
      426     8161    2              IF PTR$->P$S.COUNT > 11 THEN

   8161  2 001753   000004 236100                    LDQ     4,,PR0
         2 001754   777000 376003                    ANQ     -512,DU
         2 001755   014000 116003                    CMPQ    6144,DU
         2 001756   001763 602000 2                  TNC     START_ERR

      427     8162    2                 CALL POSTERR(E_XBIGDBUG);

   8162  2 001757   000025 236000 3                  LDQ     21
         2 001760   200215 756100                    STQ     J+3,,AUTO
         2 001761   002217 701000 2                  TSX1    POSTERR
         2 001762   000000 011000                    NOP     0

      428     8163    2           END;

      429     8164    1   START_ERR:
      430     8165    1           RETURN;

   8165  2 001763   000000 702200 xent  START_ERR    TSX2  ! X66_ARET
PL6.E3A0      #001=CPX$CONTEXT2 File=CPX$CONTEXT2.:E05TSI                        TUE 07/29/97 12:06 Page:85

      431     8166                  %EJECT;
PL6.E3A0      #001=CPX$CONTEXT2 File=CPX$CONTEXT2.:E05TSI                        TUE 07/29/97 12:06 Page:86
      432     8167    1   CPX$U:  ENTRY (P_PARAM);

   8167  2 001764   000000 700200 xent  CPX$U        TSX0  ! X66_AUTO_1
         2 001765   000222 000001                    ZERO    146,1

      433     8168        /*
      434     8169          ****    DEBUGGER NAME CAN'T EXCEED 11 CHARS.
      435     8170        */
      436     8171    1           PTR$ = P_PARAM.OUT$;

   8171  2 001766   200003 470500                    LDP0    @P_PARAM,,AUTO
         2 001767   000002 236100                    LDQ     2,,PR0
         2 001770   200201 756100                    STQ     PTR$,,AUTO

      437     8172    1           IF PTR$->P$S.COUNT > 11 THEN

   8172  2 001771   200201 471500                    LDP1    PTR$,,AUTO
         2 001772   100004 236100                    LDQ     4,,PR1
         2 001773   777000 376003                    ANQ     -512,DU
         2 001774   014000 116003                    CMPQ    6144,DU
         2 001775   002002 602000 2                  TNC     s:8174

      438     8173    1              CALL POSTERR(E_XBIGDBUG);

   8173  2 001776   000025 236000 3                  LDQ     21
         2 001777   200215 756100                    STQ     J+3,,AUTO
         2 002000   002217 701000 2                  TSX1    POSTERR
         2 002001   000000 011000                    NOP     0

      439     8174    1           RETURN;

   8174  2 002002   000000 702200 xent               TSX2  ! X66_ARET

      440     8175    1   E_DECBIN:
      441     8176    1           CALL POSTERR(E_BDCVAL);

   8176  2 002003   000026 236000 3     E_DECBIN     LDQ     22
PL6.E3A0      #001=CPX$CONTEXT2 File=CPX$CONTEXT2.:E05TSI                        TUE 07/29/97 12:06 Page:87
         2 002004   200215 756100                    STQ     J+3,,AUTO
         2 002005   002217 701000 2                  TSX1    POSTERR
         2 002006   000000 011000                    NOP     0

      442     8177    1           RETURN;

   8177  2 002007   000000 702200 xent               TSX2  ! X66_ARET

      443     8178                  %EJECT;
PL6.E3A0      #001=CPX$CONTEXT2 File=CPX$CONTEXT2.:E05TSI                        TUE 07/29/97 12:06 Page:88
      444     8179    1   CPX$DRIBBLE: ENTRY (P_PARAM);

   8179  2 002010   000000 700200 xent  CPX$DRIBBLE  TSX0  ! X66_AUTO_1
         2 002011   000222 000001                    ZERO    146,1

      445     8180        /*
      446     8181          ****    CHECK FOR FID ERRORS
      447     8182        */
      448     8183    1           PTR$ = P_PARAM.OUT$;

   8183  2 002012   200003 470500                    LDP0    @P_PARAM,,AUTO
         2 002013   000002 236100                    LDQ     2,,PR0
         2 002014   200201 756100                    STQ     PTR$,,AUTO

      449     8184    1           CALL CNVRT_FID ALTRET(DRIBBLE_ERR);

   8184  2 002015   002020 701000 2                  TSX1    CNVRT_FID
         2 002016   002017 702000 2                  TSX2    DRIBBLE_ERR

      450     8185    1   DRIBBLE_ERR:
      451     8186    1           RETURN;

   8186  2 002017   000000 702200 xent  DRIBBLE_ERR  TSX2  ! X66_ARET

      452     8187                  %EJECT;
PL6.E3A0      #001=CPX$CONTEXT2 File=CPX$CONTEXT2.:E05TSI                        TUE 07/29/97 12:06 Page:89
      453     8188        /**********************************************************************/
      454     8189        /*I*      NAME:CNVRT_FID
      455     8190                  PURPOSE:  BREAKS UP A FID INTO ITS VARIOUS COMPONENTS
      456     8191                  INPUT:    PTR$->P$S.TEXT
      457     8192                  OUTPUT:   FID into various vlp's
      458     8193                            errors output resulting from M$FID pmme execution
      459     8194                            Password blanked out in seg$2.cpbuff
      460     8195        */
      461     8196        /**********************************************************************/
      462     8197    1   CNVRT_FID: PROC ALTRET;

   8197  2 002020   200210 741300       CNVRT_FID    STX1  ! FID_RES+2,,AUTO

      463     8198        /*
      464     8199          ****    BREAK UP THE FID
      465     8200        */
      466     8201    2              FPT_FID =CFPT_FID;

   8201  2 002021   000100 100400                    MLR     fill='000'O
         2 002022   000002 000140 1                  ADSC9   CFPT_FID                 cn=0,n=96
         2 002023   200004 000140                    ADSC9   FPT_FID,,AUTO            cn=0,n=96

      467     8202    2              FPT_FID.V_=VECTOR(FPT_FID.V);

   8202  2 002024   000027 235000 3                  LDA     23
         2 002025   200216 452500                    STP2    @ERRCODE+1,,AUTO
         2 002026   200216 236100                    LDQ     @ERRCODE+1,,AUTO
         2 002027   000030 036003                    ADLQ    24,DU
         2 002030   200004 757100                    STAQ    FPT_FID,,AUTO

      468     8203    2              FPT_FID.SN_ = VECTOR(FID_SN);

   8203  2 002031   000030 235000 3                  LDA     24
         2 002032   200216 452500                    STP2    @ERRCODE+1,,AUTO
         2 002033   200216 236100                    LDQ     @ERRCODE+1,,AUTO
         2 002034   000056 036003                    ADLQ    46,DU
         2 002035   200016 757100                    STAQ    FPT_FID+10,,AUTO
PL6.E3A0      #001=CPX$CONTEXT2 File=CPX$CONTEXT2.:E05TSI                        TUE 07/29/97 12:06 Page:90

      469     8204    2              FPT_FID.WSN_ = VECTOR(FID_WSN);

   8204  2 002036   000031 235000 3                  LDA     25
         2 002037   200216 452500                    STP2    @ERRCODE+1,,AUTO
         2 002040   200216 236100                    LDQ     @ERRCODE+1,,AUTO
         2 002041   000176 036003                    ADLQ    126,DU
         2 002042   200020 757100                    STAQ    FPT_FID+12,,AUTO

      470     8205    2              FPT_FID.ASN_ = VECTOR(FID_ASN);

   8205  2 002043   777640 235007                    LDA     -96,DL
         2 002044   200216 452500                    STP2    @ERRCODE+1,,AUTO
         2 002045   200216 236100                    LDQ     @ERRCODE+1,,AUTO
         2 002046   000205 036003                    ADLQ    133,DU
         2 002047   200022 757100                    STAQ    FPT_FID+14,,AUTO

      471     8206    2              FPT_FID.RES_ = VECTOR(FID_RES);

   8206  2 002050   777640 235007                    LDA     -96,DL
         2 002051   200216 452500                    STP2    @ERRCODE+1,,AUTO
         2 002052   200216 236100                    LDQ     @ERRCODE+1,,AUTO
         2 002053   000206 036003                    ADLQ    134,DU
         2 002054   200024 757100                    STAQ    FPT_FID+16,,AUTO

      472     8207    2              FPT_FID.NAME_ = VECTOR(FID_NAME);

   8207  2 002055   000032 235000 3                  LDA     26
         2 002056   200216 452500                    STP2    @ERRCODE+1,,AUTO
         2 002057   200216 236100                    LDQ     @ERRCODE+1,,AUTO
         2 002060   000046 036003                    ADLQ    38,DU
         2 002061   200010 757100                    STAQ    FPT_FID+4,,AUTO

      473     8208    2              FPT_FID.ACCT_ = VECTOR(FID_ACCT);

   8208  2 002062   000031 235000 3                  LDA     25
         2 002063   200216 452500                    STP2    @ERRCODE+1,,AUTO
PL6.E3A0      #001=CPX$CONTEXT2 File=CPX$CONTEXT2.:E05TSI                        TUE 07/29/97 12:06 Page:91
         2 002064   200216 236100                    LDQ     @ERRCODE+1,,AUTO
         2 002065   000172 036003                    ADLQ    122,DU
         2 002066   200012 757100                    STAQ    FPT_FID+6,,AUTO

      474     8209    2              FPT_FID.PASS_ = VECTOR(FID_PASS);

   8209  2 002067   000031 235000 3                  LDA     25
         2 002070   200216 452500                    STP2    @ERRCODE+1,,AUTO
         2 002071   200216 236100                    LDQ     @ERRCODE+1,,AUTO
         2 002072   000174 036003                    ADLQ    124,DU
         2 002073   200014 757100                    STAQ    FPT_FID+8,,AUTO

      475     8210    2              FPT_FID.RESULTS_ = VECTOR(FID_RESULTS);

   8210  2 002074   000033 235000 3                  LDA     27
         2 002075   200216 452500                    STP2    @ERRCODE+1,,AUTO
         2 002076   200216 236100                    LDQ     @ERRCODE+1,,AUTO
         2 002077   000034 036003                    ADLQ    28,DU
         2 002100   200026 757100                    STAQ    FPT_FID+18,,AUTO

      476     8211    2              FPT_FID.TEXTFID_ = VECTOR(PTR$->P$S.TEXT);

   8211  2 002101   200201 470500                    LDP0    PTR$,,AUTO
         2 002102   000004 236100                    LDQ     4,,PR0
         2 002103   000033 772000                    QRL     27
         2 002104   000064 737000                    LLS     52
         2 002105   000140 135007                    SBLA    96,DL
         2 002106   200201 236100                    LDQ     PTR$,,AUTO
         2 002107   000034 036000 3                  ADLQ    28
         2 002110   200006 757100                    STAQ    FPT_FID+2,,AUTO

      477     8212    2              CALL M$FID(FPT_FID) ALTRET(CNVRT_FID50);

   8212  2 002111   200004 630500                    EPPR0   FPT_FID,,AUTO
         2 002112   420001 713400                    CLIMB   alt,+8193
         2 002113   404400 401760                    pmme    nvectors=10
         2 002114   002117 702000 2                  TSX2    CNVRT_FID50
PL6.E3A0      #001=CPX$CONTEXT2 File=CPX$CONTEXT2.:E05TSI                        TUE 07/29/97 12:06 Page:92

      478     8213    2              RETURN;

   8213  2 002115   200210 221300                    LDX1  ! FID_RES+2,,AUTO
         2 002116   000001 702211                    TSX2  ! 1,X1

      479     8214    2   CNVRT_FID50:
      480     8215    2              CALL POSTERR (B$TCB.ALT$ -> B$EXCFR.ERR);

   8215  2 002117   000000 470400 xsym  CNVRT_FID50  LDP0    B$TCB$
         2 002120   000000 471500                    LDP1    0,,PR0
         2 002121   100102 633500                    EPPR3   66,,PR1
         2 002122   200215 453500                    STP3    J+3,,AUTO
         2 002123   002217 701000 2                  TSX1    POSTERR
         2 002124   000000 011000                    NOP     0

      481     8216    2              ALTRETURN;

   8216  2 002125   200210 221300                    LDX1  ! FID_RES+2,,AUTO
         2 002126   000000 702211                    TSX2  ! 0,X1

      482     8217    2      END CNVRT_FID;
      483     8218                 %EJECT;
PL6.E3A0      #001=CPX$CONTEXT2 File=CPX$CONTEXT2.:E05TSI                        TUE 07/29/97 12:06 Page:93
      484     8219        /**********************************************************************/
      485     8220        /*I*      NAME:   CHK_DCBNAME
      486     8221                  PURPOSE: VALIDATE A DCB NAME
      487     8222                  INPUT:   PTR$->P$S
      488     8223                           PTR1$->P$B
      489     8224        */
      490     8225        /**********************************************************************/
      491     8226    1   CHK_DCBNAME: PROC ;

   8226  2 002127   200210 741300       CHK_DCBNAME  STX1  ! FID_RES+2,,AUTO

      492     8227    2   DCL I SBIN;
      493     8228    2   DCL J SBIN;
      494     8229    2   DCL 1 DCBNAME BASED UNAL,
      495     8230    2         2 COUNT UBIN(9) UNAL,
      496     8231    2         2 TEXT(0:0) CHAR(1);
      497     8232        /**/
      498     8233        /**/
      499     8234        /*
      500     8235          ****    CHECK DCB LENGTH ... CAN'T EXCEED 29 CHARS, IF FORTRAN TYPE.
      501     8236                  OTHERWISE 31 CHARS. MAX.
      502     8237        */
      503     8238    2              IF PTR$->P$S.COUNT > 29 THEN

   8238  2 002130   200201 470500                    LDP0    PTR$,,AUTO
         2 002131   000004 236100                    LDQ     4,,PR0
         2 002132   777000 376003                    ANQ     -512,DU
         2 002133   036000 116003                    CMPQ    15360,DU
         2 002134   002176 602000 2                  TNC     s:8253

      504     8239    3                 DO;

      505     8240    3                    I = PTR$->P$S.COUNT-1;           /*CHK IF UNIT NUMBER SPEC'D*/

   8240  2 002135   000004 236100                    LDQ     4,,PR0
         2 002136   000033 772000                    QRL     27
         2 002137   000001 136007                    SBLQ    1,DL
PL6.E3A0      #001=CPX$CONTEXT2 File=CPX$CONTEXT2.:E05TSI                        TUE 07/29/97 12:06 Page:94
         2 002140   200211 756100                    STQ     I,,AUTO

      506     8241    3                    J = 0;

   8241  2 002141   200212 450100                    STZ     J,,AUTO

      507     8242    4                    DO WHILE (I>=0);

   8242  2 002142   002161 604000 2                  TMI     s:8249

      508     8243    4                       IF (PTR1$->DCBNAME.TEXT(I) >= '0' AND

   8243  2 002143   200202 470500                    LDP0    PTR1$,,AUTO
         2 002144   200211 235100                    LDA     I,,AUTO
         2 002145   040000 106505                    CMPC    fill='040'O
         2 002146   000000 200001                    ADSC9   0,A,PR0                  cn=1,n=1
         2 002147   000035 000001 3                  ADSC9   29                       cn=0,n=1
         2 002150   002156 602000 2                  TNC     s:8247
         2 002151   040105 106400                    CMPC    fill='040'O
         2 002152   000036 000001 3                  ADSC9   30                       cn=0,n=1
         2 002153   000000 200001                    ADSC9   0,A,PR0                  cn=1,n=1
         2 002154   002156 602000 2                  TNC     s:8247

      509     8244    4                             PTR1$->DCBNAME.TEXT(I) <= '9') THEN
      510     8245    4                          J = J+1;

   8245  2 002155   200212 054100                    AOS     J,,AUTO

      511     8246    4                       ELSE ;
      512     8247    4                       I = I-1;

   8247  2 002156   000001 336007                    LCQ     1,DL
         2 002157   200211 056100                    ASQ     I,,AUTO

      513     8248    4                    END;

   8248  2 002160   002143 605000 2                  TPL     s:8243
PL6.E3A0      #001=CPX$CONTEXT2 File=CPX$CONTEXT2.:E05TSI                        TUE 07/29/97 12:06 Page:95

      514     8249    3                    IF (J > 29) OR (PTR$->P$S.COUNT > 31) THEN

   8249  2 002161   200212 235100                    LDA     J,,AUTO
         2 002162   000035 115007                    CMPA    29,DL
         2 002163   002171 605400 2                  TPNZ    s:8250
         2 002164   200201 470500                    LDP0    PTR$,,AUTO
         2 002165   000004 236100                    LDQ     4,,PR0
         2 002166   777000 376003                    ANQ     -512,DU
         2 002167   040000 116003                    CMPQ    16384,DU
         2 002170   002215 602000 2                  TNC     s:8256

      515     8250    3                       CALL POSTERR(E_XBIGDCB);

   8250  2 002171   000037 236000 3                  LDQ     31
         2 002172   200215 756100                    STQ     J+3,,AUTO
         2 002173   002217 701000 2                  TSX1    POSTERR
         2 002174   000000 011000                    NOP     0

      516     8251    3                 END;

   8251  2 002175   002215 710000 2                  TRA     s:8256

      517     8252    2              ELSE
      518     8253    2                 IF (PTR$->P$S.TEXT = 'M$UC' OR

   8253  2 002176   000004 236100                    LDQ     4,,PR0
         2 002177   000033 772000                    QRL     27
         2 002200   000000 620006                    EAX0    0,QL
         2 002201   040000 106540                    CMPC    fill='040'O
         2 002202   000004 200010                    ADSC9   4,,PR0                   cn=1,n=*X0
         2 002203   000056 000004 1                  ADSC9   E_BDSTRMNUM+1            cn=0,n=4
         2 002204   002211 600000 2                  TZE     s:8255
         2 002205   040000 106540                    CMPC    fill='040'O
         2 002206   000004 200010                    ADSC9   4,,PR0                   cn=1,n=*X0
         2 002207   000057 000004 1                  ADSC9   E_BDSTRMNUM+2            cn=0,n=4
         2 002210   002215 601000 2                  TNZ     s:8256
PL6.E3A0      #001=CPX$CONTEXT2 File=CPX$CONTEXT2.:E05TSI                        TUE 07/29/97 12:06 Page:96

      519     8254    2                       PTR$->P$S.TEXT = 'M$LM') THEN
      520     8255    2                    CALL POSTERR(E_XILLDCB);

   8255  2 002211   000040 236000 3                  LDQ     32
         2 002212   200215 756100                    STQ     J+3,,AUTO
         2 002213   002217 701000 2                  TSX1    POSTERR
         2 002214   000000 011000                    NOP     0

      521     8256    2              RETURN;

   8256  2 002215   200210 221300                    LDX1  ! FID_RES+2,,AUTO
         2 002216   000001 702211                    TSX2  ! 1,X1

      522     8257    2      END CHK_DCBNAME;
      523     8258        %EJECT;
PL6.E3A0      #001=CPX$CONTEXT2 File=CPX$CONTEXT2.:E05TSI                        TUE 07/29/97 12:06 Page:97
      524     8259        /******************************************************************************/
      525     8260        /*I*      NAME: POSTERR
      526     8261                  PURPOSE: Calls CXP$POSTERR with appropriate parameters.
      527     8262                  INPUT: The parameter is an error code.  PTR$ points to the offending
      528     8263                         parse output block.
      529     8264        */
      530     8265        /******************************************************************************/
      531     8266    1   POSTERR:   PROC(ERRCODE);

   8266  2 002217   200214 741300       POSTERR      STX1  ! J+2,,AUTO

      532     8267    2   DCL ERRCODE BIT(36) ALIGNED;
      533     8268        /**/
      534     8269    2              CALL CXP$POSTERR(U$PARAM.ERRBUF$,PTR$->P$B.CPOS,ERRCODE);

   8269  2 002220   200003 470500                    LDP0    @P_PARAM,,AUTO
         2 002221   000006 471500                    LDP1    6,,PR0
         2 002222   200215 236100                    LDQ     @ERRCODE,,AUTO
         2 002223   200220 756100                    STQ     @ERRCODE+3,,AUTO
         2 002224   200201 236100                    LDQ     PTR$,,AUTO
         2 002225   000002 036003                    ADLQ    2,DU
         2 002226   200217 756100                    STQ     @ERRCODE+2,,AUTO
         2 002227   200216 451500                    STP1    @ERRCODE+1,,AUTO
         2 002230   200216 630500                    EPPR0   @ERRCODE+1,,AUTO
         2 002231   000021 631400 xsym               EPPR1   B_VECTNIL+17
         2 002232   000000 701000 xent               TSX1    CXP$POSTERR
         2 002233   000000 011000                    NOP     0

      535     8270    2              RETURN;

   8270  2 002234   200214 221300                    LDX1  ! J+2,,AUTO
         2 002235   000001 702211                    TSX2  ! 1,X1
      536     8271    2      END POSTERR;
      537     8272    1   END CPX$CONTEXT2;

PL6.E3A0      #001=CPX$CONTEXT2 File=CPX$CONTEXT2.:E05TSI                        TUE 07/29/97 12:06 Page:98
--  Include file information  --

   UM_ERRORS_C.:E05TOU  is referenced.
   JG_GHOSTS_C.:E05TOU  is referenced.
   XU_SUBS_C.:E05TOU  is referenced.
   XU_MACRO_C.:E05TOU  is referenced.
   CP_6_SUBS.:E05TOU  is referenced.
   CP_PERR_C.:E05TOU  is referenced.
   CP_SUBS_C.:E05TOU  is referenced.
   CP_MACROS_C.:E05TOU  is referenced.
   CP_6.:E05TOU  cannot be made into a system file and is referenced.
   B_MACROS_C.:E05TOU  is referenced.
   B$JIT.:E05TOU  cannot be made into a system file and is referenced.
   B$JIT_C.:E05TOU  was found in the system file and is referenced.
   CP_6_C.:E05TOU  was found in the system file and is referenced.
      No diagnostics issued in procedure CPX$CONTEXT2.
PL6.E3A0      #001=CPX$CONTEXT2 File=CPX$CONTEXT2.:E05TSI                        TUE 07/29/97 12:06 Page:99

 **** Variables and constants ****

  ****  Section 001 RoData CPX$CONTEXT2

  ****  Scalars and arrays  ****
OctLoc.c.b A Datatyp(siz) R M Lvl/name                 OctLoc.c.b A Datatyp(siz) R M Lvl/name

     2-0-0/d STRC(864)   r     1 CFPT_FID                  33-0-0/w STRC        r     1 E_BDCVAL
    54-0-0/w STRC        r     1 E_BDSTRMNAME              55-0-0/w STRC        r     1 E_BDSTRMNUM
    53-0-0/w STRC        r     1 E_CHBIGDEV                51-0-0/w STRC        r     1 E_CHBIGFORM
    52-0-0/w STRC        r     1 E_CHBIGTERM               45-0-0/w STRC        r     1 E_JPBIGACCT
    46-0-0/w STRC        r     1 E_JPBIGJNAME              50-0-0/w STRC        r     1 E_JPBIGWSN
    47-0-0/w STRC        r     1 E_JPILLSYSID              34-0-0/w STRC        r     1 E_XBAFID
    35-0-0/w STRC        r     1 E_XBDIRFID                44-0-0/w STRC        r     1 E_XBIG67108863
    40-0-0/w STRC        r     1 E_XBIGDBUG                41-0-0/w STRC        r     1 E_XBIGDCB
    42-0-0/w STRC        r     1 E_XILLDCB                 37-0-0/w STRC        r     1 E_XNOFILE
    36-0-0/w STRC        r     1 E_XNORU                   43-0-0/w STRC        r     1 E_XNULLSTRING
     1-0-0/b BIT         r     1 IBEX_MESSAGE               0-0-0/b BIT         r     1 IBEX_PASSWORD

  ****  Auto variables  ****

  ****  Scalars and arrays  ****
OctLoc.c.b A Datatyp(siz) R M Lvl/name                 OctLoc.c.b A Datatyp(siz) R M Lvl/name

   215-0-0/w PTR         r     1 @ERRCODE                   3-0-0/w PTR         r     1 @P_PARAM
    *0-0-0/w BIT         r     1 ERRCODE                  172-0-0/c STRC(72)    r     1 FID_ACCT
   205-0-0/w UBIN(9)     r     1 FID_ASN                   46-0-0/c STRC(288)   r     1 FID_NAME
   174-0-0/c STRC(72)    r     1 FID_PASS                 206-0-0/c CHAR(4)     r     1 FID_RES
    34-0-0/d STRC(324)   r     1 FID_RESULTS               56-0-0/d STRC(2736)  r     1 FID_SN
   176-0-0/c STRC(72)    r     1 FID_WSN                    4-0-0/d STRC(864)   r     1 FPT_FID
   211-0-0/w SBIN        r     1 I                        204-0-0/w UBIN        r     1 INDX
   212-0-0/w SBIN        r     1 J                        201-0-0/w PTR         r     1 PTR$
   202-0-0/w PTR         r     1 PTR1$                     *0-0-0/w STRC(270)   r     1 P_PARAM
   203-0-0/w SBIN        r     1 VALUE

  ****  SYMREF variables  ****

PL6.E3A0      #001=CPX$CONTEXT2 File=CPX$CONTEXT2.:E05TSI                        TUE 07/29/97 12:06 Page:100
  ****  Scalars and arrays  ****
OctLoc.c.b A Datatyp(siz) R M Lvl/name                 OctLoc.c.b A Datatyp(siz) R M Lvl/name

     0-0-0/w PTR         r     1 B$JIT$                     0-0-0/w PTR         r     1 B$TCB$

  ****  BASED and DCB variables  ****

  ****  Scalars and arrays  ****
OctLoc.c.b A Datatyp(siz) R M Lvl/name                 OctLoc.c.b A Datatyp(siz) R M Lvl/name

     0-0-0/w STRC(2448)  r     1 B$EXCFR                    0-0-0/w STRC(144)   r     1 B$TCB
     0-0-0/c STRC(18)    r     1 DCBNAME                    0-0-0/w STRC(144)   r     1 P$B
     0-0-0/w STRC(504)   r     1 P$PCB                      0-0-0/w ASTR(153)   r     1 P$S
     0-0-0/w STRC(576)   r     1 U$PARAM


   Procedure CPX$CONTEXT2 requires 1182 words for executable code.
   Procedure CPX$CONTEXT2 requires 146 words of local(AUTO) storage.

    No errors detected in file CPX$CONTEXT2.:E05TSI    .
PL6.E3A0      #001=CPX$CONTEXT2 File=CPX$CONTEXT2.:E05TSI                        TUE 07/29/97 12:06 Page:101
          *** CROSS REFERENCE LISTING ***
**     DENOTES     IDENTIFIER DEFINITION
<<                 IDENTIFIER'S VALUE SET
>>                 IDENTIFIER'S VALUE USED
<>                 IDENTIFIER SET AND/OR USED
--                 IDENTIFIER REFERENCED
PL6.E3A0      #001=CPX$CONTEXT2 File=CPX$CONTEXT2.:E05TSI                        TUE 07/29/97 12:06 Page:102
          MINI XREF LISTING

B$EXCFR.ASL
      6922**DCL      6922--REDEF
B$EXCFR.ERR
      6936**DCL      8215<>CALL
B$EXCFR.ERR.ERR#
      6936**DCL      6936--REDEF
B$EXCFR.EVID
      6935**DCL      6935--REDEF    6936--REDEF
B$EXCFR.IR
      6923**DCL      6923--REDEF
B$EXCFR.PREVSZ
      6922**DCL      6922--REDEF
B$EXCFR.SUBC
      6934**DCL      6934--REDEF    6935--REDEF    6935--REDEF
B$JIT.CPFLAGS1.SLEAZE
       122**DCL       122--REDEF
B$JIT.ERR.MID
        29**DCL        29--REDEF
B$JIT.JRESPEAK
       190**DCL       191--REDEF
B$JIT.ORIGINATOR_PORT.FROM_CR
       299**DCL       299--REDEF     300--REDEF
B$JIT.PNR
       203**DCL       203--REDEF
B$JIT.TSLINE
       297**DCL       298--REDEF
B$JIT$
      6870**DCL        23--IMP-PTR
B$TCB.ALT$
      6919**DCL      8215>>CALL
B$TCB$
      6871**DCL      6919--IMP-PTR  8215>>CALL
PL6.E3A0      #001=CPX$CONTEXT2 File=CPX$CONTEXT2.:E05TSI                        TUE 07/29/97 12:06 Page:103
BATXEQ_ERR
      7912**LABEL    7884--CALLALT  7892--CALLALT
CASE_BLK
      8115**LABEL    8121--EXIT     8127--EXIT
CFPT_FID
      6887**DCL      8201>>ASSIGN
CFPT_FID.V
      6891**DCL      6887--DCLINIT
CHECKNOTIFY_ERR
      7976**LABEL    7949--CALLALT
CHK_DCBNAME
      8226**PROC     8018--CALL
CNVRT_FID
      8197**PROC     7884--CALL     7892--CALL     7949--CALL     7983--CALL     7989--CALL     8051--CALL
      8060--CALL     8074--CALL     8135--CALL     8149--CALL     8184--CALL
CNVRT_FID50 IN PROCEDURE CNVRT_FID
      8215**LABEL    8212--CALLALT
COMMENT_ERR
      7985**LABEL    7983--CALLALT
CPX$RUNQM
      8086**ENTRY    8117--CALL
CXP$POSTERR
      6900**DCL-ENT  8269--CALL
CXX$DECBIN
      6901**DCL-ENT  7902--CALL     7918--CALL
DCBNAME.TEXT IN PROCEDURE CHK_DCBNAME
      8231**DCL      8243>>IF       8243>>IF
DIR_ERR
      8007**LABEL    7995--GOTO     7998--GOTO     8003--GOTO
DRIBBLE_ERR
      8186**LABEL    8184--CALLALT
ERRCODE IN PROCEDURE POSTERR
      8267**DCL      8266--PROC     8269<>CALL
E_BDCVAL
      6979**DCL      8176<>CALL
E_BDSTRMNAME
PL6.E3A0      #001=CPX$CONTEXT2 File=CPX$CONTEXT2.:E05TSI                        TUE 07/29/97 12:06 Page:104
      7789**DCL      8022<>CALL     8037<>CALL
E_BDSTRMNUM
      7838**DCL      8026<>CALL     8041<>CALL
E_CHBIGDEV
      7741**DCL      7957<>CALL
E_CHBIGFORM
      7645**DCL      7962<>CALL
E_CHBIGTERM
      7693**DCL      7942<>CALL
E_DECBIN
      8176**LABEL    7902--CALLALT  7918--CALLALT
E_JPBIGACCT
      7465**DCL      7923<>CALL
E_JPBIGJNAME
      7510**DCL      7967<>CALL
E_JPBIGWSN
      7600**DCL      7932<>CALL
E_JPILLSYSID
      7555**DCL      7972<>CALL
E_XBAFID
      7024**DCL      7887<>CALL     7952<>CALL
E_XBDIRFID
      7072**DCL      8007<>CALL
E_XBIG67108863
      7416**DCL      7905<>CALL
E_XBIGDBUG
      7218**DCL      8162<>CALL     8173<>CALL
E_XBIGDCB
      7267**DCL      8250<>CALL
E_XILLDCB
      7317**DCL      8255<>CALL
E_XNOFILE
      7170**DCL      8065<>CALL     8140<>CALL
E_XNORU
      7120**DCL      8081<>CALL     8156<>CALL
E_XNULLSTRING
PL6.E3A0      #001=CPX$CONTEXT2 File=CPX$CONTEXT2.:E05TSI                        TUE 07/29/97 12:06 Page:105
      7367**DCL      7909<>CALL
FID_ACCT
      6841**DCL      8208--ASSIGN
FID_ACCT.ACCT#
      6841**DCL      7994>>IF
FID_ASN
      6913**DCL      7885>>IF       7950>>IF       7996>>IF       8205--ASSIGN
FID_ERR
      8005**LABEL    7989--CALLALT
FID_NAME
      6815**DCL      8207--ASSIGN
FID_NAME.L#
      6815**DCL      8064>>IF       8080>>IF       8139>>IF       8155>>IF
FID_PASS
      6854**DCL      8209--ASSIGN
FID_RES
      6914**DCL      8206--ASSIGN
FID_RESULTS
      6782**DCL      8210--ASSIGN
FID_RESULTS.ACCT
      6782**DCL      7994>>IF
FID_RESULTS.NAME
      6782**DCL      7996>>IF
FID_RESULTS.PASS
      6782**DCL      7996>>IF
FID_RESULTS.WSN
      6782**DCL      7996>>IF
FID_SN
      6828**DCL      8203--ASSIGN
FID_SN.NUM#
      6828**DCL      8002>>IF
FID_WSN
      6867**DCL      8204--ASSIGN
FPT_FID
      6378**DCL      8201<<ASSIGN   8212<>CALL
FPT_FID.ACCT_
PL6.E3A0      #001=CPX$CONTEXT2 File=CPX$CONTEXT2.:E05TSI                        TUE 07/29/97 12:06 Page:106
      6379**DCL      8208<<ASSIGN
FPT_FID.ASN_
      6381**DCL      8205<<ASSIGN
FPT_FID.NAME_
      6379**DCL      8207<<ASSIGN
FPT_FID.PASS_
      6379**DCL      8209<<ASSIGN
FPT_FID.RESULTS_
      6381**DCL      8210<<ASSIGN
FPT_FID.RES_
      6381**DCL      8206<<ASSIGN
FPT_FID.SN_
      6380**DCL      8203<<ASSIGN
FPT_FID.TEXTFID_
      6378**DCL      8211<<ASSIGN
FPT_FID.V
      6382**DCL      8202--ASSIGN
FPT_FID.V_
      6378**DCL      8202<<ASSIGN
FPT_FID.WSN_
      6380**DCL      8204<<ASSIGN
GET_ERR
      8067**LABEL    8060--CALLALT
I IN PROCEDURE CHK_DCBNAME
      8227**DCL      8240<<ASSIGN   8242>>DOWHILE  8243>>IF       8243>>IF       8247<<ASSIGN   8247>>ASSIGN
IBEX_MESSAGE
      6874**DCL      8126>>IF
IBEX_PASSWORD
      6873**DCL      8120>>IF
INDX
      6912**DCL      8031<<DOINDEX  8032>>ASSIGN   8033>>DOCASE   8095<<CALLBLT  8097>>CALLBLT
J IN PROCEDURE CHK_DCBNAME
      8228**DCL      8241<<ASSIGN   8245<<ASSIGN   8245>>ASSIGN   8249>>IF
LIST_ERR
      8053**LABEL    8051--CALLALT
M$FID
PL6.E3A0      #001=CPX$CONTEXT2 File=CPX$CONTEXT2.:E05TSI                        TUE 07/29/97 12:06 Page:107
       487**DCL-ENT  8212--CALL
P$B.CODE
      6523**DCL      7879>>DOCASE   7919>>DOCASE
P$B.CPOS
      6541**DCL      8269<>CALL
P$B.NDTYPE
      6518**DCL      7916>>IF
P$B.NSUBLKS
      6527**DCL      7926>>IF       7936>>IF       8031>>DOINDEX
P$B.SUBLK$
      6548**DCL      7907>>IF       7928>>IF       7931>>ASSIGN   7938>>IF       7941>>ASSIGN   8012>>ASSIGN
      8032>>ASSIGN   8093>>ASSIGN
P$PCB.HI_CHAR
      6724**DCL      8103<<ASSIGN
P$PCB.NXT
      6623**DCL      8101>>IF
P$S.CODE
      6484**DCL      8016>>DOCASE   8078>>DOCASE   8091>>DOCASE   8115>>DOCASE   8150>>DOCASE
P$S.COUNT
      6501**DCL      6504--IMP-SIZ  7902<>CALL     7907>>IF       7918<>CALL     7921>>IF       7928>>IF
      7938>>IF       7955>>IF       7960>>IF       7965>>IF       8020>>IF       8024>>IF       8035>>IF
      8039>>IF       8094>>IF       8095>>CALLBLT  8095>>CALLBLT  8097>>CALLBLT  8161>>IF       8172>>IF
      8211>>ASSIGN   8238>>IF       8240>>ASSIGN   8249>>IF       8253>>IF       8253>>IF
P$S.CPOS
      6493**DCL      8099>>ASSIGN   8103>>ASSIGN
P$S.TEXT
      6504**DCL      8095>>CALLBLT  8097>>CALLBLT  8211--ASSIGN   8253>>IF       8253>>IF
POSTERR
      8266**PROC     7887--CALL     7905--CALL     7909--CALL     7923--CALL     7932--CALL     7942--CALL
      7952--CALL     7957--CALL     7962--CALL     7967--CALL     7972--CALL     8007--CALL     8022--CALL
      8026--CALL     8037--CALL     8041--CALL     8065--CALL     8081--CALL     8140--CALL     8156--CALL
      8162--CALL     8173--CALL     8176--CALL     8215--CALL     8250--CALL     8255--CALL
PTR$
      6909**DCL      7878<<ASSIGN   7879>>DOCASE   7902>>CALL     7907>>IF       7915<<ASSIGN   7916>>IF
      7918>>CALL     7919>>DOCASE   7921>>IF       7926>>IF       7928>>IF       7931<<ASSIGN   7931>>ASSIGN
      7936>>IF       7938>>IF       7941<<ASSIGN   7941>>ASSIGN   7955>>IF       7960>>IF       7965>>IF
PL6.E3A0      #001=CPX$CONTEXT2 File=CPX$CONTEXT2.:E05TSI                        TUE 07/29/97 12:06 Page:108
      7982<<ASSIGN   7988<<ASSIGN   8011<<ASSIGN   8012>>ASSIGN   8016>>DOCASE   8020>>IF       8024>>IF
      8032<<ASSIGN   8035>>IF       8039>>IF       8050<<ASSIGN   8059<<ASSIGN   8073<<ASSIGN   8078>>DOCASE
      8087<<ASSIGN   8091>>DOCASE   8093<<ASSIGN   8093>>ASSIGN   8094>>IF       8095>>CALLBLT  8095>>CALLBLT
      8095>>CALLBLT  8097>>CALLBLT  8097>>CALLBLT  8099>>ASSIGN   8103>>ASSIGN   8110<<ASSIGN   8115>>DOCASE
      8134<<ASSIGN   8148<<ASSIGN   8150>>DOCASE   8161>>IF       8171<<ASSIGN   8172>>IF       8183<<ASSIGN
      8211>>ASSIGN   8211>>ASSIGN   8238>>IF       8240>>ASSIGN   8249>>IF       8253>>IF       8253>>IF
      8253>>IF       8253>>IF       8269>>CALL
PTR1$
      6910**DCL      8012<<ASSIGN   8243>>IF       8243>>IF
P_PARAM
      6409**DCL        11--PROC     7877--ENTRY    7914--ENTRY    7978--ENTRY    7987--ENTRY    8010--ENTRY
      8030--ENTRY    8046--ENTRY    8055--ENTRY    8069--ENTRY    8086--ENTRY    8109--ENTRY    8117<>CALL
      8133--ENTRY    8144--ENTRY    8167--ENTRY    8179--ENTRY
P_PARAM.CHARPOS
      6447**DCL      8099<<ASSIGN   8123<<ASSIGN   8129<<ASSIGN
P_PARAM.OUT$
      6439**DCL      7878>>ASSIGN   7915>>ASSIGN   7982>>ASSIGN   7988>>ASSIGN   8011>>ASSIGN   8031>>DOINDEX
      8032>>ASSIGN   8050>>ASSIGN   8059>>ASSIGN   8073>>ASSIGN   8087>>ASSIGN   8110>>ASSIGN   8134>>ASSIGN
      8148>>ASSIGN   8171>>ASSIGN   8183>>ASSIGN
P_PARAM.PCB$
      6453**DCL      8101>>IF       8103>>ASSIGN
P_PARAM.REJECT
      6421**DCL      8100<<ASSIGN   8122<<ASSIGN   8128<<ASSIGN
P_PARAM.USER$
      6457**DCL      6756--IMP-PTR  8269>>CALL
RUNIT_ERR
      8084**LABEL    8074--CALLALT
SAVE_ERR
      8142**LABEL    8135--CALLALT
SBINMAX_O
      6915**DCL      6916--REDEF
START_ERR
      8165**LABEL    8149--CALLALT
U$PARAM.ERRBUF$
      6757**DCL      8269<>CALL
VALUE
PL6.E3A0      #001=CPX$CONTEXT2 File=CPX$CONTEXT2.:E05TSI                        TUE 07/29/97 12:06 Page:109
      6911**DCL      7902<>CALL     7903>>IF       7918<>CALL     7970>>IF       8097<<CALLBLT
