VERSION E05

PL6.E3A0      #001=CPX$CONTEXT3 File=CPX$CONTEXT3.:E05TSI                        TUE 07/29/97 12:06 Page:1
        1        1        /*M*    CPX$CONTEXT3    subroutine which checks for context errors for IBEX   */
        2        2        /*T***********************************************************/
        3        3        /*T*                                                         */
        4        4        /*T* Copyright (c) Bull HN Information Systems Inc., 1997    */
        5        5        /*T*                                                         */
        6        6        /*T***********************************************************/
        7        7        /*X*  DMC,DFC   */
        8        8        /*P*    NAME: CPX$CONTEXT3
        9        9                PURPOSE: To check for context errors for IBEX                         */
       10       10        /******************************************************************************/
       11       11        CPX$CONTEXT3:
       12       12                PROC (P_PARAM);
       13       13        /***** include files *****/
       14       14          %INCLUDE CP_6;
       15       95          %INCLUDE CP_MACROS_C;
       16      847          %INCLUDE CP_SUBS_C;
       17     1764          %INCLUDE CP_PERR_C;
       18     2102          %INCLUDE XU_MACRO_C;
       19     5208          %INCLUDE XU_SUBS_C;
       20     5300        /***** fpts *****/
       21     5301          %PARSE$PARAM (NAME=P_PARAM);
       22     5382          %PARSE$SYM (NAME=P$S,STCLASS=BASED);
       23     5420          %PARSE$OUT (NAME=P$B,STCLASS=BASED);
       24     5465          %U$PARAM (NAME=U$PARAM,STCLASS="BASED(P_PARAM.USER$)");
       25     5481          %VLR_FID (FPTN=FID_RESULTS,STCLASS=AUTO);
       26     5500        /***** external routines *****/
       27     5501    1   DCL CPP$POSTERR ENTRY(5);
       28     5502    1   DCL CPX$OCTBIN ENTRY(2) ALTRET;
       29     5503        /***** declarations *****/
       30     5504    1   DCL PTR$ PTR AUTO;
       31     5505    1   DCL PTR1$ PTR AUTO;
       32     5506    1   DCL VALUE SBIN WORD AUTO;
       33     5507    1   DCL INDX UBIN WORD AUTO;
       34     5508        %EJECT;
PL6.E3A0      #001=CPX$CONTEXT3 File=CPX$CONTEXT3.:E05TSI                        TUE 07/29/97 12:06 Page:2
       35     5509        /***** error msgs *****/
       36     5510        %ERR_CODE (NAME=E_BDCVAL,MID#=CPX$IBEXMID,CODE#=E$BDCVAL,STCLASS=CONSTANT);
       37     5530        %ERR_CODE (NAME=E_BOCVAL,MID#=CPX$IBEXMID,CODE#=E$BOCVAL,STCLASS=CONSTANT);
       38     5550        %EJECT;
PL6.E3A0      #001=CPX$CONTEXT3 File=CPX$CONTEXT3.:E05TSI                        TUE 07/29/97 12:06 Page:3
       39     5551    1   CPX$DELETE: ENTRY (P_PARAM);
       40     5552    1           RETURN;
       41     5553    1   CPX$DONT: ENTRY (P_PARAM);
       42     5554    1           RETURN;
       43     5555    1   CPX$ECHO: ENTRY (P_PARAM);
       44     5556    1           RETURN;
       45     5557    1   CPX$ERASE: ENTRY (P_PARAM);
       46     5558    1           RETURN;
       47     5559    1   CPX$GLOBAL: ENTRY (P_PARAM);
       48     5560    1           RETURN;
       49     5561    1   END CPX$CONTEXT3;

PL6.E3A0      #001=CPX$CONTEXT3 File=CPX$CONTEXT3.:E05TSI                        TUE 07/29/97 12:06 Page:4
--  Include file information  --

   XU_SUBS_C.:E05TOU  is referenced.
   XU_MACRO_C.:E05TOU  is referenced.
   CP_PERR_C.:E05TOU  is referenced.
   CP_SUBS_C.:E05TOU  is referenced.
   CP_MACROS_C.:E05TOU  is referenced.
   CP_6.:E05TOU  cannot be made into a system file and is referenced.
   B$JIT_C.:E05TOU  was found in the system file and is never referenced.
   CP_6_C.:E05TOU  was found in the system file and is referenced.
      No diagnostics issued in procedure CPX$CONTEXT3.

   Procedure CPX$CONTEXT3 requires 18 words for executable code.
   Procedure CPX$CONTEXT3 requires 18 words of local(AUTO) storage.

    No errors detected in file CPX$CONTEXT3.:E05TSI    .

PL6.E3A0      #001=CPX$CONTEXT3 File=CPX$CONTEXT3.:E05TSI                        TUE 07/29/97 12:06 Page:5

 Object Unit name= CPX$CONTEXT3                               File name= CPX$CONTEXT3.:E05TOU
 UTS= JUL 29 '97 12:06:19.44 TUE                              Compiler= PL-6/E31         Sev=      00
 SharedLib= :SHARED_SYSTEM                                    Alt SharedLib=


    ****  Control sections  ****

 Sect   Type Bound  Init  Size OctSiz  Section name(segment info)
    0   DCB   even  none     0      0  M$UC
    1  RoData even  UTS      2      2  CPX$CONTEXT3
    2   Proc  even  none    18     22  CPX$CONTEXT3

    ****  Entry defs  ****

                              Check   Calling
                             calling  sequence
  Sect OctLoc Primary Altret sequence   type   Parms  Name
     2      0   yes            yes      Std        1  CPX$CONTEXT3
     2      3                  yes      Std        1  CPX$DELETE
     2      6                  yes      Std        1  CPX$DONT
     2     11                  yes      Std        1  CPX$ECHO
     2     14                  yes      Std        1  CPX$ERASE
     2     17                  yes      Std        1  CPX$GLOBAL

  ****  Entry refs  ****

         Check        Calling
        calling       sequence
Altret sequence SRef   type   Args  Name
                       nStd      0 X66_AUTO_1
                       nStd      0 X66_ARET
PL6.E3A0      #001=CPX$CONTEXT3 File=CPX$CONTEXT3.:E05TSI                        TUE 07/29/97 12:06 Page:6

  ****  Data refs  ****

  Flags:  r = read only, s = secondary
Flgs Name                             Flgs Name                             Flgs Name
     M$UC
PL6.E3A0      #001=CPX$CONTEXT3 File=CPX$CONTEXT3.:E05TSI                        TUE 07/29/97 12:06 Page:7


        1        1        /*M*    CPX$CONTEXT3    subroutine which checks for context errors for IBEX   */
        2        2        /*T***********************************************************/
        3        3        /*T*                                                         */
        4        4        /*T* Copyright (c) Bull HN Information Systems Inc., 1997    */
        5        5        /*T*                                                         */
        6        6        /*T***********************************************************/
        7        7        /*X*  DMC,DFC   */
        8        8        /*P*    NAME: CPX$CONTEXT3
        9        9                PURPOSE: To check for context errors for IBEX                         */
       10       10        /******************************************************************************/
       11       11        CPX$CONTEXT3:
       12       12                PROC (P_PARAM);

     12  2 000000   000000 700200 xent  CPX$CONTEXT3 TSX0  ! X66_AUTO_1
         2 000001   000022 000001                    ZERO    18,1
         2 000002   000005 710000 2                  TRA     s:5552

       13       13        /***** include files *****/
       14       14          %INCLUDE CP_6;
       15       95          %INCLUDE CP_MACROS_C;
       16      847          %INCLUDE CP_SUBS_C;
       17     1764          %INCLUDE CP_PERR_C;
       18     2102          %INCLUDE XU_MACRO_C;
       19     5208          %INCLUDE XU_SUBS_C;
       20     5300        /***** fpts *****/
       21     5301          %PARSE$PARAM (NAME=P_PARAM);
       22     5382          %PARSE$SYM (NAME=P$S,STCLASS=BASED);
       23     5420          %PARSE$OUT (NAME=P$B,STCLASS=BASED);
       24     5465          %U$PARAM (NAME=U$PARAM,STCLASS="BASED(P_PARAM.USER$)");
       25     5481          %VLR_FID (FPTN=FID_RESULTS,STCLASS=AUTO);
       26     5500        /***** external routines *****/
       27     5501    1   DCL CPP$POSTERR ENTRY(5);
       28     5502    1   DCL CPX$OCTBIN ENTRY(2) ALTRET;
       29     5503        /***** declarations *****/
       30     5504    1   DCL PTR$ PTR AUTO;
       31     5505    1   DCL PTR1$ PTR AUTO;
PL6.E3A0      #001=CPX$CONTEXT3 File=CPX$CONTEXT3.:E05TSI                        TUE 07/29/97 12:06 Page:8
       32     5506    1   DCL VALUE SBIN WORD AUTO;
       33     5507    1   DCL INDX UBIN WORD AUTO;
       34     5508        %EJECT;
PL6.E3A0      #001=CPX$CONTEXT3 File=CPX$CONTEXT3.:E05TSI                        TUE 07/29/97 12:06 Page:9
       35     5509        /***** error msgs *****/
       36     5510        %ERR_CODE (NAME=E_BDCVAL,MID#=CPX$IBEXMID,CODE#=E$BDCVAL,STCLASS=CONSTANT);
       37     5530        %ERR_CODE (NAME=E_BOCVAL,MID#=CPX$IBEXMID,CODE#=E$BOCVAL,STCLASS=CONSTANT);
       38     5550        %EJECT;
PL6.E3A0      #001=CPX$CONTEXT3 File=CPX$CONTEXT3.:E05TSI                        TUE 07/29/97 12:06 Page:10
       39     5551    1   CPX$DELETE: ENTRY (P_PARAM);

   5551  2 000003   000000 700200 xent  CPX$DELETE   TSX0  ! X66_AUTO_1
         2 000004   000022 000001                    ZERO    18,1

       40     5552    1           RETURN;

   5552  2 000005   000000 702200 xent               TSX2  ! X66_ARET

       41     5553    1   CPX$DONT: ENTRY (P_PARAM);

   5553  2 000006   000000 700200 xent  CPX$DONT     TSX0  ! X66_AUTO_1
         2 000007   000022 000001                    ZERO    18,1

       42     5554    1           RETURN;

   5554  2 000010   000000 702200 xent               TSX2  ! X66_ARET

       43     5555    1   CPX$ECHO: ENTRY (P_PARAM);

   5555  2 000011   000000 700200 xent  CPX$ECHO     TSX0  ! X66_AUTO_1
         2 000012   000022 000001                    ZERO    18,1

       44     5556    1           RETURN;

   5556  2 000013   000000 702200 xent               TSX2  ! X66_ARET

       45     5557    1   CPX$ERASE: ENTRY (P_PARAM);

   5557  2 000014   000000 700200 xent  CPX$ERASE    TSX0  ! X66_AUTO_1
         2 000015   000022 000001                    ZERO    18,1

       46     5558    1           RETURN;

   5558  2 000016   000000 702200 xent               TSX2  ! X66_ARET

       47     5559    1   CPX$GLOBAL: ENTRY (P_PARAM);
PL6.E3A0      #001=CPX$CONTEXT3 File=CPX$CONTEXT3.:E05TSI                        TUE 07/29/97 12:06 Page:11

   5559  2 000017   000000 700200 xent  CPX$GLOBAL   TSX0  ! X66_AUTO_1
         2 000020   000022 000001                    ZERO    18,1

       48     5560    1           RETURN;

   5560  2 000021   000000 702200 xent               TSX2  ! X66_ARET
       49     5561    1   END CPX$CONTEXT3;

PL6.E3A0      #001=CPX$CONTEXT3 File=CPX$CONTEXT3.:E05TSI                        TUE 07/29/97 12:06 Page:12
--  Include file information  --

   XU_SUBS_C.:E05TOU  is referenced.
   XU_MACRO_C.:E05TOU  is referenced.
   CP_PERR_C.:E05TOU  is referenced.
   CP_SUBS_C.:E05TOU  is referenced.
   CP_MACROS_C.:E05TOU  is referenced.
   CP_6.:E05TOU  cannot be made into a system file and is referenced.
   B$JIT_C.:E05TOU  was found in the system file and is never referenced.
   CP_6_C.:E05TOU  was found in the system file and is referenced.
      No diagnostics issued in procedure CPX$CONTEXT3.
PL6.E3A0      #001=CPX$CONTEXT3 File=CPX$CONTEXT3.:E05TSI                        TUE 07/29/97 12:06 Page:13

 **** Variables and constants ****

  ****  Auto variables  ****

  ****  Scalars and arrays  ****
OctLoc.c.b A Datatyp(siz) R M Lvl/name                 OctLoc.c.b A Datatyp(siz) R M Lvl/name

     3-0-0/w PTR         r     1 @P_PARAM                  *0-0-0/w STRC(270)   r     1 P_PARAM

  ****  BASED and DCB variables  ****

  ****  Scalars and arrays  ****
OctLoc.c.b A Datatyp(siz) R M Lvl/name                 OctLoc.c.b A Datatyp(siz) R M Lvl/name

     0-0-0/w ASTR(153)   r     1 P$S


   Procedure CPX$CONTEXT3 requires 18 words for executable code.
   Procedure CPX$CONTEXT3 requires 18 words of local(AUTO) storage.

    No errors detected in file CPX$CONTEXT3.:E05TSI    .
PL6.E3A0      #001=CPX$CONTEXT3 File=CPX$CONTEXT3.:E05TSI                        TUE 07/29/97 12:06 Page:14
          *** CROSS REFERENCE LISTING ***
**     DENOTES     IDENTIFIER DEFINITION
<<                 IDENTIFIER'S VALUE SET
>>                 IDENTIFIER'S VALUE USED
<>                 IDENTIFIER SET AND/OR USED
--                 IDENTIFIER REFERENCED
PL6.E3A0      #001=CPX$CONTEXT3 File=CPX$CONTEXT3.:E05TSI                        TUE 07/29/97 12:06 Page:15
          MINI XREF LISTING

P$S.COUNT
      5412**DCL      5415--IMP-SIZ
P_PARAM
      5320**DCL        11--PROC     5551--ENTRY    5553--ENTRY    5555--ENTRY    5557--ENTRY    5559--ENTRY
P_PARAM.USER$
      5368**DCL      5466--IMP-PTR
