VERSION E05

PL6.E3A0      #001=CPX$CONTEXT4 File=CPX$CONTEXT4.:E05TSI                        TUE 07/29/97 12:07 Page:1
        1        1        /*M*    CPX$CONTEXT4    subroutine which checks for context errors for IBEX   */
        2        2        /*T***********************************************************/
        3        3        /*T*                                                         */
        4        4        /*T* Copyright (c) Bull HN Information Systems Inc., 1997    */
        5        5        /*T*                                                         */
        6        6        /*T***********************************************************/
        7        7        /*X*    AND,DMC,IPC,IND=3,CTI=6,ECU=3,DCI=3,DTI=3                             */
        8        8        /*P*    NAME: CPX$CONTEXT4
        9        9                PURPOSE: To check for context errors for IBEX                         */
       10       10        /******************************************************************************/
       11       11        CPX$CONTEXT4:
       12       12                PROC (P_PARAM);
       13       13        /***** include files *****/
       14       14          %INCLUDE CP_6;
       15       95          %INCLUDE CP_PERR_C;
       16      433          %INCLUDE CP_MACROS_C;
       17     1185          %INCLUDE CP_SUBS_C;
       18     2102          %INCLUDE XU_MACRO_C;
       19     5208          %INCLUDE XU_SUBS_C;
       20     5300          %INCLUDE AS_SUPER_C;
       21     5735          %INCLUDE B$JIT;
       22     6025          %INCLUDE XU_DATA_R;
       23     6036          %INCLUDE JG_GHOSTS_C;
       24     6126        /***** fpts *****/
       25     6127          %PARSE$PARAM (NAME=P_PARAM);
       26     6208          %PARSE$SYM (NAME=P$S,STCLASS=BASED);
       27     6246          %PARSE$OUT (NAME=P$B,STCLASS=BASED);
       28     6291          %U$PARAM (NAME=U$PARAM,STCLASS="BASED(P_PARAM.USER$)");
       29     6307        %AS_USERS (STR_NAME=AS$USERS,STCLASS=BASED);
       30     6485        %P_PCB (NAME=P$PCB, STCLASS=BASED);
       31     6684        /***** external routines *****/
       32     6685    1   DCL CXP$POSTERR ENTRY(5);
       33     6686    1   DCL CXX$DECBIN ENTRY(2) ALTRET;
       34     6687    1   DCL CPX$OCTBIN ENTRY(2) ALTRET;
       35     6688        /***** declarations *****/
       36     6689    1   DCL PTR$ PTR AUTO;
       37     6690    1   DCL PTR1$ PTR AUTO;
PL6.E3A0      #001=CPX$CONTEXT4 File=CPX$CONTEXT4.:E05TSI                        TUE 07/29/97 12:07 Page:2
       38     6691    1   DCL VALUE SBIN WORD AUTO;
       39     6692    1   DCL INDX UBIN WORD AUTO;
       40     6693    1   DCL B$JIT$ PTR SYMREF;
       41     6694    1   DCL I SBIN;
       42     6695    1   DCL TIME SBIN;
       43     6696    1   DCL MODE UBIN(4) UNAL;
       44     6697    1   DCL USER$ PTR;
       45     6698    1   DCL CC_VALUE SBIN WORD AUTO;
       46     6699    1   DCL NEXT_CHAR CHAR(1) AUTO;
       47     6700    1   DCL CHAR$ARRAY(0:0) CHAR(1) BASED;
       48     6701    1   DCL CHARS CHAR(I) BASED;
       49     6702             %EJECT;
PL6.E3A0      #001=CPX$CONTEXT4 File=CPX$CONTEXT4.:E05TSI                        TUE 07/29/97 12:07 Page:3
       50     6703        /***** error msgs *****/
       51     6704        %ERR_CODE (NAME=E_BDCVAL,MID#=CPX$IBEXMID,CODE#=E$BDCVAL,STCLASS=CONSTANT);
       52     6724        %ERR_CODE (NAME=E_BOCVAL,MID#=CPX$IBEXMID,CODE#=E$BOCVAL,STCLASS=CONSTANT);
       53     6744        %ERR_CODE (NAME=E_JPBIGPRIO,MID#=CPX$IBEXMID,CODE#=E$JPBIGPRIO,STCLASS=CONSTANT);
       54     6764        /*E* ERROR: CPX-E$JPBIGPRIO
       55     6765             MESSAGE: Prio greater than 15
       56     6766        */
       57     6767        %ERR_CODE (NAME=E_JPBIGWSN,MID#=CPX$IBEXMID,CODE#=E$JPBIGWSN,STCLASS=CONSTANT);
       58     6787        /*E* ERROR: CPX-E$JPBIGWSN
       59     6788             MESSAGE: WSN greater than 8 characters
       60     6789        */
       61     6790        %ERR_CODE (NAME=E_JPBIGACCT,MID#=CPX$IBEXMID,CODE#=E$JPBIGACCT,STCLASS=CONSTANT);
       62     6810        /*E* ERROR: CPX-E$JPBIGACCT
       63     6811             MESSAGE: ACCOUNT greater than 8 characters
       64     6812        */
       65     6813        %ERR_CODE (NAME=E_JPBIGSTCC,MID#=CPX$IBEXMID,CODE#=E$JPBIGSTCC,STCLASS=CONSTANT);
       66     6833        /*E* ERROR: CPX-E$JPBIGSTCC
       67     6834             MESSAGE: STEPCC value greater than 511
       68     6835        */
       69     6836        %ERR_CODE (NAME=E_JPBIGUNAME,MID#=CPX$IBEXMID,CODE#=E$JPBIGUNAME,STCLASS=CONSTANT);
       70     6856        /*E* ERROR: CPX-E$JPBIGUNAME
       71     6857             MESSAGE: UNAME greater than 12 characters
       72     6858        */
       73     6859        %ERR_CODE (NAME=E_JPBIGJNAME,MID#=CPX$IBEXMID,CODE#=E$JPBIGJNAME,STCLASS=CONSTANT);
       74     6879        /*E* ERROR: CPX-E$JPBIGJNAME
       75     6880             MESSAGE: JOB name greater than 31 characters
       76     6881        */
       77     6882        %ERR_CODE (NAME=E_JPBIGUPASS,MID#=CPX$IBEXMID,CODE#=E$JPBIGUPASS,STCLASS=CONSTANT);
       78     6902        /*E* ERROR: CPX-E$JPBIGUPASS
       79     6903             MESSAGE: PASSWORD greater than 8 characters
       80     6904        */
       81     6905        %ERR_CODE (NAME=E_JPBIGTIME,MID#=CPX$IBEXMID,CODE#=E$JPBIGTIME,STCLASS=CONSTANT);
       82     6925        /*E* ERROR: CPX-E$JPBIGTIME
       83     6926             MESSAGE: Time field too large
       84     6927        */
       85     6928        %ERR_CODE (NAME=E_JPBIGDATE,MID#=CPX$IBEXMID,CODE#=E$JPBIGDATE,STCLASS=CONSTANT);
       86     6948        /*E* ERROR: CPX-E$JPBIGDATE
PL6.E3A0      #001=CPX$CONTEXT4 File=CPX$CONTEXT4.:E05TSI                        TUE 07/29/97 12:07 Page:4
       87     6949             MESSAGE: Date field too large
       88     6950        */
       89     6951        %ERR_CODE (NAME=E_JPILLSYSID,MID#=CPX$IBEXMID,CODE#=E$JPILLSYSID,STCLASS=CONSTANT);
       90     6971        /*E*    ERROR: CPX-E$JPILLSYSID-0
       91     6972                MESSAGE: Sysid must not exceed 99999
       92     6973        */
       93     6974        %ERR_CODE (NAME=E_XBIGLABEL,CODE#=E$XBIGLABEL,MID#=CPX$IBEXMID,STCLASS=CONSTANT);
       94     6994        /*E*    ERROR:   CPX-E$XBIGLABEL-0
       95     6995                MESSAGE: Labels must be 31 characters or less
       96     6996        */
       97     6997        %ERR_CODE (NAME=E_XBIGVAR,CODE#=E$XBIGVAR,MID#=CPX$IBEXMID,STCLASS=CONSTANT);
       98     7017        /*E*    ERROR:   CPX-E$XBIGVAR-0
       99     7018                MESSAGE: COMMAND VARIABLE names must be 31 characters or less
      100     7019        */
      101     7020        %ERR_CODE (NAME=E_XILLVAR,CODE#=E$XILLVAR,MID#=CPX$IBEXMID,STCLASS=CONSTANT);
      102     7040        /*E*    ERROR:   CPX-E$XILLVAR-0
      103     7041                MESSAGE: COMMAND VARIABLE names must begin with an alpha character
      104     7042        */
      105     7043        %ERR_CODE (NAME=E_XLMTXCD,CODE#=E$XLMTXCD,MID#=CPX$IBEXMID,STCLASS=CONSTANT);
      106     7063        /*E*   ERROR:  CPX-E$XLMTXCD-0
      107     7064               MESSAGE: Limit exceeds user maximum
      108     7065               MESSAGE1: Limit exceeds the maximum authorized in :USERS record
      109     7066        */
      110     7067        %ERR_CODE (NAME=E_XHRXCD,CODE#=E$XHRXCD,MID#=CPX$IBEXMID,STCLASS=CONSTANT);
      111     7087        /*E*   ERROR:  CPX-E$XHRXCD-0
      112     7088               MESSAGE: Illegal value specified for hours
      113     7089               MESSAGE1: Hours must be in the range of 0 to 95442
      114     7090        */
      115     7091        %ERR_CODE (NAME=E_XMINXCD,CODE#=E$XMINXCD,MID#=CPX$IBEXMID,STCLASS=CONSTANT);
      116     7111        /*E*   ERROR:  CPX-E$XMINXCD-0
      117     7112               MESSAGE: Illegal value specified for minutes
      118     7113               MESSAGE1: Minutes value must be the range of 0 to 59 if hours
      119     7114                         is specified, or 0 to 5726622 if hours is unspecified
      120     7115        */
      121     7116        %ERR_CODE (NAME=E_XSECXCD,CODE#=E$XSECXCD,MID#=CPX$IBEXMID,STCLASS=CONSTANT);
      122     7136        /*E*   ERROR:  CPX-E$XSECXCD-0
      123     7137               MESSAGE: Illegal value specified for seconds
PL6.E3A0      #001=CPX$CONTEXT4 File=CPX$CONTEXT4.:E05TSI                        TUE 07/29/97 12:07 Page:5
      124     7138               MESSAGE1: Seconds value must be in the range of 0 to 59 if minutes
      125     7139                         is specified, or 0 to 343597383 if minutes is unspecified
      126     7140        */
      127     7141        %ERR_CODE (NAME=E_XFPOOLSMIN,CODE#=E$XFPOOLSMIN,MID#=CPX$IBEXMID,STCLASS=CONSTANT);
      128     7161        /*E*   ERROR:  CPX-E$XFPOOLSMIN-0
      129     7162               MESSAGE: FPOOLS less than system minimum which is 5
      130     7163        */
      131     7164             %EJECT;
PL6.E3A0      #001=CPX$CONTEXT4 File=CPX$CONTEXT4.:E05TSI                        TUE 07/29/97 12:07 Page:6
      132     7165    1   CPX$GOTO: ENTRY (P_PARAM);
      133     7166    1           IF P_PARAM.OUT$ -> P$S.COUNT > 31
      134     7167    1           THEN   /* LABEL longer than 31 chars */
      135     7168    1              CALL POSTERR (E_XBIGLABEL);
      136     7169    1           RETURN;
      137     7170             %EJECT;
PL6.E3A0      #001=CPX$CONTEXT4 File=CPX$CONTEXT4.:E05TSI                        TUE 07/29/97 12:07 Page:7
      138     7171    1   CPX$GO: ENTRY (P_PARAM);
      139     7172    1           RETURN;
      140     7173             %EJECT;
PL6.E3A0      #001=CPX$CONTEXT4 File=CPX$CONTEXT4.:E05TSI                        TUE 07/29/97 12:07 Page:8
      141     7174    1   CPX$HELP: ENTRY (P_PARAM);
      142     7175    1           RETURN;
      143     7176             %EJECT;
PL6.E3A0      #001=CPX$CONTEXT4 File=CPX$CONTEXT4.:E05TSI                        TUE 07/29/97 12:07 Page:9
      144     7177    1   CPX$JOB: ENTRY (P_PARAM);
      145     7178    1           IF P_PARAM.OUT$->P$B.NDTYPE=%DEC#
      146     7179    1           THEN
      147     7180    1              CALL CXX$DECBIN(P_PARAM.OUT$->P$S.COUNT,VALUE) ALTRET(E_DECBIN);
      148     7181    2           DO CASE(P_PARAM.OUT$->P$B.CODE);
      149     7182    2            CASE(JOB_PRIO);
      150     7183    2              IF VALUE>15
      151     7184    2              THEN
      152     7185    2                 CALL POSTERR (E_JPBIGPRIO);
      153     7186    2            CASE(JOB_WSN);
      154     7187    2              IF P_PARAM.OUT$->P$S.COUNT>8
      155     7188    2              THEN
      156     7189    2                 CALL POSTERR (E_JPBIGWSN);
      157     7190    2            CASE(JOB_UACCT,JOB_JACCT);
      158     7191    2              IF P_PARAM.OUT$->P$S.COUNT>8
      159     7192    2              THEN
      160     7193    2                 CALL POSTERR (E_JPBIGACCT);
      161     7194    2            CASE(JOB_STCCVAL);
      162     7195    2              IF VALUE>511
      163     7196    2              THEN
      164     7197    2                 CALL POSTERR (E_JPBIGSTCC);
      165     7198    2            CASE(JOB_UNAME);
      166     7199    2              IF P_PARAM.OUT$->P$S.COUNT>12
      167     7200    2              THEN
      168     7201    2                 CALL POSTERR (E_JPBIGUNAME);
      169     7202    2            CASE(JOB_JNAME);
      170     7203    2              IF P_PARAM.OUT$->P$S.COUNT>31
      171     7204    2              THEN
      172     7205    2                 CALL POSTERR (E_JPBIGJNAME);
      173     7206    2            CASE(JOB_PASSWD);
      174     7207    2              IF P_PARAM.OUT$->P$S.COUNT>8
      175     7208    2              THEN
      176     7209    2                 CALL POSTERR (E_JPBIGUPASS);
      177     7210    2              IF U$PARAM.MODE = BATCHSCAN_MODE THEN EXIT;
      178     7211                                            /* Blank the password - in case it echos */
      179     7212    2              SUBSTR (P_PARAM.PCB$->P$PCB.TEXT$->CHARS,
      180     7213    2                    P_PARAM.OUT$->P$S.CPOS, P_PARAM.OUT$->P$S.COUNT) = ' ';
PL6.E3A0      #001=CPX$CONTEXT4 File=CPX$CONTEXT4.:E05TSI                        TUE 07/29/97 12:07 Page:10
      181     7214    2            CASE(JOB_DTIME1);
      182     7215    2              IF VALUE>23
      183     7216    2              THEN
      184     7217    2                 CALL POSTERR (E_JPBIGTIME);
      185     7218    2            CASE(JOB_DTIME2);
      186     7219    2              IF VALUE>59
      187     7220    2              THEN
      188     7221    2                 CALL POSTERR (E_JPBIGTIME);
      189     7222    2            CASE(JOB_DDATE1);
      190     7223    2              IF VALUE>12
      191     7224    2              THEN
      192     7225    2                 CALL POSTERR (E_JPBIGDATE);
      193     7226    2            CASE(JOB_DDATE2);
      194     7227    2              IF VALUE>31
      195     7228    2              THEN
      196     7229    2                 CALL POSTERR (E_JPBIGDATE);
      197     7230    2            CASE(JOB_DDATE3);
      198     7231    2              IF VALUE>99
      199     7232    2              THEN
      200     7233    2                 CALL POSTERR (E_JPBIGDATE);
      201     7234    2            CASE(JOB_SYSID);
      202     7235    2              IF P_PARAM.CHARPOS < P_PARAM.PCB$->P$PCB.NCHARS-1
      203     7236    2              THEN
      204     7237    3                 DO;
      205     7238    3                    NEXT_CHAR = P_PARAM.PCB$->P$PCB.TEXT$->
      206     7239    3                          CHAR$ARRAY(P_PARAM.CHARPOS);
      207     7240    3                    IF SYMTTBL.JOBNAME(ASCBIN(NEXT_CHAR))
      208     7241    3                    THEN
      209     7242    4                       DO; /* This is a JOBNAME rather than a SYSID. */
      210     7243    4                          P_PARAM.REJECT = '1'B;
      211     7244    4                          P_PARAM.CHARPOS = P_PARAM.OUT$->P$B.CPOS;
      212     7245    4                          VALUE = 0; /* Ignore out of range value */
      213     7246    4                       END;  /* Then Do */
      214     7247    3                 END;  /* Then Do */
      215     7248    2              IF VALUE > 99999
      216     7249    2              THEN
      217     7250    2                 CALL POSTERR (E_JPILLSYSID);
PL6.E3A0      #001=CPX$CONTEXT4 File=CPX$CONTEXT4.:E05TSI                        TUE 07/29/97 12:07 Page:11
      218     7251    2           END;
      219     7252    1           RETURN;
      220     7253             %EJECT;
PL6.E3A0      #001=CPX$CONTEXT4 File=CPX$CONTEXT4.:E05TSI                        TUE 07/29/97 12:07 Page:12
      221     7254    1   CPX$LET: ENTRY (P_PARAM);
      222     7255    1           IF P_PARAM.TYPE = %PRE#
      223     7256    1           THEN
      224     7257    1              P_PARAM.PCB$->P$PCB.CONTINUE = '0'B;
      225     7258    1           ELSE
      226     7259    2              DO CASE(P_PARAM.OUT$->P$B.CODE);
      227     7260    2               CASE(%$STEPCC#, %$OK#, %$ERROR#, %$ABORT#);
      228     7261                    /*  Check to see if the user input a variable name that has one
      229     7262                        of these keywords in the first part of the name. */
      230     7263    2                 NEXT_CHAR = P_PARAM.PCB$->P$PCB.TEXT$->CHAR$ARRAY(P_PARAM.CHARPOS);
      231     7264    2                 IF SYMTTBL.SYM(ASCBIN(NEXT_CHAR))
      232     7265    2                       AND P_PARAM.CHARPOS < P_PARAM.PCB$->P$PCB.NCHARS
      233     7266    2                 THEN
      234     7267    3                    DO; /* This is a variable name. */
      235     7268    3                       P_PARAM.REJECT = '1'B;
      236     7269    3                       P_PARAM.CHARPOS = P_PARAM.OUT$->P$B.CPOS;
      237     7270    3                    END; /* Then Do */
      238     7271    2              END; /* Do Case */
      239     7272    1           RETURN;
      240     7273             %EJECT;
PL6.E3A0      #001=CPX$CONTEXT4 File=CPX$CONTEXT4.:E05TSI                        TUE 07/29/97 12:07 Page:13
      241     7274    1   CPX$LIMIT: ENTRY (P_PARAM);
      242     7275        /*
      243     7276             ***** Pickup :USERS info according to U$PARAM.MODE ...
      244     7277        */
      245     7278    2           DO CASE (P_PARAM.USER$ -> U$PARAM.MODE);
      246     7279    2            CASE (IBEX_MODE);
      247     7280    2              MODE = B$JIT.MODE - 1;
      248     7281    2            CASE (BATCHSCAN_MODE,PRESCAN_MODE);
      249     7282    2              MODE = %M_BATCH# - 1;
      250     7283    2           END;
      251     7284        /**/
      252     7285    1           PTR$ = P_PARAM.OUT$;
      253     7286    1           USER$ = U$PARAM.USERS$;
      254     7287    1           IF PTR$->P$S.CODE ~= LIM_TIME THEN
      255     7288    1              IF PTR$->P$S.NDTYPE = %DEC# THEN
      256     7289    1                 CALL CXX$DECBIN(PTR$->P$S.COUNT,CC_VALUE) ALTRET(E_DECBIN);
      257     7290    2           DO CASE(PTR$->P$S.CODE);
      258     7291    2            CASE(LIM_MEM);
      259     7292    2              IF CC_VALUE > USER$->AS$USERS.MMEM(MODE)
      260     7293    2              THEN
      261     7294    2                 CALL POSTERR (E_XLMTXCD);
      262     7295    2            CASE(LIM_TIME);
      263     7296    2              TIME = 0;
      264     7297    3              DO I=0 TO PTR$->P$B.NSUBLKS-1;
      265     7298    3                 PTR1$ = PTR$->P$B.SUBLK$(I);
      266     7299    3                 CALL CXX$DECBIN(PTR1$->P$S.COUNT,CC_VALUE) ALTRET(E_DECBIN);
      267     7300    4                 DO CASE(PTR1$->P$S.CODE);
      268     7301    4                  CASE(LIM_HOURS);
      269     7302    4                    IF CC_VALUE >95442
      270     7303    4                    THEN
      271     7304    4                       CALL CXP$POSTERR(U$PARAM.ERRBUF$,PTR1$->P$S.CPOS,E_XHRXCD);
      272     7305    4                    ELSE
      273     7306    4                       TIME = CC_VALUE * 3600;
      274     7307    4                  CASE(LIM_MINUTS);
      275     7308    4                    IF I ~= 0 AND CC_VALUE >59 OR CC_VALUE >5726622
      276     7309    4                    THEN
      277     7310    4                       CALL CXP$POSTERR(U$PARAM.ERRBUF$,PTR1$->P$S.CPOS,E_XMINXCD);
PL6.E3A0      #001=CPX$CONTEXT4 File=CPX$CONTEXT4.:E05TSI                        TUE 07/29/97 12:07 Page:14
      278     7311    4                    ELSE
      279     7312    4                       TIME = TIME + CC_VALUE*60;
      280     7313    4                  CASE(LIM_SECNDS);
      281     7314    4                    IF I ~= 0 AND CC_VALUE >59 OR CC_VALUE >343597383
      282     7315    4                    THEN
      283     7316    4                       CALL CXP$POSTERR(U$PARAM.ERRBUF$,PTR1$->P$S.CPOS,E_XSECXCD);
      284     7317    4                    ELSE
      285     7318    4                       TIME = TIME + CC_VALUE;
      286     7319    4                 END;               /* End case                           */
      287     7320    3              END;
      288     7321    2              IF TIME*100>USER$->AS$USERS.MTIME(MODE)
      289     7322    2              THEN
      290     7323    2                 CALL POSTERR (E_XLMTXCD);
      291     7324    2            CASE(LIM_LO);
      292     7325    2              IF CC_VALUE > USER$->AS$USERS.MLO(MODE)
      293     7326    2              THEN
      294     7327    2                 CALL POSTERR (E_XLMTXCD);
      295     7328    2            CASE(LIM_PO);
      296     7329    2              IF CC_VALUE > USER$->AS$USERS.MPO(MODE)
      297     7330    2              THEN
      298     7331    2                 CALL POSTERR (E_XLMTXCD);
      299     7332    2            CASE(LIM_DO);
      300     7333    2              IF CC_VALUE > USER$->AS$USERS.MDO(MODE)
      301     7334    2              THEN
      302     7335    2                 CALL POSTERR (E_XLMTXCD);
      303     7336    2            CASE(LIM_TDIS);
      304     7337    2              IF CC_VALUE > USER$->AS$USERS.MTDIS(MODE)
      305     7338    2              THEN
      306     7339    2                 CALL POSTERR (E_XLMTXCD);
      307     7340    2            CASE(LIM_PDIS);
      308     7341    2              IF CC_VALUE > USER$->AS$USERS.MPDIS(MODE)
      309     7342    2              THEN
      310     7343    2                 CALL POSTERR (E_XLMTXCD);
      311     7344    2            CASE(LIM_FPOOLS);
      312     7345    2              IF CC_VALUE > USER$->AS$USERS.MFPOOLS(MODE)
      313     7346    2              THEN
      314     7347    2                 CALL POSTERR (E_XLMTXCD);
PL6.E3A0      #001=CPX$CONTEXT4 File=CPX$CONTEXT4.:E05TSI                        TUE 07/29/97 12:07 Page:15
      315     7348    2              IF CC_VALUE < 5
      316     7349    2              THEN
      317     7350    2                 CALL POSTERR (E_XFPOOLSMIN);
      318     7351    2           END;
      319     7352    1           RETURN;
      320     7353    1   E_DECBIN:
      321     7354    1           CALL POSTERR (E_BDCVAL);
      322     7355    1           RETURN;
      323     7356        %EJECT;
PL6.E3A0      #001=CPX$CONTEXT4 File=CPX$CONTEXT4.:E05TSI                        TUE 07/29/97 12:07 Page:16
      324     7357    1   POSTERR:   PROC(ERRCODE);
      325     7358    2   DCL ERRCODE BIT(36) ALIGNED;
      326     7359
      327     7360    2              CALL CXP$POSTERR (U$PARAM.ERRBUF$,P_PARAM.OUT$->P$S.CPOS,ERRCODE);
      328     7361    2              RETURN;
      329     7362    2      END POSTERR;
      330     7363    1   END CPX$CONTEXT4;

PL6.E3A0      #001=CPX$CONTEXT4 File=CPX$CONTEXT4.:E05TSI                        TUE 07/29/97 12:07 Page:17
--  Include file information  --

   JG_GHOSTS_C.:E05TOU  is referenced.
   XU_DATA_R.:E05TOU  cannot be made into a system file and is referenced.
   B$JIT.:E05TOU  cannot be made into a system file and is referenced.
   AS_SUPER_C.:E05TOU  is referenced.
   XU_SUBS_C.:E05TOU  is referenced.
   XU_MACRO_C.:E05TOU  is referenced.
   CP_SUBS_C.:E05TOU  is referenced.
   CP_MACROS_C.:E05TOU  is referenced.
   CP_PERR_C.:E05TOU  is referenced.
   CP_6.:E05TOU  cannot be made into a system file and is referenced.
   B$JIT_C.:E05TOU  was found in the system file and is referenced.
   CP_6_C.:E05TOU  was found in the system file and is referenced.
      No diagnostics issued in procedure CPX$CONTEXT4.

   Procedure CPX$CONTEXT4 requires 569 words for executable code.
   Procedure CPX$CONTEXT4 requires 20 words of local(AUTO) storage.

    No errors detected in file CPX$CONTEXT4.:E05TSI    .

PL6.E3A0      #001=CPX$CONTEXT4 File=CPX$CONTEXT4.:E05TSI                        TUE 07/29/97 12:07 Page:18

 Object Unit name= CPX$CONTEXT4                               File name= CPX$CONTEXT4.:E05TOU
 UTS= JUL 29 '97 12:07:14.04 TUE                              Compiler= PL-6/E31         Sev=      00
 SharedLib= :SHARED_SYSTEM                                    Alt SharedLib=


    ****  Control sections  ****

 Sect   Type Bound  Init  Size OctSiz  Section name(segment info)
    0   DCB   even  none     0      0  M$UC
    1  RoData even  UTS     20     24  CPX$CONTEXT4
    2   Proc  even  none   569   1071  CPX$CONTEXT4
    3  RoData even  none    20     24  CPX$CONTEXT4

    ****  Entry defs  ****

                              Check   Calling
                             calling  sequence
  Sect OctLoc Primary Altret sequence   type   Parms  Name
     2      0   yes            yes      Std        1  CPX$CONTEXT4
     2      3                  yes      Std        1  CPX$GOTO
     2     20                  yes      Std        1  CPX$GO
     2     23                  yes      Std        1  CPX$HELP
     2     26                  yes      Std        1  CPX$JOB
     2    347                  yes      Std        1  CPX$LET
     2    417                  yes      Std        1  CPX$LIMIT

  ****  Entry refs  ****

         Check        Calling
        calling       sequence
Altret sequence SRef   type   Args  Name
         yes          ~proc      0 XU_DATA_D
 yes     yes           Std       2 CXX$DECBIN
         yes           Std       5 CXP$POSTERR
                       nStd      0 X66_AUTO_1
                       nStd      0 X66_ARET
                       Std       0 B_CONSPOOL_D
PL6.E3A0      #001=CPX$CONTEXT4 File=CPX$CONTEXT4.:E05TSI                        TUE 07/29/97 12:07 Page:19

  ****  Data refs  ****

  Flags:  r = read only, s = secondary
Flgs Name                             Flgs Name                             Flgs Name
     M$UC                             r    XUP_SYMTBL                            B$JIT$
     B_VECTNIL

  ****  Segment refs  ****

  Flags:  r = read only, s = secondary
Flgs Name                             Flgs Name                             Flgs Name
     ISSID
PL6.E3A0      #001=CPX$CONTEXT4 File=CPX$CONTEXT4.:E05TSI                        TUE 07/29/97 12:07 Page:20


        1        1        /*M*    CPX$CONTEXT4    subroutine which checks for context errors for IBEX   */
        2        2        /*T***********************************************************/
        3        3        /*T*                                                         */
        4        4        /*T* Copyright (c) Bull HN Information Systems Inc., 1997    */
        5        5        /*T*                                                         */
        6        6        /*T***********************************************************/
        7        7        /*X*    AND,DMC,IPC,IND=3,CTI=6,ECU=3,DCI=3,DTI=3                             */
        8        8        /*P*    NAME: CPX$CONTEXT4
        9        9                PURPOSE: To check for context errors for IBEX                         */
       10       10        /******************************************************************************/
       11       11        CPX$CONTEXT4:
       12       12                PROC (P_PARAM);

     12  2 000000   000000 700200 xent  CPX$CONTEXT4 TSX0  ! X66_AUTO_1
         2 000001   000024 000001                    ZERO    20,1
         2 000002   000005 710000 2                  TRA     s:7166

       13       13        /***** include files *****/
       14       14          %INCLUDE CP_6;
       15       95          %INCLUDE CP_PERR_C;
       16      433          %INCLUDE CP_MACROS_C;
       17     1185          %INCLUDE CP_SUBS_C;
       18     2102          %INCLUDE XU_MACRO_C;
       19     5208          %INCLUDE XU_SUBS_C;
       20     5300          %INCLUDE AS_SUPER_C;
       21     5735          %INCLUDE B$JIT;
       22     6025          %INCLUDE XU_DATA_R;
       23     6036          %INCLUDE JG_GHOSTS_C;
       24     6126        /***** fpts *****/
       25     6127          %PARSE$PARAM (NAME=P_PARAM);
       26     6208          %PARSE$SYM (NAME=P$S,STCLASS=BASED);
       27     6246          %PARSE$OUT (NAME=P$B,STCLASS=BASED);
       28     6291          %U$PARAM (NAME=U$PARAM,STCLASS="BASED(P_PARAM.USER$)");
       29     6307        %AS_USERS (STR_NAME=AS$USERS,STCLASS=BASED);
       30     6485        %P_PCB (NAME=P$PCB, STCLASS=BASED);
       31     6684        /***** external routines *****/
PL6.E3A0      #001=CPX$CONTEXT4 File=CPX$CONTEXT4.:E05TSI                        TUE 07/29/97 12:07 Page:21
       32     6685    1   DCL CXP$POSTERR ENTRY(5);
       33     6686    1   DCL CXX$DECBIN ENTRY(2) ALTRET;
       34     6687    1   DCL CPX$OCTBIN ENTRY(2) ALTRET;
       35     6688        /***** declarations *****/
       36     6689    1   DCL PTR$ PTR AUTO;
       37     6690    1   DCL PTR1$ PTR AUTO;
       38     6691    1   DCL VALUE SBIN WORD AUTO;
       39     6692    1   DCL INDX UBIN WORD AUTO;
       40     6693    1   DCL B$JIT$ PTR SYMREF;
       41     6694    1   DCL I SBIN;
       42     6695    1   DCL TIME SBIN;
       43     6696    1   DCL MODE UBIN(4) UNAL;
       44     6697    1   DCL USER$ PTR;
       45     6698    1   DCL CC_VALUE SBIN WORD AUTO;
       46     6699    1   DCL NEXT_CHAR CHAR(1) AUTO;
       47     6700    1   DCL CHAR$ARRAY(0:0) CHAR(1) BASED;
       48     6701    1   DCL CHARS CHAR(I) BASED;
       49     6702             %EJECT;
PL6.E3A0      #001=CPX$CONTEXT4 File=CPX$CONTEXT4.:E05TSI                        TUE 07/29/97 12:07 Page:22
       50     6703        /***** error msgs *****/
       51     6704        %ERR_CODE (NAME=E_BDCVAL,MID#=CPX$IBEXMID,CODE#=E$BDCVAL,STCLASS=CONSTANT);
       52     6724        %ERR_CODE (NAME=E_BOCVAL,MID#=CPX$IBEXMID,CODE#=E$BOCVAL,STCLASS=CONSTANT);
       53     6744        %ERR_CODE (NAME=E_JPBIGPRIO,MID#=CPX$IBEXMID,CODE#=E$JPBIGPRIO,STCLASS=CONSTANT);
       54     6764        /*E* ERROR: CPX-E$JPBIGPRIO
       55     6765             MESSAGE: Prio greater than 15
       56     6766        */
       57     6767        %ERR_CODE (NAME=E_JPBIGWSN,MID#=CPX$IBEXMID,CODE#=E$JPBIGWSN,STCLASS=CONSTANT);
       58     6787        /*E* ERROR: CPX-E$JPBIGWSN
       59     6788             MESSAGE: WSN greater than 8 characters
       60     6789        */
       61     6790        %ERR_CODE (NAME=E_JPBIGACCT,MID#=CPX$IBEXMID,CODE#=E$JPBIGACCT,STCLASS=CONSTANT);
       62     6810        /*E* ERROR: CPX-E$JPBIGACCT
       63     6811             MESSAGE: ACCOUNT greater than 8 characters
       64     6812        */
       65     6813        %ERR_CODE (NAME=E_JPBIGSTCC,MID#=CPX$IBEXMID,CODE#=E$JPBIGSTCC,STCLASS=CONSTANT);
       66     6833        /*E* ERROR: CPX-E$JPBIGSTCC
       67     6834             MESSAGE: STEPCC value greater than 511
       68     6835        */
       69     6836        %ERR_CODE (NAME=E_JPBIGUNAME,MID#=CPX$IBEXMID,CODE#=E$JPBIGUNAME,STCLASS=CONSTANT);
       70     6856        /*E* ERROR: CPX-E$JPBIGUNAME
       71     6857             MESSAGE: UNAME greater than 12 characters
       72     6858        */
       73     6859        %ERR_CODE (NAME=E_JPBIGJNAME,MID#=CPX$IBEXMID,CODE#=E$JPBIGJNAME,STCLASS=CONSTANT);
       74     6879        /*E* ERROR: CPX-E$JPBIGJNAME
       75     6880             MESSAGE: JOB name greater than 31 characters
       76     6881        */
       77     6882        %ERR_CODE (NAME=E_JPBIGUPASS,MID#=CPX$IBEXMID,CODE#=E$JPBIGUPASS,STCLASS=CONSTANT);
       78     6902        /*E* ERROR: CPX-E$JPBIGUPASS
       79     6903             MESSAGE: PASSWORD greater than 8 characters
       80     6904        */
       81     6905        %ERR_CODE (NAME=E_JPBIGTIME,MID#=CPX$IBEXMID,CODE#=E$JPBIGTIME,STCLASS=CONSTANT);
       82     6925        /*E* ERROR: CPX-E$JPBIGTIME
       83     6926             MESSAGE: Time field too large
       84     6927        */
       85     6928        %ERR_CODE (NAME=E_JPBIGDATE,MID#=CPX$IBEXMID,CODE#=E$JPBIGDATE,STCLASS=CONSTANT);
       86     6948        /*E* ERROR: CPX-E$JPBIGDATE
PL6.E3A0      #001=CPX$CONTEXT4 File=CPX$CONTEXT4.:E05TSI                        TUE 07/29/97 12:07 Page:23
       87     6949             MESSAGE: Date field too large
       88     6950        */
       89     6951        %ERR_CODE (NAME=E_JPILLSYSID,MID#=CPX$IBEXMID,CODE#=E$JPILLSYSID,STCLASS=CONSTANT);
       90     6971        /*E*    ERROR: CPX-E$JPILLSYSID-0
       91     6972                MESSAGE: Sysid must not exceed 99999
       92     6973        */
       93     6974        %ERR_CODE (NAME=E_XBIGLABEL,CODE#=E$XBIGLABEL,MID#=CPX$IBEXMID,STCLASS=CONSTANT);
       94     6994        /*E*    ERROR:   CPX-E$XBIGLABEL-0
       95     6995                MESSAGE: Labels must be 31 characters or less
       96     6996        */
       97     6997        %ERR_CODE (NAME=E_XBIGVAR,CODE#=E$XBIGVAR,MID#=CPX$IBEXMID,STCLASS=CONSTANT);
       98     7017        /*E*    ERROR:   CPX-E$XBIGVAR-0
       99     7018                MESSAGE: COMMAND VARIABLE names must be 31 characters or less
      100     7019        */
      101     7020        %ERR_CODE (NAME=E_XILLVAR,CODE#=E$XILLVAR,MID#=CPX$IBEXMID,STCLASS=CONSTANT);
      102     7040        /*E*    ERROR:   CPX-E$XILLVAR-0
      103     7041                MESSAGE: COMMAND VARIABLE names must begin with an alpha character
      104     7042        */
      105     7043        %ERR_CODE (NAME=E_XLMTXCD,CODE#=E$XLMTXCD,MID#=CPX$IBEXMID,STCLASS=CONSTANT);
      106     7063        /*E*   ERROR:  CPX-E$XLMTXCD-0
      107     7064               MESSAGE: Limit exceeds user maximum
      108     7065               MESSAGE1: Limit exceeds the maximum authorized in :USERS record
      109     7066        */
      110     7067        %ERR_CODE (NAME=E_XHRXCD,CODE#=E$XHRXCD,MID#=CPX$IBEXMID,STCLASS=CONSTANT);
      111     7087        /*E*   ERROR:  CPX-E$XHRXCD-0
      112     7088               MESSAGE: Illegal value specified for hours
      113     7089               MESSAGE1: Hours must be in the range of 0 to 95442
      114     7090        */
      115     7091        %ERR_CODE (NAME=E_XMINXCD,CODE#=E$XMINXCD,MID#=CPX$IBEXMID,STCLASS=CONSTANT);
      116     7111        /*E*   ERROR:  CPX-E$XMINXCD-0
      117     7112               MESSAGE: Illegal value specified for minutes
      118     7113               MESSAGE1: Minutes value must be the range of 0 to 59 if hours
      119     7114                         is specified, or 0 to 5726622 if hours is unspecified
      120     7115        */
      121     7116        %ERR_CODE (NAME=E_XSECXCD,CODE#=E$XSECXCD,MID#=CPX$IBEXMID,STCLASS=CONSTANT);
      122     7136        /*E*   ERROR:  CPX-E$XSECXCD-0
      123     7137               MESSAGE: Illegal value specified for seconds
PL6.E3A0      #001=CPX$CONTEXT4 File=CPX$CONTEXT4.:E05TSI                        TUE 07/29/97 12:07 Page:24
      124     7138               MESSAGE1: Seconds value must be in the range of 0 to 59 if minutes
      125     7139                         is specified, or 0 to 343597383 if minutes is unspecified
      126     7140        */
      127     7141        %ERR_CODE (NAME=E_XFPOOLSMIN,CODE#=E$XFPOOLSMIN,MID#=CPX$IBEXMID,STCLASS=CONSTANT);
      128     7161        /*E*   ERROR:  CPX-E$XFPOOLSMIN-0
      129     7162               MESSAGE: FPOOLS less than system minimum which is 5
      130     7163        */
      131     7164             %EJECT;
PL6.E3A0      #001=CPX$CONTEXT4 File=CPX$CONTEXT4.:E05TSI                        TUE 07/29/97 12:07 Page:25
      132     7165    1   CPX$GOTO: ENTRY (P_PARAM);

   7165  2 000003   000000 700200 xent  CPX$GOTO     TSX0  ! X66_AUTO_1
         2 000004   000024 000001                    ZERO    20,1

      133     7166    1           IF P_PARAM.OUT$ -> P$S.COUNT > 31

   7166  2 000005   200003 470500                    LDP0    @P_PARAM,,AUTO
         2 000006   000002 471500                    LDP1    2,,PR0
         2 000007   100004 236100                    LDQ     4,,PR1
         2 000010   777000 376003                    ANQ     -512,DU
         2 000011   040000 116003                    CMPQ    16384,DU
         2 000012   000017 602000 2                  TNC     s:7169

      134     7167    1           THEN   /* LABEL longer than 31 chars */
      135     7168    1              CALL POSTERR (E_XBIGLABEL);

   7168  2 000013   000000 236000 3                  LDQ     0
         2 000014   200017 756100                    STQ     NEXT_CHAR+2,,AUTO
         2 000015   001052 701000 2                  TSX1    POSTERR
         2 000016   000000 011000                    NOP     0

      136     7169    1           RETURN;

   7169  2 000017   000000 702200 xent               TSX2  ! X66_ARET

      137     7170             %EJECT;
PL6.E3A0      #001=CPX$CONTEXT4 File=CPX$CONTEXT4.:E05TSI                        TUE 07/29/97 12:07 Page:26
      138     7171    1   CPX$GO: ENTRY (P_PARAM);

   7171  2 000020   000000 700200 xent  CPX$GO       TSX0  ! X66_AUTO_1
         2 000021   000024 000001                    ZERO    20,1

      139     7172    1           RETURN;

   7172  2 000022   000000 702200 xent               TSX2  ! X66_ARET

      140     7173             %EJECT;
PL6.E3A0      #001=CPX$CONTEXT4 File=CPX$CONTEXT4.:E05TSI                        TUE 07/29/97 12:07 Page:27
      141     7174    1   CPX$HELP: ENTRY (P_PARAM);

   7174  2 000023   000000 700200 xent  CPX$HELP     TSX0  ! X66_AUTO_1
         2 000024   000024 000001                    ZERO    20,1

      142     7175    1           RETURN;

   7175  2 000025   000000 702200 xent               TSX2  ! X66_ARET

      143     7176             %EJECT;
PL6.E3A0      #001=CPX$CONTEXT4 File=CPX$CONTEXT4.:E05TSI                        TUE 07/29/97 12:07 Page:28
      144     7177    1   CPX$JOB: ENTRY (P_PARAM);

   7177  2 000026   000000 700200 xent  CPX$JOB      TSX0  ! X66_AUTO_1
         2 000027   000024 000001                    ZERO    20,1

      145     7178    1           IF P_PARAM.OUT$->P$B.NDTYPE=%DEC#

   7178  2 000030   200003 470500                    LDP0    @P_PARAM,,AUTO
         2 000031   000002 471500                    LDP1    2,,PR0
         2 000032   100000 236100                    LDQ     0,,PR1
         2 000033   000077 376003                    ANQ     63,DU
         2 000034   000022 116003                    CMPQ    18,DU
         2 000035   000046 601000 2                  TNZ     s:7181

      146     7179    1           THEN
      147     7180    1              CALL CXX$DECBIN(P_PARAM.OUT$->P$S.COUNT,VALUE) ALTRET(E_DECBIN);

   7180  2 000036   200006 633500                    EPPR3   VALUE,,AUTO
         2 000037   200021 453500                    STP3    @ERRCODE+2,,AUTO
         2 000040   100004 634500                    EPPR4   4,,PR1
         2 000041   200020 454500                    STP4    @ERRCODE+1,,AUTO
         2 000042   200020 630500                    EPPR0   @ERRCODE+1,,AUTO
         2 000043   000020 631400 xsym               EPPR1   B_VECTNIL+16
         2 000044   000000 701000 xent               TSX1    CXX$DECBIN
         2 000045   001045 702000 2                  TSX2    E_DECBIN

      148     7181    2           DO CASE(P_PARAM.OUT$->P$B.CODE);

   7181  2 000046   200003 470500                    LDP0    @P_PARAM,,AUTO
         2 000047   000002 471500                    LDP1    2,,PR0
         2 000050   100000 236100                    LDQ     0,,PR1
         2 000051   777777 376007                    ANQ     -1,DL
         2 000052   000005 136007                    SBLQ    5,DL
         2 000053   000046 116007                    CMPQ    38,DL
         2 000054   000056 602006 2                  TNC     s:7181+8,QL
         2 000055   000346 710000 2                  TRA     s:7252
         2 000056   000261 710000 2                  TRA     s:7223
PL6.E3A0      #001=CPX$CONTEXT4 File=CPX$CONTEXT4.:E05TSI                        TUE 07/29/97 12:07 Page:29
         2 000057   000271 710000 2                  TRA     s:7227
         2 000060   000301 710000 2                  TRA     s:7231
         2 000061   000346 710000 2                  TRA     s:7252
         2 000062   000346 710000 2                  TRA     s:7252
         2 000063   000241 710000 2                  TRA     s:7215
         2 000064   000251 710000 2                  TRA     s:7219
         2 000065   000346 710000 2                  TRA     s:7252
         2 000066   000346 710000 2                  TRA     s:7252
         2 000067   000346 710000 2                  TRA     s:7252
         2 000070   000346 710000 2                  TRA     s:7252
         2 000071   000346 710000 2                  TRA     s:7252
         2 000072   000346 710000 2                  TRA     s:7252
         2 000073   000145 710000 2                  TRA     s:7191
         2 000074   000177 710000 2                  TRA     s:7203
         2 000075   000346 710000 2                  TRA     s:7252
         2 000076   000346 710000 2                  TRA     s:7252
         2 000077   000346 710000 2                  TRA     s:7252
         2 000100   000346 710000 2                  TRA     s:7252
         2 000101   000346 710000 2                  TRA     s:7252
         2 000102   000346 710000 2                  TRA     s:7252
         2 000103   000346 710000 2                  TRA     s:7252
         2 000104   000346 710000 2                  TRA     s:7252
         2 000105   000346 710000 2                  TRA     s:7252
         2 000106   000210 710000 2                  TRA     s:7207
         2 000107   000124 710000 2                  TRA     s:7183
         2 000110   000346 710000 2                  TRA     s:7252
         2 000111   000346 710000 2                  TRA     s:7252
         2 000112   000346 710000 2                  TRA     s:7252
         2 000113   000346 710000 2                  TRA     s:7252
         2 000114   000346 710000 2                  TRA     s:7252
         2 000115   000346 710000 2                  TRA     s:7252
         2 000116   000156 710000 2                  TRA     s:7195
         2 000117   000346 710000 2                  TRA     s:7252
         2 000120   000311 710000 2                  TRA     s:7235
         2 000121   000145 710000 2                  TRA     s:7191
         2 000122   000166 710000 2                  TRA     s:7199
         2 000123   000134 710000 2                  TRA     s:7187
PL6.E3A0      #001=CPX$CONTEXT4 File=CPX$CONTEXT4.:E05TSI                        TUE 07/29/97 12:07 Page:30

      149     7182    2            CASE(JOB_PRIO);

      150     7183    2              IF VALUE>15

   7183  2 000124   200006 235100                    LDA     VALUE,,AUTO
         2 000125   000017 115007                    CMPA    15,DL
         2 000126   000346 604400 2                  TMOZ    s:7252

      151     7184    2              THEN
      152     7185    2                 CALL POSTERR (E_JPBIGPRIO);

   7185  2 000127   000001 236000 3                  LDQ     1
         2 000130   200017 756100                    STQ     NEXT_CHAR+2,,AUTO
         2 000131   001052 701000 2                  TSX1    POSTERR
         2 000132   000000 011000                    NOP     0
         2 000133   000346 710000 2                  TRA     s:7252

      153     7186    2            CASE(JOB_WSN);

      154     7187    2              IF P_PARAM.OUT$->P$S.COUNT>8

   7187  2 000134   100004 236100                    LDQ     4,,PR1
         2 000135   777000 376003                    ANQ     -512,DU
         2 000136   011000 116003                    CMPQ    4608,DU
         2 000137   000346 602000 2                  TNC     s:7252

      155     7188    2              THEN
      156     7189    2                 CALL POSTERR (E_JPBIGWSN);

   7189  2 000140   000002 236000 3                  LDQ     2
         2 000141   200017 756100                    STQ     NEXT_CHAR+2,,AUTO
         2 000142   001052 701000 2                  TSX1    POSTERR
         2 000143   000000 011000                    NOP     0
         2 000144   000346 710000 2                  TRA     s:7252

      157     7190    2            CASE(JOB_UACCT,JOB_JACCT);
PL6.E3A0      #001=CPX$CONTEXT4 File=CPX$CONTEXT4.:E05TSI                        TUE 07/29/97 12:07 Page:31

      158     7191    2              IF P_PARAM.OUT$->P$S.COUNT>8

   7191  2 000145   100004 236100                    LDQ     4,,PR1
         2 000146   777000 376003                    ANQ     -512,DU
         2 000147   011000 116003                    CMPQ    4608,DU
         2 000150   000346 602000 2                  TNC     s:7252

      159     7192    2              THEN
      160     7193    2                 CALL POSTERR (E_JPBIGACCT);

   7193  2 000151   000003 236000 3                  LDQ     3
         2 000152   200017 756100                    STQ     NEXT_CHAR+2,,AUTO
         2 000153   001052 701000 2                  TSX1    POSTERR
         2 000154   000000 011000                    NOP     0
         2 000155   000346 710000 2                  TRA     s:7252

      161     7194    2            CASE(JOB_STCCVAL);

      162     7195    2              IF VALUE>511

   7195  2 000156   200006 235100                    LDA     VALUE,,AUTO
         2 000157   000777 115007                    CMPA    511,DL
         2 000160   000346 604400 2                  TMOZ    s:7252

      163     7196    2              THEN
      164     7197    2                 CALL POSTERR (E_JPBIGSTCC);

   7197  2 000161   000004 236000 3                  LDQ     4
         2 000162   200017 756100                    STQ     NEXT_CHAR+2,,AUTO
         2 000163   001052 701000 2                  TSX1    POSTERR
         2 000164   000000 011000                    NOP     0
         2 000165   000346 710000 2                  TRA     s:7252

      165     7198    2            CASE(JOB_UNAME);

      166     7199    2              IF P_PARAM.OUT$->P$S.COUNT>12
PL6.E3A0      #001=CPX$CONTEXT4 File=CPX$CONTEXT4.:E05TSI                        TUE 07/29/97 12:07 Page:32

   7199  2 000166   100004 236100                    LDQ     4,,PR1
         2 000167   777000 376003                    ANQ     -512,DU
         2 000170   015000 116003                    CMPQ    6656,DU
         2 000171   000346 602000 2                  TNC     s:7252

      167     7200    2              THEN
      168     7201    2                 CALL POSTERR (E_JPBIGUNAME);

   7201  2 000172   000005 236000 3                  LDQ     5
         2 000173   200017 756100                    STQ     NEXT_CHAR+2,,AUTO
         2 000174   001052 701000 2                  TSX1    POSTERR
         2 000175   000000 011000                    NOP     0
         2 000176   000346 710000 2                  TRA     s:7252

      169     7202    2            CASE(JOB_JNAME);

      170     7203    2              IF P_PARAM.OUT$->P$S.COUNT>31

   7203  2 000177   100004 236100                    LDQ     4,,PR1
         2 000200   777000 376003                    ANQ     -512,DU
         2 000201   040000 116003                    CMPQ    16384,DU
         2 000202   000346 602000 2                  TNC     s:7252

      171     7204    2              THEN
      172     7205    2                 CALL POSTERR (E_JPBIGJNAME);

   7205  2 000203   000006 236000 3                  LDQ     6
         2 000204   200017 756100                    STQ     NEXT_CHAR+2,,AUTO
         2 000205   001052 701000 2                  TSX1    POSTERR
         2 000206   000000 011000                    NOP     0
         2 000207   000346 710000 2                  TRA     s:7252

      173     7206    2            CASE(JOB_PASSWD);

      174     7207    2              IF P_PARAM.OUT$->P$S.COUNT>8

PL6.E3A0      #001=CPX$CONTEXT4 File=CPX$CONTEXT4.:E05TSI                        TUE 07/29/97 12:07 Page:33
   7207  2 000210   100004 236100                    LDQ     4,,PR1
         2 000211   777000 376003                    ANQ     -512,DU
         2 000212   011000 116003                    CMPQ    4608,DU
         2 000213   000220 602000 2                  TNC     s:7210

      175     7208    2              THEN
      176     7209    2                 CALL POSTERR (E_JPBIGUPASS);

   7209  2 000214   000007 236000 3                  LDQ     7
         2 000215   200017 756100                    STQ     NEXT_CHAR+2,,AUTO
         2 000216   001052 701000 2                  TSX1    POSTERR
         2 000217   000000 011000                    NOP     0

      177     7210    2              IF U$PARAM.MODE = BATCHSCAN_MODE THEN EXIT;

   7210  2 000220   200003 470500                    LDP0    @P_PARAM,,AUTO
         2 000221   000006 471500                    LDP1    6,,PR0
         2 000222   100006 236100                    LDQ     6,,PR1
         2 000223   777000 376003                    ANQ     -512,DU
         2 000224   002000 116003                    CMPQ    1024,DU
         2 000225   000346 600000 2                  TZE     s:7252

      178     7211                                            /* Blank the password - in case it echos */
      179     7212    2              SUBSTR (P_PARAM.PCB$->P$PCB.TEXT$->CHARS,

   7212  2 000226   000005 473500                    LDP3    5,,PR0
         2 000227   300000 474500                    LDP4    0,,PR3
         2 000230   000002 475500                    LDP5    2,,PR0
         2 000231   500002 235100                    LDA     2,,PR5
         2 000232   500004 236100                    LDQ     4,,PR5
         2 000233   000033 772000                    QRL     27
         2 000234   000000 620006                    EAX0    0,QL
         2 000235   040145 100400                    MLR     fill='040'O
         2 000236   000035 000001 xsym               ADSC9   B_VECTNIL+29             cn=0,n=1
         2 000237   400000 000010                    ADSC9   0,A,PR4                  cn=0,n=*X0
         2 000240   000346 710000 2                  TRA     s:7252

PL6.E3A0      #001=CPX$CONTEXT4 File=CPX$CONTEXT4.:E05TSI                        TUE 07/29/97 12:07 Page:34
      180     7213    2                    P_PARAM.OUT$->P$S.CPOS, P_PARAM.OUT$->P$S.COUNT) = ' ';
      181     7214    2            CASE(JOB_DTIME1);

      182     7215    2              IF VALUE>23

   7215  2 000241   200006 235100                    LDA     VALUE,,AUTO
         2 000242   000027 115007                    CMPA    23,DL
         2 000243   000346 604400 2                  TMOZ    s:7252

      183     7216    2              THEN
      184     7217    2                 CALL POSTERR (E_JPBIGTIME);

   7217  2 000244   000010 236000 3                  LDQ     8
         2 000245   200017 756100                    STQ     NEXT_CHAR+2,,AUTO
         2 000246   001052 701000 2                  TSX1    POSTERR
         2 000247   000000 011000                    NOP     0
         2 000250   000346 710000 2                  TRA     s:7252

      185     7218    2            CASE(JOB_DTIME2);

      186     7219    2              IF VALUE>59

   7219  2 000251   200006 235100                    LDA     VALUE,,AUTO
         2 000252   000073 115007                    CMPA    59,DL
         2 000253   000346 604400 2                  TMOZ    s:7252

      187     7220    2              THEN
      188     7221    2                 CALL POSTERR (E_JPBIGTIME);

   7221  2 000254   000010 236000 3                  LDQ     8
         2 000255   200017 756100                    STQ     NEXT_CHAR+2,,AUTO
         2 000256   001052 701000 2                  TSX1    POSTERR
         2 000257   000000 011000                    NOP     0
         2 000260   000346 710000 2                  TRA     s:7252

      189     7222    2            CASE(JOB_DDATE1);

PL6.E3A0      #001=CPX$CONTEXT4 File=CPX$CONTEXT4.:E05TSI                        TUE 07/29/97 12:07 Page:35
      190     7223    2              IF VALUE>12

   7223  2 000261   200006 235100                    LDA     VALUE,,AUTO
         2 000262   000014 115007                    CMPA    12,DL
         2 000263   000346 604400 2                  TMOZ    s:7252

      191     7224    2              THEN
      192     7225    2                 CALL POSTERR (E_JPBIGDATE);

   7225  2 000264   000011 236000 3                  LDQ     9
         2 000265   200017 756100                    STQ     NEXT_CHAR+2,,AUTO
         2 000266   001052 701000 2                  TSX1    POSTERR
         2 000267   000000 011000                    NOP     0
         2 000270   000346 710000 2                  TRA     s:7252

      193     7226    2            CASE(JOB_DDATE2);

      194     7227    2              IF VALUE>31

   7227  2 000271   200006 235100                    LDA     VALUE,,AUTO
         2 000272   000037 115007                    CMPA    31,DL
         2 000273   000346 604400 2                  TMOZ    s:7252

      195     7228    2              THEN
      196     7229    2                 CALL POSTERR (E_JPBIGDATE);

   7229  2 000274   000011 236000 3                  LDQ     9
         2 000275   200017 756100                    STQ     NEXT_CHAR+2,,AUTO
         2 000276   001052 701000 2                  TSX1    POSTERR
         2 000277   000000 011000                    NOP     0
         2 000300   000346 710000 2                  TRA     s:7252

      197     7230    2            CASE(JOB_DDATE3);

      198     7231    2              IF VALUE>99

   7231  2 000301   200006 235100                    LDA     VALUE,,AUTO
PL6.E3A0      #001=CPX$CONTEXT4 File=CPX$CONTEXT4.:E05TSI                        TUE 07/29/97 12:07 Page:36
         2 000302   000143 115007                    CMPA    99,DL
         2 000303   000346 604400 2                  TMOZ    s:7252

      199     7232    2              THEN
      200     7233    2                 CALL POSTERR (E_JPBIGDATE);

   7233  2 000304   000011 236000 3                  LDQ     9
         2 000305   200017 756100                    STQ     NEXT_CHAR+2,,AUTO
         2 000306   001052 701000 2                  TSX1    POSTERR
         2 000307   000000 011000                    NOP     0
         2 000310   000346 710000 2                  TRA     s:7252

      201     7234    2            CASE(JOB_SYSID);

      202     7235    2              IF P_PARAM.CHARPOS < P_PARAM.PCB$->P$PCB.NCHARS-1

   7235  2 000311   000005 473500                    LDP3    5,,PR0
         2 000312   300011 236100                    LDQ     9,,PR3
         2 000313   000001 136007                    SBLQ    1,DL
         2 000314   000337 604000 2                  TMI     s:7248
         2 000315   000004 116100                    CMPQ    4,,PR0
         2 000316   000337 602000 2                  TNC     s:7248
         2 000317   000337 600000 2                  TZE     s:7248

      203     7236    2              THEN
      204     7237    3                 DO;

      205     7238    3                    NEXT_CHAR = P_PARAM.PCB$->P$PCB.TEXT$->

   7238  2 000320   300000 474500                    LDP4    0,,PR3
         2 000321   000004 235100                    LDA     4,,PR0
         2 000322   040100 100505                    MLR     fill='040'O
         2 000323   400000 000001                    ADSC9   0,A,PR4                  cn=0,n=1
         2 000324   200015 000001                    ADSC9   NEXT_CHAR,,AUTO          cn=0,n=1

      206     7239    3                          CHAR$ARRAY(P_PARAM.CHARPOS);
      207     7240    3                    IF SYMTTBL.JOBNAME(ASCBIN(NEXT_CHAR))
PL6.E3A0      #001=CPX$CONTEXT4 File=CPX$CONTEXT4.:E05TSI                        TUE 07/29/97 12:07 Page:37

   7240  2 000325   200015 236100                    LDQ     NEXT_CHAR,,AUTO
         2 000326   000033 772000                    QRL     27
         2 000327   000000 236006 xsym               LDQ     XUP_SYMTBL,QL
         2 000330   002000 316003                    CANQ    1024,DU
         2 000331   000337 600000 2                  TZE     s:7248

      208     7241    3                    THEN
      209     7242    4                       DO; /* This is a JOBNAME rather than a SYSID. */

      210     7243    4                          P_PARAM.REJECT = '1'B;

   7243  2 000332   000200 236003                    LDQ     128,DU
         2 000333   000000 256100                    ORSQ    0,,PR0

      211     7244    4                          P_PARAM.CHARPOS = P_PARAM.OUT$->P$B.CPOS;

   7244  2 000334   100002 235100                    LDA     2,,PR1
         2 000335   000004 755100                    STA     4,,PR0

      212     7245    4                          VALUE = 0; /* Ignore out of range value */

   7245  2 000336   200006 450100                    STZ     VALUE,,AUTO

      213     7246    4                       END;  /* Then Do */

      214     7247    3                 END;  /* Then Do */

      215     7248    2              IF VALUE > 99999

   7248  2 000337   200006 235100                    LDA     VALUE,,AUTO
         2 000340   303237 115007                    CMPA    99999,DL
         2 000341   000346 604400 2                  TMOZ    s:7252

      216     7249    2              THEN
      217     7250    2                 CALL POSTERR (E_JPILLSYSID);

PL6.E3A0      #001=CPX$CONTEXT4 File=CPX$CONTEXT4.:E05TSI                        TUE 07/29/97 12:07 Page:38
   7250  2 000342   000012 236000 3                  LDQ     10
         2 000343   200017 756100                    STQ     NEXT_CHAR+2,,AUTO
         2 000344   001052 701000 2                  TSX1    POSTERR
         2 000345   000000 011000                    NOP     0

      218     7251    2           END;

      219     7252    1           RETURN;

   7252  2 000346   000000 702200 xent               TSX2  ! X66_ARET

      220     7253             %EJECT;
PL6.E3A0      #001=CPX$CONTEXT4 File=CPX$CONTEXT4.:E05TSI                        TUE 07/29/97 12:07 Page:39
      221     7254    1   CPX$LET: ENTRY (P_PARAM);

   7254  2 000347   000000 700200 xent  CPX$LET      TSX0  ! X66_AUTO_1
         2 000350   000024 000001                    ZERO    20,1

      222     7255    1           IF P_PARAM.TYPE = %PRE#

   7255  2 000351   200003 470500                    LDP0    @P_PARAM,,AUTO
         2 000352   000000 236100                    LDQ     0,,PR0
         2 000353   777000 376003                    ANQ     -512,DU
         2 000354   001000 116003                    CMPQ    512,DU
         2 000355   000362 601000 2                  TNZ     s:7259

      223     7256    1           THEN
      224     7257    1              P_PARAM.PCB$->P$PCB.CONTINUE = '0'B;

   7257  2 000356   000005 471500                    LDP1    5,,PR0
         2 000357   000013 236000 3                  LDQ     11
         2 000360   100005 356100                    ANSQ    5,,PR1
         2 000361   000416 710000 2                  TRA     s:7272

      225     7258    1           ELSE
      226     7259    2              DO CASE(P_PARAM.OUT$->P$B.CODE);

   7259  2 000362   000002 471500                    LDP1    2,,PR0
         2 000363   100000 720100                    LXL0    0,,PR1
         2 000364   000005 100003                    CMPX0   5,DU
         2 000365   000367 602010 2                  TNC     s:7259+5,X0
         2 000366   000416 710000 2                  TRA     s:7272
         2 000367   000416 710000 2                  TRA     s:7272
         2 000370   000374 710000 2                  TRA     s:7263
         2 000371   000374 710000 2                  TRA     s:7263
         2 000372   000374 710000 2                  TRA     s:7263
         2 000373   000374 710000 2                  TRA     s:7263

      227     7260    2               CASE(%$STEPCC#, %$OK#, %$ERROR#, %$ABORT#);

PL6.E3A0      #001=CPX$CONTEXT4 File=CPX$CONTEXT4.:E05TSI                        TUE 07/29/97 12:07 Page:40
      228     7261                    /*  Check to see if the user input a variable name that has one
      229     7262                        of these keywords in the first part of the name. */
      230     7263    2                 NEXT_CHAR = P_PARAM.PCB$->P$PCB.TEXT$->CHAR$ARRAY(P_PARAM.CHARPOS);

   7263  2 000374   000005 473500                    LDP3    5,,PR0
         2 000375   300000 474500                    LDP4    0,,PR3
         2 000376   000004 235100                    LDA     4,,PR0
         2 000377   040100 100505                    MLR     fill='040'O
         2 000400   400000 000001                    ADSC9   0,A,PR4                  cn=0,n=1
         2 000401   200015 000001                    ADSC9   NEXT_CHAR,,AUTO          cn=0,n=1

      231     7264    2                 IF SYMTTBL.SYM(ASCBIN(NEXT_CHAR))

   7264  2 000402   200015 236100                    LDQ     NEXT_CHAR,,AUTO
         2 000403   000033 772000                    QRL     27
         2 000404   000000 236006 xsym               LDQ     XUP_SYMTBL,QL
         2 000405   200000 316003                    CANQ    65536,DU
         2 000406   000416 600000 2                  TZE     s:7272
         2 000407   000004 236100                    LDQ     4,,PR0
         2 000410   300011 116100                    CMPQ    9,,PR3
         2 000411   000416 603000 2                  TRC     s:7272

      232     7265    2                       AND P_PARAM.CHARPOS < P_PARAM.PCB$->P$PCB.NCHARS
      233     7266    2                 THEN
      234     7267    3                    DO; /* This is a variable name. */

      235     7268    3                       P_PARAM.REJECT = '1'B;

   7268  2 000412   000200 236003                    LDQ     128,DU
         2 000413   000000 256100                    ORSQ    0,,PR0

      236     7269    3                       P_PARAM.CHARPOS = P_PARAM.OUT$->P$B.CPOS;

   7269  2 000414   100002 235100                    LDA     2,,PR1
         2 000415   000004 755100                    STA     4,,PR0

      237     7270    3                    END; /* Then Do */
PL6.E3A0      #001=CPX$CONTEXT4 File=CPX$CONTEXT4.:E05TSI                        TUE 07/29/97 12:07 Page:41

      238     7271    2              END; /* Do Case */

      239     7272    1           RETURN;

   7272  2 000416   000000 702200 xent               TSX2  ! X66_ARET

      240     7273             %EJECT;
PL6.E3A0      #001=CPX$CONTEXT4 File=CPX$CONTEXT4.:E05TSI                        TUE 07/29/97 12:07 Page:42
      241     7274    1   CPX$LIMIT: ENTRY (P_PARAM);

   7274  2 000417   000000 700200 xent  CPX$LIMIT    TSX0  ! X66_AUTO_1
         2 000420   000024 000001                    ZERO    20,1

      242     7275        /*
      243     7276             ***** Pickup :USERS info according to U$PARAM.MODE ...
      244     7277        */
      245     7278    2           DO CASE (P_PARAM.USER$ -> U$PARAM.MODE);

   7278  2 000421   200003 470500                    LDP0    @P_PARAM,,AUTO
         2 000422   000006 471500                    LDP1    6,,PR0
         2 000423   100006 236100                    LDQ     6,,PR1
         2 000424   000033 772000                    QRL     27
         2 000425   000004 116007                    CMPQ    4,DL
         2 000426   000430 602006 2                  TNC     s:7278+7,QL
         2 000427   000444 710000 2                  TRA     s:7285
         2 000430   000444 710000 2                  TRA     s:7285
         2 000431   000434 710000 2                  TRA     s:7280
         2 000432   000443 710000 2                  TRA     s:7282
         2 000433   000443 710000 2                  TRA     s:7282

      246     7279    2            CASE (IBEX_MODE);

      247     7280    2              MODE = B$JIT.MODE - 1;

   7280  2 000434   000000 473400 xsym               LDP3    B$JIT$
         2 000435   300000 236100                    LDQ     0,,PR3
         2 000436   000040 772000                    QRL     32
         2 000437   000001 136007                    SBLQ    1,DL
         2 000440   000040 736000                    QLS     32
         2 000441   200012 756100                    STQ     MODE,,AUTO
         2 000442   000444 710000 2                  TRA     s:7285

      248     7281    2            CASE (BATCHSCAN_MODE,PRESCAN_MODE);

      249     7282    2              MODE = %M_BATCH# - 1;
PL6.E3A0      #001=CPX$CONTEXT4 File=CPX$CONTEXT4.:E05TSI                        TUE 07/29/97 12:07 Page:43

   7282  2 000443   200012 450100                    STZ     MODE,,AUTO

      250     7283    2           END;

      251     7284        /**/
      252     7285    1           PTR$ = P_PARAM.OUT$;

   7285  2 000444   000002 236100                    LDQ     2,,PR0
         2 000445   200004 756100                    STQ     PTR$,,AUTO

      253     7286    1           USER$ = U$PARAM.USERS$;

   7286  2 000446   100001 236100                    LDQ     1,,PR1
         2 000447   200013 756100                    STQ     USER$,,AUTO

      254     7287    1           IF PTR$->P$S.CODE ~= LIM_TIME THEN

   7287  2 000450   200004 473500                    LDP3    PTR$,,AUTO
         2 000451   300000 720100                    LXL0    0,,PR3
         2 000452   000015 100003                    CMPX0   13,DU
         2 000453   000471 600000 2                  TZE     s:7290

      255     7288    1              IF PTR$->P$S.NDTYPE = %DEC# THEN

   7288  2 000454   300000 236100                    LDQ     0,,PR3
         2 000455   000077 376003                    ANQ     63,DU
         2 000456   000022 116003                    CMPQ    18,DU
         2 000457   000471 601000 2                  TNZ     s:7290

      256     7289    1                 CALL CXX$DECBIN(PTR$->P$S.COUNT,CC_VALUE) ALTRET(E_DECBIN);

   7289  2 000460   200014 634500                    EPPR4   CC_VALUE,,AUTO
         2 000461   200021 454500                    STP4    @ERRCODE+2,,AUTO
         2 000462   200004 236100                    LDQ     PTR$,,AUTO
         2 000463   000004 036003                    ADLQ    4,DU
         2 000464   200020 756100                    STQ     @ERRCODE+1,,AUTO
PL6.E3A0      #001=CPX$CONTEXT4 File=CPX$CONTEXT4.:E05TSI                        TUE 07/29/97 12:07 Page:44
         2 000465   200020 630500                    EPPR0   @ERRCODE+1,,AUTO
         2 000466   000020 631400 xsym               EPPR1   B_VECTNIL+16
         2 000467   000000 701000 xent               TSX1    CXX$DECBIN
         2 000470   001045 702000 2                  TSX2    E_DECBIN

      257     7290    2           DO CASE(PTR$->P$S.CODE);

   7290  2 000471   200004 470500                    LDP0    PTR$,,AUTO
         2 000472   000000 720100                    LXL0    0,,PR0
         2 000473   000016 100003                    CMPX0   14,DU
         2 000474   000476 602010 2                  TNC     s:7290+5,X0
         2 000475   001044 710000 2                  TRA     s:7352
         2 000476   001044 710000 2                  TRA     s:7352
         2 000477   001044 710000 2                  TRA     s:7352
         2 000500   000754 710000 2                  TRA     s:7333
         2 000501   001020 710000 2                  TRA     s:7345
         2 000502   001044 710000 2                  TRA     s:7352
         2 000503   000724 710000 2                  TRA     s:7325
         2 000504   000514 710000 2                  TRA     s:7292
         2 000505   001044 710000 2                  TRA     s:7352
         2 000506   001004 710000 2                  TRA     s:7341
         2 000507   000740 710000 2                  TRA     s:7329
         2 000510   001044 710000 2                  TRA     s:7352
         2 000511   001044 710000 2                  TRA     s:7352
         2 000512   000770 710000 2                  TRA     s:7337
         2 000513   000533 710000 2                  TRA     s:7296

      258     7291    2            CASE(LIM_MEM);

      259     7292    2              IF CC_VALUE > USER$->AS$USERS.MMEM(MODE)

   7292  2 000514   200012 236100                    LDQ     MODE,,AUTO
         2 000515   000040 772000                    QRL     32
         2 000516   000001 736000                    QLS     1
         2 000517   200013 471500                    LDP1    USER$,,AUTO
         2 000520   000100 101506                    MRL     fill='000'O
         2 000521   100261 000002                    ADSC9   177,Q,PR1                cn=0,n=2
PL6.E3A0      #001=CPX$CONTEXT4 File=CPX$CONTEXT4.:E05TSI                        TUE 07/29/97 12:07 Page:45
         2 000522   200020 000004                    ADSC9   @ERRCODE+1,,AUTO         cn=0,n=4
         2 000523   200020 236100                    LDQ     @ERRCODE+1,,AUTO
         2 000524   200014 116100                    CMPQ    CC_VALUE,,AUTO
         2 000525   001044 605000 2                  TPL     s:7352

      260     7293    2              THEN
      261     7294    2                 CALL POSTERR (E_XLMTXCD);

   7294  2 000526   000014 236000 3                  LDQ     12
         2 000527   200017 756100                    STQ     NEXT_CHAR+2,,AUTO
         2 000530   001052 701000 2                  TSX1    POSTERR
         2 000531   000000 011000                    NOP     0
         2 000532   001044 710000 2                  TRA     s:7352

      262     7295    2            CASE(LIM_TIME);

      263     7296    2              TIME = 0;

   7296  2 000533   200011 450100                    STZ     TIME,,AUTO

      264     7297    3              DO I=0 TO PTR$->P$B.NSUBLKS-1;

   7297  2 000534   200010 450100                    STZ     I,,AUTO
         2 000535   000677 710000 2                  TRA     s:7320+1

      265     7298    3                 PTR1$ = PTR$->P$B.SUBLK$(I);

   7298  2 000536   200004 470500                    LDP0    PTR$,,AUTO
         2 000537   200010 720100                    LXL0    I,,AUTO
         2 000540   000003 236110                    LDQ     3,X0,PR0
         2 000541   200005 756100                    STQ     PTR1$,,AUTO

      266     7299    3                 CALL CXX$DECBIN(PTR1$->P$S.COUNT,CC_VALUE) ALTRET(E_DECBIN);

   7299  2 000542   200014 631500                    EPPR1   CC_VALUE,,AUTO
         2 000543   200021 451500                    STP1    @ERRCODE+2,,AUTO
         2 000544   000004 036003                    ADLQ    4,DU
PL6.E3A0      #001=CPX$CONTEXT4 File=CPX$CONTEXT4.:E05TSI                        TUE 07/29/97 12:07 Page:46
         2 000545   200020 756100                    STQ     @ERRCODE+1,,AUTO
         2 000546   200020 630500                    EPPR0   @ERRCODE+1,,AUTO
         2 000547   000020 631400 xsym               EPPR1   B_VECTNIL+16
         2 000550   000000 701000 xent               TSX1    CXX$DECBIN
         2 000551   001045 702000 2                  TSX2    E_DECBIN

      267     7300    4                 DO CASE(PTR1$->P$S.CODE);

   7300  2 000552   200005 470500                    LDP0    PTR1$,,AUTO
         2 000553   000000 236100                    LDQ     0,,PR0
         2 000554   777777 376007                    ANQ     -1,DL
         2 000555   000004 136007                    SBLQ    4,DL
         2 000556   000007 116007                    CMPQ    7,DL
         2 000557   000561 602006 2                  TNC     s:7300+7,QL
         2 000560   000676 710000 2                  TRA     s:7320
         2 000561   000570 710000 2                  TRA     s:7302
         2 000562   000676 710000 2                  TRA     s:7320
         2 000563   000676 710000 2                  TRA     s:7320
         2 000564   000614 710000 2                  TRA     s:7308
         2 000565   000676 710000 2                  TRA     s:7320
         2 000566   000676 710000 2                  TRA     s:7320
         2 000567   000646 710000 2                  TRA     s:7314

      268     7301    4                  CASE(LIM_HOURS);

      269     7302    4                    IF CC_VALUE >95442

   7302  2 000570   200014 235100                    LDA     CC_VALUE,,AUTO
         2 000571   272322 115007                    CMPA    95442,DL
         2 000572   000610 604400 2                  TMOZ    s:7306

      270     7303    4                    THEN
      271     7304    4                       CALL CXP$POSTERR(U$PARAM.ERRBUF$,PTR1$->P$S.CPOS,E_XHRXCD);

   7304  2 000573   200003 471500                    LDP1    @P_PARAM,,AUTO
         2 000574   100006 473500                    LDP3    6,,PR1
         2 000575   000015 236000 3                  LDQ     13
PL6.E3A0      #001=CPX$CONTEXT4 File=CPX$CONTEXT4.:E05TSI                        TUE 07/29/97 12:07 Page:47
         2 000576   200022 756100                    STQ     @ERRCODE+3,,AUTO
         2 000577   200005 236100                    LDQ     PTR1$,,AUTO
         2 000600   000002 036003                    ADLQ    2,DU
         2 000601   200021 756100                    STQ     @ERRCODE+2,,AUTO
         2 000602   200020 453500                    STP3    @ERRCODE+1,,AUTO
         2 000603   200020 630500                    EPPR0   @ERRCODE+1,,AUTO
         2 000604   000021 631400 xsym               EPPR1   B_VECTNIL+17
         2 000605   000000 701000 xent               TSX1    CXP$POSTERR
         2 000606   000000 011000                    NOP     0
         2 000607   000676 710000 2                  TRA     s:7320

      272     7305    4                    ELSE
      273     7306    4                       TIME = CC_VALUE * 3600;

   7306  2 000610   200014 236100                    LDQ     CC_VALUE,,AUTO
         2 000611   007020 402007                    MPY     3600,DL
         2 000612   200011 756100                    STQ     TIME,,AUTO
         2 000613   000676 710000 2                  TRA     s:7320

      274     7307    4                  CASE(LIM_MINUTS);

      275     7308    4                    IF I ~= 0 AND CC_VALUE >59 OR CC_VALUE >5726622

   7308  2 000614   200010 235100                    LDA     I,,AUTO
         2 000615   000621 600000 2                  TZE     s:7308+5
         2 000616   200014 235100                    LDA     CC_VALUE,,AUTO
         2 000617   000073 115007                    CMPA    59,DL
         2 000620   000624 605400 2                  TPNZ    s:7310
         2 000621   200014 235100                    LDA     CC_VALUE,,AUTO
         2 000622   000016 115000 3                  CMPA    14
         2 000623   000641 604400 2                  TMOZ    s:7312

      276     7309    4                    THEN
      277     7310    4                       CALL CXP$POSTERR(U$PARAM.ERRBUF$,PTR1$->P$S.CPOS,E_XMINXCD);

   7310  2 000624   200003 471500                    LDP1    @P_PARAM,,AUTO
         2 000625   100006 473500                    LDP3    6,,PR1
PL6.E3A0      #001=CPX$CONTEXT4 File=CPX$CONTEXT4.:E05TSI                        TUE 07/29/97 12:07 Page:48
         2 000626   000017 236000 3                  LDQ     15
         2 000627   200022 756100                    STQ     @ERRCODE+3,,AUTO
         2 000630   200005 236100                    LDQ     PTR1$,,AUTO
         2 000631   000002 036003                    ADLQ    2,DU
         2 000632   200021 756100                    STQ     @ERRCODE+2,,AUTO
         2 000633   200020 453500                    STP3    @ERRCODE+1,,AUTO
         2 000634   200020 630500                    EPPR0   @ERRCODE+1,,AUTO
         2 000635   000021 631400 xsym               EPPR1   B_VECTNIL+17
         2 000636   000000 701000 xent               TSX1    CXP$POSTERR
         2 000637   000000 011000                    NOP     0
         2 000640   000676 710000 2                  TRA     s:7320

      278     7311    4                    ELSE
      279     7312    4                       TIME = TIME + CC_VALUE*60;

   7312  2 000641   200014 236100                    LDQ     CC_VALUE,,AUTO
         2 000642   000074 402007                    MPY     60,DL
         2 000643   200011 036100                    ADLQ    TIME,,AUTO
         2 000644   200011 756100                    STQ     TIME,,AUTO
         2 000645   000676 710000 2                  TRA     s:7320

      280     7313    4                  CASE(LIM_SECNDS);

      281     7314    4                    IF I ~= 0 AND CC_VALUE >59 OR CC_VALUE >343597383

   7314  2 000646   200010 235100                    LDA     I,,AUTO
         2 000647   000653 600000 2                  TZE     s:7314+5
         2 000650   200014 235100                    LDA     CC_VALUE,,AUTO
         2 000651   000073 115007                    CMPA    59,DL
         2 000652   000656 605400 2                  TPNZ    s:7316
         2 000653   200014 235100                    LDA     CC_VALUE,,AUTO
         2 000654   000020 115000 3                  CMPA    16
         2 000655   000673 604400 2                  TMOZ    s:7318

      282     7315    4                    THEN
      283     7316    4                       CALL CXP$POSTERR(U$PARAM.ERRBUF$,PTR1$->P$S.CPOS,E_XSECXCD);

PL6.E3A0      #001=CPX$CONTEXT4 File=CPX$CONTEXT4.:E05TSI                        TUE 07/29/97 12:07 Page:49
   7316  2 000656   200003 471500                    LDP1    @P_PARAM,,AUTO
         2 000657   100006 473500                    LDP3    6,,PR1
         2 000660   000021 236000 3                  LDQ     17
         2 000661   200022 756100                    STQ     @ERRCODE+3,,AUTO
         2 000662   200005 236100                    LDQ     PTR1$,,AUTO
         2 000663   000002 036003                    ADLQ    2,DU
         2 000664   200021 756100                    STQ     @ERRCODE+2,,AUTO
         2 000665   200020 453500                    STP3    @ERRCODE+1,,AUTO
         2 000666   200020 630500                    EPPR0   @ERRCODE+1,,AUTO
         2 000667   000021 631400 xsym               EPPR1   B_VECTNIL+17
         2 000670   000000 701000 xent               TSX1    CXP$POSTERR
         2 000671   000000 011000                    NOP     0
         2 000672   000676 710000 2                  TRA     s:7320

      284     7317    4                    ELSE
      285     7318    4                       TIME = TIME + CC_VALUE;

   7318  2 000673   200011 236100                    LDQ     TIME,,AUTO
         2 000674   200014 036100                    ADLQ    CC_VALUE,,AUTO
         2 000675   200011 756100                    STQ     TIME,,AUTO

      286     7319    4                 END;               /* End case                           */

      287     7320    3              END;

   7320  2 000676   200010 054100                    AOS     I,,AUTO
         2 000677   200004 470500                    LDP0    PTR$,,AUTO
         2 000700   000001 236100                    LDQ     1,,PR0
         2 000701   000022 772000                    QRL     18
         2 000702   200010 116100                    CMPQ    I,,AUTO
         2 000703   000536 605400 2                  TPNZ    s:7298

      288     7321    2              IF TIME*100>USER$->AS$USERS.MTIME(MODE)

   7321  2 000704   200012 236100                    LDQ     MODE,,AUTO
         2 000705   000040 772000                    QRL     32
         2 000706   200013 471500                    LDP1    USER$,,AUTO
PL6.E3A0      #001=CPX$CONTEXT4 File=CPX$CONTEXT4.:E05TSI                        TUE 07/29/97 12:07 Page:50
         2 000707   000000 620006                    EAX0    0,QL
         2 000710   200011 236100                    LDQ     TIME,,AUTO
         2 000711   000144 402007                    MPY     100,DL
         2 000712   000000 116003                    CMPQ    0,DU
         2 000713   001044 604000 2                  TMI     s:7352
         2 000714   100251 116110                    CMPQ    169,X0,PR1
         2 000715   001044 602000 2                  TNC     s:7352
         2 000716   001044 600000 2                  TZE     s:7352

      289     7322    2              THEN
      290     7323    2                 CALL POSTERR (E_XLMTXCD);

   7323  2 000717   000014 236000 3                  LDQ     12
         2 000720   200017 756100                    STQ     NEXT_CHAR+2,,AUTO
         2 000721   001052 701000 2                  TSX1    POSTERR
         2 000722   000000 011000                    NOP     0
         2 000723   001044 710000 2                  TRA     s:7352

      291     7324    2            CASE(LIM_LO);

      292     7325    2              IF CC_VALUE > USER$->AS$USERS.MLO(MODE)

   7325  2 000724   200012 236100                    LDQ     MODE,,AUTO
         2 000725   000040 772000                    QRL     32
         2 000726   200013 471500                    LDP1    USER$,,AUTO
         2 000727   100036 236106                    LDQ     30,QL,PR1
         2 000730   001044 604000 2                  TMI     s:7352
         2 000731   200014 116100                    CMPQ    CC_VALUE,,AUTO
         2 000732   001044 605000 2                  TPL     s:7352

      293     7326    2              THEN
      294     7327    2                 CALL POSTERR (E_XLMTXCD);

   7327  2 000733   000014 236000 3                  LDQ     12
         2 000734   200017 756100                    STQ     NEXT_CHAR+2,,AUTO
         2 000735   001052 701000 2                  TSX1    POSTERR
         2 000736   000000 011000                    NOP     0
PL6.E3A0      #001=CPX$CONTEXT4 File=CPX$CONTEXT4.:E05TSI                        TUE 07/29/97 12:07 Page:51
         2 000737   001044 710000 2                  TRA     s:7352

      295     7328    2            CASE(LIM_PO);

      296     7329    2              IF CC_VALUE > USER$->AS$USERS.MPO(MODE)

   7329  2 000740   200012 236100                    LDQ     MODE,,AUTO
         2 000741   000040 772000                    QRL     32
         2 000742   200013 471500                    LDP1    USER$,,AUTO
         2 000743   100056 236106                    LDQ     46,QL,PR1
         2 000744   001044 604000 2                  TMI     s:7352
         2 000745   200014 116100                    CMPQ    CC_VALUE,,AUTO
         2 000746   001044 605000 2                  TPL     s:7352

      297     7330    2              THEN
      298     7331    2                 CALL POSTERR (E_XLMTXCD);

   7331  2 000747   000014 236000 3                  LDQ     12
         2 000750   200017 756100                    STQ     NEXT_CHAR+2,,AUTO
         2 000751   001052 701000 2                  TSX1    POSTERR
         2 000752   000000 011000                    NOP     0
         2 000753   001044 710000 2                  TRA     s:7352

      299     7332    2            CASE(LIM_DO);

      300     7333    2              IF CC_VALUE > USER$->AS$USERS.MDO(MODE)

   7333  2 000754   200012 236100                    LDQ     MODE,,AUTO
         2 000755   000040 772000                    QRL     32
         2 000756   200013 471500                    LDP1    USER$,,AUTO
         2 000757   100046 236106                    LDQ     38,QL,PR1
         2 000760   001044 604000 2                  TMI     s:7352
         2 000761   200014 116100                    CMPQ    CC_VALUE,,AUTO
         2 000762   001044 605000 2                  TPL     s:7352

      301     7334    2              THEN
      302     7335    2                 CALL POSTERR (E_XLMTXCD);
PL6.E3A0      #001=CPX$CONTEXT4 File=CPX$CONTEXT4.:E05TSI                        TUE 07/29/97 12:07 Page:52

   7335  2 000763   000014 236000 3                  LDQ     12
         2 000764   200017 756100                    STQ     NEXT_CHAR+2,,AUTO
         2 000765   001052 701000 2                  TSX1    POSTERR
         2 000766   000000 011000                    NOP     0
         2 000767   001044 710000 2                  TRA     s:7352

      303     7336    2            CASE(LIM_TDIS);

      304     7337    2              IF CC_VALUE > USER$->AS$USERS.MTDIS(MODE)

   7337  2 000770   200012 236100                    LDQ     MODE,,AUTO
         2 000771   000040 772000                    QRL     32
         2 000772   200013 471500                    LDP1    USER$,,AUTO
         2 000773   100076 236106                    LDQ     62,QL,PR1
         2 000774   001044 604000 2                  TMI     s:7352
         2 000775   200014 116100                    CMPQ    CC_VALUE,,AUTO
         2 000776   001044 605000 2                  TPL     s:7352

      305     7338    2              THEN
      306     7339    2                 CALL POSTERR (E_XLMTXCD);

   7339  2 000777   000014 236000 3                  LDQ     12
         2 001000   200017 756100                    STQ     NEXT_CHAR+2,,AUTO
         2 001001   001052 701000 2                  TSX1    POSTERR
         2 001002   000000 011000                    NOP     0
         2 001003   001044 710000 2                  TRA     s:7352

      307     7340    2            CASE(LIM_PDIS);

      308     7341    2              IF CC_VALUE > USER$->AS$USERS.MPDIS(MODE)

   7341  2 001004   200012 236100                    LDQ     MODE,,AUTO
         2 001005   000040 772000                    QRL     32
         2 001006   200013 471500                    LDP1    USER$,,AUTO
         2 001007   100066 236106                    LDQ     54,QL,PR1
         2 001010   001044 604000 2                  TMI     s:7352
PL6.E3A0      #001=CPX$CONTEXT4 File=CPX$CONTEXT4.:E05TSI                        TUE 07/29/97 12:07 Page:53
         2 001011   200014 116100                    CMPQ    CC_VALUE,,AUTO
         2 001012   001044 605000 2                  TPL     s:7352

      309     7342    2              THEN
      310     7343    2                 CALL POSTERR (E_XLMTXCD);

   7343  2 001013   000014 236000 3                  LDQ     12
         2 001014   200017 756100                    STQ     NEXT_CHAR+2,,AUTO
         2 001015   001052 701000 2                  TSX1    POSTERR
         2 001016   000000 011000                    NOP     0
         2 001017   001044 710000 2                  TRA     s:7352

      311     7344    2            CASE(LIM_FPOOLS);

      312     7345    2              IF CC_VALUE > USER$->AS$USERS.MFPOOLS(MODE)

   7345  2 001020   200012 236100                    LDQ     MODE,,AUTO
         2 001021   000040 772000                    QRL     32
         2 001022   200013 471500                    LDP1    USER$,,AUTO
         2 001023   000100 101506                    MRL     fill='000'O
         2 001024   100106 000001                    ADSC9   70,Q,PR1                 cn=0,n=1
         2 001025   200020 000004                    ADSC9   @ERRCODE+1,,AUTO         cn=0,n=4
         2 001026   200020 236100                    LDQ     @ERRCODE+1,,AUTO
         2 001027   200014 116100                    CMPQ    CC_VALUE,,AUTO
         2 001030   001035 605000 2                  TPL     s:7348

      313     7346    2              THEN
      314     7347    2                 CALL POSTERR (E_XLMTXCD);

   7347  2 001031   000014 236000 3                  LDQ     12
         2 001032   200017 756100                    STQ     NEXT_CHAR+2,,AUTO
         2 001033   001052 701000 2                  TSX1    POSTERR
         2 001034   000000 011000                    NOP     0

      315     7348    2              IF CC_VALUE < 5

   7348  2 001035   200014 235100                    LDA     CC_VALUE,,AUTO
PL6.E3A0      #001=CPX$CONTEXT4 File=CPX$CONTEXT4.:E05TSI                        TUE 07/29/97 12:07 Page:54
         2 001036   000005 115007                    CMPA    5,DL
         2 001037   001044 605000 2                  TPL     s:7352

      316     7349    2              THEN
      317     7350    2                 CALL POSTERR (E_XFPOOLSMIN);

   7350  2 001040   000022 236000 3                  LDQ     18
         2 001041   200017 756100                    STQ     NEXT_CHAR+2,,AUTO
         2 001042   001052 701000 2                  TSX1    POSTERR
         2 001043   000000 011000                    NOP     0

      318     7351    2           END;

      319     7352    1           RETURN;

   7352  2 001044   000000 702200 xent               TSX2  ! X66_ARET

      320     7353    1   E_DECBIN:
      321     7354    1           CALL POSTERR (E_BDCVAL);

   7354  2 001045   000023 236000 3     E_DECBIN     LDQ     19
         2 001046   200017 756100                    STQ     NEXT_CHAR+2,,AUTO
         2 001047   001052 701000 2                  TSX1    POSTERR
         2 001050   000000 011000                    NOP     0

      322     7355    1           RETURN;

   7355  2 001051   000000 702200 xent               TSX2  ! X66_ARET

      323     7356        %EJECT;
PL6.E3A0      #001=CPX$CONTEXT4 File=CPX$CONTEXT4.:E05TSI                        TUE 07/29/97 12:07 Page:55
      324     7357    1   POSTERR:   PROC(ERRCODE);

   7357  2 001052   200016 741300       POSTERR      STX1  ! NEXT_CHAR+1,,AUTO

      325     7358    2   DCL ERRCODE BIT(36) ALIGNED;
      326     7359
      327     7360    2              CALL CXP$POSTERR (U$PARAM.ERRBUF$,P_PARAM.OUT$->P$S.CPOS,ERRCODE);

   7360  2 001053   200003 470500                    LDP0    @P_PARAM,,AUTO
         2 001054   000006 471500                    LDP1    6,,PR0
         2 001055   000002 473500                    LDP3    2,,PR0
         2 001056   200017 236100                    LDQ     @ERRCODE,,AUTO
         2 001057   200022 756100                    STQ     @ERRCODE+3,,AUTO
         2 001060   300002 634500                    EPPR4   2,,PR3
         2 001061   200021 454500                    STP4    @ERRCODE+2,,AUTO
         2 001062   200020 451500                    STP1    @ERRCODE+1,,AUTO
         2 001063   200020 630500                    EPPR0   @ERRCODE+1,,AUTO
         2 001064   000021 631400 xsym               EPPR1   B_VECTNIL+17
         2 001065   000000 701000 xent               TSX1    CXP$POSTERR
         2 001066   000000 011000                    NOP     0

      328     7361    2              RETURN;

   7361  2 001067   200016 221300                    LDX1  ! NEXT_CHAR+1,,AUTO
         2 001070   000001 702211                    TSX2  ! 1,X1
      329     7362    2      END POSTERR;
      330     7363    1   END CPX$CONTEXT4;

PL6.E3A0      #001=CPX$CONTEXT4 File=CPX$CONTEXT4.:E05TSI                        TUE 07/29/97 12:07 Page:56
--  Include file information  --

   JG_GHOSTS_C.:E05TOU  is referenced.
   XU_DATA_R.:E05TOU  cannot be made into a system file and is referenced.
   B$JIT.:E05TOU  cannot be made into a system file and is referenced.
   AS_SUPER_C.:E05TOU  is referenced.
   XU_SUBS_C.:E05TOU  is referenced.
   XU_MACRO_C.:E05TOU  is referenced.
   CP_SUBS_C.:E05TOU  is referenced.
   CP_MACROS_C.:E05TOU  is referenced.
   CP_PERR_C.:E05TOU  is referenced.
   CP_6.:E05TOU  cannot be made into a system file and is referenced.
   B$JIT_C.:E05TOU  was found in the system file and is referenced.
   CP_6_C.:E05TOU  was found in the system file and is referenced.
      No diagnostics issued in procedure CPX$CONTEXT4.
PL6.E3A0      #001=CPX$CONTEXT4 File=CPX$CONTEXT4.:E05TSI                        TUE 07/29/97 12:07 Page:57

 **** Variables and constants ****

  ****  Section 001 RoData CPX$CONTEXT4

  ****  Scalars and arrays  ****
OctLoc.c.b A Datatyp(siz) R M Lvl/name                 OctLoc.c.b A Datatyp(siz) R M Lvl/name

     0-0-0/w STRC        r     1 E_BDCVAL                   4-0-0/w STRC        r     1 E_JPBIGACCT
    12-0-0/w STRC        r     1 E_JPBIGDATE                7-0-0/w STRC        r     1 E_JPBIGJNAME
     2-0-0/w STRC        r     1 E_JPBIGPRIO                5-0-0/w STRC        r     1 E_JPBIGSTCC
    11-0-0/w STRC        r     1 E_JPBIGTIME                6-0-0/w STRC        r     1 E_JPBIGUNAME
    10-0-0/w STRC        r     1 E_JPBIGUPASS               3-0-0/w STRC        r     1 E_JPBIGWSN
    13-0-0/w STRC        r     1 E_JPILLSYSID              14-0-0/w STRC        r     1 E_XBIGLABEL
    23-0-0/w STRC        r     1 E_XFPOOLSMIN              20-0-0/w STRC        r     1 E_XHRXCD
    17-0-0/w STRC        r     1 E_XLMTXCD                 21-0-0/w STRC        r     1 E_XMINXCD
    22-0-0/w STRC        r     1 E_XSECXCD

  ****  Auto variables  ****

  ****  Scalars and arrays  ****
OctLoc.c.b A Datatyp(siz) R M Lvl/name                 OctLoc.c.b A Datatyp(siz) R M Lvl/name

    17-0-0/w PTR         r     1 @ERRCODE                   3-0-0/w PTR         r     1 @P_PARAM
    14-0-0/w SBIN        r     1 CC_VALUE                  *0-0-0/w BIT         r     1 ERRCODE
    10-0-0/w SBIN        r     1 I                         12-0-0/b UBIN(4)     r     1 MODE
    15-0-0/c CHAR        r     1 NEXT_CHAR                  4-0-0/w PTR         r     1 PTR$
     5-0-0/w PTR         r     1 PTR1$                     *0-0-0/w STRC(270)   r     1 P_PARAM
    11-0-0/w SBIN        r     1 TIME                      13-0-0/w PTR         r     1 USER$
     6-0-0/w SBIN        r     1 VALUE

  ****  SYMREF variables  ****

  ****  Scalars and arrays  ****
OctLoc.c.b A Datatyp(siz) R M Lvl/name                 OctLoc.c.b A Datatyp(siz) R M Lvl/name

     0-0-0/w PTR         r     1 B$JIT$                     0-0-0/b STRC        r     1 SYMTTBL(0:127)
     0-0-0/b BIT         r     1 XUP_SYMTBL(0:127)
PL6.E3A0      #001=CPX$CONTEXT4 File=CPX$CONTEXT4.:E05TSI                        TUE 07/29/97 12:07 Page:58

  ****  BASED and DCB variables  ****

  ****  Scalars and arrays  ****
OctLoc.c.b A Datatyp(siz) R M Lvl/name                 OctLoc.c.b A Datatyp(siz) R M Lvl/name

     0-0-0/w STRC(18576) r     1 AS$USERS                   0-0-0/d STRC(8856)  r     1 B$JIT
     0-0-0/c CHAR        r     1 CHAR$ARRAY(0:0)
     0-0-0/c ACHR        r     1 CHARS                      0-0-0/w STRC(144)   r     1 P$B
     0-0-0/w STRC(504)   r     1 P$PCB                      0-0-0/w ASTR(153)   r     1 P$S
     0-0-0/w STRC(576)   r     1 U$PARAM


   Procedure CPX$CONTEXT4 requires 569 words for executable code.
   Procedure CPX$CONTEXT4 requires 20 words of local(AUTO) storage.

    No errors detected in file CPX$CONTEXT4.:E05TSI    .
PL6.E3A0      #001=CPX$CONTEXT4 File=CPX$CONTEXT4.:E05TSI                        TUE 07/29/97 12:07 Page:59
          *** CROSS REFERENCE LISTING ***
**     DENOTES     IDENTIFIER DEFINITION
<<                 IDENTIFIER'S VALUE SET
>>                 IDENTIFIER'S VALUE USED
<>                 IDENTIFIER SET AND/OR USED
--                 IDENTIFIER REFERENCED
PL6.E3A0      #001=CPX$CONTEXT4 File=CPX$CONTEXT4.:E05TSI                        TUE 07/29/97 12:07 Page:60
          MINI XREF LISTING

AS$USERS.BANNER_PERM
      6435**DCL      6436--REDEF
AS$USERS.BUDGET.MACCT
      6340**DCL      6344--REDEF
AS$USERS.BUDGET.MAX_PROJECTS
      6353**DCL      6356--REDEF
AS$USERS.BUDGET.PACCUM
      6336**DCL      6338--REDEF
AS$USERS.BUDGET.PMAXC
      6331**DCL      6333--REDEF
AS$USERS.MDO
      6371**DCL      7333>>IF
AS$USERS.MFPOOLS
      6379**DCL      7345>>IF
AS$USERS.MLO
      6369**DCL      7325>>IF
AS$USERS.MMEM
      6419**DCL      7292>>IF
AS$USERS.MPDIS
      6375**DCL      7341>>IF
AS$USERS.MPO
      6373**DCL      7329>>IF
AS$USERS.MTDIS
      6377**DCL      7337>>IF
AS$USERS.MTIME
      6416**DCL      7321>>IF
AS$USERS.SETUP_CHRA.TXT
      6451**DCL      6452--REDEF    6453--REDEF
B$JIT.CPFLAGS1.SLEAZE
      5843**DCL      5843--REDEF
B$JIT.ERR.MID
      5750**DCL      5750--REDEF
PL6.E3A0      #001=CPX$CONTEXT4 File=CPX$CONTEXT4.:E05TSI                        TUE 07/29/97 12:07 Page:61
B$JIT.JRESPEAK
      5911**DCL      5912--REDEF
B$JIT.MODE
      5744**DCL      7280>>ASSIGN
B$JIT.ORIGINATOR_PORT.FROM_CR
      6020**DCL      6020--REDEF    6021--REDEF
B$JIT.PNR
      5924**DCL      5924--REDEF
B$JIT.TSLINE
      6018**DCL      6019--REDEF
B$JIT$
      6693**DCL      5744--IMP-PTR  7280>>ASSIGN
CC_VALUE
      6698**DCL      7289<>CALL     7292>>IF       7299<>CALL     7302>>IF       7306>>ASSIGN   7308>>IF
      7308>>IF       7312>>ASSIGN   7314>>IF       7314>>IF       7318>>ASSIGN   7325>>IF       7329>>IF
      7333>>IF       7337>>IF       7341>>IF       7345>>IF       7348>>IF
CHAR$ARRAY
      6700**DCL      7238>>ASSIGN   7263>>ASSIGN
CHARS
      6701**DCL      7212<<ASSIGN
CXP$POSTERR
      6685**DCL-ENT  7304--CALL     7310--CALL     7316--CALL     7360--CALL
CXX$DECBIN
      6686**DCL-ENT  7180--CALL     7289--CALL     7299--CALL
ERRCODE IN PROCEDURE POSTERR
      7358**DCL      7357--PROC     7360<>CALL
E_BDCVAL
      6717**DCL      7354<>CALL
E_DECBIN
      7354**LABEL    7180--CALLALT  7289--CALLALT  7299--CALLALT
E_JPBIGACCT
      6803**DCL      7193<>CALL
E_JPBIGDATE
      6941**DCL      7225<>CALL     7229<>CALL     7233<>CALL
E_JPBIGJNAME
      6872**DCL      7205<>CALL
PL6.E3A0      #001=CPX$CONTEXT4 File=CPX$CONTEXT4.:E05TSI                        TUE 07/29/97 12:07 Page:62
E_JPBIGPRIO
      6757**DCL      7185<>CALL
E_JPBIGSTCC
      6826**DCL      7197<>CALL
E_JPBIGTIME
      6918**DCL      7217<>CALL     7221<>CALL
E_JPBIGUNAME
      6849**DCL      7201<>CALL
E_JPBIGUPASS
      6895**DCL      7209<>CALL
E_JPBIGWSN
      6780**DCL      7189<>CALL
E_JPILLSYSID
      6964**DCL      7250<>CALL
E_XBIGLABEL
      6987**DCL      7168<>CALL
E_XFPOOLSMIN
      7154**DCL      7350<>CALL
E_XHRXCD
      7080**DCL      7304<>CALL
E_XLMTXCD
      7056**DCL      7294<>CALL     7323<>CALL     7327<>CALL     7331<>CALL     7335<>CALL     7339<>CALL
      7343<>CALL     7347<>CALL
E_XMINXCD
      7104**DCL      7310<>CALL
E_XSECXCD
      7129**DCL      7316<>CALL
I
      6694**DCL      6701--IMP-SIZ  7212>>ASSIGN   7297<<DOINDEX  7298>>ASSIGN   7308>>IF       7314>>IF
MODE
      6696**DCL      7280<<ASSIGN   7282<<ASSIGN   7292>>IF       7321>>IF       7325>>IF       7329>>IF
      7333>>IF       7337>>IF       7341>>IF       7345>>IF
NEXT_CHAR
      6699**DCL      7238<<ASSIGN   7240>>IF       7263<<ASSIGN   7264>>IF
P$B.CODE
      6260**DCL      7181>>DOCASE   7259>>DOCASE
PL6.E3A0      #001=CPX$CONTEXT4 File=CPX$CONTEXT4.:E05TSI                        TUE 07/29/97 12:07 Page:63
P$B.CPOS
      6278**DCL      7244>>ASSIGN   7269>>ASSIGN
P$B.NDTYPE
      6255**DCL      7178>>IF
P$B.NSUBLKS
      6264**DCL      7297>>DOINDEX
P$B.SUBLK$
      6285**DCL      7298>>ASSIGN
P$PCB.CONTINUE
      6544**DCL      7257<<ASSIGN
P$PCB.NCHARS
      6650**DCL      7235>>IF       7264>>IF
P$PCB.TEXT$
      6504**DCL      7212>>ASSIGN   7238>>ASSIGN   7263>>ASSIGN
P$S.CODE
      6221**DCL      7287>>IF       7290>>DOCASE   7300>>DOCASE
P$S.COUNT
      6238**DCL      6241--IMP-SIZ  7166>>IF       7180<>CALL     7187>>IF       7191>>IF       7199>>IF
      7203>>IF       7207>>IF       7212>>ASSIGN   7289<>CALL     7299<>CALL
P$S.CPOS
      6230**DCL      7212>>ASSIGN   7304<>CALL     7310<>CALL     7316<>CALL     7360<>CALL
P$S.NDTYPE
      6218**DCL      7288>>IF
POSTERR
      7357**PROC     7168--CALL     7185--CALL     7189--CALL     7193--CALL     7197--CALL     7201--CALL
      7205--CALL     7209--CALL     7217--CALL     7221--CALL     7225--CALL     7229--CALL     7233--CALL
      7250--CALL     7294--CALL     7323--CALL     7327--CALL     7331--CALL     7335--CALL     7339--CALL
      7343--CALL     7347--CALL     7350--CALL     7354--CALL
PTR$
      6689**DCL      7285<<ASSIGN   7287>>IF       7288>>IF       7289>>CALL     7290>>DOCASE   7297>>DOINDEX
      7298>>ASSIGN
PTR1$
      6690**DCL      7298<<ASSIGN   7299>>CALL     7300>>DOCASE   7304>>CALL     7310>>CALL     7316>>CALL
P_PARAM
      6146**DCL        11--PROC     7165--ENTRY    7171--ENTRY    7174--ENTRY    7177--ENTRY    7254--ENTRY
      7274--ENTRY
PL6.E3A0      #001=CPX$CONTEXT4 File=CPX$CONTEXT4.:E05TSI                        TUE 07/29/97 12:07 Page:64
P_PARAM.CHARPOS
      6184**DCL      7235>>IF       7238>>ASSIGN   7244<<ASSIGN   7263>>ASSIGN   7264>>IF       7269<<ASSIGN
P_PARAM.OUT$
      6176**DCL      7166>>IF       7178>>IF       7180>>CALL     7181>>DOCASE   7187>>IF       7191>>IF
      7199>>IF       7203>>IF       7207>>IF       7212>>ASSIGN   7212>>ASSIGN   7244>>ASSIGN   7259>>DOCASE
      7269>>ASSIGN   7285>>ASSIGN   7360>>CALL
P_PARAM.PCB$
      6190**DCL      7212>>ASSIGN   7235>>IF       7238>>ASSIGN   7257>>ASSIGN   7263>>ASSIGN   7264>>IF
P_PARAM.REJECT
      6158**DCL      7243<<ASSIGN   7268<<ASSIGN
P_PARAM.TYPE
      6147**DCL      7255>>IF
P_PARAM.USER$
      6194**DCL      6292--IMP-PTR  7210>>IF       7278>>DOCASE   7286>>ASSIGN   7304>>CALL     7310>>CALL
      7316>>CALL     7360>>CALL
SYMTTBL.JOBNAME
      6034**DCL      7240>>IF
SYMTTBL.SYM
      6033**DCL      7264>>IF
TIME
      6695**DCL      7296<<ASSIGN   7306<<ASSIGN   7312<<ASSIGN   7312>>ASSIGN   7318<<ASSIGN   7318>>ASSIGN
      7321>>IF
U$PARAM.ERRBUF$
      6293**DCL      7304<>CALL     7310<>CALL     7316<>CALL     7360<>CALL
U$PARAM.MODE
      6299**DCL      7210>>IF       7278>>DOCASE
U$PARAM.USERS$
      6294**DCL      7286>>ASSIGN
USER$
      6697**DCL      7286<<ASSIGN   7292>>IF       7321>>IF       7325>>IF       7329>>IF       7333>>IF
      7337>>IF       7341>>IF       7345>>IF
VALUE
      6691**DCL      7180<>CALL     7183>>IF       7195>>IF       7215>>IF       7219>>IF       7223>>IF
      7227>>IF       7231>>IF       7245<<ASSIGN   7248>>IF
XUP_SYMTBL
      6033**DCL      6033--REDEF
