VERSION E05

PL6.E3A0      #001=CPX$CONTEXT6 File=CPX$CONTEXT6.:E05TSI                        TUE 07/29/97 12:08 Page:1
        1        1        /*M*    CPX$CONTEXT6    subroutine which checks for context errors for IBEX   */
        2        2        /*T***********************************************************/
        3        3        /*T*                                                         */
        4        4        /*T* Copyright (c) Bull HN Information Systems Inc., 1997    */
        5        5        /*T*                                                         */
        6        6        /*T***********************************************************/
        7        7        /*X*    AND,DMC,IPC,IND=3,CTI=6,ECU=3,DCI=3,DTI=3                             */
        8        8        /*P*    NAME: CPX$CONTEXT6
        9        9                PURPOSE: To check for context errors for IBEX                         */
       10       10        /******************************************************************************/
       11       11        CPX$CONTEXT6:
       12       12                PROC (P_PARAM);
       13       13        /***** include files *****/
       14       14          %INCLUDE CP_6;
       15       95          %INCLUDE CP_MACROS_C;
       16      847          %INCLUDE CP_SUBS_C;
       17     1764          %INCLUDE CP_PERR_C;
       18     2102          %INCLUDE XU_MACRO_C;
       19     5208          %INCLUDE XU_SUBS_C;
       20     5300          %INCLUDE B$JIT;
       21     5590        /***** fpts *****/
       22     5591          %PARSE$PARAM (NAME=P_PARAM);
       23     5672          %PARSE$SYM (NAME=P$S,STCLASS=BASED);
       24     5710          %PARSE$OUT (NAME=P$B,STCLASS=BASED);
       25     5755          %U$PARAM (NAME=U$PARAM,STCLASS="BASED(P_PARAM.USER$)");
       26     5771          %VLR_FID (FPTN=FID_RESULTS,STCLASS=AUTO);
       27     5790        /***** external routines *****/
       28     5791    1   DCL B$JIT$ PTR SYMREF;
       29     5792    1   DCL CXP$POSTERR ENTRY(5);
       30     5793    1   DCL CXX$DECBIN ENTRY(2) ALTRET;
       31     5794    1   DCL CPX$OCTBIN ENTRY(2) ALTRET;
       32     5795    1   DCL CPX$FID ENTRY(2) ALTRET;
       33     5796        /***** declarations *****/
       34     5797    1   DCL PTR$ PTR AUTO;
       35     5798    1   DCL PTR1$ PTR AUTO;
       36     5799    1   DCL VALUE SBIN WORD AUTO;
       37     5800    1   DCL INDX UBIN WORD AUTO;
PL6.E3A0      #001=CPX$CONTEXT6 File=CPX$CONTEXT6.:E05TSI                        TUE 07/29/97 12:08 Page:2
       38     5801        %EJECT;
PL6.E3A0      #001=CPX$CONTEXT6 File=CPX$CONTEXT6.:E05TSI                        TUE 07/29/97 12:08 Page:3
       39     5802        /***** error msgs *****/
       40     5803        %ERR_CODE (NAME=E_BDCVAL,MID#=CPX$IBEXMID,CODE#=E$BDCVAL,STCLASS=CONSTANT);
       41     5823        %ERR_CODE (NAME=E_BOCVAL,MID#=CPX$IBEXMID,CODE#=E$BOCVAL,STCLASS=CONSTANT);
       42     5843        %ERR_CODE (NAME=E_XPRIVXCD,MID#=CPX$IBEXMID,CODE#=E$XPRIVXCD,STCLASS=CONSTANT);
       43     5863        /*E*    ERROR: CPX-E$XPRIVXCD-0
       44     5864                MESSAGE: Priority exceeds user maximum
       45     5865                MESSAGE1: Priority exceeds the maximum authorized in :users record
       46     5866        */
       47     5867        %EJECT;
PL6.E3A0      #001=CPX$CONTEXT6 File=CPX$CONTEXT6.:E05TSI                        TUE 07/29/97 12:08 Page:4
       48     5868    1   CPX$PRIORITY: ENTRY (P_PARAM);
       49     5869        /*
       50     5870          ****    PRIORITY SPEC'D CANNOT EXCEED MAX. PRIORITY IN THE JIT
       51     5871        */
       52     5872    1           PTR$ = P_PARAM.OUT$;
       53     5873    1           CALL CXX$DECBIN(PTR$->P$S.COUNT,VALUE) ALTRET(E_DECBIN);
       54     5874    1           IF VALUE > B$JIT.MAXPRI THEN
       55     5875    1              CALL CXP$POSTERR (U$PARAM.ERRBUF$,PTR$->P$S.CPOS,E_XPRIVXCD);
       56     5876    1           RETURN;
       57     5877                  %EJECT;
PL6.E3A0      #001=CPX$CONTEXT6 File=CPX$CONTEXT6.:E05TSI                        TUE 07/29/97 12:08 Page:5
       58     5878    1   CPX$PRIV: ENTRY (P_PARAM);
       59     5879    1   CPX$PROFILE: ENTRY (P_PARAM);
       60     5880    1   CPX$PROTECT: ENTRY (P_PARAM);
       61     5881    1   CPX$QUIT: ENTRY (P_PARAM);
       62     5882    1   CPX$RELEASE: ENTRY (P_PARAM);
       63     5883    1   CPX$EXPOUND: ENTRY (P_PARAM);
       64     5884    1   CPX$POINT: ENTRY (P_PARAM);
       65     5885    1   CPX$POSITION: ENTRY (P_PARAM);
       66     5886    1           RETURN;
       67     5887    1   E_DECBIN:
       68     5888    1           CALL CXP$POSTERR (U$PARAM.ERRBUF$,PTR$->P$S.CPOS,E_BDCVAL);
       69     5889    1           RETURN;
       70     5890    1   END CPX$CONTEXT6;

PL6.E3A0      #001=CPX$CONTEXT6 File=CPX$CONTEXT6.:E05TSI                        TUE 07/29/97 12:08 Page:6
--  Include file information  --

   B$JIT.:E05TOU  cannot be made into a system file and is referenced.
   XU_SUBS_C.:E05TOU  is referenced.
   XU_MACRO_C.:E05TOU  is referenced.
   CP_PERR_C.:E05TOU  is referenced.
   CP_SUBS_C.:E05TOU  is referenced.
   CP_MACROS_C.:E05TOU  is referenced.
   CP_6.:E05TOU  cannot be made into a system file and is referenced.
   B$JIT_C.:E05TOU  was found in the system file and is referenced.
   CP_6_C.:E05TOU  was found in the system file and is referenced.
      No diagnostics issued in procedure CPX$CONTEXT6.

   Procedure CPX$CONTEXT6 requires 72 words for executable code.
   Procedure CPX$CONTEXT6 requires 22 words of local(AUTO) storage.

    No errors detected in file CPX$CONTEXT6.:E05TSI    .

PL6.E3A0      #001=CPX$CONTEXT6 File=CPX$CONTEXT6.:E05TSI                        TUE 07/29/97 12:08 Page:7

 Object Unit name= CPX$CONTEXT6                               File name= CPX$CONTEXT6.:E05TOU
 UTS= JUL 29 '97 12:08:54.12 TUE                              Compiler= PL-6/E31         Sev=      00
 SharedLib= :SHARED_SYSTEM                                    Alt SharedLib=


    ****  Control sections  ****

 Sect   Type Bound  Init  Size OctSiz  Section name(segment info)
    0   DCB   even  none     0      0  M$UC
    1  RoData even  UTS      3      3  CPX$CONTEXT6
    2   Proc  even  none    72    110  CPX$CONTEXT6
    3  RoData even  none     2      2  CPX$CONTEXT6

    ****  Entry defs  ****

                              Check   Calling
                             calling  sequence
  Sect OctLoc Primary Altret sequence   type   Parms  Name
     2      0   yes            yes      Std        1  CPX$CONTEXT6
     2      3                  yes      Std        1  CPX$PRIORITY
     2     43                  yes      Std        1  CPX$PRIV
     2     46                  yes      Std        1  CPX$PROFILE
     2     51                  yes      Std        1  CPX$PROTECT
     2     54                  yes      Std        1  CPX$QUIT
     2     57                  yes      Std        1  CPX$RELEASE
     2     62                  yes      Std        1  CPX$EXPOUND
     2     65                  yes      Std        1  CPX$POINT
     2     70                  yes      Std        1  CPX$POSITION
PL6.E3A0      #001=CPX$CONTEXT6 File=CPX$CONTEXT6.:E05TSI                        TUE 07/29/97 12:08 Page:8

  ****  Entry refs  ****

         Check        Calling
        calling       sequence
Altret sequence SRef   type   Args  Name
 yes     yes           Std       2 CXX$DECBIN
         yes           Std       5 CXP$POSTERR
                       nStd      0 X66_AUTO_1
                       Std       0 B_CONSPOOL_D
                       nStd      0 X66_ARET

  ****  Data refs  ****

  Flags:  r = read only, s = secondary
Flgs Name                             Flgs Name                             Flgs Name
     M$UC                                  B$JIT$                                B_VECTNIL

  ****  Segment refs  ****

  Flags:  r = read only, s = secondary
Flgs Name                             Flgs Name                             Flgs Name
     ISSID
PL6.E3A0      #001=CPX$CONTEXT6 File=CPX$CONTEXT6.:E05TSI                        TUE 07/29/97 12:08 Page:9


        1        1        /*M*    CPX$CONTEXT6    subroutine which checks for context errors for IBEX   */
        2        2        /*T***********************************************************/
        3        3        /*T*                                                         */
        4        4        /*T* Copyright (c) Bull HN Information Systems Inc., 1997    */
        5        5        /*T*                                                         */
        6        6        /*T***********************************************************/
        7        7        /*X*    AND,DMC,IPC,IND=3,CTI=6,ECU=3,DCI=3,DTI=3                             */
        8        8        /*P*    NAME: CPX$CONTEXT6
        9        9                PURPOSE: To check for context errors for IBEX                         */
       10       10        /******************************************************************************/
       11       11        CPX$CONTEXT6:
       12       12                PROC (P_PARAM);

     12  2 000000   000000 700200 xent  CPX$CONTEXT6 TSX0  ! X66_AUTO_1
         2 000001   000026 000001                    ZERO    22,1
         2 000002   000005 710000 2                  TRA     s:5872

       13       13        /***** include files *****/
       14       14          %INCLUDE CP_6;
       15       95          %INCLUDE CP_MACROS_C;
       16      847          %INCLUDE CP_SUBS_C;
       17     1764          %INCLUDE CP_PERR_C;
       18     2102          %INCLUDE XU_MACRO_C;
       19     5208          %INCLUDE XU_SUBS_C;
       20     5300          %INCLUDE B$JIT;
       21     5590        /***** fpts *****/
       22     5591          %PARSE$PARAM (NAME=P_PARAM);
       23     5672          %PARSE$SYM (NAME=P$S,STCLASS=BASED);
       24     5710          %PARSE$OUT (NAME=P$B,STCLASS=BASED);
       25     5755          %U$PARAM (NAME=U$PARAM,STCLASS="BASED(P_PARAM.USER$)");
       26     5771          %VLR_FID (FPTN=FID_RESULTS,STCLASS=AUTO);
       27     5790        /***** external routines *****/
       28     5791    1   DCL B$JIT$ PTR SYMREF;
       29     5792    1   DCL CXP$POSTERR ENTRY(5);
       30     5793    1   DCL CXX$DECBIN ENTRY(2) ALTRET;
       31     5794    1   DCL CPX$OCTBIN ENTRY(2) ALTRET;
PL6.E3A0      #001=CPX$CONTEXT6 File=CPX$CONTEXT6.:E05TSI                        TUE 07/29/97 12:08 Page:10
       32     5795    1   DCL CPX$FID ENTRY(2) ALTRET;
       33     5796        /***** declarations *****/
       34     5797    1   DCL PTR$ PTR AUTO;
       35     5798    1   DCL PTR1$ PTR AUTO;
       36     5799    1   DCL VALUE SBIN WORD AUTO;
       37     5800    1   DCL INDX UBIN WORD AUTO;
       38     5801        %EJECT;
PL6.E3A0      #001=CPX$CONTEXT6 File=CPX$CONTEXT6.:E05TSI                        TUE 07/29/97 12:08 Page:11
       39     5802        /***** error msgs *****/
       40     5803        %ERR_CODE (NAME=E_BDCVAL,MID#=CPX$IBEXMID,CODE#=E$BDCVAL,STCLASS=CONSTANT);
       41     5823        %ERR_CODE (NAME=E_BOCVAL,MID#=CPX$IBEXMID,CODE#=E$BOCVAL,STCLASS=CONSTANT);
       42     5843        %ERR_CODE (NAME=E_XPRIVXCD,MID#=CPX$IBEXMID,CODE#=E$XPRIVXCD,STCLASS=CONSTANT);
       43     5863        /*E*    ERROR: CPX-E$XPRIVXCD-0
       44     5864                MESSAGE: Priority exceeds user maximum
       45     5865                MESSAGE1: Priority exceeds the maximum authorized in :users record
       46     5866        */
       47     5867        %EJECT;
PL6.E3A0      #001=CPX$CONTEXT6 File=CPX$CONTEXT6.:E05TSI                        TUE 07/29/97 12:08 Page:12
       48     5868    1   CPX$PRIORITY: ENTRY (P_PARAM);

   5868  2 000003   000000 700200 xent  CPX$PRIORITY TSX0  ! X66_AUTO_1
         2 000004   000026 000001                    ZERO    22,1

       49     5869        /*
       50     5870          ****    PRIORITY SPEC'D CANNOT EXCEED MAX. PRIORITY IN THE JIT
       51     5871        */
       52     5872    1           PTR$ = P_PARAM.OUT$;

   5872  2 000005   200003 470500                    LDP0    @P_PARAM,,AUTO
         2 000006   000002 236100                    LDQ     2,,PR0
         2 000007   200016 756100                    STQ     PTR$,,AUTO

       53     5873    1           CALL CXX$DECBIN(PTR$->P$S.COUNT,VALUE) ALTRET(E_DECBIN);

   5873  2 000010   200020 631500                    EPPR1   VALUE,,AUTO
         2 000011   200023 451500                    STP1    VALUE+3,,AUTO
         2 000012   000004 036003                    ADLQ    4,DU
         2 000013   200022 756100                    STQ     VALUE+2,,AUTO
         2 000014   200022 630500                    EPPR0   VALUE+2,,AUTO
         2 000015   000020 631400 xsym               EPPR1   B_VECTNIL+16
         2 000016   000000 701000 xent               TSX1    CXX$DECBIN
         2 000017   000073 702000 2                  TSX2    E_DECBIN

       54     5874    1           IF VALUE > B$JIT.MAXPRI THEN

   5874  2 000020   000000 470400 xsym               LDP0    B$JIT$
         2 000021   000153 236100                    LDQ     107,,PR0
         2 000022   000022 772000                    QRL     18
         2 000023   000777 376007                    ANQ     511,DL
         2 000024   200020 116100                    CMPQ    VALUE,,AUTO
         2 000025   000042 605000 2                  TPL     s:5876

       55     5875    1              CALL CXP$POSTERR (U$PARAM.ERRBUF$,PTR$->P$S.CPOS,E_XPRIVXCD);

   5875  2 000026   200003 471500                    LDP1    @P_PARAM,,AUTO
PL6.E3A0      #001=CPX$CONTEXT6 File=CPX$CONTEXT6.:E05TSI                        TUE 07/29/97 12:08 Page:13
         2 000027   100006 473500                    LDP3    6,,PR1
         2 000030   000000 236000 3                  LDQ     0
         2 000031   200024 756100                    STQ     VALUE+4,,AUTO
         2 000032   200016 236100                    LDQ     PTR$,,AUTO
         2 000033   000002 036003                    ADLQ    2,DU
         2 000034   200023 756100                    STQ     VALUE+3,,AUTO
         2 000035   200022 453500                    STP3    VALUE+2,,AUTO
         2 000036   200022 630500                    EPPR0   VALUE+2,,AUTO
         2 000037   000021 631400 xsym               EPPR1   B_VECTNIL+17
         2 000040   000000 701000 xent               TSX1    CXP$POSTERR
         2 000041   000000 011000                    NOP     0

       56     5876    1           RETURN;

   5876  2 000042   000000 702200 xent               TSX2  ! X66_ARET

       57     5877                  %EJECT;
PL6.E3A0      #001=CPX$CONTEXT6 File=CPX$CONTEXT6.:E05TSI                        TUE 07/29/97 12:08 Page:14
       58     5878    1   CPX$PRIV: ENTRY (P_PARAM);

   5878  2 000043   000000 700200 xent  CPX$PRIV     TSX0  ! X66_AUTO_1
         2 000044   000026 000001                    ZERO    22,1
         2 000045   000050 710000 2                  TRA     s:5879+2

       59     5879    1   CPX$PROFILE: ENTRY (P_PARAM);

   5879  2 000046   000000 700200 xent  CPX$PROFILE  TSX0  ! X66_AUTO_1
         2 000047   000026 000001                    ZERO    22,1
         2 000050   000053 710000 2                  TRA     s:5880+2

       60     5880    1   CPX$PROTECT: ENTRY (P_PARAM);

   5880  2 000051   000000 700200 xent  CPX$PROTECT  TSX0  ! X66_AUTO_1
         2 000052   000026 000001                    ZERO    22,1
         2 000053   000056 710000 2                  TRA     s:5881+2

       61     5881    1   CPX$QUIT: ENTRY (P_PARAM);

   5881  2 000054   000000 700200 xent  CPX$QUIT     TSX0  ! X66_AUTO_1
         2 000055   000026 000001                    ZERO    22,1
         2 000056   000061 710000 2                  TRA     s:5882+2

       62     5882    1   CPX$RELEASE: ENTRY (P_PARAM);

   5882  2 000057   000000 700200 xent  CPX$RELEASE  TSX0  ! X66_AUTO_1
         2 000060   000026 000001                    ZERO    22,1
         2 000061   000064 710000 2                  TRA     s:5883+2

       63     5883    1   CPX$EXPOUND: ENTRY (P_PARAM);

   5883  2 000062   000000 700200 xent  CPX$EXPOUND  TSX0  ! X66_AUTO_1
         2 000063   000026 000001                    ZERO    22,1
         2 000064   000067 710000 2                  TRA     s:5884+2

       64     5884    1   CPX$POINT: ENTRY (P_PARAM);
PL6.E3A0      #001=CPX$CONTEXT6 File=CPX$CONTEXT6.:E05TSI                        TUE 07/29/97 12:08 Page:15

   5884  2 000065   000000 700200 xent  CPX$POINT    TSX0  ! X66_AUTO_1
         2 000066   000026 000001                    ZERO    22,1
         2 000067   000072 710000 2                  TRA     s:5886

       65     5885    1   CPX$POSITION: ENTRY (P_PARAM);

   5885  2 000070   000000 700200 xent  CPX$POSITION TSX0  ! X66_AUTO_1
         2 000071   000026 000001                    ZERO    22,1

       66     5886    1           RETURN;

   5886  2 000072   000000 702200 xent               TSX2  ! X66_ARET

       67     5887    1   E_DECBIN:
       68     5888    1           CALL CXP$POSTERR (U$PARAM.ERRBUF$,PTR$->P$S.CPOS,E_BDCVAL);

   5888  2 000073   200003 470500       E_DECBIN     LDP0    @P_PARAM,,AUTO
         2 000074   000006 471500                    LDP1    6,,PR0
         2 000075   000001 236000 3                  LDQ     1
         2 000076   200024 756100                    STQ     VALUE+4,,AUTO
         2 000077   200016 236100                    LDQ     PTR$,,AUTO
         2 000100   000002 036003                    ADLQ    2,DU
         2 000101   200023 756100                    STQ     VALUE+3,,AUTO
         2 000102   200022 451500                    STP1    VALUE+2,,AUTO
         2 000103   200022 630500                    EPPR0   VALUE+2,,AUTO
         2 000104   000021 631400 xsym               EPPR1   B_VECTNIL+17
         2 000105   000000 701000 xent               TSX1    CXP$POSTERR
         2 000106   000000 011000                    NOP     0

       69     5889    1           RETURN;

   5889  2 000107   000000 702200 xent               TSX2  ! X66_ARET
       70     5890    1   END CPX$CONTEXT6;

PL6.E3A0      #001=CPX$CONTEXT6 File=CPX$CONTEXT6.:E05TSI                        TUE 07/29/97 12:08 Page:16
--  Include file information  --

   B$JIT.:E05TOU  cannot be made into a system file and is referenced.
   XU_SUBS_C.:E05TOU  is referenced.
   XU_MACRO_C.:E05TOU  is referenced.
   CP_PERR_C.:E05TOU  is referenced.
   CP_SUBS_C.:E05TOU  is referenced.
   CP_MACROS_C.:E05TOU  is referenced.
   CP_6.:E05TOU  cannot be made into a system file and is referenced.
   B$JIT_C.:E05TOU  was found in the system file and is referenced.
   CP_6_C.:E05TOU  was found in the system file and is referenced.
      No diagnostics issued in procedure CPX$CONTEXT6.
PL6.E3A0      #001=CPX$CONTEXT6 File=CPX$CONTEXT6.:E05TSI                        TUE 07/29/97 12:08 Page:17

 **** Variables and constants ****

  ****  Section 001 RoData CPX$CONTEXT6

  ****  Scalars and arrays  ****
OctLoc.c.b A Datatyp(siz) R M Lvl/name                 OctLoc.c.b A Datatyp(siz) R M Lvl/name

     0-0-0/w STRC        r     1 E_BDCVAL                   2-0-0/w STRC        r     1 E_XPRIVXCD

  ****  Auto variables  ****

  ****  Scalars and arrays  ****
OctLoc.c.b A Datatyp(siz) R M Lvl/name                 OctLoc.c.b A Datatyp(siz) R M Lvl/name

     3-0-0/w PTR         r     1 @P_PARAM                  16-0-0/w PTR         r     1 PTR$
    *0-0-0/w STRC(270)   r     1 P_PARAM                   20-0-0/w SBIN        r     1 VALUE

  ****  SYMREF variables  ****

  ****  Scalars and arrays  ****
OctLoc.c.b A Datatyp(siz) R M Lvl/name                 OctLoc.c.b A Datatyp(siz) R M Lvl/name

     0-0-0/w PTR         r     1 B$JIT$

  ****  BASED and DCB variables  ****

  ****  Scalars and arrays  ****
OctLoc.c.b A Datatyp(siz) R M Lvl/name                 OctLoc.c.b A Datatyp(siz) R M Lvl/name

     0-0-0/d STRC(8856)  r     1 B$JIT                      0-0-0/w ASTR(153)   r     1 P$S
     0-0-0/w STRC(576)   r     1 U$PARAM


   Procedure CPX$CONTEXT6 requires 72 words for executable code.
   Procedure CPX$CONTEXT6 requires 22 words of local(AUTO) storage.
PL6.E3A0      #001=CPX$CONTEXT6 File=CPX$CONTEXT6.:E05TSI                        TUE 07/29/97 12:08 Page:18

    No errors detected in file CPX$CONTEXT6.:E05TSI    .
PL6.E3A0      #001=CPX$CONTEXT6 File=CPX$CONTEXT6.:E05TSI                        TUE 07/29/97 12:08 Page:19
          *** CROSS REFERENCE LISTING ***
**     DENOTES     IDENTIFIER DEFINITION
<<                 IDENTIFIER'S VALUE SET
>>                 IDENTIFIER'S VALUE USED
<>                 IDENTIFIER SET AND/OR USED
--                 IDENTIFIER REFERENCED
PL6.E3A0      #001=CPX$CONTEXT6 File=CPX$CONTEXT6.:E05TSI                        TUE 07/29/97 12:08 Page:20
          MINI XREF LISTING

B$JIT.CPFLAGS1.SLEAZE
      5408**DCL      5408--REDEF
B$JIT.ERR.MID
      5315**DCL      5315--REDEF
B$JIT.JRESPEAK
      5476**DCL      5477--REDEF
B$JIT.MAXPRI
      5462**DCL      5874>>IF
B$JIT.ORIGINATOR_PORT.FROM_CR
      5585**DCL      5585--REDEF    5586--REDEF
B$JIT.PNR
      5489**DCL      5489--REDEF
B$JIT.TSLINE
      5583**DCL      5584--REDEF
B$JIT$
      5791**DCL      5309--IMP-PTR  5874>>IF
CXP$POSTERR
      5792**DCL-ENT  5875--CALL     5888--CALL
CXX$DECBIN
      5793**DCL-ENT  5873--CALL
E_BDCVAL
      5816**DCL      5888<>CALL
E_DECBIN
      5888**LABEL    5873--CALLALT
E_XPRIVXCD
      5856**DCL      5875<>CALL
P$S.COUNT
      5702**DCL      5705--IMP-SIZ  5873<>CALL
P$S.CPOS
      5694**DCL      5875<>CALL     5888<>CALL
PTR$
      5797**DCL      5872<<ASSIGN   5873>>CALL     5875>>CALL     5888>>CALL
PL6.E3A0      #001=CPX$CONTEXT6 File=CPX$CONTEXT6.:E05TSI                        TUE 07/29/97 12:08 Page:21
P_PARAM
      5610**DCL        11--PROC     5868--ENTRY    5878--ENTRY    5879--ENTRY    5880--ENTRY    5881--ENTRY
      5882--ENTRY    5883--ENTRY    5884--ENTRY    5885--ENTRY
P_PARAM.OUT$
      5640**DCL      5872>>ASSIGN
P_PARAM.USER$
      5658**DCL      5756--IMP-PTR  5875>>CALL     5888>>CALL
U$PARAM.ERRBUF$
      5757**DCL      5875<>CALL     5888<>CALL
VALUE
      5799**DCL      5873<>CALL     5874>>IF
