VERSION E05

PL6.E3A0      #001=CP_DATA_D File=CP_DATA_D.:E05TSI                              TUE 07/29/97 12:11 Page:1
        1        1        /*M*   CP_DATA_D  Module containing constant data
        2        2        */
        3        3        /*T***********************************************************/
        4        4        /*T*                                                         */
        5        5        /*T* Copyright (c) Bull HN Information Systems Inc., 1997    */
        6        6        /*T*                                                         */
        7        7        /*T***********************************************************/
        8        8        /*X*  DMC,DFC   */
        9        9        /*P*   NAME:   CP_DATA_D
       10       10               PURPOSE:  To provide a common module containing constant data
       11       11                       referenced by the various modules in IBEX.
       12       12               DESCRIPTION: CP_DATA_D consists of the following types of data:
       13       13                       1. SYMDEFS
       14       14                       2. Skeletal FPTS
       15       15                       3. Parsing macros.
       16       16        */
       17       17        /***********************************************************************/
       18       18        CP_DATA_D: PROC ALTRET;
       19       19                                                         /*INCLUDE FILES*/
       20       20                   %INCLUDE CP_6;
       21      101                   %INCLUDE B_SEGIDS_C;
       22      640                   %INCLUDE XU_MACRO_C;
       23     3746                   %INCLUDE CP_MACROS_C;
       24     4498                   %INCLUDE NK_VFC_C;
       25     4572        /**/
       26     4573    1   DCL CPD$SPHANDLE  ENTRY(2) ;
       27     4574    1   DCL X$PRE_PROCESS ENTRY(1) ALTRET ;
       28     4575                                                         /*FPT POINTERS*/
       29     4576          /***** Fpts *****/
       30     4577        %FPT_OPEN(FPTN=CFPT_OPEN,SCRUB=YES,STCLASS="CONSTANT SYMDEF");
       31     4686        %FPT_CLOSE(FPTN=CFPT_CLOSE,STCLASS="CONSTANT SYMDEF");
       32     4728        %FPT_READ(FPTN=CFPT_READ,STCLASS="CONSTANT SYMDEF");
       33     4767        %FPT_WRITE(FPTN=CFPT_WRITE,STCLASS="CONSTANT SYMDEF");
       34     4798        %FPT_GDS(FPTN=CFPT_GDS,STCLASS="CONSTANT SYMDEF");
       35     4814        %FPT_FDS(FPTN=CFPT_FDS,STCLASS="CONSTANT SYMDEF");
       36     4829        %FPT_ERRMSG(FPTN=CFPT_ERRMSG,SUBMESS=YES,INCLCODE=NO,STCLASS="CONSTANT SYMDEF");
       37     4856        %FPT_GETDCB(FPTN=CFPT_GETDCB,STCLASS="CONSTANT SYMDEF");
PL6.E3A0      #001=CP_DATA_D File=CP_DATA_D.:E05TSI                              TUE 07/29/97 12:11 Page:2
       38     4871        %FPT_RELDCB(FPTN=CFPT_RELDCB,STCLASS="CONSTANT SYMDEF");
       39     4885        %FPT_PRECORD(FPTN=CFPT_PRECORD,STCLASS="CONSTANT SYMDEF");
       40     4906        %FPT_DELREC(FPTN=CFPT_DELREC,STCLASS="CONSTANT SYMDEF");
       41     4925        %FPT_ENQ(FPTN=CFPT_ENQ,STCLASS="CONSTANT SYMDEF");
       42     4943        %FPT_DEQ(FPTN=CFPT_DEQ,STCLASS="CONSTANT SYMDEF");
       43     4960        %FPT_RESCTL(FPTN=CFPT_RESCTL,STCLASS="CONSTANT SYMDEF");
       44     4977        %FPT_TIME(FPTN=CFPT_TIME,STCLASS="CONSTANT SYMDEF");
       45     4996        %FPT_DISPLAY(FPTN=CFPT_DISPLAY,STCLASS="CONSTANT SYMDEF");
       46     5009        %FPT_FID(FPTN=CFPT_FID,STCLASS="CONSTANT SYMDEF");
       47     5032        %FPT_UNFID(FPTN=CFPT_UNFID,STCLASS="CONSTANT SYMDEF");
       48     5050        %FPT_TRMISC(FPTN=CFPT_TRMISC,STCLASS="CONSTANT SYMDEF");
       49     5071        %FPT_KEYIN(FPTN=CFPT_KEYIN,STCLASS="CONSTANT SYMDEF");
       50     5090        %FPT_CPEXIT(FPTN=CFPT_CPEXIT,STCLASS="CONSTANT SYMDEF");
       51     5116        %FPT_LDEV(FPTN=CFPT_LDEV,STCLASS="CONSTANT SYMDEF");
       52     5141        %VLP_CRITERIA(FPTN=CVLP_CRITERIA,STCLASS="CONSTANT SYMDEF") ;
       53     5169        %VLP_HDR (FPTN=CVLP_HDR,LEN=3,STCLASS="CONSTANT SYMDEF");
       54     5185        %VLP_TAB(FPTN=CVLP_TABS,STCLASS="CONSTANT SYMDEF");
       55     5199        %FPT_WRITE (FPTN=CFPT_WRITEUC,DCB=M$UC,STCLASS="CONSTANT SYMDEF");
       56     5230        %FPT_REW (FPTN=CFPT_REW,STCLASS="CONSTANT SYMDEF");
       57     5245        %FPT_READ (FPTN=CFPT_READUC,DCB=M$UC,STCLASS="CONSTANT SYMDEF");
       58     5284        %FPT_INT(FPTN=CFPT_INT,STCLASS="CONSTANT SYMDEF");
       59     5298        %FPT_TRTN(FPTN=CFPT_TRTN,STCLASS="CONSTANT SYMDEF");
       60     5315        %P_PCB(NAME=CP$PCB,STCLASS="CONSTANT SYMDEF");
       61     5514        %FPT_OPEN(FPTN=CAMR_REC,STCLASS="CONSTANT SYMDEF",PFMT=PTR,VECTOR=ADDR);
       62     5623        %VLP_NAME(FPTN=CONTINUATION_COMMANDS,NAME='*CONTINUATION_COMMANDS',
       63     5624                  LEN=31,STCLASS="CONSTANT SYMDEF");
       64     5651        %VLP_NAME(FPTN=COLONUSERS,NAME=':USERS',LEN=6,STCLASS="CONSTANT SYMDEF");
       65     5678        %VLP_NAME(FPTN=COLONHLP,NAME=':HLP',LEN=4,STCLASS="CONSTANT SYMDEF");
       66     5705        %VLP_NAME(FPTN=DRIBBLEDCB,NAME='M$DR',LEN=4,STCLASS="CONSTANT SYMDEF");
       67     5732        %VLP_NAME(FPTN=IBEX_NAME,NAME='IBEX',LEN=4,STCLASS="CONSTANT SYMDEF");
       68     5759        %VLP_ACCT(FPTN=COLONSYS,ACCT=':SYS',STCLASS="CONSTANT SYMDEF");
       69     5772        %VLP_TRMCTL(FPTN=CVLP_TRMCTL,STCLASS="CONSTANT SYMDEF");
       70     5812        %VLP_TRMATTR(FPTN=CVLP_TRMATTR,STCLASS="CONSTANT SYMDEF");
       71     5850        %FPT_PLATEN(FPTN=CFPT_PLATEN,STCLASS="CONSTANT SYMDEF");
       72     5875        %VLP_PLATEN(FPTN=CVLP_PLATEN,STCLASS="CONSTANT SYMDEF");
       73     5897        %VLP_TAB(FPTN=CVLP_TAB,STCLASS="CONSTANT SYMDEF");
       74     5911        %VLP_SETSTA(FPTN=CVLP_SETSTA,STCLASS="CONSTANT SYMDEF");
PL6.E3A0      #001=CP_DATA_D File=CP_DATA_D.:E05TSI                              TUE 07/29/97 12:11 Page:3
       75     5939        %VLP_WINDOW(FPTN=CVLP_WINDOW,STCLASS="CONSTANT SYMDEF");
       76     5983        %FPT_OCMSG (FPTN=CFPT_OCMSG,OCTYPE=ADCOM,STCLASS="CONSTANT SYMDEF");
       77     5999        %FPT_PROMPT(FPTN=CFPT_PROMPT,STCLASS="CONSTANT SYMDEF");
       78     6027        %FPT_TRMCTL(FPTN=CFPT_TRMCTL,STCLASS="CONSTANT SYMDEF");
       79     6054        %FPT_GLINEATTR(FPTN=CFPT_GLINEATTR,STCLASS="CONSTANT SYMDEF");
       80     6079        %FPT_TRMATTR(FPTN=CFPT_TRMATTR,STCLASS="CONSTANT SYMDEF");
       81     6104        %FPT_JOBSTATS(FPTN=CFPT_JOBSTATS,ORDER=SRCH,STCLASS="CONSTANT SYMDEF");
       82     6124        %FPT_CMDVAR(FPTN=CFPT_CMDVAR,STCLASS="CONSTANT SYMDEF");
       83     6141        %FPT_PROFILE(FPTN=CFPT_PROFILE,STCLASS="CONSTANT SYMDEF");
       84     6162        %FPT_DEVICE(FPTN=CFPT_DEVICE,STCLASS="CONSTANT SYMDEF");
       85     6180        %FPT_SETFMA(FPTN=CFPT_SETFMA,STCLASS="CONSTANT SYMDEF");
       86     6193        %FPT_WAIT (FPTN=CFPT_WAIT,STCLASS="CONSTANT SYMDEF");
       87     6207        %FPT_SCREECH (FPTN=CFPT_SCREECH,STCLASS="CONSTANT SYMDEF");
       88     6221        %FPT_TRAP(FPTN=CFPT_TRAP,
       89     6222                       DERAIL=TRAP,
       90     6223                       MEMORY=TRAP,COMMAND=TRAP,LOCKUP=TRAP,IPR=TRAP,
       91     6224                       MISSING_SEG=TRAP,SECURITY_1=TRAP,SECURITY_2=TRAP,
       92     6225                       DIVIDE_CHECK=TRAP,MISSING_PAGE=TRAP,
       93     6226                       STCLASS="CONSTANT SYMDEF");
       94     6249        %FPT_MONINFO (FPTN=CFPT_MONINFO,STCLASS="CONSTANT SYMDEF");
       95     6264        %FPT_FINDPROC (FPTN=CFPT_FINDPROC,PTYPE=P_DB,STCLASS="CONSTANT SYMDEF");
       96     6280        %FPT_DRIBBLE (FPTN=CFPT_DRIBBLE,STCLASS="CONSTANT SYMDEF");
       97     6291        %FPT_XXX (FPTN=CFPT_XXX,STCLASS="CONSTANT SYMDEF");
       98     6306          /***** Other constants *****/
       99     6307                                                         /*SYMDEFS*/
      100     6308             %INCLUDE CP_6_SUBS;
      101     6848             %INCLUDE CP_SUBS_C;
      102     7765    1   DCL 1 SEG2$ CONSTANT SYMDEF,          /*CANNED POINTER TO SEG2*/
      103     7766    1         2 OFFSET UBIN(24) INIT(0) UNAL,
      104     7767    1         2 SID BIT(12) INIT(%DS2SID) UNAL;
      105     7768    1   DCL 1 SEG3$ CONSTANT SYMDEF,          /*CANNED POINTER TO SEG3*/
      106     7769    1         2 OFFSET UBIN(24) INIT(0) UNAL,
      107     7770    1         2 SID BIT(12) INIT(%DS3SID) UNAL;
      108     7771    1   DCL 1 SEG4$ CONSTANT SYMDEF,          /*CANNED POINTER TO SEG4*/
      109     7772    1         2 OFFSET UBIN(24) INIT(0) UNAL,
      110     7773    1         2 SID BIT(12) INIT(%DS4SID) UNAL;
      111     7774    1   DCL 1 SEG5$ CONSTANT SYMDEF,          /*CANNED POINTER TO SEG5*/
PL6.E3A0      #001=CP_DATA_D File=CP_DATA_D.:E05TSI                              TUE 07/29/97 12:11 Page:4
      112     7775    1         2 OFFSET UBIN(24) INIT(0) UNAL,
      113     7776    1         2 SID BIT(12) INIT(%DS5SID) UNAL;
      114     7777                                                         /**/
      115     7778    1   DCL M$DO DCB;
      116     7779    1   DCL    M$UC_NUM    UBIN WORD  INIT(%M$UC#) CONSTANT SYMDEF;
      117     7780    1   DCL    M$DO_NUM    UBIN WORD  INIT(%M$DO#) CONSTANT SYMDEF;
      118     7781    1   DCL    M$IBEX_NUM  UBIN WORD  INIT(%M$IBEX#) CONSTANT SYMDEF;
      119     7782    1   DCL    M$IBEX1_NUM UBIN WORD  INIT(%M$IBEX1#) CONSTANT SYMDEF;
      120     7783    1   DCL    M$IBEX2_NUM UBIN WORD  INIT(%M$IBEX2#) CONSTANT SYMDEF;
      121     7784    1   DCL    M$LL_NUM UBIN WORD  INIT(%M$1STDCB#) CONSTANT SYMDEF;
      122     7785    1   DCL 1 IBEXTXTC DALIGNED CONSTANT SYMDEF,
      123     7786    1         2 CNT UBIN(9) INIT(6) UNAL,
      124     7787    1         2 TXT CHAR(6) INIT('M$IBEX');
      125     7788    1   DCL 1 IBEX1TXTC DALIGNED CONSTANT SYMDEF,
      126     7789    1         2 CNT UBIN(9) INIT(7) UNAL,
      127     7790    1         2 TXT CHAR(7) INIT('M$IBEX1');
      128     7791    1   DCL 1 IBEX2TXTC DALIGNED CONSTANT SYMDEF,
      129     7792    1         2 CNT UBIN(9) INIT(7) UNAL,
      130     7793    1         2 TXT CHAR(7) INIT('M$IBEX2');
      131     7794        /**/
      132     7795    1   DCL NPROMPT_KEY CHAR(0) CONSTANT INIT (%CONCAT(BINASC(5),'PRMTN'));
      133     7796    1   DCL IPROMPT_KEY CHAR(0) CONSTANT INIT (%CONCAT(BINASC(5),'PRMTI'));
      134     7797    1   DCL CPROMPT_KEY CHAR(0) CONSTANT INIT (%CONCAT(BINASC(5),'PRMTC'));
      135     7798    1   DCL RPROMPT_KEY CHAR(0) CONSTANT INIT (%CONCAT(BINASC(5),'PRMTR'));
      136     7799    1   DCL PROMPT_KEYS (0:4) VECTOR CONSTANT SYMDEF INIT /* knows PRMT_N - PRMT_R */
      137     7800    1     (VECTOR(NIL),
      138     7801    1      VECTOR(NPROMPT_KEY),
      139     7802    1      VECTOR(IPROMPT_KEY),
      140     7803    1      VECTOR(CPROMPT_KEY),
      141     7804    1      VECTOR(RPROMPT_KEY));
      142     7805        /**/
      143     7806    1     DCL NPROMPT_ CHAR(0) CONSTANT INIT (%CONCAT(VFC_HDR0,'!'));
      144     7807    1     DCL IPROMPT_ CHAR(0) CONSTANT INIT (%CONCAT(VFC_HDR0,'!!'));
      145     7808    1     DCL CPROMPT_ CHAR(0) CONSTANT INIT (%CONCAT(VFC_HDR0,'+!'));
      146     7809    1     DCL RPROMPT_ CHAR(0) CONSTANT INIT (%CONCAT(VFC_TRANSITION1,'$'));
      147     7810    1   DCL PROMPTS (0:4) VECTOR CONSTANT SYMDEF INIT /* PRMT_N - PRMT_R */
      148     7811    1     (VECTOR(NIL),
PL6.E3A0      #001=CP_DATA_D File=CP_DATA_D.:E05TSI                              TUE 07/29/97 12:11 Page:5
      149     7812    1      VECTOR(NPROMPT_),
      150     7813    1      VECTOR(IPROMPT_),
      151     7814    1      VECTOR(CPROMPT_),
      152     7815    1      VECTOR(RPROMPT_));
      153     7816        /**/
      154     7817    1   DCL PROMPT_MASK (0:4) BIT(5) ALIGNED CONSTANT SYMDEF INIT
      155     7818    1     ('00000'B,
      156     7819    1      '01000'B,
      157     7820    1      '00100'B,
      158     7821    1      '00010'B,
      159     7822    1      '00001'B);
      160     7823        /**/
      161     7824    1   DCL PROMPT_VFCS (0:4) CHAR(1) UNAL CONSTANT SYMDEF INIT
      162     7825    1     (' ', %VFC_HDR0, %VFC_HDR0, %VFC_HDR0, %VFC_TRANSITION1);
      163     7826                                                         /*DYNAMICALLY CREATED DCB*/
      164     7827                                                         /*FOR GENERAL PURPOSE USE*/
      165     7828    1   DCL 1 M$LL DALIGNED CONSTANT SYMDEF,
      166     7829    1         2 CNT UBIN(9) INIT(4) UNAL,
      167     7830    1         2 TXT CHAR(4) INIT('M$LL');
      168     7831    1   DCL 1 STARA CONSTANT SYMDEF,
      169     7832    1         2 L UBIN(9) INIT(2) UNAL,
      170     7833    1         2 N CHAR(2) INIT('*A') UNAL;
      171     7834    1   DCL 1 STARS CONSTANT SYMDEF,
      172     7835    1         2 L UBIN(9) INIT(2) UNAL,
      173     7836    1         2 N CHAR(2) INIT('*S') UNAL;
      174     7837    1   DCL 1 K_ATITLE CONSTANT SYMDEF,
      175     7838    1         2 L UBIN(9) INIT(6) UNAL,
      176     7839    1         2 N CHAR(6) INIT('ATITLE') UNAL;
      177     7840    1   DCL 1 K_GLOBAL CONSTANT SYMDEF,
      178     7841    1         2 L UBIN(9) INIT(6) UNAL,
      179     7842    1         2 N CHAR(6) INIT('GLOBAL') UNAL;
      180     7843    1   DCL 1 K_NOTIFY CONSTANT SYMDEF,
      181     7844    1         2 L UBIN(9) INIT(6) UNAL,
      182     7845    1         2 N CHAR(6) INIT('NOTIFY') UNAL;
      183     7846    1   DCL 1 K_STEP CONSTANT SYMDEF,
      184     7847    1         2 L UBIN(9) INIT(4) UNAL,
      185     7848    1         2 N CHAR(4) INIT('STEP') UNAL;
PL6.E3A0      #001=CP_DATA_D File=CP_DATA_D.:E05TSI                              TUE 07/29/97 12:11 Page:6
      186     7849    1   DCL 1 K_LIMIT CONSTANT SYMDEF,
      187     7850    1         2 L UBIN(9) INIT(5) UNAL,
      188     7851    1         2 N CHAR(5) INIT('LIMIT') UNAL;
      189     7852    1   DCL 1 K_WHEN_CNTL CONSTANT SYMDEF,
      190     7853    1         2 L UBIN(9) INIT(9) UNAL,
      191     7854    1         2 N CHAR(9) INIT('WHEN_CNTL') UNAL;
      192     7855    1   DCL 1 SOURCEDCB DALIGNED CONSTANT SYMDEF,
      193     7856    1         2 CNT UBIN(9) INIT(2) UNAL,
      194     7857    1         2 TXT CHAR(2) INIT('#1');
      195     7858    1   DCL 1 UPDATEDCB DALIGNED CONSTANT SYMDEF,
      196     7859    1         2 CNT UBIN(9) INIT(2) UNAL,
      197     7860    1         2 TXT CHAR(2) INIT('#2');
      198     7861    1   DCL 1 OBJECTDCB DALIGNED CONSTANT SYMDEF,
      199     7862    1         2 CNT UBIN(9) INIT(2) UNAL,
      200     7863    1         2 TXT CHAR(2) INIT('#3');
      201     7864    1   DCL 1 LISTDCB DALIGNED CONSTANT SYMDEF,
      202     7865    1         2 CNT UBIN(9) INIT(2) UNAL,
      203     7866    1         2 TXT CHAR(2) INIT('#4');
      204     7867    1   DCL 1 FDCB ALIGNED CONSTANT SYMDEF,     /*FIRST POSSIBLE DCB*/
      205     7868    1         2 L UBIN(9) INIT(1) UNAL,
      206     7869    1         2 N BIT(9) INIT('040'O);
      207     7870    1   DCL 1 LDCB ALIGNED CONSTANT SYMDEF,     /*LAST POSSIBLE DCB*/
      208     7871    1         2 L UBIN(9) INIT(1) UNAL,
      209     7872    1         2 N BIT(9) INIT('177'O);
      210     7873
      211     7874        %XUG_GETCMD (NAME=CGETCMD,
      212     7875                      PROMPT_VFC=YES,
      213     7876                      STCLASS="CONSTANT SYMDEF") ;
      214     8214        %XUG_INIT (NAME=CXUG_INIT,
      215     8215                      STCLASS="CONSTANT SYMDEF",
      216     8216                      WSEG=7,
      217     8217                      PREPROCESS=YES,
      218     8218                      PREPROCESSOR=X$PRE_PROCESS,
      219     8219                      PP_PROCNAME=IBEX_NAME,
      220     8220                      PROCNAME=IBEX_NAME,
      221     8221                      PROCACCT=COLONSYS,
      222     8222                      CMDSZ=%CPBUFFSIZE,
PL6.E3A0      #001=CP_DATA_D File=CP_DATA_D.:E05TSI                              TUE 07/29/97 12:11 Page:7
      223     8223                      ECHO=NEVER_ECHO,
      224     8224                      SYNTAX=YES,
      225     8225                      COMMANDS=NO,
      226     8226                      ADAPT=NIL,
      227     8227                      ALWAYS_SET_PROMPT=YES,
      228     8228                      SPHANDLE=CPD$SPHANDLE) ;
      229     8641    1   END CP_DATA_D;

PL6.E3A0      #001=CP_DATA_D File=CP_DATA_D.:E05TSI                              TUE 07/29/97 12:11 Page:8
--  Include file information  --

   CP_SUBS_C.:E05TOU  is referenced.
   CP_6_SUBS.:E05TOU  is referenced.
   NK_VFC_C.:E05TOU  is referenced.
   CP_MACROS_C.:E05TOU  is referenced.
   XU_MACRO_C.:E05TOU  is referenced.
   B_SEGIDS_C.:E05TOU  is referenced.
   CP_6.:E05TOU  cannot be made into a system file and is referenced.
   B$JIT_C.:E05TOU  was found in the system file and is never referenced.
   CP_6_C.:E05TOU  was found in the system file and is referenced.
      No diagnostics issued in procedure CP_DATA_D.

   No code generated for procedure CP_DATA_D .
   Procedure CP_DATA_D requires 4 words of local(AUTO) storage.

    No errors detected in file CP_DATA_D.:E05TSI    .

PL6.E3A0      #001=CP_DATA_D File=CP_DATA_D.:E05TSI                              TUE 07/29/97 12:11 Page:9

 Object Unit name= CP_DATA_D                                  File name= CP_DATA_D.:E05TOU
 UTS= JUL 29 '97 12:11:08.08 TUE                              Compiler= PL-6/E31         Sev=      00
 SharedLib= :SHARED_SYSTEM                                    Alt SharedLib=


    ****  Control sections  ****

 Sect   Type Bound  Init  Size OctSiz  Section name(segment info)
    0   DCB   even  none     0      0  M$UC
    1  RoData even  UTS    870   1546  CP_DATA_D
    2   DCB   even  none     0      0  M$DO
    3   Proc  even  none     0      0  CP_DATA_D

    ****  Entry defs  ****

                              Check   Calling
                             calling  sequence
  Sect OctLoc Primary Altret sequence   type   Parms  Name
     3      0   yes    yes     yes     ~proc       0  CP_DATA_D
PL6.E3A0      #001=CP_DATA_D File=CP_DATA_D.:E05TSI                              TUE 07/29/97 12:11 Page:10

  ****  Data defs  ****

 Sect OctLoc  Name                           Sect OctLoc  Name
    1      0  CFPT_OPEN                          1     72  CFPT_CLOSE
    1    130  CFPT_READ                          1    146  CFPT_WRITE
    1    162  CFPT_GDS                           1    170  CFPT_FDS
    1    176  CFPT_ERRMSG                        1    230  CFPT_GETDCB
    1    240  CFPT_RELDCB                        1    244  CFPT_PRECORD
    1    256  CFPT_DELREC                        1    270  CFPT_ENQ
    1    302  CFPT_DEQ                           1    312  CFPT_RESCTL
    1    334  CFPT_TIME                          1    350  CFPT_DISPLAY
    1    352  CFPT_FID                           1    402  CFPT_UNFID
    1    430  CFPT_TRMISC                        1    436  CFPT_KEYIN
    1    454  CFPT_CPEXIT                        1    472  CFPT_LDEV
    1    516  CVLP_CRITERIA                      1    542  CVLP_HDR
    1    544  CVLP_TABS                          1    554  CFPT_WRITEUC
    1    570  CFPT_REW                           1    576  CFPT_READUC
    1    614  CFPT_INT                           1    620  CFPT_TRTN
    1    630  CP$PCB                             1    646  CAMR_REC
    1    716  CONTINUATION_COMMANDS              1    726  COLONUSERS
    1    730  COLONHLP                           1    732  DRIBBLEDCB
    1    734  IBEX_NAME                          1    736  COLONSYS
    1    740  CVLP_TRMCTL                        1    744  CVLP_TRMATTR
    1    756  CFPT_PLATEN                        1    766  CVLP_PLATEN
    1    772  CVLP_TAB                           1   1002  CVLP_SETSTA
    1   1016  CVLP_WINDOW                        1   1026  CFPT_OCMSG
    1   1040  CFPT_PROMPT                        1   1052  CFPT_TRMCTL
    1   1062  CFPT_GLINEATTR                     1   1072  CFPT_TRMATTR
    1   1102  CFPT_JOBSTATS                      1   1146  CFPT_CMDVAR
    1   1164  CFPT_PROFILE                       1   1176  CFPT_DEVICE
    1   1210  CFPT_SETFMA                        1   1214  CFPT_WAIT
    1   1222  CFPT_SCREECH                       1   1230  CFPT_TRAP
    1   1242  CFPT_MONINFO                       1   1256  CFPT_FINDPROC
    1   1272  CFPT_DRIBBLE                       1   1276  CFPT_XXX
    1   1304  SEG2$                              1   1305  SEG3$
    1   1306  SEG4$                              1   1307  SEG5$
    1   1310  M$UC_NUM                           1   1311  M$DO_NUM
PL6.E3A0      #001=CP_DATA_D File=CP_DATA_D.:E05TSI                              TUE 07/29/97 12:11 Page:11
    1   1312  M$IBEX_NUM                         1   1313  M$IBEX1_NUM
    1   1314  M$IBEX2_NUM                        1   1315  M$LL_NUM
    1   1316  IBEXTXTC                           1   1320  IBEX1TXTC
    1   1322  IBEX2TXTC                          1   1334  PROMPT_KEYS
    1   1352  PROMPTS                            1   1364  PROMPT_MASK
    1   1371  PROMPT_VFCS                        1   1374  M$LL
    1   1376  STARA                              1   1377  STARS
    1   1400  K_ATITLE                           1   1402  K_GLOBAL
    1   1404  K_NOTIFY                           1   1406  K_STEP
    1   1410  K_LIMIT                            1   1412  K_WHEN_CNTL
    1   1416  SOURCEDCB                          1   1420  UPDATEDCB
    1   1422  OBJECTDCB                          1   1424  LISTDCB
    1   1426  FDCB                               1   1427  LDCB
    1   1430  CGETCMD                            1   1502  CXUG_INIT

  ****  Entry refs  ****

         Check        Calling
        calling       sequence
Altret sequence SRef   type   Args  Name
         yes           Std       2 CPD$SPHANDLE
 yes     yes           Std       1 X$PRE_PROCESS

  ****  Data refs  ****

  Flags:  r = read only, s = secondary
Flgs Name                             Flgs Name                             Flgs Name
     M$UC                                  M$DO

  ****  Segment refs  ****

  Flags:  r = read only, s = secondary
Flgs Name                             Flgs Name                             Flgs Name
     ISSID                                 NULLSID
PL6.E3A0      #001=CP_DATA_D File=CP_DATA_D.:E05TSI                              TUE 07/29/97 12:11 Page:12

        1        1        /*M*   CP_DATA_D  Module containing constant data
        2        2        */
        3        3        /*T***********************************************************/
        4        4        /*T*                                                         */
        5        5        /*T* Copyright (c) Bull HN Information Systems Inc., 1997    */
        6        6        /*T*                                                         */
        7        7        /*T***********************************************************/
        8        8        /*X*  DMC,DFC   */
        9        9        /*P*   NAME:   CP_DATA_D
       10       10               PURPOSE:  To provide a common module containing constant data
       11       11                       referenced by the various modules in IBEX.
       12       12               DESCRIPTION: CP_DATA_D consists of the following types of data:
       13       13                       1. SYMDEFS
       14       14                       2. Skeletal FPTS
       15       15                       3. Parsing macros.
       16       16        */
       17       17        /***********************************************************************/
       18       18        CP_DATA_D: PROC ALTRET;
       19       19                                                         /*INCLUDE FILES*/
       20       20                   %INCLUDE CP_6;
       21      101                   %INCLUDE B_SEGIDS_C;
       22      640                   %INCLUDE XU_MACRO_C;
       23     3746                   %INCLUDE CP_MACROS_C;
       24     4498                   %INCLUDE NK_VFC_C;
       25     4572        /**/
       26     4573    1   DCL CPD$SPHANDLE  ENTRY(2) ;
       27     4574    1   DCL X$PRE_PROCESS ENTRY(1) ALTRET ;
       28     4575                                                         /*FPT POINTERS*/
       29     4576          /***** Fpts *****/
       30     4577        %FPT_OPEN(FPTN=CFPT_OPEN,SCRUB=YES,STCLASS="CONSTANT SYMDEF");
       31     4686        %FPT_CLOSE(FPTN=CFPT_CLOSE,STCLASS="CONSTANT SYMDEF");
       32     4728        %FPT_READ(FPTN=CFPT_READ,STCLASS="CONSTANT SYMDEF");
       33     4767        %FPT_WRITE(FPTN=CFPT_WRITE,STCLASS="CONSTANT SYMDEF");
       34     4798        %FPT_GDS(FPTN=CFPT_GDS,STCLASS="CONSTANT SYMDEF");
       35     4814        %FPT_FDS(FPTN=CFPT_FDS,STCLASS="CONSTANT SYMDEF");
       36     4829        %FPT_ERRMSG(FPTN=CFPT_ERRMSG,SUBMESS=YES,INCLCODE=NO,STCLASS="CONSTANT SYMDEF");
       37     4856        %FPT_GETDCB(FPTN=CFPT_GETDCB,STCLASS="CONSTANT SYMDEF");
PL6.E3A0      #001=CP_DATA_D File=CP_DATA_D.:E05TSI                              TUE 07/29/97 12:11 Page:13
       38     4871        %FPT_RELDCB(FPTN=CFPT_RELDCB,STCLASS="CONSTANT SYMDEF");
       39     4885        %FPT_PRECORD(FPTN=CFPT_PRECORD,STCLASS="CONSTANT SYMDEF");
       40     4906        %FPT_DELREC(FPTN=CFPT_DELREC,STCLASS="CONSTANT SYMDEF");
       41     4925        %FPT_ENQ(FPTN=CFPT_ENQ,STCLASS="CONSTANT SYMDEF");
       42     4943        %FPT_DEQ(FPTN=CFPT_DEQ,STCLASS="CONSTANT SYMDEF");
       43     4960        %FPT_RESCTL(FPTN=CFPT_RESCTL,STCLASS="CONSTANT SYMDEF");
       44     4977        %FPT_TIME(FPTN=CFPT_TIME,STCLASS="CONSTANT SYMDEF");
       45     4996        %FPT_DISPLAY(FPTN=CFPT_DISPLAY,STCLASS="CONSTANT SYMDEF");
       46     5009        %FPT_FID(FPTN=CFPT_FID,STCLASS="CONSTANT SYMDEF");
       47     5032        %FPT_UNFID(FPTN=CFPT_UNFID,STCLASS="CONSTANT SYMDEF");
       48     5050        %FPT_TRMISC(FPTN=CFPT_TRMISC,STCLASS="CONSTANT SYMDEF");
       49     5071        %FPT_KEYIN(FPTN=CFPT_KEYIN,STCLASS="CONSTANT SYMDEF");
       50     5090        %FPT_CPEXIT(FPTN=CFPT_CPEXIT,STCLASS="CONSTANT SYMDEF");
       51     5116        %FPT_LDEV(FPTN=CFPT_LDEV,STCLASS="CONSTANT SYMDEF");
       52     5141        %VLP_CRITERIA(FPTN=CVLP_CRITERIA,STCLASS="CONSTANT SYMDEF") ;
       53     5169        %VLP_HDR (FPTN=CVLP_HDR,LEN=3,STCLASS="CONSTANT SYMDEF");
       54     5185        %VLP_TAB(FPTN=CVLP_TABS,STCLASS="CONSTANT SYMDEF");
       55     5199        %FPT_WRITE (FPTN=CFPT_WRITEUC,DCB=M$UC,STCLASS="CONSTANT SYMDEF");
       56     5230        %FPT_REW (FPTN=CFPT_REW,STCLASS="CONSTANT SYMDEF");
       57     5245        %FPT_READ (FPTN=CFPT_READUC,DCB=M$UC,STCLASS="CONSTANT SYMDEF");
       58     5284        %FPT_INT(FPTN=CFPT_INT,STCLASS="CONSTANT SYMDEF");
       59     5298        %FPT_TRTN(FPTN=CFPT_TRTN,STCLASS="CONSTANT SYMDEF");
       60     5315        %P_PCB(NAME=CP$PCB,STCLASS="CONSTANT SYMDEF");
       61     5514        %FPT_OPEN(FPTN=CAMR_REC,STCLASS="CONSTANT SYMDEF",PFMT=PTR,VECTOR=ADDR);
       62     5623        %VLP_NAME(FPTN=CONTINUATION_COMMANDS,NAME='*CONTINUATION_COMMANDS',
       63     5624                  LEN=31,STCLASS="CONSTANT SYMDEF");
       64     5651        %VLP_NAME(FPTN=COLONUSERS,NAME=':USERS',LEN=6,STCLASS="CONSTANT SYMDEF");
       65     5678        %VLP_NAME(FPTN=COLONHLP,NAME=':HLP',LEN=4,STCLASS="CONSTANT SYMDEF");
       66     5705        %VLP_NAME(FPTN=DRIBBLEDCB,NAME='M$DR',LEN=4,STCLASS="CONSTANT SYMDEF");
       67     5732        %VLP_NAME(FPTN=IBEX_NAME,NAME='IBEX',LEN=4,STCLASS="CONSTANT SYMDEF");
       68     5759        %VLP_ACCT(FPTN=COLONSYS,ACCT=':SYS',STCLASS="CONSTANT SYMDEF");
       69     5772        %VLP_TRMCTL(FPTN=CVLP_TRMCTL,STCLASS="CONSTANT SYMDEF");
       70     5812        %VLP_TRMATTR(FPTN=CVLP_TRMATTR,STCLASS="CONSTANT SYMDEF");
       71     5850        %FPT_PLATEN(FPTN=CFPT_PLATEN,STCLASS="CONSTANT SYMDEF");
       72     5875        %VLP_PLATEN(FPTN=CVLP_PLATEN,STCLASS="CONSTANT SYMDEF");
       73     5897        %VLP_TAB(FPTN=CVLP_TAB,STCLASS="CONSTANT SYMDEF");
       74     5911        %VLP_SETSTA(FPTN=CVLP_SETSTA,STCLASS="CONSTANT SYMDEF");
PL6.E3A0      #001=CP_DATA_D File=CP_DATA_D.:E05TSI                              TUE 07/29/97 12:11 Page:14
       75     5939        %VLP_WINDOW(FPTN=CVLP_WINDOW,STCLASS="CONSTANT SYMDEF");
       76     5983        %FPT_OCMSG (FPTN=CFPT_OCMSG,OCTYPE=ADCOM,STCLASS="CONSTANT SYMDEF");
       77     5999        %FPT_PROMPT(FPTN=CFPT_PROMPT,STCLASS="CONSTANT SYMDEF");
       78     6027        %FPT_TRMCTL(FPTN=CFPT_TRMCTL,STCLASS="CONSTANT SYMDEF");
       79     6054        %FPT_GLINEATTR(FPTN=CFPT_GLINEATTR,STCLASS="CONSTANT SYMDEF");
       80     6079        %FPT_TRMATTR(FPTN=CFPT_TRMATTR,STCLASS="CONSTANT SYMDEF");
       81     6104        %FPT_JOBSTATS(FPTN=CFPT_JOBSTATS,ORDER=SRCH,STCLASS="CONSTANT SYMDEF");
       82     6124        %FPT_CMDVAR(FPTN=CFPT_CMDVAR,STCLASS="CONSTANT SYMDEF");
       83     6141        %FPT_PROFILE(FPTN=CFPT_PROFILE,STCLASS="CONSTANT SYMDEF");
       84     6162        %FPT_DEVICE(FPTN=CFPT_DEVICE,STCLASS="CONSTANT SYMDEF");
       85     6180        %FPT_SETFMA(FPTN=CFPT_SETFMA,STCLASS="CONSTANT SYMDEF");
       86     6193        %FPT_WAIT (FPTN=CFPT_WAIT,STCLASS="CONSTANT SYMDEF");
       87     6207        %FPT_SCREECH (FPTN=CFPT_SCREECH,STCLASS="CONSTANT SYMDEF");
       88     6221        %FPT_TRAP(FPTN=CFPT_TRAP,
       89     6222                       DERAIL=TRAP,
       90     6223                       MEMORY=TRAP,COMMAND=TRAP,LOCKUP=TRAP,IPR=TRAP,
       91     6224                       MISSING_SEG=TRAP,SECURITY_1=TRAP,SECURITY_2=TRAP,
       92     6225                       DIVIDE_CHECK=TRAP,MISSING_PAGE=TRAP,
       93     6226                       STCLASS="CONSTANT SYMDEF");
       94     6249        %FPT_MONINFO (FPTN=CFPT_MONINFO,STCLASS="CONSTANT SYMDEF");
       95     6264        %FPT_FINDPROC (FPTN=CFPT_FINDPROC,PTYPE=P_DB,STCLASS="CONSTANT SYMDEF");
       96     6280        %FPT_DRIBBLE (FPTN=CFPT_DRIBBLE,STCLASS="CONSTANT SYMDEF");
       97     6291        %FPT_XXX (FPTN=CFPT_XXX,STCLASS="CONSTANT SYMDEF");
       98     6306          /***** Other constants *****/
       99     6307                                                         /*SYMDEFS*/
      100     6308             %INCLUDE CP_6_SUBS;
      101     6848             %INCLUDE CP_SUBS_C;
      102     7765    1   DCL 1 SEG2$ CONSTANT SYMDEF,          /*CANNED POINTER TO SEG2*/
      103     7766    1         2 OFFSET UBIN(24) INIT(0) UNAL,
      104     7767    1         2 SID BIT(12) INIT(%DS2SID) UNAL;
      105     7768    1   DCL 1 SEG3$ CONSTANT SYMDEF,          /*CANNED POINTER TO SEG3*/
      106     7769    1         2 OFFSET UBIN(24) INIT(0) UNAL,
      107     7770    1         2 SID BIT(12) INIT(%DS3SID) UNAL;
      108     7771    1   DCL 1 SEG4$ CONSTANT SYMDEF,          /*CANNED POINTER TO SEG4*/
      109     7772    1         2 OFFSET UBIN(24) INIT(0) UNAL,
      110     7773    1         2 SID BIT(12) INIT(%DS4SID) UNAL;
      111     7774    1   DCL 1 SEG5$ CONSTANT SYMDEF,          /*CANNED POINTER TO SEG5*/
PL6.E3A0      #001=CP_DATA_D File=CP_DATA_D.:E05TSI                              TUE 07/29/97 12:11 Page:15
      112     7775    1         2 OFFSET UBIN(24) INIT(0) UNAL,
      113     7776    1         2 SID BIT(12) INIT(%DS5SID) UNAL;
      114     7777                                                         /**/
      115     7778    1   DCL M$DO DCB;
      116     7779    1   DCL    M$UC_NUM    UBIN WORD  INIT(%M$UC#) CONSTANT SYMDEF;
      117     7780    1   DCL    M$DO_NUM    UBIN WORD  INIT(%M$DO#) CONSTANT SYMDEF;
      118     7781    1   DCL    M$IBEX_NUM  UBIN WORD  INIT(%M$IBEX#) CONSTANT SYMDEF;
      119     7782    1   DCL    M$IBEX1_NUM UBIN WORD  INIT(%M$IBEX1#) CONSTANT SYMDEF;
      120     7783    1   DCL    M$IBEX2_NUM UBIN WORD  INIT(%M$IBEX2#) CONSTANT SYMDEF;
      121     7784    1   DCL    M$LL_NUM UBIN WORD  INIT(%M$1STDCB#) CONSTANT SYMDEF;
      122     7785    1   DCL 1 IBEXTXTC DALIGNED CONSTANT SYMDEF,
      123     7786    1         2 CNT UBIN(9) INIT(6) UNAL,
      124     7787    1         2 TXT CHAR(6) INIT('M$IBEX');
      125     7788    1   DCL 1 IBEX1TXTC DALIGNED CONSTANT SYMDEF,
      126     7789    1         2 CNT UBIN(9) INIT(7) UNAL,
      127     7790    1         2 TXT CHAR(7) INIT('M$IBEX1');
      128     7791    1   DCL 1 IBEX2TXTC DALIGNED CONSTANT SYMDEF,
      129     7792    1         2 CNT UBIN(9) INIT(7) UNAL,
      130     7793    1         2 TXT CHAR(7) INIT('M$IBEX2');
      131     7794        /**/
      132     7795    1   DCL NPROMPT_KEY CHAR(0) CONSTANT INIT (%CONCAT(BINASC(5),'PRMTN'));
      133     7796    1   DCL IPROMPT_KEY CHAR(0) CONSTANT INIT (%CONCAT(BINASC(5),'PRMTI'));
      134     7797    1   DCL CPROMPT_KEY CHAR(0) CONSTANT INIT (%CONCAT(BINASC(5),'PRMTC'));
      135     7798    1   DCL RPROMPT_KEY CHAR(0) CONSTANT INIT (%CONCAT(BINASC(5),'PRMTR'));
      136     7799    1   DCL PROMPT_KEYS (0:4) VECTOR CONSTANT SYMDEF INIT /* knows PRMT_N - PRMT_R */
      137     7800    1     (VECTOR(NIL),
      138     7801    1      VECTOR(NPROMPT_KEY),
      139     7802    1      VECTOR(IPROMPT_KEY),
      140     7803    1      VECTOR(CPROMPT_KEY),
      141     7804    1      VECTOR(RPROMPT_KEY));
      142     7805        /**/
      143     7806    1     DCL NPROMPT_ CHAR(0) CONSTANT INIT (%CONCAT(VFC_HDR0,'!'));
      144     7807    1     DCL IPROMPT_ CHAR(0) CONSTANT INIT (%CONCAT(VFC_HDR0,'!!'));
      145     7808    1     DCL CPROMPT_ CHAR(0) CONSTANT INIT (%CONCAT(VFC_HDR0,'+!'));
      146     7809    1     DCL RPROMPT_ CHAR(0) CONSTANT INIT (%CONCAT(VFC_TRANSITION1,'$'));
      147     7810    1   DCL PROMPTS (0:4) VECTOR CONSTANT SYMDEF INIT /* PRMT_N - PRMT_R */
      148     7811    1     (VECTOR(NIL),
PL6.E3A0      #001=CP_DATA_D File=CP_DATA_D.:E05TSI                              TUE 07/29/97 12:11 Page:16
      149     7812    1      VECTOR(NPROMPT_),
      150     7813    1      VECTOR(IPROMPT_),
      151     7814    1      VECTOR(CPROMPT_),
      152     7815    1      VECTOR(RPROMPT_));
      153     7816        /**/
      154     7817    1   DCL PROMPT_MASK (0:4) BIT(5) ALIGNED CONSTANT SYMDEF INIT
      155     7818    1     ('00000'B,
      156     7819    1      '01000'B,
      157     7820    1      '00100'B,
      158     7821    1      '00010'B,
      159     7822    1      '00001'B);
      160     7823        /**/
      161     7824    1   DCL PROMPT_VFCS (0:4) CHAR(1) UNAL CONSTANT SYMDEF INIT
      162     7825    1     (' ', %VFC_HDR0, %VFC_HDR0, %VFC_HDR0, %VFC_TRANSITION1);
      163     7826                                                         /*DYNAMICALLY CREATED DCB*/
      164     7827                                                         /*FOR GENERAL PURPOSE USE*/
      165     7828    1   DCL 1 M$LL DALIGNED CONSTANT SYMDEF,
      166     7829    1         2 CNT UBIN(9) INIT(4) UNAL,
      167     7830    1         2 TXT CHAR(4) INIT('M$LL');
      168     7831    1   DCL 1 STARA CONSTANT SYMDEF,
      169     7832    1         2 L UBIN(9) INIT(2) UNAL,
      170     7833    1         2 N CHAR(2) INIT('*A') UNAL;
      171     7834    1   DCL 1 STARS CONSTANT SYMDEF,
      172     7835    1         2 L UBIN(9) INIT(2) UNAL,
      173     7836    1         2 N CHAR(2) INIT('*S') UNAL;
      174     7837    1   DCL 1 K_ATITLE CONSTANT SYMDEF,
      175     7838    1         2 L UBIN(9) INIT(6) UNAL,
      176     7839    1         2 N CHAR(6) INIT('ATITLE') UNAL;
      177     7840    1   DCL 1 K_GLOBAL CONSTANT SYMDEF,
      178     7841    1         2 L UBIN(9) INIT(6) UNAL,
      179     7842    1         2 N CHAR(6) INIT('GLOBAL') UNAL;
      180     7843    1   DCL 1 K_NOTIFY CONSTANT SYMDEF,
      181     7844    1         2 L UBIN(9) INIT(6) UNAL,
      182     7845    1         2 N CHAR(6) INIT('NOTIFY') UNAL;
      183     7846    1   DCL 1 K_STEP CONSTANT SYMDEF,
      184     7847    1         2 L UBIN(9) INIT(4) UNAL,
      185     7848    1         2 N CHAR(4) INIT('STEP') UNAL;
PL6.E3A0      #001=CP_DATA_D File=CP_DATA_D.:E05TSI                              TUE 07/29/97 12:11 Page:17
      186     7849    1   DCL 1 K_LIMIT CONSTANT SYMDEF,
      187     7850    1         2 L UBIN(9) INIT(5) UNAL,
      188     7851    1         2 N CHAR(5) INIT('LIMIT') UNAL;
      189     7852    1   DCL 1 K_WHEN_CNTL CONSTANT SYMDEF,
      190     7853    1         2 L UBIN(9) INIT(9) UNAL,
      191     7854    1         2 N CHAR(9) INIT('WHEN_CNTL') UNAL;
      192     7855    1   DCL 1 SOURCEDCB DALIGNED CONSTANT SYMDEF,
      193     7856    1         2 CNT UBIN(9) INIT(2) UNAL,
      194     7857    1         2 TXT CHAR(2) INIT('#1');
      195     7858    1   DCL 1 UPDATEDCB DALIGNED CONSTANT SYMDEF,
      196     7859    1         2 CNT UBIN(9) INIT(2) UNAL,
      197     7860    1         2 TXT CHAR(2) INIT('#2');
      198     7861    1   DCL 1 OBJECTDCB DALIGNED CONSTANT SYMDEF,
      199     7862    1         2 CNT UBIN(9) INIT(2) UNAL,
      200     7863    1         2 TXT CHAR(2) INIT('#3');
      201     7864    1   DCL 1 LISTDCB DALIGNED CONSTANT SYMDEF,
      202     7865    1         2 CNT UBIN(9) INIT(2) UNAL,
      203     7866    1         2 TXT CHAR(2) INIT('#4');
      204     7867    1   DCL 1 FDCB ALIGNED CONSTANT SYMDEF,     /*FIRST POSSIBLE DCB*/
      205     7868    1         2 L UBIN(9) INIT(1) UNAL,
      206     7869    1         2 N BIT(9) INIT('040'O);
      207     7870    1   DCL 1 LDCB ALIGNED CONSTANT SYMDEF,     /*LAST POSSIBLE DCB*/
      208     7871    1         2 L UBIN(9) INIT(1) UNAL,
      209     7872    1         2 N BIT(9) INIT('177'O);
      210     7873
      211     7874        %XUG_GETCMD (NAME=CGETCMD,
      212     7875                      PROMPT_VFC=YES,
      213     7876                      STCLASS="CONSTANT SYMDEF") ;
      214     8214        %XUG_INIT (NAME=CXUG_INIT,
      215     8215                      STCLASS="CONSTANT SYMDEF",
      216     8216                      WSEG=7,
      217     8217                      PREPROCESS=YES,
      218     8218                      PREPROCESSOR=X$PRE_PROCESS,
      219     8219                      PP_PROCNAME=IBEX_NAME,
      220     8220                      PROCNAME=IBEX_NAME,
      221     8221                      PROCACCT=COLONSYS,
      222     8222                      CMDSZ=%CPBUFFSIZE,
PL6.E3A0      #001=CP_DATA_D File=CP_DATA_D.:E05TSI                              TUE 07/29/97 12:11 Page:18
      223     8223                      ECHO=NEVER_ECHO,
      224     8224                      SYNTAX=YES,
      225     8225                      COMMANDS=NO,
      226     8226                      ADAPT=NIL,
      227     8227                      ALWAYS_SET_PROMPT=YES,
      228     8228                      SPHANDLE=CPD$SPHANDLE) ;
      229     8641    1   END CP_DATA_D;

PL6.E3A0      #001=CP_DATA_D File=CP_DATA_D.:E05TSI                              TUE 07/29/97 12:11 Page:19
--  Include file information  --

   CP_SUBS_C.:E05TOU  is referenced.
   CP_6_SUBS.:E05TOU  is referenced.
   NK_VFC_C.:E05TOU  is referenced.
   CP_MACROS_C.:E05TOU  is referenced.
   XU_MACRO_C.:E05TOU  is referenced.
   B_SEGIDS_C.:E05TOU  is referenced.
   CP_6.:E05TOU  cannot be made into a system file and is referenced.
   B$JIT_C.:E05TOU  was found in the system file and is never referenced.
   CP_6_C.:E05TOU  was found in the system file and is referenced.
      No diagnostics issued in procedure CP_DATA_D.
PL6.E3A0      #001=CP_DATA_D File=CP_DATA_D.:E05TSI                              TUE 07/29/97 12:11 Page:20

 **** Variables and constants ****

  ****  Section 001 RoData CP_DATA_D

  ****  Scalars and arrays  ****
OctLoc.c.b A Datatyp(siz) R M Lvl/name                 OctLoc.c.b A Datatyp(siz) R M Lvl/name

   646-0-0/d STRC(1440)  r     1 CAMR_REC                  72-0-0/d STRC(1080)  r     1 CFPT_CLOSE
  1146-0-0/d STRC(504)   r     1 CFPT_CMDVAR              454-0-0/d STRC(504)   r     1 CFPT_CPEXIT
   256-0-0/d STRC(360)   r     1 CFPT_DELREC              302-0-0/d STRC(288)   r     1 CFPT_DEQ
  1176-0-0/d STRC(360)   r     1 CFPT_DEVICE             1272-0-0/d STRC(144)   r     1 CFPT_DRIBBLE
   270-0-0/d STRC(360)   r     1 CFPT_ENQ                 176-0-0/d STRC(936)   r     1 CFPT_ERRMSG
   170-0-0/d STRC(216)   r     1 CFPT_FDS                 352-0-0/d STRC(864)   r     1 CFPT_FID
  1256-0-0/d STRC(432)   r     1 CFPT_FINDPROC            162-0-0/d STRC(216)   r     1 CFPT_GDS
   230-0-0/d STRC(288)   r     1 CFPT_GETDCB             1062-0-0/d STRC(288)   r     1 CFPT_GLINEATTR
   614-0-0/d STRC(144)   r     1 CFPT_INT                1102-0-0/d STRC(1296)  r     1 CFPT_JOBSTATS
   436-0-0/d STRC(504)   r     1 CFPT_KEYIN               472-0-0/d STRC(720)   r     1 CFPT_LDEV
  1026-0-0/d STRC(360)   r     1 CFPT_OCMSG                 0-0-0/d STRC(2088)  r     1 CFPT_OPEN
   756-0-0/d STRC(288)   r     1 CFPT_PLATEN              244-0-0/d STRC(360)   r     1 CFPT_PRECORD
  1164-0-0/d STRC(360)   r     1 CFPT_PROFILE            1040-0-0/d STRC(360)   r     1 CFPT_PROMPT
   130-0-0/d STRC(504)   r     1 CFPT_READ                576-0-0/d STRC(504)   r     1 CFPT_READUC
   240-0-0/d STRC(144)   r     1 CFPT_RELDCB              312-0-0/d STRC(648)   r     1 CFPT_RESCTL
   570-0-0/d STRC(216)   r     1 CFPT_REW                 334-0-0/d STRC(432)   r     1 CFPT_TIME
  1230-0-0/d STRC(360)   r     1 CFPT_TRAP               1072-0-0/d STRC(288)   r     1 CFPT_TRMATTR
  1052-0-0/d STRC(288)   r     1 CFPT_TRMCTL              430-0-0/d STRC(216)   r     1 CFPT_TRMISC
   620-0-0/d STRC(288)   r     1 CFPT_TRTN                402-0-0/d STRC(792)   r     1 CFPT_UNFID
  1214-0-0/d STRC(216)   r     1 CFPT_WAIT                146-0-0/d STRC(432)   r     1 CFPT_WRITE
   554-0-0/d STRC(432)   r     1 CFPT_WRITEUC            1276-0-0/d STRC(216)   r     1 CFPT_XXX
   736-0-0/c STRC(72)    r     1 COLONSYS                1350-0-0/c CHAR(3)     r     1 CPROMPT_
  1330-0-0/c CHAR(6)     r     1 CPROMPT_KEY              734-0-0/c STRC(45)    r     1 IBEX_NAME
  1347-0-0/c CHAR(3)     r     1 IPROMPT_                1326-0-0/c CHAR(6)     r     1 IPROMPT_KEY
  1346-0-0/c CHAR(2)     r     1 NPROMPT_                1324-0-0/c CHAR(6)     r     1 NPROMPT_KEY
  1351-0-0/c CHAR(2)     r     1 RPROMPT_                1332-0-0/c CHAR(6)     r     1 RPROMPT_KEY

  ****  BASED and DCB variables  ****

  ****  Scalars and arrays  ****
PL6.E3A0      #001=CP_DATA_D File=CP_DATA_D.:E05TSI                              TUE 07/29/97 12:11 Page:21
OctLoc.c.b A Datatyp(siz) R M Lvl/name                 OctLoc.c.b A Datatyp(siz) R M Lvl/name

     0-0-0N  NULL        r     1 M$UC


   No code generated for procedure CP_DATA_D .
   Procedure CP_DATA_D requires 4 words of local(AUTO) storage.

    No errors detected in file CP_DATA_D.:E05TSI    .
PL6.E3A0      #001=CP_DATA_D File=CP_DATA_D.:E05TSI                              TUE 07/29/97 12:11 Page:22
          *** CROSS REFERENCE LISTING ***
**     DENOTES     IDENTIFIER DEFINITION
<<                 IDENTIFIER'S VALUE SET
>>                 IDENTIFIER'S VALUE USED
<>                 IDENTIFIER SET AND/OR USED
--                 IDENTIFIER REFERENCED
PL6.E3A0      #001=CP_DATA_D File=CP_DATA_D.:E05TSI                              TUE 07/29/97 12:11 Page:23
          MINI XREF LISTING

CAMR_REC.ACSVEH_
      5581**DCL      5582--REDEF
CAMR_REC.ALTKEYS_
      5587**DCL      5588--REDEF    5588--REDEF
CAMR_REC.HDR_
      5586**DCL      5587--REDEF
CAMR_REC.TAB_
      5585**DCL      5586--REDEF
CAMR_REC.UHL_
      5579**DCL      5580--REDEF    5580--REDEF
CAMR_REC.V
      5588**DCL      5579--DCLINIT
CAMR_REC.V.FSN#
      5619**DCL      5619--REDEF    5619--REDEF
CAMR_REC.WSN_
      5585**DCL      5585--REDEF
CFPT_CLOSE.SN_
      4709**DCL      4709--REDEF
CFPT_CLOSE.UTL_
      4710**DCL      4710--REDEF
CFPT_CLOSE.V
      4714**DCL      4709--DCLINIT
CFPT_CLOSE.V.EXPIRE#
      4724**DCL      4724--REDEF
CFPT_CLOSE.V.TYPE#
      4722**DCL      4722--REDEF
CFPT_CLOSE.V.XTNSIZE#
      4719**DCL      4719--REDEF    4721--REDEF
CFPT_CMDVAR.V
      6137**DCL      6135--DCLINIT
CFPT_CPEXIT.V
      5106**DCL      5106--DCLINIT
PL6.E3A0      #001=CP_DATA_D File=CP_DATA_D.:E05TSI                              TUE 07/29/97 12:11 Page:24
CFPT_DELREC.V
      4920**DCL      4917--DCLINIT
CFPT_DEQ.V
      4955**DCL      4954--DCLINIT
CFPT_DEVICE.V
      6174**DCL      6173--DCLINIT
CFPT_DRIBBLE.V
      6289**DCL      6289--DCLINIT
CFPT_ENQ.V
      4937**DCL      4936--DCLINIT
CFPT_ERRMSG.V
      4844**DCL      4840--DCLINIT
CFPT_FDS.V
      4825**DCL      4825--DCLINIT
CFPT_FID.V
      5024**DCL      5020--DCLINIT
CFPT_FINDPROC.V
      6277**DCL      6275--DCLINIT
CFPT_GDS.V
      4809**DCL      4809--DCLINIT
CFPT_GETDCB.V
      4868**DCL      4867--DCLINIT
CFPT_GLINEATTR.V
      6077**DCL      6071--DCLINIT
CFPT_INT.V
      5295**DCL      5295--DCLINIT
CFPT_JOBSTATS.V
      6119**DCL      6115--DCLINIT
CFPT_KEYIN.V
      5085**DCL      5082--DCLINIT
CFPT_LDEV.V
      5130**DCL      5128--DCLINIT
CFPT_OCMSG.V
      5995**DCL      5994--DCLINIT
CFPT_OPEN.ACSVEH_
      4644**DCL      4645--REDEF
PL6.E3A0      #001=CP_DATA_D File=CP_DATA_D.:E05TSI                              TUE 07/29/97 12:11 Page:25
CFPT_OPEN.ALTKEYS_
      4650**DCL      4651--REDEF    4651--REDEF
CFPT_OPEN.HDR_
      4649**DCL      4650--REDEF
CFPT_OPEN.TAB_
      4648**DCL      4649--REDEF
CFPT_OPEN.UHL_
      4642**DCL      4643--REDEF    4643--REDEF
CFPT_OPEN.V
      4651**DCL      4642--DCLINIT
CFPT_OPEN.V.FSN#
      4682**DCL      4682--REDEF    4682--REDEF
CFPT_OPEN.WSN_
      4648**DCL      4648--REDEF
CFPT_PLATEN.V
      5873**DCL      5867--DCLINIT
CFPT_PRECORD.V
      4898**DCL      4896--DCLINIT
CFPT_PROFILE.V
      6160**DCL      6157--DCLINIT
CFPT_PROMPT.V
      6023**DCL      6017--DCLINIT
CFPT_READ.STATION_
      4748**DCL      4749--REDEF
CFPT_READ.V
      4749**DCL      4745--DCLINIT
CFPT_READ.V.DVBYTE.REREAD#
      4760**DCL      4760--REDEF
CFPT_READ.V.INDX#
      4758**DCL      4758--REDEF
CFPT_READUC.STATION_
      5265**DCL      5266--REDEF
CFPT_READUC.V
      5266**DCL      5262--DCLINIT
CFPT_READUC.V.DVBYTE.REREAD#
      5277**DCL      5277--REDEF
PL6.E3A0      #001=CP_DATA_D File=CP_DATA_D.:E05TSI                              TUE 07/29/97 12:11 Page:26
CFPT_READUC.V.INDX#
      5275**DCL      5275--REDEF
CFPT_RELDCB.V
      4882**DCL      4882--DCLINIT
CFPT_RESCTL.V
      4973**DCL      4971--DCLINIT
CFPT_REW.V
      5241**DCL      5241--DCLINIT
CFPT_TIME.V
      4992**DCL      4988--DCLINIT
CFPT_TRAP.V
      6237**DCL      6237--DCLINIT
CFPT_TRMATTR.V
      6102**DCL      6096--DCLINIT
CFPT_TRMCTL.V
      6051**DCL      6045--DCLINIT
CFPT_TRMISC.V
      5068**DCL      5066--DCLINIT
CFPT_TRTN.V
      5310**DCL      5310--DCLINIT
CFPT_TRTN.V.IR#
      5310**DCL      5311--REDEF
CFPT_UNFID.V
      5047**DCL      5043--DCLINIT
CFPT_WAIT.V
      6205**DCL      6204--DCLINIT
CFPT_WRITE.STATION_
      4786**DCL      4786--REDEF
CFPT_WRITE.V
      4787**DCL      4784--DCLINIT
CFPT_WRITE.V.DVBYTE.VFC#
      4793**DCL      4793--REDEF
CFPT_WRITEUC.STATION_
      5218**DCL      5218--REDEF
CFPT_WRITEUC.V
      5219**DCL      5216--DCLINIT
PL6.E3A0      #001=CP_DATA_D File=CP_DATA_D.:E05TSI                              TUE 07/29/97 12:11 Page:27
CFPT_WRITEUC.V.DVBYTE.VFC#
      5225**DCL      5225--REDEF
CFPT_XXX.V
      6302**DCL      6302--DCLINIT
CFPT_XXX.V.STEPCC#
      6303**DCL      6303--REDEF
CGETCMD.OUT$
      7894**DCL      7900--REDEF
COLONSYS
      5770**DCL      8360--DCLINIT
CPD$SPHANDLE
      4573**DCL-ENT  8273--DCLINIT
CPROMPT_
      7808**DCL      7814--DCLINIT
CPROMPT_KEY
      7797**DCL      7803--DCLINIT
CVLP_TRMCTL.BREAKCOUNT
      5800**DCL      5801--REDEF
CVLP_WINDOW.FWINDOW#
      5957**DCL      5957--REDEF    5958--REDEF
IBEX_NAME
      5757**DCL      8355--DCLINIT  8395--DCLINIT
IPROMPT_
      7807**DCL      7813--DCLINIT
IPROMPT_KEY
      7796**DCL      7802--DCLINIT
NPROMPT_
      7806**DCL      7812--DCLINIT
NPROMPT_KEY
      7795**DCL      7801--DCLINIT
RPROMPT_
      7809**DCL      7815--DCLINIT
RPROMPT_KEY
      7798**DCL      7804--DCLINIT
X$PRE_PROCESS
      4574**DCL-ENT  8346--DCLINIT
