VERSION E05

PL6.E3A0      #001=CXB$BLDAM File=CXB$SUBR.:E05TSI                               TUE 07/29/97 12:15 Page:1
        1        1        /*M* SET routines. CXB$BLDAM, CXB$MDFYAM, CXB$DELAM, CXB$PROCOPT, CXB$WINDOW_OPTS */
        2        2        /*T***********************************************************/
        3        3        /*T*                                                         */
        4        4        /*T* Copyright (c) Bull HN Information Systems Inc., 1997    */
        5        5        /*T*                                                         */
        6        6        /*T***********************************************************/
        7        7        /*X* DFC,DMC */
        8        8        /*F*   NAME:   CXB$BLDAM
        9        9               PURPOSE: To build an assign merge record for a specified dcb
       10       10               DESCRIPTION: CXB$BLDAM builds a new assign merge record in an
       11       11                       acquired data segment for a specified dcb.
       12       12        */
       13       13        /*D*   NAME:   CXB$BLDAM
       14       14               CALL:   CALL CXB$BLDAM(BLK$,FID$,GETCMD,CPSL_PARAM)
       15       15               INTERFACE: CXC$GETSEG,CXB$PROCOPT,X$ALLOCATE
       16       16               INPUT:  BLK$ - pointer to parse output block
       17       17                       FID$ - pointer to fid
       18       18                       GETCMD - The CXG$GETCMD parameter.
       19       19                       CPSL_PARAM - The Command Processor Special Library Parameter.
       20       20               OUTPUT: assign merge record to segment #3
       21       21               DESCRIPTION: Data segment #3 is obtained and utilized as a buffer
       22       22                       for the assign merge record to be created. Pointers to the
       23       23                       various components of a fid along with the fid information
       24       24                       is inserted into the record if a fid pointer is passed.
       25       25                       If a fid pointer is not passed, an assign merge record is
       26       26                       created with null fid information pointers.
       27       27                       In the case of an ADJUST command, the building of an
       28       28                       assign merge type record without fid information is
       29       29                       required. Also information specified as options on the
       30       30                       various commands is inserted into the record.
       31       31        */
       32       32        /**********************************************************************/
       33       33        CXB$BLDAM: PROC(BLK$,FID$,GETCMD,CPSL_PARAM) ;
       34       34                   %INCLUDE B$JIT;
       35      324                   %INCLUDE CP_6;
       36      405                   %INCLUDE CX_MACROS_M;
       37      456                   %INCLUDE XU_MACRO_C;
PL6.E3A0      #001=CXB$BLDAM File=CXB$SUBR.:E05TSI                               TUE 07/29/97 12:15 Page:2
       38     3562                   %INCLUDE CX_DATA_R;
       39     4496                   %INCLUDE CX_SUBS_C;
       40     4509                   %INCLUDE CX_ISUBS_C;
       41     4861                   %INCLUDE CX_PERR_C;
       42     4932                   %INCLUDE CP_6_SUBS;
       43     5472                   %INCLUDE XUM_MACRO_C;
       44     5499                   %INCLUDE B_MACROS_C;
       45     5610          /***** Fpts *****/
       46     5611        %CPSL_AMR$PTRS(NAME=AMR$PTRS,STCLASS=BASED);
       47     5616        %FPT_FID(FPTN=FPT_FID,STCLASS=AUTO);
       48     5639        %FPT_OPEN(FPTN=FPT_OPEN,STCLASS=AUTO);
       49     5748        %FPT_OPEN(FPTN=AMR$REC$,STCLASS="BASED(CPSL_SEG3$)",PFMT="PTR");
       50     5857        %VLR_FID(FPTN=FID_RESULTS,STCLASS=AUTO);
       51     5876        %TEXTC(NAME=TEXTC,STCLASS=BASED);
       52     5881        %PARSE$OUT(NAME=OUT$BLK);
       53     5926        %VLP_NAME(FPTN=AM$NAME,STCLASS=BASED,LEN=31);
       54     5953        %VLP_ACCT(FPTN=AM$ACCT,STCLASS=BASED);
       55     5966        %VLP_PASS(FPTN=AM$PASS,STCLASS=BASED);
       56     5979        %VLP_SN(FPTN=AM$SN,N=50,STCLASS=BASED);
       57     5992        %VLP_WSN(FPTN=AM$WSN,STCLASS=BASED);
       58     6005        %VLP_NAME(FPTN=AMR_NAME,STCLASS=AUTO,LEN=31);
       59     6032        %VLP_ACCT(FPTN=AMR_ACCT,STCLASS=AUTO);
       60     6045        %VLP_PASS(FPTN=AMR_PASS,STCLASS=AUTO);
       61     6058        %VLP_WSN(FPTN=AMR_WSN,STCLASS=AUTO);
       62     6071        %VLP_SN(FPTN=AMR_SN,STCLASS=AUTO,N=50);
       63     6084        %XUM$MCB(NAME=MCB,STCLASS=AUTO);
       64     6088          /***** Error codes *****/
       65     6089        %VLP_ERRCODE (FPTN=E_AMFULL,FCG=CX,MID=B,ERR#=E$AMFULL,STCLASS=CONSTANT);
       66     6134          /***** Local variables *****/
       67     6135    1   DCL TEMP$ PTR;                                   /*Temp. Ptr*/
       68     6136    1   DCL BLK$ PTR;                           /*Parse output block ptr*/
       69     6137    1   DCL FID$ PTR;                           /*Pointer to fid*/
       70     6138    1   DCL TEMP SBIN WORD;                               /* Temp cell */
       71     6139        %XUG_GETCMD (NAME=GETCMD, STCLASS=PARAM) ;
       72     6477        %CPSL_COMMAND_PARAMETERS (NAME=CPSL_PARAM, STCLASS=PARAM) ;
       73     6495          /***** External routines *****/
       74     6496        %INCLUDE CXG_ENTRY ;
PL6.E3A0      #001=CXB$BLDAM File=CXB$SUBR.:E05TSI                               TUE 07/29/97 12:15 Page:3
       75     6508    1   DCL CXC$GETSEG ENTRY(2) ;               /*Get data segment*/
       76     6509    1   DCL CXC$RELSEG ENTRY(1);
       77     6510    1   DCL CXB$PROCOPT ENTRY(4) ;              /*Process option*/
       78     6511    1   DCL CXX$CNVRT_FID ENTRY(3) ;
       79     6512    1   DCL CXC$SCREECH ENTRY(2);                        /*Screech*/
       80     6513    1   DCL CXB$RELVPA ENTRY(1);                         /*Release vlp area in *A*/
       81     6514    1   DCL CX_DATA_D ENTRY CONV (5);       /* Force LINK to UNSAT-load data defn's. */
       82     6515    1   DCL X$ALLOCATE ENTRY(1) ALTRET;
       83     6516          /***** Based structures *****/
       84     6517        %B$TCB (STCLASS="BASED(B$TCB$)");
       85     6520        %B$EXCFR;
       86     6538        %EJECT;
PL6.E3A0      #001=CXB$BLDAM File=CXB$SUBR.:E05TSI                               TUE 07/29/97 12:15 Page:4
       87     6539    1     IF CPSL_PARAM.FLAGS.VERIFY_ONLY
       88     6540    1         THEN
       89     6541    2             DO ;
       90     6542    2               CALL CXB$PROCOPT(BLK$,MCB,GETCMD,CPSL_PARAM) ;
       91     6543    2               GOTO BLDAMRET ;
       92     6544    2             END ; /* Then Do */
       93     6545    1     CALL CXC$GETSEG(CPSL_SEG3$) ;                    /*Get seg for buffer*/
       94     6546    1     IF CPSL_PARAM.ERRCODE ~= %NO#
       95     6547    1         THEN
       96     6548    1             GOTO CXB$BLDAM50 ;
       97     6549        /*
       98     6550          ****  Initialize a/m record with defaults
       99     6551        */
      100     6552    1     AMR$REC$=CPSL_CAMR_REC;
      101     6553    1     AMR$REC$.V_=PINCRW(CPSL_SEG3$,POFFW(ADDR(AMR$REC$.V),ADDR(AMR$REC$)));
      102     6554        /*
      103     6555          ****  Initialize SEG3   control block
      104     6556        */
      105     6557    1     MCB.FREE_HEAD$=ADDR(NIL);
      106     6558        /*  ****  Reserve two words in a/m for HI_SEGMENT$ and FREE_HEAD$ */
      107     6559    1     MCB.SEGMENT_BASE$=PINCRW(AMR$REC$.V_,SIZEW(AMR$REC$.V)+2);
      108     6560    1     MCB.HI_SEGMENT$=MCB.SEGMENT_BASE$;
      109     6561    1     MCB.WKSZ=1024-POFFC(MCB.SEGMENT_BASE$,CPSL_SEG3$); /*# words*/
      110     6562    1     MCB.TYPE=0;                           /*Allocate bytes*/
      111     6563    1     MCB.MIN_SIZE=0;
      112     6564        /*
      113     6565          ****  Init. Fid pointers and M$FID fpt only if FID$ parameter passed.
      114     6566          ****  FID$ isn't passed if modifying existing a/m record via a SET or
      115     6567          ****   Modifying a dcb via an ADJUST.
      116     6568        */
      117     6569    1     IF (ADDR(FID$)~=ADDR(NIL))
      118     6570    1        THEN
      119     6571    2           DO;
      120     6572    2              FPT_FID = CPSL_CFPT_FID ;
      121     6573    2              FPT_FID.V_ = VECTOR(FPT_FID.V) ;
      122     6574    2              FPT_FID.TEXTFID_=VECTOR(FID$->TEXTC.TEXT);
      123     6575    2              FPT_FID.NAME_=VECTOR(AMR_NAME);
PL6.E3A0      #001=CXB$BLDAM File=CXB$SUBR.:E05TSI                               TUE 07/29/97 12:15 Page:5
      124     6576    2              FPT_FID.ACCT_=VECTOR(AMR_ACCT);
      125     6577    2              FPT_FID.PASS_=VECTOR(AMR_PASS);
      126     6578    2              FPT_FID.WSN_=VECTOR(AMR_WSN);
      127     6579    2              FPT_FID.SN_=VECTOR(AMR_SN);
      128     6580    2              FPT_FID.ASN_=VECTOR(AMR$REC$.V.ASN#);
      129     6581    2              FPT_FID.RES_=VECTOR(AMR$REC$.V.RES#);
      130     6582    2              FPT_FID.RESULTS_=VECTOR(FID_RESULTS);
      131     6583    2              FPT_FID.V.SCRUB.SNAME#=%YES#;
      132     6584    2              FPT_FID.V.SCRUB.SACCT#=%YES#;
      133     6585    2              FPT_FID.V.SCRUB.SPASS#=%YES#;
      134     6586    2              FPT_FID.V.SCRUB.SSN#=%YES#;
      135     6587    2              FPT_FID.V.SCRUB.SRES#=%YES#;
      136     6588    2              FPT_FID.V.SCRUB.SWSN#=%YES#;
      137     6589        /*
      138     6590          ****  Insert fid info. Into the a/m record
      139     6591        */
      140     6592    3              CALL M$FID(FPT_FID) WHENALTRETURN DO;
      141     6593    3                 IF BLK$->OUT$BLK.CODE~=SETCMND AND BLK$->OUT$BLK.CODE~=ADJUSTCMND
      142     6594    3                    THEN
      143     6595    3                       GOTO CXB$BLDAM65;
      144     6596    3              END;
      145     6597    2              IF (FID_RESULTS.NAME=%YES#)
      146     6598    2                 THEN
      147     6599    3                    DO;
      148     6600    3                       MCB.SIZE=AMR_NAME.L#+1;   /*Add one for count*/
      149     6601    3                       CALL X$ALLOCATE(MCB) ALTRET(CXB$BLDAM55);
      150     6602    3                       AMR$REC$.NAME_=MCB.ADDRESS$;
      151     6603    3                       AMR$REC$.NAME_->AM$NAME=AMR_NAME;
      152     6604    3                    END;
      153     6605        /*
      154     6606          ****   Set account/password if specified, otherwise for ASN=FILE#,
      155     6607          ****   TAPE# or COMGROUP#,
      156     6608          ****   Reset them except when only pack,tape or comgroup was spec'd w/o name,
      157     6609          ****   Account, or password. Assume user wants his dcb unchanged in this case.
      158     6610        */
      159     6611    2              IF (FID_RESULTS.ACCT=%YES#) OR (AMR$REC$.V.ASN#=%FILE#) OR
      160     6612    2                   (AMR$REC$.V.ASN#=%TAPE#) OR (AMR$REC$.V.ASN#=%COMGROUP#)
PL6.E3A0      #001=CXB$BLDAM File=CXB$SUBR.:E05TSI                               TUE 07/29/97 12:15 Page:6
      161     6613    2                 THEN
      162     6614    3                    DO;
      163     6615    3                       IF (AMR$REC$.V.ASN#=%FILE#) OR (AMR$REC$.V.ASN#=%TAPE#)
      164     6616    3                            OR (AMR$REC$.V.ASN#=%COMGROUP#)
      165     6617    3                          THEN
      166     6618    3                             IF ((FID_RESULTS.NAME=%NO#) AND (FID_RESULTS.ACCT=%NO#)
              6618                                      AND (FID_RESULTS.PASS=%NO#))
      167     6619    3                                THEN
      168     6620    3                                   GOTO CXB$BLDAM20;
      169     6621    3                                ELSE
      170     6622    4                                   DO;
      171     6623    4                                      MCB.SIZE=8;
      172     6624    4                                      CALL X$ALLOCATE(MCB) ALTRET(CXB$BLDAM55);
      173     6625    4                                      AMR$REC$.ACCT_=MCB.ADDRESS$;
      174     6626    4                                      AMR$REC$.ACCT_->AM$ACCT=AMR_ACCT;
      175     6627    4                                   END;
      176     6628    3                    END;
      177     6629    2   CXB$BLDAM20:  ;
      178     6630    2              IF (FID_RESULTS.ACCT=%YES#) OR (AMR$REC$.V.ASN#=%FILE#) OR
      179     6631    2                   (AMR$REC$.V.ASN#=%TAPE#) OR (AMR$REC$.V.ASN#=%COMGROUP#)
      180     6632    2                 THEN
      181     6633    3                    DO;
      182     6634    3                       IF (AMR$REC$.V.ASN#=%FILE#) OR (AMR$REC$.V.ASN#=%TAPE#)
      183     6635    3                            OR (AMR$REC$.V.ASN#=%COMGROUP#)
      184     6636    3                          THEN
      185     6637    3                             IF ((FID_RESULTS.NAME=%NO#) AND (FID_RESULTS.ACCT=%NO#)
              6637                                      AND (FID_RESULTS.PASS=%NO#))
      186     6638    3                                THEN
      187     6639    3                                   GOTO CXB$BLDAM30;
      188     6640    3                                ELSE
      189     6641    4                                   DO;
      190     6642    4                                      MCB.SIZE=8;
      191     6643    4                                      CALL X$ALLOCATE(MCB) ALTRET(CXB$BLDAM55);
      192     6644    4                                      AMR$REC$.PASS_=MCB.ADDRESS$;
      193     6645    4                                      AMR$REC$.PASS_->AM$PASS=AMR_PASS;
      194     6646    4                                   END;
      195     6647    3                    END;
PL6.E3A0      #001=CXB$BLDAM File=CXB$SUBR.:E05TSI                               TUE 07/29/97 12:15 Page:7
      196     6648    2   CXB$BLDAM30:  ;
      197     6649    2              IF (FID_RESULTS.WSN=%YES#)
      198     6650    2                 THEN
      199     6651    3                    DO;
      200     6652    3                       MCB.SIZE=8;
      201     6653    3                       CALL X$ALLOCATE(MCB) ALTRET(CXB$BLDAM55);
      202     6654    3                       AMR$REC$.WSN_=MCB.ADDRESS$;
      203     6655    3                       AMR$REC$.WSN_->AM$WSN=AMR_WSN;
      204     6656    3                    END;
      205     6657    2              IF (FID_RESULTS.SN=%YES#) OR (AMR$REC$.V.ASN#=%COMGROUP#) OR
      206     6658    2                   (AMR$REC$.V.ASN#=%FILE#)
      207     6659    2                 THEN
      208     6660    3                    DO;
      209     6661        /*
      210     6662          ****  If no SN spec'd, create one consisting of blanks to
      211     6663          ****  Indicate SN's in dcb are to be reset.
      212     6664        */
      213     6665    3                       IF AMR_SN.NUM#=0
      214     6666    3                          THEN
      215     6667    3                             AMR_SN.NUM#=1;         /*Init. To one*/
      216     6668    3                       MCB.SIZE=(AMR_SN.NUM#*6)+4; /*Add 4 for sn count*/
      217     6669    3                       CALL X$ALLOCATE(MCB) ALTRET(CXB$BLDAM55);
      218     6670    3                       AMR$REC$.SN_=MCB.ADDRESS$;
      219     6671    3                       AMR$REC$.SN_->AM$SN.NUM#=AMR_SN.NUM#;
      220     6672    4                       DO TEMP = 0 TO AMR_SN.NUM#-1;
      221     6673    4                          AMR$REC$.SN_->AM$SN.SN#(TEMP)=AMR_SN.SN#(TEMP);
      222     6674    4                       END;
      223     6675    3                    END;
      224     6676    2           END;
      225     6677        /*
      226     6678          **** Process options if present on SET or ADJUST command
      227     6679        */
      228     6680    1     IF ((BLK$->OUT$BLK.CODE=SETCMND)
      229     6681    1          OR (BLK$->OUT$BLK.CODE=ADJUSTCMND))
      230     6682    1        THEN
      231     6683    2             DO ;
      232     6684    2               CALL CXB$PROCOPT(BLK$,MCB,GETCMD,CPSL_PARAM) ;
PL6.E3A0      #001=CXB$BLDAM File=CXB$SUBR.:E05TSI                               TUE 07/29/97 12:15 Page:8
      233     6685    2               IF CPSL_PARAM.ERRCODE ~= %NO#
      234     6686    2                 THEN
      235     6687    2                   GOTO CXB$BLDAM70 ;
      236     6688    2             END ; /* Then Do */
      237     6689        /*
      238     6690          ****  Save HI_SEGMENT$ and FREE_HEAD$ in *A for subsequent use
      239     6691        */
      240     6692    1     TEMP$=PINCRW(AMR$REC$.V_,SIZEW(AMR$REC$.V));
      241     6693    1     TEMP$->AMR$PTRS.HI_SEGMENT$=MCB.HI_SEGMENT$;
      242     6694    1     TEMP$->AMR$PTRS.FREE_HEAD$=MCB.FREE_HEAD$;
      243     6695    1   BLDAMRET:
      244     6696    1     RETURN;
      245     6697
      246     6698    1   CXB$BLDAM50:;
      247     6699    1     CALL CXC$SCREECH(E$SUASEG,'B');
      248     6700        /*E*    ERROR:   CXB-E$SUASEG-A
      249     6701                MESSAGE:  Command Processor ABORT:  Unable to obtain data segment.
      250     6702                                       JIT.ERR follows.
      251     6703                DESCRIPTION: Command Processor was unable to get a data segment used
      252     6704                             for the purpose of creating the assign merge record.
      253     6705        */
      254     6706    1   CXB$BLDAM55:;
      255     6707    1     CPSL_PARAM.ERRCODE = E_AMFULL ;
      256     6708    1     CPSL_PARAM.FLAGS.REPORTED_TO_USER = %NO# ;
      257     6709    1     GOTO BLDAMRET ;
      258     6710        /* Error message output by called routine if Command Processor detected ERROR.*/
      259     6711        /* Pass it through CPSL_PARAM.ERRCODE for the Command Processor to output. */
      260     6712        /* By a common error printing routine in Command Procesor. */
      261     6713    1   CXB$BLDAM65:;
      262     6714    1     CPSL_PARAM.ERRCODE = B$TCB.ALT$ -> B$EXCFR.ERR;
      263     6715    1     CPSL_PARAM.FLAGS.REPORTED_TO_USER = %NO# ;
      264     6716    1   CXB$BLDAM70:;
      265     6717    1     CALL CXC$RELSEG (CPSL_SEG3$);
      266     6718    1     GOTO BLDAMRET ;
      267     6719    1   END CXB$BLDAM;
      268     6720                   %EOD;

PL6.E3A0      #001=CXB$BLDAM File=CXB$SUBR.:E05TSI                               TUE 07/29/97 12:15 Page:9
--  Include file information  --

   CXG_ENTRY.:E05TOU  cannot be made into a system file and is referenced.
   B_MACROS_C.:E05TOU  is referenced.
   XUM_MACRO_C.:E05TOU  is referenced.
   CP_6_SUBS.:E05TOU  is referenced.
   CX_PERR_C.:E05TOU  is referenced.
   CX_ISUBS_C.:E05TOU  is referenced.
   CX_SUBS_C.:E05TOU  is referenced.
   CX_DATA_R.:E05TOU  cannot be made into a system file and is referenced.
   XU_MACRO_C.:E05TOU  is referenced.
   CX_MACROS_M.:E05TOU  is referenced.
   CP_6.:E05TOU  cannot be made into a system file and is referenced.
   B$JIT.:E05TOU  cannot be made into a system file and is referenced.
   B$JIT_C.:E05TOU  was found in the system file and is referenced.
   CP_6_C.:E05TOU  was found in the system file and is referenced.
      No diagnostics issued in procedure CXB$BLDAM.

   Procedure CXB$BLDAM requires 357 words for executable code.
   Procedure CXB$BLDAM requires 206 words of local(AUTO) storage.

PL6.E3A0      #001=CXB$BLDAM File=CXB$SUBR.:E05TSI                               TUE 07/29/97 12:15 Page:10

 Object Unit name= CXB$BLDAM                                  File name= CXB$SUBR.:E05TOU
 UTS= JUL 29 '97 12:15:59.60 TUE                              Compiler= PL-6/E31         Sev=      00
 SharedLib= :SHARED_SYSTEM                                    Alt SharedLib=


    ****  Control sections  ****

 Sect   Type Bound  Init  Size OctSiz  Section name(segment info)
    0   DCB   even  none     0      0  M$UC
    1  RoData even  UTS      1      1  CXB$BLDAM
    2   Proc  even  none   357    545  CXB$BLDAM
    3  RoData even  none    12     14  CXB$BLDAM

    ****  Entry defs  ****

                              Check   Calling
                             calling  sequence
  Sect OctLoc Primary Altret sequence   type   Parms  Name
     2      0   yes            yes      Std        4  CXB$BLDAM

  ****  Entry refs  ****

         Check        Calling
        calling       sequence
Altret sequence SRef   type   Args  Name
         yes          ~proc      0 CX_DATA_D
         yes           Std       4 CXB$PROCOPT
         yes           Std       2 CXC$GETSEG
 yes     yes           Std       1 X$ALLOCATE
         yes           Std       2 CXC$SCREECH
         yes           Std       1 CXC$RELSEG
                       nStd      0 X66_AUTO_4
                       Std       0 B_CONSPOOL_D
                       nStd      0 X66_ARET
PL6.E3A0      #001=CXB$BLDAM File=CXB$SUBR.:E05TSI                               TUE 07/29/97 12:15 Page:11

  ****  Data refs  ****

  Flags:  r = read only, s = secondary
Flgs Name                             Flgs Name                             Flgs Name
     M$UC                                  CPSL_CAMR_REC                         CPSL_CFPT_FID
r    B$JIT$                           r    B$TCB$                           r    CPSL_SEG3$
     B_VECTNIL

  ****  Segment refs  ****

  Flags:  r = read only, s = secondary
Flgs Name                             Flgs Name                             Flgs Name
     ISSID
PL6.E3A0      #001=CXB$BLDAM File=CXB$SUBR.:E05TSI                               TUE 07/29/97 12:15 Page:12


        1        1       /*M* SET routines. CXB$BLDAM, CXB$MDFYAM, CXB$DELAM, CXB$PROCOPT, CXB$WINDOW_OPTS */
        2        2        /*T***********************************************************/
        3        3        /*T*                                                         */
        4        4        /*T* Copyright (c) Bull HN Information Systems Inc., 1997    */
        5        5        /*T*                                                         */
        6        6        /*T***********************************************************/
        7        7        /*X* DFC,DMC */
        8        8        /*F*   NAME:   CXB$BLDAM
        9        9               PURPOSE: To build an assign merge record for a specified dcb
       10       10               DESCRIPTION: CXB$BLDAM builds a new assign merge record in an
       11       11                       acquired data segment for a specified dcb.
       12       12        */
       13       13        /*D*   NAME:   CXB$BLDAM
       14       14               CALL:   CALL CXB$BLDAM(BLK$,FID$,GETCMD,CPSL_PARAM)
       15       15               INTERFACE: CXC$GETSEG,CXB$PROCOPT,X$ALLOCATE
       16       16               INPUT:  BLK$ - pointer to parse output block
       17       17                       FID$ - pointer to fid
       18       18                       GETCMD - The CXG$GETCMD parameter.
       19       19                       CPSL_PARAM - The Command Processor Special Library Parameter.
       20       20               OUTPUT: assign merge record to segment #3
       21       21               DESCRIPTION: Data segment #3 is obtained and utilized as a buffer
       22       22                       for the assign merge record to be created. Pointers to the
       23       23                       various components of a fid along with the fid information
       24       24                       is inserted into the record if a fid pointer is passed.
       25       25                       If a fid pointer is not passed, an assign merge record is
       26       26                       created with null fid information pointers.
       27       27                       In the case of an ADJUST command, the building of an
       28       28                       assign merge type record without fid information is
       29       29                       required. Also information specified as options on the
       30       30                       various commands is inserted into the record.
       31       31        */
       32       32        /**********************************************************************/
       33       33        CXB$BLDAM: PROC(BLK$,FID$,GETCMD,CPSL_PARAM) ;

     33  2 000000   000000 700200 xent  CXB$BLDAM    TSX0  ! X66_AUTO_4
         2 000001   000316 000004                    ZERO    206,4
PL6.E3A0      #001=CXB$BLDAM File=CXB$SUBR.:E05TSI                               TUE 07/29/97 12:15 Page:13

       34       34                   %INCLUDE B$JIT;
       35      324                   %INCLUDE CP_6;
       36      405                   %INCLUDE CX_MACROS_M;
       37      456                   %INCLUDE XU_MACRO_C;
       38     3562                   %INCLUDE CX_DATA_R;
       39     4496                   %INCLUDE CX_SUBS_C;
       40     4509                   %INCLUDE CX_ISUBS_C;
       41     4861                   %INCLUDE CX_PERR_C;
       42     4932                   %INCLUDE CP_6_SUBS;
       43     5472                   %INCLUDE XUM_MACRO_C;
       44     5499                   %INCLUDE B_MACROS_C;
       45     5610          /***** Fpts *****/
       46     5611        %CPSL_AMR$PTRS(NAME=AMR$PTRS,STCLASS=BASED);
       47     5616        %FPT_FID(FPTN=FPT_FID,STCLASS=AUTO);
       48     5639        %FPT_OPEN(FPTN=FPT_OPEN,STCLASS=AUTO);
       49     5748        %FPT_OPEN(FPTN=AMR$REC$,STCLASS="BASED(CPSL_SEG3$)",PFMT="PTR");
       50     5857        %VLR_FID(FPTN=FID_RESULTS,STCLASS=AUTO);
       51     5876        %TEXTC(NAME=TEXTC,STCLASS=BASED);
       52     5881        %PARSE$OUT(NAME=OUT$BLK);
       53     5926        %VLP_NAME(FPTN=AM$NAME,STCLASS=BASED,LEN=31);
       54     5953        %VLP_ACCT(FPTN=AM$ACCT,STCLASS=BASED);
       55     5966        %VLP_PASS(FPTN=AM$PASS,STCLASS=BASED);
       56     5979        %VLP_SN(FPTN=AM$SN,N=50,STCLASS=BASED);
       57     5992        %VLP_WSN(FPTN=AM$WSN,STCLASS=BASED);
       58     6005        %VLP_NAME(FPTN=AMR_NAME,STCLASS=AUTO,LEN=31);
       59     6032        %VLP_ACCT(FPTN=AMR_ACCT,STCLASS=AUTO);
       60     6045        %VLP_PASS(FPTN=AMR_PASS,STCLASS=AUTO);
       61     6058        %VLP_WSN(FPTN=AMR_WSN,STCLASS=AUTO);
       62     6071        %VLP_SN(FPTN=AMR_SN,STCLASS=AUTO,N=50);
       63     6084        %XUM$MCB(NAME=MCB,STCLASS=AUTO);
       64     6088          /***** Error codes *****/
       65     6089        %VLP_ERRCODE (FPTN=E_AMFULL,FCG=CX,MID=B,ERR#=E$AMFULL,STCLASS=CONSTANT);
       66     6134          /***** Local variables *****/
       67     6135    1   DCL TEMP$ PTR;                                   /*Temp. Ptr*/
       68     6136    1   DCL BLK$ PTR;                           /*Parse output block ptr*/
       69     6137    1   DCL FID$ PTR;                           /*Pointer to fid*/
PL6.E3A0      #001=CXB$BLDAM File=CXB$SUBR.:E05TSI                               TUE 07/29/97 12:15 Page:14
       70     6138    1   DCL TEMP SBIN WORD;                               /* Temp cell */
       71     6139        %XUG_GETCMD (NAME=GETCMD, STCLASS=PARAM) ;
       72     6477        %CPSL_COMMAND_PARAMETERS (NAME=CPSL_PARAM, STCLASS=PARAM) ;
       73     6495          /***** External routines *****/
       74     6496        %INCLUDE CXG_ENTRY ;
       75     6508    1   DCL CXC$GETSEG ENTRY(2) ;               /*Get data segment*/
       76     6509    1   DCL CXC$RELSEG ENTRY(1);
       77     6510    1   DCL CXB$PROCOPT ENTRY(4) ;              /*Process option*/
       78     6511    1   DCL CXX$CNVRT_FID ENTRY(3) ;
       79     6512    1   DCL CXC$SCREECH ENTRY(2);                        /*Screech*/
       80     6513    1   DCL CXB$RELVPA ENTRY(1);                         /*Release vlp area in *A*/
       81     6514    1   DCL CX_DATA_D ENTRY CONV (5);       /* Force LINK to UNSAT-load data defn's. */
       82     6515    1   DCL X$ALLOCATE ENTRY(1) ALTRET;
       83     6516          /***** Based structures *****/
       84     6517        %B$TCB (STCLASS="BASED(B$TCB$)");
       85     6520        %B$EXCFR;
       86     6538        %EJECT;
PL6.E3A0      #001=CXB$BLDAM File=CXB$SUBR.:E05TSI                               TUE 07/29/97 12:15 Page:15
       87     6539    1     IF CPSL_PARAM.FLAGS.VERIFY_ONLY

   6539  2 000002   200006 470500                    LDP0    @CPSL_PARAM,,AUTO
         2 000003   000001 234100                    SZN     1,,PR0
         2 000004   000021 605000 2                  TPL     s:6545

       88     6540    1         THEN
       89     6541    2             DO ;

       90     6542    2               CALL CXB$PROCOPT(BLK$,MCB,GETCMD,CPSL_PARAM) ;

   6542  2 000005   200006 236100                    LDQ     @CPSL_PARAM,,AUTO
         2 000006   200005 235100                    LDA     @GETCMD,,AUTO
         2 000007   200314 757100                    STAQ    TEMP+4,,AUTO
         2 000010   200276 631500                    EPPR1   MCB,,AUTO
         2 000011   200313 451500                    STP1    TEMP+3,,AUTO
         2 000012   200003 236100                    LDQ     @BLK$,,AUTO
         2 000013   200312 756100                    STQ     TEMP+2,,AUTO
         2 000014   200312 630500                    EPPR0   TEMP+2,,AUTO
         2 000015   000022 631400 xsym               EPPR1   B_VECTNIL+18
         2 000016   000000 701000 xent               TSX1    CXB$PROCOPT
         2 000017   000000 011000                    NOP     0

       91     6543    2               GOTO BLDAMRET ;

   6543  2 000020   000516 710000 2                  TRA     BLDAMRET

       92     6544    2             END ; /* Then Do */
       93     6545    1     CALL CXC$GETSEG(CPSL_SEG3$) ;                    /*Get seg for buffer*/

   6545  2 000021   000000 630400 3                  EPPR0   0
         2 000022   000017 631400 xsym               EPPR1   B_VECTNIL+15
         2 000023   000000 701000 xent               TSX1    CXC$GETSEG
         2 000024   000000 011000                    NOP     0

       94     6546    1     IF CPSL_PARAM.ERRCODE ~= %NO#

PL6.E3A0      #001=CXB$BLDAM File=CXB$SUBR.:E05TSI                               TUE 07/29/97 12:15 Page:16
   6546  2 000025   200006 470500                    LDP0    @CPSL_PARAM,,AUTO
         2 000026   000002 235100                    LDA     2,,PR0
         2 000027   000517 601000 2                  TNZ     CXB$BLDAM50

       95     6547    1         THEN
       96     6548    1             GOTO CXB$BLDAM50 ;
       97     6549        /*
       98     6550          ****  Initialize a/m record with defaults
       99     6551        */
      100     6552    1     AMR$REC$=CPSL_CAMR_REC;

   6552  2 000030   000000 471400 xsym               LDP1    CPSL_SEG3$
         2 000031   000100 100400                    MLR     fill='000'O
         2 000032   000000 000240 xsym               ADSC9   CPSL_CAMR_REC            cn=0,n=160
         2 000033   100000 000240                    ADSC9   0,,PR1                   cn=0,n=160

      101     6553    1     AMR$REC$.V_=PINCRW(CPSL_SEG3$,POFFW(ADDR(AMR$REC$.V),ADDR(AMR$REC$)));

   6553  2 000034   000000 236000 xsym               LDQ     CPSL_SEG3$
         2 000035   000022 772000                    QRL     18
         2 000036   200312 756100                    STQ     TEMP+2,,AUTO
         2 000037   000000 236000 xsym               LDQ     CPSL_SEG3$
         2 000040   000022 036003                    ADLQ    18,DU
         2 000041   000022 772000                    QRL     18
         2 000042   200312 136100                    SBLQ    TEMP+2,,AUTO
         2 000043   000022 736000                    QLS     18
         2 000044   000000 036000 xsym               ADLQ    CPSL_SEG3$
         2 000045   100000 756100                    STQ     0,,PR1

      102     6554        /*
      103     6555          ****  Initialize SEG3   control block
      104     6556        */
      105     6557    1     MCB.FREE_HEAD$=ADDR(NIL);

   6557  2 000046   000001 236000 xsym               LDQ     B_VECTNIL+1
         2 000047   200277 756100                    STQ     MCB+1,,AUTO

PL6.E3A0      #001=CXB$BLDAM File=CXB$SUBR.:E05TSI                               TUE 07/29/97 12:15 Page:17
      106     6558        /*  ****  Reserve two words in a/m for HI_SEGMENT$ and FREE_HEAD$ */
      107     6559    1     MCB.SEGMENT_BASE$=PINCRW(AMR$REC$.V_,SIZEW(AMR$REC$.V)+2);

   6559  2 000050   100000 236100                    LDQ     0,,PR1
         2 000051   000030 036003                    ADLQ    24,DU
         2 000052   200300 756100                    STQ     MCB+2,,AUTO

      108     6560    1     MCB.HI_SEGMENT$=MCB.SEGMENT_BASE$;

   6560  2 000053   200301 756100                    STQ     MCB+3,,AUTO

      109     6561    1     MCB.WKSZ=1024-POFFC(MCB.SEGMENT_BASE$,CPSL_SEG3$); /*# words*/

   6561  2 000054   000000 236000 xsym               LDQ     CPSL_SEG3$
         2 000055   000020 772000                    QRL     16
         2 000056   200312 756100                    STQ     TEMP+2,,AUTO
         2 000057   200300 236100                    LDQ     MCB+2,,AUTO
         2 000060   000020 772000                    QRL     16
         2 000061   200312 136100                    SBLQ    TEMP+2,,AUTO
         2 000062   000027 676000 xsym               ERQ     B_VECTNIL+23
         2 000063   002001 036007                    ADLQ    1025,DL
         2 000064   200302 756100                    STQ     MCB+4,,AUTO

      110     6562    1     MCB.TYPE=0;                           /*Allocate bytes*/

   6562  2 000065   200303 450100                    STZ     MCB+5,,AUTO

      111     6563    1     MCB.MIN_SIZE=0;

   6563  2 000066   200305 450100                    STZ     MCB+7,,AUTO

      112     6564        /*
      113     6565          ****  Init. Fid pointers and M$FID fpt only if FID$ parameter passed.
      114     6566          ****  FID$ isn't passed if modifying existing a/m record via a SET or
      115     6567          ****   Modifying a dcb via an ADJUST.
      116     6568        */
      117     6569    1     IF (ADDR(FID$)~=ADDR(NIL))
PL6.E3A0      #001=CXB$BLDAM File=CXB$SUBR.:E05TSI                               TUE 07/29/97 12:15 Page:18

   6569  2 000067   200004 236100                    LDQ     @FID$,,AUTO
         2 000070   000001 116000 xsym               CMPQ    B_VECTNIL+1
         2 000071   000460 600000 2                  TZE     s:6680

      118     6570    1        THEN
      119     6571    2           DO;

      120     6572    2              FPT_FID = CPSL_CFPT_FID ;

   6572  2 000072   000100 100400                    MLR     fill='000'O
         2 000073   000000 000140 xsym               ADSC9   CPSL_CFPT_FID            cn=0,n=96
         2 000074   200010 000140                    ADSC9   FPT_FID,,AUTO            cn=0,n=96

      121     6573    2              FPT_FID.V_ = VECTOR(FPT_FID.V) ;

   6573  2 000075   000001 235000 3                  LDA     1
         2 000076   200312 452500                    STP2    TEMP+2,,AUTO
         2 000077   200312 236100                    LDQ     TEMP+2,,AUTO
         2 000100   000034 036003                    ADLQ    28,DU
         2 000101   200010 757100                    STAQ    FPT_FID,,AUTO

      122     6574    2              FPT_FID.TEXTFID_=VECTOR(FID$->TEXTC.TEXT);

   6574  2 000102   200004 473500                    LDP3    @FID$,,AUTO
         2 000103   300000 474500                    LDP4    0,,PR3
         2 000104   000100 101500                    MRL     fill='000'O
         2 000105   400000 000001                    ADSC9   0,,PR4                   cn=0,n=1
         2 000106   200312 000002                    ADSC9   TEMP+2,,AUTO             cn=0,n=2
         2 000107   200312 220100                    LDX0    TEMP+2,,AUTO
         2 000110   000000 635010                    EAA     0,X0
         2 000111   000002 771000                    ARL     2
         2 000112   000140 135007                    SBLA    96,DL
         2 000113   200313 454500                    STP4    TEMP+3,,AUTO
         2 000114   200313 236100                    LDQ     TEMP+3,,AUTO
         2 000115   200000 036007                    ADLQ    65536,DL
         2 000116   200012 757100                    STAQ    FPT_FID+2,,AUTO
PL6.E3A0      #001=CXB$BLDAM File=CXB$SUBR.:E05TSI                               TUE 07/29/97 12:15 Page:19

      123     6575    2              FPT_FID.NAME_=VECTOR(AMR_NAME);

   6575  2 000117   000002 235000 3                  LDA     2
         2 000120   200312 452500                    STP2    TEMP+2,,AUTO
         2 000121   200312 236100                    LDQ     TEMP+2,,AUTO
         2 000122   000144 036003                    ADLQ    100,DU
         2 000123   200014 757100                    STAQ    FPT_FID+4,,AUTO

      124     6576    2              FPT_FID.ACCT_=VECTOR(AMR_ACCT);

   6576  2 000124   000003 235000 3                  LDA     3
         2 000125   200312 452500                    STP2    TEMP+2,,AUTO
         2 000126   200312 236100                    LDQ     TEMP+2,,AUTO
         2 000127   000154 036003                    ADLQ    108,DU
         2 000130   200016 757100                    STAQ    FPT_FID+6,,AUTO

      125     6577    2              FPT_FID.PASS_=VECTOR(AMR_PASS);

   6577  2 000131   000003 235000 3                  LDA     3
         2 000132   200312 452500                    STP2    TEMP+2,,AUTO
         2 000133   200312 236100                    LDQ     TEMP+2,,AUTO
         2 000134   000156 036003                    ADLQ    110,DU
         2 000135   200020 757100                    STAQ    FPT_FID+8,,AUTO

      126     6578    2              FPT_FID.WSN_=VECTOR(AMR_WSN);

   6578  2 000136   000003 235000 3                  LDA     3
         2 000137   200312 452500                    STP2    TEMP+2,,AUTO
         2 000140   200312 236100                    LDQ     TEMP+2,,AUTO
         2 000141   000160 036003                    ADLQ    112,DU
         2 000142   200024 757100                    STAQ    FPT_FID+12,,AUTO

      127     6579    2              FPT_FID.SN_=VECTOR(AMR_SN);

   6579  2 000143   000004 235000 3                  LDA     4
         2 000144   200312 452500                    STP2    TEMP+2,,AUTO
PL6.E3A0      #001=CXB$BLDAM File=CXB$SUBR.:E05TSI                               TUE 07/29/97 12:15 Page:20
         2 000145   200312 236100                    LDQ     TEMP+2,,AUTO
         2 000146   000162 036003                    ADLQ    114,DU
         2 000147   200022 757100                    STAQ    FPT_FID+10,,AUTO

      128     6580    2              FPT_FID.ASN_=VECTOR(AMR$REC$.V.ASN#);

   6580  2 000150   177640 235007                    LDA     65440,DL
         2 000151   000000 236000 xsym               LDQ     CPSL_SEG3$
         2 000152   000005 036000 3                  ADLQ    5
         2 000153   200026 757100                    STAQ    FPT_FID+14,,AUTO

      129     6581    2              FPT_FID.RES_=VECTOR(AMR$REC$.V.RES#);

   6581  2 000154   777640 235007                    LDA     -96,DL
         2 000155   000000 236000 xsym               LDQ     CPSL_SEG3$
         2 000156   000026 036003                    ADLQ    22,DU
         2 000157   200030 757100                    STAQ    FPT_FID+16,,AUTO

      130     6582    2              FPT_FID.RESULTS_=VECTOR(FID_RESULTS);

   6582  2 000160   000006 235000 3                  LDA     6
         2 000161   200312 452500                    STP2    TEMP+2,,AUTO
         2 000162   200312 236100                    LDQ     TEMP+2,,AUTO
         2 000163   000132 036003                    ADLQ    90,DU
         2 000164   200032 757100                    STAQ    FPT_FID+18,,AUTO

      131     6583    2              FPT_FID.V.SCRUB.SNAME#=%YES#;

   6583  2 000165   400000 236003                    LDQ     -131072,DU
         2 000166   200034 256100                    ORSQ    FPT_FID+20,,AUTO

      132     6584    2              FPT_FID.V.SCRUB.SACCT#=%YES#;

   6584  2 000167   200000 236003                    LDQ     65536,DU
         2 000170   200034 256100                    ORSQ    FPT_FID+20,,AUTO

      133     6585    2              FPT_FID.V.SCRUB.SPASS#=%YES#;
PL6.E3A0      #001=CXB$BLDAM File=CXB$SUBR.:E05TSI                               TUE 07/29/97 12:15 Page:21

   6585  2 000171   100000 236003                    LDQ     32768,DU
         2 000172   200034 256100                    ORSQ    FPT_FID+20,,AUTO

      134     6586    2              FPT_FID.V.SCRUB.SSN#=%YES#;

   6586  2 000173   040000 236003                    LDQ     16384,DU
         2 000174   200034 256100                    ORSQ    FPT_FID+20,,AUTO

      135     6587    2              FPT_FID.V.SCRUB.SRES#=%YES#;

   6587  2 000175   010000 236003                    LDQ     4096,DU
         2 000176   200034 256100                    ORSQ    FPT_FID+20,,AUTO

      136     6588    2              FPT_FID.V.SCRUB.SWSN#=%YES#;

   6588  2 000177   020000 236003                    LDQ     8192,DU
         2 000200   200034 256100                    ORSQ    FPT_FID+20,,AUTO

      137     6589        /*
      138     6590          ****  Insert fid info. Into the a/m record
      139     6591        */
      140     6592    3              CALL M$FID(FPT_FID) WHENALTRETURN DO;

   6592  2 000201   200010 630500                    EPPR0   FPT_FID,,AUTO
         2 000202   420001 713400                    CLIMB   alt,+8193
         2 000203   404400 401760                    pmme    nvectors=10
         2 000204   000206 702000 2                  TSX2    s:6593
         2 000205   000215 710000 2                  TRA     s:6597

      141     6593    3                 IF BLK$->OUT$BLK.CODE~=SETCMND AND BLK$->OUT$BLK.CODE~=ADJUSTCMND

   6593  2 000206   200003 470500                    LDP0    @BLK$,,AUTO
         2 000207   000000 471500                    LDP1    0,,PR0
         2 000210   100000 720100                    LXL0    0,,PR1
         2 000211   000006 100003                    CMPX0   6,DU
         2 000212   000215 600000 2                  TZE     s:6597
PL6.E3A0      #001=CXB$BLDAM File=CXB$SUBR.:E05TSI                               TUE 07/29/97 12:15 Page:22
         2 000213   000001 100003                    CMPX0   1,DU
         2 000214   000531 601000 2                  TNZ     CXB$BLDAM65

      142     6594    3                    THEN
      143     6595    3                       GOTO CXB$BLDAM65;
      144     6596    3              END;

      145     6597    2              IF (FID_RESULTS.NAME=%YES#)

   6597  2 000215   200132 234100                    SZN     FID_RESULTS,,AUTO
         2 000216   000240 605000 2                  TPL     s:6611

      146     6598    2                 THEN
      147     6599    3                    DO;

      148     6600    3                       MCB.SIZE=AMR_NAME.L#+1;   /*Add one for count*/

   6600  2 000217   200144 236100                    LDQ     AMR_NAME,,AUTO
         2 000220   000033 772000                    QRL     27
         2 000221   000001 036007                    ADLQ    1,DL
         2 000222   200304 756100                    STQ     MCB+6,,AUTO

      149     6601    3                       CALL X$ALLOCATE(MCB) ALTRET(CXB$BLDAM55);

   6601  2 000223   200276 630500                    EPPR0   MCB,,AUTO
         2 000224   200312 450500                    STP0    TEMP+2,,AUTO
         2 000225   200312 630500                    EPPR0   TEMP+2,,AUTO
         2 000226   000017 631400 xsym               EPPR1   B_VECTNIL+15
         2 000227   000000 701000 xent               TSX1    X$ALLOCATE
         2 000230   000523 702000 2                  TSX2    CXB$BLDAM55

      150     6602    3                       AMR$REC$.NAME_=MCB.ADDRESS$;

   6602  2 000231   200276 236100                    LDQ     MCB,,AUTO
         2 000232   000000 470400 xsym               LDP0    CPSL_SEG3$
         2 000233   000003 756100                    STQ     3,,PR0

PL6.E3A0      #001=CXB$BLDAM File=CXB$SUBR.:E05TSI                               TUE 07/29/97 12:15 Page:23
      151     6603    3                       AMR$REC$.NAME_->AM$NAME=AMR_NAME;

   6603  2 000234   000003 471500                    LDP1    3,,PR0
         2 000235   000100 100500                    MLR     fill='000'O
         2 000236   200144 000040                    ADSC9   AMR_NAME,,AUTO           cn=0,n=32
         2 000237   100000 000040                    ADSC9   0,,PR1                   cn=0,n=32

      152     6604    3                    END;

      153     6605        /*
      154     6606          ****   Set account/password if specified, otherwise for ASN=FILE#,
      155     6607          ****   TAPE# or COMGROUP#,
      156     6608          ****   Reset them except when only pack,tape or comgroup was spec'd w/o name,
      157     6609          ****   Account, or password. Assume user wants his dcb unchanged in this case.
      158     6610        */
      159     6611    2              IF (FID_RESULTS.ACCT=%YES#) OR (AMR$REC$.V.ASN#=%FILE#) OR

   6611  2 000240   200132 236100                    LDQ     FID_RESULTS,,AUTO
         2 000241   200000 316003                    CANQ    65536,DU
         2 000242   000254 601000 2                  TNZ     s:6615
         2 000243   000000 470400 xsym               LDP0    CPSL_SEG3$
         2 000244   000023 236100                    LDQ     19,,PR0
         2 000245   000777 376007                    ANQ     511,DL
         2 000246   000001 116007                    CMPQ    1,DL
         2 000247   000254 600000 2                  TZE     s:6615
         2 000250   000002 116007                    CMPQ    2,DL
         2 000251   000254 600000 2                  TZE     s:6615
         2 000252   000004 116007                    CMPQ    4,DL
         2 000253   000313 601000 2                  TNZ     CXB$BLDAM20

      160     6612    2                   (AMR$REC$.V.ASN#=%TAPE#) OR (AMR$REC$.V.ASN#=%COMGROUP#)
      161     6613    2                 THEN
      162     6614    3                    DO;

      163     6615    3                       IF (AMR$REC$.V.ASN#=%FILE#) OR (AMR$REC$.V.ASN#=%TAPE#)

   6615  2 000254   000000 470400 xsym               LDP0    CPSL_SEG3$
PL6.E3A0      #001=CXB$BLDAM File=CXB$SUBR.:E05TSI                               TUE 07/29/97 12:15 Page:24
         2 000255   000023 236100                    LDQ     19,,PR0
         2 000256   000777 376007                    ANQ     511,DL
         2 000257   000001 116007                    CMPQ    1,DL
         2 000260   000265 600000 2                  TZE     s:6618
         2 000261   000002 116007                    CMPQ    2,DL
         2 000262   000265 600000 2                  TZE     s:6618
         2 000263   000004 116007                    CMPQ    4,DL
         2 000264   000313 601000 2                  TNZ     CXB$BLDAM20

      164     6616    3                            OR (AMR$REC$.V.ASN#=%COMGROUP#)
      165     6617    3                          THEN
      166     6618    3                             IF ((FID_RESULTS.NAME=%NO#) AND (FID_RESULTS.ACCT=%NO#)
              6618                                      AND (FID_RESULTS.PASS=%NO#))

   6618  2 000265   200132 234100                    SZN     FID_RESULTS,,AUTO
         2 000266   000274 604000 2                  TMI     s:6623
         2 000267   200132 236100                    LDQ     FID_RESULTS,,AUTO
         2 000270   200000 316003                    CANQ    65536,DU
         2 000271   000274 601000 2                  TNZ     s:6623
         2 000272   100000 316003                    CANQ    32768,DU
         2 000273   000313 600000 2                  TZE     CXB$BLDAM20

      167     6619    3                                THEN
      168     6620    3                                   GOTO CXB$BLDAM20;
      169     6621    3                                ELSE
      170     6622    4                                   DO;

      171     6623    4                                      MCB.SIZE=8;

   6623  2 000274   000010 235007                    LDA     8,DL
         2 000275   200304 755100                    STA     MCB+6,,AUTO

      172     6624    4                                      CALL X$ALLOCATE(MCB) ALTRET(CXB$BLDAM55);

   6624  2 000276   200276 631500                    EPPR1   MCB,,AUTO
         2 000277   200312 451500                    STP1    TEMP+2,,AUTO
         2 000300   200312 630500                    EPPR0   TEMP+2,,AUTO
PL6.E3A0      #001=CXB$BLDAM File=CXB$SUBR.:E05TSI                               TUE 07/29/97 12:15 Page:25
         2 000301   000017 631400 xsym               EPPR1   B_VECTNIL+15
         2 000302   000000 701000 xent               TSX1    X$ALLOCATE
         2 000303   000523 702000 2                  TSX2    CXB$BLDAM55

      173     6625    4                                      AMR$REC$.ACCT_=MCB.ADDRESS$;

   6625  2 000304   200276 236100                    LDQ     MCB,,AUTO
         2 000305   000000 470400 xsym               LDP0    CPSL_SEG3$
         2 000306   000012 756100                    STQ     10,,PR0

      174     6626    4                                      AMR$REC$.ACCT_->AM$ACCT=AMR_ACCT;

   6626  2 000307   000012 471500                    LDP1    10,,PR0
         2 000310   000100 100500                    MLR     fill='000'O
         2 000311   200154 000010                    ADSC9   AMR_ACCT,,AUTO           cn=0,n=8
         2 000312   100000 000010                    ADSC9   0,,PR1                   cn=0,n=8

      175     6627    4                                   END;

      176     6628    3                    END;

   6622  2 000313                       CXB$BLDAM20  null
      177     6629    2   CXB$BLDAM20:  ;
      178     6630    2              IF (FID_RESULTS.ACCT=%YES#) OR (AMR$REC$.V.ASN#=%FILE#) OR

   6630  2 000313   200132 236100                    LDQ     FID_RESULTS,,AUTO
         2 000314   200000 316003                    CANQ    65536,DU
         2 000315   000326 601000 2                  TNZ     s:6634
         2 000316   000023 236100                    LDQ     19,,PR0
         2 000317   000777 376007                    ANQ     511,DL
         2 000320   000001 116007                    CMPQ    1,DL
         2 000321   000326 600000 2                  TZE     s:6634
         2 000322   000002 116007                    CMPQ    2,DL
         2 000323   000326 600000 2                  TZE     s:6634
         2 000324   000004 116007                    CMPQ    4,DL
         2 000325   000364 601000 2                  TNZ     CXB$BLDAM30

PL6.E3A0      #001=CXB$BLDAM File=CXB$SUBR.:E05TSI                               TUE 07/29/97 12:15 Page:26
      179     6631    2                   (AMR$REC$.V.ASN#=%TAPE#) OR (AMR$REC$.V.ASN#=%COMGROUP#)
      180     6632    2                 THEN
      181     6633    3                    DO;

      182     6634    3                       IF (AMR$REC$.V.ASN#=%FILE#) OR (AMR$REC$.V.ASN#=%TAPE#)

   6634  2 000326   000023 236100                    LDQ     19,,PR0
         2 000327   000777 376007                    ANQ     511,DL
         2 000330   000001 116007                    CMPQ    1,DL
         2 000331   000336 600000 2                  TZE     s:6637
         2 000332   000002 116007                    CMPQ    2,DL
         2 000333   000336 600000 2                  TZE     s:6637
         2 000334   000004 116007                    CMPQ    4,DL
         2 000335   000364 601000 2                  TNZ     CXB$BLDAM30

      183     6635    3                            OR (AMR$REC$.V.ASN#=%COMGROUP#)
      184     6636    3                          THEN
      185     6637    3                             IF ((FID_RESULTS.NAME=%NO#) AND (FID_RESULTS.ACCT=%NO#)
              6637                                      AND (FID_RESULTS.PASS=%NO#))

   6637  2 000336   200132 234100                    SZN     FID_RESULTS,,AUTO
         2 000337   000345 604000 2                  TMI     s:6642
         2 000340   200132 236100                    LDQ     FID_RESULTS,,AUTO
         2 000341   200000 316003                    CANQ    65536,DU
         2 000342   000345 601000 2                  TNZ     s:6642
         2 000343   100000 316003                    CANQ    32768,DU
         2 000344   000364 600000 2                  TZE     CXB$BLDAM30

      186     6638    3                                THEN
      187     6639    3                                   GOTO CXB$BLDAM30;
      188     6640    3                                ELSE
      189     6641    4                                   DO;

      190     6642    4                                      MCB.SIZE=8;

   6642  2 000345   000010 235007                    LDA     8,DL
         2 000346   200304 755100                    STA     MCB+6,,AUTO
PL6.E3A0      #001=CXB$BLDAM File=CXB$SUBR.:E05TSI                               TUE 07/29/97 12:15 Page:27

      191     6643    4                                      CALL X$ALLOCATE(MCB) ALTRET(CXB$BLDAM55);

   6643  2 000347   200276 631500                    EPPR1   MCB,,AUTO
         2 000350   200312 451500                    STP1    TEMP+2,,AUTO
         2 000351   200312 630500                    EPPR0   TEMP+2,,AUTO
         2 000352   000017 631400 xsym               EPPR1   B_VECTNIL+15
         2 000353   000000 701000 xent               TSX1    X$ALLOCATE
         2 000354   000523 702000 2                  TSX2    CXB$BLDAM55

      192     6644    4                                      AMR$REC$.PASS_=MCB.ADDRESS$;

   6644  2 000355   200276 236100                    LDQ     MCB,,AUTO
         2 000356   000000 470400 xsym               LDP0    CPSL_SEG3$
         2 000357   000004 756100                    STQ     4,,PR0

      193     6645    4                                      AMR$REC$.PASS_->AM$PASS=AMR_PASS;

   6645  2 000360   000004 471500                    LDP1    4,,PR0
         2 000361   000100 100500                    MLR     fill='000'O
         2 000362   200156 000010                    ADSC9   AMR_PASS,,AUTO           cn=0,n=8
         2 000363   100000 000010                    ADSC9   0,,PR1                   cn=0,n=8

      194     6646    4                                   END;

      195     6647    3                    END;

   6641  2 000364                       CXB$BLDAM30  null
      196     6648    2   CXB$BLDAM30:  ;
      197     6649    2              IF (FID_RESULTS.WSN=%YES#)

   6649  2 000364   200132 236100                    LDQ     FID_RESULTS,,AUTO
         2 000365   020000 316003                    CANQ    8192,DU
         2 000366   000406 600000 2                  TZE     s:6657

      198     6650    2                 THEN
      199     6651    3                    DO;
PL6.E3A0      #001=CXB$BLDAM File=CXB$SUBR.:E05TSI                               TUE 07/29/97 12:15 Page:28

      200     6652    3                       MCB.SIZE=8;

   6652  2 000367   000010 235007                    LDA     8,DL
         2 000370   200304 755100                    STA     MCB+6,,AUTO

      201     6653    3                       CALL X$ALLOCATE(MCB) ALTRET(CXB$BLDAM55);

   6653  2 000371   200276 631500                    EPPR1   MCB,,AUTO
         2 000372   200312 451500                    STP1    TEMP+2,,AUTO
         2 000373   200312 630500                    EPPR0   TEMP+2,,AUTO
         2 000374   000017 631400 xsym               EPPR1   B_VECTNIL+15
         2 000375   000000 701000 xent               TSX1    X$ALLOCATE
         2 000376   000523 702000 2                  TSX2    CXB$BLDAM55

      202     6654    3                       AMR$REC$.WSN_=MCB.ADDRESS$;

   6654  2 000377   200276 236100                    LDQ     MCB,,AUTO
         2 000400   000000 470400 xsym               LDP0    CPSL_SEG3$
         2 000401   000015 756100                    STQ     13,,PR0

      203     6655    3                       AMR$REC$.WSN_->AM$WSN=AMR_WSN;

   6655  2 000402   000015 471500                    LDP1    13,,PR0
         2 000403   000100 100500                    MLR     fill='000'O
         2 000404   200160 000010                    ADSC9   AMR_WSN,,AUTO            cn=0,n=8
         2 000405   100000 000010                    ADSC9   0,,PR1                   cn=0,n=8

      204     6656    3                    END;

      205     6657    2              IF (FID_RESULTS.SN=%YES#) OR (AMR$REC$.V.ASN#=%COMGROUP#) OR

   6657  2 000406   200132 236100                    LDQ     FID_RESULTS,,AUTO
         2 000407   040000 316003                    CANQ    16384,DU
         2 000410   000417 601000 2                  TNZ     s:6665
         2 000411   000023 236100                    LDQ     19,,PR0
         2 000412   000777 376007                    ANQ     511,DL
PL6.E3A0      #001=CXB$BLDAM File=CXB$SUBR.:E05TSI                               TUE 07/29/97 12:15 Page:29
         2 000413   000004 116007                    CMPQ    4,DL
         2 000414   000417 600000 2                  TZE     s:6665
         2 000415   000001 116007                    CMPQ    1,DL
         2 000416   000460 601000 2                  TNZ     s:6680

      206     6658    2                   (AMR$REC$.V.ASN#=%FILE#)
      207     6659    2                 THEN
      208     6660    3                    DO;

      209     6661        /*
      210     6662          ****  If no SN spec'd, create one consisting of blanks to
      211     6663          ****  Indicate SN's in dcb are to be reset.
      212     6664        */
      213     6665    3                       IF AMR_SN.NUM#=0

   6665  2 000417   200162 235100                    LDA     AMR_SN,,AUTO
         2 000420   000423 601000 2                  TNZ     s:6668

      214     6666    3                          THEN
      215     6667    3                             AMR_SN.NUM#=1;         /*Init. To one*/

   6667  2 000421   000001 236007                    LDQ     1,DL
         2 000422   200162 756100                    STQ     AMR_SN,,AUTO

      216     6668    3                       MCB.SIZE=(AMR_SN.NUM#*6)+4; /*Add 4 for sn count*/

   6668  2 000423   200162 236100                    LDQ     AMR_SN,,AUTO
         2 000424   000006 402007                    MPY     6,DL
         2 000425   000004 036007                    ADLQ    4,DL
         2 000426   200304 756100                    STQ     MCB+6,,AUTO

      217     6669    3                       CALL X$ALLOCATE(MCB) ALTRET(CXB$BLDAM55);

   6669  2 000427   200276 631500                    EPPR1   MCB,,AUTO
         2 000430   200312 451500                    STP1    TEMP+2,,AUTO
         2 000431   200312 630500                    EPPR0   TEMP+2,,AUTO
         2 000432   000017 631400 xsym               EPPR1   B_VECTNIL+15
PL6.E3A0      #001=CXB$BLDAM File=CXB$SUBR.:E05TSI                               TUE 07/29/97 12:15 Page:30
         2 000433   000000 701000 xent               TSX1    X$ALLOCATE
         2 000434   000523 702000 2                  TSX2    CXB$BLDAM55

      218     6670    3                       AMR$REC$.SN_=MCB.ADDRESS$;

   6670  2 000435   200276 236100                    LDQ     MCB,,AUTO
         2 000436   000000 470400 xsym               LDP0    CPSL_SEG3$
         2 000437   000001 756100                    STQ     1,,PR0

      219     6671    3                       AMR$REC$.SN_->AM$SN.NUM#=AMR_SN.NUM#;

   6671  2 000440   000001 471500                    LDP1    1,,PR0
         2 000441   200162 235100                    LDA     AMR_SN,,AUTO
         2 000442   100000 755100                    STA     0,,PR1

      220     6672    4                       DO TEMP = 0 TO AMR_SN.NUM#-1;

   6672  2 000443   200310 450100                    STZ     TEMP,,AUTO
         2 000444   000455 710000 2                  TRA     s:6674+1

      221     6673    4                          AMR$REC$.SN_->AM$SN.SN#(TEMP)=AMR_SN.SN#(TEMP);

   6673  2 000445   000000 470400 xsym               LDP0    CPSL_SEG3$
         2 000446   000001 471500                    LDP1    1,,PR0
         2 000447   200310 236100                    LDQ     TEMP,,AUTO
         2 000450   000006 402007                    MPY     6,DL
         2 000451   040106 100506                    MLR     fill='040'O
         2 000452   200163 000006                    ADSC9   AMR_SN+1,Q,AUTO          cn=0,n=6
         2 000453   100001 000006                    ADSC9   1,Q,PR1                  cn=0,n=6

      222     6674    4                       END;

   6674  2 000454   200310 054100                    AOS     TEMP,,AUTO
         2 000455   200310 236100                    LDQ     TEMP,,AUTO
         2 000456   200162 116100                    CMPQ    AMR_SN,,AUTO
         2 000457   000445 604000 2                  TMI     s:6673

PL6.E3A0      #001=CXB$BLDAM File=CXB$SUBR.:E05TSI                               TUE 07/29/97 12:15 Page:31
      223     6675    3                    END;

      224     6676    2           END;

      225     6677        /*
      226     6678          **** Process options if present on SET or ADJUST command
      227     6679        */
      228     6680    1     IF ((BLK$->OUT$BLK.CODE=SETCMND)

   6680  2 000460   200003 470500                    LDP0    @BLK$,,AUTO
         2 000461   000000 471500                    LDP1    0,,PR0
         2 000462   100000 720100                    LXL0    0,,PR1
         2 000463   000006 100003                    CMPX0   6,DU
         2 000464   000467 600000 2                  TZE     s:6684
         2 000465   000001 100003                    CMPX0   1,DU
         2 000466   000505 601000 2                  TNZ     s:6692

      229     6681    1          OR (BLK$->OUT$BLK.CODE=ADJUSTCMND))
      230     6682    1        THEN
      231     6683    2             DO ;

      232     6684    2               CALL CXB$PROCOPT(BLK$,MCB,GETCMD,CPSL_PARAM) ;

   6684  2 000467   200006 236100                    LDQ     @CPSL_PARAM,,AUTO
         2 000470   200005 235100                    LDA     @GETCMD,,AUTO
         2 000471   200314 757100                    STAQ    TEMP+4,,AUTO
         2 000472   200276 631500                    EPPR1   MCB,,AUTO
         2 000473   200313 451500                    STP1    TEMP+3,,AUTO
         2 000474   200003 236100                    LDQ     @BLK$,,AUTO
         2 000475   200312 756100                    STQ     TEMP+2,,AUTO
         2 000476   200312 630500                    EPPR0   TEMP+2,,AUTO
         2 000477   000022 631400 xsym               EPPR1   B_VECTNIL+18
         2 000500   000000 701000 xent               TSX1    CXB$PROCOPT
         2 000501   000000 011000                    NOP     0

      233     6685    2               IF CPSL_PARAM.ERRCODE ~= %NO#

PL6.E3A0      #001=CXB$BLDAM File=CXB$SUBR.:E05TSI                               TUE 07/29/97 12:15 Page:32
   6685  2 000502   200006 470500                    LDP0    @CPSL_PARAM,,AUTO
         2 000503   000002 235100                    LDA     2,,PR0
         2 000504   000540 601000 2                  TNZ     CXB$BLDAM70

      234     6686    2                 THEN
      235     6687    2                   GOTO CXB$BLDAM70 ;
      236     6688    2             END ; /* Then Do */

      237     6689        /*
      238     6690          ****  Save HI_SEGMENT$ and FREE_HEAD$ in *A for subsequent use
      239     6691        */
      240     6692    1     TEMP$=PINCRW(AMR$REC$.V_,SIZEW(AMR$REC$.V));

   6692  2 000505   000000 470400 xsym               LDP0    CPSL_SEG3$
         2 000506   000000 236100                    LDQ     0,,PR0
         2 000507   000026 036003                    ADLQ    22,DU
         2 000510   200307 756100                    STQ     TEMP$,,AUTO

      241     6693    1     TEMP$->AMR$PTRS.HI_SEGMENT$=MCB.HI_SEGMENT$;

   6693  2 000511   200301 236100                    LDQ     MCB+3,,AUTO
         2 000512   200307 471500                    LDP1    TEMP$,,AUTO
         2 000513   100000 756100                    STQ     0,,PR1

      242     6694    1     TEMP$->AMR$PTRS.FREE_HEAD$=MCB.FREE_HEAD$;

   6694  2 000514   200277 236100                    LDQ     MCB+1,,AUTO
         2 000515   100001 756100                    STQ     1,,PR1

      243     6695    1   BLDAMRET:
      244     6696    1     RETURN;

   6696  2 000516   000000 702200 xent  BLDAMRET     TSX2  ! X66_ARET

   6694  2 000517                       CXB$BLDAM50  null
      245     6697
      246     6698    1   CXB$BLDAM50:;
PL6.E3A0      #001=CXB$BLDAM File=CXB$SUBR.:E05TSI                               TUE 07/29/97 12:15 Page:33
      247     6699    1     CALL CXC$SCREECH(E$SUASEG,'B');

   6699  2 000517   000011 630400 3                  EPPR0   9
         2 000520   000020 631400 xsym               EPPR1   B_VECTNIL+16
         2 000521   000000 701000 xent               TSX1    CXC$SCREECH
         2 000522   000000 011000                    NOP     0

   6694  2 000523                       CXB$BLDAM55  null
      248     6700        /*E*    ERROR:   CXB-E$SUASEG-A
      249     6701                MESSAGE:  Command Processor ABORT:  Unable to obtain data segment.
      250     6702                                       JIT.ERR follows.
      251     6703                DESCRIPTION: Command Processor was unable to get a data segment used
      252     6704                             for the purpose of creating the assign merge record.
      253     6705        */
      254     6706    1   CXB$BLDAM55:;
      255     6707    1     CPSL_PARAM.ERRCODE = E_AMFULL ;

   6707  2 000523   000000 236000 1                  LDQ     E_AMFULL
         2 000524   200006 470500                    LDP0    @CPSL_PARAM,,AUTO
         2 000525   000002 756100                    STQ     2,,PR0

      256     6708    1     CPSL_PARAM.FLAGS.REPORTED_TO_USER = %NO# ;

   6708  2 000526   000013 236000 3                  LDQ     11
         2 000527   000001 356100                    ANSQ    1,,PR0

      257     6709    1     GOTO BLDAMRET ;

   6709  2 000530   000516 710000 2                  TRA     BLDAMRET

   6708  2 000531                       CXB$BLDAM65  null
      258     6710        /* Error message output by called routine if Command Processor detected ERROR.*/
      259     6711        /* Pass it through CPSL_PARAM.ERRCODE for the Command Processor to output. */
      260     6712        /* By a common error printing routine in Command Procesor. */
      261     6713    1   CXB$BLDAM65:;
      262     6714    1     CPSL_PARAM.ERRCODE = B$TCB.ALT$ -> B$EXCFR.ERR;

PL6.E3A0      #001=CXB$BLDAM File=CXB$SUBR.:E05TSI                               TUE 07/29/97 12:15 Page:34
   6714  2 000531   000000 473400 xsym               LDP3    B$TCB$
         2 000532   300000 474500                    LDP4    0,,PR3
         2 000533   400102 236100                    LDQ     66,,PR4
         2 000534   200006 475500                    LDP5    @CPSL_PARAM,,AUTO
         2 000535   500002 756100                    STQ     2,,PR5

      263     6715    1     CPSL_PARAM.FLAGS.REPORTED_TO_USER = %NO# ;

   6715  2 000536   000013 236000 3                  LDQ     11
         2 000537   500001 356100                    ANSQ    1,,PR5

   6715  2 000540                       CXB$BLDAM70  null
      264     6716    1   CXB$BLDAM70:;
      265     6717    1     CALL CXC$RELSEG (CPSL_SEG3$);

   6717  2 000540   000000 630400 3                  EPPR0   0
         2 000541   000017 631400 xsym               EPPR1   B_VECTNIL+15
         2 000542   000000 701000 xent               TSX1    CXC$RELSEG
         2 000543   000000 011000                    NOP     0

      266     6718    1     GOTO BLDAMRET ;

   6718  2 000544   000516 710000 2                  TRA     BLDAMRET
      267     6719    1   END CXB$BLDAM;
      268     6720                   %EOD;

PL6.E3A0      #001=CXB$BLDAM File=CXB$SUBR.:E05TSI                               TUE 07/29/97 12:15 Page:35
--  Include file information  --

   CXG_ENTRY.:E05TOU  cannot be made into a system file and is referenced.
   B_MACROS_C.:E05TOU  is referenced.
   XUM_MACRO_C.:E05TOU  is referenced.
   CP_6_SUBS.:E05TOU  is referenced.
   CX_PERR_C.:E05TOU  is referenced.
   CX_ISUBS_C.:E05TOU  is referenced.
   CX_SUBS_C.:E05TOU  is referenced.
   CX_DATA_R.:E05TOU  cannot be made into a system file and is referenced.
   XU_MACRO_C.:E05TOU  is referenced.
   CX_MACROS_M.:E05TOU  is referenced.
   CP_6.:E05TOU  cannot be made into a system file and is referenced.
   B$JIT.:E05TOU  cannot be made into a system file and is referenced.
   B$JIT_C.:E05TOU  was found in the system file and is referenced.
   CP_6_C.:E05TOU  was found in the system file and is referenced.
      No diagnostics issued in procedure CXB$BLDAM.
PL6.E3A0      #001=CXB$BLDAM File=CXB$SUBR.:E05TSI                               TUE 07/29/97 12:15 Page:36

 **** Variables and constants ****

  ****  Section 001 RoData CXB$BLDAM

  ****  Scalars and arrays  ****
OctLoc.c.b A Datatyp(siz) R M Lvl/name                 OctLoc.c.b A Datatyp(siz) R M Lvl/name

     0-0-0/w STRC        r     1 E_AMFULL

  ****  Auto variables  ****

  ****  Scalars and arrays  ****
OctLoc.c.b A Datatyp(siz) R M Lvl/name                 OctLoc.c.b A Datatyp(siz) R M Lvl/name

     3-0-0/w PTR         r     1 @BLK$                      6-0-0/w PTR         r     1 @CPSL_PARAM
     4-0-0/w PTR         r     1 @FID$                      5-0-0/w PTR         r     1 @GETCMD
   154-0-0/c STRC(72)    r     1 AMR_ACCT                 144-0-0/c STRC(288)   r     1 AMR_NAME
   156-0-0/c STRC(72)    r     1 AMR_PASS                 162-0-0/d STRC(2736)  r     1 AMR_SN
   160-0-0/c STRC(72)    r     1 AMR_WSN                   *0-0-0/w PTR         r     1 BLK$
    *0-0-0/w STRC(180)   r     1 CPSL_PARAM                *0-0-0/w PTR         r     1 FID$
   132-0-0/d STRC(324)   r     1 FID_RESULTS               10-0-0/d STRC(864)   r     1 FPT_FID
    *0-0-0/d STRC(1512)  r     1 GETCMD                   276-0-0/w STRC(324)   r     1 MCB
   310-0-0/w SBIN        r     1 TEMP                     307-0-0/w PTR         r     1 TEMP$

  ****  SYMREF variables  ****

  ****  Scalars and arrays  ****
OctLoc.c.b A Datatyp(siz) R M Lvl/name                 OctLoc.c.b A Datatyp(siz) R M Lvl/name

     0-0-0/w PTR         r     1 B$JIT$                     0-0-0/w PTR         r     1 B$TCB$
     0-0-0/d STRC(2088)  r     1 CPSL_CAMR_REC              0-0-0/d STRC(864)   r     1 CPSL_CFPT_FID
     0-0-0/w PTR         r     1 CPSL_SEG3$

  ****  BASED and DCB variables  ****

  ****  Scalars and arrays  ****
OctLoc.c.b A Datatyp(siz) R M Lvl/name                 OctLoc.c.b A Datatyp(siz) R M Lvl/name
PL6.E3A0      #001=CXB$BLDAM File=CXB$SUBR.:E05TSI                               TUE 07/29/97 12:15 Page:37

     0-0-0/c STRC(72)    r     1 AM$ACCT                    0-0-0/c STRC(288)   r     1 AM$NAME
     0-0-0/c STRC(72)    r     1 AM$PASS                    0-0-0/d STRC(2736)  r     1 AM$SN
     0-0-0/c STRC(72)    r     1 AM$WSN                     0-0-0/w STRC(72)    r     1 AMR$PTRS
     0-0-0/d STRC(1440)  r     1 AMR$REC$                   0-0-0/w STRC(2448)  r     1 B$EXCFR
     0-0-0/w STRC(144)   r     1 B$TCB                      0-0-0/w STRC(144)   r     1 OUT$BLK
     0-0-0/c ASTR(9)     r     1 TEXTC


   Procedure CXB$BLDAM requires 357 words for executable code.
   Procedure CXB$BLDAM requires 206 words of local(AUTO) storage.
PL6.E3A0      #001=CXB$BLDAM File=CXB$SUBR.:E05TSI                               TUE 07/29/97 12:15 Page:38
          *** CROSS REFERENCE LISTING ***
**     DENOTES     IDENTIFIER DEFINITION
<<                 IDENTIFIER'S VALUE SET
>>                 IDENTIFIER'S VALUE USED
<>                 IDENTIFIER SET AND/OR USED
--                 IDENTIFIER REFERENCED
PL6.E3A0      #001=CXB$BLDAM File=CXB$SUBR.:E05TSI                               TUE 07/29/97 12:15 Page:39
          MINI XREF LISTING

AM$ACCT
      5964**DCL      6626<<ASSIGN
AM$NAME
      5951**DCL      6603<<ASSIGN
AM$PASS
      5977**DCL      6645<<ASSIGN
AM$SN.NUM#
      5990**DCL      6671<<ASSIGN
AM$SN.SN#
      5990**DCL      6673<<ASSIGN
AM$WSN
      6003**DCL      6655<<ASSIGN
AMR$PTRS.FREE_HEAD$
      5614**DCL      6694<<ASSIGN
AMR$PTRS.HI_SEGMENT$
      5613**DCL      6693<<ASSIGN
AMR$REC$
      5813**DCL      6552<<ASSIGN   6553--ASSIGN
AMR$REC$.ACCT_
      5817**DCL      6625<<ASSIGN   6626>>ASSIGN
AMR$REC$.ACSVEH_
      5815**DCL      5816--REDEF
AMR$REC$.ALTKEYS_
      5821**DCL      5822--REDEF    5822--REDEF
AMR$REC$.HDR_
      5820**DCL      5821--REDEF
AMR$REC$.NAME_
      5814**DCL      6602<<ASSIGN   6603>>ASSIGN
AMR$REC$.PASS_
      5815**DCL      6644<<ASSIGN   6645>>ASSIGN
AMR$REC$.SN_
      5813**DCL      6670<<ASSIGN   6671>>ASSIGN   6673>>ASSIGN
PL6.E3A0      #001=CXB$BLDAM File=CXB$SUBR.:E05TSI                               TUE 07/29/97 12:15 Page:40
AMR$REC$.TAB_
      5819**DCL      5820--REDEF
AMR$REC$.UHL_
      5813**DCL      5814--REDEF    5814--REDEF
AMR$REC$.V
      5822**DCL      6553--ASSIGN   6559--ASSIGN   6692--ASSIGN
AMR$REC$.V.ASN#
      5832**DCL      6580--ASSIGN   6611>>IF       6611>>IF       6611>>IF       6615>>IF       6615>>IF
      6615>>IF       6630>>IF       6630>>IF       6630>>IF       6634>>IF       6634>>IF       6634>>IF
      6657>>IF       6657>>IF
AMR$REC$.V.FSN#
      5853**DCL      5853--REDEF    5853--REDEF
AMR$REC$.V.RES#
      5837**DCL      6581--ASSIGN
AMR$REC$.V_
      5813**DCL      6553<<ASSIGN   6559>>ASSIGN   6692>>ASSIGN
AMR$REC$.WSN_
      5819**DCL      5819--REDEF    6654<<ASSIGN   6655>>ASSIGN
AMR_ACCT
      6043**DCL      6576--ASSIGN   6626>>ASSIGN
AMR_NAME
      6030**DCL      6575--ASSIGN   6603>>ASSIGN
AMR_NAME.L#
      6030**DCL      6600>>ASSIGN
AMR_PASS
      6056**DCL      6577--ASSIGN   6645>>ASSIGN
AMR_SN
      6082**DCL      6579--ASSIGN
AMR_SN.NUM#
      6082**DCL      6665>>IF       6667<<ASSIGN   6668>>ASSIGN   6671>>ASSIGN   6672>>DOINDEX
AMR_SN.SN#
      6082**DCL      6673>>ASSIGN
AMR_WSN
      6069**DCL      6578--ASSIGN   6655>>ASSIGN
B$EXCFR.ASL
      6521**DCL      6521--REDEF
PL6.E3A0      #001=CXB$BLDAM File=CXB$SUBR.:E05TSI                               TUE 07/29/97 12:15 Page:41
B$EXCFR.ERR
      6535**DCL      6714>>ASSIGN
B$EXCFR.ERR.ERR#
      6535**DCL      6535--REDEF
B$EXCFR.EVID
      6534**DCL      6534--REDEF    6535--REDEF
B$EXCFR.IR
      6522**DCL      6522--REDEF
B$EXCFR.PREVSZ
      6521**DCL      6521--REDEF
B$EXCFR.SUBC
      6533**DCL      6533--REDEF    6534--REDEF    6534--REDEF
B$JIT.CPFLAGS1.SLEAZE
       142**DCL       142--REDEF
B$JIT.ERR.MID
        49**DCL        49--REDEF
B$JIT.JRESPEAK
       210**DCL       211--REDEF
B$JIT.ORIGINATOR_PORT.FROM_CR
       319**DCL       319--REDEF     320--REDEF
B$JIT.PNR
       223**DCL       223--REDEF
B$JIT.TSLINE
       317**DCL       318--REDEF
B$JIT$
      4463**DCL        43--IMP-PTR
B$TCB.ALT$
      6518**DCL      6714>>ASSIGN
B$TCB$
      4464**DCL      6518--IMP-PTR  6714>>ASSIGN
BLDAMRET
      6696**LABEL    6543--GOTO     6709--GOTO     6718--GOTO
BLK$
      6136**DCL        33--PROC     5887--IMP-PTR  6542<>CALL     6593>>IF       6593>>IF       6680>>IF
      6680>>IF       6684<>CALL
CPSL_CAMR_REC
PL6.E3A0      #001=CXB$BLDAM File=CXB$SUBR.:E05TSI                               TUE 07/29/97 12:15 Page:42
      3749**DCL      6552>>ASSIGN
CPSL_CAMR_REC.ACSVEH_
      3751**DCL      3752--REDEF
CPSL_CAMR_REC.ALTKEYS_
      3757**DCL      3758--REDEF    3758--REDEF
CPSL_CAMR_REC.HDR_
      3756**DCL      3757--REDEF
CPSL_CAMR_REC.TAB_
      3755**DCL      3756--REDEF
CPSL_CAMR_REC.UHL_
      3749**DCL      3750--REDEF    3750--REDEF
CPSL_CAMR_REC.V.FSN#
      3789**DCL      3789--REDEF    3789--REDEF
CPSL_CAMR_REC.WSN_
      3755**DCL      3755--REDEF
CPSL_CFPT_CLOSE.SN_
      3816**DCL      3816--REDEF
CPSL_CFPT_CLOSE.UTL_
      3817**DCL      3817--REDEF
CPSL_CFPT_CLOSE.V.EXPIRE#
      3831**DCL      3831--REDEF
CPSL_CFPT_CLOSE.V.TYPE#
      3829**DCL      3829--REDEF
CPSL_CFPT_CLOSE.V.XTNSIZE#
      3826**DCL      3826--REDEF    3828--REDEF
CPSL_CFPT_FID
      3995**DCL      6572>>ASSIGN
CPSL_CFPT_OPEN.ACSVEH_
      3642**DCL      3643--REDEF
CPSL_CFPT_OPEN.ALTKEYS_
      3648**DCL      3649--REDEF    3649--REDEF
CPSL_CFPT_OPEN.HDR_
      3647**DCL      3648--REDEF
CPSL_CFPT_OPEN.TAB_
      3646**DCL      3647--REDEF
CPSL_CFPT_OPEN.UHL_
PL6.E3A0      #001=CXB$BLDAM File=CXB$SUBR.:E05TSI                               TUE 07/29/97 12:15 Page:43
      3640**DCL      3641--REDEF    3641--REDEF
CPSL_CFPT_OPEN.V.FSN#
      3680**DCL      3680--REDEF    3680--REDEF
CPSL_CFPT_OPEN.WSN_
      3646**DCL      3646--REDEF
CPSL_CFPT_READ.STATION_
      3855**DCL      3856--REDEF
CPSL_CFPT_READ.V.DVBYTE.REREAD#
      3867**DCL      3867--REDEF
CPSL_CFPT_READ.V.INDX#
      3865**DCL      3865--REDEF
CPSL_CFPT_WRITE.STATION_
      3893**DCL      3893--REDEF
CPSL_CFPT_WRITE.V.DVBYTE.VFC#
      3900**DCL      3900--REDEF
CPSL_CVLP_TRMCTL.BREAKCOUNT
      4284**DCL      4285--REDEF
CPSL_CVLP_WINDOW.FWINDOW#
      4380**DCL      4380--REDEF    4381--REDEF
CPSL_PARAM
      6478**DCL        33--PROC     6542<>CALL     6684<>CALL
CPSL_PARAM.ERRCODE
      6486**DCL      6546>>IF       6685>>IF       6707<<ASSIGN   6714<<ASSIGN
CPSL_PARAM.FLAGS.REPORTED_TO_USER
      6483**DCL      6708<<ASSIGN   6715<<ASSIGN
CPSL_PARAM.FLAGS.VERIFY_ONLY
      6481**DCL      6539>>IF
CPSL_SEG3$
      4466**DCL      5813--IMP-PTR  6545<>CALL     6552>>ASSIGN   6553>>ASSIGN   6553>>ASSIGN   6553>>ASSIGN
      6553>>ASSIGN   6559>>ASSIGN   6561>>ASSIGN   6580>>ASSIGN   6581>>ASSIGN   6602>>ASSIGN   6603>>ASSIGN
      6611>>IF       6611>>IF       6611>>IF       6615>>IF       6615>>IF       6615>>IF       6625>>ASSIGN
      6626>>ASSIGN   6630>>IF       6630>>IF       6630>>IF       6634>>IF       6634>>IF       6634>>IF
      6644>>ASSIGN   6645>>ASSIGN   6654>>ASSIGN   6655>>ASSIGN   6657>>IF       6657>>IF       6670>>ASSIGN
      6671>>ASSIGN   6673>>ASSIGN   6692>>ASSIGN   6717<>CALL
CXB$BLDAM20
      6622**LABEL    6620--GOTO
PL6.E3A0      #001=CXB$BLDAM File=CXB$SUBR.:E05TSI                               TUE 07/29/97 12:15 Page:44
CXB$BLDAM30
      6641**LABEL    6639--GOTO
CXB$BLDAM50
      6694**LABEL    6548--GOTO
CXB$BLDAM55
      6694**LABEL    6601--CALLALT  6624--CALLALT  6643--CALLALT  6653--CALLALT  6669--CALLALT
CXB$BLDAM65
      6708**LABEL    6595--GOTO
CXB$BLDAM70
      6715**LABEL    6687--GOTO
CXB$PROCOPT
      6510**DCL-ENT  6542--CALL     6684--CALL
CXC$GETSEG
      6508**DCL-ENT  6545--CALL
CXC$RELSEG
      6509**DCL-ENT  6717--CALL
CXC$SCREECH
      6512**DCL-ENT  6699--CALL
E_AMFULL
      6101**DCL      6707>>ASSIGN
FID$
      6137**DCL        33--PROC     6569--IF       6574>>ASSIGN   6574>>ASSIGN
FID_RESULTS
      5868**DCL      6582--ASSIGN
FID_RESULTS.ACCT
      5868**DCL      6611>>IF       6618>>IF       6630>>IF       6637>>IF
FID_RESULTS.NAME
      5868**DCL      6597>>IF       6618>>IF       6637>>IF
FID_RESULTS.PASS
      5868**DCL      6618>>IF       6637>>IF
FID_RESULTS.SN
      5868**DCL      6657>>IF
FID_RESULTS.WSN
      5868**DCL      6649>>IF
FPT_FID
      5627**DCL      6572<<ASSIGN   6592<>CALL
PL6.E3A0      #001=CXB$BLDAM File=CXB$SUBR.:E05TSI                               TUE 07/29/97 12:15 Page:45
FPT_FID.ACCT_
      5628**DCL      6576<<ASSIGN
FPT_FID.ASN_
      5630**DCL      6580<<ASSIGN
FPT_FID.NAME_
      5628**DCL      6575<<ASSIGN
FPT_FID.PASS_
      5628**DCL      6577<<ASSIGN
FPT_FID.RESULTS_
      5630**DCL      6582<<ASSIGN
FPT_FID.RES_
      5630**DCL      6581<<ASSIGN
FPT_FID.SN_
      5629**DCL      6579<<ASSIGN
FPT_FID.TEXTFID_
      5627**DCL      6574<<ASSIGN
FPT_FID.V
      5631**DCL      6573--ASSIGN
FPT_FID.V.SCRUB.SACCT#
      5631**DCL      6584<<ASSIGN
FPT_FID.V.SCRUB.SNAME#
      5631**DCL      6583<<ASSIGN
FPT_FID.V.SCRUB.SPASS#
      5632**DCL      6585<<ASSIGN
FPT_FID.V.SCRUB.SRES#
      5633**DCL      6587<<ASSIGN
FPT_FID.V.SCRUB.SSN#
      5632**DCL      6586<<ASSIGN
FPT_FID.V.SCRUB.SWSN#
      5632**DCL      6588<<ASSIGN
FPT_FID.V_
      5627**DCL      6573<<ASSIGN
FPT_FID.WSN_
      5629**DCL      6578<<ASSIGN
FPT_OPEN.ACSVEH_
      5706**DCL      5707--REDEF
PL6.E3A0      #001=CXB$BLDAM File=CXB$SUBR.:E05TSI                               TUE 07/29/97 12:15 Page:46
FPT_OPEN.ALTKEYS_
      5712**DCL      5713--REDEF    5713--REDEF
FPT_OPEN.HDR_
      5711**DCL      5712--REDEF
FPT_OPEN.TAB_
      5710**DCL      5711--REDEF
FPT_OPEN.UHL_
      5704**DCL      5705--REDEF    5705--REDEF
FPT_OPEN.V.FSN#
      5744**DCL      5744--REDEF    5744--REDEF
FPT_OPEN.WSN_
      5710**DCL      5710--REDEF
GETCMD
      6152**DCL        33--PROC     6542<>CALL     6684<>CALL
GETCMD.OUT$
      6157**DCL      6163--REDEF
M$FID
       396**DCL-ENT  6592--CALL
MCB
      6085**DCL      6542<>CALL     6601<>CALL     6624<>CALL     6643<>CALL     6653<>CALL     6669<>CALL
      6684<>CALL
MCB.ADDRESS$
      6085**DCL      6602>>ASSIGN   6625>>ASSIGN   6644>>ASSIGN   6654>>ASSIGN   6670>>ASSIGN
MCB.FREE_HEAD$
      6085**DCL      6557<<ASSIGN   6694>>ASSIGN
MCB.HI_SEGMENT$
      6085**DCL      6560<<ASSIGN   6693>>ASSIGN
MCB.MIN_SIZE
      6086**DCL      6563<<ASSIGN
MCB.SEGMENT_BASE$
      6085**DCL      6559<<ASSIGN   6560>>ASSIGN   6561>>ASSIGN
MCB.SIZE
      6085**DCL      6600<<ASSIGN   6623<<ASSIGN   6642<<ASSIGN   6652<<ASSIGN   6668<<ASSIGN
MCB.TYPE
      6085**DCL      6562<<ASSIGN
MCB.WKSZ
PL6.E3A0      #001=CXB$BLDAM File=CXB$SUBR.:E05TSI                               TUE 07/29/97 12:15 Page:47
      6085**DCL      6561<<ASSIGN
OUT$BLK.CODE
      5895**DCL      6593>>IF       6593>>IF       6680>>IF       6680>>IF
TEMP
      6138**DCL      6672<<DOINDEX  6673>>ASSIGN   6673>>ASSIGN
TEMP$
      6135**DCL      6692<<ASSIGN   6693>>ASSIGN   6694>>ASSIGN
TEXTC.SIZ
      5878**DCL      5879--IMP-SIZ  6574>>ASSIGN
TEXTC.TEXT
      5879**DCL      6574--ASSIGN
X$ALLOCATE
      6515**DCL-ENT  6601--CALL     6624--CALL     6643--CALL     6653--CALL     6669--CALL

PL6.E3A0      #002=CXB$MDFYAM File=CXB$SUBR.:E05TSI                              TUE 07/29/97 12:17 Page:48
      269        1        /*T***********************************************************/
      270        2        /*T*                                                         */
      271        3        /*T* Copyright (c) Bull HN Information Systems Inc., 1997    */
      272        4        /*T*                                                         */
      273        5        /*T***********************************************************/
      274        6        /**********************************************************************/
      275        7        /*F*   NAME:   CXB$MDFYAM
      276        8               PURPOSE: To modify an existing assign merge record for a dcb in
      277        9                       the *A file.
      278       10               DESCRIPTION: CXB$MDFYAM modifies an already existing assign merge
      279       11                       record for a dcb.
      280       12        */
      281       13        /*D*   NAME:   CXB$MDFYAM
      282       14               CALL:   CALL CXB$MDFYAM(BLK$,DCB$,WKDCB#,GETCMD,CPSL_PARAM)
      283       15               INTERFACE: CXB$PROCOPT
      284       16               INPUT:  BLK$ - pointer to parse output block
      285       17                       DCB$ - pointer to dcb
      286       18                       WKDCB# - DCB to use for read/write of AMR.
      287       19                       GETCMD - The CXG$GETCMD parameter. Used for GETCMD.ERR#.
      288       20                       CPSL_PARAM - The Command Processor Special Library Parameter.
      289       21               OUTPUT: specified assign merge record in buffer
      290       22               DESCRIPTION: Data segment #3 is obtained and utilized as a buffer
      291       23                       for reading an assign merge record. The assign merge record
      292       24                       for a specified dcb is read and modified utilizing the
      293       25                        options specified on the command.
      294       26        */
      295       27        /**********************************************************************/
      296       28        CXB$MDFYAM: PROC(BLK$,DCBNAME$,WKDCB#,GETCMD,CPSL_PARAM) ;
      297       29                   %INCLUDE CP_6;
      298      110                   %INCLUDE CP_6_SUBS;
      299      650                   %INCLUDE XU_MACRO_C;
      300     3756                   %INCLUDE XUM_MACRO_C;
      301     3783                   %INCLUDE CX_SUBS_C;
      302     3796                   %INCLUDE CX_ISUBS_C;
      303     4148                   %INCLUDE CX_PERR_C;
      304     4219                   %INCLUDE F_ERRORS_C;
      305     4459                   %INCLUDE B$JIT;
PL6.E3A0      #002=CXB$MDFYAM File=CXB$SUBR.:E05TSI                              TUE 07/29/97 12:17 Page:49
      306     4749                   %INCLUDE CX_MACROS_M;
      307     4800                  %INCLUDE CX_DATA_R;
      308     5734    1   DCL CXB$PROCOPT ENTRY(4) ;              /*Process options*/
      309     5735    1   DCL CXC$READAM ENTRY(3) ;               /*Read a/m recd*/
      310     5736    1   DCL CXC$RELSEG ENTRY(1);
      311     5737    1   DCL BLK$ PTR;                           /*Parse output block ptr*/
      312     5738    1   DCL DCBNAME$ PTR;                       /*Pointer to dcb name*/
      313     5739    1   DCL WKDCB# PTR ;                        /* DCB to use for read/write of amr */
      314     5740        %XUG_GETCMD (NAME=GETCMD,STCLASS=PARAM) ;
      315     6078        %CPSL_COMMAND_PARAMETERS (NAME=CPSL_PARAM,STCLASS=PARAM) ;
      316     6096    1   DCL TEMP$ PTR;                                   /*Temporary pointer*/
      317     6097          /***** Error codes *****/
      318     6098          /***** Fpts *****/
      319     6099        %XUM$MCB(NAME=MCB,STCLASS=AUTO);
      320     6103        %CPSL_AMR$PTRS(NAME=AMR$PTRS,STCLASS=BASED);
      321     6108        %FPT_OPEN(FPTN=AMR$REC$,STCLASS="BASED(CPSL_SEG3$)",PFMT="PTR");
      322     6217        %EJECT;
PL6.E3A0      #002=CXB$MDFYAM File=CXB$SUBR.:E05TSI                              TUE 07/29/97 12:17 Page:50
      323     6218        /*
      324     6219             ***** Read A/M record into SEG$3 ...
      325     6220        */
      326     6221    1     IF CPSL_PARAM.FLAGS.VERIFY_ONLY
      327     6222    1         THEN
      328     6223    2             DO ;
      329     6224    2               CALL CXB$PROCOPT(BLK$,MCB,GETCMD,CPSL_PARAM) ;
      330     6225    2               GOTO MDFYAMRET ;
      331     6226    2             END ; /* Then Do */
      332     6227    1     CALL CXC$READAM(DCBNAME$,WKDCB#,CPSL_PARAM) ;
      333     6228    1     IF CPSL_PARAM.ERRCODE ~= %NO#
      334     6229    1         THEN
      335     6230    1             GOTO CXB$MDFYAM50 ;
      336     6231        /*
      337     6232          ****  Initialize SEG3 allocation block
      338     6233        */
      339     6234    1     MCB.SEGMENT_BASE$=PINCRW(AMR$REC$.V_,SIZEW(AMR$REC$.V)+2);
      340     6235        /*  ****   Get HI_SEGMENT$ & FREE_HEAD$ from *A  */
      341     6236    1     TEMP$=PINCRW(AMR$REC$.V_,SIZEW(AMR$REC$.V));
      342     6237    1     MCB.HI_SEGMENT$=TEMP$->AMR$PTRS.HI_SEGMENT$;
      343     6238    1     MCB.FREE_HEAD$=TEMP$->AMR$PTRS.FREE_HEAD$;
      344     6239    1     MCB.WKSZ=1024-POFFC(MCB.SEGMENT_BASE$,CPSL_SEG3$);
      345     6240    1     MCB.MIN_SIZE=0;
      346     6241    1     MCB.TYPE=0;
      347     6242    1     CALL CXB$PROCOPT(BLK$,MCB,GETCMD,CPSL_PARAM) ;          /*Process options*/
      348     6243    1     IF CPSL_PARAM.ERRCODE ~= %NO#
      349     6244    1         THEN
      350     6245    1           GOTO CXB$MDFYAM50 ;
      351     6246        /*
      352     6247          ****  Store HI_SEGMENT$ & FREE_HEAD$ in *A for subsequent use
      353     6248        */
      354     6249    1     TEMP$->AMR$PTRS.HI_SEGMENT$=MCB.HI_SEGMENT$;
      355     6250    1     TEMP$->AMR$PTRS.FREE_HEAD$=MCB.FREE_HEAD$;
      356     6251    2     DO WHILE (%NO#) ;
      357     6252    2   CXB$MDFYAM50:;
      358     6253        /* Error message output by calling routines if CPSL detected error*/
      359     6254    2        CALL CXC$RELSEG (CPSL_SEG3$);
PL6.E3A0      #002=CXB$MDFYAM File=CXB$SUBR.:E05TSI                              TUE 07/29/97 12:17 Page:51
      360     6255    2     END ;   /* Do While */
      361     6256
      362     6257    1     MDFYAMRET:
      363     6258    1     RETURN;
      364     6259    1   END CXB$MDFYAM;
      365     6260        %EOD;

PL6.E3A0      #002=CXB$MDFYAM File=CXB$SUBR.:E05TSI                              TUE 07/29/97 12:17 Page:52
--  Include file information  --

   CX_DATA_R.:E05TOU  cannot be made into a system file and is referenced.
   CX_MACROS_M.:E05TOU  is referenced.
   B$JIT.:E05TOU  cannot be made into a system file and is referenced.
   F_ERRORS_C.:E05TOU  is referenced.
   CX_PERR_C.:E05TOU  is referenced.
   CX_ISUBS_C.:E05TOU  is referenced.
   CX_SUBS_C.:E05TOU  is referenced.
   XUM_MACRO_C.:E05TOU  is referenced.
   XU_MACRO_C.:E05TOU  is referenced.
   CP_6_SUBS.:E05TOU  is referenced.
   CP_6.:E05TOU  cannot be made into a system file and is referenced.
   B$JIT_C.:E05TOU  was found in the system file and is referenced.
   CP_6_C.:E05TOU  was found in the system file and is referenced.
      No diagnostics issued in procedure CXB$MDFYAM.

   Procedure CXB$MDFYAM requires 74 words for executable code.
   Procedure CXB$MDFYAM requires 22 words of local(AUTO) storage.

PL6.E3A0      #002=CXB$MDFYAM File=CXB$SUBR.:E05TSI                              TUE 07/29/97 12:17 Page:53

 Object Unit name= CXB$MDFYAM                                 File name= CXB$SUBR.:E05TOU
 UTS= JUL 29 '97 12:17:52.00 TUE                              Compiler= PL-6/E31         Sev=      00
 SharedLib= :SHARED_SYSTEM                                    Alt SharedLib=


    ****  Control sections  ****

 Sect   Type Bound  Init  Size OctSiz  Section name(segment info)
    0   DCB   even  none     0      0  M$UC
    1   Proc  even  none    74    112  CXB$MDFYAM
    2  RoData even  none     1      1  CXB$MDFYAM

    ****  Entry defs  ****

                              Check   Calling
                             calling  sequence
  Sect OctLoc Primary Altret sequence   type   Parms  Name
     1      0   yes            yes      Std        5  CXB$MDFYAM

  ****  Entry refs  ****

         Check        Calling
        calling       sequence
Altret sequence SRef   type   Args  Name
         yes           Std       4 CXB$PROCOPT
         yes           Std       3 CXC$READAM
         yes           Std       1 CXC$RELSEG
                       nStd      0 X66_AUTO_5
                       Std       0 B_CONSPOOL_D
                       nStd      0 X66_ARET
PL6.E3A0      #002=CXB$MDFYAM File=CXB$SUBR.:E05TSI                              TUE 07/29/97 12:17 Page:54

  ****  Data refs  ****

  Flags:  r = read only, s = secondary
Flgs Name                             Flgs Name                             Flgs Name
     M$UC                             r    B$JIT$                           r    CPSL_SEG3$
     B_VECTNIL

  ****  Segment refs  ****

  Flags:  r = read only, s = secondary
Flgs Name                             Flgs Name                             Flgs Name
     ISSID
PL6.E3A0      #002=CXB$MDFYAM File=CXB$SUBR.:E05TSI                              TUE 07/29/97 12:17 Page:55


      269        1        /*T***********************************************************/
      270        2        /*T*                                                         */
      271        3        /*T* Copyright (c) Bull HN Information Systems Inc., 1997    */
      272        4        /*T*                                                         */
      273        5        /*T***********************************************************/
      274        6        /**********************************************************************/
      275        7        /*F*   NAME:   CXB$MDFYAM
      276        8               PURPOSE: To modify an existing assign merge record for a dcb in
      277        9                       the *A file.
      278       10               DESCRIPTION: CXB$MDFYAM modifies an already existing assign merge
      279       11                       record for a dcb.
      280       12        */
      281       13        /*D*   NAME:   CXB$MDFYAM
      282       14               CALL:   CALL CXB$MDFYAM(BLK$,DCB$,WKDCB#,GETCMD,CPSL_PARAM)
      283       15               INTERFACE: CXB$PROCOPT
      284       16               INPUT:  BLK$ - pointer to parse output block
      285       17                       DCB$ - pointer to dcb
      286       18                       WKDCB# - DCB to use for read/write of AMR.
      287       19                       GETCMD - The CXG$GETCMD parameter. Used for GETCMD.ERR#.
      288       20                       CPSL_PARAM - The Command Processor Special Library Parameter.
      289       21               OUTPUT: specified assign merge record in buffer
      290       22               DESCRIPTION: Data segment #3 is obtained and utilized as a buffer
      291       23                       for reading an assign merge record. The assign merge record
      292       24                       for a specified dcb is read and modified utilizing the
      293       25                        options specified on the command.
      294       26        */
      295       27        /**********************************************************************/
      296       28        CXB$MDFYAM: PROC(BLK$,DCBNAME$,WKDCB#,GETCMD,CPSL_PARAM) ;

     28  1 000000   000000 700200 xent  CXB$MDFYAM   TSX0  ! X66_AUTO_5
         1 000001   000026 000005                    ZERO    22,5

      297       29                   %INCLUDE CP_6;
      298      110                   %INCLUDE CP_6_SUBS;
      299      650                   %INCLUDE XU_MACRO_C;
      300     3756                   %INCLUDE XUM_MACRO_C;
PL6.E3A0      #002=CXB$MDFYAM File=CXB$SUBR.:E05TSI                              TUE 07/29/97 12:17 Page:56
      301     3783                   %INCLUDE CX_SUBS_C;
      302     3796                   %INCLUDE CX_ISUBS_C;
      303     4148                   %INCLUDE CX_PERR_C;
      304     4219                   %INCLUDE F_ERRORS_C;
      305     4459                   %INCLUDE B$JIT;
      306     4749                   %INCLUDE CX_MACROS_M;
      307     4800                  %INCLUDE CX_DATA_R;
      308     5734    1   DCL CXB$PROCOPT ENTRY(4) ;              /*Process options*/
      309     5735    1   DCL CXC$READAM ENTRY(3) ;               /*Read a/m recd*/
      310     5736    1   DCL CXC$RELSEG ENTRY(1);
      311     5737    1   DCL BLK$ PTR;                           /*Parse output block ptr*/
      312     5738    1   DCL DCBNAME$ PTR;                       /*Pointer to dcb name*/
      313     5739    1   DCL WKDCB# PTR ;                        /* DCB to use for read/write of amr */
      314     5740        %XUG_GETCMD (NAME=GETCMD,STCLASS=PARAM) ;
      315     6078        %CPSL_COMMAND_PARAMETERS (NAME=CPSL_PARAM,STCLASS=PARAM) ;
      316     6096    1   DCL TEMP$ PTR;                                   /*Temporary pointer*/
      317     6097          /***** Error codes *****/
      318     6098          /***** Fpts *****/
      319     6099        %XUM$MCB(NAME=MCB,STCLASS=AUTO);
      320     6103        %CPSL_AMR$PTRS(NAME=AMR$PTRS,STCLASS=BASED);
      321     6108        %FPT_OPEN(FPTN=AMR$REC$,STCLASS="BASED(CPSL_SEG3$)",PFMT="PTR");
      322     6217        %EJECT;
PL6.E3A0      #002=CXB$MDFYAM File=CXB$SUBR.:E05TSI                              TUE 07/29/97 12:17 Page:57
      323     6218        /*
      324     6219             ***** Read A/M record into SEG$3 ...
      325     6220        */
      326     6221    1     IF CPSL_PARAM.FLAGS.VERIFY_ONLY

   6221  1 000002   200007 470500                    LDP0    @CPSL_PARAM,,AUTO
         1 000003   000001 234100                    SZN     1,,PR0
         1 000004   000020 605000 1                  TPL     s:6227

      327     6222    1         THEN
      328     6223    2             DO ;

      329     6224    2               CALL CXB$PROCOPT(BLK$,MCB,GETCMD,CPSL_PARAM) ;

   6224  1 000005   200006 237100                    LDAQ    @GETCMD,,AUTO
         1 000006   200024 757100                    STAQ    MCB+11,,AUTO
         1 000007   200011 631500                    EPPR1   MCB,,AUTO
         1 000010   200023 451500                    STP1    MCB+10,,AUTO
         1 000011   200003 236100                    LDQ     @BLK$,,AUTO
         1 000012   200022 756100                    STQ     MCB+9,,AUTO
         1 000013   200022 630500                    EPPR0   MCB+9,,AUTO
         1 000014   000022 631400 xsym               EPPR1   B_VECTNIL+18
         1 000015   000000 701000 xent               TSX1    CXB$PROCOPT
         1 000016   000000 011000                    NOP     0

      330     6225    2               GOTO MDFYAMRET ;

   6225  1 000017   000111 710000 1                  TRA     MDFYAMRET

      331     6226    2             END ; /* Then Do */
      332     6227    1     CALL CXC$READAM(DCBNAME$,WKDCB#,CPSL_PARAM) ;

   6227  1 000020   200007 236100                    LDQ     @CPSL_PARAM,,AUTO
         1 000021   200024 756100                    STQ     MCB+11,,AUTO
         1 000022   200004 237100                    LDAQ    @DCBNAME$,,AUTO
         1 000023   200022 757100                    STAQ    MCB+9,,AUTO
         1 000024   200022 630500                    EPPR0   MCB+9,,AUTO
PL6.E3A0      #002=CXB$MDFYAM File=CXB$SUBR.:E05TSI                              TUE 07/29/97 12:17 Page:58
         1 000025   000021 631400 xsym               EPPR1   B_VECTNIL+17
         1 000026   000000 701000 xent               TSX1    CXC$READAM
         1 000027   000000 011000                    NOP     0

      333     6228    1     IF CPSL_PARAM.ERRCODE ~= %NO#

   6228  1 000030   200007 470500                    LDP0    @CPSL_PARAM,,AUTO
         1 000031   000002 235100                    LDA     2,,PR0
         1 000032   000105 601000 1                  TNZ     CXB$MDFYAM50

      334     6229    1         THEN
      335     6230    1             GOTO CXB$MDFYAM50 ;
      336     6231        /*
      337     6232          ****  Initialize SEG3 allocation block
      338     6233        */
      339     6234    1     MCB.SEGMENT_BASE$=PINCRW(AMR$REC$.V_,SIZEW(AMR$REC$.V)+2);

   6234  1 000033   000000 471400 xsym               LDP1    CPSL_SEG3$
         1 000034   100000 236100                    LDQ     0,,PR1
         1 000035   000030 036003                    ADLQ    24,DU
         1 000036   200013 756100                    STQ     MCB+2,,AUTO

      340     6235        /*  ****   Get HI_SEGMENT$ & FREE_HEAD$ from *A  */
      341     6236    1     TEMP$=PINCRW(AMR$REC$.V_,SIZEW(AMR$REC$.V));

   6236  1 000037   100000 236100                    LDQ     0,,PR1
         1 000040   000026 036003                    ADLQ    22,DU
         1 000041   200010 756100                    STQ     TEMP$,,AUTO

      342     6237    1     MCB.HI_SEGMENT$=TEMP$->AMR$PTRS.HI_SEGMENT$;

   6237  1 000042   200010 473500                    LDP3    TEMP$,,AUTO
         1 000043   300000 236100                    LDQ     0,,PR3
         1 000044   200014 756100                    STQ     MCB+3,,AUTO

      343     6238    1     MCB.FREE_HEAD$=TEMP$->AMR$PTRS.FREE_HEAD$;

PL6.E3A0      #002=CXB$MDFYAM File=CXB$SUBR.:E05TSI                              TUE 07/29/97 12:17 Page:59
   6238  1 000045   300001 236100                    LDQ     1,,PR3
         1 000046   200012 756100                    STQ     MCB+1,,AUTO

      344     6239    1     MCB.WKSZ=1024-POFFC(MCB.SEGMENT_BASE$,CPSL_SEG3$);

   6239  1 000047   000000 236000 xsym               LDQ     CPSL_SEG3$
         1 000050   000020 772000                    QRL     16
         1 000051   200022 756100                    STQ     MCB+9,,AUTO
         1 000052   200013 236100                    LDQ     MCB+2,,AUTO
         1 000053   000020 772000                    QRL     16
         1 000054   200022 136100                    SBLQ    MCB+9,,AUTO
         1 000055   000027 676000 xsym               ERQ     B_VECTNIL+23
         1 000056   002001 036007                    ADLQ    1025,DL
         1 000057   200015 756100                    STQ     MCB+4,,AUTO

      345     6240    1     MCB.MIN_SIZE=0;

   6240  1 000060   200020 450100                    STZ     MCB+7,,AUTO

      346     6241    1     MCB.TYPE=0;

   6241  1 000061   200016 450100                    STZ     MCB+5,,AUTO

      347     6242    1     CALL CXB$PROCOPT(BLK$,MCB,GETCMD,CPSL_PARAM) ;          /*Process options*/

   6242  1 000062   200006 237100                    LDAQ    @GETCMD,,AUTO
         1 000063   200024 757100                    STAQ    MCB+11,,AUTO
         1 000064   200011 634500                    EPPR4   MCB,,AUTO
         1 000065   200023 454500                    STP4    MCB+10,,AUTO
         1 000066   200003 236100                    LDQ     @BLK$,,AUTO
         1 000067   200022 756100                    STQ     MCB+9,,AUTO
         1 000070   200022 630500                    EPPR0   MCB+9,,AUTO
         1 000071   000022 631400 xsym               EPPR1   B_VECTNIL+18
         1 000072   000000 701000 xent               TSX1    CXB$PROCOPT
         1 000073   000000 011000                    NOP     0

      348     6243    1     IF CPSL_PARAM.ERRCODE ~= %NO#
PL6.E3A0      #002=CXB$MDFYAM File=CXB$SUBR.:E05TSI                              TUE 07/29/97 12:17 Page:60

   6243  1 000074   200007 470500                    LDP0    @CPSL_PARAM,,AUTO
         1 000075   000002 235100                    LDA     2,,PR0
         1 000076   000105 601000 1                  TNZ     CXB$MDFYAM50

      349     6244    1         THEN
      350     6245    1           GOTO CXB$MDFYAM50 ;
      351     6246        /*
      352     6247          ****  Store HI_SEGMENT$ & FREE_HEAD$ in *A for subsequent use
      353     6248        */
      354     6249    1     TEMP$->AMR$PTRS.HI_SEGMENT$=MCB.HI_SEGMENT$;

   6249  1 000077   200014 236100                    LDQ     MCB+3,,AUTO
         1 000100   200010 471500                    LDP1    TEMP$,,AUTO
         1 000101   100000 756100                    STQ     0,,PR1

      355     6250    1     TEMP$->AMR$PTRS.FREE_HEAD$=MCB.FREE_HEAD$;

   6250  1 000102   200012 236100                    LDQ     MCB+1,,AUTO
         1 000103   100001 756100                    STQ     1,,PR1

      356     6251    2     DO WHILE (%NO#) ;

   6251  1 000104   000111 710000 1                  TRA     MDFYAMRET

   6245  1 000105                       CXB$MDFYAM50 null
      357     6252    2   CXB$MDFYAM50:;
      358     6253        /* Error message output by calling routines if CPSL detected error*/
      359     6254    2        CALL CXC$RELSEG (CPSL_SEG3$);

   6254  1 000105   000000 630400 2                  EPPR0   0
         1 000106   000017 631400 xsym               EPPR1   B_VECTNIL+15
         1 000107   000000 701000 xent               TSX1    CXC$RELSEG
         1 000110   000000 011000                    NOP     0

      360     6255    2     END ;   /* Do While */

PL6.E3A0      #002=CXB$MDFYAM File=CXB$SUBR.:E05TSI                              TUE 07/29/97 12:17 Page:61
      361     6256
      362     6257    1     MDFYAMRET:
      363     6258    1     RETURN;

   6258  1 000111   000000 702200 xent  MDFYAMRET    TSX2  ! X66_ARET
      364     6259    1   END CXB$MDFYAM;
      365     6260        %EOD;

PL6.E3A0      #002=CXB$MDFYAM File=CXB$SUBR.:E05TSI                              TUE 07/29/97 12:17 Page:62
--  Include file information  --

   CX_DATA_R.:E05TOU  cannot be made into a system file and is referenced.
   CX_MACROS_M.:E05TOU  is referenced.
   B$JIT.:E05TOU  cannot be made into a system file and is referenced.
   F_ERRORS_C.:E05TOU  is referenced.
   CX_PERR_C.:E05TOU  is referenced.
   CX_ISUBS_C.:E05TOU  is referenced.
   CX_SUBS_C.:E05TOU  is referenced.
   XUM_MACRO_C.:E05TOU  is referenced.
   XU_MACRO_C.:E05TOU  is referenced.
   CP_6_SUBS.:E05TOU  is referenced.
   CP_6.:E05TOU  cannot be made into a system file and is referenced.
   B$JIT_C.:E05TOU  was found in the system file and is referenced.
   CP_6_C.:E05TOU  was found in the system file and is referenced.
      No diagnostics issued in procedure CXB$MDFYAM.
PL6.E3A0      #002=CXB$MDFYAM File=CXB$SUBR.:E05TSI                              TUE 07/29/97 12:17 Page:63

 **** Variables and constants ****

  ****  Auto variables  ****

  ****  Scalars and arrays  ****
OctLoc.c.b A Datatyp(siz) R M Lvl/name                 OctLoc.c.b A Datatyp(siz) R M Lvl/name

     3-0-0/w PTR         r     1 @BLK$                      7-0-0/w PTR         r     1 @CPSL_PARAM
     4-0-0/w PTR         r     1 @DCBNAME$                  6-0-0/w PTR         r     1 @GETCMD
     5-0-0/w PTR         r     1 @WKDCB#                   *0-0-0/w PTR         r     1 BLK$
    *0-0-0/w STRC(180)   r     1 CPSL_PARAM                *0-0-0/w PTR         r     1 DCBNAME$
    *0-0-0/d STRC(1512)  r     1 GETCMD                    11-0-0/w STRC(324)   r     1 MCB
    10-0-0/w PTR         r     1 TEMP$                     *0-0-0/w PTR         r     1 WKDCB#

  ****  SYMREF variables  ****

  ****  Scalars and arrays  ****
OctLoc.c.b A Datatyp(siz) R M Lvl/name                 OctLoc.c.b A Datatyp(siz) R M Lvl/name

     0-0-0/w PTR         r     1 B$JIT$                     0-0-0/w PTR         r     1 CPSL_SEG3$

  ****  BASED and DCB variables  ****

  ****  Scalars and arrays  ****
OctLoc.c.b A Datatyp(siz) R M Lvl/name                 OctLoc.c.b A Datatyp(siz) R M Lvl/name

     0-0-0/w STRC(72)    r     1 AMR$PTRS                   0-0-0/d STRC(1440)  r     1 AMR$REC$


   Procedure CXB$MDFYAM requires 74 words for executable code.
   Procedure CXB$MDFYAM requires 22 words of local(AUTO) storage.
PL6.E3A0      #002=CXB$MDFYAM File=CXB$SUBR.:E05TSI                              TUE 07/29/97 12:17 Page:64
          *** CROSS REFERENCE LISTING ***
**     DENOTES     IDENTIFIER DEFINITION
<<                 IDENTIFIER'S VALUE SET
>>                 IDENTIFIER'S VALUE USED
<>                 IDENTIFIER SET AND/OR USED
--                 IDENTIFIER REFERENCED
PL6.E3A0      #002=CXB$MDFYAM File=CXB$SUBR.:E05TSI                              TUE 07/29/97 12:17 Page:65
          MINI XREF LISTING

AMR$PTRS.FREE_HEAD$
      6106**DCL      6238>>ASSIGN   6250<<ASSIGN
AMR$PTRS.HI_SEGMENT$
      6105**DCL      6237>>ASSIGN   6249<<ASSIGN
AMR$REC$.ACSVEH_
      6175**DCL      6176--REDEF
AMR$REC$.ALTKEYS_
      6181**DCL      6182--REDEF    6182--REDEF
AMR$REC$.HDR_
      6180**DCL      6181--REDEF
AMR$REC$.TAB_
      6179**DCL      6180--REDEF
AMR$REC$.UHL_
      6173**DCL      6174--REDEF    6174--REDEF
AMR$REC$.V
      6182**DCL      6234--ASSIGN   6236--ASSIGN
AMR$REC$.V.FSN#
      6213**DCL      6213--REDEF    6213--REDEF
AMR$REC$.V_
      6173**DCL      6234>>ASSIGN   6236>>ASSIGN
AMR$REC$.WSN_
      6179**DCL      6179--REDEF
B$JIT.CPFLAGS1.SLEAZE
      4567**DCL      4567--REDEF
B$JIT.ERR.MID
      4474**DCL      4474--REDEF
B$JIT.JRESPEAK
      4635**DCL      4636--REDEF
B$JIT.ORIGINATOR_PORT.FROM_CR
      4744**DCL      4744--REDEF    4745--REDEF
B$JIT.PNR
      4648**DCL      4648--REDEF
PL6.E3A0      #002=CXB$MDFYAM File=CXB$SUBR.:E05TSI                              TUE 07/29/97 12:17 Page:66
B$JIT.TSLINE
      4742**DCL      4743--REDEF
B$JIT$
      5701**DCL      4468--IMP-PTR
BLK$
      5737**DCL        28--PROC     6224<>CALL     6242<>CALL
CPSL_CAMR_REC.ACSVEH_
      4989**DCL      4990--REDEF
CPSL_CAMR_REC.ALTKEYS_
      4995**DCL      4996--REDEF    4996--REDEF
CPSL_CAMR_REC.HDR_
      4994**DCL      4995--REDEF
CPSL_CAMR_REC.TAB_
      4993**DCL      4994--REDEF
CPSL_CAMR_REC.UHL_
      4987**DCL      4988--REDEF    4988--REDEF
CPSL_CAMR_REC.V.FSN#
      5027**DCL      5027--REDEF    5027--REDEF
CPSL_CAMR_REC.WSN_
      4993**DCL      4993--REDEF
CPSL_CFPT_CLOSE.SN_
      5054**DCL      5054--REDEF
CPSL_CFPT_CLOSE.UTL_
      5055**DCL      5055--REDEF
CPSL_CFPT_CLOSE.V.EXPIRE#
      5069**DCL      5069--REDEF
CPSL_CFPT_CLOSE.V.TYPE#
      5067**DCL      5067--REDEF
CPSL_CFPT_CLOSE.V.XTNSIZE#
      5064**DCL      5064--REDEF    5066--REDEF
CPSL_CFPT_OPEN.ACSVEH_
      4880**DCL      4881--REDEF
CPSL_CFPT_OPEN.ALTKEYS_
      4886**DCL      4887--REDEF    4887--REDEF
CPSL_CFPT_OPEN.HDR_
      4885**DCL      4886--REDEF
PL6.E3A0      #002=CXB$MDFYAM File=CXB$SUBR.:E05TSI                              TUE 07/29/97 12:17 Page:67
CPSL_CFPT_OPEN.TAB_
      4884**DCL      4885--REDEF
CPSL_CFPT_OPEN.UHL_
      4878**DCL      4879--REDEF    4879--REDEF
CPSL_CFPT_OPEN.V.FSN#
      4918**DCL      4918--REDEF    4918--REDEF
CPSL_CFPT_OPEN.WSN_
      4884**DCL      4884--REDEF
CPSL_CFPT_READ.STATION_
      5093**DCL      5094--REDEF
CPSL_CFPT_READ.V.DVBYTE.REREAD#
      5105**DCL      5105--REDEF
CPSL_CFPT_READ.V.INDX#
      5103**DCL      5103--REDEF
CPSL_CFPT_WRITE.STATION_
      5131**DCL      5131--REDEF
CPSL_CFPT_WRITE.V.DVBYTE.VFC#
      5138**DCL      5138--REDEF
CPSL_CVLP_TRMCTL.BREAKCOUNT
      5522**DCL      5523--REDEF
CPSL_CVLP_WINDOW.FWINDOW#
      5618**DCL      5618--REDEF    5619--REDEF
CPSL_PARAM
      6079**DCL        28--PROC     6224<>CALL     6227<>CALL     6242<>CALL
CPSL_PARAM.ERRCODE
      6087**DCL      6228>>IF       6243>>IF
CPSL_PARAM.FLAGS.VERIFY_ONLY
      6082**DCL      6221>>IF
CPSL_SEG3$
      5704**DCL      6173--IMP-PTR  6234>>ASSIGN   6236>>ASSIGN   6239>>ASSIGN   6254<>CALL
CXB$MDFYAM50
      6245**LABEL    6230--GOTO     6245--GOTO
CXB$PROCOPT
      5734**DCL-ENT  6224--CALL     6242--CALL
CXC$READAM
      5735**DCL-ENT  6227--CALL
PL6.E3A0      #002=CXB$MDFYAM File=CXB$SUBR.:E05TSI                              TUE 07/29/97 12:17 Page:68
CXC$RELSEG
      5736**DCL-ENT  6254--CALL
DCBNAME$
      5738**DCL        28--PROC     6227<>CALL
GETCMD
      5753**DCL        28--PROC     6224<>CALL     6242<>CALL
GETCMD.OUT$
      5758**DCL      5764--REDEF
MCB
      6100**DCL      6224<>CALL     6242<>CALL
MCB.FREE_HEAD$
      6100**DCL      6238<<ASSIGN   6250>>ASSIGN
MCB.HI_SEGMENT$
      6100**DCL      6237<<ASSIGN   6249>>ASSIGN
MCB.MIN_SIZE
      6101**DCL      6240<<ASSIGN
MCB.SEGMENT_BASE$
      6100**DCL      6234<<ASSIGN   6239>>ASSIGN
MCB.TYPE
      6100**DCL      6241<<ASSIGN
MCB.WKSZ
      6100**DCL      6239<<ASSIGN
MDFYAMRET
      6258**LABEL    6225--GOTO
TEMP$
      6096**DCL      6236<<ASSIGN   6237>>ASSIGN   6238>>ASSIGN   6249>>ASSIGN   6250>>ASSIGN
WKDCB#
      5739**DCL        28--PROC     6227<>CALL

PL6.E3A0      #003=CXB$DELAM File=CXB$SUBR.:E05TSI                               TUE 07/29/97 12:19 Page:69
      366        1        /*T***********************************************************/
      367        2        /*T*                                                         */
      368        3        /*T* Copyright (c) Bull HN Information Systems Inc., 1997    */
      369        4        /*T*                                                         */
      370        5        /*T***********************************************************/
      371        6        /**********************************************************************/
      372        7        /*F*   NAME:   CXB$DELAM
      373        8               PURPOSE: Delete a keyed record or multiple keyed records in the *a file.
      374        9               DESCRIPTION: A single keyed record is deleted if one key is specified.
      375       10                       If two keys are specified, this is considered a range
      376       11                       specification and multiple keys are deleted.
      377       12        */
      378       13        /*D*   NAME:   CXB$DELAM
      379       14               CALL:   CALL CXB$DELAM(FKEY$,LKEY$,WKDCB#,CPSL_PARAM)
      380       15               INPUT:  FKEY$ - pointer to first key to be deleted
      381       16                       LKEY$ - pointer to last key within range to be deleted
      382       17                       WKDCB# - The dcb number to use to DELETE AM record.
      383       18                       CPSL_PARAM - The Command Processor Shared Library Parameter.
      384       19               OUTPUT: assign merge record(s) deleted from *a file
      385       20               DESCRIPTION: A check is made to determine whether a single or
      386       21                       multiple keyed records within a given range are to be
      387       22                       deleted and the M$DELREC fpt initialized accordingly.
      388       23        */
      389       24        /**********************************************************************/
      390       25        CXB$DELAM: PROC(FKEY$,LKEY$,WKDCB#,CPSL_PARAM) ;
      391       26                   %INCLUDE CP_6;
      392      107                   %INCLUDE XU_MACRO_C;
      393     3213                   %INCLUDE CX_DATA_R;
      394     4147                   %INCLUDE CX_MACROS_M;
      395     4198                   %INCLUDE CX_SUBS_C;
      396     4211                   %INCLUDE B_MACROS_C;
      397     4322                   %INCLUDE CX_PERR_C;
      398     4393                   %INCLUDE CP_6_SUBS;
      399     4933                   %INCLUDE B$JIT;
      400     5223                   %INCLUDE B_ERRORS_C;
      401     6350                   %INCLUDE CXG_ENTRY ;
      402     6362          /***** Parameters *****/
PL6.E3A0      #003=CXB$DELAM File=CXB$SUBR.:E05TSI                               TUE 07/29/97 12:19 Page:70
      403     6363    1   DCL FKEY$ PTR;                          /*Ptr to 1ST key*/
      404     6364    1   DCL LKEY$ PTR;                          /*Ptr to last key*/
      405     6365    1   DCL WKDCB# UBIN WORD ;
      406     6366    1   DCL ACTIVE_PRIVS BIT(36) ;
      407     6367        %CPSL_COMMAND_PARAMETERS (NAME=CPSL_PARAM, STCLASS=PARAM) ;
      408     6385          /***** External routines *****/
      409     6386          /***** Based structures *****/
      410     6387        %B$TCB (STCLASS="BASED(B$TCB$)");
      411     6390        %B$EXCFR;
      412     6408        %TEXTC;
      413     6413        %F$DCB(DCBN=F$DCB);
      414     6470        %FPT_CLOSE(FPTN=FPT_CLOSE,STCLASS=AUTO);
      415     6512          /***** Fpts *****/
      416     6513        %FPT_OPEN(FPTN=FPT_OPEN,STCLASS=AUTO);
      417     6622        %FPT_DELREC(FPTN=FPT_DELREC,STCLASS=AUTO);
      418     6641        %EJECT;
PL6.E3A0      #003=CXB$DELAM File=CXB$SUBR.:E05TSI                               TUE 07/29/97 12:19 Page:71
      419     6642          %SAVE_ACTIVE_PRIVS;
      420     6646    1     FPT_CLOSE = CPSL_CFPT_CLOSE ;
      421     6647    1     FPT_CLOSE.V_ = VECTOR(FPT_CLOSE.V) ;
      422     6648        /*
      423     6649             ***** Open *A file...
      424     6650        */
      425     6651    1     FPT_OPEN=CPSL_CFPT_OPEN;
      426     6652    1     FPT_OPEN.V_=VECTOR(FPT_OPEN.V);
      427     6653    1     FPT_OPEN.NAME_=VECTOR(CPSL_STARA);
      428     6654    1     FPT_OPEN.V.DCB#=WKDCB#;
      429     6655    1     FPT_OPEN.V.ASN#=%FILE#;
      430     6656    1     FPT_OPEN.V.FUN#=%UPDATE#;
      431     6657    1     FPT_OPEN.V.ORG#=%KEYED#;
      432     6658    1     FPT_OPEN.V.ACS#=%DIRECT#;
      433     6659    1     FPT_OPEN.V.INITZ.SCRUB#=%YES#;
      434     6660    1     CALL M$OPEN(FPT_OPEN) ALTRET(E_OPENAM);
      435     6661          %RESTORE_ACTIVE_PRIVS;
      436     6664        /*
      437     6665             ***** init FPT_DELREC
      438     6666        */
      439     6667    1     FPT_DELREC = CPSL_CFPT_DELREC;
      440     6668    1     FPT_DELREC.V_ = VECTOR(FPT_DELREC.V);
      441     6669    1     FPT_DELREC.KEY_=VECTOR(FKEY$->TEXTC);
      442     6670    1     FPT_DELREC.V.DCB#=WKDCB#;
      443     6671        /*
      444     6672             *****     Check if last key spec'd
      445     6673        */
      446     6674    1     IF ADDR(LKEY$)=ADDR(NIL)
      447     6675    1        THEN
      448     6676    1           FPT_DELREC.LKEY_=VECTOR(NIL);
      449     6677    1        ELSE
      450     6678    1           FPT_DELREC.LKEY_=VECTOR(LKEY$->TEXTC);
      451     6679        /*
      452     6680             *****     Delete the spec'd records
      453     6681        */
      454     6682    1     CALL M$DELREC(FPT_DELREC) ALTRET(E_DELAM);
      455     6683    1     FPT_CLOSE.V.DCB#=WKDCB#;
PL6.E3A0      #003=CXB$DELAM File=CXB$SUBR.:E05TSI                               TUE 07/29/97 12:19 Page:72
      456     6684    1     FPT_CLOSE.V.DISP#=%SAVE#;
      457     6685    1     CALL M$CLOSE(FPT_CLOSE) ALTRET(E_CLOSE);
      458     6686    1   DELAMRET:
      459     6687    1     RETURN;
      460     6688
      461     6689    1   E_OPENAM:
      462     6690          %RESTORE_ACTIVE_PRIVS;
      463     6693    1   E_DELAM:
      464     6694    1     CPSL_PARAM.ERRCODE = B$TCB.ALT$ -> B$EXCFR.ERR;
      465     6695    1     CPSL_PARAM.FLAGS.REPORTED_TO_USER = %NO# ;
      466     6696    1     IF DCBADDR(WKDCB#) -> F$DCB.FCD#
      467     6697    1        THEN /* *A file open */
      468     6698    2           DO; /* close it */
      469     6699    2              FPT_CLOSE.V.DCB#=WKDCB#;
      470     6700    2              FPT_CLOSE.V.DISP#=%SAVE#;
      471     6701    2              CALL M$CLOSE(FPT_CLOSE) ALTRET(E_CLOSE);
      472     6702    2           END;
      473     6703    1     GOTO DELAMRET ;
      474     6704    1   E_CLOSE:
      475     6705    1     CPSL_PARAM.ERRCODE = B$TCB.ALT$ -> B$EXCFR.ERR;
      476     6706    1     CPSL_PARAM.FLAGS.REPORTED_TO_USER = %NO# ;
      477     6707    1     GOTO DELAMRET ;
      478     6708    1   END CXB$DELAM;
      479     6709                   %EOD;

PL6.E3A0      #003=CXB$DELAM File=CXB$SUBR.:E05TSI                               TUE 07/29/97 12:19 Page:73
--  Include file information  --

   CXG_ENTRY.:E05TOU  cannot be made into a system file and is referenced.
   B_ERRORS_C.:E05TOU  is referenced.
   B$JIT.:E05TOU  cannot be made into a system file and is referenced.
   CP_6_SUBS.:E05TOU  is referenced.
   CX_PERR_C.:E05TOU  is referenced.
   B_MACROS_C.:E05TOU  is referenced.
   CX_SUBS_C.:E05TOU  is referenced.
   CX_MACROS_M.:E05TOU  is referenced.
   CX_DATA_R.:E05TOU  cannot be made into a system file and is referenced.
   XU_MACRO_C.:E05TOU  is referenced.
   CP_6.:E05TOU  cannot be made into a system file and is referenced.
   B$JIT_C.:E05TOU  was found in the system file and is referenced.
   CP_6_C.:E05TOU  was found in the system file and is referenced.
      No diagnostics issued in procedure CXB$DELAM.

   Procedure CXB$DELAM requires 135 words for executable code.
   Procedure CXB$DELAM requires 108 words of local(AUTO) storage.

PL6.E3A0      #003=CXB$DELAM File=CXB$SUBR.:E05TSI                               TUE 07/29/97 12:19 Page:74

 Object Unit name= CXB$DELAM                                  File name= CXB$SUBR.:E05TOU
 UTS= JUL 29 '97 12:19:34.00 TUE                              Compiler= PL-6/E31         Sev=      00
 SharedLib= :SHARED_SYSTEM                                    Alt SharedLib=


    ****  Control sections  ****

 Sect   Type Bound  Init  Size OctSiz  Section name(segment info)
    0   DCB   even  none     0      0  M$UC
    1   Proc  even  none   135    207  CXB$DELAM
    2  RoData even  none     9     11  CXB$DELAM

    ****  Entry defs  ****

                              Check   Calling
                             calling  sequence
  Sect OctLoc Primary Altret sequence   type   Parms  Name
     1      0   yes            yes      Std        4  CXB$DELAM

  ****  Entry refs  ****

         Check        Calling
        calling       sequence
Altret sequence SRef   type   Args  Name
                       nStd      0 X66_AUTO_4
                       Std       0 B_CONSPOOL_D
                       nStd      0 X66_ARET

  ****  Data refs  ****

  Flags:  r = read only, s = secondary
Flgs Name                             Flgs Name                             Flgs Name
     M$UC                                  CPSL_CFPT_OPEN                        CPSL_CFPT_CLOSE
     CPSL_CFPT_DELREC                 r    B$JIT$                           r    B$TCB$
     CPSL_STARA                            B_VECTNIL
PL6.E3A0      #003=CXB$DELAM File=CXB$SUBR.:E05TSI                               TUE 07/29/97 12:19 Page:75

  ****  Segment refs  ****

  Flags:  r = read only, s = secondary
Flgs Name                             Flgs Name                             Flgs Name
     NULLSID                               ROSID                                 ISSID
PL6.E3A0      #003=CXB$DELAM File=CXB$SUBR.:E05TSI                               TUE 07/29/97 12:19 Page:76


      366        1        /*T***********************************************************/
      367        2        /*T*                                                         */
      368        3        /*T* Copyright (c) Bull HN Information Systems Inc., 1997    */
      369        4        /*T*                                                         */
      370        5        /*T***********************************************************/
      371        6        /**********************************************************************/
      372        7        /*F*   NAME:   CXB$DELAM
      373        8               PURPOSE: Delete a keyed record or multiple keyed records in the *a file.
      374        9               DESCRIPTION: A single keyed record is deleted if one key is specified.
      375       10                       If two keys are specified, this is considered a range
      376       11                       specification and multiple keys are deleted.
      377       12        */
      378       13        /*D*   NAME:   CXB$DELAM
      379       14               CALL:   CALL CXB$DELAM(FKEY$,LKEY$,WKDCB#,CPSL_PARAM)
      380       15               INPUT:  FKEY$ - pointer to first key to be deleted
      381       16                       LKEY$ - pointer to last key within range to be deleted
      382       17                       WKDCB# - The dcb number to use to DELETE AM record.
      383       18                       CPSL_PARAM - The Command Processor Shared Library Parameter.
      384       19               OUTPUT: assign merge record(s) deleted from *a file
      385       20               DESCRIPTION: A check is made to determine whether a single or
      386       21                       multiple keyed records within a given range are to be
      387       22                       deleted and the M$DELREC fpt initialized accordingly.
      388       23        */
      389       24        /**********************************************************************/
      390       25        CXB$DELAM: PROC(FKEY$,LKEY$,WKDCB#,CPSL_PARAM) ;

     25  1 000000   000000 700200 xent  CXB$DELAM    TSX0  ! X66_AUTO_4
         1 000001   000154 000004                    ZERO    108,4

      391       26                   %INCLUDE CP_6;
      392      107                   %INCLUDE XU_MACRO_C;
      393     3213                   %INCLUDE CX_DATA_R;
      394     4147                   %INCLUDE CX_MACROS_M;
      395     4198                   %INCLUDE CX_SUBS_C;
      396     4211                   %INCLUDE B_MACROS_C;
      397     4322                   %INCLUDE CX_PERR_C;
PL6.E3A0      #003=CXB$DELAM File=CXB$SUBR.:E05TSI                               TUE 07/29/97 12:19 Page:77
      398     4393                   %INCLUDE CP_6_SUBS;
      399     4933                   %INCLUDE B$JIT;
      400     5223                   %INCLUDE B_ERRORS_C;
      401     6350                   %INCLUDE CXG_ENTRY ;
      402     6362          /***** Parameters *****/
      403     6363    1   DCL FKEY$ PTR;                          /*Ptr to 1ST key*/
      404     6364    1   DCL LKEY$ PTR;                          /*Ptr to last key*/
      405     6365    1   DCL WKDCB# UBIN WORD ;
      406     6366    1   DCL ACTIVE_PRIVS BIT(36) ;
      407     6367        %CPSL_COMMAND_PARAMETERS (NAME=CPSL_PARAM, STCLASS=PARAM) ;
      408     6385          /***** External routines *****/
      409     6386          /***** Based structures *****/
      410     6387        %B$TCB (STCLASS="BASED(B$TCB$)");
      411     6390        %B$EXCFR;
      412     6408        %TEXTC;
      413     6413        %F$DCB(DCBN=F$DCB);
      414     6470        %FPT_CLOSE(FPTN=FPT_CLOSE,STCLASS=AUTO);
      415     6512          /***** Fpts *****/
      416     6513        %FPT_OPEN(FPTN=FPT_OPEN,STCLASS=AUTO);
      417     6622        %FPT_DELREC(FPTN=FPT_DELREC,STCLASS=AUTO);
      418     6641        %EJECT;
PL6.E3A0      #003=CXB$DELAM File=CXB$SUBR.:E05TSI                               TUE 07/29/97 12:19 Page:78
      419     6642          %SAVE_ACTIVE_PRIVS;

   6643  1 000002   000000 470400 xsym               LDP0    B$JIT$
         1 000003   000013 236100                    LDQ     11,,PR0
         1 000004   200007 756100                    STQ     ACTIVE_PRIVS,,AUTO

   6644  1 000005   000013 450100                    STZ     11,,PR0

      420     6646    1     FPT_CLOSE = CPSL_CFPT_CLOSE ;

   6646  1 000006   000100 100400                    MLR     fill='000'O
         1 000007   000000 000170 xsym               ADSC9   CPSL_CFPT_CLOSE          cn=0,n=120
         1 000010   200010 000170                    ADSC9   FPT_CLOSE,,AUTO          cn=0,n=120

      421     6647    1     FPT_CLOSE.V_ = VECTOR(FPT_CLOSE.V) ;

   6647  1 000011   000000 235000 2                  LDA     0
         1 000012   200152 452500                    STP2    FPT_DELREC+10,,AUTO
         1 000013   200152 236100                    LDQ     FPT_DELREC+10,,AUTO
         1 000014   000042 036003                    ADLQ    34,DU
         1 000015   200010 757100                    STAQ    FPT_CLOSE,,AUTO

      422     6648        /*
      423     6649             ***** Open *A file...
      424     6650        */
      425     6651    1     FPT_OPEN=CPSL_CFPT_OPEN;

   6651  1 000016   000100 100400                    MLR     fill='000'O
         1 000017   000000 000350 xsym               ADSC9   CPSL_CFPT_OPEN           cn=0,n=232
         1 000020   200046 000350                    ADSC9   FPT_OPEN,,AUTO           cn=0,n=232

      426     6652    1     FPT_OPEN.V_=VECTOR(FPT_OPEN.V);

   6652  1 000021   000001 235000 2                  LDA     1
         1 000022   200152 452500                    STP2    FPT_DELREC+10,,AUTO
         1 000023   200152 236100                    LDQ     FPT_DELREC+10,,AUTO
         1 000024   000112 036003                    ADLQ    74,DU
PL6.E3A0      #003=CXB$DELAM File=CXB$SUBR.:E05TSI                               TUE 07/29/97 12:19 Page:79
         1 000025   200046 757100                    STAQ    FPT_OPEN,,AUTO

      427     6653    1     FPT_OPEN.NAME_=VECTOR(CPSL_STARA);

   6653  1 000026   000002 237000 2                  LDAQ    2
         1 000027   200054 757100                    STAQ    FPT_OPEN+6,,AUTO

      428     6654    1     FPT_OPEN.V.DCB#=WKDCB#;

   6654  1 000030   200005 471500                    LDP1    @WKDCB#,,AUTO
         1 000031   100000 720100                    LXL0    0,,PR1
         1 000032   200112 740100                    STX0    FPT_OPEN+36,,AUTO

      429     6655    1     FPT_OPEN.V.ASN#=%FILE#;

   6655  1 000033   000001 236007                    LDQ     1,DL
         1 000034   200113 552104                    STBQ    FPT_OPEN+37,'04'O,AUTO

      430     6656    1     FPT_OPEN.V.FUN#=%UPDATE#;

   6656  1 000035   001000 236007                    LDQ     512,DL
         1 000036   200113 552110                    STBQ    FPT_OPEN+37,'10'O,AUTO

      431     6657    1     FPT_OPEN.V.ORG#=%KEYED#;

   6657  1 000037   002000 236007                    LDQ     1024,DL
         1 000040   200114 552110                    STBQ    FPT_OPEN+38,'10'O,AUTO

      432     6658    1     FPT_OPEN.V.ACS#=%DIRECT#;

   6658  1 000041   000002 236007                    LDQ     2,DL
         1 000042   200114 552104                    STBQ    FPT_OPEN+38,'04'O,AUTO

      433     6659    1     FPT_OPEN.V.INITZ.SCRUB#=%YES#;

   6659  1 000043   400000 236007                    LDQ     -131072,DL
         1 000044   200112 256100                    ORSQ    FPT_OPEN+36,,AUTO
PL6.E3A0      #003=CXB$DELAM File=CXB$SUBR.:E05TSI                               TUE 07/29/97 12:19 Page:80

      434     6660    1     CALL M$OPEN(FPT_OPEN) ALTRET(E_OPENAM);

   6660  1 000045   200046 630500                    EPPR0   FPT_OPEN,,AUTO
         1 000046   450000 713400                    CLIMB   alt,open
         1 000047   410400 401760                    pmme    nvectors=18
         1 000050   000145 702000 1                  TSX2    E_OPENAM

      435     6661          %RESTORE_ACTIVE_PRIVS;

   6662  1 000051   200007 236100                    LDQ     ACTIVE_PRIVS,,AUTO
         1 000052   000000 470400 xsym               LDP0    B$JIT$
         1 000053   000013 756100                    STQ     11,,PR0

      436     6664        /*
      437     6665             ***** init FPT_DELREC
      438     6666        */
      439     6667    1     FPT_DELREC = CPSL_CFPT_DELREC;

   6667  1 000054   000100 100400                    MLR     fill='000'O
         1 000055   000000 000050 xsym               ADSC9   CPSL_CFPT_DELREC         cn=0,n=40
         1 000056   200140 000050                    ADSC9   FPT_DELREC,,AUTO         cn=0,n=40

      440     6668    1     FPT_DELREC.V_ = VECTOR(FPT_DELREC.V);

   6668  1 000057   000004 235000 2                  LDA     4
         1 000060   200152 452500                    STP2    FPT_DELREC+10,,AUTO
         1 000061   200152 236100                    LDQ     FPT_DELREC+10,,AUTO
         1 000062   000150 036003                    ADLQ    104,DU
         1 000063   200140 757100                    STAQ    FPT_DELREC,,AUTO

      441     6669    1     FPT_DELREC.KEY_=VECTOR(FKEY$->TEXTC);

   6669  1 000064   200003 471500                    LDP1    @FKEY$,,AUTO
         1 000065   100000 473500                    LDP3    0,,PR1
         1 000066   000100 101500                    MRL     fill='000'O
         1 000067   300000 000001                    ADSC9   0,,PR3                   cn=0,n=1
PL6.E3A0      #003=CXB$DELAM File=CXB$SUBR.:E05TSI                               TUE 07/29/97 12:19 Page:81
         1 000070   200152 000002                    ADSC9   FPT_DELREC+10,,AUTO      cn=0,n=2
         1 000071   200152 220100                    LDX0    FPT_DELREC+10,,AUTO
         1 000072   000001 621010                    EAX1    1,X0
         1 000073   000000 635011                    EAA     0,X1
         1 000074   000002 771000                    ARL     2
         1 000075   000140 135007                    SBLA    96,DL
         1 000076   200153 453500                    STP3    FPT_DELREC+11,,AUTO
         1 000077   200153 236100                    LDQ     FPT_DELREC+11,,AUTO
         1 000100   200142 757100                    STAQ    FPT_DELREC+2,,AUTO

      442     6670    1     FPT_DELREC.V.DCB#=WKDCB#;

   6670  1 000101   200005 473500                    LDP3    @WKDCB#,,AUTO
         1 000102   300000 720100                    LXL0    0,,PR3
         1 000103   200150 740100                    STX0    FPT_DELREC+8,,AUTO

      443     6671        /*
      444     6672             *****     Check if last key spec'd
      445     6673        */
      446     6674    1     IF ADDR(LKEY$)=ADDR(NIL)

   6674  1 000104   200004 236100                    LDQ     @LKEY$,,AUTO
         1 000105   000001 116000 xsym               CMPQ    B_VECTNIL+1
         1 000106   000112 601000 1                  TNZ     s:6678

      447     6675    1        THEN
      448     6676    1           FPT_DELREC.LKEY_=VECTOR(NIL);

   6676  1 000107   000006 237000 2                  LDAQ    6
         1 000110   200144 757100                    STAQ    FPT_DELREC+4,,AUTO
         1 000111   000127 710000 1                  TRA     s:6682

      449     6677    1        ELSE
      450     6678    1           FPT_DELREC.LKEY_=VECTOR(LKEY$->TEXTC);

   6678  1 000112   200004 474500                    LDP4    @LKEY$,,AUTO
         1 000113   400000 475500                    LDP5    0,,PR4
PL6.E3A0      #003=CXB$DELAM File=CXB$SUBR.:E05TSI                               TUE 07/29/97 12:19 Page:82
         1 000114   000100 101500                    MRL     fill='000'O
         1 000115   500000 000001                    ADSC9   0,,PR5                   cn=0,n=1
         1 000116   200152 000002                    ADSC9   FPT_DELREC+10,,AUTO      cn=0,n=2
         1 000117   200152 221100                    LDX1    FPT_DELREC+10,,AUTO
         1 000120   000001 622011                    EAX2    1,X1
         1 000121   000000 635012                    EAA     0,X2
         1 000122   000002 771000                    ARL     2
         1 000123   000140 135007                    SBLA    96,DL
         1 000124   200153 455500                    STP5    FPT_DELREC+11,,AUTO
         1 000125   200153 236100                    LDQ     FPT_DELREC+11,,AUTO
         1 000126   200144 757100                    STAQ    FPT_DELREC+4,,AUTO

      451     6679        /*
      452     6680             *****     Delete the spec'd records
      453     6681        */
      454     6682    1     CALL M$DELREC(FPT_DELREC) ALTRET(E_DELAM);

   6682  1 000127   200140 630500                    EPPR0   FPT_DELREC,,AUTO
         1 000130   440002 713400                    CLIMB   alt,+16386
         1 000131   401400 401760                    pmme    nvectors=4
         1 000132   000150 702000 1                  TSX2    E_DELAM

      455     6683    1     FPT_CLOSE.V.DCB#=WKDCB#;

   6683  1 000133   200005 470500                    LDP0    @WKDCB#,,AUTO
         1 000134   000000 720100                    LXL0    0,,PR0
         1 000135   200042 740100                    STX0    FPT_CLOSE+26,,AUTO

      456     6684    1     FPT_CLOSE.V.DISP#=%SAVE#;

   6684  1 000136   000002 236007                    LDQ     2,DL
         1 000137   200042 552104                    STBQ    FPT_CLOSE+26,'04'O,AUTO

      457     6685    1     CALL M$CLOSE(FPT_CLOSE) ALTRET(E_CLOSE);

   6685  1 000140   200010 630500                    EPPR0   FPT_CLOSE,,AUTO
         1 000141   450001 713400                    CLIMB   alt,close
PL6.E3A0      #003=CXB$DELAM File=CXB$SUBR.:E05TSI                               TUE 07/29/97 12:19 Page:83
         1 000142   406000 401760                    pmme    nvectors=13
         1 000143   000177 702000 1                  TSX2    E_CLOSE

      458     6686    1   DELAMRET:
      459     6687    1     RETURN;

   6687  1 000144   000000 702200 xent  DELAMRET     TSX2  ! X66_ARET

      460     6688
      461     6689    1   E_OPENAM:
      462     6690          %RESTORE_ACTIVE_PRIVS;

   6691  1 000145   200007 236100       E_OPENAM     LDQ     ACTIVE_PRIVS,,AUTO
         1 000146   000000 470400 xsym               LDP0    B$JIT$
         1 000147   000013 756100                    STQ     11,,PR0

      463     6693    1   E_DELAM:
      464     6694    1     CPSL_PARAM.ERRCODE = B$TCB.ALT$ -> B$EXCFR.ERR;

   6694  1 000150   000000 470400 xsym  E_DELAM      LDP0    B$TCB$
         1 000151   000000 471500                    LDP1    0,,PR0
         1 000152   100102 236100                    LDQ     66,,PR1
         1 000153   200006 473500                    LDP3    @CPSL_PARAM,,AUTO
         1 000154   300002 756100                    STQ     2,,PR3

      465     6695    1     CPSL_PARAM.FLAGS.REPORTED_TO_USER = %NO# ;

   6695  1 000155   000005 236000 2                  LDQ     5
         1 000156   300001 356100                    ANSQ    1,,PR3

      466     6696    1     IF DCBADDR(WKDCB#) -> F$DCB.FCD#

   6696  1 000157   000010 471400 2                  LDP1    8
         1 000160   100000 474500                    LDP4    0,,PR1
         1 000161   200005 475500                    LDP5    @WKDCB#,,AUTO
         1 000162   500000 720100                    LXL0    0,,PR5
         1 000163   400000 476510                    LDP6    0,X0,PR4
PL6.E3A0      #003=CXB$DELAM File=CXB$SUBR.:E05TSI                               TUE 07/29/97 12:19 Page:84
         1 000164   600031 236100                    LDQ     25,,PR6
         1 000165   020000 316007                    CANQ    8192,DL
         1 000166   000176 600000 1                  TZE     s:6703

      467     6697    1        THEN /* *A file open */
      468     6698    2           DO; /* close it */

      469     6699    2              FPT_CLOSE.V.DCB#=WKDCB#;

   6699  1 000167   200042 740100                    STX0    FPT_CLOSE+26,,AUTO

      470     6700    2              FPT_CLOSE.V.DISP#=%SAVE#;

   6700  1 000170   000002 236007                    LDQ     2,DL
         1 000171   200042 552104                    STBQ    FPT_CLOSE+26,'04'O,AUTO

      471     6701    2              CALL M$CLOSE(FPT_CLOSE) ALTRET(E_CLOSE);

   6701  1 000172   200010 630500                    EPPR0   FPT_CLOSE,,AUTO
         1 000173   450001 713400                    CLIMB   alt,close
         1 000174   406000 401760                    pmme    nvectors=13
         1 000175   000177 702000 1                  TSX2    E_CLOSE

      472     6702    2           END;

      473     6703    1     GOTO DELAMRET ;

   6703  1 000176   000144 710000 1                  TRA     DELAMRET

      474     6704    1   E_CLOSE:
      475     6705    1     CPSL_PARAM.ERRCODE = B$TCB.ALT$ -> B$EXCFR.ERR;

   6705  1 000177   000000 470400 xsym  E_CLOSE      LDP0    B$TCB$
         1 000200   000000 471500                    LDP1    0,,PR0
         1 000201   100102 236100                    LDQ     66,,PR1
         1 000202   200006 473500                    LDP3    @CPSL_PARAM,,AUTO
         1 000203   300002 756100                    STQ     2,,PR3
PL6.E3A0      #003=CXB$DELAM File=CXB$SUBR.:E05TSI                               TUE 07/29/97 12:19 Page:85

      476     6706    1     CPSL_PARAM.FLAGS.REPORTED_TO_USER = %NO# ;

   6706  1 000204   000005 236000 2                  LDQ     5
         1 000205   300001 356100                    ANSQ    1,,PR3

      477     6707    1     GOTO DELAMRET ;

   6707  1 000206   000144 710000 1                  TRA     DELAMRET
      478     6708    1   END CXB$DELAM;
      479     6709                   %EOD;

PL6.E3A0      #003=CXB$DELAM File=CXB$SUBR.:E05TSI                               TUE 07/29/97 12:19 Page:86
--  Include file information  --

   CXG_ENTRY.:E05TOU  cannot be made into a system file and is referenced.
   B_ERRORS_C.:E05TOU  is referenced.
   B$JIT.:E05TOU  cannot be made into a system file and is referenced.
   CP_6_SUBS.:E05TOU  is referenced.
   CX_PERR_C.:E05TOU  is referenced.
   B_MACROS_C.:E05TOU  is referenced.
   CX_SUBS_C.:E05TOU  is referenced.
   CX_MACROS_M.:E05TOU  is referenced.
   CX_DATA_R.:E05TOU  cannot be made into a system file and is referenced.
   XU_MACRO_C.:E05TOU  is referenced.
   CP_6.:E05TOU  cannot be made into a system file and is referenced.
   B$JIT_C.:E05TOU  was found in the system file and is referenced.
   CP_6_C.:E05TOU  was found in the system file and is referenced.
      No diagnostics issued in procedure CXB$DELAM.
PL6.E3A0      #003=CXB$DELAM File=CXB$SUBR.:E05TSI                               TUE 07/29/97 12:19 Page:87

 **** Variables and constants ****

  ****  Auto variables  ****

  ****  Scalars and arrays  ****
OctLoc.c.b A Datatyp(siz) R M Lvl/name                 OctLoc.c.b A Datatyp(siz) R M Lvl/name

     6-0-0/w PTR         r     1 @CPSL_PARAM                3-0-0/w PTR         r     1 @FKEY$
     4-0-0/w PTR         r     1 @LKEY$                     5-0-0/w PTR         r     1 @WKDCB#
     7-0-0/b BIT         r     1 ACTIVE_PRIVS              *0-0-0/w STRC(180)   r     1 CPSL_PARAM
    *0-0-0/w PTR         r     1 FKEY$                     10-0-0/d STRC(1080)  r     1 FPT_CLOSE
   140-0-0/d STRC(360)   r     1 FPT_DELREC                46-0-0/d STRC(2088)  r     1 FPT_OPEN
    *0-0-0/w PTR         r     1 LKEY$                     *0-0-0/w UBIN        r     1 WKDCB#

  ****  SYMREF variables  ****

  ****  Scalars and arrays  ****
OctLoc.c.b A Datatyp(siz) R M Lvl/name                 OctLoc.c.b A Datatyp(siz) R M Lvl/name

     0-0-0/w PTR         r     1 B$JIT$                     0-0-0/w PTR         r     1 B$TCB$
     0-0-0/d STRC(1080)  r     1 CPSL_CFPT_CLOSE            0-0-0/d STRC(360)   r     1 CPSL_CFPT_DELREC
     0-0-0/d STRC(2088)  r     1 CPSL_CFPT_OPEN             0-0-0/c STRC(27)    r     1 CPSL_STARA

  ****  BASED and DCB variables  ****

  ****  Scalars and arrays  ****
OctLoc.c.b A Datatyp(siz) R M Lvl/name                 OctLoc.c.b A Datatyp(siz) R M Lvl/name

     0-0-0/w STRC(2448)  r     1 B$EXCFR                    0-0-0/d STRC(8856)  r     1 B$JIT
     0-0-0/w STRC(144)   r     1 B$TCB                      0-0-0/d ASTR(3528)  r     1 F$DCB
     0-0-0/c ASTR(9)     r     1 TEXTC


   Procedure CXB$DELAM requires 135 words for executable code.
   Procedure CXB$DELAM requires 108 words of local(AUTO) storage.
PL6.E3A0      #003=CXB$DELAM File=CXB$SUBR.:E05TSI                               TUE 07/29/97 12:19 Page:88
          *** CROSS REFERENCE LISTING ***
**     DENOTES     IDENTIFIER DEFINITION
<<                 IDENTIFIER'S VALUE SET
>>                 IDENTIFIER'S VALUE USED
<>                 IDENTIFIER SET AND/OR USED
--                 IDENTIFIER REFERENCED
PL6.E3A0      #003=CXB$DELAM File=CXB$SUBR.:E05TSI                               TUE 07/29/97 12:19 Page:89
          MINI XREF LISTING

ACTIVE_PRIVS
      6366**DCL      6643<<ASSIGN   6662>>ASSIGN   6691>>ASSIGN
B$EXCFR.ASL
      6391**DCL      6391--REDEF
B$EXCFR.ERR
      6405**DCL      6694>>ASSIGN   6705>>ASSIGN
B$EXCFR.ERR.ERR#
      6405**DCL      6405--REDEF
B$EXCFR.EVID
      6404**DCL      6404--REDEF    6405--REDEF
B$EXCFR.IR
      6392**DCL      6392--REDEF
B$EXCFR.PREVSZ
      6391**DCL      6391--REDEF
B$EXCFR.SUBC
      6403**DCL      6403--REDEF    6404--REDEF    6404--REDEF
B$JIT.CPFLAGS1.SLEAZE
      5041**DCL      5041--REDEF
B$JIT.ERR.MID
      4948**DCL      4948--REDEF
B$JIT.JRESPEAK
      5109**DCL      5110--REDEF
B$JIT.ORIGINATOR_PORT.FROM_CR
      5218**DCL      5218--REDEF    5219--REDEF
B$JIT.PNR
      5122**DCL      5122--REDEF
B$JIT.PRIV.ACTIVE
      4948**DCL      6643>>ASSIGN   6644<<ASSIGN   6662<<ASSIGN   6691<<ASSIGN
B$JIT.TSLINE
      5216**DCL      5217--REDEF
B$JIT$
      4114**DCL      4942--IMP-PTR  6643>>ASSIGN   6644>>ASSIGN   6662>>ASSIGN   6691>>ASSIGN
PL6.E3A0      #003=CXB$DELAM File=CXB$SUBR.:E05TSI                               TUE 07/29/97 12:19 Page:90
B$TCB.ALT$
      6388**DCL      6694>>ASSIGN   6705>>ASSIGN
B$TCB$
      4115**DCL      6388--IMP-PTR  6694>>ASSIGN   6705>>ASSIGN
CPSL_CAMR_REC.ACSVEH_
      3402**DCL      3403--REDEF
CPSL_CAMR_REC.ALTKEYS_
      3408**DCL      3409--REDEF    3409--REDEF
CPSL_CAMR_REC.HDR_
      3407**DCL      3408--REDEF
CPSL_CAMR_REC.TAB_
      3406**DCL      3407--REDEF
CPSL_CAMR_REC.UHL_
      3400**DCL      3401--REDEF    3401--REDEF
CPSL_CAMR_REC.V.FSN#
      3440**DCL      3440--REDEF    3440--REDEF
CPSL_CAMR_REC.WSN_
      3406**DCL      3406--REDEF
CPSL_CFPT_CLOSE
      3467**DCL      6646>>ASSIGN
CPSL_CFPT_CLOSE.SN_
      3467**DCL      3467--REDEF
CPSL_CFPT_CLOSE.UTL_
      3468**DCL      3468--REDEF
CPSL_CFPT_CLOSE.V.EXPIRE#
      3482**DCL      3482--REDEF
CPSL_CFPT_CLOSE.V.TYPE#
      3480**DCL      3480--REDEF
CPSL_CFPT_CLOSE.V.XTNSIZE#
      3477**DCL      3477--REDEF    3479--REDEF
CPSL_CFPT_DELREC
      3567**DCL      6667>>ASSIGN
CPSL_CFPT_OPEN
      3291**DCL      6651>>ASSIGN
CPSL_CFPT_OPEN.ACSVEH_
      3293**DCL      3294--REDEF
PL6.E3A0      #003=CXB$DELAM File=CXB$SUBR.:E05TSI                               TUE 07/29/97 12:19 Page:91
CPSL_CFPT_OPEN.ALTKEYS_
      3299**DCL      3300--REDEF    3300--REDEF
CPSL_CFPT_OPEN.HDR_
      3298**DCL      3299--REDEF
CPSL_CFPT_OPEN.TAB_
      3297**DCL      3298--REDEF
CPSL_CFPT_OPEN.UHL_
      3291**DCL      3292--REDEF    3292--REDEF
CPSL_CFPT_OPEN.V.FSN#
      3331**DCL      3331--REDEF    3331--REDEF
CPSL_CFPT_OPEN.WSN_
      3297**DCL      3297--REDEF
CPSL_CFPT_READ.STATION_
      3506**DCL      3507--REDEF
CPSL_CFPT_READ.V.DVBYTE.REREAD#
      3518**DCL      3518--REDEF
CPSL_CFPT_READ.V.INDX#
      3516**DCL      3516--REDEF
CPSL_CFPT_WRITE.STATION_
      3544**DCL      3544--REDEF
CPSL_CFPT_WRITE.V.DVBYTE.VFC#
      3551**DCL      3551--REDEF
CPSL_CVLP_TRMCTL.BREAKCOUNT
      3935**DCL      3936--REDEF
CPSL_CVLP_WINDOW.FWINDOW#
      4031**DCL      4031--REDEF    4032--REDEF
CPSL_PARAM
      6368**DCL        25--PROC
CPSL_PARAM.ERRCODE
      6376**DCL      6694<<ASSIGN   6705<<ASSIGN
CPSL_PARAM.FLAGS.REPORTED_TO_USER
      6373**DCL      6695<<ASSIGN   6706<<ASSIGN
CPSL_STARA
      4141**DCL      6653--ASSIGN
DELAMRET
      6687**LABEL    6703--GOTO     6707--GOTO
PL6.E3A0      #003=CXB$DELAM File=CXB$SUBR.:E05TSI                               TUE 07/29/97 12:19 Page:92
E_CLOSE
      6705**LABEL    6685--CALLALT  6701--CALLALT
E_DELAM
      6694**LABEL    6682--CALLALT
E_OPENAM
      6691**LABEL    6660--CALLALT
F$DCB.ACTPOS
      6446**DCL      6446--REDEF
F$DCB.ARS#
      6420**DCL      6420--REDEF
F$DCB.ATTR
      6439**DCL      6440--REDEF
F$DCB.BORROW
      6454**DCL      6454--REDEF    6454--REDEF    6454--REDEF
F$DCB.DCBNAME.L
      6468**DCL      6468--IMP-SIZ
F$DCB.EOMCHAR#
      6424**DCL      6424--REDEF
F$DCB.FCD#
      6433**DCL      6696>>IF
F$DCB.FLDID
      6449**DCL      6449--REDEF
F$DCB.FORM$
      6443**DCL      6443--REDEF
F$DCB.FSECT
      6459**DCL      6459--REDEF
F$DCB.FSN#
      6436**DCL      6436--REDEF    6436--REDEF    6437--REDEF
F$DCB.HEADER$
      6442**DCL      6442--REDEF
F$DCB.IXTNSIZE#
      6440**DCL      6440--REDEF
F$DCB.LASTSTA$
      6429**DCL      6429--REDEF
F$DCB.LVL
      6455**DCL      6455--REDEF
PL6.E3A0      #003=CXB$DELAM File=CXB$SUBR.:E05TSI                               TUE 07/29/97 12:19 Page:93
F$DCB.NAME#.C
      6430**DCL      6430--REDEF
F$DCB.NOEOF
      6452**DCL      6452--REDEF
F$DCB.NRECS#
      6441**DCL      6441--REDEF
F$DCB.NRECX
      6460**DCL      6460--REDEF
F$DCB.OHDR
      6452**DCL      6452--REDEF
F$DCB.ORG#
      6435**DCL      6435--REDEF
F$DCB.PRECNO
      6458**DCL      6458--REDEF
F$DCB.RCSZ
      6464**DCL      6464--REDEF
F$DCB.RES#
      6431**DCL      6431--REDEF
F$DCB.SETX
      6443**DCL      6443--REDEF
F$DCB.TAB$
      6443**DCL      6443--REDEF
F$DCB.TDA
      6457**DCL      6458--REDEF
F$DCB.WSN#
      6431**DCL      6431--REDEF
FKEY$
      6363**DCL        25--PROC     6669>>ASSIGN   6669>>ASSIGN
FPT_CLOSE
      6493**DCL      6646<<ASSIGN   6685<>CALL     6701<>CALL
FPT_CLOSE.SN_
      6493**DCL      6493--REDEF
FPT_CLOSE.UTL_
      6494**DCL      6494--REDEF
FPT_CLOSE.V
      6498**DCL      6647--ASSIGN
PL6.E3A0      #003=CXB$DELAM File=CXB$SUBR.:E05TSI                               TUE 07/29/97 12:19 Page:94
FPT_CLOSE.V.DCB#
      6499**DCL      6683<<ASSIGN   6699<<ASSIGN
FPT_CLOSE.V.DISP#
      6502**DCL      6684<<ASSIGN   6700<<ASSIGN
FPT_CLOSE.V.EXPIRE#
      6508**DCL      6508--REDEF
FPT_CLOSE.V.TYPE#
      6506**DCL      6506--REDEF
FPT_CLOSE.V.XTNSIZE#
      6503**DCL      6503--REDEF    6505--REDEF
FPT_CLOSE.V_
      6493**DCL      6647<<ASSIGN
FPT_DELREC
      6633**DCL      6667<<ASSIGN   6682<>CALL
FPT_DELREC.KEY_
      6633**DCL      6669<<ASSIGN
FPT_DELREC.LKEY_
      6635**DCL      6676<<ASSIGN   6678<<ASSIGN
FPT_DELREC.V
      6636**DCL      6668--ASSIGN
FPT_DELREC.V.DCB#
      6637**DCL      6670<<ASSIGN
FPT_DELREC.V_
      6633**DCL      6668<<ASSIGN
FPT_OPEN
      6578**DCL      6651<<ASSIGN   6660<>CALL
FPT_OPEN.ACSVEH_
      6580**DCL      6581--REDEF
FPT_OPEN.ALTKEYS_
      6586**DCL      6587--REDEF    6587--REDEF
FPT_OPEN.HDR_
      6585**DCL      6586--REDEF
FPT_OPEN.NAME_
      6579**DCL      6653<<ASSIGN
FPT_OPEN.TAB_
      6584**DCL      6585--REDEF
PL6.E3A0      #003=CXB$DELAM File=CXB$SUBR.:E05TSI                               TUE 07/29/97 12:19 Page:95
FPT_OPEN.UHL_
      6578**DCL      6579--REDEF    6579--REDEF
FPT_OPEN.V
      6587**DCL      6652--ASSIGN
FPT_OPEN.V.ACS#
      6598**DCL      6658<<ASSIGN
FPT_OPEN.V.ASN#
      6597**DCL      6655<<ASSIGN
FPT_OPEN.V.DCB#
      6587**DCL      6654<<ASSIGN
FPT_OPEN.V.FSN#
      6618**DCL      6618--REDEF    6618--REDEF
FPT_OPEN.V.FUN#
      6597**DCL      6656<<ASSIGN
FPT_OPEN.V.INITZ.SCRUB#
      6588**DCL      6659<<ASSIGN
FPT_OPEN.V.ORG#
      6598**DCL      6657<<ASSIGN
FPT_OPEN.V_
      6578**DCL      6652<<ASSIGN
FPT_OPEN.WSN_
      6584**DCL      6584--REDEF
LKEY$
      6364**DCL        25--PROC     6674--IF       6678>>ASSIGN   6678>>ASSIGN
M$CLOSE
        35**DCL-ENT  6685--CALL     6701--CALL
M$DELREC
        37**DCL-ENT  6682--CALL
M$OPEN
        35**DCL-ENT  6660--CALL
TEXTC
      6409**DCL      6669--ASSIGN   6678--ASSIGN
TEXTC.SIZ
      6410**DCL      6411--IMP-SIZ  6669>>ASSIGN   6678>>ASSIGN
WKDCB#
      6365**DCL        25--PROC     6654>>ASSIGN   6670>>ASSIGN   6683>>ASSIGN   6696--IF       6699>>ASSIGN

