PL6.E3A0      #005=CXB$WINDOW_OPTS File=CXB$SUBR.:E05TSI                         TUE 07/29/97 12:24 Page:413
     2310        1        /*T***********************************************************/
     2311        2        /*T*                                                         */
     2312        3        /*T* Copyright (c) Bull HN Information Systems Inc., 1997    */
     2313        4        /*T*                                                         */
     2314        5        /*T***********************************************************/
     2315        6        /********************************************************************/
     2316        7        /*F*   NAME:   CXB$WINDOW_OPTS
     2317        8               PURPOSE: To process the WINDOW options for SET/RESET/ADJUST,
     2318        9                      TERMINAL, and LDEV commands.
     2319       10               DESCRIPTION: CXB$WINDOW processes the various WINDOW options which
     2320       11                       may be specified on the SET,RESET,ADJUST,TERMINAL and LDEV
     2321       12                       commands and stores it in the VLP_WINDOW passed.
     2322       13        */
     2323       14        /*D*   NAME:   CXB$WINDOW_OPTS
     2324       15               CALL:   CALL CXB$WINDOW_OPTS(BLK$,VLP$,GETCMD,CPSL_PARAM)
     2325       16               INTERFACE: CXG$ERRMSG
     2326       17               INPUT:  BLK$ - pointer to parse output
     2327       18                       VLP$ - pointer to the FPT_xxx.WINDOW_.
     2328       19                       GETCMD - The CXG$GETCMD parameter.
     2329       20                       CPSL_PARAM - The Command Processor Shared Library Parameter.
     2330       21               DESCRIPTION: Data segment #3 is expected to contain the VLP_WINDOW
     2331       22                       The various options are processed and the VLP_WINDOW
     2332       23                       is set accordingly.
     2333       24        */
     2334       25        /**********************************************************************/
     2335       26        CXB$WINDOW_OPTS: PROC(BLK$,VLP$,GETCMD,CPSL_PARAM) ;
     2336       27                   %INCLUDE CP_6;
     2337      108                   %INCLUDE CX_MACROS_M;
     2338      159                   %INCLUDE XU_MACRO_C;
     2339     3265                   %INCLUDE CX_DATA_R;
     2340     4199                   %INCLUDE XU_SUBS_C;
     2341     4291                   %INCLUDE CX_SUBS_C;
     2342     4304                   %INCLUDE CX_ISUBS_C;
     2343     4656                   %INCLUDE CX_PERR_C;
     2344     4727                   %INCLUDE CP_6_SUBS;
     2345     5267                   %INCLUDE B_ERRORS_C;
     2346     6394                   %INCLUDE CXG_ENTRY ;
PL6.E3A0      #005=CXB$WINDOW_OPTS File=CXB$SUBR.:E05TSI                         TUE 07/29/97 12:24 Page:414
     2347     6406    1   DCL BLK$ PTR PARAM ;
     2348     6407    1   DCL VLP$ PTR PARAM ;
     2349     6408        %XUG_GETCMD (NAME=GETCMD, STCLASS=PARAM) ;
     2350     6746        %CPSL_COMMAND_PARAMETERS (NAME=CPSL_PARAM, STCLASS=PARAM) ;
     2351     6764
     2352     6765    1   DCL CXX$WINDOW ENTRY(4) ;                        /* Context checker. */
     2353     6766        %PARSE$OUT(NAME=OUT$BLK);
     2354     6811        %PARSE$SYM(NAME=P$S);
     2355     6849        %VLP_WINDOW(FPTN=VLP$WINDOW,STCLASS="BASED (VLP$)");
     2356     6893    1   DCL TEMP$ PTR ;
     2357     6894    1   DCL PTR$ PTR ;
     2358     6895    1   DCL I UBIN WORD ;
     2359     6896    1   DCL J UBIN WORD ;
     2360     6897
     2361     6898    2       DO CASE(BLK$->OUT$BLK.CODE) ;
     2362     6899    2         CASE(FWINDOWOPT,
     2363     6900    2               HBRDRCHROPT,
     2364     6901    2               HBRDRSIZOPT,
     2365     6902    2               WLENGTHOPT,
     2366     6903    2               MINLENGTHOPT,
     2367     6904    2               MINWIDTHOPT,
     2368     6905    2               VBRDRCHROPT,
     2369     6906    2               VBRDRSIZOPT,
     2370     6907    2               WWIDTHOPT) ;
     2371     6908    2             CALL CXX$WINDOW(BLK$->OUT$BLK,GETCMD,CPSL_PARAM,J) ;
     2372     6909    2       END ; /* Do Case */
     2373     6910
     2374     6911    2       DO CASE(BLK$->OUT$BLK.CODE) ;
     2375     6912    2         CASE(BTMBRDROPT) ;
     2376     6913    2             VLP$WINDOW.BTMBRDR# = BINBIT(BLK$->OUT$BLK.SUBLK$(0)->OUT$BLK.CODE,1);
     2377     6914    2         CASE(FWINDOWOPT) ;
     2378     6915    2             VLP$WINDOW.FWINDOW# = BLK$->OUT$BLK.SUBLK$(0)->P$S.TEXT ;
     2379     6916    2         CASE(HBRDRCHROPT) ;
     2380     6917    2             VLP$WINDOW.HBRDRCHR# = BLK$->OUT$BLK.SUBLK$(0)->P$S.TEXT ;
     2381     6918    2         CASE(HBRDRSIZOPT) ;
     2382     6919    2             VLP$WINDOW.HBRDRSIZ# = J ;
     2383     6920    2         CASE(LFTBRDROPT) ;
PL6.E3A0      #005=CXB$WINDOW_OPTS File=CXB$SUBR.:E05TSI                         TUE 07/29/97 12:24 Page:415
     2384     6921    2             VLP$WINDOW.LFTBRDR# = BINBIT(BLK$->OUT$BLK.SUBLK$(0)->OUT$BLK.CODE,1);
     2385     6922    2         CASE(MINLENGTHOPT) ;
     2386     6923    2             VLP$WINDOW.MINLENGTH# = J ;
     2387     6924    2         CASE(MINWIDTHOPT) ;
     2388     6925    2             VLP$WINDOW.MINWIDTH# = J ;
     2389     6926    2         CASE(OPTIONALOPT) ;
     2390     6927    2             VLP$WINDOW.REMOVABLE# = BINBIT(BLK$->OUT$BLK.SUBLK$(0)->OUT$BLK.CODE,1);
     2391     6928    2         CASE(POSITIONOPT) ;
     2392     6929    2             VLP$WINDOW.POSITION# = BLK$->OUT$BLK.SUBLK$(0)->OUT$BLK.CODE ;
     2393     6930    2         CASE(RHTBRDROPT) ;
     2394     6931    2             VLP$WINDOW.RHTBRDR# = BINBIT(BLK$->OUT$BLK.SUBLK$(0)->OUT$BLK.CODE,1);
     2395     6932    2         CASE(TOPBRDROPT) ;
     2396     6933    2             VLP$WINDOW.TOPBRDR# = BINBIT(BLK$->OUT$BLK.SUBLK$(0)->OUT$BLK.CODE,1);
     2397     6934    2         CASE(VBRDRCHROPT) ;
     2398     6935    2             VLP$WINDOW.VBRDRCHR# = BLK$->OUT$BLK.SUBLK$(0)->P$S.TEXT ;
     2399     6936    2         CASE(VBRDRSIZOPT) ;
     2400     6937    2             VLP$WINDOW.VBRDRSIZ# = J ;
     2401     6938    2         CASE(WLENGTHOPT) ;
     2402     6939    2             VLP$WINDOW.LENGTH# = J + %WINDOW_ABSVAL# ;
     2403     6940    2         CASE(WWIDTHOPT) ;
     2404     6941    2             VLP$WINDOW.WIDTH# = J + %WINDOW_ABSVAL# ;
     2405     6942    2       END ; /* Do Case */
     2406     6943
     2407     6944    1       RETURN ;
     2408     6945
     2409     6946    1   END CXB$WINDOW_OPTS ;

PL6.E3A0      #005=CXB$WINDOW_OPTS File=CXB$SUBR.:E05TSI                         TUE 07/29/97 12:24 Page:416
--  Include file information  --

   CXG_ENTRY.:E05TOU  cannot be made into a system file and is referenced.
   B_ERRORS_C.:E05TOU  is referenced.
   CP_6_SUBS.:E05TOU  is referenced.
   CX_PERR_C.:E05TOU  is referenced.
   CX_ISUBS_C.:E05TOU  is referenced.
   CX_SUBS_C.:E05TOU  is referenced.
   XU_SUBS_C.:E05TOU  is referenced.
   CX_DATA_R.:E05TOU  cannot be made into a system file and is referenced.
   XU_MACRO_C.:E05TOU  is referenced.
   CX_MACROS_M.:E05TOU  is referenced.
   CP_6.:E05TOU  cannot be made into a system file and is referenced.
   B$JIT_C.:E05TOU  was found in the system file and is never referenced.
   CP_6_C.:E05TOU  was found in the system file and is referenced.
      No diagnostics issued in procedure CXB$WINDOW_OPTS.

   Procedure CXB$WINDOW_OPTS requires 189 words for executable code.
   Procedure CXB$WINDOW_OPTS requires 16 words of local(AUTO) storage.

    No errors detected in file CXB$SUBR.:E05TSI    .

PL6.E3A0      #005=CXB$WINDOW_OPTS File=CXB$SUBR.:E05TSI                         TUE 07/29/97 12:24 Page:417

 Object Unit name= CXB$WINDOW_OPTS                            File name= CXB$SUBR.:E05TOU
 UTS= JUL 29 '97 12:24:51.48 TUE                              Compiler= PL-6/E31         Sev=      00
 SharedLib= :SHARED_SYSTEM                                    Alt SharedLib=


    ****  Control sections  ****

 Sect   Type Bound  Init  Size OctSiz  Section name(segment info)
    0   DCB   even  none     0      0  M$UC
    1   Proc  even  none   189    275  CXB$WINDOW_OPTS

    ****  Entry defs  ****

                              Check   Calling
                             calling  sequence
  Sect OctLoc Primary Altret sequence   type   Parms  Name
     1      0   yes            yes      Std        4  CXB$WINDOW_OPTS

  ****  Entry refs  ****

         Check        Calling
        calling       sequence
Altret sequence SRef   type   Args  Name
         yes           Std       4 CXX$WINDOW
                       nStd      0 X66_AUTO_4
                       Std       0 B_CONSPOOL_D
                       nStd      0 X66_ARET

  ****  Data refs  ****

  Flags:  r = read only, s = secondary
Flgs Name                             Flgs Name                             Flgs Name
     M$UC                                  B_VECTNIL
PL6.E3A0      #005=CXB$WINDOW_OPTS File=CXB$SUBR.:E05TSI                         TUE 07/29/97 12:24 Page:418


     2310        1        /*T***********************************************************/
     2311        2        /*T*                                                         */
     2312        3        /*T* Copyright (c) Bull HN Information Systems Inc., 1997    */
     2313        4        /*T*                                                         */
     2314        5        /*T***********************************************************/
     2315        6        /********************************************************************/
     2316        7        /*F*   NAME:   CXB$WINDOW_OPTS
     2317        8               PURPOSE: To process the WINDOW options for SET/RESET/ADJUST,
     2318        9                      TERMINAL, and LDEV commands.
     2319       10               DESCRIPTION: CXB$WINDOW processes the various WINDOW options which
     2320       11                       may be specified on the SET,RESET,ADJUST,TERMINAL and LDEV
     2321       12                       commands and stores it in the VLP_WINDOW passed.
     2322       13        */
     2323       14        /*D*   NAME:   CXB$WINDOW_OPTS
     2324       15               CALL:   CALL CXB$WINDOW_OPTS(BLK$,VLP$,GETCMD,CPSL_PARAM)
     2325       16               INTERFACE: CXG$ERRMSG
     2326       17               INPUT:  BLK$ - pointer to parse output
     2327       18                       VLP$ - pointer to the FPT_xxx.WINDOW_.
     2328       19                       GETCMD - The CXG$GETCMD parameter.
     2329       20                       CPSL_PARAM - The Command Processor Shared Library Parameter.
     2330       21               DESCRIPTION: Data segment #3 is expected to contain the VLP_WINDOW
     2331       22                       The various options are processed and the VLP_WINDOW
     2332       23                       is set accordingly.
     2333       24        */
     2334       25        /**********************************************************************/
     2335       26        CXB$WINDOW_OPTS: PROC(BLK$,VLP$,GETCMD,CPSL_PARAM) ;

     26  1 000000   000000 700200 xent  CXB$WINDOW_* TSX0  ! X66_AUTO_4
         1 000001   000020 000004                    ZERO    16,4

     2336       27                   %INCLUDE CP_6;
     2337      108                   %INCLUDE CX_MACROS_M;
     2338      159                   %INCLUDE XU_MACRO_C;
     2339     3265                   %INCLUDE CX_DATA_R;
     2340     4199                   %INCLUDE XU_SUBS_C;
     2341     4291                   %INCLUDE CX_SUBS_C;
PL6.E3A0      #005=CXB$WINDOW_OPTS File=CXB$SUBR.:E05TSI                         TUE 07/29/97 12:24 Page:419
     2342     4304                   %INCLUDE CX_ISUBS_C;
     2343     4656                   %INCLUDE CX_PERR_C;
     2344     4727                   %INCLUDE CP_6_SUBS;
     2345     5267                   %INCLUDE B_ERRORS_C;
     2346     6394                   %INCLUDE CXG_ENTRY ;
     2347     6406    1   DCL BLK$ PTR PARAM ;
     2348     6407    1   DCL VLP$ PTR PARAM ;
     2349     6408        %XUG_GETCMD (NAME=GETCMD, STCLASS=PARAM) ;
     2350     6746        %CPSL_COMMAND_PARAMETERS (NAME=CPSL_PARAM, STCLASS=PARAM) ;
     2351     6764
     2352     6765    1   DCL CXX$WINDOW ENTRY(4) ;                        /* Context checker. */
     2353     6766        %PARSE$OUT(NAME=OUT$BLK);
     2354     6811        %PARSE$SYM(NAME=P$S);
     2355     6849        %VLP_WINDOW(FPTN=VLP$WINDOW,STCLASS="BASED (VLP$)");
     2356     6893    1   DCL TEMP$ PTR ;
     2357     6894    1   DCL PTR$ PTR ;
     2358     6895    1   DCL I UBIN WORD ;
     2359     6896    1   DCL J UBIN WORD ;
     2360     6897
     2361     6898    2       DO CASE(BLK$->OUT$BLK.CODE) ;

   6898  1 000002   200003 470500                    LDP0    @BLK$,,AUTO
         1 000003   000000 471500                    LDP1    0,,PR0
         1 000004   100000 720100                    LXL0    0,,PR1
         1 000005   000020 100003                    CMPX0   16,DU
         1 000006   000010 602010 1                  TNC     s:6898+6,X0
         1 000007   000043 710000 1                  TRA     s:6911
         1 000010   000043 710000 1                  TRA     s:6911
         1 000011   000043 710000 1                  TRA     s:6911
         1 000012   000030 710000 1                  TRA     s:6908
         1 000013   000030 710000 1                  TRA     s:6908
         1 000014   000030 710000 1                  TRA     s:6908
         1 000015   000043 710000 1                  TRA     s:6911
         1 000016   000030 710000 1                  TRA     s:6908
         1 000017   000030 710000 1                  TRA     s:6908
         1 000020   000043 710000 1                  TRA     s:6911
         1 000021   000043 710000 1                  TRA     s:6911
PL6.E3A0      #005=CXB$WINDOW_OPTS File=CXB$SUBR.:E05TSI                         TUE 07/29/97 12:24 Page:420
         1 000022   000043 710000 1                  TRA     s:6911
         1 000023   000043 710000 1                  TRA     s:6911
         1 000024   000030 710000 1                  TRA     s:6908
         1 000025   000030 710000 1                  TRA     s:6908
         1 000026   000030 710000 1                  TRA     s:6908
         1 000027   000030 710000 1                  TRA     s:6908

     2362     6899    2         CASE(FWINDOWOPT,

     2363     6900    2               HBRDRCHROPT,
     2364     6901    2               HBRDRSIZOPT,
     2365     6902    2               WLENGTHOPT,
     2366     6903    2               MINLENGTHOPT,
     2367     6904    2               MINWIDTHOPT,
     2368     6905    2               VBRDRCHROPT,
     2369     6906    2               VBRDRSIZOPT,
     2370     6907    2               WWIDTHOPT) ;
     2371     6908    2             CALL CXX$WINDOW(BLK$->OUT$BLK,GETCMD,CPSL_PARAM,J) ;

   6908  1 000030   200012 633500                    EPPR3   J,,AUTO
         1 000031   200017 453500                    STP3    J+5,,AUTO
         1 000032   200006 236100                    LDQ     @CPSL_PARAM,,AUTO
         1 000033   200016 756100                    STQ     J+4,,AUTO
         1 000034   200005 236100                    LDQ     @GETCMD,,AUTO
         1 000035   200015 756100                    STQ     J+3,,AUTO
         1 000036   200014 451500                    STP1    J+2,,AUTO
         1 000037   200014 630500                    EPPR0   J+2,,AUTO
         1 000040   000022 631400 xsym               EPPR1   B_VECTNIL+18
         1 000041   000000 701000 xent               TSX1    CXX$WINDOW
         1 000042   000000 011000                    NOP     0

     2372     6909    2       END ; /* Do Case */

     2373     6910
     2374     6911    2       DO CASE(BLK$->OUT$BLK.CODE) ;

   6911  1 000043   200003 470500                    LDP0    @BLK$,,AUTO
PL6.E3A0      #005=CXB$WINDOW_OPTS File=CXB$SUBR.:E05TSI                         TUE 07/29/97 12:24 Page:421
         1 000044   000000 471500                    LDP1    0,,PR0
         1 000045   100000 720100                    LXL0    0,,PR1
         1 000046   000020 100003                    CMPX0   16,DU
         1 000047   000051 602010 1                  TNC     s:6911+6,X0
         1 000050   000274 710000 1                  TRA     s:6944
         1 000051   000274 710000 1                  TRA     s:6944
         1 000052   000071 710000 1                  TRA     s:6913
         1 000053   000104 710000 1                  TRA     s:6915
         1 000054   000116 710000 1                  TRA     s:6917
         1 000055   000130 710000 1                  TRA     s:6919
         1 000056   000140 710000 1                  TRA     s:6921
         1 000057   000153 710000 1                  TRA     s:6923
         1 000060   000161 710000 1                  TRA     s:6925
         1 000061   000167 710000 1                  TRA     s:6927
         1 000062   000202 710000 1                  TRA     s:6929
         1 000063   000211 710000 1                  TRA     s:6931
         1 000064   000224 710000 1                  TRA     s:6933
         1 000065   000237 710000 1                  TRA     s:6935
         1 000066   000251 710000 1                  TRA     s:6937
         1 000067   000261 710000 1                  TRA     s:6939
         1 000070   000267 710000 1                  TRA     s:6941

     2375     6912    2         CASE(BTMBRDROPT) ;

     2376     6913    2             VLP$WINDOW.BTMBRDR# = BINBIT(BLK$->OUT$BLK.SUBLK$(0)->OUT$BLK.CODE,1);

   6913  1 000071   200004 473500                    LDP3    @VLP$,,AUTO
         1 000072   300000 474500                    LDP4    0,,PR3
         1 000073   100003 475500                    LDP5    3,,PR1
         1 000074   500000 236100                    LDQ     0,,PR5
         1 000075   777777 376007                    ANQ     -1,DL
         1 000076   000043 736000                    QLS     35
         1 000077   000003 772000                    QRL     3
         1 000100   400003 676100                    ERQ     3,,PR4
         1 000101   060000 376003                    ANQ     24576,DU
         1 000102   400003 656100                    ERSQ    3,,PR4
         1 000103   000274 710000 1                  TRA     s:6944
PL6.E3A0      #005=CXB$WINDOW_OPTS File=CXB$SUBR.:E05TSI                         TUE 07/29/97 12:24 Page:422

     2377     6914    2         CASE(FWINDOWOPT) ;

     2378     6915    2             VLP$WINDOW.FWINDOW# = BLK$->OUT$BLK.SUBLK$(0)->P$S.TEXT ;

   6915  1 000104   200004 473500                    LDP3    @VLP$,,AUTO
         1 000105   300000 474500                    LDP4    0,,PR3
         1 000106   100003 475500                    LDP5    3,,PR1
         1 000107   500004 236100                    LDQ     4,,PR5
         1 000110   000033 772000                    QRL     27
         1 000111   000000 621006                    EAX1    0,QL
         1 000112   040100 100540                    MLR     fill='040'O
         1 000113   500004 200011                    ADSC9   4,,PR5                   cn=1,n=*X1
         1 000114   400000 000004                    ADSC9   0,,PR4                   cn=0,n=4
         1 000115   000274 710000 1                  TRA     s:6944

     2379     6916    2         CASE(HBRDRCHROPT) ;

     2380     6917    2             VLP$WINDOW.HBRDRCHR# = BLK$->OUT$BLK.SUBLK$(0)->P$S.TEXT ;

   6917  1 000116   200004 473500                    LDP3    @VLP$,,AUTO
         1 000117   300000 474500                    LDP4    0,,PR3
         1 000120   100003 475500                    LDP5    3,,PR1
         1 000121   500004 236100                    LDQ     4,,PR5
         1 000122   000033 772000                    QRL     27
         1 000123   000000 621006                    EAX1    0,QL
         1 000124   040100 100540                    MLR     fill='040'O
         1 000125   500004 200011                    ADSC9   4,,PR5                   cn=1,n=*X1
         1 000126   400003 200001                    ADSC9   3,,PR4                   cn=1,n=1
         1 000127   000274 710000 1                  TRA     s:6944

     2381     6918    2         CASE(HBRDRSIZOPT) ;

     2382     6919    2             VLP$WINDOW.HBRDRSIZ# = J ;

   6919  1 000130   200004 473500                    LDP3    @VLP$,,AUTO
         1 000131   300000 474500                    LDP4    0,,PR3
PL6.E3A0      #005=CXB$WINDOW_OPTS File=CXB$SUBR.:E05TSI                         TUE 07/29/97 12:24 Page:423
         1 000132   200012 236100                    LDQ     J,,AUTO
         1 000133   000033 736000                    QLS     27
         1 000134   400003 676100                    ERQ     3,,PR4
         1 000135   017000 376003                    ANQ     7680,DU
         1 000136   400003 656100                    ERSQ    3,,PR4
         1 000137   000274 710000 1                  TRA     s:6944

     2383     6920    2         CASE(LFTBRDROPT) ;

     2384     6921    2             VLP$WINDOW.LFTBRDR# = BINBIT(BLK$->OUT$BLK.SUBLK$(0)->OUT$BLK.CODE,1);

   6921  1 000140   200004 473500                    LDP3    @VLP$,,AUTO
         1 000141   300000 474500                    LDP4    0,,PR3
         1 000142   100003 475500                    LDP5    3,,PR1
         1 000143   500000 236100                    LDQ     0,,PR5
         1 000144   777777 376007                    ANQ     -1,DL
         1 000145   000043 736000                    QLS     35
         1 000146   000023 772000                    QRL     19
         1 000147   400003 676100                    ERQ     3,,PR4
         1 000150   300000 376007                    ANQ     98304,DL
         1 000151   400003 656100                    ERSQ    3,,PR4
         1 000152   000274 710000 1                  TRA     s:6944

     2385     6922    2         CASE(MINLENGTHOPT) ;

     2386     6923    2             VLP$WINDOW.MINLENGTH# = J ;

   6923  1 000153   200004 473500                    LDP3    @VLP$,,AUTO
         1 000154   300000 474500                    LDP4    0,,PR3
         1 000155   200012 236100                    LDQ     J,,AUTO
         1 000156   000033 736000                    QLS     27
         1 000157   400004 552140                    STBQ    4,'40'O,PR4
         1 000160   000274 710000 1                  TRA     s:6944

     2387     6924    2         CASE(MINWIDTHOPT) ;

     2388     6925    2             VLP$WINDOW.MINWIDTH# = J ;
PL6.E3A0      #005=CXB$WINDOW_OPTS File=CXB$SUBR.:E05TSI                         TUE 07/29/97 12:24 Page:424

   6925  1 000161   200004 473500                    LDP3    @VLP$,,AUTO
         1 000162   300000 474500                    LDP4    0,,PR3
         1 000163   200012 236100                    LDQ     J,,AUTO
         1 000164   000022 736000                    QLS     18
         1 000165   400004 552120                    STBQ    4,'20'O,PR4
         1 000166   000274 710000 1                  TRA     s:6944

     2389     6926    2         CASE(OPTIONALOPT) ;

     2390     6927    2             VLP$WINDOW.REMOVABLE# = BINBIT(BLK$->OUT$BLK.SUBLK$(0)->OUT$BLK.CODE,1);

   6927  1 000167   200004 473500                    LDP3    @VLP$,,AUTO
         1 000170   300000 474500                    LDP4    0,,PR3
         1 000171   100003 475500                    LDP5    3,,PR1
         1 000172   500000 236100                    LDQ     0,,PR5
         1 000173   777777 376007                    ANQ     -1,DL
         1 000174   000043 736000                    QLS     35
         1 000175   000023 772000                    QRL     19
         1 000176   400004 676100                    ERQ     4,,PR4
         1 000177   300000 376007                    ANQ     98304,DL
         1 000200   400004 656100                    ERSQ    4,,PR4
         1 000201   000274 710000 1                  TRA     s:6944

     2391     6928    2         CASE(POSITIONOPT) ;

     2392     6929    2             VLP$WINDOW.POSITION# = BLK$->OUT$BLK.SUBLK$(0)->OUT$BLK.CODE ;

   6929  1 000202   200004 473500                    LDP3    @VLP$,,AUTO
         1 000203   300000 474500                    LDP4    0,,PR3
         1 000204   100003 475500                    LDP5    3,,PR1
         1 000205   500000 236100                    LDQ     0,,PR5
         1 000206   000033 736000                    QLS     27
         1 000207   400002 552140                    STBQ    2,'40'O,PR4
         1 000210   000274 710000 1                  TRA     s:6944

     2393     6930    2         CASE(RHTBRDROPT) ;
PL6.E3A0      #005=CXB$WINDOW_OPTS File=CXB$SUBR.:E05TSI                         TUE 07/29/97 12:24 Page:425

     2394     6931    2             VLP$WINDOW.RHTBRDR# = BINBIT(BLK$->OUT$BLK.SUBLK$(0)->OUT$BLK.CODE,1);

   6931  1 000211   200004 473500                    LDP3    @VLP$,,AUTO
         1 000212   300000 474500                    LDP4    0,,PR3
         1 000213   100003 475500                    LDP5    3,,PR1
         1 000214   500000 236100                    LDQ     0,,PR5
         1 000215   777777 376007                    ANQ     -1,DL
         1 000216   000043 736000                    QLS     35
         1 000217   000025 772000                    QRL     21
         1 000220   400003 676100                    ERQ     3,,PR4
         1 000221   060000 376007                    ANQ     24576,DL
         1 000222   400003 656100                    ERSQ    3,,PR4
         1 000223   000274 710000 1                  TRA     s:6944

     2395     6932    2         CASE(TOPBRDROPT) ;

     2396     6933    2             VLP$WINDOW.TOPBRDR# = BINBIT(BLK$->OUT$BLK.SUBLK$(0)->OUT$BLK.CODE,1);

   6933  1 000224   200004 473500                    LDP3    @VLP$,,AUTO
         1 000225   300000 474500                    LDP4    0,,PR3
         1 000226   100003 475500                    LDP5    3,,PR1
         1 000227   500000 236100                    LDQ     0,,PR5
         1 000230   777777 376007                    ANQ     -1,DL
         1 000231   000043 736000                    QLS     35
         1 000232   000001 772000                    QRL     1
         1 000233   400003 676100                    ERQ     3,,PR4
         1 000234   300000 376003                    ANQ     98304,DU
         1 000235   400003 656100                    ERSQ    3,,PR4
         1 000236   000274 710000 1                  TRA     s:6944

     2397     6934    2         CASE(VBRDRCHROPT) ;

     2398     6935    2             VLP$WINDOW.VBRDRCHR# = BLK$->OUT$BLK.SUBLK$(0)->P$S.TEXT ;

   6935  1 000237   200004 473500                    LDP3    @VLP$,,AUTO
         1 000240   300000 474500                    LDP4    0,,PR3
PL6.E3A0      #005=CXB$WINDOW_OPTS File=CXB$SUBR.:E05TSI                         TUE 07/29/97 12:24 Page:426
         1 000241   100003 475500                    LDP5    3,,PR1
         1 000242   500004 236100                    LDQ     4,,PR5
         1 000243   000033 772000                    QRL     27
         1 000244   000000 621006                    EAX1    0,QL
         1 000245   040100 100540                    MLR     fill='040'O
         1 000246   500004 200011                    ADSC9   4,,PR5                   cn=1,n=*X1
         1 000247   400003 600001                    ADSC9   3,,PR4                   cn=3,n=1
         1 000250   000274 710000 1                  TRA     s:6944

     2399     6936    2         CASE(VBRDRSIZOPT) ;

     2400     6937    2             VLP$WINDOW.VBRDRSIZ# = J ;

   6937  1 000251   200004 473500                    LDP3    @VLP$,,AUTO
         1 000252   300000 474500                    LDP4    0,,PR3
         1 000253   200012 236100                    LDQ     J,,AUTO
         1 000254   000011 736000                    QLS     9
         1 000255   400003 676100                    ERQ     3,,PR4
         1 000256   017000 376007                    ANQ     7680,DL
         1 000257   400003 656100                    ERSQ    3,,PR4
         1 000260   000274 710000 1                  TRA     s:6944

     2401     6938    2         CASE(WLENGTHOPT) ;

     2402     6939    2             VLP$WINDOW.LENGTH# = J + %WINDOW_ABSVAL# ;

   6939  1 000261   200004 473500                    LDP3    @VLP$,,AUTO
         1 000262   300000 474500                    LDP4    0,,PR3
         1 000263   200012 721100                    LXL1    J,,AUTO
         1 000264   020000 622011                    EAX2    8192,X1
         1 000265   400001 742100                    STX2    1,,PR4
         1 000266   000274 710000 1                  TRA     s:6944

     2403     6940    2         CASE(WWIDTHOPT) ;

     2404     6941    2             VLP$WINDOW.WIDTH# = J + %WINDOW_ABSVAL# ;

PL6.E3A0      #005=CXB$WINDOW_OPTS File=CXB$SUBR.:E05TSI                         TUE 07/29/97 12:24 Page:427
   6941  1 000267   200004 473500                    LDP3    @VLP$,,AUTO
         1 000270   300000 474500                    LDP4    0,,PR3
         1 000271   200012 721100                    LXL1    J,,AUTO
         1 000272   020000 622011                    EAX2    8192,X1
         1 000273   400001 442100                    SXL2    1,,PR4

     2405     6942    2       END ; /* Do Case */

     2406     6943
     2407     6944    1       RETURN ;

   6944  1 000274   000000 702200 xent               TSX2  ! X66_ARET
     2408     6945
     2409     6946    1   END CXB$WINDOW_OPTS ;

PL6.E3A0      #005=CXB$WINDOW_OPTS File=CXB$SUBR.:E05TSI                         TUE 07/29/97 12:24 Page:428
--  Include file information  --

   CXG_ENTRY.:E05TOU  cannot be made into a system file and is referenced.
   B_ERRORS_C.:E05TOU  is referenced.
   CP_6_SUBS.:E05TOU  is referenced.
   CX_PERR_C.:E05TOU  is referenced.
   CX_ISUBS_C.:E05TOU  is referenced.
   CX_SUBS_C.:E05TOU  is referenced.
   XU_SUBS_C.:E05TOU  is referenced.
   CX_DATA_R.:E05TOU  cannot be made into a system file and is referenced.
   XU_MACRO_C.:E05TOU  is referenced.
   CX_MACROS_M.:E05TOU  is referenced.
   CP_6.:E05TOU  cannot be made into a system file and is referenced.
   B$JIT_C.:E05TOU  was found in the system file and is never referenced.
   CP_6_C.:E05TOU  was found in the system file and is referenced.
      No diagnostics issued in procedure CXB$WINDOW_OPTS.
PL6.E3A0      #005=CXB$WINDOW_OPTS File=CXB$SUBR.:E05TSI                         TUE 07/29/97 12:24 Page:429

 **** Variables and constants ****

  ****  Auto variables  ****

  ****  Scalars and arrays  ****
OctLoc.c.b A Datatyp(siz) R M Lvl/name                 OctLoc.c.b A Datatyp(siz) R M Lvl/name

     3-0-0/w PTR         r     1 @BLK$                      6-0-0/w PTR         r     1 @CPSL_PARAM
     5-0-0/w PTR         r     1 @GETCMD                    4-0-0/w PTR         r     1 @VLP$
    *0-0-0/w PTR         r     1 BLK$                      *0-0-0/w STRC(180)   r     1 CPSL_PARAM
    *0-0-0/d STRC(1512)  r     1 GETCMD                    12-0-0/w UBIN        r     1 J
    *0-0-0/w PTR         r     1 VLP$

  ****  BASED and DCB variables  ****

  ****  Scalars and arrays  ****
OctLoc.c.b A Datatyp(siz) R M Lvl/name                 OctLoc.c.b A Datatyp(siz) R M Lvl/name

     0-0-0/w STRC(144)   r     1 OUT$BLK                    0-0-0/w ASTR(153)   r     1 P$S
     0-0-0/d STRC(288)   r     1 VLP$WINDOW


   Procedure CXB$WINDOW_OPTS requires 189 words for executable code.
   Procedure CXB$WINDOW_OPTS requires 16 words of local(AUTO) storage.

    No errors detected in file CXB$SUBR.:E05TSI    .
PL6.E3A0      #005=CXB$WINDOW_OPTS File=CXB$SUBR.:E05TSI                         TUE 07/29/97 12:24 Page:430
          *** CROSS REFERENCE LISTING ***
**     DENOTES     IDENTIFIER DEFINITION
<<                 IDENTIFIER'S VALUE SET
>>                 IDENTIFIER'S VALUE USED
<>                 IDENTIFIER SET AND/OR USED
--                 IDENTIFIER REFERENCED
PL6.E3A0      #005=CXB$WINDOW_OPTS File=CXB$SUBR.:E05TSI                         TUE 07/29/97 12:24 Page:431
          MINI XREF LISTING

BLK$
      6406**DCL        26--PROC     6772--IMP-PTR  6818--IMP-PTR  6898>>DOCASE   6908>>CALL     6911>>DOCASE
      6913>>ASSIGN   6915>>ASSIGN   6915>>ASSIGN   6917>>ASSIGN   6917>>ASSIGN   6921>>ASSIGN   6927>>ASSIGN
      6929>>ASSIGN   6931>>ASSIGN   6933>>ASSIGN   6935>>ASSIGN   6935>>ASSIGN
CPSL_CAMR_REC.ACSVEH_
      3454**DCL      3455--REDEF
CPSL_CAMR_REC.ALTKEYS_
      3460**DCL      3461--REDEF    3461--REDEF
CPSL_CAMR_REC.HDR_
      3459**DCL      3460--REDEF
CPSL_CAMR_REC.TAB_
      3458**DCL      3459--REDEF
CPSL_CAMR_REC.UHL_
      3452**DCL      3453--REDEF    3453--REDEF
CPSL_CAMR_REC.V.FSN#
      3492**DCL      3492--REDEF    3492--REDEF
CPSL_CAMR_REC.WSN_
      3458**DCL      3458--REDEF
CPSL_CFPT_CLOSE.SN_
      3519**DCL      3519--REDEF
CPSL_CFPT_CLOSE.UTL_
      3520**DCL      3520--REDEF
CPSL_CFPT_CLOSE.V.EXPIRE#
      3534**DCL      3534--REDEF
CPSL_CFPT_CLOSE.V.TYPE#
      3532**DCL      3532--REDEF
CPSL_CFPT_CLOSE.V.XTNSIZE#
      3529**DCL      3529--REDEF    3531--REDEF
CPSL_CFPT_OPEN.ACSVEH_
      3345**DCL      3346--REDEF
CPSL_CFPT_OPEN.ALTKEYS_
      3351**DCL      3352--REDEF    3352--REDEF
PL6.E3A0      #005=CXB$WINDOW_OPTS File=CXB$SUBR.:E05TSI                         TUE 07/29/97 12:24 Page:432
CPSL_CFPT_OPEN.HDR_
      3350**DCL      3351--REDEF
CPSL_CFPT_OPEN.TAB_
      3349**DCL      3350--REDEF
CPSL_CFPT_OPEN.UHL_
      3343**DCL      3344--REDEF    3344--REDEF
CPSL_CFPT_OPEN.V.FSN#
      3383**DCL      3383--REDEF    3383--REDEF
CPSL_CFPT_OPEN.WSN_
      3349**DCL      3349--REDEF
CPSL_CFPT_READ.STATION_
      3558**DCL      3559--REDEF
CPSL_CFPT_READ.V.DVBYTE.REREAD#
      3570**DCL      3570--REDEF
CPSL_CFPT_READ.V.INDX#
      3568**DCL      3568--REDEF
CPSL_CFPT_WRITE.STATION_
      3596**DCL      3596--REDEF
CPSL_CFPT_WRITE.V.DVBYTE.VFC#
      3603**DCL      3603--REDEF
CPSL_CVLP_TRMCTL.BREAKCOUNT
      3987**DCL      3988--REDEF
CPSL_CVLP_WINDOW.FWINDOW#
      4083**DCL      4083--REDEF    4084--REDEF
CPSL_PARAM
      6747**DCL        26--PROC     6908<>CALL
CXX$WINDOW
      6765**DCL-ENT  6908--CALL
GETCMD
      6421**DCL        26--PROC     6908<>CALL
GETCMD.OUT$
      6426**DCL      6432--REDEF
J
      6896**DCL      6908<>CALL     6919>>ASSIGN   6923>>ASSIGN   6925>>ASSIGN   6937>>ASSIGN   6939>>ASSIGN
      6941>>ASSIGN
OUT$BLK
PL6.E3A0      #005=CXB$WINDOW_OPTS File=CXB$SUBR.:E05TSI                         TUE 07/29/97 12:24 Page:433
      6772**DCL      6908<>CALL
OUT$BLK.CODE
      6780**DCL      6898>>DOCASE   6911>>DOCASE   6913>>ASSIGN   6921>>ASSIGN   6927>>ASSIGN   6929>>ASSIGN
      6931>>ASSIGN   6933>>ASSIGN
OUT$BLK.SUBLK$
      6805**DCL      6913>>ASSIGN   6915>>ASSIGN   6915>>ASSIGN   6917>>ASSIGN   6917>>ASSIGN   6921>>ASSIGN
      6927>>ASSIGN   6929>>ASSIGN   6931>>ASSIGN   6933>>ASSIGN   6935>>ASSIGN   6935>>ASSIGN
P$S.COUNT
      6841**DCL      6844--IMP-SIZ  6915>>ASSIGN   6917>>ASSIGN   6935>>ASSIGN
P$S.TEXT
      6844**DCL      6915>>ASSIGN   6917>>ASSIGN   6935>>ASSIGN
VLP$
      6407**DCL        26--PROC     6867--IMP-PTR  6913>>ASSIGN   6915>>ASSIGN   6917>>ASSIGN   6919>>ASSIGN
      6921>>ASSIGN   6923>>ASSIGN   6925>>ASSIGN   6927>>ASSIGN   6929>>ASSIGN   6931>>ASSIGN   6933>>ASSIGN
      6935>>ASSIGN   6937>>ASSIGN   6939>>ASSIGN   6941>>ASSIGN
VLP$WINDOW.BTMBRDR#
      6883**DCL      6913<<ASSIGN
VLP$WINDOW.FWINDOW#
      6867**DCL      6867--REDEF    6868--REDEF    6915<<ASSIGN
VLP$WINDOW.HBRDRCHR#
      6884**DCL      6917<<ASSIGN
VLP$WINDOW.HBRDRSIZ#
      6884**DCL      6919<<ASSIGN
VLP$WINDOW.LENGTH#
      6881**DCL      6939<<ASSIGN
VLP$WINDOW.LFTBRDR#
      6885**DCL      6921<<ASSIGN
VLP$WINDOW.MINLENGTH#
      6886**DCL      6923<<ASSIGN
VLP$WINDOW.MINWIDTH#
      6887**DCL      6925<<ASSIGN
VLP$WINDOW.POSITION#
      6881**DCL      6929<<ASSIGN
VLP$WINDOW.REMOVABLE#
      6888**DCL      6927<<ASSIGN
VLP$WINDOW.RHTBRDR#
PL6.E3A0      #005=CXB$WINDOW_OPTS File=CXB$SUBR.:E05TSI                         TUE 07/29/97 12:24 Page:434
      6885**DCL      6931<<ASSIGN
VLP$WINDOW.TOPBRDR#
      6883**DCL      6933<<ASSIGN
VLP$WINDOW.VBRDRCHR#
      6886**DCL      6935<<ASSIGN
VLP$WINDOW.VBRDRSIZ#
      6885**DCL      6937<<ASSIGN
VLP$WINDOW.WIDTH#
      6881**DCL      6941<<ASSIGN
