VERSION E05

PL6.E3A0      #001=CXF$IBEX File=CXF$IBEX.:E05TSI                                TUE 07/29/97 12:27 Page:1
        1        1        /*M* TERMINAL cmd                                */
        2        2        /*T***********************************************************/
        3        3        /*T*                                                         */
        4        4        /*T* Copyright (c) Bull HN Information Systems Inc., 1997    */
        5        5        /*T*                                                         */
        6        6        /*T***********************************************************/
        7        7        /*X*  DMC,DFC   */
        8        8        /*P*   NAME:   CXF$IBEX
        9        9               PURPOSE: To perform all the required operations in  the execution
       10       10                       of selected CPSL commands.
       11       11               DESCRIPTION:
       12       12               REFERENCE: Programmers Reference Manual
       13       13        */
       14       14        /**********************************************************************/
       15       15        CXF$IBEX:
       16       16          PROC(GETCMD,CPSL_PARAM) ;
       17       17                   %INCLUDE B$JIT;
       18      307                   %INCLUDE B_ERRORS_C;
       19     1434                   %INCLUDE B_MACROS_C;
       20     1545                   %INCLUDE CP_6;
       21     1626                   %INCLUDE CP_6_SUBS;
       22     2166                   %INCLUDE CX_MACROS_M;
       23     2217                   %INCLUDE CX_PERR_C;
       24     2288                   %INCLUDE CX_ISUBS_C;
       25     2640                   %INCLUDE XU_MACRO_C;
       26     5746                   %INCLUDE CX_DATA_R;
       27     6680              /***  Parameters ***/
       28     6681        %XUG_GETCMD (NAME=GETCMD, STCLASS=PARAM) ;
       29     7019        %CPSL_COMMAND_PARAMETERS (NAME=CPSL_PARAM, STCLASS=PARAM) ;
       30     7037              /***  Auto  ***/
       31     7038    1   DCL BLK$ PTR ;
       32     7039    1   DCL I SBIN ;
       33     7040    1   DCL TEMP$ PTR ;
       34     7041    1   DCL TEMP_STOR SBIN ;
       35     7042    1   DCL DCB# UBIN WORD ;
       36     7043    1   DCL STRM CHAR(2) ;
       37     7044    1   DCL TRMCTL_TYPE (0:2) BIT(1) ;
PL6.E3A0      #001=CXF$IBEX File=CXF$IBEX.:E05TSI                                TUE 07/29/97 12:27 Page:2
       38     7045    1   DCL TRMATTR_FLG BIT(1) ;
       39     7046    1   DCL UCNN_FLG BIT(1) ;
       40     7047             /***** External procedure (entry) declarations *****/
       41     7048    1   DCL CXX$TERMINAL ENTRY(4) ;
       42     7049    1   DCL CXF$FIND_STREAM ENTRY(4) ;
       43     7050    1   DCL CXB$WINDOW_OPTS ENTRY(4) ;
       44     7051             /***** Fpts *****/
       45     7052        %FPT_OPEN(FPTN=FPT_OPEN,STCLASS=AUTO);
       46     7161        %FPT_CLOSE(FPTN=FPT_CLOSE,STCLASS=AUTO);
       47     7203        %F$DCB(DCBN=F$DCB);
       48     7260        %FPT_TRMCTL(FPTN=FPT_TRMCTL,STCLASS=AUTO);
       49     7287        %FPT_TRMATTR(FPTN=FPT_TRMATTR,STCLASS=AUTO);
       50     7312        %VLP_TRMCTL(FPTN=VLP_TRMCTL,STCLASS=AUTO);
       51     7352        %VLP_TRMATTR(FPTN=VLP_TRMATTR,STCLASS=AUTO);
       52     7390        %VLP_EDTCTL(FPTN=VLP_EDTCTL,STCLASS=AUTO) ;
       53     7418        %VLP_WINDOW(FPTN=VLP_WINDOW,STCLASS=AUTO) ;
       54     7462             /***** Based structures *****/
       55     7463        %B$EXCFR;
       56     7481        %B$TCB (STCLASS="BASED(B$TCB$)");
       57     7484        %PARSE$OUT (NAME=P$B);
       58     7529        %PARSE$SYM(NAME=P$S);
       59     7567                   %EJECT;
PL6.E3A0      #001=CXF$IBEX File=CXF$IBEX.:E05TSI                                TUE 07/29/97 12:27 Page:3
       60     7568        /***********************************************************************/
       61     7569        /*F*   NAME:   CXF$TERMINAL
       62     7570               PURPOSE: The TERMINAL command is utilized to set or display various
       63     7571                       terminal characteristics.
       64     7572               DESCRIPTION: The various terminal characteristics which may be
       65     7573                       modified are those specifiable on the M$STRMCTL
       66     7574                       and M$STRMATTR fpts.
       67     7575               REFERENCE: Programmers Reference Manual
       68     7576        */
       69     7577        /*D*   NAME:   CXF$TERMINAL
       70     7578               CALL:   CALL CXF$TERMINAL(GETCMD, CPSL_PARAM) ;
       71     7579               INPUT:  GETCMD - The CXG$GETCMD parameter.
       72     7580                       CPSL_PARAM - The Command Processor Shared Library parameter.
       73     7581               OUTPUT: terminal characteristics set or displayed
       74     7582               DESCRIPTION: If no sub-blocks are found, or if 1 sub-block that
       75     7583                       specifies a stream number to be used for the display, various
       76     7584                       terminal characteristics are displayed. Otherwise, specified
       77     7585                       terminal characteristics are set.
       78     7586        */
       79     7587        /**********************************************************************/
       80     7588    1   CXF$TERMINAL: ENTRY(GETCMD, CPSL_PARAM) ;
       81     7589          %SUB          SINPUTDFLT            = 0 /*Sinputdflt*/;
       82     7590                                                         /*
       83     7591                                                         */
       84     7592    1     BLK$=GETCMD.OUT$;
       85     7593        /*
       86     7594             ***** If not INTERACTIVE then this command makes no sense...
       87     7595        */
       88     7596    1     IF B$JIT.MODE ~= %M_INT# OR B$JIT.TSLINE = '0'B
       89     7597    1        THEN   /* Ignore this command */
       90     7598    1           RETURN;
       91     7599        /*
       92     7600          ****     Set terminal characteristics
       93     7601        */
       94     7602    1     FPT_TRMCTL = CPSL_CFPT_TRMCTL;
       95     7603    1     FPT_TRMCTL.V_ = VECTOR(FPT_TRMCTL.V);
       96     7604    1     VLP_TRMCTL=CPSL_CVLP_TRMCTL;
PL6.E3A0      #001=CXF$IBEX File=CXF$IBEX.:E05TSI                                TUE 07/29/97 12:27 Page:4
       97     7605    1     FPT_TRMATTR = CPSL_CFPT_TRMATTR ;
       98     7606    1     FPT_TRMATTR.V_ = VECTOR(FPT_TRMATTR.V) ;
       99     7607    1     FPT_TRMATTR.TRMATTR_ = VECTOR(VLP_TRMATTR) ;
      100     7608    1     VLP_TRMATTR=CPSL_CVLP_TRMATTR ;
      101     7609    1     VLP_EDTCTL=CPSL_CVLP_EDTCTL ;
      102     7610    1     VLP_WINDOW=CPSL_CVLP_WINDOW ;
      103     7611    1     TRMCTL_TYPE = %NO# ;
      104     7612    1     TRMATTR_FLG = %NO# ;
      105     7613    1     UCNN_FLG = %NO# ;
      106     7614    1     I=0;
      107     7615    1     IF CPSL_PARAM.FLAGS.VERIFY_ONLY
      108     7616    1         THEN
      109     7617    1             GOTO TERM10 ;
      110     7618    1     IF BLK$->P$B.SUBLK$(0)->P$B.CODE = UCNN
      111     7619    1         THEN
      112     7620    2             DO ;
      113     7621    2               UCNN_FLG = %YES# ;
      114     7622    2               STRM = BLK$->P$B.SUBLK$(0)->P$B.SUBLK$(0)->P$S.TEXT ;
      115     7623    2               FPT_OPEN = CPSL_CFPT_OPEN ;
      116     7624    2               FPT_OPEN.V_ = VECTOR(FPT_OPEN.V) ;
      117     7625    2               FPT_OPEN.V.DCB# = CPSL_PARAM.WORK_DCB# ;
      118     7626    2               DCB# = CPSL_PARAM.WORK_DCB# ;
      119     7627    2               CALL CONCAT(FPT_OPEN.V.RES#, 'UC', STRM) ;
      120     7628    2               FPT_OPEN.V.ORG# = %TERMINAL# ;
      121     7629    2               CALL M$OPEN (FPT_OPEN) WHENALTRETURN
      122     7630    3                             DO ;
      123     7631    3                               IF B$TCB.ALT$ -> B$EXCFR.ERR.CODE ~= %E$ORGNOTCOM
      124     7632    3                                 THEN
      125     7633    3                                   GOTO TERM50 ;
      126     7634    3                               CALL CXF$FIND_STREAM('UC', STRM, DCB#,CPSL_PARAM) ;
      127     7635    3                               IF CPSL_PARAM.ERRCODE ~= %NO#
      128     7636    3                                 THEN
      129     7637    3                                   GOTO TERM70 ;
      130     7638    3                               END ; /* Whenaltreturn Do */
      131     7639    2               FPT_TRMCTL.V.DCB# = DCB# ;
      132     7640    2               FPT_TRMATTR.V.DCB# = DCB# ;
      133     7641    2             END ; /* Then Do */
PL6.E3A0      #001=CXF$IBEX File=CXF$IBEX.:E05TSI                                TUE 07/29/97 12:27 Page:5
      134     7642    2   TERM10: DO WHILE (I<BLK$->P$B.NSUBLKS);
      135     7643    2        TEMP$=BLK$->P$B.SUBLK$(I);
      136     7644    3        DO CASE(TEMP$->P$B.CODE) ;
      137     7645
      138     7646    3         CASE (AUTOTABCLMOPT,
      139     7647    3               CHARSETNAMEOPT,
      140     7648    3               DSPHEIGHTOPT,
      141     7649    3               FCNTBLOPT,
      142     7650    3               HEIGHTOPT,
      143     7651    3               HSMARGINOPT,
      144     7652    3               HSSHIFTOPT,
      145     7653    3               KEYINCROPT,
      146     7654    3               MAXATRSOPT,
      147     7655    3               MINRECOPT,
      148     7656    3               SINPUTSZOPT,
      149     7657    3               VSMARGINOPT,
      150     7658    3               VSSHIFTOPT,
      151     7659    3               WIDTHOPT,
      152     7660    3               WORDWRAPCLMOPT) ;
      153     7661    3             CALL CXX$TERMINAL(TEMP$->P$B, GETCMD, CPSL_PARAM, TEMP_STOR) ;
      154     7662
      155     7663    3         CASE (BTMBRDROPT,
      156     7664    3               FWINDOWOPT,
      157     7665    3               HBRDRCHROPT,
      158     7666    3               HBRDRSIZOPT,
      159     7667    3               LFTBRDROPT,
      160     7668    3               MINLENGTHOPT,
      161     7669    3               MINWIDTHOPT,
      162     7670    3               OPTIONALOPT,
      163     7671    3               POSITIONOPT,
      164     7672    3               RHTBRDROPT,
      165     7673    3               TOPBRDROPT,
      166     7674    3               VBRDRCHROPT,
      167     7675    3               VBRDRSIZOPT,
      168     7676    3               WLENGTHOPT,
      169     7677    3               WWIDTHOPT) ;
      170     7678
PL6.E3A0      #001=CXF$IBEX File=CXF$IBEX.:E05TSI                                TUE 07/29/97 12:27 Page:6
      171     7679    3               CALL CXB$WINDOW_OPTS(TEMP$, ADDR(VLP_WINDOW), GETCMD, CPSL_PARAM) ;
      172     7680    3               TRMCTL_TYPE(%TRMCTL_WINDOW#) = %YES# ;
      173     7681
      174     7682    3        END ;  /* Do Case */
      175     7683    2        IF CPSL_PARAM.FLAGS.VERIFY_ONLY
      176     7684    2         THEN
      177     7685    2             IF CPSL_PARAM.ERRCODE ~= %NO#
      178     7686    2               THEN
      179     7687    2                 GOTO TERM80 ;
      180     7688    2               ELSE ;
      181     7689    2         ELSE
      182     7690    3         DO ;
      183     7691    4   TERM20: DO CASE(TEMP$->P$B.CODE);
      184     7692    4         CASE(ATRSCRNPOSOPT);
      185     7693    4           TRMATTR_FLG = %YES# ;
      186     7694    4           VLP_TRMATTR.ATRSCRNPOS# = BINBIT(TEMP$->P$B.SUBLK$(0)->P$B.CODE,1);
      187     7695    4         CASE(ADJTOPLFTOPT);
      188     7696    4           TRMCTL_TYPE(%TRMCTL_TRMCTL#) = %YES# ;
      189     7697    4           VLP_TRMCTL.ADJTOPLFT# = BINBIT(TEMP$->P$B.SUBLK$(0)->P$B.CODE,1);
      190     7698    4         CASE(AUTOCURSOROPT);
      191     7699    4           TRMCTL_TYPE(%TRMCTL_TRMCTL#) = %YES# ;
      192     7700    4           VLP_TRMCTL.AUTOCURSOR# = BINBIT(TEMP$->P$B.SUBLK$(0)->P$B.CODE,1);
      193     7701    4         CASE(AUTONLOPT);
      194     7702    4           TRMATTR_FLG = %YES# ;
      195     7703    4           VLP_TRMATTR.AUTONL# = BINBIT(TEMP$->P$B.SUBLK$(0)->P$B.CODE,1);
      196     7704    4         CASE(AUTOTABCLMOPT);
      197     7705    4           TRMCTL_TYPE(%TRMCTL_TRMCTL#) = %YES# ;
      198     7706    4           VLP_TRMCTL.AUTOTABCLM#=TEMP_STOR;
      199     7707    4         CASE(BINOPT);
      200     7708    4           TRMATTR_FLG = %YES# ;
      201     7709    4           VLP_TRMATTR.BIN# = BINBIT(TEMP$->P$B.SUBLK$(0)->P$B.CODE,1);
      202     7710    4         CASE(BLANKERASESOPT);
      203     7711    4           TRMATTR_FLG = %YES# ;
      204     7712    4           VLP_TRMATTR.BLANKERASES# = BINBIT(TEMP$->P$B.SUBLK$(0)->P$B.CODE,1);
      205     7713    4         CASE(CHARSETNAMEOPT);
      206     7714    4           TRMATTR_FLG = %YES# ;
      207     7715    4           VLP_TRMATTR.CHARSETNAME#=TEMP$->P$B.SUBLK$(0)->P$S.TEXT ;
PL6.E3A0      #001=CXF$IBEX File=CXF$IBEX.:E05TSI                                TUE 07/29/97 12:27 Page:7
      208     7716    4         CASE(DVCFLWCTRALGOPT);
      209     7717    4           TRMATTR_FLG = %YES# ;
      210     7718    4           VLP_TRMATTR.DVCFLWCTRALG#=TEMP$->P$B.SUBLK$(0)->P$B.CODE ;
      211     7719    4         CASE(CRISNLOPT);
      212     7720    4           TRMATTR_FLG = %YES# ;
      213     7721    4           VLP_TRMATTR.CRISNL# = BINBIT(TEMP$->P$B.SUBLK$(0)->P$B.CODE,1);
      214     7722    4         CASE(CURSORREADOPT);
      215     7723    4           TRMCTL_TYPE(%TRMCTL_TRMCTL#) = %YES# ;
      216     7724    4           VLP_TRMCTL.CURSORREAD# = BINBIT(TEMP$->P$B.SUBLK$(0)->P$B.CODE,1);
      217     7725    4         CASE(CURSORUPOPT);
      218     7726    4           TRMATTR_FLG = %YES# ;
      219     7727    4           VLP_TRMATTR.CURSORUP# = BINBIT(TEMP$->P$B.SUBLK$(0)->P$B.CODE,1);
      220     7728    4         CASE(DCHMOVFLDOPT);
      221     7729    4           TRMATTR_FLG = %YES# ;
      222     7730    4           VLP_TRMATTR.DCHMOVFLD# = BINBIT(TEMP$->P$B.SUBLK$(0)->P$B.CODE,1);
      223     7731    4         CASE(DEVICEBSOPT);
      224     7732    4           TRMATTR_FLG = %YES# ;
      225     7733    4           VLP_TRMATTR.DEVICEBS# = BINBIT(TEMP$->P$B.SUBLK$(0)->P$B.CODE,1);
      226     7734    4         CASE(DEVICECROPT);
      227     7735    4           TRMATTR_FLG = %YES# ;
      228     7736    4           VLP_TRMATTR.DEVICECR# = BINBIT(TEMP$->P$B.SUBLK$(0)->P$B.CODE,1);
      229     7737    4         CASE(DEVICELFOPT);
      230     7738    4           TRMATTR_FLG = %YES# ;
      231     7739    4           VLP_TRMATTR.DEVICELF# = BINBIT(TEMP$->P$B.SUBLK$(0)->P$B.CODE,1);
      232     7740    4         CASE(DEVPOSOPTSOPT);
      233     7741    4           TRMATTR_FLG = %YES# ;
      234     7742    4           VLP_TRMATTR.DEVPOSOPTS# = BINBIT(TEMP$->P$B.SUBLK$(0)->P$B.CODE,1);
      235     7743    4         CASE(DEVSCROLLOPT);
      236     7744    4           TRMATTR_FLG = %YES# ;
      237     7745    4           VLP_TRMATTR.DEVSCROLL# = BINBIT(TEMP$->P$B.SUBLK$(0)->P$B.CODE,1);
      238     7746    4         CASE(DSPHEIGHTOPT);
      239     7747    4           TRMATTR_FLG = %YES# ;
      240     7748    4           VLP_TRMATTR.DSPHEIGHT#=TEMP_STOR;
      241     7749    4         CASE(EASYAPPENDOPT);
      242     7750    4           TRMCTL_TYPE(%TRMCTL_EDTCTL#) = %YES# ;
      243     7751    4           VLP_EDTCTL.EASYAPPEND# = BINBIT(TEMP$->P$B.SUBLK$(0)->P$B.CODE,1);
      244     7752    4         CASE(ENBENTEXTSRDCHROPT);
PL6.E3A0      #001=CXF$IBEX File=CXF$IBEX.:E05TSI                                TUE 07/29/97 12:27 Page:8
      245     7753    4           TRMCTL_TYPE(%TRMCTL_TRMCTL#) = %YES# ;
      246     7754    4           VLP_TRMCTL.ENBENTEXTSRDCHR# = BINBIT(TEMP$->P$B.SUBLK$(0)->P$B.CODE,1);
      247     7755    4         CASE(FFFLUSHOPT);
      248     7756    4           TRMATTR_FLG = %YES# ;
      249     7757    4           VLP_TRMATTR.FF_FLUSH# = BINBIT(TEMP$->P$B.SUBLK$(0)->P$B.CODE,1);
      250     7758    4         CASE(FFINCCROPT);
      251     7759    4           TRMATTR_FLG = %YES# ;
      252     7760    4           VLP_TRMATTR.FF_INCCR# = BINBIT(TEMP$->P$B.SUBLK$(0)->P$B.CODE,1);
      253     7761    4         CASE(HEIGHTOPT);
      254     7762    4           TRMATTR_FLG = %YES# ;
      255     7763    4           VLP_TRMATTR.HEIGHT#=TEMP_STOR;
      256     7764    4         CASE(HSMARGINOPT);
      257     7765    4           TRMCTL_TYPE(%TRMCTL_TRMCTL#) = %YES# ;
      258     7766    4           VLP_TRMCTL.HSMARGIN#=TEMP_STOR;
      259     7767    4         CASE(HSSHIFTOPT);
      260     7768    4           TRMCTL_TYPE(%TRMCTL_TRMCTL#) = %YES# ;
      261     7769    4           VLP_TRMCTL.HSSHIFT#=TEMP_STOR;
      262     7770    4         CASE(TABSIMOPT);
      263     7771    4           TRMCTL_TYPE(%TRMCTL_TRMCTL#) = %YES# ;
      264     7772    4           VLP_TRMCTL.TABSIM# = BINBIT(TEMP$->P$B.SUBLK$(0)->P$B.CODE,1);
      265     7773    4         CASE(TRELATIVEOPT);
      266     7774    4           TRMCTL_TYPE(%TRMCTL_TRMCTL#) = %YES# ;
      267     7775    4           VLP_TRMCTL.TABRELATIVE# = BINBIT(TEMP$->P$B.SUBLK$(0)->P$B.CODE,1);
      268     7776    4         CASE(SINSERTOPT);
      269     7777    4           TRMCTL_TYPE(%TRMCTL_TRMCTL#) = %YES# ;
      270     7778    4           VLP_TRMCTL.SPACEINSERT# = BINBIT(TEMP$->P$B.SUBLK$(0)->P$B.CODE,1);
      271     7779    4         CASE(SBKSPACEOPT);
      272     7780    4           TRMCTL_TYPE(%TRMCTL_TRMCTL#) = %YES# ;
      273     7781    4           VLP_TRMCTL.SENDBKSPACE# = BINBIT(TEMP$->P$B.SUBLK$(0)->P$B.CODE,1);
      274     7782    4         CASE(DINPUTOPT);
      275     7783    4           TRMCTL_TYPE(%TRMCTL_TRMCTL#) = %YES# ;
      276     7784    4           VLP_TRMCTL.DISPINPUT# = BINBIT(TEMP$->P$B.SUBLK$(0)->P$B.CODE,1);
      277     7785    4         CASE(KEEPTYPAHDOPT);
      278     7786    4           TRMCTL_TYPE(%TRMCTL_TRMCTL#) = %YES# ;
      279     7787    4           VLP_TRMCTL.KEEPTYPAHD# = BINBIT(TEMP$->P$B.SUBLK$(0)->P$B.CODE,1);
      280     7788    4         CASE(LFISNLOPT);
      281     7789    4           TRMATTR_FLG = %YES# ;
PL6.E3A0      #001=CXF$IBEX File=CXF$IBEX.:E05TSI                                TUE 07/29/97 12:27 Page:9
      282     7790    4           VLP_TRMATTR.LFISNL# = BINBIT(TEMP$->P$B.SUBLK$(0)->P$B.CODE,1);
      283     7791    4         CASE(LIMBOCLMOPT);
      284     7792    4           TRMATTR_FLG = %YES# ;
      285     7793    4           VLP_TRMATTR.LIMBOCLM# = BINBIT(TEMP$->P$B.SUBLK$(0)->P$B.CODE,1);
      286     7794    4         CASE(LOCALECHOOPT);
      287     7795    4           TRMATTR_FLG = %YES# ;
      288     7796    4           VLP_TRMATTR.LOCALECHO# = BINBIT(TEMP$->P$B.SUBLK$(0)->P$B.CODE,1);
      289     7797    4         CASE(LOWERCASEPRINTSOPT);
      290     7798    4           TRMATTR_FLG = %YES# ;
      291     7799    4           VLP_TRMATTR.LOWERCASEPRINTS# = BINBIT(TEMP$->P$B.SUBLK$(0)->P$B.CODE,1);
      292     7800    4         CASE(MAXATRSOPT);
      293     7801    4           TRMATTR_FLG = %YES# ;
      294     7802    4           VLP_TRMATTR.MAXATRS#=TEMP_STOR;
      295     7803    4         CASE(MICROFPLOPT);
      296     7804    4           TRMATTR_FLG = %YES# ;
      297     7805    4           VLP_TRMATTR.MICROFPL# = BINBIT(TEMP$->P$B.SUBLK$(0)->P$B.CODE,1);
      298     7806    4         CASE(MINRECOPT);
      299     7807    4           TRMATTR_FLG = %YES# ;
      300     7808    4           VLP_TRMATTR.MINREC#=TEMP_STOR;
      301     7809    4         CASE(MSGHALTOPT);
      302     7810    4           TRMCTL_TYPE(%TRMCTL_TRMCTL#) = %YES# ;
      303     7811    4           VLP_TRMCTL.MSGHALT# = BINBIT(TEMP$->P$B.SUBLK$(0)->P$B.CODE,1);
      304     7812    4         CASE(MSGLINEOPT);
      305     7813    4           TRMCTL_TYPE(%TRMCTL_TRMCTL#) = %YES# ;
      306     7814    4           VLP_TRMCTL.MSGLINE# = BINBIT(TEMP$->P$B.SUBLK$(0)->P$B.CODE,1);
      307     7815    4         CASE(NOFLDTRMOPT);
      308     7816    4           TRMATTR_FLG = %YES# ;
      309     7817    4           VLP_TRMATTR.NO_FLDTRM# = BINBIT(TEMP$->P$B.SUBLK$(0)->P$B.CODE,1);
      310     7818    4         CASE(OPDTABOPT);
      311     7819    4           TRMATTR_FLG = %YES# ;
      312     7820    4           VLP_TRMATTR.OPDTAB# = BINBIT(TEMP$->P$B.SUBLK$(0)->P$B.CODE,1);
      313     7821    4         CASE(PARITYOPT);
      314     7822    4           TRMATTR_FLG = %YES# ;
      315     7823    4           VLP_TRMATTR.PARITY#=TEMP$->P$B.SUBLK$(0)->P$B.CODE ;
      316     7824    4         CASE(PRINTTYPEOPT);
      317     7825    4           TRMATTR_FLG = %YES# ;
      318     7826    4           VLP_TRMATTR.PRINTTYPE# = BINBIT(TEMP$->P$B.SUBLK$(0)->P$B.CODE,1);
PL6.E3A0      #001=CXF$IBEX File=CXF$IBEX.:E05TSI                                TUE 07/29/97 12:27 Page:10
      319     7827    4         CASE(PARKCURSOROPT);
      320     7828    4           TRMCTL_TYPE(%TRMCTL_TRMCTL#) = %YES# ;
      321     7829    4           VLP_TRMCTL.PARKCURSOR# = BINBIT(TEMP$->P$B.SUBLK$(0)->P$B.CODE,1);
      322     7830    4         CASE(PROGDTABOPT);
      323     7831    4           TRMATTR_FLG = %YES# ;
      324     7832    4           VLP_TRMATTR.PROGDTAB# = BINBIT(TEMP$->P$B.SUBLK$(0)->P$B.CODE,1);
      325     7833    4         CASE(SPEEDOPT);
      326     7834    4           TRMATTR_FLG = %YES# ;
      327     7835    4           VLP_TRMATTR.SPEED#=TEMP$->P$B.SUBLK$(0)->P$B.CODE ;
      328     7836    4         CASE(PCHECKOPT);
      329     7837    4           TRMCTL_TYPE(%TRMCTL_TRMCTL#) = %YES# ;
      330     7838    4           VLP_TRMCTL.PARITYCHECK# = BINBIT(TEMP$->P$B.SUBLK$(0)->P$B.CODE,1);
      331     7839    4         CASE(HSALLOPT);
      332     7840    4           TRMCTL_TYPE(%TRMCTL_EDTCTL#) = %YES# ;
      333     7841    4           VLP_EDTCTL.HSALL# = BINBIT(TEMP$->P$B.SUBLK$(0)->P$B.CODE,1);
      334     7842    4         CASE(HSCROLLOPT);
      335     7843    4           TRMCTL_TYPE(%TRMCTL_TRMCTL#) = %YES# ;
      336     7844    4           VLP_TRMCTL.HSCROLL# = BINBIT(TEMP$->P$B.SUBLK$(0)->P$B.CODE,1);
      337     7845    4         CASE(INSERTMODEOPT);
      338     7846    4           TRMCTL_TYPE(%TRMCTL_TRMCTL#) = %YES# ;
      339     7847    4           VLP_TRMCTL.INSERTMODE# = BINBIT(TEMP$->P$B.SUBLK$(0)->P$B.CODE,1);
      340     7848    4         CASE(KEYINCROPT);
      341     7849    4           TRMCTL_TYPE(%TRMCTL_EDTCTL#) = %YES# ;
      342     7850    4           VLP_EDTCTL.KEYINCR#=TEMP_STOR;
      343     7851    4         CASE(KEYTYPEOPT);
      344     7852    4           TRMCTL_TYPE(%TRMCTL_EDTCTL#) = %YES# ;
      345     7853    4           VLP_EDTCTL.KEYTYPE#=TEMP$->P$B.SUBLK$(0)->P$B.CODE ;
      346     7854    4         CASE(ODISCARDOPT);
      347     7855    4           TRMCTL_TYPE(%TRMCTL_TRMCTL#) = %YES# ;
      348     7856    4           VLP_TRMCTL.OUTPUTDISCARD# = BINBIT(TEMP$->P$B.SUBLK$(0)->P$B.CODE,1);
      349     7857    4         CASE(RCRWRAPOPT);
      350     7858    4           TRMCTL_TYPE(%TRMCTL_EDTCTL#) = %YES# ;
      351     7859    4           VLP_EDTCTL.RCRWRAP# = BINBIT(TEMP$->P$B.SUBLK$(0)->P$B.CODE,1);
      352     7860    4         CASE(ONESPCEDTOPT);
      353     7861    4           TRMCTL_TYPE(%TRMCTL_EDTCTL#)=%YES# ;
      354     7862    4              VLP_EDTCTL.ONESPACEEDIT# = BINBIT(TEMP$->P$B.SUBLK$(0)->P$B.CODE,1);
      355     7863    4         CASE(SPCBFRPRTOPT);
PL6.E3A0      #001=CXF$IBEX File=CXF$IBEX.:E05TSI                                TUE 07/29/97 12:27 Page:11
      356     7864    4           TRMATTR_FLG = %YES# ;
      357     7865    4           VLP_TRMATTR.SPCBFRPRT# = BINBIT(TEMP$->P$B.SUBLK$(0)->P$B.CODE,1);
      358     7866    4         CASE(TEXTEDITOPT);
      359     7867    4           TRMCTL_TYPE(%TRMCTL_EDTCTL#)=%YES# ;
      360     7868    4              VLP_EDTCTL.TEXTEDIT# = BINBIT(TEMP$->P$B.SUBLK$(0)->P$B.CODE,1);
      361     7869    4         CASE(TRUOVRPRTOPT);
      362     7870    4           TRMATTR_FLG = %YES# ;
      363     7871    4           VLP_TRMATTR.TRUOVRPRT# = BINBIT(TEMP$->P$B.SUBLK$(0)->P$B.CODE,1);
      364     7872    4         CASE(TTYTYPEOPT);
      365     7873    4           TRMATTR_FLG = %YES# ;
      366     7874    4           VLP_TRMATTR.TTYTYPE# = BINBIT(TEMP$->P$B.SUBLK$(0)->P$B.CODE,1);
      367     7875    4         CASE(VSMARGINOPT);
      368     7876    4           TRMCTL_TYPE(%TRMCTL_EDTCTL#) = %YES# ;
      369     7877    4           VLP_EDTCTL.VSMARGIN#=TEMP_STOR;
      370     7878    4         CASE(VSSHIFTOPT);
      371     7879    4           TRMCTL_TYPE(%TRMCTL_EDTCTL#) = %YES# ;
      372     7880    4           VLP_EDTCTL.VSSHIFT#=TEMP_STOR;
      373     7881    4         CASE(WIDTHOPT);
      374     7882    4           TRMATTR_FLG = %YES# ;
      375     7883    4           IF TEMP_STOR > 254
      376     7884    4              THEN
      377     7885    5                 DO;
      378     7886    5                    VLP_TRMATTR.EXTWID# = %YES#;
      379     7887    5                    TEMP_STOR = TEMP_STOR - 254;
      380     7888    5                 END;
      381     7889    4           VLP_TRMATTR.WIDTH#=TEMP_STOR;
      382     7890    4         CASE(WORDWRAPCLMOPT);
      383     7891    4           TRMCTL_TYPE(%TRMCTL_TRMCTL#) = %YES# ;
      384     7892    4           VLP_TRMCTL.WORDWRAPCLM#=TEMP_STOR;
      385     7893    4         CASE(WORDWRAPCLMOPT_NO);
      386     7894    4           TRMCTL_TYPE(%TRMCTL_TRMCTL#) = %YES# ;
      387     7895    4           VLP_TRMCTL.WORDWRAPCLM#=0 ;
      388     7896    4         CASE(UCASEOPT);
      389     7897    4           TRMCTL_TYPE(%TRMCTL_TRMCTL#) = %YES# ;
      390     7898    4           VLP_TRMCTL.UPPERCASE# = BINBIT(TEMP$->P$B.SUBLK$(0)->P$B.CODE,1);
      391     7899    4         CASE(LCASEOPT);
      392     7900    4           TRMCTL_TYPE(%TRMCTL_TRMCTL#) = %YES# ;
PL6.E3A0      #001=CXF$IBEX File=CXF$IBEX.:E05TSI                                TUE 07/29/97 12:27 Page:12
      393     7901    4           VLP_TRMCTL.LOWERCASE# = BINBIT(TEMP$->P$B.SUBLK$(0)->P$B.CODE,1);
      394     7902    4         CASE(HDPTAPEOPT);
      395     7903    4           TRMCTL_TYPE(%TRMCTL_TRMCTL#) = %YES# ;
      396     7904    4           VLP_TRMCTL.HALFDUXPAPERTAPE# = BINBIT(TEMP$->P$B.SUBLK$(0)->P$B.CODE,1);
      397     7905    4         CASE(FDPTAPEOPT);
      398     7906    4           TRMCTL_TYPE(%TRMCTL_TRMCTL#) = %YES# ;
      399     7907    4           VLP_TRMCTL.FULLDUXPAPERTAPE# = BINBIT(TEMP$->P$B.SUBLK$(0)->P$B.CODE,1);
      400     7908    4         CASE(ACTONTRNOPT);
      401     7909    4           TRMCTL_TYPE(%TRMCTL_TRMCTL#) = %YES# ;
      402     7910    4           VLP_TRMCTL.ACTONTRN# = BINBIT(TEMP$->P$B.SUBLK$(0)->P$B.CODE,1);
      403     7911    4         CASE(APLLCNRMOPT);
      404     7912    4           TRMCTL_TYPE(%TRMCTL_TRMCTL#) = %YES# ;
      405     7913    4           VLP_TRMCTL.APLLCNRM# = BINBIT(TEMP$->P$B.SUBLK$(0)->P$B.CODE,1);
      406     7914    4         CASE(RETYPOVROPT);
      407     7915    4           TRMCTL_TYPE(%TRMCTL_TRMCTL#) = %YES# ;
      408     7916    4           VLP_TRMCTL.RETYPOVR# = BINBIT(TEMP$->P$B.SUBLK$(0)->P$B.CODE,1);
      409     7917    4         CASE(EDITOVROPT);
      410     7918    4           TRMCTL_TYPE(%TRMCTL_TRMCTL#) = %YES# ;
      411     7919    4           VLP_TRMCTL.EDITOVR# = BINBIT(TEMP$->P$B.SUBLK$(0)->P$B.CODE,1);
      412     7920    4         CASE(SCROLLOPT);
      413     7921    4           TRMCTL_TYPE(%TRMCTL_TRMCTL#) = %YES# ;
      414     7922    4           VLP_TRMCTL.SCROLL# = BINBIT(TEMP$->P$B.SUBLK$(0)->P$B.CODE,1);
      415     7923    4         CASE(PAGEHALTOPT);
      416     7924    4           TRMCTL_TYPE(%TRMCTL_TRMCTL#) = %YES# ;
      417     7925    4           VLP_TRMCTL.PAGEHALT# = BINBIT(TEMP$->P$B.SUBLK$(0)->P$B.CODE,1);
      418     7926    4         CASE(PRNTHALTOPT);
      419     7927    4           TRMCTL_TYPE(%TRMCTL_TRMCTL#) = %YES# ;
      420     7928    4           VLP_TRMCTL.PRINTHALT# = BINBIT(TEMP$->P$B.SUBLK$(0)->P$B.CODE,1);
      421     7929    4         CASE(RELPAGEOPT);
      422     7930    4           TRMCTL_TYPE(%TRMCTL_TRMCTL#) = %YES# ;
      423     7931    4           VLP_TRMCTL.RELPAGE# = BINBIT(TEMP$->P$B.SUBLK$(0)->P$B.CODE,1);
      424     7932    4         CASE(NOOPTMIZOPT);
      425     7933    4           TRMCTL_TYPE(%TRMCTL_TRMCTL#) = %YES# ;
      426     7934    4           VLP_TRMCTL.NOOPTMIZ# = BINBIT(TEMP$->P$B.SUBLK$(0)->P$B.CODE,1);
      427     7935    4         CASE(SIMPERFOPT);
      428     7936    4           TRMCTL_TYPE(%TRMCTL_TRMCTL#) = %YES# ;
      429     7937    4           VLP_TRMCTL.SIMPERF# = BINBIT(TEMP$->P$B.SUBLK$(0)->P$B.CODE,1);
PL6.E3A0      #001=CXF$IBEX File=CXF$IBEX.:E05TSI                                TUE 07/29/97 12:27 Page:13
      430     7938    4         CASE(SINPUTSZOPT);
      431     7939    4           TRMCTL_TYPE(%TRMCTL_TRMCTL#) = %YES# ;
      432     7940    4           VLP_TRMCTL.SINPUTSZ#=TEMP_STOR;
      433     7941    4         CASE(TRUNCATEOPT);
      434     7942    4           TRMCTL_TYPE(%TRMCTL_TRMCTL#) = %YES# ;
      435     7943    4           VLP_TRMCTL.TRUNCATE# = BINBIT(TEMP$->P$B.SUBLK$(0)->P$B.CODE,1);
      436     7944    4         CASE(WRAPPAGEOPT);
      437     7945    4           TRMCTL_TYPE(%TRMCTL_TRMCTL#) = %YES# ;
      438     7946    4           VLP_TRMCTL.WRAPPAGE# = BINBIT(TEMP$->P$B.SUBLK$(0)->P$B.CODE,1);
      439     7947    4         CASE(FCNTBLOPT);
      440     7948    4           VLP_TRMATTR.FCNTBL# = TEMP$ -> P$B.SUBLK$(0) -> P$S.TEXT;
      441     7949    4           TRMATTR_FLG=%YES#;
      442     7950    4         END TERM20;
      443     7951    3         END ; /* Else Do */
      444     7952    2        I=I+1;
      445     7953    2     END TERM10;
      446     7954    1     IF CPSL_PARAM.ERRCODE ~= %NO#
      447     7955    1         THEN
      448     7956    1             GOTO TERMINALRET ;
      449     7957    1     IF CPSL_PARAM.FLAGS.VERIFY_ONLY
      450     7958    1         THEN
      451     7959    1             GOTO TERM80 ;
      452     7960    2     DO I = 0 TO 2 ;
      453     7961    2         IF TRMCTL_TYPE(I)
      454     7962    2             THEN
      455     7963    3               DO ;
      456     7964    4                 DO CASE(I) ;
      457     7965    4                   CASE(%TRMCTL_TRMCTL#) ;
      458     7966    4                     FPT_TRMCTL.TRMCTL_ = VECTOR(VLP_TRMCTL) ;
      459     7967
      460     7968    4                   CASE(%TRMCTL_EDTCTL#) ;
      461     7969    4                     FPT_TRMCTL.TRMCTL_ = VECTOR(VLP_EDTCTL) ;
      462     7970
      463     7971    4                   CASE(%TRMCTL_WINDOW#) ;
      464     7972    4                     FPT_TRMCTL.TRMCTL_ = VECTOR(VLP_WINDOW) ;
      465     7973
      466     7974    4                 END ; /* Do Case */
PL6.E3A0      #001=CXF$IBEX File=CXF$IBEX.:E05TSI                                TUE 07/29/97 12:27 Page:14
      467     7975    3                 FPT_TRMCTL.V.VLPTYPE# = I ;
      468     7976    3                 CALL M$STRMCTL (FPT_TRMCTL) ALTRET(TERM50) ;
      469     7977    3               END ; /* Then Do */
      470     7978    2     END ;   /* Do I */
      471     7979
      472     7980    1     IF TRMATTR_FLG
      473     7981    1         THEN
      474     7982    1             CALL M$STRMATTR (FPT_TRMATTR) ALTRET(TERM50) ;
      475     7983
      476     7984    1   TERMINALRET:
      477     7985    1     IF DCBADDR(CPSL_PARAM.WORK_DCB#)->F$DCB.FCD#=%YES#
      478     7986    1        THEN
      479     7987    2           DO;
      480     7988    2              FPT_CLOSE = CPSL_CFPT_CLOSE ;
      481     7989    2              FPT_CLOSE.V_ = VECTOR(FPT_CLOSE.V) ;
      482     7990    2              FPT_CLOSE.V.DCB#=CPSL_PARAM.WORK_DCB#;
      483     7991    2              FPT_CLOSE.V.DISP#=%SAVE#;
      484     7992    2              CALL M$CLOSE(FPT_CLOSE) WHENALTRETURN
      485     7993    3                                         DO ;
      486     7994    3                                           CPSL_PARAM.ERRCODE = B$TCB.ALT$ -> B$EXCFR.
              7994                                                    ERR ;
      487     7995    3                                           CPSL_PARAM.FLAGS.REPORTED_TO_USER = '0'B ;
      488     7996    3                                           GOTO TERM80 ;
      489     7997    3                                         END ;
      490     7998    2           END;
      491     7999    1     RETURN;
      492     8000    1   TERM50: ;
      493     8001    1     CPSL_PARAM.ERRCODE = B$TCB.ALT$ -> B$EXCFR.ERR;
      494     8002    1     CPSL_PARAM.FLAGS.REPORTED_TO_USER = '0'B ;
      495     8003    1   TERM70: ;
      496     8004    1     IF DCBADDR(CPSL_PARAM.WORK_DCB#)->F$DCB.FCD#=%YES#
      497     8005    1        THEN
      498     8006    2           DO;
      499     8007    2              FPT_CLOSE = CPSL_CFPT_CLOSE ;
      500     8008    2              FPT_CLOSE.V_ = VECTOR(FPT_CLOSE.V) ;
      501     8009    2              FPT_CLOSE.V.DCB#=CPSL_PARAM.WORK_DCB#;
      502     8010    2              FPT_CLOSE.V.DISP#=%SAVE#;
PL6.E3A0      #001=CXF$IBEX File=CXF$IBEX.:E05TSI                                TUE 07/29/97 12:27 Page:15
      503     8011    2              CALL M$CLOSE(FPT_CLOSE) WHENALTRETURN
      504     8012    3                                         DO ;
      505     8013    3                                           CPSL_PARAM.ERRCODE = B$TCB.ALT$ -> B$EXCFR.
              8013                                                    ERR ;
      506     8014    3                                           CPSL_PARAM.FLAGS.REPORTED_TO_USER = '0'B ;
      507     8015    3                                           GOTO TERM80 ;
      508     8016    3                                         END ;
      509     8017    2           END;
      510     8018    1   TERM80: ;
      511     8019    1     RETURN;
      512     8020    1   END   CXF$IBEX ;
      513     8021        %EOD ;

PL6.E3A0      #001=CXF$IBEX File=CXF$IBEX.:E05TSI                                TUE 07/29/97 12:27 Page:16
--  Include file information  --

   CX_DATA_R.:E05TOU  cannot be made into a system file and is referenced.
   XU_MACRO_C.:E05TOU  is referenced.
   CX_ISUBS_C.:E05TOU  is referenced.
   CX_PERR_C.:E05TOU  is referenced.
   CX_MACROS_M.:E05TOU  is referenced.
   CP_6_SUBS.:E05TOU  is referenced.
   CP_6.:E05TOU  cannot be made into a system file and is referenced.
   B_MACROS_C.:E05TOU  is referenced.
   B_ERRORS_C.:E05TOU  is referenced.
   B$JIT.:E05TOU  cannot be made into a system file and is referenced.
   B$JIT_C.:E05TOU  was found in the system file and is referenced.
   CP_6_C.:E05TOU  was found in the system file and is referenced.
      No diagnostics issued in procedure CXF$IBEX.

   Procedure CXF$IBEX requires 1347 words for executable code.
   Procedure CXF$IBEX requires 150 words of local(AUTO) storage.

PL6.E3A0      #001=CXF$IBEX File=CXF$IBEX.:E05TSI                                TUE 07/29/97 12:27 Page:17

 Object Unit name= CXF$IBEX                                   File name= CXF$IBEX.:E05TOU
 UTS= JUL 29 '97 12:27:18.52 TUE                              Compiler= PL-6/E31         Sev=      00
 SharedLib= :SHARED_SYSTEM                                    Alt SharedLib=


    ****  Control sections  ****

 Sect   Type Bound  Init  Size OctSiz  Section name(segment info)
    0   DCB   even  none     0      0  M$UC
    1  RoData even  UTS      1      1  CXF$IBEX
    2   Proc  even  none  1347   2503  CXF$IBEX
    3  RoData even  none     9     11  CXF$IBEX

    ****  Entry defs  ****

                              Check   Calling
                             calling  sequence
  Sect OctLoc Primary Altret sequence   type   Parms  Name
     2      0   yes            yes      Std        2  CXF$IBEX
     2      3                  yes      Std        2  CXF$TERMINAL

  ****  Entry refs  ****

         Check        Calling
        calling       sequence
Altret sequence SRef   type   Args  Name
         yes           Std       4 CXF$FIND_STREAM
         yes           Std       4 CXB$WINDOW_OPTS
         yes           Std       4 CXX$TERMINAL
                       nStd      0 X66_AUTO_2
                       Std       0 B_CONSPOOL_D
                       nStd      0 X66_ARET
PL6.E3A0      #001=CXF$IBEX File=CXF$IBEX.:E05TSI                                TUE 07/29/97 12:27 Page:18

  ****  Data refs  ****

  Flags:  r = read only, s = secondary
Flgs Name                             Flgs Name                             Flgs Name
     M$UC                                  CPSL_CFPT_OPEN                        CPSL_CFPT_CLOSE
     CPSL_CFPT_TRMCTL                      CPSL_CFPT_TRMATTR                     CPSL_CVLP_TRMCTL
     CPSL_CVLP_TRMATTR                     CPSL_CVLP_EDTCTL                      CPSL_CVLP_WINDOW
r    B$JIT$                           r    B$TCB$                                B_VECTNIL

  ****  Segment refs  ****

  Flags:  r = read only, s = secondary
Flgs Name                             Flgs Name                             Flgs Name
     ROSID                                 ISSID
PL6.E3A0      #001=CXF$IBEX File=CXF$IBEX.:E05TSI                                TUE 07/29/97 12:27 Page:19


        1        1        /*M* TERMINAL cmd                                */
        2        2        /*T***********************************************************/
        3        3        /*T*                                                         */
        4        4        /*T* Copyright (c) Bull HN Information Systems Inc., 1997    */
        5        5        /*T*                                                         */
        6        6        /*T***********************************************************/
        7        7        /*X*  DMC,DFC   */
        8        8        /*P*   NAME:   CXF$IBEX
        9        9               PURPOSE: To perform all the required operations in  the execution
       10       10                       of selected CPSL commands.
       11       11               DESCRIPTION:
       12       12               REFERENCE: Programmers Reference Manual
       13       13        */
       14       14        /**********************************************************************/
       15       15        CXF$IBEX:
       16       16          PROC(GETCMD,CPSL_PARAM) ;

     16  2 000000   000000 700200 xent  CXF$IBEX     TSX0  ! X66_AUTO_2
         2 000001   000226 000002                    ZERO    150,2
         2 000002   000005 710000 2                  TRA     s:7592

       17       17                   %INCLUDE B$JIT;
       18      307                   %INCLUDE B_ERRORS_C;
       19     1434                   %INCLUDE B_MACROS_C;
       20     1545                   %INCLUDE CP_6;
       21     1626                   %INCLUDE CP_6_SUBS;
       22     2166                   %INCLUDE CX_MACROS_M;
       23     2217                   %INCLUDE CX_PERR_C;
       24     2288                   %INCLUDE CX_ISUBS_C;
       25     2640                   %INCLUDE XU_MACRO_C;
       26     5746                   %INCLUDE CX_DATA_R;
       27     6680              /***  Parameters ***/
       28     6681        %XUG_GETCMD (NAME=GETCMD, STCLASS=PARAM) ;
       29     7019        %CPSL_COMMAND_PARAMETERS (NAME=CPSL_PARAM, STCLASS=PARAM) ;
       30     7037              /***  Auto  ***/
       31     7038    1   DCL BLK$ PTR ;
PL6.E3A0      #001=CXF$IBEX File=CXF$IBEX.:E05TSI                                TUE 07/29/97 12:27 Page:20
       32     7039    1   DCL I SBIN ;
       33     7040    1   DCL TEMP$ PTR ;
       34     7041    1   DCL TEMP_STOR SBIN ;
       35     7042    1   DCL DCB# UBIN WORD ;
       36     7043    1   DCL STRM CHAR(2) ;
       37     7044    1   DCL TRMCTL_TYPE (0:2) BIT(1) ;
       38     7045    1   DCL TRMATTR_FLG BIT(1) ;
       39     7046    1   DCL UCNN_FLG BIT(1) ;
       40     7047             /***** External procedure (entry) declarations *****/
       41     7048    1   DCL CXX$TERMINAL ENTRY(4) ;
       42     7049    1   DCL CXF$FIND_STREAM ENTRY(4) ;
       43     7050    1   DCL CXB$WINDOW_OPTS ENTRY(4) ;
       44     7051             /***** Fpts *****/
       45     7052        %FPT_OPEN(FPTN=FPT_OPEN,STCLASS=AUTO);
       46     7161        %FPT_CLOSE(FPTN=FPT_CLOSE,STCLASS=AUTO);
       47     7203        %F$DCB(DCBN=F$DCB);
       48     7260        %FPT_TRMCTL(FPTN=FPT_TRMCTL,STCLASS=AUTO);
       49     7287        %FPT_TRMATTR(FPTN=FPT_TRMATTR,STCLASS=AUTO);
       50     7312        %VLP_TRMCTL(FPTN=VLP_TRMCTL,STCLASS=AUTO);
       51     7352        %VLP_TRMATTR(FPTN=VLP_TRMATTR,STCLASS=AUTO);
       52     7390        %VLP_EDTCTL(FPTN=VLP_EDTCTL,STCLASS=AUTO) ;
       53     7418        %VLP_WINDOW(FPTN=VLP_WINDOW,STCLASS=AUTO) ;
       54     7462             /***** Based structures *****/
       55     7463        %B$EXCFR;
       56     7481        %B$TCB (STCLASS="BASED(B$TCB$)");
       57     7484        %PARSE$OUT (NAME=P$B);
       58     7529        %PARSE$SYM(NAME=P$S);
       59     7567                   %EJECT;
PL6.E3A0      #001=CXF$IBEX File=CXF$IBEX.:E05TSI                                TUE 07/29/97 12:27 Page:21
       60     7568        /***********************************************************************/
       61     7569        /*F*   NAME:   CXF$TERMINAL
       62     7570               PURPOSE: The TERMINAL command is utilized to set or display various
       63     7571                       terminal characteristics.
       64     7572               DESCRIPTION: The various terminal characteristics which may be
       65     7573                       modified are those specifiable on the M$STRMCTL
       66     7574                       and M$STRMATTR fpts.
       67     7575               REFERENCE: Programmers Reference Manual
       68     7576        */
       69     7577        /*D*   NAME:   CXF$TERMINAL
       70     7578               CALL:   CALL CXF$TERMINAL(GETCMD, CPSL_PARAM) ;
       71     7579               INPUT:  GETCMD - The CXG$GETCMD parameter.
       72     7580                       CPSL_PARAM - The Command Processor Shared Library parameter.
       73     7581               OUTPUT: terminal characteristics set or displayed
       74     7582               DESCRIPTION: If no sub-blocks are found, or if 1 sub-block that
       75     7583                       specifies a stream number to be used for the display, various
       76     7584                       terminal characteristics are displayed. Otherwise, specified
       77     7585                       terminal characteristics are set.
       78     7586        */
       79     7587        /**********************************************************************/
       80     7588    1   CXF$TERMINAL: ENTRY(GETCMD, CPSL_PARAM) ;

   7588  2 000003   000000 700200 xent  CXF$TERMINAL TSX0  ! X66_AUTO_2
         2 000004   000226 000002                    ZERO    150,2

       81     7589          %SUB          SINPUTDFLT            = 0 /*Sinputdflt*/;
       82     7590                                                         /*
       83     7591                                                         */
       84     7592    1     BLK$=GETCMD.OUT$;

   7592  2 000005   200003 470500                    LDP0    @GETCMD,,AUTO
         2 000006   000001 236100                    LDQ     1,,PR0
         2 000007   200005 756100                    STQ     BLK$,,AUTO

       85     7593        /*
       86     7594             ***** If not INTERACTIVE then this command makes no sense...
       87     7595        */
PL6.E3A0      #001=CXF$IBEX File=CXF$IBEX.:E05TSI                                TUE 07/29/97 12:27 Page:22
       88     7596    1     IF B$JIT.MODE ~= %M_INT# OR B$JIT.TSLINE = '0'B

   7596  2 000010   000000 471400 xsym               LDP1    B$JIT$
         2 000011   100000 236100                    LDQ     0,,PR1
         2 000012   740000 376003                    ANQ     -16384,DU
         2 000013   140000 116003                    CMPQ    49152,DU
         2 000014   000021 601000 2                  TNZ     s:7598
         2 000015   000000 106500                    CMPC    fill='000'O
         2 000016   100337 000014                    ADSC9   223,,PR1                 cn=0,n=12
         2 000017   000002 000002 xsym               ADSC9   B_VECTNIL+2              cn=0,n=2
         2 000020   000022 601000 2                  TNZ     s:7602

       89     7597    1        THEN   /* Ignore this command */
       90     7598    1           RETURN;

   7598  2 000021   000000 702200 xent               TSX2  ! X66_ARET

       91     7599        /*
       92     7600          ****     Set terminal characteristics
       93     7601        */
       94     7602    1     FPT_TRMCTL = CPSL_CFPT_TRMCTL;

   7602  2 000022   000100 100400                    MLR     fill='000'O
         2 000023   000000 000040 xsym               ADSC9   CPSL_CFPT_TRMCTL         cn=0,n=32
         2 000024   200146 000040                    ADSC9   FPT_TRMCTL,,AUTO         cn=0,n=32

       95     7603    1     FPT_TRMCTL.V_ = VECTOR(FPT_TRMCTL.V);

   7603  2 000025   000000 235000 3                  LDA     0
         2 000026   200220 452500                    STP2    VLP_WINDOW+8,,AUTO
         2 000027   200220 236100                    LDQ     VLP_WINDOW+8,,AUTO
         2 000030   000154 036003                    ADLQ    108,DU
         2 000031   200146 757100                    STAQ    FPT_TRMCTL,,AUTO

       96     7604    1     VLP_TRMCTL=CPSL_CVLP_TRMCTL;

   7604  2 000032   000100 100400                    MLR     fill='000'O
PL6.E3A0      #001=CXF$IBEX File=CXF$IBEX.:E05TSI                                TUE 07/29/97 12:27 Page:23
         2 000033   000000 000020 xsym               ADSC9   CPSL_CVLP_TRMCTL         cn=0,n=16
         2 000034   200166 000020                    ADSC9   VLP_TRMCTL,,AUTO         cn=0,n=16

       97     7605    1     FPT_TRMATTR = CPSL_CFPT_TRMATTR ;

   7605  2 000035   000100 100400                    MLR     fill='000'O
         2 000036   000000 000040 xsym               ADSC9   CPSL_CFPT_TRMATTR        cn=0,n=32
         2 000037   200156 000040                    ADSC9   FPT_TRMATTR,,AUTO        cn=0,n=32

       98     7606    1     FPT_TRMATTR.V_ = VECTOR(FPT_TRMATTR.V) ;

   7606  2 000040   000000 235000 3                  LDA     0
         2 000041   200220 452500                    STP2    VLP_WINDOW+8,,AUTO
         2 000042   200220 236100                    LDQ     VLP_WINDOW+8,,AUTO
         2 000043   000164 036003                    ADLQ    116,DU
         2 000044   200156 757100                    STAQ    FPT_TRMATTR,,AUTO

       99     7607    1     FPT_TRMATTR.TRMATTR_ = VECTOR(VLP_TRMATTR) ;

   7607  2 000045   000001 235000 3                  LDA     1
         2 000046   200220 452500                    STP2    VLP_WINDOW+8,,AUTO
         2 000047   200220 236100                    LDQ     VLP_WINDOW+8,,AUTO
         2 000050   000172 036003                    ADLQ    122,DU
         2 000051   200162 757100                    STAQ    FPT_TRMATTR+4,,AUTO

      100     7608    1     VLP_TRMATTR=CPSL_CVLP_TRMATTR ;

   7608  2 000052   000100 100400                    MLR     fill='000'O
         2 000053   000000 000050 xsym               ADSC9   CPSL_CVLP_TRMATTR        cn=0,n=40
         2 000054   200172 000050                    ADSC9   VLP_TRMATTR,,AUTO        cn=0,n=40

      101     7609    1     VLP_EDTCTL=CPSL_CVLP_EDTCTL ;

   7609  2 000055   000100 100400                    MLR     fill='000'O
         2 000056   000000 000020 xsym               ADSC9   CPSL_CVLP_EDTCTL         cn=0,n=16
         2 000057   200204 000020                    ADSC9   VLP_EDTCTL,,AUTO         cn=0,n=16

PL6.E3A0      #001=CXF$IBEX File=CXF$IBEX.:E05TSI                                TUE 07/29/97 12:27 Page:24
      102     7610    1     VLP_WINDOW=CPSL_CVLP_WINDOW ;

   7610  2 000060   000100 100400                    MLR     fill='000'O
         2 000061   000000 000040 xsym               ADSC9   CPSL_CVLP_WINDOW         cn=0,n=32
         2 000062   200210 000040                    ADSC9   VLP_WINDOW,,AUTO         cn=0,n=32

      103     7611    1     TRMCTL_TYPE = %NO# ;

   7611  2 000063   000002 236000 3                  LDQ     2
         2 000064   200013 356100                    ANSQ    TRMCTL_TYPE,,AUTO

      104     7612    1     TRMATTR_FLG = %NO# ;

   7612  2 000065   200014 450100                    STZ     TRMATTR_FLG,,AUTO

      105     7613    1     UCNN_FLG = %NO# ;

   7613  2 000066   200015 450100                    STZ     UCNN_FLG,,AUTO

      106     7614    1     I=0;

   7614  2 000067   200006 450100                    STZ     I,,AUTO

      107     7615    1     IF CPSL_PARAM.FLAGS.VERIFY_ONLY

   7615  2 000070   200004 473500                    LDP3    @CPSL_PARAM,,AUTO
         2 000071   300001 234100                    SZN     1,,PR3
         2 000072   000170 604000 2                  TMI     TERM10

      108     7616    1         THEN
      109     7617    1             GOTO TERM10 ;
      110     7618    1     IF BLK$->P$B.SUBLK$(0)->P$B.CODE = UCNN

   7618  2 000073   200005 474500                    LDP4    BLK$,,AUTO
         2 000074   400003 475500                    LDP5    3,,PR4
         2 000075   500000 720100                    LXL0    0,,PR5
         2 000076   000132 100003                    CMPX0   90,DU
PL6.E3A0      #001=CXF$IBEX File=CXF$IBEX.:E05TSI                                TUE 07/29/97 12:27 Page:25
         2 000077   000170 601000 2                  TNZ     TERM10

      111     7619    1         THEN
      112     7620    2             DO ;

      113     7621    2               UCNN_FLG = %YES# ;

   7621  2 000100   400000 236003                    LDQ     -131072,DU
         2 000101   200015 756100                    STQ     UCNN_FLG,,AUTO

      114     7622    2               STRM = BLK$->P$B.SUBLK$(0)->P$B.SUBLK$(0)->P$S.TEXT ;

   7622  2 000102   500003 476500                    LDP6    3,,PR5
         2 000103   600004 236100                    LDQ     4,,PR6
         2 000104   000033 772000                    QRL     27
         2 000105   000000 621006                    EAX1    0,QL
         2 000106   040100 100540                    MLR     fill='040'O
         2 000107   600004 200011                    ADSC9   4,,PR6                   cn=1,n=*X1
         2 000110   200012 000002                    ADSC9   STRM,,AUTO               cn=0,n=2

      115     7623    2               FPT_OPEN = CPSL_CFPT_OPEN ;

   7623  2 000111   000100 100400                    MLR     fill='000'O
         2 000112   000000 000350 xsym               ADSC9   CPSL_CFPT_OPEN           cn=0,n=232
         2 000113   200016 000350                    ADSC9   FPT_OPEN,,AUTO           cn=0,n=232

      116     7624    2               FPT_OPEN.V_ = VECTOR(FPT_OPEN.V) ;

   7624  2 000114   000003 235000 3                  LDA     3
         2 000115   200220 452500                    STP2    VLP_WINDOW+8,,AUTO
         2 000116   200220 236100                    LDQ     VLP_WINDOW+8,,AUTO
         2 000117   000062 036003                    ADLQ    50,DU
         2 000120   200016 757100                    STAQ    FPT_OPEN,,AUTO

      117     7625    2               FPT_OPEN.V.DCB# = CPSL_PARAM.WORK_DCB# ;

   7625  2 000121   300000 720100                    LXL0    0,,PR3
PL6.E3A0      #001=CXF$IBEX File=CXF$IBEX.:E05TSI                                TUE 07/29/97 12:27 Page:26
         2 000122   200062 740100                    STX0    FPT_OPEN+36,,AUTO

      118     7626    2               DCB# = CPSL_PARAM.WORK_DCB# ;

   7626  2 000123   300000 235100                    LDA     0,,PR3
         2 000124   200011 755100                    STA     DCB#,,AUTO

      119     7627    2               CALL CONCAT(FPT_OPEN.V.RES#, 'UC', STRM) ;

   7627  2 000125   000000 221000 1                  LDX1    0
         2 000126   200066 741100                    STX1    FPT_OPEN+40,,AUTO
         2 000127   200012 222100                    LDX2    STRM,,AUTO
         2 000130   200066 442100                    SXL2    FPT_OPEN+40,,AUTO

      120     7628    2               FPT_OPEN.V.ORG# = %TERMINAL# ;

   7628  2 000131   010000 236007                    LDQ     4096,DL
         2 000132   200064 552110                    STBQ    FPT_OPEN+38,'10'O,AUTO

      121     7629    2               CALL M$OPEN (FPT_OPEN) WHENALTRETURN

   7629  2 000133   200016 630500                    EPPR0   FPT_OPEN,,AUTO
         2 000134   450000 713400                    CLIMB   alt,open
         2 000135   410400 401760                    pmme    nvectors=18
         2 000136   000140 702000 2                  TSX2    s:7631
         2 000137   000165 710000 2                  TRA     s:7639

      122     7630    3                             DO ;

      123     7631    3                               IF B$TCB.ALT$ -> B$EXCFR.ERR.CODE ~= %E$ORGNOTCOM

   7631  2 000140   000000 470400 xsym               LDP0    B$TCB$
         2 000141   000000 471500                    LDP1    0,,PR0
         2 000142   100102 236100                    LDQ     66,,PR1
         2 000143   377770 376007                    ANQ     131064,DL
         2 000144   014170 116007                    CMPQ    6264,DL
         2 000145   002432 601000 2                  TNZ     TERM50
PL6.E3A0      #001=CXF$IBEX File=CXF$IBEX.:E05TSI                                TUE 07/29/97 12:27 Page:27

      124     7632    3                                 THEN
      125     7633    3                                   GOTO TERM50 ;
      126     7634    3                               CALL CXF$FIND_STREAM('UC', STRM, DCB#,CPSL_PARAM) ;

   7634  2 000146   200004 236100                    LDQ     @CPSL_PARAM,,AUTO
         2 000147   200223 756100                    STQ     VLP_WINDOW+11,,AUTO
         2 000150   200011 631500                    EPPR1   DCB#,,AUTO
         2 000151   200222 451500                    STP1    VLP_WINDOW+10,,AUTO
         2 000152   200012 633500                    EPPR3   STRM,,AUTO
         2 000153   200221 453500                    STP3    VLP_WINDOW+9,,AUTO
         2 000154   000004 236000 3                  LDQ     4
         2 000155   200220 756100                    STQ     VLP_WINDOW+8,,AUTO
         2 000156   200220 630500                    EPPR0   VLP_WINDOW+8,,AUTO
         2 000157   000022 631400 xsym               EPPR1   B_VECTNIL+18
         2 000160   000000 701000 xent               TSX1    CXF$FIND_STREAM
         2 000161   000000 011000                    NOP     0

      127     7635    3                               IF CPSL_PARAM.ERRCODE ~= %NO#

   7635  2 000162   200004 470500                    LDP0    @CPSL_PARAM,,AUTO
         2 000163   000002 235100                    LDA     2,,PR0
         2 000164   002441 601000 2                  TNZ     TERM70

      128     7636    3                                 THEN
      129     7637    3                                   GOTO TERM70 ;
      130     7638    3                               END ; /* Whenaltreturn Do */

      131     7639    2               FPT_TRMCTL.V.DCB# = DCB# ;

   7639  2 000165   200011 720100                    LXL0    DCB#,,AUTO
         2 000166   200154 740100                    STX0    FPT_TRMCTL+6,,AUTO

      132     7640    2               FPT_TRMATTR.V.DCB# = DCB# ;

   7640  2 000167   200164 740100                    STX0    FPT_TRMATTR+6,,AUTO

PL6.E3A0      #001=CXF$IBEX File=CXF$IBEX.:E05TSI                                TUE 07/29/97 12:27 Page:28
      133     7641    2             END ; /* Then Do */

      134     7642    2   TERM10: DO WHILE (I<BLK$->P$B.NSUBLKS);

   7642  2 000170   200005 470500       TERM10       LDP0    BLK$,,AUTO
         2 000171   000001 236100                    LDQ     1,,PR0
         2 000172   000022 772000                    QRL     18
         2 000173   200006 116100                    CMPQ    I,,AUTO
         2 000174   002303 604400 2                  TMOZ    s:7954

      135     7643    2        TEMP$=BLK$->P$B.SUBLK$(I);

   7643  2 000175   200005 470500                    LDP0    BLK$,,AUTO
         2 000176   200006 720100                    LXL0    I,,AUTO
         2 000177   000003 236110                    LDQ     3,X0,PR0
         2 000200   200007 756100                    STQ     TEMP$,,AUTO

      136     7644    3        DO CASE(TEMP$->P$B.CODE) ;

   7644  2 000201   200007 471500                    LDP1    TEMP$,,AUTO
         2 000202   100000 721100                    LXL1    0,,PR1
         2 000203   000143 101003                    CMPX1   99,DU
         2 000204   000206 602011 2                  TNC     s:7644+5,X1
         2 000205   000404 710000 2                  TRA     s:7683
         2 000206   000404 710000 2                  TRA     s:7683
         2 000207   000365 710000 2                  TRA     s:7679
         2 000210   000365 710000 2                  TRA     s:7679
         2 000211   000365 710000 2                  TRA     s:7679
         2 000212   000365 710000 2                  TRA     s:7679
         2 000213   000365 710000 2                  TRA     s:7679
         2 000214   000365 710000 2                  TRA     s:7679
         2 000215   000365 710000 2                  TRA     s:7679
         2 000216   000365 710000 2                  TRA     s:7679
         2 000217   000365 710000 2                  TRA     s:7679
         2 000220   000365 710000 2                  TRA     s:7679
         2 000221   000365 710000 2                  TRA     s:7679
         2 000222   000365 710000 2                  TRA     s:7679
PL6.E3A0      #001=CXF$IBEX File=CXF$IBEX.:E05TSI                                TUE 07/29/97 12:27 Page:29
         2 000223   000365 710000 2                  TRA     s:7679
         2 000224   000365 710000 2                  TRA     s:7679
         2 000225   000365 710000 2                  TRA     s:7679
         2 000226   000404 710000 2                  TRA     s:7683
         2 000227   000404 710000 2                  TRA     s:7683
         2 000230   000404 710000 2                  TRA     s:7683
         2 000231   000404 710000 2                  TRA     s:7683
         2 000232   000404 710000 2                  TRA     s:7683
         2 000233   000404 710000 2                  TRA     s:7683
         2 000234   000404 710000 2                  TRA     s:7683
         2 000235   000404 710000 2                  TRA     s:7683
         2 000236   000404 710000 2                  TRA     s:7683
         2 000237   000404 710000 2                  TRA     s:7683
         2 000240   000351 710000 2                  TRA     s:7661
         2 000241   000404 710000 2                  TRA     s:7683
         2 000242   000404 710000 2                  TRA     s:7683
         2 000243   000351 710000 2                  TRA     s:7661
         2 000244   000404 710000 2                  TRA     s:7683
         2 000245   000404 710000 2                  TRA     s:7683
         2 000246   000404 710000 2                  TRA     s:7683
         2 000247   000404 710000 2                  TRA     s:7683
         2 000250   000404 710000 2                  TRA     s:7683
         2 000251   000404 710000 2                  TRA     s:7683
         2 000252   000404 710000 2                  TRA     s:7683
         2 000253   000404 710000 2                  TRA     s:7683
         2 000254   000404 710000 2                  TRA     s:7683
         2 000255   000404 710000 2                  TRA     s:7683
         2 000256   000404 710000 2                  TRA     s:7683
         2 000257   000404 710000 2                  TRA     s:7683
         2 000260   000351 710000 2                  TRA     s:7661
         2 000261   000404 710000 2                  TRA     s:7683
         2 000262   000404 710000 2                  TRA     s:7683
         2 000263   000351 710000 2                  TRA     s:7661
         2 000264   000404 710000 2                  TRA     s:7683
         2 000265   000404 710000 2                  TRA     s:7683
         2 000266   000351 710000 2                  TRA     s:7661
         2 000267   000351 710000 2                  TRA     s:7661
PL6.E3A0      #001=CXF$IBEX File=CXF$IBEX.:E05TSI                                TUE 07/29/97 12:27 Page:30
         2 000270   000404 710000 2                  TRA     s:7683
         2 000271   000404 710000 2                  TRA     s:7683
         2 000272   000351 710000 2                  TRA     s:7661
         2 000273   000404 710000 2                  TRA     s:7683
         2 000274   000404 710000 2                  TRA     s:7683
         2 000275   000404 710000 2                  TRA     s:7683
         2 000276   000404 710000 2                  TRA     s:7683
         2 000277   000404 710000 2                  TRA     s:7683
         2 000300   000404 710000 2                  TRA     s:7683
         2 000301   000351 710000 2                  TRA     s:7661
         2 000302   000351 710000 2                  TRA     s:7661
         2 000303   000404 710000 2                  TRA     s:7683
         2 000304   000404 710000 2                  TRA     s:7683
         2 000305   000404 710000 2                  TRA     s:7683
         2 000306   000404 710000 2                  TRA     s:7683
         2 000307   000404 710000 2                  TRA     s:7683
         2 000310   000404 710000 2                  TRA     s:7683
         2 000311   000404 710000 2                  TRA     s:7683
         2 000312   000404 710000 2                  TRA     s:7683
         2 000313   000404 710000 2                  TRA     s:7683
         2 000314   000404 710000 2                  TRA     s:7683
         2 000315   000404 710000 2                  TRA     s:7683
         2 000316   000404 710000 2                  TRA     s:7683
         2 000317   000404 710000 2                  TRA     s:7683
         2 000320   000404 710000 2                  TRA     s:7683
         2 000321   000404 710000 2                  TRA     s:7683
         2 000322   000404 710000 2                  TRA     s:7683
         2 000323   000404 710000 2                  TRA     s:7683
         2 000324   000404 710000 2                  TRA     s:7683
         2 000325   000404 710000 2                  TRA     s:7683
         2 000326   000351 710000 2                  TRA     s:7661
         2 000327   000404 710000 2                  TRA     s:7683
         2 000330   000404 710000 2                  TRA     s:7683
         2 000331   000404 710000 2                  TRA     s:7683
         2 000332   000404 710000 2                  TRA     s:7683
         2 000333   000404 710000 2                  TRA     s:7683
         2 000334   000404 710000 2                  TRA     s:7683
PL6.E3A0      #001=CXF$IBEX File=CXF$IBEX.:E05TSI                                TUE 07/29/97 12:27 Page:31
         2 000335   000404 710000 2                  TRA     s:7683
         2 000336   000404 710000 2                  TRA     s:7683
         2 000337   000404 710000 2                  TRA     s:7683
         2 000340   000404 710000 2                  TRA     s:7683
         2 000341   000351 710000 2                  TRA     s:7661
         2 000342   000351 710000 2                  TRA     s:7661
         2 000343   000351 710000 2                  TRA     s:7661
         2 000344   000351 710000 2                  TRA     s:7661
         2 000345   000404 710000 2                  TRA     s:7683
         2 000346   000404 710000 2                  TRA     s:7683
         2 000347   000404 710000 2                  TRA     s:7683
         2 000350   000351 710000 2                  TRA     s:7661

      137     7645
      138     7646    3         CASE (AUTOTABCLMOPT,

      139     7647    3               CHARSETNAMEOPT,
      140     7648    3               DSPHEIGHTOPT,
      141     7649    3               FCNTBLOPT,
      142     7650    3               HEIGHTOPT,
      143     7651    3               HSMARGINOPT,
      144     7652    3               HSSHIFTOPT,
      145     7653    3               KEYINCROPT,
      146     7654    3               MAXATRSOPT,
      147     7655    3               MINRECOPT,
      148     7656    3               SINPUTSZOPT,
      149     7657    3               VSMARGINOPT,
      150     7658    3               VSSHIFTOPT,
      151     7659    3               WIDTHOPT,
      152     7660    3               WORDWRAPCLMOPT) ;
      153     7661    3             CALL CXX$TERMINAL(TEMP$->P$B, GETCMD, CPSL_PARAM, TEMP_STOR) ;

   7661  2 000351   200010 633500                    EPPR3   TEMP_STOR,,AUTO
         2 000352   200223 453500                    STP3    VLP_WINDOW+11,,AUTO
         2 000353   200004 236100                    LDQ     @CPSL_PARAM,,AUTO
         2 000354   200222 756100                    STQ     VLP_WINDOW+10,,AUTO
         2 000355   200003 236100                    LDQ     @GETCMD,,AUTO
PL6.E3A0      #001=CXF$IBEX File=CXF$IBEX.:E05TSI                                TUE 07/29/97 12:27 Page:32
         2 000356   200007 235100                    LDA     TEMP$,,AUTO
         2 000357   200220 757100                    STAQ    VLP_WINDOW+8,,AUTO
         2 000360   200220 630500                    EPPR0   VLP_WINDOW+8,,AUTO
         2 000361   000022 631400 xsym               EPPR1   B_VECTNIL+18
         2 000362   000000 701000 xent               TSX1    CXX$TERMINAL
         2 000363   000000 011000                    NOP     0
         2 000364   000404 710000 2                  TRA     s:7683

      154     7662
      155     7663    3         CASE (BTMBRDROPT,

      156     7664    3               FWINDOWOPT,
      157     7665    3               HBRDRCHROPT,
      158     7666    3               HBRDRSIZOPT,
      159     7667    3               LFTBRDROPT,
      160     7668    3               MINLENGTHOPT,
      161     7669    3               MINWIDTHOPT,
      162     7670    3               OPTIONALOPT,
      163     7671    3               POSITIONOPT,
      164     7672    3               RHTBRDROPT,
      165     7673    3               TOPBRDROPT,
      166     7674    3               VBRDRCHROPT,
      167     7675    3               VBRDRSIZOPT,
      168     7676    3               WLENGTHOPT,
      169     7677    3               WWIDTHOPT) ;
      170     7678
      171     7679    3               CALL CXB$WINDOW_OPTS(TEMP$, ADDR(VLP_WINDOW), GETCMD, CPSL_PARAM) ;

   7679  2 000365   200210 633500                    EPPR3   VLP_WINDOW,,AUTO
         2 000366   200220 453500                    STP3    VLP_WINDOW+8,,AUTO
         2 000367   200004 236100                    LDQ     @CPSL_PARAM,,AUTO
         2 000370   200003 235100                    LDA     @GETCMD,,AUTO
         2 000371   200224 757100                    STAQ    VLP_WINDOW+12,,AUTO
         2 000372   200220 634500                    EPPR4   VLP_WINDOW+8,,AUTO
         2 000373   200223 454500                    STP4    VLP_WINDOW+11,,AUTO
         2 000374   200007 635500                    EPPR5   TEMP$,,AUTO
         2 000375   200222 455500                    STP5    VLP_WINDOW+10,,AUTO
PL6.E3A0      #001=CXF$IBEX File=CXF$IBEX.:E05TSI                                TUE 07/29/97 12:27 Page:33
         2 000376   200222 630500                    EPPR0   VLP_WINDOW+10,,AUTO
         2 000377   000022 631400 xsym               EPPR1   B_VECTNIL+18
         2 000400   000000 701000 xent               TSX1    CXB$WINDOW_OPTS
         2 000401   000000 011000                    NOP     0

      172     7680    3               TRMCTL_TYPE(%TRMCTL_WINDOW#) = %YES# ;

   7680  2 000402   200000 236003                    LDQ     65536,DU
         2 000403   200013 256100                    ORSQ    TRMCTL_TYPE,,AUTO

      173     7681
      174     7682    3        END ;  /* Do Case */

      175     7683    2        IF CPSL_PARAM.FLAGS.VERIFY_ONLY

   7683  2 000404   200004 470500                    LDP0    @CPSL_PARAM,,AUTO
         2 000405   000001 234100                    SZN     1,,PR0
         2 000406   000412 605000 2                  TPL     TERM20

      176     7684    2         THEN
      177     7685    2             IF CPSL_PARAM.ERRCODE ~= %NO#

   7685  2 000407   000002 235100                    LDA     2,,PR0
         2 000410   002502 601000 2                  TNZ     TERM80
         2 000411   002275 710000 2                  TRA     s:7952

      178     7686    2               THEN
      179     7687    2                 GOTO TERM80 ;
      180     7688    2               ELSE ;
      181     7689    2         ELSE
      182     7690    3         DO ;

      183     7691    4   TERM20: DO CASE(TEMP$->P$B.CODE);

   7691  2 000412   200007 471500       TERM20       LDP1    TEMP$,,AUTO
         2 000413   100000 236100                    LDQ     0,,PR1
         2 000414   777777 376007                    ANQ     -1,DL
PL6.E3A0      #001=CXF$IBEX File=CXF$IBEX.:E05TSI                                TUE 07/29/97 12:27 Page:34
         2 000415   000025 136007                    SBLQ    21,DL
         2 000416   000132 116007                    CMPQ    90,DL
         2 000417   000421 602006 2                  TNC     TERM20+7,QL
         2 000420   002275 710000 2                  TRA     s:7952
         2 000421   002050 710000 2                  TRA     s:7909
         2 000422   002063 710000 2                  TRA     s:7912
         2 000423   002275 710000 2                  TRA     s:7952
         2 000424   000553 710000 2                  TRA     s:7693
         2 000425   000614 710000 2                  TRA     s:7702
         2 000426   000627 710000 2                  TRA     s:7705
         2 000427   000634 710000 2                  TRA     s:7708
         2 000430   000647 710000 2                  TRA     s:7711
         2 000431   000662 710000 2                  TRA     s:7714
         2 000432   000704 710000 2                  TRA     s:7720
         2 000433   000732 710000 2                  TRA     s:7726
         2 000434   000760 710000 2                  TRA     s:7732
         2 000435   000773 710000 2                  TRA     s:7735
         2 000436   001006 710000 2                  TRA     s:7738
         2 000437   001021 710000 2                  TRA     s:7741
         2 000440   001034 710000 2                  TRA     s:7744
         2 000441   001231 710000 2                  TRA     s:7783
         2 000442   000674 710000 2                  TRA     s:7717
         2 000443   002111 710000 2                  TRA     s:7918
         2 000444   001070 710000 2                  TRA     s:7753
         2 000445   002275 710000 2                  TRA     s:7952
         2 000446   002264 710000 2                  TRA     s:7948
         2 000447   002035 710000 2                  TRA     s:7906
         2 000450   002022 710000 2                  TRA     s:7903
         2 000451   001131 710000 2                  TRA     s:7762
         2 000452   001536 710000 2                  TRA     s:7840
         2 000453   001551 710000 2                  TRA     s:7843
         2 000454   001141 710000 2                  TRA     s:7765
         2 000455   001147 710000 2                  TRA     s:7768
         2 000456   002275 710000 2                  TRA     s:7952
         2 000457   001564 710000 2                  TRA     s:7846
         2 000460   001577 710000 2                  TRA     s:7849
         2 000461   001604 710000 2                  TRA     s:7852
PL6.E3A0      #001=CXF$IBEX File=CXF$IBEX.:E05TSI                                TUE 07/29/97 12:27 Page:35
         2 000462   002007 710000 2                  TRA     s:7900
         2 000463   001257 710000 2                  TRA     s:7789
         2 000464   001272 710000 2                  TRA     s:7792
         2 000465   001305 710000 2                  TRA     s:7795
         2 000466   001320 710000 2                  TRA     s:7798
         2 000467   001333 710000 2                  TRA     s:7801
         2 000470   001354 710000 2                  TRA     s:7807
         2 000471   001364 710000 2                  TRA     s:7810
         2 000472   001377 710000 2                  TRA     s:7813
         2 000473   001412 710000 2                  TRA     s:7816
         2 000474   002200 710000 2                  TRA     s:7933
         2 000475   001613 710000 2                  TRA     s:7855
         2 000476   001425 710000 2                  TRA     s:7819
         2 000477   002137 710000 2                  TRA     s:7924
         2 000500   001440 710000 2                  TRA     s:7822
         2 000501   001523 710000 2                  TRA     s:7837
         2 000502   002275 710000 2                  TRA     s:7952
         2 000503   001451 710000 2                  TRA     s:7825
         2 000504   002152 710000 2                  TRA     s:7927
         2 000505   001477 710000 2                  TRA     s:7831
         2 000506   002165 710000 2                  TRA     s:7930
         2 000507   002076 710000 2                  TRA     s:7915
         2 000510   002275 710000 2                  TRA     s:7952
         2 000511   001216 710000 2                  TRA     s:7780
         2 000512   002124 710000 2                  TRA     s:7921
         2 000513   002213 710000 2                  TRA     s:7936
         2 000514   002226 710000 2                  TRA     s:7939
         2 000515   001203 710000 2                  TRA     s:7777
         2 000516   001654 710000 2                  TRA     s:7864
         2 000517   001512 710000 2                  TRA     s:7834
         2 000520   001155 710000 2                  TRA     s:7771
         2 000521   001170 710000 2                  TRA     s:7774
         2 000522   002236 710000 2                  TRA     s:7942
         2 000523   001702 710000 2                  TRA     s:7870
         2 000524   001715 710000 2                  TRA     s:7873
         2 000525   001774 710000 2                  TRA     s:7897
         2 000526   002275 710000 2                  TRA     s:7952
PL6.E3A0      #001=CXF$IBEX File=CXF$IBEX.:E05TSI                                TUE 07/29/97 12:27 Page:36
         2 000527   001730 710000 2                  TRA     s:7876
         2 000530   001736 710000 2                  TRA     s:7879
         2 000531   001743 710000 2                  TRA     s:7882
         2 000532   001761 710000 2                  TRA     s:7891
         2 000533   002251 710000 2                  TRA     s:7945
         2 000534   001767 710000 2                  TRA     s:7894
         2 000535   000745 710000 2                  TRA     s:7729
         2 000536   001047 710000 2                  TRA     s:7747
         2 000537   001103 710000 2                  TRA     s:7756
         2 000540   001626 710000 2                  TRA     s:7858
         2 000541   000566 710000 2                  TRA     s:7696
         2 000542   000601 710000 2                  TRA     s:7699
         2 000543   000717 710000 2                  TRA     s:7723
         2 000544   001055 710000 2                  TRA     s:7750
         2 000545   001116 710000 2                  TRA     s:7759
         2 000546   001244 710000 2                  TRA     s:7786
         2 000547   001341 710000 2                  TRA     s:7804
         2 000550   001464 710000 2                  TRA     s:7828
         2 000551   001641 710000 2                  TRA     s:7861
         2 000552   001667 710000 2                  TRA     s:7867

      184     7692    4         CASE(ATRSCRNPOSOPT);

      185     7693    4           TRMATTR_FLG = %YES# ;

   7693  2 000553   400000 236003                    LDQ     -131072,DU
         2 000554   200014 756100                    STQ     TRMATTR_FLG,,AUTO

      186     7694    4           VLP_TRMATTR.ATRSCRNPOS# = BINBIT(TEMP$->P$B.SUBLK$(0)->P$B.CODE,1);

   7694  2 000555   100003 473500                    LDP3    3,,PR1
         2 000556   300000 236100                    LDQ     0,,PR3
         2 000557   777777 376007                    ANQ     -1,DL
         2 000560   000043 736000                    QLS     35
         2 000561   000025 772000                    QRL     21
         2 000562   200173 676100                    ERQ     VLP_TRMATTR+1,,AUTO
         2 000563   060000 376007                    ANQ     24576,DL
PL6.E3A0      #001=CXF$IBEX File=CXF$IBEX.:E05TSI                                TUE 07/29/97 12:27 Page:37
         2 000564   200173 656100                    ERSQ    VLP_TRMATTR+1,,AUTO
         2 000565   002275 710000 2                  TRA     s:7952

      187     7695    4         CASE(ADJTOPLFTOPT);

      188     7696    4           TRMCTL_TYPE(%TRMCTL_TRMCTL#) = %YES# ;

   7696  2 000566   400000 236003                    LDQ     -131072,DU
         2 000567   200013 256100                    ORSQ    TRMCTL_TYPE,,AUTO

      189     7697    4           VLP_TRMCTL.ADJTOPLFT# = BINBIT(TEMP$->P$B.SUBLK$(0)->P$B.CODE,1);

   7697  2 000570   100003 473500                    LDP3    3,,PR1
         2 000571   300000 236100                    LDQ     0,,PR3
         2 000572   777777 376007                    ANQ     -1,DL
         2 000573   000043 736000                    QLS     35
         2 000574   000034 772000                    QRL     28
         2 000575   200171 676100                    ERQ     VLP_TRMCTL+3,,AUTO
         2 000576   000300 376007                    ANQ     192,DL
         2 000577   200171 656100                    ERSQ    VLP_TRMCTL+3,,AUTO
         2 000600   002275 710000 2                  TRA     s:7952

      190     7698    4         CASE(AUTOCURSOROPT);

      191     7699    4           TRMCTL_TYPE(%TRMCTL_TRMCTL#) = %YES# ;

   7699  2 000601   400000 236003                    LDQ     -131072,DU
         2 000602   200013 256100                    ORSQ    TRMCTL_TYPE,,AUTO

      192     7700    4           VLP_TRMCTL.AUTOCURSOR# = BINBIT(TEMP$->P$B.SUBLK$(0)->P$B.CODE,1);

   7700  2 000603   100003 473500                    LDP3    3,,PR1
         2 000604   300000 236100                    LDQ     0,,PR3
         2 000605   777777 376007                    ANQ     -1,DL
         2 000606   000043 736000                    QLS     35
         2 000607   000031 772000                    QRL     25
         2 000610   200171 676100                    ERQ     VLP_TRMCTL+3,,AUTO
PL6.E3A0      #001=CXF$IBEX File=CXF$IBEX.:E05TSI                                TUE 07/29/97 12:27 Page:38
         2 000611   003000 376007                    ANQ     1536,DL
         2 000612   200171 656100                    ERSQ    VLP_TRMCTL+3,,AUTO
         2 000613   002275 710000 2                  TRA     s:7952

      193     7701    4         CASE(AUTONLOPT);

      194     7702    4           TRMATTR_FLG = %YES# ;

   7702  2 000614   400000 236003                    LDQ     -131072,DU
         2 000615   200014 756100                    STQ     TRMATTR_FLG,,AUTO

      195     7703    4           VLP_TRMATTR.AUTONL# = BINBIT(TEMP$->P$B.SUBLK$(0)->P$B.CODE,1);

   7703  2 000616   100003 473500                    LDP3    3,,PR1
         2 000617   300000 236100                    LDQ     0,,PR3
         2 000620   777777 376007                    ANQ     -1,DL
         2 000621   000043 736000                    QLS     35
         2 000622   000020 772000                    QRL     16
         2 000623   200172 676100                    ERQ     VLP_TRMATTR,,AUTO
         2 000624   000003 376003                    ANQ     3,DU
         2 000625   200172 656100                    ERSQ    VLP_TRMATTR,,AUTO
         2 000626   002275 710000 2                  TRA     s:7952

      196     7704    4         CASE(AUTOTABCLMOPT);

      197     7705    4           TRMCTL_TYPE(%TRMCTL_TRMCTL#) = %YES# ;

   7705  2 000627   400000 236003                    LDQ     -131072,DU
         2 000630   200013 256100                    ORSQ    TRMCTL_TYPE,,AUTO

      198     7706    4           VLP_TRMCTL.AUTOTABCLM#=TEMP_STOR;

   7706  2 000631   200010 236100                    LDQ     TEMP_STOR,,AUTO
         2 000632   200170 552104                    STBQ    VLP_TRMCTL+2,'04'O,AUTO
         2 000633   002275 710000 2                  TRA     s:7952

      199     7707    4         CASE(BINOPT);
PL6.E3A0      #001=CXF$IBEX File=CXF$IBEX.:E05TSI                                TUE 07/29/97 12:27 Page:39

      200     7708    4           TRMATTR_FLG = %YES# ;

   7708  2 000634   400000 236003                    LDQ     -131072,DU
         2 000635   200014 756100                    STQ     TRMATTR_FLG,,AUTO

      201     7709    4           VLP_TRMATTR.BIN# = BINBIT(TEMP$->P$B.SUBLK$(0)->P$B.CODE,1);

   7709  2 000636   100003 473500                    LDP3    3,,PR1
         2 000637   300000 236100                    LDQ     0,,PR3
         2 000640   777777 376007                    ANQ     -1,DL
         2 000641   000043 736000                    QLS     35
         2 000642   000040 772000                    QRL     32
         2 000643   200172 676100                    ERQ     VLP_TRMATTR,,AUTO
         2 000644   000014 376007                    ANQ     12,DL
         2 000645   200172 656100                    ERSQ    VLP_TRMATTR,,AUTO
         2 000646   002275 710000 2                  TRA     s:7952

      202     7710    4         CASE(BLANKERASESOPT);

      203     7711    4           TRMATTR_FLG = %YES# ;

   7711  2 000647   400000 236003                    LDQ     -131072,DU
         2 000650   200014 756100                    STQ     TRMATTR_FLG,,AUTO

      204     7712    4           VLP_TRMATTR.BLANKERASES# = BINBIT(TEMP$->P$B.SUBLK$(0)->P$B.CODE,1);

   7712  2 000651   100003 473500                    LDP3    3,,PR1
         2 000652   300000 236100                    LDQ     0,,PR3
         2 000653   777777 376007                    ANQ     -1,DL
         2 000654   000043 736000                    QLS     35
         2 000655   000027 772000                    QRL     23
         2 000656   200172 676100                    ERQ     VLP_TRMATTR,,AUTO
         2 000657   014000 376007                    ANQ     6144,DL
         2 000660   200172 656100                    ERSQ    VLP_TRMATTR,,AUTO
         2 000661   002275 710000 2                  TRA     s:7952

PL6.E3A0      #001=CXF$IBEX File=CXF$IBEX.:E05TSI                                TUE 07/29/97 12:27 Page:40
      205     7713    4         CASE(CHARSETNAMEOPT);

      206     7714    4           TRMATTR_FLG = %YES# ;

   7714  2 000662   400000 236003                    LDQ     -131072,DU
         2 000663   200014 756100                    STQ     TRMATTR_FLG,,AUTO

      207     7715    4           VLP_TRMATTR.CHARSETNAME#=TEMP$->P$B.SUBLK$(0)->P$S.TEXT ;

   7715  2 000664   100003 473500                    LDP3    3,,PR1
         2 000665   300004 236100                    LDQ     4,,PR3
         2 000666   000033 772000                    QRL     27
         2 000667   000000 620006                    EAX0    0,QL
         2 000670   040100 100540                    MLR     fill='040'O
         2 000671   300004 200010                    ADSC9   4,,PR3                   cn=1,n=*X0
         2 000672   200175 000010                    ADSC9   VLP_TRMATTR+3,,AUTO      cn=0,n=8
         2 000673   002275 710000 2                  TRA     s:7952

      208     7716    4         CASE(DVCFLWCTRALGOPT);

      209     7717    4           TRMATTR_FLG = %YES# ;

   7717  2 000674   400000 236003                    LDQ     -131072,DU
         2 000675   200014 756100                    STQ     TRMATTR_FLG,,AUTO

      210     7718    4           VLP_TRMATTR.DVCFLWCTRALG#=TEMP$->P$B.SUBLK$(0)->P$B.CODE ;

   7718  2 000676   100003 473500                    LDP3    3,,PR1
         2 000677   300000 236100                    LDQ     0,,PR3
         2 000700   200174 676100                    ERQ     VLP_TRMATTR+2,,AUTO
         2 000701   000007 376007                    ANQ     7,DL
         2 000702   200174 656100                    ERSQ    VLP_TRMATTR+2,,AUTO
         2 000703   002275 710000 2                  TRA     s:7952

      211     7719    4         CASE(CRISNLOPT);

      212     7720    4           TRMATTR_FLG = %YES# ;
PL6.E3A0      #001=CXF$IBEX File=CXF$IBEX.:E05TSI                                TUE 07/29/97 12:27 Page:41

   7720  2 000704   400000 236003                    LDQ     -131072,DU
         2 000705   200014 756100                    STQ     TRMATTR_FLG,,AUTO

      213     7721    4           VLP_TRMATTR.CRISNL# = BINBIT(TEMP$->P$B.SUBLK$(0)->P$B.CODE,1);

   7721  2 000706   100003 473500                    LDP3    3,,PR1
         2 000707   300000 236100                    LDQ     0,,PR3
         2 000710   777777 376007                    ANQ     -1,DL
         2 000711   000043 736000                    QLS     35
         2 000712   000023 772000                    QRL     19
         2 000713   200172 676100                    ERQ     VLP_TRMATTR,,AUTO
         2 000714   300000 376007                    ANQ     98304,DL
         2 000715   200172 656100                    ERSQ    VLP_TRMATTR,,AUTO
         2 000716   002275 710000 2                  TRA     s:7952

      214     7722    4         CASE(CURSORREADOPT);

      215     7723    4           TRMCTL_TYPE(%TRMCTL_TRMCTL#) = %YES# ;

   7723  2 000717   400000 236003                    LDQ     -131072,DU
         2 000720   200013 256100                    ORSQ    TRMCTL_TYPE,,AUTO

      216     7724    4           VLP_TRMCTL.CURSORREAD# = BINBIT(TEMP$->P$B.SUBLK$(0)->P$B.CODE,1);

   7724  2 000721   100003 473500                    LDP3    3,,PR1
         2 000722   300000 236100                    LDQ     0,,PR3
         2 000723   777777 376007                    ANQ     -1,DL
         2 000724   000043 736000                    QLS     35
         2 000725   000025 772000                    QRL     21
         2 000726   200171 676100                    ERQ     VLP_TRMCTL+3,,AUTO
         2 000727   060000 376007                    ANQ     24576,DL
         2 000730   200171 656100                    ERSQ    VLP_TRMCTL+3,,AUTO
         2 000731   002275 710000 2                  TRA     s:7952

      217     7725    4         CASE(CURSORUPOPT);

PL6.E3A0      #001=CXF$IBEX File=CXF$IBEX.:E05TSI                                TUE 07/29/97 12:27 Page:42
      218     7726    4           TRMATTR_FLG = %YES# ;

   7726  2 000732   400000 236003                    LDQ     -131072,DU
         2 000733   200014 756100                    STQ     TRMATTR_FLG,,AUTO

      219     7727    4           VLP_TRMATTR.CURSORUP# = BINBIT(TEMP$->P$B.SUBLK$(0)->P$B.CODE,1);

   7727  2 000734   100003 473500                    LDP3    3,,PR1
         2 000735   300000 236100                    LDQ     0,,PR3
         2 000736   777777 376007                    ANQ     -1,DL
         2 000737   000043 736000                    QLS     35
         2 000740   000007 772000                    QRL     7
         2 000741   200172 676100                    ERQ     VLP_TRMATTR,,AUTO
         2 000742   003000 376003                    ANQ     1536,DU
         2 000743   200172 656100                    ERSQ    VLP_TRMATTR,,AUTO
         2 000744   002275 710000 2                  TRA     s:7952

      220     7728    4         CASE(DCHMOVFLDOPT);

      221     7729    4           TRMATTR_FLG = %YES# ;

   7729  2 000745   400000 236003                    LDQ     -131072,DU
         2 000746   200014 756100                    STQ     TRMATTR_FLG,,AUTO

      222     7730    4           VLP_TRMATTR.DCHMOVFLD# = BINBIT(TEMP$->P$B.SUBLK$(0)->P$B.CODE,1);

   7730  2 000747   100003 473500                    LDP3    3,,PR1
         2 000750   300000 236100                    LDQ     0,,PR3
         2 000751   777777 376007                    ANQ     -1,DL
         2 000752   000043 736000                    QLS     35
         2 000753   000031 772000                    QRL     25
         2 000754   200173 676100                    ERQ     VLP_TRMATTR+1,,AUTO
         2 000755   003000 376007                    ANQ     1536,DL
         2 000756   200173 656100                    ERSQ    VLP_TRMATTR+1,,AUTO
         2 000757   002275 710000 2                  TRA     s:7952

      223     7731    4         CASE(DEVICEBSOPT);
PL6.E3A0      #001=CXF$IBEX File=CXF$IBEX.:E05TSI                                TUE 07/29/97 12:27 Page:43

      224     7732    4           TRMATTR_FLG = %YES# ;

   7732  2 000760   400000 236003                    LDQ     -131072,DU
         2 000761   200014 756100                    STQ     TRMATTR_FLG,,AUTO

      225     7733    4           VLP_TRMATTR.DEVICEBS# = BINBIT(TEMP$->P$B.SUBLK$(0)->P$B.CODE,1);

   7733  2 000762   100003 473500                    LDP3    3,,PR1
         2 000763   300000 236100                    LDQ     0,,PR3
         2 000764   777777 376007                    ANQ     -1,DL
         2 000765   000043 736000                    QLS     35
         2 000766   000016 772000                    QRL     14
         2 000767   200172 676100                    ERQ     VLP_TRMATTR,,AUTO
         2 000770   000014 376003                    ANQ     12,DU
         2 000771   200172 656100                    ERSQ    VLP_TRMATTR,,AUTO
         2 000772   002275 710000 2                  TRA     s:7952

      226     7734    4         CASE(DEVICECROPT);

      227     7735    4           TRMATTR_FLG = %YES# ;

   7735  2 000773   400000 236003                    LDQ     -131072,DU
         2 000774   200014 756100                    STQ     TRMATTR_FLG,,AUTO

      228     7736    4           VLP_TRMATTR.DEVICECR# = BINBIT(TEMP$->P$B.SUBLK$(0)->P$B.CODE,1);

   7736  2 000775   100003 473500                    LDP3    3,,PR1
         2 000776   300000 236100                    LDQ     0,,PR3
         2 000777   777777 376007                    ANQ     -1,DL
         2 001000   000043 736000                    QLS     35
         2 001001   000012 772000                    QRL     10
         2 001002   200172 676100                    ERQ     VLP_TRMATTR,,AUTO
         2 001003   000300 376003                    ANQ     192,DU
         2 001004   200172 656100                    ERSQ    VLP_TRMATTR,,AUTO
         2 001005   002275 710000 2                  TRA     s:7952

PL6.E3A0      #001=CXF$IBEX File=CXF$IBEX.:E05TSI                                TUE 07/29/97 12:27 Page:44
      229     7737    4         CASE(DEVICELFOPT);

      230     7738    4           TRMATTR_FLG = %YES# ;

   7738  2 001006   400000 236003                    LDQ     -131072,DU
         2 001007   200014 756100                    STQ     TRMATTR_FLG,,AUTO

      231     7739    4           VLP_TRMATTR.DEVICELF# = BINBIT(TEMP$->P$B.SUBLK$(0)->P$B.CODE,1);

   7739  2 001010   100003 473500                    LDP3    3,,PR1
         2 001011   300000 236100                    LDQ     0,,PR3
         2 001012   777777 376007                    ANQ     -1,DL
         2 001013   000043 736000                    QLS     35
         2 001014   000014 772000                    QRL     12
         2 001015   200172 676100                    ERQ     VLP_TRMATTR,,AUTO
         2 001016   000060 376003                    ANQ     48,DU
         2 001017   200172 656100                    ERSQ    VLP_TRMATTR,,AUTO
         2 001020   002275 710000 2                  TRA     s:7952

      232     7740    4         CASE(DEVPOSOPTSOPT);

      233     7741    4           TRMATTR_FLG = %YES# ;

   7741  2 001021   400000 236003                    LDQ     -131072,DU
         2 001022   200014 756100                    STQ     TRMATTR_FLG,,AUTO

      234     7742    4           VLP_TRMATTR.DEVPOSOPTS# = BINBIT(TEMP$->P$B.SUBLK$(0)->P$B.CODE,1);

   7742  2 001023   100003 473500                    LDP3    3,,PR1
         2 001024   300000 236100                    LDQ     0,,PR3
         2 001025   777777 376007                    ANQ     -1,DL
         2 001026   000043 736000                    QLS     35
         2 001027   000031 772000                    QRL     25
         2 001030   200172 676100                    ERQ     VLP_TRMATTR,,AUTO
         2 001031   003000 376007                    ANQ     1536,DL
         2 001032   200172 656100                    ERSQ    VLP_TRMATTR,,AUTO
         2 001033   002275 710000 2                  TRA     s:7952
PL6.E3A0      #001=CXF$IBEX File=CXF$IBEX.:E05TSI                                TUE 07/29/97 12:27 Page:45

      235     7743    4         CASE(DEVSCROLLOPT);

      236     7744    4           TRMATTR_FLG = %YES# ;

   7744  2 001034   400000 236003                    LDQ     -131072,DU
         2 001035   200014 756100                    STQ     TRMATTR_FLG,,AUTO

      237     7745    4           VLP_TRMATTR.DEVSCROLL# = BINBIT(TEMP$->P$B.SUBLK$(0)->P$B.CODE,1);

   7745  2 001036   100003 473500                    LDP3    3,,PR1
         2 001037   300000 236100                    LDQ     0,,PR3
         2 001040   777777 376007                    ANQ     -1,DL
         2 001041   000043 736000                    QLS     35
         2 001042   000005 772000                    QRL     5
         2 001043   200172 676100                    ERQ     VLP_TRMATTR,,AUTO
         2 001044   014000 376003                    ANQ     6144,DU
         2 001045   200172 656100                    ERSQ    VLP_TRMATTR,,AUTO
         2 001046   002275 710000 2                  TRA     s:7952

      238     7746    4         CASE(DSPHEIGHTOPT);

      239     7747    4           TRMATTR_FLG = %YES# ;

   7747  2 001047   400000 236003                    LDQ     -131072,DU
         2 001050   200014 756100                    STQ     TRMATTR_FLG,,AUTO

      240     7748    4           VLP_TRMATTR.DSPHEIGHT#=TEMP_STOR;

   7748  2 001051   200010 236100                    LDQ     TEMP_STOR,,AUTO
         2 001052   000022 736000                    QLS     18
         2 001053   200201 552120                    STBQ    VLP_TRMATTR+7,'20'O,AUTO
         2 001054   002275 710000 2                  TRA     s:7952

      241     7749    4         CASE(EASYAPPENDOPT);

      242     7750    4           TRMCTL_TYPE(%TRMCTL_EDTCTL#) = %YES# ;
PL6.E3A0      #001=CXF$IBEX File=CXF$IBEX.:E05TSI                                TUE 07/29/97 12:27 Page:46

   7750  2 001055   100000 236003                    LDQ     32768,DU
         2 001056   200013 256100                    ORSQ    TRMCTL_TYPE,,AUTO

      243     7751    4           VLP_EDTCTL.EASYAPPEND# = BINBIT(TEMP$->P$B.SUBLK$(0)->P$B.CODE,1);

   7751  2 001057   100003 473500                    LDP3    3,,PR1
         2 001060   300000 236100                    LDQ     0,,PR3
         2 001061   777777 376007                    ANQ     -1,DL
         2 001062   000043 736000                    QLS     35
         2 001063   000007 772000                    QRL     7
         2 001064   200204 676100                    ERQ     VLP_EDTCTL,,AUTO
         2 001065   003000 376003                    ANQ     1536,DU
         2 001066   200204 656100                    ERSQ    VLP_EDTCTL,,AUTO
         2 001067   002275 710000 2                  TRA     s:7952

      244     7752    4         CASE(ENBENTEXTSRDCHROPT);

      245     7753    4           TRMCTL_TYPE(%TRMCTL_TRMCTL#) = %YES# ;

   7753  2 001070   400000 236003                    LDQ     -131072,DU
         2 001071   200013 256100                    ORSQ    TRMCTL_TYPE,,AUTO

      246     7754    4           VLP_TRMCTL.ENBENTEXTSRDCHR# = BINBIT(TEMP$->P$B.SUBLK$(0)->P$B.CODE,1);

   7754  2 001072   100003 473500                    LDP3    3,,PR1
         2 001073   300000 236100                    LDQ     0,,PR3
         2 001074   777777 376007                    ANQ     -1,DL
         2 001075   000043 736000                    QLS     35
         2 001076   000007 772000                    QRL     7
         2 001077   200170 676100                    ERQ     VLP_TRMCTL+2,,AUTO
         2 001100   003000 376003                    ANQ     1536,DU
         2 001101   200170 656100                    ERSQ    VLP_TRMCTL+2,,AUTO
         2 001102   002275 710000 2                  TRA     s:7952

      247     7755    4         CASE(FFFLUSHOPT);

PL6.E3A0      #001=CXF$IBEX File=CXF$IBEX.:E05TSI                                TUE 07/29/97 12:27 Page:47
      248     7756    4           TRMATTR_FLG = %YES# ;

   7756  2 001103   400000 236003                    LDQ     -131072,DU
         2 001104   200014 756100                    STQ     TRMATTR_FLG,,AUTO

      249     7757    4           VLP_TRMATTR.FF_FLUSH# = BINBIT(TEMP$->P$B.SUBLK$(0)->P$B.CODE,1);

   7757  2 001105   100003 473500                    LDP3    3,,PR1
         2 001106   300000 236100                    LDQ     0,,PR3
         2 001107   777777 376007                    ANQ     -1,DL
         2 001110   000043 736000                    QLS     35
         2 001111   000034 772000                    QRL     28
         2 001112   200174 676100                    ERQ     VLP_TRMATTR+2,,AUTO
         2 001113   000300 376007                    ANQ     192,DL
         2 001114   200174 656100                    ERSQ    VLP_TRMATTR+2,,AUTO
         2 001115   002275 710000 2                  TRA     s:7952

      250     7758    4         CASE(FFINCCROPT);

      251     7759    4           TRMATTR_FLG = %YES# ;

   7759  2 001116   400000 236003                    LDQ     -131072,DU
         2 001117   200014 756100                    STQ     TRMATTR_FLG,,AUTO

      252     7760    4           VLP_TRMATTR.FF_INCCR# = BINBIT(TEMP$->P$B.SUBLK$(0)->P$B.CODE,1);

   7760  2 001120   100003 473500                    LDP3    3,,PR1
         2 001121   300000 236100                    LDQ     0,,PR3
         2 001122   777777 376007                    ANQ     -1,DL
         2 001123   000043 736000                    QLS     35
         2 001124   000023 772000                    QRL     19
         2 001125   200201 676100                    ERQ     VLP_TRMATTR+7,,AUTO
         2 001126   300000 376007                    ANQ     98304,DL
         2 001127   200201 656100                    ERSQ    VLP_TRMATTR+7,,AUTO
         2 001130   002275 710000 2                  TRA     s:7952

      253     7761    4         CASE(HEIGHTOPT);
PL6.E3A0      #001=CXF$IBEX File=CXF$IBEX.:E05TSI                                TUE 07/29/97 12:27 Page:48

      254     7762    4           TRMATTR_FLG = %YES# ;

   7762  2 001131   400000 236003                    LDQ     -131072,DU
         2 001132   200014 756100                    STQ     TRMATTR_FLG,,AUTO

      255     7763    4           VLP_TRMATTR.HEIGHT#=TEMP_STOR;

   7763  2 001133   200010 236100                    LDQ     TEMP_STOR,,AUTO
         2 001134   000033 736000                    QLS     27
         2 001135   200174 676100                    ERQ     VLP_TRMATTR+2,,AUTO
         2 001136   377000 376003                    ANQ     130560,DU
         2 001137   200174 656100                    ERSQ    VLP_TRMATTR+2,,AUTO
         2 001140   002275 710000 2                  TRA     s:7952

      256     7764    4         CASE(HSMARGINOPT);

      257     7765    4           TRMCTL_TYPE(%TRMCTL_TRMCTL#) = %YES# ;

   7765  2 001141   400000 236003                    LDQ     -131072,DU
         2 001142   200013 256100                    ORSQ    TRMCTL_TYPE,,AUTO

      258     7766    4           VLP_TRMCTL.HSMARGIN#=TEMP_STOR;

   7766  2 001143   200010 236100                    LDQ     TEMP_STOR,,AUTO
         2 001144   000033 736000                    QLS     27
         2 001145   200171 552140                    STBQ    VLP_TRMCTL+3,'40'O,AUTO
         2 001146   002275 710000 2                  TRA     s:7952

      259     7767    4         CASE(HSSHIFTOPT);

      260     7768    4           TRMCTL_TYPE(%TRMCTL_TRMCTL#) = %YES# ;

   7768  2 001147   400000 236003                    LDQ     -131072,DU
         2 001150   200013 256100                    ORSQ    TRMCTL_TYPE,,AUTO

      261     7769    4           VLP_TRMCTL.HSSHIFT#=TEMP_STOR;
PL6.E3A0      #001=CXF$IBEX File=CXF$IBEX.:E05TSI                                TUE 07/29/97 12:27 Page:49

   7769  2 001151   200010 236100                    LDQ     TEMP_STOR,,AUTO
         2 001152   000022 736000                    QLS     18
         2 001153   200171 552120                    STBQ    VLP_TRMCTL+3,'20'O,AUTO
         2 001154   002275 710000 2                  TRA     s:7952

      262     7770    4         CASE(TABSIMOPT);

      263     7771    4           TRMCTL_TYPE(%TRMCTL_TRMCTL#) = %YES# ;

   7771  2 001155   400000 236003                    LDQ     -131072,DU
         2 001156   200013 256100                    ORSQ    TRMCTL_TYPE,,AUTO

      264     7772    4           VLP_TRMCTL.TABSIM# = BINBIT(TEMP$->P$B.SUBLK$(0)->P$B.CODE,1);

   7772  2 001157   100003 473500                    LDP3    3,,PR1
         2 001160   300000 236100                    LDQ     0,,PR3
         2 001161   777777 376007                    ANQ     -1,DL
         2 001162   000043 736000                    QLS     35
         2 001163   000001 772000                    QRL     1
         2 001164   200166 676100                    ERQ     VLP_TRMCTL,,AUTO
         2 001165   300000 376003                    ANQ     98304,DU
         2 001166   200166 656100                    ERSQ    VLP_TRMCTL,,AUTO
         2 001167   002275 710000 2                  TRA     s:7952

      265     7773    4         CASE(TRELATIVEOPT);

      266     7774    4           TRMCTL_TYPE(%TRMCTL_TRMCTL#) = %YES# ;

   7774  2 001170   400000 236003                    LDQ     -131072,DU
         2 001171   200013 256100                    ORSQ    TRMCTL_TYPE,,AUTO

      267     7775    4           VLP_TRMCTL.TABRELATIVE# = BINBIT(TEMP$->P$B.SUBLK$(0)->P$B.CODE,1);

   7775  2 001172   100003 473500                    LDP3    3,,PR1
         2 001173   300000 236100                    LDQ     0,,PR3
         2 001174   777777 376007                    ANQ     -1,DL
PL6.E3A0      #001=CXF$IBEX File=CXF$IBEX.:E05TSI                                TUE 07/29/97 12:27 Page:50
         2 001175   000043 736000                    QLS     35
         2 001176   000003 772000                    QRL     3
         2 001177   200166 676100                    ERQ     VLP_TRMCTL,,AUTO
         2 001200   060000 376003                    ANQ     24576,DU
         2 001201   200166 656100                    ERSQ    VLP_TRMCTL,,AUTO
         2 001202   002275 710000 2                  TRA     s:7952

      268     7776    4         CASE(SINSERTOPT);

      269     7777    4           TRMCTL_TYPE(%TRMCTL_TRMCTL#) = %YES# ;

   7777  2 001203   400000 236003                    LDQ     -131072,DU
         2 001204   200013 256100                    ORSQ    TRMCTL_TYPE,,AUTO

      270     7778    4           VLP_TRMCTL.SPACEINSERT# = BINBIT(TEMP$->P$B.SUBLK$(0)->P$B.CODE,1);

   7778  2 001205   100003 473500                    LDP3    3,,PR1
         2 001206   300000 236100                    LDQ     0,,PR3
         2 001207   777777 376007                    ANQ     -1,DL
         2 001210   000043 736000                    QLS     35
         2 001211   000005 772000                    QRL     5
         2 001212   200166 676100                    ERQ     VLP_TRMCTL,,AUTO
         2 001213   014000 376003                    ANQ     6144,DU
         2 001214   200166 656100                    ERSQ    VLP_TRMCTL,,AUTO
         2 001215   002275 710000 2                  TRA     s:7952

      271     7779    4         CASE(SBKSPACEOPT);

      272     7780    4           TRMCTL_TYPE(%TRMCTL_TRMCTL#) = %YES# ;

   7780  2 001216   400000 236003                    LDQ     -131072,DU
         2 001217   200013 256100                    ORSQ    TRMCTL_TYPE,,AUTO

      273     7781    4           VLP_TRMCTL.SENDBKSPACE# = BINBIT(TEMP$->P$B.SUBLK$(0)->P$B.CODE,1);

   7781  2 001220   100003 473500                    LDP3    3,,PR1
         2 001221   300000 236100                    LDQ     0,,PR3
PL6.E3A0      #001=CXF$IBEX File=CXF$IBEX.:E05TSI                                TUE 07/29/97 12:27 Page:51
         2 001222   777777 376007                    ANQ     -1,DL
         2 001223   000043 736000                    QLS     35
         2 001224   000007 772000                    QRL     7
         2 001225   200166 676100                    ERQ     VLP_TRMCTL,,AUTO
         2 001226   003000 376003                    ANQ     1536,DU
         2 001227   200166 656100                    ERSQ    VLP_TRMCTL,,AUTO
         2 001230   002275 710000 2                  TRA     s:7952

      274     7782    4         CASE(DINPUTOPT);

      275     7783    4           TRMCTL_TYPE(%TRMCTL_TRMCTL#) = %YES# ;

   7783  2 001231   400000 236003                    LDQ     -131072,DU
         2 001232   200013 256100                    ORSQ    TRMCTL_TYPE,,AUTO

      276     7784    4           VLP_TRMCTL.DISPINPUT# = BINBIT(TEMP$->P$B.SUBLK$(0)->P$B.CODE,1);

   7784  2 001233   100003 473500                    LDP3    3,,PR1
         2 001234   300000 236100                    LDQ     0,,PR3
         2 001235   777777 376007                    ANQ     -1,DL
         2 001236   000043 736000                    QLS     35
         2 001237   000012 772000                    QRL     10
         2 001240   200166 676100                    ERQ     VLP_TRMCTL,,AUTO
         2 001241   000300 376003                    ANQ     192,DU
         2 001242   200166 656100                    ERSQ    VLP_TRMCTL,,AUTO
         2 001243   002275 710000 2                  TRA     s:7952

      277     7785    4         CASE(KEEPTYPAHDOPT);

      278     7786    4           TRMCTL_TYPE(%TRMCTL_TRMCTL#) = %YES# ;

   7786  2 001244   400000 236003                    LDQ     -131072,DU
         2 001245   200013 256100                    ORSQ    TRMCTL_TYPE,,AUTO

      279     7787    4           VLP_TRMCTL.KEEPTYPAHD# = BINBIT(TEMP$->P$B.SUBLK$(0)->P$B.CODE,1);

   7787  2 001246   100003 473500                    LDP3    3,,PR1
PL6.E3A0      #001=CXF$IBEX File=CXF$IBEX.:E05TSI                                TUE 07/29/97 12:27 Page:52
         2 001247   300000 236100                    LDQ     0,,PR3
         2 001250   777777 376007                    ANQ     -1,DL
         2 001251   000043 736000                    QLS     35
         2 001252   000027 772000                    QRL     23
         2 001253   200171 676100                    ERQ     VLP_TRMCTL+3,,AUTO
         2 001254   014000 376007                    ANQ     6144,DL
         2 001255   200171 656100                    ERSQ    VLP_TRMCTL+3,,AUTO
         2 001256   002275 710000 2                  TRA     s:7952

      280     7788    4         CASE(LFISNLOPT);

      281     7789    4           TRMATTR_FLG = %YES# ;

   7789  2 001257   400000 236003                    LDQ     -131072,DU
         2 001260   200014 756100                    STQ     TRMATTR_FLG,,AUTO

      282     7790    4           VLP_TRMATTR.LFISNL# = BINBIT(TEMP$->P$B.SUBLK$(0)->P$B.CODE,1);

   7790  2 001261   100003 473500                    LDP3    3,,PR1
         2 001262   300000 236100                    LDQ     0,,PR3
         2 001263   777777 376007                    ANQ     -1,DL
         2 001264   000043 736000                    QLS     35
         2 001265   000025 772000                    QRL     21
         2 001266   200172 676100                    ERQ     VLP_TRMATTR,,AUTO
         2 001267   060000 376007                    ANQ     24576,DL
         2 001270   200172 656100                    ERSQ    VLP_TRMATTR,,AUTO
         2 001271   002275 710000 2                  TRA     s:7952

      283     7791    4         CASE(LIMBOCLMOPT);

      284     7792    4           TRMATTR_FLG = %YES# ;

   7792  2 001272   400000 236003                    LDQ     -131072,DU
         2 001273   200014 756100                    STQ     TRMATTR_FLG,,AUTO

      285     7793    4           VLP_TRMATTR.LIMBOCLM# = BINBIT(TEMP$->P$B.SUBLK$(0)->P$B.CODE,1);

PL6.E3A0      #001=CXF$IBEX File=CXF$IBEX.:E05TSI                                TUE 07/29/97 12:27 Page:53
   7793  2 001274   100003 473500                    LDP3    3,,PR1
         2 001275   300000 236100                    LDQ     0,,PR3
         2 001276   777777 376007                    ANQ     -1,DL
         2 001277   000043 736000                    QLS     35
         2 001300   000001 772000                    QRL     1
         2 001301   200173 676100                    ERQ     VLP_TRMATTR+1,,AUTO
         2 001302   300000 376003                    ANQ     98304,DU
         2 001303   200173 656100                    ERSQ    VLP_TRMATTR+1,,AUTO
         2 001304   002275 710000 2                  TRA     s:7952

      286     7794    4         CASE(LOCALECHOOPT);

      287     7795    4           TRMATTR_FLG = %YES# ;

   7795  2 001305   400000 236003                    LDQ     -131072,DU
         2 001306   200014 756100                    STQ     TRMATTR_FLG,,AUTO

      288     7796    4           VLP_TRMATTR.LOCALECHO# = BINBIT(TEMP$->P$B.SUBLK$(0)->P$B.CODE,1);

   7796  2 001307   100003 473500                    LDP3    3,,PR1
         2 001310   300000 236100                    LDQ     0,,PR3
         2 001311   777777 376007                    ANQ     -1,DL
         2 001312   000043 736000                    QLS     35
         2 001313   000003 772000                    QRL     3
         2 001314   200173 676100                    ERQ     VLP_TRMATTR+1,,AUTO
         2 001315   060000 376003                    ANQ     24576,DU
         2 001316   200173 656100                    ERSQ    VLP_TRMATTR+1,,AUTO
         2 001317   002275 710000 2                  TRA     s:7952

      289     7797    4         CASE(LOWERCASEPRINTSOPT);

      290     7798    4           TRMATTR_FLG = %YES# ;

   7798  2 001320   400000 236003                    LDQ     -131072,DU
         2 001321   200014 756100                    STQ     TRMATTR_FLG,,AUTO

      291     7799    4           VLP_TRMATTR.LOWERCASEPRINTS# = BINBIT(TEMP$->P$B.SUBLK$(0)->P$B.CODE,1);
PL6.E3A0      #001=CXF$IBEX File=CXF$IBEX.:E05TSI                                TUE 07/29/97 12:27 Page:54

   7799  2 001322   100003 473500                    LDP3    3,,PR1
         2 001323   300000 236100                    LDQ     0,,PR3
         2 001324   777777 376007                    ANQ     -1,DL
         2 001325   000043 736000                    QLS     35
         2 001326   000042 772000                    QRL     34
         2 001327   200172 676100                    ERQ     VLP_TRMATTR,,AUTO
         2 001330   000003 376007                    ANQ     3,DL
         2 001331   200172 656100                    ERSQ    VLP_TRMATTR,,AUTO
         2 001332   002275 710000 2                  TRA     s:7952

      292     7800    4         CASE(MAXATRSOPT);

      293     7801    4           TRMATTR_FLG = %YES# ;

   7801  2 001333   400000 236003                    LDQ     -131072,DU
         2 001334   200014 756100                    STQ     TRMATTR_FLG,,AUTO

      294     7802    4           VLP_TRMATTR.MAXATRS#=TEMP_STOR;

   7802  2 001335   200010 236100                    LDQ     TEMP_STOR,,AUTO
         2 001336   000033 736000                    QLS     27
         2 001337   200201 552140                    STBQ    VLP_TRMATTR+7,'40'O,AUTO
         2 001340   002275 710000 2                  TRA     s:7952

      295     7803    4         CASE(MICROFPLOPT);

      296     7804    4           TRMATTR_FLG = %YES# ;

   7804  2 001341   400000 236003                    LDQ     -131072,DU
         2 001342   200014 756100                    STQ     TRMATTR_FLG,,AUTO

      297     7805    4           VLP_TRMATTR.MICROFPL# = BINBIT(TEMP$->P$B.SUBLK$(0)->P$B.CODE,1);

   7805  2 001343   100003 473500                    LDP3    3,,PR1
         2 001344   300000 236100                    LDQ     0,,PR3
         2 001345   777777 376007                    ANQ     -1,DL
PL6.E3A0      #001=CXF$IBEX File=CXF$IBEX.:E05TSI                                TUE 07/29/97 12:27 Page:55
         2 001346   000043 736000                    QLS     35
         2 001347   000036 772000                    QRL     30
         2 001350   200174 676100                    ERQ     VLP_TRMATTR+2,,AUTO
         2 001351   000060 376007                    ANQ     48,DL
         2 001352   200174 656100                    ERSQ    VLP_TRMATTR+2,,AUTO
         2 001353   002275 710000 2                  TRA     s:7952

      298     7806    4         CASE(MINRECOPT);

      299     7807    4           TRMATTR_FLG = %YES# ;

   7807  2 001354   400000 236003                    LDQ     -131072,DU
         2 001355   200014 756100                    STQ     TRMATTR_FLG,,AUTO

      300     7808    4           VLP_TRMATTR.MINREC#=TEMP_STOR;

   7808  2 001356   200010 236100                    LDQ     TEMP_STOR,,AUTO
         2 001357   000022 736000                    QLS     18
         2 001360   200174 676100                    ERQ     VLP_TRMATTR+2,,AUTO
         2 001361   000377 376003                    ANQ     255,DU
         2 001362   200174 656100                    ERSQ    VLP_TRMATTR+2,,AUTO
         2 001363   002275 710000 2                  TRA     s:7952

      301     7809    4         CASE(MSGHALTOPT);

      302     7810    4           TRMCTL_TYPE(%TRMCTL_TRMCTL#) = %YES# ;

   7810  2 001364   400000 236003                    LDQ     -131072,DU
         2 001365   200013 256100                    ORSQ    TRMCTL_TYPE,,AUTO

      303     7811    4           VLP_TRMCTL.MSGHALT# = BINBIT(TEMP$->P$B.SUBLK$(0)->P$B.CODE,1);

   7811  2 001366   100003 473500                    LDP3    3,,PR1
         2 001367   300000 236100                    LDQ     0,,PR3
         2 001370   777777 376007                    ANQ     -1,DL
         2 001371   000043 736000                    QLS     35
         2 001372   000005 772000                    QRL     5
PL6.E3A0      #001=CXF$IBEX File=CXF$IBEX.:E05TSI                                TUE 07/29/97 12:27 Page:56
         2 001373   200170 676100                    ERQ     VLP_TRMCTL+2,,AUTO
         2 001374   014000 376003                    ANQ     6144,DU
         2 001375   200170 656100                    ERSQ    VLP_TRMCTL+2,,AUTO
         2 001376   002275 710000 2                  TRA     s:7952

      304     7812    4         CASE(MSGLINEOPT);

      305     7813    4           TRMCTL_TYPE(%TRMCTL_TRMCTL#) = %YES# ;

   7813  2 001377   400000 236003                    LDQ     -131072,DU
         2 001400   200013 256100                    ORSQ    TRMCTL_TYPE,,AUTO

      306     7814    4           VLP_TRMCTL.MSGLINE# = BINBIT(TEMP$->P$B.SUBLK$(0)->P$B.CODE,1);

   7814  2 001401   100003 473500                    LDP3    3,,PR1
         2 001402   300000 236100                    LDQ     0,,PR3
         2 001403   777777 376007                    ANQ     -1,DL
         2 001404   000043 736000                    QLS     35
         2 001405   000012 772000                    QRL     10
         2 001406   200170 676100                    ERQ     VLP_TRMCTL+2,,AUTO
         2 001407   000300 376003                    ANQ     192,DU
         2 001410   200170 656100                    ERSQ    VLP_TRMCTL+2,,AUTO
         2 001411   002275 710000 2                  TRA     s:7952

      307     7815    4         CASE(NOFLDTRMOPT);

      308     7816    4           TRMATTR_FLG = %YES# ;

   7816  2 001412   400000 236003                    LDQ     -131072,DU
         2 001413   200014 756100                    STQ     TRMATTR_FLG,,AUTO

      309     7817    4           VLP_TRMATTR.NO_FLDTRM# = BINBIT(TEMP$->P$B.SUBLK$(0)->P$B.CODE,1);

   7817  2 001414   100003 473500                    LDP3    3,,PR1
         2 001415   300000 236100                    LDQ     0,,PR3
         2 001416   777777 376007                    ANQ     -1,DL
         2 001417   000043 736000                    QLS     35
PL6.E3A0      #001=CXF$IBEX File=CXF$IBEX.:E05TSI                                TUE 07/29/97 12:27 Page:57
         2 001420   000027 772000                    QRL     23
         2 001421   200173 676100                    ERQ     VLP_TRMATTR+1,,AUTO
         2 001422   014000 376007                    ANQ     6144,DL
         2 001423   200173 656100                    ERSQ    VLP_TRMATTR+1,,AUTO
         2 001424   002275 710000 2                  TRA     s:7952

      310     7818    4         CASE(OPDTABOPT);

      311     7819    4           TRMATTR_FLG = %YES# ;

   7819  2 001425   400000 236003                    LDQ     -131072,DU
         2 001426   200014 756100                    STQ     TRMATTR_FLG,,AUTO

      312     7820    4           VLP_TRMATTR.OPDTAB# = BINBIT(TEMP$->P$B.SUBLK$(0)->P$B.CODE,1);

   7820  2 001427   100003 473500                    LDP3    3,,PR1
         2 001430   300000 236100                    LDQ     0,,PR3
         2 001431   777777 376007                    ANQ     -1,DL
         2 001432   000043 736000                    QLS     35
         2 001433   000003 772000                    QRL     3
         2 001434   200172 676100                    ERQ     VLP_TRMATTR,,AUTO
         2 001435   060000 376003                    ANQ     24576,DU
         2 001436   200172 656100                    ERSQ    VLP_TRMATTR,,AUTO
         2 001437   002275 710000 2                  TRA     s:7952

      313     7821    4         CASE(PARITYOPT);

      314     7822    4           TRMATTR_FLG = %YES# ;

   7822  2 001440   400000 236003                    LDQ     -131072,DU
         2 001441   200014 756100                    STQ     TRMATTR_FLG,,AUTO

      315     7823    4           VLP_TRMATTR.PARITY#=TEMP$->P$B.SUBLK$(0)->P$B.CODE ;

   7823  2 001442   100003 473500                    LDP3    3,,PR1
         2 001443   300000 236100                    LDQ     0,,PR3
         2 001444   000033 736000                    QLS     27
PL6.E3A0      #001=CXF$IBEX File=CXF$IBEX.:E05TSI                                TUE 07/29/97 12:27 Page:58
         2 001445   200173 676100                    ERQ     VLP_TRMATTR+1,,AUTO
         2 001446   007000 376003                    ANQ     3584,DU
         2 001447   200173 656100                    ERSQ    VLP_TRMATTR+1,,AUTO
         2 001450   002275 710000 2                  TRA     s:7952

      316     7824    4         CASE(PRINTTYPEOPT);

      317     7825    4           TRMATTR_FLG = %YES# ;

   7825  2 001451   400000 236003                    LDQ     -131072,DU
         2 001452   200014 756100                    STQ     TRMATTR_FLG,,AUTO

      318     7826    4           VLP_TRMATTR.PRINTTYPE# = BINBIT(TEMP$->P$B.SUBLK$(0)->P$B.CODE,1);

   7826  2 001453   100003 473500                    LDP3    3,,PR1
         2 001454   300000 236100                    LDQ     0,,PR3
         2 001455   777777 376007                    ANQ     -1,DL
         2 001456   000043 736000                    QLS     35
         2 001457   000016 772000                    QRL     14
         2 001460   200173 676100                    ERQ     VLP_TRMATTR+1,,AUTO
         2 001461   000014 376003                    ANQ     12,DU
         2 001462   200173 656100                    ERSQ    VLP_TRMATTR+1,,AUTO
         2 001463   002275 710000 2                  TRA     s:7952

      319     7827    4         CASE(PARKCURSOROPT);

      320     7828    4           TRMCTL_TYPE(%TRMCTL_TRMCTL#) = %YES# ;

   7828  2 001464   400000 236003                    LDQ     -131072,DU
         2 001465   200013 256100                    ORSQ    TRMCTL_TYPE,,AUTO

      321     7829    4           VLP_TRMCTL.PARKCURSOR# = BINBIT(TEMP$->P$B.SUBLK$(0)->P$B.CODE,1);

   7829  2 001466   100003 473500                    LDP3    3,,PR1
         2 001467   300000 236100                    LDQ     0,,PR3
         2 001470   777777 376007                    ANQ     -1,DL
         2 001471   000043 736000                    QLS     35
PL6.E3A0      #001=CXF$IBEX File=CXF$IBEX.:E05TSI                                TUE 07/29/97 12:27 Page:59
         2 001472   000023 772000                    QRL     19
         2 001473   200171 676100                    ERQ     VLP_TRMCTL+3,,AUTO
         2 001474   300000 376007                    ANQ     98304,DL
         2 001475   200171 656100                    ERSQ    VLP_TRMCTL+3,,AUTO
         2 001476   002275 710000 2                  TRA     s:7952

      322     7830    4         CASE(PROGDTABOPT);

      323     7831    4           TRMATTR_FLG = %YES# ;

   7831  2 001477   400000 236003                    LDQ     -131072,DU
         2 001500   200014 756100                    STQ     TRMATTR_FLG,,AUTO

      324     7832    4           VLP_TRMATTR.PROGDTAB# = BINBIT(TEMP$->P$B.SUBLK$(0)->P$B.CODE,1);

   7832  2 001501   100003 473500                    LDP3    3,,PR1
         2 001502   300000 236100                    LDQ     0,,PR3
         2 001503   777777 376007                    ANQ     -1,DL
         2 001504   000043 736000                    QLS     35
         2 001505   000001 772000                    QRL     1
         2 001506   200172 676100                    ERQ     VLP_TRMATTR,,AUTO
         2 001507   300000 376003                    ANQ     98304,DU
         2 001510   200172 656100                    ERSQ    VLP_TRMATTR,,AUTO
         2 001511   002275 710000 2                  TRA     s:7952

      325     7833    4         CASE(SPEEDOPT);

      326     7834    4           TRMATTR_FLG = %YES# ;

   7834  2 001512   400000 236003                    LDQ     -131072,DU
         2 001513   200014 756100                    STQ     TRMATTR_FLG,,AUTO

      327     7835    4           VLP_TRMATTR.SPEED#=TEMP$->P$B.SUBLK$(0)->P$B.CODE ;

   7835  2 001514   100003 473500                    LDP3    3,,PR1
         2 001515   300000 236100                    LDQ     0,,PR3
         2 001516   000011 736000                    QLS     9
PL6.E3A0      #001=CXF$IBEX File=CXF$IBEX.:E05TSI                                TUE 07/29/97 12:27 Page:60
         2 001517   200174 676100                    ERQ     VLP_TRMATTR+2,,AUTO
         2 001520   377000 376007                    ANQ     130560,DL
         2 001521   200174 656100                    ERSQ    VLP_TRMATTR+2,,AUTO
         2 001522   002275 710000 2                  TRA     s:7952

      328     7836    4         CASE(PCHECKOPT);

      329     7837    4           TRMCTL_TYPE(%TRMCTL_TRMCTL#) = %YES# ;

   7837  2 001523   400000 236003                    LDQ     -131072,DU
         2 001524   200013 256100                    ORSQ    TRMCTL_TYPE,,AUTO

      330     7838    4           VLP_TRMCTL.PARITYCHECK# = BINBIT(TEMP$->P$B.SUBLK$(0)->P$B.CODE,1);

   7838  2 001525   100003 473500                    LDP3    3,,PR1
         2 001526   300000 236100                    LDQ     0,,PR3
         2 001527   777777 376007                    ANQ     -1,DL
         2 001530   000043 736000                    QLS     35
         2 001531   000014 772000                    QRL     12
         2 001532   200166 676100                    ERQ     VLP_TRMCTL,,AUTO
         2 001533   000060 376003                    ANQ     48,DU
         2 001534   200166 656100                    ERSQ    VLP_TRMCTL,,AUTO
         2 001535   002275 710000 2                  TRA     s:7952

      331     7839    4         CASE(HSALLOPT);

      332     7840    4           TRMCTL_TYPE(%TRMCTL_EDTCTL#) = %YES# ;

   7840  2 001536   100000 236003                    LDQ     32768,DU
         2 001537   200013 256100                    ORSQ    TRMCTL_TYPE,,AUTO

      333     7841    4           VLP_EDTCTL.HSALL# = BINBIT(TEMP$->P$B.SUBLK$(0)->P$B.CODE,1);

   7841  2 001540   100003 473500                    LDP3    3,,PR1
         2 001541   300000 236100                    LDQ     0,,PR3
         2 001542   777777 376007                    ANQ     -1,DL
         2 001543   000043 736000                    QLS     35
PL6.E3A0      #001=CXF$IBEX File=CXF$IBEX.:E05TSI                                TUE 07/29/97 12:27 Page:61
         2 001544   000001 772000                    QRL     1
         2 001545   200204 676100                    ERQ     VLP_EDTCTL,,AUTO
         2 001546   300000 376003                    ANQ     98304,DU
         2 001547   200204 656100                    ERSQ    VLP_EDTCTL,,AUTO
         2 001550   002275 710000 2                  TRA     s:7952

      334     7842    4         CASE(HSCROLLOPT);

      335     7843    4           TRMCTL_TYPE(%TRMCTL_TRMCTL#) = %YES# ;

   7843  2 001551   400000 236003                    LDQ     -131072,DU
         2 001552   200013 256100                    ORSQ    TRMCTL_TYPE,,AUTO

      336     7844    4           VLP_TRMCTL.HSCROLL# = BINBIT(TEMP$->P$B.SUBLK$(0)->P$B.CODE,1);

   7844  2 001553   100003 473500                    LDP3    3,,PR1
         2 001554   300000 236100                    LDQ     0,,PR3
         2 001555   777777 376007                    ANQ     -1,DL
         2 001556   000043 736000                    QLS     35
         2 001557   000001 772000                    QRL     1
         2 001560   200170 676100                    ERQ     VLP_TRMCTL+2,,AUTO
         2 001561   300000 376003                    ANQ     98304,DU
         2 001562   200170 656100                    ERSQ    VLP_TRMCTL+2,,AUTO
         2 001563   002275 710000 2                  TRA     s:7952

      337     7845    4         CASE(INSERTMODEOPT);

      338     7846    4           TRMCTL_TYPE(%TRMCTL_TRMCTL#) = %YES# ;

   7846  2 001564   400000 236003                    LDQ     -131072,DU
         2 001565   200013 256100                    ORSQ    TRMCTL_TYPE,,AUTO

      339     7847    4           VLP_TRMCTL.INSERTMODE# = BINBIT(TEMP$->P$B.SUBLK$(0)->P$B.CODE,1);

   7847  2 001566   100003 473500                    LDP3    3,,PR1
         2 001567   300000 236100                    LDQ     0,,PR3
         2 001570   777777 376007                    ANQ     -1,DL
PL6.E3A0      #001=CXF$IBEX File=CXF$IBEX.:E05TSI                                TUE 07/29/97 12:27 Page:62
         2 001571   000043 736000                    QLS     35
         2 001572   000003 772000                    QRL     3
         2 001573   200170 676100                    ERQ     VLP_TRMCTL+2,,AUTO
         2 001574   060000 376003                    ANQ     24576,DU
         2 001575   200170 656100                    ERSQ    VLP_TRMCTL+2,,AUTO
         2 001576   002275 710000 2                  TRA     s:7952

      340     7848    4         CASE(KEYINCROPT);

      341     7849    4           TRMCTL_TYPE(%TRMCTL_EDTCTL#) = %YES# ;

   7849  2 001577   100000 236003                    LDQ     32768,DU
         2 001600   200013 256100                    ORSQ    TRMCTL_TYPE,,AUTO

      342     7850    4           VLP_EDTCTL.KEYINCR#=TEMP_STOR;

   7850  2 001601   200010 720100                    LXL0    TEMP_STOR,,AUTO
         2 001602   200205 440100                    SXL0    VLP_EDTCTL+1,,AUTO
         2 001603   002275 710000 2                  TRA     s:7952

      343     7851    4         CASE(KEYTYPEOPT);

      344     7852    4           TRMCTL_TYPE(%TRMCTL_EDTCTL#) = %YES# ;

   7852  2 001604   100000 236003                    LDQ     32768,DU
         2 001605   200013 256100                    ORSQ    TRMCTL_TYPE,,AUTO

      345     7853    4           VLP_EDTCTL.KEYTYPE#=TEMP$->P$B.SUBLK$(0)->P$B.CODE ;

   7853  2 001606   100003 473500                    LDP3    3,,PR1
         2 001607   300000 236100                    LDQ     0,,PR3
         2 001610   000022 736000                    QLS     18
         2 001611   200204 552120                    STBQ    VLP_EDTCTL,'20'O,AUTO
         2 001612   002275 710000 2                  TRA     s:7952

      346     7854    4         CASE(ODISCARDOPT);

PL6.E3A0      #001=CXF$IBEX File=CXF$IBEX.:E05TSI                                TUE 07/29/97 12:27 Page:63
      347     7855    4           TRMCTL_TYPE(%TRMCTL_TRMCTL#) = %YES# ;

   7855  2 001613   400000 236003                    LDQ     -131072,DU
         2 001614   200013 256100                    ORSQ    TRMCTL_TYPE,,AUTO

      348     7856    4           VLP_TRMCTL.OUTPUTDISCARD# = BINBIT(TEMP$->P$B.SUBLK$(0)->P$B.CODE,1);

   7856  2 001615   100003 473500                    LDP3    3,,PR1
         2 001616   300000 236100                    LDQ     0,,PR3
         2 001617   777777 376007                    ANQ     -1,DL
         2 001620   000043 736000                    QLS     35
         2 001621   000020 772000                    QRL     16
         2 001622   200166 676100                    ERQ     VLP_TRMCTL,,AUTO
         2 001623   000003 376003                    ANQ     3,DU
         2 001624   200166 656100                    ERSQ    VLP_TRMCTL,,AUTO
         2 001625   002275 710000 2                  TRA     s:7952

      349     7857    4         CASE(RCRWRAPOPT);

      350     7858    4           TRMCTL_TYPE(%TRMCTL_EDTCTL#) = %YES# ;

   7858  2 001626   100000 236003                    LDQ     32768,DU
         2 001627   200013 256100                    ORSQ    TRMCTL_TYPE,,AUTO

      351     7859    4           VLP_EDTCTL.RCRWRAP# = BINBIT(TEMP$->P$B.SUBLK$(0)->P$B.CODE,1);

   7859  2 001630   100003 473500                    LDP3    3,,PR1
         2 001631   300000 236100                    LDQ     0,,PR3
         2 001632   777777 376007                    ANQ     -1,DL
         2 001633   000043 736000                    QLS     35
         2 001634   000003 772000                    QRL     3
         2 001635   200204 676100                    ERQ     VLP_EDTCTL,,AUTO
         2 001636   060000 376003                    ANQ     24576,DU
         2 001637   200204 656100                    ERSQ    VLP_EDTCTL,,AUTO
         2 001640   002275 710000 2                  TRA     s:7952

      352     7860    4         CASE(ONESPCEDTOPT);
PL6.E3A0      #001=CXF$IBEX File=CXF$IBEX.:E05TSI                                TUE 07/29/97 12:27 Page:64

      353     7861    4           TRMCTL_TYPE(%TRMCTL_EDTCTL#)=%YES# ;

   7861  2 001641   100000 236003                    LDQ     32768,DU
         2 001642   200013 256100                    ORSQ    TRMCTL_TYPE,,AUTO

      354     7862    4              VLP_EDTCTL.ONESPACEEDIT# = BINBIT(TEMP$->P$B.SUBLK$(0)->P$B.CODE,1);

   7862  2 001643   100003 473500                    LDP3    3,,PR1
         2 001644   300000 236100                    LDQ     0,,PR3
         2 001645   777777 376007                    ANQ     -1,DL
         2 001646   000043 736000                    QLS     35
         2 001647   000001 772000                    QRL     1
         2 001650   200206 676100                    ERQ     VLP_EDTCTL+2,,AUTO
         2 001651   300000 376003                    ANQ     98304,DU
         2 001652   200206 656100                    ERSQ    VLP_EDTCTL+2,,AUTO
         2 001653   002275 710000 2                  TRA     s:7952

      355     7863    4         CASE(SPCBFRPRTOPT);

      356     7864    4           TRMATTR_FLG = %YES# ;

   7864  2 001654   400000 236003                    LDQ     -131072,DU
         2 001655   200014 756100                    STQ     TRMATTR_FLG,,AUTO

      357     7865    4           VLP_TRMATTR.SPCBFRPRT# = BINBIT(TEMP$->P$B.SUBLK$(0)->P$B.CODE,1);

   7865  2 001656   100003 473500                    LDP3    3,,PR1
         2 001657   300000 236100                    LDQ     0,,PR3
         2 001660   777777 376007                    ANQ     -1,DL
         2 001661   000043 736000                    QLS     35
         2 001662   000023 772000                    QRL     19
         2 001663   200173 676100                    ERQ     VLP_TRMATTR+1,,AUTO
         2 001664   300000 376007                    ANQ     98304,DL
         2 001665   200173 656100                    ERSQ    VLP_TRMATTR+1,,AUTO
         2 001666   002275 710000 2                  TRA     s:7952

PL6.E3A0      #001=CXF$IBEX File=CXF$IBEX.:E05TSI                                TUE 07/29/97 12:27 Page:65
      358     7866    4         CASE(TEXTEDITOPT);

      359     7867    4           TRMCTL_TYPE(%TRMCTL_EDTCTL#)=%YES# ;

   7867  2 001667   100000 236003                    LDQ     32768,DU
         2 001670   200013 256100                    ORSQ    TRMCTL_TYPE,,AUTO

      360     7868    4              VLP_EDTCTL.TEXTEDIT# = BINBIT(TEMP$->P$B.SUBLK$(0)->P$B.CODE,1);

   7868  2 001671   100003 473500                    LDP3    3,,PR1
         2 001672   300000 236100                    LDQ     0,,PR3
         2 001673   777777 376007                    ANQ     -1,DL
         2 001674   000043 736000                    QLS     35
         2 001675   000005 772000                    QRL     5
         2 001676   200204 676100                    ERQ     VLP_EDTCTL,,AUTO
         2 001677   014000 376003                    ANQ     6144,DU
         2 001700   200204 656100                    ERSQ    VLP_EDTCTL,,AUTO
         2 001701   002275 710000 2                  TRA     s:7952

      361     7869    4         CASE(TRUOVRPRTOPT);

      362     7870    4           TRMATTR_FLG = %YES# ;

   7870  2 001702   400000 236003                    LDQ     -131072,DU
         2 001703   200014 756100                    STQ     TRMATTR_FLG,,AUTO

      363     7871    4           VLP_TRMATTR.TRUOVRPRT# = BINBIT(TEMP$->P$B.SUBLK$(0)->P$B.CODE,1);

   7871  2 001704   100003 473500                    LDP3    3,,PR1
         2 001705   300000 236100                    LDQ     0,,PR3
         2 001706   777777 376007                    ANQ     -1,DL
         2 001707   000043 736000                    QLS     35
         2 001710   000034 772000                    QRL     28
         2 001711   200172 676100                    ERQ     VLP_TRMATTR,,AUTO
         2 001712   000300 376007                    ANQ     192,DL
         2 001713   200172 656100                    ERSQ    VLP_TRMATTR,,AUTO
         2 001714   002275 710000 2                  TRA     s:7952
PL6.E3A0      #001=CXF$IBEX File=CXF$IBEX.:E05TSI                                TUE 07/29/97 12:27 Page:66

      364     7872    4         CASE(TTYTYPEOPT);

      365     7873    4           TRMATTR_FLG = %YES# ;

   7873  2 001715   400000 236003                    LDQ     -131072,DU
         2 001716   200014 756100                    STQ     TRMATTR_FLG,,AUTO

      366     7874    4           VLP_TRMATTR.TTYTYPE# = BINBIT(TEMP$->P$B.SUBLK$(0)->P$B.CODE,1);

   7874  2 001717   100003 473500                    LDP3    3,,PR1
         2 001720   300000 236100                    LDQ     0,,PR3
         2 001721   777777 376007                    ANQ     -1,DL
         2 001722   000043 736000                    QLS     35
         2 001723   000020 772000                    QRL     16
         2 001724   200173 676100                    ERQ     VLP_TRMATTR+1,,AUTO
         2 001725   000003 376003                    ANQ     3,DU
         2 001726   200173 656100                    ERSQ    VLP_TRMATTR+1,,AUTO
         2 001727   002275 710000 2                  TRA     s:7952

      367     7875    4         CASE(VSMARGINOPT);

      368     7876    4           TRMCTL_TYPE(%TRMCTL_EDTCTL#) = %YES# ;

   7876  2 001730   100000 236003                    LDQ     32768,DU
         2 001731   200013 256100                    ORSQ    TRMCTL_TYPE,,AUTO

      369     7877    4           VLP_EDTCTL.VSMARGIN#=TEMP_STOR;

   7877  2 001732   200010 236100                    LDQ     TEMP_STOR,,AUTO
         2 001733   000011 736000                    QLS     9
         2 001734   200204 552110                    STBQ    VLP_EDTCTL,'10'O,AUTO
         2 001735   002275 710000 2                  TRA     s:7952

      370     7878    4         CASE(VSSHIFTOPT);

      371     7879    4           TRMCTL_TYPE(%TRMCTL_EDTCTL#) = %YES# ;
PL6.E3A0      #001=CXF$IBEX File=CXF$IBEX.:E05TSI                                TUE 07/29/97 12:27 Page:67

   7879  2 001736   100000 236003                    LDQ     32768,DU
         2 001737   200013 256100                    ORSQ    TRMCTL_TYPE,,AUTO

      372     7880    4           VLP_EDTCTL.VSSHIFT#=TEMP_STOR;

   7880  2 001740   200010 236100                    LDQ     TEMP_STOR,,AUTO
         2 001741   200204 552104                    STBQ    VLP_EDTCTL,'04'O,AUTO
         2 001742   002275 710000 2                  TRA     s:7952

      373     7881    4         CASE(WIDTHOPT);

      374     7882    4           TRMATTR_FLG = %YES# ;

   7882  2 001743   400000 236003                    LDQ     -131072,DU
         2 001744   200014 756100                    STQ     TRMATTR_FLG,,AUTO

      375     7883    4           IF TEMP_STOR > 254

   7883  2 001745   200010 235100                    LDA     TEMP_STOR,,AUTO
         2 001746   000376 115007                    CMPA    254,DL
         2 001747   001754 604400 2                  TMOZ    s:7889

      376     7884    4              THEN
      377     7885    5                 DO;

      378     7886    5                    VLP_TRMATTR.EXTWID# = %YES#;

   7886  2 001750   010000 236003                    LDQ     4096,DU
         2 001751   200173 256100                    ORSQ    VLP_TRMATTR+1,,AUTO

      379     7887    5                    TEMP_STOR = TEMP_STOR - 254;

   7887  2 001752   000376 336007                    LCQ     254,DL
         2 001753   200010 056100                    ASQ     TEMP_STOR,,AUTO

      380     7888    5                 END;
PL6.E3A0      #001=CXF$IBEX File=CXF$IBEX.:E05TSI                                TUE 07/29/97 12:27 Page:68

      381     7889    4           VLP_TRMATTR.WIDTH#=TEMP_STOR;

   7889  2 001754   200010 236100                    LDQ     TEMP_STOR,,AUTO
         2 001755   200173 676100                    ERQ     VLP_TRMATTR+1,,AUTO
         2 001756   000377 376007                    ANQ     255,DL
         2 001757   200173 656100                    ERSQ    VLP_TRMATTR+1,,AUTO
         2 001760   002275 710000 2                  TRA     s:7952

      382     7890    4         CASE(WORDWRAPCLMOPT);

      383     7891    4           TRMCTL_TYPE(%TRMCTL_TRMCTL#) = %YES# ;

   7891  2 001761   400000 236003                    LDQ     -131072,DU
         2 001762   200013 256100                    ORSQ    TRMCTL_TYPE,,AUTO

      384     7892    4           VLP_TRMCTL.WORDWRAPCLM#=TEMP_STOR;

   7892  2 001763   200010 236100                    LDQ     TEMP_STOR,,AUTO
         2 001764   000011 736000                    QLS     9
         2 001765   200170 552110                    STBQ    VLP_TRMCTL+2,'10'O,AUTO
         2 001766   002275 710000 2                  TRA     s:7952

      385     7893    4         CASE(WORDWRAPCLMOPT_NO);

      386     7894    4           TRMCTL_TYPE(%TRMCTL_TRMCTL#) = %YES# ;

   7894  2 001767   400000 236003                    LDQ     -131072,DU
         2 001770   200013 256100                    ORSQ    TRMCTL_TYPE,,AUTO

      387     7895    4           VLP_TRMCTL.WORDWRAPCLM#=0 ;

   7895  2 001771   000000 236003                    LDQ     0,DU
         2 001772   200170 552110                    STBQ    VLP_TRMCTL+2,'10'O,AUTO
         2 001773   002275 710000 2                  TRA     s:7952

      388     7896    4         CASE(UCASEOPT);
PL6.E3A0      #001=CXF$IBEX File=CXF$IBEX.:E05TSI                                TUE 07/29/97 12:27 Page:69

      389     7897    4           TRMCTL_TYPE(%TRMCTL_TRMCTL#) = %YES# ;

   7897  2 001774   400000 236003                    LDQ     -131072,DU
         2 001775   200013 256100                    ORSQ    TRMCTL_TYPE,,AUTO

      390     7898    4           VLP_TRMCTL.UPPERCASE# = BINBIT(TEMP$->P$B.SUBLK$(0)->P$B.CODE,1);

   7898  2 001776   100003 473500                    LDP3    3,,PR1
         2 001777   300000 236100                    LDQ     0,,PR3
         2 002000   777777 376007                    ANQ     -1,DL
         2 002001   000043 736000                    QLS     35
         2 002002   000023 772000                    QRL     19
         2 002003   200166 676100                    ERQ     VLP_TRMCTL,,AUTO
         2 002004   300000 376007                    ANQ     98304,DL
         2 002005   200166 656100                    ERSQ    VLP_TRMCTL,,AUTO
         2 002006   002275 710000 2                  TRA     s:7952

      391     7899    4         CASE(LCASEOPT);

      392     7900    4           TRMCTL_TYPE(%TRMCTL_TRMCTL#) = %YES# ;

   7900  2 002007   400000 236003                    LDQ     -131072,DU
         2 002010   200013 256100                    ORSQ    TRMCTL_TYPE,,AUTO

      393     7901    4           VLP_TRMCTL.LOWERCASE# = BINBIT(TEMP$->P$B.SUBLK$(0)->P$B.CODE,1);

   7901  2 002011   100003 473500                    LDP3    3,,PR1
         2 002012   300000 236100                    LDQ     0,,PR3
         2 002013   777777 376007                    ANQ     -1,DL
         2 002014   000043 736000                    QLS     35
         2 002015   000025 772000                    QRL     21
         2 002016   200166 676100                    ERQ     VLP_TRMCTL,,AUTO
         2 002017   060000 376007                    ANQ     24576,DL
         2 002020   200166 656100                    ERSQ    VLP_TRMCTL,,AUTO
         2 002021   002275 710000 2                  TRA     s:7952

PL6.E3A0      #001=CXF$IBEX File=CXF$IBEX.:E05TSI                                TUE 07/29/97 12:27 Page:70
      394     7902    4         CASE(HDPTAPEOPT);

      395     7903    4           TRMCTL_TYPE(%TRMCTL_TRMCTL#) = %YES# ;

   7903  2 002022   400000 236003                    LDQ     -131072,DU
         2 002023   200013 256100                    ORSQ    TRMCTL_TYPE,,AUTO

      396     7904    4           VLP_TRMCTL.HALFDUXPAPERTAPE# = BINBIT(TEMP$->P$B.SUBLK$(0)->P$B.CODE,1);

   7904  2 002024   100003 473500                    LDP3    3,,PR1
         2 002025   300000 236100                    LDQ     0,,PR3
         2 002026   777777 376007                    ANQ     -1,DL
         2 002027   000043 736000                    QLS     35
         2 002030   000031 772000                    QRL     25
         2 002031   200166 676100                    ERQ     VLP_TRMCTL,,AUTO
         2 002032   003000 376007                    ANQ     1536,DL
         2 002033   200166 656100                    ERSQ    VLP_TRMCTL,,AUTO
         2 002034   002275 710000 2                  TRA     s:7952

      397     7905    4         CASE(FDPTAPEOPT);

      398     7906    4           TRMCTL_TYPE(%TRMCTL_TRMCTL#) = %YES# ;

   7906  2 002035   400000 236003                    LDQ     -131072,DU
         2 002036   200013 256100                    ORSQ    TRMCTL_TYPE,,AUTO

      399     7907    4           VLP_TRMCTL.FULLDUXPAPERTAPE# = BINBIT(TEMP$->P$B.SUBLK$(0)->P$B.CODE,1);

   7907  2 002037   100003 473500                    LDP3    3,,PR1
         2 002040   300000 236100                    LDQ     0,,PR3
         2 002041   777777 376007                    ANQ     -1,DL
         2 002042   000043 736000                    QLS     35
         2 002043   000027 772000                    QRL     23
         2 002044   200166 676100                    ERQ     VLP_TRMCTL,,AUTO
         2 002045   014000 376007                    ANQ     6144,DL
         2 002046   200166 656100                    ERSQ    VLP_TRMCTL,,AUTO
         2 002047   002275 710000 2                  TRA     s:7952
PL6.E3A0      #001=CXF$IBEX File=CXF$IBEX.:E05TSI                                TUE 07/29/97 12:27 Page:71

      400     7908    4         CASE(ACTONTRNOPT);

      401     7909    4           TRMCTL_TYPE(%TRMCTL_TRMCTL#) = %YES# ;

   7909  2 002050   400000 236003                    LDQ     -131072,DU
         2 002051   200013 256100                    ORSQ    TRMCTL_TYPE,,AUTO

      402     7910    4           VLP_TRMCTL.ACTONTRN# = BINBIT(TEMP$->P$B.SUBLK$(0)->P$B.CODE,1);

   7910  2 002052   100003 473500                    LDP3    3,,PR1
         2 002053   300000 236100                    LDQ     0,,PR3
         2 002054   777777 376007                    ANQ     -1,DL
         2 002055   000043 736000                    QLS     35
         2 002056   000034 772000                    QRL     28
         2 002057   200166 676100                    ERQ     VLP_TRMCTL,,AUTO
         2 002060   000300 376007                    ANQ     192,DL
         2 002061   200166 656100                    ERSQ    VLP_TRMCTL,,AUTO
         2 002062   002275 710000 2                  TRA     s:7952

      403     7911    4         CASE(APLLCNRMOPT);

      404     7912    4           TRMCTL_TYPE(%TRMCTL_TRMCTL#) = %YES# ;

   7912  2 002063   400000 236003                    LDQ     -131072,DU
         2 002064   200013 256100                    ORSQ    TRMCTL_TYPE,,AUTO

      405     7913    4           VLP_TRMCTL.APLLCNRM# = BINBIT(TEMP$->P$B.SUBLK$(0)->P$B.CODE,1);

   7913  2 002065   100003 473500                    LDP3    3,,PR1
         2 002066   300000 236100                    LDQ     0,,PR3
         2 002067   777777 376007                    ANQ     -1,DL
         2 002070   000043 736000                    QLS     35
         2 002071   000036 772000                    QRL     30
         2 002072   200166 676100                    ERQ     VLP_TRMCTL,,AUTO
         2 002073   000060 376007                    ANQ     48,DL
         2 002074   200166 656100                    ERSQ    VLP_TRMCTL,,AUTO
PL6.E3A0      #001=CXF$IBEX File=CXF$IBEX.:E05TSI                                TUE 07/29/97 12:27 Page:72
         2 002075   002275 710000 2                  TRA     s:7952

      406     7914    4         CASE(RETYPOVROPT);

      407     7915    4           TRMCTL_TYPE(%TRMCTL_TRMCTL#) = %YES# ;

   7915  2 002076   400000 236003                    LDQ     -131072,DU
         2 002077   200013 256100                    ORSQ    TRMCTL_TYPE,,AUTO

      408     7916    4           VLP_TRMCTL.RETYPOVR# = BINBIT(TEMP$->P$B.SUBLK$(0)->P$B.CODE,1);

   7916  2 002100   100003 473500                    LDP3    3,,PR1
         2 002101   300000 236100                    LDQ     0,,PR3
         2 002102   777777 376007                    ANQ     -1,DL
         2 002103   000043 736000                    QLS     35
         2 002104   000040 772000                    QRL     32
         2 002105   200166 676100                    ERQ     VLP_TRMCTL,,AUTO
         2 002106   000014 376007                    ANQ     12,DL
         2 002107   200166 656100                    ERSQ    VLP_TRMCTL,,AUTO
         2 002110   002275 710000 2                  TRA     s:7952

      409     7917    4         CASE(EDITOVROPT);

      410     7918    4           TRMCTL_TYPE(%TRMCTL_TRMCTL#) = %YES# ;

   7918  2 002111   400000 236003                    LDQ     -131072,DU
         2 002112   200013 256100                    ORSQ    TRMCTL_TYPE,,AUTO

      411     7919    4           VLP_TRMCTL.EDITOVR# = BINBIT(TEMP$->P$B.SUBLK$(0)->P$B.CODE,1);

   7919  2 002113   100003 473500                    LDP3    3,,PR1
         2 002114   300000 236100                    LDQ     0,,PR3
         2 002115   777777 376007                    ANQ     -1,DL
         2 002116   000043 736000                    QLS     35
         2 002117   000042 772000                    QRL     34
         2 002120   200166 676100                    ERQ     VLP_TRMCTL,,AUTO
         2 002121   000003 376007                    ANQ     3,DL
PL6.E3A0      #001=CXF$IBEX File=CXF$IBEX.:E05TSI                                TUE 07/29/97 12:27 Page:73
         2 002122   200166 656100                    ERSQ    VLP_TRMCTL,,AUTO
         2 002123   002275 710000 2                  TRA     s:7952

      412     7920    4         CASE(SCROLLOPT);

      413     7921    4           TRMCTL_TYPE(%TRMCTL_TRMCTL#) = %YES# ;

   7921  2 002124   400000 236003                    LDQ     -131072,DU
         2 002125   200013 256100                    ORSQ    TRMCTL_TYPE,,AUTO

      414     7922    4           VLP_TRMCTL.SCROLL# = BINBIT(TEMP$->P$B.SUBLK$(0)->P$B.CODE,1);

   7922  2 002126   100003 473500                    LDP3    3,,PR1
         2 002127   300000 236100                    LDQ     0,,PR3
         2 002130   777777 376007                    ANQ     -1,DL
         2 002131   000043 736000                    QLS     35
         2 002132   000001 772000                    QRL     1
         2 002133   200167 676100                    ERQ     VLP_TRMCTL+1,,AUTO
         2 002134   300000 376003                    ANQ     98304,DU
         2 002135   200167 656100                    ERSQ    VLP_TRMCTL+1,,AUTO
         2 002136   002275 710000 2                  TRA     s:7952

      415     7923    4         CASE(PAGEHALTOPT);

      416     7924    4           TRMCTL_TYPE(%TRMCTL_TRMCTL#) = %YES# ;

   7924  2 002137   400000 236003                    LDQ     -131072,DU
         2 002140   200013 256100                    ORSQ    TRMCTL_TYPE,,AUTO

      417     7925    4           VLP_TRMCTL.PAGEHALT# = BINBIT(TEMP$->P$B.SUBLK$(0)->P$B.CODE,1);

   7925  2 002141   100003 473500                    LDP3    3,,PR1
         2 002142   300000 236100                    LDQ     0,,PR3
         2 002143   777777 376007                    ANQ     -1,DL
         2 002144   000043 736000                    QLS     35
         2 002145   000003 772000                    QRL     3
         2 002146   200167 676100                    ERQ     VLP_TRMCTL+1,,AUTO
PL6.E3A0      #001=CXF$IBEX File=CXF$IBEX.:E05TSI                                TUE 07/29/97 12:27 Page:74
         2 002147   060000 376003                    ANQ     24576,DU
         2 002150   200167 656100                    ERSQ    VLP_TRMCTL+1,,AUTO
         2 002151   002275 710000 2                  TRA     s:7952

      418     7926    4         CASE(PRNTHALTOPT);

      419     7927    4           TRMCTL_TYPE(%TRMCTL_TRMCTL#) = %YES# ;

   7927  2 002152   400000 236003                    LDQ     -131072,DU
         2 002153   200013 256100                    ORSQ    TRMCTL_TYPE,,AUTO

      420     7928    4           VLP_TRMCTL.PRINTHALT# = BINBIT(TEMP$->P$B.SUBLK$(0)->P$B.CODE,1);

   7928  2 002154   100003 473500                    LDP3    3,,PR1
         2 002155   300000 236100                    LDQ     0,,PR3
         2 002156   777777 376007                    ANQ     -1,DL
         2 002157   000043 736000                    QLS     35
         2 002160   000005 772000                    QRL     5
         2 002161   200167 676100                    ERQ     VLP_TRMCTL+1,,AUTO
         2 002162   014000 376003                    ANQ     6144,DU
         2 002163   200167 656100                    ERSQ    VLP_TRMCTL+1,,AUTO
         2 002164   002275 710000 2                  TRA     s:7952

      421     7929    4         CASE(RELPAGEOPT);

      422     7930    4           TRMCTL_TYPE(%TRMCTL_TRMCTL#) = %YES# ;

   7930  2 002165   400000 236003                    LDQ     -131072,DU
         2 002166   200013 256100                    ORSQ    TRMCTL_TYPE,,AUTO

      423     7931    4           VLP_TRMCTL.RELPAGE# = BINBIT(TEMP$->P$B.SUBLK$(0)->P$B.CODE,1);

   7931  2 002167   100003 473500                    LDP3    3,,PR1
         2 002170   300000 236100                    LDQ     0,,PR3
         2 002171   777777 376007                    ANQ     -1,DL
         2 002172   000043 736000                    QLS     35
         2 002173   000007 772000                    QRL     7
PL6.E3A0      #001=CXF$IBEX File=CXF$IBEX.:E05TSI                                TUE 07/29/97 12:27 Page:75
         2 002174   200167 676100                    ERQ     VLP_TRMCTL+1,,AUTO
         2 002175   003000 376003                    ANQ     1536,DU
         2 002176   200167 656100                    ERSQ    VLP_TRMCTL+1,,AUTO
         2 002177   002275 710000 2                  TRA     s:7952

      424     7932    4         CASE(NOOPTMIZOPT);

      425     7933    4           TRMCTL_TYPE(%TRMCTL_TRMCTL#) = %YES# ;

   7933  2 002200   400000 236003                    LDQ     -131072,DU
         2 002201   200013 256100                    ORSQ    TRMCTL_TYPE,,AUTO

      426     7934    4           VLP_TRMCTL.NOOPTMIZ# = BINBIT(TEMP$->P$B.SUBLK$(0)->P$B.CODE,1);

   7934  2 002202   100003 473500                    LDP3    3,,PR1
         2 002203   300000 236100                    LDQ     0,,PR3
         2 002204   777777 376007                    ANQ     -1,DL
         2 002205   000043 736000                    QLS     35
         2 002206   000016 772000                    QRL     14
         2 002207   200167 676100                    ERQ     VLP_TRMCTL+1,,AUTO
         2 002210   000014 376003                    ANQ     12,DU
         2 002211   200167 656100                    ERSQ    VLP_TRMCTL+1,,AUTO
         2 002212   002275 710000 2                  TRA     s:7952

      427     7935    4         CASE(SIMPERFOPT);

      428     7936    4           TRMCTL_TYPE(%TRMCTL_TRMCTL#) = %YES# ;

   7936  2 002213   400000 236003                    LDQ     -131072,DU
         2 002214   200013 256100                    ORSQ    TRMCTL_TYPE,,AUTO

      429     7937    4           VLP_TRMCTL.SIMPERF# = BINBIT(TEMP$->P$B.SUBLK$(0)->P$B.CODE,1);

   7937  2 002215   100003 473500                    LDP3    3,,PR1
         2 002216   300000 236100                    LDQ     0,,PR3
         2 002217   777777 376007                    ANQ     -1,DL
         2 002220   000043 736000                    QLS     35
PL6.E3A0      #001=CXF$IBEX File=CXF$IBEX.:E05TSI                                TUE 07/29/97 12:27 Page:76
         2 002221   000012 772000                    QRL     10
         2 002222   200167 676100                    ERQ     VLP_TRMCTL+1,,AUTO
         2 002223   000300 376003                    ANQ     192,DU
         2 002224   200167 656100                    ERSQ    VLP_TRMCTL+1,,AUTO
         2 002225   002275 710000 2                  TRA     s:7952

      430     7938    4         CASE(SINPUTSZOPT);

      431     7939    4           TRMCTL_TYPE(%TRMCTL_TRMCTL#) = %YES# ;

   7939  2 002226   400000 236003                    LDQ     -131072,DU
         2 002227   200013 256100                    ORSQ    TRMCTL_TYPE,,AUTO

      432     7940    4           VLP_TRMCTL.SINPUTSZ#=TEMP_STOR;

   7940  2 002230   200010 236100                    LDQ     TEMP_STOR,,AUTO
         2 002231   000011 736000                    QLS     9
         2 002232   200167 676100                    ERQ     VLP_TRMCTL+1,,AUTO
         2 002233   377000 376007                    ANQ     130560,DL
         2 002234   200167 656100                    ERSQ    VLP_TRMCTL+1,,AUTO
         2 002235   002275 710000 2                  TRA     s:7952

      433     7941    4         CASE(TRUNCATEOPT);

      434     7942    4           TRMCTL_TYPE(%TRMCTL_TRMCTL#) = %YES# ;

   7942  2 002236   400000 236003                    LDQ     -131072,DU
         2 002237   200013 256100                    ORSQ    TRMCTL_TYPE,,AUTO

      435     7943    4           VLP_TRMCTL.TRUNCATE# = BINBIT(TEMP$->P$B.SUBLK$(0)->P$B.CODE,1);

   7943  2 002240   100003 473500                    LDP3    3,,PR1
         2 002241   300000 236100                    LDQ     0,,PR3
         2 002242   777777 376007                    ANQ     -1,DL
         2 002243   000043 736000                    QLS     35
         2 002244   000014 772000                    QRL     12
         2 002245   200167 676100                    ERQ     VLP_TRMCTL+1,,AUTO
PL6.E3A0      #001=CXF$IBEX File=CXF$IBEX.:E05TSI                                TUE 07/29/97 12:27 Page:77
         2 002246   000060 376003                    ANQ     48,DU
         2 002247   200167 656100                    ERSQ    VLP_TRMCTL+1,,AUTO
         2 002250   002275 710000 2                  TRA     s:7952

      436     7944    4         CASE(WRAPPAGEOPT);

      437     7945    4           TRMCTL_TYPE(%TRMCTL_TRMCTL#) = %YES# ;

   7945  2 002251   400000 236003                    LDQ     -131072,DU
         2 002252   200013 256100                    ORSQ    TRMCTL_TYPE,,AUTO

      438     7946    4           VLP_TRMCTL.WRAPPAGE# = BINBIT(TEMP$->P$B.SUBLK$(0)->P$B.CODE,1);

   7946  2 002253   100003 473500                    LDP3    3,,PR1
         2 002254   300000 236100                    LDQ     0,,PR3
         2 002255   777777 376007                    ANQ     -1,DL
         2 002256   000043 736000                    QLS     35
         2 002257   000020 772000                    QRL     16
         2 002260   200167 676100                    ERQ     VLP_TRMCTL+1,,AUTO
         2 002261   000003 376003                    ANQ     3,DU
         2 002262   200167 656100                    ERSQ    VLP_TRMCTL+1,,AUTO
         2 002263   002275 710000 2                  TRA     s:7952

      439     7947    4         CASE(FCNTBLOPT);

      440     7948    4           VLP_TRMATTR.FCNTBL# = TEMP$ -> P$B.SUBLK$(0) -> P$S.TEXT;

   7948  2 002264   100003 473500                    LDP3    3,,PR1
         2 002265   300004 236100                    LDQ     4,,PR3
         2 002266   000033 772000                    QRL     27
         2 002267   000000 620006                    EAX0    0,QL
         2 002270   040100 100540                    MLR     fill='040'O
         2 002271   300004 200010                    ADSC9   4,,PR3                   cn=1,n=*X0
         2 002272   200177 000010                    ADSC9   VLP_TRMATTR+5,,AUTO      cn=0,n=8

      441     7949    4           TRMATTR_FLG=%YES#;

PL6.E3A0      #001=CXF$IBEX File=CXF$IBEX.:E05TSI                                TUE 07/29/97 12:27 Page:78
   7949  2 002273   400000 236003                    LDQ     -131072,DU
         2 002274   200014 756100                    STQ     TRMATTR_FLG,,AUTO

      442     7950    4         END TERM20;

      443     7951    3         END ; /* Else Do */

      444     7952    2        I=I+1;

   7952  2 002275   200006 054100                    AOS     I,,AUTO

      445     7953    2     END TERM10;

   7953  2 002276   200005 471500                    LDP1    BLK$,,AUTO
         2 002277   100001 236100                    LDQ     1,,PR1
         2 002300   000022 772000                    QRL     18
         2 002301   200006 116100                    CMPQ    I,,AUTO
         2 002302   000175 605400 2                  TPNZ    s:7643

      446     7954    1     IF CPSL_PARAM.ERRCODE ~= %NO#

   7954  2 002303   200004 470500                    LDP0    @CPSL_PARAM,,AUTO
         2 002304   000002 235100                    LDA     2,,PR0
         2 002305   002370 601000 2                  TNZ     TERMINALRET

      447     7955    1         THEN
      448     7956    1             GOTO TERMINALRET ;
      449     7957    1     IF CPSL_PARAM.FLAGS.VERIFY_ONLY

   7957  2 002306   000001 234100                    SZN     1,,PR0
         2 002307   002502 604000 2                  TMI     TERM80

      450     7958    1         THEN
      451     7959    1             GOTO TERM80 ;
      452     7960    2     DO I = 0 TO 2 ;

   7960  2 002310   200006 450100                    STZ     I,,AUTO
PL6.E3A0      #001=CXF$IBEX File=CXF$IBEX.:E05TSI                                TUE 07/29/97 12:27 Page:79

      453     7961    2         IF TRMCTL_TYPE(I)

   7961  2 002311   200006 235100                    LDA     I,,AUTO
         2 002312   002314 605000 2                  TPL     s:7961+3
         2 002313   000044 035003                    ADLA    36,DU
         2 002314   000000 066505                    CMPB    filb='0'B
         2 002315   200013 000001                    BDSC    TRMCTL_TYPE,A,AUTO       by=0,bit=0,n=1
         2 002316   000002 000022 xsym               BDSC    B_VECTNIL+2              by=0,bit=0,n=18
         2 002317   002356 600000 2                  TZE     s:7978

      454     7962    2             THEN
      455     7963    3               DO ;

      456     7964    4                 DO CASE(I) ;

   7964  2 002320   200006 235100                    LDA     I,,AUTO
         2 002321   000003 115007                    CMPA    3,DL
         2 002322   002324 602005 2                  TNC     s:7964+4,AL
         2 002323   002350 710000 2                  TRA     s:7975
         2 002324   002327 710000 2                  TRA     s:7966
         2 002325   002343 710000 2                  TRA     s:7972
         2 002326   002335 710000 2                  TRA     s:7969

      457     7965    4                   CASE(%TRMCTL_TRMCTL#) ;

      458     7966    4                     FPT_TRMCTL.TRMCTL_ = VECTOR(VLP_TRMCTL) ;

   7966  2 002327   000005 235000 3                  LDA     5
         2 002330   200220 452500                    STP2    VLP_WINDOW+8,,AUTO
         2 002331   200220 236100                    LDQ     VLP_WINDOW+8,,AUTO
         2 002332   000166 036003                    ADLQ    118,DU
         2 002333   200152 757100                    STAQ    FPT_TRMCTL+4,,AUTO
         2 002334   002350 710000 2                  TRA     s:7975

      459     7967
      460     7968    4                   CASE(%TRMCTL_EDTCTL#) ;
PL6.E3A0      #001=CXF$IBEX File=CXF$IBEX.:E05TSI                                TUE 07/29/97 12:27 Page:80

      461     7969    4                     FPT_TRMCTL.TRMCTL_ = VECTOR(VLP_EDTCTL) ;

   7969  2 002335   000005 235000 3                  LDA     5
         2 002336   200220 452500                    STP2    VLP_WINDOW+8,,AUTO
         2 002337   200220 236100                    LDQ     VLP_WINDOW+8,,AUTO
         2 002340   000204 036003                    ADLQ    132,DU
         2 002341   200152 757100                    STAQ    FPT_TRMCTL+4,,AUTO
         2 002342   002350 710000 2                  TRA     s:7975

      462     7970
      463     7971    4                   CASE(%TRMCTL_WINDOW#) ;

      464     7972    4                     FPT_TRMCTL.TRMCTL_ = VECTOR(VLP_WINDOW) ;

   7972  2 002343   000006 235000 3                  LDA     6
         2 002344   200220 452500                    STP2    VLP_WINDOW+8,,AUTO
         2 002345   200220 236100                    LDQ     VLP_WINDOW+8,,AUTO
         2 002346   000210 036003                    ADLQ    136,DU
         2 002347   200152 757100                    STAQ    FPT_TRMCTL+4,,AUTO

      465     7973
      466     7974    4                 END ; /* Do Case */

      467     7975    3                 FPT_TRMCTL.V.VLPTYPE# = I ;

   7975  2 002350   200006 720100                    LXL0    I,,AUTO
         2 002351   200154 440100                    SXL0    FPT_TRMCTL+6,,AUTO

      468     7976    3                 CALL M$STRMCTL (FPT_TRMCTL) ALTRET(TERM50) ;

   7976  2 002352   200146 630500                    EPPR0   FPT_TRMCTL,,AUTO
         2 002353   560000 713400                    CLIMB   alt,+57344
         2 002354   401000 401760                    pmme    nvectors=3
         2 002355   002432 702000 2                  TSX2    TERM50

      469     7977    3               END ; /* Then Do */
PL6.E3A0      #001=CXF$IBEX File=CXF$IBEX.:E05TSI                                TUE 07/29/97 12:27 Page:81

      470     7978    2     END ;   /* Do I */

   7978  2 002356   200006 054100                    AOS     I,,AUTO
         2 002357   200006 235100                    LDA     I,,AUTO
         2 002360   000002 115007                    CMPA    2,DL
         2 002361   002311 604400 2                  TMOZ    s:7961

      471     7979
      472     7980    1     IF TRMATTR_FLG

   7980  2 002362   200014 234100                    SZN     TRMATTR_FLG,,AUTO
         2 002363   002370 605000 2                  TPL     TERMINALRET

      473     7981    1         THEN
      474     7982    1             CALL M$STRMATTR (FPT_TRMATTR) ALTRET(TERM50) ;

   7982  2 002364   200156 630500                    EPPR0   FPT_TRMATTR,,AUTO
         2 002365   560006 713400                    CLIMB   alt,+57350
         2 002366   401000 401760                    pmme    nvectors=3
         2 002367   002432 702000 2                  TSX2    TERM50

      475     7983
      476     7984    1   TERMINALRET:
      477     7985    1     IF DCBADDR(CPSL_PARAM.WORK_DCB#)->F$DCB.FCD#=%YES#

   7985  2 002370   000007 470400 3     TERMINALRET  LDP0    7
         2 002371   000000 471500                    LDP1    0,,PR0
         2 002372   200004 473500                    LDP3    @CPSL_PARAM,,AUTO
         2 002373   300000 720100                    LXL0    0,,PR3
         2 002374   100000 474510                    LDP4    0,X0,PR1
         2 002375   400031 236100                    LDQ     25,,PR4
         2 002376   020000 316007                    CANQ    8192,DL
         2 002377   002431 600000 2                  TZE     s:7999

      478     7986    1        THEN
      479     7987    2           DO;
PL6.E3A0      #001=CXF$IBEX File=CXF$IBEX.:E05TSI                                TUE 07/29/97 12:27 Page:82

      480     7988    2              FPT_CLOSE = CPSL_CFPT_CLOSE ;

   7988  2 002400   000100 100400                    MLR     fill='000'O
         2 002401   000000 000170 xsym               ADSC9   CPSL_CFPT_CLOSE          cn=0,n=120
         2 002402   200110 000170                    ADSC9   FPT_CLOSE,,AUTO          cn=0,n=120

      481     7989    2              FPT_CLOSE.V_ = VECTOR(FPT_CLOSE.V) ;

   7989  2 002403   000005 235000 3                  LDA     5
         2 002404   200220 452500                    STP2    VLP_WINDOW+8,,AUTO
         2 002405   200220 236100                    LDQ     VLP_WINDOW+8,,AUTO
         2 002406   000142 036003                    ADLQ    98,DU
         2 002407   200110 757100                    STAQ    FPT_CLOSE,,AUTO

      482     7990    2              FPT_CLOSE.V.DCB#=CPSL_PARAM.WORK_DCB#;

   7990  2 002410   300000 720100                    LXL0    0,,PR3
         2 002411   200142 740100                    STX0    FPT_CLOSE+26,,AUTO

      483     7991    2              FPT_CLOSE.V.DISP#=%SAVE#;

   7991  2 002412   000002 236007                    LDQ     2,DL
         2 002413   200142 552104                    STBQ    FPT_CLOSE+26,'04'O,AUTO

      484     7992    2              CALL M$CLOSE(FPT_CLOSE) WHENALTRETURN

   7992  2 002414   200110 630500                    EPPR0   FPT_CLOSE,,AUTO
         2 002415   450001 713400                    CLIMB   alt,close
         2 002416   406000 401760                    pmme    nvectors=13
         2 002417   002421 702000 2                  TSX2    s:7994
         2 002420   002431 710000 2                  TRA     s:7999

      485     7993    3                                         DO ;

      486     7994    3                                           CPSL_PARAM.ERRCODE = B$TCB.ALT$ -> B$EXCFR.
              7994                                                    ERR ;
PL6.E3A0      #001=CXF$IBEX File=CXF$IBEX.:E05TSI                                TUE 07/29/97 12:27 Page:83

   7994  2 002421   000000 470400 xsym               LDP0    B$TCB$
         2 002422   000000 471500                    LDP1    0,,PR0
         2 002423   100102 236100                    LDQ     66,,PR1
         2 002424   200004 473500                    LDP3    @CPSL_PARAM,,AUTO
         2 002425   300002 756100                    STQ     2,,PR3

      487     7995    3                                           CPSL_PARAM.FLAGS.REPORTED_TO_USER = '0'B ;

   7995  2 002426   000010 236000 3                  LDQ     8
         2 002427   300001 356100                    ANSQ    1,,PR3

      488     7996    3                                           GOTO TERM80 ;

   7996  2 002430   002502 710000 2                  TRA     TERM80

      489     7997    3                                         END ;
      490     7998    2           END;

      491     7999    1     RETURN;

   7999  2 002431   000000 702200 xent               TSX2  ! X66_ARET

   7992  2 002432                       TERM50       null
      492     8000    1   TERM50: ;
      493     8001    1     CPSL_PARAM.ERRCODE = B$TCB.ALT$ -> B$EXCFR.ERR;

   8001  2 002432   000000 470400 xsym               LDP0    B$TCB$
         2 002433   000000 471500                    LDP1    0,,PR0
         2 002434   100102 236100                    LDQ     66,,PR1
         2 002435   200004 473500                    LDP3    @CPSL_PARAM,,AUTO
         2 002436   300002 756100                    STQ     2,,PR3

      494     8002    1     CPSL_PARAM.FLAGS.REPORTED_TO_USER = '0'B ;

   8002  2 002437   000010 236000 3                  LDQ     8
         2 002440   300001 356100                    ANSQ    1,,PR3
PL6.E3A0      #001=CXF$IBEX File=CXF$IBEX.:E05TSI                                TUE 07/29/97 12:27 Page:84

   8002  2 002441                       TERM70       null
      495     8003    1   TERM70: ;
      496     8004    1     IF DCBADDR(CPSL_PARAM.WORK_DCB#)->F$DCB.FCD#=%YES#

   8004  2 002441   000007 470400 3                  LDP0    7
         2 002442   000000 471500                    LDP1    0,,PR0
         2 002443   200004 473500                    LDP3    @CPSL_PARAM,,AUTO
         2 002444   300000 720100                    LXL0    0,,PR3
         2 002445   100000 474510                    LDP4    0,X0,PR1
         2 002446   400031 236100                    LDQ     25,,PR4
         2 002447   020000 316007                    CANQ    8192,DL
         2 002450   002502 600000 2                  TZE     TERM80

      497     8005    1        THEN
      498     8006    2           DO;

      499     8007    2              FPT_CLOSE = CPSL_CFPT_CLOSE ;

   8007  2 002451   000100 100400                    MLR     fill='000'O
         2 002452   000000 000170 xsym               ADSC9   CPSL_CFPT_CLOSE          cn=0,n=120
         2 002453   200110 000170                    ADSC9   FPT_CLOSE,,AUTO          cn=0,n=120

      500     8008    2              FPT_CLOSE.V_ = VECTOR(FPT_CLOSE.V) ;

   8008  2 002454   000005 235000 3                  LDA     5
         2 002455   200220 452500                    STP2    VLP_WINDOW+8,,AUTO
         2 002456   200220 236100                    LDQ     VLP_WINDOW+8,,AUTO
         2 002457   000142 036003                    ADLQ    98,DU
         2 002460   200110 757100                    STAQ    FPT_CLOSE,,AUTO

      501     8009    2              FPT_CLOSE.V.DCB#=CPSL_PARAM.WORK_DCB#;

   8009  2 002461   300000 720100                    LXL0    0,,PR3
         2 002462   200142 740100                    STX0    FPT_CLOSE+26,,AUTO

      502     8010    2              FPT_CLOSE.V.DISP#=%SAVE#;
PL6.E3A0      #001=CXF$IBEX File=CXF$IBEX.:E05TSI                                TUE 07/29/97 12:27 Page:85

   8010  2 002463   000002 236007                    LDQ     2,DL
         2 002464   200142 552104                    STBQ    FPT_CLOSE+26,'04'O,AUTO

      503     8011    2              CALL M$CLOSE(FPT_CLOSE) WHENALTRETURN

   8011  2 002465   200110 630500                    EPPR0   FPT_CLOSE,,AUTO
         2 002466   450001 713400                    CLIMB   alt,close
         2 002467   406000 401760                    pmme    nvectors=13
         2 002470   002472 702000 2                  TSX2    s:8013
         2 002471   002502 710000 2                  TRA     TERM80

      504     8012    3                                         DO ;

      505     8013    3                                           CPSL_PARAM.ERRCODE = B$TCB.ALT$ -> B$EXCFR.
              8013                                                    ERR ;

   8013  2 002472   000000 470400 xsym               LDP0    B$TCB$
         2 002473   000000 471500                    LDP1    0,,PR0
         2 002474   100102 236100                    LDQ     66,,PR1
         2 002475   200004 473500                    LDP3    @CPSL_PARAM,,AUTO
         2 002476   300002 756100                    STQ     2,,PR3

      506     8014    3                                           CPSL_PARAM.FLAGS.REPORTED_TO_USER = '0'B ;

   8014  2 002477   000010 236000 3                  LDQ     8
         2 002500   300001 356100                    ANSQ    1,,PR3

      507     8015    3                                           GOTO TERM80 ;

   8015  2 002501   002502 710000 2                  TRA     TERM80

      508     8016    3                                         END ;
      509     8017    2           END;

   8011  2 002502                       TERM80       null
      510     8018    1   TERM80: ;
PL6.E3A0      #001=CXF$IBEX File=CXF$IBEX.:E05TSI                                TUE 07/29/97 12:27 Page:86
      511     8019    1     RETURN;

   8019  2 002502   000000 702200 xent               TSX2  ! X66_ARET
      512     8020    1   END   CXF$IBEX ;
      513     8021        %EOD ;

PL6.E3A0      #001=CXF$IBEX File=CXF$IBEX.:E05TSI                                TUE 07/29/97 12:27 Page:87
--  Include file information  --

   CX_DATA_R.:E05TOU  cannot be made into a system file and is referenced.
   XU_MACRO_C.:E05TOU  is referenced.
   CX_ISUBS_C.:E05TOU  is referenced.
   CX_PERR_C.:E05TOU  is referenced.
   CX_MACROS_M.:E05TOU  is referenced.
   CP_6_SUBS.:E05TOU  is referenced.
   CP_6.:E05TOU  cannot be made into a system file and is referenced.
   B_MACROS_C.:E05TOU  is referenced.
   B_ERRORS_C.:E05TOU  is referenced.
   B$JIT.:E05TOU  cannot be made into a system file and is referenced.
   B$JIT_C.:E05TOU  was found in the system file and is referenced.
   CP_6_C.:E05TOU  was found in the system file and is referenced.
      No diagnostics issued in procedure CXF$IBEX.
PL6.E3A0      #001=CXF$IBEX File=CXF$IBEX.:E05TSI                                TUE 07/29/97 12:27 Page:88

 **** Variables and constants ****

  ****  Auto variables  ****

  ****  Scalars and arrays  ****
OctLoc.c.b A Datatyp(siz) R M Lvl/name                 OctLoc.c.b A Datatyp(siz) R M Lvl/name

     4-0-0/w PTR         r     1 @CPSL_PARAM                3-0-0/w PTR         r     1 @GETCMD
     5-0-0/w PTR         r     1 BLK$                      *0-0-0/w STRC(180)   r     1 CPSL_PARAM
    11-0-0/w UBIN        r     1 DCB#                     110-0-0/d STRC(1080)  r     1 FPT_CLOSE
    16-0-0/d STRC(2088)  r     1 FPT_OPEN                 156-0-0/d STRC(288)   r     1 FPT_TRMATTR
   146-0-0/d STRC(288)   r     1 FPT_TRMCTL                *0-0-0/d STRC(1512)  r     1 GETCMD
     6-0-0/w SBIN        r     1 I                         12-0-0/c CHAR(2)     r     1 STRM
     7-0-0/w PTR         r     1 TEMP$                     10-0-0/w SBIN        r     1 TEMP_STOR
    14-0-0/b BIT         r     1 TRMATTR_FLG
    13-0-0/b BIT         r     1 TRMCTL_TYPE(0:2)
    15-0-0/b BIT         r     1 UCNN_FLG                 204-0-0/d STRC(144)   r     1 VLP_EDTCTL
   172-0-0/d STRC(360)   r     1 VLP_TRMATTR              166-0-0/d STRC(144)   r     1 VLP_TRMCTL
   210-0-0/d STRC(288)   r     1 VLP_WINDOW

  ****  SYMREF variables  ****

  ****  Scalars and arrays  ****
OctLoc.c.b A Datatyp(siz) R M Lvl/name                 OctLoc.c.b A Datatyp(siz) R M Lvl/name

     0-0-0/w PTR         r     1 B$JIT$                     0-0-0/w PTR         r     1 B$TCB$
     0-0-0/d STRC(1080)  r     1 CPSL_CFPT_CLOSE            0-0-0/d STRC(2088)  r     1 CPSL_CFPT_OPEN
     0-0-0/d STRC(288)   r     1 CPSL_CFPT_TRMATTR          0-0-0/d STRC(288)   r     1 CPSL_CFPT_TRMCTL
     0-0-0/d STRC(144)   r     1 CPSL_CVLP_EDTCTL           0-0-0/d STRC(360)   r     1 CPSL_CVLP_TRMATTR
     0-0-0/d STRC(144)   r     1 CPSL_CVLP_TRMCTL           0-0-0/d STRC(288)   r     1 CPSL_CVLP_WINDOW

  ****  BASED and DCB variables  ****

  ****  Scalars and arrays  ****
OctLoc.c.b A Datatyp(siz) R M Lvl/name                 OctLoc.c.b A Datatyp(siz) R M Lvl/name

     0-0-0/w STRC(2448)  r     1 B$EXCFR                    0-0-0/d STRC(8856)  r     1 B$JIT
PL6.E3A0      #001=CXF$IBEX File=CXF$IBEX.:E05TSI                                TUE 07/29/97 12:27 Page:89
     0-0-0/w STRC(144)   r     1 B$TCB                      0-0-0/d ASTR(3528)  r     1 F$DCB
     0-0-0/w STRC(144)   r     1 P$B                        0-0-0/w ASTR(153)   r     1 P$S


   Procedure CXF$IBEX requires 1347 words for executable code.
   Procedure CXF$IBEX requires 150 words of local(AUTO) storage.
PL6.E3A0      #001=CXF$IBEX File=CXF$IBEX.:E05TSI                                TUE 07/29/97 12:27 Page:90
          *** CROSS REFERENCE LISTING ***
**     DENOTES     IDENTIFIER DEFINITION
<<                 IDENTIFIER'S VALUE SET
>>                 IDENTIFIER'S VALUE USED
<>                 IDENTIFIER SET AND/OR USED
--                 IDENTIFIER REFERENCED
PL6.E3A0      #001=CXF$IBEX File=CXF$IBEX.:E05TSI                                TUE 07/29/97 12:27 Page:91
          MINI XREF LISTING

B$EXCFR.ASL
      7464**DCL      7464--REDEF
B$EXCFR.ERR
      7478**DCL      7994>>ASSIGN   8001>>ASSIGN   8013>>ASSIGN
B$EXCFR.ERR.CODE
      7478**DCL      7631>>IF
B$EXCFR.ERR.ERR#
      7478**DCL      7478--REDEF
B$EXCFR.EVID
      7477**DCL      7477--REDEF    7478--REDEF
B$EXCFR.IR
      7465**DCL      7465--REDEF
B$EXCFR.PREVSZ
      7464**DCL      7464--REDEF
B$EXCFR.SUBC
      7476**DCL      7476--REDEF    7477--REDEF    7477--REDEF
B$JIT.CPFLAGS1.SLEAZE
       125**DCL       125--REDEF
B$JIT.ERR.MID
        32**DCL        32--REDEF
B$JIT.JRESPEAK
       193**DCL       194--REDEF
B$JIT.MODE
        26**DCL      7596>>IF
B$JIT.ORIGINATOR_PORT.FROM_CR
       302**DCL       302--REDEF     303--REDEF
B$JIT.PNR
       206**DCL       206--REDEF
B$JIT.TSLINE
       300**DCL       301--REDEF    7596>>IF
B$JIT$
      6647**DCL        26--IMP-PTR  7596>>IF       7596>>IF
PL6.E3A0      #001=CXF$IBEX File=CXF$IBEX.:E05TSI                                TUE 07/29/97 12:27 Page:92
B$TCB.ALT$
      7482**DCL      7631>>IF       7994>>ASSIGN   8001>>ASSIGN   8013>>ASSIGN
B$TCB$
      6648**DCL      7482--IMP-PTR  7631>>IF       7994>>ASSIGN   8001>>ASSIGN   8013>>ASSIGN
BLK$
      7038**DCL      7490--IMP-PTR  7536--IMP-PTR  7592<<ASSIGN   7618>>IF       7622>>ASSIGN   7622>>ASSIGN
      7642>>DOWHILE  7643>>ASSIGN
CPSL_CAMR_REC.ACSVEH_
      5935**DCL      5936--REDEF
CPSL_CAMR_REC.ALTKEYS_
      5941**DCL      5942--REDEF    5942--REDEF
CPSL_CAMR_REC.HDR_
      5940**DCL      5941--REDEF
CPSL_CAMR_REC.TAB_
      5939**DCL      5940--REDEF
CPSL_CAMR_REC.UHL_
      5933**DCL      5934--REDEF    5934--REDEF
CPSL_CAMR_REC.V.FSN#
      5973**DCL      5973--REDEF    5973--REDEF
CPSL_CAMR_REC.WSN_
      5939**DCL      5939--REDEF
CPSL_CFPT_CLOSE
      6000**DCL      7988>>ASSIGN   8007>>ASSIGN
CPSL_CFPT_CLOSE.SN_
      6000**DCL      6000--REDEF
CPSL_CFPT_CLOSE.UTL_
      6001**DCL      6001--REDEF
CPSL_CFPT_CLOSE.V.EXPIRE#
      6015**DCL      6015--REDEF
CPSL_CFPT_CLOSE.V.TYPE#
      6013**DCL      6013--REDEF
CPSL_CFPT_CLOSE.V.XTNSIZE#
      6010**DCL      6010--REDEF    6012--REDEF
CPSL_CFPT_OPEN
      5824**DCL      7623>>ASSIGN
CPSL_CFPT_OPEN.ACSVEH_
PL6.E3A0      #001=CXF$IBEX File=CXF$IBEX.:E05TSI                                TUE 07/29/97 12:27 Page:93
      5826**DCL      5827--REDEF
CPSL_CFPT_OPEN.ALTKEYS_
      5832**DCL      5833--REDEF    5833--REDEF
CPSL_CFPT_OPEN.HDR_
      5831**DCL      5832--REDEF
CPSL_CFPT_OPEN.TAB_
      5830**DCL      5831--REDEF
CPSL_CFPT_OPEN.UHL_
      5824**DCL      5825--REDEF    5825--REDEF
CPSL_CFPT_OPEN.V.FSN#
      5864**DCL      5864--REDEF    5864--REDEF
CPSL_CFPT_OPEN.WSN_
      5830**DCL      5830--REDEF
CPSL_CFPT_READ.STATION_
      6039**DCL      6040--REDEF
CPSL_CFPT_READ.V.DVBYTE.REREAD#
      6051**DCL      6051--REDEF
CPSL_CFPT_READ.V.INDX#
      6049**DCL      6049--REDEF
CPSL_CFPT_TRMATTR
      6345**DCL      7605>>ASSIGN
CPSL_CFPT_TRMCTL
      6319**DCL      7602>>ASSIGN
CPSL_CFPT_WRITE.STATION_
      6077**DCL      6077--REDEF
CPSL_CFPT_WRITE.V.DVBYTE.VFC#
      6084**DCL      6084--REDEF
CPSL_CVLP_EDTCTL
      6536**DCL      7609>>ASSIGN
CPSL_CVLP_TRMATTR
      6497**DCL      7608>>ASSIGN
CPSL_CVLP_TRMCTL
      6457**DCL      7604>>ASSIGN
CPSL_CVLP_TRMCTL.BREAKCOUNT
      6468**DCL      6469--REDEF
CPSL_CVLP_WINDOW
PL6.E3A0      #001=CXF$IBEX File=CXF$IBEX.:E05TSI                                TUE 07/29/97 12:27 Page:94
      6564**DCL      7610>>ASSIGN
CPSL_CVLP_WINDOW.FWINDOW#
      6564**DCL      6564--REDEF    6565--REDEF
CPSL_PARAM
      7020**DCL        15--PROC     7588--ENTRY    7634<>CALL     7661<>CALL     7679<>CALL
CPSL_PARAM.ERRCODE
      7028**DCL      7635>>IF       7685>>IF       7954>>IF       7994<<ASSIGN   8001<<ASSIGN   8013<<ASSIGN
CPSL_PARAM.FLAGS.REPORTED_TO_USER
      7025**DCL      7995<<ASSIGN   8002<<ASSIGN   8014<<ASSIGN
CPSL_PARAM.FLAGS.VERIFY_ONLY
      7023**DCL      7615>>IF       7683>>IF       7957>>IF
CPSL_PARAM.WORK_DCB#
      7021**DCL      7625>>ASSIGN   7626>>ASSIGN   7985--IF       7990>>ASSIGN   8004--IF       8009>>ASSIGN
CXB$WINDOW_OPTS
      7050**DCL-ENT  7679--CALL
CXF$FIND_STREAM
      7049**DCL-ENT  7634--CALL
CXX$TERMINAL
      7048**DCL-ENT  7661--CALL
DCB#
      7042**DCL      7626<<ASSIGN   7634<>CALL     7639>>ASSIGN   7640>>ASSIGN
F$DCB.ACTPOS
      7236**DCL      7236--REDEF
F$DCB.ARS#
      7210**DCL      7210--REDEF
F$DCB.ATTR
      7229**DCL      7230--REDEF
F$DCB.BORROW
      7244**DCL      7244--REDEF    7244--REDEF    7244--REDEF
F$DCB.DCBNAME.L
      7258**DCL      7258--IMP-SIZ
F$DCB.EOMCHAR#
      7214**DCL      7214--REDEF
F$DCB.FCD#
      7223**DCL      7985>>IF       8004>>IF
F$DCB.FLDID
PL6.E3A0      #001=CXF$IBEX File=CXF$IBEX.:E05TSI                                TUE 07/29/97 12:27 Page:95
      7239**DCL      7239--REDEF
F$DCB.FORM$
      7233**DCL      7233--REDEF
F$DCB.FSECT
      7249**DCL      7249--REDEF
F$DCB.FSN#
      7226**DCL      7226--REDEF    7226--REDEF    7227--REDEF
F$DCB.HEADER$
      7232**DCL      7232--REDEF
F$DCB.IXTNSIZE#
      7230**DCL      7230--REDEF
F$DCB.LASTSTA$
      7219**DCL      7219--REDEF
F$DCB.LVL
      7245**DCL      7245--REDEF
F$DCB.NAME#.C
      7220**DCL      7220--REDEF
F$DCB.NOEOF
      7242**DCL      7242--REDEF
F$DCB.NRECS#
      7231**DCL      7231--REDEF
F$DCB.NRECX
      7250**DCL      7250--REDEF
F$DCB.OHDR
      7242**DCL      7242--REDEF
F$DCB.ORG#
      7225**DCL      7225--REDEF
F$DCB.PRECNO
      7248**DCL      7248--REDEF
F$DCB.RCSZ
      7254**DCL      7254--REDEF
F$DCB.RES#
      7221**DCL      7221--REDEF
F$DCB.SETX
      7233**DCL      7233--REDEF
F$DCB.TAB$
PL6.E3A0      #001=CXF$IBEX File=CXF$IBEX.:E05TSI                                TUE 07/29/97 12:27 Page:96
      7233**DCL      7233--REDEF
F$DCB.TDA
      7247**DCL      7248--REDEF
F$DCB.WSN#
      7221**DCL      7221--REDEF
FPT_CLOSE
      7184**DCL      7988<<ASSIGN   7992<>CALL     8007<<ASSIGN   8011<>CALL
FPT_CLOSE.SN_
      7184**DCL      7184--REDEF
FPT_CLOSE.UTL_
      7185**DCL      7185--REDEF
FPT_CLOSE.V
      7189**DCL      7989--ASSIGN   8008--ASSIGN
FPT_CLOSE.V.DCB#
      7190**DCL      7990<<ASSIGN   8009<<ASSIGN
FPT_CLOSE.V.DISP#
      7193**DCL      7991<<ASSIGN   8010<<ASSIGN
FPT_CLOSE.V.EXPIRE#
      7199**DCL      7199--REDEF
FPT_CLOSE.V.TYPE#
      7197**DCL      7197--REDEF
FPT_CLOSE.V.XTNSIZE#
      7194**DCL      7194--REDEF    7196--REDEF
FPT_CLOSE.V_
      7184**DCL      7989<<ASSIGN   8008<<ASSIGN
FPT_OPEN
      7117**DCL      7623<<ASSIGN   7629<>CALL
FPT_OPEN.ACSVEH_
      7119**DCL      7120--REDEF
FPT_OPEN.ALTKEYS_
      7125**DCL      7126--REDEF    7126--REDEF
FPT_OPEN.HDR_
      7124**DCL      7125--REDEF
FPT_OPEN.TAB_
      7123**DCL      7124--REDEF
FPT_OPEN.UHL_
PL6.E3A0      #001=CXF$IBEX File=CXF$IBEX.:E05TSI                                TUE 07/29/97 12:27 Page:97
      7117**DCL      7118--REDEF    7118--REDEF
FPT_OPEN.V
      7126**DCL      7624--ASSIGN
FPT_OPEN.V.DCB#
      7126**DCL      7625<<ASSIGN
FPT_OPEN.V.FSN#
      7157**DCL      7157--REDEF    7157--REDEF
FPT_OPEN.V.ORG#
      7137**DCL      7628<<ASSIGN
FPT_OPEN.V.RES#
      7141**DCL      7627<<CALLBLT
FPT_OPEN.V_
      7117**DCL      7624<<ASSIGN
FPT_OPEN.WSN_
      7123**DCL      7123--REDEF
FPT_TRMATTR
      7302**DCL      7605<<ASSIGN   7982<>CALL
FPT_TRMATTR.TRMATTR_
      7308**DCL      7607<<ASSIGN
FPT_TRMATTR.V
      7310**DCL      7606--ASSIGN
FPT_TRMATTR.V.DCB#
      7310**DCL      7640<<ASSIGN
FPT_TRMATTR.V_
      7304**DCL      7606<<ASSIGN
FPT_TRMCTL
      7276**DCL      7602<<ASSIGN   7976<>CALL
FPT_TRMCTL.TRMCTL_
      7282**DCL      7966<<ASSIGN   7969<<ASSIGN   7972<<ASSIGN
FPT_TRMCTL.V
      7284**DCL      7603--ASSIGN
FPT_TRMCTL.V.DCB#
      7284**DCL      7639<<ASSIGN
FPT_TRMCTL.V.VLPTYPE#
      7284**DCL      7975<<ASSIGN
FPT_TRMCTL.V_
PL6.E3A0      #001=CXF$IBEX File=CXF$IBEX.:E05TSI                                TUE 07/29/97 12:27 Page:98
      7278**DCL      7603<<ASSIGN
GETCMD
      6694**DCL        15--PROC     7588--ENTRY    7661<>CALL     7679<>CALL
GETCMD.OUT$
      6699**DCL      6705--REDEF    7592>>ASSIGN
I
      7039**DCL      7614<<ASSIGN   7642>>DOWHILE  7643>>ASSIGN   7952<<ASSIGN   7952>>ASSIGN   7960<<DOINDEX
      7961>>IF       7964>>DOCASE   7975>>ASSIGN
M$CLOSE
      1554**DCL-ENT  7992--CALL     8011--CALL
M$OPEN
      1554**DCL-ENT  7629--CALL
M$STRMATTR
      1580**DCL-ENT  7982--CALL
M$STRMCTL
      1578**DCL-ENT  7976--CALL
P$B
      7490**DCL      7661<>CALL
P$B.CODE
      7498**DCL      7618>>IF       7644>>DOCASE   7691>>DOCASE   7694>>ASSIGN   7697>>ASSIGN   7700>>ASSIGN
      7703>>ASSIGN   7709>>ASSIGN   7712>>ASSIGN   7718>>ASSIGN   7721>>ASSIGN   7724>>ASSIGN   7727>>ASSIGN
      7730>>ASSIGN   7733>>ASSIGN   7736>>ASSIGN   7739>>ASSIGN   7742>>ASSIGN   7745>>ASSIGN   7751>>ASSIGN
      7754>>ASSIGN   7757>>ASSIGN   7760>>ASSIGN   7772>>ASSIGN   7775>>ASSIGN   7778>>ASSIGN   7781>>ASSIGN
      7784>>ASSIGN   7787>>ASSIGN   7790>>ASSIGN   7793>>ASSIGN   7796>>ASSIGN   7799>>ASSIGN   7805>>ASSIGN
      7811>>ASSIGN   7814>>ASSIGN   7817>>ASSIGN   7820>>ASSIGN   7823>>ASSIGN   7826>>ASSIGN   7829>>ASSIGN
      7832>>ASSIGN   7835>>ASSIGN   7838>>ASSIGN   7841>>ASSIGN   7844>>ASSIGN   7847>>ASSIGN   7853>>ASSIGN
      7856>>ASSIGN   7859>>ASSIGN   7862>>ASSIGN   7865>>ASSIGN   7868>>ASSIGN   7871>>ASSIGN   7874>>ASSIGN
      7898>>ASSIGN   7901>>ASSIGN   7904>>ASSIGN   7907>>ASSIGN   7910>>ASSIGN   7913>>ASSIGN   7916>>ASSIGN
      7919>>ASSIGN   7922>>ASSIGN   7925>>ASSIGN   7928>>ASSIGN   7931>>ASSIGN   7934>>ASSIGN   7937>>ASSIGN
      7943>>ASSIGN   7946>>ASSIGN
P$B.NSUBLKS
      7502**DCL      7642>>DOWHILE
P$B.SUBLK$
      7523**DCL      7618>>IF       7622>>ASSIGN   7622>>ASSIGN   7622>>ASSIGN   7622>>ASSIGN   7643>>ASSIGN
      7694>>ASSIGN   7697>>ASSIGN   7700>>ASSIGN   7703>>ASSIGN   7709>>ASSIGN   7712>>ASSIGN   7715>>ASSIGN
      7715>>ASSIGN   7718>>ASSIGN   7721>>ASSIGN   7724>>ASSIGN   7727>>ASSIGN   7730>>ASSIGN   7733>>ASSIGN
PL6.E3A0      #001=CXF$IBEX File=CXF$IBEX.:E05TSI                                TUE 07/29/97 12:27 Page:99
      7736>>ASSIGN   7739>>ASSIGN   7742>>ASSIGN   7745>>ASSIGN   7751>>ASSIGN   7754>>ASSIGN   7757>>ASSIGN
      7760>>ASSIGN   7772>>ASSIGN   7775>>ASSIGN   7778>>ASSIGN   7781>>ASSIGN   7784>>ASSIGN   7787>>ASSIGN
      7790>>ASSIGN   7793>>ASSIGN   7796>>ASSIGN   7799>>ASSIGN   7805>>ASSIGN   7811>>ASSIGN   7814>>ASSIGN
      7817>>ASSIGN   7820>>ASSIGN   7823>>ASSIGN   7826>>ASSIGN   7829>>ASSIGN   7832>>ASSIGN   7835>>ASSIGN
      7838>>ASSIGN   7841>>ASSIGN   7844>>ASSIGN   7847>>ASSIGN   7853>>ASSIGN   7856>>ASSIGN   7859>>ASSIGN
      7862>>ASSIGN   7865>>ASSIGN   7868>>ASSIGN   7871>>ASSIGN   7874>>ASSIGN   7898>>ASSIGN   7901>>ASSIGN
      7904>>ASSIGN   7907>>ASSIGN   7910>>ASSIGN   7913>>ASSIGN   7916>>ASSIGN   7919>>ASSIGN   7922>>ASSIGN
      7925>>ASSIGN   7928>>ASSIGN   7931>>ASSIGN   7934>>ASSIGN   7937>>ASSIGN   7943>>ASSIGN   7946>>ASSIGN
      7948>>ASSIGN   7948>>ASSIGN
P$S.COUNT
      7559**DCL      7562--IMP-SIZ  7622>>ASSIGN   7715>>ASSIGN   7948>>ASSIGN
P$S.TEXT
      7562**DCL      7622>>ASSIGN   7715>>ASSIGN   7948>>ASSIGN
STRM
      7043**DCL      7622<<ASSIGN   7627>>CALLBLT  7634<>CALL
TEMP$
      7040**DCL      7643<<ASSIGN   7644>>DOCASE   7661>>CALL     7679<>CALL     7691>>DOCASE   7694>>ASSIGN
      7697>>ASSIGN   7700>>ASSIGN   7703>>ASSIGN   7709>>ASSIGN   7712>>ASSIGN   7715>>ASSIGN   7715>>ASSIGN
      7718>>ASSIGN   7721>>ASSIGN   7724>>ASSIGN   7727>>ASSIGN   7730>>ASSIGN   7733>>ASSIGN   7736>>ASSIGN
      7739>>ASSIGN   7742>>ASSIGN   7745>>ASSIGN   7751>>ASSIGN   7754>>ASSIGN   7757>>ASSIGN   7760>>ASSIGN
      7772>>ASSIGN   7775>>ASSIGN   7778>>ASSIGN   7781>>ASSIGN   7784>>ASSIGN   7787>>ASSIGN   7790>>ASSIGN
      7793>>ASSIGN   7796>>ASSIGN   7799>>ASSIGN   7805>>ASSIGN   7811>>ASSIGN   7814>>ASSIGN   7817>>ASSIGN
      7820>>ASSIGN   7823>>ASSIGN   7826>>ASSIGN   7829>>ASSIGN   7832>>ASSIGN   7835>>ASSIGN   7838>>ASSIGN
      7841>>ASSIGN   7844>>ASSIGN   7847>>ASSIGN   7853>>ASSIGN   7856>>ASSIGN   7859>>ASSIGN   7862>>ASSIGN
      7865>>ASSIGN   7868>>ASSIGN   7871>>ASSIGN   7874>>ASSIGN   7898>>ASSIGN   7901>>ASSIGN   7904>>ASSIGN
      7907>>ASSIGN   7910>>ASSIGN   7913>>ASSIGN   7916>>ASSIGN   7919>>ASSIGN   7922>>ASSIGN   7925>>ASSIGN
      7928>>ASSIGN   7931>>ASSIGN   7934>>ASSIGN   7937>>ASSIGN   7943>>ASSIGN   7946>>ASSIGN   7948>>ASSIGN
      7948>>ASSIGN
TEMP_STOR
      7041**DCL      7661<>CALL     7706>>ASSIGN   7748>>ASSIGN   7763>>ASSIGN   7766>>ASSIGN   7769>>ASSIGN
      7802>>ASSIGN   7808>>ASSIGN   7850>>ASSIGN   7877>>ASSIGN   7880>>ASSIGN   7883>>IF       7887<<ASSIGN
      7887>>ASSIGN   7889>>ASSIGN   7892>>ASSIGN   7940>>ASSIGN
TERM10
      7642**LABEL    7617--GOTO
TERM50
      7992**LABEL    7633--GOTO     7976--CALLALT  7982--CALLALT
PL6.E3A0      #001=CXF$IBEX File=CXF$IBEX.:E05TSI                                TUE 07/29/97 12:27 Page:100
TERM70
      8002**LABEL    7637--GOTO
TERM80
      8011**LABEL    7687--GOTO     7959--GOTO     7996--GOTO     8015--GOTO
TERMINALRET
      7985**LABEL    7956--GOTO
TRMATTR_FLG
      7045**DCL      7612<<ASSIGN   7693<<ASSIGN   7702<<ASSIGN   7708<<ASSIGN   7711<<ASSIGN   7714<<ASSIGN
      7717<<ASSIGN   7720<<ASSIGN   7726<<ASSIGN   7729<<ASSIGN   7732<<ASSIGN   7735<<ASSIGN   7738<<ASSIGN
      7741<<ASSIGN   7744<<ASSIGN   7747<<ASSIGN   7756<<ASSIGN   7759<<ASSIGN   7762<<ASSIGN   7789<<ASSIGN
      7792<<ASSIGN   7795<<ASSIGN   7798<<ASSIGN   7801<<ASSIGN   7804<<ASSIGN   7807<<ASSIGN   7816<<ASSIGN
      7819<<ASSIGN   7822<<ASSIGN   7825<<ASSIGN   7831<<ASSIGN   7834<<ASSIGN   7864<<ASSIGN   7870<<ASSIGN
      7873<<ASSIGN   7882<<ASSIGN   7949<<ASSIGN   7980>>IF
TRMCTL_TYPE
      7044**DCL      7611<<ASSIGN   7680<<ASSIGN   7696<<ASSIGN   7699<<ASSIGN   7705<<ASSIGN   7723<<ASSIGN
      7750<<ASSIGN   7753<<ASSIGN   7765<<ASSIGN   7768<<ASSIGN   7771<<ASSIGN   7774<<ASSIGN   7777<<ASSIGN
      7780<<ASSIGN   7783<<ASSIGN   7786<<ASSIGN   7810<<ASSIGN   7813<<ASSIGN   7828<<ASSIGN   7837<<ASSIGN
      7840<<ASSIGN   7843<<ASSIGN   7846<<ASSIGN   7849<<ASSIGN   7852<<ASSIGN   7855<<ASSIGN   7858<<ASSIGN
      7861<<ASSIGN   7867<<ASSIGN   7876<<ASSIGN   7879<<ASSIGN   7891<<ASSIGN   7894<<ASSIGN   7897<<ASSIGN
      7900<<ASSIGN   7903<<ASSIGN   7906<<ASSIGN   7909<<ASSIGN   7912<<ASSIGN   7915<<ASSIGN   7918<<ASSIGN
      7921<<ASSIGN   7924<<ASSIGN   7927<<ASSIGN   7930<<ASSIGN   7933<<ASSIGN   7936<<ASSIGN   7939<<ASSIGN
      7942<<ASSIGN   7945<<ASSIGN   7961>>IF
UCNN_FLG
      7046**DCL      7613<<ASSIGN   7621<<ASSIGN
VLP_EDTCTL
      7408**DCL      7609<<ASSIGN   7969--ASSIGN
VLP_EDTCTL.EASYAPPEND#
      7409**DCL      7751<<ASSIGN
VLP_EDTCTL.HSALL#
      7408**DCL      7841<<ASSIGN
VLP_EDTCTL.KEYINCR#
      7411**DCL      7850<<ASSIGN
VLP_EDTCTL.KEYTYPE#
      7409**DCL      7853<<ASSIGN
VLP_EDTCTL.ONESPACEEDIT#
      7412**DCL      7862<<ASSIGN
PL6.E3A0      #001=CXF$IBEX File=CXF$IBEX.:E05TSI                                TUE 07/29/97 12:27 Page:101
VLP_EDTCTL.RCRWRAP#
      7408**DCL      7859<<ASSIGN
VLP_EDTCTL.TEXTEDIT#
      7409**DCL      7868<<ASSIGN
VLP_EDTCTL.VSMARGIN#
      7410**DCL      7877<<ASSIGN
VLP_EDTCTL.VSSHIFT#
      7411**DCL      7880<<ASSIGN
VLP_TRMATTR
      7369**DCL      7607--ASSIGN   7608<<ASSIGN
VLP_TRMATTR.ATRSCRNPOS#
      7380**DCL      7694<<ASSIGN
VLP_TRMATTR.AUTONL#
      7372**DCL      7703<<ASSIGN
VLP_TRMATTR.BIN#
      7375**DCL      7709<<ASSIGN
VLP_TRMATTR.BLANKERASES#
      7373**DCL      7712<<ASSIGN
VLP_TRMATTR.CHARSETNAME#
      7385**DCL      7715<<ASSIGN
VLP_TRMATTR.CRISNL#
      7372**DCL      7721<<ASSIGN
VLP_TRMATTR.CURSORUP#
      7370**DCL      7727<<ASSIGN
VLP_TRMATTR.DCHMOVFLD#
      7381**DCL      7730<<ASSIGN
VLP_TRMATTR.DEVICEBS#
      7371**DCL      7733<<ASSIGN
VLP_TRMATTR.DEVICECR#
      7370**DCL      7736<<ASSIGN
VLP_TRMATTR.DEVICELF#
      7371**DCL      7739<<ASSIGN
VLP_TRMATTR.DEVPOSOPTS#
      7374**DCL      7742<<ASSIGN
VLP_TRMATTR.DEVSCROLL#
      7370**DCL      7745<<ASSIGN
PL6.E3A0      #001=CXF$IBEX File=CXF$IBEX.:E05TSI                                TUE 07/29/97 12:27 Page:102
VLP_TRMATTR.DSPHEIGHT#
      7386**DCL      7748<<ASSIGN
VLP_TRMATTR.DVCFLWCTRALG#
      7384**DCL      7718<<ASSIGN
VLP_TRMATTR.EXTWID#
      7377**DCL      7886<<ASSIGN
VLP_TRMATTR.FCNTBL#
      7385**DCL      7948<<ASSIGN
VLP_TRMATTR.FF_FLUSH#
      7383**DCL      7757<<ASSIGN
VLP_TRMATTR.FF_INCCR#
      7387**DCL      7760<<ASSIGN
VLP_TRMATTR.HEIGHT#
      7382**DCL      7763<<ASSIGN
VLP_TRMATTR.LFISNL#
      7373**DCL      7790<<ASSIGN
VLP_TRMATTR.LIMBOCLM#
      7376**DCL      7793<<ASSIGN
VLP_TRMATTR.LOCALECHO#
      7376**DCL      7796<<ASSIGN
VLP_TRMATTR.LOWERCASEPRINTS#
      7375**DCL      7799<<ASSIGN
VLP_TRMATTR.MAXATRS#
      7386**DCL      7802<<ASSIGN
VLP_TRMATTR.MICROFPL#
      7384**DCL      7805<<ASSIGN
VLP_TRMATTR.MINREC#
      7382**DCL      7808<<ASSIGN
VLP_TRMATTR.NO_FLDTRM#
      7380**DCL      7817<<ASSIGN
VLP_TRMATTR.OPDTAB#
      7369**DCL      7820<<ASSIGN
VLP_TRMATTR.PARITY#
      7377**DCL      7823<<ASSIGN
VLP_TRMATTR.PRINTTYPE#
      7378**DCL      7826<<ASSIGN
PL6.E3A0      #001=CXF$IBEX File=CXF$IBEX.:E05TSI                                TUE 07/29/97 12:27 Page:103
VLP_TRMATTR.PROGDTAB#
      7369**DCL      7832<<ASSIGN
VLP_TRMATTR.SPCBFRPRT#
      7379**DCL      7865<<ASSIGN
VLP_TRMATTR.SPEED#
      7383**DCL      7835<<ASSIGN
VLP_TRMATTR.TRUOVRPRT#
      7374**DCL      7871<<ASSIGN
VLP_TRMATTR.TTYTYPE#
      7379**DCL      7874<<ASSIGN
VLP_TRMATTR.WIDTH#
      7381**DCL      7889<<ASSIGN
VLP_TRMCTL
      7329**DCL      7604<<ASSIGN   7966--ASSIGN
VLP_TRMCTL.ACTONTRN#
      7335**DCL      7910<<ASSIGN
VLP_TRMCTL.ADJTOPLFT#
      7349**DCL      7697<<ASSIGN
VLP_TRMCTL.APLLCNRM#
      7335**DCL      7913<<ASSIGN
VLP_TRMCTL.AUTOCURSOR#
      7348**DCL      7700<<ASSIGN
VLP_TRMCTL.AUTOTABCLM#
      7345**DCL      7706<<ASSIGN
VLP_TRMCTL.BREAKCOUNT
      7340**DCL      7341--REDEF
VLP_TRMCTL.CURSORREAD#
      7347**DCL      7724<<ASSIGN
VLP_TRMCTL.DISPINPUT#
      7331**DCL      7784<<ASSIGN
VLP_TRMCTL.EDITOVR#
      7336**DCL      7919<<ASSIGN
VLP_TRMCTL.ENBENTEXTSRDCHR#
      7343**DCL      7754<<ASSIGN
VLP_TRMCTL.FULLDUXPAPERTAPE#
      7333**DCL      7907<<ASSIGN
PL6.E3A0      #001=CXF$IBEX File=CXF$IBEX.:E05TSI                                TUE 07/29/97 12:27 Page:104
VLP_TRMCTL.HALFDUXPAPERTAPE#
      7334**DCL      7904<<ASSIGN
VLP_TRMCTL.HSCROLL#
      7341**DCL      7844<<ASSIGN
VLP_TRMCTL.HSMARGIN#
      7346**DCL      7766<<ASSIGN
VLP_TRMCTL.HSSHIFT#
      7346**DCL      7769<<ASSIGN
VLP_TRMCTL.INSERTMODE#
      7342**DCL      7847<<ASSIGN
VLP_TRMCTL.KEEPTYPAHD#
      7348**DCL      7787<<ASSIGN
VLP_TRMCTL.LOWERCASE#
      7333**DCL      7901<<ASSIGN
VLP_TRMCTL.MSGHALT#
      7342**DCL      7811<<ASSIGN
VLP_TRMCTL.MSGLINE#
      7343**DCL      7814<<ASSIGN
VLP_TRMCTL.NOOPTMIZ#
      7339**DCL      7934<<ASSIGN
VLP_TRMCTL.OUTPUTDISCARD#
      7332**DCL      7856<<ASSIGN
VLP_TRMCTL.PAGEHALT#
      7337**DCL      7925<<ASSIGN
VLP_TRMCTL.PARITYCHECK#
      7331**DCL      7838<<ASSIGN
VLP_TRMCTL.PARKCURSOR#
      7347**DCL      7829<<ASSIGN
VLP_TRMCTL.PRINTHALT#
      7337**DCL      7928<<ASSIGN
VLP_TRMCTL.RELPAGE#
      7338**DCL      7931<<ASSIGN
VLP_TRMCTL.RETYPOVR#
      7335**DCL      7916<<ASSIGN
VLP_TRMCTL.SCROLL#
      7336**DCL      7922<<ASSIGN
PL6.E3A0      #001=CXF$IBEX File=CXF$IBEX.:E05TSI                                TUE 07/29/97 12:27 Page:105
VLP_TRMCTL.SENDBKSPACE#
      7330**DCL      7781<<ASSIGN
VLP_TRMCTL.SIMPERF#
      7338**DCL      7937<<ASSIGN
VLP_TRMCTL.SINPUTSZ#
      7340**DCL      7940<<ASSIGN
VLP_TRMCTL.SPACEINSERT#
      7330**DCL      7778<<ASSIGN
VLP_TRMCTL.TABRELATIVE#
      7329**DCL      7775<<ASSIGN
VLP_TRMCTL.TABSIM#
      7329**DCL      7772<<ASSIGN
VLP_TRMCTL.TRUNCATE#
      7339**DCL      7943<<ASSIGN
VLP_TRMCTL.UPPERCASE#
      7332**DCL      7898<<ASSIGN
VLP_TRMCTL.WORDWRAPCLM#
      7345**DCL      7892<<ASSIGN   7895<<ASSIGN
VLP_TRMCTL.WRAPPAGE#
      7339**DCL      7946<<ASSIGN
VLP_WINDOW
      7436**DCL      7610<<ASSIGN   7679--CALL     7972--ASSIGN
VLP_WINDOW.FWINDOW#
      7436**DCL      7436--REDEF    7437--REDEF

PL6.E3A0      #002=CXF$FIND_STREAM File=CXF$IBEX.:E05TSI                         TUE 07/29/97 12:28 Page:106
      514        1        /*M* Locate the requested stream for the TERMINAL and LDEV cmds */
      515        2        /*T***********************************************************/
      516        3        /*T*                                                         */
      517        4        /*T* Copyright (c) Bull HN Information Systems Inc., 1997    */
      518        5        /*T*                                                         */
      519        6        /*T***********************************************************/
      520        7        /*X*  DMC,DFC   */
      521        8        /*P*   NAME:   CXF$FIND_STREAM
      522        9               PURPOSE: To locate a stream that has the requested RES.
      523       10               DESCRIPTION: CXF$FIND_STREAM looks though the table of DCBs
      524       11                      to locate a DCB with requested RES.  CXF$FIND_STREAM will
      525       12                      return the DCB# of the dcb found, otherwise it will
      526       13                      return to the calling routine with CPSL_PARAM.ERRCODE set.
      527       14               REFERENCE: Programmers Reference Manual
      528       15        */
      529       16        /**********************************************************************/
      530       17        CXF$FIND_STREAM:
      531       18          PROC(STRM_NAME, STRM, DCB#, CPSL_PARAM) ;
      532       19              %INCLUDE CP_6 ;
      533      100              %INCLUDE B$ROSEG ;
      534      163              %INCLUDE B$JIT ;
      535      453              %INCLUDE CX_PERR_C ;
      536      524              %INCLUDE CX_MACROS_M ;
      537      575        /*
      538      576          *** Parameters
      539      577        */
      540      578    1   DCL STRM_NAME CHAR(2) ;
      541      579    1   DCL STRM CHAR(2) ;
      542      580    1   DCL DCB# UBIN WORD ;
      543      581        %CPSL_COMMAND_PARAMETERS (NAME=CPSL_PARAM, STCLASS=PARAM) ;
      544      599        /*
      545      600          *** Auto
      546      601        */
      547      602    1   DCL I UBIN WORD ;
      548      603    1   DCL RES CHAR(4) ;
      549      604        /*
      550      605          *** Symrefs
PL6.E3A0      #002=CXF$FIND_STREAM File=CXF$IBEX.:E05TSI                         TUE 07/29/97 12:28 Page:107
      551      606        */
      552      607    1   DCL B$ROS$ PTR SYMREF ;
      553      608    1   DCL B$JIT$ PTR SYMREF ;
      554      609        %F$DCB ;
      555      666             /***** Error codes *****/
      556      667        %VLP_ERRCODE (FPTN=E_NOSUCHSTRM,FCG=CX,MID=F,ERR#=E$NOSUCHSTRM,STCLASS=CONSTANT);
      557      712        /**/
      558      713    1         CALL CONCAT(RES, STRM_NAME, STRM) ;
      559      714    2         DO I=1 TO B$ROS$->B$ROSEG.NUMDCBS ;
      560      715    2             IF DCBADDR(I)~=ADDR(NIL)
      561      716    2               THEN
      562      717    2                 IF DCBADDR(I)->F$DCB.FCD# AND DCBADDR(I)->F$DCB.RES#=RES
      563      718    2                   THEN
      564      719    3                     DO ;
      565      720    3                       DCB# = I ;
      566      721    3                       RETURN ;
      567      722    3                     END ; /* Then Do */
      568      723    2         END ; /* Do I */
      569      724        /**/
      570      725    1     CPSL_PARAM.ERRCODE = E_NOSUCHSTRM ;
      571      726    1     CPSL_PARAM.FLAGS.REPORTED_TO_USER = '0'B ;
      572      727    1         RETURN ;
      573      728
      574      729        /*E*    ERROR: CXF-E$NOSUCHSTRM-C
      575      730                MESSAGE: No such stream defined.
      576      731        */
      577      732    1   END   CXF$FIND_STREAM ;

PL6.E3A0      #002=CXF$FIND_STREAM File=CXF$IBEX.:E05TSI                         TUE 07/29/97 12:28 Page:108
--  Include file information  --

   CX_MACROS_M.:E05TOU  is referenced.
   CX_PERR_C.:E05TOU  is referenced.
   B$JIT.:E05TOU  cannot be made into a system file and is referenced.
   B$ROSEG.:E05TOU  cannot be made into a system file and is referenced.
   CP_6.:E05TOU  cannot be made into a system file and is referenced.
   B$JIT_C.:E05TOU  was found in the system file and is referenced.
   CP_6_C.:E05TOU  was found in the system file and is referenced.
      No diagnostics issued in procedure CXF$FIND_STREAM.

   Procedure CXF$FIND_STREAM requires 44 words for executable code.
   Procedure CXF$FIND_STREAM requires 10 words of local(AUTO) storage.

    No errors detected in file CXF$IBEX.:E05TSI    .

PL6.E3A0      #002=CXF$FIND_STREAM File=CXF$IBEX.:E05TSI                         TUE 07/29/97 12:28 Page:109

 Object Unit name= CXF$FIND_STREAM                            File name= CXF$IBEX.:E05TOU
 UTS= JUL 29 '97 12:28:27.96 TUE                              Compiler= PL-6/E31         Sev=      00
 SharedLib= :SHARED_SYSTEM                                    Alt SharedLib=


    ****  Control sections  ****

 Sect   Type Bound  Init  Size OctSiz  Section name(segment info)
    0   DCB   even  none     0      0  M$UC
    1  RoData even  UTS      1      1  CXF$FIND_STREAM
    2   Proc  even  none    44     54  CXF$FIND_STREAM
    3  RoData even  none     2      2  CXF$FIND_STREAM

    ****  Entry defs  ****

                              Check   Calling
                             calling  sequence
  Sect OctLoc Primary Altret sequence   type   Parms  Name
     2      0   yes            yes      Std        4  CXF$FIND_STREAM

  ****  Entry refs  ****

         Check        Calling
        calling       sequence
Altret sequence SRef   type   Args  Name
                       nStd      0 X66_AUTO_4
                       Std       0 B_CONSPOOL_D
                       nStd      0 X66_ARET

  ****  Data refs  ****

  Flags:  r = read only, s = secondary
Flgs Name                             Flgs Name                             Flgs Name
     M$UC                                  B$ROS$                                B$JIT$
     B_VECTNIL
PL6.E3A0      #002=CXF$FIND_STREAM File=CXF$IBEX.:E05TSI                         TUE 07/29/97 12:28 Page:110

  ****  Segment refs  ****

  Flags:  r = read only, s = secondary
Flgs Name                             Flgs Name                             Flgs Name
     ROSID
PL6.E3A0      #002=CXF$FIND_STREAM File=CXF$IBEX.:E05TSI                         TUE 07/29/97 12:28 Page:111


      514        1        /*M* Locate the requested stream for the TERMINAL and LDEV cmds */
      515        2        /*T***********************************************************/
      516        3        /*T*                                                         */
      517        4        /*T* Copyright (c) Bull HN Information Systems Inc., 1997    */
      518        5        /*T*                                                         */
      519        6        /*T***********************************************************/
      520        7        /*X*  DMC,DFC   */
      521        8        /*P*   NAME:   CXF$FIND_STREAM
      522        9               PURPOSE: To locate a stream that has the requested RES.
      523       10               DESCRIPTION: CXF$FIND_STREAM looks though the table of DCBs
      524       11                      to locate a DCB with requested RES.  CXF$FIND_STREAM will
      525       12                      return the DCB# of the dcb found, otherwise it will
      526       13                      return to the calling routine with CPSL_PARAM.ERRCODE set.
      527       14               REFERENCE: Programmers Reference Manual
      528       15        */
      529       16        /**********************************************************************/
      530       17        CXF$FIND_STREAM:
      531       18          PROC(STRM_NAME, STRM, DCB#, CPSL_PARAM) ;

     18  2 000000   000000 700200 xent  CXF$FIND_ST* TSX0  ! X66_AUTO_4
         2 000001   000012 000004                    ZERO    10,4

      532       19              %INCLUDE CP_6 ;
      533      100              %INCLUDE B$ROSEG ;
      534      163              %INCLUDE B$JIT ;
      535      453              %INCLUDE CX_PERR_C ;
      536      524              %INCLUDE CX_MACROS_M ;
      537      575        /*
      538      576          *** Parameters
      539      577        */
      540      578    1   DCL STRM_NAME CHAR(2) ;
      541      579    1   DCL STRM CHAR(2) ;
      542      580    1   DCL DCB# UBIN WORD ;
      543      581        %CPSL_COMMAND_PARAMETERS (NAME=CPSL_PARAM, STCLASS=PARAM) ;
      544      599        /*
      545      600          *** Auto
PL6.E3A0      #002=CXF$FIND_STREAM File=CXF$IBEX.:E05TSI                         TUE 07/29/97 12:28 Page:112
      546      601        */
      547      602    1   DCL I UBIN WORD ;
      548      603    1   DCL RES CHAR(4) ;
      549      604        /*
      550      605          *** Symrefs
      551      606        */
      552      607    1   DCL B$ROS$ PTR SYMREF ;
      553      608    1   DCL B$JIT$ PTR SYMREF ;
      554      609        %F$DCB ;
      555      666             /***** Error codes *****/
      556      667        %VLP_ERRCODE (FPTN=E_NOSUCHSTRM,FCG=CX,MID=F,ERR#=E$NOSUCHSTRM,STCLASS=CONSTANT);
      557      712        /**/
      558      713    1         CALL CONCAT(RES, STRM_NAME, STRM) ;

    713  2 000002   200003 470500                    LDP0    @STRM_NAME,,AUTO
         2 000003   040100 100500                    MLR     fill='040'O
         2 000004   000000 000002                    ADSC9   0,,PR0                   cn=0,n=2
         2 000005   200010 000002                    ADSC9   RES,,AUTO                cn=0,n=2
         2 000006   200004 471500                    LDP1    @STRM,,AUTO
         2 000007   040100 100500                    MLR     fill='040'O
         2 000010   100000 000002                    ADSC9   0,,PR1                   cn=0,n=2
         2 000011   200010 400002                    ADSC9   RES,,AUTO                cn=2,n=2

      559      714    2         DO I=1 TO B$ROS$->B$ROSEG.NUMDCBS ;

    714  2 000012   000001 235007                    LDA     1,DL
         2 000013   200007 755100                    STA     I,,AUTO
         2 000014   000041 710000 2                  TRA     s:723+3

      560      715    2             IF DCBADDR(I)~=ADDR(NIL)

    715  2 000015   000000 470400 3                  LDP0    0
         2 000016   000000 471500                    LDP1    0,,PR0
         2 000017   200007 720100                    LXL0    I,,AUTO
         2 000020   100000 236110                    LDQ     0,X0,PR1
         2 000021   000001 116000 xsym               CMPQ    B_VECTNIL+1
         2 000022   000036 600000 2                  TZE     s:723
PL6.E3A0      #002=CXF$FIND_STREAM File=CXF$IBEX.:E05TSI                         TUE 07/29/97 12:28 Page:113

      561      716    2               THEN
      562      717    2                 IF DCBADDR(I)->F$DCB.FCD# AND DCBADDR(I)->F$DCB.RES#=RES

    717  2 000023   100000 473510                    LDP3    0,X0,PR1
         2 000024   300031 236100                    LDQ     25,,PR3
         2 000025   020000 316007                    CANQ    8192,DL
         2 000026   000036 600000 2                  TZE     s:723
         2 000027   300026 236100                    LDQ     22,,PR3
         2 000030   200010 116100                    CMPQ    RES,,AUTO
         2 000031   000036 601000 2                  TNZ     s:723

      563      718    2                   THEN
      564      719    3                     DO ;

      565      720    3                       DCB# = I ;

    720  2 000032   200005 474500                    LDP4    @DCB#,,AUTO
         2 000033   200007 235100                    LDA     I,,AUTO
         2 000034   400000 755100                    STA     0,,PR4

      566      721    3                       RETURN ;

    721  2 000035   000000 702200 xent               TSX2  ! X66_ARET

      567      722    3                     END ; /* Then Do */
      568      723    2         END ; /* Do I */

    723  2 000036   200007 235100                    LDA     I,,AUTO
         2 000037   000001 035007                    ADLA    1,DL
         2 000040   200007 755100                    STA     I,,AUTO
         2 000041   000000 470400 xsym               LDP0    B$ROS$
         2 000042   000002 236100                    LDQ     2,,PR0
         2 000043   000022 772000                    QRL     18
         2 000044   200007 116100                    CMPQ    I,,AUTO
         2 000045   000015 603000 2                  TRC     s:715

PL6.E3A0      #002=CXF$FIND_STREAM File=CXF$IBEX.:E05TSI                         TUE 07/29/97 12:28 Page:114
      569      724        /**/
      570      725    1     CPSL_PARAM.ERRCODE = E_NOSUCHSTRM ;

    725  2 000046   000000 236000 1                  LDQ     E_NOSUCHSTRM
         2 000047   200006 471500                    LDP1    @CPSL_PARAM,,AUTO
         2 000050   100002 756100                    STQ     2,,PR1

      571      726    1     CPSL_PARAM.FLAGS.REPORTED_TO_USER = '0'B ;

    726  2 000051   000001 236000 3                  LDQ     1
         2 000052   100001 356100                    ANSQ    1,,PR1

      572      727    1         RETURN ;

    727  2 000053   000000 702200 xent               TSX2  ! X66_ARET
      573      728
      574      729        /*E*    ERROR: CXF-E$NOSUCHSTRM-C
      575      730                MESSAGE: No such stream defined.
      576      731        */
      577      732    1   END   CXF$FIND_STREAM ;

PL6.E3A0      #002=CXF$FIND_STREAM File=CXF$IBEX.:E05TSI                         TUE 07/29/97 12:28 Page:115
--  Include file information  --

   CX_MACROS_M.:E05TOU  is referenced.
   CX_PERR_C.:E05TOU  is referenced.
   B$JIT.:E05TOU  cannot be made into a system file and is referenced.
   B$ROSEG.:E05TOU  cannot be made into a system file and is referenced.
   CP_6.:E05TOU  cannot be made into a system file and is referenced.
   B$JIT_C.:E05TOU  was found in the system file and is referenced.
   CP_6_C.:E05TOU  was found in the system file and is referenced.
      No diagnostics issued in procedure CXF$FIND_STREAM.
PL6.E3A0      #002=CXF$FIND_STREAM File=CXF$IBEX.:E05TSI                         TUE 07/29/97 12:28 Page:116

 **** Variables and constants ****

  ****  Section 001 RoData CXF$FIND_STREAM

  ****  Scalars and arrays  ****
OctLoc.c.b A Datatyp(siz) R M Lvl/name                 OctLoc.c.b A Datatyp(siz) R M Lvl/name

     0-0-0/w STRC        r     1 E_NOSUCHSTRM

  ****  Auto variables  ****

  ****  Scalars and arrays  ****
OctLoc.c.b A Datatyp(siz) R M Lvl/name                 OctLoc.c.b A Datatyp(siz) R M Lvl/name

     6-0-0/w PTR         r     1 @CPSL_PARAM                5-0-0/w PTR         r     1 @DCB#
     4-0-0/w PTR         r     1 @STRM                      3-0-0/w PTR         r     1 @STRM_NAME
    *0-0-0/w STRC(180)   r     1 CPSL_PARAM                *0-0-0/w UBIN        r     1 DCB#
     7-0-0/w UBIN        r     1 I                         10-0-0/c CHAR(4)     r     1 RES
    *0-0-0/c CHAR(2)     r     1 STRM                      *0-0-0/c CHAR(2)     r     1 STRM_NAME

  ****  SYMREF variables  ****

  ****  Scalars and arrays  ****
OctLoc.c.b A Datatyp(siz) R M Lvl/name                 OctLoc.c.b A Datatyp(siz) R M Lvl/name

     0-0-0/w PTR         r     1 B$JIT$                     0-0-0/w PTR         r     1 B$ROS$

  ****  BASED and DCB variables  ****

  ****  Scalars and arrays  ****
OctLoc.c.b A Datatyp(siz) R M Lvl/name                 OctLoc.c.b A Datatyp(siz) R M Lvl/name

     0-0-0/d STRC(3024)  r     1 B$ROSEG                    0-0-0/d ASTR(3528)  r     1 F$DCB


   Procedure CXF$FIND_STREAM requires 44 words for executable code.
PL6.E3A0      #002=CXF$FIND_STREAM File=CXF$IBEX.:E05TSI                         TUE 07/29/97 12:28 Page:117
   Procedure CXF$FIND_STREAM requires 10 words of local(AUTO) storage.

    No errors detected in file CXF$IBEX.:E05TSI    .
PL6.E3A0      #002=CXF$FIND_STREAM File=CXF$IBEX.:E05TSI                         TUE 07/29/97 12:28 Page:118
          *** CROSS REFERENCE LISTING ***
**     DENOTES     IDENTIFIER DEFINITION
<<                 IDENTIFIER'S VALUE SET
>>                 IDENTIFIER'S VALUE USED
<>                 IDENTIFIER SET AND/OR USED
--                 IDENTIFIER REFERENCED
PL6.E3A0      #002=CXF$FIND_STREAM File=CXF$IBEX.:E05TSI                         TUE 07/29/97 12:28 Page:119
          MINI XREF LISTING

B$JIT.CPFLAGS1.SLEAZE
       271**DCL       271--REDEF
B$JIT.ERR.MID
       178**DCL       178--REDEF
B$JIT.JRESPEAK
       339**DCL       340--REDEF
B$JIT.ORIGINATOR_PORT.FROM_CR
       448**DCL       448--REDEF     449--REDEF
B$JIT.PNR
       352**DCL       352--REDEF
B$JIT.TSLINE
       446**DCL       447--REDEF
B$JIT$
       608**DCL       172--IMP-PTR
B$ROS$
       607**DCL       714>>DOINDEX
B$ROSEG.NUMDCBS
       113**DCL       714>>DOINDEX
CPSL_PARAM
       582**DCL        17--PROC
CPSL_PARAM.ERRCODE
       590**DCL       725<<ASSIGN
CPSL_PARAM.FLAGS.REPORTED_TO_USER
       587**DCL       726<<ASSIGN
DCB#
       580**DCL        17--PROC      720<<ASSIGN
E_NOSUCHSTRM
       679**DCL       725>>ASSIGN
F$DCB.ACTPOS
       642**DCL       642--REDEF
F$DCB.ARS#
       616**DCL       616--REDEF
PL6.E3A0      #002=CXF$FIND_STREAM File=CXF$IBEX.:E05TSI                         TUE 07/29/97 12:28 Page:120
F$DCB.ATTR
       635**DCL       636--REDEF
F$DCB.BORROW
       650**DCL       650--REDEF     650--REDEF     650--REDEF
F$DCB.DCBNAME.L
       664**DCL       664--IMP-SIZ
F$DCB.EOMCHAR#
       620**DCL       620--REDEF
F$DCB.FCD#
       629**DCL       717>>IF
F$DCB.FLDID
       645**DCL       645--REDEF
F$DCB.FORM$
       639**DCL       639--REDEF
F$DCB.FSECT
       655**DCL       655--REDEF
F$DCB.FSN#
       632**DCL       632--REDEF     632--REDEF     633--REDEF
F$DCB.HEADER$
       638**DCL       638--REDEF
F$DCB.IXTNSIZE#
       636**DCL       636--REDEF
F$DCB.LASTSTA$
       625**DCL       625--REDEF
F$DCB.LVL
       651**DCL       651--REDEF
F$DCB.NAME#.C
       626**DCL       626--REDEF
F$DCB.NOEOF
       648**DCL       648--REDEF
F$DCB.NRECS#
       637**DCL       637--REDEF
F$DCB.NRECX
       656**DCL       656--REDEF
F$DCB.OHDR
       648**DCL       648--REDEF
PL6.E3A0      #002=CXF$FIND_STREAM File=CXF$IBEX.:E05TSI                         TUE 07/29/97 12:28 Page:121
F$DCB.ORG#
       631**DCL       631--REDEF
F$DCB.PRECNO
       654**DCL       654--REDEF
F$DCB.RCSZ
       660**DCL       660--REDEF
F$DCB.RES#
       627**DCL       627--REDEF     717>>IF
F$DCB.SETX
       639**DCL       639--REDEF
F$DCB.TAB$
       639**DCL       639--REDEF
F$DCB.TDA
       653**DCL       654--REDEF
F$DCB.WSN#
       627**DCL       627--REDEF
I
       602**DCL       714<<DOINDEX   715--IF        717--IF        717--IF        720>>ASSIGN
RES
       603**DCL       713<<CALLBLT   717>>IF
STRM
       579**DCL        17--PROC      713>>CALLBLT
STRM_NAME
       578**DCL        17--PROC      713>>CALLBLT
