VERSION E05

PL6.E3A0      #001=CXX$CONTEXT2 File=CXX$CONTEXT2.:E05TSI                        TUE 07/29/97 12:29 Page:1
        1        1        /*M*    CXX$CONTEXT2    subroutine which checks for context errors for IBEX
        2        2                                IBEX Shared Library.                                 */
        3        3        /*T***********************************************************/
        4        4        /*T*                                                         */
        5        5        /*T* Copyright (c) Bull HN Information Systems Inc., 1997    */
        6        6        /*T*                                                         */
        7        7        /*T***********************************************************/
        8        8        /*X* DMC, PLM=3, CTI=1, CSI=2, ECI=2, MCI=YES, SDI=6, THI=2 */
        9        9        /*P*    NAME: CXX$CONTEXT2
       10       10                PURPOSE: To check for context errors for IBEX Shared Library.         */
       11       11        /******************************************************************************/
       12       12        CXX$CONTEXT2:
       13       13           PROC (OUT$BLK, XUG_GETCMD, CPSL_COMMAND_PARAMETERS, VALUE_OUT);
       14       14        /***** Include files *****/
       15       15          %INCLUDE CX_ISUBS_C ;
       16      367          %INCLUDE CX_SUBS_C ;
       17      380          %INCLUDE CX_PERR_C ;
       18      451          %INCLUDE CX_MACROS_M ;
       19      502          %INCLUDE CP_6 ;
       20      583          %INCLUDE CP_6_SUBS ;
       21     1123          %INCLUDE XU_MACRO_C ;
       22     4229          %INCLUDE XU_SUBS_C ;
       23     4321          %INCLUDE B$JIT ;
       24     4611          %INCLUDE UM_ERRORS_C ;
       25     4645
       26     4646        /*****  Parameters *****/
       27     4647
       28     4648          %PARSE$OUT (NAME=OUT$BLK, STCLASS=PARAM);
       29     4693          %XUG_GETCMD (NAME=XUG_GETCMD, STCLASS=PARAM);
       30     5031        %CPSL_COMMAND_PARAMETERS (NAME=CPSL_COMMAND_PARAMETERS, STCLASS=PARAM);
       31     5049    1   DCL VALUE_OUT SBIN WORD;
       32     5050    1   DCL VALUE_OUT_REDEF(0:3) REDEF VALUE_OUT CHAR(1);
       33     5051
       34     5052        /*****  Fpts  *****/
       35     5053
       36     5054          %PARSE$SYM (NAME=OUT$SYM,STCLASS="BASED(PTR1$)",SCRMODE="BIT(18)") ;
       37     5092          %FPT_FID (FPTN=FPT_FID, STCLASS=AUTO) ;
PL6.E3A0      #001=CXX$CONTEXT2 File=CXX$CONTEXT2.:E05TSI                        TUE 07/29/97 12:29 Page:2
       38     5115          %VLR_FID (FPTN=FID_RESULTS,STCLASS=AUTO);
       39     5134          %VLP_NAME (FPTN=FID_NAME,STCLASS=AUTO,LEN=31);
       40     5161          %VLP_SN (FPTN=FID_SN,STCLASS=AUTO,N=50);
       41     5174          %VLP_ACCT (FPTN=FID_ACCT,STCLASS=AUTO);
       42     5187          %VLP_PASS (FPTN=FID_PASS,STCLASS=AUTO);
       43     5200          %VLP_WSN (FPTN=FID_WSN,STCLASS=AUTO);
       44     5213        /*****  Constant  *****/
       45     5214          %FPT_FID (FPTN=CPSL_CFPT_FID, STCLASS=CONSTANT) ;
       46     5237        /*****  External routines  *****/
       47     5238        %INCLUDE CXG_ENTRY; /* Entry DCLs for CXG$GETCMD */
       48     5250    1   DCL CXP$POSTERR ENTRY(5) ;
       49     5251    1   DCL CXX$DECBIN ENTRY(2) ALTRET ;
       50     5252    1   DCL CXX$OCTBIN ENTRY(2) ALTRET ;
       51     5253        /*****  Based structures  *****/
       52     5254          %B$TCB (STCLASS="BASED(B$TCB$)") ;
       53     5257          %B$EXCFR ;
       54     5275        /*****  Error Msgs  *****/
       55     5276        %VLP_ERRCODE (FPTN=E_XBIGDCB,ERR#=E$XBIGDCB,FCG=CX,MID=X,STCLASS=CONSTANT);
       56     5321        /*E*   ERROR: CXX-E$XBIGDCB-0
       57     5322                MESSAGE: DCB name greater than 31 characters
       58     5323        */
       59     5324        %VLP_ERRCODE (FPTN=E_XILLDCB,ERR#=E$XILLDCB,FCG=CX,MID=X,STCLASS=CONSTANT);
       60     5369        /*E*   ERROR: CXX-E$XILLDCB-0
       61     5370                MESSAGE: Illegal dcb name specified
       62     5371                MESSAGE1: DCB names M$UC and M$LM disallowed
       63     5372        */
       64     5373        %VLP_ERRCODE (FPTN=E_XBIG99999,ERR#=E$XBIG99999,FCG=CX,MID=X,STCLASS=CONSTANT);
       65     5418        /*E*   ERROR: CXX-E$XBIG99999-0
       66     5419                MESSAGE: Value specified greater than 99999
       67     5420        */
       68     5421        %VLP_ERRCODE (FPTN=E_XBIG262142,ERR#=E$XBIG262142,FCG=CX,MID=X,STCLASS=CONSTANT);
       69     5466        /*E*   ERROR: CXX-E$XBIG262142-0
       70     5467                MESSAGE: Value specified greater than 262142
       71     5468        */
       72     5469        %VLP_ERRCODE (FPTN=E_XBIG32000,ERR#=E$XBIG32000,FCG=CX,MID=X,STCLASS=CONSTANT);
       73     5514        /*E*   ERROR: CXX-E$XBIG32000-0
       74     5515                MESSAGE: Value specified greater than 32000
PL6.E3A0      #001=CXX$CONTEXT2 File=CXX$CONTEXT2.:E05TSI                        TUE 07/29/97 12:29 Page:3
       75     5516        */
       76     5517        %VLP_ERRCODE (FPTN=E_BDCVAL,ERR#=E$BDCVAL,FCG=CX,MID=X,STCLASS=CONSTANT);
       77     5562        /*E*    ERROR: CXX-E$BDCVAL-0
       78     5563                MESSAGE: Illegal decimal value
       79     5564        */
       80     5565        %VLP_ERRCODE (FPTN=E_XBIG32764,ERR#=E$XBIG32764,FCG=CX,MID=X,STCLASS=CONSTANT);
       81     5610        /*E*   ERROR: CXX-E$XBIG32764-0
       82     5611                MESSAGE: Value specified greater than 32764
       83     5612        */
       84     5613        %VLP_ERRCODE (FPTN=E_XBIGEXP,ERR#=E$XBIGEXP,FCG=CX,MID=X,STCLASS=CONSTANT);
       85     5658        /*E*   ERROR: CXX-E$XBIGEXP-0
       86     5659                MESSAGE: EXPIRE value exceeds user maximum
       87     5660                MESSAGE1: EXPIRE exceeds the maximum authorized in :USERS record
       88     5661        */
       89     5662        %VLP_ERRCODE (FPTN=E_XRANGE255,ERR#=E$XRANGE255,FCG=CX,MID=X,STCLASS=CONSTANT);
       90     5707        /*E*   ERROR: CXX-E$XRANGE255-0
       91     5708                MESSAGE: Value must be in the range of 1 to 255
       92     5709        */
       93     5710        %VLP_ERRCODE (FPTN=E_XBIG509,ERR#=E$XBIG509,FCG=CX,MID=X,STCLASS=CONSTANT);
       94     5755        /*E*   ERROR: CXX-E$XBIG509-0
       95     5756                MESSAGE: Value must be <= 509
       96     5757        */
       97     5758        %VLP_ERRCODE (FPTN=E_XBIG511,ERR#=E$XBIG511,FCG=CX,MID=X,STCLASS=CONSTANT);
       98     5803        /*E*   ERROR: CXX-E$XBIG511-0
       99     5804                MESSAGE: Value specified greater than 511
      100     5805        */
      101     5806        %VLP_ERRCODE (FPTN=E_XRANGE511,ERR#=E$XRANGE511,FCG=CX,MID=X,STCLASS=CONSTANT);
      102     5851        /*E*   ERROR: CXX-E$XRANGE511-0
      103     5852                MESSAGE: Value must be in the range of 1 to 511
      104     5853        */
      105     5854        %VLP_ERRCODE (FPTN=E_XBIGACCT,ERR#=%E$BADACCT,FCG=UM,MID=F,MON='1'B,STCLASS=CONSTANT
              5854            );
      106     5899        %VLP_ERRCODE (FPTN=E_XBIGNAME,ERR#=E$XBIGNAME,FCG=CX,MID=X,STCLASS=CONSTANT);
      107     5944        /*E*   ERROR: CXX-E$XBIGNAME-0
      108     5945                MESSAGE: Jobname greater than 31 characters
      109     5946        */
      110     5947        %VLP_ERRCODE (FPTN=E_XBIGSNUM,ERR#=E$XBIGSNUM,FCG=CX,MID=X,STCLASS=CONSTANT);
PL6.E3A0      #001=CXX$CONTEXT2 File=CXX$CONTEXT2.:E05TSI                        TUE 07/29/97 12:29 Page:4
      111     5992        /*E*   ERROR: CXX-E$XBIGSNUM-0
      112     5993                MESSAGE: Serial number greater than 6 characters
      113     5994        */
      114     5995        %VLP_ERRCODE (FPTN=E_XBIG6CHAR,FCG=CX,MID=X,ERR#=E$XBIG6CHAR,STCLASS=CONSTANT);
      115     6040        /*E*    ERROR: CXX-E$XBIG6CHAR-0
      116     6041                MESSAGE: Only six or less characters allowed.
      117     6042        */
      118     6043        %VLP_ERRCODE (FPTN=E_XBIG8CHAR,FCG=CX,MID=X,ERR#=E$XBIG8CHAR,STCLASS=CONSTANT);
      119     6088        /*E*    ERROR: CXX-E$XBIG8CHAR-0
      120     6089                MESSAGE: Only eight or less characters allowed.
      121     6090        */
      122     6091        %VLP_ERRCODE (FPTN=E_XWILDCHAR,FCG=CX,MID=X,ERR#=E$XWILDCHAR,STCLASS=CONSTANT);
      123     6136        /*E*    ERROR: CXX-E$XWILDCHAR-0
      124     6137                MESSAGE: ? permitted only as the last character
      125     6138        */
      126     6139        %VLP_ERRCODE (FPTN=E_XBIGSEED,ERR#=E$XBIGSEED,FCG=CX,MID=X,STCLASS=CONSTANT);
      127     6184        /*E*   ERROR: CXX-E$XBIGSEED-0
      128     6185                MESSAGE: SEED greater than 4 characters or 12 octal digits
      129     6186        */
      130     6187        %VLP_ERRCODE (FPTN=E_XBIG255,ERR#=E$XBIG255,FCG=CX,MID=X,STCLASS=CONSTANT);
      131     6232        /*E*    ERROR: CXX-E$XBIG255-0
      132     6233                MESSAGE: Value specified greater than 255
      133     6234        */
      134     6235        %VLP_ERRCODE (FPTN=E_XRANGE114,ERR#=E$XRANGE114,FCG=CX,MID=X,STCLASS=CONSTANT);
      135     6280        /*E*    ERROR: CXX-E$XRANGE114-0
      136     6281                MESSAGE: TITLE greater than 114 characters
      137     6282        */
      138     6283        %VLP_ERRCODE (FPTN=E_XRANGESBIN,ERR#=E$XRANGESBIN,FCG=CX,MID=X,STCLASS=CONSTANT);
      139     6328        /*E*    ERROR: CXX-E$XRANGESBIN-0
      140     6329                MESSAGE: Value must be in the range of 1 to 2**35-1
      141     6330        */
      142     6331        %VLP_ERRCODE (FPTN=E_XBIG15,ERR#=E$XBIG15,FCG=CX,MID=X,STCLASS=CONSTANT);
      143     6376        /*E*    ERROR: CXX-E$XBIG15-0
      144     6377                MESSAGE: Value specified greater than 15
      145     6378        */
      146     6379        %VLP_ERRCODE (FPTN=E_XBIGTYPE,ERR#=E$XBIGTYPE,FCG=CX,MID=X,STCLASS=CONSTANT);
      147     6424        /*E*    ERROR: CXX-E$XBIGTYPE-0
PL6.E3A0      #001=CXX$CONTEXT2 File=CXX$CONTEXT2.:E05TSI                        TUE 07/29/97 12:29 Page:5
      148     6425                MESSAGE: TYPE greater than 2 characters
      149     6426        */
      150     6427        %VLP_ERRCODE (FPTN=E_XILLDVFC,ERR#=E$XILLDVFC,FCG=CX,MID=X,STCLASS=CONSTANT);
      151     6472        /*E*    ERROR: CXX-E$XILLDVFC-0
      152     6473                MESSAGE: Illegal VFC character specified
      153     6474                MESSAGE1: VFC information must be a single character (specified
      154     6475                          as a string, or in octal) whose ASCII value lies in the range
      155     6476                          of 0 to 255.
      156     6477        */
      157     6478        %VLP_ERRCODE (FPTN=E_XILLCHAIN,ERR#=E$XILLCHAIN,FCG=CX,MID=X,STCLASS=CONSTANT);
      158     6523        /*E*    ERROR: CXX-E$XILLCHAIN-0
      159     6524                MESSAGE: Value must be int the range of 2 to 128
      160     6525        */
      161     6526        %VLP_ERRCODE (FPTN=E_XRANGE9999,ERR#=E$XRANGE9999,FCG=CX,MID=X,STCLASS=CONSTANT);
      162     6571        /*E*    ERROR: CXX-E$XRANGE9999-0
      163     6572                MESSAGE: Value must be in the range of 1 to 9999
      164     6573        */
      165     6574        %VLP_ERRCODE (FPTN=E_XBIGSEQID,ERR#=E$XBIGSEQID,FCG=CX,MID=X,STCLASS=CONSTANT);
      166     6619        /*E*    ERROR: CXX-E$XBIGSEQID-0
      167     6620                MESSAGE: SEQID greater than 4 characters
      168     6621        */
      169     6622        %VLP_ERRCODE (FPTN=E_XNULLSTRING,ERR#=E$XNULLSTRING,FCG=CX,MID=X,STCLASS=CONSTANT);
      170     6667        /*E*    ERROR: CXX-E$XNULLSTRING-0
      171     6668                MESSAGE: NULL STRING not allowed
      172     6669        */
      173     6670        %VLP_ERRCODE (FPTN=E_XTMTABS,FCG=CX,MID=X,ERR#=E$XTMTABS,STCLASS=CONSTANT);
      174     6715        /*E*    ERROR: CXX-E$XTMTABS-0
      175     6716                MESSAGE: Only 31 tabs allowed.
      176     6717        */
      177     6718        %VLP_ERRCODE (FPTN=E_XILLTAB,FCG=CX,MID=X,ERR#=E$XILLTAB,STCLASS=CONSTANT);
      178     6763        /*E*    ERROR: CXX-E$XILLTAB-0
      179     6764                MESSAGE: TABS must be 255 or less
      180     6765        */
      181     6766        %VLP_ERRCODE (FPTN=E_XBDSTRFID,ERR#=E$XBDSTRFID,FCG=CX,MID=X,STCLASS=CONSTANT);
      182     6811        /*E*    ERROR: CXX-E$XBDSTRFID-0
      183     6812                MESSAGE: LDEV fid does not specify a valid device destination.
      184     6813        */
PL6.E3A0      #001=CXX$CONTEXT2 File=CXX$CONTEXT2.:E05TSI                        TUE 07/29/97 12:29 Page:6
      185     6814        %VLP_ERRCODE (FPTN=E_XBIG4CHAR,ERR#=E$XBIG4CHAR,FCG=CX,MID=X,STCLASS=CONSTANT);
      186     6859        /*E*    ERROR: CXX-E$XBIG4CHAR-0
      187     6860                MESSAGE: A stream name must be 4 characters long, LP, CP, GR, or UC.
      188     6861        */
      189     6862        %VLP_ERRCODE (FPTN=E_XBIG32767,ERR#=E$XBIG32767,FCG=CX,MID=X,STCLASS=CONSTANT);
      190     6907        /*E*    ERROR: CXX-E$XBIG32767-0
      191     6908                MESSAGE: Value must be no greater than 32767.
      192     6909        */
      193     6910        %VLP_ERRCODE (FPTN=E_XTESINPUTSZ,FCG=CX,MID=X,ERR#=E$XTESINPUTSZ,STCLASS=CONSTANT);
      194     6955        /*E*    ERROR: CXX-E$XTESINPUTSZ-0
      195     6956                MESSAGE: SINPUTSZ must be <= 254.
      196     6957        */
      197     6958        %VLP_ERRCODE (FPTN=E_XTEWORDWRAPCLM,FCG=CX,MID=X,ERR#=E$XTEWORDWRAPCLM,STCLASS=
              6958            CONSTANT);
      198     7003        /*E*    ERROR: CXX-E$XTEWORDWRAPCLM-0
      199     7004                MESSAGE: WORDWRAPCLM must be <= 254.
      200     7005        */
      201     7006        %VLP_ERRCODE (FPTN=E_XILLFCNTBL,FCG=CX,MID=X,ERR#=E$XILLFCNTBL,STCLASS=CONSTANT);
      202     7051        /*E*    ERROR: CXX-E$XILLFCNTBL-0
      203     7052                MESSAGE: FCNTBL text must be 8 chars or less
      204     7053        */
      205     7054        %VLP_ERRCODE (FPTN=E_XBIGPROFILE,FCG=CX,MID=X,ERR#=E$XBIGPROFILE,STCLASS=CONSTANT);
      206     7099        /*E*    ERROR: CXX-E$XBIGPROFILE-0
      207     7100                MESSAGE: The length of a PROFILE name must be <= 11 characters.
      208     7101        */
      209     7102        %VLP_ERRCODE (FPTN=E_XBIG254,FCG=CX,MID=X,ERR#=E$XBIG254,STCLASS=CONSTANT);
      210     7147        /*E*    ERROR: CXX-E$XBIG254-0
      211     7148                MESSAGE: Value must be <= 254.
      212     7149        */
      213     7150        %VLP_ERRCODE (FPTN=E_XRANGE2097152,FCG=CX,MID=X,ERR#=E$XRANGE2097152,STCLASS=
              7150            CONSTANT);
      214     7195        /*E*    ERROR: CXX-E$XRANGE2097152-0
      215     7196                MESSAGE: Value must be in the range of 1 to 2097152.
      216     7197        */
      217     7198        %VLP_ERRCODE (FPTN=E_XRANGE16384,FCG=CX,MID=X,ERR#=E$XRANGE16384,STCLASS=CONSTANT);
      218     7243        /*E*    ERROR: CXX-E$XRANGE16384-0
      219     7244                MESSAGE: Value must be in the range of 1 to 16384.
PL6.E3A0      #001=CXX$CONTEXT2 File=CXX$CONTEXT2.:E05TSI                        TUE 07/29/97 12:29 Page:7
      220     7245        */
      221     7246        %VLP_ERRCODE (FPTN=E_XBIGBORDERCHR,FCG=CX,MID=X,ERR#=E$XBIGBORDERCHR,STCLASS=
              7246            CONSTANT);
      222     7291        /*E*    ERROR: CXX-E$XBIGBORDERCHR-0
      223     7292                MESSAGE: Only a single character may be specified for window borders.
      224     7293        */
      225     7294        %VLP_ERRCODE (FPTN=E_XBADFWINDOW,ERR#=E$XBADFWINDOW,FCG=CX,MID=X,STCLASS=CONSTANT);
      226     7339        /*E*    ERROR: CXX-E$XBADFWINDOW-0
      227     7340                MESSAGE: FWINDOW must be a UC stream name
      228     7341        */
      229     7342
      230     7343        /*****  SYMREFs  *****/
      231     7344
      232     7345    1   DCL B$JIT$ PTR SYMREF ;
      233     7346    1   DCL B$TCB$ PTR SYMREF ;
      234     7347        /*****  Auto Data  *****/
      235     7348    1   DCL PTR$ PTR AUTO ;
      236     7349    1   DCL PTR1$ PTR AUTO ;
      237     7350    1   DCL VALUE SBIN WORD AUTO ;
      238     7351    1   DCL INDX UBIN WORD AUTO ;
      239     7352    1   DCL FID_ASN UBIN(9) ;
      240     7353    1   DCL FID_RES CHAR(4) ;
      241     7354    1   DCL SBINMAX_O BIT(36) CONSTANT INIT('377777777777'O) ;
      242     7355    1   DCL SBINMAX REDEF SBINMAX_O SBIN WORD ;
      243     7356
      244     7357        /*****  AUTO  *****/
      245     7358
      246     7359    1   DCL I UBIN WORD;
      247     7360        %EJECT;
PL6.E3A0      #001=CXX$CONTEXT2 File=CXX$CONTEXT2.:E05TSI                        TUE 07/29/97 12:29 Page:8
      248     7361    1   CXX$SET: ENTRY (OUT$BLK, XUG_GETCMD, CPSL_COMMAND_PARAMETERS, VALUE_OUT);
      249     7362
      250     7363    1      CALL SETUP_AND_DECODE ALTRET (SET_ERR);
      251     7364
      252     7365    2   CXX$SET5: DO CASE(OUT$BLK.CODE);
      253     7366    2        CASE(DCBOPT);
      254     7367    2         CALL CHK_DCBNAME;
      255     7368    2        CASE(FIDOPT);
      256     7369        /*
      257     7370          ****       CHECK FOR FID ERRORS
      258     7371        */
      259     7372    2         CALL CNVRT_FID ALTRET(CXX$SET10) ;
      260     7373    2   CXX$SET10: ;
      261     7374    2        CASE(RECLOPT);
      262     7375    2         IF VALUE > 262142 THEN
      263     7376    2            CALL POST_ERROR(OUT$SYM.CPOS,E_XBIG262142);
      264     7377    2        CASE(KEYXOPT,
      265     7378    2             LINESOPT,
      266     7379    2             XTNSIZEOPT);
      267     7380    2         IF VALUE > 32000 THEN
      268     7381    2            CALL POST_ERROR(OUT$SYM.CPOS,E_XBIG32000);
      269     7382    2        CASE(BLKLOPT);
      270     7383    2         IF VALUE > 32764 THEN
      271     7384    2            CALL POST_ERROR(OUT$SYM.CPOS,E_XBIG32764);
      272     7385    2        CASE(EXPIREOPT);
      273     7386    3         DO CASE(OUT$SYM.CODE);
      274     7387    3           CASE(EXP_DDD);
      275     7388    3            IF B$JIT.MAXEXP ~= -1 THEN          /*NEVER = -1*/
      276     7389    3               IF VALUE > B$JIT.MAXEXP THEN
      277     7390    3                  CALL POST_ERROR(OUT$SYM.CPOS,E_XBIGEXP);
      278     7391    3           CASE(EXP_NEVER);
      279     7392    3            IF B$JIT.MAXEXP ~= -1 THEN
      280     7393    3               CALL POST_ERROR(OUT$SYM.CPOS,E_XBIGEXP);
      281     7394    3           END;
      282     7395    2        CASE(SPAREOPT);
      283     7396    2         IF VALUE > 511 THEN
      284     7397    2            CALL POST_ERROR(OUT$SYM.CPOS,E_XBIG511);
PL6.E3A0      #001=CXX$CONTEXT2 File=CXX$CONTEXT2.:E05TSI                        TUE 07/29/97 12:29 Page:9
      285     7398    2        CASE(COPIESOPT,
      286     7399    2             LSLIDEOPT,
      287     7400    2             LRDL0OPT,
      288     7401    2             VOLOPT,
      289     7402    2             MAXVOLOPT);
      290     7403    2         IF VALUE < 1 OR VALUE > 511 THEN
      291     7404    2            CALL POST_ERROR(OUT$SYM.CPOS,E_XRANGE511);
      292     7405    2        CASE(ACS_VEH);
      293     7406    2         CALL CNVRT_FID;             /* Check to see if access-vehicle FID is OK */
      294     7407    2        CASE(ACC_ACCT);
      295     7408    2         IF OUT$SYM.COUNT > 8 THEN
      296     7409    2            CALL POST_ERROR(OUT$SYM.CPOS,E_XBIGACCT);
      297     7410    2        CASE(SN_NUM);
      298     7411    2         IF OUT$SYM.COUNT > 6 THEN
      299     7412    2            CALL POST_ERROR(OUT$SYM.CPOS,E_XBIGSNUM);
      300     7413    2        CASE(TABOPT);
      301     7414        /*
      302     7415          ****      ERROR IF OVER 31 TABS SPECIFIED
      303     7416        */
      304     7417    2         IF OUT$BLK.NSUBLKS > 31 THEN
      305     7418    2            CALL POST_ERROR(OUT$BLK.SUBLK$(31)->OUT$SYM.CPOS,E_XTMTABS);
      306     7419        /*
      307     7420          ****      ERROR IF TAB VALUE NOT IN 1-511 RANGE
      308     7421        */
      309     7422    2        CASE(TAB_NUM);
      310     7423    2         IF VALUE > 255 THEN
      311     7424    2            CALL POST_ERROR(OUT$SYM.CPOS,E_XILLTAB);
      312     7425    2        CASE(PAGECOLOPT);
      313     7426    2         IF VALUE > 255 THEN
      314     7427    2            CALL POST_ERROR(OUT$SYM.CPOS,E_XBIG255);
      315     7428    2        CASE(MARGINOPT,
      316     7429    2             INDENTOPT,
      317     7430    2             KEYLOPT,
      318     7431    2             SEQCOLOPT);
      319     7432    2         IF (VALUE < 1 OR VALUE > 255) THEN
      320     7433    2            CALL POST_ERROR(OUT$SYM.CPOS,E_XRANGE255);
      321     7434    2        CASE(TITLEOPT);
PL6.E3A0      #001=CXX$CONTEXT2 File=CXX$CONTEXT2.:E05TSI                        TUE 07/29/97 12:29 Page:10
      322     7435    2         IF OUT$SYM.COUNT > 114 THEN
      323     7436    2            CALL POST_ERROR(OUT$SYM.CPOS+115,E_XRANGE114);
      324     7437    2        CASE(NRECSOPT,IXTNSIZEOPT);
      325     7438    2         IF (VALUE < 1 OR VALUE > SBINMAX) THEN
      326     7439    2            CALL POST_ERROR(OUT$SYM.CPOS,E_XRANGESBIN);
      327     7440    2        CASE(HDRHOPT, GHSTACSOPT);
      328     7441    2         IF VALUE > 15 THEN
      329     7442    2            CALL POST_ERROR(OUT$SYM.CPOS,E_XBIG15);
      330     7443    2        CASE (IMSGTYPOPT,
      331     7444    2             OMSGTYPOPT,
      332     7445    2             ISTATIONOPT,
      333     7446    2             OSTATIONOPT,
      334     7447    2             MYSTATIONOPT);
      335     7448    2         PTR1$ = OUT$BLK.SUBLK$(0)->OUT$SYM.TEXTC$;
      336     7449    2         GOTO CXX$SET20;
      337     7450    2        CASE(IMSGTYP_NAME,
      338     7451    2          ISTAT_NAME,
      339     7452    2          MYSTAT_NAME,
      340     7453    2          OMSGTYP_NAME,
      341     7454    2          OSTAT_NAME);
      342     7455    2   CXX$SET20: ;
      343     7456    2         IF OUT$SYM.COUNT > 8 THEN
      344     7457    2            CALL POST_ERROR(OUT$SYM.CPOS,E_XBIG8CHAR);
      345     7458    2           ELSE
      346     7459    3         DO;
      347     7460    3            CALL INDEX(INDX,'?',OUT$SYM.TEXT);
      348     7461    3            IF INDX < OUT$SYM.COUNT-1 THEN
      349     7462    3               CALL POST_ERROR(OUT$SYM.CPOS,
      350     7463    3                E_XWILDCHAR);
      351     7464    3            END;
      352     7465    2        CASE(TYPEOPT);
      353     7466    2         IF OUT$SYM.COUNT > 2 THEN
      354     7467    2            CALL POST_ERROR(OUT$SYM.CPOS,E_XBIGTYPE);
      355     7468    2        CASE(DVFCOPT);
      356     7469    2         IF OUT$SYM.NDTYPE = %DSTRING# THEN
      357     7470    2            IF OUT$SYM.COUNT > 1
      358     7471    2             OR SUBSTR(OUT$SYM.TEXT,0,1) > BINASC(255)
PL6.E3A0      #001=CXX$CONTEXT2 File=CXX$CONTEXT2.:E05TSI                        TUE 07/29/97 12:29 Page:11
      359     7472    2              THEN
      360     7473    2               CALL POST_ERROR(OUT$SYM.CPOS,E_XILLDVFC);
      361     7474    2              ELSE ;
      362     7475    2           ELSE
      363     7476    2            IF OUT$SYM.NDTYPE = %OCT# THEN
      364     7477    2               IF VALUE > 255
      365     7478    2                 THEN
      366     7479    2                  CALL POST_ERROR(OUT$SYM.CPOS,E_XILLDVFC);
      367     7480    2        CASE(FORMOPT);
      368     7481    2         IF OUT$SYM.COUNT > 6 THEN
      369     7482    2            CALL POST_ERROR(OUT$SYM.CPOS,E_XBIG6CHAR);
      370     7483    2           ELSE
      371     7484    2            IF OUT$SYM.COUNT = 0
      372     7485    2              THEN   /* Null string */
      373     7486    2               CALL POST_ERROR (OUT$SYM.CPOS,E_XNULLSTRING);
      374     7487    2        CASE(FSNOPT);
      375     7488    2         IF (VALUE < 1 OR VALUE > 9999) THEN
      376     7489    2            CALL POST_ERROR(OUT$SYM.CPOS,E_XRANGE9999);
      377     7490    2        CASE(SEQIDOPT);
      378     7491    2         IF OUT$SYM.COUNT > 4 THEN
      379     7492    2            CALL POST_ERROR(OUT$SYM.CPOS,E_XBIGSEQID);
      380     7493    2        CASE (PROFILEOPT);
      381     7494    2         IF OUT$SYM.COUNT > 11
      382     7495    2           THEN
      383     7496    2            CALL POST_ERROR (OUT$SYM.CPOS, E_XBIGPROFILE);
      384     7497    2        CASE (PHYSICALOPT, MINPHYSOPT);
      385     7498    2         IF VALUE < 1 OR VALUE > 16384
      386     7499    2           THEN
      387     7500    2            CALL POST_ERROR (OUT$SYM.CPOS, E_XRANGE16384);
      388     7501    2        CASE (SEGSIZEOPT);
      389     7502    2         IF VALUE < 1 OR VALUE > 2097152
      390     7503    2           THEN
      391     7504    2            CALL POST_ERROR (OUT$SYM.CPOS, E_XRANGE2097152);
      392     7505    2        CASE (SEEDOPT);
      393     7506    2         IF OUT$SYM.COUNT > 12
      394     7507    2          OR OUT$SYM.COUNT > 4 AND OUT$SYM.CODE = SEED_QUOTE
      395     7508    2           THEN
PL6.E3A0      #001=CXX$CONTEXT2 File=CXX$CONTEXT2.:E05TSI                        TUE 07/29/97 12:29 Page:12
      396     7509    2            CALL POST_ERROR (OUT$SYM.CPOS, E_XBIGSEED);
      397     7510    2           ELSE
      398     7511    2            IF OUT$SYM.CODE = SEED_QUOTE AND ADDR(VALUE_OUT) ~= ADDR(NIL)
      399     7512    2              THEN
      400     7513    3            DO;
      401     7514    3               VALUE_OUT = 0;
      402     7515    4               DO I = 0 TO OUT$BLK.SUBLK$(0)->OUT$SYM.COUNT-1;
      403     7516    4                  VALUE_OUT_REDEF(I) = SUBSTR(OUT$BLK.SUBLK$(0)->OUT$SYM.TEXT,
      404     7517    4                   I, 1);
      405     7518    4                  END; /* Do I */
      406     7519    3               END; /* Then Do */
      407     7520                    /* SEED_NONE  ->  VALUE_OUT = -1
      408     7521                       SEED_OCT will be done by SETUP_AND_DECODE
      409     7522                    */
      410     7523    2        END CXX$SET5;
      411     7524    1   SET_ERR:
      412     7525    1      RETURN;
      413     7526        %EJECT;
PL6.E3A0      #001=CXX$CONTEXT2 File=CXX$CONTEXT2.:E05TSI                        TUE 07/29/97 12:29 Page:13
      414     7527    1   CXX$RESET: ENTRY (OUT$BLK, XUG_GETCMD, CPSL_COMMAND_PARAMETERS, VALUE_OUT);
      415     7528    1      IF ADDR(VALUE_OUT) ~= ADDR(NIL)
      416     7529    1        THEN
      417     7530    1         VALUE_OUT = -1;
      418     7531        /*
      419     7532          ****    CHECK FOR DCB ERRORS
      420     7533        */
      421     7534    1      PTR1$ = ADDR (OUT$BLK);
      422     7535    1      CALL CHK_DCBNAME;
      423     7536    1      RETURN;
      424     7537                  %EJECT;
PL6.E3A0      #001=CXX$CONTEXT2 File=CXX$CONTEXT2.:E05TSI                        TUE 07/29/97 12:29 Page:14
      425     7538    1   CXX$LDEV: ENTRY (OUT$BLK, XUG_GETCMD, CPSL_COMMAND_PARAMETERS, VALUE_OUT);
      426     7539
      427     7540    1      CALL SETUP_AND_DECODE ALTRET (SET_ERR);
      428     7541
      429     7542    2      DO CASE (OUT$BLK.CODE);
      430     7543    2        CASE (LD_COPY);
      431     7544    2         IF VALUE < 1 OR VALUE > 511
      432     7545    2           THEN
      433     7546    2            CALL POST_ERROR (OUT$SYM.CPOS,E_XRANGE511);
      434     7547    2        CASE (LD_DVFC);
      435     7548    2         IF OUT$BLK.NDTYPE = %OCT#
      436     7549    2           THEN /* DVFC=O'xxx' */
      437     7550    2            IF VALUE > 255
      438     7551    2              THEN
      439     7552    2               CALL POST_ERROR(OUT$SYM.CPOS, E_XILLDVFC);
      440     7553    2              ELSE;
      441     7554    2           ELSE /* DVFC='x' */
      442     7555    2            IF OUT$SYM.COUNT > 1
      443     7556    2             OR SUBSTR(OUT$SYM.TEXT, 0, 1) > BINASC(255)
      444     7557    2              THEN
      445     7558    2               CALL POST_ERROR (OUT$SYM.CPOS,E_XILLDVFC);
      446     7559    2        CASE (LD_FID);
      447     7560    2         CALL CNVRT_FID ALTRET(LDEV_ERR);
      448     7561    2         IF FID_RESULTS.RES = %NO#
      449     7562    2           THEN
      450     7563    2            CALL POST_ERROR (OUT$SYM.CPOS,E_XBDSTRFID);
      451     7564    2        CASE (LD_FORM);
      452     7565    2         IF OUT$SYM.COUNT = 0
      453     7566    2           THEN /* Null string */
      454     7567    2            CALL POST_ERROR (OUT$SYM.CPOS,E_XNULLSTRING);
      455     7568    2         IF OUT$SYM.COUNT > 6
      456     7569    2           THEN
      457     7570    2            CALL POST_ERROR (OUT$SYM.CPOS,E_XBIG6CHAR);
      458     7571    2        CASE (LD_HEIGHT);
      459     7572    2         IF VALUE > 15
      460     7573    2           THEN
      461     7574    2            CALL POST_ERROR (OUT$SYM.CPOS,E_XBIG15);
PL6.E3A0      #001=CXX$CONTEXT2 File=CXX$CONTEXT2.:E05TSI                        TUE 07/29/97 12:29 Page:15
      462     7575    2        CASE (LD_INDENT, LD_MARGIN, LD_PAGE, LD_SEQCOL, LD_WIDTH);
      463     7576    2         IF VALUE < 1 OR VALUE > 255
      464     7577    2           THEN
      465     7578    2            CALL POST_ERROR (OUT$SYM.CPOS,E_XRANGE255);
      466     7579    2        CASE (LD_LINES);
      467     7580    2         IF VALUE > 32767
      468     7581    2           THEN
      469     7582    2            CALL POST_ERROR (OUT$SYM.CPOS,E_XBIG32767);
      470     7583    2        CASE (LD_SEQID);
      471     7584    2         IF OUT$SYM.COUNT > 4
      472     7585    2           THEN
      473     7586    2            CALL POST_ERROR (OUT$SYM.CPOS,E_XBIGSEQID);
      474     7587    2        CASE (LD_STNAME);
      475     7588    2         IF OUT$SYM.COUNT ~= 4
      476     7589    2          AND OUT$SYM.TEXT ~= 'LP' AND OUT$SYM.TEXT ~= 'CP'
      477     7590    2          AND OUT$SYM.TEXT ~= 'GR' AND OUT$SYM.TEXT ~= 'UC'
      478     7591    2           THEN
      479     7592    2            CALL POST_ERROR (OUT$SYM.CPOS,E_XBIG4CHAR);
      480     7593    2         IF OUT$SYM.COUNT ~= 4
      481     7594    2           THEN
      482     7595    2            EXIT;
      483     7596    2         IF SUBSTR(OUT$SYM.TEXT,2,1) < '0' OR SUBSTR(OUT$SYM.TEXT,2,1) > '9'
      484     7597    2          OR SUBSTR(OUT$SYM.TEXT,3,1) < '0' OR SUBSTR(OUT$SYM.TEXT,3,1) > '9'
      485     7598    2           THEN
      486     7599    2            CALL POST_ERROR (OUT$SYM.CPOS+2,E_BDCVAL);
      487     7600    2        CASE (LD_TABS);
      488     7601    2         IF OUT$BLK.NSUBLKS > 31
      489     7602    2           THEN
      490     7603    2            CALL POST_ERROR (OUT$BLK.SUBLK$(31)->OUT$SYM.CPOS,E_XTMTABS);
      491     7604    2        CASE (TAB_NUM);
      492     7605    2         IF VALUE > 255 THEN
      493     7606    2            CALL POST_ERROR (OUT$SYM.CPOS,E_XILLTAB);
      494     7607    2        CASE (LD_TITLE);
      495     7608    2         IF OUT$SYM.COUNT > 114 THEN
      496     7609    2            CALL POST_ERROR (OUT$SYM.CPOS+115,E_XRANGE114);
      497     7610    2        CASE (LD_HOLDCOPIES);
      498     7611    2         IF VALUE > 511
PL6.E3A0      #001=CXX$CONTEXT2 File=CXX$CONTEXT2.:E05TSI                        TUE 07/29/97 12:29 Page:16
      499     7612    2           THEN
      500     7613    2            CALL POST_ERROR (OUT$SYM.CPOS, E_XBIG511);
      501     7614    2        END;
      502     7615    1   LDEV_ERR:
      503     7616    1      RETURN;
      504     7617        %EJECT;
PL6.E3A0      #001=CXX$CONTEXT2 File=CXX$CONTEXT2.:E05TSI                        TUE 07/29/97 12:29 Page:17
      505     7618    1   CXX$TERMINAL: ENTRY (OUT$BLK, XUG_GETCMD, CPSL_COMMAND_PARAMETERS, VALUE_OUT);
      506     7619
      507     7620    1      CALL SETUP_AND_DECODE ALTRET (SET_ERR);
      508     7621
      509     7622    2      DO CASE (OUT$BLK.CODE);
      510     7623    2        CASE (SINPUTSZOPT);
      511     7624    2         IF VALUE > 254
      512     7625    2           THEN
      513     7626    2            CALL POST_ERROR (OUT$SYM.CPOS,E_XTESINPUTSZ);
      514     7627    2        CASE (WORDWRAPCLMOPT) ;
      515     7628    2         IF VALUE > 254
      516     7629    2           THEN
      517     7630    2            CALL POST_ERROR (OUT$SYM.CPOS,E_XTEWORDWRAPCLM);
      518     7631    2        CASE (FCNTBLOPT);
      519     7632    2         IF OUT$SYM.COUNT > 8
      520     7633    2           THEN
      521     7634    2            CALL POST_ERROR (OUT$SYM.CPOS,E_XILLFCNTBL);
      522     7635    2        CASE (DSPHEIGHTOPT, HEIGHTOPT, MINRECOPT);
      523     7636    2         IF VALUE > 254
      524     7637    2           THEN
      525     7638    2            CALL POST_ERROR (OUT$SYM.CPOS, E_XBIG254);
      526     7639    2        CASE (WIDTHOPT);
      527     7640    2         IF VALUE > 509
      528     7641    2           THEN
      529     7642    2            CALL POST_ERROR (OUT$SYM.CPOS, E_XBIG509);
      530     7643    2        CASE (CHARSETNAMEOPT);
      531     7644    2         IF OUT$SYM.COUNT > 8
      532     7645    2           THEN
      533     7646    2            CALL POST_ERROR (OUT$SYM.CPOS, E_XBIG8CHAR);
      534     7647    2        END;
      535     7648    1      RETURN;
      536     7649        %EJECT;
PL6.E3A0      #001=CXX$CONTEXT2 File=CXX$CONTEXT2.:E05TSI                        TUE 07/29/97 12:29 Page:18
      537     7650    1   CXX$UNHOLD: ENTRY (OUT$BLK, XUG_GETCMD, CPSL_COMMAND_PARAMETERS, VALUE_OUT);
      538     7651
      539     7652    1      CALL SETUP_AND_DECODE ALTRET (UNHOLD_ERR);
      540     7653
      541     7654    2      DO CASE (OUT$BLK.CODE);
      542     7655    2        CASE (UNHOLD_FID);
      543     7656    2         IF OUT$SYM.COUNT > 31
      544     7657    2           THEN
      545     7658    2            CALL POST_ERROR (OUT$SYM.CPOS+31, E_XBIGNAME);
      546     7659    2        CASE (UNHOLD_JOBNAME);
      547     7660    2         IF OUT$SYM.COUNT > 31
      548     7661    2           THEN
      549     7662    2            CALL POST_ERROR (OUT$SYM.CPOS+31, E_XBIGNAME);
      550     7663    2        CASE (UNHOLD_ACCT);
      551     7664    2         IF OUT$SYM.COUNT > 8
      552     7665    2           THEN
      553     7666    2            CALL POST_ERROR (OUT$SYM.CPOS, E_XBIGACCT);
      554     7667    2        CASE (UNHOLD_SYSID, UNHOLD_STREAM);
      555     7668    2         IF VALUE > 262142
      556     7669    2           THEN
      557     7670    2            CALL POST_ERROR (OUT$SYM.CPOS, E_XBIG262142);
      558     7671    2        END;
      559     7672    1   UNHOLD_ERR:
      560     7673    1      RETURN;
      561     7674        %EJECT;
PL6.E3A0      #001=CXX$CONTEXT2 File=CXX$CONTEXT2.:E05TSI                        TUE 07/29/97 12:29 Page:19
      562     7675    1   CXX$WINDOW: ENTRY (OUT$BLK, XUG_GETCMD, CPSL_COMMAND_PARAMETERS, VALUE_OUT);
      563     7676
      564     7677    1      CALL SETUP_AND_DECODE ALTRET (SET_ERR);
      565     7678
      566     7679    2      DO CASE (OUT$BLK.CODE);
      567     7680
      568     7681    2        CASE (HBRDRSIZOPT, VBRDRSIZOPT);
      569     7682    2         IF VALUE > 15
      570     7683    2           THEN
      571     7684    2            CALL POST_ERROR (OUT$SYM.CPOS, E_XBIG15);
      572     7685    2        CASE (WWIDTHOPT);
      573     7686    2         IF VALUE > 509
      574     7687    2           THEN
      575     7688    2            CALL POST_ERROR (OUT$SYM.CPOS, E_XBIG509);
      576     7689    2        CASE (FWINDOWOPT);
      577     7690    2         IF OUT$SYM.COUNT ~= 4 OR OUT$SYM.TEXT < 'UC00' OR OUT$SYM.TEXT > 'UC99'
      578     7691    2          OR SUBSTR(OUT$SYM.TEXT,3,1) < '0' OR SUBSTR(OUT$SYM.TEXT,3,1) > '9'
      579     7692    2           THEN
      580     7693    2            CALL POST_ERROR (OUT$SYM.CPOS, E_XBADFWINDOW);
      581     7694    2        CASE (MINLENGTHOPT, MINWIDTHOPT, WLENGTHOPT);
      582     7695    2         IF VALUE > 254
      583     7696    2           THEN
      584     7697    2            CALL POST_ERROR (OUT$SYM.CPOS, E_XBIG254);
      585     7698    2        CASE (HBRDRCHROPT, VBRDRCHROPT);
      586     7699    2         IF OUT$SYM.COUNT > 1
      587     7700    2           THEN
      588     7701    2            CALL POST_ERROR (OUT$SYM.CPOS, E_XBIGBORDERCHR);
      589     7702    2        END;
      590     7703
      591     7704    1      RETURN;
      592     7705        %EJECT;
PL6.E3A0      #001=CXX$CONTEXT2 File=CXX$CONTEXT2.:E05TSI                        TUE 07/29/97 12:29 Page:20
      593     7706        /**********************************************************************/
      594     7707        /*I*      NAME:CNVRT_FID
      595     7708                  PURPOSE:  BREAKS UP A FID INTO ITS VARIOUS COMPONENTS
      596     7709                  INPUT:    OUT$SYM
      597     7710                  OUTPUT:   FID into various vlp's
      598     7711                            errors output resulting from M$FID pmme execution
      599     7712        */
      600     7713        /**********************************************************************/
      601     7714    1   CNVRT_FID: PROC ALTRET;
      602     7715        /*
      603     7716          ****    BREAK UP THE FID
      604     7717        */
      605     7718    2      FPT_FID =CPSL_CFPT_FID;
      606     7719    2      FPT_FID.V_=VECTOR(FPT_FID.V);
      607     7720    2      FPT_FID.SN_ = VECTOR(FID_SN);
      608     7721    2      FPT_FID.WSN_ = VECTOR(FID_WSN);
      609     7722    2      FPT_FID.ASN_ = VECTOR(FID_ASN);
      610     7723    2      FPT_FID.RES_ = VECTOR(FID_RES);
      611     7724    2      FPT_FID.NAME_ = VECTOR(FID_NAME);
      612     7725    2      FPT_FID.ACCT_ = VECTOR(FID_ACCT);
      613     7726    2      FPT_FID.PASS_ = VECTOR(FID_PASS);
      614     7727    2      FPT_FID.RESULTS_ = VECTOR(FID_RESULTS);
      615     7728    2      FPT_FID.TEXTFID_ = VECTOR(OUT$SYM.TEXT);
      616     7729    2      CALL M$FID(FPT_FID) ALTRET(CNVRT_FID50);
      617     7730    2      RETURN;
      618     7731    2   CNVRT_FID50:
      619     7732    2      CALL POST_ERROR (OUT$SYM.CPOS,
      620     7733    2       B$TCB.ALT$ -> B$EXCFR.ERR);
      621     7734    2      ALTRETURN;
      622     7735    2   END CNVRT_FID;
      623     7736                 %EJECT;
PL6.E3A0      #001=CXX$CONTEXT2 File=CXX$CONTEXT2.:E05TSI                        TUE 07/29/97 12:29 Page:21
      624     7737        /**********************************************************************/
      625     7738        /*I*      NAME:   CHK_DCBNAME
      626     7739                  PURPOSE: VALIDATE A DCB NAME
      627     7740                  INPUT:   PTR$->P$S
      628     7741                           PTR1$->P$B
      629     7742        */
      630     7743        /**********************************************************************/
      631     7744    1   CHK_DCBNAME: PROC ;
      632     7745    2   DCL I SBIN;
      633     7746    2   DCL 1 FORT_DCBNAME BASED ALIGNED,/* CXB$CHKFORT moves the name back two bytes */
      634     7747    2             2 * BIT(18),
      635     7748    2             2 COUNT UBIN BYTE CALIGNED,
      636     7749    2             2 TEXT CHAR(FORT_DCBNAME.COUNT);
      637     7750
      638     7751
      639     7752        /*
      640     7753          ****    CHECK DCB LENGTH ... CAN'T EXCEED 29 CHARS, IF FORTRAN TYPE.
      641     7754                  OTHERWISE 31 CHARS. MAX.
      642     7755        */
      643     7756    2      I = OUT$SYM.COUNT;
      644     7757    2      IF OUT$SYM.NDTYPE = %DEC#
      645     7758    2        THEN
      646     7759    2         I = I + 2;  /* Need to add F$ for fortran unit numbers */
      647     7760    2      IF OUT$SYM.TEXTC$ ~= ADDR(OUT$SYM.COUNT)
      648     7761    2        THEN
      649     7762    2         I = ADDR(OUT$SYM.TEXTC$)->FORT_DCBNAME.COUNT;
      650     7763    2      IF (I > 31) THEN
      651     7764    2         CALL POST_ERROR(OUT$SYM.CPOS,E_XBIGDCB);
      652     7765    2      IF (OUT$SYM.TEXT = 'M$UC' OR
      653     7766    2       OUT$SYM.TEXT = 'M$LM') THEN
      654     7767    2         CALL POST_ERROR(OUT$SYM.CPOS,E_XILLDCB);
      655     7768    2      RETURN;
      656     7769    2   END CHK_DCBNAME;
      657     7770        %EJECT;
PL6.E3A0      #001=CXX$CONTEXT2 File=CXX$CONTEXT2.:E05TSI                        TUE 07/29/97 12:29 Page:22
      658     7771    1   POST_ERROR: PROC (CPOS, ERRCODE);
      659     7772
      660     7773    2   DCL CPOS UBIN WORD;
      661     7774    2   DCL ERRCODE BIT(36) ALIGNED;
      662     7775
      663     7776    2      CPSL_COMMAND_PARAMETERS.ERRCODE = ERRCODE;
      664     7777    2      CPSL_COMMAND_PARAMETERS.ERR_CPOS = CPOS;
      665     7778
      666     7779    2      IF NOT CPSL_COMMAND_PARAMETERS.FLAGS.INHIBIT_ERRMSG
      667     7780    3        THEN DO;
      668     7781
      669     7782    3         CPSL_COMMAND_PARAMETERS.FLAGS.REPORTED_TO_USER = %YES#;
      670     7783
      671     7784    3         IF CPSL_COMMAND_PARAMETERS.FLAGS.ECHO ~= %DONT_ECHO
      672     7785    4           THEN DO;
      673     7786
      674     7787    4            CPSL_COMMAND_PARAMETERS.FLAGS.ECHO = %DONT_ECHO;
      675     7788
      676     7789    4            CALL CXG$ECHO (XUG_GETCMD);
      677     7790
      678     7791    4            END;
      679     7792
      680     7793    3         XUG_GETCMD.ERR_CODE = ERRCODE;
      681     7794    3         XUG_GETCMD.EPOS# = CPOS;
      682     7795    3         XUG_GETCMD.USE_EPOS# = %YES#;
      683     7796
      684     7797    3         CALL CXG$ERRPTR (XUG_GETCMD);
      685     7798    3         CALL CXG$ERRMSG (XUG_GETCMD);
      686     7799
      687     7800    3         END;
      688     7801
      689     7802    2      RETURN;
      690     7803
      691     7804    2   END POST_ERROR;
      692     7805
      693     7806        %EJECT;
PL6.E3A0      #001=CXX$CONTEXT2 File=CXX$CONTEXT2.:E05TSI                        TUE 07/29/97 12:29 Page:23
      694     7807    1   SETUP_AND_DECODE: PROC ALTRET;
      695     7808
      696     7809    2      IF OUT$BLK.NDTYPE = %LITERAL# OR OUT$BLK.NDTYPE = %DSTRING#
      697     7810    2       OR OUT$BLK.NDTYPE >= %NULL# OR OUT$BLK.NSUBLKS = 0
      698     7811    2        THEN
      699     7812    2         PTR1$ = ADDR(OUT$BLK);
      700     7813    2        ELSE
      701     7814    2         PTR1$ = OUT$BLK.SUBLK$(0);
      702     7815
      703     7816    2      VALUE = -1;
      704     7817
      705     7818    2      IF OUT$BLK.CODE ~= DCBOPT AND OUT$BLK.CODE ~= FIDOPT
      706     7819    2        THEN
      707     7820    2         IF OUT$SYM.NDTYPE = %DEC#
      708     7821    2           THEN
      709     7822    2            CALL CXX$DECBIN(OUT$SYM.COUNT,VALUE) ALTRET(E_DECBIN);
      710     7823    2           ELSE
      711     7824    2            IF OUT$SYM.NDTYPE = %OCT#
      712     7825    2              THEN
      713     7826    2               CALL CXX$OCTBIN(OUT$SYM.COUNT,VALUE) ALTRET(E_DECBIN);
      714     7827
      715     7828    2      IF ADDR(VALUE_OUT) ~= ADDR(NIL)
      716     7829    2        THEN
      717     7830    2         VALUE_OUT = VALUE;
      718     7831
      719     7832    2      RETURN;
      720     7833
      721     7834    2   E_DECBIN: CALL POST_ERROR (OUT$SYM.CPOS, E_BDCVAL);
      722     7835
      723     7836    2      ALTRETURN;
      724     7837
      725     7838    2   END SETUP_AND_DECODE;
      726     7839
      727     7840    1   END CXX$CONTEXT2;
      728     7841        %EOD;

PL6.E3A0      #001=CXX$CONTEXT2 File=CXX$CONTEXT2.:E05TSI                        TUE 07/29/97 12:29 Page:24
--  Include file information  --

   CXG_ENTRY.:E05TOU  cannot be made into a system file and is referenced.
   UM_ERRORS_C.:E05TOU  is referenced.
   B$JIT.:E05TOU  cannot be made into a system file and is referenced.
   XU_SUBS_C.:E05TOU  is referenced.
   XU_MACRO_C.:E05TOU  is referenced.
   CP_6_SUBS.:E05TOU  is referenced.
   CP_6.:E05TOU  cannot be made into a system file and is referenced.
   CX_MACROS_M.:E05TOU  is referenced.
   CX_PERR_C.:E05TOU  is referenced.
   CX_SUBS_C.:E05TOU  is referenced.
   CX_ISUBS_C.:E05TOU  is referenced.
   B$JIT_C.:E05TOU  was found in the system file and is referenced.
   CP_6_C.:E05TOU  was found in the system file and is referenced.
      No diagnostics issued in procedure CXX$CONTEXT2.

   Procedure CXX$CONTEXT2 requires 1859 words for executable code.
   Procedure CXX$CONTEXT2 requires 154 words of local(AUTO) storage.

PL6.E3A0      #001=CXX$CONTEXT2 File=CXX$CONTEXT2.:E05TSI                        TUE 07/29/97 12:29 Page:25

 Object Unit name= CXX$CONTEXT2                               File name= CXX$CONTEXT2.:E05TOU
 UTS= JUL 29 '97 12:29:20.08 TUE                              Compiler= PL-6/E31         Sev=      00
 SharedLib= :SHARED_SYSTEM                                    Alt SharedLib=


    ****  Control sections  ****

 Sect   Type Bound  Init  Size OctSiz  Section name(segment info)
    0   DCB   even  none     0      0  M$UC
    1  RoData even  UTS     76    114  CXX$CONTEXT2
    2   Proc  even  none  1859   3503  CXX$CONTEXT2
    3  RoData even  none    48     60  CXX$CONTEXT2

    ****  Entry defs  ****

                              Check   Calling
                             calling  sequence
  Sect OctLoc Primary Altret sequence   type   Parms  Name
     2      0   yes            yes      Std        4  CXX$CONTEXT2
     2      3                  yes      Std        4  CXX$SET
     2   1345                  yes      Std        4  CXX$RESET
     2   1362                  yes      Std        4  CXX$LDEV
     2   2427                  yes      Std        4  CXX$TERMINAL
     2   2656                  yes      Std        4  CXX$UNHOLD
     2   2763                  yes      Std        4  CXX$WINDOW
PL6.E3A0      #001=CXX$CONTEXT2 File=CXX$CONTEXT2.:E05TSI                        TUE 07/29/97 12:29 Page:26

  ****  Entry refs  ****

         Check        Calling
        calling       sequence
Altret sequence SRef   type   Args  Name
 yes     yes           Std       1 CXG$ECHO
 yes     yes           Std       1 CXG$ERRPTR
 yes     yes           Std       1 CXG$ERRMSG
 yes     yes           Std       2 CXX$DECBIN
 yes     yes           Std       2 CXX$OCTBIN
                       nStd      0 X66_AUTO_4
                       Std       0 B_CONSPOOL_D
                       nStd      0 X66_ARET

  ****  Data refs  ****

  Flags:  r = read only, s = secondary
Flgs Name                             Flgs Name                             Flgs Name
     M$UC                                  B$JIT$                                B$TCB$
     B_VECTNIL

  ****  Segment refs  ****

  Flags:  r = read only, s = secondary
Flgs Name                             Flgs Name                             Flgs Name
     ISSID                                 NULLSID
PL6.E3A0      #001=CXX$CONTEXT2 File=CXX$CONTEXT2.:E05TSI                        TUE 07/29/97 12:29 Page:27


        1        1        /*M*    CXX$CONTEXT2    subroutine which checks for context errors for IBEX
        2        2                                IBEX Shared Library.                                 */
        3        3        /*T***********************************************************/
        4        4        /*T*                                                         */
        5        5        /*T* Copyright (c) Bull HN Information Systems Inc., 1997    */
        6        6        /*T*                                                         */
        7        7        /*T***********************************************************/
        8        8        /*X* DMC, PLM=3, CTI=1, CSI=2, ECI=2, MCI=YES, SDI=6, THI=2 */
        9        9        /*P*    NAME: CXX$CONTEXT2
       10       10                PURPOSE: To check for context errors for IBEX Shared Library.         */
       11       11        /******************************************************************************/
       12       12        CXX$CONTEXT2:
       13       13           PROC (OUT$BLK, XUG_GETCMD, CPSL_COMMAND_PARAMETERS, VALUE_OUT);

     13  2 000000   000000 700200 xent  CXX$CONTEXT2 TSX0  ! X66_AUTO_4
         2 000001   000232 000004                    ZERO    154,4
         2 000002   000005 710000 2                  TRA     s:7363

       14       14        /***** Include files *****/
       15       15          %INCLUDE CX_ISUBS_C ;
       16      367          %INCLUDE CX_SUBS_C ;
       17      380          %INCLUDE CX_PERR_C ;
       18      451          %INCLUDE CX_MACROS_M ;
       19      502          %INCLUDE CP_6 ;
       20      583          %INCLUDE CP_6_SUBS ;
       21     1123          %INCLUDE XU_MACRO_C ;
       22     4229          %INCLUDE XU_SUBS_C ;
       23     4321          %INCLUDE B$JIT ;
       24     4611          %INCLUDE UM_ERRORS_C ;
       25     4645
       26     4646        /*****  Parameters *****/
       27     4647
       28     4648          %PARSE$OUT (NAME=OUT$BLK, STCLASS=PARAM);
       29     4693          %XUG_GETCMD (NAME=XUG_GETCMD, STCLASS=PARAM);
       30     5031        %CPSL_COMMAND_PARAMETERS (NAME=CPSL_COMMAND_PARAMETERS, STCLASS=PARAM);
       31     5049    1   DCL VALUE_OUT SBIN WORD;
PL6.E3A0      #001=CXX$CONTEXT2 File=CXX$CONTEXT2.:E05TSI                        TUE 07/29/97 12:29 Page:28
       32     5050    1   DCL VALUE_OUT_REDEF(0:3) REDEF VALUE_OUT CHAR(1);
       33     5051
       34     5052        /*****  Fpts  *****/
       35     5053
       36     5054          %PARSE$SYM (NAME=OUT$SYM,STCLASS="BASED(PTR1$)",SCRMODE="BIT(18)") ;
       37     5092          %FPT_FID (FPTN=FPT_FID, STCLASS=AUTO) ;
       38     5115          %VLR_FID (FPTN=FID_RESULTS,STCLASS=AUTO);
       39     5134          %VLP_NAME (FPTN=FID_NAME,STCLASS=AUTO,LEN=31);
       40     5161          %VLP_SN (FPTN=FID_SN,STCLASS=AUTO,N=50);
       41     5174          %VLP_ACCT (FPTN=FID_ACCT,STCLASS=AUTO);
       42     5187          %VLP_PASS (FPTN=FID_PASS,STCLASS=AUTO);
       43     5200          %VLP_WSN (FPTN=FID_WSN,STCLASS=AUTO);
       44     5213        /*****  Constant  *****/
       45     5214          %FPT_FID (FPTN=CPSL_CFPT_FID, STCLASS=CONSTANT) ;
       46     5237        /*****  External routines  *****/
       47     5238        %INCLUDE CXG_ENTRY; /* Entry DCLs for CXG$GETCMD */
       48     5250    1   DCL CXP$POSTERR ENTRY(5) ;
       49     5251    1   DCL CXX$DECBIN ENTRY(2) ALTRET ;
       50     5252    1   DCL CXX$OCTBIN ENTRY(2) ALTRET ;
       51     5253        /*****  Based structures  *****/
       52     5254          %B$TCB (STCLASS="BASED(B$TCB$)") ;
       53     5257          %B$EXCFR ;
       54     5275        /*****  Error Msgs  *****/
       55     5276        %VLP_ERRCODE (FPTN=E_XBIGDCB,ERR#=E$XBIGDCB,FCG=CX,MID=X,STCLASS=CONSTANT);
       56     5321        /*E*   ERROR: CXX-E$XBIGDCB-0
       57     5322                MESSAGE: DCB name greater than 31 characters
       58     5323        */
       59     5324        %VLP_ERRCODE (FPTN=E_XILLDCB,ERR#=E$XILLDCB,FCG=CX,MID=X,STCLASS=CONSTANT);
       60     5369        /*E*   ERROR: CXX-E$XILLDCB-0
       61     5370                MESSAGE: Illegal dcb name specified
       62     5371                MESSAGE1: DCB names M$UC and M$LM disallowed
       63     5372        */
       64     5373        %VLP_ERRCODE (FPTN=E_XBIG99999,ERR#=E$XBIG99999,FCG=CX,MID=X,STCLASS=CONSTANT);
       65     5418        /*E*   ERROR: CXX-E$XBIG99999-0
       66     5419                MESSAGE: Value specified greater than 99999
       67     5420        */
       68     5421        %VLP_ERRCODE (FPTN=E_XBIG262142,ERR#=E$XBIG262142,FCG=CX,MID=X,STCLASS=CONSTANT);
PL6.E3A0      #001=CXX$CONTEXT2 File=CXX$CONTEXT2.:E05TSI                        TUE 07/29/97 12:29 Page:29
       69     5466        /*E*   ERROR: CXX-E$XBIG262142-0
       70     5467                MESSAGE: Value specified greater than 262142
       71     5468        */
       72     5469        %VLP_ERRCODE (FPTN=E_XBIG32000,ERR#=E$XBIG32000,FCG=CX,MID=X,STCLASS=CONSTANT);
       73     5514        /*E*   ERROR: CXX-E$XBIG32000-0
       74     5515                MESSAGE: Value specified greater than 32000
       75     5516        */
       76     5517        %VLP_ERRCODE (FPTN=E_BDCVAL,ERR#=E$BDCVAL,FCG=CX,MID=X,STCLASS=CONSTANT);
       77     5562        /*E*    ERROR: CXX-E$BDCVAL-0
       78     5563                MESSAGE: Illegal decimal value
       79     5564        */
       80     5565        %VLP_ERRCODE (FPTN=E_XBIG32764,ERR#=E$XBIG32764,FCG=CX,MID=X,STCLASS=CONSTANT);
       81     5610        /*E*   ERROR: CXX-E$XBIG32764-0
       82     5611                MESSAGE: Value specified greater than 32764
       83     5612        */
       84     5613        %VLP_ERRCODE (FPTN=E_XBIGEXP,ERR#=E$XBIGEXP,FCG=CX,MID=X,STCLASS=CONSTANT);
       85     5658        /*E*   ERROR: CXX-E$XBIGEXP-0
       86     5659                MESSAGE: EXPIRE value exceeds user maximum
       87     5660                MESSAGE1: EXPIRE exceeds the maximum authorized in :USERS record
       88     5661        */
       89     5662        %VLP_ERRCODE (FPTN=E_XRANGE255,ERR#=E$XRANGE255,FCG=CX,MID=X,STCLASS=CONSTANT);
       90     5707        /*E*   ERROR: CXX-E$XRANGE255-0
       91     5708                MESSAGE: Value must be in the range of 1 to 255
       92     5709        */
       93     5710        %VLP_ERRCODE (FPTN=E_XBIG509,ERR#=E$XBIG509,FCG=CX,MID=X,STCLASS=CONSTANT);
       94     5755        /*E*   ERROR: CXX-E$XBIG509-0
       95     5756                MESSAGE: Value must be <= 509
       96     5757        */
       97     5758        %VLP_ERRCODE (FPTN=E_XBIG511,ERR#=E$XBIG511,FCG=CX,MID=X,STCLASS=CONSTANT);
       98     5803        /*E*   ERROR: CXX-E$XBIG511-0
       99     5804                MESSAGE: Value specified greater than 511
      100     5805        */
      101     5806        %VLP_ERRCODE (FPTN=E_XRANGE511,ERR#=E$XRANGE511,FCG=CX,MID=X,STCLASS=CONSTANT);
      102     5851        /*E*   ERROR: CXX-E$XRANGE511-0
      103     5852                MESSAGE: Value must be in the range of 1 to 511
      104     5853        */
      105     5854       %VLP_ERRCODE (FPTN=E_XBIGACCT,ERR#=%E$BADACCT,FCG=UM,MID=F,MON='1'B,STCLASS=CONSTANT
PL6.E3A0      #001=CXX$CONTEXT2 File=CXX$CONTEXT2.:E05TSI                        TUE 07/29/97 12:29 Page:30
              5854            );
      106     5899        %VLP_ERRCODE (FPTN=E_XBIGNAME,ERR#=E$XBIGNAME,FCG=CX,MID=X,STCLASS=CONSTANT);
      107     5944        /*E*   ERROR: CXX-E$XBIGNAME-0
      108     5945                MESSAGE: Jobname greater than 31 characters
      109     5946        */
      110     5947        %VLP_ERRCODE (FPTN=E_XBIGSNUM,ERR#=E$XBIGSNUM,FCG=CX,MID=X,STCLASS=CONSTANT);
      111     5992        /*E*   ERROR: CXX-E$XBIGSNUM-0
      112     5993                MESSAGE: Serial number greater than 6 characters
      113     5994        */
      114     5995        %VLP_ERRCODE (FPTN=E_XBIG6CHAR,FCG=CX,MID=X,ERR#=E$XBIG6CHAR,STCLASS=CONSTANT);
      115     6040        /*E*    ERROR: CXX-E$XBIG6CHAR-0
      116     6041                MESSAGE: Only six or less characters allowed.
      117     6042        */
      118     6043        %VLP_ERRCODE (FPTN=E_XBIG8CHAR,FCG=CX,MID=X,ERR#=E$XBIG8CHAR,STCLASS=CONSTANT);
      119     6088        /*E*    ERROR: CXX-E$XBIG8CHAR-0
      120     6089                MESSAGE: Only eight or less characters allowed.
      121     6090        */
      122     6091        %VLP_ERRCODE (FPTN=E_XWILDCHAR,FCG=CX,MID=X,ERR#=E$XWILDCHAR,STCLASS=CONSTANT);
      123     6136        /*E*    ERROR: CXX-E$XWILDCHAR-0
      124     6137                MESSAGE: ? permitted only as the last character
      125     6138        */
      126     6139        %VLP_ERRCODE (FPTN=E_XBIGSEED,ERR#=E$XBIGSEED,FCG=CX,MID=X,STCLASS=CONSTANT);
      127     6184        /*E*   ERROR: CXX-E$XBIGSEED-0
      128     6185                MESSAGE: SEED greater than 4 characters or 12 octal digits
      129     6186        */
      130     6187        %VLP_ERRCODE (FPTN=E_XBIG255,ERR#=E$XBIG255,FCG=CX,MID=X,STCLASS=CONSTANT);
      131     6232        /*E*    ERROR: CXX-E$XBIG255-0
      132     6233                MESSAGE: Value specified greater than 255
      133     6234        */
      134     6235        %VLP_ERRCODE (FPTN=E_XRANGE114,ERR#=E$XRANGE114,FCG=CX,MID=X,STCLASS=CONSTANT);
      135     6280        /*E*    ERROR: CXX-E$XRANGE114-0
      136     6281                MESSAGE: TITLE greater than 114 characters
      137     6282        */
      138     6283        %VLP_ERRCODE (FPTN=E_XRANGESBIN,ERR#=E$XRANGESBIN,FCG=CX,MID=X,STCLASS=CONSTANT);
      139     6328        /*E*    ERROR: CXX-E$XRANGESBIN-0
      140     6329                MESSAGE: Value must be in the range of 1 to 2**35-1
      141     6330        */
PL6.E3A0      #001=CXX$CONTEXT2 File=CXX$CONTEXT2.:E05TSI                        TUE 07/29/97 12:29 Page:31
      142     6331        %VLP_ERRCODE (FPTN=E_XBIG15,ERR#=E$XBIG15,FCG=CX,MID=X,STCLASS=CONSTANT);
      143     6376        /*E*    ERROR: CXX-E$XBIG15-0
      144     6377                MESSAGE: Value specified greater than 15
      145     6378        */
      146     6379        %VLP_ERRCODE (FPTN=E_XBIGTYPE,ERR#=E$XBIGTYPE,FCG=CX,MID=X,STCLASS=CONSTANT);
      147     6424        /*E*    ERROR: CXX-E$XBIGTYPE-0
      148     6425                MESSAGE: TYPE greater than 2 characters
      149     6426        */
      150     6427        %VLP_ERRCODE (FPTN=E_XILLDVFC,ERR#=E$XILLDVFC,FCG=CX,MID=X,STCLASS=CONSTANT);
      151     6472        /*E*    ERROR: CXX-E$XILLDVFC-0
      152     6473                MESSAGE: Illegal VFC character specified
      153     6474                MESSAGE1: VFC information must be a single character (specified
      154     6475                          as a string, or in octal) whose ASCII value lies in the range
      155     6476                          of 0 to 255.
      156     6477        */
      157     6478        %VLP_ERRCODE (FPTN=E_XILLCHAIN,ERR#=E$XILLCHAIN,FCG=CX,MID=X,STCLASS=CONSTANT);
      158     6523        /*E*    ERROR: CXX-E$XILLCHAIN-0
      159     6524                MESSAGE: Value must be int the range of 2 to 128
      160     6525        */
      161     6526        %VLP_ERRCODE (FPTN=E_XRANGE9999,ERR#=E$XRANGE9999,FCG=CX,MID=X,STCLASS=CONSTANT);
      162     6571        /*E*    ERROR: CXX-E$XRANGE9999-0
      163     6572                MESSAGE: Value must be in the range of 1 to 9999
      164     6573        */
      165     6574        %VLP_ERRCODE (FPTN=E_XBIGSEQID,ERR#=E$XBIGSEQID,FCG=CX,MID=X,STCLASS=CONSTANT);
      166     6619        /*E*    ERROR: CXX-E$XBIGSEQID-0
      167     6620                MESSAGE: SEQID greater than 4 characters
      168     6621        */
      169     6622        %VLP_ERRCODE (FPTN=E_XNULLSTRING,ERR#=E$XNULLSTRING,FCG=CX,MID=X,STCLASS=CONSTANT);
      170     6667        /*E*    ERROR: CXX-E$XNULLSTRING-0
      171     6668                MESSAGE: NULL STRING not allowed
      172     6669        */
      173     6670        %VLP_ERRCODE (FPTN=E_XTMTABS,FCG=CX,MID=X,ERR#=E$XTMTABS,STCLASS=CONSTANT);
      174     6715        /*E*    ERROR: CXX-E$XTMTABS-0
      175     6716                MESSAGE: Only 31 tabs allowed.
      176     6717        */
      177     6718        %VLP_ERRCODE (FPTN=E_XILLTAB,FCG=CX,MID=X,ERR#=E$XILLTAB,STCLASS=CONSTANT);
      178     6763        /*E*    ERROR: CXX-E$XILLTAB-0
PL6.E3A0      #001=CXX$CONTEXT2 File=CXX$CONTEXT2.:E05TSI                        TUE 07/29/97 12:29 Page:32
      179     6764                MESSAGE: TABS must be 255 or less
      180     6765        */
      181     6766        %VLP_ERRCODE (FPTN=E_XBDSTRFID,ERR#=E$XBDSTRFID,FCG=CX,MID=X,STCLASS=CONSTANT);
      182     6811        /*E*    ERROR: CXX-E$XBDSTRFID-0
      183     6812                MESSAGE: LDEV fid does not specify a valid device destination.
      184     6813        */
      185     6814        %VLP_ERRCODE (FPTN=E_XBIG4CHAR,ERR#=E$XBIG4CHAR,FCG=CX,MID=X,STCLASS=CONSTANT);
      186     6859        /*E*    ERROR: CXX-E$XBIG4CHAR-0
      187     6860                MESSAGE: A stream name must be 4 characters long, LP, CP, GR, or UC.
      188     6861        */
      189     6862        %VLP_ERRCODE (FPTN=E_XBIG32767,ERR#=E$XBIG32767,FCG=CX,MID=X,STCLASS=CONSTANT);
      190     6907        /*E*    ERROR: CXX-E$XBIG32767-0
      191     6908                MESSAGE: Value must be no greater than 32767.
      192     6909        */
      193     6910        %VLP_ERRCODE (FPTN=E_XTESINPUTSZ,FCG=CX,MID=X,ERR#=E$XTESINPUTSZ,STCLASS=CONSTANT);
      194     6955        /*E*    ERROR: CXX-E$XTESINPUTSZ-0
      195     6956                MESSAGE: SINPUTSZ must be <= 254.
      196     6957        */
      197     6958        %VLP_ERRCODE (FPTN=E_XTEWORDWRAPCLM,FCG=CX,MID=X,ERR#=E$XTEWORDWRAPCLM,STCLASS=
              6958            CONSTANT);
      198     7003        /*E*    ERROR: CXX-E$XTEWORDWRAPCLM-0
      199     7004                MESSAGE: WORDWRAPCLM must be <= 254.
      200     7005        */
      201     7006        %VLP_ERRCODE (FPTN=E_XILLFCNTBL,FCG=CX,MID=X,ERR#=E$XILLFCNTBL,STCLASS=CONSTANT);
      202     7051        /*E*    ERROR: CXX-E$XILLFCNTBL-0
      203     7052                MESSAGE: FCNTBL text must be 8 chars or less
      204     7053        */
      205     7054        %VLP_ERRCODE (FPTN=E_XBIGPROFILE,FCG=CX,MID=X,ERR#=E$XBIGPROFILE,STCLASS=CONSTANT);
      206     7099        /*E*    ERROR: CXX-E$XBIGPROFILE-0
      207     7100                MESSAGE: The length of a PROFILE name must be <= 11 characters.
      208     7101        */
      209     7102        %VLP_ERRCODE (FPTN=E_XBIG254,FCG=CX,MID=X,ERR#=E$XBIG254,STCLASS=CONSTANT);
      210     7147        /*E*    ERROR: CXX-E$XBIG254-0
      211     7148                MESSAGE: Value must be <= 254.
      212     7149        */
      213     7150        %VLP_ERRCODE (FPTN=E_XRANGE2097152,FCG=CX,MID=X,ERR#=E$XRANGE2097152,STCLASS=
              7150            CONSTANT);
PL6.E3A0      #001=CXX$CONTEXT2 File=CXX$CONTEXT2.:E05TSI                        TUE 07/29/97 12:29 Page:33
      214     7195        /*E*    ERROR: CXX-E$XRANGE2097152-0
      215     7196                MESSAGE: Value must be in the range of 1 to 2097152.
      216     7197        */
      217     7198        %VLP_ERRCODE (FPTN=E_XRANGE16384,FCG=CX,MID=X,ERR#=E$XRANGE16384,STCLASS=CONSTANT);
      218     7243        /*E*    ERROR: CXX-E$XRANGE16384-0
      219     7244                MESSAGE: Value must be in the range of 1 to 16384.
      220     7245        */
      221     7246        %VLP_ERRCODE (FPTN=E_XBIGBORDERCHR,FCG=CX,MID=X,ERR#=E$XBIGBORDERCHR,STCLASS=
              7246            CONSTANT);
      222     7291        /*E*    ERROR: CXX-E$XBIGBORDERCHR-0
      223     7292                MESSAGE: Only a single character may be specified for window borders.
      224     7293        */
      225     7294        %VLP_ERRCODE (FPTN=E_XBADFWINDOW,ERR#=E$XBADFWINDOW,FCG=CX,MID=X,STCLASS=CONSTANT);
      226     7339        /*E*    ERROR: CXX-E$XBADFWINDOW-0
      227     7340                MESSAGE: FWINDOW must be a UC stream name
      228     7341        */
      229     7342
      230     7343        /*****  SYMREFs  *****/
      231     7344
      232     7345    1   DCL B$JIT$ PTR SYMREF ;
      233     7346    1   DCL B$TCB$ PTR SYMREF ;
      234     7347        /*****  Auto Data  *****/
      235     7348    1   DCL PTR$ PTR AUTO ;
      236     7349    1   DCL PTR1$ PTR AUTO ;
      237     7350    1   DCL VALUE SBIN WORD AUTO ;
      238     7351    1   DCL INDX UBIN WORD AUTO ;
      239     7352    1   DCL FID_ASN UBIN(9) ;
      240     7353    1   DCL FID_RES CHAR(4) ;
      241     7354    1   DCL SBINMAX_O BIT(36) CONSTANT INIT('377777777777'O) ;
      242     7355    1   DCL SBINMAX REDEF SBINMAX_O SBIN WORD ;
      243     7356
      244     7357        /*****  AUTO  *****/
      245     7358
      246     7359    1   DCL I UBIN WORD;
      247     7360        %EJECT;
PL6.E3A0      #001=CXX$CONTEXT2 File=CXX$CONTEXT2.:E05TSI                        TUE 07/29/97 12:29 Page:34
      248     7361    1   CXX$SET: ENTRY (OUT$BLK, XUG_GETCMD, CPSL_COMMAND_PARAMETERS, VALUE_OUT);

   7361  2 000003   000000 700200 xent  CXX$SET      TSX0  ! X66_AUTO_4
         2 000004   000232 000004                    ZERO    154,4

      249     7362
      250     7363    1      CALL SETUP_AND_DECODE ALTRET (SET_ERR);

   7363  2 000005   003400 701000 2                  TSX1    SETUP_AND_DECODE
         2 000006   001344 702000 2                  TSX2    SET_ERR

      251     7364
      252     7365    2   CXX$SET5: DO CASE(OUT$BLK.CODE);

   7365  2 000007   200003 470500       CXX$SET5     LDP0    @OUT$BLK,,AUTO
         2 000010   000000 236100                    LDQ     0,,PR0
         2 000011   777777 376007                    ANQ     -1,DL
         2 000012   000020 136007                    SBLQ    16,DL
         2 000013   000447 116007                    CMPQ    295,DL
         2 000014   000016 602006 2                  TNC     CXX$SET5+7,QL
         2 000015   001344 710000 2                  TRA     SET_ERR
         2 000016   000465 710000 2                  TRA     s:7367
         2 000017   001344 710000 2                  TRA     SET_ERR
         2 000020   001344 710000 2                  TRA     SET_ERR
         2 000021   001344 710000 2                  TRA     SET_ERR
         2 000022   001344 710000 2                  TRA     SET_ERR
         2 000023   001344 710000 2                  TRA     SET_ERR
         2 000024   001344 710000 2                  TRA     SET_ERR
         2 000025   001344 710000 2                  TRA     SET_ERR
         2 000026   001344 710000 2                  TRA     SET_ERR
         2 000027   001344 710000 2                  TRA     SET_ERR
         2 000030   001344 710000 2                  TRA     SET_ERR
         2 000031   001344 710000 2                  TRA     SET_ERR
         2 000032   001344 710000 2                  TRA     SET_ERR
         2 000033   000521 710000 2                  TRA     s:7383
         2 000034   001344 710000 2                  TRA     SET_ERR
         2 000035   001344 710000 2                  TRA     SET_ERR
PL6.E3A0      #001=CXX$CONTEXT2 File=CXX$CONTEXT2.:E05TSI                        TUE 07/29/97 12:29 Page:35
         2 000036   001344 710000 2                  TRA     SET_ERR
         2 000037   001344 710000 2                  TRA     SET_ERR
         2 000040   001344 710000 2                  TRA     SET_ERR
         2 000041   001344 710000 2                  TRA     SET_ERR
         2 000042   001344 710000 2                  TRA     SET_ERR
         2 000043   001344 710000 2                  TRA     SET_ERR
         2 000044   001344 710000 2                  TRA     SET_ERR
         2 000045   001344 710000 2                  TRA     SET_ERR
         2 000046   001344 710000 2                  TRA     SET_ERR
         2 000047   001074 710000 2                  TRA     s:7469
         2 000050   001344 710000 2                  TRA     SET_ERR
         2 000051   001344 710000 2                  TRA     SET_ERR
         2 000052   001344 710000 2                  TRA     SET_ERR
         2 000053   001344 710000 2                  TRA     SET_ERR
         2 000054   001344 710000 2                  TRA     SET_ERR
         2 000055   001344 710000 2                  TRA     SET_ERR
         2 000056   000534 710000 2                  TRA     s:7386
         2 000057   001344 710000 2                  TRA     SET_ERR
         2 000060   001141 710000 2                  TRA     s:7481
         2 000061   001344 710000 2                  TRA     SET_ERR
         2 000062   001171 710000 2                  TRA     s:7488
         2 000063   001344 710000 2                  TRA     SET_ERR
         2 000064   000777 710000 2                  TRA     s:7441
         2 000065   000777 710000 2                  TRA     s:7441
         2 000066   001344 710000 2                  TRA     SET_ERR
         2 000067   001344 710000 2                  TRA     SET_ERR
         2 000070   001344 710000 2                  TRA     SET_ERR
         2 000071   001344 710000 2                  TRA     SET_ERR
         2 000072   001344 710000 2                  TRA     SET_ERR
         2 000073   001344 710000 2                  TRA     SET_ERR
         2 000074   001012 710000 2                  TRA     s:7448
         2 000075   000727 710000 2                  TRA     s:7432
         2 000076   001344 710000 2                  TRA     SET_ERR
         2 000077   001344 710000 2                  TRA     SET_ERR
         2 000100   001344 710000 2                  TRA     SET_ERR
         2 000101   001344 710000 2                  TRA     SET_ERR
         2 000102   001344 710000 2                  TRA     SET_ERR
PL6.E3A0      #001=CXX$CONTEXT2 File=CXX$CONTEXT2.:E05TSI                        TUE 07/29/97 12:29 Page:36
         2 000103   001012 710000 2                  TRA     s:7448
         2 000104   000762 710000 2                  TRA     s:7438
         2 000105   001344 710000 2                  TRA     SET_ERR
         2 000106   000727 710000 2                  TRA     s:7432
         2 000107   000506 710000 2                  TRA     s:7380
         2 000110   001344 710000 2                  TRA     SET_ERR
         2 000111   000506 710000 2                  TRA     s:7380
         2 000112   001344 710000 2                  TRA     SET_ERR
         2 000113   001344 710000 2                  TRA     SET_ERR
         2 000114   000615 710000 2                  TRA     s:7403
         2 000115   000615 710000 2                  TRA     s:7403
         2 000116   001344 710000 2                  TRA     SET_ERR
         2 000117   000727 710000 2                  TRA     s:7432
         2 000120   000615 710000 2                  TRA     s:7403
         2 000121   001237 710000 2                  TRA     s:7498
         2 000122   001012 710000 2                  TRA     s:7448
         2 000123   001344 710000 2                  TRA     SET_ERR
         2 000124   000762 710000 2                  TRA     s:7438
         2 000125   001344 710000 2                  TRA     SET_ERR
         2 000126   001344 710000 2                  TRA     SET_ERR
         2 000127   001012 710000 2                  TRA     s:7448
         2 000130   001344 710000 2                  TRA     SET_ERR
         2 000131   001012 710000 2                  TRA     s:7448
         2 000132   000714 710000 2                  TRA     s:7426
         2 000133   001237 710000 2                  TRA     s:7498
         2 000134   001344 710000 2                  TRA     SET_ERR
         2 000135   001344 710000 2                  TRA     SET_ERR
         2 000136   001222 710000 2                  TRA     s:7494
         2 000137   001344 710000 2                  TRA     SET_ERR
         2 000140   001344 710000 2                  TRA     SET_ERR
         2 000141   000473 710000 2                  TRA     s:7375
         2 000142   001344 710000 2                  TRA     SET_ERR
         2 000143   001344 710000 2                  TRA     SET_ERR
         2 000144   001267 710000 2                  TRA     s:7506
         2 000145   001344 710000 2                  TRA     SET_ERR
         2 000146   001253 710000 2                  TRA     s:7502
         2 000147   000727 710000 2                  TRA     s:7432
PL6.E3A0      #001=CXX$CONTEXT2 File=CXX$CONTEXT2.:E05TSI                        TUE 07/29/97 12:29 Page:37
         2 000150   001205 710000 2                  TRA     s:7491
         2 000151   001344 710000 2                  TRA     SET_ERR
         2 000152   001344 710000 2                  TRA     SET_ERR
         2 000153   001344 710000 2                  TRA     SET_ERR
         2 000154   001344 710000 2                  TRA     SET_ERR
         2 000155   000602 710000 2                  TRA     s:7396
         2 000156   000666 710000 2                  TRA     s:7417
         2 000157   001344 710000 2                  TRA     SET_ERR
         2 000160   000743 710000 2                  TRA     s:7435
         2 000161   001057 710000 2                  TRA     s:7466
         2 000162   001344 710000 2                  TRA     SET_ERR
         2 000163   001344 710000 2                  TRA     SET_ERR
         2 000164   001344 710000 2                  TRA     SET_ERR
         2 000165   001344 710000 2                  TRA     SET_ERR
         2 000166   001344 710000 2                  TRA     SET_ERR
         2 000167   001344 710000 2                  TRA     SET_ERR
         2 000170   001344 710000 2                  TRA     SET_ERR
         2 000171   001344 710000 2                  TRA     SET_ERR
         2 000172   001344 710000 2                  TRA     SET_ERR
         2 000173   001344 710000 2                  TRA     SET_ERR
         2 000174   001344 710000 2                  TRA     SET_ERR
         2 000175   001344 710000 2                  TRA     SET_ERR
         2 000176   001344 710000 2                  TRA     SET_ERR
         2 000177   000615 710000 2                  TRA     s:7403
         2 000200   001344 710000 2                  TRA     SET_ERR
         2 000201   001344 710000 2                  TRA     SET_ERR
         2 000202   001344 710000 2                  TRA     SET_ERR
         2 000203   001344 710000 2                  TRA     SET_ERR
         2 000204   000506 710000 2                  TRA     s:7380
         2 000205   001344 710000 2                  TRA     SET_ERR
         2 000206   000615 710000 2                  TRA     s:7403
         2 000207   001344 710000 2                  TRA     SET_ERR
         2 000210   001344 710000 2                  TRA     SET_ERR
         2 000211   001344 710000 2                  TRA     SET_ERR
         2 000212   001344 710000 2                  TRA     SET_ERR
         2 000213   001344 710000 2                  TRA     SET_ERR
         2 000214   001344 710000 2                  TRA     SET_ERR
PL6.E3A0      #001=CXX$CONTEXT2 File=CXX$CONTEXT2.:E05TSI                        TUE 07/29/97 12:29 Page:38
         2 000215   001344 710000 2                  TRA     SET_ERR
         2 000216   001344 710000 2                  TRA     SET_ERR
         2 000217   001344 710000 2                  TRA     SET_ERR
         2 000220   001344 710000 2                  TRA     SET_ERR
         2 000221   001344 710000 2                  TRA     SET_ERR
         2 000222   001344 710000 2                  TRA     SET_ERR
         2 000223   001344 710000 2                  TRA     SET_ERR
         2 000224   001344 710000 2                  TRA     SET_ERR
         2 000225   001344 710000 2                  TRA     SET_ERR
         2 000226   001344 710000 2                  TRA     SET_ERR
         2 000227   001344 710000 2                  TRA     SET_ERR
         2 000230   001344 710000 2                  TRA     SET_ERR
         2 000231   001344 710000 2                  TRA     SET_ERR
         2 000232   001344 710000 2                  TRA     SET_ERR
         2 000233   001344 710000 2                  TRA     SET_ERR
         2 000234   001344 710000 2                  TRA     SET_ERR
         2 000235   001344 710000 2                  TRA     SET_ERR
         2 000236   001344 710000 2                  TRA     SET_ERR
         2 000237   001344 710000 2                  TRA     SET_ERR
         2 000240   001344 710000 2                  TRA     SET_ERR
         2 000241   001344 710000 2                  TRA     SET_ERR
         2 000242   001344 710000 2                  TRA     SET_ERR
         2 000243   001344 710000 2                  TRA     SET_ERR
         2 000244   001344 710000 2                  TRA     SET_ERR
         2 000245   001344 710000 2                  TRA     SET_ERR
         2 000246   001344 710000 2                  TRA     SET_ERR
         2 000247   001344 710000 2                  TRA     SET_ERR
         2 000250   001344 710000 2                  TRA     SET_ERR
         2 000251   001344 710000 2                  TRA     SET_ERR
         2 000252   001344 710000 2                  TRA     SET_ERR
         2 000253   001344 710000 2                  TRA     SET_ERR
         2 000254   001344 710000 2                  TRA     SET_ERR
         2 000255   001344 710000 2                  TRA     SET_ERR
         2 000256   001344 710000 2                  TRA     SET_ERR
         2 000257   001344 710000 2                  TRA     SET_ERR
         2 000260   001344 710000 2                  TRA     SET_ERR
         2 000261   001344 710000 2                  TRA     SET_ERR
PL6.E3A0      #001=CXX$CONTEXT2 File=CXX$CONTEXT2.:E05TSI                        TUE 07/29/97 12:29 Page:39
         2 000262   001344 710000 2                  TRA     SET_ERR
         2 000263   001344 710000 2                  TRA     SET_ERR
         2 000264   001344 710000 2                  TRA     SET_ERR
         2 000265   001344 710000 2                  TRA     SET_ERR
         2 000266   001344 710000 2                  TRA     SET_ERR
         2 000267   001344 710000 2                  TRA     SET_ERR
         2 000270   001344 710000 2                  TRA     SET_ERR
         2 000271   001344 710000 2                  TRA     SET_ERR
         2 000272   001344 710000 2                  TRA     SET_ERR
         2 000273   001344 710000 2                  TRA     SET_ERR
         2 000274   001344 710000 2                  TRA     SET_ERR
         2 000275   001344 710000 2                  TRA     SET_ERR
         2 000276   001344 710000 2                  TRA     SET_ERR
         2 000277   001344 710000 2                  TRA     SET_ERR
         2 000300   001344 710000 2                  TRA     SET_ERR
         2 000301   001344 710000 2                  TRA     SET_ERR
         2 000302   001344 710000 2                  TRA     SET_ERR
         2 000303   001344 710000 2                  TRA     SET_ERR
         2 000304   001344 710000 2                  TRA     SET_ERR
         2 000305   001344 710000 2                  TRA     SET_ERR
         2 000306   000634 710000 2                  TRA     s:7408
         2 000307   000631 710000 2                  TRA     s:7406
         2 000310   000470 710000 2                  TRA     s:7372
         2 000311   001344 710000 2                  TRA     SET_ERR
         2 000312   001344 710000 2                  TRA     SET_ERR
         2 000313   001344 710000 2                  TRA     SET_ERR
         2 000314   001344 710000 2                  TRA     SET_ERR
         2 000315   001344 710000 2                  TRA     SET_ERR
         2 000316   001344 710000 2                  TRA     SET_ERR
         2 000317   001344 710000 2                  TRA     SET_ERR
         2 000320   001344 710000 2                  TRA     SET_ERR
         2 000321   001344 710000 2                  TRA     SET_ERR
         2 000322   001344 710000 2                  TRA     SET_ERR
         2 000323   001344 710000 2                  TRA     SET_ERR
         2 000324   001344 710000 2                  TRA     SET_ERR
         2 000325   001344 710000 2                  TRA     SET_ERR
         2 000326   001344 710000 2                  TRA     SET_ERR
PL6.E3A0      #001=CXX$CONTEXT2 File=CXX$CONTEXT2.:E05TSI                        TUE 07/29/97 12:29 Page:40
         2 000327   001344 710000 2                  TRA     SET_ERR
         2 000330   001344 710000 2                  TRA     SET_ERR
         2 000331   001344 710000 2                  TRA     SET_ERR
         2 000332   001344 710000 2                  TRA     SET_ERR
         2 000333   001344 710000 2                  TRA     SET_ERR
         2 000334   001344 710000 2                  TRA     SET_ERR
         2 000335   001344 710000 2                  TRA     SET_ERR
         2 000336   001344 710000 2                  TRA     SET_ERR
         2 000337   001344 710000 2                  TRA     SET_ERR
         2 000340   001344 710000 2                  TRA     SET_ERR
         2 000341   001344 710000 2                  TRA     SET_ERR
         2 000342   001344 710000 2                  TRA     SET_ERR
         2 000343   001344 710000 2                  TRA     SET_ERR
         2 000344   001344 710000 2                  TRA     SET_ERR
         2 000345   001344 710000 2                  TRA     SET_ERR
         2 000346   001344 710000 2                  TRA     SET_ERR
         2 000347   001344 710000 2                  TRA     SET_ERR
         2 000350   001344 710000 2                  TRA     SET_ERR
         2 000351   001344 710000 2                  TRA     SET_ERR
         2 000352   001344 710000 2                  TRA     SET_ERR
         2 000353   001344 710000 2                  TRA     SET_ERR
         2 000354   001344 710000 2                  TRA     SET_ERR
         2 000355   001344 710000 2                  TRA     SET_ERR
         2 000356   001344 710000 2                  TRA     SET_ERR
         2 000357   001344 710000 2                  TRA     SET_ERR
         2 000360   001344 710000 2                  TRA     SET_ERR
         2 000361   001344 710000 2                  TRA     SET_ERR
         2 000362   001344 710000 2                  TRA     SET_ERR
         2 000363   001344 710000 2                  TRA     SET_ERR
         2 000364   001344 710000 2                  TRA     SET_ERR
         2 000365   001344 710000 2                  TRA     SET_ERR
         2 000366   001344 710000 2                  TRA     SET_ERR
         2 000367   001344 710000 2                  TRA     SET_ERR
         2 000370   001344 710000 2                  TRA     SET_ERR
         2 000371   001344 710000 2                  TRA     SET_ERR
         2 000372   001344 710000 2                  TRA     SET_ERR
         2 000373   001344 710000 2                  TRA     SET_ERR
PL6.E3A0      #001=CXX$CONTEXT2 File=CXX$CONTEXT2.:E05TSI                        TUE 07/29/97 12:29 Page:41
         2 000374   001344 710000 2                  TRA     SET_ERR
         2 000375   001344 710000 2                  TRA     SET_ERR
         2 000376   001344 710000 2                  TRA     SET_ERR
         2 000377   001344 710000 2                  TRA     SET_ERR
         2 000400   001344 710000 2                  TRA     SET_ERR
         2 000401   001344 710000 2                  TRA     SET_ERR
         2 000402   001344 710000 2                  TRA     SET_ERR
         2 000403   001344 710000 2                  TRA     SET_ERR
         2 000404   001344 710000 2                  TRA     SET_ERR
         2 000405   001344 710000 2                  TRA     SET_ERR
         2 000406   001344 710000 2                  TRA     SET_ERR
         2 000407   001344 710000 2                  TRA     SET_ERR
         2 000410   001344 710000 2                  TRA     SET_ERR
         2 000411   001344 710000 2                  TRA     SET_ERR
         2 000412   001344 710000 2                  TRA     SET_ERR
         2 000413   001344 710000 2                  TRA     SET_ERR
         2 000414   001344 710000 2                  TRA     SET_ERR
         2 000415   001344 710000 2                  TRA     SET_ERR
         2 000416   001344 710000 2                  TRA     SET_ERR
         2 000417   001344 710000 2                  TRA     SET_ERR
         2 000420   001344 710000 2                  TRA     SET_ERR
         2 000421   001344 710000 2                  TRA     SET_ERR
         2 000422   001344 710000 2                  TRA     SET_ERR
         2 000423   001344 710000 2                  TRA     SET_ERR
         2 000424   001344 710000 2                  TRA     SET_ERR
         2 000425   001344 710000 2                  TRA     SET_ERR
         2 000426   001344 710000 2                  TRA     SET_ERR
         2 000427   001344 710000 2                  TRA     SET_ERR
         2 000430   001344 710000 2                  TRA     SET_ERR
         2 000431   001344 710000 2                  TRA     SET_ERR
         2 000432   001344 710000 2                  TRA     SET_ERR
         2 000433   001344 710000 2                  TRA     SET_ERR
         2 000434   001344 710000 2                  TRA     SET_ERR
         2 000435   001344 710000 2                  TRA     SET_ERR
         2 000436   001344 710000 2                  TRA     SET_ERR
         2 000437   001344 710000 2                  TRA     SET_ERR
         2 000440   001344 710000 2                  TRA     SET_ERR
PL6.E3A0      #001=CXX$CONTEXT2 File=CXX$CONTEXT2.:E05TSI                        TUE 07/29/97 12:29 Page:42
         2 000441   001344 710000 2                  TRA     SET_ERR
         2 000442   001344 710000 2                  TRA     SET_ERR
         2 000443   001344 710000 2                  TRA     SET_ERR
         2 000444   001344 710000 2                  TRA     SET_ERR
         2 000445   001344 710000 2                  TRA     SET_ERR
         2 000446   001344 710000 2                  TRA     SET_ERR
         2 000447   001344 710000 2                  TRA     SET_ERR
         2 000450   001344 710000 2                  TRA     SET_ERR
         2 000451   001344 710000 2                  TRA     SET_ERR
         2 000452   001344 710000 2                  TRA     SET_ERR
         2 000453   001344 710000 2                  TRA     SET_ERR
         2 000454   001344 710000 2                  TRA     SET_ERR
         2 000455   001344 710000 2                  TRA     SET_ERR
         2 000456   001016 710000 2                  TRA     CXX$SET20
         2 000457   001016 710000 2                  TRA     CXX$SET20
         2 000460   001016 710000 2                  TRA     CXX$SET20
         2 000461   001016 710000 2                  TRA     CXX$SET20
         2 000462   001016 710000 2                  TRA     CXX$SET20
         2 000463   000651 710000 2                  TRA     s:7411
         2 000464   000701 710000 2                  TRA     s:7423

      253     7366    2        CASE(DCBOPT);

      254     7367    2         CALL CHK_DCBNAME;

   7367  2 000465   003245 701000 2                  TSX1    CHK_DCBNAME
         2 000466   000000 011000                    NOP     0
         2 000467   001344 710000 2                  TRA     SET_ERR

      255     7368    2        CASE(FIDOPT);

      256     7369        /*
      257     7370          ****       CHECK FOR FID ERRORS
      258     7371        */
      259     7372    2         CALL CNVRT_FID ALTRET(CXX$SET10) ;

   7372  2 000470   003133 701000 2                  TSX1    CNVRT_FID
PL6.E3A0      #001=CXX$CONTEXT2 File=CXX$CONTEXT2.:E05TSI                        TUE 07/29/97 12:29 Page:43
         2 000471   000472 702000 2                  TSX2    CXX$SET10

   7372  2 000472   001344 710000 2     CXX$SET10    TRA     SET_ERR

      260     7373    2   CXX$SET10: ;
      261     7374    2        CASE(RECLOPT);

      262     7375    2         IF VALUE > 262142 THEN

   7375  2 000473   200206 235100                    LDA     VALUE,,AUTO
         2 000474   777776 115007                    CMPA    -2,DL
         2 000475   001344 604400 2                  TMOZ    SET_ERR

      263     7376    2            CALL POST_ERROR(OUT$SYM.CPOS,E_XBIG262142);

   7376  2 000476   000000 236000 3                  LDQ     0
         2 000477   200220 756100                    STQ     @CPOS+1,,AUTO
         2 000500   200205 236100                    LDQ     PTR1$,,AUTO
         2 000501   000002 036003                    ADLQ    2,DU
         2 000502   200217 756100                    STQ     I+2,,AUTO
         2 000503   003327 701000 2                  TSX1    POST_ERROR
         2 000504   000000 011000                    NOP     0
         2 000505   001344 710000 2                  TRA     SET_ERR

      264     7377    2        CASE(KEYXOPT,

      265     7378    2             LINESOPT,
      266     7379    2             XTNSIZEOPT);
      267     7380    2         IF VALUE > 32000 THEN

   7380  2 000506   200206 235100                    LDA     VALUE,,AUTO
         2 000507   076400 115007                    CMPA    32000,DL
         2 000510   001344 604400 2                  TMOZ    SET_ERR

      268     7381    2            CALL POST_ERROR(OUT$SYM.CPOS,E_XBIG32000);

   7381  2 000511   000001 236000 3                  LDQ     1
PL6.E3A0      #001=CXX$CONTEXT2 File=CXX$CONTEXT2.:E05TSI                        TUE 07/29/97 12:29 Page:44
         2 000512   200220 756100                    STQ     @CPOS+1,,AUTO
         2 000513   200205 236100                    LDQ     PTR1$,,AUTO
         2 000514   000002 036003                    ADLQ    2,DU
         2 000515   200217 756100                    STQ     I+2,,AUTO
         2 000516   003327 701000 2                  TSX1    POST_ERROR
         2 000517   000000 011000                    NOP     0
         2 000520   001344 710000 2                  TRA     SET_ERR

      269     7382    2        CASE(BLKLOPT);

      270     7383    2         IF VALUE > 32764 THEN

   7383  2 000521   200206 235100                    LDA     VALUE,,AUTO
         2 000522   077774 115007                    CMPA    32764,DL
         2 000523   001344 604400 2                  TMOZ    SET_ERR

      271     7384    2            CALL POST_ERROR(OUT$SYM.CPOS,E_XBIG32764);

   7384  2 000524   000002 236000 3                  LDQ     2
         2 000525   200220 756100                    STQ     @CPOS+1,,AUTO
         2 000526   200205 236100                    LDQ     PTR1$,,AUTO
         2 000527   000002 036003                    ADLQ    2,DU
         2 000530   200217 756100                    STQ     I+2,,AUTO
         2 000531   003327 701000 2                  TSX1    POST_ERROR
         2 000532   000000 011000                    NOP     0
         2 000533   001344 710000 2                  TRA     SET_ERR

      272     7385    2        CASE(EXPIREOPT);

      273     7386    3         DO CASE(OUT$SYM.CODE);

   7386  2 000534   200205 471500                    LDP1    PTR1$,,AUTO
         2 000535   100000 236100                    LDQ     0,,PR1
         2 000536   777777 376007                    ANQ     -1,DL
         2 000537   000456 136007                    SBLQ    302,DL
         2 000540   000002 116007                    CMPQ    2,DL
         2 000541   000543 602006 2                  TNC     s:7386+7,QL
PL6.E3A0      #001=CXX$CONTEXT2 File=CXX$CONTEXT2.:E05TSI                        TUE 07/29/97 12:29 Page:45
         2 000542   001344 710000 2                  TRA     SET_ERR
         2 000543   000545 710000 2                  TRA     s:7388
         2 000544   000566 710000 2                  TRA     s:7392

      274     7387    3           CASE(EXP_DDD);

      275     7388    3            IF B$JIT.MAXEXP ~= -1 THEN          /*NEVER = -1*/

   7388  2 000545   000000 473400 xsym               LDP3    B$JIT$
         2 000546   300221 720100                    LXL0    145,,PR3
         2 000547   777777 100003                    CMPX0   -1,DU
         2 000550   001344 600000 2                  TZE     SET_ERR

      276     7389    3               IF VALUE > B$JIT.MAXEXP THEN

   7389  2 000551   300221 236100                    LDQ     145,,PR3
         2 000552   000022 736000                    QLS     18
         2 000553   000022 732000                    QRS     18
         2 000554   200206 116100                    CMPQ    VALUE,,AUTO
         2 000555   001344 605000 2                  TPL     SET_ERR

      277     7390    3                  CALL POST_ERROR(OUT$SYM.CPOS,E_XBIGEXP);

   7390  2 000556   000003 236000 3                  LDQ     3
         2 000557   200220 756100                    STQ     @CPOS+1,,AUTO
         2 000560   200205 236100                    LDQ     PTR1$,,AUTO
         2 000561   000002 036003                    ADLQ    2,DU
         2 000562   200217 756100                    STQ     I+2,,AUTO
         2 000563   003327 701000 2                  TSX1    POST_ERROR
         2 000564   000000 011000                    NOP     0
         2 000565   001344 710000 2                  TRA     SET_ERR

      278     7391    3           CASE(EXP_NEVER);

      279     7392    3            IF B$JIT.MAXEXP ~= -1 THEN

   7392  2 000566   000000 473400 xsym               LDP3    B$JIT$
PL6.E3A0      #001=CXX$CONTEXT2 File=CXX$CONTEXT2.:E05TSI                        TUE 07/29/97 12:29 Page:46
         2 000567   300221 720100                    LXL0    145,,PR3
         2 000570   777777 100003                    CMPX0   -1,DU
         2 000571   001344 600000 2                  TZE     SET_ERR

      280     7393    3               CALL POST_ERROR(OUT$SYM.CPOS,E_XBIGEXP);

   7393  2 000572   000003 236000 3                  LDQ     3
         2 000573   200220 756100                    STQ     @CPOS+1,,AUTO
         2 000574   200205 236100                    LDQ     PTR1$,,AUTO
         2 000575   000002 036003                    ADLQ    2,DU
         2 000576   200217 756100                    STQ     I+2,,AUTO
         2 000577   003327 701000 2                  TSX1    POST_ERROR
         2 000600   000000 011000                    NOP     0

      281     7394    3           END;

   7394  2 000601   001344 710000 2                  TRA     SET_ERR

      282     7395    2        CASE(SPAREOPT);

      283     7396    2         IF VALUE > 511 THEN

   7396  2 000602   200206 235100                    LDA     VALUE,,AUTO
         2 000603   000777 115007                    CMPA    511,DL
         2 000604   001344 604400 2                  TMOZ    SET_ERR

      284     7397    2            CALL POST_ERROR(OUT$SYM.CPOS,E_XBIG511);

   7397  2 000605   000004 236000 3                  LDQ     4
         2 000606   200220 756100                    STQ     @CPOS+1,,AUTO
         2 000607   200205 236100                    LDQ     PTR1$,,AUTO
         2 000610   000002 036003                    ADLQ    2,DU
         2 000611   200217 756100                    STQ     I+2,,AUTO
         2 000612   003327 701000 2                  TSX1    POST_ERROR
         2 000613   000000 011000                    NOP     0
         2 000614   001344 710000 2                  TRA     SET_ERR

PL6.E3A0      #001=CXX$CONTEXT2 File=CXX$CONTEXT2.:E05TSI                        TUE 07/29/97 12:29 Page:47
      285     7398    2        CASE(COPIESOPT,

      286     7399    2             LSLIDEOPT,
      287     7400    2             LRDL0OPT,
      288     7401    2             VOLOPT,
      289     7402    2             MAXVOLOPT);
      290     7403    2         IF VALUE < 1 OR VALUE > 511 THEN

   7403  2 000615   200206 235100                    LDA     VALUE,,AUTO
         2 000616   000621 604400 2                  TMOZ    s:7404
         2 000617   000777 115007                    CMPA    511,DL
         2 000620   001344 604400 2                  TMOZ    SET_ERR

      291     7404    2            CALL POST_ERROR(OUT$SYM.CPOS,E_XRANGE511);

   7404  2 000621   000005 236000 3                  LDQ     5
         2 000622   200220 756100                    STQ     @CPOS+1,,AUTO
         2 000623   200205 236100                    LDQ     PTR1$,,AUTO
         2 000624   000002 036003                    ADLQ    2,DU
         2 000625   200217 756100                    STQ     I+2,,AUTO
         2 000626   003327 701000 2                  TSX1    POST_ERROR
         2 000627   000000 011000                    NOP     0
         2 000630   001344 710000 2                  TRA     SET_ERR

      292     7405    2        CASE(ACS_VEH);

      293     7406    2         CALL CNVRT_FID;             /* Check to see if access-vehicle FID is OK */

   7406  2 000631   003133 701000 2                  TSX1    CNVRT_FID
         2 000632   000000 011000                    NOP     0
         2 000633   001344 710000 2                  TRA     SET_ERR

      294     7407    2        CASE(ACC_ACCT);

      295     7408    2         IF OUT$SYM.COUNT > 8 THEN

   7408  2 000634   200205 471500                    LDP1    PTR1$,,AUTO
PL6.E3A0      #001=CXX$CONTEXT2 File=CXX$CONTEXT2.:E05TSI                        TUE 07/29/97 12:29 Page:48
         2 000635   100004 236100                    LDQ     4,,PR1
         2 000636   777000 376003                    ANQ     -512,DU
         2 000637   011000 116003                    CMPQ    4608,DU
         2 000640   001344 602000 2                  TNC     SET_ERR

      296     7409    2            CALL POST_ERROR(OUT$SYM.CPOS,E_XBIGACCT);

   7409  2 000641   000006 236000 3                  LDQ     6
         2 000642   200220 756100                    STQ     @CPOS+1,,AUTO
         2 000643   200205 236100                    LDQ     PTR1$,,AUTO
         2 000644   000002 036003                    ADLQ    2,DU
         2 000645   200217 756100                    STQ     I+2,,AUTO
         2 000646   003327 701000 2                  TSX1    POST_ERROR
         2 000647   000000 011000                    NOP     0
         2 000650   001344 710000 2                  TRA     SET_ERR

      297     7410    2        CASE(SN_NUM);

      298     7411    2         IF OUT$SYM.COUNT > 6 THEN

   7411  2 000651   200205 471500                    LDP1    PTR1$,,AUTO
         2 000652   100004 236100                    LDQ     4,,PR1
         2 000653   777000 376003                    ANQ     -512,DU
         2 000654   007000 116003                    CMPQ    3584,DU
         2 000655   001344 602000 2                  TNC     SET_ERR

      299     7412    2            CALL POST_ERROR(OUT$SYM.CPOS,E_XBIGSNUM);

   7412  2 000656   000007 236000 3                  LDQ     7
         2 000657   200220 756100                    STQ     @CPOS+1,,AUTO
         2 000660   200205 236100                    LDQ     PTR1$,,AUTO
         2 000661   000002 036003                    ADLQ    2,DU
         2 000662   200217 756100                    STQ     I+2,,AUTO
         2 000663   003327 701000 2                  TSX1    POST_ERROR
         2 000664   000000 011000                    NOP     0
         2 000665   001344 710000 2                  TRA     SET_ERR

PL6.E3A0      #001=CXX$CONTEXT2 File=CXX$CONTEXT2.:E05TSI                        TUE 07/29/97 12:29 Page:49
      300     7413    2        CASE(TABOPT);

      301     7414        /*
      302     7415          ****      ERROR IF OVER 31 TABS SPECIFIED
      303     7416        */
      304     7417    2         IF OUT$BLK.NSUBLKS > 31 THEN

   7417  2 000666   000001 220100                    LDX0    1,,PR0
         2 000667   000040 100003                    CMPX0   32,DU
         2 000670   001344 602000 2                  TNC     SET_ERR

      305     7418    2            CALL POST_ERROR(OUT$BLK.SUBLK$(31)->OUT$SYM.CPOS,E_XTMTABS);

   7418  2 000671   000042 471500                    LDP1    34,,PR0
         2 000672   000010 236000 3                  LDQ     8
         2 000673   200220 756100                    STQ     @CPOS+1,,AUTO
         2 000674   100002 633500                    EPPR3   2,,PR1
         2 000675   200217 453500                    STP3    I+2,,AUTO
         2 000676   003327 701000 2                  TSX1    POST_ERROR
         2 000677   000000 011000                    NOP     0
         2 000700   001344 710000 2                  TRA     SET_ERR

      306     7419        /*
      307     7420          ****      ERROR IF TAB VALUE NOT IN 1-511 RANGE
      308     7421        */
      309     7422    2        CASE(TAB_NUM);

      310     7423    2         IF VALUE > 255 THEN

   7423  2 000701   200206 235100                    LDA     VALUE,,AUTO
         2 000702   000377 115007                    CMPA    255,DL
         2 000703   001344 604400 2                  TMOZ    SET_ERR

      311     7424    2            CALL POST_ERROR(OUT$SYM.CPOS,E_XILLTAB);

   7424  2 000704   000011 236000 3                  LDQ     9
         2 000705   200220 756100                    STQ     @CPOS+1,,AUTO
PL6.E3A0      #001=CXX$CONTEXT2 File=CXX$CONTEXT2.:E05TSI                        TUE 07/29/97 12:29 Page:50
         2 000706   200205 236100                    LDQ     PTR1$,,AUTO
         2 000707   000002 036003                    ADLQ    2,DU
         2 000710   200217 756100                    STQ     I+2,,AUTO
         2 000711   003327 701000 2                  TSX1    POST_ERROR
         2 000712   000000 011000                    NOP     0
         2 000713   001344 710000 2                  TRA     SET_ERR

      312     7425    2        CASE(PAGECOLOPT);

      313     7426    2         IF VALUE > 255 THEN

   7426  2 000714   200206 235100                    LDA     VALUE,,AUTO
         2 000715   000377 115007                    CMPA    255,DL
         2 000716   001344 604400 2                  TMOZ    SET_ERR

      314     7427    2            CALL POST_ERROR(OUT$SYM.CPOS,E_XBIG255);

   7427  2 000717   000012 236000 3                  LDQ     10
         2 000720   200220 756100                    STQ     @CPOS+1,,AUTO
         2 000721   200205 236100                    LDQ     PTR1$,,AUTO
         2 000722   000002 036003                    ADLQ    2,DU
         2 000723   200217 756100                    STQ     I+2,,AUTO
         2 000724   003327 701000 2                  TSX1    POST_ERROR
         2 000725   000000 011000                    NOP     0
         2 000726   001344 710000 2                  TRA     SET_ERR

      315     7428    2        CASE(MARGINOPT,

      316     7429    2             INDENTOPT,
      317     7430    2             KEYLOPT,
      318     7431    2             SEQCOLOPT);
      319     7432    2         IF (VALUE < 1 OR VALUE > 255) THEN

   7432  2 000727   200206 235100                    LDA     VALUE,,AUTO
         2 000730   000733 604400 2                  TMOZ    s:7433
         2 000731   000377 115007                    CMPA    255,DL
         2 000732   001344 604400 2                  TMOZ    SET_ERR
PL6.E3A0      #001=CXX$CONTEXT2 File=CXX$CONTEXT2.:E05TSI                        TUE 07/29/97 12:29 Page:51

      320     7433    2            CALL POST_ERROR(OUT$SYM.CPOS,E_XRANGE255);

   7433  2 000733   000013 236000 3                  LDQ     11
         2 000734   200220 756100                    STQ     @CPOS+1,,AUTO
         2 000735   200205 236100                    LDQ     PTR1$,,AUTO
         2 000736   000002 036003                    ADLQ    2,DU
         2 000737   200217 756100                    STQ     I+2,,AUTO
         2 000740   003327 701000 2                  TSX1    POST_ERROR
         2 000741   000000 011000                    NOP     0
         2 000742   001344 710000 2                  TRA     SET_ERR

      321     7434    2        CASE(TITLEOPT);

      322     7435    2         IF OUT$SYM.COUNT > 114 THEN

   7435  2 000743   200205 471500                    LDP1    PTR1$,,AUTO
         2 000744   100004 236100                    LDQ     4,,PR1
         2 000745   777000 376003                    ANQ     -512,DU
         2 000746   163000 116003                    CMPQ    58880,DU
         2 000747   001344 602000 2                  TNC     SET_ERR

      323     7436    2            CALL POST_ERROR(OUT$SYM.CPOS+115,E_XRANGE114);

   7436  2 000750   100002 235100                    LDA     2,,PR1
         2 000751   000163 035007                    ADLA    115,DL
         2 000752   200224 755100                    STA     @ERRCODE+4,,AUTO
         2 000753   000014 236000 3                  LDQ     12
         2 000754   200220 756100                    STQ     @CPOS+1,,AUTO
         2 000755   200224 633500                    EPPR3   @ERRCODE+4,,AUTO
         2 000756   200217 453500                    STP3    I+2,,AUTO
         2 000757   003327 701000 2                  TSX1    POST_ERROR
         2 000760   000000 011000                    NOP     0
         2 000761   001344 710000 2                  TRA     SET_ERR

      324     7437    2        CASE(NRECSOPT,IXTNSIZEOPT);

PL6.E3A0      #001=CXX$CONTEXT2 File=CXX$CONTEXT2.:E05TSI                        TUE 07/29/97 12:29 Page:52
      325     7438    2         IF (VALUE < 1 OR VALUE > SBINMAX) THEN

   7438  2 000762   200206 235100                    LDA     VALUE,,AUTO
         2 000763   000767 604400 2                  TMOZ    s:7439
         2 000764   200206 236100                    LDQ     VALUE,,AUTO
         2 000765   000103 116000 1                  CMPQ    SBINMAX_O
         2 000766   001344 604400 2                  TMOZ    SET_ERR

      326     7439    2            CALL POST_ERROR(OUT$SYM.CPOS,E_XRANGESBIN);

   7439  2 000767   000015 236000 3                  LDQ     13
         2 000770   200220 756100                    STQ     @CPOS+1,,AUTO
         2 000771   200205 236100                    LDQ     PTR1$,,AUTO
         2 000772   000002 036003                    ADLQ    2,DU
         2 000773   200217 756100                    STQ     I+2,,AUTO
         2 000774   003327 701000 2                  TSX1    POST_ERROR
         2 000775   000000 011000                    NOP     0
         2 000776   001344 710000 2                  TRA     SET_ERR

      327     7440    2        CASE(HDRHOPT, GHSTACSOPT);

      328     7441    2         IF VALUE > 15 THEN

   7441  2 000777   200206 235100                    LDA     VALUE,,AUTO
         2 001000   000017 115007                    CMPA    15,DL
         2 001001   001344 604400 2                  TMOZ    SET_ERR

      329     7442    2            CALL POST_ERROR(OUT$SYM.CPOS,E_XBIG15);

   7442  2 001002   000016 236000 3                  LDQ     14
         2 001003   200220 756100                    STQ     @CPOS+1,,AUTO
         2 001004   200205 236100                    LDQ     PTR1$,,AUTO
         2 001005   000002 036003                    ADLQ    2,DU
         2 001006   200217 756100                    STQ     I+2,,AUTO
         2 001007   003327 701000 2                  TSX1    POST_ERROR
         2 001010   000000 011000                    NOP     0
         2 001011   001344 710000 2                  TRA     SET_ERR
PL6.E3A0      #001=CXX$CONTEXT2 File=CXX$CONTEXT2.:E05TSI                        TUE 07/29/97 12:29 Page:53

      330     7443    2        CASE (IMSGTYPOPT,

      331     7444    2             OMSGTYPOPT,
      332     7445    2             ISTATIONOPT,
      333     7446    2             OSTATIONOPT,
      334     7447    2             MYSTATIONOPT);
      335     7448    2         PTR1$ = OUT$BLK.SUBLK$(0)->OUT$SYM.TEXTC$;

   7448  2 001012   000003 471500                    LDP1    3,,PR0
         2 001013   100003 236100                    LDQ     3,,PR1
         2 001014   200205 756100                    STQ     PTR1$,,AUTO

      336     7449    2         GOTO CXX$SET20;

   7449  2 001015   001016 710000 2                  TRA     CXX$SET20

      337     7450    2        CASE(IMSGTYP_NAME,

   7449  2 001016                       CXX$SET20    null
      338     7451    2          ISTAT_NAME,
      339     7452    2          MYSTAT_NAME,
      340     7453    2          OMSGTYP_NAME,
      341     7454    2          OSTAT_NAME);
      342     7455    2   CXX$SET20: ;
      343     7456    2         IF OUT$SYM.COUNT > 8 THEN

   7456  2 001016   200205 471500                    LDP1    PTR1$,,AUTO
         2 001017   100004 236100                    LDQ     4,,PR1
         2 001020   777000 376003                    ANQ     -512,DU
         2 001021   011000 116003                    CMPQ    4608,DU
         2 001022   001033 602000 2                  TNC     s:7460

      344     7457    2            CALL POST_ERROR(OUT$SYM.CPOS,E_XBIG8CHAR);

   7457  2 001023   000017 236000 3                  LDQ     15
         2 001024   200220 756100                    STQ     @CPOS+1,,AUTO
PL6.E3A0      #001=CXX$CONTEXT2 File=CXX$CONTEXT2.:E05TSI                        TUE 07/29/97 12:29 Page:54
         2 001025   200205 236100                    LDQ     PTR1$,,AUTO
         2 001026   000002 036003                    ADLQ    2,DU
         2 001027   200217 756100                    STQ     I+2,,AUTO
         2 001030   003327 701000 2                  TSX1    POST_ERROR
         2 001031   000000 011000                    NOP     0
         2 001032   001344 710000 2                  TRA     SET_ERR

      345     7458    2           ELSE
      346     7459    3         DO;

      347     7460    3            CALL INDEX(INDX,'?',OUT$SYM.TEXT);

   7460  2 001033   100004 236100                    LDQ     4,,PR1
         2 001034   000033 772000                    QRL     27
         2 001035   000000 620006                    EAX0    0,QL
         2 001036   000000 124540                    SCM     mask='000'O
         2 001037   100004 200010                    ADSC9   4,,PR1                   cn=1,n=*X0
         2 001040   000020 000001 3                  ADSC9   16                       cn=0,n=1
         2 001041   200207 000100                    ARG     INDX,,AUTO

      348     7461    3            IF INDX < OUT$SYM.COUNT-1 THEN

   7461  2 001042   000001 136007                    SBLQ    1,DL
         2 001043   001344 604000 2                  TMI     SET_ERR
         2 001044   200207 116100                    CMPQ    INDX,,AUTO
         2 001045   001344 602000 2                  TNC     SET_ERR
         2 001046   001344 600000 2                  TZE     SET_ERR

      349     7462    3               CALL POST_ERROR(OUT$SYM.CPOS,

   7462  2 001047   000021 236000 3                  LDQ     17
         2 001050   200220 756100                    STQ     @CPOS+1,,AUTO
         2 001051   200205 236100                    LDQ     PTR1$,,AUTO
         2 001052   000002 036003                    ADLQ    2,DU
         2 001053   200217 756100                    STQ     I+2,,AUTO
         2 001054   003327 701000 2                  TSX1    POST_ERROR
         2 001055   000000 011000                    NOP     0
PL6.E3A0      #001=CXX$CONTEXT2 File=CXX$CONTEXT2.:E05TSI                        TUE 07/29/97 12:29 Page:55

      350     7463    3                E_XWILDCHAR);
      351     7464    3            END;

   7464  2 001056   001344 710000 2                  TRA     SET_ERR

      352     7465    2        CASE(TYPEOPT);

      353     7466    2         IF OUT$SYM.COUNT > 2 THEN

   7466  2 001057   200205 471500                    LDP1    PTR1$,,AUTO
         2 001060   100004 236100                    LDQ     4,,PR1
         2 001061   777000 376003                    ANQ     -512,DU
         2 001062   003000 116003                    CMPQ    1536,DU
         2 001063   001344 602000 2                  TNC     SET_ERR

      354     7467    2            CALL POST_ERROR(OUT$SYM.CPOS,E_XBIGTYPE);

   7467  2 001064   000022 236000 3                  LDQ     18
         2 001065   200220 756100                    STQ     @CPOS+1,,AUTO
         2 001066   200205 236100                    LDQ     PTR1$,,AUTO
         2 001067   000002 036003                    ADLQ    2,DU
         2 001070   200217 756100                    STQ     I+2,,AUTO
         2 001071   003327 701000 2                  TSX1    POST_ERROR
         2 001072   000000 011000                    NOP     0
         2 001073   001344 710000 2                  TRA     SET_ERR

      355     7468    2        CASE(DVFCOPT);

      356     7469    2         IF OUT$SYM.NDTYPE = %DSTRING# THEN

   7469  2 001074   200205 471500                    LDP1    PTR1$,,AUTO
         2 001075   100000 236100                    LDQ     0,,PR1
         2 001076   000077 376003                    ANQ     63,DU
         2 001077   000005 116003                    CMPQ    5,DU
         2 001100   001124 601000 2                  TNZ     s:7476

PL6.E3A0      #001=CXX$CONTEXT2 File=CXX$CONTEXT2.:E05TSI                        TUE 07/29/97 12:29 Page:56
      357     7470    2            IF OUT$SYM.COUNT > 1

   7470  2 001101   100004 236100                    LDQ     4,,PR1
         2 001102   777000 376003                    ANQ     -512,DU
         2 001103   002000 116003                    CMPQ    1024,DU
         2 001104   001114 603000 2                  TRC     s:7473
         2 001105   100004 236100                    LDQ     4,,PR1
         2 001106   000033 772000                    QRL     27
         2 001107   100004 236100                    LDQ     4,,PR1
         2 001110   000777 376003                    ANQ     511,DU
         2 001111   000377 116003                    CMPQ    255,DU
         2 001112   001344 602000 2                  TNC     SET_ERR
         2 001113   001344 600000 2                  TZE     SET_ERR

      358     7471    2             OR SUBSTR(OUT$SYM.TEXT,0,1) > BINASC(255)
      359     7472    2              THEN
      360     7473    2               CALL POST_ERROR(OUT$SYM.CPOS,E_XILLDVFC);

   7473  2 001114   000023 236000 3                  LDQ     19
         2 001115   200220 756100                    STQ     @CPOS+1,,AUTO
         2 001116   200205 236100                    LDQ     PTR1$,,AUTO
         2 001117   000002 036003                    ADLQ    2,DU
         2 001120   200217 756100                    STQ     I+2,,AUTO
         2 001121   003327 701000 2                  TSX1    POST_ERROR
         2 001122   000000 011000                    NOP     0
         2 001123   001344 710000 2                  TRA     SET_ERR

      361     7474    2              ELSE ;
      362     7475    2           ELSE
      363     7476    2            IF OUT$SYM.NDTYPE = %OCT# THEN

   7476  2 001124   000021 116003                    CMPQ    17,DU
         2 001125   001344 601000 2                  TNZ     SET_ERR

      364     7477    2               IF VALUE > 255

   7477  2 001126   200206 235100                    LDA     VALUE,,AUTO
PL6.E3A0      #001=CXX$CONTEXT2 File=CXX$CONTEXT2.:E05TSI                        TUE 07/29/97 12:29 Page:57
         2 001127   000377 115007                    CMPA    255,DL
         2 001130   001344 604400 2                  TMOZ    SET_ERR

      365     7478    2                 THEN
      366     7479    2                  CALL POST_ERROR(OUT$SYM.CPOS,E_XILLDVFC);

   7479  2 001131   000023 236000 3                  LDQ     19
         2 001132   200220 756100                    STQ     @CPOS+1,,AUTO
         2 001133   200205 236100                    LDQ     PTR1$,,AUTO
         2 001134   000002 036003                    ADLQ    2,DU
         2 001135   200217 756100                    STQ     I+2,,AUTO
         2 001136   003327 701000 2                  TSX1    POST_ERROR
         2 001137   000000 011000                    NOP     0
         2 001140   001344 710000 2                  TRA     SET_ERR

      367     7480    2        CASE(FORMOPT);

      368     7481    2         IF OUT$SYM.COUNT > 6 THEN

   7481  2 001141   200205 471500                    LDP1    PTR1$,,AUTO
         2 001142   100004 236100                    LDQ     4,,PR1
         2 001143   777000 376003                    ANQ     -512,DU
         2 001144   007000 116003                    CMPQ    3584,DU
         2 001145   001156 602000 2                  TNC     s:7484

      369     7482    2            CALL POST_ERROR(OUT$SYM.CPOS,E_XBIG6CHAR);

   7482  2 001146   000024 236000 3                  LDQ     20
         2 001147   200220 756100                    STQ     @CPOS+1,,AUTO
         2 001150   200205 236100                    LDQ     PTR1$,,AUTO
         2 001151   000002 036003                    ADLQ    2,DU
         2 001152   200217 756100                    STQ     I+2,,AUTO
         2 001153   003327 701000 2                  TSX1    POST_ERROR
         2 001154   000000 011000                    NOP     0
         2 001155   001344 710000 2                  TRA     SET_ERR

      370     7483    2           ELSE
PL6.E3A0      #001=CXX$CONTEXT2 File=CXX$CONTEXT2.:E05TSI                        TUE 07/29/97 12:29 Page:58
      371     7484    2            IF OUT$SYM.COUNT = 0

   7484  2 001156   100004 236100                    LDQ     4,,PR1
         2 001157   777000 316003                    CANQ    -512,DU
         2 001160   001344 601000 2                  TNZ     SET_ERR

      372     7485    2              THEN   /* Null string */
      373     7486    2               CALL POST_ERROR (OUT$SYM.CPOS,E_XNULLSTRING);

   7486  2 001161   000025 236000 3                  LDQ     21
         2 001162   200220 756100                    STQ     @CPOS+1,,AUTO
         2 001163   200205 236100                    LDQ     PTR1$,,AUTO
         2 001164   000002 036003                    ADLQ    2,DU
         2 001165   200217 756100                    STQ     I+2,,AUTO
         2 001166   003327 701000 2                  TSX1    POST_ERROR
         2 001167   000000 011000                    NOP     0
         2 001170   001344 710000 2                  TRA     SET_ERR

      374     7487    2        CASE(FSNOPT);

      375     7488    2         IF (VALUE < 1 OR VALUE > 9999) THEN

   7488  2 001171   200206 235100                    LDA     VALUE,,AUTO
         2 001172   001175 604400 2                  TMOZ    s:7489
         2 001173   023417 115007                    CMPA    9999,DL
         2 001174   001344 604400 2                  TMOZ    SET_ERR

      376     7489    2            CALL POST_ERROR(OUT$SYM.CPOS,E_XRANGE9999);

   7489  2 001175   000026 236000 3                  LDQ     22
         2 001176   200220 756100                    STQ     @CPOS+1,,AUTO
         2 001177   200205 236100                    LDQ     PTR1$,,AUTO
         2 001200   000002 036003                    ADLQ    2,DU
         2 001201   200217 756100                    STQ     I+2,,AUTO
         2 001202   003327 701000 2                  TSX1    POST_ERROR
         2 001203   000000 011000                    NOP     0
         2 001204   001344 710000 2                  TRA     SET_ERR
PL6.E3A0      #001=CXX$CONTEXT2 File=CXX$CONTEXT2.:E05TSI                        TUE 07/29/97 12:29 Page:59

      377     7490    2        CASE(SEQIDOPT);

      378     7491    2         IF OUT$SYM.COUNT > 4 THEN

   7491  2 001205   200205 471500                    LDP1    PTR1$,,AUTO
         2 001206   100004 236100                    LDQ     4,,PR1
         2 001207   777000 376003                    ANQ     -512,DU
         2 001210   005000 116003                    CMPQ    2560,DU
         2 001211   001344 602000 2                  TNC     SET_ERR

      379     7492    2            CALL POST_ERROR(OUT$SYM.CPOS,E_XBIGSEQID);

   7492  2 001212   000027 236000 3                  LDQ     23
         2 001213   200220 756100                    STQ     @CPOS+1,,AUTO
         2 001214   200205 236100                    LDQ     PTR1$,,AUTO
         2 001215   000002 036003                    ADLQ    2,DU
         2 001216   200217 756100                    STQ     I+2,,AUTO
         2 001217   003327 701000 2                  TSX1    POST_ERROR
         2 001220   000000 011000                    NOP     0
         2 001221   001344 710000 2                  TRA     SET_ERR

      380     7493    2        CASE (PROFILEOPT);

      381     7494    2         IF OUT$SYM.COUNT > 11

   7494  2 001222   200205 471500                    LDP1    PTR1$,,AUTO
         2 001223   100004 236100                    LDQ     4,,PR1
         2 001224   777000 376003                    ANQ     -512,DU
         2 001225   014000 116003                    CMPQ    6144,DU
         2 001226   001344 602000 2                  TNC     SET_ERR

      382     7495    2           THEN
      383     7496    2            CALL POST_ERROR (OUT$SYM.CPOS, E_XBIGPROFILE);

   7496  2 001227   000030 236000 3                  LDQ     24
         2 001230   200220 756100                    STQ     @CPOS+1,,AUTO
PL6.E3A0      #001=CXX$CONTEXT2 File=CXX$CONTEXT2.:E05TSI                        TUE 07/29/97 12:29 Page:60
         2 001231   200205 236100                    LDQ     PTR1$,,AUTO
         2 001232   000002 036003                    ADLQ    2,DU
         2 001233   200217 756100                    STQ     I+2,,AUTO
         2 001234   003327 701000 2                  TSX1    POST_ERROR
         2 001235   000000 011000                    NOP     0
         2 001236   001344 710000 2                  TRA     SET_ERR

      384     7497    2        CASE (PHYSICALOPT, MINPHYSOPT);

      385     7498    2         IF VALUE < 1 OR VALUE > 16384

   7498  2 001237   200206 235100                    LDA     VALUE,,AUTO
         2 001240   001243 604400 2                  TMOZ    s:7500
         2 001241   040000 115007                    CMPA    16384,DL
         2 001242   001344 604400 2                  TMOZ    SET_ERR

      386     7499    2           THEN
      387     7500    2            CALL POST_ERROR (OUT$SYM.CPOS, E_XRANGE16384);

   7500  2 001243   000031 236000 3                  LDQ     25
         2 001244   200220 756100                    STQ     @CPOS+1,,AUTO
         2 001245   200205 236100                    LDQ     PTR1$,,AUTO
         2 001246   000002 036003                    ADLQ    2,DU
         2 001247   200217 756100                    STQ     I+2,,AUTO
         2 001250   003327 701000 2                  TSX1    POST_ERROR
         2 001251   000000 011000                    NOP     0
         2 001252   001344 710000 2                  TRA     SET_ERR

      388     7501    2        CASE (SEGSIZEOPT);

      389     7502    2         IF VALUE < 1 OR VALUE > 2097152

   7502  2 001253   200206 235100                    LDA     VALUE,,AUTO
         2 001254   001257 604400 2                  TMOZ    s:7504
         2 001255   000010 115003                    CMPA    8,DU
         2 001256   001344 604400 2                  TMOZ    SET_ERR

PL6.E3A0      #001=CXX$CONTEXT2 File=CXX$CONTEXT2.:E05TSI                        TUE 07/29/97 12:29 Page:61
      390     7503    2           THEN
      391     7504    2            CALL POST_ERROR (OUT$SYM.CPOS, E_XRANGE2097152);

   7504  2 001257   000032 236000 3                  LDQ     26
         2 001260   200220 756100                    STQ     @CPOS+1,,AUTO
         2 001261   200205 236100                    LDQ     PTR1$,,AUTO
         2 001262   000002 036003                    ADLQ    2,DU
         2 001263   200217 756100                    STQ     I+2,,AUTO
         2 001264   003327 701000 2                  TSX1    POST_ERROR
         2 001265   000000 011000                    NOP     0
         2 001266   001344 710000 2                  TRA     SET_ERR

      392     7505    2        CASE (SEEDOPT);

      393     7506    2         IF OUT$SYM.COUNT > 12

   7506  2 001267   200205 471500                    LDP1    PTR1$,,AUTO
         2 001270   100004 236100                    LDQ     4,,PR1
         2 001271   777000 376003                    ANQ     -512,DU
         2 001272   015000 116003                    CMPQ    6656,DU
         2 001273   001301 603000 2                  TRC     s:7509
         2 001274   005000 116003                    CMPQ    2560,DU
         2 001275   001311 602000 2                  TNC     s:7511
         2 001276   100000 720100                    LXL0    0,,PR1
         2 001277   000476 100003                    CMPX0   318,DU
         2 001300   001311 601000 2                  TNZ     s:7511

      394     7507    2          OR OUT$SYM.COUNT > 4 AND OUT$SYM.CODE = SEED_QUOTE
      395     7508    2           THEN
      396     7509    2            CALL POST_ERROR (OUT$SYM.CPOS, E_XBIGSEED);

   7509  2 001301   000033 236000 3                  LDQ     27
         2 001302   200220 756100                    STQ     @CPOS+1,,AUTO
         2 001303   200205 236100                    LDQ     PTR1$,,AUTO
         2 001304   000002 036003                    ADLQ    2,DU
         2 001305   200217 756100                    STQ     I+2,,AUTO
         2 001306   003327 701000 2                  TSX1    POST_ERROR
PL6.E3A0      #001=CXX$CONTEXT2 File=CXX$CONTEXT2.:E05TSI                        TUE 07/29/97 12:29 Page:62
         2 001307   000000 011000                    NOP     0
         2 001310   001344 710000 2                  TRA     SET_ERR

      397     7510    2           ELSE
      398     7511    2            IF OUT$SYM.CODE = SEED_QUOTE AND ADDR(VALUE_OUT) ~= ADDR(NIL)

   7511  2 001311   100000 720100                    LXL0    0,,PR1
         2 001312   000476 100003                    CMPX0   318,DU
         2 001313   001344 601000 2                  TNZ     SET_ERR
         2 001314   200006 236100                    LDQ     @VALUE_OUT,,AUTO
         2 001315   000001 116000 xsym               CMPQ    B_VECTNIL+1
         2 001316   001344 600000 2                  TZE     SET_ERR

      399     7512    2              THEN
      400     7513    3            DO;

      401     7514    3               VALUE_OUT = 0;

   7514  2 001317   200006 473500                    LDP3    @VALUE_OUT,,AUTO
         2 001320   300000 450100                    STZ     0,,PR3

      402     7515    4               DO I = 0 TO OUT$BLK.SUBLK$(0)->OUT$SYM.COUNT-1;

   7515  2 001321   200212 450100                    STZ     I,,AUTO
         2 001322   001336 710000 2                  TRA     s:7518+2

      403     7516    4                  VALUE_OUT_REDEF(I) = SUBSTR(OUT$BLK.SUBLK$(0)->OUT$SYM.TEXT,

   7516  2 001323   200003 470500                    LDP0    @OUT$BLK,,AUTO
         2 001324   000003 471500                    LDP1    3,,PR0
         2 001325   100004 236100                    LDQ     4,,PR1
         2 001326   000033 772000                    QRL     27
         2 001327   200212 235100                    LDA     I,,AUTO
         2 001330   200006 473500                    LDP3    @VALUE_OUT,,AUTO
         2 001331   040105 100505                    MLR     fill='040'O
         2 001332   100004 200001                    ADSC9   4,A,PR1                  cn=1,n=1
         2 001333   300000 000001                    ADSC9   0,A,PR3                  cn=0,n=1
PL6.E3A0      #001=CXX$CONTEXT2 File=CXX$CONTEXT2.:E05TSI                        TUE 07/29/97 12:29 Page:63

      404     7517    4                   I, 1);
      405     7518    4                  END; /* Do I */

   7518  2 001334   000001 035007                    ADLA    1,DL
         2 001335   200212 755100                    STA     I,,AUTO
         2 001336   000003 471500                    LDP1    3,,PR0
         2 001337   100004 236100                    LDQ     4,,PR1
         2 001340   000033 772000                    QRL     27
         2 001341   200212 116100                    CMPQ    I,,AUTO
         2 001342   001344 600000 2                  TZE     SET_ERR
         2 001343   001323 603000 2                  TRC     s:7516

      406     7519    3               END; /* Then Do */

      407     7520                    /* SEED_NONE  ->  VALUE_OUT = -1
      408     7521                       SEED_OCT will be done by SETUP_AND_DECODE
      409     7522                    */
      410     7523    2        END CXX$SET5;

      411     7524    1   SET_ERR:
      412     7525    1      RETURN;

   7525  2 001344   000000 702200 xent  SET_ERR      TSX2  ! X66_ARET

      413     7526        %EJECT;
PL6.E3A0      #001=CXX$CONTEXT2 File=CXX$CONTEXT2.:E05TSI                        TUE 07/29/97 12:29 Page:64
      414     7527    1   CXX$RESET: ENTRY (OUT$BLK, XUG_GETCMD, CPSL_COMMAND_PARAMETERS, VALUE_OUT);

   7527  2 001345   000000 700200 xent  CXX$RESET    TSX0  ! X66_AUTO_4
         2 001346   000232 000004                    ZERO    154,4

      415     7528    1      IF ADDR(VALUE_OUT) ~= ADDR(NIL)

   7528  2 001347   200006 236100                    LDQ     @VALUE_OUT,,AUTO
         2 001350   000001 116000 xsym               CMPQ    B_VECTNIL+1
         2 001351   001355 600000 2                  TZE     s:7534

      416     7529    1        THEN
      417     7530    1         VALUE_OUT = -1;

   7530  2 001352   000001 335007                    LCA     1,DL
         2 001353   200006 470500                    LDP0    @VALUE_OUT,,AUTO
         2 001354   000000 755100                    STA     0,,PR0

      418     7531        /*
      419     7532          ****    CHECK FOR DCB ERRORS
      420     7533        */
      421     7534    1      PTR1$ = ADDR (OUT$BLK);

   7534  2 001355   200003 236100                    LDQ     @OUT$BLK,,AUTO
         2 001356   200205 756100                    STQ     PTR1$,,AUTO

      422     7535    1      CALL CHK_DCBNAME;

   7535  2 001357   003245 701000 2                  TSX1    CHK_DCBNAME
         2 001360   000000 011000                    NOP     0

      423     7536    1      RETURN;

   7536  2 001361   000000 702200 xent               TSX2  ! X66_ARET

      424     7537                  %EJECT;
PL6.E3A0      #001=CXX$CONTEXT2 File=CXX$CONTEXT2.:E05TSI                        TUE 07/29/97 12:29 Page:65
      425     7538    1   CXX$LDEV: ENTRY (OUT$BLK, XUG_GETCMD, CPSL_COMMAND_PARAMETERS, VALUE_OUT);

   7538  2 001362   000000 700200 xent  CXX$LDEV     TSX0  ! X66_AUTO_4
         2 001363   000232 000004                    ZERO    154,4

      426     7539
      427     7540    1      CALL SETUP_AND_DECODE ALTRET (SET_ERR);

   7540  2 001364   003400 701000 2                  TSX1    SETUP_AND_DECODE
         2 001365   001344 702000 2                  TSX2    SET_ERR

      428     7541
      429     7542    2      DO CASE (OUT$BLK.CODE);

   7542  2 001366   200003 470500                    LDP0    @OUT$BLK,,AUTO
         2 001367   000000 236100                    LDQ     0,,PR0
         2 001370   777777 376007                    ANQ     -1,DL
         2 001371   000030 136007                    SBLQ    24,DL
         2 001372   000437 116007                    CMPQ    287,DL
         2 001373   001375 602006 2                  TNC     s:7542+7,QL
         2 001374   002426 710000 2                  TRA     LDEV_ERR
         2 001375   002034 710000 2                  TRA     s:7544
         2 001376   002050 710000 2                  TRA     s:7548
         2 001377   002426 710000 2                  TRA     LDEV_ERR
         2 001400   002113 710000 2                  TRA     s:7560
         2 001401   002130 710000 2                  TRA     s:7565
         2 001402   002426 710000 2                  TRA     LDEV_ERR
         2 001403   002426 710000 2                  TRA     LDEV_ERR
         2 001404   002160 710000 2                  TRA     s:7572
         2 001405   002426 710000 2                  TRA     LDEV_ERR
         2 001406   002414 710000 2                  TRA     s:7611
         2 001407   002173 710000 2                  TRA     s:7576
         2 001410   002207 710000 2                  TRA     s:7580
         2 001411   002173 710000 2                  TRA     s:7576
         2 001412   002173 710000 2                  TRA     s:7576
         2 001413   002426 710000 2                  TRA     LDEV_ERR
         2 001414   002426 710000 2                  TRA     LDEV_ERR
PL6.E3A0      #001=CXX$CONTEXT2 File=CXX$CONTEXT2.:E05TSI                        TUE 07/29/97 12:29 Page:66
         2 001415   002426 710000 2                  TRA     LDEV_ERR
         2 001416   002426 710000 2                  TRA     LDEV_ERR
         2 001417   002173 710000 2                  TRA     s:7576
         2 001420   002222 710000 2                  TRA     s:7584
         2 001421   002426 710000 2                  TRA     LDEV_ERR
         2 001422   002426 710000 2                  TRA     LDEV_ERR
         2 001423   002426 710000 2                  TRA     LDEV_ERR
         2 001424   002237 710000 2                  TRA     s:7588
         2 001425   002347 710000 2                  TRA     s:7601
         2 001426   002426 710000 2                  TRA     LDEV_ERR
         2 001427   002375 710000 2                  TRA     s:7608
         2 001430   002173 710000 2                  TRA     s:7576
         2 001431   002426 710000 2                  TRA     LDEV_ERR
         2 001432   002426 710000 2                  TRA     LDEV_ERR
         2 001433   002426 710000 2                  TRA     LDEV_ERR
         2 001434   002426 710000 2                  TRA     LDEV_ERR
         2 001435   002426 710000 2                  TRA     LDEV_ERR
         2 001436   002426 710000 2                  TRA     LDEV_ERR
         2 001437   002426 710000 2                  TRA     LDEV_ERR
         2 001440   002426 710000 2                  TRA     LDEV_ERR
         2 001441   002426 710000 2                  TRA     LDEV_ERR
         2 001442   002426 710000 2                  TRA     LDEV_ERR
         2 001443   002426 710000 2                  TRA     LDEV_ERR
         2 001444   002426 710000 2                  TRA     LDEV_ERR
         2 001445   002426 710000 2                  TRA     LDEV_ERR
         2 001446   002426 710000 2                  TRA     LDEV_ERR
         2 001447   002426 710000 2                  TRA     LDEV_ERR
         2 001450   002426 710000 2                  TRA     LDEV_ERR
         2 001451   002426 710000 2                  TRA     LDEV_ERR
         2 001452   002426 710000 2                  TRA     LDEV_ERR
         2 001453   002426 710000 2                  TRA     LDEV_ERR
         2 001454   002426 710000 2                  TRA     LDEV_ERR
         2 001455   002426 710000 2                  TRA     LDEV_ERR
         2 001456   002426 710000 2                  TRA     LDEV_ERR
         2 001457   002426 710000 2                  TRA     LDEV_ERR
         2 001460   002426 710000 2                  TRA     LDEV_ERR
         2 001461   002426 710000 2                  TRA     LDEV_ERR
PL6.E3A0      #001=CXX$CONTEXT2 File=CXX$CONTEXT2.:E05TSI                        TUE 07/29/97 12:29 Page:67
         2 001462   002426 710000 2                  TRA     LDEV_ERR
         2 001463   002426 710000 2                  TRA     LDEV_ERR
         2 001464   002426 710000 2                  TRA     LDEV_ERR
         2 001465   002426 710000 2                  TRA     LDEV_ERR
         2 001466   002426 710000 2                  TRA     LDEV_ERR
         2 001467   002426 710000 2                  TRA     LDEV_ERR
         2 001470   002426 710000 2                  TRA     LDEV_ERR
         2 001471   002426 710000 2                  TRA     LDEV_ERR
         2 001472   002426 710000 2                  TRA     LDEV_ERR
         2 001473   002426 710000 2                  TRA     LDEV_ERR
         2 001474   002426 710000 2                  TRA     LDEV_ERR
         2 001475   002426 710000 2                  TRA     LDEV_ERR
         2 001476   002426 710000 2                  TRA     LDEV_ERR
         2 001477   002426 710000 2                  TRA     LDEV_ERR
         2 001500   002426 710000 2                  TRA     LDEV_ERR
         2 001501   002426 710000 2                  TRA     LDEV_ERR
         2 001502   002426 710000 2                  TRA     LDEV_ERR
         2 001503   002426 710000 2                  TRA     LDEV_ERR
         2 001504   002426 710000 2                  TRA     LDEV_ERR
         2 001505   002426 710000 2                  TRA     LDEV_ERR
         2 001506   002426 710000 2                  TRA     LDEV_ERR
         2 001507   002426 710000 2                  TRA     LDEV_ERR
         2 001510   002426 710000 2                  TRA     LDEV_ERR
         2 001511   002426 710000 2                  TRA     LDEV_ERR
         2 001512   002426 710000 2                  TRA     LDEV_ERR
         2 001513   002426 710000 2                  TRA     LDEV_ERR
         2 001514   002426 710000 2                  TRA     LDEV_ERR
         2 001515   002426 710000 2                  TRA     LDEV_ERR
         2 001516   002426 710000 2                  TRA     LDEV_ERR
         2 001517   002426 710000 2                  TRA     LDEV_ERR
         2 001520   002426 710000 2                  TRA     LDEV_ERR
         2 001521   002426 710000 2                  TRA     LDEV_ERR
         2 001522   002426 710000 2                  TRA     LDEV_ERR
         2 001523   002426 710000 2                  TRA     LDEV_ERR
         2 001524   002426 710000 2                  TRA     LDEV_ERR
         2 001525   002426 710000 2                  TRA     LDEV_ERR
         2 001526   002426 710000 2                  TRA     LDEV_ERR
PL6.E3A0      #001=CXX$CONTEXT2 File=CXX$CONTEXT2.:E05TSI                        TUE 07/29/97 12:29 Page:68
         2 001527   002426 710000 2                  TRA     LDEV_ERR
         2 001530   002426 710000 2                  TRA     LDEV_ERR
         2 001531   002426 710000 2                  TRA     LDEV_ERR
         2 001532   002426 710000 2                  TRA     LDEV_ERR
         2 001533   002426 710000 2                  TRA     LDEV_ERR
         2 001534   002426 710000 2                  TRA     LDEV_ERR
         2 001535   002426 710000 2                  TRA     LDEV_ERR
         2 001536   002426 710000 2                  TRA     LDEV_ERR
         2 001537   002426 710000 2                  TRA     LDEV_ERR
         2 001540   002426 710000 2                  TRA     LDEV_ERR
         2 001541   002426 710000 2                  TRA     LDEV_ERR
         2 001542   002426 710000 2                  TRA     LDEV_ERR
         2 001543   002426 710000 2                  TRA     LDEV_ERR
         2 001544   002426 710000 2                  TRA     LDEV_ERR
         2 001545   002426 710000 2                  TRA     LDEV_ERR
         2 001546   002426 710000 2                  TRA     LDEV_ERR
         2 001547   002426 710000 2                  TRA     LDEV_ERR
         2 001550   002426 710000 2                  TRA     LDEV_ERR
         2 001551   002426 710000 2                  TRA     LDEV_ERR
         2 001552   002426 710000 2                  TRA     LDEV_ERR
         2 001553   002426 710000 2                  TRA     LDEV_ERR
         2 001554   002426 710000 2                  TRA     LDEV_ERR
         2 001555   002426 710000 2                  TRA     LDEV_ERR
         2 001556   002426 710000 2                  TRA     LDEV_ERR
         2 001557   002426 710000 2                  TRA     LDEV_ERR
         2 001560   002426 710000 2                  TRA     LDEV_ERR
         2 001561   002426 710000 2                  TRA     LDEV_ERR
         2 001562   002426 710000 2                  TRA     LDEV_ERR
         2 001563   002426 710000 2                  TRA     LDEV_ERR
         2 001564   002426 710000 2                  TRA     LDEV_ERR
         2 001565   002426 710000 2                  TRA     LDEV_ERR
         2 001566   002426 710000 2                  TRA     LDEV_ERR
         2 001567   002426 710000 2                  TRA     LDEV_ERR
         2 001570   002426 710000 2                  TRA     LDEV_ERR
         2 001571   002426 710000 2                  TRA     LDEV_ERR
         2 001572   002426 710000 2                  TRA     LDEV_ERR
         2 001573   002426 710000 2                  TRA     LDEV_ERR
PL6.E3A0      #001=CXX$CONTEXT2 File=CXX$CONTEXT2.:E05TSI                        TUE 07/29/97 12:29 Page:69
         2 001574   002426 710000 2                  TRA     LDEV_ERR
         2 001575   002426 710000 2                  TRA     LDEV_ERR
         2 001576   002426 710000 2                  TRA     LDEV_ERR
         2 001577   002426 710000 2                  TRA     LDEV_ERR
         2 001600   002426 710000 2                  TRA     LDEV_ERR
         2 001601   002426 710000 2                  TRA     LDEV_ERR
         2 001602   002426 710000 2                  TRA     LDEV_ERR
         2 001603   002426 710000 2                  TRA     LDEV_ERR
         2 001604   002426 710000 2                  TRA     LDEV_ERR
         2 001605   002426 710000 2                  TRA     LDEV_ERR
         2 001606   002426 710000 2                  TRA     LDEV_ERR
         2 001607   002426 710000 2                  TRA     LDEV_ERR
         2 001610   002426 710000 2                  TRA     LDEV_ERR
         2 001611   002426 710000 2                  TRA     LDEV_ERR
         2 001612   002426 710000 2                  TRA     LDEV_ERR
         2 001613   002426 710000 2                  TRA     LDEV_ERR
         2 001614   002426 710000 2                  TRA     LDEV_ERR
         2 001615   002426 710000 2                  TRA     LDEV_ERR
         2 001616   002426 710000 2                  TRA     LDEV_ERR
         2 001617   002426 710000 2                  TRA     LDEV_ERR
         2 001620   002426 710000 2                  TRA     LDEV_ERR
         2 001621   002426 710000 2                  TRA     LDEV_ERR
         2 001622   002426 710000 2                  TRA     LDEV_ERR
         2 001623   002426 710000 2                  TRA     LDEV_ERR
         2 001624   002426 710000 2                  TRA     LDEV_ERR
         2 001625   002426 710000 2                  TRA     LDEV_ERR
         2 001626   002426 710000 2                  TRA     LDEV_ERR
         2 001627   002426 710000 2                  TRA     LDEV_ERR
         2 001630   002426 710000 2                  TRA     LDEV_ERR
         2 001631   002426 710000 2                  TRA     LDEV_ERR
         2 001632   002426 710000 2                  TRA     LDEV_ERR
         2 001633   002426 710000 2                  TRA     LDEV_ERR
         2 001634   002426 710000 2                  TRA     LDEV_ERR
         2 001635   002426 710000 2                  TRA     LDEV_ERR
         2 001636   002426 710000 2                  TRA     LDEV_ERR
         2 001637   002426 710000 2                  TRA     LDEV_ERR
         2 001640   002426 710000 2                  TRA     LDEV_ERR
PL6.E3A0      #001=CXX$CONTEXT2 File=CXX$CONTEXT2.:E05TSI                        TUE 07/29/97 12:29 Page:70
         2 001641   002426 710000 2                  TRA     LDEV_ERR
         2 001642   002426 710000 2                  TRA     LDEV_ERR
         2 001643   002426 710000 2                  TRA     LDEV_ERR
         2 001644   002426 710000 2                  TRA     LDEV_ERR
         2 001645   002426 710000 2                  TRA     LDEV_ERR
         2 001646   002426 710000 2                  TRA     LDEV_ERR
         2 001647   002426 710000 2                  TRA     LDEV_ERR
         2 001650   002426 710000 2                  TRA     LDEV_ERR
         2 001651   002426 710000 2                  TRA     LDEV_ERR
         2 001652   002426 710000 2                  TRA     LDEV_ERR
         2 001653   002426 710000 2                  TRA     LDEV_ERR
         2 001654   002426 710000 2                  TRA     LDEV_ERR
         2 001655   002426 710000 2                  TRA     LDEV_ERR
         2 001656   002426 710000 2                  TRA     LDEV_ERR
         2 001657   002426 710000 2                  TRA     LDEV_ERR
         2 001660   002426 710000 2                  TRA     LDEV_ERR
         2 001661   002426 710000 2                  TRA     LDEV_ERR
         2 001662   002426 710000 2                  TRA     LDEV_ERR
         2 001663   002426 710000 2                  TRA     LDEV_ERR
         2 001664   002426 710000 2                  TRA     LDEV_ERR
         2 001665   002426 710000 2                  TRA     LDEV_ERR
         2 001666   002426 710000 2                  TRA     LDEV_ERR
         2 001667   002426 710000 2                  TRA     LDEV_ERR
         2 001670   002426 710000 2                  TRA     LDEV_ERR
         2 001671   002426 710000 2                  TRA     LDEV_ERR
         2 001672   002426 710000 2                  TRA     LDEV_ERR
         2 001673   002426 710000 2                  TRA     LDEV_ERR
         2 001674   002426 710000 2                  TRA     LDEV_ERR
         2 001675   002426 710000 2                  TRA     LDEV_ERR
         2 001676   002426 710000 2                  TRA     LDEV_ERR
         2 001677   002426 710000 2                  TRA     LDEV_ERR
         2 001700   002426 710000 2                  TRA     LDEV_ERR
         2 001701   002426 710000 2                  TRA     LDEV_ERR
         2 001702   002426 710000 2                  TRA     LDEV_ERR
         2 001703   002426 710000 2                  TRA     LDEV_ERR
         2 001704   002426 710000 2                  TRA     LDEV_ERR
         2 001705   002426 710000 2                  TRA     LDEV_ERR
PL6.E3A0      #001=CXX$CONTEXT2 File=CXX$CONTEXT2.:E05TSI                        TUE 07/29/97 12:29 Page:71
         2 001706   002426 710000 2                  TRA     LDEV_ERR
         2 001707   002426 710000 2                  TRA     LDEV_ERR
         2 001710   002426 710000 2                  TRA     LDEV_ERR
         2 001711   002426 710000 2                  TRA     LDEV_ERR
         2 001712   002426 710000 2                  TRA     LDEV_ERR
         2 001713   002426 710000 2                  TRA     LDEV_ERR
         2 001714   002426 710000 2                  TRA     LDEV_ERR
         2 001715   002426 710000 2                  TRA     LDEV_ERR
         2 001716   002426 710000 2                  TRA     LDEV_ERR
         2 001717   002426 710000 2                  TRA     LDEV_ERR
         2 001720   002426 710000 2                  TRA     LDEV_ERR
         2 001721   002426 710000 2                  TRA     LDEV_ERR
         2 001722   002426 710000 2                  TRA     LDEV_ERR
         2 001723   002426 710000 2                  TRA     LDEV_ERR
         2 001724   002426 710000 2                  TRA     LDEV_ERR
         2 001725   002426 710000 2                  TRA     LDEV_ERR
         2 001726   002426 710000 2                  TRA     LDEV_ERR
         2 001727   002426 710000 2                  TRA     LDEV_ERR
         2 001730   002426 710000 2                  TRA     LDEV_ERR
         2 001731   002426 710000 2                  TRA     LDEV_ERR
         2 001732   002426 710000 2                  TRA     LDEV_ERR
         2 001733   002426 710000 2                  TRA     LDEV_ERR
         2 001734   002426 710000 2                  TRA     LDEV_ERR
         2 001735   002426 710000 2                  TRA     LDEV_ERR
         2 001736   002426 710000 2                  TRA     LDEV_ERR
         2 001737   002426 710000 2                  TRA     LDEV_ERR
         2 001740   002426 710000 2                  TRA     LDEV_ERR
         2 001741   002426 710000 2                  TRA     LDEV_ERR
         2 001742   002426 710000 2                  TRA     LDEV_ERR
         2 001743   002426 710000 2                  TRA     LDEV_ERR
         2 001744   002426 710000 2                  TRA     LDEV_ERR
         2 001745   002426 710000 2                  TRA     LDEV_ERR
         2 001746   002426 710000 2                  TRA     LDEV_ERR
         2 001747   002426 710000 2                  TRA     LDEV_ERR
         2 001750   002426 710000 2                  TRA     LDEV_ERR
         2 001751   002426 710000 2                  TRA     LDEV_ERR
         2 001752   002426 710000 2                  TRA     LDEV_ERR
PL6.E3A0      #001=CXX$CONTEXT2 File=CXX$CONTEXT2.:E05TSI                        TUE 07/29/97 12:29 Page:72
         2 001753   002426 710000 2                  TRA     LDEV_ERR
         2 001754   002426 710000 2                  TRA     LDEV_ERR
         2 001755   002426 710000 2                  TRA     LDEV_ERR
         2 001756   002426 710000 2                  TRA     LDEV_ERR
         2 001757   002426 710000 2                  TRA     LDEV_ERR
         2 001760   002426 710000 2                  TRA     LDEV_ERR
         2 001761   002426 710000 2                  TRA     LDEV_ERR
         2 001762   002426 710000 2                  TRA     LDEV_ERR
         2 001763   002426 710000 2                  TRA     LDEV_ERR
         2 001764   002426 710000 2                  TRA     LDEV_ERR
         2 001765   002426 710000 2                  TRA     LDEV_ERR
         2 001766   002426 710000 2                  TRA     LDEV_ERR
         2 001767   002426 710000 2                  TRA     LDEV_ERR
         2 001770   002426 710000 2                  TRA     LDEV_ERR
         2 001771   002426 710000 2                  TRA     LDEV_ERR
         2 001772   002426 710000 2                  TRA     LDEV_ERR
         2 001773   002426 710000 2                  TRA     LDEV_ERR
         2 001774   002426 710000 2                  TRA     LDEV_ERR
         2 001775   002426 710000 2                  TRA     LDEV_ERR
         2 001776   002426 710000 2                  TRA     LDEV_ERR
         2 001777   002426 710000 2                  TRA     LDEV_ERR
         2 002000   002426 710000 2                  TRA     LDEV_ERR
         2 002001   002426 710000 2                  TRA     LDEV_ERR
         2 002002   002426 710000 2                  TRA     LDEV_ERR
         2 002003   002426 710000 2                  TRA     LDEV_ERR
         2 002004   002426 710000 2                  TRA     LDEV_ERR
         2 002005   002426 710000 2                  TRA     LDEV_ERR
         2 002006   002426 710000 2                  TRA     LDEV_ERR
         2 002007   002426 710000 2                  TRA     LDEV_ERR
         2 002010   002426 710000 2                  TRA     LDEV_ERR
         2 002011   002426 710000 2                  TRA     LDEV_ERR
         2 002012   002426 710000 2                  TRA     LDEV_ERR
         2 002013   002426 710000 2                  TRA     LDEV_ERR
         2 002014   002426 710000 2                  TRA     LDEV_ERR
         2 002015   002426 710000 2                  TRA     LDEV_ERR
         2 002016   002426 710000 2                  TRA     LDEV_ERR
         2 002017   002426 710000 2                  TRA     LDEV_ERR
PL6.E3A0      #001=CXX$CONTEXT2 File=CXX$CONTEXT2.:E05TSI                        TUE 07/29/97 12:29 Page:73
         2 002020   002426 710000 2                  TRA     LDEV_ERR
         2 002021   002426 710000 2                  TRA     LDEV_ERR
         2 002022   002426 710000 2                  TRA     LDEV_ERR
         2 002023   002426 710000 2                  TRA     LDEV_ERR
         2 002024   002426 710000 2                  TRA     LDEV_ERR
         2 002025   002426 710000 2                  TRA     LDEV_ERR
         2 002026   002426 710000 2                  TRA     LDEV_ERR
         2 002027   002426 710000 2                  TRA     LDEV_ERR
         2 002030   002426 710000 2                  TRA     LDEV_ERR
         2 002031   002426 710000 2                  TRA     LDEV_ERR
         2 002032   002426 710000 2                  TRA     LDEV_ERR
         2 002033   002362 710000 2                  TRA     s:7605

      430     7543    2        CASE (LD_COPY);

      431     7544    2         IF VALUE < 1 OR VALUE > 511

   7544  2 002034   200206 235100                    LDA     VALUE,,AUTO
         2 002035   002040 604400 2                  TMOZ    s:7546
         2 002036   000777 115007                    CMPA    511,DL
         2 002037   002426 604400 2                  TMOZ    LDEV_ERR

      432     7545    2           THEN
      433     7546    2            CALL POST_ERROR (OUT$SYM.CPOS,E_XRANGE511);

   7546  2 002040   000005 236000 3                  LDQ     5
         2 002041   200220 756100                    STQ     @CPOS+1,,AUTO
         2 002042   200205 236100                    LDQ     PTR1$,,AUTO
         2 002043   000002 036003                    ADLQ    2,DU
         2 002044   200217 756100                    STQ     I+2,,AUTO
         2 002045   003327 701000 2                  TSX1    POST_ERROR
         2 002046   000000 011000                    NOP     0
         2 002047   002426 710000 2                  TRA     LDEV_ERR

      434     7547    2        CASE (LD_DVFC);

      435     7548    2         IF OUT$BLK.NDTYPE = %OCT#
PL6.E3A0      #001=CXX$CONTEXT2 File=CXX$CONTEXT2.:E05TSI                        TUE 07/29/97 12:29 Page:74

   7548  2 002050   000000 236100                    LDQ     0,,PR0
         2 002051   000077 376003                    ANQ     63,DU
         2 002052   000021 116003                    CMPQ    17,DU
         2 002053   002067 601000 2                  TNZ     s:7555

      436     7549    2           THEN /* DVFC=O'xxx' */
      437     7550    2            IF VALUE > 255

   7550  2 002054   200206 235100                    LDA     VALUE,,AUTO
         2 002055   000377 115007                    CMPA    255,DL
         2 002056   002426 604400 2                  TMOZ    LDEV_ERR

      438     7551    2              THEN
      439     7552    2               CALL POST_ERROR(OUT$SYM.CPOS, E_XILLDVFC);

   7552  2 002057   000023 236000 3                  LDQ     19
         2 002060   200220 756100                    STQ     @CPOS+1,,AUTO
         2 002061   200205 236100                    LDQ     PTR1$,,AUTO
         2 002062   000002 036003                    ADLQ    2,DU
         2 002063   200217 756100                    STQ     I+2,,AUTO
         2 002064   003327 701000 2                  TSX1    POST_ERROR
         2 002065   000000 011000                    NOP     0
         2 002066   002426 710000 2                  TRA     LDEV_ERR

      440     7553    2              ELSE;
      441     7554    2           ELSE /* DVFC='x' */
      442     7555    2            IF OUT$SYM.COUNT > 1

   7555  2 002067   200205 471500                    LDP1    PTR1$,,AUTO
         2 002070   100004 236100                    LDQ     4,,PR1
         2 002071   777000 376003                    ANQ     -512,DU
         2 002072   002000 116003                    CMPQ    1024,DU
         2 002073   002103 603000 2                  TRC     s:7558
         2 002074   100004 236100                    LDQ     4,,PR1
         2 002075   000033 772000                    QRL     27
         2 002076   100004 236100                    LDQ     4,,PR1
PL6.E3A0      #001=CXX$CONTEXT2 File=CXX$CONTEXT2.:E05TSI                        TUE 07/29/97 12:29 Page:75
         2 002077   000777 376003                    ANQ     511,DU
         2 002100   000377 116003                    CMPQ    255,DU
         2 002101   002426 602000 2                  TNC     LDEV_ERR
         2 002102   002426 600000 2                  TZE     LDEV_ERR

      443     7556    2             OR SUBSTR(OUT$SYM.TEXT, 0, 1) > BINASC(255)
      444     7557    2              THEN
      445     7558    2               CALL POST_ERROR (OUT$SYM.CPOS,E_XILLDVFC);

   7558  2 002103   000023 236000 3                  LDQ     19
         2 002104   200220 756100                    STQ     @CPOS+1,,AUTO
         2 002105   200205 236100                    LDQ     PTR1$,,AUTO
         2 002106   000002 036003                    ADLQ    2,DU
         2 002107   200217 756100                    STQ     I+2,,AUTO
         2 002110   003327 701000 2                  TSX1    POST_ERROR
         2 002111   000000 011000                    NOP     0
         2 002112   002426 710000 2                  TRA     LDEV_ERR

      446     7559    2        CASE (LD_FID);

      447     7560    2         CALL CNVRT_FID ALTRET(LDEV_ERR);

   7560  2 002113   003133 701000 2                  TSX1    CNVRT_FID
         2 002114   002426 702000 2                  TSX2    LDEV_ERR

      448     7561    2         IF FID_RESULTS.RES = %NO#

   7561  2 002115   200040 236100                    LDQ     FID_RESULTS,,AUTO
         2 002116   004000 316003                    CANQ    2048,DU
         2 002117   002426 601000 2                  TNZ     LDEV_ERR

      449     7562    2           THEN
      450     7563    2            CALL POST_ERROR (OUT$SYM.CPOS,E_XBDSTRFID);

   7563  2 002120   000034 236000 3                  LDQ     28
         2 002121   200220 756100                    STQ     @CPOS+1,,AUTO
         2 002122   200205 236100                    LDQ     PTR1$,,AUTO
PL6.E3A0      #001=CXX$CONTEXT2 File=CXX$CONTEXT2.:E05TSI                        TUE 07/29/97 12:29 Page:76
         2 002123   000002 036003                    ADLQ    2,DU
         2 002124   200217 756100                    STQ     I+2,,AUTO
         2 002125   003327 701000 2                  TSX1    POST_ERROR
         2 002126   000000 011000                    NOP     0
         2 002127   002426 710000 2                  TRA     LDEV_ERR

      451     7564    2        CASE (LD_FORM);

      452     7565    2         IF OUT$SYM.COUNT = 0

   7565  2 002130   200205 471500                    LDP1    PTR1$,,AUTO
         2 002131   100004 236100                    LDQ     4,,PR1
         2 002132   777000 316003                    CANQ    -512,DU
         2 002133   002143 601000 2                  TNZ     s:7568

      453     7566    2           THEN /* Null string */
      454     7567    2            CALL POST_ERROR (OUT$SYM.CPOS,E_XNULLSTRING);

   7567  2 002134   000025 236000 3                  LDQ     21
         2 002135   200220 756100                    STQ     @CPOS+1,,AUTO
         2 002136   200205 236100                    LDQ     PTR1$,,AUTO
         2 002137   000002 036003                    ADLQ    2,DU
         2 002140   200217 756100                    STQ     I+2,,AUTO
         2 002141   003327 701000 2                  TSX1    POST_ERROR
         2 002142   000000 011000                    NOP     0

      455     7568    2         IF OUT$SYM.COUNT > 6

   7568  2 002143   200205 470500                    LDP0    PTR1$,,AUTO
         2 002144   000004 236100                    LDQ     4,,PR0
         2 002145   777000 376003                    ANQ     -512,DU
         2 002146   007000 116003                    CMPQ    3584,DU
         2 002147   002426 602000 2                  TNC     LDEV_ERR

      456     7569    2           THEN
      457     7570    2            CALL POST_ERROR (OUT$SYM.CPOS,E_XBIG6CHAR);

PL6.E3A0      #001=CXX$CONTEXT2 File=CXX$CONTEXT2.:E05TSI                        TUE 07/29/97 12:29 Page:77
   7570  2 002150   000024 236000 3                  LDQ     20
         2 002151   200220 756100                    STQ     @CPOS+1,,AUTO
         2 002152   200205 236100                    LDQ     PTR1$,,AUTO
         2 002153   000002 036003                    ADLQ    2,DU
         2 002154   200217 756100                    STQ     I+2,,AUTO
         2 002155   003327 701000 2                  TSX1    POST_ERROR
         2 002156   000000 011000                    NOP     0
         2 002157   002426 710000 2                  TRA     LDEV_ERR

      458     7571    2        CASE (LD_HEIGHT);

      459     7572    2         IF VALUE > 15

   7572  2 002160   200206 235100                    LDA     VALUE,,AUTO
         2 002161   000017 115007                    CMPA    15,DL
         2 002162   002426 604400 2                  TMOZ    LDEV_ERR

      460     7573    2           THEN
      461     7574    2            CALL POST_ERROR (OUT$SYM.CPOS,E_XBIG15);

   7574  2 002163   000016 236000 3                  LDQ     14
         2 002164   200220 756100                    STQ     @CPOS+1,,AUTO
         2 002165   200205 236100                    LDQ     PTR1$,,AUTO
         2 002166   000002 036003                    ADLQ    2,DU
         2 002167   200217 756100                    STQ     I+2,,AUTO
         2 002170   003327 701000 2                  TSX1    POST_ERROR
         2 002171   000000 011000                    NOP     0
         2 002172   002426 710000 2                  TRA     LDEV_ERR

      462     7575    2        CASE (LD_INDENT, LD_MARGIN, LD_PAGE, LD_SEQCOL, LD_WIDTH);

      463     7576    2         IF VALUE < 1 OR VALUE > 255

   7576  2 002173   200206 235100                    LDA     VALUE,,AUTO
         2 002174   002177 604400 2                  TMOZ    s:7578
         2 002175   000377 115007                    CMPA    255,DL
         2 002176   002426 604400 2                  TMOZ    LDEV_ERR
PL6.E3A0      #001=CXX$CONTEXT2 File=CXX$CONTEXT2.:E05TSI                        TUE 07/29/97 12:29 Page:78

      464     7577    2           THEN
      465     7578    2            CALL POST_ERROR (OUT$SYM.CPOS,E_XRANGE255);

   7578  2 002177   000013 236000 3                  LDQ     11
         2 002200   200220 756100                    STQ     @CPOS+1,,AUTO
         2 002201   200205 236100                    LDQ     PTR1$,,AUTO
         2 002202   000002 036003                    ADLQ    2,DU
         2 002203   200217 756100                    STQ     I+2,,AUTO
         2 002204   003327 701000 2                  TSX1    POST_ERROR
         2 002205   000000 011000                    NOP     0
         2 002206   002426 710000 2                  TRA     LDEV_ERR

      466     7579    2        CASE (LD_LINES);

      467     7580    2         IF VALUE > 32767

   7580  2 002207   200206 235100                    LDA     VALUE,,AUTO
         2 002210   077777 115007                    CMPA    32767,DL
         2 002211   002426 604400 2                  TMOZ    LDEV_ERR

      468     7581    2           THEN
      469     7582    2            CALL POST_ERROR (OUT$SYM.CPOS,E_XBIG32767);

   7582  2 002212   000035 236000 3                  LDQ     29
         2 002213   200220 756100                    STQ     @CPOS+1,,AUTO
         2 002214   200205 236100                    LDQ     PTR1$,,AUTO
         2 002215   000002 036003                    ADLQ    2,DU
         2 002216   200217 756100                    STQ     I+2,,AUTO
         2 002217   003327 701000 2                  TSX1    POST_ERROR
         2 002220   000000 011000                    NOP     0
         2 002221   002426 710000 2                  TRA     LDEV_ERR

      470     7583    2        CASE (LD_SEQID);

      471     7584    2         IF OUT$SYM.COUNT > 4

PL6.E3A0      #001=CXX$CONTEXT2 File=CXX$CONTEXT2.:E05TSI                        TUE 07/29/97 12:29 Page:79
   7584  2 002222   200205 471500                    LDP1    PTR1$,,AUTO
         2 002223   100004 236100                    LDQ     4,,PR1
         2 002224   777000 376003                    ANQ     -512,DU
         2 002225   005000 116003                    CMPQ    2560,DU
         2 002226   002426 602000 2                  TNC     LDEV_ERR

      472     7585    2           THEN
      473     7586    2            CALL POST_ERROR (OUT$SYM.CPOS,E_XBIGSEQID);

   7586  2 002227   000027 236000 3                  LDQ     23
         2 002230   200220 756100                    STQ     @CPOS+1,,AUTO
         2 002231   200205 236100                    LDQ     PTR1$,,AUTO
         2 002232   000002 036003                    ADLQ    2,DU
         2 002233   200217 756100                    STQ     I+2,,AUTO
         2 002234   003327 701000 2                  TSX1    POST_ERROR
         2 002235   000000 011000                    NOP     0
         2 002236   002426 710000 2                  TRA     LDEV_ERR

      474     7587    2        CASE (LD_STNAME);

      475     7588    2         IF OUT$SYM.COUNT ~= 4

   7588  2 002237   200205 471500                    LDP1    PTR1$,,AUTO
         2 002240   100004 236100                    LDQ     4,,PR1
         2 002241   777000 376003                    ANQ     -512,DU
         2 002242   004000 116003                    CMPQ    2048,DU
         2 002243   002276 600000 2                  TZE     s:7593
         2 002244   100004 236100                    LDQ     4,,PR1
         2 002245   000033 772000                    QRL     27
         2 002246   000000 620006                    EAX0    0,QL
         2 002247   040000 106540                    CMPC    fill='040'O
         2 002250   100004 200010                    ADSC9   4,,PR1                   cn=1,n=*X0
         2 002251   000104 000002 1                  ADSC9   SBINMAX_O+1              cn=0,n=2
         2 002252   002276 600000 2                  TZE     s:7593
         2 002253   040000 106540                    CMPC    fill='040'O
         2 002254   100004 200010                    ADSC9   4,,PR1                   cn=1,n=*X0
         2 002255   000105 000002 1                  ADSC9   SBINMAX_O+2              cn=0,n=2
PL6.E3A0      #001=CXX$CONTEXT2 File=CXX$CONTEXT2.:E05TSI                        TUE 07/29/97 12:29 Page:80
         2 002256   002276 600000 2                  TZE     s:7593
         2 002257   040000 106540                    CMPC    fill='040'O
         2 002260   100004 200010                    ADSC9   4,,PR1                   cn=1,n=*X0
         2 002261   000106 000002 1                  ADSC9   SBINMAX_O+3              cn=0,n=2
         2 002262   002276 600000 2                  TZE     s:7593
         2 002263   040000 106540                    CMPC    fill='040'O
         2 002264   100004 200010                    ADSC9   4,,PR1                   cn=1,n=*X0
         2 002265   000107 000002 1                  ADSC9   SBINMAX_O+4              cn=0,n=2
         2 002266   002276 600000 2                  TZE     s:7593

      476     7589    2          AND OUT$SYM.TEXT ~= 'LP' AND OUT$SYM.TEXT ~= 'CP'
      477     7590    2          AND OUT$SYM.TEXT ~= 'GR' AND OUT$SYM.TEXT ~= 'UC'
      478     7591    2           THEN
      479     7592    2            CALL POST_ERROR (OUT$SYM.CPOS,E_XBIG4CHAR);

   7592  2 002267   000036 236000 3                  LDQ     30
         2 002270   200220 756100                    STQ     @CPOS+1,,AUTO
         2 002271   200205 236100                    LDQ     PTR1$,,AUTO
         2 002272   000002 036003                    ADLQ    2,DU
         2 002273   200217 756100                    STQ     I+2,,AUTO
         2 002274   003327 701000 2                  TSX1    POST_ERROR
         2 002275   000000 011000                    NOP     0

      480     7593    2         IF OUT$SYM.COUNT ~= 4

   7593  2 002276   200205 470500                    LDP0    PTR1$,,AUTO
         2 002277   000004 236100                    LDQ     4,,PR0
         2 002300   777000 376003                    ANQ     -512,DU
         2 002301   004000 116003                    CMPQ    2048,DU
         2 002302   002426 601000 2                  TNZ     LDEV_ERR

      481     7594    2           THEN
      482     7595    2            EXIT;
      483     7596    2         IF SUBSTR(OUT$SYM.TEXT,2,1) < '0' OR SUBSTR(OUT$SYM.TEXT,2,1) > '9'

   7596  2 002303   000004 236100                    LDQ     4,,PR0
         2 002304   000033 772000                    QRL     27
PL6.E3A0      #001=CXX$CONTEXT2 File=CXX$CONTEXT2.:E05TSI                        TUE 07/29/97 12:29 Page:81
         2 002305   000004 236100                    LDQ     4,,PR0
         2 002306   000777 376007                    ANQ     511,DL
         2 002307   000060 116007                    CMPQ    48,DL
         2 002310   002335 602000 2                  TNC     s:7599
         2 002311   000004 236100                    LDQ     4,,PR0
         2 002312   000033 772000                    QRL     27
         2 002313   000004 236100                    LDQ     4,,PR0
         2 002314   000777 376007                    ANQ     511,DL
         2 002315   000071 116007                    CMPQ    57,DL
         2 002316   002320 600000 2                  TZE     s:7596+13
         2 002317   002335 603000 2                  TRC     s:7599
         2 002320   000004 236100                    LDQ     4,,PR0
         2 002321   000033 772000                    QRL     27
         2 002322   000005 236100                    LDQ     5,,PR0
         2 002323   777000 376003                    ANQ     -512,DU
         2 002324   060000 116003                    CMPQ    24576,DU
         2 002325   002335 602000 2                  TNC     s:7599
         2 002326   000004 236100                    LDQ     4,,PR0
         2 002327   000033 772000                    QRL     27
         2 002330   000005 236100                    LDQ     5,,PR0
         2 002331   777000 376003                    ANQ     -512,DU
         2 002332   071000 116003                    CMPQ    29184,DU
         2 002333   002426 602000 2                  TNC     LDEV_ERR
         2 002334   002426 600000 2                  TZE     LDEV_ERR

      484     7597    2          OR SUBSTR(OUT$SYM.TEXT,3,1) < '0' OR SUBSTR(OUT$SYM.TEXT,3,1) > '9'
      485     7598    2           THEN
      486     7599    2            CALL POST_ERROR (OUT$SYM.CPOS+2,E_BDCVAL);

   7599  2 002335   000002 235100                    LDA     2,,PR0
         2 002336   000002 035007                    ADLA    2,DL
         2 002337   200225 755100                    STA     @ERRCODE+5,,AUTO
         2 002340   000037 236000 3                  LDQ     31
         2 002341   200220 756100                    STQ     @CPOS+1,,AUTO
         2 002342   200225 631500                    EPPR1   @ERRCODE+5,,AUTO
         2 002343   200217 451500                    STP1    I+2,,AUTO
         2 002344   003327 701000 2                  TSX1    POST_ERROR
PL6.E3A0      #001=CXX$CONTEXT2 File=CXX$CONTEXT2.:E05TSI                        TUE 07/29/97 12:29 Page:82
         2 002345   000000 011000                    NOP     0
         2 002346   002426 710000 2                  TRA     LDEV_ERR

      487     7600    2        CASE (LD_TABS);

      488     7601    2         IF OUT$BLK.NSUBLKS > 31

   7601  2 002347   000001 220100                    LDX0    1,,PR0
         2 002350   000040 100003                    CMPX0   32,DU
         2 002351   002426 602000 2                  TNC     LDEV_ERR

      489     7602    2           THEN
      490     7603    2            CALL POST_ERROR (OUT$BLK.SUBLK$(31)->OUT$SYM.CPOS,E_XTMTABS);

   7603  2 002352   000042 471500                    LDP1    34,,PR0
         2 002353   000010 236000 3                  LDQ     8
         2 002354   200220 756100                    STQ     @CPOS+1,,AUTO
         2 002355   100002 633500                    EPPR3   2,,PR1
         2 002356   200217 453500                    STP3    I+2,,AUTO
         2 002357   003327 701000 2                  TSX1    POST_ERROR
         2 002360   000000 011000                    NOP     0
         2 002361   002426 710000 2                  TRA     LDEV_ERR

      491     7604    2        CASE (TAB_NUM);

      492     7605    2         IF VALUE > 255 THEN

   7605  2 002362   200206 235100                    LDA     VALUE,,AUTO
         2 002363   000377 115007                    CMPA    255,DL
         2 002364   002426 604400 2                  TMOZ    LDEV_ERR

      493     7606    2            CALL POST_ERROR (OUT$SYM.CPOS,E_XILLTAB);

   7606  2 002365   000011 236000 3                  LDQ     9
         2 002366   200220 756100                    STQ     @CPOS+1,,AUTO
         2 002367   200205 236100                    LDQ     PTR1$,,AUTO
         2 002370   000002 036003                    ADLQ    2,DU
PL6.E3A0      #001=CXX$CONTEXT2 File=CXX$CONTEXT2.:E05TSI                        TUE 07/29/97 12:29 Page:83
         2 002371   200217 756100                    STQ     I+2,,AUTO
         2 002372   003327 701000 2                  TSX1    POST_ERROR
         2 002373   000000 011000                    NOP     0
         2 002374   002426 710000 2                  TRA     LDEV_ERR

      494     7607    2        CASE (LD_TITLE);

      495     7608    2         IF OUT$SYM.COUNT > 114 THEN

   7608  2 002375   200205 471500                    LDP1    PTR1$,,AUTO
         2 002376   100004 236100                    LDQ     4,,PR1
         2 002377   777000 376003                    ANQ     -512,DU
         2 002400   163000 116003                    CMPQ    58880,DU
         2 002401   002426 602000 2                  TNC     LDEV_ERR

      496     7609    2            CALL POST_ERROR (OUT$SYM.CPOS+115,E_XRANGE114);

   7609  2 002402   100002 235100                    LDA     2,,PR1
         2 002403   000163 035007                    ADLA    115,DL
         2 002404   200226 755100                    STA     @ERRCODE+6,,AUTO
         2 002405   000014 236000 3                  LDQ     12
         2 002406   200220 756100                    STQ     @CPOS+1,,AUTO
         2 002407   200226 633500                    EPPR3   @ERRCODE+6,,AUTO
         2 002410   200217 453500                    STP3    I+2,,AUTO
         2 002411   003327 701000 2                  TSX1    POST_ERROR
         2 002412   000000 011000                    NOP     0
         2 002413   002426 710000 2                  TRA     LDEV_ERR

      497     7610    2        CASE (LD_HOLDCOPIES);

      498     7611    2         IF VALUE > 511

   7611  2 002414   200206 235100                    LDA     VALUE,,AUTO
         2 002415   000777 115007                    CMPA    511,DL
         2 002416   002426 604400 2                  TMOZ    LDEV_ERR

      499     7612    2           THEN
PL6.E3A0      #001=CXX$CONTEXT2 File=CXX$CONTEXT2.:E05TSI                        TUE 07/29/97 12:29 Page:84
      500     7613    2            CALL POST_ERROR (OUT$SYM.CPOS, E_XBIG511);

   7613  2 002417   000004 236000 3                  LDQ     4
         2 002420   200220 756100                    STQ     @CPOS+1,,AUTO
         2 002421   200205 236100                    LDQ     PTR1$,,AUTO
         2 002422   000002 036003                    ADLQ    2,DU
         2 002423   200217 756100                    STQ     I+2,,AUTO
         2 002424   003327 701000 2                  TSX1    POST_ERROR
         2 002425   000000 011000                    NOP     0

      501     7614    2        END;

      502     7615    1   LDEV_ERR:
      503     7616    1      RETURN;

   7616  2 002426   000000 702200 xent  LDEV_ERR     TSX2  ! X66_ARET

      504     7617        %EJECT;
PL6.E3A0      #001=CXX$CONTEXT2 File=CXX$CONTEXT2.:E05TSI                        TUE 07/29/97 12:29 Page:85
      505     7618    1   CXX$TERMINAL: ENTRY (OUT$BLK, XUG_GETCMD, CPSL_COMMAND_PARAMETERS, VALUE_OUT);

   7618  2 002427   000000 700200 xent  CXX$TERMINAL TSX0  ! X66_AUTO_4
         2 002430   000232 000004                    ZERO    154,4

      506     7619
      507     7620    1      CALL SETUP_AND_DECODE ALTRET (SET_ERR);

   7620  2 002431   003400 701000 2                  TSX1    SETUP_AND_DECODE
         2 002432   001344 702000 2                  TSX2    SET_ERR

      508     7621
      509     7622    2      DO CASE (OUT$BLK.CODE);

   7622  2 002433   200003 470500                    LDP0    @OUT$BLK,,AUTO
         2 002434   000000 236100                    LDQ     0,,PR0
         2 002435   777777 376007                    ANQ     -1,DL
         2 002436   000035 136007                    SBLQ    29,DL
         2 002437   000106 116007                    CMPQ    70,DL
         2 002440   002442 602006 2                  TNC     s:7622+7,QL
         2 002441   002655 710000 2                  TRA     s:7648
         2 002442   002641 710000 2                  TRA     s:7644
         2 002443   002655 710000 2                  TRA     s:7648
         2 002444   002655 710000 2                  TRA     s:7648
         2 002445   002655 710000 2                  TRA     s:7648
         2 002446   002655 710000 2                  TRA     s:7648
         2 002447   002655 710000 2                  TRA     s:7648
         2 002450   002655 710000 2                  TRA     s:7648
         2 002451   002655 710000 2                  TRA     s:7648
         2 002452   002655 710000 2                  TRA     s:7648
         2 002453   002655 710000 2                  TRA     s:7648
         2 002454   002655 710000 2                  TRA     s:7648
         2 002455   002655 710000 2                  TRA     s:7648
         2 002456   002655 710000 2                  TRA     s:7648
         2 002457   002576 710000 2                  TRA     s:7632
         2 002460   002655 710000 2                  TRA     s:7648
         2 002461   002655 710000 2                  TRA     s:7648
PL6.E3A0      #001=CXX$CONTEXT2 File=CXX$CONTEXT2.:E05TSI                        TUE 07/29/97 12:29 Page:86
         2 002462   002613 710000 2                  TRA     s:7636
         2 002463   002655 710000 2                  TRA     s:7648
         2 002464   002655 710000 2                  TRA     s:7648
         2 002465   002655 710000 2                  TRA     s:7648
         2 002466   002655 710000 2                  TRA     s:7648
         2 002467   002655 710000 2                  TRA     s:7648
         2 002470   002655 710000 2                  TRA     s:7648
         2 002471   002655 710000 2                  TRA     s:7648
         2 002472   002655 710000 2                  TRA     s:7648
         2 002473   002655 710000 2                  TRA     s:7648
         2 002474   002655 710000 2                  TRA     s:7648
         2 002475   002655 710000 2                  TRA     s:7648
         2 002476   002655 710000 2                  TRA     s:7648
         2 002477   002655 710000 2                  TRA     s:7648
         2 002500   002655 710000 2                  TRA     s:7648
         2 002501   002613 710000 2                  TRA     s:7636
         2 002502   002655 710000 2                  TRA     s:7648
         2 002503   002655 710000 2                  TRA     s:7648
         2 002504   002655 710000 2                  TRA     s:7648
         2 002505   002655 710000 2                  TRA     s:7648
         2 002506   002655 710000 2                  TRA     s:7648
         2 002507   002655 710000 2                  TRA     s:7648
         2 002510   002655 710000 2                  TRA     s:7648
         2 002511   002655 710000 2                  TRA     s:7648
         2 002512   002655 710000 2                  TRA     s:7648
         2 002513   002655 710000 2                  TRA     s:7648
         2 002514   002655 710000 2                  TRA     s:7648
         2 002515   002655 710000 2                  TRA     s:7648
         2 002516   002655 710000 2                  TRA     s:7648
         2 002517   002655 710000 2                  TRA     s:7648
         2 002520   002655 710000 2                  TRA     s:7648
         2 002521   002655 710000 2                  TRA     s:7648
         2 002522   002655 710000 2                  TRA     s:7648
         2 002523   002655 710000 2                  TRA     s:7648
         2 002524   002655 710000 2                  TRA     s:7648
         2 002525   002550 710000 2                  TRA     s:7624
         2 002526   002655 710000 2                  TRA     s:7648
PL6.E3A0      #001=CXX$CONTEXT2 File=CXX$CONTEXT2.:E05TSI                        TUE 07/29/97 12:29 Page:87
         2 002527   002655 710000 2                  TRA     s:7648
         2 002530   002655 710000 2                  TRA     s:7648
         2 002531   002655 710000 2                  TRA     s:7648
         2 002532   002655 710000 2                  TRA     s:7648
         2 002533   002655 710000 2                  TRA     s:7648
         2 002534   002655 710000 2                  TRA     s:7648
         2 002535   002655 710000 2                  TRA     s:7648
         2 002536   002655 710000 2                  TRA     s:7648
         2 002537   002655 710000 2                  TRA     s:7648
         2 002540   002655 710000 2                  TRA     s:7648
         2 002541   002655 710000 2                  TRA     s:7648
         2 002542   002626 710000 2                  TRA     s:7640
         2 002543   002563 710000 2                  TRA     s:7628
         2 002544   002655 710000 2                  TRA     s:7648
         2 002545   002655 710000 2                  TRA     s:7648
         2 002546   002655 710000 2                  TRA     s:7648
         2 002547   002613 710000 2                  TRA     s:7636

      510     7623    2        CASE (SINPUTSZOPT);

      511     7624    2         IF VALUE > 254

   7624  2 002550   200206 235100                    LDA     VALUE,,AUTO
         2 002551   000376 115007                    CMPA    254,DL
         2 002552   002655 604400 2                  TMOZ    s:7648

      512     7625    2           THEN
      513     7626    2            CALL POST_ERROR (OUT$SYM.CPOS,E_XTESINPUTSZ);

   7626  2 002553   000040 236000 3                  LDQ     32
         2 002554   200220 756100                    STQ     @CPOS+1,,AUTO
         2 002555   200205 236100                    LDQ     PTR1$,,AUTO
         2 002556   000002 036003                    ADLQ    2,DU
         2 002557   200217 756100                    STQ     I+2,,AUTO
         2 002560   003327 701000 2                  TSX1    POST_ERROR
         2 002561   000000 011000                    NOP     0
         2 002562   002655 710000 2                  TRA     s:7648
PL6.E3A0      #001=CXX$CONTEXT2 File=CXX$CONTEXT2.:E05TSI                        TUE 07/29/97 12:29 Page:88

      514     7627    2        CASE (WORDWRAPCLMOPT) ;

      515     7628    2         IF VALUE > 254

   7628  2 002563   200206 235100                    LDA     VALUE,,AUTO
         2 002564   000376 115007                    CMPA    254,DL
         2 002565   002655 604400 2                  TMOZ    s:7648

      516     7629    2           THEN
      517     7630    2            CALL POST_ERROR (OUT$SYM.CPOS,E_XTEWORDWRAPCLM);

   7630  2 002566   000041 236000 3                  LDQ     33
         2 002567   200220 756100                    STQ     @CPOS+1,,AUTO
         2 002570   200205 236100                    LDQ     PTR1$,,AUTO
         2 002571   000002 036003                    ADLQ    2,DU
         2 002572   200217 756100                    STQ     I+2,,AUTO
         2 002573   003327 701000 2                  TSX1    POST_ERROR
         2 002574   000000 011000                    NOP     0
         2 002575   002655 710000 2                  TRA     s:7648

      518     7631    2        CASE (FCNTBLOPT);

      519     7632    2         IF OUT$SYM.COUNT > 8

   7632  2 002576   200205 471500                    LDP1    PTR1$,,AUTO
         2 002577   100004 236100                    LDQ     4,,PR1
         2 002600   777000 376003                    ANQ     -512,DU
         2 002601   011000 116003                    CMPQ    4608,DU
         2 002602   002655 602000 2                  TNC     s:7648

      520     7633    2           THEN
      521     7634    2            CALL POST_ERROR (OUT$SYM.CPOS,E_XILLFCNTBL);

   7634  2 002603   000042 236000 3                  LDQ     34
         2 002604   200220 756100                    STQ     @CPOS+1,,AUTO
         2 002605   200205 236100                    LDQ     PTR1$,,AUTO
PL6.E3A0      #001=CXX$CONTEXT2 File=CXX$CONTEXT2.:E05TSI                        TUE 07/29/97 12:29 Page:89
         2 002606   000002 036003                    ADLQ    2,DU
         2 002607   200217 756100                    STQ     I+2,,AUTO
         2 002610   003327 701000 2                  TSX1    POST_ERROR
         2 002611   000000 011000                    NOP     0
         2 002612   002655 710000 2                  TRA     s:7648

      522     7635    2        CASE (DSPHEIGHTOPT, HEIGHTOPT, MINRECOPT);

      523     7636    2         IF VALUE > 254

   7636  2 002613   200206 235100                    LDA     VALUE,,AUTO
         2 002614   000376 115007                    CMPA    254,DL
         2 002615   002655 604400 2                  TMOZ    s:7648

      524     7637    2           THEN
      525     7638    2            CALL POST_ERROR (OUT$SYM.CPOS, E_XBIG254);

   7638  2 002616   000043 236000 3                  LDQ     35
         2 002617   200220 756100                    STQ     @CPOS+1,,AUTO
         2 002620   200205 236100                    LDQ     PTR1$,,AUTO
         2 002621   000002 036003                    ADLQ    2,DU
         2 002622   200217 756100                    STQ     I+2,,AUTO
         2 002623   003327 701000 2                  TSX1    POST_ERROR
         2 002624   000000 011000                    NOP     0
         2 002625   002655 710000 2                  TRA     s:7648

      526     7639    2        CASE (WIDTHOPT);

      527     7640    2         IF VALUE > 509

   7640  2 002626   200206 235100                    LDA     VALUE,,AUTO
         2 002627   000775 115007                    CMPA    509,DL
         2 002630   002655 604400 2                  TMOZ    s:7648

      528     7641    2           THEN
      529     7642    2            CALL POST_ERROR (OUT$SYM.CPOS, E_XBIG509);

PL6.E3A0      #001=CXX$CONTEXT2 File=CXX$CONTEXT2.:E05TSI                        TUE 07/29/97 12:29 Page:90
   7642  2 002631   000044 236000 3                  LDQ     36
         2 002632   200220 756100                    STQ     @CPOS+1,,AUTO
         2 002633   200205 236100                    LDQ     PTR1$,,AUTO
         2 002634   000002 036003                    ADLQ    2,DU
         2 002635   200217 756100                    STQ     I+2,,AUTO
         2 002636   003327 701000 2                  TSX1    POST_ERROR
         2 002637   000000 011000                    NOP     0
         2 002640   002655 710000 2                  TRA     s:7648

      530     7643    2        CASE (CHARSETNAMEOPT);

      531     7644    2         IF OUT$SYM.COUNT > 8

   7644  2 002641   200205 471500                    LDP1    PTR1$,,AUTO
         2 002642   100004 236100                    LDQ     4,,PR1
         2 002643   777000 376003                    ANQ     -512,DU
         2 002644   011000 116003                    CMPQ    4608,DU
         2 002645   002655 602000 2                  TNC     s:7648

      532     7645    2           THEN
      533     7646    2            CALL POST_ERROR (OUT$SYM.CPOS, E_XBIG8CHAR);

   7646  2 002646   000017 236000 3                  LDQ     15
         2 002647   200220 756100                    STQ     @CPOS+1,,AUTO
         2 002650   200205 236100                    LDQ     PTR1$,,AUTO
         2 002651   000002 036003                    ADLQ    2,DU
         2 002652   200217 756100                    STQ     I+2,,AUTO
         2 002653   003327 701000 2                  TSX1    POST_ERROR
         2 002654   000000 011000                    NOP     0

      534     7647    2        END;

      535     7648    1      RETURN;

   7648  2 002655   000000 702200 xent               TSX2  ! X66_ARET

      536     7649        %EJECT;
PL6.E3A0      #001=CXX$CONTEXT2 File=CXX$CONTEXT2.:E05TSI                        TUE 07/29/97 12:29 Page:91
      537     7650    1   CXX$UNHOLD: ENTRY (OUT$BLK, XUG_GETCMD, CPSL_COMMAND_PARAMETERS, VALUE_OUT);

   7650  2 002656   000000 700200 xent  CXX$UNHOLD   TSX0  ! X66_AUTO_4
         2 002657   000232 000004                    ZERO    154,4

      538     7651
      539     7652    1      CALL SETUP_AND_DECODE ALTRET (UNHOLD_ERR);

   7652  2 002660   003400 701000 2                  TSX1    SETUP_AND_DECODE
         2 002661   002762 702000 2                  TSX2    UNHOLD_ERR

      540     7653
      541     7654    2      DO CASE (OUT$BLK.CODE);

   7654  2 002662   200003 470500                    LDP0    @OUT$BLK,,AUTO
         2 002663   000000 720100                    LXL0    0,,PR0
         2 002664   000006 100003                    CMPX0   6,DU
         2 002665   002667 602010 2                  TNC     s:7654+5,X0
         2 002666   002762 710000 2                  TRA     UNHOLD_ERR
         2 002667   002762 710000 2                  TRA     UNHOLD_ERR
         2 002670   002733 710000 2                  TRA     s:7664
         2 002671   002675 710000 2                  TRA     s:7656
         2 002672   002714 710000 2                  TRA     s:7660
         2 002673   002750 710000 2                  TRA     s:7668
         2 002674   002750 710000 2                  TRA     s:7668

      542     7655    2        CASE (UNHOLD_FID);

      543     7656    2         IF OUT$SYM.COUNT > 31

   7656  2 002675   200205 471500                    LDP1    PTR1$,,AUTO
         2 002676   100004 236100                    LDQ     4,,PR1
         2 002677   777000 376003                    ANQ     -512,DU
         2 002700   040000 116003                    CMPQ    16384,DU
         2 002701   002762 602000 2                  TNC     UNHOLD_ERR

      544     7657    2           THEN
PL6.E3A0      #001=CXX$CONTEXT2 File=CXX$CONTEXT2.:E05TSI                        TUE 07/29/97 12:29 Page:92
      545     7658    2            CALL POST_ERROR (OUT$SYM.CPOS+31, E_XBIGNAME);

   7658  2 002702   100002 235100                    LDA     2,,PR1
         2 002703   000037 035007                    ADLA    31,DL
         2 002704   200227 755100                    STA     @ERRCODE+7,,AUTO
         2 002705   000045 236000 3                  LDQ     37
         2 002706   200220 756100                    STQ     @CPOS+1,,AUTO
         2 002707   200227 633500                    EPPR3   @ERRCODE+7,,AUTO
         2 002710   200217 453500                    STP3    I+2,,AUTO
         2 002711   003327 701000 2                  TSX1    POST_ERROR
         2 002712   000000 011000                    NOP     0
         2 002713   002762 710000 2                  TRA     UNHOLD_ERR

      546     7659    2        CASE (UNHOLD_JOBNAME);

      547     7660    2         IF OUT$SYM.COUNT > 31

   7660  2 002714   200205 471500                    LDP1    PTR1$,,AUTO
         2 002715   100004 236100                    LDQ     4,,PR1
         2 002716   777000 376003                    ANQ     -512,DU
         2 002717   040000 116003                    CMPQ    16384,DU
         2 002720   002762 602000 2                  TNC     UNHOLD_ERR

      548     7661    2           THEN
      549     7662    2            CALL POST_ERROR (OUT$SYM.CPOS+31, E_XBIGNAME);

   7662  2 002721   100002 235100                    LDA     2,,PR1
         2 002722   000037 035007                    ADLA    31,DL
         2 002723   200230 755100                    STA     @ERRCODE+8,,AUTO
         2 002724   000045 236000 3                  LDQ     37
         2 002725   200220 756100                    STQ     @CPOS+1,,AUTO
         2 002726   200230 633500                    EPPR3   @ERRCODE+8,,AUTO
         2 002727   200217 453500                    STP3    I+2,,AUTO
         2 002730   003327 701000 2                  TSX1    POST_ERROR
         2 002731   000000 011000                    NOP     0
         2 002732   002762 710000 2                  TRA     UNHOLD_ERR

PL6.E3A0      #001=CXX$CONTEXT2 File=CXX$CONTEXT2.:E05TSI                        TUE 07/29/97 12:29 Page:93
      550     7663    2        CASE (UNHOLD_ACCT);

      551     7664    2         IF OUT$SYM.COUNT > 8

   7664  2 002733   200205 471500                    LDP1    PTR1$,,AUTO
         2 002734   100004 236100                    LDQ     4,,PR1
         2 002735   777000 376003                    ANQ     -512,DU
         2 002736   011000 116003                    CMPQ    4608,DU
         2 002737   002762 602000 2                  TNC     UNHOLD_ERR

      552     7665    2           THEN
      553     7666    2            CALL POST_ERROR (OUT$SYM.CPOS, E_XBIGACCT);

   7666  2 002740   000006 236000 3                  LDQ     6
         2 002741   200220 756100                    STQ     @CPOS+1,,AUTO
         2 002742   200205 236100                    LDQ     PTR1$,,AUTO
         2 002743   000002 036003                    ADLQ    2,DU
         2 002744   200217 756100                    STQ     I+2,,AUTO
         2 002745   003327 701000 2                  TSX1    POST_ERROR
         2 002746   000000 011000                    NOP     0
         2 002747   002762 710000 2                  TRA     UNHOLD_ERR

      554     7667    2        CASE (UNHOLD_SYSID, UNHOLD_STREAM);

      555     7668    2         IF VALUE > 262142

   7668  2 002750   200206 235100                    LDA     VALUE,,AUTO
         2 002751   777776 115007                    CMPA    -2,DL
         2 002752   002762 604400 2                  TMOZ    UNHOLD_ERR

      556     7669    2           THEN
      557     7670    2            CALL POST_ERROR (OUT$SYM.CPOS, E_XBIG262142);

   7670  2 002753   000000 236000 3                  LDQ     0
         2 002754   200220 756100                    STQ     @CPOS+1,,AUTO
         2 002755   200205 236100                    LDQ     PTR1$,,AUTO
         2 002756   000002 036003                    ADLQ    2,DU
PL6.E3A0      #001=CXX$CONTEXT2 File=CXX$CONTEXT2.:E05TSI                        TUE 07/29/97 12:29 Page:94
         2 002757   200217 756100                    STQ     I+2,,AUTO
         2 002760   003327 701000 2                  TSX1    POST_ERROR
         2 002761   000000 011000                    NOP     0

      558     7671    2        END;

      559     7672    1   UNHOLD_ERR:
      560     7673    1      RETURN;

   7673  2 002762   000000 702200 xent  UNHOLD_ERR   TSX2  ! X66_ARET

      561     7674        %EJECT;
PL6.E3A0      #001=CXX$CONTEXT2 File=CXX$CONTEXT2.:E05TSI                        TUE 07/29/97 12:29 Page:95
      562     7675    1   CXX$WINDOW: ENTRY (OUT$BLK, XUG_GETCMD, CPSL_COMMAND_PARAMETERS, VALUE_OUT);

   7675  2 002763   000000 700200 xent  CXX$WINDOW   TSX0  ! X66_AUTO_4
         2 002764   000232 000004                    ZERO    154,4

      563     7676
      564     7677    1      CALL SETUP_AND_DECODE ALTRET (SET_ERR);

   7677  2 002765   003400 701000 2                  TSX1    SETUP_AND_DECODE
         2 002766   001344 702000 2                  TSX2    SET_ERR

      565     7678
      566     7679    2      DO CASE (OUT$BLK.CODE);

   7679  2 002767   200003 470500                    LDP0    @OUT$BLK,,AUTO
         2 002770   000000 720100                    LXL0    0,,PR0
         2 002771   000020 100003                    CMPX0   16,DU
         2 002772   002774 602010 2                  TNC     s:7679+5,X0
         2 002773   003132 710000 2                  TRA     s:7704
         2 002774   003132 710000 2                  TRA     s:7704
         2 002775   003132 710000 2                  TRA     s:7704
         2 002776   003042 710000 2                  TRA     s:7690
         2 002777   003116 710000 2                  TRA     s:7699
         2 003000   003014 710000 2                  TRA     s:7682
         2 003001   003132 710000 2                  TRA     s:7704
         2 003002   003103 710000 2                  TRA     s:7695
         2 003003   003103 710000 2                  TRA     s:7695
         2 003004   003132 710000 2                  TRA     s:7704
         2 003005   003132 710000 2                  TRA     s:7704
         2 003006   003132 710000 2                  TRA     s:7704
         2 003007   003132 710000 2                  TRA     s:7704
         2 003010   003116 710000 2                  TRA     s:7699
         2 003011   003014 710000 2                  TRA     s:7682
         2 003012   003103 710000 2                  TRA     s:7695
         2 003013   003027 710000 2                  TRA     s:7686

      567     7680
PL6.E3A0      #001=CXX$CONTEXT2 File=CXX$CONTEXT2.:E05TSI                        TUE 07/29/97 12:29 Page:96
      568     7681    2        CASE (HBRDRSIZOPT, VBRDRSIZOPT);

      569     7682    2         IF VALUE > 15

   7682  2 003014   200206 235100                    LDA     VALUE,,AUTO
         2 003015   000017 115007                    CMPA    15,DL
         2 003016   003132 604400 2                  TMOZ    s:7704

      570     7683    2           THEN
      571     7684    2            CALL POST_ERROR (OUT$SYM.CPOS, E_XBIG15);

   7684  2 003017   000016 236000 3                  LDQ     14
         2 003020   200220 756100                    STQ     @CPOS+1,,AUTO
         2 003021   200205 236100                    LDQ     PTR1$,,AUTO
         2 003022   000002 036003                    ADLQ    2,DU
         2 003023   200217 756100                    STQ     I+2,,AUTO
         2 003024   003327 701000 2                  TSX1    POST_ERROR
         2 003025   000000 011000                    NOP     0
         2 003026   003132 710000 2                  TRA     s:7704

      572     7685    2        CASE (WWIDTHOPT);

      573     7686    2         IF VALUE > 509

   7686  2 003027   200206 235100                    LDA     VALUE,,AUTO
         2 003030   000775 115007                    CMPA    509,DL
         2 003031   003132 604400 2                  TMOZ    s:7704

      574     7687    2           THEN
      575     7688    2            CALL POST_ERROR (OUT$SYM.CPOS, E_XBIG509);

   7688  2 003032   000044 236000 3                  LDQ     36
         2 003033   200220 756100                    STQ     @CPOS+1,,AUTO
         2 003034   200205 236100                    LDQ     PTR1$,,AUTO
         2 003035   000002 036003                    ADLQ    2,DU
         2 003036   200217 756100                    STQ     I+2,,AUTO
         2 003037   003327 701000 2                  TSX1    POST_ERROR
PL6.E3A0      #001=CXX$CONTEXT2 File=CXX$CONTEXT2.:E05TSI                        TUE 07/29/97 12:29 Page:97
         2 003040   000000 011000                    NOP     0
         2 003041   003132 710000 2                  TRA     s:7704

      576     7689    2        CASE (FWINDOWOPT);

      577     7690    2         IF OUT$SYM.COUNT ~= 4 OR OUT$SYM.TEXT < 'UC00' OR OUT$SYM.TEXT > 'UC99'

   7690  2 003042   200205 471500                    LDP1    PTR1$,,AUTO
         2 003043   100004 236100                    LDQ     4,,PR1
         2 003044   777000 376003                    ANQ     -512,DU
         2 003045   004000 116003                    CMPQ    2048,DU
         2 003046   003073 601000 2                  TNZ     s:7693
         2 003047   100004 236100                    LDQ     4,,PR1
         2 003050   000033 772000                    QRL     27
         2 003051   000000 621006                    EAX1    0,QL
         2 003052   040000 106540                    CMPC    fill='040'O
         2 003053   100004 200011                    ADSC9   4,,PR1                   cn=1,n=*X1
         2 003054   000110 000004 1                  ADSC9   SBINMAX_O+5              cn=0,n=4
         2 003055   003073 602000 2                  TNC     s:7693
         2 003056   040140 106400                    CMPC    fill='040'O
         2 003057   000111 000004 1                  ADSC9   SBINMAX_O+6              cn=0,n=4
         2 003060   100004 200011                    ADSC9   4,,PR1                   cn=1,n=*X1
         2 003061   003073 602000 2                  TNC     s:7693
         2 003062   100005 236100                    LDQ     5,,PR1
         2 003063   777000 376003                    ANQ     -512,DU
         2 003064   060000 116003                    CMPQ    24576,DU
         2 003065   003073 602000 2                  TNC     s:7693
         2 003066   100005 236100                    LDQ     5,,PR1
         2 003067   777000 376003                    ANQ     -512,DU
         2 003070   071000 116003                    CMPQ    29184,DU
         2 003071   003132 602000 2                  TNC     s:7704
         2 003072   003132 600000 2                  TZE     s:7704

      578     7691    2          OR SUBSTR(OUT$SYM.TEXT,3,1) < '0' OR SUBSTR(OUT$SYM.TEXT,3,1) > '9'
      579     7692    2           THEN
      580     7693    2            CALL POST_ERROR (OUT$SYM.CPOS, E_XBADFWINDOW);

PL6.E3A0      #001=CXX$CONTEXT2 File=CXX$CONTEXT2.:E05TSI                        TUE 07/29/97 12:29 Page:98
   7693  2 003073   000046 236000 3                  LDQ     38
         2 003074   200220 756100                    STQ     @CPOS+1,,AUTO
         2 003075   200205 236100                    LDQ     PTR1$,,AUTO
         2 003076   000002 036003                    ADLQ    2,DU
         2 003077   200217 756100                    STQ     I+2,,AUTO
         2 003100   003327 701000 2                  TSX1    POST_ERROR
         2 003101   000000 011000                    NOP     0
         2 003102   003132 710000 2                  TRA     s:7704

      581     7694    2        CASE (MINLENGTHOPT, MINWIDTHOPT, WLENGTHOPT);

      582     7695    2         IF VALUE > 254

   7695  2 003103   200206 235100                    LDA     VALUE,,AUTO
         2 003104   000376 115007                    CMPA    254,DL
         2 003105   003132 604400 2                  TMOZ    s:7704

      583     7696    2           THEN
      584     7697    2            CALL POST_ERROR (OUT$SYM.CPOS, E_XBIG254);

   7697  2 003106   000043 236000 3                  LDQ     35
         2 003107   200220 756100                    STQ     @CPOS+1,,AUTO
         2 003110   200205 236100                    LDQ     PTR1$,,AUTO
         2 003111   000002 036003                    ADLQ    2,DU
         2 003112   200217 756100                    STQ     I+2,,AUTO
         2 003113   003327 701000 2                  TSX1    POST_ERROR
         2 003114   000000 011000                    NOP     0
         2 003115   003132 710000 2                  TRA     s:7704

      585     7698    2        CASE (HBRDRCHROPT, VBRDRCHROPT);

      586     7699    2         IF OUT$SYM.COUNT > 1

   7699  2 003116   200205 471500                    LDP1    PTR1$,,AUTO
         2 003117   100004 236100                    LDQ     4,,PR1
         2 003120   777000 376003                    ANQ     -512,DU
         2 003121   002000 116003                    CMPQ    1024,DU
PL6.E3A0      #001=CXX$CONTEXT2 File=CXX$CONTEXT2.:E05TSI                        TUE 07/29/97 12:29 Page:99
         2 003122   003132 602000 2                  TNC     s:7704

      587     7700    2           THEN
      588     7701    2            CALL POST_ERROR (OUT$SYM.CPOS, E_XBIGBORDERCHR);

   7701  2 003123   000047 236000 3                  LDQ     39
         2 003124   200220 756100                    STQ     @CPOS+1,,AUTO
         2 003125   200205 236100                    LDQ     PTR1$,,AUTO
         2 003126   000002 036003                    ADLQ    2,DU
         2 003127   200217 756100                    STQ     I+2,,AUTO
         2 003130   003327 701000 2                  TSX1    POST_ERROR
         2 003131   000000 011000                    NOP     0

      589     7702    2        END;

      590     7703
      591     7704    1      RETURN;

   7704  2 003132   000000 702200 xent               TSX2  ! X66_ARET

      592     7705        %EJECT;
PL6.E3A0      #001=CXX$CONTEXT2 File=CXX$CONTEXT2.:E05TSI                        TUE 07/29/97 12:29 Page:100
      593     7706        /**********************************************************************/
      594     7707        /*I*      NAME:CNVRT_FID
      595     7708                  PURPOSE:  BREAKS UP A FID INTO ITS VARIOUS COMPONENTS
      596     7709                  INPUT:    OUT$SYM
      597     7710                  OUTPUT:   FID into various vlp's
      598     7711                            errors output resulting from M$FID pmme execution
      599     7712        */
      600     7713        /**********************************************************************/
      601     7714    1   CNVRT_FID: PROC ALTRET;

   7714  2 003133   200214 741300       CNVRT_FID    STX1  ! I+2,,AUTO

      602     7715        /*
      603     7716          ****    BREAK UP THE FID
      604     7717        */
      605     7718    2      FPT_FID =CPSL_CFPT_FID;

   7718  2 003134   000100 100400                    MLR     fill='000'O
         2 003135   000000 000140 1                  ADSC9   CPSL_CFPT_FID            cn=0,n=96
         2 003136   200010 000140                    ADSC9   FPT_FID,,AUTO            cn=0,n=96

      606     7719    2      FPT_FID.V_=VECTOR(FPT_FID.V);

   7719  2 003137   000050 235000 3                  LDA     40
         2 003140   200222 452500                    STP2    @ERRCODE+2,,AUTO
         2 003141   200222 236100                    LDQ     @ERRCODE+2,,AUTO
         2 003142   000034 036003                    ADLQ    28,DU
         2 003143   200010 757100                    STAQ    FPT_FID,,AUTO

      607     7720    2      FPT_FID.SN_ = VECTOR(FID_SN);

   7720  2 003144   000051 235000 3                  LDA     41
         2 003145   200222 452500                    STP2    @ERRCODE+2,,AUTO
         2 003146   200222 236100                    LDQ     @ERRCODE+2,,AUTO
         2 003147   000062 036003                    ADLQ    50,DU
         2 003150   200022 757100                    STAQ    FPT_FID+10,,AUTO

PL6.E3A0      #001=CXX$CONTEXT2 File=CXX$CONTEXT2.:E05TSI                        TUE 07/29/97 12:29 Page:101
      608     7721    2      FPT_FID.WSN_ = VECTOR(FID_WSN);

   7721  2 003151   000052 235000 3                  LDA     42
         2 003152   200222 452500                    STP2    @ERRCODE+2,,AUTO
         2 003153   200222 236100                    LDQ     @ERRCODE+2,,AUTO
         2 003154   000202 036003                    ADLQ    130,DU
         2 003155   200024 757100                    STAQ    FPT_FID+12,,AUTO

      609     7722    2      FPT_FID.ASN_ = VECTOR(FID_ASN);

   7722  2 003156   777640 235007                    LDA     -96,DL
         2 003157   200222 452500                    STP2    @ERRCODE+2,,AUTO
         2 003160   200222 236100                    LDQ     @ERRCODE+2,,AUTO
         2 003161   000210 036003                    ADLQ    136,DU
         2 003162   200026 757100                    STAQ    FPT_FID+14,,AUTO

      610     7723    2      FPT_FID.RES_ = VECTOR(FID_RES);

   7723  2 003163   777640 235007                    LDA     -96,DL
         2 003164   200222 452500                    STP2    @ERRCODE+2,,AUTO
         2 003165   200222 236100                    LDQ     @ERRCODE+2,,AUTO
         2 003166   000211 036003                    ADLQ    137,DU
         2 003167   200030 757100                    STAQ    FPT_FID+16,,AUTO

      611     7724    2      FPT_FID.NAME_ = VECTOR(FID_NAME);

   7724  2 003170   000053 235000 3                  LDA     43
         2 003171   200222 452500                    STP2    @ERRCODE+2,,AUTO
         2 003172   200222 236100                    LDQ     @ERRCODE+2,,AUTO
         2 003173   000052 036003                    ADLQ    42,DU
         2 003174   200014 757100                    STAQ    FPT_FID+4,,AUTO

      612     7725    2      FPT_FID.ACCT_ = VECTOR(FID_ACCT);

   7725  2 003175   000052 235000 3                  LDA     42
         2 003176   200222 452500                    STP2    @ERRCODE+2,,AUTO
         2 003177   200222 236100                    LDQ     @ERRCODE+2,,AUTO
PL6.E3A0      #001=CXX$CONTEXT2 File=CXX$CONTEXT2.:E05TSI                        TUE 07/29/97 12:29 Page:102
         2 003200   000176 036003                    ADLQ    126,DU
         2 003201   200016 757100                    STAQ    FPT_FID+6,,AUTO

      613     7726    2      FPT_FID.PASS_ = VECTOR(FID_PASS);

   7726  2 003202   000052 235000 3                  LDA     42
         2 003203   200222 452500                    STP2    @ERRCODE+2,,AUTO
         2 003204   200222 236100                    LDQ     @ERRCODE+2,,AUTO
         2 003205   000200 036003                    ADLQ    128,DU
         2 003206   200020 757100                    STAQ    FPT_FID+8,,AUTO

      614     7727    2      FPT_FID.RESULTS_ = VECTOR(FID_RESULTS);

   7727  2 003207   000054 235000 3                  LDA     44
         2 003210   200222 452500                    STP2    @ERRCODE+2,,AUTO
         2 003211   200222 236100                    LDQ     @ERRCODE+2,,AUTO
         2 003212   000040 036003                    ADLQ    32,DU
         2 003213   200032 757100                    STAQ    FPT_FID+18,,AUTO

      615     7728    2      FPT_FID.TEXTFID_ = VECTOR(OUT$SYM.TEXT);

   7728  2 003214   200205 470500                    LDP0    PTR1$,,AUTO
         2 003215   000004 236100                    LDQ     4,,PR0
         2 003216   000033 772000                    QRL     27
         2 003217   000064 737000                    LLS     52
         2 003220   000140 135007                    SBLA    96,DL
         2 003221   200205 236100                    LDQ     PTR1$,,AUTO
         2 003222   000055 036000 3                  ADLQ    45
         2 003223   200012 757100                    STAQ    FPT_FID+2,,AUTO

      616     7729    2      CALL M$FID(FPT_FID) ALTRET(CNVRT_FID50);

   7729  2 003224   200010 630500                    EPPR0   FPT_FID,,AUTO
         2 003225   420001 713400                    CLIMB   alt,+8193
         2 003226   404400 401760                    pmme    nvectors=10
         2 003227   003232 702000 2                  TSX2    CNVRT_FID50

PL6.E3A0      #001=CXX$CONTEXT2 File=CXX$CONTEXT2.:E05TSI                        TUE 07/29/97 12:29 Page:103
      617     7730    2      RETURN;

   7730  2 003230   200214 221300                    LDX1  ! I+2,,AUTO
         2 003231   000001 702211                    TSX2  ! 1,X1

      618     7731    2   CNVRT_FID50:
      619     7732    2      CALL POST_ERROR (OUT$SYM.CPOS,

   7732  2 003232   000000 470400 xsym  CNVRT_FID50  LDP0    B$TCB$
         2 003233   000000 471500                    LDP1    0,,PR0
         2 003234   100102 633500                    EPPR3   66,,PR1
         2 003235   200220 453500                    STP3    @CPOS+1,,AUTO
         2 003236   200205 236100                    LDQ     PTR1$,,AUTO
         2 003237   000002 036003                    ADLQ    2,DU
         2 003240   200217 756100                    STQ     I+2,,AUTO
         2 003241   003327 701000 2                  TSX1    POST_ERROR
         2 003242   000000 011000                    NOP     0

      620     7733    2       B$TCB.ALT$ -> B$EXCFR.ERR);
      621     7734    2      ALTRETURN;

   7734  2 003243   200214 221300                    LDX1  ! I+2,,AUTO
         2 003244   000000 702211                    TSX2  ! 0,X1

      622     7735    2   END CNVRT_FID;
      623     7736                 %EJECT;
PL6.E3A0      #001=CXX$CONTEXT2 File=CXX$CONTEXT2.:E05TSI                        TUE 07/29/97 12:29 Page:104
      624     7737        /**********************************************************************/
      625     7738        /*I*      NAME:   CHK_DCBNAME
      626     7739                  PURPOSE: VALIDATE A DCB NAME
      627     7740                  INPUT:   PTR$->P$S
      628     7741                           PTR1$->P$B
      629     7742        */
      630     7743        /**********************************************************************/
      631     7744    1   CHK_DCBNAME: PROC ;

   7744  2 003245   200214 741300       CHK_DCBNAME  STX1  ! I+2,,AUTO

      632     7745    2   DCL I SBIN;
      633     7746    2   DCL 1 FORT_DCBNAME BASED ALIGNED,/* CXB$CHKFORT moves the name back two bytes */
      634     7747    2             2 * BIT(18),
      635     7748    2             2 COUNT UBIN BYTE CALIGNED,
      636     7749    2             2 TEXT CHAR(FORT_DCBNAME.COUNT);
      637     7750
      638     7751
      639     7752        /*
      640     7753          ****    CHECK DCB LENGTH ... CAN'T EXCEED 29 CHARS, IF FORTRAN TYPE.
      641     7754                  OTHERWISE 31 CHARS. MAX.
      642     7755        */
      643     7756    2      I = OUT$SYM.COUNT;

   7756  2 003246   200205 470500                    LDP0    PTR1$,,AUTO
         2 003247   000004 236100                    LDQ     4,,PR0
         2 003250   000033 772000                    QRL     27
         2 003251   200215 756100                    STQ     I,,AUTO

      644     7757    2      IF OUT$SYM.NDTYPE = %DEC#

   7757  2 003252   000000 236100                    LDQ     0,,PR0
         2 003253   000077 376003                    ANQ     63,DU
         2 003254   000022 116003                    CMPQ    18,DU
         2 003255   003260 601000 2                  TNZ     s:7760

      645     7758    2        THEN
PL6.E3A0      #001=CXX$CONTEXT2 File=CXX$CONTEXT2.:E05TSI                        TUE 07/29/97 12:29 Page:105
      646     7759    2         I = I + 2;  /* Need to add F$ for fortran unit numbers */

   7759  2 003256   000002 236007                    LDQ     2,DL
         2 003257   200215 056100                    ASQ     I,,AUTO

      647     7760    2      IF OUT$SYM.TEXTC$ ~= ADDR(OUT$SYM.COUNT)

   7760  2 003260   200205 236100                    LDQ     PTR1$,,AUTO
         2 003261   000004 036003                    ADLQ    4,DU
         2 003262   000003 116100                    CMPQ    3,,PR0
         2 003263   003270 600000 2                  TZE     s:7763

      648     7761    2        THEN
      649     7762    2         I = ADDR(OUT$SYM.TEXTC$)->FORT_DCBNAME.COUNT;

   7762  2 003264   000003 236100                    LDQ     3,,PR0
         2 003265   000011 772000                    QRL     9
         2 003266   000777 376007                    ANQ     511,DL
         2 003267   200215 756100                    STQ     I,,AUTO

      650     7763    2      IF (I > 31) THEN

   7763  2 003270   200215 235100                    LDA     I,,AUTO
         2 003271   000037 115007                    CMPA    31,DL
         2 003272   003302 604400 2                  TMOZ    s:7765

      651     7764    2         CALL POST_ERROR(OUT$SYM.CPOS,E_XBIGDCB);

   7764  2 003273   000056 236000 3                  LDQ     46
         2 003274   200220 756100                    STQ     @CPOS+1,,AUTO
         2 003275   200205 236100                    LDQ     PTR1$,,AUTO
         2 003276   000002 036003                    ADLQ    2,DU
         2 003277   200217 756100                    STQ     I+2,,AUTO
         2 003300   003327 701000 2                  TSX1    POST_ERROR
         2 003301   000000 011000                    NOP     0

      652     7765    2      IF (OUT$SYM.TEXT = 'M$UC' OR
PL6.E3A0      #001=CXX$CONTEXT2 File=CXX$CONTEXT2.:E05TSI                        TUE 07/29/97 12:29 Page:106

   7765  2 003302   200205 470500                    LDP0    PTR1$,,AUTO
         2 003303   000004 236100                    LDQ     4,,PR0
         2 003304   000033 772000                    QRL     27
         2 003305   000000 620006                    EAX0    0,QL
         2 003306   040000 106540                    CMPC    fill='040'O
         2 003307   000004 200010                    ADSC9   4,,PR0                   cn=1,n=*X0
         2 003310   000112 000004 1                  ADSC9   SBINMAX_O+7              cn=0,n=4
         2 003311   003316 600000 2                  TZE     s:7767
         2 003312   040000 106540                    CMPC    fill='040'O
         2 003313   000004 200010                    ADSC9   4,,PR0                   cn=1,n=*X0
         2 003314   000113 000004 1                  ADSC9   SBINMAX_O+8              cn=0,n=4
         2 003315   003325 601000 2                  TNZ     s:7768

      653     7766    2       OUT$SYM.TEXT = 'M$LM') THEN
      654     7767    2         CALL POST_ERROR(OUT$SYM.CPOS,E_XILLDCB);

   7767  2 003316   000057 236000 3                  LDQ     47
         2 003317   200220 756100                    STQ     @CPOS+1,,AUTO
         2 003320   200205 236100                    LDQ     PTR1$,,AUTO
         2 003321   000002 036003                    ADLQ    2,DU
         2 003322   200217 756100                    STQ     I+2,,AUTO
         2 003323   003327 701000 2                  TSX1    POST_ERROR
         2 003324   000000 011000                    NOP     0

      655     7768    2      RETURN;

   7768  2 003325   200214 221300                    LDX1  ! I+2,,AUTO
         2 003326   000001 702211                    TSX2  ! 1,X1

      656     7769    2   END CHK_DCBNAME;
      657     7770        %EJECT;
PL6.E3A0      #001=CXX$CONTEXT2 File=CXX$CONTEXT2.:E05TSI                        TUE 07/29/97 12:29 Page:107
      658     7771    1   POST_ERROR: PROC (CPOS, ERRCODE);

   7771  2 003327   200216 741300       POST_ERROR   STX1  ! I+1,,AUTO

      659     7772
      660     7773    2   DCL CPOS UBIN WORD;
      661     7774    2   DCL ERRCODE BIT(36) ALIGNED;
      662     7775
      663     7776    2      CPSL_COMMAND_PARAMETERS.ERRCODE = ERRCODE;

   7776  2 003330   200220 470500                    LDP0    @ERRCODE,,AUTO
         2 003331   000000 236100                    LDQ     0,,PR0
         2 003332   200005 471500                    LDP1    @CPSL_COMMAND_PARAMETERS,,AUTO
         2 003333   100002 756100                    STQ     2,,PR1

      664     7777    2      CPSL_COMMAND_PARAMETERS.ERR_CPOS = CPOS;

   7777  2 003334   200217 473500                    LDP3    @CPOS,,AUTO
         2 003335   300000 235100                    LDA     0,,PR3
         2 003336   100003 755100                    STA     3,,PR1

      665     7778
      666     7779    2      IF NOT CPSL_COMMAND_PARAMETERS.FLAGS.INHIBIT_ERRMSG

   7779  2 003337   100001 236100                    LDQ     1,,PR1
         2 003340   200000 316003                    CANQ    65536,DU
         2 003341   003376 601000 2                  TNZ     s:7802

      667     7780    3        THEN DO;

      668     7781
      669     7782    3         CPSL_COMMAND_PARAMETERS.FLAGS.REPORTED_TO_USER = %YES#;

   7782  2 003342   100000 236003                    LDQ     32768,DU
         2 003343   100001 256100                    ORSQ    1,,PR1

      670     7783
PL6.E3A0      #001=CXX$CONTEXT2 File=CXX$CONTEXT2.:E05TSI                        TUE 07/29/97 12:29 Page:108
      671     7784    3         IF CPSL_COMMAND_PARAMETERS.FLAGS.ECHO ~= %DONT_ECHO

   7784  2 003344   100001 236100                    LDQ     1,,PR1
         2 003345   000777 316007                    CANQ    511,DL
         2 003346   003355 600000 2                  TZE     s:7793

      672     7785    4           THEN DO;

      673     7786
      674     7787    4            CPSL_COMMAND_PARAMETERS.FLAGS.ECHO = %DONT_ECHO;

   7787  2 003347   000000 236003                    LDQ     0,DU
         2 003350   100001 552104                    STBQ    1,'04'O,PR1

      675     7788
      676     7789    4            CALL CXG$ECHO (XUG_GETCMD);

   7789  2 003351   200004 630500                    EPPR0   @XUG_GETCMD,,AUTO
         2 003352   000017 631400 xsym               EPPR1   B_VECTNIL+15
         2 003353   000000 701000 xent               TSX1    CXG$ECHO
         2 003354   000000 011000                    NOP     0

      677     7790
      678     7791    4            END;

      679     7792
      680     7793    3         XUG_GETCMD.ERR_CODE = ERRCODE;

   7793  2 003355   200220 470500                    LDP0    @ERRCODE,,AUTO
         2 003356   000000 236100                    LDQ     0,,PR0
         2 003357   200004 471500                    LDP1    @XUG_GETCMD,,AUTO
         2 003360   100010 756100                    STQ     8,,PR1

      681     7794    3         XUG_GETCMD.EPOS# = CPOS;

   7794  2 003361   200217 473500                    LDP3    @CPOS,,AUTO
         2 003362   300000 720100                    LXL0    0,,PR3
PL6.E3A0      #001=CXX$CONTEXT2 File=CXX$CONTEXT2.:E05TSI                        TUE 07/29/97 12:29 Page:109
         2 003363   100006 440100                    SXL0    6,,PR1

      682     7795    3         XUG_GETCMD.USE_EPOS# = %YES#;

   7795  2 003364   400000 236003                    LDQ     -131072,DU
         2 003365   100006 256100                    ORSQ    6,,PR1

      683     7796
      684     7797    3         CALL CXG$ERRPTR (XUG_GETCMD);

   7797  2 003366   200004 630500                    EPPR0   @XUG_GETCMD,,AUTO
         2 003367   000017 631400 xsym               EPPR1   B_VECTNIL+15
         2 003370   000000 701000 xent               TSX1    CXG$ERRPTR
         2 003371   000000 011000                    NOP     0

      685     7798    3         CALL CXG$ERRMSG (XUG_GETCMD);

   7798  2 003372   200004 630500                    EPPR0   @XUG_GETCMD,,AUTO
         2 003373   000017 631400 xsym               EPPR1   B_VECTNIL+15
         2 003374   000000 701000 xent               TSX1    CXG$ERRMSG
         2 003375   000000 011000                    NOP     0

      686     7799
      687     7800    3         END;

      688     7801
      689     7802    2      RETURN;

   7802  2 003376   200216 221300                    LDX1  ! I+1,,AUTO
         2 003377   000001 702211                    TSX2  ! 1,X1

      690     7803
      691     7804    2   END POST_ERROR;
      692     7805
      693     7806        %EJECT;
PL6.E3A0      #001=CXX$CONTEXT2 File=CXX$CONTEXT2.:E05TSI                        TUE 07/29/97 12:29 Page:110
      694     7807    1   SETUP_AND_DECODE: PROC ALTRET;

   7807  2 003400   200214 741300       SETUP_AND_D* STX1  ! I+2,,AUTO

      695     7808
      696     7809    2      IF OUT$BLK.NDTYPE = %LITERAL# OR OUT$BLK.NDTYPE = %DSTRING#

   7809  2 003401   200003 470500                    LDP0    @OUT$BLK,,AUTO
         2 003402   000000 236100                    LDQ     0,,PR0
         2 003403   000077 376003                    ANQ     63,DU
         2 003404   000004 116003                    CMPQ    4,DU
         2 003405   003414 600000 2                  TZE     s:7812
         2 003406   000005 116003                    CMPQ    5,DU
         2 003407   003414 600000 2                  TZE     s:7812
         2 003410   000020 116003                    CMPQ    16,DU
         2 003411   003414 603000 2                  TRC     s:7812
         2 003412   000001 220100                    LDX0    1,,PR0
         2 003413   003417 601000 2                  TNZ     s:7814

      697     7810    2       OR OUT$BLK.NDTYPE >= %NULL# OR OUT$BLK.NSUBLKS = 0
      698     7811    2        THEN
      699     7812    2         PTR1$ = ADDR(OUT$BLK);

   7812  2 003414   200003 236100                    LDQ     @OUT$BLK,,AUTO
         2 003415   200205 756100                    STQ     PTR1$,,AUTO
         2 003416   003421 710000 2                  TRA     s:7816

      700     7813    2        ELSE
      701     7814    2         PTR1$ = OUT$BLK.SUBLK$(0);

   7814  2 003417   000003 236100                    LDQ     3,,PR0
         2 003420   200205 756100                    STQ     PTR1$,,AUTO

      702     7815
      703     7816    2      VALUE = -1;

   7816  2 003421   000001 335007                    LCA     1,DL
PL6.E3A0      #001=CXX$CONTEXT2 File=CXX$CONTEXT2.:E05TSI                        TUE 07/29/97 12:29 Page:111
         2 003422   200206 755100                    STA     VALUE,,AUTO

      704     7817
      705     7818    2      IF OUT$BLK.CODE ~= DCBOPT AND OUT$BLK.CODE ~= FIDOPT

   7818  2 003423   000000 720100                    LXL0    0,,PR0
         2 003424   000020 100003                    CMPX0   16,DU
         2 003425   003462 600000 2                  TZE     s:7828
         2 003426   000312 100003                    CMPX0   202,DU
         2 003427   003462 600000 2                  TZE     s:7828

      706     7819    2        THEN
      707     7820    2         IF OUT$SYM.NDTYPE = %DEC#

   7820  2 003430   200205 471500                    LDP1    PTR1$,,AUTO
         2 003431   100000 236100                    LDQ     0,,PR1
         2 003432   000077 376003                    ANQ     63,DU
         2 003433   000022 116003                    CMPQ    18,DU
         2 003434   003447 601000 2                  TNZ     s:7824

      708     7821    2           THEN
      709     7822    2            CALL CXX$DECBIN(OUT$SYM.COUNT,VALUE) ALTRET(E_DECBIN);

   7822  2 003435   200206 633500                    EPPR3   VALUE,,AUTO
         2 003436   200223 453500                    STP3    @ERRCODE+3,,AUTO
         2 003437   200205 236100                    LDQ     PTR1$,,AUTO
         2 003440   000004 036003                    ADLQ    4,DU
         2 003441   200222 756100                    STQ     @ERRCODE+2,,AUTO
         2 003442   200222 630500                    EPPR0   @ERRCODE+2,,AUTO
         2 003443   000020 631400 xsym               EPPR1   B_VECTNIL+16
         2 003444   000000 701000 xent               TSX1    CXX$DECBIN
         2 003445   003472 702000 2                  TSX2    E_DECBIN
         2 003446   003462 710000 2                  TRA     s:7828

      710     7823    2           ELSE
      711     7824    2            IF OUT$SYM.NDTYPE = %OCT#

PL6.E3A0      #001=CXX$CONTEXT2 File=CXX$CONTEXT2.:E05TSI                        TUE 07/29/97 12:29 Page:112
   7824  2 003447   000021 116003                    CMPQ    17,DU
         2 003450   003462 601000 2                  TNZ     s:7828

      712     7825    2              THEN
      713     7826    2               CALL CXX$OCTBIN(OUT$SYM.COUNT,VALUE) ALTRET(E_DECBIN);

   7826  2 003451   200206 633500                    EPPR3   VALUE,,AUTO
         2 003452   200223 453500                    STP3    @ERRCODE+3,,AUTO
         2 003453   200205 236100                    LDQ     PTR1$,,AUTO
         2 003454   000004 036003                    ADLQ    4,DU
         2 003455   200222 756100                    STQ     @ERRCODE+2,,AUTO
         2 003456   200222 630500                    EPPR0   @ERRCODE+2,,AUTO
         2 003457   000020 631400 xsym               EPPR1   B_VECTNIL+16
         2 003460   000000 701000 xent               TSX1    CXX$OCTBIN
         2 003461   003472 702000 2                  TSX2    E_DECBIN

      714     7827
      715     7828    2      IF ADDR(VALUE_OUT) ~= ADDR(NIL)

   7828  2 003462   200006 236100                    LDQ     @VALUE_OUT,,AUTO
         2 003463   000001 116000 xsym               CMPQ    B_VECTNIL+1
         2 003464   003470 600000 2                  TZE     s:7832

      716     7829    2        THEN
      717     7830    2         VALUE_OUT = VALUE;

   7830  2 003465   200006 470500                    LDP0    @VALUE_OUT,,AUTO
         2 003466   200206 235100                    LDA     VALUE,,AUTO
         2 003467   000000 755100                    STA     0,,PR0

      718     7831
      719     7832    2      RETURN;

   7832  2 003470   200214 221300                    LDX1  ! I+2,,AUTO
         2 003471   000001 702211                    TSX2  ! 1,X1

      720     7833
PL6.E3A0      #001=CXX$CONTEXT2 File=CXX$CONTEXT2.:E05TSI                        TUE 07/29/97 12:29 Page:113
      721     7834    2   E_DECBIN: CALL POST_ERROR (OUT$SYM.CPOS, E_BDCVAL);

   7834  2 003472   000037 236000 3     E_DECBIN     LDQ     31
         2 003473   200220 756100                    STQ     @ERRCODE,,AUTO
         2 003474   200205 236100                    LDQ     PTR1$,,AUTO
         2 003475   000002 036003                    ADLQ    2,DU
         2 003476   200217 756100                    STQ     @CPOS,,AUTO
         2 003477   003327 701000 2                  TSX1    POST_ERROR
         2 003500   000000 011000                    NOP     0

      722     7835
      723     7836    2      ALTRETURN;

   7836  2 003501   200214 221300                    LDX1  ! I+2,,AUTO
         2 003502   000000 702211                    TSX2  ! 0,X1
      724     7837
      725     7838    2   END SETUP_AND_DECODE;
      726     7839
      727     7840    1   END CXX$CONTEXT2;
      728     7841        %EOD;

PL6.E3A0      #001=CXX$CONTEXT2 File=CXX$CONTEXT2.:E05TSI                        TUE 07/29/97 12:29 Page:114
--  Include file information  --

   CXG_ENTRY.:E05TOU  cannot be made into a system file and is referenced.
   UM_ERRORS_C.:E05TOU  is referenced.
   B$JIT.:E05TOU  cannot be made into a system file and is referenced.
   XU_SUBS_C.:E05TOU  is referenced.
   XU_MACRO_C.:E05TOU  is referenced.
   CP_6_SUBS.:E05TOU  is referenced.
   CP_6.:E05TOU  cannot be made into a system file and is referenced.
   CX_MACROS_M.:E05TOU  is referenced.
   CX_PERR_C.:E05TOU  is referenced.
   CX_SUBS_C.:E05TOU  is referenced.
   CX_ISUBS_C.:E05TOU  is referenced.
   B$JIT_C.:E05TOU  was found in the system file and is referenced.
   CP_6_C.:E05TOU  was found in the system file and is referenced.
      No diagnostics issued in procedure CXX$CONTEXT2.
PL6.E3A0      #001=CXX$CONTEXT2 File=CXX$CONTEXT2.:E05TSI                        TUE 07/29/97 12:29 Page:115

 **** Variables and constants ****

  ****  Section 001 RoData CXX$CONTEXT2

  ****  Scalars and arrays  ****
OctLoc.c.b A Datatyp(siz) R M Lvl/name                 OctLoc.c.b A Datatyp(siz) R M Lvl/name

     0-0-0/d STRC(864)   r     1 CPSL_CFPT_FID             35-0-0/w STRC        r     1 E_BDCVAL
   102-0-0/w STRC        r     1 E_XBADFWINDOW             67-0-0/w STRC        r     1 E_XBDSTRFID
    56-0-0/w STRC        r     1 E_XBIG15                  76-0-0/w STRC        r     1 E_XBIG254
    53-0-0/w STRC        r     1 E_XBIG255                 33-0-0/w STRC        r     1 E_XBIG262142
    34-0-0/w STRC        r     1 E_XBIG32000               36-0-0/w STRC        r     1 E_XBIG32764
    71-0-0/w STRC        r     1 E_XBIG32767               70-0-0/w STRC        r     1 E_XBIG4CHAR
    41-0-0/w STRC        r     1 E_XBIG509                 42-0-0/w STRC        r     1 E_XBIG511
    47-0-0/w STRC        r     1 E_XBIG6CHAR               50-0-0/w STRC        r     1 E_XBIG8CHAR
    44-0-0/w STRC        r     1 E_XBIGACCT               101-0-0/w STRC        r     1 E_XBIGBORDERCHR
    30-0-0/w STRC        r     1 E_XBIGDCB                 37-0-0/w STRC        r     1 E_XBIGEXP
    45-0-0/w STRC        r     1 E_XBIGNAME                75-0-0/w STRC        r     1 E_XBIGPROFILE
    52-0-0/w STRC        r     1 E_XBIGSEED                63-0-0/w STRC        r     1 E_XBIGSEQID
    46-0-0/w STRC        r     1 E_XBIGSNUM                57-0-0/w STRC        r     1 E_XBIGTYPE
    31-0-0/w STRC        r     1 E_XILLDCB                 60-0-0/w STRC        r     1 E_XILLDVFC
    74-0-0/w STRC        r     1 E_XILLFCNTBL              66-0-0/w STRC        r     1 E_XILLTAB
    64-0-0/w STRC        r     1 E_XNULLSTRING             54-0-0/w STRC        r     1 E_XRANGE114
   100-0-0/w STRC        r     1 E_XRANGE16384             77-0-0/w STRC        r     1 E_XRANGE2097152
    40-0-0/w STRC        r     1 E_XRANGE255               43-0-0/w STRC        r     1 E_XRANGE511
    62-0-0/w STRC        r     1 E_XRANGE9999              55-0-0/w STRC        r     1 E_XRANGESBIN
    72-0-0/w STRC        r     1 E_XTESINPUTSZ             73-0-0/w STRC        r     1 E_XTEWORDWRAPCLM
    65-0-0/w STRC        r     1 E_XTMTABS                 51-0-0/w STRC        r     1 E_XWILDCHAR
   103-0-0/w SBIN        r     1 SBINMAX                  103-0-0/b BIT         r     1 SBINMAX_O

  ****  Auto variables  ****

  ****  Scalars and arrays  ****
OctLoc.c.b A Datatyp(siz) R M Lvl/name                 OctLoc.c.b A Datatyp(siz) R M Lvl/name

   217-0-0/w PTR         r     1 @CPOS
     5-0-0/w PTR         r     1 @CPSL_COMMAND_PARAMETERS
PL6.E3A0      #001=CXX$CONTEXT2 File=CXX$CONTEXT2.:E05TSI                        TUE 07/29/97 12:29 Page:116
   220-0-0/w PTR         r     1 @ERRCODE                   3-0-0/w PTR         r     1 @OUT$BLK
     6-0-0/w PTR         r     1 @VALUE_OUT                 4-0-0/w PTR         r     1 @XUG_GETCMD
    *0-0-0/w UBIN        r     1 CPOS
    *0-0-0/w STRC(180)   r     1 CPSL_COMMAND_PARAMETERS
    *0-0-0/w BIT         r     1 ERRCODE                  176-0-0/c STRC(72)    r     1 FID_ACCT
   210-0-0/w UBIN(9)     r     1 FID_ASN                   52-0-0/c STRC(288)   r     1 FID_NAME
   200-0-0/c STRC(72)    r     1 FID_PASS                 211-0-0/c CHAR(4)     r     1 FID_RES
    40-0-0/d STRC(324)   r     1 FID_RESULTS               62-0-0/d STRC(2736)  r     1 FID_SN
   202-0-0/c STRC(72)    r     1 FID_WSN                   10-0-0/d STRC(864)   r     1 FPT_FID
   212-0-0/w UBIN        r     1 I                        215-0-0/w SBIN        r     1 I
   207-0-0/w UBIN        r     1 INDX                      *0-0-0/w STRC(144)   r     1 OUT$BLK
   205-0-0/w PTR         r     1 PTR1$                    206-0-0/w SBIN        r     1 VALUE
    *0-0-0/w SBIN        r     1 VALUE_OUT
    *0-0-0/w CHAR        r     1 VALUE_OUT_REDEF(0:3)
    *0-0-0/d STRC(1512)  r     1 XUG_GETCMD

  ****  SYMREF variables  ****

  ****  Scalars and arrays  ****
OctLoc.c.b A Datatyp(siz) R M Lvl/name                 OctLoc.c.b A Datatyp(siz) R M Lvl/name

     0-0-0/w PTR         r     1 B$JIT$                     0-0-0/w PTR         r     1 B$TCB$

  ****  BASED and DCB variables  ****

  ****  Scalars and arrays  ****
OctLoc.c.b A Datatyp(siz) R M Lvl/name                 OctLoc.c.b A Datatyp(siz) R M Lvl/name

     0-0-0/w STRC(2448)  r     1 B$EXCFR                    0-0-0/d STRC(8856)  r     1 B$JIT
     0-0-0/w STRC(144)   r     1 B$TCB                      0-0-0/w ASTR(27)    r     1 FORT_DCBNAME
     0-0-0/w ASTR(153)   r     1 OUT$SYM


   Procedure CXX$CONTEXT2 requires 1859 words for executable code.
   Procedure CXX$CONTEXT2 requires 154 words of local(AUTO) storage.
PL6.E3A0      #001=CXX$CONTEXT2 File=CXX$CONTEXT2.:E05TSI                        TUE 07/29/97 12:29 Page:117
          *** CROSS REFERENCE LISTING ***
**     DENOTES     IDENTIFIER DEFINITION
<<                 IDENTIFIER'S VALUE SET
>>                 IDENTIFIER'S VALUE USED
<>                 IDENTIFIER SET AND/OR USED
--                 IDENTIFIER REFERENCED
PL6.E3A0      #001=CXX$CONTEXT2 File=CXX$CONTEXT2.:E05TSI                        TUE 07/29/97 12:29 Page:118
          MINI XREF LISTING

B$EXCFR.ASL
      5258**DCL      5258--REDEF
B$EXCFR.ERR
      5272**DCL      7732<>CALL
B$EXCFR.ERR.ERR#
      5272**DCL      5272--REDEF
B$EXCFR.EVID
      5271**DCL      5271--REDEF    5272--REDEF
B$EXCFR.IR
      5259**DCL      5259--REDEF
B$EXCFR.PREVSZ
      5258**DCL      5258--REDEF
B$EXCFR.SUBC
      5270**DCL      5270--REDEF    5271--REDEF    5271--REDEF
B$JIT.CPFLAGS1.SLEAZE
      4429**DCL      4429--REDEF
B$JIT.ERR.MID
      4336**DCL      4336--REDEF
B$JIT.JRESPEAK
      4497**DCL      4498--REDEF
B$JIT.MAXEXP
      4503**DCL      7388>>IF       7389>>IF       7392>>IF
B$JIT.ORIGINATOR_PORT.FROM_CR
      4606**DCL      4606--REDEF    4607--REDEF
B$JIT.PNR
      4510**DCL      4510--REDEF
B$JIT.TSLINE
      4604**DCL      4605--REDEF
B$JIT$
      7345**DCL      4330--IMP-PTR  7388>>IF       7389>>IF       7392>>IF
B$TCB.ALT$
      5255**DCL      7732>>CALL
PL6.E3A0      #001=CXX$CONTEXT2 File=CXX$CONTEXT2.:E05TSI                        TUE 07/29/97 12:29 Page:119
B$TCB$
      7346**DCL      5255--IMP-PTR  7732>>CALL
CHK_DCBNAME
      7744**PROC     7367--CALL     7535--CALL
CNVRT_FID
      7714**PROC     7372--CALL     7406--CALL     7560--CALL
CNVRT_FID50 IN PROCEDURE CNVRT_FID
      7732**LABEL    7729--CALLALT
CPOS IN PROCEDURE POST_ERROR
      7773**DCL      7771--PROC     7777>>ASSIGN   7794>>ASSIGN
CPSL_CFPT_FID
      5225**DCL      7718>>ASSIGN
CPSL_CFPT_FID.V
      5229**DCL      5225--DCLINIT
CPSL_COMMAND_PARAMETERS
      5032**DCL        12--PROC     7361--ENTRY    7527--ENTRY    7538--ENTRY    7618--ENTRY    7650--ENTRY
      7675--ENTRY
CPSL_COMMAND_PARAMETERS.ERRCODE
      5040**DCL      7776<<ASSIGN
CPSL_COMMAND_PARAMETERS.ERR_CPOS
      5046**DCL      7777<<ASSIGN
CPSL_COMMAND_PARAMETERS.FLAGS.ECHO
      5039**DCL      7784>>IF       7787<<ASSIGN
CPSL_COMMAND_PARAMETERS.FLAGS.INHIBIT_ERRMSG
      5036**DCL      7779>>IF
CPSL_COMMAND_PARAMETERS.FLAGS.REPORTED_TO_USER
      5037**DCL      7782<<ASSIGN
CXG$ECHO
      5245**DCL-ENT  7789--CALL
CXG$ERRMSG
      5246**DCL-ENT  7798--CALL
CXG$ERRPTR
      5245**DCL-ENT  7797--CALL
CXX$DECBIN
      5251**DCL-ENT  7822--CALL
CXX$OCTBIN
PL6.E3A0      #001=CXX$CONTEXT2 File=CXX$CONTEXT2.:E05TSI                        TUE 07/29/97 12:29 Page:120
      5252**DCL-ENT  7826--CALL
CXX$SET10
      7372**LABEL    7372--CALLALT
CXX$SET20
      7449**LABEL    7449--GOTO
ERRCODE IN PROCEDURE POST_ERROR
      7774**DCL      7771--PROC     7776>>ASSIGN   7793>>ASSIGN
E_BDCVAL
      5529**DCL      7599<>CALL     7834<>CALL
E_DECBIN IN PROCEDURE SETUP_AND_DECODE
      7834**LABEL    7822--CALLALT  7826--CALLALT
E_XBADFWINDOW
      7306**DCL      7693<>CALL
E_XBDSTRFID
      6778**DCL      7563<>CALL
E_XBIG15
      6343**DCL      7442<>CALL     7574<>CALL     7684<>CALL
E_XBIG254
      7114**DCL      7638<>CALL     7697<>CALL
E_XBIG255
      6199**DCL      7427<>CALL
E_XBIG262142
      5433**DCL      7376<>CALL     7670<>CALL
E_XBIG32000
      5481**DCL      7381<>CALL
E_XBIG32764
      5577**DCL      7384<>CALL
E_XBIG32767
      6874**DCL      7582<>CALL
E_XBIG4CHAR
      6826**DCL      7592<>CALL
E_XBIG509
      5722**DCL      7642<>CALL     7688<>CALL
E_XBIG511
      5770**DCL      7397<>CALL     7613<>CALL
E_XBIG6CHAR
PL6.E3A0      #001=CXX$CONTEXT2 File=CXX$CONTEXT2.:E05TSI                        TUE 07/29/97 12:29 Page:121
      6007**DCL      7482<>CALL     7570<>CALL
E_XBIG8CHAR
      6055**DCL      7457<>CALL     7646<>CALL
E_XBIGACCT
      5866**DCL      7409<>CALL     7666<>CALL
E_XBIGBORDERCHR
      7258**DCL      7701<>CALL
E_XBIGDCB
      5288**DCL      7764<>CALL
E_XBIGEXP
      5625**DCL      7390<>CALL     7393<>CALL
E_XBIGNAME
      5911**DCL      7658<>CALL     7662<>CALL
E_XBIGPROFILE
      7066**DCL      7496<>CALL
E_XBIGSEED
      6151**DCL      7509<>CALL
E_XBIGSEQID
      6586**DCL      7492<>CALL     7586<>CALL
E_XBIGSNUM
      5959**DCL      7412<>CALL
E_XBIGTYPE
      6391**DCL      7467<>CALL
E_XILLDCB
      5336**DCL      7767<>CALL
E_XILLDVFC
      6439**DCL      7473<>CALL     7479<>CALL     7552<>CALL     7558<>CALL
E_XILLFCNTBL
      7018**DCL      7634<>CALL
E_XILLTAB
      6730**DCL      7424<>CALL     7606<>CALL
E_XNULLSTRING
      6634**DCL      7486<>CALL     7567<>CALL
E_XRANGE114
      6247**DCL      7436<>CALL     7609<>CALL
E_XRANGE16384
PL6.E3A0      #001=CXX$CONTEXT2 File=CXX$CONTEXT2.:E05TSI                        TUE 07/29/97 12:29 Page:122
      7210**DCL      7500<>CALL
E_XRANGE2097152
      7162**DCL      7504<>CALL
E_XRANGE255
      5674**DCL      7433<>CALL     7578<>CALL
E_XRANGE511
      5818**DCL      7404<>CALL     7546<>CALL
E_XRANGE9999
      6538**DCL      7489<>CALL
E_XRANGESBIN
      6295**DCL      7439<>CALL
E_XTESINPUTSZ
      6922**DCL      7626<>CALL
E_XTEWORDWRAPCLM
      6970**DCL      7630<>CALL
E_XTMTABS
      6682**DCL      7418<>CALL     7603<>CALL
E_XWILDCHAR
      6103**DCL      7462<>CALL
FID_ACCT
      5185**DCL      7725--ASSIGN
FID_ASN
      7352**DCL      7722--ASSIGN
FID_NAME
      5159**DCL      7724--ASSIGN
FID_PASS
      5198**DCL      7726--ASSIGN
FID_RES
      7353**DCL      7723--ASSIGN
FID_RESULTS
      5126**DCL      7727--ASSIGN
FID_RESULTS.RES
      5126**DCL      7561>>IF
FID_SN
      5172**DCL      7720--ASSIGN
FID_WSN
PL6.E3A0      #001=CXX$CONTEXT2 File=CXX$CONTEXT2.:E05TSI                        TUE 07/29/97 12:29 Page:123
      5211**DCL      7721--ASSIGN
FORT_DCBNAME.COUNT IN PROCEDURE CHK_DCBNAME
      7748**DCL      7749--IMP-SIZ  7762>>ASSIGN
FPT_FID
      5103**DCL      7718<<ASSIGN   7729<>CALL
FPT_FID.ACCT_
      5104**DCL      7725<<ASSIGN
FPT_FID.ASN_
      5106**DCL      7722<<ASSIGN
FPT_FID.NAME_
      5104**DCL      7724<<ASSIGN
FPT_FID.PASS_
      5104**DCL      7726<<ASSIGN
FPT_FID.RESULTS_
      5106**DCL      7727<<ASSIGN
FPT_FID.RES_
      5106**DCL      7723<<ASSIGN
FPT_FID.SN_
      5105**DCL      7720<<ASSIGN
FPT_FID.TEXTFID_
      5103**DCL      7728<<ASSIGN
FPT_FID.V
      5107**DCL      7719--ASSIGN
FPT_FID.V_
      5103**DCL      7719<<ASSIGN
FPT_FID.WSN_
      5105**DCL      7721<<ASSIGN
I
      7359**DCL      7515<<DOINDEX  7516>>ASSIGN   7516>>ASSIGN
I IN PROCEDURE CHK_DCBNAME
      7745**DCL      7756<<ASSIGN   7759<<ASSIGN   7759>>ASSIGN   7762<<ASSIGN   7763>>IF
INDX
      7351**DCL      7460<<CALLBLT  7461>>IF
LDEV_ERR
      7616**LABEL    7560--CALLALT
M$FID
PL6.E3A0      #001=CXX$CONTEXT2 File=CXX$CONTEXT2.:E05TSI                        TUE 07/29/97 12:29 Page:124
       574**DCL-ENT  7729--CALL
OUT$BLK
      4654**DCL        12--PROC     7361--ENTRY    7527--ENTRY    7534--ASSIGN   7538--ENTRY    7618--ENTRY
      7650--ENTRY    7675--ENTRY    7812--ASSIGN
OUT$BLK.CODE
      4662**DCL      7365>>DOCASE   7542>>DOCASE   7622>>DOCASE   7654>>DOCASE   7679>>DOCASE   7818>>IF
      7818>>IF
OUT$BLK.NDTYPE
      4657**DCL      7548>>IF       7809>>IF       7809>>IF       7809>>IF
OUT$BLK.NSUBLKS
      4666**DCL      7417>>IF       7601>>IF       7809>>IF
OUT$BLK.SUBLK$
      4687**DCL      7418>>CALL     7448>>ASSIGN   7515>>DOINDEX  7516>>ASSIGN   7516>>ASSIGN   7603>>CALL
      7814>>ASSIGN
OUT$SYM.CODE
      5067**DCL      7386>>DOCASE   7506>>IF       7511>>IF
OUT$SYM.COUNT
      5084**DCL      5087--IMP-SIZ  7408>>IF       7411>>IF       7435>>IF       7456>>IF       7460>>CALLBLT
      7461>>IF       7466>>IF       7470>>IF       7470>>IF       7481>>IF       7484>>IF       7491>>IF
      7494>>IF       7506>>IF       7506>>IF       7515>>DOINDEX  7516>>ASSIGN   7555>>IF       7555>>IF
      7565>>IF       7568>>IF       7584>>IF       7588>>IF       7588>>IF       7588>>IF       7588>>IF
      7588>>IF       7593>>IF       7596>>IF       7596>>IF       7596>>IF       7596>>IF       7608>>IF
      7632>>IF       7644>>IF       7656>>IF       7660>>IF       7664>>IF       7690>>IF       7690>>IF
      7690>>IF       7690>>IF       7690>>IF       7699>>IF       7728>>ASSIGN   7756>>ASSIGN   7760--IF
      7765>>IF       7765>>IF       7822<>CALL     7826<>CALL
OUT$SYM.CPOS
      5076**DCL      7376<>CALL     7381<>CALL     7384<>CALL     7390<>CALL     7393<>CALL     7397<>CALL
      7404<>CALL     7409<>CALL     7412<>CALL     7418<>CALL     7424<>CALL     7427<>CALL     7433<>CALL
      7436>>CALL     7439<>CALL     7442<>CALL     7457<>CALL     7462<>CALL     7467<>CALL     7473<>CALL
      7479<>CALL     7482<>CALL     7486<>CALL     7489<>CALL     7492<>CALL     7496<>CALL     7500<>CALL
      7504<>CALL     7509<>CALL     7546<>CALL     7552<>CALL     7558<>CALL     7563<>CALL     7567<>CALL
      7570<>CALL     7574<>CALL     7578<>CALL     7582<>CALL     7586<>CALL     7592<>CALL     7599>>CALL
      7603<>CALL     7606<>CALL     7609>>CALL     7613<>CALL     7626<>CALL     7630<>CALL     7634<>CALL
      7638<>CALL     7642<>CALL     7646<>CALL     7658>>CALL     7662>>CALL     7666<>CALL     7670<>CALL
      7684<>CALL     7688<>CALL     7693<>CALL     7697<>CALL     7701<>CALL     7732<>CALL     7764<>CALL
      7767<>CALL     7834<>CALL
PL6.E3A0      #001=CXX$CONTEXT2 File=CXX$CONTEXT2.:E05TSI                        TUE 07/29/97 12:29 Page:125
OUT$SYM.NDTYPE
      5064**DCL      7469>>IF       7476>>IF       7757>>IF       7820>>IF       7824>>IF
OUT$SYM.TEXT
      5087**DCL      7460>>CALLBLT  7470>>IF       7516>>ASSIGN   7555>>IF       7588>>IF       7588>>IF
      7588>>IF       7588>>IF       7596>>IF       7596>>IF       7596>>IF       7596>>IF       7690>>IF
      7690>>IF       7690>>IF       7690>>IF       7728--ASSIGN   7765>>IF       7765>>IF
OUT$SYM.TEXTC$
      5079**DCL      7448>>ASSIGN   7760>>IF       7762--ASSIGN
POST_ERROR
      7771**PROC     7376--CALL     7381--CALL     7384--CALL     7390--CALL     7393--CALL     7397--CALL
      7404--CALL     7409--CALL     7412--CALL     7418--CALL     7424--CALL     7427--CALL     7433--CALL
      7436--CALL     7439--CALL     7442--CALL     7457--CALL     7462--CALL     7467--CALL     7473--CALL
      7479--CALL     7482--CALL     7486--CALL     7489--CALL     7492--CALL     7496--CALL     7500--CALL
      7504--CALL     7509--CALL     7546--CALL     7552--CALL     7558--CALL     7563--CALL     7567--CALL
      7570--CALL     7574--CALL     7578--CALL     7582--CALL     7586--CALL     7592--CALL     7599--CALL
      7603--CALL     7606--CALL     7609--CALL     7613--CALL     7626--CALL     7630--CALL     7634--CALL
      7638--CALL     7642--CALL     7646--CALL     7658--CALL     7662--CALL     7666--CALL     7670--CALL
      7684--CALL     7688--CALL     7693--CALL     7697--CALL     7701--CALL     7732--CALL     7764--CALL
      7767--CALL     7834--CALL
PTR1$
      7349**DCL      5061--IMP-PTR  7376>>CALL     7381>>CALL     7384>>CALL     7386>>DOCASE   7390>>CALL
      7393>>CALL     7397>>CALL     7404>>CALL     7408>>IF       7409>>CALL     7411>>IF       7412>>CALL
      7424>>CALL     7427>>CALL     7433>>CALL     7435>>IF       7436>>CALL     7439>>CALL     7442>>CALL
      7448<<ASSIGN   7456>>IF       7457>>CALL     7460>>CALLBLT  7460>>CALLBLT  7461>>IF       7462>>CALL
      7466>>IF       7467>>CALL     7469>>IF       7470>>IF       7470>>IF       7470>>IF       7473>>CALL
      7476>>IF       7479>>CALL     7481>>IF       7482>>CALL     7484>>IF       7486>>CALL     7489>>CALL
      7491>>IF       7492>>CALL     7494>>IF       7496>>CALL     7500>>CALL     7504>>CALL     7506>>IF
      7506>>IF       7506>>IF       7509>>CALL     7511>>IF       7534<<ASSIGN   7546>>CALL     7552>>CALL
      7555>>IF       7555>>IF       7555>>IF       7558>>CALL     7563>>CALL     7565>>IF       7567>>CALL
      7568>>IF       7570>>CALL     7574>>CALL     7578>>CALL     7582>>CALL     7584>>IF       7586>>CALL
      7588>>IF       7588>>IF       7588>>IF       7588>>IF       7588>>IF       7588>>IF       7588>>IF
      7588>>IF       7588>>IF       7592>>CALL     7593>>IF       7596>>IF       7596>>IF       7596>>IF
      7596>>IF       7596>>IF       7596>>IF       7596>>IF       7596>>IF       7599>>CALL     7606>>CALL
      7608>>IF       7609>>CALL     7613>>CALL     7626>>CALL     7630>>CALL     7632>>IF       7634>>CALL
      7638>>CALL     7642>>CALL     7644>>IF       7646>>CALL     7656>>IF       7658>>CALL     7660>>IF
      7662>>CALL     7664>>IF       7666>>CALL     7670>>CALL     7684>>CALL     7688>>CALL     7690>>IF
PL6.E3A0      #001=CXX$CONTEXT2 File=CXX$CONTEXT2.:E05TSI                        TUE 07/29/97 12:29 Page:126
      7690>>IF       7690>>IF       7690>>IF       7690>>IF       7690>>IF       7690>>IF       7690>>IF
      7690>>IF       7693>>CALL     7697>>CALL     7699>>IF       7701>>CALL     7728>>ASSIGN   7728>>ASSIGN
      7732>>CALL     7756>>ASSIGN   7757>>IF       7760>>IF       7760>>IF       7762>>ASSIGN   7764>>CALL
      7765>>IF       7765>>IF       7765>>IF       7765>>IF       7767>>CALL     7812<<ASSIGN   7814<<ASSIGN
      7820>>IF       7822>>CALL     7824>>IF       7826>>CALL     7834>>CALL
SBINMAX
      7355**DCL      7438>>IF
SBINMAX_O
      7354**DCL      7355--REDEF
SETUP_AND_DECODE
      7807**PROC     7363--CALL     7540--CALL     7620--CALL     7652--CALL     7677--CALL
SET_ERR
      7525**LABEL    7363--CALLALT  7540--CALLALT  7620--CALLALT  7677--CALLALT
UNHOLD_ERR
      7673**LABEL    7652--CALLALT
VALUE
      7350**DCL      7375>>IF       7380>>IF       7383>>IF       7389>>IF       7396>>IF       7403>>IF
      7403>>IF       7423>>IF       7426>>IF       7432>>IF       7432>>IF       7438>>IF       7438>>IF
      7441>>IF       7477>>IF       7488>>IF       7488>>IF       7498>>IF       7498>>IF       7502>>IF
      7502>>IF       7544>>IF       7544>>IF       7550>>IF       7572>>IF       7576>>IF       7576>>IF
      7580>>IF       7605>>IF       7611>>IF       7624>>IF       7628>>IF       7636>>IF       7640>>IF
      7668>>IF       7682>>IF       7686>>IF       7695>>IF       7816<<ASSIGN   7822<>CALL     7826<>CALL
      7830>>ASSIGN
VALUE_OUT
      5049**DCL        12--PROC     5050--REDEF    7361--ENTRY    7511--IF       7514<<ASSIGN   7527--ENTRY
      7528--IF       7530<<ASSIGN   7538--ENTRY    7618--ENTRY    7650--ENTRY    7675--ENTRY    7828--IF
      7830<<ASSIGN
VALUE_OUT_REDEF
      5050**DCL      7516<<ASSIGN
XUG_GETCMD
      4706**DCL        12--PROC     7361--ENTRY    7527--ENTRY    7538--ENTRY    7618--ENTRY    7650--ENTRY
      7675--ENTRY    7789<>CALL     7797<>CALL     7798<>CALL
XUG_GETCMD.EPOS#
      4816**DCL      7794<<ASSIGN
XUG_GETCMD.ERR_CODE
      4854**DCL      7793<<ASSIGN
PL6.E3A0      #001=CXX$CONTEXT2 File=CXX$CONTEXT2.:E05TSI                        TUE 07/29/97 12:29 Page:127
XUG_GETCMD.OUT$
      4711**DCL      4717--REDEF
XUG_GETCMD.USE_EPOS#
      4749**DCL      7795<<ASSIGN

PL6.E3A0      #002=CXX$VERIFY File=CXX$CONTEXT2.:E05TSI                          TUE 07/29/97 12:31 Page:128
      729        1        /*T***********************************************************/
      730        2        /*T*                                                         */
      731        3        /*T* Copyright (c) Bull HN Information Systems Inc., 1997    */
      732        4        /*T*                                                         */
      733        5        /*T***********************************************************/
      734        6        CXX$VERIFY: PROC (OUT$BLK, ERRBUF);
      735        7         %INCLUDE CP_6;
      736       88         %INCLUDE CX_MACROS_M;
      737      139         %INCLUDE XU_MACRO_C;
      738     3245         %INCLUDE CX_ISUBS_C;
      739     3597
      740     3598        %PARSE$OUT (NAME=OUT$BLK, STCLASS=PARAM);
      741     3643    1   DCL ERRBUF UBIN PARAM;
      742     3644        %PARSE$OUT (NAME=P$B, STCLASS="BASED(BLK$)");
      743     3689    1   DCL BLK$ PTR;
      744     3690    1   DCL P$ PTR;
      745     3691    1   DCL NUM_OPTS SBIN;
      746     3692    1   DCL INDX SBIN;
      747     3693        %CPSL_COMMAND_PARAMETERS (NAME=CPSL_PARAM, STCLASS=AUTO);
      748     3711
      749     3712    1   DCL CXP$POSTERR ENTRY(5);
      750     3713    1   DCL CXX$SET ENTRY(4);
      751     3714    1   DCL CXX$RESET ENTRY(4);
      752     3715    1   DCL CXX$LDEV ENTRY(4);
      753     3716    1   DCL CXX$WINDOW ENTRY(4);
      754     3717    1   DCL CXX$TERMINAL ENTRY(4);
      755     3718    1   DCL CXX$UNHOLD ENTRY(4);
      756     3719        %EJECT;
PL6.E3A0      #002=CXX$VERIFY File=CXX$CONTEXT2.:E05TSI                          TUE 07/29/97 12:31 Page:129
      757     3720    1      NUM_OPTS = 0;
      758     3721    1      INDX = 0;
      759     3722    2      DO WHILE NUM_OPTS < OUT$BLK.NSUBLKS;
      760     3723    2         BLK$ = OUT$BLK.SUBLK$(NUM_OPTS);
      761     3724    2         CPSL_PARAM = '0'B;
      762     3725    2         CPSL_PARAM.FLAGS.INHIBIT_ERRMSG = '1'B;
      763     3726    2         NUM_OPTS = NUM_OPTS + 1;
      764     3727    3   CXX_CASE: DO CASE (OUT$BLK.CODE);
      765     3728    3           CASE (ERASECMND, HOLDCMND, LDEVCMND, PRINTCMND);
      766     3729    3            IF P$B.CODE = LD_TABS AND INDX < BLK$->P$B.NSUBLKS
      767     3730    3              THEN GOTO CXX_SUBNODE;
      768     3731    3            CALL CXX$LDEV (P$B,,CPSL_PARAM);
      769     3732    3            GOTO CXX_WINDOW;
      770     3733
      771     3734    3           CASE (UNHOLDCMND);
      772     3735    3            P$ = BLK$;
      773     3736    3            IF P$B.CODE = UNHOLD_FID
      774     3737    4              THEN DO;
      775     3738    4               P$ = P$B.SUBLK$(1);
      776     3739    4               P$->P$B.SUBLK$(0)->P$B.CODE = P$->P$B.CODE;
      777     3740    4               END;
      778     3741    3            IF INDX < P$->P$B.NSUBLKS
      779     3742    4              THEN DO;
      780     3743    4               CALL CXX$UNHOLD (P$->P$B.SUBLK$(INDX)->P$B,,CPSL_PARAM);
      781     3744    4               NUM_OPTS = NUM_OPTS - 1;
      782     3745    4               INDX = INDX + 1;
      783     3746    4               END;
      784     3747    4              ELSE DO;
      785     3748    4               CALL CXX$UNHOLD (P$B,,CPSL_PARAM);
      786     3749    4               INDX = 0;
      787     3750    4               END;
      788     3751
      789     3752    3           CASE (RESETCMND);
      790     3753    3            CALL CXX$RESET (P$B,,CPSL_PARAM);
      791     3754    3            NUM_OPTS = OUT$BLK.NSUBLKS;
      792     3755
      793     3756    3           CASE (SETCMND, ADJUSTCMND);
PL6.E3A0      #002=CXX$VERIFY File=CXX$CONTEXT2.:E05TSI                          TUE 07/29/97 12:31 Page:130
      794     3757    3            IF (P$B.CODE = SNOPT OR P$B.CODE = TABOPT)
      795     3758    3             AND INDX < P$B.NSUBLKS
      796     3759    3              THEN GOTO CXX_SUBNODE;
      797     3760    3            IF (P$B.CODE = ACCESSOPT OR P$B.CODE = ACSVEHOPT
      798     3761    3             OR P$B.CODE = READOPT OR P$B.CODE = WRITEOPT)
      799     3762    3             AND INDX < P$B.SUBLK$(0)->P$B.NSUBLKS
      800     3763    3              THEN
      801     3764    4            DO;
      802     3765    4               BLK$ = P$B.SUBLK$(0);
      803     3766    4   CXX_SUBNODE: BLK$ = P$B.SUBLK$(INDX);
      804     3767    4               CALL CXX$SET (P$B,,CPSL_PARAM);
      805     3768    4               INDX = INDX + 1;
      806     3769    4               NUM_OPTS = NUM_OPTS - 1;
      807     3770    4               EXIT CXX_CASE;
      808     3771    4               END;
      809     3772    3            CALL CXX$SET (P$B,,CPSL_PARAM);
      810     3773    3            GOTO CXX_WINDOW;
      811     3774
      812     3775    3           CASE (TERMINALCMND);
      813     3776    3            CALL CXX$TERMINAL (P$B,,CPSL_PARAM);
      814     3777    3   CXX_WINDOW: CALL CXX$WINDOW (BLK$->P$B,,CPSL_PARAM);
      815     3778    3            INDX = 0;
      816     3779    3           END;
      817     3780    2         IF CPSL_PARAM.ERRCODE
      818     3781    2           THEN
      819     3782    2            CALL CXP$POSTERR (ERRBUF,
      820     3783    2             CPSL_PARAM.ERR_CPOS, CPSL_PARAM.ERRCODE);
      821     3784    2         END;
      822     3785    1      RETURN;
      823     3786    1   END CXX$VERIFY;

PL6.E3A0      #002=CXX$VERIFY File=CXX$CONTEXT2.:E05TSI                          TUE 07/29/97 12:31 Page:131
--  Include file information  --

   CX_ISUBS_C.:E05TOU  is referenced.
   XU_MACRO_C.:E05TOU  is referenced.
   CX_MACROS_M.:E05TOU  is referenced.
   CP_6.:E05TOU  cannot be made into a system file and is referenced.
   B$JIT_C.:E05TOU  was found in the system file and is never referenced.
   CP_6_C.:E05TOU  was found in the system file and is referenced.
      No diagnostics issued in procedure CXX$VERIFY.

   Procedure CXX$VERIFY requires 197 words for executable code.
   Procedure CXX$VERIFY requires 18 words of local(AUTO) storage.

    No errors detected in file CXX$CONTEXT2.:E05TSI    .

PL6.E3A0      #002=CXX$VERIFY File=CXX$CONTEXT2.:E05TSI                          TUE 07/29/97 12:31 Page:132

 Object Unit name= CXX$VERIFY                                 File name= CXX$CONTEXT2.:E05TOU
 UTS= JUL 29 '97 12:31:14.60 TUE                              Compiler= PL-6/E31         Sev=      00
 SharedLib= :SHARED_SYSTEM                                    Alt SharedLib=


    ****  Control sections  ****

 Sect   Type Bound  Init  Size OctSiz  Section name(segment info)
    0   DCB   even  none     0      0  M$UC
    1   Proc  even  none   197    305  CXX$VERIFY

    ****  Entry defs  ****

                              Check   Calling
                             calling  sequence
  Sect OctLoc Primary Altret sequence   type   Parms  Name
     1      0   yes            yes      Std        2  CXX$VERIFY

  ****  Entry refs  ****

         Check        Calling
        calling       sequence
Altret sequence SRef   type   Args  Name
         yes           Std       4 CXX$LDEV
         yes           Std       4 CXX$UNHOLD
         yes           Std       4 CXX$WINDOW
         yes           Std       4 CXX$RESET
         yes           Std       4 CXX$SET
         yes           Std       4 CXX$TERMINAL
         yes           Std       5 CXP$POSTERR
                       nStd      0 X66_AUTO_2
                       Std       0 B_CONSPOOL_D
                       nStd      0 X66_ARET
PL6.E3A0      #002=CXX$VERIFY File=CXX$CONTEXT2.:E05TSI                          TUE 07/29/97 12:31 Page:133

  ****  Data refs  ****

  Flags:  r = read only, s = secondary
Flgs Name                             Flgs Name                             Flgs Name
     M$UC                                  B_VECTNIL
PL6.E3A0      #002=CXX$VERIFY File=CXX$CONTEXT2.:E05TSI                          TUE 07/29/97 12:31 Page:134


      729        1        /*T***********************************************************/
      730        2        /*T*                                                         */
      731        3        /*T* Copyright (c) Bull HN Information Systems Inc., 1997    */
      732        4        /*T*                                                         */
      733        5        /*T***********************************************************/
      734        6        CXX$VERIFY: PROC (OUT$BLK, ERRBUF);

      6  1 000000   000000 700200 xent  CXX$VERIFY   TSX0  ! X66_AUTO_2
         1 000001   000022 000002                    ZERO    18,2

      735        7         %INCLUDE CP_6;
      736       88         %INCLUDE CX_MACROS_M;
      737      139         %INCLUDE XU_MACRO_C;
      738     3245         %INCLUDE CX_ISUBS_C;
      739     3597
      740     3598        %PARSE$OUT (NAME=OUT$BLK, STCLASS=PARAM);
      741     3643    1   DCL ERRBUF UBIN PARAM;
      742     3644        %PARSE$OUT (NAME=P$B, STCLASS="BASED(BLK$)");
      743     3689    1   DCL BLK$ PTR;
      744     3690    1   DCL P$ PTR;
      745     3691    1   DCL NUM_OPTS SBIN;
      746     3692    1   DCL INDX SBIN;
      747     3693        %CPSL_COMMAND_PARAMETERS (NAME=CPSL_PARAM, STCLASS=AUTO);
      748     3711
      749     3712    1   DCL CXP$POSTERR ENTRY(5);
      750     3713    1   DCL CXX$SET ENTRY(4);
      751     3714    1   DCL CXX$RESET ENTRY(4);
      752     3715    1   DCL CXX$LDEV ENTRY(4);
      753     3716    1   DCL CXX$WINDOW ENTRY(4);
      754     3717    1   DCL CXX$TERMINAL ENTRY(4);
      755     3718    1   DCL CXX$UNHOLD ENTRY(4);
      756     3719        %EJECT;
PL6.E3A0      #002=CXX$VERIFY File=CXX$CONTEXT2.:E05TSI                          TUE 07/29/97 12:31 Page:135
      757     3720    1      NUM_OPTS = 0;

   3720  1 000002   200007 450100                    STZ     NUM_OPTS,,AUTO

      758     3721    1      INDX = 0;

   3721  1 000003   200010 450100                    STZ     INDX,,AUTO

      759     3722    2      DO WHILE NUM_OPTS < OUT$BLK.NSUBLKS;

   3722  1 000004   200003 470500                    LDP0    @OUT$BLK,,AUTO
         1 000005   000001 236100                    LDQ     1,,PR0
         1 000006   000022 772000                    QRL     18
         1 000007   200007 116100                    CMPQ    NUM_OPTS,,AUTO
         1 000010   000304 604400 1                  TMOZ    s:3785

      760     3723    2         BLK$ = OUT$BLK.SUBLK$(NUM_OPTS);

   3723  1 000011   200003 470500                    LDP0    @OUT$BLK,,AUTO
         1 000012   200007 720100                    LXL0    NUM_OPTS,,AUTO
         1 000013   000003 236110                    LDQ     3,X0,PR0
         1 000014   200005 756100                    STQ     BLK$,,AUTO

      761     3724    2         CPSL_PARAM = '0'B;

   3724  1 000015   000100 100400                    MLR     fill='000'O
         1 000016   000002 000001 xsym               ADSC9   B_VECTNIL+2              cn=0,n=1
         1 000017   200011 000024                    ADSC9   CPSL_PARAM,,AUTO         cn=0,n=20

      762     3725    2         CPSL_PARAM.FLAGS.INHIBIT_ERRMSG = '1'B;

   3725  1 000020   200000 236003                    LDQ     65536,DU
         1 000021   200012 256100                    ORSQ    CPSL_PARAM+1,,AUTO

      763     3726    2         NUM_OPTS = NUM_OPTS + 1;

   3726  1 000022   200007 054100                    AOS     NUM_OPTS,,AUTO
PL6.E3A0      #002=CXX$VERIFY File=CXX$CONTEXT2.:E05TSI                          TUE 07/29/97 12:31 Page:136

      764     3727    3   CXX_CASE: DO CASE (OUT$BLK.CODE);

   3727  1 000023   000000 720100       CXX_CASE     LXL0    0,,PR0
         1 000024   000012 100003                    CMPX0   10,DU
         1 000025   000027 602010 1                  TNC     CXX_CASE+4,X0
         1 000026   000263 710000 1                  TRA     s:3780
         1 000027   000263 710000 1                  TRA     s:3780
         1 000030   000154 710000 1                  TRA     s:3757
         1 000031   000041 710000 1                  TRA     s:3729
         1 000032   000041 710000 1                  TRA     s:3729
         1 000033   000041 710000 1                  TRA     s:3729
         1 000034   000136 710000 1                  TRA     s:3753
         1 000035   000154 710000 1                  TRA     s:3757
         1 000036   000240 710000 1                  TRA     s:3776
         1 000037   000041 710000 1                  TRA     s:3729
         1 000040   000063 710000 1                  TRA     s:3735

      765     3728    3           CASE (ERASECMND, HOLDCMND, LDEVCMND, PRINTCMND);

      766     3729    3            IF P$B.CODE = LD_TABS AND INDX < BLK$->P$B.NSUBLKS

   3729  1 000041   200005 471500                    LDP1    BLK$,,AUTO
         1 000042   100000 721100                    LXL1    0,,PR1
         1 000043   000060 101003                    CMPX1   48,DU
         1 000044   000051 601000 1                  TNZ     s:3731
         1 000045   100001 236100                    LDQ     1,,PR1
         1 000046   000022 772000                    QRL     18
         1 000047   200010 116100                    CMPQ    INDX,,AUTO
         1 000050   000205 605400 1                  TPNZ    CXX_SUBNODE

      767     3730    3              THEN GOTO CXX_SUBNODE;
      768     3731    3            CALL CXX$LDEV (P$B,,CPSL_PARAM);

   3731  1 000051   200011 633500                    EPPR3   CPSL_PARAM,,AUTO
         1 000052   200020 453500                    STP3    CPSL_PARAM+7,,AUTO
         1 000053   000001 236000 xsym               LDQ     B_VECTNIL+1
PL6.E3A0      #002=CXX$VERIFY File=CXX$CONTEXT2.:E05TSI                          TUE 07/29/97 12:31 Page:137
         1 000054   200005 235100                    LDA     BLK$,,AUTO
         1 000055   200016 757100                    STAQ    CPSL_PARAM+5,,AUTO
         1 000056   200016 630500                    EPPR0   CPSL_PARAM+5,,AUTO
         1 000057   000021 631400 xsym               EPPR1   B_VECTNIL+17
         1 000060   000000 701000 xent               TSX1    CXX$LDEV
         1 000061   000000 011000                    NOP     0

      769     3732    3            GOTO CXX_WINDOW;

   3732  1 000062   000251 710000 1                  TRA     CXX_WINDOW

      770     3733
      771     3734    3           CASE (UNHOLDCMND);

      772     3735    3            P$ = BLK$;

   3735  1 000063   200005 236100                    LDQ     BLK$,,AUTO
         1 000064   200006 756100                    STQ     P$,,AUTO

      773     3736    3            IF P$B.CODE = UNHOLD_FID

   3736  1 000065   200005 471500                    LDP1    BLK$,,AUTO
         1 000066   100000 721100                    LXL1    0,,PR1
         1 000067   000002 101003                    CMPX1   2,DU
         1 000070   000077 601000 1                  TNZ     s:3741

      774     3737    4              THEN DO;

      775     3738    4               P$ = P$B.SUBLK$(1);

   3738  1 000071   100004 236100                    LDQ     4,,PR1
         1 000072   200006 756100                    STQ     P$,,AUTO

      776     3739    4               P$->P$B.SUBLK$(0)->P$B.CODE = P$->P$B.CODE;

   3739  1 000073   200006 473500                    LDP3    P$,,AUTO
         1 000074   300003 474500                    LDP4    3,,PR3
PL6.E3A0      #002=CXX$VERIFY File=CXX$CONTEXT2.:E05TSI                          TUE 07/29/97 12:31 Page:138
         1 000075   300000 722100                    LXL2    0,,PR3
         1 000076   400000 442100                    SXL2    0,,PR4

      777     3740    4               END;

      778     3741    3            IF INDX < P$->P$B.NSUBLKS

   3741  1 000077   200006 473500                    LDP3    P$,,AUTO
         1 000100   300001 236100                    LDQ     1,,PR3
         1 000101   000022 772000                    QRL     18
         1 000102   200010 116100                    CMPQ    INDX,,AUTO
         1 000103   000123 604400 1                  TMOZ    s:3748

      779     3742    4              THEN DO;

      780     3743    4               CALL CXX$UNHOLD (P$->P$B.SUBLK$(INDX)->P$B,,CPSL_PARAM);

   3743  1 000104   200010 720100                    LXL0    INDX,,AUTO
         1 000105   300003 474510                    LDP4    3,X0,PR3
         1 000106   200011 635500                    EPPR5   CPSL_PARAM,,AUTO
         1 000107   200020 455500                    STP5    CPSL_PARAM+7,,AUTO
         1 000110   000001 236000 xsym               LDQ     B_VECTNIL+1
         1 000111   200017 756100                    STQ     CPSL_PARAM+6,,AUTO
         1 000112   200016 454500                    STP4    CPSL_PARAM+5,,AUTO
         1 000113   200016 630500                    EPPR0   CPSL_PARAM+5,,AUTO
         1 000114   000021 631400 xsym               EPPR1   B_VECTNIL+17
         1 000115   000000 701000 xent               TSX1    CXX$UNHOLD
         1 000116   000000 011000                    NOP     0

      781     3744    4               NUM_OPTS = NUM_OPTS - 1;

   3744  1 000117   000001 336007                    LCQ     1,DL
         1 000120   200007 056100                    ASQ     NUM_OPTS,,AUTO

      782     3745    4               INDX = INDX + 1;

   3745  1 000121   200010 054100                    AOS     INDX,,AUTO
PL6.E3A0      #002=CXX$VERIFY File=CXX$CONTEXT2.:E05TSI                          TUE 07/29/97 12:31 Page:139

      783     3746    4               END;

   3746  1 000122   000263 710000 1                  TRA     s:3780

      784     3747    4              ELSE DO;

      785     3748    4               CALL CXX$UNHOLD (P$B,,CPSL_PARAM);

   3748  1 000123   200011 634500                    EPPR4   CPSL_PARAM,,AUTO
         1 000124   200020 454500                    STP4    CPSL_PARAM+7,,AUTO
         1 000125   000001 236000 xsym               LDQ     B_VECTNIL+1
         1 000126   200005 235100                    LDA     BLK$,,AUTO
         1 000127   200016 757100                    STAQ    CPSL_PARAM+5,,AUTO
         1 000130   200016 630500                    EPPR0   CPSL_PARAM+5,,AUTO
         1 000131   000021 631400 xsym               EPPR1   B_VECTNIL+17
         1 000132   000000 701000 xent               TSX1    CXX$UNHOLD
         1 000133   000000 011000                    NOP     0

      786     3749    4               INDX = 0;

   3749  1 000134   200010 450100                    STZ     INDX,,AUTO

      787     3750    4               END;

   3750  1 000135   000263 710000 1                  TRA     s:3780

      788     3751
      789     3752    3           CASE (RESETCMND);

      790     3753    3            CALL CXX$RESET (P$B,,CPSL_PARAM);

   3753  1 000136   200011 631500                    EPPR1   CPSL_PARAM,,AUTO
         1 000137   200020 451500                    STP1    CPSL_PARAM+7,,AUTO
         1 000140   000001 236000 xsym               LDQ     B_VECTNIL+1
         1 000141   200005 235100                    LDA     BLK$,,AUTO
         1 000142   200016 757100                    STAQ    CPSL_PARAM+5,,AUTO
PL6.E3A0      #002=CXX$VERIFY File=CXX$CONTEXT2.:E05TSI                          TUE 07/29/97 12:31 Page:140
         1 000143   200016 630500                    EPPR0   CPSL_PARAM+5,,AUTO
         1 000144   000021 631400 xsym               EPPR1   B_VECTNIL+17
         1 000145   000000 701000 xent               TSX1    CXX$RESET
         1 000146   000000 011000                    NOP     0

      791     3754    3            NUM_OPTS = OUT$BLK.NSUBLKS;

   3754  1 000147   200003 470500                    LDP0    @OUT$BLK,,AUTO
         1 000150   000001 236100                    LDQ     1,,PR0
         1 000151   000022 772000                    QRL     18
         1 000152   200007 756100                    STQ     NUM_OPTS,,AUTO
         1 000153   000263 710000 1                  TRA     s:3780

      792     3755
      793     3756    3           CASE (SETCMND, ADJUSTCMND);

      794     3757    3            IF (P$B.CODE = SNOPT OR P$B.CODE = TABOPT)

   3757  1 000154   200005 471500                    LDP1    BLK$,,AUTO
         1 000155   100000 721100                    LXL1    0,,PR1
         1 000156   000155 101003                    CMPX1   109,DU
         1 000157   000162 600000 1                  TZE     s:3757+6
         1 000160   000160 101003                    CMPX1   112,DU
         1 000161   000166 601000 1                  TNZ     s:3760
         1 000162   100001 236100                    LDQ     1,,PR1
         1 000163   000022 772000                    QRL     18
         1 000164   200010 116100                    CMPQ    INDX,,AUTO
         1 000165   000205 605400 1                  TPNZ    CXX_SUBNODE

      795     3758    3             AND INDX < P$B.NSUBLKS
      796     3759    3              THEN GOTO CXX_SUBNODE;
      797     3760    3            IF (P$B.CODE = ACCESSOPT OR P$B.CODE = ACSVEHOPT

   3760  1 000166   000025 101003                    CMPX1   21,DU
         1 000167   000176 600000 1                  TZE     s:3760+8
         1 000170   000027 101003                    CMPX1   23,DU
         1 000171   000176 600000 1                  TZE     s:3760+8
PL6.E3A0      #002=CXX$VERIFY File=CXX$CONTEXT2.:E05TSI                          TUE 07/29/97 12:31 Page:141
         1 000172   000142 101003                    CMPX1   98,DU
         1 000173   000176 600000 1                  TZE     s:3760+8
         1 000174   000203 101003                    CMPX1   131,DU
         1 000175   000226 601000 1                  TNZ     s:3772
         1 000176   100003 473500                    LDP3    3,,PR1
         1 000177   300001 236100                    LDQ     1,,PR3
         1 000200   000022 772000                    QRL     18
         1 000201   200010 116100                    CMPQ    INDX,,AUTO
         1 000202   000226 604400 1                  TMOZ    s:3772

      798     3761    3             OR P$B.CODE = READOPT OR P$B.CODE = WRITEOPT)
      799     3762    3             AND INDX < P$B.SUBLK$(0)->P$B.NSUBLKS
      800     3763    3              THEN
      801     3764    4            DO;

      802     3765    4               BLK$ = P$B.SUBLK$(0);

   3765  1 000203   100003 236100                    LDQ     3,,PR1
         1 000204   200005 756100                    STQ     BLK$,,AUTO

      803     3766    4   CXX_SUBNODE: BLK$ = P$B.SUBLK$(INDX);

   3766  1 000205   200005 471500       CXX_SUBNODE  LDP1    BLK$,,AUTO
         1 000206   200010 721100                    LXL1    INDX,,AUTO
         1 000207   100003 236111                    LDQ     3,X1,PR1
         1 000210   200005 756100                    STQ     BLK$,,AUTO

      804     3767    4               CALL CXX$SET (P$B,,CPSL_PARAM);

   3767  1 000211   200011 631500                    EPPR1   CPSL_PARAM,,AUTO
         1 000212   200020 451500                    STP1    CPSL_PARAM+7,,AUTO
         1 000213   000001 236000 xsym               LDQ     B_VECTNIL+1
         1 000214   200005 235100                    LDA     BLK$,,AUTO
         1 000215   200016 757100                    STAQ    CPSL_PARAM+5,,AUTO
         1 000216   200016 630500                    EPPR0   CPSL_PARAM+5,,AUTO
         1 000217   000021 631400 xsym               EPPR1   B_VECTNIL+17
         1 000220   000000 701000 xent               TSX1    CXX$SET
PL6.E3A0      #002=CXX$VERIFY File=CXX$CONTEXT2.:E05TSI                          TUE 07/29/97 12:31 Page:142
         1 000221   000000 011000                    NOP     0

      805     3768    4               INDX = INDX + 1;

   3768  1 000222   200010 054100                    AOS     INDX,,AUTO

      806     3769    4               NUM_OPTS = NUM_OPTS - 1;

   3769  1 000223   000001 336007                    LCQ     1,DL
         1 000224   200007 056100                    ASQ     NUM_OPTS,,AUTO

      807     3770    4               EXIT CXX_CASE;

   3770  1 000225   000263 710000 1                  TRA     s:3780

      808     3771    4               END;
      809     3772    3            CALL CXX$SET (P$B,,CPSL_PARAM);

   3772  1 000226   200011 633500                    EPPR3   CPSL_PARAM,,AUTO
         1 000227   200020 453500                    STP3    CPSL_PARAM+7,,AUTO
         1 000230   000001 236000 xsym               LDQ     B_VECTNIL+1
         1 000231   200005 235100                    LDA     BLK$,,AUTO
         1 000232   200016 757100                    STAQ    CPSL_PARAM+5,,AUTO
         1 000233   200016 630500                    EPPR0   CPSL_PARAM+5,,AUTO
         1 000234   000021 631400 xsym               EPPR1   B_VECTNIL+17
         1 000235   000000 701000 xent               TSX1    CXX$SET
         1 000236   000000 011000                    NOP     0

      810     3773    3            GOTO CXX_WINDOW;

   3773  1 000237   000251 710000 1                  TRA     CXX_WINDOW

      811     3774
      812     3775    3           CASE (TERMINALCMND);

      813     3776    3            CALL CXX$TERMINAL (P$B,,CPSL_PARAM);

PL6.E3A0      #002=CXX$VERIFY File=CXX$CONTEXT2.:E05TSI                          TUE 07/29/97 12:31 Page:143
   3776  1 000240   200011 631500                    EPPR1   CPSL_PARAM,,AUTO
         1 000241   200020 451500                    STP1    CPSL_PARAM+7,,AUTO
         1 000242   000001 236000 xsym               LDQ     B_VECTNIL+1
         1 000243   200005 235100                    LDA     BLK$,,AUTO
         1 000244   200016 757100                    STAQ    CPSL_PARAM+5,,AUTO
         1 000245   200016 630500                    EPPR0   CPSL_PARAM+5,,AUTO
         1 000246   000021 631400 xsym               EPPR1   B_VECTNIL+17
         1 000247   000000 701000 xent               TSX1    CXX$TERMINAL
         1 000250   000000 011000                    NOP     0

      814     3777    3   CXX_WINDOW: CALL CXX$WINDOW (BLK$->P$B,,CPSL_PARAM);

   3777  1 000251   200011 630500       CXX_WINDOW   EPPR0   CPSL_PARAM,,AUTO
         1 000252   200020 450500                    STP0    CPSL_PARAM+7,,AUTO
         1 000253   000001 236000 xsym               LDQ     B_VECTNIL+1
         1 000254   200005 235100                    LDA     BLK$,,AUTO
         1 000255   200016 757100                    STAQ    CPSL_PARAM+5,,AUTO
         1 000256   200016 630500                    EPPR0   CPSL_PARAM+5,,AUTO
         1 000257   000021 631400 xsym               EPPR1   B_VECTNIL+17
         1 000260   000000 701000 xent               TSX1    CXX$WINDOW
         1 000261   000000 011000                    NOP     0

      815     3778    3            INDX = 0;

   3778  1 000262   200010 450100                    STZ     INDX,,AUTO

      816     3779    3           END;

      817     3780    2         IF CPSL_PARAM.ERRCODE

   3780  1 000263   200013 235100                    LDA     CPSL_PARAM+2,,AUTO
         1 000264   000277 600000 1                  TZE     s:3784

      818     3781    2           THEN
      819     3782    2            CALL CXP$POSTERR (ERRBUF,

   3782  1 000265   200013 630500                    EPPR0   CPSL_PARAM+2,,AUTO
PL6.E3A0      #002=CXX$VERIFY File=CXX$CONTEXT2.:E05TSI                          TUE 07/29/97 12:31 Page:144
         1 000266   200020 450500                    STP0    CPSL_PARAM+7,,AUTO
         1 000267   200014 631500                    EPPR1   CPSL_PARAM+3,,AUTO
         1 000270   200017 451500                    STP1    CPSL_PARAM+6,,AUTO
         1 000271   200004 236100                    LDQ     @ERRBUF,,AUTO
         1 000272   200016 756100                    STQ     CPSL_PARAM+5,,AUTO
         1 000273   200016 630500                    EPPR0   CPSL_PARAM+5,,AUTO
         1 000274   000021 631400 xsym               EPPR1   B_VECTNIL+17
         1 000275   000000 701000 xent               TSX1    CXP$POSTERR
         1 000276   000000 011000                    NOP     0

      820     3783    2             CPSL_PARAM.ERR_CPOS, CPSL_PARAM.ERRCODE);
      821     3784    2         END;

   3784  1 000277   200003 470500                    LDP0    @OUT$BLK,,AUTO
         1 000300   000001 236100                    LDQ     1,,PR0
         1 000301   000022 772000                    QRL     18
         1 000302   200007 116100                    CMPQ    NUM_OPTS,,AUTO
         1 000303   000011 605400 1                  TPNZ    s:3723

      822     3785    1      RETURN;

   3785  1 000304   000000 702200 xent               TSX2  ! X66_ARET
      823     3786    1   END CXX$VERIFY;

PL6.E3A0      #002=CXX$VERIFY File=CXX$CONTEXT2.:E05TSI                          TUE 07/29/97 12:31 Page:145
--  Include file information  --

   CX_ISUBS_C.:E05TOU  is referenced.
   XU_MACRO_C.:E05TOU  is referenced.
   CX_MACROS_M.:E05TOU  is referenced.
   CP_6.:E05TOU  cannot be made into a system file and is referenced.
   B$JIT_C.:E05TOU  was found in the system file and is never referenced.
   CP_6_C.:E05TOU  was found in the system file and is referenced.
      No diagnostics issued in procedure CXX$VERIFY.
PL6.E3A0      #002=CXX$VERIFY File=CXX$CONTEXT2.:E05TSI                          TUE 07/29/97 12:31 Page:146

 **** Variables and constants ****

  ****  Auto variables  ****

  ****  Scalars and arrays  ****
OctLoc.c.b A Datatyp(siz) R M Lvl/name                 OctLoc.c.b A Datatyp(siz) R M Lvl/name

     4-0-0/w PTR         r     1 @ERRBUF                    3-0-0/w PTR         r     1 @OUT$BLK
     5-0-0/w PTR         r     1 BLK$                      11-0-0/w STRC(180)   r     1 CPSL_PARAM
    *0-0-0/w UBIN        r     1 ERRBUF                    10-0-0/w SBIN        r     1 INDX
     7-0-0/w SBIN        r     1 NUM_OPTS                  *0-0-0/w STRC(144)   r     1 OUT$BLK
     6-0-0/w PTR         r     1 P$

  ****  BASED and DCB variables  ****

  ****  Scalars and arrays  ****
OctLoc.c.b A Datatyp(siz) R M Lvl/name                 OctLoc.c.b A Datatyp(siz) R M Lvl/name

     0-0-0/w STRC(144)   r     1 P$B


   Procedure CXX$VERIFY requires 197 words for executable code.
   Procedure CXX$VERIFY requires 18 words of local(AUTO) storage.

    No errors detected in file CXX$CONTEXT2.:E05TSI    .
PL6.E3A0      #002=CXX$VERIFY File=CXX$CONTEXT2.:E05TSI                          TUE 07/29/97 12:31 Page:147
          *** CROSS REFERENCE LISTING ***
**     DENOTES     IDENTIFIER DEFINITION
<<                 IDENTIFIER'S VALUE SET
>>                 IDENTIFIER'S VALUE USED
<>                 IDENTIFIER SET AND/OR USED
--                 IDENTIFIER REFERENCED
PL6.E3A0      #002=CXX$VERIFY File=CXX$CONTEXT2.:E05TSI                          TUE 07/29/97 12:31 Page:148
          MINI XREF LISTING

BLK$
      3689**DCL      3650--IMP-PTR  3723<<ASSIGN   3729>>IF       3729>>IF       3731>>CALL     3735>>ASSIGN
      3736>>IF       3738>>ASSIGN   3748>>CALL     3753>>CALL     3757>>IF       3757>>IF       3757>>IF
      3760>>IF       3760>>IF       3760>>IF       3760>>IF       3760>>IF       3765<<ASSIGN   3765>>ASSIGN
      3766<<ASSIGN   3766>>ASSIGN   3767>>CALL     3772>>CALL     3776>>CALL     3777>>CALL
CPSL_PARAM
      3694**DCL      3724<<ASSIGN   3731<>CALL     3743<>CALL     3748<>CALL     3753<>CALL     3767<>CALL
      3772<>CALL     3776<>CALL     3777<>CALL
CPSL_PARAM.ERRCODE
      3702**DCL      3780>>IF       3782<>CALL
CPSL_PARAM.ERR_CPOS
      3708**DCL      3782<>CALL
CPSL_PARAM.FLAGS.INHIBIT_ERRMSG
      3698**DCL      3725<<ASSIGN
CXP$POSTERR
      3712**DCL-ENT  3782--CALL
CXX$LDEV
      3715**DCL-ENT  3731--CALL
CXX$RESET
      3714**DCL-ENT  3753--CALL
CXX$SET
      3713**DCL-ENT  3767--CALL     3772--CALL
CXX$TERMINAL
      3717**DCL-ENT  3776--CALL
CXX$UNHOLD
      3718**DCL-ENT  3743--CALL     3748--CALL
CXX$WINDOW
      3716**DCL-ENT  3777--CALL
CXX_CASE
      3727**LABEL    3770--EXIT
CXX_SUBNODE
      3766**LABEL    3730--GOTO     3759--GOTO
PL6.E3A0      #002=CXX$VERIFY File=CXX$CONTEXT2.:E05TSI                          TUE 07/29/97 12:31 Page:149
CXX_WINDOW
      3777**LABEL    3732--GOTO     3773--GOTO
ERRBUF
      3643**DCL         6--PROC     3782<>CALL
INDX
      3692**DCL      3721<<ASSIGN   3729>>IF       3741>>IF       3743>>CALL     3745<<ASSIGN   3745>>ASSIGN
      3749<<ASSIGN   3757>>IF       3760>>IF       3766>>ASSIGN   3768<<ASSIGN   3768>>ASSIGN   3778<<ASSIGN
NUM_OPTS
      3691**DCL      3720<<ASSIGN   3722>>DOWHILE  3723>>ASSIGN   3726<<ASSIGN   3726>>ASSIGN   3744<<ASSIGN
      3744>>ASSIGN   3754<<ASSIGN   3769<<ASSIGN   3769>>ASSIGN
OUT$BLK
      3604**DCL         6--PROC
OUT$BLK.CODE
      3612**DCL      3727>>DOCASE
OUT$BLK.NSUBLKS
      3616**DCL      3722>>DOWHILE  3754>>ASSIGN
OUT$BLK.SUBLK$
      3637**DCL      3723>>ASSIGN
P$
      3690**DCL      3735<<ASSIGN   3738<<ASSIGN   3739>>ASSIGN   3739>>ASSIGN   3741>>IF       3743>>CALL
P$B
      3650**DCL      3731<>CALL     3743<>CALL     3748<>CALL     3753<>CALL     3767<>CALL     3772<>CALL
      3776<>CALL     3777<>CALL
P$B.CODE
      3658**DCL      3729>>IF       3736>>IF       3739<<ASSIGN   3739>>ASSIGN   3757>>IF       3757>>IF
      3760>>IF       3760>>IF       3760>>IF       3760>>IF
P$B.NSUBLKS
      3662**DCL      3729>>IF       3741>>IF       3757>>IF       3760>>IF
P$B.SUBLK$
      3683**DCL      3738>>ASSIGN   3739>>ASSIGN   3743>>CALL     3760>>IF       3765>>ASSIGN   3766>>ASSIGN
