VERSION E05

PL6.E3A0      #001=CXX$DECBIN File=CXX$SUBR.:E05TSI                              TUE 07/29/97 12:29 Page:1
        1        1        /*T***********************************************************/
        2        2        /*T*                                                         */
        3        3        /*T* Copyright (c) Bull HN Information Systems Inc., 1997    */
        4        4        /*T*                                                         */
        5        5        /*T***********************************************************/
        6        6
        7        7        /*M*    CXX$SUBR        support subroutines for IBEX Shared Library.         */
        8        8        /*X*    AND,DMC,IPC,IND=3,CTI=6,ECU=3,DCI=3,DTI=3                             */
        9        9        /*P*    NAME: CXX$DECBIN
       10       10                PURPOSE: To convert strings of DECIMAL digits to binary with checks   */
       11       11        /******************************************************************************/
       12       12        CXX$DECBIN:
       13       13                PROC (TEXTC,VALUE) ALTRET;
       14       14          %INCLUDE B_MACROS_C;
       15      125        /**/
       16      126        %TEXTC (STCLASS=" ");
       17      131    1   DCL X$STRING CHAR (X$LEN) BASED;
       18      132    1   DCL X$LEN UBIN WORD AUTO;
       19      133    1   DCL VALUE UBIN WORD;
       20      134    1   DCL INDX1 UBIN WORD AUTO;
       21      135    1   DCL INDX2 UBIN WORD AUTO;
       22      136    1   DCL HI_VALUE CHAR(0) CONSTANT INIT ('34359738367');
       23      137        /*
       24      138             strip off any leading zeros
       25      139        */
       26      140    1           VALUE = 0;
       27      141    2           DO INDX1 =  0 TO TEXTC.SIZ - 1;
       28      142    2              IF SUBSTR(TEXTC.TEXT,INDX1,1) ~= '0'
       29      143    2              THEN
       30      144    2                 GOTO NON_ZERO;
       31      145    2           END;
       32      146    1           RETURN;
       33      147    1   NON_ZERO:
       34      148    1           X$LEN = TEXTC.SIZ - INDX1;
       35      149    1           IF X$LEN > LENGTHC(HI_VALUE)
       36      150    1                 OR (X$LEN = LENGTHC(HI_VALUE)
       37      151    1                 AND PINCRC(ADDR(TEXTC.TEXT),INDX1) -> X$STRING > HI_VALUE)
PL6.E3A0      #001=CXX$DECBIN File=CXX$SUBR.:E05TSI                              TUE 07/29/97 12:29 Page:2
       38      152    1           THEN   /* Value too large */
       39      153    1              ALTRETURN;
       40      154    1           ELSE
       41      155    1              CALL CHARBIN (VALUE,TEXTC.TEXT);
       42      156    1           RETURN;
       43      157    1   END CXX$DECBIN;
       44      158        %EOD;

PL6.E3A0      #001=CXX$DECBIN File=CXX$SUBR.:E05TSI                              TUE 07/29/97 12:29 Page:3
--  Include file information  --

   B_MACROS_C.:E05TOU  is referenced.
   B$JIT_C.:E05TOU  was found in the system file and is never referenced.
   CP_6_C.:E05TOU  was found in the system file and is never referenced.
      No diagnostics issued in procedure CXX$DECBIN.

   Procedure CXX$DECBIN requires 54 words for executable code.
   Procedure CXX$DECBIN requires 12 words of local(AUTO) storage.

PL6.E3A0      #001=CXX$DECBIN File=CXX$SUBR.:E05TSI                              TUE 07/29/97 12:29 Page:4

 Object Unit name= CXX$DECBIN                                 File name= CXX$SUBR.:E05TOU
 UTS= JUL 29 '97 12:29:49.76 TUE                              Compiler= PL-6/E31         Sev=      00
 SharedLib= :SHARED_SYSTEM                                    Alt SharedLib=


    ****  Control sections  ****

 Sect   Type Bound  Init  Size OctSiz  Section name(segment info)
    0  RoData even  UTS      3      3  CXX$DECBIN
    1   Proc  even  none    54     66  CXX$DECBIN
    2  RoData even  none     1      1  CXX$DECBIN

    ****  Entry defs  ****

                              Check   Calling
                             calling  sequence
  Sect OctLoc Primary Altret sequence   type   Parms  Name
     1      0   yes    yes     yes      Std        2  CXX$DECBIN

  ****  Entry refs  ****

         Check        Calling
        calling       sequence
Altret sequence SRef   type   Args  Name
                       nStd      0 X66_AUTO_2
                       nStd      0 X66_ARET
                       nStd      0 X66_AALT
PL6.E3A0      #001=CXX$DECBIN File=CXX$SUBR.:E05TSI                              TUE 07/29/97 12:29 Page:5


        1        1        /*T***********************************************************/
        2        2        /*T*                                                         */
        3        3        /*T* Copyright (c) Bull HN Information Systems Inc., 1997    */
        4        4        /*T*                                                         */
        5        5        /*T***********************************************************/
        6        6
        7        7        /*M*    CXX$SUBR        support subroutines for IBEX Shared Library.         */
        8        8        /*X*    AND,DMC,IPC,IND=3,CTI=6,ECU=3,DCI=3,DTI=3                             */
        9        9        /*P*    NAME: CXX$DECBIN
       10       10                PURPOSE: To convert strings of DECIMAL digits to binary with checks   */
       11       11        /******************************************************************************/
       12       12        CXX$DECBIN:
       13       13                PROC (TEXTC,VALUE) ALTRET;

     13  1 000000   000000 700200 xent  CXX$DECBIN   TSX0  ! X66_AUTO_2
         1 000001   000014 000002                    ZERO    12,2

       14       14          %INCLUDE B_MACROS_C;
       15      125        /**/
       16      126        %TEXTC (STCLASS=" ");
       17      131    1   DCL X$STRING CHAR (X$LEN) BASED;
       18      132    1   DCL X$LEN UBIN WORD AUTO;
       19      133    1   DCL VALUE UBIN WORD;
       20      134    1   DCL INDX1 UBIN WORD AUTO;
       21      135    1   DCL INDX2 UBIN WORD AUTO;
       22      136    1   DCL HI_VALUE CHAR(0) CONSTANT INIT ('34359738367');
       23      137        /*
       24      138             strip off any leading zeros
       25      139        */
       26      140    1           VALUE = 0;

    140  1 000002   200004 470500                    LDP0    @VALUE,,AUTO
         1 000003   000000 450100                    STZ     0,,PR0

       27      141    2           DO INDX1 =  0 TO TEXTC.SIZ - 1;

PL6.E3A0      #001=CXX$DECBIN File=CXX$SUBR.:E05TSI                              TUE 07/29/97 12:29 Page:6
    141  1 000004   200006 450100                    STZ     INDX1,,AUTO
         1 000005   000022 710000 1                  TRA     s:145+2

       28      142    2              IF SUBSTR(TEXTC.TEXT,INDX1,1) ~= '0'

    142  1 000006   200003 470500                    LDP0    @TEXTC,,AUTO
         1 000007   000100 101500                    MRL     fill='000'O
         1 000010   000000 000001                    ADSC9   0,,PR0                   cn=0,n=1
         1 000011   200010 000002                    ADSC9   INDX1+2,,AUTO            cn=0,n=2
         1 000012   200010 220100                    LDX0    INDX1+2,,AUTO
         1 000013   200006 235100                    LDA     INDX1,,AUTO
         1 000014   040000 106505                    CMPC    fill='040'O
         1 000015   000000 200001                    ADSC9   0,A,PR0                  cn=1,n=1
         1 000016   000000 000001 2                  ADSC9   0                        cn=0,n=1
         1 000017   000033 601000 1                  TNZ     NON_ZERO

       29      143    2              THEN
       30      144    2                 GOTO NON_ZERO;
       31      145    2           END;

    145  1 000020   000001 035007                    ADLA    1,DL
         1 000021   200006 755100                    STA     INDX1,,AUTO
         1 000022   200003 470500                    LDP0    @TEXTC,,AUTO
         1 000023   000100 101500                    MRL     fill='000'O
         1 000024   000000 000001                    ADSC9   0,,PR0                   cn=0,n=1
         1 000025   200010 000004                    ADSC9   INDX1+2,,AUTO            cn=0,n=4
         1 000026   200010 236100                    LDQ     INDX1+2,,AUTO
         1 000027   200006 116100                    CMPQ    INDX1,,AUTO
         1 000030   000032 600000 1                  TZE     s:146
         1 000031   000006 603000 1                  TRC     s:142

       32      146    1           RETURN;

    146  1 000032   000000 702200 xent               TSX2  ! X66_ARET

       33      147    1   NON_ZERO:
       34      148    1           X$LEN = TEXTC.SIZ - INDX1;
PL6.E3A0      #001=CXX$DECBIN File=CXX$SUBR.:E05TSI                              TUE 07/29/97 12:29 Page:7

    148  1 000033   000100 101500       NON_ZERO     MRL     fill='000'O
         1 000034   000000 000001                    ADSC9   0,,PR0                   cn=0,n=1
         1 000035   200010 000004                    ADSC9   INDX1+2,,AUTO            cn=0,n=4
         1 000036   200010 236100                    LDQ     INDX1+2,,AUTO
         1 000037   200006 136100                    SBLQ    INDX1,,AUTO
         1 000040   200005 756100                    STQ     X$LEN,,AUTO

       35      149    1           IF X$LEN > LENGTHC(HI_VALUE)

    149  1 000041   000014 116007                    CMPQ    12,DL
         1 000042   000052 603000 1                  TRC     s:153
         1 000043   000013 116007                    CMPQ    11,DL
         1 000044   000053 601000 1                  TNZ     s:155
         1 000045   000000 620006                    EAX0    0,QL
         1 000046   040145 106400                    CMPC    fill='040'O
         1 000047   000000 000013 0                  ADSC9   HI_VALUE                 cn=0,n=11
         1 000050   000000 200010                    ADSC9   0,A,PR0                  cn=1,n=*X0
         1 000051   000053 603000 1                  TRC     s:155

       36      150    1                 OR (X$LEN = LENGTHC(HI_VALUE)
       37      151    1                 AND PINCRC(ADDR(TEXTC.TEXT),INDX1) -> X$STRING > HI_VALUE)
       38      152    1           THEN   /* Value too large */
       39      153    1              ALTRETURN;

    153  1 000052   000000 702200 xent               TSX2  ! X66_AALT

       40      154    1           ELSE
       41      155    1              CALL CHARBIN (VALUE,TEXTC.TEXT);

    155  1 000053   000100 101500                    MRL     fill='000'O
         1 000054   000000 000001                    ADSC9   0,,PR0                   cn=0,n=1
         1 000055   200010 000002                    ADSC9   INDX1+2,,AUTO            cn=0,n=2
         1 000056   200010 220100                    LDX0    INDX1+2,,AUTO
         1 000057   000100 305540                    DTB
         1 000060   000000 230010                    NDSC9   0,,PR0                   cn=1,s=nosgn,sf=0,n=*X0
         1 000061   200012 000010                    NDSC9   INDX1+4,,AUTO            cn=0,s=lsgnf,sf=0,n=8
PL6.E3A0      #001=CXX$DECBIN File=CXX$SUBR.:E05TSI                              TUE 07/29/97 12:29 Page:8
         1 000062   200004 471500                    LDP1    @VALUE,,AUTO
         1 000063   200013 236100                    LDQ     INDX1+5,,AUTO
         1 000064   100000 756100                    STQ     0,,PR1

       42      156    1           RETURN;

    156  1 000065   000000 702200 xent               TSX2  ! X66_ARET
       43      157    1   END CXX$DECBIN;
       44      158        %EOD;

PL6.E3A0      #001=CXX$DECBIN File=CXX$SUBR.:E05TSI                              TUE 07/29/97 12:29 Page:9
--  Include file information  --

   B_MACROS_C.:E05TOU  is referenced.
   B$JIT_C.:E05TOU  was found in the system file and is never referenced.
   CP_6_C.:E05TOU  was found in the system file and is never referenced.
      No diagnostics issued in procedure CXX$DECBIN.
PL6.E3A0      #001=CXX$DECBIN File=CXX$SUBR.:E05TSI                              TUE 07/29/97 12:29 Page:10

 **** Variables and constants ****

  ****  Section 000 RoData CXX$DECBIN

  ****  Scalars and arrays  ****
OctLoc.c.b A Datatyp(siz) R M Lvl/name                 OctLoc.c.b A Datatyp(siz) R M Lvl/name

     0-0-0/c CHAR(11)    r     1 HI_VALUE

  ****  Auto variables  ****

  ****  Scalars and arrays  ****
OctLoc.c.b A Datatyp(siz) R M Lvl/name                 OctLoc.c.b A Datatyp(siz) R M Lvl/name

     3-0-0/w PTR         r     1 @TEXTC                     4-0-0/w PTR         r     1 @VALUE
     6-0-0/w UBIN        r     1 INDX1                     *0-0-0/c ASTR(9)     r     1 TEXTC
    *0-0-0/w UBIN        r     1 VALUE                      5-0-0/w UBIN        r     1 X$LEN

  ****  BASED and DCB variables  ****

  ****  Scalars and arrays  ****
OctLoc.c.b A Datatyp(siz) R M Lvl/name                 OctLoc.c.b A Datatyp(siz) R M Lvl/name

     0-0-0/c ACHR        r     1 X$STRING


   Procedure CXX$DECBIN requires 54 words for executable code.
   Procedure CXX$DECBIN requires 12 words of local(AUTO) storage.
PL6.E3A0      #001=CXX$DECBIN File=CXX$SUBR.:E05TSI                              TUE 07/29/97 12:29 Page:11
          *** CROSS REFERENCE LISTING ***
**     DENOTES     IDENTIFIER DEFINITION
<<                 IDENTIFIER'S VALUE SET
>>                 IDENTIFIER'S VALUE USED
<>                 IDENTIFIER SET AND/OR USED
--                 IDENTIFIER REFERENCED
PL6.E3A0      #001=CXX$DECBIN File=CXX$SUBR.:E05TSI                              TUE 07/29/97 12:29 Page:12
          MINI XREF LISTING

HI_VALUE
       136**DCL       149--IF        149--IF        149>>IF
INDX1
       134**DCL       141<<DOINDEX   142>>IF        148>>ASSIGN    149>>IF
NON_ZERO
       148**LABEL     144--GOTO
TEXTC
       127**DCL        12--PROC
TEXTC.SIZ
       128**DCL       129--IMP-SIZ   141>>DOINDEX   142>>IF        148>>ASSIGN    155>>CALLBLT
TEXTC.TEXT
       129**DCL       142>>IF        149--IF        155>>CALLBLT
VALUE
       133**DCL        12--PROC      140<<ASSIGN    155<<CALLBLT
X$LEN
       132**DCL       131--IMP-SIZ   148<<ASSIGN    149>>IF        149>>IF        149>>IF
X$STRING
       131**DCL       149>>IF

PL6.E3A0      #002=CXX$OCTBIN File=CXX$SUBR.:E05TSI                              TUE 07/29/97 12:29 Page:13
       45        1        /*T***********************************************************/
       46        2        /*T*                                                         */
       47        3        /*T* Copyright (c) Bull HN Information Systems Inc., 1997    */
       48        4        /*T*                                                         */
       49        5        /*T***********************************************************/
       50        6        /*P*    NAME: CXX$OCTBIN
       51        7                PURPOSE: To convert strings of OCTAL digits to binary with checks     */
       52        8        CXX$OCTBIN:
       53        9                PROC (TEXTC,VALUE) ALTRET;
       54       10          %INCLUDE B_MACROS_C;
       55      121        /**/
       56      122        %TEXTC (STCLASS=" ");
       57      127    1   DCL X$STRING CHAR (X$LEN) BASED;
       58      128    1   DCL X$LEN UBIN WORD AUTO;
       59      129    1   DCL B$STRING (0:0) CHAR(1) BASED;
       60      130    1   DCL VALUE UBIN WORD;
       61      131    1   DCL VALUE2 UBIN WORD AUTO;
       62      132    1   DCL INDX1 UBIN WORD AUTO;
       63      133    1   DCL INDX2 UBIN WORD AUTO;
       64      134    1   DCL HI_VALUE CHAR(0) CONSTANT INIT('777777777777');
       65      135        /*
       66      136             strip off any leading zeros
       67      137        */
       68      138    1           VALUE = 0;
       69      139    2           DO INDX1 =  0 TO TEXTC.SIZ - 1;
       70      140    2              IF SUBSTR(TEXTC.TEXT,INDX1,1) ~= '0'
       71      141    2              THEN
       72      142    2                 GOTO NON_ZERO;
       73      143    2           END;
       74      144    1           RETURN;
       75      145    1   NON_ZERO:
       76      146    1           X$LEN = TEXTC.SIZ - INDX1;
       77      147    1           IF PINCRC(ADDR(TEXTC.TEXT),INDX1) -> X$STRING > HI_VALUE
       78      148    1           THEN   /* Value too large */
       79      149    1              ALTRETURN;
       80      150    2           DO INDX2 = INDX1 TO TEXTC.SIZ - 1;
       81      151    2              VALUE2 = ASCBIN(ADDR(TEXTC.TEXT)->B$STRING(INDX2)) - ASCBIN('0');
PL6.E3A0      #002=CXX$OCTBIN File=CXX$SUBR.:E05TSI                              TUE 07/29/97 12:29 Page:14
       82      152    2              VALUE = VALUE * 8 + VALUE2;
       83      153    2           END;
       84      154    1           RETURN;
       85      155    1   END CXX$OCTBIN;

PL6.E3A0      #002=CXX$OCTBIN File=CXX$SUBR.:E05TSI                              TUE 07/29/97 12:29 Page:15
--  Include file information  --

   B_MACROS_C.:E05TOU  is referenced.
   B$JIT_C.:E05TOU  was found in the system file and is never referenced.
   CP_6_C.:E05TOU  was found in the system file and is never referenced.
      No diagnostics issued in procedure CXX$OCTBIN.

   Procedure CXX$OCTBIN requires 64 words for executable code.
   Procedure CXX$OCTBIN requires 12 words of local(AUTO) storage.

    No errors detected in file CXX$SUBR.:E05TSI    .

PL6.E3A0      #002=CXX$OCTBIN File=CXX$SUBR.:E05TSI                              TUE 07/29/97 12:29 Page:16

 Object Unit name= CXX$OCTBIN                                 File name= CXX$SUBR.:E05TOU
 UTS= JUL 29 '97 12:29:55.68 TUE                              Compiler= PL-6/E31         Sev=      00
 SharedLib= :SHARED_SYSTEM                                    Alt SharedLib=


    ****  Control sections  ****

 Sect   Type Bound  Init  Size OctSiz  Section name(segment info)
    0  RoData even  UTS      3      3  CXX$OCTBIN
    1   Proc  even  none    64    100  CXX$OCTBIN
    2  RoData even  none     1      1  CXX$OCTBIN

    ****  Entry defs  ****

                              Check   Calling
                             calling  sequence
  Sect OctLoc Primary Altret sequence   type   Parms  Name
     1      0   yes    yes     yes      Std        2  CXX$OCTBIN

  ****  Entry refs  ****

         Check        Calling
        calling       sequence
Altret sequence SRef   type   Args  Name
                       nStd      0 X66_AUTO_2
                       nStd      0 X66_ARET
                       nStd      0 X66_AALT
PL6.E3A0      #002=CXX$OCTBIN File=CXX$SUBR.:E05TSI                              TUE 07/29/97 12:29 Page:17


       45        1        /*T***********************************************************/
       46        2        /*T*                                                         */
       47        3        /*T* Copyright (c) Bull HN Information Systems Inc., 1997    */
       48        4        /*T*                                                         */
       49        5        /*T***********************************************************/
       50        6        /*P*    NAME: CXX$OCTBIN
       51        7                PURPOSE: To convert strings of OCTAL digits to binary with checks     */
       52        8        CXX$OCTBIN:
       53        9                PROC (TEXTC,VALUE) ALTRET;

      9  1 000000   000000 700200 xent  CXX$OCTBIN   TSX0  ! X66_AUTO_2
         1 000001   000014 000002                    ZERO    12,2

       54       10          %INCLUDE B_MACROS_C;
       55      121        /**/
       56      122        %TEXTC (STCLASS=" ");
       57      127    1   DCL X$STRING CHAR (X$LEN) BASED;
       58      128    1   DCL X$LEN UBIN WORD AUTO;
       59      129    1   DCL B$STRING (0:0) CHAR(1) BASED;
       60      130    1   DCL VALUE UBIN WORD;
       61      131    1   DCL VALUE2 UBIN WORD AUTO;
       62      132    1   DCL INDX1 UBIN WORD AUTO;
       63      133    1   DCL INDX2 UBIN WORD AUTO;
       64      134    1   DCL HI_VALUE CHAR(0) CONSTANT INIT('777777777777');
       65      135        /*
       66      136             strip off any leading zeros
       67      137        */
       68      138    1           VALUE = 0;

    138  1 000002   200004 470500                    LDP0    @VALUE,,AUTO
         1 000003   000000 450100                    STZ     0,,PR0

       69      139    2           DO INDX1 =  0 TO TEXTC.SIZ - 1;

    139  1 000004   200007 450100                    STZ     INDX1,,AUTO
         1 000005   000022 710000 1                  TRA     s:143+2
PL6.E3A0      #002=CXX$OCTBIN File=CXX$SUBR.:E05TSI                              TUE 07/29/97 12:29 Page:18

       70      140    2              IF SUBSTR(TEXTC.TEXT,INDX1,1) ~= '0'

    140  1 000006   200003 470500                    LDP0    @TEXTC,,AUTO
         1 000007   000100 101500                    MRL     fill='000'O
         1 000010   000000 000001                    ADSC9   0,,PR0                   cn=0,n=1
         1 000011   200012 000002                    ADSC9   INDX2+2,,AUTO            cn=0,n=2
         1 000012   200012 220100                    LDX0    INDX2+2,,AUTO
         1 000013   200007 235100                    LDA     INDX1,,AUTO
         1 000014   040000 106505                    CMPC    fill='040'O
         1 000015   000000 200001                    ADSC9   0,A,PR0                  cn=1,n=1
         1 000016   000000 000001 2                  ADSC9   0                        cn=0,n=1
         1 000017   000033 601000 1                  TNZ     NON_ZERO

       71      141    2              THEN
       72      142    2                 GOTO NON_ZERO;
       73      143    2           END;

    143  1 000020   000001 035007                    ADLA    1,DL
         1 000021   200007 755100                    STA     INDX1,,AUTO
         1 000022   200003 470500                    LDP0    @TEXTC,,AUTO
         1 000023   000100 101500                    MRL     fill='000'O
         1 000024   000000 000001                    ADSC9   0,,PR0                   cn=0,n=1
         1 000025   200012 000004                    ADSC9   INDX2+2,,AUTO            cn=0,n=4
         1 000026   200012 236100                    LDQ     INDX2+2,,AUTO
         1 000027   200007 116100                    CMPQ    INDX1,,AUTO
         1 000030   000032 600000 1                  TZE     s:144
         1 000031   000006 603000 1                  TRC     s:140

       74      144    1           RETURN;

    144  1 000032   000000 702200 xent               TSX2  ! X66_ARET

       75      145    1   NON_ZERO:
       76      146    1           X$LEN = TEXTC.SIZ - INDX1;

    146  1 000033   000100 101500       NON_ZERO     MRL     fill='000'O
PL6.E3A0      #002=CXX$OCTBIN File=CXX$SUBR.:E05TSI                              TUE 07/29/97 12:29 Page:19
         1 000034   000000 000001                    ADSC9   0,,PR0                   cn=0,n=1
         1 000035   200012 000004                    ADSC9   INDX2+2,,AUTO            cn=0,n=4
         1 000036   200012 236100                    LDQ     INDX2+2,,AUTO
         1 000037   200007 136100                    SBLQ    INDX1,,AUTO
         1 000040   200005 756100                    STQ     X$LEN,,AUTO

       77      147    1           IF PINCRC(ADDR(TEXTC.TEXT),INDX1) -> X$STRING > HI_VALUE

    147  1 000041   000000 620006                    EAX0    0,QL
         1 000042   040145 106400                    CMPC    fill='040'O
         1 000043   000000 000014 0                  ADSC9   HI_VALUE                 cn=0,n=12
         1 000044   000000 200010                    ADSC9   0,A,PR0                  cn=1,n=*X0
         1 000045   000047 603000 1                  TRC     s:150

       78      148    1           THEN   /* Value too large */
       79      149    1              ALTRETURN;

    149  1 000046   000000 702200 xent               TSX2  ! X66_AALT

       80      150    2           DO INDX2 = INDX1 TO TEXTC.SIZ - 1;

    150  1 000047   200010 755100                    STA     INDX2,,AUTO
         1 000050   000070 710000 1                  TRA     s:153+2

       81      151    2              VALUE2 = ASCBIN(ADDR(TEXTC.TEXT)->B$STRING(INDX2)) - ASCBIN('0');

    151  1 000051   200003 470500                    LDP0    @TEXTC,,AUTO
         1 000052   200010 235100                    LDA     INDX2,,AUTO
         1 000053   000100 101505                    MRL     fill='000'O
         1 000054   000000 200001                    ADSC9   0,A,PR0                  cn=1,n=1
         1 000055   200012 000004                    ADSC9   INDX2+2,,AUTO            cn=0,n=4
         1 000056   200012 236100                    LDQ     INDX2+2,,AUTO
         1 000057   000060 136007                    SBLQ    48,DL
         1 000060   200006 756100                    STQ     VALUE2,,AUTO

       82      152    2              VALUE = VALUE * 8 + VALUE2;

PL6.E3A0      #002=CXX$OCTBIN File=CXX$SUBR.:E05TSI                              TUE 07/29/97 12:29 Page:20
    152  1 000061   200004 471500                    LDP1    @VALUE,,AUTO
         1 000062   100000 236100                    LDQ     0,,PR1
         1 000063   000003 736000                    QLS     3
         1 000064   200006 036100                    ADLQ    VALUE2,,AUTO
         1 000065   100000 756100                    STQ     0,,PR1

       83      153    2           END;

    153  1 000066   000001 035007                    ADLA    1,DL
         1 000067   200010 755100                    STA     INDX2,,AUTO
         1 000070   000100 101500                    MRL     fill='000'O
         1 000071   000000 000001                    ADSC9   0,,PR0                   cn=0,n=1
         1 000072   200012 000004                    ADSC9   INDX2+2,,AUTO            cn=0,n=4
         1 000073   200012 236100                    LDQ     INDX2+2,,AUTO
         1 000074   200010 116100                    CMPQ    INDX2,,AUTO
         1 000075   000077 600000 1                  TZE     s:154
         1 000076   000051 603000 1                  TRC     s:151

       84      154    1           RETURN;

    154  1 000077   000000 702200 xent               TSX2  ! X66_ARET
       85      155    1   END CXX$OCTBIN;

PL6.E3A0      #002=CXX$OCTBIN File=CXX$SUBR.:E05TSI                              TUE 07/29/97 12:29 Page:21
--  Include file information  --

   B_MACROS_C.:E05TOU  is referenced.
   B$JIT_C.:E05TOU  was found in the system file and is never referenced.
   CP_6_C.:E05TOU  was found in the system file and is never referenced.
      No diagnostics issued in procedure CXX$OCTBIN.
PL6.E3A0      #002=CXX$OCTBIN File=CXX$SUBR.:E05TSI                              TUE 07/29/97 12:29 Page:22

 **** Variables and constants ****

  ****  Section 000 RoData CXX$OCTBIN

  ****  Scalars and arrays  ****
OctLoc.c.b A Datatyp(siz) R M Lvl/name                 OctLoc.c.b A Datatyp(siz) R M Lvl/name

     0-0-0/c CHAR(12)    r     1 HI_VALUE

  ****  Auto variables  ****

  ****  Scalars and arrays  ****
OctLoc.c.b A Datatyp(siz) R M Lvl/name                 OctLoc.c.b A Datatyp(siz) R M Lvl/name

     3-0-0/w PTR         r     1 @TEXTC                     4-0-0/w PTR         r     1 @VALUE
     7-0-0/w UBIN        r     1 INDX1                     10-0-0/w UBIN        r     1 INDX2
    *0-0-0/c ASTR(9)     r     1 TEXTC                     *0-0-0/w UBIN        r     1 VALUE
     6-0-0/w UBIN        r     1 VALUE2                     5-0-0/w UBIN        r     1 X$LEN

  ****  BASED and DCB variables  ****

  ****  Scalars and arrays  ****
OctLoc.c.b A Datatyp(siz) R M Lvl/name                 OctLoc.c.b A Datatyp(siz) R M Lvl/name

     0-0-0/c CHAR        r     1 B$STRING(0:0)
     0-0-0/c ACHR        r     1 X$STRING


   Procedure CXX$OCTBIN requires 64 words for executable code.
   Procedure CXX$OCTBIN requires 12 words of local(AUTO) storage.

    No errors detected in file CXX$SUBR.:E05TSI    .
PL6.E3A0      #002=CXX$OCTBIN File=CXX$SUBR.:E05TSI                              TUE 07/29/97 12:29 Page:23
          *** CROSS REFERENCE LISTING ***
**     DENOTES     IDENTIFIER DEFINITION
<<                 IDENTIFIER'S VALUE SET
>>                 IDENTIFIER'S VALUE USED
<>                 IDENTIFIER SET AND/OR USED
--                 IDENTIFIER REFERENCED
PL6.E3A0      #002=CXX$OCTBIN File=CXX$SUBR.:E05TSI                              TUE 07/29/97 12:29 Page:24
          MINI XREF LISTING

B$STRING
       129**DCL       151>>ASSIGN
HI_VALUE
       134**DCL       147>>IF
INDX1
       132**DCL       139<<DOINDEX   140>>IF        146>>ASSIGN    147>>IF        150>>DOINDEX
INDX2
       133**DCL       150<<DOINDEX   151>>ASSIGN
NON_ZERO
       146**LABEL     142--GOTO
TEXTC
       123**DCL         8--PROC
TEXTC.SIZ
       124**DCL       125--IMP-SIZ   139>>DOINDEX   140>>IF        146>>ASSIGN    150>>DOINDEX
TEXTC.TEXT
       125**DCL       140>>IF        147--IF        151--ASSIGN
VALUE
       130**DCL         8--PROC      138<<ASSIGN    152<<ASSIGN    152>>ASSIGN
VALUE2
       131**DCL       151<<ASSIGN    152>>ASSIGN
X$LEN
       128**DCL       127--IMP-SIZ   146<<ASSIGN    147>>IF
X$STRING
       127**DCL       147>>IF
