VERSION E05

PL6.E3A0      #001=CX_DATA_D File=CX_DATA_D.:E05TSI                              TUE 07/29/97 12:30 Page:1
        1        1        /*M*   CX_DATA_D  Module containing constant data
        2        2        */
        3        3        /*T***********************************************************/
        4        4        /*T*                                                         */
        5        5        /*T* Copyright (c) Bull HN Information Systems Inc., 1997    */
        6        6        /*T*                                                         */
        7        7        /*T***********************************************************/
        8        8        /*X*  DMC,DFC   */
        9        9        /*P*   NAME:   CX_DATA_D
       10       10               PURPOSE:  To provide a common module containing constant data
       11       11                       referenced by the various modules in CPSL.
       12       12               DESCRIPTION: CX_DATA_D consists of the following types of data:
       13       13                       1. SYMDEFS
       14       14                       2. Skeletal FPTS
       15       15        */
       16       16        /***********************************************************************/
       17       17        CX_DATA_D: PROC;
       18       18                                                         /*INCLUDE FILES*/
       19       19                   %INCLUDE CP_6;
       20      100                   %INCLUDE CP_6_SUBS;
       21      640                   %INCLUDE B_SEGIDS_C;
       22     1179
       23     1180          /***** Fpts *****/
       24     1181        %FPT_OPEN(FPTN=CPSL_CFPT_OPEN,SCRUB=YES,STCLASS="CONSTANT SYMDEF");
       25     1290        %FPT_OPEN(FPTN=CPSL_CAMR_REC,STCLASS="CONSTANT SYMDEF",PFMT=PTR,VECTOR=ADDR);
       26     1399        %FPT_CLOSE(FPTN=CPSL_CFPT_CLOSE,STCLASS="CONSTANT SYMDEF");
       27     1441        %FPT_READ(FPTN=CPSL_CFPT_READ,STCLASS="CONSTANT SYMDEF");
       28     1480        %FPT_WRITE(FPTN=CPSL_CFPT_WRITE,STCLASS="CONSTANT SYMDEF");
       29     1511        %FPT_DELREC(FPTN=CPSL_CFPT_DELREC,STCLASS="CONSTANT SYMDEF");
       30     1530        %FPT_GETDCB(FPTN=CPSL_CFPT_GETDCB,STCLASS="CONSTANT SYMDEF");
       31     1545        %FPT_RELDCB(FPTN=CPSL_CFPT_RELDCB,STCLASS="CONSTANT SYMDEF");
       32     1559        %FPT_GDS(FPTN=CPSL_CFPT_GDS,STCLASS="CONSTANT SYMDEF");
       33     1575        %FPT_FDS(FPTN=CPSL_CFPT_FDS,STCLASS="CONSTANT SYMDEF");
       34     1590        %FPT_FID(FPTN=CPSL_CFPT_FID,STCLASS="CONSTANT SYMDEF");
       35     1613        %FPT_JOBSTATS(FPTN=CPSL_CFPT_JOBSTATS,STCLASS="CONSTANT SYMDEF");
       36     1633        %FPT_LDEV(FPTN=CPSL_CFPT_LDEV,STCLASS="CONSTANT SYMDEF");
       37     1658        %FPT_ERRMSG(FPTN=CPSL_CFPT_ERRMSG,SUBMESS=YES,INCLCODE=NO,STCLASS="CONSTANT SYMDEF")
PL6.E3A0      #001=CX_DATA_D File=CX_DATA_D.:E05TSI                              TUE 07/29/97 12:30 Page:2
              1658            ;
       38     1685        %FPT_CPEXIT(FPTN=CPSL_CFPT_CPEXIT,STCLASS="CONSTANT SYMDEF");
       39     1711        %FPT_SCREECH (FPTN=CPSL_CFPT_SCREECH,STCLASS="CONSTANT SYMDEF");
       40     1725        %FPT_TRMCTL(FPTN=CPSL_CFPT_TRMCTL,STCLASS="CONSTANT SYMDEF");
       41     1752        %FPT_TRMATTR(FPTN=CPSL_CFPT_TRMATTR,STCLASS="CONSTANT SYMDEF");
       42     1777        %VLP_NAME(FPTN=CPSL_DRIBBLEDCB,NAME='M$DR',LEN=4,STCLASS="CONSTANT SYMDEF");
       43     1804        %VLP_HDR (FPTN=CPSL_CVLP_HDR,LEN=3,STCLASS="CONSTANT SYMDEF");
       44     1820        %VLP_SETSTA(FPTN=CPSL_CVLP_SETSTA,STCLASS="CONSTANT SYMDEF");
       45     1848        %VLP_TAB(FPTN=CPSL_CVLP_TAB,STCLASS="CONSTANT SYMDEF");
       46     1862        %VLP_TRMCTL(FPTN=CPSL_CVLP_TRMCTL,STCLASS="CONSTANT SYMDEF");
       47     1902        %VLP_TRMATTR(FPTN=CPSL_CVLP_TRMATTR,STCLASS="CONSTANT SYMDEF");
       48     1940        %VLP_EDTCTL(FPTN=CPSL_CVLP_EDTCTL,STCLASS="CONSTANT SYMDEF");
       49     1968        %VLP_WINDOW(FPTN=CPSL_CVLP_WINDOW,STCLASS="CONSTANT SYMDEF");
       50     2012        %VLP_FPRG(FPTN=CPSL_CVLP_FPRG,STCLASS="CONSTANT SYMDEF");
       51     2033        %VLP_VIRTUAL(FPTN=CPSL_CVLP_VIRTUAL,STCLASS="CONSTANT SYMDEF");
       52     2053        %VLP_ALTKEYS(FPTN=CPSL_CVLP_ALTKEYS,STCLASS="CONSTANT SYMDEF") ;
       53     2068          /***** Other constants *****/
       54     2069                                                         /*SYMDEFS*/
       55     2070    1   DCL 1 CPSL_SEG3$ CONSTANT SYMDEF,          /*CANNED POINTER TO SEG3*/
       56     2071    1         2 OFFSET UBIN(24) INIT(0) UNAL,
       57     2072    1         2 SID BIT(12) INIT(%DS3SID) UNAL;
       58     2073                                                         /**/
       59     2074    1   DCL M$DO DCB;
       60     2075    1   DCL    CPSL_M$UC_NUM    UBIN WORD  INIT(%M$UC#) CONSTANT SYMDEF;
       61     2076    1   DCL    CPSL_M$DO_NUM    UBIN WORD  INIT(%M$DO#) CONSTANT SYMDEF;
       62     2077    1   DCL 1 CPSL_SOURCEDCB DALIGNED CONSTANT SYMDEF,
       63     2078    1         2 CNT UBIN(9) INIT(2) UNAL,
       64     2079    1         2 TXT CHAR(2) INIT('#1');
       65     2080    1   DCL 1 CPSL_UPDATEDCB DALIGNED CONSTANT SYMDEF,
       66     2081    1         2 CNT UBIN(9) INIT(2) UNAL,
       67     2082    1         2 TXT CHAR(2) INIT('#2');
       68     2083    1   DCL 1 CPSL_OBJECTDCB DALIGNED CONSTANT SYMDEF,
       69     2084    1         2 CNT UBIN(9) INIT(2) UNAL,
       70     2085    1         2 TXT CHAR(2) INIT('#3');
       71     2086    1   DCL 1 CPSL_LISTDCB DALIGNED CONSTANT SYMDEF,
       72     2087    1         2 CNT UBIN(9) INIT(2) UNAL,
       73     2088    1         2 TXT CHAR(2) INIT('#4');
PL6.E3A0      #001=CX_DATA_D File=CX_DATA_D.:E05TSI                              TUE 07/29/97 12:30 Page:3
       74     2089    1   DCL 1 CPSL_M$LL DALIGNED CONSTANT SYMDEF,
       75     2090    1         2 CNT UBIN(9) INIT(4) UNAL,
       76     2091    1         2 TXT CHAR(4) INIT('M$LL');
       77     2092    1   DCL 1 CPSL_STARA CONSTANT SYMDEF,
       78     2093    1         2 L UBIN(9) INIT(2) UNAL,
       79     2094    1         2 N CHAR(2) INIT('*A') UNAL;
       80     2095    1   DCL 1 CPSL_STARS CONSTANT SYMDEF,
       81     2096    1         2 L UBIN(9) INIT(2) UNAL,
       82     2097    1         2 N CHAR(2) INIT('*S') UNAL;
       83     2098    1   DCL 1 CPSL_FDCB ALIGNED CONSTANT SYMDEF,     /*FIRST POSSIBLE DCB*/
       84     2099    1         2 L UBIN(9) INIT(1) UNAL,
       85     2100    1         2 N BIT(9) INIT('040'O);
       86     2101    1   DCL 1 CPSL_LDCB ALIGNED CONSTANT SYMDEF,     /*LAST POSSIBLE DCB*/
       87     2102    1         2 L UBIN(9) INIT(1) UNAL,
       88     2103    1         2 N BIT(9) INIT('177'O);
       89     2104    1   END   CX_DATA_D ;

PL6.E3A0      #001=CX_DATA_D File=CX_DATA_D.:E05TSI                              TUE 07/29/97 12:30 Page:4
--  Include file information  --

   B_SEGIDS_C.:E05TOU  is referenced.
   CP_6_SUBS.:E05TOU  is referenced.
   CP_6.:E05TOU  cannot be made into a system file and is referenced.
   B$JIT_C.:E05TOU  was found in the system file and is never referenced.
   CP_6_C.:E05TOU  was found in the system file and is referenced.
      No diagnostics issued in procedure CX_DATA_D.

   No code generated for procedure CX_DATA_D .
   Procedure CX_DATA_D requires 4 words of local(AUTO) storage.

    No errors detected in file CX_DATA_D.:E05TSI    .

PL6.E3A0      #001=CX_DATA_D File=CX_DATA_D.:E05TSI                              TUE 07/29/97 12:30 Page:5

 Object Unit name= CX_DATA_D                                  File name= CX_DATA_D.:E05TOU
 UTS= JUL 29 '97 12:30:28.20 TUE                              Compiler= PL-6/E31         Sev=      00
 SharedLib= :SHARED_SYSTEM                                    Alt SharedLib=


    ****  Control sections  ****

 Sect   Type Bound  Init  Size OctSiz  Section name(segment info)
    0   DCB   even  none     0      0  M$UC
    1  RoData even  UTS    430    656  CX_DATA_D
    2   DCB   even  none     0      0  M$DO
    3   Proc  even  none     0      0  CX_DATA_D

    ****  Entry defs  ****

                              Check   Calling
                             calling  sequence
  Sect OctLoc Primary Altret sequence   type   Parms  Name
     3      0   yes            yes     ~proc       0  CX_DATA_D
PL6.E3A0      #001=CX_DATA_D File=CX_DATA_D.:E05TSI                              TUE 07/29/97 12:30 Page:6

  ****  Data defs  ****

 Sect OctLoc  Name                           Sect OctLoc  Name
    1      0  CPSL_CFPT_OPEN                     1     72  CPSL_CAMR_REC
    1    142  CPSL_CFPT_CLOSE                    1    200  CPSL_CFPT_READ
    1    216  CPSL_CFPT_WRITE                    1    232  CPSL_CFPT_DELREC
    1    244  CPSL_CFPT_GETDCB                   1    254  CPSL_CFPT_RELDCB
    1    260  CPSL_CFPT_GDS                      1    266  CPSL_CFPT_FDS
    1    274  CPSL_CFPT_FID                      1    324  CPSL_CFPT_JOBSTATS
    1    370  CPSL_CFPT_LDEV                     1    414  CPSL_CFPT_ERRMSG
    1    446  CPSL_CFPT_CPEXIT                   1    464  CPSL_CFPT_SCREECH
    1    472  CPSL_CFPT_TRMCTL                   1    502  CPSL_CFPT_TRMATTR
    1    512  CPSL_DRIBBLEDCB                    1    514  CPSL_CVLP_HDR
    1    516  CPSL_CVLP_SETSTA                   1    532  CPSL_CVLP_TAB
    1    542  CPSL_CVLP_TRMCTL                   1    546  CPSL_CVLP_TRMATTR
    1    560  CPSL_CVLP_EDTCTL                   1    564  CPSL_CVLP_WINDOW
    1    574  CPSL_CVLP_FPRG                     1    616  CPSL_CVLP_VIRTUAL
    1    632  CPSL_CVLP_ALTKEYS                  1    634  CPSL_SEG3$
    1    635  CPSL_M$UC_NUM                      1    636  CPSL_M$DO_NUM
    1    640  CPSL_SOURCEDCB                     1    642  CPSL_UPDATEDCB
    1    644  CPSL_OBJECTDCB                     1    646  CPSL_LISTDCB
    1    650  CPSL_M$LL                          1    652  CPSL_STARA
    1    653  CPSL_STARS                         1    654  CPSL_FDCB
    1    655  CPSL_LDCB

  ****  Data refs  ****

  Flags:  r = read only, s = secondary
Flgs Name                             Flgs Name                             Flgs Name
     M$UC                                  M$DO

  ****  Segment refs  ****

  Flags:  r = read only, s = secondary
Flgs Name                             Flgs Name                             Flgs Name
     ISSID                                 NULLSID
PL6.E3A0      #001=CX_DATA_D File=CX_DATA_D.:E05TSI                              TUE 07/29/97 12:30 Page:7

        1        1        /*M*   CX_DATA_D  Module containing constant data
        2        2        */
        3        3        /*T***********************************************************/
        4        4        /*T*                                                         */
        5        5        /*T* Copyright (c) Bull HN Information Systems Inc., 1997    */
        6        6        /*T*                                                         */
        7        7        /*T***********************************************************/
        8        8        /*X*  DMC,DFC   */
        9        9        /*P*   NAME:   CX_DATA_D
       10       10               PURPOSE:  To provide a common module containing constant data
       11       11                       referenced by the various modules in CPSL.
       12       12               DESCRIPTION: CX_DATA_D consists of the following types of data:
       13       13                       1. SYMDEFS
       14       14                       2. Skeletal FPTS
       15       15        */
       16       16        /***********************************************************************/
       17       17        CX_DATA_D: PROC;
       18       18                                                         /*INCLUDE FILES*/
       19       19                   %INCLUDE CP_6;
       20      100                   %INCLUDE CP_6_SUBS;
       21      640                   %INCLUDE B_SEGIDS_C;
       22     1179
       23     1180          /***** Fpts *****/
       24     1181        %FPT_OPEN(FPTN=CPSL_CFPT_OPEN,SCRUB=YES,STCLASS="CONSTANT SYMDEF");
       25     1290        %FPT_OPEN(FPTN=CPSL_CAMR_REC,STCLASS="CONSTANT SYMDEF",PFMT=PTR,VECTOR=ADDR);
       26     1399        %FPT_CLOSE(FPTN=CPSL_CFPT_CLOSE,STCLASS="CONSTANT SYMDEF");
       27     1441        %FPT_READ(FPTN=CPSL_CFPT_READ,STCLASS="CONSTANT SYMDEF");
       28     1480        %FPT_WRITE(FPTN=CPSL_CFPT_WRITE,STCLASS="CONSTANT SYMDEF");
       29     1511        %FPT_DELREC(FPTN=CPSL_CFPT_DELREC,STCLASS="CONSTANT SYMDEF");
       30     1530        %FPT_GETDCB(FPTN=CPSL_CFPT_GETDCB,STCLASS="CONSTANT SYMDEF");
       31     1545        %FPT_RELDCB(FPTN=CPSL_CFPT_RELDCB,STCLASS="CONSTANT SYMDEF");
       32     1559        %FPT_GDS(FPTN=CPSL_CFPT_GDS,STCLASS="CONSTANT SYMDEF");
       33     1575        %FPT_FDS(FPTN=CPSL_CFPT_FDS,STCLASS="CONSTANT SYMDEF");
       34     1590        %FPT_FID(FPTN=CPSL_CFPT_FID,STCLASS="CONSTANT SYMDEF");
       35     1613        %FPT_JOBSTATS(FPTN=CPSL_CFPT_JOBSTATS,STCLASS="CONSTANT SYMDEF");
       36     1633        %FPT_LDEV(FPTN=CPSL_CFPT_LDEV,STCLASS="CONSTANT SYMDEF");
       37     1658       %FPT_ERRMSG(FPTN=CPSL_CFPT_ERRMSG,SUBMESS=YES,INCLCODE=NO,STCLASS="CONSTANT SYMDEF")
PL6.E3A0      #001=CX_DATA_D File=CX_DATA_D.:E05TSI                              TUE 07/29/97 12:30 Page:8
              1658            ;
       38     1685        %FPT_CPEXIT(FPTN=CPSL_CFPT_CPEXIT,STCLASS="CONSTANT SYMDEF");
       39     1711        %FPT_SCREECH (FPTN=CPSL_CFPT_SCREECH,STCLASS="CONSTANT SYMDEF");
       40     1725        %FPT_TRMCTL(FPTN=CPSL_CFPT_TRMCTL,STCLASS="CONSTANT SYMDEF");
       41     1752        %FPT_TRMATTR(FPTN=CPSL_CFPT_TRMATTR,STCLASS="CONSTANT SYMDEF");
       42     1777        %VLP_NAME(FPTN=CPSL_DRIBBLEDCB,NAME='M$DR',LEN=4,STCLASS="CONSTANT SYMDEF");
       43     1804        %VLP_HDR (FPTN=CPSL_CVLP_HDR,LEN=3,STCLASS="CONSTANT SYMDEF");
       44     1820        %VLP_SETSTA(FPTN=CPSL_CVLP_SETSTA,STCLASS="CONSTANT SYMDEF");
       45     1848        %VLP_TAB(FPTN=CPSL_CVLP_TAB,STCLASS="CONSTANT SYMDEF");
       46     1862        %VLP_TRMCTL(FPTN=CPSL_CVLP_TRMCTL,STCLASS="CONSTANT SYMDEF");
       47     1902        %VLP_TRMATTR(FPTN=CPSL_CVLP_TRMATTR,STCLASS="CONSTANT SYMDEF");
       48     1940        %VLP_EDTCTL(FPTN=CPSL_CVLP_EDTCTL,STCLASS="CONSTANT SYMDEF");
       49     1968        %VLP_WINDOW(FPTN=CPSL_CVLP_WINDOW,STCLASS="CONSTANT SYMDEF");
       50     2012        %VLP_FPRG(FPTN=CPSL_CVLP_FPRG,STCLASS="CONSTANT SYMDEF");
       51     2033        %VLP_VIRTUAL(FPTN=CPSL_CVLP_VIRTUAL,STCLASS="CONSTANT SYMDEF");
       52     2053        %VLP_ALTKEYS(FPTN=CPSL_CVLP_ALTKEYS,STCLASS="CONSTANT SYMDEF") ;
       53     2068          /***** Other constants *****/
       54     2069                                                         /*SYMDEFS*/
       55     2070    1   DCL 1 CPSL_SEG3$ CONSTANT SYMDEF,          /*CANNED POINTER TO SEG3*/
       56     2071    1         2 OFFSET UBIN(24) INIT(0) UNAL,
       57     2072    1         2 SID BIT(12) INIT(%DS3SID) UNAL;
       58     2073                                                         /**/
       59     2074    1   DCL M$DO DCB;
       60     2075    1   DCL    CPSL_M$UC_NUM    UBIN WORD  INIT(%M$UC#) CONSTANT SYMDEF;
       61     2076    1   DCL    CPSL_M$DO_NUM    UBIN WORD  INIT(%M$DO#) CONSTANT SYMDEF;
       62     2077    1   DCL 1 CPSL_SOURCEDCB DALIGNED CONSTANT SYMDEF,
       63     2078    1         2 CNT UBIN(9) INIT(2) UNAL,
       64     2079    1         2 TXT CHAR(2) INIT('#1');
       65     2080    1   DCL 1 CPSL_UPDATEDCB DALIGNED CONSTANT SYMDEF,
       66     2081    1         2 CNT UBIN(9) INIT(2) UNAL,
       67     2082    1         2 TXT CHAR(2) INIT('#2');
       68     2083    1   DCL 1 CPSL_OBJECTDCB DALIGNED CONSTANT SYMDEF,
       69     2084    1         2 CNT UBIN(9) INIT(2) UNAL,
       70     2085    1         2 TXT CHAR(2) INIT('#3');
       71     2086    1   DCL 1 CPSL_LISTDCB DALIGNED CONSTANT SYMDEF,
       72     2087    1         2 CNT UBIN(9) INIT(2) UNAL,
       73     2088    1         2 TXT CHAR(2) INIT('#4');
PL6.E3A0      #001=CX_DATA_D File=CX_DATA_D.:E05TSI                              TUE 07/29/97 12:30 Page:9
       74     2089    1   DCL 1 CPSL_M$LL DALIGNED CONSTANT SYMDEF,
       75     2090    1         2 CNT UBIN(9) INIT(4) UNAL,
       76     2091    1         2 TXT CHAR(4) INIT('M$LL');
       77     2092    1   DCL 1 CPSL_STARA CONSTANT SYMDEF,
       78     2093    1         2 L UBIN(9) INIT(2) UNAL,
       79     2094    1         2 N CHAR(2) INIT('*A') UNAL;
       80     2095    1   DCL 1 CPSL_STARS CONSTANT SYMDEF,
       81     2096    1         2 L UBIN(9) INIT(2) UNAL,
       82     2097    1         2 N CHAR(2) INIT('*S') UNAL;
       83     2098    1   DCL 1 CPSL_FDCB ALIGNED CONSTANT SYMDEF,     /*FIRST POSSIBLE DCB*/
       84     2099    1         2 L UBIN(9) INIT(1) UNAL,
       85     2100    1         2 N BIT(9) INIT('040'O);
       86     2101    1   DCL 1 CPSL_LDCB ALIGNED CONSTANT SYMDEF,     /*LAST POSSIBLE DCB*/
       87     2102    1         2 L UBIN(9) INIT(1) UNAL,
       88     2103    1         2 N BIT(9) INIT('177'O);
       89     2104    1   END   CX_DATA_D ;

PL6.E3A0      #001=CX_DATA_D File=CX_DATA_D.:E05TSI                              TUE 07/29/97 12:30 Page:10
--  Include file information  --

   B_SEGIDS_C.:E05TOU  is referenced.
   CP_6_SUBS.:E05TOU  is referenced.
   CP_6.:E05TOU  cannot be made into a system file and is referenced.
   B$JIT_C.:E05TOU  was found in the system file and is never referenced.
   CP_6_C.:E05TOU  was found in the system file and is referenced.
      No diagnostics issued in procedure CX_DATA_D.
PL6.E3A0      #001=CX_DATA_D File=CX_DATA_D.:E05TSI                              TUE 07/29/97 12:30 Page:11

 **** Variables and constants ****

  ****  Section 001 RoData CX_DATA_D

  ****  Scalars and arrays  ****
OctLoc.c.b A Datatyp(siz) R M Lvl/name                 OctLoc.c.b A Datatyp(siz) R M Lvl/name

    72-0-0/d STRC(1440)  r     1 CPSL_CAMR_REC            142-0-0/d STRC(1080)  r     1 CPSL_CFPT_CLOSE
   446-0-0/d STRC(504)   r     1 CPSL_CFPT_CPEXIT         232-0-0/d STRC(360)   r     1 CPSL_CFPT_DELREC
   414-0-0/d STRC(936)   r     1 CPSL_CFPT_ERRMSG         266-0-0/d STRC(216)   r     1 CPSL_CFPT_FDS
   274-0-0/d STRC(864)   r     1 CPSL_CFPT_FID            260-0-0/d STRC(216)   r     1 CPSL_CFPT_GDS
   244-0-0/d STRC(288)   r     1 CPSL_CFPT_GETDCB         324-0-0/d STRC(1296)  r     1 CPSL_CFPT_JOBSTATS
   370-0-0/d STRC(720)   r     1 CPSL_CFPT_LDEV             0-0-0/d STRC(2088)  r     1 CPSL_CFPT_OPEN
   200-0-0/d STRC(504)   r     1 CPSL_CFPT_READ           254-0-0/d STRC(144)   r     1 CPSL_CFPT_RELDCB
   502-0-0/d STRC(288)   r     1 CPSL_CFPT_TRMATTR        472-0-0/d STRC(288)   r     1 CPSL_CFPT_TRMCTL
   216-0-0/d STRC(432)   r     1 CPSL_CFPT_WRITE

  ****  BASED and DCB variables  ****

  ****  Scalars and arrays  ****
OctLoc.c.b A Datatyp(siz) R M Lvl/name                 OctLoc.c.b A Datatyp(siz) R M Lvl/name

     0-0-0N  NULL        r     1 M$UC


   No code generated for procedure CX_DATA_D .
   Procedure CX_DATA_D requires 4 words of local(AUTO) storage.

    No errors detected in file CX_DATA_D.:E05TSI    .
PL6.E3A0      #001=CX_DATA_D File=CX_DATA_D.:E05TSI                              TUE 07/29/97 12:30 Page:12
          *** CROSS REFERENCE LISTING ***
**     DENOTES     IDENTIFIER DEFINITION
<<                 IDENTIFIER'S VALUE SET
>>                 IDENTIFIER'S VALUE USED
<>                 IDENTIFIER SET AND/OR USED
--                 IDENTIFIER REFERENCED
PL6.E3A0      #001=CX_DATA_D File=CX_DATA_D.:E05TSI                              TUE 07/29/97 12:30 Page:13
          MINI XREF LISTING

CPSL_CAMR_REC.ACSVEH_
      1357**DCL      1358--REDEF
CPSL_CAMR_REC.ALTKEYS_
      1363**DCL      1364--REDEF    1364--REDEF
CPSL_CAMR_REC.HDR_
      1362**DCL      1363--REDEF
CPSL_CAMR_REC.TAB_
      1361**DCL      1362--REDEF
CPSL_CAMR_REC.UHL_
      1355**DCL      1356--REDEF    1356--REDEF
CPSL_CAMR_REC.V
      1364**DCL      1355--DCLINIT
CPSL_CAMR_REC.V.FSN#
      1395**DCL      1395--REDEF    1395--REDEF
CPSL_CAMR_REC.WSN_
      1361**DCL      1361--REDEF
CPSL_CFPT_CLOSE.SN_
      1422**DCL      1422--REDEF
CPSL_CFPT_CLOSE.UTL_
      1423**DCL      1423--REDEF
CPSL_CFPT_CLOSE.V
      1427**DCL      1422--DCLINIT
CPSL_CFPT_CLOSE.V.EXPIRE#
      1437**DCL      1437--REDEF
CPSL_CFPT_CLOSE.V.TYPE#
      1435**DCL      1435--REDEF
CPSL_CFPT_CLOSE.V.XTNSIZE#
      1432**DCL      1432--REDEF    1434--REDEF
CPSL_CFPT_CPEXIT.V
      1701**DCL      1701--DCLINIT
CPSL_CFPT_DELREC.V
      1525**DCL      1522--DCLINIT
PL6.E3A0      #001=CX_DATA_D File=CX_DATA_D.:E05TSI                              TUE 07/29/97 12:30 Page:14
CPSL_CFPT_ERRMSG.V
      1673**DCL      1669--DCLINIT
CPSL_CFPT_FDS.V
      1586**DCL      1586--DCLINIT
CPSL_CFPT_FID.V
      1605**DCL      1601--DCLINIT
CPSL_CFPT_GDS.V
      1570**DCL      1570--DCLINIT
CPSL_CFPT_GETDCB.V
      1542**DCL      1541--DCLINIT
CPSL_CFPT_JOBSTATS.V
      1628**DCL      1624--DCLINIT
CPSL_CFPT_LDEV.V
      1647**DCL      1645--DCLINIT
CPSL_CFPT_OPEN.ACSVEH_
      1248**DCL      1249--REDEF
CPSL_CFPT_OPEN.ALTKEYS_
      1254**DCL      1255--REDEF    1255--REDEF
CPSL_CFPT_OPEN.HDR_
      1253**DCL      1254--REDEF
CPSL_CFPT_OPEN.TAB_
      1252**DCL      1253--REDEF
CPSL_CFPT_OPEN.UHL_
      1246**DCL      1247--REDEF    1247--REDEF
CPSL_CFPT_OPEN.V
      1255**DCL      1246--DCLINIT
CPSL_CFPT_OPEN.V.FSN#
      1286**DCL      1286--REDEF    1286--REDEF
CPSL_CFPT_OPEN.WSN_
      1252**DCL      1252--REDEF
CPSL_CFPT_READ.STATION_
      1461**DCL      1462--REDEF
CPSL_CFPT_READ.V
      1462**DCL      1458--DCLINIT
CPSL_CFPT_READ.V.DVBYTE.REREAD#
      1473**DCL      1473--REDEF
PL6.E3A0      #001=CX_DATA_D File=CX_DATA_D.:E05TSI                              TUE 07/29/97 12:30 Page:15
CPSL_CFPT_READ.V.INDX#
      1471**DCL      1471--REDEF
CPSL_CFPT_RELDCB.V
      1556**DCL      1556--DCLINIT
CPSL_CFPT_TRMATTR.V
      1775**DCL      1769--DCLINIT
CPSL_CFPT_TRMCTL.V
      1749**DCL      1743--DCLINIT
CPSL_CFPT_WRITE.STATION_
      1499**DCL      1499--REDEF
CPSL_CFPT_WRITE.V
      1500**DCL      1497--DCLINIT
CPSL_CFPT_WRITE.V.DVBYTE.VFC#
      1506**DCL      1506--REDEF
CPSL_CVLP_TRMCTL.BREAKCOUNT
      1890**DCL      1891--REDEF
CPSL_CVLP_WINDOW.FWINDOW#
      1986**DCL      1986--REDEF    1987--REDEF
