PL6.E3A0      #001=DAA$ANLZ File=DAA$ANLZ.:E05TSI                                TUE 07/29/97 12:32 Page:1
        1        1        /*M* DAA$ANLZ - ANLZ driver routine and common subroutines */
        2        2        /*T***********************************************************/
        3        3        /*T*                                                         */
        4        4        /*T* Copyright (c) Bull HN Information Systems Inc., 1997    */
        5        5        /*T*                                                         */
        6        6        /*T***********************************************************/
        7        7        DAA$ANLZ: PROC MAIN;
        8        8        /*X* DMR */
        9        9        /**/
       10       10    1   DCL DAA$ERRMSG ENTRY(1);
       11       11    1   DCL DAA$TRAP ENTRY ASYNC;
       12       12    1   DCL DAA$ABORT ENTRY;
       13       13    1   DCL DAA$VALUE ENTRY(3) ALTRET;
       14       14    1   DCL DAA$CUN ENTRY(1) ALTRET;
       15       15    1   DCL DAA$NXTUSR ENTRY(1) ALTRET;
       16       16    1   DCL DAA$LOC ENTRY(2) ALTRET;
       17       17    1   DCL DAA$PARSEU ENTRY(1);
       18       18    1   DCL DAB$SSDUMP ENTRY(1);
       19       19    1   DCL DAB$AUTODUMP ENTRY(1);
       20       20    1   DCL DAB$DUMP ENTRY(1);
       21       21    1   DCL DAB$SSFRAME ENTRY(1);
       22       22    1   DCL DAB$HISTREG ENTRY(1);
       23       23    1   DCL DAD$CURCG ENTRY(1);
       24       24    1   DCL DAD$MSGLIST ENTRY(1);
       25       25    1   DCL DAF$CONTENTS ENTRY;
       26       26    1   DCL DAF$INIT ENTRY(1) ALTRET;
       27       27    1   DCL DAF$WRITE EPTR SYMREF;
       28       28    1   DCL DAM$INIT ENTRY ALTRET;
       29       29    1   DCL DAM$MAP ENTRY(5) ALTRET;
       30       30    1   DCL DAM$GETDESC ENTRY(5) ALTRET;
       31       31    1   DCL DAM$RUNNING ENTRY ALTRET;
       32       32    1   DCL DAM$DUMPFILE ENTRY(1) ALTRET;
       33       33    1   DCL DAM$SELECT ENTRY(1) ALTRET;
       34       34    1   DCL DAM$USECPU ENTRY(1) ALTRET;
       35       35    1   DCL DAM$FREEM ENTRY;
       36       36    1   DCL DAS$SYMINIT ENTRY(2) ALTRET;
       37       37    1   DCL DBM$SETSYMBOLS ENTRY(1);
PL6.E3A0      #001=DAA$ANLZ File=DAA$ANLZ.:E05TSI                                TUE 07/29/97 12:32 Page:2
       38       38    1   DCL DAS$SDSRCHPTR ENTRY(2) ALTRET;
       39       39    1   DCL DAS$SDMONPTR ENTRY(2) ALTRET;
       40       40    1   DCL DAU$DUMPFRAME ENTRY(1);
       41       41        /**/
       42       42    1   DCL DBM$SELECT ENTRY(1) ALTRET;
       43       43    1   DCL XSF$LOCCODT ENTRY(2) ALTRET;
       44       44        %INCLUDE XUF_ENTRY;
       45       52        %INCLUDE XUR_ENTRY;
       46       84        /**/
       47       85        %INCLUDE DA_MAP_R;
       48      115        %INCLUDE DA_SYMBOLS_R;
       49      128        %INCLUDE DA_FORMAT_R;
       50      140        %INCLUDE DA_FORMAT_C;
       51      382        %INCLUDE DA_ANLZ_R;
       52      395        %INCLUDE DA_PERR_C;
       53      459        %INCLUDE DA_CMD_C;
       54      808        %INCLUDE DA_TEXTC_C;
       55      839        %INCLUDE DA_MONSYM_C;
       56      890        %INCLUDE B$OBJECT_C;
       57     4320        %INCLUDE B$USER;
       58     4536        %INCLUDE B_ERRORS_C;
       59     5663        %INCLUDE NI$TABLES;
       60     5879        %B$USERREFS;
       61     5883        %INCLUDE CP_6;
       62     5964        %INCLUDE CP_6_SUBS;
       63     6504        %INCLUDE NK_VFC_C;
       64     6578        %INCLUDE IR_DATA_M;
       65     6742        %INCLUDE XU_MACRO_C;
       66     9848        %INCLUDE XU_PERR_C;
       67    10039        %INCLUDE XU_FORMAT_C;
       68    10201        %INCLUDE XU_SUBS_C;
       69    10293        %INCLUDE XUH_MACRO_C;
       70    10377    1   DCL B$JIT$ PTR SYMREF;
       71    10378        %INCLUDE B$JIT;
       72    10668        %INCLUDE FM$FIT;
       73    10889        /**/
       74    10890    1   DCL I SBIN;
PL6.E3A0      #001=DAA$ANLZ File=DAA$ANLZ.:E05TSI                                TUE 07/29/97 12:32 Page:3
       75    10891    1   DCL J SBIN;
       76    10892    1   DCL OUT$ PTR;
       77    10893    1   DCL JIT$ PTR;
       78    10894    1   DCL TX SBIN;
       79    10895    1   DCL RPTCNT SBIN;
       80    10896    1   DCL TOP$ PTR;
       81    10897    1   DCL 1 OUTERR REDEF TOP$,
       82    10898    1         2 FCG BIT(18) UNAL,
       83    10899    1         2 MON BIT(1) UNAL,
       84    10900    1         2 CODE UBIN(14) UNAL,
       85    10901    1         2 SEV UBIN(3) UNAL;
       86    10902    1   DCL 1 SCODE ALIGNED,
       87    10903    1         2 FCG(0:2) UBIN(6) UNAL,
       88    10904    1         2 MON BIT(1) UNAL,
       89    10905    1         2 CODE UBIN(14) UNAL,
       90    10906    1         2 SEV UBIN(3) UNAL;
       91    10907    1   DCL DELTA_OK BIT(1) STATIC ALIGNED INIT('0'B);
       92    10908    1   DCL ENDFLG BIT(1) ALIGNED;
       93    10909    1   DCL SYM$ PTR;
       94    10910    1   DCL ROUTINE EPTR;
       95    10911    1   DCL SAVE_TRTN REMEMBER;
       96    10912    1   DCL ANLZTXT CHAR(256);
       97    10913    1   DCL CHAR8 CHAR(8);
       98    10914    1   DCL DA_DFLT_SYMBOLS BIT(1) ALIGNED STATIC SYMDEF;
       99    10915    1   DCL DA_OUTDCB UBIN STATIC SYMDEF INIT(DCBNUM(M$DO));
      100    10916        /**/
      101    10917    1   DCL MONISDATABYTES SBIN;
      102    10918    1   DCL B$IS$ PTR SYMREF;
      103    10919    1   DCL MONISDATA CHAR(MONISDATABYTES) BASED(B$IS$);
      104    10920        %B$HEAD (NAME=DA_HEADREC,STCLASS=SYMREF);
      105    11120        /**/
      106    11121        %TEXTC (NAME=MONFID,TEXT='M:MON.:SYS');
      107    11145    1   DCL 1 PRMPT STATIC CALIGNED,
      108    11146    1         2 NODENAME CHAR(9) INIT(' '),
      109    11147    1         2 DASH CHAR(1) INIT('-');
      110    11148        %DA_HDR (NAME=DA_HDR,STCLASS="STATIC SYMDEF");
      111    11179        %VLP_HDR (HEADERHEIGHT=2,INDENT=1,RESETPAGE=NO);
PL6.E3A0      #001=DAA$ANLZ File=DAA$ANLZ.:E05TSI                                TUE 07/29/97 12:32 Page:4
      112    11195        %REPORT (NAME=ANLZRPT,TITLE='ANLZ',CONTENTS=NO);
      113    11261        %REPORT (NAME=ANLZTRAP,TITLE='ANLZ Trapped!!!',CONTENTS=NO);
      114    11327    1   DCL TRAPHDR CHAR(0) CONSTANT INIT('ANLZ Trapped!!!%/');
      115    11328    1   DCL TRAPHDR1 CHAR(0) CONSTANT INIT('Safe Store Frame:%/');
      116    11329    1   DCL TRAPFRAME(0:67) UBIN;
      117    11330    1   DCL TRAPABRT BIT(1) ALIGNED;
      118    11331    1   DCL TRAPMSG CHAR(0) CONSTANT INIT('Two consecutive traps!  I quit!!!');
      119    11332    1   DCL EIGHT_ZEROS CHAR(8) CONSTANT INIT('00000000');
      120    11333    1   DCL HELLO CHAR(0) STATIC INIT('ANLZ C00A00');
      121    11334    1   DCL 1 B_VERSION CALIGNED SYMREF,
      122    11335    1         2 L UBIN BYTE UNAL,
      123    11336    1         2 C CHAR(6);
      124    11337        %FPT_WRITE (FPTN=FPT_HELLO,DCB=M$ME,BUF=HELLO);
      125    11368    1   DCL B$TCB$ PTR SYMREF;
      126    11369        %B$TCB;
      127    11372        %B$EXCFR;
      128    11390        %B$ALT;
      129    11398        %F$DCB;
      130    11455        /**/
      131    11456    1   DCL ANLZ_CMD SBIN SYMREF;
      132    11457    1   DCL FEPANLZ_CMD SBIN SYMREF;
      133    11458    1   DCL PARSENODE$ PTR;
      134    11459    1   DCL PARSENODE UBIN BASED(PARSENODE$);
      135    11460        %P_PCB (NAME=P_PCB,STCLASS="STATIC SYMDEF");
      136    11659        %XUR_INIT (ABORT=DAA$ABORT,SYNTAX=YES,PCB=P_PCB,COMMANDS=NO);
      137    11758        %PARSE$OUT (NAME=TOP,STCLASS="BASED(TOP$)");
      138    11803        %PARSE$OUT (NAME=OUT,STCLASS="BASED(OUT$)");
      139    11848        %PARSE$SYM (NAME=SYM,STCLASS="BASED(SYM$)");
      140    11886        %XUH_PARAM (PROCNAME=ANLZNAME,OUTDCB1=M$DO,OUTDCB2=M$LO);
      141    11947        %VLP_NAME (FPTN=ANLZNAME,NAME='ANLZ');
      142    11974        /**/
      143    11975        %FPT_MONINFO (SITEINFO=VLR_SITEINFO,MONINFO=VLR_MONINFO);
      144    11990        %VLR_SITEINFO;
      145    12009        %VLR_MONINFO;
      146    12027        %VLR_SITEINFO (FPTN=VLR$SITEINFO,STCLASS=BASED);
      147    12046        %FPT_ALIB (LIBNAME=DELTANAME,DLIB=NO,RETRN=YES);
      148    12063        %FPT_DLIB (LIBNAME=DELTANAME,FPTN=FPT_KILLDELTA);
PL6.E3A0      #001=DAA$ANLZ File=DAA$ANLZ.:E05TSI                                TUE 07/29/97 12:32 Page:5
      149    12076        %VLP_NAME (FPTN=DELTANAME,NAME='DELTA',STCLASS="STATIC SYMDEF");
      150    12103    1   DCL DELTANAMEPADDING(0:2) UBIN STATIC;
      151    12104        %FPT_CLOSE (FPTN=FPT_CLOSELO,DCB=M$LO,DISP=SAVE);
      152    12146        %FPT_DEVICE (FPTN=FPT_DEVICE_ME,DCB=M$ME,DVFC=%VFC_TRANSITION1);
      153    12164        %FPT_TIME (DATE="DA_HDR.TITLE.DT",TIME="DA_HDR.TITLE.TM",DAY="DA_HDR.TITLE.DY",
             12164            TSTAMP=TSTMP);
      154    12183    1   DCL TSTMP UBIN STATIC;
      155    12184        %FPT_TRAP (ARITHMETIC=DAA$TRAP,DIVIDE_CHECK=TRAP,OVERFLOW=TRAP,
      156    12185                  ERRORS=DAA$TRAP,COMMAND=TRAP,IPR=TRAP,LOCKUP=TRAP,
      157    12186                     MEMORY=TRAP,MISSING_PAGE=TRAP,MISSING_SEG=TRAP,
      158    12187                     SECURITY_1=TRAP,SECURITY_2=TRAP,HISTORY_REGS=NO,
      159    12188                  PMME=DAA$TRAP);
      160    12211        %FPT_INT (UENTRY=XUR$BREAK);
      161    12225        %FPT_WAIT;
      162    12239        %FPT_PRIV (FPTN=FPT_PRIV,PRIV=%PR_SPCLMM#,AUTH=YES);
      163    12254        %FPT_PRIV (FPTN=FPT_SETMSYS,PRIV=%PR_MSYS#,AUTH=YES);
      164    12269        %FPT_RUE;
      165    12283        %FPT_CLOSE (FPTN=FPT_CLSSI,DCB=M$SI,DISP=SAVE);
      166    12325        %FPT_CLOSE (FPTN=FPT_CLSFPRG,DCB=M$FPRG);
      167    12367        %FPT_OPEN (FPTN=FPT_SCRUBSI,DCB=M$SI,ASN=DEVICE,RES='ME',FUN=IN);
      168    12476        %FPT_OPEN (FPTN=FPT_DFLTOPN,DVFC=%VFC_TRANSITION1);
      169    12585        %FPT_OPEN (FPTN=OPENSTAR,DCB=M$STAR,NAME=STARNAME,FUN=IN,ASN=FILE);
      170    12694        %FPT_READ (FPTN=READSTAR,DCB=M$STAR,KEY=STARKEY,KEYS=YES);
      171    12733        %FPT_CLOSE (FPTN=CLOSESTAR,DCB=M$STAR,DISP=SAVE);
      172    12775        %VLP_NAME (FPTN=STARNAME,NAME='ANLZ_STAR');
      173    12802        %VLP_ACCT (FPTN=STARACCT,ACCT=':SYS');
      174    12815    1   DCL 1 STARKEY STATIC ALIGNED,
      175    12816    1         2 L UBIN BYTE CALIGNED INIT(3),
      176    12817    1         2 K UBIN(27) CALIGNED;
      177    12818    1   DCL STARTXT$ PTR;
      178    12819    1   DCL STARTXT CHAR(256) BASED(STARTXT$);
      179    12820    1   DCL STARFMT CHAR(0) CONSTANT INIT('-%>A');
      180    12821        %FPT_UNFID;
      181    12839
      182    12840        %FPT_CLOSE (FPTN=DELETE_DUMP,DCB=M$DUMPFILE,DISP=RELEASE);
      183    12882
      184    12883        %FPT_CLOSE (FPTN=CHANGE_TYPE,DCB=M$DUMPFILE,DISP=SAVE,CHGATT=YES);
PL6.E3A0      #001=DAA$ANLZ File=DAA$ANLZ.:E05TSI                                TUE 07/29/97 12:32 Page:6
      185    12925        %FPT_OPEN (FPTN=REOPEN_DUMP,DCB=M$DUMPFILE);
      186    13034        %FPT_YC (ECHO=NO);
      187    13051    1   DCL CBUF CHAR(256);
      188    13052        %FPT_YC (FPTN=FPT_FREE,LINK=YES,ECHO=NO,NOERR=YES);
      189    13069    1   DCL FREETEXT(0:5) CHAR(6) CONSTANT INIT('PRINT','ERASE','DIR','TIME','DATE','ENTER')
             13069            ;
      190    13070    1   DCL 1 AFILE STATIC,
      191    13071    1         2 COUNT UBIN BYTE UNAL INIT(SIZEC(AFILE.FID)),
      192    13072    1         2 FID,
      193    13073    1           3 DF CHAR(0) INIT(':DF'),
      194    13074    1           3 VERSION CHAR(0) INIT('XXXB'),
      195    13075    1           3 ID CHAR(0) INIT('000'),
      196    13076    1           3 ACCT CHAR(0) INIT('.:SYSTAC');
      197    13077    1   DCL 1 TC BASED CALIGNED,
      198    13078    1         2 L UBIN BYTE UNAL,
      199    13079    1         2 C CHAR(TC.L);
      200    13080    1   DCL ACMDFMT CHAR(0) CONSTANT INIT(' %>A.%>A for %J%S at %..2.1U on %T%S');
      201    13081    1   DCL BLAMEFMT CHAR(0) CONSTANT INIT(' %>A is to blame');
      202    13082    1   DCL NODEFMT CHAR(0) CONSTANT INIT('%/ Nodes:  %N.N.N.N(%8>A%4S  %)%S');
      203    13083    1   DCL SELFMT CHAR(0) CONSTANT INIT('%>A (node %D) Selected');
      204    13084    1   DCL T$ PTR;
      205    13085        /**/
      206    13086        %RV_BUFF (NAME=RVBUFF,STCLASS="BASED(DA_RVBUF$)");
      207    13122        %RV_NODEDIR (FPTN=NODEDIR,STCLASS="BASED(DA_NODEDIR$)");
      208    13139        %RV_DFSUBS;
      209    13166        %FPT_NODEINFO (FPTN=FPT_NODEINFO,NODEINFO=VLR_NODEINFO);
      210    13178        %VLR_NODEINFO (FPTN=VLR_NODEINFO);
      211    13193        /**/
      212    13194    1   DCL DA_CMDTBL$(0:0) PTR SYMREF ALIGNED;
      213    13195    1   DCL CMDTBL$ PTR;
      214    13196    1   DCL 1 CMDTBL ALIGNED BASED(CMDTBL$),
      215    13197    1         2 N UBIN WORD,
      216    13198    1         2 RTN(0:0) EPTR;
      217    13199        /**/
      218    13200
      219    13201    1   DCL M$SI DCB;
      220    13202    1   DCL M$DUMPFILE DCB;
PL6.E3A0      #001=DAA$ANLZ File=DAA$ANLZ.:E05TSI                                TUE 07/29/97 12:32 Page:7
      221    13203    1   DCL M$ME DCB;
      222    13204    1   DCL M$DO DCB;
      223    13205    1   DCL M$LO DCB;
      224    13206    1   DCL M$LM DCB;
      225    13207    1   DCL M$FPRG DCB;
      226    13208    1   DCL M$STAR DCB;
      227    13209    1   DCL F$SYMBOL DCB;
      228    13210        %SUB NEVER="WHILE('0'B)";
      229    13211        %SUB FOREVER="WHILE('1'B)";
      230    13212        %EJECT;
PL6.E3A0      #001=DAA$ANLZ File=DAA$ANLZ.:E05TSI                                TUE 07/29/97 12:32 Page:8
      231    13213        /**/
      232    13214        /* INITIALIZATION */
      233    13215        /**/
      234    13216    1           DA_ANLZERR='0'B;
      235    13217    1           DA_MAPERR='0'B;
      236    13218    1           DA_FMTERR='0'B;
      237    13219    1           DA_SYMERR='0'B;
      238    13220    1           DAF_DCB#=DA_OUTDCB;
      239    13221    1           CALL XUR$INIT(XUR_INIT,,DA_XUR$);
      240    13222    1           CALL XUR$DISABLE;
      241    13223    1           FPT_DFLTOPN.V.DCB#=DAF_DCB#;
      242    13224    1           CALL M$OPEN(FPT_DFLTOPN);
      243    13225    1           FPT_DFLTOPN.V.DCB#=DCBNUM(M$DO);
      244    13226    1           CALL M$OPEN(FPT_DFLTOPN);
      245    13227    1           TRAPABRT='0'B;
      246    13228    1           REMEMBER TRAP_RETURN IN SAVE_TRTN;
      247    13229    1           REMEMBER TRAPX IN DA_TRTN;
      248    13230    1           CALL M$TRAP(FPT_TRAP);
      249    13231    1           CALL M$INT(FPT_INT);
      250    13232    1           CALL M$DEVICE(FPT_DEVICE_ME);
      251    13233    1           FPT_PRIV.V.PRIV# = FPT_PRIV.V.PRIV# | %PR_FMREAD#;
      252    13234    1           CALL M$SPRIV(FPT_PRIV);
      253    13235    2           CALL M$MONINFO(FPT_MONINFO) WHENALTRETURN DO; END;
      254    13236    1           AFILE.FID.VERSION=VLR_SITEINFO.VERSION#;
      255    13237    1           CALL DAF$INIT(ANLZRPT);
      256    13238    1           CALL DAS$SYMINIT(MONFID);
      257    13239    1           CALL USERUNNING;
      258    13240    1           MONISDATABYTES=DA_HEADREC.VDPGS*4096;
      259    13241    1           DA_MONISDATA=VECTOR(MONISDATA);
      260    13242    1           VLP_HDR.CTL.COUNT#=POFFC(ADDR(DA_HDR.TITLE.PG#),ADDR(DA_HDR.TITLE));
      261    13243    1           DA_HDR.CTL=VLP_HDR.CTL;
      262    13244    1           DA_FMT_TITLEX=POFFC(ADDR(DA_HDR.TITLE.RTITLE),ADDR(DA_HDR.TITLE))-1;
      263    13245    1           DA_FMT_TLEN=42;
      264    13246    1           RPTCNT=0;
      265    13247    1           STARTXT$=ADDR(NIL);
      266    13248    1           PARSENODE$=ADDR(ANLZ_CMD);
      267    13249    1           CALL XUR$ENABLE;
PL6.E3A0      #001=DAA$ANLZ File=DAA$ANLZ.:E05TSI                                TUE 07/29/97 12:32 Page:9
      268    13250        /**/
      269    13251        /* PARSE IBEX INVOCATION LINE */
      270    13252        /**/
      271    13253    2           IF B$JIT.CCARS<=B$JIT.CCDISP THEN DO;
      272    13254    2              ANLZTXT=B$JIT.CCBUF;
      273    13255    2              END;
      274    13256    2           ELSE DO;
      275    13257    2              ANLZTXT=SUBSTR(B$JIT.CCBUF,B$JIT.CCDISP+1);
      276    13258    3              CALL INDEX1R(I,')',ANLZTXT) WHENRETURN DO;
      277    13259    3                 IF SUBSTR(ANLZTXT,I)=')' THEN
      278    13260    3                    SUBSTR(ANLZTXT,I)=' ';
      279    13261    3                 END;
      280    13262    2              END;
      281    13263    2           CALL XUR$GETCMD(PARSENODE,TOP$,VECTOR(PRMPT),ANLZTXT,SIZEC(ANLZTXT),ENTADDR(
             13263                    DAA$PARSEU)) WHENRETURN DO;
      282    13264    2              CALL COMMAND;
      283    13265    2              END;
      284    13266    2           WHENALTRETURN DO;
      285    13267    2              CALL CMDERR;
      286    13268    2              END;
      287    13269    1           CALL DAA$ERRMSG;
      288    13270        /**/
      289    13271        /* TRAPS AND BREAK ABORTS UNWIND TO HERE */
      290    13272        /**/
      291    13273    2           DO NEVER;
      292    13274    2   TRAP_RETURN:
      293    13275    3              IF DA_TRAPPED THEN DO;
      294    13276    3                 CALL PRINT_TRAP;
      295    13277    3                 CALL COMMANDT;            /* FINISH COMMAND LINE */
      296    13278    3                 END;
      297    13279    2              CALL DAA$ERRMSG;
      298    13280    2              END;
      299    13281        /**/
      300    13282        /* ACCEPT COMMANDS */
      301    13283        /**/
      302    13284    2           DO WHILE(ENDFLG);
      303    13285    3              CALL XUR$GETCMD(PARSENODE,TOP$,VECTOR(PRMPT),STARTXT,SIZEC(STARTXT),
PL6.E3A0      #001=DAA$ANLZ File=DAA$ANLZ.:E05TSI                                TUE 07/29/97 12:32 Page:10
             13285                       ENTADDR(DAA$PARSEU)) WHENRETURN DO;
      304    13286    3                 STARTXT$=ADDR(NIL);
      305    13287    3                 IF B$JIT.CPFLAGS1 & %CP_ECHO# THEN CALL XUR$ECHOIF(DAF_DCB#);
      306    13288    3                 CALL COMMAND;
      307    13289    3                 END;
      308    13290    3              WHENALTRETURN DO;
      309    13291    3                 STARTXT$=ADDR(NIL);
      310    13292    3                 CALL CMDERR;
      311    13293    3                 END;
      312    13294    2              END;
      313    13295    2           CALL M$CLOSE(FPT_CLSFPRG) WHENALTRETURN DO; END;
      314    13296    1           CALL XUR$CLOSE_DCBS;
      315    13297    1           RETURN;
      316    13298
      317    13299    1   TRAPX:
      318    13300    1           CALL M$XXX;
      319    13301        /**/
      320    13302        %EJECT;
PL6.E3A0      #001=DAA$ANLZ File=DAA$ANLZ.:E05TSI                                TUE 07/29/97 12:32 Page:11
      321    13303        /**/
      322    13304        /* PROCESS (COMPOUND) COMMANDS */
      323    13305        /**/
      324    13306    1   COMMAND: PROC;
      325    13307        /**/
      326    13308    2           DA_FMT_NEWCMD='1'B;
      327    13309    2           TX=0;
      328    13310    2           CALL DAF$INIT(ANLZRPT);
      329    13311        /**/
      330    13312    2   COMMANDT: ENTRY;                        /* ENTRY AFTER TRAP */
      331    13313        /**/
      332    13314    3           DO WHILE(TX<TOP.NSUBLKS);
      333    13315    3              TX=TX+1;
      334    13316    3              DA_TRTN=SAVE_TRTN;
      335    13317    3              TRAPABRT='0'B;
      336    13318    3              CALL EXEC_CMD(TOP.SUBLK$(TX-1)->OUT);
      337    13319    3              CALL DAA$ERRMSG;
      338    13320    3              END;
      339    13321    2           RETURN;
      340    13322        /**/
      341    13323    2   END COMMAND;
      342    13324
      343    13325        /**/
      344    13326        /* EXECUTE SINGLE COMMAND */
      345    13327        /**/
      346    13328
      347    13329    1   EXEC_CMD: PROC(TOP);
      348    13330        /**/
      349    13331        %PARSE$OUT (NAME=TOP,STCLASS="");
      350    13376        /**/
      351    13377    3           DO CASE(TOP.CODE);
      352    13378    3            CASE(%DA_DELTA_CMD);
      353    13379    4              IF NOT(DA_DELTA_FLG OR DELTA_OK) THEN DO;
      354    13380    4                 DA_DELTA_FLG='1'B;
      355    13381    4                 FPT_ALIB.CMD_=VECTOR(ANLZTXT);
      356    13382    4                 FPT_ALIB.V.RETRN#='1'B;
      357    13383    5                 CALL M$ALIB(FPT_ALIB) WHENALTRETURN DO; END;
PL6.E3A0      #001=DAA$ANLZ File=DAA$ANLZ.:E05TSI                                TUE 07/29/97 12:32 Page:12
      358    13384    4                 END;
      359    13385    4              IF TOP.SUBLK$(0)->SYM.COUNT>0 THEN DO;
      360    13386    4                 FPT_ALIB.CMD_=VECTOR(TOP.SUBLK$(0)->SYM.TEXT);
      361    13387    4                 FPT_ALIB.V.RETRN#='1'B;
      362    13388    5                 CALL M$ALIB(FPT_ALIB) WHENALTRETURN DO; END;
      363    13389    4                 END;
      364    13390    3            CASE(%DA_HOUSEKEEPING_CMD);
      365    13391    3              CALL HOUSEKEEPING(TOP.SUBLK$(0)->OUT);
      366    13392    3            CASE(%DA_DO_PER_USER);
      367    13393    3              CALL PER_USER(TOP);
      368    13394    3              RETURN;
      369    13395    3            END;
      370    13396    2           CMDTBL$=DA_CMDTBL$(TOP.CODE);
      371    13397    3           IF CMDTBL$~=ADDR(NIL) THEN DO;
      372    13398    4              IF TOP.SUBLK$(0)->OUT.CODE<=CMDTBL.N THEN DO;
      373    13399    4                 ROUTINE=CMDTBL.RTN(TOP.SUBLK$(0)->OUT.CODE);
      374    13400    5                 IF ROUTINE~=ENTADDR(NIL) THEN DO;
      375    13401    5                    CALL ROUTINE(TOP.SUBLK$(0)->OUT);
      376    13402    5                    END;
      377    13403    4                 END;
      378    13404    3              END;
      379    13405    2           CALL DAA$ERRMSG;
      380    13406    2           RETURN;
      381    13407    2   END EXEC_CMD;
      382    13408        /**/
      383    13409        %EJECT;
PL6.E3A0      #001=DAA$ANLZ File=DAA$ANLZ.:E05TSI                                TUE 07/29/97 12:32 Page:13
      384    13410        /**/
      385    13411    1   PER_USER: PROC(TOP);
      386    13412        /**/
      387    13413        %PARSE$OUT (NAME=TOP,STCLASS="");
      388    13458        /**/
      389    13459    2   DCL I SBIN;
      390    13460        /**/
      391    13461    2           DA_CUN=0;
      392    13462    2           CMDTBL$=DA_CMDTBL$(TOP.CODE);
      393    13463    3           DO WHILE(DA_CUN<512);
      394    13464    4              CALL DAA$NXTUSR(TOP.SUBLK$(1)->OUT.SUBLK$(0)->OUT) WHENRETURN DO;
      395    13465    5                 CALL USER_REPORT WHENRETURN DO;
      396    13466    6                    DO I=0 TO TOP.SUBLK$(0)->OUT.NSUBLKS-1;
      397    13467    6                       ROUTINE=CMDTBL.RTN(TOP.SUBLK$(0)->OUT.SUBLK$(I)->OUT.CODE);
      398    13468    7                       IF ROUTINE~=ENTADDR(NIL) THEN DO;
      399    13469    7                          CALL ROUTINE(TOP.SUBLK$(0)->OUT.SUBLK$(I)->OUT);
      400    13470    7                          CALL DAA$ERRMSG;
      401    13471    7                          END;
      402    13472    6                       END;
      403    13473    5                    END;
      404    13474    4                 END;
      405    13475    4              WHENALTRETURN DO;
      406    13476    4                 DA_CUN=512;
      407    13477    4                 END;
      408    13478    3              END;
      409    13479    2           RETURN;
      410    13480    2   END PER_USER;
      411    13481        %EJECT;
PL6.E3A0      #001=DAA$ANLZ File=DAA$ANLZ.:E05TSI                                TUE 07/29/97 12:32 Page:14
      412    13482        /**/
      413    13483    1   CMDERR: PROC;
      414    13484    3           IF OUTERR.MON THEN DO;
      415    13485    3              CALL XUR$ERRMSG(OUTERR,DCBNUM(M$SI));
      416    13486    4              IF DCBADDR(DCBNUM(M$SI))->F$DCB.ASN#=%DEVICE# THEN DO;
      417    13487    4                 IF NOT DCBADDR(DCBNUM(M$SI))->F$DCB.DDEV.IC# THEN
      418    13488    4                    ENDFLG='0'B;
      419    13489    4                 END;
      420    13490    4              ELSE DO;
      421    13491    4                 IF DCBADDR(DCBNUM(M$SI))->F$DCB.FCD# THEN
      422    13492    5                    CALL M$CLOSE(FPT_CLSSI) WHENALTRETURN DO; END;
      423    13493    5                 CALL M$OPEN(FPT_SCRUBSI) WHENALTRETURN DO;
      424    13494    5                    CALL PMME_ERR;
      425    13495    5                    END;
      426    13496    4                 END;
      427    13497    3              END;
      428    13498    3           ELSE DO;
      429    13499    3              CALL XUR$ERRPTR(,DCBNUM(M$DO));
      430    13500    3              IF OUTERR.CODE~=%E$SYNERR THEN CALL XUR$ERRMSG(OUTERR);
      431    13501    3              END;
      432    13502    2           RETURN;
      433    13503    2   END CMDERR;
      434    13504        /**/
      435    13505    1   PMME_ERR: PROC;
      436    13506        /**/
      437    13507    2           CALL DAA$ERRMSG(B$TCB$->B$TCB.ALT$->B$ALT.ERR);
      438    13508    2           RETURN;
      439    13509        /**/
      440    13510    2   END PMME_ERR;
      441    13511        /**/
      442    13512        %EJECT;
PL6.E3A0      #001=DAA$ANLZ File=DAA$ANLZ.:E05TSI                                TUE 07/29/97 12:32 Page:15
      443    13513        /**/
      444    13514        /* HOUSEKEEPING COMMANDS */
      445    13515        /**/
      446    13516    1   HOUSEKEEPING: PROC(TOP);
      447    13517        /**/
      448    13518        %PARSE$OUT (NAME=TOP,STCLASS="");
      449    13563        /**/
      450    13564    3           DO CASE(TOP.CODE);
      451    13565    3            CASE(%DA_HKP_ANLZ);
      452    13566    3              CALL ANLZ_CMD(TOP);
      453    13567    3            CASE(%DA_HKP_SYMBOLS);
      454    13568    4              IF TOP.NSUBLKS=0 THEN DO;
      455    13569    4                 DA_DFLT_SYMBOLS='1'B;
      456    13570    4                 CALL SELECT_NODE(VLR_NODEINFO.NODENAME#);
      457    13571    4                 END;
      458    13572    4              ELSE DO;
      459    13573    4                 DA_DFLT_SYMBOLS='0'B;
      460    13574    4                 I=0;
      461    13575    4                 IF TOP.NSUBLKS>1 THEN CALL CHARBIN(I, TOP.SUBLK$(1)->SYM.TEXT);
      462    13576    4                 CALL DAS$SYMINIT(TOP.SUBLK$(0)->SYM.COUNT, I);
      463    13577    4                 END;
      464    13578    3            CASE(%DA_HKP_END);
      465    13579    3              ENDFLG='0'B;
      466    13580    3            CASE(%DA_HKP_CONTENTS);
      467    13581    3              CALL DAF$CONTENTS;
      468    13582    3              FPT_CLOSELO.V.DCB#=DAF_DCB#;
      469    13583    3              CALL M$CLOSE(FPT_CLOSELO);
      470    13584    3            CASE(%DA_HKP_DELTA);
      471    13585    3              DA_DELTA_FLG='1'B;
      472    13586    3              FPT_ALIB.CMD_=VECTOR(ANLZTXT);
      473    13587    3              FPT_ALIB.V.RETRN#='1'B;
      474    13588    3              CALL M$ALIB(FPT_ALIB);
      475    13589    3            CASE(%DA_HKP_UNDEL);
      476    13590    3              DA_DELTA_FLG='0'B;
      477    13591    3              CALL M$DLIB(FPT_KILLDELTA);
      478    13592    3            CASE(%DA_HKP_GODEL);
      479    13593    3              FPT_ALIB.V.RETRN#='0'B;
PL6.E3A0      #001=DAA$ANLZ File=DAA$ANLZ.:E05TSI                                TUE 07/29/97 12:32 Page:16
      480    13594    4              IF DA_DELTA_FLG OR DELTA_OK THEN DO;
      481    13595    4                 FPT_ALIB.CMD_=VECTOR(NIL);
      482    13596    4                 END;
      483    13597    4              ELSE DO;
      484    13598    4                 FPT_ALIB.CMD_=VECTOR(ANLZTXT);
      485    13599    4                 DA_DELTA_FLG='1'B;
      486    13600    4                 END;
      487    13601    4              CALL M$ALIB(FPT_ALIB) WHENALTRETURN DO;
      488    13602    4                 CALL PMME_ERR;
      489    13603    4                 END;
      490    13604    3            CASE(%DA_HKP_DEBUG);
      491    13605    3              DELTA_OK=BINBIT(TOP.SUBLK$(0)->OUT.CODE,1);
      492    13606    4              IF DA_DELTA_FLG THEN DO;
      493    13607    4                 CALL M$DLIB(FPT_KILLDELTA);
      494    13608    4                 DA_DELTA_FLG='0'B;
      495    13609    4                 END;
      496    13610    3            CASE(%DA_HKP_WAIT);
      497    13611    3              CALL DAA$VALUE(TOP,I);
      498    13612    3              FPT_WAIT.V.UNITS#=I;
      499    13613    3              CALL M$WAIT(FPT_WAIT);
      500    13614    3            CASE(%DA_HKP_REPEAT);
      501    13615    4              IF TX=1 THEN DO;
      502    13616    4                 CALL DAA$ERRMSG(%E$DA_REPEAT_NOTHING);
      503    13617        /*E*    ERROR:   DAA-E$DA_REPEAT_NOTHING
      504    13618                MESSAGE: There is no point in repeating nothing.
      505    13619        */
      506    13620    4                 END;
      507    13621    4              ELSE DO;
      508    13622    5                 IF RPTCNT=0 THEN DO;
      509    13623    5                    IF TOP.NSUBLKS=0 THEN TX=0;
      510    13624    6                    ELSE DO;
      511    13625    6                       CALL DAA$VALUE(TOP.SUBLK$(0)->OUT,RPTCNT);
      512    13626    7                       IF RPTCNT>0 THEN DO;
      513    13627    7                          TX=0;
      514    13628    7                          RPTCNT=RPTCNT-1;
      515    13629    7                          END;
      516    13630    6                       ELSE RPTCNT=0;
PL6.E3A0      #001=DAA$ANLZ File=DAA$ANLZ.:E05TSI                                TUE 07/29/97 12:32 Page:17
      517    13631    6                       END;
      518    13632    5                    END;
      519    13633    5                 ELSE DO;
      520    13634    5                    RPTCNT=RPTCNT-1;
      521    13635    5                    IF RPTCNT>0 THEN TX=0;
      522    13636    5                    END;
      523    13637    4                 END;
      524    13638    3            CASE(%DA_HKP_CPU);
      525    13639    3              CALL DAA$VALUE(TOP,I);
      526    13640    3              CALL DAM$USECPU(I);
      527    13641    3            CASE(%DA_HKP_DOMAIN);
      528    13642    3              DA_DOMAIN=TOP.SUBLK$(0)->OUT.CODE;
      529    13643    3            CASE(%DA_HKP_RUE);
      530    13644    4              IF DA_DUMPFILE THEN DO;
      531    13645    4                 CALL DAA$ERRMSG(%E$DA_NO_CAN_DO);
      532    13646
      533    13647        /*E*   ERROR:   DAA-E$DA_NO_CAN_DO
      534    13648               MESSAGE: Command not valid in dump file mode.
      535    13649                                                                          */
      536    13650    4                 END;
      537    13651    4              ELSE DO;
      538    13652    4                 IF NOT B$JIT.PRIV.ACTIVE & %PR_MSYS# THEN
      539    13653    5                    CALL M$SPRIV(FPT_SETMSYS) WHENALTRETURN DO;
      540    13654    5                       CALL PMME_ERR;
      541    13655    5                       RETURN;
      542    13656    5                       END;
      543    13657    4                 FPT_RUE.V.EVENT#=TOP.SUBLK$(0)->OUT.CODE;
      544    13658    4                 DA_CUN=0;
      545    13659    5                 DO WHILE(DA_CUN<512);
      546    13660    6                    CALL DAA$NXTUSR(TOP.SUBLK$(1)->OUT) WHENRETURN DO;
      547    13661    6                       FPT_RUE.V.USER#=B$USRT$->B$USER.SYSID(DA_CUN);
      548    13662    6                       CALL USER_ID;
      549    13663    7                       CALL M$RUE(FPT_RUE) WHENALTRETURN DO;
      550    13664    7                          CALL DAA$ERRMSG(B$TCB$->B$TCB.ALT$->B$ALT.ERR);
      551    13665    7                          END;
      552    13666    6                       END;
      553    13667    6                    WHENALTRETURN DO;
PL6.E3A0      #001=DAA$ANLZ File=DAA$ANLZ.:E05TSI                                TUE 07/29/97 12:32 Page:18
      554    13668    6                       DA_CUN=512;
      555    13669    6                       END;
      556    13670    5                    END;
      557    13671    4                 END;
      558    13672    3            CASE(%DA_HKP_ASR);
      559    13673    3              CALL SETLSR(TOP,DA_ASR,'ASR');
      560    13674    3            CASE(%DA_HKP_PSR);
      561    13675    3              CALL SETLSR(TOP,DA_PSR,'PSR');
      562    13676    3            CASE(%DA_HKP_Q1);
      563    13677    4              CALL XUR$MOREMSG(XUH_PARAM) WHENALTRETURN DO;
      564    13678    4                 CALL DAA$ERRMSG(%E$DA_NO_MORE);
      565    13679    4                 END;
      566    13680
      567    13681        /*E*   ERROR:   DAA-E$DA_NO_MORE
      568    13682               MESSAGE: No messages available.
      569    13683               MESSAGE1: Th Th Th That's all fffolks!
      570    13684                                                                          */
      571    13685    3            CASE(%DA_HKP_Q2);
      572    13686    4              CALL XUR$ALLMSG(XUH_PARAM) WHENALTRETURN DO;
      573    13687    4                 CALL DAA$ERRMSG(%E$DA_NO_MORE);
      574    13688    4                 END;
      575    13689    3            CASE(%DA_HKP_HELP);
      576    13690    3              XUH_PARAM.HELP$=TOP.SUBLK$(0)->SYM.TEXTC$;
      577    13691    3              CALL XUR$HELP(XUH_PARAM);
      578    13692    3            CASE(%DA_HKP_OUTPUT);
      579    13693    4              CALL SETDCB(TOP,DAF_DCB#,%CREATE#) WHENALTRETURN DO;
      580    13694    4                 CALL PMME_ERR;
      581    13695    4                 END;
      582    13696    3            CASE(%DA_HKP_ECHO);
      583    13697    4              CALL SETDCB(TOP,DCBNUM(M$ME),%CREATE#) WHENALTRETURN DO;
      584    13698    4                 CALL PMME_ERR;
      585    13699    4                 END;
      586    13700    3            CASE(%DA_HKP_READ);
      587    13701    4              CALL SETDCB(TOP,DCBNUM(M$SI),%IN#) WHENALTRETURN DO;
      588    13702    4                 CALL PMME_ERR;
      589    13703    4                 END;
      590    13704    3            CASE(%DA_HKP_XEQ);
PL6.E3A0      #001=DAA$ANLZ File=DAA$ANLZ.:E05TSI                                TUE 07/29/97 12:32 Page:19
      591    13705    3              CALL INSERT(CBUF,,,'XEQ ',TOP.SUBLK$(0)->SYM.TEXT);
      592    13706    3              FPT_YC.CMD_=VECTOR(CBUF);
      593    13707    4              CALL M$YC(FPT_YC) WHENALTRETURN DO;
      594    13708    4                 CALL PMME_ERR;
      595    13709    4                 END;
      596    13710    3            CASE(%DA_HKP_TRAPFRAME);
      597    13711    3              CALL DAU$DUMPFRAME(TRAPFRAME);
      598    13712    3            CASE(%DA_HKP_SELECT);
      599    13713    4              IF TOP.NSUBLKS=0 THEN DO;
      600    13714    4                 CALL DAF$WRITE(VECTOR(SELFMT),VECTOR(VLR_NODEINFO.NODENAME#),VECTOR(
             13714                          VLR_NODEINFO.NODENUM#));
      601    13715    4                 END;
      602    13716    4              ELSE DO;
      603    13717    5                 IF TOP.SUBLK$(0)->OUT.NDTYPE=%DEC# THEN DO;
      604    13718    5                    FPT_NODEINFO.V.NODENAME#=' ';
      605    13719    5                    CALL CHARBIN(I,TOP.SUBLK$(0)->SYM.TEXT);
      606    13720    5                    FPT_NODEINFO.V.NODENUM#=I;
      607    13721    5                    END;
      608    13722    5                 ELSE DO;
      609    13723    5                    IF TOP.SUBLK$(0)->SYM.TEXT='HOST' THEN
      610    13724    5                       FPT_NODEINFO.V.NODENAME#=VLR_MONINFO.NODE_NAME;
      611    13725    5                    ELSE
      612    13726    5                       FPT_NODEINFO.V.NODENAME#=TOP.SUBLK$(0)->SYM.TEXT;
      613    13727    5                    END;
      614    13728    5                 CALL M$NODEINFO(FPT_NODEINFO) WHENALTRETURN DO;
      615    13729    5                    VLR_NODEINFO.NODENAME#=TOP.SUBLK$(0)->SYM.TEXT;
      616    13730    5                    VLR_NODEINFO.NODENUM# = I;
      617    13731    5                    END;
      618    13732    5                 CALL SELECT_NODE(VLR_NODEINFO.NODENAME#) WHENRETURN DO;
      619    13733    5                    CALL DAF$WRITE(VECTOR(SELFMT),VECTOR(VLR_NODEINFO.NODENAME#),VECTOR
             13733                             (VLR_NODEINFO.NODENUM#));
      620    13734    5                    END;
      621    13735    4                 END;
      622    13736    3            CASE(%DA_HKP_STAR);
      623    13737    3              CALL STAR_INFO(TOP);
      624    13738    3            CASE(%DA_HKP_DELETE);
      625    13739    4              IF DA_DUMPFILE THEN DO;
PL6.E3A0      #001=DAA$ANLZ File=DAA$ANLZ.:E05TSI                                TUE 07/29/97 12:32 Page:20
      626    13740    5                 CALL M$CLOSE(DELETE_DUMP) WHENALTRETURN DO;
      627    13741    5                    CALL DAA$ERRMSG(B$TCB$->B$TCB.ALT$->B$ALT.ERR);
      628    13742    5                    END;
      629    13743    4                 CALL ANLZ_CMD(TOP);
      630    13744    4                 END;
      631    13745    4              ELSE DO;
      632    13746    4                 CALL DAA$ERRMSG(%E$DA_DUMP_ONLY);
      633    13747    4                 END;
      634    13748    3            CASE(%DA_HKP_BLAME);
      635    13749    4              IF DA_DUMPFILE THEN DO;
      636    13750    5                 IF DA_DELTA_FLG THEN DO;
      637    13751    5                    CBUF='KILL DELTA';
      638    13752    5                    FPT_ALIB.V.RETRN#='1'B;
      639    13753    5                    FPT_ALIB.CMD_=VECTOR(CBUF);
      640    13754    5                    CALL M$ALIB(FPT_ALIB);
      641    13755    5                    DA_DELTA_FLG='0'B;
      642    13756    5                    END;
      643    13757    5                 IF TOP.NSUBLKS=1 THEN DO;
      644    13758    5                    CHANGE_TYPE.V.TYPE#=TOP.SUBLK$(0)->SYM.TEXT;
      645    13759    5                    END;
      646    13760    5                 ELSE DO;
      647    13761    6                    IF SUBSTR(B$JIT.ACCN,2)=B$JIT.HPSN THEN DO;
      648    13762    6                       CHANGE_TYPE.V.TYPE#=SUBSTR(B$JIT.ACCN,0,2);
      649    13763    6                       END;
      650    13764    6                    ELSE DO;
      651    13765    6                       CALL CONCAT(CHANGE_TYPE.V.TYPE#,SUBSTR(B$JIT.ACCN,0,1),SUBSTR(
             13765                                B$JIT.ACCN,2,1));
      652    13766    6                       END;
      653    13767    5                    END;
      654    13768    4                 CHANGE_TYPE.V.OPER.CHGATT#='0'B;
      655    13769    4                 CALL M$CLOSE(CHANGE_TYPE) ALTRET(BLAME_ERR);
      656    13770    4                 REOPEN_DUMP.V.FUN#=%UPDATE#;
      657    13771    4                 CALL M$OPEN(REOPEN_DUMP) ALTRET(BLAME_ERR);
      658    13772    4                 CHANGE_TYPE.V.OPER.CHGATT#='1'B;
      659    13773    5                 CALL M$CLOSE(CHANGE_TYPE) WHENRETURN DO;
      660    13774    5                    REOPEN_DUMP.V.FUN#=%IN#;
      661    13775    5                    CALL M$OPEN(REOPEN_DUMP);
PL6.E3A0      #001=DAA$ANLZ File=DAA$ANLZ.:E05TSI                                TUE 07/29/97 12:32 Page:21
      662    13776    5                    END;
      663    13777    5                 WHENALTRETURN DO;
      664    13778    5   BLAME_ERR:       CALL DAA$ERRMSG(B$TCB$->B$TCB.ALT$->B$ALT.ERR);
      665    13779    5                    END;
      666    13780    4                 END;
      667    13781    4              ELSE DO;
      668    13782    4                 CALL DAA$ERRMSG(%E$DA_DUMP_ONLY);
      669    13783    4                 END;
      670    13784    3            CASE(%DA_HKP_LIST);
      671    13785    3              CALL LIST_DUMPS(TOP);
      672    13786    3            CASE(%DA_HKP_FREE);
      673    13787    3              CBUF=FREETEXT(TOP.SUBLK$(0)->OUT.CODE);
      674    13788    4              IF TOP.SUBLK$(0)->OUT.NSUBLKS=1 THEN DO;
      675    13789    4                 SUBSTR(CBUF,SIZEC(FREETEXT(0)))=TOP.SUBLK$(0)->OUT.SUBLK$(0)->SYM.TEXT
             13789                          ;
      676    13790    4                 END;
      677    13791    3              FPT_FREE.CMD_=VECTOR(CBUF);
      678    13792    4              CALL M$YC(FPT_FREE) WHENALTRETURN DO;
      679    13793    4                 CALL DAA$ERRMSG(B$TCB$->B$TCB.ALT$->B$ALT.ERR);
      680    13794    4                 END;
      681    13795    3            CASE(%DA_HKP_DO);
      682    13796    4              IF TOP.SUBLK$(0)->SYM.COUNT>0 THEN DO;
      683    13797    4                 FPT_FREE.CMD_=VECTOR(TOP.SUBLK$(0)->SYM.TEXT);
      684    13798    5                 CALL M$YC(FPT_FREE) WHENALTRETURN DO;
      685    13799    5                    CALL DAA$ERRMSG(B$TCB$->B$TCB.ALT$->B$ALT.ERR);
      686    13800    5                    END;
      687    13801    4                 CALL M$SPRIV(FPT_PRIV);
      688    13802    4                 END;
      689    13803    3            END;
      690    13804        /**/
      691    13805    2   END HOUSEKEEPING;
      692    13806        /**/
      693    13807        %EJECT;
PL6.E3A0      #001=DAA$ANLZ File=DAA$ANLZ.:E05TSI                                TUE 07/29/97 12:32 Page:22
      694    13808        /**/
      695    13809    1   ANLZ_CMD: PROC(TOP);
      696    13810        /**/
      697    13811        %PARSE$OUT (NAME=TOP,STCLASS="");
      698    13856    2   DCL SELNODE UBIN;
      699    13857        /**/
      700    13858    3           IF NOT ENDFLG THEN DO;
      701    13859    3              CALL INSERT(HELLO,5,6,SUBSTR(B_VERSION.C,0,B_VERSION.L));
      702    13860    3              CALL M$WRITE(FPT_HELLO);
      703    13861    3              END;
      704    13862    2           ENDFLG='1'B;
      705    13863    2           DA_DFLT_SYMBOLS='1'B;
      706    13864    2           DA_SYSTAC2='0'B;
      707    13865    3           IF TOP.NSUBLKS=0 THEN DO;
      708    13866    3              CALL USERUNNING;
      709    13867    3              END;
      710    13868    3           ELSE DO I=0 TO TOP.NSUBLKS-1;
      711    13869    3              SYM$=TOP.SUBLK$(I);
      712    13870    4              DO CASE(SYM.CODE);
      713    13871    4               CASE(0);
      714    13872    4                 DA_DFLT_RADIX=8;
      715    13873    4                 CALL DAS$SYMINIT(MONFID);
      716    13874    4                 DA_MAPERR='0'B;
      717    13875    4                 IF SUBSTR(SYM.TEXT,0,3)='RUN' OR
      718    13876    5                   SUBSTR(SYM.TEXT,0,3)='run' THEN DO;
      719    13877    5                    CALL USERUNNING;
      720    13878    5                    END;
      721    13879    5                 ELSE DO;
      722    13880    5                    T$=ADDR(AFILE);
      723    13881    6                    IF SYM.COUNT=3 THEN DO;
      724    13882    6                       AFILE.FID.ID=SYM.TEXT;
      725    13883    6                       DA_SYSTAC2 = '1'B;
      726    13884    6                       END;
      727    13885    6                    ELSE DO;
      728    13886    7                       DO SELECT(SYM.TEXT);
      729    13887    7                          SELECT('LAST','Last','last');
      730    13888    8                          CALL M$MONINFO(FPT_MONINFO) WHENALTRETURN DO; END;
PL6.E3A0      #001=DAA$ANLZ File=DAA$ANLZ.:E05TSI                                TUE 07/29/97 12:32 Page:23
      731    13889    7                          AFILE.FID.VERSION=VLR_SITEINFO.VERSION#;
      732    13890    7                          CALL BINCHAR(AFILE.FID.ID,VLR_MONINFO.SCOUNT#);
      733    13891    7                          DA_SYSTAC2 = '1'B;
      734    13892    7                          SELECT('PREV','Prev','prev');
      735    13893    7                          SYM.COUNT=511;
      736    13894    7                          T$=ADDR(SYM.COUNT);
      737    13895    7                          SELECT('NEXT','Next','next');
      738    13896    7                          SYM.COUNT=0;
      739    13897    7                          T$=ADDR(SYM.COUNT);
      740    13898    7                          SELECT('@');
      741    13899    7                          SYM.COUNT=510;
      742    13900    7                          T$=ADDR(SYM.COUNT);
      743    13901    7                          SELECT(ELSE);
      744    13902    8                       IF SYM.COUNT=4 THEN DO;
      745    13903    8                          AFILE.FID.ID=SUBSTR(SYM.TEXT,1);
      746    13904    8                          SUBSTR(AFILE.FID.VERSION,3,1)=SYM.TEXT;
      747    13905    8                          DA_SYSTAC2 = '1'B;
      748    13906    8                          END;
      749    13907    8                       ELSE DO;
      750    13908    8                          T$=ADDR(SYM.COUNT);
      751    13909    8                          END;
      752    13910    7                          END;
      753    13911    6                       END;
      754    13912    6                    CALL DAM$DUMPFILE(T$->TC) WHENRETURN DO;
      755    13913    6                       DA_HDR.TITLEA=' ';
      756    13914    6                       DA_HDR.TITLE.L=SIZEC(DA_HDR.TITLE)-1;
      757    13915    6                       CALL INSERT(DA_HDR.TITLE.SYSTEM,,,'CP-6 ',RVBUFF.AMONID.VER);
      758    13916    7                       DO CASE(RVBUFF.RCODE.SEV);
      759    13917    7                        CASE(3);
      760    13918    7                          DA_HDR.TITLE.CTYP='FE SNAP';
      761    13919    7                        CASE(4);
      762    13920    7                          DA_HDR.TITLE.CTYP='ZAP';
      763    13921    7                        CASE(5);
      764    13922    7                          DA_HDR.TITLE.CTYP='SNAP';
      765    13923    7                        CASE(6);
      766    13924    7                          DA_HDR.TITLE.CTYP='SUA';
      767    13925    7                        CASE(7);
PL6.E3A0      #001=DAA$ANLZ File=DAA$ANLZ.:E05TSI                                TUE 07/29/97 12:32 Page:24
      768    13926    7                          DA_HDR.TITLE.CTYP='SCREECH';
      769    13927    7                        END;
      770    13928    6                       SCODE=RVBUFF.RCODE;
      771    13929    7                       DO J=0 TO 2;
      772    13930    7                          IF SCODE.FCG(J)=0 THEN
      773    13931    7                             DA_HDR.TITLE.SCODE.FCG(J)=32;
      774    13932    7                          ELSE IF SCODE.FCG(J)>48 THEN
      775    13933    7                                DA_HDR.TITLE.SCODE.FCG(J)=SCODE.FCG(J);
      776    13934    7                             ELSE
      777    13935    7                                DA_HDR.TITLE.SCODE.FCG(J)=SCODE.FCG(J)+64;
      778    13936    7                          END;
      779    13937    6                       DA_HDR.TITLE.SCODE.D1='-';
      780    13938    6                       IF SCODE.MON THEN
      781    13939    6                          DA_HDR.TITLE.SCODE.M='M';
      782    13940    6                       ELSE
      783    13941    6                          DA_HDR.TITLE.SCODE.M='0';
      784    13942    6                       CALL BINCHAR(DA_HDR.TITLE.SCODE.CODE,SCODE.CODE);
      785    13943    6                       DA_HDR.TITLE.SCODE.D2='-';
      786    13944    6                       CALL BINCHAR(DA_HDR.TITLE.SCODE.SEV,SCODE.SEV);
      787    13945    6                       TSTMP=RVBUFF.UTS1;
      788    13946    6                       FPT_TIME.V.SOURCE#=%UTS#;
      789    13947    6                       CALL M$TIME(FPT_TIME);
      790    13948    6                       DA_HDR.TITLE.DFNAME=DCBADDR(DCBNUM(M$DUMPFILE))->F$DCB.NAME#.C;
      791    13949    6                       IF SUBSTR(RVBUFF.AMONID.VER,0,1) <= 'D' THEN
      792    13950    6                          DA_MAXCHANS = %N_MAXCHANS/2;
      793    13951    6                       ELSE
      794    13952    6                          DA_MAXCHANS = %N_MAXCHANS;
      795    13953    7                       CALL DAS$SDMONPTR(%M#B_SITEINFO,T$) WHENRETURN DO;
      796    13954    8                          CALL DAM$MAP(T$,T$,,,DA_MONISDATA) WHENRETURN DO;
      797    13955    8                             VLR_SITEINFO=T$->VLR$SITEINFO;
      798    13956    8                             END;
      799    13957    7                          END;
      800    13958    6                       END;
      801    13959    6                    WHENALTRETURN DO;      /* FROM DAM$DUMPFILE */
      802    13960    6                       CALL DAA$ERRMSG;
      803    13961    6                       CALL USERUNNING;
      804    13962    6                       END;
PL6.E3A0      #001=DAA$ANLZ File=DAA$ANLZ.:E05TSI                                TUE 07/29/97 12:32 Page:25
      805    13963    5                    END;
      806    13964    4               CASE(1);
      807    13965    4                 DA_DFLT_SYMBOLS='0'B;
      808    13966    4                 CALL DAS$SYMINIT(SYM.COUNT);
      809    13967    4                 MONISDATABYTES=DA_HEADREC.VDPGS*4096;
      810    13968    4                 DA_MONISDATA=VECTOR(MONISDATA);
      811    13969    4               END;
      812    13970    3              END;
      813    13971    3           IF DA_DUMPFILE THEN DO;
      814    13972    3              CALL DAF$WRITE(VECTOR(ACMDFMT),
      815    13973    3                VECTOR(DA_HDR.TITLE.DFNAME),
      816    13974    3                VECTOR(DCBADDR(DCBNUM(M$DUMPFILE))->F$DCB.ACCT#),
      817    13975    3                VECTOR(RVBUFF.RCODE),
      818    13976    3                VECTOR(RVBUFF.UTS1),
      819    13977    3                VECTOR(VLR_SITEINFO.SITE_NAME#));
      820    13978    4              IF DCBADDR(DCBNUM(M$DUMPFILE))->F$DCB.TYPE# ~= '  ' THEN DO;
      821    13979    4                 CALL DAF$WRITE(VECTOR(BLAMEFMT),
      822    13980    4                   VECTOR(DCBADDR(DCBNUM(M$DUMPFILE))->F$DCB.TYPE#));
      823    13981    4                 END;
      824    13982    3              SELNODE=0;
      825    13983    4              DO I=1 TO NODEDIR.N;
      826    13984    5                 DO CASE(NODEDIR.NODE.TYPE(I));
      827    13985    5                  CASE(%R_HOSTNODE#);
      828    13986    6                    IF NODEDIR.NODE.NODENAME(I)='HOST' THEN DO;
      829    13987    6                       NODEDIR.NODE.NODENAME(I)=VLR_MONINFO.NODE_NAME;
      830    13988    6                       END;
      831    13989    5                  CASE(%R_FEPNODE#);
      832    13990    5                    IF SELNODE=0 THEN SELNODE=I;
      833    13991    5                    CALL CHARBIN(J,NODEDIR.NODE.NODENAME(I));
      834    13992    5                    FPT_NODEINFO.V.NODENAME#=' ';
      835    13993    5                    FPT_NODEINFO.V.NODENUM#=J;
      836    13994    6                    CALL M$NODEINFO(FPT_NODEINFO) WHENRETURN DO;
      837    13995    6                       NODEDIR.NODE.NODENAME(I)=VLR_NODEINFO.NODENAME#;
      838    13996    6                       END;
      839    13997    5                  END;
      840    13998    4                 END;
      841    13999    3              IF SELNODE=0 THEN SELNODE=1;
PL6.E3A0      #001=DAA$ANLZ File=DAA$ANLZ.:E05TSI                                TUE 07/29/97 12:32 Page:26
      842    14000    3              CALL DAF$WRITE(VECTOR(NODEFMT),VECTOR(NODEDIR));
      843    14001    3              END;
      844    14002    2           ANLZTXT='ANLZ';
      845    14003    3           IF DA_DUMPFILE THEN DO;
      846    14004    3              FPT_UNFID.TEXTFID_=VECTOR(SUBSTR(ANLZTXT,6,40));
      847    14005    3              FPT_UNFID.V.DCB#=DCBNUM(M$DUMPFILE);
      848    14006    4              CALL M$UNFID(FPT_UNFID) WHENALTRETURN DO; END;
      849    14007    3              END;
      850    14008    3           ELSE DO;
      851    14009    3              SUBSTR(ANLZTXT,6,40)='RUNNING';
      852    14010    3              END;
      853    14011    2           SUBSTR(ANLZTXT,46,1)=',';
      854    14012    2           FPT_UNFID.TEXTFID_=VECTOR(SUBSTR(ANLZTXT,47,40));
      855    14013    2           FPT_UNFID.V.DCB#=DCBNUM(F$SYMBOL);
      856    14014    3           CALL M$UNFID(FPT_UNFID) WHENALTRETURN DO; END;
      857    14015    3           IF DA_DELTA_FLG THEN DO;
      858    14016    3              FPT_ALIB.CMD_=VECTOR(ANLZTXT);
      859    14017    3              FPT_ALIB.V.RETRN#='1'B;
      860    14018    3              CALL M$ALIB(FPT_ALIB);
      861    14019    3              END;
      862    14020    2           IF DA_DUMPFILE THEN CHAR8=NODEDIR.NODE.NODENAME(SELNODE);
      863    14021    2           ELSE CHAR8='HOST';
      864    14022    2           CALL SELECT_NODE(CHAR8);
      865    14023    2           CALL DAF$WRITE(VECTOR(SELFMT),VECTOR(VLR_NODEINFO.NODENAME#),VECTOR(
             14023                    VLR_NODEINFO.NODENUM#));
      866    14024    2           RETURN;
      867    14025        /**/
      868    14026    2   END ANLZ_CMD;
      869    14027        %EJECT;
PL6.E3A0      #001=DAA$ANLZ File=DAA$ANLZ.:E05TSI                                TUE 07/29/97 12:32 Page:27
      870    14028    1   PRINT_TRAP: PROC;
      871    14029    3           IF DA_INITIALIZED THEN DO;
      872    14030    3              CALL DAF$INIT(ANLZTRAP);
      873    14031    3              CALL DAF$WRITE(VECTOR(TRAPHDR));
      874    14032    3              TRAPFRAME=B$TCB$->B$TCB.STK$->B$EXCFR;
      875    14033    4              IF NOT DCBADDR(DAF_DCB#)->F$DCB.DDEV.UCOUT# THEN DO;
      876    14034    4                 CALL DAF$WRITE(VECTOR(TRAPHDR1));
      877    14035    4                 CALL DAB$SSFRAME(B$TCB$->B$TCB.STK$->B$EXCFR);
      878    14036    4                 END;
      879    14037    3              CALL DAA$ERRMSG(B$TCB$->B$TCB.STK$->B$EXCFR.ERR);
      880    14038    3              END;
      881    14039    3           ELSE DO;
      882    14040    3              CALL DAA$ERRMSG(%E$DA_NOT_INIT);
      883    14041        /*E*   ERROR:   DAA-E$DA_NOT_INIT
      884    14042               MESSAGE: ANLZ trapped because it was not initialized.
      885    14043               MESSAGE1: You probably don't have the privilege to run ANLZ.
      886    14044                                                                          */
      887    14045    3              END;
      888    14046    2           DA_TRAPPED='0'B;
      889    14047    2           CALL M$CLRSTK;
      890    14048    3           IF TRAPABRT THEN DO;
      891    14049    3              CALL DAF$WRITE(VECTOR(TRAPMSG));
      892    14050    3              CALL M$XXX;
      893    14051    3              END;
      894    14052    2           TRAPABRT='1'B;
      895    14053    2           RETURN;
      896    14054    2   END PRINT_TRAP;
      897    14055        %EJECT;
PL6.E3A0      #001=DAA$ANLZ File=DAA$ANLZ.:E05TSI                                TUE 07/29/97 12:32 Page:28
      898    14056    1   USERUNNING: PROC;
      899    14057    2           IF DA_INITIALIZED OR DA_DUMPFILE THEN
      900    14058    2              CALL DAM$RUNNING;
      901    14059    2           ELSE
      902    14060    2              CALL DAM$INIT;
      903    14061    2           DA_HDR.TITLEA=' ';
      904    14062    2           DA_HDR.TITLE.L=SIZEC(DA_HDR.TITLE)-1;
      905    14063    2           CALL CONCAT(DA_HDR.TITLE.SYSTEM,'CP-6 ',VLR_SITEINFO.VERSION#);
      906    14064    2           DA_HDR.TITLE.CTYP='RUNNING';
      907    14065    2           DA_HDR.TITLE.SCODEA='SYSTEM';
      908    14066    2           FPT_TIME.V.SOURCE#=%CLOCK#;
      909    14067    2           CALL M$TIME(FPT_TIME);
      910    14068    3           CALL M$MONINFO(FPT_MONINFO) WHENALTRETURN DO; END;
      911    14069    2           DA_MAXCHANS = %N_MAXCHANS;
      912    14070    2           RETURN;
      913    14071    2   END USERUNNING;
      914    14072        %EJECT;
PL6.E3A0      #001=DAA$ANLZ File=DAA$ANLZ.:E05TSI                                TUE 07/29/97 12:32 Page:29
      915    14073    1   USER_REPORT: PROC ALTRET;
      916    14074        /**/
      917    14075    2   DCL URFMT CHAR(0) CONSTANT INIT('DISPLAYS FOR USER .%O');
      918    14076    2   DCL UIDFMT CHAR(0) CONSTANT INIT('SYSID = %D %>A,%>A');
      919    14077    2   DCL SYSID SBIN;
      920    14078    2   DCL RPT BIT(1);
      921    14079    2   DCL 1 URTBUF,
      922    14080    2         2 L UBIN BYTE UNAL,
      923    14081    2         2 C CHAR(43);
      924    14082        %F_FDS (NAME=FDS,STCLASS=STATIC);
      925    14195        %REPORT (NAME=URRPT,STCLASS=STATIC);
      926    14261        /**/
      927    14262    2           RPT='1'B;
      928    14263    2           GOTO CONT;
      929    14264    2   USER_ID: ENTRY ALTRET;
      930    14265    2           RPT='0'B;
      931    14266    2   CONT:   ;
      932    14267    2           IF NOT DA_DUMPFILE THEN CALL DAM$FREEM;
      933    14268    2           CALL DAM$MAP(B$JIT$,JIT$,-DA_CUN,0) ALTRET(ALT);
      934    14269    2           SYSID=JIT$->B$JIT.SYSID;
      935    14270    3           IF RPT THEN DO;
      936    14271    3              FDS.BUF_=VECTOR(URTBUF);
      937    14272    3              CALL X$WRITE(FDS,VECTOR(URFMT),VECTOR(DA_CUN));
      938    14273    3              URTBUF.L=FDS.BUFX-1;
      939    14274    3              URRPT.TITLE$=ADDR(URTBUF);
      940    14275    3              URRPT.HEAD$=ADDR(NIL);
      941    14276    3              CALL DAF$INIT(URRPT);
      942    14277    3              END;
      943    14278    2           CALL DAF$WRITE(VECTOR(UIDFMT),VECTOR(SYSID),
      944    14279    2             VECTOR(JIT$->B$JIT.ACCN),
      945    14280    2             VECTOR(JIT$->B$JIT.UNAME));
      946    14281    2           RETURN;
      947    14282    2   ALT:    ALTRETURN;
      948    14283    2   END USER_REPORT;
      949    14284        %EJECT;
PL6.E3A0      #001=DAA$ANLZ File=DAA$ANLZ.:E05TSI                                TUE 07/29/97 12:32 Page:30
      950    14285    1   SETLSR: PROC(TOP,LSR,LSNAME);
      951    14286        %PARSE$OUT (NAME=TOP,STCLASS="");
      952    14331    2   DCL 1 LSR,
      953    14332    2         2 BOUND UBIN(20) UNAL,
      954    14333    2         2 FLAGS BIT(9) UNAL,
      955    14334    2         2 WSR UBIN(3) UNAL,
      956    14335    2         2 TYPE UBIN(4) UNAL,
      957    14336    2         2 BASE UBIN;
      958    14337    2   DCL LSNAME CHAR(3);
      959    14338    2   DCL P$ PTR;
      960    14339    2   DCL 1 P REDEF P$,
      961    14340    2         2 OFFSET UBIN(20) UNAL,
      962    14341    2         2 * UBIN(16) UNAL;
      963    14342    2   DCL BIT72 BIT(72) BASED ALIGNED;
      964    14343    2   DCL LSRFMT CHAR(0) CONSTANT INIT('%A: %.1F');
      965    14344        /**/
      966    14345    3           IF TOP.NSUBLKS>0 THEN DO;
      967    14346    3              CALL DAA$LOC(TOP.SUBLK$(0)->OUT.SUBLK$(0)->OUT,P$) ALTRET(BADLS);
      968    14347    4              DO CASE(TOP.SUBLK$(0)->OUT.CODE);
      969    14348    4               CASE(%DA_HKP_LSRAT);
      970    14349    4                 CALL DAM$MAP(P$,P$) ALTRET(BADLS);
      971    14350    4                 LSR=P$->BIT72;
      972    14351    4               CASE(%DA_HKP_LSRIS);
      973    14352    4                 CALL DAM$GETDESC(P$,I,,,LSR) ALTRET(BADLS);
      974    14353    4                 LSR.BASE=LSR.BASE+P.OFFSET;
      975    14354    4                 LSR.BOUND=LSR.BOUND-P.OFFSET;
      976    14355    4               END;
      977    14356    3              END;
      978    14357    2           CALL DAF$WRITE(VECTOR(LSRFMT),VECTOR(LSNAME),VECTOR(LSR));
      979    14358    2           RETURN;
      980    14359    2   BADLS:
      981    14360    2           CALL DAA$ERRMSG(%E$DA_NOT_LS);
      982    14361        /*E*   ERROR:   DAA-E$DA_NOT_LS
      983    14362               MESSAGE: Cannot setup descriptor segment.
      984    14363                                                                          */
      985    14364    2           RETURN;
      986    14365    2   END SETLSR;
PL6.E3A0      #001=DAA$ANLZ File=DAA$ANLZ.:E05TSI                                TUE 07/29/97 12:32 Page:31
      987    14366        %EJECT;
PL6.E3A0      #001=DAA$ANLZ File=DAA$ANLZ.:E05TSI                                TUE 07/29/97 12:32 Page:32
      988    14367    1   SETDCB: PROC(TOP,DCB#,FUN) ALTRET;
      989    14368        %PARSE$OUT (NAME=TOP,STCLASS="");
      990    14413    2   DCL DCB# UBIN;
      991    14414    2   DCL FUN UBIN;
      992    14415        %FPT_OPEN (SCRUB=YES,ACCT=VLP_ACCT,NAME=VLP_NAME,
      993    14416                   PASS=VLP_PASS,SN=VLP_SN,WSN=VLP_WSN);
      994    14525        %VLP_ACCT;
      995    14538        %VLP_NAME;
      996    14565        %VLP_PASS;
      997    14578        %VLP_SN (N=1);
      998    14591        %VLP_WSN;
      999    14604        %FPT_OPEN (FPTN=FPT_SCRUB,SCRUB=YES,REASSIGN=YES);
     1000    14713        %FPT_FID (ACCT=VLP_ACCT,
     1001    14714                 ASN="FPT_OPEN.V.ASN#",
     1002    14715                 NAME=VLP_NAME,
     1003    14716                 PASS=VLP_PASS,
     1004    14717                 RES="FPT_OPEN.V.RES#",
     1005    14718                 WSN=VLP_WSN,
     1006    14719                 SN=VLP_SN,
     1007    14720                 RESULTS=VLR_FID);
     1008    14743        %VLR_FID;
     1009    14762        /**/
     1010    14763    2           FPT_FID.TEXTFID_=VECTOR(TOP.SUBLK$(1)->SYM.TEXT);
     1011    14764    3           CALL M$FID(FPT_FID) WHENALTRETURN DO; ALTRETURN; END;
     1012    14765    2           FPT_OPEN.V.FUN#=FUN;
     1013    14766    2           FPT_OPEN.V.EXIST#=TOP.SUBLK$(0)->OUT.CODE;
     1014    14767    2           FPT_OPEN.V.DCB#=DCB#;
     1015    14768    2           FPT_CLOSELO.V.DCB#=DCB#;
     1016    14769    2           IF DCBADDR(DCB#)->F$DCB.FCD# THEN
     1017    14770    3              CALL M$CLOSE(FPT_CLOSELO) WHENALTRETURN DO; ALTRETURN; END;
     1018    14771    3           CALL M$OPEN(FPT_OPEN) WHENALTRETURN DO;
     1019    14772    3              CALL XUR$ERRMSG(B$TCB$->B$TCB.ALT$->B$ALT.ERR,DCB#);
     1020    14773    3              FPT_SCRUB.V.DCB#=DCB#;
     1021    14774    4              CALL M$CLOSE(FPT_CLOSELO) WHENALTRETURN DO; END;
     1022    14775    4              CALL M$OPEN(FPT_SCRUB) WHENALTRETURN DO; END;
     1023    14776    3              END;
     1024    14777    2           RETURN;
PL6.E3A0      #001=DAA$ANLZ File=DAA$ANLZ.:E05TSI                                TUE 07/29/97 12:32 Page:33
     1025    14778    2   END SETDCB;
     1026    14779        /**/
     1027    14780        %EJECT;
PL6.E3A0      #001=DAA$ANLZ File=DAA$ANLZ.:E05TSI                                TUE 07/29/97 12:32 Page:34
     1028    14781        /**/
     1029    14782    1   SELECT_NODE: PROC(NODENAME) ALTRET;
     1030    14783        /**/
     1031    14784    2   DCL NODENAME CHAR(8) CALIGNED;
     1032    14785        /**/
     1033    14786    2   DCL I SBIN;
     1034    14787    2   DCL NODETYPE SBIN;
     1035    14788    2   DCL FOUND BIT(1) ALIGNED;
     1036    14789        /**/
     1037    14790        %FPT_OPEN (FPTN=FPT_OPNFPRG,DCB=M$FPRG,
     1038    14791                   ORG=FPRG,ASN=DEVICE,FUN=CREATE,FPRG=VLP_FPRG);
     1039    14900        %VLP_FPRG (FPTN=VLP_FPRG,
     1040    14901                   NAME='ANLZ_FPRG');
     1041    14922        /**/
     1042    14923    2   AGAIN:  NODETYPE=-1;
     1043    14924    2           IF NODENAME='HOST' THEN
     1044    14925    2              FPT_NODEINFO.V.NODENAME#=VLR_MONINFO.NODE_NAME;
     1045    14926    2           ELSE
     1046    14927    2              FPT_NODEINFO.V.NODENAME#=NODENAME;
     1047    14928    2           FOUND = '1'B;
     1048    14929    3           CALL M$NODEINFO(FPT_NODEINFO) WHENALTRETURN DO;
     1049    14930    3              FOUND = '0'B;
     1050    14931    3              VLR_NODEINFO.NODENUM# = 0;
     1051    14932    3              VLR_NODEINFO.NODENAME#=NODENAME;
     1052    14933    3              END;
     1053    14934    3           IF DA_DUMPFILE THEN DO;
     1054    14935    4              DO I=1 TO NODEDIR.N;
     1055    14936    4                 IF VLR_NODEINFO.NODENAME#=NODEDIR.NODE.NODENAME(I) THEN EXIT;
     1056    14937    4                 END;
     1057    14938    4              IF I<=NODEDIR.N THEN DO;
     1058    14939    4                 NODETYPE=NODEDIR.NODE.TYPE(I);
     1059    14940    5                 DO CASE(NODETYPE);
     1060    14941    5                  CASE(%R_HOSTNODE#);
     1061    14942    5                    CALL DAM$SELECT(I);
     1062    14943    5                  CASE(%R_FEPNODE#);
     1063    14944    5                    CALL DBM$SELECT(I);
     1064    14945    5                  END;
PL6.E3A0      #001=DAA$ANLZ File=DAA$ANLZ.:E05TSI                                TUE 07/29/97 12:32 Page:35
     1065    14946    4                 END;
     1066    14947    3              END;
     1067    14948    3           ELSE DO;
     1068    14949    4              IF (VLR_NODEINFO.HOST# AND FOUND) OR NODENAME='HOST' THEN DO;
     1069    14950    4                 NODETYPE=%R_HOSTNODE#;
     1070    14951    5                 IF VLR_NODEINFO.NODENAME# ~= VLR_MONINFO.NODE_NAME THEN DO;
     1071    14952    5                    CALL DAA$ERRMSG(%E$DA_HOST_TOO_FAR);
     1072    14953
     1073    14954        /*E*       ERROR:  DAA-E$DA_HOST_TOO_FAR
     1074    14955                   MESSAGE: I can't see that far.
     1075    14956                   MESSAGE1:  ANLZing a remote host is not implemented.
     1076    14957        */
     1077    14958    5                    ALTRETURN;
     1078    14959    5                    END;
     1079    14960    4                 END;
     1080    14961    4              ELSE DO;
     1081    14962    4                 NODETYPE=%R_FEPNODE#;
     1082    14963    4                 FPT_OPNFPRG.V.RES#='FE';
     1083    14964    4                 I=VLR_NODEINFO.NODENUM#;
     1084    14965    4                 CALL BINCHAR(SUBSTR(FPT_OPNFPRG.V.RES#,2,2),I);
     1085    14966    4                 VLP_FPRG.ACCT#=DCBADDR(DCBNUM(M$LM))->F$DCB.ACCT#;
     1086    14967    5                 IF DCBADDR(DCBNUM(M$FPRG))->F$DCB.FCD# THEN DO;
     1087    14968    5                    CALL M$CLOSE(FPT_CLSFPRG);
     1088    14969    5                    END;
     1089    14970    4                 CALL M$OPEN(FPT_OPNFPRG)
     1090    14971    5                 WHENALTRETURN DO;
     1091    14972    5                    VLP_FPRG.ACCT# = ':SYS    ';
     1092    14973    6                    CALL M$OPEN(FPT_OPNFPRG) WHENALTRETURN DO;
     1093    14974    7                       IF FOUND THEN DO;
     1094    14975    7                          CALL DAA$ERRMSG (B$TCB$->B$TCB.ALT$->B$ALT.ERR);
     1095    14976    7                          ALTRETURN;
     1096    14977    7                          END;
     1097    14978    6                       CALL DAA$ERRMSG (%E$DA_NO_NODE);
     1098    14979    6                       NODENAME = 'HOST';
     1099    14980    6                       GOTO AGAIN;
     1100    14981    6                       END;
     1101    14982    5                    END;
PL6.E3A0      #001=DAA$ANLZ File=DAA$ANLZ.:E05TSI                                TUE 07/29/97 12:32 Page:36
     1102    14983    4                 CALL DBM$SELECT(I);
     1103    14984    4                 END;
     1104    14985    3              END;
     1105    14986    3           DO CASE(NODETYPE);
     1106    14987    3            CASE(%R_HOSTNODE#);
     1107    14988    3              PARSENODE$=ADDR(ANLZ_CMD);
     1108    14989    3              DA_DFLT_RADIX=8;
     1109    14990    3              IF DA_DFLT_SYMBOLS THEN CALL DAS$SYMINIT(MONFID);
     1110    14991    3            CASE(%R_FEPNODE#);
     1111    14992    3              PARSENODE$=ADDR(FEPANLZ_CMD);
     1112    14993    3              DA_DFLT_RADIX=16;
     1113    14994    3              IF DA_DFLT_SYMBOLS
     1114    14995    4              THEN DO;
     1115    14996    4                 I=0;
     1116    14997    4                 CALL DBM$SETSYMBOLS(I);
     1117    14998    4                 END;
     1118    14999    3            CASE(ELSE);
     1119    15000    3              CALL DAA$ERRMSG(%E$DA_NO_NODE);
     1120    15001        /*E*          ERROR:  DAA-E$DA_NO_NODE
     1121    15002                      MESSAGE:  Specified node not found.
     1122    15003        */
     1123    15004    3              ALTRETURN;
     1124    15005    3            END;
     1125    15006    2           PRMPT.NODENAME=VLR_NODEINFO.NODENAME#;
     1126    15007    2           RETURN;
     1127    15008        /**/
     1128    15009    2   END SELECT_NODE;
     1129    15010        /**/
     1130    15011        %EJECT;
PL6.E3A0      #001=DAA$ANLZ File=DAA$ANLZ.:E05TSI                                TUE 07/29/97 12:32 Page:37
     1131    15012
     1132    15013    1   STAR_INFO: PROC(TOP);
     1133    15014
     1134    15015        %PARSE$OUT (NAME=TOP,STCLASS=PARAM);
     1135    15060
     1136    15061
     1137    15062    3           IF NOT DA_DUMPFILE THEN DO;
     1138    15063    3              CALL DAA$ERRMSG(%E$DA_DUMP_ONLY);
     1139    15064        /*E*          ERROR:  DAA-E$DA_DUMP_ONLY
     1140    15065                      MESSAGE:  Command only allowed when ANLZing a dump file.
     1141    15066        */
     1142    15067    3              RETURN;
     1143    15068    3              END;
     1144    15069    2           OPENSTAR.ACCT_=VECTOR(ERASE);
     1145    15070    3           CALL M$OPEN(OPENSTAR) WHENALTRETURN DO;
     1146    15071    3              OPENSTAR.ACCT_=VECTOR(STARACCT);
     1147    15072    4              CALL M$OPEN(OPENSTAR) WHENALTRETURN DO;
     1148    15073    4                 CALL DAA$ERRMSG(B$TCB$->B$TCB.ALT$->B$ALT.ERR);
     1149    15074    4                 RETURN;
     1150    15075    4                 END;
     1151    15076    3              END;
     1152    15077    2           STARKEY.K=SCODE.FCG(0)*64000+SCODE.FCG(1)*1000+SCODE.FCG(2);
     1153    15078    2           READSTAR.BUF_=VECTOR(CBUF);
     1154    15079    2           CBUF=' ';
     1155    15080    3           CALL M$READ(READSTAR) WHENALTRETURN DO;
     1156    15081    3              STARKEY.K=STARKEY.K-MOD(STARKEY.K,1000);
     1157    15082    4              CALL M$READ(READSTAR) WHENALTRETURN DO;
     1158    15083    4                 STARKEY.K=BITBIN(DA_DFLT_RADIX=16)*1000;
     1159    15084    5                 CALL M$READ(READSTAR) WHENALTRETURN DO;
     1160    15085    5                    CALL DAA$ERRMSG(%E$DA_STAR_ERR);
     1161    15086        /*E*          ERROR:  DAA-E$DA_STAR_ERR
     1162    15087                      MESSAGE:  No command found in ANLZ_STAR for this screech code.
     1163    15088        */
     1164    15089    6                    CALL M$CLOSE(CLOSESTAR) WHENALTRETURN DO; END;
     1165    15090    5                    RETURN;
     1166    15091    5                    END;
     1167    15092    4                 END;
PL6.E3A0      #001=DAA$ANLZ File=DAA$ANLZ.:E05TSI                                TUE 07/29/97 12:32 Page:38
     1168    15093    3              END;
     1169    15094    3           CALL M$CLOSE(CLOSESTAR) WHENALTRETURN DO; END;
     1170    15095    2           CALL DAF$WRITE(VECTOR(STARFMT),VECTOR(CBUF));
     1171    15096    2           STARTXT$=ADDR(CBUF);
     1172    15097    2           RETURN;
     1173    15098
     1174    15099    2   END STAR_INFO;
     1175    15100        %EJECT;
PL6.E3A0      #001=DAA$ANLZ File=DAA$ANLZ.:E05TSI                                TUE 07/29/97 12:32 Page:39
     1176    15101
     1177    15102    1   LIST_DUMPS: PROC(TOP);
     1178    15103
     1179    15104        %PARSE$OUT (NAME=TOP,STCLASS=PARAM);
     1180    15149        %CODE10;
     1181    15153
     1182    15154        %FPT_OPEN (FPTN=OPEN_NEXT,DCB=M$STAR,NXTF=YES,TEST=YES,ACCT=DFACCT,ASN=FILE);
     1183    15263        %VLP_NAME (FPTN=DFNAME,NAME=':DF',STCLASS=CONSTANT);
     1184    15290        %VLP_ACCT (FPTN=DFACCT,ACCT=':SYSTAC');
     1185    15303
     1186    15304    2   DCL FMT1 CHAR(0) CONSTANT INIT('%\%>A  %A  %A%N-');
     1187    15305    2   DCL FMT2 CHAR(0) CONSTANT INIT('%\%/');
     1188    15306    2   DCL FMT3 CHAR(0) CONSTANT INIT('%\%/And more from :SYSTAC2...%/');
     1189    15307    2   DCL FNUM SBIN;
     1190    15308    2   DCL DCB$ PTR;
     1191    15309    2   DCL N SBIN;
     1192    15310    2   DCL SCODE_ VECTOR;
     1193    15311    2   DCL BLANKS CHAR(0) CONSTANT INIT('    ');
     1194    15312    2   DCL FIT$ PTR;
     1195    15313    2   DCL TYPE CHAR(2);
     1196    15314    2   DCL SYSTAC2_HEAD_FLG BIT(1) ALIGNED;
     1197    15315
     1198    15316
     1199    15317    2           SYSTAC2_HEAD_FLG = '0'B;
     1200    15318    3           IF TOP.NSUBLKS=0 THEN DO;
     1201    15319    3              TYPE='??';
     1202    15320    3              END;
     1203    15321    3           ELSE DO;
     1204    15322    4              DO CASE(TOP.SUBLK$(0)->OUT.CODE);
     1205    15323    4               CASE(%DA_LIST_UNASSIGNED);
     1206    15324    4                 TYPE='  ';
     1207    15325    4               CASE(%DA_LIST_TYPE);
     1208    15326    4                 TYPE=TOP.SUBLK$(0)->OUT.SUBLK$(0)->SYM.TEXT;
     1209    15327    4               CASE(%DA_LIST_ME);
     1210    15328    5                 IF SUBSTR(B$JIT.ACCN,3)=B$JIT.HPSN THEN DO;
     1211    15329    5                    CALL CONCAT(TYPE,SUBSTR(B$JIT.ACCN,0,1),SUBSTR(B$JIT.ACCN,2,1));
     1212    15330    5                    END;
PL6.E3A0      #001=DAA$ANLZ File=DAA$ANLZ.:E05TSI                                TUE 07/29/97 12:32 Page:40
     1213    15331    5                 ELSE DO;
     1214    15332    5                    TYPE=B$JIT.ACCN;
     1215    15333    5                    END;
     1216    15334    4               END;
     1217    15335    3              END;
     1218    15336    2           DCB$=DCBADDR(DCBNUM(M$STAR));
     1219    15337    2           IF SUBSTR(TYPE,0,1)='@' THEN SUBSTR(TYPE,0,1)='?';
     1220    15338    2           IF TYPE~='?2' THEN DFACCT.ACCT# = ':SYSTAC ';
     1221    15339    2           ELSE GOTO OPEN3;
     1222    15340    2   OPEN1:  FNUM=0;
     1223    15341    2           OPEN_NEXT.NAME_=VECTOR(DFNAME);
     1224    15342    2           OPEN_NEXT.FPARAM_=VECTOR(TRAPFRAME);
     1225    15343    3           CALL M$OPEN(OPEN_NEXT) WHENRETURN DO;
     1226    15344    3              OPEN_NEXT.NAME_=VECTOR(NIL);
     1227    15345    4              DO WHILE(SUBSTR(DCB$->F$DCB.NAME#.C,0,3)=DFNAME.NAME#);
     1228    15346    5                 IF DCB$->F$DCB.TYPE#=TYPE OR SUBSTR(TYPE,0,1)='?' THEN DO;
     1229    15347    6                    IF SYSTAC2_HEAD_FLG THEN DO;
     1230    15348    6                       CALL DAF$WRITE (VECTOR(FMT3));
     1231    15349    6                       SYSTAC2_HEAD_FLG = '0'B;
     1232    15350    6                       END;
     1233    15351    5                    FIT$=ADDR(TRAPFRAME);
     1234    15352    6                    CALL XSF$LOCCODT(FIT$,10) WHENRETURN DO;
     1235    15353    6                       SCODE_=VECTOR(FIT$->CODE10.ACSVEH.T);
     1236    15354    6                       END;
     1237    15355    6                    WHENALTRETURN DO;
     1238    15356    6                       SCODE_=VECTOR(BLANKS);
     1239    15357    6                       END;
     1240    15358    5                    N=40+39*FNUM;
     1241    15359    5                    CALL DAF$WRITE(VECTOR(FMT1),
     1242    15360    5                      VECTOR(DCB$->F$DCB.NAME#.C),
     1243    15361    5                      SCODE_,
     1244    15362    5                      VECTOR(DCB$->F$DCB.TYPE#),
     1245    15363    5                      VECTOR(N));
     1246    15364    5                    FNUM=MOD(FNUM+1,2);
     1247    15365    6                    IF FNUM=0 THEN DO;
     1248    15366    6                       CALL DAF$WRITE(VECTOR(FMT2));
     1249    15367    6                       END;
PL6.E3A0      #001=DAA$ANLZ File=DAA$ANLZ.:E05TSI                                TUE 07/29/97 12:32 Page:41
     1250    15368    5                    END;
     1251    15369    5   OPEN2:        CALL M$OPEN(OPEN_NEXT) WHENALTRETURN DO;
     1252    15370    5                    IF B$TCB$->B$TCB.ALT$->B$ALT.ERR.ERR# = %E$FDEOF THEN GOTO DONE;
     1253    15371    5                    IF FNUM=1 THEN CALL DAF$WRITE (VECTOR(FMT2));
     1254    15372    5                    CALL DAA$ERRMSG (B$TCB$->B$TCB.ALT$->B$ALT.ERR);
     1255    15373    5                    FNUM=0;
     1256    15374    5                    GOTO OPEN2;
     1257    15375    5                    END;
     1258    15376    4                 END;
     1259    15377    4   DONE:      IF FNUM=1 THEN DO;
     1260    15378    4                 CALL DAF$WRITE(VECTOR(FMT2));
     1261    15379    4                 END;
     1262    15380    3              END;
     1263    15381    2           IF DFACCT.ACCT# = ':SYSTAC' AND TYPE~='?1' THEN
     1264    15382    3           DO;
     1265    15383    3   OPEN3:     ;
     1266    15384    3              DFACCT.ACCT# = ':SYSTAC2';
     1267    15385    3              SYSTAC2_HEAD_FLG = '1'B;
     1268    15386    3              GOTO OPEN1;
     1269    15387    3              END;
     1270    15388    2           RETURN;
     1271    15389
     1272    15390    2   END LIST_DUMPS;
     1273    15391        /**/
     1274    15392    1   END DAA$ANLZ;
     1275    15393        %EOD;

PL6.E3A0      #001=DAA$ANLZ File=DAA$ANLZ.:E05TSI                                TUE 07/29/97 12:32 Page:42
--  Include file information  --

   FM$FIT.:E05TOU  is referenced.
   B$JIT.:E05TOU  cannot be made into a system file and is referenced.
   XUH_MACRO_C.:E05TOU  is referenced.
   XU_SUBS_C.:E05TOU  is referenced.
   XU_FORMAT_C.:E05TOU  is referenced.
   XU_PERR_C.:E05TOU  is referenced.
   XU_MACRO_C.:E05TOU  is referenced.
   IR_DATA_M.:E05TOU  is referenced.
   NK_VFC_C.:E05TOU  is referenced.
   CP_6_SUBS.:E05TOU  is referenced.
   CP_6.:E05TOU  cannot be made into a system file and is referenced.
   NI$TABLES.:E05TOU  is referenced.
   B_ERRORS_C.:E05TOU  is referenced.
   B$USER.:E05TOU  cannot be made into a system file and is referenced.
   B$OBJECT_C.:E05TOU  is referenced.
   DA_MONSYM_C.:E05TOU  is referenced.
   DA_TEXTC_C.:E05TOU  is referenced.
   DA_CMD_C.:E05TOU  is referenced.
   DA_PERR_C.:E05TOU  is referenced.
   DA_ANLZ_R.:E05TOU  cannot be made into a system file and is referenced.
   DA_FORMAT_C.:E05TOU  is referenced.
   DA_FORMAT_R.:E05TOU  cannot be made into a system file and is referenced.
   DA_SYMBOLS_R.:E05TOU  cannot be made into a system file and is referenced.
   DA_MAP_R.:E05TOU  cannot be made into a system file and is referenced.
   XUR_ENTRY.:E05TOU  cannot be made into a system file and is referenced.
   XUF_ENTRY.:E05TOU  cannot be made into a system file and is referenced.
   B$JIT_C.:E05TOU  was found in the system file and is referenced.
   CP_6_C.:E05TOU  was found in the system file and is referenced.
      No diagnostics issued in procedure DAA$ANLZ.

   Procedure DAA$ANLZ requires 2666 words for executable code.
   Procedure DAA$ANLZ requires 264 words of local(AUTO) storage.

PL6.E3A0      #001=DAA$ANLZ File=DAA$ANLZ.:E05TSI                                TUE 07/29/97 12:32 Page:43

 Object Unit name= DAA$ANLZ                                   File name= DAA$ANLZ.:E05TOU
 UTS= JUL 29 '97 12:32:21.96 TUE                              Compiler= PL-6/E31         Sev=      00
 SharedLib= :SHARED_SYSTEM                                    Alt SharedLib=


    ****  Control sections  ****

 Sect   Type Bound  Init  Size OctSiz  Section name(segment info)
    0   DCB   even  none     0      0  M$UC
    1   Data  even  none  1190   2246  DAA$ANLZ
    2  RoData even  UTS    129    201  DAA$ANLZ
    3   DCB   even  none     0      0  M$SI
    4   DCB   even  none     0      0  M$DUMPFILE
    5   DCB   even  none     0      0  M$ME
    6   DCB   even  none     0      0  M$DO
    7   DCB   even  none     0      0  M$LO
    8   DCB   even  none     0      0  M$LM
    9   DCB   even  none     0      0  M$FPRG
   10   DCB   even  none     0      0  M$STAR
   11   DCB   even  none     0      0  F$SYMBOL
   12   Proc  even  none  2666   5152  DAA$ANLZ
   13  RoData even  none   143    217  DAA$ANLZ

    ****  Entry defs  ****

                              Check   Calling
                             calling  sequence
  Sect OctLoc Primary Altret sequence   type   Parms  Name
    12      0   yes            yes      Main       0  DAA$ANLZ
PL6.E3A0      #001=DAA$ANLZ File=DAA$ANLZ.:E05TSI                                TUE 07/29/97 12:32 Page:44

  ****  Data defs  ****

 Sect OctLoc  Name                           Sect OctLoc  Name
    1      1  DA_DFLT_SYMBOLS                    1      2  DA_OUTDCB
    1     11  DA_HDR                             1    120  P_PCB
    1    450  DELTANAME

  ****  Entry refs  ****

         Check        Calling
        calling       sequence
Altret sequence SRef   type   Args  Name
         yes           Std       0 DAA$ABORT
 yes     yes           Std       2 XTX$ADAPT
         yes          Async      0 DAA$TRAP
         yes          Async      0 XUR$BREAK
         yes           Std       0 XUR$DISABLE
         yes           Std       1 DAA$PARSEU
 yes     yes           Std       6 XUR$GETCMD
         yes           Std       2 XUR$CLOSE_DCBS
 yes     yes           Std       1 XUR$ECHOIF
 yes     yes           Std       2 DAS$SYMINIT
 yes     yes           Std       3 XUR$INIT
         yes           Std       0 XUR$ENABLE
         yes           Std       1 DAA$ERRMSG
 yes     yes           Std       1 DAF$INIT
 yes     yes           Std       1 DAA$NXTUSR
 yes     yes           Std       7 XUR$ERRMSG
 yes     yes           Std       2 XUR$ERRPTR
 yes     yes           Std       1 XUR$MOREMSG
 yes     yes           Std       1 XUR$HELP
         yes           Std       1 DAU$DUMPFRAME
 yes     yes           Std       1 XUR$ALLMSG
         yes           Std       0 DAF$CONTENTS
 yes     yes           Std       3 DAA$VALUE
 yes     yes           Std       1 DAM$USECPU
 yes     yes           Std       1 DAM$DUMPFILE
PL6.E3A0      #001=DAA$ANLZ File=DAA$ANLZ.:E05TSI                                TUE 07/29/97 12:32 Page:45
 yes     yes           Std       2 DAS$SDMONPTR
 yes     yes           Std       5 DAM$MAP
         yes           Std       1 DAB$SSFRAME
 yes     yes           Std       0 DAM$RUNNING
 yes     yes           Std       0 DAM$INIT
         yes           Std       0 DAM$FREEM
         yes           Std      22 X$WRITE
 yes     yes           Std       2 DAA$LOC
 yes     yes           Std       5 DAM$GETDESC
 yes     yes           Std       1 DAM$SELECT
         yes           Std       1 DBM$SETSYMBOLS
 yes     yes           Std       1 DBM$SELECT
 yes     yes           Std       2 XSF$LOCCODT
                       Std       0 B_CONSPOOL_D
                       nStd      0 X66_MAUTO
                       nStd      0 X66_MARET

  ****  Data refs  ****

  Flags:  r = read only, s = secondary
Flgs Name                             Flgs Name                             Flgs Name
     DAF$WRITE                             DA_DUMPFILE                           DA_SYSTAC2
     DA_INITIALIZED                        DA_NODEDIR$                           DA_RVBUF$
     DA_MONISDATA                          DA_MAPERR                             DA_PSR
     DA_ASR                                DA_TRTN                               DA_SYMERR
     DAF_DCB#                              DA_FMT_NEWCMD                         DA_FMT_TITLEX
     DA_FMT_TLEN                           DA_FMTERR                             DA_CUN
     DA_DOMAIN                             DA_ANLZERR                            DA_DELTA_FLG
     DA_TRAPPED                            DA_XUR$                               DA_DFLT_RADIX
     DA_MAXCHANS                           B$USRT$                               M$UC
     B$JIT$                                B$IS$                                 DA_HEADREC
     B_VERSION                             B$TCB$                                ANLZ_CMD
     FEPANLZ_CMD                           DA_CMDTBL$                            M$SI
     M$DUMPFILE                            M$ME                                  M$DO
     M$LO                                  M$LM                                  M$FPRG
     M$STAR                                F$SYMBOL                              B_VECTNIL
PL6.E3A0      #001=DAA$ANLZ File=DAA$ANLZ.:E05TSI                                TUE 07/29/97 12:32 Page:46

  ****  Segment refs  ****

  Flags:  r = read only, s = secondary
Flgs Name                             Flgs Name                             Flgs Name
     ISSID                                 NULLSID                               ROSID
PL6.E3A0      #001=DAA$ANLZ File=DAA$ANLZ.:E05TSI                                TUE 07/29/97 12:32 Page:47


        1        1        /*M* DAA$ANLZ - ANLZ driver routine and common subroutines */
        2        2        /*T***********************************************************/
        3        3        /*T*                                                         */
        4        4        /*T* Copyright (c) Bull HN Information Systems Inc., 1997    */
        5        5        /*T*                                                         */
        6        6        /*T***********************************************************/
        7        7        DAA$ANLZ: PROC MAIN;

      7 12 000000   000000 700200 xent  DAA$ANLZ     TSX0  ! X66_MAUTO
        12 000001   000410 000000                    ZERO    264,0

        8        8        /*X* DMR */
        9        9        /**/
       10       10    1   DCL DAA$ERRMSG ENTRY(1);
       11       11    1   DCL DAA$TRAP ENTRY ASYNC;
       12       12    1   DCL DAA$ABORT ENTRY;
       13       13    1   DCL DAA$VALUE ENTRY(3) ALTRET;
       14       14    1   DCL DAA$CUN ENTRY(1) ALTRET;
       15       15    1   DCL DAA$NXTUSR ENTRY(1) ALTRET;
       16       16    1   DCL DAA$LOC ENTRY(2) ALTRET;
       17       17    1   DCL DAA$PARSEU ENTRY(1);
       18       18    1   DCL DAB$SSDUMP ENTRY(1);
       19       19    1   DCL DAB$AUTODUMP ENTRY(1);
       20       20    1   DCL DAB$DUMP ENTRY(1);
       21       21    1   DCL DAB$SSFRAME ENTRY(1);
       22       22    1   DCL DAB$HISTREG ENTRY(1);
       23       23    1   DCL DAD$CURCG ENTRY(1);
       24       24    1   DCL DAD$MSGLIST ENTRY(1);
       25       25    1   DCL DAF$CONTENTS ENTRY;
       26       26    1   DCL DAF$INIT ENTRY(1) ALTRET;
       27       27    1   DCL DAF$WRITE EPTR SYMREF;
       28       28    1   DCL DAM$INIT ENTRY ALTRET;
       29       29    1   DCL DAM$MAP ENTRY(5) ALTRET;
       30       30    1   DCL DAM$GETDESC ENTRY(5) ALTRET;
       31       31    1   DCL DAM$RUNNING ENTRY ALTRET;
       32       32    1   DCL DAM$DUMPFILE ENTRY(1) ALTRET;
PL6.E3A0      #001=DAA$ANLZ File=DAA$ANLZ.:E05TSI                                TUE 07/29/97 12:32 Page:48
       33       33    1   DCL DAM$SELECT ENTRY(1) ALTRET;
       34       34    1   DCL DAM$USECPU ENTRY(1) ALTRET;
       35       35    1   DCL DAM$FREEM ENTRY;
       36       36    1   DCL DAS$SYMINIT ENTRY(2) ALTRET;
       37       37    1   DCL DBM$SETSYMBOLS ENTRY(1);
       38       38    1   DCL DAS$SDSRCHPTR ENTRY(2) ALTRET;
       39       39    1   DCL DAS$SDMONPTR ENTRY(2) ALTRET;
       40       40    1   DCL DAU$DUMPFRAME ENTRY(1);
       41       41        /**/
       42       42    1   DCL DBM$SELECT ENTRY(1) ALTRET;
       43       43    1   DCL XSF$LOCCODT ENTRY(2) ALTRET;
       44       44        %INCLUDE XUF_ENTRY;
       45       52        %INCLUDE XUR_ENTRY;
       46       84        /**/
       47       85        %INCLUDE DA_MAP_R;
       48      115        %INCLUDE DA_SYMBOLS_R;
       49      128        %INCLUDE DA_FORMAT_R;
       50      140        %INCLUDE DA_FORMAT_C;
       51      382        %INCLUDE DA_ANLZ_R;
       52      395        %INCLUDE DA_PERR_C;
       53      459        %INCLUDE DA_CMD_C;
       54      808        %INCLUDE DA_TEXTC_C;
       55      839        %INCLUDE DA_MONSYM_C;
       56      890        %INCLUDE B$OBJECT_C;
       57     4320        %INCLUDE B$USER;
       58     4536        %INCLUDE B_ERRORS_C;
       59     5663        %INCLUDE NI$TABLES;
       60     5879        %B$USERREFS;
       61     5883        %INCLUDE CP_6;
       62     5964        %INCLUDE CP_6_SUBS;
       63     6504        %INCLUDE NK_VFC_C;
       64     6578        %INCLUDE IR_DATA_M;
       65     6742        %INCLUDE XU_MACRO_C;
       66     9848        %INCLUDE XU_PERR_C;
       67    10039        %INCLUDE XU_FORMAT_C;
       68    10201        %INCLUDE XU_SUBS_C;
       69    10293        %INCLUDE XUH_MACRO_C;
PL6.E3A0      #001=DAA$ANLZ File=DAA$ANLZ.:E05TSI                                TUE 07/29/97 12:32 Page:49
       70    10377    1   DCL B$JIT$ PTR SYMREF;
       71    10378        %INCLUDE B$JIT;
       72    10668        %INCLUDE FM$FIT;
       73    10889        /**/
       74    10890    1   DCL I SBIN;
       75    10891    1   DCL J SBIN;
       76    10892    1   DCL OUT$ PTR;
       77    10893    1   DCL JIT$ PTR;
       78    10894    1   DCL TX SBIN;
       79    10895    1   DCL RPTCNT SBIN;
       80    10896    1   DCL TOP$ PTR;
       81    10897    1   DCL 1 OUTERR REDEF TOP$,
       82    10898    1         2 FCG BIT(18) UNAL,
       83    10899    1         2 MON BIT(1) UNAL,
       84    10900    1         2 CODE UBIN(14) UNAL,
       85    10901    1         2 SEV UBIN(3) UNAL;
       86    10902    1   DCL 1 SCODE ALIGNED,
       87    10903    1         2 FCG(0:2) UBIN(6) UNAL,
       88    10904    1         2 MON BIT(1) UNAL,
       89    10905    1         2 CODE UBIN(14) UNAL,
       90    10906    1         2 SEV UBIN(3) UNAL;
       91    10907    1   DCL DELTA_OK BIT(1) STATIC ALIGNED INIT('0'B);
       92    10908    1   DCL ENDFLG BIT(1) ALIGNED;
       93    10909    1   DCL SYM$ PTR;
       94    10910    1   DCL ROUTINE EPTR;
       95    10911    1   DCL SAVE_TRTN REMEMBER;
       96    10912    1   DCL ANLZTXT CHAR(256);
       97    10913    1   DCL CHAR8 CHAR(8);
       98    10914    1   DCL DA_DFLT_SYMBOLS BIT(1) ALIGNED STATIC SYMDEF;
       99    10915    1   DCL DA_OUTDCB UBIN STATIC SYMDEF INIT(DCBNUM(M$DO));
      100    10916        /**/
      101    10917    1   DCL MONISDATABYTES SBIN;
      102    10918    1   DCL B$IS$ PTR SYMREF;
      103    10919    1   DCL MONISDATA CHAR(MONISDATABYTES) BASED(B$IS$);
      104    10920        %B$HEAD (NAME=DA_HEADREC,STCLASS=SYMREF);
      105    11120        /**/
      106    11121        %TEXTC (NAME=MONFID,TEXT='M:MON.:SYS');
PL6.E3A0      #001=DAA$ANLZ File=DAA$ANLZ.:E05TSI                                TUE 07/29/97 12:32 Page:50
      107    11145    1   DCL 1 PRMPT STATIC CALIGNED,
      108    11146    1         2 NODENAME CHAR(9) INIT(' '),
      109    11147    1         2 DASH CHAR(1) INIT('-');
      110    11148        %DA_HDR (NAME=DA_HDR,STCLASS="STATIC SYMDEF");
      111    11179        %VLP_HDR (HEADERHEIGHT=2,INDENT=1,RESETPAGE=NO);
      112    11195        %REPORT (NAME=ANLZRPT,TITLE='ANLZ',CONTENTS=NO);
      113    11261        %REPORT (NAME=ANLZTRAP,TITLE='ANLZ Trapped!!!',CONTENTS=NO);
      114    11327    1   DCL TRAPHDR CHAR(0) CONSTANT INIT('ANLZ Trapped!!!%/');
      115    11328    1   DCL TRAPHDR1 CHAR(0) CONSTANT INIT('Safe Store Frame:%/');
      116    11329    1   DCL TRAPFRAME(0:67) UBIN;
      117    11330    1   DCL TRAPABRT BIT(1) ALIGNED;
      118    11331    1   DCL TRAPMSG CHAR(0) CONSTANT INIT('Two consecutive traps!  I quit!!!');
      119    11332    1   DCL EIGHT_ZEROS CHAR(8) CONSTANT INIT('00000000');
      120    11333    1   DCL HELLO CHAR(0) STATIC INIT('ANLZ C00A00');
      121    11334    1   DCL 1 B_VERSION CALIGNED SYMREF,
      122    11335    1         2 L UBIN BYTE UNAL,
      123    11336    1         2 C CHAR(6);
      124    11337        %FPT_WRITE (FPTN=FPT_HELLO,DCB=M$ME,BUF=HELLO);
      125    11368    1   DCL B$TCB$ PTR SYMREF;
      126    11369        %B$TCB;
      127    11372        %B$EXCFR;
      128    11390        %B$ALT;
      129    11398        %F$DCB;
      130    11455        /**/
      131    11456    1   DCL ANLZ_CMD SBIN SYMREF;
      132    11457    1   DCL FEPANLZ_CMD SBIN SYMREF;
      133    11458    1   DCL PARSENODE$ PTR;
      134    11459    1   DCL PARSENODE UBIN BASED(PARSENODE$);
      135    11460        %P_PCB (NAME=P_PCB,STCLASS="STATIC SYMDEF");
      136    11659        %XUR_INIT (ABORT=DAA$ABORT,SYNTAX=YES,PCB=P_PCB,COMMANDS=NO);
      137    11758        %PARSE$OUT (NAME=TOP,STCLASS="BASED(TOP$)");
      138    11803        %PARSE$OUT (NAME=OUT,STCLASS="BASED(OUT$)");
      139    11848        %PARSE$SYM (NAME=SYM,STCLASS="BASED(SYM$)");
      140    11886        %XUH_PARAM (PROCNAME=ANLZNAME,OUTDCB1=M$DO,OUTDCB2=M$LO);
      141    11947        %VLP_NAME (FPTN=ANLZNAME,NAME='ANLZ');
      142    11974        /**/
      143    11975        %FPT_MONINFO (SITEINFO=VLR_SITEINFO,MONINFO=VLR_MONINFO);
PL6.E3A0      #001=DAA$ANLZ File=DAA$ANLZ.:E05TSI                                TUE 07/29/97 12:32 Page:51
      144    11990        %VLR_SITEINFO;
      145    12009        %VLR_MONINFO;
      146    12027        %VLR_SITEINFO (FPTN=VLR$SITEINFO,STCLASS=BASED);
      147    12046        %FPT_ALIB (LIBNAME=DELTANAME,DLIB=NO,RETRN=YES);
      148    12063        %FPT_DLIB (LIBNAME=DELTANAME,FPTN=FPT_KILLDELTA);
      149    12076        %VLP_NAME (FPTN=DELTANAME,NAME='DELTA',STCLASS="STATIC SYMDEF");
      150    12103    1   DCL DELTANAMEPADDING(0:2) UBIN STATIC;
      151    12104        %FPT_CLOSE (FPTN=FPT_CLOSELO,DCB=M$LO,DISP=SAVE);
      152    12146        %FPT_DEVICE (FPTN=FPT_DEVICE_ME,DCB=M$ME,DVFC=%VFC_TRANSITION1);
      153    12164        %FPT_TIME (DATE="DA_HDR.TITLE.DT",TIME="DA_HDR.TITLE.TM",DAY="DA_HDR.TITLE.DY",
             12164            TSTAMP=TSTMP);
      154    12183    1   DCL TSTMP UBIN STATIC;
      155    12184        %FPT_TRAP (ARITHMETIC=DAA$TRAP,DIVIDE_CHECK=TRAP,OVERFLOW=TRAP,
      156    12185                  ERRORS=DAA$TRAP,COMMAND=TRAP,IPR=TRAP,LOCKUP=TRAP,
      157    12186                     MEMORY=TRAP,MISSING_PAGE=TRAP,MISSING_SEG=TRAP,
      158    12187                     SECURITY_1=TRAP,SECURITY_2=TRAP,HISTORY_REGS=NO,
      159    12188                  PMME=DAA$TRAP);
      160    12211        %FPT_INT (UENTRY=XUR$BREAK);
      161    12225        %FPT_WAIT;
      162    12239        %FPT_PRIV (FPTN=FPT_PRIV,PRIV=%PR_SPCLMM#,AUTH=YES);
      163    12254        %FPT_PRIV (FPTN=FPT_SETMSYS,PRIV=%PR_MSYS#,AUTH=YES);
      164    12269        %FPT_RUE;
      165    12283        %FPT_CLOSE (FPTN=FPT_CLSSI,DCB=M$SI,DISP=SAVE);
      166    12325        %FPT_CLOSE (FPTN=FPT_CLSFPRG,DCB=M$FPRG);
      167    12367        %FPT_OPEN (FPTN=FPT_SCRUBSI,DCB=M$SI,ASN=DEVICE,RES='ME',FUN=IN);
      168    12476        %FPT_OPEN (FPTN=FPT_DFLTOPN,DVFC=%VFC_TRANSITION1);
      169    12585        %FPT_OPEN (FPTN=OPENSTAR,DCB=M$STAR,NAME=STARNAME,FUN=IN,ASN=FILE);
      170    12694        %FPT_READ (FPTN=READSTAR,DCB=M$STAR,KEY=STARKEY,KEYS=YES);
      171    12733        %FPT_CLOSE (FPTN=CLOSESTAR,DCB=M$STAR,DISP=SAVE);
      172    12775        %VLP_NAME (FPTN=STARNAME,NAME='ANLZ_STAR');
      173    12802        %VLP_ACCT (FPTN=STARACCT,ACCT=':SYS');
      174    12815    1   DCL 1 STARKEY STATIC ALIGNED,
      175    12816    1         2 L UBIN BYTE CALIGNED INIT(3),
      176    12817    1         2 K UBIN(27) CALIGNED;
      177    12818    1   DCL STARTXT$ PTR;
      178    12819    1   DCL STARTXT CHAR(256) BASED(STARTXT$);
      179    12820    1   DCL STARFMT CHAR(0) CONSTANT INIT('-%>A');
PL6.E3A0      #001=DAA$ANLZ File=DAA$ANLZ.:E05TSI                                TUE 07/29/97 12:32 Page:52
      180    12821        %FPT_UNFID;
      181    12839
      182    12840        %FPT_CLOSE (FPTN=DELETE_DUMP,DCB=M$DUMPFILE,DISP=RELEASE);
      183    12882
      184    12883        %FPT_CLOSE (FPTN=CHANGE_TYPE,DCB=M$DUMPFILE,DISP=SAVE,CHGATT=YES);
      185    12925        %FPT_OPEN (FPTN=REOPEN_DUMP,DCB=M$DUMPFILE);
      186    13034        %FPT_YC (ECHO=NO);
      187    13051    1   DCL CBUF CHAR(256);
      188    13052        %FPT_YC (FPTN=FPT_FREE,LINK=YES,ECHO=NO,NOERR=YES);
      189    13069    1  DCL FREETEXT(0:5) CHAR(6) CONSTANT INIT('PRINT','ERASE','DIR','TIME','DATE','ENTER')
             13069            ;
      190    13070    1   DCL 1 AFILE STATIC,
      191    13071    1         2 COUNT UBIN BYTE UNAL INIT(SIZEC(AFILE.FID)),
      192    13072    1         2 FID,
      193    13073    1           3 DF CHAR(0) INIT(':DF'),
      194    13074    1           3 VERSION CHAR(0) INIT('XXXB'),
      195    13075    1           3 ID CHAR(0) INIT('000'),
      196    13076    1           3 ACCT CHAR(0) INIT('.:SYSTAC');
      197    13077    1   DCL 1 TC BASED CALIGNED,
      198    13078    1         2 L UBIN BYTE UNAL,
      199    13079    1         2 C CHAR(TC.L);
      200    13080    1   DCL ACMDFMT CHAR(0) CONSTANT INIT(' %>A.%>A for %J%S at %..2.1U on %T%S');
      201    13081    1   DCL BLAMEFMT CHAR(0) CONSTANT INIT(' %>A is to blame');
      202    13082    1   DCL NODEFMT CHAR(0) CONSTANT INIT('%/ Nodes:  %N.N.N.N(%8>A%4S  %)%S');
      203    13083    1   DCL SELFMT CHAR(0) CONSTANT INIT('%>A (node %D) Selected');
      204    13084    1   DCL T$ PTR;
      205    13085        /**/
      206    13086        %RV_BUFF (NAME=RVBUFF,STCLASS="BASED(DA_RVBUF$)");
      207    13122        %RV_NODEDIR (FPTN=NODEDIR,STCLASS="BASED(DA_NODEDIR$)");
      208    13139        %RV_DFSUBS;
      209    13166        %FPT_NODEINFO (FPTN=FPT_NODEINFO,NODEINFO=VLR_NODEINFO);
      210    13178        %VLR_NODEINFO (FPTN=VLR_NODEINFO);
      211    13193        /**/
      212    13194    1   DCL DA_CMDTBL$(0:0) PTR SYMREF ALIGNED;
      213    13195    1   DCL CMDTBL$ PTR;
      214    13196    1   DCL 1 CMDTBL ALIGNED BASED(CMDTBL$),
      215    13197    1         2 N UBIN WORD,
PL6.E3A0      #001=DAA$ANLZ File=DAA$ANLZ.:E05TSI                                TUE 07/29/97 12:32 Page:53
      216    13198    1         2 RTN(0:0) EPTR;
      217    13199        /**/
      218    13200
      219    13201    1   DCL M$SI DCB;
      220    13202    1   DCL M$DUMPFILE DCB;
      221    13203    1   DCL M$ME DCB;
      222    13204    1   DCL M$DO DCB;
      223    13205    1   DCL M$LO DCB;
      224    13206    1   DCL M$LM DCB;
      225    13207    1   DCL M$FPRG DCB;
      226    13208    1   DCL M$STAR DCB;
      227    13209    1   DCL F$SYMBOL DCB;
      228    13210        %SUB NEVER="WHILE('0'B)";
      229    13211        %SUB FOREVER="WHILE('1'B)";
      230    13212        %EJECT;
PL6.E3A0      #001=DAA$ANLZ File=DAA$ANLZ.:E05TSI                                TUE 07/29/97 12:32 Page:54
      231    13213        /**/
      232    13214        /* INITIALIZATION */
      233    13215        /**/
      234    13216    1           DA_ANLZERR='0'B;

  13216 12 000002   000000 450000 xsym               STZ     DA_ANLZERR

      235    13217    1           DA_MAPERR='0'B;

  13217 12 000003   000000 450000 xsym               STZ     DA_MAPERR

      236    13218    1           DA_FMTERR='0'B;

  13218 12 000004   000000 450000 xsym               STZ     DA_FMTERR

      237    13219    1           DA_SYMERR='0'B;

  13219 12 000005   000000 450000 xsym               STZ     DA_SYMERR

      238    13220    1           DAF_DCB#=DA_OUTDCB;

  13220 12 000006   000002 235000 1                  LDA     DA_OUTDCB
        12 000007   000000 755000 xsym               STA     DAF_DCB#

      239    13221    1           CALL XUR$INIT(XUR_INIT,,DA_XUR$);

  13221 12 000010   000000 236000 13                 LDQ     0
        12 000011   200364 756100                    STQ     SYSTAC2_HEAD_FLG+8,,AUTO
        12 000012   000001 236000 xsym               LDQ     B_VECTNIL+1
        12 000013   000001 235000 13                 LDA     1
        12 000014   200362 757100                    STAQ    SYSTAC2_HEAD_FLG+6,,AUTO
        12 000015   200362 630500                    EPPR0   SYSTAC2_HEAD_FLG+6,,AUTO
        12 000016   000021 631400 xsym               EPPR1   B_VECTNIL+17
        12 000017   000000 701000 xent               TSX1    XUR$INIT
        12 000020   000000 011000                    NOP     0

      240    13222    1           CALL XUR$DISABLE;
PL6.E3A0      #001=DAA$ANLZ File=DAA$ANLZ.:E05TSI                                TUE 07/29/97 12:32 Page:55

  13222 12 000021   000002 631400 xsym               EPPR1   B_VECTNIL+2
        12 000022   000000 701000 xent               TSX1    XUR$DISABLE
        12 000023   000000 011000                    NOP     0

      241    13223    1           FPT_DFLTOPN.V.DCB#=DAF_DCB#;

  13223 12 000024   000000 720000 xsym               LXL0    DAF_DCB#
        12 000025   001036 740000 1                  STX0    FPT_DFLTOPN+36

      242    13224    1           CALL M$OPEN(FPT_DFLTOPN);

  13224 12 000026   000772 630400 1                  EPPR0   FPT_DFLTOPN
        12 000027   050000 713400                    CLIMB   open
        12 000030   410400 401760                    pmme    nvectors=18

      243    13225    1           FPT_DFLTOPN.V.DCB#=DCBNUM(M$DO);

  13225 12 000031   000000 236007 xsym               LDQ     M$DO,DL
        12 000032   000000 620006                    EAX0    0,QL
        12 000033   001036 740000 1                  STX0    FPT_DFLTOPN+36

      244    13226    1           CALL M$OPEN(FPT_DFLTOPN);

  13226 12 000034   000772 630400 1                  EPPR0   FPT_DFLTOPN
        12 000035   050000 713400                    CLIMB   open
        12 000036   410400 401760                    pmme    nvectors=18

      245    13227    1           TRAPABRT='0'B;

  13227 12 000037   200227 450100                    STZ     TRAPABRT,,AUTO

      246    13228    1           REMEMBER TRAP_RETURN IN SAVE_TRTN;

  13228 12 000040   000250 635000 12                 EAA     TRAP_RETURN
        12 000041   200016 452500                    STP2    SAVE_TRTN,,AUTO
        12 000042   200017 755100                    STA     SAVE_TRTN+1,,AUTO
PL6.E3A0      #001=DAA$ANLZ File=DAA$ANLZ.:E05TSI                                TUE 07/29/97 12:32 Page:56

      247    13229    1           REMEMBER TRAPX IN DA_TRTN;

  13229 12 000043   000340 635000 12                 EAA     TRAPX
        12 000044   000000 452400 xsym               STP2    DA_TRTN
        12 000045   000001 755000 xsym               STA     DA_TRTN+1

      248    13230    1           CALL M$TRAP(FPT_TRAP);

  13230 12 000046   000544 630400 1                  EPPR0   FPT_TRAP
        12 000047   010004 713400                    CLIMB   4100
        12 000050   400400 401760                    pmme    nvectors=2

      249    13231    1           CALL M$INT(FPT_INT);

  13231 12 000051   000556 630400 1                  EPPR0   FPT_INT
        12 000052   010002 713400                    CLIMB   4098
        12 000053   400000 401760                    pmme    nvectors=1

      250    13232    1           CALL M$DEVICE(FPT_DEVICE_ME);

  13232 12 000054   000514 630400 1                  EPPR0   FPT_DEVICE_ME
        12 000055   050006 713400                    CLIMB   20486
        12 000056   401000 401760                    pmme    nvectors=3

      251    13233    1           FPT_PRIV.V.PRIV# = FPT_PRIV.V.PRIV# | %PR_FMREAD#;

  13233 12 000057   000572 236000 1                  LDQ     FPT_PRIV+2
        12 000060   000127 276000 2                  ORQ     BLANKS+1
        12 000061   000572 756000 1                  STQ     FPT_PRIV+2

      252    13234    1           CALL M$SPRIV(FPT_PRIV);

  13234 12 000062   000570 630400 1                  EPPR0   FPT_PRIV
        12 000063   020012 713400                    CLIMB   8202
        12 000064   400000 401760                    pmme    nvectors=1

PL6.E3A0      #001=DAA$ANLZ File=DAA$ANLZ.:E05TSI                                TUE 07/29/97 12:32 Page:57
      253    13235    2           CALL M$MONINFO(FPT_MONINFO) WHENALTRETURN DO; END;

  13235 12 000065   000302 630400 1                  EPPR0   FPT_MONINFO
        12 000066   420023 713400                    CLIMB   alt,+8211
        12 000067   402400 401760                    pmme    nvectors=6
        12 000070   000072 702000 12                 TSX2    s:13236
        12 000071   000072 710000 12                 TRA     s:13236

      254    13236    1           AFILE.FID.VERSION=VLR_SITEINFO.VERSION#;

  13236 12 000072   000402 236000 1                  LDQ     VLR_SITEINFO+52
        12 000073   001475 756000 1                  STQ     AFILE+1

      255    13237    1           CALL DAF$INIT(ANLZRPT);

  13237 12 000074   000002 630400 13                 EPPR0   2
        12 000075   000017 631400 xsym               EPPR1   B_VECTNIL+15
        12 000076   000000 701000 xent               TSX1    DAF$INIT
        12 000077   000000 011000                    NOP     0

      256    13238    1           CALL DAS$SYMINIT(MONFID);

  13238 12 000100   000003 630400 13                 EPPR0   3
        12 000101   000017 631400 xsym               EPPR1   B_VECTNIL+15
        12 000102   000000 701000 xent               TSX1    DAS$SYMINIT
        12 000103   000000 011000                    NOP     0

      257    13239    1           CALL USERUNNING;

  13239 12 000104   003427 701000 12                 TSX1    USERUNNING
        12 000105   000000 011000                    NOP     0

      258    13240    1           MONISDATABYTES=DA_HEADREC.VDPGS*4096;

  13240 12 000106   000002 236000 xsym               LDQ     DA_HEADREC+2
        12 000107   000012 772000                    QRL     10
        12 000110   000004 376000 13                 ANQ     4
PL6.E3A0      #001=DAA$ANLZ File=DAA$ANLZ.:E05TSI                                TUE 07/29/97 12:32 Page:58
        12 000111   200122 756100                    STQ     MONISDATABYTES,,AUTO

      259    13241    1           DA_MONISDATA=VECTOR(MONISDATA);

  13241 12 000112   200122 235100                    LDA     MONISDATABYTES,,AUTO
        12 000113   000020 735000                    ALS     16
        12 000114   000140 135007                    SBLA    96,DL
        12 000115   000000 236000 xsym               LDQ     B$IS$
        12 000116   000000 755000 xsym               STA     DA_MONISDATA
        12 000117   000001 756000 xsym               STQ     DA_MONISDATA+1

      260    13242    1           VLP_HDR.CTL.COUNT#=POFFC(ADDR(DA_HDR.TITLE.PG#),ADDR(DA_HDR.TITLE));

  13242 12 000120   000005 236000 13                 LDQ     5
        12 000121   000020 772000                    QRL     16
        12 000122   200362 756100                    STQ     SYSTAC2_HEAD_FLG+6,,AUTO
        12 000123   000006 236000 13                 LDQ     6
        12 000124   000020 772000                    QRL     16
        12 000125   200362 136100                    SBLQ    SYSTAC2_HEAD_FLG+6,,AUTO
        12 000126   000051 552004 1                  STBQ    VLP_HDR,'04'O

      261    13243    1           DA_HDR.CTL=VLP_HDR.CTL;

  13243 12 000127   000051 236000 1                  LDQ     VLP_HDR
        12 000130   000011 756000 1                  STQ     DA_HDR

      262    13244    1           DA_FMT_TITLEX=POFFC(ADDR(DA_HDR.TITLE.RTITLE),ADDR(DA_HDR.TITLE))-1;

  13244 12 000131   000005 236000 13                 LDQ     5
        12 000132   000020 772000                    QRL     16
        12 000133   200362 756100                    STQ     SYSTAC2_HEAD_FLG+6,,AUTO
        12 000134   000007 236000 13                 LDQ     7
        12 000135   000020 772000                    QRL     16
        12 000136   200362 136100                    SBLQ    SYSTAC2_HEAD_FLG+6,,AUTO
        12 000137   000001 136007                    SBLQ    1,DL
        12 000140   000000 756000 xsym               STQ     DA_FMT_TITLEX

PL6.E3A0      #001=DAA$ANLZ File=DAA$ANLZ.:E05TSI                                TUE 07/29/97 12:32 Page:59
      263    13245    1           DA_FMT_TLEN=42;

  13245 12 000141   000052 235007                    LDA     42,DL
        12 000142   000000 755000 xsym               STA     DA_FMT_TLEN

      264    13246    1           RPTCNT=0;

  13246 12 000143   200010 450100                    STZ     RPTCNT,,AUTO

      265    13247    1           STARTXT$=ADDR(NIL);

  13247 12 000144   000001 236000 xsym               LDQ     B_VECTNIL+1
        12 000145   200231 756100                    STQ     STARTXT$,,AUTO

      266    13248    1           PARSENODE$=ADDR(ANLZ_CMD);

  13248 12 000146   000010 236000 13                 LDQ     8
        12 000147   200230 756100                    STQ     PARSENODE$,,AUTO

      267    13249    1           CALL XUR$ENABLE;

  13249 12 000150   000002 631400 xsym               EPPR1   B_VECTNIL+2
        12 000151   000000 701000 xent               TSX1    XUR$ENABLE
        12 000152   000000 011000                    NOP     0

      268    13250        /**/
      269    13251        /* PARSE IBEX INVOCATION LINE */
      270    13252        /**/
      271    13253    2           IF B$JIT.CCARS<=B$JIT.CCDISP THEN DO;

  13253 12 000153   000000 470400 xsym               LDP0    B$JIT$
        12 000154   000032 720100                    LXL0    26,,PR0
        12 000155   000032 100100                    CMPX0   26,,PR0
        12 000156   000163 604000 12                 TMI     s:13257

      272    13254    2              ANLZTXT=B$JIT.CCBUF;

PL6.E3A0      #001=DAA$ANLZ File=DAA$ANLZ.:E05TSI                                TUE 07/29/97 12:32 Page:60
  13254 12 000157   040100 100500                    MLR     fill='040'O
        12 000160   000033 000400                    ADSC9   27,,PR0                  cn=0,n=256
        12 000161   200020 000400                    ADSC9   ANLZTXT,,AUTO            cn=0,n=256

      273    13255    2              END;

  13255 12 000162   000215 710000 12                 TRA     s:13263

      274    13256    2           ELSE DO;

      275    13257    2              ANLZTXT=SUBSTR(B$JIT.CCBUF,B$JIT.CCDISP+1);

  13257 12 000163   000032 236100                    LDQ     26,,PR0
        12 000164   000022 736000                    QLS     18
        12 000165   000022 732000                    QRS     18
        12 000166   777400 620010                    EAX0    -256,X0
        12 000167   777777 660003                    ERX0    -1,DU
        12 000170   040100 100546                    MLR     fill='040'O
        12 000171   000033 200010                    ADSC9   27,Q,PR0                 cn=1,n=*X0
        12 000172   200020 000400                    ADSC9   ANLZTXT,,AUTO            cn=0,n=256

      276    13258    3              CALL INDEX1R(I,')',ANLZTXT) WHENRETURN DO;

  13258 12 000173   000000 125500                    SCMR    mask='000'O
        12 000174   200020 000400                    ADSC9   ANLZTXT,,AUTO            cn=0,n=256
        12 000175   000011 000001 13                 ADSC9   9                        cn=0,n=1
        12 000176   200003 000100                    ARG     I,,AUTO
        12 000177   000215 606400 12                 TTN     s:13263
        12 000200   000377 236007                    LDQ     255,DL
        12 000201   200003 156100                    SSQ     I,,AUTO

      277    13259    3                 IF SUBSTR(ANLZTXT,I)=')' THEN

  13259 12 000202   200003 720100                    LXL0    I,,AUTO
        12 000203   777377 620010                    EAX0    -257,X0
        12 000204   777777 660003                    ERX0    -1,DU
        12 000205   200003 235100                    LDA     I,,AUTO
PL6.E3A0      #001=DAA$ANLZ File=DAA$ANLZ.:E05TSI                                TUE 07/29/97 12:32 Page:61
        12 000206   040000 106545                    CMPC    fill='040'O
        12 000207   200020 000010                    ADSC9   ANLZTXT,A,AUTO           cn=0,n=*X0
        12 000210   000011 000001 13                 ADSC9   9                        cn=0,n=1
        12 000211   000215 601000 12                 TNZ     s:13263

      278    13260    3                    SUBSTR(ANLZTXT,I)=' ';

  13260 12 000212   040145 100400                    MLR     fill='040'O
        12 000213   000035 000001 xsym               ADSC9   B_VECTNIL+29             cn=0,n=1
        12 000214   200020 000010                    ADSC9   ANLZTXT,A,AUTO           cn=0,n=*X0

      279    13261    3                 END;

      280    13262    2              END;

      281    13263    2          CALL XUR$GETCMD(PARSENODE,TOP$,VECTOR(PRMPT),ANLZTXT,SIZEC(ANLZTXT),ENTADDR(
             13263                    DAA$PARSEU)) WHENRETURN DO;

  13263 12 000215   000000 636000 xent               EAQ     DAA$PARSEU
        12 000216   200362 756100                    STQ     SYSTAC2_HEAD_FLG+6,,AUTO
        12 000217   200362 630500                    EPPR0   SYSTAC2_HEAD_FLG+6,,AUTO
        12 000220   200371 450500                    STP0    SYSTAC2_HEAD_FLG+13,,AUTO
        12 000221   000015 236000 13                 LDQ     13
        12 000222   200370 756100                    STQ     SYSTAC2_HEAD_FLG+12,,AUTO
        12 000223   200020 631500                    EPPR1   ANLZTXT,,AUTO
        12 000224   200367 451500                    STP1    SYSTAC2_HEAD_FLG+11,,AUTO
        12 000225   000016 236000 13                 LDQ     14
        12 000226   200366 756100                    STQ     SYSTAC2_HEAD_FLG+10,,AUTO
        12 000227   200011 633500                    EPPR3   TOP$,,AUTO
        12 000230   200365 453500                    STP3    SYSTAC2_HEAD_FLG+9,,AUTO
        12 000231   200230 236100                    LDQ     PARSENODE$,,AUTO
        12 000232   200364 756100                    STQ     SYSTAC2_HEAD_FLG+8,,AUTO
        12 000233   200364 630500                    EPPR0   SYSTAC2_HEAD_FLG+8,,AUTO
        12 000234   000024 631400 xsym               EPPR1   B_VECTNIL+20
        12 000235   000000 701000 xent               TSX1    XUR$GETCMD
        12 000236   000242 702000 12                 TSX2    s:13267

PL6.E3A0      #001=DAA$ANLZ File=DAA$ANLZ.:E05TSI                                TUE 07/29/97 12:32 Page:62
      282    13264    2              CALL COMMAND;

  13264 12 000237   000343 701000 12                 TSX1    COMMAND
        12 000240   000000 011000                    NOP     0

      283    13265    2              END;

  13265 12 000241   000244 710000 12                 TRA     s:13269

      284    13266    2           WHENALTRETURN DO;

      285    13267    2              CALL CMDERR;

  13267 12 000242   000626 701000 12                 TSX1    CMDERR
        12 000243   000000 011000                    NOP     0

      286    13268    2              END;

      287    13269    1           CALL DAA$ERRMSG;

  13269 12 000244   000002 631400 xsym               EPPR1   B_VECTNIL+2
        12 000245   000000 701000 xent               TSX1    DAA$ERRMSG
        12 000246   000000 011000                    NOP     0

      288    13270        /**/
      289    13271        /* TRAPS AND BREAK ABORTS UNWIND TO HERE */
      290    13272        /**/
      291    13273    2           DO NEVER;

  13273 12 000247   000261 710000 12                 TRA     s:13284

      292    13274    2   TRAP_RETURN:
      293    13275    3              IF DA_TRAPPED THEN DO;

  13275 12 000250   000000 234000 xsym  TRAP_RETURN  SZN     DA_TRAPPED
        12 000251   000256 605000 12                 TPL     s:13279

PL6.E3A0      #001=DAA$ANLZ File=DAA$ANLZ.:E05TSI                                TUE 07/29/97 12:32 Page:63
      294    13276    3                 CALL PRINT_TRAP;

  13276 12 000252   003326 701000 12                 TSX1    PRINT_TRAP
        12 000253   000000 011000                    NOP     0

      295    13277    3                 CALL COMMANDT;            /* FINISH COMMAND LINE */

  13277 12 000254   000354 701000 12                 TSX1    COMMANDT
        12 000255   000000 011000                    NOP     0

      296    13278    3                 END;

      297    13279    2              CALL DAA$ERRMSG;

  13279 12 000256   000002 631400 xsym               EPPR1   B_VECTNIL+2
        12 000257   000000 701000 xent               TSX1    DAA$ERRMSG
        12 000260   000000 011000                    NOP     0

      298    13280    2              END;

      299    13281        /**/
      300    13282        /* ACCEPT COMMANDS */
      301    13283        /**/
      302    13284    2           DO WHILE(ENDFLG);

  13284 12 000261   200013 234100                    SZN     ENDFLG,,AUTO
        12 000262   000327 605000 12                 TPL     s:13295

      303    13285    3              CALL XUR$GETCMD(PARSENODE,TOP$,VECTOR(PRMPT),STARTXT,SIZEC(STARTXT),
             13285                       ENTADDR(DAA$PARSEU)) WHENRETURN DO;

  13285 12 000263   000000 636000 xent               EAQ     DAA$PARSEU
        12 000264   200362 756100                    STQ     SYSTAC2_HEAD_FLG+6,,AUTO
        12 000265   200362 630500                    EPPR0   SYSTAC2_HEAD_FLG+6,,AUTO
        12 000266   200371 450500                    STP0    SYSTAC2_HEAD_FLG+13,,AUTO
        12 000267   000015 236000 13                 LDQ     13
        12 000270   200370 756100                    STQ     SYSTAC2_HEAD_FLG+12,,AUTO
PL6.E3A0      #001=DAA$ANLZ File=DAA$ANLZ.:E05TSI                                TUE 07/29/97 12:32 Page:64
        12 000271   200231 236100                    LDQ     STARTXT$,,AUTO
        12 000272   000016 235000 13                 LDA     14
        12 000273   200366 757100                    STAQ    SYSTAC2_HEAD_FLG+10,,AUTO
        12 000274   200011 631500                    EPPR1   TOP$,,AUTO
        12 000275   200365 451500                    STP1    SYSTAC2_HEAD_FLG+9,,AUTO
        12 000276   200230 236100                    LDQ     PARSENODE$,,AUTO
        12 000277   200364 756100                    STQ     SYSTAC2_HEAD_FLG+8,,AUTO
        12 000300   200364 630500                    EPPR0   SYSTAC2_HEAD_FLG+8,,AUTO
        12 000301   000024 631400 xsym               EPPR1   B_VECTNIL+20
        12 000302   000000 701000 xent               TSX1    XUR$GETCMD
        12 000303   000321 702000 12                 TSX2    s:13291

      304    13286    3                 STARTXT$=ADDR(NIL);

  13286 12 000304   000001 236000 xsym               LDQ     B_VECTNIL+1
        12 000305   200231 756100                    STQ     STARTXT$,,AUTO

      305    13287    3                 IF B$JIT.CPFLAGS1 & %CP_ECHO# THEN CALL XUR$ECHOIF(DAF_DCB#);

  13287 12 000306   000000 470400 xsym               LDP0    B$JIT$
        12 000307   000143 236100                    LDQ     99,,PR0
        12 000310   000012 376000 xsym               ANQ     B_VECTNIL+10
        12 000311   000316 600000 12                 TZE     s:13288

  13287 12 000312   000017 630400 13                 EPPR0   15
        12 000313   000017 631400 xsym               EPPR1   B_VECTNIL+15
        12 000314   000000 701000 xent               TSX1    XUR$ECHOIF
        12 000315   000000 011000                    NOP     0

      306    13288    3                 CALL COMMAND;

  13288 12 000316   000343 701000 12                 TSX1    COMMAND
        12 000317   000000 011000                    NOP     0

      307    13289    3                 END;

  13289 12 000320   000325 710000 12                 TRA     s:13294
PL6.E3A0      #001=DAA$ANLZ File=DAA$ANLZ.:E05TSI                                TUE 07/29/97 12:32 Page:65

      308    13290    3              WHENALTRETURN DO;

      309    13291    3                 STARTXT$=ADDR(NIL);

  13291 12 000321   000001 236000 xsym               LDQ     B_VECTNIL+1
        12 000322   200231 756100                    STQ     STARTXT$,,AUTO

      310    13292    3                 CALL CMDERR;

  13292 12 000323   000626 701000 12                 TSX1    CMDERR
        12 000324   000000 011000                    NOP     0

      311    13293    3                 END;

      312    13294    2              END;

  13294 12 000325   200013 234100                    SZN     ENDFLG,,AUTO
        12 000326   000263 604000 12                 TMI     s:13285

      313    13295    2           CALL M$CLOSE(FPT_CLSFPRG) WHENALTRETURN DO; END;

  13295 12 000327   000642 630400 1                  EPPR0   FPT_CLSFPRG
        12 000330   450001 713400                    CLIMB   alt,close
        12 000331   406000 401760                    pmme    nvectors=13
        12 000332   000334 702000 12                 TSX2    s:13296
        12 000333   000334 710000 12                 TRA     s:13296

      314    13296    1           CALL XUR$CLOSE_DCBS;

  13296 12 000334   000002 631400 xsym               EPPR1   B_VECTNIL+2
        12 000335   000000 701000 xent               TSX1    XUR$CLOSE_DCBS
        12 000336   000000 011000                    NOP     0

      315    13297    1           RETURN;

  13297 12 000337   000000 702200 xent               TSX2  ! X66_MARET
PL6.E3A0      #001=DAA$ANLZ File=DAA$ANLZ.:E05TSI                                TUE 07/29/97 12:32 Page:66

      316    13298
      317    13299    1   TRAPX:
      318    13300    1           CALL M$XXX;

  13300 12 000340   000003 713400       TRAPX        CLIMB   3
        12 000341   000000 401760                    pmme    nvectors=0
        12 000342   005151 710000 12                 TRA     s:15392

      319    13301        /**/
      320    13302        %EJECT;
PL6.E3A0      #001=DAA$ANLZ File=DAA$ANLZ.:E05TSI                                TUE 07/29/97 12:32 Page:67
      321    13303        /**/
      322    13304        /* PROCESS (COMPOUND) COMMANDS */
      323    13305        /**/
      324    13306    1   COMMAND: PROC;

  13306 12 000343   200334 741300       COMMAND      STX1  ! CMDTBL$+1,,AUTO

      325    13307        /**/
      326    13308    2           DA_FMT_NEWCMD='1'B;

  13308 12 000344   400000 236003                    LDQ     -131072,DU
        12 000345   000000 756000 xsym               STQ     DA_FMT_NEWCMD

      327    13309    2           TX=0;

  13309 12 000346   200007 450100                    STZ     TX,,AUTO

      328    13310    2           CALL DAF$INIT(ANLZRPT);

  13310 12 000347   000002 630400 13                 EPPR0   2
        12 000350   000017 631400 xsym               EPPR1   B_VECTNIL+15
        12 000351   000000 701000 xent               TSX1    DAF$INIT
        12 000352   000000 011000                    NOP     0
        12 000353   000355 710000 12                 TRA     s:13314

      329    13311        /**/
      330    13312    2   COMMANDT: ENTRY;                        /* ENTRY AFTER TRAP */

  13312 12 000354   200334 741300       COMMANDT     STX1  ! CMDTBL$+1,,AUTO

      331    13313        /**/
      332    13314    3           DO WHILE(TX<TOP.NSUBLKS);

  13314 12 000355   200011 470500                    LDP0    TOP$,,AUTO
        12 000356   000001 236100                    LDQ     1,,PR0
        12 000357   000022 772000                    QRL     18
        12 000360   200007 116100                    CMPQ    TX,,AUTO
PL6.E3A0      #001=DAA$ANLZ File=DAA$ANLZ.:E05TSI                                TUE 07/29/97 12:32 Page:68
        12 000361   000404 604400 12                 TMOZ    s:13321

      333    13315    3              TX=TX+1;

  13315 12 000362   200007 054100                    AOS     TX,,AUTO

      334    13316    3              DA_TRTN=SAVE_TRTN;

  13316 12 000363   200016 237100                    LDAQ    SAVE_TRTN,,AUTO
        12 000364   000000 757000 xsym               STAQ    DA_TRTN

      335    13317    3              TRAPABRT='0'B;

  13317 12 000365   200227 450100                    STZ     TRAPABRT,,AUTO

      336    13318    3              CALL EXEC_CMD(TOP.SUBLK$(TX-1)->OUT);

  13318 12 000366   200011 470500                    LDP0    TOP$,,AUTO
        12 000367   200007 720100                    LXL0    TX,,AUTO
        12 000370   000002 471510                    LDP1    2,X0,PR0
        12 000371   200337 451500                    STP1    CMDTBL$+4,,AUTO
        12 000372   000406 701000 12                 TSX1    EXEC_CMD
        12 000373   000000 011000                    NOP     0

      337    13319    3              CALL DAA$ERRMSG;

  13319 12 000374   000002 631400 xsym               EPPR1   B_VECTNIL+2
        12 000375   000000 701000 xent               TSX1    DAA$ERRMSG
        12 000376   000000 011000                    NOP     0

      338    13320    3              END;

  13320 12 000377   200011 470500                    LDP0    TOP$,,AUTO
        12 000400   000001 236100                    LDQ     1,,PR0
        12 000401   000022 772000                    QRL     18
        12 000402   200007 116100                    CMPQ    TX,,AUTO
        12 000403   000362 605400 12                 TPNZ    s:13315
PL6.E3A0      #001=DAA$ANLZ File=DAA$ANLZ.:E05TSI                                TUE 07/29/97 12:32 Page:69

      339    13321    2           RETURN;

  13321 12 000404   200334 221300                    LDX1  ! CMDTBL$+1,,AUTO
        12 000405   000001 702211                    TSX2  ! 1,X1

      340    13322        /**/
      341    13323    2   END COMMAND;
      342    13324
      343    13325        /**/
      344    13326        /* EXECUTE SINGLE COMMAND */
      345    13327        /**/
      346    13328
      347    13329    1   EXEC_CMD: PROC(TOP);

  13329 12 000406   200336 741300       EXEC_CMD     STX1  ! CMDTBL$+3,,AUTO

      348    13330        /**/
      349    13331        %PARSE$OUT (NAME=TOP,STCLASS="");
      350    13376        /**/
      351    13377    3           DO CASE(TOP.CODE);

  13377 12 000407   200337 470500                    LDP0    @TOP,,AUTO
        12 000410   000000 720100                    LXL0    0,,PR0
        12 000411   000004 100003                    CMPX0   4,DU
        12 000412   000414 602010 12                 TNC     s:13377+5,X0
        12 000413   000502 710000 12                 TRA     s:13396
        12 000414   000467 710000 12                 TRA     s:13391
        12 000415   000502 710000 12                 TRA     s:13396
        12 000416   000474 710000 12                 TRA     s:13393
        12 000417   000420 710000 12                 TRA     s:13379

      352    13378    3            CASE(%DA_DELTA_CMD);

      353    13379    4              IF NOT(DA_DELTA_FLG OR DELTA_OK) THEN DO;

  13379 12 000420   000000 234000 xsym               SZN     DA_DELTA_FLG
PL6.E3A0      #001=DAA$ANLZ File=DAA$ANLZ.:E05TSI                                TUE 07/29/97 12:32 Page:70
        12 000421   000442 604000 12                 TMI     s:13385
        12 000422   000000 234000 1                  SZN     DELTA_OK
        12 000423   000442 604000 12                 TMI     s:13385

      354    13380    4                 DA_DELTA_FLG='1'B;

  13380 12 000424   400000 236003                    LDQ     -131072,DU
        12 000425   000000 756000 xsym               STQ     DA_DELTA_FLG

      355    13381    4                 FPT_ALIB.CMD_=VECTOR(ANLZTXT);

  13381 12 000426   000020 235000 13                 LDA     16
        12 000427   200362 452500                    STP2    SYSTAC2_HEAD_FLG+6,,AUTO
        12 000430   200362 236100                    LDQ     SYSTAC2_HEAD_FLG+6,,AUTO
        12 000431   000020 036003                    ADLQ    16,DU
        12 000432   000436 757000 1                  STAQ    FPT_ALIB+2

      356    13382    4                 FPT_ALIB.V.RETRN#='1'B;

  13382 12 000433   400000 236003                    LDQ     -131072,DU
        12 000434   000444 256000 1                  ORSQ    FPT_ALIB+8

      357    13383    5                 CALL M$ALIB(FPT_ALIB) WHENALTRETURN DO; END;

  13383 12 000435   000434 630400 1                  EPPR0   FPT_ALIB
        12 000436   400007 713400                    CLIMB   alt,+7
        12 000437   401400 401760                    pmme    nvectors=4
        12 000440   000442 702000 12                 TSX2    s:13385
        12 000441   000442 710000 12                 TRA     s:13385

      358    13384    4                 END;

      359    13385    4              IF TOP.SUBLK$(0)->SYM.COUNT>0 THEN DO;

  13385 12 000442   200337 470500                    LDP0    @TOP,,AUTO
        12 000443   000003 471500                    LDP1    3,,PR0
        12 000444   100004 236100                    LDQ     4,,PR1
PL6.E3A0      #001=DAA$ANLZ File=DAA$ANLZ.:E05TSI                                TUE 07/29/97 12:32 Page:71
        12 000445   777000 316003                    CANQ    -512,DU
        12 000446   000502 600000 12                 TZE     s:13396

      360    13386    4                 FPT_ALIB.CMD_=VECTOR(TOP.SUBLK$(0)->SYM.TEXT);

  13386 12 000447   100004 236100                    LDQ     4,,PR1
        12 000450   000033 772000                    QRL     27
        12 000451   000064 737000                    LLS     52
        12 000452   000140 135007                    SBLA    96,DL
        12 000453   200362 451500                    STP1    SYSTAC2_HEAD_FLG+6,,AUTO
        12 000454   200362 236100                    LDQ     SYSTAC2_HEAD_FLG+6,,AUTO
        12 000455   000021 036000 13                 ADLQ    17
        12 000456   000436 757000 1                  STAQ    FPT_ALIB+2

      361    13387    4                 FPT_ALIB.V.RETRN#='1'B;

  13387 12 000457   400000 236003                    LDQ     -131072,DU
        12 000460   000444 256000 1                  ORSQ    FPT_ALIB+8

      362    13388    5                 CALL M$ALIB(FPT_ALIB) WHENALTRETURN DO; END;

  13388 12 000461   000434 630400 1                  EPPR0   FPT_ALIB
        12 000462   400007 713400                    CLIMB   alt,+7
        12 000463   401400 401760                    pmme    nvectors=4
        12 000464   000466 702000 12                 TSX2    s:13389
        12 000465   000466 710000 12                 TRA     s:13389

      363    13389    4                 END;

  13389 12 000466   000502 710000 12                 TRA     s:13396

      364    13390    3            CASE(%DA_HOUSEKEEPING_CMD);

      365    13391    3              CALL HOUSEKEEPING(TOP.SUBLK$(0)->OUT);

  13391 12 000467   000003 471500                    LDP1    3,,PR0
        12 000470   200341 451500                    STP1    @TOP+2,,AUTO
PL6.E3A0      #001=DAA$ANLZ File=DAA$ANLZ.:E05TSI                                TUE 07/29/97 12:32 Page:72
        12 000471   000746 701000 12                 TSX1    HOUSEKEEPING
        12 000472   000000 011000                    NOP     0
        12 000473   000502 710000 12                 TRA     s:13396

      366    13392    3            CASE(%DA_DO_PER_USER);

      367    13393    3              CALL PER_USER(TOP);

  13393 12 000474   200337 236100                    LDQ     @TOP,,AUTO
        12 000475   200341 756100                    STQ     @TOP+2,,AUTO
        12 000476   000537 701000 12                 TSX1    PER_USER
        12 000477   000000 011000                    NOP     0

      368    13394    3              RETURN;

  13394 12 000500   200336 221300                    LDX1  ! CMDTBL$+3,,AUTO
        12 000501   000001 702211                    TSX2  ! 1,X1

      369    13395    3            END;

      370    13396    2           CMDTBL$=DA_CMDTBL$(TOP.CODE);

  13396 12 000502   200337 470500                    LDP0    @TOP,,AUTO
        12 000503   000000 720100                    LXL0    0,,PR0
        12 000504   000000 236010 xsym               LDQ     DA_CMDTBL$,X0
        12 000505   200333 756100                    STQ     CMDTBL$,,AUTO

      371    13397    3           IF CMDTBL$~=ADDR(NIL) THEN DO;

  13397 12 000506   000001 116000 xsym               CMPQ    B_VECTNIL+1
        12 000507   000532 600000 12                 TZE     s:13405

      372    13398    4              IF TOP.SUBLK$(0)->OUT.CODE<=CMDTBL.N THEN DO;

  13398 12 000510   000003 471500                    LDP1    3,,PR0
        12 000511   200333 473500                    LDP3    CMDTBL$,,AUTO
        12 000512   100000 236100                    LDQ     0,,PR1
PL6.E3A0      #001=DAA$ANLZ File=DAA$ANLZ.:E05TSI                                TUE 07/29/97 12:32 Page:73
        12 000513   777777 376007                    ANQ     -1,DL
        12 000514   300000 116100                    CMPQ    0,,PR3
        12 000515   000517 600000 12                 TZE     s:13399
        12 000516   000532 603000 12                 TRC     s:13405

      373    13399    4                 ROUTINE=CMDTBL.RTN(TOP.SUBLK$(0)->OUT.CODE);

  13399 12 000517   100000 721100                    LXL1    0,,PR1
        12 000520   300001 236111                    LDQ     1,X1,PR3
        12 000521   200015 756100                    STQ     ROUTINE,,AUTO

      374    13400    5                 IF ROUTINE~=ENTADDR(NIL) THEN DO;

  13400 12 000522   000002 116000 xsym               CMPQ    B_VECTNIL+2
        12 000523   000532 600000 12                 TZE     s:13405

      375    13401    5                    CALL ROUTINE(TOP.SUBLK$(0)->OUT);

  13401 12 000524   200362 451500                    STP1    SYSTAC2_HEAD_FLG+6,,AUTO
        12 000525   200362 630500                    EPPR0   SYSTAC2_HEAD_FLG+6,,AUTO
        12 000526   200015 220100                    LDX0    ROUTINE,,AUTO
        12 000527   000017 631400 xsym               EPPR1   B_VECTNIL+15
        12 000530   000000 701010                    TSX1    0,X0
        12 000531   000000 011000                    NOP     0

      376    13402    5                    END;

      377    13403    4                 END;

      378    13404    3              END;

      379    13405    2           CALL DAA$ERRMSG;

  13405 12 000532   000002 631400 xsym               EPPR1   B_VECTNIL+2
        12 000533   000000 701000 xent               TSX1    DAA$ERRMSG
        12 000534   000000 011000                    NOP     0

PL6.E3A0      #001=DAA$ANLZ File=DAA$ANLZ.:E05TSI                                TUE 07/29/97 12:32 Page:74
      380    13406    2           RETURN;

  13406 12 000535   200336 221300                    LDX1  ! CMDTBL$+3,,AUTO
        12 000536   000001 702211                    TSX2  ! 1,X1

      381    13407    2   END EXEC_CMD;
      382    13408        /**/
      383    13409        %EJECT;
PL6.E3A0      #001=DAA$ANLZ File=DAA$ANLZ.:E05TSI                                TUE 07/29/97 12:32 Page:75
      384    13410        /**/
      385    13411    1   PER_USER: PROC(TOP);

  13411 12 000537   200340 741300       PER_USER     STX1  ! @TOP+1,,AUTO

      386    13412        /**/
      387    13413        %PARSE$OUT (NAME=TOP,STCLASS="");
      388    13458        /**/
      389    13459    2   DCL I SBIN;
      390    13460        /**/
      391    13461    2           DA_CUN=0;

  13461 12 000540   000000 450000 xsym               STZ     DA_CUN

      392    13462    2           CMDTBL$=DA_CMDTBL$(TOP.CODE);

  13462 12 000541   200341 470500                    LDP0    @TOP,,AUTO
        12 000542   000000 720100                    LXL0    0,,PR0
        12 000543   000000 236010 xsym               LDQ     DA_CMDTBL$,X0
        12 000544   200333 756100                    STQ     CMDTBL$,,AUTO

      393    13463    3           DO WHILE(DA_CUN<512);

  13463 12 000545   000000 235000 xsym               LDA     DA_CUN
        12 000546   001000 115007                    CMPA    512,DL
        12 000547   000624 605000 12                 TPL     s:13479

      394    13464    4              CALL DAA$NXTUSR(TOP.SUBLK$(1)->OUT.SUBLK$(0)->OUT) WHENRETURN DO;

  13464 12 000550   200341 470500                    LDP0    @TOP,,AUTO
        12 000551   000004 471500                    LDP1    4,,PR0
        12 000552   100003 473500                    LDP3    3,,PR1
        12 000553   200362 453500                    STP3    SYSTAC2_HEAD_FLG+6,,AUTO
        12 000554   200362 630500                    EPPR0   SYSTAC2_HEAD_FLG+6,,AUTO
        12 000555   000017 631400 xsym               EPPR1   B_VECTNIL+15
        12 000556   000000 701000 xent               TSX1    DAA$NXTUSR
        12 000557   000617 702000 12                 TSX2    s:13476
PL6.E3A0      #001=DAA$ANLZ File=DAA$ANLZ.:E05TSI                                TUE 07/29/97 12:32 Page:76

      395    13465    5                 CALL USER_REPORT WHENRETURN DO;

  13465 12 000560   003502 701000 12                 TSX1    USER_REPORT
        12 000561   000616 702000 12                 TSX2    s:13474

      396    13466    6                    DO I=0 TO TOP.SUBLK$(0)->OUT.NSUBLKS-1;

  13466 12 000562   200342 450100                    STZ     I,,AUTO
        12 000563   000610 710000 12                 TRA     s:13472+1

      397    13467    6                       ROUTINE=CMDTBL.RTN(TOP.SUBLK$(0)->OUT.SUBLK$(I)->OUT.CODE);

  13467 12 000564   200341 470500                    LDP0    @TOP,,AUTO
        12 000565   000003 471500                    LDP1    3,,PR0
        12 000566   200342 720100                    LXL0    I,,AUTO
        12 000567   100003 473510                    LDP3    3,X0,PR1
        12 000570   300000 721100                    LXL1    0,,PR3
        12 000571   200333 474500                    LDP4    CMDTBL$,,AUTO
        12 000572   400001 236111                    LDQ     1,X1,PR4
        12 000573   200015 756100                    STQ     ROUTINE,,AUTO

      398    13468    7                       IF ROUTINE~=ENTADDR(NIL) THEN DO;

  13468 12 000574   000002 116000 xsym               CMPQ    B_VECTNIL+2
        12 000575   000607 600000 12                 TZE     s:13472

      399    13469    7                          CALL ROUTINE(TOP.SUBLK$(0)->OUT.SUBLK$(I)->OUT);

  13469 12 000576   200362 453500                    STP3    SYSTAC2_HEAD_FLG+6,,AUTO
        12 000577   200362 630500                    EPPR0   SYSTAC2_HEAD_FLG+6,,AUTO
        12 000600   200015 221100                    LDX1    ROUTINE,,AUTO
        12 000601   000017 631400 xsym               EPPR1   B_VECTNIL+15
        12 000602   000000 701011                    TSX1    0,X1
        12 000603   000000 011000                    NOP     0

      400    13470    7                          CALL DAA$ERRMSG;
PL6.E3A0      #001=DAA$ANLZ File=DAA$ANLZ.:E05TSI                                TUE 07/29/97 12:32 Page:77

  13470 12 000604   000002 631400 xsym               EPPR1   B_VECTNIL+2
        12 000605   000000 701000 xent               TSX1    DAA$ERRMSG
        12 000606   000000 011000                    NOP     0

      401    13471    7                          END;

      402    13472    6                       END;

  13472 12 000607   200342 054100                    AOS     I,,AUTO
        12 000610   200341 470500                    LDP0    @TOP,,AUTO
        12 000611   000003 471500                    LDP1    3,,PR0
        12 000612   100001 236100                    LDQ     1,,PR1
        12 000613   000022 772000                    QRL     18
        12 000614   200342 116100                    CMPQ    I,,AUTO
        12 000615   000564 605400 12                 TPNZ    s:13467

      403    13473    5                    END;

      404    13474    4                 END;

  13474 12 000616   000621 710000 12                 TRA     s:13478

      405    13475    4              WHENALTRETURN DO;

      406    13476    4                 DA_CUN=512;

  13476 12 000617   001000 235007                    LDA     512,DL
        12 000620   000000 755000 xsym               STA     DA_CUN

      407    13477    4                 END;

      408    13478    3              END;

  13478 12 000621   000000 235000 xsym               LDA     DA_CUN
        12 000622   001000 115007                    CMPA    512,DL
        12 000623   000550 604000 12                 TMI     s:13464
PL6.E3A0      #001=DAA$ANLZ File=DAA$ANLZ.:E05TSI                                TUE 07/29/97 12:32 Page:78

      409    13479    2           RETURN;

  13479 12 000624   200340 221300                    LDX1  ! @TOP+1,,AUTO
        12 000625   000001 702211                    TSX2  ! 1,X1

      410    13480    2   END PER_USER;
      411    13481        %EJECT;
PL6.E3A0      #001=DAA$ANLZ File=DAA$ANLZ.:E05TSI                                TUE 07/29/97 12:32 Page:79
      412    13482        /**/
      413    13483    1   CMDERR: PROC;

  13483 12 000626   200334 741300       CMDERR       STX1  ! CMDTBL$+1,,AUTO

      414    13484    3           IF OUTERR.MON THEN DO;

  13484 12 000627   200011 236100                    LDQ     TOP$,,AUTO
        12 000630   400000 316007                    CANQ    -131072,DL
        12 000631   000705 600000 12                 TZE     s:13499

      415    13485    3              CALL XUR$ERRMSG(OUTERR,DCBNUM(M$SI));

  13485 12 000632   000000 236007 xsym               LDQ     M$SI,DL
        12 000633   200362 756100                    STQ     SYSTAC2_HEAD_FLG+6,,AUTO
        12 000634   200362 630500                    EPPR0   SYSTAC2_HEAD_FLG+6,,AUTO
        12 000635   200365 450500                    STP0    SYSTAC2_HEAD_FLG+9,,AUTO
        12 000636   200011 631500                    EPPR1   TOP$,,AUTO
        12 000637   200364 451500                    STP1    SYSTAC2_HEAD_FLG+8,,AUTO
        12 000640   200364 630500                    EPPR0   SYSTAC2_HEAD_FLG+8,,AUTO
        12 000641   000020 631400 xsym               EPPR1   B_VECTNIL+16
        12 000642   000000 701000 xent               TSX1    XUR$ERRMSG
        12 000643   000000 011000                    NOP     0

      416    13486    4              IF DCBADDR(DCBNUM(M$SI))->F$DCB.ASN#=%DEVICE# THEN DO;

  13486 12 000644   000000 236007 xsym               LDQ     M$SI,DL
        12 000645   000022 470400 13                 LDP0    18
        12 000646   000000 471500                    LDP1    0,,PR0
        12 000647   100000 473506                    LDP3    0,QL,PR1
        12 000650   300032 236100                    LDQ     26,,PR3
        12 000651   777000 376007                    ANQ     -512,DL
        12 000652   003000 116007                    CMPQ    1536,DL
        12 000653   000663 601000 12                 TNZ     s:13491

      417    13487    4                 IF NOT DCBADDR(DCBNUM(M$SI))->F$DCB.DDEV.IC# THEN

PL6.E3A0      #001=DAA$ANLZ File=DAA$ANLZ.:E05TSI                                TUE 07/29/97 12:32 Page:80
  13487 12 000654   000000 236007 xsym               LDQ     M$SI,DL
        12 000655   100000 473506                    LDP3    0,QL,PR1
        12 000656   300004 236100                    LDQ     4,,PR3
        12 000657   100000 316007                    CANQ    32768,DL
        12 000660   000731 601000 12                 TNZ     s:13502

      418    13488    4                    ENDFLG='0'B;

  13488 12 000661   200013 450100                    STZ     ENDFLG,,AUTO

      419    13489    4                 END;

  13489 12 000662   000731 710000 12                 TRA     s:13502

      420    13490    4              ELSE DO;

      421    13491    4                 IF DCBADDR(DCBNUM(M$SI))->F$DCB.FCD# THEN

  13491 12 000663   000000 236007 xsym               LDQ     M$SI,DL
        12 000664   100000 473506                    LDP3    0,QL,PR1
        12 000665   300031 236100                    LDQ     25,,PR3
        12 000666   020000 316007                    CANQ    8192,DL
        12 000667   000675 600000 12                 TZE     s:13493

      422    13492    5                    CALL M$CLOSE(FPT_CLSSI) WHENALTRETURN DO; END;

  13492 12 000670   000604 630400 1                  EPPR0   FPT_CLSSI
        12 000671   450001 713400                    CLIMB   alt,close
        12 000672   406000 401760                    pmme    nvectors=13
        12 000673   000675 702000 12                 TSX2    s:13493
        12 000674   000675 710000 12                 TRA     s:13493

      423    13493    5                 CALL M$OPEN(FPT_SCRUBSI) WHENALTRETURN DO;

  13493 12 000675   000700 630400 1                  EPPR0   FPT_SCRUBSI
        12 000676   450000 713400                    CLIMB   alt,open
        12 000677   410400 401760                    pmme    nvectors=18
PL6.E3A0      #001=DAA$ANLZ File=DAA$ANLZ.:E05TSI                                TUE 07/29/97 12:32 Page:81
        12 000700   000702 702000 12                 TSX2    s:13494
        12 000701   000704 710000 12                 TRA     s:13497

      424    13494    5                    CALL PMME_ERR;

  13494 12 000702   000733 701000 12                 TSX1    PMME_ERR
        12 000703   000000 011000                    NOP     0

      425    13495    5                    END;

      426    13496    4                 END;

      427    13497    3              END;

  13497 12 000704   000731 710000 12                 TRA     s:13502

      428    13498    3           ELSE DO;

      429    13499    3              CALL XUR$ERRPTR(,DCBNUM(M$DO));

  13499 12 000705   000000 236007 xsym               LDQ     M$DO,DL
        12 000706   200362 756100                    STQ     SYSTAC2_HEAD_FLG+6,,AUTO
        12 000707   200362 630500                    EPPR0   SYSTAC2_HEAD_FLG+6,,AUTO
        12 000710   200365 450500                    STP0    SYSTAC2_HEAD_FLG+9,,AUTO
        12 000711   000001 236000 xsym               LDQ     B_VECTNIL+1
        12 000712   200364 756100                    STQ     SYSTAC2_HEAD_FLG+8,,AUTO
        12 000713   200364 630500                    EPPR0   SYSTAC2_HEAD_FLG+8,,AUTO
        12 000714   000020 631400 xsym               EPPR1   B_VECTNIL+16
        12 000715   000000 701000 xent               TSX1    XUR$ERRPTR
        12 000716   000000 011000                    NOP     0

      430    13500    3              IF OUTERR.CODE~=%E$SYNERR THEN CALL XUR$ERRMSG(OUTERR);

  13500 12 000717   200011 236100                    LDQ     TOP$,,AUTO
        12 000720   377770 376007                    ANQ     131064,DL
        12 000721   000010 116007                    CMPQ    8,DL
        12 000722   000731 600000 12                 TZE     s:13502
PL6.E3A0      #001=DAA$ANLZ File=DAA$ANLZ.:E05TSI                                TUE 07/29/97 12:32 Page:82

  13500 12 000723   200011 630500                    EPPR0   TOP$,,AUTO
        12 000724   200362 450500                    STP0    SYSTAC2_HEAD_FLG+6,,AUTO
        12 000725   200362 630500                    EPPR0   SYSTAC2_HEAD_FLG+6,,AUTO
        12 000726   000017 631400 xsym               EPPR1   B_VECTNIL+15
        12 000727   000000 701000 xent               TSX1    XUR$ERRMSG
        12 000730   000000 011000                    NOP     0

      431    13501    3              END;

      432    13502    2           RETURN;

  13502 12 000731   200334 221300                    LDX1  ! CMDTBL$+1,,AUTO
        12 000732   000001 702211                    TSX2  ! 1,X1

      433    13503    2   END CMDERR;
      434    13504        /**/
      435    13505    1   PMME_ERR: PROC;

  13505 12 000733   200342 741300       PMME_ERR     STX1  ! I,,AUTO

      436    13506        /**/
      437    13507    2           CALL DAA$ERRMSG(B$TCB$->B$TCB.ALT$->B$ALT.ERR);

  13507 12 000734   000000 470400 xsym               LDP0    B$TCB$
        12 000735   000000 471500                    LDP1    0,,PR0
        12 000736   100102 633500                    EPPR3   66,,PR1
        12 000737   200362 453500                    STP3    SYSTAC2_HEAD_FLG+6,,AUTO
        12 000740   200362 630500                    EPPR0   SYSTAC2_HEAD_FLG+6,,AUTO
        12 000741   000017 631400 xsym               EPPR1   B_VECTNIL+15
        12 000742   000000 701000 xent               TSX1    DAA$ERRMSG
        12 000743   000000 011000                    NOP     0

      438    13508    2           RETURN;

  13508 12 000744   200342 221300                    LDX1  ! I,,AUTO
        12 000745   000001 702211                    TSX2  ! 1,X1
PL6.E3A0      #001=DAA$ANLZ File=DAA$ANLZ.:E05TSI                                TUE 07/29/97 12:32 Page:83

      439    13509        /**/
      440    13510    2   END PMME_ERR;
      441    13511        /**/
      442    13512        %EJECT;
PL6.E3A0      #001=DAA$ANLZ File=DAA$ANLZ.:E05TSI                                TUE 07/29/97 12:32 Page:84
      443    13513        /**/
      444    13514        /* HOUSEKEEPING COMMANDS */
      445    13515        /**/
      446    13516    1   HOUSEKEEPING: PROC(TOP);

  13516 12 000746   200340 741300       HOUSEKEEPING STX1  ! @TOP+1,,AUTO

      447    13517        /**/
      448    13518        %PARSE$OUT (NAME=TOP,STCLASS="");
      449    13563        /**/
      450    13564    3           DO CASE(TOP.CODE);

  13564 12 000747   200341 470500                    LDP0    @TOP,,AUTO
        12 000750   000000 720100                    LXL0    0,,PR0
        12 000751   000036 100003                    CMPX0   30,DU
        12 000752   000754 602010 12                 TNC     s:13564+5,X0
        12 000753   002130 710000 12                 TRA     s:13805
        12 000754   001012 710000 12                 TRA     s:13566
        12 000755   001056 710000 12                 TRA     s:13579
        12 000756   001060 710000 12                 TRA     s:13581
        12 000757   001071 710000 12                 TRA     s:13585
        12 000760   001106 710000 12                 TRA     s:13590
        12 000761   001157 710000 12                 TRA     s:13611
        12 000762   001175 710000 12                 TRA     s:13615
        12 000763   001240 710000 12                 TRA     s:13639
        12 000764   001257 710000 12                 TRA     s:13642
        12 000765   001264 710000 12                 TRA     s:13644
        12 000766   001363 710000 12                 TRA     s:13673
        12 000767   001372 710000 12                 TRA     s:13675
        12 000770   001401 710000 12                 TRA     s:13677
        12 000771   001413 710000 12                 TRA     s:13686
        12 000772   001435 710000 12                 TRA     s:13693
        12 000773   001447 710000 12                 TRA     s:13697
        12 000774   001465 710000 12                 TRA     s:13701
        12 000775   001503 710000 12                 TRA     s:13705
        12 000776   001425 710000 12                 TRA     s:13690
        12 000777   001113 710000 12                 TRA     s:13593
PL6.E3A0      #001=DAA$ANLZ File=DAA$ANLZ.:E05TSI                                TUE 07/29/97 12:32 Page:85
        12 001000   001143 710000 12                 TRA     s:13605
        12 001001   001531 710000 12                 TRA     s:13711
        12 001002   001540 710000 12                 TRA     s:13713
        12 001003   001017 710000 12                 TRA     s:13568
        12 001004   001642 710000 12                 TRA     s:13737
        12 001005   001647 710000 12                 TRA     s:13739
        12 001006   001700 710000 12                 TRA     s:13749
        12 001007   002022 710000 12                 TRA     s:13785
        12 001010   002027 710000 12                 TRA     s:13787
        12 001011   002074 710000 12                 TRA     s:13796

      451    13565    3            CASE(%DA_HKP_ANLZ);

      452    13566    3              CALL ANLZ_CMD(TOP);

  13566 12 001012   200341 236100                    LDQ     @TOP,,AUTO
        12 001013   200343 756100                    STQ     I+1,,AUTO
        12 001014   002132 701000 12                 TSX1    ANLZ_CMD
        12 001015   000000 011000                    NOP     0
        12 001016   002130 710000 12                 TRA     s:13805

      453    13567    3            CASE(%DA_HKP_SYMBOLS);

      454    13568    4              IF TOP.NSUBLKS=0 THEN DO;

  13568 12 001017   000001 222100                    LDX2    1,,PR0
        12 001020   001030 601000 12                 TNZ     s:13573

      455    13569    4                 DA_DFLT_SYMBOLS='1'B;

  13569 12 001021   400000 236003                    LDQ     -131072,DU
        12 001022   000001 756000 1                  STQ     DA_DFLT_SYMBOLS

      456    13570    4                 CALL SELECT_NODE(VLR_NODEINFO.NODENAME#);

  13570 12 001023   000023 236000 13                 LDQ     19
        12 001024   200347 756100                    STQ     N+1,,AUTO
PL6.E3A0      #001=DAA$ANLZ File=DAA$ANLZ.:E05TSI                                TUE 07/29/97 12:32 Page:86
        12 001025   004105 701000 12                 TSX1    SELECT_NODE
        12 001026   000000 011000                    NOP     0

      457    13571    4                 END;

  13571 12 001027   002130 710000 12                 TRA     s:13805

      458    13572    4              ELSE DO;

      459    13573    4                 DA_DFLT_SYMBOLS='0'B;

  13573 12 001030   000001 450000 1                  STZ     DA_DFLT_SYMBOLS

      460    13574    4                 I=0;

  13574 12 001031   200003 450100                    STZ     I,,AUTO

      461    13575    4                 IF TOP.NSUBLKS>1 THEN CALL CHARBIN(I, TOP.SUBLK$(1)->SYM.TEXT);

  13575 12 001032   000001 220100                    LDX0    1,,PR0
        12 001033   000002 100003                    CMPX0   2,DU
        12 001034   001044 602000 12                 TNC     s:13576

  13575 12 001035   000004 471500                    LDP1    4,,PR0
        12 001036   100004 236100                    LDQ     4,,PR1
        12 001037   000033 772000                    QRL     27
        12 001040   000000 622006                    EAX2    0,QL
        12 001041   000100 305540                    DTB
        12 001042   100004 230012                    NDSC9   4,,PR1                   cn=1,s=nosgn,sf=0,n=*X2
        12 001043   200003 000004                    NDSC9   I,,AUTO                  cn=0,s=lsgnf,sf=0,n=4

      462    13576    4                 CALL DAS$SYMINIT(TOP.SUBLK$(0)->SYM.COUNT, I);

  13576 12 001044   000003 471500                    LDP1    3,,PR0
        12 001045   200003 633500                    EPPR3   I,,AUTO
        12 001046   200363 453500                    STP3    SYSTAC2_HEAD_FLG+7,,AUTO
        12 001047   100004 634500                    EPPR4   4,,PR1
PL6.E3A0      #001=DAA$ANLZ File=DAA$ANLZ.:E05TSI                                TUE 07/29/97 12:32 Page:87
        12 001050   200362 454500                    STP4    SYSTAC2_HEAD_FLG+6,,AUTO
        12 001051   200362 630500                    EPPR0   SYSTAC2_HEAD_FLG+6,,AUTO
        12 001052   000020 631400 xsym               EPPR1   B_VECTNIL+16
        12 001053   000000 701000 xent               TSX1    DAS$SYMINIT
        12 001054   000000 011000                    NOP     0

      463    13577    4                 END;

  13577 12 001055   002130 710000 12                 TRA     s:13805

      464    13578    3            CASE(%DA_HKP_END);

      465    13579    3              ENDFLG='0'B;

  13579 12 001056   200013 450100                    STZ     ENDFLG,,AUTO
        12 001057   002130 710000 12                 TRA     s:13805

      466    13580    3            CASE(%DA_HKP_CONTENTS);

      467    13581    3              CALL DAF$CONTENTS;

  13581 12 001060   000002 631400 xsym               EPPR1   B_VECTNIL+2
        12 001061   000000 701000 xent               TSX1    DAF$CONTENTS
        12 001062   000000 011000                    NOP     0

      468    13582    3              FPT_CLOSELO.V.DCB#=DAF_DCB#;

  13582 12 001063   000000 720000 xsym               LXL0    DAF_DCB#
        12 001064   000510 740000 1                  STX0    FPT_CLOSELO+26

      469    13583    3              CALL M$CLOSE(FPT_CLOSELO);

  13583 12 001065   000456 630400 1                  EPPR0   FPT_CLOSELO
        12 001066   050001 713400                    CLIMB   close
        12 001067   406000 401760                    pmme    nvectors=13
        12 001070   002130 710000 12                 TRA     s:13805

PL6.E3A0      #001=DAA$ANLZ File=DAA$ANLZ.:E05TSI                                TUE 07/29/97 12:32 Page:88
      470    13584    3            CASE(%DA_HKP_DELTA);

      471    13585    3              DA_DELTA_FLG='1'B;

  13585 12 001071   400000 236003                    LDQ     -131072,DU
        12 001072   000000 756000 xsym               STQ     DA_DELTA_FLG

      472    13586    3              FPT_ALIB.CMD_=VECTOR(ANLZTXT);

  13586 12 001073   000020 235000 13                 LDA     16
        12 001074   200362 452500                    STP2    SYSTAC2_HEAD_FLG+6,,AUTO
        12 001075   200362 236100                    LDQ     SYSTAC2_HEAD_FLG+6,,AUTO
        12 001076   000020 036003                    ADLQ    16,DU
        12 001077   000436 757000 1                  STAQ    FPT_ALIB+2

      473    13587    3              FPT_ALIB.V.RETRN#='1'B;

  13587 12 001100   400000 236003                    LDQ     -131072,DU
        12 001101   000444 256000 1                  ORSQ    FPT_ALIB+8

      474    13588    3              CALL M$ALIB(FPT_ALIB);

  13588 12 001102   000434 630400 1                  EPPR0   FPT_ALIB
        12 001103   000007 713400                    CLIMB   7
        12 001104   401400 401760                    pmme    nvectors=4
        12 001105   002130 710000 12                 TRA     s:13805

      475    13589    3            CASE(%DA_HKP_UNDEL);

      476    13590    3              DA_DELTA_FLG='0'B;

  13590 12 001106   000000 450000 xsym               STZ     DA_DELTA_FLG

      477    13591    3              CALL M$DLIB(FPT_KILLDELTA);

  13591 12 001107   000446 630400 1                  EPPR0   FPT_KILLDELTA
        12 001110   000010 713400                    CLIMB   8
PL6.E3A0      #001=DAA$ANLZ File=DAA$ANLZ.:E05TSI                                TUE 07/29/97 12:32 Page:89
        12 001111   400000 401760                    pmme    nvectors=1
        12 001112   002130 710000 12                 TRA     s:13805

      478    13592    3            CASE(%DA_HKP_GODEL);

      479    13593    3              FPT_ALIB.V.RETRN#='0'B;

  13593 12 001113   000031 236000 xsym               LDQ     B_VECTNIL+25
        12 001114   000444 356000 1                  ANSQ    FPT_ALIB+8

      480    13594    4              IF DA_DELTA_FLG OR DELTA_OK THEN DO;

  13594 12 001115   000000 234000 xsym               SZN     DA_DELTA_FLG
        12 001116   001121 604000 12                 TMI     s:13595
        12 001117   000000 234000 1                  SZN     DELTA_OK
        12 001120   001124 605000 12                 TPL     s:13598

      481    13595    4                 FPT_ALIB.CMD_=VECTOR(NIL);

  13595 12 001121   000024 237000 13                 LDAQ    20
        12 001122   000436 757000 1                  STAQ    FPT_ALIB+2

      482    13596    4                 END;

  13596 12 001123   001133 710000 12                 TRA     s:13601

      483    13597    4              ELSE DO;

      484    13598    4                 FPT_ALIB.CMD_=VECTOR(ANLZTXT);

  13598 12 001124   000020 235000 13                 LDA     16
        12 001125   200362 452500                    STP2    SYSTAC2_HEAD_FLG+6,,AUTO
        12 001126   200362 236100                    LDQ     SYSTAC2_HEAD_FLG+6,,AUTO
        12 001127   000020 036003                    ADLQ    16,DU
        12 001130   000436 757000 1                  STAQ    FPT_ALIB+2

      485    13599    4                 DA_DELTA_FLG='1'B;
PL6.E3A0      #001=DAA$ANLZ File=DAA$ANLZ.:E05TSI                                TUE 07/29/97 12:32 Page:90

  13599 12 001131   400000 236003                    LDQ     -131072,DU
        12 001132   000000 756000 xsym               STQ     DA_DELTA_FLG

      486    13600    4                 END;

      487    13601    4              CALL M$ALIB(FPT_ALIB) WHENALTRETURN DO;

  13601 12 001133   000434 630400 1                  EPPR0   FPT_ALIB
        12 001134   400007 713400                    CLIMB   alt,+7
        12 001135   401400 401760                    pmme    nvectors=4
        12 001136   001140 702000 12                 TSX2    s:13602
        12 001137   001142 710000 12                 TRA     s:13603

      488    13602    4                 CALL PMME_ERR;

  13602 12 001140   000733 701000 12                 TSX1    PMME_ERR
        12 001141   000000 011000                    NOP     0

      489    13603    4                 END;

  13603 12 001142   002130 710000 12                 TRA     s:13805

      490    13604    3            CASE(%DA_HKP_DEBUG);

      491    13605    3              DELTA_OK=BINBIT(TOP.SUBLK$(0)->OUT.CODE,1);

  13605 12 001143   000003 471500                    LDP1    3,,PR0
        12 001144   100000 236100                    LDQ     0,,PR1
        12 001145   777777 376007                    ANQ     -1,DL
        12 001146   000043 736000                    QLS     35
        12 001147   000000 756000 1                  STQ     DELTA_OK

      492    13606    4              IF DA_DELTA_FLG THEN DO;

  13606 12 001150   000000 234000 xsym               SZN     DA_DELTA_FLG
        12 001151   002130 605000 12                 TPL     s:13805
PL6.E3A0      #001=DAA$ANLZ File=DAA$ANLZ.:E05TSI                                TUE 07/29/97 12:32 Page:91

      493    13607    4                 CALL M$DLIB(FPT_KILLDELTA);

  13607 12 001152   000446 630400 1                  EPPR0   FPT_KILLDELTA
        12 001153   000010 713400                    CLIMB   8
        12 001154   400000 401760                    pmme    nvectors=1

      494    13608    4                 DA_DELTA_FLG='0'B;

  13608 12 001155   000000 450000 xsym               STZ     DA_DELTA_FLG

      495    13609    4                 END;

  13609 12 001156   002130 710000 12                 TRA     s:13805

      496    13610    3            CASE(%DA_HKP_WAIT);

      497    13611    3              CALL DAA$VALUE(TOP,I);

  13611 12 001157   200003 631500                    EPPR1   I,,AUTO
        12 001160   200363 451500                    STP1    SYSTAC2_HEAD_FLG+7,,AUTO
        12 001161   200341 236100                    LDQ     @TOP,,AUTO
        12 001162   200362 756100                    STQ     SYSTAC2_HEAD_FLG+6,,AUTO
        12 001163   200362 630500                    EPPR0   SYSTAC2_HEAD_FLG+6,,AUTO
        12 001164   000020 631400 xsym               EPPR1   B_VECTNIL+16
        12 001165   000000 701000 xent               TSX1    DAA$VALUE
        12 001166   000000 011000                    NOP     0

      498    13612    3              FPT_WAIT.V.UNITS#=I;

  13612 12 001167   200003 235100                    LDA     I,,AUTO
        12 001170   000566 755000 1                  STA     FPT_WAIT+4

      499    13613    3              CALL M$WAIT(FPT_WAIT);

  13613 12 001171   000562 630400 1                  EPPR0   FPT_WAIT
        12 001172   020006 713400                    CLIMB   8198
PL6.E3A0      #001=DAA$ANLZ File=DAA$ANLZ.:E05TSI                                TUE 07/29/97 12:32 Page:92
        12 001173   400400 401760                    pmme    nvectors=2
        12 001174   002130 710000 12                 TRA     s:13805

      500    13614    3            CASE(%DA_HKP_REPEAT);

      501    13615    4              IF TX=1 THEN DO;

  13615 12 001175   200007 235100                    LDA     TX,,AUTO
        12 001176   000001 115007                    CMPA    1,DL
        12 001177   001205 601000 12                 TNZ     s:13622

      502    13616    4                 CALL DAA$ERRMSG(%E$DA_REPEAT_NOTHING);

  13616 12 001200   000027 630400 13                 EPPR0   23
        12 001201   000017 631400 xsym               EPPR1   B_VECTNIL+15
        12 001202   000000 701000 xent               TSX1    DAA$ERRMSG
        12 001203   000000 011000                    NOP     0

      503    13617        /*E*    ERROR:   DAA-E$DA_REPEAT_NOTHING
      504    13618                MESSAGE: There is no point in repeating nothing.
      505    13619        */
      506    13620    4                 END;

  13620 12 001204   002130 710000 12                 TRA     s:13805

      507    13621    4              ELSE DO;

      508    13622    5                 IF RPTCNT=0 THEN DO;

  13622 12 001205   200010 236100                    LDQ     RPTCNT,,AUTO
        12 001206   001233 601000 12                 TNZ     s:13634

      509    13623    5                    IF TOP.NSUBLKS=0 THEN TX=0;

  13623 12 001207   000001 222100                    LDX2    1,,PR0
        12 001210   001213 601000 12                 TNZ     s:13625

PL6.E3A0      #001=DAA$ANLZ File=DAA$ANLZ.:E05TSI                                TUE 07/29/97 12:32 Page:93
  13623 12 001211   200007 450100                    STZ     TX,,AUTO
        12 001212   002130 710000 12                 TRA     s:13805

      510    13624    6                    ELSE DO;

      511    13625    6                       CALL DAA$VALUE(TOP.SUBLK$(0)->OUT,RPTCNT);

  13625 12 001213   000003 471500                    LDP1    3,,PR0
        12 001214   200010 633500                    EPPR3   RPTCNT,,AUTO
        12 001215   200363 453500                    STP3    SYSTAC2_HEAD_FLG+7,,AUTO
        12 001216   200362 451500                    STP1    SYSTAC2_HEAD_FLG+6,,AUTO
        12 001217   200362 630500                    EPPR0   SYSTAC2_HEAD_FLG+6,,AUTO
        12 001220   000020 631400 xsym               EPPR1   B_VECTNIL+16
        12 001221   000000 701000 xent               TSX1    DAA$VALUE
        12 001222   000000 011000                    NOP     0

      512    13626    7                       IF RPTCNT>0 THEN DO;

  13626 12 001223   200010 235100                    LDA     RPTCNT,,AUTO
        12 001224   001231 604400 12                 TMOZ    s:13630

      513    13627    7                          TX=0;

  13627 12 001225   200007 450100                    STZ     TX,,AUTO

      514    13628    7                          RPTCNT=RPTCNT-1;

  13628 12 001226   000001 336007                    LCQ     1,DL
        12 001227   200010 056100                    ASQ     RPTCNT,,AUTO

      515    13629    7                          END;

  13629 12 001230   002130 710000 12                 TRA     s:13805

      516    13630    6                       ELSE RPTCNT=0;

  13630 12 001231   200010 450100                    STZ     RPTCNT,,AUTO
PL6.E3A0      #001=DAA$ANLZ File=DAA$ANLZ.:E05TSI                                TUE 07/29/97 12:32 Page:94

      517    13631    6                       END;

      518    13632    5                    END;

  13632 12 001232   002130 710000 12                 TRA     s:13805

      519    13633    5                 ELSE DO;

      520    13634    5                    RPTCNT=RPTCNT-1;

  13634 12 001233   000001 336007                    LCQ     1,DL
        12 001234   200010 056100                    ASQ     RPTCNT,,AUTO

      521    13635    5                    IF RPTCNT>0 THEN TX=0;

  13635 12 001235   002130 604400 12                 TMOZ    s:13805

  13635 12 001236   200007 450100                    STZ     TX,,AUTO

      522    13636    5                    END;

      523    13637    4                 END;

  13637 12 001237   002130 710000 12                 TRA     s:13805

      524    13638    3            CASE(%DA_HKP_CPU);

      525    13639    3              CALL DAA$VALUE(TOP,I);

  13639 12 001240   200003 631500                    EPPR1   I,,AUTO
        12 001241   200363 451500                    STP1    SYSTAC2_HEAD_FLG+7,,AUTO
        12 001242   200341 236100                    LDQ     @TOP,,AUTO
        12 001243   200362 756100                    STQ     SYSTAC2_HEAD_FLG+6,,AUTO
        12 001244   200362 630500                    EPPR0   SYSTAC2_HEAD_FLG+6,,AUTO
        12 001245   000020 631400 xsym               EPPR1   B_VECTNIL+16
        12 001246   000000 701000 xent               TSX1    DAA$VALUE
PL6.E3A0      #001=DAA$ANLZ File=DAA$ANLZ.:E05TSI                                TUE 07/29/97 12:32 Page:95
        12 001247   000000 011000                    NOP     0

      526    13640    3              CALL DAM$USECPU(I);

  13640 12 001250   200003 630500                    EPPR0   I,,AUTO
        12 001251   200362 450500                    STP0    SYSTAC2_HEAD_FLG+6,,AUTO
        12 001252   200362 630500                    EPPR0   SYSTAC2_HEAD_FLG+6,,AUTO
        12 001253   000017 631400 xsym               EPPR1   B_VECTNIL+15
        12 001254   000000 701000 xent               TSX1    DAM$USECPU
        12 001255   000000 011000                    NOP     0
        12 001256   002130 710000 12                 TRA     s:13805

      527    13641    3            CASE(%DA_HKP_DOMAIN);

      528    13642    3              DA_DOMAIN=TOP.SUBLK$(0)->OUT.CODE;

  13642 12 001257   000003 471500                    LDP1    3,,PR0
        12 001260   100000 236100                    LDQ     0,,PR1
        12 001261   777777 376007                    ANQ     -1,DL
        12 001262   000000 756000 xsym               STQ     DA_DOMAIN
        12 001263   002130 710000 12                 TRA     s:13805

      529    13643    3            CASE(%DA_HKP_RUE);

      530    13644    4              IF DA_DUMPFILE THEN DO;

  13644 12 001264   000000 234000 xsym               SZN     DA_DUMPFILE
        12 001265   001273 605000 12                 TPL     s:13652

      531    13645    4                 CALL DAA$ERRMSG(%E$DA_NO_CAN_DO);

  13645 12 001266   000031 630400 13                 EPPR0   25
        12 001267   000017 631400 xsym               EPPR1   B_VECTNIL+15
        12 001270   000000 701000 xent               TSX1    DAA$ERRMSG
        12 001271   000000 011000                    NOP     0

      532    13646
PL6.E3A0      #001=DAA$ANLZ File=DAA$ANLZ.:E05TSI                                TUE 07/29/97 12:32 Page:96
      533    13647        /*E*   ERROR:   DAA-E$DA_NO_CAN_DO
      534    13648               MESSAGE: Command not valid in dump file mode.
      535    13649                                                                          */
      536    13650    4                 END;

  13650 12 001272   002130 710000 12                 TRA     s:13805

      537    13651    4              ELSE DO;

      538    13652    4                 IF NOT B$JIT.PRIV.ACTIVE & %PR_MSYS# THEN

  13652 12 001273   000000 471400 xsym               LDP1    B$JIT$
        12 001274   100013 236100                    LDQ     11,,PR1
        12 001275   000012 376000 xsym               ANQ     B_VECTNIL+10
        12 001276   001310 601000 12                 TNZ     s:13657

      539    13653    5                    CALL M$SPRIV(FPT_SETMSYS) WHENALTRETURN DO;

  13653 12 001277   000574 630400 1                  EPPR0   FPT_SETMSYS
        12 001300   420012 713400                    CLIMB   alt,+8202
        12 001301   400000 401760                    pmme    nvectors=1
        12 001302   001304 702000 12                 TSX2    s:13654
        12 001303   001310 710000 12                 TRA     s:13657

      540    13654    5                       CALL PMME_ERR;

  13654 12 001304   000733 701000 12                 TSX1    PMME_ERR
        12 001305   000000 011000                    NOP     0

      541    13655    5                       RETURN;

  13655 12 001306   200340 221300                    LDX1  ! @TOP+1,,AUTO
        12 001307   000001 702211                    TSX2  ! 1,X1

      542    13656    5                       END;
      543    13657    4                 FPT_RUE.V.EVENT#=TOP.SUBLK$(0)->OUT.CODE;

PL6.E3A0      #001=DAA$ANLZ File=DAA$ANLZ.:E05TSI                                TUE 07/29/97 12:32 Page:97
  13657 12 001310   200341 470500                    LDP0    @TOP,,AUTO
        12 001311   000003 471500                    LDP1    3,,PR0
        12 001312   100000 236100                    LDQ     0,,PR1
        12 001313   000011 736000                    QLS     9
        12 001314   000602 552010 1                  STBQ    FPT_RUE+2,'10'O

      544    13658    4                 DA_CUN=0;

  13658 12 001315   000000 450000 xsym               STZ     DA_CUN

      545    13659    5                 DO WHILE(DA_CUN<512);

  13659 12 001316   000000 235000 xsym               LDA     DA_CUN
        12 001317   001000 115007                    CMPA    512,DL
        12 001320   002130 605000 12                 TPL     s:13805

      546    13660    6                    CALL DAA$NXTUSR(TOP.SUBLK$(1)->OUT) WHENRETURN DO;

  13660 12 001321   200341 470500                    LDP0    @TOP,,AUTO
        12 001322   000004 471500                    LDP1    4,,PR0
        12 001323   200362 451500                    STP1    SYSTAC2_HEAD_FLG+6,,AUTO
        12 001324   200362 630500                    EPPR0   SYSTAC2_HEAD_FLG+6,,AUTO
        12 001325   000017 631400 xsym               EPPR1   B_VECTNIL+15
        12 001326   000000 701000 xent               TSX1    DAA$NXTUSR
        12 001327   001355 702000 12                 TSX2    s:13668

      547    13661    6                       FPT_RUE.V.USER#=B$USRT$->B$USER.SYSID(DA_CUN);

  13661 12 001330   000000 235000 xsym               LDA     DA_CUN
        12 001331   000004 735000                    ALS     4
        12 001332   000000 470400 xsym               LDP0    B$USRT$
        12 001333   000014 720105                    LXL0    12,AL,PR0
        12 001334   000602 740000 1                  STX0    FPT_RUE+2

      548    13662    6                       CALL USER_ID;

  13662 12 001335   003506 701000 12                 TSX1    USER_ID
PL6.E3A0      #001=DAA$ANLZ File=DAA$ANLZ.:E05TSI                                TUE 07/29/97 12:32 Page:98
        12 001336   000000 011000                    NOP     0

      549    13663    7                       CALL M$RUE(FPT_RUE) WHENALTRETURN DO;

  13663 12 001337   000600 630400 1                  EPPR0   FPT_RUE
        12 001340   420020 713400                    CLIMB   alt,+8208
        12 001341   400000 401760                    pmme    nvectors=1
        12 001342   001344 702000 12                 TSX2    s:13664
        12 001343   001354 710000 12                 TRA     s:13666

      550    13664    7                          CALL DAA$ERRMSG(B$TCB$->B$TCB.ALT$->B$ALT.ERR);

  13664 12 001344   000000 470400 xsym               LDP0    B$TCB$
        12 001345   000000 471500                    LDP1    0,,PR0
        12 001346   100102 633500                    EPPR3   66,,PR1
        12 001347   200362 453500                    STP3    SYSTAC2_HEAD_FLG+6,,AUTO
        12 001350   200362 630500                    EPPR0   SYSTAC2_HEAD_FLG+6,,AUTO
        12 001351   000017 631400 xsym               EPPR1   B_VECTNIL+15
        12 001352   000000 701000 xent               TSX1    DAA$ERRMSG
        12 001353   000000 011000                    NOP     0

      551    13665    7                          END;

      552    13666    6                       END;

  13666 12 001354   001357 710000 12                 TRA     s:13670

      553    13667    6                    WHENALTRETURN DO;

      554    13668    6                       DA_CUN=512;

  13668 12 001355   001000 235007                    LDA     512,DL
        12 001356   000000 755000 xsym               STA     DA_CUN

      555    13669    6                       END;

      556    13670    5                    END;
PL6.E3A0      #001=DAA$ANLZ File=DAA$ANLZ.:E05TSI                                TUE 07/29/97 12:32 Page:99

  13670 12 001357   000000 235000 xsym               LDA     DA_CUN
        12 001360   001000 115007                    CMPA    512,DL
        12 001361   001321 604000 12                 TMI     s:13660

      557    13671    4                 END;

  13671 12 001362   002130 710000 12                 TRA     s:13805

      558    13672    3            CASE(%DA_HKP_ASR);

      559    13673    3              CALL SETLSR(TOP,DA_ASR,'ASR');

  13673 12 001363   000032 237000 13                 LDAQ    26
        12 001364   200344 757100                    STAQ    @TOP+1,,AUTO
        12 001365   200341 236100                    LDQ     @TOP,,AUTO
        12 001366   200343 756100                    STQ     I+1,,AUTO
        12 001367   003633 701000 12                 TSX1    SETLSR
        12 001370   000000 011000                    NOP     0
        12 001371   002130 710000 12                 TRA     s:13805

      560    13674    3            CASE(%DA_HKP_PSR);

      561    13675    3              CALL SETLSR(TOP,DA_PSR,'PSR');

  13675 12 001372   000034 237000 13                 LDAQ    28
        12 001373   200344 757100                    STAQ    @TOP+1,,AUTO
        12 001374   200341 236100                    LDQ     @TOP,,AUTO
        12 001375   200343 756100                    STQ     I+1,,AUTO
        12 001376   003633 701000 12                 TSX1    SETLSR
        12 001377   000000 011000                    NOP     0
        12 001400   002130 710000 12                 TRA     s:13805

      562    13676    3            CASE(%DA_HKP_Q1);

      563    13677    4              CALL XUR$MOREMSG(XUH_PARAM) WHENALTRETURN DO;

PL6.E3A0      #001=DAA$ANLZ File=DAA$ANLZ.:E05TSI                                TUE 07/29/97 12:32 Page:100
  13677 12 001401   000036 630400 13                 EPPR0   30
        12 001402   000017 631400 xsym               EPPR1   B_VECTNIL+15
        12 001403   000000 701000 xent               TSX1    XUR$MOREMSG
        12 001404   001406 702000 12                 TSX2    s:13678
        12 001405   001412 710000 12                 TRA     s:13679

      564    13678    4                 CALL DAA$ERRMSG(%E$DA_NO_MORE);

  13678 12 001406   000040 630400 13                 EPPR0   32
        12 001407   000017 631400 xsym               EPPR1   B_VECTNIL+15
        12 001410   000000 701000 xent               TSX1    DAA$ERRMSG
        12 001411   000000 011000                    NOP     0

      565    13679    4                 END;

  13679 12 001412   002130 710000 12                 TRA     s:13805

      566    13680
      567    13681        /*E*   ERROR:   DAA-E$DA_NO_MORE
      568    13682               MESSAGE: No messages available.
      569    13683               MESSAGE1: Th Th Th That's all fffolks!
      570    13684                                                                          */
      571    13685    3            CASE(%DA_HKP_Q2);

      572    13686    4              CALL XUR$ALLMSG(XUH_PARAM) WHENALTRETURN DO;

  13686 12 001413   000036 630400 13                 EPPR0   30
        12 001414   000017 631400 xsym               EPPR1   B_VECTNIL+15
        12 001415   000000 701000 xent               TSX1    XUR$ALLMSG
        12 001416   001420 702000 12                 TSX2    s:13687
        12 001417   001424 710000 12                 TRA     s:13688

      573    13687    4                 CALL DAA$ERRMSG(%E$DA_NO_MORE);

  13687 12 001420   000040 630400 13                 EPPR0   32
        12 001421   000017 631400 xsym               EPPR1   B_VECTNIL+15
        12 001422   000000 701000 xent               TSX1    DAA$ERRMSG
PL6.E3A0      #001=DAA$ANLZ File=DAA$ANLZ.:E05TSI                                TUE 07/29/97 12:32 Page:101
        12 001423   000000 011000                    NOP     0

      574    13688    4                 END;

  13688 12 001424   002130 710000 12                 TRA     s:13805

      575    13689    3            CASE(%DA_HKP_HELP);

      576    13690    3              XUH_PARAM.HELP$=TOP.SUBLK$(0)->SYM.TEXTC$;

  13690 12 001425   000003 471500                    LDP1    3,,PR0
        12 001426   100003 236100                    LDQ     3,,PR1
        12 001427   000217 756000 1                  STQ     XUH_PARAM+9

      577    13691    3              CALL XUR$HELP(XUH_PARAM);

  13691 12 001430   000036 630400 13                 EPPR0   30
        12 001431   000017 631400 xsym               EPPR1   B_VECTNIL+15
        12 001432   000000 701000 xent               TSX1    XUR$HELP
        12 001433   000000 011000                    NOP     0
        12 001434   002130 710000 12                 TRA     s:13805

      578    13692    3            CASE(%DA_HKP_OUTPUT);

      579    13693    4              CALL SETDCB(TOP,DAF_DCB#,%CREATE#) WHENALTRETURN DO;

  13693 12 001435   000042 237000 13                 LDAQ    34
        12 001436   200344 757100                    STAQ    @TOP+1,,AUTO
        12 001437   200341 236100                    LDQ     @TOP,,AUTO
        12 001440   200343 756100                    STQ     I+1,,AUTO
        12 001441   003767 701000 12                 TSX1    SETDCB
        12 001442   001444 702000 12                 TSX2    s:13694
        12 001443   001446 710000 12                 TRA     s:13695

      580    13694    4                 CALL PMME_ERR;

  13694 12 001444   000733 701000 12                 TSX1    PMME_ERR
PL6.E3A0      #001=DAA$ANLZ File=DAA$ANLZ.:E05TSI                                TUE 07/29/97 12:32 Page:102
        12 001445   000000 011000                    NOP     0

      581    13695    4                 END;

  13695 12 001446   002130 710000 12                 TRA     s:13805

      582    13696    3            CASE(%DA_HKP_ECHO);

      583    13697    4              CALL SETDCB(TOP,DCBNUM(M$ME),%CREATE#) WHENALTRETURN DO;

  13697 12 001447   000000 236007 xsym               LDQ     M$ME,DL
        12 001450   200406 756100                    STQ     SYSTAC2_HEAD_FLG+26,,AUTO
        12 001451   000043 236000 13                 LDQ     35
        12 001452   200345 756100                    STQ     FNUM+1,,AUTO
        12 001453   200406 631500                    EPPR1   SYSTAC2_HEAD_FLG+26,,AUTO
        12 001454   200344 451500                    STP1    @TOP+1,,AUTO
        12 001455   200341 236100                    LDQ     @TOP,,AUTO
        12 001456   200343 756100                    STQ     I+1,,AUTO
        12 001457   003767 701000 12                 TSX1    SETDCB
        12 001460   001462 702000 12                 TSX2    s:13698
        12 001461   001464 710000 12                 TRA     s:13699

      584    13698    4                 CALL PMME_ERR;

  13698 12 001462   000733 701000 12                 TSX1    PMME_ERR
        12 001463   000000 011000                    NOP     0

      585    13699    4                 END;

  13699 12 001464   002130 710000 12                 TRA     s:13805

      586    13700    3            CASE(%DA_HKP_READ);

      587    13701    4              CALL SETDCB(TOP,DCBNUM(M$SI),%IN#) WHENALTRETURN DO;

  13701 12 001465   000000 236007 xsym               LDQ     M$SI,DL
        12 001466   200407 756100                    STQ     SYSTAC2_HEAD_FLG+27,,AUTO
PL6.E3A0      #001=DAA$ANLZ File=DAA$ANLZ.:E05TSI                                TUE 07/29/97 12:32 Page:103
        12 001467   000044 236000 13                 LDQ     36
        12 001470   200345 756100                    STQ     FNUM+1,,AUTO
        12 001471   200407 631500                    EPPR1   SYSTAC2_HEAD_FLG+27,,AUTO
        12 001472   200344 451500                    STP1    @TOP+1,,AUTO
        12 001473   200341 236100                    LDQ     @TOP,,AUTO
        12 001474   200343 756100                    STQ     I+1,,AUTO
        12 001475   003767 701000 12                 TSX1    SETDCB
        12 001476   001500 702000 12                 TSX2    s:13702
        12 001477   001502 710000 12                 TRA     s:13703

      588    13702    4                 CALL PMME_ERR;

  13702 12 001500   000733 701000 12                 TSX1    PMME_ERR
        12 001501   000000 011000                    NOP     0

      589    13703    4                 END;

  13703 12 001502   002130 710000 12                 TRA     s:13805

      590    13704    3            CASE(%DA_HKP_XEQ);

      591    13705    3              CALL INSERT(CBUF,,,'XEQ ',TOP.SUBLK$(0)->SYM.TEXT);

  13705 12 001503   000003 471500                    LDP1    3,,PR0
        12 001504   100004 236100                    LDQ     4,,PR1
        12 001505   000033 772000                    QRL     27
        12 001506   000000 622006                    EAX2    0,QL
        12 001507   000132 236000 2                  LDQ     BLANKS+4
        12 001510   200232 756100                    STQ     CBUF,,AUTO
        12 001511   040100 100540                    MLR     fill='040'O
        12 001512   100004 200012                    ADSC9   4,,PR1                   cn=1,n=*X2
        12 001513   200233 000374                    ADSC9   CBUF+1,,AUTO             cn=0,n=252

      592    13706    3              FPT_YC.CMD_=VECTOR(CBUF);

  13706 12 001514   000020 235000 13                 LDA     16
        12 001515   200362 452500                    STP2    SYSTAC2_HEAD_FLG+6,,AUTO
PL6.E3A0      #001=DAA$ANLZ File=DAA$ANLZ.:E05TSI                                TUE 07/29/97 12:32 Page:104
        12 001516   200362 236100                    LDQ     SYSTAC2_HEAD_FLG+6,,AUTO
        12 001517   000232 036003                    ADLQ    154,DU
        12 001520   001454 757000 1                  STAQ    FPT_YC

      593    13707    4              CALL M$YC(FPT_YC) WHENALTRETURN DO;

  13707 12 001521   001454 630400 1                  EPPR0   FPT_YC
        12 001522   400011 713400                    CLIMB   alt,+9
        12 001523   401000 401760                    pmme    nvectors=3
        12 001524   001526 702000 12                 TSX2    s:13708
        12 001525   001530 710000 12                 TRA     s:13709

      594    13708    4                 CALL PMME_ERR;

  13708 12 001526   000733 701000 12                 TSX1    PMME_ERR
        12 001527   000000 011000                    NOP     0

      595    13709    4                 END;

  13709 12 001530   002130 710000 12                 TRA     s:13805

      596    13710    3            CASE(%DA_HKP_TRAPFRAME);

      597    13711    3              CALL DAU$DUMPFRAME(TRAPFRAME);

  13711 12 001531   200123 631500                    EPPR1   TRAPFRAME,,AUTO
        12 001532   200362 451500                    STP1    SYSTAC2_HEAD_FLG+6,,AUTO
        12 001533   200362 630500                    EPPR0   SYSTAC2_HEAD_FLG+6,,AUTO
        12 001534   000017 631400 xsym               EPPR1   B_VECTNIL+15
        12 001535   000000 701000 xent               TSX1    DAU$DUMPFRAME
        12 001536   000000 011000                    NOP     0
        12 001537   002130 710000 12                 TRA     s:13805

      598    13712    3            CASE(%DA_HKP_SELECT);

      599    13713    4              IF TOP.NSUBLKS=0 THEN DO;

PL6.E3A0      #001=DAA$ANLZ File=DAA$ANLZ.:E05TSI                                TUE 07/29/97 12:32 Page:105
  13713 12 001540   000001 222100                    LDX2    1,,PR0
        12 001541   001550 601000 12                 TNZ     s:13717

      600    13714    4                 CALL DAF$WRITE(VECTOR(SELFMT),VECTOR(VLR_NODEINFO.NODENAME#),VECTOR(
             13714                          VLR_NODEINFO.NODENUM#));

  13714 12 001542   000054 630400 13                 EPPR0   44
        12 001543   000000 220000 xsym               LDX0    DAF$WRITE
        12 001544   000021 631400 xsym               EPPR1   B_VECTNIL+17
        12 001545   000000 701010                    TSX1    0,X0
        12 001546   000000 011000                    NOP     0

      601    13715    4                 END;

  13715 12 001547   002130 710000 12                 TRA     s:13805

      602    13716    4              ELSE DO;

      603    13717    5                 IF TOP.SUBLK$(0)->OUT.NDTYPE=%DEC# THEN DO;

  13717 12 001550   000003 471500                    LDP1    3,,PR0
        12 001551   100000 236100                    LDQ     0,,PR1
        12 001552   000077 376003                    ANQ     63,DU
        12 001553   000022 116003                    CMPQ    18,DU
        12 001554   001573 601000 12                 TNZ     s:13723

      604    13718    5                    FPT_NODEINFO.V.NODENAME#=' ';

  13718 12 001555   000035 235000 xsym               LDA     B_VECTNIL+29
        12 001556   000035 236000 xsym               LDQ     B_VECTNIL+29
        12 001557   001506 757000 1                  STAQ    FPT_NODEINFO+4

      605    13719    5                    CALL CHARBIN(I,TOP.SUBLK$(0)->SYM.TEXT);

  13719 12 001560   000003 471500                    LDP1    3,,PR0
        12 001561   100004 236100                    LDQ     4,,PR1
        12 001562   000033 772000                    QRL     27
PL6.E3A0      #001=DAA$ANLZ File=DAA$ANLZ.:E05TSI                                TUE 07/29/97 12:32 Page:106
        12 001563   000000 620006                    EAX0    0,QL
        12 001564   000100 305540                    DTB
        12 001565   100004 230010                    NDSC9   4,,PR1                   cn=1,s=nosgn,sf=0,n=*X0
        12 001566   200003 000004                    NDSC9   I,,AUTO                  cn=0,s=lsgnf,sf=0,n=4

      606    13720    5                    FPT_NODEINFO.V.NODENUM#=I;

  13720 12 001567   200003 236100                    LDQ     I,,AUTO
        12 001570   000033 736000                    QLS     27
        12 001571   001510 552040 1                  STBQ    FPT_NODEINFO+6,'40'O

      607    13721    5                    END;

  13721 12 001572   001610 710000 12                 TRA     s:13728

      608    13722    5                 ELSE DO;

      609    13723    5                    IF TOP.SUBLK$(0)->SYM.TEXT='HOST' THEN

  13723 12 001573   100004 236100                    LDQ     4,,PR1
        12 001574   000033 772000                    QRL     27
        12 001575   000000 623006                    EAX3    0,QL
        12 001576   040000 106540                    CMPC    fill='040'O
        12 001577   100004 200013                    ADSC9   4,,PR1                   cn=1,n=*X3
        12 001600   000133 000004 2                  ADSC9   BLANKS+5                 cn=0,n=4
        12 001601   001605 601000 12                 TNZ     s:13726

      610    13724    5                       FPT_NODEINFO.V.NODENAME#=VLR_MONINFO.NODE_NAME;

  13724 12 001602   000426 237000 1                  LDAQ    VLR_MONINFO+10
        12 001603   001506 757000 1                  STAQ    FPT_NODEINFO+4
        12 001604   001610 710000 12                 TRA     s:13728

      611    13725    5                    ELSE
      612    13726    5                       FPT_NODEINFO.V.NODENAME#=TOP.SUBLK$(0)->SYM.TEXT;

  13726 12 001605   040000 100540                    MLR     fill='040'O
PL6.E3A0      #001=DAA$ANLZ File=DAA$ANLZ.:E05TSI                                TUE 07/29/97 12:32 Page:107
        12 001606   100004 200013                    ADSC9   4,,PR1                   cn=1,n=*X3
        12 001607   001506 000010 1                  ADSC9   FPT_NODEINFO+4           cn=0,n=8

      613    13727    5                    END;

      614    13728    5                 CALL M$NODEINFO(FPT_NODEINFO) WHENALTRETURN DO;

  13728 12 001610   001502 630400 1                  EPPR0   FPT_NODEINFO
        12 001611   560031 713400                    CLIMB   alt,+57369
        12 001612   400400 401760                    pmme    nvectors=2
        12 001613   001615 702000 12                 TSX2    s:13729
        12 001614   001630 710000 12                 TRA     s:13732

      615    13729    5                    VLR_NODEINFO.NODENAME#=TOP.SUBLK$(0)->SYM.TEXT;

  13729 12 001615   200341 470500                    LDP0    @TOP,,AUTO
        12 001616   000003 471500                    LDP1    3,,PR0
        12 001617   100004 236100                    LDQ     4,,PR1
        12 001620   000033 772000                    QRL     27
        12 001621   000000 620006                    EAX0    0,QL
        12 001622   040000 100540                    MLR     fill='040'O
        12 001623   100004 200010                    ADSC9   4,,PR1                   cn=1,n=*X0
        12 001624   001512 000010 1                  ADSC9   VLR_NODEINFO             cn=0,n=8

      616    13730    5                    VLR_NODEINFO.NODENUM# = I;

  13730 12 001625   200003 236100                    LDQ     I,,AUTO
        12 001626   000033 736000                    QLS     27
        12 001627   001514 552040 1                  STBQ    VLR_NODEINFO+2,'40'O

      617    13731    5                    END;

      618    13732    5                 CALL SELECT_NODE(VLR_NODEINFO.NODENAME#) WHENRETURN DO;

  13732 12 001630   000023 236000 13                 LDQ     19
        12 001631   200347 756100                    STQ     N+1,,AUTO
        12 001632   004105 701000 12                 TSX1    SELECT_NODE
PL6.E3A0      #001=DAA$ANLZ File=DAA$ANLZ.:E05TSI                                TUE 07/29/97 12:32 Page:108
        12 001633   001641 702000 12                 TSX2    s:13735

      619    13733    5                   CALL DAF$WRITE(VECTOR(SELFMT),VECTOR(VLR_NODEINFO.NODENAME#),VECTOR
             13733                             (VLR_NODEINFO.NODENUM#));

  13733 12 001634   000054 630400 13                 EPPR0   44
        12 001635   000000 220000 xsym               LDX0    DAF$WRITE
        12 001636   000021 631400 xsym               EPPR1   B_VECTNIL+17
        12 001637   000000 701010                    TSX1    0,X0
        12 001640   000000 011000                    NOP     0

      620    13734    5                    END;

      621    13735    4                 END;

  13735 12 001641   002130 710000 12                 TRA     s:13805

      622    13736    3            CASE(%DA_HKP_STAR);

      623    13737    3              CALL STAR_INFO(TOP);

  13737 12 001642   200341 236100                    LDQ     @TOP,,AUTO
        12 001643   200343 756100                    STQ     I+1,,AUTO
        12 001644   004421 701000 12                 TSX1    STAR_INFO
        12 001645   000000 011000                    NOP     0
        12 001646   002130 710000 12                 TRA     s:13805

      624    13738    3            CASE(%DA_HKP_DELETE);

      625    13739    4              IF DA_DUMPFILE THEN DO;

  13739 12 001647   000000 234000 xsym               SZN     DA_DUMPFILE
        12 001650   001673 605000 12                 TPL     s:13746

      626    13740    5                 CALL M$CLOSE(DELETE_DUMP) WHENALTRETURN DO;

  13740 12 001651   001266 630400 1                  EPPR0   DELETE_DUMP
PL6.E3A0      #001=DAA$ANLZ File=DAA$ANLZ.:E05TSI                                TUE 07/29/97 12:32 Page:109
        12 001652   450001 713400                    CLIMB   alt,close
        12 001653   406000 401760                    pmme    nvectors=13
        12 001654   001656 702000 12                 TSX2    s:13741
        12 001655   001666 710000 12                 TRA     s:13743

      627    13741    5                    CALL DAA$ERRMSG(B$TCB$->B$TCB.ALT$->B$ALT.ERR);

  13741 12 001656   000000 470400 xsym               LDP0    B$TCB$
        12 001657   000000 471500                    LDP1    0,,PR0
        12 001660   100102 633500                    EPPR3   66,,PR1
        12 001661   200362 453500                    STP3    SYSTAC2_HEAD_FLG+6,,AUTO
        12 001662   200362 630500                    EPPR0   SYSTAC2_HEAD_FLG+6,,AUTO
        12 001663   000017 631400 xsym               EPPR1   B_VECTNIL+15
        12 001664   000000 701000 xent               TSX1    DAA$ERRMSG
        12 001665   000000 011000                    NOP     0

      628    13742    5                    END;

      629    13743    4                 CALL ANLZ_CMD(TOP);

  13743 12 001666   200341 236100                    LDQ     @TOP,,AUTO
        12 001667   200343 756100                    STQ     I+1,,AUTO
        12 001670   002132 701000 12                 TSX1    ANLZ_CMD
        12 001671   000000 011000                    NOP     0

      630    13744    4                 END;

  13744 12 001672   002130 710000 12                 TRA     s:13805

      631    13745    4              ELSE DO;

      632    13746    4                 CALL DAA$ERRMSG(%E$DA_DUMP_ONLY);

  13746 12 001673   000060 630400 13                 EPPR0   48
        12 001674   000017 631400 xsym               EPPR1   B_VECTNIL+15
        12 001675   000000 701000 xent               TSX1    DAA$ERRMSG
        12 001676   000000 011000                    NOP     0
PL6.E3A0      #001=DAA$ANLZ File=DAA$ANLZ.:E05TSI                                TUE 07/29/97 12:32 Page:110

      633    13747    4                 END;

  13747 12 001677   002130 710000 12                 TRA     s:13805

      634    13748    3            CASE(%DA_HKP_BLAME);

      635    13749    4              IF DA_DUMPFILE THEN DO;

  13749 12 001700   000000 234000 xsym               SZN     DA_DUMPFILE
        12 001701   002015 605000 12                 TPL     s:13782

      636    13750    5                 IF DA_DELTA_FLG THEN DO;

  13750 12 001702   000000 234000 xsym               SZN     DA_DELTA_FLG
        12 001703   001722 605000 12                 TPL     s:13757

      637    13751    5                    CBUF='KILL DELTA';

  13751 12 001704   040100 100400                    MLR     fill='040'O
        12 001705   000134 000012 2                  ADSC9   BLANKS+6                 cn=0,n=10
        12 001706   200232 000400                    ADSC9   CBUF,,AUTO               cn=0,n=256

      638    13752    5                    FPT_ALIB.V.RETRN#='1'B;

  13752 12 001707   400000 236003                    LDQ     -131072,DU
        12 001710   000444 256000 1                  ORSQ    FPT_ALIB+8

      639    13753    5                    FPT_ALIB.CMD_=VECTOR(CBUF);

  13753 12 001711   000020 235000 13                 LDA     16
        12 001712   200362 452500                    STP2    SYSTAC2_HEAD_FLG+6,,AUTO
        12 001713   200362 236100                    LDQ     SYSTAC2_HEAD_FLG+6,,AUTO
        12 001714   000232 036003                    ADLQ    154,DU
        12 001715   000436 757000 1                  STAQ    FPT_ALIB+2

      640    13754    5                    CALL M$ALIB(FPT_ALIB);
PL6.E3A0      #001=DAA$ANLZ File=DAA$ANLZ.:E05TSI                                TUE 07/29/97 12:32 Page:111

  13754 12 001716   000434 630400 1                  EPPR0   FPT_ALIB
        12 001717   000007 713400                    CLIMB   7
        12 001720   401400 401760                    pmme    nvectors=4

      641    13755    5                    DA_DELTA_FLG='0'B;

  13755 12 001721   000000 450000 xsym               STZ     DA_DELTA_FLG

      642    13756    5                    END;

      643    13757    5                 IF TOP.NSUBLKS=1 THEN DO;

  13757 12 001722   200341 470500                    LDP0    @TOP,,AUTO
        12 001723   000001 220100                    LDX0    1,,PR0
        12 001724   000001 100003                    CMPX0   1,DU
        12 001725   001736 601000 12                 TNZ     s:13761

      644    13758    5                    CHANGE_TYPE.V.TYPE#=TOP.SUBLK$(0)->SYM.TEXT;

  13758 12 001726   000003 471500                    LDP1    3,,PR0
        12 001727   100004 236100                    LDQ     4,,PR1
        12 001730   000033 772000                    QRL     27
        12 001731   000000 621006                    EAX1    0,QL
        12 001732   040000 100540                    MLR     fill='040'O
        12 001733   100004 200011                    ADSC9   4,,PR1                   cn=1,n=*X1
        12 001734   001357 400002 1                  ADSC9   CHANGE_TYPE+27           cn=2,n=2

      645    13759    5                    END;

  13759 12 001735   001754 710000 12                 TRA     s:13768

      646    13760    5                 ELSE DO;

      647    13761    6                    IF SUBSTR(B$JIT.ACCN,2)=B$JIT.HPSN THEN DO;

  13761 12 001736   000000 471400 xsym               LDP1    B$JIT$
PL6.E3A0      #001=DAA$ANLZ File=DAA$ANLZ.:E05TSI                                TUE 07/29/97 12:32 Page:112
        12 001737   040100 106500                    CMPC    fill='040'O
        12 001740   100001 400006                    ADSC9   1,,PR1                   cn=2,n=6
        12 001741   100234 000006                    ADSC9   156,,PR1                 cn=0,n=6
        12 001742   001746 601000 12                 TNZ     s:13765

      648    13762    6                       CHANGE_TYPE.V.TYPE#=SUBSTR(B$JIT.ACCN,0,2);

  13762 12 001743   100001 221100                    LDX1    1,,PR1
        12 001744   001357 441000 1                  SXL1    CHANGE_TYPE+27

      649    13763    6                       END;

  13763 12 001745   001754 710000 12                 TRA     s:13768

      650    13764    6                    ELSE DO;

      651    13765    6                       CALL CONCAT(CHANGE_TYPE.V.TYPE#,SUBSTR(B$JIT.ACCN,0,1),SUBSTR(
             13765                                B$JIT.ACCN,2,1));

  13765 12 001746   100001 236100                    LDQ     1,,PR1
        12 001747   000022 772000                    QRL     18
        12 001750   001357 552010 1                  STBQ    CHANGE_TYPE+27,'10'O
        12 001751   100001 236100                    LDQ     1,,PR1
        12 001752   000011 772000                    QRL     9
        12 001753   001357 552004 1                  STBQ    CHANGE_TYPE+27,'04'O

      652    13766    6                       END;

      653    13767    5                    END;

      654    13768    4                 CHANGE_TYPE.V.OPER.CHGATT#='0'B;

  13768 12 001754   000061 236000 13                 LDQ     49
        12 001755   001356 356000 1                  ANSQ    CHANGE_TYPE+26

      655    13769    4                 CALL M$CLOSE(CHANGE_TYPE) ALTRET(BLAME_ERR);

PL6.E3A0      #001=DAA$ANLZ File=DAA$ANLZ.:E05TSI                                TUE 07/29/97 12:32 Page:113
  13769 12 001756   001324 630400 1                  EPPR0   CHANGE_TYPE
        12 001757   450001 713400                    CLIMB   alt,close
        12 001760   406000 401760                    pmme    nvectors=13
        12 001761   002004 702000 12                 TSX2    BLAME_ERR

      656    13770    4                 REOPEN_DUMP.V.FUN#=%UPDATE#;

  13770 12 001762   001000 236007                    LDQ     512,DL
        12 001763   001427 552010 1                  STBQ    REOPEN_DUMP+37,'10'O

      657    13771    4                 CALL M$OPEN(REOPEN_DUMP) ALTRET(BLAME_ERR);

  13771 12 001764   001362 630400 1                  EPPR0   REOPEN_DUMP
        12 001765   450000 713400                    CLIMB   alt,open
        12 001766   410400 401760                    pmme    nvectors=18
        12 001767   002004 702000 12                 TSX2    BLAME_ERR

      658    13772    4                 CHANGE_TYPE.V.OPER.CHGATT#='1'B;

  13772 12 001770   400000 236007                    LDQ     -131072,DL
        12 001771   001356 256000 1                  ORSQ    CHANGE_TYPE+26

      659    13773    5                 CALL M$CLOSE(CHANGE_TYPE) WHENRETURN DO;

  13773 12 001772   001324 630400 1                  EPPR0   CHANGE_TYPE
        12 001773   450001 713400                    CLIMB   alt,close
        12 001774   406000 401760                    pmme    nvectors=13
        12 001775   002004 702000 12                 TSX2    BLAME_ERR

      660    13774    5                    REOPEN_DUMP.V.FUN#=%IN#;

  13774 12 001776   002000 236007                    LDQ     1024,DL
        12 001777   001427 552010 1                  STBQ    REOPEN_DUMP+37,'10'O

      661    13775    5                    CALL M$OPEN(REOPEN_DUMP);

  13775 12 002000   001362 630400 1                  EPPR0   REOPEN_DUMP
PL6.E3A0      #001=DAA$ANLZ File=DAA$ANLZ.:E05TSI                                TUE 07/29/97 12:32 Page:114
        12 002001   050000 713400                    CLIMB   open
        12 002002   410400 401760                    pmme    nvectors=18

      662    13776    5                    END;

  13776 12 002003   002014 710000 12                 TRA     s:13780

      663    13777    5                 WHENALTRETURN DO;

      664    13778    5   BLAME_ERR:       CALL DAA$ERRMSG(B$TCB$->B$TCB.ALT$->B$ALT.ERR);

  13778 12 002004   000000 470400 xsym  BLAME_ERR    LDP0    B$TCB$
        12 002005   000000 471500                    LDP1    0,,PR0
        12 002006   100102 633500                    EPPR3   66,,PR1
        12 002007   200362 453500                    STP3    SYSTAC2_HEAD_FLG+6,,AUTO
        12 002010   200362 630500                    EPPR0   SYSTAC2_HEAD_FLG+6,,AUTO
        12 002011   000017 631400 xsym               EPPR1   B_VECTNIL+15
        12 002012   000000 701000 xent               TSX1    DAA$ERRMSG
        12 002013   000000 011000                    NOP     0

      665    13779    5                    END;

      666    13780    4                 END;

  13780 12 002014   002130 710000 12                 TRA     s:13805

      667    13781    4              ELSE DO;

      668    13782    4                 CALL DAA$ERRMSG(%E$DA_DUMP_ONLY);

  13782 12 002015   000060 630400 13                 EPPR0   48
        12 002016   000017 631400 xsym               EPPR1   B_VECTNIL+15
        12 002017   000000 701000 xent               TSX1    DAA$ERRMSG
        12 002020   000000 011000                    NOP     0

      669    13783    4                 END;

PL6.E3A0      #001=DAA$ANLZ File=DAA$ANLZ.:E05TSI                                TUE 07/29/97 12:32 Page:115
  13783 12 002021   002130 710000 12                 TRA     s:13805

      670    13784    3            CASE(%DA_HKP_LIST);

      671    13785    3              CALL LIST_DUMPS(TOP);

  13785 12 002022   200341 236100                    LDQ     @TOP,,AUTO
        12 002023   200343 756100                    STQ     I+1,,AUTO
        12 002024   004615 701000 12                 TSX1    LIST_DUMPS
        12 002025   000000 011000                    NOP     0
        12 002026   002130 710000 12                 TRA     s:13805

      672    13786    3            CASE(%DA_HKP_FREE);

      673    13787    3              CBUF=FREETEXT(TOP.SUBLK$(0)->OUT.CODE);

  13787 12 002027   000003 471500                    LDP1    3,,PR0
        12 002030   100000 236100                    LDQ     0,,PR1
        12 002031   777777 376007                    ANQ     -1,DL
        12 002032   000006 402007                    MPY     6,DL
        12 002033   040100 100406                    MLR     fill='040'O
        12 002034   000026 000006 2                  ADSC9   FREETEXT,Q               cn=0,n=6
        12 002035   200232 000400                    ADSC9   CBUF,,AUTO               cn=0,n=256

      674    13788    4              IF TOP.SUBLK$(0)->OUT.NSUBLKS=1 THEN DO;

  13788 12 002036   000003 471500                    LDP1    3,,PR0
        12 002037   100001 220100                    LDX0    1,,PR1
        12 002040   000001 100003                    CMPX0   1,DU
        12 002041   002051 601000 12                 TNZ     s:13791

      675    13789    4                SUBSTR(CBUF,SIZEC(FREETEXT(0)))=TOP.SUBLK$(0)->OUT.SUBLK$(0)->SYM.TEXT
             13789                          ;

  13789 12 002042   100003 473500                    LDP3    3,,PR1
        12 002043   300004 236100                    LDQ     4,,PR3
        12 002044   000033 772000                    QRL     27
PL6.E3A0      #001=DAA$ANLZ File=DAA$ANLZ.:E05TSI                                TUE 07/29/97 12:32 Page:116
        12 002045   000000 622006                    EAX2    0,QL
        12 002046   040100 100540                    MLR     fill='040'O
        12 002047   300004 200012                    ADSC9   4,,PR3                   cn=1,n=*X2
        12 002050   200233 400372                    ADSC9   CBUF+1,,AUTO             cn=2,n=250

      676    13790    4                 END;

      677    13791    3              FPT_FREE.CMD_=VECTOR(CBUF);

  13791 12 002051   000020 235000 13                 LDA     16
        12 002052   200362 452500                    STP2    SYSTAC2_HEAD_FLG+6,,AUTO
        12 002053   200362 236100                    LDQ     SYSTAC2_HEAD_FLG+6,,AUTO
        12 002054   000232 036003                    ADLQ    154,DU
        12 002055   001464 757000 1                  STAQ    FPT_FREE

      678    13792    4              CALL M$YC(FPT_FREE) WHENALTRETURN DO;

  13792 12 002056   001464 630400 1                  EPPR0   FPT_FREE
        12 002057   400011 713400                    CLIMB   alt,+9
        12 002060   401000 401760                    pmme    nvectors=3
        12 002061   002063 702000 12                 TSX2    s:13793
        12 002062   002073 710000 12                 TRA     s:13794

      679    13793    4                 CALL DAA$ERRMSG(B$TCB$->B$TCB.ALT$->B$ALT.ERR);

  13793 12 002063   000000 470400 xsym               LDP0    B$TCB$
        12 002064   000000 471500                    LDP1    0,,PR0
        12 002065   100102 633500                    EPPR3   66,,PR1
        12 002066   200362 453500                    STP3    SYSTAC2_HEAD_FLG+6,,AUTO
        12 002067   200362 630500                    EPPR0   SYSTAC2_HEAD_FLG+6,,AUTO
        12 002070   000017 631400 xsym               EPPR1   B_VECTNIL+15
        12 002071   000000 701000 xent               TSX1    DAA$ERRMSG
        12 002072   000000 011000                    NOP     0

      680    13794    4                 END;

  13794 12 002073   002130 710000 12                 TRA     s:13805
PL6.E3A0      #001=DAA$ANLZ File=DAA$ANLZ.:E05TSI                                TUE 07/29/97 12:32 Page:117

      681    13795    3            CASE(%DA_HKP_DO);

      682    13796    4              IF TOP.SUBLK$(0)->SYM.COUNT>0 THEN DO;

  13796 12 002074   000003 471500                    LDP1    3,,PR0
        12 002075   100004 236100                    LDQ     4,,PR1
        12 002076   777000 316003                    CANQ    -512,DU
        12 002077   002130 600000 12                 TZE     s:13805

      683    13797    4                 FPT_FREE.CMD_=VECTOR(TOP.SUBLK$(0)->SYM.TEXT);

  13797 12 002100   100004 236100                    LDQ     4,,PR1
        12 002101   000033 772000                    QRL     27
        12 002102   000064 737000                    LLS     52
        12 002103   000140 135007                    SBLA    96,DL
        12 002104   200362 451500                    STP1    SYSTAC2_HEAD_FLG+6,,AUTO
        12 002105   200362 236100                    LDQ     SYSTAC2_HEAD_FLG+6,,AUTO
        12 002106   000021 036000 13                 ADLQ    17
        12 002107   001464 757000 1                  STAQ    FPT_FREE

      684    13798    5                 CALL M$YC(FPT_FREE) WHENALTRETURN DO;

  13798 12 002110   001464 630400 1                  EPPR0   FPT_FREE
        12 002111   400011 713400                    CLIMB   alt,+9
        12 002112   401000 401760                    pmme    nvectors=3
        12 002113   002115 702000 12                 TSX2    s:13799
        12 002114   002125 710000 12                 TRA     s:13801

      685    13799    5                    CALL DAA$ERRMSG(B$TCB$->B$TCB.ALT$->B$ALT.ERR);

  13799 12 002115   000000 470400 xsym               LDP0    B$TCB$
        12 002116   000000 471500                    LDP1    0,,PR0
        12 002117   100102 633500                    EPPR3   66,,PR1
        12 002120   200362 453500                    STP3    SYSTAC2_HEAD_FLG+6,,AUTO
        12 002121   200362 630500                    EPPR0   SYSTAC2_HEAD_FLG+6,,AUTO
        12 002122   000017 631400 xsym               EPPR1   B_VECTNIL+15
PL6.E3A0      #001=DAA$ANLZ File=DAA$ANLZ.:E05TSI                                TUE 07/29/97 12:32 Page:118
        12 002123   000000 701000 xent               TSX1    DAA$ERRMSG
        12 002124   000000 011000                    NOP     0

      686    13800    5                    END;

      687    13801    4                 CALL M$SPRIV(FPT_PRIV);

  13801 12 002125   000570 630400 1                  EPPR0   FPT_PRIV
        12 002126   020012 713400                    CLIMB   8202
        12 002127   400000 401760                    pmme    nvectors=1

      688    13802    4                 END;

      689    13803    3            END;

      690    13804        /**/
      691    13805    2   END HOUSEKEEPING;

  13805 12 002130   200340 221300                    LDX1  ! @TOP+1,,AUTO
        12 002131   000001 702211                    TSX2  ! 1,X1

      692    13806        /**/
      693    13807        %EJECT;
PL6.E3A0      #001=DAA$ANLZ File=DAA$ANLZ.:E05TSI                                TUE 07/29/97 12:32 Page:119
      694    13808        /**/
      695    13809    1   ANLZ_CMD: PROC(TOP);

  13809 12 002132   200342 741300       ANLZ_CMD     STX1  ! I,,AUTO

      696    13810        /**/
      697    13811        %PARSE$OUT (NAME=TOP,STCLASS="");
      698    13856    2   DCL SELNODE UBIN;
      699    13857        /**/
      700    13858    3           IF NOT ENDFLG THEN DO;

  13858 12 002133   200013 234100                    SZN     ENDFLG,,AUTO
        12 002134   002146 604000 12                 TMI     s:13862

      701    13859    3              CALL INSERT(HELLO,5,6,SUBSTR(B_VERSION.C,0,B_VERSION.L));

  13859 12 002135   000000 236000 xsym               LDQ     B_VERSION
        12 002136   000033 772000                    QRL     27
        12 002137   000000 620006                    EAX0    0,QL
        12 002140   040000 100440                    MLR     fill='040'O
        12 002141   000000 200010 xsym               ADSC9   B_VERSION                cn=1,n=*X0
        12 002142   000102 200006 1                  ADSC9   HELLO+1                  cn=1,n=6

      702    13860    3              CALL M$WRITE(FPT_HELLO);

  13860 12 002143   000104 630400 1                  EPPR0   FPT_HELLO
        12 002144   040001 713400                    CLIMB   write
        12 002145   401400 401760                    pmme    nvectors=4

      703    13861    3              END;

      704    13862    2           ENDFLG='1'B;

  13862 12 002146   400000 236003                    LDQ     -131072,DU
        12 002147   200013 756100                    STQ     ENDFLG,,AUTO

      705    13863    2           DA_DFLT_SYMBOLS='1'B;
PL6.E3A0      #001=DAA$ANLZ File=DAA$ANLZ.:E05TSI                                TUE 07/29/97 12:32 Page:120

  13863 12 002150   000001 756000 1                  STQ     DA_DFLT_SYMBOLS

      706    13864    2           DA_SYSTAC2='0'B;

  13864 12 002151   000000 450000 xsym               STZ     DA_SYSTAC2

      707    13865    3           IF TOP.NSUBLKS=0 THEN DO;

  13865 12 002152   200343 470500                    LDP0    @TOP,,AUTO
        12 002153   000001 220100                    LDX0    1,,PR0
        12 002154   002160 601000 12                 TNZ     s:13868

      708    13866    3              CALL USERUNNING;

  13866 12 002155   003427 701000 12                 TSX1    USERUNNING
        12 002156   000000 011000                    NOP     0

      709    13867    3              END;

  13867 12 002157   003001 710000 12                 TRA     s:13971

      710    13868    3           ELSE DO I=0 TO TOP.NSUBLKS-1;

  13868 12 002160   200003 450100                    STZ     I,,AUTO
        12 002161   002774 710000 12                 TRA     s:13970+1

      711    13869    3              SYM$=TOP.SUBLK$(I);

  13869 12 002162   200343 470500                    LDP0    @TOP,,AUTO
        12 002163   200003 720100                    LXL0    I,,AUTO
        12 002164   000003 236110                    LDQ     3,X0,PR0
        12 002165   200014 756100                    STQ     SYM$,,AUTO

      712    13870    4              DO CASE(SYM.CODE);

  13870 12 002166   200014 471500                    LDP1    SYM$,,AUTO
PL6.E3A0      #001=DAA$ANLZ File=DAA$ANLZ.:E05TSI                                TUE 07/29/97 12:32 Page:121
        12 002167   100000 721100                    LXL1    0,,PR1
        12 002170   000002 101003                    CMPX1   2,DU
        12 002171   002173 602011 12                 TNC     s:13870+5,X1
        12 002172   002773 710000 12                 TRA     s:13970
        12 002173   002175 710000 12                 TRA     s:13872
        12 002174   002752 710000 12                 TRA     s:13965

      713    13871    4               CASE(0);

      714    13872    4                 DA_DFLT_RADIX=8;

  13872 12 002175   000010 235007                    LDA     8,DL
        12 002176   000000 755000 xsym               STA     DA_DFLT_RADIX

      715    13873    4                 CALL DAS$SYMINIT(MONFID);

  13873 12 002177   000003 630400 13                 EPPR0   3
        12 002200   000017 631400 xsym               EPPR1   B_VECTNIL+15
        12 002201   000000 701000 xent               TSX1    DAS$SYMINIT
        12 002202   000000 011000                    NOP     0

      716    13874    4                 DA_MAPERR='0'B;

  13874 12 002203   000000 450000 xsym               STZ     DA_MAPERR

      717    13875    4                 IF SUBSTR(SYM.TEXT,0,3)='RUN' OR

  13875 12 002204   200014 470500                    LDP0    SYM$,,AUTO
        12 002205   000004 236100                    LDQ     4,,PR0
        12 002206   000033 772000                    QRL     27
        12 002207   040000 106500                    CMPC    fill='040'O
        12 002210   000004 200003                    ADSC9   4,,PR0                   cn=1,n=3
        12 002211   000137 000003 2                  ADSC9   BLANKS+9                 cn=0,n=3
        12 002212   002217 600000 12                 TZE     s:13877
        12 002213   040000 106500                    CMPC    fill='040'O
        12 002214   000004 200003                    ADSC9   4,,PR0                   cn=1,n=3
        12 002215   000140 000003 2                  ADSC9   BLANKS+10                cn=0,n=3
PL6.E3A0      #001=DAA$ANLZ File=DAA$ANLZ.:E05TSI                                TUE 07/29/97 12:32 Page:122
        12 002216   002222 601000 12                 TNZ     s:13880

      718    13876    5                   SUBSTR(SYM.TEXT,0,3)='run' THEN DO;

      719    13877    5                    CALL USERUNNING;

  13877 12 002217   003427 701000 12                 TSX1    USERUNNING
        12 002220   000000 011000                    NOP     0

      720    13878    5                    END;

  13878 12 002221   002773 710000 12                 TRA     s:13970

      721    13879    5                 ELSE DO;

      722    13880    5                    T$=ADDR(AFILE);

  13880 12 002222   000062 236000 13                 LDQ     50
        12 002223   200332 756100                    STQ     T$,,AUTO

      723    13881    6                    IF SYM.COUNT=3 THEN DO;

  13881 12 002224   000004 236100                    LDQ     4,,PR0
        12 002225   777000 376003                    ANQ     -512,DU
        12 002226   003000 116003                    CMPQ    1536,DU
        12 002227   002241 601000 12                 TNZ     s:13886

      724    13882    6                       AFILE.FID.ID=SYM.TEXT;

  13882 12 002230   000004 236100                    LDQ     4,,PR0
        12 002231   000033 772000                    QRL     27
        12 002232   000000 620006                    EAX0    0,QL
        12 002233   040000 100540                    MLR     fill='040'O
        12 002234   000004 200010                    ADSC9   4,,PR0                   cn=1,n=*X0
        12 002235   001476 000003 1                  ADSC9   AFILE+2                  cn=0,n=3

      725    13883    6                       DA_SYSTAC2 = '1'B;
PL6.E3A0      #001=DAA$ANLZ File=DAA$ANLZ.:E05TSI                                TUE 07/29/97 12:32 Page:123

  13883 12 002236   400000 236003                    LDQ     -131072,DU
        12 002237   000000 756000 xsym               STQ     DA_SYSTAC2

      726    13884    6                       END;

  13884 12 002240   002451 710000 12                 TRA     s:13912

      727    13885    6                    ELSE DO;

      728    13886    7                       DO SELECT(SYM.TEXT);

  13886 12 002241   000004 236100                    LDQ     4,,PR0
        12 002242   000033 772000                    QRL     27
        12 002243   000000 620006                    EAX0    0,QL
        12 002244   040000 106540                    CMPC    fill='040'O
        12 002245   000004 200010                    ADSC9   4,,PR0                   cn=1,n=*X0
        12 002246   000141 000004 2                  ADSC9   BLANKS+11                cn=0,n=4
        12 002247   002303 602000 12                 TNC     s:13886+34
        12 002250   000000 621006                    EAX1    0,QL
        12 002251   040000 106540                    CMPC    fill='040'O
        12 002252   000004 200011                    ADSC9   4,,PR0                   cn=1,n=*X1
        12 002253   000141 000004 2                  ADSC9   BLANKS+11                cn=0,n=4
        12 002254   002404 600000 12                 TZE     s:13893
        12 002255   000000 622006                    EAX2    0,QL
        12 002256   040000 106540                    CMPC    fill='040'O
        12 002257   000004 200012                    ADSC9   4,,PR0                   cn=1,n=*X2
        12 002260   000142 000004 2                  ADSC9   BLANKS+12                cn=0,n=4
        12 002261   002275 602000 12                 TNC     s:13886+28
        12 002262   000000 623006                    EAX3    0,QL
        12 002263   040000 106540                    CMPC    fill='040'O
        12 002264   000004 200013                    ADSC9   4,,PR0                   cn=1,n=*X3
        12 002265   000142 000004 2                  ADSC9   BLANKS+12                cn=0,n=4
        12 002266   002412 600000 12                 TZE     s:13896
        12 002267   000000 624006                    EAX4    0,QL
        12 002270   040000 106540                    CMPC    fill='040'O
        12 002271   000004 200014                    ADSC9   4,,PR0                   cn=1,n=*X4
PL6.E3A0      #001=DAA$ANLZ File=DAA$ANLZ.:E05TSI                                TUE 07/29/97 12:32 Page:124
        12 002272   000143 000004 2                  ADSC9   BLANKS+13                cn=0,n=4
        12 002273   002426 601000 12                 TNZ     s:13902
        12 002274   002404 710000 12                 TRA     s:13893
        12 002275   000000 623006                    EAX3    0,QL
        12 002276   040000 106540                    CMPC    fill='040'O
        12 002277   000004 200013                    ADSC9   4,,PR0                   cn=1,n=*X3
        12 002300   000144 000004 2                  ADSC9   BLANKS+14                cn=0,n=4
        12 002301   002426 601000 12                 TNZ     s:13902
        12 002302   002364 710000 12                 TRA     s:13888
        12 002303   000000 621006                    EAX1    0,QL
        12 002304   040000 106540                    CMPC    fill='040'O
        12 002305   000004 200011                    ADSC9   4,,PR0                   cn=1,n=*X1
        12 002306   000145 000004 2                  ADSC9   BLANKS+15                cn=0,n=4
        12 002307   002343 602000 12                 TNC     s:13886+66
        12 002310   000000 622006                    EAX2    0,QL
        12 002311   040000 106540                    CMPC    fill='040'O
        12 002312   000004 200012                    ADSC9   4,,PR0                   cn=1,n=*X2
        12 002313   000145 000004 2                  ADSC9   BLANKS+15                cn=0,n=4
        12 002314   002364 600000 12                 TZE     s:13888
        12 002315   000000 623006                    EAX3    0,QL
        12 002316   040000 106540                    CMPC    fill='040'O
        12 002317   000004 200013                    ADSC9   4,,PR0                   cn=1,n=*X3
        12 002320   000146 000004 2                  ADSC9   BLANKS+16                cn=0,n=4
        12 002321   002335 602000 12                 TNC     s:13886+60
        12 002322   000000 624006                    EAX4    0,QL
        12 002323   040000 106540                    CMPC    fill='040'O
        12 002324   000004 200014                    ADSC9   4,,PR0                   cn=1,n=*X4
        12 002325   000146 000004 2                  ADSC9   BLANKS+16                cn=0,n=4
        12 002326   002412 600000 12                 TZE     s:13896
        12 002327   000000 625006                    EAX5    0,QL
        12 002330   040000 106540                    CMPC    fill='040'O
        12 002331   000004 200015                    ADSC9   4,,PR0                   cn=1,n=*X5
        12 002332   000147 000004 2                  ADSC9   BLANKS+17                cn=0,n=4
        12 002333   002426 601000 12                 TNZ     s:13902
        12 002334   002404 710000 12                 TRA     s:13893
        12 002335   000000 624006                    EAX4    0,QL
        12 002336   040000 106540                    CMPC    fill='040'O
PL6.E3A0      #001=DAA$ANLZ File=DAA$ANLZ.:E05TSI                                TUE 07/29/97 12:32 Page:125
        12 002337   000004 200014                    ADSC9   4,,PR0                   cn=1,n=*X4
        12 002340   000150 000004 2                  ADSC9   BLANKS+18                cn=0,n=4
        12 002341   002426 601000 12                 TNZ     s:13902
        12 002342   002412 710000 12                 TRA     s:13896
        12 002343   000000 622006                    EAX2    0,QL
        12 002344   040000 106540                    CMPC    fill='040'O
        12 002345   000004 200012                    ADSC9   4,,PR0                   cn=1,n=*X2
        12 002346   000151 000004 2                  ADSC9   BLANKS+19                cn=0,n=4
        12 002347   002356 602000 12                 TNC     s:13886+77
        12 002350   000000 623006                    EAX3    0,QL
        12 002351   040000 106540                    CMPC    fill='040'O
        12 002352   000004 200013                    ADSC9   4,,PR0                   cn=1,n=*X3
        12 002353   000151 000004 2                  ADSC9   BLANKS+19                cn=0,n=4
        12 002354   002364 600000 12                 TZE     s:13888
        12 002355   002426 710000 12                 TRA     s:13902
        12 002356   000000 623006                    EAX3    0,QL
        12 002357   040000 106540                    CMPC    fill='040'O
        12 002360   000004 200013                    ADSC9   4,,PR0                   cn=1,n=*X3
        12 002361   000063 000001 13                 ADSC9   51                       cn=0,n=1
        12 002362   002426 601000 12                 TNZ     s:13902
        12 002363   002420 710000 12                 TRA     s:13899

      729    13887    7                          SELECT('LAST','Last','last');

      730    13888    8                          CALL M$MONINFO(FPT_MONINFO) WHENALTRETURN DO; END;

  13888 12 002364   000302 630400 1                  EPPR0   FPT_MONINFO
        12 002365   420023 713400                    CLIMB   alt,+8211
        12 002366   402400 401760                    pmme    nvectors=6
        12 002367   002371 702000 12                 TSX2    s:13889
        12 002370   002371 710000 12                 TRA     s:13889

      731    13889    7                          AFILE.FID.VERSION=VLR_SITEINFO.VERSION#;

  13889 12 002371   000402 236000 1                  LDQ     VLR_SITEINFO+52
        12 002372   001475 756000 1                  STQ     AFILE+1

PL6.E3A0      #001=DAA$ANLZ File=DAA$ANLZ.:E05TSI                                TUE 07/29/97 12:32 Page:126
      732    13890    7                          CALL BINCHAR(AFILE.FID.ID,VLR_MONINFO.SCOUNT#);

  13890 12 002373   000416 235000 1                  LDA     VLR_MONINFO+2
        12 002374   000044 773000                    LRL     36
        12 002375   200362 757100                    STAQ    SYSTAC2_HEAD_FLG+6,,AUTO
        12 002376   000000 301500                    BTD
        12 002377   200362 000010                    NDSC9   SYSTAC2_HEAD_FLG+6,,AUTO cn=0,s=lsgnf,sf=0,n=8
        12 002400   001476 030003 1                  NDSC9   AFILE+2                  cn=0,s=nosgn,sf=0,n=3

      733    13891    7                          DA_SYSTAC2 = '1'B;

  13891 12 002401   400000 236003                    LDQ     -131072,DU
        12 002402   000000 756000 xsym               STQ     DA_SYSTAC2
        12 002403   002451 710000 12                 TRA     s:13912

      734    13892    7                          SELECT('PREV','Prev','prev');

      735    13893    7                          SYM.COUNT=511;

  13893 12 002404   777000 236003                    LDQ     -512,DU
        12 002405   000004 552140                    STBQ    4,'40'O,PR0

      736    13894    7                          T$=ADDR(SYM.COUNT);

  13894 12 002406   200014 236100                    LDQ     SYM$,,AUTO
        12 002407   000004 036003                    ADLQ    4,DU
        12 002410   200332 756100                    STQ     T$,,AUTO
        12 002411   002451 710000 12                 TRA     s:13912

      737    13895    7                          SELECT('NEXT','Next','next');

      738    13896    7                          SYM.COUNT=0;

  13896 12 002412   000000 236003                    LDQ     0,DU
        12 002413   000004 552140                    STBQ    4,'40'O,PR0

      739    13897    7                          T$=ADDR(SYM.COUNT);
PL6.E3A0      #001=DAA$ANLZ File=DAA$ANLZ.:E05TSI                                TUE 07/29/97 12:32 Page:127

  13897 12 002414   200014 236100                    LDQ     SYM$,,AUTO
        12 002415   000004 036003                    ADLQ    4,DU
        12 002416   200332 756100                    STQ     T$,,AUTO
        12 002417   002451 710000 12                 TRA     s:13912

      740    13898    7                          SELECT('@');

      741    13899    7                          SYM.COUNT=510;

  13899 12 002420   776000 236003                    LDQ     -1024,DU
        12 002421   000004 552140                    STBQ    4,'40'O,PR0

      742    13900    7                          T$=ADDR(SYM.COUNT);

  13900 12 002422   200014 236100                    LDQ     SYM$,,AUTO
        12 002423   000004 036003                    ADLQ    4,DU
        12 002424   200332 756100                    STQ     T$,,AUTO
        12 002425   002451 710000 12                 TRA     s:13912

      743    13901    7                          SELECT(ELSE);

      744    13902    8                       IF SYM.COUNT=4 THEN DO;

  13902 12 002426   000033 736000                    QLS     27
        12 002427   004000 116003                    CMPQ    2048,DU
        12 002430   002446 601000 12                 TNZ     s:13908

      745    13903    8                          AFILE.FID.ID=SUBSTR(SYM.TEXT,1);

  13903 12 002431   777777 624010                    EAX4    -1,X0
        12 002432   040000 100540                    MLR     fill='040'O
        12 002433   000004 400014                    ADSC9   4,,PR0                   cn=2,n=*X4
        12 002434   001476 000003 1                  ADSC9   AFILE+2                  cn=0,n=3

      746    13904    8                          SUBSTR(AFILE.FID.VERSION,3,1)=SYM.TEXT;

PL6.E3A0      #001=DAA$ANLZ File=DAA$ANLZ.:E05TSI                                TUE 07/29/97 12:32 Page:128
  13904 12 002435   000004 236100                    LDQ     4,,PR0
        12 002436   000033 772000                    QRL     27
        12 002437   000000 620006                    EAX0    0,QL
        12 002440   040000 100540                    MLR     fill='040'O
        12 002441   000004 200010                    ADSC9   4,,PR0                   cn=1,n=*X0
        12 002442   001475 600001 1                  ADSC9   AFILE+1                  cn=3,n=1

      747    13905    8                          DA_SYSTAC2 = '1'B;

  13905 12 002443   400000 236003                    LDQ     -131072,DU
        12 002444   000000 756000 xsym               STQ     DA_SYSTAC2

      748    13906    8                          END;

  13906 12 002445   002451 710000 12                 TRA     s:13912

      749    13907    8                       ELSE DO;

      750    13908    8                          T$=ADDR(SYM.COUNT);

  13908 12 002446   200014 236100                    LDQ     SYM$,,AUTO
        12 002447   000004 036003                    ADLQ    4,DU
        12 002450   200332 756100                    STQ     T$,,AUTO

      751    13909    8                          END;

      752    13910    7                          END;

      753    13911    6                       END;

      754    13912    6                    CALL DAM$DUMPFILE(T$->TC) WHENRETURN DO;

  13912 12 002451   200332 630500                    EPPR0   T$,,AUTO
        12 002452   000017 631400 xsym               EPPR1   B_VECTNIL+15
        12 002453   000000 701000 xent               TSX1    DAM$DUMPFILE
        12 002454   002744 702000 12                 TSX2    s:13960

PL6.E3A0      #001=DAA$ANLZ File=DAA$ANLZ.:E05TSI                                TUE 07/29/97 12:32 Page:129
      755    13913    6                       DA_HDR.TITLEA=' ';

  13913 12 002455   040000 100400                    MLR     fill='040'O
        12 002456   000035 000001 xsym               ADSC9   B_VECTNIL+29             cn=0,n=1
        12 002457   000012 000171 1                  ADSC9   DA_HDR+1                 cn=0,n=121

      756    13914    6                       DA_HDR.TITLE.L=SIZEC(DA_HDR.TITLE)-1;

  13914 12 002460   170000 236003                    LDQ     61440,DU
        12 002461   000012 552040 1                  STBQ    DA_HDR+1,'40'O

      757    13915    6                       CALL INSERT(DA_HDR.TITLE.SYSTEM,,,'CP-6 ',RVBUFF.AMONID.VER);

  13915 12 002462   040000 100400                    MLR     fill='040'O
        12 002463   000152 000005 2                  ADSC9   BLANKS+20                cn=0,n=5
        12 002464   000045 600005 1                  ADSC9   DA_HDR+28                cn=3,n=5
        12 002465   000000 470400 xsym               LDP0    DA_RVBUF$
        12 002466   040000 100500                    MLR     fill='040'O
        12 002467   000270 000003                    ADSC9   184,,PR0                 cn=0,n=3
        12 002470   000047 000005 1                  ADSC9   DA_HDR+30                cn=0,n=5

      758    13916    7                       DO CASE(RVBUFF.RCODE.SEV);

  13916 12 002471   000000 470400 xsym               LDP0    DA_RVBUF$
        12 002472   000014 720100                    LXL0    12,,PR0
        12 002473   000007 360003                    ANX0    7,DU
        12 002474   000010 100003                    CMPX0   8,DU
        12 002475   002477 602010 12                 TNC     s:13916+6,X0
        12 002476   002532 710000 12                 TRA     s:13928
        12 002477   002532 710000 12                 TRA     s:13928
        12 002500   002532 710000 12                 TRA     s:13928
        12 002501   002532 710000 12                 TRA     s:13928
        12 002502   002507 710000 12                 TRA     s:13918
        12 002503   002513 710000 12                 TRA     s:13920
        12 002504   002517 710000 12                 TRA     s:13922
        12 002505   002523 710000 12                 TRA     s:13924
        12 002506   002527 710000 12                 TRA     s:13926
PL6.E3A0      #001=DAA$ANLZ File=DAA$ANLZ.:E05TSI                                TUE 07/29/97 12:32 Page:130

      759    13917    7                        CASE(3);

      760    13918    7                          DA_HDR.TITLE.CTYP='FE SNAP';

  13918 12 002507   040000 100400                    MLR     fill='040'O
        12 002510   000154 000007 2                  ADSC9   BLANKS+22                cn=0,n=7
        12 002511   000015 200007 1                  ADSC9   DA_HDR+4                 cn=1,n=7
        12 002512   002532 710000 12                 TRA     s:13928

      761    13919    7                        CASE(4);

      762    13920    7                          DA_HDR.TITLE.CTYP='ZAP';

  13920 12 002513   040000 100400                    MLR     fill='040'O
        12 002514   000156 000003 2                  ADSC9   BLANKS+24                cn=0,n=3
        12 002515   000015 200007 1                  ADSC9   DA_HDR+4                 cn=1,n=7
        12 002516   002532 710000 12                 TRA     s:13928

      763    13921    7                        CASE(5);

      764    13922    7                          DA_HDR.TITLE.CTYP='SNAP';

  13922 12 002517   040000 100400                    MLR     fill='040'O
        12 002520   000157 000004 2                  ADSC9   BLANKS+25                cn=0,n=4
        12 002521   000015 200007 1                  ADSC9   DA_HDR+4                 cn=1,n=7
        12 002522   002532 710000 12                 TRA     s:13928

      765    13923    7                        CASE(6);

      766    13924    7                          DA_HDR.TITLE.CTYP='SUA';

  13924 12 002523   040000 100400                    MLR     fill='040'O
        12 002524   000160 000003 2                  ADSC9   BLANKS+26                cn=0,n=3
        12 002525   000015 200007 1                  ADSC9   DA_HDR+4                 cn=1,n=7
        12 002526   002532 710000 12                 TRA     s:13928

PL6.E3A0      #001=DAA$ANLZ File=DAA$ANLZ.:E05TSI                                TUE 07/29/97 12:32 Page:131
      767    13925    7                        CASE(7);

      768    13926    7                          DA_HDR.TITLE.CTYP='SCREECH';

  13926 12 002527   040000 100400                    MLR     fill='040'O
        12 002530   000161 000007 2                  ADSC9   BLANKS+27                cn=0,n=7
        12 002531   000015 200007 1                  ADSC9   DA_HDR+4                 cn=1,n=7

      769    13927    7                        END;

      770    13928    6                       SCODE=RVBUFF.RCODE;

  13928 12 002532   000014 236100                    LDQ     12,,PR0
        12 002533   200012 756100                    STQ     SCODE,,AUTO

      771    13929    7                       DO J=0 TO 2;

  13929 12 002534   200004 450100                    STZ     J,,AUTO

      772    13930    7                          IF SCODE.FCG(J)=0 THEN

  13930 12 002535   200004 235100                    LDA     J,,AUTO
        12 002536   002540 605000 12                 TPL     s:13930+3
        12 002537   000006 035003                    ADLA    6,DU
        12 002540   000100 101505                    MRL     fill='000'O
        12 002541   200012 020001                    ADSC6   SCODE,A,AUTO             cn=0,n=1
        12 002542   200362 020006                    ADSC6   SYSTAC2_HEAD_FLG+6,,AUTO cn=0,n=6
        12 002543   200362 236100                    LDQ     SYSTAC2_HEAD_FLG+6,,AUTO
        12 002544   000000 116003                    CMPQ    0,DU
        12 002545   002553 601000 12                 TNZ     s:13932

      773    13931    7                             DA_HDR.TITLE.SCODE.FCG(J)=32;

  13931 12 002546   200004 235100                    LDA     J,,AUTO
        12 002547   000005 101400                    MRL     fill='000'O
        12 002550   000064 000004 13                 ADSC9   52                       cn=0,n=4
        12 002551   000017 200001 1                  ADSC9   DA_HDR+6,A               cn=1,n=1
PL6.E3A0      #001=DAA$ANLZ File=DAA$ANLZ.:E05TSI                                TUE 07/29/97 12:32 Page:132
        12 002552   002621 710000 12                 TRA     s:13936

      774    13932    7                          ELSE IF SCODE.FCG(J)>48 THEN

  13932 12 002553   200004 235100                    LDA     J,,AUTO
        12 002554   002556 605000 12                 TPL     s:13932+3
        12 002555   000006 035003                    ADLA    6,DU
        12 002556   000100 101505                    MRL     fill='000'O
        12 002557   200012 020001                    ADSC6   SCODE,A,AUTO             cn=0,n=1
        12 002560   200362 020006                    ADSC6   SYSTAC2_HEAD_FLG+6,,AUTO cn=0,n=6
        12 002561   200362 236100                    LDQ     SYSTAC2_HEAD_FLG+6,,AUTO
        12 002562   000061 116007                    CMPQ    49,DL
        12 002563   002604 604000 12                 TMI     s:13935

      775    13933    7                                DA_HDR.TITLE.SCODE.FCG(J)=SCODE.FCG(J);

  13933 12 002564   200004 236100                    LDQ     J,,AUTO
        12 002565   000006 402007                    MPY     6,DL
        12 002566   000000 116003                    CMPQ    0,DU
        12 002567   002571 605000 12                 TPL     s:13933+5
        12 002570   000044 036003                    ADLQ    36,DU
        12 002571   200362 756100                    STQ     SYSTAC2_HEAD_FLG+6,,AUTO
        12 002572   200004 236100                    LDQ     J,,AUTO
        12 002573   000011 402007                    MPY     9,DL
        12 002574   000000 116003                    CMPQ    0,DU
        12 002575   002577 605000 12                 TPL     s:13933+11
        12 002576   000044 036003                    ADLQ    36,DU
        12 002577   200362 235100                    LDA     SYSTAC2_HEAD_FLG+6,,AUTO
        12 002600   003006 061505                    CSR     bolr='003'O
        12 002601   200012 000006                    BDSC    SCODE,A,AUTO             by=0,bit=0,n=6
        12 002602   000017 200011 1                  BDSC    DA_HDR+6,Q               by=1,bit=0,n=9
        12 002603   002621 710000 12                 TRA     s:13936

      776    13934    7                             ELSE
      777    13935    7                                DA_HDR.TITLE.SCODE.FCG(J)=SCODE.FCG(J)+64;

  13935 12 002604   200004 235100                    LDA     J,,AUTO
PL6.E3A0      #001=DAA$ANLZ File=DAA$ANLZ.:E05TSI                                TUE 07/29/97 12:32 Page:133
        12 002605   002607 605000 12                 TPL     s:13935+3
        12 002606   000006 035003                    ADLA    6,DU
        12 002607   000100 101505                    MRL     fill='000'O
        12 002610   200012 020001                    ADSC6   SCODE,A,AUTO             cn=0,n=1
        12 002611   200363 020006                    ADSC6   SYSTAC2_HEAD_FLG+7,,AUTO cn=0,n=6
        12 002612   200363 236100                    LDQ     SYSTAC2_HEAD_FLG+7,,AUTO
        12 002613   000100 036007                    ADLQ    64,DL
        12 002614   200362 756100                    STQ     SYSTAC2_HEAD_FLG+6,,AUTO
        12 002615   200004 235100                    LDA     J,,AUTO
        12 002616   000005 101500                    MRL     fill='000'O
        12 002617   200362 000004                    ADSC9   SYSTAC2_HEAD_FLG+6,,AUTO cn=0,n=4
        12 002620   000017 200001 1                  ADSC9   DA_HDR+6,A               cn=1,n=1

      778    13936    7                          END;

  13936 12 002621   200004 054100                    AOS     J,,AUTO
        12 002622   200004 235100                    LDA     J,,AUTO
        12 002623   000002 115007                    CMPA    2,DL
        12 002624   002535 604400 12                 TMOZ    s:13930

      779    13937    6                       DA_HDR.TITLE.SCODE.D1='-';

  13937 12 002625   055000 236003                    LDQ     23040,DU
        12 002626   000020 552040 1                  STBQ    DA_HDR+7,'40'O

      780    13938    6                       IF SCODE.MON THEN

  13938 12 002627   200012 236100                    LDQ     SCODE,,AUTO
        12 002630   400000 316007                    CANQ    -131072,DL
        12 002631   002635 600000 12                 TZE     s:13941

      781    13939    6                          DA_HDR.TITLE.SCODE.M='M';

  13939 12 002632   000115 236003                    LDQ     77,DU
        12 002633   000020 552020 1                  STBQ    DA_HDR+7,'20'O
        12 002634   002637 710000 12                 TRA     s:13942

PL6.E3A0      #001=DAA$ANLZ File=DAA$ANLZ.:E05TSI                                TUE 07/29/97 12:32 Page:134
      782    13940    6                       ELSE
      783    13941    6                          DA_HDR.TITLE.SCODE.M='0';

  13941 12 002635   000060 236003                    LDQ     48,DU
        12 002636   000020 552020 1                  STBQ    DA_HDR+7,'20'O

      784    13942    6                       CALL BINCHAR(DA_HDR.TITLE.SCODE.CODE,SCODE.CODE);

  13942 12 002637   200012 236100                    LDQ     SCODE,,AUTO
        12 002640   000003 772000                    QRL     3
        12 002641   037777 376007                    ANQ     16383,DL
        12 002642   000000 235003                    LDA     0,DU
        12 002643   200362 757100                    STAQ    SYSTAC2_HEAD_FLG+6,,AUTO
        12 002644   000000 301500                    BTD
        12 002645   200362 000010                    NDSC9   SYSTAC2_HEAD_FLG+6,,AUTO cn=0,s=lsgnf,sf=0,n=8
        12 002646   000020 430005 1                  NDSC9   DA_HDR+7                 cn=2,s=nosgn,sf=0,n=5

      785    13943    6                       DA_HDR.TITLE.SCODE.D2='-';

  13943 12 002647   000055 236007                    LDQ     45,DL
        12 002650   000021 552004 1                  STBQ    DA_HDR+8,'04'O

      786    13944    6                       CALL BINCHAR(DA_HDR.TITLE.SCODE.SEV,SCODE.SEV);

  13944 12 002651   200012 236100                    LDQ     SCODE,,AUTO
        12 002652   000007 376007                    ANQ     7,DL
        12 002653   000000 235003                    LDA     0,DU
        12 002654   200362 757100                    STAQ    SYSTAC2_HEAD_FLG+6,,AUTO
        12 002655   000000 301500                    BTD
        12 002656   200362 000010                    NDSC9   SYSTAC2_HEAD_FLG+6,,AUTO cn=0,s=lsgnf,sf=0,n=8
        12 002657   000022 030001 1                  NDSC9   DA_HDR+9                 cn=0,s=nosgn,sf=0,n=1

      787    13945    6                       TSTMP=RVBUFF.UTS1;

  13945 12 002660   000000 470400 xsym               LDP0    DA_RVBUF$
        12 002661   000004 235100                    LDA     4,,PR0
        12 002662   000542 755000 1                  STA     TSTMP
PL6.E3A0      #001=DAA$ANLZ File=DAA$ANLZ.:E05TSI                                TUE 07/29/97 12:32 Page:135

      788    13946    6                       FPT_TIME.V.SOURCE#=%UTS#;

  13946 12 002663   004000 236003                    LDQ     2048,DU
        12 002664   000540 552040 1                  STBQ    FPT_TIME+10,'40'O

      789    13947    6                       CALL M$TIME(FPT_TIME);

  13947 12 002665   000526 630400 1                  EPPR0   FPT_TIME
        12 002666   020004 713400                    CLIMB   8196
        12 002667   402000 401760                    pmme    nvectors=5

      790    13948    6                       DA_HDR.TITLE.DFNAME=DCBADDR(DCBNUM(M$DUMPFILE))->F$DCB.NAME#.C;

  13948 12 002670   000000 236007 xsym               LDQ     M$DUMPFILE,DL
        12 002671   000022 470400 13                 LDP0    18
        12 002672   000000 471500                    LDP1    0,,PR0
        12 002673   100000 473506                    LDP3    0,QL,PR1
        12 002674   040000 100500                    MLR     fill='040'O
        12 002675   300010 200012                    ADSC9   8,,PR3                   cn=1,n=10
        12 002676   000012 200012 1                  ADSC9   DA_HDR+1                 cn=1,n=10

      791    13949    6                       IF SUBSTR(RVBUFF.AMONID.VER,0,1) <= 'D' THEN

  13949 12 002677   000000 473400 xsym               LDP3    DA_RVBUF$
        12 002700   300270 236100                    LDQ     184,,PR3
        12 002701   777000 376003                    ANQ     -512,DU
        12 002702   104000 116003                    CMPQ    34816,DU
        12 002703   002705 600000 12                 TZE     s:13950
        12 002704   002710 603000 12                 TRC     s:13952

      792    13950    6                          DA_MAXCHANS = %N_MAXCHANS/2;

  13950 12 002705   000100 235007                    LDA     64,DL
        12 002706   000000 755000 xsym               STA     DA_MAXCHANS
        12 002707   002712 710000 12                 TRA     s:13953

PL6.E3A0      #001=DAA$ANLZ File=DAA$ANLZ.:E05TSI                                TUE 07/29/97 12:32 Page:136
      793    13951    6                       ELSE
      794    13952    6                          DA_MAXCHANS = %N_MAXCHANS;

  13952 12 002710   000200 235007                    LDA     128,DL
        12 002711   000000 755000 xsym               STA     DA_MAXCHANS

      795    13953    7                       CALL DAS$SDMONPTR(%M#B_SITEINFO,T$) WHENRETURN DO;

  13953 12 002712   200332 634500                    EPPR4   T$,,AUTO
        12 002713   200363 454500                    STP4    SYSTAC2_HEAD_FLG+7,,AUTO
        12 002714   000066 236000 13                 LDQ     54
        12 002715   200362 756100                    STQ     SYSTAC2_HEAD_FLG+6,,AUTO
        12 002716   200362 630500                    EPPR0   SYSTAC2_HEAD_FLG+6,,AUTO
        12 002717   000020 631400 xsym               EPPR1   B_VECTNIL+16
        12 002720   000000 701000 xent               TSX1    DAS$SDMONPTR
        12 002721   002743 702000 12                 TSX2    s:13958

      796    13954    8                          CALL DAM$MAP(T$,T$,,,DA_MONISDATA) WHENRETURN DO;

  13954 12 002722   000067 236000 13                 LDQ     55
        12 002723   200366 756100                    STQ     SYSTAC2_HEAD_FLG+10,,AUTO
        12 002724   000001 236000 xsym               LDQ     B_VECTNIL+1
        12 002725   000001 235000 xsym               LDA     B_VECTNIL+1
        12 002726   200364 757100                    STAQ    SYSTAC2_HEAD_FLG+8,,AUTO
        12 002727   200332 630500                    EPPR0   T$,,AUTO
        12 002730   200363 450500                    STP0    SYSTAC2_HEAD_FLG+7,,AUTO
        12 002731   200332 631500                    EPPR1   T$,,AUTO
        12 002732   200362 451500                    STP1    SYSTAC2_HEAD_FLG+6,,AUTO
        12 002733   200362 630500                    EPPR0   SYSTAC2_HEAD_FLG+6,,AUTO
        12 002734   000023 631400 xsym               EPPR1   B_VECTNIL+19
        12 002735   000000 701000 xent               TSX1    DAM$MAP
        12 002736   002743 702000 12                 TSX2    s:13958

      797    13955    8                             VLR_SITEINFO=T$->VLR$SITEINFO;

  13955 12 002737   200332 470500                    LDP0    T$,,AUTO
        12 002740   000000 100500                    MLR     fill='000'O
PL6.E3A0      #001=DAA$ANLZ File=DAA$ANLZ.:E05TSI                                TUE 07/29/97 12:32 Page:137
        12 002741   000000 000370                    ADSC9   0,,PR0                   cn=0,n=248
        12 002742   000316 000370 1                  ADSC9   VLR_SITEINFO             cn=0,n=248

      798    13956    8                             END;

      799    13957    7                          END;

      800    13958    6                       END;

  13958 12 002743   002751 710000 12                 TRA     s:13963

      801    13959    6                    WHENALTRETURN DO;      /* FROM DAM$DUMPFILE */

      802    13960    6                       CALL DAA$ERRMSG;

  13960 12 002744   000002 631400 xsym               EPPR1   B_VECTNIL+2
        12 002745   000000 701000 xent               TSX1    DAA$ERRMSG
        12 002746   000000 011000                    NOP     0

      803    13961    6                       CALL USERUNNING;

  13961 12 002747   003427 701000 12                 TSX1    USERUNNING
        12 002750   000000 011000                    NOP     0

      804    13962    6                       END;

      805    13963    5                    END;

  13963 12 002751   002773 710000 12                 TRA     s:13970

      806    13964    4               CASE(1);

      807    13965    4                 DA_DFLT_SYMBOLS='0'B;

  13965 12 002752   000001 450000 1                  STZ     DA_DFLT_SYMBOLS

      808    13966    4                 CALL DAS$SYMINIT(SYM.COUNT);
PL6.E3A0      #001=DAA$ANLZ File=DAA$ANLZ.:E05TSI                                TUE 07/29/97 12:32 Page:138

  13966 12 002753   000004 036003                    ADLQ    4,DU
        12 002754   200362 756100                    STQ     SYSTAC2_HEAD_FLG+6,,AUTO
        12 002755   200362 630500                    EPPR0   SYSTAC2_HEAD_FLG+6,,AUTO
        12 002756   000017 631400 xsym               EPPR1   B_VECTNIL+15
        12 002757   000000 701000 xent               TSX1    DAS$SYMINIT
        12 002760   000000 011000                    NOP     0

      809    13967    4                 MONISDATABYTES=DA_HEADREC.VDPGS*4096;

  13967 12 002761   000002 236000 xsym               LDQ     DA_HEADREC+2
        12 002762   000012 772000                    QRL     10
        12 002763   000004 376000 13                 ANQ     4
        12 002764   200122 756100                    STQ     MONISDATABYTES,,AUTO

      810    13968    4                 DA_MONISDATA=VECTOR(MONISDATA);

  13968 12 002765   200122 235100                    LDA     MONISDATABYTES,,AUTO
        12 002766   000020 735000                    ALS     16
        12 002767   000140 135007                    SBLA    96,DL
        12 002770   000000 236000 xsym               LDQ     B$IS$
        12 002771   000000 755000 xsym               STA     DA_MONISDATA
        12 002772   000001 756000 xsym               STQ     DA_MONISDATA+1

      811    13969    4               END;

      812    13970    3              END;

  13970 12 002773   200003 054100                    AOS     I,,AUTO
        12 002774   200343 470500                    LDP0    @TOP,,AUTO
        12 002775   000001 236100                    LDQ     1,,PR0
        12 002776   000022 772000                    QRL     18
        12 002777   200003 116100                    CMPQ    I,,AUTO
        12 003000   002162 605400 12                 TPNZ    s:13869

      813    13971    3           IF DA_DUMPFILE THEN DO;

PL6.E3A0      #001=DAA$ANLZ File=DAA$ANLZ.:E05TSI                                TUE 07/29/97 12:32 Page:139
  13971 12 003001   000000 234000 xsym               SZN     DA_DUMPFILE
        12 003002   003216 605000 12                 TPL     s:14002

      814    13972    3              CALL DAF$WRITE(VECTOR(ACMDFMT),
      815    13973    3                VECTOR(DA_HDR.TITLE.DFNAME),
      816    13974    3                VECTOR(DCBADDR(DCBNUM(M$DUMPFILE))->F$DCB.ACCT#),
      817    13975    3                VECTOR(RVBUFF.RCODE),
      818    13976    3                VECTOR(RVBUFF.UTS1),
      819    13977    3                VECTOR(VLR_SITEINFO.SITE_NAME#));

  13977 12 003003   000000 236007 xsym               LDQ     M$DUMPFILE,DL
        12 003004   000022 470400 13                 LDP0    18
        12 003005   000000 471500                    LDP1    0,,PR0
        12 003006   100000 473506                    LDP3    0,QL,PR1
        12 003007   000050 235000 13                 LDA     40
        12 003010   200362 453500                    STP3    SYSTAC2_HEAD_FLG+6,,AUTO
        12 003011   200362 236100                    LDQ     SYSTAC2_HEAD_FLG+6,,AUTO
        12 003012   000020 036003                    ADLQ    16,DU
        12 003013   200364 757100                    STAQ    SYSTAC2_HEAD_FLG+8,,AUTO
        12 003014   000050 235000 13                 LDA     40
        12 003015   000000 236000 xsym               LDQ     DA_RVBUF$
        12 003016   000014 036003                    ADLQ    12,DU
        12 003017   200366 757100                    STAQ    SYSTAC2_HEAD_FLG+10,,AUTO
        12 003020   777640 235007                    LDA     -96,DL
        12 003021   000000 236000 xsym               LDQ     DA_RVBUF$
        12 003022   000004 036003                    ADLQ    4,DU
        12 003023   200372 757100                    STAQ    SYSTAC2_HEAD_FLG+14,,AUTO
        12 003024   200364 237100                    LDAQ    SYSTAC2_HEAD_FLG+8,,AUTO
        12 003025   200370 757100                    STAQ    SYSTAC2_HEAD_FLG+12,,AUTO
        12 003026   200366 237100                    LDAQ    SYSTAC2_HEAD_FLG+10,,AUTO
        12 003027   200374 757100                    STAQ    SYSTAC2_HEAD_FLG+16,,AUTO
        12 003030   200372 237100                    LDAQ    SYSTAC2_HEAD_FLG+14,,AUTO
        12 003031   200376 757100                    STAQ    SYSTAC2_HEAD_FLG+18,,AUTO
        12 003032   000076 236000 13                 LDQ     62
        12 003033   200405 756100                    STQ     SYSTAC2_HEAD_FLG+25,,AUTO
        12 003034   200376 634500                    EPPR4   SYSTAC2_HEAD_FLG+18,,AUTO
        12 003035   200404 454500                    STP4    SYSTAC2_HEAD_FLG+24,,AUTO
PL6.E3A0      #001=DAA$ANLZ File=DAA$ANLZ.:E05TSI                                TUE 07/29/97 12:32 Page:140
        12 003036   200374 635500                    EPPR5   SYSTAC2_HEAD_FLG+16,,AUTO
        12 003037   200403 455500                    STP5    SYSTAC2_HEAD_FLG+23,,AUTO
        12 003040   200370 636500                    EPPR6   SYSTAC2_HEAD_FLG+12,,AUTO
        12 003041   200402 456500                    STP6    SYSTAC2_HEAD_FLG+22,,AUTO
        12 003042   000100 237000 13                 LDAQ    64
        12 003043   200400 757100                    STAQ    SYSTAC2_HEAD_FLG+20,,AUTO
        12 003044   200400 630500                    EPPR0   SYSTAC2_HEAD_FLG+20,,AUTO
        12 003045   000000 220000 xsym               LDX0    DAF$WRITE
        12 003046   000024 631400 xsym               EPPR1   B_VECTNIL+20
        12 003047   000000 701010                    TSX1    0,X0
        12 003050   000000 011000                    NOP     0

      820    13978    4              IF DCBADDR(DCBNUM(M$DUMPFILE))->F$DCB.TYPE# ~= '  ' THEN DO;

  13978 12 003051   000000 236007 xsym               LDQ     M$DUMPFILE,DL
        12 003052   000022 470400 13                 LDP0    18
        12 003053   000000 471500                    LDP1    0,,PR0
        12 003054   100000 473506                    LDP3    0,QL,PR1
        12 003055   300025 720100                    LXL0    21,,PR3
        12 003056   000153 100000 2                  CMPX0   BLANKS+21
        12 003057   003100 600000 12                 TZE     s:13982

      821    13979    4                 CALL DAF$WRITE(VECTOR(BLAMEFMT),

  13979 12 003060   000000 236007 xsym               LDQ     M$DUMPFILE,DL
        12 003061   100000 473506                    LDP3    0,QL,PR1
        12 003062   377640 235007                    LDA     130976,DL
        12 003063   200362 453500                    STP3    SYSTAC2_HEAD_FLG+6,,AUTO
        12 003064   200362 236100                    LDQ     SYSTAC2_HEAD_FLG+6,,AUTO
        12 003065   000104 036000 13                 ADLQ    68
        12 003066   200364 757100                    STAQ    SYSTAC2_HEAD_FLG+8,,AUTO
        12 003067   200364 634500                    EPPR4   SYSTAC2_HEAD_FLG+8,,AUTO
        12 003070   200367 454500                    STP4    SYSTAC2_HEAD_FLG+11,,AUTO
        12 003071   000105 236000 13                 LDQ     69
        12 003072   200366 756100                    STQ     SYSTAC2_HEAD_FLG+10,,AUTO
        12 003073   200366 630500                    EPPR0   SYSTAC2_HEAD_FLG+10,,AUTO
        12 003074   000000 220000 xsym               LDX0    DAF$WRITE
PL6.E3A0      #001=DAA$ANLZ File=DAA$ANLZ.:E05TSI                                TUE 07/29/97 12:32 Page:141
        12 003075   000020 631400 xsym               EPPR1   B_VECTNIL+16
        12 003076   000000 701010                    TSX1    0,X0
        12 003077   000000 011000                    NOP     0

      822    13980    4                   VECTOR(DCBADDR(DCBNUM(M$DUMPFILE))->F$DCB.TYPE#));
      823    13981    4                 END;

      824    13982    3              SELNODE=0;

  13982 12 003100   200344 450100                    STZ     SELNODE,,AUTO

      825    13983    4              DO I=1 TO NODEDIR.N;

  13983 12 003101   000001 235007                    LDA     1,DL
        12 003102   200003 755100                    STA     I,,AUTO
        12 003103   003171 710000 12                 TRA     s:13998+1

      826    13984    5                 DO CASE(NODEDIR.NODE.TYPE(I));

  13984 12 003104   200003 236100                    LDQ     I,,AUTO
        12 003105   000003 402007                    MPY     3,DL
        12 003106   000000 470400 xsym               LDP0    DA_NODEDIR$
        12 003107   000003 236106                    LDQ     3,QL,PR0
        12 003110   000033 772000                    QRL     27
        12 003111   000003 116007                    CMPQ    3,DL
        12 003112   003114 602006 12                 TNC     s:13984+8,QL
        12 003113   003170 710000 12                 TRA     s:13998
        12 003114   003170 710000 12                 TRA     s:13998
        12 003115   003117 710000 12                 TRA     s:13986
        12 003116   003135 710000 12                 TRA     s:13990

      827    13985    5                  CASE(%R_HOSTNODE#);

      828    13986    6                    IF NODEDIR.NODE.NODENAME(I)='HOST' THEN DO;

  13986 12 003117   200003 236100                    LDQ     I,,AUTO
        12 003120   000014 402007                    MPY     12,DL
PL6.E3A0      #001=DAA$ANLZ File=DAA$ANLZ.:E05TSI                                TUE 07/29/97 12:32 Page:142
        12 003121   040000 106506                    CMPC    fill='040'O
        12 003122   000001 000010                    ADSC9   1,Q,PR0                  cn=0,n=8
        12 003123   000133 000004 2                  ADSC9   BLANKS+5                 cn=0,n=4
        12 003124   003170 601000 12                 TNZ     s:13998

      829    13987    6                       NODEDIR.NODE.NODENAME(I)=VLR_MONINFO.NODE_NAME;

  13987 12 003125   200003 236100                    LDQ     I,,AUTO
        12 003126   000003 402007                    MPY     3,DL
        12 003127   000000 620006                    EAX0    0,QL
        12 003130   000000 621006                    EAX1    0,QL
        12 003131   000426 237000 1                  LDAQ    VLR_MONINFO+10
        12 003132   000001 755110                    STA     1,X0,PR0
        12 003133   000002 756111                    STQ     2,X1,PR0

      830    13988    6                       END;

  13988 12 003134   003170 710000 12                 TRA     s:13998

      831    13989    5                  CASE(%R_FEPNODE#);

      832    13990    5                    IF SELNODE=0 THEN SELNODE=I;

  13990 12 003135   200344 235100                    LDA     SELNODE,,AUTO
        12 003136   003141 601000 12                 TNZ     s:13991

  13990 12 003137   200003 236100                    LDQ     I,,AUTO
        12 003140   200344 756100                    STQ     SELNODE,,AUTO

      833    13991    5                    CALL CHARBIN(J,NODEDIR.NODE.NODENAME(I));

  13991 12 003141   200003 236100                    LDQ     I,,AUTO
        12 003142   000014 402007                    MPY     12,DL
        12 003143   000100 305506                    DTB
        12 003144   000001 030010                    NDSC9   1,Q,PR0                  cn=0,s=nosgn,sf=0,n=8
        12 003145   200004 000004                    NDSC9   J,,AUTO                  cn=0,s=lsgnf,sf=0,n=4

PL6.E3A0      #001=DAA$ANLZ File=DAA$ANLZ.:E05TSI                                TUE 07/29/97 12:32 Page:143
      834    13992    5                    FPT_NODEINFO.V.NODENAME#=' ';

  13992 12 003146   000035 235000 xsym               LDA     B_VECTNIL+29
        12 003147   000035 236000 xsym               LDQ     B_VECTNIL+29
        12 003150   001506 757000 1                  STAQ    FPT_NODEINFO+4

      835    13993    5                    FPT_NODEINFO.V.NODENUM#=J;

  13993 12 003151   200004 236100                    LDQ     J,,AUTO
        12 003152   000033 736000                    QLS     27
        12 003153   001510 552040 1                  STBQ    FPT_NODEINFO+6,'40'O

      836    13994    6                    CALL M$NODEINFO(FPT_NODEINFO) WHENRETURN DO;

  13994 12 003154   001502 630400 1                  EPPR0   FPT_NODEINFO
        12 003155   560031 713400                    CLIMB   alt,+57369
        12 003156   400400 401760                    pmme    nvectors=2
        12 003157   003170 702000 12                 TSX2    s:13998

      837    13995    6                       NODEDIR.NODE.NODENAME(I)=VLR_NODEINFO.NODENAME#;

  13995 12 003160   200003 236100                    LDQ     I,,AUTO
        12 003161   000003 402007                    MPY     3,DL
        12 003162   000000 470400 xsym               LDP0    DA_NODEDIR$
        12 003163   000000 620006                    EAX0    0,QL
        12 003164   000000 621006                    EAX1    0,QL
        12 003165   001512 237000 1                  LDAQ    VLR_NODEINFO
        12 003166   000001 755110                    STA     1,X0,PR0
        12 003167   000002 756111                    STQ     2,X1,PR0

      838    13996    6                       END;

      839    13997    5                  END;

      840    13998    4                 END;

  13998 12 003170   200003 054100                    AOS     I,,AUTO
PL6.E3A0      #001=DAA$ANLZ File=DAA$ANLZ.:E05TSI                                TUE 07/29/97 12:32 Page:144
        12 003171   000000 470400 xsym               LDP0    DA_NODEDIR$
        12 003172   000000 236100                    LDQ     0,,PR0
        12 003173   003104 604000 12                 TMI     s:13984
        12 003174   200003 116100                    CMPQ    I,,AUTO
        12 003175   003104 605000 12                 TPL     s:13984

      841    13999    3              IF SELNODE=0 THEN SELNODE=1;

  13999 12 003176   200344 235100                    LDA     SELNODE,,AUTO
        12 003177   003202 601000 12                 TNZ     s:14000

  13999 12 003200   000001 235007                    LDA     1,DL
        12 003201   200344 755100                    STA     SELNODE,,AUTO

      842    14000    3              CALL DAF$WRITE(VECTOR(NODEFMT),VECTOR(NODEDIR));

  14000 12 003202   000110 235000 13                 LDA     72
        12 003203   000000 236000 xsym               LDQ     DA_NODEDIR$
        12 003204   200362 757100                    STAQ    SYSTAC2_HEAD_FLG+6,,AUTO
        12 003205   200362 631500                    EPPR1   SYSTAC2_HEAD_FLG+6,,AUTO
        12 003206   200365 451500                    STP1    SYSTAC2_HEAD_FLG+9,,AUTO
        12 003207   000111 236000 13                 LDQ     73
        12 003210   200364 756100                    STQ     SYSTAC2_HEAD_FLG+8,,AUTO
        12 003211   200364 630500                    EPPR0   SYSTAC2_HEAD_FLG+8,,AUTO
        12 003212   000000 220000 xsym               LDX0    DAF$WRITE
        12 003213   000020 631400 xsym               EPPR1   B_VECTNIL+16
        12 003214   000000 701010                    TSX1    0,X0
        12 003215   000000 011000                    NOP     0

      843    14001    3              END;

      844    14002    2           ANLZTXT='ANLZ';

  14002 12 003216   040100 100400                    MLR     fill='040'O
        12 003217   000163 000004 2                  ADSC9   BLANKS+29                cn=0,n=4
        12 003220   200020 000400                    ADSC9   ANLZTXT,,AUTO            cn=0,n=256

PL6.E3A0      #001=DAA$ANLZ File=DAA$ANLZ.:E05TSI                                TUE 07/29/97 12:32 Page:145
      845    14003    3           IF DA_DUMPFILE THEN DO;

  14003 12 003221   000000 234000 xsym               SZN     DA_DUMPFILE
        12 003222   003241 605000 12                 TPL     s:14009

      846    14004    3              FPT_UNFID.TEXTFID_=VECTOR(SUBSTR(ANLZTXT,6,40));

  14004 12 003223   000112 235000 13                 LDA     74
        12 003224   200362 452500                    STP2    SYSTAC2_HEAD_FLG+6,,AUTO
        12 003225   200362 236100                    LDQ     SYSTAC2_HEAD_FLG+6,,AUTO
        12 003226   000113 036000 13                 ADLQ    75
        12 003227   001242 757000 1                  STAQ    FPT_UNFID+2

      847    14005    3              FPT_UNFID.V.DCB#=DCBNUM(M$DUMPFILE);

  14005 12 003230   000000 236007 xsym               LDQ     M$DUMPFILE,DL
        12 003231   000000 620006                    EAX0    0,QL
        12 003232   001264 740000 1                  STX0    FPT_UNFID+20

      848    14006    4              CALL M$UNFID(FPT_UNFID) WHENALTRETURN DO; END;

  14006 12 003233   001240 630400 1                  EPPR0   FPT_UNFID
        12 003234   420021 713400                    CLIMB   alt,+8209
        12 003235   404400 401760                    pmme    nvectors=10
        12 003236   003240 702000 12                 TSX2    s:14007
        12 003237   003240 710000 12                 TRA     s:14007

      849    14007    3              END;

  14007 12 003240   003244 710000 12                 TRA     s:14011

      850    14008    3           ELSE DO;

      851    14009    3              SUBSTR(ANLZTXT,6,40)='RUNNING';

  14009 12 003241   040100 100400                    MLR     fill='040'O
        12 003242   000164 000007 2                  ADSC9   BLANKS+30                cn=0,n=7
PL6.E3A0      #001=DAA$ANLZ File=DAA$ANLZ.:E05TSI                                TUE 07/29/97 12:32 Page:146
        12 003243   200021 400050                    ADSC9   ANLZTXT+1,,AUTO          cn=2,n=40

      852    14010    3              END;

      853    14011    2           SUBSTR(ANLZTXT,46,1)=',';

  14011 12 003244   054000 236007                    LDQ     22528,DL
        12 003245   200033 552110                    STBQ    ANLZTXT+11,'10'O,AUTO

      854    14012    2           FPT_UNFID.TEXTFID_=VECTOR(SUBSTR(ANLZTXT,47,40));

  14012 12 003246   000112 235000 13                 LDA     74
        12 003247   200362 452500                    STP2    SYSTAC2_HEAD_FLG+6,,AUTO
        12 003250   200362 236100                    LDQ     SYSTAC2_HEAD_FLG+6,,AUTO
        12 003251   000114 036000 13                 ADLQ    76
        12 003252   001242 757000 1                  STAQ    FPT_UNFID+2

      855    14013    2           FPT_UNFID.V.DCB#=DCBNUM(F$SYMBOL);

  14013 12 003253   000000 236007 xsym               LDQ     F$SYMBOL,DL
        12 003254   000000 620006                    EAX0    0,QL
        12 003255   001264 740000 1                  STX0    FPT_UNFID+20

      856    14014    3           CALL M$UNFID(FPT_UNFID) WHENALTRETURN DO; END;

  14014 12 003256   001240 630400 1                  EPPR0   FPT_UNFID
        12 003257   420021 713400                    CLIMB   alt,+8209
        12 003260   404400 401760                    pmme    nvectors=10
        12 003261   003263 702000 12                 TSX2    s:14015
        12 003262   003263 710000 12                 TRA     s:14015

      857    14015    3           IF DA_DELTA_FLG THEN DO;

  14015 12 003263   000000 234000 xsym               SZN     DA_DELTA_FLG
        12 003264   003277 605000 12                 TPL     s:14020

      858    14016    3              FPT_ALIB.CMD_=VECTOR(ANLZTXT);
PL6.E3A0      #001=DAA$ANLZ File=DAA$ANLZ.:E05TSI                                TUE 07/29/97 12:32 Page:147

  14016 12 003265   000020 235000 13                 LDA     16
        12 003266   200362 452500                    STP2    SYSTAC2_HEAD_FLG+6,,AUTO
        12 003267   200362 236100                    LDQ     SYSTAC2_HEAD_FLG+6,,AUTO
        12 003270   000020 036003                    ADLQ    16,DU
        12 003271   000436 757000 1                  STAQ    FPT_ALIB+2

      859    14017    3              FPT_ALIB.V.RETRN#='1'B;

  14017 12 003272   400000 236003                    LDQ     -131072,DU
        12 003273   000444 256000 1                  ORSQ    FPT_ALIB+8

      860    14018    3              CALL M$ALIB(FPT_ALIB);

  14018 12 003274   000434 630400 1                  EPPR0   FPT_ALIB
        12 003275   000007 713400                    CLIMB   7
        12 003276   401400 401760                    pmme    nvectors=4

      861    14019    3              END;

      862    14020    2           IF DA_DUMPFILE THEN CHAR8=NODEDIR.NODE.NODENAME(SELNODE);

  14020 12 003277   000000 234000 xsym               SZN     DA_DUMPFILE
        12 003300   003310 605000 12                 TPL     s:14021

  14020 12 003301   200344 236100                    LDQ     SELNODE,,AUTO
        12 003302   000014 402007                    MPY     12,DL
        12 003303   000000 470400 xsym               LDP0    DA_NODEDIR$
        12 003304   040100 100506                    MLR     fill='040'O
        12 003305   000001 000010                    ADSC9   1,Q,PR0                  cn=0,n=8
        12 003306   200120 000010                    ADSC9   CHAR8,,AUTO              cn=0,n=8
        12 003307   003313 710000 12                 TRA     s:14022

      863    14021    2           ELSE CHAR8='HOST';

  14021 12 003310   000133 235000 2                  LDA     BLANKS+5
        12 003311   000035 236000 xsym               LDQ     B_VECTNIL+29
PL6.E3A0      #001=DAA$ANLZ File=DAA$ANLZ.:E05TSI                                TUE 07/29/97 12:32 Page:148
        12 003312   200120 757100                    STAQ    CHAR8,,AUTO

      864    14022    2           CALL SELECT_NODE(CHAR8);

  14022 12 003313   200120 630500                    EPPR0   CHAR8,,AUTO
        12 003314   200347 450500                    STP0    N+1,,AUTO
        12 003315   004105 701000 12                 TSX1    SELECT_NODE
        12 003316   000000 011000                    NOP     0

      865    14023    2           CALL DAF$WRITE(VECTOR(SELFMT),VECTOR(VLR_NODEINFO.NODENAME#),VECTOR(
             14023                    VLR_NODEINFO.NODENUM#));

  14023 12 003317   000054 630400 13                 EPPR0   44
        12 003320   000000 220000 xsym               LDX0    DAF$WRITE
        12 003321   000021 631400 xsym               EPPR1   B_VECTNIL+17
        12 003322   000000 701010                    TSX1    0,X0
        12 003323   000000 011000                    NOP     0

      866    14024    2           RETURN;

  14024 12 003324   200342 221300                    LDX1  ! I,,AUTO
        12 003325   000001 702211                    TSX2  ! 1,X1

      867    14025        /**/
      868    14026    2   END ANLZ_CMD;
      869    14027        %EJECT;
PL6.E3A0      #001=DAA$ANLZ File=DAA$ANLZ.:E05TSI                                TUE 07/29/97 12:32 Page:149
      870    14028    1   PRINT_TRAP: PROC;

  14028 12 003326   200334 741300       PRINT_TRAP   STX1  ! CMDTBL$+1,,AUTO

      871    14029    3           IF DA_INITIALIZED THEN DO;

  14029 12 003327   000000 234000 xsym               SZN     DA_INITIALIZED
        12 003330   003403 605000 12                 TPL     s:14040

      872    14030    3              CALL DAF$INIT(ANLZTRAP);

  14030 12 003331   000115 630400 13                 EPPR0   77
        12 003332   000017 631400 xsym               EPPR1   B_VECTNIL+15
        12 003333   000000 701000 xent               TSX1    DAF$INIT
        12 003334   000000 011000                    NOP     0

      873    14031    3              CALL DAF$WRITE(VECTOR(TRAPHDR));

  14031 12 003335   000120 630400 13                 EPPR0   80
        12 003336   000000 220000 xsym               LDX0    DAF$WRITE
        12 003337   000017 631400 xsym               EPPR1   B_VECTNIL+15
        12 003340   000000 701010                    TSX1    0,X0
        12 003341   000000 011000                    NOP     0

      874    14032    3              TRAPFRAME=B$TCB$->B$TCB.STK$->B$EXCFR;

  14032 12 003342   000000 470400 xsym               LDP0    B$TCB$
        12 003343   000001 471500                    LDP1    1,,PR0
        12 003344   000100 100500                    MLR     fill='000'O
        12 003345   100000 000420                    ADSC9   0,,PR1                   cn=0,n=272
        12 003346   200123 000420                    ADSC9   TRAPFRAME,,AUTO          cn=0,n=272

      875    14033    4              IF NOT DCBADDR(DAF_DCB#)->F$DCB.DDEV.UCOUT# THEN DO;

  14033 12 003347   000022 471400 13                 LDP1    18
        12 003350   100000 473500                    LDP3    0,,PR1
        12 003351   000000 720000 xsym               LXL0    DAF_DCB#
PL6.E3A0      #001=DAA$ANLZ File=DAA$ANLZ.:E05TSI                                TUE 07/29/97 12:32 Page:150
        12 003352   300000 474510                    LDP4    0,X0,PR3
        12 003353   400004 236100                    LDQ     4,,PR4
        12 003354   020000 316007                    CANQ    8192,DL
        12 003355   003372 601000 12                 TNZ     s:14037

      876    14034    4                 CALL DAF$WRITE(VECTOR(TRAPHDR1));

  14034 12 003356   000124 630400 13                 EPPR0   84
        12 003357   000000 221000 xsym               LDX1    DAF$WRITE
        12 003360   000017 631400 xsym               EPPR1   B_VECTNIL+15
        12 003361   000000 701011                    TSX1    0,X1
        12 003362   000000 011000                    NOP     0

      877    14035    4                 CALL DAB$SSFRAME(B$TCB$->B$TCB.STK$->B$EXCFR);

  14035 12 003363   000000 470400 xsym               LDP0    B$TCB$
        12 003364   000001 471500                    LDP1    1,,PR0
        12 003365   200362 451500                    STP1    SYSTAC2_HEAD_FLG+6,,AUTO
        12 003366   200362 630500                    EPPR0   SYSTAC2_HEAD_FLG+6,,AUTO
        12 003367   000017 631400 xsym               EPPR1   B_VECTNIL+15
        12 003370   000000 701000 xent               TSX1    DAB$SSFRAME
        12 003371   000000 011000                    NOP     0

      878    14036    4                 END;

      879    14037    3              CALL DAA$ERRMSG(B$TCB$->B$TCB.STK$->B$EXCFR.ERR);

  14037 12 003372   000000 470400 xsym               LDP0    B$TCB$
        12 003373   000001 471500                    LDP1    1,,PR0
        12 003374   100102 633500                    EPPR3   66,,PR1
        12 003375   200362 453500                    STP3    SYSTAC2_HEAD_FLG+6,,AUTO
        12 003376   200362 630500                    EPPR0   SYSTAC2_HEAD_FLG+6,,AUTO
        12 003377   000017 631400 xsym               EPPR1   B_VECTNIL+15
        12 003400   000000 701000 xent               TSX1    DAA$ERRMSG
        12 003401   000000 011000                    NOP     0

      880    14038    3              END;
PL6.E3A0      #001=DAA$ANLZ File=DAA$ANLZ.:E05TSI                                TUE 07/29/97 12:32 Page:151

  14038 12 003402   003407 710000 12                 TRA     s:14046

      881    14039    3           ELSE DO;

      882    14040    3              CALL DAA$ERRMSG(%E$DA_NOT_INIT);

  14040 12 003403   000126 630400 13                 EPPR0   86
        12 003404   000017 631400 xsym               EPPR1   B_VECTNIL+15
        12 003405   000000 701000 xent               TSX1    DAA$ERRMSG
        12 003406   000000 011000                    NOP     0

      883    14041        /*E*   ERROR:   DAA-E$DA_NOT_INIT
      884    14042               MESSAGE: ANLZ trapped because it was not initialized.
      885    14043               MESSAGE1: You probably don't have the privilege to run ANLZ.
      886    14044                                                                          */
      887    14045    3              END;

      888    14046    2           DA_TRAPPED='0'B;

  14046 12 003407   000000 450000 xsym               STZ     DA_TRAPPED

      889    14047    2           CALL M$CLRSTK;

  14047 12 003410   010013 713400                    CLIMB   4107
        12 003411   000000 401760                    pmme    nvectors=0

      890    14048    3           IF TRAPABRT THEN DO;

  14048 12 003412   200227 234100                    SZN     TRAPABRT,,AUTO
        12 003413   003423 605000 12                 TPL     s:14052

      891    14049    3              CALL DAF$WRITE(VECTOR(TRAPMSG));

  14049 12 003414   000132 630400 13                 EPPR0   90
        12 003415   000000 220000 xsym               LDX0    DAF$WRITE
        12 003416   000017 631400 xsym               EPPR1   B_VECTNIL+15
PL6.E3A0      #001=DAA$ANLZ File=DAA$ANLZ.:E05TSI                                TUE 07/29/97 12:32 Page:152
        12 003417   000000 701010                    TSX1    0,X0
        12 003420   000000 011000                    NOP     0

      892    14050    3              CALL M$XXX;

  14050 12 003421   000003 713400                    CLIMB   3
        12 003422   000000 401760                    pmme    nvectors=0

      893    14051    3              END;

      894    14052    2           TRAPABRT='1'B;

  14052 12 003423   400000 236003                    LDQ     -131072,DU
        12 003424   200227 756100                    STQ     TRAPABRT,,AUTO

      895    14053    2           RETURN;

  14053 12 003425   200334 221300                    LDX1  ! CMDTBL$+1,,AUTO
        12 003426   000001 702211                    TSX2  ! 1,X1

      896    14054    2   END PRINT_TRAP;
      897    14055        %EJECT;
PL6.E3A0      #001=DAA$ANLZ File=DAA$ANLZ.:E05TSI                                TUE 07/29/97 12:32 Page:153
      898    14056    1   USERUNNING: PROC;

  14056 12 003427   200346 741300       USERUNNING   STX1  ! DCB$+1,,AUTO

      899    14057    2           IF DA_INITIALIZED OR DA_DUMPFILE THEN

  14057 12 003430   000000 234000 xsym               SZN     DA_INITIALIZED
        12 003431   003434 604000 12                 TMI     s:14058
        12 003432   000000 234000 xsym               SZN     DA_DUMPFILE
        12 003433   003440 605000 12                 TPL     s:14060

      900    14058    2              CALL DAM$RUNNING;

  14058 12 003434   000002 631400 xsym               EPPR1   B_VECTNIL+2
        12 003435   000000 701000 xent               TSX1    DAM$RUNNING
        12 003436   000000 011000                    NOP     0
        12 003437   003443 710000 12                 TRA     s:14061

      901    14059    2           ELSE
      902    14060    2              CALL DAM$INIT;

  14060 12 003440   000002 631400 xsym               EPPR1   B_VECTNIL+2
        12 003441   000000 701000 xent               TSX1    DAM$INIT
        12 003442   000000 011000                    NOP     0

      903    14061    2           DA_HDR.TITLEA=' ';

  14061 12 003443   040000 100400                    MLR     fill='040'O
        12 003444   000035 000001 xsym               ADSC9   B_VECTNIL+29             cn=0,n=1
        12 003445   000012 000171 1                  ADSC9   DA_HDR+1                 cn=0,n=121

      904    14062    2           DA_HDR.TITLE.L=SIZEC(DA_HDR.TITLE)-1;

  14062 12 003446   170000 236003                    LDQ     61440,DU
        12 003447   000012 552040 1                  STBQ    DA_HDR+1,'40'O

      905    14063    2           CALL CONCAT(DA_HDR.TITLE.SYSTEM,'CP-6 ',VLR_SITEINFO.VERSION#);
PL6.E3A0      #001=DAA$ANLZ File=DAA$ANLZ.:E05TSI                                TUE 07/29/97 12:32 Page:154

  14063 12 003450   040000 100400                    MLR     fill='040'O
        12 003451   000152 000005 2                  ADSC9   BLANKS+20                cn=0,n=5
        12 003452   000045 600005 1                  ADSC9   DA_HDR+28                cn=3,n=5
        12 003453   040000 100400                    MLR     fill='040'O
        12 003454   000402 000004 1                  ADSC9   VLR_SITEINFO+52          cn=0,n=4
        12 003455   000047 000005 1                  ADSC9   DA_HDR+30                cn=0,n=5

      906    14064    2           DA_HDR.TITLE.CTYP='RUNNING';

  14064 12 003456   040000 100400                    MLR     fill='040'O
        12 003457   000164 000007 2                  ADSC9   BLANKS+30                cn=0,n=7
        12 003460   000015 200007 1                  ADSC9   DA_HDR+4                 cn=1,n=7

      907    14065    2           DA_HDR.TITLE.SCODEA='SYSTEM';

  14065 12 003461   040000 100400                    MLR     fill='040'O
        12 003462   000166 000006 2                  ADSC9   BLANKS+32                cn=0,n=6
        12 003463   000017 200014 1                  ADSC9   DA_HDR+6                 cn=1,n=12

      908    14066    2           FPT_TIME.V.SOURCE#=%CLOCK#;

  14066 12 003464   000000 236003                    LDQ     0,DU
        12 003465   000540 552040 1                  STBQ    FPT_TIME+10,'40'O

      909    14067    2           CALL M$TIME(FPT_TIME);

  14067 12 003466   000526 630400 1                  EPPR0   FPT_TIME
        12 003467   020004 713400                    CLIMB   8196
        12 003470   402000 401760                    pmme    nvectors=5

      910    14068    3           CALL M$MONINFO(FPT_MONINFO) WHENALTRETURN DO; END;

  14068 12 003471   000302 630400 1                  EPPR0   FPT_MONINFO
        12 003472   420023 713400                    CLIMB   alt,+8211
        12 003473   402400 401760                    pmme    nvectors=6
        12 003474   003476 702000 12                 TSX2    s:14069
PL6.E3A0      #001=DAA$ANLZ File=DAA$ANLZ.:E05TSI                                TUE 07/29/97 12:32 Page:155
        12 003475   003476 710000 12                 TRA     s:14069

      911    14069    2           DA_MAXCHANS = %N_MAXCHANS;

  14069 12 003476   000200 235007                    LDA     128,DL
        12 003477   000000 755000 xsym               STA     DA_MAXCHANS

      912    14070    2           RETURN;

  14070 12 003500   200346 221300                    LDX1  ! DCB$+1,,AUTO
        12 003501   000001 702211                    TSX2  ! 1,X1

      913    14071    2   END USERUNNING;
      914    14072        %EJECT;
PL6.E3A0      #001=DAA$ANLZ File=DAA$ANLZ.:E05TSI                                TUE 07/29/97 12:32 Page:156
      915    14073    1   USER_REPORT: PROC ALTRET;

  14073 12 003502   200344 741300       USER_REPORT  STX1  ! SELNODE,,AUTO

      916    14074        /**/
      917    14075    2   DCL URFMT CHAR(0) CONSTANT INIT('DISPLAYS FOR USER .%O');
      918    14076    2   DCL UIDFMT CHAR(0) CONSTANT INIT('SYSID = %D %>A,%>A');
      919    14077    2   DCL SYSID SBIN;
      920    14078    2   DCL RPT BIT(1);
      921    14079    2   DCL 1 URTBUF,
      922    14080    2         2 L UBIN BYTE UNAL,
      923    14081    2         2 C CHAR(43);
      924    14082        %F_FDS (NAME=FDS,STCLASS=STATIC);
      925    14195        %REPORT (NAME=URRPT,STCLASS=STATIC);
      926    14261        /**/
      927    14262    2           RPT='1'B;

  14262 12 003503   400000 236003                    LDQ     -131072,DU
        12 003504   200346 756100                    STQ     RPT,,AUTO

      928    14263    2           GOTO CONT;

  14263 12 003505   003510 710000 12                 TRA     CONT

      929    14264    2   USER_ID: ENTRY ALTRET;

  14264 12 003506   200344 741300       USER_ID      STX1  ! SELNODE,,AUTO

      930    14265    2           RPT='0'B;

  14265 12 003507   200346 450100                    STZ     RPT,,AUTO

  14265 12 003510                       CONT         null
      931    14266    2   CONT:   ;
      932    14267    2           IF NOT DA_DUMPFILE THEN CALL DAM$FREEM;

  14267 12 003510   000000 234000 xsym               SZN     DA_DUMPFILE
PL6.E3A0      #001=DAA$ANLZ File=DAA$ANLZ.:E05TSI                                TUE 07/29/97 12:32 Page:157
        12 003511   003515 604000 12                 TMI     s:14268

  14267 12 003512   000002 631400 xsym               EPPR1   B_VECTNIL+2
        12 003513   000000 701000 xent               TSX1    DAM$FREEM
        12 003514   000000 011000                    NOP     0

      933    14268    2           CALL DAM$MAP(B$JIT$,JIT$,-DA_CUN,0) ALTRET(ALT);

  14268 12 003515   000000 335000 xsym               LCA     DA_CUN
        12 003516   200362 755100                    STA     SYSTAC2_HEAD_FLG+6,,AUTO
        12 003517   000133 236000 13                 LDQ     91
        12 003520   200367 756100                    STQ     SYSTAC2_HEAD_FLG+11,,AUTO
        12 003521   200362 630500                    EPPR0   SYSTAC2_HEAD_FLG+6,,AUTO
        12 003522   200366 450500                    STP0    SYSTAC2_HEAD_FLG+10,,AUTO
        12 003523   200006 631500                    EPPR1   JIT$,,AUTO
        12 003524   200365 451500                    STP1    SYSTAC2_HEAD_FLG+9,,AUTO
        12 003525   000134 236000 13                 LDQ     92
        12 003526   200364 756100                    STQ     SYSTAC2_HEAD_FLG+8,,AUTO
        12 003527   200364 630500                    EPPR0   SYSTAC2_HEAD_FLG+8,,AUTO
        12 003530   000022 631400 xsym               EPPR1   B_VECTNIL+18
        12 003531   000000 701000 xent               TSX1    DAM$MAP
        12 003532   003631 702000 12                 TSX2    ALT

      934    14269    2           SYSID=JIT$->B$JIT.SYSID;

  14269 12 003533   200006 470500                    LDP0    JIT$,,AUTO
        12 003534   000000 236100                    LDQ     0,,PR0
        12 003535   777777 376007                    ANQ     -1,DL
        12 003536   200345 756100                    STQ     SYSID,,AUTO

      935    14270    3           IF RPT THEN DO;

  14270 12 003537   200346 234100                    SZN     RPT,,AUTO
        12 003540   003567 605000 12                 TPL     s:14278

      936    14271    3              FDS.BUF_=VECTOR(URTBUF);

PL6.E3A0      #001=DAA$ANLZ File=DAA$ANLZ.:E05TSI                                TUE 07/29/97 12:32 Page:158
  14271 12 003541   000135 235000 13                 LDA     93
        12 003542   200362 452500                    STP2    SYSTAC2_HEAD_FLG+6,,AUTO
        12 003543   200362 236100                    LDQ     SYSTAC2_HEAD_FLG+6,,AUTO
        12 003544   000347 036003                    ADLQ    231,DU
        12 003545   001525 755000 1                  STA     FDS+5
        12 003546   001526 756000 1                  STQ     FDS+6

      937    14272    3              CALL X$WRITE(FDS,VECTOR(URFMT),VECTOR(DA_CUN));

  14272 12 003547   000142 630400 13                 EPPR0   98
        12 003550   000021 631400 xsym               EPPR1   B_VECTNIL+17
        12 003551   000000 701000 xent               TSX1    X$WRITE
        12 003552   000000 011000                    NOP     0

      938    14273    3              URTBUF.L=FDS.BUFX-1;

  14273 12 003553   001527 236000 1                  LDQ     FDS+7
        12 003554   000001 136007                    SBLQ    1,DL
        12 003555   000033 736000                    QLS     27
        12 003556   200347 552140                    STBQ    URTBUF,'40'O,AUTO

      939    14274    3              URRPT.TITLE$=ADDR(URTBUF);

  14274 12 003557   200347 630500                    EPPR0   URTBUF,,AUTO
        12 003560   001563 450400 1                  STP0    URRPT+5

      940    14275    3              URRPT.HEAD$=ADDR(NIL);

  14275 12 003561   000001 236000 xsym               LDQ     B_VECTNIL+1
        12 003562   001564 756000 1                  STQ     URRPT+6

      941    14276    3              CALL DAF$INIT(URRPT);

  14276 12 003563   000145 630400 13                 EPPR0   101
        12 003564   000017 631400 xsym               EPPR1   B_VECTNIL+15
        12 003565   000000 701000 xent               TSX1    DAF$INIT
        12 003566   000000 011000                    NOP     0
PL6.E3A0      #001=DAA$ANLZ File=DAA$ANLZ.:E05TSI                                TUE 07/29/97 12:32 Page:159

      942    14277    3              END;

      943    14278    2           CALL DAF$WRITE(VECTOR(UIDFMT),VECTOR(SYSID),

  14278 12 003567   777640 235007                    LDA     -96,DL
        12 003570   200362 452500                    STP2    SYSTAC2_HEAD_FLG+6,,AUTO
        12 003571   200362 236100                    LDQ     SYSTAC2_HEAD_FLG+6,,AUTO
        12 003572   000345 036003                    ADLQ    229,DU
        12 003573   200364 757100                    STAQ    SYSTAC2_HEAD_FLG+8,,AUTO
        12 003574   000050 235000 13                 LDA     40
        12 003575   200006 236100                    LDQ     JIT$,,AUTO
        12 003576   000001 036003                    ADLQ    1,DU
        12 003577   200366 757100                    STAQ    SYSTAC2_HEAD_FLG+10,,AUTO
        12 003600   000150 235000 13                 LDA     104
        12 003601   200006 236100                    LDQ     JIT$,,AUTO
        12 003602   000003 036003                    ADLQ    3,DU
        12 003603   200372 757100                    STAQ    SYSTAC2_HEAD_FLG+14,,AUTO
        12 003604   200364 237100                    LDAQ    SYSTAC2_HEAD_FLG+8,,AUTO
        12 003605   200370 757100                    STAQ    SYSTAC2_HEAD_FLG+12,,AUTO
        12 003606   200366 237100                    LDAQ    SYSTAC2_HEAD_FLG+10,,AUTO
        12 003607   200374 757100                    STAQ    SYSTAC2_HEAD_FLG+16,,AUTO
        12 003610   200372 237100                    LDAQ    SYSTAC2_HEAD_FLG+14,,AUTO
        12 003611   200376 757100                    STAQ    SYSTAC2_HEAD_FLG+18,,AUTO
        12 003612   200376 630500                    EPPR0   SYSTAC2_HEAD_FLG+18,,AUTO
        12 003613   200403 450500                    STP0    SYSTAC2_HEAD_FLG+23,,AUTO
        12 003614   200374 631500                    EPPR1   SYSTAC2_HEAD_FLG+16,,AUTO
        12 003615   200402 451500                    STP1    SYSTAC2_HEAD_FLG+22,,AUTO
        12 003616   200370 633500                    EPPR3   SYSTAC2_HEAD_FLG+12,,AUTO
        12 003617   200401 453500                    STP3    SYSTAC2_HEAD_FLG+21,,AUTO
        12 003620   000151 236000 13                 LDQ     105
        12 003621   200400 756100                    STQ     SYSTAC2_HEAD_FLG+20,,AUTO
        12 003622   200400 630500                    EPPR0   SYSTAC2_HEAD_FLG+20,,AUTO
        12 003623   000000 220000 xsym               LDX0    DAF$WRITE
        12 003624   000022 631400 xsym               EPPR1   B_VECTNIL+18
        12 003625   000000 701010                    TSX1    0,X0
        12 003626   000000 011000                    NOP     0
PL6.E3A0      #001=DAA$ANLZ File=DAA$ANLZ.:E05TSI                                TUE 07/29/97 12:32 Page:160

      944    14279    2             VECTOR(JIT$->B$JIT.ACCN),
      945    14280    2             VECTOR(JIT$->B$JIT.UNAME));
      946    14281    2           RETURN;

  14281 12 003627   200344 221300                    LDX1  ! SELNODE,,AUTO
        12 003630   000001 702211                    TSX2  ! 1,X1

      947    14282    2   ALT:    ALTRETURN;

  14282 12 003631   200344 221300       ALT          LDX1  ! SELNODE,,AUTO
        12 003632   000000 702211                    TSX2  ! 0,X1

      948    14283    2   END USER_REPORT;
      949    14284        %EJECT;
PL6.E3A0      #001=DAA$ANLZ File=DAA$ANLZ.:E05TSI                                TUE 07/29/97 12:32 Page:161
      950    14285    1   SETLSR: PROC(TOP,LSR,LSNAME);

  14285 12 003633   200342 741300       SETLSR       STX1  ! I,,AUTO

      951    14286        %PARSE$OUT (NAME=TOP,STCLASS="");
      952    14331    2   DCL 1 LSR,
      953    14332    2         2 BOUND UBIN(20) UNAL,
      954    14333    2         2 FLAGS BIT(9) UNAL,
      955    14334    2         2 WSR UBIN(3) UNAL,
      956    14335    2         2 TYPE UBIN(4) UNAL,
      957    14336    2         2 BASE UBIN;
      958    14337    2   DCL LSNAME CHAR(3);
      959    14338    2   DCL P$ PTR;
      960    14339    2   DCL 1 P REDEF P$,
      961    14340    2         2 OFFSET UBIN(20) UNAL,
      962    14341    2         2 * UBIN(16) UNAL;
      963    14342    2   DCL BIT72 BIT(72) BASED ALIGNED;
      964    14343    2   DCL LSRFMT CHAR(0) CONSTANT INIT('%A: %.1F');
      965    14344        /**/
      966    14345    3           IF TOP.NSUBLKS>0 THEN DO;

  14345 12 003634   200343 470500                    LDP0    @TOP,,AUTO
        12 003635   000001 220100                    LDX0    1,,PR0
        12 003636   003732 600000 12                 TZE     s:14357

      967    14346    3              CALL DAA$LOC(TOP.SUBLK$(0)->OUT.SUBLK$(0)->OUT,P$) ALTRET(BADLS);

  14346 12 003637   000003 471500                    LDP1    3,,PR0
        12 003640   100003 473500                    LDP3    3,,PR1
        12 003641   200346 634500                    EPPR4   P$,,AUTO
        12 003642   200363 454500                    STP4    SYSTAC2_HEAD_FLG+7,,AUTO
        12 003643   200362 453500                    STP3    SYSTAC2_HEAD_FLG+6,,AUTO
        12 003644   200362 630500                    EPPR0   SYSTAC2_HEAD_FLG+6,,AUTO
        12 003645   000020 631400 xsym               EPPR1   B_VECTNIL+16
        12 003646   000000 701000 xent               TSX1    DAA$LOC
        12 003647   003761 702000 12                 TSX2    BADLS

PL6.E3A0      #001=DAA$ANLZ File=DAA$ANLZ.:E05TSI                                TUE 07/29/97 12:32 Page:162
      968    14347    4              DO CASE(TOP.SUBLK$(0)->OUT.CODE);

  14347 12 003650   200343 470500                    LDP0    @TOP,,AUTO
        12 003651   000003 471500                    LDP1    3,,PR0
        12 003652   100000 720100                    LXL0    0,,PR1
        12 003653   000002 100003                    CMPX0   2,DU
        12 003654   003656 602010 12                 TNC     s:14347+6,X0
        12 003655   003732 710000 12                 TRA     s:14357
        12 003656   003660 710000 12                 TRA     s:14349
        12 003657   003676 710000 12                 TRA     s:14352

      969    14348    4               CASE(%DA_HKP_LSRAT);

      970    14349    4                 CALL DAM$MAP(P$,P$) ALTRET(BADLS);

  14349 12 003660   200346 633500                    EPPR3   P$,,AUTO
        12 003661   200363 453500                    STP3    SYSTAC2_HEAD_FLG+7,,AUTO
        12 003662   200346 631500                    EPPR1   P$,,AUTO
        12 003663   200362 451500                    STP1    SYSTAC2_HEAD_FLG+6,,AUTO
        12 003664   200362 630500                    EPPR0   SYSTAC2_HEAD_FLG+6,,AUTO
        12 003665   000020 631400 xsym               EPPR1   B_VECTNIL+16
        12 003666   000000 701000 xent               TSX1    DAM$MAP
        12 003667   003761 702000 12                 TSX2    BADLS

      971    14350    4                 LSR=P$->BIT72;

  14350 12 003670   200346 470500                    LDP0    P$,,AUTO
        12 003671   200344 471500                    LDP1    @LSR,,AUTO
        12 003672   000100 100500                    MLR     fill='000'O
        12 003673   000000 000010                    ADSC9   0,,PR0                   cn=0,n=8
        12 003674   100000 000010                    ADSC9   0,,PR1                   cn=0,n=8
        12 003675   003732 710000 12                 TRA     s:14357

      972    14351    4               CASE(%DA_HKP_LSRIS);

      973    14352    4                 CALL DAM$GETDESC(P$,I,,,LSR) ALTRET(BADLS);

PL6.E3A0      #001=DAA$ANLZ File=DAA$ANLZ.:E05TSI                                TUE 07/29/97 12:32 Page:163
  14352 12 003676   200344 236100                    LDQ     @LSR,,AUTO
        12 003677   200366 756100                    STQ     SYSTAC2_HEAD_FLG+10,,AUTO
        12 003700   000001 236000 xsym               LDQ     B_VECTNIL+1
        12 003701   000001 235000 xsym               LDA     B_VECTNIL+1
        12 003702   200364 757100                    STAQ    SYSTAC2_HEAD_FLG+8,,AUTO
        12 003703   200003 631500                    EPPR1   I,,AUTO
        12 003704   200363 451500                    STP1    SYSTAC2_HEAD_FLG+7,,AUTO
        12 003705   200346 633500                    EPPR3   P$,,AUTO
        12 003706   200362 453500                    STP3    SYSTAC2_HEAD_FLG+6,,AUTO
        12 003707   200362 630500                    EPPR0   SYSTAC2_HEAD_FLG+6,,AUTO
        12 003710   000023 631400 xsym               EPPR1   B_VECTNIL+19
        12 003711   000000 701000 xent               TSX1    DAM$GETDESC
        12 003712   003761 702000 12                 TSX2    BADLS

      974    14353    4                 LSR.BASE=LSR.BASE+P.OFFSET;

  14353 12 003713   200344 470500                    LDP0    @LSR,,AUTO
        12 003714   200346 236100                    LDQ     P$,,AUTO
        12 003715   000020 772000                    QRL     16
        12 003716   000001 036100                    ADLQ    1,,PR0
        12 003717   000001 756100                    STQ     1,,PR0

      975    14354    4                 LSR.BOUND=LSR.BOUND-P.OFFSET;

  14354 12 003720   200346 236100                    LDQ     P$,,AUTO
        12 003721   000020 772000                    QRL     16
        12 003722   200362 756100                    STQ     SYSTAC2_HEAD_FLG+6,,AUTO
        12 003723   000000 236100                    LDQ     0,,PR0
        12 003724   000020 772000                    QRL     16
        12 003725   200362 136100                    SBLQ    SYSTAC2_HEAD_FLG+6,,AUTO
        12 003726   000020 736000                    QLS     16
        12 003727   000000 676100                    ERQ     0,,PR0
        12 003730   000034 376000 xsym               ANQ     B_VECTNIL+28
        12 003731   000000 656100                    ERSQ    0,,PR0

      976    14355    4               END;

PL6.E3A0      #001=DAA$ANLZ File=DAA$ANLZ.:E05TSI                                TUE 07/29/97 12:32 Page:164
      977    14356    3              END;

      978    14357    2           CALL DAF$WRITE(VECTOR(LSRFMT),VECTOR(LSNAME),VECTOR(LSR));

  14357 12 003732   577640 235007                    LDA     -65632,DL
        12 003733   200345 236100                    LDQ     @LSNAME,,AUTO
        12 003734   200362 757100                    STAQ    SYSTAC2_HEAD_FLG+6,,AUTO
        12 003735   000050 235000 13                 LDA     40
        12 003736   200344 236100                    LDQ     @LSR,,AUTO
        12 003737   200366 757100                    STAQ    SYSTAC2_HEAD_FLG+10,,AUTO
        12 003740   200362 237100                    LDAQ    SYSTAC2_HEAD_FLG+6,,AUTO
        12 003741   200364 757100                    STAQ    SYSTAC2_HEAD_FLG+8,,AUTO
        12 003742   200366 237100                    LDAQ    SYSTAC2_HEAD_FLG+10,,AUTO
        12 003743   200370 757100                    STAQ    SYSTAC2_HEAD_FLG+12,,AUTO
        12 003744   200370 630500                    EPPR0   SYSTAC2_HEAD_FLG+12,,AUTO
        12 003745   200374 450500                    STP0    SYSTAC2_HEAD_FLG+16,,AUTO
        12 003746   200364 631500                    EPPR1   SYSTAC2_HEAD_FLG+8,,AUTO
        12 003747   200373 451500                    STP1    SYSTAC2_HEAD_FLG+15,,AUTO
        12 003750   000154 236000 13                 LDQ     108
        12 003751   200372 756100                    STQ     SYSTAC2_HEAD_FLG+14,,AUTO
        12 003752   200372 630500                    EPPR0   SYSTAC2_HEAD_FLG+14,,AUTO
        12 003753   000000 220000 xsym               LDX0    DAF$WRITE
        12 003754   000021 631400 xsym               EPPR1   B_VECTNIL+17
        12 003755   000000 701010                    TSX1    0,X0
        12 003756   000000 011000                    NOP     0

      979    14358    2           RETURN;

  14358 12 003757   200342 221300                    LDX1  ! I,,AUTO
        12 003760   000001 702211                    TSX2  ! 1,X1

      980    14359    2   BADLS:
      981    14360    2           CALL DAA$ERRMSG(%E$DA_NOT_LS);

  14360 12 003761   000156 630400 13    BADLS        EPPR0   110
        12 003762   000017 631400 xsym               EPPR1   B_VECTNIL+15
        12 003763   000000 701000 xent               TSX1    DAA$ERRMSG
PL6.E3A0      #001=DAA$ANLZ File=DAA$ANLZ.:E05TSI                                TUE 07/29/97 12:32 Page:165
        12 003764   000000 011000                    NOP     0

      982    14361        /*E*   ERROR:   DAA-E$DA_NOT_LS
      983    14362               MESSAGE: Cannot setup descriptor segment.
      984    14363                                                                          */
      985    14364    2           RETURN;

  14364 12 003765   200342 221300                    LDX1  ! I,,AUTO
        12 003766   000001 702211                    TSX2  ! 1,X1

      986    14365    2   END SETLSR;
      987    14366        %EJECT;
PL6.E3A0      #001=DAA$ANLZ File=DAA$ANLZ.:E05TSI                                TUE 07/29/97 12:32 Page:166
      988    14367    1   SETDCB: PROC(TOP,DCB#,FUN) ALTRET;

  14367 12 003767   200342 741300       SETDCB       STX1  ! I,,AUTO

      989    14368        %PARSE$OUT (NAME=TOP,STCLASS="");
      990    14413    2   DCL DCB# UBIN;
      991    14414    2   DCL FUN UBIN;
      992    14415        %FPT_OPEN (SCRUB=YES,ACCT=VLP_ACCT,NAME=VLP_NAME,
      993    14416                   PASS=VLP_PASS,SN=VLP_SN,WSN=VLP_WSN);
      994    14525        %VLP_ACCT;
      995    14538        %VLP_NAME;
      996    14565        %VLP_PASS;
      997    14578        %VLP_SN (N=1);
      998    14591        %VLP_WSN;
      999    14604        %FPT_OPEN (FPTN=FPT_SCRUB,SCRUB=YES,REASSIGN=YES);
     1000    14713        %FPT_FID (ACCT=VLP_ACCT,
     1001    14714                 ASN="FPT_OPEN.V.ASN#",
     1002    14715                 NAME=VLP_NAME,
     1003    14716                 PASS=VLP_PASS,
     1004    14717                 RES="FPT_OPEN.V.RES#",
     1005    14718                 WSN=VLP_WSN,
     1006    14719                 SN=VLP_SN,
     1007    14720                 RESULTS=VLR_FID);
     1008    14743        %VLR_FID;
     1009    14762        /**/
     1010    14763    2           FPT_FID.TEXTFID_=VECTOR(TOP.SUBLK$(1)->SYM.TEXT);

  14763 12 003770   200343 470500                    LDP0    @TOP,,AUTO
        12 003771   000004 471500                    LDP1    4,,PR0
        12 003772   100004 236100                    LDQ     4,,PR1
        12 003773   000033 772000                    QRL     27
        12 003774   000064 737000                    LLS     52
        12 003775   000140 135007                    SBLA    96,DL
        12 003776   200362 451500                    STP1    SYSTAC2_HEAD_FLG+6,,AUTO
        12 003777   200362 236100                    LDQ     SYSTAC2_HEAD_FLG+6,,AUTO
        12 004000   000021 036000 13                 ADLQ    17
        12 004001   001776 757000 1                  STAQ    FPT_FID+2
PL6.E3A0      #001=DAA$ANLZ File=DAA$ANLZ.:E05TSI                                TUE 07/29/97 12:32 Page:167

     1011    14764    3           CALL M$FID(FPT_FID) WHENALTRETURN DO; ALTRETURN; END;

  14764 12 004002   001774 630400 1                  EPPR0   FPT_FID
        12 004003   420001 713400                    CLIMB   alt,+8193
        12 004004   404400 401760                    pmme    nvectors=10
        12 004005   004007 702000 12                 TSX2    s:14764+5
        12 004006   004011 710000 12                 TRA     s:14765

  14764 12 004007   200342 221300                    LDX1  ! I,,AUTO
        12 004010   000000 702211                    TSX2  ! 0,X1

     1012    14765    2           FPT_OPEN.V.FUN#=FUN;

  14765 12 004011   200345 470500                    LDP0    @FUN,,AUTO
        12 004012   000000 236100                    LDQ     0,,PR0
        12 004013   000011 736000                    QLS     9
        12 004014   001633 552010 1                  STBQ    FPT_OPEN+37,'10'O

     1013    14766    2           FPT_OPEN.V.EXIST#=TOP.SUBLK$(0)->OUT.CODE;

  14766 12 004015   200343 471500                    LDP1    @TOP,,AUTO
        12 004016   100003 473500                    LDP3    3,,PR1
        12 004017   300000 236100                    LDQ     0,,PR3
        12 004020   000007 736000                    QLS     7
        12 004021   001632 676000 1                  ERQ     FPT_OPEN+36
        12 004022   000600 376007                    ANQ     384,DL
        12 004023   001632 656000 1                  ERSQ    FPT_OPEN+36

     1014    14767    2           FPT_OPEN.V.DCB#=DCB#;

  14767 12 004024   200344 473500                    LDP3    @DCB#,,AUTO
        12 004025   300000 720100                    LXL0    0,,PR3
        12 004026   001632 740000 1                  STX0    FPT_OPEN+36

     1015    14768    2           FPT_CLOSELO.V.DCB#=DCB#;

PL6.E3A0      #001=DAA$ANLZ File=DAA$ANLZ.:E05TSI                                TUE 07/29/97 12:32 Page:168
  14768 12 004027   300000 721100                    LXL1    0,,PR3
        12 004030   000510 741000 1                  STX1    FPT_CLOSELO+26

     1016    14769    2           IF DCBADDR(DCB#)->F$DCB.FCD# THEN

  14769 12 004031   000022 474400 13                 LDP4    18
        12 004032   400000 475500                    LDP5    0,,PR4
        12 004033   300000 722100                    LXL2    0,,PR3
        12 004034   500000 476512                    LDP6    0,X2,PR5
        12 004035   600031 236100                    LDQ     25,,PR6
        12 004036   020000 316007                    CANQ    8192,DL
        12 004037   004047 600000 12                 TZE     s:14771

     1017    14770    3              CALL M$CLOSE(FPT_CLOSELO) WHENALTRETURN DO; ALTRETURN; END;

  14770 12 004040   000456 630400 1                  EPPR0   FPT_CLOSELO
        12 004041   450001 713400                    CLIMB   alt,close
        12 004042   406000 401760                    pmme    nvectors=13
        12 004043   004045 702000 12                 TSX2    s:14770+5
        12 004044   004047 710000 12                 TRA     s:14771

  14770 12 004045   200342 221300                    LDX1  ! I,,AUTO
        12 004046   000000 702211                    TSX2  ! 0,X1

     1018    14771    3           CALL M$OPEN(FPT_OPEN) WHENALTRETURN DO;

  14771 12 004047   001566 630400 1                  EPPR0   FPT_OPEN
        12 004050   450000 713400                    CLIMB   alt,open
        12 004051   410400 401760                    pmme    nvectors=18
        12 004052   004054 702000 12                 TSX2    s:14772
        12 004053   004103 710000 12                 TRA     s:14777

     1019    14772    3              CALL XUR$ERRMSG(B$TCB$->B$TCB.ALT$->B$ALT.ERR,DCB#);

  14772 12 004054   000000 470400 xsym               LDP0    B$TCB$
        12 004055   000000 471500                    LDP1    0,,PR0
        12 004056   200344 236100                    LDQ     @DCB#,,AUTO
PL6.E3A0      #001=DAA$ANLZ File=DAA$ANLZ.:E05TSI                                TUE 07/29/97 12:32 Page:169
        12 004057   200363 756100                    STQ     SYSTAC2_HEAD_FLG+7,,AUTO
        12 004060   100102 633500                    EPPR3   66,,PR1
        12 004061   200362 453500                    STP3    SYSTAC2_HEAD_FLG+6,,AUTO
        12 004062   200362 630500                    EPPR0   SYSTAC2_HEAD_FLG+6,,AUTO
        12 004063   000020 631400 xsym               EPPR1   B_VECTNIL+16
        12 004064   000000 701000 xent               TSX1    XUR$ERRMSG
        12 004065   000000 011000                    NOP     0

     1020    14773    3              FPT_SCRUB.V.DCB#=DCB#;

  14773 12 004066   200344 470500                    LDP0    @DCB#,,AUTO
        12 004067   000000 720100                    LXL0    0,,PR0
        12 004070   001746 740000 1                  STX0    FPT_SCRUB+36

     1021    14774    4              CALL M$CLOSE(FPT_CLOSELO) WHENALTRETURN DO; END;

  14774 12 004071   000456 630400 1                  EPPR0   FPT_CLOSELO
        12 004072   450001 713400                    CLIMB   alt,close
        12 004073   406000 401760                    pmme    nvectors=13
        12 004074   004076 702000 12                 TSX2    s:14775
        12 004075   004076 710000 12                 TRA     s:14775

     1022    14775    4              CALL M$OPEN(FPT_SCRUB) WHENALTRETURN DO; END;

  14775 12 004076   001702 630400 1                  EPPR0   FPT_SCRUB
        12 004077   450000 713400                    CLIMB   alt,open
        12 004100   410400 401760                    pmme    nvectors=18
        12 004101   004103 702000 12                 TSX2    s:14777
        12 004102   004103 710000 12                 TRA     s:14777

     1023    14776    3              END;

     1024    14777    2           RETURN;

  14777 12 004103   200342 221300                    LDX1  ! I,,AUTO
        12 004104   000001 702211                    TSX2  ! 1,X1

PL6.E3A0      #001=DAA$ANLZ File=DAA$ANLZ.:E05TSI                                TUE 07/29/97 12:32 Page:170
     1025    14778    2   END SETDCB;
     1026    14779        /**/
     1027    14780        %EJECT;
PL6.E3A0      #001=DAA$ANLZ File=DAA$ANLZ.:E05TSI                                TUE 07/29/97 12:32 Page:171
     1028    14781        /**/
     1029    14782    1   SELECT_NODE: PROC(NODENAME) ALTRET;

  14782 12 004105   200346 741300       SELECT_NODE  STX1  ! P$,,AUTO

     1030    14783        /**/
     1031    14784    2   DCL NODENAME CHAR(8) CALIGNED;
     1032    14785        /**/
     1033    14786    2   DCL I SBIN;
     1034    14787    2   DCL NODETYPE SBIN;
     1035    14788    2   DCL FOUND BIT(1) ALIGNED;
     1036    14789        /**/
     1037    14790        %FPT_OPEN (FPTN=FPT_OPNFPRG,DCB=M$FPRG,
     1038    14791                   ORG=FPRG,ASN=DEVICE,FUN=CREATE,FPRG=VLP_FPRG);
     1039    14900        %VLP_FPRG (FPTN=VLP_FPRG,
     1040    14901                   NAME='ANLZ_FPRG');
     1041    14922        /**/
     1042    14923    2   AGAIN:  NODETYPE=-1;

  14923 12 004106   000001 335007       AGAIN        LCA     1,DL
        12 004107   200351 755100                    STA     NODETYPE,,AUTO

     1043    14924    2           IF NODENAME='HOST' THEN

  14924 12 004110   200347 470500                    LDP0    @NODENAME,,AUTO
        12 004111   040000 106500                    CMPC    fill='040'O
        12 004112   000000 000010                    ADSC9   0,,PR0                   cn=0,n=8
        12 004113   000133 000004 2                  ADSC9   BLANKS+5                 cn=0,n=4
        12 004114   004120 601000 12                 TNZ     s:14927

     1044    14925    2              FPT_NODEINFO.V.NODENAME#=VLR_MONINFO.NODE_NAME;

  14925 12 004115   000426 237000 1                  LDAQ    VLR_MONINFO+10
        12 004116   001506 757000 1                  STAQ    FPT_NODEINFO+4
        12 004117   004123 710000 12                 TRA     s:14928

     1045    14926    2           ELSE
PL6.E3A0      #001=DAA$ANLZ File=DAA$ANLZ.:E05TSI                                TUE 07/29/97 12:32 Page:172
     1046    14927    2              FPT_NODEINFO.V.NODENAME#=NODENAME;

  14927 12 004120   040000 100500                    MLR     fill='040'O
        12 004121   000000 000010                    ADSC9   0,,PR0                   cn=0,n=8
        12 004122   001506 000010 1                  ADSC9   FPT_NODEINFO+4           cn=0,n=8

     1047    14928    2           FOUND = '1'B;

  14928 12 004123   400000 236003                    LDQ     -131072,DU
        12 004124   200352 756100                    STQ     FOUND,,AUTO

     1048    14929    3           CALL M$NODEINFO(FPT_NODEINFO) WHENALTRETURN DO;

  14929 12 004125   001502 630400 1                  EPPR0   FPT_NODEINFO
        12 004126   560031 713400                    CLIMB   alt,+57369
        12 004127   400400 401760                    pmme    nvectors=2
        12 004130   004132 702000 12                 TSX2    s:14930
        12 004131   004141 710000 12                 TRA     s:14934

     1049    14930    3              FOUND = '0'B;

  14930 12 004132   200352 450100                    STZ     FOUND,,AUTO

     1050    14931    3              VLR_NODEINFO.NODENUM# = 0;

  14931 12 004133   000000 236003                    LDQ     0,DU
        12 004134   001514 552040 1                  STBQ    VLR_NODEINFO+2,'40'O

     1051    14932    3              VLR_NODEINFO.NODENAME#=NODENAME;

  14932 12 004135   200347 470500                    LDP0    @NODENAME,,AUTO
        12 004136   040000 100500                    MLR     fill='040'O
        12 004137   000000 000010                    ADSC9   0,,PR0                   cn=0,n=8
        12 004140   001512 000010 1                  ADSC9   VLR_NODEINFO             cn=0,n=8

     1052    14933    3              END;

PL6.E3A0      #001=DAA$ANLZ File=DAA$ANLZ.:E05TSI                                TUE 07/29/97 12:32 Page:173
     1053    14934    3           IF DA_DUMPFILE THEN DO;

  14934 12 004141   000000 234000 xsym               SZN     DA_DUMPFILE
        12 004142   004220 605000 12                 TPL     s:14949

     1054    14935    4              DO I=1 TO NODEDIR.N;

  14935 12 004143   000001 235007                    LDA     1,DL
        12 004144   200350 755100                    STA     I,,AUTO
        12 004145   004156 710000 12                 TRA     s:14937+1

     1055    14936    4                 IF VLR_NODEINFO.NODENAME#=NODEDIR.NODE.NODENAME(I) THEN EXIT;

  14936 12 004146   200350 236100                    LDQ     I,,AUTO
        12 004147   000014 402007                    MPY     12,DL
        12 004150   000000 470400 xsym               LDP0    DA_NODEDIR$
        12 004151   040106 106400                    CMPC    fill='040'O
        12 004152   001512 000010 1                  ADSC9   VLR_NODEINFO             cn=0,n=8
        12 004153   000001 000010                    ADSC9   1,Q,PR0                  cn=0,n=8
        12 004154   004163 600000 12                 TZE     s:14938

     1056    14937    4                 END;

  14937 12 004155   200350 054100                    AOS     I,,AUTO
        12 004156   000000 470400 xsym               LDP0    DA_NODEDIR$
        12 004157   000000 236100                    LDQ     0,,PR0
        12 004160   004146 604000 12                 TMI     s:14936
        12 004161   200350 116100                    CMPQ    I,,AUTO
        12 004162   004146 605000 12                 TPL     s:14936

     1057    14938    4              IF I<=NODEDIR.N THEN DO;

  14938 12 004163   000000 236100                    LDQ     0,,PR0
        12 004164   004167 604000 12                 TMI     s:14939
        12 004165   200350 116100                    CMPQ    I,,AUTO
        12 004166   004346 604000 12                 TMI     s:14986

PL6.E3A0      #001=DAA$ANLZ File=DAA$ANLZ.:E05TSI                                TUE 07/29/97 12:32 Page:174
     1058    14939    4                 NODETYPE=NODEDIR.NODE.TYPE(I);

  14939 12 004167   200350 236100                    LDQ     I,,AUTO
        12 004170   000003 402007                    MPY     3,DL
        12 004171   000003 236106                    LDQ     3,QL,PR0
        12 004172   000033 772000                    QRL     27
        12 004173   200351 756100                    STQ     NODETYPE,,AUTO

     1059    14940    5                 DO CASE(NODETYPE);

  14940 12 004174   000003 116007                    CMPQ    3,DL
        12 004175   004177 602006 12                 TNC     s:14940+3,QL
        12 004176   004346 710000 12                 TRA     s:14986
        12 004177   004217 710000 12                 TRA     s:14947
        12 004200   004202 710000 12                 TRA     s:14942
        12 004201   004211 710000 12                 TRA     s:14944

     1060    14941    5                  CASE(%R_HOSTNODE#);

     1061    14942    5                    CALL DAM$SELECT(I);

  14942 12 004202   200350 631500                    EPPR1   I,,AUTO
        12 004203   200362 451500                    STP1    SYSTAC2_HEAD_FLG+6,,AUTO
        12 004204   200362 630500                    EPPR0   SYSTAC2_HEAD_FLG+6,,AUTO
        12 004205   000017 631400 xsym               EPPR1   B_VECTNIL+15
        12 004206   000000 701000 xent               TSX1    DAM$SELECT
        12 004207   000000 011000                    NOP     0
        12 004210   004346 710000 12                 TRA     s:14986

     1062    14943    5                  CASE(%R_FEPNODE#);

     1063    14944    5                    CALL DBM$SELECT(I);

  14944 12 004211   200350 631500                    EPPR1   I,,AUTO
        12 004212   200362 451500                    STP1    SYSTAC2_HEAD_FLG+6,,AUTO
        12 004213   200362 630500                    EPPR0   SYSTAC2_HEAD_FLG+6,,AUTO
        12 004214   000017 631400 xsym               EPPR1   B_VECTNIL+15
PL6.E3A0      #001=DAA$ANLZ File=DAA$ANLZ.:E05TSI                                TUE 07/29/97 12:32 Page:175
        12 004215   000000 701000 xent               TSX1    DBM$SELECT
        12 004216   000000 011000                    NOP     0

     1064    14945    5                  END;

     1065    14946    4                 END;

     1066    14947    3              END;

  14947 12 004217   004346 710000 12                 TRA     s:14986

     1067    14948    3           ELSE DO;

     1068    14949    4              IF (VLR_NODEINFO.HOST# AND FOUND) OR NODENAME='HOST' THEN DO;

  14949 12 004220   001514 236000 1                  LDQ     VLR_NODEINFO+2
        12 004221   000400 316003                    CANQ    256,DU
        12 004222   004225 600000 12                 TZE     s:14949+5
        12 004223   200352 234100                    SZN     FOUND,,AUTO
        12 004224   004232 604000 12                 TMI     s:14950
        12 004225   200347 470500                    LDP0    @NODENAME,,AUTO
        12 004226   040000 106500                    CMPC    fill='040'O
        12 004227   000000 000010                    ADSC9   0,,PR0                   cn=0,n=8
        12 004230   000133 000004 2                  ADSC9   BLANKS+5                 cn=0,n=4
        12 004231   004245 601000 12                 TNZ     s:14962

     1069    14950    4                 NODETYPE=%R_HOSTNODE#;

  14950 12 004232   000001 235007                    LDA     1,DL
        12 004233   200351 755100                    STA     NODETYPE,,AUTO

     1070    14951    5                 IF VLR_NODEINFO.NODENAME# ~= VLR_MONINFO.NODE_NAME THEN DO;

  14951 12 004234   001512 237000 1                  LDAQ    VLR_NODEINFO
        12 004235   000426 117000 1                  CMPAQ   VLR_MONINFO+10
        12 004236   004346 600000 12                 TZE     s:14986

PL6.E3A0      #001=DAA$ANLZ File=DAA$ANLZ.:E05TSI                                TUE 07/29/97 12:32 Page:176
     1071    14952    5                    CALL DAA$ERRMSG(%E$DA_HOST_TOO_FAR);

  14952 12 004237   000160 630400 13                 EPPR0   112
        12 004240   000017 631400 xsym               EPPR1   B_VECTNIL+15
        12 004241   000000 701000 xent               TSX1    DAA$ERRMSG
        12 004242   000000 011000                    NOP     0

     1072    14953
     1073    14954        /*E*       ERROR:  DAA-E$DA_HOST_TOO_FAR
     1074    14955                   MESSAGE: I can't see that far.
     1075    14956                   MESSAGE1:  ANLZing a remote host is not implemented.
     1076    14957        */
     1077    14958    5                    ALTRETURN;

  14958 12 004243   200346 221300                    LDX1  ! P$,,AUTO
        12 004244   000000 702211                    TSX2  ! 0,X1

     1078    14959    5                    END;
     1079    14960    4                 END;
     1080    14961    4              ELSE DO;

     1081    14962    4                 NODETYPE=%R_FEPNODE#;

  14962 12 004245   000002 235007                    LDA     2,DL
        12 004246   200351 755100                    STA     NODETYPE,,AUTO

     1082    14963    4                 FPT_OPNFPRG.V.RES#='FE';

  14963 12 004247   000154 236000 2                  LDQ     BLANKS+22
        12 004250   777777 376003                    ANQ     -1,DU
        12 004251   040040 276007                    ORQ     16416,DL
        12 004252   002106 756000 1                  STQ     FPT_OPNFPRG+40

     1083    14964    4                 I=VLR_NODEINFO.NODENUM#;

  14964 12 004253   001514 236000 1                  LDQ     VLR_NODEINFO+2
        12 004254   000033 772000                    QRL     27
PL6.E3A0      #001=DAA$ANLZ File=DAA$ANLZ.:E05TSI                                TUE 07/29/97 12:32 Page:177
        12 004255   200350 756100                    STQ     I,,AUTO

     1084    14965    4                 CALL BINCHAR(SUBSTR(FPT_OPNFPRG.V.RES#,2,2),I);

  14965 12 004256   000000 301500                    BTD
        12 004257   200350 000004                    NDSC9   I,,AUTO                  cn=0,s=lsgnf,sf=0,n=4
        12 004260   002106 430002 1                  NDSC9   FPT_OPNFPRG+40           cn=2,s=nosgn,sf=0,n=2

     1085    14966    4                 VLP_FPRG.ACCT#=DCBADDR(DCBNUM(M$LM))->F$DCB.ACCT#;

  14966 12 004261   000000 236007 xsym               LDQ     M$LM,DL
        12 004262   000022 471400 13                 LDP1    18
        12 004263   100000 473500                    LDP3    0,,PR1
        12 004264   300000 474506                    LDP4    0,QL,PR3
        12 004265   400020 237100                    LDAQ    16,,PR4
        12 004266   002142 757000 1                  STAQ    VLP_FPRG+10

     1086    14967    5                 IF DCBADDR(DCBNUM(M$FPRG))->F$DCB.FCD# THEN DO;

  14967 12 004267   000000 236007 xsym               LDQ     M$FPRG,DL
        12 004270   300000 474506                    LDP4    0,QL,PR3
        12 004271   400031 236100                    LDQ     25,,PR4
        12 004272   020000 316007                    CANQ    8192,DL
        12 004273   004277 600000 12                 TZE     s:14970

     1087    14968    5                    CALL M$CLOSE(FPT_CLSFPRG);

  14968 12 004274   000642 630400 1                  EPPR0   FPT_CLSFPRG
        12 004275   050001 713400                    CLIMB   close
        12 004276   406000 401760                    pmme    nvectors=13

     1088    14969    5                    END;

     1089    14970    4                 CALL M$OPEN(FPT_OPNFPRG)

  14970 12 004277   002036 630400 1                  EPPR0   FPT_OPNFPRG
        12 004300   450000 713400                    CLIMB   alt,open
PL6.E3A0      #001=DAA$ANLZ File=DAA$ANLZ.:E05TSI                                TUE 07/29/97 12:32 Page:178
        12 004301   410400 401760                    pmme    nvectors=18
        12 004302   004304 702000 12                 TSX2    s:14972
        12 004303   004340 710000 12                 TRA     s:14983

     1090    14971    5                 WHENALTRETURN DO;

     1091    14972    5                    VLP_FPRG.ACCT# = ':SYS    ';

  14972 12 004304   000170 237000 2                  LDAQ    BLANKS+34
        12 004305   002142 757000 1                  STAQ    VLP_FPRG+10

     1092    14973    6                    CALL M$OPEN(FPT_OPNFPRG) WHENALTRETURN DO;

  14973 12 004306   002036 630400 1                  EPPR0   FPT_OPNFPRG
        12 004307   450000 713400                    CLIMB   alt,open
        12 004310   410400 401760                    pmme    nvectors=18
        12 004311   004313 702000 12                 TSX2    s:14974
        12 004312   004340 710000 12                 TRA     s:14983

     1093    14974    7                       IF FOUND THEN DO;

  14974 12 004313   200352 234100                    SZN     FOUND,,AUTO
        12 004314   004327 605000 12                 TPL     s:14978

     1094    14975    7                          CALL DAA$ERRMSG (B$TCB$->B$TCB.ALT$->B$ALT.ERR);

  14975 12 004315   000000 470400 xsym               LDP0    B$TCB$
        12 004316   000000 471500                    LDP1    0,,PR0
        12 004317   100102 633500                    EPPR3   66,,PR1
        12 004320   200362 453500                    STP3    SYSTAC2_HEAD_FLG+6,,AUTO
        12 004321   200362 630500                    EPPR0   SYSTAC2_HEAD_FLG+6,,AUTO
        12 004322   000017 631400 xsym               EPPR1   B_VECTNIL+15
        12 004323   000000 701000 xent               TSX1    DAA$ERRMSG
        12 004324   000000 011000                    NOP     0

     1095    14976    7                          ALTRETURN;

PL6.E3A0      #001=DAA$ANLZ File=DAA$ANLZ.:E05TSI                                TUE 07/29/97 12:32 Page:179
  14976 12 004325   200346 221300                    LDX1  ! P$,,AUTO
        12 004326   000000 702211                    TSX2  ! 0,X1

     1096    14977    7                          END;
     1097    14978    6                       CALL DAA$ERRMSG (%E$DA_NO_NODE);

  14978 12 004327   000162 630400 13                 EPPR0   114
        12 004330   000017 631400 xsym               EPPR1   B_VECTNIL+15
        12 004331   000000 701000 xent               TSX1    DAA$ERRMSG
        12 004332   000000 011000                    NOP     0

     1098    14979    6                       NODENAME = 'HOST';

  14979 12 004333   200347 470500                    LDP0    @NODENAME,,AUTO
        12 004334   040100 100400                    MLR     fill='040'O
        12 004335   000133 000004 2                  ADSC9   BLANKS+5                 cn=0,n=4
        12 004336   000000 000010                    ADSC9   0,,PR0                   cn=0,n=8

     1099    14980    6                       GOTO AGAIN;

  14980 12 004337   004106 710000 12                 TRA     AGAIN

     1100    14981    6                       END;
     1101    14982    5                    END;

     1102    14983    4                 CALL DBM$SELECT(I);

  14983 12 004340   200350 630500                    EPPR0   I,,AUTO
        12 004341   200362 450500                    STP0    SYSTAC2_HEAD_FLG+6,,AUTO
        12 004342   200362 630500                    EPPR0   SYSTAC2_HEAD_FLG+6,,AUTO
        12 004343   000017 631400 xsym               EPPR1   B_VECTNIL+15
        12 004344   000000 701000 xent               TSX1    DBM$SELECT
        12 004345   000000 011000                    NOP     0

     1103    14984    4                 END;

     1104    14985    3              END;
PL6.E3A0      #001=DAA$ANLZ File=DAA$ANLZ.:E05TSI                                TUE 07/29/97 12:32 Page:180

     1105    14986    3           DO CASE(NODETYPE);

  14986 12 004346   200351 235100                    LDA     NODETYPE,,AUTO
        12 004347   000003 115007                    CMPA    3,DL
        12 004350   004352 602005 12                 TNC     s:14986+4,AL
        12 004351   004406 710000 12                 TRA     s:15000
        12 004352   004406 710000 12                 TRA     s:15000
        12 004353   004355 710000 12                 TRA     s:14988
        12 004354   004370 710000 12                 TRA     s:14992

     1106    14987    3            CASE(%R_HOSTNODE#);

     1107    14988    3              PARSENODE$=ADDR(ANLZ_CMD);

  14988 12 004355   000010 236000 13                 LDQ     8
        12 004356   200230 756100                    STQ     PARSENODE$,,AUTO

     1108    14989    3              DA_DFLT_RADIX=8;

  14989 12 004357   000010 235007                    LDA     8,DL
        12 004360   000000 755000 xsym               STA     DA_DFLT_RADIX

     1109    14990    3              IF DA_DFLT_SYMBOLS THEN CALL DAS$SYMINIT(MONFID);

  14990 12 004361   000001 234000 1                  SZN     DA_DFLT_SYMBOLS
        12 004362   004414 605000 12                 TPL     s:15006

  14990 12 004363   000003 630400 13                 EPPR0   3
        12 004364   000017 631400 xsym               EPPR1   B_VECTNIL+15
        12 004365   000000 701000 xent               TSX1    DAS$SYMINIT
        12 004366   000000 011000                    NOP     0
        12 004367   004414 710000 12                 TRA     s:15006

     1110    14991    3            CASE(%R_FEPNODE#);

     1111    14992    3              PARSENODE$=ADDR(FEPANLZ_CMD);
PL6.E3A0      #001=DAA$ANLZ File=DAA$ANLZ.:E05TSI                                TUE 07/29/97 12:32 Page:181

  14992 12 004370   000163 236000 13                 LDQ     115
        12 004371   200230 756100                    STQ     PARSENODE$,,AUTO

     1112    14993    3              DA_DFLT_RADIX=16;

  14993 12 004372   000020 235007                    LDA     16,DL
        12 004373   000000 755000 xsym               STA     DA_DFLT_RADIX

     1113    14994    3              IF DA_DFLT_SYMBOLS

  14994 12 004374   000001 234000 1                  SZN     DA_DFLT_SYMBOLS
        12 004375   004414 605000 12                 TPL     s:15006

     1114    14995    4              THEN DO;

     1115    14996    4                 I=0;

  14996 12 004376   200350 450100                    STZ     I,,AUTO

     1116    14997    4                 CALL DBM$SETSYMBOLS(I);

  14997 12 004377   200350 630500                    EPPR0   I,,AUTO
        12 004400   200362 450500                    STP0    SYSTAC2_HEAD_FLG+6,,AUTO
        12 004401   200362 630500                    EPPR0   SYSTAC2_HEAD_FLG+6,,AUTO
        12 004402   000017 631400 xsym               EPPR1   B_VECTNIL+15
        12 004403   000000 701000 xent               TSX1    DBM$SETSYMBOLS
        12 004404   000000 011000                    NOP     0

     1117    14998    4                 END;

  14998 12 004405   004414 710000 12                 TRA     s:15006

     1118    14999    3            CASE(ELSE);

     1119    15000    3              CALL DAA$ERRMSG(%E$DA_NO_NODE);

PL6.E3A0      #001=DAA$ANLZ File=DAA$ANLZ.:E05TSI                                TUE 07/29/97 12:32 Page:182
  15000 12 004406   000162 630400 13                 EPPR0   114
        12 004407   000017 631400 xsym               EPPR1   B_VECTNIL+15
        12 004410   000000 701000 xent               TSX1    DAA$ERRMSG
        12 004411   000000 011000                    NOP     0

     1120    15001        /*E*          ERROR:  DAA-E$DA_NO_NODE
     1121    15002                      MESSAGE:  Specified node not found.
     1122    15003        */
     1123    15004    3              ALTRETURN;

  15004 12 004412   200346 221300                    LDX1  ! P$,,AUTO
        12 004413   000000 702211                    TSX2  ! 0,X1

     1124    15005    3            END;

     1125    15006    2           PRMPT.NODENAME=VLR_NODEINFO.NODENAME#;

  15006 12 004414   040000 100400                    MLR     fill='040'O
        12 004415   001512 000010 1                  ADSC9   VLR_NODEINFO             cn=0,n=8
        12 004416   000006 000011 1                  ADSC9   PRMPT                    cn=0,n=9

     1126    15007    2           RETURN;

  15007 12 004417   200346 221300                    LDX1  ! P$,,AUTO
        12 004420   000001 702211                    TSX2  ! 1,X1

     1127    15008        /**/
     1128    15009    2   END SELECT_NODE;
     1129    15010        /**/
     1130    15011        %EJECT;
PL6.E3A0      #001=DAA$ANLZ File=DAA$ANLZ.:E05TSI                                TUE 07/29/97 12:32 Page:183
     1131    15012
     1132    15013    1   STAR_INFO: PROC(TOP);

  15013 12 004421   200342 741300       STAR_INFO    STX1  ! I,,AUTO

     1133    15014
     1134    15015        %PARSE$OUT (NAME=TOP,STCLASS=PARAM);
     1135    15060
     1136    15061
     1137    15062    3           IF NOT DA_DUMPFILE THEN DO;

  15062 12 004422   000000 234000 xsym               SZN     DA_DUMPFILE
        12 004423   004432 604000 12                 TMI     s:15069

     1138    15063    3              CALL DAA$ERRMSG(%E$DA_DUMP_ONLY);

  15063 12 004424   000060 630400 13                 EPPR0   48
        12 004425   000017 631400 xsym               EPPR1   B_VECTNIL+15
        12 004426   000000 701000 xent               TSX1    DAA$ERRMSG
        12 004427   000000 011000                    NOP     0

     1139    15064        /*E*          ERROR:  DAA-E$DA_DUMP_ONLY
     1140    15065                      MESSAGE:  Command only allowed when ANLZing a dump file.
     1141    15066        */
     1142    15067    3              RETURN;

  15067 12 004430   200342 221300                    LDX1  ! I,,AUTO
        12 004431   000001 702211                    TSX2  ! 1,X1

     1143    15068    3              END;
     1144    15069    2           OPENSTAR.ACCT_=VECTOR(ERASE);

  15069 12 004432   000164 237000 13                 LDAQ    116
        12 004433   001110 757000 1                  STAQ    OPENSTAR+20

     1145    15070    3           CALL M$OPEN(OPENSTAR) WHENALTRETURN DO;

PL6.E3A0      #001=DAA$ANLZ File=DAA$ANLZ.:E05TSI                                TUE 07/29/97 12:32 Page:184
  15070 12 004434   001064 630400 1                  EPPR0   OPENSTAR
        12 004435   450000 713400                    CLIMB   alt,open
        12 004436   410400 401760                    pmme    nvectors=18
        12 004437   004441 702000 12                 TSX2    s:15071
        12 004440   004462 710000 12                 TRA     s:15077

     1146    15071    3              OPENSTAR.ACCT_=VECTOR(STARACCT);

  15071 12 004441   000166 237000 13                 LDAQ    118
        12 004442   001110 757000 1                  STAQ    OPENSTAR+20

     1147    15072    4              CALL M$OPEN(OPENSTAR) WHENALTRETURN DO;

  15072 12 004443   001064 630400 1                  EPPR0   OPENSTAR
        12 004444   450000 713400                    CLIMB   alt,open
        12 004445   410400 401760                    pmme    nvectors=18
        12 004446   004450 702000 12                 TSX2    s:15073
        12 004447   004462 710000 12                 TRA     s:15077

     1148    15073    4                 CALL DAA$ERRMSG(B$TCB$->B$TCB.ALT$->B$ALT.ERR);

  15073 12 004450   000000 470400 xsym               LDP0    B$TCB$
        12 004451   000000 471500                    LDP1    0,,PR0
        12 004452   100102 633500                    EPPR3   66,,PR1
        12 004453   200362 453500                    STP3    SYSTAC2_HEAD_FLG+6,,AUTO
        12 004454   200362 630500                    EPPR0   SYSTAC2_HEAD_FLG+6,,AUTO
        12 004455   000017 631400 xsym               EPPR1   B_VECTNIL+15
        12 004456   000000 701000 xent               TSX1    DAA$ERRMSG
        12 004457   000000 011000                    NOP     0

     1149    15074    4                 RETURN;

  15074 12 004460   200342 221300                    LDX1  ! I,,AUTO
        12 004461   000001 702211                    TSX2  ! 1,X1

     1150    15075    4                 END;
     1151    15076    3              END;
PL6.E3A0      #001=DAA$ANLZ File=DAA$ANLZ.:E05TSI                                TUE 07/29/97 12:32 Page:185

     1152    15077    2           STARKEY.K=SCODE.FCG(0)*64000+SCODE.FCG(1)*1000+SCODE.FCG(2);

  15077 12 004462   200012 236100                    LDQ     SCODE,,AUTO
        12 004463   000030 772000                    QRL     24
        12 004464   000077 376007                    ANQ     63,DL
        12 004465   200362 756100                    STQ     SYSTAC2_HEAD_FLG+6,,AUTO
        12 004466   200012 236100                    LDQ     SCODE,,AUTO
        12 004467   000030 772000                    QRL     24
        12 004470   007700 376007                    ANQ     4032,DL
        12 004471   200362 036100                    ADLQ    SYSTAC2_HEAD_FLG+6,,AUTO
        12 004472   200363 756100                    STQ     SYSTAC2_HEAD_FLG+7,,AUTO
        12 004473   200012 236100                    LDQ     SCODE,,AUTO
        12 004474   000022 772000                    QRL     18
        12 004475   000077 376007                    ANQ     63,DL
        12 004476   200364 756100                    STQ     SYSTAC2_HEAD_FLG+8,,AUTO
        12 004477   200363 236100                    LDQ     SYSTAC2_HEAD_FLG+7,,AUTO
        12 004500   001750 402007                    MPY     1000,DL
        12 004501   200364 036100                    ADLQ    SYSTAC2_HEAD_FLG+8,,AUTO
        12 004502   001237 552034 1                  STBQ    STARKEY,'34'O

     1153    15078    2           READSTAR.BUF_=VECTOR(CBUF);

  15078 12 004503   000020 235000 13                 LDA     16
        12 004504   200362 452500                    STP2    SYSTAC2_HEAD_FLG+6,,AUTO
        12 004505   200362 236100                    LDQ     SYSTAC2_HEAD_FLG+6,,AUTO
        12 004506   000232 036003                    ADLQ    154,DU
        12 004507   001162 757000 1                  STAQ    READSTAR+4

     1154    15079    2           CBUF=' ';

  15079 12 004510   040100 100400                    MLR     fill='040'O
        12 004511   000035 000001 xsym               ADSC9   B_VECTNIL+29             cn=0,n=1
        12 004512   200232 000400                    ADSC9   CBUF,,AUTO               cn=0,n=256

     1155    15080    3           CALL M$READ(READSTAR) WHENALTRETURN DO;

PL6.E3A0      #001=DAA$ANLZ File=DAA$ANLZ.:E05TSI                                TUE 07/29/97 12:32 Page:186
  15080 12 004513   001156 630400 1                  EPPR0   READSTAR
        12 004514   440000 713400                    CLIMB   alt,read
        12 004515   401400 401760                    pmme    nvectors=4
        12 004516   004520 702000 12                 TSX2    s:15081
        12 004517   004566 710000 12                 TRA     s:15094

     1156    15081    3              STARKEY.K=STARKEY.K-MOD(STARKEY.K,1000);

  15081 12 004520   001237 236000 1                  LDQ     STARKEY
        12 004521   000032 376000 xsym               ANQ     B_VECTNIL+26
        12 004522   001750 506007                    DIV     1000,DL
        12 004523   200362 755100                    STA     SYSTAC2_HEAD_FLG+6,,AUTO
        12 004524   001237 236000 1                  LDQ     STARKEY
        12 004525   000032 376000 xsym               ANQ     B_VECTNIL+26
        12 004526   200362 136100                    SBLQ    SYSTAC2_HEAD_FLG+6,,AUTO
        12 004527   001237 552034 1                  STBQ    STARKEY,'34'O

     1157    15082    4              CALL M$READ(READSTAR) WHENALTRETURN DO;

  15082 12 004530   001156 630400 1                  EPPR0   READSTAR
        12 004531   440000 713400                    CLIMB   alt,read
        12 004532   401400 401760                    pmme    nvectors=4
        12 004533   004535 702000 12                 TSX2    s:15083
        12 004534   004566 710000 12                 TRA     s:15094

     1158    15083    4                 STARKEY.K=BITBIN(DA_DFLT_RADIX=16)*1000;

  15083 12 004535   400000 220003                    LDX0    -131072,DU
        12 004536   000000 235000 xsym               LDA     DA_DFLT_RADIX
        12 004537   000020 115007                    CMPA    16,DL
        12 004540   004542 600000 12                 TZE     s:15083+5
        12 004541   000000 220003                    LDX0    0,DU
        12 004542   000000 636010                    EAQ     0,X0
        12 004543   000043 772000                    QRL     35
        12 004544   001750 402007                    MPY     1000,DL
        12 004545   001237 552034 1                  STBQ    STARKEY,'34'O

PL6.E3A0      #001=DAA$ANLZ File=DAA$ANLZ.:E05TSI                                TUE 07/29/97 12:32 Page:187
     1159    15084    5                 CALL M$READ(READSTAR) WHENALTRETURN DO;

  15084 12 004546   001156 630400 1                  EPPR0   READSTAR
        12 004547   440000 713400                    CLIMB   alt,read
        12 004550   401400 401760                    pmme    nvectors=4
        12 004551   004553 702000 12                 TSX2    s:15085
        12 004552   004566 710000 12                 TRA     s:15094

     1160    15085    5                    CALL DAA$ERRMSG(%E$DA_STAR_ERR);

  15085 12 004553   000171 630400 13                 EPPR0   121
        12 004554   000017 631400 xsym               EPPR1   B_VECTNIL+15
        12 004555   000000 701000 xent               TSX1    DAA$ERRMSG
        12 004556   000000 011000                    NOP     0

     1161    15086        /*E*          ERROR:  DAA-E$DA_STAR_ERR
     1162    15087                      MESSAGE:  No command found in ANLZ_STAR for this screech code.
     1163    15088        */
     1164    15089    6                    CALL M$CLOSE(CLOSESTAR) WHENALTRETURN DO; END;

  15089 12 004557   001174 630400 1                  EPPR0   CLOSESTAR
        12 004560   450001 713400                    CLIMB   alt,close
        12 004561   406000 401760                    pmme    nvectors=13
        12 004562   004564 702000 12                 TSX2    s:15090
        12 004563   004564 710000 12                 TRA     s:15090

     1165    15090    5                    RETURN;

  15090 12 004564   200342 221300                    LDX1  ! I,,AUTO
        12 004565   000001 702211                    TSX2  ! 1,X1

     1166    15091    5                    END;
     1167    15092    4                 END;

     1168    15093    3              END;

     1169    15094    3           CALL M$CLOSE(CLOSESTAR) WHENALTRETURN DO; END;
PL6.E3A0      #001=DAA$ANLZ File=DAA$ANLZ.:E05TSI                                TUE 07/29/97 12:32 Page:188

  15094 12 004566   001174 630400 1                  EPPR0   CLOSESTAR
        12 004567   450001 713400                    CLIMB   alt,close
        12 004570   406000 401760                    pmme    nvectors=13
        12 004571   004573 702000 12                 TSX2    s:15095
        12 004572   004573 710000 12                 TRA     s:15095

     1170    15095    2           CALL DAF$WRITE(VECTOR(STARFMT),VECTOR(CBUF));

  15095 12 004573   000020 235000 13                 LDA     16
        12 004574   200362 452500                    STP2    SYSTAC2_HEAD_FLG+6,,AUTO
        12 004575   200362 236100                    LDQ     SYSTAC2_HEAD_FLG+6,,AUTO
        12 004576   000232 036003                    ADLQ    154,DU
        12 004577   200364 757100                    STAQ    SYSTAC2_HEAD_FLG+8,,AUTO
        12 004600   200364 630500                    EPPR0   SYSTAC2_HEAD_FLG+8,,AUTO
        12 004601   200367 450500                    STP0    SYSTAC2_HEAD_FLG+11,,AUTO
        12 004602   000174 236000 13                 LDQ     124
        12 004603   200366 756100                    STQ     SYSTAC2_HEAD_FLG+10,,AUTO
        12 004604   200366 630500                    EPPR0   SYSTAC2_HEAD_FLG+10,,AUTO
        12 004605   000000 220000 xsym               LDX0    DAF$WRITE
        12 004606   000020 631400 xsym               EPPR1   B_VECTNIL+16
        12 004607   000000 701010                    TSX1    0,X0
        12 004610   000000 011000                    NOP     0

     1171    15096    2           STARTXT$=ADDR(CBUF);

  15096 12 004611   200232 630500                    EPPR0   CBUF,,AUTO
        12 004612   200231 450500                    STP0    STARTXT$,,AUTO

     1172    15097    2           RETURN;

  15097 12 004613   200342 221300                    LDX1  ! I,,AUTO
        12 004614   000001 702211                    TSX2  ! 1,X1

     1173    15098
     1174    15099    2   END STAR_INFO;
     1175    15100        %EJECT;
PL6.E3A0      #001=DAA$ANLZ File=DAA$ANLZ.:E05TSI                                TUE 07/29/97 12:32 Page:189
     1176    15101
     1177    15102    1   LIST_DUMPS: PROC(TOP);

  15102 12 004615   200342 741300       LIST_DUMPS   STX1  ! I,,AUTO

     1178    15103
     1179    15104        %PARSE$OUT (NAME=TOP,STCLASS=PARAM);
     1180    15149        %CODE10;
     1181    15153
     1182    15154        %FPT_OPEN (FPTN=OPEN_NEXT,DCB=M$STAR,NXTF=YES,TEST=YES,ACCT=DFACCT,ASN=FILE);
     1183    15263        %VLP_NAME (FPTN=DFNAME,NAME=':DF',STCLASS=CONSTANT);
     1184    15290        %VLP_ACCT (FPTN=DFACCT,ACCT=':SYSTAC');
     1185    15303
     1186    15304    2   DCL FMT1 CHAR(0) CONSTANT INIT('%\%>A  %A  %A%N-');
     1187    15305    2   DCL FMT2 CHAR(0) CONSTANT INIT('%\%/');
     1188    15306    2   DCL FMT3 CHAR(0) CONSTANT INIT('%\%/And more from :SYSTAC2...%/');
     1189    15307    2   DCL FNUM SBIN;
     1190    15308    2   DCL DCB$ PTR;
     1191    15309    2   DCL N SBIN;
     1192    15310    2   DCL SCODE_ VECTOR;
     1193    15311    2   DCL BLANKS CHAR(0) CONSTANT INIT('    ');
     1194    15312    2   DCL FIT$ PTR;
     1195    15313    2   DCL TYPE CHAR(2);
     1196    15314    2   DCL SYSTAC2_HEAD_FLG BIT(1) ALIGNED;
     1197    15315
     1198    15316
     1199    15317    2           SYSTAC2_HEAD_FLG = '0'B;

  15317 12 004616   200354 450100                    STZ     SYSTAC2_HEAD_FLG,,AUTO

     1200    15318    3           IF TOP.NSUBLKS=0 THEN DO;

  15318 12 004617   200343 470500                    LDP0    @TOP,,AUTO
        12 004620   000001 220100                    LDX0    1,,PR0
        12 004621   004625 601000 12                 TNZ     s:15322

     1201    15319    3              TYPE='??';
PL6.E3A0      #001=DAA$ANLZ File=DAA$ANLZ.:E05TSI                                TUE 07/29/97 12:32 Page:190

  15319 12 004622   000172 222000 2                  LDX2    BLANKS+36
        12 004623   200353 742100                    STX2    TYPE,,AUTO

     1202    15320    3              END;

  15320 12 004624   004667 710000 12                 TRA     s:15336

     1203    15321    3           ELSE DO;

     1204    15322    4              DO CASE(TOP.SUBLK$(0)->OUT.CODE);

  15322 12 004625   000003 471500                    LDP1    3,,PR0
        12 004626   100000 722100                    LXL2    0,,PR1
        12 004627   000003 102003                    CMPX2   3,DU
        12 004630   004632 602012 12                 TNC     s:15322+5,X2
        12 004631   004667 710000 12                 TRA     s:15336
        12 004632   004635 710000 12                 TRA     s:15324
        12 004633   004640 710000 12                 TRA     s:15326
        12 004634   004650 710000 12                 TRA     s:15328

     1205    15323    4               CASE(%DA_LIST_UNASSIGNED);

     1206    15324    4                 TYPE='  ';

  15324 12 004635   000153 223000 2                  LDX3    BLANKS+21
        12 004636   200353 743100                    STX3    TYPE,,AUTO
        12 004637   004667 710000 12                 TRA     s:15336

     1207    15325    4               CASE(%DA_LIST_TYPE);

     1208    15326    4                 TYPE=TOP.SUBLK$(0)->OUT.SUBLK$(0)->SYM.TEXT;

  15326 12 004640   100003 473500                    LDP3    3,,PR1
        12 004641   300004 236100                    LDQ     4,,PR3
        12 004642   000033 772000                    QRL     27
        12 004643   000000 623006                    EAX3    0,QL
PL6.E3A0      #001=DAA$ANLZ File=DAA$ANLZ.:E05TSI                                TUE 07/29/97 12:32 Page:191
        12 004644   040100 100540                    MLR     fill='040'O
        12 004645   300004 200013                    ADSC9   4,,PR3                   cn=1,n=*X3
        12 004646   200353 000002                    ADSC9   TYPE,,AUTO               cn=0,n=2
        12 004647   004667 710000 12                 TRA     s:15336

     1209    15327    4               CASE(%DA_LIST_ME);

     1210    15328    5                 IF SUBSTR(B$JIT.ACCN,3)=B$JIT.HPSN THEN DO;

  15328 12 004650   000000 473400 xsym               LDP3    B$JIT$
        12 004651   040100 106500                    CMPC    fill='040'O
        12 004652   300001 600005                    ADSC9   1,,PR3                   cn=3,n=5
        12 004653   300234 000006                    ADSC9   156,,PR3                 cn=0,n=6
        12 004654   004665 601000 12                 TNZ     s:15332

     1211    15329    5                    CALL CONCAT(TYPE,SUBSTR(B$JIT.ACCN,0,1),SUBSTR(B$JIT.ACCN,2,1));

  15329 12 004655   300001 236100                    LDQ     1,,PR3
        12 004656   777000 376003                    ANQ     -512,DU
        12 004657   000175 276000 13                 ORQ     125
        12 004660   200353 756100                    STQ     TYPE,,AUTO
        12 004661   300001 236100                    LDQ     1,,PR3
        12 004662   000011 736000                    QLS     9
        12 004663   200353 552120                    STBQ    TYPE,'20'O,AUTO

     1212    15330    5                    END;

  15330 12 004664   004667 710000 12                 TRA     s:15336

     1213    15331    5                 ELSE DO;

     1214    15332    5                    TYPE=B$JIT.ACCN;

  15332 12 004665   300001 223100                    LDX3    1,,PR3
        12 004666   200353 743100                    STX3    TYPE,,AUTO

     1215    15333    5                    END;
PL6.E3A0      #001=DAA$ANLZ File=DAA$ANLZ.:E05TSI                                TUE 07/29/97 12:32 Page:192

     1216    15334    4               END;

     1217    15335    3              END;

     1218    15336    2           DCB$=DCBADDR(DCBNUM(M$STAR));

  15336 12 004667   000000 236007 xsym               LDQ     M$STAR,DL
        12 004670   000022 470400 13                 LDP0    18
        12 004671   000000 471500                    LDP1    0,,PR0
        12 004672   100000 236106                    LDQ     0,QL,PR1
        12 004673   200345 756100                    STQ     DCB$,,AUTO

     1219    15337    2           IF SUBSTR(TYPE,0,1)='@' THEN SUBSTR(TYPE,0,1)='?';

  15337 12 004674   200353 236100                    LDQ     TYPE,,AUTO
        12 004675   777000 376003                    ANQ     -512,DU
        12 004676   100000 116003                    CMPQ    32768,DU
        12 004677   004702 601000 12                 TNZ     s:15338

  15337 12 004700   077000 236003                    LDQ     32256,DU
        12 004701   200353 552140                    STBQ    TYPE,'40'O,AUTO

     1220    15338    2           IF TYPE~='?2' THEN DFACCT.ACCT# = ':SYSTAC ';

  15338 12 004702   200353 220100                    LDX0    TYPE,,AUTO
        12 004703   000173 100000 2                  CMPX0   BLANKS+37
        12 004704   005141 600000 12                 TZE     OPEN3

  15338 12 004705   000174 237000 2                  LDAQ    BLANKS+38
        12 004706   002244 757000 1                  STAQ    DFACCT
        12 004707   004710 710000 12                 TRA     OPEN1

     1221    15339    2           ELSE GOTO OPEN3;
     1222    15340    2   OPEN1:  FNUM=0;

  15340 12 004710   200344 450100       OPEN1        STZ     FNUM,,AUTO
PL6.E3A0      #001=DAA$ANLZ File=DAA$ANLZ.:E05TSI                                TUE 07/29/97 12:32 Page:193

     1223    15341    2           OPEN_NEXT.NAME_=VECTOR(DFNAME);

  15341 12 004711   000176 237000 13                 LDAQ    126
        12 004712   002160 757000 1                  STAQ    OPEN_NEXT+6

     1224    15342    2           OPEN_NEXT.FPARAM_=VECTOR(TRAPFRAME);

  15342 12 004713   000200 235000 13                 LDA     128
        12 004714   200362 452500                    STP2    SYSTAC2_HEAD_FLG+6,,AUTO
        12 004715   200362 236100                    LDQ     SYSTAC2_HEAD_FLG+6,,AUTO
        12 004716   000123 036003                    ADLQ    83,DU
        12 004717   002202 757000 1                  STAQ    OPEN_NEXT+24

     1225    15343    3           CALL M$OPEN(OPEN_NEXT) WHENRETURN DO;

  15343 12 004720   002152 630400 1                  EPPR0   OPEN_NEXT
        12 004721   450000 713400                    CLIMB   alt,open
        12 004722   410400 401760                    pmme    nvectors=18
        12 004723   005132 702000 12                 TSX2    s:15381

     1226    15344    3              OPEN_NEXT.NAME_=VECTOR(NIL);

  15344 12 004724   000024 237000 13                 LDAQ    20
        12 004725   002160 757000 1                  STAQ    OPEN_NEXT+6

     1227    15345    4              DO WHILE(SUBSTR(DCB$->F$DCB.NAME#.C,0,3)=DFNAME.NAME#);

  15345 12 004726   005115 710000 12                 TRA     s:15376

     1228    15346    5                 IF DCB$->F$DCB.TYPE#=TYPE OR SUBSTR(TYPE,0,1)='?' THEN DO;

  15346 12 004727   200345 470500                    LDP0    DCB$,,AUTO
        12 004730   000025 720100                    LXL0    21,,PR0
        12 004731   200353 100100                    CMPX0   TYPE,,AUTO
        12 004732   004737 600000 12                 TZE     s:15347
        12 004733   200353 236100                    LDQ     TYPE,,AUTO
PL6.E3A0      #001=DAA$ANLZ File=DAA$ANLZ.:E05TSI                                TUE 07/29/97 12:32 Page:194
        12 004734   777000 376003                    ANQ     -512,DU
        12 004735   077000 116003                    CMPQ    32256,DU
        12 004736   005060 601000 12                 TNZ     OPEN2

     1229    15347    6                    IF SYSTAC2_HEAD_FLG THEN DO;

  15347 12 004737   200354 234100                    SZN     SYSTAC2_HEAD_FLG,,AUTO
        12 004740   004747 605000 12                 TPL     s:15351

     1230    15348    6                       CALL DAF$WRITE (VECTOR(FMT3));

  15348 12 004741   000201 630400 13                 EPPR0   129
        12 004742   000000 220000 xsym               LDX0    DAF$WRITE
        12 004743   000017 631400 xsym               EPPR1   B_VECTNIL+15
        12 004744   000000 701010                    TSX1    0,X0
        12 004745   000000 011000                    NOP     0

     1231    15349    6                       SYSTAC2_HEAD_FLG = '0'B;

  15349 12 004746   200354 450100                    STZ     SYSTAC2_HEAD_FLG,,AUTO

     1232    15350    6                       END;

     1233    15351    5                    FIT$=ADDR(TRAPFRAME);

  15351 12 004747   200123 630500                    EPPR0   TRAPFRAME,,AUTO
        12 004750   200352 450500                    STP0    FIT$,,AUTO

     1234    15352    6                    CALL XSF$LOCCODT(FIT$,10) WHENRETURN DO;

  15352 12 004751   000204 236000 13                 LDQ     132
        12 004752   200363 756100                    STQ     SYSTAC2_HEAD_FLG+7,,AUTO
        12 004753   200352 631500                    EPPR1   FIT$,,AUTO
        12 004754   200362 451500                    STP1    SYSTAC2_HEAD_FLG+6,,AUTO
        12 004755   200362 630500                    EPPR0   SYSTAC2_HEAD_FLG+6,,AUTO
        12 004756   000020 631400 xsym               EPPR1   B_VECTNIL+16
        12 004757   000000 701000 xent               TSX1    XSF$LOCCODT
PL6.E3A0      #001=DAA$ANLZ File=DAA$ANLZ.:E05TSI                                TUE 07/29/97 12:32 Page:195
        12 004760   004775 702000 12                 TSX2    s:15356

     1235    15353    6                       SCODE_=VECTOR(FIT$->CODE10.ACSVEH.T);

  15353 12 004761   200352 470500                    LDP0    FIT$,,AUTO
        12 004762   000100 101500                    MRL     fill='000'O
        12 004763   000000 400001                    ADSC9   0,,PR0                   cn=2,n=1
        12 004764   200362 000002                    ADSC9   SYSTAC2_HEAD_FLG+6,,AUTO cn=0,n=2
        12 004765   200362 220100                    LDX0    SYSTAC2_HEAD_FLG+6,,AUTO
        12 004766   000000 635010                    EAA     0,X0
        12 004767   000002 771000                    ARL     2
        12 004770   000140 135007                    SBLA    96,DL
        12 004771   200352 236100                    LDQ     FIT$,,AUTO
        12 004772   600000 036007                    ADLQ    -65536,DL
        12 004773   200350 757100                    STAQ    SCODE_,,AUTO

     1236    15354    6                       END;

  15354 12 004774   004777 710000 12                 TRA     s:15358

     1237    15355    6                    WHENALTRETURN DO;

     1238    15356    6                       SCODE_=VECTOR(BLANKS);

  15356 12 004775   000206 237000 13                 LDAQ    134
        12 004776   200350 757100                    STAQ    SCODE_,,AUTO

     1239    15357    6                       END;

     1240    15358    5                    N=40+39*FNUM;

  15358 12 004777   200344 236100                    LDQ     FNUM,,AUTO
        12 005000   000047 402007                    MPY     39,DL
        12 005001   000050 036007                    ADLQ    40,DL
        12 005002   200346 756100                    STQ     N,,AUTO

     1241    15359    5                    CALL DAF$WRITE(VECTOR(FMT1),
PL6.E3A0      #001=DAA$ANLZ File=DAA$ANLZ.:E05TSI                                TUE 07/29/97 12:32 Page:196

  15359 12 005003   000202 235000 13                 LDA     130
        12 005004   200345 236100                    LDQ     DCB$,,AUTO
        12 005005   000212 036000 13                 ADLQ    138
        12 005006   200362 757100                    STAQ    SYSTAC2_HEAD_FLG+6,,AUTO
        12 005007   377640 235007                    LDA     130976,DL
        12 005010   200345 236100                    LDQ     DCB$,,AUTO
        12 005011   000104 036000 13                 ADLQ    68
        12 005012   200364 757100                    STAQ    SYSTAC2_HEAD_FLG+8,,AUTO
        12 005013   777640 235007                    LDA     -96,DL
        12 005014   200366 452500                    STP2    SYSTAC2_HEAD_FLG+10,,AUTO
        12 005015   200366 236100                    LDQ     SYSTAC2_HEAD_FLG+10,,AUTO
        12 005016   000346 036003                    ADLQ    230,DU
        12 005017   200372 757100                    STAQ    SYSTAC2_HEAD_FLG+14,,AUTO
        12 005020   200362 237100                    LDAQ    SYSTAC2_HEAD_FLG+6,,AUTO
        12 005021   200370 757100                    STAQ    SYSTAC2_HEAD_FLG+12,,AUTO
        12 005022   200364 237100                    LDAQ    SYSTAC2_HEAD_FLG+8,,AUTO
        12 005023   200374 757100                    STAQ    SYSTAC2_HEAD_FLG+16,,AUTO
        12 005024   200372 237100                    LDAQ    SYSTAC2_HEAD_FLG+14,,AUTO
        12 005025   200376 757100                    STAQ    SYSTAC2_HEAD_FLG+18,,AUTO
        12 005026   200376 630500                    EPPR0   SYSTAC2_HEAD_FLG+18,,AUTO
        12 005027   200404 450500                    STP0    SYSTAC2_HEAD_FLG+24,,AUTO
        12 005030   200374 631500                    EPPR1   SYSTAC2_HEAD_FLG+16,,AUTO
        12 005031   200403 451500                    STP1    SYSTAC2_HEAD_FLG+23,,AUTO
        12 005032   200350 633500                    EPPR3   SCODE_,,AUTO
        12 005033   200402 453500                    STP3    SYSTAC2_HEAD_FLG+22,,AUTO
        12 005034   200370 634500                    EPPR4   SYSTAC2_HEAD_FLG+12,,AUTO
        12 005035   200401 454500                    STP4    SYSTAC2_HEAD_FLG+21,,AUTO
        12 005036   000213 236000 13                 LDQ     139
        12 005037   200400 756100                    STQ     SYSTAC2_HEAD_FLG+20,,AUTO
        12 005040   200400 630500                    EPPR0   SYSTAC2_HEAD_FLG+20,,AUTO
        12 005041   000000 220000 xsym               LDX0    DAF$WRITE
        12 005042   000023 631400 xsym               EPPR1   B_VECTNIL+19
        12 005043   000000 701010                    TSX1    0,X0
        12 005044   000000 011000                    NOP     0

     1242    15360    5                      VECTOR(DCB$->F$DCB.NAME#.C),
PL6.E3A0      #001=DAA$ANLZ File=DAA$ANLZ.:E05TSI                                TUE 07/29/97 12:32 Page:197
     1243    15361    5                      SCODE_,
     1244    15362    5                      VECTOR(DCB$->F$DCB.TYPE#),
     1245    15363    5                      VECTOR(N));
     1246    15364    5                    FNUM=MOD(FNUM+1,2);

  15364 12 005045   200344 236100                    LDQ     FNUM,,AUTO
        12 005046   000001 036007                    ADLQ    1,DL
        12 005047   000002 506007                    DIV     2,DL
        12 005050   200344 755100                    STA     FNUM,,AUTO

     1247    15365    6                    IF FNUM=0 THEN DO;

  15365 12 005051   000000 115003                    CMPA    0,DU
        12 005052   005060 601000 12                 TNZ     OPEN2

     1248    15366    6                       CALL DAF$WRITE(VECTOR(FMT2));

  15366 12 005053   000216 630400 13                 EPPR0   142
        12 005054   000000 220000 xsym               LDX0    DAF$WRITE
        12 005055   000017 631400 xsym               EPPR1   B_VECTNIL+15
        12 005056   000000 701010                    TSX1    0,X0
        12 005057   000000 011000                    NOP     0

     1249    15367    6                       END;

     1250    15368    5                    END;

     1251    15369    5   OPEN2:        CALL M$OPEN(OPEN_NEXT) WHENALTRETURN DO;

  15369 12 005060   002152 630400 1     OPEN2        EPPR0   OPEN_NEXT
        12 005061   450000 713400                    CLIMB   alt,open
        12 005062   410400 401760                    pmme    nvectors=18
        12 005063   005065 702000 12                 TSX2    s:15370
        12 005064   005115 710000 12                 TRA     s:15376

     1252    15370    5                    IF B$TCB$->B$TCB.ALT$->B$ALT.ERR.ERR# = %E$FDEOF THEN GOTO DONE;

PL6.E3A0      #001=DAA$ANLZ File=DAA$ANLZ.:E05TSI                                TUE 07/29/97 12:32 Page:198
  15370 12 005065   000000 470400 xsym               LDP0    B$TCB$
        12 005066   000000 471500                    LDP1    0,,PR0
        12 005067   100102 236100                    LDQ     66,,PR1
        12 005070   377770 376007                    ANQ     131064,DL
        12 005071   001540 116007                    CMPQ    864,DL
        12 005072   005122 600000 12                 TZE     DONE

     1253    15371    5                    IF FNUM=1 THEN CALL DAF$WRITE (VECTOR(FMT2));

  15371 12 005073   200344 235100                    LDA     FNUM,,AUTO
        12 005074   000001 115007                    CMPA    1,DL
        12 005075   005103 601000 12                 TNZ     s:15372

  15371 12 005076   000216 630400 13                 EPPR0   142
        12 005077   000000 220000 xsym               LDX0    DAF$WRITE
        12 005100   000017 631400 xsym               EPPR1   B_VECTNIL+15
        12 005101   000000 701010                    TSX1    0,X0
        12 005102   000000 011000                    NOP     0

     1254    15372    5                    CALL DAA$ERRMSG (B$TCB$->B$TCB.ALT$->B$ALT.ERR);

  15372 12 005103   000000 470400 xsym               LDP0    B$TCB$
        12 005104   000000 471500                    LDP1    0,,PR0
        12 005105   100102 633500                    EPPR3   66,,PR1
        12 005106   200362 453500                    STP3    SYSTAC2_HEAD_FLG+6,,AUTO
        12 005107   200362 630500                    EPPR0   SYSTAC2_HEAD_FLG+6,,AUTO
        12 005110   000017 631400 xsym               EPPR1   B_VECTNIL+15
        12 005111   000000 701000 xent               TSX1    DAA$ERRMSG
        12 005112   000000 011000                    NOP     0

     1255    15373    5                    FNUM=0;

  15373 12 005113   200344 450100                    STZ     FNUM,,AUTO

     1256    15374    5                    GOTO OPEN2;

  15374 12 005114   005060 710000 12                 TRA     OPEN2
PL6.E3A0      #001=DAA$ANLZ File=DAA$ANLZ.:E05TSI                                TUE 07/29/97 12:32 Page:199

     1257    15375    5                    END;
     1258    15376    4                 END;

  15376 12 005115   200345 470500                    LDP0    DCB$,,AUTO
        12 005116   000010 236100                    LDQ     8,,PR0
        12 005117   000110 676000 2                  ERQ     DFNAME
        12 005120   000032 376000 xsym               ANQ     B_VECTNIL+26
        12 005121   004727 600000 12                 TZE     s:15346

     1259    15377    4   DONE:      IF FNUM=1 THEN DO;

  15377 12 005122   200344 235100       DONE         LDA     FNUM,,AUTO
        12 005123   000001 115007                    CMPA    1,DL
        12 005124   005132 601000 12                 TNZ     s:15381

     1260    15378    4                 CALL DAF$WRITE(VECTOR(FMT2));

  15378 12 005125   000216 630400 13                 EPPR0   142
        12 005126   000000 220000 xsym               LDX0    DAF$WRITE
        12 005127   000017 631400 xsym               EPPR1   B_VECTNIL+15
        12 005130   000000 701010                    TSX1    0,X0
        12 005131   000000 011000                    NOP     0

     1261    15379    4                 END;

     1262    15380    3              END;

     1263    15381    2           IF DFACCT.ACCT# = ':SYSTAC' AND TYPE~='?1' THEN

  15381 12 005132   040000 106400                    CMPC    fill='040'O
        12 005133   002244 000010 1                  ADSC9   DFACCT                   cn=0,n=8
        12 005134   000174 000007 2                  ADSC9   BLANKS+38                cn=0,n=7
        12 005135   005147 601000 12                 TNZ     s:15388
        12 005136   200353 220100                    LDX0    TYPE,,AUTO
        12 005137   000176 100000 2                  CMPX0   BLANKS+40
        12 005140   005147 600000 12                 TZE     s:15388
PL6.E3A0      #001=DAA$ANLZ File=DAA$ANLZ.:E05TSI                                TUE 07/29/97 12:32 Page:200

     1264    15382    3           DO;

  15377 12 005141                       OPEN3        null
     1265    15383    3   OPEN3:     ;
     1266    15384    3              DFACCT.ACCT# = ':SYSTAC2';

  15384 12 005141   040000 100400                    MLR     fill='040'O
        12 005142   000177 000010 2                  ADSC9   BLANKS+41                cn=0,n=8
        12 005143   002244 000010 1                  ADSC9   DFACCT                   cn=0,n=8

     1267    15385    3              SYSTAC2_HEAD_FLG = '1'B;

  15385 12 005144   400000 236003                    LDQ     -131072,DU
        12 005145   200354 756100                    STQ     SYSTAC2_HEAD_FLG,,AUTO

     1268    15386    3              GOTO OPEN1;

  15386 12 005146   004710 710000 12                 TRA     OPEN1

     1269    15387    3              END;
     1270    15388    2           RETURN;

  15388 12 005147   200342 221300                    LDX1  ! I,,AUTO
        12 005150   000001 702211                    TSX2  ! 1,X1

     1271    15389
     1272    15390    2   END LIST_DUMPS;
     1273    15391        /**/
     1274    15392    1   END DAA$ANLZ;

  15392 12 005151   000000 702200 xent               TSX2  ! X66_MARET
     1275    15393        %EOD;

PL6.E3A0      #001=DAA$ANLZ File=DAA$ANLZ.:E05TSI                                TUE 07/29/97 12:32 Page:201
--  Include file information  --

   FM$FIT.:E05TOU  is referenced.
   B$JIT.:E05TOU  cannot be made into a system file and is referenced.
   XUH_MACRO_C.:E05TOU  is referenced.
   XU_SUBS_C.:E05TOU  is referenced.
   XU_FORMAT_C.:E05TOU  is referenced.
   XU_PERR_C.:E05TOU  is referenced.
   XU_MACRO_C.:E05TOU  is referenced.
   IR_DATA_M.:E05TOU  is referenced.
   NK_VFC_C.:E05TOU  is referenced.
   CP_6_SUBS.:E05TOU  is referenced.
   CP_6.:E05TOU  cannot be made into a system file and is referenced.
   NI$TABLES.:E05TOU  is referenced.
   B_ERRORS_C.:E05TOU  is referenced.
   B$USER.:E05TOU  cannot be made into a system file and is referenced.
   B$OBJECT_C.:E05TOU  is referenced.
   DA_MONSYM_C.:E05TOU  is referenced.
   DA_TEXTC_C.:E05TOU  is referenced.
   DA_CMD_C.:E05TOU  is referenced.
   DA_PERR_C.:E05TOU  is referenced.
   DA_ANLZ_R.:E05TOU  cannot be made into a system file and is referenced.
   DA_FORMAT_C.:E05TOU  is referenced.
   DA_FORMAT_R.:E05TOU  cannot be made into a system file and is referenced.
   DA_SYMBOLS_R.:E05TOU  cannot be made into a system file and is referenced.
   DA_MAP_R.:E05TOU  cannot be made into a system file and is referenced.
   XUR_ENTRY.:E05TOU  cannot be made into a system file and is referenced.
   XUF_ENTRY.:E05TOU  cannot be made into a system file and is referenced.
   B$JIT_C.:E05TOU  was found in the system file and is referenced.
   CP_6_C.:E05TOU  was found in the system file and is referenced.
      No diagnostics issued in procedure DAA$ANLZ.
PL6.E3A0      #001=DAA$ANLZ File=DAA$ANLZ.:E05TSI                                TUE 07/29/97 12:32 Page:202

 **** Variables and constants ****

  ****  Section 001  Data  DAA$ANLZ

  ****  Scalars and arrays  ****
OctLoc.c.b A Datatyp(siz) R M Lvl/name                 OctLoc.c.b A Datatyp(siz) R M Lvl/name

  1474-0-0/c STRC(171)   r     1 AFILE                    300-0-0/c STRC(45)    r     1 ANLZNAME
    53-0-0/w STRC(288)   r     1 ANLZRPT                   63-0-0/c STRC(45)    r     1 ANLZRPTTX00
    65-0-0/w STRC(288)   r     1 ANLZTRAP                  75-0-0/c STRC(144)   r     1 ANLZTRAPTX00
  1324-0-0/d STRC(1080)  r     1 CHANGE_TYPE             1174-0-0/d STRC(1080)  r     1 CLOSESTAR
     1-0-0/w BIT         r     1 DA_DFLT_SYMBOLS           11-0-0/w STRC(1125)  r     1 DA_HDR
     2-0-0/w UBIN        r     1 DA_OUTDCB               1266-0-0/d STRC(1080)  r     1 DELETE_DUMP
   450-0-0/c STRC(54)    r     1 DELTANAME                  0-0-0/w BIT         r     1 DELTA_OK
  2244-0-0/c STRC(72)    r     1 DFACCT                  1520-0-0/w STRC(1080)  r     1 FDS
   434-0-0/d STRC(360)   r     1 FPT_ALIB                 456-0-0/d STRC(1080)  r     1 FPT_CLOSELO
   642-0-0/d STRC(1080)  r     1 FPT_CLSFPRG              604-0-0/d STRC(1080)  r     1 FPT_CLSSI
   514-0-0/d STRC(360)   r     1 FPT_DEVICE_ME            772-0-0/d STRC(2088)  r     1 FPT_DFLTOPN
  1774-0-0/d STRC(864)   r     1 FPT_FID                 1464-0-0/d STRC(288)   r     1 FPT_FREE
   104-0-0/d STRC(432)   r     1 FPT_HELLO                556-0-0/d STRC(144)   r     1 FPT_INT
   446-0-0/d STRC(72)    r     1 FPT_KILLDELTA            302-0-0/d STRC(432)   r     1 FPT_MONINFO
  1502-0-0/d STRC(288)   r     1 FPT_NODEINFO            1566-0-0/d STRC(2088)  r     1 FPT_OPEN
  2036-0-0/d STRC(2088)  r     1 FPT_OPNFPRG              570-0-0/d STRC(144)   r     1 FPT_PRIV
   600-0-0/d STRC(144)   r     1 FPT_RUE                 1702-0-0/d STRC(2088)  r     1 FPT_SCRUB
   700-0-0/d STRC(2088)  r     1 FPT_SCRUBSI              574-0-0/d STRC(144)   r     1 FPT_SETMSYS
   526-0-0/d STRC(432)   r     1 FPT_TIME                 544-0-0/d STRC(360)   r     1 FPT_TRAP
  1240-0-0/d STRC(792)   r     1 FPT_UNFID                562-0-0/d STRC(216)   r     1 FPT_WAIT
  1454-0-0/d STRC(288)   r     1 FPT_YC                   101-0-0/c CHAR(11)    r     1 HELLO
     3-0-0/w STRC(99)    r     1 MONFID                  1064-0-0/d STRC(2088)  r     1 OPENSTAR
  2152-0-0/d STRC(2088)  r     1 OPEN_NEXT                  6-0-0/c STRC(90)    r     1 PRMPT
   120-0-0/w STRC(504)   r     1 P_PCB                   1156-0-0/d STRC(504)   r     1 READSTAR
  1362-0-0/d STRC(2088)  r     1 REOPEN_DUMP             1235-0-0/c STRC(72)    r     1 STARACCT
  1237-0-0/w STRC        r     1 STARKEY                 1232-0-0/c STRC(90)    r     1 STARNAME
   542-0-0/w UBIN        r     1 TSTMP                   1556-0-0/w STRC(288)   r     1 URRPT
  1660-0-0/c STRC(72)    r     1 VLP_ACCT                2130-0-0/d STRC(612)   r     1 VLP_FPRG
    51-0-0/w STRC(54)    r     1 VLP_HDR                 1662-0-0/c STRC(288)   r     1 VLP_NAME
  1672-0-0/c STRC(72)    r     1 VLP_PASS                1674-0-0/d STRC(90)    r     1 VLP_SN
PL6.E3A0      #001=DAA$ANLZ File=DAA$ANLZ.:E05TSI                                TUE 07/29/97 12:32 Page:203
  1700-0-0/c STRC(72)    r     1 VLP_WSN                 2024-0-0/d STRC(324)   r     1 VLR_FID
   414-0-0/d STRC(540)   r     1 VLR_MONINFO             1512-0-0/d STRC(216)   r     1 VLR_NODEINFO
   316-0-0/d STRC(2232)  r     1 VLR_SITEINFO             206-0-0/d STRC(2052)  r     1 XUH_PARAM
   136-0-0/d STRC(1404)  r     1 XUR_INIT

  ****  Section 002 RoData DAA$ANLZ

  ****  Scalars and arrays  ****
OctLoc.c.b A Datatyp(siz) R M Lvl/name                 OctLoc.c.b A Datatyp(siz) R M Lvl/name

    37-0-0/c CHAR        r     1 ACMDFMT                   50-0-0/c CHAR(16)    r     1 BLAMEFMT
   126-0-0/c CHAR(4)     r     1 BLANKS                   110-0-0/c STRC        r     1 DFNAME
   111-0-0/c CHAR(16)    r     1 FMT1                     115-0-0/c CHAR(4)     r     1 FMT2
   116-0-0/c CHAR(31)    r     1 FMT3
    26-0-0/c CHAR(6)     r     1 FREETEXT(0:5)
   106-0-0/c CHAR(8)     r     1 LSRFMT                    54-0-0/c CHAR(33)    r     1 NODEFMT
    65-0-0/c CHAR(22)    r     1 SELFMT                    25-0-0/c CHAR(4)     r     1 STARFMT
     0-0-0/c CHAR(17)    r     1 TRAPHDR                    5-0-0/c CHAR(19)    r     1 TRAPHDR1
    12-0-0/c CHAR(33)    r     1 TRAPMSG                  101-0-0/c CHAR(18)    r     1 UIDFMT
    73-0-0/c CHAR(21)    r     1 URFMT

  ****  Auto variables  ****

  ****  Scalars and arrays  ****
OctLoc.c.b A Datatyp(siz) R M Lvl/name                 OctLoc.c.b A Datatyp(siz) R M Lvl/name

   344-0-0/w PTR         r     1 @DCB#                    345-0-0/w PTR         r     1 @FUN
   345-0-0/w PTR         r     1 @LSNAME                  344-0-0/w PTR         r     1 @LSR
   347-0-0/w PTR         r     1 @NODENAME                337-0-0/w PTR         r     1 @TOP
   341-0-0/w PTR         r     1 @TOP                     341-0-0/w PTR         r     1 @TOP
   343-0-0/w PTR         r     1 @TOP                     343-0-0/w PTR         r     1 @TOP
   343-0-0/w PTR         r     1 @TOP                     343-0-0/w PTR         r     1 @TOP
   343-0-0/w PTR         r     1 @TOP                      20-0-0/c CHAR(256)   r     1 ANLZTXT
   232-0-0/c CHAR(256)   r     1 CBUF                     120-0-0/c CHAR(8)     r     1 CHAR8
   333-0-0/w PTR         r     1 CMDTBL$                   *0-0-0/w UBIN        r     1 DCB#
   345-0-0/w PTR         r     1 DCB$                      13-0-0/w BIT         r     1 ENDFLG
   352-0-0/w PTR         r     1 FIT$                     344-0-0/w SBIN        r     1 FNUM
PL6.E3A0      #001=DAA$ANLZ File=DAA$ANLZ.:E05TSI                                TUE 07/29/97 12:32 Page:204
   352-0-0/w BIT         r     1 FOUND                     *0-0-0/w UBIN        r     1 FUN
     3-0-0/w SBIN        r     1 I                        342-0-0/w SBIN        r     1 I
   350-0-0/w SBIN        r     1 I                          4-0-0/w SBIN        r     1 J
     6-0-0/w PTR         r     1 JIT$                      *0-0-0/c CHAR(3)     r     1 LSNAME
    *0-0-0/w STRC(72)    r     1 LSR                      122-0-0/w SBIN        r     1 MONISDATABYTES
   346-0-0/w SBIN        r     1 N                         *0-0-0/c CHAR(8)     r     1 NODENAME
   351-0-0/w SBIN        r     1 NODETYPE                   5-0-0/w PTR         r     1 OUT$
    11-0-0/w STRC        r     1 OUTERR                   346-0-0/w STRC        r     1 P
   346-0-0/w PTR         r     1 P$                       230-0-0/w PTR         r     1 PARSENODE$
    15-0-0/w EPTR        r     1 ROUTINE                  346-0-0/b BIT         r     1 RPT
    10-0-0/w SBIN        r     1 RPTCNT                    16-0-0/d REMB        r     1 SAVE_TRTN
    12-0-0/w STRC        r     1 SCODE                    350-0-0/d VECT        r     1 SCODE_
   344-0-0/w UBIN        r     1 SELNODE                  231-0-0/w PTR         r     1 STARTXT$
    14-0-0/w PTR         r     1 SYM$                     345-0-0/w SBIN        r     1 SYSID
   354-0-0/w BIT         r     1 SYSTAC2_HEAD_FLG         332-0-0/w PTR         r     1 T$
    *0-0-0/w STRC(144)   r     1 TOP                       *0-0-0/w STRC(144)   r     1 TOP
    *0-0-0/w STRC(144)   r     1 TOP                       *0-0-0/w STRC(144)   r     1 TOP
    *0-0-0/w STRC(144)   r     1 TOP                       *0-0-0/w STRC(144)   r     1 TOP
    *0-0-0/w STRC(144)   r     1 TOP                       *0-0-0/w STRC(144)   r     1 TOP
    11-0-0/w PTR         r     1 TOP$                     227-0-0/w BIT         r     1 TRAPABRT
   123-0-0/w UBIN        r     1 TRAPFRAME(0:67)
     7-0-0/w SBIN        r     1 TX                       353-0-0/c CHAR(2)     r     1 TYPE
   347-0-0/c STRC(396)   r     1 URTBUF

  ****  SYMREF variables  ****

  ****  Scalars and arrays  ****
OctLoc.c.b A Datatyp(siz) R M Lvl/name                 OctLoc.c.b A Datatyp(siz) R M Lvl/name

     0-0-0/w SBIN        r     1 ANLZ_CMD                   0-0-0/w PTR         r     1 B$IS$
     0-0-0/w PTR         r     1 B$JIT$                     0-0-0/w PTR         r     1 B$TCB$
     0-0-0/w PTR         r     1 B$USRT$                    0-0-0/c STRC(63)    r     1 B_VERSION
     0-0-0/w EPTR        r     1 DAF$WRITE                  0-0-0/w UBIN        r     1 DAF_DCB#
     0-0-0/w STRC        r     1 DA_ANLZERR                 0-0-0/w STRC(72)    r     1 DA_ASR
     0-0-0/w PTR         r     1 DA_CMDTBL$(0:0)
     0-0-0/w SBIN        r     1 DA_CUN                     0-0-0/w BIT         r     1 DA_DELTA_FLG
     0-0-0/w UBIN        r     1 DA_DFLT_RADIX              0-0-0/w SBIN        r     1 DA_DOMAIN
PL6.E3A0      #001=DAA$ANLZ File=DAA$ANLZ.:E05TSI                                TUE 07/29/97 12:32 Page:205
     0-0-0/w BIT         r     1 DA_DUMPFILE                0-0-0/w STRC        r     1 DA_FMTERR
     0-0-0/b BIT         r     1 DA_FMT_NEWCMD              0-0-0/w SBIN        r     1 DA_FMT_TITLEX
     0-0-0/w SBIN        r     1 DA_FMT_TLEN                0-0-0/w STRC(1440)  r     1 DA_HEADREC
     0-0-0/w BIT         r     1 DA_INITIALIZED             0-0-0/w STRC        r     1 DA_MAPERR
     0-0-0/w SBIN        r     1 DA_MAXCHANS                0-0-0/b BIT (72)    r     1 DA_MONISDATA
     0-0-0/w PTR         r     1 DA_NODEDIR$                0-0-0/w STRC(72)    r     1 DA_PSR
     0-0-0/w PTR         r     1 DA_RVBUF$                  0-0-0/b STRC        r     1 DA_SYMERR
     0-0-0/w BIT         r     1 DA_SYSTAC2                 0-0-0/b BIT         r     1 DA_TRAPPED
     0-0-0/d REMB        r     1 DA_TRTN                    0-0-0/w PTR         r     1 DA_XUR$
     0-0-0/w SBIN        r     1 FEPANLZ_CMD

  ****  BASED and DCB variables  ****

  ****  Scalars and arrays  ****
OctLoc.c.b A Datatyp(siz) R M Lvl/name                 OctLoc.c.b A Datatyp(siz) R M Lvl/name

     0-0-0/w STRC(2448)  r     1 B$ALT                      0-0-0/w STRC(2448)  r     1 B$EXCFR
     0-0-0/d STRC(8856)  r     1 B$JIT                      0-0-0/w STRC(144)   r     1 B$TCB
     0-0-0/w STRC(576)   r     1 B$USER(0:0)                0-0-0/w BIT (72)    r     1 BIT72
     0-0-0/w STRC(72)    r     1 CMDTBL                     0-0-0/c ASTR(27)    r     1 CODE10
     0-0-0/d ASTR(3528)  r     1 F$DCB                      0-0-0N  NULL        r     1 F$SYMBOL
     0-0-0N  NULL        r     1 M$DO                       0-0-0N  NULL        r     1 M$DUMPFILE
     0-0-0N  NULL        r     1 M$FPRG                     0-0-0N  NULL        r     1 M$LM
     0-0-0N  NULL        r     1 M$LO                       0-0-0N  NULL        r     1 M$ME
     0-0-0N  NULL        r     1 M$SI                       0-0-0N  NULL        r     1 M$STAR
     0-0-0/c ACHR        r     1 MONISDATA                  0-0-0/w STRC(1224)  r     1 NODEDIR
     0-0-0/w STRC(144)   r     1 OUT                        0-0-0/w UBIN        r     1 PARSENODE
     0-0-0/d STRC(36864) r     1 RVBUFF                     0-0-0/c CHAR(256)   r     1 STARTXT
     0-0-0/w ASTR(153)   r     1 SYM                        0-0-0/c ASTR(9)     r     1 TC
     0-0-0/w STRC(144)   r     1 TOP                        0-0-0/d STRC(2232)  r     1 VLR$SITEINFO


   Procedure DAA$ANLZ requires 2666 words for executable code.
   Procedure DAA$ANLZ requires 264 words of local(AUTO) storage.
PL6.E3A0      #001=DAA$ANLZ File=DAA$ANLZ.:E05TSI                                TUE 07/29/97 12:32 Page:206
          *** CROSS REFERENCE LISTING ***
**     DENOTES     IDENTIFIER DEFINITION
<<                 IDENTIFIER'S VALUE SET
>>                 IDENTIFIER'S VALUE USED
<>                 IDENTIFIER SET AND/OR USED
--                 IDENTIFIER REFERENCED
PL6.E3A0      #001=DAA$ANLZ File=DAA$ANLZ.:E05TSI                                TUE 07/29/97 12:32 Page:207
          MINI XREF LISTING

ACMDFMT
     13080**DCL     13977--CALL
AFILE
     13070**DCL     13880--ASSIGN
AFILE.FID
     13072**DCL     13071--DCLINIT
AFILE.FID.ID
     13075**DCL     13882<<ASSIGN  13890<<CALLBLT 13903<<ASSIGN
AFILE.FID.VERSION
     13074**DCL     13236<<ASSIGN  13889<<ASSIGN  13904<<ASSIGN
AGAIN IN PROCEDURE SELECT_NODE
     14923**LABEL   14980--GOTO
ALT IN PROCEDURE USER_REPORT
     14282**LABEL   14268--CALLALT
ANLZNAME
     11972**DCL     11910--DCLINIT
ANLZRPT
     11212**DCL     13237<>CALL    13310<>CALL
ANLZRPTTX00
     11255**DCL     11242--DCLINIT
ANLZTRAP
     11278**DCL     14030<>CALL
ANLZTRAPTX00
     11321**DCL     11308--DCLINIT
ANLZTXT
     10912**DCL     13254<<ASSIGN  13257<<ASSIGN  13258>>CALLBLT 13259>>IF      13260<<ASSIGN  13263<>CALL
     13263--CALL    13381--ASSIGN  13586--ASSIGN  13598--ASSIGN  14002<<ASSIGN  14004--ASSIGN  14009<<ASSIGN
     14011<<ASSIGN  14012--ASSIGN  14016--ASSIGN
ANLZ_CMD
     13809**PROC    13248--ASSIGN  13566--CALL    13743--CALL    14988--ASSIGN
B$ALT.CODE
     11392**DCL     11392--REDEF   11393--REDEF   11393--REDEF
PL6.E3A0      #001=DAA$ANLZ File=DAA$ANLZ.:E05TSI                                TUE 07/29/97 12:32 Page:208
B$ALT.ERR
     11393**DCL     13507<>CALL    13664<>CALL    13741<>CALL    13778<>CALL    13793<>CALL    13799<>CALL
     14772<>CALL    14975<>CALL    15073<>CALL    15372<>CALL
B$ALT.ERR.ERR#
     11394**DCL     11394--REDEF   15370>>IF
B$ALT.EVID
     11393**DCL     11393--REDEF   11393--REDEF
B$DO.ECCINFO
      4471**DCL      4472--REDEF
B$EXCFR
     11373**DCL     14032>>ASSIGN  14035<>CALL
B$EXCFR.ASL
     11373**DCL     11373--REDEF
B$EXCFR.ERR
     11387**DCL     14037<>CALL
B$EXCFR.ERR.ERR#
     11387**DCL     11387--REDEF
B$EXCFR.EVID
     11386**DCL     11386--REDEF   11387--REDEF
B$EXCFR.IR
     11374**DCL     11374--REDEF
B$EXCFR.PREVSZ
     11373**DCL     11373--REDEF
B$EXCFR.SUBC
     11385**DCL     11385--REDEF   11386--REDEF   11386--REDEF
B$IS$
     10918**DCL     10919--IMP-PTR 13241>>ASSIGN  13968>>ASSIGN
B$JIT.ACCN
     10392**DCL     13761>>IF      13762>>ASSIGN  13765>>CALLBLT 13765>>CALLBLT 14278--CALL    15328>>IF
     15329>>CALLBLT 15329>>CALLBLT 15332>>ASSIGN
B$JIT.CCARS
     10480**DCL     13253>>IF
B$JIT.CCBUF
     10480**DCL     13254>>ASSIGN  13257>>ASSIGN
B$JIT.CCDISP
     10480**DCL     13253>>IF      13257>>ASSIGN
PL6.E3A0      #001=DAA$ANLZ File=DAA$ANLZ.:E05TSI                                TUE 07/29/97 12:32 Page:209
B$JIT.CPFLAGS1
     10481**DCL     13287>>IF
B$JIT.CPFLAGS1.SLEAZE
     10486**DCL     10486--REDEF
B$JIT.ERR.MID
     10393**DCL     10393--REDEF
B$JIT.HPSN
     10560**DCL     13761>>IF      15328>>IF
B$JIT.JRESPEAK
     10554**DCL     10555--REDEF
B$JIT.ORIGINATOR_PORT.FROM_CR
     10663**DCL     10663--REDEF   10664--REDEF
B$JIT.PNR
     10567**DCL     10567--REDEF
B$JIT.PRIV.ACTIVE
     10393**DCL     13652>>IF
B$JIT.SYSID
     10392**DCL     14269>>ASSIGN
B$JIT.TSLINE
     10661**DCL     10662--REDEF
B$JIT.UNAME
     10392**DCL     14278--CALL
B$JIT$
     10377**DCL     10387--IMP-PTR 13253>>IF      13253>>IF      13254>>ASSIGN  13257>>ASSIGN  13257>>ASSIGN
     13287>>IF      13652>>IF      13761>>IF      13761>>IF      13762>>ASSIGN  13765>>CALLBLT 13765>>CALLBLT
     14268<>CALL    15328>>IF      15328>>IF      15329>>CALLBLT 15329>>CALLBLT 15332>>ASSIGN
B$TCB.ALT$
     11370**DCL     13507>>CALL    13664>>CALL    13741>>CALL    13778>>CALL    13793>>CALL    13799>>CALL
     14772>>CALL    14975>>CALL    15073>>CALL    15370>>IF      15372>>CALL
B$TCB.STK$
     11370**DCL     14032>>ASSIGN  14035>>CALL    14037>>CALL
B$TCB$
     11368**DCL     13507>>CALL    13664>>CALL    13741>>CALL    13778>>CALL    13793>>CALL    13799>>CALL
     14032>>ASSIGN  14035>>CALL    14037>>CALL    14772>>CALL    14975>>CALL    15073>>CALL    15370>>IF
     15372>>CALL
B$U.MISC
PL6.E3A0      #001=DAA$ANLZ File=DAA$ANLZ.:E05TSI                                TUE 07/29/97 12:32 Page:210
      4450**DCL      4451--REDEF
B$USER.MISC
      4526**DCL      4527--REDEF
B$USER.SYSID
      4521**DCL     13661>>ASSIGN
B$USRT$
      5881**DCL     13661>>ASSIGN
BADLS IN PROCEDURE SETLSR
     14360**LABEL   14346--CALLALT 14349--CALLALT 14352--CALLALT
BIT72 IN PROCEDURE SETLSR
     14342**DCL     14350>>ASSIGN
BLAMEFMT
     13081**DCL     13979--CALL
BLAME_ERR IN PROCEDURE HOUSEKEEPING
     13778**LABEL   13769--CALLALT 13771--CALLALT
BLANKS IN PROCEDURE LIST_DUMPS
     15311**DCL     15356--ASSIGN
B_VERSION.C
     11336**DCL     13859>>CALLBLT
B_VERSION.L
     11335**DCL     13859>>CALLBLT
CBUF
     13051**DCL     13705<<CALLBLT 13706--ASSIGN  13751<<ASSIGN  13753--ASSIGN  13787<<ASSIGN  13789<<ASSIGN
     13791--ASSIGN  15078--ASSIGN  15079<<ASSIGN  15095--CALL    15096--ASSIGN
CHANGE_TYPE
     12906**DCL     13769<>CALL    13773<>CALL
CHANGE_TYPE.SN_
     12906**DCL     12906--REDEF
CHANGE_TYPE.UTL_
     12907**DCL     12907--REDEF
CHANGE_TYPE.V
     12911**DCL     12906--DCLINIT
CHANGE_TYPE.V.EXPIRE#
     12921**DCL     12921--REDEF
CHANGE_TYPE.V.OPER.CHGATT#
     12912**DCL     13768<<ASSIGN  13772<<ASSIGN
PL6.E3A0      #001=DAA$ANLZ File=DAA$ANLZ.:E05TSI                                TUE 07/29/97 12:32 Page:211
CHANGE_TYPE.V.TYPE#
     12919**DCL     12919--REDEF   13758<<ASSIGN  13762<<ASSIGN  13765<<CALLBLT
CHANGE_TYPE.V.XTNSIZE#
     12916**DCL     12916--REDEF   12918--REDEF
CHAR8
     10913**DCL     14020<<ASSIGN  14021<<ASSIGN  14022<>CALL
CLOSESTAR
     12756**DCL     15089<>CALL    15094<>CALL
CLOSESTAR.SN_
     12756**DCL     12756--REDEF
CLOSESTAR.UTL_
     12757**DCL     12757--REDEF
CLOSESTAR.V
     12761**DCL     12756--DCLINIT
CLOSESTAR.V.EXPIRE#
     12771**DCL     12771--REDEF
CLOSESTAR.V.TYPE#
     12769**DCL     12769--REDEF
CLOSESTAR.V.XTNSIZE#
     12766**DCL     12766--REDEF   12768--REDEF
CMDERR
     13483**PROC    13267--CALL    13292--CALL
CMDTBL.N
     13197**DCL     13398>>IF
CMDTBL.RTN
     13198**DCL     13399>>ASSIGN  13467>>ASSIGN
CMDTBL$
     13195**DCL     13196--IMP-PTR 13396<<ASSIGN  13397>>IF      13398>>IF      13399>>ASSIGN  13462<<ASSIGN
     13467>>ASSIGN
CODE10.ACSVEH.C IN PROCEDURE LIST_DUMPS
     15151**DCL     15151--IMP-SIZ 15353>>ASSIGN
CODE10.ACSVEH.T IN PROCEDURE LIST_DUMPS
     15151**DCL     15353--ASSIGN
COMMAND
     13306**PROC    13264--CALL    13288--CALL
COMMANDT IN PROCEDURE COMMAND
PL6.E3A0      #001=DAA$ANLZ File=DAA$ANLZ.:E05TSI                                TUE 07/29/97 12:32 Page:212
     13312**ENTRY   13277--CALL
CONT IN PROCEDURE USER_REPORT
     14265**LABEL   14263--GOTO
DAA$ABORT
        12**DCL-ENT 11691--DCLINIT
DAA$ERRMSG
        10**DCL-ENT 13269--CALL    13279--CALL    13319--CALL    13405--CALL    13470--CALL    13507--CALL
     13616--CALL    13645--CALL    13664--CALL    13678--CALL    13687--CALL    13741--CALL    13746--CALL
     13778--CALL    13782--CALL    13793--CALL    13799--CALL    13960--CALL    14037--CALL    14040--CALL
     14360--CALL    14952--CALL    14975--CALL    14978--CALL    15000--CALL    15063--CALL    15073--CALL
     15085--CALL    15372--CALL
DAA$LOC
        16**DCL-ENT 14346--CALL
DAA$NXTUSR
        15**DCL-ENT 13464--CALL    13660--CALL
DAA$PARSEU
        17**DCL-ENT 13263--CALL    13285--CALL
DAA$TRAP
        11**DCL-ENT 12200--DCLINIT 12200--DCLINIT 12201--DCLINIT
DAA$VALUE
        13**DCL-ENT 13611--CALL    13625--CALL    13639--CALL
DAB$SSFRAME
        21**DCL-ENT 14035--CALL
DAF$CONTENTS
        25**DCL-ENT 13581--CALL
DAF$INIT
        26**DCL-ENT 13237--CALL    13310--CALL    14030--CALL    14276--CALL
DAF$WRITE
        27**DCL     13714>>CALL    13733>>CALL    13977>>CALL    13979>>CALL    14000>>CALL    14023>>CALL
     14031>>CALL    14034>>CALL    14049>>CALL    14278>>CALL    14357>>CALL    15095>>CALL    15348>>CALL
     15359>>CALL    15366>>CALL    15371>>CALL    15378>>CALL
DAF_DCB#
       136**DCL     13220<<ASSIGN  13223>>ASSIGN  13287<>CALL    13582>>ASSIGN  13693<>CALL    14033--IF
DAM$DUMPFILE
        32**DCL-ENT 13912--CALL
DAM$FREEM
PL6.E3A0      #001=DAA$ANLZ File=DAA$ANLZ.:E05TSI                                TUE 07/29/97 12:32 Page:213
        35**DCL-ENT 14267--CALL
DAM$GETDESC
        30**DCL-ENT 14352--CALL
DAM$INIT
        28**DCL-ENT 14060--CALL
DAM$MAP
        29**DCL-ENT 13954--CALL    14268--CALL    14349--CALL
DAM$RUNNING
        31**DCL-ENT 14058--CALL
DAM$SELECT
        33**DCL-ENT 14942--CALL
DAM$USECPU
        34**DCL-ENT 13640--CALL
DAS$SDMONPTR
        39**DCL-ENT 13953--CALL
DAS$SYMINIT
        36**DCL-ENT 13238--CALL    13576--CALL    13873--CALL    13966--CALL    14990--CALL
DAU$DUMPFRAME
        40**DCL-ENT 13711--CALL
DA_ANLZERR
       390**DCL     13216<<ASSIGN
DA_ASR
       113**DCL     13673<>CALL
DA_CMDTBL$
     13194**DCL     13396>>ASSIGN  13462>>ASSIGN
DA_CUN
       390**DCL     13461<<ASSIGN  13463>>DOWHILE 13476<<ASSIGN  13658<<ASSIGN  13659>>DOWHILE 13661>>ASSIGN
     13668<<ASSIGN  14268<>CALL    14272--CALL
DA_DELTA_FLG
       391**DCL     13379>>IF      13380<<ASSIGN  13585<<ASSIGN  13590<<ASSIGN  13594>>IF      13599<<ASSIGN
     13606>>IF      13608<<ASSIGN  13750>>IF      13755<<ASSIGN  14015>>IF
DA_DFLT_RADIX
       393**DCL     13872<<ASSIGN  14989<<ASSIGN  14993<<ASSIGN  15083>>ASSIGN
DA_DFLT_SYMBOLS
     10914**DCL     13569<<ASSIGN  13573<<ASSIGN  13863<<ASSIGN  13965<<ASSIGN  14990>>IF      14994>>IF
DA_DOMAIN
PL6.E3A0      #001=DAA$ANLZ File=DAA$ANLZ.:E05TSI                                TUE 07/29/97 12:32 Page:214
       390**DCL     13642<<ASSIGN
DA_DUMPFILE
       100**DCL     13644>>IF      13739>>IF      13749>>IF      13971>>IF      14003>>IF      14020>>IF
     14057>>IF      14267>>IF      14934>>IF      15062>>IF
DA_FMTERR
       138**DCL     13218<<ASSIGN
DA_FMTSEG.P
       137**DCL       137--REDEF
DA_FMT_NEWCMD
       137**DCL     13308<<ASSIGN
DA_FMT_TITLEX
       138**DCL     13244<<ASSIGN
DA_FMT_TLEN
       138**DCL     13245<<ASSIGN
DA_HDR.CTL
     11150**DCL     13243<<ASSIGN
DA_HDR.TITLE
     11151**DCL     11177--REDEF   13242--ASSIGN  13244--ASSIGN  13914--ASSIGN  14062--ASSIGN
DA_HDR.TITLE.CTYP
     11155**DCL     13918<<ASSIGN  13920<<ASSIGN  13922<<ASSIGN  13924<<ASSIGN  13926<<ASSIGN  14064<<ASSIGN
DA_HDR.TITLE.DFNAME
     11153**DCL     13948<<ASSIGN  13977--CALL
DA_HDR.TITLE.DT
     11172**DCL     12175--DCLINIT 12176--DCLINIT
DA_HDR.TITLE.DY
     11170**DCL     12178--DCLINIT
DA_HDR.TITLE.L
     11152**DCL     13914<<ASSIGN  14062<<ASSIGN
DA_HDR.TITLE.PG#
     11174**DCL     13242--ASSIGN
DA_HDR.TITLE.RTITLE
     11166**DCL     13244--ASSIGN
DA_HDR.TITLE.SCODE
     11157**DCL     11164--REDEF
DA_HDR.TITLE.SCODE.CODE
     11161**DCL     13942<<CALLBLT
PL6.E3A0      #001=DAA$ANLZ File=DAA$ANLZ.:E05TSI                                TUE 07/29/97 12:32 Page:215
DA_HDR.TITLE.SCODE.D1
     11159**DCL     13937<<ASSIGN
DA_HDR.TITLE.SCODE.D2
     11162**DCL     13943<<ASSIGN
DA_HDR.TITLE.SCODE.FCG
     11158**DCL     13931<<ASSIGN  13933<<ASSIGN  13935<<ASSIGN
DA_HDR.TITLE.SCODE.M
     11160**DCL     13939<<ASSIGN  13941<<ASSIGN
DA_HDR.TITLE.SCODE.SEV
     11163**DCL     13944<<CALLBLT
DA_HDR.TITLE.SCODEA
     11164**DCL     14065<<ASSIGN
DA_HDR.TITLE.SYSTEM
     11176**DCL     13915<<CALLBLT 14063<<CALLBLT
DA_HDR.TITLE.TM
     11168**DCL     12177--DCLINIT 12178--DCLINIT
DA_HDR.TITLEA
     11177**DCL     13913<<ASSIGN  14061<<ASSIGN
DA_HEADREC.VDPGS
     10932**DCL     13240>>ASSIGN  13967>>ASSIGN
DA_INITIALIZED
       100**DCL     14029>>IF      14057>>IF
DA_MAPERR
       109**DCL     13217<<ASSIGN  13874<<ASSIGN
DA_MAPSEG.P
       110**DCL       111--REDEF
DA_MAXCHANS
       393**DCL     13950<<ASSIGN  13952<<ASSIGN  14069<<ASSIGN
DA_MONISDATA
       103**DCL     13241<<ASSIGN  13954<>CALL    13968<<ASSIGN
DA_NODEDIR$
       102**DCL     13135--IMP-PTR 13983>>DOINDEX 13984>>DOCASE  13986>>IF      13987>>ASSIGN  13991>>CALLBLT
     13995>>ASSIGN  14000>>CALL    14020>>ASSIGN  14935>>DOINDEX 14936>>IF      14938>>IF      14939>>ASSIGN
DA_OUTDCB
     10915**DCL     13220>>ASSIGN
DA_PSR
PL6.E3A0      #001=DAA$ANLZ File=DAA$ANLZ.:E05TSI                                TUE 07/29/97 12:32 Page:216
       112**DCL     13675<>CALL
DA_RVBUF$
       102**DCL     13087--IMP-PTR 13915>>CALLBLT 13916>>DOCASE  13928>>ASSIGN  13945>>ASSIGN  13949>>IF
     13977>>CALL    13977>>CALL
DA_SDASN.DESC.TYPE0
        95**DCL        95--REDEF
DA_SYMERR
       124**DCL     13219<<ASSIGN
DA_SYMSEG.P
       123**DCL       124--REDEF
DA_SYSTAC2
       100**DCL     13864<<ASSIGN  13883<<ASSIGN  13891<<ASSIGN  13905<<ASSIGN
DA_TIGRSEG.P
       111**DCL       112--REDEF
DA_TRAPPED
       392**DCL     13275>>IF      14046<<ASSIGN
DA_TRTN
       114**DCL     13229<<REMEMBR 13316<<ASSIGN
DA_XUR$
       392**DCL     13221<>CALL
DBM$SELECT
        42**DCL-ENT 14944--CALL    14983--CALL
DBM$SETSYMBOLS
        37**DCL-ENT 14997--CALL
DCB# IN PROCEDURE SETDCB
     14413**DCL     14367--PROC    14767>>ASSIGN  14768>>ASSIGN  14769--IF      14772<>CALL    14773>>ASSIGN
DCB$ IN PROCEDURE LIST_DUMPS
     15308**DCL     15336<<ASSIGN  15345>>DOWHILE 15346>>IF      15359>>CALL    15359>>CALL
DELETE_DUMP
     12863**DCL     13740<>CALL
DELETE_DUMP.SN_
     12863**DCL     12863--REDEF
DELETE_DUMP.UTL_
     12864**DCL     12864--REDEF
DELETE_DUMP.V
     12868**DCL     12863--DCLINIT
PL6.E3A0      #001=DAA$ANLZ File=DAA$ANLZ.:E05TSI                                TUE 07/29/97 12:32 Page:217
DELETE_DUMP.V.EXPIRE#
     12878**DCL     12878--REDEF
DELETE_DUMP.V.TYPE#
     12876**DCL     12876--REDEF
DELETE_DUMP.V.XTNSIZE#
     12873**DCL     12873--REDEF   12875--REDEF
DELTANAME
     12101**DCL     12057--DCLINIT 12074--DCLINIT
DELTA_OK
     10907**DCL     13379>>IF      13594>>IF      13605<<ASSIGN
DFACCT IN PROCEDURE LIST_DUMPS
     15301**DCL     15224--DCLINIT
DFACCT.ACCT# IN PROCEDURE LIST_DUMPS
     15301**DCL     15338<<ASSIGN  15381>>IF      15384<<ASSIGN
DFNAME IN PROCEDURE LIST_DUMPS
     15288**DCL     15341--ASSIGN
DFNAME.NAME# IN PROCEDURE LIST_DUMPS
     15288**DCL     15345>>DOWHILE
DONE IN PROCEDURE LIST_DUMPS
     15377**LABEL   15370--GOTO
ENDFLG
     10908**DCL     13284>>DOWHILE 13488<<ASSIGN  13579<<ASSIGN  13858>>IF      13862<<ASSIGN
EXEC_CMD
     13329**PROC    13318--CALL
F$DCB.ACCT#
     11415**DCL     13977--CALL    14966>>ASSIGN
F$DCB.ACTPOS
     11431**DCL     11431--REDEF
F$DCB.ARS#
     11405**DCL     11405--REDEF
F$DCB.ASN#
     11420**DCL     13486>>IF
F$DCB.ATTR
     11424**DCL     11425--REDEF
F$DCB.BORROW
     11439**DCL     11439--REDEF   11439--REDEF   11439--REDEF
PL6.E3A0      #001=DAA$ANLZ File=DAA$ANLZ.:E05TSI                                TUE 07/29/97 12:32 Page:218
F$DCB.DCBNAME.L
     11453**DCL     11453--IMP-SIZ
F$DCB.DDEV.IC#
     11411**DCL     13487>>IF
F$DCB.DDEV.UCOUT#
     11412**DCL     14033>>IF
F$DCB.EOMCHAR#
     11409**DCL     11409--REDEF
F$DCB.FCD#
     11418**DCL     13491>>IF      14769>>IF      14967>>IF
F$DCB.FLDID
     11434**DCL     11434--REDEF
F$DCB.FORM$
     11428**DCL     11428--REDEF
F$DCB.FSECT
     11444**DCL     11444--REDEF
F$DCB.FSN#
     11421**DCL     11421--REDEF   11421--REDEF   11422--REDEF
F$DCB.HEADER$
     11427**DCL     11427--REDEF
F$DCB.IXTNSIZE#
     11425**DCL     11425--REDEF
F$DCB.LASTSTA$
     11414**DCL     11414--REDEF
F$DCB.LVL
     11440**DCL     11440--REDEF
F$DCB.NAME#.C
     11415**DCL     11415--REDEF   13948>>ASSIGN  15345>>DOWHILE 15359--CALL
F$DCB.NOEOF
     11437**DCL     11437--REDEF
F$DCB.NRECS#
     11426**DCL     11426--REDEF
F$DCB.NRECX
     11445**DCL     11445--REDEF
F$DCB.OHDR
     11437**DCL     11437--REDEF
PL6.E3A0      #001=DAA$ANLZ File=DAA$ANLZ.:E05TSI                                TUE 07/29/97 12:32 Page:219
F$DCB.ORG#
     11420**DCL     11420--REDEF
F$DCB.PRECNO
     11443**DCL     11443--REDEF
F$DCB.RCSZ
     11449**DCL     11449--REDEF
F$DCB.RES#
     11416**DCL     11416--REDEF
F$DCB.SETX
     11428**DCL     11428--REDEF
F$DCB.TAB$
     11428**DCL     11428--REDEF
F$DCB.TDA
     11442**DCL     11443--REDEF
F$DCB.TYPE#
     11416**DCL     13978>>IF      13979--CALL    15346>>IF      15359--CALL
F$DCB.WSN#
     11416**DCL     11416--REDEF
F$SYMBOL
     13209**DCL     14013>>ASSIGN
FDS IN PROCEDURE USER_REPORT
     14096**DCL     14272<>CALL
FDS.BUFX IN PROCEDURE USER_REPORT
     14120**DCL     14273>>ASSIGN
FDS.BUF_ IN PROCEDURE USER_REPORT
     14113**DCL     14271<<ASSIGN
FEPANLZ_CMD
     11457**DCL     14992--ASSIGN
FIT$ IN PROCEDURE LIST_DUMPS
     15312**DCL     15351<<ASSIGN  15352<>CALL    15353>>ASSIGN  15353>>ASSIGN
FMT1 IN PROCEDURE LIST_DUMPS
     15304**DCL     15359--CALL
FMT2 IN PROCEDURE LIST_DUMPS
     15305**DCL     15366--CALL    15371--CALL    15378--CALL
FMT3 IN PROCEDURE LIST_DUMPS
     15306**DCL     15348--CALL
PL6.E3A0      #001=DAA$ANLZ File=DAA$ANLZ.:E05TSI                                TUE 07/29/97 12:32 Page:220
FNUM IN PROCEDURE LIST_DUMPS
     15307**DCL     15340<<ASSIGN  15358>>ASSIGN  15364<<ASSIGN  15364>>ASSIGN  15365>>IF      15371>>IF
     15373<<ASSIGN  15377>>IF
FOUND IN PROCEDURE SELECT_NODE
     14788**DCL     14928<<ASSIGN  14930<<ASSIGN  14949>>IF      14974>>IF
FPT_ALIB
     12057**DCL     13383<>CALL    13388<>CALL    13588<>CALL    13601<>CALL    13754<>CALL    14018<>CALL
FPT_ALIB.CMD_
     12057**DCL     13381<<ASSIGN  13386<<ASSIGN  13586<<ASSIGN  13595<<ASSIGN  13598<<ASSIGN  13753<<ASSIGN
     14016<<ASSIGN
FPT_ALIB.V
     12058**DCL     12058--DCLINIT
FPT_ALIB.V.RETRN#
     12058**DCL     13382<<ASSIGN  13387<<ASSIGN  13587<<ASSIGN  13593<<ASSIGN  13752<<ASSIGN  14017<<ASSIGN
FPT_CLOSELO
     12127**DCL     13583<>CALL    14770<>CALL    14774<>CALL
FPT_CLOSELO.SN_
     12127**DCL     12127--REDEF
FPT_CLOSELO.UTL_
     12128**DCL     12128--REDEF
FPT_CLOSELO.V
     12132**DCL     12127--DCLINIT
FPT_CLOSELO.V.DCB#
     12133**DCL     13582<<ASSIGN  14768<<ASSIGN
FPT_CLOSELO.V.EXPIRE#
     12142**DCL     12142--REDEF
FPT_CLOSELO.V.TYPE#
     12140**DCL     12140--REDEF
FPT_CLOSELO.V.XTNSIZE#
     12137**DCL     12137--REDEF   12139--REDEF
FPT_CLSFPRG
     12348**DCL     13295<>CALL    14968<>CALL
FPT_CLSFPRG.SN_
     12348**DCL     12348--REDEF
FPT_CLSFPRG.UTL_
     12349**DCL     12349--REDEF
PL6.E3A0      #001=DAA$ANLZ File=DAA$ANLZ.:E05TSI                                TUE 07/29/97 12:32 Page:221
FPT_CLSFPRG.V
     12353**DCL     12348--DCLINIT
FPT_CLSFPRG.V.EXPIRE#
     12363**DCL     12363--REDEF
FPT_CLSFPRG.V.TYPE#
     12361**DCL     12361--REDEF
FPT_CLSFPRG.V.XTNSIZE#
     12358**DCL     12358--REDEF   12360--REDEF
FPT_CLSSI
     12306**DCL     13492<>CALL
FPT_CLSSI.SN_
     12306**DCL     12306--REDEF
FPT_CLSSI.UTL_
     12307**DCL     12307--REDEF
FPT_CLSSI.V
     12311**DCL     12306--DCLINIT
FPT_CLSSI.V.EXPIRE#
     12321**DCL     12321--REDEF
FPT_CLSSI.V.TYPE#
     12319**DCL     12319--REDEF
FPT_CLSSI.V.XTNSIZE#
     12316**DCL     12316--REDEF   12318--REDEF
FPT_DEVICE_ME
     12157**DCL     13232<>CALL
FPT_DEVICE_ME.V
     12158**DCL     12157--DCLINIT
FPT_DFLTOPN
     12541**DCL     13224<>CALL    13226<>CALL
FPT_DFLTOPN.ACSVEH_
     12543**DCL     12544--REDEF
FPT_DFLTOPN.ALTKEYS_
     12549**DCL     12550--REDEF   12550--REDEF
FPT_DFLTOPN.HDR_
     12548**DCL     12549--REDEF
FPT_DFLTOPN.TAB_
     12547**DCL     12548--REDEF
PL6.E3A0      #001=DAA$ANLZ File=DAA$ANLZ.:E05TSI                                TUE 07/29/97 12:32 Page:222
FPT_DFLTOPN.UHL_
     12541**DCL     12542--REDEF   12542--REDEF
FPT_DFLTOPN.V
     12550**DCL     12541--DCLINIT
FPT_DFLTOPN.V.DCB#
     12550**DCL     13223<<ASSIGN  13225<<ASSIGN
FPT_DFLTOPN.V.FSN#
     12581**DCL     12581--REDEF   12581--REDEF
FPT_DFLTOPN.WSN_
     12547**DCL     12547--REDEF
FPT_FID IN PROCEDURE SETDCB
     14731**DCL     14764<>CALL
FPT_FID.TEXTFID_ IN PROCEDURE SETDCB
     14731**DCL     14763<<ASSIGN
FPT_FID.V IN PROCEDURE SETDCB
     14735**DCL     14731--DCLINIT
FPT_FREE
     13065**DCL     13792<>CALL    13798<>CALL
FPT_FREE.CMD_
     13065**DCL     13791<<ASSIGN  13797<<ASSIGN
FPT_FREE.V
     13066**DCL     13065--DCLINIT
FPT_HELLO
     11354**DCL     13860<>CALL
FPT_HELLO.STATION_
     11356**DCL     11356--REDEF
FPT_HELLO.V
     11357**DCL     11354--DCLINIT
FPT_HELLO.V.DVBYTE.VFC#
     11363**DCL     11363--REDEF
FPT_INT
     12222**DCL     13231<>CALL
FPT_INT.V
     12222**DCL     12222--DCLINIT
FPT_KILLDELTA
     12074**DCL     13591<>CALL    13607<>CALL
PL6.E3A0      #001=DAA$ANLZ File=DAA$ANLZ.:E05TSI                                TUE 07/29/97 12:32 Page:223
FPT_MONINFO
     11986**DCL     13235<>CALL    13888<>CALL    14068<>CALL
FPT_NODEINFO
     13175**DCL     13728<>CALL    13994<>CALL    14929<>CALL
FPT_NODEINFO.V
     13175**DCL     13175--DCLINIT
FPT_NODEINFO.V.NODENAME#
     13175**DCL     13718<<ASSIGN  13724<<ASSIGN  13726<<ASSIGN  13992<<ASSIGN  14925<<ASSIGN  14927<<ASSIGN
FPT_NODEINFO.V.NODENUM#
     13176**DCL     13720<<ASSIGN  13993<<ASSIGN
FPT_OPEN IN PROCEDURE SETDCB
     14481**DCL     14771<>CALL
FPT_OPEN.ACSVEH_ IN PROCEDURE SETDCB
     14483**DCL     14484--REDEF
FPT_OPEN.ALTKEYS_ IN PROCEDURE SETDCB
     14489**DCL     14490--REDEF   14490--REDEF
FPT_OPEN.HDR_ IN PROCEDURE SETDCB
     14488**DCL     14489--REDEF
FPT_OPEN.TAB_ IN PROCEDURE SETDCB
     14487**DCL     14488--REDEF
FPT_OPEN.UHL_ IN PROCEDURE SETDCB
     14481**DCL     14482--REDEF   14482--REDEF
FPT_OPEN.V IN PROCEDURE SETDCB
     14490**DCL     14481--DCLINIT
FPT_OPEN.V.ASN# IN PROCEDURE SETDCB
     14500**DCL     14734--DCLINIT
FPT_OPEN.V.DCB# IN PROCEDURE SETDCB
     14490**DCL     14767<<ASSIGN
FPT_OPEN.V.EXIST# IN PROCEDURE SETDCB
     14494**DCL     14766<<ASSIGN
FPT_OPEN.V.FSN# IN PROCEDURE SETDCB
     14521**DCL     14521--REDEF   14521--REDEF
FPT_OPEN.V.FUN# IN PROCEDURE SETDCB
     14500**DCL     14765<<ASSIGN
FPT_OPEN.V.RES# IN PROCEDURE SETDCB
     14505**DCL     14734--DCLINIT
PL6.E3A0      #001=DAA$ANLZ File=DAA$ANLZ.:E05TSI                                TUE 07/29/97 12:32 Page:224
FPT_OPEN.WSN_ IN PROCEDURE SETDCB
     14487**DCL     14487--REDEF
FPT_OPNFPRG IN PROCEDURE SELECT_NODE
     14856**DCL     14970<>CALL    14973<>CALL
FPT_OPNFPRG.ACSVEH_ IN PROCEDURE SELECT_NODE
     14858**DCL     14859--REDEF
FPT_OPNFPRG.ALTKEYS_ IN PROCEDURE SELECT_NODE
     14864**DCL     14865--REDEF   14865--REDEF
FPT_OPNFPRG.HDR_ IN PROCEDURE SELECT_NODE
     14863**DCL     14864--REDEF
FPT_OPNFPRG.TAB_ IN PROCEDURE SELECT_NODE
     14862**DCL     14863--REDEF
FPT_OPNFPRG.UHL_ IN PROCEDURE SELECT_NODE
     14856**DCL     14857--REDEF   14857--REDEF
FPT_OPNFPRG.V IN PROCEDURE SELECT_NODE
     14865**DCL     14856--DCLINIT
FPT_OPNFPRG.V.FSN# IN PROCEDURE SELECT_NODE
     14896**DCL     14896--REDEF   14896--REDEF
FPT_OPNFPRG.V.RES# IN PROCEDURE SELECT_NODE
     14880**DCL     14963<<ASSIGN  14965<<CALLBLT
FPT_OPNFPRG.WSN_ IN PROCEDURE SELECT_NODE
     14862**DCL     14862--REDEF
FPT_PRIV
     12250**DCL     13234<>CALL    13801<>CALL
FPT_PRIV.V
     12250**DCL     12250--DCLINIT
FPT_PRIV.V.PRIV#
     12250**DCL     13233<<ASSIGN  13233>>ASSIGN
FPT_RUE
     12280**DCL     13663<>CALL
FPT_RUE.V
     12280**DCL     12280--DCLINIT
FPT_RUE.V.EVENT#
     12281**DCL     13657<<ASSIGN
FPT_RUE.V.USER#
     12280**DCL     13661<<ASSIGN
PL6.E3A0      #001=DAA$ANLZ File=DAA$ANLZ.:E05TSI                                TUE 07/29/97 12:32 Page:225
FPT_SCRUB IN PROCEDURE SETDCB
     14669**DCL     14775<>CALL
FPT_SCRUB.ACSVEH_ IN PROCEDURE SETDCB
     14671**DCL     14672--REDEF
FPT_SCRUB.ALTKEYS_ IN PROCEDURE SETDCB
     14677**DCL     14678--REDEF   14678--REDEF
FPT_SCRUB.HDR_ IN PROCEDURE SETDCB
     14676**DCL     14677--REDEF
FPT_SCRUB.TAB_ IN PROCEDURE SETDCB
     14675**DCL     14676--REDEF
FPT_SCRUB.UHL_ IN PROCEDURE SETDCB
     14669**DCL     14670--REDEF   14670--REDEF
FPT_SCRUB.V IN PROCEDURE SETDCB
     14678**DCL     14669--DCLINIT
FPT_SCRUB.V.DCB# IN PROCEDURE SETDCB
     14678**DCL     14773<<ASSIGN
FPT_SCRUB.V.FSN# IN PROCEDURE SETDCB
     14709**DCL     14709--REDEF   14709--REDEF
FPT_SCRUB.WSN_ IN PROCEDURE SETDCB
     14675**DCL     14675--REDEF
FPT_SCRUBSI
     12432**DCL     13493<>CALL
FPT_SCRUBSI.ACSVEH_
     12434**DCL     12435--REDEF
FPT_SCRUBSI.ALTKEYS_
     12440**DCL     12441--REDEF   12441--REDEF
FPT_SCRUBSI.HDR_
     12439**DCL     12440--REDEF
FPT_SCRUBSI.TAB_
     12438**DCL     12439--REDEF
FPT_SCRUBSI.UHL_
     12432**DCL     12433--REDEF   12433--REDEF
FPT_SCRUBSI.V
     12441**DCL     12432--DCLINIT
FPT_SCRUBSI.V.FSN#
     12472**DCL     12472--REDEF   12472--REDEF
PL6.E3A0      #001=DAA$ANLZ File=DAA$ANLZ.:E05TSI                                TUE 07/29/97 12:32 Page:226
FPT_SCRUBSI.WSN_
     12438**DCL     12438--REDEF
FPT_SETMSYS
     12265**DCL     13653<>CALL
FPT_SETMSYS.V
     12265**DCL     12265--DCLINIT
FPT_TIME
     12175**DCL     13947<>CALL    14067<>CALL
FPT_TIME.V
     12179**DCL     12175--DCLINIT
FPT_TIME.V.SOURCE#
     12179**DCL     13946<<ASSIGN  14066<<ASSIGN
FPT_TRAP
     12199**DCL     13230<>CALL
FPT_TRAP.V
     12199**DCL     12199--DCLINIT
FPT_UNFID
     12832**DCL     14006<>CALL    14014<>CALL
FPT_UNFID.TEXTFID_
     12832**DCL     14004<<ASSIGN  14012<<ASSIGN
FPT_UNFID.V
     12836**DCL     12832--DCLINIT
FPT_UNFID.V.DCB#
     12836**DCL     14005<<ASSIGN  14013<<ASSIGN
FPT_WAIT
     12236**DCL     13613<>CALL
FPT_WAIT.V
     12237**DCL     12236--DCLINIT
FPT_WAIT.V.UNITS#
     12237**DCL     13612<<ASSIGN
FPT_YC
     13047**DCL     13707<>CALL
FPT_YC.CMD_
     13047**DCL     13706<<ASSIGN
FPT_YC.V
     13048**DCL     13047--DCLINIT
PL6.E3A0      #001=DAA$ANLZ File=DAA$ANLZ.:E05TSI                                TUE 07/29/97 12:32 Page:227
FREETEXT
     13069**DCL     13787>>ASSIGN  13789--ASSIGN
FUN IN PROCEDURE SETDCB
     14414**DCL     14367--PROC    14765>>ASSIGN
HELLO
     11333**DCL     11355--DCLINIT 11356--DCLINIT 13859<<CALLBLT
HOUSEKEEPING
     13516**PROC    13391--CALL
I
     10890**DCL     13258<<CALLBLT 13259>>IF      13260>>ASSIGN  13574<<ASSIGN  13575<<CALLBLT 13576<>CALL
     13611<>CALL    13612>>ASSIGN  13639<>CALL    13640<>CALL    13719<<CALLBLT 13720>>ASSIGN  13730>>ASSIGN
     13868<<DOINDEX 13869>>ASSIGN  13983<<DOINDEX 13984>>DOCASE  13986>>IF      13987>>ASSIGN  13990>>ASSIGN
     13991>>CALLBLT 13995>>ASSIGN  14352<>CALL
I IN PROCEDURE PER_USER
     13459**DCL     13466<<DOINDEX 13467>>ASSIGN  13469>>CALL
I IN PROCEDURE SELECT_NODE
     14786**DCL     14935<<DOINDEX 14936>>IF      14938>>IF      14939>>ASSIGN  14942<>CALL    14944<>CALL
     14964<<ASSIGN  14965>>CALLBLT 14983<>CALL    14996<<ASSIGN  14997<>CALL
J
     10891**DCL     13929<<DOINDEX 13930>>IF      13931>>ASSIGN  13932>>IF      13933>>ASSIGN  13933>>ASSIGN
     13935>>ASSIGN  13935>>ASSIGN  13991<<CALLBLT 13993>>ASSIGN
JIT$
     10893**DCL     14268<>CALL    14269>>ASSIGN  14278>>CALL    14278>>CALL
LIST_DUMPS
     15102**PROC    13785--CALL
LSNAME IN PROCEDURE SETLSR
     14337**DCL     14285--PROC    14357--CALL
LSR IN PROCEDURE SETLSR
     14331**DCL     14285--PROC    14350<<ASSIGN  14352<>CALL    14357--CALL
LSR.BASE IN PROCEDURE SETLSR
     14336**DCL     14353<<ASSIGN  14353>>ASSIGN
LSR.BOUND IN PROCEDURE SETLSR
     14332**DCL     14354<<ASSIGN  14354>>ASSIGN
LSRFMT IN PROCEDURE SETLSR
     14343**DCL     14357--CALL
M$ALIB
PL6.E3A0      #001=DAA$ANLZ File=DAA$ANLZ.:E05TSI                                TUE 07/29/97 12:32 Page:228
      5905**DCL-ENT 13383--CALL    13388--CALL    13588--CALL    13601--CALL    13754--CALL    14018--CALL
M$CLOSE
      5892**DCL-ENT 13295--CALL    13492--CALL    13583--CALL    13740--CALL    13769--CALL    13773--CALL
     14770--CALL    14774--CALL    14968--CALL    15089--CALL    15094--CALL
M$CLRSTK
      5950**DCL-ENT 14047--CALL
M$DEVICE
      5896**DCL-ENT 13232--CALL
M$DLIB
      5905**DCL-ENT 13591--CALL    13607--CALL
M$DO
     13204**DCL     13225>>ASSIGN  13499<>CALL
M$DUMPFILE
     13202**DCL     13948--ASSIGN  13977--CALL    13978--IF      13979--CALL    14005>>ASSIGN
M$FID
      5955**DCL-ENT 14764--CALL
M$FPRG
     13207**DCL     14967--IF
M$INT
      5947**DCL-ENT 13231--CALL
M$LM
     13206**DCL     14966--ASSIGN
M$ME
     13203**DCL     13697<>CALL
M$MONINFO
      5960**DCL-ENT 13235--CALL    13888--CALL    14068--CALL
M$NODEINFO
      5924**DCL-ENT 13728--CALL    13994--CALL    14929--CALL
M$OPEN
      5892**DCL-ENT 13224--CALL    13226--CALL    13493--CALL    13771--CALL    13775--CALL    14771--CALL
     14775--CALL    14970--CALL    14973--CALL    15070--CALL    15072--CALL    15343--CALL    15369--CALL
M$READ
      5893**DCL-ENT 15080--CALL    15082--CALL    15084--CALL
M$RUE
      5958**DCL-ENT 13663--CALL
M$SI
PL6.E3A0      #001=DAA$ANLZ File=DAA$ANLZ.:E05TSI                                TUE 07/29/97 12:32 Page:229
     13201**DCL     13485<>CALL    13486--IF      13487--IF      13491--IF      13701<>CALL
M$SPRIV
      5951**DCL-ENT 13234--CALL    13653--CALL    13801--CALL
M$STAR
     13208**DCL     15336--ASSIGN
M$TIME
      5959**DCL-ENT 13947--CALL    14067--CALL
M$TRAP
      5946**DCL-ENT 13230--CALL
M$UNFID
      5955**DCL-ENT 14006--CALL    14014--CALL
M$WAIT
      5950**DCL-ENT 13613--CALL
M$WRITE
      5893**DCL-ENT 13860--CALL
M$XXX
      5904**DCL-ENT 13300--CALL    14050--CALL
M$YC
      5906**DCL-ENT 13707--CALL    13792--CALL    13798--CALL
MONFID
     11141**DCL     13238<>CALL    13873<>CALL    14990<>CALL
MONISDATA
     10919**DCL     13241--ASSIGN  13968--ASSIGN
MONISDATABYTES
     10917**DCL     10919--IMP-SIZ 13240<<ASSIGN  13241>>ASSIGN  13967<<ASSIGN  13968>>ASSIGN
N IN PROCEDURE LIST_DUMPS
     15309**DCL     15358<<ASSIGN  15359--CALL
NODEDIR
     13135**DCL     14000--CALL
NODEDIR.N
     13135**DCL     13983>>DOINDEX 14935>>DOINDEX 14938>>IF
NODEDIR.NODE.NODENAME
     13135**DCL     13986>>IF      13987<<ASSIGN  13991>>CALLBLT 13995<<ASSIGN  14020>>ASSIGN  14936>>IF
NODEDIR.NODE.TYPE
     13136**DCL     13984>>DOCASE  14939>>ASSIGN
NODEFMT
PL6.E3A0      #001=DAA$ANLZ File=DAA$ANLZ.:E05TSI                                TUE 07/29/97 12:32 Page:230
     13082**DCL     14000--CALL
NODENAME IN PROCEDURE SELECT_NODE
     14784**DCL     14782--PROC    14924>>IF      14927>>ASSIGN  14932>>ASSIGN  14949>>IF      14979<<ASSIGN
NODETYPE IN PROCEDURE SELECT_NODE
     14787**DCL     14923<<ASSIGN  14939<<ASSIGN  14940>>DOCASE  14950<<ASSIGN  14962<<ASSIGN  14986>>DOCASE
OPEN1 IN PROCEDURE LIST_DUMPS
     15340**LABEL   15386--GOTO
OPEN2 IN PROCEDURE LIST_DUMPS
     15369**LABEL   15374--GOTO
OPEN3 IN PROCEDURE LIST_DUMPS
     15377**LABEL   15339--GOTO
OPENSTAR
     12650**DCL     15070<>CALL    15072<>CALL
OPENSTAR.ACCT_
     12654**DCL     15069<<ASSIGN  15071<<ASSIGN
OPENSTAR.ACSVEH_
     12652**DCL     12653--REDEF
OPENSTAR.ALTKEYS_
     12658**DCL     12659--REDEF   12659--REDEF
OPENSTAR.HDR_
     12657**DCL     12658--REDEF
OPENSTAR.TAB_
     12656**DCL     12657--REDEF
OPENSTAR.UHL_
     12650**DCL     12651--REDEF   12651--REDEF
OPENSTAR.V
     12659**DCL     12650--DCLINIT
OPENSTAR.V.FSN#
     12690**DCL     12690--REDEF   12690--REDEF
OPENSTAR.WSN_
     12656**DCL     12656--REDEF
OPEN_NEXT IN PROCEDURE LIST_DUMPS
     15219**DCL     15343<>CALL    15369<>CALL
OPEN_NEXT.ACSVEH_ IN PROCEDURE LIST_DUMPS
     15221**DCL     15222--REDEF
OPEN_NEXT.ALTKEYS_ IN PROCEDURE LIST_DUMPS
PL6.E3A0      #001=DAA$ANLZ File=DAA$ANLZ.:E05TSI                                TUE 07/29/97 12:32 Page:231
     15227**DCL     15228--REDEF   15228--REDEF
OPEN_NEXT.FPARAM_ IN PROCEDURE LIST_DUMPS
     15224**DCL     15342<<ASSIGN
OPEN_NEXT.HDR_ IN PROCEDURE LIST_DUMPS
     15226**DCL     15227--REDEF
OPEN_NEXT.NAME_ IN PROCEDURE LIST_DUMPS
     15220**DCL     15341<<ASSIGN  15344<<ASSIGN
OPEN_NEXT.TAB_ IN PROCEDURE LIST_DUMPS
     15225**DCL     15226--REDEF
OPEN_NEXT.UHL_ IN PROCEDURE LIST_DUMPS
     15219**DCL     15220--REDEF   15220--REDEF
OPEN_NEXT.V IN PROCEDURE LIST_DUMPS
     15228**DCL     15219--DCLINIT
OPEN_NEXT.V.FSN# IN PROCEDURE LIST_DUMPS
     15259**DCL     15259--REDEF   15259--REDEF
OPEN_NEXT.WSN_ IN PROCEDURE LIST_DUMPS
     15225**DCL     15225--REDEF
OUT
     11809**DCL     13318<>CALL    13391<>CALL    13401<>CALL    13464<>CALL    13469<>CALL    13625<>CALL
     13660<>CALL    14346<>CALL
OUT.CODE
     11817**DCL     13398>>IF      13399>>ASSIGN  13467>>ASSIGN  13605>>ASSIGN  13642>>ASSIGN  13657>>ASSIGN
     13787>>ASSIGN  14347>>DOCASE  14766>>ASSIGN  15322>>DOCASE
OUT.NDTYPE
     11812**DCL     13717>>IF
OUT.NSUBLKS
     11821**DCL     13466>>DOINDEX 13788>>IF
OUT.SUBLK$
     11842**DCL     13464>>CALL    13467>>ASSIGN  13469>>CALL    13789>>ASSIGN  13789>>ASSIGN  14346>>CALL
     15326>>ASSIGN  15326>>ASSIGN
OUT$
     10892**DCL     11809--IMP-PTR
OUTERR
     10897**DCL     13485<>CALL    13500<>CALL
OUTERR.CODE
     10900**DCL     13500>>IF
PL6.E3A0      #001=DAA$ANLZ File=DAA$ANLZ.:E05TSI                                TUE 07/29/97 12:32 Page:232
OUTERR.MON
     10899**DCL     13484>>IF
P.OFFSET IN PROCEDURE SETLSR
     14340**DCL     14353>>ASSIGN  14354>>ASSIGN
P$ IN PROCEDURE SETLSR
     14338**DCL     14339--REDEF   14346<>CALL    14349<>CALL    14349<>CALL    14350>>ASSIGN  14352<>CALL
PARSENODE
     11459**DCL     13263<>CALL    13285<>CALL
PARSENODE$
     11458**DCL     11459--IMP-PTR 13248<<ASSIGN  13263>>CALL    13285>>CALL    14988<<ASSIGN  14992<<ASSIGN
PER_USER
     13411**PROC    13393--CALL
PMME_ERR
     13505**PROC    13494--CALL    13602--CALL    13654--CALL    13694--CALL    13698--CALL    13702--CALL
     13708--CALL
PRINT_TRAP
     14028**PROC    13276--CALL
PRMPT
     11145**DCL     13263--CALL    13285--CALL
PRMPT.NODENAME
     11146**DCL     15006<<ASSIGN
P_PCB
     11478**DCL     11694--DCLINIT
READSTAR
     12711**DCL     15080<>CALL    15082<>CALL    15084<>CALL
READSTAR.BUF_
     12713**DCL     15078<<ASSIGN
READSTAR.STATION_
     12714**DCL     12715--REDEF
READSTAR.V
     12715**DCL     12711--DCLINIT
READSTAR.V.DVBYTE.REREAD#
     12726**DCL     12726--REDEF
READSTAR.V.INDX#
     12724**DCL     12724--REDEF
REOPEN_DUMP
PL6.E3A0      #001=DAA$ANLZ File=DAA$ANLZ.:E05TSI                                TUE 07/29/97 12:32 Page:233
     12990**DCL     13771<>CALL    13775<>CALL
REOPEN_DUMP.ACSVEH_
     12992**DCL     12993--REDEF
REOPEN_DUMP.ALTKEYS_
     12998**DCL     12999--REDEF   12999--REDEF
REOPEN_DUMP.HDR_
     12997**DCL     12998--REDEF
REOPEN_DUMP.TAB_
     12996**DCL     12997--REDEF
REOPEN_DUMP.UHL_
     12990**DCL     12991--REDEF   12991--REDEF
REOPEN_DUMP.V
     12999**DCL     12990--DCLINIT
REOPEN_DUMP.V.FSN#
     13030**DCL     13030--REDEF   13030--REDEF
REOPEN_DUMP.V.FUN#
     13009**DCL     13770<<ASSIGN  13774<<ASSIGN
REOPEN_DUMP.WSN_
     12996**DCL     12996--REDEF
ROUTINE
     10910**DCL     13399<<ASSIGN  13400>>IF      13401>>CALL    13467<<ASSIGN  13468>>IF      13469>>CALL
RPT IN PROCEDURE USER_REPORT
     14078**DCL     14262<<ASSIGN  14265<<ASSIGN  14270>>IF
RPTCNT
     10895**DCL     13246<<ASSIGN  13622>>IF      13625<>CALL    13626>>IF      13628<<ASSIGN  13628>>ASSIGN
     13630<<ASSIGN  13634<<ASSIGN  13634>>ASSIGN  13635>>IF
RVBUFF.AMONID.VER
     13102**DCL     13915>>CALLBLT 13949>>IF
RVBUFF.RCODE
     13090**DCL     13928>>ASSIGN  13977--CALL
RVBUFF.RCODE.SEV
     13091**DCL     13916>>DOCASE
RVBUFF.UTS1
     13089**DCL     13945>>ASSIGN  13977--CALL
SAVE_TRTN
     10911**DCL     13228<<REMEMBR 13316>>ASSIGN
PL6.E3A0      #001=DAA$ANLZ File=DAA$ANLZ.:E05TSI                                TUE 07/29/97 12:32 Page:234
SCODE
     10902**DCL     13928<<ASSIGN
SCODE.CODE
     10905**DCL     13942>>CALLBLT
SCODE.FCG
     10903**DCL     13930>>IF      13932>>IF      13933>>ASSIGN  13935>>ASSIGN  15077>>ASSIGN  15077>>ASSIGN
     15077>>ASSIGN
SCODE.MON
     10904**DCL     13938>>IF
SCODE.SEV
     10906**DCL     13944>>CALLBLT
SCODE_ IN PROCEDURE LIST_DUMPS
     15310**DCL     15353<<ASSIGN  15356<<ASSIGN  15359<>CALL
SELECT_NODE
     14782**PROC    13570--CALL    13732--CALL    14022--CALL
SELFMT
     13083**DCL     13714--CALL    13733--CALL    14023--CALL
SELNODE IN PROCEDURE ANLZ_CMD
     13856**DCL     13982<<ASSIGN  13990>>IF      13990<<ASSIGN  13999>>IF      13999<<ASSIGN  14020>>ASSIGN
SETDCB
     14367**PROC    13693--CALL    13697--CALL    13701--CALL
SETLSR
     14285**PROC    13673--CALL    13675--CALL
STARACCT
     12813**DCL     15071--ASSIGN
STARFMT
     12820**DCL     15095--CALL
STARKEY
     12815**DCL     12711--DCLINIT 12712--DCLINIT
STARKEY.K
     12817**DCL     15077<<ASSIGN  15081<<ASSIGN  15081>>ASSIGN  15081>>ASSIGN  15083<<ASSIGN
STARNAME
     12800**DCL     12651--DCLINIT
STARTXT
     12819**DCL     13285<>CALL    13285--CALL
STARTXT$
PL6.E3A0      #001=DAA$ANLZ File=DAA$ANLZ.:E05TSI                                TUE 07/29/97 12:32 Page:235
     12818**DCL     12819--IMP-PTR 13247<<ASSIGN  13285>>CALL    13286<<ASSIGN  13291<<ASSIGN  15096<<ASSIGN
STAR_INFO
     15013**PROC    13737--CALL
SYM.CODE
     11861**DCL     13870>>DOCASE
SYM.COUNT
     11878**DCL     11881--IMP-SIZ 13385>>IF      13386>>ASSIGN  13575>>CALLBLT 13576<>CALL    13705>>CALLBLT
     13719>>CALLBLT 13723>>IF      13726>>ASSIGN  13729>>ASSIGN  13758>>ASSIGN  13789>>ASSIGN  13796>>IF
     13797>>ASSIGN  13875>>IF      13875>>IF      13881>>IF      13882>>ASSIGN  13886>>DOSELCT 13893<<ASSIGN
     13894--ASSIGN  13896<<ASSIGN  13897--ASSIGN  13899<<ASSIGN  13900--ASSIGN  13902>>IF      13903>>ASSIGN
     13904>>ASSIGN  13908--ASSIGN  13966<>CALL    14763>>ASSIGN  15326>>ASSIGN
SYM.TEXT
     11881**DCL     13386--ASSIGN  13575>>CALLBLT 13705>>CALLBLT 13719>>CALLBLT 13723>>IF      13726>>ASSIGN
     13729>>ASSIGN  13758>>ASSIGN  13789>>ASSIGN  13797--ASSIGN  13875>>IF      13875>>IF      13882>>ASSIGN
     13886>>DOSELCT 13903>>ASSIGN  13904>>ASSIGN  14763--ASSIGN  15326>>ASSIGN
SYM.TEXTC$
     11873**DCL     13690>>ASSIGN
SYM$
     10909**DCL     11855--IMP-PTR 13869<<ASSIGN  13870>>DOCASE  13875>>IF      13875>>IF      13875>>IF
     13875>>IF      13881>>IF      13882>>ASSIGN  13882>>ASSIGN  13886>>DOSELCT 13886>>DOSELCT 13893>>ASSIGN
     13894>>ASSIGN  13896>>ASSIGN  13897>>ASSIGN  13899>>ASSIGN  13900>>ASSIGN  13902>>IF      13903>>ASSIGN
     13903>>ASSIGN  13904>>ASSIGN  13904>>ASSIGN  13908>>ASSIGN  13966>>CALL
SYSID IN PROCEDURE USER_REPORT
     14077**DCL     14269<<ASSIGN  14278--CALL
SYSTAC2_HEAD_FLG IN PROCEDURE LIST_DUMPS
     15314**DCL     15317<<ASSIGN  15347>>IF      15349<<ASSIGN  15385<<ASSIGN
T$
     13084**DCL     13880<<ASSIGN  13894<<ASSIGN  13897<<ASSIGN  13900<<ASSIGN  13908<<ASSIGN  13912>>CALL
     13912>>CALL    13953<>CALL    13954<>CALL    13954<>CALL    13955>>ASSIGN
TC
     13077**DCL     13912<>CALL
TC.L
     13078**DCL     13079--IMP-SIZ 13912>>CALL
TOP.NSUBLKS
     11776**DCL     13314>>DOWHILE
TOP.SUBLK$
PL6.E3A0      #001=DAA$ANLZ File=DAA$ANLZ.:E05TSI                                TUE 07/29/97 12:32 Page:236
     11797**DCL     13318>>CALL
TOP IN PROCEDURE ANLZ_CMD
     13817**DCL     13809--PROC
TOP.NSUBLKS IN PROCEDURE ANLZ_CMD
     13829**DCL     13865>>IF      13868>>DOINDEX
TOP.SUBLK$ IN PROCEDURE ANLZ_CMD
     13850**DCL     13869>>ASSIGN
TOP IN PROCEDURE EXEC_CMD
     13337**DCL     13329--PROC    13393<>CALL
TOP.CODE IN PROCEDURE EXEC_CMD
     13345**DCL     13377>>DOCASE  13396>>ASSIGN
TOP.SUBLK$ IN PROCEDURE EXEC_CMD
     13370**DCL     13385>>IF      13386>>ASSIGN  13386>>ASSIGN  13391>>CALL    13398>>IF      13399>>ASSIGN
     13401>>CALL
TOP IN PROCEDURE HOUSEKEEPING
     13524**DCL     13516--PROC    13566<>CALL    13611<>CALL    13639<>CALL    13673<>CALL    13675<>CALL
     13693<>CALL    13697<>CALL    13701<>CALL    13737<>CALL    13743<>CALL    13785<>CALL
TOP.CODE IN PROCEDURE HOUSEKEEPING
     13532**DCL     13564>>DOCASE
TOP.NSUBLKS IN PROCEDURE HOUSEKEEPING
     13536**DCL     13568>>IF      13575>>IF      13623>>IF      13713>>IF      13757>>IF
TOP.SUBLK$ IN PROCEDURE HOUSEKEEPING
     13557**DCL     13575>>CALLBLT 13575>>CALLBLT 13576>>CALL    13605>>ASSIGN  13625>>CALL    13642>>ASSIGN
     13657>>ASSIGN  13660>>CALL    13690>>ASSIGN  13705>>CALLBLT 13705>>CALLBLT 13717>>IF      13719>>CALLBLT
     13719>>CALLBLT 13723>>IF      13723>>IF      13726>>ASSIGN  13726>>ASSIGN  13729>>ASSIGN  13729>>ASSIGN
     13758>>ASSIGN  13758>>ASSIGN  13787>>ASSIGN  13788>>IF      13789>>ASSIGN  13789>>ASSIGN  13796>>IF
     13797>>ASSIGN  13797>>ASSIGN
TOP IN PROCEDURE LIST_DUMPS
     15110**DCL     15102--PROC
TOP.NSUBLKS IN PROCEDURE LIST_DUMPS
     15122**DCL     15318>>IF
TOP.SUBLK$ IN PROCEDURE LIST_DUMPS
     15143**DCL     15322>>DOCASE  15326>>ASSIGN  15326>>ASSIGN
TOP IN PROCEDURE PER_USER
     13419**DCL     13411--PROC
TOP.CODE IN PROCEDURE PER_USER
PL6.E3A0      #001=DAA$ANLZ File=DAA$ANLZ.:E05TSI                                TUE 07/29/97 12:32 Page:237
     13427**DCL     13462>>ASSIGN
TOP.SUBLK$ IN PROCEDURE PER_USER
     13452**DCL     13464>>CALL    13466>>DOINDEX 13467>>ASSIGN  13469>>CALL
TOP IN PROCEDURE SETDCB
     14374**DCL     14367--PROC
TOP.SUBLK$ IN PROCEDURE SETDCB
     14407**DCL     14763>>ASSIGN  14763>>ASSIGN  14766>>ASSIGN
TOP IN PROCEDURE SETLSR
     14292**DCL     14285--PROC
TOP.NSUBLKS IN PROCEDURE SETLSR
     14304**DCL     14345>>IF
TOP.SUBLK$ IN PROCEDURE SETLSR
     14325**DCL     14346>>CALL    14347>>DOCASE
TOP IN PROCEDURE STAR_INFO
     15021**DCL     15013--PROC
TOP$
     10896**DCL     10897--REDEF   11764--IMP-PTR 13263<>CALL    13285<>CALL    13314>>DOWHILE 13318>>CALL
TRAPABRT
     11330**DCL     13227<<ASSIGN  13317<<ASSIGN  14048>>IF      14052<<ASSIGN
TRAPFRAME
     11329**DCL     13711<>CALL    14032<<ASSIGN  15342--ASSIGN  15351--ASSIGN
TRAPHDR
     11327**DCL     14031--CALL
TRAPHDR1
     11328**DCL     14034--CALL
TRAPMSG
     11331**DCL     14049--CALL
TRAPX
     13300**LABEL   13229--REMEMBR
TRAP_RETURN
     13275**LABEL   13228--REMEMBR
TSTMP
     12183**DCL     12179--DCLINIT 13945<<ASSIGN
TX
     10894**DCL     13309<<ASSIGN  13314>>DOWHILE 13315<<ASSIGN  13315>>ASSIGN  13318>>CALL    13615>>IF
     13623<<ASSIGN  13627<<ASSIGN  13635<<ASSIGN
PL6.E3A0      #001=DAA$ANLZ File=DAA$ANLZ.:E05TSI                                TUE 07/29/97 12:32 Page:238
TYPE IN PROCEDURE LIST_DUMPS
     15313**DCL     15319<<ASSIGN  15324<<ASSIGN  15326<<ASSIGN  15329<<CALLBLT 15332<<ASSIGN  15337>>IF
     15337<<ASSIGN  15338>>IF      15346>>IF      15346>>IF      15381>>IF
UIDFMT IN PROCEDURE USER_REPORT
     14076**DCL     14278--CALL
URFMT IN PROCEDURE USER_REPORT
     14075**DCL     14272--CALL
URRPT IN PROCEDURE USER_REPORT
     14212**DCL     14276<>CALL
URRPT.HEAD$ IN PROCEDURE USER_REPORT
     14245**DCL     14275<<ASSIGN
URRPT.TITLE$ IN PROCEDURE USER_REPORT
     14240**DCL     14274<<ASSIGN
URTBUF IN PROCEDURE USER_REPORT
     14079**DCL     14271--ASSIGN  14274--ASSIGN
URTBUF.L IN PROCEDURE USER_REPORT
     14080**DCL     14273<<ASSIGN
USERUNNING
     14056**PROC    13239--CALL    13866--CALL    13877--CALL    13961--CALL
USER_ID IN PROCEDURE USER_REPORT
     14264**ENTRY   13662--CALL
USER_REPORT
     14073**PROC    13465--CALL
VLP_ACCT IN PROCEDURE SETDCB
     14536**DCL     14486--DCLINIT 14732--DCLINIT
VLP_FPRG IN PROCEDURE SELECT_NODE
     14912**DCL     14864--DCLINIT
VLP_FPRG.ACCT# IN PROCEDURE SELECT_NODE
     14918**DCL     14966<<ASSIGN  14972<<ASSIGN
VLP_HDR.CTL
     11190**DCL     13243>>ASSIGN
VLP_HDR.CTL.COUNT#
     11192**DCL     13242<<ASSIGN
VLP_NAME IN PROCEDURE SETDCB
     14563**DCL     14482--DCLINIT 14732--DCLINIT
VLP_PASS IN PROCEDURE SETDCB
PL6.E3A0      #001=DAA$ANLZ File=DAA$ANLZ.:E05TSI                                TUE 07/29/97 12:32 Page:239
     14576**DCL     14483--DCLINIT 14733--DCLINIT
VLP_SN IN PROCEDURE SETDCB
     14589**DCL     14481--DCLINIT 14733--DCLINIT
VLP_WSN IN PROCEDURE SETDCB
     14602**DCL     14487--DCLINIT 14733--DCLINIT
VLR$SITEINFO
     12038**DCL     13955>>ASSIGN
VLR_FID IN PROCEDURE SETDCB
     14754**DCL     14735--DCLINIT
VLR_MONINFO
     12020**DCL     11986--DCLINIT
VLR_MONINFO.NODE_NAME
     12023**DCL     13724>>ASSIGN  13987>>ASSIGN  14925>>ASSIGN  14951>>IF
VLR_MONINFO.SCOUNT#
     12020**DCL     13890>>CALLBLT
VLR_NODEINFO
     13187**DCL     13175--DCLINIT
VLR_NODEINFO.HOST#
     13187**DCL     14949>>IF
VLR_NODEINFO.NODENAME#
     13187**DCL     13570<>CALL    13714--CALL    13729<<ASSIGN  13732<>CALL    13733--CALL    13995>>ASSIGN
     14023--CALL    14932<<ASSIGN  14936>>IF      14951>>IF      15006>>ASSIGN
VLR_NODEINFO.NODENUM#
     13187**DCL     13714--CALL    13730<<ASSIGN  13733--CALL    14023--CALL    14931<<ASSIGN  14964>>ASSIGN
VLR_SITEINFO
     12001**DCL     11986--DCLINIT 13955<<ASSIGN
VLR_SITEINFO.SITE_NAME#
     12001**DCL     13977--CALL
VLR_SITEINFO.VERSION#
     12004**DCL     13236>>ASSIGN  13889>>ASSIGN  14063>>CALLBLT
X$WRITE
        50**DCL-ENT 14272--CALL
XSF$LOCCODT
        43**DCL-ENT 15352--CALL
XTX$ADAPT
     11676**DCL-ENT 11755--DCLINIT
PL6.E3A0      #001=DAA$ANLZ File=DAA$ANLZ.:E05TSI                                TUE 07/29/97 12:32 Page:240
XUH_PARAM
     11906**DCL     13677<>CALL    13686<>CALL    13691<>CALL
XUH_PARAM.HELP$
     11916**DCL     13690<<ASSIGN
XUR$ALLMSG
        78**DCL-ENT 13686--CALL
XUR$BREAK
        71**DCL-ENT 12222--DCLINIT
XUR$CLOSE_DCBS
        70**DCL-ENT 13296--CALL
XUR$DISABLE
        72**DCL-ENT 13222--CALL
XUR$ECHOIF
        61**DCL-ENT 13287--CALL
XUR$ENABLE
        73**DCL-ENT 13249--CALL
XUR$ERRMSG
        67**DCL-ENT 13485--CALL    13500--CALL    14772--CALL
XUR$ERRPTR
        60**DCL-ENT 13499--CALL
XUR$GETCMD
        59**DCL-ENT 13263--CALL    13285--CALL
XUR$HELP
        76**DCL-ENT 13691--CALL
XUR$INIT
        64**DCL-ENT 13221--CALL
XUR$MOREMSG
        77**DCL-ENT 13677--CALL
XUR_INIT
     11681**DCL     13221<>CALL
XUR_INIT.WORKR_
     11695**DCL     11696--REDEF

