PL6.E3A0      #002=DAA$ERRMSG File=DAA$ANLZ.:E05TSI                              TUE 07/29/97 12:36 Page:241
     1276        1        /*T***********************************************************/
     1277        2        /*T*                                                         */
     1278        3        /*T* Copyright (c) Bull HN Information Systems Inc., 1997    */
     1279        4        /*T*                                                         */
     1280        5        /*T***********************************************************/
     1281        6        DAA$ERRMSG: PROC(CODA);
     1282        7    1   DCL 1 CODA ALIGNED,
     1283        8    1         2 FCG BIT(18) UNAL,
     1284        9    1         2 MON BIT(1) UNAL,
     1285       10    1         2 CODE UBIN(14) UNAL,
     1286       11    1         2 SEV UBIN(3) UNAL;
     1287       12        /**/
     1288       13    1   DCL XUR$ERRMSG ENTRY(7) ALTRET;
     1289       14    1   DCL DAF$UPDLNCNT ENTRY;
     1290       15        /**/
     1291       16        %INCLUDE DA_ANLZ_R;
     1292       29        %INCLUDE DA_MAP_R;
     1293       59        %INCLUDE DA_FORMAT_R;
     1294       71        %INCLUDE DA_SYMBOLS_R;
     1295       84        %INCLUDE CP_6;
     1296      165        /**/
     1297      166    1   DCL B$TCB$ PTR SYMREF;
     1298      167        %B$TCB;
     1299      170        %B$ALT;
     1300      178    1   DCL 1 ECODE ALIGNED,
     1301      179    1         2 FCG BIT(18) UNAL,
     1302      180    1         2 MON BIT(1) UNAL,
     1303      181    1         2 CODE UBIN(14) UNAL,
     1304      182    1         2 SEV UBIN(3) UNAL;
     1305      183    1   DCL ERRDCB UBIN;
     1306      184        %EJECT;
PL6.E3A0      #002=DAA$ERRMSG File=DAA$ANLZ.:E05TSI                              TUE 07/29/97 12:36 Page:242
     1307      185    1           ERRDCB=B$TCB$->B$TCB.ALT$->B$ALT.DCB#;
     1308      186    2           IF DA_MAPERR THEN DO;
     1309      187    2              CALL XUR$ERRMSG(DA_MAPERR,ERRDCB);
     1310      188    2              DA_MAPERR='0'B;
     1311      189    2              END;
     1312      190    2           IF DA_FMTERR THEN DO;
     1313      191    2              CALL XUR$ERRMSG(DA_FMTERR,ERRDCB);
     1314      192    2              DA_FMTERR='0'B;
     1315      193    2              END;
     1316      194    2           IF DA_SYMERR THEN DO;
     1317      195    2              CALL XUR$ERRMSG(DA_SYMERR,ERRDCB,,VECTOR(DA_SYMBOL));
     1318      196    2              DA_SYMERR='0'B;
     1319      197    2              END;
     1320      198    2           IF DA_ANLZERR THEN DO;
     1321      199    2              CALL XUR$ERRMSG(DA_ANLZERR,ERRDCB);
     1322      200    2              DA_ANLZERR='0'B;
     1323      201    2              END;
     1324      202    2           IF ADDR(CODA)~=ADDR(NIL) THEN DO;
     1325      203    3              IF CODA.FCG='0'B THEN DO;
     1326      204    3                 ECODE='040101000000'O;
     1327      205    3                 ECODE.CODE=BITBIN(CODA);
     1328      206    3                 END;
     1329      207    3              ELSE DO;
     1330      208    3                 ECODE=CODA;
     1331      209    3                 END;
     1332      210    2              CALL XUR$ERRMSG(ECODE,ERRDCB);
     1333      211    2              END;
     1334      212    1           CALL DAF$UPDLNCNT;
     1335      213    1           RETURN;
     1336      214    1   END DAA$ERRMSG;
     1337      215        %EOD;

PL6.E3A0      #002=DAA$ERRMSG File=DAA$ANLZ.:E05TSI                              TUE 07/29/97 12:36 Page:243
--  Include file information  --

   CP_6.:E05TOU  cannot be made into a system file and is referenced.
   DA_SYMBOLS_R.:E05TOU  cannot be made into a system file and is referenced.
   DA_FORMAT_R.:E05TOU  cannot be made into a system file and is referenced.
   DA_MAP_R.:E05TOU  cannot be made into a system file and is referenced.
   DA_ANLZ_R.:E05TOU  cannot be made into a system file and is referenced.
   B$JIT_C.:E05TOU  was found in the system file and is never referenced.
   CP_6_C.:E05TOU  was found in the system file and is referenced.
      No diagnostics issued in procedure DAA$ERRMSG.

   Procedure DAA$ERRMSG requires 81 words for executable code.
   Procedure DAA$ERRMSG requires 10 words of local(AUTO) storage.

PL6.E3A0      #002=DAA$ERRMSG File=DAA$ANLZ.:E05TSI                              TUE 07/29/97 12:36 Page:244

 Object Unit name= DAA$ERRMSG                                 File name= DAA$ANLZ.:E05TOU
 UTS= JUL 29 '97 12:36:39.08 TUE                              Compiler= PL-6/E31         Sev=      00
 SharedLib= :SHARED_SYSTEM                                    Alt SharedLib=


    ****  Control sections  ****

 Sect   Type Bound  Init  Size OctSiz  Section name(segment info)
    0   DCB   even  none     0      0  M$UC
    1  RoData even  UTS      1      1  DAA$ERRMSG
    2   Proc  even  none    81    121  DAA$ERRMSG
    3  RoData even  none     7      7  DAA$ERRMSG

    ****  Entry defs  ****

                              Check   Calling
                             calling  sequence
  Sect OctLoc Primary Altret sequence   type   Parms  Name
     2      0   yes            yes      Std        1  DAA$ERRMSG

  ****  Entry refs  ****

         Check        Calling
        calling       sequence
Altret sequence SRef   type   Args  Name
 yes     yes           Std       7 XUR$ERRMSG
         yes           Std       0 DAF$UPDLNCNT
                       nStd      0 X66_AUTO_1
                       Std       0 B_CONSPOOL_D
                       nStd      0 X66_ARET
PL6.E3A0      #002=DAA$ERRMSG File=DAA$ANLZ.:E05TSI                              TUE 07/29/97 12:36 Page:245

  ****  Data refs  ****

  Flags:  r = read only, s = secondary
Flgs Name                             Flgs Name                             Flgs Name
     DA_ANLZERR                            DA_MAPERR                             DA_FMTERR
     DA_SYMERR                             DA_SYMBOL                             M$UC
     B$TCB$                                B_VECTNIL

  ****  Segment refs  ****

  Flags:  r = read only, s = secondary
Flgs Name                             Flgs Name                             Flgs Name
     ISSID
PL6.E3A0      #002=DAA$ERRMSG File=DAA$ANLZ.:E05TSI                              TUE 07/29/97 12:36 Page:246


     1276        1        /*T***********************************************************/
     1277        2        /*T*                                                         */
     1278        3        /*T* Copyright (c) Bull HN Information Systems Inc., 1997    */
     1279        4        /*T*                                                         */
     1280        5        /*T***********************************************************/
     1281        6        DAA$ERRMSG: PROC(CODA);

      6  2 000000   000000 700200 xent  DAA$ERRMSG   TSX0  ! X66_AUTO_1
         2 000001   000012 000001                    ZERO    10,1

     1282        7    1   DCL 1 CODA ALIGNED,
     1283        8    1         2 FCG BIT(18) UNAL,
     1284        9    1         2 MON BIT(1) UNAL,
     1285       10    1         2 CODE UBIN(14) UNAL,
     1286       11    1         2 SEV UBIN(3) UNAL;
     1287       12        /**/
     1288       13    1   DCL XUR$ERRMSG ENTRY(7) ALTRET;
     1289       14    1   DCL DAF$UPDLNCNT ENTRY;
     1290       15        /**/
     1291       16        %INCLUDE DA_ANLZ_R;
     1292       29        %INCLUDE DA_MAP_R;
     1293       59        %INCLUDE DA_FORMAT_R;
     1294       71        %INCLUDE DA_SYMBOLS_R;
     1295       84        %INCLUDE CP_6;
     1296      165        /**/
     1297      166    1   DCL B$TCB$ PTR SYMREF;
     1298      167        %B$TCB;
     1299      170        %B$ALT;
     1300      178    1   DCL 1 ECODE ALIGNED,
     1301      179    1         2 FCG BIT(18) UNAL,
     1302      180    1         2 MON BIT(1) UNAL,
     1303      181    1         2 CODE UBIN(14) UNAL,
     1304      182    1         2 SEV UBIN(3) UNAL;
     1305      183    1   DCL ERRDCB UBIN;
     1306      184        %EJECT;
PL6.E3A0      #002=DAA$ERRMSG File=DAA$ANLZ.:E05TSI                              TUE 07/29/97 12:36 Page:247
     1307      185    1           ERRDCB=B$TCB$->B$TCB.ALT$->B$ALT.DCB#;

    185  2 000002   000000 470400 xsym               LDP0    B$TCB$
         2 000003   000000 471500                    LDP1    0,,PR0
         2 000004   100101 235100                    LDA     65,,PR1
         2 000005   200005 755100                    STA     ERRDCB,,AUTO

     1308      186    2           IF DA_MAPERR THEN DO;

    186  2 000006   000000 236000 xsym               LDQ     DA_MAPERR
         2 000007   000021 600000 2                  TZE     s:190

     1309      187    2              CALL XUR$ERRMSG(DA_MAPERR,ERRDCB);

    187  2 000010   200005 631500                    EPPR1   ERRDCB,,AUTO
         2 000011   200007 451500                    STP1    ERRDCB+2,,AUTO
         2 000012   000000 236000 3                  LDQ     0
         2 000013   200006 756100                    STQ     ERRDCB+1,,AUTO
         2 000014   200006 630500                    EPPR0   ERRDCB+1,,AUTO
         2 000015   000020 631400 xsym               EPPR1   B_VECTNIL+16
         2 000016   000000 701000 xent               TSX1    XUR$ERRMSG
         2 000017   000000 011000                    NOP     0

     1310      188    2              DA_MAPERR='0'B;

    188  2 000020   000000 450000 xsym               STZ     DA_MAPERR

     1311      189    2              END;

     1312      190    2           IF DA_FMTERR THEN DO;

    190  2 000021   000000 235000 xsym               LDA     DA_FMTERR
         2 000022   000034 600000 2                  TZE     s:194

     1313      191    2              CALL XUR$ERRMSG(DA_FMTERR,ERRDCB);

    191  2 000023   200005 630500                    EPPR0   ERRDCB,,AUTO
PL6.E3A0      #002=DAA$ERRMSG File=DAA$ANLZ.:E05TSI                              TUE 07/29/97 12:36 Page:248
         2 000024   200007 450500                    STP0    ERRDCB+2,,AUTO
         2 000025   000001 236000 3                  LDQ     1
         2 000026   200006 756100                    STQ     ERRDCB+1,,AUTO
         2 000027   200006 630500                    EPPR0   ERRDCB+1,,AUTO
         2 000030   000020 631400 xsym               EPPR1   B_VECTNIL+16
         2 000031   000000 701000 xent               TSX1    XUR$ERRMSG
         2 000032   000000 011000                    NOP     0

     1314      192    2              DA_FMTERR='0'B;

    192  2 000033   000000 450000 xsym               STZ     DA_FMTERR

     1315      193    2              END;

     1316      194    2           IF DA_SYMERR THEN DO;

    194  2 000034   000000 235000 xsym               LDA     DA_SYMERR
         2 000035   000052 600000 2                  TZE     s:198

     1317      195    2              CALL XUR$ERRMSG(DA_SYMERR,ERRDCB,,VECTOR(DA_SYMBOL));

    195  2 000036   000004 236000 3                  LDQ     4
         2 000037   000001 235000 xsym               LDA     B_VECTNIL+1
         2 000040   200010 757100                    STAQ    ERRDCB+3,,AUTO
         2 000041   200005 630500                    EPPR0   ERRDCB,,AUTO
         2 000042   200007 450500                    STP0    ERRDCB+2,,AUTO
         2 000043   000005 236000 3                  LDQ     5
         2 000044   200006 756100                    STQ     ERRDCB+1,,AUTO
         2 000045   200006 630500                    EPPR0   ERRDCB+1,,AUTO
         2 000046   000022 631400 xsym               EPPR1   B_VECTNIL+18
         2 000047   000000 701000 xent               TSX1    XUR$ERRMSG
         2 000050   000000 011000                    NOP     0

     1318      196    2              DA_SYMERR='0'B;

    196  2 000051   000000 450000 xsym               STZ     DA_SYMERR

PL6.E3A0      #002=DAA$ERRMSG File=DAA$ANLZ.:E05TSI                              TUE 07/29/97 12:36 Page:249
     1319      197    2              END;

     1320      198    2           IF DA_ANLZERR THEN DO;

    198  2 000052   000000 235000 xsym               LDA     DA_ANLZERR
         2 000053   000065 600000 2                  TZE     s:202

     1321      199    2              CALL XUR$ERRMSG(DA_ANLZERR,ERRDCB);

    199  2 000054   200005 630500                    EPPR0   ERRDCB,,AUTO
         2 000055   200007 450500                    STP0    ERRDCB+2,,AUTO
         2 000056   000006 236000 3                  LDQ     6
         2 000057   200006 756100                    STQ     ERRDCB+1,,AUTO
         2 000060   200006 630500                    EPPR0   ERRDCB+1,,AUTO
         2 000061   000020 631400 xsym               EPPR1   B_VECTNIL+16
         2 000062   000000 701000 xent               TSX1    XUR$ERRMSG
         2 000063   000000 011000                    NOP     0

     1322      200    2              DA_ANLZERR='0'B;

    200  2 000064   000000 450000 xsym               STZ     DA_ANLZERR

     1323      201    2              END;

     1324      202    2           IF ADDR(CODA)~=ADDR(NIL) THEN DO;

    202  2 000065   200003 236100                    LDQ     @CODA,,AUTO
         2 000066   000001 116000 xsym               CMPQ    B_VECTNIL+1
         2 000067   000115 600000 2                  TZE     s:212

     1325      203    3              IF CODA.FCG='0'B THEN DO;

    203  2 000070   200003 470500                    LDP0    @CODA,,AUTO
         2 000071   000000 220100                    LDX0    0,,PR0
         2 000072   000103 601000 2                  TNZ     s:208

     1326      204    3                 ECODE='040101000000'O;
PL6.E3A0      #002=DAA$ERRMSG File=DAA$ANLZ.:E05TSI                              TUE 07/29/97 12:36 Page:250

    204  2 000073   000000 236000 1                  LDQ     0
         2 000074   200004 756100                    STQ     ECODE,,AUTO

     1327      205    3                 ECODE.CODE=BITBIN(CODA);

    205  2 000075   000000 236100                    LDQ     0,,PR0
         2 000076   000003 736000                    QLS     3
         2 000077   200004 676100                    ERQ     ECODE,,AUTO
         2 000100   377770 376007                    ANQ     131064,DL
         2 000101   200004 656100                    ERSQ    ECODE,,AUTO

     1328      206    3                 END;

    206  2 000102   000105 710000 2                  TRA     s:210

     1329      207    3              ELSE DO;

     1330      208    3                 ECODE=CODA;

    208  2 000103   000000 236100                    LDQ     0,,PR0
         2 000104   200004 756100                    STQ     ECODE,,AUTO

     1331      209    3                 END;

     1332      210    2              CALL XUR$ERRMSG(ECODE,ERRDCB);

    210  2 000105   200005 631500                    EPPR1   ERRDCB,,AUTO
         2 000106   200007 451500                    STP1    ERRDCB+2,,AUTO
         2 000107   200004 633500                    EPPR3   ECODE,,AUTO
         2 000110   200006 453500                    STP3    ERRDCB+1,,AUTO
         2 000111   200006 630500                    EPPR0   ERRDCB+1,,AUTO
         2 000112   000020 631400 xsym               EPPR1   B_VECTNIL+16
         2 000113   000000 701000 xent               TSX1    XUR$ERRMSG
         2 000114   000000 011000                    NOP     0

     1333      211    2              END;
PL6.E3A0      #002=DAA$ERRMSG File=DAA$ANLZ.:E05TSI                              TUE 07/29/97 12:36 Page:251

     1334      212    1           CALL DAF$UPDLNCNT;

    212  2 000115   000002 631400 xsym               EPPR1   B_VECTNIL+2
         2 000116   000000 701000 xent               TSX1    DAF$UPDLNCNT
         2 000117   000000 011000                    NOP     0

     1335      213    1           RETURN;

    213  2 000120   000000 702200 xent               TSX2  ! X66_ARET
     1336      214    1   END DAA$ERRMSG;
     1337      215        %EOD;

PL6.E3A0      #002=DAA$ERRMSG File=DAA$ANLZ.:E05TSI                              TUE 07/29/97 12:36 Page:252
--  Include file information  --

   CP_6.:E05TOU  cannot be made into a system file and is referenced.
   DA_SYMBOLS_R.:E05TOU  cannot be made into a system file and is referenced.
   DA_FORMAT_R.:E05TOU  cannot be made into a system file and is referenced.
   DA_MAP_R.:E05TOU  cannot be made into a system file and is referenced.
   DA_ANLZ_R.:E05TOU  cannot be made into a system file and is referenced.
   B$JIT_C.:E05TOU  was found in the system file and is never referenced.
   CP_6_C.:E05TOU  was found in the system file and is referenced.
      No diagnostics issued in procedure DAA$ERRMSG.
PL6.E3A0      #002=DAA$ERRMSG File=DAA$ANLZ.:E05TSI                              TUE 07/29/97 12:36 Page:253

 **** Variables and constants ****

  ****  Auto variables  ****

  ****  Scalars and arrays  ****
OctLoc.c.b A Datatyp(siz) R M Lvl/name                 OctLoc.c.b A Datatyp(siz) R M Lvl/name

     3-0-0/w PTR         r     1 @CODA                     *0-0-0/w STRC        r     1 CODA
     4-0-0/w STRC        r     1 ECODE                      5-0-0/w UBIN        r     1 ERRDCB

  ****  SYMREF variables  ****

  ****  Scalars and arrays  ****
OctLoc.c.b A Datatyp(siz) R M Lvl/name                 OctLoc.c.b A Datatyp(siz) R M Lvl/name

     0-0-0/w PTR         r     1 B$TCB$                     0-0-0/w STRC        r     1 DA_ANLZERR
     0-0-0/w STRC        r     1 DA_FMTERR                  0-0-0/w STRC        r     1 DA_MAPERR
     0-0-0/w STRC(288)   r     1 DA_SYMBOL                  0-0-0/b STRC        r     1 DA_SYMERR

  ****  BASED and DCB variables  ****

  ****  Scalars and arrays  ****
OctLoc.c.b A Datatyp(siz) R M Lvl/name                 OctLoc.c.b A Datatyp(siz) R M Lvl/name

     0-0-0/w STRC(2448)  r     1 B$ALT                      0-0-0/w STRC(144)   r     1 B$TCB


   Procedure DAA$ERRMSG requires 81 words for executable code.
   Procedure DAA$ERRMSG requires 10 words of local(AUTO) storage.
PL6.E3A0      #002=DAA$ERRMSG File=DAA$ANLZ.:E05TSI                              TUE 07/29/97 12:36 Page:254
          *** CROSS REFERENCE LISTING ***
**     DENOTES     IDENTIFIER DEFINITION
<<                 IDENTIFIER'S VALUE SET
>>                 IDENTIFIER'S VALUE USED
<>                 IDENTIFIER SET AND/OR USED
--                 IDENTIFIER REFERENCED
PL6.E3A0      #002=DAA$ERRMSG File=DAA$ANLZ.:E05TSI                              TUE 07/29/97 12:36 Page:255
          MINI XREF LISTING

B$ALT.CODE
       172**DCL       172--REDEF     173--REDEF     173--REDEF
B$ALT.DCB#
       173**DCL       185>>ASSIGN
B$ALT.ERR.ERR#
       174**DCL       174--REDEF
B$ALT.EVID
       173**DCL       173--REDEF     173--REDEF
B$TCB.ALT$
       168**DCL       185>>ASSIGN
B$TCB$
       166**DCL       185>>ASSIGN
CODA
         7**DCL         6--PROC      202--IF        205>>ASSIGN    208>>ASSIGN
CODA.FCG
         8**DCL       203>>IF
DAF$UPDLNCNT
        14**DCL-ENT   212--CALL
DA_ANLZERR
        24**DCL       198>>IF        199<>CALL      200<<ASSIGN
DA_FMTERR
        69**DCL       190>>IF        191<>CALL      192<<ASSIGN
DA_FMTSEG.P
        68**DCL        68--REDEF
DA_MAPERR
        53**DCL       186>>IF        187<>CALL      188<<ASSIGN
DA_MAPSEG.P
        54**DCL        55--REDEF
DA_SDASN.DESC.TYPE0
        39**DCL        39--REDEF
DA_SYMBOL
        81**DCL       195--CALL
PL6.E3A0      #002=DAA$ERRMSG File=DAA$ANLZ.:E05TSI                              TUE 07/29/97 12:36 Page:256
DA_SYMERR
        80**DCL       194>>IF        195<>CALL      196<<ASSIGN
DA_SYMSEG.P
        79**DCL        80--REDEF
DA_TIGRSEG.P
        55**DCL        56--REDEF
ECODE
       178**DCL       204<<ASSIGN    208<<ASSIGN    210<>CALL
ECODE.CODE
       181**DCL       205<<ASSIGN
ERRDCB
       183**DCL       185<<ASSIGN    187<>CALL      191<>CALL      195<>CALL      199<>CALL      210<>CALL
XUR$ERRMSG
        13**DCL-ENT   187--CALL      191--CALL      195--CALL      199--CALL      210--CALL

PL6.E3A0      #003=DAA$VALUE File=DAA$ANLZ.:E05TSI                               TUE 07/29/97 12:36 Page:257
     1338        1        /*T***********************************************************/
     1339        2        /*T*                                                         */
     1340        3        /*T* Copyright (c) Bull HN Information Systems Inc., 1997    */
     1341        4        /*T*                                                         */
     1342        5        /*T***********************************************************/
     1343        6        DAA$VALUE: PROC(TOP,VALUE,R) ALTRET;
     1344        7    1   DCL TOP SBIN;
     1345        8    1   DCL VALUE SBIN;
     1346        9    1   DCL R SBIN;
     1347       10        /**/
     1348       11    1   DCL XUR$ERRPTR ENTRY(2) ALTRET;
     1349       12    1   DCL DAA$ERRMSG ENTRY(1);
     1350       13    1   DCL DAA$CUN ENTRY(1) ALTRET;
     1351       14        /**/
     1352       15        %INCLUDE XU_MACRO_C;
     1353     3121        %INCLUDE DA_CMD_C;
     1354     3470        %INCLUDE DA_PERR_C;
     1355     3534        %INCLUDE DA_ANLZ_R;
     1356     3547        %INCLUDE DA_TEXTC_C;
     1357     3578        %INCLUDE DA_MAP_R;
     1358     3608    1   DCL B$JIT$ PTR SYMREF;
     1359     3609        %INCLUDE B$JIT;
     1360     3899        /**/
     1361     3900    1   DCL OUT$ PTR;
     1362     3901        %PARSE$OUT (NAME=OUT,STCLASS="BASED(OUT$)");
     1363     3946        %PARSE$SYM (NAME=SYM,STCLASS="BASED(OUT$)");
     1364     3984    1   DCL NEG BIT(1);
     1365     3985    1   DCL RADIX SBIN;
     1366     3986    1   DCL TEMP SBIN;
     1367     3987    1   DCL I SBIN;
     1368     3988    1   DCL X SBIN;
     1369     3989    1   DCL DIGITS CHAR(0) CONSTANT INIT('0123456789ABCDEFGHIJKLMNOPQRSTUVWXYZ');
     1370     3990    1   DCL M$DO DCB;
     1371     3991        %EJECT;
PL6.E3A0      #003=DAA$VALUE File=DAA$ANLZ.:E05TSI                               TUE 07/29/97 12:36 Page:258
     1372     3992    1           OUT$=ADDR(TOP);
     1373     3993    2           DO WHILE(OUT.CODE~=%DA_NUMBER_CODE AND OUT.NSUBLKS>0);
     1374     3994    2              OUT$=OUT.SUBLK$(0);
     1375     3995    2              END;
     1376     3996    1           OUT$=OUT.SUBLK$(0);
     1377     3997    2           DO CASE(OUT.CODE);
     1378     3998    2            CASE(%DA_NUMERIC_POS);
     1379     3999    2              NEG='0'B;
     1380     4000    2            CASE(%DA_NUMERIC_NEG);
     1381     4001    2              NEG='1'B;
     1382     4002    2            CASE(%DA_NUMERIC_CUN);
     1383     4003    2              CALL DAA$CUN(VALUE);
     1384     4004    2              IF ADDR(R)~=ADDR(NIL) THEN R=8;
     1385     4005    2              RETURN;
     1386     4006    2            CASE(%DA_NUMERIC_ME);
     1387     4007    2              IF NOT DA_DUMPFILE THEN VALUE=B$JIT.USER;
     1388     4008    2              ELSE VALUE=0;
     1389     4009    2              IF ADDR(R)~=ADDR(NIL) THEN R=8;
     1390     4010    2              RETURN;
     1391     4011    2            END;
     1392     4012    1           OUT$=OUT.SUBLK$(0);
     1393     4013    2           IF OUT.CODE=10 THEN DO;
     1394     4014    2              RADIX=10;
     1395     4015    2              CALL CHARBIN(TEMP,SYM.TEXT);
     1396     4016    2              END;
     1397     4017    2           ELSE DO;
     1398     4018    2              RADIX=OUT.CODE;
     1399     4019    2              IF RADIX=0 THEN RADIX=DA_DFLT_RADIX;
     1400     4020    2              TEMP=0;
     1401     4021    3              DO I=0 TO SYM.COUNT-1;
     1402     4022    3                 CALL INDEX(X,SUBSTR(SYM.TEXT,I,1),SUBSTR(DIGITS,0,RADIX)) ALTRET(
              4022                          BAD_DIGIT);
     1403     4023    3                 TEMP=TEMP*RADIX+X;
     1404     4024    3                 END;
     1405     4025    2              END;
     1406     4026    1           IF NEG THEN VALUE=-TEMP;
     1407     4027    1           ELSE VALUE=TEMP;
PL6.E3A0      #003=DAA$VALUE File=DAA$ANLZ.:E05TSI                               TUE 07/29/97 12:36 Page:259
     1408     4028    1           IF ADDR(R)~=ADDR(NIL) THEN R=RADIX;
     1409     4029    1           RETURN;
     1410     4030    1   BAD_DIGIT: ;
     1411     4031    1           TEMP=OUT.CPOS+I;
     1412     4032    1           CALL XUR$ERRPTR(TEMP,DCBNUM(M$DO));
     1413     4033    1           CALL DAA$ERRMSG(%E$DA_BAD_DIGIT);
     1414     4034        /*E*    ERROR:   DAA-E$DA_BAD_DIGIT
     1415     4035                MESSAGE: Bad digit.
     1416     4036                                                                           */
     1417     4037    1           VALUE=0;
     1418     4038    1           IF ADDR(R)~=ADDR(NIL) THEN R=0;
     1419     4039    1           ALTRETURN;
     1420     4040    1   END DAA$VALUE;
     1421     4041        %EOD;

PL6.E3A0      #003=DAA$VALUE File=DAA$ANLZ.:E05TSI                               TUE 07/29/97 12:36 Page:260
--  Include file information  --

   B$JIT.:E05TOU  cannot be made into a system file and is referenced.
   DA_MAP_R.:E05TOU  cannot be made into a system file and is referenced.
   DA_TEXTC_C.:E05TOU  is referenced.
   DA_ANLZ_R.:E05TOU  cannot be made into a system file and is referenced.
   DA_PERR_C.:E05TOU  is referenced.
   DA_CMD_C.:E05TOU  is referenced.
   XU_MACRO_C.:E05TOU  is referenced.
   B$JIT_C.:E05TOU  was found in the system file and is referenced.
   CP_6_C.:E05TOU  was found in the system file and is never referenced.
      No diagnostics issued in procedure DAA$VALUE.

   Procedure DAA$VALUE requires 145 words for executable code.
   Procedure DAA$VALUE requires 16 words of local(AUTO) storage.

PL6.E3A0      #003=DAA$VALUE File=DAA$ANLZ.:E05TSI                               TUE 07/29/97 12:36 Page:261

 Object Unit name= DAA$VALUE                                  File name= DAA$ANLZ.:E05TOU
 UTS= JUL 29 '97 12:36:43.36 TUE                              Compiler= PL-6/E31         Sev=      00
 SharedLib= :SHARED_SYSTEM                                    Alt SharedLib=


    ****  Control sections  ****

 Sect   Type Bound  Init  Size OctSiz  Section name(segment info)
    0  RoData even  UTS      9     11  DAA$VALUE
    1   DCB   even  none     0      0  M$DO
    2   Proc  even  none   145    221  DAA$VALUE
    3  RoData even  none     2      2  DAA$VALUE

    ****  Entry defs  ****

                              Check   Calling
                             calling  sequence
  Sect OctLoc Primary Altret sequence   type   Parms  Name
     2      0   yes    yes     yes      Std        3  DAA$VALUE

  ****  Entry refs  ****

         Check        Calling
        calling       sequence
Altret sequence SRef   type   Args  Name
 yes     yes           Std       1 DAA$CUN
 yes     yes           Std       2 XUR$ERRPTR
         yes           Std       1 DAA$ERRMSG
                       nStd      0 X66_AUTO_3
                       Std       0 B_CONSPOOL_D
                       nStd      0 X66_ARET
                       nStd      0 X66_AALT
PL6.E3A0      #003=DAA$VALUE File=DAA$ANLZ.:E05TSI                               TUE 07/29/97 12:36 Page:262

  ****  Data refs  ****

  Flags:  r = read only, s = secondary
Flgs Name                             Flgs Name                             Flgs Name
     DA_DFLT_RADIX                         DA_DUMPFILE                           B$JIT$
     M$DO                                  B_VECTNIL

  ****  Segment refs  ****

  Flags:  r = read only, s = secondary
Flgs Name                             Flgs Name                             Flgs Name
     ISSID
PL6.E3A0      #003=DAA$VALUE File=DAA$ANLZ.:E05TSI                               TUE 07/29/97 12:36 Page:263


     1338        1        /*T***********************************************************/
     1339        2        /*T*                                                         */
     1340        3        /*T* Copyright (c) Bull HN Information Systems Inc., 1997    */
     1341        4        /*T*                                                         */
     1342        5        /*T***********************************************************/
     1343        6        DAA$VALUE: PROC(TOP,VALUE,R) ALTRET;

      6  2 000000   000000 700200 xent  DAA$VALUE    TSX0  ! X66_AUTO_3
         2 000001   000020 000003                    ZERO    16,3

     1344        7    1   DCL TOP SBIN;
     1345        8    1   DCL VALUE SBIN;
     1346        9    1   DCL R SBIN;
     1347       10        /**/
     1348       11    1   DCL XUR$ERRPTR ENTRY(2) ALTRET;
     1349       12    1   DCL DAA$ERRMSG ENTRY(1);
     1350       13    1   DCL DAA$CUN ENTRY(1) ALTRET;
     1351       14        /**/
     1352       15        %INCLUDE XU_MACRO_C;
     1353     3121        %INCLUDE DA_CMD_C;
     1354     3470        %INCLUDE DA_PERR_C;
     1355     3534        %INCLUDE DA_ANLZ_R;
     1356     3547        %INCLUDE DA_TEXTC_C;
     1357     3578        %INCLUDE DA_MAP_R;
     1358     3608    1   DCL B$JIT$ PTR SYMREF;
     1359     3609        %INCLUDE B$JIT;
     1360     3899        /**/
     1361     3900    1   DCL OUT$ PTR;
     1362     3901        %PARSE$OUT (NAME=OUT,STCLASS="BASED(OUT$)");
     1363     3946        %PARSE$SYM (NAME=SYM,STCLASS="BASED(OUT$)");
     1364     3984    1   DCL NEG BIT(1);
     1365     3985    1   DCL RADIX SBIN;
     1366     3986    1   DCL TEMP SBIN;
     1367     3987    1   DCL I SBIN;
     1368     3988    1   DCL X SBIN;
     1369     3989    1   DCL DIGITS CHAR(0) CONSTANT INIT('0123456789ABCDEFGHIJKLMNOPQRSTUVWXYZ');
PL6.E3A0      #003=DAA$VALUE File=DAA$ANLZ.:E05TSI                               TUE 07/29/97 12:36 Page:264
     1370     3990    1   DCL M$DO DCB;
     1371     3991        %EJECT;
PL6.E3A0      #003=DAA$VALUE File=DAA$ANLZ.:E05TSI                               TUE 07/29/97 12:36 Page:265
     1372     3992    1           OUT$=ADDR(TOP);

   3992  2 000002   200003 236100                    LDQ     @TOP,,AUTO
         2 000003   200006 756100                    STQ     OUT$,,AUTO

     1373     3993    2           DO WHILE(OUT.CODE~=%DA_NUMBER_CODE AND OUT.NSUBLKS>0);

   3993  2 000004   000010 710000 2                  TRA     s:3995

     1374     3994    2              OUT$=OUT.SUBLK$(0);

   3994  2 000005   200006 470500                    LDP0    OUT$,,AUTO
         2 000006   000003 236100                    LDQ     3,,PR0
         2 000007   200006 756100                    STQ     OUT$,,AUTO

     1375     3995    2              END;

   3995  2 000010   200006 470500                    LDP0    OUT$,,AUTO
         2 000011   000000 720100                    LXL0    0,,PR0
         2 000012   000765 100003                    CMPX0   501,DU
         2 000013   000016 600000 2                  TZE     s:3996
         2 000014   000001 221100                    LDX1    1,,PR0
         2 000015   000005 601000 2                  TNZ     s:3994

     1376     3996    1           OUT$=OUT.SUBLK$(0);

   3996  2 000016   000003 236100                    LDQ     3,,PR0
         2 000017   200006 756100                    STQ     OUT$,,AUTO

     1377     3997    2           DO CASE(OUT.CODE);

   3997  2 000020   200006 470500                    LDP0    OUT$,,AUTO
         2 000021   000000 720100                    LXL0    0,,PR0
         2 000022   000005 100003                    CMPX0   5,DU
         2 000023   000025 602010 2                  TNC     s:3997+5,X0
         2 000024   000074 710000 2                  TRA     s:4012
         2 000025   000074 710000 2                  TRA     s:4012
PL6.E3A0      #003=DAA$VALUE File=DAA$ANLZ.:E05TSI                               TUE 07/29/97 12:36 Page:266
         2 000026   000032 710000 2                  TRA     s:3999
         2 000027   000034 710000 2                  TRA     s:4001
         2 000030   000037 710000 2                  TRA     s:4003
         2 000031   000052 710000 2                  TRA     s:4007

     1378     3998    2            CASE(%DA_NUMERIC_POS);

     1379     3999    2              NEG='0'B;

   3999  2 000032   200007 450100                    STZ     NEG,,AUTO
         2 000033   000074 710000 2                  TRA     s:4012

     1380     4000    2            CASE(%DA_NUMERIC_NEG);

     1381     4001    2              NEG='1'B;

   4001  2 000034   400000 236003                    LDQ     -131072,DU
         2 000035   200007 756100                    STQ     NEG,,AUTO
         2 000036   000074 710000 2                  TRA     s:4012

     1382     4002    2            CASE(%DA_NUMERIC_CUN);

     1383     4003    2              CALL DAA$CUN(VALUE);

   4003  2 000037   200004 630500                    EPPR0   @VALUE,,AUTO
         2 000040   000017 631400 xsym               EPPR1   B_VECTNIL+15
         2 000041   000000 701000 xent               TSX1    DAA$CUN
         2 000042   000000 011000                    NOP     0

     1384     4004    2              IF ADDR(R)~=ADDR(NIL) THEN R=8;

   4004  2 000043   200005 236100                    LDQ     @R,,AUTO
         2 000044   000001 116000 xsym               CMPQ    B_VECTNIL+1
         2 000045   000051 600000 2                  TZE     s:4005

   4004  2 000046   000010 235007                    LDA     8,DL
         2 000047   200005 470500                    LDP0    @R,,AUTO
PL6.E3A0      #003=DAA$VALUE File=DAA$ANLZ.:E05TSI                               TUE 07/29/97 12:36 Page:267
         2 000050   000000 755100                    STA     0,,PR0

     1385     4005    2              RETURN;

   4005  2 000051   000000 702200 xent               TSX2  ! X66_ARET

     1386     4006    2            CASE(%DA_NUMERIC_ME);

     1387     4007    2              IF NOT DA_DUMPFILE THEN VALUE=B$JIT.USER;

   4007  2 000052   000000 234000 xsym               SZN     DA_DUMPFILE
         2 000053   000063 604000 2                  TMI     s:4008

   4007  2 000054   000000 471400 xsym               LDP1    B$JIT$
         2 000055   100000 236100                    LDQ     0,,PR1
         2 000056   000022 772000                    QRL     18
         2 000057   000777 376007                    ANQ     511,DL
         2 000060   200004 473500                    LDP3    @VALUE,,AUTO
         2 000061   300000 756100                    STQ     0,,PR3
         2 000062   000065 710000 2                  TRA     s:4009

     1388     4008    2              ELSE VALUE=0;

   4008  2 000063   200004 471500                    LDP1    @VALUE,,AUTO
         2 000064   100000 450100                    STZ     0,,PR1

     1389     4009    2              IF ADDR(R)~=ADDR(NIL) THEN R=8;

   4009  2 000065   200005 236100                    LDQ     @R,,AUTO
         2 000066   000001 116000 xsym               CMPQ    B_VECTNIL+1
         2 000067   000073 600000 2                  TZE     s:4010

   4009  2 000070   000010 235007                    LDA     8,DL
         2 000071   200005 471500                    LDP1    @R,,AUTO
         2 000072   100000 755100                    STA     0,,PR1

     1390     4010    2              RETURN;
PL6.E3A0      #003=DAA$VALUE File=DAA$ANLZ.:E05TSI                               TUE 07/29/97 12:36 Page:268

   4010  2 000073   000000 702200 xent               TSX2  ! X66_ARET

     1391     4011    2            END;

     1392     4012    1           OUT$=OUT.SUBLK$(0);

   4012  2 000074   000003 236100                    LDQ     3,,PR0
         2 000075   200006 756100                    STQ     OUT$,,AUTO

     1393     4013    2           IF OUT.CODE=10 THEN DO;

   4013  2 000076   200006 470500                    LDP0    OUT$,,AUTO
         2 000077   000000 720100                    LXL0    0,,PR0
         2 000100   000012 100003                    CMPX0   10,DU
         2 000101   000113 601000 2                  TNZ     s:4018

     1394     4014    2              RADIX=10;

   4014  2 000102   000012 235007                    LDA     10,DL
         2 000103   200010 755100                    STA     RADIX,,AUTO

     1395     4015    2              CALL CHARBIN(TEMP,SYM.TEXT);

   4015  2 000104   000004 236100                    LDQ     4,,PR0
         2 000105   000033 772000                    QRL     27
         2 000106   000000 621006                    EAX1    0,QL
         2 000107   000100 305540                    DTB
         2 000110   000004 230011                    NDSC9   4,,PR0                   cn=1,s=nosgn,sf=0,n=*X1
         2 000111   200011 000004                    NDSC9   TEMP,,AUTO               cn=0,s=lsgnf,sf=0,n=4

     1396     4016    2              END;

   4016  2 000112   000147 710000 2                  TRA     s:4026

     1397     4017    2           ELSE DO;

PL6.E3A0      #003=DAA$VALUE File=DAA$ANLZ.:E05TSI                               TUE 07/29/97 12:36 Page:269
     1398     4018    2              RADIX=OUT.CODE;

   4018  2 000113   000000 236100                    LDQ     0,,PR0
         2 000114   777777 376007                    ANQ     -1,DL
         2 000115   200010 756100                    STQ     RADIX,,AUTO

     1399     4019    2              IF RADIX=0 THEN RADIX=DA_DFLT_RADIX;

   4019  2 000116   000121 601000 2                  TNZ     s:4020

   4019  2 000117   000000 235000 xsym               LDA     DA_DFLT_RADIX
         2 000120   200010 755100                    STA     RADIX,,AUTO

     1400     4020    2              TEMP=0;

   4020  2 000121   200011 450100                    STZ     TEMP,,AUTO

     1401     4021    3              DO I=0 TO SYM.COUNT-1;

   4021  2 000122   200012 450100                    STZ     I,,AUTO
         2 000123   000143 710000 2                  TRA     s:4024+1

     1402     4022    3                 CALL INDEX(X,SUBSTR(SYM.TEXT,I,1),SUBSTR(DIGITS,0,RADIX)) ALTRET(
              4022                          BAD_DIGIT);

   4022  2 000124   200006 470500                    LDP0    OUT$,,AUTO
         2 000125   000004 236100                    LDQ     4,,PR0
         2 000126   000033 772000                    QRL     27
         2 000127   200010 720100                    LXL0    RADIX,,AUTO
         2 000130   200012 235100                    LDA     I,,AUTO
         2 000131   000105 124440                    SCM     mask='000'O
         2 000132   000000 000010 0                  ADSC9   DIGITS                   cn=0,n=*X0
         2 000133   000004 200001                    ADSC9   4,A,PR0                  cn=1,n=1
         2 000134   200013 000100                    ARG     X,,AUTO
         2 000135   000167 606400 2                  TTN     BAD_DIGIT

     1403     4023    3                 TEMP=TEMP*RADIX+X;
PL6.E3A0      #003=DAA$VALUE File=DAA$ANLZ.:E05TSI                               TUE 07/29/97 12:36 Page:270

   4023  2 000136   200011 236100                    LDQ     TEMP,,AUTO
         2 000137   200010 402100                    MPY     RADIX,,AUTO
         2 000140   200013 036100                    ADLQ    X,,AUTO
         2 000141   200011 756100                    STQ     TEMP,,AUTO

     1404     4024    3                 END;

   4024  2 000142   200012 054100                    AOS     I,,AUTO
         2 000143   000004 236100                    LDQ     4,,PR0
         2 000144   000033 772000                    QRL     27
         2 000145   200012 116100                    CMPQ    I,,AUTO
         2 000146   000124 605400 2                  TPNZ    s:4022

     1405     4025    2              END;

     1406     4026    1           IF NEG THEN VALUE=-TEMP;

   4026  2 000147   200007 234100                    SZN     NEG,,AUTO
         2 000150   000155 605000 2                  TPL     s:4027

   4026  2 000151   200004 471500                    LDP1    @VALUE,,AUTO
         2 000152   200011 335100                    LCA     TEMP,,AUTO
         2 000153   100000 755100                    STA     0,,PR1
         2 000154   000160 710000 2                  TRA     s:4028

     1407     4027    1           ELSE VALUE=TEMP;

   4027  2 000155   200004 471500                    LDP1    @VALUE,,AUTO
         2 000156   200011 235100                    LDA     TEMP,,AUTO
         2 000157   100000 755100                    STA     0,,PR1

     1408     4028    1           IF ADDR(R)~=ADDR(NIL) THEN R=RADIX;

   4028  2 000160   200005 236100                    LDQ     @R,,AUTO
         2 000161   000001 116000 xsym               CMPQ    B_VECTNIL+1
         2 000162   000166 600000 2                  TZE     s:4029
PL6.E3A0      #003=DAA$VALUE File=DAA$ANLZ.:E05TSI                               TUE 07/29/97 12:36 Page:271

   4028  2 000163   200005 473500                    LDP3    @R,,AUTO
         2 000164   200010 235100                    LDA     RADIX,,AUTO
         2 000165   300000 755100                    STA     0,,PR3

     1409     4029    1           RETURN;

   4029  2 000166   000000 702200 xent               TSX2  ! X66_ARET

   4028  2 000167                       BAD_DIGIT    null
     1410     4030    1   BAD_DIGIT: ;
     1411     4031    1           TEMP=OUT.CPOS+I;

   4031  2 000167   200006 470500                    LDP0    OUT$,,AUTO
         2 000170   000002 236100                    LDQ     2,,PR0
         2 000171   200012 036100                    ADLQ    I,,AUTO
         2 000172   200011 756100                    STQ     TEMP,,AUTO

     1412     4032    1           CALL XUR$ERRPTR(TEMP,DCBNUM(M$DO));

   4032  2 000173   000000 236007 xsym               LDQ     M$DO,DL
         2 000174   200014 756100                    STQ     X+1,,AUTO
         2 000175   200014 631500                    EPPR1   X+1,,AUTO
         2 000176   200017 451500                    STP1    X+4,,AUTO
         2 000177   200011 633500                    EPPR3   TEMP,,AUTO
         2 000200   200016 453500                    STP3    X+3,,AUTO
         2 000201   200016 630500                    EPPR0   X+3,,AUTO
         2 000202   000020 631400 xsym               EPPR1   B_VECTNIL+16
         2 000203   000000 701000 xent               TSX1    XUR$ERRPTR
         2 000204   000000 011000                    NOP     0

     1413     4033    1           CALL DAA$ERRMSG(%E$DA_BAD_DIGIT);

   4033  2 000205   000001 630400 3                  EPPR0   1
         2 000206   000017 631400 xsym               EPPR1   B_VECTNIL+15
         2 000207   000000 701000 xent               TSX1    DAA$ERRMSG
         2 000210   000000 011000                    NOP     0
PL6.E3A0      #003=DAA$VALUE File=DAA$ANLZ.:E05TSI                               TUE 07/29/97 12:36 Page:272

     1414     4034        /*E*    ERROR:   DAA-E$DA_BAD_DIGIT
     1415     4035                MESSAGE: Bad digit.
     1416     4036                                                                           */
     1417     4037    1           VALUE=0;

   4037  2 000211   200004 470500                    LDP0    @VALUE,,AUTO
         2 000212   000000 450100                    STZ     0,,PR0

     1418     4038    1           IF ADDR(R)~=ADDR(NIL) THEN R=0;

   4038  2 000213   200005 236100                    LDQ     @R,,AUTO
         2 000214   000001 116000 xsym               CMPQ    B_VECTNIL+1
         2 000215   000220 600000 2                  TZE     s:4039

   4038  2 000216   200005 471500                    LDP1    @R,,AUTO
         2 000217   100000 450100                    STZ     0,,PR1

     1419     4039    1           ALTRETURN;

   4039  2 000220   000000 702200 xent               TSX2  ! X66_AALT
     1420     4040    1   END DAA$VALUE;
     1421     4041        %EOD;

PL6.E3A0      #003=DAA$VALUE File=DAA$ANLZ.:E05TSI                               TUE 07/29/97 12:36 Page:273
--  Include file information  --

   B$JIT.:E05TOU  cannot be made into a system file and is referenced.
   DA_MAP_R.:E05TOU  cannot be made into a system file and is referenced.
   DA_TEXTC_C.:E05TOU  is referenced.
   DA_ANLZ_R.:E05TOU  cannot be made into a system file and is referenced.
   DA_PERR_C.:E05TOU  is referenced.
   DA_CMD_C.:E05TOU  is referenced.
   XU_MACRO_C.:E05TOU  is referenced.
   B$JIT_C.:E05TOU  was found in the system file and is referenced.
   CP_6_C.:E05TOU  was found in the system file and is never referenced.
      No diagnostics issued in procedure DAA$VALUE.
PL6.E3A0      #003=DAA$VALUE File=DAA$ANLZ.:E05TSI                               TUE 07/29/97 12:36 Page:274

 **** Variables and constants ****

  ****  Section 000 RoData DAA$VALUE

  ****  Scalars and arrays  ****
OctLoc.c.b A Datatyp(siz) R M Lvl/name                 OctLoc.c.b A Datatyp(siz) R M Lvl/name

     0-0-0/c CHAR        r     1 DIGITS

  ****  Auto variables  ****

  ****  Scalars and arrays  ****
OctLoc.c.b A Datatyp(siz) R M Lvl/name                 OctLoc.c.b A Datatyp(siz) R M Lvl/name

     5-0-0/w PTR         r     1 @R                         3-0-0/w PTR         r     1 @TOP
     4-0-0/w PTR         r     1 @VALUE                    12-0-0/w SBIN        r     1 I
     7-0-0/b BIT         r     1 NEG                        6-0-0/w PTR         r     1 OUT$
    *0-0-0/w SBIN        r     1 R                         10-0-0/w SBIN        r     1 RADIX
    11-0-0/w SBIN        r     1 TEMP                      *0-0-0/w SBIN        r     1 TOP
    *0-0-0/w SBIN        r     1 VALUE                     13-0-0/w SBIN        r     1 X

  ****  SYMREF variables  ****

  ****  Scalars and arrays  ****
OctLoc.c.b A Datatyp(siz) R M Lvl/name                 OctLoc.c.b A Datatyp(siz) R M Lvl/name

     0-0-0/w PTR         r     1 B$JIT$                     0-0-0/w UBIN        r     1 DA_DFLT_RADIX
     0-0-0/w BIT         r     1 DA_DUMPFILE

  ****  BASED and DCB variables  ****

  ****  Scalars and arrays  ****
OctLoc.c.b A Datatyp(siz) R M Lvl/name                 OctLoc.c.b A Datatyp(siz) R M Lvl/name

     0-0-0/d STRC(8856)  r     1 B$JIT                      0-0-0N  NULL        r     1 M$DO
     0-0-0/w STRC(144)   r     1 OUT                        0-0-0/w ASTR(153)   r     1 SYM

PL6.E3A0      #003=DAA$VALUE File=DAA$ANLZ.:E05TSI                               TUE 07/29/97 12:36 Page:275

   Procedure DAA$VALUE requires 145 words for executable code.
   Procedure DAA$VALUE requires 16 words of local(AUTO) storage.
PL6.E3A0      #003=DAA$VALUE File=DAA$ANLZ.:E05TSI                               TUE 07/29/97 12:36 Page:276
          *** CROSS REFERENCE LISTING ***
**     DENOTES     IDENTIFIER DEFINITION
<<                 IDENTIFIER'S VALUE SET
>>                 IDENTIFIER'S VALUE USED
<>                 IDENTIFIER SET AND/OR USED
--                 IDENTIFIER REFERENCED
PL6.E3A0      #003=DAA$VALUE File=DAA$ANLZ.:E05TSI                               TUE 07/29/97 12:36 Page:277
          MINI XREF LISTING

B$JIT.CPFLAGS1.SLEAZE
      3717**DCL      3717--REDEF
B$JIT.ERR.MID
      3624**DCL      3624--REDEF
B$JIT.JRESPEAK
      3785**DCL      3786--REDEF
B$JIT.ORIGINATOR_PORT.FROM_CR
      3894**DCL      3894--REDEF    3895--REDEF
B$JIT.PNR
      3798**DCL      3798--REDEF
B$JIT.TSLINE
      3892**DCL      3893--REDEF
B$JIT.USER
      3623**DCL      4007>>ASSIGN
B$JIT$
      3608**DCL      3618--IMP-PTR  4007>>ASSIGN
BAD_DIGIT
      4028**LABEL    4022--CALLALT
DAA$CUN
        13**DCL-ENT  4003--CALL
DAA$ERRMSG
        12**DCL-ENT  4033--CALL
DA_DFLT_RADIX
      3545**DCL      4019>>ASSIGN
DA_DUMPFILE
      3593**DCL      4007>>IF
DA_MAPSEG.P
      3603**DCL      3604--REDEF
DA_SDASN.DESC.TYPE0
      3588**DCL      3588--REDEF
DA_TIGRSEG.P
      3604**DCL      3605--REDEF
PL6.E3A0      #003=DAA$VALUE File=DAA$ANLZ.:E05TSI                               TUE 07/29/97 12:36 Page:278
DIGITS
      3989**DCL      4022>>CALLBLT
I
      3987**DCL      4021<<DOINDEX  4022>>CALLBLT  4031>>ASSIGN
M$DO
      3990**DCL      4032<>CALL
NEG
      3984**DCL      3999<<ASSIGN   4001<<ASSIGN   4026>>IF
OUT.CODE
      3915**DCL      3993>>DOWHILE  3997>>DOCASE   4013>>IF       4018>>ASSIGN
OUT.CPOS
      3933**DCL      4031>>ASSIGN
OUT.NSUBLKS
      3919**DCL      3993>>DOWHILE
OUT.SUBLK$
      3940**DCL      3994>>ASSIGN   3996>>ASSIGN   4012>>ASSIGN
OUT$
      3900**DCL      3907--IMP-PTR  3953--IMP-PTR  3992<<ASSIGN   3993>>DOWHILE  3993>>DOWHILE  3994<<ASSIGN
      3994>>ASSIGN   3996<<ASSIGN   3996>>ASSIGN   3997>>DOCASE   4012<<ASSIGN   4012>>ASSIGN   4013>>IF
      4015>>CALLBLT  4015>>CALLBLT  4018>>ASSIGN   4021>>DOINDEX  4022>>CALLBLT  4022>>CALLBLT  4031>>ASSIGN
R
         9**DCL         6--PROC     4004--IF       4004<<ASSIGN   4009--IF       4009<<ASSIGN   4028--IF
      4028<<ASSIGN   4038--IF       4038<<ASSIGN
RADIX
      3985**DCL      4014<<ASSIGN   4018<<ASSIGN   4019>>IF       4019<<ASSIGN   4022>>CALLBLT  4023>>ASSIGN
      4028>>ASSIGN
SYM.COUNT
      3976**DCL      3979--IMP-SIZ  4015>>CALLBLT  4021>>DOINDEX  4022>>CALLBLT
SYM.TEXT
      3979**DCL      4015>>CALLBLT  4022>>CALLBLT
TEMP
      3986**DCL      4015<<CALLBLT  4020<<ASSIGN   4023<<ASSIGN   4023>>ASSIGN   4026>>ASSIGN   4027>>ASSIGN
      4031<<ASSIGN   4032<>CALL
TOP
         7**DCL         6--PROC     3992--ASSIGN
VALUE
PL6.E3A0      #003=DAA$VALUE File=DAA$ANLZ.:E05TSI                               TUE 07/29/97 12:36 Page:279
         8**DCL         6--PROC     4003<>CALL     4007<<ASSIGN   4008<<ASSIGN   4026<<ASSIGN   4027<<ASSIGN
      4037<<ASSIGN
X
      3988**DCL      4022<<CALLBLT  4023>>ASSIGN
XUR$ERRPTR
        11**DCL-ENT  4032--CALL

PL6.E3A0      #004=DAA$EXP File=DAA$ANLZ.:E05TSI                                 TUE 07/29/97 12:36 Page:280
     1422        1        /*T***********************************************************/
     1423        2        /*T*                                                         */
     1424        3        /*T* Copyright (c) Bull HN Information Systems Inc., 1997    */
     1425        4        /*T*                                                         */
     1426        5        /*T***********************************************************/
     1427        6        DAA$EXP: PROC(TOP,P$,USR,DMN) ALTRET;
     1428        7        /**/
     1429        8        %INCLUDE CP_6;
     1430       89        %INCLUDE XU_MACRO_C;
     1431     3195        %INCLUDE DA_CMD_C;
     1432     3544        %INCLUDE DA_SYMBOLS_R;
     1433     3557        /**/
     1434     3558        %PARSE$OUT (NAME=TOP,STCLASS=PARAM);
     1435     3603    1   DCL P$ PTR;
     1436     3604    1   DCL 1 P REDEF P$,
     1437     3605    1         2 OFFSET UBIN(18) UNAL,
     1438     3606    1         2 * UBIN(6) UNAL,
     1439     3607    1         2 SID,
     1440     3608    1           3 S UBIN(2) UNAL,
     1441     3609    1           3 D UBIN(10) UNAL;
     1442     3610    1   DCL VAL REDEF P$ UBIN WORD;
     1443     3611    1   DCL USR SBIN;
     1444     3612    1   DCL DMN SBIN;
     1445     3613        /**/
     1446     3614    1   DCL DAS$SDSRCHPTR ENTRY(2) ALTRET;
     1447     3615    1   DCL DAS$EDSRCHPTR ENTRY(2) ALTRET;
     1448     3616    1   DCL DAA$VALUE ENTRY(3) ALTRET;
     1449     3617    1   DCL DAM$MAP ENTRY(5) ALTRET;
     1450     3618        /**/
     1451     3619    1   DCL B$IS$ PTR SYMREF;
     1452     3620        /**/
     1453     3621    1   DCL OUT$ PTR;
     1454     3622        %PARSE$OUT (NAME=OUT,STCLASS="BASED(OUT$)");
     1455     3667        %PARSE$SYM (NAME=SYM,STCLASS="BASED(OUT$)");
     1456     3705        /**/
     1457     3706    1   DCL I SBIN;
     1458     3707    1   DCL X SBIN;
PL6.E3A0      #004=DAA$EXP File=DAA$ANLZ.:E05TSI                                 TUE 07/29/97 12:36 Page:281
     1459     3708    1   DCL T$ PTR;
     1460     3709    1   DCL T REDEF T$ UBIN(18) ALIGNED;
     1461     3710    1   DCL V1 UBIN;
     1462     3711    1   DCL V1S REDEF V1 SBIN;
     1463     3712    1   DCL V1$ REDEF V1 PTR;
     1464     3713    1   DCL 1 V1P REDEF V1,
     1465     3714    1         2 WA UBIN(18) UNAL,
     1466     3715    1         2 * UBIN(18) UNAL;
     1467     3716    1   DCL V2 UBIN;
     1468     3717    1   DCL V2S REDEF V2 SBIN;
     1469     3718    1   DCL V2$ REDEF V2 PTR;
     1470     3719    1   DCL PTRFLAG BIT(1) ALIGNED;
     1471     3720    1   DCL PBASE$ PTR BASED;
     1472     3721    1   DCL UBIN36BASE UBIN WORD BASED;
     1473     3722    1   DCL DOM SBIN;
     1474     3723    1   DCL USER SBIN;
     1475     3724        /**/
     1476     3725        %SUB NEVER="WHILE('0'B)";
     1477     3726        %SUB FOREVER="WHILE('1'B)";
     1478     3727        %EJECT;
PL6.E3A0      #004=DAA$EXP File=DAA$ANLZ.:E05TSI                                 TUE 07/29/97 12:36 Page:282
     1479     3728        /**/
     1480     3729    1   DAA$LOC: ENTRY(TOP,P$) ALTRET;
     1481     3730        /**/
     1482     3731    1           OUT$=ADDR(TOP);
     1483     3732    1           IF ADDR(USR)=ADDR(NIL) THEN
     1484     3733    1              USER=0;
     1485     3734    1           ELSE
     1486     3735    1              USER=USR;
     1487     3736    1           IF ADDR(DMN)=ADDR(NIL) THEN
     1488     3737    1              DOM=0;
     1489     3738    1           ELSE
     1490     3739    1              DOM=DMN;
     1491     3740    2           DO WHILE(OUT$~=ADDR(NIL));
     1492     3741    3              DO CASE(OUT.CODE);
     1493     3742    3               CASE(%DA_LOC_CODE);
     1494     3743    4                 CALL LOC WHENALTRETURN DO; ALTRETURN; END;
     1495     3744    3                 OUT$=ADDR(NIL);
     1496     3745    3               CASE(%DA_EXPRESSION);
     1497     3746    4                 CALL VAL_EXP WHENALTRETURN DO; ALTRETURN; END;
     1498     3747    3                 OUT$=ADDR(NIL);
     1499     3748    3               CASE(%DA_ADR_EXPRESSION);
     1500     3749    4                 CALL ADR_EXP WHENALTRETURN DO; ALTRETURN; END;
     1501     3750    3                 OUT$=ADDR(NIL);
     1502     3751    3               CASE(ELSE);
     1503     3752    3                 IF OUT.NSUBLKS=1 THEN
     1504     3753    3                    OUT$=OUT.SUBLK$(0);
     1505     3754    3                 ELSE
     1506     3755    3                    CALL M$XXX;
     1507     3756    3               END;
     1508     3757    2              END;
     1509     3758    1           RETURN;
     1510     3759        %EJECT;
PL6.E3A0      #004=DAA$EXP File=DAA$ANLZ.:E05TSI                                 TUE 07/29/97 12:36 Page:283
     1511     3760    1   LOC:    PROC ALTRET;
     1512     3761        /**/
     1513     3762    2           OUT$=OUT.SUBLK$(0);
     1514     3763    3           DO CASE(OUT.CODE);
     1515     3764    3            CASE(%DA_LOC_ABS);
     1516     3765    4              CALL DAA$VALUE(OUT.SUBLK$(0)->OUT,X)WHENALTRETURN DO; ALTRETURN; END;
     1517     3766    3              P$=PINCRW(B$IS$,X);
     1518     3767    3            CASE(%DA_LOC_SYM);
     1519     3768    3              CALL DAS$SDSRCHPTR(OUT.SUBLK$(0)->SYM.COUNT,T$) ALTRET(TRY_EDEF);
     1520     3769    4              DO NEVER;
     1521     3770    4   TRY_EDEF:     DA_SYMERR='0'B;
     1522     3771    4                 CALL DAS$EDSRCHPTR(OUT.SUBLK$(0)->SYM.COUNT,T$) ALTRET(ALT);
     1523     3772    4                 END;
     1524     3773    3              IF OUT.NSUBLKS=2 THEN
     1525     3774    4                 CALL DAA$VALUE(OUT.SUBLK$(1)->OUT,X)WHENALTRETURN DO; ALTRETURN; END;
     1526     3775    3              ELSE X=0;
     1527     3776    3              P$=PINCRW(T$,X);
     1528     3777    3            CASE(%DA_LOC_DESC);
     1529     3778    3              P$=B$IS$;
     1530     3779    4              IF OUT.SUBLK$(0)->OUT.CODE=%DA_LOC_SPCL THEN DO;
     1531     3780    4                 P.SID.S=3;
     1532     3781    4                 P.SID.D=OUT.SUBLK$(0)->OUT.SUBLK$(0)->OUT.CODE;
     1533     3782    4                 I=2;
     1534     3783    4                 END;
     1535     3784    4              ELSE DO;
     1536     3785    4                 P.SID.S=OUT.SUBLK$(0)->OUT.CODE;
     1537     3786    5                 CALL DAA$VALUE(OUT.SUBLK$(1)->OUT,X)WHENALTRETURN DO; ALTRETURN; END;
     1538     3787    4                 P.SID.D=X;
     1539     3788    4                 I=3;
     1540     3789    4                 END;
     1541     3790    4              IF OUT.NSUBLKS=I THEN DO;
     1542     3791    5                 CALL DAA$VALUE(OUT.SUBLK$(I-1)->OUT,X)WHENALTRETURN DO; ALTRETURN; END
              3791                          ;
     1543     3792    4                 P.OFFSET=X;
     1544     3793    4                 END;
     1545     3794    3            END;
     1546     3795    2           RETURN;
PL6.E3A0      #004=DAA$EXP File=DAA$ANLZ.:E05TSI                                 TUE 07/29/97 12:36 Page:284
     1547     3796    2   ALT:    ALTRETURN;
     1548     3797        /**/
     1549     3798    2   END LOC;
     1550     3799        %EJECT;
PL6.E3A0      #004=DAA$EXP File=DAA$ANLZ.:E05TSI                                 TUE 07/29/97 12:36 Page:285
     1551     3800        /**/
     1552     3801    1   VAL_EXP: PROC ALTRET;
     1553     3802        /**/
     1554     3803    2           I=1;
     1555     3804    3           CALL VALUE(V1,0) WHENALTRETURN DO; ALTRETURN; END;
     1556     3805    3           DO WHILE(I<OUT.NSUBLKS);
     1557     3806    4              CALL VALUE(V2,I+1) WHENALTRETURN DO; ALTRETURN; END;
     1558     3807    4              DO CASE(OUT.SUBLK$(I)->OUT.CODE);
     1559     3808    4               CASE(%DA_OP_PLUS);
     1560     3809    4                 V1=V1+V2;
     1561     3810    4               CASE(%DA_OP_MINUS);
     1562     3811    4                 V1S=V1S-V2S;
     1563     3812    4               CASE(%DA_OP_POINT);
     1564     3813    4                 T$=PINCRW(B$IS$,V1);
     1565     3814    5                 CALL DAM$MAP(T$,V1$,USER,DOM,VECTOR(T$->UBIN36BASE)) WHENALTRETURN DO;
     1566     3815    5                    ALTRETURN;
     1567     3816    5                    END;
     1568     3817    4                 V1=V1$->UBIN36BASE+V2;
     1569     3818    4               CASE(%DA_OP_MULT);
     1570     3819    4                 V1=V1*V2;
     1571     3820    4               CASE(%DA_OP_DIV);
     1572     3821    4                 V1=V1S/V2S;
     1573     3822    4               END;
     1574     3823    3              I=I+2;
     1575     3824    3              END;
     1576     3825    2           VAL=V1;
     1577     3826    2           RETURN;
     1578     3827    2   END VAL_EXP;
     1579     3828        %EJECT;
PL6.E3A0      #004=DAA$EXP File=DAA$ANLZ.:E05TSI                                 TUE 07/29/97 12:36 Page:286
     1580     3829        /**/
     1581     3830    1   ADR_EXP: PROC ALTRET;
     1582     3831        /**/
     1583     3832    2           I=1;
     1584     3833    3           CALL VALUE(V2,0) WHENALTRETURN DO; ALTRETURN; END;
     1585     3834    2           IF PTRFLAG THEN
     1586     3835    2              V1$=V2$;
     1587     3836    2           ELSE
     1588     3837    2              V1$=PINCRW(B$IS$,V2);
     1589     3838    3           DO WHILE(I<OUT.NSUBLKS);
     1590     3839    4              CALL VALUE(V2,I+1) WHENALTRETURN DO; ALTRETURN; END;
     1591     3840    4              DO CASE(OUT.SUBLK$(I)->OUT.CODE);
     1592     3841    4               CASE(%DA_OP_PLUS);
     1593     3842    4                 V1$=PINCRW(V1$,V2);
     1594     3843    4               CASE(%DA_OP_MINUS);
     1595     3844    4                 V1$=PINCRW(V1$,-V2);
     1596     3845    4               CASE(%DA_OP_POINT);
     1597     3846    5                 CALL DAM$MAP(V1$,V1$,USER,DOM,VECTOR(V1$->PBASE$)) WHENALTRETURN DO;
     1598     3847    5                    ALTRETURN;
     1599     3848    5                    END;
     1600     3849    4                 T$=V1$->PBASE$;
     1601     3850    4                 V1$=PINCRW(T$,V2);
     1602     3851    4               CASE(%DA_OP_MULT);
     1603     3852    4                 V1P.WA=V1P.WA*V2;
     1604     3853    4               CASE(%DA_OP_DIV);
     1605     3854    4                 V1P.WA=V1P.WA*V2;
     1606     3855    4               END;
     1607     3856    3              I=I+2;
     1608     3857    3              END;
     1609     3858    2           P$=V1$;
     1610     3859    2           RETURN;
     1611     3860        /**/
     1612     3861    2   END ADR_EXP;
     1613     3862        %EJECT;
PL6.E3A0      #004=DAA$EXP File=DAA$ANLZ.:E05TSI                                 TUE 07/29/97 12:36 Page:287
     1614     3863        /**/
     1615     3864    1   VALUE:  PROC(V,NODX) ALTRET;
     1616     3865        /**/
     1617     3866    2   DCL V UBIN WORD;
     1618     3867    2   DCL V$ REDEF V PTR;
     1619     3868    2   DCL 1 VP REDEF V,
     1620     3869    2         2 OFFSET UBIN(18) UNAL,
     1621     3870    2         2 * UBIN(6) UNAL,
     1622     3871    2         2 SID,
     1623     3872    2           3 S UBIN(2) UNAL,
     1624     3873    2           3 D UBIN(10) UNAL;
     1625     3874    2   DCL NODX UBIN WORD;
     1626     3875    2   DCL UBIN18 UBIN(18) ALIGNED;
     1627     3876        /**/
     1628     3877    2           PTRFLAG='0'B;
     1629     3878    3           DO CASE(OUT.SUBLK$(NODX)->OUT.CODE);
     1630     3879    3            CASE(%DA_EXP_NUMBER);
     1631     3880    4              CALL DAA$VALUE(OUT.SUBLK$(NODX)->OUT.SUBLK$(0)->OUT,V)WHENALTRETURN DO;
              3880                       ALTRETURN; END;
     1632     3881    3            CASE(%DA_EXP_SYMBOL);
     1633     3882    4              CALL DAS$SDSRCHPTR(OUT.SUBLK$(NODX)->SYM.COUNT,UBIN18) WHENALTRETURN DO;
     1634     3883    4                 DA_SYMERR='0'B;
     1635     3884    5                 CALL DAS$EDSRCHPTR(OUT.SUBLK$(NODX)->SYM.COUNT,UBIN18) WHENALTRETURN
              3884                          DO;
     1636     3885    5                    ALTRETURN;
     1637     3886    5                    END;
     1638     3887    4                 END;
     1639     3888    3              V=UBIN18;
     1640     3889    3            CASE(%DA_EXP_SEGMENT);
     1641     3890    3              PTRFLAG='1'B;
     1642     3891    3              VP='0'B;
     1643     3892    4              IF OUT.SUBLK$(NODX)->OUT.SUBLK$(0)->OUT.CODE=%DA_LOC_SPCL THEN DO;
     1644     3893    4                 VP.SID.S=3;
     1645     3894    4                 VP.SID.D=OUT.SUBLK$(NODX)->OUT.SUBLK$(0)->OUT.SUBLK$(0)->OUT.CODE;
     1646     3895    4                 END;
     1647     3896    4              ELSE DO;
     1648     3897    4                 VP.SID.S=OUT.SUBLK$(NODX)->OUT.SUBLK$(0)->OUT.CODE;
PL6.E3A0      #004=DAA$EXP File=DAA$ANLZ.:E05TSI                                 TUE 07/29/97 12:36 Page:288
     1649     3898    5                 CALL DAA$VALUE(OUT.SUBLK$(NODX)->OUT.SUBLK$(1)->OUT,X) WHENALTRETURN
              3898                          DO;
     1650     3899    5                    ALTRETURN;
     1651     3900    5                    END;
     1652     3901    4                 VP.SID.D=X;
     1653     3902    4                 END;
     1654     3903    4              IF NODX+1<OUT.NSUBLKS THEN DO;
     1655     3904    4                 IF OUT.SUBLK$(NODX+1)->OUT.CODE=%DA_OP_POINT THEN
     1656     3905    4                    OUT.SUBLK$(NODX+1)->OUT.CODE=%DA_OP_PLUS;
     1657     3906    4                 END;
     1658     3907    3            END;
     1659     3908    2           RETURN;
     1660     3909        /**/
     1661     3910    2   END VALUE;
     1662     3911    1   END DAA$EXP;
     1663     3912        %EOD;

PL6.E3A0      #004=DAA$EXP File=DAA$ANLZ.:E05TSI                                 TUE 07/29/97 12:36 Page:289
--  Include file information  --

   DA_SYMBOLS_R.:E05TOU  cannot be made into a system file and is referenced.
   DA_CMD_C.:E05TOU  is referenced.
   XU_MACRO_C.:E05TOU  is referenced.
   CP_6.:E05TOU  cannot be made into a system file and is referenced.
   B$JIT_C.:E05TOU  was found in the system file and is never referenced.
   CP_6_C.:E05TOU  was found in the system file and is referenced.
      No diagnostics issued in procedure DAA$EXP.

   Procedure DAA$EXP requires 533 words for executable code.
   Procedure DAA$EXP requires 32 words of local(AUTO) storage.

PL6.E3A0      #004=DAA$EXP File=DAA$ANLZ.:E05TSI                                 TUE 07/29/97 12:36 Page:290

 Object Unit name= DAA$EXP                                    File name= DAA$ANLZ.:E05TOU
 UTS= JUL 29 '97 12:36:51.80 TUE                              Compiler= PL-6/E31         Sev=      00
 SharedLib= :SHARED_SYSTEM                                    Alt SharedLib=


    ****  Control sections  ****

 Sect   Type Bound  Init  Size OctSiz  Section name(segment info)
    0   DCB   even  none     0      0  M$UC
    1   Proc  even  none   533   1025  DAA$EXP
    2  RoData even  none     1      1  DAA$EXP

    ****  Entry defs  ****

                              Check   Calling
                             calling  sequence
  Sect OctLoc Primary Altret sequence   type   Parms  Name
     1      0   yes    yes     yes      Std        4  DAA$EXP
     1      3          yes     yes      Std        2  DAA$LOC

  ****  Entry refs  ****

         Check        Calling
        calling       sequence
Altret sequence SRef   type   Args  Name
 yes     yes           Std       3 DAA$VALUE
 yes     yes           Std       2 DAS$SDSRCHPTR
 yes     yes           Std       2 DAS$EDSRCHPTR
 yes     yes           Std       5 DAM$MAP
                       nStd      0 X66_AUTO_4
                       Std       0 B_CONSPOOL_D
                       nStd      0 X66_AALT
                       nStd      0 X66_ARET
PL6.E3A0      #004=DAA$EXP File=DAA$ANLZ.:E05TSI                                 TUE 07/29/97 12:36 Page:291

  ****  Data refs  ****

  Flags:  r = read only, s = secondary
Flgs Name                             Flgs Name                             Flgs Name
     M$UC                                  DA_SYMERR                             B$IS$
     B_VECTNIL

  ****  Segment refs  ****

  Flags:  r = read only, s = secondary
Flgs Name                             Flgs Name                             Flgs Name
     ISSID
PL6.E3A0      #004=DAA$EXP File=DAA$ANLZ.:E05TSI                                 TUE 07/29/97 12:36 Page:292


     1422        1        /*T***********************************************************/
     1423        2        /*T*                                                         */
     1424        3        /*T* Copyright (c) Bull HN Information Systems Inc., 1997    */
     1425        4        /*T*                                                         */
     1426        5        /*T***********************************************************/
     1427        6        DAA$EXP: PROC(TOP,P$,USR,DMN) ALTRET;

      6  1 000000   000000 700200 xent  DAA$EXP      TSX0  ! X66_AUTO_4
         1 000001   000040 000004                    ZERO    32,4
         1 000002   000005 710000 1                  TRA     s:3731

     1428        7        /**/
     1429        8        %INCLUDE CP_6;
     1430       89        %INCLUDE XU_MACRO_C;
     1431     3195        %INCLUDE DA_CMD_C;
     1432     3544        %INCLUDE DA_SYMBOLS_R;
     1433     3557        /**/
     1434     3558        %PARSE$OUT (NAME=TOP,STCLASS=PARAM);
     1435     3603    1   DCL P$ PTR;
     1436     3604    1   DCL 1 P REDEF P$,
     1437     3605    1         2 OFFSET UBIN(18) UNAL,
     1438     3606    1         2 * UBIN(6) UNAL,
     1439     3607    1         2 SID,
     1440     3608    1           3 S UBIN(2) UNAL,
     1441     3609    1           3 D UBIN(10) UNAL;
     1442     3610    1   DCL VAL REDEF P$ UBIN WORD;
     1443     3611    1   DCL USR SBIN;
     1444     3612    1   DCL DMN SBIN;
     1445     3613        /**/
     1446     3614    1   DCL DAS$SDSRCHPTR ENTRY(2) ALTRET;
     1447     3615    1   DCL DAS$EDSRCHPTR ENTRY(2) ALTRET;
     1448     3616    1   DCL DAA$VALUE ENTRY(3) ALTRET;
     1449     3617    1   DCL DAM$MAP ENTRY(5) ALTRET;
     1450     3618        /**/
     1451     3619    1   DCL B$IS$ PTR SYMREF;
     1452     3620        /**/
PL6.E3A0      #004=DAA$EXP File=DAA$ANLZ.:E05TSI                                 TUE 07/29/97 12:36 Page:293
     1453     3621    1   DCL OUT$ PTR;
     1454     3622        %PARSE$OUT (NAME=OUT,STCLASS="BASED(OUT$)");
     1455     3667        %PARSE$SYM (NAME=SYM,STCLASS="BASED(OUT$)");
     1456     3705        /**/
     1457     3706    1   DCL I SBIN;
     1458     3707    1   DCL X SBIN;
     1459     3708    1   DCL T$ PTR;
     1460     3709    1   DCL T REDEF T$ UBIN(18) ALIGNED;
     1461     3710    1   DCL V1 UBIN;
     1462     3711    1   DCL V1S REDEF V1 SBIN;
     1463     3712    1   DCL V1$ REDEF V1 PTR;
     1464     3713    1   DCL 1 V1P REDEF V1,
     1465     3714    1         2 WA UBIN(18) UNAL,
     1466     3715    1         2 * UBIN(18) UNAL;
     1467     3716    1   DCL V2 UBIN;
     1468     3717    1   DCL V2S REDEF V2 SBIN;
     1469     3718    1   DCL V2$ REDEF V2 PTR;
     1470     3719    1   DCL PTRFLAG BIT(1) ALIGNED;
     1471     3720    1   DCL PBASE$ PTR BASED;
     1472     3721    1   DCL UBIN36BASE UBIN WORD BASED;
     1473     3722    1   DCL DOM SBIN;
     1474     3723    1   DCL USER SBIN;
     1475     3724        /**/
     1476     3725        %SUB NEVER="WHILE('0'B)";
     1477     3726        %SUB FOREVER="WHILE('1'B)";
     1478     3727        %EJECT;
PL6.E3A0      #004=DAA$EXP File=DAA$ANLZ.:E05TSI                                 TUE 07/29/97 12:36 Page:294
     1479     3728        /**/
     1480     3729    1   DAA$LOC: ENTRY(TOP,P$) ALTRET;

   3729  1 000003   000000 700200 xent  DAA$LOC      TSX0  ! X66_AUTO_4
         1 000004   000040 000004                    ZERO    32,4

     1481     3730        /**/
     1482     3731    1           OUT$=ADDR(TOP);

   3731  1 000005   200003 236100                    LDQ     @TOP,,AUTO
         1 000006   200007 756100                    STQ     OUT$,,AUTO

     1483     3732    1           IF ADDR(USR)=ADDR(NIL) THEN

   3732  1 000007   200005 236100                    LDQ     @USR,,AUTO
         1 000010   000001 116000 xsym               CMPQ    B_VECTNIL+1
         1 000011   000014 601000 1                  TNZ     s:3735

     1484     3733    1              USER=0;

   3733  1 000012   200017 450100                    STZ     USER,,AUTO
         1 000013   000017 710000 1                  TRA     s:3736

     1485     3734    1           ELSE
     1486     3735    1              USER=USR;

   3735  1 000014   200005 470500                    LDP0    @USR,,AUTO
         1 000015   000000 235100                    LDA     0,,PR0
         1 000016   200017 755100                    STA     USER,,AUTO

     1487     3736    1           IF ADDR(DMN)=ADDR(NIL) THEN

   3736  1 000017   200006 236100                    LDQ     @DMN,,AUTO
         1 000020   000001 116000 xsym               CMPQ    B_VECTNIL+1
         1 000021   000024 601000 1                  TNZ     s:3739

     1488     3737    1              DOM=0;
PL6.E3A0      #004=DAA$EXP File=DAA$ANLZ.:E05TSI                                 TUE 07/29/97 12:36 Page:295

   3737  1 000022   200016 450100                    STZ     DOM,,AUTO
         1 000023   000027 710000 1                  TRA     s:3740

     1489     3738    1           ELSE
     1490     3739    1              DOM=DMN;

   3739  1 000024   200006 470500                    LDP0    @DMN,,AUTO
         1 000025   000000 235100                    LDA     0,,PR0
         1 000026   200016 755100                    STA     DOM,,AUTO

     1491     3740    2           DO WHILE(OUT$~=ADDR(NIL));

   3740  1 000027   000077 710000 1                  TRA     s:3757

     1492     3741    3              DO CASE(OUT.CODE);

   3741  1 000030   200007 470500                    LDP0    OUT$,,AUTO
         1 000031   000000 236100                    LDQ     0,,PR0
         1 000032   777777 376007                    ANQ     -1,DL
         1 000033   000766 136007                    SBLQ    502,DL
         1 000034   000003 116007                    CMPQ    3,DL
         1 000035   000037 602006 1                  TNC     s:3741+7,QL
         1 000036   000067 710000 1                  TRA     s:3752
         1 000037   000042 710000 1                  TRA     s:3743
         1 000040   000051 710000 1                  TRA     s:3746
         1 000041   000060 710000 1                  TRA     s:3749

     1493     3742    3               CASE(%DA_LOC_CODE);

     1494     3743    4                 CALL LOC WHENALTRETURN DO; ALTRETURN; END;

   3743  1 000042   000103 701000 1                  TSX1    LOC
         1 000043   000045 702000 1                  TSX2    s:3743+3
         1 000044   000046 710000 1                  TRA     s:3744

   3743  1 000045   000000 702200 xent               TSX2  ! X66_AALT
PL6.E3A0      #004=DAA$EXP File=DAA$ANLZ.:E05TSI                                 TUE 07/29/97 12:36 Page:296

     1495     3744    3                 OUT$=ADDR(NIL);

   3744  1 000046   000001 236000 xsym               LDQ     B_VECTNIL+1
         1 000047   200007 756100                    STQ     OUT$,,AUTO
         1 000050   000077 710000 1                  TRA     s:3757

     1496     3745    3               CASE(%DA_EXPRESSION);

     1497     3746    4                 CALL VAL_EXP WHENALTRETURN DO; ALTRETURN; END;

   3746  1 000051   000315 701000 1                  TSX1    VAL_EXP
         1 000052   000054 702000 1                  TSX2    s:3746+3
         1 000053   000055 710000 1                  TRA     s:3747

   3746  1 000054   000000 702200 xent               TSX2  ! X66_AALT

     1498     3747    3                 OUT$=ADDR(NIL);

   3747  1 000055   000001 236000 xsym               LDQ     B_VECTNIL+1
         1 000056   200007 756100                    STQ     OUT$,,AUTO
         1 000057   000077 710000 1                  TRA     s:3757

     1499     3748    3               CASE(%DA_ADR_EXPRESSION);

     1500     3749    4                 CALL ADR_EXP WHENALTRETURN DO; ALTRETURN; END;

   3749  1 000060   000456 701000 1                  TSX1    ADR_EXP
         1 000061   000063 702000 1                  TSX2    s:3749+3
         1 000062   000064 710000 1                  TRA     s:3750

   3749  1 000063   000000 702200 xent               TSX2  ! X66_AALT

     1501     3750    3                 OUT$=ADDR(NIL);

   3750  1 000064   000001 236000 xsym               LDQ     B_VECTNIL+1
         1 000065   200007 756100                    STQ     OUT$,,AUTO
PL6.E3A0      #004=DAA$EXP File=DAA$ANLZ.:E05TSI                                 TUE 07/29/97 12:36 Page:297
         1 000066   000077 710000 1                  TRA     s:3757

     1502     3751    3               CASE(ELSE);

     1503     3752    3                 IF OUT.NSUBLKS=1 THEN

   3752  1 000067   000001 220100                    LDX0    1,,PR0
         1 000070   000001 100003                    CMPX0   1,DU
         1 000071   000075 601000 1                  TNZ     s:3755

     1504     3753    3                    OUT$=OUT.SUBLK$(0);

   3753  1 000072   000003 236100                    LDQ     3,,PR0
         1 000073   200007 756100                    STQ     OUT$,,AUTO
         1 000074   000077 710000 1                  TRA     s:3757

     1505     3754    3                 ELSE
     1506     3755    3                    CALL M$XXX;

   3755  1 000075   000003 713400                    CLIMB   3
         1 000076   000000 401760                    pmme    nvectors=0

     1507     3756    3               END;

     1508     3757    2              END;

   3757  1 000077   200007 236100                    LDQ     OUT$,,AUTO
         1 000100   000001 116000 xsym               CMPQ    B_VECTNIL+1
         1 000101   000030 601000 1                  TNZ     s:3741

     1509     3758    1           RETURN;

   3758  1 000102   000000 702200 xent               TSX2  ! X66_ARET

     1510     3759        %EJECT;
PL6.E3A0      #004=DAA$EXP File=DAA$ANLZ.:E05TSI                                 TUE 07/29/97 12:36 Page:298
     1511     3760    1   LOC:    PROC ALTRET;

   3760  1 000103   200020 741300       LOC          STX1  ! USER+1,,AUTO

     1512     3761        /**/
     1513     3762    2           OUT$=OUT.SUBLK$(0);

   3762  1 000104   200007 470500                    LDP0    OUT$,,AUTO
         1 000105   000003 236100                    LDQ     3,,PR0
         1 000106   200007 756100                    STQ     OUT$,,AUTO

     1514     3763    3           DO CASE(OUT.CODE);

   3763  1 000107   200007 470500                    LDP0    OUT$,,AUTO
         1 000110   000000 720100                    LXL0    0,,PR0
         1 000111   000004 100003                    CMPX0   4,DU
         1 000112   000114 602010 1                  TNC     s:3763+5,X0
         1 000113   000311 710000 1                  TRA     s:3795
         1 000114   000311 710000 1                  TRA     s:3795
         1 000115   000120 710000 1                  TRA     s:3765
         1 000116   000141 710000 1                  TRA     s:3768
         1 000117   000215 710000 1                  TRA     s:3778

     1515     3764    3            CASE(%DA_LOC_ABS);

     1516     3765    4              CALL DAA$VALUE(OUT.SUBLK$(0)->OUT,X)WHENALTRETURN DO; ALTRETURN; END;

   3765  1 000120   000003 471500                    LDP1    3,,PR0
         1 000121   200011 633500                    EPPR3   X,,AUTO
         1 000122   200027 453500                    STP3    UBIN18+2,,AUTO
         1 000123   200026 451500                    STP1    UBIN18+1,,AUTO
         1 000124   200026 630500                    EPPR0   UBIN18+1,,AUTO
         1 000125   000020 631400 xsym               EPPR1   B_VECTNIL+16
         1 000126   000000 701000 xent               TSX1    DAA$VALUE
         1 000127   000131 702000 1                  TSX2    s:3765+9
         1 000130   000133 710000 1                  TRA     s:3766

PL6.E3A0      #004=DAA$EXP File=DAA$ANLZ.:E05TSI                                 TUE 07/29/97 12:36 Page:299
   3765  1 000131   200020 221300                    LDX1  ! USER+1,,AUTO
         1 000132   000000 702211                    TSX2  ! 0,X1

     1517     3766    3              P$=PINCRW(B$IS$,X);

   3766  1 000133   200011 236100                    LDQ     X,,AUTO
         1 000134   000022 736000                    QLS     18
         1 000135   000000 036000 xsym               ADLQ    B$IS$
         1 000136   200004 470500                    LDP0    @P$,,AUTO
         1 000137   000000 756100                    STQ     0,,PR0
         1 000140   000311 710000 1                  TRA     s:3795

     1518     3767    3            CASE(%DA_LOC_SYM);

     1519     3768    3              CALL DAS$SDSRCHPTR(OUT.SUBLK$(0)->SYM.COUNT,T$) ALTRET(TRY_EDEF);

   3768  1 000141   000003 471500                    LDP1    3,,PR0
         1 000142   200012 633500                    EPPR3   T$,,AUTO
         1 000143   200027 453500                    STP3    UBIN18+2,,AUTO
         1 000144   100004 634500                    EPPR4   4,,PR1
         1 000145   200026 454500                    STP4    UBIN18+1,,AUTO
         1 000146   200026 630500                    EPPR0   UBIN18+1,,AUTO
         1 000147   000020 631400 xsym               EPPR1   B_VECTNIL+16
         1 000150   000000 701000 xent               TSX1    DAS$SDSRCHPTR
         1 000151   000153 702000 1                  TSX2    TRY_EDEF

     1520     3769    4              DO NEVER;

   3769  1 000152   000166 710000 1                  TRA     s:3773

     1521     3770    4   TRY_EDEF:     DA_SYMERR='0'B;

   3770  1 000153   000000 450000 xsym  TRY_EDEF     STZ     DA_SYMERR

     1522     3771    4                 CALL DAS$EDSRCHPTR(OUT.SUBLK$(0)->SYM.COUNT,T$) ALTRET(ALT);

   3771  1 000154   200007 470500                    LDP0    OUT$,,AUTO
PL6.E3A0      #004=DAA$EXP File=DAA$ANLZ.:E05TSI                                 TUE 07/29/97 12:36 Page:300
         1 000155   000003 471500                    LDP1    3,,PR0
         1 000156   200012 633500                    EPPR3   T$,,AUTO
         1 000157   200027 453500                    STP3    UBIN18+2,,AUTO
         1 000160   100004 634500                    EPPR4   4,,PR1
         1 000161   200026 454500                    STP4    UBIN18+1,,AUTO
         1 000162   200026 630500                    EPPR0   UBIN18+1,,AUTO
         1 000163   000020 631400 xsym               EPPR1   B_VECTNIL+16
         1 000164   000000 701000 xent               TSX1    DAS$EDSRCHPTR
         1 000165   000313 702000 1                  TSX2    ALT

     1523     3772    4                 END;

     1524     3773    3              IF OUT.NSUBLKS=2 THEN

   3773  1 000166   200007 470500                    LDP0    OUT$,,AUTO
         1 000167   000001 220100                    LDX0    1,,PR0
         1 000170   000002 100003                    CMPX0   2,DU
         1 000171   000206 601000 1                  TNZ     s:3775

     1525     3774    4                 CALL DAA$VALUE(OUT.SUBLK$(1)->OUT,X)WHENALTRETURN DO; ALTRETURN; END;

   3774  1 000172   000004 471500                    LDP1    4,,PR0
         1 000173   200011 633500                    EPPR3   X,,AUTO
         1 000174   200027 453500                    STP3    UBIN18+2,,AUTO
         1 000175   200026 451500                    STP1    UBIN18+1,,AUTO
         1 000176   200026 630500                    EPPR0   UBIN18+1,,AUTO
         1 000177   000020 631400 xsym               EPPR1   B_VECTNIL+16
         1 000200   000000 701000 xent               TSX1    DAA$VALUE
         1 000201   000203 702000 1                  TSX2    s:3774+9
         1 000202   000205 710000 1                  TRA     s:3774+11

   3774  1 000203   200020 221300                    LDX1  ! USER+1,,AUTO
         1 000204   000000 702211                    TSX2  ! 0,X1
         1 000205   000207 710000 1                  TRA     s:3776

     1526     3775    3              ELSE X=0;

PL6.E3A0      #004=DAA$EXP File=DAA$ANLZ.:E05TSI                                 TUE 07/29/97 12:36 Page:301
   3775  1 000206   200011 450100                    STZ     X,,AUTO

     1527     3776    3              P$=PINCRW(T$,X);

   3776  1 000207   200011 236100                    LDQ     X,,AUTO
         1 000210   000022 736000                    QLS     18
         1 000211   200012 036100                    ADLQ    T$,,AUTO
         1 000212   200004 470500                    LDP0    @P$,,AUTO
         1 000213   000000 756100                    STQ     0,,PR0
         1 000214   000311 710000 1                  TRA     s:3795

     1528     3777    3            CASE(%DA_LOC_DESC);

     1529     3778    3              P$=B$IS$;

   3778  1 000215   000000 236000 xsym               LDQ     B$IS$
         1 000216   200004 471500                    LDP1    @P$,,AUTO
         1 000217   100000 756100                    STQ     0,,PR1

     1530     3779    4              IF OUT.SUBLK$(0)->OUT.CODE=%DA_LOC_SPCL THEN DO;

   3779  1 000220   000003 473500                    LDP3    3,,PR0
         1 000221   300000 720100                    LXL0    0,,PR3
         1 000222   000001 100003                    CMPX0   1,DU
         1 000223   000237 601000 1                  TNZ     s:3785

     1531     3780    4                 P.SID.S=3;

   3780  1 000224   006000 236007                    LDQ     3072,DL
         1 000225   100000 256100                    ORSQ    0,,PR1

     1532     3781    4                 P.SID.D=OUT.SUBLK$(0)->OUT.SUBLK$(0)->OUT.CODE;

   3781  1 000226   000003 473500                    LDP3    3,,PR0
         1 000227   300003 474500                    LDP4    3,,PR3
         1 000230   400000 236100                    LDQ     0,,PR4
         1 000231   100000 676100                    ERQ     0,,PR1
PL6.E3A0      #004=DAA$EXP File=DAA$ANLZ.:E05TSI                                 TUE 07/29/97 12:36 Page:302
         1 000232   001777 376007                    ANQ     1023,DL
         1 000233   100000 656100                    ERSQ    0,,PR1

     1533     3782    4                 I=2;

   3782  1 000234   000002 235007                    LDA     2,DL
         1 000235   200010 755100                    STA     I,,AUTO

     1534     3783    4                 END;

   3783  1 000236   000266 710000 1                  TRA     s:3790

     1535     3784    4              ELSE DO;

     1536     3785    4                 P.SID.S=OUT.SUBLK$(0)->OUT.CODE;

   3785  1 000237   300000 236100                    LDQ     0,,PR3
         1 000240   000012 736000                    QLS     10
         1 000241   100000 676100                    ERQ     0,,PR1
         1 000242   006000 376007                    ANQ     3072,DL
         1 000243   100000 656100                    ERSQ    0,,PR1

     1537     3786    5                 CALL DAA$VALUE(OUT.SUBLK$(1)->OUT,X)WHENALTRETURN DO; ALTRETURN; END;

   3786  1 000244   000004 473500                    LDP3    4,,PR0
         1 000245   200011 634500                    EPPR4   X,,AUTO
         1 000246   200027 454500                    STP4    UBIN18+2,,AUTO
         1 000247   200026 453500                    STP3    UBIN18+1,,AUTO
         1 000250   200026 630500                    EPPR0   UBIN18+1,,AUTO
         1 000251   000020 631400 xsym               EPPR1   B_VECTNIL+16
         1 000252   000000 701000 xent               TSX1    DAA$VALUE
         1 000253   000255 702000 1                  TSX2    s:3786+9
         1 000254   000257 710000 1                  TRA     s:3787

   3786  1 000255   200020 221300                    LDX1  ! USER+1,,AUTO
         1 000256   000000 702211                    TSX2  ! 0,X1

PL6.E3A0      #004=DAA$EXP File=DAA$ANLZ.:E05TSI                                 TUE 07/29/97 12:36 Page:303
     1538     3787    4                 P.SID.D=X;

   3787  1 000257   200004 470500                    LDP0    @P$,,AUTO
         1 000260   200011 236100                    LDQ     X,,AUTO
         1 000261   000000 676100                    ERQ     0,,PR0
         1 000262   001777 376007                    ANQ     1023,DL
         1 000263   000000 656100                    ERSQ    0,,PR0

     1539     3788    4                 I=3;

   3788  1 000264   000003 235007                    LDA     3,DL
         1 000265   200010 755100                    STA     I,,AUTO

     1540     3789    4                 END;

     1541     3790    4              IF OUT.NSUBLKS=I THEN DO;

   3790  1 000266   200007 470500                    LDP0    OUT$,,AUTO
         1 000267   000001 236100                    LDQ     1,,PR0
         1 000270   000022 772000                    QRL     18
         1 000271   200010 116100                    CMPQ    I,,AUTO
         1 000272   000311 601000 1                  TNZ     s:3795

     1542     3791    5                CALL DAA$VALUE(OUT.SUBLK$(I-1)->OUT,X)WHENALTRETURN DO; ALTRETURN; END
              3791                          ;

   3791  1 000273   000002 471505                    LDP1    2,AL,PR0
         1 000274   200011 633500                    EPPR3   X,,AUTO
         1 000275   200027 453500                    STP3    UBIN18+2,,AUTO
         1 000276   200026 451500                    STP1    UBIN18+1,,AUTO
         1 000277   200026 630500                    EPPR0   UBIN18+1,,AUTO
         1 000300   000020 631400 xsym               EPPR1   B_VECTNIL+16
         1 000301   000000 701000 xent               TSX1    DAA$VALUE
         1 000302   000304 702000 1                  TSX2    s:3791+9
         1 000303   000306 710000 1                  TRA     s:3792

   3791  1 000304   200020 221300                    LDX1  ! USER+1,,AUTO
PL6.E3A0      #004=DAA$EXP File=DAA$ANLZ.:E05TSI                                 TUE 07/29/97 12:36 Page:304
         1 000305   000000 702211                    TSX2  ! 0,X1

     1543     3792    4                 P.OFFSET=X;

   3792  1 000306   200011 720100                    LXL0    X,,AUTO
         1 000307   200004 470500                    LDP0    @P$,,AUTO
         1 000310   000000 740100                    STX0    0,,PR0

     1544     3793    4                 END;

     1545     3794    3            END;

     1546     3795    2           RETURN;

   3795  1 000311   200020 221300                    LDX1  ! USER+1,,AUTO
         1 000312   000001 702211                    TSX2  ! 1,X1

     1547     3796    2   ALT:    ALTRETURN;

   3796  1 000313   200020 221300       ALT          LDX1  ! USER+1,,AUTO
         1 000314   000000 702211                    TSX2  ! 0,X1

     1548     3797        /**/
     1549     3798    2   END LOC;
     1550     3799        %EJECT;
PL6.E3A0      #004=DAA$EXP File=DAA$ANLZ.:E05TSI                                 TUE 07/29/97 12:36 Page:305
     1551     3800        /**/
     1552     3801    1   VAL_EXP: PROC ALTRET;

   3801  1 000315   200020 741300       VAL_EXP      STX1  ! USER+1,,AUTO

     1553     3802        /**/
     1554     3803    2           I=1;

   3803  1 000316   000001 235007                    LDA     1,DL
         1 000317   200010 755100                    STA     I,,AUTO

     1555     3804    3           CALL VALUE(V1,0) WHENALTRETURN DO; ALTRETURN; END;

   3804  1 000320   000000 236000 2                  LDQ     0
         1 000321   200024 756100                    STQ     @V+1,,AUTO
         1 000322   200013 630500                    EPPR0   V1,,AUTO
         1 000323   200023 450500                    STP0    USER+4,,AUTO
         1 000324   000637 701000 1                  TSX1    VALUE
         1 000325   000327 702000 1                  TSX2    s:3804+7
         1 000326   000331 710000 1                  TRA     s:3805

   3804  1 000327   200020 221300                    LDX1  ! USER+1,,AUTO
         1 000330   000000 702211                    TSX2  ! 0,X1

     1556     3805    3           DO WHILE(I<OUT.NSUBLKS);

   3805  1 000331   200007 470500                    LDP0    OUT$,,AUTO
         1 000332   000001 236100                    LDQ     1,,PR0
         1 000333   000022 772000                    QRL     18
         1 000334   200010 116100                    CMPQ    I,,AUTO
         1 000335   000451 604400 1                  TMOZ    s:3825

     1557     3806    4              CALL VALUE(V2,I+1) WHENALTRETURN DO; ALTRETURN; END;

   3806  1 000336   200010 235100                    LDA     I,,AUTO
         1 000337   000001 035007                    ADLA    1,DL
         1 000340   200035 755100                    STA     UBIN18+8,,AUTO
PL6.E3A0      #004=DAA$EXP File=DAA$ANLZ.:E05TSI                                 TUE 07/29/97 12:36 Page:306
         1 000341   200035 630500                    EPPR0   UBIN18+8,,AUTO
         1 000342   200024 450500                    STP0    @V+1,,AUTO
         1 000343   200014 631500                    EPPR1   V2,,AUTO
         1 000344   200023 451500                    STP1    USER+4,,AUTO
         1 000345   000637 701000 1                  TSX1    VALUE
         1 000346   000350 702000 1                  TSX2    s:3806+10
         1 000347   000352 710000 1                  TRA     s:3807

   3806  1 000350   200020 221300                    LDX1  ! USER+1,,AUTO
         1 000351   000000 702211                    TSX2  ! 0,X1

     1558     3807    4              DO CASE(OUT.SUBLK$(I)->OUT.CODE);

   3807  1 000352   200007 470500                    LDP0    OUT$,,AUTO
         1 000353   200010 720100                    LXL0    I,,AUTO
         1 000354   000003 471510                    LDP1    3,X0,PR0
         1 000355   100000 721100                    LXL1    0,,PR1
         1 000356   000006 101003                    CMPX1   6,DU
         1 000357   000361 602011 1                  TNC     s:3807+7,X1
         1 000360   000442 710000 1                  TRA     s:3823
         1 000361   000442 710000 1                  TRA     s:3823
         1 000362   000367 710000 1                  TRA     s:3809
         1 000363   000373 710000 1                  TRA     s:3811
         1 000364   000377 710000 1                  TRA     s:3813
         1 000365   000433 710000 1                  TRA     s:3819
         1 000366   000437 710000 1                  TRA     s:3821

     1559     3808    4               CASE(%DA_OP_PLUS);

     1560     3809    4                 V1=V1+V2;

   3809  1 000367   200013 236100                    LDQ     V1,,AUTO
         1 000370   200014 036100                    ADLQ    V2,,AUTO
         1 000371   200013 756100                    STQ     V1,,AUTO
         1 000372   000442 710000 1                  TRA     s:3823

     1561     3810    4               CASE(%DA_OP_MINUS);
PL6.E3A0      #004=DAA$EXP File=DAA$ANLZ.:E05TSI                                 TUE 07/29/97 12:36 Page:307

     1562     3811    4                 V1S=V1S-V2S;

   3811  1 000373   200013 236100                    LDQ     V1,,AUTO
         1 000374   200014 136100                    SBLQ    V2,,AUTO
         1 000375   200013 756100                    STQ     V1,,AUTO
         1 000376   000442 710000 1                  TRA     s:3823

     1563     3812    4               CASE(%DA_OP_POINT);

     1564     3813    4                 T$=PINCRW(B$IS$,V1);

   3813  1 000377   200013 236100                    LDQ     V1,,AUTO
         1 000400   000022 736000                    QLS     18
         1 000401   000000 036000 xsym               ADLQ    B$IS$
         1 000402   200012 756100                    STQ     T$,,AUTO

     1565     3814    5                CALL DAM$MAP(T$,V1$,USER,DOM,VECTOR(T$->UBIN36BASE)) WHENALTRETURN DO;

   3814  1 000403   777640 235007                    LDA     -96,DL
         1 000404   200026 757100                    STAQ    UBIN18+1,,AUTO
         1 000405   200026 631500                    EPPR1   UBIN18+1,,AUTO
         1 000406   200034 451500                    STP1    UBIN18+7,,AUTO
         1 000407   200016 633500                    EPPR3   DOM,,AUTO
         1 000410   200033 453500                    STP3    UBIN18+6,,AUTO
         1 000411   200017 634500                    EPPR4   USER,,AUTO
         1 000412   200032 454500                    STP4    UBIN18+5,,AUTO
         1 000413   200013 635500                    EPPR5   V1,,AUTO
         1 000414   200031 455500                    STP5    UBIN18+4,,AUTO
         1 000415   200012 636500                    EPPR6   T$,,AUTO
         1 000416   200030 456500                    STP6    UBIN18+3,,AUTO
         1 000417   200030 630500                    EPPR0   UBIN18+3,,AUTO
         1 000420   000023 631400 xsym               EPPR1   B_VECTNIL+19
         1 000421   000000 701000 xent               TSX1    DAM$MAP
         1 000422   000424 702000 1                  TSX2    s:3815
         1 000423   000426 710000 1                  TRA     s:3817

PL6.E3A0      #004=DAA$EXP File=DAA$ANLZ.:E05TSI                                 TUE 07/29/97 12:36 Page:308
     1566     3815    5                    ALTRETURN;

   3815  1 000424   200020 221300                    LDX1  ! USER+1,,AUTO
         1 000425   000000 702211                    TSX2  ! 0,X1

     1567     3816    5                    END;
     1568     3817    4                 V1=V1$->UBIN36BASE+V2;

   3817  1 000426   200013 470500                    LDP0    V1,,AUTO
         1 000427   000000 236100                    LDQ     0,,PR0
         1 000430   200014 036100                    ADLQ    V2,,AUTO
         1 000431   200013 756100                    STQ     V1,,AUTO
         1 000432   000442 710000 1                  TRA     s:3823

     1569     3818    4               CASE(%DA_OP_MULT);

     1570     3819    4                 V1=V1*V2;

   3819  1 000433   200013 236100                    LDQ     V1,,AUTO
         1 000434   200014 402100                    MPY     V2,,AUTO
         1 000435   200013 756100                    STQ     V1,,AUTO
         1 000436   000442 710000 1                  TRA     s:3823

     1571     3820    4               CASE(%DA_OP_DIV);

     1572     3821    4                 V1=V1S/V2S;

   3821  1 000437   200013 236100                    LDQ     V1,,AUTO
         1 000440   200014 506100                    DIV     V2,,AUTO
         1 000441   200013 756100                    STQ     V1,,AUTO

     1573     3822    4               END;

     1574     3823    3              I=I+2;

   3823  1 000442   000002 236007                    LDQ     2,DL
         1 000443   200010 056100                    ASQ     I,,AUTO
PL6.E3A0      #004=DAA$EXP File=DAA$ANLZ.:E05TSI                                 TUE 07/29/97 12:36 Page:309

     1575     3824    3              END;

   3824  1 000444   200007 470500                    LDP0    OUT$,,AUTO
         1 000445   000001 236100                    LDQ     1,,PR0
         1 000446   000022 772000                    QRL     18
         1 000447   200010 116100                    CMPQ    I,,AUTO
         1 000450   000336 605400 1                  TPNZ    s:3806

     1576     3825    2           VAL=V1;

   3825  1 000451   200004 471500                    LDP1    @P$,,AUTO
         1 000452   200013 235100                    LDA     V1,,AUTO
         1 000453   100000 755100                    STA     0,,PR1

     1577     3826    2           RETURN;

   3826  1 000454   200020 221300                    LDX1  ! USER+1,,AUTO
         1 000455   000001 702211                    TSX2  ! 1,X1

     1578     3827    2   END VAL_EXP;
     1579     3828        %EJECT;
PL6.E3A0      #004=DAA$EXP File=DAA$ANLZ.:E05TSI                                 TUE 07/29/97 12:36 Page:310
     1580     3829        /**/
     1581     3830    1   ADR_EXP: PROC ALTRET;

   3830  1 000456   200020 741300       ADR_EXP      STX1  ! USER+1,,AUTO

     1582     3831        /**/
     1583     3832    2           I=1;

   3832  1 000457   000001 235007                    LDA     1,DL
         1 000460   200010 755100                    STA     I,,AUTO

     1584     3833    3           CALL VALUE(V2,0) WHENALTRETURN DO; ALTRETURN; END;

   3833  1 000461   000000 236000 2                  LDQ     0
         1 000462   200024 756100                    STQ     @V+1,,AUTO
         1 000463   200014 630500                    EPPR0   V2,,AUTO
         1 000464   200023 450500                    STP0    USER+4,,AUTO
         1 000465   000637 701000 1                  TSX1    VALUE
         1 000466   000470 702000 1                  TSX2    s:3833+7
         1 000467   000472 710000 1                  TRA     s:3834

   3833  1 000470   200020 221300                    LDX1  ! USER+1,,AUTO
         1 000471   000000 702211                    TSX2  ! 0,X1

     1585     3834    2           IF PTRFLAG THEN

   3834  1 000472   200015 234100                    SZN     PTRFLAG,,AUTO
         1 000473   000477 605000 1                  TPL     s:3837

     1586     3835    2              V1$=V2$;

   3835  1 000474   200014 236100                    LDQ     V2,,AUTO
         1 000475   200013 756100                    STQ     V1,,AUTO
         1 000476   000503 710000 1                  TRA     s:3838

     1587     3836    2           ELSE
     1588     3837    2              V1$=PINCRW(B$IS$,V2);
PL6.E3A0      #004=DAA$EXP File=DAA$ANLZ.:E05TSI                                 TUE 07/29/97 12:36 Page:311

   3837  1 000477   200014 236100                    LDQ     V2,,AUTO
         1 000500   000022 736000                    QLS     18
         1 000501   000000 036000 xsym               ADLQ    B$IS$
         1 000502   200013 756100                    STQ     V1,,AUTO

     1589     3838    3           DO WHILE(I<OUT.NSUBLKS);

   3838  1 000503   200007 470500                    LDP0    OUT$,,AUTO
         1 000504   000001 236100                    LDQ     1,,PR0
         1 000505   000022 772000                    QRL     18
         1 000506   200010 116100                    CMPQ    I,,AUTO
         1 000507   000632 604400 1                  TMOZ    s:3858

     1590     3839    4              CALL VALUE(V2,I+1) WHENALTRETURN DO; ALTRETURN; END;

   3839  1 000510   200010 235100                    LDA     I,,AUTO
         1 000511   000001 035007                    ADLA    1,DL
         1 000512   200036 755100                    STA     UBIN18+9,,AUTO
         1 000513   200036 630500                    EPPR0   UBIN18+9,,AUTO
         1 000514   200024 450500                    STP0    @V+1,,AUTO
         1 000515   200014 631500                    EPPR1   V2,,AUTO
         1 000516   200023 451500                    STP1    USER+4,,AUTO
         1 000517   000637 701000 1                  TSX1    VALUE
         1 000520   000522 702000 1                  TSX2    s:3839+10
         1 000521   000524 710000 1                  TRA     s:3840

   3839  1 000522   200020 221300                    LDX1  ! USER+1,,AUTO
         1 000523   000000 702211                    TSX2  ! 0,X1

     1591     3840    4              DO CASE(OUT.SUBLK$(I)->OUT.CODE);

   3840  1 000524   200007 470500                    LDP0    OUT$,,AUTO
         1 000525   200010 720100                    LXL0    I,,AUTO
         1 000526   000003 471510                    LDP1    3,X0,PR0
         1 000527   100000 721100                    LXL1    0,,PR1
         1 000530   000006 101003                    CMPX1   6,DU
PL6.E3A0      #004=DAA$EXP File=DAA$ANLZ.:E05TSI                                 TUE 07/29/97 12:36 Page:312
         1 000531   000533 602011 1                  TNC     s:3840+7,X1
         1 000532   000623 710000 1                  TRA     s:3856
         1 000533   000623 710000 1                  TRA     s:3856
         1 000534   000541 710000 1                  TRA     s:3842
         1 000535   000546 710000 1                  TRA     s:3844
         1 000536   000554 710000 1                  TRA     s:3846
         1 000537   000610 710000 1                  TRA     s:3852
         1 000540   000616 710000 1                  TRA     s:3854

     1592     3841    4               CASE(%DA_OP_PLUS);

     1593     3842    4                 V1$=PINCRW(V1$,V2);

   3842  1 000541   200014 236100                    LDQ     V2,,AUTO
         1 000542   000022 736000                    QLS     18
         1 000543   200013 036100                    ADLQ    V1,,AUTO
         1 000544   200013 756100                    STQ     V1,,AUTO
         1 000545   000623 710000 1                  TRA     s:3856

     1594     3843    4               CASE(%DA_OP_MINUS);

     1595     3844    4                 V1$=PINCRW(V1$,-V2);

   3844  1 000546   000000 236003                    LDQ     0,DU
         1 000547   200014 136100                    SBLQ    V2,,AUTO
         1 000550   000022 736000                    QLS     18
         1 000551   200013 036100                    ADLQ    V1,,AUTO
         1 000552   200013 756100                    STQ     V1,,AUTO
         1 000553   000623 710000 1                  TRA     s:3856

     1596     3845    4               CASE(%DA_OP_POINT);

     1597     3846    5                 CALL DAM$MAP(V1$,V1$,USER,DOM,VECTOR(V1$->PBASE$)) WHENALTRETURN DO;

   3846  1 000554   777640 235007                    LDA     -96,DL
         1 000555   200013 236100                    LDQ     V1,,AUTO
         1 000556   200026 757100                    STAQ    UBIN18+1,,AUTO
PL6.E3A0      #004=DAA$EXP File=DAA$ANLZ.:E05TSI                                 TUE 07/29/97 12:36 Page:313
         1 000557   200026 631500                    EPPR1   UBIN18+1,,AUTO
         1 000560   200034 451500                    STP1    UBIN18+7,,AUTO
         1 000561   200016 633500                    EPPR3   DOM,,AUTO
         1 000562   200033 453500                    STP3    UBIN18+6,,AUTO
         1 000563   200017 634500                    EPPR4   USER,,AUTO
         1 000564   200032 454500                    STP4    UBIN18+5,,AUTO
         1 000565   200013 635500                    EPPR5   V1,,AUTO
         1 000566   200031 455500                    STP5    UBIN18+4,,AUTO
         1 000567   200013 636500                    EPPR6   V1,,AUTO
         1 000570   200030 456500                    STP6    UBIN18+3,,AUTO
         1 000571   200030 630500                    EPPR0   UBIN18+3,,AUTO
         1 000572   000023 631400 xsym               EPPR1   B_VECTNIL+19
         1 000573   000000 701000 xent               TSX1    DAM$MAP
         1 000574   000576 702000 1                  TSX2    s:3847
         1 000575   000600 710000 1                  TRA     s:3849

     1598     3847    5                    ALTRETURN;

   3847  1 000576   200020 221300                    LDX1  ! USER+1,,AUTO
         1 000577   000000 702211                    TSX2  ! 0,X1

     1599     3848    5                    END;
     1600     3849    4                 T$=V1$->PBASE$;

   3849  1 000600   200013 470500                    LDP0    V1,,AUTO
         1 000601   000000 236100                    LDQ     0,,PR0
         1 000602   200012 756100                    STQ     T$,,AUTO

     1601     3850    4                 V1$=PINCRW(T$,V2);

   3850  1 000603   200014 236100                    LDQ     V2,,AUTO
         1 000604   000022 736000                    QLS     18
         1 000605   200012 036100                    ADLQ    T$,,AUTO
         1 000606   200013 756100                    STQ     V1,,AUTO
         1 000607   000623 710000 1                  TRA     s:3856

     1602     3851    4               CASE(%DA_OP_MULT);
PL6.E3A0      #004=DAA$EXP File=DAA$ANLZ.:E05TSI                                 TUE 07/29/97 12:36 Page:314

     1603     3852    4                 V1P.WA=V1P.WA*V2;

   3852  1 000610   200013 236100                    LDQ     V1,,AUTO
         1 000611   000022 772000                    QRL     18
         1 000612   200014 402100                    MPY     V2,,AUTO
         1 000613   000000 622006                    EAX2    0,QL
         1 000614   200013 742100                    STX2    V1,,AUTO
         1 000615   000623 710000 1                  TRA     s:3856

     1604     3853    4               CASE(%DA_OP_DIV);

     1605     3854    4                 V1P.WA=V1P.WA*V2;

   3854  1 000616   200013 236100                    LDQ     V1,,AUTO
         1 000617   000022 772000                    QRL     18
         1 000620   200014 402100                    MPY     V2,,AUTO
         1 000621   000000 622006                    EAX2    0,QL
         1 000622   200013 742100                    STX2    V1,,AUTO

     1606     3855    4               END;

     1607     3856    3              I=I+2;

   3856  1 000623   000002 236007                    LDQ     2,DL
         1 000624   200010 056100                    ASQ     I,,AUTO

     1608     3857    3              END;

   3857  1 000625   200007 470500                    LDP0    OUT$,,AUTO
         1 000626   000001 236100                    LDQ     1,,PR0
         1 000627   000022 772000                    QRL     18
         1 000630   200010 116100                    CMPQ    I,,AUTO
         1 000631   000510 605400 1                  TPNZ    s:3839

     1609     3858    2           P$=V1$;

PL6.E3A0      #004=DAA$EXP File=DAA$ANLZ.:E05TSI                                 TUE 07/29/97 12:36 Page:315
   3858  1 000632   200013 236100                    LDQ     V1,,AUTO
         1 000633   200004 471500                    LDP1    @P$,,AUTO
         1 000634   100000 756100                    STQ     0,,PR1

     1610     3859    2           RETURN;

   3859  1 000635   200020 221300                    LDX1  ! USER+1,,AUTO
         1 000636   000001 702211                    TSX2  ! 1,X1

     1611     3860        /**/
     1612     3861    2   END ADR_EXP;
     1613     3862        %EJECT;
PL6.E3A0      #004=DAA$EXP File=DAA$ANLZ.:E05TSI                                 TUE 07/29/97 12:36 Page:316
     1614     3863        /**/
     1615     3864    1   VALUE:  PROC(V,NODX) ALTRET;

   3864  1 000637   200022 741300       VALUE        STX1  ! USER+3,,AUTO

     1616     3865        /**/
     1617     3866    2   DCL V UBIN WORD;
     1618     3867    2   DCL V$ REDEF V PTR;
     1619     3868    2   DCL 1 VP REDEF V,
     1620     3869    2         2 OFFSET UBIN(18) UNAL,
     1621     3870    2         2 * UBIN(6) UNAL,
     1622     3871    2         2 SID,
     1623     3872    2           3 S UBIN(2) UNAL,
     1624     3873    2           3 D UBIN(10) UNAL;
     1625     3874    2   DCL NODX UBIN WORD;
     1626     3875    2   DCL UBIN18 UBIN(18) ALIGNED;
     1627     3876        /**/
     1628     3877    2           PTRFLAG='0'B;

   3877  1 000640   200015 450100                    STZ     PTRFLAG,,AUTO

     1629     3878    3           DO CASE(OUT.SUBLK$(NODX)->OUT.CODE);

   3878  1 000641   200024 470500                    LDP0    @NODX,,AUTO
         1 000642   000000 720100                    LXL0    0,,PR0
         1 000643   200007 471500                    LDP1    OUT$,,AUTO
         1 000644   100003 473510                    LDP3    3,X0,PR1
         1 000645   300000 722100                    LXL2    0,,PR3
         1 000646   000004 102003                    CMPX2   4,DU
         1 000647   000651 602012 1                  TNC     s:3878+8,X2
         1 000650   001023 710000 1                  TRA     s:3908
         1 000651   001023 710000 1                  TRA     s:3908
         1 000652   000655 710000 1                  TRA     s:3880
         1 000653   000671 710000 1                  TRA     s:3882
         1 000654   000727 710000 1                  TRA     s:3890

     1630     3879    3            CASE(%DA_EXP_NUMBER);
PL6.E3A0      #004=DAA$EXP File=DAA$ANLZ.:E05TSI                                 TUE 07/29/97 12:36 Page:317

     1631     3880    4              CALL DAA$VALUE(OUT.SUBLK$(NODX)->OUT.SUBLK$(0)->OUT,V)WHENALTRETURN DO;
              3880                       ALTRETURN; END;

   3880  1 000655   300003 474500                    LDP4    3,,PR3
         1 000656   200023 236100                    LDQ     @V,,AUTO
         1 000657   200027 756100                    STQ     UBIN18+2,,AUTO
         1 000660   200026 454500                    STP4    UBIN18+1,,AUTO
         1 000661   200026 630500                    EPPR0   UBIN18+1,,AUTO
         1 000662   000020 631400 xsym               EPPR1   B_VECTNIL+16
         1 000663   000000 701000 xent               TSX1    DAA$VALUE
         1 000664   000666 702000 1                  TSX2    s:3880+9
         1 000665   000670 710000 1                  TRA     s:3880+11

   3880  1 000666   200022 221300                    LDX1  ! USER+3,,AUTO
         1 000667   000000 702211                    TSX2  ! 0,X1
         1 000670   001023 710000 1                  TRA     s:3908

     1632     3881    3            CASE(%DA_EXP_SYMBOL);

     1633     3882    4              CALL DAS$SDSRCHPTR(OUT.SUBLK$(NODX)->SYM.COUNT,UBIN18) WHENALTRETURN DO;

   3882  1 000671   200025 634500                    EPPR4   UBIN18,,AUTO
         1 000672   200027 454500                    STP4    UBIN18+2,,AUTO
         1 000673   300004 635500                    EPPR5   4,,PR3
         1 000674   200026 455500                    STP5    UBIN18+1,,AUTO
         1 000675   200026 630500                    EPPR0   UBIN18+1,,AUTO
         1 000676   000020 631400 xsym               EPPR1   B_VECTNIL+16
         1 000677   000000 701000 xent               TSX1    DAS$SDSRCHPTR
         1 000700   000702 702000 1                  TSX2    s:3883
         1 000701   000722 710000 1                  TRA     s:3888

     1634     3883    4                 DA_SYMERR='0'B;

   3883  1 000702   000000 450000 xsym               STZ     DA_SYMERR

     1635     3884    5                 CALL DAS$EDSRCHPTR(OUT.SUBLK$(NODX)->SYM.COUNT,UBIN18) WHENALTRETURN
PL6.E3A0      #004=DAA$EXP File=DAA$ANLZ.:E05TSI                                 TUE 07/29/97 12:36 Page:318
              3884                          DO;

   3884  1 000703   200024 470500                    LDP0    @NODX,,AUTO
         1 000704   000000 720100                    LXL0    0,,PR0
         1 000705   200007 471500                    LDP1    OUT$,,AUTO
         1 000706   100003 473510                    LDP3    3,X0,PR1
         1 000707   200025 634500                    EPPR4   UBIN18,,AUTO
         1 000710   200027 454500                    STP4    UBIN18+2,,AUTO
         1 000711   300004 635500                    EPPR5   4,,PR3
         1 000712   200026 455500                    STP5    UBIN18+1,,AUTO
         1 000713   200026 630500                    EPPR0   UBIN18+1,,AUTO
         1 000714   000020 631400 xsym               EPPR1   B_VECTNIL+16
         1 000715   000000 701000 xent               TSX1    DAS$EDSRCHPTR
         1 000716   000720 702000 1                  TSX2    s:3885
         1 000717   000722 710000 1                  TRA     s:3888

     1636     3885    5                    ALTRETURN;

   3885  1 000720   200022 221300                    LDX1  ! USER+3,,AUTO
         1 000721   000000 702211                    TSX2  ! 0,X1

     1637     3886    5                    END;
     1638     3887    4                 END;

     1639     3888    3              V=UBIN18;

   3888  1 000722   200025 235100                    LDA     UBIN18,,AUTO
         1 000723   000022 771000                    ARL     18
         1 000724   200023 470500                    LDP0    @V,,AUTO
         1 000725   000000 755100                    STA     0,,PR0
         1 000726   001023 710000 1                  TRA     s:3908

     1640     3889    3            CASE(%DA_EXP_SEGMENT);

     1641     3890    3              PTRFLAG='1'B;

   3890  1 000727   400000 236003                    LDQ     -131072,DU
PL6.E3A0      #004=DAA$EXP File=DAA$ANLZ.:E05TSI                                 TUE 07/29/97 12:36 Page:319
         1 000730   200015 756100                    STQ     PTRFLAG,,AUTO

     1642     3891    3              VP='0'B;

   3891  1 000731   200023 474500                    LDP4    @V,,AUTO
         1 000732   400000 450100                    STZ     0,,PR4

     1643     3892    4              IF OUT.SUBLK$(NODX)->OUT.SUBLK$(0)->OUT.CODE=%DA_LOC_SPCL THEN DO;

   3892  1 000733   000000 720100                    LXL0    0,,PR0
         1 000734   100003 473510                    LDP3    3,X0,PR1
         1 000735   300003 475500                    LDP5    3,,PR3
         1 000736   500000 721100                    LXL1    0,,PR5
         1 000737   000001 101003                    CMPX1   1,DU
         1 000740   000754 601000 1                  TNZ     s:3897

     1644     3893    4                 VP.SID.S=3;

   3893  1 000741   006000 236007                    LDQ     3072,DL
         1 000742   400000 256100                    ORSQ    0,,PR4

     1645     3894    4                 VP.SID.D=OUT.SUBLK$(NODX)->OUT.SUBLK$(0)->OUT.SUBLK$(0)->OUT.CODE;

   3894  1 000743   000000 720100                    LXL0    0,,PR0
         1 000744   100003 473510                    LDP3    3,X0,PR1
         1 000745   300003 475500                    LDP5    3,,PR3
         1 000746   500003 476500                    LDP6    3,,PR5
         1 000747   600000 236100                    LDQ     0,,PR6
         1 000750   400000 676100                    ERQ     0,,PR4
         1 000751   001777 376007                    ANQ     1023,DL
         1 000752   400000 656100                    ERSQ    0,,PR4

     1646     3895    4                 END;

   3895  1 000753   001003 710000 1                  TRA     s:3903

     1647     3896    4              ELSE DO;
PL6.E3A0      #004=DAA$EXP File=DAA$ANLZ.:E05TSI                                 TUE 07/29/97 12:36 Page:320

     1648     3897    4                 VP.SID.S=OUT.SUBLK$(NODX)->OUT.SUBLK$(0)->OUT.CODE;

   3897  1 000754   500000 236100                    LDQ     0,,PR5
         1 000755   000012 736000                    QLS     10
         1 000756   400000 676100                    ERQ     0,,PR4
         1 000757   006000 376007                    ANQ     3072,DL
         1 000760   400000 656100                    ERSQ    0,,PR4

     1649     3898    5                 CALL DAA$VALUE(OUT.SUBLK$(NODX)->OUT.SUBLK$(1)->OUT,X) WHENALTRETURN
              3898                          DO;

   3898  1 000761   000000 720100                    LXL0    0,,PR0
         1 000762   100003 473510                    LDP3    3,X0,PR1
         1 000763   300004 475500                    LDP5    4,,PR3
         1 000764   200011 636500                    EPPR6   X,,AUTO
         1 000765   200027 456500                    STP6    UBIN18+2,,AUTO
         1 000766   200026 455500                    STP5    UBIN18+1,,AUTO
         1 000767   200026 630500                    EPPR0   UBIN18+1,,AUTO
         1 000770   000020 631400 xsym               EPPR1   B_VECTNIL+16
         1 000771   000000 701000 xent               TSX1    DAA$VALUE
         1 000772   000774 702000 1                  TSX2    s:3899
         1 000773   000776 710000 1                  TRA     s:3901

     1650     3899    5                    ALTRETURN;

   3899  1 000774   200022 221300                    LDX1  ! USER+3,,AUTO
         1 000775   000000 702211                    TSX2  ! 0,X1

     1651     3900    5                    END;
     1652     3901    4                 VP.SID.D=X;

   3901  1 000776   200023 470500                    LDP0    @V,,AUTO
         1 000777   200011 236100                    LDQ     X,,AUTO
         1 001000   000000 676100                    ERQ     0,,PR0
         1 001001   001777 376007                    ANQ     1023,DL
         1 001002   000000 656100                    ERSQ    0,,PR0
PL6.E3A0      #004=DAA$EXP File=DAA$ANLZ.:E05TSI                                 TUE 07/29/97 12:36 Page:321

     1653     3902    4                 END;

     1654     3903    4              IF NODX+1<OUT.NSUBLKS THEN DO;

   3903  1 001003   200007 470500                    LDP0    OUT$,,AUTO
         1 001004   000001 236100                    LDQ     1,,PR0
         1 001005   000022 772000                    QRL     18
         1 001006   200026 756100                    STQ     UBIN18+1,,AUTO
         1 001007   200024 471500                    LDP1    @NODX,,AUTO
         1 001010   100000 236100                    LDQ     0,,PR1
         1 001011   000001 036007                    ADLQ    1,DL
         1 001012   200026 116100                    CMPQ    UBIN18+1,,AUTO
         1 001013   001023 603000 1                  TRC     s:3908

     1655     3904    4                 IF OUT.SUBLK$(NODX+1)->OUT.CODE=%DA_OP_POINT THEN

   3904  1 001014   100000 720100                    LXL0    0,,PR1
         1 001015   000004 473510                    LDP3    4,X0,PR0
         1 001016   300000 721100                    LXL1    0,,PR3
         1 001017   000003 101003                    CMPX1   3,DU
         1 001020   001023 601000 1                  TNZ     s:3908

     1656     3905    4                    OUT.SUBLK$(NODX+1)->OUT.CODE=%DA_OP_PLUS;

   3905  1 001021   000001 222003                    LDX2    1,DU
         1 001022   300000 442100                    SXL2    0,,PR3

     1657     3906    4                 END;

     1658     3907    3            END;

     1659     3908    2           RETURN;

   3908  1 001023   200022 221300                    LDX1  ! USER+3,,AUTO
         1 001024   000001 702211                    TSX2  ! 1,X1
     1660     3909        /**/
PL6.E3A0      #004=DAA$EXP File=DAA$ANLZ.:E05TSI                                 TUE 07/29/97 12:36 Page:322
     1661     3910    2   END VALUE;
     1662     3911    1   END DAA$EXP;
     1663     3912        %EOD;

PL6.E3A0      #004=DAA$EXP File=DAA$ANLZ.:E05TSI                                 TUE 07/29/97 12:36 Page:323
--  Include file information  --

   DA_SYMBOLS_R.:E05TOU  cannot be made into a system file and is referenced.
   DA_CMD_C.:E05TOU  is referenced.
   XU_MACRO_C.:E05TOU  is referenced.
   CP_6.:E05TOU  cannot be made into a system file and is referenced.
   B$JIT_C.:E05TOU  was found in the system file and is never referenced.
   CP_6_C.:E05TOU  was found in the system file and is referenced.
      No diagnostics issued in procedure DAA$EXP.
PL6.E3A0      #004=DAA$EXP File=DAA$ANLZ.:E05TSI                                 TUE 07/29/97 12:36 Page:324

 **** Variables and constants ****

  ****  Auto variables  ****

  ****  Scalars and arrays  ****
OctLoc.c.b A Datatyp(siz) R M Lvl/name                 OctLoc.c.b A Datatyp(siz) R M Lvl/name

     6-0-0/w PTR         r     1 @DMN                      24-0-0/w PTR         r     1 @NODX
     4-0-0/w PTR         r     1 @P$                        3-0-0/w PTR         r     1 @TOP
     5-0-0/w PTR         r     1 @USR                      23-0-0/w PTR         r     1 @V
    *0-0-0/w SBIN        r     1 DMN                       16-0-0/w SBIN        r     1 DOM
    10-0-0/w SBIN        r     1 I                         *0-0-0/w UBIN        r     1 NODX
     7-0-0/w PTR         r     1 OUT$                      *0-0-0/w STRC        r     1 P
    *0-0-0/w PTR         r     1 P$                        15-0-0/w BIT         r     1 PTRFLAG
    12-0-0/w PTR         r     1 T$                        *0-0-0/w STRC(144)   r     1 TOP
    25-0-0/w UBIN(18)    r     1 UBIN18                    17-0-0/w SBIN        r     1 USER
    *0-0-0/w SBIN        r     1 USR                       *0-0-0/w UBIN        r     1 V
    13-0-0/w UBIN        r     1 V1                        13-0-0/w PTR         r     1 V1$
    13-0-0/w STRC        r     1 V1P                       13-0-0/w SBIN        r     1 V1S
    14-0-0/w UBIN        r     1 V2                        14-0-0/w PTR         r     1 V2$
    14-0-0/w SBIN        r     1 V2S                       *0-0-0/w UBIN        r     1 VAL
    *0-0-0/w STRC        r     1 VP                        11-0-0/w SBIN        r     1 X

  ****  SYMREF variables  ****

  ****  Scalars and arrays  ****
OctLoc.c.b A Datatyp(siz) R M Lvl/name                 OctLoc.c.b A Datatyp(siz) R M Lvl/name

     0-0-0/w PTR         r     1 B$IS$                      0-0-0/b STRC        r     1 DA_SYMERR

  ****  BASED and DCB variables  ****

  ****  Scalars and arrays  ****
OctLoc.c.b A Datatyp(siz) R M Lvl/name                 OctLoc.c.b A Datatyp(siz) R M Lvl/name

     0-0-0/w STRC(144)   r     1 OUT                        0-0-0/w PTR         r     1 PBASE$
     0-0-0/w ASTR(153)   r     1 SYM                        0-0-0/w UBIN        r     1 UBIN36BASE
PL6.E3A0      #004=DAA$EXP File=DAA$ANLZ.:E05TSI                                 TUE 07/29/97 12:36 Page:325


   Procedure DAA$EXP requires 533 words for executable code.
   Procedure DAA$EXP requires 32 words of local(AUTO) storage.
PL6.E3A0      #004=DAA$EXP File=DAA$ANLZ.:E05TSI                                 TUE 07/29/97 12:36 Page:326
          *** CROSS REFERENCE LISTING ***
**     DENOTES     IDENTIFIER DEFINITION
<<                 IDENTIFIER'S VALUE SET
>>                 IDENTIFIER'S VALUE USED
<>                 IDENTIFIER SET AND/OR USED
--                 IDENTIFIER REFERENCED
PL6.E3A0      #004=DAA$EXP File=DAA$ANLZ.:E05TSI                                 TUE 07/29/97 12:36 Page:327
          MINI XREF LISTING

ADR_EXP
      3830**PROC     3749--CALL
ALT IN PROCEDURE LOC
      3796**LABEL    3771--CALLALT
B$IS$
      3619**DCL      3766>>ASSIGN   3778>>ASSIGN   3813>>ASSIGN   3837>>ASSIGN
DAA$VALUE
      3616**DCL-ENT  3765--CALL     3774--CALL     3786--CALL     3791--CALL     3880--CALL     3898--CALL
DAM$MAP
      3617**DCL-ENT  3814--CALL     3846--CALL
DAS$EDSRCHPTR
      3615**DCL-ENT  3771--CALL     3884--CALL
DAS$SDSRCHPTR
      3614**DCL-ENT  3768--CALL     3882--CALL
DA_SYMERR
      3553**DCL      3770<<ASSIGN   3883<<ASSIGN
DA_SYMSEG.P
      3552**DCL      3553--REDEF
DMN
      3612**DCL         6--PROC     3736--IF       3739>>ASSIGN
DOM
      3722**DCL      3737<<ASSIGN   3739<<ASSIGN   3814<>CALL     3846<>CALL
I
      3706**DCL      3782<<ASSIGN   3788<<ASSIGN   3790>>IF       3791>>CALL     3803<<ASSIGN   3805>>DOWHILE
      3806>>CALL     3807>>DOCASE   3823<<ASSIGN   3823>>ASSIGN   3832<<ASSIGN   3838>>DOWHILE  3839>>CALL
      3840>>DOCASE   3856<<ASSIGN   3856>>ASSIGN
LOC
      3760**PROC     3743--CALL
M$XXX
        29**DCL-ENT  3755--CALL
NODX IN PROCEDURE VALUE
      3874**DCL      3864--PROC     3878>>DOCASE   3880>>CALL     3882>>CALL     3884>>CALL     3892>>IF
PL6.E3A0      #004=DAA$EXP File=DAA$ANLZ.:E05TSI                                 TUE 07/29/97 12:36 Page:328
      3894>>ASSIGN   3897>>ASSIGN   3898>>CALL     3903>>IF       3904>>IF       3905>>ASSIGN
OUT
      3628**DCL      3765<>CALL     3774<>CALL     3786<>CALL     3791<>CALL     3880<>CALL     3898<>CALL
OUT.CODE
      3636**DCL      3741>>DOCASE   3763>>DOCASE   3779>>IF       3781>>ASSIGN   3785>>ASSIGN   3807>>DOCASE
      3840>>DOCASE   3878>>DOCASE   3892>>IF       3894>>ASSIGN   3897>>ASSIGN   3904>>IF       3905<<ASSIGN
OUT.NSUBLKS
      3640**DCL      3752>>IF       3773>>IF       3790>>IF       3805>>DOWHILE  3838>>DOWHILE  3903>>IF
OUT.SUBLK$
      3661**DCL      3753>>ASSIGN   3762>>ASSIGN   3765>>CALL     3768>>CALL     3771>>CALL     3774>>CALL
      3779>>IF       3781>>ASSIGN   3781>>ASSIGN   3785>>ASSIGN   3786>>CALL     3791>>CALL     3807>>DOCASE
      3840>>DOCASE   3878>>DOCASE   3880>>CALL     3880>>CALL     3882>>CALL     3884>>CALL     3892>>IF
      3892>>IF       3894>>ASSIGN   3894>>ASSIGN   3894>>ASSIGN   3897>>ASSIGN   3897>>ASSIGN   3898>>CALL
      3898>>CALL     3904>>IF       3905>>ASSIGN
OUT$
      3621**DCL      3628--IMP-PTR  3674--IMP-PTR  3731<<ASSIGN   3740>>DOWHILE  3741>>DOCASE   3744<<ASSIGN
      3747<<ASSIGN   3750<<ASSIGN   3752>>IF       3753<<ASSIGN   3753>>ASSIGN   3762<<ASSIGN   3762>>ASSIGN
      3763>>DOCASE   3765>>CALL     3768>>CALL     3771>>CALL     3773>>IF       3774>>CALL     3779>>IF
      3781>>ASSIGN   3785>>ASSIGN   3786>>CALL     3790>>IF       3791>>CALL     3805>>DOWHILE  3807>>DOCASE
      3838>>DOWHILE  3840>>DOCASE   3878>>DOCASE   3880>>CALL     3882>>CALL     3884>>CALL     3892>>IF
      3894>>ASSIGN   3897>>ASSIGN   3898>>CALL     3903>>IF       3904>>IF       3905>>ASSIGN
P.OFFSET
      3605**DCL      3792<<ASSIGN
P.SID.D
      3609**DCL      3781<<ASSIGN   3787<<ASSIGN
P.SID.S
      3608**DCL      3780<<ASSIGN   3785<<ASSIGN
P$
      3603**DCL         6--PROC     3604--REDEF    3610--REDEF    3729--ENTRY    3766<<ASSIGN   3776<<ASSIGN
      3778<<ASSIGN   3858<<ASSIGN
PBASE$
      3720**DCL      3846--CALL     3849>>ASSIGN
PTRFLAG
      3719**DCL      3834>>IF       3877<<ASSIGN   3890<<ASSIGN
SYM.COUNT
      3697**DCL      3700--IMP-SIZ  3768<>CALL     3771<>CALL     3882<>CALL     3884<>CALL
PL6.E3A0      #004=DAA$EXP File=DAA$ANLZ.:E05TSI                                 TUE 07/29/97 12:36 Page:329
T$
      3708**DCL      3709--REDEF    3768<>CALL     3771<>CALL     3776>>ASSIGN   3813<<ASSIGN   3814<>CALL
      3814>>CALL     3849<<ASSIGN   3850>>ASSIGN
TOP
      3564**DCL         6--PROC     3729--ENTRY    3731--ASSIGN
TRY_EDEF IN PROCEDURE LOC
      3770**LABEL    3768--CALLALT
UBIN18 IN PROCEDURE VALUE
      3875**DCL      3882<>CALL     3884<>CALL     3888>>ASSIGN
UBIN36BASE
      3721**DCL      3814--CALL     3817>>ASSIGN
USER
      3723**DCL      3733<<ASSIGN   3735<<ASSIGN   3814<>CALL     3846<>CALL
USR
      3611**DCL         6--PROC     3732--IF       3735>>ASSIGN
V IN PROCEDURE VALUE
      3866**DCL      3864--PROC     3867--REDEF    3868--REDEF    3880<>CALL     3888<<ASSIGN
V1
      3710**DCL      3711--REDEF    3712--REDEF    3713--REDEF    3804<>CALL     3809<<ASSIGN   3809>>ASSIGN
      3813>>ASSIGN   3817<<ASSIGN   3819<<ASSIGN   3819>>ASSIGN   3821<<ASSIGN   3825>>ASSIGN
V1$
      3712**DCL      3814<>CALL     3817>>ASSIGN   3835<<ASSIGN   3837<<ASSIGN   3842<<ASSIGN   3842>>ASSIGN
      3844<<ASSIGN   3844>>ASSIGN   3846<>CALL     3846<>CALL     3846>>CALL     3849>>ASSIGN   3850<<ASSIGN
      3858>>ASSIGN
V1P.WA
      3714**DCL      3852<<ASSIGN   3852>>ASSIGN   3854<<ASSIGN   3854>>ASSIGN
V1S
      3711**DCL      3811<<ASSIGN   3811>>ASSIGN   3821>>ASSIGN
V2
      3716**DCL      3717--REDEF    3718--REDEF    3806<>CALL     3809>>ASSIGN   3817>>ASSIGN   3819>>ASSIGN
      3833<>CALL     3837>>ASSIGN   3839<>CALL     3842>>ASSIGN   3844>>ASSIGN   3850>>ASSIGN   3852>>ASSIGN
      3854>>ASSIGN
V2$
      3718**DCL      3835>>ASSIGN
V2S
      3717**DCL      3811>>ASSIGN   3821>>ASSIGN
PL6.E3A0      #004=DAA$EXP File=DAA$ANLZ.:E05TSI                                 TUE 07/29/97 12:36 Page:330
VAL
      3610**DCL      3825<<ASSIGN
VALUE
      3864**PROC     3804--CALL     3806--CALL     3833--CALL     3839--CALL
VAL_EXP
      3801**PROC     3746--CALL
VP IN PROCEDURE VALUE
      3868**DCL      3891<<ASSIGN
VP.SID.D IN PROCEDURE VALUE
      3873**DCL      3894<<ASSIGN   3901<<ASSIGN
VP.SID.S IN PROCEDURE VALUE
      3872**DCL      3893<<ASSIGN   3897<<ASSIGN
X
      3707**DCL      3765<>CALL     3766>>ASSIGN   3774<>CALL     3775<<ASSIGN   3776>>ASSIGN   3786<>CALL
      3787>>ASSIGN   3791<>CALL     3792>>ASSIGN   3898<>CALL     3901>>ASSIGN

PL6.E3A0      #005=DAA$TRAP File=DAA$ANLZ.:E05TSI                                TUE 07/29/97 12:37 Page:331
     1664        1        /*T***********************************************************/
     1665        2        /*T*                                                         */
     1666        3        /*T* Copyright (c) Bull HN Information Systems Inc., 1997    */
     1667        4        /*T*                                                         */
     1668        5        /*T***********************************************************/
     1669        6        DAA$TRAP: PROC ASYNC;
     1670        7        /**/
     1671        8        %INCLUDE DA_ANLZ_R;
     1672       21        %INCLUDE DA_MAP_R;
     1673       51    1           DA_TRAPPED='1'B;
     1674       52    1           UNWIND TO DA_TRTN;
     1675       53    1   END DAA$TRAP;
     1676       54        %EOD;

PL6.E3A0      #005=DAA$TRAP File=DAA$ANLZ.:E05TSI                                TUE 07/29/97 12:37 Page:332
--  Include file information  --

   DA_MAP_R.:E05TOU  cannot be made into a system file and is referenced.
   DA_ANLZ_R.:E05TOU  cannot be made into a system file and is referenced.
   B$JIT_C.:E05TOU  was found in the system file and is never referenced.
   CP_6_C.:E05TOU  was found in the system file and is never referenced.
      No diagnostics issued in procedure DAA$TRAP.

   Procedure DAA$TRAP requires 7 words for executable code.
   Procedure DAA$TRAP requires 4 words of local(AUTO) storage.

PL6.E3A0      #005=DAA$TRAP File=DAA$ANLZ.:E05TSI                                TUE 07/29/97 12:37 Page:333

 Object Unit name= DAA$TRAP                                   File name= DAA$ANLZ.:E05TOU
 UTS= JUL 29 '97 12:37:03.72 TUE                              Compiler= PL-6/E31         Sev=      00
 SharedLib= :SHARED_SYSTEM                                    Alt SharedLib=


    ****  Control sections  ****

 Sect   Type Bound  Init  Size OctSiz  Section name(segment info)
    0   Proc  even  none     7      7  DAA$TRAP

    ****  Entry defs  ****

                              Check   Calling
                             calling  sequence
  Sect OctLoc Primary Altret sequence   type   Parms  Name
     0      0   yes            yes     Async       0  DAA$TRAP

  ****  Entry refs  ****

         Check        Calling
        calling       sequence
Altret sequence SRef   type   Args  Name
                       nStd      0 X66_AAUTO
                       nStd      0 X66_AAUNWIND

  ****  Data refs  ****

  Flags:  r = read only, s = secondary
Flgs Name                             Flgs Name                             Flgs Name
     DA_TRAPPED                            DA_TRTN
PL6.E3A0      #005=DAA$TRAP File=DAA$ANLZ.:E05TSI                                TUE 07/29/97 12:37 Page:334


     1664        1        /*T***********************************************************/
     1665        2        /*T*                                                         */
     1666        3        /*T* Copyright (c) Bull HN Information Systems Inc., 1997    */
     1667        4        /*T*                                                         */
     1668        5        /*T***********************************************************/
     1669        6        DAA$TRAP: PROC ASYNC;

      6  0 000000   000000 700200 xent  DAA$TRAP     TSX0  ! X66_AAUTO
         0 000001   000004 000000                    ZERO    4,0

     1670        7        /**/
     1671        8        %INCLUDE DA_ANLZ_R;
     1672       21        %INCLUDE DA_MAP_R;
     1673       51    1           DA_TRAPPED='1'B;

     51  0 000002   400000 236003                    LDQ     -131072,DU
         0 000003   000000 756000 xsym               STQ     DA_TRAPPED

     1674       52    1           UNWIND TO DA_TRTN;

     52  0 000004   000000 237200 xsym               LDAQ  ! DA_TRTN
         0 000005   000000 700200 xent               TSX0  ! X66_AAUNWIND
         0 000006   000000 000200                    ZERO    0,128
     1675       53    1   END DAA$TRAP;
     1676       54        %EOD;

PL6.E3A0      #005=DAA$TRAP File=DAA$ANLZ.:E05TSI                                TUE 07/29/97 12:37 Page:335
--  Include file information  --

   DA_MAP_R.:E05TOU  cannot be made into a system file and is referenced.
   DA_ANLZ_R.:E05TOU  cannot be made into a system file and is referenced.
   B$JIT_C.:E05TOU  was found in the system file and is never referenced.
   CP_6_C.:E05TOU  was found in the system file and is never referenced.
      No diagnostics issued in procedure DAA$TRAP.
PL6.E3A0      #005=DAA$TRAP File=DAA$ANLZ.:E05TSI                                TUE 07/29/97 12:37 Page:336

 **** Variables and constants ****

  ****  SYMREF variables  ****

  ****  Scalars and arrays  ****
OctLoc.c.b A Datatyp(siz) R M Lvl/name                 OctLoc.c.b A Datatyp(siz) R M Lvl/name

     0-0-0/b BIT         r     1 DA_TRAPPED                 0-0-0/d REMB        r     1 DA_TRTN


   Procedure DAA$TRAP requires 7 words for executable code.
   Procedure DAA$TRAP requires 4 words of local(AUTO) storage.
PL6.E3A0      #005=DAA$TRAP File=DAA$ANLZ.:E05TSI                                TUE 07/29/97 12:37 Page:337
          *** CROSS REFERENCE LISTING ***
**     DENOTES     IDENTIFIER DEFINITION
<<                 IDENTIFIER'S VALUE SET
>>                 IDENTIFIER'S VALUE USED
<>                 IDENTIFIER SET AND/OR USED
--                 IDENTIFIER REFERENCED
PL6.E3A0      #005=DAA$TRAP File=DAA$ANLZ.:E05TSI                                TUE 07/29/97 12:37 Page:338
          MINI XREF LISTING

DA_MAPSEG.P
        46**DCL        47--REDEF
DA_SDASN.DESC.TYPE0
        31**DCL        31--REDEF
DA_TIGRSEG.P
        47**DCL        48--REDEF
DA_TRAPPED
        18**DCL        51<<ASSIGN
DA_TRTN
        50**DCL        52>>UNWIND

PL6.E3A0      #006=DAA$ABORT File=DAA$ANLZ.:E05TSI                               TUE 07/29/97 12:37 Page:339
     1677        1        /*T***********************************************************/
     1678        2        /*T*                                                         */
     1679        3        /*T* Copyright (c) Bull HN Information Systems Inc., 1997    */
     1680        4        /*T*                                                         */
     1681        5        /*T***********************************************************/
     1682        6        DAA$ABORT: PROC;
     1683        7        /**/
     1684        8        %INCLUDE DA_ANLZ_R;
     1685       21        %INCLUDE DA_MAP_R;
     1686       51        %INCLUDE CP_6;
     1687      132        /**/
     1688      133    2           IF DA_TRAPPED THEN DO;
     1689      134    2              DA_TRAPPED='0'B;
     1690      135    2              CALL M$CLRSTK;
     1691      136    2              END;
     1692      137    1           UNWIND TO DA_TRTN;
     1693      138    1   END DAA$ABORT;
     1694      139        %EOD;

PL6.E3A0      #006=DAA$ABORT File=DAA$ANLZ.:E05TSI                               TUE 07/29/97 12:37 Page:340
--  Include file information  --

   CP_6.:E05TOU  cannot be made into a system file and is referenced.
   DA_MAP_R.:E05TOU  cannot be made into a system file and is referenced.
   DA_ANLZ_R.:E05TOU  cannot be made into a system file and is referenced.
   B$JIT_C.:E05TOU  was found in the system file and is never referenced.
   CP_6_C.:E05TOU  was found in the system file and is referenced.
      No diagnostics issued in procedure DAA$ABORT.

   Procedure DAA$ABORT requires 10 words for executable code.
   Procedure DAA$ABORT requires 4 words of local(AUTO) storage.

PL6.E3A0      #006=DAA$ABORT File=DAA$ANLZ.:E05TSI                               TUE 07/29/97 12:37 Page:341

 Object Unit name= DAA$ABORT                                  File name= DAA$ANLZ.:E05TOU
 UTS= JUL 29 '97 12:37:05.28 TUE                              Compiler= PL-6/E31         Sev=      00
 SharedLib= :SHARED_SYSTEM                                    Alt SharedLib=


    ****  Control sections  ****

 Sect   Type Bound  Init  Size OctSiz  Section name(segment info)
    0   DCB   even  none     0      0  M$UC
    1   Proc  even  none    10     12  DAA$ABORT

    ****  Entry defs  ****

                              Check   Calling
                             calling  sequence
  Sect OctLoc Primary Altret sequence   type   Parms  Name
     1      0   yes            yes      Std        0  DAA$ABORT

  ****  Entry refs  ****

         Check        Calling
        calling       sequence
Altret sequence SRef   type   Args  Name
                       nStd      0 X66_AUTO_0
                       nStd      0 X66_AUNWIND

  ****  Data refs  ****

  Flags:  r = read only, s = secondary
Flgs Name                             Flgs Name                             Flgs Name
     DA_TRAPPED                            DA_TRTN                               M$UC
PL6.E3A0      #006=DAA$ABORT File=DAA$ANLZ.:E05TSI                               TUE 07/29/97 12:37 Page:342


     1677        1        /*T***********************************************************/
     1678        2        /*T*                                                         */
     1679        3        /*T* Copyright (c) Bull HN Information Systems Inc., 1997    */
     1680        4        /*T*                                                         */
     1681        5        /*T***********************************************************/
     1682        6        DAA$ABORT: PROC;

      6  1 000000   000000 700200 xent  DAA$ABORT    TSX0  ! X66_AUTO_0
         1 000001   000004 000000                    ZERO    4,0

     1683        7        /**/
     1684        8        %INCLUDE DA_ANLZ_R;
     1685       21        %INCLUDE DA_MAP_R;
     1686       51        %INCLUDE CP_6;
     1687      132        /**/
     1688      133    2           IF DA_TRAPPED THEN DO;

    133  1 000002   000000 234000 xsym               SZN     DA_TRAPPED
         1 000003   000007 605000 1                  TPL     s:137

     1689      134    2              DA_TRAPPED='0'B;

    134  1 000004   000000 450000 xsym               STZ     DA_TRAPPED

     1690      135    2              CALL M$CLRSTK;

    135  1 000005   010013 713400                    CLIMB   4107
         1 000006   000000 401760                    pmme    nvectors=0

     1691      136    2              END;

     1692      137    1           UNWIND TO DA_TRTN;

    137  1 000007   000000 237200 xsym               LDAQ  ! DA_TRTN
         1 000010   000000 700200 xent               TSX0  ! X66_AUNWIND
         1 000011   000000 000200                    ZERO    0,128
PL6.E3A0      #006=DAA$ABORT File=DAA$ANLZ.:E05TSI                               TUE 07/29/97 12:37 Page:343
     1693      138    1   END DAA$ABORT;
     1694      139        %EOD;

PL6.E3A0      #006=DAA$ABORT File=DAA$ANLZ.:E05TSI                               TUE 07/29/97 12:37 Page:344
--  Include file information  --

   CP_6.:E05TOU  cannot be made into a system file and is referenced.
   DA_MAP_R.:E05TOU  cannot be made into a system file and is referenced.
   DA_ANLZ_R.:E05TOU  cannot be made into a system file and is referenced.
   B$JIT_C.:E05TOU  was found in the system file and is never referenced.
   CP_6_C.:E05TOU  was found in the system file and is referenced.
      No diagnostics issued in procedure DAA$ABORT.
PL6.E3A0      #006=DAA$ABORT File=DAA$ANLZ.:E05TSI                               TUE 07/29/97 12:37 Page:345

 **** Variables and constants ****

  ****  SYMREF variables  ****

  ****  Scalars and arrays  ****
OctLoc.c.b A Datatyp(siz) R M Lvl/name                 OctLoc.c.b A Datatyp(siz) R M Lvl/name

     0-0-0/b BIT         r     1 DA_TRAPPED                 0-0-0/d REMB        r     1 DA_TRTN


   Procedure DAA$ABORT requires 10 words for executable code.
   Procedure DAA$ABORT requires 4 words of local(AUTO) storage.
PL6.E3A0      #006=DAA$ABORT File=DAA$ANLZ.:E05TSI                               TUE 07/29/97 12:37 Page:346
          *** CROSS REFERENCE LISTING ***
**     DENOTES     IDENTIFIER DEFINITION
<<                 IDENTIFIER'S VALUE SET
>>                 IDENTIFIER'S VALUE USED
<>                 IDENTIFIER SET AND/OR USED
--                 IDENTIFIER REFERENCED
PL6.E3A0      #006=DAA$ABORT File=DAA$ANLZ.:E05TSI                               TUE 07/29/97 12:37 Page:347
          MINI XREF LISTING

DA_MAPSEG.P
        46**DCL        47--REDEF
DA_SDASN.DESC.TYPE0
        31**DCL        31--REDEF
DA_TIGRSEG.P
        47**DCL        48--REDEF
DA_TRAPPED
        18**DCL       133>>IF        134<<ASSIGN
DA_TRTN
        50**DCL       137>>UNWIND
M$CLRSTK
       118**DCL-ENT   135--CALL

PL6.E3A0      #007=DAA$NXTUSR File=DAA$ANLZ.:E05TSI                              TUE 07/29/97 12:37 Page:348
     1695        1        /*T***********************************************************/
     1696        2        /*T*                                                         */
     1697        3        /*T* Copyright (c) Bull HN Information Systems Inc., 1997    */
     1698        4        /*T*                                                         */
     1699        5        /*T***********************************************************/
     1700        6        DAA$NXTUSR: PROC(TOP) ALTRET;
     1701        7        %INCLUDE XU_MACRO_C;
     1702     3113        %PARSE$OUT (NAME=TOP,STCLASS="");
     1703     3158        /**/
     1704     3159        %INCLUDE JG_GHOSTS_C;
     1705     3249        /**/
     1706     3250    1   DCL B$JIT$ PTR SYMREF;
     1707     3251        %INCLUDE B$JIT;
     1708     3541    1   DCL TEMP SBIN WORD;
     1709     3542    1   DCL JIT$ PTR;
     1710     3543    1   DCL I UBIN WORD;
     1711     3544    1   DCL J SBIN;
     1712     3545    1   DCL U# SBIN;
     1713     3546    1   DCL 1 JPRIV,
     1714     3547    1         2 PRIV BIT(36),
     1715     3548    1         2 PPRIV BIT(36);
     1716     3549    1   DCL CPRIV(0:71) BIT(1);
     1717     3550        /**/
     1718     3551    1   DCL DAA$VALUE ENTRY(3) ALTRET;
     1719     3552    1   DCL DAA$WILDCOMP ENTRY(3) ALTRET;
     1720     3553    1   DCL DAM$MAP ENTRY(5) ALTRET;
     1721     3554        /**/
     1722     3555    1   DCL OUT$ PTR;
     1723     3556        %PARSE$OUT (NAME=OUT,STCLASS="BASED(OUT$)");
     1724     3601        %PARSE$SYM (NAME=SYM,STCLASS="BASED(OUT$)");
     1725     3639        /**/
     1726     3640    1   DCL MODEFLAGS(0:4) BIT(1) STATIC INIT('0'B*0);
     1727     3641        %INCLUDE DA_MAP_R;
     1728     3671        %INCLUDE DA_ANLZ_R;
     1729     3684        %INCLUDE DA_CMD_C;
     1730     4033        %INCLUDE DA_TEXTC_C;
     1731     4064        %INCLUDE DA_PERR_C;
PL6.E3A0      #007=DAA$NXTUSR File=DAA$ANLZ.:E05TSI                              TUE 07/29/97 12:37 Page:349
     1732     4128        %INCLUDE SS_SCHED_C;
     1733     4361        %INCLUDE B$USER;
     1734     4577        %B$USERREFS;
     1735     4581        %EJECT;
PL6.E3A0      #007=DAA$NXTUSR File=DAA$ANLZ.:E05TSI                              TUE 07/29/97 12:37 Page:350
     1736     4582    1           OUT$=TOP.SUBLK$(0);
     1737     4583    2           DO CASE(OUT.CODE);
     1738     4584    2            CASE(%DA_USERSEL_ALL);
     1739     4585    3              DO U#=DA_CUN+1 TO DA_MUAIS;
     1740     4586    3                 IF B$USRT$->B$USER.US(U#)~=%SS_SNULL THEN GOTO USERFND;
     1741     4587    3                 END;
     1742     4588    2            CASE(%DA_USERSEL_MODE);
     1743     4589    2              MODEFLAGS='0'B;
     1744     4590    3              DO I=0 TO OUT.NSUBLKS-1;
     1745     4591    3                 MODEFLAGS(OUT.SUBLK$(I)->OUT.CODE)='1'B;
     1746     4592    3                 END;
     1747     4593    3              DO U#=DA_CUN+1 TO DA_MUAIS;
     1748     4594    4                 IF MODEFLAGS(B$USRT$->B$USER.MODE(U#)) AND B$USRT$->B$USER.US(U#)~=%
              4594                          SS_SNULL THEN DO;
     1749     4595    4                    GOTO USERFND;
     1750     4596    4                    END;
     1751     4597    3                 END;
     1752     4598    2            CASE(%DA_USERSEL_NUM);
     1753     4599    2              IF DA_CUN~=0 THEN GOTO NO_CUN;
     1754     4600    2              CALL DAA$VALUE(OUT.SUBLK$(0)->OUT,U#,I);
     1755     4601    3              IF I=8 THEN DO;
     1756     4602    3                 IF U# <= DA_MUAIS THEN
     1757     4603    3                    IF B$USRT$->B$USER.US(U#)~=%SS_SNULL THEN GOTO USERFND;
     1758     4604    3                 END;
     1759     4605    3              ELSE DO;
     1760     4606    4                 DO J=DA_CUN+1 TO DA_MUAIS;
     1761     4607    5                    IF B$USRT$->B$USER.SYSID(J)=U# AND B$USRT$->B$USER.US(J)~=%SS_SNULL
              4607                             THEN DO;
     1762     4608    5                       U#=J;
     1763     4609    5                       GOTO USERFND;
     1764     4610    5                       END;
     1765     4611    4                    END;
     1766     4612    3                 END;
     1767     4613    2            CASE(%DA_USERSEL_ACCN);
     1768     4614    3              DO U#=DA_CUN+1 TO DA_MUAIS;
     1769     4615    3                 CALL DAM$MAP(B$JIT$,JIT$,-U#,0) ALTRET(NXT4);;
     1770     4616    4                 DO J=0 TO OUT.NSUBLKS-1;
PL6.E3A0      #007=DAA$NXTUSR File=DAA$ANLZ.:E05TSI                              TUE 07/29/97 12:37 Page:351
     1771     4617    4                    CALL DAA$WILDCOMP(OUT.SUBLK$(J)->SYM.COUNT,JIT$->B$JIT.ACCN,8)
              4617                             ALTRET(NXTACCN);
     1772     4618    4                    GOTO USERFND;
     1773     4619    4   NXTACCN:         END;
     1774     4620    3   NXT4:         END;
     1775     4621    2            CASE(%DA_USERSEL_NAME);
     1776     4622    3              DO U#=DA_CUN+1 TO DA_MUAIS;
     1777     4623    3                 CALL DAM$MAP(B$JIT$,JIT$,-U#,0) ALTRET(NXT5);
     1778     4624    4                 DO J=0 TO OUT.NSUBLKS-1;
     1779     4625    4                    CALL DAA$WILDCOMP(OUT.SUBLK$(J)->SYM.COUNT,JIT$->B$JIT.UNAME,12)
              4625                             ALTRET(NXTNAME);
     1780     4626    4                    GOTO USERFND;
     1781     4627    4   NXTNAME:         END;
     1782     4628    3   NXT5:         END;
     1783     4629    2            CASE(%DA_USERSEL_CCBUF);
     1784     4630    3              DO U#=DA_CUN+1 TO DA_MUAIS;
     1785     4631    3                 CALL DAM$MAP(B$JIT$,JIT$,-U#,0) ALTRET(NXT6);
     1786     4632    4                 DO J=0 TO OUT.NSUBLKS-1;
     1787     4633    4                    CALL DAA$WILDCOMP(OUT.SUBLK$(J)->SYM.COUNT,JIT$->B$JIT.CCBUF,BINBIT
              4633                             (JIT$->B$JIT.CCARS,36)) ALTRET(NXTCCBUF);
     1788     4634    4                    GOTO USERFND;
     1789     4635    4   NXTCCBUF:        END;
     1790     4636    3   NXT6:         END;
     1791     4637    2            CASE(%DA_USERSEL_STATE);
     1792     4638    3              DO U#=DA_CUN+1 TO DA_MUAIS;
     1793     4639    4                 DO I=0 TO OUT.NSUBLKS-1;
     1794     4640    4                    IF B$USRT$->B$USER.US(U#)=OUT.SUBLK$(I)->OUT.CODE THEN GOTO USERFND
              4640                             ;
     1795     4641    4                    END;
     1796     4642    3                 END;
     1797     4643    2            CASE(%DA_USERSEL_FEP);
     1798     4644    3              DO J=0 TO OUT.NSUBLKS-1;
     1799     4645    3                 CALL DAA$VALUE(OUT.SUBLK$(J)->OUT,TEMP);
     1800     4646    3                 OUT.SUBLK$(J)->SYM.SCRITCH=TEMP;
     1801     4647    3                 END;
     1802     4648    3              DO U#=DA_CUN+1 TO DA_MUAIS;
     1803     4649    3                 CALL DAM$MAP(B$JIT$,JIT$,-U#,0) ALTRET(NXT7);
PL6.E3A0      #007=DAA$NXTUSR File=DAA$ANLZ.:E05TSI                              TUE 07/29/97 12:37 Page:352
     1804     4650    4                 DO J=0 TO OUT.NSUBLKS-1;
     1805     4651    5                    IF JIT$->B$JIT.TSLINE.FEX=OUT.SUBLK$(J)->SYM.SCRITCH THEN DO;
     1806     4652    5                       GOTO USERFND;
     1807     4653    5                       END;
     1808     4654    4                    END;
     1809     4655    3   NXT7:         END;
     1810     4656    2            CASE(%DA_USERSEL_LINE);
     1811     4657    3              DO J=0 TO OUT.NSUBLKS-1 BY 2;
     1812     4658    3                 CALL DAA$VALUE(OUT.SUBLK$(J)->OUT,TEMP);
     1813     4659    3                 OUT.SUBLK$(J)->SYM.SCRITCH=TEMP;
     1814     4660    3                 CALL DAA$VALUE(OUT.SUBLK$(J+1)->OUT,TEMP);
     1815     4661    3                 OUT.SUBLK$(J+1)->SYM.SCRITCH=TEMP;
     1816     4662    3                 END;
     1817     4663    3              DO U#=DA_CUN+1 TO DA_MUAIS;
     1818     4664    3                 CALL DAM$MAP(B$JIT$,JIT$,-U#,0) ALTRET(NXT8);
     1819     4665    4                 DO J=0 TO OUT.NSUBLKS-1 BY 2;
     1820     4666    4                    IF JIT$->B$JIT.TSLINE.FEX=OUT.SUBLK$(J)->SYM.SCRITCH AND
     1821     4667    5                      JIT$->B$JIT.TSLINE.PORT=OUT.SUBLK$(J+1)->SYM.SCRITCH THEN DO;
     1822     4668    5                       GOTO USERFND;
     1823     4669    5                       END;
     1824     4670    4                    END;
     1825     4671    3   NXT8:         END;
     1826     4672    2            CASE(%DA_USERSEL_PRIV,%DA_USERSEL_PRIVACT,%DA_USERSEL_PRIVAUTH,%
              4672                     DA_USERSEL_PRIVPRC,%DA_USERSEL_PRIVJOB);
     1827     4673    2              CPRIV='0'B;
     1828     4674    2              IF DA_CUN<JG_MING# THEN DA_CUN=JG_MING#; /*SKIP GHOSTS*/
     1829     4675    3              DO J=0 TO OUT.NSUBLKS-1;
     1830     4676    3                 CPRIV(OUT.SUBLK$(J)->OUT.CODE-1)='1'B;
     1831     4677    3                 END;
     1832     4678    3              DO U#=DA_CUN+1 TO DA_MUAIS;
     1833     4679    3                 CALL DAM$MAP(B$JIT$,JIT$,-U#,0) ALTRET(NXT9);
     1834     4680    4                 DO CASE(OUT.CODE);
     1835     4681    4                  CASE(%DA_USERSEL_PRIV);
     1836     4682    4                    JPRIV.PRIV=JIT$->B$JIT.PRIV.ACTIVE|JIT$->B$JIT.PRIV.JOB|JIT$->B$JIT
              4682                             .PRIV.AUTH;
     1837     4683    4                  CASE(%DA_USERSEL_PRIVACT);
     1838     4684    4                    JPRIV.PRIV=JIT$->B$JIT.PRIV.ACTIVE;
PL6.E3A0      #007=DAA$NXTUSR File=DAA$ANLZ.:E05TSI                              TUE 07/29/97 12:37 Page:353
     1839     4685    4                  CASE(%DA_USERSEL_PRIVAUTH);
     1840     4686    4                    JPRIV.PRIV=JIT$->B$JIT.PRIV.AUTH;
     1841     4687    4                  CASE(%DA_USERSEL_PRIVPRC);
     1842     4688    4                    JPRIV.PRIV=JIT$->B$JIT.PRIV.PRC;
     1843     4689    4                  CASE(%DA_USERSEL_PRIVJOB);
     1844     4690    4                    JPRIV.PRIV=JIT$->B$JIT.PRIV.JOB;
     1845     4691    4                  END;
     1846     4692    3                 JPRIV.PPRIV=JIT$->B$JIT.PPRIV;
     1847     4693    3                 IF JPRIV & CPRIV THEN GOTO USERFND;
     1848     4694    3   NXT9:         END;
     1849     4695    2            END;
     1850     4696    1   NO_CUN: ;
     1851     4697    1           DA_MAPERR='0'B;
     1852     4698    1           U#=DA_CUN;
     1853     4699    1   USERFND:
     1854     4700    2           IF U#<=DA_CUN OR U#=0 OR U#>DA_MUAIS THEN DO;
     1855     4701    3              IF DA_CUN=0 THEN DO;
     1856     4702    3                 DA_MAPERR='040101000000'O;
     1857     4703    3                 DA_MAPERR.CODE=%E$DA_NO_USER;
     1858     4704        /*E*    ERROR:   DAA-E$DA_NO_USER
     1859     4705                MESSAGE: No such user found.
     1860     4706                                                                           */
     1861     4707    3                 END;
     1862     4708    2              ALTRETURN;
     1863     4709    2              END;
     1864     4710    1           DA_CUN=U#;
     1865     4711    1           DA_MAPERR='0'B;
     1866     4712    1           RETURN;
     1867     4713    1   END DAA$NXTUSR;
     1868     4714        %EOD;

PL6.E3A0      #007=DAA$NXTUSR File=DAA$ANLZ.:E05TSI                              TUE 07/29/97 12:37 Page:354
--  Include file information  --

   B$USER.:E05TOU  cannot be made into a system file and is referenced.
   SS_SCHED_C.:E05TOU  is referenced.
   DA_PERR_C.:E05TOU  is referenced.
   DA_TEXTC_C.:E05TOU  is referenced.
   DA_CMD_C.:E05TOU  is referenced.
   DA_ANLZ_R.:E05TOU  cannot be made into a system file and is referenced.
   DA_MAP_R.:E05TOU  cannot be made into a system file and is referenced.
   B$JIT.:E05TOU  cannot be made into a system file and is referenced.
   JG_GHOSTS_C.:E05TOU  is referenced.
   XU_MACRO_C.:E05TOU  is referenced.
   B$JIT_C.:E05TOU  was found in the system file and is referenced.
   CP_6_C.:E05TOU  was found in the system file and is never referenced.
      No diagnostics issued in procedure DAA$NXTUSR.

   Procedure DAA$NXTUSR requires 572 words for executable code.
   Procedure DAA$NXTUSR requires 20 words of local(AUTO) storage.

PL6.E3A0      #007=DAA$NXTUSR File=DAA$ANLZ.:E05TSI                              TUE 07/29/97 12:37 Page:355

 Object Unit name= DAA$NXTUSR                                 File name= DAA$ANLZ.:E05TOU
 UTS= JUL 29 '97 12:37:08.04 TUE                              Compiler= PL-6/E31         Sev=      00
 SharedLib= :SHARED_SYSTEM                                    Alt SharedLib=


    ****  Control sections  ****

 Sect   Type Bound  Init  Size OctSiz  Section name(segment info)
    0   Data  even  none     1      1  DAA$NXTUSR
    1  RoData even  UTS      1      1  DAA$NXTUSR
    2   Proc  even  none   572   1074  DAA$NXTUSR
    3  RoData even  none     7      7  DAA$NXTUSR

    ****  Entry defs  ****

                              Check   Calling
                             calling  sequence
  Sect OctLoc Primary Altret sequence   type   Parms  Name
     2      0   yes    yes     yes      Std        1  DAA$NXTUSR

  ****  Entry refs  ****

         Check        Calling
        calling       sequence
Altret sequence SRef   type   Args  Name
 yes     yes           Std       3 DAA$VALUE
 yes     yes           Std       3 DAA$WILDCOMP
 yes     yes           Std       5 DAM$MAP
                       nStd      0 X66_AUTO_1
                       Std       0 B_CONSPOOL_D
                       nStd      0 X66_AALT
                       nStd      0 X66_ARET
PL6.E3A0      #007=DAA$NXTUSR File=DAA$ANLZ.:E05TSI                              TUE 07/29/97 12:37 Page:356

  ****  Data refs  ****

  Flags:  r = read only, s = secondary
Flgs Name                             Flgs Name                             Flgs Name
     B$JIT$                                DA_MUAIS                              DA_MAPERR
     DA_CUN                                B$USRT$                               B_VECTNIL

  ****  Segment refs  ****

  Flags:  r = read only, s = secondary
Flgs Name                             Flgs Name                             Flgs Name
     ISSID
PL6.E3A0      #007=DAA$NXTUSR File=DAA$ANLZ.:E05TSI                              TUE 07/29/97 12:37 Page:357


     1695        1        /*T***********************************************************/
     1696        2        /*T*                                                         */
     1697        3        /*T* Copyright (c) Bull HN Information Systems Inc., 1997    */
     1698        4        /*T*                                                         */
     1699        5        /*T***********************************************************/
     1700        6        DAA$NXTUSR: PROC(TOP) ALTRET;

      6  2 000000   000000 700200 xent  DAA$NXTUSR   TSX0  ! X66_AUTO_1
         2 000001   000024 000001                    ZERO    20,1

     1701        7        %INCLUDE XU_MACRO_C;
     1702     3113        %PARSE$OUT (NAME=TOP,STCLASS="");
     1703     3158        /**/
     1704     3159        %INCLUDE JG_GHOSTS_C;
     1705     3249        /**/
     1706     3250    1   DCL B$JIT$ PTR SYMREF;
     1707     3251        %INCLUDE B$JIT;
     1708     3541    1   DCL TEMP SBIN WORD;
     1709     3542    1   DCL JIT$ PTR;
     1710     3543    1   DCL I UBIN WORD;
     1711     3544    1   DCL J SBIN;
     1712     3545    1   DCL U# SBIN;
     1713     3546    1   DCL 1 JPRIV,
     1714     3547    1         2 PRIV BIT(36),
     1715     3548    1         2 PPRIV BIT(36);
     1716     3549    1   DCL CPRIV(0:71) BIT(1);
     1717     3550        /**/
     1718     3551    1   DCL DAA$VALUE ENTRY(3) ALTRET;
     1719     3552    1   DCL DAA$WILDCOMP ENTRY(3) ALTRET;
     1720     3553    1   DCL DAM$MAP ENTRY(5) ALTRET;
     1721     3554        /**/
     1722     3555    1   DCL OUT$ PTR;
     1723     3556        %PARSE$OUT (NAME=OUT,STCLASS="BASED(OUT$)");
     1724     3601        %PARSE$SYM (NAME=SYM,STCLASS="BASED(OUT$)");
     1725     3639        /**/
     1726     3640    1   DCL MODEFLAGS(0:4) BIT(1) STATIC INIT('0'B*0);
PL6.E3A0      #007=DAA$NXTUSR File=DAA$ANLZ.:E05TSI                              TUE 07/29/97 12:37 Page:358
     1727     3641        %INCLUDE DA_MAP_R;
     1728     3671        %INCLUDE DA_ANLZ_R;
     1729     3684        %INCLUDE DA_CMD_C;
     1730     4033        %INCLUDE DA_TEXTC_C;
     1731     4064        %INCLUDE DA_PERR_C;
     1732     4128        %INCLUDE SS_SCHED_C;
     1733     4361        %INCLUDE B$USER;
     1734     4577        %B$USERREFS;
     1735     4581        %EJECT;
PL6.E3A0      #007=DAA$NXTUSR File=DAA$ANLZ.:E05TSI                              TUE 07/29/97 12:37 Page:359
     1736     4582    1           OUT$=TOP.SUBLK$(0);

   4582  2 000002   200003 470500                    LDP0    @TOP,,AUTO
         2 000003   000003 236100                    LDQ     3,,PR0
         2 000004   200015 756100                    STQ     OUT$,,AUTO

     1737     4583    2           DO CASE(OUT.CODE);

   4583  2 000005   200015 471500                    LDP1    OUT$,,AUTO
         2 000006   100000 720100                    LXL0    0,,PR1
         2 000007   000016 100003                    CMPX0   14,DU
         2 000010   000012 602010 2                  TNC     s:4583+5,X0
         2 000011   001047 710000 2                  TRA     NO_CUN
         2 000012   000030 710000 2                  TRA     s:4585
         2 000013   000125 710000 2                  TRA     s:4599
         2 000014   000050 710000 2                  TRA     s:4589
         2 000015   000264 710000 2                  TRA     s:4622
         2 000016   000206 710000 2                  TRA     s:4614
         2 000017   000342 710000 2                  TRA     s:4630
         2 000020   000424 710000 2                  TRA     s:4638
         2 000021   000465 710000 2                  TRA     s:4644
         2 000022   000567 710000 2                  TRA     s:4657
         2 000023   000715 710000 2                  TRA     s:4673
         2 000024   000715 710000 2                  TRA     s:4673
         2 000025   000715 710000 2                  TRA     s:4673
         2 000026   000715 710000 2                  TRA     s:4673
         2 000027   000715 710000 2                  TRA     s:4673

     1738     4584    2            CASE(%DA_USERSEL_ALL);

     1739     4585    3              DO U#=DA_CUN+1 TO DA_MUAIS;

   4585  2 000030   000000 235000 xsym               LDA     DA_CUN
         2 000031   000001 035007                    ADLA    1,DL
         2 000032   200010 755100                    STA     U#,,AUTO
         2 000033   000044 710000 2                  TRA     s:4587+1

PL6.E3A0      #007=DAA$NXTUSR File=DAA$ANLZ.:E05TSI                              TUE 07/29/97 12:37 Page:360
     1740     4586    3                 IF B$USRT$->B$USER.US(U#)~=%SS_SNULL THEN GOTO USERFND;

   4586  2 000034   200010 235100                    LDA     U#,,AUTO
         2 000035   000004 735000                    ALS     4
         2 000036   000000 470400 xsym               LDP0    B$USRT$
         2 000037   000011 236105                    LDQ     9,AL,PR0
         2 000040   770000 376003                    ANQ     -4096,DU
         2 000041   300000 116003                    CMPQ    98304,DU
         2 000042   001052 601000 2                  TNZ     USERFND

     1741     4587    3                 END;

   4587  2 000043   200010 054100                    AOS     U#,,AUTO
         2 000044   200010 236100                    LDQ     U#,,AUTO
         2 000045   000000 116000 xsym               CMPQ    DA_MUAIS
         2 000046   000034 604400 2                  TMOZ    s:4586
         2 000047   001047 710000 2                  TRA     NO_CUN

     1742     4588    2            CASE(%DA_USERSEL_MODE);

     1743     4589    2              MODEFLAGS='0'B;

   4589  2 000050   000000 236000 3                  LDQ     0
         2 000051   000000 356000 0                  ANSQ    MODEFLAGS

     1744     4590    3              DO I=0 TO OUT.NSUBLKS-1;

   4590  2 000052   200006 450100                    STZ     I,,AUTO
         2 000053   000067 710000 2                  TRA     s:4592+3

     1745     4591    3                 MODEFLAGS(OUT.SUBLK$(I)->OUT.CODE)='1'B;

   4591  2 000054   200015 470500                    LDP0    OUT$,,AUTO
         2 000055   200006 720100                    LXL0    I,,AUTO
         2 000056   000003 471510                    LDP1    3,X0,PR0
         2 000057   100000 236100                    LDQ     0,,PR1
         2 000060   777777 376007                    ANQ     -1,DL
PL6.E3A0      #007=DAA$NXTUSR File=DAA$ANLZ.:E05TSI                              TUE 07/29/97 12:37 Page:361
         2 000061   003006 060400                    CSL     bolr='003'O
         2 000062   000030 000001 xsym               BDSC    B_VECTNIL+24             by=0,bit=0,n=1
         2 000063   000000 000001 0                  BDSC    MODEFLAGS,Q              by=0,bit=0,n=1

     1746     4592    3                 END;

   4592  2 000064   200006 235100                    LDA     I,,AUTO
         2 000065   000001 035007                    ADLA    1,DL
         2 000066   200006 755100                    STA     I,,AUTO
         2 000067   200015 470500                    LDP0    OUT$,,AUTO
         2 000070   000001 236100                    LDQ     1,,PR0
         2 000071   000022 772000                    QRL     18
         2 000072   200006 116100                    CMPQ    I,,AUTO
         2 000073   000075 600000 2                  TZE     s:4593
         2 000074   000054 603000 2                  TRC     s:4591

     1747     4593    3              DO U#=DA_CUN+1 TO DA_MUAIS;

   4593  2 000075   000000 235000 xsym               LDA     DA_CUN
         2 000076   000001 035007                    ADLA    1,DL
         2 000077   200010 755100                    STA     U#,,AUTO
         2 000100   000121 710000 2                  TRA     s:4597+1

     1748     4594    4                 IF MODEFLAGS(B$USRT$->B$USER.MODE(U#)) AND B$USRT$->B$USER.US(U#)~=%
              4594                          SS_SNULL THEN DO;

   4594  2 000101   200010 235100                    LDA     U#,,AUTO
         2 000102   000004 735000                    ALS     4
         2 000103   000000 470400 xsym               LDP0    B$USRT$
         2 000104   000011 236105                    LDQ     9,AL,PR0
         2 000105   000006 772000                    QRL     6
         2 000106   000077 376007                    ANQ     63,DL
         2 000107   000000 066406                    CMPB    filb='0'B
         2 000110   000000 000001 0                  BDSC    MODEFLAGS,Q              by=0,bit=0,n=1
         2 000111   000002 000022 xsym               BDSC    B_VECTNIL+2              by=0,bit=0,n=18
         2 000112   000120 600000 2                  TZE     s:4597
         2 000113   000011 236105                    LDQ     9,AL,PR0
PL6.E3A0      #007=DAA$NXTUSR File=DAA$ANLZ.:E05TSI                              TUE 07/29/97 12:37 Page:362
         2 000114   770000 376003                    ANQ     -4096,DU
         2 000115   300000 116003                    CMPQ    98304,DU
         2 000116   000120 600000 2                  TZE     s:4597

     1749     4595    4                    GOTO USERFND;

   4595  2 000117   001052 710000 2                  TRA     USERFND

     1750     4596    4                    END;
     1751     4597    3                 END;

   4597  2 000120   200010 054100                    AOS     U#,,AUTO
         2 000121   200010 236100                    LDQ     U#,,AUTO
         2 000122   000000 116000 xsym               CMPQ    DA_MUAIS
         2 000123   000101 604400 2                  TMOZ    s:4594
         2 000124   001047 710000 2                  TRA     NO_CUN

     1752     4598    2            CASE(%DA_USERSEL_NUM);

     1753     4599    2              IF DA_CUN~=0 THEN GOTO NO_CUN;

   4599  2 000125   000000 235000 xsym               LDA     DA_CUN
         2 000126   001047 601000 2                  TNZ     NO_CUN

     1754     4600    2              CALL DAA$VALUE(OUT.SUBLK$(0)->OUT,U#,I);

   4600  2 000127   100003 473500                    LDP3    3,,PR1
         2 000130   200006 634500                    EPPR4   I,,AUTO
         2 000131   200020 454500                    STP4    OUT$+3,,AUTO
         2 000132   200010 635500                    EPPR5   U#,,AUTO
         2 000133   200017 455500                    STP5    OUT$+2,,AUTO
         2 000134   200016 453500                    STP3    OUT$+1,,AUTO
         2 000135   200016 630500                    EPPR0   OUT$+1,,AUTO
         2 000136   000021 631400 xsym               EPPR1   B_VECTNIL+17
         2 000137   000000 701000 xent               TSX1    DAA$VALUE
         2 000140   000000 011000                    NOP     0

PL6.E3A0      #007=DAA$NXTUSR File=DAA$ANLZ.:E05TSI                              TUE 07/29/97 12:37 Page:363
     1755     4601    3              IF I=8 THEN DO;

   4601  2 000141   200006 235100                    LDA     I,,AUTO
         2 000142   000010 115007                    CMPA    8,DL
         2 000143   000157 601000 2                  TNZ     s:4606

     1756     4602    3                 IF U# <= DA_MUAIS THEN

   4602  2 000144   200010 236100                    LDQ     U#,,AUTO
         2 000145   000000 116000 xsym               CMPQ    DA_MUAIS
         2 000146   001047 605400 2                  TPNZ    NO_CUN

     1757     4603    3                    IF B$USRT$->B$USER.US(U#)~=%SS_SNULL THEN GOTO USERFND;

   4603  2 000147   200010 235100                    LDA     U#,,AUTO
         2 000150   000004 735000                    ALS     4
         2 000151   000000 470400 xsym               LDP0    B$USRT$
         2 000152   000011 236105                    LDQ     9,AL,PR0
         2 000153   770000 376003                    ANQ     -4096,DU
         2 000154   300000 116003                    CMPQ    98304,DU
         2 000155   001052 601000 2                  TNZ     USERFND

     1758     4604    3                 END;

   4604  2 000156   001047 710000 2                  TRA     NO_CUN

     1759     4605    3              ELSE DO;

     1760     4606    4                 DO J=DA_CUN+1 TO DA_MUAIS;

   4606  2 000157   000000 236000 xsym               LDQ     DA_CUN
         2 000160   000001 036007                    ADLQ    1,DL
         2 000161   200007 756100                    STQ     J,,AUTO
         2 000162   000202 710000 2                  TRA     s:4611+1

     1761     4607    5                   IF B$USRT$->B$USER.SYSID(J)=U# AND B$USRT$->B$USER.US(J)~=%SS_SNULL
              4607                             THEN DO;
PL6.E3A0      #007=DAA$NXTUSR File=DAA$ANLZ.:E05TSI                              TUE 07/29/97 12:37 Page:364

   4607  2 000163   200007 235100                    LDA     J,,AUTO
         2 000164   000004 735000                    ALS     4
         2 000165   000000 470400 xsym               LDP0    B$USRT$
         2 000166   000014 236105                    LDQ     12,AL,PR0
         2 000167   777777 376007                    ANQ     -1,DL
         2 000170   200010 116100                    CMPQ    U#,,AUTO
         2 000171   000201 601000 2                  TNZ     s:4611
         2 000172   000011 236105                    LDQ     9,AL,PR0
         2 000173   770000 376003                    ANQ     -4096,DU
         2 000174   300000 116003                    CMPQ    98304,DU
         2 000175   000201 600000 2                  TZE     s:4611

     1762     4608    5                       U#=J;

   4608  2 000176   200007 235100                    LDA     J,,AUTO
         2 000177   200010 755100                    STA     U#,,AUTO

     1763     4609    5                       GOTO USERFND;

   4609  2 000200   001052 710000 2                  TRA     USERFND

     1764     4610    5                       END;
     1765     4611    4                    END;

   4611  2 000201   200007 054100                    AOS     J,,AUTO
         2 000202   200007 236100                    LDQ     J,,AUTO
         2 000203   000000 116000 xsym               CMPQ    DA_MUAIS
         2 000204   000163 604400 2                  TMOZ    s:4607

     1766     4612    3                 END;

   4612  2 000205   001047 710000 2                  TRA     NO_CUN

     1767     4613    2            CASE(%DA_USERSEL_ACCN);

     1768     4614    3              DO U#=DA_CUN+1 TO DA_MUAIS;
PL6.E3A0      #007=DAA$NXTUSR File=DAA$ANLZ.:E05TSI                              TUE 07/29/97 12:37 Page:365

   4614  2 000206   000000 235000 xsym               LDA     DA_CUN
         2 000207   000001 035007                    ADLA    1,DL
         2 000210   200010 755100                    STA     U#,,AUTO
         2 000211   000260 710000 2                  TRA     NXT4+1

     1769     4615    3                 CALL DAM$MAP(B$JIT$,JIT$,-U#,0) ALTRET(NXT4);;

   4615  2 000212   200010 335100                    LCA     U#,,AUTO
         2 000213   200016 755100                    STA     OUT$+1,,AUTO
         2 000214   000001 236000 3                  LDQ     1
         2 000215   200023 756100                    STQ     OUT$+6,,AUTO
         2 000216   200016 630500                    EPPR0   OUT$+1,,AUTO
         2 000217   200022 450500                    STP0    OUT$+5,,AUTO
         2 000220   200005 631500                    EPPR1   JIT$,,AUTO
         2 000221   200021 451500                    STP1    OUT$+4,,AUTO
         2 000222   000002 236000 3                  LDQ     2
         2 000223   200020 756100                    STQ     OUT$+3,,AUTO
         2 000224   200020 630500                    EPPR0   OUT$+3,,AUTO
         2 000225   000022 631400 xsym               EPPR1   B_VECTNIL+18
         2 000226   000000 701000 xent               TSX1    DAM$MAP
         2 000227   000257 702000 2                  TSX2    NXT4

     1770     4616    4                 DO J=0 TO OUT.NSUBLKS-1;

   4616  2 000230   200007 450100                    STZ     J,,AUTO
         2 000231   000252 710000 2                  TRA     NXTACCN+1

     1771     4617    4                    CALL DAA$WILDCOMP(OUT.SUBLK$(J)->SYM.COUNT,JIT$->B$JIT.ACCN,8)
              4617                             ALTRET(NXTACCN);

   4617  2 000232   200015 470500                    LDP0    OUT$,,AUTO
         2 000233   200007 720100                    LXL0    J,,AUTO
         2 000234   000003 471510                    LDP1    3,X0,PR0
         2 000235   000003 236000 3                  LDQ     3
         2 000236   200020 756100                    STQ     OUT$+3,,AUTO
         2 000237   200005 236100                    LDQ     JIT$,,AUTO
PL6.E3A0      #007=DAA$NXTUSR File=DAA$ANLZ.:E05TSI                              TUE 07/29/97 12:37 Page:366
         2 000240   000001 036003                    ADLQ    1,DU
         2 000241   200017 756100                    STQ     OUT$+2,,AUTO
         2 000242   100004 633500                    EPPR3   4,,PR1
         2 000243   200016 453500                    STP3    OUT$+1,,AUTO
         2 000244   200016 630500                    EPPR0   OUT$+1,,AUTO
         2 000245   000021 631400 xsym               EPPR1   B_VECTNIL+17
         2 000246   000000 701000 xent               TSX1    DAA$WILDCOMP
         2 000247   000251 702000 2                  TSX2    NXTACCN

     1772     4618    4                    GOTO USERFND;

   4618  2 000250   001052 710000 2                  TRA     USERFND

     1773     4619    4   NXTACCN:         END;

   4619  2 000251   200007 054100       NXTACCN      AOS     J,,AUTO
         2 000252   200015 470500                    LDP0    OUT$,,AUTO
         2 000253   000001 236100                    LDQ     1,,PR0
         2 000254   000022 772000                    QRL     18
         2 000255   200007 116100                    CMPQ    J,,AUTO
         2 000256   000232 605400 2                  TPNZ    s:4617

     1774     4620    3   NXT4:         END;

   4620  2 000257   200010 054100       NXT4         AOS     U#,,AUTO
         2 000260   200010 236100                    LDQ     U#,,AUTO
         2 000261   000000 116000 xsym               CMPQ    DA_MUAIS
         2 000262   000212 604400 2                  TMOZ    s:4615
         2 000263   001047 710000 2                  TRA     NO_CUN

     1775     4621    2            CASE(%DA_USERSEL_NAME);

     1776     4622    3              DO U#=DA_CUN+1 TO DA_MUAIS;

   4622  2 000264   000000 235000 xsym               LDA     DA_CUN
         2 000265   000001 035007                    ADLA    1,DL
         2 000266   200010 755100                    STA     U#,,AUTO
PL6.E3A0      #007=DAA$NXTUSR File=DAA$ANLZ.:E05TSI                              TUE 07/29/97 12:37 Page:367
         2 000267   000336 710000 2                  TRA     NXT5+1

     1777     4623    3                 CALL DAM$MAP(B$JIT$,JIT$,-U#,0) ALTRET(NXT5);

   4623  2 000270   200010 335100                    LCA     U#,,AUTO
         2 000271   200016 755100                    STA     OUT$+1,,AUTO
         2 000272   000001 236000 3                  LDQ     1
         2 000273   200023 756100                    STQ     OUT$+6,,AUTO
         2 000274   200016 630500                    EPPR0   OUT$+1,,AUTO
         2 000275   200022 450500                    STP0    OUT$+5,,AUTO
         2 000276   200005 631500                    EPPR1   JIT$,,AUTO
         2 000277   200021 451500                    STP1    OUT$+4,,AUTO
         2 000300   000002 236000 3                  LDQ     2
         2 000301   200020 756100                    STQ     OUT$+3,,AUTO
         2 000302   200020 630500                    EPPR0   OUT$+3,,AUTO
         2 000303   000022 631400 xsym               EPPR1   B_VECTNIL+18
         2 000304   000000 701000 xent               TSX1    DAM$MAP
         2 000305   000335 702000 2                  TSX2    NXT5

     1778     4624    4                 DO J=0 TO OUT.NSUBLKS-1;

   4624  2 000306   200007 450100                    STZ     J,,AUTO
         2 000307   000330 710000 2                  TRA     NXTNAME+1

     1779     4625    4                    CALL DAA$WILDCOMP(OUT.SUBLK$(J)->SYM.COUNT,JIT$->B$JIT.UNAME,12)
              4625                             ALTRET(NXTNAME);

   4625  2 000310   200015 470500                    LDP0    OUT$,,AUTO
         2 000311   200007 720100                    LXL0    J,,AUTO
         2 000312   000003 471510                    LDP1    3,X0,PR0
         2 000313   000005 236000 3                  LDQ     5
         2 000314   200020 756100                    STQ     OUT$+3,,AUTO
         2 000315   200005 236100                    LDQ     JIT$,,AUTO
         2 000316   000003 036003                    ADLQ    3,DU
         2 000317   200017 756100                    STQ     OUT$+2,,AUTO
         2 000320   100004 633500                    EPPR3   4,,PR1
         2 000321   200016 453500                    STP3    OUT$+1,,AUTO
PL6.E3A0      #007=DAA$NXTUSR File=DAA$ANLZ.:E05TSI                              TUE 07/29/97 12:37 Page:368
         2 000322   200016 630500                    EPPR0   OUT$+1,,AUTO
         2 000323   000021 631400 xsym               EPPR1   B_VECTNIL+17
         2 000324   000000 701000 xent               TSX1    DAA$WILDCOMP
         2 000325   000327 702000 2                  TSX2    NXTNAME

     1780     4626    4                    GOTO USERFND;

   4626  2 000326   001052 710000 2                  TRA     USERFND

     1781     4627    4   NXTNAME:         END;

   4627  2 000327   200007 054100       NXTNAME      AOS     J,,AUTO
         2 000330   200015 470500                    LDP0    OUT$,,AUTO
         2 000331   000001 236100                    LDQ     1,,PR0
         2 000332   000022 772000                    QRL     18
         2 000333   200007 116100                    CMPQ    J,,AUTO
         2 000334   000310 605400 2                  TPNZ    s:4625

     1782     4628    3   NXT5:         END;

   4628  2 000335   200010 054100       NXT5         AOS     U#,,AUTO
         2 000336   200010 236100                    LDQ     U#,,AUTO
         2 000337   000000 116000 xsym               CMPQ    DA_MUAIS
         2 000340   000270 604400 2                  TMOZ    s:4623
         2 000341   001047 710000 2                  TRA     NO_CUN

     1783     4629    2            CASE(%DA_USERSEL_CCBUF);

     1784     4630    3              DO U#=DA_CUN+1 TO DA_MUAIS;

   4630  2 000342   000000 235000 xsym               LDA     DA_CUN
         2 000343   000001 035007                    ADLA    1,DL
         2 000344   200010 755100                    STA     U#,,AUTO
         2 000345   000420 710000 2                  TRA     NXT6+1

     1785     4631    3                 CALL DAM$MAP(B$JIT$,JIT$,-U#,0) ALTRET(NXT6);

PL6.E3A0      #007=DAA$NXTUSR File=DAA$ANLZ.:E05TSI                              TUE 07/29/97 12:37 Page:369
   4631  2 000346   200010 335100                    LCA     U#,,AUTO
         2 000347   200016 755100                    STA     OUT$+1,,AUTO
         2 000350   000001 236000 3                  LDQ     1
         2 000351   200023 756100                    STQ     OUT$+6,,AUTO
         2 000352   200016 630500                    EPPR0   OUT$+1,,AUTO
         2 000353   200022 450500                    STP0    OUT$+5,,AUTO
         2 000354   200005 631500                    EPPR1   JIT$,,AUTO
         2 000355   200021 451500                    STP1    OUT$+4,,AUTO
         2 000356   000002 236000 3                  LDQ     2
         2 000357   200020 756100                    STQ     OUT$+3,,AUTO
         2 000360   200020 630500                    EPPR0   OUT$+3,,AUTO
         2 000361   000022 631400 xsym               EPPR1   B_VECTNIL+18
         2 000362   000000 701000 xent               TSX1    DAM$MAP
         2 000363   000417 702000 2                  TSX2    NXT6

     1786     4632    4                 DO J=0 TO OUT.NSUBLKS-1;

   4632  2 000364   200007 450100                    STZ     J,,AUTO
         2 000365   000412 710000 2                  TRA     NXTCCBUF+1

     1787     4633    4                   CALL DAA$WILDCOMP(OUT.SUBLK$(J)->SYM.COUNT,JIT$->B$JIT.CCBUF,BINBIT
              4633                             (JIT$->B$JIT.CCARS,36)) ALTRET(NXTCCBUF);

   4633  2 000366   200015 470500                    LDP0    OUT$,,AUTO
         2 000367   200007 720100                    LXL0    J,,AUTO
         2 000370   000003 471510                    LDP1    3,X0,PR0
         2 000371   200005 473500                    LDP3    JIT$,,AUTO
         2 000372   300032 236100                    LDQ     26,,PR3
         2 000373   000022 732000                    QRS     18
         2 000374   200016 756100                    STQ     OUT$+1,,AUTO
         2 000375   200016 634500                    EPPR4   OUT$+1,,AUTO
         2 000376   200022 454500                    STP4    OUT$+5,,AUTO
         2 000377   200005 236100                    LDQ     JIT$,,AUTO
         2 000400   000033 036003                    ADLQ    27,DU
         2 000401   200021 756100                    STQ     OUT$+4,,AUTO
         2 000402   100004 635500                    EPPR5   4,,PR1
         2 000403   200020 455500                    STP5    OUT$+3,,AUTO
PL6.E3A0      #007=DAA$NXTUSR File=DAA$ANLZ.:E05TSI                              TUE 07/29/97 12:37 Page:370
         2 000404   200020 630500                    EPPR0   OUT$+3,,AUTO
         2 000405   000021 631400 xsym               EPPR1   B_VECTNIL+17
         2 000406   000000 701000 xent               TSX1    DAA$WILDCOMP
         2 000407   000411 702000 2                  TSX2    NXTCCBUF

     1788     4634    4                    GOTO USERFND;

   4634  2 000410   001052 710000 2                  TRA     USERFND

     1789     4635    4   NXTCCBUF:        END;

   4635  2 000411   200007 054100       NXTCCBUF     AOS     J,,AUTO
         2 000412   200015 470500                    LDP0    OUT$,,AUTO
         2 000413   000001 236100                    LDQ     1,,PR0
         2 000414   000022 772000                    QRL     18
         2 000415   200007 116100                    CMPQ    J,,AUTO
         2 000416   000366 605400 2                  TPNZ    s:4633

     1790     4636    3   NXT6:         END;

   4636  2 000417   200010 054100       NXT6         AOS     U#,,AUTO
         2 000420   200010 236100                    LDQ     U#,,AUTO
         2 000421   000000 116000 xsym               CMPQ    DA_MUAIS
         2 000422   000346 604400 2                  TMOZ    s:4631
         2 000423   001047 710000 2                  TRA     NO_CUN

     1791     4637    2            CASE(%DA_USERSEL_STATE);

     1792     4638    3              DO U#=DA_CUN+1 TO DA_MUAIS;

   4638  2 000424   000000 235000 xsym               LDA     DA_CUN
         2 000425   000001 035007                    ADLA    1,DL
         2 000426   200010 755100                    STA     U#,,AUTO
         2 000427   000461 710000 2                  TRA     s:4642+1

     1793     4639    4                 DO I=0 TO OUT.NSUBLKS-1;

PL6.E3A0      #007=DAA$NXTUSR File=DAA$ANLZ.:E05TSI                              TUE 07/29/97 12:37 Page:371
   4639  2 000430   200006 450100                    STZ     I,,AUTO
         2 000431   000452 710000 2                  TRA     s:4641+3

     1794     4640    4                   IF B$USRT$->B$USER.US(U#)=OUT.SUBLK$(I)->OUT.CODE THEN GOTO USERFND
              4640                             ;

   4640  2 000432   200015 470500                    LDP0    OUT$,,AUTO
         2 000433   200006 720100                    LXL0    I,,AUTO
         2 000434   000003 471510                    LDP1    3,X0,PR0
         2 000435   100000 236100                    LDQ     0,,PR1
         2 000436   777777 376007                    ANQ     -1,DL
         2 000437   200016 756100                    STQ     OUT$+1,,AUTO
         2 000440   200010 235100                    LDA     U#,,AUTO
         2 000441   000004 735000                    ALS     4
         2 000442   000000 471400 xsym               LDP1    B$USRT$
         2 000443   100011 236105                    LDQ     9,AL,PR1
         2 000444   000036 772000                    QRL     30
         2 000445   200016 116100                    CMPQ    OUT$+1,,AUTO
         2 000446   001052 600000 2                  TZE     USERFND

     1795     4641    4                    END;

   4641  2 000447   200006 235100                    LDA     I,,AUTO
         2 000450   000001 035007                    ADLA    1,DL
         2 000451   200006 755100                    STA     I,,AUTO
         2 000452   200015 470500                    LDP0    OUT$,,AUTO
         2 000453   000001 236100                    LDQ     1,,PR0
         2 000454   000022 772000                    QRL     18
         2 000455   200006 116100                    CMPQ    I,,AUTO
         2 000456   000460 600000 2                  TZE     s:4642
         2 000457   000432 603000 2                  TRC     s:4640

     1796     4642    3                 END;

   4642  2 000460   200010 054100                    AOS     U#,,AUTO
         2 000461   200010 236100                    LDQ     U#,,AUTO
         2 000462   000000 116000 xsym               CMPQ    DA_MUAIS
PL6.E3A0      #007=DAA$NXTUSR File=DAA$ANLZ.:E05TSI                              TUE 07/29/97 12:37 Page:372
         2 000463   000430 604400 2                  TMOZ    s:4639
         2 000464   001047 710000 2                  TRA     NO_CUN

     1797     4643    2            CASE(%DA_USERSEL_FEP);

     1798     4644    3              DO J=0 TO OUT.NSUBLKS-1;

   4644  2 000465   200007 450100                    STZ     J,,AUTO
         2 000466   000507 710000 2                  TRA     s:4647+1

     1799     4645    3                 CALL DAA$VALUE(OUT.SUBLK$(J)->OUT,TEMP);

   4645  2 000467   200015 470500                    LDP0    OUT$,,AUTO
         2 000470   200007 720100                    LXL0    J,,AUTO
         2 000471   000003 471510                    LDP1    3,X0,PR0
         2 000472   200004 633500                    EPPR3   TEMP,,AUTO
         2 000473   200017 453500                    STP3    OUT$+2,,AUTO
         2 000474   200016 451500                    STP1    OUT$+1,,AUTO
         2 000475   200016 630500                    EPPR0   OUT$+1,,AUTO
         2 000476   000020 631400 xsym               EPPR1   B_VECTNIL+16
         2 000477   000000 701000 xent               TSX1    DAA$VALUE
         2 000500   000000 011000                    NOP     0

     1800     4646    3                 OUT.SUBLK$(J)->SYM.SCRITCH=TEMP;

   4646  2 000501   200015 470500                    LDP0    OUT$,,AUTO
         2 000502   200007 720100                    LXL0    J,,AUTO
         2 000503   000003 471510                    LDP1    3,X0,PR0
         2 000504   200004 721100                    LXL1    TEMP,,AUTO
         2 000505   100001 441100                    SXL1    1,,PR1

     1801     4647    3                 END;

   4647  2 000506   200007 054100                    AOS     J,,AUTO
         2 000507   200015 470500                    LDP0    OUT$,,AUTO
         2 000510   000001 236100                    LDQ     1,,PR0
         2 000511   000022 772000                    QRL     18
PL6.E3A0      #007=DAA$NXTUSR File=DAA$ANLZ.:E05TSI                              TUE 07/29/97 12:37 Page:373
         2 000512   200007 116100                    CMPQ    J,,AUTO
         2 000513   000467 605400 2                  TPNZ    s:4645

     1802     4648    3              DO U#=DA_CUN+1 TO DA_MUAIS;

   4648  2 000514   000000 235000 xsym               LDA     DA_CUN
         2 000515   000001 035007                    ADLA    1,DL
         2 000516   200010 755100                    STA     U#,,AUTO
         2 000517   000563 710000 2                  TRA     NXT7+1

     1803     4649    3                 CALL DAM$MAP(B$JIT$,JIT$,-U#,0) ALTRET(NXT7);

   4649  2 000520   200010 335100                    LCA     U#,,AUTO
         2 000521   200016 755100                    STA     OUT$+1,,AUTO
         2 000522   000001 236000 3                  LDQ     1
         2 000523   200023 756100                    STQ     OUT$+6,,AUTO
         2 000524   200016 630500                    EPPR0   OUT$+1,,AUTO
         2 000525   200022 450500                    STP0    OUT$+5,,AUTO
         2 000526   200005 631500                    EPPR1   JIT$,,AUTO
         2 000527   200021 451500                    STP1    OUT$+4,,AUTO
         2 000530   000002 236000 3                  LDQ     2
         2 000531   200020 756100                    STQ     OUT$+3,,AUTO
         2 000532   200020 630500                    EPPR0   OUT$+3,,AUTO
         2 000533   000022 631400 xsym               EPPR1   B_VECTNIL+18
         2 000534   000000 701000 xent               TSX1    DAM$MAP
         2 000535   000562 702000 2                  TSX2    NXT7

     1804     4650    4                 DO J=0 TO OUT.NSUBLKS-1;

   4650  2 000536   200007 450100                    STZ     J,,AUTO
         2 000537   000555 710000 2                  TRA     s:4654+1

     1805     4651    5                    IF JIT$->B$JIT.TSLINE.FEX=OUT.SUBLK$(J)->SYM.SCRITCH THEN DO;

   4651  2 000540   200015 470500                    LDP0    OUT$,,AUTO
         2 000541   200007 720100                    LXL0    J,,AUTO
         2 000542   000003 471510                    LDP1    3,X0,PR0
PL6.E3A0      #007=DAA$NXTUSR File=DAA$ANLZ.:E05TSI                              TUE 07/29/97 12:37 Page:374
         2 000543   100001 236100                    LDQ     1,,PR1
         2 000544   777777 376007                    ANQ     -1,DL
         2 000545   200016 756100                    STQ     OUT$+1,,AUTO
         2 000546   200005 471500                    LDP1    JIT$,,AUTO
         2 000547   100337 236100                    LDQ     223,,PR1
         2 000550   000033 772000                    QRL     27
         2 000551   200016 116100                    CMPQ    OUT$+1,,AUTO
         2 000552   000554 601000 2                  TNZ     s:4654

     1806     4652    5                       GOTO USERFND;

   4652  2 000553   001052 710000 2                  TRA     USERFND

     1807     4653    5                       END;
     1808     4654    4                    END;

   4654  2 000554   200007 054100                    AOS     J,,AUTO
         2 000555   200015 470500                    LDP0    OUT$,,AUTO
         2 000556   000001 236100                    LDQ     1,,PR0
         2 000557   000022 772000                    QRL     18
         2 000560   200007 116100                    CMPQ    J,,AUTO
         2 000561   000540 605400 2                  TPNZ    s:4651

     1809     4655    3   NXT7:         END;

   4655  2 000562   200010 054100       NXT7         AOS     U#,,AUTO
         2 000563   200010 236100                    LDQ     U#,,AUTO
         2 000564   000000 116000 xsym               CMPQ    DA_MUAIS
         2 000565   000520 604400 2                  TMOZ    s:4649
         2 000566   001047 710000 2                  TRA     NO_CUN

     1810     4656    2            CASE(%DA_USERSEL_LINE);

     1811     4657    3              DO J=0 TO OUT.NSUBLKS-1 BY 2;

   4657  2 000567   200007 450100                    STZ     J,,AUTO
         2 000570   000627 710000 2                  TRA     s:4662+2
PL6.E3A0      #007=DAA$NXTUSR File=DAA$ANLZ.:E05TSI                              TUE 07/29/97 12:37 Page:375

     1812     4658    3                 CALL DAA$VALUE(OUT.SUBLK$(J)->OUT,TEMP);

   4658  2 000571   200015 470500                    LDP0    OUT$,,AUTO
         2 000572   200007 720100                    LXL0    J,,AUTO
         2 000573   000003 471510                    LDP1    3,X0,PR0
         2 000574   200004 633500                    EPPR3   TEMP,,AUTO
         2 000575   200017 453500                    STP3    OUT$+2,,AUTO
         2 000576   200016 451500                    STP1    OUT$+1,,AUTO
         2 000577   200016 630500                    EPPR0   OUT$+1,,AUTO
         2 000600   000020 631400 xsym               EPPR1   B_VECTNIL+16
         2 000601   000000 701000 xent               TSX1    DAA$VALUE
         2 000602   000000 011000                    NOP     0

     1813     4659    3                 OUT.SUBLK$(J)->SYM.SCRITCH=TEMP;

   4659  2 000603   200015 470500                    LDP0    OUT$,,AUTO
         2 000604   200007 720100                    LXL0    J,,AUTO
         2 000605   000003 471510                    LDP1    3,X0,PR0
         2 000606   200004 721100                    LXL1    TEMP,,AUTO
         2 000607   100001 441100                    SXL1    1,,PR1

     1814     4660    3                 CALL DAA$VALUE(OUT.SUBLK$(J+1)->OUT,TEMP);

   4660  2 000610   000004 471510                    LDP1    4,X0,PR0
         2 000611   200004 633500                    EPPR3   TEMP,,AUTO
         2 000612   200017 453500                    STP3    OUT$+2,,AUTO
         2 000613   200016 451500                    STP1    OUT$+1,,AUTO
         2 000614   200016 630500                    EPPR0   OUT$+1,,AUTO
         2 000615   000020 631400 xsym               EPPR1   B_VECTNIL+16
         2 000616   000000 701000 xent               TSX1    DAA$VALUE
         2 000617   000000 011000                    NOP     0

     1815     4661    3                 OUT.SUBLK$(J+1)->SYM.SCRITCH=TEMP;

   4661  2 000620   200015 470500                    LDP0    OUT$,,AUTO
         2 000621   200007 720100                    LXL0    J,,AUTO
PL6.E3A0      #007=DAA$NXTUSR File=DAA$ANLZ.:E05TSI                              TUE 07/29/97 12:37 Page:376
         2 000622   000004 471510                    LDP1    4,X0,PR0
         2 000623   200004 721100                    LXL1    TEMP,,AUTO
         2 000624   100001 441100                    SXL1    1,,PR1

     1816     4662    3                 END;

   4662  2 000625   000002 236007                    LDQ     2,DL
         2 000626   200007 056100                    ASQ     J,,AUTO
         2 000627   200015 470500                    LDP0    OUT$,,AUTO
         2 000630   000001 236100                    LDQ     1,,PR0
         2 000631   000022 772000                    QRL     18
         2 000632   200007 116100                    CMPQ    J,,AUTO
         2 000633   000571 605400 2                  TPNZ    s:4658

     1817     4663    3              DO U#=DA_CUN+1 TO DA_MUAIS;

   4663  2 000634   000000 235000 xsym               LDA     DA_CUN
         2 000635   000001 035007                    ADLA    1,DL
         2 000636   200010 755100                    STA     U#,,AUTO
         2 000637   000711 710000 2                  TRA     NXT8+1

     1818     4664    3                 CALL DAM$MAP(B$JIT$,JIT$,-U#,0) ALTRET(NXT8);

   4664  2 000640   200010 335100                    LCA     U#,,AUTO
         2 000641   200016 755100                    STA     OUT$+1,,AUTO
         2 000642   000001 236000 3                  LDQ     1
         2 000643   200023 756100                    STQ     OUT$+6,,AUTO
         2 000644   200016 630500                    EPPR0   OUT$+1,,AUTO
         2 000645   200022 450500                    STP0    OUT$+5,,AUTO
         2 000646   200005 631500                    EPPR1   JIT$,,AUTO
         2 000647   200021 451500                    STP1    OUT$+4,,AUTO
         2 000650   000002 236000 3                  LDQ     2
         2 000651   200020 756100                    STQ     OUT$+3,,AUTO
         2 000652   200020 630500                    EPPR0   OUT$+3,,AUTO
         2 000653   000022 631400 xsym               EPPR1   B_VECTNIL+18
         2 000654   000000 701000 xent               TSX1    DAM$MAP
         2 000655   000710 702000 2                  TSX2    NXT8
PL6.E3A0      #007=DAA$NXTUSR File=DAA$ANLZ.:E05TSI                              TUE 07/29/97 12:37 Page:377

     1819     4665    4                 DO J=0 TO OUT.NSUBLKS-1 BY 2;

   4665  2 000656   200007 450100                    STZ     J,,AUTO
         2 000657   000703 710000 2                  TRA     s:4670+2

     1820     4666    4                    IF JIT$->B$JIT.TSLINE.FEX=OUT.SUBLK$(J)->SYM.SCRITCH AND

   4666  2 000660   200015 470500                    LDP0    OUT$,,AUTO
         2 000661   200007 720100                    LXL0    J,,AUTO
         2 000662   000003 471510                    LDP1    3,X0,PR0
         2 000663   100001 236100                    LDQ     1,,PR1
         2 000664   777777 376007                    ANQ     -1,DL
         2 000665   200016 756100                    STQ     OUT$+1,,AUTO
         2 000666   200005 471500                    LDP1    JIT$,,AUTO
         2 000667   100337 236100                    LDQ     223,,PR1
         2 000670   000033 772000                    QRL     27
         2 000671   200016 116100                    CMPQ    OUT$+1,,AUTO
         2 000672   000701 601000 2                  TNZ     s:4670
         2 000673   000004 473510                    LDP3    4,X0,PR0
         2 000674   100337 236100                    LDQ     223,,PR1
         2 000675   300001 676100                    ERQ     1,,PR3
         2 000676   777777 376007                    ANQ     -1,DL
         2 000677   000701 601000 2                  TNZ     s:4670

     1821     4667    5                      JIT$->B$JIT.TSLINE.PORT=OUT.SUBLK$(J+1)->SYM.SCRITCH THEN DO;

     1822     4668    5                       GOTO USERFND;

   4668  2 000700   001052 710000 2                  TRA     USERFND

     1823     4669    5                       END;
     1824     4670    4                    END;

   4670  2 000701   000002 236007                    LDQ     2,DL
         2 000702   200007 056100                    ASQ     J,,AUTO
         2 000703   200015 470500                    LDP0    OUT$,,AUTO
PL6.E3A0      #007=DAA$NXTUSR File=DAA$ANLZ.:E05TSI                              TUE 07/29/97 12:37 Page:378
         2 000704   000001 236100                    LDQ     1,,PR0
         2 000705   000022 772000                    QRL     18
         2 000706   200007 116100                    CMPQ    J,,AUTO
         2 000707   000660 605400 2                  TPNZ    s:4666

     1825     4671    3   NXT8:         END;

   4671  2 000710   200010 054100       NXT8         AOS     U#,,AUTO
         2 000711   200010 236100                    LDQ     U#,,AUTO
         2 000712   000000 116000 xsym               CMPQ    DA_MUAIS
         2 000713   000640 604400 2                  TMOZ    s:4664
         2 000714   001047 710000 2                  TRA     NO_CUN

     1826     4672    2            CASE(%DA_USERSEL_PRIV,%DA_USERSEL_PRIVACT,%DA_USERSEL_PRIVAUTH,%
              4672                     DA_USERSEL_PRIVPRC,%DA_USERSEL_PRIVJOB);

     1827     4673    2              CPRIV='0'B;

   4673  2 000715   200013 450100                    STZ     CPRIV,,AUTO
         2 000716   200014 450100                    STZ     CPRIV+1,,AUTO

     1828     4674    2              IF DA_CUN<JG_MING# THEN DA_CUN=JG_MING#; /*SKIP GHOSTS*/

   4674  2 000717   000000 235000 xsym               LDA     DA_CUN
         2 000720   000017 115007                    CMPA    15,DL
         2 000721   000724 605000 2                  TPL     s:4675

   4674  2 000722   000017 235007                    LDA     15,DL
         2 000723   000000 755000 xsym               STA     DA_CUN

     1829     4675    3              DO J=0 TO OUT.NSUBLKS-1;

   4675  2 000724   200007 450100                    STZ     J,,AUTO
         2 000725   000737 710000 2                  TRA     s:4677+1

     1830     4676    3                 CPRIV(OUT.SUBLK$(J)->OUT.CODE-1)='1'B;

PL6.E3A0      #007=DAA$NXTUSR File=DAA$ANLZ.:E05TSI                              TUE 07/29/97 12:37 Page:379
   4676  2 000726   200015 470500                    LDP0    OUT$,,AUTO
         2 000727   200007 720100                    LXL0    J,,AUTO
         2 000730   000003 471510                    LDP1    3,X0,PR0
         2 000731   100000 236100                    LDQ     0,,PR1
         2 000732   777777 376007                    ANQ     -1,DL
         2 000733   003106 060400                    CSL     bolr='003'O
         2 000734   000030 000001 xsym               BDSC    B_VECTNIL+24             by=0,bit=0,n=1
         2 000735   200012 700001                    BDSC    JPRIV+1,Q,AUTO           by=3,bit=8,n=1

     1831     4677    3                 END;

   4677  2 000736   200007 054100                    AOS     J,,AUTO
         2 000737   200015 470500                    LDP0    OUT$,,AUTO
         2 000740   000001 236100                    LDQ     1,,PR0
         2 000741   000022 772000                    QRL     18
         2 000742   200007 116100                    CMPQ    J,,AUTO
         2 000743   000726 605400 2                  TPNZ    s:4676

     1832     4678    3              DO U#=DA_CUN+1 TO DA_MUAIS;

   4678  2 000744   000000 235000 xsym               LDA     DA_CUN
         2 000745   000001 035007                    ADLA    1,DL
         2 000746   200010 755100                    STA     U#,,AUTO
         2 000747   001044 710000 2                  TRA     NXT9+1

     1833     4679    3                 CALL DAM$MAP(B$JIT$,JIT$,-U#,0) ALTRET(NXT9);

   4679  2 000750   200010 335100                    LCA     U#,,AUTO
         2 000751   200016 755100                    STA     OUT$+1,,AUTO
         2 000752   000001 236000 3                  LDQ     1
         2 000753   200023 756100                    STQ     OUT$+6,,AUTO
         2 000754   200016 630500                    EPPR0   OUT$+1,,AUTO
         2 000755   200022 450500                    STP0    OUT$+5,,AUTO
         2 000756   200005 631500                    EPPR1   JIT$,,AUTO
         2 000757   200021 451500                    STP1    OUT$+4,,AUTO
         2 000760   000002 236000 3                  LDQ     2
         2 000761   200020 756100                    STQ     OUT$+3,,AUTO
PL6.E3A0      #007=DAA$NXTUSR File=DAA$ANLZ.:E05TSI                              TUE 07/29/97 12:37 Page:380
         2 000762   200020 630500                    EPPR0   OUT$+3,,AUTO
         2 000763   000022 631400 xsym               EPPR1   B_VECTNIL+18
         2 000764   000000 701000 xent               TSX1    DAM$MAP
         2 000765   001043 702000 2                  TSX2    NXT9

     1834     4680    4                 DO CASE(OUT.CODE);

   4680  2 000766   200015 470500                    LDP0    OUT$,,AUTO
         2 000767   000000 236100                    LDQ     0,,PR0
         2 000770   777777 376007                    ANQ     -1,DL
         2 000771   000011 136007                    SBLQ    9,DL
         2 000772   000005 116007                    CMPQ    5,DL
         2 000773   000775 602006 2                  TNC     s:4680+7,QL
         2 000774   001027 710000 2                  TRA     s:4692
         2 000775   001002 710000 2                  TRA     s:4682
         2 000776   001024 710000 2                  TRA     s:4690
         2 000777   001010 710000 2                  TRA     s:4684
         2 001000   001014 710000 2                  TRA     s:4686
         2 001001   001020 710000 2                  TRA     s:4688

     1835     4681    4                  CASE(%DA_USERSEL_PRIV);

     1836     4682    4                   JPRIV.PRIV=JIT$->B$JIT.PRIV.ACTIVE|JIT$->B$JIT.PRIV.JOB|JIT$->B$JIT
              4682                             .PRIV.AUTH;

   4682  2 001002   200005 471500                    LDP1    JIT$,,AUTO
         2 001003   100013 236100                    LDQ     11,,PR1
         2 001004   100015 276100                    ORQ     13,,PR1
         2 001005   100014 276100                    ORQ     12,,PR1
         2 001006   200011 756100                    STQ     JPRIV,,AUTO
         2 001007   001027 710000 2                  TRA     s:4692

     1837     4683    4                  CASE(%DA_USERSEL_PRIVACT);

     1838     4684    4                    JPRIV.PRIV=JIT$->B$JIT.PRIV.ACTIVE;

   4684  2 001010   200005 471500                    LDP1    JIT$,,AUTO
PL6.E3A0      #007=DAA$NXTUSR File=DAA$ANLZ.:E05TSI                              TUE 07/29/97 12:37 Page:381
         2 001011   100013 236100                    LDQ     11,,PR1
         2 001012   200011 756100                    STQ     JPRIV,,AUTO
         2 001013   001027 710000 2                  TRA     s:4692

     1839     4685    4                  CASE(%DA_USERSEL_PRIVAUTH);

     1840     4686    4                    JPRIV.PRIV=JIT$->B$JIT.PRIV.AUTH;

   4686  2 001014   200005 471500                    LDP1    JIT$,,AUTO
         2 001015   100014 236100                    LDQ     12,,PR1
         2 001016   200011 756100                    STQ     JPRIV,,AUTO
         2 001017   001027 710000 2                  TRA     s:4692

     1841     4687    4                  CASE(%DA_USERSEL_PRIVPRC);

     1842     4688    4                    JPRIV.PRIV=JIT$->B$JIT.PRIV.PRC;

   4688  2 001020   200005 471500                    LDP1    JIT$,,AUTO
         2 001021   100016 236100                    LDQ     14,,PR1
         2 001022   200011 756100                    STQ     JPRIV,,AUTO
         2 001023   001027 710000 2                  TRA     s:4692

     1843     4689    4                  CASE(%DA_USERSEL_PRIVJOB);

     1844     4690    4                    JPRIV.PRIV=JIT$->B$JIT.PRIV.JOB;

   4690  2 001024   200005 471500                    LDP1    JIT$,,AUTO
         2 001025   100015 236100                    LDQ     13,,PR1
         2 001026   200011 756100                    STQ     JPRIV,,AUTO

     1845     4691    4                  END;

     1846     4692    3                 JPRIV.PPRIV=JIT$->B$JIT.PPRIV;

   4692  2 001027   200005 471500                    LDP1    JIT$,,AUTO
         2 001030   100020 236100                    LDQ     16,,PR1
         2 001031   200012 756100                    STQ     JPRIV+1,,AUTO
PL6.E3A0      #007=DAA$NXTUSR File=DAA$ANLZ.:E05TSI                              TUE 07/29/97 12:37 Page:382

     1847     4693    3                 IF JPRIV & CPRIV THEN GOTO USERFND;

   4693  2 001032   000100 100500                    MLR     fill='000'O
         2 001033   200013 000010                    ADSC9   CPRIV,,AUTO              cn=0,n=8
         2 001034   200016 000010                    ADSC9   OUT$+1,,AUTO             cn=0,n=8
         2 001035   000100 100500                    MLR     fill='000'O
         2 001036   200011 000010                    ADSC9   JPRIV,,AUTO              cn=0,n=8
         2 001037   200020 000010                    ADSC9   OUT$+3,,AUTO             cn=0,n=8
         2 001040   200020 237100                    LDAQ    OUT$+3,,AUTO
         2 001041   200016 377100                    ANAQ    OUT$+1,,AUTO
         2 001042   001052 601000 2                  TNZ     USERFND

     1848     4694    3   NXT9:         END;

   4694  2 001043   200010 054100       NXT9         AOS     U#,,AUTO
         2 001044   200010 236100                    LDQ     U#,,AUTO
         2 001045   000000 116000 xsym               CMPQ    DA_MUAIS
         2 001046   000750 604400 2                  TMOZ    s:4679

     1849     4695    2            END;

   4692  2 001047                       NO_CUN       null
     1850     4696    1   NO_CUN: ;
     1851     4697    1           DA_MAPERR='0'B;

   4697  2 001047   000000 450000 xsym               STZ     DA_MAPERR

     1852     4698    1           U#=DA_CUN;

   4698  2 001050   000000 235000 xsym               LDA     DA_CUN
         2 001051   200010 755100                    STA     U#,,AUTO

     1853     4699    1   USERFND:
     1854     4700    2           IF U#<=DA_CUN OR U#=0 OR U#>DA_MUAIS THEN DO;

   4700  2 001052   200010 236100       USERFND      LDQ     U#,,AUTO
PL6.E3A0      #007=DAA$NXTUSR File=DAA$ANLZ.:E05TSI                              TUE 07/29/97 12:37 Page:383
         2 001053   000000 116000 xsym               CMPQ    DA_CUN
         2 001054   001061 604400 2                  TMOZ    s:4701
         2 001055   000000 116003                    CMPQ    0,DU
         2 001056   001061 600000 2                  TZE     s:4701
         2 001057   000000 116000 xsym               CMPQ    DA_MUAIS
         2 001060   001071 604400 2                  TMOZ    s:4710

     1855     4701    3              IF DA_CUN=0 THEN DO;

   4701  2 001061   000000 235000 xsym               LDA     DA_CUN
         2 001062   001070 601000 2                  TNZ     s:4708

     1856     4702    3                 DA_MAPERR='040101000000'O;

   4702  2 001063   000000 236000 1                  LDQ     0
         2 001064   000000 756000 xsym               STQ     DA_MAPERR

     1857     4703    3                 DA_MAPERR.CODE=%E$DA_NO_USER;

   4703  2 001065   000006 376000 3                  ANQ     6
         2 001066   001440 276007                    ORQ     800,DL
         2 001067   000000 756000 xsym               STQ     DA_MAPERR

     1858     4704        /*E*    ERROR:   DAA-E$DA_NO_USER
     1859     4705                MESSAGE: No such user found.
     1860     4706                                                                           */
     1861     4707    3                 END;

     1862     4708    2              ALTRETURN;

   4708  2 001070   000000 702200 xent               TSX2  ! X66_AALT

     1863     4709    2              END;
     1864     4710    1           DA_CUN=U#;

   4710  2 001071   000000 756000 xsym               STQ     DA_CUN

PL6.E3A0      #007=DAA$NXTUSR File=DAA$ANLZ.:E05TSI                              TUE 07/29/97 12:37 Page:384
     1865     4711    1           DA_MAPERR='0'B;

   4711  2 001072   000000 450000 xsym               STZ     DA_MAPERR

     1866     4712    1           RETURN;

   4712  2 001073   000000 702200 xent               TSX2  ! X66_ARET
     1867     4713    1   END DAA$NXTUSR;
     1868     4714        %EOD;

PL6.E3A0      #007=DAA$NXTUSR File=DAA$ANLZ.:E05TSI                              TUE 07/29/97 12:37 Page:385
--  Include file information  --

   B$USER.:E05TOU  cannot be made into a system file and is referenced.
   SS_SCHED_C.:E05TOU  is referenced.
   DA_PERR_C.:E05TOU  is referenced.
   DA_TEXTC_C.:E05TOU  is referenced.
   DA_CMD_C.:E05TOU  is referenced.
   DA_ANLZ_R.:E05TOU  cannot be made into a system file and is referenced.
   DA_MAP_R.:E05TOU  cannot be made into a system file and is referenced.
   B$JIT.:E05TOU  cannot be made into a system file and is referenced.
   JG_GHOSTS_C.:E05TOU  is referenced.
   XU_MACRO_C.:E05TOU  is referenced.
   B$JIT_C.:E05TOU  was found in the system file and is referenced.
   CP_6_C.:E05TOU  was found in the system file and is never referenced.
      No diagnostics issued in procedure DAA$NXTUSR.
PL6.E3A0      #007=DAA$NXTUSR File=DAA$ANLZ.:E05TSI                              TUE 07/29/97 12:37 Page:386

 **** Variables and constants ****

  ****  Section 000  Data  DAA$NXTUSR

  ****  Scalars and arrays  ****
OctLoc.c.b A Datatyp(siz) R M Lvl/name                 OctLoc.c.b A Datatyp(siz) R M Lvl/name

     0-0-0/b BIT         r     1 MODEFLAGS(0:4)

  ****  Auto variables  ****

  ****  Scalars and arrays  ****
OctLoc.c.b A Datatyp(siz) R M Lvl/name                 OctLoc.c.b A Datatyp(siz) R M Lvl/name

     3-0-0/w PTR         r     1 @TOP                      13-0-0/b BIT         r     1 CPRIV(0:71)
     6-0-0/w UBIN        r     1 I                          7-0-0/w SBIN        r     1 J
     5-0-0/w PTR         r     1 JIT$                      11-0-0/b STRC(72)    r     1 JPRIV
    15-0-0/w PTR         r     1 OUT$                       4-0-0/w SBIN        r     1 TEMP
    *0-0-0/w STRC(144)   r     1 TOP                       10-0-0/w SBIN        r     1 U#

  ****  SYMREF variables  ****

  ****  Scalars and arrays  ****
OctLoc.c.b A Datatyp(siz) R M Lvl/name                 OctLoc.c.b A Datatyp(siz) R M Lvl/name

     0-0-0/w PTR         r     1 B$JIT$                     0-0-0/w PTR         r     1 B$USRT$
     0-0-0/w SBIN        r     1 DA_CUN                     0-0-0/w STRC        r     1 DA_MAPERR
     0-0-0/w SBIN        r     1 DA_MUAIS

  ****  BASED and DCB variables  ****

  ****  Scalars and arrays  ****
OctLoc.c.b A Datatyp(siz) R M Lvl/name                 OctLoc.c.b A Datatyp(siz) R M Lvl/name

     0-0-0/d STRC(8856)  r     1 B$JIT                      0-0-0/w STRC(576)   r     1 B$USER(0:0)
     0-0-0/w STRC(144)   r     1 OUT                        0-0-0/w ASTR(153)   r     1 SYM

PL6.E3A0      #007=DAA$NXTUSR File=DAA$ANLZ.:E05TSI                              TUE 07/29/97 12:37 Page:387

   Procedure DAA$NXTUSR requires 572 words for executable code.
   Procedure DAA$NXTUSR requires 20 words of local(AUTO) storage.
PL6.E3A0      #007=DAA$NXTUSR File=DAA$ANLZ.:E05TSI                              TUE 07/29/97 12:37 Page:388
          *** CROSS REFERENCE LISTING ***
**     DENOTES     IDENTIFIER DEFINITION
<<                 IDENTIFIER'S VALUE SET
>>                 IDENTIFIER'S VALUE USED
<>                 IDENTIFIER SET AND/OR USED
--                 IDENTIFIER REFERENCED
PL6.E3A0      #007=DAA$NXTUSR File=DAA$ANLZ.:E05TSI                              TUE 07/29/97 12:37 Page:389
          MINI XREF LISTING

B$DO.ECCINFO
      4512**DCL      4513--REDEF
B$JIT.ACCN
      3265**DCL      4617<>CALL
B$JIT.CCARS
      3353**DCL      4633>>CALL
B$JIT.CCBUF
      3353**DCL      4633<>CALL
B$JIT.CPFLAGS1.SLEAZE
      3359**DCL      3359--REDEF
B$JIT.ERR.MID
      3266**DCL      3266--REDEF
B$JIT.JRESPEAK
      3427**DCL      3428--REDEF
B$JIT.ORIGINATOR_PORT.FROM_CR
      3536**DCL      3536--REDEF    3537--REDEF
B$JIT.PNR
      3440**DCL      3440--REDEF
B$JIT.PPRIV
      3321**DCL      4692>>ASSIGN
B$JIT.PRIV.ACTIVE
      3266**DCL      4682>>ASSIGN   4684>>ASSIGN
B$JIT.PRIV.AUTH
      3306**DCL      4682>>ASSIGN   4686>>ASSIGN
B$JIT.PRIV.JOB
      3309**DCL      4682>>ASSIGN   4690>>ASSIGN
B$JIT.PRIV.PRC
      3313**DCL      4688>>ASSIGN
B$JIT.TSLINE
      3534**DCL      3535--REDEF
B$JIT.TSLINE.FEX
      3534**DCL      4651>>IF       4666>>IF
PL6.E3A0      #007=DAA$NXTUSR File=DAA$ANLZ.:E05TSI                              TUE 07/29/97 12:37 Page:390
B$JIT.TSLINE.PORT
      3534**DCL      4666>>IF
B$JIT.UNAME
      3265**DCL      4625<>CALL
B$JIT$
      3250**DCL      3260--IMP-PTR  4615<>CALL     4623<>CALL     4631<>CALL     4649<>CALL     4664<>CALL
      4679<>CALL
B$U.MISC
      4491**DCL      4492--REDEF
B$USER.MISC
      4567**DCL      4568--REDEF
B$USER.MODE
      4558**DCL      4594>>IF
B$USER.SYSID
      4562**DCL      4607>>IF
B$USER.US
      4554**DCL      4586>>IF       4594>>IF       4603>>IF       4607>>IF       4640>>IF
B$USRT$
      4579**DCL      4586>>IF       4594>>IF       4594>>IF       4603>>IF       4607>>IF       4607>>IF
      4640>>IF
CPRIV
      3549**DCL      4673<<ASSIGN   4676<<ASSIGN   4693>>IF
DAA$VALUE
      3551**DCL-ENT  4600--CALL     4645--CALL     4658--CALL     4660--CALL
DAA$WILDCOMP
      3552**DCL-ENT  4617--CALL     4625--CALL     4633--CALL
DAM$MAP
      3553**DCL-ENT  4615--CALL     4623--CALL     4631--CALL     4649--CALL     4664--CALL     4679--CALL
DA_CUN
      3679**DCL      4585>>DOINDEX  4593>>DOINDEX  4599>>IF       4606>>DOINDEX  4614>>DOINDEX  4622>>DOINDEX
      4630>>DOINDEX  4638>>DOINDEX  4648>>DOINDEX  4663>>DOINDEX  4674>>IF       4674<<ASSIGN   4678>>DOINDEX
      4698>>ASSIGN   4700>>IF       4701>>IF       4710<<ASSIGN
DA_MAPERR
      3665**DCL      4697<<ASSIGN   4702<<ASSIGN   4711<<ASSIGN
DA_MAPERR.CODE
      3665**DCL      4703<<ASSIGN
PL6.E3A0      #007=DAA$NXTUSR File=DAA$ANLZ.:E05TSI                              TUE 07/29/97 12:37 Page:391
DA_MAPSEG.P
      3666**DCL      3667--REDEF
DA_MUAIS
      3655**DCL      4585>>DOINDEX  4593>>DOINDEX  4602>>IF       4606>>DOINDEX  4614>>DOINDEX  4622>>DOINDEX
      4630>>DOINDEX  4638>>DOINDEX  4648>>DOINDEX  4663>>DOINDEX  4678>>DOINDEX  4700>>IF
DA_SDASN.DESC.TYPE0
      3651**DCL      3651--REDEF
DA_TIGRSEG.P
      3667**DCL      3668--REDEF
I
      3543**DCL      4590<<DOINDEX  4591>>ASSIGN   4600<>CALL     4601>>IF       4639<<DOINDEX  4640>>IF
J
      3544**DCL      4606<<DOINDEX  4607>>IF       4607>>IF       4608>>ASSIGN   4616<<DOINDEX  4617>>CALL
      4624<<DOINDEX  4625>>CALL     4632<<DOINDEX  4633>>CALL     4644<<DOINDEX  4645>>CALL     4646>>ASSIGN
      4650<<DOINDEX  4651>>IF       4657<<DOINDEX  4658>>CALL     4659>>ASSIGN   4660>>CALL     4661>>ASSIGN
      4665<<DOINDEX  4666>>IF       4666>>IF       4675<<DOINDEX  4676>>ASSIGN
JIT$
      3542**DCL      4615<>CALL     4617>>CALL     4623<>CALL     4625>>CALL     4631<>CALL     4633>>CALL
      4633>>CALL     4649<>CALL     4651>>IF       4664<>CALL     4666>>IF       4666>>IF       4679<>CALL
      4682>>ASSIGN   4682>>ASSIGN   4682>>ASSIGN   4684>>ASSIGN   4686>>ASSIGN   4688>>ASSIGN   4690>>ASSIGN
      4692>>ASSIGN
JPRIV
      3546**DCL      4693>>IF
JPRIV.PPRIV
      3548**DCL      4692<<ASSIGN
JPRIV.PRIV
      3547**DCL      4682<<ASSIGN   4684<<ASSIGN   4686<<ASSIGN   4688<<ASSIGN   4690<<ASSIGN
MODEFLAGS
      3640**DCL      4589<<ASSIGN   4591<<ASSIGN   4594>>IF
NO_CUN
      4692**LABEL    4599--GOTO
NXT4
      4620**LABEL    4615--CALLALT
NXT5
      4628**LABEL    4623--CALLALT
NXT6
PL6.E3A0      #007=DAA$NXTUSR File=DAA$ANLZ.:E05TSI                              TUE 07/29/97 12:37 Page:392
      4636**LABEL    4631--CALLALT
NXT7
      4655**LABEL    4649--CALLALT
NXT8
      4671**LABEL    4664--CALLALT
NXT9
      4694**LABEL    4679--CALLALT
NXTACCN
      4619**LABEL    4617--CALLALT
NXTCCBUF
      4635**LABEL    4633--CALLALT
NXTNAME
      4627**LABEL    4625--CALLALT
OUT
      3562**DCL      4600<>CALL     4645<>CALL     4658<>CALL     4660<>CALL
OUT.CODE
      3570**DCL      4583>>DOCASE   4591>>ASSIGN   4640>>IF       4676>>ASSIGN   4680>>DOCASE
OUT.NSUBLKS
      3574**DCL      4590>>DOINDEX  4616>>DOINDEX  4624>>DOINDEX  4632>>DOINDEX  4639>>DOINDEX  4644>>DOINDEX
      4650>>DOINDEX  4657>>DOINDEX  4665>>DOINDEX  4675>>DOINDEX
OUT.SUBLK$
      3595**DCL      4591>>ASSIGN   4600>>CALL     4617>>CALL     4625>>CALL     4633>>CALL     4640>>IF
      4645>>CALL     4646>>ASSIGN   4651>>IF       4658>>CALL     4659>>ASSIGN   4660>>CALL     4661>>ASSIGN
      4666>>IF       4666>>IF       4676>>ASSIGN
OUT$
      3555**DCL      3562--IMP-PTR  3608--IMP-PTR  4582<<ASSIGN   4583>>DOCASE   4590>>DOINDEX  4591>>ASSIGN
      4600>>CALL     4616>>DOINDEX  4617>>CALL     4624>>DOINDEX  4625>>CALL     4632>>DOINDEX  4633>>CALL
      4639>>DOINDEX  4640>>IF       4644>>DOINDEX  4645>>CALL     4646>>ASSIGN   4650>>DOINDEX  4651>>IF
      4657>>DOINDEX  4658>>CALL     4659>>ASSIGN   4660>>CALL     4661>>ASSIGN   4665>>DOINDEX  4666>>IF
      4666>>IF       4675>>DOINDEX  4676>>ASSIGN   4680>>DOCASE
SYM.COUNT
      3631**DCL      3634--IMP-SIZ  4617<>CALL     4625<>CALL     4633<>CALL
SYM.SCRITCH
      3620**DCL      4646<<ASSIGN   4651>>IF       4659<<ASSIGN   4661<<ASSIGN   4666>>IF       4666>>IF
TEMP
      3541**DCL      4645<>CALL     4646>>ASSIGN   4658<>CALL     4659>>ASSIGN   4660<>CALL     4661>>ASSIGN
PL6.E3A0      #007=DAA$NXTUSR File=DAA$ANLZ.:E05TSI                              TUE 07/29/97 12:37 Page:393
TOP
      3119**DCL         6--PROC
TOP.SUBLK$
      3152**DCL      4582>>ASSIGN
U#
      3545**DCL      4585<<DOINDEX  4586>>IF       4593<<DOINDEX  4594>>IF       4594>>IF       4600<>CALL
      4602>>IF       4603>>IF       4607>>IF       4608<<ASSIGN   4614<<DOINDEX  4615<>CALL     4622<<DOINDEX
      4623<>CALL     4630<<DOINDEX  4631<>CALL     4638<<DOINDEX  4640>>IF       4648<<DOINDEX  4649<>CALL
      4663<<DOINDEX  4664<>CALL     4678<<DOINDEX  4679<>CALL     4698<<ASSIGN   4700>>IF       4700>>IF
      4700>>IF       4710>>ASSIGN
USERFND
      4700**LABEL    4586--GOTO     4595--GOTO     4603--GOTO     4609--GOTO     4618--GOTO     4626--GOTO
      4634--GOTO     4640--GOTO     4652--GOTO     4668--GOTO     4693--GOTO

PL6.E3A0      #008=DAA$WILDCOMP File=DAA$ANLZ.:E05TSI                            TUE 07/29/97 12:37 Page:394
     1869        1        /*T***********************************************************/
     1870        2        /*T*                                                         */
     1871        3        /*T* Copyright (c) Bull HN Information Systems Inc., 1997    */
     1872        4        /*T*                                                         */
     1873        5        /*T***********************************************************/
     1874        6        DAA$WILDCOMP: PROC(WILDSTR,STR,STRSIZ) ALTRET;
     1875        7    1   DCL 1 WILDSTR,
     1876        8    1         2 L UBIN BYTE UNAL,
     1877        9    1         2 C CHAR(WILDSTR.L);
     1878       10    1   DCL STR CHAR(STRSIZ);
     1879       11    1   DCL STRSIZ UBIN;
     1880       12    1   DCL WX UBIN;
     1881       13    1   DCL WXP UBIN;
     1882       14    1   DCL CX UBIN;
     1883       15    1   DCL CXP UBIN;
     1884       16        /**/
     1885       17        /**/
     1886       18        /**/
     1887       19    1           WX=0;
     1888       20    1           WXP=WILDSTR.L;
     1889       21    1           CX=0;
     1890       22    1           CXP=0;
     1891       23    2           DO WHILE(WX<WILDSTR.L AND SUBSTR(WILDSTR.C,WX)~=' '
     1892       24    2             OR CX<STRSIZ AND SUBSTR(STR,CX)~=' ');
     1893       25    3              IF WX<WILDSTR.L AND SUBSTR(WILDSTR.C,WX,1)='?' THEN DO;
     1894       26    3                 WXP=WX;
     1895       27    3                 END;
     1896       28    3              ELSE DO;
     1897       29    3                 IF WX=WXP+1 THEN CXP=CX;
     1898       30    3                 IF WX>=WILDSTR.L OR CX>=STRSIZ
     1899       31    4                   OR SUBSTR(WILDSTR.C,WX,1) ~= SUBSTR(STR,CX,1) THEN DO;
     1900       32    4                    IF WXP=WILDSTR.L OR CXP=STRSIZ THEN ALTRETURN;
     1901       33    4                    WX=WXP;
     1902       34    4                    CX=CXP;
     1903       35    4                    END;
     1904       36    3                 CX=CX+1;
     1905       37    3                 END;
PL6.E3A0      #008=DAA$WILDCOMP File=DAA$ANLZ.:E05TSI                            TUE 07/29/97 12:37 Page:395
     1906       38    2              IF WX<WILDSTR.L THEN WX=WX+1;
     1907       39    2              END;
     1908       40    1           RETURN;
     1909       41    1   END DAA$WILDCOMP;
     1910       42        %EOD;

PL6.E3A0      #008=DAA$WILDCOMP File=DAA$ANLZ.:E05TSI                            TUE 07/29/97 12:37 Page:396
--  Include file information  --

   B$JIT_C.:E05TOU  was found in the system file and is never referenced.
   CP_6_C.:E05TOU  was found in the system file and is never referenced.
      No diagnostics issued in procedure DAA$WILDCOMP.

   Procedure DAA$WILDCOMP requires 118 words for executable code.
   Procedure DAA$WILDCOMP requires 12 words of local(AUTO) storage.

PL6.E3A0      #008=DAA$WILDCOMP File=DAA$ANLZ.:E05TSI                            TUE 07/29/97 12:37 Page:397

 Object Unit name= DAA$WILDCOMP                               File name= DAA$ANLZ.:E05TOU
 UTS= JUL 29 '97 12:37:21.84 TUE                              Compiler= PL-6/E31         Sev=      00
 SharedLib= :SHARED_SYSTEM                                    Alt SharedLib=


    ****  Control sections  ****

 Sect   Type Bound  Init  Size OctSiz  Section name(segment info)
    0   Proc  even  none   118    166  DAA$WILDCOMP
    1  RoData even  none     1      1  DAA$WILDCOMP

    ****  Entry defs  ****

                              Check   Calling
                             calling  sequence
  Sect OctLoc Primary Altret sequence   type   Parms  Name
     0      0   yes    yes     yes      Std        3  DAA$WILDCOMP

  ****  Entry refs  ****

         Check        Calling
        calling       sequence
Altret sequence SRef   type   Args  Name
                       nStd      0 X66_AUTO_3
                       nStd      0 X66_AALT
                       Std       0 B_CONSPOOL_D
                       nStd      0 X66_ARET

  ****  Data refs  ****

  Flags:  r = read only, s = secondary
Flgs Name                             Flgs Name                             Flgs Name
     B_VECTNIL
PL6.E3A0      #008=DAA$WILDCOMP File=DAA$ANLZ.:E05TSI                            TUE 07/29/97 12:37 Page:398


     1869        1        /*T***********************************************************/
     1870        2        /*T*                                                         */
     1871        3        /*T* Copyright (c) Bull HN Information Systems Inc., 1997    */
     1872        4        /*T*                                                         */
     1873        5        /*T***********************************************************/
     1874        6        DAA$WILDCOMP: PROC(WILDSTR,STR,STRSIZ) ALTRET;

      6  0 000000   000000 700200 xent  DAA$WILDCOMP TSX0  ! X66_AUTO_3
         0 000001   000014 000003                    ZERO    12,3

     1875        7    1   DCL 1 WILDSTR,
     1876        8    1         2 L UBIN BYTE UNAL,
     1877        9    1         2 C CHAR(WILDSTR.L);
     1878       10    1   DCL STR CHAR(STRSIZ);
     1879       11    1   DCL STRSIZ UBIN;
     1880       12    1   DCL WX UBIN;
     1881       13    1   DCL WXP UBIN;
     1882       14    1   DCL CX UBIN;
     1883       15    1   DCL CXP UBIN;
     1884       16        /**/
     1885       17        /**/
     1886       18        /**/
     1887       19    1           WX=0;

     19  0 000002   200006 450100                    STZ     WX,,AUTO

     1888       20    1           WXP=WILDSTR.L;

     20  0 000003   200003 470500                    LDP0    @WILDSTR,,AUTO
         0 000004   000100 101500                    MRL     fill='000'O
         0 000005   000000 000001                    ADSC9   0,,PR0                   cn=0,n=1
         0 000006   200007 000004                    ADSC9   WXP,,AUTO                cn=0,n=4

     1889       21    1           CX=0;

     21  0 000007   200010 450100                    STZ     CX,,AUTO
PL6.E3A0      #008=DAA$WILDCOMP File=DAA$ANLZ.:E05TSI                            TUE 07/29/97 12:37 Page:399

     1890       22    1           CXP=0;

     22  0 000010   200011 450100                    STZ     CXP,,AUTO

     1891       23    2           DO WHILE(WX<WILDSTR.L AND SUBSTR(WILDSTR.C,WX)~=' '

     23  0 000011   000122 710000 0                  TRA     s:39

     1892       24    2             OR CX<STRSIZ AND SUBSTR(STR,CX)~=' ');
     1893       25    3              IF WX<WILDSTR.L AND SUBSTR(WILDSTR.C,WX,1)='?' THEN DO;

     25  0 000012   200003 470500                    LDP0    @WILDSTR,,AUTO
         0 000013   000100 101500                    MRL     fill='000'O
         0 000014   000000 000001                    ADSC9   0,,PR0                   cn=0,n=1
         0 000015   200012 000004                    ADSC9   CXP+1,,AUTO              cn=0,n=4
         0 000016   200012 236100                    LDQ     CXP+1,,AUTO
         0 000017   200006 116100                    CMPQ    WX,,AUTO
         0 000020   000035 602000 0                  TNC     s:29
         0 000021   000035 600000 0                  TZE     s:29
         0 000022   000100 101500                    MRL     fill='000'O
         0 000023   000000 000001                    ADSC9   0,,PR0                   cn=0,n=1
         0 000024   200013 000002                    ADSC9   CXP+2,,AUTO              cn=0,n=2
         0 000025   200013 220100                    LDX0    CXP+2,,AUTO
         0 000026   200006 235100                    LDA     WX,,AUTO
         0 000027   040000 106505                    CMPC    fill='040'O
         0 000030   000000 200001                    ADSC9   0,A,PR0                  cn=1,n=1
         0 000031   000000 000001 1                  ADSC9   0                        cn=0,n=1
         0 000032   000035 601000 0                  TNZ     s:29

     1894       26    3                 WXP=WX;

     26  0 000033   200007 755100                    STA     WXP,,AUTO

     1895       27    3                 END;

     27  0 000034   000111 710000 0                  TRA     s:38
PL6.E3A0      #008=DAA$WILDCOMP File=DAA$ANLZ.:E05TSI                            TUE 07/29/97 12:37 Page:400

     1896       28    3              ELSE DO;

     1897       29    3                 IF WX=WXP+1 THEN CXP=CX;

     29  0 000035   200007 236100                    LDQ     WXP,,AUTO
         0 000036   000001 036007                    ADLQ    1,DL
         0 000037   200006 116100                    CMPQ    WX,,AUTO
         0 000040   000043 601000 0                  TNZ     s:30

     29  0 000041   200010 235100                    LDA     CX,,AUTO
         0 000042   200011 755100                    STA     CXP,,AUTO

     1898       30    3                 IF WX>=WILDSTR.L OR CX>=STRSIZ

     30  0 000043   000100 101500                    MRL     fill='000'O
         0 000044   000000 000001                    ADSC9   0,,PR0                   cn=0,n=1
         0 000045   200012 000004                    ADSC9   CXP+1,,AUTO              cn=0,n=4
         0 000046   200012 236100                    LDQ     CXP+1,,AUTO
         0 000047   200006 116100                    CMPQ    WX,,AUTO
         0 000050   000071 602000 0                  TNC     s:32
         0 000051   000071 600000 0                  TZE     s:32
         0 000052   200005 471500                    LDP1    @STRSIZ,,AUTO
         0 000053   200010 236100                    LDQ     CX,,AUTO
         0 000054   100000 116100                    CMPQ    0,,PR1
         0 000055   000071 603000 0                  TRC     s:32
         0 000056   000100 101500                    MRL     fill='000'O
         0 000057   000000 000001                    ADSC9   0,,PR0                   cn=0,n=1
         0 000060   200013 000002                    ADSC9   CXP+2,,AUTO              cn=0,n=2
         0 000061   200013 220100                    LDX0    CXP+2,,AUTO
         0 000062   100000 721100                    LXL1    0,,PR1
         0 000063   200006 235100                    LDA     WX,,AUTO
         0 000064   200004 473500                    LDP3    @STR,,AUTO
         0 000065   040106 106505                    CMPC    fill='040'O
         0 000066   000000 200001                    ADSC9   0,A,PR0                  cn=1,n=1
         0 000067   300000 000001                    ADSC9   0,Q,PR3                  cn=0,n=1
         0 000070   000107 600000 0                  TZE     s:36
PL6.E3A0      #008=DAA$WILDCOMP File=DAA$ANLZ.:E05TSI                            TUE 07/29/97 12:37 Page:401

     1899       31    4                   OR SUBSTR(WILDSTR.C,WX,1) ~= SUBSTR(STR,CX,1) THEN DO;

     1900       32    4                    IF WXP=WILDSTR.L OR CXP=STRSIZ THEN ALTRETURN;

     32  0 000071   000100 101500                    MRL     fill='000'O
         0 000072   000000 000001                    ADSC9   0,,PR0                   cn=0,n=1
         0 000073   200012 000004                    ADSC9   CXP+1,,AUTO              cn=0,n=4
         0 000074   200012 236100                    LDQ     CXP+1,,AUTO
         0 000075   200007 116100                    CMPQ    WXP,,AUTO
         0 000076   000103 600000 0                  TZE     s:32+10
         0 000077   200005 471500                    LDP1    @STRSIZ,,AUTO
         0 000100   200011 236100                    LDQ     CXP,,AUTO
         0 000101   100000 116100                    CMPQ    0,,PR1
         0 000102   000104 601000 0                  TNZ     s:33

     32  0 000103   000000 702200 xent               TSX2  ! X66_AALT

     1901       33    4                    WX=WXP;

     33  0 000104   200007 235100                    LDA     WXP,,AUTO
         0 000105   200006 755100                    STA     WX,,AUTO

     1902       34    4                    CX=CXP;

     34  0 000106   200010 756100                    STQ     CX,,AUTO

     1903       35    4                    END;

     1904       36    3                 CX=CX+1;

     36  0 000107   000001 036007                    ADLQ    1,DL
         0 000110   200010 756100                    STQ     CX,,AUTO

     1905       37    3                 END;

     1906       38    2              IF WX<WILDSTR.L THEN WX=WX+1;
PL6.E3A0      #008=DAA$WILDCOMP File=DAA$ANLZ.:E05TSI                            TUE 07/29/97 12:37 Page:402

     38  0 000111   000100 101500                    MRL     fill='000'O
         0 000112   000000 000001                    ADSC9   0,,PR0                   cn=0,n=1
         0 000113   200012 000004                    ADSC9   CXP+1,,AUTO              cn=0,n=4
         0 000114   200012 236100                    LDQ     CXP+1,,AUTO
         0 000115   200006 116100                    CMPQ    WX,,AUTO
         0 000116   000122 602000 0                  TNC     s:39
         0 000117   000122 600000 0                  TZE     s:39

     38  0 000120   000001 035007                    ADLA    1,DL
         0 000121   200006 755100                    STA     WX,,AUTO

     1907       39    2              END;

     39  0 000122   000100 101500                    MRL     fill='000'O
         0 000123   000000 000001                    ADSC9   0,,PR0                   cn=0,n=1
         0 000124   200012 000004                    ADSC9   CXP+1,,AUTO              cn=0,n=4
         0 000125   200012 236100                    LDQ     CXP+1,,AUTO
         0 000126   200006 116100                    CMPQ    WX,,AUTO
         0 000127   000146 602000 0                  TNC     s:39+20
         0 000130   000146 600000 0                  TZE     s:39+20
         0 000131   000100 101500                    MRL     fill='000'O
         0 000132   000000 000001                    ADSC9   0,,PR0                   cn=0,n=1
         0 000133   200013 000002                    ADSC9   CXP+2,,AUTO              cn=0,n=2
         0 000134   200013 220100                    LDX0    CXP+2,,AUTO
         0 000135   000000 636010                    EAQ     0,X0
         0 000136   000022 772000                    QRL     18
         0 000137   200006 136100                    SBLQ    WX,,AUTO
         0 000140   000000 621006                    EAX1    0,QL
         0 000141   200006 235100                    LDA     WX,,AUTO
         0 000142   040000 106545                    CMPC    fill='040'O
         0 000143   000000 200011                    ADSC9   0,A,PR0                  cn=1,n=*X1
         0 000144   000035 000001 xsym               ADSC9   B_VECTNIL+29             cn=0,n=1
         0 000145   000012 601000 0                  TNZ     s:25
         0 000146   200005 471500                    LDP1    @STRSIZ,,AUTO
         0 000147   200010 236100                    LDQ     CX,,AUTO
         0 000150   100000 116100                    CMPQ    0,,PR1
PL6.E3A0      #008=DAA$WILDCOMP File=DAA$ANLZ.:E05TSI                            TUE 07/29/97 12:37 Page:403
         0 000151   000165 603000 0                  TRC     s:40
         0 000152   100000 720100                    LXL0    0,,PR1
         0 000153   000000 636010                    EAQ     0,X0
         0 000154   000022 772000                    QRL     18
         0 000155   200010 136100                    SBLQ    CX,,AUTO
         0 000156   200004 473500                    LDP3    @STR,,AUTO
         0 000157   000000 621006                    EAX1    0,QL
         0 000160   200010 235100                    LDA     CX,,AUTO
         0 000161   040000 106545                    CMPC    fill='040'O
         0 000162   300000 000011                    ADSC9   0,A,PR3                  cn=0,n=*X1
         0 000163   000035 000001 xsym               ADSC9   B_VECTNIL+29             cn=0,n=1
         0 000164   000012 601000 0                  TNZ     s:25

     1908       40    1           RETURN;

     40  0 000165   000000 702200 xent               TSX2  ! X66_ARET
     1909       41    1   END DAA$WILDCOMP;
     1910       42        %EOD;

PL6.E3A0      #008=DAA$WILDCOMP File=DAA$ANLZ.:E05TSI                            TUE 07/29/97 12:37 Page:404
--  Include file information  --

   B$JIT_C.:E05TOU  was found in the system file and is never referenced.
   CP_6_C.:E05TOU  was found in the system file and is never referenced.
      No diagnostics issued in procedure DAA$WILDCOMP.
PL6.E3A0      #008=DAA$WILDCOMP File=DAA$ANLZ.:E05TSI                            TUE 07/29/97 12:37 Page:405

 **** Variables and constants ****

  ****  Auto variables  ****

  ****  Scalars and arrays  ****
OctLoc.c.b A Datatyp(siz) R M Lvl/name                 OctLoc.c.b A Datatyp(siz) R M Lvl/name

     4-0-0/w PTR         r     1 @STR                       5-0-0/w PTR         r     1 @STRSIZ
     3-0-0/w PTR         r     1 @WILDSTR                  10-0-0/w UBIN        r     1 CX
    11-0-0/w UBIN        r     1 CXP                       *0-0-0/c ACHR        r     1 STR
    *0-0-0/w UBIN        r     1 STRSIZ                    *0-0-0/c ASTR(9)     r     1 WILDSTR
     6-0-0/w UBIN        r     1 WX                         7-0-0/w UBIN        r     1 WXP


   Procedure DAA$WILDCOMP requires 118 words for executable code.
   Procedure DAA$WILDCOMP requires 12 words of local(AUTO) storage.
PL6.E3A0      #008=DAA$WILDCOMP File=DAA$ANLZ.:E05TSI                            TUE 07/29/97 12:37 Page:406
          *** CROSS REFERENCE LISTING ***
**     DENOTES     IDENTIFIER DEFINITION
<<                 IDENTIFIER'S VALUE SET
>>                 IDENTIFIER'S VALUE USED
<>                 IDENTIFIER SET AND/OR USED
--                 IDENTIFIER REFERENCED
PL6.E3A0      #008=DAA$WILDCOMP File=DAA$ANLZ.:E05TSI                            TUE 07/29/97 12:37 Page:407
          MINI XREF LISTING

CX
        14**DCL        21<<ASSIGN     23>>DOWHILE    23>>DOWHILE    29>>ASSIGN     30>>IF         30>>IF
        34<<ASSIGN     36<<ASSIGN     36>>ASSIGN
CXP
        15**DCL        22<<ASSIGN     29<<ASSIGN     32>>IF         34>>ASSIGN
STR
        10**DCL         6--PROC       23>>DOWHILE    30>>IF
STRSIZ
        11**DCL         6--PROC       10--IMP-SIZ    23>>DOWHILE    23>>DOWHILE    30>>IF         30>>IF
        32>>IF
WILDSTR
         7**DCL         6--PROC
WILDSTR.C
         9**DCL        23>>DOWHILE    25>>IF         30>>IF
WILDSTR.L
         8**DCL         9--IMP-SIZ    20>>ASSIGN     23>>DOWHILE    23>>DOWHILE    25>>IF         25>>IF
        30>>IF         30>>IF         32>>IF         38>>IF
WX
        12**DCL        19<<ASSIGN     23>>DOWHILE    23>>DOWHILE    25>>IF         25>>IF         26>>ASSIGN
        29>>IF         30>>IF         30>>IF         33<<ASSIGN     38>>IF         38<<ASSIGN     38>>ASSIGN
WXP
        13**DCL        20<<ASSIGN     26<<ASSIGN     29>>IF         32>>IF         33>>ASSIGN

PL6.E3A0      #009=DAA$CUN File=DAA$ANLZ.:E05TSI                                 TUE 07/29/97 12:37 Page:408
     1911        1        /*T***********************************************************/
     1912        2        /*T*                                                         */
     1913        3        /*T* Copyright (c) Bull HN Information Systems Inc., 1997    */
     1914        4        /*T*                                                         */
     1915        5        /*T***********************************************************/
     1916        6        DAA$CUN: PROC(UNUM) ALTRET;
     1917        7    1   DCL UNUM SBIN;
     1918        8        /**/
     1919        9        %INCLUDE DA_MAP_R;
     1920       39        %INCLUDE IR_DATA_M;
     1921      203        %INCLUDE DA_TEXTC_C;
     1922      234        %INCLUDE DA_MONSYM_C;
     1923      285        %INCLUDE NI$TABLES;
     1924      501        /**/
     1925      502    1   DCL DAS$SDMONPTR ENTRY(2) ALTRET;
     1926      503    1   DCL DAM$MAP ENTRY(5) ALTRET;
     1927      504        /**/
     1928      505        %RV_BUFF (NAME=RVBUFF,STCLASS="BASED(DA_RVBUF$)");
     1929      541    1   DCL PCU$ PTR;
     1930      542    1   DCL PCU(0:7) SBIN BASED(PCU$);
     1931      543        %EJECT;
PL6.E3A0      #009=DAA$CUN File=DAA$ANLZ.:E05TSI                                 TUE 07/29/97 12:37 Page:409
     1932      544    1           IF DA_DUMPFILE THEN PCU$=ADDR(RVBUFF.S_CUN);
     1933      545    2           ELSE DO;
     1934      546    2              CALL DAS$SDMONPTR(%M#S_PCU,PCU$) ALTRET(ALT);
     1935      547    2              CALL DAM$MAP(PCU$,PCU$) ALTRET(ALT);
     1936      548    2              END;
     1937      549    1           UNUM=PCU(DA_CPU#);
     1938      550    1           IF UNUM>0 THEN RETURN;
     1939      551    1   ALT:    UNUM=DA_MUAIS+1;
     1940      552    1           ALTRETURN;
     1941      553    1   END DAA$CUN;
     1942      554
     1943      555        %EOD;

PL6.E3A0      #009=DAA$CUN File=DAA$ANLZ.:E05TSI                                 TUE 07/29/97 12:37 Page:410
--  Include file information  --

   NI$TABLES.:E05TOU  is referenced.
   DA_MONSYM_C.:E05TOU  is referenced.
   DA_TEXTC_C.:E05TOU  is referenced.
   IR_DATA_M.:E05TOU  is referenced.
   DA_MAP_R.:E05TOU  cannot be made into a system file and is referenced.
   B$JIT_C.:E05TOU  was found in the system file and is never referenced.
   CP_6_C.:E05TOU  was found in the system file and is never referenced.
      No diagnostics issued in procedure DAA$CUN.

   Procedure DAA$CUN requires 36 words for executable code.
   Procedure DAA$CUN requires 8 words of local(AUTO) storage.

PL6.E3A0      #009=DAA$CUN File=DAA$ANLZ.:E05TSI                                 TUE 07/29/97 12:37 Page:411

 Object Unit name= DAA$CUN                                    File name= DAA$ANLZ.:E05TOU
 UTS= JUL 29 '97 12:37:24.12 TUE                              Compiler= PL-6/E31         Sev=      00
 SharedLib= :SHARED_SYSTEM                                    Alt SharedLib=


    ****  Control sections  ****

 Sect   Type Bound  Init  Size OctSiz  Section name(segment info)
    0   Proc  even  none    36     44  DAA$CUN
    1  RoData even  none     2      2  DAA$CUN

    ****  Entry defs  ****

                              Check   Calling
                             calling  sequence
  Sect OctLoc Primary Altret sequence   type   Parms  Name
     0      0   yes    yes     yes      Std        1  DAA$CUN

  ****  Entry refs  ****

         Check        Calling
        calling       sequence
Altret sequence SRef   type   Args  Name
 yes     yes           Std       2 DAS$SDMONPTR
 yes     yes           Std       5 DAM$MAP
                       nStd      0 X66_AUTO_1
                       Std       0 B_CONSPOOL_D
                       nStd      0 X66_ARET
                       nStd      0 X66_AALT

  ****  Data refs  ****

  Flags:  r = read only, s = secondary
Flgs Name                             Flgs Name                             Flgs Name
     DA_MUAIS                              DA_DUMPFILE                           DA_CPU#
     DA_RVBUF$                             B_VECTNIL
PL6.E3A0      #009=DAA$CUN File=DAA$ANLZ.:E05TSI                                 TUE 07/29/97 12:37 Page:412

  ****  Segment refs  ****

  Flags:  r = read only, s = secondary
Flgs Name                             Flgs Name                             Flgs Name
     ISSID
PL6.E3A0      #009=DAA$CUN File=DAA$ANLZ.:E05TSI                                 TUE 07/29/97 12:37 Page:413


     1911        1        /*T***********************************************************/
     1912        2        /*T*                                                         */
     1913        3        /*T* Copyright (c) Bull HN Information Systems Inc., 1997    */
     1914        4        /*T*                                                         */
     1915        5        /*T***********************************************************/
     1916        6        DAA$CUN: PROC(UNUM) ALTRET;

      6  0 000000   000000 700200 xent  DAA$CUN      TSX0  ! X66_AUTO_1
         0 000001   000010 000001                    ZERO    8,1

     1917        7    1   DCL UNUM SBIN;
     1918        8        /**/
     1919        9        %INCLUDE DA_MAP_R;
     1920       39        %INCLUDE IR_DATA_M;
     1921      203        %INCLUDE DA_TEXTC_C;
     1922      234        %INCLUDE DA_MONSYM_C;
     1923      285        %INCLUDE NI$TABLES;
     1924      501        /**/
     1925      502    1   DCL DAS$SDMONPTR ENTRY(2) ALTRET;
     1926      503    1   DCL DAM$MAP ENTRY(5) ALTRET;
     1927      504        /**/
     1928      505        %RV_BUFF (NAME=RVBUFF,STCLASS="BASED(DA_RVBUF$)");
     1929      541    1   DCL PCU$ PTR;
     1930      542    1   DCL PCU(0:7) SBIN BASED(PCU$);
     1931      543        %EJECT;
PL6.E3A0      #009=DAA$CUN File=DAA$ANLZ.:E05TSI                                 TUE 07/29/97 12:37 Page:414
     1932      544    1           IF DA_DUMPFILE THEN PCU$=ADDR(RVBUFF.S_CUN);

    544  0 000002   000000 234000 xsym               SZN     DA_DUMPFILE
         0 000003   000010 605000 0                  TPL     s:546

    544  0 000004   000000 236000 xsym               LDQ     DA_RVBUF$
         0 000005   000144 036003                    ADLQ    100,DU
         0 000006   200004 756100                    STQ     PCU$,,AUTO
         0 000007   000030 710000 0                  TRA     s:549

     1933      545    2           ELSE DO;

     1934      546    2              CALL DAS$SDMONPTR(%M#S_PCU,PCU$) ALTRET(ALT);

    546  0 000010   200004 630500                    EPPR0   PCU$,,AUTO
         0 000011   200007 450500                    STP0    PCU$+3,,AUTO
         0 000012   000001 236000 1                  LDQ     1
         0 000013   200006 756100                    STQ     PCU$+2,,AUTO
         0 000014   200006 630500                    EPPR0   PCU$+2,,AUTO
         0 000015   000020 631400 xsym               EPPR1   B_VECTNIL+16
         0 000016   000000 701000 xent               TSX1    DAS$SDMONPTR
         0 000017   000037 702000 0                  TSX2    ALT

     1935      547    2              CALL DAM$MAP(PCU$,PCU$) ALTRET(ALT);

    547  0 000020   200004 630500                    EPPR0   PCU$,,AUTO
         0 000021   200007 450500                    STP0    PCU$+3,,AUTO
         0 000022   200004 631500                    EPPR1   PCU$,,AUTO
         0 000023   200006 451500                    STP1    PCU$+2,,AUTO
         0 000024   200006 630500                    EPPR0   PCU$+2,,AUTO
         0 000025   000020 631400 xsym               EPPR1   B_VECTNIL+16
         0 000026   000000 701000 xent               TSX1    DAM$MAP
         0 000027   000037 702000 0                  TSX2    ALT

     1936      548    2              END;

     1937      549    1           UNUM=PCU(DA_CPU#);
PL6.E3A0      #009=DAA$CUN File=DAA$ANLZ.:E05TSI                                 TUE 07/29/97 12:37 Page:415

    549  0 000030   200004 470500                    LDP0    PCU$,,AUTO
         0 000031   000000 720000 xsym               LXL0    DA_CPU#
         0 000032   200003 471500                    LDP1    @UNUM,,AUTO
         0 000033   000000 235110                    LDA     0,X0,PR0
         0 000034   100000 755100                    STA     0,,PR1

     1938      550    1           IF UNUM>0 THEN RETURN;

    550  0 000035   000037 604400 0                  TMOZ    ALT

    550  0 000036   000000 702200 xent               TSX2  ! X66_ARET

     1939      551    1   ALT:    UNUM=DA_MUAIS+1;

    551  0 000037   200003 470500       ALT          LDP0    @UNUM,,AUTO
         0 000040   000000 235000 xsym               LDA     DA_MUAIS
         0 000041   000001 035007                    ADLA    1,DL
         0 000042   000000 755100                    STA     0,,PR0

     1940      552    1           ALTRETURN;

    552  0 000043   000000 702200 xent               TSX2  ! X66_AALT
     1941      553    1   END DAA$CUN;
     1942      554
     1943      555        %EOD;

PL6.E3A0      #009=DAA$CUN File=DAA$ANLZ.:E05TSI                                 TUE 07/29/97 12:37 Page:416
--  Include file information  --

   NI$TABLES.:E05TOU  is referenced.
   DA_MONSYM_C.:E05TOU  is referenced.
   DA_TEXTC_C.:E05TOU  is referenced.
   IR_DATA_M.:E05TOU  is referenced.
   DA_MAP_R.:E05TOU  cannot be made into a system file and is referenced.
   B$JIT_C.:E05TOU  was found in the system file and is never referenced.
   CP_6_C.:E05TOU  was found in the system file and is never referenced.
      No diagnostics issued in procedure DAA$CUN.
PL6.E3A0      #009=DAA$CUN File=DAA$ANLZ.:E05TSI                                 TUE 07/29/97 12:37 Page:417

 **** Variables and constants ****

  ****  Auto variables  ****

  ****  Scalars and arrays  ****
OctLoc.c.b A Datatyp(siz) R M Lvl/name                 OctLoc.c.b A Datatyp(siz) R M Lvl/name

     3-0-0/w PTR         r     1 @UNUM                      4-0-0/w PTR         r     1 PCU$
    *0-0-0/w SBIN        r     1 UNUM

  ****  SYMREF variables  ****

  ****  Scalars and arrays  ****
OctLoc.c.b A Datatyp(siz) R M Lvl/name                 OctLoc.c.b A Datatyp(siz) R M Lvl/name

     0-0-0/w SBIN        r     1 DA_CPU#                    0-0-0/w BIT         r     1 DA_DUMPFILE
     0-0-0/w SBIN        r     1 DA_MUAIS                   0-0-0/w PTR         r     1 DA_RVBUF$

  ****  BASED and DCB variables  ****

  ****  Scalars and arrays  ****
OctLoc.c.b A Datatyp(siz) R M Lvl/name                 OctLoc.c.b A Datatyp(siz) R M Lvl/name

     0-0-0/w SBIN        r     1 PCU(0:7)                   0-0-0/d STRC(36864) r     1 RVBUFF


   Procedure DAA$CUN requires 36 words for executable code.
   Procedure DAA$CUN requires 8 words of local(AUTO) storage.
PL6.E3A0      #009=DAA$CUN File=DAA$ANLZ.:E05TSI                                 TUE 07/29/97 12:37 Page:418
          *** CROSS REFERENCE LISTING ***
**     DENOTES     IDENTIFIER DEFINITION
<<                 IDENTIFIER'S VALUE SET
>>                 IDENTIFIER'S VALUE USED
<>                 IDENTIFIER SET AND/OR USED
--                 IDENTIFIER REFERENCED
PL6.E3A0      #009=DAA$CUN File=DAA$ANLZ.:E05TSI                                 TUE 07/29/97 12:37 Page:419
          MINI XREF LISTING

ALT
       551**LABEL     546--CALLALT   547--CALLALT
DAM$MAP
       503**DCL-ENT   547--CALL
DAS$SDMONPTR
       502**DCL-ENT   546--CALL
DA_CPU#
        25**DCL       549>>ASSIGN
DA_DUMPFILE
        24**DCL       544>>IF
DA_MAPSEG.P
        34**DCL        35--REDEF
DA_MUAIS
        23**DCL       551>>ASSIGN
DA_RVBUF$
        26**DCL       506--IMP-PTR   544>>ASSIGN
DA_SDASN.DESC.TYPE0
        19**DCL        19--REDEF
DA_TIGRSEG.P
        35**DCL        36--REDEF
PCU
       542**DCL       549>>ASSIGN
PCU$
       541**DCL       542--IMP-PTR   544<<ASSIGN    546<>CALL      547<>CALL      547<>CALL      549>>ASSIGN
RVBUFF.S_CUN
       517**DCL       544--ASSIGN
UNUM
         7**DCL         6--PROC      549<<ASSIGN    550>>IF        551<<ASSIGN

PL6.E3A0      #010=DAA$PARSEU File=DAA$ANLZ.:E05TSI                              TUE 07/29/97 12:37 Page:420
     1944        1        /*T***********************************************************/
     1945        2        /*T*                                                         */
     1946        3        /*T* Copyright (c) Bull HN Information Systems Inc., 1997    */
     1947        4        /*T*                                                         */
     1948        5        /*T***********************************************************/
     1949        6
     1950        7        DAA$PARSEU: PROC(PARSE$PARAM);
     1951        8
     1952        9        %INCLUDE XU_MACRO_C;
     1953     3115        %INCLUDE DA_ANLZ_R;
     1954     3128        %PARSE$PARAM (NAME=PARSE$PARAM,STCLASS=PARAM);
     1955     3209
     1956     3210    2           IF DA_DFLT_RADIX=16 THEN DO;
     1957     3211    2              PARSE$PARAM.ACCEPT='1'B;
     1958     3212    2              END;
     1959     3213    2           ELSE DO;
     1960     3214    2              PARSE$PARAM.REJECT='1'B;
     1961     3215    2              END;
     1962     3216    1           RETURN;
     1963     3217
     1964     3218    1   END DAA$PARSEU;

PL6.E3A0      #010=DAA$PARSEU File=DAA$ANLZ.:E05TSI                              TUE 07/29/97 12:37 Page:421
--  Include file information  --

   DA_ANLZ_R.:E05TOU  cannot be made into a system file and is referenced.
   XU_MACRO_C.:E05TOU  is referenced.
   B$JIT_C.:E05TOU  was found in the system file and is never referenced.
   CP_6_C.:E05TOU  was found in the system file and is never referenced.
      No diagnostics issued in procedure DAA$PARSEU.

   Procedure DAA$PARSEU requires 13 words for executable code.
   Procedure DAA$PARSEU requires 4 words of local(AUTO) storage.

    No errors detected in file DAA$ANLZ.:E05TSI    .

PL6.E3A0      #010=DAA$PARSEU File=DAA$ANLZ.:E05TSI                              TUE 07/29/97 12:37 Page:422

 Object Unit name= DAA$PARSEU                                 File name= DAA$ANLZ.:E05TOU
 UTS= JUL 29 '97 12:37:27.28 TUE                              Compiler= PL-6/E31         Sev=      00
 SharedLib= :SHARED_SYSTEM                                    Alt SharedLib=


    ****  Control sections  ****

 Sect   Type Bound  Init  Size OctSiz  Section name(segment info)
    0   Proc  even  none    13     15  DAA$PARSEU

    ****  Entry defs  ****

                              Check   Calling
                             calling  sequence
  Sect OctLoc Primary Altret sequence   type   Parms  Name
     0      0   yes            yes      Std        1  DAA$PARSEU

  ****  Entry refs  ****

         Check        Calling
        calling       sequence
Altret sequence SRef   type   Args  Name
                       nStd      0 X66_AUTO_1
                       nStd      0 X66_ARET

  ****  Data refs  ****

  Flags:  r = read only, s = secondary
Flgs Name                             Flgs Name                             Flgs Name
     DA_DFLT_RADIX
PL6.E3A0      #010=DAA$PARSEU File=DAA$ANLZ.:E05TSI                              TUE 07/29/97 12:37 Page:423


     1944        1        /*T***********************************************************/
     1945        2        /*T*                                                         */
     1946        3        /*T* Copyright (c) Bull HN Information Systems Inc., 1997    */
     1947        4        /*T*                                                         */
     1948        5        /*T***********************************************************/
     1949        6
     1950        7        DAA$PARSEU: PROC(PARSE$PARAM);

      7  0 000000   000000 700200 xent  DAA$PARSEU   TSX0  ! X66_AUTO_1
         0 000001   000004 000001                    ZERO    4,1

     1951        8
     1952        9        %INCLUDE XU_MACRO_C;
     1953     3115        %INCLUDE DA_ANLZ_R;
     1954     3128        %PARSE$PARAM (NAME=PARSE$PARAM,STCLASS=PARAM);
     1955     3209
     1956     3210    2           IF DA_DFLT_RADIX=16 THEN DO;

   3210  0 000002   000000 235000 xsym               LDA     DA_DFLT_RADIX
         0 000003   000020 115007                    CMPA    16,DL
         0 000004   000011 601000 0                  TNZ     s:3214

     1957     3211    2              PARSE$PARAM.ACCEPT='1'B;

   3211  0 000005   200003 470500                    LDP0    @PARSE$PARAM,,AUTO
         0 000006   000400 236003                    LDQ     256,DU
         0 000007   000000 256100                    ORSQ    0,,PR0

     1958     3212    2              END;

   3212  0 000010   000014 710000 0                  TRA     s:3216

     1959     3213    2           ELSE DO;

     1960     3214    2              PARSE$PARAM.REJECT='1'B;

PL6.E3A0      #010=DAA$PARSEU File=DAA$ANLZ.:E05TSI                              TUE 07/29/97 12:37 Page:424
   3214  0 000011   200003 470500                    LDP0    @PARSE$PARAM,,AUTO
         0 000012   000200 236003                    LDQ     128,DU
         0 000013   000000 256100                    ORSQ    0,,PR0

     1961     3215    2              END;

     1962     3216    1           RETURN;

   3216  0 000014   000000 702200 xent               TSX2  ! X66_ARET
     1963     3217
     1964     3218    1   END DAA$PARSEU;

PL6.E3A0      #010=DAA$PARSEU File=DAA$ANLZ.:E05TSI                              TUE 07/29/97 12:37 Page:425
--  Include file information  --

   DA_ANLZ_R.:E05TOU  cannot be made into a system file and is referenced.
   XU_MACRO_C.:E05TOU  is referenced.
   B$JIT_C.:E05TOU  was found in the system file and is never referenced.
   CP_6_C.:E05TOU  was found in the system file and is never referenced.
      No diagnostics issued in procedure DAA$PARSEU.
PL6.E3A0      #010=DAA$PARSEU File=DAA$ANLZ.:E05TSI                              TUE 07/29/97 12:37 Page:426

 **** Variables and constants ****

  ****  Auto variables  ****

  ****  Scalars and arrays  ****
OctLoc.c.b A Datatyp(siz) R M Lvl/name                 OctLoc.c.b A Datatyp(siz) R M Lvl/name

     3-0-0/w PTR         r     1 @PARSE$PARAM              *0-0-0/w STRC(270)   r     1 PARSE$PARAM

  ****  SYMREF variables  ****

  ****  Scalars and arrays  ****
OctLoc.c.b A Datatyp(siz) R M Lvl/name                 OctLoc.c.b A Datatyp(siz) R M Lvl/name

     0-0-0/w UBIN        r     1 DA_DFLT_RADIX


   Procedure DAA$PARSEU requires 13 words for executable code.
   Procedure DAA$PARSEU requires 4 words of local(AUTO) storage.

    No errors detected in file DAA$ANLZ.:E05TSI    .
PL6.E3A0      #010=DAA$PARSEU File=DAA$ANLZ.:E05TSI                              TUE 07/29/97 12:37 Page:427
          *** CROSS REFERENCE LISTING ***
**     DENOTES     IDENTIFIER DEFINITION
<<                 IDENTIFIER'S VALUE SET
>>                 IDENTIFIER'S VALUE USED
<>                 IDENTIFIER SET AND/OR USED
--                 IDENTIFIER REFERENCED
PL6.E3A0      #010=DAA$PARSEU File=DAA$ANLZ.:E05TSI                              TUE 07/29/97 12:37 Page:428
          MINI XREF LISTING

DA_DFLT_RADIX
      3126**DCL      3210>>IF
PARSE$PARAM
      3147**DCL         7--PROC
PARSE$PARAM.ACCEPT
      3154**DCL      3211<<ASSIGN
PARSE$PARAM.REJECT
      3159**DCL      3214<<ASSIGN
