VERSION E05

PL6.E3A0      #001=DAB$BANNER File=DAB$BANNER.:E05TSI                            TUE 07/29/97 12:34 Page:1
        1        1        /*M* DAB$BANNER - PRODUCE CRASH DUMP BANNER */
        2        2        /*T***********************************************************/
        3        3        /*T*                                                         */
        4        4        /*T* Copyright (c) Bull HN Information Systems Inc., 1997    */
        5        5        /*T*                                                         */
        6        6        /*T***********************************************************/
        7        7        DAB$BANNER: PROC;
        8        8        /**/
        9        9    1   DCL DAB$BLKPRT ENTRY(5) ALTRET;
       10       10    1   DCL DAF$WRITE EPTR SYMREF;
       11       11    1   DCL DAF$INIT ENTRY(1) ALTRET;
       12       12        /**/
       13       13        %INCLUDE F$DCB;
       14       62        %INCLUDE DA_FORMAT_C;
       15      304        %INCLUDE DA_MAP_R;
       16      334        /**/
       17      335    1   DCL M$DUMPFILE DCB;
       18      336        %DA_HDR (NAME=DA_HDR,STCLASS=SYMREF);
       19      367    1   DCL DFNAME CHAR(10);
       20      368    1   DCL SCODE CHAR(13);
       21      369    1   DCL DATE CHAR(10);
       22      370        /**/
       23      371    1   DCL 1 TTL STATIC,
       24      372    1         2 L UBIN BYTE UNAL INIT(SIZEC(TTL.T)),
       25      373    1         2 T,
       26      374    1           3 * CHAR(0) INIT('DUMPFILE '),
       27      375    1           3 DFNAME CHAR(9);
       28      376        %REPORT (NAME=BANRPT,CONTENTS=NO,TRUNC=YES,TITLEADR=TTL);
       29      442        %EJECT;
PL6.E3A0      #001=DAB$BANNER File=DAB$BANNER.:E05TSI                            TUE 07/29/97 12:34 Page:2
       30      443    2           IF DA_DUMPFILE THEN DO;
       31      444    2              DFNAME=DCBADDR(DCBNUM(M$DUMPFILE))->F$DCB.NAME.C;
       32      445    2              TTL.T.DFNAME=DFNAME;
       33      446    2              END;
       34      447    2           ELSE DO;
       35      448    2              DFNAME='RUNNING';
       36      449    2              TTL.T.DFNAME='HUH?';
       37      450    2              END;
       38      451    1           CALL DAF$INIT(BANRPT);
       39      452    1           CALL BLKPRT(DFNAME,SIZEC(DFNAME));
       40      453    1           SCODE=DA_HDR.TITLE.SCODEA;
       41      454    1           CALL BLKPRT(SCODE,SIZEC(SCODE));
       42      455    1           DATE=DA_HDR.TITLE.DT;
       43      456    1           CALL BLKPRT(DATE,SIZEC(DATE));
       44      457    1           RETURN;
       45      458        %EJECT;
PL6.E3A0      #001=DAB$BANNER File=DAB$BANNER.:E05TSI                            TUE 07/29/97 12:34 Page:3
       46      459    1   BLKPRT: PROC(TXT,SIZE);
       47      460    2   DCL TXT CHAR(SIZE);
       48      461    2   DCL SIZE SBIN;
       49      462        /**/
       50      463    2   DCL I SBIN;
       51      464    2   DCL B CHAR(132);
       52      465    2   DCL BS SBIN;
       53      466    2   DCL B$ PTR;
       54      467    2   DCL BUF CHAR(BS) BASED(B$);
       55      468        /**/
       56      469    2           B$=ADDR(B);
       57      470    3           DO I=0 TO 9;
       58      471    3              CALL DAB$BLKPRT(I,TXT,SIZE,B,BS) ALTRET(DO_BLANKS);
       59      472    3              CALL DAF$WRITE(VECTOR(BUF));
       60      473    3              END;
       61      474    2   DO_BLANKS:
       62      475    3           DO I=0 TO 2;
       63      476    3              CALL DAF$WRITE(VECTOR(BUF));
       64      477    3              END;
       65      478    2           RETURN;
       66      479    2   END BLKPRT;
       67      480    1   END DAB$BANNER;
       68      481        %EOD;

PL6.E3A0      #001=DAB$BANNER File=DAB$BANNER.:E05TSI                            TUE 07/29/97 12:34 Page:4
--  Include file information  --

   DA_MAP_R.:E05TOU  cannot be made into a system file and is referenced.
   DA_FORMAT_C.:E05TOU  is referenced.
   F$DCB.:E05TOU  cannot be made into a system file and is referenced.
      No diagnostics issued in procedure DAB$BANNER.

   Procedure DAB$BANNER requires 103 words for executable code.
   Procedure DAB$BANNER requires 60 words of local(AUTO) storage.

PL6.E3A0      #001=DAB$BANNER File=DAB$BANNER.:E05TSI                            TUE 07/29/97 12:34 Page:5

 Object Unit name= DAB$BANNER                                 File name= DAB$BANNER.:E05TOU
 UTS= JUL 29 '97 12:34:36.36 TUE                              Compiler= PL-6/E31         Sev=      00
 SharedLib= :SHARED_SYSTEM                                    Alt SharedLib=


    ****  Control sections  ****

 Sect   Type Bound  Init  Size OctSiz  Section name(segment info)
    0   DCB   even  none     0      0  M$DUMPFILE
    1   Data  even  none    13     15  DAB$BANNER
    2  RoData even  UTS      3      3  DAB$BANNER
    3   Proc  even  none   103    147  DAB$BANNER
    4  RoData even  none     5      5  DAB$BANNER

    ****  Entry defs  ****

                              Check   Calling
                             calling  sequence
  Sect OctLoc Primary Altret sequence   type   Parms  Name
     3      0   yes            yes      Std        0  DAB$BANNER

  ****  Entry refs  ****

         Check        Calling
        calling       sequence
Altret sequence SRef   type   Args  Name
 yes     yes           Std       1 DAF$INIT
 yes     yes           Std       5 DAB$BLKPRT
                       nStd      0 X66_AUTO_0
                       Std       0 B_CONSPOOL_D
                       nStd      0 X66_ARET
PL6.E3A0      #001=DAB$BANNER File=DAB$BANNER.:E05TSI                            TUE 07/29/97 12:34 Page:6

  ****  Data refs  ****

  Flags:  r = read only, s = secondary
Flgs Name                             Flgs Name                             Flgs Name
     DAF$WRITE                             DA_DUMPFILE                           M$DUMPFILE
     DA_HDR                                B_VECTNIL

  ****  Segment refs  ****

  Flags:  r = read only, s = secondary
Flgs Name                             Flgs Name                             Flgs Name
     ISSID                                 NULLSID                               ROSID
PL6.E3A0      #001=DAB$BANNER File=DAB$BANNER.:E05TSI                            TUE 07/29/97 12:34 Page:7


        1        1        /*M* DAB$BANNER - PRODUCE CRASH DUMP BANNER */
        2        2        /*T***********************************************************/
        3        3        /*T*                                                         */
        4        4        /*T* Copyright (c) Bull HN Information Systems Inc., 1997    */
        5        5        /*T*                                                         */
        6        6        /*T***********************************************************/
        7        7        DAB$BANNER: PROC;

      7  3 000000   000000 700200 xent  DAB$BANNER   TSX0  ! X66_AUTO_0
         3 000001   000074 000000                    ZERO    60,0

        8        8        /**/
        9        9    1   DCL DAB$BLKPRT ENTRY(5) ALTRET;
       10       10    1   DCL DAF$WRITE EPTR SYMREF;
       11       11    1   DCL DAF$INIT ENTRY(1) ALTRET;
       12       12        /**/
       13       13        %INCLUDE F$DCB;
       14       62        %INCLUDE DA_FORMAT_C;
       15      304        %INCLUDE DA_MAP_R;
       16      334        /**/
       17      335    1   DCL M$DUMPFILE DCB;
       18      336        %DA_HDR (NAME=DA_HDR,STCLASS=SYMREF);
       19      367    1   DCL DFNAME CHAR(10);
       20      368    1   DCL SCODE CHAR(13);
       21      369    1   DCL DATE CHAR(10);
       22      370        /**/
       23      371    1   DCL 1 TTL STATIC,
       24      372    1         2 L UBIN BYTE UNAL INIT(SIZEC(TTL.T)),
       25      373    1         2 T,
       26      374    1           3 * CHAR(0) INIT('DUMPFILE '),
       27      375    1           3 DFNAME CHAR(9);
       28      376        %REPORT (NAME=BANRPT,CONTENTS=NO,TRUNC=YES,TITLEADR=TTL);
       29      442        %EJECT;
PL6.E3A0      #001=DAB$BANNER File=DAB$BANNER.:E05TSI                            TUE 07/29/97 12:34 Page:8
       30      443    2           IF DA_DUMPFILE THEN DO;

    443  3 000002   000000 234000 xsym               SZN     DA_DUMPFILE
         3 000003   000017 605000 3                  TPL     s:448

       31      444    2              DFNAME=DCBADDR(DCBNUM(M$DUMPFILE))->F$DCB.NAME.C;

    444  3 000004   000000 236007 xsym               LDQ     M$DUMPFILE,DL
         3 000005   000000 470400 4                  LDP0    0
         3 000006   000000 471500                    LDP1    0,,PR0
         3 000007   100000 473506                    LDP3    0,QL,PR1
         3 000010   040100 100500                    MLR     fill='040'O
         3 000011   300010 200012                    ADSC9   8,,PR3                   cn=1,n=10
         3 000012   200003 000012                    ADSC9   DFNAME,,AUTO             cn=0,n=10

       32      445    2              TTL.T.DFNAME=DFNAME;

    445  3 000013   040000 100500                    MLR     fill='040'O
         3 000014   200003 000011                    ADSC9   DFNAME,,AUTO             cn=0,n=9
         3 000015   000002 400011 1                  ADSC9   TTL+2                    cn=2,n=9

       33      446    2              END;

    446  3 000016   000025 710000 3                  TRA     s:451

       34      447    2           ELSE DO;

       35      448    2              DFNAME='RUNNING';

    448  3 000017   040100 100400                    MLR     fill='040'O
         3 000020   000000 000007 2                  ADSC9   0                        cn=0,n=7
         3 000021   200003 000012                    ADSC9   DFNAME,,AUTO             cn=0,n=10

       36      449    2              TTL.T.DFNAME='HUH?';

    449  3 000022   040000 100400                    MLR     fill='040'O
         3 000023   000002 000004 2                  ADSC9   2                        cn=0,n=4
PL6.E3A0      #001=DAB$BANNER File=DAB$BANNER.:E05TSI                            TUE 07/29/97 12:34 Page:9
         3 000024   000002 400011 1                  ADSC9   TTL+2                    cn=2,n=9

       37      450    2              END;

       38      451    1           CALL DAF$INIT(BANRPT);

    451  3 000025   000001 630400 4                  EPPR0   1
         3 000026   000017 631400 xsym               EPPR1   B_VECTNIL+15
         3 000027   000000 701000 xent               TSX1    DAF$INIT
         3 000030   000000 011000                    NOP     0

       39      452    1           CALL BLKPRT(DFNAME,SIZEC(DFNAME));

    452  3 000031   000002 236000 4                  LDQ     2
         3 000032   200020 756100                    STQ     @TXT+1,,AUTO
         3 000033   200003 630500                    EPPR0   DFNAME,,AUTO
         3 000034   200017 450500                    STP0    DATE+5,,AUTO
         3 000035   000062 701000 3                  TSX1    BLKPRT
         3 000036   000000 011000                    NOP     0

       40      453    1           SCODE=DA_HDR.TITLE.SCODEA;

    453  3 000037   040100 100400                    MLR     fill='040'O
         3 000040   000006 200014 xsym               ADSC9   DA_HDR+6                 cn=1,n=12
         3 000041   200006 000015                    ADSC9   SCODE,,AUTO              cn=0,n=13

       41      454    1           CALL BLKPRT(SCODE,SIZEC(SCODE));

    454  3 000042   000004 236000 4                  LDQ     4
         3 000043   200020 756100                    STQ     @TXT+1,,AUTO
         3 000044   200006 630500                    EPPR0   SCODE,,AUTO
         3 000045   200017 450500                    STP0    DATE+5,,AUTO
         3 000046   000062 701000 3                  TSX1    BLKPRT
         3 000047   000000 011000                    NOP     0

       42      455    1           DATE=DA_HDR.TITLE.DT;

PL6.E3A0      #001=DAB$BANNER File=DAB$BANNER.:E05TSI                            TUE 07/29/97 12:34 Page:10
    455  3 000050   040100 100400                    MLR     fill='040'O
         3 000051   000027 600012 xsym               ADSC9   DA_HDR+23                cn=3,n=10
         3 000052   200012 000012                    ADSC9   DATE,,AUTO               cn=0,n=10

       43      456    1           CALL BLKPRT(DATE,SIZEC(DATE));

    456  3 000053   000002 236000 4                  LDQ     2
         3 000054   200020 756100                    STQ     @TXT+1,,AUTO
         3 000055   200012 630500                    EPPR0   DATE,,AUTO
         3 000056   200017 450500                    STP0    DATE+5,,AUTO
         3 000057   000062 701000 3                  TSX1    BLKPRT
         3 000060   000000 011000                    NOP     0

       44      457    1           RETURN;

    457  3 000061   000000 702200 xent               TSX2  ! X66_ARET

       45      458        %EJECT;
PL6.E3A0      #001=DAB$BANNER File=DAB$BANNER.:E05TSI                            TUE 07/29/97 12:34 Page:11
       46      459    1   BLKPRT: PROC(TXT,SIZE);

    459  3 000062   200016 741300       BLKPRT       STX1  ! DATE+4,,AUTO

       47      460    2   DCL TXT CHAR(SIZE);
       48      461    2   DCL SIZE SBIN;
       49      462        /**/
       50      463    2   DCL I SBIN;
       51      464    2   DCL B CHAR(132);
       52      465    2   DCL BS SBIN;
       53      466    2   DCL B$ PTR;
       54      467    2   DCL BUF CHAR(BS) BASED(B$);
       55      468        /**/
       56      469    2           B$=ADDR(B);

    469  3 000063   200022 630500                    EPPR0   B,,AUTO
         3 000064   200064 450500                    STP0    B$,,AUTO

       57      470    3           DO I=0 TO 9;

    470  3 000065   200021 450100                    STZ     I,,AUTO

       58      471    3              CALL DAB$BLKPRT(I,TXT,SIZE,B,BS) ALTRET(DO_BLANKS);

    471  3 000066   200063 630500                    EPPR0   BS,,AUTO
         3 000067   200072 450500                    STP0    B$+6,,AUTO
         3 000070   200022 631500                    EPPR1   B,,AUTO
         3 000071   200071 451500                    STP1    B$+5,,AUTO
         3 000072   200020 236100                    LDQ     @SIZE,,AUTO
         3 000073   200070 756100                    STQ     B$+4,,AUTO
         3 000074   200017 236100                    LDQ     @TXT,,AUTO
         3 000075   200067 756100                    STQ     B$+3,,AUTO
         3 000076   200021 633500                    EPPR3   I,,AUTO
         3 000077   200066 453500                    STP3    B$+2,,AUTO
         3 000100   200066 630500                    EPPR0   B$+2,,AUTO
         3 000101   000023 631400 xsym               EPPR1   B_VECTNIL+19
         3 000102   000000 701000 xent               TSX1    DAB$BLKPRT
PL6.E3A0      #001=DAB$BANNER File=DAB$BANNER.:E05TSI                            TUE 07/29/97 12:34 Page:12
         3 000103   000124 702000 3                  TSX2    DO_BLANKS

       59      472    3              CALL DAF$WRITE(VECTOR(BUF));

    472  3 000104   200063 235100                    LDA     BS,,AUTO
         3 000105   000020 735000                    ALS     16
         3 000106   000140 135007                    SBLA    96,DL
         3 000107   200064 236100                    LDQ     B$,,AUTO
         3 000110   200066 757100                    STAQ    B$+2,,AUTO
         3 000111   200066 630500                    EPPR0   B$+2,,AUTO
         3 000112   200070 450500                    STP0    B$+4,,AUTO
         3 000113   200070 630500                    EPPR0   B$+4,,AUTO
         3 000114   000000 220000 xsym               LDX0    DAF$WRITE
         3 000115   000017 631400 xsym               EPPR1   B_VECTNIL+15
         3 000116   000000 701010                    TSX1    0,X0
         3 000117   000000 011000                    NOP     0

       60      473    3              END;

    473  3 000120   200021 054100                    AOS     I,,AUTO
         3 000121   200021 235100                    LDA     I,,AUTO
         3 000122   000011 115007                    CMPA    9,DL
         3 000123   000066 604400 3                  TMOZ    s:471

       61      474    2   DO_BLANKS:
       62      475    3           DO I=0 TO 2;

    475  3 000124   200021 450100       DO_BLANKS    STZ     I,,AUTO

       63      476    3              CALL DAF$WRITE(VECTOR(BUF));

    476  3 000125   200063 235100                    LDA     BS,,AUTO
         3 000126   000020 735000                    ALS     16
         3 000127   000140 135007                    SBLA    96,DL
         3 000130   200064 236100                    LDQ     B$,,AUTO
         3 000131   200066 757100                    STAQ    B$+2,,AUTO
         3 000132   200066 630500                    EPPR0   B$+2,,AUTO
PL6.E3A0      #001=DAB$BANNER File=DAB$BANNER.:E05TSI                            TUE 07/29/97 12:34 Page:13
         3 000133   200070 450500                    STP0    B$+4,,AUTO
         3 000134   200070 630500                    EPPR0   B$+4,,AUTO
         3 000135   000000 220000 xsym               LDX0    DAF$WRITE
         3 000136   000017 631400 xsym               EPPR1   B_VECTNIL+15
         3 000137   000000 701010                    TSX1    0,X0
         3 000140   000000 011000                    NOP     0

       64      477    3              END;

    477  3 000141   200021 054100                    AOS     I,,AUTO
         3 000142   200021 235100                    LDA     I,,AUTO
         3 000143   000002 115007                    CMPA    2,DL
         3 000144   000125 604400 3                  TMOZ    s:476

       65      478    2           RETURN;

    478  3 000145   200016 221300                    LDX1  ! DATE+4,,AUTO
         3 000146   000001 702211                    TSX2  ! 1,X1
       66      479    2   END BLKPRT;
       67      480    1   END DAB$BANNER;
       68      481        %EOD;

PL6.E3A0      #001=DAB$BANNER File=DAB$BANNER.:E05TSI                            TUE 07/29/97 12:34 Page:14
--  Include file information  --

   DA_MAP_R.:E05TOU  cannot be made into a system file and is referenced.
   DA_FORMAT_C.:E05TOU  is referenced.
   F$DCB.:E05TOU  cannot be made into a system file and is referenced.
      No diagnostics issued in procedure DAB$BANNER.
PL6.E3A0      #001=DAB$BANNER File=DAB$BANNER.:E05TSI                            TUE 07/29/97 12:34 Page:15

 **** Variables and constants ****

  ****  Section 001  Data  DAB$BANNER

  ****  Scalars and arrays  ****
OctLoc.c.b A Datatyp(siz) R M Lvl/name                 OctLoc.c.b A Datatyp(siz) R M Lvl/name

     5-0-0/w STRC(288)   r     1 BANRPT                     0-0-0/c STRC(171)   r     1 TTL

  ****  Auto variables  ****

  ****  Scalars and arrays  ****
OctLoc.c.b A Datatyp(siz) R M Lvl/name                 OctLoc.c.b A Datatyp(siz) R M Lvl/name

    20-0-0/w PTR         r     1 @SIZE                     17-0-0/w PTR         r     1 @TXT
    22-0-0/c CHAR(132)   r     1 B                         64-0-0/w PTR         r     1 B$
    63-0-0/w SBIN        r     1 BS                        12-0-0/c CHAR(10)    r     1 DATE
     3-0-0/c CHAR(10)    r     1 DFNAME                    21-0-0/w SBIN        r     1 I
     6-0-0/c CHAR(13)    r     1 SCODE                     *0-0-0/w SBIN        r     1 SIZE
    *0-0-0/c ACHR        r     1 TXT

  ****  SYMREF variables  ****

  ****  Scalars and arrays  ****
OctLoc.c.b A Datatyp(siz) R M Lvl/name                 OctLoc.c.b A Datatyp(siz) R M Lvl/name

     0-0-0/w EPTR        r     1 DAF$WRITE                  0-0-0/w BIT         r     1 DA_DUMPFILE
     0-0-0/w STRC(1125)  r     1 DA_HDR

  ****  BASED and DCB variables  ****

  ****  Scalars and arrays  ****
OctLoc.c.b A Datatyp(siz) R M Lvl/name                 OctLoc.c.b A Datatyp(siz) R M Lvl/name

     0-0-0/c ACHR        r     1 BUF                        0-0-0/d ASTR(3528)  r     1 F$DCB
     0-0-0N  NULL        r     1 M$DUMPFILE

PL6.E3A0      #001=DAB$BANNER File=DAB$BANNER.:E05TSI                            TUE 07/29/97 12:34 Page:16

   Procedure DAB$BANNER requires 103 words for executable code.
   Procedure DAB$BANNER requires 60 words of local(AUTO) storage.
PL6.E3A0      #001=DAB$BANNER File=DAB$BANNER.:E05TSI                            TUE 07/29/97 12:34 Page:17
          *** CROSS REFERENCE LISTING ***
**     DENOTES     IDENTIFIER DEFINITION
<<                 IDENTIFIER'S VALUE SET
>>                 IDENTIFIER'S VALUE USED
<>                 IDENTIFIER SET AND/OR USED
--                 IDENTIFIER REFERENCED
PL6.E3A0      #001=DAB$BANNER File=DAB$BANNER.:E05TSI                            TUE 07/29/97 12:34 Page:18
          MINI XREF LISTING

B IN PROCEDURE BLKPRT
       464**DCL       469--ASSIGN    471<>CALL
B$ IN PROCEDURE BLKPRT
       466**DCL       467--IMP-PTR   469<<ASSIGN    472>>CALL      476>>CALL
BANRPT
       393**DCL       451<>CALL
BLKPRT
       459**PROC      452--CALL      454--CALL      456--CALL
BS IN PROCEDURE BLKPRT
       465**DCL       467--IMP-SIZ   471<>CALL      472>>CALL      476>>CALL
BUF IN PROCEDURE BLKPRT
       467**DCL       472--CALL      476--CALL
DAB$BLKPRT
         9**DCL-ENT   471--CALL
DAF$INIT
        11**DCL-ENT   451--CALL
DAF$WRITE
        10**DCL       472>>CALL      476>>CALL
DATE
       369**DCL       455<<ASSIGN    456<>CALL      456--CALL
DA_DUMPFILE
       319**DCL       443>>IF
DA_HDR.TITLE
       339**DCL       365--REDEF
DA_HDR.TITLE.DT
       360**DCL       455>>ASSIGN
DA_HDR.TITLE.SCODE
       345**DCL       352--REDEF
DA_HDR.TITLE.SCODEA
       352**DCL       453>>ASSIGN
DA_MAPSEG.P
       329**DCL       330--REDEF
PL6.E3A0      #001=DAB$BANNER File=DAB$BANNER.:E05TSI                            TUE 07/29/97 12:34 Page:19
DA_SDASN.DESC.TYPE0
       314**DCL       314--REDEF
DA_TIGRSEG.P
       330**DCL       331--REDEF
DFNAME
       367**DCL       444<<ASSIGN    445>>ASSIGN    448<<ASSIGN    452<>CALL      452--CALL
DO_BLANKS IN PROCEDURE BLKPRT
       475**LABEL     471--CALLALT
F$DCB.ACTPOS
        39**DCL        39--REDEF
F$DCB.ARS
        14**DCL        14--REDEF
F$DCB.ATTR
        32**DCL        33--REDEF
F$DCB.BORROW
        47**DCL        47--REDEF      47--REDEF      47--REDEF
F$DCB.DCBNAME.L
        61**DCL        61--IMP-SIZ
F$DCB.EOMCHAR
        18**DCL        18--REDEF
F$DCB.FLDID
        42**DCL        42--REDEF
F$DCB.FORM$
        36**DCL        36--REDEF
F$DCB.FSECT
        52**DCL        52--REDEF
F$DCB.FSN
        29**DCL        29--REDEF      29--REDEF      30--REDEF
F$DCB.HEADER$
        35**DCL        35--REDEF
F$DCB.IXTNSIZE
        33**DCL        33--REDEF
F$DCB.LASTSTA$
        23**DCL        23--REDEF
F$DCB.LVL
        48**DCL        48--REDEF
PL6.E3A0      #001=DAB$BANNER File=DAB$BANNER.:E05TSI                            TUE 07/29/97 12:34 Page:20
F$DCB.NAME.C
        23**DCL        23--REDEF     444>>ASSIGN
F$DCB.NOEOF
        44**DCL        44--REDEF
F$DCB.NRECS
        34**DCL        34--REDEF
F$DCB.NRECX
        53**DCL        53--REDEF
F$DCB.OHDR
        45**DCL        45--REDEF
F$DCB.ORG
        28**DCL        28--REDEF
F$DCB.PRECNO
        51**DCL        51--REDEF
F$DCB.RCSZ
        56**DCL        56--REDEF
F$DCB.RES
        24**DCL        24--REDEF
F$DCB.SETX
        36**DCL        36--REDEF
F$DCB.TAB$
        35**DCL        36--REDEF
F$DCB.TDA
        50**DCL        50--REDEF
F$DCB.WSN
        25**DCL        25--REDEF
I IN PROCEDURE BLKPRT
       463**DCL       470<<DOINDEX   471<>CALL      475<<DOINDEX
M$DUMPFILE
       335**DCL       444--ASSIGN
SCODE
       368**DCL       453<<ASSIGN    454<>CALL      454--CALL
SIZE IN PROCEDURE BLKPRT
       461**DCL       459--PROC      460--IMP-SIZ   471>>CALL      471<>CALL
TTL
       371**DCL       421--DCLINIT
PL6.E3A0      #001=DAB$BANNER File=DAB$BANNER.:E05TSI                            TUE 07/29/97 12:34 Page:21
TTL.T
       373**DCL       372--DCLINIT
TTL.T.DFNAME
       375**DCL       445<<ASSIGN    449<<ASSIGN
TXT IN PROCEDURE BLKPRT
       460**DCL       459--PROC      471<>CALL

PL6.E3A0      #002=DAB$BLKPRT File=DAB$BANNER.:E05TSI                            TUE 07/29/97 12:34 Page:22
       69        1        /*T***********************************************************/
       70        2        /*T*                                                         */
       71        3        /*T* Copyright (c) Bull HN Information Systems Inc., 1997    */
       72        4        /*T*                                                         */
       73        5        /*T***********************************************************/
       74        6        DAB$BLKPRT: PROC(NUM,SRC,SLEN,DST,DLEN) ALTRET;
       75        7        /*
       76        8            DAB$BLKPRT builds 9-character block letters from a user CALL,
       77        9            one line at a time.  The user specifies the source string
       78       10            of ASCII characters and a destination area.  One blank is
       79       11            placed between each expanded letter, making the letters 10
       80       12            spaces wide.  The arguments are:
       81       13
       82       14            NUM - Is the line number to build, range 0-8; UBIN WORD.
       83       15            SRC - Is the source string, a CHAR element.
       84       16            SLEN - Is the length of SRC in 9-bit characters, UBIN WORD.
       85       17            DST - Is the destination string, a CHAR element.
       86       18            DLEN - Is the returned length of DST, UBIN WORD.
       87       19
       88       20            The user calls DAB$BLKPRT 9 times, once per line of block letters.
       89       21            The returned string may be printed (by the user) or stowed for
       90       22            later printing.  DAB$BLKPRT isn't fussy what order the lines are
       91       23            called for in, so NUM may run from 0 to 8 or 8 to 0 or in any
       92       24            other pattern; changing the contents of the source string
       93       25            between DAB$BLKPRT calls is not recommended, unless you like scrap
       94       26            in the output area.
       95       27                                                                         */
       96       28    1       DCL NUM                            SBIN;
       97       29    1       DCL SLEN                           UBIN;
       98       30    1       DCL DLEN                           UBIN;
       99       31    1       DCL SRC                            CHAR(SLEN);
      100       32    1       DCL DST                            CHAR(DLEN);
      101       33    1       DCL NC                             UBIN(9) UNAL BASED;
      102       34    1       DCL AC                             CHAR(1) BASED;
      103       35    1       DCL B                              BIT(1) BASED UNAL;
      104       36    1       DCL IP                             PTR;
      105       37    1       DCL OP                             PTR;
PL6.E3A0      #002=DAB$BLKPRT File=DAB$BANNER.:E05TSI                            TUE 07/29/97 12:34 Page:23
      106       38    1       DCL TP                             PTR;
      107       39    1       DCL I                              SBIN;
      108       40    1       DCL J                              UBIN;
      109       41    1       DCL K                              SBIN;
      110       42        /*
      111       43                                   Letter Patterns
      112       44                                                                      */
      113       45    1       DCL 1 VALUES UNAL CONSTANT,
      114       46    1           2 *(0:2) BIT(27) INIT('000000000'O,'000000000'O,'000000000'O), /*     */
      115       47    1           2 *(0:2) BIT(27) INIT('070070070'O,'070070070'O,'000070070'O), /* ! */
      116       48    1           2 *(0:2) BIT(27) INIT('306306306'O,'000000000'O,'000000000'O), /* " */
      117       49    1           2 *(0:2) BIT(27) INIT('000050050'O,'376050376'O,'050050000'O), /* # */
      118       50    1           2 *(0:2) BIT(27) INIT('050174252'O,'250174052'O,'252174050'O), /* $ */
      119       51    1           2 *(0:2) BIT(27) INIT('303447316'O,'034070160'O,'346711606'O), /* % */
      120       52    1           2 *(0:2) BIT(27) INIT('160330330'O,'160161333'O,'616776363'O), /* & */
      121       53    1           2 *(0:2) BIT(27) INIT('034070160'O,'000000000'O,'000000000'O), /* ' */
      122       54    1           2 *(0:2) BIT(27) INIT('030060140'O,'140140140'O,'140060030'O), /* ( */
      123       55    1           2 *(0:2) BIT(27) INIT('060030014'O,'014014014'O,'014030060'O), /* ) */
      124       56    1           2 *(0:2) BIT(27) INIT('000000124'O,'070376070'O,'124000000'O), /* * */
      125       57    1           2 *(0:2) BIT(27) INIT('000000020'O,'020174020'O,'020000000'O), /* + */
      126       58    1           2 *(0:2) BIT(27) INIT('000000000'O,'000000000'O,'070160340'O), /* , */
      127       59    1           2 *(0:2) BIT(27) INIT('000000000'O,'000376000'O,'000000000'O), /* - */
      128       60    1           2 *(0:2) BIT(27) INIT('000000000'O,'000000000'O,'070070070'O), /* . */
      129       61    1           2 *(0:2) BIT(27) INIT('003007016'O,'034070160'O,'340700600'O), /* / */
      130       62    1           2 *(0:2) BIT(27) INIT('376777607'O,'613623643'O,'703777376'O), /* 0 */
      131       63    1           2 *(0:2) BIT(27) INIT('070170370'O,'070070070'O,'070376376'O), /* 1 */
      132       64    1           2 *(0:2) BIT(27) INIT('376777003'O,'003376600'O,'600777777'O), /* 2 */
      133       65    1           2 *(0:2) BIT(27) INIT('376777003'O,'003076003'O,'003777376'O), /* 3 */
      134       66    1           2 *(0:2) BIT(27) INIT('606606606'O,'606606777'O,'006006006'O), /* 4 */
      135       67    1           2 *(0:2) BIT(27) INIT('777777600'O,'600776003'O,'003777376'O), /* 5 */
      136       68    1           2 *(0:2) BIT(27) INIT('376777600'O,'600776603'O,'603777376'O), /* 6 */
      137       69    1           2 *(0:2) BIT(27) INIT('777777003'O,'006014030'O,'030030030'O), /* 7 */
      138       70    1           2 *(0:2) BIT(27) INIT('376777603'O,'603376603'O,'603777376'O), /* 8 */
      139       71    1           2 *(0:2) BIT(27) INIT('376777603'O,'603377003'O,'003777376'O), /* 9 */
      140       72    1           2 *(0:2) BIT(27) INIT('000070070'O,'070000070'O,'070070000'O), /* : */
      141       73    1           2 *(0:2) BIT(27) INIT('000000070'O,'070070000'O,'070160340'O), /* ; */
      142       74    1           2 *(0:2) BIT(27) INIT('001007034'O,'160700160'O,'034007001'O), /* < */
PL6.E3A0      #002=DAB$BLKPRT File=DAB$BANNER.:E05TSI                            TUE 07/29/97 12:34 Page:24
      143       75    1           2 *(0:2) BIT(27) INIT('000000000'O,'376000376'O,'000000000'O), /* = */
      144       76    1           2 *(0:2) BIT(27) INIT('400700160'O,'034007034'O,'160700400'O), /* > */
      145       77    1           2 *(0:2) BIT(27) INIT('376777003'O,'003036070'O,'000070070'O), /* ? */
      146       78    1           2 *(0:2) BIT(27) INIT('376777003'O,'003373773'O,'633777366'O), /* @ */
      147       79    1           2 *(0:2) BIT(27) INIT('174376603'O,'603777603'O,'603603603'O), /* A */
      148       80    1           2 *(0:2) BIT(27) INIT('774776603'O,'606774606'O,'603776774'O), /* B */
      149       81    1           2 *(0:2) BIT(27) INIT('174376603'O,'600600600'O,'603376174'O), /* C */
      150       82    1           2 *(0:2) BIT(27) INIT('774776603'O,'603603603'O,'603776774'O), /* D */
      151       83    1           2 *(0:2) BIT(27) INIT('777777600'O,'600760600'O,'600777777'O), /* E */
      152       84    1           2 *(0:2) BIT(27) INIT('777777600'O,'600760600'O,'600600600'O), /* F */
      153       85    1           2 *(0:2) BIT(27) INIT('174376603'O,'600637603'O,'603376174'O), /* G */
      154       86    1           2 *(0:2) BIT(27) INIT('603603603'O,'603777603'O,'603603603'O), /* H */
      155       87    1           2 *(0:2) BIT(27) INIT('376376070'O,'070070070'O,'070376376'O), /* I */
      156       88    1           2 *(0:2) BIT(27) INIT('003003003'O,'003003603'O,'603376174'O), /* J */
      157       89    1           2 *(0:2) BIT(27) INIT('603606614'O,'630760630'O,'614606603'O), /* K */
      158       90    1           2 *(0:2) BIT(27) INIT('600600600'O,'600600600'O,'600777777'O), /* L */
      159       91    1           2 *(0:2) BIT(27) INIT('603707757'O,'673623603'O,'603603603'O), /* M */
      160       92    1           2 *(0:2) BIT(27) INIT('603703743'O,'663633617'O,'607603603'O), /* N */
      161       93    1           2 *(0:2) BIT(27) INIT('174376603'O,'603603603'O,'603376174'O), /* O */
      162       94    1           2 *(0:2) BIT(27) INIT('774776603'O,'603776774'O,'600600600'O), /* P */
      163       95    1           2 *(0:2) BIT(27) INIT('174376603'O,'603623613'O,'607376175'O), /* Q */
      164       96    1           2 *(0:2) BIT(27) INIT('774776603'O,'603776774'O,'606603603'O), /* R */
      165       97    1           2 *(0:2) BIT(27) INIT('174376603'O,'300174006'O,'603376174'O), /* S */
      166       98    1           2 *(0:2) BIT(27) INIT('777777070'O,'070070070'O,'070070070'O), /* T */
      167       99    1           2 *(0:2) BIT(27) INIT('603603603'O,'603603603'O,'603376174'O), /* U */
      168      100    1           2 *(0:2) BIT(27) INIT('603603603'O,'306306154'O,'154070020'O), /* V */
      169      101    1           2 *(0:2) BIT(27) INIT('603603603'O,'603603623'O,'673757306'O), /* W */
      170      102    1           2 *(0:2) BIT(27) INIT('603707356'O,'174070174'O,'356707603'O), /* X */
      171      103    1           2 *(0:2) BIT(27) INIT('603603306'O,'154070070'O,'070070070'O), /* Y */
      172      104    1           2 *(0:2) BIT(27) INIT('777777016'O,'034070160'O,'340777777'O), /* Z */
      173      105    1           2 *(0:2) BIT(27) INIT('174174140'O,'140140140'O,'140174174'O), /* [ */
      174      106    1           2 *(0:2) BIT(27) INIT('600700340'O,'160070034'O,'016007003'O), /* \ */
      175      107    1           2 *(0:2) BIT(27) INIT('174174014'O,'014014014'O,'014174174'O), /* ] */
      176      108    1           2 *(0:2) BIT(27) INIT('020070154'O,'306000000'O,'000000000'O), /* ^ */
      177      109    1           2 *(0:2) BIT(27) INIT('000000000'O,'000000000'O,'000000777'O), /* _ */
      178      110    1           2 *(0:2) BIT(27) INIT('160070034'O,'000000000'O,'000000000'O), /* ` */
      179      111    1           2 *(0:2) BIT(27) INIT('000000000'O,'000373607'O,'603607373'O), /* a */
PL6.E3A0      #002=DAB$BLKPRT File=DAB$BANNER.:E05TSI                            TUE 07/29/97 12:34 Page:25
      180      112    1           2 *(0:2) BIT(27) INIT('000600600'O,'600676703'O,'603703676'O), /* b */
      181      113    1           2 *(0:2) BIT(27) INIT('000000000'O,'000376603'O,'600603376'O), /* c */
      182      114    1           2 *(0:2) BIT(27) INIT('000003003'O,'003373607'O,'603607373'O), /* d */
      183      115    1           2 *(0:2) BIT(27) INIT('000000000'O,'000376603'O,'777600377'O), /* e */
      184      116    1           2 *(0:2) BIT(27) INIT('000174306'O,'300760300'O,'300300300'O), /* f */
      185      117    1           2 *(0:2) BIT(27) INIT('000000000'O,'000373607'O,'373003776'O), /* g */
      186      118    1           2 *(0:2) BIT(27) INIT('000600600'O,'600676703'O,'603603603'O), /* h */
      187      119    1           2 *(0:2) BIT(27) INIT('000000030'O,'000070030'O,'030030074'O), /* i */
      188      120    1           2 *(0:2) BIT(27) INIT('000000030'O,'000070030'O,'030630360'O), /* j */
      189      121    1           2 *(0:2) BIT(27) INIT('000600600'O,'600606630'O,'740630606'O), /* k */
      190      122    1           2 *(0:2) BIT(27) INIT('000070030'O,'030030030'O,'030030074'O), /* l */
      191      123    1           2 *(0:2) BIT(27) INIT('000000000'O,'000656723'O,'623623623'O), /* m */
      192      124    1           2 *(0:2) BIT(27) INIT('000000000'O,'000676703'O,'603603603'O), /* n */
      193      125    1           2 *(0:2) BIT(27) INIT('000000000'O,'000376603'O,'603603376'O), /* o */
      194      126    1           2 *(0:2) BIT(27) INIT('000000000'O,'000676703'O,'703676600'O), /* p */
      195      127    1           2 *(0:2) BIT(27) INIT('000000000'O,'000373607'O,'607373003'O), /* q */
      196      128    1           2 *(0:2) BIT(27) INIT('000000000'O,'000676703'O,'600600600'O), /* r */
      197      129    1           2 *(0:2) BIT(27) INIT('000000000'O,'000377600'O,'376003776'O), /* s */
      198      130    1           2 *(0:2) BIT(27) INIT('000000140'O,'140770140'O,'140146074'O), /* t */
      199      131    1           2 *(0:2) BIT(27) INIT('000000000'O,'000603603'O,'603607373'O), /* u */
      200      132    1           2 *(0:2) BIT(27) INIT('000000000'O,'000603603'O,'306154070'O), /* v */
      201      133    1           2 *(0:2) BIT(27) INIT('000000000'O,'000603603'O,'623623356'O), /* w */
      202      134    1           2 *(0:2) BIT(27) INIT('000000000'O,'000306154'O,'070154306'O), /* x */
      203      135    1           2 *(0:2) BIT(27) INIT('000000000'O,'000603306'O,'154070360'O), /* y */
      204      136    1           2 *(0:2) BIT(27) INIT('000000000'O,'000777016'O,'070340777'O), /* z */
      205      137    1           2 *(0:2) BIT(27) INIT('034060060'O,'060140060'O,'060060034'O), /* { */
      206      138    1           2 *(0:2) BIT(27) INIT('070070070'O,'070000070'O,'070070070'O), /* | */
      207      139    1           2 *(0:2) BIT(27) INIT('160030030'O,'030014030'O,'030030160'O), /* } */
      208      140    1           2 *(0:2) BIT(27) INIT('000000000'O,'340623016'O,'000000000'O), /* ~ */
      209      141    1           2 *(0:2) BIT(27) INIT('777777777'O,'777777777'O,'777777777'O); /*     */
      210      142    1       DCL TABLE REDEF VALUES             CHAR(864);
      211      143    1       DLEN=10*SLEN;
      212      144    1       DST=' ';
      213      145    1       IF NUM>8 THEN
      214      146    1           ALTRETURN;
      215      147    1       IP=ADDR(SRC);
      216      148    1       OP=ADDR(DST);
PL6.E3A0      #002=DAB$BLKPRT File=DAB$BANNER.:E05TSI                            TUE 07/29/97 12:34 Page:26
      217      149    2       DO I=1 TO SLEN;
      218      150    2           K=MOD(IP->NC,128);
      219      151    2           IF K<32 THEN
      220      152    2               K=32;
      221      153    2           NUM = NUM + (K-32)*9;
      222      154    2           TP=ADDR(SUBSTR(TABLE,NUM,1));
      223      155    3           DO J=0 TO 8;
      224      156    3               IF TP->B='1'B THEN
      225      157    3                   OP->AC=IP->AC;
      226      158    3               TP=PINCRB(TP,1);
      227      159    3               OP=PINCRC(OP,1);
      228      160    3           END;
      229      161    2           OP=PINCRC(OP,1);
      230      162    2           IP=PINCRC(IP,1);
      231      163    2       END;
      232      164    1       RETURN;
      233      165    1   END;

PL6.E3A0      #002=DAB$BLKPRT File=DAB$BANNER.:E05TSI                            TUE 07/29/97 12:34 Page:27
      No diagnostics issued in procedure DAB$BLKPRT.

   Procedure DAB$BLKPRT requires 78 words for executable code.
   Procedure DAB$BLKPRT requires 16 words of local(AUTO) storage.

    No errors detected in file DAB$BANNER.:E05TSI    .

PL6.E3A0      #002=DAB$BLKPRT File=DAB$BANNER.:E05TSI                            TUE 07/29/97 12:34 Page:28

 Object Unit name= DAB$BLKPRT                                 File name= DAB$BANNER.:E05TOU
 UTS= JUL 29 '97 12:34:51.92 TUE                              Compiler= PL-6/E31         Sev=      00
 SharedLib= :SHARED_SYSTEM                                    Alt SharedLib=


    ****  Control sections  ****

 Sect   Type Bound  Init  Size OctSiz  Section name(segment info)
    0  RoData even  UTS    216    330  DAB$BLKPRT
    1   Proc  even  none    78    116  DAB$BLKPRT
    2  RoData even  none     1      1  DAB$BLKPRT

    ****  Entry defs  ****

                              Check   Calling
                             calling  sequence
  Sect OctLoc Primary Altret sequence   type   Parms  Name
     1      0   yes    yes     yes      Std        5  DAB$BLKPRT

  ****  Entry refs  ****

         Check        Calling
        calling       sequence
Altret sequence SRef   type   Args  Name
                       nStd      0 X66_AUTO_5
                       Std       0 B_CONSPOOL_D
                       nStd      0 X66_AALT
                       nStd      0 X66_ARET

  ****  Data refs  ****

  Flags:  r = read only, s = secondary
Flgs Name                             Flgs Name                             Flgs Name
     B_VECTNIL
PL6.E3A0      #002=DAB$BLKPRT File=DAB$BANNER.:E05TSI                            TUE 07/29/97 12:34 Page:29

  ****  Segment refs  ****

  Flags:  r = read only, s = secondary
Flgs Name                             Flgs Name                             Flgs Name
     ISSID
PL6.E3A0      #002=DAB$BLKPRT File=DAB$BANNER.:E05TSI                            TUE 07/29/97 12:34 Page:30


       69        1        /*T***********************************************************/
       70        2        /*T*                                                         */
       71        3        /*T* Copyright (c) Bull HN Information Systems Inc., 1997    */
       72        4        /*T*                                                         */
       73        5        /*T***********************************************************/
       74        6        DAB$BLKPRT: PROC(NUM,SRC,SLEN,DST,DLEN) ALTRET;

      6  1 000000   000000 700200 xent  DAB$BLKPRT   TSX0  ! X66_AUTO_5
         1 000001   000020 000005                    ZERO    16,5

       75        7        /*
       76        8            DAB$BLKPRT builds 9-character block letters from a user CALL,
       77        9            one line at a time.  The user specifies the source string
       78       10            of ASCII characters and a destination area.  One blank is
       79       11            placed between each expanded letter, making the letters 10
       80       12            spaces wide.  The arguments are:
       81       13
       82       14            NUM - Is the line number to build, range 0-8; UBIN WORD.
       83       15            SRC - Is the source string, a CHAR element.
       84       16            SLEN - Is the length of SRC in 9-bit characters, UBIN WORD.
       85       17            DST - Is the destination string, a CHAR element.
       86       18            DLEN - Is the returned length of DST, UBIN WORD.
       87       19
       88       20            The user calls DAB$BLKPRT 9 times, once per line of block letters.
       89       21            The returned string may be printed (by the user) or stowed for
       90       22            later printing.  DAB$BLKPRT isn't fussy what order the lines are
       91       23            called for in, so NUM may run from 0 to 8 or 8 to 0 or in any
       92       24            other pattern; changing the contents of the source string
       93       25            between DAB$BLKPRT calls is not recommended, unless you like scrap
       94       26            in the output area.
       95       27                                                                         */
       96       28    1       DCL NUM                            SBIN;
       97       29    1       DCL SLEN                           UBIN;
       98       30    1       DCL DLEN                           UBIN;
       99       31    1       DCL SRC                            CHAR(SLEN);
      100       32    1       DCL DST                            CHAR(DLEN);
PL6.E3A0      #002=DAB$BLKPRT File=DAB$BANNER.:E05TSI                            TUE 07/29/97 12:34 Page:31
      101       33    1       DCL NC                             UBIN(9) UNAL BASED;
      102       34    1       DCL AC                             CHAR(1) BASED;
      103       35    1       DCL B                              BIT(1) BASED UNAL;
      104       36    1       DCL IP                             PTR;
      105       37    1       DCL OP                             PTR;
      106       38    1       DCL TP                             PTR;
      107       39    1       DCL I                              SBIN;
      108       40    1       DCL J                              UBIN;
      109       41    1       DCL K                              SBIN;
      110       42        /*
      111       43                                   Letter Patterns
      112       44                                                                      */
      113       45    1       DCL 1 VALUES UNAL CONSTANT,
      114       46    1           2 *(0:2) BIT(27) INIT('000000000'O,'000000000'O,'000000000'O), /*     */
      115       47    1           2 *(0:2) BIT(27) INIT('070070070'O,'070070070'O,'000070070'O), /* ! */
      116       48    1           2 *(0:2) BIT(27) INIT('306306306'O,'000000000'O,'000000000'O), /* " */
      117       49    1           2 *(0:2) BIT(27) INIT('000050050'O,'376050376'O,'050050000'O), /* # */
      118       50    1           2 *(0:2) BIT(27) INIT('050174252'O,'250174052'O,'252174050'O), /* $ */
      119       51    1           2 *(0:2) BIT(27) INIT('303447316'O,'034070160'O,'346711606'O), /* % */
      120       52    1           2 *(0:2) BIT(27) INIT('160330330'O,'160161333'O,'616776363'O), /* & */
      121       53    1           2 *(0:2) BIT(27) INIT('034070160'O,'000000000'O,'000000000'O), /* ' */
      122       54    1           2 *(0:2) BIT(27) INIT('030060140'O,'140140140'O,'140060030'O), /* ( */
      123       55    1           2 *(0:2) BIT(27) INIT('060030014'O,'014014014'O,'014030060'O), /* ) */
      124       56    1           2 *(0:2) BIT(27) INIT('000000124'O,'070376070'O,'124000000'O), /* * */
      125       57    1           2 *(0:2) BIT(27) INIT('000000020'O,'020174020'O,'020000000'O), /* + */
      126       58    1           2 *(0:2) BIT(27) INIT('000000000'O,'000000000'O,'070160340'O), /* , */
      127       59    1           2 *(0:2) BIT(27) INIT('000000000'O,'000376000'O,'000000000'O), /* - */
      128       60    1           2 *(0:2) BIT(27) INIT('000000000'O,'000000000'O,'070070070'O), /* . */
      129       61    1           2 *(0:2) BIT(27) INIT('003007016'O,'034070160'O,'340700600'O), /* / */
      130       62    1           2 *(0:2) BIT(27) INIT('376777607'O,'613623643'O,'703777376'O), /* 0 */
      131       63    1           2 *(0:2) BIT(27) INIT('070170370'O,'070070070'O,'070376376'O), /* 1 */
      132       64    1           2 *(0:2) BIT(27) INIT('376777003'O,'003376600'O,'600777777'O), /* 2 */
      133       65    1           2 *(0:2) BIT(27) INIT('376777003'O,'003076003'O,'003777376'O), /* 3 */
      134       66    1           2 *(0:2) BIT(27) INIT('606606606'O,'606606777'O,'006006006'O), /* 4 */
      135       67    1           2 *(0:2) BIT(27) INIT('777777600'O,'600776003'O,'003777376'O), /* 5 */
      136       68    1           2 *(0:2) BIT(27) INIT('376777600'O,'600776603'O,'603777376'O), /* 6 */
      137       69    1           2 *(0:2) BIT(27) INIT('777777003'O,'006014030'O,'030030030'O), /* 7 */
PL6.E3A0      #002=DAB$BLKPRT File=DAB$BANNER.:E05TSI                            TUE 07/29/97 12:34 Page:32
      138       70    1           2 *(0:2) BIT(27) INIT('376777603'O,'603376603'O,'603777376'O), /* 8 */
      139       71    1           2 *(0:2) BIT(27) INIT('376777603'O,'603377003'O,'003777376'O), /* 9 */
      140       72    1           2 *(0:2) BIT(27) INIT('000070070'O,'070000070'O,'070070000'O), /* : */
      141       73    1           2 *(0:2) BIT(27) INIT('000000070'O,'070070000'O,'070160340'O), /* ; */
      142       74    1           2 *(0:2) BIT(27) INIT('001007034'O,'160700160'O,'034007001'O), /* < */
      143       75    1           2 *(0:2) BIT(27) INIT('000000000'O,'376000376'O,'000000000'O), /* = */
      144       76    1           2 *(0:2) BIT(27) INIT('400700160'O,'034007034'O,'160700400'O), /* > */
      145       77    1           2 *(0:2) BIT(27) INIT('376777003'O,'003036070'O,'000070070'O), /* ? */
      146       78    1           2 *(0:2) BIT(27) INIT('376777003'O,'003373773'O,'633777366'O), /* @ */
      147       79    1           2 *(0:2) BIT(27) INIT('174376603'O,'603777603'O,'603603603'O), /* A */
      148       80    1           2 *(0:2) BIT(27) INIT('774776603'O,'606774606'O,'603776774'O), /* B */
      149       81    1           2 *(0:2) BIT(27) INIT('174376603'O,'600600600'O,'603376174'O), /* C */
      150       82    1           2 *(0:2) BIT(27) INIT('774776603'O,'603603603'O,'603776774'O), /* D */
      151       83    1           2 *(0:2) BIT(27) INIT('777777600'O,'600760600'O,'600777777'O), /* E */
      152       84    1           2 *(0:2) BIT(27) INIT('777777600'O,'600760600'O,'600600600'O), /* F */
      153       85    1           2 *(0:2) BIT(27) INIT('174376603'O,'600637603'O,'603376174'O), /* G */
      154       86    1           2 *(0:2) BIT(27) INIT('603603603'O,'603777603'O,'603603603'O), /* H */
      155       87    1           2 *(0:2) BIT(27) INIT('376376070'O,'070070070'O,'070376376'O), /* I */
      156       88    1           2 *(0:2) BIT(27) INIT('003003003'O,'003003603'O,'603376174'O), /* J */
      157       89    1           2 *(0:2) BIT(27) INIT('603606614'O,'630760630'O,'614606603'O), /* K */
      158       90    1           2 *(0:2) BIT(27) INIT('600600600'O,'600600600'O,'600777777'O), /* L */
      159       91    1           2 *(0:2) BIT(27) INIT('603707757'O,'673623603'O,'603603603'O), /* M */
      160       92    1           2 *(0:2) BIT(27) INIT('603703743'O,'663633617'O,'607603603'O), /* N */
      161       93    1           2 *(0:2) BIT(27) INIT('174376603'O,'603603603'O,'603376174'O), /* O */
      162       94    1           2 *(0:2) BIT(27) INIT('774776603'O,'603776774'O,'600600600'O), /* P */
      163       95    1           2 *(0:2) BIT(27) INIT('174376603'O,'603623613'O,'607376175'O), /* Q */
      164       96    1           2 *(0:2) BIT(27) INIT('774776603'O,'603776774'O,'606603603'O), /* R */
      165       97    1           2 *(0:2) BIT(27) INIT('174376603'O,'300174006'O,'603376174'O), /* S */
      166       98    1           2 *(0:2) BIT(27) INIT('777777070'O,'070070070'O,'070070070'O), /* T */
      167       99    1           2 *(0:2) BIT(27) INIT('603603603'O,'603603603'O,'603376174'O), /* U */
      168      100    1           2 *(0:2) BIT(27) INIT('603603603'O,'306306154'O,'154070020'O), /* V */
      169      101    1           2 *(0:2) BIT(27) INIT('603603603'O,'603603623'O,'673757306'O), /* W */
      170      102    1           2 *(0:2) BIT(27) INIT('603707356'O,'174070174'O,'356707603'O), /* X */
      171      103    1           2 *(0:2) BIT(27) INIT('603603306'O,'154070070'O,'070070070'O), /* Y */
      172      104    1           2 *(0:2) BIT(27) INIT('777777016'O,'034070160'O,'340777777'O), /* Z */
      173      105    1           2 *(0:2) BIT(27) INIT('174174140'O,'140140140'O,'140174174'O), /* [ */
      174      106    1           2 *(0:2) BIT(27) INIT('600700340'O,'160070034'O,'016007003'O), /* \ */
PL6.E3A0      #002=DAB$BLKPRT File=DAB$BANNER.:E05TSI                            TUE 07/29/97 12:34 Page:33
      175      107    1           2 *(0:2) BIT(27) INIT('174174014'O,'014014014'O,'014174174'O), /* ] */
      176      108    1           2 *(0:2) BIT(27) INIT('020070154'O,'306000000'O,'000000000'O), /* ^ */
      177      109    1           2 *(0:2) BIT(27) INIT('000000000'O,'000000000'O,'000000777'O), /* _ */
      178      110    1           2 *(0:2) BIT(27) INIT('160070034'O,'000000000'O,'000000000'O), /* ` */
      179      111    1           2 *(0:2) BIT(27) INIT('000000000'O,'000373607'O,'603607373'O), /* a */
      180      112    1           2 *(0:2) BIT(27) INIT('000600600'O,'600676703'O,'603703676'O), /* b */
      181      113    1           2 *(0:2) BIT(27) INIT('000000000'O,'000376603'O,'600603376'O), /* c */
      182      114    1           2 *(0:2) BIT(27) INIT('000003003'O,'003373607'O,'603607373'O), /* d */
      183      115    1           2 *(0:2) BIT(27) INIT('000000000'O,'000376603'O,'777600377'O), /* e */
      184      116    1           2 *(0:2) BIT(27) INIT('000174306'O,'300760300'O,'300300300'O), /* f */
      185      117    1           2 *(0:2) BIT(27) INIT('000000000'O,'000373607'O,'373003776'O), /* g */
      186      118    1           2 *(0:2) BIT(27) INIT('000600600'O,'600676703'O,'603603603'O), /* h */
      187      119    1           2 *(0:2) BIT(27) INIT('000000030'O,'000070030'O,'030030074'O), /* i */
      188      120    1           2 *(0:2) BIT(27) INIT('000000030'O,'000070030'O,'030630360'O), /* j */
      189      121    1           2 *(0:2) BIT(27) INIT('000600600'O,'600606630'O,'740630606'O), /* k */
      190      122    1           2 *(0:2) BIT(27) INIT('000070030'O,'030030030'O,'030030074'O), /* l */
      191      123    1           2 *(0:2) BIT(27) INIT('000000000'O,'000656723'O,'623623623'O), /* m */
      192      124    1           2 *(0:2) BIT(27) INIT('000000000'O,'000676703'O,'603603603'O), /* n */
      193      125    1           2 *(0:2) BIT(27) INIT('000000000'O,'000376603'O,'603603376'O), /* o */
      194      126    1           2 *(0:2) BIT(27) INIT('000000000'O,'000676703'O,'703676600'O), /* p */
      195      127    1           2 *(0:2) BIT(27) INIT('000000000'O,'000373607'O,'607373003'O), /* q */
      196      128    1           2 *(0:2) BIT(27) INIT('000000000'O,'000676703'O,'600600600'O), /* r */
      197      129    1           2 *(0:2) BIT(27) INIT('000000000'O,'000377600'O,'376003776'O), /* s */
      198      130    1           2 *(0:2) BIT(27) INIT('000000140'O,'140770140'O,'140146074'O), /* t */
      199      131    1           2 *(0:2) BIT(27) INIT('000000000'O,'000603603'O,'603607373'O), /* u */
      200      132    1           2 *(0:2) BIT(27) INIT('000000000'O,'000603603'O,'306154070'O), /* v */
      201      133    1           2 *(0:2) BIT(27) INIT('000000000'O,'000603603'O,'623623356'O), /* w */
      202      134    1           2 *(0:2) BIT(27) INIT('000000000'O,'000306154'O,'070154306'O), /* x */
      203      135    1           2 *(0:2) BIT(27) INIT('000000000'O,'000603306'O,'154070360'O), /* y */
      204      136    1           2 *(0:2) BIT(27) INIT('000000000'O,'000777016'O,'070340777'O), /* z */
      205      137    1           2 *(0:2) BIT(27) INIT('034060060'O,'060140060'O,'060060034'O), /* { */
      206      138    1           2 *(0:2) BIT(27) INIT('070070070'O,'070000070'O,'070070070'O), /* | */
      207      139    1           2 *(0:2) BIT(27) INIT('160030030'O,'030014030'O,'030030160'O), /* } */
      208      140    1           2 *(0:2) BIT(27) INIT('000000000'O,'340623016'O,'000000000'O), /* ~ */
      209      141    1           2 *(0:2) BIT(27) INIT('777777777'O,'777777777'O,'777777777'O); /*     */
      210      142    1       DCL TABLE REDEF VALUES             CHAR(864);
      211      143    1       DLEN=10*SLEN;
PL6.E3A0      #002=DAB$BLKPRT File=DAB$BANNER.:E05TSI                            TUE 07/29/97 12:34 Page:34

    143  1 000002   200005 470500                    LDP0    @SLEN,,AUTO
         1 000003   200007 471500                    LDP1    @DLEN,,AUTO
         1 000004   000000 236100                    LDQ     0,,PR0
         1 000005   000012 402007                    MPY     10,DL
         1 000006   100000 756100                    STQ     0,,PR1

      212      144    1       DST=' ';

    144  1 000007   100000 720100                    LXL0    0,,PR1
         1 000010   200006 473500                    LDP3    @DST,,AUTO
         1 000011   040140 100400                    MLR     fill='040'O
         1 000012   000035 000001 xsym               ADSC9   B_VECTNIL+29             cn=0,n=1
         1 000013   300000 000010                    ADSC9   0,,PR3                   cn=0,n=*X0

      213      145    1       IF NUM>8 THEN

    145  1 000014   200003 474500                    LDP4    @NUM,,AUTO
         1 000015   400000 235100                    LDA     0,,PR4
         1 000016   000010 115007                    CMPA    8,DL
         1 000017   000021 604400 1                  TMOZ    s:147

      214      146    1           ALTRETURN;

    146  1 000020   000000 702200 xent               TSX2  ! X66_AALT

      215      147    1       IP=ADDR(SRC);

    147  1 000021   200004 236100                    LDQ     @SRC,,AUTO
         1 000022   200010 756100                    STQ     IP,,AUTO

      216      148    1       OP=ADDR(DST);

    148  1 000023   200006 236100                    LDQ     @DST,,AUTO
         1 000024   200011 756100                    STQ     OP,,AUTO

      217      149    2       DO I=1 TO SLEN;
PL6.E3A0      #002=DAB$BLKPRT File=DAB$BANNER.:E05TSI                            TUE 07/29/97 12:34 Page:35

    149  1 000025   000001 235007                    LDA     1,DL
         1 000026   200013 755100                    STA     I,,AUTO
         1 000027   000110 710000 1                  TRA     s:163+1

      218      150    2           K=MOD(IP->NC,128);

    150  1 000030   200010 470500                    LDP0    IP,,AUTO
         1 000031   003100 061500                    CSR     bolr='003'O
         1 000032   000000 000011                    BDSC    0,,PR0                   by=0,bit=0,n=9
         1 000033   200016 000044                    BDSC    K+1,,AUTO                by=0,bit=0,n=36
         1 000034   200016 236100                    LDQ     K+1,,AUTO
         1 000035   000177 376007                    ANQ     127,DL
         1 000036   200015 756100                    STQ     K,,AUTO

      219      151    2           IF K<32 THEN

    151  1 000037   000040 116007                    CMPQ    32,DL
         1 000040   000043 605000 1                  TPL     s:153

      220      152    2               K=32;

    152  1 000041   000040 235007                    LDA     32,DL
         1 000042   200015 755100                    STA     K,,AUTO

      221      153    2           NUM = NUM + (K-32)*9;

    153  1 000043   200003 471500                    LDP1    @NUM,,AUTO
         1 000044   200015 236100                    LDQ     K,,AUTO
         1 000045   000011 402007                    MPY     9,DL
         1 000046   100000 036100                    ADLQ    0,,PR1
         1 000047   000440 136007                    SBLQ    288,DL
         1 000050   100000 756100                    STQ     0,,PR1

      222      154    2           TP=ADDR(SUBSTR(TABLE,NUM,1));

    154  1 000051   000020 736000                    QLS     16
PL6.E3A0      #002=DAB$BLKPRT File=DAB$BANNER.:E05TSI                            TUE 07/29/97 12:34 Page:36
         1 000052   000000 036000 2                  ADLQ    0
         1 000053   200012 756100                    STQ     TP,,AUTO

      223      155    3           DO J=0 TO 8;

    155  1 000054   200014 450100                    STZ     J,,AUTO

      224      156    3               IF TP->B='1'B THEN

    156  1 000055   200012 470500                    LDP0    TP,,AUTO
         1 000056   000000 066500                    CMPB    filb='0'B
         1 000057   000000 000001                    BDSC    0,,PR0                   by=0,bit=0,n=1
         1 000060   000002 000022 xsym               BDSC    B_VECTNIL+2              by=0,bit=0,n=18
         1 000061   000067 600000 1                  TZE     s:158

      225      157    3                   OP->AC=IP->AC;

    157  1 000062   200010 471500                    LDP1    IP,,AUTO
         1 000063   200011 473500                    LDP3    OP,,AUTO
         1 000064   040100 100500                    MLR     fill='040'O
         1 000065   100000 000001                    ADSC9   0,,PR1                   cn=0,n=1
         1 000066   300000 000001                    ADSC9   0,,PR3                   cn=0,n=1

      226      158    3               TP=PINCRB(TP,1);

    158  1 000067   000001 220003                    LDX0    1,DU
         1 000070   000000 503510                    ABD     0,X0,PR0
         1 000071   200012 450500                    STP0    TP,,AUTO

      227      159    3               OP=PINCRC(OP,1);

    159  1 000072   200011 236100                    LDQ     OP,,AUTO
         1 000073   200000 036007                    ADLQ    65536,DL
         1 000074   200011 756100                    STQ     OP,,AUTO

      228      160    3           END;

PL6.E3A0      #002=DAB$BLKPRT File=DAB$BANNER.:E05TSI                            TUE 07/29/97 12:34 Page:37
    160  1 000075   200014 235100                    LDA     J,,AUTO
         1 000076   000001 035007                    ADLA    1,DL
         1 000077   200014 755100                    STA     J,,AUTO
         1 000100   000011 115007                    CMPA    9,DL
         1 000101   000055 602000 1                  TNC     s:156

      229      161    2           OP=PINCRC(OP,1);

    161  1 000102   200000 036007                    ADLQ    65536,DL
         1 000103   200011 756100                    STQ     OP,,AUTO

      230      162    2           IP=PINCRC(IP,1);

    162  1 000104   200010 236100                    LDQ     IP,,AUTO
         1 000105   200000 036007                    ADLQ    65536,DL
         1 000106   200010 756100                    STQ     IP,,AUTO

      231      163    2       END;

    163  1 000107   200013 054100                    AOS     I,,AUTO
         1 000110   200005 470500                    LDP0    @SLEN,,AUTO
         1 000111   000000 236100                    LDQ     0,,PR0
         1 000112   000030 604000 1                  TMI     s:150
         1 000113   200013 116100                    CMPQ    I,,AUTO
         1 000114   000030 605000 1                  TPL     s:150

      232      164    1       RETURN;

    164  1 000115   000000 702200 xent               TSX2  ! X66_ARET
      233      165    1   END;

PL6.E3A0      #002=DAB$BLKPRT File=DAB$BANNER.:E05TSI                            TUE 07/29/97 12:34 Page:38
      No diagnostics issued in procedure DAB$BLKPRT.
PL6.E3A0      #002=DAB$BLKPRT File=DAB$BANNER.:E05TSI                            TUE 07/29/97 12:34 Page:39

 **** Variables and constants ****

  ****  Section 000 RoData DAB$BLKPRT

  ****  Scalars and arrays  ****
OctLoc.c.b A Datatyp(siz) R M Lvl/name                 OctLoc.c.b A Datatyp(siz) R M Lvl/name

     0-0-0/c CHAR(864)   r     1 TABLE                      0-0-0/b STRC(7776)  r     1 VALUES

  ****  Auto variables  ****

  ****  Scalars and arrays  ****
OctLoc.c.b A Datatyp(siz) R M Lvl/name                 OctLoc.c.b A Datatyp(siz) R M Lvl/name

     7-0-0/w PTR         r     1 @DLEN                      6-0-0/w PTR         r     1 @DST
     3-0-0/w PTR         r     1 @NUM                       5-0-0/w PTR         r     1 @SLEN
     4-0-0/w PTR         r     1 @SRC                      *0-0-0/w UBIN        r     1 DLEN
    *0-0-0/c ACHR        r     1 DST                       13-0-0/w SBIN        r     1 I
    10-0-0/w PTR         r     1 IP                        14-0-0/w UBIN        r     1 J
    15-0-0/w SBIN        r     1 K                         *0-0-0/w SBIN        r     1 NUM
    11-0-0/w PTR         r     1 OP                        *0-0-0/w UBIN        r     1 SLEN
    *0-0-0/c ACHR        r     1 SRC                       12-0-0/w PTR         r     1 TP

  ****  BASED and DCB variables  ****

  ****  Scalars and arrays  ****
OctLoc.c.b A Datatyp(siz) R M Lvl/name                 OctLoc.c.b A Datatyp(siz) R M Lvl/name

     0-0-0/c CHAR        r     1 AC                         0-0-0/b BIT         r     1 B
     0-0-0/b UBIN(9)     r     1 NC


   Procedure DAB$BLKPRT requires 78 words for executable code.
   Procedure DAB$BLKPRT requires 16 words of local(AUTO) storage.
PL6.E3A0      #002=DAB$BLKPRT File=DAB$BANNER.:E05TSI                            TUE 07/29/97 12:34 Page:40

    No errors detected in file DAB$BANNER.:E05TSI    .
PL6.E3A0      #002=DAB$BLKPRT File=DAB$BANNER.:E05TSI                            TUE 07/29/97 12:34 Page:41
          *** CROSS REFERENCE LISTING ***
**     DENOTES     IDENTIFIER DEFINITION
<<                 IDENTIFIER'S VALUE SET
>>                 IDENTIFIER'S VALUE USED
<>                 IDENTIFIER SET AND/OR USED
--                 IDENTIFIER REFERENCED
PL6.E3A0      #002=DAB$BLKPRT File=DAB$BANNER.:E05TSI                            TUE 07/29/97 12:34 Page:42
          MINI XREF LISTING

AC
        34**DCL       157<<ASSIGN    157>>ASSIGN
B
        35**DCL       156>>IF
DLEN
        30**DCL         6--PROC       32--IMP-SIZ   143<<ASSIGN    144>>ASSIGN
DST
        32**DCL         6--PROC      144<<ASSIGN    148--ASSIGN
I
        39**DCL       149<<DOINDEX
IP
        36**DCL       147<<ASSIGN    150>>ASSIGN    157>>ASSIGN    162<<ASSIGN    162>>ASSIGN
J
        40**DCL       155<<DOINDEX
K
        41**DCL       150<<ASSIGN    151>>IF        152<<ASSIGN    153>>ASSIGN
NC
        33**DCL       150>>ASSIGN
NUM
        28**DCL         6--PROC      145>>IF        153<<ASSIGN    153>>ASSIGN    154>>ASSIGN
OP
        37**DCL       148<<ASSIGN    157>>ASSIGN    159<<ASSIGN    159>>ASSIGN    161<<ASSIGN    161>>ASSIGN
SLEN
        29**DCL         6--PROC       31--IMP-SIZ   143>>ASSIGN    149>>DOINDEX
SRC
        31**DCL         6--PROC      147--ASSIGN
TABLE
       142**DCL       154--ASSIGN
TP
        38**DCL       154<<ASSIGN    156>>IF        158<<ASSIGN    158>>ASSIGN
VALUES
        45**DCL       142--REDEF
