VERSION E05

PL6.E3A0      #001=DAB$DUMPCMD File=DAB$DUMP.:E05TSI                             TUE 07/29/97 12:37 Page:1
        1        1        /*M* DAB$DUMP - ANLZ DUMP COMMAND */
        2        2        /*T***********************************************************/
        3        3        /*T*                                                         */
        4        4        /*T* Copyright (c) Bull HN Information Systems Inc., 1997    */
        5        5        /*T*                                                         */
        6        6        /*T***********************************************************/
        7        7        /*X* DMR */
        8        8        DAB$DUMPCMD: PROC(TOP);
        9        9        %INCLUDE XU_MACRO_C;
       10     3115        %PARSE$OUT (NAME=TOP,STCLASS="");
       11     3160        /**/
       12     3161        %INCLUDE DA_ANLZ_R;
       13     3174        %INCLUDE DA_CMD_C;
       14     3523        %INCLUDE DA_MAP_R;
       15     3553        %INCLUDE DA_SYMBOLS_R;
       16     3566        %INCLUDE DA_PERR_C;
       17     3630        %INCLUDE XU_FORMAT_C;
       18     3792        %INCLUDE DA_FORMAT_C;
       19     4034        %INCLUDE B_SEGIDS_C;
       20     4573        %INCLUDE B_STRINGS_C;
       21     4702        %INCLUDE B$OBJECT_C;
       22     8132        %INCLUDE B$USER;
       23     8348        /**/
       24     8349    1   DCL DAA$VALUE ENTRY(3) ALTRET;
       25     8350    1   DCL DAA$LOC ENTRY(2) ALTRET;
       26     8351    1   DCL DAA$EXP ENTRY(4) ALTRET;
       27     8352    1   DCL DAM$CVM ENTRY(2) ALTRET;
       28     8353    1   DCL DAM$GETDESC ENTRY(5) ALTRET;
       29     8354    1   DCL DAM$MAP ENTRY(5) ALTRET;
       30     8355    1   DCL DAM$VPAGE ENTRY(5) ALTRET;
       31     8356    1   DCL DAM$FREEM ENTRY;
       32     8357    1   DCL DAB$OCTDUMP ENTRY(5);
       33     8358    1   DCL DAB$HEXDUMP ENTRY(5);
       34     8359    1   DCL DAB$SSFRAME ENTRY(1);
       35     8360    1   DCL DAB$HISTORY ENTRY(4);
       36     8361    1   DCL DAF$INIT ENTRY(1) ALTRET;
       37     8362    1   DCL DAF$NEWPAGE ENTRY;
PL6.E3A0      #001=DAB$DUMPCMD File=DAB$DUMP.:E05TSI                             TUE 07/29/97 12:37 Page:2
       38     8363    1   DCL DAF$WRITE EPTR SYMREF;
       39     8364    1   DCL DAS$SDSRCHPTR ENTRY(2) ALTRET;
       40     8365    1   DCL DAS$EDSRCHPTR ENTRY(2) ALTRET;
       41     8366    1   DCL DAS$IC2PED ENTRY(2) ALTRET;
       42     8367    1   DCL DBB$EDIT ENTRY (2) ALTRET;
       43     8368        %INCLUDE XUF_ENTRY;
       44     8376        /**/
       45     8377        %PARSE$OUT (NAME=OUT,STCLASS=BASED);
       46     8422        %PARSE$SYM (NAME=SYM,STCLASS=BASED);
       47     8460        %B$EDEF (NAME=B$EDEF,STCLASS="BASED(EDEF$)");
       48     8530        %F_FDS (NAME=FDS,BUF=TTL);
       49     8643    1   DCL 1 TTL STATIC,
       50     8644    1         2 L UBIN BYTE UNAL,
       51     8645    1         2 C CHAR(44);
       52     8646    1   DCL TTLFLG BIT(1) ALIGNED;
       53     8647        %REPORT (NAME=RPT,TITLEADR=TTL);
       54     8713        /**/
       55     8714    1   DCL DB_D# SBIN SYMREF;                  /* FOR DBB$EDIT */
       56     8715    1   DCL DOMAYN REDEF DB_D# SBIN;
       57     8716    1   DCL USER SBIN;
       58     8717    1   DCL DB_U# SBIN SYMREF;                  /* FOR DBB$EDIT */
       59     8718    1   DCL U# REDEF DB_U# SBIN;
       60     8719    1   DCL AFLG BIT(1) ALIGNED;
       61     8720    1   DCL LFLG BIT(1) ALIGNED;
       62     8721    1   DCL PLUGHFLG BIT(1) ALIGNED;
       63     8722    1   DCL OFFSET SBIN;
       64     8723    1   DCL SIZE SBIN;
       65     8724    1   DCL LOCIDX SBIN;
       66     8725    1   DCL SIZEIDX SBIN;
       67     8726    1   DCL ATIDX SBIN;
       68     8727    1   DCL AT UBIN;
       69     8728    1   DCL I SBIN;
       70     8729    1   DCL TEMP SBIN;
       71     8730    1   DCL 1 IP ALIGNED,
       72     8731    1         2 OFFSET UBIN(18) UNAL,
       73     8732    1         2 * UBIN(6) UNAL,
       74     8733    1         2 SID,
PL6.E3A0      #001=DAB$DUMPCMD File=DAB$DUMP.:E05TSI                             TUE 07/29/97 12:37 Page:3
       75     8734    1           3 S UBIN(2) UNAL,
       76     8735    1           3 D UBIN(10) UNAL;
       77     8736    1   DCL IP$ REDEF IP PTR;
       78     8737    1   DCL IPARY(0:0) REDEF IP SBIN;
       79     8738    1   DCL IPRM(0:127) UBIN BASED ALIGNED;
       80     8739    1   DCL LS SBIN;
       81     8740    1   DCL OP$ PTR;
       82     8741    1   DCL 1 OP REDEF OP$,
       83     8742    1         2 OFFSET UBIN(18) UNAL,
       84     8743    1         2 * UBIN(6) UNAL,
       85     8744    1         2 SID BIT(12);
       86     8745    1   DCL 1 LP,                               /* Link Pointer for LLIST command */
       87     8746    1         2 OFFSET UBIN(18) UNAL,
       88     8747    1         2 * UBIN(6) UNAL,
       89     8748    1         2 SID BIT(12);
       90     8749    1   DCL WRD(0:0) SBIN BASED;
       91     8750    1   DCL 1 DESC ALIGNED,
       92     8751    1         2 BOUND UBIN(20) UNAL,
       93     8752    1         2 TYPE0,
       94     8753    1           3 FLAGS BIT(9) UNAL,
       95     8754    1           3 WSR UBIN(3) UNAL,
       96     8755    1         2 TYPE2 REDEF TYPE0,
       97     8756    1           3 FLAGS BIT(3) UNAL,
       98     8757    1           3 WSQ UBIN(9) UNAL,
       99     8758    1         2 TYPE UBIN(4) UNAL,
      100     8759    1         2 BASE UBIN WORD;
      101     8760    1   DCL DA_WSRWSQ(0:7) UBIN BYTE UNAL SYMREF;
      102     8761    1   DCL B$IS$ PTR SYMREF;
      103     8762    1   DCL VA SBIN;
      104     8763    1   DCL IVA SBIN;
      105     8764    1   DCL DB_NXT$ PTR SYMREF;                 /* For DBB$EDIT */
      106     8765    1   DCL FMTN$ REDEF DB_NXT$ PTR;
      107     8766    1   DCL DUMPER EPTR;
      108     8767    1   DCL S# SBIN;
      109     8768    1   DCL W# SBIN;
      110     8769    1   DCL PG$ PTR;
      111     8770    1   DCL VP SBIN;
PL6.E3A0      #001=DAB$DUMPCMD File=DAB$DUMP.:E05TSI                             TUE 07/29/97 12:37 Page:4
      112     8771    1   DCL RA SBIN;
      113     8772    1   DCL REALPT UBIN;
      114     8773    1   DCL RAFLG BIT(1) ALIGNED;
      115     8774    1   DCL PTD$ PTR;
      116     8775    1   DCL 1 WSPTD(0:0) BASED(PTD$),
      117     8776    1         2 PTP UBIN HALF HALIGNED,
      118     8777    1         2 * UBIN HALF HALIGNED;
      119     8778    1   DCL 1 PGT(0:0) BASED,
      120     8779    1         2 PAGE UBIN HALF HALIGNED,
      121     8780    1         2 * UBIN HALF HALIGNED;
      122     8781    1   DCL MPFLG BIT(1) ALIGNED;
      123     8782    1   DCL GOTLP BIT(1) ALIGNED;
      124     8783    1   DCL FORCE SBIN;
      125     8784    1   DCL USR BIT(72);
      126     8785    1   DCL FMT$ PTR;
      127     8786    1   DCL FMTS SBIN;
      128     8787    1   DCL FMT CHAR(FMTS) BASED(FMT$);
      129     8788    1   DCL LOCFMT CHAR(0) CONSTANT INIT('%.2F,.%O');
      130     8789    1   DCL UUFMT CHAR(0) CONSTANT INIT(' USING .%O');
      131     8790    1   DCL USFMT CHAR(0) CONSTANT INIT(' USING %D');
      132     8791    1   DCL FUFMT CHAR(0) CONSTANT INIT(' FOR .%O');
      133     8792    1   DCL FSFMT CHAR(0) CONSTANT INIT(' FOR %D');
      134     8793    1   DCL DOFMT(0:7) CHAR(4) CONSTANT INIT(',MON',' '*3,',ICP',',IDB',',ASL',',USR');
      135     8794    1   DCL WAFMT CHAR(0) CONSTANT INIT(' ASCII');
      136     8795    1   DCL MPFMT CHAR(0) CONSTANT INIT('%/ **** Missing page(s). ****%/');
      137     8796        /**/
      138     8797    1   DCL 1 AUTOBASE BASED(OP$),
      139     8798    1         2 * UBIN HALF HALIGNED,
      140     8799    1         2 CURFRAME BIT(18) HALIGNED,
      141     8800    1         2 MBZ1 UBIN HALF HALIGNED,
      142     8801    1         2 PL6_FLAG UBIN HALF HALIGNED,
      143     8802    1         2 LIMIT_OFFSET UBIN HALF HALIGNED,
      144     8803    1         2 MBZ2 UBIN HALF HALIGNED,
      145     8804    1         2 MBZ3 UBIN;
      146     8805    1   DCL CURFRAME UBIN;
      147     8806    1   DCL NXTFRAME UBIN;
      148     8807    1   DCL FRAMECNT UBIN;
PL6.E3A0      #001=DAB$DUMPCMD File=DAB$DUMP.:E05TSI                             TUE 07/29/97 12:37 Page:5
      149     8808    1   DCL FRAMESIZE UBIN;
      150     8809    1   DCL CALLIC UBIN;
      151     8810    1   DCL EDEF_VEC BIT(72) ALIGNED;
      152     8811    1   DCL IC_VEC BIT(72) ALIGNED;
      153     8812    1   DCL EDEF$ PTR;
      154     8813    1   DCL TH$ PTR;
      155     8814    1   DCL 1 TEXTH BASED(TH$) ALIGNED,
      156     8815    1         2 L UBIN HALF HALIGNED,
      157     8816    1         2 C CHAR(TEXTH.L);
      158     8817    1   DCL 1 AUTOFRAME BASED(OP$),
      159     8818    1         2 RETADR UBIN HALF HALIGNED,
      160     8819    1         2 PREV_FRAME UBIN HALF HALIGNED,
      161     8820    1         2 FRAME_EXT UBIN HALF HALIGNED,
      162     8821    1         2 LANG_IDENT UBIN HALF HALIGNED,
      163     8822    1         2 NEXT_FRAME UBIN HALF HALIGNED,
      164     8823    1         2 ENT_LOC UBIN HALF HALIGNED;
      165     8824    1   DCL BASEFMT CHAR(0) CONSTANT INIT('AUTO SEGMENT BASE:');
      166     8825    1   DCL FRAMEFMT CHAR(0) CONSTANT INIT('Frame %D @.%.18O%S%Q called from %A+.%O');
      167     8826    1   DCL CONFUSEDFMT CHAR(0) CONSTANT INIT('I''M CONFUSED!');
      168     8827    1   DCL REMAINDER CHAR(0) CONSTANT INIT('REMAINDER OF SEGMENT:');
      169     8828        /**/
      170     8829    1   DCL B$MPT$ PTR SYMREF;
      171     8830    1   DCL B$UPT$ PTR SYMREF;
      172     8831    1   DCL B$CGPT$ PTR SYMREF;
      173     8832    1   DCL B$CPGT1$ UBIN SYMREF;
      174     8833    1   DCL B$USRT$ PTR SYMREF;
      175     8834        /**/
      176     8835    1   DCL RESFMT1 CHAR(0) CONSTANT INIT('Virtual Address: .%O (WSQ %D)%40-%\');
      177     8836    1   DCL RESFMT2 CHAR(0) CONSTANT INIT('%\Real Address: .%O%/');
      178     8837    1   DCL RESFMT3 CHAR(0) CONSTANT INIT('%\Unable to resolve real address.%/');
      179     8838        /**/
      180     8839        %SUB NEVER="WHILE('0'B)";
      181     8840        %SUB FOREVER="WHILE('1'B)";
      182     8841        /**/
      183     8842    1   DCL ENT SBIN;
      184     8843        %EQU DUMP=0;
      185     8844        %EQU SSFRAME=1;
PL6.E3A0      #001=DAB$DUMPCMD File=DAB$DUMP.:E05TSI                             TUE 07/29/97 12:37 Page:6
      186     8845        %EQU AUTO=2;
      187     8846        %EQU HISTREG=3;
      188     8847        %EQU RESOLVE=4;
      189     8848        %EQU LLIST=5;
      190     8849        %EQU DFMT=6;
      191     8850        /**/
      192     8851    1   DCL FORMAT CHAR(2048);
      193     8852        %EJECT;
PL6.E3A0      #001=DAB$DUMPCMD File=DAB$DUMP.:E05TSI                             TUE 07/29/97 12:37 Page:7
      194     8853    1           IF TOP.CODE=%DA_DUMP_AUTO THEN ENT=%AUTO;
      195     8854    1           ELSE IF TOP.CODE=%DA_DUMP_SSFRAME THEN ENT=%SSFRAME;
      196     8855    1              ELSE IF TOP.CODE=%DA_DUMP_HISTREG THEN ENT=%HISTREG;
      197     8856    1                 ELSE IF TOP.CODE=%DA_DUMP_LLIST THEN ENT=%LLIST;
      198     8857    1                    ELSE IF TOP.CODE=%DA_DUMP_FMT THEN ENT=%DFMT;
      199     8858    1                       ELSE ENT=%DUMP;
      200     8859    1           GOTO DUMP;
      201     8860    1   DAB$DUMP: ENTRY(TOP);
      202     8861    1           ENT=%DUMP;
      203     8862    1           GOTO DUMP;
      204     8863    1   DAB$SSDUMP: ENTRY(TOP);
      205     8864    1           ENT=%SSFRAME;
      206     8865    1           GOTO DUMP;
      207     8866    1   DAB$HISTREG: ENTRY(TOP);
      208     8867    1           ENT=%HISTREG;
      209     8868    1           GOTO DUMP;
      210     8869    1   DAB$AUTODUMP: ENTRY(TOP);
      211     8870    1           ENT=%AUTO;
      212     8871    1           GOTO DUMP;
      213     8872    1   DAB$RESOLVE: ENTRY(TOP);
      214     8873    1           ENT=%RESOLVE;
      215     8874    1           GOTO DUMP;
      216     8875    1   DAB$LLIST: ENTRY(TOP);
      217     8876    1           ENT=%LLIST;
      218     8877    1           GOTO DUMP;
      219     8878    1   DAB$DFMT: ENTRY(TOP);
      220     8879    1           ENT=%DFMT;
      221     8880
      222     8881    1   DUMP:
      223     8882    1           DOMAYN=0;
      224     8883    1           USER=0;
      225     8884    1           U#=0;
      226     8885    1           AFLG='0'B;
      227     8886    1           LFLG='0'B;
      228     8887    1           PLUGHFLG='0'B;
      229     8888    1           OFFSET=0;
      230     8889    1           SIZE=1024*256;
PL6.E3A0      #001=DAB$DUMPCMD File=DAB$DUMP.:E05TSI                             TUE 07/29/97 12:37 Page:8
      231     8890    1           FMT$=ADDR(FORMAT);
      232     8891    1           USR=VECTOR(NIL);
      233     8892    1           IP$=B$IS$;
      234     8893    1           TTLFLG='0'B;
      235     8894    1           FORCE = -1;
      236     8895    1           LOCIDX=-1;
      237     8896    1           SIZEIDX=-1;
      238     8897    1           ATIDX=-1;
      239     8898    1           AT=0;
      240     8899    1           RPT.EDIT# = ENTADDR(NIL);
      241     8900    1           FMTS=0;
      242     8901    1           DUMPER=ENTADDR(DAB$OCTDUMP);
      243     8902    2           DO I=0 TO TOP.NSUBLKS-1;
      244     8903    3              DO CASE(TOP.SUBLK$(I)->OUT.CODE);
      245     8904    3               CASE(%DA_DUMP_LOC);
      246     8905    3                 IF LOCIDX<0 THEN LOCIDX=I;
      247     8906    3                 ELSE AT=AT+1;
      248     8907    3                 FORMAT=LOCFMT;
      249     8908    3                 FMTS=SIZEC(LOCFMT);
      250     8909    3               CASE(%DA_DUMP_SIZE);
      251     8910    3                 SIZEIDX=I;
      252     8911    3               CASE(%DA_DUMP_AT);
      253     8912    3                 ATIDX=I;
      254     8913    3               CASE (%DA_DUMP_FMTN);
      255     8914    3                 FMTN$ = TOP.SUBLK$(I);
      256     8915    3                 RPT.EDIT# = ENTADDR(DBB$EDIT);
      257     8916    3               CASE(%DA_DUMP_FORUSER);
      258     8917    3                 CALL DAA$VALUE(TOP.SUBLK$(I)->OUT,USER,TEMP);
      259     8918    4                 IF TEMP=8 THEN DO;
      260     8919    4                    U#=-USER;
      261     8920    4                    CALL INSERT(FORMAT,FMTS,,FUFMT);
      262     8921    4                    FMTS=FMTS+SIZEC(FUFMT);
      263     8922    4                    END;
      264     8923    4                 ELSE DO;
      265     8924    4                    U#=USER;
      266     8925    4                    CALL INSERT(FORMAT,FMTS,,FSFMT);
      267     8926    4                    FMTS=FMTS+SIZEC(FSFMT);
PL6.E3A0      #001=DAB$DUMPCMD File=DAB$DUMP.:E05TSI                             TUE 07/29/97 12:37 Page:9
      268     8927    4                    END;
      269     8928    3                 USR=VECTOR(USER);
      270     8929    3               CASE(%DA_DUMP_USEUSER);
      271     8930    3                 DOMAYN=%USERWSR;
      272     8931    3                 CALL DAA$VALUE(TOP.SUBLK$(I)->OUT,USER,TEMP);
      273     8932    4                 IF TEMP=8 THEN DO;
      274     8933    4                    U#=-USER;
      275     8934    4                    CALL INSERT(FORMAT,FMTS,,UUFMT);
      276     8935    4                    FMTS=FMTS+SIZEC(UUFMT);
      277     8936    4                    END;
      278     8937    4                 ELSE DO;
      279     8938    4                    U#=USER;
      280     8939    4                    CALL INSERT(FORMAT,FMTS,,USFMT);
      281     8940    4                    FMTS=FMTS+SIZEC(USFMT);
      282     8941    4                    END;
      283     8942    3                 USR=VECTOR(USER);
      284     8943    3               CASE(%DA_DUMP_DOMAIN);
      285     8944    3                 DOMAYN=TOP.SUBLK$(I)->OUT.SUBLK$(0)->OUT.CODE;
      286     8945    3                 CALL INSERT(FORMAT,FMTS,,DOFMT(DOMAYN));
      287     8946    3                 FMTS=FMTS+SIZEC(DOFMT(0));
      288     8947    3               CASE(%DA_DUMP_ASCII);
      289     8948    3                 AFLG='1'B;
      290     8949    3               CASE(%DA_DUMP_LONG);
      291     8950    3                 LFLG='1'B;
      292     8951    3               CASE (%DA_DUMP_HEX);
      293     8952    3                 DUMPER=ENTADDR(DAB$HEXDUMP);
      294     8953    3               CASE(%DA_DUMP_PLUGH);
      295     8954    3                 PLUGHFLG='1'B;
      296     8955    3               CASE(%DA_DUMP_TITLE);
      297     8956    3                 TTL.L=TOP.SUBLK$(I)->SYM.COUNT;
      298     8957    3                 TTL.C=TOP.SUBLK$(I)->SYM.TEXT;
      299     8958    3                 TTLFLG='1'B;
      300     8959    3               CASE(%DA_DUMP_L66,%DA_DUMP_DPSE,%DA_DUMP_ELS);
      301     8960    3                 FORCE = TOP.SUBLK$(I)->OUT.CODE - %DA_DUMP_L66;
      302     8961    3               END;
      303     8962    2              END;
      304     8963    2           IF AFLG THEN DO;
PL6.E3A0      #001=DAB$DUMPCMD File=DAB$DUMP.:E05TSI                             TUE 07/29/97 12:37 Page:10
      305     8964    2              CALL INSERT(FORMAT,FMTS,,WAFMT);
      306     8965    2              FMTS=FMTS+SIZEC(WAFMT);
      307     8966    2              END;
      308     8967    2           IF DUMPER=ENTADDR(DAB$HEXDUMP) THEN DO;
      309     8968    2              CALL INSERT(FORMAT,FMTS,4,' HEX');
      310     8969    2              FMTS=FMTS+4;
      311     8970    2              END;
      312     8971    1           IF LOCIDX~=-1 THEN
      313     8972    1              CALL DAA$EXP(TOP.SUBLK$(LOCIDX)->OUT.SUBLK$(0)->OUT,IP$,U#,DOMAYN) ALTRET
              8972                       (RET);
      314     8973    1           IF SIZEIDX~=-1 THEN
      315     8974    1              CALL DAA$EXP(TOP.SUBLK$(SIZEIDX)->OUT.SUBLK$(0)->OUT,SIZE,U#,DOMAYN)
              8974                       ALTRET(RET);
      316     8975    1           IF ATIDX~=-1 THEN
      317     8976    1              CALL DAA$EXP(TOP.SUBLK$(ATIDX)->OUT.SUBLK$(0)->OUT,AT,U#,DOMAYN) ALTRET(
              8976                       RET);
      318     8977    1           CALL DAM$GETDESC(IP,OP$,U#,DOMAYN,DESC) ALTRET(RET);
      319     8978    2           DO CASE(DESC.TYPE);
      320     8979    2            CASE(0,1);
      321     8980    2              W#=DA_WSRWSQ(DESC.TYPE0.WSR);
      322     8981    2            CASE(2,3);
      323     8982    2              W#=DESC.TYPE2.WSQ;
      324     8983    2            CASE(ELSE);
      325     8984    2              DA_ANLZERR='040102000000'O;
      326     8985    2              DA_ANLZERR.CODE=%E$DA_BAD_DESC;
      327     8986    2              RETURN;
      328     8987        /*E*    ERROR:   DAB-E$DA_BAD_DESC
      329     8988                MESSAGE: Descriptor of segment to be dumped must be of type 0 - 3.
      330     8989                                                                           */
      331     8990    2            END;
      332     8991    1   LLMORE: VA=DESC.BASE/4+IP.OFFSET;
      333     8992    1           S#=(DESC.BOUND+1)/4-IP.OFFSET;
      334     8993    1           IF S#>SIZE THEN S#=SIZE;
      335     8994    1           ELSE SIZE=S#;
      336     8995    2           IF S#<=0 THEN DO;
      337     8996    2              DA_ANLZERR='040102000000'O;
      338     8997    2              DA_ANLZERR.CODE=%E$DA_NOTHING_DUMPED;
PL6.E3A0      #001=DAB$DUMPCMD File=DAB$DUMP.:E05TSI                             TUE 07/29/97 12:37 Page:11
      339     8998        /*E*    ERROR:   DAB-E$DA_NOTHING_DUMPED
      340     8999                MESSAGE: Nothing to dump
      341     9000                                                                           */
      342     9001    2              RETURN;
      343     9002    2              END;
      344     9003    1           OFFSET=IP.OFFSET;
      345     9004    1           PG$=PINCRW(B$IS$,(DA_NXTWINDOW+DA_WINDOWBASE)*1024);
      346     9005    2           IF NOT TTLFLG AND FMTS>0 THEN DO;
      347     9006    2              CALL X$WRITE(FDS,VECTOR(FMT),
      348     9007    2                VECTOR(IP$),
      349     9008    2                VECTOR(SIZE),
      350     9009    2                USR);
      351     9010    2              TTL.L=FDS.BUFX-1;
      352     9011    2              END;
      353     9012    1           CALL DAF$INIT(RPT);
      354     9013    1           I=MOD(VA,1024);
      355     9014    1           MPFLG='0'B;
      356     9015    2           IF ENT~=%RESOLVE AND ENT~=%DFMT THEN DO;
      357     9016    2              CALL DAF$WRITE(VECTOR(FMT),
      358     9017    2                VECTOR(IP$),
      359     9018    2                VECTOR(SIZE),
      360     9019    2                USR);
      361     9020    2              END;
      362     9021    2           DO CASE(ENT);
      363     9022    2            CASE(%DUMP,%LLIST);
      364     9023    2              IVA = VA;                    /* Stash initial VA for LP compute */
      365     9024    2              GOTLP = '0'B;
      366     9025    3              DO WHILE(S#>0);
      367     9026    3                 TEMP=1024-I;
      368     9027    3                 CALL DAM$VPAGE(VA/1024,DA_NXTWINDOW,U#,W#,1) ALTRET(MISSING);
      369     9028    3                 IF NOT DA_WINDOW.PRESENCE(DA_NXTWINDOW+DA_WINDOWBASE) THEN GOTO
              9028                          MISSING;
      370     9029    4                 IF VA/1024=(IVA+AT)/1024 THEN DO;
      371     9030    4                    LP=BINBIT(PG$->WRD(MOD(IVA+AT,1024)),36);
      372     9031    4                    GOTLP = '1'B;
      373     9032    4                    END;
      374     9033    3                 MPFLG='0'B;
PL6.E3A0      #001=DAB$DUMPCMD File=DAB$DUMP.:E05TSI                             TUE 07/29/97 12:37 Page:12
      375     9034    3                 IF TEMP>S# THEN TEMP=S#;
      376     9035    3                 CALL DUMPER (PG$->WRD(I),TEMP,OFFSET,AFLG,LFLG);
      377     9036    4                 DO NEVER;
      378     9037    5   MISSING:         IF NOT MPFLG THEN DO;
      379     9038    5                       CALL DAF$WRITE(VECTOR(MPFMT));
      380     9039    5                       MPFLG='1'B;
      381     9040    5                       END;
      382     9041    4                    DA_MAPERR='0'B;
      383     9042    4                    END;
      384     9043    3                 VA=VA+TEMP;
      385     9044    3                 S#=S#-TEMP;
      386     9045    3                 OFFSET=OFFSET+TEMP;
      387     9046    3                 I=0;
      388     9047    3                 END;
      389     9048    3              IF ENT=%LLIST AND GOTLP AND IP.SID=LP.SID AND IP.OFFSET~=LP.OFFSET THEN
              9048                       DO;
      390     9049    3                 IP=LP;
      391     9050    3                 GOTO LLMORE;
      392     9051    3                 END;
      393     9052    2            CASE(%DFMT);
      394     9053    2              FORMAT='%4.XXXXXXE%(';
      395     9054    2              CALL BINCHAR (SUBSTR(FORMAT,3,6), IP.OFFSET);
      396     9055    2              I = FMTN$->SYM.COUNT;
      397     9056    2              SUBSTR(FORMAT,12,I)=FMTN$->SYM.TEXT;
      398     9057    2              SUBSTR(FORMAT,12+I,2)='%)';
      399     9058    2              DB_NXT$=ADDR(NIL);
      400     9059    3              DO I=1 TO AT;
      401     9060    3                 CALL DAA$EXP(TOP.SUBLK$(LOCIDX+I)->OUT.SUBLK$(0)->OUT,IPARY(I+2),
      402     9061    3                   U#,DOMAYN) ALTRET(RET);
      403     9062    3                 END;
      404     9063    2              IPARY(2)=-1;
      405     9064    2              IPARY(1)=AT+1;
      406     9065    2              CALL DAF$WRITE (VECTOR(FORMAT), VECTOR(ADDR(IP$)->IPRM),
      407     9066    2                VECTOR(I), VECTOR(I));
      408     9067    2            CASE(%SSFRAME);
      409     9068    2              CALL DAM$VPAGE(VA/1024,DA_NXTWINDOW,U#,W#,1) ALTRET(RET);
      410     9069    2              CALL DAB$SSFRAME(PINCRW(PG$,MOD(VA,1024))->OUT);
PL6.E3A0      #001=DAB$DUMPCMD File=DAB$DUMP.:E05TSI                             TUE 07/29/97 12:37 Page:13
      411     9070    2            CASE(%HISTREG);
      412     9071    2              IF 1024-MOD(VA,1024)<128 THEN I=2;
      413     9072    2              ELSE I=1;
      414     9073    2              CALL DAM$VPAGE(VA/1024,DA_NXTWINDOW,U#,W#,I) ALTRET(MISSING);
      415     9074    2              CALL DAB$HISTORY(PINCRW(PG$,MOD(VA,1024))->OUT,'0'B,,FORCE);
      416     9075    2            CASE(%AUTO);
      417     9076    2              IF DOMAYN=%MONWSR THEN PLUGHFLG='1'B;
      418     9077    2              IF IP.OFFSET~=0 THEN CALL SETERR(%E$DA_NOT_AUTO) ALTRET(RET);
      419     9078        /*E*          ERROR:  DAB-E$DA_NOT_AUTO
      420     9079                      MESSAGE: That's not an AUTO stack.
      421     9080                      MESSAGE1: AUTO stacks always start at the beginning of a segment.
      422     9081        */
      423     9082    2              CALL DAM$MAP(IP$,OP$,U#,DOMAYN) ALTRET(RET);
      424     9083    2              CURFRAME=BITBIN(AUTOBASE.CURFRAME\'777777'O);
      425     9084    2              IF CURFRAME>S# THEN GOTO CONFUSED;
      426     9085    2              CALL DAF$WRITE(VECTOR(BASEFMT));
      427     9086    2              CALL DAB$OCTDUMP(AUTOBASE,SIZEW(AUTOBASE),0,AFLG);
      428     9087    2              FRAMECNT=0;
      429     9088    2              OP$=PINCRW(OP$,SIZEW(AUTOBASE));
      430     9089    3              DO WHILE(OP.OFFSET<=CURFRAME);
      431     9090    3                 FRAMECNT=FRAMECNT+1;
      432     9091    3                 FRAMESIZE=AUTOFRAME.NEXT_FRAME-OP.OFFSET-1;
      433     9092    3                 IF OP.OFFSET+FRAMESIZE>S# THEN GOTO CONFUSED;
      434     9093    3                 IF RPT.PAGELEN.N > 0 AND RPT.PAGELEN.N-RPT.CURLINE < 3
      435     9094    3                 THEN CALL DAF$NEWPAGE;
      436     9095    4                 IF PLUGHFLG THEN DO;
      437     9096    4                    CALLIC=AUTOFRAME.RETADR-1;
      438     9097    4                    I=DA_ALTSYM;
      439     9098    4                    IF DOMAYN=%MONWSR THEN DA_ALTSYM=AUTOFRAME.LANG_IDENT;
      440     9099    4                    CALL DAS$IC2PED(CALLIC,EDEF$) ALTRET(NO_PLUGH);
      441     9100    4                    DA_ALTSYM=I;
      442     9101    4                    CALLIC=CALLIC-B$EDEF.ISADDR;
      443     9102    4                    TH$=PINCRW(DA_DNAME$,B$EDEF.NPOINTER);
      444     9103    4                    EDEF_VEC=VECTOR(TEXTH.C);
      445     9104    4                    IC_VEC=VECTOR(CALLIC);
      446     9105    4                    END;
      447     9106    4                 ELSE DO;
PL6.E3A0      #001=DAB$DUMPCMD File=DAB$DUMP.:E05TSI                             TUE 07/29/97 12:37 Page:14
      448     9107    4   NO_PLUGH:        EDEF_VEC=VECTOR(NIL);
      449     9108    4                    IC_VEC=VECTOR(NIL);
      450     9109    4                    END;
      451     9110    3                 CALL DAF$WRITE(VECTOR(FRAMEFMT),
      452     9111    3                   VECTOR(FRAMECNT),
      453     9112    3                   VECTOR(OP),
      454     9113    3                   EDEF_VEC,
      455     9114    3                   IC_VEC);
      456     9115    3                 CALL DAB$OCTDUMP(AUTOFRAME,FRAMESIZE,0,AFLG);
      457     9116    3                 IF AUTOFRAME.RETADR=0
      458     9117    3                 THEN CALL DAB$HISTORY(AUTOFRAME,'1'B,FRAMESIZE,FORCE);
      459     9118    3                 OP$=PINCRW(OP$,FRAMESIZE);
      460     9119    3                 END;
      461     9120    3              IF OP.OFFSET<S# THEN DO;
      462     9121    4                 DO NEVER;
      463     9122    4   CONFUSED:        CALL DAF$WRITE(VECTOR(CONFUSEDFMT));
      464     9123    4                    END;
      465     9124    3                 CALL DAF$WRITE(VECTOR(REMAINDER));
      466     9125    3                 FRAMESIZE=OP.OFFSET;
      467     9126    3                 CALL DAB$OCTDUMP(AUTOFRAME,S#-FRAMESIZE,FRAMESIZE,AFLG);
      468     9127    3                 END;
      469     9128    2            CASE(%RESOLVE);
      470     9129    3              IF U#>0 THEN DO;
      471     9130    4                 DO I=1 TO DA_MUAIS;
      472     9131    4                    IF U#=B$USRT$->B$USER.SYSID(I) THEN EXIT;
      473     9132    4                    END;
      474     9133    3                 U#=-I;
      475     9134    3                 END;
      476     9135    2              RAFLG='1'B;
      477     9136    2              PG$=ADDR(NIL);
      478     9137    2              VP = VA/1024;
      479     9138    3              IF DA_DUMPFILE THEN DO;
      480     9139    4                 DO CASE(W#);
      481     9140    4                  CASE(%REALWSQ);
      482     9141    4                    RA = VA;
      483     9142    4                  CASE(%MONWSQ);
      484     9143    5                    CALL DAM$MAP(B$MPT$,PG$) WHENALTRETURN DO;
PL6.E3A0      #001=DAB$DUMPCMD File=DAB$DUMP.:E05TSI                             TUE 07/29/97 12:37 Page:15
      485     9144    5                       RAFLG='0'B;
      486     9145    5                       END;
      487     9146    4                  CASE(%USERWSQ);
      488     9147    5                    CALL DAM$MAP(B$UPT$,PG$,U#) WHENALTRETURN DO;
      489     9148    5                       RAFLG='0'B;
      490     9149    5                       END;
      491     9150    4                  CASE(%CGWSQ);
      492     9151    5                    CALL DAM$MAP(B$CGPT$,PG$) WHENALTRETURN DO;
      493     9152    5                       RAFLG='0'B;
      494     9153    5                       END;
      495     9154    4                  CASE(%B_CWSQ1,%B_CWSQ2,%B_CWSQ3,%B_CWSQ4,%B_CWSQ5,%B_CWSQ6,
      496     9155    4                         %B_CWSQ7,%B_CWSQ8,%B_CWSQ9,%B_CWSQ10,%B_CWSQ11,%B_CWSQ12,
      497     9156    4                         %B_CWSQ13,%B_CWSQ14,%B_CWSQ15,%B_CWSQ16);
      498     9157    5                    CALL DAM$MAP(B$CPGT1$+W#-%B_CWSQ1,PG$) WHENALTRETURN DO;
      499     9158    5                       RAFLG='0'B;
      500     9159    5                       END;
      501     9160    4                  CASE(ELSE);
      502     9161    4                    RAFLG='0'B;
      503     9162    4                  END;
      504     9163    3                 END;
      505     9164    3              ELSE DO;
      506     9165    3                 REALPT=0;
      507     9166    4                 IF W#=%USERWSQ THEN DO;
      508     9167    4                    REALPT=B$USRT$->B$USER.PT(-U#);
      509     9168    4                    END;
      510     9169    4                 ELSE DO;
      511     9170    5                    CALL DAM$MAP(B$IS$,PTD$,,,DA_MONISDATA) WHENRETURN DO;
      512     9171    5                       REALPT=WSPTD.PTP(W#);
      513     9172    5                       END;
      514     9173    4                    END;
      515     9174    4                 IF REALPT ~= 0 THEN DO;
      516     9175    4                    IF DA_CPU=%DPS90XA OR DA_CPU=%DPS8000 THEN
      517     9176    4                       REALPT=REALPT*1024;
      518     9177    4                    ELSE
      519     9178    4                       REALPT=REALPT*64;
      520     9179    5                    CALL DAM$CVM(REALPT/1024,DA_MSCPG1) WHENRETURN DO;
      521     9180    5                       PG$=PINCRW(B$IS$,DA_MSCPG1*1024);
PL6.E3A0      #001=DAB$DUMPCMD File=DAB$DUMP.:E05TSI                             TUE 07/29/97 12:37 Page:16
      522     9181    5                       END;
      523     9182    4                    END;
      524     9183    3                 END;
      525     9184    3              IF RAFLG AND PG$ ~= ADDR(NIL) THEN DO;
      526     9185    3                 RA = PG$->PGT.PAGE(VP)*1024+MOD(VA,1024);
      527     9186    3                 END;
      528     9187    2              CALL DAF$WRITE(VECTOR(RESFMT1),VECTOR(VA),VECTOR(W#));
      529     9188    3              IF RAFLG THEN DO;
      530     9189    3                 CALL DAF$WRITE(VECTOR(RESFMT2),VECTOR(RA));
      531     9190    3                 END;
      532     9191    3              ELSE DO;
      533     9192    3                 CALL DAF$WRITE(VECTOR(RESFMT3));
      534     9193    3                 END;
      535     9194    2            END;
      536     9195    1   RET:    RETURN;
      537     9196        %EJECT;
PL6.E3A0      #001=DAB$DUMPCMD File=DAB$DUMP.:E05TSI                             TUE 07/29/97 12:37 Page:17
      538     9197    1   SETERR: PROC(CODE) ALTRET;
      539     9198    2   DCL CODE SBIN;
      540     9199        /**/
      541     9200    2           DA_ANLZERR='040102000000'O;
      542     9201    2           DA_ANLZERR.CODE=CODE;
      543     9202    2           ALTRETURN;
      544     9203    2   END SETERR;
      545     9204    1   END DAB$DUMPCMD;

PL6.E3A0      #001=DAB$DUMPCMD File=DAB$DUMP.:E05TSI                             TUE 07/29/97 12:37 Page:18
--  Include file information  --

   XUF_ENTRY.:E05TOU  cannot be made into a system file and is referenced.
   B$USER.:E05TOU  cannot be made into a system file and is referenced.
   B$OBJECT_C.:E05TOU  is referenced.
   B_STRINGS_C.:E05TOU  is referenced.
   B_SEGIDS_C.:E05TOU  is referenced.
   DA_FORMAT_C.:E05TOU  is referenced.
   XU_FORMAT_C.:E05TOU  is referenced.
   DA_PERR_C.:E05TOU  is referenced.
   DA_SYMBOLS_R.:E05TOU  cannot be made into a system file and is referenced.
   DA_MAP_R.:E05TOU  cannot be made into a system file and is referenced.
   DA_CMD_C.:E05TOU  is referenced.
   DA_ANLZ_R.:E05TOU  cannot be made into a system file and is referenced.
   XU_MACRO_C.:E05TOU  is referenced.
      No diagnostics issued in procedure DAB$DUMPCMD.

   Procedure DAB$DUMPCMD requires 1281 words for executable code.
   Procedure DAB$DUMPCMD requires 596 words of local(AUTO) storage.

    No errors detected in file DAB$DUMP.:E05TSI    .

PL6.E3A0      #001=DAB$DUMPCMD File=DAB$DUMP.:E05TSI                             TUE 07/29/97 12:37 Page:19

 Object Unit name= DAB$DUMPCMD                                File name= DAB$DUMP.:E05TOU
 UTS= JUL 29 '97 12:37:39.92 TUE                              Compiler= PL-6/E31         Sev=      00
 SharedLib= :SHARED_SYSTEM                                    Alt SharedLib=


    ****  Control sections  ****

 Sect   Type Bound  Init  Size OctSiz  Section name(segment info)
    0   Data  even  none    50     62  DAB$DUMPCMD
    1  RoData even  UTS     85    125  DAB$DUMPCMD
    2   Proc  even  none  1281   2401  DAB$DUMPCMD
    3  RoData even  none    51     63  DAB$DUMPCMD

    ****  Entry defs  ****

                              Check   Calling
                             calling  sequence
  Sect OctLoc Primary Altret sequence   type   Parms  Name
     2      0   yes            yes      Std        1  DAB$DUMPCMD
     2     37                  yes      Std        1  DAB$DUMP
     2     43                  yes      Std        1  DAB$SSDUMP
     2     50                  yes      Std        1  DAB$HISTREG
     2     55                  yes      Std        1  DAB$AUTODUMP
     2     62                  yes      Std        1  DAB$RESOLVE
     2     67                  yes      Std        1  DAB$LLIST
     2     74                  yes      Std        1  DAB$DFMT
PL6.E3A0      #001=DAB$DUMPCMD File=DAB$DUMP.:E05TSI                             TUE 07/29/97 12:37 Page:20

  ****  Entry refs  ****

         Check        Calling
        calling       sequence
Altret sequence SRef   type   Args  Name
         yes           Std       5 DAB$OCTDUMP
         yes           Std       1 DAB$SSFRAME
         yes           Std       4 DAB$HISTORY
 yes     yes           Std       2 DAS$IC2PED
 yes     yes           Std       2 DAM$CVM
 yes     yes           Std       2 DBB$EDIT
 yes     yes           Std       3 DAA$VALUE
         yes           Std       5 DAB$HEXDUMP
         yes           Std       0 DAF$NEWPAGE
 yes     yes           Std       5 DAM$GETDESC
         yes           Std      22 X$WRITE
 yes     yes           Std       5 DAM$VPAGE
 yes     yes           Std       4 DAA$EXP
 yes     yes           Std       5 DAM$MAP
 yes     yes           Std       1 DAF$INIT
                       nStd      0 X66_AUTO_1
                       Std       0 B_CONSPOOL_D
                       nStd      0 X66_ARET

  ****  Data refs  ****

  Flags:  r = read only, s = secondary
Flgs Name                             Flgs Name                             Flgs Name
     DA_ANLZERR                            DA_WINDOW                             DA_MUAIS
     DA_CPU                                DA_WINDOWBASE                         DA_NXTWINDOW
     DA_DUMPFILE                           DA_MONISDATA                          DA_MSCPG1
     DA_MAPERR                             DA_DNAME$                             DA_ALTSYM
     DAF$WRITE                             DB_D#                                 DB_U#
     DA_WSRWSQ                             B$IS$                                 DB_NXT$
     B$MPT$                                B$UPT$                                B$CGPT$
     B$CPGT1$                              B$USRT$                               B_VECTNIL
PL6.E3A0      #001=DAB$DUMPCMD File=DAB$DUMP.:E05TSI                             TUE 07/29/97 12:37 Page:21

  ****  Segment refs  ****

  Flags:  r = read only, s = secondary
Flgs Name                             Flgs Name                             Flgs Name
     NULLSID                               ISSID
PL6.E3A0      #001=DAB$DUMPCMD File=DAB$DUMP.:E05TSI                             TUE 07/29/97 12:37 Page:22


        1        1        /*M* DAB$DUMP - ANLZ DUMP COMMAND */
        2        2        /*T***********************************************************/
        3        3        /*T*                                                         */
        4        4        /*T* Copyright (c) Bull HN Information Systems Inc., 1997    */
        5        5        /*T*                                                         */
        6        6        /*T***********************************************************/
        7        7        /*X* DMR */
        8        8        DAB$DUMPCMD: PROC(TOP);

      8  2 000000   000000 700200 xent  DAB$DUMPCMD  TSX0  ! X66_AUTO_1
         2 000001   001124 000001                    ZERO    596,1

        9        9        %INCLUDE XU_MACRO_C;
       10     3115        %PARSE$OUT (NAME=TOP,STCLASS="");
       11     3160        /**/
       12     3161        %INCLUDE DA_ANLZ_R;
       13     3174        %INCLUDE DA_CMD_C;
       14     3523        %INCLUDE DA_MAP_R;
       15     3553        %INCLUDE DA_SYMBOLS_R;
       16     3566        %INCLUDE DA_PERR_C;
       17     3630        %INCLUDE XU_FORMAT_C;
       18     3792        %INCLUDE DA_FORMAT_C;
       19     4034        %INCLUDE B_SEGIDS_C;
       20     4573        %INCLUDE B_STRINGS_C;
       21     4702        %INCLUDE B$OBJECT_C;
       22     8132        %INCLUDE B$USER;
       23     8348        /**/
       24     8349    1   DCL DAA$VALUE ENTRY(3) ALTRET;
       25     8350    1   DCL DAA$LOC ENTRY(2) ALTRET;
       26     8351    1   DCL DAA$EXP ENTRY(4) ALTRET;
       27     8352    1   DCL DAM$CVM ENTRY(2) ALTRET;
       28     8353    1   DCL DAM$GETDESC ENTRY(5) ALTRET;
       29     8354    1   DCL DAM$MAP ENTRY(5) ALTRET;
       30     8355    1   DCL DAM$VPAGE ENTRY(5) ALTRET;
       31     8356    1   DCL DAM$FREEM ENTRY;
       32     8357    1   DCL DAB$OCTDUMP ENTRY(5);
PL6.E3A0      #001=DAB$DUMPCMD File=DAB$DUMP.:E05TSI                             TUE 07/29/97 12:37 Page:23
       33     8358    1   DCL DAB$HEXDUMP ENTRY(5);
       34     8359    1   DCL DAB$SSFRAME ENTRY(1);
       35     8360    1   DCL DAB$HISTORY ENTRY(4);
       36     8361    1   DCL DAF$INIT ENTRY(1) ALTRET;
       37     8362    1   DCL DAF$NEWPAGE ENTRY;
       38     8363    1   DCL DAF$WRITE EPTR SYMREF;
       39     8364    1   DCL DAS$SDSRCHPTR ENTRY(2) ALTRET;
       40     8365    1   DCL DAS$EDSRCHPTR ENTRY(2) ALTRET;
       41     8366    1   DCL DAS$IC2PED ENTRY(2) ALTRET;
       42     8367    1   DCL DBB$EDIT ENTRY (2) ALTRET;
       43     8368        %INCLUDE XUF_ENTRY;
       44     8376        /**/
       45     8377        %PARSE$OUT (NAME=OUT,STCLASS=BASED);
       46     8422        %PARSE$SYM (NAME=SYM,STCLASS=BASED);
       47     8460        %B$EDEF (NAME=B$EDEF,STCLASS="BASED(EDEF$)");
       48     8530        %F_FDS (NAME=FDS,BUF=TTL);
       49     8643    1   DCL 1 TTL STATIC,
       50     8644    1         2 L UBIN BYTE UNAL,
       51     8645    1         2 C CHAR(44);
       52     8646    1   DCL TTLFLG BIT(1) ALIGNED;
       53     8647        %REPORT (NAME=RPT,TITLEADR=TTL);
       54     8713        /**/
       55     8714    1   DCL DB_D# SBIN SYMREF;                  /* FOR DBB$EDIT */
       56     8715    1   DCL DOMAYN REDEF DB_D# SBIN;
       57     8716    1   DCL USER SBIN;
       58     8717    1   DCL DB_U# SBIN SYMREF;                  /* FOR DBB$EDIT */
       59     8718    1   DCL U# REDEF DB_U# SBIN;
       60     8719    1   DCL AFLG BIT(1) ALIGNED;
       61     8720    1   DCL LFLG BIT(1) ALIGNED;
       62     8721    1   DCL PLUGHFLG BIT(1) ALIGNED;
       63     8722    1   DCL OFFSET SBIN;
       64     8723    1   DCL SIZE SBIN;
       65     8724    1   DCL LOCIDX SBIN;
       66     8725    1   DCL SIZEIDX SBIN;
       67     8726    1   DCL ATIDX SBIN;
       68     8727    1   DCL AT UBIN;
       69     8728    1   DCL I SBIN;
PL6.E3A0      #001=DAB$DUMPCMD File=DAB$DUMP.:E05TSI                             TUE 07/29/97 12:37 Page:24
       70     8729    1   DCL TEMP SBIN;
       71     8730    1   DCL 1 IP ALIGNED,
       72     8731    1         2 OFFSET UBIN(18) UNAL,
       73     8732    1         2 * UBIN(6) UNAL,
       74     8733    1         2 SID,
       75     8734    1           3 S UBIN(2) UNAL,
       76     8735    1           3 D UBIN(10) UNAL;
       77     8736    1   DCL IP$ REDEF IP PTR;
       78     8737    1   DCL IPARY(0:0) REDEF IP SBIN;
       79     8738    1   DCL IPRM(0:127) UBIN BASED ALIGNED;
       80     8739    1   DCL LS SBIN;
       81     8740    1   DCL OP$ PTR;
       82     8741    1   DCL 1 OP REDEF OP$,
       83     8742    1         2 OFFSET UBIN(18) UNAL,
       84     8743    1         2 * UBIN(6) UNAL,
       85     8744    1         2 SID BIT(12);
       86     8745    1   DCL 1 LP,                               /* Link Pointer for LLIST command */
       87     8746    1         2 OFFSET UBIN(18) UNAL,
       88     8747    1         2 * UBIN(6) UNAL,
       89     8748    1         2 SID BIT(12);
       90     8749    1   DCL WRD(0:0) SBIN BASED;
       91     8750    1   DCL 1 DESC ALIGNED,
       92     8751    1         2 BOUND UBIN(20) UNAL,
       93     8752    1         2 TYPE0,
       94     8753    1           3 FLAGS BIT(9) UNAL,
       95     8754    1           3 WSR UBIN(3) UNAL,
       96     8755    1         2 TYPE2 REDEF TYPE0,
       97     8756    1           3 FLAGS BIT(3) UNAL,
       98     8757    1           3 WSQ UBIN(9) UNAL,
       99     8758    1         2 TYPE UBIN(4) UNAL,
      100     8759    1         2 BASE UBIN WORD;
      101     8760    1   DCL DA_WSRWSQ(0:7) UBIN BYTE UNAL SYMREF;
      102     8761    1   DCL B$IS$ PTR SYMREF;
      103     8762    1   DCL VA SBIN;
      104     8763    1   DCL IVA SBIN;
      105     8764    1   DCL DB_NXT$ PTR SYMREF;                 /* For DBB$EDIT */
      106     8765    1   DCL FMTN$ REDEF DB_NXT$ PTR;
PL6.E3A0      #001=DAB$DUMPCMD File=DAB$DUMP.:E05TSI                             TUE 07/29/97 12:37 Page:25
      107     8766    1   DCL DUMPER EPTR;
      108     8767    1   DCL S# SBIN;
      109     8768    1   DCL W# SBIN;
      110     8769    1   DCL PG$ PTR;
      111     8770    1   DCL VP SBIN;
      112     8771    1   DCL RA SBIN;
      113     8772    1   DCL REALPT UBIN;
      114     8773    1   DCL RAFLG BIT(1) ALIGNED;
      115     8774    1   DCL PTD$ PTR;
      116     8775    1   DCL 1 WSPTD(0:0) BASED(PTD$),
      117     8776    1         2 PTP UBIN HALF HALIGNED,
      118     8777    1         2 * UBIN HALF HALIGNED;
      119     8778    1   DCL 1 PGT(0:0) BASED,
      120     8779    1         2 PAGE UBIN HALF HALIGNED,
      121     8780    1         2 * UBIN HALF HALIGNED;
      122     8781    1   DCL MPFLG BIT(1) ALIGNED;
      123     8782    1   DCL GOTLP BIT(1) ALIGNED;
      124     8783    1   DCL FORCE SBIN;
      125     8784    1   DCL USR BIT(72);
      126     8785    1   DCL FMT$ PTR;
      127     8786    1   DCL FMTS SBIN;
      128     8787    1   DCL FMT CHAR(FMTS) BASED(FMT$);
      129     8788    1   DCL LOCFMT CHAR(0) CONSTANT INIT('%.2F,.%O');
      130     8789    1   DCL UUFMT CHAR(0) CONSTANT INIT(' USING .%O');
      131     8790    1   DCL USFMT CHAR(0) CONSTANT INIT(' USING %D');
      132     8791    1   DCL FUFMT CHAR(0) CONSTANT INIT(' FOR .%O');
      133     8792    1   DCL FSFMT CHAR(0) CONSTANT INIT(' FOR %D');
      134     8793    1   DCL DOFMT(0:7) CHAR(4) CONSTANT INIT(',MON',' '*3,',ICP',',IDB',',ASL',',USR');
      135     8794    1   DCL WAFMT CHAR(0) CONSTANT INIT(' ASCII');
      136     8795    1   DCL MPFMT CHAR(0) CONSTANT INIT('%/ **** Missing page(s). ****%/');
      137     8796        /**/
      138     8797    1   DCL 1 AUTOBASE BASED(OP$),
      139     8798    1         2 * UBIN HALF HALIGNED,
      140     8799    1         2 CURFRAME BIT(18) HALIGNED,
      141     8800    1         2 MBZ1 UBIN HALF HALIGNED,
      142     8801    1         2 PL6_FLAG UBIN HALF HALIGNED,
      143     8802    1         2 LIMIT_OFFSET UBIN HALF HALIGNED,
PL6.E3A0      #001=DAB$DUMPCMD File=DAB$DUMP.:E05TSI                             TUE 07/29/97 12:37 Page:26
      144     8803    1         2 MBZ2 UBIN HALF HALIGNED,
      145     8804    1         2 MBZ3 UBIN;
      146     8805    1   DCL CURFRAME UBIN;
      147     8806    1   DCL NXTFRAME UBIN;
      148     8807    1   DCL FRAMECNT UBIN;
      149     8808    1   DCL FRAMESIZE UBIN;
      150     8809    1   DCL CALLIC UBIN;
      151     8810    1   DCL EDEF_VEC BIT(72) ALIGNED;
      152     8811    1   DCL IC_VEC BIT(72) ALIGNED;
      153     8812    1   DCL EDEF$ PTR;
      154     8813    1   DCL TH$ PTR;
      155     8814    1   DCL 1 TEXTH BASED(TH$) ALIGNED,
      156     8815    1         2 L UBIN HALF HALIGNED,
      157     8816    1         2 C CHAR(TEXTH.L);
      158     8817    1   DCL 1 AUTOFRAME BASED(OP$),
      159     8818    1         2 RETADR UBIN HALF HALIGNED,
      160     8819    1         2 PREV_FRAME UBIN HALF HALIGNED,
      161     8820    1         2 FRAME_EXT UBIN HALF HALIGNED,
      162     8821    1         2 LANG_IDENT UBIN HALF HALIGNED,
      163     8822    1         2 NEXT_FRAME UBIN HALF HALIGNED,
      164     8823    1         2 ENT_LOC UBIN HALF HALIGNED;
      165     8824    1   DCL BASEFMT CHAR(0) CONSTANT INIT('AUTO SEGMENT BASE:');
      166     8825    1   DCL FRAMEFMT CHAR(0) CONSTANT INIT('Frame %D @.%.18O%S%Q called from %A+.%O');
      167     8826    1   DCL CONFUSEDFMT CHAR(0) CONSTANT INIT('I''M CONFUSED!');
      168     8827    1   DCL REMAINDER CHAR(0) CONSTANT INIT('REMAINDER OF SEGMENT:');
      169     8828        /**/
      170     8829    1   DCL B$MPT$ PTR SYMREF;
      171     8830    1   DCL B$UPT$ PTR SYMREF;
      172     8831    1   DCL B$CGPT$ PTR SYMREF;
      173     8832    1   DCL B$CPGT1$ UBIN SYMREF;
      174     8833    1   DCL B$USRT$ PTR SYMREF;
      175     8834        /**/
      176     8835    1   DCL RESFMT1 CHAR(0) CONSTANT INIT('Virtual Address: .%O (WSQ %D)%40-%\');
      177     8836    1   DCL RESFMT2 CHAR(0) CONSTANT INIT('%\Real Address: .%O%/');
      178     8837    1   DCL RESFMT3 CHAR(0) CONSTANT INIT('%\Unable to resolve real address.%/');
      179     8838        /**/
      180     8839        %SUB NEVER="WHILE('0'B)";
PL6.E3A0      #001=DAB$DUMPCMD File=DAB$DUMP.:E05TSI                             TUE 07/29/97 12:37 Page:27
      181     8840        %SUB FOREVER="WHILE('1'B)";
      182     8841        /**/
      183     8842    1   DCL ENT SBIN;
      184     8843        %EQU DUMP=0;
      185     8844        %EQU SSFRAME=1;
      186     8845        %EQU AUTO=2;
      187     8846        %EQU HISTREG=3;
      188     8847        %EQU RESOLVE=4;
      189     8848        %EQU LLIST=5;
      190     8849        %EQU DFMT=6;
      191     8850        /**/
      192     8851    1   DCL FORMAT CHAR(2048);
      193     8852        %EJECT;
PL6.E3A0      #001=DAB$DUMPCMD File=DAB$DUMP.:E05TSI                             TUE 07/29/97 12:37 Page:28
      194     8853    1           IF TOP.CODE=%DA_DUMP_AUTO THEN ENT=%AUTO;

   8853  2 000002   200003 470500                    LDP0    @TOP,,AUTO
         2 000003   000000 720100                    LXL0    0,,PR0
         2 000004   000002 100003                    CMPX0   2,DU
         2 000005   000011 601000 2                  TNZ     s:8854

   8853  2 000006   000002 235007                    LDA     2,DL
         2 000007   200064 755100                    STA     ENT,,AUTO
         2 000010   000036 710000 2                  TRA     s:8859

      195     8854    1           ELSE IF TOP.CODE=%DA_DUMP_SSFRAME THEN ENT=%SSFRAME;

   8854  2 000011   000001 100003                    CMPX0   1,DU
         2 000012   000016 601000 2                  TNZ     s:8855

   8854  2 000013   000001 235007                    LDA     1,DL
         2 000014   200064 755100                    STA     ENT,,AUTO
         2 000015   000036 710000 2                  TRA     s:8859

      196     8855    1              ELSE IF TOP.CODE=%DA_DUMP_HISTREG THEN ENT=%HISTREG;

   8855  2 000016   000003 100003                    CMPX0   3,DU
         2 000017   000023 601000 2                  TNZ     s:8856

   8855  2 000020   000003 235007                    LDA     3,DL
         2 000021   200064 755100                    STA     ENT,,AUTO
         2 000022   000036 710000 2                  TRA     s:8859

      197     8856    1                 ELSE IF TOP.CODE=%DA_DUMP_LLIST THEN ENT=%LLIST;

   8856  2 000023   000005 100003                    CMPX0   5,DU
         2 000024   000030 601000 2                  TNZ     s:8857

   8856  2 000025   000005 235007                    LDA     5,DL
         2 000026   200064 755100                    STA     ENT,,AUTO
         2 000027   000036 710000 2                  TRA     s:8859
PL6.E3A0      #001=DAB$DUMPCMD File=DAB$DUMP.:E05TSI                             TUE 07/29/97 12:37 Page:29

      198     8857    1                    ELSE IF TOP.CODE=%DA_DUMP_FMT THEN ENT=%DFMT;

   8857  2 000030   000006 100003                    CMPX0   6,DU
         2 000031   000035 601000 2                  TNZ     s:8858

   8857  2 000032   000006 235007                    LDA     6,DL
         2 000033   200064 755100                    STA     ENT,,AUTO
         2 000034   000036 710000 2                  TRA     s:8859

      199     8858    1                       ELSE ENT=%DUMP;

   8858  2 000035   200064 450100                    STZ     ENT,,AUTO

      200     8859    1           GOTO DUMP;

   8859  2 000036   000100 710000 2                  TRA     DUMP

      201     8860    1   DAB$DUMP: ENTRY(TOP);

   8860  2 000037   000000 700200 xent  DAB$DUMP     TSX0  ! X66_AUTO_1
         2 000040   001124 000001                    ZERO    596,1

      202     8861    1           ENT=%DUMP;

   8861  2 000041   200064 450100                    STZ     ENT,,AUTO

      203     8862    1           GOTO DUMP;

   8862  2 000042   000100 710000 2                  TRA     DUMP

      204     8863    1   DAB$SSDUMP: ENTRY(TOP);

   8863  2 000043   000000 700200 xent  DAB$SSDUMP   TSX0  ! X66_AUTO_1
         2 000044   001124 000001                    ZERO    596,1

      205     8864    1           ENT=%SSFRAME;
PL6.E3A0      #001=DAB$DUMPCMD File=DAB$DUMP.:E05TSI                             TUE 07/29/97 12:37 Page:30

   8864  2 000045   000001 235007                    LDA     1,DL
         2 000046   200064 755100                    STA     ENT,,AUTO

      206     8865    1           GOTO DUMP;

   8865  2 000047   000100 710000 2                  TRA     DUMP

      207     8866    1   DAB$HISTREG: ENTRY(TOP);

   8866  2 000050   000000 700200 xent  DAB$HISTREG  TSX0  ! X66_AUTO_1
         2 000051   001124 000001                    ZERO    596,1

      208     8867    1           ENT=%HISTREG;

   8867  2 000052   000003 235007                    LDA     3,DL
         2 000053   200064 755100                    STA     ENT,,AUTO

      209     8868    1           GOTO DUMP;

   8868  2 000054   000100 710000 2                  TRA     DUMP

      210     8869    1   DAB$AUTODUMP: ENTRY(TOP);

   8869  2 000055   000000 700200 xent  DAB$AUTODUMP TSX0  ! X66_AUTO_1
         2 000056   001124 000001                    ZERO    596,1

      211     8870    1           ENT=%AUTO;

   8870  2 000057   000002 235007                    LDA     2,DL
         2 000060   200064 755100                    STA     ENT,,AUTO

      212     8871    1           GOTO DUMP;

   8871  2 000061   000100 710000 2                  TRA     DUMP

      213     8872    1   DAB$RESOLVE: ENTRY(TOP);
PL6.E3A0      #001=DAB$DUMPCMD File=DAB$DUMP.:E05TSI                             TUE 07/29/97 12:37 Page:31

   8872  2 000062   000000 700200 xent  DAB$RESOLVE  TSX0  ! X66_AUTO_1
         2 000063   001124 000001                    ZERO    596,1

      214     8873    1           ENT=%RESOLVE;

   8873  2 000064   000004 235007                    LDA     4,DL
         2 000065   200064 755100                    STA     ENT,,AUTO

      215     8874    1           GOTO DUMP;

   8874  2 000066   000100 710000 2                  TRA     DUMP

      216     8875    1   DAB$LLIST: ENTRY(TOP);

   8875  2 000067   000000 700200 xent  DAB$LLIST    TSX0  ! X66_AUTO_1
         2 000070   001124 000001                    ZERO    596,1

      217     8876    1           ENT=%LLIST;

   8876  2 000071   000005 235007                    LDA     5,DL
         2 000072   200064 755100                    STA     ENT,,AUTO

      218     8877    1           GOTO DUMP;

   8877  2 000073   000100 710000 2                  TRA     DUMP

      219     8878    1   DAB$DFMT: ENTRY(TOP);

   8878  2 000074   000000 700200 xent  DAB$DFMT     TSX0  ! X66_AUTO_1
         2 000075   001124 000001                    ZERO    596,1

      220     8879    1           ENT=%DFMT;

   8879  2 000076   000006 235007                    LDA     6,DL
         2 000077   200064 755100                    STA     ENT,,AUTO

PL6.E3A0      #001=DAB$DUMPCMD File=DAB$DUMP.:E05TSI                             TUE 07/29/97 12:37 Page:32
      221     8880
      222     8881    1   DUMP:
      223     8882    1           DOMAYN=0;

   8882  2 000100   000000 450000 xsym  DUMP         STZ     DB_D#

      224     8883    1           USER=0;

   8883  2 000101   200005 450100                    STZ     USER,,AUTO

      225     8884    1           U#=0;

   8884  2 000102   000000 450000 xsym               STZ     DB_U#

      226     8885    1           AFLG='0'B;

   8885  2 000103   200006 450100                    STZ     AFLG,,AUTO

      227     8886    1           LFLG='0'B;

   8886  2 000104   200007 450100                    STZ     LFLG,,AUTO

      228     8887    1           PLUGHFLG='0'B;

   8887  2 000105   200010 450100                    STZ     PLUGHFLG,,AUTO

      229     8888    1           OFFSET=0;

   8888  2 000106   200011 450100                    STZ     OFFSET,,AUTO

      230     8889    1           SIZE=1024*256;

   8889  2 000107   000001 235003                    LDA     1,DU
         2 000110   200012 755100                    STA     SIZE,,AUTO

      231     8890    1           FMT$=ADDR(FORMAT);

PL6.E3A0      #001=DAB$DUMPCMD File=DAB$DUMP.:E05TSI                             TUE 07/29/97 12:37 Page:33
   8890  2 000111   200065 630500                    EPPR0   FORMAT,,AUTO
         2 000112   200047 450500                    STP0    FMT$,,AUTO

      232     8891    1           USR=VECTOR(NIL);

   8891  2 000113   000000 237000 3                  LDAQ    0
         2 000114   200045 755100                    STA     USR,,AUTO
         2 000115   200046 756100                    STQ     USR+1,,AUTO

      233     8892    1           IP$=B$IS$;

   8892  2 000116   000000 236000 xsym               LDQ     B$IS$
         2 000117   200021 756100                    STQ     IP,,AUTO

      234     8893    1           TTLFLG='0'B;

   8893  2 000120   200004 450100                    STZ     TTLFLG,,AUTO

      235     8894    1           FORCE = -1;

   8894  2 000121   000001 335007                    LCA     1,DL
         2 000122   200044 755100                    STA     FORCE,,AUTO

      236     8895    1           LOCIDX=-1;

   8895  2 000123   200013 755100                    STA     LOCIDX,,AUTO

      237     8896    1           SIZEIDX=-1;

   8896  2 000124   200014 755100                    STA     SIZEIDX,,AUTO

      238     8897    1           ATIDX=-1;

   8897  2 000125   200015 755100                    STA     ATIDX,,AUTO

      239     8898    1           AT=0;

PL6.E3A0      #001=DAB$DUMPCMD File=DAB$DUMP.:E05TSI                             TUE 07/29/97 12:37 Page:34
   8898  2 000126   200016 450100                    STZ     AT,,AUTO

      240     8899    1           RPT.EDIT# = ENTADDR(NIL);

   8899  2 000127   000002 236000 xsym               LDQ     B_VECTNIL+2
         2 000130   000056 756000 0                  STQ     RPT+4

      241     8900    1           FMTS=0;

   8900  2 000131   200050 450100                    STZ     FMTS,,AUTO

      242     8901    1           DUMPER=ENTADDR(DAB$OCTDUMP);

   8901  2 000132   000000 636000 xent               EAQ     DAB$OCTDUMP
         2 000133   200031 756100                    STQ     DUMPER,,AUTO

      243     8902    2           DO I=0 TO TOP.NSUBLKS-1;

   8902  2 000134   200017 450100                    STZ     I,,AUTO
         2 000135   000424 710000 2                  TRA     s:8962+1

      244     8903    3              DO CASE(TOP.SUBLK$(I)->OUT.CODE);

   8903  2 000136   200003 470500                    LDP0    @TOP,,AUTO
         2 000137   200017 720100                    LXL0    I,,AUTO
         2 000140   000003 471510                    LDP1    3,X0,PR0
         2 000141   100000 721100                    LXL1    0,,PR1
         2 000142   000022 101003                    CMPX1   18,DU
         2 000143   000145 602011 2                  TNC     s:8903+7,X1
         2 000144   000423 710000 2                  TRA     s:8962
         2 000145   000423 710000 2                  TRA     s:8962
         2 000146   000167 710000 2                  TRA     s:8905
         2 000147   000423 710000 2                  TRA     s:8962
         2 000150   000423 710000 2                  TRA     s:8962
         2 000151   000205 710000 2                  TRA     s:8910
         2 000152   000220 710000 2                  TRA     s:8917
         2 000153   000272 710000 2                  TRA     s:8930
PL6.E3A0      #001=DAB$DUMPCMD File=DAB$DUMP.:E05TSI                             TUE 07/29/97 12:37 Page:35
         2 000154   000347 710000 2                  TRA     s:8944
         2 000155   000367 710000 2                  TRA     s:8948
         2 000156   000403 710000 2                  TRA     s:8956
         2 000157   000400 710000 2                  TRA     s:8954
         2 000160   000417 710000 2                  TRA     s:8960
         2 000161   000417 710000 2                  TRA     s:8960
         2 000162   000417 710000 2                  TRA     s:8960
         2 000163   000372 710000 2                  TRA     s:8950
         2 000164   000210 710000 2                  TRA     s:8912
         2 000165   000213 710000 2                  TRA     s:8914
         2 000166   000375 710000 2                  TRA     s:8952

      245     8904    3               CASE(%DA_DUMP_LOC);

      246     8905    3                 IF LOCIDX<0 THEN LOCIDX=I;

   8905  2 000167   200013 235100                    LDA     LOCIDX,,AUTO
         2 000170   000174 605000 2                  TPL     s:8906

   8905  2 000171   200017 236100                    LDQ     I,,AUTO
         2 000172   200013 756100                    STQ     LOCIDX,,AUTO
         2 000173   000177 710000 2                  TRA     s:8907

      247     8906    3                 ELSE AT=AT+1;

   8906  2 000174   200016 236100                    LDQ     AT,,AUTO
         2 000175   000001 036007                    ADLQ    1,DL
         2 000176   200016 756100                    STQ     AT,,AUTO

      248     8907    3                 FORMAT=LOCFMT;

   8907  2 000177   040100 100400                    MLR     fill='040'O
         2 000200   000000 000010 1                  ADSC9   LOCFMT                   cn=0,n=8
         2 000201   200065 004000                    ADSC9   FORMAT,,AUTO             cn=0,n=2048

      249     8908    3                 FMTS=SIZEC(LOCFMT);

PL6.E3A0      #001=DAB$DUMPCMD File=DAB$DUMP.:E05TSI                             TUE 07/29/97 12:37 Page:36
   8908  2 000202   000010 235007                    LDA     8,DL
         2 000203   200050 755100                    STA     FMTS,,AUTO
         2 000204   000423 710000 2                  TRA     s:8962

      250     8909    3               CASE(%DA_DUMP_SIZE);

      251     8910    3                 SIZEIDX=I;

   8910  2 000205   200017 235100                    LDA     I,,AUTO
         2 000206   200014 755100                    STA     SIZEIDX,,AUTO
         2 000207   000423 710000 2                  TRA     s:8962

      252     8911    3               CASE(%DA_DUMP_AT);

      253     8912    3                 ATIDX=I;

   8912  2 000210   200017 235100                    LDA     I,,AUTO
         2 000211   200015 755100                    STA     ATIDX,,AUTO
         2 000212   000423 710000 2                  TRA     s:8962

      254     8913    3               CASE (%DA_DUMP_FMTN);

      255     8914    3                 FMTN$ = TOP.SUBLK$(I);

   8914  2 000213   000003 236110                    LDQ     3,X0,PR0
         2 000214   000000 756000 xsym               STQ     DB_NXT$

      256     8915    3                 RPT.EDIT# = ENTADDR(DBB$EDIT);

   8915  2 000215   000000 636000 xent               EAQ     DBB$EDIT
         2 000216   000056 756000 0                  STQ     RPT+4
         2 000217   000423 710000 2                  TRA     s:8962

      257     8916    3               CASE(%DA_DUMP_FORUSER);

      258     8917    3                 CALL DAA$VALUE(TOP.SUBLK$(I)->OUT,USER,TEMP);

PL6.E3A0      #001=DAB$DUMPCMD File=DAB$DUMP.:E05TSI                             TUE 07/29/97 12:37 Page:37
   8917  2 000220   200020 633500                    EPPR3   TEMP,,AUTO
         2 000221   201072 453500                    STP3    @CODE+3,,AUTO
         2 000222   200005 634500                    EPPR4   USER,,AUTO
         2 000223   201071 454500                    STP4    @CODE+2,,AUTO
         2 000224   201070 451500                    STP1    @CODE+1,,AUTO
         2 000225   201070 630500                    EPPR0   @CODE+1,,AUTO
         2 000226   000021 631400 xsym               EPPR1   B_VECTNIL+17
         2 000227   000000 701000 xent               TSX1    DAA$VALUE
         2 000230   000000 011000                    NOP     0

      259     8918    4                 IF TEMP=8 THEN DO;

   8918  2 000231   200020 235100                    LDA     TEMP,,AUTO
         2 000232   000010 115007                    CMPA    8,DL
         2 000233   000250 601000 2                  TNZ     s:8924

      260     8919    4                    U#=-USER;

   8919  2 000234   200005 336100                    LCQ     USER,,AUTO
         2 000235   000000 756000 xsym               STQ     DB_U#

      261     8920    4                    CALL INSERT(FORMAT,FMTS,,FUFMT);

   8920  2 000236   200050 720100                    LXL0    FMTS,,AUTO
         2 000237   773777 620010                    EAX0    -2049,X0
         2 000240   777777 660003                    ERX0    -1,DU
         2 000241   200050 235100                    LDA     FMTS,,AUTO
         2 000242   040145 100400                    MLR     fill='040'O
         2 000243   000010 000010 1                  ADSC9   FUFMT                    cn=0,n=8
         2 000244   200065 000010                    ADSC9   FORMAT,A,AUTO            cn=0,n=*X0

      262     8921    4                    FMTS=FMTS+SIZEC(FUFMT);

   8921  2 000245   000010 236007                    LDQ     8,DL
         2 000246   200050 056100                    ASQ     FMTS,,AUTO

      263     8922    4                    END;
PL6.E3A0      #001=DAB$DUMPCMD File=DAB$DUMP.:E05TSI                             TUE 07/29/97 12:37 Page:38

   8922  2 000247   000263 710000 2                  TRA     s:8928

      264     8923    4                 ELSE DO;

      265     8924    4                    U#=USER;

   8924  2 000250   200005 236100                    LDQ     USER,,AUTO
         2 000251   000000 756000 xsym               STQ     DB_U#

      266     8925    4                    CALL INSERT(FORMAT,FMTS,,FSFMT);

   8925  2 000252   200050 720100                    LXL0    FMTS,,AUTO
         2 000253   773777 620010                    EAX0    -2049,X0
         2 000254   777777 660003                    ERX0    -1,DU
         2 000255   200050 235100                    LDA     FMTS,,AUTO
         2 000256   040145 100400                    MLR     fill='040'O
         2 000257   000012 000007 1                  ADSC9   FSFMT                    cn=0,n=7
         2 000260   200065 000010                    ADSC9   FORMAT,A,AUTO            cn=0,n=*X0

      267     8926    4                    FMTS=FMTS+SIZEC(FSFMT);

   8926  2 000261   000007 236007                    LDQ     7,DL
         2 000262   200050 056100                    ASQ     FMTS,,AUTO

      268     8927    4                    END;

      269     8928    3                 USR=VECTOR(USER);

   8928  2 000263   777640 235007                    LDA     -96,DL
         2 000264   201070 452500                    STP2    @CODE+1,,AUTO
         2 000265   201070 236100                    LDQ     @CODE+1,,AUTO
         2 000266   000005 036003                    ADLQ    5,DU
         2 000267   200045 755100                    STA     USR,,AUTO
         2 000270   200046 756100                    STQ     USR+1,,AUTO
         2 000271   000423 710000 2                  TRA     s:8962

PL6.E3A0      #001=DAB$DUMPCMD File=DAB$DUMP.:E05TSI                             TUE 07/29/97 12:37 Page:39
      270     8929    3               CASE(%DA_DUMP_USEUSER);

      271     8930    3                 DOMAYN=%USERWSR;

   8930  2 000272   000007 235007                    LDA     7,DL
         2 000273   000000 755000 xsym               STA     DB_D#

      272     8931    3                 CALL DAA$VALUE(TOP.SUBLK$(I)->OUT,USER,TEMP);

   8931  2 000274   000003 471510                    LDP1    3,X0,PR0
         2 000275   200020 633500                    EPPR3   TEMP,,AUTO
         2 000276   201072 453500                    STP3    @CODE+3,,AUTO
         2 000277   200005 634500                    EPPR4   USER,,AUTO
         2 000300   201071 454500                    STP4    @CODE+2,,AUTO
         2 000301   201070 451500                    STP1    @CODE+1,,AUTO
         2 000302   201070 630500                    EPPR0   @CODE+1,,AUTO
         2 000303   000021 631400 xsym               EPPR1   B_VECTNIL+17
         2 000304   000000 701000 xent               TSX1    DAA$VALUE
         2 000305   000000 011000                    NOP     0

      273     8932    4                 IF TEMP=8 THEN DO;

   8932  2 000306   200020 235100                    LDA     TEMP,,AUTO
         2 000307   000010 115007                    CMPA    8,DL
         2 000310   000325 601000 2                  TNZ     s:8938

      274     8933    4                    U#=-USER;

   8933  2 000311   200005 336100                    LCQ     USER,,AUTO
         2 000312   000000 756000 xsym               STQ     DB_U#

      275     8934    4                    CALL INSERT(FORMAT,FMTS,,UUFMT);

   8934  2 000313   200050 720100                    LXL0    FMTS,,AUTO
         2 000314   773777 620010                    EAX0    -2049,X0
         2 000315   777777 660003                    ERX0    -1,DU
         2 000316   200050 235100                    LDA     FMTS,,AUTO
PL6.E3A0      #001=DAB$DUMPCMD File=DAB$DUMP.:E05TSI                             TUE 07/29/97 12:37 Page:40
         2 000317   040145 100400                    MLR     fill='040'O
         2 000320   000002 000012 1                  ADSC9   UUFMT                    cn=0,n=10
         2 000321   200065 000010                    ADSC9   FORMAT,A,AUTO            cn=0,n=*X0

      276     8935    4                    FMTS=FMTS+SIZEC(UUFMT);

   8935  2 000322   000012 236007                    LDQ     10,DL
         2 000323   200050 056100                    ASQ     FMTS,,AUTO

      277     8936    4                    END;

   8936  2 000324   000340 710000 2                  TRA     s:8942

      278     8937    4                 ELSE DO;

      279     8938    4                    U#=USER;

   8938  2 000325   200005 236100                    LDQ     USER,,AUTO
         2 000326   000000 756000 xsym               STQ     DB_U#

      280     8939    4                    CALL INSERT(FORMAT,FMTS,,USFMT);

   8939  2 000327   200050 720100                    LXL0    FMTS,,AUTO
         2 000330   773777 620010                    EAX0    -2049,X0
         2 000331   777777 660003                    ERX0    -1,DU
         2 000332   200050 235100                    LDA     FMTS,,AUTO
         2 000333   040145 100400                    MLR     fill='040'O
         2 000334   000005 000011 1                  ADSC9   USFMT                    cn=0,n=9
         2 000335   200065 000010                    ADSC9   FORMAT,A,AUTO            cn=0,n=*X0

      281     8940    4                    FMTS=FMTS+SIZEC(USFMT);

   8940  2 000336   000011 236007                    LDQ     9,DL
         2 000337   200050 056100                    ASQ     FMTS,,AUTO

      282     8941    4                    END;

PL6.E3A0      #001=DAB$DUMPCMD File=DAB$DUMP.:E05TSI                             TUE 07/29/97 12:37 Page:41
      283     8942    3                 USR=VECTOR(USER);

   8942  2 000340   777640 235007                    LDA     -96,DL
         2 000341   201070 452500                    STP2    @CODE+1,,AUTO
         2 000342   201070 236100                    LDQ     @CODE+1,,AUTO
         2 000343   000005 036003                    ADLQ    5,DU
         2 000344   200045 755100                    STA     USR,,AUTO
         2 000345   200046 756100                    STQ     USR+1,,AUTO
         2 000346   000423 710000 2                  TRA     s:8962

      284     8943    3               CASE(%DA_DUMP_DOMAIN);

      285     8944    3                 DOMAYN=TOP.SUBLK$(I)->OUT.SUBLK$(0)->OUT.CODE;

   8944  2 000347   100003 473500                    LDP3    3,,PR1
         2 000350   300000 236100                    LDQ     0,,PR3
         2 000351   777777 376007                    ANQ     -1,DL
         2 000352   000000 756000 xsym               STQ     DB_D#

      286     8945    3                 CALL INSERT(FORMAT,FMTS,,DOFMT(DOMAYN));

   8945  2 000353   000000 235000 xsym               LDA     DB_D#
         2 000354   000002 735000                    ALS     2
         2 000355   200050 721100                    LXL1    FMTS,,AUTO
         2 000356   773777 621011                    EAX1    -2049,X1
         2 000357   777777 661003                    ERX1    -1,DU
         2 000360   200050 236100                    LDQ     FMTS,,AUTO
         2 000361   040146 100405                    MLR     fill='040'O
         2 000362   000014 000004 1                  ADSC9   DOFMT,A                  cn=0,n=4
         2 000363   200065 000011                    ADSC9   FORMAT,Q,AUTO            cn=0,n=*X1

      287     8946    3                 FMTS=FMTS+SIZEC(DOFMT(0));

   8946  2 000364   000004 236007                    LDQ     4,DL
         2 000365   200050 056100                    ASQ     FMTS,,AUTO
         2 000366   000423 710000 2                  TRA     s:8962

PL6.E3A0      #001=DAB$DUMPCMD File=DAB$DUMP.:E05TSI                             TUE 07/29/97 12:37 Page:42
      288     8947    3               CASE(%DA_DUMP_ASCII);

      289     8948    3                 AFLG='1'B;

   8948  2 000367   400000 236003                    LDQ     -131072,DU
         2 000370   200006 756100                    STQ     AFLG,,AUTO
         2 000371   000423 710000 2                  TRA     s:8962

      290     8949    3               CASE(%DA_DUMP_LONG);

      291     8950    3                 LFLG='1'B;

   8950  2 000372   400000 236003                    LDQ     -131072,DU
         2 000373   200007 756100                    STQ     LFLG,,AUTO
         2 000374   000423 710000 2                  TRA     s:8962

      292     8951    3               CASE (%DA_DUMP_HEX);

      293     8952    3                 DUMPER=ENTADDR(DAB$HEXDUMP);

   8952  2 000375   000000 636000 xent               EAQ     DAB$HEXDUMP
         2 000376   200031 756100                    STQ     DUMPER,,AUTO
         2 000377   000423 710000 2                  TRA     s:8962

      294     8953    3               CASE(%DA_DUMP_PLUGH);

      295     8954    3                 PLUGHFLG='1'B;

   8954  2 000400   400000 236003                    LDQ     -131072,DU
         2 000401   200010 756100                    STQ     PLUGHFLG,,AUTO
         2 000402   000423 710000 2                  TRA     s:8962

      296     8955    3               CASE(%DA_DUMP_TITLE);

      297     8956    3                 TTL.L=TOP.SUBLK$(I)->SYM.COUNT;

   8956  2 000403   100004 236100                    LDQ     4,,PR1
PL6.E3A0      #001=DAB$DUMPCMD File=DAB$DUMP.:E05TSI                             TUE 07/29/97 12:37 Page:43
         2 000404   000036 552040 0                  STBQ    TTL,'40'O

      298     8957    3                 TTL.C=TOP.SUBLK$(I)->SYM.TEXT;

   8957  2 000405   000003 471510                    LDP1    3,X0,PR0
         2 000406   100004 236100                    LDQ     4,,PR1
         2 000407   000033 772000                    QRL     27
         2 000410   000000 621006                    EAX1    0,QL
         2 000411   040000 100540                    MLR     fill='040'O
         2 000412   100004 200011                    ADSC9   4,,PR1                   cn=1,n=*X1
         2 000413   000036 200054 0                  ADSC9   TTL                      cn=1,n=44

      299     8958    3                 TTLFLG='1'B;

   8958  2 000414   400000 236003                    LDQ     -131072,DU
         2 000415   200004 756100                    STQ     TTLFLG,,AUTO
         2 000416   000423 710000 2                  TRA     s:8962

      300     8959    3               CASE(%DA_DUMP_L66,%DA_DUMP_DPSE,%DA_DUMP_ELS);

      301     8960    3                 FORCE = TOP.SUBLK$(I)->OUT.CODE - %DA_DUMP_L66;

   8960  2 000417   100000 236100                    LDQ     0,,PR1
         2 000420   777777 376007                    ANQ     -1,DL
         2 000421   000013 136007                    SBLQ    11,DL
         2 000422   200044 756100                    STQ     FORCE,,AUTO

      302     8961    3               END;

      303     8962    2              END;

   8962  2 000423   200017 054100                    AOS     I,,AUTO
         2 000424   200003 470500                    LDP0    @TOP,,AUTO
         2 000425   000001 236100                    LDQ     1,,PR0
         2 000426   000022 772000                    QRL     18
         2 000427   200017 116100                    CMPQ    I,,AUTO
         2 000430   000136 605400 2                  TPNZ    s:8903
PL6.E3A0      #001=DAB$DUMPCMD File=DAB$DUMP.:E05TSI                             TUE 07/29/97 12:37 Page:44

      304     8963    2           IF AFLG THEN DO;

   8963  2 000431   200006 234100                    SZN     AFLG,,AUTO
         2 000432   000444 605000 2                  TPL     s:8967

      305     8964    2              CALL INSERT(FORMAT,FMTS,,WAFMT);

   8964  2 000433   200050 720100                    LXL0    FMTS,,AUTO
         2 000434   773777 620010                    EAX0    -2049,X0
         2 000435   777777 660003                    ERX0    -1,DU
         2 000436   200050 235100                    LDA     FMTS,,AUTO
         2 000437   040145 100400                    MLR     fill='040'O
         2 000440   000024 000006 1                  ADSC9   WAFMT                    cn=0,n=6
         2 000441   200065 000010                    ADSC9   FORMAT,A,AUTO            cn=0,n=*X0

      306     8965    2              FMTS=FMTS+SIZEC(WAFMT);

   8965  2 000442   000006 236007                    LDQ     6,DL
         2 000443   200050 056100                    ASQ     FMTS,,AUTO

      307     8966    2              END;

      308     8967    2           IF DUMPER=ENTADDR(DAB$HEXDUMP) THEN DO;

   8967  2 000444   000000 636000 xent               EAQ     DAB$HEXDUMP
         2 000445   200031 116100                    CMPQ    DUMPER,,AUTO
         2 000446   000455 601000 2                  TNZ     s:8971

      309     8968    2              CALL INSERT(FORMAT,FMTS,4,' HEX');

   8968  2 000447   200050 235100                    LDA     FMTS,,AUTO
         2 000450   040105 100400                    MLR     fill='040'O
         2 000451   000117 000004 1                  ADSC9   RESFMT3+9                cn=0,n=4
         2 000452   200065 000004                    ADSC9   FORMAT,A,AUTO            cn=0,n=4

      310     8969    2              FMTS=FMTS+4;
PL6.E3A0      #001=DAB$DUMPCMD File=DAB$DUMP.:E05TSI                             TUE 07/29/97 12:37 Page:45

   8969  2 000453   000004 236007                    LDQ     4,DL
         2 000454   200050 056100                    ASQ     FMTS,,AUTO

      311     8970    2              END;

      312     8971    1           IF LOCIDX~=-1 THEN

   8971  2 000455   200013 235100                    LDA     LOCIDX,,AUTO
         2 000456   000027 115000 xsym               CMPA    B_VECTNIL+23
         2 000457   000473 600000 2                  TZE     s:8973

      313     8972    1             CALL DAA$EXP(TOP.SUBLK$(LOCIDX)->OUT.SUBLK$(0)->OUT,IP$,U#,DOMAYN) ALTRET
              8972                       (RET);

   8972  2 000460   000003 471505                    LDP1    3,AL,PR0
         2 000461   100003 473500                    LDP3    3,,PR1
         2 000462   000002 237000 3                  LDAQ    2
         2 000463   201072 757100                    STAQ    @CODE+3,,AUTO
         2 000464   200021 631500                    EPPR1   IP,,AUTO
         2 000465   201071 451500                    STP1    @CODE+2,,AUTO
         2 000466   201070 453500                    STP3    @CODE+1,,AUTO
         2 000467   201070 630500                    EPPR0   @CODE+1,,AUTO
         2 000470   000022 631400 xsym               EPPR1   B_VECTNIL+18
         2 000471   000000 701000 xent               TSX1    DAA$EXP
         2 000472   002366 702000 2                  TSX2    RET

      314     8973    1           IF SIZEIDX~=-1 THEN

   8973  2 000473   200014 235100                    LDA     SIZEIDX,,AUTO
         2 000474   000027 115000 xsym               CMPA    B_VECTNIL+23
         2 000475   000512 600000 2                  TZE     s:8975

      315     8974    1              CALL DAA$EXP(TOP.SUBLK$(SIZEIDX)->OUT.SUBLK$(0)->OUT,SIZE,U#,DOMAYN)
              8974                       ALTRET(RET);

   8974  2 000476   200003 470500                    LDP0    @TOP,,AUTO
PL6.E3A0      #001=DAB$DUMPCMD File=DAB$DUMP.:E05TSI                             TUE 07/29/97 12:37 Page:46
         2 000477   000003 471505                    LDP1    3,AL,PR0
         2 000500   100003 473500                    LDP3    3,,PR1
         2 000501   000002 237000 3                  LDAQ    2
         2 000502   201072 757100                    STAQ    @CODE+3,,AUTO
         2 000503   200012 631500                    EPPR1   SIZE,,AUTO
         2 000504   201071 451500                    STP1    @CODE+2,,AUTO
         2 000505   201070 453500                    STP3    @CODE+1,,AUTO
         2 000506   201070 630500                    EPPR0   @CODE+1,,AUTO
         2 000507   000022 631400 xsym               EPPR1   B_VECTNIL+18
         2 000510   000000 701000 xent               TSX1    DAA$EXP
         2 000511   002366 702000 2                  TSX2    RET

      316     8975    1           IF ATIDX~=-1 THEN

   8975  2 000512   200015 235100                    LDA     ATIDX,,AUTO
         2 000513   000027 115000 xsym               CMPA    B_VECTNIL+23
         2 000514   000531 600000 2                  TZE     s:8977

      317     8976    1              CALL DAA$EXP(TOP.SUBLK$(ATIDX)->OUT.SUBLK$(0)->OUT,AT,U#,DOMAYN) ALTRET(
              8976                       RET);

   8976  2 000515   200003 470500                    LDP0    @TOP,,AUTO
         2 000516   000003 471505                    LDP1    3,AL,PR0
         2 000517   100003 473500                    LDP3    3,,PR1
         2 000520   000002 237000 3                  LDAQ    2
         2 000521   201072 757100                    STAQ    @CODE+3,,AUTO
         2 000522   200016 631500                    EPPR1   AT,,AUTO
         2 000523   201071 451500                    STP1    @CODE+2,,AUTO
         2 000524   201070 453500                    STP3    @CODE+1,,AUTO
         2 000525   201070 630500                    EPPR0   @CODE+1,,AUTO
         2 000526   000022 631400 xsym               EPPR1   B_VECTNIL+18
         2 000527   000000 701000 xent               TSX1    DAA$EXP
         2 000530   002366 702000 2                  TSX2    RET

      318     8977    1           CALL DAM$GETDESC(IP,OP$,U#,DOMAYN,DESC) ALTRET(RET);

   8977  2 000531   200025 630500                    EPPR0   DESC,,AUTO
PL6.E3A0      #001=DAB$DUMPCMD File=DAB$DUMP.:E05TSI                             TUE 07/29/97 12:37 Page:47
         2 000532   201074 450500                    STP0    @CODE+5,,AUTO
         2 000533   000002 237000 3                  LDAQ    2
         2 000534   201072 757100                    STAQ    @CODE+3,,AUTO
         2 000535   200023 631500                    EPPR1   OP$,,AUTO
         2 000536   201071 451500                    STP1    @CODE+2,,AUTO
         2 000537   200021 633500                    EPPR3   IP,,AUTO
         2 000540   201070 453500                    STP3    @CODE+1,,AUTO
         2 000541   201070 630500                    EPPR0   @CODE+1,,AUTO
         2 000542   000023 631400 xsym               EPPR1   B_VECTNIL+19
         2 000543   000000 701000 xent               TSX1    DAM$GETDESC
         2 000544   002366 702000 2                  TSX2    RET

      319     8978    2           DO CASE(DESC.TYPE);

   8978  2 000545   200025 720100                    LXL0    DESC,,AUTO
         2 000546   000017 360003                    ANX0    15,DU
         2 000547   000004 100003                    CMPX0   4,DU
         2 000550   000552 602010 2                  TNC     s:8978+5,X0
         2 000551   000572 710000 2                  TRA     s:8984
         2 000552   000556 710000 2                  TRA     s:8980
         2 000553   000556 710000 2                  TRA     s:8980
         2 000554   000565 710000 2                  TRA     s:8982
         2 000555   000565 710000 2                  TRA     s:8982

      320     8979    2            CASE(0,1);

      321     8980    2              W#=DA_WSRWSQ(DESC.TYPE0.WSR);

   8980  2 000556   200025 236100                    LDQ     DESC,,AUTO
         2 000557   000004 772000                    QRL     4
         2 000560   000007 376007                    ANQ     7,DL
         2 000561   000100 101406                    MRL     fill='000'O
         2 000562   000000 000001 xsym               ADSC9   DA_WSRWSQ,Q              cn=0,n=1
         2 000563   200033 000004                    ADSC9   W#,,AUTO                 cn=0,n=4
         2 000564   000600 710000 2                  TRA     LLMORE

      322     8981    2            CASE(2,3);
PL6.E3A0      #001=DAB$DUMPCMD File=DAB$DUMP.:E05TSI                             TUE 07/29/97 12:37 Page:48

      323     8982    2              W#=DESC.TYPE2.WSQ;

   8982  2 000565   200025 236100                    LDQ     DESC,,AUTO
         2 000566   000004 772000                    QRL     4
         2 000567   000777 376007                    ANQ     511,DL
         2 000570   200033 756100                    STQ     W#,,AUTO
         2 000571   000600 710000 2                  TRA     LLMORE

      324     8983    2            CASE(ELSE);

      325     8984    2              DA_ANLZERR='040102000000'O;

   8984  2 000572   000120 236000 1                  LDQ     RESFMT3+10
         2 000573   000000 756000 xsym               STQ     DA_ANLZERR

      326     8985    2              DA_ANLZERR.CODE=%E$DA_BAD_DESC;

   8985  2 000574   000004 376000 3                  ANQ     4
         2 000575   001610 276007                    ORQ     904,DL
         2 000576   000000 756000 xsym               STQ     DA_ANLZERR

      327     8986    2              RETURN;

   8986  2 000577   000000 702200 xent               TSX2  ! X66_ARET

      328     8987        /*E*    ERROR:   DAB-E$DA_BAD_DESC
      329     8988                MESSAGE: Descriptor of segment to be dumped must be of type 0 - 3.
      330     8989                                                                           */
      331     8990    2            END;

      332     8991    1   LLMORE: VA=DESC.BASE/4+IP.OFFSET;

   8991  2 000600   200026 236100       LLMORE       LDQ     DESC+1,,AUTO
         2 000601   000002 772000                    QRL     2
         2 000602   200021 235100                    LDA     IP,,AUTO
         2 000603   000022 771000                    ARL     18
PL6.E3A0      #001=DAB$DUMPCMD File=DAB$DUMP.:E05TSI                             TUE 07/29/97 12:37 Page:49
         2 000604   201070 755100                    STA     @CODE+1,,AUTO
         2 000605   201070 036100                    ADLQ    @CODE+1,,AUTO
         2 000606   200027 756100                    STQ     VA,,AUTO

      333     8992    1           S#=(DESC.BOUND+1)/4-IP.OFFSET;

   8992  2 000607   200025 236100                    LDQ     DESC,,AUTO
         2 000610   000020 772000                    QRL     16
         2 000611   000001 036007                    ADLQ    1,DL
         2 000612   000002 772000                    QRL     2
         2 000613   201070 755100                    STA     @CODE+1,,AUTO
         2 000614   201070 136100                    SBLQ    @CODE+1,,AUTO
         2 000615   200032 756100                    STQ     S#,,AUTO

      334     8993    1           IF S#>SIZE THEN S#=SIZE;

   8993  2 000616   200012 116100                    CMPQ    SIZE,,AUTO
         2 000617   000623 604400 2                  TMOZ    s:8994

   8993  2 000620   200012 235100                    LDA     SIZE,,AUTO
         2 000621   200032 755100                    STA     S#,,AUTO
         2 000622   000624 710000 2                  TRA     s:8995

      335     8994    1           ELSE SIZE=S#;

   8994  2 000623   200012 756100                    STQ     SIZE,,AUTO

      336     8995    2           IF S#<=0 THEN DO;

   8995  2 000624   200032 235100                    LDA     S#,,AUTO
         2 000625   000634 605400 2                  TPNZ    s:9003

      337     8996    2              DA_ANLZERR='040102000000'O;

   8996  2 000626   000120 236000 1                  LDQ     RESFMT3+10
         2 000627   000000 756000 xsym               STQ     DA_ANLZERR

PL6.E3A0      #001=DAB$DUMPCMD File=DAB$DUMP.:E05TSI                             TUE 07/29/97 12:37 Page:50
      338     8997    2              DA_ANLZERR.CODE=%E$DA_NOTHING_DUMPED;

   8997  2 000630   000004 376000 3                  ANQ     4
         2 000631   004620 276007                    ORQ     2448,DL
         2 000632   000000 756000 xsym               STQ     DA_ANLZERR

      339     8998        /*E*    ERROR:   DAB-E$DA_NOTHING_DUMPED
      340     8999                MESSAGE: Nothing to dump
      341     9000                                                                           */
      342     9001    2              RETURN;

   9001  2 000633   000000 702200 xent               TSX2  ! X66_ARET

      343     9002    2              END;
      344     9003    1           OFFSET=IP.OFFSET;

   9003  2 000634   200021 236100                    LDQ     IP,,AUTO
         2 000635   000022 772000                    QRL     18
         2 000636   200011 756100                    STQ     OFFSET,,AUTO

      345     9004    1           PG$=PINCRW(B$IS$,(DA_NXTWINDOW+DA_WINDOWBASE)*1024);

   9004  2 000637   000000 236000 xsym               LDQ     DA_NXTWINDOW
         2 000640   000000 036000 xsym               ADLQ    DA_WINDOWBASE
         2 000641   000034 736000                    QLS     28
         2 000642   000000 036000 xsym               ADLQ    B$IS$
         2 000643   200034 756100                    STQ     PG$,,AUTO

      346     9005    2           IF NOT TTLFLG AND FMTS>0 THEN DO;

   9005  2 000644   200004 234100                    SZN     TTLFLG,,AUTO
         2 000645   000716 604000 2                  TMI     s:9012
         2 000646   200050 235100                    LDA     FMTS,,AUTO
         2 000647   000716 604400 2                  TMOZ    s:9012

      347     9006    2              CALL X$WRITE(FDS,VECTOR(FMT),

PL6.E3A0      #001=DAB$DUMPCMD File=DAB$DUMP.:E05TSI                             TUE 07/29/97 12:37 Page:51
   9006  2 000650   000020 735000                    ALS     16
         2 000651   000140 135007                    SBLA    96,DL
         2 000652   200047 236100                    LDQ     FMT$,,AUTO
         2 000653   201070 757100                    STAQ    @CODE+1,,AUTO
         2 000654   777640 235007                    LDA     -96,DL
         2 000655   201072 452500                    STP2    @CODE+3,,AUTO
         2 000656   201072 236100                    LDQ     @CODE+3,,AUTO
         2 000657   000021 036003                    ADLQ    17,DU
         2 000660   201074 757100                    STAQ    @CODE+5,,AUTO
         2 000661   777640 235007                    LDA     -96,DL
         2 000662   201076 452500                    STP2    @CODE+7,,AUTO
         2 000663   201076 236100                    LDQ     @CODE+7,,AUTO
         2 000664   000012 036003                    ADLQ    10,DU
         2 000665   201102 757100                    STAQ    @CODE+11,,AUTO
         2 000666   201070 237100                    LDAQ    @CODE+1,,AUTO
         2 000667   201100 757100                    STAQ    @CODE+9,,AUTO
         2 000670   201074 237100                    LDAQ    @CODE+5,,AUTO
         2 000671   201104 757100                    STAQ    @CODE+13,,AUTO
         2 000672   201102 237100                    LDAQ    @CODE+11,,AUTO
         2 000673   201106 757100                    STAQ    @CODE+15,,AUTO
         2 000674   200045 630500                    EPPR0   USR,,AUTO
         2 000675   201114 450500                    STP0    @CODE+21,,AUTO
         2 000676   201106 631500                    EPPR1   @CODE+15,,AUTO
         2 000677   201113 451500                    STP1    @CODE+20,,AUTO
         2 000700   201104 633500                    EPPR3   @CODE+13,,AUTO
         2 000701   201112 453500                    STP3    @CODE+19,,AUTO
         2 000702   201100 634500                    EPPR4   @CODE+9,,AUTO
         2 000703   201111 454500                    STP4    @CODE+18,,AUTO
         2 000704   000005 236000 3                  LDQ     5
         2 000705   201110 756100                    STQ     @CODE+17,,AUTO
         2 000706   201110 630500                    EPPR0   @CODE+17,,AUTO
         2 000707   000023 631400 xsym               EPPR1   B_VECTNIL+19
         2 000710   000000 701000 xent               TSX1    X$WRITE
         2 000711   000000 011000                    NOP     0

      348     9007    2                VECTOR(IP$),
      349     9008    2                VECTOR(SIZE),
PL6.E3A0      #001=DAB$DUMPCMD File=DAB$DUMP.:E05TSI                             TUE 07/29/97 12:37 Page:52
      350     9009    2                USR);
      351     9010    2              TTL.L=FDS.BUFX-1;

   9010  2 000712   000007 236000 0                  LDQ     FDS+7
         2 000713   000001 136007                    SBLQ    1,DL
         2 000714   000033 736000                    QLS     27
         2 000715   000036 552040 0                  STBQ    TTL,'40'O

      352     9011    2              END;

      353     9012    1           CALL DAF$INIT(RPT);

   9012  2 000716   000006 630400 3                  EPPR0   6
         2 000717   000017 631400 xsym               EPPR1   B_VECTNIL+15
         2 000720   000000 701000 xent               TSX1    DAF$INIT
         2 000721   000000 011000                    NOP     0

      354     9013    1           I=MOD(VA,1024);

   9013  2 000722   200027 236100                    LDQ     VA,,AUTO
         2 000723   002000 506007                    DIV     1024,DL
         2 000724   200017 755100                    STA     I,,AUTO

      355     9014    1           MPFLG='0'B;

   9014  2 000725   200042 450100                    STZ     MPFLG,,AUTO

      356     9015    2           IF ENT~=%RESOLVE AND ENT~=%DFMT THEN DO;

   9015  2 000726   200064 236100                    LDQ     ENT,,AUTO
         2 000727   000004 116007                    CMPQ    4,DL
         2 000730   000775 600000 2                  TZE     s:9021
         2 000731   000006 116007                    CMPQ    6,DL
         2 000732   000775 600000 2                  TZE     s:9021

      357     9016    2              CALL DAF$WRITE(VECTOR(FMT),

PL6.E3A0      #001=DAB$DUMPCMD File=DAB$DUMP.:E05TSI                             TUE 07/29/97 12:37 Page:53
   9016  2 000733   200050 235100                    LDA     FMTS,,AUTO
         2 000734   000020 735000                    ALS     16
         2 000735   000140 135007                    SBLA    96,DL
         2 000736   200047 236100                    LDQ     FMT$,,AUTO
         2 000737   201070 757100                    STAQ    @CODE+1,,AUTO
         2 000740   777640 235007                    LDA     -96,DL
         2 000741   201072 452500                    STP2    @CODE+3,,AUTO
         2 000742   201072 236100                    LDQ     @CODE+3,,AUTO
         2 000743   000021 036003                    ADLQ    17,DU
         2 000744   201074 757100                    STAQ    @CODE+5,,AUTO
         2 000745   777640 235007                    LDA     -96,DL
         2 000746   201076 452500                    STP2    @CODE+7,,AUTO
         2 000747   201076 236100                    LDQ     @CODE+7,,AUTO
         2 000750   000012 036003                    ADLQ    10,DU
         2 000751   201102 757100                    STAQ    @CODE+11,,AUTO
         2 000752   201070 237100                    LDAQ    @CODE+1,,AUTO
         2 000753   201100 757100                    STAQ    @CODE+9,,AUTO
         2 000754   201074 237100                    LDAQ    @CODE+5,,AUTO
         2 000755   201104 757100                    STAQ    @CODE+13,,AUTO
         2 000756   201102 237100                    LDAQ    @CODE+11,,AUTO
         2 000757   201106 757100                    STAQ    @CODE+15,,AUTO
         2 000760   200045 630500                    EPPR0   USR,,AUTO
         2 000761   201113 450500                    STP0    @CODE+20,,AUTO
         2 000762   201106 631500                    EPPR1   @CODE+15,,AUTO
         2 000763   201112 451500                    STP1    @CODE+19,,AUTO
         2 000764   201104 633500                    EPPR3   @CODE+13,,AUTO
         2 000765   201111 453500                    STP3    @CODE+18,,AUTO
         2 000766   201100 634500                    EPPR4   @CODE+9,,AUTO
         2 000767   201110 454500                    STP4    @CODE+17,,AUTO
         2 000770   201110 630500                    EPPR0   @CODE+17,,AUTO
         2 000771   000000 220000 xsym               LDX0    DAF$WRITE
         2 000772   000022 631400 xsym               EPPR1   B_VECTNIL+18
         2 000773   000000 701010                    TSX1    0,X0
         2 000774   000000 011000                    NOP     0

      358     9017    2                VECTOR(IP$),
      359     9018    2                VECTOR(SIZE),
PL6.E3A0      #001=DAB$DUMPCMD File=DAB$DUMP.:E05TSI                             TUE 07/29/97 12:37 Page:54
      360     9019    2                USR);
      361     9020    2              END;

      362     9021    2           DO CASE(ENT);

   9021  2 000775   200064 235100                    LDA     ENT,,AUTO
         2 000776   000007 115007                    CMPA    7,DL
         2 000777   001001 602005 2                  TNC     s:9021+4,AL
         2 001000   002366 710000 2                  TRA     RET
         2 001001   001010 710000 2                  TRA     s:9023
         2 001002   001320 710000 2                  TRA     s:9068
         2 001003   001424 710000 2                  TRA     s:9076
         2 001004   001352 710000 2                  TRA     s:9071
         2 001005   002007 710000 2                  TRA     s:9129
         2 001006   001010 710000 2                  TRA     s:9023
         2 001007   001160 710000 2                  TRA     s:9053

      363     9022    2            CASE(%DUMP,%LLIST);

      364     9023    2              IVA = VA;                    /* Stash initial VA for LP compute */

   9023  2 001010   200027 236100                    LDQ     VA,,AUTO
         2 001011   200030 756100                    STQ     IVA,,AUTO

      365     9024    2              GOTLP = '0'B;

   9024  2 001012   200043 450100                    STZ     GOTLP,,AUTO

      366     9025    3              DO WHILE(S#>0);

   9025  2 001013   200032 235100                    LDA     S#,,AUTO
         2 001014   001141 604400 2                  TMOZ    s:9048

      367     9026    3                 TEMP=1024-I;

   9026  2 001015   002000 235007                    LDA     1024,DL
         2 001016   200017 135100                    SBLA    I,,AUTO
PL6.E3A0      #001=DAB$DUMPCMD File=DAB$DUMP.:E05TSI                             TUE 07/29/97 12:37 Page:55
         2 001017   200020 755100                    STA     TEMP,,AUTO

      368     9027    3                 CALL DAM$VPAGE(VA/1024,DA_NXTWINDOW,U#,W#,1) ALTRET(MISSING);

   9027  2 001020   200027 236100                    LDQ     VA,,AUTO
         2 001021   002000 506007                    DIV     1024,DL
         2 001022   201070 756100                    STQ     @CODE+1,,AUTO
         2 001023   000007 236000 3                  LDQ     7
         2 001024   201075 756100                    STQ     @CODE+6,,AUTO
         2 001025   200033 630500                    EPPR0   W#,,AUTO
         2 001026   201074 450500                    STP0    @CODE+5,,AUTO
         2 001027   000010 237000 3                  LDAQ    8
         2 001030   201072 757100                    STAQ    @CODE+3,,AUTO
         2 001031   201070 631500                    EPPR1   @CODE+1,,AUTO
         2 001032   201071 451500                    STP1    @CODE+2,,AUTO
         2 001033   201071 630500                    EPPR0   @CODE+2,,AUTO
         2 001034   000023 631400 xsym               EPPR1   B_VECTNIL+19
         2 001035   000000 701000 xent               TSX1    DAM$VPAGE
         2 001036   001113 702000 2                  TSX2    MISSING

      369     9028    3                 IF NOT DA_WINDOW.PRESENCE(DA_NXTWINDOW+DA_WINDOWBASE) THEN GOTO
              9028                          MISSING;

   9028  2 001037   000000 236000 xsym               LDQ     DA_NXTWINDOW
         2 001040   000000 036000 xsym               ADLQ    DA_WINDOWBASE
         2 001041   000000 234006 xsym               SZN     DA_WINDOW,QL
         2 001042   001113 605000 2                  TPL     MISSING

      370     9029    4                 IF VA/1024=(IVA+AT)/1024 THEN DO;

   9029  2 001043   200027 236100                    LDQ     VA,,AUTO
         2 001044   002000 506007                    DIV     1024,DL
         2 001045   201070 756100                    STQ     @CODE+1,,AUTO
         2 001046   200030 236100                    LDQ     IVA,,AUTO
         2 001047   200016 036100                    ADLQ    AT,,AUTO
         2 001050   002000 506007                    DIV     1024,DL
         2 001051   201070 116100                    CMPQ    @CODE+1,,AUTO
PL6.E3A0      #001=DAB$DUMPCMD File=DAB$DUMP.:E05TSI                             TUE 07/29/97 12:37 Page:56
         2 001052   001063 601000 2                  TNZ     s:9033

      371     9030    4                    LP=BINBIT(PG$->WRD(MOD(IVA+AT,1024)),36);

   9030  2 001053   200030 236100                    LDQ     IVA,,AUTO
         2 001054   200016 036100                    ADLQ    AT,,AUTO
         2 001055   002000 506007                    DIV     1024,DL
         2 001056   200034 470500                    LDP0    PG$,,AUTO
         2 001057   000000 236105                    LDQ     0,AL,PR0
         2 001060   200024 756100                    STQ     LP,,AUTO

      372     9031    4                    GOTLP = '1'B;

   9031  2 001061   400000 236003                    LDQ     -131072,DU
         2 001062   200043 756100                    STQ     GOTLP,,AUTO

      373     9032    4                    END;

      374     9033    3                 MPFLG='0'B;

   9033  2 001063   200042 450100                    STZ     MPFLG,,AUTO

      375     9034    3                 IF TEMP>S# THEN TEMP=S#;

   9034  2 001064   200020 236100                    LDQ     TEMP,,AUTO
         2 001065   200032 116100                    CMPQ    S#,,AUTO
         2 001066   001071 604400 2                  TMOZ    s:9035

   9034  2 001067   200032 235100                    LDA     S#,,AUTO
         2 001070   200020 755100                    STA     TEMP,,AUTO

      376     9035    3                 CALL DUMPER (PG$->WRD(I),TEMP,OFFSET,AFLG,LFLG);

   9035  2 001071   200007 630500                    EPPR0   LFLG,,AUTO
         2 001072   201074 450500                    STP0    @CODE+5,,AUTO
         2 001073   200006 631500                    EPPR1   AFLG,,AUTO
         2 001074   201073 451500                    STP1    @CODE+4,,AUTO
PL6.E3A0      #001=DAB$DUMPCMD File=DAB$DUMP.:E05TSI                             TUE 07/29/97 12:37 Page:57
         2 001075   200011 633500                    EPPR3   OFFSET,,AUTO
         2 001076   201072 453500                    STP3    @CODE+3,,AUTO
         2 001077   200020 634500                    EPPR4   TEMP,,AUTO
         2 001100   201071 454500                    STP4    @CODE+2,,AUTO
         2 001101   200017 236100                    LDQ     I,,AUTO
         2 001102   000022 736000                    QLS     18
         2 001103   200034 036100                    ADLQ    PG$,,AUTO
         2 001104   201070 756100                    STQ     @CODE+1,,AUTO
         2 001105   201070 630500                    EPPR0   @CODE+1,,AUTO
         2 001106   200031 220100                    LDX0    DUMPER,,AUTO
         2 001107   000023 631400 xsym               EPPR1   B_VECTNIL+19
         2 001110   000000 701010                    TSX1    0,X0
         2 001111   000000 011000                    NOP     0

      377     9036    4                 DO NEVER;

   9036  2 001112   001125 710000 2                  TRA     s:9043

      378     9037    5   MISSING:         IF NOT MPFLG THEN DO;

   9037  2 001113   200042 234100       MISSING      SZN     MPFLG,,AUTO
         2 001114   001124 604000 2                  TMI     s:9041

      379     9038    5                       CALL DAF$WRITE(VECTOR(MPFMT));

   9038  2 001115   000014 630400 3                  EPPR0   12
         2 001116   000000 220000 xsym               LDX0    DAF$WRITE
         2 001117   000017 631400 xsym               EPPR1   B_VECTNIL+15
         2 001120   000000 701010                    TSX1    0,X0
         2 001121   000000 011000                    NOP     0

      380     9039    5                       MPFLG='1'B;

   9039  2 001122   400000 236003                    LDQ     -131072,DU
         2 001123   200042 756100                    STQ     MPFLG,,AUTO

      381     9040    5                       END;
PL6.E3A0      #001=DAB$DUMPCMD File=DAB$DUMP.:E05TSI                             TUE 07/29/97 12:37 Page:58

      382     9041    4                    DA_MAPERR='0'B;

   9041  2 001124   000000 450000 xsym               STZ     DA_MAPERR

      383     9042    4                    END;

      384     9043    3                 VA=VA+TEMP;

   9043  2 001125   200027 236100                    LDQ     VA,,AUTO
         2 001126   200020 036100                    ADLQ    TEMP,,AUTO
         2 001127   200027 756100                    STQ     VA,,AUTO

      385     9044    3                 S#=S#-TEMP;

   9044  2 001130   200032 236100                    LDQ     S#,,AUTO
         2 001131   200020 136100                    SBLQ    TEMP,,AUTO
         2 001132   200032 756100                    STQ     S#,,AUTO

      386     9045    3                 OFFSET=OFFSET+TEMP;

   9045  2 001133   200011 236100                    LDQ     OFFSET,,AUTO
         2 001134   200020 036100                    ADLQ    TEMP,,AUTO
         2 001135   200011 756100                    STQ     OFFSET,,AUTO

      387     9046    3                 I=0;

   9046  2 001136   200017 450100                    STZ     I,,AUTO

      388     9047    3                 END;

   9047  2 001137   200032 235100                    LDA     S#,,AUTO
         2 001140   001015 605400 2                  TPNZ    s:9026

      389     9048    3              IF ENT=%LLIST AND GOTLP AND IP.SID=LP.SID AND IP.OFFSET~=LP.OFFSET THEN
              9048                       DO;

PL6.E3A0      #001=DAB$DUMPCMD File=DAB$DUMP.:E05TSI                             TUE 07/29/97 12:37 Page:59
   9048  2 001141   200064 236100                    LDQ     ENT,,AUTO
         2 001142   000005 116007                    CMPQ    5,DL
         2 001143   002366 601000 2                  TNZ     RET
         2 001144   200043 234100                    SZN     GOTLP,,AUTO
         2 001145   002366 605000 2                  TPL     RET
         2 001146   200021 236100                    LDQ     IP,,AUTO
         2 001147   200024 676100                    ERQ     LP,,AUTO
         2 001150   007777 376007                    ANQ     4095,DL
         2 001151   002366 601000 2                  TNZ     RET
         2 001152   200021 220100                    LDX0    IP,,AUTO
         2 001153   200024 100100                    CMPX0   LP,,AUTO
         2 001154   002366 600000 2                  TZE     RET

      390     9049    3                 IP=LP;

   9049  2 001155   200024 236100                    LDQ     LP,,AUTO
         2 001156   200021 756100                    STQ     IP,,AUTO

      391     9050    3                 GOTO LLMORE;

   9050  2 001157   000600 710000 2                  TRA     LLMORE

      392     9051    3                 END;
      393     9052    2            CASE(%DFMT);

      394     9053    2              FORMAT='%4.XXXXXXE%(';

   9053  2 001160   040100 100400                    MLR     fill='040'O
         2 001161   000121 000014 1                  ADSC9   RESFMT3+11               cn=0,n=12
         2 001162   200065 004000                    ADSC9   FORMAT,,AUTO             cn=0,n=2048

      395     9054    2              CALL BINCHAR (SUBSTR(FORMAT,3,6), IP.OFFSET);

   9054  2 001163   200021 236100                    LDQ     IP,,AUTO
         2 001164   000022 772000                    QRL     18
         2 001165   000000 235003                    LDA     0,DU
         2 001166   201070 757100                    STAQ    @CODE+1,,AUTO
PL6.E3A0      #001=DAB$DUMPCMD File=DAB$DUMP.:E05TSI                             TUE 07/29/97 12:37 Page:60
         2 001167   000100 301500                    BTD
         2 001170   201070 000010                    NDSC9   @CODE+1,,AUTO            cn=0,s=lsgnf,sf=0,n=8
         2 001171   200065 630006                    NDSC9   FORMAT,,AUTO             cn=3,s=nosgn,sf=0,n=6

      396     9055    2              I = FMTN$->SYM.COUNT;

   9055  2 001172   000000 470400 xsym               LDP0    DB_NXT$
         2 001173   000004 236100                    LDQ     4,,PR0
         2 001174   000033 772000                    QRL     27
         2 001175   200017 756100                    STQ     I,,AUTO

      397     9056    2              SUBSTR(FORMAT,12,I)=FMTN$->SYM.TEXT;

   9056  2 001176   000004 236100                    LDQ     4,,PR0
         2 001177   000033 772000                    QRL     27
         2 001200   000000 620006                    EAX0    0,QL
         2 001201   200017 721100                    LXL1    I,,AUTO
         2 001202   040140 100540                    MLR     fill='040'O
         2 001203   000004 200010                    ADSC9   4,,PR0                   cn=1,n=*X0
         2 001204   200070 000011                    ADSC9   FORMAT+3,,AUTO           cn=0,n=*X1

      398     9057    2              SUBSTR(FORMAT,12+I,2)='%)';

   9057  2 001205   200017 236100                    LDQ     I,,AUTO
         2 001206   040106 100400                    MLR     fill='040'O
         2 001207   000124 000002 1                  ADSC9   RESFMT3+14               cn=0,n=2
         2 001210   200070 000002                    ADSC9   FORMAT+3,Q,AUTO          cn=0,n=2

      399     9058    2              DB_NXT$=ADDR(NIL);

   9058  2 001211   000001 236000 xsym               LDQ     B_VECTNIL+1
         2 001212   000000 756000 xsym               STQ     DB_NXT$

      400     9059    3              DO I=1 TO AT;

   9059  2 001213   000001 235007                    LDA     1,DL
         2 001214   200017 755100                    STA     I,,AUTO
PL6.E3A0      #001=DAB$DUMPCMD File=DAB$DUMP.:E05TSI                             TUE 07/29/97 12:37 Page:61
         2 001215   001236 710000 2                  TRA     s:9062+1

      401     9060    3                 CALL DAA$EXP(TOP.SUBLK$(LOCIDX+I)->OUT.SUBLK$(0)->OUT,IPARY(I+2),

   9060  2 001216   200013 236100                    LDQ     LOCIDX,,AUTO
         2 001217   200017 036100                    ADLQ    I,,AUTO
         2 001220   200003 470500                    LDP0    @TOP,,AUTO
         2 001221   000003 471506                    LDP1    3,QL,PR0
         2 001222   100003 473500                    LDP3    3,,PR1
         2 001223   000002 237000 3                  LDAQ    2
         2 001224   201072 757100                    STAQ    @CODE+3,,AUTO
         2 001225   200017 720100                    LXL0    I,,AUTO
         2 001226   200023 631510                    EPPR1   OP$,X0,AUTO
         2 001227   201071 451500                    STP1    @CODE+2,,AUTO
         2 001230   201070 453500                    STP3    @CODE+1,,AUTO
         2 001231   201070 630500                    EPPR0   @CODE+1,,AUTO
         2 001232   000022 631400 xsym               EPPR1   B_VECTNIL+18
         2 001233   000000 701000 xent               TSX1    DAA$EXP
         2 001234   002366 702000 2                  TSX2    RET

      402     9061    3                   U#,DOMAYN) ALTRET(RET);
      403     9062    3                 END;

   9062  2 001235   200017 054100                    AOS     I,,AUTO
         2 001236   200016 236100                    LDQ     AT,,AUTO
         2 001237   001216 604000 2                  TMI     s:9060
         2 001240   200017 116100                    CMPQ    I,,AUTO
         2 001241   001216 605000 2                  TPL     s:9060

      404     9063    2              IPARY(2)=-1;

   9063  2 001242   000001 335007                    LCA     1,DL
         2 001243   200023 755100                    STA     OP$,,AUTO

      405     9064    2              IPARY(1)=AT+1;

   9064  2 001244   000001 036007                    ADLQ    1,DL
PL6.E3A0      #001=DAB$DUMPCMD File=DAB$DUMP.:E05TSI                             TUE 07/29/97 12:37 Page:62
         2 001245   200022 756100                    STQ     IP+1,,AUTO

      406     9065    2              CALL DAF$WRITE (VECTOR(FORMAT), VECTOR(ADDR(IP$)->IPRM),

   9065  2 001246   000015 235000 3                  LDA     13
         2 001247   201070 452500                    STP2    @CODE+1,,AUTO
         2 001250   201070 236100                    LDQ     @CODE+1,,AUTO
         2 001251   000065 036003                    ADLQ    53,DU
         2 001252   201072 757100                    STAQ    @CODE+3,,AUTO
         2 001253   000016 235000 3                  LDA     14
         2 001254   201074 452500                    STP2    @CODE+5,,AUTO
         2 001255   201074 236100                    LDQ     @CODE+5,,AUTO
         2 001256   000021 036003                    ADLQ    17,DU
         2 001257   201076 757100                    STAQ    @CODE+7,,AUTO
         2 001260   777640 235007                    LDA     -96,DL
         2 001261   201100 452500                    STP2    @CODE+9,,AUTO
         2 001262   201100 236100                    LDQ     @CODE+9,,AUTO
         2 001263   000017 036003                    ADLQ    15,DU
         2 001264   201102 757100                    STAQ    @CODE+11,,AUTO
         2 001265   777640 235007                    LDA     -96,DL
         2 001266   201104 452500                    STP2    @CODE+13,,AUTO
         2 001267   201104 236100                    LDQ     @CODE+13,,AUTO
         2 001270   000017 036003                    ADLQ    15,DU
         2 001271   201110 757100                    STAQ    @CODE+17,,AUTO
         2 001272   201072 237100                    LDAQ    @CODE+3,,AUTO
         2 001273   201106 757100                    STAQ    @CODE+15,,AUTO
         2 001274   201076 237100                    LDAQ    @CODE+7,,AUTO
         2 001275   201112 757100                    STAQ    @CODE+19,,AUTO
         2 001276   201102 237100                    LDAQ    @CODE+11,,AUTO
         2 001277   201114 757100                    STAQ    @CODE+21,,AUTO
         2 001300   201110 237100                    LDAQ    @CODE+17,,AUTO
         2 001301   201116 757100                    STAQ    @CODE+23,,AUTO
         2 001302   201116 630500                    EPPR0   @CODE+23,,AUTO
         2 001303   201123 450500                    STP0    @CODE+28,,AUTO
         2 001304   201114 631500                    EPPR1   @CODE+21,,AUTO
         2 001305   201122 451500                    STP1    @CODE+27,,AUTO
         2 001306   201112 633500                    EPPR3   @CODE+19,,AUTO
PL6.E3A0      #001=DAB$DUMPCMD File=DAB$DUMP.:E05TSI                             TUE 07/29/97 12:37 Page:63
         2 001307   201121 453500                    STP3    @CODE+26,,AUTO
         2 001310   201106 634500                    EPPR4   @CODE+15,,AUTO
         2 001311   201120 454500                    STP4    @CODE+25,,AUTO
         2 001312   201120 630500                    EPPR0   @CODE+25,,AUTO
         2 001313   000000 220000 xsym               LDX0    DAF$WRITE
         2 001314   000022 631400 xsym               EPPR1   B_VECTNIL+18
         2 001315   000000 701010                    TSX1    0,X0
         2 001316   000000 011000                    NOP     0
         2 001317   002366 710000 2                  TRA     RET

      407     9066    2                VECTOR(I), VECTOR(I));
      408     9067    2            CASE(%SSFRAME);

      409     9068    2              CALL DAM$VPAGE(VA/1024,DA_NXTWINDOW,U#,W#,1) ALTRET(RET);

   9068  2 001320   200027 236100                    LDQ     VA,,AUTO
         2 001321   002000 506007                    DIV     1024,DL
         2 001322   201070 756100                    STQ     @CODE+1,,AUTO
         2 001323   000007 236000 3                  LDQ     7
         2 001324   201075 756100                    STQ     @CODE+6,,AUTO
         2 001325   200033 630500                    EPPR0   W#,,AUTO
         2 001326   201074 450500                    STP0    @CODE+5,,AUTO
         2 001327   000010 237000 3                  LDAQ    8
         2 001330   201072 757100                    STAQ    @CODE+3,,AUTO
         2 001331   201070 631500                    EPPR1   @CODE+1,,AUTO
         2 001332   201071 451500                    STP1    @CODE+2,,AUTO
         2 001333   201071 630500                    EPPR0   @CODE+2,,AUTO
         2 001334   000023 631400 xsym               EPPR1   B_VECTNIL+19
         2 001335   000000 701000 xent               TSX1    DAM$VPAGE
         2 001336   002366 702000 2                  TSX2    RET

      410     9069    2              CALL DAB$SSFRAME(PINCRW(PG$,MOD(VA,1024))->OUT);

   9069  2 001337   200027 236100                    LDQ     VA,,AUTO
         2 001340   002000 506007                    DIV     1024,DL
         2 001341   000044 733000                    LRS     36
         2 001342   000022 736000                    QLS     18
PL6.E3A0      #001=DAB$DUMPCMD File=DAB$DUMP.:E05TSI                             TUE 07/29/97 12:37 Page:64
         2 001343   200034 036100                    ADLQ    PG$,,AUTO
         2 001344   201070 756100                    STQ     @CODE+1,,AUTO
         2 001345   201070 630500                    EPPR0   @CODE+1,,AUTO
         2 001346   000017 631400 xsym               EPPR1   B_VECTNIL+15
         2 001347   000000 701000 xent               TSX1    DAB$SSFRAME
         2 001350   000000 011000                    NOP     0
         2 001351   002366 710000 2                  TRA     RET

      411     9070    2            CASE(%HISTREG);

      412     9071    2              IF 1024-MOD(VA,1024)<128 THEN I=2;

   9071  2 001352   200027 236100                    LDQ     VA,,AUTO
         2 001353   002000 506007                    DIV     1024,DL
         2 001354   000044 733000                    LRS     36
         2 001355   001600 116007                    CMPQ    896,DL
         2 001356   001362 604400 2                  TMOZ    s:9072

   9071  2 001357   000002 235007                    LDA     2,DL
         2 001360   200017 755100                    STA     I,,AUTO
         2 001361   001364 710000 2                  TRA     s:9073

      413     9072    2              ELSE I=1;

   9072  2 001362   000001 235007                    LDA     1,DL
         2 001363   200017 755100                    STA     I,,AUTO

      414     9073    2              CALL DAM$VPAGE(VA/1024,DA_NXTWINDOW,U#,W#,I) ALTRET(MISSING);

   9073  2 001364   200027 236100                    LDQ     VA,,AUTO
         2 001365   002000 506007                    DIV     1024,DL
         2 001366   201070 756100                    STQ     @CODE+1,,AUTO
         2 001367   200017 630500                    EPPR0   I,,AUTO
         2 001370   201075 450500                    STP0    @CODE+6,,AUTO
         2 001371   200033 631500                    EPPR1   W#,,AUTO
         2 001372   201074 451500                    STP1    @CODE+5,,AUTO
         2 001373   000010 237000 3                  LDAQ    8
PL6.E3A0      #001=DAB$DUMPCMD File=DAB$DUMP.:E05TSI                             TUE 07/29/97 12:37 Page:65
         2 001374   201072 757100                    STAQ    @CODE+3,,AUTO
         2 001375   201070 633500                    EPPR3   @CODE+1,,AUTO
         2 001376   201071 453500                    STP3    @CODE+2,,AUTO
         2 001377   201071 630500                    EPPR0   @CODE+2,,AUTO
         2 001400   000023 631400 xsym               EPPR1   B_VECTNIL+19
         2 001401   000000 701000 xent               TSX1    DAM$VPAGE
         2 001402   001113 702000 2                  TSX2    MISSING

      415     9074    2              CALL DAB$HISTORY(PINCRW(PG$,MOD(VA,1024))->OUT,'0'B,,FORCE);

   9074  2 001403   200027 236100                    LDQ     VA,,AUTO
         2 001404   002000 506007                    DIV     1024,DL
         2 001405   200044 630500                    EPPR0   FORCE,,AUTO
         2 001406   201073 450500                    STP0    @CODE+4,,AUTO
         2 001407   000001 236000 xsym               LDQ     B_VECTNIL+1
         2 001410   201072 756100                    STQ     @CODE+3,,AUTO
         2 001411   000017 236000 3                  LDQ     15
         2 001412   201071 756100                    STQ     @CODE+2,,AUTO
         2 001413   000044 733000                    LRS     36
         2 001414   000022 736000                    QLS     18
         2 001415   200034 036100                    ADLQ    PG$,,AUTO
         2 001416   201070 756100                    STQ     @CODE+1,,AUTO
         2 001417   201070 630500                    EPPR0   @CODE+1,,AUTO
         2 001420   000022 631400 xsym               EPPR1   B_VECTNIL+18
         2 001421   000000 701000 xent               TSX1    DAB$HISTORY
         2 001422   000000 011000                    NOP     0
         2 001423   002366 710000 2                  TRA     RET

      416     9075    2            CASE(%AUTO);

      417     9076    2              IF DOMAYN=%MONWSR THEN PLUGHFLG='1'B;

   9076  2 001424   000000 236000 xsym               LDQ     DB_D#
         2 001425   001430 601000 2                  TNZ     s:9077

   9076  2 001426   400000 236003                    LDQ     -131072,DU
         2 001427   200010 756100                    STQ     PLUGHFLG,,AUTO
PL6.E3A0      #001=DAB$DUMPCMD File=DAB$DUMP.:E05TSI                             TUE 07/29/97 12:37 Page:66

      418     9077    2              IF IP.OFFSET~=0 THEN CALL SETERR(%E$DA_NOT_AUTO) ALTRET(RET);

   9077  2 001430   200021 220100                    LDX0    IP,,AUTO
         2 001431   001436 600000 2                  TZE     s:9082

   9077  2 001432   000021 236000 3                  LDQ     17
         2 001433   201067 756100                    STQ     FORMAT+514,,AUTO
         2 001434   002367 701000 2                  TSX1    SETERR
         2 001435   002366 702000 2                  TSX2    RET

      419     9078        /*E*          ERROR:  DAB-E$DA_NOT_AUTO
      420     9079                      MESSAGE: That's not an AUTO stack.
      421     9080                      MESSAGE1: AUTO stacks always start at the beginning of a segment.
      422     9081        */
      423     9082    2              CALL DAM$MAP(IP$,OP$,U#,DOMAYN) ALTRET(RET);

   9082  2 001436   000002 237000 3                  LDAQ    2
         2 001437   201072 757100                    STAQ    @CODE+3,,AUTO
         2 001440   200023 630500                    EPPR0   OP$,,AUTO
         2 001441   201071 450500                    STP0    @CODE+2,,AUTO
         2 001442   200021 631500                    EPPR1   IP,,AUTO
         2 001443   201070 451500                    STP1    @CODE+1,,AUTO
         2 001444   201070 630500                    EPPR0   @CODE+1,,AUTO
         2 001445   000022 631400 xsym               EPPR1   B_VECTNIL+18
         2 001446   000000 701000 xent               TSX1    DAM$MAP
         2 001447   002366 702000 2                  TSX2    RET

      424     9083    2              CURFRAME=BITBIN(AUTOBASE.CURFRAME\'777777'O);

   9083  2 001450   200023 470500                    LDP0    OP$,,AUTO
         2 001451   000000 720100                    LXL0    0,,PR0
         2 001452   777777 660003                    ERX0    -1,DU
         2 001453   000000 636010                    EAQ     0,X0
         2 001454   000022 772000                    QRL     18
         2 001455   200051 756100                    STQ     CURFRAME,,AUTO

PL6.E3A0      #001=DAB$DUMPCMD File=DAB$DUMP.:E05TSI                             TUE 07/29/97 12:37 Page:67
      425     9084    2              IF CURFRAME>S# THEN GOTO CONFUSED;

   9084  2 001456   001752 604000 2                  TMI     CONFUSED
         2 001457   200032 116100                    CMPQ    S#,,AUTO
         2 001460   001752 605400 2                  TPNZ    CONFUSED

      426     9085    2              CALL DAF$WRITE(VECTOR(BASEFMT));

   9085  2 001461   000024 630400 3                  EPPR0   20
         2 001462   000000 220000 xsym               LDX0    DAF$WRITE
         2 001463   000017 631400 xsym               EPPR1   B_VECTNIL+15
         2 001464   000000 701010                    TSX1    0,X0
         2 001465   000000 011000                    NOP     0

      427     9086    2              CALL DAB$OCTDUMP(AUTOBASE,SIZEW(AUTOBASE),0,AFLG);

   9086  2 001466   200006 630500                    EPPR0   AFLG,,AUTO
         2 001467   201073 450500                    STP0    @CODE+4,,AUTO
         2 001470   000017 236000 3                  LDQ     15
         2 001471   201072 756100                    STQ     @CODE+3,,AUTO
         2 001472   000025 236000 3                  LDQ     21
         2 001473   200023 235100                    LDA     OP$,,AUTO
         2 001474   201070 757100                    STAQ    @CODE+1,,AUTO
         2 001475   201070 630500                    EPPR0   @CODE+1,,AUTO
         2 001476   000022 631400 xsym               EPPR1   B_VECTNIL+18
         2 001477   000000 701000 xent               TSX1    DAB$OCTDUMP
         2 001500   000000 011000                    NOP     0

      428     9087    2              FRAMECNT=0;

   9087  2 001501   200053 450100                    STZ     FRAMECNT,,AUTO

      429     9088    2              OP$=PINCRW(OP$,SIZEW(AUTOBASE));

   9088  2 001502   200023 236100                    LDQ     OP$,,AUTO
         2 001503   000004 036003                    ADLQ    4,DU
         2 001504   200023 756100                    STQ     OP$,,AUTO
PL6.E3A0      #001=DAB$DUMPCMD File=DAB$DUMP.:E05TSI                             TUE 07/29/97 12:37 Page:68

      430     9089    3              DO WHILE(OP.OFFSET<=CURFRAME);

   9089  2 001505   200023 236100                    LDQ     OP$,,AUTO
         2 001506   000022 772000                    QRL     18
         2 001507   200051 116100                    CMPQ    CURFRAME,,AUTO
         2 001510   001512 600000 2                  TZE     s:9090
         2 001511   001747 603000 2                  TRC     s:9120

      431     9090    3                 FRAMECNT=FRAMECNT+1;

   9090  2 001512   200053 235100                    LDA     FRAMECNT,,AUTO
         2 001513   000001 035007                    ADLA    1,DL
         2 001514   200053 755100                    STA     FRAMECNT,,AUTO

      432     9091    3                 FRAMESIZE=AUTOFRAME.NEXT_FRAME-OP.OFFSET-1;

   9091  2 001515   200023 236100                    LDQ     OP$,,AUTO
         2 001516   000022 772000                    QRL     18
         2 001517   201070 756100                    STQ     @CODE+1,,AUTO
         2 001520   200023 470500                    LDP0    OP$,,AUTO
         2 001521   000100 101500                    MRL     fill='000'O
         2 001522   000002 000002                    ADSC9   2,,PR0                   cn=0,n=2
         2 001523   201071 000004                    ADSC9   @CODE+2,,AUTO            cn=0,n=4
         2 001524   201071 236100                    LDQ     @CODE+2,,AUTO
         2 001525   201070 136100                    SBLQ    @CODE+1,,AUTO
         2 001526   000001 136007                    SBLQ    1,DL
         2 001527   200054 756100                    STQ     FRAMESIZE,,AUTO

      433     9092    3                 IF OP.OFFSET+FRAMESIZE>S# THEN GOTO CONFUSED;

   9092  2 001530   200023 236100                    LDQ     OP$,,AUTO
         2 001531   000022 772000                    QRL     18
         2 001532   200054 036100                    ADLQ    FRAMESIZE,,AUTO
         2 001533   001752 604000 2                  TMI     CONFUSED
         2 001534   200032 116100                    CMPQ    S#,,AUTO
         2 001535   001752 605400 2                  TPNZ    CONFUSED
PL6.E3A0      #001=DAB$DUMPCMD File=DAB$DUMP.:E05TSI                             TUE 07/29/97 12:37 Page:69

      434     9093    3                 IF RPT.PAGELEN.N > 0 AND RPT.PAGELEN.N-RPT.CURLINE < 3

   9093  2 001536   000052 236000 0                  LDQ     RPT
         2 001537   377777 316003                    CANQ    131071,DU
         2 001540   001555 600000 2                  TZE     s:9095
         2 001541   000053 235000 0                  LDA     RPT+1
         2 001542   000022 731000                    ARS     18
         2 001543   201070 755100                    STA     @CODE+1,,AUTO
         2 001544   000052 236000 0                  LDQ     RPT
         2 001545   000022 772000                    QRL     18
         2 001546   377777 376007                    ANQ     131071,DL
         2 001547   201070 136100                    SBLQ    @CODE+1,,AUTO
         2 001550   000003 116007                    CMPQ    3,DL
         2 001551   001555 605000 2                  TPL     s:9095

      435     9094    3                 THEN CALL DAF$NEWPAGE;

   9094  2 001552   000002 631400 xsym               EPPR1   B_VECTNIL+2
         2 001553   000000 701000 xent               TSX1    DAF$NEWPAGE
         2 001554   000000 011000                    NOP     0

      436     9095    4                 IF PLUGHFLG THEN DO;

   9095  2 001555   200010 234100                    SZN     PLUGHFLG,,AUTO
         2 001556   001637 605000 2                  TPL     NO_PLUGH

      437     9096    4                    CALLIC=AUTOFRAME.RETADR-1;

   9096  2 001557   200023 470500                    LDP0    OP$,,AUTO
         2 001560   000100 101500                    MRL     fill='000'O
         2 001561   000000 000002                    ADSC9   0,,PR0                   cn=0,n=2
         2 001562   201070 000004                    ADSC9   @CODE+1,,AUTO            cn=0,n=4
         2 001563   201070 236100                    LDQ     @CODE+1,,AUTO
         2 001564   000001 136007                    SBLQ    1,DL
         2 001565   200055 756100                    STQ     CALLIC,,AUTO

PL6.E3A0      #001=DAB$DUMPCMD File=DAB$DUMP.:E05TSI                             TUE 07/29/97 12:37 Page:70
      438     9097    4                    I=DA_ALTSYM;

   9097  2 001566   000000 235000 xsym               LDA     DA_ALTSYM
         2 001567   200017 755100                    STA     I,,AUTO

      439     9098    4                    IF DOMAYN=%MONWSR THEN DA_ALTSYM=AUTOFRAME.LANG_IDENT;

   9098  2 001570   000000 235000 xsym               LDA     DB_D#
         2 001571   001575 601000 2                  TNZ     s:9099

   9098  2 001572   000000 101500                    MRL     fill='000'O
         2 001573   000001 400002                    ADSC9   1,,PR0                   cn=2,n=2
         2 001574   000000 000004 xsym               ADSC9   DA_ALTSYM                cn=0,n=4

      440     9099    4                    CALL DAS$IC2PED(CALLIC,EDEF$) ALTRET(NO_PLUGH);

   9099  2 001575   200062 631500                    EPPR1   EDEF$,,AUTO
         2 001576   201071 451500                    STP1    @CODE+2,,AUTO
         2 001577   200055 633500                    EPPR3   CALLIC,,AUTO
         2 001600   201070 453500                    STP3    @CODE+1,,AUTO
         2 001601   201070 630500                    EPPR0   @CODE+1,,AUTO
         2 001602   000020 631400 xsym               EPPR1   B_VECTNIL+16
         2 001603   000000 701000 xent               TSX1    DAS$IC2PED
         2 001604   001637 702000 2                  TSX2    NO_PLUGH

      441     9100    4                    DA_ALTSYM=I;

   9100  2 001605   200017 235100                    LDA     I,,AUTO
         2 001606   000000 755000 xsym               STA     DA_ALTSYM

      442     9101    4                    CALLIC=CALLIC-B$EDEF.ISADDR;

   9101  2 001607   200062 470500                    LDP0    EDEF$,,AUTO
         2 001610   000000 236100                    LDQ     0,,PR0
         2 001611   000032 376000 xsym               ANQ     B_VECTNIL+26
         2 001612   201070 756100                    STQ     @CODE+1,,AUTO
         2 001613   200055 236100                    LDQ     CALLIC,,AUTO
PL6.E3A0      #001=DAB$DUMPCMD File=DAB$DUMP.:E05TSI                             TUE 07/29/97 12:37 Page:71
         2 001614   201070 136100                    SBLQ    @CODE+1,,AUTO
         2 001615   200055 756100                    STQ     CALLIC,,AUTO

      443     9102    4                    TH$=PINCRW(DA_DNAME$,B$EDEF.NPOINTER);

   9102  2 001616   000001 220100                    LDX0    1,,PR0
         2 001617   000000 636010                    EAQ     0,X0
         2 001620   000000 036000 xsym               ADLQ    DA_DNAME$
         2 001621   200063 756100                    STQ     TH$,,AUTO

      444     9103    4                    EDEF_VEC=VECTOR(TEXTH.C);

   9103  2 001622   200063 471500                    LDP1    TH$,,AUTO
         2 001623   100000 221100                    LDX1    0,,PR1
         2 001624   000000 635011                    EAA     0,X1
         2 001625   000002 771000                    ARL     2
         2 001626   000140 135007                    SBLA    96,DL
         2 001627   400000 036007                    ADLQ    -131072,DL
         2 001630   200056 757100                    STAQ    EDEF_VEC,,AUTO

      445     9104    4                    IC_VEC=VECTOR(CALLIC);

   9104  2 001631   777640 235007                    LDA     -96,DL
         2 001632   201070 452500                    STP2    @CODE+1,,AUTO
         2 001633   201070 236100                    LDQ     @CODE+1,,AUTO
         2 001634   000055 036003                    ADLQ    45,DU
         2 001635   200060 757100                    STAQ    IC_VEC,,AUTO

      446     9105    4                    END;

   9105  2 001636   001643 710000 2                  TRA     s:9110

      447     9106    4                 ELSE DO;

      448     9107    4   NO_PLUGH:        EDEF_VEC=VECTOR(NIL);

   9107  2 001637   000000 237000 3     NO_PLUGH     LDAQ    0
PL6.E3A0      #001=DAB$DUMPCMD File=DAB$DUMP.:E05TSI                             TUE 07/29/97 12:37 Page:72
         2 001640   200056 757100                    STAQ    EDEF_VEC,,AUTO

      449     9108    4                    IC_VEC=VECTOR(NIL);

   9108  2 001641   000000 237000 3                  LDAQ    0
         2 001642   200060 757100                    STAQ    IC_VEC,,AUTO

      450     9109    4                    END;

      451     9110    3                 CALL DAF$WRITE(VECTOR(FRAMEFMT),

   9110  2 001643   777640 235007                    LDA     -96,DL
         2 001644   201070 452500                    STP2    @CODE+1,,AUTO
         2 001645   201070 236100                    LDQ     @CODE+1,,AUTO
         2 001646   000053 036003                    ADLQ    43,DU
         2 001647   201072 757100                    STAQ    @CODE+3,,AUTO
         2 001650   777640 235007                    LDA     -96,DL
         2 001651   201074 452500                    STP2    @CODE+5,,AUTO
         2 001652   201074 236100                    LDQ     @CODE+5,,AUTO
         2 001653   000023 036003                    ADLQ    19,DU
         2 001654   201100 757100                    STAQ    @CODE+9,,AUTO
         2 001655   201072 237100                    LDAQ    @CODE+3,,AUTO
         2 001656   201076 757100                    STAQ    @CODE+7,,AUTO
         2 001657   201100 237100                    LDAQ    @CODE+9,,AUTO
         2 001660   201102 757100                    STAQ    @CODE+11,,AUTO
         2 001661   200060 630500                    EPPR0   IC_VEC,,AUTO
         2 001662   201110 450500                    STP0    @CODE+17,,AUTO
         2 001663   200056 631500                    EPPR1   EDEF_VEC,,AUTO
         2 001664   201107 451500                    STP1    @CODE+16,,AUTO
         2 001665   201102 633500                    EPPR3   @CODE+11,,AUTO
         2 001666   201106 453500                    STP3    @CODE+15,,AUTO
         2 001667   201076 634500                    EPPR4   @CODE+7,,AUTO
         2 001670   201105 454500                    STP4    @CODE+14,,AUTO
         2 001671   000030 236000 3                  LDQ     24
         2 001672   201104 756100                    STQ     @CODE+13,,AUTO
         2 001673   201104 630500                    EPPR0   @CODE+13,,AUTO
         2 001674   000000 220000 xsym               LDX0    DAF$WRITE
PL6.E3A0      #001=DAB$DUMPCMD File=DAB$DUMP.:E05TSI                             TUE 07/29/97 12:37 Page:73
         2 001675   000023 631400 xsym               EPPR1   B_VECTNIL+19
         2 001676   000000 701010                    TSX1    0,X0
         2 001677   000000 011000                    NOP     0

      452     9111    3                   VECTOR(FRAMECNT),
      453     9112    3                   VECTOR(OP),
      454     9113    3                   EDEF_VEC,
      455     9114    3                   IC_VEC);
      456     9115    3                 CALL DAB$OCTDUMP(AUTOFRAME,FRAMESIZE,0,AFLG);

   9115  2 001700   200006 630500                    EPPR0   AFLG,,AUTO
         2 001701   201073 450500                    STP0    @CODE+4,,AUTO
         2 001702   000017 236000 3                  LDQ     15
         2 001703   201072 756100                    STQ     @CODE+3,,AUTO
         2 001704   200054 631500                    EPPR1   FRAMESIZE,,AUTO
         2 001705   201071 451500                    STP1    @CODE+2,,AUTO
         2 001706   200023 236100                    LDQ     OP$,,AUTO
         2 001707   201070 756100                    STQ     @CODE+1,,AUTO
         2 001710   201070 630500                    EPPR0   @CODE+1,,AUTO
         2 001711   000022 631400 xsym               EPPR1   B_VECTNIL+18
         2 001712   000000 701000 xent               TSX1    DAB$OCTDUMP
         2 001713   000000 011000                    NOP     0

      457     9116    3                 IF AUTOFRAME.RETADR=0

   9116  2 001714   200023 470500                    LDP0    OP$,,AUTO
         2 001715   000100 101500                    MRL     fill='000'O
         2 001716   000000 000002                    ADSC9   0,,PR0                   cn=0,n=2
         2 001717   201070 000004                    ADSC9   @CODE+1,,AUTO            cn=0,n=4
         2 001720   201070 236100                    LDQ     @CODE+1,,AUTO
         2 001721   000000 116003                    CMPQ    0,DU
         2 001722   001736 601000 2                  TNZ     s:9118

      458     9117    3                 THEN CALL DAB$HISTORY(AUTOFRAME,'1'B,FRAMESIZE,FORCE);

   9117  2 001723   200044 631500                    EPPR1   FORCE,,AUTO
         2 001724   201073 451500                    STP1    @CODE+4,,AUTO
PL6.E3A0      #001=DAB$DUMPCMD File=DAB$DUMP.:E05TSI                             TUE 07/29/97 12:37 Page:74
         2 001725   200054 633500                    EPPR3   FRAMESIZE,,AUTO
         2 001726   201072 453500                    STP3    @CODE+3,,AUTO
         2 001727   000031 236000 3                  LDQ     25
         2 001730   200023 235100                    LDA     OP$,,AUTO
         2 001731   201070 757100                    STAQ    @CODE+1,,AUTO
         2 001732   201070 630500                    EPPR0   @CODE+1,,AUTO
         2 001733   000022 631400 xsym               EPPR1   B_VECTNIL+18
         2 001734   000000 701000 xent               TSX1    DAB$HISTORY
         2 001735   000000 011000                    NOP     0

      459     9118    3                 OP$=PINCRW(OP$,FRAMESIZE);

   9118  2 001736   200054 236100                    LDQ     FRAMESIZE,,AUTO
         2 001737   000022 736000                    QLS     18
         2 001740   200023 036100                    ADLQ    OP$,,AUTO
         2 001741   200023 756100                    STQ     OP$,,AUTO

      460     9119    3                 END;

   9119  2 001742   200023 236100                    LDQ     OP$,,AUTO
         2 001743   000022 772000                    QRL     18
         2 001744   200051 116100                    CMPQ    CURFRAME,,AUTO
         2 001745   001512 602000 2                  TNC     s:9090
         2 001746   001512 600000 2                  TZE     s:9090

      461     9120    3              IF OP.OFFSET<S# THEN DO;

   9120  2 001747   200032 116100                    CMPQ    S#,,AUTO
         2 001750   002366 605000 2                  TPL     RET

      462     9121    4                 DO NEVER;

   9121  2 001751   001757 710000 2                  TRA     s:9124

      463     9122    4   CONFUSED:        CALL DAF$WRITE(VECTOR(CONFUSEDFMT));

   9122  2 001752   000034 630400 3     CONFUSED     EPPR0   28
PL6.E3A0      #001=DAB$DUMPCMD File=DAB$DUMP.:E05TSI                             TUE 07/29/97 12:37 Page:75
         2 001753   000000 220000 xsym               LDX0    DAF$WRITE
         2 001754   000017 631400 xsym               EPPR1   B_VECTNIL+15
         2 001755   000000 701010                    TSX1    0,X0
         2 001756   000000 011000                    NOP     0

      464     9123    4                    END;

      465     9124    3                 CALL DAF$WRITE(VECTOR(REMAINDER));

   9124  2 001757   000040 630400 3                  EPPR0   32
         2 001760   000000 220000 xsym               LDX0    DAF$WRITE
         2 001761   000017 631400 xsym               EPPR1   B_VECTNIL+15
         2 001762   000000 701010                    TSX1    0,X0
         2 001763   000000 011000                    NOP     0

      466     9125    3                 FRAMESIZE=OP.OFFSET;

   9125  2 001764   200023 235100                    LDA     OP$,,AUTO
         2 001765   000022 771000                    ARL     18
         2 001766   200054 755100                    STA     FRAMESIZE,,AUTO

      467     9126    3                 CALL DAB$OCTDUMP(AUTOFRAME,S#-FRAMESIZE,FRAMESIZE,AFLG);

   9126  2 001767   200032 236100                    LDQ     S#,,AUTO
         2 001770   200054 136100                    SBLQ    FRAMESIZE,,AUTO
         2 001771   201070 756100                    STQ     @CODE+1,,AUTO
         2 001772   200006 630500                    EPPR0   AFLG,,AUTO
         2 001773   201075 450500                    STP0    @CODE+6,,AUTO
         2 001774   200054 631500                    EPPR1   FRAMESIZE,,AUTO
         2 001775   201074 451500                    STP1    @CODE+5,,AUTO
         2 001776   201070 633500                    EPPR3   @CODE+1,,AUTO
         2 001777   201073 453500                    STP3    @CODE+4,,AUTO
         2 002000   200023 236100                    LDQ     OP$,,AUTO
         2 002001   201072 756100                    STQ     @CODE+3,,AUTO
         2 002002   201072 630500                    EPPR0   @CODE+3,,AUTO
         2 002003   000022 631400 xsym               EPPR1   B_VECTNIL+18
         2 002004   000000 701000 xent               TSX1    DAB$OCTDUMP
PL6.E3A0      #001=DAB$DUMPCMD File=DAB$DUMP.:E05TSI                             TUE 07/29/97 12:37 Page:76
         2 002005   000000 011000                    NOP     0

      468     9127    3                 END;

   9127  2 002006   002366 710000 2                  TRA     RET

      469     9128    2            CASE(%RESOLVE);

      470     9129    3              IF U#>0 THEN DO;

   9129  2 002007   000000 236000 xsym               LDQ     DB_U#
         2 002010   002031 604400 2                  TMOZ    s:9135

      471     9130    4                 DO I=1 TO DA_MUAIS;

   9130  2 002011   000001 235007                    LDA     1,DL
         2 002012   200017 755100                    STA     I,,AUTO
         2 002013   002024 710000 2                  TRA     s:9132+1

      472     9131    4                    IF U#=B$USRT$->B$USER.SYSID(I) THEN EXIT;

   9131  2 002014   200017 235100                    LDA     I,,AUTO
         2 002015   000004 735000                    ALS     4
         2 002016   000000 470400 xsym               LDP0    B$USRT$
         2 002017   000014 236105                    LDQ     12,AL,PR0
         2 002020   777777 376007                    ANQ     -1,DL
         2 002021   000000 116000 xsym               CMPQ    DB_U#
         2 002022   002027 600000 2                  TZE     s:9133

      473     9132    4                    END;

   9132  2 002023   200017 054100                    AOS     I,,AUTO
         2 002024   200017 236100                    LDQ     I,,AUTO
         2 002025   000000 116000 xsym               CMPQ    DA_MUAIS
         2 002026   002014 604400 2                  TMOZ    s:9131

      474     9133    3                 U#=-I;
PL6.E3A0      #001=DAB$DUMPCMD File=DAB$DUMP.:E05TSI                             TUE 07/29/97 12:37 Page:77

   9133  2 002027   200017 335100                    LCA     I,,AUTO
         2 002030   000000 755000 xsym               STA     DB_U#

      475     9134    3                 END;

      476     9135    2              RAFLG='1'B;

   9135  2 002031   400000 236003                    LDQ     -131072,DU
         2 002032   200040 756100                    STQ     RAFLG,,AUTO

      477     9136    2              PG$=ADDR(NIL);

   9136  2 002033   000001 236000 xsym               LDQ     B_VECTNIL+1
         2 002034   200034 756100                    STQ     PG$,,AUTO

      478     9137    2              VP = VA/1024;

   9137  2 002035   200027 236100                    LDQ     VA,,AUTO
         2 002036   002000 506007                    DIV     1024,DL
         2 002037   200035 756100                    STQ     VP,,AUTO

      479     9138    3              IF DA_DUMPFILE THEN DO;

   9138  2 002040   000000 234000 xsym               SZN     DA_DUMPFILE
         2 002041   002172 605000 2                  TPL     s:9165

      480     9139    4                 DO CASE(W#);

   9139  2 002042   200033 235100                    LDA     W#,,AUTO
         2 002043   000035 115007                    CMPA    29,DL
         2 002044   002046 602005 2                  TNC     s:9139+4,AL
         2 002045   002170 710000 2                  TRA     s:9161
         2 002046   002103 710000 2                  TRA     s:9141
         2 002047   002106 710000 2                  TRA     s:9143
         2 002050   002170 710000 2                  TRA     s:9161
         2 002051   002170 710000 2                  TRA     s:9161
PL6.E3A0      #001=DAB$DUMPCMD File=DAB$DUMP.:E05TSI                             TUE 07/29/97 12:37 Page:78
         2 002052   002170 710000 2                  TRA     s:9161
         2 002053   002170 710000 2                  TRA     s:9161
         2 002054   002170 710000 2                  TRA     s:9161
         2 002055   002170 710000 2                  TRA     s:9161
         2 002056   002121 710000 2                  TRA     s:9147
         2 002057   002170 710000 2                  TRA     s:9161
         2 002060   002170 710000 2                  TRA     s:9161
         2 002061   002170 710000 2                  TRA     s:9161
         2 002062   002136 710000 2                  TRA     s:9151
         2 002063   002151 710000 2                  TRA     s:9157
         2 002064   002151 710000 2                  TRA     s:9157
         2 002065   002151 710000 2                  TRA     s:9157
         2 002066   002151 710000 2                  TRA     s:9157
         2 002067   002151 710000 2                  TRA     s:9157
         2 002070   002151 710000 2                  TRA     s:9157
         2 002071   002151 710000 2                  TRA     s:9157
         2 002072   002151 710000 2                  TRA     s:9157
         2 002073   002151 710000 2                  TRA     s:9157
         2 002074   002151 710000 2                  TRA     s:9157
         2 002075   002151 710000 2                  TRA     s:9157
         2 002076   002151 710000 2                  TRA     s:9157
         2 002077   002151 710000 2                  TRA     s:9157
         2 002100   002151 710000 2                  TRA     s:9157
         2 002101   002151 710000 2                  TRA     s:9157
         2 002102   002151 710000 2                  TRA     s:9157

      481     9140    4                  CASE(%REALWSQ);

      482     9141    4                    RA = VA;

   9141  2 002103   200027 235100                    LDA     VA,,AUTO
         2 002104   200036 755100                    STA     RA,,AUTO
         2 002105   002265 710000 2                  TRA     s:9184

      483     9142    4                  CASE(%MONWSQ);

      484     9143    5                    CALL DAM$MAP(B$MPT$,PG$) WHENALTRETURN DO;
PL6.E3A0      #001=DAB$DUMPCMD File=DAB$DUMP.:E05TSI                             TUE 07/29/97 12:37 Page:79

   9143  2 002106   200034 630500                    EPPR0   PG$,,AUTO
         2 002107   201071 450500                    STP0    @CODE+2,,AUTO
         2 002110   000041 236000 3                  LDQ     33
         2 002111   201070 756100                    STQ     @CODE+1,,AUTO
         2 002112   201070 630500                    EPPR0   @CODE+1,,AUTO
         2 002113   000020 631400 xsym               EPPR1   B_VECTNIL+16
         2 002114   000000 701000 xent               TSX1    DAM$MAP
         2 002115   002117 702000 2                  TSX2    s:9144
         2 002116   002120 710000 2                  TRA     s:9145

      485     9144    5                       RAFLG='0'B;

   9144  2 002117   200040 450100                    STZ     RAFLG,,AUTO

      486     9145    5                       END;

   9145  2 002120   002265 710000 2                  TRA     s:9184

      487     9146    4                  CASE(%USERWSQ);

      488     9147    5                    CALL DAM$MAP(B$UPT$,PG$,U#) WHENALTRETURN DO;

   9147  2 002121   000002 236000 3                  LDQ     2
         2 002122   201072 756100                    STQ     @CODE+3,,AUTO
         2 002123   200034 630500                    EPPR0   PG$,,AUTO
         2 002124   201071 450500                    STP0    @CODE+2,,AUTO
         2 002125   000042 236000 3                  LDQ     34
         2 002126   201070 756100                    STQ     @CODE+1,,AUTO
         2 002127   201070 630500                    EPPR0   @CODE+1,,AUTO
         2 002130   000021 631400 xsym               EPPR1   B_VECTNIL+17
         2 002131   000000 701000 xent               TSX1    DAM$MAP
         2 002132   002134 702000 2                  TSX2    s:9148
         2 002133   002135 710000 2                  TRA     s:9149

      489     9148    5                       RAFLG='0'B;

PL6.E3A0      #001=DAB$DUMPCMD File=DAB$DUMP.:E05TSI                             TUE 07/29/97 12:37 Page:80
   9148  2 002134   200040 450100                    STZ     RAFLG,,AUTO

      490     9149    5                       END;

   9149  2 002135   002265 710000 2                  TRA     s:9184

      491     9150    4                  CASE(%CGWSQ);

      492     9151    5                    CALL DAM$MAP(B$CGPT$,PG$) WHENALTRETURN DO;

   9151  2 002136   200034 630500                    EPPR0   PG$,,AUTO
         2 002137   201071 450500                    STP0    @CODE+2,,AUTO
         2 002140   000043 236000 3                  LDQ     35
         2 002141   201070 756100                    STQ     @CODE+1,,AUTO
         2 002142   201070 630500                    EPPR0   @CODE+1,,AUTO
         2 002143   000020 631400 xsym               EPPR1   B_VECTNIL+16
         2 002144   000000 701000 xent               TSX1    DAM$MAP
         2 002145   002147 702000 2                  TSX2    s:9152
         2 002146   002150 710000 2                  TRA     s:9153

      493     9152    5                       RAFLG='0'B;

   9152  2 002147   200040 450100                    STZ     RAFLG,,AUTO

      494     9153    5                       END;

   9153  2 002150   002265 710000 2                  TRA     s:9184

      495     9154    4                  CASE(%B_CWSQ1,%B_CWSQ2,%B_CWSQ3,%B_CWSQ4,%B_CWSQ5,%B_CWSQ6,

      496     9155    4                         %B_CWSQ7,%B_CWSQ8,%B_CWSQ9,%B_CWSQ10,%B_CWSQ11,%B_CWSQ12,
      497     9156    4                         %B_CWSQ13,%B_CWSQ14,%B_CWSQ15,%B_CWSQ16);
      498     9157    5                    CALL DAM$MAP(B$CPGT1$+W#-%B_CWSQ1,PG$) WHENALTRETURN DO;

   9157  2 002151   000000 236000 xsym               LDQ     B$CPGT1$
         2 002152   200033 036100                    ADLQ    W#,,AUTO
         2 002153   000015 136007                    SBLQ    13,DL
PL6.E3A0      #001=DAB$DUMPCMD File=DAB$DUMP.:E05TSI                             TUE 07/29/97 12:37 Page:81
         2 002154   201070 756100                    STQ     @CODE+1,,AUTO
         2 002155   200034 630500                    EPPR0   PG$,,AUTO
         2 002156   201073 450500                    STP0    @CODE+4,,AUTO
         2 002157   201070 631500                    EPPR1   @CODE+1,,AUTO
         2 002160   201072 451500                    STP1    @CODE+3,,AUTO
         2 002161   201072 630500                    EPPR0   @CODE+3,,AUTO
         2 002162   000020 631400 xsym               EPPR1   B_VECTNIL+16
         2 002163   000000 701000 xent               TSX1    DAM$MAP
         2 002164   002166 702000 2                  TSX2    s:9158
         2 002165   002167 710000 2                  TRA     s:9159

      499     9158    5                       RAFLG='0'B;

   9158  2 002166   200040 450100                    STZ     RAFLG,,AUTO

      500     9159    5                       END;

   9159  2 002167   002265 710000 2                  TRA     s:9184

      501     9160    4                  CASE(ELSE);

      502     9161    4                    RAFLG='0'B;

   9161  2 002170   200040 450100                    STZ     RAFLG,,AUTO

      503     9162    4                  END;

      504     9163    3                 END;

   9163  2 002171   002265 710000 2                  TRA     s:9184

      505     9164    3              ELSE DO;

      506     9165    3                 REALPT=0;

   9165  2 002172   200037 450100                    STZ     REALPT,,AUTO

PL6.E3A0      #001=DAB$DUMPCMD File=DAB$DUMP.:E05TSI                             TUE 07/29/97 12:37 Page:82
      507     9166    4                 IF W#=%USERWSQ THEN DO;

   9166  2 002173   200033 235100                    LDA     W#,,AUTO
         2 002174   000010 115007                    CMPA    8,DL
         2 002175   002207 601000 2                  TNZ     s:9170

      508     9167    4                    REALPT=B$USRT$->B$USER.PT(-U#);

   9167  2 002176   000000 235000 xsym               LDA     DB_U#
         2 002177   000004 735000                    ALS     4
         2 002200   777777 620005                    EAX0    -1,AL
         2 002201   777777 660003                    ERX0    -1,DU
         2 002202   000000 470400 xsym               LDP0    B$USRT$
         2 002203   000014 236110                    LDQ     12,X0,PR0
         2 002204   000022 772000                    QRL     18
         2 002205   200037 756100                    STQ     REALPT,,AUTO

      509     9168    4                    END;

   9168  2 002206   002232 710000 2                  TRA     s:9174

      510     9169    4                 ELSE DO;

      511     9170    5                    CALL DAM$MAP(B$IS$,PTD$,,,DA_MONISDATA) WHENRETURN DO;

   9170  2 002207   000044 236000 3                  LDQ     36
         2 002210   201074 756100                    STQ     @CODE+5,,AUTO
         2 002211   000001 236000 xsym               LDQ     B_VECTNIL+1
         2 002212   000001 235000 xsym               LDA     B_VECTNIL+1
         2 002213   201072 757100                    STAQ    @CODE+3,,AUTO
         2 002214   200041 630500                    EPPR0   PTD$,,AUTO
         2 002215   201071 450500                    STP0    @CODE+2,,AUTO
         2 002216   000045 236000 3                  LDQ     37
         2 002217   201070 756100                    STQ     @CODE+1,,AUTO
         2 002220   201070 630500                    EPPR0   @CODE+1,,AUTO
         2 002221   000023 631400 xsym               EPPR1   B_VECTNIL+19
         2 002222   000000 701000 xent               TSX1    DAM$MAP
PL6.E3A0      #001=DAB$DUMPCMD File=DAB$DUMP.:E05TSI                             TUE 07/29/97 12:37 Page:83
         2 002223   002232 702000 2                  TSX2    s:9174

      512     9171    5                       REALPT=WSPTD.PTP(W#);

   9171  2 002224   200033 235100                    LDA     W#,,AUTO
         2 002225   000002 735000                    ALS     2
         2 002226   200041 470500                    LDP0    PTD$,,AUTO
         2 002227   000100 101505                    MRL     fill='000'O
         2 002230   000000 000002                    ADSC9   0,A,PR0                  cn=0,n=2
         2 002231   200037 000004                    ADSC9   REALPT,,AUTO             cn=0,n=4

      513     9172    5                       END;

      514     9173    4                    END;

      515     9174    4                 IF REALPT ~= 0 THEN DO;

   9174  2 002232   200037 235100                    LDA     REALPT,,AUTO
         2 002233   002265 600000 2                  TZE     s:9184

      516     9175    4                    IF DA_CPU=%DPS90XA OR DA_CPU=%DPS8000 THEN

   9175  2 002234   000000 236000 xsym               LDQ     DA_CPU
         2 002235   000005 116007                    CMPQ    5,DL
         2 002236   002241 600000 2                  TZE     s:9176
         2 002237   000006 116007                    CMPQ    6,DL
         2 002240   002244 601000 2                  TNZ     s:9178

      517     9176    4                       REALPT=REALPT*1024;

   9176  2 002241   000012 735000                    ALS     10
         2 002242   200037 755100                    STA     REALPT,,AUTO
         2 002243   002246 710000 2                  TRA     s:9179

      518     9177    4                    ELSE
      519     9178    4                       REALPT=REALPT*64;

PL6.E3A0      #001=DAB$DUMPCMD File=DAB$DUMP.:E05TSI                             TUE 07/29/97 12:37 Page:84
   9178  2 002244   000006 735000                    ALS     6
         2 002245   200037 755100                    STA     REALPT,,AUTO

      520     9179    5                    CALL DAM$CVM(REALPT/1024,DA_MSCPG1) WHENRETURN DO;

   9179  2 002246   200037 236100                    LDQ     REALPT,,AUTO
         2 002247   000012 772000                    QRL     10
         2 002250   201070 756100                    STQ     @CODE+1,,AUTO
         2 002251   000046 236000 3                  LDQ     38
         2 002252   201073 756100                    STQ     @CODE+4,,AUTO
         2 002253   201070 630500                    EPPR0   @CODE+1,,AUTO
         2 002254   201072 450500                    STP0    @CODE+3,,AUTO
         2 002255   201072 630500                    EPPR0   @CODE+3,,AUTO
         2 002256   000020 631400 xsym               EPPR1   B_VECTNIL+16
         2 002257   000000 701000 xent               TSX1    DAM$CVM
         2 002260   002265 702000 2                  TSX2    s:9184

      521     9180    5                       PG$=PINCRW(B$IS$,DA_MSCPG1*1024);

   9180  2 002261   000000 236000 xsym               LDQ     DA_MSCPG1
         2 002262   000034 736000                    QLS     28
         2 002263   000000 036000 xsym               ADLQ    B$IS$
         2 002264   200034 756100                    STQ     PG$,,AUTO

      522     9181    5                       END;

      523     9182    4                    END;

      524     9183    3                 END;

      525     9184    3              IF RAFLG AND PG$ ~= ADDR(NIL) THEN DO;

   9184  2 002265   200040 234100                    SZN     RAFLG,,AUTO
         2 002266   002307 605000 2                  TPL     s:9187
         2 002267   200034 236100                    LDQ     PG$,,AUTO
         2 002270   000001 116000 xsym               CMPQ    B_VECTNIL+1
         2 002271   002307 600000 2                  TZE     s:9187
PL6.E3A0      #001=DAB$DUMPCMD File=DAB$DUMP.:E05TSI                             TUE 07/29/97 12:37 Page:85

      526     9185    3                 RA = PG$->PGT.PAGE(VP)*1024+MOD(VA,1024);

   9185  2 002272   200027 236100                    LDQ     VA,,AUTO
         2 002273   002000 506007                    DIV     1024,DL
         2 002274   201070 755100                    STA     @CODE+1,,AUTO
         2 002275   200035 236100                    LDQ     VP,,AUTO
         2 002276   000002 736000                    QLS     2
         2 002277   200034 470500                    LDP0    PG$,,AUTO
         2 002300   000100 101506                    MRL     fill='000'O
         2 002301   000000 000002                    ADSC9   0,Q,PR0                  cn=0,n=2
         2 002302   201071 000004                    ADSC9   @CODE+2,,AUTO            cn=0,n=4
         2 002303   201071 236100                    LDQ     @CODE+2,,AUTO
         2 002304   000012 736000                    QLS     10
         2 002305   201070 036100                    ADLQ    @CODE+1,,AUTO
         2 002306   200036 756100                    STQ     RA,,AUTO

      527     9186    3                 END;

      528     9187    2              CALL DAF$WRITE(VECTOR(RESFMT1),VECTOR(VA),VECTOR(W#));

   9187  2 002307   777640 235007                    LDA     -96,DL
         2 002310   201070 452500                    STP2    @CODE+1,,AUTO
         2 002311   201070 236100                    LDQ     @CODE+1,,AUTO
         2 002312   000027 036003                    ADLQ    23,DU
         2 002313   201072 757100                    STAQ    @CODE+3,,AUTO
         2 002314   777640 235007                    LDA     -96,DL
         2 002315   201074 452500                    STP2    @CODE+5,,AUTO
         2 002316   201074 236100                    LDQ     @CODE+5,,AUTO
         2 002317   000033 036003                    ADLQ    27,DU
         2 002320   201100 757100                    STAQ    @CODE+9,,AUTO
         2 002321   201072 237100                    LDAQ    @CODE+3,,AUTO
         2 002322   201076 757100                    STAQ    @CODE+7,,AUTO
         2 002323   201100 237100                    LDAQ    @CODE+9,,AUTO
         2 002324   201102 757100                    STAQ    @CODE+11,,AUTO
         2 002325   201102 630500                    EPPR0   @CODE+11,,AUTO
         2 002326   201106 450500                    STP0    @CODE+15,,AUTO
PL6.E3A0      #001=DAB$DUMPCMD File=DAB$DUMP.:E05TSI                             TUE 07/29/97 12:37 Page:86
         2 002327   201076 631500                    EPPR1   @CODE+7,,AUTO
         2 002330   201105 451500                    STP1    @CODE+14,,AUTO
         2 002331   000052 236000 3                  LDQ     42
         2 002332   201104 756100                    STQ     @CODE+13,,AUTO
         2 002333   201104 630500                    EPPR0   @CODE+13,,AUTO
         2 002334   000000 220000 xsym               LDX0    DAF$WRITE
         2 002335   000021 631400 xsym               EPPR1   B_VECTNIL+17
         2 002336   000000 701010                    TSX1    0,X0
         2 002337   000000 011000                    NOP     0

      529     9188    3              IF RAFLG THEN DO;

   9188  2 002340   200040 234100                    SZN     RAFLG,,AUTO
         2 002341   002361 605000 2                  TPL     s:9192

      530     9189    3                 CALL DAF$WRITE(VECTOR(RESFMT2),VECTOR(RA));

   9189  2 002342   777640 235007                    LDA     -96,DL
         2 002343   201070 452500                    STP2    @CODE+1,,AUTO
         2 002344   201070 236100                    LDQ     @CODE+1,,AUTO
         2 002345   000036 036003                    ADLQ    30,DU
         2 002346   201072 757100                    STAQ    @CODE+3,,AUTO
         2 002347   201072 630500                    EPPR0   @CODE+3,,AUTO
         2 002350   201075 450500                    STP0    @CODE+6,,AUTO
         2 002351   000056 236000 3                  LDQ     46
         2 002352   201074 756100                    STQ     @CODE+5,,AUTO
         2 002353   201074 630500                    EPPR0   @CODE+5,,AUTO
         2 002354   000000 220000 xsym               LDX0    DAF$WRITE
         2 002355   000020 631400 xsym               EPPR1   B_VECTNIL+16
         2 002356   000000 701010                    TSX1    0,X0
         2 002357   000000 011000                    NOP     0

      531     9190    3                 END;

   9190  2 002360   002366 710000 2                  TRA     RET

      532     9191    3              ELSE DO;
PL6.E3A0      #001=DAB$DUMPCMD File=DAB$DUMP.:E05TSI                             TUE 07/29/97 12:37 Page:87

      533     9192    3                 CALL DAF$WRITE(VECTOR(RESFMT3));

   9192  2 002361   000062 630400 3                  EPPR0   50
         2 002362   000000 220000 xsym               LDX0    DAF$WRITE
         2 002363   000017 631400 xsym               EPPR1   B_VECTNIL+15
         2 002364   000000 701010                    TSX1    0,X0
         2 002365   000000 011000                    NOP     0

      534     9193    3                 END;

      535     9194    2            END;

      536     9195    1   RET:    RETURN;

   9195  2 002366   000000 702200 xent  RET          TSX2  ! X66_ARET

      537     9196        %EJECT;
PL6.E3A0      #001=DAB$DUMPCMD File=DAB$DUMP.:E05TSI                             TUE 07/29/97 12:37 Page:88
      538     9197    1   SETERR: PROC(CODE) ALTRET;

   9197  2 002367   201066 741300       SETERR       STX1  ! FORMAT+513,,AUTO

      539     9198    2   DCL CODE SBIN;
      540     9199        /**/
      541     9200    2           DA_ANLZERR='040102000000'O;

   9200  2 002370   000120 236000 1                  LDQ     RESFMT3+10
         2 002371   000000 756000 xsym               STQ     DA_ANLZERR

      542     9201    2           DA_ANLZERR.CODE=CODE;

   9201  2 002372   201067 470500                    LDP0    @CODE,,AUTO
         2 002373   000000 236100                    LDQ     0,,PR0
         2 002374   000003 736000                    QLS     3
         2 002375   000000 676000 xsym               ERQ     DA_ANLZERR
         2 002376   377770 376007                    ANQ     131064,DL
         2 002377   000000 656000 xsym               ERSQ    DA_ANLZERR

      543     9202    2           ALTRETURN;

   9202  2 002400   000000 702211                    TSX2  ! 0,X1
      544     9203    2   END SETERR;
      545     9204    1   END DAB$DUMPCMD;

PL6.E3A0      #001=DAB$DUMPCMD File=DAB$DUMP.:E05TSI                             TUE 07/29/97 12:37 Page:89
--  Include file information  --

   XUF_ENTRY.:E05TOU  cannot be made into a system file and is referenced.
   B$USER.:E05TOU  cannot be made into a system file and is referenced.
   B$OBJECT_C.:E05TOU  is referenced.
   B_STRINGS_C.:E05TOU  is referenced.
   B_SEGIDS_C.:E05TOU  is referenced.
   DA_FORMAT_C.:E05TOU  is referenced.
   XU_FORMAT_C.:E05TOU  is referenced.
   DA_PERR_C.:E05TOU  is referenced.
   DA_SYMBOLS_R.:E05TOU  cannot be made into a system file and is referenced.
   DA_MAP_R.:E05TOU  cannot be made into a system file and is referenced.
   DA_CMD_C.:E05TOU  is referenced.
   DA_ANLZ_R.:E05TOU  cannot be made into a system file and is referenced.
   XU_MACRO_C.:E05TOU  is referenced.
      No diagnostics issued in procedure DAB$DUMPCMD.
PL6.E3A0      #001=DAB$DUMPCMD File=DAB$DUMP.:E05TSI                             TUE 07/29/97 12:37 Page:90

 **** Variables and constants ****

  ****  Section 000  Data  DAB$DUMPCMD

  ****  Scalars and arrays  ****
OctLoc.c.b A Datatyp(siz) R M Lvl/name                 OctLoc.c.b A Datatyp(siz) R M Lvl/name

     0-0-0/w STRC(1080)  r     1 FDS                       52-0-0/w STRC(288)   r     1 RPT
    36-0-0/c STRC(405)   r     1 TTL

  ****  Section 001 RoData DAB$DUMPCMD

  ****  Scalars and arrays  ****
OctLoc.c.b A Datatyp(siz) R M Lvl/name                 OctLoc.c.b A Datatyp(siz) R M Lvl/name

    36-0-0/c CHAR(18)    r     1 BASEFMT                   55-0-0/c CHAR(13)    r     1 CONFUSEDFMT
    14-0-0/c CHAR(4)     r     1 DOFMT(0:7)                43-0-0/c CHAR(39)    r     1 FRAMEFMT
    12-0-0/c CHAR(7)     r     1 FSFMT                     10-0-0/c CHAR(8)     r     1 FUFMT
     0-0-0/c CHAR(8)     r     1 LOCFMT                    26-0-0/c CHAR(31)    r     1 MPFMT
    61-0-0/c CHAR(21)    r     1 REMAINDER                 67-0-0/c CHAR(35)    r     1 RESFMT1
   100-0-0/c CHAR(21)    r     1 RESFMT2                  106-0-0/c CHAR(35)    r     1 RESFMT3
     5-0-0/c CHAR(9)     r     1 USFMT                      2-0-0/c CHAR(10)    r     1 UUFMT
    24-0-0/c CHAR(6)     r     1 WAFMT

  ****  Auto variables  ****

  ****  Scalars and arrays  ****
OctLoc.c.b A Datatyp(siz) R M Lvl/name                 OctLoc.c.b A Datatyp(siz) R M Lvl/name

  1067-0-0/w PTR         r     1 @CODE                      3-0-0/w PTR         r     1 @TOP
     6-0-0/w BIT         r     1 AFLG                      16-0-0/w UBIN        r     1 AT
    15-0-0/w SBIN        r     1 ATIDX                     55-0-0/w UBIN        r     1 CALLIC
    *0-0-0/w SBIN        r     1 CODE                      51-0-0/w UBIN        r     1 CURFRAME
    25-0-0/w STRC(72)    r     1 DESC                      31-0-0/w EPTR        r     1 DUMPER
    62-0-0/w PTR         r     1 EDEF$                     56-0-0/w BIT (72)    r     1 EDEF_VEC
    64-0-0/w SBIN        r     1 ENT                       47-0-0/w PTR         r     1 FMT$
    50-0-0/w SBIN        r     1 FMTS                      44-0-0/w SBIN        r     1 FORCE
PL6.E3A0      #001=DAB$DUMPCMD File=DAB$DUMP.:E05TSI                             TUE 07/29/97 12:37 Page:91
    65-0-0/c CHAR(2048)  r     1 FORMAT                    53-0-0/w UBIN        r     1 FRAMECNT
    54-0-0/w UBIN        r     1 FRAMESIZE                 43-0-0/w BIT         r     1 GOTLP
    17-0-0/w SBIN        r     1 I                         60-0-0/w BIT (72)    r     1 IC_VEC
    21-0-0/w STRC        r     1 IP                        21-0-0/w PTR         r     1 IP$
    21-0-0/w SBIN        r     1 IPARY(0:0)                30-0-0/w SBIN        r     1 IVA
     7-0-0/w BIT         r     1 LFLG                      13-0-0/w SBIN        r     1 LOCIDX
    24-0-0/b STRC        r     1 LP                        42-0-0/w BIT         r     1 MPFLG
    11-0-0/w SBIN        r     1 OFFSET                    23-0-0/w STRC        r     1 OP
    23-0-0/w PTR         r     1 OP$                       34-0-0/w PTR         r     1 PG$
    10-0-0/w BIT         r     1 PLUGHFLG                  41-0-0/w PTR         r     1 PTD$
    36-0-0/w SBIN        r     1 RA                        40-0-0/w BIT         r     1 RAFLG
    37-0-0/w UBIN        r     1 REALPT                    32-0-0/w SBIN        r     1 S#
    12-0-0/w SBIN        r     1 SIZE                      14-0-0/w SBIN        r     1 SIZEIDX
    20-0-0/w SBIN        r     1 TEMP                      63-0-0/w PTR         r     1 TH$
    *0-0-0/w STRC(144)   r     1 TOP                        4-0-0/w BIT         r     1 TTLFLG
     5-0-0/w SBIN        r     1 USER                      45-0-0/b BIT (72)    r     1 USR
    27-0-0/w SBIN        r     1 VA                        35-0-0/w SBIN        r     1 VP
    33-0-0/w SBIN        r     1 W#

  ****  SYMREF variables  ****

  ****  Scalars and arrays  ****
OctLoc.c.b A Datatyp(siz) R M Lvl/name                 OctLoc.c.b A Datatyp(siz) R M Lvl/name

     0-0-0/w PTR         r     1 B$CGPT$                    0-0-0/w UBIN        r     1 B$CPGT1$
     0-0-0/w PTR         r     1 B$IS$                      0-0-0/w PTR         r     1 B$MPT$
     0-0-0/w PTR         r     1 B$UPT$                     0-0-0/w PTR         r     1 B$USRT$
     0-0-0/w EPTR        r     1 DAF$WRITE                  0-0-0/w SBIN        r     1 DA_ALTSYM
     0-0-0/w STRC        r     1 DA_ANLZERR                 0-0-0/w SBIN        r     1 DA_CPU
     0-0-0/w PTR         r     1 DA_DNAME$                  0-0-0/w BIT         r     1 DA_DUMPFILE
     0-0-0/w STRC        r     1 DA_MAPERR                  0-0-0/b BIT (72)    r     1 DA_MONISDATA
     0-0-0/w SBIN        r     1 DA_MSCPG1                  0-0-0/w SBIN        r     1 DA_MUAIS
     0-0-0/w SBIN        r     1 DA_NXTWINDOW
     0-0-0/b STRC        r     1 DA_WINDOW(0:255)
     0-0-0/w SBIN        r     1 DA_WINDOWBASE
     0-0-0/b UBIN(9)     r     1 DA_WSRWSQ(0:7)
     0-0-0/w SBIN        r     1 DB_D#                      0-0-0/w PTR         r     1 DB_NXT$
PL6.E3A0      #001=DAB$DUMPCMD File=DAB$DUMP.:E05TSI                             TUE 07/29/97 12:37 Page:92
     0-0-0/w SBIN        r     1 DB_U#                      0-0-0/w SBIN        r     1 DOMAYN
     0-0-0/w PTR         r     1 FMTN$                      0-0-0/w SBIN        r     1 U#

  ****  BASED and DCB variables  ****

  ****  Scalars and arrays  ****
OctLoc.c.b A Datatyp(siz) R M Lvl/name                 OctLoc.c.b A Datatyp(siz) R M Lvl/name

     0-0-0/w STRC(144)   r     1 AUTOBASE                   0-0-0/h STRC(108)   r     1 AUTOFRAME
     0-0-0/w STRC(72)    r     1 B$EDEF                     0-0-0/w STRC(576)   r     1 B$USER(0:0)
     0-0-0/c ACHR        r     1 FMT                        0-0-0/w UBIN        r     1 IPRM(0:127)
     0-0-0/w STRC(144)   r     1 OUT                        0-0-0/h STRC        r     1 PGT(0:0)
     0-0-0/w ASTR(153)   r     1 SYM                        0-0-0/w ASTR(18)    r     1 TEXTH
     0-0-0/w SBIN        r     1 WRD(0:0)                   0-0-0/h STRC        r     1 WSPTD(0:0)


   Procedure DAB$DUMPCMD requires 1281 words for executable code.
   Procedure DAB$DUMPCMD requires 596 words of local(AUTO) storage.

    No errors detected in file DAB$DUMP.:E05TSI    .
PL6.E3A0      #001=DAB$DUMPCMD File=DAB$DUMP.:E05TSI                             TUE 07/29/97 12:37 Page:93
          *** CROSS REFERENCE LISTING ***
**     DENOTES     IDENTIFIER DEFINITION
<<                 IDENTIFIER'S VALUE SET
>>                 IDENTIFIER'S VALUE USED
<>                 IDENTIFIER SET AND/OR USED
--                 IDENTIFIER REFERENCED
PL6.E3A0      #001=DAB$DUMPCMD File=DAB$DUMP.:E05TSI                             TUE 07/29/97 12:37 Page:94
          MINI XREF LISTING

AFLG
      8719**DCL      8885<<ASSIGN   8948<<ASSIGN   8963>>IF       9035<>CALL     9086<>CALL     9115<>CALL
      9126<>CALL
AT
      8727**DCL      8898<<ASSIGN   8906<<ASSIGN   8906>>ASSIGN   8976<>CALL     9029>>IF       9030>>ASSIGN
      9059>>DOINDEX  9064>>ASSIGN
ATIDX
      8726**DCL      8897<<ASSIGN   8912<<ASSIGN   8975>>IF       8976>>CALL
AUTOBASE
      8797**DCL      9086<>CALL     9086--CALL     9088--ASSIGN
AUTOBASE.CURFRAME
      8799**DCL      9083>>ASSIGN
AUTOFRAME
      8817**DCL      9115<>CALL     9117<>CALL     9126<>CALL
AUTOFRAME.LANG_IDENT
      8821**DCL      9098>>ASSIGN
AUTOFRAME.NEXT_FRAME
      8822**DCL      9091>>ASSIGN
AUTOFRAME.RETADR
      8818**DCL      9096>>ASSIGN   9116>>IF
B$CGPT$
      8831**DCL      9151<>CALL
B$CPGT1$
      8832**DCL      9157>>CALL
B$DO.ECCINFO
      8283**DCL      8284--REDEF
B$EDEF.ISADDR
      8484**DCL      9101>>ASSIGN
B$EDEF.NPOINTER
      8486**DCL      9102>>ASSIGN
B$EDEF.OU
      8478**DCL      8484--REDEF
PL6.E3A0      #001=DAB$DUMPCMD File=DAB$DUMP.:E05TSI                             TUE 07/29/97 12:37 Page:95
B$IS$
      8761**DCL      8892>>ASSIGN   9004>>ASSIGN   9170<>CALL     9180>>ASSIGN
B$MPT$
      8829**DCL      9143<>CALL
B$U.MISC
      8262**DCL      8263--REDEF
B$UPT$
      8830**DCL      9147<>CALL
B$USER.MISC
      8338**DCL      8339--REDEF
B$USER.PT
      8332**DCL      9167>>ASSIGN
B$USER.SYSID
      8333**DCL      9131>>IF
B$USRT$
      8833**DCL      9131>>IF       9167>>ASSIGN
BASEFMT
      8824**DCL      9085--CALL
CALLIC
      8809**DCL      9096<<ASSIGN   9099<>CALL     9101<<ASSIGN   9101>>ASSIGN   9104--ASSIGN
CODE IN PROCEDURE SETERR
      9198**DCL      9197--PROC     9201>>ASSIGN
CONFUSED
      9122**LABEL    9084--GOTO     9092--GOTO
CONFUSEDFMT
      8826**DCL      9122--CALL
CURFRAME
      8805**DCL      9083<<ASSIGN   9084>>IF       9089>>DOWHILE
DAA$EXP
      8351**DCL-ENT  8972--CALL     8974--CALL     8976--CALL     9060--CALL
DAA$VALUE
      8349**DCL-ENT  8917--CALL     8931--CALL
DAB$HEXDUMP
      8358**DCL-ENT  8952--ASSIGN   8967--IF
DAB$HISTORY
      8360**DCL-ENT  9074--CALL     9117--CALL
PL6.E3A0      #001=DAB$DUMPCMD File=DAB$DUMP.:E05TSI                             TUE 07/29/97 12:37 Page:96
DAB$OCTDUMP
      8357**DCL-ENT  8901--ASSIGN   9086--CALL     9115--CALL     9126--CALL
DAB$SSFRAME
      8359**DCL-ENT  9069--CALL
DAF$INIT
      8361**DCL-ENT  9012--CALL
DAF$NEWPAGE
      8362**DCL-ENT  9094--CALL
DAF$WRITE
      8363**DCL      9016>>CALL     9038>>CALL     9065>>CALL     9085>>CALL     9110>>CALL     9122>>CALL
      9124>>CALL     9187>>CALL     9189>>CALL     9192>>CALL
DAM$CVM
      8352**DCL-ENT  9179--CALL
DAM$GETDESC
      8353**DCL-ENT  8977--CALL
DAM$MAP
      8354**DCL-ENT  9082--CALL     9143--CALL     9147--CALL     9151--CALL     9157--CALL     9170--CALL
DAM$VPAGE
      8355**DCL-ENT  9027--CALL     9068--CALL     9073--CALL
DAS$IC2PED
      8366**DCL-ENT  9099--CALL
DA_ALTSYM
      3565**DCL      9097>>ASSIGN   9098<<ASSIGN   9100<<ASSIGN
DA_ANLZERR
      3169**DCL      8984<<ASSIGN   8996<<ASSIGN   9200<<ASSIGN
DA_ANLZERR.CODE
      3169**DCL      8985<<ASSIGN   8997<<ASSIGN   9201<<ASSIGN
DA_CPU
      3537**DCL      9175>>IF       9175>>IF
DA_DNAME$
      3562**DCL      9102>>ASSIGN
DA_DUMPFILE
      3538**DCL      9138>>IF
DA_MAPERR
      3547**DCL      9041<<ASSIGN
DA_MAPSEG.P
PL6.E3A0      #001=DAB$DUMPCMD File=DAB$DUMP.:E05TSI                             TUE 07/29/97 12:37 Page:97
      3548**DCL      3549--REDEF
DA_MONISDATA
      3541**DCL      9170<>CALL
DA_MSCPG1
      3541**DCL      9179<>CALL     9180>>ASSIGN
DA_MUAIS
      3537**DCL      9130>>DOINDEX
DA_NXTWINDOW
      3538**DCL      9004>>ASSIGN   9027<>CALL     9028>>IF       9068<>CALL     9073<>CALL
DA_SDASN.DESC.TYPE0
      3533**DCL      3533--REDEF
DA_SYMSEG.P
      3561**DCL      3562--REDEF
DA_TIGRSEG.P
      3549**DCL      3550--REDEF
DA_WINDOW.PRESENCE
      3532**DCL      9028>>IF
DA_WINDOWBASE
      3537**DCL      9004>>ASSIGN   9028>>IF
DA_WSRWSQ
      8760**DCL      8980>>ASSIGN
DBB$EDIT
      8367**DCL-ENT  8915--ASSIGN
DB_D#
      8714**DCL      8715--REDEF
DB_NXT$
      8764**DCL      8765--REDEF    9058<<ASSIGN
DB_U#
      8717**DCL      8718--REDEF
DESC
      8750**DCL      8977<>CALL
DESC.BASE
      8759**DCL      8991>>ASSIGN
DESC.BOUND
      8751**DCL      8992>>ASSIGN
DESC.TYPE
PL6.E3A0      #001=DAB$DUMPCMD File=DAB$DUMP.:E05TSI                             TUE 07/29/97 12:37 Page:98
      8758**DCL      8978>>DOCASE
DESC.TYPE0
      8752**DCL      8755--REDEF
DESC.TYPE0.WSR
      8754**DCL      8980>>ASSIGN
DESC.TYPE2.WSQ
      8757**DCL      8982>>ASSIGN
DOFMT
      8793**DCL      8945>>CALLBLT  8946--ASSIGN
DOMAYN
      8715**DCL      8882<<ASSIGN   8930<<ASSIGN   8944<<ASSIGN   8945>>CALLBLT  8972<>CALL     8974<>CALL
      8976<>CALL     8977<>CALL     9060<>CALL     9076>>IF       9082<>CALL     9098>>IF
DUMP
      8882**LABEL    8859--GOTO     8862--GOTO     8865--GOTO     8868--GOTO     8871--GOTO     8874--GOTO
      8877--GOTO
DUMPER
      8766**DCL      8901<<ASSIGN   8952<<ASSIGN   8967>>IF       9035>>CALL
EDEF$
      8812**DCL      8461--IMP-PTR  9099<>CALL     9101>>ASSIGN   9102>>ASSIGN
EDEF_VEC
      8810**DCL      9103<<ASSIGN   9107<<ASSIGN   9110<>CALL
ENT
      8842**DCL      8853<<ASSIGN   8854<<ASSIGN   8855<<ASSIGN   8856<<ASSIGN   8857<<ASSIGN   8858<<ASSIGN
      8861<<ASSIGN   8864<<ASSIGN   8867<<ASSIGN   8870<<ASSIGN   8873<<ASSIGN   8876<<ASSIGN   8879<<ASSIGN
      9015>>IF       9015>>IF       9021>>DOCASE   9048>>IF
FDS
      8544**DCL      9006<>CALL
FDS.BUFX
      8568**DCL      9010>>ASSIGN
FMT
      8787**DCL      9006--CALL     9016--CALL
FMT$
      8785**DCL      8787--IMP-PTR  8890<<ASSIGN   9006>>CALL     9016>>CALL
FMTN$
      8765**DCL      8914<<ASSIGN   9055>>ASSIGN   9056>>ASSIGN   9056>>ASSIGN
FMTS
PL6.E3A0      #001=DAB$DUMPCMD File=DAB$DUMP.:E05TSI                             TUE 07/29/97 12:37 Page:99
      8786**DCL      8787--IMP-SIZ  8900<<ASSIGN   8908<<ASSIGN   8920>>CALLBLT  8921<<ASSIGN   8921>>ASSIGN
      8925>>CALLBLT  8926<<ASSIGN   8926>>ASSIGN   8934>>CALLBLT  8935<<ASSIGN   8935>>ASSIGN   8939>>CALLBLT
      8940<<ASSIGN   8940>>ASSIGN   8945>>CALLBLT  8946<<ASSIGN   8946>>ASSIGN   8964>>CALLBLT  8965<<ASSIGN
      8965>>ASSIGN   8968>>CALLBLT  8969<<ASSIGN   8969>>ASSIGN   9005>>IF       9006>>CALL     9016>>CALL
FORCE
      8783**DCL      8894<<ASSIGN   8960<<ASSIGN   9074<>CALL     9117<>CALL
FORMAT
      8851**DCL      8890--ASSIGN   8907<<ASSIGN   8920<<CALLBLT  8925<<CALLBLT  8934<<CALLBLT  8939<<CALLBLT
      8945<<CALLBLT  8964<<CALLBLT  8968<<CALLBLT  9053<<ASSIGN   9054<<CALLBLT  9056<<ASSIGN   9057<<ASSIGN
      9065--CALL
FRAMECNT
      8807**DCL      9087<<ASSIGN   9090<<ASSIGN   9090>>ASSIGN   9110--CALL
FRAMEFMT
      8825**DCL      9110--CALL
FRAMESIZE
      8808**DCL      9091<<ASSIGN   9092>>IF       9115<>CALL     9117<>CALL     9118>>ASSIGN   9125<<ASSIGN
      9126>>CALL     9126<>CALL
FSFMT
      8792**DCL      8925>>CALLBLT  8926--ASSIGN
FUFMT
      8791**DCL      8920>>CALLBLT  8921--ASSIGN
GOTLP
      8782**DCL      9024<<ASSIGN   9031<<ASSIGN   9048>>IF
I
      8728**DCL      8902<<DOINDEX  8903>>DOCASE   8905>>ASSIGN   8910>>ASSIGN   8912>>ASSIGN   8914>>ASSIGN
      8917>>CALL     8931>>CALL     8944>>ASSIGN   8956>>ASSIGN   8957>>ASSIGN   8957>>ASSIGN   8960>>ASSIGN
      9013<<ASSIGN   9026>>ASSIGN   9035>>CALL     9046<<ASSIGN   9055<<ASSIGN   9056>>ASSIGN   9057>>ASSIGN
      9059<<DOINDEX  9060>>CALL     9060>>CALL     9065--CALL     9065--CALL     9071<<ASSIGN   9072<<ASSIGN
      9073<>CALL     9097<<ASSIGN   9100>>ASSIGN   9130<<DOINDEX  9131>>IF       9133>>ASSIGN
IC_VEC
      8811**DCL      9104<<ASSIGN   9108<<ASSIGN   9110<>CALL
IP
      8730**DCL      8736--REDEF    8737--REDEF    8977<>CALL     9049<<ASSIGN
IP.OFFSET
      8731**DCL      8991>>ASSIGN   8992>>ASSIGN   9003>>ASSIGN   9048>>IF       9054>>CALLBLT  9077>>IF
IP.SID
PL6.E3A0      #001=DAB$DUMPCMD File=DAB$DUMP.:E05TSI                             TUE 07/29/97 12:37 Page:100
      8733**DCL      9048>>IF
IP$
      8736**DCL      8892<<ASSIGN   8972<>CALL     9006--CALL     9016--CALL     9065--CALL     9082<>CALL
IPARY
      8737**DCL      9060<>CALL     9063<<ASSIGN   9064<<ASSIGN
IPRM
      8738**DCL      9065--CALL
IVA
      8763**DCL      9023<<ASSIGN   9029>>IF       9030>>ASSIGN
LFLG
      8720**DCL      8886<<ASSIGN   8950<<ASSIGN   9035<>CALL
LLMORE
      8991**LABEL    9050--GOTO
LOCFMT
      8788**DCL      8907>>ASSIGN   8908--ASSIGN
LOCIDX
      8724**DCL      8895<<ASSIGN   8905>>IF       8905<<ASSIGN   8971>>IF       8972>>CALL     9060>>CALL
LP
      8745**DCL      9030<<ASSIGN   9049>>ASSIGN
LP.OFFSET
      8746**DCL      9048>>IF
LP.SID
      8748**DCL      9048>>IF
MISSING
      9037**LABEL    9027--CALLALT  9028--GOTO     9073--CALLALT
MPFLG
      8781**DCL      9014<<ASSIGN   9033<<ASSIGN   9037>>IF       9039<<ASSIGN
MPFMT
      8795**DCL      9038--CALL
NO_PLUGH
      9107**LABEL    9099--CALLALT
OFFSET
      8722**DCL      8888<<ASSIGN   9003<<ASSIGN   9035<>CALL     9045<<ASSIGN   9045>>ASSIGN
OP
      8741**DCL      9110--CALL
OP.OFFSET
PL6.E3A0      #001=DAB$DUMPCMD File=DAB$DUMP.:E05TSI                             TUE 07/29/97 12:37 Page:101
      8742**DCL      9089>>DOWHILE  9091>>ASSIGN   9092>>IF       9120>>IF       9125>>ASSIGN
OP$
      8740**DCL      8741--REDEF    8797--IMP-PTR  8817--IMP-PTR  8977<>CALL     9082<>CALL     9083>>ASSIGN
      9086>>CALL     9088<<ASSIGN   9088>>ASSIGN   9091>>ASSIGN   9096>>ASSIGN   9098>>ASSIGN   9115>>CALL
      9116>>IF       9117>>CALL     9118<<ASSIGN   9118>>ASSIGN   9126>>CALL
OUT
      8383**DCL      8917<>CALL     8931<>CALL     8972<>CALL     8974<>CALL     8976<>CALL     9060<>CALL
      9069<>CALL     9074<>CALL
OUT.CODE
      8391**DCL      8903>>DOCASE   8944>>ASSIGN   8960>>ASSIGN
OUT.SUBLK$
      8416**DCL      8944>>ASSIGN   8972>>CALL     8974>>CALL     8976>>CALL     9060>>CALL
PG$
      8769**DCL      9004<<ASSIGN   9030>>ASSIGN   9035>>CALL     9069>>CALL     9074>>CALL     9136<<ASSIGN
      9143<>CALL     9147<>CALL     9151<>CALL     9157<>CALL     9180<<ASSIGN   9184>>IF       9185>>ASSIGN
PGT.PAGE
      8779**DCL      9185>>ASSIGN
PLUGHFLG
      8721**DCL      8887<<ASSIGN   8954<<ASSIGN   9076<<ASSIGN   9095>>IF
PTD$
      8774**DCL      8775--IMP-PTR  9170<>CALL     9171>>ASSIGN
RA
      8771**DCL      9141<<ASSIGN   9185<<ASSIGN   9189--CALL
RAFLG
      8773**DCL      9135<<ASSIGN   9144<<ASSIGN   9148<<ASSIGN   9152<<ASSIGN   9158<<ASSIGN   9161<<ASSIGN
      9184>>IF       9188>>IF
REALPT
      8772**DCL      9165<<ASSIGN   9167<<ASSIGN   9171<<ASSIGN   9174>>IF       9176<<ASSIGN   9176>>ASSIGN
      9178<<ASSIGN   9178>>ASSIGN   9179>>CALL
REMAINDER
      8827**DCL      9124--CALL
RESFMT1
      8835**DCL      9187--CALL
RESFMT2
      8836**DCL      9189--CALL
RESFMT3
PL6.E3A0      #001=DAB$DUMPCMD File=DAB$DUMP.:E05TSI                             TUE 07/29/97 12:37 Page:102
      8837**DCL      9192--CALL
RET
      9195**LABEL    8972--CALLALT  8974--CALLALT  8976--CALLALT  8977--CALLALT  9060--CALLALT  9068--CALLALT
      9077--CALLALT  9082--CALLALT
RPT
      8664**DCL      9012<>CALL
RPT.CURLINE
      8681**DCL      9093>>IF
RPT.EDIT#
      8690**DCL      8899<<ASSIGN   8915<<ASSIGN
RPT.PAGELEN.N
      8672**DCL      9093>>IF       9093>>IF
S#
      8767**DCL      8992<<ASSIGN   8993>>IF       8993<<ASSIGN   8994>>ASSIGN   8995>>IF       9025>>DOWHILE
      9034>>IF       9034>>ASSIGN   9044<<ASSIGN   9044>>ASSIGN   9084>>IF       9092>>IF       9120>>IF
      9126>>CALL
SETERR
      9197**PROC     9077--CALL
SIZE
      8723**DCL      8889<<ASSIGN   8974<>CALL     8993>>IF       8993>>ASSIGN   8994<<ASSIGN   9006--CALL
      9016--CALL
SIZEIDX
      8725**DCL      8896<<ASSIGN   8910<<ASSIGN   8973>>IF       8974>>CALL
SYM.COUNT
      8452**DCL      8455--IMP-SIZ  8956>>ASSIGN   8957>>ASSIGN   9055>>ASSIGN   9056>>ASSIGN
SYM.TEXT
      8455**DCL      8957>>ASSIGN   9056>>ASSIGN
TEMP
      8729**DCL      8917<>CALL     8918>>IF       8931<>CALL     8932>>IF       9026<<ASSIGN   9034>>IF
      9034<<ASSIGN   9035<>CALL     9043>>ASSIGN   9044>>ASSIGN   9045>>ASSIGN
TEXTH.C
      8816**DCL      9103--ASSIGN
TEXTH.L
      8815**DCL      8816--IMP-SIZ  9103>>ASSIGN
TH$
      8813**DCL      8814--IMP-PTR  9102<<ASSIGN   9103>>ASSIGN   9103>>ASSIGN
PL6.E3A0      #001=DAB$DUMPCMD File=DAB$DUMP.:E05TSI                             TUE 07/29/97 12:37 Page:103
TOP
      3121**DCL         8--PROC     8860--ENTRY    8863--ENTRY    8866--ENTRY    8869--ENTRY    8872--ENTRY
      8875--ENTRY    8878--ENTRY
TOP.CODE
      3129**DCL      8853>>IF       8854>>IF       8855>>IF       8856>>IF       8857>>IF
TOP.NSUBLKS
      3133**DCL      8902>>DOINDEX
TOP.SUBLK$
      3154**DCL      8903>>DOCASE   8914>>ASSIGN   8917>>CALL     8931>>CALL     8944>>ASSIGN   8956>>ASSIGN
      8957>>ASSIGN   8957>>ASSIGN   8960>>ASSIGN   8972>>CALL     8974>>CALL     8976>>CALL     9060>>CALL
TTL
      8643**DCL      8562--DCLINIT  8564--DCLINIT  8692--DCLINIT
TTL.C
      8645**DCL      8957<<ASSIGN
TTL.L
      8644**DCL      8956<<ASSIGN   9010<<ASSIGN
TTLFLG
      8646**DCL      8893<<ASSIGN   8958<<ASSIGN   9005>>IF
U#
      8718**DCL      8884<<ASSIGN   8919<<ASSIGN   8924<<ASSIGN   8933<<ASSIGN   8938<<ASSIGN   8972<>CALL
      8974<>CALL     8976<>CALL     8977<>CALL     9027<>CALL     9060<>CALL     9068<>CALL     9073<>CALL
      9082<>CALL     9129>>IF       9131>>IF       9133<<ASSIGN   9147<>CALL     9167>>ASSIGN
USER
      8716**DCL      8883<<ASSIGN   8917<>CALL     8919>>ASSIGN   8924>>ASSIGN   8928--ASSIGN   8931<>CALL
      8933>>ASSIGN   8938>>ASSIGN   8942--ASSIGN
USFMT
      8790**DCL      8939>>CALLBLT  8940--ASSIGN
USR
      8784**DCL      8891<<ASSIGN   8928<<ASSIGN   8942<<ASSIGN   9006<>CALL     9016<>CALL
UUFMT
      8789**DCL      8934>>CALLBLT  8935--ASSIGN
VA
      8762**DCL      8991<<ASSIGN   9013>>ASSIGN   9023>>ASSIGN   9027>>CALL     9029>>IF       9043<<ASSIGN
      9043>>ASSIGN   9068>>CALL     9069>>CALL     9071>>IF       9073>>CALL     9074>>CALL     9137>>ASSIGN
      9141>>ASSIGN   9185>>ASSIGN   9187--CALL
VP
PL6.E3A0      #001=DAB$DUMPCMD File=DAB$DUMP.:E05TSI                             TUE 07/29/97 12:37 Page:104
      8770**DCL      9137<<ASSIGN   9185>>ASSIGN
W#
      8768**DCL      8980<<ASSIGN   8982<<ASSIGN   9027<>CALL     9068<>CALL     9073<>CALL     9139>>DOCASE
      9157>>CALL     9166>>IF       9171>>ASSIGN   9187--CALL
WAFMT
      8794**DCL      8964>>CALLBLT  8965--ASSIGN
WRD
      8749**DCL      9030>>ASSIGN   9035<>CALL
WSPTD.PTP
      8776**DCL      9171>>ASSIGN
X$WRITE
      8374**DCL-ENT  9006--CALL
