VERSION E05

PL6.E3A0      #001=DAB$HISTORY File=DAB$HISTORY.:E05TSI                          TUE 07/29/97 12:38 Page:1
        1        1        /*M* DAB$HISTORY - History register dump routine for ANLZ */
        2        2        /*T***********************************************************/
        3        3        /*T*                                                         */
        4        4        /*T* Copyright (c) Bull HN Information Systems Inc., 1997    */
        5        5        /*T*                                                         */
        6        6        /*T***********************************************************/
        7        7        DAB$HISTORY: PROC(LOC,AUTOFLAG,FRAMESIZE,FORCE);
        8        8        /**/
        9        9        %INCLUDE DA_FORMAT_C;
       10      251        %INCLUDE DA_FORMAT_R;
       11      263        %INCLUDE B_STRINGS_C;
       12      392        %INCLUDE M_INFO_C;
       13      532        %INCLUDE HF_SCODE_C;
       14      615        %INCLUDE CP_6;
       15     6174        %INCLUDE DA_ANLZ_R;
       16     6187        %INCLUDE XUR_ENTRY;
       17     6219        %INCLUDE XU_MACRO_C;
       18     9325        %INCLUDE XUH_MACRO_C;
       19     9409        %XUG_PARAMS (NAME=XUR,STCLASS="BASED(DA_XUR$)");
       20     9853        %REPORT (NAME=RPT,STCLASS="BASED(DA_REPORT$)");
       21     9919        /**/
       22     9920    1   DCL LOC SBIN;
       23     9921    1   DCL AUTOFLAG BIT(1) ALIGNED;
       24     9922    1   DCL FRAMESIZE UBIN;
       25     9923    1   DCL FORCE SBIN;
       26     9924        /**/
       27     9925    1   DCL HR$ PTR;
       28     9926    1   DCL I SBIN WORD AUTO;
       29     9927    1   DCL LCNT SBIN WORD AUTO;
       30     9928    1   DCL OPCODE UBIN;
       31     9929    1   DCL DPSEVU1HR BIT(72) DALIGNED AUTO;
       32     9930    1   DCL VEC_LCNT BIT(72) DALIGNED;
       33     9931    1   DCL VEC_OPCODE BIT(72) DALIGNED;
       34     9932    1   DCL AF$ PTR AUTO;
       35     9933    1   DCL SSR_OFFSET UBIN;
       36     9934    1   DCL PTYPE UBIN;
       37     9935    1   DCL FAULT_TYPE CHAR(48);
PL6.E3A0      #001=DAB$HISTORY File=DAB$HISTORY.:E05TSI                          TUE 07/29/97 12:38 Page:2
       38     9936
       39     9937
       40     9938        /**/
       41     9939
       42     9940    1   DCL DAF$WRITE EPTR SYMREF;
       43     9941    1   DCL DAF$NEWPAGE ENTRY;
       44     9942    1   DCL DAB$FLTCODE (0:21) CHAR(24) SYMREF;
       45     9943
       46     9944                                                /* C O N S T A N T                    */
       47     9945        %FPT_WAIT (UNITS=1,
       48     9946                   STCLASS=CONSTANT);
       49     9960        %FPT_TRMPRG (RSTBRK=YES,
       50     9961                     STCLASS=CONSTANT);
       51     9990
       52     9991
       53     9992        /*       FINFO DISPLAY */
       54     9993        %EQU FINFOLINES=10;
       55     9994    1   DCL 1 FINFOFMT CONSTANT,
       56     9995    1         2 * CHAR(0) INIT('%X%29X-- FAULT FRAME --%/'),
       57     9996    1         2 * CHAR(0) INIT('%/%26XPORT%5XFAULT%4XPROC TRACE%/'),
       58     9997    1         2 * CHAR(0) INIT(' FAULT TYPE%17X#%4XREGISTER%3XTYPE  MODE SAFE-STORE FRAME%/'
              9997                  ),
       59     9998    1         2 * CHAR(0) INIT(' %24(-%) ---- %12(-%) ---- ----- %21(-%)%/'),
       60     9999    1         2 * CHAR(0) INIT (
              9999                  ' %A%29-%1.9O  %3P%12ZO   %2...14P%1.4O   %4P%3A  .%O IN %>A HJIT%/');
       61    10000        /*       HISTORY REGISTER TITLES */
       62    10001        %EQU VULINES=30;
       63    10002    1   DCL 1 VU_TITLE CONSTANT,
       64    10003    1         2 * CHAR(0) UNAL INIT('%/  --VIRTUAL UNIT HISTORY--%/'),
       65    10004    1         2 T1,
       66    10005    1           3 * CHAR(4) UNAL INIT('    '),
       67    10006    1           3 * CHAR(15) UNAL INIT('        F   FFW'),
       68    10007    1           3 * CHAR(15) UNAL INIT('               '),
       69    10008    1           3 * CHAR(5) UNAL INIT('F  SM'),
       70    10009    1           3 * CHAR(13) UNAL INIT(' STORE-FAULT '),
       71    10010    1           3 * CHAR(4) UNAL INIT(' P F'),
       72    10011    1           3 * CHAR(17) UNAL INIT('      DAMSEL1+3%/'),
PL6.E3A0      #001=DAB$HISTORY File=DAB$HISTORY.:E05TSI                          TUE 07/29/97 12:38 Page:3
       73    10012    1         2 T2,
       74    10013    1           3 * CHAR(4) UNAL INIT('    '),
       75    10014    1           3 * CHAR(15) UNAL INIT('      F AFF PPR'),
       76    10015    1           3 * CHAR(7) UNAL INIT('     FF'),
       77    10016    1           3 * CHAR(4) UNAL INIT('  FF'),
       78    10017    1           3 * CHAR(9) UNAL INIT('  FFV FLA'),
       79    10018    1           3 * CHAR(13) UNAL INIT(' |CMD-FAULT  '),
       80    10019    1           3 * CHAR(22) UNAL INIT(' ITE VVVV |DAMSEL2+3%/'),
       81    10020    1         2 T3,
       82    10021    1           3 * CHAR(4) UNAL INIT('    '),
       83    10022    1           3 * CHAR(11) UNAL INIT('     DA MPK'),
       84    10023    1           3 * CHAR(24) UNAL INIT(' TTP FFF CSF FXF ISU SAS'),
       85    10024    1           3 * CHAR(13) UNAL INIT(' ||VU-IPRFLT '),
       86    10025    1           3 * CHAR(21) UNAL INIT(' ARA AAAA ||VUFAULT%/'),
       87    10026    1         2 T4,
       88    10027    1           3 * CHAR(4) UNAL INIT('    '),
       89    10028    1           3 * CHAR(20) UNAL INIT('  OP FB CTT WWT VVC '),
       90    10029    1           3 * CHAR(15) UNAL INIT('LAX XID DSO SVT'),
       91    10030    1           3 * CHAR(14) UNAL INIT(' |||     REAL '),
       92    10031    1           3 * CHAR(23) UNAL INIT('VGV 2222 |||EXSEG-FLG%/'),
       93    10032    1         2 T5,
       94    10033    1           3 * CHAR(4) UNAL INIT('    '),
       95    10034    1           3 * CHAR(20) UNAL INIT('CODE AS HDW KDW 12D '),
       96    10035    1           3 * CHAR(15) UNAL INIT('RSD DDT TWP RER'),
       97    10036    1           3 * CHAR(14) UNAL INIT(' |||  ADDRESS '),
       98    10037    1           3 * CHAR(23) UNAL INIT('UOU 0123 ||||HLD-STRT%/');
       99    10038
      100    10039
      101    10040        %EQU CULINES=30;
      102    10041    1   DCL 1 CU_TITLE CONSTANT,
      103    10042    1         2 * CHAR(0) UNAL INIT('%/  --CONTROL UNIT HISTORY--%/'),
      104    10043    1         2 T1,
      105    10044    1           3 * CHAR(22) UNAL INIT('                      '),
      106    10045    1           3 * CHAR(1) UNAL INIT('A'),
      107    10046    1           3 * CHAR(33) UNAL INIT('                                 '),
      108    10047    1           3 * CHAR(1) UNAL INIT('I'),
      109    10048    1           3 * CHAR(7) UNAL INIT('       '),
PL6.E3A0      #001=DAB$HISTORY File=DAB$HISTORY.:E05TSI                          TUE 07/29/97 12:38 Page:4
      110    10049    1           3 * CHAR(4) UNAL INIT('D_%/'),
      111    10050    1         2 T2,
      112    10051    1           3 * CHAR(4) UNAL INIT('    '),
      113    10052    1           3 * CHAR(18) UNAL INIT('                  '),
      114    10053    1           3 * CHAR(1) UNAL INIT('R'),
      115    10054    1           3 * CHAR(4) UNAL INIT('   _'),
      116    10055    1           3 * CHAR(29) UNAL INIT('                             '),
      117    10056    1           3 * CHAR(12) UNAL INIT('NFC OCO IP%/'),
      118    10057    1         2 T3,
      119    10058    1           3 * CHAR(4) UNAL INIT('    '),
      120    10059    1           3 * CHAR(10) UNAL INIT('          '),
      121    10060    1           3 * CHAR(1) UNAL INIT('T'),
      122    10061    1           3 * CHAR(5) UNAL INIT('     '),
      123    10062    1           3 * CHAR(7) UNAL INIT('R | __B'),
      124    10063    1           3 * CHAR(29) UNAL INIT('                             '),
      125    10064    1           3 * CHAR(13) UNAL INIT('TEU UUU RCB%/'),
      126    10065    1         2 T4,
      127    10066    1           3 * CHAR(4) UNAL INIT('    '),
      128    10067    1           3 * CHAR(23) UNAL INIT('PPR SPP RSR XX  P F XFA'),
      129    10068    1           3 * CHAR(29) UNAL INIT('                             '),
      130    10069    1           3 * CHAR(13) UNAL INIT('XTS SLL EBU%/'),
      131    10070    1         2 T5,
      132    10071    1           3 * CHAR(4) UNAL INIT('    '),
      133    10072    1           3 * CHAR(27) UNAL INIT('IOI IOO AAG DDI TW/ ILS  OP'),
      134    10073    1           3 * CHAR(15) UNAL INIT('               '),
      135    10074    1           3 * CHAR(23) UNAL INIT('CMD  PORT ECT TOO CSS%/'),
      136    10075    1         2 T6,
      137    10076    1           3 * CHAR(4) UNAL INIT('    '),
      138    10077    1           3 * CHAR(33) UNAL INIT('AAW WTN WWO EOC SIE PTE CODE TAG '),
      139    10078    1           3 * CHAR(32) UNAL INIT('ADDREG  ABCDE ABCD CHR RDD TYY%/');
      140    10079
      141    10080        %EQU OULINES=30;
      142    10081    1   DCL 1 OU_TITLE CONSTANT,
      143    10082    1         2 * CHAR(0) UNAL INIT('%/  --OPERATIONS UNIT HISTORY--%/'),
      144    10083    1         2 T1,
      145    10084    1           3 * CHAR(4) UNAL INIT('    '),
      146    10085    1           3 * CHAR(11) UNAL INIT('           '),
PL6.E3A0      #001=DAB$HISTORY File=DAB$HISTORY.:E05TSI                          TUE 07/29/97 12:38 Page:5
      147    10086    1           3 * CHAR(9) UNAL INIT('CD -LREG/'),
      148    10087    1           3 * CHAR(6) UNAL INIT('   RRR'),
      149    10088    1           3 * CHAR(13) UNAL INIT('             '),
      150    10089    1           3 * CHAR(6) UNAL INIT('S _   '),
      151    10090    1           3 * CHAR(10) UNAL INIT('REGISTER%/'),
      152    10091    1         2 T2,
      153    10092    1           3 * CHAR(4) UNAL INIT('    '),
      154    10093    1           3 * CHAR(11) UNAL INIT('     9     '),
      155    10094    1           3 * CHAR(8) UNAL INIT('RR -SREG'),
      156    10095    1           3 * CHAR(7) UNAL INIT('    BPS'),
      157    10096    1           3 * CHAR(16) UNAL INIT(' FFF FFG FFF T D'),
      158    10097    1           3 * CHAR(13) UNAL INIT('      USAGE%/'),
      159    10098    1         2 T3,
      160    10099    1           3 * CHAR(4) UNAL INIT('    '),
      161    10100    1           3 * CHAR(11) UNAL INIT('     B     '),
      162    10101    1           3 * CHAR(12) UNAL INIT('FF |----    '),
      163    10102    1           3 * CHAR(19) UNAL INIT('FFF GGG GGF GGG R A'),
      164    10103    1           3 * CHAR(13) UNAL INIT('   ________%/'),
      165    10104    1         2 T4,
      166    10105    1           3 * CHAR(4) UNAL INIT('    '),
      167    10106    1           3 * CHAR(15) UNAL INIT('  RP I TAG LL |'),
      168    10107    1           3 * CHAR(8) UNAL INIT('     RS '),
      169    10108    1           3 * CHAR(19) UNAL INIT('UUU IOD DOO OOO A T'),
      170    10109    1           3 * CHAR(19) UNAL INIT(' __XXXXXXXX  ICT%/'),
      171    10110    1         2 T5,
      172    10111    1           3 * CHAR(3) UNAL INIT('   '),
      173    10112    1           3 * CHAR(23) UNAL INIT('CODE T 345 GG CTR CODE '),
      174    10113    1           3 * CHAR(30) UNAL INIT('LLL NS1 2EA MNF V A AQ01234567'),
      175    10114    1           3 * CHAR(9) UNAL INIT('  TRACK%/');
      176    10115
      177    10116        %EQU DULINES=30;
      178    10117    1   DCL 1 DU_TITLE CONSTANT,
      179    10118    1         2 * CHAR(0) UNAL INIT('%/  --DECIMAL UNIT HISTORY--%/'),
      180    10119    1         2 T1,
      181    10120    1           3 * CHAR(4) UNAL INIT('    '),
      182    10121    1           3 * CHAR(20) UNAL INIT('  NS     DD    DDRPP'),
      183    10122    1           3 * CHAR(16) UNAL INIT('     N  F   FAII'),
PL6.E3A0      #001=DAB$HISTORY File=DAB$HISTORY.:E05TSI                          TUE 07/29/97 12:38 Page:6
      184    10123    1           3 * CHAR(14) UNAL INIT('     N  N   LL'),
      185    10124    1           3 * CHAR(24) UNAL INIT(' DWG  E L A B DDDFFA D%/'),
      186    10125    1         2 T2,
      187    10126    1           3 * CHAR(4) UNAL INIT('    '),
      188    10127    1           3 * CHAR(20) UNAL INIT('  EE D  DDDD  EEEDTT'),
      189    10128    1           3 * CHAR(16) UNAL INIT(' FFFWIS OB SRDNN'),
      190    10129    1           3 * CHAR(21) UNAL INIT(' DGGGLG LGAADD ARSASN'),
      191    10130    1           3 * CHAR(17) UNAL INIT(' EGNEL GGGLRD M%/'),
      192    10131    1         2 T3,
      193    10132    1           3 * CHAR(4) UNAL INIT('    '),
      194    10133    1           3 * CHAR(20) UNAL INIT('FFELDF FLUURD XNN+RR'),
      195    10134    1           3 * CHAR(23) UNAL INIT(' AAARNI UI ASJTS UDDDDL'),
      196    10135    1           3 * CHAR(32) UNAL INIT(' DLNNWW TTTNTD NCPXN BDSTND PD%/'),
      197    10136    1         2 T4,
      198    10137    1           3 * CHAR(4) UNAL INIT('    '),
      199    10138    1           3 * CHAR(20) UNAL INIT('PPDALR EALSEL HDDWAA'),
      200    10139    1           3 * CHAR(23) UNAL INIT(' ///DEX RT MTLRT DLLLPD'),
      201    10140    1           3 * CHAR(32) UNAL INIT(' 2DLLRR AIRSRS 1HKMK DBPGDG +X%/'),
      202    10141    1         2 T5,
      203    10142    1           3 * CHAR(4) UNAL INIT('    '),
      204    10143    1           3 * CHAR(20) UNAL INIT('OODDES XSDTDV BSIR00'),
      205    10144    1           3 * CHAR(23) UNAL INIT(' IIIBBB BB PCEPC DDDDDP'),
      206    10145    1           3 * CHAR(32) UNAL INIT(' DPDDTT ADDTOE 2DDOD DPDDDA DP%/'),
      207    10146    1         2 T6,
      208    10147    1           3 * CHAR(4) UNAL INIT('    '),
      209    10148    1           3 * CHAR(20) UNAL INIT('LPRRNT RTEROL GQST01'),
      210    10149    1           3 * CHAR(23) UNAL INIT(' 123DDD DD LTNT1 GABCP1'),
      211    10150    1           3 * CHAR(32) UNAL INIT(' P21212 VPPRPG 8PPPP CCCCGT VN%/');
      212    10151
      213    10152        %EQU ELSLINES=38;
      214    10153    1   DCL 1 ELS_TITLE CONSTANT,
      215    10154    1         2 * CHAR(0) INIT('%/  --HISTORY REGISTERS--%/'),
      216    10155    1         2 T1,
      217    10156    1           3 * CHAR(31) UNAL INIT(' '),
      218    10157    1           3 * CHAR(0) UNAL INIT('FIRST C-CYCLE'),
      219    10158    1           3 * CHAR(0) UNAL INIT(' PAGING%/'),
      220    10159    1         2 T2,
PL6.E3A0      #001=DAB$HISTORY File=DAB$HISTORY.:E05TSI                          TUE 07/29/97 12:38 Page:7
      221    10160    1           3 * CHAR(33) UNAL INIT(' '),
      222    10161    1           3 * CHAR(0) UNAL INIT('IC BIT 17 |'),
      223    10162    1           3 * CHAR(0) UNAL INIT(' | PTW RE-WRITE%/'),
      224    10163    1         2 T3,
      225    10164    1           3 * CHAR(0) UNAL INIT('    FORCE ECS OUTPUT NOP'),
      226    10165    1           3 * CHAR(6) UNAL INIT(' '),
      227    10166    1           3 * CHAR(0) UNAL INIT('INST FETCH | |'),
      228    10167    1           3 * CHAR(0) UNAL INIT(' | | PRE-PAGE SEQUENCE%/'),
      229    10168    1         2 T4,
      230    10169    1           3 * CHAR(0) UNAL INIT('    | MICRO STEP END'),
      231    10170    1           3 * CHAR(7) UNAL INIT(' '),
      232    10171    1           3 * CHAR(0) UNAL INIT('DIRECT OPER | | |'),
      233    10172    1           3 * CHAR(0) UNAL INIT(' | | | RETRY%/'),
      234    10173    1         2 T5,
      235    10174    1           3 * CHAR(0) UNAL INIT('    | |'),
      236    10175    1           3 * CHAR(16) UNAL INIT(' '),
      237    10176    1           3 * CHAR(0) UNAL INIT('DW MEM ACCESS | | | |'),
      238    10177    1           3 * CHAR(0) UNAL INIT(' | | | | PORT BUSY%/'),
      239    10178    1         2 T6 CHAR(0) INIT('%4X| |%14XSTORE COMMAND %10(| %)CACHE BLOCK LOAD REQ%/'),
      240    10179    1         2 T7,
      241    10180    1           3 * CHAR(0) UNAL INIT('    | |'),
      242    10181    1           3 * CHAR(7) UNAL INIT(' '),
      243    10182    1           3 * CHAR(0) UNAL INIT('HEALS RETRY FLAG   | | | | | |'),
      244    10183    1           3 * CHAR(0) UNAL INIT(' | | | | | | BYPASS READ%/'),
      245    10184    1         2 T8,
      246    10185    1           3 * CHAR(0) UNAL INIT('    | |'),
      247    10186    1           3 * CHAR(7) UNAL INIT(' '),
      248    10187    1           3 * CHAR(0) UNAL INIT('| PREP OPER ADDR   | | | | | |'),
      249    10188    1           3 * CHAR(0) UNAL INIT(' | | | | | | |%/'),
      250    10189    1         2 T9,
      251    10190    1           3 * CHAR(0) UNAL INIT('    | |'),
      252    10191    1           3 * CHAR(7) UNAL INIT(' '),
      253    10192    1           3 * CHAR(0) UNAL INIT('| | PREP INST ADDR | | | | F |'),
      254    10193    1           3 * CHAR(0) UNAL INIT(' | | | | | F F%/'),
      255    10194    1         2 T10,
      256    10195    1           3 * CHAR(0) UNAL INIT('    | |'),
      257    10196    1           3 * CHAR(7) UNAL INIT(' '),
PL6.E3A0      #001=DAB$HISTORY File=DAB$HISTORY.:E05TSI                          TUE 07/29/97 12:38 Page:8
      258    10197    1           3 * CHAR(0) UNAL INIT('H | |'),
      259    10198    1           3 * CHAR(14) UNAL INIT(' '),
      260    10199    1           3 * CHAR(0) UNAL INIT('F F F D I S'),
      261    10200    1           3 * CHAR(0) UNAL INIT(' | F | F | B B%/'),
      262    10201    1         2 T11,
      263    10202    1           3 * CHAR(0) UNAL INIT('    D c'),
      264    10203    1           3 * CHAR(7) UNAL INIT(' '),
      265    10204    1           3 * CHAR(0) UNAL INIT('E D F'),
      266    10205    1           3 * CHAR(14) UNAL INIT(' '),
      267    10206    1           3 * CHAR(0) UNAL INIT('S D D P C P'),
      268    10207    1           3 * CHAR(0) UNAL INIT(' D W D R D L Y%/'),
      269    10208    1         2 T12,
      270    10209    1           3 * CHAR(0) UNAL INIT('    I E'),
      271    10210    1           3 * CHAR(7) UNAL INIT(' '),
      272    10211    1           3 * CHAR(0) UNAL INIT('A P P      I       '),
      273    10212    1           3 * CHAR(0) UNAL INIT('T B I I 1 O'),
      274    10213    1           3 * CHAR(0) UNAL INIT(' P P P T B K P%/'),
      275    10214    1         2 T13,
      276    10215    1           3 * CHAR(0) UNAL INIT('    D N   ECS '),
      277    10216    1           3 * CHAR(0) UNAL INIT('L O I  OP  N A     '),
      278    10217    1           3 * CHAR(0) UNAL INIT('R L R A 7 A'),
      279    10218    1           3 * CHAR(0) UNAL INIT(' G T P R S L R    REAL%/'),
      280    10219    1         2 T14,
      281    10220    1           3 * CHAR(0) UNAL INIT('    L D  ADDR '),
      282    10221    1           3 * CHAR(0) UNAL INIT('S A A CODE H R TAG '),
      283    10222    1           3 * CHAR(0) UNAL INIT('C C C C C C'),
      284    10223    1           3 * CHAR(0) UNAL INIT(' F W G Y Y D D  ADDRESS%/');
      285    10224
      286    10225    1   DCL 1 DPSE_VU_TITLE CONSTANT,
      287    10226    1         2 * CHAR(0) INIT('%/  --VIRTUAL UNIT HISTORY REGISTERS--%/');
      288    10227    1   DCL 1 DPSE_CUOUDU_TITLE CONSTANT,
      289    10228    1         2 * CHAR(0) INIT(
             10228                  '%/  --CONTROL, OPERATIONS, AND DECIMAL UNIT HISTORY REGISTERS--%/');
      290    10229
      291    10230        %EQU DPS90LINES = 19;
      292    10231    1   DCL 1 DPS90_TITLE CONSTANT,
      293    10232    1         2 * CHAR(0) INIT('%/  --HISTORY REGISTERS--%/');
PL6.E3A0      #001=DAB$HISTORY File=DAB$HISTORY.:E05TSI                          TUE 07/29/97 12:38 Page:9
      294    10233        %EQU DPS8000LINES = 30;
      295    10234    1   DCL 1 DPS8000_TITLE CONSTANT,
      296    10235    1         2 * CHAR(0) INIT('%/  --HISTORY REGISTERS--%/'),
      297    10236    1         2 T1,
      298    10237    1           3 * CHAR(4) INIT('    '),
      299    10238    1           3 * CHAR(22) INIT('                      '),
      300    10239    1           3 * CHAR(0) INIT('F                       F%/'),
      301    10240    1         2 T2,
      302    10241    1           3 * CHAR(4) INIT('    '),
      303    10242    1           3 * CHAR(22) INIT('                      '),
      304    10243    1           3 * CHAR(0) INIT('S F                   F B%/'),
      305    10244    1         2 T3,
      306    10245    1           3 * CHAR(4) INIT('    '),
      307    10246    1           3 * CHAR(22) INIT('                      '),
      308    10247    1           3 * CHAR(0) INIT('T D F               P B Y%/'),
      309    10248    1         2 T4,
      310    10249    1           3 * CHAR(4) INIT('    '),
      311    10250    1           3 * CHAR(22) INIT('                      '),
      312    10251    1           3 * CHAR(0) INIT('R B D I           R T L R%/'),
      313    10252    1         2 T5,
      314    10253    1           3 * CHAR(4) INIT('    '),
      315    10254    1           3 * CHAR(22) INIT('                      '),
      316    10255    1           3 * CHAR(0) INIT('C L I N F       D E B K D%/'),
      317    10256    1         2 T6,
      318    10257    1           3 * CHAR(4) INIT('    '),
      319    10258    1           3 * CHAR(24) INIT('        C   F         '),
      320    10259    1           3 * CHAR(0) INIT('| C R S I D   P P T U L |%/'),
      321    10260    1         2 T7,
      322    10261    1           3 * CHAR(4) INIT('    '),
      323    10262    1           3 * CHAR(22) INIT('D       E D P       R '),
      324    10263    1           3 * CHAR(0) INIT('| | C F C O D T P R S D |%/'),
      325    10264    1         2 T8,
      326    10265    1           3 * CHAR(4) INIT('    '),
      327    10266    1           3 * CHAR(22) INIT('I       N P I       S '),
      328    10267    1           3 * CHAR(0) INIT('| | | C 1 O P W G Y Y | |%/'),
      329    10268    1         2 T9,
      330    10269    1           3 * CHAR(4) INIT('    '),
PL6.E3A0      #001=DAB$HISTORY File=DAB$HISTORY.:E05TSI                          TUE 07/29/97 12:38 Page:10
      331    10270    1           3 * CHAR(22) INIT('D       D O A       I '),
      332    10271    1           3 * CHAR(0) INIT('| | | H 7 A G | | D | | |%/'),
      333    10272    1         2 T10,
      334    10273    1           3 * CHAR(4) INIT('    '),
      335    10274    1           3 * CHAR(22) INIT('L  ECS  | A | RBIR  R '),
      336    10275    1           3 * CHAR(0) INIT('| | | | C C F | | B | | |   MEM ADDR%/');
      337    10276
      338    10277
      339    10278                                                /*  OUTPUT LINE FORMATS               */
      340    10279
      341    10280    1   DCL 1 L66_VU_FMT CONSTANT,
      342    10281    1         2 * CHAR(0) INIT('%2ZD: '),
      343    10282    1         2 * CHAR(0) INIT('%3P%4ZO %2...10P%2.2ZB %8(%3.3ZB %)'),
      344    10283    1         2 * CHAR(0) INIT('%8.24ZO %3.3ZB %4.4ZB %5.5ZB%10P');
      345    10284
      346    10285    1   DCL 1 L66_CU_FMT CONSTANT,
      347    10286    1         2 * CHAR(0) INIT('%2ZD: '),
      348    10287    1         2 * CHAR(0) INIT('%6(%3.3ZB %)%4.12ZO %2.6ZO  '),
      349    10288    1         2 * CHAR(0) INIT('%6.18ZO  %5.5ZB %4.4ZB %3(%3.3ZB %)%10P');
      350    10289
      351    10290    1   DCL 1 L66_OU_FMT CONSTANT,
      352    10291    1         2 * CHAR(0) INIT('%2ZD:  '),
      353    10292    1         2 * CHAR(0) INIT('%3.9ZO %1.1B %3.3ZB %1.1B%1.1B  %2.2ZB  '),
      354    10293    1         2 * CHAR(0) INIT('%2...18P%3.9ZO %4(%3.3ZB %)'),
      355    10294    1         2 * CHAR(0) INIT('%2(%1.1B %)%10.10ZB  %2.1..18P%6.18ZO%10P');
      356    10295
      357    10296    1   DCL 1 L66_DU_FMT CONSTANT,
      358    10297    1         2 * CHAR(0) INIT('%2ZD: '),
      359    10298    1         2 * CHAR(0) INIT('%4(%6.6ZB %)%2.2ZB %2...30P%5.5ZB '),
      360    10299    1         2 * CHAR(0) INIT('%2.1P%3(%6.6ZB %)%5.5ZB %2.1..24P%6.6ZB %2.2ZB%10P');
      361    10300
      362    10301    1   DCL 1 ELS_FMT CONSTANT,
      363    10302    1         2 * CHAR(0) INIT('%2.ZD: '),
      364    10303    1         2 * CHAR(0) INIT('%2(%1.1B %)%5.13ZO %3(%1.1B %)%3P%4ZO '),
      365    10304    1         2 * CHAR(0) INIT('%2...28P%2(%1.1B %)%2.6ZO  '),
      366    10305    1         2 * CHAR(0) INIT('%2.1..18P%13(%1.1B %)%2.5ZO%2.1P%6.18ZO%10P');
      367    10306
PL6.E3A0      #001=DAB$HISTORY File=DAB$HISTORY.:E05TSI                          TUE 07/29/97 12:38 Page:11
      368    10307    1   DCL 1 DPSE_VU_FMT CONSTANT,
      369    10308    1         2 * CHAR(0) INIT('%2ZD: '),
      370    10309    1         2 * CHAR(0) INIT('%1.3O %2(%2.6ZO %)%1.3O %2.6ZO %4.12ZO   '),
      371    10310    1         2 * CHAR(0) INIT('%0.1.0.2P%12.34ZO-%2.1P%1.2O   '),
      372    10311    1         2 * CHAR(0) INIT('%3P%10.30ZO %1.1B %1.2O %1.3O   '),
      373    10312    1         2 * CHAR(0) INIT('%4P%4ZO   '),
      374    10313    1         2 * CHAR(0) INIT('%3.1.0.10P%4.10ZO %1.2O %5.14ZO%10P');
      375    10314
      376    10315    1   DCL 1 DPSE_CUOUDU_FMT CONSTANT,
      377    10316    1         2 * CHAR(0) INIT('%2ZD: '),
      378    10317    1         2 * CHAR(0) INIT('%12ZO %8.24ZO %4.12ZO   '),
      379    10318    1         2 * CHAR(0) INIT('%12ZO %6.18ZO %6.18ZO%10P');
      380    10319
      381    10320    1   DCL 1 DPS90_FMT CONSTANT,
      382    10321    1         2 * CHAR(0) INIT('%8X.%6.18ZO%0.18S ');
      383    10322    1   DCL 1 DPS8000_FMT CONSTANT,
      384    10323    1         2 * CHAR(0) INIT('%2ZD: '),
      385    10324    1         2 * CHAR(0) INIT('%1.1B %5.14ZO %1.1B %1.1B %1.1B %4.12ZO %2.6ZO'),
      386    10325    1         2 * CHAR(0) INIT('%0.23S %13(%1.1B %)'),
      387    10326    1         2 * CHAR(0) INIT('%0.8S %10.28ZO  %0.36S');
      388    10327
      389    10328    1   DCL ONEBLANKLINE CHAR(0) CONSTANT INIT('%/');
      390    10329    1   DCL TWOBLANKLINES CHAR(0) CONSTANT INIT('%2/');
      391    10330    1   DCL NOYES(0:1) CHAR(3) CONSTANT INIT(' NO','YES');
      392    10331    1   DCL WHOS_HJIT(0:7) CHAR(7) CONSTANT INIT('MONITOR','?'*6,'USER');
      393    10332
      394    10333                                                /*  B A S E D  S T R U C T U R E S    */
      395    10334
      396    10335    1   DCL 1 L66HR_BASED DALIGNED BASED(HR$),
      397    10336    1         2 CU (0:15) BIT(72),
      398    10337    1         2 OU (0:15) BIT(72),
      399    10338    1         2 VU (0:15),
      400    10339    1           3 OPCODE UBIN(10) UNAL,
      401    10340    1           3 * BIT(62) UNAL,
      402    10341    1         2 DU (0:15) BIT(72);
      403    10342
      404    10343    1   DCL 1 ELSHR_BASED (0:15) DALIGNED BASED(HR$),
PL6.E3A0      #001=DAB$HISTORY File=DAB$HISTORY.:E05TSI                          TUE 07/29/97 12:38 Page:12
      405    10344    1         2 * BIT(18) UNAL,
      406    10345    1         2 OPCODE UBIN(10) UNAL,
      407    10346    1         2 * BIT(44) UNAL;
      408    10347
      409    10348    1   DCL 1 DPSEHR_BASED DALIGNED BASED(HR$),
      410    10349    1          2 CU (0:63) BIT(72),
      411    10350    1          2 OUDU (0:63) BIT(72),
      412    10351    1          2 VU1 (0:63) BIT(72),
      413    10352    1          2 VU2 (0:63),
      414    10353    1            3 * BIT(36) UNAL,
      415    10354    1            3 OPCODE UBIN(10) UNAL,
      416    10355    1            3 * BIT(26) UNAL;
      417    10356
      418    10357    1   DCL 1 DPS90HR_BASED(0:15)  BASED(HR$),
      419    10358    1         2 IC UBIN(36) ALIGNED;
      420    10359    1   DCL   1 DPS8000HR_BASED(0:63) DALIGNED BASED(HR$),
      421    10360    1           2 EX_OP BIT(36) ALIGNED,
      422    10361    1           2 FLGS BIT(36) ALIGNED,
      423    10362    1           2 RMA BIT(36) ALIGNED,
      424    10363    1           2 ZEROES BIT(36) ALIGNED;
      425    10364        /**/
      426    10365    1   DCL 1 AUTOFRAME BASED(AF$) DALIGNED,
      427    10366    1         2 RETADR UBIN HALF HALIGNED,
      428    10367    1         2 PREV_FRAME UBIN HALF HALIGNED,
      429    10368    1         2 FRAME_EXT UBIN HALF HALIGNED,
      430    10369    1         2 LANG_IDENT UBIN HALF HALIGNED,
      431    10370    1         2 NEXT_FRAME UBIN HALF HALIGNED,
      432    10371    1         2 ENT_LOC UBIN HALF HALIGNED,
      433    10372    1         2 JUNK(0:20) UBIN,
      434    10373    1         2 MODE BIT(72),
      435    10374    1         2 SSR,
      436    10375    1           3 BOUND UBIN(20) UNAL,
      437    10376    1           3 FLAGS BIT(9) UNAL,
      438    10377    1           3 WSR UBIN(3) UNAL,
      439    10378    1           3 TYPE UBIN(4) UNAL,
      440    10379    1           3 BASE,
      441    10380    1             4 PAGE UBIN(24) UNAL,
PL6.E3A0      #001=DAB$HISTORY File=DAB$HISTORY.:E05TSI                          TUE 07/29/97 12:38 Page:13
      442    10381    1             4 WRD UBIN(10) UNAL,
      443    10382    1             4 BYT UBIN(2) UNAL,
      444    10383    1         2 * UBIN WORD UNAL,
      445    10384    1         2 SUBCODE,
      446    10385    1           3 PORT UBIN(9) UNAL,
      447    10386    1           3 * BIT(4) UNAL,
      448    10387    1           3 TTM UBIN(1) UNAL,
      449    10388    1           3 PTYPE UBIN(4) UNAL,
      450    10389    1           3 SUBCODE UBIN(18) UNAL,
      451    10390    1         2 FLTREG BIT(36) UNAL,
      452    10391    1         2 ERROR,
      453    10392    1           3 * BIT(19) UNAL,
      454    10393    1           3 CODE UBIN(14) UNAL,
      455    10394    1           3 SEV UBIN(3) UNAL,
      456    10395    1         2 WORDS UBIN UNAL,
      457    10396    1         2 *     UBIN UNAL,
      458    10397    1         2 HREGS(0:511) UBIN;
      459    10398        %EJECT;
PL6.E3A0      #001=DAB$HISTORY File=DAB$HISTORY.:E05TSI                          TUE 07/29/97 12:38 Page:14
      460    10399    1           HR$=ADDR(ADDR(LOC)->AUTOFRAME.HREGS);
      461    10400    1           AF$ = PINCRW(HR$,-34);
      462    10401    1           IF NOT AUTOFLAG OR
      463    10402    1            ((FRAMESIZE = 34 AND AUTOFRAME.WORDS =0)
      464    10403    1            OR (FRAMESIZE = 34+128 AND AUTOFRAME.WORDS = 128)
      465    10404    1            OR (FRAMESIZE = 34+32 AND AUTOFRAME.WORDS = 32)
      466    10405    1            OR (FRAMESIZE = 34+512 AND AUTOFRAME.WORDS = 512)
      467    10406    1            OR (FRAMESIZE = 34+256 AND AUTOFRAME.WORDS = 256)
      468    10407    1            OR (FRAMESIZE = 34+16 AND AUTOFRAME.WORDS = 16))
      469    10408    2           THEN DO;
      470    10409    2              IF RPT.PAGELEN.N>0 AND RPT.PAGELEN.N - RPT.CURLINE < %FINFOLINES
      471    10410    2              THEN CALL DAF$NEWPAGE;
      472    10411    2              ELSE IF AUTOFLAG THEN CALL DAF$WRITE(VECTOR(ONEBLANKLINE));
      473    10412    2              IF AUTOFRAME.ERROR.CODE > %S$SCL2
      474    10413    2                OR AUTOFRAME.ERROR.CODE < %S$SDOWN
      475    10414    2              THEN FAULT_TYPE = ' ';
      476    10415    2              ELSE FAULT_TYPE = DAB$FLTCODE(AUTOFRAME.ERROR.CODE - %S$SDOWN);
      477    10416    2              SSR_OFFSET = AUTOFRAME.SSR.BASE.WRD
      478    10417    2               + 1024 * MOD(AUTOFRAME.SSR.BASE.PAGE,%HJITPG);
      479    10418    2              CALL DAF$WRITE(VECTOR(FINFOFMT),
      480    10419    2                             VECTOR(FAULT_TYPE),
      481    10420    2                             VECTOR(AUTOFRAME.SUBCODE),
      482    10421    2                             VECTOR(AUTOFRAME.FLTREG),
      483    10422    2                             VECTOR(NOYES(AUTOFRAME.SUBCODE.TTM)),
      484    10423    2                             VECTOR(SSR_OFFSET),
      485    10424    2                             VECTOR(WHOS_HJIT(AUTOFRAME.SSR.WSR)));
      486    10425    2              END;
      487    10426    1           VEC_LCNT = VECTOR(LCNT);
      488    10427    1           VEC_OPCODE = VECTOR(OPCODE);
      489    10428    1           IF FORCE < 0
      490    10429    1           THEN PTYPE = AUTOFRAME.SUBCODE.PTYPE;
      491    10430    1           ELSE PTYPE = FORCE;
      492    10431    2           DO CASE(PTYPE);
      493    10432    2              CASE(%L66);
      494    10433    2                 IF FORCE >= 0 OR AUTOFRAME.WORDS = 128
      495    10434    2                 THEN CALL L66HIST;
      496    10435    2                 ELSE GOTO NOHISTREGS;
PL6.E3A0      #001=DAB$HISTORY File=DAB$HISTORY.:E05TSI                          TUE 07/29/97 12:38 Page:15
      497    10436    2              CASE(%DPSE);
      498    10437    2                 IF FORCE >= 0 OR AUTOFRAME.WORDS = 512
      499    10438    2                 THEN CALL DPSEHIST;
      500    10439    2                 ELSE GOTO NOHISTREGS;
      501    10440    2              CASE(%ELS1);
      502    10441    2                 IF FORCE >= 0 OR AUTOFRAME.WORDS = 32
      503    10442    2                 THEN CALL ELSHIST;
      504    10443    2                 ELSE GOTO NOHISTREGS;
      505    10444    2              CASE(ELSE);
      506    10445    2                 RETURN;
      507    10446    2              CASE(%DPS90,%DPS90XA);
      508    10447    2                 IF FORCE>=0 OR AUTOFRAME.WORDS = 16
      509    10448    2                 THEN CALL DPS90HIST;
      510    10449    2                 ELSE GOTO NOHISTREGS;
      511    10450    2              CASE(%DPS8000);
      512    10451    2                 IF FORCE >= 0 OR AUTOFRAME.WORDS = 256
      513    10452    2                 THEN CALL DPS8000HIST;
      514    10453    2                 ELSE GOTO NOHISTREGS;
      515    10454    2              END;
      516    10455    1           IF AUTOFLAG
      517    10456    1           THEN CALL DAF$WRITE(VECTOR(TWOBLANKLINES));
      518    10457    1   NOHISTREGS:
      519    10458    1           RETURN;
      520    10459        %EJECT;
PL6.E3A0      #001=DAB$HISTORY File=DAB$HISTORY.:E05TSI                          TUE 07/29/97 12:38 Page:16
      521    10460    1   L66HIST: PROC;
      522    10461    2           CALL XUR$DISABLE;
      523    10462    2           IF RPT.PAGELEN.N>0 AND RPT.PAGELEN.N-RPT.CURLINE<%VULINES
      524    10463    2           THEN CALL DAF$NEWPAGE;
      525    10464    2           CALL DAF$WRITE(VECTOR(VU_TITLE));
      526    10465    3           DO LCNT=0 TO 15;
      527    10466    3              OPCODE = 4 * L66HR_BASED.VU.OPCODE(LCNT);
      528    10467    3              CALL CHECK_BREAK ALTRET(L66CU);
      529    10468    3              CALL DAF$WRITE(VECTOR(L66_VU_FMT),
      530    10469    3                             VEC_LCNT,
      531    10470    3                             VECTOR(L66HR_BASED.VU(LCNT)),
      532    10471    3                             VEC_OPCODE);
      533    10472    3              END;
      534    10473    2   L66CU:
      535    10474    2           IF RPT.PAGELEN.N>0 AND RPT.PAGELEN.N-RPT.CURLINE<%CULINES
      536    10475    2           THEN CALL DAF$NEWPAGE;
      537    10476    2           ELSE IF AUTOFLAG THEN CALL DAF$WRITE(VECTOR(ONEBLANKLINE));
      538    10477    2           CALL DAF$WRITE(VECTOR(CU_TITLE));
      539    10478    3           DO LCNT=0 TO 15;
      540    10479    3              CALL CHECK_BREAK ALTRET(L66OU);
      541    10480    3              CALL DAF$WRITE(VECTOR(L66_CU_FMT),
      542    10481    3                             VEC_LCNT,
      543    10482    3                             VECTOR(L66HR_BASED.CU(LCNT)));
      544    10483    3              END;
      545    10484    2   L66OU:
      546    10485    2           IF RPT.PAGELEN.N>0 AND RPT.PAGELEN.N-RPT.CURLINE<%OULINES
      547    10486    2           THEN CALL DAF$NEWPAGE;
      548    10487    2           ELSE IF AUTOFLAG THEN CALL DAF$WRITE(VECTOR(ONEBLANKLINE));
      549    10488    2           CALL DAF$WRITE(VECTOR(OU_TITLE));
      550    10489    3           DO LCNT=0 TO 15;
      551    10490    3              CALL CHECK_BREAK ALTRET(L66DU);
      552    10491    3              CALL DAF$WRITE(VECTOR(L66_OU_FMT),
      553    10492    3                             VEC_LCNT,
      554    10493    3                             VECTOR(L66HR_BASED.OU(LCNT)));
      555    10494    3              END;
      556    10495    2   L66DU:
      557    10496    2           IF RPT.PAGELEN.N>0 AND RPT.PAGELEN.N-RPT.CURLINE<%DULINES
PL6.E3A0      #001=DAB$HISTORY File=DAB$HISTORY.:E05TSI                          TUE 07/29/97 12:38 Page:17
      558    10497    2           THEN CALL DAF$NEWPAGE;
      559    10498    2           ELSE IF AUTOFLAG THEN CALL DAF$WRITE(VECTOR(ONEBLANKLINE));
      560    10499    2           CALL DAF$WRITE(VECTOR(DU_TITLE));
      561    10500    3           DO LCNT=0 TO 15;
      562    10501    3              CALL CHECK_BREAK ALTRET(L66END);
      563    10502    3              CALL DAF$WRITE(VECTOR(L66_DU_FMT),
      564    10503    3                             VEC_LCNT,
      565    10504    3                             VECTOR(L66HR_BASED.DU(LCNT)));
      566    10505    3              END;
      567    10506    2   L66END: CALL XUR$CLRENABLE;
      568    10507    2           RETURN;
      569    10508    2   END L66HIST;
      570    10509        %EJECT;
PL6.E3A0      #001=DAB$HISTORY File=DAB$HISTORY.:E05TSI                          TUE 07/29/97 12:38 Page:18
      571    10510    1   ELSHIST: PROC;
      572    10511    2           CALL XUR$DISABLE;
      573    10512    2           IF RPT.PAGELEN.N>0 AND RPT.PAGELEN.N-RPT.CURLINE<%ELSLINES
      574    10513    2           THEN CALL DAF$NEWPAGE;
      575    10514    2           CALL DAF$WRITE(VECTOR(ELS_TITLE));
      576    10515    3           DO LCNT=0 TO 15;
      577    10516    3              OPCODE = 4 * ELSHR_BASED.OPCODE(LCNT);
      578    10517    3              CALL CHECK_BREAK ALTRET(ELSEND);
      579    10518    3              CALL DAF$WRITE(VECTOR(ELS_FMT),
      580    10519    3                             VEC_LCNT,
      581    10520    3                             VECTOR(ELSHR_BASED(LCNT)),
      582    10521    3                             VEC_OPCODE);
      583    10522    3              END;
      584    10523    2   ELSEND: CALL XUR$CLRENABLE;
      585    10524    2           RETURN;
      586    10525    2   END ELSHIST;
      587    10526        %EJECT;
PL6.E3A0      #001=DAB$HISTORY File=DAB$HISTORY.:E05TSI                          TUE 07/29/97 12:38 Page:19
      588    10527    1   DPSEHIST: PROC;
      589    10528    2           CALL XUR$DISABLE;
      590    10529    2           IF RPT.PAGELEN.N>0 AND RPT.PAGELEN.N-RPT.CURLINE<30
      591    10530    2           THEN CALL DAF$NEWPAGE;
      592    10531    2           CALL DAF$WRITE(VECTOR(DPSE_VU_TITLE));
      593    10532    3           DO I = 63 DOWNTO 0;
      594    10533    3              DPSEVU1HR = DPSEHR_BASED.VU1(I) \ '000770007303600000777777'O;
      595    10534    3              OPCODE = 4 * DPSEHR_BASED.VU2.OPCODE(I);
      596    10535    3              IF I = 63
      597    10536    3              THEN LCNT = 0;
      598    10537    3              ELSE LCNT = I+1;
      599    10538    3              CALL CHECK_BREAK ALTRET(DPSECUOUDU);
      600    10539    3              CALL DAF$WRITE(VECTOR(DPSE_VU_FMT),
      601    10540    3                             VEC_LCNT,
      602    10541    3                             VECTOR(DPSEVU1HR),
      603    10542    3                             VECTOR(DPSEHR_BASED.VU2(I)),
      604    10543    3                             VEC_OPCODE);
      605    10544    3              END;
      606    10545    2   DPSECUOUDU:
      607    10546    2           IF RPT.PAGELEN.N>0 AND RPT.PAGELEN.N-RPT.CURLINE<32
      608    10547    2           THEN CALL DAF$NEWPAGE;
      609    10548    2           CALL DAF$WRITE(VECTOR(DPSE_CUOUDU_TITLE));
      610    10549    3           DO I = 63 DOWNTO 0;
      611    10550    3              IF I = 63
      612    10551    3              THEN LCNT = 0;
      613    10552    3              ELSE LCNT = I+1;
      614    10553    3              CALL CHECK_BREAK ALTRET(DPSEND);
      615    10554    3              CALL DAF$WRITE(VECTOR(DPSE_CUOUDU_FMT),
      616    10555    3                             VEC_LCNT,
      617    10556    3                             VECTOR(DPSEHR_BASED.CU(I)),
      618    10557    3                             VECTOR(DPSEHR_BASED.OUDU(I)));
      619    10558    3              END;
      620    10559    2   DPSEND: CALL XUR$CLRENABLE;
      621    10560    2           RETURN;
      622    10561    2   END DPSEHIST;
      623    10562        %EJECT;
PL6.E3A0      #001=DAB$HISTORY File=DAB$HISTORY.:E05TSI                          TUE 07/29/97 12:38 Page:20
      624    10563    1   DPS90HIST: PROC;
      625    10564    2         CALL XUR$DISABLE;
      626    10565    2         IF RPT.PAGELEN.N>0 AND RPT.PAGELEN.N-RPT.CURLINE<%DPS90LINES
      627    10566    2         THEN CALL DAF$NEWPAGE;
      628    10567    2         CALL DAF$WRITE (VECTOR(DPS90_TITLE));
      629    10568    3         DO LCNT=15 DOWNTO 0;
      630    10569    3            CALL CHECK_BREAK ALTRET (DPS90END);
      631    10570    3            CALL DAF$WRITE (VECTOR(DPS90_FMT), VECTOR(DPS90HR_BASED(LCNT)));
      632    10571    3            END;
      633    10572    2   DPS90END: CALL XUR$CLRENABLE;
      634    10573    2         RETURN;
      635    10574    2   END DPS90HIST;
      636    10575        %EJECT;
PL6.E3A0      #001=DAB$HISTORY File=DAB$HISTORY.:E05TSI                          TUE 07/29/97 12:38 Page:21
      637    10576    1   DPS8000HIST: PROC;
      638    10577    2         CALL XUR$DISABLE;
      639    10578    2         IF RPT.PAGELEN.N>0 AND RPT.PAGELEN.N-RPT.CURLINE<%DPS8000LINES
      640    10579    2         THEN CALL DAF$NEWPAGE;
      641    10580    2         CALL DAF$WRITE (VECTOR(DPS8000_TITLE));
      642    10581    3         DO I = 63 DOWNTO 0;
      643    10582    3            IF I = 63 THEN
      644    10583    3               LCNT = 0;
      645    10584    3            ELSE LCNT = I+1;
      646    10585    3            CALL CHECK_BREAK ALTRET (DPS8000END);
      647    10586    3            CALL DAF$WRITE (VECTOR(DPS8000_FMT), VEC_LCNT,VECTOR(DPS8000HR_BASED(I)));
      648    10587    3            END;
      649    10588    2   DPS8000END: CALL XUR$CLRENABLE;
      650    10589    2         RETURN;
      651    10590    2   END DPS8000HIST;
      652    10591    1   CHECK_BREAK: PROC ALTRET;
      653    10592    2           IF XUR.BREAK
      654    10593    3           THEN DO;
      655    10594    3              CALL M$WAIT(FPT_WAIT);
      656    10595    3              IF XUR.BIP > 2
      657    10596    4              THEN DO;
      658    10597    4                 CALL XUR$ENABLE;
      659    10598    4                 CALL XUR$DISABLE;
      660    10599    4                 END;
      661    10600    4              ELSE DO;
      662    10601    4                 CALL M$TRMPRG(FPT_TRMPRG);
      663    10602    4                 XUR.BIP = 1;
      664    10603    4                 XUR.BREAK = '0'B;
      665    10604    4                 ALTRETURN;
      666    10605    4                 END;
      667    10606    3              END;
      668    10607    2           RETURN;
      669    10608    2   END CHECK_BREAK;
      670    10609    1   END DAB$HISTORY;

PL6.E3A0      #001=DAB$HISTORY File=DAB$HISTORY.:E05TSI                          TUE 07/29/97 12:38 Page:22
--  Include file information  --

   XUH_MACRO_C.:E05TOU  is referenced.
   XU_MACRO_C.:E05TOU  is referenced.
   XUR_ENTRY.:E05TOU  cannot be made into a system file and is referenced.
   DA_ANLZ_R.:E05TOU  cannot be made into a system file and is referenced.
   CP_6_C.:E05TOU  is referenced.
   CP_6.:E05TOU  cannot be made into a system file and is referenced.
   HF_SCODE_C.:E05TOU  is referenced.
   M_INFO_C.:E05TOU  is referenced.
   B_STRINGS_C.:E05TOU  is referenced.
   DA_FORMAT_R.:E05TOU  cannot be made into a system file and is referenced.
   DA_FORMAT_C.:E05TOU  is referenced.
      No diagnostics issued in procedure DAB$HISTORY.

   Procedure DAB$HISTORY requires 836 words for executable code.
   Procedure DAB$HISTORY requires 74 words of local(AUTO) storage.

    No errors detected in file DAB$HISTORY.:E05TSI    .

PL6.E3A0      #001=DAB$HISTORY File=DAB$HISTORY.:E05TSI                          TUE 07/29/97 12:38 Page:23

 Object Unit name= DAB$HISTORY                                File name= DAB$HISTORY.:E05TOU
 UTS= JUL 29 '97 12:38:30.40 TUE                              Compiler= PL-6/E31         Sev=      00
 SharedLib= :SHARED_SYSTEM                                    Alt SharedLib=


    ****  Control sections  ****

 Sect   Type Bound  Init  Size OctSiz  Section name(segment info)
    0   DCB   even  none     0      0  M$UC
    1  RoData even  UTS   1115   2133  DAB$HISTORY
    2   Proc  even  none   836   1504  DAB$HISTORY
    3  RoData even  none    89    131  DAB$HISTORY

    ****  Entry defs  ****

                              Check   Calling
                             calling  sequence
  Sect OctLoc Primary Altret sequence   type   Parms  Name
     2      0   yes            yes      Std        4  DAB$HISTORY

  ****  Entry refs  ****

         Check        Calling
        calling       sequence
Altret sequence SRef   type   Args  Name
         yes           Std       0 DAF$NEWPAGE
         yes           Std       0 XUR$DISABLE
         yes           Std       0 XUR$CLRENABLE
         yes           Std       0 XUR$ENABLE
                       nStd      0 X66_AUTO_4
                       Std       0 B_CONSPOOL_D
                       nStd      0 X66_ARET
PL6.E3A0      #001=DAB$HISTORY File=DAB$HISTORY.:E05TSI                          TUE 07/29/97 12:38 Page:24

  ****  Data refs  ****

  Flags:  r = read only, s = secondary
Flgs Name                             Flgs Name                             Flgs Name
     DA_REPORT$                            M$UC                                  DA_XUR$
     DAF$WRITE                             DAB$FLTCODE                           B_VECTNIL

  ****  Segment refs  ****

  Flags:  r = read only, s = secondary
Flgs Name                             Flgs Name                             Flgs Name
     ISSID                                 NULLSID
PL6.E3A0      #001=DAB$HISTORY File=DAB$HISTORY.:E05TSI                          TUE 07/29/97 12:38 Page:25


        1        1        /*M* DAB$HISTORY - History register dump routine for ANLZ */
        2        2        /*T***********************************************************/
        3        3        /*T*                                                         */
        4        4        /*T* Copyright (c) Bull HN Information Systems Inc., 1997    */
        5        5        /*T*                                                         */
        6        6        /*T***********************************************************/
        7        7        DAB$HISTORY: PROC(LOC,AUTOFLAG,FRAMESIZE,FORCE);

      7  2 000000   000000 700200 xent  DAB$HISTORY  TSX0  ! X66_AUTO_4
         2 000001   000112 000004                    ZERO    74,4

        8        8        /**/
        9        9        %INCLUDE DA_FORMAT_C;
       10      251        %INCLUDE DA_FORMAT_R;
       11      263        %INCLUDE B_STRINGS_C;
       12      392        %INCLUDE M_INFO_C;
       13      532        %INCLUDE HF_SCODE_C;
       14      615        %INCLUDE CP_6;
       15     6174        %INCLUDE DA_ANLZ_R;
       16     6187        %INCLUDE XUR_ENTRY;
       17     6219        %INCLUDE XU_MACRO_C;
       18     9325        %INCLUDE XUH_MACRO_C;
       19     9409        %XUG_PARAMS (NAME=XUR,STCLASS="BASED(DA_XUR$)");
       20     9853        %REPORT (NAME=RPT,STCLASS="BASED(DA_REPORT$)");
       21     9919        /**/
       22     9920    1   DCL LOC SBIN;
       23     9921    1   DCL AUTOFLAG BIT(1) ALIGNED;
       24     9922    1   DCL FRAMESIZE UBIN;
       25     9923    1   DCL FORCE SBIN;
       26     9924        /**/
       27     9925    1   DCL HR$ PTR;
       28     9926    1   DCL I SBIN WORD AUTO;
       29     9927    1   DCL LCNT SBIN WORD AUTO;
       30     9928    1   DCL OPCODE UBIN;
       31     9929    1   DCL DPSEVU1HR BIT(72) DALIGNED AUTO;
       32     9930    1   DCL VEC_LCNT BIT(72) DALIGNED;
PL6.E3A0      #001=DAB$HISTORY File=DAB$HISTORY.:E05TSI                          TUE 07/29/97 12:38 Page:26
       33     9931    1   DCL VEC_OPCODE BIT(72) DALIGNED;
       34     9932    1   DCL AF$ PTR AUTO;
       35     9933    1   DCL SSR_OFFSET UBIN;
       36     9934    1   DCL PTYPE UBIN;
       37     9935    1   DCL FAULT_TYPE CHAR(48);
       38     9936
       39     9937
       40     9938        /**/
       41     9939
       42     9940    1   DCL DAF$WRITE EPTR SYMREF;
       43     9941    1   DCL DAF$NEWPAGE ENTRY;
       44     9942    1   DCL DAB$FLTCODE (0:21) CHAR(24) SYMREF;
       45     9943
       46     9944                                                /* C O N S T A N T                    */
       47     9945        %FPT_WAIT (UNITS=1,
       48     9946                   STCLASS=CONSTANT);
       49     9960        %FPT_TRMPRG (RSTBRK=YES,
       50     9961                     STCLASS=CONSTANT);
       51     9990
       52     9991
       53     9992        /*       FINFO DISPLAY */
       54     9993        %EQU FINFOLINES=10;
       55     9994    1   DCL 1 FINFOFMT CONSTANT,
       56     9995    1         2 * CHAR(0) INIT('%X%29X-- FAULT FRAME --%/'),
       57     9996    1         2 * CHAR(0) INIT('%/%26XPORT%5XFAULT%4XPROC TRACE%/'),
       58     9997    1         2 * CHAR(0) INIT(' FAULT TYPE%17X#%4XREGISTER%3XTYPE MODE SAFE-STORE FRAME%/'
              9997                  ),
       59     9998    1         2 * CHAR(0) INIT(' %24(-%) ---- %12(-%) ---- ----- %21(-%)%/'),
       60     9999    1         2 * CHAR(0) INIT (
              9999                  ' %A%29-%1.9O  %3P%12ZO   %2...14P%1.4O   %4P%3A  .%O IN %>A HJIT%/');
       61    10000        /*       HISTORY REGISTER TITLES */
       62    10001        %EQU VULINES=30;
       63    10002    1   DCL 1 VU_TITLE CONSTANT,
       64    10003    1         2 * CHAR(0) UNAL INIT('%/  --VIRTUAL UNIT HISTORY--%/'),
       65    10004    1         2 T1,
       66    10005    1           3 * CHAR(4) UNAL INIT('    '),
       67    10006    1           3 * CHAR(15) UNAL INIT('        F   FFW'),
PL6.E3A0      #001=DAB$HISTORY File=DAB$HISTORY.:E05TSI                          TUE 07/29/97 12:38 Page:27
       68    10007    1           3 * CHAR(15) UNAL INIT('               '),
       69    10008    1           3 * CHAR(5) UNAL INIT('F  SM'),
       70    10009    1           3 * CHAR(13) UNAL INIT(' STORE-FAULT '),
       71    10010    1           3 * CHAR(4) UNAL INIT(' P F'),
       72    10011    1           3 * CHAR(17) UNAL INIT('      DAMSEL1+3%/'),
       73    10012    1         2 T2,
       74    10013    1           3 * CHAR(4) UNAL INIT('    '),
       75    10014    1           3 * CHAR(15) UNAL INIT('      F AFF PPR'),
       76    10015    1           3 * CHAR(7) UNAL INIT('     FF'),
       77    10016    1           3 * CHAR(4) UNAL INIT('  FF'),
       78    10017    1           3 * CHAR(9) UNAL INIT('  FFV FLA'),
       79    10018    1           3 * CHAR(13) UNAL INIT(' |CMD-FAULT  '),
       80    10019    1           3 * CHAR(22) UNAL INIT(' ITE VVVV |DAMSEL2+3%/'),
       81    10020    1         2 T3,
       82    10021    1           3 * CHAR(4) UNAL INIT('    '),
       83    10022    1           3 * CHAR(11) UNAL INIT('     DA MPK'),
       84    10023    1           3 * CHAR(24) UNAL INIT(' TTP FFF CSF FXF ISU SAS'),
       85    10024    1           3 * CHAR(13) UNAL INIT(' ||VU-IPRFLT '),
       86    10025    1           3 * CHAR(21) UNAL INIT(' ARA AAAA ||VUFAULT%/'),
       87    10026    1         2 T4,
       88    10027    1           3 * CHAR(4) UNAL INIT('    '),
       89    10028    1           3 * CHAR(20) UNAL INIT('  OP FB CTT WWT VVC '),
       90    10029    1           3 * CHAR(15) UNAL INIT('LAX XID DSO SVT'),
       91    10030    1           3 * CHAR(14) UNAL INIT(' |||     REAL '),
       92    10031    1           3 * CHAR(23) UNAL INIT('VGV 2222 |||EXSEG-FLG%/'),
       93    10032    1         2 T5,
       94    10033    1           3 * CHAR(4) UNAL INIT('    '),
       95    10034    1           3 * CHAR(20) UNAL INIT('CODE AS HDW KDW 12D '),
       96    10035    1           3 * CHAR(15) UNAL INIT('RSD DDT TWP RER'),
       97    10036    1           3 * CHAR(14) UNAL INIT(' |||  ADDRESS '),
       98    10037    1           3 * CHAR(23) UNAL INIT('UOU 0123 ||||HLD-STRT%/');
       99    10038
      100    10039
      101    10040        %EQU CULINES=30;
      102    10041    1   DCL 1 CU_TITLE CONSTANT,
      103    10042    1         2 * CHAR(0) UNAL INIT('%/  --CONTROL UNIT HISTORY--%/'),
      104    10043    1         2 T1,
PL6.E3A0      #001=DAB$HISTORY File=DAB$HISTORY.:E05TSI                          TUE 07/29/97 12:38 Page:28
      105    10044    1           3 * CHAR(22) UNAL INIT('                      '),
      106    10045    1           3 * CHAR(1) UNAL INIT('A'),
      107    10046    1           3 * CHAR(33) UNAL INIT('                                 '),
      108    10047    1           3 * CHAR(1) UNAL INIT('I'),
      109    10048    1           3 * CHAR(7) UNAL INIT('       '),
      110    10049    1           3 * CHAR(4) UNAL INIT('D_%/'),
      111    10050    1         2 T2,
      112    10051    1           3 * CHAR(4) UNAL INIT('    '),
      113    10052    1           3 * CHAR(18) UNAL INIT('                  '),
      114    10053    1           3 * CHAR(1) UNAL INIT('R'),
      115    10054    1           3 * CHAR(4) UNAL INIT('   _'),
      116    10055    1           3 * CHAR(29) UNAL INIT('                             '),
      117    10056    1           3 * CHAR(12) UNAL INIT('NFC OCO IP%/'),
      118    10057    1         2 T3,
      119    10058    1           3 * CHAR(4) UNAL INIT('    '),
      120    10059    1           3 * CHAR(10) UNAL INIT('          '),
      121    10060    1           3 * CHAR(1) UNAL INIT('T'),
      122    10061    1           3 * CHAR(5) UNAL INIT('     '),
      123    10062    1           3 * CHAR(7) UNAL INIT('R | __B'),
      124    10063    1           3 * CHAR(29) UNAL INIT('                             '),
      125    10064    1           3 * CHAR(13) UNAL INIT('TEU UUU RCB%/'),
      126    10065    1         2 T4,
      127    10066    1           3 * CHAR(4) UNAL INIT('    '),
      128    10067    1           3 * CHAR(23) UNAL INIT('PPR SPP RSR XX  P F XFA'),
      129    10068    1           3 * CHAR(29) UNAL INIT('                             '),
      130    10069    1           3 * CHAR(13) UNAL INIT('XTS SLL EBU%/'),
      131    10070    1         2 T5,
      132    10071    1           3 * CHAR(4) UNAL INIT('    '),
      133    10072    1           3 * CHAR(27) UNAL INIT('IOI IOO AAG DDI TW/ ILS  OP'),
      134    10073    1           3 * CHAR(15) UNAL INIT('               '),
      135    10074    1           3 * CHAR(23) UNAL INIT('CMD  PORT ECT TOO CSS%/'),
      136    10075    1         2 T6,
      137    10076    1           3 * CHAR(4) UNAL INIT('    '),
      138    10077    1           3 * CHAR(33) UNAL INIT('AAW WTN WWO EOC SIE PTE CODE TAG '),
      139    10078    1           3 * CHAR(32) UNAL INIT('ADDREG  ABCDE ABCD CHR RDD TYY%/');
      140    10079
      141    10080        %EQU OULINES=30;
PL6.E3A0      #001=DAB$HISTORY File=DAB$HISTORY.:E05TSI                          TUE 07/29/97 12:38 Page:29
      142    10081    1   DCL 1 OU_TITLE CONSTANT,
      143    10082    1         2 * CHAR(0) UNAL INIT('%/  --OPERATIONS UNIT HISTORY--%/'),
      144    10083    1         2 T1,
      145    10084    1           3 * CHAR(4) UNAL INIT('    '),
      146    10085    1           3 * CHAR(11) UNAL INIT('           '),
      147    10086    1           3 * CHAR(9) UNAL INIT('CD -LREG/'),
      148    10087    1           3 * CHAR(6) UNAL INIT('   RRR'),
      149    10088    1           3 * CHAR(13) UNAL INIT('             '),
      150    10089    1           3 * CHAR(6) UNAL INIT('S _   '),
      151    10090    1           3 * CHAR(10) UNAL INIT('REGISTER%/'),
      152    10091    1         2 T2,
      153    10092    1           3 * CHAR(4) UNAL INIT('    '),
      154    10093    1           3 * CHAR(11) UNAL INIT('     9     '),
      155    10094    1           3 * CHAR(8) UNAL INIT('RR -SREG'),
      156    10095    1           3 * CHAR(7) UNAL INIT('    BPS'),
      157    10096    1           3 * CHAR(16) UNAL INIT(' FFF FFG FFF T D'),
      158    10097    1           3 * CHAR(13) UNAL INIT('      USAGE%/'),
      159    10098    1         2 T3,
      160    10099    1           3 * CHAR(4) UNAL INIT('    '),
      161    10100    1           3 * CHAR(11) UNAL INIT('     B     '),
      162    10101    1           3 * CHAR(12) UNAL INIT('FF |----    '),
      163    10102    1           3 * CHAR(19) UNAL INIT('FFF GGG GGF GGG R A'),
      164    10103    1           3 * CHAR(13) UNAL INIT('   ________%/'),
      165    10104    1         2 T4,
      166    10105    1           3 * CHAR(4) UNAL INIT('    '),
      167    10106    1           3 * CHAR(15) UNAL INIT('  RP I TAG LL |'),
      168    10107    1           3 * CHAR(8) UNAL INIT('     RS '),
      169    10108    1           3 * CHAR(19) UNAL INIT('UUU IOD DOO OOO A T'),
      170    10109    1           3 * CHAR(19) UNAL INIT(' __XXXXXXXX  ICT%/'),
      171    10110    1         2 T5,
      172    10111    1           3 * CHAR(3) UNAL INIT('   '),
      173    10112    1           3 * CHAR(23) UNAL INIT('CODE T 345 GG CTR CODE '),
      174    10113    1           3 * CHAR(30) UNAL INIT('LLL NS1 2EA MNF V A AQ01234567'),
      175    10114    1           3 * CHAR(9) UNAL INIT('  TRACK%/');
      176    10115
      177    10116        %EQU DULINES=30;
      178    10117    1   DCL 1 DU_TITLE CONSTANT,
PL6.E3A0      #001=DAB$HISTORY File=DAB$HISTORY.:E05TSI                          TUE 07/29/97 12:38 Page:30
      179    10118    1         2 * CHAR(0) UNAL INIT('%/  --DECIMAL UNIT HISTORY--%/'),
      180    10119    1         2 T1,
      181    10120    1           3 * CHAR(4) UNAL INIT('    '),
      182    10121    1           3 * CHAR(20) UNAL INIT('  NS     DD    DDRPP'),
      183    10122    1           3 * CHAR(16) UNAL INIT('     N  F   FAII'),
      184    10123    1           3 * CHAR(14) UNAL INIT('     N  N   LL'),
      185    10124    1           3 * CHAR(24) UNAL INIT(' DWG  E L A B DDDFFA D%/'),
      186    10125    1         2 T2,
      187    10126    1           3 * CHAR(4) UNAL INIT('    '),
      188    10127    1           3 * CHAR(20) UNAL INIT('  EE D  DDDD  EEEDTT'),
      189    10128    1           3 * CHAR(16) UNAL INIT(' FFFWIS OB SRDNN'),
      190    10129    1           3 * CHAR(21) UNAL INIT(' DGGGLG LGAADD ARSASN'),
      191    10130    1           3 * CHAR(17) UNAL INIT(' EGNEL GGGLRD M%/'),
      192    10131    1         2 T3,
      193    10132    1           3 * CHAR(4) UNAL INIT('    '),
      194    10133    1           3 * CHAR(20) UNAL INIT('FFELDF FLUURD XNN+RR'),
      195    10134    1           3 * CHAR(23) UNAL INIT(' AAARNI UI ASJTS UDDDDL'),
      196    10135    1           3 * CHAR(32) UNAL INIT(' DLNNWW TTTNTD NCPXN BDSTND PD%/'),
      197    10136    1         2 T4,
      198    10137    1           3 * CHAR(4) UNAL INIT('    '),
      199    10138    1           3 * CHAR(20) UNAL INIT('PPDALR EALSEL HDDWAA'),
      200    10139    1           3 * CHAR(23) UNAL INIT(' ///DEX RT MTLRT DLLLPD'),
      201    10140    1           3 * CHAR(32) UNAL INIT(' 2DLLRR AIRSRS 1HKMK DBPGDG +X%/'),
      202    10141    1         2 T5,
      203    10142    1           3 * CHAR(4) UNAL INIT('    '),
      204    10143    1           3 * CHAR(20) UNAL INIT('OODDES XSDTDV BSIR00'),
      205    10144    1           3 * CHAR(23) UNAL INIT(' IIIBBB BB PCEPC DDDDDP'),
      206    10145    1           3 * CHAR(32) UNAL INIT(' DPDDTT ADDTOE 2DDOD DPDDDA DP%/'),
      207    10146    1         2 T6,
      208    10147    1           3 * CHAR(4) UNAL INIT('    '),
      209    10148    1           3 * CHAR(20) UNAL INIT('LPRRNT RTEROL GQST01'),
      210    10149    1           3 * CHAR(23) UNAL INIT(' 123DDD DD LTNT1 GABCP1'),
      211    10150    1           3 * CHAR(32) UNAL INIT(' P21212 VPPRPG 8PPPP CCCCGT VN%/');
      212    10151
      213    10152        %EQU ELSLINES=38;
      214    10153    1   DCL 1 ELS_TITLE CONSTANT,
      215    10154    1         2 * CHAR(0) INIT('%/  --HISTORY REGISTERS--%/'),
PL6.E3A0      #001=DAB$HISTORY File=DAB$HISTORY.:E05TSI                          TUE 07/29/97 12:38 Page:31
      216    10155    1         2 T1,
      217    10156    1           3 * CHAR(31) UNAL INIT(' '),
      218    10157    1           3 * CHAR(0) UNAL INIT('FIRST C-CYCLE'),
      219    10158    1           3 * CHAR(0) UNAL INIT(' PAGING%/'),
      220    10159    1         2 T2,
      221    10160    1           3 * CHAR(33) UNAL INIT(' '),
      222    10161    1           3 * CHAR(0) UNAL INIT('IC BIT 17 |'),
      223    10162    1           3 * CHAR(0) UNAL INIT(' | PTW RE-WRITE%/'),
      224    10163    1         2 T3,
      225    10164    1           3 * CHAR(0) UNAL INIT('    FORCE ECS OUTPUT NOP'),
      226    10165    1           3 * CHAR(6) UNAL INIT(' '),
      227    10166    1           3 * CHAR(0) UNAL INIT('INST FETCH | |'),
      228    10167    1           3 * CHAR(0) UNAL INIT(' | | PRE-PAGE SEQUENCE%/'),
      229    10168    1         2 T4,
      230    10169    1           3 * CHAR(0) UNAL INIT('    | MICRO STEP END'),
      231    10170    1           3 * CHAR(7) UNAL INIT(' '),
      232    10171    1           3 * CHAR(0) UNAL INIT('DIRECT OPER | | |'),
      233    10172    1           3 * CHAR(0) UNAL INIT(' | | | RETRY%/'),
      234    10173    1         2 T5,
      235    10174    1           3 * CHAR(0) UNAL INIT('    | |'),
      236    10175    1           3 * CHAR(16) UNAL INIT(' '),
      237    10176    1           3 * CHAR(0) UNAL INIT('DW MEM ACCESS | | | |'),
      238    10177    1           3 * CHAR(0) UNAL INIT(' | | | | PORT BUSY%/'),
      239    10178    1         2 T6 CHAR(0) INIT('%4X| |%14XSTORE COMMAND %10(| %)CACHE BLOCK LOAD REQ%/'),
      240    10179    1         2 T7,
      241    10180    1           3 * CHAR(0) UNAL INIT('    | |'),
      242    10181    1           3 * CHAR(7) UNAL INIT(' '),
      243    10182    1           3 * CHAR(0) UNAL INIT('HEALS RETRY FLAG   | | | | | |'),
      244    10183    1           3 * CHAR(0) UNAL INIT(' | | | | | | BYPASS READ%/'),
      245    10184    1         2 T8,
      246    10185    1           3 * CHAR(0) UNAL INIT('    | |'),
      247    10186    1           3 * CHAR(7) UNAL INIT(' '),
      248    10187    1           3 * CHAR(0) UNAL INIT('| PREP OPER ADDR   | | | | | |'),
      249    10188    1           3 * CHAR(0) UNAL INIT(' | | | | | | |%/'),
      250    10189    1         2 T9,
      251    10190    1           3 * CHAR(0) UNAL INIT('    | |'),
      252    10191    1           3 * CHAR(7) UNAL INIT(' '),
PL6.E3A0      #001=DAB$HISTORY File=DAB$HISTORY.:E05TSI                          TUE 07/29/97 12:38 Page:32
      253    10192    1           3 * CHAR(0) UNAL INIT('| | PREP INST ADDR | | | | F |'),
      254    10193    1           3 * CHAR(0) UNAL INIT(' | | | | | F F%/'),
      255    10194    1         2 T10,
      256    10195    1           3 * CHAR(0) UNAL INIT('    | |'),
      257    10196    1           3 * CHAR(7) UNAL INIT(' '),
      258    10197    1           3 * CHAR(0) UNAL INIT('H | |'),
      259    10198    1           3 * CHAR(14) UNAL INIT(' '),
      260    10199    1           3 * CHAR(0) UNAL INIT('F F F D I S'),
      261    10200    1           3 * CHAR(0) UNAL INIT(' | F | F | B B%/'),
      262    10201    1         2 T11,
      263    10202    1           3 * CHAR(0) UNAL INIT('    D c'),
      264    10203    1           3 * CHAR(7) UNAL INIT(' '),
      265    10204    1           3 * CHAR(0) UNAL INIT('E D F'),
      266    10205    1           3 * CHAR(14) UNAL INIT(' '),
      267    10206    1           3 * CHAR(0) UNAL INIT('S D D P C P'),
      268    10207    1           3 * CHAR(0) UNAL INIT(' D W D R D L Y%/'),
      269    10208    1         2 T12,
      270    10209    1           3 * CHAR(0) UNAL INIT('    I E'),
      271    10210    1           3 * CHAR(7) UNAL INIT(' '),
      272    10211    1           3 * CHAR(0) UNAL INIT('A P P      I       '),
      273    10212    1           3 * CHAR(0) UNAL INIT('T B I I 1 O'),
      274    10213    1           3 * CHAR(0) UNAL INIT(' P P P T B K P%/'),
      275    10214    1         2 T13,
      276    10215    1           3 * CHAR(0) UNAL INIT('    D N   ECS '),
      277    10216    1           3 * CHAR(0) UNAL INIT('L O I  OP  N A     '),
      278    10217    1           3 * CHAR(0) UNAL INIT('R L R A 7 A'),
      279    10218    1           3 * CHAR(0) UNAL INIT(' G T P R S L R    REAL%/'),
      280    10219    1         2 T14,
      281    10220    1           3 * CHAR(0) UNAL INIT('    L D  ADDR '),
      282    10221    1           3 * CHAR(0) UNAL INIT('S A A CODE H R TAG '),
      283    10222    1           3 * CHAR(0) UNAL INIT('C C C C C C'),
      284    10223    1           3 * CHAR(0) UNAL INIT(' F W G Y Y D D  ADDRESS%/');
      285    10224
      286    10225    1   DCL 1 DPSE_VU_TITLE CONSTANT,
      287    10226    1         2 * CHAR(0) INIT('%/  --VIRTUAL UNIT HISTORY REGISTERS--%/');
      288    10227    1   DCL 1 DPSE_CUOUDU_TITLE CONSTANT,
      289    10228    1         2 * CHAR(0) INIT(
PL6.E3A0      #001=DAB$HISTORY File=DAB$HISTORY.:E05TSI                          TUE 07/29/97 12:38 Page:33
             10228                  '%/  --CONTROL, OPERATIONS, AND DECIMAL UNIT HISTORY REGISTERS--%/');
      290    10229
      291    10230        %EQU DPS90LINES = 19;
      292    10231    1   DCL 1 DPS90_TITLE CONSTANT,
      293    10232    1         2 * CHAR(0) INIT('%/  --HISTORY REGISTERS--%/');
      294    10233        %EQU DPS8000LINES = 30;
      295    10234    1   DCL 1 DPS8000_TITLE CONSTANT,
      296    10235    1         2 * CHAR(0) INIT('%/  --HISTORY REGISTERS--%/'),
      297    10236    1         2 T1,
      298    10237    1           3 * CHAR(4) INIT('    '),
      299    10238    1           3 * CHAR(22) INIT('                      '),
      300    10239    1           3 * CHAR(0) INIT('F                       F%/'),
      301    10240    1         2 T2,
      302    10241    1           3 * CHAR(4) INIT('    '),
      303    10242    1           3 * CHAR(22) INIT('                      '),
      304    10243    1           3 * CHAR(0) INIT('S F                   F B%/'),
      305    10244    1         2 T3,
      306    10245    1           3 * CHAR(4) INIT('    '),
      307    10246    1           3 * CHAR(22) INIT('                      '),
      308    10247    1           3 * CHAR(0) INIT('T D F               P B Y%/'),
      309    10248    1         2 T4,
      310    10249    1           3 * CHAR(4) INIT('    '),
      311    10250    1           3 * CHAR(22) INIT('                      '),
      312    10251    1           3 * CHAR(0) INIT('R B D I           R T L R%/'),
      313    10252    1         2 T5,
      314    10253    1           3 * CHAR(4) INIT('    '),
      315    10254    1           3 * CHAR(22) INIT('                      '),
      316    10255    1           3 * CHAR(0) INIT('C L I N F       D E B K D%/'),
      317    10256    1         2 T6,
      318    10257    1           3 * CHAR(4) INIT('    '),
      319    10258    1           3 * CHAR(24) INIT('        C   F         '),
      320    10259    1           3 * CHAR(0) INIT('| C R S I D   P P T U L |%/'),
      321    10260    1         2 T7,
      322    10261    1           3 * CHAR(4) INIT('    '),
      323    10262    1           3 * CHAR(22) INIT('D       E D P       R '),
      324    10263    1           3 * CHAR(0) INIT('| | C F C O D T P R S D |%/'),
      325    10264    1         2 T8,
PL6.E3A0      #001=DAB$HISTORY File=DAB$HISTORY.:E05TSI                          TUE 07/29/97 12:38 Page:34
      326    10265    1           3 * CHAR(4) INIT('    '),
      327    10266    1           3 * CHAR(22) INIT('I       N P I       S '),
      328    10267    1           3 * CHAR(0) INIT('| | | C 1 O P W G Y Y | |%/'),
      329    10268    1         2 T9,
      330    10269    1           3 * CHAR(4) INIT('    '),
      331    10270    1           3 * CHAR(22) INIT('D       D O A       I '),
      332    10271    1           3 * CHAR(0) INIT('| | | H 7 A G | | D | | |%/'),
      333    10272    1         2 T10,
      334    10273    1           3 * CHAR(4) INIT('    '),
      335    10274    1           3 * CHAR(22) INIT('L  ECS  | A | RBIR  R '),
      336    10275    1           3 * CHAR(0) INIT('| | | | C C F | | B | | |   MEM ADDR%/');
      337    10276
      338    10277
      339    10278                                                /*  OUTPUT LINE FORMATS               */
      340    10279
      341    10280    1   DCL 1 L66_VU_FMT CONSTANT,
      342    10281    1         2 * CHAR(0) INIT('%2ZD: '),
      343    10282    1         2 * CHAR(0) INIT('%3P%4ZO %2...10P%2.2ZB %8(%3.3ZB %)'),
      344    10283    1         2 * CHAR(0) INIT('%8.24ZO %3.3ZB %4.4ZB %5.5ZB%10P');
      345    10284
      346    10285    1   DCL 1 L66_CU_FMT CONSTANT,
      347    10286    1         2 * CHAR(0) INIT('%2ZD: '),
      348    10287    1         2 * CHAR(0) INIT('%6(%3.3ZB %)%4.12ZO %2.6ZO  '),
      349    10288    1         2 * CHAR(0) INIT('%6.18ZO  %5.5ZB %4.4ZB %3(%3.3ZB %)%10P');
      350    10289
      351    10290    1   DCL 1 L66_OU_FMT CONSTANT,
      352    10291    1         2 * CHAR(0) INIT('%2ZD:  '),
      353    10292    1         2 * CHAR(0) INIT('%3.9ZO %1.1B %3.3ZB %1.1B%1.1B  %2.2ZB  '),
      354    10293    1         2 * CHAR(0) INIT('%2...18P%3.9ZO %4(%3.3ZB %)'),
      355    10294    1         2 * CHAR(0) INIT('%2(%1.1B %)%10.10ZB  %2.1..18P%6.18ZO%10P');
      356    10295
      357    10296    1   DCL 1 L66_DU_FMT CONSTANT,
      358    10297    1         2 * CHAR(0) INIT('%2ZD: '),
      359    10298    1         2 * CHAR(0) INIT('%4(%6.6ZB %)%2.2ZB %2...30P%5.5ZB '),
      360    10299    1         2 * CHAR(0) INIT('%2.1P%3(%6.6ZB %)%5.5ZB %2.1..24P%6.6ZB %2.2ZB%10P');
      361    10300
      362    10301    1   DCL 1 ELS_FMT CONSTANT,
PL6.E3A0      #001=DAB$HISTORY File=DAB$HISTORY.:E05TSI                          TUE 07/29/97 12:38 Page:35
      363    10302    1         2 * CHAR(0) INIT('%2.ZD: '),
      364    10303    1         2 * CHAR(0) INIT('%2(%1.1B %)%5.13ZO %3(%1.1B %)%3P%4ZO '),
      365    10304    1         2 * CHAR(0) INIT('%2...28P%2(%1.1B %)%2.6ZO  '),
      366    10305    1         2 * CHAR(0) INIT('%2.1..18P%13(%1.1B %)%2.5ZO%2.1P%6.18ZO%10P');
      367    10306
      368    10307    1   DCL 1 DPSE_VU_FMT CONSTANT,
      369    10308    1         2 * CHAR(0) INIT('%2ZD: '),
      370    10309    1         2 * CHAR(0) INIT('%1.3O %2(%2.6ZO %)%1.3O %2.6ZO %4.12ZO   '),
      371    10310    1         2 * CHAR(0) INIT('%0.1.0.2P%12.34ZO-%2.1P%1.2O   '),
      372    10311    1         2 * CHAR(0) INIT('%3P%10.30ZO %1.1B %1.2O %1.3O   '),
      373    10312    1         2 * CHAR(0) INIT('%4P%4ZO   '),
      374    10313    1         2 * CHAR(0) INIT('%3.1.0.10P%4.10ZO %1.2O %5.14ZO%10P');
      375    10314
      376    10315    1   DCL 1 DPSE_CUOUDU_FMT CONSTANT,
      377    10316    1         2 * CHAR(0) INIT('%2ZD: '),
      378    10317    1         2 * CHAR(0) INIT('%12ZO %8.24ZO %4.12ZO   '),
      379    10318    1         2 * CHAR(0) INIT('%12ZO %6.18ZO %6.18ZO%10P');
      380    10319
      381    10320    1   DCL 1 DPS90_FMT CONSTANT,
      382    10321    1         2 * CHAR(0) INIT('%8X.%6.18ZO%0.18S ');
      383    10322    1   DCL 1 DPS8000_FMT CONSTANT,
      384    10323    1         2 * CHAR(0) INIT('%2ZD: '),
      385    10324    1         2 * CHAR(0) INIT('%1.1B %5.14ZO %1.1B %1.1B %1.1B %4.12ZO %2.6ZO'),
      386    10325    1         2 * CHAR(0) INIT('%0.23S %13(%1.1B %)'),
      387    10326    1         2 * CHAR(0) INIT('%0.8S %10.28ZO  %0.36S');
      388    10327
      389    10328    1   DCL ONEBLANKLINE CHAR(0) CONSTANT INIT('%/');
      390    10329    1   DCL TWOBLANKLINES CHAR(0) CONSTANT INIT('%2/');
      391    10330    1   DCL NOYES(0:1) CHAR(3) CONSTANT INIT(' NO','YES');
      392    10331    1   DCL WHOS_HJIT(0:7) CHAR(7) CONSTANT INIT('MONITOR','?'*6,'USER');
      393    10332
      394    10333                                                /*  B A S E D  S T R U C T U R E S    */
      395    10334
      396    10335    1   DCL 1 L66HR_BASED DALIGNED BASED(HR$),
      397    10336    1         2 CU (0:15) BIT(72),
      398    10337    1         2 OU (0:15) BIT(72),
      399    10338    1         2 VU (0:15),
PL6.E3A0      #001=DAB$HISTORY File=DAB$HISTORY.:E05TSI                          TUE 07/29/97 12:38 Page:36
      400    10339    1           3 OPCODE UBIN(10) UNAL,
      401    10340    1           3 * BIT(62) UNAL,
      402    10341    1         2 DU (0:15) BIT(72);
      403    10342
      404    10343    1   DCL 1 ELSHR_BASED (0:15) DALIGNED BASED(HR$),
      405    10344    1         2 * BIT(18) UNAL,
      406    10345    1         2 OPCODE UBIN(10) UNAL,
      407    10346    1         2 * BIT(44) UNAL;
      408    10347
      409    10348    1   DCL 1 DPSEHR_BASED DALIGNED BASED(HR$),
      410    10349    1          2 CU (0:63) BIT(72),
      411    10350    1          2 OUDU (0:63) BIT(72),
      412    10351    1          2 VU1 (0:63) BIT(72),
      413    10352    1          2 VU2 (0:63),
      414    10353    1            3 * BIT(36) UNAL,
      415    10354    1            3 OPCODE UBIN(10) UNAL,
      416    10355    1            3 * BIT(26) UNAL;
      417    10356
      418    10357    1   DCL 1 DPS90HR_BASED(0:15)  BASED(HR$),
      419    10358    1         2 IC UBIN(36) ALIGNED;
      420    10359    1   DCL   1 DPS8000HR_BASED(0:63) DALIGNED BASED(HR$),
      421    10360    1           2 EX_OP BIT(36) ALIGNED,
      422    10361    1           2 FLGS BIT(36) ALIGNED,
      423    10362    1           2 RMA BIT(36) ALIGNED,
      424    10363    1           2 ZEROES BIT(36) ALIGNED;
      425    10364        /**/
      426    10365    1   DCL 1 AUTOFRAME BASED(AF$) DALIGNED,
      427    10366    1         2 RETADR UBIN HALF HALIGNED,
      428    10367    1         2 PREV_FRAME UBIN HALF HALIGNED,
      429    10368    1         2 FRAME_EXT UBIN HALF HALIGNED,
      430    10369    1         2 LANG_IDENT UBIN HALF HALIGNED,
      431    10370    1         2 NEXT_FRAME UBIN HALF HALIGNED,
      432    10371    1         2 ENT_LOC UBIN HALF HALIGNED,
      433    10372    1         2 JUNK(0:20) UBIN,
      434    10373    1         2 MODE BIT(72),
      435    10374    1         2 SSR,
      436    10375    1           3 BOUND UBIN(20) UNAL,
PL6.E3A0      #001=DAB$HISTORY File=DAB$HISTORY.:E05TSI                          TUE 07/29/97 12:38 Page:37
      437    10376    1           3 FLAGS BIT(9) UNAL,
      438    10377    1           3 WSR UBIN(3) UNAL,
      439    10378    1           3 TYPE UBIN(4) UNAL,
      440    10379    1           3 BASE,
      441    10380    1             4 PAGE UBIN(24) UNAL,
      442    10381    1             4 WRD UBIN(10) UNAL,
      443    10382    1             4 BYT UBIN(2) UNAL,
      444    10383    1         2 * UBIN WORD UNAL,
      445    10384    1         2 SUBCODE,
      446    10385    1           3 PORT UBIN(9) UNAL,
      447    10386    1           3 * BIT(4) UNAL,
      448    10387    1           3 TTM UBIN(1) UNAL,
      449    10388    1           3 PTYPE UBIN(4) UNAL,
      450    10389    1           3 SUBCODE UBIN(18) UNAL,
      451    10390    1         2 FLTREG BIT(36) UNAL,
      452    10391    1         2 ERROR,
      453    10392    1           3 * BIT(19) UNAL,
      454    10393    1           3 CODE UBIN(14) UNAL,
      455    10394    1           3 SEV UBIN(3) UNAL,
      456    10395    1         2 WORDS UBIN UNAL,
      457    10396    1         2 *     UBIN UNAL,
      458    10397    1         2 HREGS(0:511) UBIN;
      459    10398        %EJECT;
PL6.E3A0      #001=DAB$HISTORY File=DAB$HISTORY.:E05TSI                          TUE 07/29/97 12:38 Page:38
      460    10399    1           HR$=ADDR(ADDR(LOC)->AUTOFRAME.HREGS);

  10399  2 000002   200003 236100                    LDQ     @LOC,,AUTO
         2 000003   000042 036003                    ADLQ    34,DU
         2 000004   200007 756100                    STQ     HR$,,AUTO

      461    10400    1           AF$ = PINCRW(HR$,-34);

  10400  2 000005   777736 036003                    ADLQ    -34,DU
         2 000006   200022 756100                    STQ     AF$,,AUTO

      462    10401    1           IF NOT AUTOFLAG OR

  10401  2 000007   200004 470500                    LDP0    @AUTOFLAG,,AUTO
         2 000010   000000 234100                    SZN     0,,PR0
         2 000011   000064 605000 2                  TPL     s:10409
         2 000012   200005 471500                    LDP1    @FRAMESIZE,,AUTO
         2 000013   100000 235100                    LDA     0,,PR1
         2 000014   000042 115007                    CMPA    34,DL
         2 000015   000021 601000 2                  TNZ     s:10401+10
         2 000016   200022 473500                    LDP3    AF$,,AUTO
         2 000017   300040 235100                    LDA     32,,PR3
         2 000020   000064 600000 2                  TZE     s:10409
         2 000021   100000 235100                    LDA     0,,PR1
         2 000022   000242 115007                    CMPA    162,DL
         2 000023   000030 601000 2                  TNZ     s:10401+17
         2 000024   200022 473500                    LDP3    AF$,,AUTO
         2 000025   300040 235100                    LDA     32,,PR3
         2 000026   000200 115007                    CMPA    128,DL
         2 000027   000064 600000 2                  TZE     s:10409
         2 000030   100000 235100                    LDA     0,,PR1
         2 000031   000102 115007                    CMPA    66,DL
         2 000032   000037 601000 2                  TNZ     s:10401+24
         2 000033   200022 473500                    LDP3    AF$,,AUTO
         2 000034   300040 235100                    LDA     32,,PR3
         2 000035   000040 115007                    CMPA    32,DL
         2 000036   000064 600000 2                  TZE     s:10409
PL6.E3A0      #001=DAB$HISTORY File=DAB$HISTORY.:E05TSI                          TUE 07/29/97 12:38 Page:39
         2 000037   100000 235100                    LDA     0,,PR1
         2 000040   001042 115007                    CMPA    546,DL
         2 000041   000046 601000 2                  TNZ     s:10401+31
         2 000042   200022 473500                    LDP3    AF$,,AUTO
         2 000043   300040 235100                    LDA     32,,PR3
         2 000044   001000 115007                    CMPA    512,DL
         2 000045   000064 600000 2                  TZE     s:10409
         2 000046   100000 235100                    LDA     0,,PR1
         2 000047   000442 115007                    CMPA    290,DL
         2 000050   000055 601000 2                  TNZ     s:10401+38
         2 000051   200022 473500                    LDP3    AF$,,AUTO
         2 000052   300040 235100                    LDA     32,,PR3
         2 000053   000400 115007                    CMPA    256,DL
         2 000054   000064 600000 2                  TZE     s:10409
         2 000055   100000 235100                    LDA     0,,PR1
         2 000056   000062 115007                    CMPA    50,DL
         2 000057   000253 601000 2                  TNZ     s:10426
         2 000060   200022 473500                    LDP3    AF$,,AUTO
         2 000061   300040 235100                    LDA     32,,PR3
         2 000062   000020 115007                    CMPA    16,DL
         2 000063   000253 601000 2                  TNZ     s:10426

      463    10402    1            ((FRAMESIZE = 34 AND AUTOFRAME.WORDS =0)
      464    10403    1            OR (FRAMESIZE = 34+128 AND AUTOFRAME.WORDS = 128)
      465    10404    1            OR (FRAMESIZE = 34+32 AND AUTOFRAME.WORDS = 32)
      466    10405    1            OR (FRAMESIZE = 34+512 AND AUTOFRAME.WORDS = 512)
      467    10406    1            OR (FRAMESIZE = 34+256 AND AUTOFRAME.WORDS = 256)
      468    10407    1            OR (FRAMESIZE = 34+16 AND AUTOFRAME.WORDS = 16))
      469    10408    2           THEN DO;

      470    10409    2              IF RPT.PAGELEN.N>0 AND RPT.PAGELEN.N - RPT.CURLINE < %FINFOLINES

  10409  2 000064   000000 471400 xsym               LDP1    DA_REPORT$
         2 000065   100000 236100                    LDQ     0,,PR1
         2 000066   377777 316003                    CANQ    131071,DU
         2 000067   000105 600000 2                  TZE     s:10411
         2 000070   100001 236100                    LDQ     1,,PR1
PL6.E3A0      #001=DAB$HISTORY File=DAB$HISTORY.:E05TSI                          TUE 07/29/97 12:38 Page:40
         2 000071   000022 732000                    QRS     18
         2 000072   200046 756100                    STQ     FAULT_TYPE+17,,AUTO
         2 000073   100000 236100                    LDQ     0,,PR1
         2 000074   000022 772000                    QRL     18
         2 000075   377777 376007                    ANQ     131071,DL
         2 000076   200046 136100                    SBLQ    FAULT_TYPE+17,,AUTO
         2 000077   000012 116007                    CMPQ    10,DL
         2 000100   000105 605000 2                  TPL     s:10411

      471    10410    2              THEN CALL DAF$NEWPAGE;

  10410  2 000101   000002 631400 xsym               EPPR1   B_VECTNIL+2
         2 000102   000000 701000 xent               TSX1    DAF$NEWPAGE
         2 000103   000000 011000                    NOP     0
         2 000104   000114 710000 2                  TRA     s:10412

      472    10411    2              ELSE IF AUTOFLAG THEN CALL DAF$WRITE(VECTOR(ONEBLANKLINE));

  10411  2 000105   000000 234100                    SZN     0,,PR0
         2 000106   000114 605000 2                  TPL     s:10412

  10411  2 000107   000002 630400 3                  EPPR0   2
         2 000110   000000 220000 xsym               LDX0    DAF$WRITE
         2 000111   000017 631400 xsym               EPPR1   B_VECTNIL+15
         2 000112   000000 701010                    TSX1    0,X0
         2 000113   000000 011000                    NOP     0

      473    10412    2              IF AUTOFRAME.ERROR.CODE > %S$SCL2

  10412  2 000114   200022 470500                    LDP0    AF$,,AUTO
         2 000115   000037 236100                    LDQ     31,,PR0
         2 000116   377770 376007                    ANQ     131064,DL
         2 000117   010120 116007                    CMPQ    4176,DL
         2 000120   000123 603000 2                  TRC     s:10414
         2 000121   007640 116007                    CMPQ    4000,DL
         2 000122   000127 603000 2                  TRC     s:10415

PL6.E3A0      #001=DAB$HISTORY File=DAB$HISTORY.:E05TSI                          TUE 07/29/97 12:38 Page:41
      474    10413    2                OR AUTOFRAME.ERROR.CODE < %S$SDOWN
      475    10414    2              THEN FAULT_TYPE = ' ';

  10414  2 000123   040100 100400                    MLR     fill='040'O
         2 000124   000035 000001 xsym               ADSC9   B_VECTNIL+29             cn=0,n=1
         2 000125   200025 000060                    ADSC9   FAULT_TYPE,,AUTO         cn=0,n=48
         2 000126   000137 710000 2                  TRA     s:10416

      476    10415    2              ELSE FAULT_TYPE = DAB$FLTCODE(AUTOFRAME.ERROR.CODE - %S$SDOWN);

  10415  2 000127   000037 236100                    LDQ     31,,PR0
         2 000130   000003 772000                    QRL     3
         2 000131   037777 376007                    ANQ     16383,DL
         2 000132   000006 402007                    MPY     6,DL
         2 000133   000002 736000                    QLS     2
         2 000134   040100 100406                    MLR     fill='040'O
         2 000135   772110 000030 xsym               ADSC9   DAB$FLTCODE-3000,Q       cn=0,n=24
         2 000136   200025 000060                    ADSC9   FAULT_TYPE,,AUTO         cn=0,n=48

      477    10416    2              SSR_OFFSET = AUTOFRAME.SSR.BASE.WRD

  10416  2 000137   000033 236100                    LDQ     27,,PR0
         2 000140   000014 772000                    QRL     12
         2 000141   000015 506007                    DIV     13,DL
         2 000142   000033 236100                    LDQ     27,,PR0
         2 000143   000002 772000                    QRL     2
         2 000144   001777 376007                    ANQ     1023,DL
         2 000145   200046 756100                    STQ     FAULT_TYPE+17,,AUTO
         2 000146   000044 733000                    LRS     36
         2 000147   000012 736000                    QLS     10
         2 000150   200046 036100                    ADLQ    FAULT_TYPE+17,,AUTO
         2 000151   200023 756100                    STQ     SSR_OFFSET,,AUTO

      478    10417    2               + 1024 * MOD(AUTOFRAME.SSR.BASE.PAGE,%HJITPG);
      479    10418    2              CALL DAF$WRITE(VECTOR(FINFOFMT),
      480    10419    2                             VECTOR(FAULT_TYPE),
      481    10420    2                             VECTOR(AUTOFRAME.SUBCODE),
PL6.E3A0      #001=DAB$HISTORY File=DAB$HISTORY.:E05TSI                          TUE 07/29/97 12:38 Page:42
      482    10421    2                             VECTOR(AUTOFRAME.FLTREG),
      483    10422    2                             VECTOR(NOYES(AUTOFRAME.SUBCODE.TTM)),
      484    10423    2                             VECTOR(SSR_OFFSET),
      485    10424    2                             VECTOR(WHOS_HJIT(AUTOFRAME.SSR.WSR)));

  10424  2 000152   000006 235000 3                  LDA     6
         2 000153   200046 452500                    STP2    FAULT_TYPE+17,,AUTO
         2 000154   200046 236100                    LDQ     FAULT_TYPE+17,,AUTO
         2 000155   000025 036003                    ADLQ    21,DU
         2 000156   200050 757100                    STAQ    FAULT_TYPE+19,,AUTO
         2 000157   777640 235007                    LDA     -96,DL
         2 000160   200022 236100                    LDQ     AF$,,AUTO
         2 000161   000035 036003                    ADLQ    29,DU
         2 000162   200052 757100                    STAQ    FAULT_TYPE+21,,AUTO
         2 000163   777640 235007                    LDA     -96,DL
         2 000164   200022 236100                    LDQ     AF$,,AUTO
         2 000165   000036 036003                    ADLQ    30,DU
         2 000166   200054 757100                    STAQ    FAULT_TYPE+23,,AUTO
         2 000167   000035 236100                    LDQ     29,,PR0
         2 000170   000026 772000                    QRL     22
         2 000171   000001 376007                    ANQ     1,DL
         2 000172   000003 402007                    MPY     3,DL
         2 000173   577640 235007                    LDA     -65632,DL
         2 000174   000020 736000                    QLS     16
         2 000175   000007 036000 3                  ADLQ    7
         2 000176   200056 757100                    STAQ    FAULT_TYPE+25,,AUTO
         2 000177   777640 235007                    LDA     -96,DL
         2 000200   200060 452500                    STP2    FAULT_TYPE+27,,AUTO
         2 000201   200060 236100                    LDQ     FAULT_TYPE+27,,AUTO
         2 000202   000023 036003                    ADLQ    19,DU
         2 000203   200062 757100                    STAQ    FAULT_TYPE+29,,AUTO
         2 000204   000032 236100                    LDQ     26,,PR0
         2 000205   000004 772000                    QRL     4
         2 000206   000007 376007                    ANQ     7,DL
         2 000207   000007 402007                    MPY     7,DL
         2 000210   000010 235000 3                  LDA     8
         2 000211   000020 736000                    QLS     16
PL6.E3A0      #001=DAB$HISTORY File=DAB$HISTORY.:E05TSI                          TUE 07/29/97 12:38 Page:43
         2 000212   000011 036000 3                  ADLQ    9
         2 000213   200066 757100                    STAQ    FAULT_TYPE+33,,AUTO
         2 000214   200050 237100                    LDAQ    FAULT_TYPE+19,,AUTO
         2 000215   200064 757100                    STAQ    FAULT_TYPE+31,,AUTO
         2 000216   200052 237100                    LDAQ    FAULT_TYPE+21,,AUTO
         2 000217   200070 757100                    STAQ    FAULT_TYPE+35,,AUTO
         2 000220   200054 237100                    LDAQ    FAULT_TYPE+23,,AUTO
         2 000221   200072 757100                    STAQ    FAULT_TYPE+37,,AUTO
         2 000222   200056 237100                    LDAQ    FAULT_TYPE+25,,AUTO
         2 000223   200074 757100                    STAQ    FAULT_TYPE+39,,AUTO
         2 000224   200062 237100                    LDAQ    FAULT_TYPE+29,,AUTO
         2 000225   200076 757100                    STAQ    FAULT_TYPE+41,,AUTO
         2 000226   200066 237100                    LDAQ    FAULT_TYPE+33,,AUTO
         2 000227   200100 757100                    STAQ    FAULT_TYPE+43,,AUTO
         2 000230   200100 631500                    EPPR1   FAULT_TYPE+43,,AUTO
         2 000231   200110 451500                    STP1    FAULT_TYPE+51,,AUTO
         2 000232   200076 633500                    EPPR3   FAULT_TYPE+41,,AUTO
         2 000233   200107 453500                    STP3    FAULT_TYPE+50,,AUTO
         2 000234   200074 634500                    EPPR4   FAULT_TYPE+39,,AUTO
         2 000235   200106 454500                    STP4    FAULT_TYPE+49,,AUTO
         2 000236   200072 635500                    EPPR5   FAULT_TYPE+37,,AUTO
         2 000237   200105 455500                    STP5    FAULT_TYPE+48,,AUTO
         2 000240   200070 636500                    EPPR6   FAULT_TYPE+35,,AUTO
         2 000241   200104 456500                    STP6    FAULT_TYPE+47,,AUTO
         2 000242   200064 637500                    EPPR7   FAULT_TYPE+31,,AUTO
         2 000243   200103 457500                    STP7    FAULT_TYPE+46,,AUTO
         2 000244   000012 236000 3                  LDQ     10
         2 000245   200102 756100                    STQ     FAULT_TYPE+45,,AUTO
         2 000246   200102 630500                    EPPR0   FAULT_TYPE+45,,AUTO
         2 000247   000000 220000 xsym               LDX0    DAF$WRITE
         2 000250   000025 631400 xsym               EPPR1   B_VECTNIL+21
         2 000251   000000 701010                    TSX1    0,X0
         2 000252   000000 011000                    NOP     0

      486    10425    2              END;

      487    10426    1           VEC_LCNT = VECTOR(LCNT);
PL6.E3A0      #001=DAB$HISTORY File=DAB$HISTORY.:E05TSI                          TUE 07/29/97 12:38 Page:44

  10426  2 000253   777640 235007                    LDA     -96,DL
         2 000254   200046 452500                    STP2    FAULT_TYPE+17,,AUTO
         2 000255   200046 236100                    LDQ     FAULT_TYPE+17,,AUTO
         2 000256   000011 036003                    ADLQ    9,DU
         2 000257   200016 757100                    STAQ    VEC_LCNT,,AUTO

      488    10427    1           VEC_OPCODE = VECTOR(OPCODE);

  10427  2 000260   777640 235007                    LDA     -96,DL
         2 000261   200046 452500                    STP2    FAULT_TYPE+17,,AUTO
         2 000262   200046 236100                    LDQ     FAULT_TYPE+17,,AUTO
         2 000263   000012 036003                    ADLQ    10,DU
         2 000264   200020 757100                    STAQ    VEC_OPCODE,,AUTO

      489    10428    1           IF FORCE < 0

  10428  2 000265   200006 470500                    LDP0    @FORCE,,AUTO
         2 000266   000000 235100                    LDA     0,,PR0
         2 000267   000276 605000 2                  TPL     s:10430

      490    10429    1           THEN PTYPE = AUTOFRAME.SUBCODE.PTYPE;

  10429  2 000270   200022 471500                    LDP1    AF$,,AUTO
         2 000271   100035 236100                    LDQ     29,,PR1
         2 000272   000022 772000                    QRL     18
         2 000273   000017 376007                    ANQ     15,DL
         2 000274   200024 756100                    STQ     PTYPE,,AUTO
         2 000275   000277 710000 2                  TRA     s:10431

      491    10430    1           ELSE PTYPE = FORCE;

  10430  2 000276   200024 755100                    STA     PTYPE,,AUTO

      492    10431    2           DO CASE(PTYPE);

  10431  2 000277   200024 236100                    LDQ     PTYPE,,AUTO
PL6.E3A0      #001=DAB$HISTORY File=DAB$HISTORY.:E05TSI                          TUE 07/29/97 12:38 Page:45
         2 000300   000007 116007                    CMPQ    7,DL
         2 000301   000303 602006 2                  TNC     s:10431+4,QL
         2 000302   000345 710000 2                  TRA     s:10445
         2 000303   000312 710000 2                  TRA     s:10433
         2 000304   000323 710000 2                  TRA     s:10437
         2 000305   000334 710000 2                  TRA     s:10441
         2 000306   000345 710000 2                  TRA     s:10445
         2 000307   000346 710000 2                  TRA     s:10447
         2 000310   000346 710000 2                  TRA     s:10447
         2 000311   000357 710000 2                  TRA     s:10451

      493    10432    2              CASE(%L66);

      494    10433    2                 IF FORCE >= 0 OR AUTOFRAME.WORDS = 128

  10433  2 000312   000000 115003                    CMPA    0,DU
         2 000313   000320 605000 2                  TPL     s:10434
         2 000314   200022 471500                    LDP1    AF$,,AUTO
         2 000315   100040 235100                    LDA     32,,PR1
         2 000316   000200 115007                    CMPA    128,DL
         2 000317   000400 601000 2                  TNZ     NOHISTREGS

      495    10434    2                 THEN CALL L66HIST;

  10434  2 000320   000401 701000 2                  TSX1    L66HIST
         2 000321   000000 011000                    NOP     0
         2 000322   000370 710000 2                  TRA     s:10455

      496    10435    2                 ELSE GOTO NOHISTREGS;
      497    10436    2              CASE(%DPSE);

      498    10437    2                 IF FORCE >= 0 OR AUTOFRAME.WORDS = 512

  10437  2 000323   000000 115003                    CMPA    0,DU
         2 000324   000331 605000 2                  TPL     s:10438
         2 000325   200022 471500                    LDP1    AF$,,AUTO
         2 000326   100040 235100                    LDA     32,,PR1
PL6.E3A0      #001=DAB$HISTORY File=DAB$HISTORY.:E05TSI                          TUE 07/29/97 12:38 Page:46
         2 000327   001000 115007                    CMPA    512,DL
         2 000330   000400 601000 2                  TNZ     NOHISTREGS

      499    10438    2                 THEN CALL DPSEHIST;

  10438  2 000331   001037 701000 2                  TSX1    DPSEHIST
         2 000332   000000 011000                    NOP     0
         2 000333   000370 710000 2                  TRA     s:10455

      500    10439    2                 ELSE GOTO NOHISTREGS;
      501    10440    2              CASE(%ELS1);

      502    10441    2                 IF FORCE >= 0 OR AUTOFRAME.WORDS = 32

  10441  2 000334   000000 115003                    CMPA    0,DU
         2 000335   000342 605000 2                  TPL     s:10442
         2 000336   200022 471500                    LDP1    AF$,,AUTO
         2 000337   100040 235100                    LDA     32,,PR1
         2 000340   000040 115007                    CMPA    32,DL
         2 000341   000400 601000 2                  TNZ     NOHISTREGS

      503    10442    2                 THEN CALL ELSHIST;

  10442  2 000342   000741 701000 2                  TSX1    ELSHIST
         2 000343   000000 011000                    NOP     0
         2 000344   000370 710000 2                  TRA     s:10455

      504    10443    2                 ELSE GOTO NOHISTREGS;
      505    10444    2              CASE(ELSE);

      506    10445    2                 RETURN;

  10445  2 000345   000000 702200 xent               TSX2  ! X66_ARET

      507    10446    2              CASE(%DPS90,%DPS90XA);

      508    10447    2                 IF FORCE>=0 OR AUTOFRAME.WORDS = 16
PL6.E3A0      #001=DAB$HISTORY File=DAB$HISTORY.:E05TSI                          TUE 07/29/97 12:38 Page:47

  10447  2 000346   000000 115003                    CMPA    0,DU
         2 000347   000354 605000 2                  TPL     s:10448
         2 000350   200022 471500                    LDP1    AF$,,AUTO
         2 000351   100040 235100                    LDA     32,,PR1
         2 000352   000020 115007                    CMPA    16,DL
         2 000353   000400 601000 2                  TNZ     NOHISTREGS

      509    10448    2                 THEN CALL DPS90HIST;

  10448  2 000354   001266 701000 2                  TSX1    DPS90HIST
         2 000355   000000 011000                    NOP     0
         2 000356   000370 710000 2                  TRA     s:10455

      510    10449    2                 ELSE GOTO NOHISTREGS;
      511    10450    2              CASE(%DPS8000);

      512    10451    2                 IF FORCE >= 0 OR AUTOFRAME.WORDS = 256

  10451  2 000357   000000 115003                    CMPA    0,DU
         2 000360   000365 605000 2                  TPL     s:10452
         2 000361   200022 471500                    LDP1    AF$,,AUTO
         2 000362   100040 235100                    LDA     32,,PR1
         2 000363   000400 115007                    CMPA    256,DL
         2 000364   000400 601000 2                  TNZ     NOHISTREGS

      513    10452    2                 THEN CALL DPS8000HIST;

  10452  2 000365   001351 701000 2                  TSX1    DPS8000HIST
         2 000366   000000 011000                    NOP     0
         2 000367   000370 710000 2                  TRA     s:10455

      514    10453    2                 ELSE GOTO NOHISTREGS;
      515    10454    2              END;

      516    10455    1           IF AUTOFLAG

PL6.E3A0      #001=DAB$HISTORY File=DAB$HISTORY.:E05TSI                          TUE 07/29/97 12:38 Page:48
  10455  2 000370   200004 470500                    LDP0    @AUTOFLAG,,AUTO
         2 000371   000000 234100                    SZN     0,,PR0
         2 000372   000400 605000 2                  TPL     NOHISTREGS

      517    10456    1           THEN CALL DAF$WRITE(VECTOR(TWOBLANKLINES));

  10456  2 000373   000016 630400 3                  EPPR0   14
         2 000374   000000 220000 xsym               LDX0    DAF$WRITE
         2 000375   000017 631400 xsym               EPPR1   B_VECTNIL+15
         2 000376   000000 701010                    TSX1    0,X0
         2 000377   000000 011000                    NOP     0

      518    10457    1   NOHISTREGS:
      519    10458    1           RETURN;

  10458  2 000400   000000 702200 xent  NOHISTREGS   TSX2  ! X66_ARET

      520    10459        %EJECT;
PL6.E3A0      #001=DAB$HISTORY File=DAB$HISTORY.:E05TSI                          TUE 07/29/97 12:38 Page:49
      521    10460    1   L66HIST: PROC;

  10460  2 000401   200042 741300       L66HIST      STX1  ! FAULT_TYPE+13,,AUTO

      522    10461    2           CALL XUR$DISABLE;

  10461  2 000402   000002 631400 xsym               EPPR1   B_VECTNIL+2
         2 000403   000000 701000 xent               TSX1    XUR$DISABLE
         2 000404   000000 011000                    NOP     0

      523    10462    2           IF RPT.PAGELEN.N>0 AND RPT.PAGELEN.N-RPT.CURLINE<%VULINES

  10462  2 000405   000000 470400 xsym               LDP0    DA_REPORT$
         2 000406   000000 236100                    LDQ     0,,PR0
         2 000407   377777 316003                    CANQ    131071,DU
         2 000410   000425 600000 2                  TZE     s:10464
         2 000411   000001 236100                    LDQ     1,,PR0
         2 000412   000022 732000                    QRS     18
         2 000413   200046 756100                    STQ     FAULT_TYPE+17,,AUTO
         2 000414   000000 236100                    LDQ     0,,PR0
         2 000415   000022 772000                    QRL     18
         2 000416   377777 376007                    ANQ     131071,DL
         2 000417   200046 136100                    SBLQ    FAULT_TYPE+17,,AUTO
         2 000420   000036 116007                    CMPQ    30,DL
         2 000421   000425 605000 2                  TPL     s:10464

      524    10463    2           THEN CALL DAF$NEWPAGE;

  10463  2 000422   000002 631400 xsym               EPPR1   B_VECTNIL+2
         2 000423   000000 701000 xent               TSX1    DAF$NEWPAGE
         2 000424   000000 011000                    NOP     0

      525    10464    2           CALL DAF$WRITE(VECTOR(VU_TITLE));

  10464  2 000425   000022 630400 3                  EPPR0   18
         2 000426   000000 220000 xsym               LDX0    DAF$WRITE
         2 000427   000017 631400 xsym               EPPR1   B_VECTNIL+15
PL6.E3A0      #001=DAB$HISTORY File=DAB$HISTORY.:E05TSI                          TUE 07/29/97 12:38 Page:50
         2 000430   000000 701010                    TSX1    0,X0
         2 000431   000000 011000                    NOP     0

      526    10465    3           DO LCNT=0 TO 15;

  10465  2 000432   200011 450100                    STZ     LCNT,,AUTO

      527    10466    3              OPCODE = 4 * L66HR_BASED.VU.OPCODE(LCNT);

  10466  2 000433   200011 235100                    LDA     LCNT,,AUTO
         2 000434   000001 735000                    ALS     1
         2 000435   200007 470500                    LDP0    HR$,,AUTO
         2 000436   000100 236105                    LDQ     64,AL,PR0
         2 000437   000030 772000                    QRL     24
         2 000440   007774 376007                    ANQ     4092,DL
         2 000441   200012 756100                    STQ     OPCODE,,AUTO

      528    10467    3              CALL CHECK_BREAK ALTRET(L66CU);

  10467  2 000442   001445 701000 2                  TSX1    CHECK_BREAK
         2 000443   000473 702000 2                  TSX2    L66CU

      529    10468    3              CALL DAF$WRITE(VECTOR(L66_VU_FMT),

  10468  2 000444   000026 235000 3                  LDA     22
         2 000445   200011 236100                    LDQ     LCNT,,AUTO
         2 000446   000023 736000                    QLS     19
         2 000447   000100 036003                    ADLQ    64,DU
         2 000450   200007 036100                    ADLQ    HR$,,AUTO
         2 000451   200046 757100                    STAQ    FAULT_TYPE+17,,AUTO
         2 000452   200020 630500                    EPPR0   VEC_OPCODE,,AUTO
         2 000453   200053 450500                    STP0    FAULT_TYPE+22,,AUTO
         2 000454   200046 631500                    EPPR1   FAULT_TYPE+17,,AUTO
         2 000455   200052 451500                    STP1    FAULT_TYPE+21,,AUTO
         2 000456   200016 633500                    EPPR3   VEC_LCNT,,AUTO
         2 000457   200051 453500                    STP3    FAULT_TYPE+20,,AUTO
         2 000460   000027 236000 3                  LDQ     23
PL6.E3A0      #001=DAB$HISTORY File=DAB$HISTORY.:E05TSI                          TUE 07/29/97 12:38 Page:51
         2 000461   200050 756100                    STQ     FAULT_TYPE+19,,AUTO
         2 000462   200050 630500                    EPPR0   FAULT_TYPE+19,,AUTO
         2 000463   000000 220000 xsym               LDX0    DAF$WRITE
         2 000464   000022 631400 xsym               EPPR1   B_VECTNIL+18
         2 000465   000000 701010                    TSX1    0,X0
         2 000466   000000 011000                    NOP     0

      530    10469    3                             VEC_LCNT,
      531    10470    3                             VECTOR(L66HR_BASED.VU(LCNT)),
      532    10471    3                             VEC_OPCODE);
      533    10472    3              END;

  10472  2 000467   200011 054100                    AOS     LCNT,,AUTO
         2 000470   200011 235100                    LDA     LCNT,,AUTO
         2 000471   000017 115007                    CMPA    15,DL
         2 000472   000433 604400 2                  TMOZ    s:10466

      534    10473    2   L66CU:
      535    10474    2           IF RPT.PAGELEN.N>0 AND RPT.PAGELEN.N-RPT.CURLINE<%CULINES

  10474  2 000473   000000 470400 xsym  L66CU        LDP0    DA_REPORT$
         2 000474   000000 236100                    LDQ     0,,PR0
         2 000475   377777 316003                    CANQ    131071,DU
         2 000476   000514 600000 2                  TZE     s:10476
         2 000477   000001 236100                    LDQ     1,,PR0
         2 000500   000022 732000                    QRS     18
         2 000501   200046 756100                    STQ     FAULT_TYPE+17,,AUTO
         2 000502   000000 236100                    LDQ     0,,PR0
         2 000503   000022 772000                    QRL     18
         2 000504   377777 376007                    ANQ     131071,DL
         2 000505   200046 136100                    SBLQ    FAULT_TYPE+17,,AUTO
         2 000506   000036 116007                    CMPQ    30,DL
         2 000507   000514 605000 2                  TPL     s:10476

      536    10475    2           THEN CALL DAF$NEWPAGE;

  10475  2 000510   000002 631400 xsym               EPPR1   B_VECTNIL+2
PL6.E3A0      #001=DAB$HISTORY File=DAB$HISTORY.:E05TSI                          TUE 07/29/97 12:38 Page:52
         2 000511   000000 701000 xent               TSX1    DAF$NEWPAGE
         2 000512   000000 011000                    NOP     0
         2 000513   000524 710000 2                  TRA     s:10477

      537    10476    2           ELSE IF AUTOFLAG THEN CALL DAF$WRITE(VECTOR(ONEBLANKLINE));

  10476  2 000514   200004 471500                    LDP1    @AUTOFLAG,,AUTO
         2 000515   100000 234100                    SZN     0,,PR1
         2 000516   000524 605000 2                  TPL     s:10477

  10476  2 000517   000002 630400 3                  EPPR0   2
         2 000520   000000 220000 xsym               LDX0    DAF$WRITE
         2 000521   000017 631400 xsym               EPPR1   B_VECTNIL+15
         2 000522   000000 701010                    TSX1    0,X0
         2 000523   000000 011000                    NOP     0

      538    10477    2           CALL DAF$WRITE(VECTOR(CU_TITLE));

  10477  2 000524   000032 630400 3                  EPPR0   26
         2 000525   000000 220000 xsym               LDX0    DAF$WRITE
         2 000526   000017 631400 xsym               EPPR1   B_VECTNIL+15
         2 000527   000000 701010                    TSX1    0,X0
         2 000530   000000 011000                    NOP     0

      539    10478    3           DO LCNT=0 TO 15;

  10478  2 000531   200011 450100                    STZ     LCNT,,AUTO

      540    10479    3              CALL CHECK_BREAK ALTRET(L66OU);

  10479  2 000532   001445 701000 2                  TSX1    CHECK_BREAK
         2 000533   000560 702000 2                  TSX2    L66OU

      541    10480    3              CALL DAF$WRITE(VECTOR(L66_CU_FMT),

  10480  2 000534   000026 235000 3                  LDA     22
         2 000535   200011 236100                    LDQ     LCNT,,AUTO
PL6.E3A0      #001=DAB$HISTORY File=DAB$HISTORY.:E05TSI                          TUE 07/29/97 12:38 Page:53
         2 000536   000023 736000                    QLS     19
         2 000537   200007 036100                    ADLQ    HR$,,AUTO
         2 000540   200046 757100                    STAQ    FAULT_TYPE+17,,AUTO
         2 000541   200046 630500                    EPPR0   FAULT_TYPE+17,,AUTO
         2 000542   200052 450500                    STP0    FAULT_TYPE+21,,AUTO
         2 000543   200016 631500                    EPPR1   VEC_LCNT,,AUTO
         2 000544   200051 451500                    STP1    FAULT_TYPE+20,,AUTO
         2 000545   000036 236000 3                  LDQ     30
         2 000546   200050 756100                    STQ     FAULT_TYPE+19,,AUTO
         2 000547   200050 630500                    EPPR0   FAULT_TYPE+19,,AUTO
         2 000550   000000 220000 xsym               LDX0    DAF$WRITE
         2 000551   000021 631400 xsym               EPPR1   B_VECTNIL+17
         2 000552   000000 701010                    TSX1    0,X0
         2 000553   000000 011000                    NOP     0

      542    10481    3                             VEC_LCNT,
      543    10482    3                             VECTOR(L66HR_BASED.CU(LCNT)));
      544    10483    3              END;

  10483  2 000554   200011 054100                    AOS     LCNT,,AUTO
         2 000555   200011 235100                    LDA     LCNT,,AUTO
         2 000556   000017 115007                    CMPA    15,DL
         2 000557   000532 604400 2                  TMOZ    s:10479

      545    10484    2   L66OU:
      546    10485    2           IF RPT.PAGELEN.N>0 AND RPT.PAGELEN.N-RPT.CURLINE<%OULINES

  10485  2 000560   000000 470400 xsym  L66OU        LDP0    DA_REPORT$
         2 000561   000000 236100                    LDQ     0,,PR0
         2 000562   377777 316003                    CANQ    131071,DU
         2 000563   000601 600000 2                  TZE     s:10487
         2 000564   000001 236100                    LDQ     1,,PR0
         2 000565   000022 732000                    QRS     18
         2 000566   200046 756100                    STQ     FAULT_TYPE+17,,AUTO
         2 000567   000000 236100                    LDQ     0,,PR0
         2 000570   000022 772000                    QRL     18
         2 000571   377777 376007                    ANQ     131071,DL
PL6.E3A0      #001=DAB$HISTORY File=DAB$HISTORY.:E05TSI                          TUE 07/29/97 12:38 Page:54
         2 000572   200046 136100                    SBLQ    FAULT_TYPE+17,,AUTO
         2 000573   000036 116007                    CMPQ    30,DL
         2 000574   000601 605000 2                  TPL     s:10487

      547    10486    2           THEN CALL DAF$NEWPAGE;

  10486  2 000575   000002 631400 xsym               EPPR1   B_VECTNIL+2
         2 000576   000000 701000 xent               TSX1    DAF$NEWPAGE
         2 000577   000000 011000                    NOP     0
         2 000600   000611 710000 2                  TRA     s:10488

      548    10487    2           ELSE IF AUTOFLAG THEN CALL DAF$WRITE(VECTOR(ONEBLANKLINE));

  10487  2 000601   200004 471500                    LDP1    @AUTOFLAG,,AUTO
         2 000602   100000 234100                    SZN     0,,PR1
         2 000603   000611 605000 2                  TPL     s:10488

  10487  2 000604   000002 630400 3                  EPPR0   2
         2 000605   000000 220000 xsym               LDX0    DAF$WRITE
         2 000606   000017 631400 xsym               EPPR1   B_VECTNIL+15
         2 000607   000000 701010                    TSX1    0,X0
         2 000610   000000 011000                    NOP     0

      549    10488    2           CALL DAF$WRITE(VECTOR(OU_TITLE));

  10488  2 000611   000042 630400 3                  EPPR0   34
         2 000612   000000 220000 xsym               LDX0    DAF$WRITE
         2 000613   000017 631400 xsym               EPPR1   B_VECTNIL+15
         2 000614   000000 701010                    TSX1    0,X0
         2 000615   000000 011000                    NOP     0

      550    10489    3           DO LCNT=0 TO 15;

  10489  2 000616   200011 450100                    STZ     LCNT,,AUTO

      551    10490    3              CALL CHECK_BREAK ALTRET(L66DU);

PL6.E3A0      #001=DAB$HISTORY File=DAB$HISTORY.:E05TSI                          TUE 07/29/97 12:38 Page:55
  10490  2 000617   001445 701000 2                  TSX1    CHECK_BREAK
         2 000620   000646 702000 2                  TSX2    L66DU

      552    10491    3              CALL DAF$WRITE(VECTOR(L66_OU_FMT),

  10491  2 000621   000026 235000 3                  LDA     22
         2 000622   200011 236100                    LDQ     LCNT,,AUTO
         2 000623   000023 736000                    QLS     19
         2 000624   000040 036003                    ADLQ    32,DU
         2 000625   200007 036100                    ADLQ    HR$,,AUTO
         2 000626   200046 757100                    STAQ    FAULT_TYPE+17,,AUTO
         2 000627   200046 630500                    EPPR0   FAULT_TYPE+17,,AUTO
         2 000630   200052 450500                    STP0    FAULT_TYPE+21,,AUTO
         2 000631   200016 631500                    EPPR1   VEC_LCNT,,AUTO
         2 000632   200051 451500                    STP1    FAULT_TYPE+20,,AUTO
         2 000633   000046 236000 3                  LDQ     38
         2 000634   200050 756100                    STQ     FAULT_TYPE+19,,AUTO
         2 000635   200050 630500                    EPPR0   FAULT_TYPE+19,,AUTO
         2 000636   000000 220000 xsym               LDX0    DAF$WRITE
         2 000637   000021 631400 xsym               EPPR1   B_VECTNIL+17
         2 000640   000000 701010                    TSX1    0,X0
         2 000641   000000 011000                    NOP     0

      553    10492    3                             VEC_LCNT,
      554    10493    3                             VECTOR(L66HR_BASED.OU(LCNT)));
      555    10494    3              END;

  10494  2 000642   200011 054100                    AOS     LCNT,,AUTO
         2 000643   200011 235100                    LDA     LCNT,,AUTO
         2 000644   000017 115007                    CMPA    15,DL
         2 000645   000617 604400 2                  TMOZ    s:10490

      556    10495    2   L66DU:
      557    10496    2           IF RPT.PAGELEN.N>0 AND RPT.PAGELEN.N-RPT.CURLINE<%DULINES

  10496  2 000646   000000 470400 xsym  L66DU        LDP0    DA_REPORT$
         2 000647   000000 236100                    LDQ     0,,PR0
PL6.E3A0      #001=DAB$HISTORY File=DAB$HISTORY.:E05TSI                          TUE 07/29/97 12:38 Page:56
         2 000650   377777 316003                    CANQ    131071,DU
         2 000651   000667 600000 2                  TZE     s:10498
         2 000652   000001 236100                    LDQ     1,,PR0
         2 000653   000022 732000                    QRS     18
         2 000654   200046 756100                    STQ     FAULT_TYPE+17,,AUTO
         2 000655   000000 236100                    LDQ     0,,PR0
         2 000656   000022 772000                    QRL     18
         2 000657   377777 376007                    ANQ     131071,DL
         2 000660   200046 136100                    SBLQ    FAULT_TYPE+17,,AUTO
         2 000661   000036 116007                    CMPQ    30,DL
         2 000662   000667 605000 2                  TPL     s:10498

      558    10497    2           THEN CALL DAF$NEWPAGE;

  10497  2 000663   000002 631400 xsym               EPPR1   B_VECTNIL+2
         2 000664   000000 701000 xent               TSX1    DAF$NEWPAGE
         2 000665   000000 011000                    NOP     0
         2 000666   000677 710000 2                  TRA     s:10499

      559    10498    2           ELSE IF AUTOFLAG THEN CALL DAF$WRITE(VECTOR(ONEBLANKLINE));

  10498  2 000667   200004 471500                    LDP1    @AUTOFLAG,,AUTO
         2 000670   100000 234100                    SZN     0,,PR1
         2 000671   000677 605000 2                  TPL     s:10499

  10498  2 000672   000002 630400 3                  EPPR0   2
         2 000673   000000 220000 xsym               LDX0    DAF$WRITE
         2 000674   000017 631400 xsym               EPPR1   B_VECTNIL+15
         2 000675   000000 701010                    TSX1    0,X0
         2 000676   000000 011000                    NOP     0

      560    10499    2           CALL DAF$WRITE(VECTOR(DU_TITLE));

  10499  2 000677   000052 630400 3                  EPPR0   42
         2 000700   000000 220000 xsym               LDX0    DAF$WRITE
         2 000701   000017 631400 xsym               EPPR1   B_VECTNIL+15
         2 000702   000000 701010                    TSX1    0,X0
PL6.E3A0      #001=DAB$HISTORY File=DAB$HISTORY.:E05TSI                          TUE 07/29/97 12:38 Page:57
         2 000703   000000 011000                    NOP     0

      561    10500    3           DO LCNT=0 TO 15;

  10500  2 000704   200011 450100                    STZ     LCNT,,AUTO

      562    10501    3              CALL CHECK_BREAK ALTRET(L66END);

  10501  2 000705   001445 701000 2                  TSX1    CHECK_BREAK
         2 000706   000734 702000 2                  TSX2    L66END

      563    10502    3              CALL DAF$WRITE(VECTOR(L66_DU_FMT),

  10502  2 000707   000026 235000 3                  LDA     22
         2 000710   200011 236100                    LDQ     LCNT,,AUTO
         2 000711   000023 736000                    QLS     19
         2 000712   000140 036003                    ADLQ    96,DU
         2 000713   200007 036100                    ADLQ    HR$,,AUTO
         2 000714   200046 757100                    STAQ    FAULT_TYPE+17,,AUTO
         2 000715   200046 630500                    EPPR0   FAULT_TYPE+17,,AUTO
         2 000716   200052 450500                    STP0    FAULT_TYPE+21,,AUTO
         2 000717   200016 631500                    EPPR1   VEC_LCNT,,AUTO
         2 000720   200051 451500                    STP1    FAULT_TYPE+20,,AUTO
         2 000721   000056 236000 3                  LDQ     46
         2 000722   200050 756100                    STQ     FAULT_TYPE+19,,AUTO
         2 000723   200050 630500                    EPPR0   FAULT_TYPE+19,,AUTO
         2 000724   000000 220000 xsym               LDX0    DAF$WRITE
         2 000725   000021 631400 xsym               EPPR1   B_VECTNIL+17
         2 000726   000000 701010                    TSX1    0,X0
         2 000727   000000 011000                    NOP     0

      564    10503    3                             VEC_LCNT,
      565    10504    3                             VECTOR(L66HR_BASED.DU(LCNT)));
      566    10505    3              END;

  10505  2 000730   200011 054100                    AOS     LCNT,,AUTO
         2 000731   200011 235100                    LDA     LCNT,,AUTO
PL6.E3A0      #001=DAB$HISTORY File=DAB$HISTORY.:E05TSI                          TUE 07/29/97 12:38 Page:58
         2 000732   000017 115007                    CMPA    15,DL
         2 000733   000705 604400 2                  TMOZ    s:10501

      567    10506    2   L66END: CALL XUR$CLRENABLE;

  10506  2 000734   000002 631400 xsym  L66END       EPPR1   B_VECTNIL+2
         2 000735   000000 701000 xent               TSX1    XUR$CLRENABLE
         2 000736   000000 011000                    NOP     0

      568    10507    2           RETURN;

  10507  2 000737   200042 221300                    LDX1  ! FAULT_TYPE+13,,AUTO
         2 000740   000001 702211                    TSX2  ! 1,X1

      569    10508    2   END L66HIST;
      570    10509        %EJECT;
PL6.E3A0      #001=DAB$HISTORY File=DAB$HISTORY.:E05TSI                          TUE 07/29/97 12:38 Page:59
      571    10510    1   ELSHIST: PROC;

  10510  2 000741   200042 741300       ELSHIST      STX1  ! FAULT_TYPE+13,,AUTO

      572    10511    2           CALL XUR$DISABLE;

  10511  2 000742   000002 631400 xsym               EPPR1   B_VECTNIL+2
         2 000743   000000 701000 xent               TSX1    XUR$DISABLE
         2 000744   000000 011000                    NOP     0

      573    10512    2           IF RPT.PAGELEN.N>0 AND RPT.PAGELEN.N-RPT.CURLINE<%ELSLINES

  10512  2 000745   000000 470400 xsym               LDP0    DA_REPORT$
         2 000746   000000 236100                    LDQ     0,,PR0
         2 000747   377777 316003                    CANQ    131071,DU
         2 000750   000765 600000 2                  TZE     s:10514
         2 000751   000001 236100                    LDQ     1,,PR0
         2 000752   000022 732000                    QRS     18
         2 000753   200046 756100                    STQ     FAULT_TYPE+17,,AUTO
         2 000754   000000 236100                    LDQ     0,,PR0
         2 000755   000022 772000                    QRL     18
         2 000756   377777 376007                    ANQ     131071,DL
         2 000757   200046 136100                    SBLQ    FAULT_TYPE+17,,AUTO
         2 000760   000046 116007                    CMPQ    38,DL
         2 000761   000765 605000 2                  TPL     s:10514

      574    10513    2           THEN CALL DAF$NEWPAGE;

  10513  2 000762   000002 631400 xsym               EPPR1   B_VECTNIL+2
         2 000763   000000 701000 xent               TSX1    DAF$NEWPAGE
         2 000764   000000 011000                    NOP     0

      575    10514    2           CALL DAF$WRITE(VECTOR(ELS_TITLE));

  10514  2 000765   000062 630400 3                  EPPR0   50
         2 000766   000000 220000 xsym               LDX0    DAF$WRITE
         2 000767   000017 631400 xsym               EPPR1   B_VECTNIL+15
PL6.E3A0      #001=DAB$HISTORY File=DAB$HISTORY.:E05TSI                          TUE 07/29/97 12:38 Page:60
         2 000770   000000 701010                    TSX1    0,X0
         2 000771   000000 011000                    NOP     0

      576    10515    3           DO LCNT=0 TO 15;

  10515  2 000772   200011 450100                    STZ     LCNT,,AUTO

      577    10516    3              OPCODE = 4 * ELSHR_BASED.OPCODE(LCNT);

  10516  2 000773   200011 235100                    LDA     LCNT,,AUTO
         2 000774   000001 735000                    ALS     1
         2 000775   200007 470500                    LDP0    HR$,,AUTO
         2 000776   000000 236105                    LDQ     0,AL,PR0
         2 000777   000006 772000                    QRL     6
         2 001000   007774 376007                    ANQ     4092,DL
         2 001001   200012 756100                    STQ     OPCODE,,AUTO

      578    10517    3              CALL CHECK_BREAK ALTRET(ELSEND);

  10517  2 001002   001445 701000 2                  TSX1    CHECK_BREAK
         2 001003   001032 702000 2                  TSX2    ELSEND

      579    10518    3              CALL DAF$WRITE(VECTOR(ELS_FMT),

  10518  2 001004   000026 235000 3                  LDA     22
         2 001005   200011 236100                    LDQ     LCNT,,AUTO
         2 001006   000023 736000                    QLS     19
         2 001007   200007 036100                    ADLQ    HR$,,AUTO
         2 001010   200046 757100                    STAQ    FAULT_TYPE+17,,AUTO
         2 001011   200020 630500                    EPPR0   VEC_OPCODE,,AUTO
         2 001012   200053 450500                    STP0    FAULT_TYPE+22,,AUTO
         2 001013   200046 631500                    EPPR1   FAULT_TYPE+17,,AUTO
         2 001014   200052 451500                    STP1    FAULT_TYPE+21,,AUTO
         2 001015   200016 633500                    EPPR3   VEC_LCNT,,AUTO
         2 001016   200051 453500                    STP3    FAULT_TYPE+20,,AUTO
         2 001017   000066 236000 3                  LDQ     54
         2 001020   200050 756100                    STQ     FAULT_TYPE+19,,AUTO
PL6.E3A0      #001=DAB$HISTORY File=DAB$HISTORY.:E05TSI                          TUE 07/29/97 12:38 Page:61
         2 001021   200050 630500                    EPPR0   FAULT_TYPE+19,,AUTO
         2 001022   000000 220000 xsym               LDX0    DAF$WRITE
         2 001023   000022 631400 xsym               EPPR1   B_VECTNIL+18
         2 001024   000000 701010                    TSX1    0,X0
         2 001025   000000 011000                    NOP     0

      580    10519    3                             VEC_LCNT,
      581    10520    3                             VECTOR(ELSHR_BASED(LCNT)),
      582    10521    3                             VEC_OPCODE);
      583    10522    3              END;

  10522  2 001026   200011 054100                    AOS     LCNT,,AUTO
         2 001027   200011 235100                    LDA     LCNT,,AUTO
         2 001030   000017 115007                    CMPA    15,DL
         2 001031   000773 604400 2                  TMOZ    s:10516

      584    10523    2   ELSEND: CALL XUR$CLRENABLE;

  10523  2 001032   000002 631400 xsym  ELSEND       EPPR1   B_VECTNIL+2
         2 001033   000000 701000 xent               TSX1    XUR$CLRENABLE
         2 001034   000000 011000                    NOP     0

      585    10524    2           RETURN;

  10524  2 001035   200042 221300                    LDX1  ! FAULT_TYPE+13,,AUTO
         2 001036   000001 702211                    TSX2  ! 1,X1

      586    10525    2   END ELSHIST;
      587    10526        %EJECT;
PL6.E3A0      #001=DAB$HISTORY File=DAB$HISTORY.:E05TSI                          TUE 07/29/97 12:38 Page:62
      588    10527    1   DPSEHIST: PROC;

  10527  2 001037   200042 741300       DPSEHIST     STX1  ! FAULT_TYPE+13,,AUTO

      589    10528    2           CALL XUR$DISABLE;

  10528  2 001040   000002 631400 xsym               EPPR1   B_VECTNIL+2
         2 001041   000000 701000 xent               TSX1    XUR$DISABLE
         2 001042   000000 011000                    NOP     0

      590    10529    2           IF RPT.PAGELEN.N>0 AND RPT.PAGELEN.N-RPT.CURLINE<30

  10529  2 001043   000000 470400 xsym               LDP0    DA_REPORT$
         2 001044   000000 236100                    LDQ     0,,PR0
         2 001045   377777 316003                    CANQ    131071,DU
         2 001046   001063 600000 2                  TZE     s:10531
         2 001047   000001 236100                    LDQ     1,,PR0
         2 001050   000022 732000                    QRS     18
         2 001051   200046 756100                    STQ     FAULT_TYPE+17,,AUTO
         2 001052   000000 236100                    LDQ     0,,PR0
         2 001053   000022 772000                    QRL     18
         2 001054   377777 376007                    ANQ     131071,DL
         2 001055   200046 136100                    SBLQ    FAULT_TYPE+17,,AUTO
         2 001056   000036 116007                    CMPQ    30,DL
         2 001057   001063 605000 2                  TPL     s:10531

      591    10530    2           THEN CALL DAF$NEWPAGE;

  10530  2 001060   000002 631400 xsym               EPPR1   B_VECTNIL+2
         2 001061   000000 701000 xent               TSX1    DAF$NEWPAGE
         2 001062   000000 011000                    NOP     0

      592    10531    2           CALL DAF$WRITE(VECTOR(DPSE_VU_TITLE));

  10531  2 001063   000072 630400 3                  EPPR0   58
         2 001064   000000 220000 xsym               LDX0    DAF$WRITE
         2 001065   000017 631400 xsym               EPPR1   B_VECTNIL+15
PL6.E3A0      #001=DAB$HISTORY File=DAB$HISTORY.:E05TSI                          TUE 07/29/97 12:38 Page:63
         2 001066   000000 701010                    TSX1    0,X0
         2 001067   000000 011000                    NOP     0

      593    10532    3           DO I = 63 DOWNTO 0;

  10532  2 001070   000077 235007                    LDA     63,DL
         2 001071   200010 755100                    STA     I,,AUTO

      594    10533    3              DPSEVU1HR = DPSEHR_BASED.VU1(I) \ '000770007303600000777777'O;

  10533  2 001072   200010 235100                    LDA     I,,AUTO
         2 001073   000001 735000                    ALS     1
         2 001074   200007 470500                    LDP0    HR$,,AUTO
         2 001075   000000 620005                    EAX0    0,AL
         2 001076   000100 100400                    MLR     fill='000'O
         2 001077   002131 000010 1                  ADSC9   WHOS_HJIT+14             cn=0,n=8
         2 001100   200046 000010                    ADSC9   FAULT_TYPE+17,,AUTO      cn=0,n=8
         2 001101   200046 237100                    LDAQ    FAULT_TYPE+17,,AUTO
         2 001102   000400 677110                    ERAQ    256,X0,PR0
         2 001103   200014 757100                    STAQ    DPSEVU1HR,,AUTO

      595    10534    3              OPCODE = 4 * DPSEHR_BASED.VU2.OPCODE(I);

  10534  2 001104   000601 236110                    LDQ     385,X0,PR0
         2 001105   000030 772000                    QRL     24
         2 001106   007774 376007                    ANQ     4092,DL
         2 001107   200012 756100                    STQ     OPCODE,,AUTO

      596    10535    3              IF I = 63

  10535  2 001110   200010 235100                    LDA     I,,AUTO
         2 001111   000077 115007                    CMPA    63,DL
         2 001112   001115 601000 2                  TNZ     s:10537

      597    10536    3              THEN LCNT = 0;

  10536  2 001113   200011 450100                    STZ     LCNT,,AUTO
PL6.E3A0      #001=DAB$HISTORY File=DAB$HISTORY.:E05TSI                          TUE 07/29/97 12:38 Page:64
         2 001114   001117 710000 2                  TRA     s:10538

      598    10537    3              ELSE LCNT = I+1;

  10537  2 001115   000001 035007                    ADLA    1,DL
         2 001116   200011 755100                    STA     LCNT,,AUTO

      599    10538    3              CALL CHECK_BREAK ALTRET(DPSECUOUDU);

  10538  2 001117   001445 701000 2                  TSX1    CHECK_BREAK
         2 001120   001162 702000 2                  TSX2    DPSECUOUDU

      600    10539    3              CALL DAF$WRITE(VECTOR(DPSE_VU_FMT),

  10539  2 001121   000026 235000 3                  LDA     22
         2 001122   200046 452500                    STP2    FAULT_TYPE+17,,AUTO
         2 001123   200046 236100                    LDQ     FAULT_TYPE+17,,AUTO
         2 001124   000014 036003                    ADLQ    12,DU
         2 001125   200050 757100                    STAQ    FAULT_TYPE+19,,AUTO
         2 001126   000026 235000 3                  LDA     22
         2 001127   200010 236100                    LDQ     I,,AUTO
         2 001130   000023 736000                    QLS     19
         2 001131   000600 036003                    ADLQ    384,DU
         2 001132   200007 036100                    ADLQ    HR$,,AUTO
         2 001133   200054 757100                    STAQ    FAULT_TYPE+23,,AUTO
         2 001134   200050 237100                    LDAQ    FAULT_TYPE+19,,AUTO
         2 001135   200052 757100                    STAQ    FAULT_TYPE+21,,AUTO
         2 001136   200054 237100                    LDAQ    FAULT_TYPE+23,,AUTO
         2 001137   200056 757100                    STAQ    FAULT_TYPE+25,,AUTO
         2 001140   200020 630500                    EPPR0   VEC_OPCODE,,AUTO
         2 001141   200064 450500                    STP0    FAULT_TYPE+31,,AUTO
         2 001142   200056 631500                    EPPR1   FAULT_TYPE+25,,AUTO
         2 001143   200063 451500                    STP1    FAULT_TYPE+30,,AUTO
         2 001144   200052 633500                    EPPR3   FAULT_TYPE+21,,AUTO
         2 001145   200062 453500                    STP3    FAULT_TYPE+29,,AUTO
         2 001146   200016 634500                    EPPR4   VEC_LCNT,,AUTO
         2 001147   200061 454500                    STP4    FAULT_TYPE+28,,AUTO
PL6.E3A0      #001=DAB$HISTORY File=DAB$HISTORY.:E05TSI                          TUE 07/29/97 12:38 Page:65
         2 001150   000076 236000 3                  LDQ     62
         2 001151   200060 756100                    STQ     FAULT_TYPE+27,,AUTO
         2 001152   200060 630500                    EPPR0   FAULT_TYPE+27,,AUTO
         2 001153   000000 220000 xsym               LDX0    DAF$WRITE
         2 001154   000023 631400 xsym               EPPR1   B_VECTNIL+19
         2 001155   000000 701010                    TSX1    0,X0
         2 001156   000000 011000                    NOP     0

      601    10540    3                             VEC_LCNT,
      602    10541    3                             VECTOR(DPSEVU1HR),
      603    10542    3                             VECTOR(DPSEHR_BASED.VU2(I)),
      604    10543    3                             VEC_OPCODE);
      605    10544    3              END;

  10544  2 001157   000001 336007                    LCQ     1,DL
         2 001160   200010 056100                    ASQ     I,,AUTO
         2 001161   001072 605000 2                  TPL     s:10533

      606    10545    2   DPSECUOUDU:
      607    10546    2           IF RPT.PAGELEN.N>0 AND RPT.PAGELEN.N-RPT.CURLINE<32

  10546  2 001162   000000 470400 xsym  DPSECUOUDU   LDP0    DA_REPORT$
         2 001163   000000 236100                    LDQ     0,,PR0
         2 001164   377777 316003                    CANQ    131071,DU
         2 001165   001202 600000 2                  TZE     s:10548
         2 001166   000001 236100                    LDQ     1,,PR0
         2 001167   000022 732000                    QRS     18
         2 001170   200046 756100                    STQ     FAULT_TYPE+17,,AUTO
         2 001171   000000 236100                    LDQ     0,,PR0
         2 001172   000022 772000                    QRL     18
         2 001173   377777 376007                    ANQ     131071,DL
         2 001174   200046 136100                    SBLQ    FAULT_TYPE+17,,AUTO
         2 001175   000040 116007                    CMPQ    32,DL
         2 001176   001202 605000 2                  TPL     s:10548

      608    10547    2           THEN CALL DAF$NEWPAGE;

PL6.E3A0      #001=DAB$HISTORY File=DAB$HISTORY.:E05TSI                          TUE 07/29/97 12:38 Page:66
  10547  2 001177   000002 631400 xsym               EPPR1   B_VECTNIL+2
         2 001200   000000 701000 xent               TSX1    DAF$NEWPAGE
         2 001201   000000 011000                    NOP     0

      609    10548    2           CALL DAF$WRITE(VECTOR(DPSE_CUOUDU_TITLE));

  10548  2 001202   000102 630400 3                  EPPR0   66
         2 001203   000000 220000 xsym               LDX0    DAF$WRITE
         2 001204   000017 631400 xsym               EPPR1   B_VECTNIL+15
         2 001205   000000 701010                    TSX1    0,X0
         2 001206   000000 011000                    NOP     0

      610    10549    3           DO I = 63 DOWNTO 0;

  10549  2 001207   000077 235007                    LDA     63,DL
         2 001210   200010 755100                    STA     I,,AUTO

      611    10550    3              IF I = 63

  10550  2 001211   200010 235100                    LDA     I,,AUTO
         2 001212   000077 115007                    CMPA    63,DL
         2 001213   001216 601000 2                  TNZ     s:10552

      612    10551    3              THEN LCNT = 0;

  10551  2 001214   200011 450100                    STZ     LCNT,,AUTO
         2 001215   001220 710000 2                  TRA     s:10553

      613    10552    3              ELSE LCNT = I+1;

  10552  2 001216   000001 035007                    ADLA    1,DL
         2 001217   200011 755100                    STA     LCNT,,AUTO

      614    10553    3              CALL CHECK_BREAK ALTRET(DPSEND);

  10553  2 001220   001445 701000 2                  TSX1    CHECK_BREAK
         2 001221   001261 702000 2                  TSX2    DPSEND
PL6.E3A0      #001=DAB$HISTORY File=DAB$HISTORY.:E05TSI                          TUE 07/29/97 12:38 Page:67

      615    10554    3              CALL DAF$WRITE(VECTOR(DPSE_CUOUDU_FMT),

  10554  2 001222   000026 235000 3                  LDA     22
         2 001223   200010 236100                    LDQ     I,,AUTO
         2 001224   000023 736000                    QLS     19
         2 001225   200007 036100                    ADLQ    HR$,,AUTO
         2 001226   200046 757100                    STAQ    FAULT_TYPE+17,,AUTO
         2 001227   000026 235000 3                  LDA     22
         2 001230   200010 236100                    LDQ     I,,AUTO
         2 001231   000023 736000                    QLS     19
         2 001232   000200 036003                    ADLQ    128,DU
         2 001233   200007 036100                    ADLQ    HR$,,AUTO
         2 001234   200052 757100                    STAQ    FAULT_TYPE+21,,AUTO
         2 001235   200046 237100                    LDAQ    FAULT_TYPE+17,,AUTO
         2 001236   200050 757100                    STAQ    FAULT_TYPE+19,,AUTO
         2 001237   200052 237100                    LDAQ    FAULT_TYPE+21,,AUTO
         2 001240   200054 757100                    STAQ    FAULT_TYPE+23,,AUTO
         2 001241   200054 630500                    EPPR0   FAULT_TYPE+23,,AUTO
         2 001242   200061 450500                    STP0    FAULT_TYPE+28,,AUTO
         2 001243   200050 631500                    EPPR1   FAULT_TYPE+19,,AUTO
         2 001244   200060 451500                    STP1    FAULT_TYPE+27,,AUTO
         2 001245   200016 633500                    EPPR3   VEC_LCNT,,AUTO
         2 001246   200057 453500                    STP3    FAULT_TYPE+26,,AUTO
         2 001247   000106 236000 3                  LDQ     70
         2 001250   200056 756100                    STQ     FAULT_TYPE+25,,AUTO
         2 001251   200056 630500                    EPPR0   FAULT_TYPE+25,,AUTO
         2 001252   000000 220000 xsym               LDX0    DAF$WRITE
         2 001253   000022 631400 xsym               EPPR1   B_VECTNIL+18
         2 001254   000000 701010                    TSX1    0,X0
         2 001255   000000 011000                    NOP     0

      616    10555    3                             VEC_LCNT,
      617    10556    3                             VECTOR(DPSEHR_BASED.CU(I)),
      618    10557    3                             VECTOR(DPSEHR_BASED.OUDU(I)));
      619    10558    3              END;

PL6.E3A0      #001=DAB$HISTORY File=DAB$HISTORY.:E05TSI                          TUE 07/29/97 12:38 Page:68
  10558  2 001256   000001 336007                    LCQ     1,DL
         2 001257   200010 056100                    ASQ     I,,AUTO
         2 001260   001211 605000 2                  TPL     s:10550

      620    10559    2   DPSEND: CALL XUR$CLRENABLE;

  10559  2 001261   000002 631400 xsym  DPSEND       EPPR1   B_VECTNIL+2
         2 001262   000000 701000 xent               TSX1    XUR$CLRENABLE
         2 001263   000000 011000                    NOP     0

      621    10560    2           RETURN;

  10560  2 001264   200042 221300                    LDX1  ! FAULT_TYPE+13,,AUTO
         2 001265   000001 702211                    TSX2  ! 1,X1

      622    10561    2   END DPSEHIST;
      623    10562        %EJECT;
PL6.E3A0      #001=DAB$HISTORY File=DAB$HISTORY.:E05TSI                          TUE 07/29/97 12:38 Page:69
      624    10563    1   DPS90HIST: PROC;

  10563  2 001266   200042 741300       DPS90HIST    STX1  ! FAULT_TYPE+13,,AUTO

      625    10564    2         CALL XUR$DISABLE;

  10564  2 001267   000002 631400 xsym               EPPR1   B_VECTNIL+2
         2 001270   000000 701000 xent               TSX1    XUR$DISABLE
         2 001271   000000 011000                    NOP     0

      626    10565    2         IF RPT.PAGELEN.N>0 AND RPT.PAGELEN.N-RPT.CURLINE<%DPS90LINES

  10565  2 001272   000000 470400 xsym               LDP0    DA_REPORT$
         2 001273   000000 236100                    LDQ     0,,PR0
         2 001274   377777 316003                    CANQ    131071,DU
         2 001275   001312 600000 2                  TZE     s:10567
         2 001276   000001 236100                    LDQ     1,,PR0
         2 001277   000022 732000                    QRS     18
         2 001300   200046 756100                    STQ     FAULT_TYPE+17,,AUTO
         2 001301   000000 236100                    LDQ     0,,PR0
         2 001302   000022 772000                    QRL     18
         2 001303   377777 376007                    ANQ     131071,DL
         2 001304   200046 136100                    SBLQ    FAULT_TYPE+17,,AUTO
         2 001305   000023 116007                    CMPQ    19,DL
         2 001306   001312 605000 2                  TPL     s:10567

      627    10566    2         THEN CALL DAF$NEWPAGE;

  10566  2 001307   000002 631400 xsym               EPPR1   B_VECTNIL+2
         2 001310   000000 701000 xent               TSX1    DAF$NEWPAGE
         2 001311   000000 011000                    NOP     0

      628    10567    2         CALL DAF$WRITE (VECTOR(DPS90_TITLE));

  10567  2 001312   000112 630400 3                  EPPR0   74
         2 001313   000000 220000 xsym               LDX0    DAF$WRITE
         2 001314   000017 631400 xsym               EPPR1   B_VECTNIL+15
PL6.E3A0      #001=DAB$HISTORY File=DAB$HISTORY.:E05TSI                          TUE 07/29/97 12:38 Page:70
         2 001315   000000 701010                    TSX1    0,X0
         2 001316   000000 011000                    NOP     0

      629    10568    3         DO LCNT=15 DOWNTO 0;

  10568  2 001317   000017 235007                    LDA     15,DL
         2 001320   200011 755100                    STA     LCNT,,AUTO

      630    10569    3            CALL CHECK_BREAK ALTRET (DPS90END);

  10569  2 001321   001445 701000 2                  TSX1    CHECK_BREAK
         2 001322   001344 702000 2                  TSX2    DPS90END

      631    10570    3            CALL DAF$WRITE (VECTOR(DPS90_FMT), VECTOR(DPS90HR_BASED(LCNT)));

  10570  2 001323   777640 235007                    LDA     -96,DL
         2 001324   200011 236100                    LDQ     LCNT,,AUTO
         2 001325   000022 736000                    QLS     18
         2 001326   200007 036100                    ADLQ    HR$,,AUTO
         2 001327   200046 757100                    STAQ    FAULT_TYPE+17,,AUTO
         2 001330   200046 630500                    EPPR0   FAULT_TYPE+17,,AUTO
         2 001331   200051 450500                    STP0    FAULT_TYPE+20,,AUTO
         2 001332   000116 236000 3                  LDQ     78
         2 001333   200050 756100                    STQ     FAULT_TYPE+19,,AUTO
         2 001334   200050 630500                    EPPR0   FAULT_TYPE+19,,AUTO
         2 001335   000000 220000 xsym               LDX0    DAF$WRITE
         2 001336   000020 631400 xsym               EPPR1   B_VECTNIL+16
         2 001337   000000 701010                    TSX1    0,X0
         2 001340   000000 011000                    NOP     0

      632    10571    3            END;

  10571  2 001341   000001 336007                    LCQ     1,DL
         2 001342   200011 056100                    ASQ     LCNT,,AUTO
         2 001343   001321 605000 2                  TPL     s:10569

      633    10572    2   DPS90END: CALL XUR$CLRENABLE;
PL6.E3A0      #001=DAB$HISTORY File=DAB$HISTORY.:E05TSI                          TUE 07/29/97 12:38 Page:71

  10572  2 001344   000002 631400 xsym  DPS90END     EPPR1   B_VECTNIL+2
         2 001345   000000 701000 xent               TSX1    XUR$CLRENABLE
         2 001346   000000 011000                    NOP     0

      634    10573    2         RETURN;

  10573  2 001347   200042 221300                    LDX1  ! FAULT_TYPE+13,,AUTO
         2 001350   000001 702211                    TSX2  ! 1,X1

      635    10574    2   END DPS90HIST;
      636    10575        %EJECT;
PL6.E3A0      #001=DAB$HISTORY File=DAB$HISTORY.:E05TSI                          TUE 07/29/97 12:38 Page:72
      637    10576    1   DPS8000HIST: PROC;

  10576  2 001351   200042 741300       DPS8000HIST  STX1  ! FAULT_TYPE+13,,AUTO

      638    10577    2         CALL XUR$DISABLE;

  10577  2 001352   000002 631400 xsym               EPPR1   B_VECTNIL+2
         2 001353   000000 701000 xent               TSX1    XUR$DISABLE
         2 001354   000000 011000                    NOP     0

      639    10578    2         IF RPT.PAGELEN.N>0 AND RPT.PAGELEN.N-RPT.CURLINE<%DPS8000LINES

  10578  2 001355   000000 470400 xsym               LDP0    DA_REPORT$
         2 001356   000000 236100                    LDQ     0,,PR0
         2 001357   377777 316003                    CANQ    131071,DU
         2 001360   001375 600000 2                  TZE     s:10580
         2 001361   000001 236100                    LDQ     1,,PR0
         2 001362   000022 732000                    QRS     18
         2 001363   200046 756100                    STQ     FAULT_TYPE+17,,AUTO
         2 001364   000000 236100                    LDQ     0,,PR0
         2 001365   000022 772000                    QRL     18
         2 001366   377777 376007                    ANQ     131071,DL
         2 001367   200046 136100                    SBLQ    FAULT_TYPE+17,,AUTO
         2 001370   000036 116007                    CMPQ    30,DL
         2 001371   001375 605000 2                  TPL     s:10580

      640    10579    2         THEN CALL DAF$NEWPAGE;

  10579  2 001372   000002 631400 xsym               EPPR1   B_VECTNIL+2
         2 001373   000000 701000 xent               TSX1    DAF$NEWPAGE
         2 001374   000000 011000                    NOP     0

      641    10580    2         CALL DAF$WRITE (VECTOR(DPS8000_TITLE));

  10580  2 001375   000122 630400 3                  EPPR0   82
         2 001376   000000 220000 xsym               LDX0    DAF$WRITE
         2 001377   000017 631400 xsym               EPPR1   B_VECTNIL+15
PL6.E3A0      #001=DAB$HISTORY File=DAB$HISTORY.:E05TSI                          TUE 07/29/97 12:38 Page:73
         2 001400   000000 701010                    TSX1    0,X0
         2 001401   000000 011000                    NOP     0

      642    10581    3         DO I = 63 DOWNTO 0;

  10581  2 001402   000077 235007                    LDA     63,DL
         2 001403   200010 755100                    STA     I,,AUTO

      643    10582    3            IF I = 63 THEN

  10582  2 001404   200010 235100                    LDA     I,,AUTO
         2 001405   000077 115007                    CMPA    63,DL
         2 001406   001411 601000 2                  TNZ     s:10584

      644    10583    3               LCNT = 0;

  10583  2 001407   200011 450100                    STZ     LCNT,,AUTO
         2 001410   001413 710000 2                  TRA     s:10585

      645    10584    3            ELSE LCNT = I+1;

  10584  2 001411   000001 035007                    ADLA    1,DL
         2 001412   200011 755100                    STA     LCNT,,AUTO

      646    10585    3            CALL CHECK_BREAK ALTRET (DPS8000END);

  10585  2 001413   001445 701000 2                  TSX1    CHECK_BREAK
         2 001414   001440 702000 2                  TSX2    DPS8000END

      647    10586    3            CALL DAF$WRITE (VECTOR(DPS8000_FMT), VEC_LCNT,VECTOR(DPS8000HR_BASED(I)));

  10586  2 001415   000126 235000 3                  LDA     86
         2 001416   200010 236100                    LDQ     I,,AUTO
         2 001417   000024 736000                    QLS     20
         2 001420   200007 036100                    ADLQ    HR$,,AUTO
         2 001421   200046 757100                    STAQ    FAULT_TYPE+17,,AUTO
         2 001422   200046 630500                    EPPR0   FAULT_TYPE+17,,AUTO
PL6.E3A0      #001=DAB$HISTORY File=DAB$HISTORY.:E05TSI                          TUE 07/29/97 12:38 Page:74
         2 001423   200052 450500                    STP0    FAULT_TYPE+21,,AUTO
         2 001424   200016 631500                    EPPR1   VEC_LCNT,,AUTO
         2 001425   200051 451500                    STP1    FAULT_TYPE+20,,AUTO
         2 001426   000127 236000 3                  LDQ     87
         2 001427   200050 756100                    STQ     FAULT_TYPE+19,,AUTO
         2 001430   200050 630500                    EPPR0   FAULT_TYPE+19,,AUTO
         2 001431   000000 220000 xsym               LDX0    DAF$WRITE
         2 001432   000021 631400 xsym               EPPR1   B_VECTNIL+17
         2 001433   000000 701010                    TSX1    0,X0
         2 001434   000000 011000                    NOP     0

      648    10587    3            END;

  10587  2 001435   000001 336007                    LCQ     1,DL
         2 001436   200010 056100                    ASQ     I,,AUTO
         2 001437   001404 605000 2                  TPL     s:10582

      649    10588    2   DPS8000END: CALL XUR$CLRENABLE;

  10588  2 001440   000002 631400 xsym  DPS8000END   EPPR1   B_VECTNIL+2
         2 001441   000000 701000 xent               TSX1    XUR$CLRENABLE
         2 001442   000000 011000                    NOP     0

      650    10589    2         RETURN;

  10589  2 001443   200042 221300                    LDX1  ! FAULT_TYPE+13,,AUTO
         2 001444   000001 702211                    TSX2  ! 1,X1

      651    10590    2   END DPS8000HIST;
      652    10591    1   CHECK_BREAK: PROC ALTRET;

  10591  2 001445   200044 741300       CHECK_BREAK  STX1  ! FAULT_TYPE+15,,AUTO

      653    10592    2           IF XUR.BREAK

  10592  2 001446   000000 470400 xsym               LDP0    DA_XUR$
         2 001447   000071 236100                    LDQ     57,,PR0
PL6.E3A0      #001=DAB$HISTORY File=DAB$HISTORY.:E05TSI                          TUE 07/29/97 12:38 Page:75
         2 001450   040000 316003                    CANQ    16384,DU
         2 001451   001502 600000 2                  TZE     s:10607

      654    10593    3           THEN DO;

      655    10594    3              CALL M$WAIT(FPT_WAIT);

  10594  2 001452   000000 630400 1                  EPPR0   FPT_WAIT
         2 001453   020006 713400                    CLIMB   8198
         2 001454   400400 401760                    pmme    nvectors=2

      656    10595    3              IF XUR.BIP > 2

  10595  2 001455   000000 470400 xsym               LDP0    DA_XUR$
         2 001456   000102 235100                    LDA     66,,PR0
         2 001457   000002 115007                    CMPA    2,DL
         2 001460   001470 604400 2                  TMOZ    s:10601

      657    10596    4              THEN DO;

      658    10597    4                 CALL XUR$ENABLE;

  10597  2 001461   000002 631400 xsym               EPPR1   B_VECTNIL+2
         2 001462   000000 701000 xent               TSX1    XUR$ENABLE
         2 001463   000000 011000                    NOP     0

      659    10598    4                 CALL XUR$DISABLE;

  10598  2 001464   000002 631400 xsym               EPPR1   B_VECTNIL+2
         2 001465   000000 701000 xent               TSX1    XUR$DISABLE
         2 001466   000000 011000                    NOP     0

      660    10599    4                 END;

  10599  2 001467   001502 710000 2                  TRA     s:10607

      661    10600    4              ELSE DO;
PL6.E3A0      #001=DAB$HISTORY File=DAB$HISTORY.:E05TSI                          TUE 07/29/97 12:38 Page:76

      662    10601    4                 CALL M$TRMPRG(FPT_TRMPRG);

  10601  2 001470   000006 630400 1                  EPPR0   FPT_TRMPRG
         2 001471   160004 713400                    CLIMB   57348
         2 001472   400400 401760                    pmme    nvectors=2

      663    10602    4                 XUR.BIP = 1;

  10602  2 001473   000001 235007                    LDA     1,DL
         2 001474   000000 470400 xsym               LDP0    DA_XUR$
         2 001475   000102 755100                    STA     66,,PR0

      664    10603    4                 XUR.BREAK = '0'B;

  10603  2 001476   000130 236000 3                  LDQ     88
         2 001477   000071 356100                    ANSQ    57,,PR0

      665    10604    4                 ALTRETURN;

  10604  2 001500   200044 221300                    LDX1  ! FAULT_TYPE+15,,AUTO
         2 001501   000000 702211                    TSX2  ! 0,X1

      666    10605    4                 END;
      667    10606    3              END;
      668    10607    2           RETURN;

  10607  2 001502   200044 221300                    LDX1  ! FAULT_TYPE+15,,AUTO
         2 001503   000001 702211                    TSX2  ! 1,X1
      669    10608    2   END CHECK_BREAK;
      670    10609    1   END DAB$HISTORY;

PL6.E3A0      #001=DAB$HISTORY File=DAB$HISTORY.:E05TSI                          TUE 07/29/97 12:38 Page:77
--  Include file information  --

   XUH_MACRO_C.:E05TOU  is referenced.
   XU_MACRO_C.:E05TOU  is referenced.
   XUR_ENTRY.:E05TOU  cannot be made into a system file and is referenced.
   DA_ANLZ_R.:E05TOU  cannot be made into a system file and is referenced.
   CP_6_C.:E05TOU  is referenced.
   CP_6.:E05TOU  cannot be made into a system file and is referenced.
   HF_SCODE_C.:E05TOU  is referenced.
   M_INFO_C.:E05TOU  is referenced.
   B_STRINGS_C.:E05TOU  is referenced.
   DA_FORMAT_R.:E05TOU  cannot be made into a system file and is referenced.
   DA_FORMAT_C.:E05TOU  is referenced.
      No diagnostics issued in procedure DAB$HISTORY.
PL6.E3A0      #001=DAB$HISTORY File=DAB$HISTORY.:E05TSI                          TUE 07/29/97 12:38 Page:78

 **** Variables and constants ****

  ****  Section 001 RoData DAB$HISTORY

  ****  Scalars and arrays  ****
OctLoc.c.b A Datatyp(siz) R M Lvl/name                 OctLoc.c.b A Datatyp(siz) R M Lvl/name

   254-0-0/c STRC(3978)  r     1 CU_TITLE                2057-0-0/c STRC(837)   r     1 DPS8000_FMT
  1357-0-0/c STRC(5130)  r     1 DPS8000_TITLE           2052-0-0/c STRC(162)   r     1 DPS90_FMT
  1350-0-0/c STRC(243)   r     1 DPS90_TITLE             2034-0-0/c STRC(495)   r     1 DPSE_CUOUDU_FMT
  1327-0-0/c STRC(585)   r     1 DPSE_CUOUDU_TITLE       1765-0-0/c STRC(1395)  r     1 DPSE_VU_FMT
  1315-0-0/c STRC(360)   r     1 DPSE_VU_TITLE            560-0-0/c STRC(4518)  r     1 DU_TITLE
  1730-0-0/c STRC(1035)  r     1 ELS_FMT                  756-0-0/c STRC(8028)  r     1 ELS_TITLE
    16-0-0/c STRC(2025)  r     1 FINFOFMT                   6-0-0/d STRC(288)   r     1 FPT_TRMPRG
     0-0-0/d STRC(216)   r     1 FPT_WAIT                1621-0-0/c STRC(657)   r     1 L66_CU_FMT
  1701-0-0/c STRC(810)   r     1 L66_DU_FMT              1644-0-0/c STRC(1035)  r     1 L66_OU_FMT
  1576-0-0/c STRC(657)   r     1 L66_VU_FMT              2111-0-0/c CHAR(3)     r     1 NOYES(0:1)
  2107-0-0/c CHAR(2)     r     1 ONEBLANKLINE             433-0-0/c STRC(3060)  r     1 OU_TITLE
  2110-0-0/c CHAR(3)     r     1 TWOBLANKLINES            107-0-0/c STRC(3618)  r     1 VU_TITLE
  2113-0-0/c CHAR(7)     r     1 WHOS_HJIT(0:7)

  ****  Auto variables  ****

  ****  Scalars and arrays  ****
OctLoc.c.b A Datatyp(siz) R M Lvl/name                 OctLoc.c.b A Datatyp(siz) R M Lvl/name

     4-0-0/w PTR         r     1 @AUTOFLAG                  6-0-0/w PTR         r     1 @FORCE
     5-0-0/w PTR         r     1 @FRAMESIZE                 3-0-0/w PTR         r     1 @LOC
    22-0-0/w PTR         r     1 AF$                       *0-0-0/w BIT         r     1 AUTOFLAG
    14-0-0/d BIT (72)    r     1 DPSEVU1HR                 25-0-0/c CHAR(48)    r     1 FAULT_TYPE
    *0-0-0/w SBIN        r     1 FORCE                     *0-0-0/w UBIN        r     1 FRAMESIZE
     7-0-0/w PTR         r     1 HR$                       10-0-0/w SBIN        r     1 I
    11-0-0/w SBIN        r     1 LCNT                      *0-0-0/w SBIN        r     1 LOC
    12-0-0/w UBIN        r     1 OPCODE                    24-0-0/w UBIN        r     1 PTYPE
    23-0-0/w UBIN        r     1 SSR_OFFSET                16-0-0/d BIT (72)    r     1 VEC_LCNT
    20-0-0/d BIT (72)    r     1 VEC_OPCODE

PL6.E3A0      #001=DAB$HISTORY File=DAB$HISTORY.:E05TSI                          TUE 07/29/97 12:38 Page:79
  ****  SYMREF variables  ****

  ****  Scalars and arrays  ****
OctLoc.c.b A Datatyp(siz) R M Lvl/name                 OctLoc.c.b A Datatyp(siz) R M Lvl/name

     0-0-0/c CHAR(24)    r     1 DAB$FLTCODE(0:21)
     0-0-0/w EPTR        r     1 DAF$WRITE                  0-0-0/w PTR         r     1 DA_REPORT$
     0-0-0/w PTR         r     1 DA_XUR$

  ****  BASED and DCB variables  ****

  ****  Scalars and arrays  ****
OctLoc.c.b A Datatyp(siz) R M Lvl/name                 OctLoc.c.b A Datatyp(siz) R M Lvl/name

     0-0-0/d STRC(19656) r     1 AUTOFRAME
     0-0-0/d STRC(144)   r     1 DPS8000HR_BASED(0:63)
     0-0-0/w STRC        r     1 DPS90HR_BASED(0:15)
     0-0-0/d STRC(18432) r     1 DPSEHR_BASED
     0-0-0/d STRC(72)    r     1 ELSHR_BASED(0:15)
     0-0-0/d STRC(4608)  r     1 L66HR_BASED                0-0-0N  NULL        r     1 M$UC
     0-0-0/w STRC(288)   r     1 RPT                        0-0-0/d STRC(9612)  r     1 XUR


   Procedure DAB$HISTORY requires 836 words for executable code.
   Procedure DAB$HISTORY requires 74 words of local(AUTO) storage.

    No errors detected in file DAB$HISTORY.:E05TSI    .
PL6.E3A0      #001=DAB$HISTORY File=DAB$HISTORY.:E05TSI                          TUE 07/29/97 12:38 Page:80
          *** CROSS REFERENCE LISTING ***
**     DENOTES     IDENTIFIER DEFINITION
<<                 IDENTIFIER'S VALUE SET
>>                 IDENTIFIER'S VALUE USED
<>                 IDENTIFIER SET AND/OR USED
--                 IDENTIFIER REFERENCED
PL6.E3A0      #001=DAB$HISTORY File=DAB$HISTORY.:E05TSI                          TUE 07/29/97 12:38 Page:81
          MINI XREF LISTING

AF$
      9932**DCL     10365--IMP-PTR 10400<<ASSIGN  10401>>IF      10401>>IF      10401>>IF      10401>>IF
     10401>>IF      10401>>IF      10412>>IF      10412>>IF      10415>>ASSIGN  10416>>ASSIGN  10416>>ASSIGN
     10424>>CALL    10424>>CALL    10424>>CALL    10424>>CALL    10429>>ASSIGN  10433>>IF      10437>>IF
     10441>>IF      10447>>IF      10451>>IF
AUTOFLAG
      9921**DCL         7--PROC    10401>>IF      10411>>IF      10455>>IF      10476>>IF      10487>>IF
     10498>>IF
AUTOFRAME.ERROR.CODE
     10393**DCL     10412>>IF      10412>>IF      10415>>ASSIGN
AUTOFRAME.FLTREG
     10390**DCL     10424--CALL
AUTOFRAME.HREGS
     10397**DCL     10399--ASSIGN
AUTOFRAME.SSR.BASE.PAGE
     10380**DCL     10416>>ASSIGN
AUTOFRAME.SSR.BASE.WRD
     10381**DCL     10416>>ASSIGN
AUTOFRAME.SSR.WSR
     10377**DCL     10424>>CALL
AUTOFRAME.SUBCODE
     10384**DCL     10424--CALL
AUTOFRAME.SUBCODE.PTYPE
     10388**DCL     10429>>ASSIGN
AUTOFRAME.SUBCODE.TTM
     10387**DCL     10424>>CALL
AUTOFRAME.WORDS
     10395**DCL     10401>>IF      10401>>IF      10401>>IF      10401>>IF      10401>>IF      10401>>IF
     10433>>IF      10437>>IF      10441>>IF      10447>>IF      10451>>IF
CHECK_BREAK
     10591**PROC    10467--CALL    10479--CALL    10490--CALL    10501--CALL    10517--CALL    10538--CALL
     10553--CALL    10569--CALL    10585--CALL
PL6.E3A0      #001=DAB$HISTORY File=DAB$HISTORY.:E05TSI                          TUE 07/29/97 12:38 Page:82
CU_TITLE
     10041**DCL     10477--CALL
DAB$FLTCODE
      9942**DCL     10415>>ASSIGN
DAF$NEWPAGE
      9941**DCL-ENT 10410--CALL    10463--CALL    10475--CALL    10486--CALL    10497--CALL    10513--CALL
     10530--CALL    10547--CALL    10566--CALL    10579--CALL
DAF$WRITE
      9940**DCL     10411>>CALL    10424>>CALL    10456>>CALL    10464>>CALL    10468>>CALL    10476>>CALL
     10477>>CALL    10480>>CALL    10487>>CALL    10488>>CALL    10491>>CALL    10498>>CALL    10499>>CALL
     10502>>CALL    10514>>CALL    10518>>CALL    10531>>CALL    10539>>CALL    10548>>CALL    10554>>CALL
     10567>>CALL    10570>>CALL    10580>>CALL    10586>>CALL
DA_FMTSEG.P
       260**DCL       260--REDEF
DA_REPORT$
       259**DCL      9870--IMP-PTR 10409>>IF      10409>>IF      10409>>IF      10462>>IF      10462>>IF
     10462>>IF      10474>>IF      10474>>IF      10474>>IF      10485>>IF      10485>>IF      10485>>IF
     10496>>IF      10496>>IF      10496>>IF      10512>>IF      10512>>IF      10512>>IF      10529>>IF
     10529>>IF      10529>>IF      10546>>IF      10546>>IF      10546>>IF      10565>>IF      10565>>IF
     10565>>IF      10578>>IF      10578>>IF      10578>>IF
DA_XUR$
      6184**DCL      9412--IMP-PTR 10592>>IF      10595>>IF      10602>>ASSIGN  10603>>ASSIGN
DPS8000END IN PROCEDURE DPS8000HIST
     10588**LABEL   10585--CALLALT
DPS8000HIST
     10576**PROC    10452--CALL
DPS8000HR_BASED
     10359**DCL     10586--CALL
DPS8000_FMT
     10322**DCL     10586--CALL
DPS8000_TITLE
     10234**DCL     10580--CALL
DPS90END IN PROCEDURE DPS90HIST
     10572**LABEL   10569--CALLALT
DPS90HIST
     10563**PROC    10448--CALL
PL6.E3A0      #001=DAB$HISTORY File=DAB$HISTORY.:E05TSI                          TUE 07/29/97 12:38 Page:83
DPS90HR_BASED
     10357**DCL     10570--CALL
DPS90_FMT
     10320**DCL     10570--CALL
DPS90_TITLE
     10231**DCL     10567--CALL
DPSECUOUDU IN PROCEDURE DPSEHIST
     10546**LABEL   10538--CALLALT
DPSEHIST
     10527**PROC    10438--CALL
DPSEHR_BASED.CU
     10349**DCL     10554--CALL
DPSEHR_BASED.OUDU
     10350**DCL     10554--CALL
DPSEHR_BASED.VU1
     10351**DCL     10533>>ASSIGN
DPSEHR_BASED.VU2
     10352**DCL     10539--CALL
DPSEHR_BASED.VU2.OPCODE
     10354**DCL     10534>>ASSIGN
DPSEND IN PROCEDURE DPSEHIST
     10559**LABEL   10553--CALLALT
DPSEVU1HR
      9929**DCL     10533<<ASSIGN  10539--CALL
DPSE_CUOUDU_FMT
     10315**DCL     10554--CALL
DPSE_CUOUDU_TITLE
     10227**DCL     10548--CALL
DPSE_VU_FMT
     10307**DCL     10539--CALL
DPSE_VU_TITLE
     10225**DCL     10531--CALL
DU_TITLE
     10117**DCL     10499--CALL
ELSEND IN PROCEDURE ELSHIST
     10523**LABEL   10517--CALLALT
PL6.E3A0      #001=DAB$HISTORY File=DAB$HISTORY.:E05TSI                          TUE 07/29/97 12:38 Page:84
ELSHIST
     10510**PROC    10442--CALL
ELSHR_BASED
     10343**DCL     10518--CALL
ELSHR_BASED.OPCODE
     10345**DCL     10516>>ASSIGN
ELS_FMT
     10301**DCL     10518--CALL
ELS_TITLE
     10153**DCL     10514--CALL
FAULT_TYPE
      9935**DCL     10414<<ASSIGN  10415<<ASSIGN  10424--CALL
FINFOFMT
      9994**DCL     10424--CALL
FORCE
      9923**DCL         7--PROC    10428>>IF      10430>>ASSIGN  10433>>IF      10437>>IF      10441>>IF
     10447>>IF      10451>>IF
FPT_TRMPRG
      9977**DCL     10601<>CALL
FPT_TRMPRG.V
      9984**DCL      9979--DCLINIT
FPT_TRMPRG.V.CTLFLG.RSTBRK#
      9985**DCL      9986--REDEF
FPT_WAIT
      9957**DCL     10594<>CALL
FPT_WAIT.V
      9958**DCL      9957--DCLINIT
FRAMESIZE
      9922**DCL         7--PROC    10401>>IF      10401>>IF      10401>>IF      10401>>IF      10401>>IF
     10401>>IF
HR$
      9925**DCL     10335--IMP-PTR 10343--IMP-PTR 10348--IMP-PTR 10357--IMP-PTR 10359--IMP-PTR 10399<<ASSIGN
     10400>>ASSIGN  10466>>ASSIGN  10468>>CALL    10480>>CALL    10491>>CALL    10502>>CALL    10516>>ASSIGN
     10518>>CALL    10533>>ASSIGN  10534>>ASSIGN  10539>>CALL    10554>>CALL    10554>>CALL    10570>>CALL
     10586>>CALL
I
PL6.E3A0      #001=DAB$HISTORY File=DAB$HISTORY.:E05TSI                          TUE 07/29/97 12:38 Page:85
      9926**DCL     10532<<DOINDEX 10533>>ASSIGN  10534>>ASSIGN  10535>>IF      10537>>ASSIGN  10539>>CALL
     10549<<DOINDEX 10550>>IF      10552>>ASSIGN  10554>>CALL    10554>>CALL    10581<<DOINDEX 10582>>IF
     10584>>ASSIGN  10586>>CALL
L66CU IN PROCEDURE L66HIST
     10474**LABEL   10467--CALLALT
L66DU IN PROCEDURE L66HIST
     10496**LABEL   10490--CALLALT
L66END IN PROCEDURE L66HIST
     10506**LABEL   10501--CALLALT
L66HIST
     10460**PROC    10434--CALL
L66HR_BASED.CU
     10336**DCL     10480--CALL
L66HR_BASED.DU
     10341**DCL     10502--CALL
L66HR_BASED.OU
     10337**DCL     10491--CALL
L66HR_BASED.VU
     10338**DCL     10468--CALL
L66HR_BASED.VU.OPCODE
     10339**DCL     10466>>ASSIGN
L66OU IN PROCEDURE L66HIST
     10485**LABEL   10479--CALLALT
L66_CU_FMT
     10285**DCL     10480--CALL
L66_DU_FMT
     10296**DCL     10502--CALL
L66_OU_FMT
     10290**DCL     10491--CALL
L66_VU_FMT
     10280**DCL     10468--CALL
LCNT
      9927**DCL     10426--ASSIGN  10465<<DOINDEX 10466>>ASSIGN  10468>>CALL    10478<<DOINDEX 10480>>CALL
     10489<<DOINDEX 10491>>CALL    10500<<DOINDEX 10502>>CALL    10515<<DOINDEX 10516>>ASSIGN  10518>>CALL
     10536<<ASSIGN  10537<<ASSIGN  10551<<ASSIGN  10552<<ASSIGN  10568<<DOINDEX 10570>>CALL    10583<<ASSIGN
     10584<<ASSIGN
PL6.E3A0      #001=DAB$HISTORY File=DAB$HISTORY.:E05TSI                          TUE 07/29/97 12:38 Page:86
LOC
      9920**DCL         7--PROC    10399--ASSIGN
M$TRMPRG
      6127**DCL-ENT 10601--CALL
M$WAIT
      6160**DCL-ENT 10594--CALL
NOHISTREGS
     10458**LABEL   10435--GOTO    10439--GOTO    10443--GOTO    10449--GOTO    10453--GOTO
NOYES
     10330**DCL     10424--CALL
ONEBLANKLINE
     10328**DCL     10411--CALL    10476--CALL    10487--CALL    10498--CALL
OPCODE
      9928**DCL     10427--ASSIGN  10466<<ASSIGN  10516<<ASSIGN  10534<<ASSIGN
OU_TITLE
     10081**DCL     10488--CALL
PTYPE
      9934**DCL     10429<<ASSIGN  10430<<ASSIGN  10431>>DOCASE
RPT.CURLINE
      9887**DCL     10409>>IF      10462>>IF      10474>>IF      10485>>IF      10496>>IF      10512>>IF
     10529>>IF      10546>>IF      10565>>IF      10578>>IF
RPT.PAGELEN.N
      9878**DCL     10409>>IF      10409>>IF      10462>>IF      10462>>IF      10474>>IF      10474>>IF
     10485>>IF      10485>>IF      10496>>IF      10496>>IF      10512>>IF      10512>>IF      10529>>IF
     10529>>IF      10546>>IF      10546>>IF      10565>>IF      10565>>IF      10578>>IF      10578>>IF
SSR_OFFSET
      9933**DCL     10416<<ASSIGN  10424--CALL
TWOBLANKLINES
     10329**DCL     10456--CALL
VEC_LCNT
      9930**DCL     10426<<ASSIGN  10468<>CALL    10480<>CALL    10491<>CALL    10502<>CALL    10518<>CALL
     10539<>CALL    10554<>CALL    10586<>CALL
VEC_OPCODE
      9931**DCL     10427<<ASSIGN  10468<>CALL    10518<>CALL    10539<>CALL
VU_TITLE
     10002**DCL     10464--CALL
PL6.E3A0      #001=DAB$HISTORY File=DAB$HISTORY.:E05TSI                          TUE 07/29/97 12:38 Page:87
WHOS_HJIT
     10331**DCL     10424--CALL
XUR.BIP
      9673**DCL     10595>>IF      10602<<ASSIGN
XUR.BREAK
      9521**DCL     10592>>IF      10603<<ASSIGN
XUR.BUF
      9848**DCL      9851--REDEF
XUR$CLRENABLE
      6209**DCL-ENT 10506--CALL    10523--CALL    10559--CALL    10572--CALL    10588--CALL
XUR$DISABLE
      6207**DCL-ENT 10461--CALL    10511--CALL    10528--CALL    10564--CALL    10577--CALL    10598--CALL
XUR$ENABLE
      6208**DCL-ENT 10597--CALL
