VERSION E05

PL6.E3A0      #001=DAB$OCTDUMP File=DAB$OCTDUMP.:E05TSI                          TUE 07/29/97 12:39 Page:1
        1        1        /*M* DAB$OCTDUMP - OCTAL DUMP ROUTINE FOR ANLZ */
        2        2        /*T***********************************************************/
        3        3        /*T*                                                         */
        4        4        /*T* Copyright (c) Bull HN Information Systems Inc., 1997    */
        5        5        /*T*                                                         */
        6        6        /*T***********************************************************/
        7        7        DAB$OCTDUMP: PROC(MEM,NWRDS,OFFSET,ASCFLG,LONGFLG);
        8        8    1   DCL MEM SBIN;
        9        9    1   DCL NWRDS SBIN;
       10       10    1   DCL OFFSET SBIN;
       11       11    1   DCL ASCFLG BIT(1) UNAL;
       12       12    1   DCL LONGFLG BIT(1) UNAL;
       13       13        /**/
       14       14    1   DCL DAF$WRITE EPTR SYMREF;
       15       15    1   DCL DAB$OUTPUT ENTRY(2) ALTRET;
       16       16        /**/
       17       17        %INCLUDE DA_ANLZ_R;
       18       30        %INCLUDE DA_MAP_R;
       19       60        %INCLUDE DA_FORMAT_R;
       20       72        %INCLUDE DA_FORMAT_C;
       21      314        %REPORT (NAME=REPORT,STCLASS="BASED(DA_REPORT$)");
       22      380        %INCLUDE XU_FORMAT_C;
       23      542        %F_FDS (NAME=DA_FDS,STCLASS=SYMREF);
       24      655        %INCLUDE B$TABLES_C;
       25      763        %B$XL_ASC_DUMP (NAME=DA_PRINTABLE_TBL);
       26      767        /**/
       27      768    1   DCL DAB_BUF2$ PTR STATIC SYMDEF;
       28      769    1   DCL DAB_STAR CHAR(1) STATIC SYMDEF;
       29      770    1   DCL DAB_LASTLINE BIT(1) ALIGNED STATIC SYMDEF;
       30      771    1   DCL DAB_LONG BIT(1) ALIGNED STATIC SYMDEF;
       31      772        /**/
       32      773    1   DCL BUF2 CHAR(256);
       33      774    1   DCL BUF1$ PTR;
       34      775    1   DCL OUTPUT EPTR;
       35      776    1   DCL AFLG SBIN;
       36      777    1   DCL X1 SBIN;
       37      778    1   DCL ENDW SBIN;
PL6.E3A0      #001=DAB$OCTDUMP File=DAB$OCTDUMP.:E05TSI                          TUE 07/29/97 12:39 Page:2
       38      779    1   DCL WSZ SBIN;
       39      780    1   DCL WPL SBIN;
       40      781    1   DCL MEM$ PTR;
       41      782    1   DCL CSIZE SBIN;
       42      783    1   DCL MBASE CHAR(CSIZE) BASED(MEM$);
       43      784    1   DCL 1 DAT,
       44      785    1      2 WX SBIN,
       45      786    1      2 OTAB SBIN,
       46      787    1      2 WRDCNT SBIN,
       47      788    1      2 MEM CHAR(64),
       48      789    1      2 ATAB SBIN,
       49      790    1      2 ASCCNT SBIN,
       50      791    1      2 ASCII CHAR(64);
       51      792    1   DCL AVEC BIT(72);
       52      793    1   DCL TRTN REMEMBER ;
       53      794        /**/
       54      795    1   DCL FMT1 CHAR(0) CONSTANT INIT('%6ZO%N-%N(%12ZO %)%.19P%N-%N(%4A%)%1Q');
       55      796    1   DCL FMT2 CHAR(0) CONSTANT INIT('%6ZO%N-%N(%8ZY %)%.19P%N-%N(%4A%)%1Q');
       56      797        %EJECT;
PL6.E3A0      #001=DAB$OCTDUMP File=DAB$OCTDUMP.:E05TSI                          TUE 07/29/97 12:39 Page:3
       57      798    1           WSZ=13;
       58      799    1           AVEC=VECTOR(FMT1);
       59      800    1           GOTO COMMON;
       60      801
       61      802    1   DAB$HEXDUMP: ENTRY(MEM,NWRDS,OFFSET,ASCFLG,LONGFLG);
       62      803
       63      804    1           WSZ=9;
       64      805    1           AVEC=VECTOR(FMT2);
       65      806    1   COMMON:;
       66      807    1           IF ADDR(LONGFLG) = ADDR(NIL) THEN
       67      808    1              DAB_LONG = '0'B;
       68      809    1           ELSE
       69      810    1              DAB_LONG = LONGFLG;
       70      811    1           DAB_BUF2$=ADDR(BUF2);
       71      812    1           BUF2=' ';
       72      813    1           BUF1$=DA_FDS.BUF_.BUF$;
       73      814    1           TRTN=DA_TRTN;
       74      815    1           REMEMBER FINI IN DA_TRTN;
       75      816    1           DAB_STAR=' ';
       76      817    1           OUTPUT=DA_FDS.OUTPUT#;
       77      818    1           DA_FDS.OUTPUT#=ENTADDR(DAB$OUTPUT);
       78      819    1           AFLG=BITBIN(ASCFLG);
       79      820    1           X1=(REPORT.PAGEWID.N-(8+AFLG))/(WSZ+4*AFLG);
       80      821    1           WPL=1;
       81      822    2           DO WHILE(X1>1);
       82      823    2              WPL=WPL*2;
       83      824    2              X1=X1/2;
       84      825    2              END;
       85      826    1           DAB_LASTLINE='0'B;
       86      827    1           MEM$=ADDR(MEM);
       87      828    1           DAT.WX=OFFSET;
       88      829    1           ENDW=DAT.WX+NWRDS;
       89      830    1           X1=MOD(OFFSET,WPL);
       90      831    2           DO WHILE DAT.WX<ENDW;
       91      832    2              DAT.WRDCNT=WPL-X1;
       92      833    3              IF DAT.WRDCNT+DAT.WX>=ENDW THEN DO;
       93      834    3                 DAT.WRDCNT=ENDW-DAT.WX;
PL6.E3A0      #001=DAB$OCTDUMP File=DAB$OCTDUMP.:E05TSI                          TUE 07/29/97 12:39 Page:4
       94      835    3                 DAB_LASTLINE='1'B;
       95      836    3                 END;
       96      837    2              CSIZE=DAT.WRDCNT*4;
       97      838    2              DAT.OTAB=9+WSZ*X1;
       98      839    2              DAT.ATAB=10+WSZ*WPL+4*X1;
       99      840    2              DAT.MEM=MBASE;
      100      841    3              IF AFLG~=0 THEN DO;
      101      842    3                 CALL XLATE(DAT.ASCII,DA_PRINTABLE_TBL,DAT.MEM);
      102      843    3                 END;
      103      844    2              DAT.WX=DAT.WX-X1;
      104      845    2              DAT.ASCCNT=DAT.WRDCNT*AFLG;
      105      846    2              CALL DAF$WRITE (AVEC, VECTOR(DAT));
      106      847    2              DAT.WX=DAT.WX+WPL;
      107      848    2              MEM$=PINCRW(MEM$,DAT.WRDCNT);
      108      849    2              X1=0;
      109      850    2              END;
      110      851    1           DA_TRTN=TRTN;
      111      852    1           DA_FDS.BUF_.BUF$=BUF1$;
      112      853    1           DA_FDS.OUTPUT#=OUTPUT;
      113      854    1           RETURN;
      114      855    1   FINI:   DA_TRTN=TRTN;
      115      856    1           DA_FDS.BUF_.BUF$=BUF1$;
      116      857    1           DA_FDS.OUTPUT#=OUTPUT;
      117      858    1           UNWIND TO DA_TRTN;
      118      859    1   END DAB$OCTDUMP;
      119      860        %EOD;

PL6.E3A0      #001=DAB$OCTDUMP File=DAB$OCTDUMP.:E05TSI                          TUE 07/29/97 12:39 Page:5
--  Include file information  --

   B$TABLES_C.:E05TOU  cannot be made into a system file and is referenced.
   XU_FORMAT_C.:E05TOU  is referenced.
   DA_FORMAT_C.:E05TOU  is referenced.
   DA_FORMAT_R.:E05TOU  cannot be made into a system file and is referenced.
   DA_MAP_R.:E05TOU  cannot be made into a system file and is referenced.
   DA_ANLZ_R.:E05TOU  cannot be made into a system file and is referenced.
      No diagnostics issued in procedure DAB$OCTDUMP.

   Procedure DAB$OCTDUMP requires 171 words for executable code.
   Procedure DAB$OCTDUMP requires 128 words of local(AUTO) storage.

PL6.E3A0      #001=DAB$OCTDUMP File=DAB$OCTDUMP.:E05TSI                          TUE 07/29/97 12:39 Page:6

 Object Unit name= DAB$OCTDUMP                                File name= DAB$OCTDUMP.:E05TOU
 UTS= JUL 29 '97 12:39:06.88 TUE                              Compiler= PL-6/E31         Sev=      00
 SharedLib= :SHARED_SYSTEM                                    Alt SharedLib=


    ****  Control sections  ****

 Sect   Type Bound  Init  Size OctSiz  Section name(segment info)
    0   Data  even  none     4      4  DAB$OCTDUMP
    1  RoData even  UTS     19     23  DAB$OCTDUMP
    2   Proc  even  none   171    253  DAB$OCTDUMP
    3  RoData even  none     5      5  DAB$OCTDUMP

    ****  Entry defs  ****

                              Check   Calling
                             calling  sequence
  Sect OctLoc Primary Altret sequence   type   Parms  Name
     2      0   yes            yes      Std        5  DAB$OCTDUMP
     2      7                  yes      Std        5  DAB$HEXDUMP

  ****  Data defs  ****

 Sect OctLoc  Name                           Sect OctLoc  Name
    0      0  DAB_BUF2$                          0      1  DAB_STAR
    0      2  DAB_LASTLINE                       0      3  DAB_LONG
PL6.E3A0      #001=DAB$OCTDUMP File=DAB$OCTDUMP.:E05TSI                          TUE 07/29/97 12:39 Page:7

  ****  Entry refs  ****

         Check        Calling
        calling       sequence
Altret sequence SRef   type   Args  Name
         yes          ~proc      0 B_POINTER
 yes     yes           Std       2 DAB$OUTPUT
                       nStd      0 X66_AUTO_5
                       Std       0 B_CONSPOOL_D
                       nStd      0 X66_ARET
                       nStd      0 X66_AUNWIND

  ****  Data refs  ****

  Flags:  r = read only, s = secondary
Flgs Name                             Flgs Name                             Flgs Name
     DAF$WRITE                             DA_TRTN                               DA_REPORT$
     DA_FDS                           r    B$XL_ASC_DUMP$                        B_VECTNIL

  ****  Segment refs  ****

  Flags:  r = read only, s = secondary
Flgs Name                             Flgs Name                             Flgs Name
     ISSID
PL6.E3A0      #001=DAB$OCTDUMP File=DAB$OCTDUMP.:E05TSI                          TUE 07/29/97 12:39 Page:8


        1        1        /*M* DAB$OCTDUMP - OCTAL DUMP ROUTINE FOR ANLZ */
        2        2        /*T***********************************************************/
        3        3        /*T*                                                         */
        4        4        /*T* Copyright (c) Bull HN Information Systems Inc., 1997    */
        5        5        /*T*                                                         */
        6        6        /*T***********************************************************/
        7        7        DAB$OCTDUMP: PROC(MEM,NWRDS,OFFSET,ASCFLG,LONGFLG);

      7  2 000000   000000 700200 xent  DAB$OCTDUMP  TSX0  ! X66_AUTO_5
         2 000001   000200 000005                    ZERO    128,5

        8        8    1   DCL MEM SBIN;
        9        9    1   DCL NWRDS SBIN;
       10       10    1   DCL OFFSET SBIN;
       11       11    1   DCL ASCFLG BIT(1) UNAL;
       12       12    1   DCL LONGFLG BIT(1) UNAL;
       13       13        /**/
       14       14    1   DCL DAF$WRITE EPTR SYMREF;
       15       15    1   DCL DAB$OUTPUT ENTRY(2) ALTRET;
       16       16        /**/
       17       17        %INCLUDE DA_ANLZ_R;
       18       30        %INCLUDE DA_MAP_R;
       19       60        %INCLUDE DA_FORMAT_R;
       20       72        %INCLUDE DA_FORMAT_C;
       21      314        %REPORT (NAME=REPORT,STCLASS="BASED(DA_REPORT$)");
       22      380        %INCLUDE XU_FORMAT_C;
       23      542        %F_FDS (NAME=DA_FDS,STCLASS=SYMREF);
       24      655        %INCLUDE B$TABLES_C;
       25      763        %B$XL_ASC_DUMP (NAME=DA_PRINTABLE_TBL);
       26      767        /**/
       27      768    1   DCL DAB_BUF2$ PTR STATIC SYMDEF;
       28      769    1   DCL DAB_STAR CHAR(1) STATIC SYMDEF;
       29      770    1   DCL DAB_LASTLINE BIT(1) ALIGNED STATIC SYMDEF;
       30      771    1   DCL DAB_LONG BIT(1) ALIGNED STATIC SYMDEF;
       31      772        /**/
       32      773    1   DCL BUF2 CHAR(256);
PL6.E3A0      #001=DAB$OCTDUMP File=DAB$OCTDUMP.:E05TSI                          TUE 07/29/97 12:39 Page:9
       33      774    1   DCL BUF1$ PTR;
       34      775    1   DCL OUTPUT EPTR;
       35      776    1   DCL AFLG SBIN;
       36      777    1   DCL X1 SBIN;
       37      778    1   DCL ENDW SBIN;
       38      779    1   DCL WSZ SBIN;
       39      780    1   DCL WPL SBIN;
       40      781    1   DCL MEM$ PTR;
       41      782    1   DCL CSIZE SBIN;
       42      783    1   DCL MBASE CHAR(CSIZE) BASED(MEM$);
       43      784    1   DCL 1 DAT,
       44      785    1      2 WX SBIN,
       45      786    1      2 OTAB SBIN,
       46      787    1      2 WRDCNT SBIN,
       47      788    1      2 MEM CHAR(64),
       48      789    1      2 ATAB SBIN,
       49      790    1      2 ASCCNT SBIN,
       50      791    1      2 ASCII CHAR(64);
       51      792    1   DCL AVEC BIT(72);
       52      793    1   DCL TRTN REMEMBER ;
       53      794        /**/
       54      795    1   DCL FMT1 CHAR(0) CONSTANT INIT('%6ZO%N-%N(%12ZO %)%.19P%N-%N(%4A%)%1Q');
       55      796    1   DCL FMT2 CHAR(0) CONSTANT INIT('%6ZO%N-%N(%8ZY %)%.19P%N-%N(%4A%)%1Q');
       56      797        %EJECT;
PL6.E3A0      #001=DAB$OCTDUMP File=DAB$OCTDUMP.:E05TSI                          TUE 07/29/97 12:39 Page:10
       57      798    1           WSZ=13;

    798  2 000002   000015 235007                    LDA     13,DL
         2 000003   200115 755100                    STA     WSZ,,AUTO

       58      799    1           AVEC=VECTOR(FMT1);

    799  2 000004   000000 237000 3                  LDAQ    0
         2 000005   200166 757100                    STAQ    AVEC,,AUTO

       59      800    1           GOTO COMMON;

    800  2 000006   000015 710000 2                  TRA     COMMON

       60      801
       61      802    1   DAB$HEXDUMP: ENTRY(MEM,NWRDS,OFFSET,ASCFLG,LONGFLG);

    802  2 000007   000000 700200 xent  DAB$HEXDUMP  TSX0  ! X66_AUTO_5
         2 000010   000200 000005                    ZERO    128,5

       62      803
       63      804    1           WSZ=9;

    804  2 000011   000011 235007                    LDA     9,DL
         2 000012   200115 755100                    STA     WSZ,,AUTO

       64      805    1           AVEC=VECTOR(FMT2);

    805  2 000013   000002 237000 3                  LDAQ    2
         2 000014   200166 757100                    STAQ    AVEC,,AUTO

    805  2 000015                       COMMON       null
       65      806    1   COMMON:;
       66      807    1           IF ADDR(LONGFLG) = ADDR(NIL) THEN

    807  2 000015   200007 236100                    LDQ     @LONGFLG,,AUTO
         2 000016   000001 116000 xsym               CMPQ    B_VECTNIL+1
PL6.E3A0      #001=DAB$OCTDUMP File=DAB$OCTDUMP.:E05TSI                          TUE 07/29/97 12:39 Page:11
         2 000017   000022 601000 2                  TNZ     s:810

       67      808    1              DAB_LONG = '0'B;

    808  2 000020   000003 450000 0                  STZ     DAB_LONG
         2 000021   000026 710000 2                  TRA     s:811

       68      809    1           ELSE
       69      810    1              DAB_LONG = LONGFLG;

    810  2 000022   200007 470500                    LDP0    @LONGFLG,,AUTO
         2 000023   003000 060500                    CSL     bolr='003'O
         2 000024   000000 000001                    BDSC    0,,PR0                   by=0,bit=0,n=1
         2 000025   000003 000001 0                  BDSC    DAB_LONG                 by=0,bit=0,n=1

       70      811    1           DAB_BUF2$=ADDR(BUF2);

    811  2 000026   200010 630500                    EPPR0   BUF2,,AUTO
         2 000027   000000 450400 0                  STP0    DAB_BUF2$

       71      812    1           BUF2=' ';

    812  2 000030   040100 100400                    MLR     fill='040'O
         2 000031   000035 000001 xsym               ADSC9   B_VECTNIL+29             cn=0,n=1
         2 000032   200010 000400                    ADSC9   BUF2,,AUTO               cn=0,n=256

       72      813    1           BUF1$=DA_FDS.BUF_.BUF$;

    813  2 000033   000006 236000 xsym               LDQ     DA_FDS+6
         2 000034   200110 756100                    STQ     BUF1$,,AUTO

       73      814    1           TRTN=DA_TRTN;

    814  2 000035   000000 237000 xsym               LDAQ    DA_TRTN
         2 000036   200170 757100                    STAQ    TRTN,,AUTO

       74      815    1           REMEMBER FINI IN DA_TRTN;
PL6.E3A0      #001=DAB$OCTDUMP File=DAB$OCTDUMP.:E05TSI                          TUE 07/29/97 12:39 Page:12

    815  2 000037   000242 635000 2                  EAA     FINI
         2 000040   000000 452400 xsym               STP2    DA_TRTN
         2 000041   000001 755000 xsym               STA     DA_TRTN+1

       75      816    1           DAB_STAR=' ';

    816  2 000042   040000 236003                    LDQ     16384,DU
         2 000043   000001 756000 0                  STQ     DAB_STAR

       76      817    1           OUTPUT=DA_FDS.OUTPUT#;

    817  2 000044   000014 236000 xsym               LDQ     DA_FDS+12
         2 000045   200111 756100                    STQ     OUTPUT,,AUTO

       77      818    1           DA_FDS.OUTPUT#=ENTADDR(DAB$OUTPUT);

    818  2 000046   000000 636000 xent               EAQ     DAB$OUTPUT
         2 000047   000014 756000 xsym               STQ     DA_FDS+12

       78      819    1           AFLG=BITBIN(ASCFLG);

    819  2 000050   200006 471500                    LDP1    @ASCFLG,,AUTO
         2 000051   003100 061500                    CSR     bolr='003'O
         2 000052   100000 000001                    BDSC    0,,PR1                   by=0,bit=0,n=1
         2 000053   200172 000044                    BDSC    TRTN+2,,AUTO             by=0,bit=0,n=36
         2 000054   200172 236100                    LDQ     TRTN+2,,AUTO
         2 000055   200112 756100                    STQ     AFLG,,AUTO

       79      820    1           X1=(REPORT.PAGEWID.N-(8+AFLG))/(WSZ+4*AFLG);

    820  2 000056   000000 473400 xsym               LDP3    DA_REPORT$
         2 000057   300000 236100                    LDQ     0,,PR3
         2 000060   377777 376007                    ANQ     131071,DL
         2 000061   200112 136100                    SBLQ    AFLG,,AUTO
         2 000062   200172 756100                    STQ     TRTN+2,,AUTO
         2 000063   200112 236100                    LDQ     AFLG,,AUTO
PL6.E3A0      #001=DAB$OCTDUMP File=DAB$OCTDUMP.:E05TSI                          TUE 07/29/97 12:39 Page:13
         2 000064   000002 736000                    QLS     2
         2 000065   200115 036100                    ADLQ    WSZ,,AUTO
         2 000066   200173 756100                    STQ     TRTN+3,,AUTO
         2 000067   200172 236100                    LDQ     TRTN+2,,AUTO
         2 000070   000010 136007                    SBLQ    8,DL
         2 000071   200173 506100                    DIV     TRTN+3,,AUTO
         2 000072   200113 756100                    STQ     X1,,AUTO

       80      821    1           WPL=1;

    821  2 000073   000001 235007                    LDA     1,DL
         2 000074   200116 755100                    STA     WPL,,AUTO

       81      822    2           DO WHILE(X1>1);

    822  2 000075   000001 116007                    CMPQ    1,DL
         2 000076   000106 604400 2                  TMOZ    s:826

       82      823    2              WPL=WPL*2;

    823  2 000077   200116 236100                    LDQ     WPL,,AUTO
         2 000100   200116 056100                    ASQ     WPL,,AUTO

       83      824    2              X1=X1/2;

    824  2 000101   200113 236100                    LDQ     X1,,AUTO
         2 000102   000002 506007                    DIV     2,DL
         2 000103   200113 756100                    STQ     X1,,AUTO

       84      825    2              END;

    825  2 000104   000001 116007                    CMPQ    1,DL
         2 000105   000077 605400 2                  TPNZ    s:823

       85      826    1           DAB_LASTLINE='0'B;

    826  2 000106   000002 450000 0                  STZ     DAB_LASTLINE
PL6.E3A0      #001=DAB$OCTDUMP File=DAB$OCTDUMP.:E05TSI                          TUE 07/29/97 12:39 Page:14

       86      827    1           MEM$=ADDR(MEM);

    827  2 000107   200003 236100                    LDQ     @MEM,,AUTO
         2 000110   200117 756100                    STQ     MEM$,,AUTO

       87      828    1           DAT.WX=OFFSET;

    828  2 000111   200005 470500                    LDP0    @OFFSET,,AUTO
         2 000112   000000 235100                    LDA     0,,PR0
         2 000113   200121 755100                    STA     DAT,,AUTO

       88      829    1           ENDW=DAT.WX+NWRDS;

    829  2 000114   200004 471500                    LDP1    @NWRDS,,AUTO
         2 000115   200121 236100                    LDQ     DAT,,AUTO
         2 000116   100000 036100                    ADLQ    0,,PR1
         2 000117   200114 756100                    STQ     ENDW,,AUTO

       89      830    1           X1=MOD(OFFSET,WPL);

    830  2 000120   000000 236100                    LDQ     0,,PR0
         2 000121   200116 506100                    DIV     WPL,,AUTO
         2 000122   200113 755100                    STA     X1,,AUTO

       90      831    2           DO WHILE DAT.WX<ENDW;

    831  2 000123   200121 236100                    LDQ     DAT,,AUTO
         2 000124   200114 116100                    CMPQ    ENDW,,AUTO
         2 000125   000233 605000 2                  TPL     s:851

       91      832    2              DAT.WRDCNT=WPL-X1;

    832  2 000126   200116 236100                    LDQ     WPL,,AUTO
         2 000127   200113 136100                    SBLQ    X1,,AUTO
         2 000130   200123 756100                    STQ     DAT+2,,AUTO

PL6.E3A0      #001=DAB$OCTDUMP File=DAB$OCTDUMP.:E05TSI                          TUE 07/29/97 12:39 Page:15
       92      833    3              IF DAT.WRDCNT+DAT.WX>=ENDW THEN DO;

    833  2 000131   200121 036100                    ADLQ    DAT,,AUTO
         2 000132   200114 116100                    CMPQ    ENDW,,AUTO
         2 000133   000141 604000 2                  TMI     s:837

       93      834    3                 DAT.WRDCNT=ENDW-DAT.WX;

    834  2 000134   200114 236100                    LDQ     ENDW,,AUTO
         2 000135   200121 136100                    SBLQ    DAT,,AUTO
         2 000136   200123 756100                    STQ     DAT+2,,AUTO

       94      835    3                 DAB_LASTLINE='1'B;

    835  2 000137   400000 236003                    LDQ     -131072,DU
         2 000140   000002 756000 0                  STQ     DAB_LASTLINE

       95      836    3                 END;

       96      837    2              CSIZE=DAT.WRDCNT*4;

    837  2 000141   200123 235100                    LDA     DAT+2,,AUTO
         2 000142   000002 735000                    ALS     2
         2 000143   200120 755100                    STA     CSIZE,,AUTO

       97      838    2              DAT.OTAB=9+WSZ*X1;

    838  2 000144   200115 236100                    LDQ     WSZ,,AUTO
         2 000145   200113 402100                    MPY     X1,,AUTO
         2 000146   000011 036007                    ADLQ    9,DL
         2 000147   200122 756100                    STQ     DAT+1,,AUTO

       98      839    2              DAT.ATAB=10+WSZ*WPL+4*X1;

    839  2 000150   200115 236100                    LDQ     WSZ,,AUTO
         2 000151   200116 402100                    MPY     WPL,,AUTO
         2 000152   200172 756100                    STQ     TRTN+2,,AUTO
PL6.E3A0      #001=DAB$OCTDUMP File=DAB$OCTDUMP.:E05TSI                          TUE 07/29/97 12:39 Page:16
         2 000153   200113 236100                    LDQ     X1,,AUTO
         2 000154   000002 736000                    QLS     2
         2 000155   200172 036100                    ADLQ    TRTN+2,,AUTO
         2 000156   000012 036007                    ADLQ    10,DL
         2 000157   200144 756100                    STQ     DAT+19,,AUTO

       99      840    2              DAT.MEM=MBASE;

    840  2 000160   200117 470500                    LDP0    MEM$,,AUTO
         2 000161   200120 720100                    LXL0    CSIZE,,AUTO
         2 000162   040100 100540                    MLR     fill='040'O
         2 000163   000000 000010                    ADSC9   0,,PR0                   cn=0,n=*X0
         2 000164   200124 000100                    ADSC9   DAT+3,,AUTO              cn=0,n=64

      100      841    3              IF AFLG~=0 THEN DO;

    841  2 000165   200112 235100                    LDA     AFLG,,AUTO
         2 000166   000174 600000 2                  TZE     s:844

      101      842    3                 CALL XLATE(DAT.ASCII,DA_PRINTABLE_TBL,DAT.MEM);

    842  2 000167   000000 471400 xsym               LDP1    B$XL_ASC_DUMP$
         2 000170   040100 160500                    MVT     fill='040'O
         2 000171   200124 000100                    ADSC9   DAT+3,,AUTO              cn=0,n=64
         2 000172   200146 000100                    ADSC9   DAT+21,,AUTO             cn=0,n=64
         2 000173   100000 000100                    ARG     0,,PR1

      102      843    3                 END;

      103      844    2              DAT.WX=DAT.WX-X1;

    844  2 000174   200121 236100                    LDQ     DAT,,AUTO
         2 000175   200113 136100                    SBLQ    X1,,AUTO
         2 000176   200121 756100                    STQ     DAT,,AUTO

      104      845    2              DAT.ASCCNT=DAT.WRDCNT*AFLG;

PL6.E3A0      #001=DAB$OCTDUMP File=DAB$OCTDUMP.:E05TSI                          TUE 07/29/97 12:39 Page:17
    845  2 000177   200123 236100                    LDQ     DAT+2,,AUTO
         2 000200   200112 402100                    MPY     AFLG,,AUTO
         2 000201   200145 756100                    STQ     DAT+20,,AUTO

      105      846    2              CALL DAF$WRITE (AVEC, VECTOR(DAT));

    846  2 000202   000004 235000 3                  LDA     4
         2 000203   200172 452500                    STP2    TRTN+2,,AUTO
         2 000204   200172 236100                    LDQ     TRTN+2,,AUTO
         2 000205   000121 036003                    ADLQ    81,DU
         2 000206   200174 757100                    STAQ    TRTN+4,,AUTO
         2 000207   200174 631500                    EPPR1   TRTN+4,,AUTO
         2 000210   200177 451500                    STP1    TRTN+7,,AUTO
         2 000211   200166 633500                    EPPR3   AVEC,,AUTO
         2 000212   200176 453500                    STP3    TRTN+6,,AUTO
         2 000213   200176 630500                    EPPR0   TRTN+6,,AUTO
         2 000214   000000 221000 xsym               LDX1    DAF$WRITE
         2 000215   000020 631400 xsym               EPPR1   B_VECTNIL+16
         2 000216   000000 701011                    TSX1    0,X1
         2 000217   000000 011000                    NOP     0

      106      847    2              DAT.WX=DAT.WX+WPL;

    847  2 000220   200121 236100                    LDQ     DAT,,AUTO
         2 000221   200116 036100                    ADLQ    WPL,,AUTO
         2 000222   200121 756100                    STQ     DAT,,AUTO

      107      848    2              MEM$=PINCRW(MEM$,DAT.WRDCNT);

    848  2 000223   200123 236100                    LDQ     DAT+2,,AUTO
         2 000224   000022 736000                    QLS     18
         2 000225   200117 036100                    ADLQ    MEM$,,AUTO
         2 000226   200117 756100                    STQ     MEM$,,AUTO

      108      849    2              X1=0;

    849  2 000227   200113 450100                    STZ     X1,,AUTO
PL6.E3A0      #001=DAB$OCTDUMP File=DAB$OCTDUMP.:E05TSI                          TUE 07/29/97 12:39 Page:18

      109      850    2              END;

    850  2 000230   200121 236100                    LDQ     DAT,,AUTO
         2 000231   200114 116100                    CMPQ    ENDW,,AUTO
         2 000232   000126 604000 2                  TMI     s:832

      110      851    1           DA_TRTN=TRTN;

    851  2 000233   200170 237100                    LDAQ    TRTN,,AUTO
         2 000234   000000 757000 xsym               STAQ    DA_TRTN

      111      852    1           DA_FDS.BUF_.BUF$=BUF1$;

    852  2 000235   200110 236100                    LDQ     BUF1$,,AUTO
         2 000236   000006 756000 xsym               STQ     DA_FDS+6

      112      853    1           DA_FDS.OUTPUT#=OUTPUT;

    853  2 000237   200111 236100                    LDQ     OUTPUT,,AUTO
         2 000240   000014 756000 xsym               STQ     DA_FDS+12

      113      854    1           RETURN;

    854  2 000241   000000 702200 xent               TSX2  ! X66_ARET

      114      855    1   FINI:   DA_TRTN=TRTN;

    855  2 000242   200170 237100       FINI         LDAQ    TRTN,,AUTO
         2 000243   000000 757000 xsym               STAQ    DA_TRTN

      115      856    1           DA_FDS.BUF_.BUF$=BUF1$;

    856  2 000244   200110 236100                    LDQ     BUF1$,,AUTO
         2 000245   000006 756000 xsym               STQ     DA_FDS+6

      116      857    1           DA_FDS.OUTPUT#=OUTPUT;
PL6.E3A0      #001=DAB$OCTDUMP File=DAB$OCTDUMP.:E05TSI                          TUE 07/29/97 12:39 Page:19

    857  2 000246   200111 236100                    LDQ     OUTPUT,,AUTO
         2 000247   000014 756000 xsym               STQ     DA_FDS+12

      117      858    1           UNWIND TO DA_TRTN;

    858  2 000250   000000 237200 xsym               LDAQ  ! DA_TRTN
         2 000251   000000 700200 xent               TSX0  ! X66_AUNWIND
         2 000252   000000 000200                    ZERO    0,128
      118      859    1   END DAB$OCTDUMP;
      119      860        %EOD;

PL6.E3A0      #001=DAB$OCTDUMP File=DAB$OCTDUMP.:E05TSI                          TUE 07/29/97 12:39 Page:20
--  Include file information  --

   B$TABLES_C.:E05TOU  cannot be made into a system file and is referenced.
   XU_FORMAT_C.:E05TOU  is referenced.
   DA_FORMAT_C.:E05TOU  is referenced.
   DA_FORMAT_R.:E05TOU  cannot be made into a system file and is referenced.
   DA_MAP_R.:E05TOU  cannot be made into a system file and is referenced.
   DA_ANLZ_R.:E05TOU  cannot be made into a system file and is referenced.
      No diagnostics issued in procedure DAB$OCTDUMP.
PL6.E3A0      #001=DAB$OCTDUMP File=DAB$OCTDUMP.:E05TSI                          TUE 07/29/97 12:39 Page:21

 **** Variables and constants ****

  ****  Section 000  Data  DAB$OCTDUMP

  ****  Scalars and arrays  ****
OctLoc.c.b A Datatyp(siz) R M Lvl/name                 OctLoc.c.b A Datatyp(siz) R M Lvl/name

     0-0-0/w PTR         r     1 DAB_BUF2$                  2-0-0/w BIT         r     1 DAB_LASTLINE
     3-0-0/w BIT         r     1 DAB_LONG                   1-0-0/c CHAR        r     1 DAB_STAR

  ****  Section 001 RoData DAB$OCTDUMP

  ****  Scalars and arrays  ****
OctLoc.c.b A Datatyp(siz) R M Lvl/name                 OctLoc.c.b A Datatyp(siz) R M Lvl/name

     0-0-0/c CHAR(37)    r     1 FMT1                      12-0-0/c CHAR        r     1 FMT2

  ****  Auto variables  ****

  ****  Scalars and arrays  ****
OctLoc.c.b A Datatyp(siz) R M Lvl/name                 OctLoc.c.b A Datatyp(siz) R M Lvl/name

     6-0-0/w PTR         r     1 @ASCFLG                    7-0-0/w PTR         r     1 @LONGFLG
     3-0-0/w PTR         r     1 @MEM                       4-0-0/w PTR         r     1 @NWRDS
     5-0-0/w PTR         r     1 @OFFSET                  112-0-0/w SBIN        r     1 AFLG
    *0-0-0/b BIT         r     1 ASCFLG                   166-0-0/b BIT (72)    r     1 AVEC
   110-0-0/w PTR         r     1 BUF1$                     10-0-0/c CHAR(256)   r     1 BUF2
   120-0-0/w SBIN        r     1 CSIZE                    121-0-0/w STRC(1332)  r     1 DAT
   114-0-0/w SBIN        r     1 ENDW                      *0-0-0/b BIT         r     1 LONGFLG
    *0-0-0/w SBIN        r     1 MEM                      117-0-0/w PTR         r     1 MEM$
    *0-0-0/w SBIN        r     1 NWRDS                     *0-0-0/w SBIN        r     1 OFFSET
   111-0-0/w EPTR        r     1 OUTPUT                   170-0-0/d REMB        r     1 TRTN
   116-0-0/w SBIN        r     1 WPL                      115-0-0/w SBIN        r     1 WSZ
   113-0-0/w SBIN        r     1 X1

  ****  SYMREF variables  ****

PL6.E3A0      #001=DAB$OCTDUMP File=DAB$OCTDUMP.:E05TSI                          TUE 07/29/97 12:39 Page:22
  ****  Scalars and arrays  ****
OctLoc.c.b A Datatyp(siz) R M Lvl/name                 OctLoc.c.b A Datatyp(siz) R M Lvl/name

     0-0-0/w PTR         r     1 B$XL_ASC_DUMP$             0-0-0/w EPTR        r     1 DAF$WRITE
     0-0-0/w STRC(1080)  r     1 DA_FDS                     0-0-0/w PTR         r     1 DA_REPORT$
     0-0-0/d REMB        r     1 DA_TRTN

  ****  BASED and DCB variables  ****

  ****  Scalars and arrays  ****
OctLoc.c.b A Datatyp(siz) R M Lvl/name                 OctLoc.c.b A Datatyp(siz) R M Lvl/name

     0-0-0/d STRC(4608)  r     1 DA_PRINTABLE_TBL           0-0-0/c ACHR        r     1 MBASE
     0-0-0/w STRC(288)   r     1 REPORT


   Procedure DAB$OCTDUMP requires 171 words for executable code.
   Procedure DAB$OCTDUMP requires 128 words of local(AUTO) storage.
PL6.E3A0      #001=DAB$OCTDUMP File=DAB$OCTDUMP.:E05TSI                          TUE 07/29/97 12:39 Page:23
          *** CROSS REFERENCE LISTING ***
**     DENOTES     IDENTIFIER DEFINITION
<<                 IDENTIFIER'S VALUE SET
>>                 IDENTIFIER'S VALUE USED
<>                 IDENTIFIER SET AND/OR USED
--                 IDENTIFIER REFERENCED
PL6.E3A0      #001=DAB$OCTDUMP File=DAB$OCTDUMP.:E05TSI                          TUE 07/29/97 12:39 Page:24
          MINI XREF LISTING

AFLG
       776**DCL       819<<ASSIGN    820>>ASSIGN    820>>ASSIGN    841>>IF        845>>ASSIGN
ASCFLG
        11**DCL         7--PROC      802--ENTRY     819>>ASSIGN
AVEC
       792**DCL       799<<ASSIGN    805<<ASSIGN    846<>CALL
B$XL_ASC_DUMP$
       764**DCL       765--IMP-PTR   842>>CALLBLT
BUF1$
       774**DCL       813<<ASSIGN    852>>ASSIGN    856>>ASSIGN
BUF2
       773**DCL       811--ASSIGN    812<<ASSIGN
COMMON
       805**LABEL     800--GOTO
CSIZE
       782**DCL       783--IMP-SIZ   837<<ASSIGN    840>>ASSIGN
DAB$OUTPUT
        15**DCL-ENT   818--ASSIGN
DAB_BUF2$
       768**DCL       811<<ASSIGN
DAB_LASTLINE
       770**DCL       826<<ASSIGN    835<<ASSIGN
DAB_LONG
       771**DCL       808<<ASSIGN    810<<ASSIGN
DAB_STAR
       769**DCL       816<<ASSIGN
DAF$WRITE
        14**DCL       846>>CALL
DAT
       784**DCL       846--CALL
DAT.ASCCNT
       790**DCL       845<<ASSIGN
PL6.E3A0      #001=DAB$OCTDUMP File=DAB$OCTDUMP.:E05TSI                          TUE 07/29/97 12:39 Page:25
DAT.ASCII
       791**DCL       842<<CALLBLT
DAT.ATAB
       789**DCL       839<<ASSIGN
DAT.MEM
       788**DCL       840<<ASSIGN    842>>CALLBLT
DAT.OTAB
       786**DCL       838<<ASSIGN
DAT.WRDCNT
       787**DCL       832<<ASSIGN    833>>IF        834<<ASSIGN    837>>ASSIGN    845>>ASSIGN    848>>ASSIGN
DAT.WX
       785**DCL       828<<ASSIGN    829>>ASSIGN    831>>DOWHILE   833>>IF        834>>ASSIGN    844<<ASSIGN
       844>>ASSIGN    847<<ASSIGN    847>>ASSIGN
DA_FDS.BUF_.BUF$
       576**DCL       813>>ASSIGN    852<<ASSIGN    856<<ASSIGN
DA_FDS.OUTPUT#
       610**DCL       817>>ASSIGN    818<<ASSIGN    853<<ASSIGN    857<<ASSIGN
DA_FMTSEG.P
        69**DCL        69--REDEF
DA_MAPSEG.P
        55**DCL        56--REDEF
DA_PRINTABLE_TBL
       765**DCL       842>>CALLBLT
DA_REPORT$
        68**DCL       331--IMP-PTR   820>>ASSIGN
DA_SDASN.DESC.TYPE0
        40**DCL        40--REDEF
DA_TIGRSEG.P
        56**DCL        57--REDEF
DA_TRTN
        59**DCL       814>>ASSIGN    815<<REMEMBR   851<<ASSIGN    855<<ASSIGN    858>>UNWIND
ENDW
       778**DCL       829<<ASSIGN    831>>DOWHILE   833>>IF        834>>ASSIGN
FINI
       855**LABEL     815--REMEMBR
FMT1
PL6.E3A0      #001=DAB$OCTDUMP File=DAB$OCTDUMP.:E05TSI                          TUE 07/29/97 12:39 Page:26
       795**DCL       799--ASSIGN
FMT2
       796**DCL       805--ASSIGN
LONGFLG
        12**DCL         7--PROC      802--ENTRY     807--IF        810>>ASSIGN
MBASE
       783**DCL       840>>ASSIGN
MEM
         8**DCL         7--PROC      802--ENTRY     827--ASSIGN
MEM$
       781**DCL       783--IMP-PTR   827<<ASSIGN    840>>ASSIGN    848<<ASSIGN    848>>ASSIGN
NWRDS
         9**DCL         7--PROC      802--ENTRY     829>>ASSIGN
OFFSET
        10**DCL         7--PROC      802--ENTRY     828>>ASSIGN    830>>ASSIGN
OUTPUT
       775**DCL       817<<ASSIGN    853>>ASSIGN    857>>ASSIGN
REPORT.PAGEWID.N
       347**DCL       820>>ASSIGN
TRTN
       793**DCL       814<<ASSIGN    851>>ASSIGN    855>>ASSIGN
WPL
       780**DCL       821<<ASSIGN    823<<ASSIGN    823>>ASSIGN    830>>ASSIGN    832>>ASSIGN    839>>ASSIGN
       847>>ASSIGN
WSZ
       779**DCL       798<<ASSIGN    804<<ASSIGN    820>>ASSIGN    838>>ASSIGN    839>>ASSIGN
X1
       777**DCL       820<<ASSIGN    822>>DOWHILE   824<<ASSIGN    824>>ASSIGN    830<<ASSIGN    832>>ASSIGN
       838>>ASSIGN    839>>ASSIGN    844>>ASSIGN    849<<ASSIGN

PL6.E3A0      #002=DAB$OUTPUT File=DAB$OCTDUMP.:E05TSI                           TUE 07/29/97 12:39 Page:27
      120        1        /*T***********************************************************/
      121        2        /*T*                                                         */
      122        3        /*T* Copyright (c) Bull HN Information Systems Inc., 1997    */
      123        4        /*T*                                                         */
      124        5        /*T***********************************************************/
      125        6        DAB$OUTPUT: PROC(BUF,FDS) ALTRET;
      126        7    1   DCL 1 BUF ALIGNED,
      127        8    1         2 BOUND UBIN(20) UNAL,
      128        9    1         2 FLAGS BIT(16) UNAL,
      129       10    1         2 BUF$ PTR;
      130       11        %INCLUDE XU_FORMAT_C;
      131      173        %F_FDS (NAME=FDS,STCLASS="");
      132      286        /**/
      133      287    1   DCL DAF$OUTPUT ENTRY(2) ALTRET;
      134      288        /**/
      135      289    1   DCL DAB_BUF2$ PTR SYMREF;
      136      290    1   DCL DAB_STAR CHAR(1) SYMREF;
      137      291    1   DCL DAB_LASTLINE BIT(1) ALIGNED SYMREF;
      138      292    1   DCL DAB_LONG BIT(1) ALIGNED SYMREF;
      139      293        /**/
      140      294    1   DCL BUF1$ PTR;
      141      295    1   DCL CSIZE SBIN;
      142      296    1   DCL 1 BUF1 BASED(BUF1$),
      143      297    1         2 VFC CHAR(1),
      144      298    1         2 ADR CHAR(6),
      145      299    1         2 STAR CHAR(1),
      146      300    1         2 * CHAR(1),
      147      301    1         2 OCTAL CHAR(CSIZE);
      148      302    1   DCL 1 BUF2 BASED(DAB_BUF2$),
      149      303    1         2 VFC CHAR(1),
      150      304    1         2 ADR CHAR(6),
      151      305    1         2 STAR CHAR(1),
      152      306    1         2 * CHAR(1),
      153      307    1         2 OCTAL CHAR(CSIZE);
      154      308        %EJECT;
PL6.E3A0      #002=DAB$OUTPUT File=DAB$OCTDUMP.:E05TSI                           TUE 07/29/97 12:39 Page:28
      155      309    1           CSIZE=FDS.BUF_.BOUND-8;
      156      310    1           BUF1$=BUF.BUF$;
      157      311    2           IF BUF1.OCTAL=BUF2.OCTAL AND NOT DAB_LASTLINE AND NOT DAB_LONG THEN DO;
      158      312    2              DAB_STAR='*';
      159      313    2              ALTRETURN;
      160      314    2              END;
      161      315    1           BUF1.STAR=DAB_STAR;
      162      316    1           DAB_STAR=' ';
      163      317    1           FDS.BUF_.BUF$=DAB_BUF2$;
      164      318    1           DAB_BUF2$=BUF1$;
      165      319    1           CALL DAF$OUTPUT(BUF,FDS);
      166      320    1           RETURN;
      167      321    1   END DAB$OUTPUT;

PL6.E3A0      #002=DAB$OUTPUT File=DAB$OCTDUMP.:E05TSI                           TUE 07/29/97 12:39 Page:29
--  Include file information  --

   XU_FORMAT_C.:E05TOU  is referenced.
      No diagnostics issued in procedure DAB$OUTPUT.

   Procedure DAB$OUTPUT requires 38 words for executable code.
   Procedure DAB$OUTPUT requires 8 words of local(AUTO) storage.

    No errors detected in file DAB$OCTDUMP.:E05TSI    .

PL6.E3A0      #002=DAB$OUTPUT File=DAB$OCTDUMP.:E05TSI                           TUE 07/29/97 12:39 Page:30

 Object Unit name= DAB$OUTPUT                                 File name= DAB$OCTDUMP.:E05TOU
 UTS= JUL 29 '97 12:39:12.40 TUE                              Compiler= PL-6/E31         Sev=      00
 SharedLib= :SHARED_SYSTEM                                    Alt SharedLib=


    ****  Control sections  ****

 Sect   Type Bound  Init  Size OctSiz  Section name(segment info)
    0   Proc  even  none    38     46  DAB$OUTPUT

    ****  Entry defs  ****

                              Check   Calling
                             calling  sequence
  Sect OctLoc Primary Altret sequence   type   Parms  Name
     0      0   yes    yes     yes      Std        2  DAB$OUTPUT

  ****  Entry refs  ****

         Check        Calling
        calling       sequence
Altret sequence SRef   type   Args  Name
 yes     yes           Std       2 DAF$OUTPUT
                       nStd      0 X66_AUTO_2
                       nStd      0 X66_AALT
                       Std       0 B_CONSPOOL_D
                       nStd      0 X66_ARET

  ****  Data refs  ****

  Flags:  r = read only, s = secondary
Flgs Name                             Flgs Name                             Flgs Name
     DAB_BUF2$                             DAB_STAR                              DAB_LASTLINE
     DAB_LONG                              B_VECTNIL
PL6.E3A0      #002=DAB$OUTPUT File=DAB$OCTDUMP.:E05TSI                           TUE 07/29/97 12:39 Page:31


      120        1        /*T***********************************************************/
      121        2        /*T*                                                         */
      122        3        /*T* Copyright (c) Bull HN Information Systems Inc., 1997    */
      123        4        /*T*                                                         */
      124        5        /*T***********************************************************/
      125        6        DAB$OUTPUT: PROC(BUF,FDS) ALTRET;

      6  0 000000   000000 700200 xent  DAB$OUTPUT   TSX0  ! X66_AUTO_2
         0 000001   000010 000002                    ZERO    8,2

      126        7    1   DCL 1 BUF ALIGNED,
      127        8    1         2 BOUND UBIN(20) UNAL,
      128        9    1         2 FLAGS BIT(16) UNAL,
      129       10    1         2 BUF$ PTR;
      130       11        %INCLUDE XU_FORMAT_C;
      131      173        %F_FDS (NAME=FDS,STCLASS="");
      132      286        /**/
      133      287    1   DCL DAF$OUTPUT ENTRY(2) ALTRET;
      134      288        /**/
      135      289    1   DCL DAB_BUF2$ PTR SYMREF;
      136      290    1   DCL DAB_STAR CHAR(1) SYMREF;
      137      291    1   DCL DAB_LASTLINE BIT(1) ALIGNED SYMREF;
      138      292    1   DCL DAB_LONG BIT(1) ALIGNED SYMREF;
      139      293        /**/
      140      294    1   DCL BUF1$ PTR;
      141      295    1   DCL CSIZE SBIN;
      142      296    1   DCL 1 BUF1 BASED(BUF1$),
      143      297    1         2 VFC CHAR(1),
      144      298    1         2 ADR CHAR(6),
      145      299    1         2 STAR CHAR(1),
      146      300    1         2 * CHAR(1),
      147      301    1         2 OCTAL CHAR(CSIZE);
      148      302    1   DCL 1 BUF2 BASED(DAB_BUF2$),
      149      303    1         2 VFC CHAR(1),
      150      304    1         2 ADR CHAR(6),
      151      305    1         2 STAR CHAR(1),
PL6.E3A0      #002=DAB$OUTPUT File=DAB$OCTDUMP.:E05TSI                           TUE 07/29/97 12:39 Page:32
      152      306    1         2 * CHAR(1),
      153      307    1         2 OCTAL CHAR(CSIZE);
      154      308        %EJECT;
PL6.E3A0      #002=DAB$OUTPUT File=DAB$OCTDUMP.:E05TSI                           TUE 07/29/97 12:39 Page:33
      155      309    1           CSIZE=FDS.BUF_.BOUND-8;

    309  0 000002   200004 470500                    LDP0    @FDS,,AUTO
         0 000003   000005 236100                    LDQ     5,,PR0
         0 000004   000020 772000                    QRL     16
         0 000005   000010 136007                    SBLQ    8,DL
         0 000006   200006 756100                    STQ     CSIZE,,AUTO

      156      310    1           BUF1$=BUF.BUF$;

    310  0 000007   200003 471500                    LDP1    @BUF,,AUTO
         0 000010   100001 236100                    LDQ     1,,PR1
         0 000011   200005 756100                    STQ     BUF1$,,AUTO

      157      311    2           IF BUF1.OCTAL=BUF2.OCTAL AND NOT DAB_LASTLINE AND NOT DAB_LONG THEN DO;

    311  0 000012   200005 473500                    LDP3    BUF1$,,AUTO
         0 000013   200006 720100                    LXL0    CSIZE,,AUTO
         0 000014   000000 474400 xsym               LDP4    DAB_BUF2$
         0 000015   040140 106540                    CMPC    fill='040'O
         0 000016   300002 200010                    ADSC9   2,,PR3                   cn=1,n=*X0
         0 000017   400002 200010                    ADSC9   2,,PR4                   cn=1,n=*X0
         0 000020   000030 601000 0                  TNZ     s:315
         0 000021   000000 234000 xsym               SZN     DAB_LASTLINE
         0 000022   000030 604000 0                  TMI     s:315
         0 000023   000000 234000 xsym               SZN     DAB_LONG
         0 000024   000030 604000 0                  TMI     s:315

      158      312    2              DAB_STAR='*';

    312  0 000025   052000 236003                    LDQ     21504,DU
         0 000026   000000 756000 xsym               STQ     DAB_STAR

      159      313    2              ALTRETURN;

    313  0 000027   000000 702200 xent               TSX2  ! X66_AALT

PL6.E3A0      #002=DAB$OUTPUT File=DAB$OCTDUMP.:E05TSI                           TUE 07/29/97 12:39 Page:34
      160      314    2              END;
      161      315    1           BUF1.STAR=DAB_STAR;

    315  0 000030   040100 100400                    MLR     fill='040'O
         0 000031   000000 000001 xsym               ADSC9   DAB_STAR                 cn=0,n=1
         0 000032   300001 600001                    ADSC9   1,,PR3                   cn=3,n=1

      162      316    1           DAB_STAR=' ';

    316  0 000033   040000 236003                    LDQ     16384,DU
         0 000034   000000 756000 xsym               STQ     DAB_STAR

      163      317    1           FDS.BUF_.BUF$=DAB_BUF2$;

    317  0 000035   000000 236000 xsym               LDQ     DAB_BUF2$
         0 000036   000006 756100                    STQ     6,,PR0

      164      318    1           DAB_BUF2$=BUF1$;

    318  0 000037   200005 236100                    LDQ     BUF1$,,AUTO
         0 000040   000000 756000 xsym               STQ     DAB_BUF2$

      165      319    1           CALL DAF$OUTPUT(BUF,FDS);

    319  0 000041   200003 630500                    EPPR0   @BUF,,AUTO
         0 000042   000020 631400 xsym               EPPR1   B_VECTNIL+16
         0 000043   000000 701000 xent               TSX1    DAF$OUTPUT
         0 000044   000000 011000                    NOP     0

      166      320    1           RETURN;

    320  0 000045   000000 702200 xent               TSX2  ! X66_ARET
      167      321    1   END DAB$OUTPUT;

PL6.E3A0      #002=DAB$OUTPUT File=DAB$OCTDUMP.:E05TSI                           TUE 07/29/97 12:39 Page:35
--  Include file information  --

   XU_FORMAT_C.:E05TOU  is referenced.
      No diagnostics issued in procedure DAB$OUTPUT.
PL6.E3A0      #002=DAB$OUTPUT File=DAB$OCTDUMP.:E05TSI                           TUE 07/29/97 12:39 Page:36

 **** Variables and constants ****

  ****  Auto variables  ****

  ****  Scalars and arrays  ****
OctLoc.c.b A Datatyp(siz) R M Lvl/name                 OctLoc.c.b A Datatyp(siz) R M Lvl/name

     3-0-0/w PTR         r     1 @BUF                       4-0-0/w PTR         r     1 @FDS
    *0-0-0/w STRC(72)    r     1 BUF                        5-0-0/w PTR         r     1 BUF1$
     6-0-0/w SBIN        r     1 CSIZE                     *0-0-0/w STRC(1080)  r     1 FDS

  ****  SYMREF variables  ****

  ****  Scalars and arrays  ****
OctLoc.c.b A Datatyp(siz) R M Lvl/name                 OctLoc.c.b A Datatyp(siz) R M Lvl/name

     0-0-0/w PTR         r     1 DAB_BUF2$                  0-0-0/w BIT         r     1 DAB_LASTLINE
     0-0-0/w BIT         r     1 DAB_LONG                   0-0-0/c CHAR        r     1 DAB_STAR

  ****  BASED and DCB variables  ****

  ****  Scalars and arrays  ****
OctLoc.c.b A Datatyp(siz) R M Lvl/name                 OctLoc.c.b A Datatyp(siz) R M Lvl/name

     0-0-0/c ASTR(81)    r     1 BUF1                       0-0-0/c ASTR(81)    r     1 BUF2


   Procedure DAB$OUTPUT requires 38 words for executable code.
   Procedure DAB$OUTPUT requires 8 words of local(AUTO) storage.

    No errors detected in file DAB$OCTDUMP.:E05TSI    .
PL6.E3A0      #002=DAB$OUTPUT File=DAB$OCTDUMP.:E05TSI                           TUE 07/29/97 12:39 Page:37
          *** CROSS REFERENCE LISTING ***
**     DENOTES     IDENTIFIER DEFINITION
<<                 IDENTIFIER'S VALUE SET
>>                 IDENTIFIER'S VALUE USED
<>                 IDENTIFIER SET AND/OR USED
--                 IDENTIFIER REFERENCED
PL6.E3A0      #002=DAB$OUTPUT File=DAB$OCTDUMP.:E05TSI                           TUE 07/29/97 12:39 Page:38
          MINI XREF LISTING

BUF
         7**DCL         6--PROC      319<>CALL
BUF.BUF$
        10**DCL       310>>ASSIGN
BUF1.OCTAL
       301**DCL       311>>IF
BUF1.STAR
       299**DCL       315<<ASSIGN
BUF1$
       294**DCL       296--IMP-PTR   310<<ASSIGN    311>>IF        315>>ASSIGN    318>>ASSIGN
BUF2.OCTAL
       307**DCL       311>>IF
CSIZE
       295**DCL       301--IMP-SIZ   307--IMP-SIZ   309<<ASSIGN    311>>IF        311>>IF
DAB_BUF2$
       289**DCL       302--IMP-PTR   311>>IF        317>>ASSIGN    318<<ASSIGN
DAB_LASTLINE
       291**DCL       311>>IF
DAB_LONG
       292**DCL       311>>IF
DAB_STAR
       290**DCL       312<<ASSIGN    315>>ASSIGN    316<<ASSIGN
DAF$OUTPUT
       287**DCL-ENT   319--CALL
FDS
       187**DCL         6--PROC      319<>CALL
FDS.BUF_.BOUND
       205**DCL       309>>ASSIGN
FDS.BUF_.BUF$
       207**DCL       317<<ASSIGN
