VERSION E05

PL6.E3A0      #001=DAB$SSFRAME File=DAB$SSFRAME.:E05TSI                          TUE 07/29/97 12:39 Page:1
        1        1        /*M* DAB$SSFRAME - DISPLAY SAFE STORE FRAME */
        2        2        /*T***********************************************************/
        3        3        /*T*                                                         */
        4        4        /*T* Copyright (c) Bull HN Information Systems Inc., 1997    */
        5        5        /*T*                                                         */
        6        6        /*T***********************************************************/
        7        7        DAB$SSFRAME: PROC(FRAME);
        8        8    1   DCL 1 FRAME ALIGNED,
        9        9    1         2 W0(0:3) UBIN,
       10       10    1         2 IC UBIN(18) UNAL,
       11       11    1         2 IR UBIN(18) UNAL,
       12       12    1         2 IRB REDEF IR BIT(18) UNAL,
       13       13    1         2 * UBIN(9) UNAL,
       14       14    1         2 MRT UBIN(1) UNAL,
       15       15    1         2 SSF UBIN(1) UNAL,
       16       16    1         2 FI BIT(1) UNAL,
       17       17    1         2 CODE UBIN(5) UNAL,
       18       18    1         2 * BIT(1) UNAL,
       19       19    1         2 * BIT(1),
       20       20    1         2 CP UBIN(3) UNAL,
       21       21    1         2 SCR UBIN(2) UNAL,
       22       22    1         2 ISSID UBIN(12) UNAL,
       23       23    1         2 DSAR UBIN(17) UNAL,
       24       24    1         2 * UBIN(10) UNAL,
       25       25    1         2 EWSQ UBIN(9) UNAL,
       26       26    1         2 VA,
       27       27    1           3 W UBIN(36) UNAL,
       28       28    1         2 ISR BIT(72),
       29       29    1         2 ASR BIT(72),
       30       30    1         2 LSR BIT(72),
       31       31    1         2 PSR BIT(72),
       32       32    1         2 PR(0:7) BIT(36),
       33       33    1         2 DR(0:7) BIT(72),
       34       34    1         2 XREG(0:7) UBIN(18) UNAL,
       35       35    1         2 AREG UBIN WORD,
       36       36    1         2 QREG UBIN WORD,
       37       37    1         2 EREG UBIN(8),
PL6.E3A0      #001=DAB$SSFRAME File=DAB$SSFRAME.:E05TSI                          TUE 07/29/97 12:39 Page:2
       38       38    1         2 TREG UBIN WORD,
       39       39    1         2 PL(0:7) UBIN WORD,
       40       40    1         2 *(0:5) UBIN WORD,
       41       41    1         2 TSTAMP BIT(72);
       42       42        /**/
       43       43    1   DCL DAF$WRITE EPTR SYMREF;
       44       44    1   DCL DAS$IC2PED ENTRY(2) ALTRET;
       45       45        /**/
       46       46        %INCLUDE B$OBJECT_C;
       47     3476        %INCLUDE B_STRINGS_C;
       48     3605        %INCLUDE DA_SYMBOLS_R;
       49     3618        %INCLUDE XU_FORMAT_C;
       50     3780        /**/
       51     3781        %F_FDS (NAME=DA_FDS,STCLASS=SYMREF);
       52     3894        /**/
       53     3895        %B$EDEF (NAME=B$EDEF,STCLASS="BASED(EDEF$)");
       54     3965        /**/
       55     3966    1   DCL EDEF$ PTR;
       56     3967        /**/
       57     3968    1   DCL 1 DESC BASED ALIGNED,
       58     3969    1         2 BOUND UBIN(20) UNAL,
       59     3970    1         2 TYPE0,
       60     3971    1           3 FLAGS UBIN(9) UNAL,
       61     3972    1           3 WSR UBIN(3) UNAL,
       62     3973    1         2 TYPE2 REDEF TYPE0,
       63     3974    1           3 FLAGS UBIN(3) UNAL,
       64     3975    1           3 WSQ UBIN(9) UNAL,
       65     3976    1         2 BASE UBIN;
       66     3977    1   DCL 1 TEXTH CALIGNED BASED(TH$),
       67     3978    1         2 L UBIN HALF CALIGNED,
       68     3979    1         2 C CHAR(TEXTH.L);
       69     3980    1   DCL TH$ PTR;
       70     3981    1   DCL TEXTHV BIT(72);
       71     3982    1   DCL IC SBIN;
       72     3983    1   DCL IR UBIN;
       73     3984    1   DCL TYPE CHAR(8);
       74     3985    1   DCL CODE UBIN;
PL6.E3A0      #001=DAB$SSFRAME File=DAB$SSFRAME.:E05TSI                          TUE 07/29/97 12:39 Page:3
       75     3986    1   DCL CP UBIN;
       76     3987    1   DCL SCR UBIN;
       77     3988    1   DCL ISSID UBIN;
       78     3989    1   DCL DSAR UBIN;
       79     3990    1   DCL EWSQ UBIN;
       80     3991    1   DCL EREG UBIN;
       81     3992    1   DCL VAW SBIN;
       82     3993    1   DCL VAB SBIN;
       83     3994    1   DCL 1 POINTER ALIGNED,
       84     3995    1         2 WA SBIN,
       85     3996    1         2 CA SBIN,
       86     3997    1         2 BA SBIN,
       87     3998    1         2 S CHAR(4),
       88     3999    1         2 D SBIN;
       89     4000    1   DCL 1 DESCRIPTOR ALIGNED,
       90     4001    1         2 BASE,
       91     4002    1           3 WA UBIN,
       92     4003    1           3 CA UBIN,
       93     4004    1         2 BOUND,
       94     4005    1           3 WA UBIN,
       95     4006    1           3 CA UBIN,
       96     4007    1         2 WS CHAR(4),
       97     4008    1         2 WSV UBIN,
       98     4009    1         2 FLG UBIN,
       99     4010    1         2 TYPE UBIN;
      100     4011    1   DCL FORMAT CHAR(80);
      101     4012    1   DCL FMT$ PTR;
      102     4013    1   DCL FMTS SBIN;
      103     4014    1   DCL FMTV BIT(72);
      104     4015    1   DCL FMT CHAR(FMTS) BASED(FMT$);
      105     4016    1   DCL I SBIN;
      106     4017    1   DCL TEMP SBIN;
      107     4018    1   DCL NOYES(0:1) CHAR(3) CONSTANT INIT('NO','YES');
      108     4019    1   DCL TABDFLT SBIN;
      109     4020        /**/
      110     4021    1   DCL PTRFMT CHAR(0) CONSTANT INIT('.%O-%D-%D%4A%D');
      111     4022    1   DCL DESCFMT CHAR(0) CONSTANT INIT('.%O-%D,BD=.%O-%D%4A=%D,FL=.%O,TY=%D');
PL6.E3A0      #001=DAB$SSFRAME File=DAB$SSFRAME.:E05TSI                          TUE 07/29/97 12:39 Page:4
      112     4023    1   DCL 1 W0FMT CONSTANT,
      113     4024    1         2 * CHAR(0) INIT(' WORD 0%8XWORD 1%8XWORD 2%8XWORD 3%8XTIME STAMP%/'),
      114     4025    1         2 * CHAR(0) INIT(' %4(%12(-%)  %)%19(-%)%/'),
      115     4026    1         2 * CHAR(0) INIT(' %4(%12ZO  %)%2.0..20P%6.16ZO %12ZO');
      116     4027    1   DCL 1 ICFMT CONSTANT,
      117     4028    1         2 * CHAR(0) INIT('%/ IC=.%6ZO%-IR=.%6ZO%-MRT=%>A%-SSF=%>A%-%>A=%D');
      118     4029    1   DCL 1 ICEDEFFMT CONSTANT,
      119     4030    1         2 * CHAR(0) INIT('%/ IC=%18NA+.%O%-IR=.%6ZO%-MRT=%>A%-SSF=%>A%-%>A=%D');
      120     4031    1   DCL 1 VAFMT CONSTANT,
      121     4032    1         2 * CHAR(0) INIT(
              4032                  '%/ CP=%D%-SCR=%D%-ISSID=.%4ZO%-DSAR=.%6ZO  EWSQ=%D  TRAP/AUTO=.%O%/');
      122     4033    1   DCL 1 XREGFMT CONSTANT,
      123     4034    1         2 * CHAR(0) INIT(
              4034                  ' X0      X1      X2      X3      X4      X5      X6      X7%/'),
      124     4035    1         2 * CHAR(0) INIT(' %8(------  %)%/'),
      125     4036    1         2 * CHAR(0) INIT(' %8(%6.18ZO  %)%2/');
      126     4037    1   DCL RXFMT CHAR(0) CONSTANT INIT(' X%D: %A+.%O');
      127     4038    1   DCL AREGFMT CHAR(0) CONSTANT INIT(' A: %12ZO%-Q: %12ZO%-E: %3ZO%-TIMER: %12ZO%/');
      128     4039    1   DCL 1 PLFMT CONSTANT,
      129     4040    1         2 * CHAR(0) INIT(' POINTERS AND LENGTHS:%2/'),
      130     4041    1         2 * CHAR(0) INIT('%2( %4(%12ZO  %)%/%)');
      131     4042    1   DCL BLANKLINE CHAR(0) CONSTANT INIT(' ');
      132     4043        %EJECT;
PL6.E3A0      #001=DAB$SSFRAME File=DAB$SSFRAME.:E05TSI                          TUE 07/29/97 12:39 Page:5
      133     4044    1   DCL DAB$FLTCODE (0:21) CHAR(24) CONSTANT SYMDEF INIT(
      134     4045    1         'Shutdown fault',
      135     4046    1         'Memory fault',
      136     4047    1         'MME fault',
      137     4048    1         'Fault Tag fault',
      138     4049    1         'Timer Runout fault',
      139     4050    1         'Command fault',
      140     4051    1         'Derail fault',
      141     4052    1         'Lockup fault',
      142     4053    1         'Connect fault',
      143     4054    1         'Parity Error fault',
      144     4055    1         'Illegal Procedure fault',
      145     4056    1         'Op Not Complete fault',
      146     4057    1         'Startup fault',
      147     4058    1         'Overflow fault',
      148     4059    1         'Divide Check fault',
      149     4060    1         'Execute fault',
      150     4061    1         'Security Class 1 fault',
      151     4062    1         'Dynamic Linking fault',
      152     4063    1         'Missing Segment fault',
      153     4064    1         'Missing Work Space fault',
      154     4065    1         'Missing Page fault',
      155     4066    1         'Security Class 2 fault');
      156     4067        %EJECT;
PL6.E3A0      #001=DAB$SSFRAME File=DAB$SSFRAME.:E05TSI                          TUE 07/29/97 12:39 Page:6
      157     4068    1           TABDFLT=DA_FDS.TABDFLT#;
      158     4069    1           DA_FDS.TABDFLT#=5;
      159     4070    1           FMT$=ADDR(FORMAT);
      160     4071    1           CALL DAF$WRITE(VECTOR(W0FMT),VECTOR(FRAME.W0),VECTOR(FRAME.TSTAMP));
      161     4072    1           IC=FRAME.IC;
      162     4073    2           IF ADDR(FRAME.ISR)->DESC.TYPE0.WSR=%MONWSR THEN DO;
      163     4074    2              CALL DAS$IC2PED(IC,EDEF$) ALTRET(NOPED);
      164     4075    2              IC=IC-B$EDEF.ISADDR;
      165     4076    2              TH$=PINCRW(DA_DNAME$,B$EDEF.NPOINTER);
      166     4077    2              TEXTHV=VECTOR(TEXTH);
      167     4078    2              FMTV=VECTOR(ICEDEFFMT);
      168     4079    2              END;
      169     4080    2           ELSE DO;
      170     4081    2   NOPED:     TEXTHV=VECTOR(NIL);
      171     4082    2              FMTV=VECTOR(ICFMT);
      172     4083    2              END;
      173     4084    1           IR=FRAME.IR;
      174     4085    2           IF FRAME.FI THEN DO;
      175     4086    2              TYPE='INTLVL';
      176     4087    2              END;
      177     4088    2           ELSE DO;
      178     4089    2              TYPE='FLTCODE';
      179     4090    2              END;
      180     4091    1           CODE=FRAME.CODE;
      181     4092    1           CP=FRAME.CP;
      182     4093    1           SCR=FRAME.SCR;
      183     4094    1           CALL DAF$WRITE(FMTV,
      184     4095    1                          TEXTHV,
      185     4096    1                          VECTOR(IC),
      186     4097    1                          VECTOR(IR),
      187     4098    1                          VECTOR(NOYES(FRAME.MRT)),
      188     4099    1                          VECTOR(NOYES(FRAME.SSF)),
      189     4100    1                          VECTOR(TYPE),
      190     4101    1                          VECTOR(CODE));
      191     4102    1           ISSID=FRAME.ISSID;
      192     4103    1           DSAR=FRAME.DSAR;
      193     4104    1           EWSQ=FRAME.EWSQ;
PL6.E3A0      #001=DAB$SSFRAME File=DAB$SSFRAME.:E05TSI                          TUE 07/29/97 12:39 Page:7
      194     4105    1           VAW=FRAME.VA.W;
      195     4106    1           CALL DAF$WRITE(VECTOR(VAFMT),
      196     4107    1                          VECTOR(CP),
      197     4108    1                          VECTOR(SCR),
      198     4109    1                          VECTOR(ISSID),
      199     4110    1                          VECTOR(DSAR),
      200     4111    1                          VECTOR(EWSQ),
      201     4112    1                          VECTOR(VAW));
      202     4113    1           CALL CONCAT(FORMAT,' ISR: ',DESCFMT);
      203     4114    1           FMTS=6+SIZEC(DESCFMT);
      204     4115    1           CALL RIPDESC(FRAME.ISR);
      205     4116    1           CALL DAF$WRITE(VECTOR(FMT),VECTOR(DESCRIPTOR));
      206     4117    1           CALL INSERT(FORMAT,1,3,'ASR');
      207     4118    1           CALL RIPDESC(FRAME.ASR);
      208     4119    1           CALL DAF$WRITE(VECTOR(FMT),VECTOR(DESCRIPTOR));
      209     4120    1           CALL INSERT(FORMAT,1,3,'LSR');
      210     4121    1           CALL RIPDESC(FRAME.LSR);
      211     4122    1           CALL DAF$WRITE(VECTOR(FMT),VECTOR(DESCRIPTOR));
      212     4123    1           CALL INSERT(FORMAT,1,3,'PSR');
      213     4124    1           CALL RIPDESC(FRAME.PSR);
      214     4125    1           CALL INSERT(FORMAT,FMTS,2,'%/');
      215     4126    1           FMTS=FMTS+2;
      216     4127    1           CALL DAF$WRITE(VECTOR(FMT),VECTOR(DESCRIPTOR));
      217     4128    1           CALL CONCAT(FORMAT,' PR%D: ',PTRFMT,'%27-DR%D: ',DESCFMT);
      218     4129    1           FMTS=17+SIZEC(PTRFMT)+SIZEC(DESCFMT);
      219     4130    2           DO I=0 TO 7;
      220     4131    2              CALL RIPPTR(FRAME.PR(I));
      221     4132    2              CALL RIPDESC(FRAME.DR(I));
      222     4133    2              CALL DAF$WRITE(VECTOR(FMT),
      223     4134    2                             VECTOR(I),
      224     4135    2                             VECTOR(POINTER),
      225     4136    2                             VECTOR(I),
      226     4137    2                             VECTOR(DESCRIPTOR));
      227     4138    2              END;
      228     4139    1           CALL DAF$WRITE(VECTOR(BLANKLINE));
      229     4140    1           CALL DAF$WRITE(VECTOR(XREGFMT),
      230     4141    1                          VECTOR(FRAME.XREG));
PL6.E3A0      #001=DAB$SSFRAME File=DAB$SSFRAME.:E05TSI                          TUE 07/29/97 12:39 Page:8
      231     4142    2           IF ADDR(FRAME.ISR)->DESC.TYPE0.WSR=%MONWSR THEN DO;
      232     4143    3              DO I=0 TO 7;
      233     4144    3                 IC=FRAME.XREG(I);
      234     4145    3                 CALL DAS$IC2PED(IC,EDEF$) ALTRET(NXT_XREG);
      235     4146    3                 IC=IC-B$EDEF.ISADDR;
      236     4147    3                 TH$=PINCRW(DA_DNAME$,B$EDEF.NPOINTER);
      237     4148    3                 IF TEXTH.C='XUP$PARSE' THEN GOTO NXT_XREG;
      238     4149    3                 CALL DAF$WRITE(VECTOR(RXFMT),
      239     4150    3                                VECTOR(I),
      240     4151    3                                VECTOR(TEXTH.C),
      241     4152    3                                VECTOR(IC));
      242     4153    3   NXT_XREG:     END;
      243     4154    2              CALL DAF$WRITE(VECTOR(BLANKLINE));
      244     4155    2              END;
      245     4156    1           EREG=FRAME.EREG;
      246     4157    1           CALL DAF$WRITE(VECTOR(AREGFMT),
      247     4158    1                          VECTOR(FRAME.AREG),
      248     4159    1                          VECTOR(FRAME.QREG),
      249     4160    1                          VECTOR(EREG),
      250     4161    1                          VECTOR(FRAME.TREG));
      251     4162    2           IF BINBIT(IR,18) & '000040'O THEN DO;
      252     4163    2              CALL DAF$WRITE(VECTOR(PLFMT),
      253     4164    2                             VECTOR(FRAME.PL));
      254     4165    2              END;
      255     4166    1           DA_FDS.TABDFLT#=TABDFLT;
      256     4167    1           RETURN;
      257     4168        %EJECT;
PL6.E3A0      #001=DAB$SSFRAME File=DAB$SSFRAME.:E05TSI                          TUE 07/29/97 12:39 Page:9
      258     4169    1   RIPPTR: PROC(P);
      259     4170    2   DCL 1 P ALIGNED,
      260     4171    2         2 WA UBIN(18) UNAL,
      261     4172    2         2 CA UBIN(2) UNAL,
      262     4173    2         2 BA UBIN(4) UNAL,
      263     4174    2         2 S UBIN(2) UNAL,
      264     4175    2         2 D UBIN(10) UNAL;
      265     4176    2           POINTER.WA=P.WA;
      266     4177    2           POINTER.CA=P.CA;
      267     4178    2           POINTER.BA=P.BA;
      268     4179    3           DO CASE(P.S);
      269     4180    3            CASE(0);
      270     4181    3              POINTER.S=',$PS';
      271     4182    3            CASE(1);
      272     4183    3              POINTER.S=',$??';
      273     4184    3            CASE(2);
      274     4185    3              POINTER.S=',$AS';
      275     4186    3            CASE(3);
      276     4187    3              POINTER.S=',$LS';
      277     4188    3            END;
      278     4189    2           POINTER.D=P.D;
      279     4190    2           RETURN;
      280     4191    2   END RIPPTR;
      281     4192        %EJECT;
PL6.E3A0      #001=DAB$SSFRAME File=DAB$SSFRAME.:E05TSI                          TUE 07/29/97 12:39 Page:10
      282     4193    1   RIPDESC: PROC(D);
      283     4194    2   DCL 1 D ALIGNED,
      284     4195    2         2 BOUND,
      285     4196    2           3 WA UBIN(18) UNAL,
      286     4197    2           3 CA UBIN(2) UNAL,
      287     4198    2         2 TYPE0,
      288     4199    2           3 FLG UBIN(9) UNAL,
      289     4200    2           3 WSR UBIN(3) UNAL,
      290     4201    2         2 TYPE2 REDEF TYPE0,
      291     4202    2           3 FLG UBIN(3) UNAL,
      292     4203    2           3 WSQ UBIN(9) UNAL,
      293     4204    2         2 TYPE UBIN(4) UNAL,
      294     4205    2         2 BASE,
      295     4206    2           3 WA UBIN(34) UNAL,
      296     4207    2           3 CA UBIN(2) UNAL;
      297     4208        /**/
      298     4209    2           DESCRIPTOR.BASE.WA=D.BASE.WA;
      299     4210    2           DESCRIPTOR.BASE.CA=D.BASE.CA;
      300     4211    2           DESCRIPTOR.BOUND.WA=D.BOUND.WA;
      301     4212    2           DESCRIPTOR.BOUND.CA=D.BOUND.CA;
      302     4213    2           DESCRIPTOR.TYPE=D.TYPE;
      303     4214    3           DO CASE(DESCRIPTOR.TYPE);
      304     4215    3            CASE(0,1);
      305     4216    3              DESCRIPTOR.WS=',WSR';
      306     4217    3              DESCRIPTOR.WSV=D.TYPE0.WSR;
      307     4218    3              DESCRIPTOR.FLG=D.TYPE0.FLG;
      308     4219    3            CASE(2,3);
      309     4220    3              DESCRIPTOR.WS=',WSQ';
      310     4221    3              DESCRIPTOR.WSV=D.TYPE2.WSQ;
      311     4222    3              DESCRIPTOR.FLG=D.TYPE2.FLG;
      312     4223    3            END;
      313     4224    2           RETURN;
      314     4225    2   END RIPDESC;
      315     4226    1   END DAB$SSFRAME;

PL6.E3A0      #001=DAB$SSFRAME File=DAB$SSFRAME.:E05TSI                          TUE 07/29/97 12:39 Page:11
--  Include file information  --

   XU_FORMAT_C.:E05TOU  is referenced.
   DA_SYMBOLS_R.:E05TOU  cannot be made into a system file and is referenced.
   B_STRINGS_C.:E05TOU  is referenced.
   B$OBJECT_C.:E05TOU  is referenced.
      No diagnostics issued in procedure DAB$SSFRAME.

   Procedure DAB$SSFRAME requires 715 words for executable code.
   Procedure DAB$SSFRAME requires 108 words of local(AUTO) storage.

    No errors detected in file DAB$SSFRAME.:E05TSI    .

PL6.E3A0      #001=DAB$SSFRAME File=DAB$SSFRAME.:E05TSI                          TUE 07/29/97 12:39 Page:12

 Object Unit name= DAB$SSFRAME                                File name= DAB$SSFRAME.:E05TOU
 UTS= JUL 29 '97 12:39:24.52 TUE                              Compiler= PL-6/E31         Sev=      00
 SharedLib= :SHARED_SYSTEM                                    Alt SharedLib=


    ****  Control sections  ****

 Sect   Type Bound  Init  Size OctSiz  Section name(segment info)
    0  RoData even  UTS    291    443  DAB$SSFRAME
    1   Proc  even  none   715   1313  DAB$SSFRAME
    2  RoData even  none    37     45  DAB$SSFRAME

    ****  Entry defs  ****

                              Check   Calling
                             calling  sequence
  Sect OctLoc Primary Altret sequence   type   Parms  Name
     1      0   yes            yes      Std        1  DAB$SSFRAME

  ****  Data defs  ****

 Sect OctLoc  Name                           Sect OctLoc  Name
    0    207  DAB$FLTCODE

  ****  Entry refs  ****

         Check        Calling
        calling       sequence
Altret sequence SRef   type   Args  Name
 yes     yes           Std       2 DAS$IC2PED
                       nStd      0 X66_AUTO_1
                       Std       0 B_CONSPOOL_D
                       nStd      0 X66_ARET
PL6.E3A0      #001=DAB$SSFRAME File=DAB$SSFRAME.:E05TSI                          TUE 07/29/97 12:39 Page:13

  ****  Data refs  ****

  Flags:  r = read only, s = secondary
Flgs Name                             Flgs Name                             Flgs Name
     DAF$WRITE                             DA_DNAME$                             DA_FDS
     B_VECTNIL

  ****  Segment refs  ****

  Flags:  r = read only, s = secondary
Flgs Name                             Flgs Name                             Flgs Name
     NULLSID                               ISSID
PL6.E3A0      #001=DAB$SSFRAME File=DAB$SSFRAME.:E05TSI                          TUE 07/29/97 12:39 Page:14


        1        1        /*M* DAB$SSFRAME - DISPLAY SAFE STORE FRAME */
        2        2        /*T***********************************************************/
        3        3        /*T*                                                         */
        4        4        /*T* Copyright (c) Bull HN Information Systems Inc., 1997    */
        5        5        /*T*                                                         */
        6        6        /*T***********************************************************/
        7        7        DAB$SSFRAME: PROC(FRAME);

      7  1 000000   000000 700200 xent  DAB$SSFRAME  TSX0  ! X66_AUTO_1
         1 000001   000154 000001                    ZERO    108,1

        8        8    1   DCL 1 FRAME ALIGNED,
        9        9    1         2 W0(0:3) UBIN,
       10       10    1         2 IC UBIN(18) UNAL,
       11       11    1         2 IR UBIN(18) UNAL,
       12       12    1         2 IRB REDEF IR BIT(18) UNAL,
       13       13    1         2 * UBIN(9) UNAL,
       14       14    1         2 MRT UBIN(1) UNAL,
       15       15    1         2 SSF UBIN(1) UNAL,
       16       16    1         2 FI BIT(1) UNAL,
       17       17    1         2 CODE UBIN(5) UNAL,
       18       18    1         2 * BIT(1) UNAL,
       19       19    1         2 * BIT(1),
       20       20    1         2 CP UBIN(3) UNAL,
       21       21    1         2 SCR UBIN(2) UNAL,
       22       22    1         2 ISSID UBIN(12) UNAL,
       23       23    1         2 DSAR UBIN(17) UNAL,
       24       24    1         2 * UBIN(10) UNAL,
       25       25    1         2 EWSQ UBIN(9) UNAL,
       26       26    1         2 VA,
       27       27    1           3 W UBIN(36) UNAL,
       28       28    1         2 ISR BIT(72),
       29       29    1         2 ASR BIT(72),
       30       30    1         2 LSR BIT(72),
       31       31    1         2 PSR BIT(72),
       32       32    1         2 PR(0:7) BIT(36),
PL6.E3A0      #001=DAB$SSFRAME File=DAB$SSFRAME.:E05TSI                          TUE 07/29/97 12:39 Page:15
       33       33    1         2 DR(0:7) BIT(72),
       34       34    1         2 XREG(0:7) UBIN(18) UNAL,
       35       35    1         2 AREG UBIN WORD,
       36       36    1         2 QREG UBIN WORD,
       37       37    1         2 EREG UBIN(8),
       38       38    1         2 TREG UBIN WORD,
       39       39    1         2 PL(0:7) UBIN WORD,
       40       40    1         2 *(0:5) UBIN WORD,
       41       41    1         2 TSTAMP BIT(72);
       42       42        /**/
       43       43    1   DCL DAF$WRITE EPTR SYMREF;
       44       44    1   DCL DAS$IC2PED ENTRY(2) ALTRET;
       45       45        /**/
       46       46        %INCLUDE B$OBJECT_C;
       47     3476        %INCLUDE B_STRINGS_C;
       48     3605        %INCLUDE DA_SYMBOLS_R;
       49     3618        %INCLUDE XU_FORMAT_C;
       50     3780        /**/
       51     3781        %F_FDS (NAME=DA_FDS,STCLASS=SYMREF);
       52     3894        /**/
       53     3895        %B$EDEF (NAME=B$EDEF,STCLASS="BASED(EDEF$)");
       54     3965        /**/
       55     3966    1   DCL EDEF$ PTR;
       56     3967        /**/
       57     3968    1   DCL 1 DESC BASED ALIGNED,
       58     3969    1         2 BOUND UBIN(20) UNAL,
       59     3970    1         2 TYPE0,
       60     3971    1           3 FLAGS UBIN(9) UNAL,
       61     3972    1           3 WSR UBIN(3) UNAL,
       62     3973    1         2 TYPE2 REDEF TYPE0,
       63     3974    1           3 FLAGS UBIN(3) UNAL,
       64     3975    1           3 WSQ UBIN(9) UNAL,
       65     3976    1         2 BASE UBIN;
       66     3977    1   DCL 1 TEXTH CALIGNED BASED(TH$),
       67     3978    1         2 L UBIN HALF CALIGNED,
       68     3979    1         2 C CHAR(TEXTH.L);
       69     3980    1   DCL TH$ PTR;
PL6.E3A0      #001=DAB$SSFRAME File=DAB$SSFRAME.:E05TSI                          TUE 07/29/97 12:39 Page:16
       70     3981    1   DCL TEXTHV BIT(72);
       71     3982    1   DCL IC SBIN;
       72     3983    1   DCL IR UBIN;
       73     3984    1   DCL TYPE CHAR(8);
       74     3985    1   DCL CODE UBIN;
       75     3986    1   DCL CP UBIN;
       76     3987    1   DCL SCR UBIN;
       77     3988    1   DCL ISSID UBIN;
       78     3989    1   DCL DSAR UBIN;
       79     3990    1   DCL EWSQ UBIN;
       80     3991    1   DCL EREG UBIN;
       81     3992    1   DCL VAW SBIN;
       82     3993    1   DCL VAB SBIN;
       83     3994    1   DCL 1 POINTER ALIGNED,
       84     3995    1         2 WA SBIN,
       85     3996    1         2 CA SBIN,
       86     3997    1         2 BA SBIN,
       87     3998    1         2 S CHAR(4),
       88     3999    1         2 D SBIN;
       89     4000    1   DCL 1 DESCRIPTOR ALIGNED,
       90     4001    1         2 BASE,
       91     4002    1           3 WA UBIN,
       92     4003    1           3 CA UBIN,
       93     4004    1         2 BOUND,
       94     4005    1           3 WA UBIN,
       95     4006    1           3 CA UBIN,
       96     4007    1         2 WS CHAR(4),
       97     4008    1         2 WSV UBIN,
       98     4009    1         2 FLG UBIN,
       99     4010    1         2 TYPE UBIN;
      100     4011    1   DCL FORMAT CHAR(80);
      101     4012    1   DCL FMT$ PTR;
      102     4013    1   DCL FMTS SBIN;
      103     4014    1   DCL FMTV BIT(72);
      104     4015    1   DCL FMT CHAR(FMTS) BASED(FMT$);
      105     4016    1   DCL I SBIN;
      106     4017    1   DCL TEMP SBIN;
PL6.E3A0      #001=DAB$SSFRAME File=DAB$SSFRAME.:E05TSI                          TUE 07/29/97 12:39 Page:17
      107     4018    1   DCL NOYES(0:1) CHAR(3) CONSTANT INIT('NO','YES');
      108     4019    1   DCL TABDFLT SBIN;
      109     4020        /**/
      110     4021    1   DCL PTRFMT CHAR(0) CONSTANT INIT('.%O-%D-%D%4A%D');
      111     4022    1   DCL DESCFMT CHAR(0) CONSTANT INIT('.%O-%D,BD=.%O-%D%4A=%D,FL=.%O,TY=%D');
      112     4023    1   DCL 1 W0FMT CONSTANT,
      113     4024    1         2 * CHAR(0) INIT(' WORD 0%8XWORD 1%8XWORD 2%8XWORD 3%8XTIME STAMP%/'),
      114     4025    1         2 * CHAR(0) INIT(' %4(%12(-%)  %)%19(-%)%/'),
      115     4026    1         2 * CHAR(0) INIT(' %4(%12ZO  %)%2.0..20P%6.16ZO %12ZO');
      116     4027    1   DCL 1 ICFMT CONSTANT,
      117     4028    1         2 * CHAR(0) INIT('%/ IC=.%6ZO%-IR=.%6ZO%-MRT=%>A%-SSF=%>A%-%>A=%D');
      118     4029    1   DCL 1 ICEDEFFMT CONSTANT,
      119     4030    1         2 * CHAR(0) INIT('%/ IC=%18NA+.%O%-IR=.%6ZO%-MRT=%>A%-SSF=%>A%-%>A=%D');
      120     4031    1   DCL 1 VAFMT CONSTANT,
      121     4032    1         2 * CHAR(0) INIT(
              4032                  '%/ CP=%D%-SCR=%D%-ISSID=.%4ZO%-DSAR=.%6ZO  EWSQ=%D  TRAP/AUTO=.%O%/');
      122     4033    1   DCL 1 XREGFMT CONSTANT,
      123     4034    1         2 * CHAR(0) INIT(
              4034                  ' X0      X1      X2      X3      X4      X5      X6      X7%/'),
      124     4035    1         2 * CHAR(0) INIT(' %8(------  %)%/'),
      125     4036    1         2 * CHAR(0) INIT(' %8(%6.18ZO  %)%2/');
      126     4037    1   DCL RXFMT CHAR(0) CONSTANT INIT(' X%D: %A+.%O');
      127     4038    1   DCL AREGFMT CHAR(0) CONSTANT INIT(' A: %12ZO%-Q: %12ZO%-E: %3ZO%-TIMER: %12ZO%/');
      128     4039    1   DCL 1 PLFMT CONSTANT,
      129     4040    1         2 * CHAR(0) INIT(' POINTERS AND LENGTHS:%2/'),
      130     4041    1         2 * CHAR(0) INIT('%2( %4(%12ZO  %)%/%)');
      131     4042    1   DCL BLANKLINE CHAR(0) CONSTANT INIT(' ');
      132     4043        %EJECT;
PL6.E3A0      #001=DAB$SSFRAME File=DAB$SSFRAME.:E05TSI                          TUE 07/29/97 12:39 Page:18
      133     4044    1   DCL DAB$FLTCODE (0:21) CHAR(24) CONSTANT SYMDEF INIT(
      134     4045    1         'Shutdown fault',
      135     4046    1         'Memory fault',
      136     4047    1         'MME fault',
      137     4048    1         'Fault Tag fault',
      138     4049    1         'Timer Runout fault',
      139     4050    1         'Command fault',
      140     4051    1         'Derail fault',
      141     4052    1         'Lockup fault',
      142     4053    1         'Connect fault',
      143     4054    1         'Parity Error fault',
      144     4055    1         'Illegal Procedure fault',
      145     4056    1         'Op Not Complete fault',
      146     4057    1         'Startup fault',
      147     4058    1         'Overflow fault',
      148     4059    1         'Divide Check fault',
      149     4060    1         'Execute fault',
      150     4061    1         'Security Class 1 fault',
      151     4062    1         'Dynamic Linking fault',
      152     4063    1         'Missing Segment fault',
      153     4064    1         'Missing Work Space fault',
      154     4065    1         'Missing Page fault',
      155     4066    1         'Security Class 2 fault');
      156     4067        %EJECT;
PL6.E3A0      #001=DAB$SSFRAME File=DAB$SSFRAME.:E05TSI                          TUE 07/29/97 12:39 Page:19
      157     4068    1           TABDFLT=DA_FDS.TABDFLT#;

   4068  1 000002   000017 235000 xsym               LDA     DA_FDS+15
         1 000003   200074 755100                    STA     TABDFLT,,AUTO

      158     4069    1           DA_FDS.TABDFLT#=5;

   4069  1 000004   000005 236007                    LDQ     5,DL
         1 000005   000017 756000 xsym               STQ     DA_FDS+15

      159     4070    1           FMT$=ADDR(FORMAT);

   4070  1 000006   200042 630500                    EPPR0   FORMAT,,AUTO
         1 000007   200066 450500                    STP0    FMT$,,AUTO

      160     4071    1           CALL DAF$WRITE(VECTOR(W0FMT),VECTOR(FRAME.W0),VECTOR(FRAME.TSTAMP));

   4071  1 000010   000002 235000 2                  LDA     2
         1 000011   200003 236100                    LDQ     @FRAME,,AUTO
         1 000012   200100 757100                    STAQ    @D+1,,AUTO
         1 000013   000003 235000 2                  LDA     3
         1 000014   200003 236100                    LDQ     @FRAME,,AUTO
         1 000015   000076 036003                    ADLQ    62,DU
         1 000016   200104 757100                    STAQ    @D+5,,AUTO
         1 000017   200100 237100                    LDAQ    @D+1,,AUTO
         1 000020   200102 757100                    STAQ    @D+3,,AUTO
         1 000021   200104 237100                    LDAQ    @D+5,,AUTO
         1 000022   200106 757100                    STAQ    @D+7,,AUTO
         1 000023   200106 631500                    EPPR1   @D+7,,AUTO
         1 000024   200112 451500                    STP1    @D+11,,AUTO
         1 000025   200102 633500                    EPPR3   @D+3,,AUTO
         1 000026   200111 453500                    STP3    @D+10,,AUTO
         1 000027   000004 236000 2                  LDQ     4
         1 000030   200110 756100                    STQ     @D+9,,AUTO
         1 000031   200110 630500                    EPPR0   @D+9,,AUTO
         1 000032   000000 220000 xsym               LDX0    DAF$WRITE
         1 000033   000021 631400 xsym               EPPR1   B_VECTNIL+17
PL6.E3A0      #001=DAB$SSFRAME File=DAB$SSFRAME.:E05TSI                          TUE 07/29/97 12:39 Page:20
         1 000034   000000 701010                    TSX1    0,X0
         1 000035   000000 011000                    NOP     0

      161     4072    1           IC=FRAME.IC;

   4072  1 000036   200003 470500                    LDP0    @FRAME,,AUTO
         1 000037   000004 236100                    LDQ     4,,PR0
         1 000040   000022 772000                    QRL     18
         1 000041   200010 756100                    STQ     IC,,AUTO

      162     4073    2           IF ADDR(FRAME.ISR)->DESC.TYPE0.WSR=%MONWSR THEN DO;

   4073  1 000042   000010 236100                    LDQ     8,,PR0
         1 000043   000160 316007                    CANQ    112,DL
         1 000044   000105 601000 1                  TNZ     NOPED

      163     4074    2              CALL DAS$IC2PED(IC,EDEF$) ALTRET(NOPED);

   4074  1 000045   200004 631500                    EPPR1   EDEF$,,AUTO
         1 000046   200101 451500                    STP1    @D+2,,AUTO
         1 000047   200010 633500                    EPPR3   IC,,AUTO
         1 000050   200100 453500                    STP3    @D+1,,AUTO
         1 000051   200100 630500                    EPPR0   @D+1,,AUTO
         1 000052   000020 631400 xsym               EPPR1   B_VECTNIL+16
         1 000053   000000 701000 xent               TSX1    DAS$IC2PED
         1 000054   000105 702000 1                  TSX2    NOPED

      164     4075    2              IC=IC-B$EDEF.ISADDR;

   4075  1 000055   200004 470500                    LDP0    EDEF$,,AUTO
         1 000056   000000 236100                    LDQ     0,,PR0
         1 000057   000032 376000 xsym               ANQ     B_VECTNIL+26
         1 000060   200100 756100                    STQ     @D+1,,AUTO
         1 000061   200010 236100                    LDQ     IC,,AUTO
         1 000062   200100 136100                    SBLQ    @D+1,,AUTO
         1 000063   200010 756100                    STQ     IC,,AUTO

PL6.E3A0      #001=DAB$SSFRAME File=DAB$SSFRAME.:E05TSI                          TUE 07/29/97 12:39 Page:21
      165     4076    2              TH$=PINCRW(DA_DNAME$,B$EDEF.NPOINTER);

   4076  1 000064   000001 220100                    LDX0    1,,PR0
         1 000065   000000 636010                    EAQ     0,X0
         1 000066   000000 036000 xsym               ADLQ    DA_DNAME$
         1 000067   200005 756100                    STQ     TH$,,AUTO

      166     4077    2              TEXTHV=VECTOR(TEXTH);

   4077  1 000070   200005 471500                    LDP1    TH$,,AUTO
         1 000071   000100 100500                    MLR     fill='000'O
         1 000072   100000 000002                    ADSC9   0,,PR1                   cn=0,n=2
         1 000073   200100 000004                    ADSC9   @D+1,,AUTO               cn=0,n=4
         1 000074   200100 220100                    LDX0    @D+1,,AUTO
         1 000075   000002 621010                    EAX1    2,X0
         1 000076   000000 635011                    EAA     0,X1
         1 000077   000002 771000                    ARL     2
         1 000100   000140 135007                    SBLA    96,DL
         1 000101   200006 757100                    STAQ    TEXTHV,,AUTO

      167     4078    2              FMTV=VECTOR(ICEDEFFMT);

   4078  1 000102   000006 237000 2                  LDAQ    6
         1 000103   200070 757100                    STAQ    FMTV,,AUTO

      168     4079    2              END;

   4079  1 000104   000111 710000 1                  TRA     s:4084

      169     4080    2           ELSE DO;

      170     4081    2   NOPED:     TEXTHV=VECTOR(NIL);

   4081  1 000105   000010 237000 2     NOPED        LDAQ    8
         1 000106   200006 757100                    STAQ    TEXTHV,,AUTO

      171     4082    2              FMTV=VECTOR(ICFMT);
PL6.E3A0      #001=DAB$SSFRAME File=DAB$SSFRAME.:E05TSI                          TUE 07/29/97 12:39 Page:22

   4082  1 000107   000012 237000 2                  LDAQ    10
         1 000110   200070 757100                    STAQ    FMTV,,AUTO

      172     4083    2              END;

      173     4084    1           IR=FRAME.IR;

   4084  1 000111   200003 470500                    LDP0    @FRAME,,AUTO
         1 000112   000004 236100                    LDQ     4,,PR0
         1 000113   777777 376007                    ANQ     -1,DL
         1 000114   200011 756100                    STQ     IR,,AUTO

      174     4085    2           IF FRAME.FI THEN DO;

   4085  1 000115   000005 236100                    LDQ     5,,PR0
         1 000116   000100 316003                    CANQ    64,DU
         1 000117   000124 600000 1                  TZE     s:4089

      175     4086    2              TYPE='INTLVL';

   4086  1 000120   040100 100400                    MLR     fill='040'O
         1 000121   000413 000006 0                  ADSC9   BLANKLINE+133            cn=0,n=6
         1 000122   200012 000010                    ADSC9   TYPE,,AUTO               cn=0,n=8

      176     4087    2              END;

   4087  1 000123   000127 710000 1                  TRA     s:4091

      177     4088    2           ELSE DO;

      178     4089    2              TYPE='FLTCODE';

   4089  1 000124   040100 100400                    MLR     fill='040'O
         1 000125   000415 000007 0                  ADSC9   BLANKLINE+135            cn=0,n=7
         1 000126   200012 000010                    ADSC9   TYPE,,AUTO               cn=0,n=8

PL6.E3A0      #001=DAB$SSFRAME File=DAB$SSFRAME.:E05TSI                          TUE 07/29/97 12:39 Page:23
      179     4090    2              END;

      180     4091    1           CODE=FRAME.CODE;

   4091  1 000127   000005 236100                    LDQ     5,,PR0
         1 000130   000023 772000                    QRL     19
         1 000131   000037 376007                    ANQ     31,DL
         1 000132   200014 756100                    STQ     CODE,,AUTO

      181     4092    1           CP=FRAME.CP;

   4092  1 000133   000005 236100                    LDQ     5,,PR0
         1 000134   000016 772000                    QRL     14
         1 000135   000007 376007                    ANQ     7,DL
         1 000136   200015 756100                    STQ     CP,,AUTO

      182     4093    1           SCR=FRAME.SCR;

   4093  1 000137   000005 236100                    LDQ     5,,PR0
         1 000140   000014 772000                    QRL     12
         1 000141   000003 376007                    ANQ     3,DL
         1 000142   200016 756100                    STQ     SCR,,AUTO

      183     4094    1           CALL DAF$WRITE(FMTV,

   4094  1 000143   777640 235007                    LDA     -96,DL
         1 000144   200100 452500                    STP2    @D+1,,AUTO
         1 000145   200100 236100                    LDQ     @D+1,,AUTO
         1 000146   000010 036003                    ADLQ    8,DU
         1 000147   200102 757100                    STAQ    @D+3,,AUTO
         1 000150   777640 235007                    LDA     -96,DL
         1 000151   200104 452500                    STP2    @D+5,,AUTO
         1 000152   200104 236100                    LDQ     @D+5,,AUTO
         1 000153   000011 036003                    ADLQ    9,DU
         1 000154   200106 757100                    STAQ    @D+7,,AUTO
         1 000155   000005 236100                    LDQ     5,,PR0
         1 000156   000032 772000                    QRL     26
PL6.E3A0      #001=DAB$SSFRAME File=DAB$SSFRAME.:E05TSI                          TUE 07/29/97 12:39 Page:24
         1 000157   000001 376007                    ANQ     1,DL
         1 000160   000003 402007                    MPY     3,DL
         1 000161   577640 235007                    LDA     -65632,DL
         1 000162   000020 736000                    QLS     16
         1 000163   000014 036000 2                  ADLQ    12
         1 000164   200110 757100                    STAQ    @D+9,,AUTO
         1 000165   000005 236100                    LDQ     5,,PR0
         1 000166   000031 772000                    QRL     25
         1 000167   000001 376007                    ANQ     1,DL
         1 000170   000003 402007                    MPY     3,DL
         1 000171   577640 235007                    LDA     -65632,DL
         1 000172   000020 736000                    QLS     16
         1 000173   000014 036000 2                  ADLQ    12
         1 000174   200112 757100                    STAQ    @D+11,,AUTO
         1 000175   000003 235000 2                  LDA     3
         1 000176   200114 452500                    STP2    @D+13,,AUTO
         1 000177   200114 236100                    LDQ     @D+13,,AUTO
         1 000200   000012 036003                    ADLQ    10,DU
         1 000201   200116 757100                    STAQ    @D+15,,AUTO
         1 000202   777640 235007                    LDA     -96,DL
         1 000203   200120 452500                    STP2    @D+17,,AUTO
         1 000204   200120 236100                    LDQ     @D+17,,AUTO
         1 000205   000014 036003                    ADLQ    12,DU
         1 000206   200124 757100                    STAQ    @D+21,,AUTO
         1 000207   200102 237100                    LDAQ    @D+3,,AUTO
         1 000210   200122 757100                    STAQ    @D+19,,AUTO
         1 000211   200106 237100                    LDAQ    @D+7,,AUTO
         1 000212   200126 757100                    STAQ    @D+23,,AUTO
         1 000213   200110 237100                    LDAQ    @D+9,,AUTO
         1 000214   200130 757100                    STAQ    @D+25,,AUTO
         1 000215   200112 237100                    LDAQ    @D+11,,AUTO
         1 000216   200132 757100                    STAQ    @D+27,,AUTO
         1 000217   200116 237100                    LDAQ    @D+15,,AUTO
         1 000220   200134 757100                    STAQ    @D+29,,AUTO
         1 000221   200124 237100                    LDAQ    @D+21,,AUTO
         1 000222   200136 757100                    STAQ    @D+31,,AUTO
         1 000223   200136 631500                    EPPR1   @D+31,,AUTO
PL6.E3A0      #001=DAB$SSFRAME File=DAB$SSFRAME.:E05TSI                          TUE 07/29/97 12:39 Page:25
         1 000224   200147 451500                    STP1    @D+40,,AUTO
         1 000225   200134 633500                    EPPR3   @D+29,,AUTO
         1 000226   200146 453500                    STP3    @D+39,,AUTO
         1 000227   200132 634500                    EPPR4   @D+27,,AUTO
         1 000230   200145 454500                    STP4    @D+38,,AUTO
         1 000231   200130 635500                    EPPR5   @D+25,,AUTO
         1 000232   200144 455500                    STP5    @D+37,,AUTO
         1 000233   200126 636500                    EPPR6   @D+23,,AUTO
         1 000234   200143 456500                    STP6    @D+36,,AUTO
         1 000235   200122 637500                    EPPR7   @D+19,,AUTO
         1 000236   200142 457500                    STP7    @D+35,,AUTO
         1 000237   200006 630500                    EPPR0   TEXTHV,,AUTO
         1 000240   200141 450500                    STP0    @D+34,,AUTO
         1 000241   200070 630500                    EPPR0   FMTV,,AUTO
         1 000242   200140 450500                    STP0    @D+33,,AUTO
         1 000243   200140 630500                    EPPR0   @D+33,,AUTO
         1 000244   000000 220000 xsym               LDX0    DAF$WRITE
         1 000245   000026 631400 xsym               EPPR1   B_VECTNIL+22
         1 000246   000000 701010                    TSX1    0,X0
         1 000247   000000 011000                    NOP     0

      184     4095    1                          TEXTHV,
      185     4096    1                          VECTOR(IC),
      186     4097    1                          VECTOR(IR),
      187     4098    1                          VECTOR(NOYES(FRAME.MRT)),
      188     4099    1                          VECTOR(NOYES(FRAME.SSF)),
      189     4100    1                          VECTOR(TYPE),
      190     4101    1                          VECTOR(CODE));
      191     4102    1           ISSID=FRAME.ISSID;

   4102  1 000250   200003 470500                    LDP0    @FRAME,,AUTO
         1 000251   000005 236100                    LDQ     5,,PR0
         1 000252   007777 376007                    ANQ     4095,DL
         1 000253   200017 756100                    STQ     ISSID,,AUTO

      192     4103    1           DSAR=FRAME.DSAR;

PL6.E3A0      #001=DAB$SSFRAME File=DAB$SSFRAME.:E05TSI                          TUE 07/29/97 12:39 Page:26
   4103  1 000254   000006 236100                    LDQ     6,,PR0
         1 000255   000023 772000                    QRL     19
         1 000256   200020 756100                    STQ     DSAR,,AUTO

      193     4104    1           EWSQ=FRAME.EWSQ;

   4104  1 000257   000006 236100                    LDQ     6,,PR0
         1 000260   000777 376007                    ANQ     511,DL
         1 000261   200021 756100                    STQ     EWSQ,,AUTO

      194     4105    1           VAW=FRAME.VA.W;

   4105  1 000262   000007 235100                    LDA     7,,PR0
         1 000263   200023 755100                    STA     VAW,,AUTO

      195     4106    1           CALL DAF$WRITE(VECTOR(VAFMT),

   4106  1 000264   777640 235007                    LDA     -96,DL
         1 000265   200100 452500                    STP2    @D+1,,AUTO
         1 000266   200100 236100                    LDQ     @D+1,,AUTO
         1 000267   000015 036003                    ADLQ    13,DU
         1 000270   200102 757100                    STAQ    @D+3,,AUTO
         1 000271   777640 235007                    LDA     -96,DL
         1 000272   200104 452500                    STP2    @D+5,,AUTO
         1 000273   200104 236100                    LDQ     @D+5,,AUTO
         1 000274   000016 036003                    ADLQ    14,DU
         1 000275   200106 757100                    STAQ    @D+7,,AUTO
         1 000276   777640 235007                    LDA     -96,DL
         1 000277   200110 452500                    STP2    @D+9,,AUTO
         1 000300   200110 236100                    LDQ     @D+9,,AUTO
         1 000301   000017 036003                    ADLQ    15,DU
         1 000302   200112 757100                    STAQ    @D+11,,AUTO
         1 000303   777640 235007                    LDA     -96,DL
         1 000304   200114 452500                    STP2    @D+13,,AUTO
         1 000305   200114 236100                    LDQ     @D+13,,AUTO
         1 000306   000020 036003                    ADLQ    16,DU
         1 000307   200116 757100                    STAQ    @D+15,,AUTO
PL6.E3A0      #001=DAB$SSFRAME File=DAB$SSFRAME.:E05TSI                          TUE 07/29/97 12:39 Page:27
         1 000310   777640 235007                    LDA     -96,DL
         1 000311   200120 452500                    STP2    @D+17,,AUTO
         1 000312   200120 236100                    LDQ     @D+17,,AUTO
         1 000313   000021 036003                    ADLQ    17,DU
         1 000314   200122 757100                    STAQ    @D+19,,AUTO
         1 000315   777640 235007                    LDA     -96,DL
         1 000316   200124 452500                    STP2    @D+21,,AUTO
         1 000317   200124 236100                    LDQ     @D+21,,AUTO
         1 000320   000023 036003                    ADLQ    19,DU
         1 000321   200130 757100                    STAQ    @D+25,,AUTO
         1 000322   200102 237100                    LDAQ    @D+3,,AUTO
         1 000323   200126 757100                    STAQ    @D+23,,AUTO
         1 000324   200106 237100                    LDAQ    @D+7,,AUTO
         1 000325   200132 757100                    STAQ    @D+27,,AUTO
         1 000326   200112 237100                    LDAQ    @D+11,,AUTO
         1 000327   200134 757100                    STAQ    @D+29,,AUTO
         1 000330   200116 237100                    LDAQ    @D+15,,AUTO
         1 000331   200136 757100                    STAQ    @D+31,,AUTO
         1 000332   200122 237100                    LDAQ    @D+19,,AUTO
         1 000333   200140 757100                    STAQ    @D+33,,AUTO
         1 000334   200130 237100                    LDAQ    @D+25,,AUTO
         1 000335   200142 757100                    STAQ    @D+35,,AUTO
         1 000336   200142 631500                    EPPR1   @D+35,,AUTO
         1 000337   200152 451500                    STP1    @D+43,,AUTO
         1 000340   200140 633500                    EPPR3   @D+33,,AUTO
         1 000341   200151 453500                    STP3    @D+42,,AUTO
         1 000342   200136 634500                    EPPR4   @D+31,,AUTO
         1 000343   200150 454500                    STP4    @D+41,,AUTO
         1 000344   200134 635500                    EPPR5   @D+29,,AUTO
         1 000345   200147 455500                    STP5    @D+40,,AUTO
         1 000346   200132 636500                    EPPR6   @D+27,,AUTO
         1 000347   200146 456500                    STP6    @D+39,,AUTO
         1 000350   200126 637500                    EPPR7   @D+23,,AUTO
         1 000351   200145 457500                    STP7    @D+38,,AUTO
         1 000352   000020 236000 2                  LDQ     16
         1 000353   200144 756100                    STQ     @D+37,,AUTO
         1 000354   200144 630500                    EPPR0   @D+37,,AUTO
PL6.E3A0      #001=DAB$SSFRAME File=DAB$SSFRAME.:E05TSI                          TUE 07/29/97 12:39 Page:28
         1 000355   000000 220000 xsym               LDX0    DAF$WRITE
         1 000356   000025 631400 xsym               EPPR1   B_VECTNIL+21
         1 000357   000000 701010                    TSX1    0,X0
         1 000360   000000 011000                    NOP     0

      196     4107    1                          VECTOR(CP),
      197     4108    1                          VECTOR(SCR),
      198     4109    1                          VECTOR(ISSID),
      199     4110    1                          VECTOR(DSAR),
      200     4111    1                          VECTOR(EWSQ),
      201     4112    1                          VECTOR(VAW));
      202     4113    1           CALL CONCAT(FORMAT,' ISR: ',DESCFMT);

   4113  1 000361   040100 100400                    MLR     fill='040'O
         1 000362   000417 000006 0                  ADSC9   BLANKLINE+137            cn=0,n=6
         1 000363   200042 000006                    ADSC9   FORMAT,,AUTO             cn=0,n=6
         1 000364   040100 100400                    MLR     fill='040'O
         1 000365   000006 000043 0                  ADSC9   DESCFMT                  cn=0,n=35
         1 000366   200043 400112                    ADSC9   FORMAT+1,,AUTO           cn=2,n=74

      203     4114    1           FMTS=6+SIZEC(DESCFMT);

   4114  1 000367   000051 235007                    LDA     41,DL
         1 000370   200067 755100                    STA     FMTS,,AUTO

      204     4115    1           CALL RIPDESC(FRAME.ISR);

   4115  1 000371   200003 236100                    LDQ     @FRAME,,AUTO
         1 000372   000010 036003                    ADLQ    8,DU
         1 000373   200077 756100                    STQ     TABDFLT+3,,AUTO
         1 000374   001234 701000 1                  TSX1    RIPDESC
         1 000375   000000 011000                    NOP     0

      205     4116    1           CALL DAF$WRITE(VECTOR(FMT),VECTOR(DESCRIPTOR));

   4116  1 000376   200067 235100                    LDA     FMTS,,AUTO
         1 000377   000020 735000                    ALS     16
PL6.E3A0      #001=DAB$SSFRAME File=DAB$SSFRAME.:E05TSI                          TUE 07/29/97 12:39 Page:29
         1 000400   000140 135007                    SBLA    96,DL
         1 000401   200066 236100                    LDQ     FMT$,,AUTO
         1 000402   200100 757100                    STAQ    @D+1,,AUTO
         1 000403   000021 235000 2                  LDA     17
         1 000404   200102 452500                    STP2    @D+3,,AUTO
         1 000405   200102 236100                    LDQ     @D+3,,AUTO
         1 000406   000032 036003                    ADLQ    26,DU
         1 000407   200106 757100                    STAQ    @D+7,,AUTO
         1 000410   200100 237100                    LDAQ    @D+1,,AUTO
         1 000411   200104 757100                    STAQ    @D+5,,AUTO
         1 000412   200106 237100                    LDAQ    @D+7,,AUTO
         1 000413   200110 757100                    STAQ    @D+9,,AUTO
         1 000414   200110 630500                    EPPR0   @D+9,,AUTO
         1 000415   200113 450500                    STP0    @D+12,,AUTO
         1 000416   200104 631500                    EPPR1   @D+5,,AUTO
         1 000417   200112 451500                    STP1    @D+11,,AUTO
         1 000420   200112 630500                    EPPR0   @D+11,,AUTO
         1 000421   000000 220000 xsym               LDX0    DAF$WRITE
         1 000422   000020 631400 xsym               EPPR1   B_VECTNIL+16
         1 000423   000000 701010                    TSX1    0,X0
         1 000424   000000 011000                    NOP     0

      206     4117    1           CALL INSERT(FORMAT,1,3,'ASR');

   4117  1 000425   000421 236000 0                  LDQ     BLANKLINE+139
         1 000426   000011 772000                    QRL     9
         1 000427   200042 552134                    STBQ    FORMAT,'34'O,AUTO

      207     4118    1           CALL RIPDESC(FRAME.ASR);

   4118  1 000430   200003 236100                    LDQ     @FRAME,,AUTO
         1 000431   000012 036003                    ADLQ    10,DU
         1 000432   200077 756100                    STQ     TABDFLT+3,,AUTO
         1 000433   001234 701000 1                  TSX1    RIPDESC
         1 000434   000000 011000                    NOP     0

      208     4119    1           CALL DAF$WRITE(VECTOR(FMT),VECTOR(DESCRIPTOR));
PL6.E3A0      #001=DAB$SSFRAME File=DAB$SSFRAME.:E05TSI                          TUE 07/29/97 12:39 Page:30

   4119  1 000435   200067 235100                    LDA     FMTS,,AUTO
         1 000436   000020 735000                    ALS     16
         1 000437   000140 135007                    SBLA    96,DL
         1 000440   200066 236100                    LDQ     FMT$,,AUTO
         1 000441   200100 757100                    STAQ    @D+1,,AUTO
         1 000442   000021 235000 2                  LDA     17
         1 000443   200102 452500                    STP2    @D+3,,AUTO
         1 000444   200102 236100                    LDQ     @D+3,,AUTO
         1 000445   000032 036003                    ADLQ    26,DU
         1 000446   200106 757100                    STAQ    @D+7,,AUTO
         1 000447   200100 237100                    LDAQ    @D+1,,AUTO
         1 000450   200104 757100                    STAQ    @D+5,,AUTO
         1 000451   200106 237100                    LDAQ    @D+7,,AUTO
         1 000452   200110 757100                    STAQ    @D+9,,AUTO
         1 000453   200110 630500                    EPPR0   @D+9,,AUTO
         1 000454   200113 450500                    STP0    @D+12,,AUTO
         1 000455   200104 631500                    EPPR1   @D+5,,AUTO
         1 000456   200112 451500                    STP1    @D+11,,AUTO
         1 000457   200112 630500                    EPPR0   @D+11,,AUTO
         1 000460   000000 220000 xsym               LDX0    DAF$WRITE
         1 000461   000020 631400 xsym               EPPR1   B_VECTNIL+16
         1 000462   000000 701010                    TSX1    0,X0
         1 000463   000000 011000                    NOP     0

      209     4120    1           CALL INSERT(FORMAT,1,3,'LSR');

   4120  1 000464   000422 236000 0                  LDQ     BLANKLINE+140
         1 000465   000011 772000                    QRL     9
         1 000466   200042 552134                    STBQ    FORMAT,'34'O,AUTO

      210     4121    1           CALL RIPDESC(FRAME.LSR);

   4121  1 000467   200003 236100                    LDQ     @FRAME,,AUTO
         1 000470   000014 036003                    ADLQ    12,DU
         1 000471   200077 756100                    STQ     TABDFLT+3,,AUTO
         1 000472   001234 701000 1                  TSX1    RIPDESC
PL6.E3A0      #001=DAB$SSFRAME File=DAB$SSFRAME.:E05TSI                          TUE 07/29/97 12:39 Page:31
         1 000473   000000 011000                    NOP     0

      211     4122    1           CALL DAF$WRITE(VECTOR(FMT),VECTOR(DESCRIPTOR));

   4122  1 000474   200067 235100                    LDA     FMTS,,AUTO
         1 000475   000020 735000                    ALS     16
         1 000476   000140 135007                    SBLA    96,DL
         1 000477   200066 236100                    LDQ     FMT$,,AUTO
         1 000500   200100 757100                    STAQ    @D+1,,AUTO
         1 000501   000021 235000 2                  LDA     17
         1 000502   200102 452500                    STP2    @D+3,,AUTO
         1 000503   200102 236100                    LDQ     @D+3,,AUTO
         1 000504   000032 036003                    ADLQ    26,DU
         1 000505   200106 757100                    STAQ    @D+7,,AUTO
         1 000506   200100 237100                    LDAQ    @D+1,,AUTO
         1 000507   200104 757100                    STAQ    @D+5,,AUTO
         1 000510   200106 237100                    LDAQ    @D+7,,AUTO
         1 000511   200110 757100                    STAQ    @D+9,,AUTO
         1 000512   200110 630500                    EPPR0   @D+9,,AUTO
         1 000513   200113 450500                    STP0    @D+12,,AUTO
         1 000514   200104 631500                    EPPR1   @D+5,,AUTO
         1 000515   200112 451500                    STP1    @D+11,,AUTO
         1 000516   200112 630500                    EPPR0   @D+11,,AUTO
         1 000517   000000 220000 xsym               LDX0    DAF$WRITE
         1 000520   000020 631400 xsym               EPPR1   B_VECTNIL+16
         1 000521   000000 701010                    TSX1    0,X0
         1 000522   000000 011000                    NOP     0

      212     4123    1           CALL INSERT(FORMAT,1,3,'PSR');

   4123  1 000523   000423 236000 0                  LDQ     BLANKLINE+141
         1 000524   000011 772000                    QRL     9
         1 000525   200042 552134                    STBQ    FORMAT,'34'O,AUTO

      213     4124    1           CALL RIPDESC(FRAME.PSR);

   4124  1 000526   200003 236100                    LDQ     @FRAME,,AUTO
PL6.E3A0      #001=DAB$SSFRAME File=DAB$SSFRAME.:E05TSI                          TUE 07/29/97 12:39 Page:32
         1 000527   000016 036003                    ADLQ    14,DU
         1 000530   200077 756100                    STQ     TABDFLT+3,,AUTO
         1 000531   001234 701000 1                  TSX1    RIPDESC
         1 000532   000000 011000                    NOP     0

      214     4125    1           CALL INSERT(FORMAT,FMTS,2,'%/');

   4125  1 000533   200067 235100                    LDA     FMTS,,AUTO
         1 000534   040105 100400                    MLR     fill='040'O
         1 000535   000424 000002 0                  ADSC9   BLANKLINE+142            cn=0,n=2
         1 000536   200042 000002                    ADSC9   FORMAT,A,AUTO            cn=0,n=2

      215     4126    1           FMTS=FMTS+2;

   4126  1 000537   000002 236007                    LDQ     2,DL
         1 000540   200067 056100                    ASQ     FMTS,,AUTO

      216     4127    1           CALL DAF$WRITE(VECTOR(FMT),VECTOR(DESCRIPTOR));

   4127  1 000541   200067 235100                    LDA     FMTS,,AUTO
         1 000542   000020 735000                    ALS     16
         1 000543   000140 135007                    SBLA    96,DL
         1 000544   200066 236100                    LDQ     FMT$,,AUTO
         1 000545   200100 757100                    STAQ    @D+1,,AUTO
         1 000546   000021 235000 2                  LDA     17
         1 000547   200102 452500                    STP2    @D+3,,AUTO
         1 000550   200102 236100                    LDQ     @D+3,,AUTO
         1 000551   000032 036003                    ADLQ    26,DU
         1 000552   200106 757100                    STAQ    @D+7,,AUTO
         1 000553   200100 237100                    LDAQ    @D+1,,AUTO
         1 000554   200104 757100                    STAQ    @D+5,,AUTO
         1 000555   200106 237100                    LDAQ    @D+7,,AUTO
         1 000556   200110 757100                    STAQ    @D+9,,AUTO
         1 000557   200110 630500                    EPPR0   @D+9,,AUTO
         1 000560   200113 450500                    STP0    @D+12,,AUTO
         1 000561   200104 631500                    EPPR1   @D+5,,AUTO
         1 000562   200112 451500                    STP1    @D+11,,AUTO
PL6.E3A0      #001=DAB$SSFRAME File=DAB$SSFRAME.:E05TSI                          TUE 07/29/97 12:39 Page:33
         1 000563   200112 630500                    EPPR0   @D+11,,AUTO
         1 000564   000000 220000 xsym               LDX0    DAF$WRITE
         1 000565   000020 631400 xsym               EPPR1   B_VECTNIL+16
         1 000566   000000 701010                    TSX1    0,X0
         1 000567   000000 011000                    NOP     0

      217     4128    1           CALL CONCAT(FORMAT,' PR%D: ',PTRFMT,'%27-DR%D: ',DESCFMT);

   4128  1 000570   040100 100400                    MLR     fill='040'O
         1 000571   000425 000007 0                  ADSC9   BLANKLINE+143            cn=0,n=7
         1 000572   200042 000007                    ADSC9   FORMAT,,AUTO             cn=0,n=7
         1 000573   040100 100400                    MLR     fill='040'O
         1 000574   000002 000016 0                  ADSC9   PTRFMT                   cn=0,n=14
         1 000575   200043 600016                    ADSC9   FORMAT+1,,AUTO           cn=3,n=14
         1 000576   040100 100400                    MLR     fill='040'O
         1 000577   000427 000012 0                  ADSC9   BLANKLINE+145            cn=0,n=10
         1 000600   200047 200012                    ADSC9   FORMAT+5,,AUTO           cn=1,n=10
         1 000601   040100 100400                    MLR     fill='040'O
         1 000602   000006 000043 0                  ADSC9   DESCFMT                  cn=0,n=35
         1 000603   200051 600061                    ADSC9   FORMAT+7,,AUTO           cn=3,n=49

      218     4129    1           FMTS=17+SIZEC(PTRFMT)+SIZEC(DESCFMT);

   4129  1 000604   000102 235007                    LDA     66,DL
         1 000605   200067 755100                    STA     FMTS,,AUTO

      219     4130    2           DO I=0 TO 7;

   4130  1 000606   200072 450100                    STZ     I,,AUTO

      220     4131    2              CALL RIPPTR(FRAME.PR(I));

   4131  1 000607   200072 236100                    LDQ     I,,AUTO
         1 000610   000022 736000                    QLS     18
         1 000611   000020 036003                    ADLQ    16,DU
         1 000612   200003 036100                    ADLQ    @FRAME,,AUTO
         1 000613   200077 756100                    STQ     TABDFLT+3,,AUTO
PL6.E3A0      #001=DAB$SSFRAME File=DAB$SSFRAME.:E05TSI                          TUE 07/29/97 12:39 Page:34
         1 000614   001166 701000 1                  TSX1    RIPPTR
         1 000615   000000 011000                    NOP     0

      221     4132    2              CALL RIPDESC(FRAME.DR(I));

   4132  1 000616   200072 236100                    LDQ     I,,AUTO
         1 000617   000023 736000                    QLS     19
         1 000620   000030 036003                    ADLQ    24,DU
         1 000621   200003 036100                    ADLQ    @FRAME,,AUTO
         1 000622   200077 756100                    STQ     TABDFLT+3,,AUTO
         1 000623   001234 701000 1                  TSX1    RIPDESC
         1 000624   000000 011000                    NOP     0

      222     4133    2              CALL DAF$WRITE(VECTOR(FMT),

   4133  1 000625   200067 235100                    LDA     FMTS,,AUTO
         1 000626   000020 735000                    ALS     16
         1 000627   000140 135007                    SBLA    96,DL
         1 000630   200066 236100                    LDQ     FMT$,,AUTO
         1 000631   200100 757100                    STAQ    @D+1,,AUTO
         1 000632   777640 235007                    LDA     -96,DL
         1 000633   200102 452500                    STP2    @D+3,,AUTO
         1 000634   200102 236100                    LDQ     @D+3,,AUTO
         1 000635   000072 036003                    ADLQ    58,DU
         1 000636   200104 757100                    STAQ    @D+5,,AUTO
         1 000637   000022 235000 2                  LDA     18
         1 000640   200106 452500                    STP2    @D+7,,AUTO
         1 000641   200106 236100                    LDQ     @D+7,,AUTO
         1 000642   000025 036003                    ADLQ    21,DU
         1 000643   200110 757100                    STAQ    @D+9,,AUTO
         1 000644   777640 235007                    LDA     -96,DL
         1 000645   200112 452500                    STP2    @D+11,,AUTO
         1 000646   200112 236100                    LDQ     @D+11,,AUTO
         1 000647   000072 036003                    ADLQ    58,DU
         1 000650   200114 757100                    STAQ    @D+13,,AUTO
         1 000651   000021 235000 2                  LDA     17
         1 000652   200116 452500                    STP2    @D+15,,AUTO
PL6.E3A0      #001=DAB$SSFRAME File=DAB$SSFRAME.:E05TSI                          TUE 07/29/97 12:39 Page:35
         1 000653   200116 236100                    LDQ     @D+15,,AUTO
         1 000654   000032 036003                    ADLQ    26,DU
         1 000655   200122 757100                    STAQ    @D+19,,AUTO
         1 000656   200100 237100                    LDAQ    @D+1,,AUTO
         1 000657   200120 757100                    STAQ    @D+17,,AUTO
         1 000660   200104 237100                    LDAQ    @D+5,,AUTO
         1 000661   200124 757100                    STAQ    @D+21,,AUTO
         1 000662   200110 237100                    LDAQ    @D+9,,AUTO
         1 000663   200126 757100                    STAQ    @D+23,,AUTO
         1 000664   200114 237100                    LDAQ    @D+13,,AUTO
         1 000665   200130 757100                    STAQ    @D+25,,AUTO
         1 000666   200122 237100                    LDAQ    @D+19,,AUTO
         1 000667   200132 757100                    STAQ    @D+27,,AUTO
         1 000670   200132 630500                    EPPR0   @D+27,,AUTO
         1 000671   200140 450500                    STP0    @D+33,,AUTO
         1 000672   200130 631500                    EPPR1   @D+25,,AUTO
         1 000673   200137 451500                    STP1    @D+32,,AUTO
         1 000674   200126 633500                    EPPR3   @D+23,,AUTO
         1 000675   200136 453500                    STP3    @D+31,,AUTO
         1 000676   200124 634500                    EPPR4   @D+21,,AUTO
         1 000677   200135 454500                    STP4    @D+30,,AUTO
         1 000700   200120 635500                    EPPR5   @D+17,,AUTO
         1 000701   200134 455500                    STP5    @D+29,,AUTO
         1 000702   200134 630500                    EPPR0   @D+29,,AUTO
         1 000703   000000 220000 xsym               LDX0    DAF$WRITE
         1 000704   000023 631400 xsym               EPPR1   B_VECTNIL+19
         1 000705   000000 701010                    TSX1    0,X0
         1 000706   000000 011000                    NOP     0

      223     4134    2                             VECTOR(I),
      224     4135    2                             VECTOR(POINTER),
      225     4136    2                             VECTOR(I),
      226     4137    2                             VECTOR(DESCRIPTOR));
      227     4138    2              END;

   4138  1 000707   200072 054100                    AOS     I,,AUTO
         1 000710   200072 235100                    LDA     I,,AUTO
PL6.E3A0      #001=DAB$SSFRAME File=DAB$SSFRAME.:E05TSI                          TUE 07/29/97 12:39 Page:36
         1 000711   000007 115007                    CMPA    7,DL
         1 000712   000607 604400 1                  TMOZ    s:4131

      228     4139    1           CALL DAF$WRITE(VECTOR(BLANKLINE));

   4139  1 000713   000023 630400 2                  EPPR0   19
         1 000714   000000 220000 xsym               LDX0    DAF$WRITE
         1 000715   000017 631400 xsym               EPPR1   B_VECTNIL+15
         1 000716   000000 701010                    TSX1    0,X0
         1 000717   000000 011000                    NOP     0

      229     4140    1           CALL DAF$WRITE(VECTOR(XREGFMT),

   4140  1 000720   000002 235000 2                  LDA     2
         1 000721   200003 236100                    LDQ     @FRAME,,AUTO
         1 000722   000050 036003                    ADLQ    40,DU
         1 000723   200100 757100                    STAQ    @D+1,,AUTO
         1 000724   200100 630500                    EPPR0   @D+1,,AUTO
         1 000725   200103 450500                    STP0    @D+4,,AUTO
         1 000726   000030 236000 2                  LDQ     24
         1 000727   200102 756100                    STQ     @D+3,,AUTO
         1 000730   200102 630500                    EPPR0   @D+3,,AUTO
         1 000731   000000 220000 xsym               LDX0    DAF$WRITE
         1 000732   000020 631400 xsym               EPPR1   B_VECTNIL+16
         1 000733   000000 701010                    TSX1    0,X0
         1 000734   000000 011000                    NOP     0

      230     4141    1                          VECTOR(FRAME.XREG));
      231     4142    2           IF ADDR(FRAME.ISR)->DESC.TYPE0.WSR=%MONWSR THEN DO;

   4142  1 000735   200003 470500                    LDP0    @FRAME,,AUTO
         1 000736   000010 236100                    LDQ     8,,PR0
         1 000737   000160 316007                    CANQ    112,DL
         1 000740   001064 601000 1                  TNZ     s:4156

      232     4143    3              DO I=0 TO 7;

PL6.E3A0      #001=DAB$SSFRAME File=DAB$SSFRAME.:E05TSI                          TUE 07/29/97 12:39 Page:37
   4143  1 000741   200072 450100                    STZ     I,,AUTO

      233     4144    3                 IC=FRAME.XREG(I);

   4144  1 000742   200072 235100                    LDA     I,,AUTO
         1 000743   000001 735000                    ALS     1
         1 000744   200003 470500                    LDP0    @FRAME,,AUTO
         1 000745   000100 101505                    MRL     fill='000'O
         1 000746   000050 000002                    ADSC9   40,A,PR0                 cn=0,n=2
         1 000747   200010 000004                    ADSC9   IC,,AUTO                 cn=0,n=4

      234     4145    3                 CALL DAS$IC2PED(IC,EDEF$) ALTRET(NXT_XREG);

   4145  1 000750   200004 631500                    EPPR1   EDEF$,,AUTO
         1 000751   200101 451500                    STP1    @D+2,,AUTO
         1 000752   200010 633500                    EPPR3   IC,,AUTO
         1 000753   200100 453500                    STP3    @D+1,,AUTO
         1 000754   200100 630500                    EPPR0   @D+1,,AUTO
         1 000755   000020 631400 xsym               EPPR1   B_VECTNIL+16
         1 000756   000000 701000 xent               TSX1    DAS$IC2PED
         1 000757   001053 702000 1                  TSX2    NXT_XREG

      235     4146    3                 IC=IC-B$EDEF.ISADDR;

   4146  1 000760   200004 470500                    LDP0    EDEF$,,AUTO
         1 000761   000000 236100                    LDQ     0,,PR0
         1 000762   000032 376000 xsym               ANQ     B_VECTNIL+26
         1 000763   200100 756100                    STQ     @D+1,,AUTO
         1 000764   200010 236100                    LDQ     IC,,AUTO
         1 000765   200100 136100                    SBLQ    @D+1,,AUTO
         1 000766   200010 756100                    STQ     IC,,AUTO

      236     4147    3                 TH$=PINCRW(DA_DNAME$,B$EDEF.NPOINTER);

   4147  1 000767   000001 220100                    LDX0    1,,PR0
         1 000770   000000 636010                    EAQ     0,X0
         1 000771   000000 036000 xsym               ADLQ    DA_DNAME$
PL6.E3A0      #001=DAB$SSFRAME File=DAB$SSFRAME.:E05TSI                          TUE 07/29/97 12:39 Page:38
         1 000772   200005 756100                    STQ     TH$,,AUTO

      237     4148    3                 IF TEXTH.C='XUP$PARSE' THEN GOTO NXT_XREG;

   4148  1 000773   200005 471500                    LDP1    TH$,,AUTO
         1 000774   000100 100500                    MLR     fill='000'O
         1 000775   100000 000002                    ADSC9   0,,PR1                   cn=0,n=2
         1 000776   200100 000004                    ADSC9   @D+1,,AUTO               cn=0,n=4
         1 000777   200100 220100                    LDX0    @D+1,,AUTO
         1 001000   040000 106540                    CMPC    fill='040'O
         1 001001   100000 400010                    ADSC9   0,,PR1                   cn=2,n=*X0
         1 001002   000432 000011 0                  ADSC9   BLANKLINE+148            cn=0,n=9
         1 001003   001053 600000 1                  TZE     NXT_XREG

      238     4149    3                 CALL DAF$WRITE(VECTOR(RXFMT),

   4149  1 001004   777640 235007                    LDA     -96,DL
         1 001005   200100 452500                    STP2    @D+1,,AUTO
         1 001006   200100 236100                    LDQ     @D+1,,AUTO
         1 001007   000072 036003                    ADLQ    58,DU
         1 001010   000100 100500                    MLR     fill='000'O
         1 001011   100000 000002                    ADSC9   0,,PR1                   cn=0,n=2
         1 001012   200101 000004                    ADSC9   @D+2,,AUTO               cn=0,n=4
         1 001013   200101 220100                    LDX0    @D+2,,AUTO
         1 001014   200102 757100                    STAQ    @D+3,,AUTO
         1 001015   000000 635010                    EAA     0,X0
         1 001016   000002 771000                    ARL     2
         1 001017   000140 135007                    SBLA    96,DL
         1 001020   200005 236100                    LDQ     TH$,,AUTO
         1 001021   400000 036007                    ADLQ    -131072,DL
         1 001022   200104 757100                    STAQ    @D+5,,AUTO
         1 001023   777640 235007                    LDA     -96,DL
         1 001024   200106 452500                    STP2    @D+7,,AUTO
         1 001025   200106 236100                    LDQ     @D+7,,AUTO
         1 001026   000010 036003                    ADLQ    8,DU
         1 001027   200112 757100                    STAQ    @D+11,,AUTO
         1 001030   200102 237100                    LDAQ    @D+3,,AUTO
PL6.E3A0      #001=DAB$SSFRAME File=DAB$SSFRAME.:E05TSI                          TUE 07/29/97 12:39 Page:39
         1 001031   200110 757100                    STAQ    @D+9,,AUTO
         1 001032   200104 237100                    LDAQ    @D+5,,AUTO
         1 001033   200114 757100                    STAQ    @D+13,,AUTO
         1 001034   200112 237100                    LDAQ    @D+11,,AUTO
         1 001035   200116 757100                    STAQ    @D+15,,AUTO
         1 001036   200116 633500                    EPPR3   @D+15,,AUTO
         1 001037   200123 453500                    STP3    @D+20,,AUTO
         1 001040   200114 634500                    EPPR4   @D+13,,AUTO
         1 001041   200122 454500                    STP4    @D+19,,AUTO
         1 001042   200110 635500                    EPPR5   @D+9,,AUTO
         1 001043   200121 455500                    STP5    @D+18,,AUTO
         1 001044   000034 236000 2                  LDQ     28
         1 001045   200120 756100                    STQ     @D+17,,AUTO
         1 001046   200120 630500                    EPPR0   @D+17,,AUTO
         1 001047   000000 221000 xsym               LDX1    DAF$WRITE
         1 001050   000022 631400 xsym               EPPR1   B_VECTNIL+18
         1 001051   000000 701011                    TSX1    0,X1
         1 001052   000000 011000                    NOP     0

      239     4150    3                                VECTOR(I),
      240     4151    3                                VECTOR(TEXTH.C),
      241     4152    3                                VECTOR(IC));
      242     4153    3   NXT_XREG:     END;

   4153  1 001053   200072 054100       NXT_XREG     AOS     I,,AUTO
         1 001054   200072 235100                    LDA     I,,AUTO
         1 001055   000007 115007                    CMPA    7,DL
         1 001056   000742 604400 1                  TMOZ    s:4144

      243     4154    2              CALL DAF$WRITE(VECTOR(BLANKLINE));

   4154  1 001057   000023 630400 2                  EPPR0   19
         1 001060   000000 220000 xsym               LDX0    DAF$WRITE
         1 001061   000017 631400 xsym               EPPR1   B_VECTNIL+15
         1 001062   000000 701010                    TSX1    0,X0
         1 001063   000000 011000                    NOP     0

PL6.E3A0      #001=DAB$SSFRAME File=DAB$SSFRAME.:E05TSI                          TUE 07/29/97 12:39 Page:40
      244     4155    2              END;

      245     4156    1           EREG=FRAME.EREG;

   4156  1 001064   200003 470500                    LDP0    @FRAME,,AUTO
         1 001065   000056 236100                    LDQ     46,,PR0
         1 001066   000034 772000                    QRL     28
         1 001067   200022 756100                    STQ     EREG,,AUTO

      246     4157    1           CALL DAF$WRITE(VECTOR(AREGFMT),

   4157  1 001070   777640 235007                    LDA     -96,DL
         1 001071   200003 236100                    LDQ     @FRAME,,AUTO
         1 001072   000054 036003                    ADLQ    44,DU
         1 001073   200100 757100                    STAQ    @D+1,,AUTO
         1 001074   777640 235007                    LDA     -96,DL
         1 001075   200003 236100                    LDQ     @FRAME,,AUTO
         1 001076   000055 036003                    ADLQ    45,DU
         1 001077   200102 757100                    STAQ    @D+3,,AUTO
         1 001100   777640 235007                    LDA     -96,DL
         1 001101   200104 452500                    STP2    @D+5,,AUTO
         1 001102   200104 236100                    LDQ     @D+5,,AUTO
         1 001103   000022 036003                    ADLQ    18,DU
         1 001104   200106 757100                    STAQ    @D+7,,AUTO
         1 001105   777640 235007                    LDA     -96,DL
         1 001106   200003 236100                    LDQ     @FRAME,,AUTO
         1 001107   000057 036003                    ADLQ    47,DU
         1 001110   200112 757100                    STAQ    @D+11,,AUTO
         1 001111   200100 237100                    LDAQ    @D+1,,AUTO
         1 001112   200110 757100                    STAQ    @D+9,,AUTO
         1 001113   200102 237100                    LDAQ    @D+3,,AUTO
         1 001114   200114 757100                    STAQ    @D+13,,AUTO
         1 001115   200106 237100                    LDAQ    @D+7,,AUTO
         1 001116   200116 757100                    STAQ    @D+15,,AUTO
         1 001117   200112 237100                    LDAQ    @D+11,,AUTO
         1 001120   200120 757100                    STAQ    @D+17,,AUTO
         1 001121   200120 631500                    EPPR1   @D+17,,AUTO
PL6.E3A0      #001=DAB$SSFRAME File=DAB$SSFRAME.:E05TSI                          TUE 07/29/97 12:39 Page:41
         1 001122   200126 451500                    STP1    @D+23,,AUTO
         1 001123   200116 633500                    EPPR3   @D+15,,AUTO
         1 001124   200125 453500                    STP3    @D+22,,AUTO
         1 001125   200114 634500                    EPPR4   @D+13,,AUTO
         1 001126   200124 454500                    STP4    @D+21,,AUTO
         1 001127   200110 635500                    EPPR5   @D+9,,AUTO
         1 001130   200123 455500                    STP5    @D+20,,AUTO
         1 001131   000040 236000 2                  LDQ     32
         1 001132   200122 756100                    STQ     @D+19,,AUTO
         1 001133   200122 630500                    EPPR0   @D+19,,AUTO
         1 001134   000000 220000 xsym               LDX0    DAF$WRITE
         1 001135   000023 631400 xsym               EPPR1   B_VECTNIL+19
         1 001136   000000 701010                    TSX1    0,X0
         1 001137   000000 011000                    NOP     0

      247     4158    1                          VECTOR(FRAME.AREG),
      248     4159    1                          VECTOR(FRAME.QREG),
      249     4160    1                          VECTOR(EREG),
      250     4161    1                          VECTOR(FRAME.TREG));
      251     4162    2           IF BINBIT(IR,18) & '000040'O THEN DO;

   4162  1 001140   200011 236100                    LDQ     IR,,AUTO
         1 001141   000022 736000                    QLS     18
         1 001142   000022 772000                    QRL     18
         1 001143   000000 620006                    EAX0    0,QL
         1 001144   000040 360003                    ANX0    32,DU
         1 001145   001163 600000 1                  TZE     s:4166

      252     4163    2              CALL DAF$WRITE(VECTOR(PLFMT),

   4163  1 001146   000021 235000 2                  LDA     17
         1 001147   200003 236100                    LDQ     @FRAME,,AUTO
         1 001150   000060 036003                    ADLQ    48,DU
         1 001151   200100 757100                    STAQ    @D+1,,AUTO
         1 001152   200100 630500                    EPPR0   @D+1,,AUTO
         1 001153   200103 450500                    STP0    @D+4,,AUTO
         1 001154   000044 236000 2                  LDQ     36
PL6.E3A0      #001=DAB$SSFRAME File=DAB$SSFRAME.:E05TSI                          TUE 07/29/97 12:39 Page:42
         1 001155   200102 756100                    STQ     @D+3,,AUTO
         1 001156   200102 630500                    EPPR0   @D+3,,AUTO
         1 001157   000000 220000 xsym               LDX0    DAF$WRITE
         1 001160   000020 631400 xsym               EPPR1   B_VECTNIL+16
         1 001161   000000 701010                    TSX1    0,X0
         1 001162   000000 011000                    NOP     0

      253     4164    2                             VECTOR(FRAME.PL));
      254     4165    2              END;

      255     4166    1           DA_FDS.TABDFLT#=TABDFLT;

   4166  1 001163   200074 235100                    LDA     TABDFLT,,AUTO
         1 001164   000017 755000 xsym               STA     DA_FDS+15

      256     4167    1           RETURN;

   4167  1 001165   000000 702200 xent               TSX2  ! X66_ARET

      257     4168        %EJECT;
PL6.E3A0      #001=DAB$SSFRAME File=DAB$SSFRAME.:E05TSI                          TUE 07/29/97 12:39 Page:43
      258     4169    1   RIPPTR: PROC(P);

   4169  1 001166   200076 741300       RIPPTR       STX1  ! TABDFLT+2,,AUTO

      259     4170    2   DCL 1 P ALIGNED,
      260     4171    2         2 WA UBIN(18) UNAL,
      261     4172    2         2 CA UBIN(2) UNAL,
      262     4173    2         2 BA UBIN(4) UNAL,
      263     4174    2         2 S UBIN(2) UNAL,
      264     4175    2         2 D UBIN(10) UNAL;
      265     4176    2           POINTER.WA=P.WA;

   4176  1 001167   200077 470500                    LDP0    @P,,AUTO
         1 001170   000000 236100                    LDQ     0,,PR0
         1 001171   000022 772000                    QRL     18
         1 001172   200025 756100                    STQ     POINTER,,AUTO

      266     4177    2           POINTER.CA=P.CA;

   4177  1 001173   000000 236100                    LDQ     0,,PR0
         1 001174   000020 772000                    QRL     16
         1 001175   000003 376007                    ANQ     3,DL
         1 001176   200026 756100                    STQ     POINTER+1,,AUTO

      267     4178    2           POINTER.BA=P.BA;

   4178  1 001177   000000 236100                    LDQ     0,,PR0
         1 001200   000014 772000                    QRL     12
         1 001201   000017 376007                    ANQ     15,DL
         1 001202   200027 756100                    STQ     POINTER+2,,AUTO

      268     4179    3           DO CASE(P.S);

   4179  1 001203   000000 236100                    LDQ     0,,PR0
         1 001204   000012 772000                    QRL     10
         1 001205   000003 376007                    ANQ     3,DL
         1 001206   000004 116007                    CMPQ    4,DL
PL6.E3A0      #001=DAB$SSFRAME File=DAB$SSFRAME.:E05TSI                          TUE 07/29/97 12:39 Page:44
         1 001207   001211 602006 1                  TNC     s:4179+6,QL
         1 001210   001230 710000 1                  TRA     s:4189
         1 001211   001215 710000 1                  TRA     s:4181
         1 001212   001220 710000 1                  TRA     s:4183
         1 001213   001223 710000 1                  TRA     s:4185
         1 001214   001226 710000 1                  TRA     s:4187

      269     4180    3            CASE(0);

      270     4181    3              POINTER.S=',$PS';

   4181  1 001215   000435 236000 0                  LDQ     BLANKLINE+151
         1 001216   200030 756100                    STQ     POINTER+3,,AUTO
         1 001217   001230 710000 1                  TRA     s:4189

      271     4182    3            CASE(1);

      272     4183    3              POINTER.S=',$??';

   4183  1 001220   000436 236000 0                  LDQ     BLANKLINE+152
         1 001221   200030 756100                    STQ     POINTER+3,,AUTO
         1 001222   001230 710000 1                  TRA     s:4189

      273     4184    3            CASE(2);

      274     4185    3              POINTER.S=',$AS';

   4185  1 001223   000437 236000 0                  LDQ     BLANKLINE+153
         1 001224   200030 756100                    STQ     POINTER+3,,AUTO
         1 001225   001230 710000 1                  TRA     s:4189

      275     4186    3            CASE(3);

      276     4187    3              POINTER.S=',$LS';

   4187  1 001226   000440 236000 0                  LDQ     BLANKLINE+154
         1 001227   200030 756100                    STQ     POINTER+3,,AUTO
PL6.E3A0      #001=DAB$SSFRAME File=DAB$SSFRAME.:E05TSI                          TUE 07/29/97 12:39 Page:45

      277     4188    3            END;

      278     4189    2           POINTER.D=P.D;

   4189  1 001230   000000 236100                    LDQ     0,,PR0
         1 001231   001777 376007                    ANQ     1023,DL
         1 001232   200031 756100                    STQ     POINTER+4,,AUTO

      279     4190    2           RETURN;

   4190  1 001233   000001 702211                    TSX2  ! 1,X1

      280     4191    2   END RIPPTR;
      281     4192        %EJECT;
PL6.E3A0      #001=DAB$SSFRAME File=DAB$SSFRAME.:E05TSI                          TUE 07/29/97 12:39 Page:46
      282     4193    1   RIPDESC: PROC(D);

   4193  1 001234   200076 741300       RIPDESC      STX1  ! TABDFLT+2,,AUTO

      283     4194    2   DCL 1 D ALIGNED,
      284     4195    2         2 BOUND,
      285     4196    2           3 WA UBIN(18) UNAL,
      286     4197    2           3 CA UBIN(2) UNAL,
      287     4198    2         2 TYPE0,
      288     4199    2           3 FLG UBIN(9) UNAL,
      289     4200    2           3 WSR UBIN(3) UNAL,
      290     4201    2         2 TYPE2 REDEF TYPE0,
      291     4202    2           3 FLG UBIN(3) UNAL,
      292     4203    2           3 WSQ UBIN(9) UNAL,
      293     4204    2         2 TYPE UBIN(4) UNAL,
      294     4205    2         2 BASE,
      295     4206    2           3 WA UBIN(34) UNAL,
      296     4207    2           3 CA UBIN(2) UNAL;
      297     4208        /**/
      298     4209    2           DESCRIPTOR.BASE.WA=D.BASE.WA;

   4209  1 001235   200077 470500                    LDP0    @D,,AUTO
         1 001236   000001 236100                    LDQ     1,,PR0
         1 001237   000002 772000                    QRL     2
         1 001240   200032 756100                    STQ     DESCRIPTOR,,AUTO

      299     4210    2           DESCRIPTOR.BASE.CA=D.BASE.CA;

   4210  1 001241   000001 236100                    LDQ     1,,PR0
         1 001242   000003 376007                    ANQ     3,DL
         1 001243   200033 756100                    STQ     DESCRIPTOR+1,,AUTO

      300     4211    2           DESCRIPTOR.BOUND.WA=D.BOUND.WA;

   4211  1 001244   000000 236100                    LDQ     0,,PR0
         1 001245   000022 772000                    QRL     18
         1 001246   200034 756100                    STQ     DESCRIPTOR+2,,AUTO
PL6.E3A0      #001=DAB$SSFRAME File=DAB$SSFRAME.:E05TSI                          TUE 07/29/97 12:39 Page:47

      301     4212    2           DESCRIPTOR.BOUND.CA=D.BOUND.CA;

   4212  1 001247   000000 236100                    LDQ     0,,PR0
         1 001250   000020 772000                    QRL     16
         1 001251   000003 376007                    ANQ     3,DL
         1 001252   200035 756100                    STQ     DESCRIPTOR+3,,AUTO

      302     4213    2           DESCRIPTOR.TYPE=D.TYPE;

   4213  1 001253   000000 236100                    LDQ     0,,PR0
         1 001254   000017 376007                    ANQ     15,DL
         1 001255   200041 756100                    STQ     DESCRIPTOR+7,,AUTO

      303     4214    3           DO CASE(DESCRIPTOR.TYPE);

   4214  1 001256   000004 116007                    CMPQ    4,DL
         1 001257   001261 602006 1                  TNC     s:4214+3,QL
         1 001260   001312 710000 1                  TRA     s:4224
         1 001261   001265 710000 1                  TRA     s:4216
         1 001262   001265 710000 1                  TRA     s:4216
         1 001263   001300 710000 1                  TRA     s:4220
         1 001264   001300 710000 1                  TRA     s:4220

      304     4215    3            CASE(0,1);

      305     4216    3              DESCRIPTOR.WS=',WSR';

   4216  1 001265   000441 236000 0                  LDQ     BLANKLINE+155
         1 001266   200036 756100                    STQ     DESCRIPTOR+4,,AUTO

      306     4217    3              DESCRIPTOR.WSV=D.TYPE0.WSR;

   4217  1 001267   000000 236100                    LDQ     0,,PR0
         1 001270   000004 772000                    QRL     4
         1 001271   000007 376007                    ANQ     7,DL
         1 001272   200037 756100                    STQ     DESCRIPTOR+5,,AUTO
PL6.E3A0      #001=DAB$SSFRAME File=DAB$SSFRAME.:E05TSI                          TUE 07/29/97 12:39 Page:48

      307     4218    3              DESCRIPTOR.FLG=D.TYPE0.FLG;

   4218  1 001273   000000 236100                    LDQ     0,,PR0
         1 001274   000007 772000                    QRL     7
         1 001275   000777 376007                    ANQ     511,DL
         1 001276   200040 756100                    STQ     DESCRIPTOR+6,,AUTO
         1 001277   001312 710000 1                  TRA     s:4224

      308     4219    3            CASE(2,3);

      309     4220    3              DESCRIPTOR.WS=',WSQ';

   4220  1 001300   000442 236000 0                  LDQ     BLANKLINE+156
         1 001301   200036 756100                    STQ     DESCRIPTOR+4,,AUTO

      310     4221    3              DESCRIPTOR.WSV=D.TYPE2.WSQ;

   4221  1 001302   000000 236100                    LDQ     0,,PR0
         1 001303   000004 772000                    QRL     4
         1 001304   000777 376007                    ANQ     511,DL
         1 001305   200037 756100                    STQ     DESCRIPTOR+5,,AUTO

      311     4222    3              DESCRIPTOR.FLG=D.TYPE2.FLG;

   4222  1 001306   000000 236100                    LDQ     0,,PR0
         1 001307   000015 772000                    QRL     13
         1 001310   000007 376007                    ANQ     7,DL
         1 001311   200040 756100                    STQ     DESCRIPTOR+6,,AUTO

      312     4223    3            END;

      313     4224    2           RETURN;

   4224  1 001312   000001 702211                    TSX2  ! 1,X1
      314     4225    2   END RIPDESC;
      315     4226    1   END DAB$SSFRAME;
PL6.E3A0      #001=DAB$SSFRAME File=DAB$SSFRAME.:E05TSI                          TUE 07/29/97 12:39 Page:49

PL6.E3A0      #001=DAB$SSFRAME File=DAB$SSFRAME.:E05TSI                          TUE 07/29/97 12:39 Page:50
--  Include file information  --

   XU_FORMAT_C.:E05TOU  is referenced.
   DA_SYMBOLS_R.:E05TOU  cannot be made into a system file and is referenced.
   B_STRINGS_C.:E05TOU  is referenced.
   B$OBJECT_C.:E05TOU  is referenced.
      No diagnostics issued in procedure DAB$SSFRAME.
PL6.E3A0      #001=DAB$SSFRAME File=DAB$SSFRAME.:E05TSI                          TUE 07/29/97 12:39 Page:51

 **** Variables and constants ****

  ****  Section 000 RoData DAB$SSFRAME

  ****  Scalars and arrays  ****
OctLoc.c.b A Datatyp(siz) R M Lvl/name                 OctLoc.c.b A Datatyp(siz) R M Lvl/name

   157-0-0/c CHAR(44)    r     1 AREGFMT                  206-0-0/c CHAR        r     1 BLANKLINE
     6-0-0/c CHAR(35)    r     1 DESCFMT                   66-0-0/c STRC(459)   r     1 ICEDEFFMT
    52-0-0/c STRC(423)   r     1 ICFMT                      0-0-0/c CHAR(3)     r     1 NOYES(0:1)
   172-0-0/c STRC(405)   r     1 PLFMT                      2-0-0/c CHAR(14)    r     1 PTRFMT
   154-0-0/c CHAR(12)    r     1 RXFMT                    103-0-0/c STRC(603)   r     1 VAFMT
    17-0-0/c STRC(972)   r     1 W0FMT                    124-0-0/c STRC(855)   r     1 XREGFMT

  ****  Auto variables  ****

  ****  Scalars and arrays  ****
OctLoc.c.b A Datatyp(siz) R M Lvl/name                 OctLoc.c.b A Datatyp(siz) R M Lvl/name

    77-0-0/w PTR         r     1 @D                         3-0-0/w PTR         r     1 @FRAME
    77-0-0/w PTR         r     1 @P                        14-0-0/w UBIN        r     1 CODE
    15-0-0/w UBIN        r     1 CP                        *0-0-0/w STRC(72)    r     1 D
    32-0-0/w STRC(288)   r     1 DESCRIPTOR                20-0-0/w UBIN        r     1 DSAR
     4-0-0/w PTR         r     1 EDEF$                     22-0-0/w UBIN        r     1 EREG
    21-0-0/w UBIN        r     1 EWSQ                      66-0-0/w PTR         r     1 FMT$
    67-0-0/w SBIN        r     1 FMTS                      70-0-0/b BIT (72)    r     1 FMTV
    42-0-0/c CHAR(80)    r     1 FORMAT                    *0-0-0/w STRC(2304)  r     1 FRAME
    72-0-0/w SBIN        r     1 I                         10-0-0/w SBIN        r     1 IC
    11-0-0/w UBIN        r     1 IR                        17-0-0/w UBIN        r     1 ISSID
    *0-0-0/w STRC        r     1 P                         25-0-0/w STRC(180)   r     1 POINTER
    16-0-0/w UBIN        r     1 SCR                       74-0-0/w SBIN        r     1 TABDFLT
     6-0-0/b BIT (72)    r     1 TEXTHV                     5-0-0/w PTR         r     1 TH$
    12-0-0/c CHAR(8)     r     1 TYPE                      23-0-0/w SBIN        r     1 VAW

  ****  SYMREF variables  ****

  ****  Scalars and arrays  ****
PL6.E3A0      #001=DAB$SSFRAME File=DAB$SSFRAME.:E05TSI                          TUE 07/29/97 12:39 Page:52
OctLoc.c.b A Datatyp(siz) R M Lvl/name                 OctLoc.c.b A Datatyp(siz) R M Lvl/name

     0-0-0/w EPTR        r     1 DAF$WRITE                  0-0-0/w PTR         r     1 DA_DNAME$
     0-0-0/w STRC(1080)  r     1 DA_FDS

  ****  BASED and DCB variables  ****

  ****  Scalars and arrays  ****
OctLoc.c.b A Datatyp(siz) R M Lvl/name                 OctLoc.c.b A Datatyp(siz) R M Lvl/name

     0-0-0/w STRC(72)    r     1 B$EDEF                     0-0-0/w STRC(72)    r     1 DESC
     0-0-0/c ACHR        r     1 FMT                        0-0-0/c ASTR(18)    r     1 TEXTH


   Procedure DAB$SSFRAME requires 715 words for executable code.
   Procedure DAB$SSFRAME requires 108 words of local(AUTO) storage.

    No errors detected in file DAB$SSFRAME.:E05TSI    .
PL6.E3A0      #001=DAB$SSFRAME File=DAB$SSFRAME.:E05TSI                          TUE 07/29/97 12:39 Page:53
          *** CROSS REFERENCE LISTING ***
**     DENOTES     IDENTIFIER DEFINITION
<<                 IDENTIFIER'S VALUE SET
>>                 IDENTIFIER'S VALUE USED
<>                 IDENTIFIER SET AND/OR USED
--                 IDENTIFIER REFERENCED
PL6.E3A0      #001=DAB$SSFRAME File=DAB$SSFRAME.:E05TSI                          TUE 07/29/97 12:39 Page:54
          MINI XREF LISTING

AREGFMT
      4038**DCL      4157--CALL
B$EDEF.ISADDR
      3919**DCL      4075>>ASSIGN   4146>>ASSIGN
B$EDEF.NPOINTER
      3921**DCL      4076>>ASSIGN   4147>>ASSIGN
B$EDEF.OU
      3913**DCL      3919--REDEF
BLANKLINE
      4042**DCL      4139--CALL     4154--CALL
CODE
      3985**DCL      4091<<ASSIGN   4094--CALL
CP
      3986**DCL      4092<<ASSIGN   4106--CALL
D IN PROCEDURE RIPDESC
      4194**DCL      4193--PROC
D.BASE.CA IN PROCEDURE RIPDESC
      4207**DCL      4210>>ASSIGN
D.BASE.WA IN PROCEDURE RIPDESC
      4206**DCL      4209>>ASSIGN
D.BOUND.CA IN PROCEDURE RIPDESC
      4197**DCL      4212>>ASSIGN
D.BOUND.WA IN PROCEDURE RIPDESC
      4196**DCL      4211>>ASSIGN
D.TYPE IN PROCEDURE RIPDESC
      4204**DCL      4213>>ASSIGN
D.TYPE0 IN PROCEDURE RIPDESC
      4198**DCL      4201--REDEF
D.TYPE0.FLG IN PROCEDURE RIPDESC
      4199**DCL      4218>>ASSIGN
D.TYPE0.WSR IN PROCEDURE RIPDESC
      4200**DCL      4217>>ASSIGN
PL6.E3A0      #001=DAB$SSFRAME File=DAB$SSFRAME.:E05TSI                          TUE 07/29/97 12:39 Page:55
D.TYPE2.FLG IN PROCEDURE RIPDESC
      4202**DCL      4222>>ASSIGN
D.TYPE2.WSQ IN PROCEDURE RIPDESC
      4203**DCL      4221>>ASSIGN
DAF$WRITE
        43**DCL      4071>>CALL     4094>>CALL     4106>>CALL     4116>>CALL     4119>>CALL     4122>>CALL
      4127>>CALL     4133>>CALL     4139>>CALL     4140>>CALL     4149>>CALL     4154>>CALL     4157>>CALL
      4163>>CALL
DAS$IC2PED
        44**DCL-ENT  4074--CALL     4145--CALL
DA_DNAME$
      3614**DCL      4076>>ASSIGN   4147>>ASSIGN
DA_FDS.TABDFLT#
      3861**DCL      4068>>ASSIGN   4069<<ASSIGN   4166<<ASSIGN
DA_SYMSEG.P
      3613**DCL      3614--REDEF
DESC.TYPE0
      3970**DCL      3973--REDEF
DESC.TYPE0.WSR
      3972**DCL      4073>>IF       4142>>IF
DESCFMT
      4022**DCL      4113>>CALLBLT  4114--ASSIGN   4128>>CALLBLT  4129--ASSIGN
DESCRIPTOR
      4000**DCL      4116--CALL     4119--CALL     4122--CALL     4127--CALL     4133--CALL
DESCRIPTOR.BASE.CA
      4003**DCL      4210<<ASSIGN
DESCRIPTOR.BASE.WA
      4002**DCL      4209<<ASSIGN
DESCRIPTOR.BOUND.CA
      4006**DCL      4212<<ASSIGN
DESCRIPTOR.BOUND.WA
      4005**DCL      4211<<ASSIGN
DESCRIPTOR.FLG
      4009**DCL      4218<<ASSIGN   4222<<ASSIGN
DESCRIPTOR.TYPE
      4010**DCL      4213<<ASSIGN   4214>>DOCASE
PL6.E3A0      #001=DAB$SSFRAME File=DAB$SSFRAME.:E05TSI                          TUE 07/29/97 12:39 Page:56
DESCRIPTOR.WS
      4007**DCL      4216<<ASSIGN   4220<<ASSIGN
DESCRIPTOR.WSV
      4008**DCL      4217<<ASSIGN   4221<<ASSIGN
DSAR
      3989**DCL      4103<<ASSIGN   4106--CALL
EDEF$
      3966**DCL      3896--IMP-PTR  4074<>CALL     4075>>ASSIGN   4076>>ASSIGN   4145<>CALL     4146>>ASSIGN
      4147>>ASSIGN
EREG
      3991**DCL      4156<<ASSIGN   4157--CALL
EWSQ
      3990**DCL      4104<<ASSIGN   4106--CALL
FMT
      4015**DCL      4116--CALL     4119--CALL     4122--CALL     4127--CALL     4133--CALL
FMT$
      4012**DCL      4015--IMP-PTR  4070<<ASSIGN   4116>>CALL     4119>>CALL     4122>>CALL     4127>>CALL
      4133>>CALL
FMTS
      4013**DCL      4015--IMP-SIZ  4114<<ASSIGN   4116>>CALL     4119>>CALL     4122>>CALL     4125>>CALLBLT
      4126<<ASSIGN   4126>>ASSIGN   4127>>CALL     4129<<ASSIGN   4133>>CALL
FMTV
      4014**DCL      4078<<ASSIGN   4082<<ASSIGN   4094<>CALL
FORMAT
      4011**DCL      4070--ASSIGN   4113<<CALLBLT  4117<<CALLBLT  4120<<CALLBLT  4123<<CALLBLT  4125<<CALLBLT
      4128<<CALLBLT
FRAME
         8**DCL         7--PROC
FRAME.AREG
        35**DCL      4157--CALL
FRAME.ASR
        29**DCL      4118<>CALL
FRAME.CODE
        17**DCL      4091>>ASSIGN
FRAME.CP
        20**DCL      4092>>ASSIGN
PL6.E3A0      #001=DAB$SSFRAME File=DAB$SSFRAME.:E05TSI                          TUE 07/29/97 12:39 Page:57
FRAME.DR
        33**DCL      4132<>CALL
FRAME.DSAR
        23**DCL      4103>>ASSIGN
FRAME.EREG
        37**DCL      4156>>ASSIGN
FRAME.EWSQ
        25**DCL      4104>>ASSIGN
FRAME.FI
        16**DCL      4085>>IF
FRAME.IC
        10**DCL      4072>>ASSIGN
FRAME.IR
        11**DCL        12--REDEF    4084>>ASSIGN
FRAME.ISR
        28**DCL      4073--IF       4115<>CALL     4142--IF
FRAME.ISSID
        22**DCL      4102>>ASSIGN
FRAME.LSR
        30**DCL      4121<>CALL
FRAME.MRT
        14**DCL      4094>>CALL
FRAME.PL
        39**DCL      4163--CALL
FRAME.PR
        32**DCL      4131<>CALL
FRAME.PSR
        31**DCL      4124<>CALL
FRAME.QREG
        36**DCL      4157--CALL
FRAME.SCR
        21**DCL      4093>>ASSIGN
FRAME.SSF
        15**DCL      4094>>CALL
FRAME.TREG
        38**DCL      4157--CALL
PL6.E3A0      #001=DAB$SSFRAME File=DAB$SSFRAME.:E05TSI                          TUE 07/29/97 12:39 Page:58
FRAME.TSTAMP
        41**DCL      4071--CALL
FRAME.VA.W
        27**DCL      4105>>ASSIGN
FRAME.W0
         9**DCL      4071--CALL
FRAME.XREG
        34**DCL      4140--CALL     4144>>ASSIGN
I
      4016**DCL      4130<<DOINDEX  4131>>CALL     4132>>CALL     4133--CALL     4133--CALL     4143<<DOINDEX
      4144>>ASSIGN   4149--CALL
IC
      3982**DCL      4072<<ASSIGN   4074<>CALL     4075<<ASSIGN   4075>>ASSIGN   4094--CALL     4144<<ASSIGN
      4145<>CALL     4146<<ASSIGN   4146>>ASSIGN   4149--CALL
ICEDEFFMT
      4029**DCL      4078--ASSIGN
ICFMT
      4027**DCL      4082--ASSIGN
IR
      3983**DCL      4084<<ASSIGN   4094--CALL     4162>>IF
ISSID
      3988**DCL      4102<<ASSIGN   4106--CALL
NOPED
      4081**LABEL    4074--CALLALT
NOYES
      4018**DCL      4094--CALL     4094--CALL
NXT_XREG
      4153**LABEL    4145--CALLALT  4148--GOTO
P IN PROCEDURE RIPPTR
      4170**DCL      4169--PROC
P.BA IN PROCEDURE RIPPTR
      4173**DCL      4178>>ASSIGN
P.CA IN PROCEDURE RIPPTR
      4172**DCL      4177>>ASSIGN
P.D IN PROCEDURE RIPPTR
      4175**DCL      4189>>ASSIGN
PL6.E3A0      #001=DAB$SSFRAME File=DAB$SSFRAME.:E05TSI                          TUE 07/29/97 12:39 Page:59
P.S IN PROCEDURE RIPPTR
      4174**DCL      4179>>DOCASE
P.WA IN PROCEDURE RIPPTR
      4171**DCL      4176>>ASSIGN
PLFMT
      4039**DCL      4163--CALL
POINTER
      3994**DCL      4133--CALL
POINTER.BA
      3997**DCL      4178<<ASSIGN
POINTER.CA
      3996**DCL      4177<<ASSIGN
POINTER.D
      3999**DCL      4189<<ASSIGN
POINTER.S
      3998**DCL      4181<<ASSIGN   4183<<ASSIGN   4185<<ASSIGN   4187<<ASSIGN
POINTER.WA
      3995**DCL      4176<<ASSIGN
PTRFMT
      4021**DCL      4128>>CALLBLT  4129--ASSIGN
RIPDESC
      4193**PROC     4115--CALL     4118--CALL     4121--CALL     4124--CALL     4132--CALL
RIPPTR
      4169**PROC     4131--CALL
RXFMT
      4037**DCL      4149--CALL
SCR
      3987**DCL      4093<<ASSIGN   4106--CALL
TABDFLT
      4019**DCL      4068<<ASSIGN   4166>>ASSIGN
TEXTH
      3977**DCL      4077--ASSIGN
TEXTH.C
      3979**DCL      4148>>IF       4149--CALL
TEXTH.L
      3978**DCL      3979--IMP-SIZ  4077>>ASSIGN   4148>>IF       4149>>CALL
PL6.E3A0      #001=DAB$SSFRAME File=DAB$SSFRAME.:E05TSI                          TUE 07/29/97 12:39 Page:60
TEXTHV
      3981**DCL      4077<<ASSIGN   4081<<ASSIGN   4094<>CALL
TH$
      3980**DCL      3977--IMP-PTR  4076<<ASSIGN   4077>>ASSIGN   4077>>ASSIGN   4147<<ASSIGN   4148>>IF
      4148>>IF       4149>>CALL     4149>>CALL
TYPE
      3984**DCL      4086<<ASSIGN   4089<<ASSIGN   4094--CALL
VAFMT
      4031**DCL      4106--CALL
VAW
      3992**DCL      4105<<ASSIGN   4106--CALL
W0FMT
      4023**DCL      4071--CALL
XREGFMT
      4033**DCL      4140--CALL
