VERSION E05

PL6.E3A0      #001=DAD$CGLOG File=DAD$CGLOG.:E05TSI                              TUE 07/29/97 12:40 Page:1
        1        1        /*M* DAD$CGLOG - Dump the comgroup log for ANLZ */
        2        2        /*T***********************************************************/
        3        3        /*T*                                                         */
        4        4        /*T* Copyright (c) Bull HN Information Systems Inc., 1997    */
        5        5        /*T*                                                         */
        6        6        /*T***********************************************************/
        7        7        /*X* */
        8        8
        9        9
       10       10        DAD$CGLOG: PROC;
       11       11
       12       12
       13       13        /**/
       14       14        /* Include Files */
       15       15        /**/
       16       16        %INCLUDE B$OBJECT_C;
       17     3446        %INCLUDE DA_FORMAT_C;
       18     3688        %INCLUDE DA_MAP_R;
       19     3718        %INCLUDE DA_SYMBOLS_R;
       20     3731        %INCLUDE DA_TEXTC_C;
       21     3762        %INCLUDE DA_MONSYM_C;
       22     3813        %INCLUDE KQ_MAC_C;
       23     6363        %INCLUDE KQ_SUBS_C;
       24     6663        /**/
       25     6664        /* EQUs */
       26     6665        /**/
       27     6666        %EQU ENTTAB_MAX=11;
       28     6667        %EQU DLTTAB_MAX=4;
       29     6668
       30     6669
       31     6670        /**/
       32     6671        /* External Routines */
       33     6672        /**/
       34     6673    1   DCL DAF$INIT ENTRY(1) ALTRET;
       35     6674    1   DCL DAF$WRITE EPTR SYMREF;
       36     6675    1   DCL DAM$MAP ENTRY(5) ALTRET;
       37     6676    1   DCL DAS$IC2PED ENTRY(2) ALTRET;
PL6.E3A0      #001=DAD$CGLOG File=DAD$CGLOG.:E05TSI                              TUE 07/29/97 12:40 Page:2
       38     6677    1   DCL DAS$SDMONPTR ENTRY(2) ALTRET;
       39     6678
       40     6679
       41     6680        /**/
       42     6681        /* Local Auto */
       43     6682        /**/
       44     6683    1   DCL HDLOG$ PTR;
       45     6684    1   DCL CURLOG$ PTR;
       46     6685    1   DCL BEGINX UBIN;
       47     6686    1   DCL LOG$ PTR;
       48     6687    1   DCL CURX UBIN;
       49     6688    1   DCL SIZ UBIN;
       50     6689    1   DCL FLG BIT(1);
       51     6690    1   DCL I UBIN;
       52     6691        %KQ_LOGENT (STCLASS=);
       53     6733    1   DCL FMTVEC BIT(72);
       54     6734    1   DCL TYPVEC BIT(72);
       55     6735    1   DCL HW1VEC BIT(72);
       56     6736
       57     6737
       58     6738        /**/
       59     6739        /* Static */
       60     6740        /**/
       61     6741    1   DCL EXP_ADR BIT(1) STATIC INIT('1'B);
       62     6742    1   DCL 1 ENTNAMES(0:1) STATIC,
       63     6743    1         2 TXTC,
       64     6744    1           3 LEN UBIN(9) UNAL,
       65     6745    1           3 TXT CHAR(19),
       66     6746    1         2 FLGP UBIN,
       67     6747    1         2 FLGN UBIN,
       68     6748    1         2 OFFSET UBIN;
       69     6749
       70     6750
       71     6751        /**/
       72     6752        /* Based Structures */
       73     6753        /**/
       74     6754        %B$EDEF;
PL6.E3A0      #001=DAD$CGLOG File=DAD$CGLOG.:E05TSI                              TUE 07/29/97 12:40 Page:3
       75     6824        %KQ_LOGENT (FPTN=KQ$LOGENT,STCLASS=BASED);
       76     6866        %KQ_LOGHDR (FPTN=KQ$LOGHDR,STCLASS="BASED(LOG$)");
       77     6887    1   DCL PTR$ PTR BASED ALIGNED;
       78     6888
       79     6889
       80     6890        /**/
       81     6891        /* Constant */
       82     6892        /**/
       83     6893        %LIST;
       84     6894        %SET LISTMAC='1'B;
       85     6895        %REPORT (TITLE='COMGROUP LOG',NAME=CGLRPT,
       86     6896                 TABDFLT=5,
       87     6897                 TRUNC=YES,
       88     6898                 HEADER=YES);
              6899        %SET HDRNUM=0;
              6900        %SET FTRNUM=0;
              6901        %SET TXTNUM=0;
              6902        %SET RPTNAME=%TEXTCHAR(NAME);
              6903        %LSET LISTDIR='0'B;
              6915    1   DCL 1 CGLRPT STATIC ALIGNED,
              6916    1         2 PAGELEN,
              6922    1           3 I BIT(1) UNAL INIT('0'B)/**/,
              6923    1           3 N UBIN(17) UNAL INIT(0)/**/,
              6924    1         2 PAGEWID,
              6930    1           3 I BIT(1) UNAL INIT('0'B)/**/,
              6931    1           3 N UBIN(17) UNAL INIT(0)/**/,
              6932    1         2 CURLINE SBIN HALF UNAL,
              6933    1         2 HDRLEN SBIN HALF UNAL,
              6934    1         2 FTRLEN SBIN HALF UNAL,
              6935    1         2 FTRLINE SBIN HALF UNAL,
              6936    1         2 DVFC# CHAR(1) INIT('A')/**/,
              6937    1         2 WRAPTAB# UBIN BYTE UNAL INIT(1)/**/,
              6938    1         2 TABDFLT# UBIN BYTE UNAL INIT(5)/**/,
              6939    1         2 TRUNC# BIT(1) UNAL INIT('1'B)/**/,
              6940    1         2 CONTENTS# BIT(1) UNAL INIT('1'B)/**/,
              6941    1         2 EDIT# EPTR ALIGNED INIT(ENTADDR(NIL))/**/,
              6945    1         2 TITLE$ PTR INIT(ADDR(CGLRPTTX00))/**/,
PL6.E3A0      #001=DAD$CGLOG File=DAD$CGLOG.:E05TSI                              TUE 07/29/97 12:40 Page:4
              6950    1         2 HEAD$ PTR INIT(ADDR(CGLRPTHD00))/**/,
              6953    1         2 FOOT$ PTR INIT(ADDR(NIL))/**/;
              6958    1   DCL 1 CGLRPTTX00 STATIC,
              6959    1         2 L UBIN BYTE UNAL INIT(SIZEC('COMGROUP LOG')),
              6960    1         2 C CHAR(0) INIT('COMGROUP LOG');
       89     6964        %HEADER (LAST=NO,TEXTADR=HDRBUF1);
              6965        %LSET LISTDIR='0'B;
              6981    1   DCL 1 CGLRPTHD00 STATIC ALIGNED,
              6987    1         2 TXT$ PTR INIT(ADDR(HDRBUF1))/**/,
              6991    1         2 RTN EPTR INIT(ENTADDR(NIL))/**/,
              6992    1         2 COD SBIN INIT(0)/**/,
              6996    1         2 NXT$ PTR INIT(ADDR(CGLRPTHD01))/**/;
       90     7006        %HEADER (LAST=YES,TEXTADR=HDRBUF2);
              7007        %LSET LISTDIR='0'B;
              7023    1   DCL 1 CGLRPTHD01 STATIC ALIGNED,
              7029    1         2 TXT$ PTR INIT(ADDR(HDRBUF2))/**/,
              7033    1         2 RTN EPTR INIT(ENTADDR(NIL))/**/,
              7034    1         2 COD SBIN INIT(0)/**/,
              7036    1         2 NXT$ PTR INIT(ADDR(NIL))/**/;
       91     7048    1   DCL 1 HDRBUF1 CONSTANT,
       92     7049    1         2 * UBIN(9) UNAL INIT(SIZEC(HDRBUF1.TXT)),
       93     7050    1         2 TXT CHAR(0) INIT(
       94     7051        'TYPE     CG$     BYT  HW1     HW2     W1           W2            TIME
       95     7052    1                         IRET   PLUGH                        $X2');
       96     7053    1   DCL 1 HDRBUF2 CONSTANT,
       97     7054    1         2 * UBIN(9) UNAL INIT(SIZEC(HDRBUF2.TXT)),
       98     7055    1         2 TXT CHAR(0) INIT(
       99     7056        '------   ------  ---  ------  ------  ------------ ------------  -----------
      100     7057    1           ------ --------------------------- ------');
      101     7058    1   DCL DFLTFMT CONSTANT CHAR(0) INIT(
      102     7059    1     '%6A   %6ZO  %3ZO  %6ZO  %6ZO  %12ZO %12ZO  %0.0.0.8U    %6(%6.18ZO %)');
      103     7060    1   DCL DFLT1FMT CONSTANT CHAR(0) INIT(
      104     7061    1     '%6LD   %6ZO  %3ZO  %6ZO  %6ZO  %12ZO %12ZO  %0.0.0.8U    %6(%6.18ZO %)');
      105     7062    1   DCL GETFMT CONSTANT CHAR(0) INIT(
      106     7063    1     '%6A   %6ZO  %3X%1S  %6D  %6ZO  %12ZO %12ZO  %0.0.0.8U    %6(%6.18ZO %)');
      107     7064    1   DCL FTCHFMT CONSTANT CHAR(0) INIT(
      108     7065    1     '%6A   %6ZO  %3X%1S  %6A  %6ZO  %12ZO %12ZO  %0.0.0.8U    %6(%6.18ZO %)');
PL6.E3A0      #001=DAD$CGLOG File=DAD$CGLOG.:E05TSI                              TUE 07/29/97 12:40 Page:5
      109     7066    1   DCL STAFMT CONSTANT CHAR(0) INIT(
      110     7067    1     '%6A   %6ZO  %3ZO  %6ZO  %6ZO  ''%4A%4A''%3X%7P%12ZO  %0.0.0.8U    %6(%6.18ZO %)')
              7067              ;
      111     7068    1   DCL BYTDECFMT CONSTANT CHAR(0) INIT(
      112     7069    1     '%6A   %6ZO  %3D  %6ZO  %6ZO  %12ZO %12ZO  %0.0.0.8U    %6(%6.18ZO %)');
      113     7070    1   DCL EXPFMT CONSTANT CHAR(0) INIT(
      114     7071          '%N-%T%.5P%N(+%)%N(.%O%)%3P
      115     7072    1   %N-%T%.5P%N(+%)%N(.%O%)%S');
      116     7073        /**/
      117     7074    1   DCL TYPTAB(0:42) CHAR(6) CONSTANT INIT(
      118     7075    1     ' ','DCGET','DCGDFR','DCGSAT','FETCH','FTCHDF','FTCHDN','DFRGO',
      119     7076    1     'DFRWT','DEL','GINIT','GPROC','GTRM','DCREAD','DCREMP','DCWRIT',
      120     7077    1     'PUT','GET','GETC','READ','READC','WRITE','MGET','MREL','SFET',
      121     7078    1     'GDELM','GSSQ','GSMCR','GCON','GINS','GISP','DORQ','DODN',
      122     7079    1     'DCLS','TCRQ','TCDN','TDRQ','TDDN','DFRGET','DFRREL','GESQ',
      123     7080    1     'DCRDEA','DCWREA');
      124     7081    1   DCL ENTTAB(0:%ENTTAB_MAX) CHAR(6) CONSTANT INIT(
      125     7082    1     ' ','Fetch','Renege','Deldda','4 ??','Get','Write','7 ??',
      126     7083    1     '8 ??','Getfre','Getnew','>10 ??');
      127     7084    1   DCL DLTTAB(0:%DLTTAB_MAX) CHAR(6) CONSTANT INIT(
      128     7085    1     'UNLOCK','UPD','LREL','DELETE','>3 ??');
      129     7086    1   DCL TABS(0:5) CONSTANT UBIN INIT(81,88,95,102,109,116);
      130     7087
      131     7088        %EJECT;
PL6.E3A0      #001=DAD$CGLOG File=DAD$CGLOG.:E05TSI                              TUE 07/29/97 12:40 Page:6
      132     7089
      133     7090    1           CALL DAS$SDMONPTR(%M#KQ_HDLOG$,HDLOG$) ALTRET(ERR);
      134     7091    1           CALL DAM$MAP(HDLOG$,HDLOG$,,,DA_MONISDATA) ALTRET(ERR);
      135     7092    1           HDLOG$=HDLOG$->PTR$;
      136     7093    1           IF HDLOG$=ADDR(NIL) THEN
      137     7094    1              RETURN;
      138     7095        /**/
      139     7096    1           CALL DAS$SDMONPTR(%M#KQ_CURLOG$,CURLOG$) ALTRET(ERR);
      140     7097    1           CALL DAM$MAP(CURLOG$,CURLOG$,,,DA_MONISDATA) ALTRET(ERR);
      141     7098    1           CURLOG$=CURLOG$->PTR$;
      142     7099    1           IF CURLOG$=ADDR(NIL) THEN
      143     7100    1              RETURN;
      144     7101    1           CALL DAM$MAP(CURLOG$,LOG$) ALTRET(ERR);
      145     7102    1           CURLOG$=LOG$;
      146     7103        /**/
      147     7104    1           CALL DAF$INIT(CGLRPT);
      148     7105        /**/
      149     7106    1           CURX=KQ$LOGHDR.CURX;
      150     7107    1           BEGINX=CURX;
      151     7108    1           FLG='0'B;
      152     7109    2           DO WHILE('1'B);
      153     7110    3              DO WHILE(CURX+SIZEW(KQ$LOGENT)<=KQ$LOGHDR.SIZ);
      154     7111    3                 IF LOG$=CURLOG$ AND CURX>=BEGINX AND FLG THEN
      155     7112    3                    GOTO RET;
      156     7113    3                 KQ_LOGENT=PINCRW(LOG$,CURX)->KQ$LOGENT;
      157     7114    3                 IF KQ_LOGENT='0'B THEN
      158     7115    3                    GOTO NXTENT;
      159     7116    3                 TYPVEC=VECTOR(TYPTAB(KQ_LOGENT.TYP));
      160     7117    3                 HW1VEC=VECTOR(KQ_LOGENT.HW1);
      161     7118    4                 DO CASE(KQ_LOGENT.TYP);
      162     7119    4                  CASE(ELSE);
      163     7120    4                    FMTVEC=VECTOR(DFLT1FMT);
      164     7121    4                    TYPVEC=VECTOR(KQ_LOGENT.TYP);
      165     7122    4                  CASE(%KQLOG_DCGET,%KQLOG_DCGDFR,%KQLOG_DCGSAT);
      166     7123    4                    FMTVEC=VECTOR(GETFMT);
      167     7124    4                  CASE(%KQLOG_FETCH,%KQLOG_FTCHDFR,%KQLOG_FTCHDONE,
      168     7125    4                      %KQLOG_DFRGO,%KQLOG_DFRWAIT,%KQLOG_DFRGET,
PL6.E3A0      #001=DAD$CGLOG File=DAD$CGLOG.:E05TSI                              TUE 07/29/97 12:40 Page:7
      169     7126    4                      %KQLOG_DFRREL);
      170     7127    4                    FMTVEC=VECTOR(FTCHFMT);
      171     7128    4                    IF KQ_LOGENT.HW1<%ENTTAB_MAX
      172     7129    4                    THEN HW1VEC=VECTOR(ENTTAB(KQ_LOGENT.HW1));
      173     7130    4                    ELSE HW1VEC=VECTOR(ENTTAB(%ENTTAB_MAX));
      174     7131    4                  CASE(%KQLOG_DELETE);
      175     7132    4                    FMTVEC=VECTOR(FTCHFMT);
      176     7133    4                    IF KQ_LOGENT.HW1<%DLTTAB_MAX
      177     7134    4                    THEN TYPVEC=VECTOR(DLTTAB(KQ_LOGENT.HW1));
      178     7135    4                    ELSE TYPVEC=VECTOR(DLTTAB(%DLTTAB_MAX));
      179     7136    4                    HW1VEC=VECTOR(ENTTAB(0));
      180     7137    4                  CASE(%KQLOG_GINIT,%KQLOG_GPROC,%KQLOG_GTRM);
      181     7138    4                    FMTVEC=VECTOR(FTCHFMT);
      182     7139    4                    IF KQ_LOGENT.HW1<%ENTTAB_MAX
      183     7140    4                    THEN HW1VEC=VECTOR(ENTTAB(KQ_LOGENT.HW1));
      184     7141    4                    ELSE HW1VEC=VECTOR(ENTTAB(%ENTTAB_MAX));
      185     7142    4                  CASE(%KQLOG_READ,%KQLOG_READC,%KQLOG_WRITE,%KQLOG_GET,
      186     7143    4                         %KQLOG_GETC,%KQLOG_PUT,%KQLOG_DORQ,%KQLOG_DODN,
      187     7144    4                         %KQLOG_TCRQ,%KQLOG_TCDN,%KQLOG_TDRQ,%KQLOG_DCLS,
      188     7145    4                         %KQLOG_TDDN);
      189     7146    4                    FMTVEC=VECTOR(STAFMT);
      190     7147    4                  CASE(%KQLOG_GDELM,%KQLOG_GSSQ,%KQLOG_GESQ,%KQLOG_GSMCR,
      191     7148    4                      %KQLOG_GCON,%KQLOG_GINS,%KQLOG_GISP,%KQLOG_SFET);
      192     7149    4                    FMTVEC=VECTOR(BYTDECFMT);
      193     7150    4                  CASE(%KQLOG_DCREAD,%KQLOG_DCREMP,%KQLOG_DCWRITE,
      194     7151    4                      %KQLOG_MGET,%KQLOG_MREL,%KQLOG_DCRDEA,
      195     7152    4                      %KQLOG_DCWREA);
      196     7153    4                    FMTVEC=VECTOR(DFLTFMT);
      197     7154    4                  END;
      198     7155    3                 CALL DAF$WRITE(FMTVEC,
      199     7156    3                   TYPVEC,
      200     7157    3                   VECTOR(KQ_LOGENT.CGX),
      201     7158    3                   VECTOR(KQ_LOGENT.BYT),
      202     7159    3                   HW1VEC,
      203     7160    3                   VECTOR(KQ_LOGENT.HW2),
      204     7161    3                   VECTOR(KQ_LOGENT.W1),
      205     7162    3                   VECTOR(KQ_LOGENT.W2),
PL6.E3A0      #001=DAD$CGLOG File=DAD$CGLOG.:E05TSI                              TUE 07/29/97 12:40 Page:8
      206     7163    3                   VECTOR(KQ_LOGENT.TIME),
      207     7164    3                   VECTOR(KQ_LOGENT.PLUGH.INTRET),
      208     7165    3                   VECTOR(KQ_LOGENT.PLUGH.RET),
      209     7166    3                   VECTOR(KQ_LOGENT.PLUGH.X2));
      210     7167    4                 IF EXP_ADR THEN DO;
      211     7168    4                    IF KQ_LOGENT.PLUGH.INTRET~=0 THEN
      212     7169    4                       CALL CNVRTADDR(KQ_LOGENT.PLUGH.INTRET,0);
      213     7170    4                    ELSE
      214     7171    4                       ENTNAMES(0)='0'B;
      215     7172    4                    CALL CNVRTADDR(KQ_LOGENT.PLUGH.RET(2),1);
      216     7173    4                    CALL DAF$WRITE(VECTOR(EXPFMT),
      217     7174    4                      VECTOR(TABS(0)),
      218     7175    4                      VECTOR(ENTNAMES(0)),
      219     7176    4                      VECTOR(TABS(3)),
      220     7177    4                      VECTOR(ENTNAMES(1)));
      221     7178    4                    CALL CNVRTADDR(KQ_LOGENT.PLUGH.RET(0),0);
      222     7179    4                    CALL CNVRTADDR(KQ_LOGENT.PLUGH.RET(3),1);
      223     7180    4                    CALL DAF$WRITE(VECTOR(EXPFMT),
      224     7181    4                      VECTOR(TABS(1)),
      225     7182    4                      VECTOR(ENTNAMES(0)),
      226     7183    4                      VECTOR(TABS(4)),
      227     7184    4                      VECTOR(ENTNAMES(1)));
      228     7185    4                    CALL CNVRTADDR(KQ_LOGENT.PLUGH.RET(1),0);
      229     7186    4                    CALL CNVRTADDR(KQ_LOGENT.PLUGH.X2,1);
      230     7187    4                    CALL DAF$WRITE(VECTOR(EXPFMT),
      231     7188    4                      VECTOR(TABS(2)),
      232     7189    4                      VECTOR(ENTNAMES(0)),
      233     7190    4                      VECTOR(TABS(5)),
      234     7191    4                      VECTOR(ENTNAMES(1)));
      235     7192    4                    END;
      236     7193    3   NXTENT:
      237     7194    3                 CURX=CURX+SIZEW(KQ$LOGENT);
      238     7195    3                 END;
      239     7196    2              LOG$=KQ$LOGHDR.LINK$;
      240     7197    2              IF LOG$=ADDR(NIL) THEN
      241     7198    2                 LOG$=HDLOG$;
      242     7199    2              CALL DAM$MAP(LOG$,LOG$) ALTRET(ERR);
PL6.E3A0      #001=DAD$CGLOG File=DAD$CGLOG.:E05TSI                              TUE 07/29/97 12:40 Page:9
      243     7200    2              CURX=SIZEW(KQ$LOGENT);
      244     7201    2              FLG='1'B;
      245     7202    2              END;
      246     7203        /**/
      247     7204    1   RET:
      248     7205    1           RETURN;
      249     7206        /**/
      250     7207    1   ERR:    RETURN;
      251     7208        /**/
      252     7209        /**/
      253     7210    1   CNVRTADDR: PROC(ADR,INDX);
      254     7211        /**/
      255     7212    2   DCL ADR UBIN HALF HALIGNED;
      256     7213    2   DCL INDX UBIN;
      257     7214        /**/
      258     7215    2   DCL I UBIN;
      259     7216    2   DCL OFS UBIN;
      260     7217    2   DCL P$ PTR;
      261     7218        /**/
      262     7219    2   DCL 1 NAM BASED ALIGNED,
      263     7220    2         2 LEN UBIN HALF HALIGNED,
      264     7221    2         2 TXT CHAR(NAM.LEN);
      265     7222
      266     7223
      267     7224    2           ENTNAMES(INDX)='0'B;
      268     7225    2           I=ADR;
      269     7226    3           IF I~=0 THEN DO;
      270     7227    3              CALL DAS$IC2PED(I,P$) ALTRET(OCTAL);
      271     7228    3              OFS=I-P$->B$EDEF.ISADDR;
      272     7229    3              P$=PINCRW(DA_DNAME$,P$->B$EDEF.NPOINTER);
      273     7230    3              ENTNAMES.TXTC.LEN(INDX)=P$->NAM.LEN;
      274     7231    3              ENTNAMES.TXTC.TXT(INDX)=P$->NAM.TXT;
      275     7232    4              IF OFS~=0 THEN DO;
      276     7233    4                 ENTNAMES.FLGP(INDX)=1;
      277     7234    4                 ENTNAMES.FLGN(INDX)=1;
      278     7235    4                 ENTNAMES.OFFSET(INDX)=OFS;
      279     7236    4                 END;
PL6.E3A0      #001=DAD$CGLOG File=DAD$CGLOG.:E05TSI                              TUE 07/29/97 12:40 Page:10
      280     7237    3              END;
      281     7238    3           ELSE DO;
      282     7239    3   OCTAL:     ENTNAMES.FLGP(INDX)=1;
      283     7240    3              ENTNAMES.OFFSET(INDX)=I;
      284     7241    3              END;
      285     7242        /**/
      286     7243    2           RETURN;
      287     7244    2   END CNVRTADDR;
      288     7245        /**/
      289     7246    1   END DAD$CGLOG;

PL6.E3A0      #001=DAD$CGLOG File=DAD$CGLOG.:E05TSI                              TUE 07/29/97 12:40 Page:11
--  Include file information  --

   KQ_SUBS_C.:E05TOU  is referenced.
   KQ_MAC_C.:E05TOU  is referenced.
   DA_MONSYM_C.:E05TOU  is referenced.
   DA_TEXTC_C.:E05TOU  is referenced.
   DA_SYMBOLS_R.:E05TOU  cannot be made into a system file and is referenced.
   DA_MAP_R.:E05TOU  cannot be made into a system file and is referenced.
   DA_FORMAT_C.:E05TOU  is referenced.
   B$OBJECT_C.:E05TOU  is referenced.
      No diagnostics issued in procedure DAD$CGLOG.

   Procedure DAD$CGLOG requires 512 words for executable code.
   Procedure DAD$CGLOG requires 98 words of local(AUTO) storage.

    No errors detected in file DAD$CGLOG.:E05TSI    .

PL6.E3A0      #001=DAD$CGLOG File=DAD$CGLOG.:E05TSI                              TUE 07/29/97 12:40 Page:12

 Object Unit name= DAD$CGLOG                                  File name= DAD$CGLOG.:E05TOU
 UTS= JUL 29 '97 12:40:19.36 TUE                              Compiler= PL-6/E31         Sev=      00
 SharedLib= :SHARED_SYSTEM                                    Alt SharedLib=


    ****  Control sections  ****

 Sect   Type Bound  Init  Size OctSiz  Section name(segment info)
    0   Data  even  none    37     45  DAD$CGLOG
    1  RoData even  UTS    280    430  DAD$CGLOG
    2   Proc  even  none   512   1000  DAD$CGLOG
    3  RoData even  none    75    113  DAD$CGLOG

    ****  Entry defs  ****

                              Check   Calling
                             calling  sequence
  Sect OctLoc Primary Altret sequence   type   Parms  Name
     2      0   yes            yes      Std        0  DAD$CGLOG

  ****  Entry refs  ****

         Check        Calling
        calling       sequence
Altret sequence SRef   type   Args  Name
 yes     yes           Std       2 DAS$SDMONPTR
 yes     yes           Std       5 DAM$MAP
 yes     yes           Std       1 DAF$INIT
 yes     yes           Std       2 DAS$IC2PED
                       nStd      0 X66_AUTO_0
                       Std       0 B_CONSPOOL_D
                       nStd      0 X66_ARET
PL6.E3A0      #001=DAD$CGLOG File=DAD$CGLOG.:E05TSI                              TUE 07/29/97 12:40 Page:13

  ****  Data refs  ****

  Flags:  r = read only, s = secondary
Flgs Name                             Flgs Name                             Flgs Name
     DA_MONISDATA                          DA_DNAME$                             DAF$WRITE
     B_VECTNIL

  ****  Segment refs  ****

  Flags:  r = read only, s = secondary
Flgs Name                             Flgs Name                             Flgs Name
     ISSID                                 NULLSID
PL6.E3A0      #001=DAD$CGLOG File=DAD$CGLOG.:E05TSI                              TUE 07/29/97 12:40 Page:14


        1        1        /*M* DAD$CGLOG - Dump the comgroup log for ANLZ */
        2        2        /*T***********************************************************/
        3        3        /*T*                                                         */
        4        4        /*T* Copyright (c) Bull HN Information Systems Inc., 1997    */
        5        5        /*T*                                                         */
        6        6        /*T***********************************************************/
        7        7        /*X* */
        8        8
        9        9
       10       10        DAD$CGLOG: PROC;

     10  2 000000   000000 700200 xent  DAD$CGLOG    TSX0  ! X66_AUTO_0
         2 000001   000142 000000                    ZERO    98,0

       11       11
       12       12
       13       13        /**/
       14       14        /* Include Files */
       15       15        /**/
       16       16        %INCLUDE B$OBJECT_C;
       17     3446        %INCLUDE DA_FORMAT_C;
       18     3688        %INCLUDE DA_MAP_R;
       19     3718        %INCLUDE DA_SYMBOLS_R;
       20     3731        %INCLUDE DA_TEXTC_C;
       21     3762        %INCLUDE DA_MONSYM_C;
       22     3813        %INCLUDE KQ_MAC_C;
       23     6363        %INCLUDE KQ_SUBS_C;
       24     6663        /**/
       25     6664        /* EQUs */
       26     6665        /**/
       27     6666        %EQU ENTTAB_MAX=11;
       28     6667        %EQU DLTTAB_MAX=4;
       29     6668
       30     6669
       31     6670        /**/
       32     6671        /* External Routines */
PL6.E3A0      #001=DAD$CGLOG File=DAD$CGLOG.:E05TSI                              TUE 07/29/97 12:40 Page:15
       33     6672        /**/
       34     6673    1   DCL DAF$INIT ENTRY(1) ALTRET;
       35     6674    1   DCL DAF$WRITE EPTR SYMREF;
       36     6675    1   DCL DAM$MAP ENTRY(5) ALTRET;
       37     6676    1   DCL DAS$IC2PED ENTRY(2) ALTRET;
       38     6677    1   DCL DAS$SDMONPTR ENTRY(2) ALTRET;
       39     6678
       40     6679
       41     6680        /**/
       42     6681        /* Local Auto */
       43     6682        /**/
       44     6683    1   DCL HDLOG$ PTR;
       45     6684    1   DCL CURLOG$ PTR;
       46     6685    1   DCL BEGINX UBIN;
       47     6686    1   DCL LOG$ PTR;
       48     6687    1   DCL CURX UBIN;
       49     6688    1   DCL SIZ UBIN;
       50     6689    1   DCL FLG BIT(1);
       51     6690    1   DCL I UBIN;
       52     6691        %KQ_LOGENT (STCLASS=);
       53     6733    1   DCL FMTVEC BIT(72);
       54     6734    1   DCL TYPVEC BIT(72);
       55     6735    1   DCL HW1VEC BIT(72);
       56     6736
       57     6737
       58     6738        /**/
       59     6739        /* Static */
       60     6740        /**/
       61     6741    1   DCL EXP_ADR BIT(1) STATIC INIT('1'B);
       62     6742    1   DCL 1 ENTNAMES(0:1) STATIC,
       63     6743    1         2 TXTC,
       64     6744    1           3 LEN UBIN(9) UNAL,
       65     6745    1           3 TXT CHAR(19),
       66     6746    1         2 FLGP UBIN,
       67     6747    1         2 FLGN UBIN,
       68     6748    1         2 OFFSET UBIN;
       69     6749
PL6.E3A0      #001=DAD$CGLOG File=DAD$CGLOG.:E05TSI                              TUE 07/29/97 12:40 Page:16
       70     6750
       71     6751        /**/
       72     6752        /* Based Structures */
       73     6753        /**/
       74     6754        %B$EDEF;
       75     6824        %KQ_LOGENT (FPTN=KQ$LOGENT,STCLASS=BASED);
       76     6866        %KQ_LOGHDR (FPTN=KQ$LOGHDR,STCLASS="BASED(LOG$)");
       77     6887    1   DCL PTR$ PTR BASED ALIGNED;
       78     6888
       79     6889
       80     6890        /**/
       81     6891        /* Constant */
       82     6892        /**/
       83     6893        %LIST;
       84     6894        %SET LISTMAC='1'B;
       85     6895        %REPORT (TITLE='COMGROUP LOG',NAME=CGLRPT,
       86     6896                 TABDFLT=5,
       87     6897                 TRUNC=YES,
       88     6898                 HEADER=YES);
              6899        %SET HDRNUM=0;
              6900        %SET FTRNUM=0;
              6901        %SET TXTNUM=0;
              6902        %SET RPTNAME=%TEXTCHAR(NAME);
              6903        %LSET LISTDIR='0'B;
              6915    1   DCL 1 CGLRPT STATIC ALIGNED,
              6916    1         2 PAGELEN,
              6922    1           3 I BIT(1) UNAL INIT('0'B)/**/,
              6923    1           3 N UBIN(17) UNAL INIT(0)/**/,
              6924    1         2 PAGEWID,
              6930    1           3 I BIT(1) UNAL INIT('0'B)/**/,
              6931    1           3 N UBIN(17) UNAL INIT(0)/**/,
              6932    1         2 CURLINE SBIN HALF UNAL,
              6933    1         2 HDRLEN SBIN HALF UNAL,
              6934    1         2 FTRLEN SBIN HALF UNAL,
              6935    1         2 FTRLINE SBIN HALF UNAL,
              6936    1         2 DVFC# CHAR(1) INIT('A')/**/,
              6937    1         2 WRAPTAB# UBIN BYTE UNAL INIT(1)/**/,
PL6.E3A0      #001=DAD$CGLOG File=DAD$CGLOG.:E05TSI                              TUE 07/29/97 12:40 Page:17
              6938    1         2 TABDFLT# UBIN BYTE UNAL INIT(5)/**/,
              6939    1         2 TRUNC# BIT(1) UNAL INIT('1'B)/**/,
              6940    1         2 CONTENTS# BIT(1) UNAL INIT('1'B)/**/,
              6941    1         2 EDIT# EPTR ALIGNED INIT(ENTADDR(NIL))/**/,
              6945    1         2 TITLE$ PTR INIT(ADDR(CGLRPTTX00))/**/,
              6950    1         2 HEAD$ PTR INIT(ADDR(CGLRPTHD00))/**/,
              6953    1         2 FOOT$ PTR INIT(ADDR(NIL))/**/;
              6958    1   DCL 1 CGLRPTTX00 STATIC,
              6959    1         2 L UBIN BYTE UNAL INIT(SIZEC('COMGROUP LOG')),
              6960    1         2 C CHAR(0) INIT('COMGROUP LOG');
       89     6964        %HEADER (LAST=NO,TEXTADR=HDRBUF1);
              6965        %LSET LISTDIR='0'B;
              6981    1   DCL 1 CGLRPTHD00 STATIC ALIGNED,
              6987    1         2 TXT$ PTR INIT(ADDR(HDRBUF1))/**/,
              6991    1         2 RTN EPTR INIT(ENTADDR(NIL))/**/,
              6992    1         2 COD SBIN INIT(0)/**/,
              6996    1         2 NXT$ PTR INIT(ADDR(CGLRPTHD01))/**/;
       90     7006        %HEADER (LAST=YES,TEXTADR=HDRBUF2);
              7007        %LSET LISTDIR='0'B;
              7023    1   DCL 1 CGLRPTHD01 STATIC ALIGNED,
              7029    1         2 TXT$ PTR INIT(ADDR(HDRBUF2))/**/,
              7033    1         2 RTN EPTR INIT(ENTADDR(NIL))/**/,
              7034    1         2 COD SBIN INIT(0)/**/,
              7036    1         2 NXT$ PTR INIT(ADDR(NIL))/**/;
       91     7048    1   DCL 1 HDRBUF1 CONSTANT,
       92     7049    1         2 * UBIN(9) UNAL INIT(SIZEC(HDRBUF1.TXT)),
       93     7050    1         2 TXT CHAR(0) INIT(
       94     7051        'TYPE     CG$     BYT  HW1     HW2     W1           W2            TIME
       95     7052    1                         IRET   PLUGH                        $X2');
       96     7053    1   DCL 1 HDRBUF2 CONSTANT,
       97     7054    1         2 * UBIN(9) UNAL INIT(SIZEC(HDRBUF2.TXT)),
       98     7055    1         2 TXT CHAR(0) INIT(
       99     7056        '------   ------  ---  ------  ------  ------------ ------------  -----------
      100     7057    1           ------ --------------------------- ------');
      101     7058    1   DCL DFLTFMT CONSTANT CHAR(0) INIT(
      102     7059    1     '%6A   %6ZO  %3ZO  %6ZO  %6ZO  %12ZO %12ZO  %0.0.0.8U    %6(%6.18ZO %)');
      103     7060    1   DCL DFLT1FMT CONSTANT CHAR(0) INIT(
PL6.E3A0      #001=DAD$CGLOG File=DAD$CGLOG.:E05TSI                              TUE 07/29/97 12:40 Page:18
      104     7061    1     '%6LD   %6ZO  %3ZO  %6ZO  %6ZO  %12ZO %12ZO  %0.0.0.8U    %6(%6.18ZO %)');
      105     7062    1   DCL GETFMT CONSTANT CHAR(0) INIT(
      106     7063    1     '%6A   %6ZO  %3X%1S  %6D  %6ZO  %12ZO %12ZO  %0.0.0.8U    %6(%6.18ZO %)');
      107     7064    1   DCL FTCHFMT CONSTANT CHAR(0) INIT(
      108     7065    1     '%6A   %6ZO  %3X%1S  %6A  %6ZO  %12ZO %12ZO  %0.0.0.8U    %6(%6.18ZO %)');
      109     7066    1   DCL STAFMT CONSTANT CHAR(0) INIT(
      110     7067    1     '%6A   %6ZO  %3ZO  %6ZO  %6ZO  ''%4A%4A''%3X%7P%12ZO  %0.0.0.8U   %6(%6.18ZO %)')
              7067              ;
      111     7068    1   DCL BYTDECFMT CONSTANT CHAR(0) INIT(
      112     7069    1     '%6A   %6ZO  %3D  %6ZO  %6ZO  %12ZO %12ZO  %0.0.0.8U    %6(%6.18ZO %)');
      113     7070    1   DCL EXPFMT CONSTANT CHAR(0) INIT(
      114     7071          '%N-%T%.5P%N(+%)%N(.%O%)%3P
      115     7072    1   %N-%T%.5P%N(+%)%N(.%O%)%S');
      116     7073        /**/
      117     7074    1   DCL TYPTAB(0:42) CHAR(6) CONSTANT INIT(
      118     7075    1     ' ','DCGET','DCGDFR','DCGSAT','FETCH','FTCHDF','FTCHDN','DFRGO',
      119     7076    1     'DFRWT','DEL','GINIT','GPROC','GTRM','DCREAD','DCREMP','DCWRIT',
      120     7077    1     'PUT','GET','GETC','READ','READC','WRITE','MGET','MREL','SFET',
      121     7078    1     'GDELM','GSSQ','GSMCR','GCON','GINS','GISP','DORQ','DODN',
      122     7079    1     'DCLS','TCRQ','TCDN','TDRQ','TDDN','DFRGET','DFRREL','GESQ',
      123     7080    1     'DCRDEA','DCWREA');
      124     7081    1   DCL ENTTAB(0:%ENTTAB_MAX) CHAR(6) CONSTANT INIT(
      125     7082    1     ' ','Fetch','Renege','Deldda','4 ??','Get','Write','7 ??',
      126     7083    1     '8 ??','Getfre','Getnew','>10 ??');
      127     7084    1   DCL DLTTAB(0:%DLTTAB_MAX) CHAR(6) CONSTANT INIT(
      128     7085    1     'UNLOCK','UPD','LREL','DELETE','>3 ??');
      129     7086    1   DCL TABS(0:5) CONSTANT UBIN INIT(81,88,95,102,109,116);
      130     7087
      131     7088        %EJECT;
PL6.E3A0      #001=DAD$CGLOG File=DAD$CGLOG.:E05TSI                              TUE 07/29/97 12:40 Page:19
      132     7089
      133     7090    1           CALL DAS$SDMONPTR(%M#KQ_HDLOG$,HDLOG$) ALTRET(ERR);

   7090  2 000002   200003 630500                    EPPR0   HDLOG$,,AUTO
         2 000003   200041 450500                    STP0    P$+2,,AUTO
         2 000004   000001 236000 3                  LDQ     1
         2 000005   200040 756100                    STQ     P$+1,,AUTO
         2 000006   200040 630500                    EPPR0   P$+1,,AUTO
         2 000007   000020 631400 xsym               EPPR1   B_VECTNIL+16
         2 000010   000000 701000 xent               TSX1    DAS$SDMONPTR
         2 000011   000657 702000 2                  TSX2    ERR

      134     7091    1           CALL DAM$MAP(HDLOG$,HDLOG$,,,DA_MONISDATA) ALTRET(ERR);

   7091  2 000012   000002 236000 3                  LDQ     2
         2 000013   200044 756100                    STQ     P$+5,,AUTO
         2 000014   000001 236000 xsym               LDQ     B_VECTNIL+1
         2 000015   000001 235000 xsym               LDA     B_VECTNIL+1
         2 000016   200042 757100                    STAQ    P$+3,,AUTO
         2 000017   200003 630500                    EPPR0   HDLOG$,,AUTO
         2 000020   200041 450500                    STP0    P$+2,,AUTO
         2 000021   200003 631500                    EPPR1   HDLOG$,,AUTO
         2 000022   200040 451500                    STP1    P$+1,,AUTO
         2 000023   200040 630500                    EPPR0   P$+1,,AUTO
         2 000024   000023 631400 xsym               EPPR1   B_VECTNIL+19
         2 000025   000000 701000 xent               TSX1    DAM$MAP
         2 000026   000657 702000 2                  TSX2    ERR

      135     7092    1           HDLOG$=HDLOG$->PTR$;

   7092  2 000027   200003 470500                    LDP0    HDLOG$,,AUTO
         2 000030   000000 236100                    LDQ     0,,PR0
         2 000031   200003 756100                    STQ     HDLOG$,,AUTO

      136     7093    1           IF HDLOG$=ADDR(NIL) THEN

   7093  2 000032   000001 116000 xsym               CMPQ    B_VECTNIL+1
PL6.E3A0      #001=DAD$CGLOG File=DAD$CGLOG.:E05TSI                              TUE 07/29/97 12:40 Page:20
         2 000033   000035 601000 2                  TNZ     s:7096

      137     7094    1              RETURN;

   7094  2 000034   000000 702200 xent               TSX2  ! X66_ARET

      138     7095        /**/
      139     7096    1           CALL DAS$SDMONPTR(%M#KQ_CURLOG$,CURLOG$) ALTRET(ERR);

   7096  2 000035   200004 630500                    EPPR0   CURLOG$,,AUTO
         2 000036   200041 450500                    STP0    P$+2,,AUTO
         2 000037   000004 236000 3                  LDQ     4
         2 000040   200040 756100                    STQ     P$+1,,AUTO
         2 000041   200040 630500                    EPPR0   P$+1,,AUTO
         2 000042   000020 631400 xsym               EPPR1   B_VECTNIL+16
         2 000043   000000 701000 xent               TSX1    DAS$SDMONPTR
         2 000044   000657 702000 2                  TSX2    ERR

      140     7097    1           CALL DAM$MAP(CURLOG$,CURLOG$,,,DA_MONISDATA) ALTRET(ERR);

   7097  2 000045   000002 236000 3                  LDQ     2
         2 000046   200044 756100                    STQ     P$+5,,AUTO
         2 000047   000001 236000 xsym               LDQ     B_VECTNIL+1
         2 000050   000001 235000 xsym               LDA     B_VECTNIL+1
         2 000051   200042 757100                    STAQ    P$+3,,AUTO
         2 000052   200004 630500                    EPPR0   CURLOG$,,AUTO
         2 000053   200041 450500                    STP0    P$+2,,AUTO
         2 000054   200004 631500                    EPPR1   CURLOG$,,AUTO
         2 000055   200040 451500                    STP1    P$+1,,AUTO
         2 000056   200040 630500                    EPPR0   P$+1,,AUTO
         2 000057   000023 631400 xsym               EPPR1   B_VECTNIL+19
         2 000060   000000 701000 xent               TSX1    DAM$MAP
         2 000061   000657 702000 2                  TSX2    ERR

      141     7098    1           CURLOG$=CURLOG$->PTR$;

   7098  2 000062   200004 470500                    LDP0    CURLOG$,,AUTO
PL6.E3A0      #001=DAD$CGLOG File=DAD$CGLOG.:E05TSI                              TUE 07/29/97 12:40 Page:21
         2 000063   000000 236100                    LDQ     0,,PR0
         2 000064   200004 756100                    STQ     CURLOG$,,AUTO

      142     7099    1           IF CURLOG$=ADDR(NIL) THEN

   7099  2 000065   000001 116000 xsym               CMPQ    B_VECTNIL+1
         2 000066   000070 601000 2                  TNZ     s:7101

      143     7100    1              RETURN;

   7100  2 000067   000000 702200 xent               TSX2  ! X66_ARET

      144     7101    1           CALL DAM$MAP(CURLOG$,LOG$) ALTRET(ERR);

   7101  2 000070   200006 630500                    EPPR0   LOG$,,AUTO
         2 000071   200041 450500                    STP0    P$+2,,AUTO
         2 000072   200004 631500                    EPPR1   CURLOG$,,AUTO
         2 000073   200040 451500                    STP1    P$+1,,AUTO
         2 000074   200040 630500                    EPPR0   P$+1,,AUTO
         2 000075   000020 631400 xsym               EPPR1   B_VECTNIL+16
         2 000076   000000 701000 xent               TSX1    DAM$MAP
         2 000077   000657 702000 2                  TSX2    ERR

      145     7102    1           CURLOG$=LOG$;

   7102  2 000100   200006 236100                    LDQ     LOG$,,AUTO
         2 000101   200004 756100                    STQ     CURLOG$,,AUTO

      146     7103        /**/
      147     7104    1           CALL DAF$INIT(CGLRPT);

   7104  2 000102   000005 630400 3                  EPPR0   5
         2 000103   000017 631400 xsym               EPPR1   B_VECTNIL+15
         2 000104   000000 701000 xent               TSX1    DAF$INIT
         2 000105   000000 011000                    NOP     0

      148     7105        /**/
PL6.E3A0      #001=DAD$CGLOG File=DAD$CGLOG.:E05TSI                              TUE 07/29/97 12:40 Page:22
      149     7106    1           CURX=KQ$LOGHDR.CURX;

   7106  2 000106   200006 470500                    LDP0    LOG$,,AUTO
         2 000107   000001 235100                    LDA     1,,PR0
         2 000110   200007 755100                    STA     CURX,,AUTO

      150     7107    1           BEGINX=CURX;

   7107  2 000111   200005 755100                    STA     BEGINX,,AUTO

      151     7108    1           FLG='0'B;

   7108  2 000112   200011 450100                    STZ     FLG,,AUTO

      152     7109    2           DO WHILE('1'B);

      153     7110    3              DO WHILE(CURX+SIZEW(KQ$LOGENT)<=KQ$LOGHDR.SIZ);

   7110  2 000113   000625 710000 2                  TRA     s:7195

      154     7111    3                 IF LOG$=CURLOG$ AND CURX>=BEGINX AND FLG THEN

   7111  2 000114   200006 236100                    LDQ     LOG$,,AUTO
         2 000115   200004 116100                    CMPQ    CURLOG$,,AUTO
         2 000116   000124 601000 2                  TNZ     s:7113
         2 000117   200007 236100                    LDQ     CURX,,AUTO
         2 000120   200005 116100                    CMPQ    BEGINX,,AUTO
         2 000121   000124 602000 2                  TNC     s:7113
         2 000122   200011 234100                    SZN     FLG,,AUTO
         2 000123   000656 604000 2                  TMI     RET

      155     7112    3                    GOTO RET;
      156     7113    3                 KQ_LOGENT=PINCRW(LOG$,CURX)->KQ$LOGENT;

   7113  2 000124   200007 235100                    LDA     CURX,,AUTO
         2 000125   000002 735000                    ALS     2
         2 000126   200006 470500                    LDP0    LOG$,,AUTO
PL6.E3A0      #001=DAD$CGLOG File=DAD$CGLOG.:E05TSI                              TUE 07/29/97 12:40 Page:23
         2 000127   000100 100505                    MLR     fill='000'O
         2 000130   000000 000040                    ADSC9   0,A,PR0                  cn=0,n=32
         2 000131   200013 000040                    ADSC9   KQ_LOGENT,,AUTO          cn=0,n=32

      157     7114    3                 IF KQ_LOGENT='0'B THEN

   7114  2 000132   000000 106500                    CMPC    fill='000'O
         2 000133   200013 000040                    ADSC9   KQ_LOGENT,,AUTO          cn=0,n=32
         2 000134   000002 000002 xsym               ADSC9   B_VECTNIL+2              cn=0,n=2
         2 000135   000622 600000 2                  TZE     NXTENT

      158     7115    3                    GOTO NXTENT;
      159     7116    3                 TYPVEC=VECTOR(TYPTAB(KQ_LOGENT.TYP));

   7116  2 000136   200015 236100                    LDQ     KQ_LOGENT+2,,AUTO
         2 000137   000033 772000                    QRL     27
         2 000140   000006 235000 3                  LDA     6
         2 000141   200040 755100                    STA     P$+1,,AUTO
         2 000142   000010 402000 3                  MPY     8
         2 000143   000007 036000 3                  ADLQ    7
         2 000144   200040 235100                    LDA     P$+1,,AUTO
         2 000145   200025 755100                    STA     TYPVEC,,AUTO
         2 000146   200026 756100                    STQ     TYPVEC+1,,AUTO

      160     7117    3                 HW1VEC=VECTOR(KQ_LOGENT.HW1);

   7117  2 000147   377640 235007                    LDA     130976,DL
         2 000150   200040 452500                    STP2    P$+1,,AUTO
         2 000151   200040 236100                    LDQ     P$+1,,AUTO
         2 000152   000011 036000 3                  ADLQ    9
         2 000153   200027 755100                    STA     HW1VEC,,AUTO
         2 000154   200030 756100                    STQ     HW1VEC+1,,AUTO

      161     7118    4                 DO CASE(KQ_LOGENT.TYP);

   7118  2 000155   200015 236100                    LDQ     KQ_LOGENT+2,,AUTO
         2 000156   000033 772000                    QRL     27
PL6.E3A0      #001=DAD$CGLOG File=DAD$CGLOG.:E05TSI                              TUE 07/29/97 12:40 Page:24
         2 000157   000053 116007                    CMPQ    43,DL
         2 000160   000162 602006 2                  TNC     s:7118+5,QL
         2 000161   000235 710000 2                  TRA     s:7120
         2 000162   000235 710000 2                  TRA     s:7120
         2 000163   000247 710000 2                  TRA     s:7123
         2 000164   000247 710000 2                  TRA     s:7123
         2 000165   000247 710000 2                  TRA     s:7123
         2 000166   000253 710000 2                  TRA     s:7127
         2 000167   000253 710000 2                  TRA     s:7127
         2 000170   000253 710000 2                  TRA     s:7127
         2 000171   000253 710000 2                  TRA     s:7127
         2 000172   000253 710000 2                  TRA     s:7127
         2 000173   000277 710000 2                  TRA     s:7132
         2 000174   000326 710000 2                  TRA     s:7138
         2 000175   000326 710000 2                  TRA     s:7138
         2 000176   000326 710000 2                  TRA     s:7138
         2 000177   000362 710000 2                  TRA     s:7153
         2 000200   000362 710000 2                  TRA     s:7153
         2 000201   000362 710000 2                  TRA     s:7153
         2 000202   000352 710000 2                  TRA     s:7146
         2 000203   000352 710000 2                  TRA     s:7146
         2 000204   000352 710000 2                  TRA     s:7146
         2 000205   000352 710000 2                  TRA     s:7146
         2 000206   000352 710000 2                  TRA     s:7146
         2 000207   000352 710000 2                  TRA     s:7146
         2 000210   000362 710000 2                  TRA     s:7153
         2 000211   000362 710000 2                  TRA     s:7153
         2 000212   000356 710000 2                  TRA     s:7149
         2 000213   000356 710000 2                  TRA     s:7149
         2 000214   000356 710000 2                  TRA     s:7149
         2 000215   000356 710000 2                  TRA     s:7149
         2 000216   000356 710000 2                  TRA     s:7149
         2 000217   000356 710000 2                  TRA     s:7149
         2 000220   000356 710000 2                  TRA     s:7149
         2 000221   000352 710000 2                  TRA     s:7146
         2 000222   000352 710000 2                  TRA     s:7146
         2 000223   000352 710000 2                  TRA     s:7146
PL6.E3A0      #001=DAD$CGLOG File=DAD$CGLOG.:E05TSI                              TUE 07/29/97 12:40 Page:25
         2 000224   000352 710000 2                  TRA     s:7146
         2 000225   000352 710000 2                  TRA     s:7146
         2 000226   000352 710000 2                  TRA     s:7146
         2 000227   000352 710000 2                  TRA     s:7146
         2 000230   000253 710000 2                  TRA     s:7127
         2 000231   000253 710000 2                  TRA     s:7127
         2 000232   000356 710000 2                  TRA     s:7149
         2 000233   000362 710000 2                  TRA     s:7153
         2 000234   000362 710000 2                  TRA     s:7153

      162     7119    4                  CASE(ELSE);

      163     7120    4                    FMTVEC=VECTOR(DFLT1FMT);

   7120  2 000235   000012 237000 3                  LDAQ    10
         2 000236   200023 755100                    STA     FMTVEC,,AUTO
         2 000237   200024 756100                    STQ     FMTVEC+1,,AUTO

      164     7121    4                    TYPVEC=VECTOR(KQ_LOGENT.TYP);

   7121  2 000240   177640 235007                    LDA     65440,DL
         2 000241   200040 452500                    STP2    P$+1,,AUTO
         2 000242   200040 236100                    LDQ     P$+1,,AUTO
         2 000243   000015 036003                    ADLQ    13,DU
         2 000244   200025 755100                    STA     TYPVEC,,AUTO
         2 000245   200026 756100                    STQ     TYPVEC+1,,AUTO
         2 000246   000365 710000 2                  TRA     s:7164

      165     7122    4                  CASE(%KQLOG_DCGET,%KQLOG_DCGDFR,%KQLOG_DCGSAT);

      166     7123    4                    FMTVEC=VECTOR(GETFMT);

   7123  2 000247   000014 237000 3                  LDAQ    12
         2 000250   200023 755100                    STA     FMTVEC,,AUTO
         2 000251   200024 756100                    STQ     FMTVEC+1,,AUTO
         2 000252   000365 710000 2                  TRA     s:7164

PL6.E3A0      #001=DAD$CGLOG File=DAD$CGLOG.:E05TSI                              TUE 07/29/97 12:40 Page:26
      167     7124    4                  CASE(%KQLOG_FETCH,%KQLOG_FTCHDFR,%KQLOG_FTCHDONE,

      168     7125    4                      %KQLOG_DFRGO,%KQLOG_DFRWAIT,%KQLOG_DFRGET,
      169     7126    4                      %KQLOG_DFRREL);
      170     7127    4                    FMTVEC=VECTOR(FTCHFMT);

   7127  2 000253   000016 237000 3                  LDAQ    14
         2 000254   200023 755100                    STA     FMTVEC,,AUTO
         2 000255   200024 756100                    STQ     FMTVEC+1,,AUTO

      171     7128    4                    IF KQ_LOGENT.HW1<%ENTTAB_MAX

   7128  2 000256   200013 720100                    LXL0    KQ_LOGENT,,AUTO
         2 000257   000013 100003                    CMPX0   11,DU
         2 000260   000273 603000 2                  TRC     s:7130

      172     7129    4                    THEN HW1VEC=VECTOR(ENTTAB(KQ_LOGENT.HW1));

   7129  2 000261   200013 236100                    LDQ     KQ_LOGENT,,AUTO
         2 000262   777777 376007                    ANQ     -1,DL
         2 000263   000006 235000 3                  LDA     6
         2 000264   200040 755100                    STA     P$+1,,AUTO
         2 000265   000010 402000 3                  MPY     8
         2 000266   000020 036000 3                  ADLQ    16
         2 000267   200040 235100                    LDA     P$+1,,AUTO
         2 000270   200027 755100                    STA     HW1VEC,,AUTO
         2 000271   200030 756100                    STQ     HW1VEC+1,,AUTO
         2 000272   000365 710000 2                  TRA     s:7164

      173     7130    4                    ELSE HW1VEC=VECTOR(ENTTAB(%ENTTAB_MAX));

   7130  2 000273   000022 237000 3                  LDAQ    18
         2 000274   200027 755100                    STA     HW1VEC,,AUTO
         2 000275   200030 756100                    STQ     HW1VEC+1,,AUTO
         2 000276   000365 710000 2                  TRA     s:7164

      174     7131    4                  CASE(%KQLOG_DELETE);
PL6.E3A0      #001=DAD$CGLOG File=DAD$CGLOG.:E05TSI                              TUE 07/29/97 12:40 Page:27

      175     7132    4                    FMTVEC=VECTOR(FTCHFMT);

   7132  2 000277   000016 237000 3                  LDAQ    14
         2 000300   200023 755100                    STA     FMTVEC,,AUTO
         2 000301   200024 756100                    STQ     FMTVEC+1,,AUTO

      176     7133    4                    IF KQ_LOGENT.HW1<%DLTTAB_MAX

   7133  2 000302   200013 720100                    LXL0    KQ_LOGENT,,AUTO
         2 000303   000004 100003                    CMPX0   4,DU
         2 000304   000317 603000 2                  TRC     s:7135

      177     7134    4                    THEN TYPVEC=VECTOR(DLTTAB(KQ_LOGENT.HW1));

   7134  2 000305   200013 236100                    LDQ     KQ_LOGENT,,AUTO
         2 000306   777777 376007                    ANQ     -1,DL
         2 000307   000006 235000 3                  LDA     6
         2 000310   200040 755100                    STA     P$+1,,AUTO
         2 000311   000010 402000 3                  MPY     8
         2 000312   000024 036000 3                  ADLQ    20
         2 000313   200040 235100                    LDA     P$+1,,AUTO
         2 000314   200025 755100                    STA     TYPVEC,,AUTO
         2 000315   200026 756100                    STQ     TYPVEC+1,,AUTO
         2 000316   000322 710000 2                  TRA     s:7136

      178     7135    4                    ELSE TYPVEC=VECTOR(DLTTAB(%DLTTAB_MAX));

   7135  2 000317   000026 237000 3                  LDAQ    22
         2 000320   200025 755100                    STA     TYPVEC,,AUTO
         2 000321   200026 756100                    STQ     TYPVEC+1,,AUTO

      179     7136    4                    HW1VEC=VECTOR(ENTTAB(0));

   7136  2 000322   000030 237000 3                  LDAQ    24
         2 000323   200027 755100                    STA     HW1VEC,,AUTO
         2 000324   200030 756100                    STQ     HW1VEC+1,,AUTO
PL6.E3A0      #001=DAD$CGLOG File=DAD$CGLOG.:E05TSI                              TUE 07/29/97 12:40 Page:28
         2 000325   000365 710000 2                  TRA     s:7164

      180     7137    4                  CASE(%KQLOG_GINIT,%KQLOG_GPROC,%KQLOG_GTRM);

      181     7138    4                    FMTVEC=VECTOR(FTCHFMT);

   7138  2 000326   000016 237000 3                  LDAQ    14
         2 000327   200023 755100                    STA     FMTVEC,,AUTO
         2 000330   200024 756100                    STQ     FMTVEC+1,,AUTO

      182     7139    4                    IF KQ_LOGENT.HW1<%ENTTAB_MAX

   7139  2 000331   200013 720100                    LXL0    KQ_LOGENT,,AUTO
         2 000332   000013 100003                    CMPX0   11,DU
         2 000333   000346 603000 2                  TRC     s:7141

      183     7140    4                    THEN HW1VEC=VECTOR(ENTTAB(KQ_LOGENT.HW1));

   7140  2 000334   200013 236100                    LDQ     KQ_LOGENT,,AUTO
         2 000335   777777 376007                    ANQ     -1,DL
         2 000336   000006 235000 3                  LDA     6
         2 000337   200040 755100                    STA     P$+1,,AUTO
         2 000340   000010 402000 3                  MPY     8
         2 000341   000020 036000 3                  ADLQ    16
         2 000342   200040 235100                    LDA     P$+1,,AUTO
         2 000343   200027 755100                    STA     HW1VEC,,AUTO
         2 000344   200030 756100                    STQ     HW1VEC+1,,AUTO
         2 000345   000365 710000 2                  TRA     s:7164

      184     7141    4                    ELSE HW1VEC=VECTOR(ENTTAB(%ENTTAB_MAX));

   7141  2 000346   000022 237000 3                  LDAQ    18
         2 000347   200027 755100                    STA     HW1VEC,,AUTO
         2 000350   200030 756100                    STQ     HW1VEC+1,,AUTO
         2 000351   000365 710000 2                  TRA     s:7164

      185     7142    4                  CASE(%KQLOG_READ,%KQLOG_READC,%KQLOG_WRITE,%KQLOG_GET,
PL6.E3A0      #001=DAD$CGLOG File=DAD$CGLOG.:E05TSI                              TUE 07/29/97 12:40 Page:29

      186     7143    4                         %KQLOG_GETC,%KQLOG_PUT,%KQLOG_DORQ,%KQLOG_DODN,
      187     7144    4                         %KQLOG_TCRQ,%KQLOG_TCDN,%KQLOG_TDRQ,%KQLOG_DCLS,
      188     7145    4                         %KQLOG_TDDN);
      189     7146    4                    FMTVEC=VECTOR(STAFMT);

   7146  2 000352   000032 237000 3                  LDAQ    26
         2 000353   200023 755100                    STA     FMTVEC,,AUTO
         2 000354   200024 756100                    STQ     FMTVEC+1,,AUTO
         2 000355   000365 710000 2                  TRA     s:7164

      190     7147    4                  CASE(%KQLOG_GDELM,%KQLOG_GSSQ,%KQLOG_GESQ,%KQLOG_GSMCR,

      191     7148    4                      %KQLOG_GCON,%KQLOG_GINS,%KQLOG_GISP,%KQLOG_SFET);
      192     7149    4                    FMTVEC=VECTOR(BYTDECFMT);

   7149  2 000356   000034 237000 3                  LDAQ    28
         2 000357   200023 755100                    STA     FMTVEC,,AUTO
         2 000360   200024 756100                    STQ     FMTVEC+1,,AUTO
         2 000361   000365 710000 2                  TRA     s:7164

      193     7150    4                  CASE(%KQLOG_DCREAD,%KQLOG_DCREMP,%KQLOG_DCWRITE,

      194     7151    4                      %KQLOG_MGET,%KQLOG_MREL,%KQLOG_DCRDEA,
      195     7152    4                      %KQLOG_DCWREA);
      196     7153    4                    FMTVEC=VECTOR(DFLTFMT);

   7153  2 000362   000036 237000 3                  LDAQ    30
         2 000363   200023 755100                    STA     FMTVEC,,AUTO
         2 000364   200024 756100                    STQ     FMTVEC+1,,AUTO

      197     7154    4                  END;

      198     7155    3                 CALL DAF$WRITE(FMTVEC,
      199     7156    3                   TYPVEC,
      200     7157    3                   VECTOR(KQ_LOGENT.CGX),
      201     7158    3                   VECTOR(KQ_LOGENT.BYT),
PL6.E3A0      #001=DAD$CGLOG File=DAD$CGLOG.:E05TSI                              TUE 07/29/97 12:40 Page:30
      202     7159    3                   HW1VEC,
      203     7160    3                   VECTOR(KQ_LOGENT.HW2),
      204     7161    3                   VECTOR(KQ_LOGENT.W1),
      205     7162    3                   VECTOR(KQ_LOGENT.W2),
      206     7163    3                   VECTOR(KQ_LOGENT.TIME),
      207     7164    3                   VECTOR(KQ_LOGENT.PLUGH.INTRET),

   7164  2 000365   377640 235007                    LDA     130976,DL
         2 000366   200040 452500                    STP2    P$+1,,AUTO
         2 000367   200040 236100                    LDQ     P$+1,,AUTO
         2 000370   000013 036003                    ADLQ    11,DU
         2 000371   200042 757100                    STAQ    P$+3,,AUTO
         2 000372   177640 235007                    LDA     65440,DL
         2 000373   200044 452500                    STP2    P$+5,,AUTO
         2 000374   200044 236100                    LDQ     P$+5,,AUTO
         2 000375   000040 036000 3                  ADLQ    32
         2 000376   200046 757100                    STAQ    P$+7,,AUTO
         2 000377   377640 235007                    LDA     130976,DL
         2 000400   200050 452500                    STP2    P$+9,,AUTO
         2 000401   200050 236100                    LDQ     P$+9,,AUTO
         2 000402   000041 036000 3                  ADLQ    33
         2 000403   200052 757100                    STAQ    P$+11,,AUTO
         2 000404   777640 235007                    LDA     -96,DL
         2 000405   200054 452500                    STP2    P$+13,,AUTO
         2 000406   200054 236100                    LDQ     P$+13,,AUTO
         2 000407   000016 036003                    ADLQ    14,DU
         2 000410   200056 757100                    STAQ    P$+15,,AUTO
         2 000411   777640 235007                    LDA     -96,DL
         2 000412   200060 452500                    STP2    P$+17,,AUTO
         2 000413   200060 236100                    LDQ     P$+17,,AUTO
         2 000414   000017 036003                    ADLQ    15,DU
         2 000415   200062 757100                    STAQ    P$+19,,AUTO
         2 000416   777640 235007                    LDA     -96,DL
         2 000417   200064 452500                    STP2    P$+21,,AUTO
         2 000420   200064 236100                    LDQ     P$+21,,AUTO
         2 000421   000014 036003                    ADLQ    12,DU
         2 000422   200066 757100                    STAQ    P$+23,,AUTO
PL6.E3A0      #001=DAD$CGLOG File=DAD$CGLOG.:E05TSI                              TUE 07/29/97 12:40 Page:31
         2 000423   377640 235007                    LDA     130976,DL
         2 000424   200070 452500                    STP2    P$+25,,AUTO
         2 000425   200070 236100                    LDQ     P$+25,,AUTO
         2 000426   000022 036003                    ADLQ    18,DU
         2 000427   200072 757100                    STAQ    P$+27,,AUTO
         2 000430   000042 235000 3                  LDA     34
         2 000431   200074 452500                    STP2    P$+29,,AUTO
         2 000432   200074 236100                    LDQ     P$+29,,AUTO
         2 000433   000020 036003                    ADLQ    16,DU
         2 000434   200076 757100                    STAQ    P$+31,,AUTO
         2 000435   377640 235007                    LDA     130976,DL
         2 000436   200100 452500                    STP2    P$+33,,AUTO
         2 000437   200100 236100                    LDQ     P$+33,,AUTO
         2 000440   000043 036000 3                  ADLQ    35
         2 000441   200104 757100                    STAQ    P$+37,,AUTO
         2 000442   200042 237100                    LDAQ    P$+3,,AUTO
         2 000443   200102 757100                    STAQ    P$+35,,AUTO
         2 000444   200046 237100                    LDAQ    P$+7,,AUTO
         2 000445   200106 757100                    STAQ    P$+39,,AUTO
         2 000446   200052 237100                    LDAQ    P$+11,,AUTO
         2 000447   200110 757100                    STAQ    P$+41,,AUTO
         2 000450   200056 237100                    LDAQ    P$+15,,AUTO
         2 000451   200112 757100                    STAQ    P$+43,,AUTO
         2 000452   200062 237100                    LDAQ    P$+19,,AUTO
         2 000453   200114 757100                    STAQ    P$+45,,AUTO
         2 000454   200066 237100                    LDAQ    P$+23,,AUTO
         2 000455   200116 757100                    STAQ    P$+47,,AUTO
         2 000456   200072 237100                    LDAQ    P$+27,,AUTO
         2 000457   200120 757100                    STAQ    P$+49,,AUTO
         2 000460   200076 237100                    LDAQ    P$+31,,AUTO
         2 000461   200122 757100                    STAQ    P$+51,,AUTO
         2 000462   200104 237100                    LDAQ    P$+37,,AUTO
         2 000463   200124 757100                    STAQ    P$+53,,AUTO
         2 000464   200124 631500                    EPPR1   P$+53,,AUTO
         2 000465   200141 451500                    STP1    P$+66,,AUTO
         2 000466   200122 633500                    EPPR3   P$+51,,AUTO
         2 000467   200140 453500                    STP3    P$+65,,AUTO
PL6.E3A0      #001=DAD$CGLOG File=DAD$CGLOG.:E05TSI                              TUE 07/29/97 12:40 Page:32
         2 000470   200120 634500                    EPPR4   P$+49,,AUTO
         2 000471   200137 454500                    STP4    P$+64,,AUTO
         2 000472   200116 635500                    EPPR5   P$+47,,AUTO
         2 000473   200136 455500                    STP5    P$+63,,AUTO
         2 000474   200114 636500                    EPPR6   P$+45,,AUTO
         2 000475   200135 456500                    STP6    P$+62,,AUTO
         2 000476   200112 637500                    EPPR7   P$+43,,AUTO
         2 000477   200134 457500                    STP7    P$+61,,AUTO
         2 000500   200110 630500                    EPPR0   P$+41,,AUTO
         2 000501   200133 450500                    STP0    P$+60,,AUTO
         2 000502   200027 630500                    EPPR0   HW1VEC,,AUTO
         2 000503   200132 450500                    STP0    P$+59,,AUTO
         2 000504   200106 630500                    EPPR0   P$+39,,AUTO
         2 000505   200131 450500                    STP0    P$+58,,AUTO
         2 000506   200102 630500                    EPPR0   P$+35,,AUTO
         2 000507   200130 450500                    STP0    P$+57,,AUTO
         2 000510   200025 630500                    EPPR0   TYPVEC,,AUTO
         2 000511   200127 450500                    STP0    P$+56,,AUTO
         2 000512   200023 630500                    EPPR0   FMTVEC,,AUTO
         2 000513   200126 450500                    STP0    P$+55,,AUTO
         2 000514   200126 630500                    EPPR0   P$+55,,AUTO
         2 000515   000000 220000 xsym               LDX0    DAF$WRITE
         2 000516   000044 631400 3                  EPPR1   36
         2 000517   000000 701010                    TSX1    0,X0
         2 000520   000000 011000                    NOP     0

      208     7165    3                   VECTOR(KQ_LOGENT.PLUGH.RET),
      209     7166    3                   VECTOR(KQ_LOGENT.PLUGH.X2));
      210     7167    4                 IF EXP_ADR THEN DO;

   7167  2 000521   000000 234000 0                  SZN     EXP_ADR
         2 000522   000622 605000 2                  TPL     NXTENT

      211     7168    4                    IF KQ_LOGENT.PLUGH.INTRET~=0 THEN

   7168  2 000523   200022 220100                    LDX0    KQ_LOGENT+7,,AUTO
         2 000524   000534 600000 2                  TZE     s:7171
PL6.E3A0      #001=DAD$CGLOG File=DAD$CGLOG.:E05TSI                              TUE 07/29/97 12:40 Page:33

      212     7169    4                       CALL CNVRTADDR(KQ_LOGENT.PLUGH.INTRET,0);

   7169  2 000525   000045 236000 3                  LDQ     37
         2 000526   200034 756100                    STQ     @ADR+1,,AUTO
         2 000527   200022 630500                    EPPR0   KQ_LOGENT+7,,AUTO
         2 000530   200033 450500                    STP0    HW1VEC+4,,AUTO
         2 000531   000660 701000 2                  TSX1    CNVRTADDR
         2 000532   000000 011000                    NOP     0
         2 000533   000537 710000 2                  TRA     s:7172

      213     7170    4                    ELSE
      214     7171    4                       ENTNAMES(0)='0'B;

   7171  2 000534   000000 100400                    MLR     fill='000'O
         2 000535   000002 000001 xsym               ADSC9   B_VECTNIL+2              cn=0,n=1
         2 000536   000001 000040 0                  ADSC9   ENTNAMES                 cn=0,n=32

      215     7172    4                    CALL CNVRTADDR(KQ_LOGENT.PLUGH.RET(2),1);

   7172  2 000537   000046 236000 3                  LDQ     38
         2 000540   200034 756100                    STQ     @ADR+1,,AUTO
         2 000541   200021 630500                    EPPR0   KQ_LOGENT+6,,AUTO
         2 000542   200033 450500                    STP0    HW1VEC+4,,AUTO
         2 000543   000660 701000 2                  TSX1    CNVRTADDR
         2 000544   000000 011000                    NOP     0

      216     7173    4                    CALL DAF$WRITE(VECTOR(EXPFMT),

   7173  2 000545   000062 630400 3                  EPPR0   50
         2 000546   000000 220000 xsym               LDX0    DAF$WRITE
         2 000547   000023 631400 xsym               EPPR1   B_VECTNIL+19
         2 000550   000000 701010                    TSX1    0,X0
         2 000551   000000 011000                    NOP     0

      217     7174    4                      VECTOR(TABS(0)),
      218     7175    4                      VECTOR(ENTNAMES(0)),
PL6.E3A0      #001=DAD$CGLOG File=DAD$CGLOG.:E05TSI                              TUE 07/29/97 12:40 Page:34
      219     7176    4                      VECTOR(TABS(3)),
      220     7177    4                      VECTOR(ENTNAMES(1)));
      221     7178    4                    CALL CNVRTADDR(KQ_LOGENT.PLUGH.RET(0),0);

   7178  2 000552   000045 236000 3                  LDQ     37
         2 000553   200034 756100                    STQ     @ADR+1,,AUTO
         2 000554   200020 630500                    EPPR0   KQ_LOGENT+5,,AUTO
         2 000555   200033 450500                    STP0    HW1VEC+4,,AUTO
         2 000556   000660 701000 2                  TSX1    CNVRTADDR
         2 000557   000000 011000                    NOP     0

      222     7179    4                    CALL CNVRTADDR(KQ_LOGENT.PLUGH.RET(3),1);

   7179  2 000560   000046 236000 3                  LDQ     38
         2 000561   200034 756100                    STQ     @ADR+1,,AUTO
         2 000562   200040 452500                    STP2    P$+1,,AUTO
         2 000563   200040 236100                    LDQ     P$+1,,AUTO
         2 000564   000067 036000 3                  ADLQ    55
         2 000565   200033 756100                    STQ     HW1VEC+4,,AUTO
         2 000566   000660 701000 2                  TSX1    CNVRTADDR
         2 000567   000000 011000                    NOP     0

      223     7180    4                    CALL DAF$WRITE(VECTOR(EXPFMT),

   7180  2 000570   000074 630400 3                  EPPR0   60
         2 000571   000000 220000 xsym               LDX0    DAF$WRITE
         2 000572   000023 631400 xsym               EPPR1   B_VECTNIL+19
         2 000573   000000 701010                    TSX1    0,X0
         2 000574   000000 011000                    NOP     0

      224     7181    4                      VECTOR(TABS(1)),
      225     7182    4                      VECTOR(ENTNAMES(0)),
      226     7183    4                      VECTOR(TABS(4)),
      227     7184    4                      VECTOR(ENTNAMES(1)));
      228     7185    4                    CALL CNVRTADDR(KQ_LOGENT.PLUGH.RET(1),0);

   7185  2 000575   000045 236000 3                  LDQ     37
PL6.E3A0      #001=DAD$CGLOG File=DAD$CGLOG.:E05TSI                              TUE 07/29/97 12:40 Page:35
         2 000576   200034 756100                    STQ     @ADR+1,,AUTO
         2 000577   200040 452500                    STP2    P$+1,,AUTO
         2 000600   200040 236100                    LDQ     P$+1,,AUTO
         2 000601   000101 036000 3                  ADLQ    65
         2 000602   200033 756100                    STQ     HW1VEC+4,,AUTO
         2 000603   000660 701000 2                  TSX1    CNVRTADDR
         2 000604   000000 011000                    NOP     0

      229     7186    4                    CALL CNVRTADDR(KQ_LOGENT.PLUGH.X2,1);

   7186  2 000605   000046 236000 3                  LDQ     38
         2 000606   200034 756100                    STQ     @ADR+1,,AUTO
         2 000607   200040 452500                    STP2    P$+1,,AUTO
         2 000610   200040 236100                    LDQ     P$+1,,AUTO
         2 000611   000043 036000 3                  ADLQ    35
         2 000612   200033 756100                    STQ     HW1VEC+4,,AUTO
         2 000613   000660 701000 2                  TSX1    CNVRTADDR
         2 000614   000000 011000                    NOP     0

      230     7187    4                    CALL DAF$WRITE(VECTOR(EXPFMT),

   7187  2 000615   000106 630400 3                  EPPR0   70
         2 000616   000000 220000 xsym               LDX0    DAF$WRITE
         2 000617   000023 631400 xsym               EPPR1   B_VECTNIL+19
         2 000620   000000 701010                    TSX1    0,X0
         2 000621   000000 011000                    NOP     0

      231     7188    4                      VECTOR(TABS(2)),
      232     7189    4                      VECTOR(ENTNAMES(0)),
      233     7190    4                      VECTOR(TABS(5)),
      234     7191    4                      VECTOR(ENTNAMES(1)));
      235     7192    4                    END;

      236     7193    3   NXTENT:
      237     7194    3                 CURX=CURX+SIZEW(KQ$LOGENT);

   7194  2 000622   200007 235100       NXTENT       LDA     CURX,,AUTO
PL6.E3A0      #001=DAD$CGLOG File=DAD$CGLOG.:E05TSI                              TUE 07/29/97 12:40 Page:36
         2 000623   000010 035007                    ADLA    8,DL
         2 000624   200007 755100                    STA     CURX,,AUTO

      238     7195    3                 END;

   7195  2 000625   200006 470500                    LDP0    LOG$,,AUTO
         2 000626   200007 236100                    LDQ     CURX,,AUTO
         2 000627   000010 036007                    ADLQ    8,DL
         2 000630   000002 116100                    CMPQ    2,,PR0
         2 000631   000114 602000 2                  TNC     s:7111
         2 000632   000114 600000 2                  TZE     s:7111

      239     7196    2              LOG$=KQ$LOGHDR.LINK$;

   7196  2 000633   000000 236100                    LDQ     0,,PR0
         2 000634   200006 756100                    STQ     LOG$,,AUTO

      240     7197    2              IF LOG$=ADDR(NIL) THEN

   7197  2 000635   000001 116000 xsym               CMPQ    B_VECTNIL+1
         2 000636   000641 601000 2                  TNZ     s:7199

      241     7198    2                 LOG$=HDLOG$;

   7198  2 000637   200003 236100                    LDQ     HDLOG$,,AUTO
         2 000640   200006 756100                    STQ     LOG$,,AUTO

      242     7199    2              CALL DAM$MAP(LOG$,LOG$) ALTRET(ERR);

   7199  2 000641   200006 630500                    EPPR0   LOG$,,AUTO
         2 000642   200041 450500                    STP0    P$+2,,AUTO
         2 000643   200006 631500                    EPPR1   LOG$,,AUTO
         2 000644   200040 451500                    STP1    P$+1,,AUTO
         2 000645   200040 630500                    EPPR0   P$+1,,AUTO
         2 000646   000020 631400 xsym               EPPR1   B_VECTNIL+16
         2 000647   000000 701000 xent               TSX1    DAM$MAP
         2 000650   000657 702000 2                  TSX2    ERR
PL6.E3A0      #001=DAD$CGLOG File=DAD$CGLOG.:E05TSI                              TUE 07/29/97 12:40 Page:37

      243     7200    2              CURX=SIZEW(KQ$LOGENT);

   7200  2 000651   000010 235007                    LDA     8,DL
         2 000652   200007 755100                    STA     CURX,,AUTO

      244     7201    2              FLG='1'B;

   7201  2 000653   400000 236003                    LDQ     -131072,DU
         2 000654   200011 756100                    STQ     FLG,,AUTO

      245     7202    2              END;

   7202  2 000655   000113 710000 2                  TRA     s:7110

      246     7203        /**/
      247     7204    1   RET:
      248     7205    1           RETURN;

   7205  2 000656   000000 702200 xent  RET          TSX2  ! X66_ARET

      249     7206        /**/
      250     7207    1   ERR:    RETURN;

   7207  2 000657   000000 702200 xent  ERR          TSX2  ! X66_ARET

      251     7208        /**/
      252     7209        /**/
      253     7210    1   CNVRTADDR: PROC(ADR,INDX);

   7210  2 000660   200032 741300       CNVRTADDR    STX1  ! HW1VEC+3,,AUTO

      254     7211        /**/
      255     7212    2   DCL ADR UBIN HALF HALIGNED;
      256     7213    2   DCL INDX UBIN;
      257     7214        /**/
      258     7215    2   DCL I UBIN;
PL6.E3A0      #001=DAD$CGLOG File=DAD$CGLOG.:E05TSI                              TUE 07/29/97 12:40 Page:38
      259     7216    2   DCL OFS UBIN;
      260     7217    2   DCL P$ PTR;
      261     7218        /**/
      262     7219    2   DCL 1 NAM BASED ALIGNED,
      263     7220    2         2 LEN UBIN HALF HALIGNED,
      264     7221    2         2 TXT CHAR(NAM.LEN);
      265     7222
      266     7223
      267     7224    2           ENTNAMES(INDX)='0'B;

   7224  2 000661   200034 470500                    LDP0    @INDX,,AUTO
         2 000662   000000 235100                    LDA     0,,PR0
         2 000663   000002 735000                    ALS     2
         2 000664   000003 735000                    ALS     3
         2 000665   000005 100400                    MLR     fill='000'O
         2 000666   000002 000001 xsym               ADSC9   B_VECTNIL+2              cn=0,n=1
         2 000667   000001 000040 0                  ADSC9   ENTNAMES,A               cn=0,n=32

      268     7225    2           I=ADR;

   7225  2 000670   200033 471500                    LDP1    @ADR,,AUTO
         2 000671   000100 101500                    MRL     fill='000'O
         2 000672   100000 000002                    ADSC9   0,,PR1                   cn=0,n=2
         2 000673   200035 000004                    ADSC9   I,,AUTO                  cn=0,n=4

      269     7226    3           IF I~=0 THEN DO;

   7226  2 000674   200035 235100                    LDA     I,,AUTO
         2 000675   000763 600000 2                  TZE     OCTAL

      270     7227    3              CALL DAS$IC2PED(I,P$) ALTRET(OCTAL);

   7227  2 000676   200037 633500                    EPPR3   P$,,AUTO
         2 000677   200041 453500                    STP3    P$+2,,AUTO
         2 000700   200035 634500                    EPPR4   I,,AUTO
         2 000701   200040 454500                    STP4    P$+1,,AUTO
         2 000702   200040 630500                    EPPR0   P$+1,,AUTO
PL6.E3A0      #001=DAD$CGLOG File=DAD$CGLOG.:E05TSI                              TUE 07/29/97 12:40 Page:39
         2 000703   000020 631400 xsym               EPPR1   B_VECTNIL+16
         2 000704   000000 701000 xent               TSX1    DAS$IC2PED
         2 000705   000763 702000 2                  TSX2    OCTAL

      271     7228    3              OFS=I-P$->B$EDEF.ISADDR;

   7228  2 000706   200037 470500                    LDP0    P$,,AUTO
         2 000707   000000 236100                    LDQ     0,,PR0
         2 000710   000032 376000 xsym               ANQ     B_VECTNIL+26
         2 000711   200040 756100                    STQ     P$+1,,AUTO
         2 000712   200035 236100                    LDQ     I,,AUTO
         2 000713   200040 136100                    SBLQ    P$+1,,AUTO
         2 000714   200036 756100                    STQ     OFS,,AUTO

      272     7229    3              P$=PINCRW(DA_DNAME$,P$->B$EDEF.NPOINTER);

   7229  2 000715   000001 220100                    LDX0    1,,PR0
         2 000716   000000 636010                    EAQ     0,X0
         2 000717   000000 036000 xsym               ADLQ    DA_DNAME$
         2 000720   200037 756100                    STQ     P$,,AUTO

      273     7230    3              ENTNAMES.TXTC.LEN(INDX)=P$->NAM.LEN;

   7230  2 000721   200034 470500                    LDP0    @INDX,,AUTO
         2 000722   000000 235100                    LDA     0,,PR0
         2 000723   000002 735000                    ALS     2
         2 000724   000001 735000                    ALS     1
         2 000725   200037 471500                    LDP1    P$,,AUTO
         2 000726   100000 236100                    LDQ     0,,PR1
         2 000727   000011 736000                    QLS     9
         2 000730   000001 676005 0                  ERQ     ENTNAMES,AL
         2 000731   777000 376003                    ANQ     -512,DU
         2 000732   000001 656005 0                  ERSQ    ENTNAMES,AL

      274     7231    3              ENTNAMES.TXTC.TXT(INDX)=P$->NAM.TXT;

   7231  2 000733   000000 235100                    LDA     0,,PR0
PL6.E3A0      #001=DAD$CGLOG File=DAD$CGLOG.:E05TSI                              TUE 07/29/97 12:40 Page:40
         2 000734   000002 735000                    ALS     2
         2 000735   100000 220100                    LDX0    0,,PR1
         2 000736   000003 735000                    ALS     3
         2 000737   040005 100540                    MLR     fill='040'O
         2 000740   100000 400010                    ADSC9   0,,PR1                   cn=2,n=*X0
         2 000741   000001 200023 0                  ADSC9   ENTNAMES,A               cn=1,n=19

      275     7232    4              IF OFS~=0 THEN DO;

   7232  2 000742   200036 235100                    LDA     OFS,,AUTO
         2 000743   000776 600000 2                  TZE     s:7243

      276     7233    4                 ENTNAMES.FLGP(INDX)=1;

   7233  2 000744   000000 235100                    LDA     0,,PR0
         2 000745   000002 735000                    ALS     2
         2 000746   000001 735000                    ALS     1
         2 000747   000001 236007                    LDQ     1,DL
         2 000750   000006 756005 0                  STQ     ENTNAMES+5,AL

      277     7234    4                 ENTNAMES.FLGN(INDX)=1;

   7234  2 000751   000000 235100                    LDA     0,,PR0
         2 000752   000002 735000                    ALS     2
         2 000753   000001 735000                    ALS     1
         2 000754   000007 756005 0                  STQ     ENTNAMES+6,AL

      278     7235    4                 ENTNAMES.OFFSET(INDX)=OFS;

   7235  2 000755   000000 235100                    LDA     0,,PR0
         2 000756   000002 735000                    ALS     2
         2 000757   000001 735000                    ALS     1
         2 000760   200036 236100                    LDQ     OFS,,AUTO
         2 000761   000010 756005 0                  STQ     ENTNAMES+7,AL

      279     7236    4                 END;

PL6.E3A0      #001=DAD$CGLOG File=DAD$CGLOG.:E05TSI                              TUE 07/29/97 12:40 Page:41
      280     7237    3              END;

   7237  2 000762   000776 710000 2                  TRA     s:7243

      281     7238    3           ELSE DO;

      282     7239    3   OCTAL:     ENTNAMES.FLGP(INDX)=1;

   7239  2 000763   200034 470500       OCTAL        LDP0    @INDX,,AUTO
         2 000764   000000 235100                    LDA     0,,PR0
         2 000765   000002 735000                    ALS     2
         2 000766   000001 735000                    ALS     1
         2 000767   000001 236007                    LDQ     1,DL
         2 000770   000006 756005 0                  STQ     ENTNAMES+5,AL

      283     7240    3              ENTNAMES.OFFSET(INDX)=I;

   7240  2 000771   000000 235100                    LDA     0,,PR0
         2 000772   000002 735000                    ALS     2
         2 000773   000001 735000                    ALS     1
         2 000774   200035 236100                    LDQ     I,,AUTO
         2 000775   000010 756005 0                  STQ     ENTNAMES+7,AL

      284     7241    3              END;

      285     7242        /**/
      286     7243    2           RETURN;

   7243  2 000776   200032 221300                    LDX1  ! HW1VEC+3,,AUTO
         2 000777   000001 702211                    TSX2  ! 1,X1
      287     7244    2   END CNVRTADDR;
      288     7245        /**/
      289     7246    1   END DAD$CGLOG;

PL6.E3A0      #001=DAD$CGLOG File=DAD$CGLOG.:E05TSI                              TUE 07/29/97 12:40 Page:42
--  Include file information  --

   KQ_SUBS_C.:E05TOU  is referenced.
   KQ_MAC_C.:E05TOU  is referenced.
   DA_MONSYM_C.:E05TOU  is referenced.
   DA_TEXTC_C.:E05TOU  is referenced.
   DA_SYMBOLS_R.:E05TOU  cannot be made into a system file and is referenced.
   DA_MAP_R.:E05TOU  cannot be made into a system file and is referenced.
   DA_FORMAT_C.:E05TOU  is referenced.
   B$OBJECT_C.:E05TOU  is referenced.
      No diagnostics issued in procedure DAD$CGLOG.
PL6.E3A0      #001=DAD$CGLOG File=DAD$CGLOG.:E05TSI                              TUE 07/29/97 12:40 Page:43

 **** Variables and constants ****

  ****  Section 000  Data  DAD$CGLOG

  ****  Scalars and arrays  ****
OctLoc.c.b A Datatyp(siz) R M Lvl/name                 OctLoc.c.b A Datatyp(siz) R M Lvl/name

    21-0-0/w STRC(288)   r     1 CGLRPT                    35-0-0/w STRC(144)   r     1 CGLRPTHD00
    41-0-0/w STRC(144)   r     1 CGLRPTHD01                31-0-0/c STRC(117)   r     1 CGLRPTTX00
     1-0-0/w STRC(288)   r     1 ENTNAMES(0:1)
     0-0-0/b BIT         r     1 EXP_ADR

  ****  Section 001 RoData DAD$CGLOG

  ****  Scalars and arrays  ****
OctLoc.c.b A Datatyp(siz) R M Lvl/name                 OctLoc.c.b A Datatyp(siz) R M Lvl/name

   231-0-0/c CHAR(68)    r     1 BYTDECFMT                117-0-0/c CHAR(70)    r     1 DFLT1FMT
    75-0-0/c CHAR(69)    r     1 DFLTFMT                  412-0-0/c CHAR(6)     r     1 DLTTAB(0:4)
   370-0-0/c CHAR(6)     r     1 ENTTAB(0:11)             252-0-0/c CHAR(51)    r     1 EXPFMT
   163-0-0/c CHAR(70)    r     1 FTCHFMT                  141-0-0/c CHAR(70)    r     1 GETFMT
     0-0-0/c STRC(1080)  r     1 HDRBUF1                   36-0-0/c STRC(1098)  r     1 HDRBUF2
   205-0-0/c CHAR(77)    r     1 STAFMT                   422-0-0/w UBIN        r     1 TABS(0:5)
   267-0-0/c CHAR(6)     r     1 TYPTAB(0:42)

  ****  Auto variables  ****

  ****  Scalars and arrays  ****
OctLoc.c.b A Datatyp(siz) R M Lvl/name                 OctLoc.c.b A Datatyp(siz) R M Lvl/name

    33-0-0/w PTR         r     1 @ADR                      34-0-0/w PTR         r     1 @INDX
    *0-0-0/h UBIN(18)    r     1 ADR                        5-0-0/w UBIN        r     1 BEGINX
     4-0-0/w PTR         r     1 CURLOG$                    7-0-0/w UBIN        r     1 CURX
    11-0-0/b BIT         r     1 FLG                       23-0-0/b BIT (72)    r     1 FMTVEC
     3-0-0/w PTR         r     1 HDLOG$                    27-0-0/b BIT (72)    r     1 HW1VEC
    35-0-0/w UBIN        r     1 I                         *0-0-0/w UBIN        r     1 INDX
    13-0-0/w STRC(288)   r     1 KQ_LOGENT                  6-0-0/w PTR         r     1 LOG$
PL6.E3A0      #001=DAD$CGLOG File=DAD$CGLOG.:E05TSI                              TUE 07/29/97 12:40 Page:44
    36-0-0/w UBIN        r     1 OFS                       37-0-0/w PTR         r     1 P$
    25-0-0/b BIT (72)    r     1 TYPVEC

  ****  SYMREF variables  ****

  ****  Scalars and arrays  ****
OctLoc.c.b A Datatyp(siz) R M Lvl/name                 OctLoc.c.b A Datatyp(siz) R M Lvl/name

     0-0-0/w EPTR        r     1 DAF$WRITE                  0-0-0/w PTR         r     1 DA_DNAME$
     0-0-0/b BIT (72)    r     1 DA_MONISDATA

  ****  BASED and DCB variables  ****

  ****  Scalars and arrays  ****
OctLoc.c.b A Datatyp(siz) R M Lvl/name                 OctLoc.c.b A Datatyp(siz) R M Lvl/name

     0-0-0/w STRC(72)    r     1 B$EDEF                     0-0-0/w STRC(288)   r     1 KQ$LOGENT
     0-0-0/w STRC(108)   r     1 KQ$LOGHDR                  0-0-0/w ASTR(18)    r     1 NAM
     0-0-0/w PTR         r     1 PTR$


   Procedure DAD$CGLOG requires 512 words for executable code.
   Procedure DAD$CGLOG requires 98 words of local(AUTO) storage.

    No errors detected in file DAD$CGLOG.:E05TSI    .
PL6.E3A0      #001=DAD$CGLOG File=DAD$CGLOG.:E05TSI                              TUE 07/29/97 12:40 Page:45
          *** CROSS REFERENCE LISTING ***
**     DENOTES     IDENTIFIER DEFINITION
<<                 IDENTIFIER'S VALUE SET
>>                 IDENTIFIER'S VALUE USED
<>                 IDENTIFIER SET AND/OR USED
--                 IDENTIFIER REFERENCED
PL6.E3A0      #001=DAD$CGLOG File=DAD$CGLOG.:E05TSI                              TUE 07/29/97 12:40 Page:46
          MINI XREF LISTING

ADR IN PROCEDURE CNVRTADDR
      7212**DCL      7210--PROC     7225>>ASSIGN
B$EDEF.ISADDR
      6778**DCL      7228>>ASSIGN
B$EDEF.NPOINTER
      6780**DCL      7229>>ASSIGN
B$EDEF.OU
      6772**DCL      6778--REDEF
BEGINX
      6685**DCL      7107<<ASSIGN   7111>>IF
BYTDECFMT
      7068**DCL      7149--ASSIGN
CGLRPT
      6915**DCL      7104<>CALL
CGLRPTHD00
      6981**DCL      6950--DCLINIT
CGLRPTHD01
      7023**DCL      6996--DCLINIT
CGLRPTTX00
      6958**DCL      6945--DCLINIT
CNVRTADDR
      7210**PROC     7169--CALL     7172--CALL     7178--CALL     7179--CALL     7185--CALL     7186--CALL
CURLOG$
      6684**DCL      7096<>CALL     7097<>CALL     7097<>CALL     7098<<ASSIGN   7098>>ASSIGN   7099>>IF
      7101<>CALL     7102<<ASSIGN   7111>>IF
CURX
      6687**DCL      7106<<ASSIGN   7107>>ASSIGN   7110>>DOWHILE  7111>>IF       7113>>ASSIGN   7194<<ASSIGN
      7194>>ASSIGN   7200<<ASSIGN
DAF$INIT
      6673**DCL-ENT  7104--CALL
DAF$WRITE
      6674**DCL      7164>>CALL     7173>>CALL     7180>>CALL     7187>>CALL
PL6.E3A0      #001=DAD$CGLOG File=DAD$CGLOG.:E05TSI                              TUE 07/29/97 12:40 Page:47
DAM$MAP
      6675**DCL-ENT  7091--CALL     7097--CALL     7101--CALL     7199--CALL
DAS$IC2PED
      6676**DCL-ENT  7227--CALL
DAS$SDMONPTR
      6677**DCL-ENT  7090--CALL     7096--CALL
DA_DNAME$
      3727**DCL      7229>>ASSIGN
DA_MAPSEG.P
      3713**DCL      3714--REDEF
DA_MONISDATA
      3706**DCL      7091<>CALL     7097<>CALL
DA_SDASN.DESC.TYPE0
      3698**DCL      3698--REDEF
DA_SYMSEG.P
      3726**DCL      3727--REDEF
DA_TIGRSEG.P
      3714**DCL      3715--REDEF
DFLT1FMT
      7060**DCL      7120--ASSIGN
DFLTFMT
      7058**DCL      7153--ASSIGN
DLTTAB
      7084**DCL      7134--ASSIGN   7135--ASSIGN
ENTNAMES
      6742**DCL      7171<<ASSIGN   7173--CALL     7173--CALL     7180--CALL     7180--CALL     7187--CALL
      7187--CALL     7224<<ASSIGN
ENTNAMES.FLGN
      6747**DCL      7234<<ASSIGN
ENTNAMES.FLGP
      6746**DCL      7233<<ASSIGN   7239<<ASSIGN
ENTNAMES.OFFSET
      6748**DCL      7235<<ASSIGN   7240<<ASSIGN
ENTNAMES.TXTC.LEN
      6744**DCL      7230<<ASSIGN
ENTNAMES.TXTC.TXT
PL6.E3A0      #001=DAD$CGLOG File=DAD$CGLOG.:E05TSI                              TUE 07/29/97 12:40 Page:48
      6745**DCL      7231<<ASSIGN
ENTTAB
      7081**DCL      7129--ASSIGN   7130--ASSIGN   7136--ASSIGN   7140--ASSIGN   7141--ASSIGN
ERR
      7207**LABEL    7090--CALLALT  7091--CALLALT  7096--CALLALT  7097--CALLALT  7101--CALLALT  7199--CALLALT
EXPFMT
      7070**DCL      7173--CALL     7180--CALL     7187--CALL
EXP_ADR
      6741**DCL      7167>>IF
FLG
      6689**DCL      7108<<ASSIGN   7111>>IF       7201<<ASSIGN
FMTVEC
      6733**DCL      7120<<ASSIGN   7123<<ASSIGN   7127<<ASSIGN   7132<<ASSIGN   7138<<ASSIGN   7146<<ASSIGN
      7149<<ASSIGN   7153<<ASSIGN   7164<>CALL
FTCHFMT
      7064**DCL      7127--ASSIGN   7132--ASSIGN   7138--ASSIGN
GETFMT
      7062**DCL      7123--ASSIGN
HDLOG$
      6683**DCL      7090<>CALL     7091<>CALL     7091<>CALL     7092<<ASSIGN   7092>>ASSIGN   7093>>IF
      7198>>ASSIGN
HDRBUF1
      7048**DCL      6987--DCLINIT
HDRBUF1.TXT
      7050**DCL      7049--DCLINIT
HDRBUF2
      7053**DCL      7029--DCLINIT
HDRBUF2.TXT
      7055**DCL      7054--DCLINIT
HW1VEC
      6735**DCL      7117<<ASSIGN   7129<<ASSIGN   7130<<ASSIGN   7136<<ASSIGN   7140<<ASSIGN   7141<<ASSIGN
      7164<>CALL
I IN PROCEDURE CNVRTADDR
      7215**DCL      7225<<ASSIGN   7226>>IF       7227<>CALL     7228>>ASSIGN   7240>>ASSIGN
INDX IN PROCEDURE CNVRTADDR
      7213**DCL      7210--PROC     7224>>ASSIGN   7230>>ASSIGN   7231>>ASSIGN   7233>>ASSIGN   7234>>ASSIGN
PL6.E3A0      #001=DAD$CGLOG File=DAD$CGLOG.:E05TSI                              TUE 07/29/97 12:40 Page:49
      7235>>ASSIGN   7239>>ASSIGN   7240>>ASSIGN
KQ$LOGENT
      6838**DCL      7110--DOWHILE  7113>>ASSIGN   7194--ASSIGN   7200--ASSIGN
KQ$LOGHDR.CURX
      6882**DCL      7106>>ASSIGN
KQ$LOGHDR.LINK$
      6880**DCL      7196>>ASSIGN
KQ$LOGHDR.SIZ
      6884**DCL      7110>>DOWHILE
KQ_LOGENT
      6705**DCL      7113<<ASSIGN   7114>>IF
KQ_LOGENT.BYT
      6718**DCL      7164--CALL
KQ_LOGENT.CGX
      6710**DCL      7164--CALL
KQ_LOGENT.HW1
      6712**DCL      7117--ASSIGN   7128>>IF       7129>>ASSIGN   7133>>IF       7134>>ASSIGN   7139>>IF
      7140>>ASSIGN
KQ_LOGENT.HW2
      6720**DCL      7164--CALL
KQ_LOGENT.PLUGH.INTRET
      6729**DCL      7164--CALL     7168>>IF       7169<>CALL
KQ_LOGENT.PLUGH.RET
      6727**DCL      7164--CALL     7172<>CALL     7178<>CALL     7179<>CALL     7185<>CALL
KQ_LOGENT.PLUGH.X2
      6731**DCL      7164--CALL     7186<>CALL
KQ_LOGENT.TIME
      6714**DCL      7164--CALL
KQ_LOGENT.TYP
      6716**DCL      7116>>ASSIGN   7118>>DOCASE   7121--ASSIGN
KQ_LOGENT.W1
      6722**DCL      7164--CALL
KQ_LOGENT.W2
      6724**DCL      7164--CALL
LOG$
      6686**DCL      6879--IMP-PTR  7101<>CALL     7102>>ASSIGN   7106>>ASSIGN   7110>>DOWHILE  7111>>IF
PL6.E3A0      #001=DAD$CGLOG File=DAD$CGLOG.:E05TSI                              TUE 07/29/97 12:40 Page:50
      7113>>ASSIGN   7196<<ASSIGN   7196>>ASSIGN   7197>>IF       7198<<ASSIGN   7199<>CALL     7199<>CALL
NAM.LEN IN PROCEDURE CNVRTADDR
      7220**DCL      7221--IMP-SIZ  7230>>ASSIGN   7231>>ASSIGN
NAM.TXT IN PROCEDURE CNVRTADDR
      7221**DCL      7231>>ASSIGN
NXTENT
      7194**LABEL    7115--GOTO
OCTAL IN PROCEDURE CNVRTADDR
      7239**LABEL    7227--CALLALT
OFS IN PROCEDURE CNVRTADDR
      7216**DCL      7228<<ASSIGN   7232>>IF       7235>>ASSIGN
P$ IN PROCEDURE CNVRTADDR
      7217**DCL      7227<>CALL     7228>>ASSIGN   7229<<ASSIGN   7229>>ASSIGN   7230>>ASSIGN   7231>>ASSIGN
      7231>>ASSIGN
PTR$
      6887**DCL      7092>>ASSIGN   7098>>ASSIGN
RET
      7205**LABEL    7112--GOTO
STAFMT
      7066**DCL      7146--ASSIGN
TABS
      7086**DCL      7173--CALL     7173--CALL     7180--CALL     7180--CALL     7187--CALL     7187--CALL
TYPTAB
      7074**DCL      7116--ASSIGN
TYPVEC
      6734**DCL      7116<<ASSIGN   7121<<ASSIGN   7134<<ASSIGN   7135<<ASSIGN   7164<>CALL
