PL6.E3A0      #001=DAD$CGS File=DAD$CGS.:E05TSI                                  TUE 07/29/97 12:40 Page:1
        1        1        /*M* DAD$CGS - Comgroup oriented commands for ANLZ */
        2        2        /*T***********************************************************/
        3        3        /*T*                                                         */
        4        4        /*T* Copyright (c) Bull HN Information Systems Inc., 1997    */
        5        5        /*T*                                                         */
        6        6        /*T***********************************************************/
        7        7        /*X* DMC,PLM=6,IND=0,IDT=2,SDI=2,CTI=0,ENU=0,AND,DCI=4,CSU=2,ECU=4,THI=0,DTI=0,STI=2
                 7        ,IAD=0,PRB */
        8        8        /*P* NAME:        DAD$CGS
        9        9             PURPOSE:     This module contains the routines used to implement
       10       10                          the comgroup oriented ANLZ displays and commands.
       11       11             DESCRIPTION: This module contains various external routines that
       12       12                          implement the comgroup oriented ANLZ displays and
       13       13                          commands. They are as follows:
       14       14                            CG SUMMARY - Summary of all CGs.
       15       15                            CG [cgid] - Set & display current CG.
       16       16                            DATA CACHE [for cgid] - Data from KQ$CG.
       17       17                            MMD [for cgid] - Data from KQ$CG.
       18       18                            GARB [for cgid] - Data from KQ$CG.
       19       19                            QUEUE [for cgid] - Data from KQ$CG.
       20       20                            DTREE [for cgid] - Data cache tree.
       21       21                            STREE [for cgid] - Station tree.
       22       22                            TTREE [for cgid] - Msgtyp tree.
       23       23                            QTREE [for cgid] - Anonymous queue tree.
       24       24                            MLH   [for cgid] - MLH displays.
       25       25                            DFRBLKS [for cgid] - DFRBLK displays.
       26       26                            MSGLIST location [,count] - Message list display. */
       27       27        %EJECT;
PL6.E3A0      #001=DAD$CGS File=DAD$CGS.:E05TSI                                  TUE 07/29/97 12:40 Page:2
       28       28
       29       29        DAD$CGS: PROC (TOP);
       30       30
       31       31        /* Includes */
       32       32
       33       33        %INCLUDE B$OBJECT_C;
       34     3463        %INCLUDE B$TABLES_C;
       35     3571        %INCLUDE DA_ANLZ_R;
       36     3584        %INCLUDE DA_MAP_R;
       37     3614        %INCLUDE DA_TEXTC_C;
       38     3645        %INCLUDE DA_MONSYM_C;
       39     3696        %INCLUDE DA_SYMBOLS_R;
       40     3709        %INCLUDE DA_PERR_C;
       41     3773        %INCLUDE DA_FORMAT_C;
       42     4015        %INCLUDE DA_CMD_C;
       43     4364        %INCLUDE FM$CFU;
       44     4409        %INCLUDE FM$SET;
       45     4436        %INCLUDE KC$CP6V_C;
       46     4556        %INCLUDE CP_6;
       47    10115        %INCLUDE KQM_MAC_C;
       48    10488        %INCLUDE KQ_MAC_C;
       49    13038        %INCLUDE KQ_SUBS_C;
       50    13338        %INCLUDE XU_MACRO_C;
       51    16444        %INCLUDE XU_SUBS_C;
       52    16536
       53    16537        /* Parameters */
       54    16538
       55    16539        %PARSE$OUT (NAME=TOP,STCLASS=" ");
       56    16584
       57    16585        /* Macros */
       58    16586
       59    16587        %MACRO $ERROR (NAME=GORGO,CODE=0);
       60    16588        DCL 1 NAME CONSTANT ALIGNED,
       61    16589              2 * BIT(18) UNAL INIT('040104'O), /* 'DAD' */
       62    16590              2 * UBIN(15) UNAL INIT(CODE),
       63    16591              2 * UBIN(3) UNAL INIT(0);
       64    16592        %MEND;
PL6.E3A0      #001=DAD$CGS File=DAD$CGS.:E05TSI                                  TUE 07/29/97 12:40 Page:3
       65    16593
       66    16594        /* Based */
       67    16595
       68    16596        %B$EDEF;
       69    16666    1   DCL BIT$72DA BIT(72) BASED DALIGNED;
       70    16667    1   DCL BIT$WORD BIT(36) BASED ALIGNED;
       71    16668    1   DCL PTR$WORD PTR BASED ALIGNED;
       72    16669
       73    16670        %B$XL_ASC_DUMP (NAME=DA_PRINTABLE_TBL);
       74    16674        %FM$CFU;
       75    16680        %FM$CFUA;
       76    16686        %FM$CFUN;
       77    16689        %FM$CFUX (BASED="BASED");
       78    16694        %FM$SET (ARY=" ");
       79    16699        %FM$SET (FM$SET=FM$SETA);
       80    16704        %KQ_BTN (FPTN=KQ$BTN,STCLASS="BASED");
       81    16736        %KQ_CG (FPTN=KQ$CG,STCLASS="BASED(M@CG$)");
       82    17475        %KQ_DFRBLK (FPTN=KQ$DFRBLK,STCLASS="BASED(M@DFR$)");
       83    17525        %KQ$DPTR;
       84    17552        %KQ_GRAN (FPTN=KQ$GRAN,STCLASS="BASED");
       85    17607        %KQ_MBLK (FPTN=KQ$MBLK,SUPR=0,STCLASS="BASED(M@MBLK$)");
       86    17877        %KQ_MBLK (FPTN=KQ$SMBLK,SUPR=1,STCLASS="BASED(M@MBLK$)");
       87    18147        %KQ_MLH (FPTN=KQ$MLH,STCLASS="BASED");
       88    18217        %KQ_MMSD (FPTN=KQ$MMSD,STCLASS="BASED");
       89    18254        %KQ_MTYP (FPTN=KQ$MTYP,STCLASS="BASED");
       90    18328        %KQ_QTN (FPTN=KQ$QTN,STCLASS="BASED");
       91    18801        %KQ_RBLK (FPTN=KQ$RBLK,STCLASS="BASED");
       92    18987        %KQ_STA (FPTN=KQ$STA,STCLASS="BASED");
       93    19326        %KQ_THDR (FPTN=KQ$THDR,STCLASS="BASED");
       94    19364        %PARSE$OUT (NAME=OUT$BLK,STCLASS="BASED");
       95    19409        %PARSE$SYM (NAME=OUT$SYM,STCLASS="BASED");
       96    19447
       97    19448        /* Auto */
       98    19449
       99    19450    1   DCL COUNT UBIN;
      100    19451    1   DCL CG$ PTR;
      101    19452    1   DCL M@CG$ PTR;
PL6.E3A0      #001=DAD$CGS File=DAD$CGS.:E05TSI                                  TUE 07/29/97 12:40 Page:4
      102    19453    1   DCL DFR$ PTR;
      103    19454    1   DCL M@DFR$ PTR;
      104    19455    1   DCL M@DSB$ PTR;
      105    19456    1   DCL F$CFU$ PTR;
      106    19457    1   DCL M@F$CFU$ PTR;
      107    19458    1   DCL MBLK$ PTR;
      108    19459    1   DCL M@MBLK$ PTR;
      109    19460    1   DCL MLH$ PTR;
      110    19461    1   DCL M@MLH$ PTR;
      111    19462    1   DCL QTREEHD$ PTR;
      112    19463    1   DCL GATE BIT(72) DALIGNED;
      113    19464    1   DCL TEMP$ PTR;
      114    19465    1   DCL M@TEMP$ PTR;
      115    19466    1   DCL DFRFMT_ BIT(72) ALIGNED;
      116    19467    1   DCL I UBIN;
      117    19468    1   DCL CUR$ PTR;
      118    19469    1   DCL M@CUR$ PTR;
      119    19470    1   DCL 1 MLHD,
      120    19471    1         2 X,
      121    19472    1           3 W UBIN,
      122    19473    1           3 D UBIN,
      123    19474    1           3 N CHAR(8),
      124    19475    1         2 Q UBIN,
      125    19476    1         2 H,
      126    19477    1           3 W UBIN,
      127    19478    1           3 D UBIN,
      128    19479    1           3 N UBIN,
      129    19480    1         2 T,
      130    19481    1           3 W UBIN,
      131    19482    1           3 D UBIN,
      132    19483    1           3 N UBIN,
      133    19484    1         2 D,
      134    19485    1           3 W UBIN,
      135    19486    1           3 D UBIN,
      136    19487    1           3 N UBIN,
      137    19488    1         2 S UBIN,
      138    19489    1         2 C UBIN,
PL6.E3A0      #001=DAD$CGS File=DAD$CGS.:E05TSI                                  TUE 07/29/97 12:40 Page:5
      139    19490    1         2 B CHAR(4),
      140    19491    1         2 RUSR UBIN,
      141    19492    1         2 G UBIN,
      142    19493    1         2 P UBIN(18) UNAL,
      143    19494    1         2 RQGC BIT(1) UNAL,
      144    19495    1         2 RQMEM BIT(1) UNAL;
      145    19496    1   DCL 1 MSGD,
      146    19497    1         2 NUM UBIN,
      147    19498    1         2 X,
      148    19499    1           3 W UBIN,
      149    19500    1           3 D UBIN,
      150    19501    1         2 S CHAR(1),
      151    19502    1         2 KEY1 CHAR(8),
      152    19503    1         2 KEY2 CHAR(8),
      153    19504    1         2 STAR CHAR(1),
      154    19505    1         2 KEY1ALL REDEF STAR CHAR(1),
      155    19506    1         2 DVBYTE BIT(9),
      156    19507    1         2 KEY2ALL REDEF DVBYTE CHAR(1),
      157    19508    1         2 * CHAR(1),
      158    19509    1         2 MSGSIZE UBIN,
      159    19510    1         2 COUNT REDEF MSGSIZE UBIN,
      160    19511    1         2 PRIO UBIN HALF UNAL,
      161    19512    1         2 EV,
      162    19513    1           3 EOM CHAR(1),
      163    19514    1           3 VFC CHAR(1),
      164    19515    1         2 PRIOLO REDEF EV UBIN HALF UNAL,
      165    19516    1         2 LNK CHAR(3),
      166    19517    1         2 * CHAR(1),
      167    19518    1         2 DDA UBIN,
      168    19519    1         2 UTS UBIN,
      169    19520    1         2 MIDPRI UBIN,
      170    19521    1         2 UTSHI REDEF MIDPRI UBIN,
      171    19522    1         2 MIDXTN UBIN,
      172    19523    1         2 INSHDW REDEF MIDXTN UBIN,
      173    19524    1         2 MIDXT UBIN,
      174    19525    1         2 INSHDD REDEF MIDXT UBIN,
      175    19526    1         2 INSHDN UBIN;
PL6.E3A0      #001=DAD$CGS File=DAD$CGS.:E05TSI                                  TUE 07/29/97 12:40 Page:6
      176    19527    1   DCL 1 DFRD,
      177    19528    1         2 CODE CHAR(8),
      178    19529    1         2 ENTPTR CHAR(10),
      179    19530    1         2 * CHAR(2),
      180    19531    1         2 GO CHAR(1),
      181    19532    1         2 EVNT CHAR(1),
      182    19533    1         2 ABORT CHAR(1),
      183    19534    1         2 GFLG CHAR(1),
      184    19535    1         2 DA,
      185    19536    1           3 V UBIN,
      186    19537    1           3 N UBIN,
      187    19538    1         2 DDA,
      188    19539    1           3 V UBIN,
      189    19540    1           3 N UBIN,
      190    19541    1         2 DBLK,
      191    19542    1           3 V UBIN,
      192    19543    1           3 N UBIN,
      193    19544    1         2 DGRAN$,
      194    19545    1           3 W UBIN,
      195    19546    1           3 D UBIN,
      196    19547    1           3 N1 UBIN,
      197    19548    1           3 N UBIN,
      198    19549    1         2 USR,
      199    19550    1           3 V UBIN,
      200    19551    1           3 N UBIN,
      201    19552    1         2 ERR,
      202    19553    1           3 V UBIN,
      203    19554    1           3 N UBIN,
      204    19555    1         2 INFO,
      205    19556    1           3 V UBIN,
      206    19557    1           3 N UBIN,
      207    19558    1         2 SELF$,
      208    19559    1           3 W UBIN,
      209    19560    1           3 D UBIN;
      210    19561    1   DCL 1 DTD (0:2),
      211    19562    1         2 W UBIN,
      212    19563    1         2 D UBIN,
PL6.E3A0      #001=DAD$CGS File=DAD$CGS.:E05TSI                                  TUE 07/29/97 12:40 Page:7
      213    19564    1         2 K BIT(36);
      214    19565    1   DCL 1 TTD (0:1),
      215    19566    1         2 W UBIN,
      216    19567    1         2 D UBIN,
      217    19568    1         2 M CHAR(8),
      218    19569    1         2 N UBIN,
      219    19570    1         2 J UBIN,
      220    19571    1         2 P UBIN;
      221    19572    1   DCL 1 STD,
      222    19573    1         2 X,
      223    19574    1           3 W UBIN,
      224    19575    1           3 D UBIN,
      225    19576    1           3 N CHAR(8),
      226    19577    1         2 S CHAR(4),
      227    19578    1         2 L UBIN,
      228    19579    1         2 I UBIN,
      229    19580    1         2 T UBIN,
      230    19581    1         2 U UBIN,
      231    19582    1         2 C UBIN,
      232    19583    1         2 R UBIN,
      233    19584    1         2 E UBIN;
      234    19585    1   DCL 1 QTD,
      235    19586    1         2 W UBIN,
      236    19587    1         2 D UBIN,
      237    19588    1         2 N CHAR(8),
      238    19589    1         2 A UBIN,
      239    19590    1         2 RW UBIN,
      240    19591    1         2 RD UBIN,
      241    19592    1         2 RN UBIN,
      242    19593    1         2 L UBIN,
      243    19594    1         2 C UBIN;
      244    19595    1   DCL 1 R,
      245    19596    1         2 W UBIN,
      246    19597    1         2 D UBIN,
      247    19598    1         2 N UBIN;
      248    19599    1   DCL TMAXBP UBIN;
      249    19600    1   DCL TMINBP UBIN;
PL6.E3A0      #001=DAD$CGS File=DAD$CGS.:E05TSI                                  TUE 07/29/97 12:40 Page:8
      250    19601    1   DCL TCURBP UBIN;
      251    19602    1   DCL TMAXDP UBIN;
      252    19603    1   DCL TMINDP UBIN;
      253    19604    1   DCL TCURDP UBIN;
      254    19605    1   DCL TCURPG UBIN;
      255    19606
      256    19607    1   DCL TEXTFID CHAR(50);
      257    19608    1   DCL TEXTFIDL UBIN;
      258    19609        %VLP_NAME (FPTN=TFID_NAME);
      259    19636        %VLP_ACCT (FPTN=TFID_ACCT);
      260    19649    1   DCL TFID_ASN UBIN STATIC;
      261    19650        %FPT_FID (NAME=TFID_NAME,ACCT=TFID_ACCT,ASN=TFID_ASN);
      262    19673
      263    19674        /* Constant */
      264    19675    1   DCL STARTBL(0:1) CONSTANT CHAR(1) INIT(' ','*');
      265    19676    1   DCL PS0 CONSTANT UBIN INIT(0);
      266    19677    1   DCL PS0$ REDEF PS0 PTR;
      267    19678
      268    19679        %REPORT (TITLE='COMGROUP SUMMARY',NAME=CGSRPT,
      269    19680                 TRUNC=YES,HEADER=YES);
      270    19746        %HEADER (LAST=NO,TEXT=
      271    19747        "' CTXT @   DSB$    CFU$   AU STA    AUSTA$   TERMs DCBs FID:name.acct(packset)'");
      272    19789        %HEADER (TEXT=
      273    19790         '------- ------- ------- -------- ---------- ----- ---- ------------------------');
      274    19832    1   DCL CGSFMT CHAR(0) CONSTANT INIT(
      275    19833    1   '.%6ZO .%6ZO .%6ZO %8A .%6ZO/%2ZD%N(%34- ***NIL***%) %5*D %4*D %>T%S.%>A(%>A)' );
      276    19834        %REPORT (TITLE='COMGROUP MEMORY SUMMARY',NAME=CGMSRPT,
      277    19835                 TRUNC=YES,HEADER=YES);
      278    19901        %HEADER (LAST=NO,TEXT=
      279    19902        "' CTXT @ MAXBP  MINBP  CURBP  MAXDP  MINDP  CURDP CURPG FID:name.acct(packset)'");
      280    19944        %HEADER (TEXT=
      281    19945         '------- -----  -----  -----  -----  -----  ----- ----- ------------------------');
      282    19987    1   DCL CGMSFMT CHAR(0) CONSTANT INIT(
      283    19988    1   '.%6ZO %5*D  %5*D  %5*D  %5*D  %5*D  %5*D %5*D %>T%S.%>A(%>A)' );
      284    19989    1   DCL CGMTFMT CHAR(0) CONSTANT INIT(
      285    19990    1   'Total   %5*D  %5*D  %5*D  %5*D  %5*D  %5*D %5*D             ' );
      286    19991        %REPORT (TITLE='CURRENT COMGROUP INFORMATION',NAME=CCGRPT,
PL6.E3A0      #001=DAD$CGS File=DAD$CGS.:E05TSI                                  TUE 07/29/97 12:40 Page:9
      287    19992                 TRUNC=YES,HEADER=NO);
      288    20058    1   DCL 1 DATFMT0 CONSTANT,
      289    20059    1         2 * CHAR(0) INIT('DATA CACHE%/NEEDPGHD$=.%6ZO/%2ZD%N(%11- ***NIL***%) '),
      290    20060    1         2 * CHAR(0) INIT(' IOHD$=.%6ZO/%2ZD%N(%29- ***NIL***%) '),
      291    20061    1         2 * CHAR(0) INIT('  GETHD$=.%6ZO/%2ZD%N(%49- ***NIL***%) '),
      292    20062    1         2 * CHAR(0) INIT(' AVAIL.HD$=.%6ZO/%2ZD%N(%71- ***NIL***%)');
      293    20063    1   DCL 1 DATFMT1 CONSTANT,
      294    20064    1         2 * CHAR(0) INIT('NEEDPGTL$=.%6ZO/%2ZD%N(%11- ***NIL***%) '),
      295    20065    1         2 * CHAR(0) INIT(' IOTL$=.%6ZO/%2ZD%N(%29- ***NIL***%) '),
      296    20066    1         2 * CHAR(0) INIT('  GETTL$=.%6ZO/%2ZD%N(%49- ***NIL***%) '),
      297    20067    1         2 * CHAR(0) INIT(' AVAIL.TL$=.%6ZO/%2ZD%N(%71- ***NIL***%)');
      298    20068    1   DCL 1 DATFMT2 CONSTANT,
      299    20069    1         2 * CHAR(0) INIT('NEEDPGCNT= %D%22- IOCNT= %D%40-  GETFLG= %D');
      300    20070    1   DCL 1 DATFMT3 CONSTANT,
      301    20071    1         2 * CHAR(0) INIT('DATAFREE$=.%6ZO/%2ZD%N(%11- ***NIL***%) '),
      302    20072    1         2 * CHAR(0) INIT('IOQHD$=.%6ZO/%2ZD%N(%29- ***NIL***%) '),
      303    20073    1         2 * CHAR(0) INIT('DFRFRHD$=.%6ZO/%2ZD%N(%49- ***NIL***%) '),
      304    20074    1         2 * CHAR(0) INIT('CURDATAPGS= %D');
      305    20075    1   DCL 1 DATFMT4 CONSTANT,
      306    20076    1         2 * CHAR(0) INIT('  ADDFREE= %D%22-'),
      307    20077    1         2 * CHAR(0) INIT('IOQTL$=.%6ZO/%2ZD%N(%29- ***NIL***%) '),
      308    20078    1         2 * CHAR(0) INIT('NDFRBLKS= %D%60-MINDATAPGS= %D');
      309    20079    1   DCL 1 DATFMT5 CONSTANT,
      310    20080    1         2 * CHAR(0) INIT('   FREEDA=.%O%22-UGRANS= %D%42-NGAVAL= %D%60-MAXDATAPGS= %D'
             20080                  );
      311    20081    1   DCL MMDFMT0 CHAR(0) CONSTANT INIT(
      312    20082    1   'MMD    GATE=(%T%S)');
      313    20083    1   DCL MMDFMT1 CHAR(0) CONSTANT INIT(
      314    20084    1   ' HEAD$=.%6ZO/%2ZD%N(%8- ***NIL***%)  CURPG=%8*LD%36-MAXBPG=%8*LD%52-BASEREL$=.%6ZO/
             20084        %2ZD%N(%61- ***NIL***%) GIP=%D');
      315    20085    1   DCL MMDFMT2 CHAR(0) CONSTANT INIT(
      316    20086    1   'PHEAD$=.%6ZO/%2ZD%N(%8- ***NIL***%) CURBPG=%8*LD%36-MINBPG=%8*LD%54-STAHD$=.%6ZO/%2
             20086        ZD%N(%61- ***NIL***%) FREECNT');
      317    20087    1   DCL MMDFMT3 CHAR(0) CONSTANT INIT(
      318    20088    1   ' FREE$=.%6ZO/%2ZD%N(%8- ***NIL***%) CURPPG=%8*LD%35-BAPLOCK=%8*LD%53-MBLKHD$=.%6ZO/
             20088        %2ZD%N(%61- ***NIL***%) | %D');
      319    20089    1   DCL GARBFMT0 CHAR(0) CONSTANT INIT(
PL6.E3A0      #001=DAD$CGS File=DAD$CGS.:E05TSI                                  TUE 07/29/97 12:40 Page:10
      320    20090    1   'GARB%/     STA=%D MBLK$=.%6ZO/%2ZD%N(%18- ***NIL***%)    DELAY=%8*LD%47-NCSTAMP=.%O
             20090        ');
      321    20091    1   DCL GARBFMT1 CHAR(0) CONSTANT INIT(
      322    20092    1   '    DMIP=%D OMLH$=.%6ZO/%2ZD%N(%18- ***NIL***%)   ACTCNT=%8*LD%49-NCDDA=.%O');
      323    20093    1   DCL GARBFMT2 CHAR(0) CONSTANT INIT(
      324    20094    1   ' RECYCLE=%D SPHD$=.%6ZO/%2ZD%N(%18- ***NIL***%) SPLITCNT=%8*LD%47-SCSTAMP=.%O');
      325    20095    1   DCL GARBFMT3 CHAR(0) CONSTANT INIT(
      326    20096    1   '   INSRT=%D SPTL$=.%6ZO/%2ZD%N(%18- ***NIL***%)     INDX=%8*LD%49-SCDDA=.%O');
      327    20097    1   DCL GARBFMT4 CHAR(0) CONSTANT INIT(
      328    20098    1   '  CONERR=%D SQHD$=.%6ZO/%2ZD%N(%18- ***NIL***%)   RELCNT=%8*LD%47-PCSTAMP=.%O');
      329    20099    1   DCL GARBFMT5 CHAR(0) CONSTANT INIT(
      330    20100    1   '    SQIP=%D DBLK$=.%6ZO/%2ZD%N(%18- ***NIL***%)  CCCOUNT=%8*LD%47-SPSTATE= %D');
      331    20101    1   DCL GARBFMT6 CHAR(0) CONSTANT INIT(
      332    20102    1   '    DELJ=%D JNLD$=.%6ZO/%2ZD%N(%18- ***NIL***%)   TCOUNT=%8*LD%50-TYPE= %D');
      333    20103    1   DCL QUEUEFMT0 CHAR(0) CONSTANT INIT(
      334    20104    1   'QUEUE%/ WCRL$=.%6ZO/%2ZD%N(%8- ***NIL***%) DELAY$=.%6ZO/%2ZD%N(%26- ***NIL***%)   B
             20104        USY=%4A  GACT=%D   RQGC=%D');
      335    20105    1   DCL QUEUEFMT1 CHAR(0) CONSTANT INIT(
      336    20106    1   ' PLHD$=.%6ZO/%2ZD%N(%8- ***NIL***%)   MLH$=.%6ZO/%2ZD%N(%26- ***NIL***%)  RUSR#=.%3
             20106        LO%58-RQMEM=%D');
      337    20107        %REPORT (TITLE='MLH DISPLAY FOR CURRENT COMGROUP',NAME=MLHRPT,TRUNC=YES,HEADER=YES);
      338    20173        %HEADER (LAST=NO,TEXT=
      339    20174        '   MLH @   STA/KEY   Q    HEAD$      TAIL$     DELAY$   SUPERCNT COUNT BUSY RUSR GA
             20174        CT PCSTAMP RQGC RQMEM');
      340    20216        %HEADER (LAST=YES,TEXT=
      341    20217        '---------- -------- -- ---------- ---------- ---------- -------- ----- ---- ---- --
             20217        -- ------- ---- -----');
      342    20259    1   DCL 1 MLHFMT0 CONSTANT,
      343    20260    1         2 * CHAR(0) INIT('.%6ZO/%2ZD %8A  %D '),
      344    20261    1         2 * CHAR(0) INIT('.%6ZO/%2ZD%N(%24- ***NIL***%) '),
      345    20262    1         2 * CHAR(0) INIT('.%6ZO/%2ZD%N(%35- ***NIL***%) '),
      346    20263    1         2 * CHAR(0) INIT('.%6ZO/%2ZD%N(%46- ***NIL***%) '),
      347    20264    1         2 * CHAR(0) INIT('%6D %7D %4A .%O%82-%D    .%6.18ZO .%.1ZO   .%.1ZO%10P');
      348    20265        %REPORT (TITLE='MESSAGE LIST DISPLAY',NAME=MSGLISTRPT,TRUNC=YES,HEADER=YES);
      349    20331        %HEADER (LAST=NO,TEXT=
      350    20332        '         MBLK @   S KEY1     KEY2     STAR  DVBYT MSGSIZ PRIO    EOM/VFC LNK DDA
             20332                UTS           MID.PRIMARY   MID.XT');
PL6.E3A0      #001=DAD$CGS File=DAD$CGS.:E05TSI                                  TUE 07/29/97 12:40 Page:11
      351    20374        %HEADER (LAST=NO,TEXT=
      352    20375        '                  if a super-MBLK --> KEY1A KEY2A COUNT          PRIOLO
             20375                              UTSHI         INSHD$');
      353    20417        %HEADER (LAST=YES,TEXT=
      354    20418        '       ---------- - -------- -------- ----- ----- ------ ------- ------- --- ------
             20418        ------- ------------- ------------- -------------');
      355    20460    1   DCL 1 MBLKFMT CONSTANT,
      356    20461    1         2 * CHAR(0) INIT('%6D .%6ZO/%2ZD %1A %8A %8A %1A     .%3.9ZO%1S  %6D '),
      357    20462    1         2 * CHAR(0) INIT('.%6.18ZO .%3.9ZO(%1A) %3A%1S '),
      358    20463    1         2 * CHAR(0) INIT('.%12ZO .%12ZO   %11D %N(.%12ZO%)%10P');
      359    20464    1   DCL 1 SMBLKFMT CONSTANT,
      360    20465    1         2 * CHAR(0) INIT('%6D .%6ZO/%2ZD %1A %8A %8A %1A      %1A%1S    %6D '),
      361    20466    1         2 * CHAR(0) INIT('.%6.18ZO .%6.18ZO %3A%1S '),
      362    20467    1         2 * CHAR(0) INIT('.%12ZO .%12ZO .%12ZO '),
      363    20468    1         2 * CHAR(0) INIT('.%6ZO/%2ZD%N(%120- ***NIL***%)%10P');
      364    20469        %REPORT (TITLE='DATA CACHE TREE FOR CURRENT COMGROUP',NAME=DTREERPT,
      365    20470                 TRUNC=YES,HEADER=YES);
      366    20536        %HEADER (LAST=NO,TEXT=
      367    20537        '  ADDR @       KEY        ADDR @       KEY        ADDR @       KEY      D-TREE');
      368    20579        %HEADER (TEXT=
      369    20580        '---------- ----------   ---------- ----------   ---------- ----------');
      370    20622    1   DCL DTREEFMT CHAR(0) CONSTANT INIT(
      371    20623    1   '%N(.%6ZO/%2ZD .%9ZO > %)%S');
      372    20624        %REPORT (TITLE='DEFER BLOCK DISPLAYS FOR CURRENT COMGROUP',NAME=DFRBLKRPT,
      373    20625              TRUNC=YES,HEADER=YES);
      374    20691        %HEADER (LAST=NO,TEXT=
      375    20692        '                   G E A G');
      376    20734        %HEADER (LAST=NO,TEXT=
      377    20735        'CODE    EPTR$      O V B F           DA          DDA   DBLK/DBLK$     DGRAN$ USR ER
             20735        R   INFO/INFO$   DFRBLK @');
      378    20777        %HEADER (LAST=YES,TEXT=
      379    20778        '------- ---------- - - - - ------------ ------------ ------------ ---------- --- --
             20778        - ------------ ----------');
      380    20820    1   DCL 1 DFRBLKFMT CONSTANT,
      381    20821    1         2 * CHAR(0) INIT('%18A%2S %1A %1A %1A %1A'),
      382    20822    1         2 * CHAR(0) INIT(' %12ZO%N(%28-            %) %12ZO%N(%41-            %)'),
      383    20823    1         2 * CHAR(0) INIT(' %12ZO%N(%54-            %)'),
PL6.E3A0      #001=DAD$CGS File=DAD$CGS.:E05TSI                                  TUE 07/29/97 12:40 Page:12
      384    20824    1         2 * CHAR(0) INIT(' .%6ZO/%2ZD%N(%67- ***NIL***%)%N(%67-          %)'),
      385    20825    1         2 * CHAR(0) INIT(' %3D%N(%78-   %) %3D%N(%82-   %)'),
      386    20826    1         2 * CHAR(0) INIT(' %12ZO%N(%86-            %) .%6ZO/%2ZD');
      387    20827    1   DCL NEEDPGHDFMT CONSTANT CHAR(0) INIT('NEEDPGHD$->');
      388    20828    1   DCL IOQHDFMT    CONSTANT CHAR(0) INIT('IOQHD$->');
      389    20829    1   DCL IOHDFMT     CONSTANT CHAR(0) INIT('IOHD$->');
      390    20830    1   DCL GETHDFMT    CONSTANT CHAR(0) INIT('GETHD$->');
      391    20831    1   DCL DFRFREEFMT  CONSTANT CHAR(0) INIT('DFRFREEHD$->');
      392    20832        %REPORT (TITLE='STATION TREE FOR CURRENT COMGROUP',NAME=STREERPT,
      393    20833                 TRUNC=NO,WRAPTAB=37,EDIT=DAD$SPYDOT,HEADER=YES);
      394    20899        %HEADER (LAST=NO,TEXT=
      395    20900        '  ADDR @    STATION KQRS LOCKCNT IDSC   USR# MLH.COUNT   READS   WRITES  S-TREE');
      396    20942        %HEADER (TEXT=
      397    20943        '---------- -------- ---- ------- | TERM ---- --------- -------- --------');
      398    20985    1   DCL STREEFMT0 CHAR(0) CONSTANT INIT(
      399    20986    1   '.%6ZO/%2ZD %8A %4A %7*D %D %D    %4*O%E %9*D %8*D %8*D >');
      400    20987    1   DCL STREEFMT1 CHAR(0) CONSTANT INIT(
      401    20988    1   '.%6ZO/%2ZD %8A R=.%6ZO/%2ZD%N(%23- ***NIL***%) G=(%T%S)');
      402    20989        %REPORT (TITLE='CG STATS FOR    CURRENT COMGROUP',NAME=CGSTATSRPT,
      403    20990                 TRUNC=YES,HEADER=YES);
      404    21056        %HEADER (LAST=NO,TEXT=
      405    21057        'CG Statistics');
      406    21099        %HEADER (LAST=NO,TEXT=
      407    21100        ' DCB Stations | Term Stations |   Disk   |  Messages  |Dfr |Garb| Words| Words');
      408    21142        %HEADER (LAST=NO,TEXT=
      409    21143        ' # Reads Write|  # Reads Write| Read Writ| AnonQ DrctQ|Unav|Coll| Used | Free ');
      410    21185        %HEADER (TEXT=
      411    21186        '__ _____ _____| __ _____ _____| ____ ____| _____ _____|____|____|______|______');
      412    21228    1   DCL CGSTATSFMT CHAR(0) CONSTANT INIT(
      413    21229    1   '%2D %5D %5D  %2D %5D %5D  %4D %4D  %5D %5D %4D %4D %6D %6D');
      414    21230        %REPORT (TITLE='MSGTYP TREE FOR CURRENT COMGROUP',NAME=TTREERPT,
      415    21231                 TRUNC=YES,HEADER=YES);
      416    21297        %HEADER (LAST=NO,TEXT=
      417    21298        '  ADDR @    MSGTYP  #WRITE JRNL        ADDR @    MSGTYP  #WRITE JRNL     T-TREE');
      418    21340        %HEADER (TEXT=
      419    21341        '---------- -------- ------ | MPRIO   ---------- -------- ------ | MPRIO');
      420    21383    1   DCL TTREEFMT CHAR(0) CONSTANT INIT(
PL6.E3A0      #001=DAD$CGS File=DAD$CGS.:E05TSI                                  TUE 07/29/97 12:40 Page:13
      421    21384    1   '%N(.%6ZO/%2ZD %8A %6D %D %5*LD > %)%S');
      422    21385        %REPORT (TITLE='QUEUE TREE FOR CURRENT COMGROUP',NAME=QTREERPT,
      423    21386                 TRUNC=YES,HEADER=YES);
      424    21452        %HEADER (LAST=NO,TEXT=
      425    21453        '  ADDR @      KEY     CNACT    READS$   LOCKCNT MLH.COUNT   Q-TREE');
      426    21495        %HEADER (TEXT=
      427    21496        '---------- -------- -------- ---------- ------- ---------');
      428    21538    1   DCL QTREEFMT CHAR(0) CONSTANT INIT(
      429    21539    1   '.%6ZO/%2ZD %8A %8*D .%6ZO/%2ZD%N(%30- ***NIL***%) %7*D %9*D >');
      430    21540    1   DCL TEXTCFMT CHAR(0) CONSTANT INIT('%T%S');
      431    21541    1   DCL BLANKFMT CHAR(0) CONSTANT INIT('    ');
      432    21542    1   DCL NOTHINGFMT CHAR(0) CONSTANT INIT('*** Nothing to display');
      433    21543    1   DCL DTGFMT CHAR(0) CONSTANT INIT('DTREE.GATE=(%T%S)');
      434    21544    1   DCL STGFMT CHAR(0) CONSTANT INIT('STREE.GATE=(%T%S)');
      435    21545    1   DCL TTGFMT CHAR(0) CONSTANT INIT('TTREE.GATE=(%T%S)');
      436    21546
      437    21547    1   DCL KQRS_XXXX(0:10) CHAR(4) CONSTANT INIT( 'RSIP','COMP','PEND',
      438    21548    1         'XFIP','4 ??','XFDN','XFIW','UNLA','NVGT','NFET','>9 ?' );
      439    21549    1   DCL AS0 UBIN CONSTANT INIT(2048);
      440    21550    1   DCL AS0$ REDEF AS0 PTR;
      441    21551        %$ERROR (NAME=E_DA_NO_CURCG,CODE=%E$DA_NO_CURCG);
      442    21557        %$ERROR (NAME=E_DA_NO_SETCG,CODE=%E$DA_NO_SETCG);
      443    21563
      444    21564        /* Refs */
      445    21565
      446    21566    1   DCL DAA$ERRMSG     ENTRY(1);
      447    21567    1   DCL DAA$LOC        ENTRY(2) ALTRET;
      448    21568    1   DCL DAA$VALUE      ENTRY(3) ALTRET;
      449    21569    1   DCL DAB$GATE       ENTRY(1);
      450    21570    1   DCL DAD$SPYDOT     ENTRY(2);
      451    21571    1   DCL DAF$INIT       ENTRY(1) ALTRET;
      452    21572    1   DCL DAF$WRITE      EPTR     SYMREF;
      453    21573    1   DCL DAM$MAP        ENTRY(5) ALTRET;
      454    21574    1   DCL DAS$IC2ED      ENTRY(2) ALTRET;
      455    21575    1   DCL DAS$SDMONPTR  ENTRY(2) ALTRET;
      456    21576
      457    21577    1   DCL B$DS1$         PTR      SYMREF;
PL6.E3A0      #001=DAD$CGS File=DAD$CGS.:E05TSI                                  TUE 07/29/97 12:40 Page:14
      458    21578    1   DCL B$CGCTXT$      PTR      SYMREF;
      459    21579    1   DCL B$TCB$ PTR SYMREF;
      460    21580
      461    21581        %B$TCB;
      462    21584        %B$ALT;
      463    21592
      464    21593        %EJECT;
PL6.E3A0      #001=DAD$CGS File=DAD$CGS.:E05TSI                                  TUE 07/29/97 12:40 Page:15
      465    21594        /*F* NAME:        DAD$CGS
      466    21595             PURPOSE:     This routine does the CG SUMMARY command.
      467    21596             DESCRIPTION: This routine displays relevant data for each open
      468    21597                          comgroup. */
      469    21598        /*D* NAME:        DAD$CGS
      470    21599             ENTRY:       DAD$CGS
      471    21600             CALL:        CALL DAD$CGS (TOP);
      472    21601             INPUT:       TOP - Parse output block for CG SUMMARY command.
      473    21602             SCRATCH:     Mapping context.
      474    21603             DESCRIPTION: KQ_CGHEAD$ points to the first comgroup context
      475    21604                          block (KQ$CG). KQ$CG.LNK$ is the link to the next
      476    21605                          KQ$CG block. */
      477    21606
      478    21607    1         CALL DAS$SDMONPTR (%M#KQ_MMSD,CG$) ALTRET (AERR);
      479    21608    1         CALL DAM$MAP (CG$,M@CG$,,,DA_MONISDATA) ALTRET (AERR);
      480    21609    1         CG$ = M@CG$->KQ$MMSD.CGHEAD$; /* Pick up CGHEAD$ */
      481    21610    1         CALL DAM$MAP (B$DS1$,M@F$CFU$) ALTRET (AERR);
      482    21611    1         F$CFU$ = B$DS1$ ;
      483    21612    1         CALL DAF$INIT (CGSRPT);
      484    21613    2           DO WHILE (CG$ ~= ADDR (NIL));
      485    21614    2           CALL DI1CG ALTRET (RETN);
      486    21615    2           CG$ = KQ$CG.LNK$;
      487    21616    2           END;
      488    21617
      489    21618    2           DO WHILE ('0'B);
      490    21619    2   AERR:
      491    21620    2           CALL DAA$ERRMSG;
      492    21621    2           END;
      493    21622
      494    21623    1   RETN:
      495    21624    1         RETURN;
      496    21625
      497    21626        %EJECT;
PL6.E3A0      #001=DAD$CGS File=DAD$CGS.:E05TSI                                  TUE 07/29/97 12:40 Page:16
      498    21627        /*F* NAME:        DAD$CGMS
      499    21628             PURPOSE:     This routine does the CG MEMMORY SUMMARY command.
      500    21629             DESCRIPTION: This routine displays the total number of pages
      501    21630                          each comgroup is using and totals them at the end */
      502    21631        /*D* NAME:        DAD$CGMS
      503    21632             ENTRY:       DAD$CGMS
      504    21633             CALL:        CALL DAD$CGMS (TOP);
      505    21634             INPUT:       TOP - Parse output block for CG MEMORY SUMMARY command.
      506    21635             SCRATCH:     Mapping context.
      507    21636             DESCRIPTION: KQ_CGHEAD$ points to the first comgroup context
      508    21637                          block (KQ$CG). KQ$CG.LNK$ is the link to the next
      509    21638                          KQ$CG block. */
      510    21639
      511    21640    1   DAD$CGMS: ENTRY (TOP);
      512    21641
      513    21642    1         TMAXBP = 0;
      514    21643    1         TMINBP = 0;
      515    21644    1         TCURBP = 0;
      516    21645    1         TMAXDP = 0 ;
      517    21646    1         TMINDP = 0 ;
      518    21647    1         TCURDP = 0 ;
      519    21648    1         TCURPG = 0 ;
      520    21649    1         CALL DAS$SDMONPTR (%M#KQ_MMSD,CG$) ALTRET (AERR);
      521    21650    1         CALL DAM$MAP (CG$,M@CG$,,,DA_MONISDATA) ALTRET (AERR);
      522    21651    1         CG$ = M@CG$->KQ$MMSD.CGHEAD$; /* Pick up CGHEAD$ */
      523    21652    1         CALL DAS$SDMONPTR (%M#F$CFU$,F$CFU$) ALTRET (AERR);
      524    21653    1         CALL DAM$MAP (F$CFU$,M@F$CFU$,,,DA_MONISDATA) ALTRET (AERR);
      525    21654    1         F$CFU$ = M@F$CFU$->PTR$WORD; /* Pick up F$CFU$ */
      526    21655    1         CALL DAF$INIT (CGMSRPT);
      527    21656    2           DO WHILE (CG$ ~= ADDR (NIL));
      528    21657    2           CALL DI1CGMEM ALTRET (RETNMEM);
      529    21658    2           CG$ = KQ$CG.LNK$;
      530    21659    2           END;
      531    21660
      532    21661    1   RETNMEM:
      533    21662    1         CALL DAF$WRITE(VECTOR (BLANKFMT));
      534    21663    1         CALL DAF$WRITE (VECTOR (CGMTFMT),
PL6.E3A0      #001=DAD$CGS File=DAD$CGS.:E05TSI                                  TUE 07/29/97 12:40 Page:17
      535    21664    1         VECTOR(TMAXBP),
      536    21665    1         VECTOR(TMINBP),
      537    21666    1         VECTOR(TCURBP),
      538    21667    1         VECTOR(TMAXDP),
      539    21668    1         VECTOR(TMINDP),
      540    21669    1         VECTOR(TCURDP),
      541    21670    1         VECTOR(TCURPG));
      542    21671    1         RETURN;
      543    21672
      544    21673        %EJECT;
PL6.E3A0      #001=DAD$CGS File=DAD$CGS.:E05TSI                                  TUE 07/29/97 12:40 Page:18
      545    21674        %EJECT;
PL6.E3A0      #001=DAD$CGS File=DAD$CGS.:E05TSI                                  TUE 07/29/97 12:40 Page:19
      546    21675        /*F* NAME:        DAD$CURCG
      547    21676             PURPOSE:     This routine does the CURCG command.
      548    21677             DESCRIPTION: This routine sets up the current comgroup, or just
      549    21678                          displays relevant data for the current comgroup. */
      550    21679        /*D* NAME:        DAD$CURCG
      551    21680             ENTRY:       DAD$CURCG
      552    21681             CALL:        CALL DAD$CURCG (TOP);
      553    21682             INPUT:       TOP - Parse output block for CURCG command.
      554    21683             SCRATCH:     Mapping context.
      555    21684             DESCRIPTION:  */
      556    21685
      557    21686    1   DAD$CURCG: ENTRY (TOP);
      558    21687
      559    21688    1         CALL SETUP ALTRET (RETN);
      560    21689    1         IF TOP.NSUBLKS ~= 0 THEN
      561    21690    1           RETURN;
      562    21691    1         CALL DAF$INIT (CCGRPT);
      563    21692    1         CALL DAF$WRITE (VECTOR (TEXTCFMT), VECTOR (CGSRPTTX01));
      564    21693    1         CALL DAF$WRITE (VECTOR (TEXTCFMT), VECTOR (CGSRPTTX02));
      565    21694    1         CALL DI1CG ALTRET (RETN);
      566    21695    1         CALL DIDATACACHE ALTRET (RETN);
      567    21696    1         CALL DIMMD ALTRET (RETN);
      568    21697    1         CALL DIGARB ALTRET (RETN);
      569    21698    1         CALL DIQUEUE ALTRET (RETN);
      570    21699
      571    21700    1         RETURN;
      572    21701
      573    21702        %EJECT;
PL6.E3A0      #001=DAD$CGS File=DAD$CGS.:E05TSI                                  TUE 07/29/97 12:40 Page:20
      574    21703        /*F* NAME:        DAD$DATACACHE
      575    21704             PURPOSE:     This routine does the DATACACHE command.
      576    21705             DESCRIPTION: This routine sets up the current comgroup, or just
      577    21706                          displays relevant data for the current comgroup. */
      578    21707        /*D* NAME:        DAD$DATACACHE
      579    21708             ENTRY:       DAD$DATACACHE
      580    21709             CALL:        CALL DAD$DATACACHE (TOP);
      581    21710             INPUT:       TOP - Parse output block for DATACACHE command.
      582    21711             SCRATCH:     Mapping context.
      583    21712             DESCRIPTION:  */
      584    21713
      585    21714    1   DAD$DATACACHE: ENTRY (TOP);
      586    21715
      587    21716    1         CALL SETUP ALTRET (RETN);
      588    21717    1         CALL DAF$INIT (CCGRPT);
      589    21718    1         CALL DIDATACACHE ALTRET (RETN);
      590    21719
      591    21720    1         RETURN;
      592    21721
      593    21722        %EJECT;
PL6.E3A0      #001=DAD$CGS File=DAD$CGS.:E05TSI                                  TUE 07/29/97 12:40 Page:21
      594    21723        /*F* NAME:        DAD$MMD
      595    21724             PURPOSE:     This routine does the MMD command.
      596    21725             DESCRIPTION: This routine sets up the current comgroup, or just
      597    21726                          displays relevant data for the current comgroup. */
      598    21727        /*D* NAME:        DAD$MMD
      599    21728             ENTRY:       DAD$MMD
      600    21729             CALL:        CALL DAD$MMD (TOP);
      601    21730             INPUT:       TOP - Parse output block for MMD command.
      602    21731             SCRATCH:     Mapping context.
      603    21732             DESCRIPTION:  */
      604    21733
      605    21734    1   DAD$MMD: ENTRY (TOP);
      606    21735
      607    21736    1         CALL SETUP ALTRET (RETN);
      608    21737    1         CALL DAF$INIT (CCGRPT);
      609    21738    1         CALL DIMMD ALTRET (RETN);
      610    21739
      611    21740    1         RETURN;
      612    21741
      613    21742        %EJECT;
PL6.E3A0      #001=DAD$CGS File=DAD$CGS.:E05TSI                                  TUE 07/29/97 12:40 Page:22
      614    21743        /*F* NAME:        DAD$GARB
      615    21744             PURPOSE:     This routine does the GARB command.
      616    21745             DESCRIPTION: This routine sets up the current comgroup, or just
      617    21746                          displays relevant data for the current comgroup. */
      618    21747        /*D* NAME:        DAD$GARB
      619    21748             ENTRY:       DAD$GARB
      620    21749             CALL:        CALL DAD$GARB (TOP);
      621    21750             INPUT:       TOP - Parse output block for GARB command.
      622    21751             SCRATCH:     Mapping context.
      623    21752             DESCRIPTION:  */
      624    21753
      625    21754    1   DAD$GARB: ENTRY (TOP);
      626    21755
      627    21756    1         CALL SETUP ALTRET (RETN);
      628    21757    1         CALL DAF$INIT (CCGRPT);
      629    21758    1         CALL DIGARB ALTRET (RETN);
      630    21759
      631    21760    1         RETURN;
      632    21761
      633    21762        %EJECT;
PL6.E3A0      #001=DAD$CGS File=DAD$CGS.:E05TSI                                  TUE 07/29/97 12:40 Page:23
      634    21763        /*F* NAME:        DAD$QUEUE
      635    21764             PURPOSE:     This routine does the QUEUE command.
      636    21765             DESCRIPTION: This routine sets up the current comgroup, or just
      637    21766                          displays relevant data for the current comgroup. */
      638    21767        /*D* NAME:        DAD$QUEUE
      639    21768             ENTRY:       DAD$QUEUE
      640    21769             CALL:        CALL DAD$QUEUE (TOP);
      641    21770             INPUT:       TOP - Parse output block for QUEUE command.
      642    21771             SCRATCH:     Mapping context.
      643    21772             DESCRIPTION:  */
      644    21773
      645    21774    1   DAD$QUEUE: ENTRY (TOP);
      646    21775
      647    21776    1         CALL SETUP ALTRET (RETN);
      648    21777    1         CALL DAF$INIT (CCGRPT);
      649    21778    1         CALL DIQUEUE ALTRET (RETN);
      650    21779
      651    21780    1         RETURN;
      652    21781
      653    21782        %EJECT;
PL6.E3A0      #001=DAD$CGS File=DAD$CGS.:E05TSI                                  TUE 07/29/97 12:40 Page:24
      654    21783        /*F* NAME:        DAD$MLH
      655    21784             PURPOSE:     This routine does the MLH command.
      656    21785             DESCRIPTION: This routine sets up the current comgroup, or just
      657    21786                          displays relevant data for the current comgroup. */
      658    21787        /*D* NAME:        DAD$MLH
      659    21788             ENTRY:       DAD$MLH
      660    21789             CALL:        CALL DAD$MLH (TOP);
      661    21790             INPUT:       TOP - Parse output block for MLH command.
      662    21791             SCRATCH:     Mapping context.
      663    21792             DESCRIPTION:  */
      664    21793
      665    21794    1   DAD$MLH: ENTRY (TOP);
      666    21795
      667    21796    1         CALL SETUP ALTRET (RETN);
      668    21797    1         CALL DAF$INIT (MLHRPT);
      669    21798    1         IF KQ$CG.STREE.HEAD$ = ADDR (NIL) AND KQ$CG.QUEUE.QTREE$ = ADDR(NIL)
      670    21799    2         THEN DO;
      671    21800    2           CALL DAF$WRITE (VECTOR (NOTHINGFMT));
      672    21801    2           RETURN;
      673    21802    2           END;
      674    21803    1         CUR$ = KQ$CG.STREE.HEAD$;
      675    21804    1         TEMP$ = KQ$CG.QUEUE.QTREE$;
      676    21805    1         CALL DAM$MAP (TEMP$, M@TEMP$) ALTRET (MLHERR2);
      677    21806    1         QTREEHD$ = M@TEMP$->KQ$THDR.HEAD$;
      678    21807    2           DO WHILE (CUR$ ~= ADDR (NIL));
      679    21808    2           MLH$ = ADDR(CUR$->KQ$STA.MLH);
      680    21809    2           CALL DIMLH ALTRET(MLHERR1);
      681    21810    2           CALL DAM$MAP (CUR$,M@CUR$) ALTRET(MLHERR1);
      682    21811    2           CUR$ = M@CUR$->KQ$STA.BTN.FLINK$;
      683    21812    2           END;
      684    21813    1   MLHERR1: CUR$ = QTREEHD$;
      685    21814    2           DO WHILE (CUR$ ~= ADDR (NIL));
      686    21815    2           MLH$ = ADDR(CUR$->KQ$QTN.MLH);
      687    21816    2           CALL DIMLH ALTRET(MLHERR2);
      688    21817    2           CALL DAM$MAP (CUR$,M@CUR$) ALTRET(MLHERR2);
      689    21818    2           CUR$ = M@CUR$->KQ$QTN.STA.BTN.FLINK$;
      690    21819    2           END;
PL6.E3A0      #001=DAD$CGS File=DAD$CGS.:E05TSI                                  TUE 07/29/97 12:40 Page:25
      691    21820    1   MLHERR2: RETURN;
      692    21821
      693    21822        %EJECT;
PL6.E3A0      #001=DAD$CGS File=DAD$CGS.:E05TSI                                  TUE 07/29/97 12:40 Page:26
      694    21823        /*F* NAME:        DAD$MSGLIST
      695    21824             PURPOSE:     This routine does the MSGLIST command.
      696    21825             DESCRIPTION: This routine displays a list of MBLKs and/or
      697    21826                          super-MBLKs for the current comgroup. */
      698    21827        /*D* NAME:        DAD$MSGLIST
      699    21828             ENTRY:       DAD$MSGLIST
      700    21829             CALL:        CALL DAD$MSGLIST (TOP);
      701    21830             INPUT:       TOP - Parse output block for MSGLIST command.
      702    21831                          DA_CURCG - Current comgroup information.
      703    21832             SCRATCH:     Mapping context.
      704    21833             DESCRIPTION: Accepts the command:
      705    21834                             MSGLIST <location> [,<count>]
      706    21835                          and displays a list of MBLKs and/or super-MBLKs
      707    21836                          starting at <location> and continuing for <count>
      708    21837                          (super-)MBLKS or until the end of the referenced
      709    21838                          chain. If <count> is not specified, <count> is
      710    21839                          considered to be infinity. */
      711    21840
      712    21841    1   DAD$MSGLIST: ENTRY (TOP);
      713    21842
      714    21843    1         CALL SETUPCUR ALTRET(RETN);
      715    21844    1         CALL DAA$LOC (TOP.SUBLK$(0)->OUT$BLK,MBLK$) ALTRET (RETN);
      716    21845    1         IF TOP.NSUBLKS=2
      717    21846    1         THEN CALL DAA$VALUE (TOP.SUBLK$(1)->OUT$BLK,COUNT) ALTRET (RETN);
      718    21847    1         ELSE COUNT = BITBIN('377777777777'O);
      719    21848    1         CALL DAF$INIT (MSGLISTRPT);
      720    21849    2           DO I=1 TO COUNT;
      721    21850    2           MSGD = '0'B;
      722    21851    2           MSGD.NUM = I;
      723    21852    2           CALL VALPTR (MBLK$,AS0$,MSGD.X.D,MSGD.X.W) ALTRET (RETN);
      724    21853    2           CALL DAM$MAP (MBLK$,M@MBLK$) ALTRET(RETN);
      725    21854    2           CALL XLATE (MSGD.KEY1,DA_PRINTABLE_TBL,KQ$MBLK.KEY1);
      726    21855    2           CALL XLATE (MSGD.KEY2,DA_PRINTABLE_TBL,KQ$MBLK.KEY2);
      727    21856    2           MSGD.PRIO = KQ$MBLK.PRIO;
      728    21857    2           IF KQ$MBLK.LNK$=ADDR(NIL)
      729    21858    2           THEN MSGD.LNK = 'NIL';
      730    21859    2           ELSE MSGD.LNK = ' > ';
PL6.E3A0      #001=DAD$CGS File=DAD$CGS.:E05TSI                                  TUE 07/29/97 12:40 Page:27
      731    21860    2           MSGD.DDA = KQ$MBLK.DDA;
      732    21861    2           MSGD.UTS = KQ$MBLK.UTS;
      733    21862    2           IF KQ$MBLK.SUPER='0'B
      734    21863    3           THEN DO;
      735    21864    3             MSGD.S = ' ';
      736    21865    3             MSGD.STAR = STARTBL(BITBIN(KQ$MBLK.STAR));
      737    21866    3             MSGD.DVBYTE = KQ$MBLK.DVE.DVBYTE;
      738    21867    3             MSGD.MSGSIZE = KQ$MBLK.MSGSIZE;
      739    21868    3             MSGD.EV.EOM = KQ$MBLK.DVE.EOMCHAR;
      740    21869    3             CALL XLATE(MSGD.EV.VFC,DA_PRINTABLE_TBL,KQ$MBLK.DVE.VFC);
      741    21870    3             MSGD.MIDPRI = KQ$MBLK.MID.PRIMARY;
      742    21871    3             IF KQ$MBLK.MID.XT=0
      743    21872    3             THEN MSGD.MIDXTN = 0;
      744    21873    4             ELSE DO;
      745    21874    4               MSGD.MIDXTN = 1;
      746    21875    4               MSGD.MIDXT = KQ$MBLK.MID.XT;
      747    21876    4               END;
      748    21877    3             CALL DAF$WRITE (VECTOR(MBLKFMT),VECTOR(MSGD));
      749    21878    3             END;
      750    21879    3           ELSE DO;
      751    21880    3             MSGD.S = '*';
      752    21881    3             IF KQ$SMBLK.KEY1VALID='0'B
      753    21882    3             THEN MSGD.KEY1 = 'invalid ';
      754    21883    3             IF KQ$SMBLK.KEY2VALID='0'B
      755    21884    3             THEN MSGD.KEY2 = 'invalid ';
      756    21885    3             MSGD.KEY1ALL = STARTBL(BITBIN(KQ$SMBLK.KEY1ALL));
      757    21886    3             MSGD.KEY2ALL = STARTBL(BITBIN(KQ$SMBLK.KEY2ALL));
      758    21887    3             MSGD.COUNT = KQ$SMBLK.COUNT;
      759    21888    3             MSGD.PRIOLO = KQ$SMBLK.PRIOLO;
      760    21889    3             MSGD.UTSHI = KQ$SMBLK.UTSHI;
      761    21890    3             CALL VALPTR (KQ$SMBLK.INSHD$,AS0$,MSGD.INSHDD,MSGD.INSHDW,MSGD.INSHDN);
      762    21891    3             CALL DAF$WRITE (VECTOR(SMBLKFMT),VECTOR(MSGD));
      763    21892    3             END;
      764    21893    2           MBLK$ = KQ$MBLK.LNK$;
      765    21894    2           END;
      766    21895    1         RETURN;
      767    21896
PL6.E3A0      #001=DAD$CGS File=DAD$CGS.:E05TSI                                  TUE 07/29/97 12:40 Page:28
      768    21897        %EJECT;
PL6.E3A0      #001=DAD$CGS File=DAD$CGS.:E05TSI                                  TUE 07/29/97 12:40 Page:29
      769    21898        /*F* NAME:        DAD$DFRBLK
      770    21899             PURPOSE:     This routine does the DFRBLK command.
      771    21900             DESCRIPTION: This routine sets up the current CG, or just
      772    21901                          displays relevant data for the current CG. */
      773    21902        /*D: NAME:        DAD$DFRBLK
      774    21903             ENTRY:       DAD$DFRBLK
      775    21904             CALL:        CALL DAD$DFRBLK (TOP);
      776    21905             INPUT:       TOP - Parse output block for DFRBLK command.
      777    21906             SCRATCH:     Mapping context.
      778    21907             DESCRIPTION: This routine displays the defer blocks for the
      779    21908                          current comgroup. */
      780    21909
      781    21910    1   DAD$DFRBLK: ENTRY (TOP);
      782    21911
      783    21912    1         CALL SETUP ALTRET (RETN);
      784    21913    1         CALL DAF$INIT (DFRBLKRPT);
      785    21914
      786    21915    1         DFRFMT_ = VECTOR(NEEDPGHDFMT);
      787    21916    1         DFR$ = KQ$CG.NEEDPGHD$;
      788    21917    1         CALL DIDFR;
      789    21918
      790    21919    1         CALL SETUPCUR;
      791    21920    1         DFRFMT_ = VECTOR(IOQHDFMT);
      792    21921    1         DFR$ = KQ$CG.IOQHD$;
      793    21922    1         CALL DIDFR;
      794    21923
      795    21924    1         CALL SETUPCUR;
      796    21925    1         DFRFMT_ = VECTOR(IOHDFMT);
      797    21926    1         DFR$ = KQ$CG.IOHD$;
      798    21927    1         CALL DIDFR;
      799    21928
      800    21929    1         CALL SETUPCUR;
      801    21930    1         DFRFMT_ = VECTOR(GETHDFMT);
      802    21931    1         DFR$ = KQ$CG.GETHD$;
      803    21932    1         CALL DIDFR;
      804    21933
      805    21934    1         CALL SETUPCUR;
PL6.E3A0      #001=DAD$CGS File=DAD$CGS.:E05TSI                                  TUE 07/29/97 12:40 Page:30
      806    21935    1         DFRFMT_ = VECTOR(DFRFREEFMT);
      807    21936    1         DFR$ = KQ$CG.DFRFREEHD$;
      808    21937    1         CALL DIDFR;
      809    21938
      810    21939    1         RETURN;
      811    21940
      812    21941        %EJECT;
PL6.E3A0      #001=DAD$CGS File=DAD$CGS.:E05TSI                                  TUE 07/29/97 12:40 Page:31
      813    21942        /*F* NAME:        DAD$DTREE
      814    21943             PURPOSE:     This routine does the DTREE command.
      815    21944             DESCRIPTION: This routine sets up the current comgroup, or just
      816    21945                          displays relevant data for the current comgroup. */
      817    21946        /*D* NAME:        DAD$DTREE
      818    21947             ENTRY:       DAD$DTREE
      819    21948             CALL:        CALL DAD$DTREE (TOP);
      820    21949             INPUT:       TOP - Parse output block for DTREE command.
      821    21950             SCRATCH:     Mapping context.
      822    21951             DESCRIPTION:  */
      823    21952
      824    21953    1   DAD$DTREE: ENTRY (TOP);
      825    21954
      826    21955    1         CALL SETUP ALTRET (RETN);
      827    21956    1         CALL DAF$INIT (DTREERPT);
      828    21957    1         CALL DAB$GATE (KQ$CG.DTREE.GATE);
      829    21958    1         CALL DAF$WRITE (VECTOR (DTGFMT), VECTOR (DA_GATETXT));
      830    21959    1         CUR$ = KQ$CG.DTREE.HEAD$;
      831    21960    1         IF CUR$ = ADDR (NIL) THEN
      832    21961    2           DO;
      833    21962    2           CALL DAF$WRITE (VECTOR (NOTHINGFMT));
      834    21963    2           RETURN;
      835    21964    2           END;
      836    21965    1   LDTREE:
      837    21966    2           DO I = 0 TO 2;
      838    21967    2           CALL VALPTR (CUR$,AS0$,DTD.D (I),DTD.W (I)) ALTRET (DTOERR1);
      839    21968    2           DTD.W (I) = DTD.W (I) - SIZEW (KQ$GRAN);
      840    21969    2           CALL DAM$MAP (CUR$,M@CUR$) ALTRET (DTOERR0);
      841    21970    2           DTD.K (I) = ADDR (M@CUR$->KQ$BTN.KEY)->BIT$WORD & '000777777777'O;
      842    21971    2           CUR$ = M@CUR$->KQ$BTN.FLINK$;
      843    21972    2           IF CUR$ = ADDR (NIL) THEN
      844    21973    2             GOTO DTO;
      845    21974    2           END;
      846    21975    1         I = 3;
      847    21976    2           DO WHILE ('0'B);
      848    21977    2   DTOERR0:
      849    21978    2           CALL DAA$ERRMSG;
PL6.E3A0      #001=DAD$CGS File=DAD$CGS.:E05TSI                                  TUE 07/29/97 12:40 Page:32
      850    21979    2   DTOERR1:
      851    21980    2           DTD.K (I) = '000777777777'O;
      852    21981    2           CUR$ = ADDR (NIL);
      853    21982    2   DTO:
      854    21983    2           I = I + 1;
      855    21984    2           END;
      856    21985    1         CALL DAF$WRITE (VECTOR (DTREEFMT), VECTOR (I), VECTOR (DTD));
      857    21986    1         IF CUR$ ~= ADDR (NIL) THEN
      858    21987    1           GOTO LDTREE;
      859    21988
      860    21989    1         RETURN;
      861    21990
      862    21991        %EJECT;
PL6.E3A0      #001=DAD$CGS File=DAD$CGS.:E05TSI                                  TUE 07/29/97 12:40 Page:33
      863    21992        /*F* NAME:        DAD$CGSTATS
      864    21993             PURPOSE:     This routine does the CGSTATS command.
      865    21994             DESCRIPTION: This routine sets up the current comgroup, or just
      866    21995                          displays relevant data for the current comgroup. */
      867    21996        /*D* NAME:        DAD$CGSTATS
      868    21997             ENTRY:       DAD$CGSTATS
      869    21998             CALL:        CALL DAD$CGSTATS(TOP);
      870    21999             INPUT:       TOP - Parse output block for CGSTATS command.
      871    22000             SCRATCH:     Mapping context.
      872    22001             DESCRIPTION:  */
      873    22002
      874    22003    1   DAD$CGSTATS: ENTRY (TOP);
      875    22004
      876    22005
      877    22006    1         CALL SETUP ALTRET (RETN);
      878    22007    1         CALL DAF$INIT (CGSTATSRPT);
      879    22008    1         I = (KQ$CG.UGRANS+KQ$CG.NGAVAL)*1024 - KQ$CG.STATS.WRDSUSED;
      880    22009    1         CALL DAF$WRITE(VECTOR (CGSTATSFMT),
      881    22010    1         VECTOR (KQ$CG.STATS.NUMDCBS),
      882    22011    1         VECTOR (KQ$CG.STATS.READS  ),
      883    22012    1         VECTOR (KQ$CG.STATS.WRITES ),
      884    22013    1         VECTOR (KQ$CG.STATS.NUMTERMS),
      885    22014    1         VECTOR (KQ$CG.STATS.GETS    ),
      886    22015    1         VECTOR (KQ$CG.STATS.PUTS    ),
      887    22016    1         VECTOR (KQ$CG.STATS.DISCRDS ),
      888    22017    1         VECTOR (KQ$CG.STATS.DISCWRS ),
      889    22018    1         VECTOR (KQ$CG.STATS.CCMQ    ),
      890    22019    1         VECTOR (KQ$CG.STATS.CCMS    ),
      891    22020    1         VECTOR (KQ$CG.STATS.NODFRS  ),
      892    22021    1         VECTOR (KQ$CG.STATS.GARBCOLLS),
      893    22022    1         VECTOR (KQ$CG.STATS.WRDSUSED ),
      894    22023    1         VECTOR ( I )) ;
      895    22024
      896    22025    1         RETURN ;
      897    22026        /*F* NAME:        DAD$STREE
      898    22027             PURPOSE:     This routine does the STREE command.
      899    22028             DESCRIPTION: This routine sets up the current comgroup, or just
PL6.E3A0      #001=DAD$CGS File=DAD$CGS.:E05TSI                                  TUE 07/29/97 12:40 Page:34
      900    22029                          displays relevant data for the current comgroup. */
      901    22030        /*D* NAME:        DAD$STREE
      902    22031             ENTRY:       DAD$STREE
      903    22032             CALL:        CALL DAD$STREE (TOP);
      904    22033             INPUT:       TOP - Parse output block for STREE command.
      905    22034             SCRATCH:     Mapping context.
      906    22035             DESCRIPTION:  */
      907    22036
      908    22037    1   DAD$STREE: ENTRY (TOP);
      909    22038
      910    22039    1         CALL SETUP ALTRET (RETN);
      911    22040    1         CALL DAF$INIT (STREERPT);
      912    22041    1         CALL DAB$GATE (KQ$CG.STREE.GATE);
      913    22042    1         CALL DAF$WRITE (VECTOR (STGFMT), VECTOR (DA_GATETXT));
      914    22043    1         IF KQ$CG.STREE.HEAD$ = ADDR (NIL) THEN
      915    22044    2           DO;
      916    22045    2           CALL DAF$WRITE (VECTOR (NOTHINGFMT));
      917    22046    2           RETURN;
      918    22047    2           END;
      919    22048    2           DO I = 1 TO 2;
      920    22049    2           CUR$ = KQ$CG.STREE.HEAD$;
      921    22050    3             DO WHILE (CUR$ ~= ADDR (NIL));
      922    22051    3             STD = '0'B;
      923    22052    3             R = '0'B;
      924    22053    3             CALL VALPTR (CUR$,AS0$,STD.X.D,STD.X.W) ALTRET (STDERR3);
      925    22054    3             CALL DAM$MAP (CUR$,M@CUR$) ALTRET (STDERR0);
      926    22055    3             CALL XLATE(STD.X.N,DA_PRINTABLE_TBL,M@CUR$->KQ$STA.BTN.KEY);
      927    22056    3             CUR$ = M@CUR$->KQ$STA.BTN.FLINK$;
      928    22057    3             TEMP$ = M@CUR$->KQ$STA.RBLK$;
      929    22058    3             IF I = 1 THEN
      930    22059    4               DO;
      931    22060    4               STD.L = M@CUR$->KQ$STA.LOCKCNT;
      932    22061    4               IF M@CUR$->KQ$STA.IDSC THEN
      933    22062    4                 STD.I = 1;
      934    22063    4               IF M@CUR$->KQ$STA.TERM THEN
      935    22064    4                 STD.T = 1;
      936    22065    4               STD.U = M@CUR$->KQ$STA.USR#;
PL6.E3A0      #001=DAD$CGS File=DAD$CGS.:E05TSI                                  TUE 07/29/97 12:40 Page:35
      937    22066    4               STD.C = M@CUR$->KQ$STA.MLH.COUNT;
      938    22067    4               STD.R = M@CUR$->KQ$STA.READS;
      939    22068    4               STD.E = M@CUR$->KQ$STA.WRITES;
      940    22069    4               CALL VALPTR (TEMP$,AS0$) ALTRET (STDERR2);
      941    22070    4               CALL DAM$MAP (TEMP$,M@TEMP$) ALTRET (STDERR1);
      942    22071    4               STD.S = KQRS_XXXX (MINIMUM (M@TEMP$->KQ$RBLK.STATE,10));
      943    22072    4               END;
      944    22073    3             ELSE
      945    22074    4               DO;
      946    22075    4               CALL VALPTR (TEMP$,AS0$,R.D,R.W,R.N);
      947    22076    4               GATE = M@CUR$->KQ$STA.GATE;
      948    22077    4               CALL DAB$GATE (GATE);
      949    22078    4               END;
      950    22079    4               DO WHILE ('0'B);
      951    22080    4   STDERR0:
      952    22081    4               STD.X.N = ' maperr';
      953    22082    4               CUR$ = ADDR (NIL);
      954    22083    4   STDERR1:
      955    22084    4               STD.S = 'nmap';
      956    22085    4               CALL DAA$ERRMSG;
      957    22086    4               END;
      958    22087    4               DO WHILE ('0'B);
      959    22088    4   STDERR2:
      960    22089    4               STD.S = 'none';
      961    22090    4               END;
      962    22091    4               DO WHILE ('0'B);
      963    22092    4   STDERR3:
      964    22093    4               CUR$ = ADDR (NIL);
      965    22094    4               END;
      966    22095    3             IF I = 1 THEN
      967    22096    3               CALL DAF$WRITE (VECTOR (STREEFMT0), VECTOR (STD));
      968    22097    3             ELSE
      969    22098    3               CALL DAF$WRITE (VECTOR (STREEFMT1), VECTOR (STD.X), VECTOR (R),
      970    22099    3               VECTOR (DA_GATETXT));
      971    22100    3             END;
      972    22101    2           IF I = 1 THEN
      973    22102    3             DO;
PL6.E3A0      #001=DAD$CGS File=DAD$CGS.:E05TSI                                  TUE 07/29/97 12:40 Page:36
      974    22103    3             CALL DAF$WRITE (VECTOR (BLANKFMT));
      975    22104    3             CALL DAM$MAP (CG$,M@CG$) ALTRET (STDERR4);
      976    22105    3             END;
      977    22106    2           END;
      978    22107    2           DO WHILE ('0'B);
      979    22108    2   STDERR4:
      980    22109    2           CALL DAA$ERRMSG;
      981    22110    2           END;
      982    22111
      983    22112    1         RETURN;
      984    22113
      985    22114        %EJECT;
PL6.E3A0      #001=DAD$CGS File=DAD$CGS.:E05TSI                                  TUE 07/29/97 12:40 Page:37
      986    22115        /*F* NAME:        DAD$TTREE
      987    22116             PURPOSE:     This routine does the TTREE command.
      988    22117             DESCRIPTION: This routine sets up the current comgroup, or just
      989    22118                          displays relevant data for the current comgroup. */
      990    22119        /*D* NAME:        DAD$TTREE
      991    22120             ENTRY:       DAD$TTREE
      992    22121             CALL:        CALL DAD$TTREE (TOP);
      993    22122             INPUT:       TOP - Parse output block for TTREE command.
      994    22123             SCRATCH:     Mapping context.
      995    22124             DESCRIPTION:  */
      996    22125
      997    22126    1   DAD$TTREE: ENTRY (TOP);
      998    22127
      999    22128    1         CALL SETUP ALTRET (RETN);
     1000    22129    1         CALL DAF$INIT (TTREERPT);
     1001    22130    1         CALL DAB$GATE (KQ$CG.TTREE.GATE);
     1002    22131    1         CALL DAF$WRITE (VECTOR (TTGFMT), VECTOR (DA_GATETXT));
     1003    22132    1         CUR$ = KQ$CG.TTREE.HEAD$;
     1004    22133    1         IF CUR$ = ADDR (NIL) THEN
     1005    22134    2           DO;
     1006    22135    2           CALL DAF$WRITE (VECTOR (NOTHINGFMT));
     1007    22136    2           RETURN;
     1008    22137    2           END;
     1009    22138    1   LTTREE:
     1010    22139    2           DO I = 0 TO 1;
     1011    22140    2           TTD (I) = '0'B;
     1012    22141    2           CALL VALPTR (CUR$,AS0$,TTD.D (I),TTD.W (I)) ALTRET (TTOERR1);
     1013    22142    2           CALL DAM$MAP (CUR$,M@CUR$) ALTRET (TTOERR0);
     1014    22143    2           CALL XLATE(TTD.M(I),DA_PRINTABLE_TBL,M@CUR$->KQ$MTYP.BTN.KEY);
     1015    22144    2           IF M@CUR$->KQ$MTYP.JOURNAL THEN
     1016    22145    2             TTD.J (I) = 1;
     1017    22146    2           TTD.P (I) = M@CUR$->KQ$MTYP.MPRIO;
     1018    22147    2           TTD.N (I) = M@CUR$->KQ$MTYP.NUMWRITES;
     1019    22148    2           CUR$ = M@CUR$->KQ$MTYP.BTN.FLINK$;
     1020    22149    2           IF CUR$ = ADDR (NIL) THEN
     1021    22150    2             GOTO TTO;
     1022    22151    2           END;
PL6.E3A0      #001=DAD$CGS File=DAD$CGS.:E05TSI                                  TUE 07/29/97 12:40 Page:38
     1023    22152    1         I = 2;
     1024    22153    2           DO WHILE ('0'B);
     1025    22154    2   TTOERR0:
     1026    22155    2           CALL DAA$ERRMSG;
     1027    22156    2   TTOERR1:
     1028    22157    2           TTD.M (I) = ' maperr';
     1029    22158    2           CUR$ = ADDR (NIL);
     1030    22159    2   TTO:
     1031    22160    2           I = I + 1;
     1032    22161    2           END;
     1033    22162    1         CALL DAF$WRITE (VECTOR (TTREEFMT), VECTOR (I), VECTOR (TTD));
     1034    22163    1         IF CUR$ ~= ADDR (NIL) THEN
     1035    22164    1           GOTO LTTREE;
     1036    22165
     1037    22166    1         RETURN;
     1038    22167
     1039    22168        %EJECT;
PL6.E3A0      #001=DAD$CGS File=DAD$CGS.:E05TSI                                  TUE 07/29/97 12:40 Page:39
     1040    22169        /*F* NAME:        DAD$QTREE
     1041    22170             PURPOSE:     This routine does the QTREE command.
     1042    22171             DESCRIPTION: This routine sets up the current comgroup, or just
     1043    22172                          displays relevant data for the current comgroup. */
     1044    22173        /*D* NAME:        DAD$QTREE
     1045    22174             ENTRY:       DAD$QTREE
     1046    22175             CALL:        CALL DAD$QTREE (TOP);
     1047    22176             INPUT:       TOP - Parse output block for QTREE command.
     1048    22177             SCRATCH:     Mapping context.
     1049    22178             DESCRIPTION:  */
     1050    22179
     1051    22180    1   DAD$QTREE: ENTRY (TOP);
     1052    22181
     1053    22182    1         CALL SETUP ALTRET (RETN);
     1054    22183    1         CALL DAF$INIT (QTREERPT);
     1055    22184    1         IF KQ$CG.QUEUE.QTREE$ = ADDR (NIL) THEN
     1056    22185    1   QTDERR3:
     1057    22186    2           DO;
     1058    22187    2           CALL DAF$WRITE (VECTOR (NOTHINGFMT));
     1059    22188    2           RETURN;
     1060    22189    2           END;
     1061    22190    1         CALL DAM$MAP (KQ$CG.QUEUE.QTREE$,M@TEMP$) ALTRET (QTDERR0);
     1062    22191    1         IF M@TEMP$->KQ$THDR.HEAD$ = ADDR (NIL) THEN
     1063    22192    1           GOTO QTDERR3;
     1064    22193    1         CUR$ = M@TEMP$->KQ$THDR.HEAD$;
     1065    22194    2           DO WHILE (CUR$ ~= ADDR (NIL));
     1066    22195    2           QTD = '0'B;
     1067    22196    2           CALL VALPTR (CUR$,AS0$,QTD.D,QTD.W) ALTRET (QTDERR2);
     1068    22197    2           CALL DAM$MAP (CUR$,M@CUR$) ALTRET (QTDERR1);
     1069    22198    2           CALL XLATE(QTD.N,DA_PRINTABLE_TBL,M@CUR$->KQ$QTN.STA.BTN.KEY);
     1070    22199    2           QTD.A = M@CUR$->KQ$QTN.CNACT;
     1071    22200    2           CALL VALPTR (M@CUR$->KQ$QTN.READS$,AS0$,QTD.RD,QTD.RW,QTD.RN);
     1072    22201    2           QTD.L = M@CUR$->KQ$QTN.LOCKCNT;
     1073    22202    2           QTD.C = M@CUR$->KQ$QTN.MLH.COUNT;
     1074    22203    2           CUR$ = M@CUR$->KQ$QTN.STA.BTN.FLINK$;
     1075    22204    3             DO WHILE ('0'B);
     1076    22205    3   QTDERR1:
PL6.E3A0      #001=DAD$CGS File=DAD$CGS.:E05TSI                                  TUE 07/29/97 12:40 Page:40
     1077    22206    3             CALL DAA$ERRMSG;
     1078    22207    3   QTDERR2:
     1079    22208    3             QTD.N = ' maperr';
     1080    22209    3             CUR$ = ADDR (NIL);
     1081    22210    3             END;
     1082    22211    2           CALL DAF$WRITE (VECTOR (QTREEFMT), VECTOR (QTD));
     1083    22212    2           END;
     1084    22213    2           DO WHILE ('0'B);
     1085    22214    2   QTDERR0:
     1086    22215    2           CALL DAA$ERRMSG;
     1087    22216    2           END;
     1088    22217
     1089    22218    1         RETURN;
     1090    22219
     1091    22220        %EJECT;
PL6.E3A0      #001=DAD$CGS File=DAD$CGS.:E05TSI                                  TUE 07/29/97 12:40 Page:41
     1092    22221        /*I* NAME:        DI1CG
     1093    22222             ENTRY:       DI1CG
     1094    22223             CALL:        CALL DI1CG ALTRET (maperr);
     1095    22224             INPUT:       CG$ - Pointer to comgroup context block.
     1096    22225                          F$CFU$ - Pointer to CFU data segment.
     1097    22226                          M@F$CFU$ - Mapped pointer to CFU data segment.
     1098    22227             OUTPUT:      M@CG$ - Mapped pointer to comgroup context block.
     1099    22228                          DA_ASR - Setup to access DSB of KQ$CG.DSB$;
     1100    22229             SCRATCH:     Mapping context, M@DSB$ .
     1101    22230             DESCRIPTION: The summary information is displayed for the comgroup
     1102    22231                          whose context block is at CG$. The fid of the CG is
     1103    22232                          obtained from the CFU (KQ$CG.CFU$), using code that
     1104    22233                          Harold ripped from Rumsey. ALTRETs if a mapping
     1105    22234                          error occurred, else RETURNs. */
     1106    22235
     1107    22236    1   DI1CG: PROC ALTRET;
     1108    22237
     1109    22238    2   DCL CTXT UBIN;
     1110    22239    2   DCL DSB UBIN;
     1111    22240    2   DCL CFU UBIN;
     1112    22241    2   DCL AUSTAD UBIN;
     1113    22242    2   DCL AUSTA UBIN;
     1114    22243    2   DCL AUSTAN UBIN;
     1115    22244    2   DCL AUSTA$ PTR;
     1116    22245    2   DCL M@AUSTA$ PTR;
     1117    22246    2   DCL TERMS UBIN;
     1118    22247    2   DCL DCBS UBIN;
     1119    22248    2   DCL STA CHAR(8);
     1120    22249    2   DCL C$ PTR;
     1121    22250    2   DCL A$ PTR;
     1122    22251    2   DCL ACCT CHAR(8);
     1123    22252    2   DCL PSN CHAR(6);
     1124    22253    2   DCL 1 FNAME,
     1125    22254    2         2 L UBIN BYTE UNAL,
     1126    22255    2         2 C CHAR(31);
     1127    22256    2   DCL CFU$ PTR;
     1128    22257
PL6.E3A0      #001=DAD$CGS File=DAD$CGS.:E05TSI                                  TUE 07/29/97 12:40 Page:42
     1129    22258    2         CALL VALPTR (CG$,B$CGCTXT$,,CTXT) ALTRET (ARET);
     1130    22259    2         CALL DAM$MAP (CG$,M@CG$) ALTRET (MAPERR);
     1131    22260    2         CALL VALPTR (KQ$CG.MMD.DSB$,B$CGCTXT$,,DSB) ALTRET (RETN);
     1132    22261    2         CALL DAM$MAP (KQ$CG.MMD.DSB$,M@DSB$) ALTRET (MAPERR);
     1133    22262    2         DA_ASR = M@DSB$->BIT$72DA;
     1134    22263    2         TERMS = KQ$CG.STATS.NUMTERMS;
     1135    22264    2         DCBS = KQ$CG.STATS.NUMDCBS;
     1136    22265    2         CFU$ = KQ$CG.CFU$;
     1137    22266    2         AUSTA$ = KQ$CG.AUSTA$;
     1138    22267    2         CALL VALPTR (AUSTA$,AS0$,AUSTAD,AUSTA,AUSTAN) ALTRET (NOSTA);
     1139    22268    2         CALL DAM$MAP (AUSTA$,M@AUSTA$) ALTRET (NOSEE);
     1140    22269    2         CALL XLATE(STA,DA_PRINTABLE_TBL,M@AUSTA$->KQ$STA.BTN.KEY);
     1141    22270    3           DO WHILE ('0'B);
     1142    22271    3   NOSTA:
     1143    22272    3           STA = '  none';
     1144    22273    3           END;
     1145    22274    3           DO WHILE ('0'B);
     1146    22275    3   NOSEE:
     1147    22276    3           DA_MAPERR = '0'B;
     1148    22277    3           STA = ' maperr';
     1149    22278    3           END;
     1150    22279    2         CALL VALPTR (CFU$,F$CFU$,,CFU) ALTRET (NOCFU);
     1151    22280    2         CALL DAM$MAP (F$CFU$,M@F$CFU$) ALTRET (NOCFU);
     1152    22281    2         C$ = PINCRW (M@F$CFU$,CFU);
     1153    22282    2         A$ = PINCRW (M@F$CFU$,C$->FM$CFU.ACCTX);
     1154    22283    2         ACCT = A$->FM$CFUA.ACCT;
     1155    22284    2         PSN = ADDR (M@F$CFU$->FM$SETA (A$->FM$CFUA.SETX))->FM$SET.PSN;
     1156    22285    3           DO WHILE (C$->FM$CFU.NAMEX < M@F$CFU$->FM$CFUX.CFUT);
     1157    22286    3           C$ = PINCRW (M@F$CFU$,C$->FM$CFU.NAMEX);
     1158    22287    3           END;
     1159    22288    2         C$ = PINCRC (M@F$CFU$,C$->FM$CFU.NAMEX);
     1160    22289    2         FNAME.L = C$->FM$CFUN.L;
     1161    22290    2         FNAME.C = C$->FM$CFUN.C;
     1162    22291    3           DO WHILE ('0'B);
     1163    22292    3   NOCFU:
     1164    22293    3           DA_MAPERR = '0'B;
     1165    22294    3           PSN = 'cfu';
PL6.E3A0      #001=DAD$CGS File=DAD$CGS.:E05TSI                                  TUE 07/29/97 12:40 Page:43
     1166    22295    3           ACCT = 'onto';
     1167    22296    3           FNAME.L = LENGTHC ('can''t map');
     1168    22297    3           FNAME.C = 'can''t map';
     1169    22298    3           END;
     1170    22299    2         CALL DAF$WRITE (VECTOR (CGSFMT),
     1171    22300    2         VECTOR (CTXT),
     1172    22301    2         VECTOR (DSB),
     1173    22302    2         VECTOR (CFU),
     1174    22303    2         VECTOR (STA),
     1175    22304    2         VECTOR (AUSTA),
     1176    22305    2         VECTOR (AUSTAD),
     1177    22306    2         VECTOR (AUSTAN),
     1178    22307    2         VECTOR (TERMS),
     1179    22308    2         VECTOR (DCBS),
     1180    22309    2         VECTOR (FNAME),
     1181    22310    2         VECTOR (ACCT),
     1182    22311    2         VECTOR (PSN));
     1183    22312    2         CALL DAM$MAP (CG$,M@CG$) ALTRET (MAPERR);
     1184    22313
     1185    22314    3           DO WHILE ('0'B);
     1186    22315    3   MAPERR:
     1187    22316    3           CALL DAA$ERRMSG;
     1188    22317    3   ARET:
     1189    22318    3           ALTRETURN;
     1190    22319    3           END;
     1191    22320
     1192    22321    2   RETN:
     1193    22322    2         RETURN;
     1194    22323
     1195    22324    2   END DI1CG;
     1196    22325        /*I* NAME:        DI1CGMEM
     1197    22326             ENTRY:       DI1CGMEM
     1198    22327             CALL:        CALL DI1CGMEM  ALTRET (maperr);
     1199    22328             INPUT:       CG$ - Pointer to comgroup context block.
     1200    22329                          F$CFU$ - Pointer to CFU data segment.
     1201    22330                          M@F$CFU$ - Mapped pointer to CFU data segment.
     1202    22331                          MEMVAR - Area to keep system totals
PL6.E3A0      #001=DAD$CGS File=DAD$CGS.:E05TSI                                  TUE 07/29/97 12:40 Page:44
     1203    22332             OUTPUT:      M@CG$ - Mapped pointer to comgroup context block.
     1204    22333             SCRATCH:     Mapping context, M@DSB$ .
     1205    22334             DESCRIPTION: The summary information is displayed for the comgroup
     1206    22335                          whose context block is at CG$. The fid of the CG is
     1207    22336                          obtained from the CFU (KQ$CG.CFU$), using code that
     1208    22337                          Harold ripped from Rumsey. ALTRETs if a mapping
     1209    22338                          error occurred, else RETURNs. */
     1210    22339
     1211    22340    1   DI1CGMEM: PROC ALTRET;
     1212    22341
     1213    22342    2   DCL CTXT UBIN;
     1214    22343    2   DCL CFU UBIN;
     1215    22344    2   DCL MAXBP UBIN;
     1216    22345    2   DCL MINBP UBIN;
     1217    22346    2   DCL CURBP UBIN;
     1218    22347    2   DCL MAXDP UBIN;
     1219    22348    2   DCL MINDP UBIN;
     1220    22349    2   DCL CURDP UBIN;
     1221    22350    2   DCL CURPG UBIN;
     1222    22351    2   DCL C$ PTR;
     1223    22352    2   DCL A$ PTR;
     1224    22353    2   DCL ACCT CHAR(8);
     1225    22354    2   DCL PSN CHAR(6);
     1226    22355    2   DCL 1 FNAME,
     1227    22356    2         2 L UBIN BYTE UNAL,
     1228    22357    2         2 C CHAR(31);
     1229    22358    2   DCL CFU$ PTR;
     1230    22359
     1231    22360    2         CALL VALPTR (CG$,B$CGCTXT$,,CTXT) ALTRET (ARET);
     1232    22361    2         CALL DAM$MAP (CG$,M@CG$) ALTRET (MAPERR);
     1233    22362    2         MAXBP = KQ$CG.MMD.MAXBPG;
     1234    22363    2         MINBP = KQ$CG.MMD.MINBPG;
     1235    22364    2         CURBP = KQ$CG.MMD.CURBPG;
     1236    22365    2         MAXDP = KQ$CG.MAXDATAPGS;
     1237    22366    2         MINDP = KQ$CG.MINDATAPGS;
     1238    22367    2         CURDP = KQ$CG.CURDATAPGS;
     1239    22368    2         CURPG = KQ$CG.MMD.CURPG;
PL6.E3A0      #001=DAD$CGS File=DAD$CGS.:E05TSI                                  TUE 07/29/97 12:40 Page:45
     1240    22369    2         TMAXBP = TMAXBP + MAXBP;
     1241    22370    2         TMINBP = TMINBP + MINBP;
     1242    22371    2         TCURBP = TCURBP + CURBP;
     1243    22372    2         TMAXDP = TMAXDP + MAXDP;
     1244    22373    2         TMINDP = TMINDP + MINDP;
     1245    22374    2         TCURDP = TCURDP + CURDP;
     1246    22375    2         TCURPG = TCURPG + CURPG;
     1247    22376    2         CFU$ = KQ$CG.CFU$;
     1248    22377    2         CALL VALPTR (CFU$,F$CFU$,,CFU) ALTRET (NOCFU);
     1249    22378    2         CALL DAM$MAP (F$CFU$,M@F$CFU$) ALTRET (NOCFU);
     1250    22379    2         C$ = PINCRW (M@F$CFU$,CFU);
     1251    22380    2         A$ = PINCRW (M@F$CFU$,C$->FM$CFU.ACCTX);
     1252    22381    2         ACCT = A$->FM$CFUA.ACCT;
     1253    22382    2         PSN = ADDR (M@F$CFU$->FM$SETA (A$->FM$CFUA.SETX))->FM$SET.PSN;
     1254    22383    3           DO WHILE (C$->FM$CFU.NAMEX < M@F$CFU$->FM$CFUX.CFUT);
     1255    22384    3           C$ = PINCRW (M@F$CFU$,C$->FM$CFU.NAMEX);
     1256    22385    3           END;
     1257    22386    2         C$ = PINCRC (M@F$CFU$,C$->FM$CFU.NAMEX);
     1258    22387    2         FNAME.L = C$->FM$CFUN.L;
     1259    22388    2         FNAME.C = C$->FM$CFUN.C;
     1260    22389    3           DO WHILE ('0'B);
     1261    22390    3   NOCFU:
     1262    22391    3           DA_MAPERR = '0'B;
     1263    22392    3           PSN = 'cfu';
     1264    22393    3           ACCT = 'onto';
     1265    22394    3           FNAME.L = LENGTHC ('can''t map');
     1266    22395    3           FNAME.C = 'can''t map';
     1267    22396    3           END;
     1268    22397    2         CALL DAF$WRITE (VECTOR (CGMSFMT),
     1269    22398    2         VECTOR (CTXT),
     1270    22399    2         VECTOR(MAXBP),
     1271    22400    2         VECTOR(MINBP),
     1272    22401    2         VECTOR(CURBP),
     1273    22402    2         VECTOR(MAXDP),
     1274    22403    2         VECTOR(MINDP),
     1275    22404    2         VECTOR(CURDP),
     1276    22405    2         VECTOR(CURPG),
PL6.E3A0      #001=DAD$CGS File=DAD$CGS.:E05TSI                                  TUE 07/29/97 12:40 Page:46
     1277    22406    2         VECTOR (FNAME),
     1278    22407    2         VECTOR (ACCT),
     1279    22408    2         VECTOR (PSN));
     1280    22409    2         CALL DAM$MAP (CG$,M@CG$) ALTRET (MAPERR);
     1281    22410
     1282    22411    3           DO WHILE ('0'B);
     1283    22412    3   MAPERR:
     1284    22413    3           CALL DAA$ERRMSG;
     1285    22414    3   ARET:
     1286    22415    3           ALTRETURN;
     1287    22416    3           END;
     1288    22417
     1289    22418    2   RETN:
     1290    22419    2         RETURN;
     1291    22420
     1292    22421    2   END DI1CGMEM;
     1293    22422        %EJECT;
PL6.E3A0      #001=DAD$CGS File=DAD$CGS.:E05TSI                                  TUE 07/29/97 12:40 Page:47
     1294    22423        %EJECT;
PL6.E3A0      #001=DAD$CGS File=DAD$CGS.:E05TSI                                  TUE 07/29/97 12:40 Page:48
     1295    22424
     1296    22425        /*I* NAME:        DIDATACACHE
     1297    22426             ENTRY:       DIDATACACHE
     1298    22427             CALL:        CALL DIDATACACHE ALTRET (error);
     1299    22428             INPUT:       M@CG$ - Mapped pointer to current comgroup.
     1300    22429             DESCRIPTION: Displays the data cache information from the current
     1301    22430                          comgroup context block. */
     1302    22431
     1303    22432    1   DIDATACACHE: PROC ALTRET;
     1304    22433
     1305    22434    2   DCL DATA1 UBIN;
     1306    22435    2   DCL DATA1D UBIN;
     1307    22436    2   DCL DATA1N UBIN;
     1308    22437    2   DCL DATA2 UBIN;
     1309    22438    2   DCL DATA2D UBIN;
     1310    22439    2   DCL DATA2N UBIN;
     1311    22440    2   DCL DATA3 UBIN;
     1312    22441    2   DCL DATA3D UBIN;
     1313    22442    2   DCL DATA3N UBIN;
     1314    22443    2   DCL DATA4 UBIN;
     1315    22444    2   DCL DATA4D UBIN;
     1316    22445    2   DCL DATA4N UBIN;
     1317    22446
     1318    22447    2         CALL VALPTR (KQ$CG.NEEDPGHD$,AS0$,DATA1D,DATA1,DATA1N);
     1319    22448    2         CALL VALPTR (KQ$CG.IOHD$,AS0$,DATA2D,DATA2,DATA2N);
     1320    22449    2         CALL VALPTR (KQ$CG.GETHD$,AS0$,DATA3D,DATA3,DATA3N);
     1321    22450    2         CALL VALPTR (KQ$CG.AVAIL.HD$,AS0$,DATA4D,DATA4,DATA4N);
     1322    22451    2         CALL DAF$WRITE (VECTOR (DATFMT0), VECTOR (DATA1), VECTOR (DATA1D),
     1323    22452    2         VECTOR (DATA1N), VECTOR (DATA2), VECTOR (DATA2D), VECTOR (DATA2N),
     1324    22453    2         VECTOR (DATA3), VECTOR (DATA3D), VECTOR (DATA3N), VECTOR (DATA4),
     1325    22454    2         VECTOR (DATA4D), VECTOR (DATA4N));
     1326    22455    2         CALL VALPTR (KQ$CG.NEEDPGTL$,AS0$,DATA1D,DATA1,DATA1N);
     1327    22456    2         CALL VALPTR (KQ$CG.IOTL$,AS0$,DATA2D,DATA2,DATA2N);
     1328    22457    2         CALL VALPTR (KQ$CG.GETTL$,AS0$,DATA3D,DATA3,DATA3N);
     1329    22458    2         CALL VALPTR (KQ$CG.AVAIL.TL$,AS0$,DATA4D,DATA4,DATA4N);
     1330    22459    2         CALL DAF$WRITE (VECTOR (DATFMT1), VECTOR (DATA1), VECTOR (DATA1D),
     1331    22460    2         VECTOR (DATA1N), VECTOR (DATA2), VECTOR (DATA2D), VECTOR (DATA2N),
PL6.E3A0      #001=DAD$CGS File=DAD$CGS.:E05TSI                                  TUE 07/29/97 12:40 Page:49
     1332    22461    2         VECTOR (DATA3), VECTOR (DATA3D), VECTOR (DATA3N), VECTOR (DATA4),
     1333    22462    2         VECTOR (DATA4D), VECTOR (DATA4N));
     1334    22463    2         DATA1 = KQ$CG.NEEDPGCNT;
     1335    22464    2         DATA2 = KQ$CG.IOCNT;
     1336    22465    2         DATA3 = KQ$CG.GETFLG;
     1337    22466    2         CALL DAF$WRITE (VECTOR (DATFMT2), VECTOR (DATA1), VECTOR (DATA2),
     1338    22467    2         VECTOR (DATA3));
     1339    22468    2         CALL VALPTR (KQ$CG.DATAFREE$,AS0$,DATA1D,DATA1,DATA1N);
     1340    22469    2         CALL VALPTR (KQ$CG.IOQHD$,AS0$,DATA2D,DATA2,DATA2N);
     1341    22470    2         CALL VALPTR (KQ$CG.DFRFREEHD$,AS0$,DATA3D,DATA3,DATA3N);
     1342    22471    2         DATA4 = KQ$CG.CURDATAPGS;
     1343    22472    2         CALL DAF$WRITE (VECTOR (DATFMT3), VECTOR (DATA1), VECTOR (DATA1D),
     1344    22473    2         VECTOR (DATA1N), VECTOR (DATA2), VECTOR (DATA2D), VECTOR (DATA2N),
     1345    22474    2         VECTOR (DATA3), VECTOR (DATA3D), VECTOR (DATA3N), VECTOR (DATA4));
     1346    22475    2         DATA1 = KQ$CG.ADDFREE;
     1347    22476    2         CALL VALPTR (KQ$CG.IOQTL$,AS0$,DATA2D,DATA2,DATA2N);
     1348    22477    2         DATA3 = KQ$CG.NDFRBLKS;
     1349    22478    2         DATA4 = KQ$CG.MINDATAPGS;
     1350    22479    2         CALL DAF$WRITE (VECTOR (DATFMT4), VECTOR (DATA1), VECTOR (DATA2),
     1351    22480    2         VECTOR (DATA2D), VECTOR (DATA2N), VECTOR (DATA3), VECTOR (DATA4));
     1352    22481    2         DATA1 = KQ$CG.FREEDA;
     1353    22482    2         DATA2 = KQ$CG.UGRANS;
     1354    22483    2         DATA3 = KQ$CG.NGAVAL;
     1355    22484    2         DATA4 = KQ$CG.MAXDATAPGS;
     1356    22485    2         CALL DAF$WRITE (VECTOR (DATFMT5), VECTOR (DATA1), VECTOR (DATA2),
     1357    22486    2         VECTOR (DATA3), VECTOR (DATA4));
     1358    22487
     1359    22488    2         RETURN;
     1360    22489
     1361    22490    2   END DIDATACACHE;
     1362    22491
     1363    22492        %EJECT;
PL6.E3A0      #001=DAD$CGS File=DAD$CGS.:E05TSI                                  TUE 07/29/97 12:40 Page:50
     1364    22493
     1365    22494        /*I* NAME:        DIMLH
     1366    22495             ENTRY:       DIMLH
     1367    22496             CALL:        CALL DIMLH ALTRET(error);
     1368    22497             INPUT:       CUR$ - Unmapped pointer to current STATION or MSGTYP node
     1369    22498                          MLH$ - Unmapped pointer to current MLH (within CUR$ node)
     1370    22499             SCRATCH:     Mapping context.
     1371    22500             DESCRIPTION: DIMLH displays the information within the MLH referenced
     1372    22501                          by MLH$. */
     1373    22502
     1374    22503    1   DIMLH: PROC ALTRET;
     1375    22504
     1376    22505    2         MLHD = '0'B;
     1377    22506    2         MLHD.X.N = 'MLHmperr';
     1378    22507    2         CALL VALPTR (MLH$,AS0$,MLHD.X.D,MLHD.X.W);
     1379    22508    2         CALL DAM$MAP (MLH$,M@MLH$) ALTRET (MLHERR);
     1380    22509    2         MLHD.X.N = 'NODmperr';
     1381    22510    2         MLHD.Q = M@MLH$->KQ$MLH.QUEUE;
     1382    22511    2         CALL VALPTR (M@MLH$->KQ$MLH.HEAD$,AS0$,MLHD.H.D,MLHD.H.W,MLHD.H.N);
     1383    22512    2         CALL VALPTR (M@MLH$->KQ$MLH.TAIL$,AS0$,MLHD.T.D,MLHD.T.W,MLHD.T.N);
     1384    22513    2         TEMP$ = M@MLH$->KQ$MLH.DELAY$;
     1385    22514    2         ADDR(TEMP$)->KQ$DPTR.X = '0'B;
     1386    22515    2         CALL VALPTR (TEMP$,AS0$,MLHD.D.D,MLHD.D.W,MLHD.D.N);
     1387    22516    2         MLHD.S = M@MLH$->KQ$MLH.SUPERCNT;
     1388    22517    2         MLHD.C = M@MLH$->KQ$MLH.COUNT;
     1389    22518    2         IF M@MLH$->KQ$MLH.BUSY.RIP
     1390    22519    2         THEN MLHD.B = 'RIP';
     1391    22520    2         ELSE IF M@MLH$->KQ$MLH.BUSY.GIP
     1392    22521    2           THEN MLHD.B = 'GIP';
     1393    22522    2           ELSE MLHD.B = ' ';
     1394    22523    2         MLHD.RUSR = M@MLH$->KQ$MLH.RUSR#;
     1395    22524    2         IF M@MLH$->KQ$MLH.GACT THEN MLHD.G=1;
     1396    22525    2         MLHD.P = M@MLH$->KQ$MLH.PCSTAMP;
     1397    22526    2         MLHD.RQGC = M@MLH$->KQ$MLH.RQGC;
     1398    22527    2         MLHD.RQMEM = M@MLH$->KQ$MLH.RQMEM;
     1399    22528    2         CALL DAM$MAP (CUR$,M@CUR$) ALTRET(MLHERR);
     1400    22529    2         CALL XLATE(MLHD.X.N,DA_PRINTABLE_TBL,M@CUR$->KQ$STA.BTN.KEY);
PL6.E3A0      #001=DAD$CGS File=DAD$CGS.:E05TSI                                  TUE 07/29/97 12:40 Page:51
     1401    22530    2   MLHERR: CALL DAF$WRITE (VECTOR (MLHFMT0), VECTOR (MLHD));
     1402    22531    2         RETURN;
     1403    22532
     1404    22533    2   END DIMLH;
     1405    22534
     1406    22535        %EJECT;
PL6.E3A0      #001=DAD$CGS File=DAD$CGS.:E05TSI                                  TUE 07/29/97 12:40 Page:52
     1407    22536        /*I* NAME:        DIDFR
     1408    22537             ENTRY:       DIDFR
     1409    22538             CALL:        CALL DIDFR;
     1410    22539             INPUT:       DFRFMT_ - VECTOR framing a string naming the head of
     1411    22540                                    the DFRBLK list to be displayed.
     1412    22541                          DFR$ - Unmapped pointer to head of DFRBLK list to display.
     1413    22542             SCRATCH:     Mapping context.
     1414    22543             DESCRIPTION: DIDFR displays the list of DFRBLKs headed by DFR$. */
     1415    22544
     1416    22545    1   DIDFR: PROC;
     1417    22546
     1418    22547    2   DCL CODETBL(0:10) CONSTANT CHAR(8) INIT(
     1419    22548    2         '??? 0','FETCH','RENEGE','DEL','??? 4','GET','WRITE','??? 7',
     1420    22549    2         '??? 8','GETFREE','GETNEW');
     1421    22550    2   DCL ADR UBIN;
     1422    22551    2   DCL P$ PTR;
     1423    22552    2   DCL UBIN$HALF UBIN HALF BASED HALIGNED;
     1424    22553    2   DCL 1 NAM BASED,
     1425    22554    2         2 L UBIN HALF HALIGNED,
     1426    22555    2         2 C CHAR(NAM.L);
     1427    22556
     1428    22557    2         CALL VALPTR (DFR$,AS0$) ALTRET(RET);
     1429    22558    2         CALL DAF$WRITE (DFRFMT_);
     1430    22559    3           DO WHILE(DFR$~=ADDR(NIL));
     1431    22560    3           DFRD = '0'B;
     1432    22561    3           CALL VALPTR(DFR$,AS0$,DFRD.SELF$.D,DFRD.SELF$.W) ALTRET(RET);
     1433    22562    3           CALL DAM$MAP(DFR$,M@DFR$) ALTRET(MAPERR);
     1434    22563    3           DFRD.CODE = CODETBL(KQ$DFRBLK.CODE);
     1435    22564    3           ADR = ADDR(KQ$DFRBLK.EPTR$)->UBIN$HALF;
     1436    22565    3           CALL DAS$IC2ED (ADR,P$) ALTRET(BLANK_IT);
     1437    22566    3           P$ = PINCRW(DA_DNAME$,P$->B$EDEF.NPOINTER);
     1438    22567    3           DFRD.ENTPTR = P$->NAM.C;
     1439    22568    4             DO WHILE('0'B);
     1440    22569    4   BLANK_IT: DFRD.ENTPTR = ' ';
     1441    22570    4             END;
     1442    22571    3           DFRD.GO = STARTBL(BITBIN(KQ$DFRBLK.GO));
     1443    22572    3           DFRD.EVNT = STARTBL(BITBIN(KQ$DFRBLK.EVNT));
PL6.E3A0      #001=DAD$CGS File=DAD$CGS.:E05TSI                                  TUE 07/29/97 12:40 Page:53
     1444    22573    3           DFRD.ABORT = STARTBL(BITBIN(KQ$DFRBLK.ABORT));
     1445    22574    3           DFRD.GFLG = STARTBL(BITBIN(KQ$DFRBLK.GFLG));
     1446    22575    3           IF KQ$DFRBLK.DA=0
     1447    22576    3           THEN DFRD.DA.N = 1;
     1448    22577    3           ELSE DFRD.DA.V = KQ$DFRBLK.DA;
     1449    22578    3           IF KQ$DFRBLK.DDA=0
     1450    22579    3           THEN DFRD.DDA.N = 1;
     1451    22580    3           ELSE DFRD.DDA.V = KQ$DFRBLK.DDA;
     1452    22581    3           IF KQ$DFRBLK.DBLK=0
     1453    22582    3           THEN DFRD.DBLK.N = 1;
     1454    22583    3           ELSE DFRD.DBLK.V = KQ$DFRBLK.DBLK;
     1455    22584    3           IF KQ$DFRBLK.DGRAN$=PS0$
     1456    22585    3           THEN DFRD.DGRAN$.N = 1;
     1457    22586    3           ELSE CALL VALPTR(KQ$DFRBLK.DGRAN$,AS0$,DFRD.DGRAN$.D,DFRD.DGRAN$.W,DFRD.
             22586                    DGRAN$.N1);
     1458    22587    3           IF KQ$DFRBLK.USR=0
     1459    22588    3           THEN DFRD.USR.N = 1;
     1460    22589    3           ELSE DFRD.USR.V = KQ$DFRBLK.USR;
     1461    22590    3           IF KQ$DFRBLK.ERRCODE=0
     1462    22591    3           THEN DFRD.ERR.N = 1;
     1463    22592    3           ELSE DFRD.ERR.V = KQ$DFRBLK.ERRCODE;
     1464    22593    3           IF KQ$DFRBLK.INFO=0
     1465    22594    3           THEN DFRD.INFO.N = 1;
     1466    22595    3           ELSE DFRD.INFO.V = KQ$DFRBLK.INFO;
     1467    22596    3   MAPERR: CALL DAF$WRITE (VECTOR(DFRBLKFMT),VECTOR(DFRD));
     1468    22597    3           DFR$ = KQ$DFRBLK.LNK$;
     1469    22598    3           END;
     1470    22599    2   RET:  RETURN;
     1471    22600    2   END DIDFR;
     1472    22601
     1473    22602        %EJECT;
PL6.E3A0      #001=DAD$CGS File=DAD$CGS.:E05TSI                                  TUE 07/29/97 12:40 Page:54
     1474    22603
     1475    22604        /*I* NAME:        DIMMD
     1476    22605             ENTRY:       DIMMD
     1477    22606             CALL:        CALL DIMMD ALTRET (error);
     1478    22607             INPUT:       M@CG$ - Mapped pointer to current comgroup.
     1479    22608             DESCRIPTION: Displays the MMD data information from the current
     1480    22609                          comgroup context block. */
     1481    22610
     1482    22611    1   DIMMD: PROC ALTRET;
     1483    22612
     1484    22613    2   DCL DATA1 UBIN;
     1485    22614    2   DCL DATA1D UBIN;
     1486    22615    2   DCL DATA1N UBIN;
     1487    22616    2   DCL DATA2 UBIN;
     1488    22617    2   DCL DATA3 UBIN;
     1489    22618    2   DCL DATA4 UBIN;
     1490    22619    2   DCL DATA4D UBIN;
     1491    22620    2   DCL DATA4N UBIN;
     1492    22621    2   DCL DATA5 UBIN;
     1493    22622
     1494    22623    2         CALL DAB$GATE (KQ$CG.MMD.GATE);
     1495    22624    2         CALL DAF$WRITE (VECTOR (MMDFMT0), VECTOR (DA_GATETXT));
     1496    22625    2         CALL VALPTR (KQ$CG.MMD.HEAD$,AS0$,DATA1D,DATA1,DATA1N);
     1497    22626    2         DATA2 = KQ$CG.MMD.CURPG;
     1498    22627    2         DATA3 = KQ$CG.MMD.MAXBPG;
     1499    22628    2         CALL VALPTR (KQ$CG.MMD.BASEREL$,AS0$,DATA4D,DATA4,DATA4N);
     1500    22629    2         IF KQ$CG.MMD.GIP THEN
     1501    22630    2           DATA5 = 1;
     1502    22631    2         ELSE
     1503    22632    2           DATA5 = 0;
     1504    22633    2         CALL DAF$WRITE (VECTOR (MMDFMT1), VECTOR (DATA1), VECTOR (DATA1D),
     1505    22634    2         VECTOR (DATA1N), VECTOR (DATA2), VECTOR (DATA3), VECTOR (DATA4),
     1506    22635    2         VECTOR (DATA4D), VECTOR (DATA4N), VECTOR (DATA5));
     1507    22636    2         CALL VALPTR (KQ$CG.MMD.PHEAD$,AS0$,DATA1D,DATA1,DATA1N);
     1508    22637    2         DATA2 = KQ$CG.MMD.CURBPG;
     1509    22638    2         DATA3 = KQ$CG.MMD.MINBPG;
     1510    22639    2         CALL VALPTR (KQ$CG.MMD.STAHD$,AS0$,DATA4D,DATA4,DATA4N);
PL6.E3A0      #001=DAD$CGS File=DAD$CGS.:E05TSI                                  TUE 07/29/97 12:40 Page:55
     1511    22640    2         CALL DAF$WRITE (VECTOR (MMDFMT2), VECTOR (DATA1), VECTOR (DATA1D),
     1512    22641    2         VECTOR (DATA1N), VECTOR (DATA2), VECTOR (DATA3), VECTOR (DATA4),
     1513    22642    2         VECTOR (DATA4D), VECTOR (DATA4N));
     1514    22643    2         CALL VALPTR (KQ$CG.MMD.FREE$,AS0$,DATA1D,DATA1,DATA1N);
     1515    22644    2         DATA2 = KQ$CG.MMD.CURPPG;
     1516    22645    2         DATA3 = KQ$CG.MMD.BAPLOCK;
     1517    22646    2         CALL VALPTR (KQ$CG.MMD.MBLKHD$,AS0$,DATA4D,DATA4,DATA4N);
     1518    22647    2         DATA5 = KQ$CG.MMD.FREECNT;
     1519    22648    2         CALL DAF$WRITE (VECTOR (MMDFMT3), VECTOR (DATA1), VECTOR (DATA1D),
     1520    22649    2         VECTOR (DATA1N), VECTOR (DATA2), VECTOR (DATA3), VECTOR (DATA4),
     1521    22650    2         VECTOR (DATA4D), VECTOR (DATA4N), VECTOR (DATA5));
     1522    22651
     1523    22652    2         RETURN;
     1524    22653
     1525    22654    2   END DIMMD;
     1526    22655
     1527    22656        %EJECT;
PL6.E3A0      #001=DAD$CGS File=DAD$CGS.:E05TSI                                  TUE 07/29/97 12:40 Page:56
     1528    22657
     1529    22658        /*I* NAME:        DIGARB
     1530    22659             ENTRY:       DIGARB
     1531    22660             CALL:        CALL DIGARB ALTRET (error);
     1532    22661             INPUT:       M@CG$ - Mapped pointer to current comgroup.
     1533    22662             DESCRIPTION: Displays the GARB data information from the current
     1534    22663                          comgroup context block. */
     1535    22664
     1536    22665    1   DIGARB: PROC ALTRET;
     1537    22666
     1538    22667    2   DCL DATA1 UBIN;
     1539    22668    2   DCL DATA2 UBIN;
     1540    22669    2   DCL DATA2D UBIN;
     1541    22670    2   DCL DATA2N UBIN;
     1542    22671    2   DCL DATA3 UBIN;
     1543    22672    2   DCL DATA4 UBIN;
     1544    22673
     1545    22674    2         IF KQ$CG.GARB.STA THEN
     1546    22675    2           DATA1 = 1;
     1547    22676    2         ELSE
     1548    22677    2           DATA1 = 0;
     1549    22678    2         CALL VALPTR (KQ$CG.GARB.MBLK$,AS0$,DATA2D,DATA2,DATA2N);
     1550    22679    2         DATA3 = KQ$CG.GARB.DELAY;
     1551    22680    2         DATA4 = KQ$CG.GARB.NCSTAMP;
     1552    22681    2         CALL DAF$WRITE (VECTOR (GARBFMT0), VECTOR (DATA1), VECTOR (DATA2),
     1553    22682    2         VECTOR (DATA2D), VECTOR (DATA2N), VECTOR (DATA3), VECTOR (DATA4));
     1554    22683    2         IF KQ$CG.GARB.DMIP THEN
     1555    22684    2           DATA1 = 1;
     1556    22685    2         ELSE
     1557    22686    2           DATA1 = 0;
     1558    22687    2         CALL VALPTR (KQ$CG.GARB.OMLH$,AS0$,DATA2D,DATA2,DATA2N);
     1559    22688    2         DATA3 = KQ$CG.GARB.ACTCNT;
     1560    22689    2         DATA4 = KQ$CG.GARB.NCDDA;
     1561    22690    2         CALL DAF$WRITE (VECTOR (GARBFMT1), VECTOR (DATA1), VECTOR (DATA2),
     1562    22691    2         VECTOR (DATA2D), VECTOR (DATA2N), VECTOR (DATA3), VECTOR (DATA4));
     1563    22692    2         IF KQ$CG.GARB.RECYCLE THEN
     1564    22693    2           DATA1 = 1;
PL6.E3A0      #001=DAD$CGS File=DAD$CGS.:E05TSI                                  TUE 07/29/97 12:40 Page:57
     1565    22694    2         ELSE
     1566    22695    2           DATA1 = 0;
     1567    22696    2         CALL VALPTR (KQ$CG.GARB.SPHD$,AS0$,DATA2D,DATA2,DATA2N);
     1568    22697    2         DATA3 = KQ$CG.GARB.SPLITCNT;
     1569    22698    2         DATA4 = KQ$CG.GARB.SCSTAMP;
     1570    22699    2         CALL DAF$WRITE (VECTOR (GARBFMT2), VECTOR (DATA1), VECTOR (DATA2),
     1571    22700    2         VECTOR (DATA2D), VECTOR (DATA2N), VECTOR (DATA3), VECTOR (DATA4));
     1572    22701    2         IF KQ$CG.GARB.INSRT THEN
     1573    22702    2           DATA1 = 1;
     1574    22703    2         ELSE
     1575    22704    2           DATA1 = 0;
     1576    22705    2         CALL VALPTR (KQ$CG.GARB.SPTL$,AS0$,DATA2D,DATA2,DATA2N);
     1577    22706    2         DATA3 = KQ$CG.GARB.INDX;
     1578    22707    2         DATA4 = KQ$CG.GARB.SCDDA;
     1579    22708    2         CALL DAF$WRITE (VECTOR (GARBFMT3), VECTOR (DATA1), VECTOR (DATA2),
     1580    22709    2         VECTOR (DATA2D), VECTOR (DATA2N), VECTOR (DATA3), VECTOR (DATA4));
     1581    22710    2         IF KQ$CG.GARB.CONERR THEN
     1582    22711    2           DATA1 = 1;
     1583    22712    2         ELSE
     1584    22713    2           DATA1 = 0;
     1585    22714    2         CALL VALPTR (KQ$CG.GARB.SQHD$,AS0$,DATA2D,DATA2,DATA2N);
     1586    22715    2         DATA3 = KQ$CG.GARB.RELCNT;
     1587    22716    2         DATA4 = KQ$CG.GARB.PCSTAMP;
     1588    22717    2         CALL DAF$WRITE (VECTOR (GARBFMT4), VECTOR (DATA1), VECTOR (DATA2),
     1589    22718    2         VECTOR (DATA2D), VECTOR (DATA2N), VECTOR (DATA3), VECTOR (DATA4));
     1590    22719    2         IF KQ$CG.GARB.SQIP THEN
     1591    22720    2           DATA1 = 1;
     1592    22721    2         ELSE
     1593    22722    2           DATA1 = 0;
     1594    22723    2         CALL VALPTR (KQ$CG.GARB.DBLK$,AS0$,DATA2D,DATA2,DATA2N);
     1595    22724    2         DATA3 = KQ$CG.GARB.CCCOUNT;
     1596    22725    2         DATA4 = KQ$CG.GARB.SPSTATE;
     1597    22726    2         CALL DAF$WRITE (VECTOR (GARBFMT5), VECTOR (DATA1), VECTOR (DATA2),
     1598    22727    2         VECTOR (DATA2D), VECTOR (DATA2N), VECTOR (DATA3), VECTOR (DATA4));
     1599    22728    2         IF KQ$CG.GARB.DELJ THEN
     1600    22729    2           DATA1 = 1;
     1601    22730    2         ELSE
PL6.E3A0      #001=DAD$CGS File=DAD$CGS.:E05TSI                                  TUE 07/29/97 12:40 Page:58
     1602    22731    2           DATA1 = 0;
     1603    22732    2         CALL VALPTR (KQ$CG.GARB.JNLD$,AS0$,DATA2D,DATA2,DATA2N);
     1604    22733    2         DATA3 = KQ$CG.GARB.TCOUNT;
     1605    22734    2         DATA4 = KQ$CG.GARB.TYPE;
     1606    22735    2         CALL DAF$WRITE (VECTOR (GARBFMT6), VECTOR (DATA1), VECTOR (DATA2),
     1607    22736    2         VECTOR (DATA2D), VECTOR (DATA2N), VECTOR (DATA3), VECTOR (DATA4));
     1608    22737
     1609    22738    2         RETURN;
     1610    22739
     1611    22740    2   END DIGARB;
     1612    22741
     1613    22742        %EJECT;
PL6.E3A0      #001=DAD$CGS File=DAD$CGS.:E05TSI                                  TUE 07/29/97 12:40 Page:59
     1614    22743
     1615    22744        /*I* NAME:        DIQUEUE
     1616    22745             ENTRY:       DIQUEUE
     1617    22746             CALL:        CALL DIQUEUE ALTRET (error);
     1618    22747             INPUT:       M@CG$ - Mapped pointer to current comgroup.
     1619    22748             DESCRIPTION: Displays the QUEUE data information from the current
     1620    22749                          comgroup context block. */
     1621    22750
     1622    22751    1   DIQUEUE: PROC ALTRET;
     1623    22752
     1624    22753    2   DCL DATA1 UBIN;
     1625    22754    2   DCL DATA1D UBIN;
     1626    22755    2   DCL DATA1N UBIN;
     1627    22756    2   DCL DATA2 UBIN;
     1628    22757    2   DCL DATA2D UBIN;
     1629    22758    2   DCL DATA2N UBIN;
     1630    22759    2   DCL DATA3 UBIN;
     1631    22760    2   DCL DATA3C REDEF DATA3 CHAR(4);
     1632    22761    2   DCL DATA4 UBIN;
     1633    22762    2   DCL DATA5 UBIN;
     1634    22763
     1635    22764    2         CALL VALPTR (KQ$CG.QUEUE.WCRL$,AS0$,DATA1D,DATA1,DATA1N);
     1636    22765    2         TEMP$ = KQ$CG.QUEUE.DELAY$;
     1637    22766    2         ADDR(TEMP$)->KQ$DPTR.X = '0'B;
     1638    22767    2         CALL VALPTR (TEMP$,AS0$,DATA2D,DATA2,DATA2N);
     1639    22768    2         IF KQ$CG.QUEUE.BUSY.RIP
     1640    22769    2         THEN DATA3C = 'RIP';
     1641    22770    2         ELSE IF KQ$CG.QUEUE.BUSY.GIP
     1642    22771    2           THEN DATA3C = 'GIP';
     1643    22772    2           ELSE DATA3C = 'none';
     1644    22773    2         IF KQ$CG.QUEUE.GACT THEN
     1645    22774    2           DATA4 = 1;
     1646    22775    2         ELSE
     1647    22776    2           DATA4 = 0;
     1648    22777    2         IF KQ$CG.QUEUE.RQGC THEN
     1649    22778    2           DATA5 = 1;
     1650    22779    2         ELSE
PL6.E3A0      #001=DAD$CGS File=DAD$CGS.:E05TSI                                  TUE 07/29/97 12:40 Page:60
     1651    22780    2           DATA5 = 0;
     1652    22781    2         CALL DAF$WRITE (VECTOR (QUEUEFMT0), VECTOR (DATA1), VECTOR (DATA1D),
     1653    22782    2         VECTOR (DATA1N), VECTOR (DATA2), VECTOR (DATA2D), VECTOR (DATA2N),
     1654    22783    2         VECTOR (DATA3), VECTOR (DATA4), VECTOR (DATA5));
     1655    22784    2         CALL VALPTR (KQ$CG.QUEUE.PLHD$,AS0$,DATA1D,DATA1,DATA1N);
     1656    22785    2         CALL VALPTR (KQ$CG.QUEUE.MLH$,AS0$,DATA2D,DATA2,DATA2N);
     1657    22786    2         DATA3 = KQ$CG.QUEUE.RUSR#;
     1658    22787    2         IF KQ$CG.QUEUE.RQMEM
     1659    22788    2         THEN DATA4 = 1;
     1660    22789    2         ELSE DATA4 = 0;
     1661    22790    2         CALL DAF$WRITE (VECTOR (QUEUEFMT1), VECTOR (DATA1), VECTOR (DATA1D),
     1662    22791    2         VECTOR (DATA1N), VECTOR (DATA2), VECTOR (DATA2D), VECTOR (DATA2N),
     1663    22792    2         VECTOR (DATA3), VECTOR (DATA4));
     1664    22793
     1665    22794    2         RETURN;
     1666    22795
     1667    22796    2   END DIQUEUE;
     1668    22797
     1669    22798        %EJECT;
PL6.E3A0      #001=DAD$CGS File=DAD$CGS.:E05TSI                                  TUE 07/29/97 12:40 Page:61
     1670    22799        /*I* NAME:        SETUP
     1671    22800             ENTRY:       SETUP
     1672    22801             CALL:        CALL SETUP ALTRET (error);
     1673    22802             INPUT:       TOP - Top parse output block.
     1674    22803                          DA_CURRCG.CG$ - Pointer to current comgroup.
     1675    22804                          DA_ASR - ASR of current comgroup.
     1676    22805             OUTPUT:      CG$ - Pointer to current comgroup.
     1677    22806                          M@CG$ - Mapped pointer to current comgroup.
     1678    22807                          F$CFU$ - Pointer to CFU segment.
     1679    22808                          DA_CURRCG.CG$ - Pointer to current comgroup.
     1680    22809                          DA_ASR - ASR of current comgroup.
     1681    22810             DESCRIPTION: The pointers CG$ and F$CFU$ are setup. If TOP has
     1682    22811                          any sub-blocks then the new comgroup context address
     1683    22812                          is obtained, and the ASR is set with the ASR used to
     1684    22813                          address the new current comgroup. ALTRETurns if the
     1685    22814                          specified new comgroup context block and/or ASR could
     1686    22815                          not be setup, else RETURNs. */
     1687    22816
     1688    22817    1   SETUP: PROC ALTRET;
     1689    22818
     1690    22819    2   DCL CGID UBIN;
     1691    22820    2   DCL CCG$ PTR;
     1692    22821
     1693    22822    3         IF TOP.NSUBLKS ~= 0 THEN DO;
     1694    22823    4           IF TOP.SUBLK$(0)->OUT$BLK.NDTYPE = %FID# THEN DO;
     1695    22824    4             TEXTFID = TOP.SUBLK$(0)->OUT$SYM.TEXT;
     1696    22825    4             TEXTFIDL = TOP.SUBLK$(0)->OUT$SYM.COUNT;
     1697    22826    4             FPT_FID.TEXTFID_ = VECTOR(SUBSTR(TEXTFID,0,TEXTFIDL));
     1698    22827    5             CALL M$FID (FPT_FID) WHENALTRETURN DO;
     1699    22828    5               CALL DAA$ERRMSG (B$TCB$->B$TCB.ALT$->B$ALT.ERR);
     1700    22829    5               ALTRETURN;
     1701    22830    5               END;
     1702    22831    4             IF TFID_ACCT.ACCT# = ' ' THEN TFID_ACCT.ACCT# = ':SYS';
     1703    22832    4             CALL FINDCG ALTRET (NOCG);
     1704    22833    4             CCG$ = CG$;
     1705    22834    4             END;
     1706    22835    4           ELSE DO;
PL6.E3A0      #001=DAD$CGS File=DAD$CGS.:E05TSI                                  TUE 07/29/97 12:40 Page:62
     1707    22836    4             CALL DAA$VALUE (TOP.SUBLK$ (0)->OUT$BLK,CGID) ALTRET (AERR);
     1708    22837    4             CCG$ = PINCRW (B$CGCTXT$,CGID);
     1709    22838    4             END;
     1710    22839    3           GOTO CMN;
     1711    22840    3           END;
     1712    22841    2   SETUPCUR: ENTRY ALTRET;
     1713    22842
     1714    22843        /*I* NAME:        SETUPCUR
     1715    22844             ENTRY:       SETUPCUR
     1716    22845             DESCRIPTION: Same as SETUP except that TOP is not used as a
     1717    22846                          possible new CG context address. The old context
     1718    22847                          is re-established if an old context exists, ALTRET
     1719    22848                          otherwise. */
     1720    22849
     1721    22850    2         CCG$ = DA_CURCG.CG$;
     1722    22851    2   CMN:  IF CCG$ = ADDR (NIL) THEN
     1723    22852    3           DO;
     1724    22853    3           CALL DAA$ERRMSG (E_DA_NO_CURCG);
     1725    22854        /*E* ERROR:    DAD-E$DA_NO_CURCG
     1726    22855             MESSAGE0: There is no currently selected comgroup to display. */
     1727    22856    3           ALTRETURN;
     1728    22857    3           END;
     1729    22858
     1730    22859    2         CALL DAS$SDMONPTR (%M#KQ_MMSD,CG$) ALTRET (AERR);
     1731    22860    2         CALL DAM$MAP (CG$,M@CG$,,,DA_MONISDATA) ALTRET (AERR);
     1732    22861    2         CG$ = M@CG$->KQ$MMSD.CGHEAD$; /* Pick up CGHEAD$ */
     1733    22862    2         CALL DAM$MAP (B$DS1$,M@F$CFU$) ALTRET (AERR);
     1734    22863    2         F$CFU$ = B$DS1$ ;
     1735    22864    3           DO WHILE (CG$ ~= ADDR (NIL));
     1736    22865    3           CALL DAM$MAP (CG$,M@CG$) ALTRET (AERR);
     1737    22866    3           IF CG$ = CCG$ THEN
     1738    22867    3             GOTO GOTCG;
     1739    22868    3           CG$ = KQ$CG.LNK$;
     1740    22869    3           END;
     1741    22870    2   NOCG:
     1742    22871    2         CALL DAA$ERRMSG (E_DA_NO_SETCG);
     1743    22872    2         ALTRETURN;
PL6.E3A0      #001=DAD$CGS File=DAD$CGS.:E05TSI                                  TUE 07/29/97 12:40 Page:63
     1744    22873        /*E* ERROR:    DAD-E$DA_NO_SETCG
     1745    22874             MESSAGE0: Unable to access the currently selected comgroup. */
     1746    22875
     1747    22876    2   GOTCG:
     1748    22877    2         CALL VALPTR (KQ$CG.MMD.DSB$,B$CGCTXT$) ALTRET (NOCG);
     1749    22878    2         CALL DAM$MAP (KQ$CG.MMD.DSB$,M@DSB$) ALTRET (AERR);
     1750    22879    2         DA_ASR = M@DSB$->BIT$72DA;
     1751    22880    2         DA_CURCG.CG$ = CG$;
     1752    22881
     1753    22882    2         RETURN;
     1754    22883
     1755    22884    2   AERR:
     1756    22885    2         CALL DAA$ERRMSG;
     1757    22886
     1758    22887    2         ALTRETURN;
     1759    22888
     1760    22889    2   END SETUP;
     1761    22890
     1762    22891        %EJECT;
PL6.E3A0      #001=DAD$CGS File=DAD$CGS.:E05TSI                                  TUE 07/29/97 12:40 Page:64
     1763    22892        /*I*  NAME:    FINDCG
     1764    22893              ENTRY:   FINDCG
     1765    22894              CALL:    CALL FINDCG ALTRET (not_found_or_not_valid_fid);
     1766    22895              INPUT:   TFID_NAME - name of CG to look for
     1767    22896                       TFID_ACCT - acct of CG to look for (default :SYS)
     1768    22897              OUTPUT:  CG$ - Pointer to selected comgroup
     1769    22898              DESCRIPTION: Search for a comgroup by name
     1770    22899        */
     1771    22900    1   FINDCG: PROC ALTRET;
     1772    22901
     1773    22902    2   DCL C$ PTR;
     1774    22903    2   DCL A$ PTR;
     1775    22904    2   DCL CTXT UBIN;
     1776    22905    2   DCL CFU UBIN;
     1777    22906    2   DCL CFU$ PTR;
     1778    22907
     1779    22908    2         CALL DAS$SDMONPTR (%M#KQ_MMSD,CG$) ALTRET (ARET);
     1780    22909    2         CALL DAM$MAP (CG$, M@CG$,,,DA_MONISDATA) ALTRET (ARET);
     1781    22910    2         CG$ = M@CG$->KQ$MMSD.CGHEAD$;
     1782    22911    2         CALL DAM$MAP (B$DS1$,M@F$CFU$) ALTRET (ARET);
     1783    22912    2         F$CFU$ = B$DS1$ ;
     1784    22913    3           DO WHILE (CG$~=ADDR(NIL));
     1785    22914    3           CALL VALPTR (CG$,B$CGCTXT$,,CTXT) ALTRET (NEXT);
     1786    22915    3           CALL DAM$MAP (CG$,M@CG$) ALTRET (NEXT);
     1787    22916    3           CFU$ = KQ$CG.CFU$;
     1788    22917    3           CALL VALPTR (CFU$,F$CFU$,,CFU) ALTRET (NEXT);
     1789    22918    3           CALL DAM$MAP (F$CFU$,M@F$CFU$) ALTRET (NEXT);
     1790    22919    3           C$ = PINCRW (M@F$CFU$,CFU);
     1791    22920    3           A$ = PINCRW (M@F$CFU$,C$->FM$CFU.ACCTX);
     1792    22921    4             DO WHILE (C$->FM$CFU.NAMEX < M@F$CFU$->FM$CFUX.CFUT);
     1793    22922    4             C$ = PINCRW (M@F$CFU$,C$->FM$CFU.NAMEX);
     1794    22923    4             END;
     1795    22924    3           C$ = PINCRC (M@F$CFU$,C$->FM$CFU.NAMEX);
     1796    22925    3           IF ( SUBSTR(TFID_NAME.NAME#,0,TFID_NAME.L#) =
     1797    22926    3           SUBSTR(C$->FM$CFUN.C,0,C$->FM$CFUN.L) ) AND
     1798    22927    3           ( A$->FM$CFUA.ACCT = TFID_ACCT.ACCT# ) THEN RETURN;
     1799    22928    3   NEXT:   CG$ = KQ$CG.LNK$;
PL6.E3A0      #001=DAD$CGS File=DAD$CGS.:E05TSI                                  TUE 07/29/97 12:40 Page:65
     1800    22929    3           END;
     1801    22930
     1802    22931    2   ARET: ALTRETURN;
     1803    22932
     1804    22933    2   END;
     1805    22934        %EJECT;
PL6.E3A0      #001=DAD$CGS File=DAD$CGS.:E05TSI                                  TUE 07/29/97 12:40 Page:66
     1806    22935        /*I* NAME:        VALPTR
     1807    22936             ENTRY:       VALPTR
     1808    22937             CALL:        CALL VALPTR (PTR$,VPTR$,D,W,N,C,B) ALTRET (invalid);
     1809    22938             INPUT:       PTR$ - Pointer to be validated.
     1810    22939                          VPTR$ - Prototype pointer for segid.
     1811    22940                          C - If addr (c) ~= addr (nil) then PTR$ may point to
     1812    22941                              an arbitrary character boundary.
     1813    22942                          B - If addr (c) ~= addr (nil) then PTR$ may point to
     1814    22943                              an arbitrary bit boundary.
     1815    22944             OUTPUT:      D - Segid D field of PTR$. (optional)
     1816    22945                          W - Word address field of PTR$. (optional)
     1817    22946                          N - Set to 1 if PTR$ = addr (nil), else 0. (optional)
     1818    22947                          C - Char address field of PTR$. (optional)
     1819    22948                          B - Bit address field of PTR$. (optional)
     1820    22949             DESCRIPTION: PTR$ must contain a pointer with the same S segid
     1821    22950                          field as VPTR$. In addition, it may be located on a
     1822    22951                          non word boundary only if C and/or B fields are
     1823    22952                          specified as input, i.e. not addr (nil). If VPTR$ has
     1824    22953                          an ASR segid then the D fields need not match. If PTR$
     1825    22954                          is found to be invalid then an on the fly error will
     1826    22955                          be produced, and the ALTRETurn will be taken, else if
     1827    22956                          valid then the normal RETURN will be taken with N set to 0.
     1828    22957                          Note that if PTR$ is addr (nil) then no error message
     1829    22958                          will be printed, D will be set to 88, W will be set
     1830    22959                          to .0000, N will be set to 1, and the ALTRETurn will
     1831    22960                          be taken. */
     1832    22961
     1833    22962    1   VALPTR: PROC (PTR$,VPTR$,D,W,N,C,B) ALTRET;
     1834    22963
     1835    22964    2   DCL PTR$ PTR;
     1836    22965    2   DCL 1 P REDEF PTR$,
     1837    22966    2         2 W UBIN(18) UNAL,
     1838    22967    2         2 C UBIN(2) UNAL,
     1839    22968    2         2 B UBIN(4) UNAL,
     1840    22969    2         2 S UBIN(2) UNAL,
     1841    22970    2         2 D UBIN(10) UNAL;
     1842    22971    2   DCL VPTR$ PTR;
PL6.E3A0      #001=DAD$CGS File=DAD$CGS.:E05TSI                                  TUE 07/29/97 12:40 Page:67
     1843    22972    2   DCL 1 V REDEF VPTR$,
     1844    22973    2         2 W UBIN(18) UNAL,
     1845    22974    2         2 C UBIN(2) UNAL,
     1846    22975    2         2 B UBIN(4) UNAL,
     1847    22976    2         2 S UBIN(2) UNAL,
     1848    22977    2         2 D UBIN(10) UNAL;
     1849    22978    2   DCL D UBIN;
     1850    22979    2   DCL W UBIN;
     1851    22980    2   DCL N UBIN;
     1852    22981    2   DCL C UBIN;
     1853    22982    2   DCL B UBIN;
     1854    22983    2   DCL 1 E STATIC,
     1855    22984    2         2 W UBIN(18) UNAL INIT(1),
     1856    22985    2         2 C UBIN(2) UNAL INIT(3),
     1857    22986    2         2 B UBIN(4) UNAL INIT(8),
     1858    22987    2         2 S UBIN(2) UNAL INIT(2),
     1859    22988    2         2 D UBIN(10) UNAL INIT(99);
     1860    22989    2   DCL ERRFMT CHAR(0) CONSTANT INIT(
     1861    22990    2   '*** Invalid pointer %.2F will be displayed as %.2F');
     1862    22991
     1863    22992    2         IF PTR$ = ADDR (NIL) THEN
     1864    22993    3           DO;
     1865    22994    3           IF ADDR (N) ~= ADDR (NIL) THEN
     1866    22995    3             N = 1;
     1867    22996    3           IF ADDR (W) ~= ADDR (NIL) THEN
     1868    22997    3             W = BITBIN ('0000'O);
     1869    22998    3           IF ADDR (D) ~= ADDR (NIL) THEN
     1870    22999    3             D = 88;
     1871    23000    3           IF ADDR (C) ~= ADDR (NIL) THEN
     1872    23001    3             C = 0;
     1873    23002    3           IF ADDR (B) ~= ADDR (NIL) THEN
     1874    23003    3             B = 0;
     1875    23004    3           ALTRETURN;
     1876    23005    3           END;
     1877    23006
     1878    23007    2         IF ADDR (N) ~= ADDR (NIL) THEN
     1879    23008    2           N = 0;
PL6.E3A0      #001=DAD$CGS File=DAD$CGS.:E05TSI                                  TUE 07/29/97 12:40 Page:68
     1880    23009    2         IF (P.S ~= V.S) OR
     1881    23010    2         (P.S ~= 2 AND P.D ~= V.D) OR
     1882    23011    2         (ADDR (C) = ADDR (NIL) AND P.C ~= 0) OR
     1883    23012    2         (ADDR (B) = ADDR (NIL) AND P.B ~= 0) THEN
     1884    23013    3           DO;
     1885    23014    3           CALL DAF$WRITE (VECTOR (ERRFMT),VECTOR (PTR$),VECTOR (E));
     1886    23015    3           IF ADDR (W) ~= ADDR (NIL) THEN
     1887    23016    3             W = E.W;
     1888    23017    3           E.W = E.W + 1;
     1889    23018    3           IF ADDR (D) ~= ADDR (NIL) THEN
     1890    23019    3             D = E.D;
     1891    23020    3           IF ADDR (C) ~= ADDR (NIL) THEN
     1892    23021    3             C = E.C;
     1893    23022    3           IF ADDR (B) ~= ADDR (NIL) THEN
     1894    23023    3             B = E.B;
     1895    23024    3           ALTRETURN;
     1896    23025    3           END;
     1897    23026
     1898    23027    2         IF ADDR (W) ~= ADDR (NIL) THEN
     1899    23028    2           W = P.W;
     1900    23029    2         IF ADDR (D) ~= ADDR (NIL) THEN
     1901    23030    2           D = P.D;
     1902    23031    2         IF ADDR (C) ~= ADDR (NIL) THEN
     1903    23032    2           C = P.C;
     1904    23033    2         IF ADDR (B) ~= ADDR (NIL) THEN
     1905    23034    2           B = P.B;
     1906    23035
     1907    23036    2         RETURN;
     1908    23037
     1909    23038    2   END VALPTR;
     1910    23039
     1911    23040    1   END DAD$CGS;

PL6.E3A0      #001=DAD$CGS File=DAD$CGS.:E05TSI                                  TUE 07/29/97 12:40 Page:69
--  Include file information  --

   XU_SUBS_C.:E05TOU  is referenced.
   XU_MACRO_C.:E05TOU  is referenced.
   KQ_SUBS_C.:E05TOU  is referenced.
   KQ_MAC_C.:E05TOU  is referenced.
   HF_DATA_R.:E05TOU  is referenced.
   KQM_MAC_C.:E05TOU  is referenced.
   CP_6_C.:E05TOU  is referenced.
   CP_6.:E05TOU  cannot be made into a system file and is referenced.
   KC$CP6V_C.:E05TOU  is referenced.
   FM$SET.:E05TOU  is referenced.
   FM$CFU.:E05TOU  is referenced.
   DA_CMD_C.:E05TOU  is referenced.
   DA_FORMAT_C.:E05TOU  is referenced.
   DA_PERR_C.:E05TOU  is referenced.
   DA_SYMBOLS_R.:E05TOU  cannot be made into a system file and is referenced.
   DA_MONSYM_C.:E05TOU  is referenced.
   DA_TEXTC_C.:E05TOU  is referenced.
   DA_MAP_R.:E05TOU  cannot be made into a system file and is referenced.
   DA_ANLZ_R.:E05TOU  cannot be made into a system file and is referenced.
   B$TABLES_C.:E05TOU  cannot be made into a system file and is referenced.
   B$OBJECT_C.:E05TOU  is referenced.
      No diagnostics issued in procedure DAD$CGS.

   Procedure DAD$CGS requires 4799 words for executable code.
   Procedure DAD$CGS requires 280 words of local(AUTO) storage.

    No errors detected in file DAD$CGS.:E05TSI    .

PL6.E3A0      #001=DAD$CGS File=DAD$CGS.:E05TSI                                  TUE 07/29/97 12:40 Page:70

 Object Unit name= DAD$CGS                                    File name= DAD$CGS.:E05TOU
 UTS= JUL 29 '97 12:40:45.20 TUE                              Compiler= PL-6/E31         Sev=      00
 SharedLib= :SHARED_SYSTEM                                    Alt SharedLib=


    ****  Control sections  ****

 Sect   Type Bound  Init  Size OctSiz  Section name(segment info)
    0   DCB   even  none     0      0  M$UC
    1   Data  even  none   817   1461  DAD$CGS
    2  RoData even  UTS    834   1502  DAD$CGS
    3   Proc  even  none  4799  11277  DAD$CGS
    4  RoData even  none   204    314  DAD$CGS

    ****  Entry defs  ****

                              Check   Calling
                             calling  sequence
  Sect OctLoc Primary Altret sequence   type   Parms  Name
     3      0   yes            yes      Std        1  DAD$CGS
     3     66                  yes      Std        1  DAD$CGMS
     3    310                  yes      Std        1  DAD$CURCG
     3    351                  yes      Std        1  DAD$DATACACHE
     3    364                  yes      Std        1  DAD$MMD
     3    377                  yes      Std        1  DAD$GARB
     3    412                  yes      Std        1  DAD$QUEUE
     3    425                  yes      Std        1  DAD$MLH
     3    543                  yes      Std        1  DAD$MSGLIST
     3   1060                  yes      Std        1  DAD$DFRBLK
     3   1144                  yes      Std        1  DAD$DTREE
     3   1340                  yes      Std        1  DAD$CGSTATS
     3   1553                  yes      Std        1  DAD$STREE
     3   2141                  yes      Std        1  DAD$TTREE
     3   2363                  yes      Std        1  DAD$QTREE
PL6.E3A0      #001=DAD$CGS File=DAD$CGS.:E05TSI                                  TUE 07/29/97 12:40 Page:71

  ****  Entry refs  ****

         Check        Calling
        calling       sequence
Altret sequence SRef   type   Args  Name
         yes          ~proc      0 B_POINTER
         yes           Std       2 DAD$SPYDOT
 yes     yes           Std       2 DAS$SDMONPTR
 yes     yes           Std       5 DAM$MAP
         yes           Std       1 DAA$ERRMSG
 yes     yes           Std       2 DAA$LOC
 yes     yes           Std       3 DAA$VALUE
 yes     yes           Std       1 DAF$INIT
         yes           Std       1 DAB$GATE
 yes     yes           Std       2 DAS$IC2ED
                       Std       0 B_CONSPOOL_D
                       nStd      0 X66_AUTO_1
                       nStd      0 X66_ARET

  ****  Data refs  ****

  Flags:  r = read only, s = secondary
Flgs Name                             Flgs Name                             Flgs Name
     DA_GATETXT                            DA_MONISDATA                          DA_MAPERR
     DA_ASR                                DA_CURCG                              DA_DNAME$
     M$UC                             r    B$XL_ASC_DUMP$                        DAF$WRITE
     B$DS1$                                B$CGCTXT$                             B$TCB$
     B_VECTNIL

  ****  Segment refs  ****

  Flags:  r = read only, s = secondary
Flgs Name                             Flgs Name                             Flgs Name
     ISSID                                 NULLSID
PL6.E3A0      #001=DAD$CGS File=DAD$CGS.:E05TSI                                  TUE 07/29/97 12:40 Page:72


        1        1        /*M* DAD$CGS - Comgroup oriented commands for ANLZ */
        2        2        /*T***********************************************************/
        3        3        /*T*                                                         */
        4        4        /*T* Copyright (c) Bull HN Information Systems Inc., 1997    */
        5        5        /*T*                                                         */
        6        6        /*T***********************************************************/
        7        7       /*X* DMC,PLM=6,IND=0,IDT=2,SDI=2,CTI=0,ENU=0,AND,DCI=4,CSU=2,ECU=4,THI=0,DTI=0,STI=2
                 7        ,IAD=0,PRB */
        8        8        /*P* NAME:        DAD$CGS
        9        9             PURPOSE:     This module contains the routines used to implement
       10       10                          the comgroup oriented ANLZ displays and commands.
       11       11             DESCRIPTION: This module contains various external routines that
       12       12                          implement the comgroup oriented ANLZ displays and
       13       13                          commands. They are as follows:
       14       14                            CG SUMMARY - Summary of all CGs.
       15       15                            CG [cgid] - Set & display current CG.
       16       16                            DATA CACHE [for cgid] - Data from KQ$CG.
       17       17                            MMD [for cgid] - Data from KQ$CG.
       18       18                            GARB [for cgid] - Data from KQ$CG.
       19       19                            QUEUE [for cgid] - Data from KQ$CG.
       20       20                            DTREE [for cgid] - Data cache tree.
       21       21                            STREE [for cgid] - Station tree.
       22       22                            TTREE [for cgid] - Msgtyp tree.
       23       23                            QTREE [for cgid] - Anonymous queue tree.
       24       24                            MLH   [for cgid] - MLH displays.
       25       25                            DFRBLKS [for cgid] - DFRBLK displays.
       26       26                            MSGLIST location [,count] - Message list display. */
       27       27        %EJECT;
PL6.E3A0      #001=DAD$CGS File=DAD$CGS.:E05TSI                                  TUE 07/29/97 12:40 Page:73
       28       28
       29       29        DAD$CGS: PROC (TOP);

     29  3 000000   000000 700200 xent  DAD$CGS      TSX0  ! X66_AUTO_1
         3 000001   000430 000001                    ZERO    280,1

       30       30
       31       31        /* Includes */
       32       32
       33       33        %INCLUDE B$OBJECT_C;
       34     3463        %INCLUDE B$TABLES_C;
       35     3571        %INCLUDE DA_ANLZ_R;
       36     3584        %INCLUDE DA_MAP_R;
       37     3614        %INCLUDE DA_TEXTC_C;
       38     3645        %INCLUDE DA_MONSYM_C;
       39     3696        %INCLUDE DA_SYMBOLS_R;
       40     3709        %INCLUDE DA_PERR_C;
       41     3773        %INCLUDE DA_FORMAT_C;
       42     4015        %INCLUDE DA_CMD_C;
       43     4364        %INCLUDE FM$CFU;
       44     4409        %INCLUDE FM$SET;
       45     4436        %INCLUDE KC$CP6V_C;
       46     4556        %INCLUDE CP_6;
       47    10115        %INCLUDE KQM_MAC_C;
       48    10488        %INCLUDE KQ_MAC_C;
       49    13038        %INCLUDE KQ_SUBS_C;
       50    13338        %INCLUDE XU_MACRO_C;
       51    16444        %INCLUDE XU_SUBS_C;
       52    16536
       53    16537        /* Parameters */
       54    16538
       55    16539        %PARSE$OUT (NAME=TOP,STCLASS=" ");
       56    16584
       57    16585        /* Macros */
       58    16586
       59    16587        %MACRO $ERROR (NAME=GORGO,CODE=0);
       60    16588        DCL 1 NAME CONSTANT ALIGNED,
PL6.E3A0      #001=DAD$CGS File=DAD$CGS.:E05TSI                                  TUE 07/29/97 12:40 Page:74
       61    16589              2 * BIT(18) UNAL INIT('040104'O), /* 'DAD' */
       62    16590              2 * UBIN(15) UNAL INIT(CODE),
       63    16591              2 * UBIN(3) UNAL INIT(0);
       64    16592        %MEND;
       65    16593
       66    16594        /* Based */
       67    16595
       68    16596        %B$EDEF;
       69    16666    1   DCL BIT$72DA BIT(72) BASED DALIGNED;
       70    16667    1   DCL BIT$WORD BIT(36) BASED ALIGNED;
       71    16668    1   DCL PTR$WORD PTR BASED ALIGNED;
       72    16669
       73    16670        %B$XL_ASC_DUMP (NAME=DA_PRINTABLE_TBL);
       74    16674        %FM$CFU;
       75    16680        %FM$CFUA;
       76    16686        %FM$CFUN;
       77    16689        %FM$CFUX (BASED="BASED");
       78    16694        %FM$SET (ARY=" ");
       79    16699        %FM$SET (FM$SET=FM$SETA);
       80    16704        %KQ_BTN (FPTN=KQ$BTN,STCLASS="BASED");
       81    16736        %KQ_CG (FPTN=KQ$CG,STCLASS="BASED(M@CG$)");
       82    17475        %KQ_DFRBLK (FPTN=KQ$DFRBLK,STCLASS="BASED(M@DFR$)");
       83    17525        %KQ$DPTR;
       84    17552        %KQ_GRAN (FPTN=KQ$GRAN,STCLASS="BASED");
       85    17607        %KQ_MBLK (FPTN=KQ$MBLK,SUPR=0,STCLASS="BASED(M@MBLK$)");
       86    17877        %KQ_MBLK (FPTN=KQ$SMBLK,SUPR=1,STCLASS="BASED(M@MBLK$)");
       87    18147        %KQ_MLH (FPTN=KQ$MLH,STCLASS="BASED");
       88    18217        %KQ_MMSD (FPTN=KQ$MMSD,STCLASS="BASED");
       89    18254        %KQ_MTYP (FPTN=KQ$MTYP,STCLASS="BASED");
       90    18328        %KQ_QTN (FPTN=KQ$QTN,STCLASS="BASED");
       91    18801        %KQ_RBLK (FPTN=KQ$RBLK,STCLASS="BASED");
       92    18987        %KQ_STA (FPTN=KQ$STA,STCLASS="BASED");
       93    19326        %KQ_THDR (FPTN=KQ$THDR,STCLASS="BASED");
       94    19364        %PARSE$OUT (NAME=OUT$BLK,STCLASS="BASED");
       95    19409        %PARSE$SYM (NAME=OUT$SYM,STCLASS="BASED");
       96    19447
       97    19448        /* Auto */
PL6.E3A0      #001=DAD$CGS File=DAD$CGS.:E05TSI                                  TUE 07/29/97 12:40 Page:75
       98    19449
       99    19450    1   DCL COUNT UBIN;
      100    19451    1   DCL CG$ PTR;
      101    19452    1   DCL M@CG$ PTR;
      102    19453    1   DCL DFR$ PTR;
      103    19454    1   DCL M@DFR$ PTR;
      104    19455    1   DCL M@DSB$ PTR;
      105    19456    1   DCL F$CFU$ PTR;
      106    19457    1   DCL M@F$CFU$ PTR;
      107    19458    1   DCL MBLK$ PTR;
      108    19459    1   DCL M@MBLK$ PTR;
      109    19460    1   DCL MLH$ PTR;
      110    19461    1   DCL M@MLH$ PTR;
      111    19462    1   DCL QTREEHD$ PTR;
      112    19463    1   DCL GATE BIT(72) DALIGNED;
      113    19464    1   DCL TEMP$ PTR;
      114    19465    1   DCL M@TEMP$ PTR;
      115    19466    1   DCL DFRFMT_ BIT(72) ALIGNED;
      116    19467    1   DCL I UBIN;
      117    19468    1   DCL CUR$ PTR;
      118    19469    1   DCL M@CUR$ PTR;
      119    19470    1   DCL 1 MLHD,
      120    19471    1         2 X,
      121    19472    1           3 W UBIN,
      122    19473    1           3 D UBIN,
      123    19474    1           3 N CHAR(8),
      124    19475    1         2 Q UBIN,
      125    19476    1         2 H,
      126    19477    1           3 W UBIN,
      127    19478    1           3 D UBIN,
      128    19479    1           3 N UBIN,
      129    19480    1         2 T,
      130    19481    1           3 W UBIN,
      131    19482    1           3 D UBIN,
      132    19483    1           3 N UBIN,
      133    19484    1         2 D,
      134    19485    1           3 W UBIN,
PL6.E3A0      #001=DAD$CGS File=DAD$CGS.:E05TSI                                  TUE 07/29/97 12:40 Page:76
      135    19486    1           3 D UBIN,
      136    19487    1           3 N UBIN,
      137    19488    1         2 S UBIN,
      138    19489    1         2 C UBIN,
      139    19490    1         2 B CHAR(4),
      140    19491    1         2 RUSR UBIN,
      141    19492    1         2 G UBIN,
      142    19493    1         2 P UBIN(18) UNAL,
      143    19494    1         2 RQGC BIT(1) UNAL,
      144    19495    1         2 RQMEM BIT(1) UNAL;
      145    19496    1   DCL 1 MSGD,
      146    19497    1         2 NUM UBIN,
      147    19498    1         2 X,
      148    19499    1           3 W UBIN,
      149    19500    1           3 D UBIN,
      150    19501    1         2 S CHAR(1),
      151    19502    1         2 KEY1 CHAR(8),
      152    19503    1         2 KEY2 CHAR(8),
      153    19504    1         2 STAR CHAR(1),
      154    19505    1         2 KEY1ALL REDEF STAR CHAR(1),
      155    19506    1         2 DVBYTE BIT(9),
      156    19507    1         2 KEY2ALL REDEF DVBYTE CHAR(1),
      157    19508    1         2 * CHAR(1),
      158    19509    1         2 MSGSIZE UBIN,
      159    19510    1         2 COUNT REDEF MSGSIZE UBIN,
      160    19511    1         2 PRIO UBIN HALF UNAL,
      161    19512    1         2 EV,
      162    19513    1           3 EOM CHAR(1),
      163    19514    1           3 VFC CHAR(1),
      164    19515    1         2 PRIOLO REDEF EV UBIN HALF UNAL,
      165    19516    1         2 LNK CHAR(3),
      166    19517    1         2 * CHAR(1),
      167    19518    1         2 DDA UBIN,
      168    19519    1         2 UTS UBIN,
      169    19520    1         2 MIDPRI UBIN,
      170    19521    1         2 UTSHI REDEF MIDPRI UBIN,
      171    19522    1         2 MIDXTN UBIN,
PL6.E3A0      #001=DAD$CGS File=DAD$CGS.:E05TSI                                  TUE 07/29/97 12:40 Page:77
      172    19523    1         2 INSHDW REDEF MIDXTN UBIN,
      173    19524    1         2 MIDXT UBIN,
      174    19525    1         2 INSHDD REDEF MIDXT UBIN,
      175    19526    1         2 INSHDN UBIN;
      176    19527    1   DCL 1 DFRD,
      177    19528    1         2 CODE CHAR(8),
      178    19529    1         2 ENTPTR CHAR(10),
      179    19530    1         2 * CHAR(2),
      180    19531    1         2 GO CHAR(1),
      181    19532    1         2 EVNT CHAR(1),
      182    19533    1         2 ABORT CHAR(1),
      183    19534    1         2 GFLG CHAR(1),
      184    19535    1         2 DA,
      185    19536    1           3 V UBIN,
      186    19537    1           3 N UBIN,
      187    19538    1         2 DDA,
      188    19539    1           3 V UBIN,
      189    19540    1           3 N UBIN,
      190    19541    1         2 DBLK,
      191    19542    1           3 V UBIN,
      192    19543    1           3 N UBIN,
      193    19544    1         2 DGRAN$,
      194    19545    1           3 W UBIN,
      195    19546    1           3 D UBIN,
      196    19547    1           3 N1 UBIN,
      197    19548    1           3 N UBIN,
      198    19549    1         2 USR,
      199    19550    1           3 V UBIN,
      200    19551    1           3 N UBIN,
      201    19552    1         2 ERR,
      202    19553    1           3 V UBIN,
      203    19554    1           3 N UBIN,
      204    19555    1         2 INFO,
      205    19556    1           3 V UBIN,
      206    19557    1           3 N UBIN,
      207    19558    1         2 SELF$,
      208    19559    1           3 W UBIN,
PL6.E3A0      #001=DAD$CGS File=DAD$CGS.:E05TSI                                  TUE 07/29/97 12:40 Page:78
      209    19560    1           3 D UBIN;
      210    19561    1   DCL 1 DTD (0:2),
      211    19562    1         2 W UBIN,
      212    19563    1         2 D UBIN,
      213    19564    1         2 K BIT(36);
      214    19565    1   DCL 1 TTD (0:1),
      215    19566    1         2 W UBIN,
      216    19567    1         2 D UBIN,
      217    19568    1         2 M CHAR(8),
      218    19569    1         2 N UBIN,
      219    19570    1         2 J UBIN,
      220    19571    1         2 P UBIN;
      221    19572    1   DCL 1 STD,
      222    19573    1         2 X,
      223    19574    1           3 W UBIN,
      224    19575    1           3 D UBIN,
      225    19576    1           3 N CHAR(8),
      226    19577    1         2 S CHAR(4),
      227    19578    1         2 L UBIN,
      228    19579    1         2 I UBIN,
      229    19580    1         2 T UBIN,
      230    19581    1         2 U UBIN,
      231    19582    1         2 C UBIN,
      232    19583    1         2 R UBIN,
      233    19584    1         2 E UBIN;
      234    19585    1   DCL 1 QTD,
      235    19586    1         2 W UBIN,
      236    19587    1         2 D UBIN,
      237    19588    1         2 N CHAR(8),
      238    19589    1         2 A UBIN,
      239    19590    1         2 RW UBIN,
      240    19591    1         2 RD UBIN,
      241    19592    1         2 RN UBIN,
      242    19593    1         2 L UBIN,
      243    19594    1         2 C UBIN;
      244    19595    1   DCL 1 R,
      245    19596    1         2 W UBIN,
PL6.E3A0      #001=DAD$CGS File=DAD$CGS.:E05TSI                                  TUE 07/29/97 12:40 Page:79
      246    19597    1         2 D UBIN,
      247    19598    1         2 N UBIN;
      248    19599    1   DCL TMAXBP UBIN;
      249    19600    1   DCL TMINBP UBIN;
      250    19601    1   DCL TCURBP UBIN;
      251    19602    1   DCL TMAXDP UBIN;
      252    19603    1   DCL TMINDP UBIN;
      253    19604    1   DCL TCURDP UBIN;
      254    19605    1   DCL TCURPG UBIN;
      255    19606
      256    19607    1   DCL TEXTFID CHAR(50);
      257    19608    1   DCL TEXTFIDL UBIN;
      258    19609        %VLP_NAME (FPTN=TFID_NAME);
      259    19636        %VLP_ACCT (FPTN=TFID_ACCT);
      260    19649    1   DCL TFID_ASN UBIN STATIC;
      261    19650        %FPT_FID (NAME=TFID_NAME,ACCT=TFID_ACCT,ASN=TFID_ASN);
      262    19673
      263    19674        /* Constant */
      264    19675    1   DCL STARTBL(0:1) CONSTANT CHAR(1) INIT(' ','*');
      265    19676    1   DCL PS0 CONSTANT UBIN INIT(0);
      266    19677    1   DCL PS0$ REDEF PS0 PTR;
      267    19678
      268    19679        %REPORT (TITLE='COMGROUP SUMMARY',NAME=CGSRPT,
      269    19680                 TRUNC=YES,HEADER=YES);
      270    19746        %HEADER (LAST=NO,TEXT=
      271    19747        "' CTXT @   DSB$    CFU$   AU STA    AUSTA$   TERMs DCBs FID:name.acct(packset)'");
      272    19789        %HEADER (TEXT=
      273    19790        '------- ------- ------- -------- ---------- ----- ---- ------------------------');
      274    19832    1   DCL CGSFMT CHAR(0) CONSTANT INIT(
      275    19833    1   '.%6ZO .%6ZO .%6ZO %8A .%6ZO/%2ZD%N(%34- ***NIL***%) %5*D %4*D %>T%S.%>A(%>A)' );
      276    19834        %REPORT (TITLE='COMGROUP MEMORY SUMMARY',NAME=CGMSRPT,
      277    19835                 TRUNC=YES,HEADER=YES);
      278    19901        %HEADER (LAST=NO,TEXT=
      279    19902        "' CTXT @ MAXBP  MINBP  CURBP  MAXDP  MINDP  CURDP CURPG FID:name.acct(packset)'");
      280    19944        %HEADER (TEXT=
      281    19945         '------- -----  -----  -----  -----  ----- ----- ----- ------------------------');
      282    19987    1   DCL CGMSFMT CHAR(0) CONSTANT INIT(
PL6.E3A0      #001=DAD$CGS File=DAD$CGS.:E05TSI                                  TUE 07/29/97 12:40 Page:80
      283    19988    1   '.%6ZO %5*D  %5*D  %5*D  %5*D  %5*D  %5*D %5*D %>T%S.%>A(%>A)' );
      284    19989    1   DCL CGMTFMT CHAR(0) CONSTANT INIT(
      285    19990    1   'Total   %5*D  %5*D  %5*D  %5*D  %5*D  %5*D %5*D             ' );
      286    19991        %REPORT (TITLE='CURRENT COMGROUP INFORMATION',NAME=CCGRPT,
      287    19992                 TRUNC=YES,HEADER=NO);
      288    20058    1   DCL 1 DATFMT0 CONSTANT,
      289    20059    1         2 * CHAR(0) INIT('DATA CACHE%/NEEDPGHD$=.%6ZO/%2ZD%N(%11- ***NIL***%) '),
      290    20060    1         2 * CHAR(0) INIT(' IOHD$=.%6ZO/%2ZD%N(%29- ***NIL***%) '),
      291    20061    1         2 * CHAR(0) INIT('  GETHD$=.%6ZO/%2ZD%N(%49- ***NIL***%) '),
      292    20062    1         2 * CHAR(0) INIT(' AVAIL.HD$=.%6ZO/%2ZD%N(%71- ***NIL***%)');
      293    20063    1   DCL 1 DATFMT1 CONSTANT,
      294    20064    1         2 * CHAR(0) INIT('NEEDPGTL$=.%6ZO/%2ZD%N(%11- ***NIL***%) '),
      295    20065    1         2 * CHAR(0) INIT(' IOTL$=.%6ZO/%2ZD%N(%29- ***NIL***%) '),
      296    20066    1         2 * CHAR(0) INIT('  GETTL$=.%6ZO/%2ZD%N(%49- ***NIL***%) '),
      297    20067    1         2 * CHAR(0) INIT(' AVAIL.TL$=.%6ZO/%2ZD%N(%71- ***NIL***%)');
      298    20068    1   DCL 1 DATFMT2 CONSTANT,
      299    20069    1         2 * CHAR(0) INIT('NEEDPGCNT= %D%22- IOCNT= %D%40-  GETFLG= %D');
      300    20070    1   DCL 1 DATFMT3 CONSTANT,
      301    20071    1         2 * CHAR(0) INIT('DATAFREE$=.%6ZO/%2ZD%N(%11- ***NIL***%) '),
      302    20072    1         2 * CHAR(0) INIT('IOQHD$=.%6ZO/%2ZD%N(%29- ***NIL***%) '),
      303    20073    1         2 * CHAR(0) INIT('DFRFRHD$=.%6ZO/%2ZD%N(%49- ***NIL***%) '),
      304    20074    1         2 * CHAR(0) INIT('CURDATAPGS= %D');
      305    20075    1   DCL 1 DATFMT4 CONSTANT,
      306    20076    1         2 * CHAR(0) INIT('  ADDFREE= %D%22-'),
      307    20077    1         2 * CHAR(0) INIT('IOQTL$=.%6ZO/%2ZD%N(%29- ***NIL***%) '),
      308    20078    1         2 * CHAR(0) INIT('NDFRBLKS= %D%60-MINDATAPGS= %D');
      309    20079    1   DCL 1 DATFMT5 CONSTANT,
      310    20080    1         2 * CHAR(0) INIT('  FREEDA=.%O%22-UGRANS= %D%42-NGAVAL= %D%60-MAXDATAPGS= %D'
             20080                  );
      311    20081    1   DCL MMDFMT0 CHAR(0) CONSTANT INIT(
      312    20082    1   'MMD    GATE=(%T%S)');
      313    20083    1   DCL MMDFMT1 CHAR(0) CONSTANT INIT(
      314    20084    1   ' HEAD$=.%6ZO/%2ZD%N(%8- ***NIL***%) CURPG=%8*LD%36-MAXBPG=%8*LD%52-BASEREL$=.%6ZO/
             20084        %2ZD%N(%61- ***NIL***%) GIP=%D');
      315    20085    1   DCL MMDFMT2 CHAR(0) CONSTANT INIT(
      316    20086    1  'PHEAD$=.%6ZO/%2ZD%N(%8- ***NIL***%) CURBPG=%8*LD%36-MINBPG=%8*LD%54-STAHD$=.%6ZO/%2
             20086        ZD%N(%61- ***NIL***%) FREECNT');
PL6.E3A0      #001=DAD$CGS File=DAD$CGS.:E05TSI                                  TUE 07/29/97 12:40 Page:81
      317    20087    1   DCL MMDFMT3 CHAR(0) CONSTANT INIT(
      318    20088    1  ' FREE$=.%6ZO/%2ZD%N(%8- ***NIL***%) CURPPG=%8*LD%35-BAPLOCK=%8*LD%53-MBLKHD$=.%6ZO/
             20088        %2ZD%N(%61- ***NIL***%) | %D');
      319    20089    1   DCL GARBFMT0 CHAR(0) CONSTANT INIT(
      320    20090    1   'GARB%/     STA=%D MBLK$=.%6ZO/%2ZD%N(%18- ***NIL***%)   DELAY=%8*LD%47-NCSTAMP=.%O
             20090        ');
      321    20091    1   DCL GARBFMT1 CHAR(0) CONSTANT INIT(
      322    20092    1   '    DMIP=%D OMLH$=.%6ZO/%2ZD%N(%18- ***NIL***%)   ACTCNT=%8*LD%49-NCDDA=.%O');
      323    20093    1   DCL GARBFMT2 CHAR(0) CONSTANT INIT(
      324    20094    1   ' RECYCLE=%D SPHD$=.%6ZO/%2ZD%N(%18- ***NIL***%) SPLITCNT=%8*LD%47-SCSTAMP=.%O');
      325    20095    1   DCL GARBFMT3 CHAR(0) CONSTANT INIT(
      326    20096    1   '   INSRT=%D SPTL$=.%6ZO/%2ZD%N(%18- ***NIL***%)     INDX=%8*LD%49-SCDDA=.%O');
      327    20097    1   DCL GARBFMT4 CHAR(0) CONSTANT INIT(
      328    20098    1   '  CONERR=%D SQHD$=.%6ZO/%2ZD%N(%18- ***NIL***%)   RELCNT=%8*LD%47-PCSTAMP=.%O');
      329    20099    1   DCL GARBFMT5 CHAR(0) CONSTANT INIT(
      330    20100    1   '    SQIP=%D DBLK$=.%6ZO/%2ZD%N(%18- ***NIL***%)  CCCOUNT=%8*LD%47-SPSTATE= %D');
      331    20101    1   DCL GARBFMT6 CHAR(0) CONSTANT INIT(
      332    20102    1   '    DELJ=%D JNLD$=.%6ZO/%2ZD%N(%18- ***NIL***%)   TCOUNT=%8*LD%50-TYPE= %D');
      333    20103    1   DCL QUEUEFMT0 CHAR(0) CONSTANT INIT(
      334    20104    1   'QUEUE%/ WCRL$=.%6ZO/%2ZD%N(%8- ***NIL***%) DELAY$=.%6ZO/%2ZD%N(%26- ***NIL***%)  B
             20104        USY=%4A  GACT=%D   RQGC=%D');
      335    20105    1   DCL QUEUEFMT1 CHAR(0) CONSTANT INIT(
      336    20106    1   ' PLHD$=.%6ZO/%2ZD%N(%8- ***NIL***%)   MLH$=.%6ZO/%2ZD%N(%26- ***NIL***%) RUSR#=.%3
             20106        LO%58-RQMEM=%D');
      337    20107       %REPORT (TITLE='MLH DISPLAY FOR CURRENT COMGROUP',NAME=MLHRPT,TRUNC=YES,HEADER=YES);
      338    20173        %HEADER (LAST=NO,TEXT=
      339    20174        '   MLH @   STA/KEY   Q    HEAD$      TAIL$     DELAY$  SUPERCNT COUNT BUSY RUSR GA
             20174        CT PCSTAMP RQGC RQMEM');
      340    20216        %HEADER (LAST=YES,TEXT=
      341    20217       '---------- -------- -- ---------- ---------- ---------- -------- ----- ---- ---- --
             20217        -- ------- ---- -----');
      342    20259    1   DCL 1 MLHFMT0 CONSTANT,
      343    20260    1         2 * CHAR(0) INIT('.%6ZO/%2ZD %8A  %D '),
      344    20261    1         2 * CHAR(0) INIT('.%6ZO/%2ZD%N(%24- ***NIL***%) '),
      345    20262    1         2 * CHAR(0) INIT('.%6ZO/%2ZD%N(%35- ***NIL***%) '),
      346    20263    1         2 * CHAR(0) INIT('.%6ZO/%2ZD%N(%46- ***NIL***%) '),
      347    20264    1         2 * CHAR(0) INIT('%6D %7D %4A .%O%82-%D    .%6.18ZO .%.1ZO   .%.1ZO%10P');
PL6.E3A0      #001=DAD$CGS File=DAD$CGS.:E05TSI                                  TUE 07/29/97 12:40 Page:82
      348    20265        %REPORT (TITLE='MESSAGE LIST DISPLAY',NAME=MSGLISTRPT,TRUNC=YES,HEADER=YES);
      349    20331        %HEADER (LAST=NO,TEXT=
      350    20332        '         MBLK @   S KEY1     KEY2     STAR  DVBYT MSGSIZ PRIO    EOM/VFC LNK DDA
             20332                UTS           MID.PRIMARY   MID.XT');
      351    20374        %HEADER (LAST=NO,TEXT=
      352    20375        '                  if a super-MBLK --> KEY1A KEY2A COUNT          PRIOLO
             20375                              UTSHI         INSHD$');
      353    20417        %HEADER (LAST=YES,TEXT=
      354    20418        '      ---------- - -------- -------- ----- ----- ------ ------- ------- --- ------
             20418        ------- ------------- ------------- -------------');
      355    20460    1   DCL 1 MBLKFMT CONSTANT,
      356    20461    1         2 * CHAR(0) INIT('%6D .%6ZO/%2ZD %1A %8A %8A %1A     .%3.9ZO%1S  %6D '),
      357    20462    1         2 * CHAR(0) INIT('.%6.18ZO .%3.9ZO(%1A) %3A%1S '),
      358    20463    1         2 * CHAR(0) INIT('.%12ZO .%12ZO   %11D %N(.%12ZO%)%10P');
      359    20464    1   DCL 1 SMBLKFMT CONSTANT,
      360    20465    1         2 * CHAR(0) INIT('%6D .%6ZO/%2ZD %1A %8A %8A %1A      %1A%1S    %6D '),
      361    20466    1         2 * CHAR(0) INIT('.%6.18ZO .%6.18ZO %3A%1S '),
      362    20467    1         2 * CHAR(0) INIT('.%12ZO .%12ZO .%12ZO '),
      363    20468    1         2 * CHAR(0) INIT('.%6ZO/%2ZD%N(%120- ***NIL***%)%10P');
      364    20469        %REPORT (TITLE='DATA CACHE TREE FOR CURRENT COMGROUP',NAME=DTREERPT,
      365    20470                 TRUNC=YES,HEADER=YES);
      366    20536        %HEADER (LAST=NO,TEXT=
      367    20537        '  ADDR @       KEY        ADDR @       KEY        ADDR @       KEY      D-TREE');
      368    20579        %HEADER (TEXT=
      369    20580        '---------- ----------   ---------- ----------   ---------- ----------');
      370    20622    1   DCL DTREEFMT CHAR(0) CONSTANT INIT(
      371    20623    1   '%N(.%6ZO/%2ZD .%9ZO > %)%S');
      372    20624        %REPORT (TITLE='DEFER BLOCK DISPLAYS FOR CURRENT COMGROUP',NAME=DFRBLKRPT,
      373    20625              TRUNC=YES,HEADER=YES);
      374    20691        %HEADER (LAST=NO,TEXT=
      375    20692        '                   G E A G');
      376    20734        %HEADER (LAST=NO,TEXT=
      377    20735        'CODE    EPTR$      O V B F           DA          DDA   DBLK/DBLK$    DGRAN$ USR ER
             20735        R   INFO/INFO$   DFRBLK @');
      378    20777        %HEADER (LAST=YES,TEXT=
      379    20778       '------- ---------- - - - - ------------ ------------ ------------ ---------- --- --
             20778        - ------------ ----------');
PL6.E3A0      #001=DAD$CGS File=DAD$CGS.:E05TSI                                  TUE 07/29/97 12:40 Page:83
      380    20820    1   DCL 1 DFRBLKFMT CONSTANT,
      381    20821    1         2 * CHAR(0) INIT('%18A%2S %1A %1A %1A %1A'),
      382    20822    1         2 * CHAR(0) INIT(' %12ZO%N(%28-            %) %12ZO%N(%41-            %)'),
      383    20823    1         2 * CHAR(0) INIT(' %12ZO%N(%54-            %)'),
      384    20824    1         2 * CHAR(0) INIT(' .%6ZO/%2ZD%N(%67- ***NIL***%)%N(%67-          %)'),
      385    20825    1         2 * CHAR(0) INIT(' %3D%N(%78-   %) %3D%N(%82-   %)'),
      386    20826    1         2 * CHAR(0) INIT(' %12ZO%N(%86-            %) .%6ZO/%2ZD');
      387    20827    1   DCL NEEDPGHDFMT CONSTANT CHAR(0) INIT('NEEDPGHD$->');
      388    20828    1   DCL IOQHDFMT    CONSTANT CHAR(0) INIT('IOQHD$->');
      389    20829    1   DCL IOHDFMT     CONSTANT CHAR(0) INIT('IOHD$->');
      390    20830    1   DCL GETHDFMT    CONSTANT CHAR(0) INIT('GETHD$->');
      391    20831    1   DCL DFRFREEFMT  CONSTANT CHAR(0) INIT('DFRFREEHD$->');
      392    20832        %REPORT (TITLE='STATION TREE FOR CURRENT COMGROUP',NAME=STREERPT,
      393    20833                 TRUNC=NO,WRAPTAB=37,EDIT=DAD$SPYDOT,HEADER=YES);
      394    20899        %HEADER (LAST=NO,TEXT=
      395    20900        '  ADDR @    STATION KQRS LOCKCNT IDSC   USR# MLH.COUNT   READS   WRITES  S-TREE');
      396    20942        %HEADER (TEXT=
      397    20943        '---------- -------- ---- ------- | TERM ---- --------- -------- --------');
      398    20985    1   DCL STREEFMT0 CHAR(0) CONSTANT INIT(
      399    20986    1   '.%6ZO/%2ZD %8A %4A %7*D %D %D    %4*O%E %9*D %8*D %8*D >');
      400    20987    1   DCL STREEFMT1 CHAR(0) CONSTANT INIT(
      401    20988    1   '.%6ZO/%2ZD %8A R=.%6ZO/%2ZD%N(%23- ***NIL***%) G=(%T%S)');
      402    20989        %REPORT (TITLE='CG STATS FOR    CURRENT COMGROUP',NAME=CGSTATSRPT,
      403    20990                 TRUNC=YES,HEADER=YES);
      404    21056        %HEADER (LAST=NO,TEXT=
      405    21057        'CG Statistics');
      406    21099        %HEADER (LAST=NO,TEXT=
      407    21100        ' DCB Stations | Term Stations |   Disk   |  Messages  |Dfr |Garb| Words| Words');
      408    21142        %HEADER (LAST=NO,TEXT=
      409    21143        ' # Reads Write|  # Reads Write| Read Writ| AnonQ DrctQ|Unav|Coll| Used | Free ');
      410    21185        %HEADER (TEXT=
      411    21186        '__ _____ _____| __ _____ _____| ____ ____| _____ _____|____|____|______|______');
      412    21228    1   DCL CGSTATSFMT CHAR(0) CONSTANT INIT(
      413    21229    1   '%2D %5D %5D  %2D %5D %5D  %4D %4D  %5D %5D %4D %4D %6D %6D');
      414    21230        %REPORT (TITLE='MSGTYP TREE FOR CURRENT COMGROUP',NAME=TTREERPT,
      415    21231                 TRUNC=YES,HEADER=YES);
      416    21297        %HEADER (LAST=NO,TEXT=
PL6.E3A0      #001=DAD$CGS File=DAD$CGS.:E05TSI                                  TUE 07/29/97 12:40 Page:84
      417    21298        '  ADDR @    MSGTYP  #WRITE JRNL        ADDR @    MSGTYP  #WRITE JRNL     T-TREE');
      418    21340        %HEADER (TEXT=
      419    21341        '---------- -------- ------ | MPRIO   ---------- -------- ------ | MPRIO');
      420    21383    1   DCL TTREEFMT CHAR(0) CONSTANT INIT(
      421    21384    1   '%N(.%6ZO/%2ZD %8A %6D %D %5*LD > %)%S');
      422    21385        %REPORT (TITLE='QUEUE TREE FOR CURRENT COMGROUP',NAME=QTREERPT,
      423    21386                 TRUNC=YES,HEADER=YES);
      424    21452        %HEADER (LAST=NO,TEXT=
      425    21453        '  ADDR @      KEY     CNACT    READS$   LOCKCNT MLH.COUNT   Q-TREE');
      426    21495        %HEADER (TEXT=
      427    21496        '---------- -------- -------- ---------- ------- ---------');
      428    21538    1   DCL QTREEFMT CHAR(0) CONSTANT INIT(
      429    21539    1   '.%6ZO/%2ZD %8A %8*D .%6ZO/%2ZD%N(%30- ***NIL***%) %7*D %9*D >');
      430    21540    1   DCL TEXTCFMT CHAR(0) CONSTANT INIT('%T%S');
      431    21541    1   DCL BLANKFMT CHAR(0) CONSTANT INIT('    ');
      432    21542    1   DCL NOTHINGFMT CHAR(0) CONSTANT INIT('*** Nothing to display');
      433    21543    1   DCL DTGFMT CHAR(0) CONSTANT INIT('DTREE.GATE=(%T%S)');
      434    21544    1   DCL STGFMT CHAR(0) CONSTANT INIT('STREE.GATE=(%T%S)');
      435    21545    1   DCL TTGFMT CHAR(0) CONSTANT INIT('TTREE.GATE=(%T%S)');
      436    21546
      437    21547    1   DCL KQRS_XXXX(0:10) CHAR(4) CONSTANT INIT( 'RSIP','COMP','PEND',
      438    21548    1         'XFIP','4 ??','XFDN','XFIW','UNLA','NVGT','NFET','>9 ?' );
      439    21549    1   DCL AS0 UBIN CONSTANT INIT(2048);
      440    21550    1   DCL AS0$ REDEF AS0 PTR;
      441    21551        %$ERROR (NAME=E_DA_NO_CURCG,CODE=%E$DA_NO_CURCG);
      442    21557        %$ERROR (NAME=E_DA_NO_SETCG,CODE=%E$DA_NO_SETCG);
      443    21563
      444    21564        /* Refs */
      445    21565
      446    21566    1   DCL DAA$ERRMSG     ENTRY(1);
      447    21567    1   DCL DAA$LOC        ENTRY(2) ALTRET;
      448    21568    1   DCL DAA$VALUE      ENTRY(3) ALTRET;
      449    21569    1   DCL DAB$GATE       ENTRY(1);
      450    21570    1   DCL DAD$SPYDOT     ENTRY(2);
      451    21571    1   DCL DAF$INIT       ENTRY(1) ALTRET;
      452    21572    1   DCL DAF$WRITE      EPTR     SYMREF;
      453    21573    1   DCL DAM$MAP        ENTRY(5) ALTRET;
PL6.E3A0      #001=DAD$CGS File=DAD$CGS.:E05TSI                                  TUE 07/29/97 12:40 Page:85
      454    21574    1   DCL DAS$IC2ED      ENTRY(2) ALTRET;
      455    21575    1   DCL DAS$SDMONPTR  ENTRY(2) ALTRET;
      456    21576
      457    21577    1   DCL B$DS1$         PTR      SYMREF;
      458    21578    1   DCL B$CGCTXT$      PTR      SYMREF;
      459    21579    1   DCL B$TCB$ PTR SYMREF;
      460    21580
      461    21581        %B$TCB;
      462    21584        %B$ALT;
      463    21592
      464    21593        %EJECT;
PL6.E3A0      #001=DAD$CGS File=DAD$CGS.:E05TSI                                  TUE 07/29/97 12:40 Page:86
      465    21594        /*F* NAME:        DAD$CGS
      466    21595             PURPOSE:     This routine does the CG SUMMARY command.
      467    21596             DESCRIPTION: This routine displays relevant data for each open
      468    21597                          comgroup. */
      469    21598        /*D* NAME:        DAD$CGS
      470    21599             ENTRY:       DAD$CGS
      471    21600             CALL:        CALL DAD$CGS (TOP);
      472    21601             INPUT:       TOP - Parse output block for CG SUMMARY command.
      473    21602             SCRATCH:     Mapping context.
      474    21603             DESCRIPTION: KQ_CGHEAD$ points to the first comgroup context
      475    21604                          block (KQ$CG). KQ$CG.LNK$ is the link to the next
      476    21605                          KQ$CG block. */
      477    21606
      478    21607    1         CALL DAS$SDMONPTR (%M#KQ_MMSD,CG$) ALTRET (AERR);

  21607  3 000002   200005 630500                    EPPR0   CG$,,AUTO
         3 000003   200303 450500                    STP0    @B+2,,AUTO
         3 000004   000001 236000 4                  LDQ     1
         3 000005   200302 756100                    STQ     @B+1,,AUTO
         3 000006   200302 630500                    EPPR0   @B+1,,AUTO
         3 000007   000020 631400 xsym               EPPR1   B_VECTNIL+16
         3 000010   000000 701000 xent               TSX1    DAS$SDMONPTR
         3 000011   000062 702000 3                  TSX2    AERR

      479    21608    1         CALL DAM$MAP (CG$,M@CG$,,,DA_MONISDATA) ALTRET (AERR);

  21608  3 000012   000002 236000 4                  LDQ     2
         3 000013   200306 756100                    STQ     @B+5,,AUTO
         3 000014   000001 236000 xsym               LDQ     B_VECTNIL+1
         3 000015   000001 235000 xsym               LDA     B_VECTNIL+1
         3 000016   200304 757100                    STAQ    @B+3,,AUTO
         3 000017   200006 630500                    EPPR0   M@CG$,,AUTO
         3 000020   200303 450500                    STP0    @B+2,,AUTO
         3 000021   200005 631500                    EPPR1   CG$,,AUTO
         3 000022   200302 451500                    STP1    @B+1,,AUTO
         3 000023   200302 630500                    EPPR0   @B+1,,AUTO
         3 000024   000023 631400 xsym               EPPR1   B_VECTNIL+19
PL6.E3A0      #001=DAD$CGS File=DAD$CGS.:E05TSI                                  TUE 07/29/97 12:40 Page:87
         3 000025   000000 701000 xent               TSX1    DAM$MAP
         3 000026   000062 702000 3                  TSX2    AERR

      480    21609    1         CG$ = M@CG$->KQ$MMSD.CGHEAD$; /* Pick up CGHEAD$ */

  21609  3 000027   200006 470500                    LDP0    M@CG$,,AUTO
         3 000030   000001 236100                    LDQ     1,,PR0
         3 000031   200005 756100                    STQ     CG$,,AUTO

      481    21610    1         CALL DAM$MAP (B$DS1$,M@F$CFU$) ALTRET (AERR);

  21610  3 000032   200013 631500                    EPPR1   M@F$CFU$,,AUTO
         3 000033   200303 451500                    STP1    @B+2,,AUTO
         3 000034   000003 236000 4                  LDQ     3
         3 000035   200302 756100                    STQ     @B+1,,AUTO
         3 000036   200302 630500                    EPPR0   @B+1,,AUTO
         3 000037   000020 631400 xsym               EPPR1   B_VECTNIL+16
         3 000040   000000 701000 xent               TSX1    DAM$MAP
         3 000041   000062 702000 3                  TSX2    AERR

      482    21611    1         F$CFU$ = B$DS1$ ;

  21611  3 000042   000000 236000 xsym               LDQ     B$DS1$
         3 000043   200012 756100                    STQ     F$CFU$,,AUTO

      483    21612    1         CALL DAF$INIT (CGSRPT);

  21612  3 000044   000004 630400 4                  EPPR0   4
         3 000045   000017 631400 xsym               EPPR1   B_VECTNIL+15
         3 000046   000000 701000 xent               TSX1    DAF$INIT
         3 000047   000000 011000                    NOP     0

      484    21613    2           DO WHILE (CG$ ~= ADDR (NIL));

  21613  3 000050   000056 710000 3                  TRA     s:21616

      485    21614    2           CALL DI1CG ALTRET (RETN);
PL6.E3A0      #001=DAD$CGS File=DAD$CGS.:E05TSI                                  TUE 07/29/97 12:40 Page:88

  21614  3 000051   002556 701000 3                  TSX1    DI1CG
         3 000052   000065 702000 3                  TSX2    RETN

      486    21615    2           CG$ = KQ$CG.LNK$;

  21615  3 000053   200006 470500                    LDP0    M@CG$,,AUTO
         3 000054   000104 236100                    LDQ     68,,PR0
         3 000055   200005 756100                    STQ     CG$,,AUTO

      487    21616    2           END;

  21616  3 000056   200005 236100                    LDQ     CG$,,AUTO
         3 000057   000001 116000 xsym               CMPQ    B_VECTNIL+1
         3 000060   000051 601000 3                  TNZ     s:21614

      488    21617
      489    21618    2           DO WHILE ('0'B);

  21618  3 000061   000065 710000 3                  TRA     RETN

      490    21619    2   AERR:
      491    21620    2           CALL DAA$ERRMSG;

  21620  3 000062   000002 631400 xsym  AERR         EPPR1   B_VECTNIL+2
         3 000063   000000 701000 xent               TSX1    DAA$ERRMSG
         3 000064   000000 011000                    NOP     0

      492    21621    2           END;

      493    21622
      494    21623    1   RETN:
      495    21624    1         RETURN;

  21624  3 000065   000000 702200 xent  RETN         TSX2  ! X66_ARET

      496    21625
PL6.E3A0      #001=DAD$CGS File=DAD$CGS.:E05TSI                                  TUE 07/29/97 12:40 Page:89
      497    21626        %EJECT;
PL6.E3A0      #001=DAD$CGS File=DAD$CGS.:E05TSI                                  TUE 07/29/97 12:40 Page:90
      498    21627        /*F* NAME:        DAD$CGMS
      499    21628             PURPOSE:     This routine does the CG MEMMORY SUMMARY command.
      500    21629             DESCRIPTION: This routine displays the total number of pages
      501    21630                          each comgroup is using and totals them at the end */
      502    21631        /*D* NAME:        DAD$CGMS
      503    21632             ENTRY:       DAD$CGMS
      504    21633             CALL:        CALL DAD$CGMS (TOP);
      505    21634             INPUT:       TOP - Parse output block for CG MEMORY SUMMARY command.
      506    21635             SCRATCH:     Mapping context.
      507    21636             DESCRIPTION: KQ_CGHEAD$ points to the first comgroup context
      508    21637                          block (KQ$CG). KQ$CG.LNK$ is the link to the next
      509    21638                          KQ$CG block. */
      510    21639
      511    21640    1   DAD$CGMS: ENTRY (TOP);

  21640  3 000066   000000 700200 xent  DAD$CGMS     TSX0  ! X66_AUTO_1
         3 000067   000430 000001                    ZERO    280,1

      512    21641
      513    21642    1         TMAXBP = 0;

  21642  3 000070   200210 450100                    STZ     TMAXBP,,AUTO

      514    21643    1         TMINBP = 0;

  21643  3 000071   200211 450100                    STZ     TMINBP,,AUTO

      515    21644    1         TCURBP = 0;

  21644  3 000072   200212 450100                    STZ     TCURBP,,AUTO

      516    21645    1         TMAXDP = 0 ;

  21645  3 000073   200213 450100                    STZ     TMAXDP,,AUTO

      517    21646    1         TMINDP = 0 ;

PL6.E3A0      #001=DAD$CGS File=DAD$CGS.:E05TSI                                  TUE 07/29/97 12:40 Page:91
  21646  3 000074   200214 450100                    STZ     TMINDP,,AUTO

      518    21647    1         TCURDP = 0 ;

  21647  3 000075   200215 450100                    STZ     TCURDP,,AUTO

      519    21648    1         TCURPG = 0 ;

  21648  3 000076   200216 450100                    STZ     TCURPG,,AUTO

      520    21649    1         CALL DAS$SDMONPTR (%M#KQ_MMSD,CG$) ALTRET (AERR);

  21649  3 000077   200005 630500                    EPPR0   CG$,,AUTO
         3 000100   200303 450500                    STP0    @B+2,,AUTO
         3 000101   000001 236000 4                  LDQ     1
         3 000102   200302 756100                    STQ     @B+1,,AUTO
         3 000103   200302 630500                    EPPR0   @B+1,,AUTO
         3 000104   000020 631400 xsym               EPPR1   B_VECTNIL+16
         3 000105   000000 701000 xent               TSX1    DAS$SDMONPTR
         3 000106   000062 702000 3                  TSX2    AERR

      521    21650    1         CALL DAM$MAP (CG$,M@CG$,,,DA_MONISDATA) ALTRET (AERR);

  21650  3 000107   000002 236000 4                  LDQ     2
         3 000110   200306 756100                    STQ     @B+5,,AUTO
         3 000111   000001 236000 xsym               LDQ     B_VECTNIL+1
         3 000112   000001 235000 xsym               LDA     B_VECTNIL+1
         3 000113   200304 757100                    STAQ    @B+3,,AUTO
         3 000114   200006 630500                    EPPR0   M@CG$,,AUTO
         3 000115   200303 450500                    STP0    @B+2,,AUTO
         3 000116   200005 631500                    EPPR1   CG$,,AUTO
         3 000117   200302 451500                    STP1    @B+1,,AUTO
         3 000120   200302 630500                    EPPR0   @B+1,,AUTO
         3 000121   000023 631400 xsym               EPPR1   B_VECTNIL+19
         3 000122   000000 701000 xent               TSX1    DAM$MAP
         3 000123   000062 702000 3                  TSX2    AERR

PL6.E3A0      #001=DAD$CGS File=DAD$CGS.:E05TSI                                  TUE 07/29/97 12:40 Page:92
      522    21651    1         CG$ = M@CG$->KQ$MMSD.CGHEAD$; /* Pick up CGHEAD$ */

  21651  3 000124   200006 470500                    LDP0    M@CG$,,AUTO
         3 000125   000001 236100                    LDQ     1,,PR0
         3 000126   200005 756100                    STQ     CG$,,AUTO

      523    21652    1         CALL DAS$SDMONPTR (%M#F$CFU$,F$CFU$) ALTRET (AERR);

  21652  3 000127   200012 631500                    EPPR1   F$CFU$,,AUTO
         3 000130   200303 451500                    STP1    @B+2,,AUTO
         3 000131   000006 236000 4                  LDQ     6
         3 000132   200302 756100                    STQ     @B+1,,AUTO
         3 000133   200302 630500                    EPPR0   @B+1,,AUTO
         3 000134   000020 631400 xsym               EPPR1   B_VECTNIL+16
         3 000135   000000 701000 xent               TSX1    DAS$SDMONPTR
         3 000136   000062 702000 3                  TSX2    AERR

      524    21653    1         CALL DAM$MAP (F$CFU$,M@F$CFU$,,,DA_MONISDATA) ALTRET (AERR);

  21653  3 000137   000002 236000 4                  LDQ     2
         3 000140   200306 756100                    STQ     @B+5,,AUTO
         3 000141   000001 236000 xsym               LDQ     B_VECTNIL+1
         3 000142   000001 235000 xsym               LDA     B_VECTNIL+1
         3 000143   200304 757100                    STAQ    @B+3,,AUTO
         3 000144   200013 630500                    EPPR0   M@F$CFU$,,AUTO
         3 000145   200303 450500                    STP0    @B+2,,AUTO
         3 000146   200012 631500                    EPPR1   F$CFU$,,AUTO
         3 000147   200302 451500                    STP1    @B+1,,AUTO
         3 000150   200302 630500                    EPPR0   @B+1,,AUTO
         3 000151   000023 631400 xsym               EPPR1   B_VECTNIL+19
         3 000152   000000 701000 xent               TSX1    DAM$MAP
         3 000153   000062 702000 3                  TSX2    AERR

      525    21654    1         F$CFU$ = M@F$CFU$->PTR$WORD; /* Pick up F$CFU$ */

  21654  3 000154   200013 470500                    LDP0    M@F$CFU$,,AUTO
         3 000155   000000 236100                    LDQ     0,,PR0
PL6.E3A0      #001=DAD$CGS File=DAD$CGS.:E05TSI                                  TUE 07/29/97 12:40 Page:93
         3 000156   200012 756100                    STQ     F$CFU$,,AUTO

      526    21655    1         CALL DAF$INIT (CGMSRPT);

  21655  3 000157   000007 630400 4                  EPPR0   7
         3 000160   000017 631400 xsym               EPPR1   B_VECTNIL+15
         3 000161   000000 701000 xent               TSX1    DAF$INIT
         3 000162   000000 011000                    NOP     0

      527    21656    2           DO WHILE (CG$ ~= ADDR (NIL));

  21656  3 000163   000171 710000 3                  TRA     s:21659

      528    21657    2           CALL DI1CGMEM ALTRET (RETNMEM);

  21657  3 000164   003244 701000 3                  TSX1    DI1CGMEM
         3 000165   000174 702000 3                  TSX2    RETNMEM

      529    21658    2           CG$ = KQ$CG.LNK$;

  21658  3 000166   200006 470500                    LDP0    M@CG$,,AUTO
         3 000167   000104 236100                    LDQ     68,,PR0
         3 000170   200005 756100                    STQ     CG$,,AUTO

      530    21659    2           END;

  21659  3 000171   200005 236100                    LDQ     CG$,,AUTO
         3 000172   000001 116000 xsym               CMPQ    B_VECTNIL+1
         3 000173   000164 601000 3                  TNZ     s:21657

      531    21660
      532    21661    1   RETNMEM:
      533    21662    1         CALL DAF$WRITE(VECTOR (BLANKFMT));

  21662  3 000174   000012 630400 4     RETNMEM      EPPR0   10
         3 000175   000000 220000 xsym               LDX0    DAF$WRITE
         3 000176   000017 631400 xsym               EPPR1   B_VECTNIL+15
PL6.E3A0      #001=DAD$CGS File=DAD$CGS.:E05TSI                                  TUE 07/29/97 12:40 Page:94
         3 000177   000000 701010                    TSX1    0,X0
         3 000200   000000 011000                    NOP     0

      534    21663    1         CALL DAF$WRITE (VECTOR (CGMTFMT),

  21663  3 000201   777640 235007                    LDA     -96,DL
         3 000202   200302 452500                    STP2    @B+1,,AUTO
         3 000203   200302 236100                    LDQ     @B+1,,AUTO
         3 000204   000210 036003                    ADLQ    136,DU
         3 000205   200304 757100                    STAQ    @B+3,,AUTO
         3 000206   777640 235007                    LDA     -96,DL
         3 000207   200306 452500                    STP2    @B+5,,AUTO
         3 000210   200306 236100                    LDQ     @B+5,,AUTO
         3 000211   000211 036003                    ADLQ    137,DU
         3 000212   200310 757100                    STAQ    @B+7,,AUTO
         3 000213   777640 235007                    LDA     -96,DL
         3 000214   200312 452500                    STP2    @B+9,,AUTO
         3 000215   200312 236100                    LDQ     @B+9,,AUTO
         3 000216   000212 036003                    ADLQ    138,DU
         3 000217   200314 757100                    STAQ    @B+11,,AUTO
         3 000220   777640 235007                    LDA     -96,DL
         3 000221   200316 452500                    STP2    @B+13,,AUTO
         3 000222   200316 236100                    LDQ     @B+13,,AUTO
         3 000223   000213 036003                    ADLQ    139,DU
         3 000224   200320 757100                    STAQ    @B+15,,AUTO
         3 000225   777640 235007                    LDA     -96,DL
         3 000226   200322 452500                    STP2    @B+17,,AUTO
         3 000227   200322 236100                    LDQ     @B+17,,AUTO
         3 000230   000214 036003                    ADLQ    140,DU
         3 000231   200324 757100                    STAQ    @B+19,,AUTO
         3 000232   777640 235007                    LDA     -96,DL
         3 000233   200326 452500                    STP2    @B+21,,AUTO
         3 000234   200326 236100                    LDQ     @B+21,,AUTO
         3 000235   000215 036003                    ADLQ    141,DU
         3 000236   200330 757100                    STAQ    @B+23,,AUTO
         3 000237   777640 235007                    LDA     -96,DL
         3 000240   200332 452500                    STP2    @B+25,,AUTO
PL6.E3A0      #001=DAD$CGS File=DAD$CGS.:E05TSI                                  TUE 07/29/97 12:40 Page:95
         3 000241   200332 236100                    LDQ     @B+25,,AUTO
         3 000242   000216 036003                    ADLQ    142,DU
         3 000243   200336 757100                    STAQ    @B+29,,AUTO
         3 000244   200304 237100                    LDAQ    @B+3,,AUTO
         3 000245   200334 757100                    STAQ    @B+27,,AUTO
         3 000246   200310 237100                    LDAQ    @B+7,,AUTO
         3 000247   200340 757100                    STAQ    @B+31,,AUTO
         3 000250   200314 237100                    LDAQ    @B+11,,AUTO
         3 000251   200342 757100                    STAQ    @B+33,,AUTO
         3 000252   200320 237100                    LDAQ    @B+15,,AUTO
         3 000253   200344 757100                    STAQ    @B+35,,AUTO
         3 000254   200324 237100                    LDAQ    @B+19,,AUTO
         3 000255   200346 757100                    STAQ    @B+37,,AUTO
         3 000256   200330 237100                    LDAQ    @B+23,,AUTO
         3 000257   200350 757100                    STAQ    @B+39,,AUTO
         3 000260   200336 237100                    LDAQ    @B+29,,AUTO
         3 000261   200352 757100                    STAQ    @B+41,,AUTO
         3 000262   200352 630500                    EPPR0   @B+41,,AUTO
         3 000263   200363 450500                    STP0    @B+50,,AUTO
         3 000264   200350 631500                    EPPR1   @B+39,,AUTO
         3 000265   200362 451500                    STP1    @B+49,,AUTO
         3 000266   200346 633500                    EPPR3   @B+37,,AUTO
         3 000267   200361 453500                    STP3    @B+48,,AUTO
         3 000270   200344 634500                    EPPR4   @B+35,,AUTO
         3 000271   200360 454500                    STP4    @B+47,,AUTO
         3 000272   200342 635500                    EPPR5   @B+33,,AUTO
         3 000273   200357 455500                    STP5    @B+46,,AUTO
         3 000274   200340 636500                    EPPR6   @B+31,,AUTO
         3 000275   200356 456500                    STP6    @B+45,,AUTO
         3 000276   200334 637500                    EPPR7   @B+27,,AUTO
         3 000277   200355 457500                    STP7    @B+44,,AUTO
         3 000300   000016 236000 4                  LDQ     14
         3 000301   200354 756100                    STQ     @B+43,,AUTO
         3 000302   200354 630500                    EPPR0   @B+43,,AUTO
         3 000303   000000 220000 xsym               LDX0    DAF$WRITE
         3 000304   000026 631400 xsym               EPPR1   B_VECTNIL+22
         3 000305   000000 701010                    TSX1    0,X0
PL6.E3A0      #001=DAD$CGS File=DAD$CGS.:E05TSI                                  TUE 07/29/97 12:40 Page:96
         3 000306   000000 011000                    NOP     0

      535    21664    1         VECTOR(TMAXBP),
      536    21665    1         VECTOR(TMINBP),
      537    21666    1         VECTOR(TCURBP),
      538    21667    1         VECTOR(TMAXDP),
      539    21668    1         VECTOR(TMINDP),
      540    21669    1         VECTOR(TCURDP),
      541    21670    1         VECTOR(TCURPG));
      542    21671    1         RETURN;

  21671  3 000307   000000 702200 xent               TSX2  ! X66_ARET

      543    21672
      544    21673        %EJECT;
PL6.E3A0      #001=DAD$CGS File=DAD$CGS.:E05TSI                                  TUE 07/29/97 12:40 Page:97
      545    21674        %EJECT;
PL6.E3A0      #001=DAD$CGS File=DAD$CGS.:E05TSI                                  TUE 07/29/97 12:40 Page:98
      546    21675        /*F* NAME:        DAD$CURCG
      547    21676             PURPOSE:     This routine does the CURCG command.
      548    21677             DESCRIPTION: This routine sets up the current comgroup, or just
      549    21678                          displays relevant data for the current comgroup. */
      550    21679        /*D* NAME:        DAD$CURCG
      551    21680             ENTRY:       DAD$CURCG
      552    21681             CALL:        CALL DAD$CURCG (TOP);
      553    21682             INPUT:       TOP - Parse output block for CURCG command.
      554    21683             SCRATCH:     Mapping context.
      555    21684             DESCRIPTION:  */
      556    21685
      557    21686    1   DAD$CURCG: ENTRY (TOP);

  21686  3 000310   000000 700200 xent  DAD$CURCG    TSX0  ! X66_AUTO_1
         3 000311   000430 000001                    ZERO    280,1

      558    21687
      559    21688    1         CALL SETUP ALTRET (RETN);

  21688  3 000312   010371 701000 3                  TSX1    SETUP
         3 000313   000065 702000 3                  TSX2    RETN

      560    21689    1         IF TOP.NSUBLKS ~= 0 THEN

  21689  3 000314   200003 470500                    LDP0    @TOP,,AUTO
         3 000315   000001 220100                    LDX0    1,,PR0
         3 000316   000320 600000 3                  TZE     s:21691

      561    21690    1           RETURN;

  21690  3 000317   000000 702200 xent               TSX2  ! X66_ARET

      562    21691    1         CALL DAF$INIT (CCGRPT);

  21691  3 000320   000017 630400 4                  EPPR0   15
         3 000321   000017 631400 xsym               EPPR1   B_VECTNIL+15
         3 000322   000000 701000 xent               TSX1    DAF$INIT
PL6.E3A0      #001=DAD$CGS File=DAD$CGS.:E05TSI                                  TUE 07/29/97 12:40 Page:99
         3 000323   000000 011000                    NOP     0

      563    21692    1         CALL DAF$WRITE (VECTOR (TEXTCFMT), VECTOR (CGSRPTTX01));

  21692  3 000324   000024 630400 4                  EPPR0   20
         3 000325   000000 220000 xsym               LDX0    DAF$WRITE
         3 000326   000020 631400 xsym               EPPR1   B_VECTNIL+16
         3 000327   000000 701010                    TSX1    0,X0
         3 000330   000000 011000                    NOP     0

      564    21693    1         CALL DAF$WRITE (VECTOR (TEXTCFMT), VECTOR (CGSRPTTX02));

  21693  3 000331   000030 630400 4                  EPPR0   24
         3 000332   000000 220000 xsym               LDX0    DAF$WRITE
         3 000333   000020 631400 xsym               EPPR1   B_VECTNIL+16
         3 000334   000000 701010                    TSX1    0,X0
         3 000335   000000 011000                    NOP     0

      565    21694    1         CALL DI1CG ALTRET (RETN);

  21694  3 000336   002556 701000 3                  TSX1    DI1CG
         3 000337   000065 702000 3                  TSX2    RETN

      566    21695    1         CALL DIDATACACHE ALTRET (RETN);

  21695  3 000340   003665 701000 3                  TSX1    DIDATACACHE
         3 000341   000065 702000 3                  TSX2    RETN

      567    21696    1         CALL DIMMD ALTRET (RETN);

  21696  3 000342   005721 701000 3                  TSX1    DIMMD
         3 000343   000065 702000 3                  TSX2    RETN

      568    21697    1         CALL DIGARB ALTRET (RETN);

  21697  3 000344   006536 701000 3                  TSX1    DIGARB
         3 000345   000065 702000 3                  TSX2    RETN
PL6.E3A0      #001=DAD$CGS File=DAD$CGS.:E05TSI                                  TUE 07/29/97 12:40 Page:100

      569    21698    1         CALL DIQUEUE ALTRET (RETN);

  21698  3 000346   007740 701000 3                  TSX1    DIQUEUE
         3 000347   000065 702000 3                  TSX2    RETN

      570    21699
      571    21700    1         RETURN;

  21700  3 000350   000000 702200 xent               TSX2  ! X66_ARET

      572    21701
      573    21702        %EJECT;
PL6.E3A0      #001=DAD$CGS File=DAD$CGS.:E05TSI                                  TUE 07/29/97 12:40 Page:101
      574    21703        /*F* NAME:        DAD$DATACACHE
      575    21704             PURPOSE:     This routine does the DATACACHE command.
      576    21705             DESCRIPTION: This routine sets up the current comgroup, or just
      577    21706                          displays relevant data for the current comgroup. */
      578    21707        /*D* NAME:        DAD$DATACACHE
      579    21708             ENTRY:       DAD$DATACACHE
      580    21709             CALL:        CALL DAD$DATACACHE (TOP);
      581    21710             INPUT:       TOP - Parse output block for DATACACHE command.
      582    21711             SCRATCH:     Mapping context.
      583    21712             DESCRIPTION:  */
      584    21713
      585    21714    1   DAD$DATACACHE: ENTRY (TOP);

  21714  3 000351   000000 700200 xent  DAD$DATACAC* TSX0  ! X66_AUTO_1
         3 000352   000430 000001                    ZERO    280,1

      586    21715
      587    21716    1         CALL SETUP ALTRET (RETN);

  21716  3 000353   010371 701000 3                  TSX1    SETUP
         3 000354   000065 702000 3                  TSX2    RETN

      588    21717    1         CALL DAF$INIT (CCGRPT);

  21717  3 000355   000017 630400 4                  EPPR0   15
         3 000356   000017 631400 xsym               EPPR1   B_VECTNIL+15
         3 000357   000000 701000 xent               TSX1    DAF$INIT
         3 000360   000000 011000                    NOP     0

      589    21718    1         CALL DIDATACACHE ALTRET (RETN);

  21718  3 000361   003665 701000 3                  TSX1    DIDATACACHE
         3 000362   000065 702000 3                  TSX2    RETN

      590    21719
      591    21720    1         RETURN;

PL6.E3A0      #001=DAD$CGS File=DAD$CGS.:E05TSI                                  TUE 07/29/97 12:40 Page:102
  21720  3 000363   000000 702200 xent               TSX2  ! X66_ARET

      592    21721
      593    21722        %EJECT;
PL6.E3A0      #001=DAD$CGS File=DAD$CGS.:E05TSI                                  TUE 07/29/97 12:40 Page:103
      594    21723        /*F* NAME:        DAD$MMD
      595    21724             PURPOSE:     This routine does the MMD command.
      596    21725             DESCRIPTION: This routine sets up the current comgroup, or just
      597    21726                          displays relevant data for the current comgroup. */
      598    21727        /*D* NAME:        DAD$MMD
      599    21728             ENTRY:       DAD$MMD
      600    21729             CALL:        CALL DAD$MMD (TOP);
      601    21730             INPUT:       TOP - Parse output block for MMD command.
      602    21731             SCRATCH:     Mapping context.
      603    21732             DESCRIPTION:  */
      604    21733
      605    21734    1   DAD$MMD: ENTRY (TOP);

  21734  3 000364   000000 700200 xent  DAD$MMD      TSX0  ! X66_AUTO_1
         3 000365   000430 000001                    ZERO    280,1

      606    21735
      607    21736    1         CALL SETUP ALTRET (RETN);

  21736  3 000366   010371 701000 3                  TSX1    SETUP
         3 000367   000065 702000 3                  TSX2    RETN

      608    21737    1         CALL DAF$INIT (CCGRPT);

  21737  3 000370   000017 630400 4                  EPPR0   15
         3 000371   000017 631400 xsym               EPPR1   B_VECTNIL+15
         3 000372   000000 701000 xent               TSX1    DAF$INIT
         3 000373   000000 011000                    NOP     0

      609    21738    1         CALL DIMMD ALTRET (RETN);

  21738  3 000374   005721 701000 3                  TSX1    DIMMD
         3 000375   000065 702000 3                  TSX2    RETN

      610    21739
      611    21740    1         RETURN;

PL6.E3A0      #001=DAD$CGS File=DAD$CGS.:E05TSI                                  TUE 07/29/97 12:40 Page:104
  21740  3 000376   000000 702200 xent               TSX2  ! X66_ARET

      612    21741
      613    21742        %EJECT;
PL6.E3A0      #001=DAD$CGS File=DAD$CGS.:E05TSI                                  TUE 07/29/97 12:40 Page:105
      614    21743        /*F* NAME:        DAD$GARB
      615    21744             PURPOSE:     This routine does the GARB command.
      616    21745             DESCRIPTION: This routine sets up the current comgroup, or just
      617    21746                          displays relevant data for the current comgroup. */
      618    21747        /*D* NAME:        DAD$GARB
      619    21748             ENTRY:       DAD$GARB
      620    21749             CALL:        CALL DAD$GARB (TOP);
      621    21750             INPUT:       TOP - Parse output block for GARB command.
      622    21751             SCRATCH:     Mapping context.
      623    21752             DESCRIPTION:  */
      624    21753
      625    21754    1   DAD$GARB: ENTRY (TOP);

  21754  3 000377   000000 700200 xent  DAD$GARB     TSX0  ! X66_AUTO_1
         3 000400   000430 000001                    ZERO    280,1

      626    21755
      627    21756    1         CALL SETUP ALTRET (RETN);

  21756  3 000401   010371 701000 3                  TSX1    SETUP
         3 000402   000065 702000 3                  TSX2    RETN

      628    21757    1         CALL DAF$INIT (CCGRPT);

  21757  3 000403   000017 630400 4                  EPPR0   15
         3 000404   000017 631400 xsym               EPPR1   B_VECTNIL+15
         3 000405   000000 701000 xent               TSX1    DAF$INIT
         3 000406   000000 011000                    NOP     0

      629    21758    1         CALL DIGARB ALTRET (RETN);

  21758  3 000407   006536 701000 3                  TSX1    DIGARB
         3 000410   000065 702000 3                  TSX2    RETN

      630    21759
      631    21760    1         RETURN;

PL6.E3A0      #001=DAD$CGS File=DAD$CGS.:E05TSI                                  TUE 07/29/97 12:40 Page:106
  21760  3 000411   000000 702200 xent               TSX2  ! X66_ARET

      632    21761
      633    21762        %EJECT;
PL6.E3A0      #001=DAD$CGS File=DAD$CGS.:E05TSI                                  TUE 07/29/97 12:40 Page:107
      634    21763        /*F* NAME:        DAD$QUEUE
      635    21764             PURPOSE:     This routine does the QUEUE command.
      636    21765             DESCRIPTION: This routine sets up the current comgroup, or just
      637    21766                          displays relevant data for the current comgroup. */
      638    21767        /*D* NAME:        DAD$QUEUE
      639    21768             ENTRY:       DAD$QUEUE
      640    21769             CALL:        CALL DAD$QUEUE (TOP);
      641    21770             INPUT:       TOP - Parse output block for QUEUE command.
      642    21771             SCRATCH:     Mapping context.
      643    21772             DESCRIPTION:  */
      644    21773
      645    21774    1   DAD$QUEUE: ENTRY (TOP);

  21774  3 000412   000000 700200 xent  DAD$QUEUE    TSX0  ! X66_AUTO_1
         3 000413   000430 000001                    ZERO    280,1

      646    21775
      647    21776    1         CALL SETUP ALTRET (RETN);

  21776  3 000414   010371 701000 3                  TSX1    SETUP
         3 000415   000065 702000 3                  TSX2    RETN

      648    21777    1         CALL DAF$INIT (CCGRPT);

  21777  3 000416   000017 630400 4                  EPPR0   15
         3 000417   000017 631400 xsym               EPPR1   B_VECTNIL+15
         3 000420   000000 701000 xent               TSX1    DAF$INIT
         3 000421   000000 011000                    NOP     0

      649    21778    1         CALL DIQUEUE ALTRET (RETN);

  21778  3 000422   007740 701000 3                  TSX1    DIQUEUE
         3 000423   000065 702000 3                  TSX2    RETN

      650    21779
      651    21780    1         RETURN;

PL6.E3A0      #001=DAD$CGS File=DAD$CGS.:E05TSI                                  TUE 07/29/97 12:40 Page:108
  21780  3 000424   000000 702200 xent               TSX2  ! X66_ARET

      652    21781
      653    21782        %EJECT;
PL6.E3A0      #001=DAD$CGS File=DAD$CGS.:E05TSI                                  TUE 07/29/97 12:40 Page:109
      654    21783        /*F* NAME:        DAD$MLH
      655    21784             PURPOSE:     This routine does the MLH command.
      656    21785             DESCRIPTION: This routine sets up the current comgroup, or just
      657    21786                          displays relevant data for the current comgroup. */
      658    21787        /*D* NAME:        DAD$MLH
      659    21788             ENTRY:       DAD$MLH
      660    21789             CALL:        CALL DAD$MLH (TOP);
      661    21790             INPUT:       TOP - Parse output block for MLH command.
      662    21791             SCRATCH:     Mapping context.
      663    21792             DESCRIPTION:  */
      664    21793
      665    21794    1   DAD$MLH: ENTRY (TOP);

  21794  3 000425   000000 700200 xent  DAD$MLH      TSX0  ! X66_AUTO_1
         3 000426   000430 000001                    ZERO    280,1

      666    21795
      667    21796    1         CALL SETUP ALTRET (RETN);

  21796  3 000427   010371 701000 3                  TSX1    SETUP
         3 000430   000065 702000 3                  TSX2    RETN

      668    21797    1         CALL DAF$INIT (MLHRPT);

  21797  3 000431   000032 630400 4                  EPPR0   26
         3 000432   000017 631400 xsym               EPPR1   B_VECTNIL+15
         3 000433   000000 701000 xent               TSX1    DAF$INIT
         3 000434   000000 011000                    NOP     0

      669    21798    1         IF KQ$CG.STREE.HEAD$ = ADDR (NIL) AND KQ$CG.QUEUE.QTREE$ = ADDR(NIL)

  21798  3 000435   200006 470500                    LDP0    M@CG$,,AUTO
         3 000436   000101 236100                    LDQ     65,,PR0
         3 000437   000001 116000 xsym               CMPQ    B_VECTNIL+1
         3 000440   000452 601000 3                  TNZ     s:21803
         3 000441   000057 236100                    LDQ     47,,PR0
         3 000442   000001 116000 xsym               CMPQ    B_VECTNIL+1
PL6.E3A0      #001=DAD$CGS File=DAD$CGS.:E05TSI                                  TUE 07/29/97 12:40 Page:110
         3 000443   000452 601000 3                  TNZ     s:21803

      670    21799    2         THEN DO;

      671    21800    2           CALL DAF$WRITE (VECTOR (NOTHINGFMT));

  21800  3 000444   000036 630400 4                  EPPR0   30
         3 000445   000000 220000 xsym               LDX0    DAF$WRITE
         3 000446   000017 631400 xsym               EPPR1   B_VECTNIL+15
         3 000447   000000 701010                    TSX1    0,X0
         3 000450   000000 011000                    NOP     0

      672    21801    2           RETURN;

  21801  3 000451   000000 702200 xent               TSX2  ! X66_ARET

      673    21802    2           END;
      674    21803    1         CUR$ = KQ$CG.STREE.HEAD$;

  21803  3 000452   000101 236100                    LDQ     65,,PR0
         3 000453   200031 756100                    STQ     CUR$,,AUTO

      675    21804    1         TEMP$ = KQ$CG.QUEUE.QTREE$;

  21804  3 000454   000057 236100                    LDQ     47,,PR0
         3 000455   200024 756100                    STQ     TEMP$,,AUTO

      676    21805    1         CALL DAM$MAP (TEMP$, M@TEMP$) ALTRET (MLHERR2);

  21805  3 000456   200025 631500                    EPPR1   M@TEMP$,,AUTO
         3 000457   200303 451500                    STP1    @B+2,,AUTO
         3 000460   200024 633500                    EPPR3   TEMP$,,AUTO
         3 000461   200302 453500                    STP3    @B+1,,AUTO
         3 000462   200302 630500                    EPPR0   @B+1,,AUTO
         3 000463   000020 631400 xsym               EPPR1   B_VECTNIL+16
         3 000464   000000 701000 xent               TSX1    DAM$MAP
         3 000465   000542 702000 3                  TSX2    MLHERR2
PL6.E3A0      #001=DAD$CGS File=DAD$CGS.:E05TSI                                  TUE 07/29/97 12:40 Page:111

      677    21806    1         QTREEHD$ = M@TEMP$->KQ$THDR.HEAD$;

  21806  3 000466   200025 470500                    LDP0    M@TEMP$,,AUTO
         3 000467   000004 236100                    LDQ     4,,PR0
         3 000470   200020 756100                    STQ     QTREEHD$,,AUTO

      678    21807    2           DO WHILE (CUR$ ~= ADDR (NIL));

  21807  3 000471   000512 710000 3                  TRA     s:21812

      679    21808    2           MLH$ = ADDR(CUR$->KQ$STA.MLH);

  21808  3 000472   200031 236100                    LDQ     CUR$,,AUTO
         3 000473   000034 036003                    ADLQ    28,DU
         3 000474   200016 756100                    STQ     MLH$,,AUTO

      680    21809    2           CALL DIMLH ALTRET(MLHERR1);

  21809  3 000475   005153 701000 3                  TSX1    DIMLH
         3 000476   000515 702000 3                  TSX2    MLHERR1

      681    21810    2           CALL DAM$MAP (CUR$,M@CUR$) ALTRET(MLHERR1);

  21810  3 000477   200032 630500                    EPPR0   M@CUR$,,AUTO
         3 000500   200303 450500                    STP0    @B+2,,AUTO
         3 000501   200031 631500                    EPPR1   CUR$,,AUTO
         3 000502   200302 451500                    STP1    @B+1,,AUTO
         3 000503   200302 630500                    EPPR0   @B+1,,AUTO
         3 000504   000020 631400 xsym               EPPR1   B_VECTNIL+16
         3 000505   000000 701000 xent               TSX1    DAM$MAP
         3 000506   000515 702000 3                  TSX2    MLHERR1

      682    21811    2           CUR$ = M@CUR$->KQ$STA.BTN.FLINK$;

  21811  3 000507   200032 470500                    LDP0    M@CUR$,,AUTO
         3 000510   000004 236100                    LDQ     4,,PR0
PL6.E3A0      #001=DAD$CGS File=DAD$CGS.:E05TSI                                  TUE 07/29/97 12:40 Page:112
         3 000511   200031 756100                    STQ     CUR$,,AUTO

      683    21812    2           END;

  21812  3 000512   200031 236100                    LDQ     CUR$,,AUTO
         3 000513   000001 116000 xsym               CMPQ    B_VECTNIL+1
         3 000514   000472 601000 3                  TNZ     s:21808

      684    21813    1   MLHERR1: CUR$ = QTREEHD$;

  21813  3 000515   200020 236100       MLHERR1      LDQ     QTREEHD$,,AUTO
         3 000516   200031 756100                    STQ     CUR$,,AUTO

      685    21814    2           DO WHILE (CUR$ ~= ADDR (NIL));

  21814  3 000517   000540 710000 3                  TRA     s:21819

      686    21815    2           MLH$ = ADDR(CUR$->KQ$QTN.MLH);

  21815  3 000520   200031 236100                    LDQ     CUR$,,AUTO
         3 000521   000055 036003                    ADLQ    45,DU
         3 000522   200016 756100                    STQ     MLH$,,AUTO

      687    21816    2           CALL DIMLH ALTRET(MLHERR2);

  21816  3 000523   005153 701000 3                  TSX1    DIMLH
         3 000524   000542 702000 3                  TSX2    MLHERR2

      688    21817    2           CALL DAM$MAP (CUR$,M@CUR$) ALTRET(MLHERR2);

  21817  3 000525   200032 630500                    EPPR0   M@CUR$,,AUTO
         3 000526   200303 450500                    STP0    @B+2,,AUTO
         3 000527   200031 631500                    EPPR1   CUR$,,AUTO
         3 000530   200302 451500                    STP1    @B+1,,AUTO
         3 000531   200302 630500                    EPPR0   @B+1,,AUTO
         3 000532   000020 631400 xsym               EPPR1   B_VECTNIL+16
         3 000533   000000 701000 xent               TSX1    DAM$MAP
PL6.E3A0      #001=DAD$CGS File=DAD$CGS.:E05TSI                                  TUE 07/29/97 12:40 Page:113
         3 000534   000542 702000 3                  TSX2    MLHERR2

      689    21818    2           CUR$ = M@CUR$->KQ$QTN.STA.BTN.FLINK$;

  21818  3 000535   200032 470500                    LDP0    M@CUR$,,AUTO
         3 000536   000004 236100                    LDQ     4,,PR0
         3 000537   200031 756100                    STQ     CUR$,,AUTO

      690    21819    2           END;

  21819  3 000540   000001 116000 xsym               CMPQ    B_VECTNIL+1
         3 000541   000520 601000 3                  TNZ     s:21815

      691    21820    1   MLHERR2: RETURN;

  21820  3 000542   000000 702200 xent  MLHERR2      TSX2  ! X66_ARET

      692    21821
      693    21822        %EJECT;
PL6.E3A0      #001=DAD$CGS File=DAD$CGS.:E05TSI                                  TUE 07/29/97 12:40 Page:114
      694    21823        /*F* NAME:        DAD$MSGLIST
      695    21824             PURPOSE:     This routine does the MSGLIST command.
      696    21825             DESCRIPTION: This routine displays a list of MBLKs and/or
      697    21826                          super-MBLKs for the current comgroup. */
      698    21827        /*D* NAME:        DAD$MSGLIST
      699    21828             ENTRY:       DAD$MSGLIST
      700    21829             CALL:        CALL DAD$MSGLIST (TOP);
      701    21830             INPUT:       TOP - Parse output block for MSGLIST command.
      702    21831                          DA_CURCG - Current comgroup information.
      703    21832             SCRATCH:     Mapping context.
      704    21833             DESCRIPTION: Accepts the command:
      705    21834                             MSGLIST <location> [,<count>]
      706    21835                          and displays a list of MBLKs and/or super-MBLKs
      707    21836                          starting at <location> and continuing for <count>
      708    21837                          (super-)MBLKS or until the end of the referenced
      709    21838                          chain. If <count> is not specified, <count> is
      710    21839                          considered to be infinity. */
      711    21840
      712    21841    1   DAD$MSGLIST: ENTRY (TOP);

  21841  3 000543   000000 700200 xent  DAD$MSGLIST  TSX0  ! X66_AUTO_1
         3 000544   000430 000001                    ZERO    280,1

      713    21842
      714    21843    1         CALL SETUPCUR ALTRET(RETN);

  21843  3 000545   010472 701000 3                  TSX1    SETUPCUR
         3 000546   000065 702000 3                  TSX2    RETN

      715    21844    1         CALL DAA$LOC (TOP.SUBLK$(0)->OUT$BLK,MBLK$) ALTRET (RETN);

  21844  3 000547   200003 470500                    LDP0    @TOP,,AUTO
         3 000550   000003 471500                    LDP1    3,,PR0
         3 000551   200014 633500                    EPPR3   MBLK$,,AUTO
         3 000552   200303 453500                    STP3    @B+2,,AUTO
         3 000553   200302 451500                    STP1    @B+1,,AUTO
         3 000554   200302 630500                    EPPR0   @B+1,,AUTO
PL6.E3A0      #001=DAD$CGS File=DAD$CGS.:E05TSI                                  TUE 07/29/97 12:40 Page:115
         3 000555   000020 631400 xsym               EPPR1   B_VECTNIL+16
         3 000556   000000 701000 xent               TSX1    DAA$LOC
         3 000557   000065 702000 3                  TSX2    RETN

      716    21845    1         IF TOP.NSUBLKS=2

  21845  3 000560   200003 470500                    LDP0    @TOP,,AUTO
         3 000561   000001 220100                    LDX0    1,,PR0
         3 000562   000002 100003                    CMPX0   2,DU
         3 000563   000575 601000 3                  TNZ     s:21847

      717    21846    1         THEN CALL DAA$VALUE (TOP.SUBLK$(1)->OUT$BLK,COUNT) ALTRET (RETN);

  21846  3 000564   000004 471500                    LDP1    4,,PR0
         3 000565   200004 633500                    EPPR3   COUNT,,AUTO
         3 000566   200303 453500                    STP3    @B+2,,AUTO
         3 000567   200302 451500                    STP1    @B+1,,AUTO
         3 000570   200302 630500                    EPPR0   @B+1,,AUTO
         3 000571   000020 631400 xsym               EPPR1   B_VECTNIL+16
         3 000572   000000 701000 xent               TSX1    DAA$VALUE
         3 000573   000065 702000 3                  TSX2    RETN
         3 000574   000577 710000 3                  TRA     s:21848

      718    21847    1         ELSE COUNT = BITBIN('377777777777'O);

  21847  3 000575   000031 235000 xsym               LDA     B_VECTNIL+25
         3 000576   200004 755100                    STA     COUNT,,AUTO

      719    21848    1         CALL DAF$INIT (MSGLISTRPT);

  21848  3 000577   000037 630400 4                  EPPR0   31
         3 000600   000017 631400 xsym               EPPR1   B_VECTNIL+15
         3 000601   000000 701000 xent               TSX1    DAF$INIT
         3 000602   000000 011000                    NOP     0

      720    21849    2           DO I=1 TO COUNT;

PL6.E3A0      #001=DAD$CGS File=DAD$CGS.:E05TSI                                  TUE 07/29/97 12:40 Page:116
  21849  3 000603   000001 235007                    LDA     1,DL
         3 000604   200030 755100                    STA     I,,AUTO
         3 000605   001054 710000 3                  TRA     s:21894+3

      721    21850    2           MSGD = '0'B;

  21850  3 000606   000100 100400                    MLR     fill='000'O
         3 000607   000002 000001 xsym               ADSC9   B_VECTNIL+2              cn=0,n=1
         3 000610   200057 000104                    ADSC9   MSGD,,AUTO               cn=0,n=68

      722    21851    2           MSGD.NUM = I;

  21851  3 000611   200030 235100                    LDA     I,,AUTO
         3 000612   200057 755100                    STA     MSGD,,AUTO

      723    21852    2           CALL VALPTR (MBLK$,AS0$,MSGD.X.D,MSGD.X.W) ALTRET (RETN);

  21852  3 000613   000001 236000 xsym               LDQ     B_VECTNIL+1
         3 000614   000001 235000 xsym               LDA     B_VECTNIL+1
         3 000615   200300 757100                    STAQ    @N+1,,AUTO
         3 000616   000001 236000 xsym               LDQ     B_VECTNIL+1
         3 000617   200277 756100                    STQ     @W+1,,AUTO
         3 000620   200060 630500                    EPPR0   MSGD+1,,AUTO
         3 000621   200276 450500                    STP0    @D+1,,AUTO
         3 000622   200061 631500                    EPPR1   MSGD+2,,AUTO
         3 000623   200275 451500                    STP1    @VPTR$+1,,AUTO
         3 000624   000040 236000 4                  LDQ     32
         3 000625   200274 756100                    STQ     @PTR$+1,,AUTO
         3 000626   200014 633500                    EPPR3   MBLK$,,AUTO
         3 000627   200273 453500                    STP3    CFU$+2,,AUTO
         3 000630   011056 701000 3                  TSX1    VALPTR
         3 000631   000065 702000 3                  TSX2    RETN

      724    21853    2           CALL DAM$MAP (MBLK$,M@MBLK$) ALTRET(RETN);

  21853  3 000632   200015 630500                    EPPR0   M@MBLK$,,AUTO
         3 000633   200303 450500                    STP0    @B+2,,AUTO
PL6.E3A0      #001=DAD$CGS File=DAD$CGS.:E05TSI                                  TUE 07/29/97 12:40 Page:117
         3 000634   200014 631500                    EPPR1   MBLK$,,AUTO
         3 000635   200302 451500                    STP1    @B+1,,AUTO
         3 000636   200302 630500                    EPPR0   @B+1,,AUTO
         3 000637   000020 631400 xsym               EPPR1   B_VECTNIL+16
         3 000640   000000 701000 xent               TSX1    DAM$MAP
         3 000641   000065 702000 3                  TSX2    RETN

      725    21854    2           CALL XLATE (MSGD.KEY1,DA_PRINTABLE_TBL,KQ$MBLK.KEY1);

  21854  3 000642   200015 470500                    LDP0    M@MBLK$,,AUTO
         3 000643   000000 471400 xsym               LDP1    B$XL_ASC_DUMP$
         3 000644   040100 160500                    MVT     fill='040'O
         3 000645   000002 000010                    ADSC9   2,,PR0                   cn=0,n=8
         3 000646   200062 200010                    ADSC9   MSGD+3,,AUTO             cn=1,n=8
         3 000647   100000 000100                    ARG     0,,PR1

      726    21855    2           CALL XLATE (MSGD.KEY2,DA_PRINTABLE_TBL,KQ$MBLK.KEY2);

  21855  3 000650   040100 160500                    MVT     fill='040'O
         3 000651   000004 000010                    ADSC9   4,,PR0                   cn=0,n=8
         3 000652   200064 200010                    ADSC9   MSGD+5,,AUTO             cn=1,n=8
         3 000653   100000 000100                    ARG     0,,PR1

      727    21856    2           MSGD.PRIO = KQ$MBLK.PRIO;

  21856  3 000654   000001 220100                    LDX0    1,,PR0
         3 000655   200070 740100                    STX0    MSGD+9,,AUTO

      728    21857    2           IF KQ$MBLK.LNK$=ADDR(NIL)

  21857  3 000656   000000 236100                    LDQ     0,,PR0
         3 000657   000001 116000 xsym               CMPQ    B_VECTNIL+1
         3 000660   000664 601000 3                  TNZ     s:21859

      729    21858    2           THEN MSGD.LNK = 'NIL';

  21858  3 000661   001454 236000 2                  LDQ     ERRFMT+13
PL6.E3A0      #001=DAD$CGS File=DAD$CGS.:E05TSI                                  TUE 07/29/97 12:40 Page:118
         3 000662   200071 552170                    STBQ    MSGD+10,'70'O,AUTO
         3 000663   000666 710000 3                  TRA     s:21860

      730    21859    2           ELSE MSGD.LNK = ' > ';

  21859  3 000664   001455 236000 2                  LDQ     ERRFMT+14
         3 000665   200071 552170                    STBQ    MSGD+10,'70'O,AUTO

      731    21860    2           MSGD.DDA = KQ$MBLK.DDA;

  21860  3 000666   000006 235100                    LDA     6,,PR0
         3 000667   200072 755100                    STA     MSGD+11,,AUTO

      732    21861    2           MSGD.UTS = KQ$MBLK.UTS;

  21861  3 000670   000007 235100                    LDA     7,,PR0
         3 000671   200073 755100                    STA     MSGD+12,,AUTO

      733    21862    2           IF KQ$MBLK.SUPER='0'B

  21862  3 000672   000010 234100                    SZN     8,,PR0
         3 000673   000750 604000 3                  TMI     s:21880

      734    21863    3           THEN DO;

      735    21864    3             MSGD.S = ' ';

  21864  3 000674   040000 236003                    LDQ     16384,DU
         3 000675   200062 552140                    STBQ    MSGD+3,'40'O,AUTO

      736    21865    3             MSGD.STAR = STARTBL(BITBIN(KQ$MBLK.STAR));

  21865  3 000676   000010 236100                    LDQ     8,,PR0
         3 000677   000041 772000                    QRL     33
         3 000700   000001 376007                    ANQ     1,DL
         3 000701   040100 100406                    MLR     fill='040'O
         3 000702   000000 000001 2                  ADSC9   STARTBL,Q                cn=0,n=1
PL6.E3A0      #001=DAD$CGS File=DAD$CGS.:E05TSI                                  TUE 07/29/97 12:40 Page:119
         3 000703   200066 200001                    ADSC9   MSGD+7,,AUTO             cn=1,n=1

      737    21866    3             MSGD.DVBYTE = KQ$MBLK.DVE.DVBYTE;

  21866  3 000704   000010 236100                    LDQ     8,,PR0
         3 000705   000011 772000                    QRL     9
         3 000706   200066 552110                    STBQ    MSGD+7,'10'O,AUTO

      738    21867    3             MSGD.MSGSIZE = KQ$MBLK.MSGSIZE;

  21867  3 000707   000016 235100                    LDA     14,,PR0
         3 000710   200067 755100                    STA     MSGD+8,,AUTO

      739    21868    3             MSGD.EV.EOM = KQ$MBLK.DVE.EOMCHAR;

  21868  3 000711   000010 236100                    LDQ     8,,PR0
         3 000712   200070 552110                    STBQ    MSGD+9,'10'O,AUTO

      740    21869    3             CALL XLATE(MSGD.EV.VFC,DA_PRINTABLE_TBL,KQ$MBLK.DVE.VFC);

  21869  3 000713   040100 160500                    MVT     fill='040'O
         3 000714   000010 400001                    ADSC9   8,,PR0                   cn=2,n=1
         3 000715   200070 600001                    ADSC9   MSGD+9,,AUTO             cn=3,n=1
         3 000716   100000 000100                    ARG     0,,PR1

      741    21870    3             MSGD.MIDPRI = KQ$MBLK.MID.PRIMARY;

  21870  3 000717   000014 235100                    LDA     12,,PR0
         3 000720   200074 755100                    STA     MSGD+13,,AUTO

      742    21871    3             IF KQ$MBLK.MID.XT=0

  21871  3 000721   000015 235100                    LDA     13,,PR0
         3 000722   000725 601000 3                  TNZ     s:21874

      743    21872    3             THEN MSGD.MIDXTN = 0;

PL6.E3A0      #001=DAD$CGS File=DAD$CGS.:E05TSI                                  TUE 07/29/97 12:40 Page:120
  21872  3 000723   200075 450100                    STZ     MSGD+14,,AUTO
         3 000724   000731 710000 3                  TRA     s:21877

      744    21873    4             ELSE DO;

      745    21874    4               MSGD.MIDXTN = 1;

  21874  3 000725   000001 236007                    LDQ     1,DL
         3 000726   200075 756100                    STQ     MSGD+14,,AUTO

      746    21875    4               MSGD.MIDXT = KQ$MBLK.MID.XT;

  21875  3 000727   000015 235100                    LDA     13,,PR0
         3 000730   200076 755100                    STA     MSGD+15,,AUTO

      747    21876    4               END;

      748    21877    3             CALL DAF$WRITE (VECTOR(MBLKFMT),VECTOR(MSGD));

  21877  3 000731   000044 235000 4                  LDA     36
         3 000732   200302 452500                    STP2    @B+1,,AUTO
         3 000733   200302 236100                    LDQ     @B+1,,AUTO
         3 000734   000057 036003                    ADLQ    47,DU
         3 000735   200304 757100                    STAQ    @B+3,,AUTO
         3 000736   200304 633500                    EPPR3   @B+3,,AUTO
         3 000737   200307 453500                    STP3    @B+6,,AUTO
         3 000740   000045 236000 4                  LDQ     37
         3 000741   200306 756100                    STQ     @B+5,,AUTO
         3 000742   200306 630500                    EPPR0   @B+5,,AUTO
         3 000743   000000 220000 xsym               LDX0    DAF$WRITE
         3 000744   000020 631400 xsym               EPPR1   B_VECTNIL+16
         3 000745   000000 701010                    TSX1    0,X0
         3 000746   000000 011000                    NOP     0

      749    21878    3             END;

  21878  3 000747   001046 710000 3                  TRA     s:21893
PL6.E3A0      #001=DAD$CGS File=DAD$CGS.:E05TSI                                  TUE 07/29/97 12:40 Page:121

      750    21879    3           ELSE DO;

      751    21880    3             MSGD.S = '*';

  21880  3 000750   052000 236003                    LDQ     21504,DU
         3 000751   200062 552140                    STBQ    MSGD+3,'40'O,AUTO

      752    21881    3             IF KQ$SMBLK.KEY1VALID='0'B

  21881  3 000752   000010 236100                    LDQ     8,,PR0
         3 000753   020000 316003                    CANQ    8192,DU
         3 000754   000760 601000 3                  TNZ     s:21883

      753    21882    3             THEN MSGD.KEY1 = 'invalid ';

  21882  3 000755   040100 100400                    MLR     fill='040'O
         3 000756   001456 000010 2                  ADSC9   ERRFMT+15                cn=0,n=8
         3 000757   200062 200010                    ADSC9   MSGD+3,,AUTO             cn=1,n=8

      754    21883    3             IF KQ$SMBLK.KEY2VALID='0'B

  21883  3 000760   000010 236100                    LDQ     8,,PR0
         3 000761   040000 316003                    CANQ    16384,DU
         3 000762   000766 601000 3                  TNZ     s:21885

      755    21884    3             THEN MSGD.KEY2 = 'invalid ';

  21884  3 000763   040100 100400                    MLR     fill='040'O
         3 000764   001456 000010 2                  ADSC9   ERRFMT+15                cn=0,n=8
         3 000765   200064 200010                    ADSC9   MSGD+5,,AUTO             cn=1,n=8

      756    21885    3             MSGD.KEY1ALL = STARTBL(BITBIN(KQ$SMBLK.KEY1ALL));

  21885  3 000766   000010 236100                    LDQ     8,,PR0
         3 000767   000042 772000                    QRL     34
         3 000770   000001 376007                    ANQ     1,DL
PL6.E3A0      #001=DAD$CGS File=DAD$CGS.:E05TSI                                  TUE 07/29/97 12:40 Page:122
         3 000771   040100 100406                    MLR     fill='040'O
         3 000772   000000 000001 2                  ADSC9   STARTBL,Q                cn=0,n=1
         3 000773   200066 200001                    ADSC9   MSGD+7,,AUTO             cn=1,n=1

      757    21886    3             MSGD.KEY2ALL = STARTBL(BITBIN(KQ$SMBLK.KEY2ALL));

  21886  3 000774   000010 236100                    LDQ     8,,PR0
         3 000775   000041 772000                    QRL     33
         3 000776   000001 376007                    ANQ     1,DL
         3 000777   040100 100406                    MLR     fill='040'O
         3 001000   000000 000001 2                  ADSC9   STARTBL,Q                cn=0,n=1
         3 001001   200066 400001                    ADSC9   MSGD+7,,AUTO             cn=2,n=1

      758    21887    3             MSGD.COUNT = KQ$SMBLK.COUNT;

  21887  3 001002   000015 235100                    LDA     13,,PR0
         3 001003   200067 755100                    STA     MSGD+8,,AUTO

      759    21888    3             MSGD.PRIOLO = KQ$SMBLK.PRIOLO;

  21888  3 001004   000010 721100                    LXL1    8,,PR0
         3 001005   200070 441100                    SXL1    MSGD+9,,AUTO

      760    21889    3             MSGD.UTSHI = KQ$SMBLK.UTSHI;

  21889  3 001006   000011 235100                    LDA     9,,PR0
         3 001007   200074 755100                    STA     MSGD+13,,AUTO

      761    21890    3             CALL VALPTR (KQ$SMBLK.INSHD$,AS0$,MSGD.INSHDD,MSGD.INSHDW,MSGD.INSHDN);

  21890  3 001010   000001 236000 xsym               LDQ     B_VECTNIL+1
         3 001011   000001 235000 xsym               LDA     B_VECTNIL+1
         3 001012   200300 757100                    STAQ    @N+1,,AUTO
         3 001013   200077 633500                    EPPR3   MSGD+16,,AUTO
         3 001014   200277 453500                    STP3    @W+1,,AUTO
         3 001015   200075 634500                    EPPR4   MSGD+14,,AUTO
         3 001016   200276 454500                    STP4    @D+1,,AUTO
PL6.E3A0      #001=DAD$CGS File=DAD$CGS.:E05TSI                                  TUE 07/29/97 12:40 Page:123
         3 001017   200076 635500                    EPPR5   MSGD+15,,AUTO
         3 001020   200275 455500                    STP5    @VPTR$+1,,AUTO
         3 001021   000040 236000 4                  LDQ     32
         3 001022   200274 756100                    STQ     @PTR$+1,,AUTO
         3 001023   200015 236100                    LDQ     M@MBLK$,,AUTO
         3 001024   000012 036003                    ADLQ    10,DU
         3 001025   200273 756100                    STQ     CFU$+2,,AUTO
         3 001026   011056 701000 3                  TSX1    VALPTR
         3 001027   000000 011000                    NOP     0

      762    21891    3             CALL DAF$WRITE (VECTOR(SMBLKFMT),VECTOR(MSGD));

  21891  3 001030   000044 235000 4                  LDA     36
         3 001031   200302 452500                    STP2    @B+1,,AUTO
         3 001032   200302 236100                    LDQ     @B+1,,AUTO
         3 001033   000057 036003                    ADLQ    47,DU
         3 001034   200304 757100                    STAQ    @B+3,,AUTO
         3 001035   200304 630500                    EPPR0   @B+3,,AUTO
         3 001036   200307 450500                    STP0    @B+6,,AUTO
         3 001037   000050 236000 4                  LDQ     40
         3 001040   200306 756100                    STQ     @B+5,,AUTO
         3 001041   200306 630500                    EPPR0   @B+5,,AUTO
         3 001042   000000 220000 xsym               LDX0    DAF$WRITE
         3 001043   000020 631400 xsym               EPPR1   B_VECTNIL+16
         3 001044   000000 701010                    TSX1    0,X0
         3 001045   000000 011000                    NOP     0

      763    21892    3             END;

      764    21893    2           MBLK$ = KQ$MBLK.LNK$;

  21893  3 001046   200015 470500                    LDP0    M@MBLK$,,AUTO
         3 001047   000000 236100                    LDQ     0,,PR0
         3 001050   200014 756100                    STQ     MBLK$,,AUTO

      765    21894    2           END;

PL6.E3A0      #001=DAD$CGS File=DAD$CGS.:E05TSI                                  TUE 07/29/97 12:40 Page:124
  21894  3 001051   200030 235100                    LDA     I,,AUTO
         3 001052   000001 035007                    ADLA    1,DL
         3 001053   200030 755100                    STA     I,,AUTO
         3 001054   200004 236100                    LDQ     COUNT,,AUTO
         3 001055   200030 116100                    CMPQ    I,,AUTO
         3 001056   000606 603000 3                  TRC     s:21850

      766    21895    1         RETURN;

  21895  3 001057   000000 702200 xent               TSX2  ! X66_ARET

      767    21896
      768    21897        %EJECT;
PL6.E3A0      #001=DAD$CGS File=DAD$CGS.:E05TSI                                  TUE 07/29/97 12:40 Page:125
      769    21898        /*F* NAME:        DAD$DFRBLK
      770    21899             PURPOSE:     This routine does the DFRBLK command.
      771    21900             DESCRIPTION: This routine sets up the current CG, or just
      772    21901                          displays relevant data for the current CG. */
      773    21902        /*D: NAME:        DAD$DFRBLK
      774    21903             ENTRY:       DAD$DFRBLK
      775    21904             CALL:        CALL DAD$DFRBLK (TOP);
      776    21905             INPUT:       TOP - Parse output block for DFRBLK command.
      777    21906             SCRATCH:     Mapping context.
      778    21907             DESCRIPTION: This routine displays the defer blocks for the
      779    21908                          current comgroup. */
      780    21909
      781    21910    1   DAD$DFRBLK: ENTRY (TOP);

  21910  3 001060   000000 700200 xent  DAD$DFRBLK   TSX0  ! X66_AUTO_1
         3 001061   000430 000001                    ZERO    280,1

      782    21911
      783    21912    1         CALL SETUP ALTRET (RETN);

  21912  3 001062   010371 701000 3                  TSX1    SETUP
         3 001063   000065 702000 3                  TSX2    RETN

      784    21913    1         CALL DAF$INIT (DFRBLKRPT);

  21913  3 001064   000051 630400 4                  EPPR0   41
         3 001065   000017 631400 xsym               EPPR1   B_VECTNIL+15
         3 001066   000000 701000 xent               TSX1    DAF$INIT
         3 001067   000000 011000                    NOP     0

      785    21914
      786    21915    1         DFRFMT_ = VECTOR(NEEDPGHDFMT);

  21915  3 001070   000052 237000 4                  LDAQ    42
         3 001071   200026 757100                    STAQ    DFRFMT_,,AUTO

      787    21916    1         DFR$ = KQ$CG.NEEDPGHD$;
PL6.E3A0      #001=DAD$CGS File=DAD$CGS.:E05TSI                                  TUE 07/29/97 12:40 Page:126

  21916  3 001072   200006 470500                    LDP0    M@CG$,,AUTO
         3 001073   000250 236100                    LDQ     168,,PR0
         3 001074   200007 756100                    STQ     DFR$,,AUTO

      788    21917    1         CALL DIDFR;

  21917  3 001075   005415 701000 3                  TSX1    DIDFR
         3 001076   000000 011000                    NOP     0

      789    21918
      790    21919    1         CALL SETUPCUR;

  21919  3 001077   010472 701000 3                  TSX1    SETUPCUR
         3 001100   000000 011000                    NOP     0

      791    21920    1         DFRFMT_ = VECTOR(IOQHDFMT);

  21920  3 001101   000054 237000 4                  LDAQ    44
         3 001102   200026 757100                    STAQ    DFRFMT_,,AUTO

      792    21921    1         DFR$ = KQ$CG.IOQHD$;

  21921  3 001103   200006 470500                    LDP0    M@CG$,,AUTO
         3 001104   000261 236100                    LDQ     177,,PR0
         3 001105   200007 756100                    STQ     DFR$,,AUTO

      793    21922    1         CALL DIDFR;

  21922  3 001106   005415 701000 3                  TSX1    DIDFR
         3 001107   000000 011000                    NOP     0

      794    21923
      795    21924    1         CALL SETUPCUR;

  21924  3 001110   010472 701000 3                  TSX1    SETUPCUR
         3 001111   000000 011000                    NOP     0
PL6.E3A0      #001=DAD$CGS File=DAD$CGS.:E05TSI                                  TUE 07/29/97 12:40 Page:127

      796    21925    1         DFRFMT_ = VECTOR(IOHDFMT);

  21925  3 001112   000056 237000 4                  LDAQ    46
         3 001113   200026 757100                    STAQ    DFRFMT_,,AUTO

      797    21926    1         DFR$ = KQ$CG.IOHD$;

  21926  3 001114   200006 470500                    LDP0    M@CG$,,AUTO
         3 001115   000246 236100                    LDQ     166,,PR0
         3 001116   200007 756100                    STQ     DFR$,,AUTO

      798    21927    1         CALL DIDFR;

  21927  3 001117   005415 701000 3                  TSX1    DIDFR
         3 001120   000000 011000                    NOP     0

      799    21928
      800    21929    1         CALL SETUPCUR;

  21929  3 001121   010472 701000 3                  TSX1    SETUPCUR
         3 001122   000000 011000                    NOP     0

      801    21930    1         DFRFMT_ = VECTOR(GETHDFMT);

  21930  3 001123   000060 237000 4                  LDAQ    48
         3 001124   200026 757100                    STAQ    DFRFMT_,,AUTO

      802    21931    1         DFR$ = KQ$CG.GETHD$;

  21931  3 001125   200006 470500                    LDP0    M@CG$,,AUTO
         3 001126   000257 236100                    LDQ     175,,PR0
         3 001127   200007 756100                    STQ     DFR$,,AUTO

      803    21932    1         CALL DIDFR;

  21932  3 001130   005415 701000 3                  TSX1    DIDFR
PL6.E3A0      #001=DAD$CGS File=DAD$CGS.:E05TSI                                  TUE 07/29/97 12:40 Page:128
         3 001131   000000 011000                    NOP     0

      804    21933
      805    21934    1         CALL SETUPCUR;

  21934  3 001132   010472 701000 3                  TSX1    SETUPCUR
         3 001133   000000 011000                    NOP     0

      806    21935    1         DFRFMT_ = VECTOR(DFRFREEFMT);

  21935  3 001134   000062 237000 4                  LDAQ    50
         3 001135   200026 757100                    STAQ    DFRFMT_,,AUTO

      807    21936    1         DFR$ = KQ$CG.DFRFREEHD$;

  21936  3 001136   200006 470500                    LDP0    M@CG$,,AUTO
         3 001137   000230 236100                    LDQ     152,,PR0
         3 001140   200007 756100                    STQ     DFR$,,AUTO

      808    21937    1         CALL DIDFR;

  21937  3 001141   005415 701000 3                  TSX1    DIDFR
         3 001142   000000 011000                    NOP     0

      809    21938
      810    21939    1         RETURN;

  21939  3 001143   000000 702200 xent               TSX2  ! X66_ARET

      811    21940
      812    21941        %EJECT;
PL6.E3A0      #001=DAD$CGS File=DAD$CGS.:E05TSI                                  TUE 07/29/97 12:40 Page:129
      813    21942        /*F* NAME:        DAD$DTREE
      814    21943             PURPOSE:     This routine does the DTREE command.
      815    21944             DESCRIPTION: This routine sets up the current comgroup, or just
      816    21945                          displays relevant data for the current comgroup. */
      817    21946        /*D* NAME:        DAD$DTREE
      818    21947             ENTRY:       DAD$DTREE
      819    21948             CALL:        CALL DAD$DTREE (TOP);
      820    21949             INPUT:       TOP - Parse output block for DTREE command.
      821    21950             SCRATCH:     Mapping context.
      822    21951             DESCRIPTION:  */
      823    21952
      824    21953    1   DAD$DTREE: ENTRY (TOP);

  21953  3 001144   000000 700200 xent  DAD$DTREE    TSX0  ! X66_AUTO_1
         3 001145   000430 000001                    ZERO    280,1

      825    21954
      826    21955    1         CALL SETUP ALTRET (RETN);

  21955  3 001146   010371 701000 3                  TSX1    SETUP
         3 001147   000065 702000 3                  TSX2    RETN

      827    21956    1         CALL DAF$INIT (DTREERPT);

  21956  3 001150   000064 630400 4                  EPPR0   52
         3 001151   000017 631400 xsym               EPPR1   B_VECTNIL+15
         3 001152   000000 701000 xent               TSX1    DAF$INIT
         3 001153   000000 011000                    NOP     0

      828    21957    1         CALL DAB$GATE (KQ$CG.DTREE.GATE);

  21957  3 001154   200006 236100                    LDQ     M@CG$,,AUTO
         3 001155   000231 036003                    ADLQ    153,DU
         3 001156   200302 756100                    STQ     @B+1,,AUTO
         3 001157   200302 630500                    EPPR0   @B+1,,AUTO
         3 001160   000017 631400 xsym               EPPR1   B_VECTNIL+15
         3 001161   000000 701000 xent               TSX1    DAB$GATE
PL6.E3A0      #001=DAD$CGS File=DAD$CGS.:E05TSI                                  TUE 07/29/97 12:40 Page:130
         3 001162   000000 011000                    NOP     0

      829    21958    1         CALL DAF$WRITE (VECTOR (DTGFMT), VECTOR (DA_GATETXT));

  21958  3 001163   000072 630400 4                  EPPR0   58
         3 001164   000000 220000 xsym               LDX0    DAF$WRITE
         3 001165   000020 631400 xsym               EPPR1   B_VECTNIL+16
         3 001166   000000 701010                    TSX1    0,X0
         3 001167   000000 011000                    NOP     0

      830    21959    1         CUR$ = KQ$CG.DTREE.HEAD$;

  21959  3 001170   200006 470500                    LDP0    M@CG$,,AUTO
         3 001171   000235 236100                    LDQ     157,,PR0
         3 001172   200031 756100                    STQ     CUR$,,AUTO

      831    21960    1         IF CUR$ = ADDR (NIL) THEN

  21960  3 001173   000001 116000 xsym               CMPQ    B_VECTNIL+1
         3 001174   001203 601000 3                  TNZ     LDTREE

      832    21961    2           DO;

      833    21962    2           CALL DAF$WRITE (VECTOR (NOTHINGFMT));

  21962  3 001175   000036 630400 4                  EPPR0   30
         3 001176   000000 220000 xsym               LDX0    DAF$WRITE
         3 001177   000017 631400 xsym               EPPR1   B_VECTNIL+15
         3 001200   000000 701010                    TSX1    0,X0
         3 001201   000000 011000                    NOP     0

      834    21963    2           RETURN;

  21963  3 001202   000000 702200 xent               TSX2  ! X66_ARET

      835    21964    2           END;
      836    21965    1   LDTREE:
PL6.E3A0      #001=DAD$CGS File=DAD$CGS.:E05TSI                                  TUE 07/29/97 12:40 Page:131
      837    21966    2           DO I = 0 TO 2;

  21966  3 001203   200030 450100       LDTREE       STZ     I,,AUTO

      838    21967    2           CALL VALPTR (CUR$,AS0$,DTD.D (I),DTD.W (I)) ALTRET (DTOERR1);

  21967  3 001204   000001 236000 xsym               LDQ     B_VECTNIL+1
         3 001205   000001 235000 xsym               LDA     B_VECTNIL+1
         3 001206   200300 757100                    STAQ    @N+1,,AUTO
         3 001207   000001 236000 xsym               LDQ     B_VECTNIL+1
         3 001210   200277 756100                    STQ     @W+1,,AUTO
         3 001211   200030 236100                    LDQ     I,,AUTO
         3 001212   000003 402007                    MPY     3,DL
         3 001213   200130 630506                    EPPR0   DTD,QL,AUTO
         3 001214   200276 450500                    STP0    @D+1,,AUTO
         3 001215   200131 631506                    EPPR1   DTD+1,QL,AUTO
         3 001216   200275 451500                    STP1    @VPTR$+1,,AUTO
         3 001217   000040 236000 4                  LDQ     32
         3 001220   200274 756100                    STQ     @PTR$+1,,AUTO
         3 001221   200031 633500                    EPPR3   CUR$,,AUTO
         3 001222   200273 453500                    STP3    CFU$+2,,AUTO
         3 001223   011056 701000 3                  TSX1    VALPTR
         3 001224   001271 702000 3                  TSX2    DTOERR1

      839    21968    2           DTD.W (I) = DTD.W (I) - SIZEW (KQ$GRAN);

  21968  3 001225   200030 236100                    LDQ     I,,AUTO
         3 001226   000003 402007                    MPY     3,DL
         3 001227   200130 235106                    LDA     DTD,QL,AUTO
         3 001230   000004 135007                    SBLA    4,DL
         3 001231   200130 755106                    STA     DTD,QL,AUTO

      840    21969    2           CALL DAM$MAP (CUR$,M@CUR$) ALTRET (DTOERR0);

  21969  3 001232   200032 630500                    EPPR0   M@CUR$,,AUTO
         3 001233   200303 450500                    STP0    @B+2,,AUTO
         3 001234   200031 631500                    EPPR1   CUR$,,AUTO
PL6.E3A0      #001=DAD$CGS File=DAD$CGS.:E05TSI                                  TUE 07/29/97 12:40 Page:132
         3 001235   200302 451500                    STP1    @B+1,,AUTO
         3 001236   200302 630500                    EPPR0   @B+1,,AUTO
         3 001237   000020 631400 xsym               EPPR1   B_VECTNIL+16
         3 001240   000000 701000 xent               TSX1    DAM$MAP
         3 001241   001266 702000 3                  TSX2    DTOERR0

      841    21970    2           DTD.K (I) = ADDR (M@CUR$->KQ$BTN.KEY)->BIT$WORD & '000777777777'O;

  21970  3 001242   200030 236100                    LDQ     I,,AUTO
         3 001243   000003 402007                    MPY     3,DL
         3 001244   200032 470500                    LDP0    M@CUR$,,AUTO
         3 001245   000000 620006                    EAX0    0,QL
         3 001246   000005 236100                    LDQ     5,,PR0
         3 001247   000032 376000 xsym               ANQ     B_VECTNIL+26
         3 001250   200132 756110                    STQ     DTD+2,X0,AUTO

      842    21971    2           CUR$ = M@CUR$->KQ$BTN.FLINK$;

  21971  3 001251   200032 470500                    LDP0    M@CUR$,,AUTO
         3 001252   000004 236100                    LDQ     4,,PR0
         3 001253   200031 756100                    STQ     CUR$,,AUTO

      843    21972    2           IF CUR$ = ADDR (NIL) THEN

  21972  3 001254   000001 116000 xsym               CMPQ    B_VECTNIL+1
         3 001255   001300 600000 3                  TZE     DTO

      844    21973    2             GOTO DTO;
      845    21974    2           END;

  21974  3 001256   200030 235100                    LDA     I,,AUTO
         3 001257   000001 035007                    ADLA    1,DL
         3 001260   200030 755100                    STA     I,,AUTO
         3 001261   000003 115007                    CMPA    3,DL
         3 001262   001204 602000 3                  TNC     s:21967

      846    21975    1         I = 3;
PL6.E3A0      #001=DAD$CGS File=DAD$CGS.:E05TSI                                  TUE 07/29/97 12:40 Page:133

  21975  3 001263   000003 235007                    LDA     3,DL
         3 001264   200030 755100                    STA     I,,AUTO

      847    21976    2           DO WHILE ('0'B);

  21976  3 001265   001303 710000 3                  TRA     s:21985

      848    21977    2   DTOERR0:
      849    21978    2           CALL DAA$ERRMSG;

  21978  3 001266   000002 631400 xsym  DTOERR0      EPPR1   B_VECTNIL+2
         3 001267   000000 701000 xent               TSX1    DAA$ERRMSG
         3 001270   000000 011000                    NOP     0

      850    21979    2   DTOERR1:
      851    21980    2           DTD.K (I) = '000777777777'O;

  21980  3 001271   200030 236100       DTOERR1      LDQ     I,,AUTO
         3 001272   000003 402007                    MPY     3,DL
         3 001273   000000 620006                    EAX0    0,QL
         3 001274   000032 236000 xsym               LDQ     B_VECTNIL+26
         3 001275   200132 756110                    STQ     DTD+2,X0,AUTO

      852    21981    2           CUR$ = ADDR (NIL);

  21981  3 001276   000001 236000 xsym               LDQ     B_VECTNIL+1
         3 001277   200031 756100                    STQ     CUR$,,AUTO

      853    21982    2   DTO:
      854    21983    2           I = I + 1;

  21983  3 001300   200030 235100       DTO          LDA     I,,AUTO
         3 001301   000001 035007                    ADLA    1,DL
         3 001302   200030 755100                    STA     I,,AUTO

      855    21984    2           END;
PL6.E3A0      #001=DAD$CGS File=DAD$CGS.:E05TSI                                  TUE 07/29/97 12:40 Page:134

      856    21985    1         CALL DAF$WRITE (VECTOR (DTREEFMT), VECTOR (I), VECTOR (DTD));

  21985  3 001303   777640 235007                    LDA     -96,DL
         3 001304   200302 452500                    STP2    @B+1,,AUTO
         3 001305   200302 236100                    LDQ     @B+1,,AUTO
         3 001306   000030 036003                    ADLQ    24,DU
         3 001307   200304 757100                    STAQ    @B+3,,AUTO
         3 001310   000076 235000 4                  LDA     62
         3 001311   200306 452500                    STP2    @B+5,,AUTO
         3 001312   200306 236100                    LDQ     @B+5,,AUTO
         3 001313   000130 036003                    ADLQ    88,DU
         3 001314   200312 757100                    STAQ    @B+9,,AUTO
         3 001315   200304 237100                    LDAQ    @B+3,,AUTO
         3 001316   200310 757100                    STAQ    @B+7,,AUTO
         3 001317   200312 237100                    LDAQ    @B+9,,AUTO
         3 001320   200314 757100                    STAQ    @B+11,,AUTO
         3 001321   200314 630500                    EPPR0   @B+11,,AUTO
         3 001322   200320 450500                    STP0    @B+15,,AUTO
         3 001323   200310 631500                    EPPR1   @B+7,,AUTO
         3 001324   200317 451500                    STP1    @B+14,,AUTO
         3 001325   000077 236000 4                  LDQ     63
         3 001326   200316 756100                    STQ     @B+13,,AUTO
         3 001327   200316 630500                    EPPR0   @B+13,,AUTO
         3 001330   000000 220000 xsym               LDX0    DAF$WRITE
         3 001331   000021 631400 xsym               EPPR1   B_VECTNIL+17
         3 001332   000000 701010                    TSX1    0,X0
         3 001333   000000 011000                    NOP     0

      857    21986    1         IF CUR$ ~= ADDR (NIL) THEN

  21986  3 001334   200031 236100                    LDQ     CUR$,,AUTO
         3 001335   000001 116000 xsym               CMPQ    B_VECTNIL+1
         3 001336   001203 601000 3                  TNZ     LDTREE

      858    21987    1           GOTO LDTREE;
      859    21988
PL6.E3A0      #001=DAD$CGS File=DAD$CGS.:E05TSI                                  TUE 07/29/97 12:40 Page:135
      860    21989    1         RETURN;

  21989  3 001337   000000 702200 xent               TSX2  ! X66_ARET

      861    21990
      862    21991        %EJECT;
PL6.E3A0      #001=DAD$CGS File=DAD$CGS.:E05TSI                                  TUE 07/29/97 12:40 Page:136
      863    21992        /*F* NAME:        DAD$CGSTATS
      864    21993             PURPOSE:     This routine does the CGSTATS command.
      865    21994             DESCRIPTION: This routine sets up the current comgroup, or just
      866    21995                          displays relevant data for the current comgroup. */
      867    21996        /*D* NAME:        DAD$CGSTATS
      868    21997             ENTRY:       DAD$CGSTATS
      869    21998             CALL:        CALL DAD$CGSTATS(TOP);
      870    21999             INPUT:       TOP - Parse output block for CGSTATS command.
      871    22000             SCRATCH:     Mapping context.
      872    22001             DESCRIPTION:  */
      873    22002
      874    22003    1   DAD$CGSTATS: ENTRY (TOP);

  22003  3 001340   000000 700200 xent  DAD$CGSTATS  TSX0  ! X66_AUTO_1
         3 001341   000430 000001                    ZERO    280,1

      875    22004
      876    22005
      877    22006    1         CALL SETUP ALTRET (RETN);

  22006  3 001342   010371 701000 3                  TSX1    SETUP
         3 001343   000065 702000 3                  TSX2    RETN

      878    22007    1         CALL DAF$INIT (CGSTATSRPT);

  22007  3 001344   000100 630400 4                  EPPR0   64
         3 001345   000017 631400 xsym               EPPR1   B_VECTNIL+15
         3 001346   000000 701000 xent               TSX1    DAF$INIT
         3 001347   000000 011000                    NOP     0

      879    22008    1         I = (KQ$CG.UGRANS+KQ$CG.NGAVAL)*1024 - KQ$CG.STATS.WRDSUSED;

  22008  3 001350   200006 470500                    LDP0    M@CG$,,AUTO
         3 001351   000220 236100                    LDQ     144,,PR0
         3 001352   000217 036100                    ADLQ    143,,PR0
         3 001353   000012 736000                    QLS     10
         3 001354   000027 676000 xsym               ERQ     B_VECTNIL+23
PL6.E3A0      #001=DAD$CGS File=DAD$CGS.:E05TSI                                  TUE 07/29/97 12:40 Page:137
         3 001355   000001 036007                    ADLQ    1,DL
         3 001356   000202 036100                    ADLQ    130,,PR0
         3 001357   000027 676000 xsym               ERQ     B_VECTNIL+23
         3 001360   000001 036007                    ADLQ    1,DL
         3 001361   200030 756100                    STQ     I,,AUTO

      880    22009    1         CALL DAF$WRITE(VECTOR (CGSTATSFMT),
      881    22010    1         VECTOR (KQ$CG.STATS.NUMDCBS),
      882    22011    1         VECTOR (KQ$CG.STATS.READS  ),
      883    22012    1         VECTOR (KQ$CG.STATS.WRITES ),
      884    22013    1         VECTOR (KQ$CG.STATS.NUMTERMS),
      885    22014    1         VECTOR (KQ$CG.STATS.GETS    ),
      886    22015    1         VECTOR (KQ$CG.STATS.PUTS    ),
      887    22016    1         VECTOR (KQ$CG.STATS.DISCRDS ),
      888    22017    1         VECTOR (KQ$CG.STATS.DISCWRS ),
      889    22018    1         VECTOR (KQ$CG.STATS.CCMQ    ),
      890    22019    1         VECTOR (KQ$CG.STATS.CCMS    ),
      891    22020    1         VECTOR (KQ$CG.STATS.NODFRS  ),

  22020  3 001362   777640 235007                    LDA     -96,DL
         3 001363   200006 236100                    LDQ     M@CG$,,AUTO
         3 001364   000173 036003                    ADLQ    123,DU
         3 001365   200302 757100                    STAQ    @B+1,,AUTO
         3 001366   777640 235007                    LDA     -96,DL
         3 001367   200006 236100                    LDQ     M@CG$,,AUTO
         3 001370   000165 036003                    ADLQ    117,DU
         3 001371   200304 757100                    STAQ    @B+3,,AUTO
         3 001372   777640 235007                    LDA     -96,DL
         3 001373   200006 236100                    LDQ     M@CG$,,AUTO
         3 001374   000166 036003                    ADLQ    118,DU
         3 001375   200306 757100                    STAQ    @B+5,,AUTO
         3 001376   777640 235007                    LDA     -96,DL
         3 001377   200006 236100                    LDQ     M@CG$,,AUTO
         3 001400   000174 036003                    ADLQ    124,DU
         3 001401   200310 757100                    STAQ    @B+7,,AUTO
         3 001402   777640 235007                    LDA     -96,DL
         3 001403   200006 236100                    LDQ     M@CG$,,AUTO
PL6.E3A0      #001=DAD$CGS File=DAD$CGS.:E05TSI                                  TUE 07/29/97 12:40 Page:138
         3 001404   000167 036003                    ADLQ    119,DU
         3 001405   200312 757100                    STAQ    @B+9,,AUTO
         3 001406   777640 235007                    LDA     -96,DL
         3 001407   200006 236100                    LDQ     M@CG$,,AUTO
         3 001410   000170 036003                    ADLQ    120,DU
         3 001411   200314 757100                    STAQ    @B+11,,AUTO
         3 001412   777640 235007                    LDA     -96,DL
         3 001413   200006 236100                    LDQ     M@CG$,,AUTO
         3 001414   000175 036003                    ADLQ    125,DU
         3 001415   200316 757100                    STAQ    @B+13,,AUTO
         3 001416   777640 235007                    LDA     -96,DL
         3 001417   200006 236100                    LDQ     M@CG$,,AUTO
         3 001420   000176 036003                    ADLQ    126,DU
         3 001421   200320 757100                    STAQ    @B+15,,AUTO
         3 001422   777640 235007                    LDA     -96,DL
         3 001423   200006 236100                    LDQ     M@CG$,,AUTO
         3 001424   000171 036003                    ADLQ    121,DU
         3 001425   200322 757100                    STAQ    @B+17,,AUTO
         3 001426   777640 235007                    LDA     -96,DL
         3 001427   200006 236100                    LDQ     M@CG$,,AUTO
         3 001430   000172 036003                    ADLQ    122,DU
         3 001431   200324 757100                    STAQ    @B+19,,AUTO
         3 001432   777640 235007                    LDA     -96,DL
         3 001433   200006 236100                    LDQ     M@CG$,,AUTO
         3 001434   000201 036003                    ADLQ    129,DU
         3 001435   200326 757100                    STAQ    @B+21,,AUTO
         3 001436   777640 235007                    LDA     -96,DL
         3 001437   200006 236100                    LDQ     M@CG$,,AUTO
         3 001440   000200 036003                    ADLQ    128,DU
         3 001441   200330 757100                    STAQ    @B+23,,AUTO
         3 001442   777640 235007                    LDA     -96,DL
         3 001443   200006 236100                    LDQ     M@CG$,,AUTO
         3 001444   000202 036003                    ADLQ    130,DU
         3 001445   200332 757100                    STAQ    @B+25,,AUTO
         3 001446   777640 235007                    LDA     -96,DL
         3 001447   200334 452500                    STP2    @B+27,,AUTO
         3 001450   200334 236100                    LDQ     @B+27,,AUTO
PL6.E3A0      #001=DAD$CGS File=DAD$CGS.:E05TSI                                  TUE 07/29/97 12:40 Page:139
         3 001451   000030 036003                    ADLQ    24,DU
         3 001452   200340 757100                    STAQ    @B+31,,AUTO
         3 001453   200302 237100                    LDAQ    @B+1,,AUTO
         3 001454   200336 757100                    STAQ    @B+29,,AUTO
         3 001455   200304 237100                    LDAQ    @B+3,,AUTO
         3 001456   200342 757100                    STAQ    @B+33,,AUTO
         3 001457   200306 237100                    LDAQ    @B+5,,AUTO
         3 001460   200344 757100                    STAQ    @B+35,,AUTO
         3 001461   200310 237100                    LDAQ    @B+7,,AUTO
         3 001462   200346 757100                    STAQ    @B+37,,AUTO
         3 001463   200312 237100                    LDAQ    @B+9,,AUTO
         3 001464   200350 757100                    STAQ    @B+39,,AUTO
         3 001465   200314 237100                    LDAQ    @B+11,,AUTO
         3 001466   200352 757100                    STAQ    @B+41,,AUTO
         3 001467   200316 237100                    LDAQ    @B+13,,AUTO
         3 001470   200354 757100                    STAQ    @B+43,,AUTO
         3 001471   200320 237100                    LDAQ    @B+15,,AUTO
         3 001472   200356 757100                    STAQ    @B+45,,AUTO
         3 001473   200322 237100                    LDAQ    @B+17,,AUTO
         3 001474   200360 757100                    STAQ    @B+47,,AUTO
         3 001475   200324 237100                    LDAQ    @B+19,,AUTO
         3 001476   200362 757100                    STAQ    @B+49,,AUTO
         3 001477   200326 237100                    LDAQ    @B+21,,AUTO
         3 001500   200364 757100                    STAQ    @B+51,,AUTO
         3 001501   200330 237100                    LDAQ    @B+23,,AUTO
         3 001502   200366 757100                    STAQ    @B+53,,AUTO
         3 001503   200332 237100                    LDAQ    @B+25,,AUTO
         3 001504   200370 757100                    STAQ    @B+55,,AUTO
         3 001505   200340 237100                    LDAQ    @B+31,,AUTO
         3 001506   200372 757100                    STAQ    @B+57,,AUTO
         3 001507   200372 631500                    EPPR1   @B+57,,AUTO
         3 001510   200412 451500                    STP1    @B+73,,AUTO
         3 001511   200370 633500                    EPPR3   @B+55,,AUTO
         3 001512   200411 453500                    STP3    @B+72,,AUTO
         3 001513   200366 634500                    EPPR4   @B+53,,AUTO
         3 001514   200410 454500                    STP4    @B+71,,AUTO
         3 001515   200364 635500                    EPPR5   @B+51,,AUTO
PL6.E3A0      #001=DAD$CGS File=DAD$CGS.:E05TSI                                  TUE 07/29/97 12:40 Page:140
         3 001516   200407 455500                    STP5    @B+70,,AUTO
         3 001517   200362 636500                    EPPR6   @B+49,,AUTO
         3 001520   200406 456500                    STP6    @B+69,,AUTO
         3 001521   200360 637500                    EPPR7   @B+47,,AUTO
         3 001522   200405 457500                    STP7    @B+68,,AUTO
         3 001523   200356 630500                    EPPR0   @B+45,,AUTO
         3 001524   200404 450500                    STP0    @B+67,,AUTO
         3 001525   200354 630500                    EPPR0   @B+43,,AUTO
         3 001526   200403 450500                    STP0    @B+66,,AUTO
         3 001527   200352 630500                    EPPR0   @B+41,,AUTO
         3 001530   200402 450500                    STP0    @B+65,,AUTO
         3 001531   200350 630500                    EPPR0   @B+39,,AUTO
         3 001532   200401 450500                    STP0    @B+64,,AUTO
         3 001533   200346 630500                    EPPR0   @B+37,,AUTO
         3 001534   200400 450500                    STP0    @B+63,,AUTO
         3 001535   200344 630500                    EPPR0   @B+35,,AUTO
         3 001536   200377 450500                    STP0    @B+62,,AUTO
         3 001537   200342 630500                    EPPR0   @B+33,,AUTO
         3 001540   200376 450500                    STP0    @B+61,,AUTO
         3 001541   200336 630500                    EPPR0   @B+29,,AUTO
         3 001542   200375 450500                    STP0    @B+60,,AUTO
         3 001543   000105 236000 4                  LDQ     69
         3 001544   200374 756100                    STQ     @B+59,,AUTO
         3 001545   200374 630500                    EPPR0   @B+59,,AUTO
         3 001546   000000 220000 xsym               LDX0    DAF$WRITE
         3 001547   000104 631400 4                  EPPR1   68
         3 001550   000000 701010                    TSX1    0,X0
         3 001551   000000 011000                    NOP     0

      892    22021    1         VECTOR (KQ$CG.STATS.GARBCOLLS),
      893    22022    1         VECTOR (KQ$CG.STATS.WRDSUSED ),
      894    22023    1         VECTOR ( I )) ;
      895    22024
      896    22025    1         RETURN ;

  22025  3 001552   000000 702200 xent               TSX2  ! X66_ARET

PL6.E3A0      #001=DAD$CGS File=DAD$CGS.:E05TSI                                  TUE 07/29/97 12:40 Page:141
      897    22026        /*F* NAME:        DAD$STREE
      898    22027             PURPOSE:     This routine does the STREE command.
      899    22028             DESCRIPTION: This routine sets up the current comgroup, or just
      900    22029                          displays relevant data for the current comgroup. */
      901    22030        /*D* NAME:        DAD$STREE
      902    22031             ENTRY:       DAD$STREE
      903    22032             CALL:        CALL DAD$STREE (TOP);
      904    22033             INPUT:       TOP - Parse output block for STREE command.
      905    22034             SCRATCH:     Mapping context.
      906    22035             DESCRIPTION:  */
      907    22036
      908    22037    1   DAD$STREE: ENTRY (TOP);

  22037  3 001553   000000 700200 xent  DAD$STREE    TSX0  ! X66_AUTO_1
         3 001554   000430 000001                    ZERO    280,1

      909    22038
      910    22039    1         CALL SETUP ALTRET (RETN);

  22039  3 001555   010371 701000 3                  TSX1    SETUP
         3 001556   000065 702000 3                  TSX2    RETN

      911    22040    1         CALL DAF$INIT (STREERPT);

  22040  3 001557   000106 630400 4                  EPPR0   70
         3 001560   000017 631400 xsym               EPPR1   B_VECTNIL+15
         3 001561   000000 701000 xent               TSX1    DAF$INIT
         3 001562   000000 011000                    NOP     0

      912    22041    1         CALL DAB$GATE (KQ$CG.STREE.GATE);

  22041  3 001563   200006 236100                    LDQ     M@CG$,,AUTO
         3 001564   000075 036003                    ADLQ    61,DU
         3 001565   200302 756100                    STQ     @B+1,,AUTO
         3 001566   200302 630500                    EPPR0   @B+1,,AUTO
         3 001567   000017 631400 xsym               EPPR1   B_VECTNIL+15
         3 001570   000000 701000 xent               TSX1    DAB$GATE
PL6.E3A0      #001=DAD$CGS File=DAD$CGS.:E05TSI                                  TUE 07/29/97 12:40 Page:142
         3 001571   000000 011000                    NOP     0

      913    22042    1         CALL DAF$WRITE (VECTOR (STGFMT), VECTOR (DA_GATETXT));

  22042  3 001572   000112 630400 4                  EPPR0   74
         3 001573   000000 220000 xsym               LDX0    DAF$WRITE
         3 001574   000020 631400 xsym               EPPR1   B_VECTNIL+16
         3 001575   000000 701010                    TSX1    0,X0
         3 001576   000000 011000                    NOP     0

      914    22043    1         IF KQ$CG.STREE.HEAD$ = ADDR (NIL) THEN

  22043  3 001577   200006 470500                    LDP0    M@CG$,,AUTO
         3 001600   000101 236100                    LDQ     65,,PR0
         3 001601   000001 116000 xsym               CMPQ    B_VECTNIL+1
         3 001602   001611 601000 3                  TNZ     s:22048

      915    22044    2           DO;

      916    22045    2           CALL DAF$WRITE (VECTOR (NOTHINGFMT));

  22045  3 001603   000036 630400 4                  EPPR0   30
         3 001604   000000 220000 xsym               LDX0    DAF$WRITE
         3 001605   000017 631400 xsym               EPPR1   B_VECTNIL+15
         3 001606   000000 701010                    TSX1    0,X0
         3 001607   000000 011000                    NOP     0

      917    22046    2           RETURN;

  22046  3 001610   000000 702200 xent               TSX2  ! X66_ARET

      918    22047    2           END;
      919    22048    2           DO I = 1 TO 2;

  22048  3 001611   000001 235007                    LDA     1,DL
         3 001612   200030 755100                    STA     I,,AUTO

PL6.E3A0      #001=DAD$CGS File=DAD$CGS.:E05TSI                                  TUE 07/29/97 12:40 Page:143
      920    22049    2           CUR$ = KQ$CG.STREE.HEAD$;

  22049  3 001613   200006 470500                    LDP0    M@CG$,,AUTO
         3 001614   000101 236100                    LDQ     65,,PR0
         3 001615   200031 756100                    STQ     CUR$,,AUTO

      921    22050    3             DO WHILE (CUR$ ~= ADDR (NIL));

  22050  3 001616   002104 710000 3                  TRA     s:22100

      922    22051    3             STD = '0'B;

  22051  3 001617   000100 100400                    MLR     fill='000'O
         3 001620   000002 000001 xsym               ADSC9   B_VECTNIL+2              cn=0,n=1
         3 001621   200157 000060                    ADSC9   STD,,AUTO                cn=0,n=48

      923    22052    3             R = '0'B;

  22052  3 001622   000100 100400                    MLR     fill='000'O
         3 001623   000002 000001 xsym               ADSC9   B_VECTNIL+2              cn=0,n=1
         3 001624   200205 000014                    ADSC9   R,,AUTO                  cn=0,n=12

      924    22053    3             CALL VALPTR (CUR$,AS0$,STD.X.D,STD.X.W) ALTRET (STDERR3);

  22053  3 001625   000001 236000 xsym               LDQ     B_VECTNIL+1
         3 001626   000001 235000 xsym               LDA     B_VECTNIL+1
         3 001627   200300 757100                    STAQ    @N+1,,AUTO
         3 001630   000001 236000 xsym               LDQ     B_VECTNIL+1
         3 001631   200277 756100                    STQ     @W+1,,AUTO
         3 001632   200157 630500                    EPPR0   STD,,AUTO
         3 001633   200276 450500                    STP0    @D+1,,AUTO
         3 001634   200160 631500                    EPPR1   STD+1,,AUTO
         3 001635   200275 451500                    STP1    @VPTR$+1,,AUTO
         3 001636   000040 236000 4                  LDQ     32
         3 001637   200274 756100                    STQ     @PTR$+1,,AUTO
         3 001640   200031 633500                    EPPR3   CUR$,,AUTO
         3 001641   200273 453500                    STP3    CFU$+2,,AUTO
PL6.E3A0      #001=DAD$CGS File=DAD$CGS.:E05TSI                                  TUE 07/29/97 12:40 Page:144
         3 001642   011056 701000 3                  TSX1    VALPTR
         3 001643   002025 702000 3                  TSX2    STDERR3

      925    22054    3             CALL DAM$MAP (CUR$,M@CUR$) ALTRET (STDERR0);

  22054  3 001644   200032 630500                    EPPR0   M@CUR$,,AUTO
         3 001645   200303 450500                    STP0    @B+2,,AUTO
         3 001646   200031 631500                    EPPR1   CUR$,,AUTO
         3 001647   200302 451500                    STP1    @B+1,,AUTO
         3 001650   200302 630500                    EPPR0   @B+1,,AUTO
         3 001651   000020 631400 xsym               EPPR1   B_VECTNIL+16
         3 001652   000000 701000 xent               TSX1    DAM$MAP
         3 001653   002007 702000 3                  TSX2    STDERR0

      926    22055    3             CALL XLATE(STD.X.N,DA_PRINTABLE_TBL,M@CUR$->KQ$STA.BTN.KEY);

  22055  3 001654   200032 470500                    LDP0    M@CUR$,,AUTO
         3 001655   000000 471400 xsym               LDP1    B$XL_ASC_DUMP$
         3 001656   040100 160500                    MVT     fill='040'O
         3 001657   000005 000010                    ADSC9   5,,PR0                   cn=0,n=8
         3 001660   200161 000010                    ADSC9   STD+2,,AUTO              cn=0,n=8
         3 001661   100000 000100                    ARG     0,,PR1

      927    22056    3             CUR$ = M@CUR$->KQ$STA.BTN.FLINK$;

  22056  3 001662   000004 236100                    LDQ     4,,PR0
         3 001663   200031 756100                    STQ     CUR$,,AUTO

      928    22057    3             TEMP$ = M@CUR$->KQ$STA.RBLK$;

  22057  3 001664   000011 236100                    LDQ     9,,PR0
         3 001665   200024 756100                    STQ     TEMP$,,AUTO

      929    22058    3             IF I = 1 THEN

  22058  3 001666   200030 235100                    LDA     I,,AUTO
         3 001667   000001 115007                    CMPA    1,DL
PL6.E3A0      #001=DAD$CGS File=DAD$CGS.:E05TSI                                  TUE 07/29/97 12:40 Page:145
         3 001670   001756 601000 3                  TNZ     s:22075

      930    22059    4               DO;

      931    22060    4               STD.L = M@CUR$->KQ$STA.LOCKCNT;

  22060  3 001671   000020 236100                    LDQ     16,,PR0
         3 001672   000777 376007                    ANQ     511,DL
         3 001673   200164 756100                    STQ     STD+5,,AUTO

      932    22061    4               IF M@CUR$->KQ$STA.IDSC THEN

  22061  3 001674   000020 234100                    SZN     16,,PR0
         3 001675   001700 605000 3                  TPL     s:22063

      933    22062    4                 STD.I = 1;

  22062  3 001676   000001 235007                    LDA     1,DL
         3 001677   200165 755100                    STA     STD+6,,AUTO

      934    22063    4               IF M@CUR$->KQ$STA.TERM THEN

  22063  3 001700   000020 236100                    LDQ     16,,PR0
         3 001701   040000 316003                    CANQ    16384,DU
         3 001702   001705 600000 3                  TZE     s:22065

      935    22064    4                 STD.T = 1;

  22064  3 001703   000001 235007                    LDA     1,DL
         3 001704   200166 755100                    STA     STD+7,,AUTO

      936    22065    4               STD.U = M@CUR$->KQ$STA.USR#;

  22065  3 001705   000020 236100                    LDQ     16,,PR0
         3 001706   000011 772000                    QRL     9
         3 001707   000777 376007                    ANQ     511,DL
         3 001710   200167 756100                    STQ     STD+8,,AUTO
PL6.E3A0      #001=DAD$CGS File=DAD$CGS.:E05TSI                                  TUE 07/29/97 12:40 Page:146

      937    22066    4               STD.C = M@CUR$->KQ$STA.MLH.COUNT;

  22066  3 001711   000041 235100                    LDA     33,,PR0
         3 001712   200170 755100                    STA     STD+9,,AUTO

      938    22067    4               STD.R = M@CUR$->KQ$STA.READS;

  22067  3 001713   000026 235100                    LDA     22,,PR0
         3 001714   200171 755100                    STA     STD+10,,AUTO

      939    22068    4               STD.E = M@CUR$->KQ$STA.WRITES;

  22068  3 001715   000027 235100                    LDA     23,,PR0
         3 001716   200172 755100                    STA     STD+11,,AUTO

      940    22069    4               CALL VALPTR (TEMP$,AS0$) ALTRET (STDERR2);

  22069  3 001717   000001 236000 xsym               LDQ     B_VECTNIL+1
         3 001720   000001 235000 xsym               LDA     B_VECTNIL+1
         3 001721   200300 757100                    STAQ    @N+1,,AUTO
         3 001722   000001 236000 xsym               LDQ     B_VECTNIL+1
         3 001723   000001 235000 xsym               LDA     B_VECTNIL+1
         3 001724   200276 757100                    STAQ    @D+1,,AUTO
         3 001725   000001 236000 xsym               LDQ     B_VECTNIL+1
         3 001726   000040 235000 4                  LDA     32
         3 001727   200274 757100                    STAQ    @PTR$+1,,AUTO
         3 001730   200024 633500                    EPPR3   TEMP$,,AUTO
         3 001731   200273 453500                    STP3    CFU$+2,,AUTO
         3 001732   011056 701000 3                  TSX1    VALPTR
         3 001733   002022 702000 3                  TSX2    STDERR2

      941    22070    4               CALL DAM$MAP (TEMP$,M@TEMP$) ALTRET (STDERR1);

  22070  3 001734   200025 630500                    EPPR0   M@TEMP$,,AUTO
         3 001735   200303 450500                    STP0    @B+2,,AUTO
         3 001736   200024 631500                    EPPR1   TEMP$,,AUTO
PL6.E3A0      #001=DAD$CGS File=DAD$CGS.:E05TSI                                  TUE 07/29/97 12:40 Page:147
         3 001737   200302 451500                    STP1    @B+1,,AUTO
         3 001740   200302 630500                    EPPR0   @B+1,,AUTO
         3 001741   000020 631400 xsym               EPPR1   B_VECTNIL+16
         3 001742   000000 701000 xent               TSX1    DAM$MAP
         3 001743   002014 702000 3                  TSX2    STDERR1

      942    22071    4               STD.S = KQRS_XXXX (MINIMUM (M@TEMP$->KQ$RBLK.STATE,10));

  22071  3 001744   200025 470500                    LDP0    M@TEMP$,,AUTO
         3 001745   000001 236100                    LDQ     1,,PR0
         3 001746   000022 772000                    QRL     18
         3 001747   000012 116007                    CMPQ    10,DL
         3 001750   001753 602000 3                  TNC     s:22071+7
         3 001751   001753 600000 3                  TZE     s:22071+7
         3 001752   000012 236007                    LDQ     10,DL
         3 001753   001373 236006 2                  LDQ     KQRS_XXXX,QL
         3 001754   200163 756100                    STQ     STD+4,,AUTO

      943    22072    4               END;

  22072  3 001755   002006 710000 3                  TRA     s:22079

      944    22073    3             ELSE
      945    22074    4               DO;

      946    22075    4               CALL VALPTR (TEMP$,AS0$,R.D,R.W,R.N);

  22075  3 001756   000001 236000 xsym               LDQ     B_VECTNIL+1
         3 001757   000001 235000 xsym               LDA     B_VECTNIL+1
         3 001760   200300 757100                    STAQ    @N+1,,AUTO
         3 001761   200207 633500                    EPPR3   R+2,,AUTO
         3 001762   200277 453500                    STP3    @W+1,,AUTO
         3 001763   200205 634500                    EPPR4   R,,AUTO
         3 001764   200276 454500                    STP4    @D+1,,AUTO
         3 001765   200206 635500                    EPPR5   R+1,,AUTO
         3 001766   200275 455500                    STP5    @VPTR$+1,,AUTO
         3 001767   000040 236000 4                  LDQ     32
PL6.E3A0      #001=DAD$CGS File=DAD$CGS.:E05TSI                                  TUE 07/29/97 12:40 Page:148
         3 001770   200274 756100                    STQ     @PTR$+1,,AUTO
         3 001771   200024 636500                    EPPR6   TEMP$,,AUTO
         3 001772   200273 456500                    STP6    CFU$+2,,AUTO
         3 001773   011056 701000 3                  TSX1    VALPTR
         3 001774   000000 011000                    NOP     0

      947    22076    4               GATE = M@CUR$->KQ$STA.GATE;

  22076  3 001775   200032 470500                    LDP0    M@CUR$,,AUTO
         3 001776   000016 237100                    LDAQ    14,,PR0
         3 001777   200022 757100                    STAQ    GATE,,AUTO

      948    22077    4               CALL DAB$GATE (GATE);

  22077  3 002000   200022 631500                    EPPR1   GATE,,AUTO
         3 002001   200302 451500                    STP1    @B+1,,AUTO
         3 002002   200302 630500                    EPPR0   @B+1,,AUTO
         3 002003   000017 631400 xsym               EPPR1   B_VECTNIL+15
         3 002004   000000 701000 xent               TSX1    DAB$GATE
         3 002005   000000 011000                    NOP     0

      949    22078    4               END;

      950    22079    4               DO WHILE ('0'B);

  22079  3 002006   002021 710000 3                  TRA     s:22087

      951    22080    4   STDERR0:
      952    22081    4               STD.X.N = ' maperr';

  22081  3 002007   040100 100400       STDERR0      MLR     fill='040'O
         3 002010   001460 000007 2                  ADSC9   ERRFMT+17                cn=0,n=7
         3 002011   200161 000010                    ADSC9   STD+2,,AUTO              cn=0,n=8

      953    22082    4               CUR$ = ADDR (NIL);

  22082  3 002012   000001 236000 xsym               LDQ     B_VECTNIL+1
PL6.E3A0      #001=DAD$CGS File=DAD$CGS.:E05TSI                                  TUE 07/29/97 12:40 Page:149
         3 002013   200031 756100                    STQ     CUR$,,AUTO

      954    22083    4   STDERR1:
      955    22084    4               STD.S = 'nmap';

  22084  3 002014   001462 236000 2     STDERR1      LDQ     ERRFMT+19
         3 002015   200163 756100                    STQ     STD+4,,AUTO

      956    22085    4               CALL DAA$ERRMSG;

  22085  3 002016   000002 631400 xsym               EPPR1   B_VECTNIL+2
         3 002017   000000 701000 xent               TSX1    DAA$ERRMSG
         3 002020   000000 011000                    NOP     0

      957    22086    4               END;

      958    22087    4               DO WHILE ('0'B);

  22087  3 002021   002024 710000 3                  TRA     s:22091

      959    22088    4   STDERR2:
      960    22089    4               STD.S = 'none';

  22089  3 002022   001463 236000 2     STDERR2      LDQ     ERRFMT+20
         3 002023   200163 756100                    STQ     STD+4,,AUTO

      961    22090    4               END;

      962    22091    4               DO WHILE ('0'B);

  22091  3 002024   002027 710000 3                  TRA     s:22095

      963    22092    4   STDERR3:
      964    22093    4               CUR$ = ADDR (NIL);

  22093  3 002025   000001 236000 xsym  STDERR3      LDQ     B_VECTNIL+1
         3 002026   200031 756100                    STQ     CUR$,,AUTO
PL6.E3A0      #001=DAD$CGS File=DAD$CGS.:E05TSI                                  TUE 07/29/97 12:40 Page:150

      965    22094    4               END;

      966    22095    3             IF I = 1 THEN

  22095  3 002027   200030 235100                    LDA     I,,AUTO
         3 002030   000001 115007                    CMPA    1,DL
         3 002031   002051 601000 3                  TNZ     s:22098

      967    22096    3               CALL DAF$WRITE (VECTOR (STREEFMT0), VECTOR (STD));

  22096  3 002032   000116 235000 4                  LDA     78
         3 002033   200302 452500                    STP2    @B+1,,AUTO
         3 002034   200302 236100                    LDQ     @B+1,,AUTO
         3 002035   000157 036003                    ADLQ    111,DU
         3 002036   200304 757100                    STAQ    @B+3,,AUTO
         3 002037   200304 630500                    EPPR0   @B+3,,AUTO
         3 002040   200307 450500                    STP0    @B+6,,AUTO
         3 002041   000117 236000 4                  LDQ     79
         3 002042   200306 756100                    STQ     @B+5,,AUTO
         3 002043   200306 630500                    EPPR0   @B+5,,AUTO
         3 002044   000000 220000 xsym               LDX0    DAF$WRITE
         3 002045   000020 631400 xsym               EPPR1   B_VECTNIL+16
         3 002046   000000 701010                    TSX1    0,X0
         3 002047   000000 011000                    NOP     0
         3 002050   002104 710000 3                  TRA     s:22100

      968    22097    3             ELSE
      969    22098    3               CALL DAF$WRITE (VECTOR (STREEFMT1), VECTOR (STD.X), VECTOR (R),

  22098  3 002051   000122 235000 4                  LDA     82
         3 002052   200302 452500                    STP2    @B+1,,AUTO
         3 002053   200302 236100                    LDQ     @B+1,,AUTO
         3 002054   000157 036003                    ADLQ    111,DU
         3 002055   200304 757100                    STAQ    @B+3,,AUTO
         3 002056   000062 235000 4                  LDA     50
         3 002057   200306 452500                    STP2    @B+5,,AUTO
PL6.E3A0      #001=DAD$CGS File=DAD$CGS.:E05TSI                                  TUE 07/29/97 12:40 Page:151
         3 002060   200306 236100                    LDQ     @B+5,,AUTO
         3 002061   000205 036003                    ADLQ    133,DU
         3 002062   200312 757100                    STAQ    @B+9,,AUTO
         3 002063   200304 237100                    LDAQ    @B+3,,AUTO
         3 002064   200310 757100                    STAQ    @B+7,,AUTO
         3 002065   200312 237100                    LDAQ    @B+9,,AUTO
         3 002066   200314 757100                    STAQ    @B+11,,AUTO
         3 002067   000073 236000 4                  LDQ     59
         3 002070   200321 756100                    STQ     @B+16,,AUTO
         3 002071   200314 630500                    EPPR0   @B+11,,AUTO
         3 002072   200320 450500                    STP0    @B+15,,AUTO
         3 002073   200310 631500                    EPPR1   @B+7,,AUTO
         3 002074   200317 451500                    STP1    @B+14,,AUTO
         3 002075   000123 236000 4                  LDQ     83
         3 002076   200316 756100                    STQ     @B+13,,AUTO
         3 002077   200316 630500                    EPPR0   @B+13,,AUTO
         3 002100   000000 220000 xsym               LDX0    DAF$WRITE
         3 002101   000022 631400 xsym               EPPR1   B_VECTNIL+18
         3 002102   000000 701010                    TSX1    0,X0
         3 002103   000000 011000                    NOP     0

      970    22099    3               VECTOR (DA_GATETXT));
      971    22100    3             END;

  22100  3 002104   200031 236100                    LDQ     CUR$,,AUTO
         3 002105   000001 116000 xsym               CMPQ    B_VECTNIL+1
         3 002106   001617 601000 3                  TNZ     s:22051

      972    22101    2           IF I = 1 THEN

  22101  3 002107   200030 235100                    LDA     I,,AUTO
         3 002110   000001 115007                    CMPA    1,DL
         3 002111   002127 601000 3                  TNZ     s:22106

      973    22102    3             DO;

      974    22103    3             CALL DAF$WRITE (VECTOR (BLANKFMT));
PL6.E3A0      #001=DAD$CGS File=DAD$CGS.:E05TSI                                  TUE 07/29/97 12:40 Page:152

  22103  3 002112   000012 630400 4                  EPPR0   10
         3 002113   000000 220000 xsym               LDX0    DAF$WRITE
         3 002114   000017 631400 xsym               EPPR1   B_VECTNIL+15
         3 002115   000000 701010                    TSX1    0,X0
         3 002116   000000 011000                    NOP     0

      975    22104    3             CALL DAM$MAP (CG$,M@CG$) ALTRET (STDERR4);

  22104  3 002117   200006 630500                    EPPR0   M@CG$,,AUTO
         3 002120   200303 450500                    STP0    @B+2,,AUTO
         3 002121   200005 631500                    EPPR1   CG$,,AUTO
         3 002122   200302 451500                    STP1    @B+1,,AUTO
         3 002123   200302 630500                    EPPR0   @B+1,,AUTO
         3 002124   000020 631400 xsym               EPPR1   B_VECTNIL+16
         3 002125   000000 701000 xent               TSX1    DAM$MAP
         3 002126   002135 702000 3                  TSX2    STDERR4

      976    22105    3             END;

      977    22106    2           END;

  22106  3 002127   200030 235100                    LDA     I,,AUTO
         3 002130   000001 035007                    ADLA    1,DL
         3 002131   200030 755100                    STA     I,,AUTO
         3 002132   000003 115007                    CMPA    3,DL
         3 002133   001613 602000 3                  TNC     s:22049

      978    22107    2           DO WHILE ('0'B);

  22107  3 002134   002140 710000 3                  TRA     s:22112

      979    22108    2   STDERR4:
      980    22109    2           CALL DAA$ERRMSG;

  22109  3 002135   000002 631400 xsym  STDERR4      EPPR1   B_VECTNIL+2
         3 002136   000000 701000 xent               TSX1    DAA$ERRMSG
PL6.E3A0      #001=DAD$CGS File=DAD$CGS.:E05TSI                                  TUE 07/29/97 12:40 Page:153
         3 002137   000000 011000                    NOP     0

      981    22110    2           END;

      982    22111
      983    22112    1         RETURN;

  22112  3 002140   000000 702200 xent               TSX2  ! X66_ARET

      984    22113
      985    22114        %EJECT;
PL6.E3A0      #001=DAD$CGS File=DAD$CGS.:E05TSI                                  TUE 07/29/97 12:40 Page:154
      986    22115        /*F* NAME:        DAD$TTREE
      987    22116             PURPOSE:     This routine does the TTREE command.
      988    22117             DESCRIPTION: This routine sets up the current comgroup, or just
      989    22118                          displays relevant data for the current comgroup. */
      990    22119        /*D* NAME:        DAD$TTREE
      991    22120             ENTRY:       DAD$TTREE
      992    22121             CALL:        CALL DAD$TTREE (TOP);
      993    22122             INPUT:       TOP - Parse output block for TTREE command.
      994    22123             SCRATCH:     Mapping context.
      995    22124             DESCRIPTION:  */
      996    22125
      997    22126    1   DAD$TTREE: ENTRY (TOP);

  22126  3 002141   000000 700200 xent  DAD$TTREE    TSX0  ! X66_AUTO_1
         3 002142   000430 000001                    ZERO    280,1

      998    22127
      999    22128    1         CALL SETUP ALTRET (RETN);

  22128  3 002143   010371 701000 3                  TSX1    SETUP
         3 002144   000065 702000 3                  TSX2    RETN

     1000    22129    1         CALL DAF$INIT (TTREERPT);

  22129  3 002145   000124 630400 4                  EPPR0   84
         3 002146   000017 631400 xsym               EPPR1   B_VECTNIL+15
         3 002147   000000 701000 xent               TSX1    DAF$INIT
         3 002150   000000 011000                    NOP     0

     1001    22130    1         CALL DAB$GATE (KQ$CG.TTREE.GATE);

  22130  3 002151   200006 236100                    LDQ     M@CG$,,AUTO
         3 002152   000067 036003                    ADLQ    55,DU
         3 002153   200302 756100                    STQ     @B+1,,AUTO
         3 002154   200302 630500                    EPPR0   @B+1,,AUTO
         3 002155   000017 631400 xsym               EPPR1   B_VECTNIL+15
         3 002156   000000 701000 xent               TSX1    DAB$GATE
PL6.E3A0      #001=DAD$CGS File=DAD$CGS.:E05TSI                                  TUE 07/29/97 12:40 Page:155
         3 002157   000000 011000                    NOP     0

     1002    22131    1         CALL DAF$WRITE (VECTOR (TTGFMT), VECTOR (DA_GATETXT));

  22131  3 002160   000130 630400 4                  EPPR0   88
         3 002161   000000 220000 xsym               LDX0    DAF$WRITE
         3 002162   000020 631400 xsym               EPPR1   B_VECTNIL+16
         3 002163   000000 701010                    TSX1    0,X0
         3 002164   000000 011000                    NOP     0

     1003    22132    1         CUR$ = KQ$CG.TTREE.HEAD$;

  22132  3 002165   200006 470500                    LDP0    M@CG$,,AUTO
         3 002166   000073 236100                    LDQ     59,,PR0
         3 002167   200031 756100                    STQ     CUR$,,AUTO

     1004    22133    1         IF CUR$ = ADDR (NIL) THEN

  22133  3 002170   000001 116000 xsym               CMPQ    B_VECTNIL+1
         3 002171   002200 601000 3                  TNZ     LTTREE

     1005    22134    2           DO;

     1006    22135    2           CALL DAF$WRITE (VECTOR (NOTHINGFMT));

  22135  3 002172   000036 630400 4                  EPPR0   30
         3 002173   000000 220000 xsym               LDX0    DAF$WRITE
         3 002174   000017 631400 xsym               EPPR1   B_VECTNIL+15
         3 002175   000000 701010                    TSX1    0,X0
         3 002176   000000 011000                    NOP     0

     1007    22136    2           RETURN;

  22136  3 002177   000000 702200 xent               TSX2  ! X66_ARET

     1008    22137    2           END;
     1009    22138    1   LTTREE:
PL6.E3A0      #001=DAD$CGS File=DAD$CGS.:E05TSI                                  TUE 07/29/97 12:40 Page:156
     1010    22139    2           DO I = 0 TO 1;

  22139  3 002200   200030 450100       LTTREE       STZ     I,,AUTO

     1011    22140    2           TTD (I) = '0'B;

  22140  3 002201   200030 236100                    LDQ     I,,AUTO
         3 002202   000034 402007                    MPY     28,DL
         3 002203   000106 100400                    MLR     fill='000'O
         3 002204   000002 000001 xsym               ADSC9   B_VECTNIL+2              cn=0,n=1
         3 002205   200141 000034                    ADSC9   TTD,Q,AUTO               cn=0,n=28

     1012    22141    2           CALL VALPTR (CUR$,AS0$,TTD.D (I),TTD.W (I)) ALTRET (TTOERR1);

  22141  3 002206   000001 236000 xsym               LDQ     B_VECTNIL+1
         3 002207   000001 235000 xsym               LDA     B_VECTNIL+1
         3 002210   200300 757100                    STAQ    @N+1,,AUTO
         3 002211   000001 236000 xsym               LDQ     B_VECTNIL+1
         3 002212   200277 756100                    STQ     @W+1,,AUTO
         3 002213   200030 236100                    LDQ     I,,AUTO
         3 002214   000007 402007                    MPY     7,DL
         3 002215   200141 630506                    EPPR0   TTD,QL,AUTO
         3 002216   200276 450500                    STP0    @D+1,,AUTO
         3 002217   200142 631506                    EPPR1   TTD+1,QL,AUTO
         3 002220   200275 451500                    STP1    @VPTR$+1,,AUTO
         3 002221   000040 236000 4                  LDQ     32
         3 002222   200274 756100                    STQ     @PTR$+1,,AUTO
         3 002223   200031 633500                    EPPR3   CUR$,,AUTO
         3 002224   200273 453500                    STP3    CFU$+2,,AUTO
         3 002225   011056 701000 3                  TSX1    VALPTR
         3 002226   002313 702000 3                  TSX2    TTOERR1

     1013    22142    2           CALL DAM$MAP (CUR$,M@CUR$) ALTRET (TTOERR0);

  22142  3 002227   200032 630500                    EPPR0   M@CUR$,,AUTO
         3 002230   200303 450500                    STP0    @B+2,,AUTO
         3 002231   200031 631500                    EPPR1   CUR$,,AUTO
PL6.E3A0      #001=DAD$CGS File=DAD$CGS.:E05TSI                                  TUE 07/29/97 12:40 Page:157
         3 002232   200302 451500                    STP1    @B+1,,AUTO
         3 002233   200302 630500                    EPPR0   @B+1,,AUTO
         3 002234   000020 631400 xsym               EPPR1   B_VECTNIL+16
         3 002235   000000 701000 xent               TSX1    DAM$MAP
         3 002236   002310 702000 3                  TSX2    TTOERR0

     1014    22143    2           CALL XLATE(TTD.M(I),DA_PRINTABLE_TBL,M@CUR$->KQ$MTYP.BTN.KEY);

  22143  3 002237   200030 236100                    LDQ     I,,AUTO
         3 002240   000034 402007                    MPY     28,DL
         3 002241   200032 470500                    LDP0    M@CUR$,,AUTO
         3 002242   000000 471400 xsym               LDP1    B$XL_ASC_DUMP$
         3 002243   040106 160500                    MVT     fill='040'O
         3 002244   000005 000010                    ADSC9   5,,PR0                   cn=0,n=8
         3 002245   200143 000010                    ADSC9   TTD+2,Q,AUTO             cn=0,n=8
         3 002246   100000 000100                    ARG     0,,PR1

     1015    22144    2           IF M@CUR$->KQ$MTYP.JOURNAL THEN

  22144  3 002247   200032 470500                    LDP0    M@CUR$,,AUTO
         3 002250   000007 236100                    LDQ     7,,PR0
         3 002251   000400 316003                    CANQ    256,DU
         3 002252   002257 600000 3                  TZE     s:22146

     1016    22145    2             TTD.J (I) = 1;

  22145  3 002253   200030 236100                    LDQ     I,,AUTO
         3 002254   000007 402007                    MPY     7,DL
         3 002255   000001 235007                    LDA     1,DL
         3 002256   200146 755106                    STA     TTD+5,QL,AUTO

     1017    22146    2           TTD.P (I) = M@CUR$->KQ$MTYP.MPRIO;

  22146  3 002257   200030 236100                    LDQ     I,,AUTO
         3 002260   000007 402007                    MPY     7,DL
         3 002261   200032 470500                    LDP0    M@CUR$,,AUTO
         3 002262   000000 620006                    EAX0    0,QL
PL6.E3A0      #001=DAD$CGS File=DAD$CGS.:E05TSI                                  TUE 07/29/97 12:40 Page:158
         3 002263   000007 236100                    LDQ     7,,PR0
         3 002264   000033 772000                    QRL     27
         3 002265   200147 756110                    STQ     TTD+6,X0,AUTO

     1018    22147    2           TTD.N (I) = M@CUR$->KQ$MTYP.NUMWRITES;

  22147  3 002266   200030 236100                    LDQ     I,,AUTO
         3 002267   000007 402007                    MPY     7,DL
         3 002270   200032 470500                    LDP0    M@CUR$,,AUTO
         3 002271   000010 235100                    LDA     8,,PR0
         3 002272   200145 755106                    STA     TTD+4,QL,AUTO

     1019    22148    2           CUR$ = M@CUR$->KQ$MTYP.BTN.FLINK$;

  22148  3 002273   200032 470500                    LDP0    M@CUR$,,AUTO
         3 002274   000004 236100                    LDQ     4,,PR0
         3 002275   200031 756100                    STQ     CUR$,,AUTO

     1020    22149    2           IF CUR$ = ADDR (NIL) THEN

  22149  3 002276   000001 116000 xsym               CMPQ    B_VECTNIL+1
         3 002277   002323 600000 3                  TZE     TTO

     1021    22150    2             GOTO TTO;
     1022    22151    2           END;

  22151  3 002300   200030 235100                    LDA     I,,AUTO
         3 002301   000001 035007                    ADLA    1,DL
         3 002302   200030 755100                    STA     I,,AUTO
         3 002303   000002 115007                    CMPA    2,DL
         3 002304   002201 602000 3                  TNC     s:22140

     1023    22152    1         I = 2;

  22152  3 002305   000002 235007                    LDA     2,DL
         3 002306   200030 755100                    STA     I,,AUTO

PL6.E3A0      #001=DAD$CGS File=DAD$CGS.:E05TSI                                  TUE 07/29/97 12:40 Page:159
     1024    22153    2           DO WHILE ('0'B);

  22153  3 002307   002326 710000 3                  TRA     s:22162

     1025    22154    2   TTOERR0:
     1026    22155    2           CALL DAA$ERRMSG;

  22155  3 002310   000002 631400 xsym  TTOERR0      EPPR1   B_VECTNIL+2
         3 002311   000000 701000 xent               TSX1    DAA$ERRMSG
         3 002312   000000 011000                    NOP     0

     1027    22156    2   TTOERR1:
     1028    22157    2           TTD.M (I) = ' maperr';

  22157  3 002313   200030 236100       TTOERR1      LDQ     I,,AUTO
         3 002314   000007 402007                    MPY     7,DL
         3 002315   000002 736000                    QLS     2
         3 002316   040106 100400                    MLR     fill='040'O
         3 002317   001460 000007 2                  ADSC9   ERRFMT+17                cn=0,n=7
         3 002320   200143 000010                    ADSC9   TTD+2,Q,AUTO             cn=0,n=8

     1029    22158    2           CUR$ = ADDR (NIL);

  22158  3 002321   000001 236000 xsym               LDQ     B_VECTNIL+1
         3 002322   200031 756100                    STQ     CUR$,,AUTO

     1030    22159    2   TTO:
     1031    22160    2           I = I + 1;

  22160  3 002323   200030 235100       TTO          LDA     I,,AUTO
         3 002324   000001 035007                    ADLA    1,DL
         3 002325   200030 755100                    STA     I,,AUTO

     1032    22161    2           END;

     1033    22162    1         CALL DAF$WRITE (VECTOR (TTREEFMT), VECTOR (I), VECTOR (TTD));

PL6.E3A0      #001=DAD$CGS File=DAD$CGS.:E05TSI                                  TUE 07/29/97 12:40 Page:160
  22162  3 002326   777640 235007                    LDA     -96,DL
         3 002327   200302 452500                    STP2    @B+1,,AUTO
         3 002330   200302 236100                    LDQ     @B+1,,AUTO
         3 002331   000030 036003                    ADLQ    24,DU
         3 002332   200304 757100                    STAQ    @B+3,,AUTO
         3 002333   000114 235000 4                  LDA     76
         3 002334   200306 452500                    STP2    @B+5,,AUTO
         3 002335   200306 236100                    LDQ     @B+5,,AUTO
         3 002336   000141 036003                    ADLQ    97,DU
         3 002337   200312 757100                    STAQ    @B+9,,AUTO
         3 002340   200304 237100                    LDAQ    @B+3,,AUTO
         3 002341   200310 757100                    STAQ    @B+7,,AUTO
         3 002342   200312 237100                    LDAQ    @B+9,,AUTO
         3 002343   200314 757100                    STAQ    @B+11,,AUTO
         3 002344   200314 630500                    EPPR0   @B+11,,AUTO
         3 002345   200320 450500                    STP0    @B+15,,AUTO
         3 002346   200310 631500                    EPPR1   @B+7,,AUTO
         3 002347   200317 451500                    STP1    @B+14,,AUTO
         3 002350   000134 236000 4                  LDQ     92
         3 002351   200316 756100                    STQ     @B+13,,AUTO
         3 002352   200316 630500                    EPPR0   @B+13,,AUTO
         3 002353   000000 220000 xsym               LDX0    DAF$WRITE
         3 002354   000021 631400 xsym               EPPR1   B_VECTNIL+17
         3 002355   000000 701010                    TSX1    0,X0
         3 002356   000000 011000                    NOP     0

     1034    22163    1         IF CUR$ ~= ADDR (NIL) THEN

  22163  3 002357   200031 236100                    LDQ     CUR$,,AUTO
         3 002360   000001 116000 xsym               CMPQ    B_VECTNIL+1
         3 002361   002200 601000 3                  TNZ     LTTREE

     1035    22164    1           GOTO LTTREE;
     1036    22165
     1037    22166    1         RETURN;

  22166  3 002362   000000 702200 xent               TSX2  ! X66_ARET
PL6.E3A0      #001=DAD$CGS File=DAD$CGS.:E05TSI                                  TUE 07/29/97 12:40 Page:161

     1038    22167
     1039    22168        %EJECT;
PL6.E3A0      #001=DAD$CGS File=DAD$CGS.:E05TSI                                  TUE 07/29/97 12:40 Page:162
     1040    22169        /*F* NAME:        DAD$QTREE
     1041    22170             PURPOSE:     This routine does the QTREE command.
     1042    22171             DESCRIPTION: This routine sets up the current comgroup, or just
     1043    22172                          displays relevant data for the current comgroup. */
     1044    22173        /*D* NAME:        DAD$QTREE
     1045    22174             ENTRY:       DAD$QTREE
     1046    22175             CALL:        CALL DAD$QTREE (TOP);
     1047    22176             INPUT:       TOP - Parse output block for QTREE command.
     1048    22177             SCRATCH:     Mapping context.
     1049    22178             DESCRIPTION:  */
     1050    22179
     1051    22180    1   DAD$QTREE: ENTRY (TOP);

  22180  3 002363   000000 700200 xent  DAD$QTREE    TSX0  ! X66_AUTO_1
         3 002364   000430 000001                    ZERO    280,1

     1052    22181
     1053    22182    1         CALL SETUP ALTRET (RETN);

  22182  3 002365   010371 701000 3                  TSX1    SETUP
         3 002366   000065 702000 3                  TSX2    RETN

     1054    22183    1         CALL DAF$INIT (QTREERPT);

  22183  3 002367   000135 630400 4                  EPPR0   93
         3 002370   000017 631400 xsym               EPPR1   B_VECTNIL+15
         3 002371   000000 701000 xent               TSX1    DAF$INIT
         3 002372   000000 011000                    NOP     0

     1055    22184    1         IF KQ$CG.QUEUE.QTREE$ = ADDR (NIL) THEN

  22184  3 002373   200006 470500                    LDP0    M@CG$,,AUTO
         3 002374   000057 236100                    LDQ     47,,PR0
         3 002375   000001 116000 xsym               CMPQ    B_VECTNIL+1
         3 002376   002405 601000 3                  TNZ     s:22190

     1056    22185    1   QTDERR3:
PL6.E3A0      #001=DAD$CGS File=DAD$CGS.:E05TSI                                  TUE 07/29/97 12:40 Page:163
     1057    22186    2           DO;

  22186  3 002377                       QTDERR3      null
     1058    22187    2           CALL DAF$WRITE (VECTOR (NOTHINGFMT));

  22187  3 002377   000036 630400 4                  EPPR0   30
         3 002400   000000 220000 xsym               LDX0    DAF$WRITE
         3 002401   000017 631400 xsym               EPPR1   B_VECTNIL+15
         3 002402   000000 701010                    TSX1    0,X0
         3 002403   000000 011000                    NOP     0

     1059    22188    2           RETURN;

  22188  3 002404   000000 702200 xent               TSX2  ! X66_ARET

     1060    22189    2           END;
     1061    22190    1         CALL DAM$MAP (KQ$CG.QUEUE.QTREE$,M@TEMP$) ALTRET (QTDERR0);

  22190  3 002405   200025 631500                    EPPR1   M@TEMP$,,AUTO
         3 002406   200303 451500                    STP1    @B+2,,AUTO
         3 002407   200006 236100                    LDQ     M@CG$,,AUTO
         3 002410   000057 036003                    ADLQ    47,DU
         3 002411   200302 756100                    STQ     @B+1,,AUTO
         3 002412   200302 630500                    EPPR0   @B+1,,AUTO
         3 002413   000020 631400 xsym               EPPR1   B_VECTNIL+16
         3 002414   000000 701000 xent               TSX1    DAM$MAP
         3 002415   002552 702000 3                  TSX2    QTDERR0

     1062    22191    1         IF M@TEMP$->KQ$THDR.HEAD$ = ADDR (NIL) THEN

  22191  3 002416   200025 470500                    LDP0    M@TEMP$,,AUTO
         3 002417   000004 236100                    LDQ     4,,PR0
         3 002420   000001 116000 xsym               CMPQ    B_VECTNIL+1
         3 002421   002377 600000 3                  TZE     QTDERR3

     1063    22192    1           GOTO QTDERR3;
     1064    22193    1         CUR$ = M@TEMP$->KQ$THDR.HEAD$;
PL6.E3A0      #001=DAD$CGS File=DAD$CGS.:E05TSI                                  TUE 07/29/97 12:40 Page:164

  22193  3 002422   200031 756100                    STQ     CUR$,,AUTO

     1065    22194    2           DO WHILE (CUR$ ~= ADDR (NIL));

  22194  3 002423   002546 710000 3                  TRA     s:22212

     1066    22195    2           QTD = '0'B;

  22195  3 002424   000100 100400                    MLR     fill='000'O
         3 002425   000002 000001 xsym               ADSC9   B_VECTNIL+2              cn=0,n=1
         3 002426   200173 000050                    ADSC9   QTD,,AUTO                cn=0,n=40

     1067    22196    2           CALL VALPTR (CUR$,AS0$,QTD.D,QTD.W) ALTRET (QTDERR2);

  22196  3 002427   000001 236000 xsym               LDQ     B_VECTNIL+1
         3 002430   000001 235000 xsym               LDA     B_VECTNIL+1
         3 002431   200300 757100                    STAQ    @N+1,,AUTO
         3 002432   000001 236000 xsym               LDQ     B_VECTNIL+1
         3 002433   200277 756100                    STQ     @W+1,,AUTO
         3 002434   200173 630500                    EPPR0   QTD,,AUTO
         3 002435   200276 450500                    STP0    @D+1,,AUTO
         3 002436   200174 631500                    EPPR1   QTD+1,,AUTO
         3 002437   200275 451500                    STP1    @VPTR$+1,,AUTO
         3 002440   000040 236000 4                  LDQ     32
         3 002441   200274 756100                    STQ     @PTR$+1,,AUTO
         3 002442   200031 633500                    EPPR3   CUR$,,AUTO
         3 002443   200273 453500                    STP3    CFU$+2,,AUTO
         3 002444   011056 701000 3                  TSX1    VALPTR
         3 002445   002523 702000 3                  TSX2    QTDERR2

     1068    22197    2           CALL DAM$MAP (CUR$,M@CUR$) ALTRET (QTDERR1);

  22197  3 002446   200032 630500                    EPPR0   M@CUR$,,AUTO
         3 002447   200303 450500                    STP0    @B+2,,AUTO
         3 002450   200031 631500                    EPPR1   CUR$,,AUTO
         3 002451   200302 451500                    STP1    @B+1,,AUTO
PL6.E3A0      #001=DAD$CGS File=DAD$CGS.:E05TSI                                  TUE 07/29/97 12:40 Page:165
         3 002452   200302 630500                    EPPR0   @B+1,,AUTO
         3 002453   000020 631400 xsym               EPPR1   B_VECTNIL+16
         3 002454   000000 701000 xent               TSX1    DAM$MAP
         3 002455   002520 702000 3                  TSX2    QTDERR1

     1069    22198    2           CALL XLATE(QTD.N,DA_PRINTABLE_TBL,M@CUR$->KQ$QTN.STA.BTN.KEY);

  22198  3 002456   200032 470500                    LDP0    M@CUR$,,AUTO
         3 002457   000000 471400 xsym               LDP1    B$XL_ASC_DUMP$
         3 002460   040100 160500                    MVT     fill='040'O
         3 002461   000005 000010                    ADSC9   5,,PR0                   cn=0,n=8
         3 002462   200175 000010                    ADSC9   QTD+2,,AUTO              cn=0,n=8
         3 002463   100000 000100                    ARG     0,,PR1

     1070    22199    2           QTD.A = M@CUR$->KQ$QTN.CNACT;

  22199  3 002464   000044 235100                    LDA     36,,PR0
         3 002465   200177 755100                    STA     QTD+4,,AUTO

     1071    22200    2           CALL VALPTR (M@CUR$->KQ$QTN.READS$,AS0$,QTD.RD,QTD.RW,QTD.RN);

  22200  3 002466   000001 236000 xsym               LDQ     B_VECTNIL+1
         3 002467   000001 235000 xsym               LDA     B_VECTNIL+1
         3 002470   200300 757100                    STAQ    @N+1,,AUTO
         3 002471   200202 633500                    EPPR3   QTD+7,,AUTO
         3 002472   200277 453500                    STP3    @W+1,,AUTO
         3 002473   200200 634500                    EPPR4   QTD+5,,AUTO
         3 002474   200276 454500                    STP4    @D+1,,AUTO
         3 002475   200201 635500                    EPPR5   QTD+6,,AUTO
         3 002476   200275 455500                    STP5    @VPTR$+1,,AUTO
         3 002477   000040 236000 4                  LDQ     32
         3 002500   200274 756100                    STQ     @PTR$+1,,AUTO
         3 002501   200032 236100                    LDQ     M@CUR$,,AUTO
         3 002502   000046 036003                    ADLQ    38,DU
         3 002503   200273 756100                    STQ     CFU$+2,,AUTO
         3 002504   011056 701000 3                  TSX1    VALPTR
         3 002505   000000 011000                    NOP     0
PL6.E3A0      #001=DAD$CGS File=DAD$CGS.:E05TSI                                  TUE 07/29/97 12:40 Page:166

     1072    22201    2           QTD.L = M@CUR$->KQ$QTN.LOCKCNT;

  22201  3 002506   200032 470500                    LDP0    M@CUR$,,AUTO
         3 002507   000050 236100                    LDQ     40,,PR0
         3 002510   000033 772000                    QRL     27
         3 002511   000177 376007                    ANQ     127,DL
         3 002512   200203 756100                    STQ     QTD+8,,AUTO

     1073    22202    2           QTD.C = M@CUR$->KQ$QTN.MLH.COUNT;

  22202  3 002513   000062 235100                    LDA     50,,PR0
         3 002514   200204 755100                    STA     QTD+9,,AUTO

     1074    22203    2           CUR$ = M@CUR$->KQ$QTN.STA.BTN.FLINK$;

  22203  3 002515   000004 236100                    LDQ     4,,PR0
         3 002516   200031 756100                    STQ     CUR$,,AUTO

     1075    22204    3             DO WHILE ('0'B);

  22204  3 002517   002530 710000 3                  TRA     s:22211

     1076    22205    3   QTDERR1:
     1077    22206    3             CALL DAA$ERRMSG;

  22206  3 002520   000002 631400 xsym  QTDERR1      EPPR1   B_VECTNIL+2
         3 002521   000000 701000 xent               TSX1    DAA$ERRMSG
         3 002522   000000 011000                    NOP     0

     1078    22207    3   QTDERR2:
     1079    22208    3             QTD.N = ' maperr';

  22208  3 002523   040100 100400       QTDERR2      MLR     fill='040'O
         3 002524   001460 000007 2                  ADSC9   ERRFMT+17                cn=0,n=7
         3 002525   200175 000010                    ADSC9   QTD+2,,AUTO              cn=0,n=8

PL6.E3A0      #001=DAD$CGS File=DAD$CGS.:E05TSI                                  TUE 07/29/97 12:40 Page:167
     1080    22209    3             CUR$ = ADDR (NIL);

  22209  3 002526   000001 236000 xsym               LDQ     B_VECTNIL+1
         3 002527   200031 756100                    STQ     CUR$,,AUTO

     1081    22210    3             END;

     1082    22211    2           CALL DAF$WRITE (VECTOR (QTREEFMT), VECTOR (QTD));

  22211  3 002530   000140 235000 4                  LDA     96
         3 002531   200302 452500                    STP2    @B+1,,AUTO
         3 002532   200302 236100                    LDQ     @B+1,,AUTO
         3 002533   000173 036003                    ADLQ    123,DU
         3 002534   200304 757100                    STAQ    @B+3,,AUTO
         3 002535   200304 630500                    EPPR0   @B+3,,AUTO
         3 002536   200307 450500                    STP0    @B+6,,AUTO
         3 002537   000141 236000 4                  LDQ     97
         3 002540   200306 756100                    STQ     @B+5,,AUTO
         3 002541   200306 630500                    EPPR0   @B+5,,AUTO
         3 002542   000000 220000 xsym               LDX0    DAF$WRITE
         3 002543   000020 631400 xsym               EPPR1   B_VECTNIL+16
         3 002544   000000 701010                    TSX1    0,X0
         3 002545   000000 011000                    NOP     0

     1083    22212    2           END;

  22212  3 002546   200031 236100                    LDQ     CUR$,,AUTO
         3 002547   000001 116000 xsym               CMPQ    B_VECTNIL+1
         3 002550   002424 601000 3                  TNZ     s:22195

     1084    22213    2           DO WHILE ('0'B);

  22213  3 002551   002555 710000 3                  TRA     s:22218

     1085    22214    2   QTDERR0:
     1086    22215    2           CALL DAA$ERRMSG;

PL6.E3A0      #001=DAD$CGS File=DAD$CGS.:E05TSI                                  TUE 07/29/97 12:40 Page:168
  22215  3 002552   000002 631400 xsym  QTDERR0      EPPR1   B_VECTNIL+2
         3 002553   000000 701000 xent               TSX1    DAA$ERRMSG
         3 002554   000000 011000                    NOP     0

     1087    22216    2           END;

     1088    22217
     1089    22218    1         RETURN;

  22218  3 002555   000000 702200 xent               TSX2  ! X66_ARET

     1090    22219
     1091    22220        %EJECT;
PL6.E3A0      #001=DAD$CGS File=DAD$CGS.:E05TSI                                  TUE 07/29/97 12:40 Page:169
     1092    22221        /*I* NAME:        DI1CG
     1093    22222             ENTRY:       DI1CG
     1094    22223             CALL:        CALL DI1CG ALTRET (maperr);
     1095    22224             INPUT:       CG$ - Pointer to comgroup context block.
     1096    22225                          F$CFU$ - Pointer to CFU data segment.
     1097    22226                          M@F$CFU$ - Mapped pointer to CFU data segment.
     1098    22227             OUTPUT:      M@CG$ - Mapped pointer to comgroup context block.
     1099    22228                          DA_ASR - Setup to access DSB of KQ$CG.DSB$;
     1100    22229             SCRATCH:     Mapping context, M@DSB$ .
     1101    22230             DESCRIPTION: The summary information is displayed for the comgroup
     1102    22231                          whose context block is at CG$. The fid of the CG is
     1103    22232                          obtained from the CFU (KQ$CG.CFU$), using code that
     1104    22233                          Harold ripped from Rumsey. ALTRETs if a mapping
     1105    22234                          error occurred, else RETURNs. */
     1106    22235
     1107    22236    1   DI1CG: PROC ALTRET;

  22236  3 002556   200236 741300       DI1CG        STX1  ! TEXTFIDL+2,,AUTO

     1108    22237
     1109    22238    2   DCL CTXT UBIN;
     1110    22239    2   DCL DSB UBIN;
     1111    22240    2   DCL CFU UBIN;
     1112    22241    2   DCL AUSTAD UBIN;
     1113    22242    2   DCL AUSTA UBIN;
     1114    22243    2   DCL AUSTAN UBIN;
     1115    22244    2   DCL AUSTA$ PTR;
     1116    22245    2   DCL M@AUSTA$ PTR;
     1117    22246    2   DCL TERMS UBIN;
     1118    22247    2   DCL DCBS UBIN;
     1119    22248    2   DCL STA CHAR(8);
     1120    22249    2   DCL C$ PTR;
     1121    22250    2   DCL A$ PTR;
     1122    22251    2   DCL ACCT CHAR(8);
     1123    22252    2   DCL PSN CHAR(6);
     1124    22253    2   DCL 1 FNAME,
     1125    22254    2         2 L UBIN BYTE UNAL,
PL6.E3A0      #001=DAD$CGS File=DAD$CGS.:E05TSI                                  TUE 07/29/97 12:40 Page:170
     1126    22255    2         2 C CHAR(31);
     1127    22256    2   DCL CFU$ PTR;
     1128    22257
     1129    22258    2         CALL VALPTR (CG$,B$CGCTXT$,,CTXT) ALTRET (ARET);

  22258  3 002557   000001 236000 xsym               LDQ     B_VECTNIL+1
         3 002560   000001 235000 xsym               LDA     B_VECTNIL+1
         3 002561   200300 757100                    STAQ    @N+1,,AUTO
         3 002562   000001 236000 xsym               LDQ     B_VECTNIL+1
         3 002563   200277 756100                    STQ     @W+1,,AUTO
         3 002564   200237 630500                    EPPR0   CTXT,,AUTO
         3 002565   200276 450500                    STP0    @D+1,,AUTO
         3 002566   000142 235000 4                  LDA     98
         3 002567   200274 757100                    STAQ    @PTR$+1,,AUTO
         3 002570   200005 631500                    EPPR1   CG$,,AUTO
         3 002571   200273 451500                    STP1    CFU$+2,,AUTO
         3 002572   011056 701000 3                  TSX1    VALPTR
         3 002573   003240 702000 3                  TSX2    ARET

     1130    22259    2         CALL DAM$MAP (CG$,M@CG$) ALTRET (MAPERR);

  22259  3 002574   200006 630500                    EPPR0   M@CG$,,AUTO
         3 002575   200303 450500                    STP0    @B+2,,AUTO
         3 002576   200005 631500                    EPPR1   CG$,,AUTO
         3 002577   200302 451500                    STP1    @B+1,,AUTO
         3 002600   200302 630500                    EPPR0   @B+1,,AUTO
         3 002601   000020 631400 xsym               EPPR1   B_VECTNIL+16
         3 002602   000000 701000 xent               TSX1    DAM$MAP
         3 002603   003235 702000 3                  TSX2    MAPERR

     1131    22260    2         CALL VALPTR (KQ$CG.MMD.DSB$,B$CGCTXT$,,DSB) ALTRET (RETN);

  22260  3 002604   000001 236000 xsym               LDQ     B_VECTNIL+1
         3 002605   000001 235000 xsym               LDA     B_VECTNIL+1
         3 002606   200300 757100                    STAQ    @N+1,,AUTO
         3 002607   000001 236000 xsym               LDQ     B_VECTNIL+1
         3 002610   200277 756100                    STQ     @W+1,,AUTO
PL6.E3A0      #001=DAD$CGS File=DAD$CGS.:E05TSI                                  TUE 07/29/97 12:40 Page:171
         3 002611   200240 630500                    EPPR0   DSB,,AUTO
         3 002612   200276 450500                    STP0    @D+1,,AUTO
         3 002613   000142 235000 4                  LDA     98
         3 002614   200274 757100                    STAQ    @PTR$+1,,AUTO
         3 002615   200006 236100                    LDQ     M@CG$,,AUTO
         3 002616   200273 756100                    STQ     CFU$+2,,AUTO
         3 002617   011056 701000 3                  TSX1    VALPTR
         3 002620   003242 702000 3                  TSX2    RETN

     1132    22261    2         CALL DAM$MAP (KQ$CG.MMD.DSB$,M@DSB$) ALTRET (MAPERR);

  22261  3 002621   200011 630500                    EPPR0   M@DSB$,,AUTO
         3 002622   200303 450500                    STP0    @B+2,,AUTO
         3 002623   200006 236100                    LDQ     M@CG$,,AUTO
         3 002624   200302 756100                    STQ     @B+1,,AUTO
         3 002625   200302 630500                    EPPR0   @B+1,,AUTO
         3 002626   000020 631400 xsym               EPPR1   B_VECTNIL+16
         3 002627   000000 701000 xent               TSX1    DAM$MAP
         3 002630   003235 702000 3                  TSX2    MAPERR

     1133    22262    2         DA_ASR = M@DSB$->BIT$72DA;

  22262  3 002631   200011 470500                    LDP0    M@DSB$,,AUTO
         3 002632   000000 237100                    LDAQ    0,,PR0
         3 002633   000000 755000 xsym               STA     DA_ASR
         3 002634   000001 756000 xsym               STQ     DA_ASR+1

     1134    22263    2         TERMS = KQ$CG.STATS.NUMTERMS;

  22263  3 002635   200006 471500                    LDP1    M@CG$,,AUTO
         3 002636   100174 235100                    LDA     124,,PR1
         3 002637   200247 755100                    STA     TERMS,,AUTO

     1135    22264    2         DCBS = KQ$CG.STATS.NUMDCBS;

  22264  3 002640   100173 235100                    LDA     123,,PR1
         3 002641   200250 755100                    STA     DCBS,,AUTO
PL6.E3A0      #001=DAD$CGS File=DAD$CGS.:E05TSI                                  TUE 07/29/97 12:40 Page:172

     1136    22265    2         CFU$ = KQ$CG.CFU$;

  22265  3 002642   100214 236100                    LDQ     140,,PR1
         3 002643   200271 756100                    STQ     CFU$,,AUTO

     1137    22266    2         AUSTA$ = KQ$CG.AUSTA$;

  22266  3 002644   100121 236100                    LDQ     81,,PR1
         3 002645   200245 756100                    STQ     AUSTA$,,AUTO

     1138    22267    2         CALL VALPTR (AUSTA$,AS0$,AUSTAD,AUSTA,AUSTAN) ALTRET (NOSTA);

  22267  3 002646   000001 236000 xsym               LDQ     B_VECTNIL+1
         3 002647   000001 235000 xsym               LDA     B_VECTNIL+1
         3 002650   200300 757100                    STAQ    @N+1,,AUTO
         3 002651   200244 633500                    EPPR3   AUSTAN,,AUTO
         3 002652   200277 453500                    STP3    @W+1,,AUTO
         3 002653   200243 634500                    EPPR4   AUSTA,,AUTO
         3 002654   200276 454500                    STP4    @D+1,,AUTO
         3 002655   200242 635500                    EPPR5   AUSTAD,,AUTO
         3 002656   200275 455500                    STP5    @VPTR$+1,,AUTO
         3 002657   000040 236000 4                  LDQ     32
         3 002660   200274 756100                    STQ     @PTR$+1,,AUTO
         3 002661   200245 636500                    EPPR6   AUSTA$,,AUTO
         3 002662   200273 456500                    STP6    CFU$+2,,AUTO
         3 002663   011056 701000 3                  TSX1    VALPTR
         3 002664   002704 702000 3                  TSX2    NOSTA

     1139    22268    2         CALL DAM$MAP (AUSTA$,M@AUSTA$) ALTRET (NOSEE);

  22268  3 002665   200246 630500                    EPPR0   M@AUSTA$,,AUTO
         3 002666   200303 450500                    STP0    @B+2,,AUTO
         3 002667   200245 631500                    EPPR1   AUSTA$,,AUTO
         3 002670   200302 451500                    STP1    @B+1,,AUTO
         3 002671   200302 630500                    EPPR0   @B+1,,AUTO
         3 002672   000020 631400 xsym               EPPR1   B_VECTNIL+16
PL6.E3A0      #001=DAD$CGS File=DAD$CGS.:E05TSI                                  TUE 07/29/97 12:40 Page:173
         3 002673   000000 701000 xent               TSX1    DAM$MAP
         3 002674   002710 702000 3                  TSX2    NOSEE

     1140    22269    2         CALL XLATE(STA,DA_PRINTABLE_TBL,M@AUSTA$->KQ$STA.BTN.KEY);

  22269  3 002675   200246 470500                    LDP0    M@AUSTA$,,AUTO
         3 002676   000000 471400 xsym               LDP1    B$XL_ASC_DUMP$
         3 002677   040100 160500                    MVT     fill='040'O
         3 002700   000005 000010                    ADSC9   5,,PR0                   cn=0,n=8
         3 002701   200251 000010                    ADSC9   STA,,AUTO                cn=0,n=8
         3 002702   100000 000100                    ARG     0,,PR1

     1141    22270    3           DO WHILE ('0'B);

  22270  3 002703   002707 710000 3                  TRA     s:22274

     1142    22271    3   NOSTA:
     1143    22272    3           STA = '  none';

  22272  3 002704   040100 100400       NOSTA        MLR     fill='040'O
         3 002705   001464 000006 2                  ADSC9   ERRFMT+21                cn=0,n=6
         3 002706   200251 000010                    ADSC9   STA,,AUTO                cn=0,n=8

     1144    22273    3           END;

     1145    22274    3           DO WHILE ('0'B);

  22274  3 002707   002714 710000 3                  TRA     s:22279

     1146    22275    3   NOSEE:
     1147    22276    3           DA_MAPERR = '0'B;

  22276  3 002710   000000 450000 xsym  NOSEE        STZ     DA_MAPERR

     1148    22277    3           STA = ' maperr';

  22277  3 002711   040100 100400                    MLR     fill='040'O
PL6.E3A0      #001=DAD$CGS File=DAD$CGS.:E05TSI                                  TUE 07/29/97 12:40 Page:174
         3 002712   001460 000007 2                  ADSC9   ERRFMT+17                cn=0,n=7
         3 002713   200251 000010                    ADSC9   STA,,AUTO                cn=0,n=8

     1149    22278    3           END;

     1150    22279    2         CALL VALPTR (CFU$,F$CFU$,,CFU) ALTRET (NOCFU);

  22279  3 002714   000001 236000 xsym               LDQ     B_VECTNIL+1
         3 002715   000001 235000 xsym               LDA     B_VECTNIL+1
         3 002716   200300 757100                    STAQ    @N+1,,AUTO
         3 002717   000001 236000 xsym               LDQ     B_VECTNIL+1
         3 002720   200277 756100                    STQ     @W+1,,AUTO
         3 002721   200241 630500                    EPPR0   CFU,,AUTO
         3 002722   200276 450500                    STP0    @D+1,,AUTO
         3 002723   200275 756100                    STQ     @VPTR$+1,,AUTO
         3 002724   200012 631500                    EPPR1   F$CFU$,,AUTO
         3 002725   200274 451500                    STP1    @PTR$+1,,AUTO
         3 002726   200271 633500                    EPPR3   CFU$,,AUTO
         3 002727   200273 453500                    STP3    CFU$+2,,AUTO
         3 002730   011056 701000 3                  TSX1    VALPTR
         3 002731   003025 702000 3                  TSX2    NOCFU

     1151    22280    2         CALL DAM$MAP (F$CFU$,M@F$CFU$) ALTRET (NOCFU);

  22280  3 002732   200013 630500                    EPPR0   M@F$CFU$,,AUTO
         3 002733   200303 450500                    STP0    @B+2,,AUTO
         3 002734   200012 631500                    EPPR1   F$CFU$,,AUTO
         3 002735   200302 451500                    STP1    @B+1,,AUTO
         3 002736   200302 630500                    EPPR0   @B+1,,AUTO
         3 002737   000020 631400 xsym               EPPR1   B_VECTNIL+16
         3 002740   000000 701000 xent               TSX1    DAM$MAP
         3 002741   003025 702000 3                  TSX2    NOCFU

     1152    22281    2         C$ = PINCRW (M@F$CFU$,CFU);

  22281  3 002742   200241 236100                    LDQ     CFU,,AUTO
         3 002743   000022 736000                    QLS     18
PL6.E3A0      #001=DAD$CGS File=DAD$CGS.:E05TSI                                  TUE 07/29/97 12:40 Page:175
         3 002744   200013 036100                    ADLQ    M@F$CFU$,,AUTO
         3 002745   200253 756100                    STQ     C$,,AUTO

     1153    22282    2         A$ = PINCRW (M@F$CFU$,C$->FM$CFU.ACCTX);

  22282  3 002746   200253 470500                    LDP0    C$,,AUTO
         3 002747   000002 220100                    LDX0    2,,PR0
         3 002750   000000 636010                    EAQ     0,X0
         3 002751   200013 036100                    ADLQ    M@F$CFU$,,AUTO
         3 002752   200254 756100                    STQ     A$,,AUTO

     1154    22283    2         ACCT = A$->FM$CFUA.ACCT;

  22283  3 002753   200254 471500                    LDP1    A$,,AUTO
         3 002754   040100 100500                    MLR     fill='040'O
         3 002755   100001 000010                    ADSC9   1,,PR1                   cn=0,n=8
         3 002756   200255 000010                    ADSC9   ACCT,,AUTO               cn=0,n=8

     1155    22284    2         PSN = ADDR (M@F$CFU$->FM$SETA (A$->FM$CFUA.SETX))->FM$SET.PSN;

  22284  3 002757   100000 236100                    LDQ     0,,PR1
         3 002760   000017 772000                    QRL     15
         3 002761   000143 376000 4                  ANQ     99
         3 002762   000002 736000                    QLS     2
         3 002763   200013 473500                    LDP3    M@F$CFU$,,AUTO
         3 002764   040100 100506                    MLR     fill='040'O
         3 002765   300000 400006                    ADSC9   0,Q,PR3                  cn=2,n=6
         3 002766   200257 000006                    ADSC9   PSN,,AUTO                cn=0,n=6

     1156    22285    3           DO WHILE (C$->FM$CFU.NAMEX < M@F$CFU$->FM$CFUX.CFUT);

  22285  3 002767   000002 720100                    LXL0    2,,PR0
         3 002770   300002 100100                    CMPX0   2,,PR3
         3 002771   003004 603000 3                  TRC     s:22288

     1157    22286    3           C$ = PINCRW (M@F$CFU$,C$->FM$CFU.NAMEX);

PL6.E3A0      #001=DAD$CGS File=DAD$CGS.:E05TSI                                  TUE 07/29/97 12:40 Page:176
  22286  3 002772   200253 470500                    LDP0    C$,,AUTO
         3 002773   000002 720100                    LXL0    2,,PR0
         3 002774   000000 636010                    EAQ     0,X0
         3 002775   200013 036100                    ADLQ    M@F$CFU$,,AUTO
         3 002776   200253 756100                    STQ     C$,,AUTO

     1158    22287    3           END;

  22287  3 002777   200253 470500                    LDP0    C$,,AUTO
         3 003000   000002 720100                    LXL0    2,,PR0
         3 003001   200013 471500                    LDP1    M@F$CFU$,,AUTO
         3 003002   100002 100100                    CMPX0   2,,PR1
         3 003003   002772 602000 3                  TNC     s:22286

     1159    22288    2         C$ = PINCRC (M@F$CFU$,C$->FM$CFU.NAMEX);

  22288  3 003004   000002 236100                    LDQ     2,,PR0
         3 003005   777777 376007                    ANQ     -1,DL
         3 003006   000020 736000                    QLS     16
         3 003007   200013 036100                    ADLQ    M@F$CFU$,,AUTO
         3 003010   200253 756100                    STQ     C$,,AUTO

     1160    22289    2         FNAME.L = C$->FM$CFUN.L;

  22289  3 003011   200253 470500                    LDP0    C$,,AUTO
         3 003012   000100 100500                    MLR     fill='000'O
         3 003013   000000 400001                    ADSC9   0,,PR0                   cn=2,n=1
         3 003014   200261 000001                    ADSC9   FNAME,,AUTO              cn=0,n=1

     1161    22290    2         FNAME.C = C$->FM$CFUN.C;

  22290  3 003015   000100 101500                    MRL     fill='000'O
         3 003016   000000 400001                    ADSC9   0,,PR0                   cn=2,n=1
         3 003017   200302 000002                    ADSC9   @B+1,,AUTO               cn=0,n=2
         3 003020   200302 220100                    LDX0    @B+1,,AUTO
         3 003021   040100 100540                    MLR     fill='040'O
         3 003022   000000 600010                    ADSC9   0,,PR0                   cn=3,n=*X0
PL6.E3A0      #001=DAD$CGS File=DAD$CGS.:E05TSI                                  TUE 07/29/97 12:40 Page:177
         3 003023   200261 200037                    ADSC9   FNAME,,AUTO              cn=1,n=31

     1162    22291    3           DO WHILE ('0'B);

  22291  3 003024   003041 710000 3                  TRA     s:22308

     1163    22292    3   NOCFU:
     1164    22293    3           DA_MAPERR = '0'B;

  22293  3 003025   000000 450000 xsym  NOCFU        STZ     DA_MAPERR

     1165    22294    3           PSN = 'cfu';

  22294  3 003026   040100 100400                    MLR     fill='040'O
         3 003027   001466 000003 2                  ADSC9   ERRFMT+23                cn=0,n=3
         3 003030   200257 000006                    ADSC9   PSN,,AUTO                cn=0,n=6

     1166    22295    3           ACCT = 'onto';

  22295  3 003031   040100 100400                    MLR     fill='040'O
         3 003032   001467 000004 2                  ADSC9   ERRFMT+24                cn=0,n=4
         3 003033   200255 000010                    ADSC9   ACCT,,AUTO               cn=0,n=8

     1167    22296    3           FNAME.L = LENGTHC ('can''t map');

  22296  3 003034   011000 236003                    LDQ     4608,DU
         3 003035   200261 552140                    STBQ    FNAME,'40'O,AUTO

     1168    22297    3           FNAME.C = 'can''t map';

  22297  3 003036   040100 100400                    MLR     fill='040'O
         3 003037   001470 000011 2                  ADSC9   ERRFMT+25                cn=0,n=9
         3 003040   200261 200037                    ADSC9   FNAME,,AUTO              cn=1,n=31

     1169    22298    3           END;

     1170    22299    2         CALL DAF$WRITE (VECTOR (CGSFMT),
PL6.E3A0      #001=DAD$CGS File=DAD$CGS.:E05TSI                                  TUE 07/29/97 12:40 Page:178
     1171    22300    2         VECTOR (CTXT),
     1172    22301    2         VECTOR (DSB),
     1173    22302    2         VECTOR (CFU),
     1174    22303    2         VECTOR (STA),
     1175    22304    2         VECTOR (AUSTA),
     1176    22305    2         VECTOR (AUSTAD),
     1177    22306    2         VECTOR (AUSTAN),
     1178    22307    2         VECTOR (TERMS),
     1179    22308    2         VECTOR (DCBS),

  22308  3 003041   777640 235007                    LDA     -96,DL
         3 003042   200302 452500                    STP2    @B+1,,AUTO
         3 003043   200302 236100                    LDQ     @B+1,,AUTO
         3 003044   000237 036003                    ADLQ    159,DU
         3 003045   200304 757100                    STAQ    @B+3,,AUTO
         3 003046   777640 235007                    LDA     -96,DL
         3 003047   200306 452500                    STP2    @B+5,,AUTO
         3 003050   200306 236100                    LDQ     @B+5,,AUTO
         3 003051   000240 036003                    ADLQ    160,DU
         3 003052   200310 757100                    STAQ    @B+7,,AUTO
         3 003053   777640 235007                    LDA     -96,DL
         3 003054   200312 452500                    STP2    @B+9,,AUTO
         3 003055   200312 236100                    LDQ     @B+9,,AUTO
         3 003056   000241 036003                    ADLQ    161,DU
         3 003057   200314 757100                    STAQ    @B+11,,AUTO
         3 003060   000054 235000 4                  LDA     44
         3 003061   200316 452500                    STP2    @B+13,,AUTO
         3 003062   200316 236100                    LDQ     @B+13,,AUTO
         3 003063   000251 036003                    ADLQ    169,DU
         3 003064   200320 757100                    STAQ    @B+15,,AUTO
         3 003065   777640 235007                    LDA     -96,DL
         3 003066   200322 452500                    STP2    @B+17,,AUTO
         3 003067   200322 236100                    LDQ     @B+17,,AUTO
         3 003070   000243 036003                    ADLQ    163,DU
         3 003071   200324 757100                    STAQ    @B+19,,AUTO
         3 003072   777640 235007                    LDA     -96,DL
         3 003073   200326 452500                    STP2    @B+21,,AUTO
PL6.E3A0      #001=DAD$CGS File=DAD$CGS.:E05TSI                                  TUE 07/29/97 12:40 Page:179
         3 003074   200326 236100                    LDQ     @B+21,,AUTO
         3 003075   000242 036003                    ADLQ    162,DU
         3 003076   200330 757100                    STAQ    @B+23,,AUTO
         3 003077   777640 235007                    LDA     -96,DL
         3 003100   200332 452500                    STP2    @B+25,,AUTO
         3 003101   200332 236100                    LDQ     @B+25,,AUTO
         3 003102   000244 036003                    ADLQ    164,DU
         3 003103   200334 757100                    STAQ    @B+27,,AUTO
         3 003104   777640 235007                    LDA     -96,DL
         3 003105   200336 452500                    STP2    @B+29,,AUTO
         3 003106   200336 236100                    LDQ     @B+29,,AUTO
         3 003107   000247 036003                    ADLQ    167,DU
         3 003110   200340 757100                    STAQ    @B+31,,AUTO
         3 003111   777640 235007                    LDA     -96,DL
         3 003112   200342 452500                    STP2    @B+33,,AUTO
         3 003113   200342 236100                    LDQ     @B+33,,AUTO
         3 003114   000250 036003                    ADLQ    168,DU
         3 003115   200344 757100                    STAQ    @B+35,,AUTO
         3 003116   000146 235000 4                  LDA     102
         3 003117   200346 452500                    STP2    @B+37,,AUTO
         3 003120   200346 236100                    LDQ     @B+37,,AUTO
         3 003121   000261 036003                    ADLQ    177,DU
         3 003122   200350 757100                    STAQ    @B+39,,AUTO
         3 003123   000054 235000 4                  LDA     44
         3 003124   200352 452500                    STP2    @B+41,,AUTO
         3 003125   200352 236100                    LDQ     @B+41,,AUTO
         3 003126   000255 036003                    ADLQ    173,DU
         3 003127   200354 757100                    STAQ    @B+43,,AUTO
         3 003130   000147 235000 4                  LDA     103
         3 003131   200356 452500                    STP2    @B+45,,AUTO
         3 003132   200356 236100                    LDQ     @B+45,,AUTO
         3 003133   000257 036003                    ADLQ    175,DU
         3 003134   200362 757100                    STAQ    @B+49,,AUTO
         3 003135   200304 237100                    LDAQ    @B+3,,AUTO
         3 003136   200360 757100                    STAQ    @B+47,,AUTO
         3 003137   200310 237100                    LDAQ    @B+7,,AUTO
         3 003140   200364 757100                    STAQ    @B+51,,AUTO
PL6.E3A0      #001=DAD$CGS File=DAD$CGS.:E05TSI                                  TUE 07/29/97 12:40 Page:180
         3 003141   200314 237100                    LDAQ    @B+11,,AUTO
         3 003142   200366 757100                    STAQ    @B+53,,AUTO
         3 003143   200320 237100                    LDAQ    @B+15,,AUTO
         3 003144   200370 757100                    STAQ    @B+55,,AUTO
         3 003145   200324 237100                    LDAQ    @B+19,,AUTO
         3 003146   200372 757100                    STAQ    @B+57,,AUTO
         3 003147   200330 237100                    LDAQ    @B+23,,AUTO
         3 003150   200374 757100                    STAQ    @B+59,,AUTO
         3 003151   200334 237100                    LDAQ    @B+27,,AUTO
         3 003152   200376 757100                    STAQ    @B+61,,AUTO
         3 003153   200340 237100                    LDAQ    @B+31,,AUTO
         3 003154   200400 757100                    STAQ    @B+63,,AUTO
         3 003155   200344 237100                    LDAQ    @B+35,,AUTO
         3 003156   200402 757100                    STAQ    @B+65,,AUTO
         3 003157   200350 237100                    LDAQ    @B+39,,AUTO
         3 003160   200404 757100                    STAQ    @B+67,,AUTO
         3 003161   200354 237100                    LDAQ    @B+43,,AUTO
         3 003162   200406 757100                    STAQ    @B+69,,AUTO
         3 003163   200362 237100                    LDAQ    @B+49,,AUTO
         3 003164   200410 757100                    STAQ    @B+71,,AUTO
         3 003165   200410 630500                    EPPR0   @B+71,,AUTO
         3 003166   200426 450500                    STP0    @B+85,,AUTO
         3 003167   200406 631500                    EPPR1   @B+69,,AUTO
         3 003170   200425 451500                    STP1    @B+84,,AUTO
         3 003171   200404 633500                    EPPR3   @B+67,,AUTO
         3 003172   200424 453500                    STP3    @B+83,,AUTO
         3 003173   200402 634500                    EPPR4   @B+65,,AUTO
         3 003174   200423 454500                    STP4    @B+82,,AUTO
         3 003175   200400 635500                    EPPR5   @B+63,,AUTO
         3 003176   200422 455500                    STP5    @B+81,,AUTO
         3 003177   200376 636500                    EPPR6   @B+61,,AUTO
         3 003200   200421 456500                    STP6    @B+80,,AUTO
         3 003201   200374 637500                    EPPR7   @B+59,,AUTO
         3 003202   200420 457500                    STP7    @B+79,,AUTO
         3 003203   200372 630500                    EPPR0   @B+57,,AUTO
         3 003204   200417 450500                    STP0    @B+78,,AUTO
         3 003205   200370 630500                    EPPR0   @B+55,,AUTO
PL6.E3A0      #001=DAD$CGS File=DAD$CGS.:E05TSI                                  TUE 07/29/97 12:40 Page:181
         3 003206   200416 450500                    STP0    @B+77,,AUTO
         3 003207   200366 630500                    EPPR0   @B+53,,AUTO
         3 003210   200415 450500                    STP0    @B+76,,AUTO
         3 003211   200364 630500                    EPPR0   @B+51,,AUTO
         3 003212   200414 450500                    STP0    @B+75,,AUTO
         3 003213   200360 630500                    EPPR0   @B+47,,AUTO
         3 003214   200413 450500                    STP0    @B+74,,AUTO
         3 003215   000151 236000 4                  LDQ     105
         3 003216   200412 756100                    STQ     @B+73,,AUTO
         3 003217   200412 630500                    EPPR0   @B+73,,AUTO
         3 003220   000000 220000 xsym               LDX0    DAF$WRITE
         3 003221   000150 631400 4                  EPPR1   104
         3 003222   000000 701010                    TSX1    0,X0
         3 003223   000000 011000                    NOP     0

     1180    22309    2         VECTOR (FNAME),
     1181    22310    2         VECTOR (ACCT),
     1182    22311    2         VECTOR (PSN));
     1183    22312    2         CALL DAM$MAP (CG$,M@CG$) ALTRET (MAPERR);

  22312  3 003224   200006 630500                    EPPR0   M@CG$,,AUTO
         3 003225   200303 450500                    STP0    @B+2,,AUTO
         3 003226   200005 631500                    EPPR1   CG$,,AUTO
         3 003227   200302 451500                    STP1    @B+1,,AUTO
         3 003230   200302 630500                    EPPR0   @B+1,,AUTO
         3 003231   000020 631400 xsym               EPPR1   B_VECTNIL+16
         3 003232   000000 701000 xent               TSX1    DAM$MAP
         3 003233   003235 702000 3                  TSX2    MAPERR

     1184    22313
     1185    22314    3           DO WHILE ('0'B);

  22314  3 003234   003242 710000 3                  TRA     RETN

     1186    22315    3   MAPERR:
     1187    22316    3           CALL DAA$ERRMSG;

PL6.E3A0      #001=DAD$CGS File=DAD$CGS.:E05TSI                                  TUE 07/29/97 12:40 Page:182
  22316  3 003235   000002 631400 xsym  MAPERR       EPPR1   B_VECTNIL+2
         3 003236   000000 701000 xent               TSX1    DAA$ERRMSG
         3 003237   000000 011000                    NOP     0

     1188    22317    3   ARET:
     1189    22318    3           ALTRETURN;

  22318  3 003240   200236 221300       ARET         LDX1  ! TEXTFIDL+2,,AUTO
         3 003241   000000 702211                    TSX2  ! 0,X1

     1190    22319    3           END;

     1191    22320
     1192    22321    2   RETN:
     1193    22322    2         RETURN;

  22322  3 003242   200236 221300       RETN         LDX1  ! TEXTFIDL+2,,AUTO
         3 003243   000001 702211                    TSX2  ! 1,X1

     1194    22323
     1195    22324    2   END DI1CG;
     1196    22325        /*I* NAME:        DI1CGMEM
     1197    22326             ENTRY:       DI1CGMEM
     1198    22327             CALL:        CALL DI1CGMEM  ALTRET (maperr);
     1199    22328             INPUT:       CG$ - Pointer to comgroup context block.
     1200    22329                          F$CFU$ - Pointer to CFU data segment.
     1201    22330                          M@F$CFU$ - Mapped pointer to CFU data segment.
     1202    22331                          MEMVAR - Area to keep system totals
     1203    22332             OUTPUT:      M@CG$ - Mapped pointer to comgroup context block.
     1204    22333             SCRATCH:     Mapping context, M@DSB$ .
     1205    22334             DESCRIPTION: The summary information is displayed for the comgroup
     1206    22335                          whose context block is at CG$. The fid of the CG is
     1207    22336                          obtained from the CFU (KQ$CG.CFU$), using code that
     1208    22337                          Harold ripped from Rumsey. ALTRETs if a mapping
     1209    22338                          error occurred, else RETURNs. */
     1210    22339
     1211    22340    1   DI1CGMEM: PROC ALTRET;
PL6.E3A0      #001=DAD$CGS File=DAD$CGS.:E05TSI                                  TUE 07/29/97 12:40 Page:183

  22340  3 003244   200236 741300       DI1CGMEM     STX1  ! TEXTFIDL+2,,AUTO

     1212    22341
     1213    22342    2   DCL CTXT UBIN;
     1214    22343    2   DCL CFU UBIN;
     1215    22344    2   DCL MAXBP UBIN;
     1216    22345    2   DCL MINBP UBIN;
     1217    22346    2   DCL CURBP UBIN;
     1218    22347    2   DCL MAXDP UBIN;
     1219    22348    2   DCL MINDP UBIN;
     1220    22349    2   DCL CURDP UBIN;
     1221    22350    2   DCL CURPG UBIN;
     1222    22351    2   DCL C$ PTR;
     1223    22352    2   DCL A$ PTR;
     1224    22353    2   DCL ACCT CHAR(8);
     1225    22354    2   DCL PSN CHAR(6);
     1226    22355    2   DCL 1 FNAME,
     1227    22356    2         2 L UBIN BYTE UNAL,
     1228    22357    2         2 C CHAR(31);
     1229    22358    2   DCL CFU$ PTR;
     1230    22359
     1231    22360    2         CALL VALPTR (CG$,B$CGCTXT$,,CTXT) ALTRET (ARET);

  22360  3 003245   000001 236000 xsym               LDQ     B_VECTNIL+1
         3 003246   000001 235000 xsym               LDA     B_VECTNIL+1
         3 003247   200300 757100                    STAQ    @N+1,,AUTO
         3 003250   000001 236000 xsym               LDQ     B_VECTNIL+1
         3 003251   200277 756100                    STQ     @W+1,,AUTO
         3 003252   200237 630500                    EPPR0   CTXT,,AUTO
         3 003253   200276 450500                    STP0    @D+1,,AUTO
         3 003254   000142 235000 4                  LDA     98
         3 003255   200274 757100                    STAQ    @PTR$+1,,AUTO
         3 003256   200005 631500                    EPPR1   CG$,,AUTO
         3 003257   200273 451500                    STP1    CFU$+2,,AUTO
         3 003260   011056 701000 3                  TSX1    VALPTR
         3 003261   003661 702000 3                  TSX2    ARET
PL6.E3A0      #001=DAD$CGS File=DAD$CGS.:E05TSI                                  TUE 07/29/97 12:40 Page:184

     1232    22361    2         CALL DAM$MAP (CG$,M@CG$) ALTRET (MAPERR);

  22361  3 003262   200006 630500                    EPPR0   M@CG$,,AUTO
         3 003263   200303 450500                    STP0    @B+2,,AUTO
         3 003264   200005 631500                    EPPR1   CG$,,AUTO
         3 003265   200302 451500                    STP1    @B+1,,AUTO
         3 003266   200302 630500                    EPPR0   @B+1,,AUTO
         3 003267   000020 631400 xsym               EPPR1   B_VECTNIL+16
         3 003270   000000 701000 xent               TSX1    DAM$MAP
         3 003271   003656 702000 3                  TSX2    MAPERR

     1233    22362    2         MAXBP = KQ$CG.MMD.MAXBPG;

  22362  3 003272   200006 470500                    LDP0    M@CG$,,AUTO
         3 003273   000010 236100                    LDQ     8,,PR0
         3 003274   777777 376007                    ANQ     -1,DL
         3 003275   200241 756100                    STQ     MAXBP,,AUTO

     1234    22363    2         MINBP = KQ$CG.MMD.MINBPG;

  22363  3 003276   000011 236100                    LDQ     9,,PR0
         3 003277   777777 376007                    ANQ     -1,DL
         3 003300   200242 756100                    STQ     MINBP,,AUTO

     1235    22364    2         CURBP = KQ$CG.MMD.CURBPG;

  22364  3 003301   000010 236100                    LDQ     8,,PR0
         3 003302   000022 772000                    QRL     18
         3 003303   200243 756100                    STQ     CURBP,,AUTO

     1236    22365    2         MAXDP = KQ$CG.MAXDATAPGS;

  22365  3 003304   000241 236100                    LDQ     161,,PR0
         3 003305   000022 772000                    QRL     18
         3 003306   200244 756100                    STQ     MAXDP,,AUTO

PL6.E3A0      #001=DAD$CGS File=DAD$CGS.:E05TSI                                  TUE 07/29/97 12:40 Page:185
     1237    22366    2         MINDP = KQ$CG.MINDATAPGS;

  22366  3 003307   000242 236100                    LDQ     162,,PR0
         3 003310   000022 772000                    QRL     18
         3 003311   200245 756100                    STQ     MINDP,,AUTO

     1238    22367    2         CURDP = KQ$CG.CURDATAPGS;

  22367  3 003312   000241 236100                    LDQ     161,,PR0
         3 003313   777777 376007                    ANQ     -1,DL
         3 003314   200246 756100                    STQ     CURDP,,AUTO

     1239    22368    2         CURPG = KQ$CG.MMD.CURPG;

  22368  3 003315   000006 235100                    LDA     6,,PR0
         3 003316   200247 755100                    STA     CURPG,,AUTO

     1240    22369    2         TMAXBP = TMAXBP + MAXBP;

  22369  3 003317   200210 236100                    LDQ     TMAXBP,,AUTO
         3 003320   200241 036100                    ADLQ    MAXBP,,AUTO
         3 003321   200210 756100                    STQ     TMAXBP,,AUTO

     1241    22370    2         TMINBP = TMINBP + MINBP;

  22370  3 003322   200211 236100                    LDQ     TMINBP,,AUTO
         3 003323   200242 036100                    ADLQ    MINBP,,AUTO
         3 003324   200211 756100                    STQ     TMINBP,,AUTO

     1242    22371    2         TCURBP = TCURBP + CURBP;

  22371  3 003325   200212 236100                    LDQ     TCURBP,,AUTO
         3 003326   200243 036100                    ADLQ    CURBP,,AUTO
         3 003327   200212 756100                    STQ     TCURBP,,AUTO

     1243    22372    2         TMAXDP = TMAXDP + MAXDP;

PL6.E3A0      #001=DAD$CGS File=DAD$CGS.:E05TSI                                  TUE 07/29/97 12:40 Page:186
  22372  3 003330   200213 236100                    LDQ     TMAXDP,,AUTO
         3 003331   200244 036100                    ADLQ    MAXDP,,AUTO
         3 003332   200213 756100                    STQ     TMAXDP,,AUTO

     1244    22373    2         TMINDP = TMINDP + MINDP;

  22373  3 003333   200214 236100                    LDQ     TMINDP,,AUTO
         3 003334   200245 036100                    ADLQ    MINDP,,AUTO
         3 003335   200214 756100                    STQ     TMINDP,,AUTO

     1245    22374    2         TCURDP = TCURDP + CURDP;

  22374  3 003336   200215 236100                    LDQ     TCURDP,,AUTO
         3 003337   200246 036100                    ADLQ    CURDP,,AUTO
         3 003340   200215 756100                    STQ     TCURDP,,AUTO

     1246    22375    2         TCURPG = TCURPG + CURPG;

  22375  3 003341   200216 236100                    LDQ     TCURPG,,AUTO
         3 003342   200247 036100                    ADLQ    CURPG,,AUTO
         3 003343   200216 756100                    STQ     TCURPG,,AUTO

     1247    22376    2         CFU$ = KQ$CG.CFU$;

  22376  3 003344   000214 236100                    LDQ     140,,PR0
         3 003345   200266 756100                    STQ     CFU$,,AUTO

     1248    22377    2         CALL VALPTR (CFU$,F$CFU$,,CFU) ALTRET (NOCFU);

  22377  3 003346   000001 236000 xsym               LDQ     B_VECTNIL+1
         3 003347   000001 235000 xsym               LDA     B_VECTNIL+1
         3 003350   200300 757100                    STAQ    @N+1,,AUTO
         3 003351   000001 236000 xsym               LDQ     B_VECTNIL+1
         3 003352   200277 756100                    STQ     @W+1,,AUTO
         3 003353   200240 631500                    EPPR1   CFU,,AUTO
         3 003354   200276 451500                    STP1    @D+1,,AUTO
         3 003355   200275 756100                    STQ     @VPTR$+1,,AUTO
PL6.E3A0      #001=DAD$CGS File=DAD$CGS.:E05TSI                                  TUE 07/29/97 12:40 Page:187
         3 003356   200012 633500                    EPPR3   F$CFU$,,AUTO
         3 003357   200274 453500                    STP3    @PTR$+1,,AUTO
         3 003360   200266 634500                    EPPR4   CFU$,,AUTO
         3 003361   200273 454500                    STP4    CFU$+2,,AUTO
         3 003362   011056 701000 3                  TSX1    VALPTR
         3 003363   003457 702000 3                  TSX2    NOCFU

     1249    22378    2         CALL DAM$MAP (F$CFU$,M@F$CFU$) ALTRET (NOCFU);

  22378  3 003364   200013 630500                    EPPR0   M@F$CFU$,,AUTO
         3 003365   200303 450500                    STP0    @B+2,,AUTO
         3 003366   200012 631500                    EPPR1   F$CFU$,,AUTO
         3 003367   200302 451500                    STP1    @B+1,,AUTO
         3 003370   200302 630500                    EPPR0   @B+1,,AUTO
         3 003371   000020 631400 xsym               EPPR1   B_VECTNIL+16
         3 003372   000000 701000 xent               TSX1    DAM$MAP
         3 003373   003457 702000 3                  TSX2    NOCFU

     1250    22379    2         C$ = PINCRW (M@F$CFU$,CFU);

  22379  3 003374   200240 236100                    LDQ     CFU,,AUTO
         3 003375   000022 736000                    QLS     18
         3 003376   200013 036100                    ADLQ    M@F$CFU$,,AUTO
         3 003377   200250 756100                    STQ     C$,,AUTO

     1251    22380    2         A$ = PINCRW (M@F$CFU$,C$->FM$CFU.ACCTX);

  22380  3 003400   200250 470500                    LDP0    C$,,AUTO
         3 003401   000002 220100                    LDX0    2,,PR0
         3 003402   000000 636010                    EAQ     0,X0
         3 003403   200013 036100                    ADLQ    M@F$CFU$,,AUTO
         3 003404   200251 756100                    STQ     A$,,AUTO

     1252    22381    2         ACCT = A$->FM$CFUA.ACCT;

  22381  3 003405   200251 471500                    LDP1    A$,,AUTO
         3 003406   040100 100500                    MLR     fill='040'O
PL6.E3A0      #001=DAD$CGS File=DAD$CGS.:E05TSI                                  TUE 07/29/97 12:40 Page:188
         3 003407   100001 000010                    ADSC9   1,,PR1                   cn=0,n=8
         3 003410   200252 000010                    ADSC9   ACCT,,AUTO               cn=0,n=8

     1253    22382    2         PSN = ADDR (M@F$CFU$->FM$SETA (A$->FM$CFUA.SETX))->FM$SET.PSN;

  22382  3 003411   100000 236100                    LDQ     0,,PR1
         3 003412   000017 772000                    QRL     15
         3 003413   000143 376000 4                  ANQ     99
         3 003414   000002 736000                    QLS     2
         3 003415   200013 473500                    LDP3    M@F$CFU$,,AUTO
         3 003416   040100 100506                    MLR     fill='040'O
         3 003417   300000 400006                    ADSC9   0,Q,PR3                  cn=2,n=6
         3 003420   200254 000006                    ADSC9   PSN,,AUTO                cn=0,n=6

     1254    22383    3           DO WHILE (C$->FM$CFU.NAMEX < M@F$CFU$->FM$CFUX.CFUT);

  22383  3 003421   000002 720100                    LXL0    2,,PR0
         3 003422   300002 100100                    CMPX0   2,,PR3
         3 003423   003436 603000 3                  TRC     s:22386

     1255    22384    3           C$ = PINCRW (M@F$CFU$,C$->FM$CFU.NAMEX);

  22384  3 003424   200250 470500                    LDP0    C$,,AUTO
         3 003425   000002 720100                    LXL0    2,,PR0
         3 003426   000000 636010                    EAQ     0,X0
         3 003427   200013 036100                    ADLQ    M@F$CFU$,,AUTO
         3 003430   200250 756100                    STQ     C$,,AUTO

     1256    22385    3           END;

  22385  3 003431   200250 470500                    LDP0    C$,,AUTO
         3 003432   000002 720100                    LXL0    2,,PR0
         3 003433   200013 471500                    LDP1    M@F$CFU$,,AUTO
         3 003434   100002 100100                    CMPX0   2,,PR1
         3 003435   003424 602000 3                  TNC     s:22384

     1257    22386    2         C$ = PINCRC (M@F$CFU$,C$->FM$CFU.NAMEX);
PL6.E3A0      #001=DAD$CGS File=DAD$CGS.:E05TSI                                  TUE 07/29/97 12:40 Page:189

  22386  3 003436   000002 236100                    LDQ     2,,PR0
         3 003437   777777 376007                    ANQ     -1,DL
         3 003440   000020 736000                    QLS     16
         3 003441   200013 036100                    ADLQ    M@F$CFU$,,AUTO
         3 003442   200250 756100                    STQ     C$,,AUTO

     1258    22387    2         FNAME.L = C$->FM$CFUN.L;

  22387  3 003443   200250 470500                    LDP0    C$,,AUTO
         3 003444   000100 100500                    MLR     fill='000'O
         3 003445   000000 400001                    ADSC9   0,,PR0                   cn=2,n=1
         3 003446   200256 000001                    ADSC9   FNAME,,AUTO              cn=0,n=1

     1259    22388    2         FNAME.C = C$->FM$CFUN.C;

  22388  3 003447   000100 101500                    MRL     fill='000'O
         3 003450   000000 400001                    ADSC9   0,,PR0                   cn=2,n=1
         3 003451   200302 000002                    ADSC9   @B+1,,AUTO               cn=0,n=2
         3 003452   200302 220100                    LDX0    @B+1,,AUTO
         3 003453   040100 100540                    MLR     fill='040'O
         3 003454   000000 600010                    ADSC9   0,,PR0                   cn=3,n=*X0
         3 003455   200256 200037                    ADSC9   FNAME,,AUTO              cn=1,n=31

     1260    22389    3           DO WHILE ('0'B);

  22389  3 003456   003473 710000 3                  TRA     s:22406

     1261    22390    3   NOCFU:
     1262    22391    3           DA_MAPERR = '0'B;

  22391  3 003457   000000 450000 xsym  NOCFU        STZ     DA_MAPERR

     1263    22392    3           PSN = 'cfu';

  22392  3 003460   040100 100400                    MLR     fill='040'O
         3 003461   001466 000003 2                  ADSC9   ERRFMT+23                cn=0,n=3
PL6.E3A0      #001=DAD$CGS File=DAD$CGS.:E05TSI                                  TUE 07/29/97 12:40 Page:190
         3 003462   200254 000006                    ADSC9   PSN,,AUTO                cn=0,n=6

     1264    22393    3           ACCT = 'onto';

  22393  3 003463   001467 235000 2                  LDA     ERRFMT+24
         3 003464   000035 236000 xsym               LDQ     B_VECTNIL+29
         3 003465   200252 757100                    STAQ    ACCT,,AUTO

     1265    22394    3           FNAME.L = LENGTHC ('can''t map');

  22394  3 003466   011000 236003                    LDQ     4608,DU
         3 003467   200256 552140                    STBQ    FNAME,'40'O,AUTO

     1266    22395    3           FNAME.C = 'can''t map';

  22395  3 003470   040100 100400                    MLR     fill='040'O
         3 003471   001470 000011 2                  ADSC9   ERRFMT+25                cn=0,n=9
         3 003472   200256 200037                    ADSC9   FNAME,,AUTO              cn=1,n=31

     1267    22396    3           END;

     1268    22397    2         CALL DAF$WRITE (VECTOR (CGMSFMT),
     1269    22398    2         VECTOR (CTXT),
     1270    22399    2         VECTOR(MAXBP),
     1271    22400    2         VECTOR(MINBP),
     1272    22401    2         VECTOR(CURBP),
     1273    22402    2         VECTOR(MAXDP),
     1274    22403    2         VECTOR(MINDP),
     1275    22404    2         VECTOR(CURDP),
     1276    22405    2         VECTOR(CURPG),
     1277    22406    2         VECTOR (FNAME),

  22406  3 003473   777640 235007                    LDA     -96,DL
         3 003474   200302 452500                    STP2    @B+1,,AUTO
         3 003475   200302 236100                    LDQ     @B+1,,AUTO
         3 003476   000237 036003                    ADLQ    159,DU
         3 003477   200304 757100                    STAQ    @B+3,,AUTO
PL6.E3A0      #001=DAD$CGS File=DAD$CGS.:E05TSI                                  TUE 07/29/97 12:40 Page:191
         3 003500   777640 235007                    LDA     -96,DL
         3 003501   200306 452500                    STP2    @B+5,,AUTO
         3 003502   200306 236100                    LDQ     @B+5,,AUTO
         3 003503   000241 036003                    ADLQ    161,DU
         3 003504   200310 757100                    STAQ    @B+7,,AUTO
         3 003505   777640 235007                    LDA     -96,DL
         3 003506   200312 452500                    STP2    @B+9,,AUTO
         3 003507   200312 236100                    LDQ     @B+9,,AUTO
         3 003510   000242 036003                    ADLQ    162,DU
         3 003511   200314 757100                    STAQ    @B+11,,AUTO
         3 003512   777640 235007                    LDA     -96,DL
         3 003513   200316 452500                    STP2    @B+13,,AUTO
         3 003514   200316 236100                    LDQ     @B+13,,AUTO
         3 003515   000243 036003                    ADLQ    163,DU
         3 003516   200320 757100                    STAQ    @B+15,,AUTO
         3 003517   777640 235007                    LDA     -96,DL
         3 003520   200322 452500                    STP2    @B+17,,AUTO
         3 003521   200322 236100                    LDQ     @B+17,,AUTO
         3 003522   000244 036003                    ADLQ    164,DU
         3 003523   200324 757100                    STAQ    @B+19,,AUTO
         3 003524   777640 235007                    LDA     -96,DL
         3 003525   200326 452500                    STP2    @B+21,,AUTO
         3 003526   200326 236100                    LDQ     @B+21,,AUTO
         3 003527   000245 036003                    ADLQ    165,DU
         3 003530   200330 757100                    STAQ    @B+23,,AUTO
         3 003531   777640 235007                    LDA     -96,DL
         3 003532   200332 452500                    STP2    @B+25,,AUTO
         3 003533   200332 236100                    LDQ     @B+25,,AUTO
         3 003534   000246 036003                    ADLQ    166,DU
         3 003535   200334 757100                    STAQ    @B+27,,AUTO
         3 003536   777640 235007                    LDA     -96,DL
         3 003537   200336 452500                    STP2    @B+29,,AUTO
         3 003540   200336 236100                    LDQ     @B+29,,AUTO
         3 003541   000247 036003                    ADLQ    167,DU
         3 003542   200340 757100                    STAQ    @B+31,,AUTO
         3 003543   000146 235000 4                  LDA     102
         3 003544   200342 452500                    STP2    @B+33,,AUTO
PL6.E3A0      #001=DAD$CGS File=DAD$CGS.:E05TSI                                  TUE 07/29/97 12:40 Page:192
         3 003545   200342 236100                    LDQ     @B+33,,AUTO
         3 003546   000256 036003                    ADLQ    174,DU
         3 003547   200344 757100                    STAQ    @B+35,,AUTO
         3 003550   000054 235000 4                  LDA     44
         3 003551   200346 452500                    STP2    @B+37,,AUTO
         3 003552   200346 236100                    LDQ     @B+37,,AUTO
         3 003553   000252 036003                    ADLQ    170,DU
         3 003554   200350 757100                    STAQ    @B+39,,AUTO
         3 003555   000147 235000 4                  LDA     103
         3 003556   200352 452500                    STP2    @B+41,,AUTO
         3 003557   200352 236100                    LDQ     @B+41,,AUTO
         3 003560   000254 036003                    ADLQ    172,DU
         3 003561   200356 757100                    STAQ    @B+45,,AUTO
         3 003562   200304 237100                    LDAQ    @B+3,,AUTO
         3 003563   200354 757100                    STAQ    @B+43,,AUTO
         3 003564   200310 237100                    LDAQ    @B+7,,AUTO
         3 003565   200360 757100                    STAQ    @B+47,,AUTO
         3 003566   200314 237100                    LDAQ    @B+11,,AUTO
         3 003567   200362 757100                    STAQ    @B+49,,AUTO
         3 003570   200320 237100                    LDAQ    @B+15,,AUTO
         3 003571   200364 757100                    STAQ    @B+51,,AUTO
         3 003572   200324 237100                    LDAQ    @B+19,,AUTO
         3 003573   200366 757100                    STAQ    @B+53,,AUTO
         3 003574   200330 237100                    LDAQ    @B+23,,AUTO
         3 003575   200370 757100                    STAQ    @B+55,,AUTO
         3 003576   200334 237100                    LDAQ    @B+27,,AUTO
         3 003577   200372 757100                    STAQ    @B+57,,AUTO
         3 003600   200340 237100                    LDAQ    @B+31,,AUTO
         3 003601   200374 757100                    STAQ    @B+59,,AUTO
         3 003602   200344 237100                    LDAQ    @B+35,,AUTO
         3 003603   200376 757100                    STAQ    @B+61,,AUTO
         3 003604   200350 237100                    LDAQ    @B+39,,AUTO
         3 003605   200400 757100                    STAQ    @B+63,,AUTO
         3 003606   200356 237100                    LDAQ    @B+45,,AUTO
         3 003607   200402 757100                    STAQ    @B+65,,AUTO
         3 003610   200402 630500                    EPPR0   @B+65,,AUTO
         3 003611   200417 450500                    STP0    @B+78,,AUTO
PL6.E3A0      #001=DAD$CGS File=DAD$CGS.:E05TSI                                  TUE 07/29/97 12:40 Page:193
         3 003612   200400 631500                    EPPR1   @B+63,,AUTO
         3 003613   200416 451500                    STP1    @B+77,,AUTO
         3 003614   200376 633500                    EPPR3   @B+61,,AUTO
         3 003615   200415 453500                    STP3    @B+76,,AUTO
         3 003616   200374 634500                    EPPR4   @B+59,,AUTO
         3 003617   200414 454500                    STP4    @B+75,,AUTO
         3 003620   200372 635500                    EPPR5   @B+57,,AUTO
         3 003621   200413 455500                    STP5    @B+74,,AUTO
         3 003622   200370 636500                    EPPR6   @B+55,,AUTO
         3 003623   200412 456500                    STP6    @B+73,,AUTO
         3 003624   200366 637500                    EPPR7   @B+53,,AUTO
         3 003625   200411 457500                    STP7    @B+72,,AUTO
         3 003626   200364 630500                    EPPR0   @B+51,,AUTO
         3 003627   200410 450500                    STP0    @B+71,,AUTO
         3 003630   200362 630500                    EPPR0   @B+49,,AUTO
         3 003631   200407 450500                    STP0    @B+70,,AUTO
         3 003632   200360 630500                    EPPR0   @B+47,,AUTO
         3 003633   200406 450500                    STP0    @B+69,,AUTO
         3 003634   200354 630500                    EPPR0   @B+43,,AUTO
         3 003635   200405 450500                    STP0    @B+68,,AUTO
         3 003636   000155 236000 4                  LDQ     109
         3 003637   200404 756100                    STQ     @B+67,,AUTO
         3 003640   200404 630500                    EPPR0   @B+67,,AUTO
         3 003641   000000 220000 xsym               LDX0    DAF$WRITE
         3 003642   000154 631400 4                  EPPR1   108
         3 003643   000000 701010                    TSX1    0,X0
         3 003644   000000 011000                    NOP     0

     1278    22407    2         VECTOR (ACCT),
     1279    22408    2         VECTOR (PSN));
     1280    22409    2         CALL DAM$MAP (CG$,M@CG$) ALTRET (MAPERR);

  22409  3 003645   200006 630500                    EPPR0   M@CG$,,AUTO
         3 003646   200303 450500                    STP0    @B+2,,AUTO
         3 003647   200005 631500                    EPPR1   CG$,,AUTO
         3 003650   200302 451500                    STP1    @B+1,,AUTO
         3 003651   200302 630500                    EPPR0   @B+1,,AUTO
PL6.E3A0      #001=DAD$CGS File=DAD$CGS.:E05TSI                                  TUE 07/29/97 12:40 Page:194
         3 003652   000020 631400 xsym               EPPR1   B_VECTNIL+16
         3 003653   000000 701000 xent               TSX1    DAM$MAP
         3 003654   003656 702000 3                  TSX2    MAPERR

     1281    22410
     1282    22411    3           DO WHILE ('0'B);

  22411  3 003655   003663 710000 3                  TRA     RETN

     1283    22412    3   MAPERR:
     1284    22413    3           CALL DAA$ERRMSG;

  22413  3 003656   000002 631400 xsym  MAPERR       EPPR1   B_VECTNIL+2
         3 003657   000000 701000 xent               TSX1    DAA$ERRMSG
         3 003660   000000 011000                    NOP     0

     1285    22414    3   ARET:
     1286    22415    3           ALTRETURN;

  22415  3 003661   200236 221300       ARET         LDX1  ! TEXTFIDL+2,,AUTO
         3 003662   000000 702211                    TSX2  ! 0,X1

     1287    22416    3           END;

     1288    22417
     1289    22418    2   RETN:
     1290    22419    2         RETURN;

  22419  3 003663   200236 221300       RETN         LDX1  ! TEXTFIDL+2,,AUTO
         3 003664   000001 702211                    TSX2  ! 1,X1

     1291    22420
     1292    22421    2   END DI1CGMEM;
     1293    22422        %EJECT;
PL6.E3A0      #001=DAD$CGS File=DAD$CGS.:E05TSI                                  TUE 07/29/97 12:40 Page:195
     1294    22423        %EJECT;
PL6.E3A0      #001=DAD$CGS File=DAD$CGS.:E05TSI                                  TUE 07/29/97 12:40 Page:196
     1295    22424
     1296    22425        /*I* NAME:        DIDATACACHE
     1297    22426             ENTRY:       DIDATACACHE
     1298    22427             CALL:        CALL DIDATACACHE ALTRET (error);
     1299    22428             INPUT:       M@CG$ - Mapped pointer to current comgroup.
     1300    22429             DESCRIPTION: Displays the data cache information from the current
     1301    22430                          comgroup context block. */
     1302    22431
     1303    22432    1   DIDATACACHE: PROC ALTRET;

  22432  3 003665   200236 741300       DIDATACACHE  STX1  ! TEXTFIDL+2,,AUTO

     1304    22433
     1305    22434    2   DCL DATA1 UBIN;
     1306    22435    2   DCL DATA1D UBIN;
     1307    22436    2   DCL DATA1N UBIN;
     1308    22437    2   DCL DATA2 UBIN;
     1309    22438    2   DCL DATA2D UBIN;
     1310    22439    2   DCL DATA2N UBIN;
     1311    22440    2   DCL DATA3 UBIN;
     1312    22441    2   DCL DATA3D UBIN;
     1313    22442    2   DCL DATA3N UBIN;
     1314    22443    2   DCL DATA4 UBIN;
     1315    22444    2   DCL DATA4D UBIN;
     1316    22445    2   DCL DATA4N UBIN;
     1317    22446
     1318    22447    2         CALL VALPTR (KQ$CG.NEEDPGHD$,AS0$,DATA1D,DATA1,DATA1N);

  22447  3 003666   000001 236000 xsym               LDQ     B_VECTNIL+1
         3 003667   000001 235000 xsym               LDA     B_VECTNIL+1
         3 003670   200300 757100                    STAQ    @N+1,,AUTO
         3 003671   200241 630500                    EPPR0   DATA1N,,AUTO
         3 003672   200277 450500                    STP0    @W+1,,AUTO
         3 003673   200237 631500                    EPPR1   DATA1,,AUTO
         3 003674   200276 451500                    STP1    @D+1,,AUTO
         3 003675   200240 633500                    EPPR3   DATA1D,,AUTO
         3 003676   200275 453500                    STP3    @VPTR$+1,,AUTO
PL6.E3A0      #001=DAD$CGS File=DAD$CGS.:E05TSI                                  TUE 07/29/97 12:40 Page:197
         3 003677   000040 236000 4                  LDQ     32
         3 003700   200274 756100                    STQ     @PTR$+1,,AUTO
         3 003701   200006 236100                    LDQ     M@CG$,,AUTO
         3 003702   000250 036003                    ADLQ    168,DU
         3 003703   200273 756100                    STQ     CFU$+2,,AUTO
         3 003704   011056 701000 3                  TSX1    VALPTR
         3 003705   000000 011000                    NOP     0

     1319    22448    2         CALL VALPTR (KQ$CG.IOHD$,AS0$,DATA2D,DATA2,DATA2N);

  22448  3 003706   000001 236000 xsym               LDQ     B_VECTNIL+1
         3 003707   000001 235000 xsym               LDA     B_VECTNIL+1
         3 003710   200300 757100                    STAQ    @N+1,,AUTO
         3 003711   200244 630500                    EPPR0   DATA2N,,AUTO
         3 003712   200277 450500                    STP0    @W+1,,AUTO
         3 003713   200242 631500                    EPPR1   DATA2,,AUTO
         3 003714   200276 451500                    STP1    @D+1,,AUTO
         3 003715   200243 633500                    EPPR3   DATA2D,,AUTO
         3 003716   200275 453500                    STP3    @VPTR$+1,,AUTO
         3 003717   000040 236000 4                  LDQ     32
         3 003720   200274 756100                    STQ     @PTR$+1,,AUTO
         3 003721   200006 236100                    LDQ     M@CG$,,AUTO
         3 003722   000246 036003                    ADLQ    166,DU
         3 003723   200273 756100                    STQ     CFU$+2,,AUTO
         3 003724   011056 701000 3                  TSX1    VALPTR
         3 003725   000000 011000                    NOP     0

     1320    22449    2         CALL VALPTR (KQ$CG.GETHD$,AS0$,DATA3D,DATA3,DATA3N);

  22449  3 003726   000001 236000 xsym               LDQ     B_VECTNIL+1
         3 003727   000001 235000 xsym               LDA     B_VECTNIL+1
         3 003730   200300 757100                    STAQ    @N+1,,AUTO
         3 003731   200247 630500                    EPPR0   DATA3N,,AUTO
         3 003732   200277 450500                    STP0    @W+1,,AUTO
         3 003733   200245 631500                    EPPR1   DATA3,,AUTO
         3 003734   200276 451500                    STP1    @D+1,,AUTO
         3 003735   200246 633500                    EPPR3   DATA3D,,AUTO
PL6.E3A0      #001=DAD$CGS File=DAD$CGS.:E05TSI                                  TUE 07/29/97 12:40 Page:198
         3 003736   200275 453500                    STP3    @VPTR$+1,,AUTO
         3 003737   000040 236000 4                  LDQ     32
         3 003740   200274 756100                    STQ     @PTR$+1,,AUTO
         3 003741   200006 236100                    LDQ     M@CG$,,AUTO
         3 003742   000257 036003                    ADLQ    175,DU
         3 003743   200273 756100                    STQ     CFU$+2,,AUTO
         3 003744   011056 701000 3                  TSX1    VALPTR
         3 003745   000000 011000                    NOP     0

     1321    22450    2         CALL VALPTR (KQ$CG.AVAIL.HD$,AS0$,DATA4D,DATA4,DATA4N);

  22450  3 003746   000001 236000 xsym               LDQ     B_VECTNIL+1
         3 003747   000001 235000 xsym               LDA     B_VECTNIL+1
         3 003750   200300 757100                    STAQ    @N+1,,AUTO
         3 003751   200252 630500                    EPPR0   DATA4N,,AUTO
         3 003752   200277 450500                    STP0    @W+1,,AUTO
         3 003753   200250 631500                    EPPR1   DATA4,,AUTO
         3 003754   200276 451500                    STP1    @D+1,,AUTO
         3 003755   200251 633500                    EPPR3   DATA4D,,AUTO
         3 003756   200275 453500                    STP3    @VPTR$+1,,AUTO
         3 003757   000040 236000 4                  LDQ     32
         3 003760   200274 756100                    STQ     @PTR$+1,,AUTO
         3 003761   200006 236100                    LDQ     M@CG$,,AUTO
         3 003762   000244 036003                    ADLQ    164,DU
         3 003763   200273 756100                    STQ     CFU$+2,,AUTO
         3 003764   011056 701000 3                  TSX1    VALPTR
         3 003765   000000 011000                    NOP     0

     1322    22451    2         CALL DAF$WRITE (VECTOR (DATFMT0), VECTOR (DATA1), VECTOR (DATA1D),
     1323    22452    2         VECTOR (DATA1N), VECTOR (DATA2), VECTOR (DATA2D), VECTOR (DATA2N),
     1324    22453    2         VECTOR (DATA3), VECTOR (DATA3D), VECTOR (DATA3N), VECTOR (DATA4),

  22453  3 003766   777640 235007                    LDA     -96,DL
         3 003767   200302 452500                    STP2    @B+1,,AUTO
         3 003770   200302 236100                    LDQ     @B+1,,AUTO
         3 003771   000237 036003                    ADLQ    159,DU
         3 003772   200304 757100                    STAQ    @B+3,,AUTO
PL6.E3A0      #001=DAD$CGS File=DAD$CGS.:E05TSI                                  TUE 07/29/97 12:40 Page:199
         3 003773   777640 235007                    LDA     -96,DL
         3 003774   200306 452500                    STP2    @B+5,,AUTO
         3 003775   200306 236100                    LDQ     @B+5,,AUTO
         3 003776   000240 036003                    ADLQ    160,DU
         3 003777   200310 757100                    STAQ    @B+7,,AUTO
         3 004000   777640 235007                    LDA     -96,DL
         3 004001   200312 452500                    STP2    @B+9,,AUTO
         3 004002   200312 236100                    LDQ     @B+9,,AUTO
         3 004003   000241 036003                    ADLQ    161,DU
         3 004004   200314 757100                    STAQ    @B+11,,AUTO
         3 004005   777640 235007                    LDA     -96,DL
         3 004006   200316 452500                    STP2    @B+13,,AUTO
         3 004007   200316 236100                    LDQ     @B+13,,AUTO
         3 004010   000242 036003                    ADLQ    162,DU
         3 004011   200320 757100                    STAQ    @B+15,,AUTO
         3 004012   777640 235007                    LDA     -96,DL
         3 004013   200322 452500                    STP2    @B+17,,AUTO
         3 004014   200322 236100                    LDQ     @B+17,,AUTO
         3 004015   000243 036003                    ADLQ    163,DU
         3 004016   200324 757100                    STAQ    @B+19,,AUTO
         3 004017   777640 235007                    LDA     -96,DL
         3 004020   200326 452500                    STP2    @B+21,,AUTO
         3 004021   200326 236100                    LDQ     @B+21,,AUTO
         3 004022   000244 036003                    ADLQ    164,DU
         3 004023   200330 757100                    STAQ    @B+23,,AUTO
         3 004024   777640 235007                    LDA     -96,DL
         3 004025   200332 452500                    STP2    @B+25,,AUTO
         3 004026   200332 236100                    LDQ     @B+25,,AUTO
         3 004027   000245 036003                    ADLQ    165,DU
         3 004030   200334 757100                    STAQ    @B+27,,AUTO
         3 004031   777640 235007                    LDA     -96,DL
         3 004032   200336 452500                    STP2    @B+29,,AUTO
         3 004033   200336 236100                    LDQ     @B+29,,AUTO
         3 004034   000246 036003                    ADLQ    166,DU
         3 004035   200340 757100                    STAQ    @B+31,,AUTO
         3 004036   777640 235007                    LDA     -96,DL
         3 004037   200342 452500                    STP2    @B+33,,AUTO
PL6.E3A0      #001=DAD$CGS File=DAD$CGS.:E05TSI                                  TUE 07/29/97 12:40 Page:200
         3 004040   200342 236100                    LDQ     @B+33,,AUTO
         3 004041   000247 036003                    ADLQ    167,DU
         3 004042   200344 757100                    STAQ    @B+35,,AUTO
         3 004043   777640 235007                    LDA     -96,DL
         3 004044   200346 452500                    STP2    @B+37,,AUTO
         3 004045   200346 236100                    LDQ     @B+37,,AUTO
         3 004046   000250 036003                    ADLQ    168,DU
         3 004047   200350 757100                    STAQ    @B+39,,AUTO
         3 004050   777640 235007                    LDA     -96,DL
         3 004051   200352 452500                    STP2    @B+41,,AUTO
         3 004052   200352 236100                    LDQ     @B+41,,AUTO
         3 004053   000251 036003                    ADLQ    169,DU
         3 004054   200354 757100                    STAQ    @B+43,,AUTO
         3 004055   777640 235007                    LDA     -96,DL
         3 004056   200356 452500                    STP2    @B+45,,AUTO
         3 004057   200356 236100                    LDQ     @B+45,,AUTO
         3 004060   000252 036003                    ADLQ    170,DU
         3 004061   200362 757100                    STAQ    @B+49,,AUTO
         3 004062   200304 237100                    LDAQ    @B+3,,AUTO
         3 004063   200360 757100                    STAQ    @B+47,,AUTO
         3 004064   200310 237100                    LDAQ    @B+7,,AUTO
         3 004065   200364 757100                    STAQ    @B+51,,AUTO
         3 004066   200314 237100                    LDAQ    @B+11,,AUTO
         3 004067   200366 757100                    STAQ    @B+53,,AUTO
         3 004070   200320 237100                    LDAQ    @B+15,,AUTO
         3 004071   200370 757100                    STAQ    @B+55,,AUTO
         3 004072   200324 237100                    LDAQ    @B+19,,AUTO
         3 004073   200372 757100                    STAQ    @B+57,,AUTO
         3 004074   200330 237100                    LDAQ    @B+23,,AUTO
         3 004075   200374 757100                    STAQ    @B+59,,AUTO
         3 004076   200334 237100                    LDAQ    @B+27,,AUTO
         3 004077   200376 757100                    STAQ    @B+61,,AUTO
         3 004100   200340 237100                    LDAQ    @B+31,,AUTO
         3 004101   200400 757100                    STAQ    @B+63,,AUTO
         3 004102   200344 237100                    LDAQ    @B+35,,AUTO
         3 004103   200402 757100                    STAQ    @B+65,,AUTO
         3 004104   200350 237100                    LDAQ    @B+39,,AUTO
PL6.E3A0      #001=DAD$CGS File=DAD$CGS.:E05TSI                                  TUE 07/29/97 12:40 Page:201
         3 004105   200404 757100                    STAQ    @B+67,,AUTO
         3 004106   200354 237100                    LDAQ    @B+43,,AUTO
         3 004107   200406 757100                    STAQ    @B+69,,AUTO
         3 004110   200362 237100                    LDAQ    @B+49,,AUTO
         3 004111   200410 757100                    STAQ    @B+71,,AUTO
         3 004112   200410 630500                    EPPR0   @B+71,,AUTO
         3 004113   200426 450500                    STP0    @B+85,,AUTO
         3 004114   200406 631500                    EPPR1   @B+69,,AUTO
         3 004115   200425 451500                    STP1    @B+84,,AUTO
         3 004116   200404 633500                    EPPR3   @B+67,,AUTO
         3 004117   200424 453500                    STP3    @B+83,,AUTO
         3 004120   200402 634500                    EPPR4   @B+65,,AUTO
         3 004121   200423 454500                    STP4    @B+82,,AUTO
         3 004122   200400 635500                    EPPR5   @B+63,,AUTO
         3 004123   200422 455500                    STP5    @B+81,,AUTO
         3 004124   200376 636500                    EPPR6   @B+61,,AUTO
         3 004125   200421 456500                    STP6    @B+80,,AUTO
         3 004126   200374 637500                    EPPR7   @B+59,,AUTO
         3 004127   200420 457500                    STP7    @B+79,,AUTO
         3 004130   200372 630500                    EPPR0   @B+57,,AUTO
         3 004131   200417 450500                    STP0    @B+78,,AUTO
         3 004132   200370 630500                    EPPR0   @B+55,,AUTO
         3 004133   200416 450500                    STP0    @B+77,,AUTO
         3 004134   200366 630500                    EPPR0   @B+53,,AUTO
         3 004135   200415 450500                    STP0    @B+76,,AUTO
         3 004136   200364 630500                    EPPR0   @B+51,,AUTO
         3 004137   200414 450500                    STP0    @B+75,,AUTO
         3 004140   200360 630500                    EPPR0   @B+47,,AUTO
         3 004141   200413 450500                    STP0    @B+74,,AUTO
         3 004142   000160 236000 4                  LDQ     112
         3 004143   200412 756100                    STQ     @B+73,,AUTO
         3 004144   200412 630500                    EPPR0   @B+73,,AUTO
         3 004145   000000 220000 xsym               LDX0    DAF$WRITE
         3 004146   000150 631400 4                  EPPR1   104
         3 004147   000000 701010                    TSX1    0,X0
         3 004150   000000 011000                    NOP     0

PL6.E3A0      #001=DAD$CGS File=DAD$CGS.:E05TSI                                  TUE 07/29/97 12:40 Page:202
     1325    22454    2         VECTOR (DATA4D), VECTOR (DATA4N));
     1326    22455    2         CALL VALPTR (KQ$CG.NEEDPGTL$,AS0$,DATA1D,DATA1,DATA1N);

  22455  3 004151   000001 236000 xsym               LDQ     B_VECTNIL+1
         3 004152   000001 235000 xsym               LDA     B_VECTNIL+1
         3 004153   200300 757100                    STAQ    @N+1,,AUTO
         3 004154   200241 630500                    EPPR0   DATA1N,,AUTO
         3 004155   200277 450500                    STP0    @W+1,,AUTO
         3 004156   200237 631500                    EPPR1   DATA1,,AUTO
         3 004157   200276 451500                    STP1    @D+1,,AUTO
         3 004160   200240 633500                    EPPR3   DATA1D,,AUTO
         3 004161   200275 453500                    STP3    @VPTR$+1,,AUTO
         3 004162   000040 236000 4                  LDQ     32
         3 004163   200274 756100                    STQ     @PTR$+1,,AUTO
         3 004164   200006 236100                    LDQ     M@CG$,,AUTO
         3 004165   000251 036003                    ADLQ    169,DU
         3 004166   200273 756100                    STQ     CFU$+2,,AUTO
         3 004167   011056 701000 3                  TSX1    VALPTR
         3 004170   000000 011000                    NOP     0

     1327    22456    2         CALL VALPTR (KQ$CG.IOTL$,AS0$,DATA2D,DATA2,DATA2N);

  22456  3 004171   000001 236000 xsym               LDQ     B_VECTNIL+1
         3 004172   000001 235000 xsym               LDA     B_VECTNIL+1
         3 004173   200300 757100                    STAQ    @N+1,,AUTO
         3 004174   200244 630500                    EPPR0   DATA2N,,AUTO
         3 004175   200277 450500                    STP0    @W+1,,AUTO
         3 004176   200242 631500                    EPPR1   DATA2,,AUTO
         3 004177   200276 451500                    STP1    @D+1,,AUTO
         3 004200   200243 633500                    EPPR3   DATA2D,,AUTO
         3 004201   200275 453500                    STP3    @VPTR$+1,,AUTO
         3 004202   000040 236000 4                  LDQ     32
         3 004203   200274 756100                    STQ     @PTR$+1,,AUTO
         3 004204   200006 236100                    LDQ     M@CG$,,AUTO
         3 004205   000247 036003                    ADLQ    167,DU
         3 004206   200273 756100                    STQ     CFU$+2,,AUTO
         3 004207   011056 701000 3                  TSX1    VALPTR
PL6.E3A0      #001=DAD$CGS File=DAD$CGS.:E05TSI                                  TUE 07/29/97 12:40 Page:203
         3 004210   000000 011000                    NOP     0

     1328    22457    2         CALL VALPTR (KQ$CG.GETTL$,AS0$,DATA3D,DATA3,DATA3N);

  22457  3 004211   000001 236000 xsym               LDQ     B_VECTNIL+1
         3 004212   000001 235000 xsym               LDA     B_VECTNIL+1
         3 004213   200300 757100                    STAQ    @N+1,,AUTO
         3 004214   200247 630500                    EPPR0   DATA3N,,AUTO
         3 004215   200277 450500                    STP0    @W+1,,AUTO
         3 004216   200245 631500                    EPPR1   DATA3,,AUTO
         3 004217   200276 451500                    STP1    @D+1,,AUTO
         3 004220   200246 633500                    EPPR3   DATA3D,,AUTO
         3 004221   200275 453500                    STP3    @VPTR$+1,,AUTO
         3 004222   000040 236000 4                  LDQ     32
         3 004223   200274 756100                    STQ     @PTR$+1,,AUTO
         3 004224   200006 236100                    LDQ     M@CG$,,AUTO
         3 004225   000260 036003                    ADLQ    176,DU
         3 004226   200273 756100                    STQ     CFU$+2,,AUTO
         3 004227   011056 701000 3                  TSX1    VALPTR
         3 004230   000000 011000                    NOP     0

     1329    22458    2         CALL VALPTR (KQ$CG.AVAIL.TL$,AS0$,DATA4D,DATA4,DATA4N);

  22458  3 004231   000001 236000 xsym               LDQ     B_VECTNIL+1
         3 004232   000001 235000 xsym               LDA     B_VECTNIL+1
         3 004233   200300 757100                    STAQ    @N+1,,AUTO
         3 004234   200252 630500                    EPPR0   DATA4N,,AUTO
         3 004235   200277 450500                    STP0    @W+1,,AUTO
         3 004236   200250 631500                    EPPR1   DATA4,,AUTO
         3 004237   200276 451500                    STP1    @D+1,,AUTO
         3 004240   200251 633500                    EPPR3   DATA4D,,AUTO
         3 004241   200275 453500                    STP3    @VPTR$+1,,AUTO
         3 004242   000040 236000 4                  LDQ     32
         3 004243   200274 756100                    STQ     @PTR$+1,,AUTO
         3 004244   200006 236100                    LDQ     M@CG$,,AUTO
         3 004245   000245 036003                    ADLQ    165,DU
         3 004246   200273 756100                    STQ     CFU$+2,,AUTO
PL6.E3A0      #001=DAD$CGS File=DAD$CGS.:E05TSI                                  TUE 07/29/97 12:40 Page:204
         3 004247   011056 701000 3                  TSX1    VALPTR
         3 004250   000000 011000                    NOP     0

     1330    22459    2         CALL DAF$WRITE (VECTOR (DATFMT1), VECTOR (DATA1), VECTOR (DATA1D),
     1331    22460    2         VECTOR (DATA1N), VECTOR (DATA2), VECTOR (DATA2D), VECTOR (DATA2N),
     1332    22461    2         VECTOR (DATA3), VECTOR (DATA3D), VECTOR (DATA3N), VECTOR (DATA4),

  22461  3 004251   777640 235007                    LDA     -96,DL
         3 004252   200302 452500                    STP2    @B+1,,AUTO
         3 004253   200302 236100                    LDQ     @B+1,,AUTO
         3 004254   000237 036003                    ADLQ    159,DU
         3 004255   200304 757100                    STAQ    @B+3,,AUTO
         3 004256   777640 235007                    LDA     -96,DL
         3 004257   200306 452500                    STP2    @B+5,,AUTO
         3 004260   200306 236100                    LDQ     @B+5,,AUTO
         3 004261   000240 036003                    ADLQ    160,DU
         3 004262   200310 757100                    STAQ    @B+7,,AUTO
         3 004263   777640 235007                    LDA     -96,DL
         3 004264   200312 452500                    STP2    @B+9,,AUTO
         3 004265   200312 236100                    LDQ     @B+9,,AUTO
         3 004266   000241 036003                    ADLQ    161,DU
         3 004267   200314 757100                    STAQ    @B+11,,AUTO
         3 004270   777640 235007                    LDA     -96,DL
         3 004271   200316 452500                    STP2    @B+13,,AUTO
         3 004272   200316 236100                    LDQ     @B+13,,AUTO
         3 004273   000242 036003                    ADLQ    162,DU
         3 004274   200320 757100                    STAQ    @B+15,,AUTO
         3 004275   777640 235007                    LDA     -96,DL
         3 004276   200322 452500                    STP2    @B+17,,AUTO
         3 004277   200322 236100                    LDQ     @B+17,,AUTO
         3 004300   000243 036003                    ADLQ    163,DU
         3 004301   200324 757100                    STAQ    @B+19,,AUTO
         3 004302   777640 235007                    LDA     -96,DL
         3 004303   200326 452500                    STP2    @B+21,,AUTO
         3 004304   200326 236100                    LDQ     @B+21,,AUTO
         3 004305   000244 036003                    ADLQ    164,DU
         3 004306   200330 757100                    STAQ    @B+23,,AUTO
PL6.E3A0      #001=DAD$CGS File=DAD$CGS.:E05TSI                                  TUE 07/29/97 12:40 Page:205
         3 004307   777640 235007                    LDA     -96,DL
         3 004310   200332 452500                    STP2    @B+25,,AUTO
         3 004311   200332 236100                    LDQ     @B+25,,AUTO
         3 004312   000245 036003                    ADLQ    165,DU
         3 004313   200334 757100                    STAQ    @B+27,,AUTO
         3 004314   777640 235007                    LDA     -96,DL
         3 004315   200336 452500                    STP2    @B+29,,AUTO
         3 004316   200336 236100                    LDQ     @B+29,,AUTO
         3 004317   000246 036003                    ADLQ    166,DU
         3 004320   200340 757100                    STAQ    @B+31,,AUTO
         3 004321   777640 235007                    LDA     -96,DL
         3 004322   200342 452500                    STP2    @B+33,,AUTO
         3 004323   200342 236100                    LDQ     @B+33,,AUTO
         3 004324   000247 036003                    ADLQ    167,DU
         3 004325   200344 757100                    STAQ    @B+35,,AUTO
         3 004326   777640 235007                    LDA     -96,DL
         3 004327   200346 452500                    STP2    @B+37,,AUTO
         3 004330   200346 236100                    LDQ     @B+37,,AUTO
         3 004331   000250 036003                    ADLQ    168,DU
         3 004332   200350 757100                    STAQ    @B+39,,AUTO
         3 004333   777640 235007                    LDA     -96,DL
         3 004334   200352 452500                    STP2    @B+41,,AUTO
         3 004335   200352 236100                    LDQ     @B+41,,AUTO
         3 004336   000251 036003                    ADLQ    169,DU
         3 004337   200354 757100                    STAQ    @B+43,,AUTO
         3 004340   777640 235007                    LDA     -96,DL
         3 004341   200356 452500                    STP2    @B+45,,AUTO
         3 004342   200356 236100                    LDQ     @B+45,,AUTO
         3 004343   000252 036003                    ADLQ    170,DU
         3 004344   200362 757100                    STAQ    @B+49,,AUTO
         3 004345   200304 237100                    LDAQ    @B+3,,AUTO
         3 004346   200360 757100                    STAQ    @B+47,,AUTO
         3 004347   200310 237100                    LDAQ    @B+7,,AUTO
         3 004350   200364 757100                    STAQ    @B+51,,AUTO
         3 004351   200314 237100                    LDAQ    @B+11,,AUTO
         3 004352   200366 757100                    STAQ    @B+53,,AUTO
         3 004353   200320 237100                    LDAQ    @B+15,,AUTO
PL6.E3A0      #001=DAD$CGS File=DAD$CGS.:E05TSI                                  TUE 07/29/97 12:40 Page:206
         3 004354   200370 757100                    STAQ    @B+55,,AUTO
         3 004355   200324 237100                    LDAQ    @B+19,,AUTO
         3 004356   200372 757100                    STAQ    @B+57,,AUTO
         3 004357   200330 237100                    LDAQ    @B+23,,AUTO
         3 004360   200374 757100                    STAQ    @B+59,,AUTO
         3 004361   200334 237100                    LDAQ    @B+27,,AUTO
         3 004362   200376 757100                    STAQ    @B+61,,AUTO
         3 004363   200340 237100                    LDAQ    @B+31,,AUTO
         3 004364   200400 757100                    STAQ    @B+63,,AUTO
         3 004365   200344 237100                    LDAQ    @B+35,,AUTO
         3 004366   200402 757100                    STAQ    @B+65,,AUTO
         3 004367   200350 237100                    LDAQ    @B+39,,AUTO
         3 004370   200404 757100                    STAQ    @B+67,,AUTO
         3 004371   200354 237100                    LDAQ    @B+43,,AUTO
         3 004372   200406 757100                    STAQ    @B+69,,AUTO
         3 004373   200362 237100                    LDAQ    @B+49,,AUTO
         3 004374   200410 757100                    STAQ    @B+71,,AUTO
         3 004375   200410 630500                    EPPR0   @B+71,,AUTO
         3 004376   200426 450500                    STP0    @B+85,,AUTO
         3 004377   200406 631500                    EPPR1   @B+69,,AUTO
         3 004400   200425 451500                    STP1    @B+84,,AUTO
         3 004401   200404 633500                    EPPR3   @B+67,,AUTO
         3 004402   200424 453500                    STP3    @B+83,,AUTO
         3 004403   200402 634500                    EPPR4   @B+65,,AUTO
         3 004404   200423 454500                    STP4    @B+82,,AUTO
         3 004405   200400 635500                    EPPR5   @B+63,,AUTO
         3 004406   200422 455500                    STP5    @B+81,,AUTO
         3 004407   200376 636500                    EPPR6   @B+61,,AUTO
         3 004410   200421 456500                    STP6    @B+80,,AUTO
         3 004411   200374 637500                    EPPR7   @B+59,,AUTO
         3 004412   200420 457500                    STP7    @B+79,,AUTO
         3 004413   200372 630500                    EPPR0   @B+57,,AUTO
         3 004414   200417 450500                    STP0    @B+78,,AUTO
         3 004415   200370 630500                    EPPR0   @B+55,,AUTO
         3 004416   200416 450500                    STP0    @B+77,,AUTO
         3 004417   200366 630500                    EPPR0   @B+53,,AUTO
         3 004420   200415 450500                    STP0    @B+76,,AUTO
PL6.E3A0      #001=DAD$CGS File=DAD$CGS.:E05TSI                                  TUE 07/29/97 12:40 Page:207
         3 004421   200364 630500                    EPPR0   @B+51,,AUTO
         3 004422   200414 450500                    STP0    @B+75,,AUTO
         3 004423   200360 630500                    EPPR0   @B+47,,AUTO
         3 004424   200413 450500                    STP0    @B+74,,AUTO
         3 004425   000164 236000 4                  LDQ     116
         3 004426   200412 756100                    STQ     @B+73,,AUTO
         3 004427   200412 630500                    EPPR0   @B+73,,AUTO
         3 004430   000000 220000 xsym               LDX0    DAF$WRITE
         3 004431   000150 631400 4                  EPPR1   104
         3 004432   000000 701010                    TSX1    0,X0
         3 004433   000000 011000                    NOP     0

     1333    22462    2         VECTOR (DATA4D), VECTOR (DATA4N));
     1334    22463    2         DATA1 = KQ$CG.NEEDPGCNT;

  22463  3 004434   200006 470500                    LDP0    M@CG$,,AUTO
         3 004435   000252 235100                    LDA     170,,PR0
         3 004436   200237 755100                    STA     DATA1,,AUTO

     1335    22464    2         DATA2 = KQ$CG.IOCNT;

  22464  3 004437   000225 236100                    LDQ     149,,PR0
         3 004440   777777 376007                    ANQ     -1,DL
         3 004441   200242 756100                    STQ     DATA2,,AUTO

     1336    22465    2         DATA3 = KQ$CG.GETFLG;

  22465  3 004442   000226 236100                    LDQ     150,,PR0
         3 004443   000033 772000                    QRL     27
         3 004444   200245 756100                    STQ     DATA3,,AUTO

     1337    22466    2         CALL DAF$WRITE (VECTOR (DATFMT2), VECTOR (DATA1), VECTOR (DATA2),

  22466  3 004445   777640 235007                    LDA     -96,DL
         3 004446   200302 452500                    STP2    @B+1,,AUTO
         3 004447   200302 236100                    LDQ     @B+1,,AUTO
         3 004450   000237 036003                    ADLQ    159,DU
PL6.E3A0      #001=DAD$CGS File=DAD$CGS.:E05TSI                                  TUE 07/29/97 12:40 Page:208
         3 004451   200304 757100                    STAQ    @B+3,,AUTO
         3 004452   777640 235007                    LDA     -96,DL
         3 004453   200306 452500                    STP2    @B+5,,AUTO
         3 004454   200306 236100                    LDQ     @B+5,,AUTO
         3 004455   000242 036003                    ADLQ    162,DU
         3 004456   200310 757100                    STAQ    @B+7,,AUTO
         3 004457   777640 235007                    LDA     -96,DL
         3 004460   200312 452500                    STP2    @B+9,,AUTO
         3 004461   200312 236100                    LDQ     @B+9,,AUTO
         3 004462   000245 036003                    ADLQ    165,DU
         3 004463   200316 757100                    STAQ    @B+13,,AUTO
         3 004464   200304 237100                    LDAQ    @B+3,,AUTO
         3 004465   200314 757100                    STAQ    @B+11,,AUTO
         3 004466   200310 237100                    LDAQ    @B+7,,AUTO
         3 004467   200320 757100                    STAQ    @B+15,,AUTO
         3 004470   200316 237100                    LDAQ    @B+13,,AUTO
         3 004471   200322 757100                    STAQ    @B+17,,AUTO
         3 004472   200322 631500                    EPPR1   @B+17,,AUTO
         3 004473   200327 451500                    STP1    @B+22,,AUTO
         3 004474   200320 633500                    EPPR3   @B+15,,AUTO
         3 004475   200326 453500                    STP3    @B+21,,AUTO
         3 004476   200314 634500                    EPPR4   @B+11,,AUTO
         3 004477   200325 454500                    STP4    @B+20,,AUTO
         3 004500   000170 236000 4                  LDQ     120
         3 004501   200324 756100                    STQ     @B+19,,AUTO
         3 004502   200324 630500                    EPPR0   @B+19,,AUTO
         3 004503   000000 220000 xsym               LDX0    DAF$WRITE
         3 004504   000022 631400 xsym               EPPR1   B_VECTNIL+18
         3 004505   000000 701010                    TSX1    0,X0
         3 004506   000000 011000                    NOP     0

     1338    22467    2         VECTOR (DATA3));
     1339    22468    2         CALL VALPTR (KQ$CG.DATAFREE$,AS0$,DATA1D,DATA1,DATA1N);

  22468  3 004507   000001 236000 xsym               LDQ     B_VECTNIL+1
         3 004510   000001 235000 xsym               LDA     B_VECTNIL+1
         3 004511   200300 757100                    STAQ    @N+1,,AUTO
PL6.E3A0      #001=DAD$CGS File=DAD$CGS.:E05TSI                                  TUE 07/29/97 12:40 Page:209
         3 004512   200241 630500                    EPPR0   DATA1N,,AUTO
         3 004513   200277 450500                    STP0    @W+1,,AUTO
         3 004514   200237 631500                    EPPR1   DATA1,,AUTO
         3 004515   200276 451500                    STP1    @D+1,,AUTO
         3 004516   200240 633500                    EPPR3   DATA1D,,AUTO
         3 004517   200275 453500                    STP3    @VPTR$+1,,AUTO
         3 004520   000040 236000 4                  LDQ     32
         3 004521   200274 756100                    STQ     @PTR$+1,,AUTO
         3 004522   200006 236100                    LDQ     M@CG$,,AUTO
         3 004523   000243 036003                    ADLQ    163,DU
         3 004524   200273 756100                    STQ     CFU$+2,,AUTO
         3 004525   011056 701000 3                  TSX1    VALPTR
         3 004526   000000 011000                    NOP     0

     1340    22469    2         CALL VALPTR (KQ$CG.IOQHD$,AS0$,DATA2D,DATA2,DATA2N);

  22469  3 004527   000001 236000 xsym               LDQ     B_VECTNIL+1
         3 004530   000001 235000 xsym               LDA     B_VECTNIL+1
         3 004531   200300 757100                    STAQ    @N+1,,AUTO
         3 004532   200244 630500                    EPPR0   DATA2N,,AUTO
         3 004533   200277 450500                    STP0    @W+1,,AUTO
         3 004534   200242 631500                    EPPR1   DATA2,,AUTO
         3 004535   200276 451500                    STP1    @D+1,,AUTO
         3 004536   200243 633500                    EPPR3   DATA2D,,AUTO
         3 004537   200275 453500                    STP3    @VPTR$+1,,AUTO
         3 004540   000040 236000 4                  LDQ     32
         3 004541   200274 756100                    STQ     @PTR$+1,,AUTO
         3 004542   200006 236100                    LDQ     M@CG$,,AUTO
         3 004543   000261 036003                    ADLQ    177,DU
         3 004544   200273 756100                    STQ     CFU$+2,,AUTO
         3 004545   011056 701000 3                  TSX1    VALPTR
         3 004546   000000 011000                    NOP     0

     1341    22470    2         CALL VALPTR (KQ$CG.DFRFREEHD$,AS0$,DATA3D,DATA3,DATA3N);

  22470  3 004547   000001 236000 xsym               LDQ     B_VECTNIL+1
         3 004550   000001 235000 xsym               LDA     B_VECTNIL+1
PL6.E3A0      #001=DAD$CGS File=DAD$CGS.:E05TSI                                  TUE 07/29/97 12:40 Page:210
         3 004551   200300 757100                    STAQ    @N+1,,AUTO
         3 004552   200247 630500                    EPPR0   DATA3N,,AUTO
         3 004553   200277 450500                    STP0    @W+1,,AUTO
         3 004554   200245 631500                    EPPR1   DATA3,,AUTO
         3 004555   200276 451500                    STP1    @D+1,,AUTO
         3 004556   200246 633500                    EPPR3   DATA3D,,AUTO
         3 004557   200275 453500                    STP3    @VPTR$+1,,AUTO
         3 004560   000040 236000 4                  LDQ     32
         3 004561   200274 756100                    STQ     @PTR$+1,,AUTO
         3 004562   200006 236100                    LDQ     M@CG$,,AUTO
         3 004563   000230 036003                    ADLQ    152,DU
         3 004564   200273 756100                    STQ     CFU$+2,,AUTO
         3 004565   011056 701000 3                  TSX1    VALPTR
         3 004566   000000 011000                    NOP     0

     1342    22471    2         DATA4 = KQ$CG.CURDATAPGS;

  22471  3 004567   200006 470500                    LDP0    M@CG$,,AUTO
         3 004570   000241 236100                    LDQ     161,,PR0
         3 004571   777777 376007                    ANQ     -1,DL
         3 004572   200250 756100                    STQ     DATA4,,AUTO

     1343    22472    2         CALL DAF$WRITE (VECTOR (DATFMT3), VECTOR (DATA1), VECTOR (DATA1D),
     1344    22473    2         VECTOR (DATA1N), VECTOR (DATA2), VECTOR (DATA2D), VECTOR (DATA2N),
     1345    22474    2         VECTOR (DATA3), VECTOR (DATA3D), VECTOR (DATA3N), VECTOR (DATA4));

  22474  3 004573   777640 235007                    LDA     -96,DL
         3 004574   200302 452500                    STP2    @B+1,,AUTO
         3 004575   200302 236100                    LDQ     @B+1,,AUTO
         3 004576   000237 036003                    ADLQ    159,DU
         3 004577   200304 757100                    STAQ    @B+3,,AUTO
         3 004600   777640 235007                    LDA     -96,DL
         3 004601   200306 452500                    STP2    @B+5,,AUTO
         3 004602   200306 236100                    LDQ     @B+5,,AUTO
         3 004603   000240 036003                    ADLQ    160,DU
         3 004604   200310 757100                    STAQ    @B+7,,AUTO
         3 004605   777640 235007                    LDA     -96,DL
PL6.E3A0      #001=DAD$CGS File=DAD$CGS.:E05TSI                                  TUE 07/29/97 12:40 Page:211
         3 004606   200312 452500                    STP2    @B+9,,AUTO
         3 004607   200312 236100                    LDQ     @B+9,,AUTO
         3 004610   000241 036003                    ADLQ    161,DU
         3 004611   200314 757100                    STAQ    @B+11,,AUTO
         3 004612   777640 235007                    LDA     -96,DL
         3 004613   200316 452500                    STP2    @B+13,,AUTO
         3 004614   200316 236100                    LDQ     @B+13,,AUTO
         3 004615   000242 036003                    ADLQ    162,DU
         3 004616   200320 757100                    STAQ    @B+15,,AUTO
         3 004617   777640 235007                    LDA     -96,DL
         3 004620   200322 452500                    STP2    @B+17,,AUTO
         3 004621   200322 236100                    LDQ     @B+17,,AUTO
         3 004622   000243 036003                    ADLQ    163,DU
         3 004623   200324 757100                    STAQ    @B+19,,AUTO
         3 004624   777640 235007                    LDA     -96,DL
         3 004625   200326 452500                    STP2    @B+21,,AUTO
         3 004626   200326 236100                    LDQ     @B+21,,AUTO
         3 004627   000244 036003                    ADLQ    164,DU
         3 004630   200330 757100                    STAQ    @B+23,,AUTO
         3 004631   777640 235007                    LDA     -96,DL
         3 004632   200332 452500                    STP2    @B+25,,AUTO
         3 004633   200332 236100                    LDQ     @B+25,,AUTO
         3 004634   000245 036003                    ADLQ    165,DU
         3 004635   200334 757100                    STAQ    @B+27,,AUTO
         3 004636   777640 235007                    LDA     -96,DL
         3 004637   200336 452500                    STP2    @B+29,,AUTO
         3 004640   200336 236100                    LDQ     @B+29,,AUTO
         3 004641   000246 036003                    ADLQ    166,DU
         3 004642   200340 757100                    STAQ    @B+31,,AUTO
         3 004643   777640 235007                    LDA     -96,DL
         3 004644   200342 452500                    STP2    @B+33,,AUTO
         3 004645   200342 236100                    LDQ     @B+33,,AUTO
         3 004646   000247 036003                    ADLQ    167,DU
         3 004647   200344 757100                    STAQ    @B+35,,AUTO
         3 004650   777640 235007                    LDA     -96,DL
         3 004651   200346 452500                    STP2    @B+37,,AUTO
         3 004652   200346 236100                    LDQ     @B+37,,AUTO
PL6.E3A0      #001=DAD$CGS File=DAD$CGS.:E05TSI                                  TUE 07/29/97 12:40 Page:212
         3 004653   000250 036003                    ADLQ    168,DU
         3 004654   200352 757100                    STAQ    @B+41,,AUTO
         3 004655   200304 237100                    LDAQ    @B+3,,AUTO
         3 004656   200350 757100                    STAQ    @B+39,,AUTO
         3 004657   200310 237100                    LDAQ    @B+7,,AUTO
         3 004660   200354 757100                    STAQ    @B+43,,AUTO
         3 004661   200314 237100                    LDAQ    @B+11,,AUTO
         3 004662   200356 757100                    STAQ    @B+45,,AUTO
         3 004663   200320 237100                    LDAQ    @B+15,,AUTO
         3 004664   200360 757100                    STAQ    @B+47,,AUTO
         3 004665   200324 237100                    LDAQ    @B+19,,AUTO
         3 004666   200362 757100                    STAQ    @B+49,,AUTO
         3 004667   200330 237100                    LDAQ    @B+23,,AUTO
         3 004670   200364 757100                    STAQ    @B+51,,AUTO
         3 004671   200334 237100                    LDAQ    @B+27,,AUTO
         3 004672   200366 757100                    STAQ    @B+53,,AUTO
         3 004673   200340 237100                    LDAQ    @B+31,,AUTO
         3 004674   200370 757100                    STAQ    @B+55,,AUTO
         3 004675   200344 237100                    LDAQ    @B+35,,AUTO
         3 004676   200372 757100                    STAQ    @B+57,,AUTO
         3 004677   200352 237100                    LDAQ    @B+41,,AUTO
         3 004700   200374 757100                    STAQ    @B+59,,AUTO
         3 004701   200374 631500                    EPPR1   @B+59,,AUTO
         3 004702   200410 451500                    STP1    @B+71,,AUTO
         3 004703   200372 633500                    EPPR3   @B+57,,AUTO
         3 004704   200407 453500                    STP3    @B+70,,AUTO
         3 004705   200370 634500                    EPPR4   @B+55,,AUTO
         3 004706   200406 454500                    STP4    @B+69,,AUTO
         3 004707   200366 635500                    EPPR5   @B+53,,AUTO
         3 004710   200405 455500                    STP5    @B+68,,AUTO
         3 004711   200364 636500                    EPPR6   @B+51,,AUTO
         3 004712   200404 456500                    STP6    @B+67,,AUTO
         3 004713   200362 637500                    EPPR7   @B+49,,AUTO
         3 004714   200403 457500                    STP7    @B+66,,AUTO
         3 004715   200360 630500                    EPPR0   @B+47,,AUTO
         3 004716   200402 450500                    STP0    @B+65,,AUTO
         3 004717   200356 630500                    EPPR0   @B+45,,AUTO
PL6.E3A0      #001=DAD$CGS File=DAD$CGS.:E05TSI                                  TUE 07/29/97 12:40 Page:213
         3 004720   200401 450500                    STP0    @B+64,,AUTO
         3 004721   200354 630500                    EPPR0   @B+43,,AUTO
         3 004722   200400 450500                    STP0    @B+63,,AUTO
         3 004723   200350 630500                    EPPR0   @B+39,,AUTO
         3 004724   200377 450500                    STP0    @B+62,,AUTO
         3 004725   000175 236000 4                  LDQ     125
         3 004726   200376 756100                    STQ     @B+61,,AUTO
         3 004727   200376 630500                    EPPR0   @B+61,,AUTO
         3 004730   000000 220000 xsym               LDX0    DAF$WRITE
         3 004731   000174 631400 4                  EPPR1   124
         3 004732   000000 701010                    TSX1    0,X0
         3 004733   000000 011000                    NOP     0

     1346    22475    2         DATA1 = KQ$CG.ADDFREE;

  22475  3 004734   200006 470500                    LDP0    M@CG$,,AUTO
         3 004735   000227 235100                    LDA     151,,PR0
         3 004736   200237 755100                    STA     DATA1,,AUTO

     1347    22476    2         CALL VALPTR (KQ$CG.IOQTL$,AS0$,DATA2D,DATA2,DATA2N);

  22476  3 004737   000001 236000 xsym               LDQ     B_VECTNIL+1
         3 004740   000001 235000 xsym               LDA     B_VECTNIL+1
         3 004741   200300 757100                    STAQ    @N+1,,AUTO
         3 004742   200244 631500                    EPPR1   DATA2N,,AUTO
         3 004743   200277 451500                    STP1    @W+1,,AUTO
         3 004744   200242 633500                    EPPR3   DATA2,,AUTO
         3 004745   200276 453500                    STP3    @D+1,,AUTO
         3 004746   200243 634500                    EPPR4   DATA2D,,AUTO
         3 004747   200275 454500                    STP4    @VPTR$+1,,AUTO
         3 004750   000040 236000 4                  LDQ     32
         3 004751   200274 756100                    STQ     @PTR$+1,,AUTO
         3 004752   200006 236100                    LDQ     M@CG$,,AUTO
         3 004753   000262 036003                    ADLQ    178,DU
         3 004754   200273 756100                    STQ     CFU$+2,,AUTO
         3 004755   011056 701000 3                  TSX1    VALPTR
         3 004756   000000 011000                    NOP     0
PL6.E3A0      #001=DAD$CGS File=DAD$CGS.:E05TSI                                  TUE 07/29/97 12:40 Page:214

     1348    22477    2         DATA3 = KQ$CG.NDFRBLKS;

  22477  3 004757   200006 470500                    LDP0    M@CG$,,AUTO
         3 004760   000225 236100                    LDQ     149,,PR0
         3 004761   000033 772000                    QRL     27
         3 004762   200245 756100                    STQ     DATA3,,AUTO

     1349    22478    2         DATA4 = KQ$CG.MINDATAPGS;

  22478  3 004763   000242 236100                    LDQ     162,,PR0
         3 004764   000022 772000                    QRL     18
         3 004765   200250 756100                    STQ     DATA4,,AUTO

     1350    22479    2         CALL DAF$WRITE (VECTOR (DATFMT4), VECTOR (DATA1), VECTOR (DATA2),

  22479  3 004766   777640 235007                    LDA     -96,DL
         3 004767   200302 452500                    STP2    @B+1,,AUTO
         3 004770   200302 236100                    LDQ     @B+1,,AUTO
         3 004771   000237 036003                    ADLQ    159,DU
         3 004772   200304 757100                    STAQ    @B+3,,AUTO
         3 004773   777640 235007                    LDA     -96,DL
         3 004774   200306 452500                    STP2    @B+5,,AUTO
         3 004775   200306 236100                    LDQ     @B+5,,AUTO
         3 004776   000242 036003                    ADLQ    162,DU
         3 004777   200310 757100                    STAQ    @B+7,,AUTO
         3 005000   777640 235007                    LDA     -96,DL
         3 005001   200312 452500                    STP2    @B+9,,AUTO
         3 005002   200312 236100                    LDQ     @B+9,,AUTO
         3 005003   000243 036003                    ADLQ    163,DU
         3 005004   200314 757100                    STAQ    @B+11,,AUTO
         3 005005   777640 235007                    LDA     -96,DL
         3 005006   200316 452500                    STP2    @B+13,,AUTO
         3 005007   200316 236100                    LDQ     @B+13,,AUTO
         3 005010   000244 036003                    ADLQ    164,DU
         3 005011   200320 757100                    STAQ    @B+15,,AUTO
         3 005012   777640 235007                    LDA     -96,DL
PL6.E3A0      #001=DAD$CGS File=DAD$CGS.:E05TSI                                  TUE 07/29/97 12:40 Page:215
         3 005013   200322 452500                    STP2    @B+17,,AUTO
         3 005014   200322 236100                    LDQ     @B+17,,AUTO
         3 005015   000245 036003                    ADLQ    165,DU
         3 005016   200324 757100                    STAQ    @B+19,,AUTO
         3 005017   777640 235007                    LDA     -96,DL
         3 005020   200326 452500                    STP2    @B+21,,AUTO
         3 005021   200326 236100                    LDQ     @B+21,,AUTO
         3 005022   000250 036003                    ADLQ    168,DU
         3 005023   200332 757100                    STAQ    @B+25,,AUTO
         3 005024   200304 237100                    LDAQ    @B+3,,AUTO
         3 005025   200330 757100                    STAQ    @B+23,,AUTO
         3 005026   200310 237100                    LDAQ    @B+7,,AUTO
         3 005027   200334 757100                    STAQ    @B+27,,AUTO
         3 005030   200314 237100                    LDAQ    @B+11,,AUTO
         3 005031   200336 757100                    STAQ    @B+29,,AUTO
         3 005032   200320 237100                    LDAQ    @B+15,,AUTO
         3 005033   200340 757100                    STAQ    @B+31,,AUTO
         3 005034   200324 237100                    LDAQ    @B+19,,AUTO
         3 005035   200342 757100                    STAQ    @B+33,,AUTO
         3 005036   200332 237100                    LDAQ    @B+25,,AUTO
         3 005037   200344 757100                    STAQ    @B+35,,AUTO
         3 005040   200344 631500                    EPPR1   @B+35,,AUTO
         3 005041   200354 451500                    STP1    @B+43,,AUTO
         3 005042   200342 633500                    EPPR3   @B+33,,AUTO
         3 005043   200353 453500                    STP3    @B+42,,AUTO
         3 005044   200340 634500                    EPPR4   @B+31,,AUTO
         3 005045   200352 454500                    STP4    @B+41,,AUTO
         3 005046   200336 635500                    EPPR5   @B+29,,AUTO
         3 005047   200351 455500                    STP5    @B+40,,AUTO
         3 005050   200334 636500                    EPPR6   @B+27,,AUTO
         3 005051   200350 456500                    STP6    @B+39,,AUTO
         3 005052   200330 637500                    EPPR7   @B+23,,AUTO
         3 005053   200347 457500                    STP7    @B+38,,AUTO
         3 005054   000200 236000 4                  LDQ     128
         3 005055   200346 756100                    STQ     @B+37,,AUTO
         3 005056   200346 630500                    EPPR0   @B+37,,AUTO
         3 005057   000000 220000 xsym               LDX0    DAF$WRITE
PL6.E3A0      #001=DAD$CGS File=DAD$CGS.:E05TSI                                  TUE 07/29/97 12:40 Page:216
         3 005060   000025 631400 xsym               EPPR1   B_VECTNIL+21
         3 005061   000000 701010                    TSX1    0,X0
         3 005062   000000 011000                    NOP     0

     1351    22480    2         VECTOR (DATA2D), VECTOR (DATA2N), VECTOR (DATA3), VECTOR (DATA4));
     1352    22481    2         DATA1 = KQ$CG.FREEDA;

  22481  3 005063   200006 470500                    LDP0    M@CG$,,AUTO
         3 005064   000226 236100                    LDQ     150,,PR0
         3 005065   000032 376000 xsym               ANQ     B_VECTNIL+26
         3 005066   200237 756100                    STQ     DATA1,,AUTO

     1353    22482    2         DATA2 = KQ$CG.UGRANS;

  22482  3 005067   000220 235100                    LDA     144,,PR0
         3 005070   200242 755100                    STA     DATA2,,AUTO

     1354    22483    2         DATA3 = KQ$CG.NGAVAL;

  22483  3 005071   000217 235100                    LDA     143,,PR0
         3 005072   200245 755100                    STA     DATA3,,AUTO

     1355    22484    2         DATA4 = KQ$CG.MAXDATAPGS;

  22484  3 005073   000241 236100                    LDQ     161,,PR0
         3 005074   000022 772000                    QRL     18
         3 005075   200250 756100                    STQ     DATA4,,AUTO

     1356    22485    2         CALL DAF$WRITE (VECTOR (DATFMT5), VECTOR (DATA1), VECTOR (DATA2),

  22485  3 005076   777640 235007                    LDA     -96,DL
         3 005077   200302 452500                    STP2    @B+1,,AUTO
         3 005100   200302 236100                    LDQ     @B+1,,AUTO
         3 005101   000237 036003                    ADLQ    159,DU
         3 005102   200304 757100                    STAQ    @B+3,,AUTO
         3 005103   777640 235007                    LDA     -96,DL
         3 005104   200306 452500                    STP2    @B+5,,AUTO
PL6.E3A0      #001=DAD$CGS File=DAD$CGS.:E05TSI                                  TUE 07/29/97 12:40 Page:217
         3 005105   200306 236100                    LDQ     @B+5,,AUTO
         3 005106   000242 036003                    ADLQ    162,DU
         3 005107   200310 757100                    STAQ    @B+7,,AUTO
         3 005110   777640 235007                    LDA     -96,DL
         3 005111   200312 452500                    STP2    @B+9,,AUTO
         3 005112   200312 236100                    LDQ     @B+9,,AUTO
         3 005113   000245 036003                    ADLQ    165,DU
         3 005114   200314 757100                    STAQ    @B+11,,AUTO
         3 005115   777640 235007                    LDA     -96,DL
         3 005116   200316 452500                    STP2    @B+13,,AUTO
         3 005117   200316 236100                    LDQ     @B+13,,AUTO
         3 005120   000250 036003                    ADLQ    168,DU
         3 005121   200322 757100                    STAQ    @B+17,,AUTO
         3 005122   200304 237100                    LDAQ    @B+3,,AUTO
         3 005123   200320 757100                    STAQ    @B+15,,AUTO
         3 005124   200310 237100                    LDAQ    @B+7,,AUTO
         3 005125   200324 757100                    STAQ    @B+19,,AUTO
         3 005126   200314 237100                    LDAQ    @B+11,,AUTO
         3 005127   200326 757100                    STAQ    @B+21,,AUTO
         3 005130   200322 237100                    LDAQ    @B+17,,AUTO
         3 005131   200330 757100                    STAQ    @B+23,,AUTO
         3 005132   200330 631500                    EPPR1   @B+23,,AUTO
         3 005133   200336 451500                    STP1    @B+29,,AUTO
         3 005134   200326 633500                    EPPR3   @B+21,,AUTO
         3 005135   200335 453500                    STP3    @B+28,,AUTO
         3 005136   200324 634500                    EPPR4   @B+19,,AUTO
         3 005137   200334 454500                    STP4    @B+27,,AUTO
         3 005140   200320 635500                    EPPR5   @B+15,,AUTO
         3 005141   200333 455500                    STP5    @B+26,,AUTO
         3 005142   000204 236000 4                  LDQ     132
         3 005143   200332 756100                    STQ     @B+25,,AUTO
         3 005144   200332 630500                    EPPR0   @B+25,,AUTO
         3 005145   000000 220000 xsym               LDX0    DAF$WRITE
         3 005146   000023 631400 xsym               EPPR1   B_VECTNIL+19
         3 005147   000000 701010                    TSX1    0,X0
         3 005150   000000 011000                    NOP     0

PL6.E3A0      #001=DAD$CGS File=DAD$CGS.:E05TSI                                  TUE 07/29/97 12:40 Page:218
     1357    22486    2         VECTOR (DATA3), VECTOR (DATA4));
     1358    22487
     1359    22488    2         RETURN;

  22488  3 005151   200236 221300                    LDX1  ! TEXTFIDL+2,,AUTO
         3 005152   000001 702211                    TSX2  ! 1,X1

     1360    22489
     1361    22490    2   END DIDATACACHE;
     1362    22491
     1363    22492        %EJECT;
PL6.E3A0      #001=DAD$CGS File=DAD$CGS.:E05TSI                                  TUE 07/29/97 12:40 Page:219
     1364    22493
     1365    22494        /*I* NAME:        DIMLH
     1366    22495             ENTRY:       DIMLH
     1367    22496             CALL:        CALL DIMLH ALTRET(error);
     1368    22497             INPUT:       CUR$ - Unmapped pointer to current STATION or MSGTYP node
     1369    22498                          MLH$ - Unmapped pointer to current MLH (within CUR$ node)
     1370    22499             SCRATCH:     Mapping context.
     1371    22500             DESCRIPTION: DIMLH displays the information within the MLH referenced
     1372    22501                          by MLH$. */
     1373    22502
     1374    22503    1   DIMLH: PROC ALTRET;

  22503  3 005153   200236 741300       DIMLH        STX1  ! TEXTFIDL+2,,AUTO

     1375    22504
     1376    22505    2         MLHD = '0'B;

  22505  3 005154   003100 060400                    CSL     bolr='003'O
         3 005155   000002 000001 xsym               BDSC    B_VECTNIL+2              by=0,bit=0,n=1
         3 005156   200033 001300                    BDSC    MLHD,,AUTO               by=0,bit=0,n=704

     1377    22506    2         MLHD.X.N = 'MLHmperr';

  22506  3 005157   040100 100400                    MLR     fill='040'O
         3 005160   001473 000010 2                  ADSC9   ERRFMT+28                cn=0,n=8
         3 005161   200035 000010                    ADSC9   MLHD+2,,AUTO             cn=0,n=8

     1378    22507    2         CALL VALPTR (MLH$,AS0$,MLHD.X.D,MLHD.X.W);

  22507  3 005162   000001 236000 xsym               LDQ     B_VECTNIL+1
         3 005163   000001 235000 xsym               LDA     B_VECTNIL+1
         3 005164   200300 757100                    STAQ    @N+1,,AUTO
         3 005165   000001 236000 xsym               LDQ     B_VECTNIL+1
         3 005166   200277 756100                    STQ     @W+1,,AUTO
         3 005167   200033 630500                    EPPR0   MLHD,,AUTO
         3 005170   200276 450500                    STP0    @D+1,,AUTO
         3 005171   200034 631500                    EPPR1   MLHD+1,,AUTO
PL6.E3A0      #001=DAD$CGS File=DAD$CGS.:E05TSI                                  TUE 07/29/97 12:40 Page:220
         3 005172   200275 451500                    STP1    @VPTR$+1,,AUTO
         3 005173   000040 236000 4                  LDQ     32
         3 005174   200274 756100                    STQ     @PTR$+1,,AUTO
         3 005175   200016 633500                    EPPR3   MLH$,,AUTO
         3 005176   200273 453500                    STP3    CFU$+2,,AUTO
         3 005177   011056 701000 3                  TSX1    VALPTR
         3 005200   000000 011000                    NOP     0

     1379    22508    2         CALL DAM$MAP (MLH$,M@MLH$) ALTRET (MLHERR);

  22508  3 005201   200017 630500                    EPPR0   M@MLH$,,AUTO
         3 005202   200303 450500                    STP0    @B+2,,AUTO
         3 005203   200016 631500                    EPPR1   MLH$,,AUTO
         3 005204   200302 451500                    STP1    @B+1,,AUTO
         3 005205   200302 630500                    EPPR0   @B+1,,AUTO
         3 005206   000020 631400 xsym               EPPR1   B_VECTNIL+16
         3 005207   000000 701000 xent               TSX1    DAM$MAP
         3 005210   005375 702000 3                  TSX2    MLHERR

     1380    22509    2         MLHD.X.N = 'NODmperr';

  22509  3 005211   040100 100400                    MLR     fill='040'O
         3 005212   001475 000010 2                  ADSC9   ERRFMT+30                cn=0,n=8
         3 005213   200035 000010                    ADSC9   MLHD+2,,AUTO             cn=0,n=8

     1381    22510    2         MLHD.Q = M@MLH$->KQ$MLH.QUEUE;

  22510  3 005214   200017 470500                    LDP0    M@MLH$,,AUTO
         3 005215   000003 236100                    LDQ     3,,PR0
         3 005216   000030 772000                    QRL     24
         3 005217   000001 376007                    ANQ     1,DL
         3 005220   200037 756100                    STQ     MLHD+4,,AUTO

     1382    22511    2         CALL VALPTR (M@MLH$->KQ$MLH.HEAD$,AS0$,MLHD.H.D,MLHD.H.W,MLHD.H.N);

  22511  3 005221   000001 236000 xsym               LDQ     B_VECTNIL+1
         3 005222   000001 235000 xsym               LDA     B_VECTNIL+1
PL6.E3A0      #001=DAD$CGS File=DAD$CGS.:E05TSI                                  TUE 07/29/97 12:40 Page:221
         3 005223   200300 757100                    STAQ    @N+1,,AUTO
         3 005224   200042 631500                    EPPR1   MLHD+7,,AUTO
         3 005225   200277 451500                    STP1    @W+1,,AUTO
         3 005226   200040 633500                    EPPR3   MLHD+5,,AUTO
         3 005227   200276 453500                    STP3    @D+1,,AUTO
         3 005230   200041 634500                    EPPR4   MLHD+6,,AUTO
         3 005231   200275 454500                    STP4    @VPTR$+1,,AUTO
         3 005232   000040 236000 4                  LDQ     32
         3 005233   200274 756100                    STQ     @PTR$+1,,AUTO
         3 005234   200017 236100                    LDQ     M@MLH$,,AUTO
         3 005235   200273 756100                    STQ     CFU$+2,,AUTO
         3 005236   011056 701000 3                  TSX1    VALPTR
         3 005237   000000 011000                    NOP     0

     1383    22512    2         CALL VALPTR (M@MLH$->KQ$MLH.TAIL$,AS0$,MLHD.T.D,MLHD.T.W,MLHD.T.N);

  22512  3 005240   000001 236000 xsym               LDQ     B_VECTNIL+1
         3 005241   000001 235000 xsym               LDA     B_VECTNIL+1
         3 005242   200300 757100                    STAQ    @N+1,,AUTO
         3 005243   200045 630500                    EPPR0   MLHD+10,,AUTO
         3 005244   200277 450500                    STP0    @W+1,,AUTO
         3 005245   200043 631500                    EPPR1   MLHD+8,,AUTO
         3 005246   200276 451500                    STP1    @D+1,,AUTO
         3 005247   200044 633500                    EPPR3   MLHD+9,,AUTO
         3 005250   200275 453500                    STP3    @VPTR$+1,,AUTO
         3 005251   000040 236000 4                  LDQ     32
         3 005252   200274 756100                    STQ     @PTR$+1,,AUTO
         3 005253   200017 236100                    LDQ     M@MLH$,,AUTO
         3 005254   000001 036003                    ADLQ    1,DU
         3 005255   200273 756100                    STQ     CFU$+2,,AUTO
         3 005256   011056 701000 3                  TSX1    VALPTR
         3 005257   000000 011000                    NOP     0

     1384    22513    2         TEMP$ = M@MLH$->KQ$MLH.DELAY$;

  22513  3 005260   200017 470500                    LDP0    M@MLH$,,AUTO
         3 005261   000002 236100                    LDQ     2,,PR0
PL6.E3A0      #001=DAD$CGS File=DAD$CGS.:E05TSI                                  TUE 07/29/97 12:40 Page:222
         3 005262   200024 756100                    STQ     TEMP$,,AUTO

     1385    22514    2         ADDR(TEMP$)->KQ$DPTR.X = '0'B;

  22514  3 005263   000000 236003                    LDQ     0,DU
         3 005264   200024 752104                    STCQ    TEMP$,'04'O,AUTO

     1386    22515    2         CALL VALPTR (TEMP$,AS0$,MLHD.D.D,MLHD.D.W,MLHD.D.N);

  22515  3 005265   000001 236000 xsym               LDQ     B_VECTNIL+1
         3 005266   000001 235000 xsym               LDA     B_VECTNIL+1
         3 005267   200300 757100                    STAQ    @N+1,,AUTO
         3 005270   200050 631500                    EPPR1   MLHD+13,,AUTO
         3 005271   200277 451500                    STP1    @W+1,,AUTO
         3 005272   200046 633500                    EPPR3   MLHD+11,,AUTO
         3 005273   200276 453500                    STP3    @D+1,,AUTO
         3 005274   200047 634500                    EPPR4   MLHD+12,,AUTO
         3 005275   200275 454500                    STP4    @VPTR$+1,,AUTO
         3 005276   000040 236000 4                  LDQ     32
         3 005277   200274 756100                    STQ     @PTR$+1,,AUTO
         3 005300   200024 635500                    EPPR5   TEMP$,,AUTO
         3 005301   200273 455500                    STP5    CFU$+2,,AUTO
         3 005302   011056 701000 3                  TSX1    VALPTR
         3 005303   000000 011000                    NOP     0

     1387    22516    2         MLHD.S = M@MLH$->KQ$MLH.SUPERCNT;

  22516  3 005304   200017 470500                    LDP0    M@MLH$,,AUTO
         3 005305   000004 236100                    LDQ     4,,PR0
         3 005306   777777 376007                    ANQ     -1,DL
         3 005307   200051 756100                    STQ     MLHD+14,,AUTO

     1388    22517    2         MLHD.C = M@MLH$->KQ$MLH.COUNT;

  22517  3 005310   000005 235100                    LDA     5,,PR0
         3 005311   200052 755100                    STA     MLHD+15,,AUTO

PL6.E3A0      #001=DAD$CGS File=DAD$CGS.:E05TSI                                  TUE 07/29/97 12:40 Page:223
     1389    22518    2         IF M@MLH$->KQ$MLH.BUSY.RIP

  22518  3 005312   000003 236100                    LDQ     3,,PR0
         3 005313   000400 316003                    CANQ    256,DU
         3 005314   005322 600000 3                  TZE     s:22520

     1390    22519    2         THEN MLHD.B = 'RIP';

  22519  3 005315   001477 236000 2                  LDQ     ERRFMT+32
         3 005316   000205 376000 4                  ANQ     133
         3 005317   000040 276007                    ORQ     32,DL
         3 005320   200053 756100                    STQ     MLHD+16,,AUTO
         3 005321   005333 710000 3                  TRA     s:22523

     1391    22520    2         ELSE IF M@MLH$->KQ$MLH.BUSY.GIP

  22520  3 005322   000200 316003                    CANQ    128,DU
         3 005323   005331 600000 3                  TZE     s:22522

     1392    22521    2           THEN MLHD.B = 'GIP';

  22521  3 005324   001500 236000 2                  LDQ     ERRFMT+33
         3 005325   000205 376000 4                  ANQ     133
         3 005326   000040 276007                    ORQ     32,DL
         3 005327   200053 756100                    STQ     MLHD+16,,AUTO
         3 005330   005333 710000 3                  TRA     s:22523

     1393    22522    2           ELSE MLHD.B = ' ';

  22522  3 005331   000035 236000 xsym               LDQ     B_VECTNIL+29
         3 005332   200053 756100                    STQ     MLHD+16,,AUTO

     1394    22523    2         MLHD.RUSR = M@MLH$->KQ$MLH.RUSR#;

  22523  3 005333   000003 236100                    LDQ     3,,PR0
         3 005334   000033 772000                    QRL     27
         3 005335   200054 756100                    STQ     MLHD+17,,AUTO
PL6.E3A0      #001=DAD$CGS File=DAD$CGS.:E05TSI                                  TUE 07/29/97 12:40 Page:224

     1395    22524    2         IF M@MLH$->KQ$MLH.GACT THEN MLHD.G=1;

  22524  3 005336   000003 236100                    LDQ     3,,PR0
         3 005337   000040 316003                    CANQ    32,DU
         3 005340   005343 600000 3                  TZE     s:22525

  22524  3 005341   000001 235007                    LDA     1,DL
         3 005342   200055 755100                    STA     MLHD+18,,AUTO

     1396    22525    2         MLHD.P = M@MLH$->KQ$MLH.PCSTAMP;

  22525  3 005343   000004 220100                    LDX0    4,,PR0
         3 005344   200056 740100                    STX0    MLHD+19,,AUTO

     1397    22526    2         MLHD.RQGC = M@MLH$->KQ$MLH.RQGC;

  22526  3 005345   000003 236100                    LDQ     3,,PR0
         3 005346   000004 772000                    QRL     4
         3 005347   200056 676100                    ERQ     MLHD+19,,AUTO
         3 005350   400000 376007                    ANQ     -131072,DL
         3 005351   200056 656100                    ERSQ    MLHD+19,,AUTO

     1398    22527    2         MLHD.RQMEM = M@MLH$->KQ$MLH.RQMEM;

  22527  3 005352   000003 236100                    LDQ     3,,PR0
         3 005353   000006 772000                    QRL     6
         3 005354   200056 676100                    ERQ     MLHD+19,,AUTO
         3 005355   200000 376007                    ANQ     65536,DL
         3 005356   200056 656100                    ERSQ    MLHD+19,,AUTO

     1399    22528    2         CALL DAM$MAP (CUR$,M@CUR$) ALTRET(MLHERR);

  22528  3 005357   200032 631500                    EPPR1   M@CUR$,,AUTO
         3 005360   200303 451500                    STP1    @B+2,,AUTO
         3 005361   200031 633500                    EPPR3   CUR$,,AUTO
         3 005362   200302 453500                    STP3    @B+1,,AUTO
PL6.E3A0      #001=DAD$CGS File=DAD$CGS.:E05TSI                                  TUE 07/29/97 12:40 Page:225
         3 005363   200302 630500                    EPPR0   @B+1,,AUTO
         3 005364   000020 631400 xsym               EPPR1   B_VECTNIL+16
         3 005365   000000 701000 xent               TSX1    DAM$MAP
         3 005366   005375 702000 3                  TSX2    MLHERR

     1400    22529    2         CALL XLATE(MLHD.X.N,DA_PRINTABLE_TBL,M@CUR$->KQ$STA.BTN.KEY);

  22529  3 005367   200032 470500                    LDP0    M@CUR$,,AUTO
         3 005370   000000 471400 xsym               LDP1    B$XL_ASC_DUMP$
         3 005371   040100 160500                    MVT     fill='040'O
         3 005372   000005 000010                    ADSC9   5,,PR0                   cn=0,n=8
         3 005373   200035 000010                    ADSC9   MLHD+2,,AUTO             cn=0,n=8
         3 005374   100000 000100                    ARG     0,,PR1

     1401    22530    2   MLHERR: CALL DAF$WRITE (VECTOR (MLHFMT0), VECTOR (MLHD));

  22530  3 005375   000026 235000 4     MLHERR       LDA     22
         3 005376   200302 452500                    STP2    @B+1,,AUTO
         3 005377   200302 236100                    LDQ     @B+1,,AUTO
         3 005400   000033 036003                    ADLQ    27,DU
         3 005401   200304 757100                    STAQ    @B+3,,AUTO
         3 005402   200304 630500                    EPPR0   @B+3,,AUTO
         3 005403   200307 450500                    STP0    @B+6,,AUTO
         3 005404   000210 236000 4                  LDQ     136
         3 005405   200306 756100                    STQ     @B+5,,AUTO
         3 005406   200306 630500                    EPPR0   @B+5,,AUTO
         3 005407   000000 220000 xsym               LDX0    DAF$WRITE
         3 005410   000020 631400 xsym               EPPR1   B_VECTNIL+16
         3 005411   000000 701010                    TSX1    0,X0
         3 005412   000000 011000                    NOP     0

     1402    22531    2         RETURN;

  22531  3 005413   200236 221300                    LDX1  ! TEXTFIDL+2,,AUTO
         3 005414   000001 702211                    TSX2  ! 1,X1

     1403    22532
PL6.E3A0      #001=DAD$CGS File=DAD$CGS.:E05TSI                                  TUE 07/29/97 12:40 Page:226
     1404    22533    2   END DIMLH;
     1405    22534
     1406    22535        %EJECT;
PL6.E3A0      #001=DAD$CGS File=DAD$CGS.:E05TSI                                  TUE 07/29/97 12:40 Page:227
     1407    22536        /*I* NAME:        DIDFR
     1408    22537             ENTRY:       DIDFR
     1409    22538             CALL:        CALL DIDFR;
     1410    22539             INPUT:       DFRFMT_ - VECTOR framing a string naming the head of
     1411    22540                                    the DFRBLK list to be displayed.
     1412    22541                          DFR$ - Unmapped pointer to head of DFRBLK list to display.
     1413    22542             SCRATCH:     Mapping context.
     1414    22543             DESCRIPTION: DIDFR displays the list of DFRBLKs headed by DFR$. */
     1415    22544
     1416    22545    1   DIDFR: PROC;

  22545  3 005415   200236 741300       DIDFR        STX1  ! TEXTFIDL+2,,AUTO

     1417    22546
     1418    22547    2   DCL CODETBL(0:10) CONSTANT CHAR(8) INIT(
     1419    22548    2         '??? 0','FETCH','RENEGE','DEL','??? 4','GET','WRITE','??? 7',
     1420    22549    2         '??? 8','GETFREE','GETNEW');
     1421    22550    2   DCL ADR UBIN;
     1422    22551    2   DCL P$ PTR;
     1423    22552    2   DCL UBIN$HALF UBIN HALF BASED HALIGNED;
     1424    22553    2   DCL 1 NAM BASED,
     1425    22554    2         2 L UBIN HALF HALIGNED,
     1426    22555    2         2 C CHAR(NAM.L);
     1427    22556
     1428    22557    2         CALL VALPTR (DFR$,AS0$) ALTRET(RET);

  22557  3 005416   000001 236000 xsym               LDQ     B_VECTNIL+1
         3 005417   000001 235000 xsym               LDA     B_VECTNIL+1
         3 005420   200300 757100                    STAQ    @N+1,,AUTO
         3 005421   000001 236000 xsym               LDQ     B_VECTNIL+1
         3 005422   000001 235000 xsym               LDA     B_VECTNIL+1
         3 005423   200276 757100                    STAQ    @D+1,,AUTO
         3 005424   000001 236000 xsym               LDQ     B_VECTNIL+1
         3 005425   000040 235000 4                  LDA     32
         3 005426   200274 757100                    STAQ    @PTR$+1,,AUTO
         3 005427   200007 630500                    EPPR0   DFR$,,AUTO
         3 005430   200273 450500                    STP0    CFU$+2,,AUTO
PL6.E3A0      #001=DAD$CGS File=DAD$CGS.:E05TSI                                  TUE 07/29/97 12:40 Page:228
         3 005431   011056 701000 3                  TSX1    VALPTR
         3 005432   005717 702000 3                  TSX2    RET

     1429    22558    2         CALL DAF$WRITE (DFRFMT_);

  22558  3 005433   200026 630500                    EPPR0   DFRFMT_,,AUTO
         3 005434   200302 450500                    STP0    @B+1,,AUTO
         3 005435   200302 630500                    EPPR0   @B+1,,AUTO
         3 005436   000000 220000 xsym               LDX0    DAF$WRITE
         3 005437   000017 631400 xsym               EPPR1   B_VECTNIL+15
         3 005440   000000 701010                    TSX1    0,X0
         3 005441   000000 011000                    NOP     0

     1430    22559    3           DO WHILE(DFR$~=ADDR(NIL));

  22559  3 005442   005714 710000 3                  TRA     s:22598

     1431    22560    3           DFRD = '0'B;

  22560  3 005443   000100 100400                    MLR     fill='000'O
         3 005444   000002 000001 xsym               ADSC9   B_VECTNIL+2              cn=0,n=1
         3 005445   200100 000140                    ADSC9   DFRD,,AUTO               cn=0,n=96

     1432    22561    3           CALL VALPTR(DFR$,AS0$,DFRD.SELF$.D,DFRD.SELF$.W) ALTRET(RET);

  22561  3 005446   000001 236000 xsym               LDQ     B_VECTNIL+1
         3 005447   000001 235000 xsym               LDA     B_VECTNIL+1
         3 005450   200300 757100                    STAQ    @N+1,,AUTO
         3 005451   000001 236000 xsym               LDQ     B_VECTNIL+1
         3 005452   200277 756100                    STQ     @W+1,,AUTO
         3 005453   200126 630500                    EPPR0   DFRD+22,,AUTO
         3 005454   200276 450500                    STP0    @D+1,,AUTO
         3 005455   200127 631500                    EPPR1   DFRD+23,,AUTO
         3 005456   200275 451500                    STP1    @VPTR$+1,,AUTO
         3 005457   000040 236000 4                  LDQ     32
         3 005460   200274 756100                    STQ     @PTR$+1,,AUTO
         3 005461   200007 633500                    EPPR3   DFR$,,AUTO
PL6.E3A0      #001=DAD$CGS File=DAD$CGS.:E05TSI                                  TUE 07/29/97 12:40 Page:229
         3 005462   200273 453500                    STP3    CFU$+2,,AUTO
         3 005463   011056 701000 3                  TSX1    VALPTR
         3 005464   005717 702000 3                  TSX2    RET

     1433    22562    3           CALL DAM$MAP(DFR$,M@DFR$) ALTRET(MAPERR);

  22562  3 005465   200010 630500                    EPPR0   M@DFR$,,AUTO
         3 005466   200303 450500                    STP0    @B+2,,AUTO
         3 005467   200007 631500                    EPPR1   DFR$,,AUTO
         3 005470   200302 451500                    STP1    @B+1,,AUTO
         3 005471   200302 630500                    EPPR0   @B+1,,AUTO
         3 005472   000020 631400 xsym               EPPR1   B_VECTNIL+16
         3 005473   000000 701000 xent               TSX1    DAM$MAP
         3 005474   005673 702000 3                  TSX2    MAPERR

     1434    22563    3           DFRD.CODE = CODETBL(KQ$DFRBLK.CODE);

  22563  3 005475   200010 470500                    LDP0    M@DFR$,,AUTO
         3 005476   000001 236100                    LDQ     1,,PR0
         3 005477   000033 772000                    QRL     27
         3 005500   000003 736000                    QLS     3
         3 005501   040100 100406                    MLR     fill='040'O
         3 005502   001411 000010 2                  ADSC9   CODETBL,Q                cn=0,n=8
         3 005503   200100 000010                    ADSC9   DFRD,,AUTO               cn=0,n=8

     1435    22564    3           ADR = ADDR(KQ$DFRBLK.EPTR$)->UBIN$HALF;

  22564  3 005504   000005 236100                    LDQ     5,,PR0
         3 005505   000022 772000                    QRL     18
         3 005506   200237 756100                    STQ     ADR,,AUTO

     1436    22565    3           CALL DAS$IC2ED (ADR,P$) ALTRET(BLANK_IT);

  22565  3 005507   200240 631500                    EPPR1   P$,,AUTO
         3 005510   200303 451500                    STP1    @B+2,,AUTO
         3 005511   200237 633500                    EPPR3   ADR,,AUTO
         3 005512   200302 453500                    STP3    @B+1,,AUTO
PL6.E3A0      #001=DAD$CGS File=DAD$CGS.:E05TSI                                  TUE 07/29/97 12:40 Page:230
         3 005513   200302 630500                    EPPR0   @B+1,,AUTO
         3 005514   000020 631400 xsym               EPPR1   B_VECTNIL+16
         3 005515   000000 701000 xent               TSX1    DAS$IC2ED
         3 005516   005535 702000 3                  TSX2    BLANK_IT

     1437    22566    3           P$ = PINCRW(DA_DNAME$,P$->B$EDEF.NPOINTER);

  22566  3 005517   200240 470500                    LDP0    P$,,AUTO
         3 005520   000001 220100                    LDX0    1,,PR0
         3 005521   000000 636010                    EAQ     0,X0
         3 005522   000000 036000 xsym               ADLQ    DA_DNAME$
         3 005523   200240 756100                    STQ     P$,,AUTO

     1438    22567    3           DFRD.ENTPTR = P$->NAM.C;

  22567  3 005524   200240 470500                    LDP0    P$,,AUTO
         3 005525   000100 100500                    MLR     fill='000'O
         3 005526   000000 000002                    ADSC9   0,,PR0                   cn=0,n=2
         3 005527   200302 000004                    ADSC9   @B+1,,AUTO               cn=0,n=4
         3 005530   200302 220100                    LDX0    @B+1,,AUTO
         3 005531   040100 100540                    MLR     fill='040'O
         3 005532   000000 400010                    ADSC9   0,,PR0                   cn=2,n=*X0
         3 005533   200102 000012                    ADSC9   DFRD+2,,AUTO             cn=0,n=10

     1439    22568    4             DO WHILE('0'B);

  22568  3 005534   005540 710000 3                  TRA     s:22571

     1440    22569    4   BLANK_IT: DFRD.ENTPTR = ' ';

  22569  3 005535   040100 100400       BLANK_IT     MLR     fill='040'O
         3 005536   000035 000001 xsym               ADSC9   B_VECTNIL+29             cn=0,n=1
         3 005537   200102 000012                    ADSC9   DFRD+2,,AUTO             cn=0,n=10

     1441    22570    4             END;

     1442    22571    3           DFRD.GO = STARTBL(BITBIN(KQ$DFRBLK.GO));
PL6.E3A0      #001=DAD$CGS File=DAD$CGS.:E05TSI                                  TUE 07/29/97 12:40 Page:231

  22571  3 005540   200010 470500                    LDP0    M@DFR$,,AUTO
         3 005541   000001 236100                    LDQ     1,,PR0
         3 005542   000021 772000                    QRL     17
         3 005543   000001 376007                    ANQ     1,DL
         3 005544   040100 100406                    MLR     fill='040'O
         3 005545   000000 000001 2                  ADSC9   STARTBL,Q                cn=0,n=1
         3 005546   200105 000001                    ADSC9   DFRD+5,,AUTO             cn=0,n=1

     1443    22572    3           DFRD.EVNT = STARTBL(BITBIN(KQ$DFRBLK.EVNT));

  22572  3 005547   000001 236100                    LDQ     1,,PR0
         3 005550   000020 772000                    QRL     16
         3 005551   000001 376007                    ANQ     1,DL
         3 005552   040100 100406                    MLR     fill='040'O
         3 005553   000000 000001 2                  ADSC9   STARTBL,Q                cn=0,n=1
         3 005554   200105 200001                    ADSC9   DFRD+5,,AUTO             cn=1,n=1

     1444    22573    3           DFRD.ABORT = STARTBL(BITBIN(KQ$DFRBLK.ABORT));

  22573  3 005555   000001 236100                    LDQ     1,,PR0
         3 005556   000017 772000                    QRL     15
         3 005557   000001 376007                    ANQ     1,DL
         3 005560   040100 100406                    MLR     fill='040'O
         3 005561   000000 000001 2                  ADSC9   STARTBL,Q                cn=0,n=1
         3 005562   200105 400001                    ADSC9   DFRD+5,,AUTO             cn=2,n=1

     1445    22574    3           DFRD.GFLG = STARTBL(BITBIN(KQ$DFRBLK.GFLG));

  22574  3 005563   000001 236100                    LDQ     1,,PR0
         3 005564   000016 772000                    QRL     14
         3 005565   000001 376007                    ANQ     1,DL
         3 005566   040100 100406                    MLR     fill='040'O
         3 005567   000000 000001 2                  ADSC9   STARTBL,Q                cn=0,n=1
         3 005570   200105 600001                    ADSC9   DFRD+5,,AUTO             cn=3,n=1

     1446    22575    3           IF KQ$DFRBLK.DA=0
PL6.E3A0      #001=DAD$CGS File=DAD$CGS.:E05TSI                                  TUE 07/29/97 12:40 Page:232

  22575  3 005571   000002 235100                    LDA     2,,PR0
         3 005572   005576 601000 3                  TNZ     s:22577

     1447    22576    3           THEN DFRD.DA.N = 1;

  22576  3 005573   000001 236007                    LDQ     1,DL
         3 005574   200107 756100                    STQ     DFRD+7,,AUTO
         3 005575   005577 710000 3                  TRA     s:22578

     1448    22577    3           ELSE DFRD.DA.V = KQ$DFRBLK.DA;

  22577  3 005576   200106 755100                    STA     DFRD+6,,AUTO

     1449    22578    3           IF KQ$DFRBLK.DDA=0

  22578  3 005577   000004 235100                    LDA     4,,PR0
         3 005600   005604 601000 3                  TNZ     s:22580

     1450    22579    3           THEN DFRD.DDA.N = 1;

  22579  3 005601   000001 236007                    LDQ     1,DL
         3 005602   200111 756100                    STQ     DFRD+9,,AUTO
         3 005603   005605 710000 3                  TRA     s:22581

     1451    22580    3           ELSE DFRD.DDA.V = KQ$DFRBLK.DDA;

  22580  3 005604   200110 755100                    STA     DFRD+8,,AUTO

     1452    22581    3           IF KQ$DFRBLK.DBLK=0

  22581  3 005605   000003 235100                    LDA     3,,PR0
         3 005606   005612 601000 3                  TNZ     s:22583

     1453    22582    3           THEN DFRD.DBLK.N = 1;

  22582  3 005607   000001 236007                    LDQ     1,DL
PL6.E3A0      #001=DAD$CGS File=DAD$CGS.:E05TSI                                  TUE 07/29/97 12:40 Page:233
         3 005610   200113 756100                    STQ     DFRD+11,,AUTO
         3 005611   005613 710000 3                  TRA     s:22584

     1454    22583    3           ELSE DFRD.DBLK.V = KQ$DFRBLK.DBLK;

  22583  3 005612   200112 755100                    STA     DFRD+10,,AUTO

     1455    22584    3           IF KQ$DFRBLK.DGRAN$=PS0$

  22584  3 005613   000007 236100                    LDQ     7,,PR0
         3 005614   000001 116000 2                  CMPQ    PS0
         3 005615   005621 601000 3                  TNZ     s:22586

     1456    22585    3           THEN DFRD.DGRAN$.N = 1;

  22585  3 005616   000001 235007                    LDA     1,DL
         3 005617   200117 755100                    STA     DFRD+15,,AUTO
         3 005620   005641 710000 3                  TRA     s:22587

     1457    22586    3           ELSE CALL VALPTR(KQ$DFRBLK.DGRAN$,AS0$,DFRD.DGRAN$.D,DFRD.DGRAN$.W,DFRD.
             22586                    DGRAN$.N1);

  22586  3 005621   000001 236000 xsym               LDQ     B_VECTNIL+1
         3 005622   000001 235000 xsym               LDA     B_VECTNIL+1
         3 005623   200300 757100                    STAQ    @N+1,,AUTO
         3 005624   200116 631500                    EPPR1   DFRD+14,,AUTO
         3 005625   200277 451500                    STP1    @W+1,,AUTO
         3 005626   200114 633500                    EPPR3   DFRD+12,,AUTO
         3 005627   200276 453500                    STP3    @D+1,,AUTO
         3 005630   200115 634500                    EPPR4   DFRD+13,,AUTO
         3 005631   200275 454500                    STP4    @VPTR$+1,,AUTO
         3 005632   000040 236000 4                  LDQ     32
         3 005633   200274 756100                    STQ     @PTR$+1,,AUTO
         3 005634   200010 236100                    LDQ     M@DFR$,,AUTO
         3 005635   000007 036003                    ADLQ    7,DU
         3 005636   200273 756100                    STQ     CFU$+2,,AUTO
         3 005637   011056 701000 3                  TSX1    VALPTR
PL6.E3A0      #001=DAD$CGS File=DAD$CGS.:E05TSI                                  TUE 07/29/97 12:40 Page:234
         3 005640   000000 011000                    NOP     0

     1458    22587    3           IF KQ$DFRBLK.USR=0

  22587  3 005641   200010 470500                    LDP0    M@DFR$,,AUTO
         3 005642   000001 236100                    LDQ     1,,PR0
         3 005643   000777 316007                    CANQ    511,DL
         3 005644   005650 601000 3                  TNZ     s:22589

     1459    22588    3           THEN DFRD.USR.N = 1;

  22588  3 005645   000001 235007                    LDA     1,DL
         3 005646   200121 755100                    STA     DFRD+17,,AUTO
         3 005647   005653 710000 3                  TRA     s:22590

     1460    22589    3           ELSE DFRD.USR.V = KQ$DFRBLK.USR;

  22589  3 005650   000001 236100                    LDQ     1,,PR0
         3 005651   000777 376007                    ANQ     511,DL
         3 005652   200120 756100                    STQ     DFRD+16,,AUTO

     1461    22590    3           IF KQ$DFRBLK.ERRCODE=0

  22590  3 005653   000001 236100                    LDQ     1,,PR0
         3 005654   000777 316003                    CANQ    511,DU
         3 005655   005661 601000 3                  TNZ     s:22592

     1462    22591    3           THEN DFRD.ERR.N = 1;

  22591  3 005656   000001 235007                    LDA     1,DL
         3 005657   200123 755100                    STA     DFRD+19,,AUTO
         3 005660   005665 710000 3                  TRA     s:22593

     1463    22592    3           ELSE DFRD.ERR.V = KQ$DFRBLK.ERRCODE;

  22592  3 005661   000001 236100                    LDQ     1,,PR0
         3 005662   000022 772000                    QRL     18
PL6.E3A0      #001=DAD$CGS File=DAD$CGS.:E05TSI                                  TUE 07/29/97 12:40 Page:235
         3 005663   000777 376007                    ANQ     511,DL
         3 005664   200122 756100                    STQ     DFRD+18,,AUTO

     1464    22593    3           IF KQ$DFRBLK.INFO=0

  22593  3 005665   000006 235100                    LDA     6,,PR0
         3 005666   005672 601000 3                  TNZ     s:22595

     1465    22594    3           THEN DFRD.INFO.N = 1;

  22594  3 005667   000001 236007                    LDQ     1,DL
         3 005670   200125 756100                    STQ     DFRD+21,,AUTO
         3 005671   005673 710000 3                  TRA     MAPERR

     1466    22595    3           ELSE DFRD.INFO.V = KQ$DFRBLK.INFO;

  22595  3 005672   200124 755100                    STA     DFRD+20,,AUTO

     1467    22596    3   MAPERR: CALL DAF$WRITE (VECTOR(DFRBLKFMT),VECTOR(DFRD));

  22596  3 005673   000214 235000 4     MAPERR       LDA     140
         3 005674   200302 452500                    STP2    @B+1,,AUTO
         3 005675   200302 236100                    LDQ     @B+1,,AUTO
         3 005676   000100 036003                    ADLQ    64,DU
         3 005677   200304 757100                    STAQ    @B+3,,AUTO
         3 005700   200304 630500                    EPPR0   @B+3,,AUTO
         3 005701   200307 450500                    STP0    @B+6,,AUTO
         3 005702   000215 236000 4                  LDQ     141
         3 005703   200306 756100                    STQ     @B+5,,AUTO
         3 005704   200306 630500                    EPPR0   @B+5,,AUTO
         3 005705   000000 220000 xsym               LDX0    DAF$WRITE
         3 005706   000020 631400 xsym               EPPR1   B_VECTNIL+16
         3 005707   000000 701010                    TSX1    0,X0
         3 005710   000000 011000                    NOP     0

     1468    22597    3           DFR$ = KQ$DFRBLK.LNK$;

PL6.E3A0      #001=DAD$CGS File=DAD$CGS.:E05TSI                                  TUE 07/29/97 12:40 Page:236
  22597  3 005711   200010 470500                    LDP0    M@DFR$,,AUTO
         3 005712   000000 236100                    LDQ     0,,PR0
         3 005713   200007 756100                    STQ     DFR$,,AUTO

     1469    22598    3           END;

  22598  3 005714   200007 236100                    LDQ     DFR$,,AUTO
         3 005715   000001 116000 xsym               CMPQ    B_VECTNIL+1
         3 005716   005443 601000 3                  TNZ     s:22560

     1470    22599    2   RET:  RETURN;

  22599  3 005717   200236 221300       RET          LDX1  ! TEXTFIDL+2,,AUTO
         3 005720   000001 702211                    TSX2  ! 1,X1

     1471    22600    2   END DIDFR;
     1472    22601
     1473    22602        %EJECT;
PL6.E3A0      #001=DAD$CGS File=DAD$CGS.:E05TSI                                  TUE 07/29/97 12:40 Page:237
     1474    22603
     1475    22604        /*I* NAME:        DIMMD
     1476    22605             ENTRY:       DIMMD
     1477    22606             CALL:        CALL DIMMD ALTRET (error);
     1478    22607             INPUT:       M@CG$ - Mapped pointer to current comgroup.
     1479    22608             DESCRIPTION: Displays the MMD data information from the current
     1480    22609                          comgroup context block. */
     1481    22610
     1482    22611    1   DIMMD: PROC ALTRET;

  22611  3 005721   200236 741300       DIMMD        STX1  ! TEXTFIDL+2,,AUTO

     1483    22612
     1484    22613    2   DCL DATA1 UBIN;
     1485    22614    2   DCL DATA1D UBIN;
     1486    22615    2   DCL DATA1N UBIN;
     1487    22616    2   DCL DATA2 UBIN;
     1488    22617    2   DCL DATA3 UBIN;
     1489    22618    2   DCL DATA4 UBIN;
     1490    22619    2   DCL DATA4D UBIN;
     1491    22620    2   DCL DATA4N UBIN;
     1492    22621    2   DCL DATA5 UBIN;
     1493    22622
     1494    22623    2         CALL DAB$GATE (KQ$CG.MMD.GATE);

  22623  3 005722   200006 236100                    LDQ     M@CG$,,AUTO
         3 005723   000001 036003                    ADLQ    1,DU
         3 005724   200302 756100                    STQ     @B+1,,AUTO
         3 005725   200302 630500                    EPPR0   @B+1,,AUTO
         3 005726   000017 631400 xsym               EPPR1   B_VECTNIL+15
         3 005727   000000 701000 xent               TSX1    DAB$GATE
         3 005730   000000 011000                    NOP     0

     1495    22624    2         CALL DAF$WRITE (VECTOR (MMDFMT0), VECTOR (DA_GATETXT));

  22624  3 005731   000220 630400 4                  EPPR0   144
         3 005732   000000 220000 xsym               LDX0    DAF$WRITE
PL6.E3A0      #001=DAD$CGS File=DAD$CGS.:E05TSI                                  TUE 07/29/97 12:40 Page:238
         3 005733   000020 631400 xsym               EPPR1   B_VECTNIL+16
         3 005734   000000 701010                    TSX1    0,X0
         3 005735   000000 011000                    NOP     0

     1496    22625    2         CALL VALPTR (KQ$CG.MMD.HEAD$,AS0$,DATA1D,DATA1,DATA1N);

  22625  3 005736   000001 236000 xsym               LDQ     B_VECTNIL+1
         3 005737   000001 235000 xsym               LDA     B_VECTNIL+1
         3 005740   200300 757100                    STAQ    @N+1,,AUTO
         3 005741   200241 630500                    EPPR0   DATA1N,,AUTO
         3 005742   200277 450500                    STP0    @W+1,,AUTO
         3 005743   200237 631500                    EPPR1   DATA1,,AUTO
         3 005744   200276 451500                    STP1    @D+1,,AUTO
         3 005745   200240 633500                    EPPR3   DATA1D,,AUTO
         3 005746   200275 453500                    STP3    @VPTR$+1,,AUTO
         3 005747   000040 236000 4                  LDQ     32
         3 005750   200274 756100                    STQ     @PTR$+1,,AUTO
         3 005751   200006 236100                    LDQ     M@CG$,,AUTO
         3 005752   000003 036003                    ADLQ    3,DU
         3 005753   200273 756100                    STQ     CFU$+2,,AUTO
         3 005754   011056 701000 3                  TSX1    VALPTR
         3 005755   000000 011000                    NOP     0

     1497    22626    2         DATA2 = KQ$CG.MMD.CURPG;

  22626  3 005756   200006 470500                    LDP0    M@CG$,,AUTO
         3 005757   000006 235100                    LDA     6,,PR0
         3 005760   200242 755100                    STA     DATA2,,AUTO

     1498    22627    2         DATA3 = KQ$CG.MMD.MAXBPG;

  22627  3 005761   000010 236100                    LDQ     8,,PR0
         3 005762   777777 376007                    ANQ     -1,DL
         3 005763   200243 756100                    STQ     DATA3,,AUTO

     1499    22628    2         CALL VALPTR (KQ$CG.MMD.BASEREL$,AS0$,DATA4D,DATA4,DATA4N);

PL6.E3A0      #001=DAD$CGS File=DAD$CGS.:E05TSI                                  TUE 07/29/97 12:40 Page:239
  22628  3 005764   000001 236000 xsym               LDQ     B_VECTNIL+1
         3 005765   000001 235000 xsym               LDA     B_VECTNIL+1
         3 005766   200300 757100                    STAQ    @N+1,,AUTO
         3 005767   200246 631500                    EPPR1   DATA4N,,AUTO
         3 005770   200277 451500                    STP1    @W+1,,AUTO
         3 005771   200244 633500                    EPPR3   DATA4,,AUTO
         3 005772   200276 453500                    STP3    @D+1,,AUTO
         3 005773   200245 634500                    EPPR4   DATA4D,,AUTO
         3 005774   200275 454500                    STP4    @VPTR$+1,,AUTO
         3 005775   000040 236000 4                  LDQ     32
         3 005776   200274 756100                    STQ     @PTR$+1,,AUTO
         3 005777   200006 236100                    LDQ     M@CG$,,AUTO
         3 006000   000012 036003                    ADLQ    10,DU
         3 006001   200273 756100                    STQ     CFU$+2,,AUTO
         3 006002   011056 701000 3                  TSX1    VALPTR
         3 006003   000000 011000                    NOP     0

     1500    22629    2         IF KQ$CG.MMD.GIP THEN

  22629  3 006004   200006 470500                    LDP0    M@CG$,,AUTO
         3 006005   000011 234100                    SZN     9,,PR0
         3 006006   006012 605000 3                  TPL     s:22632

     1501    22630    2           DATA5 = 1;

  22630  3 006007   000001 235007                    LDA     1,DL
         3 006010   200247 755100                    STA     DATA5,,AUTO
         3 006011   006013 710000 3                  TRA     s:22635

     1502    22631    2         ELSE
     1503    22632    2           DATA5 = 0;

  22632  3 006012   200247 450100                    STZ     DATA5,,AUTO

     1504    22633    2         CALL DAF$WRITE (VECTOR (MMDFMT1), VECTOR (DATA1), VECTOR (DATA1D),
     1505    22634    2         VECTOR (DATA1N), VECTOR (DATA2), VECTOR (DATA3), VECTOR (DATA4),
     1506    22635    2         VECTOR (DATA4D), VECTOR (DATA4N), VECTOR (DATA5));
PL6.E3A0      #001=DAD$CGS File=DAD$CGS.:E05TSI                                  TUE 07/29/97 12:40 Page:240

  22635  3 006013   777640 235007                    LDA     -96,DL
         3 006014   200302 452500                    STP2    @B+1,,AUTO
         3 006015   200302 236100                    LDQ     @B+1,,AUTO
         3 006016   000237 036003                    ADLQ    159,DU
         3 006017   200304 757100                    STAQ    @B+3,,AUTO
         3 006020   777640 235007                    LDA     -96,DL
         3 006021   200306 452500                    STP2    @B+5,,AUTO
         3 006022   200306 236100                    LDQ     @B+5,,AUTO
         3 006023   000240 036003                    ADLQ    160,DU
         3 006024   200310 757100                    STAQ    @B+7,,AUTO
         3 006025   777640 235007                    LDA     -96,DL
         3 006026   200312 452500                    STP2    @B+9,,AUTO
         3 006027   200312 236100                    LDQ     @B+9,,AUTO
         3 006030   000241 036003                    ADLQ    161,DU
         3 006031   200314 757100                    STAQ    @B+11,,AUTO
         3 006032   777640 235007                    LDA     -96,DL
         3 006033   200316 452500                    STP2    @B+13,,AUTO
         3 006034   200316 236100                    LDQ     @B+13,,AUTO
         3 006035   000242 036003                    ADLQ    162,DU
         3 006036   200320 757100                    STAQ    @B+15,,AUTO
         3 006037   777640 235007                    LDA     -96,DL
         3 006040   200322 452500                    STP2    @B+17,,AUTO
         3 006041   200322 236100                    LDQ     @B+17,,AUTO
         3 006042   000243 036003                    ADLQ    163,DU
         3 006043   200324 757100                    STAQ    @B+19,,AUTO
         3 006044   777640 235007                    LDA     -96,DL
         3 006045   200326 452500                    STP2    @B+21,,AUTO
         3 006046   200326 236100                    LDQ     @B+21,,AUTO
         3 006047   000244 036003                    ADLQ    164,DU
         3 006050   200330 757100                    STAQ    @B+23,,AUTO
         3 006051   777640 235007                    LDA     -96,DL
         3 006052   200332 452500                    STP2    @B+25,,AUTO
         3 006053   200332 236100                    LDQ     @B+25,,AUTO
         3 006054   000245 036003                    ADLQ    165,DU
         3 006055   200334 757100                    STAQ    @B+27,,AUTO
         3 006056   777640 235007                    LDA     -96,DL
PL6.E3A0      #001=DAD$CGS File=DAD$CGS.:E05TSI                                  TUE 07/29/97 12:40 Page:241
         3 006057   200336 452500                    STP2    @B+29,,AUTO
         3 006060   200336 236100                    LDQ     @B+29,,AUTO
         3 006061   000246 036003                    ADLQ    166,DU
         3 006062   200340 757100                    STAQ    @B+31,,AUTO
         3 006063   777640 235007                    LDA     -96,DL
         3 006064   200342 452500                    STP2    @B+33,,AUTO
         3 006065   200342 236100                    LDQ     @B+33,,AUTO
         3 006066   000247 036003                    ADLQ    167,DU
         3 006067   200346 757100                    STAQ    @B+37,,AUTO
         3 006070   200304 237100                    LDAQ    @B+3,,AUTO
         3 006071   200344 757100                    STAQ    @B+35,,AUTO
         3 006072   200310 237100                    LDAQ    @B+7,,AUTO
         3 006073   200350 757100                    STAQ    @B+39,,AUTO
         3 006074   200314 237100                    LDAQ    @B+11,,AUTO
         3 006075   200352 757100                    STAQ    @B+41,,AUTO
         3 006076   200320 237100                    LDAQ    @B+15,,AUTO
         3 006077   200354 757100                    STAQ    @B+43,,AUTO
         3 006100   200324 237100                    LDAQ    @B+19,,AUTO
         3 006101   200356 757100                    STAQ    @B+45,,AUTO
         3 006102   200330 237100                    LDAQ    @B+23,,AUTO
         3 006103   200360 757100                    STAQ    @B+47,,AUTO
         3 006104   200334 237100                    LDAQ    @B+27,,AUTO
         3 006105   200362 757100                    STAQ    @B+49,,AUTO
         3 006106   200340 237100                    LDAQ    @B+31,,AUTO
         3 006107   200364 757100                    STAQ    @B+51,,AUTO
         3 006110   200346 237100                    LDAQ    @B+37,,AUTO
         3 006111   200366 757100                    STAQ    @B+53,,AUTO
         3 006112   200366 631500                    EPPR1   @B+53,,AUTO
         3 006113   200401 451500                    STP1    @B+64,,AUTO
         3 006114   200364 633500                    EPPR3   @B+51,,AUTO
         3 006115   200400 453500                    STP3    @B+63,,AUTO
         3 006116   200362 634500                    EPPR4   @B+49,,AUTO
         3 006117   200377 454500                    STP4    @B+62,,AUTO
         3 006120   200360 635500                    EPPR5   @B+47,,AUTO
         3 006121   200376 455500                    STP5    @B+61,,AUTO
         3 006122   200356 636500                    EPPR6   @B+45,,AUTO
         3 006123   200375 456500                    STP6    @B+60,,AUTO
PL6.E3A0      #001=DAD$CGS File=DAD$CGS.:E05TSI                                  TUE 07/29/97 12:40 Page:242
         3 006124   200354 637500                    EPPR7   @B+43,,AUTO
         3 006125   200374 457500                    STP7    @B+59,,AUTO
         3 006126   200352 630500                    EPPR0   @B+41,,AUTO
         3 006127   200373 450500                    STP0    @B+58,,AUTO
         3 006130   200350 630500                    EPPR0   @B+39,,AUTO
         3 006131   200372 450500                    STP0    @B+57,,AUTO
         3 006132   200344 630500                    EPPR0   @B+35,,AUTO
         3 006133   200371 450500                    STP0    @B+56,,AUTO
         3 006134   000225 236000 4                  LDQ     149
         3 006135   200370 756100                    STQ     @B+55,,AUTO
         3 006136   200370 630500                    EPPR0   @B+55,,AUTO
         3 006137   000000 220000 xsym               LDX0    DAF$WRITE
         3 006140   000224 631400 4                  EPPR1   148
         3 006141   000000 701010                    TSX1    0,X0
         3 006142   000000 011000                    NOP     0

     1507    22636    2         CALL VALPTR (KQ$CG.MMD.PHEAD$,AS0$,DATA1D,DATA1,DATA1N);

  22636  3 006143   000001 236000 xsym               LDQ     B_VECTNIL+1
         3 006144   000001 235000 xsym               LDA     B_VECTNIL+1
         3 006145   200300 757100                    STAQ    @N+1,,AUTO
         3 006146   200241 630500                    EPPR0   DATA1N,,AUTO
         3 006147   200277 450500                    STP0    @W+1,,AUTO
         3 006150   200237 631500                    EPPR1   DATA1,,AUTO
         3 006151   200276 451500                    STP1    @D+1,,AUTO
         3 006152   200240 633500                    EPPR3   DATA1D,,AUTO
         3 006153   200275 453500                    STP3    @VPTR$+1,,AUTO
         3 006154   000040 236000 4                  LDQ     32
         3 006155   200274 756100                    STQ     @PTR$+1,,AUTO
         3 006156   200006 236100                    LDQ     M@CG$,,AUTO
         3 006157   000004 036003                    ADLQ    4,DU
         3 006160   200273 756100                    STQ     CFU$+2,,AUTO
         3 006161   011056 701000 3                  TSX1    VALPTR
         3 006162   000000 011000                    NOP     0

     1508    22637    2         DATA2 = KQ$CG.MMD.CURBPG;

PL6.E3A0      #001=DAD$CGS File=DAD$CGS.:E05TSI                                  TUE 07/29/97 12:40 Page:243
  22637  3 006163   200006 470500                    LDP0    M@CG$,,AUTO
         3 006164   000010 236100                    LDQ     8,,PR0
         3 006165   000022 772000                    QRL     18
         3 006166   200242 756100                    STQ     DATA2,,AUTO

     1509    22638    2         DATA3 = KQ$CG.MMD.MINBPG;

  22638  3 006167   000011 236100                    LDQ     9,,PR0
         3 006170   777777 376007                    ANQ     -1,DL
         3 006171   200243 756100                    STQ     DATA3,,AUTO

     1510    22639    2         CALL VALPTR (KQ$CG.MMD.STAHD$,AS0$,DATA4D,DATA4,DATA4N);

  22639  3 006172   000001 236000 xsym               LDQ     B_VECTNIL+1
         3 006173   000001 235000 xsym               LDA     B_VECTNIL+1
         3 006174   200300 757100                    STAQ    @N+1,,AUTO
         3 006175   200246 631500                    EPPR1   DATA4N,,AUTO
         3 006176   200277 451500                    STP1    @W+1,,AUTO
         3 006177   200244 633500                    EPPR3   DATA4,,AUTO
         3 006200   200276 453500                    STP3    @D+1,,AUTO
         3 006201   200245 634500                    EPPR4   DATA4D,,AUTO
         3 006202   200275 454500                    STP4    @VPTR$+1,,AUTO
         3 006203   000040 236000 4                  LDQ     32
         3 006204   200274 756100                    STQ     @PTR$+1,,AUTO
         3 006205   200006 236100                    LDQ     M@CG$,,AUTO
         3 006206   000013 036003                    ADLQ    11,DU
         3 006207   200273 756100                    STQ     CFU$+2,,AUTO
         3 006210   011056 701000 3                  TSX1    VALPTR
         3 006211   000000 011000                    NOP     0

     1511    22640    2         CALL DAF$WRITE (VECTOR (MMDFMT2), VECTOR (DATA1), VECTOR (DATA1D),

  22640  3 006212   777640 235007                    LDA     -96,DL
         3 006213   200302 452500                    STP2    @B+1,,AUTO
         3 006214   200302 236100                    LDQ     @B+1,,AUTO
         3 006215   000237 036003                    ADLQ    159,DU
         3 006216   200304 757100                    STAQ    @B+3,,AUTO
PL6.E3A0      #001=DAD$CGS File=DAD$CGS.:E05TSI                                  TUE 07/29/97 12:40 Page:244
         3 006217   777640 235007                    LDA     -96,DL
         3 006220   200306 452500                    STP2    @B+5,,AUTO
         3 006221   200306 236100                    LDQ     @B+5,,AUTO
         3 006222   000240 036003                    ADLQ    160,DU
         3 006223   200310 757100                    STAQ    @B+7,,AUTO
         3 006224   777640 235007                    LDA     -96,DL
         3 006225   200312 452500                    STP2    @B+9,,AUTO
         3 006226   200312 236100                    LDQ     @B+9,,AUTO
         3 006227   000241 036003                    ADLQ    161,DU
         3 006230   200314 757100                    STAQ    @B+11,,AUTO
         3 006231   777640 235007                    LDA     -96,DL
         3 006232   200316 452500                    STP2    @B+13,,AUTO
         3 006233   200316 236100                    LDQ     @B+13,,AUTO
         3 006234   000242 036003                    ADLQ    162,DU
         3 006235   200320 757100                    STAQ    @B+15,,AUTO
         3 006236   777640 235007                    LDA     -96,DL
         3 006237   200322 452500                    STP2    @B+17,,AUTO
         3 006240   200322 236100                    LDQ     @B+17,,AUTO
         3 006241   000243 036003                    ADLQ    163,DU
         3 006242   200324 757100                    STAQ    @B+19,,AUTO
         3 006243   777640 235007                    LDA     -96,DL
         3 006244   200326 452500                    STP2    @B+21,,AUTO
         3 006245   200326 236100                    LDQ     @B+21,,AUTO
         3 006246   000244 036003                    ADLQ    164,DU
         3 006247   200330 757100                    STAQ    @B+23,,AUTO
         3 006250   777640 235007                    LDA     -96,DL
         3 006251   200332 452500                    STP2    @B+25,,AUTO
         3 006252   200332 236100                    LDQ     @B+25,,AUTO
         3 006253   000245 036003                    ADLQ    165,DU
         3 006254   200334 757100                    STAQ    @B+27,,AUTO
         3 006255   777640 235007                    LDA     -96,DL
         3 006256   200336 452500                    STP2    @B+29,,AUTO
         3 006257   200336 236100                    LDQ     @B+29,,AUTO
         3 006260   000246 036003                    ADLQ    166,DU
         3 006261   200342 757100                    STAQ    @B+33,,AUTO
         3 006262   200304 237100                    LDAQ    @B+3,,AUTO
         3 006263   200340 757100                    STAQ    @B+31,,AUTO
PL6.E3A0      #001=DAD$CGS File=DAD$CGS.:E05TSI                                  TUE 07/29/97 12:40 Page:245
         3 006264   200310 237100                    LDAQ    @B+7,,AUTO
         3 006265   200344 757100                    STAQ    @B+35,,AUTO
         3 006266   200314 237100                    LDAQ    @B+11,,AUTO
         3 006267   200346 757100                    STAQ    @B+37,,AUTO
         3 006270   200320 237100                    LDAQ    @B+15,,AUTO
         3 006271   200350 757100                    STAQ    @B+39,,AUTO
         3 006272   200324 237100                    LDAQ    @B+19,,AUTO
         3 006273   200352 757100                    STAQ    @B+41,,AUTO
         3 006274   200330 237100                    LDAQ    @B+23,,AUTO
         3 006275   200354 757100                    STAQ    @B+43,,AUTO
         3 006276   200334 237100                    LDAQ    @B+27,,AUTO
         3 006277   200356 757100                    STAQ    @B+45,,AUTO
         3 006300   200342 237100                    LDAQ    @B+33,,AUTO
         3 006301   200360 757100                    STAQ    @B+47,,AUTO
         3 006302   200360 630500                    EPPR0   @B+47,,AUTO
         3 006303   200372 450500                    STP0    @B+57,,AUTO
         3 006304   200356 631500                    EPPR1   @B+45,,AUTO
         3 006305   200371 451500                    STP1    @B+56,,AUTO
         3 006306   200354 633500                    EPPR3   @B+43,,AUTO
         3 006307   200370 453500                    STP3    @B+55,,AUTO
         3 006310   200352 634500                    EPPR4   @B+41,,AUTO
         3 006311   200367 454500                    STP4    @B+54,,AUTO
         3 006312   200350 635500                    EPPR5   @B+39,,AUTO
         3 006313   200366 455500                    STP5    @B+53,,AUTO
         3 006314   200346 636500                    EPPR6   @B+37,,AUTO
         3 006315   200365 456500                    STP6    @B+52,,AUTO
         3 006316   200344 637500                    EPPR7   @B+35,,AUTO
         3 006317   200364 457500                    STP7    @B+51,,AUTO
         3 006320   200340 630500                    EPPR0   @B+31,,AUTO
         3 006321   200363 450500                    STP0    @B+50,,AUTO
         3 006322   000231 236000 4                  LDQ     153
         3 006323   200362 756100                    STQ     @B+49,,AUTO
         3 006324   200362 630500                    EPPR0   @B+49,,AUTO
         3 006325   000000 220000 xsym               LDX0    DAF$WRITE
         3 006326   000230 631400 4                  EPPR1   152
         3 006327   000000 701010                    TSX1    0,X0
         3 006330   000000 011000                    NOP     0
PL6.E3A0      #001=DAD$CGS File=DAD$CGS.:E05TSI                                  TUE 07/29/97 12:40 Page:246

     1512    22641    2         VECTOR (DATA1N), VECTOR (DATA2), VECTOR (DATA3), VECTOR (DATA4),
     1513    22642    2         VECTOR (DATA4D), VECTOR (DATA4N));
     1514    22643    2         CALL VALPTR (KQ$CG.MMD.FREE$,AS0$,DATA1D,DATA1,DATA1N);

  22643  3 006331   000001 236000 xsym               LDQ     B_VECTNIL+1
         3 006332   000001 235000 xsym               LDA     B_VECTNIL+1
         3 006333   200300 757100                    STAQ    @N+1,,AUTO
         3 006334   200241 630500                    EPPR0   DATA1N,,AUTO
         3 006335   200277 450500                    STP0    @W+1,,AUTO
         3 006336   200237 631500                    EPPR1   DATA1,,AUTO
         3 006337   200276 451500                    STP1    @D+1,,AUTO
         3 006340   200240 633500                    EPPR3   DATA1D,,AUTO
         3 006341   200275 453500                    STP3    @VPTR$+1,,AUTO
         3 006342   000040 236000 4                  LDQ     32
         3 006343   200274 756100                    STQ     @PTR$+1,,AUTO
         3 006344   200006 236100                    LDQ     M@CG$,,AUTO
         3 006345   000005 036003                    ADLQ    5,DU
         3 006346   200273 756100                    STQ     CFU$+2,,AUTO
         3 006347   011056 701000 3                  TSX1    VALPTR
         3 006350   000000 011000                    NOP     0

     1515    22644    2         DATA2 = KQ$CG.MMD.CURPPG;

  22644  3 006351   200006 470500                    LDP0    M@CG$,,AUTO
         3 006352   000015 236100                    LDQ     13,,PR0
         3 006353   000022 772000                    QRL     18
         3 006354   200242 756100                    STQ     DATA2,,AUTO

     1516    22645    2         DATA3 = KQ$CG.MMD.BAPLOCK;

  22645  3 006355   000011 236100                    LDQ     9,,PR0
         3 006356   000022 772000                    QRL     18
         3 006357   000777 376007                    ANQ     511,DL
         3 006360   200243 756100                    STQ     DATA3,,AUTO

     1517    22646    2         CALL VALPTR (KQ$CG.MMD.MBLKHD$,AS0$,DATA4D,DATA4,DATA4N);
PL6.E3A0      #001=DAD$CGS File=DAD$CGS.:E05TSI                                  TUE 07/29/97 12:40 Page:247

  22646  3 006361   000001 236000 xsym               LDQ     B_VECTNIL+1
         3 006362   000001 235000 xsym               LDA     B_VECTNIL+1
         3 006363   200300 757100                    STAQ    @N+1,,AUTO
         3 006364   200246 631500                    EPPR1   DATA4N,,AUTO
         3 006365   200277 451500                    STP1    @W+1,,AUTO
         3 006366   200244 633500                    EPPR3   DATA4,,AUTO
         3 006367   200276 453500                    STP3    @D+1,,AUTO
         3 006370   200245 634500                    EPPR4   DATA4D,,AUTO
         3 006371   200275 454500                    STP4    @VPTR$+1,,AUTO
         3 006372   000040 236000 4                  LDQ     32
         3 006373   200274 756100                    STQ     @PTR$+1,,AUTO
         3 006374   200006 236100                    LDQ     M@CG$,,AUTO
         3 006375   000014 036003                    ADLQ    12,DU
         3 006376   200273 756100                    STQ     CFU$+2,,AUTO
         3 006377   011056 701000 3                  TSX1    VALPTR
         3 006400   000000 011000                    NOP     0

     1518    22647    2         DATA5 = KQ$CG.MMD.FREECNT;

  22647  3 006401   200006 470500                    LDP0    M@CG$,,AUTO
         3 006402   000007 235100                    LDA     7,,PR0
         3 006403   200247 755100                    STA     DATA5,,AUTO

     1519    22648    2         CALL DAF$WRITE (VECTOR (MMDFMT3), VECTOR (DATA1), VECTOR (DATA1D),
     1520    22649    2         VECTOR (DATA1N), VECTOR (DATA2), VECTOR (DATA3), VECTOR (DATA4),
     1521    22650    2         VECTOR (DATA4D), VECTOR (DATA4N), VECTOR (DATA5));

  22650  3 006404   777640 235007                    LDA     -96,DL
         3 006405   200302 452500                    STP2    @B+1,,AUTO
         3 006406   200302 236100                    LDQ     @B+1,,AUTO
         3 006407   000237 036003                    ADLQ    159,DU
         3 006410   200304 757100                    STAQ    @B+3,,AUTO
         3 006411   777640 235007                    LDA     -96,DL
         3 006412   200306 452500                    STP2    @B+5,,AUTO
         3 006413   200306 236100                    LDQ     @B+5,,AUTO
         3 006414   000240 036003                    ADLQ    160,DU
PL6.E3A0      #001=DAD$CGS File=DAD$CGS.:E05TSI                                  TUE 07/29/97 12:40 Page:248
         3 006415   200310 757100                    STAQ    @B+7,,AUTO
         3 006416   777640 235007                    LDA     -96,DL
         3 006417   200312 452500                    STP2    @B+9,,AUTO
         3 006420   200312 236100                    LDQ     @B+9,,AUTO
         3 006421   000241 036003                    ADLQ    161,DU
         3 006422   200314 757100                    STAQ    @B+11,,AUTO
         3 006423   777640 235007                    LDA     -96,DL
         3 006424   200316 452500                    STP2    @B+13,,AUTO
         3 006425   200316 236100                    LDQ     @B+13,,AUTO
         3 006426   000242 036003                    ADLQ    162,DU
         3 006427   200320 757100                    STAQ    @B+15,,AUTO
         3 006430   777640 235007                    LDA     -96,DL
         3 006431   200322 452500                    STP2    @B+17,,AUTO
         3 006432   200322 236100                    LDQ     @B+17,,AUTO
         3 006433   000243 036003                    ADLQ    163,DU
         3 006434   200324 757100                    STAQ    @B+19,,AUTO
         3 006435   777640 235007                    LDA     -96,DL
         3 006436   200326 452500                    STP2    @B+21,,AUTO
         3 006437   200326 236100                    LDQ     @B+21,,AUTO
         3 006440   000244 036003                    ADLQ    164,DU
         3 006441   200330 757100                    STAQ    @B+23,,AUTO
         3 006442   777640 235007                    LDA     -96,DL
         3 006443   200332 452500                    STP2    @B+25,,AUTO
         3 006444   200332 236100                    LDQ     @B+25,,AUTO
         3 006445   000245 036003                    ADLQ    165,DU
         3 006446   200334 757100                    STAQ    @B+27,,AUTO
         3 006447   777640 235007                    LDA     -96,DL
         3 006450   200336 452500                    STP2    @B+29,,AUTO
         3 006451   200336 236100                    LDQ     @B+29,,AUTO
         3 006452   000246 036003                    ADLQ    166,DU
         3 006453   200340 757100                    STAQ    @B+31,,AUTO
         3 006454   777640 235007                    LDA     -96,DL
         3 006455   200342 452500                    STP2    @B+33,,AUTO
         3 006456   200342 236100                    LDQ     @B+33,,AUTO
         3 006457   000247 036003                    ADLQ    167,DU
         3 006460   200346 757100                    STAQ    @B+37,,AUTO
         3 006461   200304 237100                    LDAQ    @B+3,,AUTO
PL6.E3A0      #001=DAD$CGS File=DAD$CGS.:E05TSI                                  TUE 07/29/97 12:40 Page:249
         3 006462   200344 757100                    STAQ    @B+35,,AUTO
         3 006463   200310 237100                    LDAQ    @B+7,,AUTO
         3 006464   200350 757100                    STAQ    @B+39,,AUTO
         3 006465   200314 237100                    LDAQ    @B+11,,AUTO
         3 006466   200352 757100                    STAQ    @B+41,,AUTO
         3 006467   200320 237100                    LDAQ    @B+15,,AUTO
         3 006470   200354 757100                    STAQ    @B+43,,AUTO
         3 006471   200324 237100                    LDAQ    @B+19,,AUTO
         3 006472   200356 757100                    STAQ    @B+45,,AUTO
         3 006473   200330 237100                    LDAQ    @B+23,,AUTO
         3 006474   200360 757100                    STAQ    @B+47,,AUTO
         3 006475   200334 237100                    LDAQ    @B+27,,AUTO
         3 006476   200362 757100                    STAQ    @B+49,,AUTO
         3 006477   200340 237100                    LDAQ    @B+31,,AUTO
         3 006500   200364 757100                    STAQ    @B+51,,AUTO
         3 006501   200346 237100                    LDAQ    @B+37,,AUTO
         3 006502   200366 757100                    STAQ    @B+53,,AUTO
         3 006503   200366 631500                    EPPR1   @B+53,,AUTO
         3 006504   200401 451500                    STP1    @B+64,,AUTO
         3 006505   200364 633500                    EPPR3   @B+51,,AUTO
         3 006506   200400 453500                    STP3    @B+63,,AUTO
         3 006507   200362 634500                    EPPR4   @B+49,,AUTO
         3 006510   200377 454500                    STP4    @B+62,,AUTO
         3 006511   200360 635500                    EPPR5   @B+47,,AUTO
         3 006512   200376 455500                    STP5    @B+61,,AUTO
         3 006513   200356 636500                    EPPR6   @B+45,,AUTO
         3 006514   200375 456500                    STP6    @B+60,,AUTO
         3 006515   200354 637500                    EPPR7   @B+43,,AUTO
         3 006516   200374 457500                    STP7    @B+59,,AUTO
         3 006517   200352 630500                    EPPR0   @B+41,,AUTO
         3 006520   200373 450500                    STP0    @B+58,,AUTO
         3 006521   200350 630500                    EPPR0   @B+39,,AUTO
         3 006522   200372 450500                    STP0    @B+57,,AUTO
         3 006523   200344 630500                    EPPR0   @B+35,,AUTO
         3 006524   200371 450500                    STP0    @B+56,,AUTO
         3 006525   000234 236000 4                  LDQ     156
         3 006526   200370 756100                    STQ     @B+55,,AUTO
PL6.E3A0      #001=DAD$CGS File=DAD$CGS.:E05TSI                                  TUE 07/29/97 12:40 Page:250
         3 006527   200370 630500                    EPPR0   @B+55,,AUTO
         3 006530   000000 220000 xsym               LDX0    DAF$WRITE
         3 006531   000224 631400 4                  EPPR1   148
         3 006532   000000 701010                    TSX1    0,X0
         3 006533   000000 011000                    NOP     0

     1522    22651
     1523    22652    2         RETURN;

  22652  3 006534   200236 221300                    LDX1  ! TEXTFIDL+2,,AUTO
         3 006535   000001 702211                    TSX2  ! 1,X1

     1524    22653
     1525    22654    2   END DIMMD;
     1526    22655
     1527    22656        %EJECT;
PL6.E3A0      #001=DAD$CGS File=DAD$CGS.:E05TSI                                  TUE 07/29/97 12:40 Page:251
     1528    22657
     1529    22658        /*I* NAME:        DIGARB
     1530    22659             ENTRY:       DIGARB
     1531    22660             CALL:        CALL DIGARB ALTRET (error);
     1532    22661             INPUT:       M@CG$ - Mapped pointer to current comgroup.
     1533    22662             DESCRIPTION: Displays the GARB data information from the current
     1534    22663                          comgroup context block. */
     1535    22664
     1536    22665    1   DIGARB: PROC ALTRET;

  22665  3 006536   200236 741300       DIGARB       STX1  ! TEXTFIDL+2,,AUTO

     1537    22666
     1538    22667    2   DCL DATA1 UBIN;
     1539    22668    2   DCL DATA2 UBIN;
     1540    22669    2   DCL DATA2D UBIN;
     1541    22670    2   DCL DATA2N UBIN;
     1542    22671    2   DCL DATA3 UBIN;
     1543    22672    2   DCL DATA4 UBIN;
     1544    22673
     1545    22674    2         IF KQ$CG.GARB.STA THEN

  22674  3 006537   200006 470500                    LDP0    M@CG$,,AUTO
         3 006540   000032 234100                    SZN     26,,PR0
         3 006541   006545 605000 3                  TPL     s:22677

     1546    22675    2           DATA1 = 1;

  22675  3 006542   000001 235007                    LDA     1,DL
         3 006543   200237 755100                    STA     DATA1,,AUTO
         3 006544   006546 710000 3                  TRA     s:22678

     1547    22676    2         ELSE
     1548    22677    2           DATA1 = 0;

  22677  3 006545   200237 450100                    STZ     DATA1,,AUTO

PL6.E3A0      #001=DAD$CGS File=DAD$CGS.:E05TSI                                  TUE 07/29/97 12:40 Page:252
     1549    22678    2         CALL VALPTR (KQ$CG.GARB.MBLK$,AS0$,DATA2D,DATA2,DATA2N);

  22678  3 006546   000001 236000 xsym               LDQ     B_VECTNIL+1
         3 006547   000001 235000 xsym               LDA     B_VECTNIL+1
         3 006550   200300 757100                    STAQ    @N+1,,AUTO
         3 006551   200242 631500                    EPPR1   DATA2N,,AUTO
         3 006552   200277 451500                    STP1    @W+1,,AUTO
         3 006553   200240 633500                    EPPR3   DATA2,,AUTO
         3 006554   200276 453500                    STP3    @D+1,,AUTO
         3 006555   200241 634500                    EPPR4   DATA2D,,AUTO
         3 006556   200275 454500                    STP4    @VPTR$+1,,AUTO
         3 006557   000040 236000 4                  LDQ     32
         3 006560   200274 756100                    STQ     @PTR$+1,,AUTO
         3 006561   200006 236100                    LDQ     M@CG$,,AUTO
         3 006562   000036 036003                    ADLQ    30,DU
         3 006563   200273 756100                    STQ     CFU$+2,,AUTO
         3 006564   011056 701000 3                  TSX1    VALPTR
         3 006565   000000 011000                    NOP     0

     1550    22679    2         DATA3 = KQ$CG.GARB.DELAY;

  22679  3 006566   200006 470500                    LDP0    M@CG$,,AUTO
         3 006567   000031 235100                    LDA     25,,PR0
         3 006570   200243 755100                    STA     DATA3,,AUTO

     1551    22680    2         DATA4 = KQ$CG.GARB.NCSTAMP;

  22680  3 006571   000042 236100                    LDQ     34,,PR0
         3 006572   777777 376007                    ANQ     -1,DL
         3 006573   200244 756100                    STQ     DATA4,,AUTO

     1552    22681    2         CALL DAF$WRITE (VECTOR (GARBFMT0), VECTOR (DATA1), VECTOR (DATA2),

  22681  3 006574   777640 235007                    LDA     -96,DL
         3 006575   200302 452500                    STP2    @B+1,,AUTO
         3 006576   200302 236100                    LDQ     @B+1,,AUTO
         3 006577   000237 036003                    ADLQ    159,DU
PL6.E3A0      #001=DAD$CGS File=DAD$CGS.:E05TSI                                  TUE 07/29/97 12:40 Page:253
         3 006600   200304 757100                    STAQ    @B+3,,AUTO
         3 006601   777640 235007                    LDA     -96,DL
         3 006602   200306 452500                    STP2    @B+5,,AUTO
         3 006603   200306 236100                    LDQ     @B+5,,AUTO
         3 006604   000240 036003                    ADLQ    160,DU
         3 006605   200310 757100                    STAQ    @B+7,,AUTO
         3 006606   777640 235007                    LDA     -96,DL
         3 006607   200312 452500                    STP2    @B+9,,AUTO
         3 006610   200312 236100                    LDQ     @B+9,,AUTO
         3 006611   000241 036003                    ADLQ    161,DU
         3 006612   200314 757100                    STAQ    @B+11,,AUTO
         3 006613   777640 235007                    LDA     -96,DL
         3 006614   200316 452500                    STP2    @B+13,,AUTO
         3 006615   200316 236100                    LDQ     @B+13,,AUTO
         3 006616   000242 036003                    ADLQ    162,DU
         3 006617   200320 757100                    STAQ    @B+15,,AUTO
         3 006620   777640 235007                    LDA     -96,DL
         3 006621   200322 452500                    STP2    @B+17,,AUTO
         3 006622   200322 236100                    LDQ     @B+17,,AUTO
         3 006623   000243 036003                    ADLQ    163,DU
         3 006624   200324 757100                    STAQ    @B+19,,AUTO
         3 006625   777640 235007                    LDA     -96,DL
         3 006626   200326 452500                    STP2    @B+21,,AUTO
         3 006627   200326 236100                    LDQ     @B+21,,AUTO
         3 006630   000244 036003                    ADLQ    164,DU
         3 006631   200332 757100                    STAQ    @B+25,,AUTO
         3 006632   200304 237100                    LDAQ    @B+3,,AUTO
         3 006633   200330 757100                    STAQ    @B+23,,AUTO
         3 006634   200310 237100                    LDAQ    @B+7,,AUTO
         3 006635   200334 757100                    STAQ    @B+27,,AUTO
         3 006636   200314 237100                    LDAQ    @B+11,,AUTO
         3 006637   200336 757100                    STAQ    @B+29,,AUTO
         3 006640   200320 237100                    LDAQ    @B+15,,AUTO
         3 006641   200340 757100                    STAQ    @B+31,,AUTO
         3 006642   200324 237100                    LDAQ    @B+19,,AUTO
         3 006643   200342 757100                    STAQ    @B+33,,AUTO
         3 006644   200332 237100                    LDAQ    @B+25,,AUTO
PL6.E3A0      #001=DAD$CGS File=DAD$CGS.:E05TSI                                  TUE 07/29/97 12:40 Page:254
         3 006645   200344 757100                    STAQ    @B+35,,AUTO
         3 006646   200344 631500                    EPPR1   @B+35,,AUTO
         3 006647   200354 451500                    STP1    @B+43,,AUTO
         3 006650   200342 633500                    EPPR3   @B+33,,AUTO
         3 006651   200353 453500                    STP3    @B+42,,AUTO
         3 006652   200340 634500                    EPPR4   @B+31,,AUTO
         3 006653   200352 454500                    STP4    @B+41,,AUTO
         3 006654   200336 635500                    EPPR5   @B+29,,AUTO
         3 006655   200351 455500                    STP5    @B+40,,AUTO
         3 006656   200334 636500                    EPPR6   @B+27,,AUTO
         3 006657   200350 456500                    STP6    @B+39,,AUTO
         3 006660   200330 637500                    EPPR7   @B+23,,AUTO
         3 006661   200347 457500                    STP7    @B+38,,AUTO
         3 006662   000240 236000 4                  LDQ     160
         3 006663   200346 756100                    STQ     @B+37,,AUTO
         3 006664   200346 630500                    EPPR0   @B+37,,AUTO
         3 006665   000000 220000 xsym               LDX0    DAF$WRITE
         3 006666   000025 631400 xsym               EPPR1   B_VECTNIL+21
         3 006667   000000 701010                    TSX1    0,X0
         3 006670   000000 011000                    NOP     0

     1553    22682    2         VECTOR (DATA2D), VECTOR (DATA2N), VECTOR (DATA3), VECTOR (DATA4));
     1554    22683    2         IF KQ$CG.GARB.DMIP THEN

  22683  3 006671   200006 470500                    LDP0    M@CG$,,AUTO
         3 006672   000032 236100                    LDQ     26,,PR0
         3 006673   200000 316003                    CANQ    65536,DU
         3 006674   006700 600000 3                  TZE     s:22686

     1555    22684    2           DATA1 = 1;

  22684  3 006675   000001 235007                    LDA     1,DL
         3 006676   200237 755100                    STA     DATA1,,AUTO
         3 006677   006701 710000 3                  TRA     s:22687

     1556    22685    2         ELSE
     1557    22686    2           DATA1 = 0;
PL6.E3A0      #001=DAD$CGS File=DAD$CGS.:E05TSI                                  TUE 07/29/97 12:40 Page:255

  22686  3 006700   200237 450100                    STZ     DATA1,,AUTO

     1558    22687    2         CALL VALPTR (KQ$CG.GARB.OMLH$,AS0$,DATA2D,DATA2,DATA2N);

  22687  3 006701   000001 236000 xsym               LDQ     B_VECTNIL+1
         3 006702   000001 235000 xsym               LDA     B_VECTNIL+1
         3 006703   200300 757100                    STAQ    @N+1,,AUTO
         3 006704   200242 631500                    EPPR1   DATA2N,,AUTO
         3 006705   200277 451500                    STP1    @W+1,,AUTO
         3 006706   200240 633500                    EPPR3   DATA2,,AUTO
         3 006707   200276 453500                    STP3    @D+1,,AUTO
         3 006710   200241 634500                    EPPR4   DATA2D,,AUTO
         3 006711   200275 454500                    STP4    @VPTR$+1,,AUTO
         3 006712   000040 236000 4                  LDQ     32
         3 006713   200274 756100                    STQ     @PTR$+1,,AUTO
         3 006714   200006 236100                    LDQ     M@CG$,,AUTO
         3 006715   000037 036003                    ADLQ    31,DU
         3 006716   200273 756100                    STQ     CFU$+2,,AUTO
         3 006717   011056 701000 3                  TSX1    VALPTR
         3 006720   000000 011000                    NOP     0

     1559    22688    2         DATA3 = KQ$CG.GARB.ACTCNT;

  22688  3 006721   200006 470500                    LDP0    M@CG$,,AUTO
         3 006722   000032 236100                    LDQ     26,,PR0
         3 006723   777777 376007                    ANQ     -1,DL
         3 006724   200243 756100                    STQ     DATA3,,AUTO

     1560    22689    2         DATA4 = KQ$CG.GARB.NCDDA;

  22689  3 006725   000043 235100                    LDA     35,,PR0
         3 006726   200244 755100                    STA     DATA4,,AUTO

     1561    22690    2         CALL DAF$WRITE (VECTOR (GARBFMT1), VECTOR (DATA1), VECTOR (DATA2),

  22690  3 006727   777640 235007                    LDA     -96,DL
PL6.E3A0      #001=DAD$CGS File=DAD$CGS.:E05TSI                                  TUE 07/29/97 12:40 Page:256
         3 006730   200302 452500                    STP2    @B+1,,AUTO
         3 006731   200302 236100                    LDQ     @B+1,,AUTO
         3 006732   000237 036003                    ADLQ    159,DU
         3 006733   200304 757100                    STAQ    @B+3,,AUTO
         3 006734   777640 235007                    LDA     -96,DL
         3 006735   200306 452500                    STP2    @B+5,,AUTO
         3 006736   200306 236100                    LDQ     @B+5,,AUTO
         3 006737   000240 036003                    ADLQ    160,DU
         3 006740   200310 757100                    STAQ    @B+7,,AUTO
         3 006741   777640 235007                    LDA     -96,DL
         3 006742   200312 452500                    STP2    @B+9,,AUTO
         3 006743   200312 236100                    LDQ     @B+9,,AUTO
         3 006744   000241 036003                    ADLQ    161,DU
         3 006745   200314 757100                    STAQ    @B+11,,AUTO
         3 006746   777640 235007                    LDA     -96,DL
         3 006747   200316 452500                    STP2    @B+13,,AUTO
         3 006750   200316 236100                    LDQ     @B+13,,AUTO
         3 006751   000242 036003                    ADLQ    162,DU
         3 006752   200320 757100                    STAQ    @B+15,,AUTO
         3 006753   777640 235007                    LDA     -96,DL
         3 006754   200322 452500                    STP2    @B+17,,AUTO
         3 006755   200322 236100                    LDQ     @B+17,,AUTO
         3 006756   000243 036003                    ADLQ    163,DU
         3 006757   200324 757100                    STAQ    @B+19,,AUTO
         3 006760   777640 235007                    LDA     -96,DL
         3 006761   200326 452500                    STP2    @B+21,,AUTO
         3 006762   200326 236100                    LDQ     @B+21,,AUTO
         3 006763   000244 036003                    ADLQ    164,DU
         3 006764   200332 757100                    STAQ    @B+25,,AUTO
         3 006765   200304 237100                    LDAQ    @B+3,,AUTO
         3 006766   200330 757100                    STAQ    @B+23,,AUTO
         3 006767   200310 237100                    LDAQ    @B+7,,AUTO
         3 006770   200334 757100                    STAQ    @B+27,,AUTO
         3 006771   200314 237100                    LDAQ    @B+11,,AUTO
         3 006772   200336 757100                    STAQ    @B+29,,AUTO
         3 006773   200320 237100                    LDAQ    @B+15,,AUTO
         3 006774   200340 757100                    STAQ    @B+31,,AUTO
PL6.E3A0      #001=DAD$CGS File=DAD$CGS.:E05TSI                                  TUE 07/29/97 12:40 Page:257
         3 006775   200324 237100                    LDAQ    @B+19,,AUTO
         3 006776   200342 757100                    STAQ    @B+33,,AUTO
         3 006777   200332 237100                    LDAQ    @B+25,,AUTO
         3 007000   200344 757100                    STAQ    @B+35,,AUTO
         3 007001   200344 631500                    EPPR1   @B+35,,AUTO
         3 007002   200354 451500                    STP1    @B+43,,AUTO
         3 007003   200342 633500                    EPPR3   @B+33,,AUTO
         3 007004   200353 453500                    STP3    @B+42,,AUTO
         3 007005   200340 634500                    EPPR4   @B+31,,AUTO
         3 007006   200352 454500                    STP4    @B+41,,AUTO
         3 007007   200336 635500                    EPPR5   @B+29,,AUTO
         3 007010   200351 455500                    STP5    @B+40,,AUTO
         3 007011   200334 636500                    EPPR6   @B+27,,AUTO
         3 007012   200350 456500                    STP6    @B+39,,AUTO
         3 007013   200330 637500                    EPPR7   @B+23,,AUTO
         3 007014   200347 457500                    STP7    @B+38,,AUTO
         3 007015   000244 236000 4                  LDQ     164
         3 007016   200346 756100                    STQ     @B+37,,AUTO
         3 007017   200346 630500                    EPPR0   @B+37,,AUTO
         3 007020   000000 220000 xsym               LDX0    DAF$WRITE
         3 007021   000025 631400 xsym               EPPR1   B_VECTNIL+21
         3 007022   000000 701010                    TSX1    0,X0
         3 007023   000000 011000                    NOP     0

     1562    22691    2         VECTOR (DATA2D), VECTOR (DATA2N), VECTOR (DATA3), VECTOR (DATA4));
     1563    22692    2         IF KQ$CG.GARB.RECYCLE THEN

  22692  3 007024   200006 470500                    LDP0    M@CG$,,AUTO
         3 007025   000032 236100                    LDQ     26,,PR0
         3 007026   100000 316003                    CANQ    32768,DU
         3 007027   007033 600000 3                  TZE     s:22695

     1564    22693    2           DATA1 = 1;

  22693  3 007030   000001 235007                    LDA     1,DL
         3 007031   200237 755100                    STA     DATA1,,AUTO
         3 007032   007034 710000 3                  TRA     s:22696
PL6.E3A0      #001=DAD$CGS File=DAD$CGS.:E05TSI                                  TUE 07/29/97 12:40 Page:258

     1565    22694    2         ELSE
     1566    22695    2           DATA1 = 0;

  22695  3 007033   200237 450100                    STZ     DATA1,,AUTO

     1567    22696    2         CALL VALPTR (KQ$CG.GARB.SPHD$,AS0$,DATA2D,DATA2,DATA2N);

  22696  3 007034   000001 236000 xsym               LDQ     B_VECTNIL+1
         3 007035   000001 235000 xsym               LDA     B_VECTNIL+1
         3 007036   200300 757100                    STAQ    @N+1,,AUTO
         3 007037   200242 631500                    EPPR1   DATA2N,,AUTO
         3 007040   200277 451500                    STP1    @W+1,,AUTO
         3 007041   200240 633500                    EPPR3   DATA2,,AUTO
         3 007042   200276 453500                    STP3    @D+1,,AUTO
         3 007043   200241 634500                    EPPR4   DATA2D,,AUTO
         3 007044   200275 454500                    STP4    @VPTR$+1,,AUTO
         3 007045   000040 236000 4                  LDQ     32
         3 007046   200274 756100                    STQ     @PTR$+1,,AUTO
         3 007047   200006 236100                    LDQ     M@CG$,,AUTO
         3 007050   000040 036003                    ADLQ    32,DU
         3 007051   200273 756100                    STQ     CFU$+2,,AUTO
         3 007052   011056 701000 3                  TSX1    VALPTR
         3 007053   000000 011000                    NOP     0

     1568    22697    2         DATA3 = KQ$CG.GARB.SPLITCNT;

  22697  3 007054   200006 470500                    LDP0    M@CG$,,AUTO
         3 007055   000042 236100                    LDQ     34,,PR0
         3 007056   000022 772000                    QRL     18
         3 007057   200243 756100                    STQ     DATA3,,AUTO

     1569    22698    2         DATA4 = KQ$CG.GARB.SCSTAMP;

  22698  3 007060   000045 236100                    LDQ     37,,PR0
         3 007061   000022 772000                    QRL     18
         3 007062   200244 756100                    STQ     DATA4,,AUTO
PL6.E3A0      #001=DAD$CGS File=DAD$CGS.:E05TSI                                  TUE 07/29/97 12:40 Page:259

     1570    22699    2         CALL DAF$WRITE (VECTOR (GARBFMT2), VECTOR (DATA1), VECTOR (DATA2),

  22699  3 007063   777640 235007                    LDA     -96,DL
         3 007064   200302 452500                    STP2    @B+1,,AUTO
         3 007065   200302 236100                    LDQ     @B+1,,AUTO
         3 007066   000237 036003                    ADLQ    159,DU
         3 007067   200304 757100                    STAQ    @B+3,,AUTO
         3 007070   777640 235007                    LDA     -96,DL
         3 007071   200306 452500                    STP2    @B+5,,AUTO
         3 007072   200306 236100                    LDQ     @B+5,,AUTO
         3 007073   000240 036003                    ADLQ    160,DU
         3 007074   200310 757100                    STAQ    @B+7,,AUTO
         3 007075   777640 235007                    LDA     -96,DL
         3 007076   200312 452500                    STP2    @B+9,,AUTO
         3 007077   200312 236100                    LDQ     @B+9,,AUTO
         3 007100   000241 036003                    ADLQ    161,DU
         3 007101   200314 757100                    STAQ    @B+11,,AUTO
         3 007102   777640 235007                    LDA     -96,DL
         3 007103   200316 452500                    STP2    @B+13,,AUTO
         3 007104   200316 236100                    LDQ     @B+13,,AUTO
         3 007105   000242 036003                    ADLQ    162,DU
         3 007106   200320 757100                    STAQ    @B+15,,AUTO
         3 007107   777640 235007                    LDA     -96,DL
         3 007110   200322 452500                    STP2    @B+17,,AUTO
         3 007111   200322 236100                    LDQ     @B+17,,AUTO
         3 007112   000243 036003                    ADLQ    163,DU
         3 007113   200324 757100                    STAQ    @B+19,,AUTO
         3 007114   777640 235007                    LDA     -96,DL
         3 007115   200326 452500                    STP2    @B+21,,AUTO
         3 007116   200326 236100                    LDQ     @B+21,,AUTO
         3 007117   000244 036003                    ADLQ    164,DU
         3 007120   200332 757100                    STAQ    @B+25,,AUTO
         3 007121   200304 237100                    LDAQ    @B+3,,AUTO
         3 007122   200330 757100                    STAQ    @B+23,,AUTO
         3 007123   200310 237100                    LDAQ    @B+7,,AUTO
         3 007124   200334 757100                    STAQ    @B+27,,AUTO
PL6.E3A0      #001=DAD$CGS File=DAD$CGS.:E05TSI                                  TUE 07/29/97 12:40 Page:260
         3 007125   200314 237100                    LDAQ    @B+11,,AUTO
         3 007126   200336 757100                    STAQ    @B+29,,AUTO
         3 007127   200320 237100                    LDAQ    @B+15,,AUTO
         3 007130   200340 757100                    STAQ    @B+31,,AUTO
         3 007131   200324 237100                    LDAQ    @B+19,,AUTO
         3 007132   200342 757100                    STAQ    @B+33,,AUTO
         3 007133   200332 237100                    LDAQ    @B+25,,AUTO
         3 007134   200344 757100                    STAQ    @B+35,,AUTO
         3 007135   200344 631500                    EPPR1   @B+35,,AUTO
         3 007136   200354 451500                    STP1    @B+43,,AUTO
         3 007137   200342 633500                    EPPR3   @B+33,,AUTO
         3 007140   200353 453500                    STP3    @B+42,,AUTO
         3 007141   200340 634500                    EPPR4   @B+31,,AUTO
         3 007142   200352 454500                    STP4    @B+41,,AUTO
         3 007143   200336 635500                    EPPR5   @B+29,,AUTO
         3 007144   200351 455500                    STP5    @B+40,,AUTO
         3 007145   200334 636500                    EPPR6   @B+27,,AUTO
         3 007146   200350 456500                    STP6    @B+39,,AUTO
         3 007147   200330 637500                    EPPR7   @B+23,,AUTO
         3 007150   200347 457500                    STP7    @B+38,,AUTO
         3 007151   000250 236000 4                  LDQ     168
         3 007152   200346 756100                    STQ     @B+37,,AUTO
         3 007153   200346 630500                    EPPR0   @B+37,,AUTO
         3 007154   000000 220000 xsym               LDX0    DAF$WRITE
         3 007155   000025 631400 xsym               EPPR1   B_VECTNIL+21
         3 007156   000000 701010                    TSX1    0,X0
         3 007157   000000 011000                    NOP     0

     1571    22700    2         VECTOR (DATA2D), VECTOR (DATA2N), VECTOR (DATA3), VECTOR (DATA4));
     1572    22701    2         IF KQ$CG.GARB.INSRT THEN

  22701  3 007160   200006 470500                    LDP0    M@CG$,,AUTO
         3 007161   000032 236100                    LDQ     26,,PR0
         3 007162   040000 316003                    CANQ    16384,DU
         3 007163   007167 600000 3                  TZE     s:22704

     1573    22702    2           DATA1 = 1;
PL6.E3A0      #001=DAD$CGS File=DAD$CGS.:E05TSI                                  TUE 07/29/97 12:40 Page:261

  22702  3 007164   000001 235007                    LDA     1,DL
         3 007165   200237 755100                    STA     DATA1,,AUTO
         3 007166   007170 710000 3                  TRA     s:22705

     1574    22703    2         ELSE
     1575    22704    2           DATA1 = 0;

  22704  3 007167   200237 450100                    STZ     DATA1,,AUTO

     1576    22705    2         CALL VALPTR (KQ$CG.GARB.SPTL$,AS0$,DATA2D,DATA2,DATA2N);

  22705  3 007170   000001 236000 xsym               LDQ     B_VECTNIL+1
         3 007171   000001 235000 xsym               LDA     B_VECTNIL+1
         3 007172   200300 757100                    STAQ    @N+1,,AUTO
         3 007173   200242 631500                    EPPR1   DATA2N,,AUTO
         3 007174   200277 451500                    STP1    @W+1,,AUTO
         3 007175   200240 633500                    EPPR3   DATA2,,AUTO
         3 007176   200276 453500                    STP3    @D+1,,AUTO
         3 007177   200241 634500                    EPPR4   DATA2D,,AUTO
         3 007200   200275 454500                    STP4    @VPTR$+1,,AUTO
         3 007201   000040 236000 4                  LDQ     32
         3 007202   200274 756100                    STQ     @PTR$+1,,AUTO
         3 007203   200006 236100                    LDQ     M@CG$,,AUTO
         3 007204   000041 036003                    ADLQ    33,DU
         3 007205   200273 756100                    STQ     CFU$+2,,AUTO
         3 007206   011056 701000 3                  TSX1    VALPTR
         3 007207   000000 011000                    NOP     0

     1577    22706    2         DATA3 = KQ$CG.GARB.INDX;

  22706  3 007210   200006 470500                    LDP0    M@CG$,,AUTO
         3 007211   000033 235100                    LDA     27,,PR0
         3 007212   200243 755100                    STA     DATA3,,AUTO

     1578    22707    2         DATA4 = KQ$CG.GARB.SCDDA;

PL6.E3A0      #001=DAD$CGS File=DAD$CGS.:E05TSI                                  TUE 07/29/97 12:40 Page:262
  22707  3 007213   000044 235100                    LDA     36,,PR0
         3 007214   200244 755100                    STA     DATA4,,AUTO

     1579    22708    2         CALL DAF$WRITE (VECTOR (GARBFMT3), VECTOR (DATA1), VECTOR (DATA2),

  22708  3 007215   777640 235007                    LDA     -96,DL
         3 007216   200302 452500                    STP2    @B+1,,AUTO
         3 007217   200302 236100                    LDQ     @B+1,,AUTO
         3 007220   000237 036003                    ADLQ    159,DU
         3 007221   200304 757100                    STAQ    @B+3,,AUTO
         3 007222   777640 235007                    LDA     -96,DL
         3 007223   200306 452500                    STP2    @B+5,,AUTO
         3 007224   200306 236100                    LDQ     @B+5,,AUTO
         3 007225   000240 036003                    ADLQ    160,DU
         3 007226   200310 757100                    STAQ    @B+7,,AUTO
         3 007227   777640 235007                    LDA     -96,DL
         3 007230   200312 452500                    STP2    @B+9,,AUTO
         3 007231   200312 236100                    LDQ     @B+9,,AUTO
         3 007232   000241 036003                    ADLQ    161,DU
         3 007233   200314 757100                    STAQ    @B+11,,AUTO
         3 007234   777640 235007                    LDA     -96,DL
         3 007235   200316 452500                    STP2    @B+13,,AUTO
         3 007236   200316 236100                    LDQ     @B+13,,AUTO
         3 007237   000242 036003                    ADLQ    162,DU
         3 007240   200320 757100                    STAQ    @B+15,,AUTO
         3 007241   777640 235007                    LDA     -96,DL
         3 007242   200322 452500                    STP2    @B+17,,AUTO
         3 007243   200322 236100                    LDQ     @B+17,,AUTO
         3 007244   000243 036003                    ADLQ    163,DU
         3 007245   200324 757100                    STAQ    @B+19,,AUTO
         3 007246   777640 235007                    LDA     -96,DL
         3 007247   200326 452500                    STP2    @B+21,,AUTO
         3 007250   200326 236100                    LDQ     @B+21,,AUTO
         3 007251   000244 036003                    ADLQ    164,DU
         3 007252   200332 757100                    STAQ    @B+25,,AUTO
         3 007253   200304 237100                    LDAQ    @B+3,,AUTO
         3 007254   200330 757100                    STAQ    @B+23,,AUTO
PL6.E3A0      #001=DAD$CGS File=DAD$CGS.:E05TSI                                  TUE 07/29/97 12:40 Page:263
         3 007255   200310 237100                    LDAQ    @B+7,,AUTO
         3 007256   200334 757100                    STAQ    @B+27,,AUTO
         3 007257   200314 237100                    LDAQ    @B+11,,AUTO
         3 007260   200336 757100                    STAQ    @B+29,,AUTO
         3 007261   200320 237100                    LDAQ    @B+15,,AUTO
         3 007262   200340 757100                    STAQ    @B+31,,AUTO
         3 007263   200324 237100                    LDAQ    @B+19,,AUTO
         3 007264   200342 757100                    STAQ    @B+33,,AUTO
         3 007265   200332 237100                    LDAQ    @B+25,,AUTO
         3 007266   200344 757100                    STAQ    @B+35,,AUTO
         3 007267   200344 631500                    EPPR1   @B+35,,AUTO
         3 007270   200354 451500                    STP1    @B+43,,AUTO
         3 007271   200342 633500                    EPPR3   @B+33,,AUTO
         3 007272   200353 453500                    STP3    @B+42,,AUTO
         3 007273   200340 634500                    EPPR4   @B+31,,AUTO
         3 007274   200352 454500                    STP4    @B+41,,AUTO
         3 007275   200336 635500                    EPPR5   @B+29,,AUTO
         3 007276   200351 455500                    STP5    @B+40,,AUTO
         3 007277   200334 636500                    EPPR6   @B+27,,AUTO
         3 007300   200350 456500                    STP6    @B+39,,AUTO
         3 007301   200330 637500                    EPPR7   @B+23,,AUTO
         3 007302   200347 457500                    STP7    @B+38,,AUTO
         3 007303   000254 236000 4                  LDQ     172
         3 007304   200346 756100                    STQ     @B+37,,AUTO
         3 007305   200346 630500                    EPPR0   @B+37,,AUTO
         3 007306   000000 220000 xsym               LDX0    DAF$WRITE
         3 007307   000025 631400 xsym               EPPR1   B_VECTNIL+21
         3 007310   000000 701010                    TSX1    0,X0
         3 007311   000000 011000                    NOP     0

     1580    22709    2         VECTOR (DATA2D), VECTOR (DATA2N), VECTOR (DATA3), VECTOR (DATA4));
     1581    22710    2         IF KQ$CG.GARB.CONERR THEN

  22710  3 007312   200006 470500                    LDP0    M@CG$,,AUTO
         3 007313   000032 236100                    LDQ     26,,PR0
         3 007314   020000 316003                    CANQ    8192,DU
         3 007315   007321 600000 3                  TZE     s:22713
PL6.E3A0      #001=DAD$CGS File=DAD$CGS.:E05TSI                                  TUE 07/29/97 12:40 Page:264

     1582    22711    2           DATA1 = 1;

  22711  3 007316   000001 235007                    LDA     1,DL
         3 007317   200237 755100                    STA     DATA1,,AUTO
         3 007320   007322 710000 3                  TRA     s:22714

     1583    22712    2         ELSE
     1584    22713    2           DATA1 = 0;

  22713  3 007321   200237 450100                    STZ     DATA1,,AUTO

     1585    22714    2         CALL VALPTR (KQ$CG.GARB.SQHD$,AS0$,DATA2D,DATA2,DATA2N);

  22714  3 007322   000001 236000 xsym               LDQ     B_VECTNIL+1
         3 007323   000001 235000 xsym               LDA     B_VECTNIL+1
         3 007324   200300 757100                    STAQ    @N+1,,AUTO
         3 007325   200242 631500                    EPPR1   DATA2N,,AUTO
         3 007326   200277 451500                    STP1    @W+1,,AUTO
         3 007327   200240 633500                    EPPR3   DATA2,,AUTO
         3 007330   200276 453500                    STP3    @D+1,,AUTO
         3 007331   200241 634500                    EPPR4   DATA2D,,AUTO
         3 007332   200275 454500                    STP4    @VPTR$+1,,AUTO
         3 007333   000040 236000 4                  LDQ     32
         3 007334   200274 756100                    STQ     @PTR$+1,,AUTO
         3 007335   200006 236100                    LDQ     M@CG$,,AUTO
         3 007336   000051 036003                    ADLQ    41,DU
         3 007337   200273 756100                    STQ     CFU$+2,,AUTO
         3 007340   011056 701000 3                  TSX1    VALPTR
         3 007341   000000 011000                    NOP     0

     1586    22715    2         DATA3 = KQ$CG.GARB.RELCNT;

  22715  3 007342   200006 470500                    LDP0    M@CG$,,AUTO
         3 007343   000047 235100                    LDA     39,,PR0
         3 007344   200243 755100                    STA     DATA3,,AUTO

PL6.E3A0      #001=DAD$CGS File=DAD$CGS.:E05TSI                                  TUE 07/29/97 12:40 Page:265
     1587    22716    2         DATA4 = KQ$CG.GARB.PCSTAMP;

  22716  3 007345   000050 236100                    LDQ     40,,PR0
         3 007346   000022 772000                    QRL     18
         3 007347   200244 756100                    STQ     DATA4,,AUTO

     1588    22717    2         CALL DAF$WRITE (VECTOR (GARBFMT4), VECTOR (DATA1), VECTOR (DATA2),

  22717  3 007350   777640 235007                    LDA     -96,DL
         3 007351   200302 452500                    STP2    @B+1,,AUTO
         3 007352   200302 236100                    LDQ     @B+1,,AUTO
         3 007353   000237 036003                    ADLQ    159,DU
         3 007354   200304 757100                    STAQ    @B+3,,AUTO
         3 007355   777640 235007                    LDA     -96,DL
         3 007356   200306 452500                    STP2    @B+5,,AUTO
         3 007357   200306 236100                    LDQ     @B+5,,AUTO
         3 007360   000240 036003                    ADLQ    160,DU
         3 007361   200310 757100                    STAQ    @B+7,,AUTO
         3 007362   777640 235007                    LDA     -96,DL
         3 007363   200312 452500                    STP2    @B+9,,AUTO
         3 007364   200312 236100                    LDQ     @B+9,,AUTO
         3 007365   000241 036003                    ADLQ    161,DU
         3 007366   200314 757100                    STAQ    @B+11,,AUTO
         3 007367   777640 235007                    LDA     -96,DL
         3 007370   200316 452500                    STP2    @B+13,,AUTO
         3 007371   200316 236100                    LDQ     @B+13,,AUTO
         3 007372   000242 036003                    ADLQ    162,DU
         3 007373   200320 757100                    STAQ    @B+15,,AUTO
         3 007374   777640 235007                    LDA     -96,DL
         3 007375   200322 452500                    STP2    @B+17,,AUTO
         3 007376   200322 236100                    LDQ     @B+17,,AUTO
         3 007377   000243 036003                    ADLQ    163,DU
         3 007400   200324 757100                    STAQ    @B+19,,AUTO
         3 007401   777640 235007                    LDA     -96,DL
         3 007402   200326 452500                    STP2    @B+21,,AUTO
         3 007403   200326 236100                    LDQ     @B+21,,AUTO
         3 007404   000244 036003                    ADLQ    164,DU
PL6.E3A0      #001=DAD$CGS File=DAD$CGS.:E05TSI                                  TUE 07/29/97 12:40 Page:266
         3 007405   200332 757100                    STAQ    @B+25,,AUTO
         3 007406   200304 237100                    LDAQ    @B+3,,AUTO
         3 007407   200330 757100                    STAQ    @B+23,,AUTO
         3 007410   200310 237100                    LDAQ    @B+7,,AUTO
         3 007411   200334 757100                    STAQ    @B+27,,AUTO
         3 007412   200314 237100                    LDAQ    @B+11,,AUTO
         3 007413   200336 757100                    STAQ    @B+29,,AUTO
         3 007414   200320 237100                    LDAQ    @B+15,,AUTO
         3 007415   200340 757100                    STAQ    @B+31,,AUTO
         3 007416   200324 237100                    LDAQ    @B+19,,AUTO
         3 007417   200342 757100                    STAQ    @B+33,,AUTO
         3 007420   200332 237100                    LDAQ    @B+25,,AUTO
         3 007421   200344 757100                    STAQ    @B+35,,AUTO
         3 007422   200344 631500                    EPPR1   @B+35,,AUTO
         3 007423   200354 451500                    STP1    @B+43,,AUTO
         3 007424   200342 633500                    EPPR3   @B+33,,AUTO
         3 007425   200353 453500                    STP3    @B+42,,AUTO
         3 007426   200340 634500                    EPPR4   @B+31,,AUTO
         3 007427   200352 454500                    STP4    @B+41,,AUTO
         3 007430   200336 635500                    EPPR5   @B+29,,AUTO
         3 007431   200351 455500                    STP5    @B+40,,AUTO
         3 007432   200334 636500                    EPPR6   @B+27,,AUTO
         3 007433   200350 456500                    STP6    @B+39,,AUTO
         3 007434   200330 637500                    EPPR7   @B+23,,AUTO
         3 007435   200347 457500                    STP7    @B+38,,AUTO
         3 007436   000260 236000 4                  LDQ     176
         3 007437   200346 756100                    STQ     @B+37,,AUTO
         3 007440   200346 630500                    EPPR0   @B+37,,AUTO
         3 007441   000000 220000 xsym               LDX0    DAF$WRITE
         3 007442   000025 631400 xsym               EPPR1   B_VECTNIL+21
         3 007443   000000 701010                    TSX1    0,X0
         3 007444   000000 011000                    NOP     0

     1589    22718    2         VECTOR (DATA2D), VECTOR (DATA2N), VECTOR (DATA3), VECTOR (DATA4));
     1590    22719    2         IF KQ$CG.GARB.SQIP THEN

  22719  3 007445   200006 470500                    LDP0    M@CG$,,AUTO
PL6.E3A0      #001=DAD$CGS File=DAD$CGS.:E05TSI                                  TUE 07/29/97 12:40 Page:267
         3 007446   000032 236100                    LDQ     26,,PR0
         3 007447   010000 316003                    CANQ    4096,DU
         3 007450   007454 600000 3                  TZE     s:22722

     1591    22720    2           DATA1 = 1;

  22720  3 007451   000001 235007                    LDA     1,DL
         3 007452   200237 755100                    STA     DATA1,,AUTO
         3 007453   007455 710000 3                  TRA     s:22723

     1592    22721    2         ELSE
     1593    22722    2           DATA1 = 0;

  22722  3 007454   200237 450100                    STZ     DATA1,,AUTO

     1594    22723    2         CALL VALPTR (KQ$CG.GARB.DBLK$,AS0$,DATA2D,DATA2,DATA2N);

  22723  3 007455   000001 236000 xsym               LDQ     B_VECTNIL+1
         3 007456   000001 235000 xsym               LDA     B_VECTNIL+1
         3 007457   200300 757100                    STAQ    @N+1,,AUTO
         3 007460   200242 631500                    EPPR1   DATA2N,,AUTO
         3 007461   200277 451500                    STP1    @W+1,,AUTO
         3 007462   200240 633500                    EPPR3   DATA2,,AUTO
         3 007463   200276 453500                    STP3    @D+1,,AUTO
         3 007464   200241 634500                    EPPR4   DATA2D,,AUTO
         3 007465   200275 454500                    STP4    @VPTR$+1,,AUTO
         3 007466   000040 236000 4                  LDQ     32
         3 007467   200274 756100                    STQ     @PTR$+1,,AUTO
         3 007470   200006 236100                    LDQ     M@CG$,,AUTO
         3 007471   000052 036003                    ADLQ    42,DU
         3 007472   200273 756100                    STQ     CFU$+2,,AUTO
         3 007473   011056 701000 3                  TSX1    VALPTR
         3 007474   000000 011000                    NOP     0

     1595    22724    2         DATA3 = KQ$CG.GARB.CCCOUNT;

  22724  3 007475   200006 470500                    LDP0    M@CG$,,AUTO
PL6.E3A0      #001=DAD$CGS File=DAD$CGS.:E05TSI                                  TUE 07/29/97 12:40 Page:268
         3 007476   000050 236100                    LDQ     40,,PR0
         3 007477   777777 376007                    ANQ     -1,DL
         3 007500   200243 756100                    STQ     DATA3,,AUTO

     1596    22725    2         DATA4 = KQ$CG.GARB.SPSTATE;

  22725  3 007501   000046 236100                    LDQ     38,,PR0
         3 007502   000022 772000                    QRL     18
         3 007503   000777 376007                    ANQ     511,DL
         3 007504   200244 756100                    STQ     DATA4,,AUTO

     1597    22726    2         CALL DAF$WRITE (VECTOR (GARBFMT5), VECTOR (DATA1), VECTOR (DATA2),

  22726  3 007505   777640 235007                    LDA     -96,DL
         3 007506   200302 452500                    STP2    @B+1,,AUTO
         3 007507   200302 236100                    LDQ     @B+1,,AUTO
         3 007510   000237 036003                    ADLQ    159,DU
         3 007511   200304 757100                    STAQ    @B+3,,AUTO
         3 007512   777640 235007                    LDA     -96,DL
         3 007513   200306 452500                    STP2    @B+5,,AUTO
         3 007514   200306 236100                    LDQ     @B+5,,AUTO
         3 007515   000240 036003                    ADLQ    160,DU
         3 007516   200310 757100                    STAQ    @B+7,,AUTO
         3 007517   777640 235007                    LDA     -96,DL
         3 007520   200312 452500                    STP2    @B+9,,AUTO
         3 007521   200312 236100                    LDQ     @B+9,,AUTO
         3 007522   000241 036003                    ADLQ    161,DU
         3 007523   200314 757100                    STAQ    @B+11,,AUTO
         3 007524   777640 235007                    LDA     -96,DL
         3 007525   200316 452500                    STP2    @B+13,,AUTO
         3 007526   200316 236100                    LDQ     @B+13,,AUTO
         3 007527   000242 036003                    ADLQ    162,DU
         3 007530   200320 757100                    STAQ    @B+15,,AUTO
         3 007531   777640 235007                    LDA     -96,DL
         3 007532   200322 452500                    STP2    @B+17,,AUTO
         3 007533   200322 236100                    LDQ     @B+17,,AUTO
         3 007534   000243 036003                    ADLQ    163,DU
PL6.E3A0      #001=DAD$CGS File=DAD$CGS.:E05TSI                                  TUE 07/29/97 12:40 Page:269
         3 007535   200324 757100                    STAQ    @B+19,,AUTO
         3 007536   777640 235007                    LDA     -96,DL
         3 007537   200326 452500                    STP2    @B+21,,AUTO
         3 007540   200326 236100                    LDQ     @B+21,,AUTO
         3 007541   000244 036003                    ADLQ    164,DU
         3 007542   200332 757100                    STAQ    @B+25,,AUTO
         3 007543   200304 237100                    LDAQ    @B+3,,AUTO
         3 007544   200330 757100                    STAQ    @B+23,,AUTO
         3 007545   200310 237100                    LDAQ    @B+7,,AUTO
         3 007546   200334 757100                    STAQ    @B+27,,AUTO
         3 007547   200314 237100                    LDAQ    @B+11,,AUTO
         3 007550   200336 757100                    STAQ    @B+29,,AUTO
         3 007551   200320 237100                    LDAQ    @B+15,,AUTO
         3 007552   200340 757100                    STAQ    @B+31,,AUTO
         3 007553   200324 237100                    LDAQ    @B+19,,AUTO
         3 007554   200342 757100                    STAQ    @B+33,,AUTO
         3 007555   200332 237100                    LDAQ    @B+25,,AUTO
         3 007556   200344 757100                    STAQ    @B+35,,AUTO
         3 007557   200344 631500                    EPPR1   @B+35,,AUTO
         3 007560   200354 451500                    STP1    @B+43,,AUTO
         3 007561   200342 633500                    EPPR3   @B+33,,AUTO
         3 007562   200353 453500                    STP3    @B+42,,AUTO
         3 007563   200340 634500                    EPPR4   @B+31,,AUTO
         3 007564   200352 454500                    STP4    @B+41,,AUTO
         3 007565   200336 635500                    EPPR5   @B+29,,AUTO
         3 007566   200351 455500                    STP5    @B+40,,AUTO
         3 007567   200334 636500                    EPPR6   @B+27,,AUTO
         3 007570   200350 456500                    STP6    @B+39,,AUTO
         3 007571   200330 637500                    EPPR7   @B+23,,AUTO
         3 007572   200347 457500                    STP7    @B+38,,AUTO
         3 007573   000264 236000 4                  LDQ     180
         3 007574   200346 756100                    STQ     @B+37,,AUTO
         3 007575   200346 630500                    EPPR0   @B+37,,AUTO
         3 007576   000000 220000 xsym               LDX0    DAF$WRITE
         3 007577   000025 631400 xsym               EPPR1   B_VECTNIL+21
         3 007600   000000 701010                    TSX1    0,X0
         3 007601   000000 011000                    NOP     0
PL6.E3A0      #001=DAD$CGS File=DAD$CGS.:E05TSI                                  TUE 07/29/97 12:40 Page:270

     1598    22727    2         VECTOR (DATA2D), VECTOR (DATA2N), VECTOR (DATA3), VECTOR (DATA4));
     1599    22728    2         IF KQ$CG.GARB.DELJ THEN

  22728  3 007602   200006 470500                    LDP0    M@CG$,,AUTO
         3 007603   000032 236100                    LDQ     26,,PR0
         3 007604   004000 316003                    CANQ    2048,DU
         3 007605   007611 600000 3                  TZE     s:22731

     1600    22729    2           DATA1 = 1;

  22729  3 007606   000001 235007                    LDA     1,DL
         3 007607   200237 755100                    STA     DATA1,,AUTO
         3 007610   007612 710000 3                  TRA     s:22732

     1601    22730    2         ELSE
     1602    22731    2           DATA1 = 0;

  22731  3 007611   200237 450100                    STZ     DATA1,,AUTO

     1603    22732    2         CALL VALPTR (KQ$CG.GARB.JNLD$,AS0$,DATA2D,DATA2,DATA2N);

  22732  3 007612   000001 236000 xsym               LDQ     B_VECTNIL+1
         3 007613   000001 235000 xsym               LDA     B_VECTNIL+1
         3 007614   200300 757100                    STAQ    @N+1,,AUTO
         3 007615   200242 631500                    EPPR1   DATA2N,,AUTO
         3 007616   200277 451500                    STP1    @W+1,,AUTO
         3 007617   200240 633500                    EPPR3   DATA2,,AUTO
         3 007620   200276 453500                    STP3    @D+1,,AUTO
         3 007621   200241 634500                    EPPR4   DATA2D,,AUTO
         3 007622   200275 454500                    STP4    @VPTR$+1,,AUTO
         3 007623   000040 236000 4                  LDQ     32
         3 007624   200274 756100                    STQ     @PTR$+1,,AUTO
         3 007625   200006 236100                    LDQ     M@CG$,,AUTO
         3 007626   000034 036003                    ADLQ    28,DU
         3 007627   200273 756100                    STQ     CFU$+2,,AUTO
         3 007630   011056 701000 3                  TSX1    VALPTR
PL6.E3A0      #001=DAD$CGS File=DAD$CGS.:E05TSI                                  TUE 07/29/97 12:40 Page:271
         3 007631   000000 011000                    NOP     0

     1604    22733    2         DATA3 = KQ$CG.GARB.TCOUNT;

  22733  3 007632   200006 470500                    LDP0    M@CG$,,AUTO
         3 007633   000035 235100                    LDA     29,,PR0
         3 007634   200243 755100                    STA     DATA3,,AUTO

     1605    22734    2         DATA4 = KQ$CG.GARB.TYPE;

  22734  3 007635   000032 236100                    LDQ     26,,PR0
         3 007636   000022 772000                    QRL     18
         3 007637   000777 376007                    ANQ     511,DL
         3 007640   200244 756100                    STQ     DATA4,,AUTO

     1606    22735    2         CALL DAF$WRITE (VECTOR (GARBFMT6), VECTOR (DATA1), VECTOR (DATA2),

  22735  3 007641   777640 235007                    LDA     -96,DL
         3 007642   200302 452500                    STP2    @B+1,,AUTO
         3 007643   200302 236100                    LDQ     @B+1,,AUTO
         3 007644   000237 036003                    ADLQ    159,DU
         3 007645   200304 757100                    STAQ    @B+3,,AUTO
         3 007646   777640 235007                    LDA     -96,DL
         3 007647   200306 452500                    STP2    @B+5,,AUTO
         3 007650   200306 236100                    LDQ     @B+5,,AUTO
         3 007651   000240 036003                    ADLQ    160,DU
         3 007652   200310 757100                    STAQ    @B+7,,AUTO
         3 007653   777640 235007                    LDA     -96,DL
         3 007654   200312 452500                    STP2    @B+9,,AUTO
         3 007655   200312 236100                    LDQ     @B+9,,AUTO
         3 007656   000241 036003                    ADLQ    161,DU
         3 007657   200314 757100                    STAQ    @B+11,,AUTO
         3 007660   777640 235007                    LDA     -96,DL
         3 007661   200316 452500                    STP2    @B+13,,AUTO
         3 007662   200316 236100                    LDQ     @B+13,,AUTO
         3 007663   000242 036003                    ADLQ    162,DU
         3 007664   200320 757100                    STAQ    @B+15,,AUTO
PL6.E3A0      #001=DAD$CGS File=DAD$CGS.:E05TSI                                  TUE 07/29/97 12:40 Page:272
         3 007665   777640 235007                    LDA     -96,DL
         3 007666   200322 452500                    STP2    @B+17,,AUTO
         3 007667   200322 236100                    LDQ     @B+17,,AUTO
         3 007670   000243 036003                    ADLQ    163,DU
         3 007671   200324 757100                    STAQ    @B+19,,AUTO
         3 007672   777640 235007                    LDA     -96,DL
         3 007673   200326 452500                    STP2    @B+21,,AUTO
         3 007674   200326 236100                    LDQ     @B+21,,AUTO
         3 007675   000244 036003                    ADLQ    164,DU
         3 007676   200332 757100                    STAQ    @B+25,,AUTO
         3 007677   200304 237100                    LDAQ    @B+3,,AUTO
         3 007700   200330 757100                    STAQ    @B+23,,AUTO
         3 007701   200310 237100                    LDAQ    @B+7,,AUTO
         3 007702   200334 757100                    STAQ    @B+27,,AUTO
         3 007703   200314 237100                    LDAQ    @B+11,,AUTO
         3 007704   200336 757100                    STAQ    @B+29,,AUTO
         3 007705   200320 237100                    LDAQ    @B+15,,AUTO
         3 007706   200340 757100                    STAQ    @B+31,,AUTO
         3 007707   200324 237100                    LDAQ    @B+19,,AUTO
         3 007710   200342 757100                    STAQ    @B+33,,AUTO
         3 007711   200332 237100                    LDAQ    @B+25,,AUTO
         3 007712   200344 757100                    STAQ    @B+35,,AUTO
         3 007713   200344 631500                    EPPR1   @B+35,,AUTO
         3 007714   200354 451500                    STP1    @B+43,,AUTO
         3 007715   200342 633500                    EPPR3   @B+33,,AUTO
         3 007716   200353 453500                    STP3    @B+42,,AUTO
         3 007717   200340 634500                    EPPR4   @B+31,,AUTO
         3 007720   200352 454500                    STP4    @B+41,,AUTO
         3 007721   200336 635500                    EPPR5   @B+29,,AUTO
         3 007722   200351 455500                    STP5    @B+40,,AUTO
         3 007723   200334 636500                    EPPR6   @B+27,,AUTO
         3 007724   200350 456500                    STP6    @B+39,,AUTO
         3 007725   200330 637500                    EPPR7   @B+23,,AUTO
         3 007726   200347 457500                    STP7    @B+38,,AUTO
         3 007727   000270 236000 4                  LDQ     184
         3 007730   200346 756100                    STQ     @B+37,,AUTO
         3 007731   200346 630500                    EPPR0   @B+37,,AUTO
PL6.E3A0      #001=DAD$CGS File=DAD$CGS.:E05TSI                                  TUE 07/29/97 12:40 Page:273
         3 007732   000000 220000 xsym               LDX0    DAF$WRITE
         3 007733   000025 631400 xsym               EPPR1   B_VECTNIL+21
         3 007734   000000 701010                    TSX1    0,X0
         3 007735   000000 011000                    NOP     0

     1607    22736    2         VECTOR (DATA2D), VECTOR (DATA2N), VECTOR (DATA3), VECTOR (DATA4));
     1608    22737
     1609    22738    2         RETURN;

  22738  3 007736   200236 221300                    LDX1  ! TEXTFIDL+2,,AUTO
         3 007737   000001 702211                    TSX2  ! 1,X1

     1610    22739
     1611    22740    2   END DIGARB;
     1612    22741
     1613    22742        %EJECT;
PL6.E3A0      #001=DAD$CGS File=DAD$CGS.:E05TSI                                  TUE 07/29/97 12:40 Page:274
     1614    22743
     1615    22744        /*I* NAME:        DIQUEUE
     1616    22745             ENTRY:       DIQUEUE
     1617    22746             CALL:        CALL DIQUEUE ALTRET (error);
     1618    22747             INPUT:       M@CG$ - Mapped pointer to current comgroup.
     1619    22748             DESCRIPTION: Displays the QUEUE data information from the current
     1620    22749                          comgroup context block. */
     1621    22750
     1622    22751    1   DIQUEUE: PROC ALTRET;

  22751  3 007740   200236 741300       DIQUEUE      STX1  ! TEXTFIDL+2,,AUTO

     1623    22752
     1624    22753    2   DCL DATA1 UBIN;
     1625    22754    2   DCL DATA1D UBIN;
     1626    22755    2   DCL DATA1N UBIN;
     1627    22756    2   DCL DATA2 UBIN;
     1628    22757    2   DCL DATA2D UBIN;
     1629    22758    2   DCL DATA2N UBIN;
     1630    22759    2   DCL DATA3 UBIN;
     1631    22760    2   DCL DATA3C REDEF DATA3 CHAR(4);
     1632    22761    2   DCL DATA4 UBIN;
     1633    22762    2   DCL DATA5 UBIN;
     1634    22763
     1635    22764    2         CALL VALPTR (KQ$CG.QUEUE.WCRL$,AS0$,DATA1D,DATA1,DATA1N);

  22764  3 007741   000001 236000 xsym               LDQ     B_VECTNIL+1
         3 007742   000001 235000 xsym               LDA     B_VECTNIL+1
         3 007743   200300 757100                    STAQ    @N+1,,AUTO
         3 007744   200241 630500                    EPPR0   DATA1N,,AUTO
         3 007745   200277 450500                    STP0    @W+1,,AUTO
         3 007746   200237 631500                    EPPR1   DATA1,,AUTO
         3 007747   200276 451500                    STP1    @D+1,,AUTO
         3 007750   200240 633500                    EPPR3   DATA1D,,AUTO
         3 007751   200275 453500                    STP3    @VPTR$+1,,AUTO
         3 007752   000040 236000 4                  LDQ     32
         3 007753   200274 756100                    STQ     @PTR$+1,,AUTO
PL6.E3A0      #001=DAD$CGS File=DAD$CGS.:E05TSI                                  TUE 07/29/97 12:40 Page:275
         3 007754   200006 236100                    LDQ     M@CG$,,AUTO
         3 007755   000060 036003                    ADLQ    48,DU
         3 007756   200273 756100                    STQ     CFU$+2,,AUTO
         3 007757   011056 701000 3                  TSX1    VALPTR
         3 007760   000000 011000                    NOP     0

     1636    22765    2         TEMP$ = KQ$CG.QUEUE.DELAY$;

  22765  3 007761   200006 470500                    LDP0    M@CG$,,AUTO
         3 007762   000062 236100                    LDQ     50,,PR0
         3 007763   200024 756100                    STQ     TEMP$,,AUTO

     1637    22766    2         ADDR(TEMP$)->KQ$DPTR.X = '0'B;

  22766  3 007764   000000 236003                    LDQ     0,DU
         3 007765   200024 752104                    STCQ    TEMP$,'04'O,AUTO

     1638    22767    2         CALL VALPTR (TEMP$,AS0$,DATA2D,DATA2,DATA2N);

  22767  3 007766   000001 236000 xsym               LDQ     B_VECTNIL+1
         3 007767   000001 235000 xsym               LDA     B_VECTNIL+1
         3 007770   200300 757100                    STAQ    @N+1,,AUTO
         3 007771   200244 631500                    EPPR1   DATA2N,,AUTO
         3 007772   200277 451500                    STP1    @W+1,,AUTO
         3 007773   200242 633500                    EPPR3   DATA2,,AUTO
         3 007774   200276 453500                    STP3    @D+1,,AUTO
         3 007775   200243 634500                    EPPR4   DATA2D,,AUTO
         3 007776   200275 454500                    STP4    @VPTR$+1,,AUTO
         3 007777   000040 236000 4                  LDQ     32
         3 010000   200274 756100                    STQ     @PTR$+1,,AUTO
         3 010001   200024 635500                    EPPR5   TEMP$,,AUTO
         3 010002   200273 455500                    STP5    CFU$+2,,AUTO
         3 010003   011056 701000 3                  TSX1    VALPTR
         3 010004   000000 011000                    NOP     0

     1639    22768    2         IF KQ$CG.QUEUE.BUSY.RIP

PL6.E3A0      #001=DAD$CGS File=DAD$CGS.:E05TSI                                  TUE 07/29/97 12:40 Page:276
  22768  3 010005   200006 470500                    LDP0    M@CG$,,AUTO
         3 010006   000063 236100                    LDQ     51,,PR0
         3 010007   000400 316003                    CANQ    256,DU
         3 010010   010016 600000 3                  TZE     s:22770

     1640    22769    2         THEN DATA3C = 'RIP';

  22769  3 010011   001477 236000 2                  LDQ     ERRFMT+32
         3 010012   000205 376000 4                  ANQ     133
         3 010013   000040 276007                    ORQ     32,DL
         3 010014   200245 756100                    STQ     DATA3,,AUTO
         3 010015   010027 710000 3                  TRA     s:22773

     1641    22770    2         ELSE IF KQ$CG.QUEUE.BUSY.GIP

  22770  3 010016   000200 316003                    CANQ    128,DU
         3 010017   010025 600000 3                  TZE     s:22772

     1642    22771    2           THEN DATA3C = 'GIP';

  22771  3 010020   001500 236000 2                  LDQ     ERRFMT+33
         3 010021   000205 376000 4                  ANQ     133
         3 010022   000040 276007                    ORQ     32,DL
         3 010023   200245 756100                    STQ     DATA3,,AUTO
         3 010024   010027 710000 3                  TRA     s:22773

     1643    22772    2           ELSE DATA3C = 'none';

  22772  3 010025   001463 236000 2                  LDQ     ERRFMT+20
         3 010026   200245 756100                    STQ     DATA3,,AUTO

     1644    22773    2         IF KQ$CG.QUEUE.GACT THEN

  22773  3 010027   000063 236100                    LDQ     51,,PR0
         3 010030   000040 316003                    CANQ    32,DU
         3 010031   010035 600000 3                  TZE     s:22776

PL6.E3A0      #001=DAD$CGS File=DAD$CGS.:E05TSI                                  TUE 07/29/97 12:40 Page:277
     1645    22774    2           DATA4 = 1;

  22774  3 010032   000001 235007                    LDA     1,DL
         3 010033   200246 755100                    STA     DATA4,,AUTO
         3 010034   010036 710000 3                  TRA     s:22777

     1646    22775    2         ELSE
     1647    22776    2           DATA4 = 0;

  22776  3 010035   200246 450100                    STZ     DATA4,,AUTO

     1648    22777    2         IF KQ$CG.QUEUE.RQGC THEN

  22777  3 010036   000063 236100                    LDQ     51,,PR0
         3 010037   000010 316003                    CANQ    8,DU
         3 010040   010044 600000 3                  TZE     s:22780

     1649    22778    2           DATA5 = 1;

  22778  3 010041   000001 235007                    LDA     1,DL
         3 010042   200247 755100                    STA     DATA5,,AUTO
         3 010043   010045 710000 3                  TRA     s:22783

     1650    22779    2         ELSE
     1651    22780    2           DATA5 = 0;

  22780  3 010044   200247 450100                    STZ     DATA5,,AUTO

     1652    22781    2         CALL DAF$WRITE (VECTOR (QUEUEFMT0), VECTOR (DATA1), VECTOR (DATA1D),
     1653    22782    2         VECTOR (DATA1N), VECTOR (DATA2), VECTOR (DATA2D), VECTOR (DATA2N),
     1654    22783    2         VECTOR (DATA3), VECTOR (DATA4), VECTOR (DATA5));

  22783  3 010045   777640 235007                    LDA     -96,DL
         3 010046   200302 452500                    STP2    @B+1,,AUTO
         3 010047   200302 236100                    LDQ     @B+1,,AUTO
         3 010050   000237 036003                    ADLQ    159,DU
         3 010051   200304 757100                    STAQ    @B+3,,AUTO
PL6.E3A0      #001=DAD$CGS File=DAD$CGS.:E05TSI                                  TUE 07/29/97 12:40 Page:278
         3 010052   777640 235007                    LDA     -96,DL
         3 010053   200306 452500                    STP2    @B+5,,AUTO
         3 010054   200306 236100                    LDQ     @B+5,,AUTO
         3 010055   000240 036003                    ADLQ    160,DU
         3 010056   200310 757100                    STAQ    @B+7,,AUTO
         3 010057   777640 235007                    LDA     -96,DL
         3 010060   200312 452500                    STP2    @B+9,,AUTO
         3 010061   200312 236100                    LDQ     @B+9,,AUTO
         3 010062   000241 036003                    ADLQ    161,DU
         3 010063   200314 757100                    STAQ    @B+11,,AUTO
         3 010064   777640 235007                    LDA     -96,DL
         3 010065   200316 452500                    STP2    @B+13,,AUTO
         3 010066   200316 236100                    LDQ     @B+13,,AUTO
         3 010067   000242 036003                    ADLQ    162,DU
         3 010070   200320 757100                    STAQ    @B+15,,AUTO
         3 010071   777640 235007                    LDA     -96,DL
         3 010072   200322 452500                    STP2    @B+17,,AUTO
         3 010073   200322 236100                    LDQ     @B+17,,AUTO
         3 010074   000243 036003                    ADLQ    163,DU
         3 010075   200324 757100                    STAQ    @B+19,,AUTO
         3 010076   777640 235007                    LDA     -96,DL
         3 010077   200326 452500                    STP2    @B+21,,AUTO
         3 010100   200326 236100                    LDQ     @B+21,,AUTO
         3 010101   000244 036003                    ADLQ    164,DU
         3 010102   200330 757100                    STAQ    @B+23,,AUTO
         3 010103   777640 235007                    LDA     -96,DL
         3 010104   200332 452500                    STP2    @B+25,,AUTO
         3 010105   200332 236100                    LDQ     @B+25,,AUTO
         3 010106   000245 036003                    ADLQ    165,DU
         3 010107   200334 757100                    STAQ    @B+27,,AUTO
         3 010110   777640 235007                    LDA     -96,DL
         3 010111   200336 452500                    STP2    @B+29,,AUTO
         3 010112   200336 236100                    LDQ     @B+29,,AUTO
         3 010113   000246 036003                    ADLQ    166,DU
         3 010114   200340 757100                    STAQ    @B+31,,AUTO
         3 010115   777640 235007                    LDA     -96,DL
         3 010116   200342 452500                    STP2    @B+33,,AUTO
PL6.E3A0      #001=DAD$CGS File=DAD$CGS.:E05TSI                                  TUE 07/29/97 12:40 Page:279
         3 010117   200342 236100                    LDQ     @B+33,,AUTO
         3 010120   000247 036003                    ADLQ    167,DU
         3 010121   200346 757100                    STAQ    @B+37,,AUTO
         3 010122   200304 237100                    LDAQ    @B+3,,AUTO
         3 010123   200344 757100                    STAQ    @B+35,,AUTO
         3 010124   200310 237100                    LDAQ    @B+7,,AUTO
         3 010125   200350 757100                    STAQ    @B+39,,AUTO
         3 010126   200314 237100                    LDAQ    @B+11,,AUTO
         3 010127   200352 757100                    STAQ    @B+41,,AUTO
         3 010130   200320 237100                    LDAQ    @B+15,,AUTO
         3 010131   200354 757100                    STAQ    @B+43,,AUTO
         3 010132   200324 237100                    LDAQ    @B+19,,AUTO
         3 010133   200356 757100                    STAQ    @B+45,,AUTO
         3 010134   200330 237100                    LDAQ    @B+23,,AUTO
         3 010135   200360 757100                    STAQ    @B+47,,AUTO
         3 010136   200334 237100                    LDAQ    @B+27,,AUTO
         3 010137   200362 757100                    STAQ    @B+49,,AUTO
         3 010140   200340 237100                    LDAQ    @B+31,,AUTO
         3 010141   200364 757100                    STAQ    @B+51,,AUTO
         3 010142   200346 237100                    LDAQ    @B+37,,AUTO
         3 010143   200366 757100                    STAQ    @B+53,,AUTO
         3 010144   200366 631500                    EPPR1   @B+53,,AUTO
         3 010145   200401 451500                    STP1    @B+64,,AUTO
         3 010146   200364 633500                    EPPR3   @B+51,,AUTO
         3 010147   200400 453500                    STP3    @B+63,,AUTO
         3 010150   200362 634500                    EPPR4   @B+49,,AUTO
         3 010151   200377 454500                    STP4    @B+62,,AUTO
         3 010152   200360 635500                    EPPR5   @B+47,,AUTO
         3 010153   200376 455500                    STP5    @B+61,,AUTO
         3 010154   200356 636500                    EPPR6   @B+45,,AUTO
         3 010155   200375 456500                    STP6    @B+60,,AUTO
         3 010156   200354 637500                    EPPR7   @B+43,,AUTO
         3 010157   200374 457500                    STP7    @B+59,,AUTO
         3 010160   200352 630500                    EPPR0   @B+41,,AUTO
         3 010161   200373 450500                    STP0    @B+58,,AUTO
         3 010162   200350 630500                    EPPR0   @B+39,,AUTO
         3 010163   200372 450500                    STP0    @B+57,,AUTO
PL6.E3A0      #001=DAD$CGS File=DAD$CGS.:E05TSI                                  TUE 07/29/97 12:40 Page:280
         3 010164   200344 630500                    EPPR0   @B+35,,AUTO
         3 010165   200371 450500                    STP0    @B+56,,AUTO
         3 010166   000274 236000 4                  LDQ     188
         3 010167   200370 756100                    STQ     @B+55,,AUTO
         3 010170   200370 630500                    EPPR0   @B+55,,AUTO
         3 010171   000000 220000 xsym               LDX0    DAF$WRITE
         3 010172   000224 631400 4                  EPPR1   148
         3 010173   000000 701010                    TSX1    0,X0
         3 010174   000000 011000                    NOP     0

     1655    22784    2         CALL VALPTR (KQ$CG.QUEUE.PLHD$,AS0$,DATA1D,DATA1,DATA1N);

  22784  3 010175   000001 236000 xsym               LDQ     B_VECTNIL+1
         3 010176   000001 235000 xsym               LDA     B_VECTNIL+1
         3 010177   200300 757100                    STAQ    @N+1,,AUTO
         3 010200   200241 630500                    EPPR0   DATA1N,,AUTO
         3 010201   200277 450500                    STP0    @W+1,,AUTO
         3 010202   200237 631500                    EPPR1   DATA1,,AUTO
         3 010203   200276 451500                    STP1    @D+1,,AUTO
         3 010204   200240 633500                    EPPR3   DATA1D,,AUTO
         3 010205   200275 453500                    STP3    @VPTR$+1,,AUTO
         3 010206   000040 236000 4                  LDQ     32
         3 010207   200274 756100                    STQ     @PTR$+1,,AUTO
         3 010210   200006 236100                    LDQ     M@CG$,,AUTO
         3 010211   000061 036003                    ADLQ    49,DU
         3 010212   200273 756100                    STQ     CFU$+2,,AUTO
         3 010213   011056 701000 3                  TSX1    VALPTR
         3 010214   000000 011000                    NOP     0

     1656    22785    2         CALL VALPTR (KQ$CG.QUEUE.MLH$,AS0$,DATA2D,DATA2,DATA2N);

  22785  3 010215   000001 236000 xsym               LDQ     B_VECTNIL+1
         3 010216   000001 235000 xsym               LDA     B_VECTNIL+1
         3 010217   200300 757100                    STAQ    @N+1,,AUTO
         3 010220   200244 630500                    EPPR0   DATA2N,,AUTO
         3 010221   200277 450500                    STP0    @W+1,,AUTO
         3 010222   200242 631500                    EPPR1   DATA2,,AUTO
PL6.E3A0      #001=DAD$CGS File=DAD$CGS.:E05TSI                                  TUE 07/29/97 12:40 Page:281
         3 010223   200276 451500                    STP1    @D+1,,AUTO
         3 010224   200243 633500                    EPPR3   DATA2D,,AUTO
         3 010225   200275 453500                    STP3    @VPTR$+1,,AUTO
         3 010226   000040 236000 4                  LDQ     32
         3 010227   200274 756100                    STQ     @PTR$+1,,AUTO
         3 010230   200006 236100                    LDQ     M@CG$,,AUTO
         3 010231   000065 036003                    ADLQ    53,DU
         3 010232   200273 756100                    STQ     CFU$+2,,AUTO
         3 010233   011056 701000 3                  TSX1    VALPTR
         3 010234   000000 011000                    NOP     0

     1657    22786    2         DATA3 = KQ$CG.QUEUE.RUSR#;

  22786  3 010235   200006 470500                    LDP0    M@CG$,,AUTO
         3 010236   000063 236100                    LDQ     51,,PR0
         3 010237   000033 772000                    QRL     27
         3 010240   200245 756100                    STQ     DATA3,,AUTO

     1658    22787    2         IF KQ$CG.QUEUE.RQMEM

  22787  3 010241   000063 236100                    LDQ     51,,PR0
         3 010242   000020 316003                    CANQ    16,DU
         3 010243   010247 600000 3                  TZE     s:22789

     1659    22788    2         THEN DATA4 = 1;

  22788  3 010244   000001 235007                    LDA     1,DL
         3 010245   200246 755100                    STA     DATA4,,AUTO
         3 010246   010250 710000 3                  TRA     s:22790

     1660    22789    2         ELSE DATA4 = 0;

  22789  3 010247   200246 450100                    STZ     DATA4,,AUTO

     1661    22790    2         CALL DAF$WRITE (VECTOR (QUEUEFMT1), VECTOR (DATA1), VECTOR (DATA1D),

  22790  3 010250   777640 235007                    LDA     -96,DL
PL6.E3A0      #001=DAD$CGS File=DAD$CGS.:E05TSI                                  TUE 07/29/97 12:40 Page:282
         3 010251   200302 452500                    STP2    @B+1,,AUTO
         3 010252   200302 236100                    LDQ     @B+1,,AUTO
         3 010253   000237 036003                    ADLQ    159,DU
         3 010254   200304 757100                    STAQ    @B+3,,AUTO
         3 010255   777640 235007                    LDA     -96,DL
         3 010256   200306 452500                    STP2    @B+5,,AUTO
         3 010257   200306 236100                    LDQ     @B+5,,AUTO
         3 010260   000240 036003                    ADLQ    160,DU
         3 010261   200310 757100                    STAQ    @B+7,,AUTO
         3 010262   777640 235007                    LDA     -96,DL
         3 010263   200312 452500                    STP2    @B+9,,AUTO
         3 010264   200312 236100                    LDQ     @B+9,,AUTO
         3 010265   000241 036003                    ADLQ    161,DU
         3 010266   200314 757100                    STAQ    @B+11,,AUTO
         3 010267   777640 235007                    LDA     -96,DL
         3 010270   200316 452500                    STP2    @B+13,,AUTO
         3 010271   200316 236100                    LDQ     @B+13,,AUTO
         3 010272   000242 036003                    ADLQ    162,DU
         3 010273   200320 757100                    STAQ    @B+15,,AUTO
         3 010274   777640 235007                    LDA     -96,DL
         3 010275   200322 452500                    STP2    @B+17,,AUTO
         3 010276   200322 236100                    LDQ     @B+17,,AUTO
         3 010277   000243 036003                    ADLQ    163,DU
         3 010300   200324 757100                    STAQ    @B+19,,AUTO
         3 010301   777640 235007                    LDA     -96,DL
         3 010302   200326 452500                    STP2    @B+21,,AUTO
         3 010303   200326 236100                    LDQ     @B+21,,AUTO
         3 010304   000244 036003                    ADLQ    164,DU
         3 010305   200330 757100                    STAQ    @B+23,,AUTO
         3 010306   777640 235007                    LDA     -96,DL
         3 010307   200332 452500                    STP2    @B+25,,AUTO
         3 010310   200332 236100                    LDQ     @B+25,,AUTO
         3 010311   000245 036003                    ADLQ    165,DU
         3 010312   200334 757100                    STAQ    @B+27,,AUTO
         3 010313   777640 235007                    LDA     -96,DL
         3 010314   200336 452500                    STP2    @B+29,,AUTO
         3 010315   200336 236100                    LDQ     @B+29,,AUTO
PL6.E3A0      #001=DAD$CGS File=DAD$CGS.:E05TSI                                  TUE 07/29/97 12:40 Page:283
         3 010316   000246 036003                    ADLQ    166,DU
         3 010317   200342 757100                    STAQ    @B+33,,AUTO
         3 010320   200304 237100                    LDAQ    @B+3,,AUTO
         3 010321   200340 757100                    STAQ    @B+31,,AUTO
         3 010322   200310 237100                    LDAQ    @B+7,,AUTO
         3 010323   200344 757100                    STAQ    @B+35,,AUTO
         3 010324   200314 237100                    LDAQ    @B+11,,AUTO
         3 010325   200346 757100                    STAQ    @B+37,,AUTO
         3 010326   200320 237100                    LDAQ    @B+15,,AUTO
         3 010327   200350 757100                    STAQ    @B+39,,AUTO
         3 010330   200324 237100                    LDAQ    @B+19,,AUTO
         3 010331   200352 757100                    STAQ    @B+41,,AUTO
         3 010332   200330 237100                    LDAQ    @B+23,,AUTO
         3 010333   200354 757100                    STAQ    @B+43,,AUTO
         3 010334   200334 237100                    LDAQ    @B+27,,AUTO
         3 010335   200356 757100                    STAQ    @B+45,,AUTO
         3 010336   200342 237100                    LDAQ    @B+33,,AUTO
         3 010337   200360 757100                    STAQ    @B+47,,AUTO
         3 010340   200360 631500                    EPPR1   @B+47,,AUTO
         3 010341   200372 451500                    STP1    @B+57,,AUTO
         3 010342   200356 633500                    EPPR3   @B+45,,AUTO
         3 010343   200371 453500                    STP3    @B+56,,AUTO
         3 010344   200354 634500                    EPPR4   @B+43,,AUTO
         3 010345   200370 454500                    STP4    @B+55,,AUTO
         3 010346   200352 635500                    EPPR5   @B+41,,AUTO
         3 010347   200367 455500                    STP5    @B+54,,AUTO
         3 010350   200350 636500                    EPPR6   @B+39,,AUTO
         3 010351   200366 456500                    STP6    @B+53,,AUTO
         3 010352   200346 637500                    EPPR7   @B+37,,AUTO
         3 010353   200365 457500                    STP7    @B+52,,AUTO
         3 010354   200344 630500                    EPPR0   @B+35,,AUTO
         3 010355   200364 450500                    STP0    @B+51,,AUTO
         3 010356   200340 630500                    EPPR0   @B+31,,AUTO
         3 010357   200363 450500                    STP0    @B+50,,AUTO
         3 010360   000300 236000 4                  LDQ     192
         3 010361   200362 756100                    STQ     @B+49,,AUTO
         3 010362   200362 630500                    EPPR0   @B+49,,AUTO
PL6.E3A0      #001=DAD$CGS File=DAD$CGS.:E05TSI                                  TUE 07/29/97 12:40 Page:284
         3 010363   000000 220000 xsym               LDX0    DAF$WRITE
         3 010364   000230 631400 4                  EPPR1   152
         3 010365   000000 701010                    TSX1    0,X0
         3 010366   000000 011000                    NOP     0

     1662    22791    2         VECTOR (DATA1N), VECTOR (DATA2), VECTOR (DATA2D), VECTOR (DATA2N),
     1663    22792    2         VECTOR (DATA3), VECTOR (DATA4));
     1664    22793
     1665    22794    2         RETURN;

  22794  3 010367   200236 221300                    LDX1  ! TEXTFIDL+2,,AUTO
         3 010370   000001 702211                    TSX2  ! 1,X1

     1666    22795
     1667    22796    2   END DIQUEUE;
     1668    22797
     1669    22798        %EJECT;
PL6.E3A0      #001=DAD$CGS File=DAD$CGS.:E05TSI                                  TUE 07/29/97 12:40 Page:285
     1670    22799        /*I* NAME:        SETUP
     1671    22800             ENTRY:       SETUP
     1672    22801             CALL:        CALL SETUP ALTRET (error);
     1673    22802             INPUT:       TOP - Top parse output block.
     1674    22803                          DA_CURRCG.CG$ - Pointer to current comgroup.
     1675    22804                          DA_ASR - ASR of current comgroup.
     1676    22805             OUTPUT:      CG$ - Pointer to current comgroup.
     1677    22806                          M@CG$ - Mapped pointer to current comgroup.
     1678    22807                          F$CFU$ - Pointer to CFU segment.
     1679    22808                          DA_CURRCG.CG$ - Pointer to current comgroup.
     1680    22809                          DA_ASR - ASR of current comgroup.
     1681    22810             DESCRIPTION: The pointers CG$ and F$CFU$ are setup. If TOP has
     1682    22811                          any sub-blocks then the new comgroup context address
     1683    22812                          is obtained, and the ASR is set with the ASR used to
     1684    22813                          address the new current comgroup. ALTRETurns if the
     1685    22814                          specified new comgroup context block and/or ASR could
     1686    22815                          not be setup, else RETURNs. */
     1687    22816
     1688    22817    1   SETUP: PROC ALTRET;

  22817  3 010371   200236 741300       SETUP        STX1  ! TEXTFIDL+2,,AUTO

     1689    22818
     1690    22819    2   DCL CGID UBIN;
     1691    22820    2   DCL CCG$ PTR;
     1692    22821
     1693    22822    3         IF TOP.NSUBLKS ~= 0 THEN DO;

  22822  3 010372   200003 470500                    LDP0    @TOP,,AUTO
         3 010373   000001 220100                    LDX0    1,,PR0
         3 010374   010471 600000 3                  TZE     s:22839+1

     1694    22823    4           IF TOP.SUBLK$(0)->OUT$BLK.NDTYPE = %FID# THEN DO;

  22823  3 010375   000003 471500                    LDP1    3,,PR0
         3 010376   100000 236100                    LDQ     0,,PR1
         3 010377   000077 376003                    ANQ     63,DU
PL6.E3A0      #001=DAD$CGS File=DAD$CGS.:E05TSI                                  TUE 07/29/97 12:40 Page:286
         3 010400   000026 116003                    CMPQ    22,DU
         3 010401   010455 601000 3                  TNZ     s:22836

     1695    22824    4             TEXTFID = TOP.SUBLK$(0)->OUT$SYM.TEXT;

  22824  3 010402   100004 236100                    LDQ     4,,PR1
         3 010403   000033 772000                    QRL     27
         3 010404   000000 622006                    EAX2    0,QL
         3 010405   040100 100540                    MLR     fill='040'O
         3 010406   100004 200012                    ADSC9   4,,PR1                   cn=1,n=*X2
         3 010407   200217 000062                    ADSC9   TEXTFID,,AUTO            cn=0,n=50

     1696    22825    4             TEXTFIDL = TOP.SUBLK$(0)->OUT$SYM.COUNT;

  22825  3 010410   000003 471500                    LDP1    3,,PR0
         3 010411   100004 236100                    LDQ     4,,PR1
         3 010412   000033 772000                    QRL     27
         3 010413   200234 756100                    STQ     TEXTFIDL,,AUTO

     1697    22826    4             FPT_FID.TEXTFID_ = VECTOR(SUBSTR(TEXTFID,0,TEXTFIDL));

  22826  3 010414   200234 235100                    LDA     TEXTFIDL,,AUTO
         3 010415   000020 735000                    ALS     16
         3 010416   000140 135007                    SBLA    96,DL
         3 010417   200302 452500                    STP2    @B+1,,AUTO
         3 010420   200302 236100                    LDQ     @B+1,,AUTO
         3 010421   000217 036003                    ADLQ    143,DU
         3 010422   000016 757000 1                  STAQ    FPT_FID+2

     1698    22827    5             CALL M$FID (FPT_FID) WHENALTRETURN DO;

  22827  3 010423   000014 630400 1                  EPPR0   FPT_FID
         3 010424   420001 713400                    CLIMB   alt,+8193
         3 010425   404400 401760                    pmme    nvectors=10
         3 010426   010430 702000 3                  TSX2    s:22828
         3 010427   010442 710000 3                  TRA     s:22831

PL6.E3A0      #001=DAD$CGS File=DAD$CGS.:E05TSI                                  TUE 07/29/97 12:40 Page:287
     1699    22828    5               CALL DAA$ERRMSG (B$TCB$->B$TCB.ALT$->B$ALT.ERR);

  22828  3 010430   000000 470400 xsym               LDP0    B$TCB$
         3 010431   000000 471500                    LDP1    0,,PR0
         3 010432   100102 633500                    EPPR3   66,,PR1
         3 010433   200302 453500                    STP3    @B+1,,AUTO
         3 010434   200302 630500                    EPPR0   @B+1,,AUTO
         3 010435   000017 631400 xsym               EPPR1   B_VECTNIL+15
         3 010436   000000 701000 xent               TSX1    DAA$ERRMSG
         3 010437   000000 011000                    NOP     0

     1700    22829    5               ALTRETURN;

  22829  3 010440   200236 221300                    LDX1  ! TEXTFIDL+2,,AUTO
         3 010441   000000 702211                    TSX2  ! 0,X1

     1701    22830    5               END;
     1702    22831    4             IF TFID_ACCT.ACCT# = ' ' THEN TFID_ACCT.ACCT# = ':SYS';

  22831  3 010442   000010 237000 1                  LDAQ    TFID_ACCT
         3 010443   000302 117000 4                  CMPAQ   194
         3 010444   010450 601000 3                  TNZ     s:22832

  22831  3 010445   001501 235000 2                  LDA     ERRFMT+34
         3 010446   000035 236000 xsym               LDQ     B_VECTNIL+29
         3 010447   000010 757000 1                  STAQ    TFID_ACCT

     1703    22832    4             CALL FINDCG ALTRET (NOCG);

  22832  3 010450   010641 701000 3                  TSX1    FINDCG
         3 010451   010571 702000 3                  TSX2    NOCG

     1704    22833    4             CCG$ = CG$;

  22833  3 010452   200005 236100                    LDQ     CG$,,AUTO
         3 010453   200240 756100                    STQ     CCG$,,AUTO

PL6.E3A0      #001=DAD$CGS File=DAD$CGS.:E05TSI                                  TUE 07/29/97 12:40 Page:288
     1705    22834    4             END;

  22834  3 010454   010470 710000 3                  TRA     s:22839

     1706    22835    4           ELSE DO;

     1707    22836    4             CALL DAA$VALUE (TOP.SUBLK$ (0)->OUT$BLK,CGID) ALTRET (AERR);

  22836  3 010455   200237 633500                    EPPR3   CGID,,AUTO
         3 010456   200303 453500                    STP3    @B+2,,AUTO
         3 010457   200302 451500                    STP1    @B+1,,AUTO
         3 010460   200302 630500                    EPPR0   @B+1,,AUTO
         3 010461   000020 631400 xsym               EPPR1   B_VECTNIL+16
         3 010462   000000 701000 xent               TSX1    DAA$VALUE
         3 010463   010634 702000 3                  TSX2    AERR

     1708    22837    4             CCG$ = PINCRW (B$CGCTXT$,CGID);

  22837  3 010464   200237 236100                    LDQ     CGID,,AUTO
         3 010465   000022 736000                    QLS     18
         3 010466   000000 036000 xsym               ADLQ    B$CGCTXT$
         3 010467   200240 756100                    STQ     CCG$,,AUTO

     1709    22838    4             END;

     1710    22839    3           GOTO CMN;

  22839  3 010470   010475 710000 3                  TRA     CMN
         3 010471   010473 710000 3                  TRA     s:22850

     1711    22840    3           END;
     1712    22841    2   SETUPCUR: ENTRY ALTRET;

  22841  3 010472   200236 741300       SETUPCUR     STX1  ! TEXTFIDL+2,,AUTO

     1713    22842
     1714    22843        /*I* NAME:        SETUPCUR
PL6.E3A0      #001=DAD$CGS File=DAD$CGS.:E05TSI                                  TUE 07/29/97 12:40 Page:289
     1715    22844             ENTRY:       SETUPCUR
     1716    22845             DESCRIPTION: Same as SETUP except that TOP is not used as a
     1717    22846                          possible new CG context address. The old context
     1718    22847                          is re-established if an old context exists, ALTRET
     1719    22848                          otherwise. */
     1720    22849
     1721    22850    2         CCG$ = DA_CURCG.CG$;

  22850  3 010473   000000 236000 xsym               LDQ     DA_CURCG
         3 010474   200240 756100                    STQ     CCG$,,AUTO

     1722    22851    2   CMN:  IF CCG$ = ADDR (NIL) THEN

  22851  3 010475   000001 116000 xsym  CMN          CMPQ    B_VECTNIL+1
         3 010476   010505 601000 3                  TNZ     s:22859

     1723    22852    3           DO;

     1724    22853    3           CALL DAA$ERRMSG (E_DA_NO_CURCG);

  22853  3 010477   000304 630400 4                  EPPR0   196
         3 010500   000017 631400 xsym               EPPR1   B_VECTNIL+15
         3 010501   000000 701000 xent               TSX1    DAA$ERRMSG
         3 010502   000000 011000                    NOP     0

     1725    22854        /*E* ERROR:    DAD-E$DA_NO_CURCG
     1726    22855             MESSAGE0: There is no currently selected comgroup to display. */
     1727    22856    3           ALTRETURN;

  22856  3 010503   200236 221300                    LDX1  ! TEXTFIDL+2,,AUTO
         3 010504   000000 702211                    TSX2  ! 0,X1

     1728    22857    3           END;
     1729    22858
     1730    22859    2         CALL DAS$SDMONPTR (%M#KQ_MMSD,CG$) ALTRET (AERR);

  22859  3 010505   200005 630500                    EPPR0   CG$,,AUTO
PL6.E3A0      #001=DAD$CGS File=DAD$CGS.:E05TSI                                  TUE 07/29/97 12:40 Page:290
         3 010506   200303 450500                    STP0    @B+2,,AUTO
         3 010507   000001 236000 4                  LDQ     1
         3 010510   200302 756100                    STQ     @B+1,,AUTO
         3 010511   200302 630500                    EPPR0   @B+1,,AUTO
         3 010512   000020 631400 xsym               EPPR1   B_VECTNIL+16
         3 010513   000000 701000 xent               TSX1    DAS$SDMONPTR
         3 010514   010634 702000 3                  TSX2    AERR

     1731    22860    2         CALL DAM$MAP (CG$,M@CG$,,,DA_MONISDATA) ALTRET (AERR);

  22860  3 010515   000002 236000 4                  LDQ     2
         3 010516   200306 756100                    STQ     @B+5,,AUTO
         3 010517   000001 236000 xsym               LDQ     B_VECTNIL+1
         3 010520   000001 235000 xsym               LDA     B_VECTNIL+1
         3 010521   200304 757100                    STAQ    @B+3,,AUTO
         3 010522   200006 630500                    EPPR0   M@CG$,,AUTO
         3 010523   200303 450500                    STP0    @B+2,,AUTO
         3 010524   200005 631500                    EPPR1   CG$,,AUTO
         3 010525   200302 451500                    STP1    @B+1,,AUTO
         3 010526   200302 630500                    EPPR0   @B+1,,AUTO
         3 010527   000023 631400 xsym               EPPR1   B_VECTNIL+19
         3 010530   000000 701000 xent               TSX1    DAM$MAP
         3 010531   010634 702000 3                  TSX2    AERR

     1732    22861    2         CG$ = M@CG$->KQ$MMSD.CGHEAD$; /* Pick up CGHEAD$ */

  22861  3 010532   200006 470500                    LDP0    M@CG$,,AUTO
         3 010533   000001 236100                    LDQ     1,,PR0
         3 010534   200005 756100                    STQ     CG$,,AUTO

     1733    22862    2         CALL DAM$MAP (B$DS1$,M@F$CFU$) ALTRET (AERR);

  22862  3 010535   200013 631500                    EPPR1   M@F$CFU$,,AUTO
         3 010536   200303 451500                    STP1    @B+2,,AUTO
         3 010537   000003 236000 4                  LDQ     3
         3 010540   200302 756100                    STQ     @B+1,,AUTO
         3 010541   200302 630500                    EPPR0   @B+1,,AUTO
PL6.E3A0      #001=DAD$CGS File=DAD$CGS.:E05TSI                                  TUE 07/29/97 12:40 Page:291
         3 010542   000020 631400 xsym               EPPR1   B_VECTNIL+16
         3 010543   000000 701000 xent               TSX1    DAM$MAP
         3 010544   010634 702000 3                  TSX2    AERR

     1734    22863    2         F$CFU$ = B$DS1$ ;

  22863  3 010545   000000 236000 xsym               LDQ     B$DS1$
         3 010546   200012 756100                    STQ     F$CFU$,,AUTO

     1735    22864    3           DO WHILE (CG$ ~= ADDR (NIL));

  22864  3 010547   010566 710000 3                  TRA     s:22869

     1736    22865    3           CALL DAM$MAP (CG$,M@CG$) ALTRET (AERR);

  22865  3 010550   200006 630500                    EPPR0   M@CG$,,AUTO
         3 010551   200303 450500                    STP0    @B+2,,AUTO
         3 010552   200005 631500                    EPPR1   CG$,,AUTO
         3 010553   200302 451500                    STP1    @B+1,,AUTO
         3 010554   200302 630500                    EPPR0   @B+1,,AUTO
         3 010555   000020 631400 xsym               EPPR1   B_VECTNIL+16
         3 010556   000000 701000 xent               TSX1    DAM$MAP
         3 010557   010634 702000 3                  TSX2    AERR

     1737    22866    3           IF CG$ = CCG$ THEN

  22866  3 010560   200005 236100                    LDQ     CG$,,AUTO
         3 010561   200240 116100                    CMPQ    CCG$,,AUTO
         3 010562   010577 600000 3                  TZE     GOTCG

     1738    22867    3             GOTO GOTCG;
     1739    22868    3           CG$ = KQ$CG.LNK$;

  22868  3 010563   200006 470500                    LDP0    M@CG$,,AUTO
         3 010564   000104 236100                    LDQ     68,,PR0
         3 010565   200005 756100                    STQ     CG$,,AUTO

PL6.E3A0      #001=DAD$CGS File=DAD$CGS.:E05TSI                                  TUE 07/29/97 12:40 Page:292
     1740    22869    3           END;

  22869  3 010566   200005 236100                    LDQ     CG$,,AUTO
         3 010567   000001 116000 xsym               CMPQ    B_VECTNIL+1
         3 010570   010550 601000 3                  TNZ     s:22865

     1741    22870    2   NOCG:
     1742    22871    2         CALL DAA$ERRMSG (E_DA_NO_SETCG);

  22871  3 010571   000305 630400 4     NOCG         EPPR0   197
         3 010572   000017 631400 xsym               EPPR1   B_VECTNIL+15
         3 010573   000000 701000 xent               TSX1    DAA$ERRMSG
         3 010574   000000 011000                    NOP     0

     1743    22872    2         ALTRETURN;

  22872  3 010575   200236 221300                    LDX1  ! TEXTFIDL+2,,AUTO
         3 010576   000000 702211                    TSX2  ! 0,X1

     1744    22873        /*E* ERROR:    DAD-E$DA_NO_SETCG
     1745    22874             MESSAGE0: Unable to access the currently selected comgroup. */
     1746    22875
     1747    22876    2   GOTCG:
     1748    22877    2         CALL VALPTR (KQ$CG.MMD.DSB$,B$CGCTXT$) ALTRET (NOCG);

  22877  3 010577   000001 236000 xsym  GOTCG        LDQ     B_VECTNIL+1
         3 010600   000001 235000 xsym               LDA     B_VECTNIL+1
         3 010601   200300 757100                    STAQ    @N+1,,AUTO
         3 010602   000001 236000 xsym               LDQ     B_VECTNIL+1
         3 010603   000001 235000 xsym               LDA     B_VECTNIL+1
         3 010604   200276 757100                    STAQ    @D+1,,AUTO
         3 010605   000001 236000 xsym               LDQ     B_VECTNIL+1
         3 010606   000142 235000 4                  LDA     98
         3 010607   200274 757100                    STAQ    @PTR$+1,,AUTO
         3 010610   200006 236100                    LDQ     M@CG$,,AUTO
         3 010611   200273 756100                    STQ     CFU$+2,,AUTO
         3 010612   011056 701000 3                  TSX1    VALPTR
PL6.E3A0      #001=DAD$CGS File=DAD$CGS.:E05TSI                                  TUE 07/29/97 12:40 Page:293
         3 010613   010571 702000 3                  TSX2    NOCG

     1749    22878    2         CALL DAM$MAP (KQ$CG.MMD.DSB$,M@DSB$) ALTRET (AERR);

  22878  3 010614   200011 630500                    EPPR0   M@DSB$,,AUTO
         3 010615   200303 450500                    STP0    @B+2,,AUTO
         3 010616   200006 236100                    LDQ     M@CG$,,AUTO
         3 010617   200302 756100                    STQ     @B+1,,AUTO
         3 010620   200302 630500                    EPPR0   @B+1,,AUTO
         3 010621   000020 631400 xsym               EPPR1   B_VECTNIL+16
         3 010622   000000 701000 xent               TSX1    DAM$MAP
         3 010623   010634 702000 3                  TSX2    AERR

     1750    22879    2         DA_ASR = M@DSB$->BIT$72DA;

  22879  3 010624   200011 470500                    LDP0    M@DSB$,,AUTO
         3 010625   000000 237100                    LDAQ    0,,PR0
         3 010626   000000 755000 xsym               STA     DA_ASR
         3 010627   000001 756000 xsym               STQ     DA_ASR+1

     1751    22880    2         DA_CURCG.CG$ = CG$;

  22880  3 010630   200005 236100                    LDQ     CG$,,AUTO
         3 010631   000000 756000 xsym               STQ     DA_CURCG

     1752    22881
     1753    22882    2         RETURN;

  22882  3 010632   200236 221300                    LDX1  ! TEXTFIDL+2,,AUTO
         3 010633   000001 702211                    TSX2  ! 1,X1

     1754    22883
     1755    22884    2   AERR:
     1756    22885    2         CALL DAA$ERRMSG;

  22885  3 010634   000002 631400 xsym  AERR         EPPR1   B_VECTNIL+2
         3 010635   000000 701000 xent               TSX1    DAA$ERRMSG
PL6.E3A0      #001=DAD$CGS File=DAD$CGS.:E05TSI                                  TUE 07/29/97 12:40 Page:294
         3 010636   000000 011000                    NOP     0

     1757    22886
     1758    22887    2         ALTRETURN;

  22887  3 010637   200236 221300                    LDX1  ! TEXTFIDL+2,,AUTO
         3 010640   000000 702211                    TSX2  ! 0,X1

     1759    22888
     1760    22889    2   END SETUP;
     1761    22890
     1762    22891        %EJECT;
PL6.E3A0      #001=DAD$CGS File=DAD$CGS.:E05TSI                                  TUE 07/29/97 12:40 Page:295
     1763    22892        /*I*  NAME:    FINDCG
     1764    22893              ENTRY:   FINDCG
     1765    22894              CALL:    CALL FINDCG ALTRET (not_found_or_not_valid_fid);
     1766    22895              INPUT:   TFID_NAME - name of CG to look for
     1767    22896                       TFID_ACCT - acct of CG to look for (default :SYS)
     1768    22897              OUTPUT:  CG$ - Pointer to selected comgroup
     1769    22898              DESCRIPTION: Search for a comgroup by name
     1770    22899        */
     1771    22900    1   FINDCG: PROC ALTRET;

  22900  3 010641   200242 741300       FINDCG       STX1  ! DATA2,,AUTO

     1772    22901
     1773    22902    2   DCL C$ PTR;
     1774    22903    2   DCL A$ PTR;
     1775    22904    2   DCL CTXT UBIN;
     1776    22905    2   DCL CFU UBIN;
     1777    22906    2   DCL CFU$ PTR;
     1778    22907
     1779    22908    2         CALL DAS$SDMONPTR (%M#KQ_MMSD,CG$) ALTRET (ARET);

  22908  3 010642   200005 630500                    EPPR0   CG$,,AUTO
         3 010643   200303 450500                    STP0    @B+2,,AUTO
         3 010644   000001 236000 4                  LDQ     1
         3 010645   200302 756100                    STQ     @B+1,,AUTO
         3 010646   200302 630500                    EPPR0   @B+1,,AUTO
         3 010647   000020 631400 xsym               EPPR1   B_VECTNIL+16
         3 010650   000000 701000 xent               TSX1    DAS$SDMONPTR
         3 010651   011054 702000 3                  TSX2    ARET

     1780    22909    2         CALL DAM$MAP (CG$, M@CG$,,,DA_MONISDATA) ALTRET (ARET);

  22909  3 010652   000002 236000 4                  LDQ     2
         3 010653   200306 756100                    STQ     @B+5,,AUTO
         3 010654   000001 236000 xsym               LDQ     B_VECTNIL+1
         3 010655   000001 235000 xsym               LDA     B_VECTNIL+1
         3 010656   200304 757100                    STAQ    @B+3,,AUTO
PL6.E3A0      #001=DAD$CGS File=DAD$CGS.:E05TSI                                  TUE 07/29/97 12:40 Page:296
         3 010657   200006 630500                    EPPR0   M@CG$,,AUTO
         3 010660   200303 450500                    STP0    @B+2,,AUTO
         3 010661   200005 631500                    EPPR1   CG$,,AUTO
         3 010662   200302 451500                    STP1    @B+1,,AUTO
         3 010663   200302 630500                    EPPR0   @B+1,,AUTO
         3 010664   000023 631400 xsym               EPPR1   B_VECTNIL+19
         3 010665   000000 701000 xent               TSX1    DAM$MAP
         3 010666   011054 702000 3                  TSX2    ARET

     1781    22910    2         CG$ = M@CG$->KQ$MMSD.CGHEAD$;

  22910  3 010667   200006 470500                    LDP0    M@CG$,,AUTO
         3 010670   000001 236100                    LDQ     1,,PR0
         3 010671   200005 756100                    STQ     CG$,,AUTO

     1782    22911    2         CALL DAM$MAP (B$DS1$,M@F$CFU$) ALTRET (ARET);

  22911  3 010672   200013 631500                    EPPR1   M@F$CFU$,,AUTO
         3 010673   200303 451500                    STP1    @B+2,,AUTO
         3 010674   000003 236000 4                  LDQ     3
         3 010675   200302 756100                    STQ     @B+1,,AUTO
         3 010676   200302 630500                    EPPR0   @B+1,,AUTO
         3 010677   000020 631400 xsym               EPPR1   B_VECTNIL+16
         3 010700   000000 701000 xent               TSX1    DAM$MAP
         3 010701   011054 702000 3                  TSX2    ARET

     1783    22912    2         F$CFU$ = B$DS1$ ;

  22912  3 010702   000000 236000 xsym               LDQ     B$DS1$
         3 010703   200012 756100                    STQ     F$CFU$,,AUTO

     1784    22913    3           DO WHILE (CG$~=ADDR(NIL));

  22913  3 010704   011051 710000 3                  TRA     s:22929

     1785    22914    3           CALL VALPTR (CG$,B$CGCTXT$,,CTXT) ALTRET (NEXT);

PL6.E3A0      #001=DAD$CGS File=DAD$CGS.:E05TSI                                  TUE 07/29/97 12:40 Page:297
  22914  3 010705   000001 236000 xsym               LDQ     B_VECTNIL+1
         3 010706   000001 235000 xsym               LDA     B_VECTNIL+1
         3 010707   200300 757100                    STAQ    @N+1,,AUTO
         3 010710   000001 236000 xsym               LDQ     B_VECTNIL+1
         3 010711   200277 756100                    STQ     @W+1,,AUTO
         3 010712   200245 630500                    EPPR0   CTXT,,AUTO
         3 010713   200276 450500                    STP0    @D+1,,AUTO
         3 010714   000142 235000 4                  LDA     98
         3 010715   200274 757100                    STAQ    @PTR$+1,,AUTO
         3 010716   200005 631500                    EPPR1   CG$,,AUTO
         3 010717   200273 451500                    STP1    CFU$+2,,AUTO
         3 010720   011056 701000 3                  TSX1    VALPTR
         3 010721   011046 702000 3                  TSX2    NEXT

     1786    22915    3           CALL DAM$MAP (CG$,M@CG$) ALTRET (NEXT);

  22915  3 010722   200006 630500                    EPPR0   M@CG$,,AUTO
         3 010723   200303 450500                    STP0    @B+2,,AUTO
         3 010724   200005 631500                    EPPR1   CG$,,AUTO
         3 010725   200302 451500                    STP1    @B+1,,AUTO
         3 010726   200302 630500                    EPPR0   @B+1,,AUTO
         3 010727   000020 631400 xsym               EPPR1   B_VECTNIL+16
         3 010730   000000 701000 xent               TSX1    DAM$MAP
         3 010731   011046 702000 3                  TSX2    NEXT

     1787    22916    3           CFU$ = KQ$CG.CFU$;

  22916  3 010732   200006 470500                    LDP0    M@CG$,,AUTO
         3 010733   000214 236100                    LDQ     140,,PR0
         3 010734   200247 756100                    STQ     CFU$,,AUTO

     1788    22917    3           CALL VALPTR (CFU$,F$CFU$,,CFU) ALTRET (NEXT);

  22917  3 010735   000001 236000 xsym               LDQ     B_VECTNIL+1
         3 010736   000001 235000 xsym               LDA     B_VECTNIL+1
         3 010737   200300 757100                    STAQ    @N+1,,AUTO
         3 010740   000001 236000 xsym               LDQ     B_VECTNIL+1
PL6.E3A0      #001=DAD$CGS File=DAD$CGS.:E05TSI                                  TUE 07/29/97 12:40 Page:298
         3 010741   200277 756100                    STQ     @W+1,,AUTO
         3 010742   200246 631500                    EPPR1   CFU,,AUTO
         3 010743   200276 451500                    STP1    @D+1,,AUTO
         3 010744   200275 756100                    STQ     @VPTR$+1,,AUTO
         3 010745   200012 633500                    EPPR3   F$CFU$,,AUTO
         3 010746   200274 453500                    STP3    @PTR$+1,,AUTO
         3 010747   200247 634500                    EPPR4   CFU$,,AUTO
         3 010750   200273 454500                    STP4    CFU$+2,,AUTO
         3 010751   011056 701000 3                  TSX1    VALPTR
         3 010752   011046 702000 3                  TSX2    NEXT

     1789    22918    3           CALL DAM$MAP (F$CFU$,M@F$CFU$) ALTRET (NEXT);

  22918  3 010753   200013 630500                    EPPR0   M@F$CFU$,,AUTO
         3 010754   200303 450500                    STP0    @B+2,,AUTO
         3 010755   200012 631500                    EPPR1   F$CFU$,,AUTO
         3 010756   200302 451500                    STP1    @B+1,,AUTO
         3 010757   200302 630500                    EPPR0   @B+1,,AUTO
         3 010760   000020 631400 xsym               EPPR1   B_VECTNIL+16
         3 010761   000000 701000 xent               TSX1    DAM$MAP
         3 010762   011046 702000 3                  TSX2    NEXT

     1790    22919    3           C$ = PINCRW (M@F$CFU$,CFU);

  22919  3 010763   200246 236100                    LDQ     CFU,,AUTO
         3 010764   000022 736000                    QLS     18
         3 010765   200013 036100                    ADLQ    M@F$CFU$,,AUTO
         3 010766   200243 756100                    STQ     C$,,AUTO

     1791    22920    3           A$ = PINCRW (M@F$CFU$,C$->FM$CFU.ACCTX);

  22920  3 010767   200243 470500                    LDP0    C$,,AUTO
         3 010770   000002 220100                    LDX0    2,,PR0
         3 010771   000000 636010                    EAQ     0,X0
         3 010772   200013 036100                    ADLQ    M@F$CFU$,,AUTO
         3 010773   200244 756100                    STQ     A$,,AUTO

PL6.E3A0      #001=DAD$CGS File=DAD$CGS.:E05TSI                                  TUE 07/29/97 12:40 Page:299
     1792    22921    4             DO WHILE (C$->FM$CFU.NAMEX < M@F$CFU$->FM$CFUX.CFUT);

  22921  3 010774   000002 721100                    LXL1    2,,PR0
         3 010775   200013 471500                    LDP1    M@F$CFU$,,AUTO
         3 010776   100002 101100                    CMPX1   2,,PR1
         3 010777   011012 603000 3                  TRC     s:22924

     1793    22922    4             C$ = PINCRW (M@F$CFU$,C$->FM$CFU.NAMEX);

  22922  3 011000   200243 470500                    LDP0    C$,,AUTO
         3 011001   000002 720100                    LXL0    2,,PR0
         3 011002   000000 636010                    EAQ     0,X0
         3 011003   200013 036100                    ADLQ    M@F$CFU$,,AUTO
         3 011004   200243 756100                    STQ     C$,,AUTO

     1794    22923    4             END;

  22923  3 011005   200243 470500                    LDP0    C$,,AUTO
         3 011006   000002 720100                    LXL0    2,,PR0
         3 011007   200013 471500                    LDP1    M@F$CFU$,,AUTO
         3 011010   100002 100100                    CMPX0   2,,PR1
         3 011011   011000 602000 3                  TNC     s:22922

     1795    22924    3           C$ = PINCRC (M@F$CFU$,C$->FM$CFU.NAMEX);

  22924  3 011012   000002 236100                    LDQ     2,,PR0
         3 011013   777777 376007                    ANQ     -1,DL
         3 011014   000020 736000                    QLS     16
         3 011015   200013 036100                    ADLQ    M@F$CFU$,,AUTO
         3 011016   200243 756100                    STQ     C$,,AUTO

     1796    22925    3           IF ( SUBSTR(TFID_NAME.NAME#,0,TFID_NAME.L#) =

  22925  3 011017   000000 236000 1                  LDQ     TFID_NAME
         3 011020   000033 772000                    QRL     27
         3 011021   200243 470500                    LDP0    C$,,AUTO
         3 011022   000100 101500                    MRL     fill='000'O
PL6.E3A0      #001=DAD$CGS File=DAD$CGS.:E05TSI                                  TUE 07/29/97 12:40 Page:300
         3 011023   000000 400001                    ADSC9   0,,PR0                   cn=2,n=1
         3 011024   200302 000002                    ADSC9   @B+1,,AUTO               cn=0,n=2
         3 011025   200302 220100                    LDX0    @B+1,,AUTO
         3 011026   000100 101500                    MRL     fill='000'O
         3 011027   000000 400001                    ADSC9   0,,PR0                   cn=2,n=1
         3 011030   200303 000002                    ADSC9   @B+2,,AUTO               cn=0,n=2
         3 011031   200303 221100                    LDX1    @B+2,,AUTO
         3 011032   000000 622006                    EAX2    0,QL
         3 011033   040140 106440                    CMPC    fill='040'O
         3 011034   000000 200012 1                  ADSC9   TFID_NAME                cn=1,n=*X2
         3 011035   000000 600011                    ADSC9   0,,PR0                   cn=3,n=*X1
         3 011036   011046 601000 3                  TNZ     NEXT
         3 011037   200244 473500                    LDP3    A$,,AUTO
         3 011040   040000 106500                    CMPC    fill='040'O
         3 011041   300001 000010                    ADSC9   1,,PR3                   cn=0,n=8
         3 011042   000010 000010 1                  ADSC9   TFID_ACCT                cn=0,n=8
         3 011043   011046 601000 3                  TNZ     NEXT

     1797    22926    3           SUBSTR(C$->FM$CFUN.C,0,C$->FM$CFUN.L) ) AND
     1798    22927    3           ( A$->FM$CFUA.ACCT = TFID_ACCT.ACCT# ) THEN RETURN;

  22927  3 011044   200242 221300                    LDX1  ! DATA2,,AUTO
         3 011045   000001 702211                    TSX2  ! 1,X1

     1799    22928    3   NEXT:   CG$ = KQ$CG.LNK$;

  22928  3 011046   200006 470500       NEXT         LDP0    M@CG$,,AUTO
         3 011047   000104 236100                    LDQ     68,,PR0
         3 011050   200005 756100                    STQ     CG$,,AUTO

     1800    22929    3           END;

  22929  3 011051   200005 236100                    LDQ     CG$,,AUTO
         3 011052   000001 116000 xsym               CMPQ    B_VECTNIL+1
         3 011053   010705 601000 3                  TNZ     s:22914

     1801    22930
PL6.E3A0      #001=DAD$CGS File=DAD$CGS.:E05TSI                                  TUE 07/29/97 12:40 Page:301
     1802    22931    2   ARET: ALTRETURN;

  22931  3 011054   200242 221300       ARET         LDX1  ! DATA2,,AUTO
         3 011055   000000 702211                    TSX2  ! 0,X1

     1803    22932
     1804    22933    2   END;
     1805    22934        %EJECT;
PL6.E3A0      #001=DAD$CGS File=DAD$CGS.:E05TSI                                  TUE 07/29/97 12:40 Page:302
     1806    22935        /*I* NAME:        VALPTR
     1807    22936             ENTRY:       VALPTR
     1808    22937             CALL:        CALL VALPTR (PTR$,VPTR$,D,W,N,C,B) ALTRET (invalid);
     1809    22938             INPUT:       PTR$ - Pointer to be validated.
     1810    22939                          VPTR$ - Prototype pointer for segid.
     1811    22940                          C - If addr (c) ~= addr (nil) then PTR$ may point to
     1812    22941                              an arbitrary character boundary.
     1813    22942                          B - If addr (c) ~= addr (nil) then PTR$ may point to
     1814    22943                              an arbitrary bit boundary.
     1815    22944             OUTPUT:      D - Segid D field of PTR$. (optional)
     1816    22945                          W - Word address field of PTR$. (optional)
     1817    22946                          N - Set to 1 if PTR$ = addr (nil), else 0. (optional)
     1818    22947                          C - Char address field of PTR$. (optional)
     1819    22948                          B - Bit address field of PTR$. (optional)
     1820    22949             DESCRIPTION: PTR$ must contain a pointer with the same S segid
     1821    22950                          field as VPTR$. In addition, it may be located on a
     1822    22951                          non word boundary only if C and/or B fields are
     1823    22952                          specified as input, i.e. not addr (nil). If VPTR$ has
     1824    22953                          an ASR segid then the D fields need not match. If PTR$
     1825    22954                          is found to be invalid then an on the fly error will
     1826    22955                          be produced, and the ALTRETurn will be taken, else if
     1827    22956                          valid then the normal RETURN will be taken with N set to 0.
     1828    22957                          Note that if PTR$ is addr (nil) then no error message
     1829    22958                          will be printed, D will be set to 88, W will be set
     1830    22959                          to .0000, N will be set to 1, and the ALTRETurn will
     1831    22960                          be taken. */
     1832    22961
     1833    22962    1   VALPTR: PROC (PTR$,VPTR$,D,W,N,C,B) ALTRET;

  22962  3 011056   200272 741300       VALPTR       STX1  ! CFU$+1,,AUTO

     1834    22963
     1835    22964    2   DCL PTR$ PTR;
     1836    22965    2   DCL 1 P REDEF PTR$,
     1837    22966    2         2 W UBIN(18) UNAL,
     1838    22967    2         2 C UBIN(2) UNAL,
     1839    22968    2         2 B UBIN(4) UNAL,
PL6.E3A0      #001=DAD$CGS File=DAD$CGS.:E05TSI                                  TUE 07/29/97 12:40 Page:303
     1840    22969    2         2 S UBIN(2) UNAL,
     1841    22970    2         2 D UBIN(10) UNAL;
     1842    22971    2   DCL VPTR$ PTR;
     1843    22972    2   DCL 1 V REDEF VPTR$,
     1844    22973    2         2 W UBIN(18) UNAL,
     1845    22974    2         2 C UBIN(2) UNAL,
     1846    22975    2         2 B UBIN(4) UNAL,
     1847    22976    2         2 S UBIN(2) UNAL,
     1848    22977    2         2 D UBIN(10) UNAL;
     1849    22978    2   DCL D UBIN;
     1850    22979    2   DCL W UBIN;
     1851    22980    2   DCL N UBIN;
     1852    22981    2   DCL C UBIN;
     1853    22982    2   DCL B UBIN;
     1854    22983    2   DCL 1 E STATIC,
     1855    22984    2         2 W UBIN(18) UNAL INIT(1),
     1856    22985    2         2 C UBIN(2) UNAL INIT(3),
     1857    22986    2         2 B UBIN(4) UNAL INIT(8),
     1858    22987    2         2 S UBIN(2) UNAL INIT(2),
     1859    22988    2         2 D UBIN(10) UNAL INIT(99);
     1860    22989    2   DCL ERRFMT CHAR(0) CONSTANT INIT(
     1861    22990    2   '*** Invalid pointer %.2F will be displayed as %.2F');
     1862    22991
     1863    22992    2         IF PTR$ = ADDR (NIL) THEN

  22992  3 011057   200273 470500                    LDP0    @PTR$,,AUTO
         3 011060   000000 236100                    LDQ     0,,PR0
         3 011061   000001 116000 xsym               CMPQ    B_VECTNIL+1
         3 011062   011120 601000 3                  TNZ     s:23007

     1864    22993    3           DO;

     1865    22994    3           IF ADDR (N) ~= ADDR (NIL) THEN

  22994  3 011063   200277 236100                    LDQ     @N,,AUTO
         3 011064   000001 116000 xsym               CMPQ    B_VECTNIL+1
         3 011065   011071 600000 3                  TZE     s:22996
PL6.E3A0      #001=DAD$CGS File=DAD$CGS.:E05TSI                                  TUE 07/29/97 12:40 Page:304

     1866    22995    3             N = 1;

  22995  3 011066   000001 235007                    LDA     1,DL
         3 011067   200277 471500                    LDP1    @N,,AUTO
         3 011070   100000 755100                    STA     0,,PR1

     1867    22996    3           IF ADDR (W) ~= ADDR (NIL) THEN

  22996  3 011071   200276 236100                    LDQ     @W,,AUTO
         3 011072   000001 116000 xsym               CMPQ    B_VECTNIL+1
         3 011073   011076 600000 3                  TZE     s:22998

     1868    22997    3             W = BITBIN ('0000'O);

  22997  3 011074   200276 471500                    LDP1    @W,,AUTO
         3 011075   100000 450100                    STZ     0,,PR1

     1869    22998    3           IF ADDR (D) ~= ADDR (NIL) THEN

  22998  3 011076   200275 236100                    LDQ     @D,,AUTO
         3 011077   000001 116000 xsym               CMPQ    B_VECTNIL+1
         3 011100   011104 600000 3                  TZE     s:23000

     1870    22999    3             D = 88;

  22999  3 011101   000130 235007                    LDA     88,DL
         3 011102   200275 471500                    LDP1    @D,,AUTO
         3 011103   100000 755100                    STA     0,,PR1

     1871    23000    3           IF ADDR (C) ~= ADDR (NIL) THEN

  23000  3 011104   200300 236100                    LDQ     @C,,AUTO
         3 011105   000001 116000 xsym               CMPQ    B_VECTNIL+1
         3 011106   011111 600000 3                  TZE     s:23002

     1872    23001    3             C = 0;
PL6.E3A0      #001=DAD$CGS File=DAD$CGS.:E05TSI                                  TUE 07/29/97 12:40 Page:305

  23001  3 011107   200300 471500                    LDP1    @C,,AUTO
         3 011110   100000 450100                    STZ     0,,PR1

     1873    23002    3           IF ADDR (B) ~= ADDR (NIL) THEN

  23002  3 011111   200301 236100                    LDQ     @B,,AUTO
         3 011112   000001 116000 xsym               CMPQ    B_VECTNIL+1
         3 011113   011116 600000 3                  TZE     s:23004

     1874    23003    3             B = 0;

  23003  3 011114   200301 471500                    LDP1    @B,,AUTO
         3 011115   100000 450100                    STZ     0,,PR1

     1875    23004    3           ALTRETURN;

  23004  3 011116   200272 221300                    LDX1  ! CFU$+1,,AUTO
         3 011117   000000 702211                    TSX2  ! 0,X1

     1876    23005    3           END;
     1877    23006
     1878    23007    2         IF ADDR (N) ~= ADDR (NIL) THEN

  23007  3 011120   200277 236100                    LDQ     @N,,AUTO
         3 011121   000001 116000 xsym               CMPQ    B_VECTNIL+1
         3 011122   011125 600000 3                  TZE     s:23009

     1879    23008    2           N = 0;

  23008  3 011123   200277 471500                    LDP1    @N,,AUTO
         3 011124   100000 450100                    STZ     0,,PR1

     1880    23009    2         IF (P.S ~= V.S) OR

  23009  3 011125   200274 471500                    LDP1    @VPTR$,,AUTO
         3 011126   000000 236100                    LDQ     0,,PR0
PL6.E3A0      #001=DAD$CGS File=DAD$CGS.:E05TSI                                  TUE 07/29/97 12:40 Page:306
         3 011127   100000 676100                    ERQ     0,,PR1
         3 011130   006000 376007                    ANQ     3072,DL
         3 011131   011156 601000 3                  TNZ     s:23014
         3 011132   000000 236100                    LDQ     0,,PR0
         3 011133   006000 376007                    ANQ     3072,DL
         3 011134   004000 116007                    CMPQ    2048,DL
         3 011135   011142 600000 3                  TZE     s:23009+13
         3 011136   000000 236100                    LDQ     0,,PR0
         3 011137   100000 676100                    ERQ     0,,PR1
         3 011140   001777 376007                    ANQ     1023,DL
         3 011141   011156 601000 3                  TNZ     s:23014
         3 011142   200300 236100                    LDQ     @C,,AUTO
         3 011143   000001 116000 xsym               CMPQ    B_VECTNIL+1
         3 011144   011150 601000 3                  TNZ     s:23009+19
         3 011145   000000 236100                    LDQ     0,,PR0
         3 011146   600000 316007                    CANQ    -65536,DL
         3 011147   011156 601000 3                  TNZ     s:23014
         3 011150   200301 236100                    LDQ     @B,,AUTO
         3 011151   000001 116000 xsym               CMPQ    B_VECTNIL+1
         3 011152   011237 601000 3                  TNZ     s:23027
         3 011153   000000 236100                    LDQ     0,,PR0
         3 011154   170000 316007                    CANQ    61440,DL
         3 011155   011237 600000 3                  TZE     s:23027

     1881    23010    2         (P.S ~= 2 AND P.D ~= V.D) OR
     1882    23011    2         (ADDR (C) = ADDR (NIL) AND P.C ~= 0) OR
     1883    23012    2         (ADDR (B) = ADDR (NIL) AND P.B ~= 0) THEN
     1884    23013    3           DO;

     1885    23014    3           CALL DAF$WRITE (VECTOR (ERRFMT),VECTOR (PTR$),VECTOR (E));

  23014  3 011156   777640 235007                    LDA     -96,DL
         3 011157   200273 236100                    LDQ     @PTR$,,AUTO
         3 011160   200302 757100                    STAQ    @B+1,,AUTO
         3 011161   000312 236000 4                  LDQ     202
         3 011162   200306 756100                    STQ     @B+5,,AUTO
         3 011163   200302 633500                    EPPR3   @B+1,,AUTO
PL6.E3A0      #001=DAD$CGS File=DAD$CGS.:E05TSI                                  TUE 07/29/97 12:40 Page:307
         3 011164   200305 453500                    STP3    @B+4,,AUTO
         3 011165   000313 236000 4                  LDQ     203
         3 011166   200304 756100                    STQ     @B+3,,AUTO
         3 011167   200304 630500                    EPPR0   @B+3,,AUTO
         3 011170   000000 220000 xsym               LDX0    DAF$WRITE
         3 011171   000021 631400 xsym               EPPR1   B_VECTNIL+17
         3 011172   000000 701010                    TSX1    0,X0
         3 011173   000000 011000                    NOP     0

     1886    23015    3           IF ADDR (W) ~= ADDR (NIL) THEN

  23015  3 011174   200276 236100                    LDQ     @W,,AUTO
         3 011175   000001 116000 xsym               CMPQ    B_VECTNIL+1
         3 011176   011203 600000 3                  TZE     s:23017

     1887    23016    3             W = E.W;

  23016  3 011177   001460 235000 1                  LDA     E
         3 011200   000022 771000                    ARL     18
         3 011201   200276 470500                    LDP0    @W,,AUTO
         3 011202   000000 755100                    STA     0,,PR0

     1888    23017    3           E.W = E.W + 1;

  23017  3 011203   001460 220000 1                  LDX0    E
         3 011204   000001 621010                    EAX1    1,X0
         3 011205   001460 741000 1                  STX1    E

     1889    23018    3           IF ADDR (D) ~= ADDR (NIL) THEN

  23018  3 011206   200275 236100                    LDQ     @D,,AUTO
         3 011207   000001 116000 xsym               CMPQ    B_VECTNIL+1
         3 011210   011215 600000 3                  TZE     s:23020

     1890    23019    3             D = E.D;

  23019  3 011211   200275 470500                    LDP0    @D,,AUTO
PL6.E3A0      #001=DAD$CGS File=DAD$CGS.:E05TSI                                  TUE 07/29/97 12:40 Page:308
         3 011212   001460 236000 1                  LDQ     E
         3 011213   001777 376007                    ANQ     1023,DL
         3 011214   000000 756100                    STQ     0,,PR0

     1891    23020    3           IF ADDR (C) ~= ADDR (NIL) THEN

  23020  3 011215   200300 236100                    LDQ     @C,,AUTO
         3 011216   000001 116000 xsym               CMPQ    B_VECTNIL+1
         3 011217   011225 600000 3                  TZE     s:23022

     1892    23021    3             C = E.C;

  23021  3 011220   200300 470500                    LDP0    @C,,AUTO
         3 011221   001460 236000 1                  LDQ     E
         3 011222   000020 772000                    QRL     16
         3 011223   000003 376007                    ANQ     3,DL
         3 011224   000000 756100                    STQ     0,,PR0

     1893    23022    3           IF ADDR (B) ~= ADDR (NIL) THEN

  23022  3 011225   200301 236100                    LDQ     @B,,AUTO
         3 011226   000001 116000 xsym               CMPQ    B_VECTNIL+1
         3 011227   011235 600000 3                  TZE     s:23024

     1894    23023    3             B = E.B;

  23023  3 011230   200301 470500                    LDP0    @B,,AUTO
         3 011231   001460 236000 1                  LDQ     E
         3 011232   000014 772000                    QRL     12
         3 011233   000017 376007                    ANQ     15,DL
         3 011234   000000 756100                    STQ     0,,PR0

     1895    23024    3           ALTRETURN;

  23024  3 011235   200272 221300                    LDX1  ! CFU$+1,,AUTO
         3 011236   000000 702211                    TSX2  ! 0,X1

PL6.E3A0      #001=DAD$CGS File=DAD$CGS.:E05TSI                                  TUE 07/29/97 12:40 Page:309
     1896    23025    3           END;
     1897    23026
     1898    23027    2         IF ADDR (W) ~= ADDR (NIL) THEN

  23027  3 011237   200276 236100                    LDQ     @W,,AUTO
         3 011240   000001 116000 xsym               CMPQ    B_VECTNIL+1
         3 011241   011246 600000 3                  TZE     s:23029

     1899    23028    2           W = P.W;

  23028  3 011242   000000 236100                    LDQ     0,,PR0
         3 011243   000022 772000                    QRL     18
         3 011244   200276 473500                    LDP3    @W,,AUTO
         3 011245   300000 756100                    STQ     0,,PR3

     1900    23029    2         IF ADDR (D) ~= ADDR (NIL) THEN

  23029  3 011246   200275 236100                    LDQ     @D,,AUTO
         3 011247   000001 116000 xsym               CMPQ    B_VECTNIL+1
         3 011250   011255 600000 3                  TZE     s:23031

     1901    23030    2           D = P.D;

  23030  3 011251   200275 473500                    LDP3    @D,,AUTO
         3 011252   000000 236100                    LDQ     0,,PR0
         3 011253   001777 376007                    ANQ     1023,DL
         3 011254   300000 756100                    STQ     0,,PR3

     1902    23031    2         IF ADDR (C) ~= ADDR (NIL) THEN

  23031  3 011255   200300 236100                    LDQ     @C,,AUTO
         3 011256   000001 116000 xsym               CMPQ    B_VECTNIL+1
         3 011257   011265 600000 3                  TZE     s:23033

     1903    23032    2           C = P.C;

  23032  3 011260   200300 473500                    LDP3    @C,,AUTO
PL6.E3A0      #001=DAD$CGS File=DAD$CGS.:E05TSI                                  TUE 07/29/97 12:40 Page:310
         3 011261   000000 236100                    LDQ     0,,PR0
         3 011262   000020 772000                    QRL     16
         3 011263   000003 376007                    ANQ     3,DL
         3 011264   300000 756100                    STQ     0,,PR3

     1904    23033    2         IF ADDR (B) ~= ADDR (NIL) THEN

  23033  3 011265   200301 236100                    LDQ     @B,,AUTO
         3 011266   000001 116000 xsym               CMPQ    B_VECTNIL+1
         3 011267   011275 600000 3                  TZE     s:23036

     1905    23034    2           B = P.B;

  23034  3 011270   200301 473500                    LDP3    @B,,AUTO
         3 011271   000000 236100                    LDQ     0,,PR0
         3 011272   000014 772000                    QRL     12
         3 011273   000017 376007                    ANQ     15,DL
         3 011274   300000 756100                    STQ     0,,PR3

     1906    23035
     1907    23036    2         RETURN;

  23036  3 011275   200272 221300                    LDX1  ! CFU$+1,,AUTO
         3 011276   000001 702211                    TSX2  ! 1,X1
     1908    23037
     1909    23038    2   END VALPTR;
     1910    23039
     1911    23040    1   END DAD$CGS;

PL6.E3A0      #001=DAD$CGS File=DAD$CGS.:E05TSI                                  TUE 07/29/97 12:40 Page:311
--  Include file information  --

   XU_SUBS_C.:E05TOU  is referenced.
   XU_MACRO_C.:E05TOU  is referenced.
   KQ_SUBS_C.:E05TOU  is referenced.
   KQ_MAC_C.:E05TOU  is referenced.
   HF_DATA_R.:E05TOU  is referenced.
   KQM_MAC_C.:E05TOU  is referenced.
   CP_6_C.:E05TOU  is referenced.
   CP_6.:E05TOU  cannot be made into a system file and is referenced.
   KC$CP6V_C.:E05TOU  is referenced.
   FM$SET.:E05TOU  is referenced.
   FM$CFU.:E05TOU  is referenced.
   DA_CMD_C.:E05TOU  is referenced.
   DA_FORMAT_C.:E05TOU  is referenced.
   DA_PERR_C.:E05TOU  is referenced.
   DA_SYMBOLS_R.:E05TOU  cannot be made into a system file and is referenced.
   DA_MONSYM_C.:E05TOU  is referenced.
   DA_TEXTC_C.:E05TOU  is referenced.
   DA_MAP_R.:E05TOU  cannot be made into a system file and is referenced.
   DA_ANLZ_R.:E05TOU  cannot be made into a system file and is referenced.
   B$TABLES_C.:E05TOU  cannot be made into a system file and is referenced.
   B$OBJECT_C.:E05TOU  is referenced.
      No diagnostics issued in procedure DAD$CGS.
PL6.E3A0      #001=DAD$CGS File=DAD$CGS.:E05TSI                                  TUE 07/29/97 12:40 Page:312

 **** Variables and constants ****

  ****  Section 001  Data  DAD$CGS

  ****  Scalars and arrays  ****
OctLoc.c.b A Datatyp(siz) R M Lvl/name                 OctLoc.c.b A Datatyp(siz) R M Lvl/name

   237-0-0/w STRC(288)   r     1 CCGRPT                   247-0-0/c STRC(261)   r     1 CCGRPTTX00
   141-0-0/w STRC(288)   r     1 CGMSRPT                  157-0-0/w STRC(144)   r     1 CGMSRPTHD00
   207-0-0/w STRC(144)   r     1 CGMSRPTHD01              151-0-0/c STRC(216)   r     1 CGMSRPTTX00
   163-0-0/c STRC(702)   r     1 CGMSRPTTX01              213-0-0/c STRC(720)   r     1 CGMSRPTTX02
    44-0-0/w STRC(288)   r     1 CGSRPT                    61-0-0/w STRC(144)   r     1 CGSRPTHD00
   111-0-0/w STRC(144)   r     1 CGSRPTHD01                54-0-0/c STRC(153)   r     1 CGSRPTTX00
    65-0-0/c STRC(702)   r     1 CGSRPTTX01               115-0-0/c STRC(720)   r     1 CGSRPTTX02
  1130-0-0/w STRC(288)   r     1 CGSTATSRPT              1151-0-0/w STRC(144)   r     1 CGSTATSRPTHD00
  1161-0-0/w STRC(144)   r     1 CGSTATSRPTHD01          1211-0-0/w STRC(144)   r     1 CGSTATSRPTHD02
  1241-0-0/w STRC(144)   r     1 CGSTATSRPTHD03          1140-0-0/c STRC(297)   r     1 CGSTATSRPTTX00
  1155-0-0/c STRC(126)   r     1 CGSTATSRPTTX01          1165-0-0/c STRC(711)   r     1 CGSTATSRPTTX02
  1215-0-0/c STRC(711)   r     1 CGSTATSRPTTX03          1245-0-0/c STRC(711)   r     1 CGSTATSRPTTX04
   672-0-0/w STRC(288)   r     1 DFRBLKRPT                715-0-0/w STRC(144)   r     1 DFRBLKRPTHD00
   730-0-0/w STRC(144)   r     1 DFRBLKRPTHD01            770-0-0/w STRC(144)   r     1 DFRBLKRPTHD02
   702-0-0/c STRC(378)   r     1 DFRBLKRPTTX00            721-0-0/c STRC(243)   r     1 DFRBLKRPTTX01
   734-0-0/c STRC(981)   r     1 DFRBLKRPTTX02            774-0-0/c STRC(981)   r     1 DFRBLKRPTTX03
   572-0-0/w STRC(288)   r     1 DTREERPT                 614-0-0/w STRC(144)   r     1 DTREERPTHD00
   644-0-0/w STRC(144)   r     1 DTREERPTHD01             602-0-0/c STRC(333)   r     1 DTREERPTTX00
   620-0-0/c STRC(711)   r     1 DTREERPTTX01             650-0-0/c STRC(630)   r     1 DTREERPTTX02
  1460-0-0/b STRC        r     1 E                         14-0-0/d STRC(864)   r     1 FPT_FID
   257-0-0/w STRC(288)   r     1 MLHRPT                   300-0-0/w STRC(144)   r     1 MLHRPTHD00
   337-0-0/w STRC(144)   r     1 MLHRPTHD01               267-0-0/c STRC(297)   r     1 MLHRPTTX00
   304-0-0/c STRC(945)   r     1 MLHRPTTX01               343-0-0/c STRC(945)   r     1 MLHRPTTX02
   376-0-0/w STRC(288)   r     1 MSGLISTRPT               414-0-0/w STRC(144)   r     1 MSGLISTRPTHD00
   460-0-0/w STRC(144)   r     1 MSGLISTRPTHD01           524-0-0/w STRC(144)   r     1 MSGLISTRPTHD02
   406-0-0/c STRC(189)   r     1 MSGLISTRPTTX00           420-0-0/c STRC(1134)  r     1 MSGLISTRPTTX01
   464-0-0/c STRC(1134)  r     1 MSGLISTRPTTX02           530-0-0/c STRC(1197)  r     1 MSGLISTRPTTX03
  1370-0-0/w STRC(288)   r     1 QTREERPT                1410-0-0/w STRC(144)   r     1 QTREERPTHD00
  1435-0-0/w STRC(144)   r     1 QTREERPTHD01            1400-0-0/c STRC(288)   r     1 QTREERPTTX00
  1414-0-0/c STRC(603)   r     1 QTREERPTTX01            1441-0-0/c STRC(522)   r     1 QTREERPTTX02
PL6.E3A0      #001=DAD$CGS File=DAD$CGS.:E05TSI                                  TUE 07/29/97 12:40 Page:313
  1030-0-0/w STRC(288)   r     1 STREERPT                1051-0-0/w STRC(144)   r     1 STREERPTHD00
  1101-0-0/w STRC(144)   r     1 STREERPTHD01            1040-0-0/c STRC(306)   r     1 STREERPTTX00
  1055-0-0/c STRC(720)   r     1 STREERPTTX01            1105-0-0/c STRC(657)   r     1 STREERPTTX02
    10-0-0/c STRC(72)    r     1 TFID_ACCT                 12-0-0/w UBIN        r     1 TFID_ASN
     0-0-0/c STRC(288)   r     1 TFID_NAME               1271-0-0/w STRC(288)   r     1 TTREERPT
  1312-0-0/w STRC(144)   r     1 TTREERPTHD00            1342-0-0/w STRC(144)   r     1 TTREERPTHD01
  1301-0-0/c STRC(297)   r     1 TTREERPTTX00            1316-0-0/c STRC(720)   r     1 TTREERPTTX01
  1346-0-0/c STRC(648)   r     1 TTREERPTTX02

  ****  Section 002 RoData DAD$CGS

  ****  Scalars and arrays  ****
OctLoc.c.b A Datatyp(siz) R M Lvl/name                 OctLoc.c.b A Datatyp(siz) R M Lvl/name

  1406-0-0/w UBIN        r     1 AS0                     1406-0-0/w PTR         r     1 AS0$
  1345-0-0/c CHAR(4)     r     1 BLANKFMT                  25-0-0/c CHAR(60)    r     1 CGMSFMT
    44-0-0/c CHAR(60)    r     1 CGMTFMT                    2-0-0/c CHAR(76)    r     1 CGSFMT
  1273-0-0/c CHAR(58)    r     1 CGSTATSFMT              1411-0-0/c CHAR(8)     r     1 CODETBL(0:10)
    63-0-0/c STRC(1512)  r     1 DATFMT0                  135-0-0/c STRC(1404)  r     1 DATFMT1
   204-0-0/c STRC(387)   r     1 DATFMT2                  217-0-0/c STRC(1170)  r     1 DATFMT3
   260-0-0/c STRC(756)   r     1 DATFMT4                  305-0-0/c STRC(531)   r     1 DATFMT5
  1133-0-0/c STRC(2007)  r     1 DFRBLKFMT               1234-0-0/c CHAR(12)    r     1 DFRFREEFMT
  1354-0-0/c CHAR(17)    r     1 DTGFMT                  1124-0-0/c CHAR(26)    r     1 DTREEFMT
  1437-0-0/c CHAR(50)    r     1 ERRFMT                  1407-0-0/w STRC        r     1 E_DA_NO_CURCG
  1410-0-0/w STRC        r     1 E_DA_NO_SETCG            456-0-0/c CHAR(83)    r     1 GARBFMT0
   503-0-0/c CHAR(75)    r     1 GARBFMT1                 526-0-0/c CHAR(77)    r     1 GARBFMT2
   552-0-0/c CHAR(75)    r     1 GARBFMT3                 575-0-0/c CHAR(77)    r     1 GARBFMT4
   621-0-0/c CHAR(77)    r     1 GARBFMT5                 645-0-0/c CHAR(74)    r     1 GARBFMT6
  1232-0-0/c CHAR(8)     r     1 GETHDFMT                1230-0-0/c CHAR(7)     r     1 IOHDFMT
  1226-0-0/c CHAR(8)     r     1 IOQHDFMT
  1373-0-0/c CHAR(4)     r     1 KQRS_XXXX(0:10)
  1026-0-0/c STRC(1044)  r     1 MBLKFMT                  755-0-0/c STRC(1458)  r     1 MLHFMT0
   324-0-0/c CHAR(18)    r     1 MMDFMT0                  331-0-0/c CHAR(113)   r     1 MMDFMT1
   366-0-0/c CHAR(112)   r     1 MMDFMT2                  422-0-0/c CHAR(111)   r     1 MMDFMT3
  1223-0-0/c CHAR(11)    r     1 NEEDPGHDFMT             1346-0-0/c CHAR(22)    r     1 NOTHINGFMT
     1-0-0/w UBIN        r     1 PS0                        1-0-0/w PTR         r     1 PS0$
  1324-0-0/c CHAR(61)    r     1 QTREEFMT                 670-0-0/c CHAR(109)   r     1 QUEUEFMT0
PL6.E3A0      #001=DAD$CGS File=DAD$CGS.:E05TSI                                  TUE 07/29/97 12:40 Page:314
   724-0-0/c CHAR(97)    r     1 QUEUEFMT1               1063-0-0/c STRC(1170)  r     1 SMBLKFMT
     0-0-0/c CHAR        r     1 STARTBL(0:1)
  1361-0-0/c CHAR(17)    r     1 STGFMT                  1237-0-0/c CHAR(56)    r     1 STREEFMT0
  1255-0-0/c CHAR(55)    r     1 STREEFMT1               1344-0-0/c CHAR(4)     r     1 TEXTCFMT
  1366-0-0/c CHAR(17)    r     1 TTGFMT                  1312-0-0/c CHAR(37)    r     1 TTREEFMT

  ****  Auto variables  ****

  ****  Scalars and arrays  ****
OctLoc.c.b A Datatyp(siz) R M Lvl/name                 OctLoc.c.b A Datatyp(siz) R M Lvl/name

   301-0-0/w PTR         r     1 @B                       300-0-0/w PTR         r     1 @C
   275-0-0/w PTR         r     1 @D                       277-0-0/w PTR         r     1 @N
   273-0-0/w PTR         r     1 @PTR$                      3-0-0/w PTR         r     1 @TOP
   274-0-0/w PTR         r     1 @VPTR$                   276-0-0/w PTR         r     1 @W
   254-0-0/w PTR         r     1 A$                       251-0-0/w PTR         r     1 A$
   244-0-0/w PTR         r     1 A$                       255-0-0/c CHAR(8)     r     1 ACCT
   252-0-0/c CHAR(8)     r     1 ACCT                     237-0-0/w UBIN        r     1 ADR
   243-0-0/w UBIN        r     1 AUSTA                    245-0-0/w PTR         r     1 AUSTA$
   242-0-0/w UBIN        r     1 AUSTAD                   244-0-0/w UBIN        r     1 AUSTAN
    *0-0-0/w UBIN        r     1 B                         *0-0-0/w UBIN        r     1 C
   253-0-0/w PTR         r     1 C$                       250-0-0/w PTR         r     1 C$
   243-0-0/w PTR         r     1 C$                       240-0-0/w PTR         r     1 CCG$
   241-0-0/w UBIN        r     1 CFU                      240-0-0/w UBIN        r     1 CFU
   246-0-0/w UBIN        r     1 CFU                      271-0-0/w PTR         r     1 CFU$
   266-0-0/w PTR         r     1 CFU$                     247-0-0/w PTR         r     1 CFU$
     5-0-0/w PTR         r     1 CG$                      237-0-0/w UBIN        r     1 CGID
     4-0-0/w UBIN        r     1 COUNT                    237-0-0/w UBIN        r     1 CTXT
   237-0-0/w UBIN        r     1 CTXT                     245-0-0/w UBIN        r     1 CTXT
    31-0-0/w PTR         r     1 CUR$                     243-0-0/w UBIN        r     1 CURBP
   246-0-0/w UBIN        r     1 CURDP                    247-0-0/w UBIN        r     1 CURPG
    *0-0-0/w UBIN        r     1 D                        237-0-0/w UBIN        r     1 DATA1
   237-0-0/w UBIN        r     1 DATA1                    237-0-0/w UBIN        r     1 DATA1
   237-0-0/w UBIN        r     1 DATA1                    240-0-0/w UBIN        r     1 DATA1D
   240-0-0/w UBIN        r     1 DATA1D                   240-0-0/w UBIN        r     1 DATA1D
   241-0-0/w UBIN        r     1 DATA1N                   241-0-0/w UBIN        r     1 DATA1N
   241-0-0/w UBIN        r     1 DATA1N                   242-0-0/w UBIN        r     1 DATA2
PL6.E3A0      #001=DAD$CGS File=DAD$CGS.:E05TSI                                  TUE 07/29/97 12:40 Page:315
   242-0-0/w UBIN        r     1 DATA2                    240-0-0/w UBIN        r     1 DATA2
   242-0-0/w UBIN        r     1 DATA2                    243-0-0/w UBIN        r     1 DATA2D
   241-0-0/w UBIN        r     1 DATA2D                   243-0-0/w UBIN        r     1 DATA2D
   244-0-0/w UBIN        r     1 DATA2N                   242-0-0/w UBIN        r     1 DATA2N
   244-0-0/w UBIN        r     1 DATA2N                   245-0-0/w UBIN        r     1 DATA3
   243-0-0/w UBIN        r     1 DATA3                    243-0-0/w UBIN        r     1 DATA3
   245-0-0/w UBIN        r     1 DATA3                    245-0-0/w CHAR(4)     r     1 DATA3C
   246-0-0/w UBIN        r     1 DATA3D                   247-0-0/w UBIN        r     1 DATA3N
   250-0-0/w UBIN        r     1 DATA4                    244-0-0/w UBIN        r     1 DATA4
   244-0-0/w UBIN        r     1 DATA4                    246-0-0/w UBIN        r     1 DATA4
   251-0-0/w UBIN        r     1 DATA4D                   245-0-0/w UBIN        r     1 DATA4D
   252-0-0/w UBIN        r     1 DATA4N                   246-0-0/w UBIN        r     1 DATA4N
   247-0-0/w UBIN        r     1 DATA5                    247-0-0/w UBIN        r     1 DATA5
   250-0-0/w UBIN        r     1 DCBS                       7-0-0/w PTR         r     1 DFR$
   100-0-0/w STRC(864)   r     1 DFRD                      26-0-0/w BIT (72)    r     1 DFRFMT_
   240-0-0/w UBIN        r     1 DSB                      130-0-0/w STRC(108)   r     1 DTD(0:2)
    12-0-0/w PTR         r     1 F$CFU$                   261-0-0/c STRC(288)   r     1 FNAME
   256-0-0/c STRC(288)   r     1 FNAME                     22-0-0/d BIT (72)    r     1 GATE
    30-0-0/w UBIN        r     1 I                        246-0-0/w PTR         r     1 M@AUSTA$
     6-0-0/w PTR         r     1 M@CG$                     32-0-0/w PTR         r     1 M@CUR$
    10-0-0/w PTR         r     1 M@DFR$                    11-0-0/w PTR         r     1 M@DSB$
    13-0-0/w PTR         r     1 M@F$CFU$                  15-0-0/w PTR         r     1 M@MBLK$
    17-0-0/w PTR         r     1 M@MLH$                    25-0-0/w PTR         r     1 M@TEMP$
   241-0-0/w UBIN        r     1 MAXBP                    244-0-0/w UBIN        r     1 MAXDP
    14-0-0/w PTR         r     1 MBLK$                    242-0-0/w UBIN        r     1 MINBP
   245-0-0/w UBIN        r     1 MINDP                     16-0-0/w PTR         r     1 MLH$
    33-0-0/w STRC(704)   r     1 MLHD                      57-0-0/w STRC(612)   r     1 MSGD
    *0-0-0/w UBIN        r     1 N                         *0-0-0/w STRC        r     1 P
   240-0-0/w PTR         r     1 P$                       257-0-0/c CHAR(6)     r     1 PSN
   254-0-0/c CHAR(6)     r     1 PSN                       *0-0-0/w PTR         r     1 PTR$
   173-0-0/w STRC(360)   r     1 QTD                       20-0-0/w PTR         r     1 QTREEHD$
   205-0-0/w STRC(108)   r     1 R                        251-0-0/c CHAR(8)     r     1 STA
   157-0-0/w STRC(432)   r     1 STD                      212-0-0/w UBIN        r     1 TCURBP
   215-0-0/w UBIN        r     1 TCURDP                   216-0-0/w UBIN        r     1 TCURPG
    24-0-0/w PTR         r     1 TEMP$                    247-0-0/w UBIN        r     1 TERMS
   217-0-0/c CHAR(50)    r     1 TEXTFID                  234-0-0/w UBIN        r     1 TEXTFIDL
   210-0-0/w UBIN        r     1 TMAXBP                   213-0-0/w UBIN        r     1 TMAXDP
PL6.E3A0      #001=DAD$CGS File=DAD$CGS.:E05TSI                                  TUE 07/29/97 12:40 Page:316
   211-0-0/w UBIN        r     1 TMINBP                   214-0-0/w UBIN        r     1 TMINDP
    *0-0-0/w STRC(144)   r     1 TOP                      141-0-0/w STRC(252)   r     1 TTD(0:1)
    *0-0-0/w STRC        r     1 V                         *0-0-0/w PTR         r     1 VPTR$
    *0-0-0/w UBIN        r     1 W

  ****  SYMREF variables  ****

  ****  Scalars and arrays  ****
OctLoc.c.b A Datatyp(siz) R M Lvl/name                 OctLoc.c.b A Datatyp(siz) R M Lvl/name

     0-0-0/w PTR         r     1 B$CGCTXT$                  0-0-0/w PTR         r     1 B$DS1$
     0-0-0/w PTR         r     1 B$TCB$                     0-0-0/w PTR         r     1 B$XL_ASC_DUMP$
     0-0-0/w EPTR        r     1 DAF$WRITE                  0-0-0/w STRC(72)    r     1 DA_ASR
     0-0-0/w STRC        r     1 DA_CURCG                   0-0-0/w PTR         r     1 DA_DNAME$
     0-0-0/w STRC(1080)  r     1 DA_GATETXT                 0-0-0/w STRC        r     1 DA_MAPERR
     0-0-0/b BIT (72)    r     1 DA_MONISDATA

  ****  BASED and DCB variables  ****

  ****  Scalars and arrays  ****
OctLoc.c.b A Datatyp(siz) R M Lvl/name                 OctLoc.c.b A Datatyp(siz) R M Lvl/name

     0-0-0/w STRC(2448)  r     1 B$ALT                      0-0-0/w STRC(72)    r     1 B$EDEF
     0-0-0/w STRC(144)   r     1 B$TCB                      0-0-0/d BIT (72)    r     1 BIT$72DA
     0-0-0/w BIT         r     1 BIT$WORD                   0-0-0/d STRC(4608)  r     1 DA_PRINTABLE_TBL
     0-0-0/w STRC(288)   r     1 FM$CFU                     0-0-0/w STRC(288)   r     1 FM$CFUA
     0-0-0/c ASTR(27)    r     1 FM$CFUN                    0-0-0/w STRC(288)   r     1 FM$CFUX
     0-0-0/w STRC(288)   r     1 FM$SET
     0-0-0/w STRC(288)   r     1 FM$SETA(0:0)
     0-0-0/w STRC(252)   r     1 KQ$BTN                     0-0-0/d STRC(6516)  r     1 KQ$CG
     0-0-0/d STRC(288)   r     1 KQ$DFRBLK                  0-0-0/w STRC        r     1 KQ$DPTR
     0-0-0/w STRC(144)   r     1 KQ$GRAN                    0-0-0/d STRC(576)   r     1 KQ$MBLK
     0-0-0/w STRC(288)   r     1 KQ$MLH                     0-0-0/d STRC(288)   r     1 KQ$MMSD
     0-0-0/d STRC(360)   r     1 KQ$MTYP                    0-0-0/d STRC(1908)  r     1 KQ$QTN
     0-0-0/d STRC(648)   r     1 KQ$RBLK                    0-0-0/d STRC(576)   r     1 KQ$SMBLK
     0-0-0/d STRC(1296)  r     1 KQ$STA                     0-0-0/w STRC(216)   r     1 KQ$THDR
     0-0-0/h ASTR(18)    r     1 NAM                        0-0-0/w STRC(144)   r     1 OUT$BLK
PL6.E3A0      #001=DAD$CGS File=DAD$CGS.:E05TSI                                  TUE 07/29/97 12:40 Page:317
     0-0-0/w ASTR(153)   r     1 OUT$SYM                    0-0-0/w PTR         r     1 PTR$WORD
     0-0-0/h UBIN(18)    r     1 UBIN$HALF


   Procedure DAD$CGS requires 4799 words for executable code.
   Procedure DAD$CGS requires 280 words of local(AUTO) storage.

    No errors detected in file DAD$CGS.:E05TSI    .
PL6.E3A0      #001=DAD$CGS File=DAD$CGS.:E05TSI                                  TUE 07/29/97 12:40 Page:318
          *** CROSS REFERENCE LISTING ***
**     DENOTES     IDENTIFIER DEFINITION
<<                 IDENTIFIER'S VALUE SET
>>                 IDENTIFIER'S VALUE USED
<>                 IDENTIFIER SET AND/OR USED
--                 IDENTIFIER REFERENCED
PL6.E3A0      #001=DAD$CGS File=DAD$CGS.:E05TSI                                  TUE 07/29/97 12:40 Page:319
          MINI XREF LISTING

A$ IN PROCEDURE DI1CG
     22250**DCL     22282<<ASSIGN  22283>>ASSIGN  22284>>ASSIGN
A$ IN PROCEDURE DI1CGMEM
     22352**DCL     22380<<ASSIGN  22381>>ASSIGN  22382>>ASSIGN
A$ IN PROCEDURE FINDCG
     22903**DCL     22920<<ASSIGN  22925>>IF
ACCT IN PROCEDURE DI1CG
     22251**DCL     22283<<ASSIGN  22295<<ASSIGN  22308--CALL
ACCT IN PROCEDURE DI1CGMEM
     22353**DCL     22381<<ASSIGN  22393<<ASSIGN  22406--CALL
ADR IN PROCEDURE DIDFR
     22550**DCL     22564<<ASSIGN  22565<>CALL
AERR
     21620**LABEL   21607--CALLALT 21608--CALLALT 21610--CALLALT 21649--CALLALT 21650--CALLALT 21652--CALLALT
     21653--CALLALT
AERR IN PROCEDURE SETUP
     22885**LABEL   22836--CALLALT 22859--CALLALT 22860--CALLALT 22862--CALLALT 22865--CALLALT 22878--CALLALT
ARET IN PROCEDURE DI1CG
     22318**LABEL   22258--CALLALT
ARET IN PROCEDURE DI1CGMEM
     22415**LABEL   22360--CALLALT
ARET IN PROCEDURE FINDCG
     22931**LABEL   22908--CALLALT 22909--CALLALT 22911--CALLALT
AS0
     21549**DCL     21550--REDEF
AS0$
     21550**DCL     21852<>CALL    21890<>CALL    21967<>CALL    22053<>CALL    22069<>CALL    22075<>CALL
     22141<>CALL    22196<>CALL    22200<>CALL    22267<>CALL    22447<>CALL    22448<>CALL    22449<>CALL
     22450<>CALL    22455<>CALL    22456<>CALL    22457<>CALL    22458<>CALL    22468<>CALL    22469<>CALL
     22470<>CALL    22476<>CALL    22507<>CALL    22511<>CALL    22512<>CALL    22515<>CALL    22557<>CALL
     22561<>CALL    22586<>CALL    22625<>CALL    22628<>CALL    22636<>CALL    22639<>CALL    22643<>CALL
     22646<>CALL    22678<>CALL    22687<>CALL    22696<>CALL    22705<>CALL    22714<>CALL    22723<>CALL
PL6.E3A0      #001=DAD$CGS File=DAD$CGS.:E05TSI                                  TUE 07/29/97 12:40 Page:320
     22732<>CALL    22764<>CALL    22767<>CALL    22784<>CALL    22785<>CALL
AUSTA IN PROCEDURE DI1CG
     22242**DCL     22267<>CALL    22308--CALL
AUSTA$ IN PROCEDURE DI1CG
     22244**DCL     22266<<ASSIGN  22267<>CALL    22268<>CALL
AUSTAD IN PROCEDURE DI1CG
     22241**DCL     22267<>CALL    22308--CALL
AUSTAN IN PROCEDURE DI1CG
     22243**DCL     22267<>CALL    22308--CALL
B IN PROCEDURE VALPTR
     22982**DCL     22962--PROC    23002--IF      23003<<ASSIGN  23009--IF      23022--IF      23023<<ASSIGN
     23033--IF      23034<<ASSIGN
B$ALT.CODE
     21586**DCL     21586--REDEF   21587--REDEF   21587--REDEF
B$ALT.ERR
     21587**DCL     22828<>CALL
B$ALT.ERR.ERR#
     21588**DCL     21588--REDEF
B$ALT.EVID
     21587**DCL     21587--REDEF   21587--REDEF
B$CGCTXT$
     21578**DCL     22258<>CALL    22260<>CALL    22360<>CALL    22837>>ASSIGN  22877<>CALL    22914<>CALL
B$DS1$
     21577**DCL     21610<>CALL    21611>>ASSIGN  22862<>CALL    22863>>ASSIGN  22911<>CALL    22912>>ASSIGN
B$EDEF.NPOINTER
     16622**DCL     22566>>ASSIGN
B$EDEF.OU
     16614**DCL     16620--REDEF
B$TCB.ALT$
     21582**DCL     22828>>CALL
B$TCB$
     21579**DCL     22828>>CALL
B$XL_ASC_DUMP$
     16671**DCL     16672--IMP-PTR 21854>>CALLBLT 21855>>CALLBLT 21869>>CALLBLT 22055>>CALLBLT 22143>>CALLBLT
     22198>>CALLBLT 22269>>CALLBLT 22529>>CALLBLT
BIT$72DA
PL6.E3A0      #001=DAD$CGS File=DAD$CGS.:E05TSI                                  TUE 07/29/97 12:40 Page:321
     16666**DCL     22262>>ASSIGN  22879>>ASSIGN
BIT$WORD
     16667**DCL     21970>>ASSIGN
BLANKFMT
     21541**DCL     21662--CALL    22103--CALL
BLANK_IT IN PROCEDURE DIDFR
     22569**LABEL   22565--CALLALT
C IN PROCEDURE VALPTR
     22981**DCL     22962--PROC    23000--IF      23001<<ASSIGN  23009--IF      23020--IF      23021<<ASSIGN
     23031--IF      23032<<ASSIGN
C$ IN PROCEDURE DI1CG
     22249**DCL     22281<<ASSIGN  22282>>ASSIGN  22285>>DOWHILE 22286<<ASSIGN  22286>>ASSIGN  22288<<ASSIGN
     22288>>ASSIGN  22289>>ASSIGN  22290>>ASSIGN  22290>>ASSIGN
C$ IN PROCEDURE DI1CGMEM
     22351**DCL     22379<<ASSIGN  22380>>ASSIGN  22383>>DOWHILE 22384<<ASSIGN  22384>>ASSIGN  22386<<ASSIGN
     22386>>ASSIGN  22387>>ASSIGN  22388>>ASSIGN  22388>>ASSIGN
C$ IN PROCEDURE FINDCG
     22902**DCL     22919<<ASSIGN  22920>>ASSIGN  22921>>DOWHILE 22922<<ASSIGN  22922>>ASSIGN  22924<<ASSIGN
     22924>>ASSIGN  22925>>IF      22925>>IF      22925>>IF
CCG$ IN PROCEDURE SETUP
     22820**DCL     22833<<ASSIGN  22837<<ASSIGN  22850<<ASSIGN  22851>>IF      22866>>IF
CCGRPT
     20009**DCL     21691<>CALL    21717<>CALL    21737<>CALL    21757<>CALL    21777<>CALL
CCGRPTTX00
     20052**DCL     20039--DCLINIT
CFU IN PROCEDURE DI1CG
     22240**DCL     22279<>CALL    22281>>ASSIGN  22308--CALL
CFU IN PROCEDURE DI1CGMEM
     22343**DCL     22377<>CALL    22379>>ASSIGN
CFU IN PROCEDURE FINDCG
     22905**DCL     22917<>CALL    22919>>ASSIGN
CFU$ IN PROCEDURE DI1CG
     22256**DCL     22265<<ASSIGN  22279<>CALL
CFU$ IN PROCEDURE DI1CGMEM
     22358**DCL     22376<<ASSIGN  22377<>CALL
CFU$ IN PROCEDURE FINDCG
PL6.E3A0      #001=DAD$CGS File=DAD$CGS.:E05TSI                                  TUE 07/29/97 12:40 Page:322
     22906**DCL     22916<<ASSIGN  22917<>CALL
CG$
     19451**DCL     21607<>CALL    21608<>CALL    21609<<ASSIGN  21613>>DOWHILE 21615<<ASSIGN  21649<>CALL
     21650<>CALL    21651<<ASSIGN  21656>>DOWHILE 21658<<ASSIGN  22104<>CALL    22258<>CALL    22259<>CALL
     22312<>CALL    22360<>CALL    22361<>CALL    22409<>CALL    22833>>ASSIGN  22859<>CALL    22860<>CALL
     22861<<ASSIGN  22864>>DOWHILE 22865<>CALL    22866>>IF      22868<<ASSIGN  22880>>ASSIGN  22908<>CALL
     22909<>CALL    22910<<ASSIGN  22913>>DOWHILE 22914<>CALL    22915<>CALL    22928<<ASSIGN
CGID IN PROCEDURE SETUP
     22819**DCL     22836<>CALL    22837>>ASSIGN
CGMSFMT
     19987**DCL     22406--CALL
CGMSRPT
     19852**DCL     21655<>CALL
CGMSRPTHD00
     19919**DCL     19887--DCLINIT
CGMSRPTHD01
     19962**DCL     19934--DCLINIT
CGMSRPTTX00
     19895**DCL     19882--DCLINIT
CGMSRPTTX01
     19937**DCL     19927--DCLINIT
CGMSRPTTX02
     19980**DCL     19970--DCLINIT
CGMTFMT
     19989**DCL     21663--CALL
CGSFMT
     19832**DCL     22308--CALL
CGSRPT
     19697**DCL     21612<>CALL
CGSRPTHD00
     19764**DCL     19732--DCLINIT
CGSRPTHD01
     19807**DCL     19779--DCLINIT
CGSRPTTX00
     19740**DCL     19727--DCLINIT
CGSRPTTX01
PL6.E3A0      #001=DAD$CGS File=DAD$CGS.:E05TSI                                  TUE 07/29/97 12:40 Page:323
     19782**DCL     19772--DCLINIT 21692--CALL
CGSRPTTX02
     19825**DCL     19815--DCLINIT 21693--CALL
CGSTATSFMT
     21228**DCL     22020--CALL
CGSTATSRPT
     21007**DCL     22007<>CALL
CGSTATSRPTHD00
     21074**DCL     21042--DCLINIT
CGSTATSRPTHD01
     21117**DCL     21089--DCLINIT
CGSTATSRPTHD02
     21160**DCL     21132--DCLINIT
CGSTATSRPTHD03
     21203**DCL     21175--DCLINIT
CGSTATSRPTTX00
     21050**DCL     21037--DCLINIT
CGSTATSRPTTX01
     21092**DCL     21082--DCLINIT
CGSTATSRPTTX02
     21135**DCL     21125--DCLINIT
CGSTATSRPTTX03
     21178**DCL     21168--DCLINIT
CGSTATSRPTTX04
     21221**DCL     21211--DCLINIT
CMN IN PROCEDURE SETUP
     22851**LABEL   22839--GOTO
CODETBL IN PROCEDURE DIDFR
     22547**DCL     22563>>ASSIGN
COUNT
     19450**DCL     21846<>CALL    21847<<ASSIGN  21849>>DOINDEX
CTXT IN PROCEDURE DI1CG
     22238**DCL     22258<>CALL    22308--CALL
CTXT IN PROCEDURE DI1CGMEM
     22342**DCL     22360<>CALL    22406--CALL
CTXT IN PROCEDURE FINDCG
PL6.E3A0      #001=DAD$CGS File=DAD$CGS.:E05TSI                                  TUE 07/29/97 12:40 Page:324
     22904**DCL     22914<>CALL
CUR$
     19468**DCL     21803<<ASSIGN  21807>>DOWHILE 21808>>ASSIGN  21810<>CALL    21811<<ASSIGN  21813<<ASSIGN
     21814>>DOWHILE 21815>>ASSIGN  21817<>CALL    21818<<ASSIGN  21959<<ASSIGN  21960>>IF      21967<>CALL
     21969<>CALL    21971<<ASSIGN  21972>>IF      21981<<ASSIGN  21986>>IF      22049<<ASSIGN  22050>>DOWHILE
     22053<>CALL    22054<>CALL    22056<<ASSIGN  22082<<ASSIGN  22093<<ASSIGN  22132<<ASSIGN  22133>>IF
     22141<>CALL    22142<>CALL    22148<<ASSIGN  22149>>IF      22158<<ASSIGN  22163>>IF      22193<<ASSIGN
     22194>>DOWHILE 22196<>CALL    22197<>CALL    22203<<ASSIGN  22209<<ASSIGN  22528<>CALL
CURBP IN PROCEDURE DI1CGMEM
     22346**DCL     22364<<ASSIGN  22371>>ASSIGN  22406--CALL
CURDP IN PROCEDURE DI1CGMEM
     22349**DCL     22367<<ASSIGN  22374>>ASSIGN  22406--CALL
CURPG IN PROCEDURE DI1CGMEM
     22350**DCL     22368<<ASSIGN  22375>>ASSIGN  22406--CALL
D IN PROCEDURE VALPTR
     22978**DCL     22962--PROC    22998--IF      22999<<ASSIGN  23018--IF      23019<<ASSIGN  23029--IF
     23030<<ASSIGN
DAA$ERRMSG
     21566**DCL-ENT 21620--CALL    21978--CALL    22085--CALL    22109--CALL    22155--CALL    22206--CALL
     22215--CALL    22316--CALL    22413--CALL    22828--CALL    22853--CALL    22871--CALL    22885--CALL
DAA$LOC
     21567**DCL-ENT 21844--CALL
DAA$VALUE
     21568**DCL-ENT 21846--CALL    22836--CALL
DAB$GATE
     21569**DCL-ENT 21957--CALL    22041--CALL    22077--CALL    22130--CALL    22623--CALL
DAD$SPYDOT
     21570**DCL-ENT 20876--DCLINIT
DAF$INIT
     21571**DCL-ENT 21612--CALL    21655--CALL    21691--CALL    21717--CALL    21737--CALL    21757--CALL
     21777--CALL    21797--CALL    21848--CALL    21913--CALL    21956--CALL    22007--CALL    22040--CALL
     22129--CALL    22183--CALL
DAF$WRITE
     21572**DCL     21662>>CALL    21663>>CALL    21692>>CALL    21693>>CALL    21800>>CALL    21877>>CALL
     21891>>CALL    21958>>CALL    21962>>CALL    21985>>CALL    22020>>CALL    22042>>CALL    22045>>CALL
     22096>>CALL    22098>>CALL    22103>>CALL    22131>>CALL    22135>>CALL    22162>>CALL    22187>>CALL
PL6.E3A0      #001=DAD$CGS File=DAD$CGS.:E05TSI                                  TUE 07/29/97 12:40 Page:325
     22211>>CALL    22308>>CALL    22406>>CALL    22453>>CALL    22461>>CALL    22466>>CALL    22474>>CALL
     22479>>CALL    22485>>CALL    22530>>CALL    22558>>CALL    22596>>CALL    22624>>CALL    22635>>CALL
     22640>>CALL    22650>>CALL    22681>>CALL    22690>>CALL    22699>>CALL    22708>>CALL    22717>>CALL
     22726>>CALL    22735>>CALL    22783>>CALL    22790>>CALL    23014>>CALL
DAM$MAP
     21573**DCL-ENT 21608--CALL    21610--CALL    21650--CALL    21653--CALL    21805--CALL    21810--CALL
     21817--CALL    21853--CALL    21969--CALL    22054--CALL    22070--CALL    22104--CALL    22142--CALL
     22190--CALL    22197--CALL    22259--CALL    22261--CALL    22268--CALL    22280--CALL    22312--CALL
     22361--CALL    22378--CALL    22409--CALL    22508--CALL    22528--CALL    22562--CALL    22860--CALL
     22862--CALL    22865--CALL    22878--CALL    22909--CALL    22911--CALL    22915--CALL    22918--CALL
DAS$IC2ED
     21574**DCL-ENT 22565--CALL
DAS$SDMONPTR
     21575**DCL-ENT 21607--CALL    21649--CALL    21652--CALL    22859--CALL    22908--CALL
DATA1 IN PROCEDURE DIDATACACHE
     22434**DCL     22447<>CALL    22453--CALL    22455<>CALL    22461--CALL    22463<<ASSIGN  22466--CALL
     22468<>CALL    22474--CALL    22475<<ASSIGN  22479--CALL    22481<<ASSIGN  22485--CALL
DATA1 IN PROCEDURE DIGARB
     22667**DCL     22675<<ASSIGN  22677<<ASSIGN  22681--CALL    22684<<ASSIGN  22686<<ASSIGN  22690--CALL
     22693<<ASSIGN  22695<<ASSIGN  22699--CALL    22702<<ASSIGN  22704<<ASSIGN  22708--CALL    22711<<ASSIGN
     22713<<ASSIGN  22717--CALL    22720<<ASSIGN  22722<<ASSIGN  22726--CALL    22729<<ASSIGN  22731<<ASSIGN
     22735--CALL
DATA1 IN PROCEDURE DIMMD
     22613**DCL     22625<>CALL    22635--CALL    22636<>CALL    22640--CALL    22643<>CALL    22650--CALL
DATA1 IN PROCEDURE DIQUEUE
     22753**DCL     22764<>CALL    22783--CALL    22784<>CALL    22790--CALL
DATA1D IN PROCEDURE DIDATACACHE
     22435**DCL     22447<>CALL    22453--CALL    22455<>CALL    22461--CALL    22468<>CALL    22474--CALL
DATA1D IN PROCEDURE DIMMD
     22614**DCL     22625<>CALL    22635--CALL    22636<>CALL    22640--CALL    22643<>CALL    22650--CALL
DATA1D IN PROCEDURE DIQUEUE
     22754**DCL     22764<>CALL    22783--CALL    22784<>CALL    22790--CALL
DATA1N IN PROCEDURE DIDATACACHE
     22436**DCL     22447<>CALL    22453--CALL    22455<>CALL    22461--CALL    22468<>CALL    22474--CALL
DATA1N IN PROCEDURE DIMMD
     22615**DCL     22625<>CALL    22635--CALL    22636<>CALL    22640--CALL    22643<>CALL    22650--CALL
PL6.E3A0      #001=DAD$CGS File=DAD$CGS.:E05TSI                                  TUE 07/29/97 12:40 Page:326
DATA1N IN PROCEDURE DIQUEUE
     22755**DCL     22764<>CALL    22783--CALL    22784<>CALL    22790--CALL
DATA2 IN PROCEDURE DIDATACACHE
     22437**DCL     22448<>CALL    22453--CALL    22456<>CALL    22461--CALL    22464<<ASSIGN  22466--CALL
     22469<>CALL    22474--CALL    22476<>CALL    22479--CALL    22482<<ASSIGN  22485--CALL
DATA2 IN PROCEDURE DIGARB
     22668**DCL     22678<>CALL    22681--CALL    22687<>CALL    22690--CALL    22696<>CALL    22699--CALL
     22705<>CALL    22708--CALL    22714<>CALL    22717--CALL    22723<>CALL    22726--CALL    22732<>CALL
     22735--CALL
DATA2 IN PROCEDURE DIMMD
     22616**DCL     22626<<ASSIGN  22635--CALL    22637<<ASSIGN  22640--CALL    22644<<ASSIGN  22650--CALL
DATA2 IN PROCEDURE DIQUEUE
     22756**DCL     22767<>CALL    22783--CALL    22785<>CALL    22790--CALL
DATA2D IN PROCEDURE DIDATACACHE
     22438**DCL     22448<>CALL    22453--CALL    22456<>CALL    22461--CALL    22469<>CALL    22474--CALL
     22476<>CALL    22479--CALL
DATA2D IN PROCEDURE DIGARB
     22669**DCL     22678<>CALL    22681--CALL    22687<>CALL    22690--CALL    22696<>CALL    22699--CALL
     22705<>CALL    22708--CALL    22714<>CALL    22717--CALL    22723<>CALL    22726--CALL    22732<>CALL
     22735--CALL
DATA2D IN PROCEDURE DIQUEUE
     22757**DCL     22767<>CALL    22783--CALL    22785<>CALL    22790--CALL
DATA2N IN PROCEDURE DIDATACACHE
     22439**DCL     22448<>CALL    22453--CALL    22456<>CALL    22461--CALL    22469<>CALL    22474--CALL
     22476<>CALL    22479--CALL
DATA2N IN PROCEDURE DIGARB
     22670**DCL     22678<>CALL    22681--CALL    22687<>CALL    22690--CALL    22696<>CALL    22699--CALL
     22705<>CALL    22708--CALL    22714<>CALL    22717--CALL    22723<>CALL    22726--CALL    22732<>CALL
     22735--CALL
DATA2N IN PROCEDURE DIQUEUE
     22758**DCL     22767<>CALL    22783--CALL    22785<>CALL    22790--CALL
DATA3 IN PROCEDURE DIDATACACHE
     22440**DCL     22449<>CALL    22453--CALL    22457<>CALL    22461--CALL    22465<<ASSIGN  22466--CALL
     22470<>CALL    22474--CALL    22477<<ASSIGN  22479--CALL    22483<<ASSIGN  22485--CALL
DATA3 IN PROCEDURE DIGARB
     22671**DCL     22679<<ASSIGN  22681--CALL    22688<<ASSIGN  22690--CALL    22697<<ASSIGN  22699--CALL
PL6.E3A0      #001=DAD$CGS File=DAD$CGS.:E05TSI                                  TUE 07/29/97 12:40 Page:327
     22706<<ASSIGN  22708--CALL    22715<<ASSIGN  22717--CALL    22724<<ASSIGN  22726--CALL    22733<<ASSIGN
     22735--CALL
DATA3 IN PROCEDURE DIMMD
     22617**DCL     22627<<ASSIGN  22635--CALL    22638<<ASSIGN  22640--CALL    22645<<ASSIGN  22650--CALL
DATA3 IN PROCEDURE DIQUEUE
     22759**DCL     22760--REDEF   22783--CALL    22786<<ASSIGN  22790--CALL
DATA3C IN PROCEDURE DIQUEUE
     22760**DCL     22769<<ASSIGN  22771<<ASSIGN  22772<<ASSIGN
DATA3D IN PROCEDURE DIDATACACHE
     22441**DCL     22449<>CALL    22453--CALL    22457<>CALL    22461--CALL    22470<>CALL    22474--CALL
DATA3N IN PROCEDURE DIDATACACHE
     22442**DCL     22449<>CALL    22453--CALL    22457<>CALL    22461--CALL    22470<>CALL    22474--CALL
DATA4 IN PROCEDURE DIDATACACHE
     22443**DCL     22450<>CALL    22453--CALL    22458<>CALL    22461--CALL    22471<<ASSIGN  22474--CALL
     22478<<ASSIGN  22479--CALL    22484<<ASSIGN  22485--CALL
DATA4 IN PROCEDURE DIGARB
     22672**DCL     22680<<ASSIGN  22681--CALL    22689<<ASSIGN  22690--CALL    22698<<ASSIGN  22699--CALL
     22707<<ASSIGN  22708--CALL    22716<<ASSIGN  22717--CALL    22725<<ASSIGN  22726--CALL    22734<<ASSIGN
     22735--CALL
DATA4 IN PROCEDURE DIMMD
     22618**DCL     22628<>CALL    22635--CALL    22639<>CALL    22640--CALL    22646<>CALL    22650--CALL
DATA4 IN PROCEDURE DIQUEUE
     22761**DCL     22774<<ASSIGN  22776<<ASSIGN  22783--CALL    22788<<ASSIGN  22789<<ASSIGN  22790--CALL
DATA4D IN PROCEDURE DIDATACACHE
     22444**DCL     22450<>CALL    22453--CALL    22458<>CALL    22461--CALL
DATA4D IN PROCEDURE DIMMD
     22619**DCL     22628<>CALL    22635--CALL    22639<>CALL    22640--CALL    22646<>CALL    22650--CALL
DATA4N IN PROCEDURE DIDATACACHE
     22445**DCL     22450<>CALL    22453--CALL    22458<>CALL    22461--CALL
DATA4N IN PROCEDURE DIMMD
     22620**DCL     22628<>CALL    22635--CALL    22639<>CALL    22640--CALL    22646<>CALL    22650--CALL
DATA5 IN PROCEDURE DIMMD
     22621**DCL     22630<<ASSIGN  22632<<ASSIGN  22635--CALL    22647<<ASSIGN  22650--CALL
DATA5 IN PROCEDURE DIQUEUE
     22762**DCL     22778<<ASSIGN  22780<<ASSIGN  22783--CALL
DATFMT0
PL6.E3A0      #001=DAD$CGS File=DAD$CGS.:E05TSI                                  TUE 07/29/97 12:40 Page:328
     20058**DCL     22453--CALL
DATFMT1
     20063**DCL     22461--CALL
DATFMT2
     20068**DCL     22466--CALL
DATFMT3
     20070**DCL     22474--CALL
DATFMT4
     20075**DCL     22479--CALL
DATFMT5
     20079**DCL     22485--CALL
DA_ASR
      3612**DCL     22262<<ASSIGN  22879<<ASSIGN
DA_CURCG.CG$
      3613**DCL     22850>>ASSIGN  22880<<ASSIGN
DA_DNAME$
      3705**DCL     22566>>ASSIGN
DA_GATETXT
      3581**DCL     21958--CALL    22042--CALL    22098--CALL    22131--CALL    22624--CALL
DA_MAPERR
      3608**DCL     22276<<ASSIGN  22293<<ASSIGN  22391<<ASSIGN
DA_MAPSEG.P
      3609**DCL      3610--REDEF
DA_MONISDATA
      3602**DCL     21608<>CALL    21650<>CALL    21653<>CALL    22860<>CALL    22909<>CALL
DA_PRINTABLE_TBL
     16672**DCL     21854>>CALLBLT 21855>>CALLBLT 21869>>CALLBLT 22055>>CALLBLT 22143>>CALLBLT 22198>>CALLBLT
     22269>>CALLBLT 22529>>CALLBLT
DA_SDASN.DESC.TYPE0
      3594**DCL      3594--REDEF
DA_SYMSEG.P
      3704**DCL      3705--REDEF
DA_TIGRSEG.P
      3610**DCL      3611--REDEF
DCBS IN PROCEDURE DI1CG
     22247**DCL     22264<<ASSIGN  22308--CALL
PL6.E3A0      #001=DAD$CGS File=DAD$CGS.:E05TSI                                  TUE 07/29/97 12:40 Page:329
DFR$
     19453**DCL     21916<<ASSIGN  21921<<ASSIGN  21926<<ASSIGN  21931<<ASSIGN  21936<<ASSIGN  22557<>CALL
     22559>>DOWHILE 22561<>CALL    22562<>CALL    22597<<ASSIGN
DFRBLKFMT
     20820**DCL     22596--CALL
DFRBLKRPT
     20642**DCL     21913<>CALL
DFRBLKRPTHD00
     20709**DCL     20677--DCLINIT
DFRBLKRPTHD01
     20752**DCL     20724--DCLINIT
DFRBLKRPTHD02
     20795**DCL     20767--DCLINIT
DFRBLKRPTTX00
     20685**DCL     20672--DCLINIT
DFRBLKRPTTX01
     20727**DCL     20717--DCLINIT
DFRBLKRPTTX02
     20770**DCL     20760--DCLINIT
DFRBLKRPTTX03
     20813**DCL     20803--DCLINIT
DFRD
     19527**DCL     22560<<ASSIGN  22596--CALL
DFRD.ABORT
     19533**DCL     22573<<ASSIGN
DFRD.CODE
     19528**DCL     22563<<ASSIGN
DFRD.DA.N
     19537**DCL     22576<<ASSIGN
DFRD.DA.V
     19536**DCL     22577<<ASSIGN
DFRD.DBLK.N
     19543**DCL     22582<<ASSIGN
DFRD.DBLK.V
     19542**DCL     22583<<ASSIGN
DFRD.DDA.N
PL6.E3A0      #001=DAD$CGS File=DAD$CGS.:E05TSI                                  TUE 07/29/97 12:40 Page:330
     19540**DCL     22579<<ASSIGN
DFRD.DDA.V
     19539**DCL     22580<<ASSIGN
DFRD.DGRAN$.D
     19546**DCL     22586<>CALL
DFRD.DGRAN$.N
     19548**DCL     22585<<ASSIGN
DFRD.DGRAN$.N1
     19547**DCL     22586<>CALL
DFRD.DGRAN$.W
     19545**DCL     22586<>CALL
DFRD.ENTPTR
     19529**DCL     22567<<ASSIGN  22569<<ASSIGN
DFRD.ERR.N
     19554**DCL     22591<<ASSIGN
DFRD.ERR.V
     19553**DCL     22592<<ASSIGN
DFRD.EVNT
     19532**DCL     22572<<ASSIGN
DFRD.GFLG
     19534**DCL     22574<<ASSIGN
DFRD.GO
     19531**DCL     22571<<ASSIGN
DFRD.INFO.N
     19557**DCL     22594<<ASSIGN
DFRD.INFO.V
     19556**DCL     22595<<ASSIGN
DFRD.SELF$.D
     19560**DCL     22561<>CALL
DFRD.SELF$.W
     19559**DCL     22561<>CALL
DFRD.USR.N
     19551**DCL     22588<<ASSIGN
DFRD.USR.V
     19550**DCL     22589<<ASSIGN
DFRFMT_
PL6.E3A0      #001=DAD$CGS File=DAD$CGS.:E05TSI                                  TUE 07/29/97 12:40 Page:331
     19466**DCL     21915<<ASSIGN  21920<<ASSIGN  21925<<ASSIGN  21930<<ASSIGN  21935<<ASSIGN  22558<>CALL
DFRFREEFMT
     20831**DCL     21935--ASSIGN
DI1CG
     22236**PROC    21614--CALL    21694--CALL
DI1CGMEM
     22340**PROC    21657--CALL
DIDATACACHE
     22432**PROC    21695--CALL    21718--CALL
DIDFR
     22545**PROC    21917--CALL    21922--CALL    21927--CALL    21932--CALL    21937--CALL
DIGARB
     22665**PROC    21697--CALL    21758--CALL
DIMLH
     22503**PROC    21809--CALL    21816--CALL
DIMMD
     22611**PROC    21696--CALL    21738--CALL
DIQUEUE
     22751**PROC    21698--CALL    21778--CALL
DSB IN PROCEDURE DI1CG
     22239**DCL     22260<>CALL    22308--CALL
DTD
     19561**DCL     21985--CALL
DTD.D
     19563**DCL     21967<>CALL
DTD.K
     19564**DCL     21970<<ASSIGN  21980<<ASSIGN
DTD.W
     19562**DCL     21967<>CALL    21968<<ASSIGN  21968>>ASSIGN
DTGFMT
     21543**DCL     21958--CALL
DTO
     21983**LABEL   21973--GOTO
DTOERR0
     21978**LABEL   21969--CALLALT
DTOERR1
PL6.E3A0      #001=DAD$CGS File=DAD$CGS.:E05TSI                                  TUE 07/29/97 12:40 Page:332
     21980**LABEL   21967--CALLALT
DTREEFMT
     20622**DCL     21985--CALL
DTREERPT
     20487**DCL     21956<>CALL
DTREERPTHD00
     20554**DCL     20522--DCLINIT
DTREERPTHD01
     20597**DCL     20569--DCLINIT
DTREERPTTX00
     20530**DCL     20517--DCLINIT
DTREERPTTX01
     20572**DCL     20562--DCLINIT
DTREERPTTX02
     20615**DCL     20605--DCLINIT
E IN PROCEDURE VALPTR
     22983**DCL     23014--CALL
E.B IN PROCEDURE VALPTR
     22986**DCL     23023>>ASSIGN
E.C IN PROCEDURE VALPTR
     22985**DCL     23021>>ASSIGN
E.D IN PROCEDURE VALPTR
     22988**DCL     23019>>ASSIGN
E.W IN PROCEDURE VALPTR
     22984**DCL     23016>>ASSIGN  23017<<ASSIGN  23017>>ASSIGN
ERRFMT IN PROCEDURE VALPTR
     22989**DCL     23014--CALL
E_DA_NO_CURCG
     21552**DCL     22853<>CALL
E_DA_NO_SETCG
     21558**DCL     22871<>CALL
F$CFU$
     19456**DCL     21611<<ASSIGN  21652<>CALL    21653<>CALL    21654<<ASSIGN  22279<>CALL    22280<>CALL
     22377<>CALL    22378<>CALL    22863<<ASSIGN  22912<<ASSIGN  22917<>CALL    22918<>CALL
FINDCG
     22900**PROC    22832--CALL
PL6.E3A0      #001=DAD$CGS File=DAD$CGS.:E05TSI                                  TUE 07/29/97 12:40 Page:333
FM$CFU.ACCTX
     16676**DCL     16676--REDEF   22282>>ASSIGN  22380>>ASSIGN  22920>>ASSIGN
FM$CFU.NAMEX
     16676**DCL     22285>>DOWHILE 22286>>ASSIGN  22288>>ASSIGN  22383>>DOWHILE 22384>>ASSIGN  22386>>ASSIGN
     22921>>DOWHILE 22922>>ASSIGN  22924>>ASSIGN
FM$CFUA.ACCT
     16681**DCL     22283>>ASSIGN  22381>>ASSIGN  22925>>IF
FM$CFUA.SETX
     16681**DCL     22284>>ASSIGN  22382>>ASSIGN
FM$CFUN.C
     16687**DCL     22290>>ASSIGN  22388>>ASSIGN  22925>>IF
FM$CFUN.L
     16687**DCL     16687--IMP-SIZ 22289>>ASSIGN  22290>>ASSIGN  22387>>ASSIGN  22388>>ASSIGN  22925>>IF
     22925>>IF
FM$CFUX.CFUT
     16690**DCL     22285>>DOWHILE 22383>>DOWHILE 22921>>DOWHILE
FM$SET.PSN
     16695**DCL     22284>>ASSIGN  22382>>ASSIGN
FM$SET.USERLIST
     16696**DCL     16696--REDEF
FM$SETA
     16700**DCL     22284--ASSIGN  22382--ASSIGN
FM$SETA.USERLIST
     16701**DCL     16701--REDEF
FNAME IN PROCEDURE DI1CG
     22253**DCL     22308--CALL
FNAME.C IN PROCEDURE DI1CG
     22255**DCL     22290<<ASSIGN  22297<<ASSIGN
FNAME.L IN PROCEDURE DI1CG
     22254**DCL     22289<<ASSIGN  22296<<ASSIGN
FNAME IN PROCEDURE DI1CGMEM
     22355**DCL     22406--CALL
FNAME.C IN PROCEDURE DI1CGMEM
     22357**DCL     22388<<ASSIGN  22395<<ASSIGN
FNAME.L IN PROCEDURE DI1CGMEM
     22356**DCL     22387<<ASSIGN  22394<<ASSIGN
PL6.E3A0      #001=DAD$CGS File=DAD$CGS.:E05TSI                                  TUE 07/29/97 12:40 Page:334
FPT_FID
     19661**DCL     22827<>CALL
FPT_FID.TEXTFID_
     19661**DCL     22826<<ASSIGN
FPT_FID.V
     19665**DCL     19661--DCLINIT
GARBFMT0
     20089**DCL     22681--CALL
GARBFMT1
     20091**DCL     22690--CALL
GARBFMT2
     20093**DCL     22699--CALL
GARBFMT3
     20095**DCL     22708--CALL
GARBFMT4
     20097**DCL     22717--CALL
GARBFMT5
     20099**DCL     22726--CALL
GARBFMT6
     20101**DCL     22735--CALL
GATE
     19463**DCL     22076<<ASSIGN  22077<>CALL
GETHDFMT
     20830**DCL     21930--ASSIGN
GOTCG IN PROCEDURE SETUP
     22877**LABEL   22867--GOTO
I
     19467**DCL     21849<<DOINDEX 21851>>ASSIGN  21966<<DOINDEX 21967>>CALL    21967>>CALL    21968>>ASSIGN
     21968>>ASSIGN  21970>>ASSIGN  21975<<ASSIGN  21980>>ASSIGN  21983<<ASSIGN  21983>>ASSIGN  21985--CALL
     22008<<ASSIGN  22020--CALL    22048<<DOINDEX 22058>>IF      22095>>IF      22101>>IF      22139<<DOINDEX
     22140>>ASSIGN  22141>>CALL    22141>>CALL    22143>>CALLBLT 22145>>ASSIGN  22146>>ASSIGN  22147>>ASSIGN
     22152<<ASSIGN  22157>>ASSIGN  22160<<ASSIGN  22160>>ASSIGN  22162--CALL
IOHDFMT
     20829**DCL     21925--ASSIGN
IOQHDFMT
     20828**DCL     21920--ASSIGN
PL6.E3A0      #001=DAD$CGS File=DAD$CGS.:E05TSI                                  TUE 07/29/97 12:40 Page:335
KQ$BTN.FLINK$
     16731**DCL     21971>>ASSIGN
KQ$BTN.KEY
     16733**DCL     21970--ASSIGN
KQ$CG.ADDFREE
     17312**DCL     22475>>ASSIGN
KQ$CG.AUCTL.DVBYTE.REREAD
     17194**DCL     17195--REDEF
KQ$CG.AUSTA$
     17161**DCL     22266>>ASSIGN
KQ$CG.AVAIL.HD$
     17382**DCL     22450<>CALL
KQ$CG.AVAIL.TL$
     17384**DCL     22458<>CALL
KQ$CG.CFU$
     17262**DCL     22265>>ASSIGN  22376>>ASSIGN  22916>>ASSIGN
KQ$CG.CURDATAPGS
     17371**DCL     22367>>ASSIGN  22471>>ASSIGN
KQ$CG.DATAFREE$
     17377**DCL     22468<>CALL
KQ$CG.DFRFREEHD$
     17316**DCL     21936>>ASSIGN  22470<>CALL
KQ$CG.DTREE.GATE
     17336**DCL     21957<>CALL
KQ$CG.DTREE.HEAD$
     17344**DCL     21959>>ASSIGN
KQ$CG.FREEDA
     17308**DCL     22481>>ASSIGN
KQ$CG.GARB.ACTCNT
     16911**DCL     22688>>ASSIGN
KQ$CG.GARB.CCCOUNT
     16956**DCL     22724>>ASSIGN
KQ$CG.GARB.CONERR
     16900**DCL     22710>>IF
KQ$CG.GARB.DBLK$
     16960**DCL     22723<>CALL
PL6.E3A0      #001=DAD$CGS File=DAD$CGS.:E05TSI                                  TUE 07/29/97 12:40 Page:336
KQ$CG.GARB.DELAY
     16886**DCL     22679>>ASSIGN
KQ$CG.GARB.DELJ
     16904**DCL     22728>>IF
KQ$CG.GARB.DMIP
     16893**DCL     22683>>IF
KQ$CG.GARB.INDX
     16913**DCL     22706>>ASSIGN
KQ$CG.GARB.INSRT
     16897**DCL     22701>>IF
KQ$CG.GARB.JNLD$
     16916**DCL     22732<>CALL
KQ$CG.GARB.MBLK$
     16928**DCL     22678<>CALL
KQ$CG.GARB.NCDDA
     16942**DCL     22689>>ASSIGN
KQ$CG.GARB.NCSTAMP
     16939**DCL     22680>>ASSIGN
KQ$CG.GARB.OMLH$
     16930**DCL     22687<>CALL
KQ$CG.GARB.PCSTAMP
     16953**DCL     22716>>ASSIGN
KQ$CG.GARB.RECYCLE
     16895**DCL     22692>>IF
KQ$CG.GARB.RELCNT
     16951**DCL     22715>>ASSIGN
KQ$CG.GARB.SCDDA
     16944**DCL     22707>>ASSIGN
KQ$CG.GARB.SCSTAMP
     16946**DCL     22698>>ASSIGN
KQ$CG.GARB.SPHD$
     16933**DCL     22696<>CALL
KQ$CG.GARB.SPLITCNT
     16937**DCL     22697>>ASSIGN
KQ$CG.GARB.SPSTATE
     16949**DCL     22725>>ASSIGN
PL6.E3A0      #001=DAD$CGS File=DAD$CGS.:E05TSI                                  TUE 07/29/97 12:40 Page:337
KQ$CG.GARB.SPTL$
     16935**DCL     22705<>CALL
KQ$CG.GARB.SQHD$
     16958**DCL     22714<>CALL
KQ$CG.GARB.SQIP
     16902**DCL     22719>>IF
KQ$CG.GARB.STA
     16890**DCL     22674>>IF
KQ$CG.GARB.TCOUNT
     16922**DCL     22733>>ASSIGN
KQ$CG.GARB.TYPE
     16908**DCL     22734>>ASSIGN
KQ$CG.GETFLG
     17306**DCL     22465>>ASSIGN
KQ$CG.GETHD$
     17461**DCL     21931>>ASSIGN  22449<>CALL
KQ$CG.GETTL$
     17464**DCL     22457<>CALL
KQ$CG.IOCNT
     17303**DCL     22464>>ASSIGN
KQ$CG.IOHD$
     17386**DCL     21926>>ASSIGN  22448<>CALL
KQ$CG.IOQHD$
     17466**DCL     21921>>ASSIGN  22469<>CALL
KQ$CG.IOQTL$
     17469**DCL     22476<>CALL
KQ$CG.IOTL$
     17389**DCL     22456<>CALL
KQ$CG.LNK$
     17115**DCL     21615>>ASSIGN  21658>>ASSIGN  22868>>ASSIGN  22928>>ASSIGN
KQ$CG.MAXDATAPGS
     17368**DCL     22365>>ASSIGN  22484>>ASSIGN
KQ$CG.MINDATAPGS
     17373**DCL     22366>>ASSIGN  22478>>ASSIGN
KQ$CG.MMD.BAPLOCK
     16788**DCL     22645>>ASSIGN
PL6.E3A0      #001=DAD$CGS File=DAD$CGS.:E05TSI                                  TUE 07/29/97 12:40 Page:338
KQ$CG.MMD.BASEREL$
     16795**DCL     22628<>CALL
KQ$CG.MMD.CURBPG
     16777**DCL     22364>>ASSIGN  22637>>ASSIGN
KQ$CG.MMD.CURPG
     16773**DCL     22368>>ASSIGN  22626>>ASSIGN
KQ$CG.MMD.CURPPG
     16804**DCL     22644>>ASSIGN
KQ$CG.MMD.DSB$
     16760**DCL     22260<>CALL    22261<>CALL    22877<>CALL    22878<>CALL
KQ$CG.MMD.FREE$
     16769**DCL     22643<>CALL
KQ$CG.MMD.FREECNT
     16775**DCL     22647>>ASSIGN
KQ$CG.MMD.GATE
     16762**DCL     22623<>CALL
KQ$CG.MMD.GIP
     16783**DCL     22629>>IF
KQ$CG.MMD.HEAD$
     16764**DCL     22625<>CALL
KQ$CG.MMD.MAXBPG
     16779**DCL     22362>>ASSIGN  22627>>ASSIGN
KQ$CG.MMD.MBLKHD$
     16801**DCL     22646<>CALL
KQ$CG.MMD.MINBPG
     16791**DCL     22363>>ASSIGN  22638>>ASSIGN
KQ$CG.MMD.PHEAD$
     16766**DCL     22636<>CALL
KQ$CG.MMD.STAHD$
     16798**DCL     22639<>CALL
KQ$CG.NDFRBLKS
     17300**DCL     22477>>ASSIGN
KQ$CG.NEEDPGCNT
     17402**DCL     22463>>ASSIGN
KQ$CG.NEEDPGHD$
     17391**DCL     21916>>ASSIGN  22447<>CALL
PL6.E3A0      #001=DAD$CGS File=DAD$CGS.:E05TSI                                  TUE 07/29/97 12:40 Page:339
KQ$CG.NEEDPGTL$
     17400**DCL     22455<>CALL
KQ$CG.NGAVAL
     17276**DCL     22008>>ASSIGN  22483>>ASSIGN
KQ$CG.QUEUE.BUSY.GIP
     17001**DCL     22770>>IF
KQ$CG.QUEUE.BUSY.RIP
     16999**DCL     22768>>IF
KQ$CG.QUEUE.DELAY$
     16988**DCL     22765>>ASSIGN
KQ$CG.QUEUE.GACT
     17004**DCL     22773>>IF
KQ$CG.QUEUE.MLH$
     17018**DCL     22785<>CALL
KQ$CG.QUEUE.PLHD$
     16984**DCL     22784<>CALL
KQ$CG.QUEUE.QTREE$
     16973**DCL     21798>>IF      21804>>ASSIGN  22184>>IF      22190<>CALL
KQ$CG.QUEUE.RQGC
     17008**DCL     22777>>IF
KQ$CG.QUEUE.RQMEM
     17006**DCL     22787>>IF
KQ$CG.QUEUE.RUSR#
     16993**DCL     22786>>ASSIGN
KQ$CG.QUEUE.WCRL$
     16976**DCL     22764<>CALL
KQ$CG.STATS.CCMQ
     17243**DCL     22020--CALL
KQ$CG.STATS.CCMS
     17243**DCL     22020--CALL
KQ$CG.STATS.DISCRDS
     17244**DCL     22020--CALL
KQ$CG.STATS.DISCWRS
     17244**DCL     22020--CALL
KQ$CG.STATS.GARBCOLLS
     17245**DCL     22020--CALL
PL6.E3A0      #001=DAD$CGS File=DAD$CGS.:E05TSI                                  TUE 07/29/97 12:40 Page:340
KQ$CG.STATS.GETS
     17243**DCL     22020--CALL
KQ$CG.STATS.NODFRS
     17245**DCL     22020--CALL
KQ$CG.STATS.NUMDCBS
     17244**DCL     22020--CALL    22264>>ASSIGN
KQ$CG.STATS.NUMTERMS
     17244**DCL     22020--CALL    22263>>ASSIGN
KQ$CG.STATS.PUTS
     17243**DCL     22020--CALL
KQ$CG.STATS.READS
     17243**DCL     22020--CALL
KQ$CG.STATS.WRDSUSED
     17245**DCL     22008>>ASSIGN  22020--CALL
KQ$CG.STATS.WRITES
     17243**DCL     22020--CALL
KQ$CG.STREE.GATE
     17085**DCL     22041<>CALL
KQ$CG.STREE.HEAD$
     17093**DCL     21798>>IF      21803>>ASSIGN  22043>>IF      22049>>ASSIGN
KQ$CG.TTREE.GATE
     17046**DCL     22130<>CALL
KQ$CG.TTREE.HEAD$
     17054**DCL     22132>>ASSIGN
KQ$CG.UGRANS
     17278**DCL     22008>>ASSIGN  22482>>ASSIGN
KQ$DFRBLK.ABORT
     17499**DCL     22573>>ASSIGN
KQ$DFRBLK.CODE
     17491**DCL     22563>>ASSIGN
KQ$DFRBLK.DA
     17508**DCL     22575>>IF      22577>>ASSIGN
KQ$DFRBLK.DBLK
     17512**DCL     22581>>IF      22583>>ASSIGN
KQ$DFRBLK.DBLK$
     17510**DCL     17512--REDEF
PL6.E3A0      #001=DAD$CGS File=DAD$CGS.:E05TSI                                  TUE 07/29/97 12:40 Page:341
KQ$DFRBLK.DDA
     17514**DCL     22578>>IF      22580>>ASSIGN
KQ$DFRBLK.DGRAN$
     17522**DCL     22584>>IF      22586<>CALL
KQ$DFRBLK.EPTR$
     17516**DCL     22564--ASSIGN
KQ$DFRBLK.ERRCODE
     17493**DCL     22590>>IF      22592>>ASSIGN
KQ$DFRBLK.EVNT
     17497**DCL     22572>>ASSIGN
KQ$DFRBLK.GFLG
     17501**DCL     22574>>ASSIGN
KQ$DFRBLK.GO
     17495**DCL     22571>>ASSIGN
KQ$DFRBLK.INFO
     17518**DCL     17520--REDEF   22593>>IF      22595>>ASSIGN
KQ$DFRBLK.LNK$
     17489**DCL     22597>>ASSIGN
KQ$DFRBLK.USR
     17506**DCL     22587>>IF      22589>>ASSIGN
KQ$DPTR.X
     17542**DCL     22514<<ASSIGN  22766<<ASSIGN
KQ$GRAN
     17566**DCL     21968--ASSIGN
KQ$MBLK.DDA
     17685**DCL     21860>>ASSIGN
KQ$MBLK.DVE.DVBYTE
     17720**DCL     21866>>ASSIGN
KQ$MBLK.DVE.EOMCHAR
     17722**DCL     17724--REDEF   21868>>ASSIGN
KQ$MBLK.DVE.VFC
     17724**DCL     21869>>CALLBLT
KQ$MBLK.KEY1
     17648**DCL     17650--REDEF   21854>>CALLBLT
KQ$MBLK.KEY2
     17657**DCL     17675--REDEF   21855>>CALLBLT
PL6.E3A0      #001=DAD$CGS File=DAD$CGS.:E05TSI                                  TUE 07/29/97 12:40 Page:342
KQ$MBLK.LNK$
     17622**DCL     17624--REDEF   17630--REDEF   17634--REDEF   21857>>IF      21893>>ASSIGN
KQ$MBLK.MID.PRIMARY
     17781**DCL     21870>>ASSIGN
KQ$MBLK.MID.XT
     17782**DCL     21871>>IF      21875>>ASSIGN
KQ$MBLK.MSGSIZE
     17783**DCL     21867>>ASSIGN
KQ$MBLK.PRIO
     17638**DCL     21856>>ASSIGN
KQ$MBLK.STAR
     17710**DCL     21865>>ASSIGN
KQ$MBLK.SUPER
     17701**DCL     21862>>IF
KQ$MBLK.TYC
     17771**DCL     17773--REDEF
KQ$MBLK.UTS
     17692**DCL     21861>>ASSIGN
KQ$MBLK.XSP.MREQ$
     17677**DCL     17681--REDEF
KQ$MLH.BUSY.GIP
     18182**DCL     22520>>IF
KQ$MLH.BUSY.RIP
     18180**DCL     22518>>IF
KQ$MLH.COUNT
     18208**DCL     22517>>ASSIGN
KQ$MLH.DELAY$
     18169**DCL     22513>>ASSIGN
KQ$MLH.GACT
     18187**DCL     22524>>IF
KQ$MLH.HEAD$
     18165**DCL     22511<>CALL
KQ$MLH.PCSTAMP
     18202**DCL     22525>>ASSIGN
KQ$MLH.QUEUE
     18184**DCL     22510>>ASSIGN
PL6.E3A0      #001=DAD$CGS File=DAD$CGS.:E05TSI                                  TUE 07/29/97 12:40 Page:343
KQ$MLH.RQGC
     18193**DCL     22526>>ASSIGN
KQ$MLH.RQMEM
     18191**DCL     22527>>ASSIGN
KQ$MLH.RUSR#
     18174**DCL     22523>>ASSIGN
KQ$MLH.SUPERCNT
     18206**DCL     22516>>ASSIGN
KQ$MLH.TAIL$
     18167**DCL     22512<>CALL
KQ$MMSD.CGHEAD$
     18235**DCL     21609>>ASSIGN  21651>>ASSIGN  22861>>ASSIGN  22910>>ASSIGN
KQ$MTYP.BTN.FLINK$
     18297**DCL     22148>>ASSIGN
KQ$MTYP.BTN.KEY
     18299**DCL     22143>>CALLBLT
KQ$MTYP.JOURNAL
     18307**DCL     22144>>IF
KQ$MTYP.MPRIO
     18303**DCL     22146>>ASSIGN
KQ$MTYP.NUMWRITES
     18321**DCL     22147>>ASSIGN
KQ$QTN.CNACT
     18684**DCL     22199>>ASSIGN
KQ$QTN.LOCKCNT
     18703**DCL     22201>>ASSIGN
KQ$QTN.MLH
     18745**DCL     21815--ASSIGN
KQ$QTN.MLH.COUNT
     18790**DCL     22202>>ASSIGN
KQ$QTN.MXACT
     18687**DCL     18689--REDEF
KQ$QTN.READS$
     18690**DCL     22200<>CALL
KQ$QTN.STA.ACTTYC
     18409**DCL     18413--REDEF
PL6.E3A0      #001=DAD$CGS File=DAD$CGS.:E05TSI                                  TUE 07/29/97 12:40 Page:344
KQ$QTN.STA.BTN.FLINK$
     18391**DCL     21818>>ASSIGN  22203>>ASSIGN
KQ$QTN.STA.BTN.KEY
     18393**DCL     22198>>CALLBLT
KQ$QTN.STA.DCBLNK$
     18416**DCL     18419--REDEF   18423--REDEF
KQ$QTN.STA.EVCNT
     18502**DCL     18505--REDEF
KQ$QTN.STA.EVNT
     18468**DCL     18472--REDEF   18475--REDEF
KQ$QTN.STA.OPNBLKED
     18529**DCL     18532--REDEF
KQ$QTN.STA.OPNREJ
     18535**DCL     18537--REDEF
KQ$QTN.STA.SUCCREAD
     18458**DCL     18462--REDEF
KQ$QTN.STA.TCOUNT
     18587**DCL     18593--REDEF
KQ$QTN.STA.VGOT$
     18572**DCL     18576--REDEF   18580--REDEF
KQ$RBLK.BUF$
     18936**DCL     18938--REDEF
KQ$RBLK.CNACTD
     18850**DCL     18859--REDEF
KQ$RBLK.DBLKX
     18956**DCL     18960--REDEF
KQ$RBLK.EOFNONE
     18828**DCL     18831--REDEF
KQ$RBLK.FROMQ
     18834**DCL     18837--REDEF
KQ$RBLK.KEY1R
     18875**DCL     18876--REDEF
KQ$RBLK.KEY2R
     18880**DCL     18881--REDEF
KQ$RBLK.LATCH
     18823**DCL     18825--REDEF
PL6.E3A0      #001=DAD$CGS File=DAD$CGS.:E05TSI                                  TUE 07/29/97 12:40 Page:345
KQ$RBLK.LWRITES$
     18967**DCL     18971--REDEF
KQ$RBLK.STATE
     18820**DCL     22071>>ASSIGN
KQ$SMBLK.COUNT
     18130**DCL     21887>>ASSIGN
KQ$SMBLK.INSHD$
     18109**DCL     21890<>CALL
KQ$SMBLK.KEY1
     17918**DCL     17920--REDEF
KQ$SMBLK.KEY1ALL
     18064**DCL     21885>>ASSIGN
KQ$SMBLK.KEY1VALID
     18077**DCL     21881>>IF
KQ$SMBLK.KEY2
     17927**DCL     17945--REDEF
KQ$SMBLK.KEY2ALL
     18067**DCL     21886>>ASSIGN
KQ$SMBLK.KEY2VALID
     18070**DCL     21883>>IF
KQ$SMBLK.LNK$
     17892**DCL     17894--REDEF   17900--REDEF   17904--REDEF
KQ$SMBLK.PRIOLO
     18104**DCL     21888>>ASSIGN
KQ$SMBLK.STA$
     18112**DCL     18115--REDEF   18119--REDEF
KQ$SMBLK.USR
     18083**DCL     18088--REDEF
KQ$SMBLK.UTSHI
     18106**DCL     21889>>ASSIGN
KQ$SMBLK.XSP.MREQ$
     17947**DCL     17951--REDEF
KQ$STA.ACTTYC
     19053**DCL     19057--REDEF
KQ$STA.BTN.FLINK$
     19035**DCL     21811>>ASSIGN  22056>>ASSIGN
PL6.E3A0      #001=DAD$CGS File=DAD$CGS.:E05TSI                                  TUE 07/29/97 12:40 Page:346
KQ$STA.BTN.KEY
     19037**DCL     22055>>CALLBLT 22269>>CALLBLT 22529>>CALLBLT
KQ$STA.DCBLNK$
     19060**DCL     19063--REDEF   19067--REDEF
KQ$STA.EVCNT
     19146**DCL     19149--REDEF
KQ$STA.EVNT
     19112**DCL     19116--REDEF   19119--REDEF
KQ$STA.GATE
     19079**DCL     22076>>ASSIGN
KQ$STA.IDSC
     19081**DCL     22061>>IF
KQ$STA.LOCKCNT
     19135**DCL     22060>>ASSIGN
KQ$STA.MLH
     19269**DCL     21808--ASSIGN
KQ$STA.MLH.COUNT
     19314**DCL     22066>>ASSIGN
KQ$STA.OPNBLKED
     19173**DCL     19176--REDEF
KQ$STA.OPNREJ
     19179**DCL     19181--REDEF
KQ$STA.RBLK$
     19044**DCL     22057>>ASSIGN
KQ$STA.READS
     19227**DCL     22067>>ASSIGN
KQ$STA.SUCCREAD
     19102**DCL     19106--REDEF
KQ$STA.TCOUNT
     19231**DCL     19237--REDEF
KQ$STA.TERM
     19097**DCL     22063>>IF
KQ$STA.USR#
     19132**DCL     22065>>ASSIGN
KQ$STA.VGOT$
     19216**DCL     19220--REDEF   19224--REDEF
PL6.E3A0      #001=DAD$CGS File=DAD$CGS.:E05TSI                                  TUE 07/29/97 12:40 Page:347
KQ$STA.WRITES
     19229**DCL     22068>>ASSIGN
KQ$THDR.HEAD$
     19352**DCL     21806>>ASSIGN  22191>>IF      22193>>ASSIGN
KQRS_XXXX
     21547**DCL     22071>>ASSIGN
LDTREE
     21966**LABEL   21987--GOTO
LTTREE
     22139**LABEL   22164--GOTO
M$FID
     10106**DCL-ENT 22827--CALL
M@AUSTA$ IN PROCEDURE DI1CG
     22245**DCL     22268<>CALL    22269>>CALLBLT
M@CG$
     19452**DCL     16751--IMP-PTR 21608<>CALL    21609>>ASSIGN  21615>>ASSIGN  21650<>CALL    21651>>ASSIGN
     21658>>ASSIGN  21798>>IF      21798>>IF      21803>>ASSIGN  21804>>ASSIGN  21916>>ASSIGN  21921>>ASSIGN
     21926>>ASSIGN  21931>>ASSIGN  21936>>ASSIGN  21957>>CALL    21959>>ASSIGN  22008>>ASSIGN  22008>>ASSIGN
     22008>>ASSIGN  22020>>CALL    22020>>CALL    22020>>CALL    22020>>CALL    22020>>CALL    22020>>CALL
     22020>>CALL    22020>>CALL    22020>>CALL    22020>>CALL    22020>>CALL    22020>>CALL    22020>>CALL
     22041>>CALL    22043>>IF      22049>>ASSIGN  22104<>CALL    22130>>CALL    22132>>ASSIGN  22184>>IF
     22190>>CALL    22259<>CALL    22260>>CALL    22261>>CALL    22263>>ASSIGN  22264>>ASSIGN  22265>>ASSIGN
     22266>>ASSIGN  22312<>CALL    22361<>CALL    22362>>ASSIGN  22363>>ASSIGN  22364>>ASSIGN  22365>>ASSIGN
     22366>>ASSIGN  22367>>ASSIGN  22368>>ASSIGN  22376>>ASSIGN  22409<>CALL    22447>>CALL    22448>>CALL
     22449>>CALL    22450>>CALL    22455>>CALL    22456>>CALL    22457>>CALL    22458>>CALL    22463>>ASSIGN
     22464>>ASSIGN  22465>>ASSIGN  22468>>CALL    22469>>CALL    22470>>CALL    22471>>ASSIGN  22475>>ASSIGN
     22476>>CALL    22477>>ASSIGN  22478>>ASSIGN  22481>>ASSIGN  22482>>ASSIGN  22483>>ASSIGN  22484>>ASSIGN
     22623>>CALL    22625>>CALL    22626>>ASSIGN  22627>>ASSIGN  22628>>CALL    22629>>IF      22636>>CALL
     22637>>ASSIGN  22638>>ASSIGN  22639>>CALL    22643>>CALL    22644>>ASSIGN  22645>>ASSIGN  22646>>CALL
     22647>>ASSIGN  22674>>IF      22678>>CALL    22679>>ASSIGN  22680>>ASSIGN  22683>>IF      22687>>CALL
     22688>>ASSIGN  22689>>ASSIGN  22692>>IF      22696>>CALL    22697>>ASSIGN  22698>>ASSIGN  22701>>IF
     22705>>CALL    22706>>ASSIGN  22707>>ASSIGN  22710>>IF      22714>>CALL    22715>>ASSIGN  22716>>ASSIGN
     22719>>IF      22723>>CALL    22724>>ASSIGN  22725>>ASSIGN  22728>>IF      22732>>CALL    22733>>ASSIGN
     22734>>ASSIGN  22764>>CALL    22765>>ASSIGN  22768>>IF      22770>>IF      22773>>IF      22777>>IF
     22784>>CALL    22785>>CALL    22786>>ASSIGN  22787>>IF      22860<>CALL    22861>>ASSIGN  22865<>CALL
     22868>>ASSIGN  22877>>CALL    22878>>CALL    22909<>CALL    22910>>ASSIGN  22915<>CALL    22916>>ASSIGN
PL6.E3A0      #001=DAD$CGS File=DAD$CGS.:E05TSI                                  TUE 07/29/97 12:40 Page:348
     22928>>ASSIGN
M@CUR$
     19469**DCL     21810<>CALL    21811>>ASSIGN  21817<>CALL    21818>>ASSIGN  21969<>CALL    21970>>ASSIGN
     21971>>ASSIGN  22054<>CALL    22055>>CALLBLT 22056>>ASSIGN  22057>>ASSIGN  22060>>ASSIGN  22061>>IF
     22063>>IF      22065>>ASSIGN  22066>>ASSIGN  22067>>ASSIGN  22068>>ASSIGN  22076>>ASSIGN  22142<>CALL
     22143>>CALLBLT 22144>>IF      22146>>ASSIGN  22147>>ASSIGN  22148>>ASSIGN  22197<>CALL    22198>>CALLBLT
     22199>>ASSIGN  22200>>CALL    22201>>ASSIGN  22202>>ASSIGN  22203>>ASSIGN  22528<>CALL    22529>>CALLBLT
M@DFR$
     19454**DCL     17488--IMP-PTR 22562<>CALL    22563>>ASSIGN  22564>>ASSIGN  22571>>ASSIGN  22572>>ASSIGN
     22573>>ASSIGN  22574>>ASSIGN  22575>>IF      22577>>ASSIGN  22578>>IF      22580>>ASSIGN  22581>>IF
     22583>>ASSIGN  22584>>IF      22586>>CALL    22587>>IF      22589>>ASSIGN  22590>>IF      22592>>ASSIGN
     22593>>IF      22595>>ASSIGN  22597>>ASSIGN
M@DSB$
     19455**DCL     22261<>CALL    22262>>ASSIGN  22878<>CALL    22879>>ASSIGN
M@F$CFU$
     19457**DCL     21610<>CALL    21653<>CALL    21654>>ASSIGN  22280<>CALL    22281>>ASSIGN  22282>>ASSIGN
     22284>>ASSIGN  22285>>DOWHILE 22286>>ASSIGN  22288>>ASSIGN  22378<>CALL    22379>>ASSIGN  22380>>ASSIGN
     22382>>ASSIGN  22383>>DOWHILE 22384>>ASSIGN  22386>>ASSIGN  22862<>CALL    22911<>CALL    22918<>CALL
     22919>>ASSIGN  22920>>ASSIGN  22921>>DOWHILE 22922>>ASSIGN  22924>>ASSIGN
M@MBLK$
     19459**DCL     17620--IMP-PTR 17890--IMP-PTR 21853<>CALL    21854>>CALLBLT 21855>>CALLBLT 21856>>ASSIGN
     21857>>IF      21860>>ASSIGN  21861>>ASSIGN  21862>>IF      21865>>ASSIGN  21866>>ASSIGN  21867>>ASSIGN
     21868>>ASSIGN  21869>>CALLBLT 21870>>ASSIGN  21871>>IF      21875>>ASSIGN  21881>>IF      21883>>IF
     21885>>ASSIGN  21886>>ASSIGN  21887>>ASSIGN  21888>>ASSIGN  21889>>ASSIGN  21890>>CALL    21893>>ASSIGN
M@MLH$
     19461**DCL     22508<>CALL    22510>>ASSIGN  22511>>CALL    22512>>CALL    22513>>ASSIGN  22516>>ASSIGN
     22517>>ASSIGN  22518>>IF      22520>>IF      22523>>ASSIGN  22524>>IF      22525>>ASSIGN  22526>>ASSIGN
     22527>>ASSIGN
M@TEMP$
     19465**DCL     21805<>CALL    21806>>ASSIGN  22070<>CALL    22071>>ASSIGN  22190<>CALL    22191>>IF
     22193>>ASSIGN
MAPERR IN PROCEDURE DI1CG
     22316**LABEL   22259--CALLALT 22261--CALLALT 22312--CALLALT
MAPERR IN PROCEDURE DI1CGMEM
     22413**LABEL   22361--CALLALT 22409--CALLALT
MAPERR IN PROCEDURE DIDFR
PL6.E3A0      #001=DAD$CGS File=DAD$CGS.:E05TSI                                  TUE 07/29/97 12:40 Page:349
     22596**LABEL   22562--CALLALT
MAXBP IN PROCEDURE DI1CGMEM
     22344**DCL     22362<<ASSIGN  22369>>ASSIGN  22406--CALL
MAXDP IN PROCEDURE DI1CGMEM
     22347**DCL     22365<<ASSIGN  22372>>ASSIGN  22406--CALL
MBLK$
     19458**DCL     21844<>CALL    21852<>CALL    21853<>CALL    21893<<ASSIGN
MBLKFMT
     20460**DCL     21877--CALL
MINBP IN PROCEDURE DI1CGMEM
     22345**DCL     22363<<ASSIGN  22370>>ASSIGN  22406--CALL
MINDP IN PROCEDURE DI1CGMEM
     22348**DCL     22366<<ASSIGN  22373>>ASSIGN  22406--CALL
MLH$
     19460**DCL     21808<<ASSIGN  21815<<ASSIGN  22507<>CALL    22508<>CALL
MLHD
     19470**DCL     22505<<ASSIGN  22530--CALL
MLHD.B
     19490**DCL     22519<<ASSIGN  22521<<ASSIGN  22522<<ASSIGN
MLHD.C
     19489**DCL     22517<<ASSIGN
MLHD.D.D
     19486**DCL     22515<>CALL
MLHD.D.N
     19487**DCL     22515<>CALL
MLHD.D.W
     19485**DCL     22515<>CALL
MLHD.G
     19492**DCL     22524<<ASSIGN
MLHD.H.D
     19478**DCL     22511<>CALL
MLHD.H.N
     19479**DCL     22511<>CALL
MLHD.H.W
     19477**DCL     22511<>CALL
MLHD.P
PL6.E3A0      #001=DAD$CGS File=DAD$CGS.:E05TSI                                  TUE 07/29/97 12:40 Page:350
     19493**DCL     22525<<ASSIGN
MLHD.Q
     19475**DCL     22510<<ASSIGN
MLHD.RQGC
     19494**DCL     22526<<ASSIGN
MLHD.RQMEM
     19495**DCL     22527<<ASSIGN
MLHD.RUSR
     19491**DCL     22523<<ASSIGN
MLHD.S
     19488**DCL     22516<<ASSIGN
MLHD.T.D
     19482**DCL     22512<>CALL
MLHD.T.N
     19483**DCL     22512<>CALL
MLHD.T.W
     19481**DCL     22512<>CALL
MLHD.X.D
     19473**DCL     22507<>CALL
MLHD.X.N
     19474**DCL     22506<<ASSIGN  22509<<ASSIGN  22529<<CALLBLT
MLHD.X.W
     19472**DCL     22507<>CALL
MLHERR IN PROCEDURE DIMLH
     22530**LABEL   22508--CALLALT 22528--CALLALT
MLHERR1
     21813**LABEL   21809--CALLALT 21810--CALLALT
MLHERR2
     21820**LABEL   21805--CALLALT 21816--CALLALT 21817--CALLALT
MLHFMT0
     20259**DCL     22530--CALL
MLHRPT
     20124**DCL     21797<>CALL
MLHRPTHD00
     20191**DCL     20159--DCLINIT
MLHRPTHD01
PL6.E3A0      #001=DAD$CGS File=DAD$CGS.:E05TSI                                  TUE 07/29/97 12:40 Page:351
     20234**DCL     20206--DCLINIT
MLHRPTTX00
     20167**DCL     20154--DCLINIT
MLHRPTTX01
     20209**DCL     20199--DCLINIT
MLHRPTTX02
     20252**DCL     20242--DCLINIT
MMDFMT0
     20081**DCL     22624--CALL
MMDFMT1
     20083**DCL     22635--CALL
MMDFMT2
     20085**DCL     22640--CALL
MMDFMT3
     20087**DCL     22650--CALL
MSGD
     19496**DCL     21850<<ASSIGN  21877--CALL    21891--CALL
MSGD.COUNT
     19510**DCL     21887<<ASSIGN
MSGD.DDA
     19518**DCL     21860<<ASSIGN
MSGD.DVBYTE
     19506**DCL     19507--REDEF   21866<<ASSIGN
MSGD.EV
     19512**DCL     19515--REDEF
MSGD.EV.EOM
     19513**DCL     21868<<ASSIGN
MSGD.EV.VFC
     19514**DCL     21869<<CALLBLT
MSGD.INSHDD
     19525**DCL     21890<>CALL
MSGD.INSHDN
     19526**DCL     21890<>CALL
MSGD.INSHDW
     19523**DCL     21890<>CALL
MSGD.KEY1
PL6.E3A0      #001=DAD$CGS File=DAD$CGS.:E05TSI                                  TUE 07/29/97 12:40 Page:352
     19502**DCL     21854<<CALLBLT 21882<<ASSIGN
MSGD.KEY1ALL
     19505**DCL     21885<<ASSIGN
MSGD.KEY2
     19503**DCL     21855<<CALLBLT 21884<<ASSIGN
MSGD.KEY2ALL
     19507**DCL     21886<<ASSIGN
MSGD.LNK
     19516**DCL     21858<<ASSIGN  21859<<ASSIGN
MSGD.MIDPRI
     19520**DCL     19521--REDEF   21870<<ASSIGN
MSGD.MIDXT
     19524**DCL     19525--REDEF   21875<<ASSIGN
MSGD.MIDXTN
     19522**DCL     19523--REDEF   21872<<ASSIGN  21874<<ASSIGN
MSGD.MSGSIZE
     19509**DCL     19510--REDEF   21867<<ASSIGN
MSGD.NUM
     19497**DCL     21851<<ASSIGN
MSGD.PRIO
     19511**DCL     21856<<ASSIGN
MSGD.PRIOLO
     19515**DCL     21888<<ASSIGN
MSGD.S
     19501**DCL     21864<<ASSIGN  21880<<ASSIGN
MSGD.STAR
     19504**DCL     19505--REDEF   21865<<ASSIGN
MSGD.UTS
     19519**DCL     21861<<ASSIGN
MSGD.UTSHI
     19521**DCL     21889<<ASSIGN
MSGD.X.D
     19500**DCL     21852<>CALL
MSGD.X.W
     19499**DCL     21852<>CALL
MSGLISTRPT
PL6.E3A0      #001=DAD$CGS File=DAD$CGS.:E05TSI                                  TUE 07/29/97 12:40 Page:353
     20282**DCL     21848<>CALL
MSGLISTRPTHD00
     20349**DCL     20317--DCLINIT
MSGLISTRPTHD01
     20392**DCL     20364--DCLINIT
MSGLISTRPTHD02
     20435**DCL     20407--DCLINIT
MSGLISTRPTTX00
     20325**DCL     20312--DCLINIT
MSGLISTRPTTX01
     20367**DCL     20357--DCLINIT
MSGLISTRPTTX02
     20410**DCL     20400--DCLINIT
MSGLISTRPTTX03
     20453**DCL     20443--DCLINIT
N IN PROCEDURE VALPTR
     22980**DCL     22962--PROC    22994--IF      22995<<ASSIGN  23007--IF      23008<<ASSIGN
NAM.C IN PROCEDURE DIDFR
     22555**DCL     22567>>ASSIGN
NAM.L IN PROCEDURE DIDFR
     22554**DCL     22555--IMP-SIZ 22567>>ASSIGN
NEEDPGHDFMT
     20827**DCL     21915--ASSIGN
NEXT IN PROCEDURE FINDCG
     22928**LABEL   22914--CALLALT 22915--CALLALT 22917--CALLALT 22918--CALLALT
NOCFU IN PROCEDURE DI1CG
     22293**LABEL   22279--CALLALT 22280--CALLALT
NOCFU IN PROCEDURE DI1CGMEM
     22391**LABEL   22377--CALLALT 22378--CALLALT
NOCG IN PROCEDURE SETUP
     22871**LABEL   22832--CALLALT 22877--CALLALT
NOSEE IN PROCEDURE DI1CG
     22276**LABEL   22268--CALLALT
NOSTA IN PROCEDURE DI1CG
     22272**LABEL   22267--CALLALT
NOTHINGFMT
PL6.E3A0      #001=DAD$CGS File=DAD$CGS.:E05TSI                                  TUE 07/29/97 12:40 Page:354
     21542**DCL     21800--CALL    21962--CALL    22045--CALL    22135--CALL    22187--CALL
OUT$BLK
     19370**DCL     21844<>CALL    21846<>CALL    22836<>CALL
OUT$BLK.NDTYPE
     19373**DCL     22823>>IF
OUT$SYM.COUNT
     19439**DCL     19442--IMP-SIZ 22824>>ASSIGN  22825>>ASSIGN
OUT$SYM.TEXT
     19442**DCL     22824>>ASSIGN
P.B IN PROCEDURE VALPTR
     22968**DCL     23009>>IF      23034>>ASSIGN
P.C IN PROCEDURE VALPTR
     22967**DCL     23009>>IF      23032>>ASSIGN
P.D IN PROCEDURE VALPTR
     22970**DCL     23009>>IF      23030>>ASSIGN
P.S IN PROCEDURE VALPTR
     22969**DCL     23009>>IF      23009>>IF
P.W IN PROCEDURE VALPTR
     22966**DCL     23028>>ASSIGN
P$ IN PROCEDURE DIDFR
     22551**DCL     22565<>CALL    22566<<ASSIGN  22566>>ASSIGN  22567>>ASSIGN  22567>>ASSIGN
PS0
     19676**DCL     19677--REDEF
PS0$
     19677**DCL     22584>>IF
PSN IN PROCEDURE DI1CG
     22252**DCL     22284<<ASSIGN  22294<<ASSIGN  22308--CALL
PSN IN PROCEDURE DI1CGMEM
     22354**DCL     22382<<ASSIGN  22392<<ASSIGN  22406--CALL
PTR$ IN PROCEDURE VALPTR
     22964**DCL     22962--PROC    22965--REDEF   22992>>IF      23014--CALL
PTR$WORD
     16668**DCL     21654>>ASSIGN
QTD
     19585**DCL     22195<<ASSIGN  22211--CALL
QTD.A
PL6.E3A0      #001=DAD$CGS File=DAD$CGS.:E05TSI                                  TUE 07/29/97 12:40 Page:355
     19589**DCL     22199<<ASSIGN
QTD.C
     19594**DCL     22202<<ASSIGN
QTD.D
     19587**DCL     22196<>CALL
QTD.L
     19593**DCL     22201<<ASSIGN
QTD.N
     19588**DCL     22198<<CALLBLT 22208<<ASSIGN
QTD.RD
     19591**DCL     22200<>CALL
QTD.RN
     19592**DCL     22200<>CALL
QTD.RW
     19590**DCL     22200<>CALL
QTD.W
     19586**DCL     22196<>CALL
QTDERR0
     22215**LABEL   22190--CALLALT
QTDERR1
     22206**LABEL   22197--CALLALT
QTDERR2
     22208**LABEL   22196--CALLALT
QTDERR3
     22186**LABEL   22192--GOTO
QTREEFMT
     21538**DCL     22211--CALL
QTREEHD$
     19462**DCL     21806<<ASSIGN  21813>>ASSIGN
QTREERPT
     21403**DCL     22183<>CALL
QTREERPTHD00
     21470**DCL     21438--DCLINIT
QTREERPTHD01
     21513**DCL     21485--DCLINIT
QTREERPTTX00
PL6.E3A0      #001=DAD$CGS File=DAD$CGS.:E05TSI                                  TUE 07/29/97 12:40 Page:356
     21446**DCL     21433--DCLINIT
QTREERPTTX01
     21488**DCL     21478--DCLINIT
QTREERPTTX02
     21531**DCL     21521--DCLINIT
QUEUEFMT0
     20103**DCL     22783--CALL
QUEUEFMT1
     20105**DCL     22790--CALL
R
     19595**DCL     22052<<ASSIGN  22098--CALL
R.D
     19597**DCL     22075<>CALL
R.N
     19598**DCL     22075<>CALL
R.W
     19596**DCL     22075<>CALL
RET IN PROCEDURE DIDFR
     22599**LABEL   22557--CALLALT 22561--CALLALT
RETN
     21624**LABEL   21614--CALLALT 21688--CALLALT 21694--CALLALT 21695--CALLALT 21696--CALLALT 21697--CALLALT
     21698--CALLALT 21716--CALLALT 21718--CALLALT 21736--CALLALT 21738--CALLALT 21756--CALLALT 21758--CALLALT
     21776--CALLALT 21778--CALLALT 21796--CALLALT 21843--CALLALT 21844--CALLALT 21846--CALLALT 21852--CALLALT
     21853--CALLALT 21912--CALLALT 21955--CALLALT 22006--CALLALT 22039--CALLALT 22128--CALLALT 22182--CALLALT
RETN IN PROCEDURE DI1CG
     22322**LABEL   22260--CALLALT
RETNMEM
     21662**LABEL   21657--CALLALT
SETUP
     22817**PROC    21688--CALL    21716--CALL    21736--CALL    21756--CALL    21776--CALL    21796--CALL
     21912--CALL    21955--CALL    22006--CALL    22039--CALL    22128--CALL    22182--CALL
SETUPCUR IN PROCEDURE SETUP
     22841**ENTRY   21843--CALL    21919--CALL    21924--CALL    21929--CALL    21934--CALL
SMBLKFMT
     20464**DCL     21891--CALL
STA IN PROCEDURE DI1CG
PL6.E3A0      #001=DAD$CGS File=DAD$CGS.:E05TSI                                  TUE 07/29/97 12:40 Page:357
     22248**DCL     22269<<CALLBLT 22272<<ASSIGN  22277<<ASSIGN  22308--CALL
STARTBL
     19675**DCL     21865>>ASSIGN  21885>>ASSIGN  21886>>ASSIGN  22571>>ASSIGN  22572>>ASSIGN  22573>>ASSIGN
     22574>>ASSIGN
STD
     19572**DCL     22051<<ASSIGN  22096--CALL
STD.C
     19582**DCL     22066<<ASSIGN
STD.E
     19584**DCL     22068<<ASSIGN
STD.I
     19579**DCL     22062<<ASSIGN
STD.L
     19578**DCL     22060<<ASSIGN
STD.R
     19583**DCL     22067<<ASSIGN
STD.S
     19577**DCL     22071<<ASSIGN  22084<<ASSIGN  22089<<ASSIGN
STD.T
     19580**DCL     22064<<ASSIGN
STD.U
     19581**DCL     22065<<ASSIGN
STD.X
     19573**DCL     22098--CALL
STD.X.D
     19575**DCL     22053<>CALL
STD.X.N
     19576**DCL     22055<<CALLBLT 22081<<ASSIGN
STD.X.W
     19574**DCL     22053<>CALL
STDERR0
     22081**LABEL   22054--CALLALT
STDERR1
     22084**LABEL   22070--CALLALT
STDERR2
     22089**LABEL   22069--CALLALT
PL6.E3A0      #001=DAD$CGS File=DAD$CGS.:E05TSI                                  TUE 07/29/97 12:40 Page:358
STDERR3
     22093**LABEL   22053--CALLALT
STDERR4
     22109**LABEL   22104--CALLALT
STGFMT
     21544**DCL     22042--CALL
STREEFMT0
     20985**DCL     22096--CALL
STREEFMT1
     20987**DCL     22098--CALL
STREERPT
     20850**DCL     22040<>CALL
STREERPTHD00
     20917**DCL     20885--DCLINIT
STREERPTHD01
     20960**DCL     20932--DCLINIT
STREERPTTX00
     20893**DCL     20880--DCLINIT
STREERPTTX01
     20935**DCL     20925--DCLINIT
STREERPTTX02
     20978**DCL     20968--DCLINIT
TCURBP
     19601**DCL     21644<<ASSIGN  21663--CALL    22371<<ASSIGN  22371>>ASSIGN
TCURDP
     19604**DCL     21647<<ASSIGN  21663--CALL    22374<<ASSIGN  22374>>ASSIGN
TCURPG
     19605**DCL     21648<<ASSIGN  21663--CALL    22375<<ASSIGN  22375>>ASSIGN
TEMP$
     19464**DCL     21804<<ASSIGN  21805<>CALL    22057<<ASSIGN  22069<>CALL    22070<>CALL    22075<>CALL
     22513<<ASSIGN  22514--ASSIGN  22515<>CALL    22765<<ASSIGN  22766--ASSIGN  22767<>CALL
TERMS IN PROCEDURE DI1CG
     22246**DCL     22263<<ASSIGN  22308--CALL
TEXTCFMT
     21540**DCL     21692--CALL    21693--CALL
TEXTFID
PL6.E3A0      #001=DAD$CGS File=DAD$CGS.:E05TSI                                  TUE 07/29/97 12:40 Page:359
     19607**DCL     22824<<ASSIGN  22826--ASSIGN
TEXTFIDL
     19608**DCL     22825<<ASSIGN  22826>>ASSIGN
TFID_ACCT
     19647**DCL     19662--DCLINIT
TFID_ACCT.ACCT#
     19647**DCL     22831>>IF      22831<<ASSIGN  22925>>IF
TFID_ASN
     19649**DCL     19664--DCLINIT
TFID_NAME
     19634**DCL     19662--DCLINIT
TFID_NAME.L#
     19634**DCL     22925>>IF
TFID_NAME.NAME#
     19634**DCL     22925>>IF
TMAXBP
     19599**DCL     21642<<ASSIGN  21663--CALL    22369<<ASSIGN  22369>>ASSIGN
TMAXDP
     19602**DCL     21645<<ASSIGN  21663--CALL    22372<<ASSIGN  22372>>ASSIGN
TMINBP
     19600**DCL     21643<<ASSIGN  21663--CALL    22370<<ASSIGN  22370>>ASSIGN
TMINDP
     19603**DCL     21646<<ASSIGN  21663--CALL    22373<<ASSIGN  22373>>ASSIGN
TOP
     16545**DCL        29--PROC    21640--ENTRY   21686--ENTRY   21714--ENTRY   21734--ENTRY   21754--ENTRY
     21774--ENTRY   21794--ENTRY   21841--ENTRY   21910--ENTRY   21953--ENTRY   22003--ENTRY   22037--ENTRY
     22126--ENTRY   22180--ENTRY
TOP.NSUBLKS
     16557**DCL     21689>>IF      21845>>IF      22822>>IF
TOP.SUBLK$
     16578**DCL     21844>>CALL    21846>>CALL    22823>>IF      22824>>ASSIGN  22824>>ASSIGN  22825>>ASSIGN
     22836>>CALL
TTD
     19565**DCL     22140<<ASSIGN  22162--CALL
TTD.D
     19567**DCL     22141<>CALL
PL6.E3A0      #001=DAD$CGS File=DAD$CGS.:E05TSI                                  TUE 07/29/97 12:40 Page:360
TTD.J
     19570**DCL     22145<<ASSIGN
TTD.M
     19568**DCL     22143<<CALLBLT 22157<<ASSIGN
TTD.N
     19569**DCL     22147<<ASSIGN
TTD.P
     19571**DCL     22146<<ASSIGN
TTD.W
     19566**DCL     22141<>CALL
TTGFMT
     21545**DCL     22131--CALL
TTO
     22160**LABEL   22150--GOTO
TTOERR0
     22155**LABEL   22142--CALLALT
TTOERR1
     22157**LABEL   22141--CALLALT
TTREEFMT
     21383**DCL     22162--CALL
TTREERPT
     21248**DCL     22129<>CALL
TTREERPTHD00
     21315**DCL     21283--DCLINIT
TTREERPTHD01
     21358**DCL     21330--DCLINIT
TTREERPTTX00
     21291**DCL     21278--DCLINIT
TTREERPTTX01
     21333**DCL     21323--DCLINIT
TTREERPTTX02
     21376**DCL     21366--DCLINIT
UBIN$HALF IN PROCEDURE DIDFR
     22552**DCL     22564>>ASSIGN
V.D IN PROCEDURE VALPTR
     22977**DCL     23009>>IF
PL6.E3A0      #001=DAD$CGS File=DAD$CGS.:E05TSI                                  TUE 07/29/97 12:40 Page:361
V.S IN PROCEDURE VALPTR
     22976**DCL     23009>>IF
VALPTR
     22962**PROC    21852--CALL    21890--CALL    21967--CALL    22053--CALL    22069--CALL    22075--CALL
     22141--CALL    22196--CALL    22200--CALL    22258--CALL    22260--CALL    22267--CALL    22279--CALL
     22360--CALL    22377--CALL    22447--CALL    22448--CALL    22449--CALL    22450--CALL    22455--CALL
     22456--CALL    22457--CALL    22458--CALL    22468--CALL    22469--CALL    22470--CALL    22476--CALL
     22507--CALL    22511--CALL    22512--CALL    22515--CALL    22557--CALL    22561--CALL    22586--CALL
     22625--CALL    22628--CALL    22636--CALL    22639--CALL    22643--CALL    22646--CALL    22678--CALL
     22687--CALL    22696--CALL    22705--CALL    22714--CALL    22723--CALL    22732--CALL    22764--CALL
     22767--CALL    22784--CALL    22785--CALL    22877--CALL    22914--CALL    22917--CALL
VPTR$ IN PROCEDURE VALPTR
     22971**DCL     22962--PROC    22972--REDEF
W IN PROCEDURE VALPTR
     22979**DCL     22962--PROC    22996--IF      22997<<ASSIGN  23015--IF      23016<<ASSIGN  23027--IF
     23028<<ASSIGN
