PL6.E3A0      #001=DAD$DCT File=DAD$DCT.:E05TSI                                  TUE 07/29/97 12:42 Page:1
        1        1        /*M* DAD$DCT - DCT, DQH, IOQ, RAT, CPU and DDT displays for ANLZ */
        2        2        /*T***********************************************************/
        3        3        /*T*                                                         */
        4        4        /*T* Copyright (c) Bull HN Information Systems Inc., 1997    */
        5        5        /*T*                                                         */
        6        6        /*T***********************************************************/
        7        7        /*X* PLM=3,IND=5,ENU=0,ECU=0  */
        8        8
        9        9        DAD$DCT: PROC(TOP);
       10       10
       11       11        %INCLUDE XU_MACRO_C;
       12     3117        %PARSE$OUT (NAME=TOP,STCLASS="");
       13     3162        /**/
       14     3163    1   DCL DAA$VALUE ENTRY(3) ALTRET;
       15     3164    1   DCL DAA$LOC ENTRY(2) ALTRET;
       16     3165    1   DCL DAA$WILDCOMP ENTRY(3) ALTRET;
       17     3166    1   DCL DAB$GATE ENTRY(1);
       18     3167    1   DCL DAS$SDMONPTR ENTRY(2) ALTRET;
       19     3168    1   DCL DAS$IC2ED ENTRY(2) ALTRET;
       20     3169    1   DCL DAM$MAP ENTRY(5) ALTRET;
       21     3170    1   DCL DAF$WRITE EPTR SYMREF;
       22     3171    1   DCL DAF$INIT ENTRY(1) ALTRET;
       23     3172    1   DCL DAF$NEWPAGE ENTRY;
       24     3173        /**/
       25     3174        %INCLUDE B$OBJECT_C;
       26     6604        %INCLUDE B$TABLES_C;
       27     6712        %INCLUDE CP_6_SUBS;
       28     7252        %INCLUDE DA_ANLZ_R;
       29     7265        %INCLUDE DA_MAP_R;
       30     7295        %INCLUDE DA_SYMBOLS_R;
       31     7308        %INCLUDE DA_TEXTC_C;
       32     7339        %INCLUDE DA_PERR_C;
       33     7403        %INCLUDE DA_FORMAT_C;
       34     7645        %INCLUDE DA_CMD_C;
       35     7994        %INCLUDE NI$TABLES;
       36     8210        %INCLUDE NI_DATA_C;
       37     8323        %INCLUDE DA_MONSYM_C;
PL6.E3A0      #001=DAD$DCT File=DAD$DCT.:E05TSI                                  TUE 07/29/97 12:42 Page:2
       38     8374        %INCLUDE NK$LDCT;
       39     8476        %INCLUDE N$REQ;
       40     8550        %INCLUDE FR$RAT;
       41     8603        %MACRO FT$DDT(BASED=BASED);
       42     8604        %INCLUDE FT$DDT;
       43     8665        %MEND;
       44     8666        %INCLUDE FT_SUBS;
       45     8746        %INCLUDE IT_SUBS_C;
       46     9013        /**/
       47     9014    1   DCL B$DS8$ PTR SYMREF;
       48     9015        /**/
       49     9016    1   DCL B$PS$(0:0) PTR SYMREF;
       50     9017        /**/
       51     9018    1   DCL DCT$$ PTR;
       52     9019    1   DCL HD$$ PTR;
       53     9020    1   DCL DCT$ PTR;
       54     9021    1   DCL DQH$ PTR;
       55     9022    1   DCL SQH$ PTR;
       56     9023    1   DCL SQHS$(0:56) PTR;
       57     9024    1   DCL NSQHS SBIN;
       58     9025    1   DCL NEXT_DCT SBIN;
       59     9026    1   DCL IOM$ PTR;
       60     9027    1   DCL IOM# UBIN;
       61     9028    1   DCL ADDRESS UBIN;
       62     9029    1   DCL LASTCON UBIN;
       63     9030    1   DCL NEXTF UBIN;
       64     9031    1   DCL NEXTS UBIN;
       65     9032    1   DCL CHT$ PTR;
       66     9033    1   DCL RAT$ PTR;
       67     9034    1   DCL DDT$ PTR;
       68     9035    1   DCL IOQ$ PTR;
       69     9036    1   DCL Q$ PTR;
       70     9037    1   DCL IOF SBIN;
       71     9038    1   DCL OPF SBIN;
       72     9039    1   DCL FC SBIN;
       73     9040    1   DCL IOS$ PTR;
       74     9041    1   DCL MPSTATE$ PTR;
PL6.E3A0      #001=DAD$DCT File=DAD$DCT.:E05TSI                                  TUE 07/29/97 12:42 Page:3
       75     9042    1   DCL PORTNR$ PTR;
       76     9043    1   DCL NSCPU$ PTR;
       77     9044    1   DCL PCU$ PTR;
       78     9045    1   DCL MPS CHAR(20);
       79     9046    1   DCL P$ PTR;
       80     9047    1   DCL NDCT SBIN;
       81     9048    1   DCL CMD SBIN;
       82     9049        %EQU DCTCMD=1;
       83     9050        %EQU LDCTCMD=2;
       84     9051        %EQU MDCTCMD=3;
       85     9052    1   DCL DCTXHI SBIN;
       86     9053    1   DCL DCTXLO SBIN;
       87     9054    1   DCL MXLOCAL SBIN;
       88     9055    1   DCL MXTOTAL SBIN;
       89     9056    1   DCL IOMS SBIN;
       90     9057    1   DCL I SBIN;
       91     9058    1   DCL J SBIN;
       92     9059    1   DCL K SBIN;
       93     9060    1   DCL DMN UBIN;
       94     9061
       95     9062    1   DCL LDCT_TYPE UBIN /* 0-Formatted lines    1-Display all fields*/;
       96     9063    1   DCL PASS UBIN;                          /*which line to print*/
       97     9064    1   DCL MAX_PASS UBIN;
       98     9065    1   DCL HEADER1 UBIN;
       99     9066    1   DCL HEADER2 UBIN;
      100     9067    1   DCL HEADER3 UBIN;
      101     9068    1   DCL HEADER4 UBIN;
      102     9069    1   DCL HEADER5 UBIN;
      103     9070
      104     9071
      105     9072    1   DCL DCTX SBIN;
      106     9073    1   DCL DEVNM CHAR(8);
      107     9074    1   DCL FL SBIN;
      108     9075    1   DCL SQ SBIN;
      109     9076    1   DCL DFLG SBIN;
      110     9077    1   DCL DCTADR$ PTR;
      111     9078    1   DCL 1 IOCHAN,
PL6.E3A0      #001=DAD$DCT File=DAD$DCT.:E05TSI                                  TUE 07/29/97 12:42 Page:4
      112     9079    1         2 IOM SBIN,
      113     9080    1         2 CHAN SBIN,
      114     9081    1         2 DVN SBIN;
      115     9082    1   DCL 1 DQHFL ALIGNED,
      116     9083    1         2 IOM SBIN,
      117     9084    1         2 CHAN SBIN;
      118     9085    1   DCL STATE CHAR(5);
      119     9086    1   DCL TDUSER SBIN;
      120     9087    1   DCL MSG CHAR(3);
      121     9088    1   DCL 1 STATUS,
      122     9089    1         2 DOWN CHAR(4),
      123     9090    1         2 TND CHAR(3);
      124     9091    1   DCL 1 DQCHAN ALIGNED,
      125     9092    1         2 IOM SBIN,
      126     9093    1         2 CHAN SBIN;
      127     9094    1   DCL LOSTINT SBIN;
      128     9095    1   DCL STOP CHAR(3);
      129     9096    1   DCL MREC CHAR(3);
      130     9097    1   DCL RESCOD CHAR(9);
      131     9098    1   DCL LDCT_GEN SBIN;
      132     9099    1   DCL NOCGR CHAR(4);
      133     9100    1   DCL NOCGI CHAR(4);
      134     9101    1   DCL ACCTNG CHAR(4);
      135     9102    1   DCL BDM_CHAR CHAR(3);
      136     9103    1   DCL BDM_CHAR_R(0:2) REDEF BDM_CHAR CHAR(1);
      137     9104    1   DCL 1 L_LOCK,
      138     9105    1         2 W1 BIT(36),
      139     9106    1         2 W2 BIT(36);
      140     9107    1   DCL LKFLG SBIN;
      141     9108    1   DCL QFL SBIN;
      142     9109    1   DCL RDSOUT SBIN;
      143     9110    1   DCL TTYP SBIN;
      144     9111    1   DCL CURTH SBIN;
      145     9112    1   DCL MAXTH SBIN;
      146     9113    1   DCL CLDQ SBIN;
      147     9114    1   DCL RDCT SBIN;
      148     9115    1   DCL GATE$ PTR;
PL6.E3A0      #001=DAD$DCT File=DAD$DCT.:E05TSI                                  TUE 07/29/97 12:42 Page:5
      149     9116    1   DCL G$ PTR;
      150     9117    1   DCL GATE BIT(72) BASED DALIGNED;
      151     9118    1   DCL 1 B$LOCK BASED ALIGNED,
      152     9119    1         2 W1 BIT(36) ALIGNED,
      153     9120    1         2 W2 BIT(36) ALIGNED;
      154     9121
      155     9122    1   DCL DRZERO UBIN;
      156     9123    1   DCL LOCK CHAR(4);
      157     9124    1   DCL MDCTX SBIN;
      158     9125    1   DCL MIR CHAR(3);
      159     9126    1   DCL LQ$ PTR;
      160     9127    1   DCL UTS UBIN;
      161     9128    1   DCL GATFMT CHAR(0) CONSTANT INIT('GATE=(%T%S)');
      162     9129        /**/
      163     9130    1   DCL SBINWORD SBIN BASED;
      164     9131    1   DCL UBINHALF UBIN HALF HALIGNED BASED;
      165     9132    1   DCL UARAY(0:0) UBIN BASED;
      166     9133    1   DCL PTR$ PTR BASED;
      167     9134    1   DCL PTRS$(0:0) PTR BASED;
      168     9135    1   DCL N$DCT$(0:0) PTR BASED(DCT$$);
      169     9136    1   DCL HD$(0:0) PTR BASED(HD$$);
      170     9137        %NI$DCT (NAME=DCT,STCLASS="BASED(DCT$)");
      171     9185        %NI$DQH (NAME=DQH,STCLASS="BASED(DQH$)");
      172     9208        %NI$CHT (NAME="CHT(0:0)",STCLASS="BASED(CHT$)");
      173     9211        %NI$SQH (NAME="SQH",STCLASS="BASED(SQH$)");
      174     9224        %NI$IOM (NAME="IOM",STCLASS="BASED(IOM$)");
      175     9229        %NK$LDCT (NAME=LDCT,STCLASS="BASED(DCT$)");
      176     9275        %N$REQ;
      177     9333        %FR$RAT (NAME=FR$RAT,STCLASS="BASED(RAT$)");
      178     9373        %FT$DDT (BASED="BASED(DDT$)");
      179     9435    1   DCL 1 P BASED ALIGNED,
      180     9436    1         2 WA UBIN(18) UNAL,
      181     9437    1         2 CA UBIN(2) UNAL,
      182     9438    1         2 BA UBIN(4) UNAL,
      183     9439    1         2 SID,
      184     9440    1           3 S UBIN(2) UNAL,
      185     9441    1           3 D UBIN(10) UNAL;
PL6.E3A0      #001=DAD$DCT File=DAD$DCT.:E05TSI                                  TUE 07/29/97 12:42 Page:6
      186     9442        %PARSE$OUT (NAME=OUT,STCLASS=BASED);
      187     9487        %PARSE$SYM (NAME=SYM,STCLASS=BASED);
      188     9525        /**/
      189     9526        %B$XL_ASC_DUMP (NAME=DA_PRINTABLE_TBL);
      190     9530        /**/
      191     9531        %B$EDEF (NAME=B$EDEF,STCLASS="BASED(EDEF$)");
      192     9601    1   DCL EDEF$ PTR;
      193     9602    1   DCL TH$ PTR;
      194     9603    1   DCL 1 TH BASED(TH$),
      195     9604    1         2 L UBIN HALF HALIGNED,
      196     9605    1         2 C CHAR(TH.L);
      197     9606    1   DCL 1 BLANKNAME CONSTANT,
      198     9607    1         2 * UBIN HALF HALIGNED INIT(2),
      199     9608    1         2 * CHAR(2) INIT('  ');
      200     9609    1   DCL IC UBIN;
      201     9610        /**/
      202     9611    1   DCL NOYES(0:1) CHAR(3) CONSTANT INIT('NO','YES');
      203     9612    1   DCL TDTST(0:5) CHAR(3) CONSTANT INIT(' ','PLT','ITR','MDR','MTR','FEP');
      204     9613    1   DCL IOSTATE(0:7) CHAR(5) CONSTANT INIT('IDLE','RQSTD','ASSGN','SPWT',
      205     9614    1                                          'KIWT','BUSY','SUSP','MPCWT');
      206     9615
      207     9616        %NK_RESCOD_TXT;
      208     9632
      209     9633        %REPORT (TITLE='DCT - Device Control Tables',NAME=DCTRPT,
      210     9634                 TABDFLT=5,
      211     9635                 TRUNC=YES,
      212     9636                 HEADER=YES);
      213     9702        %HEADER (LAST=NO,TEXT=
      214     9703        'DCTX DEVNAME  FL  SQ      DFLG    I-CCC-DD STATE MSG PART TND TDU DCTADR      ');
      215     9745        %HEADER (TEXT=
      216     9746        '---- -------- --- ------- ------- -------- ----- --- ---- --- --- ------------');
      217     9788    1   DCL DCTFMT CHAR(0) CONSTANT INIT(
      218     9789    1   '%4D %A %3D .%6ZO .%6ZO %1D-%3ZD-%2ZD %A %A %4A %3A %3ZO %12ZO');
      219     9790
      220     9791        %REPORT (TITLE='MDCT - Mirror Device Control Tables',NAME=MDCTRPT,
      221     9792                 TABDFLT=5,
      222     9793                 TRUNC=YES,
PL6.E3A0      #001=DAD$DCT File=DAD$DCT.:E05TSI                                  TUE 07/29/97 12:42 Page:7
      223     9794                 HEADER=YES);
      224     9860        %HEADER (LAST=NO,TEXT=
      225     9861        'DCTX DEVNAME  MIR MDCTX STATE UTS             LOCK U#  LQ$          DRZERO ');
      226     9903        %HEADER (TEXT=
      227     9904        '---- -------- --- ----- ----- --------------- ---- --- ------------ --------');
      228     9946    1   DCL MDCTFMT CHAR(0) CONSTANT INIT(
      229     9947    1   '%4D %8A %3A %5D %5A %15..3.10U %4A %3ZO %12ZO %8D');
      230     9948
      231     9949        %REPORT (TITLE='LDCT - Logical Device Control Tables',NAME=LDCTRPT_NHDR,
      232     9950                 TRUNC=NO,HEADER=NO);
      233    10016
      234    10017        %REPORT (TITLE='LDCT - Logical Device Control Tables',NAME=LDCTRPT,
      235    10018                 TRUNC=NO,
      236    10019                 HEADER=YES);
      237    10085
      238    10086
      239    10087        %HEADER (LAST=NO, TEXT=
      240    10088        '  #  DEVNAME  RESCODE   LDCT$        USER GEN  RLCID       DFLG    LKFLG    QFLG');
      241    10130
      242    10131        %HEADER (TEXT=
      243    10132        '---- -------- --------- ------------ ---- ---  -----------  ------- ------- ----');
      244    10174
      245    10175    1   DCL LDCTFMT1 CHAR(0) CONSTANT INIT(
      246    10176    1   '%4D %8A %9A %12ZO .%3ZO %3D  %2ZD-%3ZD-%4ZD  .%6ZO .%6ZO .%3ZO');
      247    10177
      248    10178
      249    10179        %REPORT (NAME=LDCTRPT2_NHDR,
      250    10180                 TRUNC=NO,HEADER=NO);
      251    10246
      252    10247        %REPORT (NAME=LDCTRPT2,
      253    10248                 TRUNC=NO,HEADER=YES);
      254    10314
      255    10315        %HEADER (LAST=NO, TEXT=
      256    10316        '  #  CG$          STA$         RDSOUT CLDQ T: STR MxRcr# MxByt# MxRBSz NCGR NCGI');
      257    10358
      258    10359        %HEADER (TEXT=
      259    10360        '---- ------------ ------------ ------ ----    --- ------ ------ ------ ---- ----');
PL6.E3A0      #001=DAD$DCT File=DAD$DCT.:E05TSI                                  TUE 07/29/97 12:42 Page:8
      260    10402
      261    10403    1   DCL LDCTFMT2 CHAR(0) CONSTANT INIT(
      262    10404    1   '%4D %12ZO %12ZO %6D  %2D     %3D %6D %6D %6D %A %A');
      263    10405
      264    10406
      265    10407    1   DCL LDCTRPT30 CHAR(0) CONSTANT INIT(
      266    10408    1   '  #  SYM$/MSGID/ERR IOQ$/MARKER  DDT$/LNK$    RAT$         IP$         IPFEI#');
      267    10409
      268    10410    1   DCL LDCTRPT31 CHAR(0) CONSTANT INIT(
      269    10411    1   '---- -------------- ------------ ------------ ------------ ------------ ------');
      270    10412
      271    10413    1   DCL LDCTFMT3 CHAR(0) CONSTANT INIT(
      272    10414    1   '%4D %12ZO   %12ZO %12ZO %12ZO %12ZO %6D');
      273    10415
      274    10416
      275    10417    1   DCL LDCTRPT40 CHAR(0) CONSTANT INIT(
      276    10418    1   '  #  DCB#  UDCB# SYSID   BKPND TCTX# ACTNG Term: LEV  TTYP CHAN SUB  SSUB');
      277    10419
      278    10420    1   DCL LDCTRPT41 CHAR(0) CONSTANT INIT(
      279    10421    1   '---- ----- ----- ------- ----- ----- -----       ---- ---- ---- ---- ----');
      280    10422
      281    10423    1   DCL LDCTFMT4 CHAR(0) CONSTANT INIT(
      282    10424    1   '%4D %5D %5D .%6ZO %5D %5D  %A       %4D %4D %4H %4D %4D');
      283    10425
      284    10426
      285    10427    1   DCL LDCTRPT50 CHAR(0) CONSTANT INIT(
      286    10428    1   '  #  NWait: DMN STR DCB Lock:                        Logon Acct TCTL JLNK');
      287    10429
      288    10430    1   DCL LDCTRPT51 CHAR(0) CONSTANT INIT(
      289    10431    1   '----        --- --- --- ------------- -------------  ---------- ---- ----');
      290    10432
      291    10433    1   DCL LDCTFMT5 CHAR(0) CONSTANT INIT(
      292    10434    1   '%4D        %3D %3D %3D .%12ZO .%12ZO  %8A   %4D %4D');
      293    10435
      294    10436
      295    10437        %REPORT (TITLE='Channel Tables - Host',NAME=DQHRPT,
      296    10438                 TABDFLT=5,
PL6.E3A0      #001=DAD$DCT File=DAD$DCT.:E05TSI                                  TUE 07/29/97 12:42 Page:9
      297    10439                 TRUNC=YES,
      298    10440                 HEADER=YES);
      299    10506        %HEADER (LAST=NO,TEXT=
      300    10507        'I-CCC MPC  FL    DQH$         IO$          SQH$         PRT TND STATE TI STP MRC');
      301    10549        %HEADER (TEXT=
      302    10550        '----- ---- ----- ------------ ------------ ------------ --- --- ----- -- --- ---');
      303    10592    1   DCL DQHFMT CHAR(0) CONSTANT INIT(
      304    10593    1   '%1D-%3ZD %4A%S %1D-%3ZD %12ZO %12ZO %12ZO %3A %A %A %2D %A %A');
      305    10594        %REPORT (NAME=RATRPT,TITLE='RAT - Resource Allocation Tables',
      306    10595                 TRUNC=YES,HEADER=YES);
      307    10661        %HEADER (LAST=NO,TEXT=
      308    10662        'DEVNM    TYNU SISID M1     M2     ACTX RFL RC ASID  SER    SSER   SOL FLG ADDR');
      309    10704        %HEADER (TEXT=
      310    10705        '-------- ---- ----- ------ ------ ---- --- -- ----- ------ ------ --- --- ----');
      311    10747    1   DCL RATFMT CHAR(0) CONSTANT INIT(
      312    10748    1   '%8A %2A%2A %5D %6ZO %6ZO %4D %3ZO %2D %5D %6A %6A %3ZO %3ZO %4ZO');
      313    10749
      314    10750        %REPORT (NAME=DDTRPT,
      315    10751                 TITLE='DDT - Device Dependent Tables',
      316    10752                 TRUNC=YES,
      317    10753                 HEADER=YES,
      318    10754                 FOOTER=YES);
      319    10820
      320    10821        %HEADER (LAST=NO,
      321    10822                 TEXT=
      322    10823        '     SERIAL  OWNER   FILE DENS             SOLI POSI 1ST  1ST  VOL EXPIRE FM   ');
      323    10865        %HEADER (LAST=NO,
      324    10866                 TEXT=
      325    10867        'DCTX NUMBER ACCOUNT  SEQ  ITY     FLAGS    CIT  TION SEQ  SECT ACC  DATE  COUNT');
      326    10909        %HEADER (LAST=YES,
      327    10910                 TEXT=
      328    10911        '---- ------ -------- ---- ----- ---------- ---- ---- ---- ---- --- ------ -----');
      329    10953
      330    10954        %FOOTER (LAST=NO,
      331    10955                 TEXT=
      332    10956        '                     ANS LABELS *||||||||* EXPIRED                             ');
      333    10998        %FOOTER (LAST=NO,
PL6.E3A0      #001=DAD$DCT File=DAD$DCT.:E05TSI                                  TUE 07/29/97 12:42 Page:10
      334    10999                 TEXT=
      335    11000        '                         SCRATCH *||||||* POSITION STRANGE                     ');
      336    11042        %FOOTER (LAST=NO,
      337    11043                 TEXT=
      338    11044        '                           EBCDIC *||||* FILE MARK NEEDED                      ');
      339    11086        %FOOTER (LAST=NO,
      340    11087                 TEXT=
      341    11088        '                           RING IN *||* POSITION LOST                          ');
      342    11130        %FOOTER (LAST=YES,
      343    11131                 TEXT=
      344    11132        '                      WRITE ALLOWED ** PO TAPE                                 ');
      345    11174
      346    11175    1   DCL DDTFMT CHAR(0) CONSTANT INIT(
      347    11176    1   '%4D %6A %8A%2S %4D %5A %10A %4A %4A%1S %4D %4D %3A %6A%3S %5D');
      348    11177
      349    11178        %REPORT (NAME=IOQRPT,TITLE='IOQ CHAINS',TRUNC=YES,HEADER=YES);
      350    11244        %HEADER (LAST=NO,TEXT=
      351    11245        'REQ$         FL$    DCTX FC IOF OPF USR BDM IOS$         STATUS       END ACTION
             11245         DCB$         BUF$');
      352    11287        %HEADER (LAST=YES,TEXT=
      353    11288        '------------ ------ ---- -- --- --- --- --- ------------ ------------ -------------
             11288         ------------ ------------');
      354    11330    1   DCL IOQFMT CHAR(0) CONSTANT INIT(
      355    11331    1   '%12ZO %6ZO %4D %2D %3ZO %3ZO %3ZO %3A %12ZO %12ZO%S %13LA %12ZO %12ZO');
      356    11332    1   DCL DEVNMFMT CHAR(0) CONSTANT INIT('%/%4A SQ$%S:%/');
      357    11333    1   DCL DEVBQFMT CHAR(0) CONSTANT INIT('%/%4A BQ$%S:%/');
      358    11334    1   DCL DEVLQFMT CHAR(0) CONSTANT INIT('%/%4A LQ$%S:%/');
      359    11335        %REPORT (NAME=CPUSRPT,TITLE='CPUS',TRUNC=YES,HEADER=NO);
      360    11401        %REPORT (TITLE='SQH - Subsytem Queue Headers',NAME=SQHRPT,
      361    11402                 TRUNC=YES,HEADER=YES);
      362    11468        %HEADER (LAST=NO,TEXT=
      363    11469        'TYPE SQH$         FDCT NDCT AQ$          CQ$          MPC$');
      364    11511        %HEADER (LAST=YES,TEXT=
      365    11512        '---- ------------ ---- ---- ------------ ------------ -------------------------');
      366    11554    1   DCL SQHFMT CHAR(0) CONSTANT INIT(
      367    11555    1   '%4A %12ZO %4D %4D %12ZO %12ZO %N(%12ZO %)%S');
      368    11556
PL6.E3A0      #001=DAD$DCT File=DAD$DCT.:E05TSI                                  TUE 07/29/97 12:42 Page:11
      369    11557        %REPORT (TITLE='IOM - NI$IOM display',NAME=IOMRPT,TRUNC=YES,HEADER=YES);
      370    11623        %HEADER (LAST=NO,TEXT=
      371    11624        'IOM# PORT LCHAN FLTBUF    SPECBUF   CONNECTS ERRCOUNT PART MBX$');
      372    11666        %HEADER (LAST=YES,TEXT=
      373    11667        '---- ---- ----- --------- --------- -------- -------- ---- ------------');
      374    11709    1   DCL IOMFMT CHAR(0) CONSTANT INIT(
      375    11710    1   '  %1D    %1D   %3D  %6ZO/%2ZO %6ZO/%2ZO %8D %8D %4A %12ZO');
      376    11711
      377    11712        %B$XL_UPPER (NAME=UPPER);
      378    11716    1   DCL CPUFMTNU CHAR(0) CONSTANT INIT('CPU ON PORT %D (LOGICAL PROCESSOR #%D) IS %>A');
      379    11717    1   DCL CPUFMT CHAR(0) CONSTANT INIT(
             11717            'CPU ON PORT %D (LOGICAL PROCESSOR #%D) IS %>A USER .%O');
      380    11718    1   DCL MPSTATE(0:3) CHAR(20) CONSTANT INIT('STOPPED','TEMPORARILY STOPPED','RUNNING',
             11718            'RELEASED');
      381    11719    1   DCL MIR_STATE(0:4) CHAR(4) CONSTANT INIT('OPER','FAIL','REST','WAIT','NONE');
      382    11720        %EJECT;
PL6.E3A0      #001=DAD$DCT File=DAD$DCT.:E05TSI                                  TUE 07/29/97 12:42 Page:12
      383    11721    1      CMD=%DCTCMD;
      384    11722    1      GOTO DISPDCTS;
      385    11723    1   DAD$MDCT: ENTRY(TOP);
      386    11724    1      CMD=%MDCTCMD;
      387    11725    1      GOTO DISPDCTS;
      388    11726    1   DAD$LDCT: ENTRY(TOP);
      389    11727    1      CMD=%LDCTCMD;
      390    11728    1   DISPDCTS: ;
      391    11729    1      CALL DAS$SDMONPTR(%M#N$DCT$$,DCT$$) ALTRET(ALT);
      392    11730    1      CALL DAS$SDMONPTR(%M#NK_MXLOCAL,P$) ALTRET(ALT);
      393    11731    1      CALL DAM$MAP(P$,P$,,,DA_MONISDATA) ALTRET(ALT);
      394    11732    1      MXLOCAL=P$->SBINWORD;
      395    11733    1      CALL DAS$SDMONPTR(%M#NK_MXTOTAL,P$) ALTRET(ALT);
      396    11734    1      CALL DAM$MAP(P$,P$,,,DA_MONISDATA) ALTRET(ALT);
      397    11735    1      MXTOTAL=P$->SBINWORD;
      398    11736    1      CALL DAM$MAP(DCT$$,DCT$$,,,DA_MONISDATA) ALTRET(ALT);
      399    11737    1      DCT$$=DCT$$->PTR$;
      400    11738    1      CALL DAM$MAP(DCT$$,DCT$$) ALTRET(ALT);
      401    11739    2      DO CASE(CMD);
      402    11740    2       CASE(%DCTCMD);
      403    11741    2         CALL DAF$INIT(DCTRPT);
      404    11742    2         DCTXLO=1;
      405    11743    2         DCTXHI=MXLOCAL;
      406    11744    2         NDCT=4;
      407    11745    2       CASE(%LDCTCMD);
      408    11746    2         PASS = 1;
      409    11747    2         HEADER1 = 0;
      410    11748    2         HEADER2 = 0;
      411    11749    2         HEADER3 = 0;
      412    11750    2         HEADER4 = 0;
      413    11751    2         HEADER5 = 0;
      414    11752    2         DCTXLO=MXLOCAL+1;
      415    11753    2         DCTXHI=MXTOTAL;
      416    11754    2         NDCT=8;
      417    11755    2       CASE(%MDCTCMD);
      418    11756    2         CALL DAF$INIT(MDCTRPT);
      419    11757    2         DCTXLO=1;
PL6.E3A0      #001=DAD$DCT File=DAD$DCT.:E05TSI                                  TUE 07/29/97 12:42 Page:13
      420    11758    2         DCTXHI=MXLOCAL;
      421    11759    2         NDCT=4;
      422    11760    2         END;
      423    11761
      424    11762
      425    11763    1   DISP_LDCT_LOOP: ;
      426    11764    1      IF TOP.NSUBLKS=0
      427    11765    2      THEN DO;
      428    11766    2           LDCT_TYPE = 0/*formatted lines*/;
      429    11767    2           MAX_PASS = 2/*N* for now*/;
      430    11768    3           DO I=DCTXLO TO DCTXHI;
      431    11769    4                IF N$DCT$(I)~=ADDR(NIL) THEN DO;
      432    11770    4                     CALL DAM$MAP(N$DCT$(I),DCT$) ALTRET(NXTDCT);
      433    11771    4                     DCTADR$=N$DCT$(I);
      434    11772    4                     CALL DIDCT;
      435    11773    4   NXTDCT:           END;
      436    11774    3                END;
      437    11775    2           END;
      438    11776
      439    11777
      440    11778    2      ELSE DO;
      441    11779    2           LDCT_TYPE = 1/*display all fields*/;
      442    11780    2           MAX_PASS = 5;
      443    11781    3           DO I=0 TO TOP.NSUBLKS-1;
      444    11782    4                DO CASE(TOP.SUBLK$(I)->OUT.CODE);
      445    11783
      446    11784
      447    11785    4                 CASE(%DA_DCT_NUM);
      448    11786    4                   CALL DAA$VALUE(TOP.SUBLK$(I)->OUT.SUBLK$(0)->OUT,J);
      449    11787    5                   IF J<DCTXLO OR J>DCTXHI THEN DO;
      450    11788    5                        DA_ANLZERR='040104000000'O;
      451    11789    5                        DA_ANLZERR.CODE=%E$DA_BAD_DCTX;
      452    11790        /*E*    ERROR:   DAD-E$DA_BAD_DCTX
      453    11791                MESSAGE: Bad DCT index.
      454    11792                                                                           */
      455    11793    5                        END;
      456    11794    5                   ELSE DO;
PL6.E3A0      #001=DAD$DCT File=DAD$DCT.:E05TSI                                  TUE 07/29/97 12:42 Page:14
      457    11795    5                        IF CMD=%LDCTCMD
      458    11796    5                        THEN DCTADR$=PINCRW(B$DS8$,(J-DCTXLO)*SIZEW(LDCT));
      459    11797    5                        ELSE DCTADR$=N$DCT$(J);
      460    11798    5                        CALL DAM$MAP(DCTADR$,DCT$) ALTRET(NXTDCTX);
      461    11799    5                        DCTADR$=N$DCT$(J);
      462    11800    5                        CALL DIDCT;
      463    11801    5                        END;
      464    11802
      465    11803
      466    11804    4                 CASE(%DA_DCT_NAME);
      467    11805    5                   DO J=DCTXLO TO DCTXHI;
      468    11806    6                        IF N$DCT$(J)~=ADDR(NIL) THEN DO;
      469    11807    6                             CALL DAM$MAP(N$DCT$(J),DCT$) ALTRET(NXTDCTN);
      470    11808    6                             CALL DAA$WILDCOMP(TOP.SUBLK$(I)->OUT.SUBLK$(0)->SYM.COUNT,
      471    11809    6                               DCT.DEVNM,NDCT) ALTRET(NXTDCTN);
      472    11810    6                             DCTADR$=N$DCT$(J);
      473    11811    6                             CALL DIDCT;
      474    11812    6   NXTDCTN:                  END;
      475    11813    5                        END;
      476    11814
      477    11815    4                   END/*do case*/;
      478    11816    3   NXTDCTX:     END/*do I=0 to nsublks*/;
      479    11817    2           END/*else do*/;
      480    11818
      481    11819
      482    11820    1      IF (CMD = %LDCTCMD)
      483    11821    2      THEN DO;
      484    11822    2           IF PASS < MAX_PASS
      485    11823    3           THEN DO;
      486    11824    3                PASS = PASS+1;
      487    11825    3                GOTO DISP_LDCT_LOOP;
      488    11826    3                END;
      489    11827
      490    11828    3           ELSE DO;
      491    11829    3                IF LDCT_TYPE =            1/*display all fields*/
      492    11830    3                  AND TOP.NSUBLKS = 1     AND     DA_ANLZERR.CODE=0
      493    11831    4                THEN DO;
PL6.E3A0      #001=DAD$DCT File=DAD$DCT.:E05TSI                                  TUE 07/29/97 12:42 Page:15
      494    11832    4                     IF TOP.SUBLK$(0)->OUT.CODE = %DA_DCT_NUM
      495    11833    4                     THEN CALL DISP_A_LDCT;
      496    11834    4                     END;
      497    11835    3                END;
      498    11836    2           END;
      499    11837
      500    11838    1   ALT: RETURN;
      501    11839        %EJECT;
PL6.E3A0      #001=DAD$DCT File=DAD$DCT.:E05TSI                                  TUE 07/29/97 12:42 Page:16
      502    11840    1   DIDCT: PROC;
      503    11841    3      DO CASE(CMD);
      504    11842    3       CASE(%DCTCMD);
      505    11843    3         CALL DISP_DCT;
      506    11844    3       CASE(%LDCTCMD);
      507    11845    3         CALL DISP_LDCT;
      508    11846    3       CASE(%MDCTCMD);
      509    11847    3         CALL DISP_MDCT;
      510    11848    3         END;
      511    11849    2      RETURN;
      512    11850    2   END DIDCT;
      513    11851        %EJECT;
PL6.E3A0      #001=DAD$DCT File=DAD$DCT.:E05TSI                                  TUE 07/29/97 12:42 Page:17
      514    11852    1   DISP_MDCT: PROC;
      515    11853    2      DCTX=DCT.DCTX;
      516    11854    2      DEVNM=DCT.DEVNM;
      517    11855    2      IF DCT.DP.MIRROR.FLAG THEN
      518    11856    2           IF DCT.DP.MIRROR.PRI THEN
      519    11857    2                MIR = 'PRI';
      520    11858    2           ELSE
      521    11859    2                MIR = 'SEC';
      522    11860    2      ELSE
      523    11861    2           MIR = 'NO';
      524    11862    2      MDCTX = DCT.DP.MIRROR.DCTX;
      525    11863    2      STATE = MIR_STATE(DCT.DP.MIRROR.STATE);
      526    11864    2      UTS = DCT.DP.MIRROR.UTS;
      527    11865    2      TDUSER = DCT.DP.MIRROR.USER#;
      528    11866    2      IF DCT.DP.MIRROR.LOCK THEN
      529    11867    2           LOCK = 'YES';
      530    11868    2      ELSE
      531    11869    2           LOCK = 'NO';
      532    11870    2      LQ$ = DCT.DP.MIRROR.LQ$;
      533    11871    2      DRZERO = DCT.DP.MIRROR.DRZERO;
      534    11872    2      CALL DAF$WRITE(VECTOR(MDCTFMT),
      535    11873    2        VECTOR(DCTX),
      536    11874    2        VECTOR(DEVNM),
      537    11875    2        VECTOR(MIR),
      538    11876    2        VECTOR(MDCTX),
      539    11877    2        VECTOR(STATE),
      540    11878    2        VECTOR(UTS),
      541    11879    2        VECTOR(LOCK),
      542    11880    2        VECTOR(TDUSER),
      543    11881    2        VECTOR(LQ$),
      544    11882    2        VECTOR(DRZERO));
      545    11883    2      RETURN;
      546    11884    2   END DISP_MDCT;
      547    11885        %EJECT;
PL6.E3A0      #001=DAD$DCT File=DAD$DCT.:E05TSI                                  TUE 07/29/97 12:42 Page:18
      548    11886    1   DISP_LDCT: PROC;
      549    11887    2      CALL XLATE(DEVNM,DA_PRINTABLE_TBL,LDCT.DEVNM);
      550    11888    2      DFLG=BITBIN(LDCT.DFLG) *16;
      551    11889    2      LKFLG=BITBIN(LDCT.LKFLG);
      552    11890    2      QFL=BITBIN(LDCT.QFL) *4;
      553    11891    2      LDCT_GEN=LDCT.GENERATION;
      554    11892
      555    11893    2      IF LDCT.RESCOD <= %NK_RESCOD_HI#
      556    11894    2      THEN RESCOD = NK_RESCOD_TXT(LDCT.RESCOD);
      557    11895    2      ELSE CALL BINCHAR(RESCOD,LDCT.RESCOD);
      558    11896
      559    11897    2      IF LDCT.NOCGREJ THEN NOCGR='Yes '; ELSE NOCGR=' No ';
      560    11898    2      IF LDCT.NOCGINF THEN NOCGI='Yes '; ELSE NOCGI=' No ';
      561    11899    2      CLDQ=LDCT.CLDQ;
      562    11900
      563    11901    2      RDSOUT=LDCT.RDSOUT;
      564    11902
      565    11903    2      IF LDCT.ACCTNG THEN ACCTNG='Yes '; ELSE ACCTNG=' No ';
      566    11904
      567    11905    2      L_LOCK.W1 = ADDR(LDCT.LOCK)->B$LOCK.W1;
      568    11906    2      L_LOCK.W2 = ADDR(LDCT.LOCK)->B$LOCK.W2;
      569    11907
      570    11908        /*
      571    11909                TTYP=LDCT.TERMID.TTYP;
      572    11910                CURTH=LDCT.TH.MAXRCRBYTSIZ;
      573    11911                MAXTH=LDCT.TH.MAXNMBBYT;
      574    11912        */
      575    11913    2      IF PASS=1
      576    11914    3      THEN DO;
      577    11915    3           IF HEADER1 = 0
      578    11916    4           THEN DO;
      579    11917    4                IF LDCT_TYPE = 0
      580    11918    4                THEN CALL DAF$INIT(LDCTRPT);
      581    11919    5                ELSE DO;
      582    11920    5                     CALL DAF$INIT(LDCTRPT_NHDR);
      583    11921    5                     CALL DAF$WRITE(VECTOR(BLANK_LINE));
      584    11922    5                     CALL DAF$WRITE(VECTOR(LDCTRPTTX01.C));
PL6.E3A0      #001=DAD$DCT File=DAD$DCT.:E05TSI                                  TUE 07/29/97 12:42 Page:19
      585    11923    5                     CALL DAF$WRITE(VECTOR(LDCTRPTTX02.C));
      586    11924    5                     END;
      587    11925    4                HEADER1 = 1;
      588    11926    4                END;
      589    11927
      590    11928    3           CALL DAF$WRITE(VECTOR(LDCTFMT1),
      591    11929    3             VECTOR(LDCT.LDCTX),
      592    11930    3             VECTOR(DEVNM),
      593    11931    3             VECTOR(RESCOD),
      594    11932    3             VECTOR(DCTADR$),
      595    11933    3             VECTOR(LDCT.USER),
      596    11934    3             VECTOR(LDCT_GEN),
      597    11935    3             VECTOR(LDCT.RLCID.NODE),
      598    11936    3             VECTOR(LDCT.RLCID.GENERATION),
      599    11937    3             VECTOR(LDCT.RLCID.LDCTX),
      600    11938    3             VECTOR(DFLG),
      601    11939    3             VECTOR(LKFLG),
      602    11940    3             VECTOR(QFL));
      603    11941    3           END/*pass 1*/;
      604    11942
      605    11943    2      IF PASS=2
      606    11944    3      THEN DO;
      607    11945    3           IF HEADER2 = 0
      608    11946    4           THEN DO;
      609    11947    4                CALL DAF$WRITE(VECTOR(BLANK_LINE));
      610    11948    4                CALL DAF$WRITE(VECTOR(LDCTRPT2TX00.C));
      611    11949    4                CALL DAF$WRITE(VECTOR(LDCTRPT2TX01.C));
      612    11950    4                HEADER2 = 1;
      613    11951    4                END;
      614    11952
      615    11953    3           CALL DAF$WRITE(VECTOR(LDCTFMT2),
      616    11954    3             VECTOR(LDCT.LDCTX),
      617    11955    3             VECTOR(LDCT.CG$),
      618    11956    3             VECTOR(LDCT.STA$),
      619    11957    3             VECTOR(RDSOUT),
      620    11958    3             VECTOR(CLDQ),
      621    11959    3             VECTOR(LDCT.TH.STR),
PL6.E3A0      #001=DAD$DCT File=DAD$DCT.:E05TSI                                  TUE 07/29/97 12:42 Page:20
      622    11960    3             VECTOR(LDCT.TH.MAXNMBRCR),
      623    11961    3             VECTOR(LDCT.TH.MAXNMBBYT),
      624    11962    3             VECTOR(LDCT.TH.MAXRCRBYTSIZ),
      625    11963    3             VECTOR(NOCGR),
      626    11964    3             VECTOR(NOCGI));
      627    11965
      628    11966
      629    11967    3           END/*pass 2*/;
      630    11968
      631    11969    2      IF PASS=3
      632    11970    3      THEN DO;
      633    11971    3           IF HEADER3 = 0
      634    11972    4           THEN DO;
      635    11973    4                CALL DAF$WRITE(VECTOR(BLANK_LINE));
      636    11974    4                CALL DAF$WRITE(VECTOR(LDCTRPT30));
      637    11975    4                CALL DAF$WRITE(VECTOR(LDCTRPT31));
      638    11976    4                HEADER3 = 1;
      639    11977    4                END;
      640    11978
      641    11979    3           CALL DAF$WRITE(VECTOR(LDCTFMT3),
      642    11980    3             VECTOR(LDCT.LDCTX),
      643    11981    3             VECTOR(LDCT.SYMB$),
      644    11982    3             VECTOR(LDCT.IOQ$),
      645    11983    3             VECTOR(LDCT.LNK$),
      646    11984    3             VECTOR(LDCT.RAT$),
      647    11985    3             VECTOR(LDCT.IP$),
      648    11986    3             VECTOR(LDCT.IPFEI#));
      649    11987    3           END/*pass 3*/;
      650    11988
      651    11989
      652    11990    2      IF PASS=4
      653    11991    3      THEN DO;
      654    11992    3           IF HEADER4 = 0
      655    11993    4           THEN DO;
      656    11994    4                CALL DAF$WRITE(VECTOR(BLANK_LINE));
      657    11995    4                CALL DAF$WRITE(VECTOR(LDCTRPT40));
      658    11996    4                CALL DAF$WRITE(VECTOR(LDCTRPT41));
PL6.E3A0      #001=DAD$DCT File=DAD$DCT.:E05TSI                                  TUE 07/29/97 12:42 Page:21
      659    11997    4                HEADER4 = 1;
      660    11998    4                END;
      661    11999
      662    12000    3           CALL DAF$WRITE(VECTOR(LDCTFMT4),
      663    12001    3             VECTOR(LDCT.LDCTX),
      664    12002    3             VECTOR(LDCT.DCBNO),
      665    12003    3             VECTOR(LDCT.UDCBNO),
      666    12004    3             VECTOR(LDCT.SYSID),
      667    12005    3             VECTOR(LDCT.BKPND),
      668    12006    3             VECTOR(LDCT.TCTX#),
      669    12007    3             VECTOR(ACCTNG),
      670    12008    3             VECTOR(LDCT.TERMID.LEV),
      671    12009    3             VECTOR(LDCT.TERMID.TTYP),
      672    12010    3             VECTOR(LDCT.TERMID.CHAN),
      673    12011    3             VECTOR(LDCT.TERMID.SUB),
      674    12012    3             VECTOR(LDCT.TERMID.SUBSUB));
      675    12013    3           END/*pass 4*/;
      676    12014
      677    12015
      678    12016    2      IF PASS=5
      679    12017    3      THEN DO;
      680    12018    3           IF HEADER5 = 0
      681    12019    4           THEN DO;
      682    12020    4                CALL DAF$WRITE(VECTOR(BLANK_LINE));
      683    12021    4                CALL DAF$WRITE(VECTOR(LDCTRPT50));
      684    12022    4                CALL DAF$WRITE(VECTOR(LDCTRPT51));
      685    12023    4                HEADER5 = 1;
      686    12024    4                END;
      687    12025
      688    12026    3           DMN=LDCT.NOWAIT.DMN;
      689    12027    3           CALL DAF$WRITE(VECTOR(LDCTFMT5),
      690    12028    3             VECTOR(LDCT.LDCTX),
      691    12029    3             VECTOR(DMN),
      692    12030    3             VECTOR(LDCT.NOWAIT.STREAM),
      693    12031    3             VECTOR(LDCT.NOWAIT.DCB#),
      694    12032    3             VECTOR(L_LOCK.W1),
      695    12033    3             VECTOR(L_LOCK.W2),
PL6.E3A0      #001=DAD$DCT File=DAD$DCT.:E05TSI                                  TUE 07/29/97 12:42 Page:22
      696    12034    3             VECTOR(LDCT.LOGON_ACCT),
      697    12035    3             VECTOR(LDCT.TCTLCNT),
      698    12036    3             VECTOR(LDCT.JLNKCNT));
      699    12037    3           END/*pass 5*/;
      700    12038
      701    12039    2      RETURN;
      702    12040    2   END DISP_LDCT;
      703    12041        %EJECT;
PL6.E3A0      #001=DAD$DCT File=DAD$DCT.:E05TSI                                  TUE 07/29/97 12:42 Page:23
      704    12042    1   DISP_DCT: PROC;
      705    12043    2      DCTX=DCT.DCTX;
      706    12044    2      DEVNM=DCT.DEVNM;
      707    12045    3      IF DCT.FL$=ADDR(NIL) THEN DO;
      708    12046    3   FL0:    FL=0;
      709    12047    3           END;
      710    12048    3      ELSE DO;
      711    12049    3           CALL DAM$MAP(DCT.FL$,P$) ALTRET(FL0);
      712    12050    3           FL=P$->DCT.DCTX;
      713    12051    3           END;
      714    12052    2      SQ=ADDR(DCT.SQ$)->P.WA;
      715    12053    2      DFLG=BITBIN(DCT.DFLG);
      716    12054    2      IOCHAN.DVN=DCT.DVN;
      717    12055    3      IF DCT.DQH$=ADDR(NIL) THEN DO;
      718    12056    3   CHAN0:  IOCHAN.IOM=0;
      719    12057    3           IOCHAN.CHAN=0;
      720    12058    3           END;
      721    12059    3      ELSE DO;
      722    12060    3           CALL DAM$MAP(DCT.DQH$,DQH$) ALTRET(CHAN0);
      723    12061    3           IOCHAN.IOM=DQH.IOCHAN.IOM;
      724    12062    3           IOCHAN.CHAN=DQH.IOCHAN.CHANNEL;
      725    12063    3           END;
      726    12064    2      STATE=IOSTATE(DCT.STATE);
      727    12065    2      TDUSER=DCT.TDUSER#;
      728    12066    2      MSG=NOYES(BITBIN(DCT.MSG#~=0));
      729    12067    2      STATUS.DOWN=NOYES(BITBIN(DCT.STATUS.DOWN));
      730    12068    2      STATUS.TND=TDTST(DCT.STATUS.TND);
      731    12069    2      CALL DAF$WRITE(VECTOR(DCTFMT),
      732    12070    2        VECTOR(DCTX),
      733    12071    2        VECTOR(DEVNM),
      734    12072    2        VECTOR(FL),
      735    12073    2        VECTOR(SQ),
      736    12074    2        VECTOR(DFLG),
      737    12075    2        VECTOR(IOCHAN),
      738    12076    2        VECTOR(STATE),
      739    12077    2        VECTOR(MSG),
      740    12078    2        VECTOR(STATUS),
PL6.E3A0      #001=DAD$DCT File=DAD$DCT.:E05TSI                                  TUE 07/29/97 12:42 Page:24
      741    12079    2        VECTOR(TDUSER),
      742    12080    2        VECTOR(DCTADR$));
      743    12081    2      RETURN;
      744    12082    2   END DISP_DCT;
      745    12083        %EJECT;
PL6.E3A0      #001=DAD$DCT File=DAD$DCT.:E05TSI                                  TUE 07/29/97 12:42 Page:25
      746    12084    1   DISP_A_LDCT: PROC;
      747    12085
      748    12086    2   DCL 1 DFLAG,
      749    12087    2         2 F BIT(14) UNAL,
      750    12088    2         2 * BIT(22) UNAL;
      751    12089
      752    12090    2   DCL 1 LKFLAG REDEF DFLAG,
      753    12091    2         2 F BIT(18) UNAL,
      754    12092    2         2 * BIT(18) UNAL;
      755    12093
      756    12094    2   DCL 1 QFLAG REDEF DFLAG,
      757    12095    2         2 F BIT(7) UNAL,
      758    12096    2         2 * BIT(29) UNAL;
      759    12097
      760    12098        %NK_DFLG_TEXT (NAME=DFLG_TEXT, STCLASS=STATIC);
      761    12109
      762    12110        %NK_LKFLG_TEXT (NAME=LKFLG_TEXT, STCLASS=STATIC);
      763    12122
      764    12123        %NK_QFL_TEXT (NAME=QFL_TEXT, STCLASS=STATIC);
      765    12132
      766    12133        %PLIST;
      767    12134
      768    12135    2      CALL DAF$WRITE(VECTOR(BLANK_LINE));
      769    12136    2      CALL DAB$GATE(L_LOCK);
      770    12137    2      CALL DAF$WRITE(VECTOR(GATFMT),VECTOR(DA_GATETXT));
      771    12138    2      CALL DAF$WRITE(VECTOR(BLANK_LINE));
      772    12139
      773    12140    2      DFLAG.F = LDCT.DFLG;
      774    12141    2      DFLG_TEXT.SREST = 'set: ';
      775    12142    2      CALL DAF$WRITE(VECTOR(DFLG_TEXT), VECTOR(DFLAG.F));
      776    12143    2      DFLAG.F = ~(DFLAG.F);
      777    12144    2      DFLG_TEXT.SREST = 'off: ';
      778    12145    2      CALL DAF$WRITE(VECTOR(DFLG_TEXT), VECTOR(DFLAG.F));
      779    12146    2      CALL DAF$WRITE(VECTOR(BLANK_LINE));
      780    12147
      781    12148    2      LKFLAG.F = LDCT.LKFLG;
      782    12149    2      LKFLG_TEXT.SREST = 'set: ';
PL6.E3A0      #001=DAD$DCT File=DAD$DCT.:E05TSI                                  TUE 07/29/97 12:42 Page:26
      783    12150    2      CALL DAF$WRITE(VECTOR(LKFLG_TEXT), VECTOR(LKFLAG.F));
      784    12151    2      LKFLAG.F = ~(LKFLAG.F);
      785    12152    2      LKFLG_TEXT.SREST = 'off: ';
      786    12153    2      CALL DAF$WRITE(VECTOR(LKFLG_TEXT), VECTOR(LKFLAG.F));
      787    12154    2      CALL DAF$WRITE(VECTOR(BLANK_LINE));
      788    12155
      789    12156    2      QFLAG.F = LDCT.QFL;
      790    12157    2      QFL_TEXT.SREST = 'set: ';
      791    12158    2      CALL DAF$WRITE(VECTOR(QFL_TEXT), VECTOR(QFLAG.F));
      792    12159    2      QFLAG.F = ~(QFLAG.F);
      793    12160    2      QFL_TEXT.SREST = 'off: ';
      794    12161    2      CALL DAF$WRITE(VECTOR(QFL_TEXT), VECTOR(QFLAG.F));
      795    12162    2      CALL DAF$WRITE(VECTOR(BLANK_LINE));
      796    12163
      797    12164    2      RETURN;
      798    12165    2   END DISP_A_LDCT;
      799    12166        %EJECT;
PL6.E3A0      #001=DAD$DCT File=DAD$DCT.:E05TSI                                  TUE 07/29/97 12:42 Page:27
      800    12167        /*F* NAME: DAD$IOCHAN
      801    12168
      802    12169        */
      803    12170    1   DAD$IOCHAN: ENTRY(TOP);
      804    12171    1      CALL DAF$INIT(DQHRPT);
      805    12172    1      CALL DAS$SDMONPTR(%M#NI_IOMS,P$);
      806    12173    1      CALL DAM$MAP(P$,P$,,,DA_MONISDATA);
      807    12174    1      IOMS=P$->SBINWORD-1;
      808    12175    1      CALL DAS$SDMONPTR(%M#NI$CHT$,P$);
      809    12176    1      CALL DAM$MAP(P$,P$,,,DA_MONISDATA);
      810    12177    1      CHT$=P$->PTR$;
      811    12178    1      CALL DAM$MAP(CHT$,CHT$);
      812    12179    2      IF TOP.NSUBLKS=0 THEN DO I=0 TO IOMS;
      813    12180    3           DO J=8 TO DA_MAXCHANS-1;
      814    12181    3                DQH$=CHT.DQH$(I*DA_MAXCHANS+J);
      815    12182    4                IF DQH$~=ADDR(NIL) THEN DO;
      816    12183    4                     DCTADR$=DQH$;
      817    12184    4                     CALL DAM$MAP(DQH$,DQH$);
      818    12185    4                     CALL DIDQH;
      819    12186    4                     END;
      820    12187    3                END;
      821    12188    2           END;
      822    12189    2      ELSE DO I=0 TO TOP.NSUBLKS-1;
      823    12190    3           DO CASE(TOP.SUBLK$(I)->OUT.CODE);
      824    12191    3            CASE(%DA_IOCHAN_IOM);
      825    12192    3              CALL DAA$VALUE(TOP.SUBLK$(I)->OUT.SUBLK$(0)->OUT,DCTX);
      826    12193    3              IF DCTX>IOMS THEN CALL SETERR(%E$DA_IOC_BAD_IOM) ALTRET(NXTNODE);
      827    12194        /*E*    ERROR:   DAD-E$DA_IOC_BAD_IOM
      828    12195                MESSAGE: IOM does not exist.
      829    12196                                                                           */
      830    12197    4              DO J=8 TO DA_MAXCHANS-1;
      831    12198    4                   DQH$=CHT.DQH$(DCTX*DA_MAXCHANS+J);
      832    12199    5                   IF DQH$~=ADDR(NIL) THEN DO;
      833    12200    5                        DCTADR$=DQH$;
      834    12201    5                        CALL DAM$MAP(DQH$,DQH$);
      835    12202    5                        CALL DIDQH;
      836    12203    5                        END;
PL6.E3A0      #001=DAD$DCT File=DAD$DCT.:E05TSI                                  TUE 07/29/97 12:42 Page:28
      837    12204    4                   END;
      838    12205    3            CASE(%DA_IOCHAN_CHAN);
      839    12206    3              CALL DAA$VALUE(TOP.SUBLK$(I)->OUT.SUBLK$(0)->OUT,DCTX);
      840    12207    3              IF DCTX>IOMS THEN CALL SETERR(%E$DA_IOC_BAD_IOM) ALTRET(NXTNODE);
      841    12208    3              CALL DAA$VALUE(TOP.SUBLK$(I)->OUT.SUBLK$(1)->OUT,J);
      842    12209    3              IF J>DA_MAXCHANS-1 THEN CALL SETERR(%E$DA_IOC_BAD_CHAN) ALTRET(NXTNODE);
      843    12210        /*E*    ERROR:   DAD-E$DA_IOC_BAD_CHAN
      844    12211                MESSAGE: Bad channel number.
      845    12212                                                                           */
      846    12213    3              DQH$=CHT.DQH$(DCTX*DA_MAXCHANS+J);
      847    12214    4              IF DQH$~=ADDR(NIL) THEN DO;
      848    12215    4                   DCTADR$=DQH$;
      849    12216    4                   CALL DAM$MAP(DQH$,DQH$);
      850    12217    4                   CALL DIDQH;
      851    12218    4                   END;
      852    12219    3              ELSE CALL SETERR(%E$DA_IOC_BAD_CHAN);
      853    12220    3   NXTNODE:   ;
      854    12221    3              END;
      855    12222    2           END;
      856    12223    1      RETURN;
      857    12224        %EJECT;
PL6.E3A0      #001=DAD$DCT File=DAD$DCT.:E05TSI                                  TUE 07/29/97 12:42 Page:29
      858    12225    1   DIDQH: PROC;
      859    12226    2      DQCHAN.IOM=DQH.IOCHAN.IOM;
      860    12227    2      DQCHAN.CHAN=DQH.IOCHAN.CHANNEL;
      861    12228    2      STATUS.DOWN=NOYES(BITBIN(DQH.STATUS.DOWN));
      862    12229    2      STATUS.TND=TDTST(DQH.STATUS.TND);
      863    12230    2      STATE=IOSTATE(DQH.STATE);
      864    12231    2      LOSTINT=DQH.TIMOUT;
      865    12232    2      STOP=NOYES(BITBIN(DQH.CHANSTATE.STOP));
      866    12233    2      MREC=NOYES(BITBIN(DQH.MREC));
      867    12234    3      IF DQH.MPC$~=ADDR(NIL) AND DQH.MPC$~=B$PS$(0) THEN DO;
      868    12235    3           CALL DAM$MAP(DQH.MPC$,DCT$);
      869    12236    3           DEVNM=DCT.DEVNM;
      870    12237    3           END;
      871    12238    3      ELSE DO;
      872    12239    3           DEVNM=' ';
      873    12240    3           END;
      874    12241    2      DCT$=DQH.FL$;
      875    12242    3      IF DCT$=ADDR(NIL) THEN DO;
      876    12243    3           DQHFL='0'B;
      877    12244    3           END;
      878    12245    3      ELSE DO;
      879    12246    3           CALL DAM$MAP(DCT$,DCT$);
      880    12247    3           DQHFL.IOM=DCT$->DQH.IOCHAN.IOM;
      881    12248    3           DQHFL.CHAN=DCT$->DQH.IOCHAN.CHANNEL;
      882    12249    3           END;
      883    12250    2      CALL DAF$WRITE(VECTOR(DQHFMT),
      884    12251    2        VECTOR(DQCHAN),
      885    12252    2        VECTOR(DEVNM),
      886    12253    2        VECTOR(DQHFL),
      887    12254    2        VECTOR(DCTADR$),
      888    12255    2        VECTOR(DQH.IO$),
      889    12256    2        VECTOR(DQH.SQH$),
      890    12257    2        VECTOR(STATUS),
      891    12258    2        VECTOR(STATE),
      892    12259    2        VECTOR(LOSTINT),
      893    12260    2        VECTOR(STOP),
      894    12261    2        VECTOR(MREC));
PL6.E3A0      #001=DAD$DCT File=DAD$DCT.:E05TSI                                  TUE 07/29/97 12:42 Page:30
      895    12262    2      RETURN;
      896    12263    2   END DIDQH;
      897    12264        %EJECT;
PL6.E3A0      #001=DAD$DCT File=DAD$DCT.:E05TSI                                  TUE 07/29/97 12:42 Page:31
      898    12265    1   DAD$SQH: ENTRY (TOP);
      899    12266
      900    12267    1      CALL DAF$INIT (SQHRPT);
      901    12268    1      CALL DAS$SDMONPTR(%M#NI_IOMS,P$);
      902    12269    1      CALL DAM$MAP (P$,P$,,,DA_MONISDATA);
      903    12270    1      IOMS=P$->SBINWORD-1;
      904    12271    1      CALL DAS$SDMONPTR(%M#NI$CHT$,P$);
      905    12272    1      CALL DAM$MAP(P$,P$,,,DA_MONISDATA);
      906    12273    1      CHT$=P$->PTR$;
      907    12274    1      CALL DAM$MAP(CHT$,CHT$);
      908    12275    1      CALL DAS$SDMONPTR(%M#N$DCT$$,DCT$$) ALTRET(ALT);
      909    12276    1      CALL DAM$MAP(DCT$$,DCT$$,,,DA_MONISDATA) ALTRET(ALT);
      910    12277    1      DCT$$ = DCT$$->PTR$;
      911    12278    1      CALL DAM$MAP(DCT$$,DCT$$) ALTRET(ALT);
      912    12279    1      NSQHS = -1;
      913    12280    1      NEXT_DCT = 1;
      914    12281    1   FIND_NEXT_DCT:
      915    12282    2      DO WHILE(NEXT_DCT < 5);
      916    12283    3           IF N$DCT$(NEXT_DCT) ~= ADDR(NIL) THEN DO;
      917    12284    3                CALL DAM$MAP(N$DCT$(NEXT_DCT),DCT$) ALTRET(ALT);
      918    12285    3                IF SUBSTR(DCT.DEVNM,0,2) ~= 'MC' THEN
      919    12286    3                     EXIT FIND_NEXT_DCT;
      920    12287    3                END;
      921    12288    2           NEXT_DCT = NEXT_DCT + 1;
      922    12289    2           END;
      923    12290    1   NEXT_SORTED_ONE: /* Yes, I know this is a sleazy way to get it
      924    12291                             sorted, but since there aren't that many... */
      925    12292    2      DO I=0 TO IOMS;
      926    12293    3           DO J=8 TO DA_MAXCHANS-1;
      927    12294    3                DQH$=CHT.DQH$(I*DA_MAXCHANS+J);
      928    12295    3                IF DQH$~=ADDR(NIL) THEN
      929    12296    4   THIS_SQH:    DO;
      930    12297    4                     CALL DAM$MAP(DQH$,DQH$);
      931    12298    4                     SQH$=DQH.SQH$;
      932    12299    5                     IF SQH$ ~= ADDR(NIL) THEN DO;
      933    12300    5                          CALL DAM$MAP (SQH$,SQH$);
      934    12301    6                          DO K = 0 TO NSQHS;
PL6.E3A0      #001=DAD$DCT File=DAD$DCT.:E05TSI                                  TUE 07/29/97 12:42 Page:32
      935    12302    6                               IF SQH$ = SQHS$(K) THEN EXIT THIS_SQH;
      936    12303    6                               END;
      937    12304    5                          IF NEXT_DCT ~= SQH.FDCT THEN EXIT THIS_SQH;
      938    12305    5                          NEXT_DCT = NEXT_DCT + SQH.NDCT;
      939    12306    5                          NSQHS = NSQHS + 1;
      940    12307    5                          SQHS$(NSQHS) = SQH$;
      941    12308    5                          CALL DISQH;
      942    12309    5                          GOTO NEXT_SORTED_ONE;
      943    12310    5                          END;
      944    12311    4                     END;
      945    12312    3                END;
      946    12313    2           END;
      947    12314    1      RETURN;
      948    12315        %EJECT;
PL6.E3A0      #001=DAD$DCT File=DAD$DCT.:E05TSI                                  TUE 07/29/97 12:42 Page:33
      949    12316    1   DISQH: PROC;
      950    12317
      951    12318    2   DCL N UBIN;
      952    12319    2   DCL TYPE CHAR(4);
      953    12320
      954    12321    2      N = 1;
      955    12322    2      TYPE='duck';
      956    12323    2      IF SQH.MPC$(1) ~= ADDR(NIL) THEN N = 2;
      957    12324    2      IF SQH.MPC$(0) = ADDR(NIL) THEN
      958    12325    2           TYPE='cons';
      959    12326    3      ELSE DO;
      960    12327    3           DCT$ = SQH.MPC$(0);
      961    12328    3           CALL DAM$MAP (DCT$, DCT$);
      962    12329    4           DO CASE (DCT.MPC.TYPE);
      963    12330    4            CASE (%DV_AP);
      964    12331    4              TYPE='aray';
      965    12332    4            CASE (%DV_DP);
      966    12333    4              TYPE='disk';
      967    12334    4            CASE (%DV_MT);
      968    12335    4              TYPE='tape';
      969    12336    4            CASE (%DV_LP);
      970    12337    4              TYPE='unit';
      971    12338    4              END;
      972    12339    3           END;
      973    12340    2      IF SQH.GATE.LOCK = 0 THEN CALL XLATE (TYPE, UPPER, TYPE);
      974    12341    2      CALL DAF$WRITE (VECTOR(SQHFMT),
      975    12342    2        VECTOR(TYPE),
      976    12343    2        VECTOR(DQH.SQH$),
      977    12344    2        VECTOR(SQH.FDCT),
      978    12345    2        VECTOR(SQH.NDCT),
      979    12346    2        VECTOR(SQH.AQ$),
      980    12347    2        VECTOR(SQH.CQ$),
      981    12348    2        VECTOR(N),
      982    12349    2        VECTOR(SQH.MPC$));
      983    12350
      984    12351    2   END DISQH;
      985    12352        %EJECT;
PL6.E3A0      #001=DAD$DCT File=DAD$DCT.:E05TSI                                  TUE 07/29/97 12:42 Page:34
      986    12353    1   DAD$IOM: ENTRY (TOP);
      987    12354
      988    12355    1      CALL DAF$INIT (IOMRPT);
      989    12356    1      CALL DAS$SDMONPTR(%M#NI_IOMS,P$);
      990    12357    1      CALL DAM$MAP (P$,P$,,,DA_MONISDATA);
      991    12358    1      IOMS=P$->SBINWORD-1;
      992    12359
      993    12360    1      CALL DAS$SDMONPTR (%M#NI$IOM$,P$);
      994    12361    1      CALL DAM$MAP (P$,P$,,,DA_MONISDATA);
      995    12362    2      DO I = 0 TO IOMS;
      996    12363    2           CALL DAM$MAP (P$->PTRS$(I),IOM$);
      997    12364    2           IOM# = IOM.IOM#;
      998    12365    2           ADDRESS = IOM.ADDRESS;
      999    12366    2           LASTCON = IOM.LASTCON;
     1000    12367    2           NEXTF = IOM.NEXTF;
     1001    12368    2           NEXTS = IOM.NEXTS;
     1002    12369    2           STATUS.DOWN = NOYES(BITBIN(IOM.STATUS.DOWN));
     1003    12370    2           CALL DAF$WRITE (VECTOR(IOMFMT),
     1004    12371    2             VECTOR(IOM#),
     1005    12372    2             VECTOR(ADDRESS),
     1006    12373    2             VECTOR(LASTCON),
     1007    12374    2             VECTOR(IOM.FLTBUF),
     1008    12375    2             VECTOR(NEXTF),
     1009    12376    2             VECTOR(IOM.SPECBUF),
     1010    12377    2             VECTOR(NEXTS),
     1011    12378    2             VECTOR(IOM.CONNCT),
     1012    12379    2             VECTOR(IOM.ERRCNCT),
     1013    12380    2             VECTOR(STATUS.DOWN),
     1014    12381    2             VECTOR(IOM.MBX$));
     1015    12382    2           END;
     1016    12383
     1017    12384    1      RETURN;
     1018    12385        %EJECT;
PL6.E3A0      #001=DAD$DCT File=DAD$DCT.:E05TSI                                  TUE 07/29/97 12:42 Page:35
     1019    12386    1   DAD$RAT: ENTRY(TOP);
     1020    12387    1      CALL DAS$SDMONPTR(%M#N$DCT$$,DCT$$) ALTRET(RATALT);
     1021    12388    1      CALL DAM$MAP(DCT$$,DCT$$,,,DA_MONISDATA) ALTRET(RATALT);
     1022    12389    1      DCT$$=DCT$$->PTR$;
     1023    12390    1      CALL DAM$MAP(DCT$$,DCT$$) ALTRET(RATALT);
     1024    12391    1      CALL DAS$SDMONPTR(%M#FR$HD$,HD$$) ALTRET(RATALT);
     1025    12392    1      CALL DAM$MAP(HD$$,HD$$,,,DA_MONISDATA) ALTRET(RATALT);
     1026    12393    1      CALL DAF$INIT(RATRPT);
     1027    12394    2      IF TOP.NSUBLKS=0 THEN DO;
     1028    12395    3           DO I=0 TO 3;
     1029    12396    3                RAT$=HD$(I);
     1030    12397    4                DO WHILE(RAT$~=ADDR(NIL));
     1031    12398    4                     CALL DAM$MAP(RAT$,RAT$) ALTRET(RATALT);
     1032    12399    4                     CALL DISPRAT;
     1033    12400    4                     RAT$=RAT$->FR$RAT.LNK$;
     1034    12401    4                     END;
     1035    12402    3                END;
     1036    12403    2           END;
     1037    12404    2      ELSE DO;
     1038    12405    3           DO I=0 TO TOP.NSUBLKS-1;
     1039    12406    3                RAT$=HD$(TOP.SUBLK$(I)->OUT.CODE);
     1040    12407    4                DO WHILE(RAT$~=ADDR(NIL));
     1041    12408    4                     CALL DAM$MAP(RAT$,RAT$) ALTRET(RATALT);
     1042    12409    4                     CALL DISPRAT;
     1043    12410    4                     RAT$=RAT$->FR$RAT.LNK$;
     1044    12411    4                     END;
     1045    12412    3                END;
     1046    12413    2           END;
     1047    12414    1   RATALT: RETURN;
     1048    12415        %EJECT;
PL6.E3A0      #001=DAD$DCT File=DAD$DCT.:E05TSI                                  TUE 07/29/97 12:42 Page:36
     1049    12416    1   DISPRAT: PROC;
     1050    12417    2   DCL 1 RAT,
     1051    12418    2         2 DEVNM CHAR(8),
     1052    12419    2         2 TYP CHAR(2),
     1053    12420    2         2 NUMB CHAR(2),
     1054    12421    2         2 SISID SBIN UNAL,
     1055    12422    2         2 M1 SBIN UNAL,
     1056    12423    2         2 M2 SBIN UNAL,
     1057    12424    2         2 ACTX SBIN UNAL,
     1058    12425    2         2 RFLG SBIN UNAL,
     1059    12426    2         2 RCOD SBIN UNAL,
     1060    12427    2         2 ASID SBIN UNAL,
     1061    12428    2         2 SER CHAR(6),
     1062    12429    2         2 SSER CHAR(6),
     1063    12430    2         2 SOLU SBIN UNAL,
     1064    12431    2         2 FLG SBIN UNAL,
     1065    12432    2         2 ADR SBIN UNAL;
     1066    12433    2   DCL POFF_BASED BASED ALIGNED UBIN HALF;
     1067    12434        /**/
     1068    12435    2      DCT$=N$DCT$(RAT$->FR$RAT.DCTX);
     1069    12436    2      IF DCT$=ADDR(NIL) THEN RAT.DEVNM=' ';
     1070    12437    3      ELSE DO;
     1071    12438    3           CALL DAM$MAP(DCT$,DCT$) ALTRET(ALT);
     1072    12439    3           RAT.DEVNM=DCT$->DCT.DEVNM;
     1073    12440    3           END;
     1074    12441    2      RAT.SISID=RAT$->FR$RAT.RES.SISID;
     1075    12442    2      RAT.M1=BITBIN(RAT$->FR$RAT.M1);
     1076    12443    2      RAT.M2=BITBIN(RAT$->FR$RAT.RES.M2);
     1077    12444    2      RAT.NUMB=RAT$->FR$RAT.RES.NUMB;
     1078    12445    2      RAT.ACTX=RAT$->FR$RAT.RES.ACTX;
     1079    12446    2      RAT.RFLG=BITBIN(RAT$->FR$RAT.RES.RFLG);
     1080    12447    2      RAT.RCOD=RAT$->FR$RAT.RCOD;
     1081    12448    2      RAT.ASID=RAT$->FR$RAT.REEL.ASID;
     1082    12449    2      RAT.SER=RAT$->FR$RAT.REEL.SER;
     1083    12450    2      RAT.SSER=RAT$->FR$RAT.SSER;
     1084    12451    2      RAT.TYP=RAT$->FR$RAT.TYP;
     1085    12452    2      RAT.SOLU=RAT$->FR$RAT.SOLU;
PL6.E3A0      #001=DAD$DCT File=DAD$DCT.:E05TSI                                  TUE 07/29/97 12:42 Page:37
     1086    12453    2      RAT.FLG=BITBIN(RAT$->FR$RAT.FLG);
     1087    12454    2      RAT.ADR=ADDR(RAT$)->POFF_BASED;
     1088    12455    2      CALL DAF$WRITE(VECTOR(RATFMT),VECTOR(RAT));
     1089    12456    2   ALT: RETURN;
     1090    12457    2   END DISPRAT;
     1091    12458        %EJECT;
PL6.E3A0      #001=DAD$DCT File=DAD$DCT.:E05TSI                                  TUE 07/29/97 12:42 Page:38
     1092    12459    1   DAD$DDT: ENTRY(TOP);
     1093    12460
     1094    12461    1      CALL DAS$SDMONPTR(%M#N$DCT$$,DCT$$) ALTRET(DDTALT);
     1095    12462    1      CALL DAM$MAP(DCT$$,DCT$$,,,DA_MONISDATA) ALTRET(DDTALT);
     1096    12463    1      DCT$$ = DCT$$->PTR$;                 /* DCT pointer                        */
     1097    12464
     1098    12465    1      CALL DAS$SDMONPTR(%M#NK_MXLOCAL,P$) ALTRET(DDTALT);
     1099    12466    1      CALL DAM$MAP(P$,P$,,,DA_MONISDATA) ALTRET(DDTALT);
     1100    12467    1      NDCT = P$->SBINWORD;                 /* Number of DCTs                     */
     1101    12468
     1102    12469    1      CALL DAM$MAP(DCT$$,DCT$$) ALTRET(DDTALT);
     1103    12470
     1104    12471    1      CALL DAF$INIT(DDTRPT);
     1105    12472
     1106    12473    1      IF TOP.NSUBLKS = 0
     1107    12474    2      THEN DO;                             /* Display all DDTs                   */
     1108    12475    3           DO I = 1 TO NDCT;
     1109    12476    3                CALL DISPDDT_I;
     1110    12477    3                END;
     1111    12478    2           CALL DAF$NEWPAGE;               /* Get footer on page                 */
     1112    12479    2           END;
     1113    12480    2      ELSE DO;                             /* Display DDTs selected by DCTX      */
     1114    12481    3           DO J = 0 TO TOP.NSUBLKS - 1;
     1115    12482    4                DO CASE( TOP.SUBLK$(J)->OUT.CODE );
     1116    12483    4                 CASE( %DA_DCT_NUM );
     1117    12484    4                   CALL DAA$VALUE( TOP.SUBLK$(J)->OUT.SUBLK$(0)->OUT, I );
     1118    12485    4                   IF I < 1 OR I > NDCT
     1119    12486    5                   THEN DO;
     1120    12487    5                        DA_ANLZERR = '040104000000'O;
     1121    12488    5                        DA_ANLZERR.CODE = %E$DA_BAD_DCTX;
     1122    12489    5                        END;
     1123    12490    4                   ELSE CALL DISPDDT_I;
     1124    12491    4                   END;
     1125    12492    3                END;
     1126    12493    2           END;
     1127    12494
     1128    12495    1   DDTALT: ;
PL6.E3A0      #001=DAD$DCT File=DAD$DCT.:E05TSI                                  TUE 07/29/97 12:42 Page:39
     1129    12496    1      RETURN;
     1130    12497
     1131    12498        /******************************/
     1132    12499
     1133    12500    1   DISPDDT_I: PROC;
     1134    12501
     1135    12502    2   DCL 1 DDT,
     1136    12503    2         2 DCTX SBIN,
     1137    12504    2         2 SN CHAR(6),
     1138    12505    2         2 ACCT CHAR(8),
     1139    12506    2         2 FSN SBIN,
     1140    12507    2         2 DENSITY CHAR(5),
     1141    12508    2         2 FLAGS,
     1142    12509    2           3 ANST CHAR(1),
     1143    12510    2           3 SCRTCH CHAR(1),
     1144    12511    2           3 EBCDIC CHAR(1),
     1145    12512    2           3 RINGIN CHAR(1),
     1146    12513    2           3 WRITE CHAR(1),
     1147    12514    2           3 NOWANS CHAR(1),
     1148    12515    2           3 POSLOST CHAR(1),
     1149    12516    2           3 FMNEEDED CHAR(1),
     1150    12517    2           3 FUNNYPOS CHAR(1),
     1151    12518    2           3 EXPIRED CHAR(1),
     1152    12519    2         2 FLAGSCHARS REDEF FLAGS CHAR(10),
     1153    12520    2         2 SOLICIT CHAR(4),
     1154    12521    2         2 POS CHAR(4),
     1155    12522    2         2 FRSTFSN SBIN,
     1156    12523    2         2 FRSTFSECT SBIN,
     1157    12524    2         2 VOLACCESS CHAR(3),
     1158    12525    2         2 EXPIRE CHAR(6),
     1159    12526    2         2 FMCNT SBIN;
     1160    12527
     1161    12528        /********************/
     1162    12529
     1163    12530    2      CALL DAM$MAP(N$DCT$(I),DCT$) ALTRET(JUSTRET);
     1164    12531    2      IF DCT.DDT$ = ADDR(NIL)
     1165    12532    2      THEN RETURN;                         /* Not a device with a DDT            */
PL6.E3A0      #001=DAD$DCT File=DAD$DCT.:E05TSI                                  TUE 07/29/97 12:42 Page:40
     1166    12533    2      CALL DAM$MAP(DCT.DDT$,DDT$) ALTRET(JUSTRET);
     1167    12534
     1168    12535    2      DDT.DCTX = I;
     1169    12536    2      DDT.SN = FT$DDT.SN;
     1170    12537    2      DDT.ACCT = FT$DDT.ACCT;
     1171    12538    2      DDT.FSN = FT$DDT.FSN;
     1172    12539
     1173    12540    3      DO CASE( FT$DDT.DENSITY );
     1174    12541    3       CASE( %D_UNKNOWN# ); DDT.DENSITY = ' ????';
     1175    12542    3       CASE( %D800# ); DDT.DENSITY = ' 800B';
     1176    12543    3       CASE( %D1600# ); DDT.DENSITY = '1600B';
     1177    12544    3       CASE( %D6250# ); DDT.DENSITY = '6250B';
     1178    12545    3       CASE( %D38000# ); DDT.DENSITY = ' 38KB';
     1179    12546    3       CASE( ELSE ); CALL BINCHAR( DDT.DENSITY, FT$DDT.DENSITY );
     1180    12547    3         END;
     1181    12548
     1182    12549    2      DDT.FLAGSCHARS = ' ';
     1183    12550    2      IF FT$DDT.ANST
     1184    12551    2      THEN DDT.FLAGS.ANST = 'A';
     1185    12552    2      IF FT$DDT.SCRTCH
     1186    12553    2      THEN DDT.FLAGS.SCRTCH = 'S';
     1187    12554    2      IF FT$DDT.EBCDIC
     1188    12555    2      THEN DDT.FLAGS.EBCDIC = 'E';
     1189    12556    2      IF FT$DDT.RINGIN
     1190    12557    2      THEN DDT.FLAGS.RINGIN = 'R';
     1191    12558    2      IF FT$DDT.WRITE
     1192    12559    2      THEN DDT.FLAGS.WRITE = 'W';
     1193    12560    2      IF FT$DDT.NOWANS
     1194    12561    2      THEN DDT.FLAGS.NOWANS = 'N';
     1195    12562    2      IF FT$DDT.POSLOST
     1196    12563    2      THEN DDT.FLAGS.POSLOST = 'P';
     1197    12564    2      IF FT$DDT.FMNEEDED
     1198    12565    2      THEN DDT.FLAGS.FMNEEDED = 'F';
     1199    12566    2      IF FT$DDT.FUNNYPOS
     1200    12567    2      THEN DDT.FLAGS.FUNNYPOS = '?';
     1201    12568    2      IF FT$DDT.EXPIRED
     1202    12569    2      THEN DDT.FLAGS.EXPIRED = 'X';
PL6.E3A0      #001=DAD$DCT File=DAD$DCT.:E05TSI                                  TUE 07/29/97 12:42 Page:41
     1203    12570
     1204    12571    3      DO CASE( FT$DDT.SOLICIT );
     1205    12572    3       CASE( 0 ); DDT.SOLICIT = ' ';
     1206    12573    3       CASE( %FT_OVERSOL# ); DDT.SOLICIT = 'OVER';
     1207    12574    3       CASE( %FT_RINGSOL# ); DDT.SOLICIT = 'RING';
     1208    12575    3       CASE( %FT_NOWAYSOL# ); DDT.SOLICIT = 'NO';
     1209    12576    3       CASE( %FT_AVRSOL# ); DDT.SOLICIT = 'AVR';
     1210    12577    3       CASE( ELSE ); CALL BINCHAR( DDT.SOLICIT, FT$DDT.SOLICIT );
     1211    12578    3         END;
     1212    12579
     1213    12580    3      DO CASE( FT$DDT.POS );
     1214    12581    3       CASE( FTP_UND# ); DDT.POS = 'UND';
     1215    12582    3       CASE( FTP_BOV# ); DDT.POS = 'BOV';
     1216    12583    3       CASE( FTP_HDR# ); DDT.POS = 'HDR';
     1217    12584    3       CASE( FTP_BOD# ); DDT.POS = 'BOD';
     1218    12585    3       CASE( FTP_EOV# ); DDT.POS = 'EOV';
     1219    12586    3       CASE( FTP_CHK# ); DDT.POS = 'CHK';
     1220    12587    3       CASE( ELSE ); CALL BINCHAR( DDT.POS, FT$DDT.POS );
     1221    12588    3         END;
     1222    12589
     1223    12590    2      DDT.FRSTFSN = FT$DDT.FRSTFSN;
     1224    12591    2      DDT.FRSTFSECT = FT$DDT.FRSTFSECT;
     1225    12592
     1226    12593    3      DO CASE( FT$DDT.VOLACCESS );
     1227    12594    3       CASE( 0 ); DDT.VOLACCESS = ' ';
     1228    12595    3       CASE( %ALL# ); DDT.VOLACCESS = 'ALL';
     1229    12596    3       CASE( %IN# ); DDT.VOLACCESS = 'IN';
     1230    12597    3       CASE( %NONE# ); DDT.VOLACCESS = 'NONE';
     1231    12598    3       CASE( ELSE ); CALL BINCHAR( DDT.VOLACCESS, FT$DDT.VOLACCESS );
     1232    12599    3         END;
     1233    12600
     1234    12601    2      DDT.EXPIRE = FT$DDT.EXPIRE;
     1235    12602    2      DDT.FMCNT = FT$DDT.FMCNT;
     1236    12603
     1237    12604    2      CALL DAF$WRITE(VECTOR(DDTFMT),VECTOR(DDT));
     1238    12605
     1239    12606    2   JUSTRET: ;
PL6.E3A0      #001=DAD$DCT File=DAD$DCT.:E05TSI                                  TUE 07/29/97 12:42 Page:42
     1240    12607    2      RETURN;
     1241    12608
     1242    12609    2   END DISPDDT_I;
     1243    12610        %EJECT;
PL6.E3A0      #001=DAD$DCT File=DAD$DCT.:E05TSI                                  TUE 07/29/97 12:42 Page:43
     1244    12611    1   DAD$IOQ: ENTRY(TOP);
     1245    12612    1      CALL DAF$INIT(IOQRPT);
     1246    12613    2      IF TOP.NSUBLKS=0 THEN DO;
     1247    12614    2           CALL DAS$SDMONPTR(%M#N$DCT$$,DCT$$) ALTRET(ALT);
     1248    12615    2           CALL DAS$SDMONPTR(%M#NK_MXLOCAL,P$) ALTRET(ALT);
     1249    12616    2           CALL DAM$MAP(P$,P$,,,DA_MONISDATA) ALTRET(ALT);
     1250    12617    2           NDCT=P$->SBINWORD;
     1251    12618    2           CALL DAM$MAP(DCT$$,DCT$$,,,DA_MONISDATA) ALTRET(ALT);
     1252    12619    2           DCT$$=DCT$$->PTR$;
     1253    12620    2           CALL DAM$MAP(DCT$$,DCT$$) ALTRET(ALT);
     1254    12621    3           DO I=1 TO NDCT;
     1255    12622    3                CALL DAM$MAP(N$DCT$(I),DCT$) ALTRET(NXTDCT1);
     1256    12623    4                IF DCT$->DCT.SQ$~=ADDR(NIL) THEN DO;
     1257    12624    4                     CALL DAF$WRITE(VECTOR(DEVNMFMT),VECTOR(DCT$->DCT.DEVNM));
     1258    12625    4                     CALL RUNIOQ(DCT$->DCT.SQ$);
     1259    12626    4                     END;
     1260    12627    4                IF DCT$->DCT.TYPE = %DV_DP THEN DO;
     1261    12628    5                     IF DCT$->DCT.DP.BQ$~=ADDR(NIL) THEN DO;
     1262    12629    5                          CALL DAF$WRITE(VECTOR(DEVBQFMT),VECTOR(DCT$->DCT.DEVNM));
     1263    12630    5                          CALL RUNIOQ(DCT$->DCT.DP.BQ$);
     1264    12631    5                          END;
     1265    12632    4                     IF DCT$->DCT.DP.MIRROR.FLAG AND
     1266    12633    5                       DCT$->DCT.DP.MIRROR.LQ$~=ADDR(NIL) THEN DO;
     1267    12634    5                          CALL DAF$WRITE(VECTOR(DEVLQFMT),VECTOR(DCT$->DCT.DEVNM));
     1268    12635    5                          CALL RUNIOQ(DCT$->DCT.DP.MIRROR.LQ$);
     1269    12636    5                          END;
     1270    12637    4                     END;
     1271    12638    3   NXTDCT1:     END;
     1272    12639    2           END;
     1273    12640    2      ELSE DO;
     1274    12641    3           IF TOP.SUBLK$(0)->OUT.CODE=%DA_IOQ_ALL THEN DO;
     1275    12642    3                CALL DAS$SDMONPTR(%M#NI$IOQ$,IOQ$) ALTRET(ALT);
     1276    12643    3                CALL DAM$MAP(IOQ$,Q$,,,DA_MONISDATA) ALTRET(ALT);
     1277    12644    3                CALL DAS$SDMONPTR(%M#NI_NUMIOQ,DCT$$) ALTRET(ALT);
     1278    12645    3                CALL DAM$MAP(DCT$$,DCT$$,,,DA_MONISDATA) ALTRET(ALT);
     1279    12646    3                NDCT=DCT$$->SBINWORD;
     1280    12647    3                IOQ$=Q$->PTR$;
PL6.E3A0      #001=DAD$DCT File=DAD$DCT.:E05TSI                                  TUE 07/29/97 12:42 Page:44
     1281    12648    3                CALL DAM$MAP(IOQ$,Q$) ALTRET(ALT);
     1282    12649    4                DO I=1 TO NDCT;
     1283    12650    4                     CALL DIIOQ;
     1284    12651    4                     Q$=PINCRW(Q$,SIZEW(N$REQ));
     1285    12652    4                     IOQ$=PINCRW(IOQ$,SIZEW(N$REQ));
     1286    12653    4                     END;
     1287    12654    3                END;
     1288    12655    3           ELSE DO;
     1289    12656    3                CALL DAA$LOC(TOP.SUBLK$(0)->OUT.SUBLK$(0)->OUT,P$);
     1290    12657    4                IF TOP.SUBLK$(0)->OUT.CODE=%DA_IOQ_INDIRECT THEN DO;
     1291    12658    4                     CALL DAM$MAP(P$,P$) ALTRET(ALT);
     1292    12659    4                     P$=P$->PTR$;
     1293    12660    4                     CALL RUNIOQ(P$);
     1294    12661    4                     END;
     1295    12662    4                ELSE DO;
     1296    12663    4                     IOQ$=P$;
     1297    12664    4                     CALL DAM$MAP(IOQ$,Q$) ALTRET(ALT);
     1298    12665    4                     CALL DIIOQ;
     1299    12666    4                     END;
     1300    12667    3                END;
     1301    12668    2           END;
     1302    12669    1      RETURN;
     1303    12670        %EJECT;
PL6.E3A0      #001=DAD$DCT File=DAD$DCT.:E05TSI                                  TUE 07/29/97 12:42 Page:45
     1304    12671    1   RUNIOQ: PROC(QQ$);
     1305    12672    2   DCL QQ$ PTR;
     1306    12673    2   DCL X SBIN;
     1307    12674        /**/
     1308    12675    2      CALL DAM$MAP(QQ$,IOQ$) ALTRET(ALT);
     1309    12676    2      IOQ$=IOQ$->PTR$;
     1310    12677    2      X=0;
     1311    12678    3      DO WHILE(X<1000);
     1312    12679    3           IF IOQ$=ADDR(NIL) THEN RETURN;
     1313    12680    3           CALL DAM$MAP(IOQ$,Q$) ALTRET(ALT);
     1314    12681    3           CALL DIIOQ;
     1315    12682    3           IF IOQ$=QQ$ THEN RETURN;
     1316    12683    3           IOQ$=Q$->PTR$;
     1317    12684    3           X=X+1;
     1318    12685    3           END;
     1319    12686    2   ALT: RETURN;
     1320    12687    2   END RUNIOQ;
     1321    12688        %EJECT;
PL6.E3A0      #001=DAD$DCT File=DAD$DCT.:E05TSI                                  TUE 07/29/97 12:42 Page:46
     1322    12689    1   DIIOQ: PROC;
     1323    12690    2      DCTX=Q$->N$REQ.DLA.DCTX;
     1324    12691    2      IOF=BITBIN(Q$->N$REQ.IOFLG);
     1325    12692    2      OPF=BITBIN(Q$->N$REQ.OPFLG);
     1326    12693    2      FC=Q$->N$REQ.FC;
     1327    12694    2      IOS$=Q$->N$REQ.IOS$;
     1328    12695    2      TDUSER=Q$->N$REQ.USER#;
     1329    12696    2      BDM_CHAR = '   ';
     1330    12697    2      IF Q$->N$REQ.BPMIR THEN BDM_CHAR= '|  ';
     1331    12698    2      IF Q$->N$REQ.DOMIR THEN BDM_CHAR_R(1) = '|';
     1332    12699    2      IF Q$->N$REQ.MIRDONE THEN BDM_CHAR_R(2) = '|';
     1333    12700    2      SQ = ADDR(Q$->N$REQ.FL$)->P.WA;
     1334    12701    3      IF Q$->N$REQ.OPFLG.EA THEN DO;
     1335    12702    3           IC=ADDR(Q$->N$REQ.EAENTRY)->UBINHALF;
     1336    12703    3           CALL DAS$IC2ED(IC,EDEF$) ALTRET(NOEA);
     1337    12704    3           TH$=PINCRW(DA_DNAME$,B$EDEF.NPOINTER);
     1338    12705    3           END;
     1339    12706    3      ELSE DO;
     1340    12707    3   NOEA:   TH$=ADDR(BLANKNAME);
     1341    12708    3           END;
     1342    12709    2      CALL DAF$WRITE(VECTOR(IOQFMT),
     1343    12710    2        VECTOR(IOQ$),
     1344    12711    2        VECTOR(SQ),
     1345    12712    2        VECTOR(DCTX),
     1346    12713    2        VECTOR(FC),
     1347    12714    2        VECTOR(IOF),
     1348    12715    2        VECTOR(OPF),
     1349    12716    2        VECTOR(TDUSER),
     1350    12717    2        VECTOR(BDM_CHAR),
     1351    12718    2        VECTOR(IOS$),
     1352    12719    2        VECTOR(Q$->N$REQ.STATUS),
     1353    12720    2        VECTOR(TH.C),
     1354    12721    2        VECTOR(Q$->N$REQ.DCB$),
     1355    12722    2        VECTOR(Q$->N$REQ.BUF$));
     1356    12723    2      RETURN;
     1357    12724    2   END DIIOQ;
     1358    12725        %EJECT;
PL6.E3A0      #001=DAD$DCT File=DAD$DCT.:E05TSI                                  TUE 07/29/97 12:42 Page:47
     1359    12726    1   DAD$CPUS: ENTRY;
     1360    12727    1      CALL DAS$SDMONPTR(%M#S_MPSTATE,MPSTATE$) ALTRET(CPUS_ALT);
     1361    12728    1      CALL DAS$SDMONPTR(%M#S_PORTNR,PORTNR$) ALTRET(CPUS_ALT);
     1362    12729    1      CALL DAS$SDMONPTR(%M#S_PCU,PCU$) ALTRET(CPUS_ALT);
     1363    12730    1      CALL DAS$SDMONPTR(%M#S_NSCPU,NSCPU$) ALTRET(CPUS_ALT);
     1364    12731    1      CALL DAM$MAP(MPSTATE$,MPSTATE$,,,DA_MONISDATA) ALTRET(CPUS_ALT);
     1365    12732    1      CALL DAM$MAP(PORTNR$,PORTNR$,,,DA_MONISDATA) ALTRET(CPUS_ALT);
     1366    12733    1      CALL DAM$MAP(PCU$,PCU$,,,DA_MONISDATA) ALTRET(CPUS_ALT);
     1367    12734    1      CALL DAM$MAP(NSCPU$,NSCPU$,,,DA_MONISDATA) ALTRET(CPUS_ALT);
     1368    12735    1      CALL DAF$INIT(CPUSRPT);
     1369    12736    2      DO I=0 TO NSCPU$ -> SBINWORD;
     1370    12737    2           IF MPSTATE$->UARAY(I)<=3 THEN MPS=MPSTATE(MPSTATE$->UARAY(I));
     1371    12738    2           ELSE MPS='CONFUSED';
     1372    12739    2           J=PCU$->UARAY(I);
     1373    12740    3           IF J=0 THEN DO;
     1374    12741    3                CALL DAF$WRITE(VECTOR(CPUFMTNU),
     1375    12742    3                  VECTOR(PORTNR$->UARAY(I)),
     1376    12743    3                  VECTOR(I),
     1377    12744    3                  VECTOR(MPS));
     1378    12745    3                END;
     1379    12746    3           ELSE DO;
     1380    12747    3                CALL DAF$WRITE(VECTOR(CPUFMT),
     1381    12748    3                  VECTOR(PORTNR$->UARAY(I)),
     1382    12749    3                  VECTOR(I),
     1383    12750    3                  VECTOR(MPS),
     1384    12751    3                  VECTOR(J));
     1385    12752    3                END;
     1386    12753    2           END;
     1387    12754    1   CPUS_ALT:
     1388    12755    1      RETURN;
     1389    12756        %EJECT;
PL6.E3A0      #001=DAD$DCT File=DAD$DCT.:E05TSI                                  TUE 07/29/97 12:42 Page:48
     1390    12757    1   DAD$GATE: ENTRY(TOP);
     1391    12758    1      CALL DAA$LOC(TOP.SUBLK$(0)->OUT.SUBLK$(0)->OUT,P$);
     1392    12759    1      GATE$=P$;
     1393    12760    1      CALL DAM$MAP(GATE$,G$) ALTRET(ALT);
     1394    12761    1      CALL DAB$GATE(G$->GATE);
     1395    12762    1      CALL DAF$WRITE(VECTOR(GATFMT),VECTOR(DA_GATETXT));
     1396    12763    1      RETURN;
     1397    12764        %EJECT;
PL6.E3A0      #001=DAD$DCT File=DAD$DCT.:E05TSI                                  TUE 07/29/97 12:42 Page:49
     1398    12765    1   SETERR: PROC(CODE) ALTRET;
     1399    12766    2   DCL CODE SBIN;
     1400    12767        /**/
     1401    12768    2      DA_ANLZERR='040104000000'O;
     1402    12769    2      DA_ANLZERR.CODE=CODE;
     1403    12770    2      ALTRETURN;
     1404    12771    2   END SETERR;
     1405    12772    1   END DAD$DCT;

PL6.E3A0      #001=DAD$DCT File=DAD$DCT.:E05TSI                                  TUE 07/29/97 12:42 Page:50
--  Include file information  --

   IT_SUBS_C.:E05TOU  is referenced.
   FT_SUBS.:E05TOU  is referenced.
   FT$DDT.:E05TOU  is referenced.
   FR$RAT.:E05TOU  is referenced.
   N$REQ.:E05TOU  is referenced.
   NK$LDCT.:E05TOU  is referenced.
   DA_MONSYM_C.:E05TOU  is referenced.
   NI_DATA_C.:E05TOU  is referenced.
   NI$TABLES.:E05TOU  is referenced.
   DA_CMD_C.:E05TOU  is referenced.
   DA_FORMAT_C.:E05TOU  is referenced.
   DA_PERR_C.:E05TOU  is referenced.
   DA_TEXTC_C.:E05TOU  is referenced.
   DA_SYMBOLS_R.:E05TOU  cannot be made into a system file and is referenced.
   DA_MAP_R.:E05TOU  cannot be made into a system file and is referenced.
   DA_ANLZ_R.:E05TOU  cannot be made into a system file and is referenced.
   CP_6_SUBS.:E05TOU  is referenced.
   B$TABLES_C.:E05TOU  cannot be made into a system file and is referenced.
   B$OBJECT_C.:E05TOU  is referenced.
   XU_MACRO_C.:E05TOU  is referenced.
      No diagnostics issued in procedure DAD$DCT.

   Procedure DAD$DCT requires 3795 words for executable code.
   Procedure DAD$DCT requires 270 words of local(AUTO) storage.

    No errors detected in file DAD$DCT.:E05TSI    .

PL6.E3A0      #001=DAD$DCT File=DAD$DCT.:E05TSI                                  TUE 07/29/97 12:42 Page:51

 Object Unit name= DAD$DCT                                    File name= DAD$DCT.:E05TOU
 UTS= JUL 29 '97 12:42:24.08 TUE                              Compiler= PL-6/E31         Sev=      00
 SharedLib= :SHARED_SYSTEM                                    Alt SharedLib=


    ****  Control sections  ****

 Sect   Type Bound  Init  Size OctSiz  Section name(segment info)
    0  RoData even  UTS    464    720  DAD$DCT
    1   Data  even  none   967   1707  DAD$DCT
    2   Proc  even  none  3795   7323  DAD$DCT
    3  RoData even  none   201    311  DAD$DCT

    ****  Entry defs  ****

                              Check   Calling
                             calling  sequence
  Sect OctLoc Primary Altret sequence   type   Parms  Name
     2      0   yes            yes      Std        1  DAD$DCT
     2      5                  yes      Std        1  DAD$MDCT
     2     12                  yes      Std        1  DAD$LDCT
     2   2756                  yes      Std        1  DAD$IOCHAN
     2   3623                  yes      Std        1  DAD$SQH
     2   4334                  yes      Std        1  DAD$IOM
     2   4640                  yes      Std        1  DAD$RAT
     2   5154                  yes      Std        1  DAD$DDT
     2   5751                  yes      Std        1  DAD$IOQ
     2   6746                  yes      Std        0  DAD$CPUS
     2   7251                  yes      Std        1  DAD$GATE
PL6.E3A0      #001=DAD$DCT File=DAD$DCT.:E05TSI                                  TUE 07/29/97 12:42 Page:52

  ****  Entry refs  ****

         Check        Calling
        calling       sequence
Altret sequence SRef   type   Args  Name
         yes          ~proc      0 B_POINTER
 yes     yes           Std       3 DAA$WILDCOMP
 yes     yes           Std       2 DAS$SDMONPTR
         yes           Std       0 DAF$NEWPAGE
 yes     yes           Std       5 DAM$MAP
 yes     yes           Std       3 DAA$VALUE
 yes     yes           Std       2 DAA$LOC
 yes     yes           Std       1 DAF$INIT
         yes           Std       1 DAB$GATE
 yes     yes           Std       2 DAS$IC2ED
                       nStd      0 X66_AUTO_1
                       Std       0 B_CONSPOOL_D
                       nStd      0 X66_ARET

  ****  Data refs  ****

  Flags:  r = read only, s = secondary
Flgs Name                             Flgs Name                             Flgs Name
     DAF$WRITE                             DA_ANLZERR                            DA_GATETXT
     DA_MAXCHANS                      r    BLANK_LINE                            DA_MONISDATA
     DA_DNAME$                             B$DS8$                                B$PS$
r    B$XL_ASC_DUMP$                   r    B$XL_UPPER$                           B_VECTNIL

  ****  Segment refs  ****

  Flags:  r = read only, s = secondary
Flgs Name                             Flgs Name                             Flgs Name
     ISSID                                 NULLSID
PL6.E3A0      #001=DAD$DCT File=DAD$DCT.:E05TSI                                  TUE 07/29/97 12:42 Page:53


        1        1        /*M* DAD$DCT - DCT, DQH, IOQ, RAT, CPU and DDT displays for ANLZ */
        2        2        /*T***********************************************************/
        3        3        /*T*                                                         */
        4        4        /*T* Copyright (c) Bull HN Information Systems Inc., 1997    */
        5        5        /*T*                                                         */
        6        6        /*T***********************************************************/
        7        7        /*X* PLM=3,IND=5,ENU=0,ECU=0  */
        8        8
        9        9        DAD$DCT: PROC(TOP);

      9  2 000000   000000 700200 xent  DAD$DCT      TSX0  ! X66_AUTO_1
         2 000001   000416 000001                    ZERO    270,1

       10       10
       11       11        %INCLUDE XU_MACRO_C;
       12     3117        %PARSE$OUT (NAME=TOP,STCLASS="");
       13     3162        /**/
       14     3163    1   DCL DAA$VALUE ENTRY(3) ALTRET;
       15     3164    1   DCL DAA$LOC ENTRY(2) ALTRET;
       16     3165    1   DCL DAA$WILDCOMP ENTRY(3) ALTRET;
       17     3166    1   DCL DAB$GATE ENTRY(1);
       18     3167    1   DCL DAS$SDMONPTR ENTRY(2) ALTRET;
       19     3168    1   DCL DAS$IC2ED ENTRY(2) ALTRET;
       20     3169    1   DCL DAM$MAP ENTRY(5) ALTRET;
       21     3170    1   DCL DAF$WRITE EPTR SYMREF;
       22     3171    1   DCL DAF$INIT ENTRY(1) ALTRET;
       23     3172    1   DCL DAF$NEWPAGE ENTRY;
       24     3173        /**/
       25     3174        %INCLUDE B$OBJECT_C;
       26     6604        %INCLUDE B$TABLES_C;
       27     6712        %INCLUDE CP_6_SUBS;
       28     7252        %INCLUDE DA_ANLZ_R;
       29     7265        %INCLUDE DA_MAP_R;
       30     7295        %INCLUDE DA_SYMBOLS_R;
       31     7308        %INCLUDE DA_TEXTC_C;
       32     7339        %INCLUDE DA_PERR_C;
PL6.E3A0      #001=DAD$DCT File=DAD$DCT.:E05TSI                                  TUE 07/29/97 12:42 Page:54
       33     7403        %INCLUDE DA_FORMAT_C;
       34     7645        %INCLUDE DA_CMD_C;
       35     7994        %INCLUDE NI$TABLES;
       36     8210        %INCLUDE NI_DATA_C;
       37     8323        %INCLUDE DA_MONSYM_C;
       38     8374        %INCLUDE NK$LDCT;
       39     8476        %INCLUDE N$REQ;
       40     8550        %INCLUDE FR$RAT;
       41     8603        %MACRO FT$DDT(BASED=BASED);
       42     8604        %INCLUDE FT$DDT;
       43     8665        %MEND;
       44     8666        %INCLUDE FT_SUBS;
       45     8746        %INCLUDE IT_SUBS_C;
       46     9013        /**/
       47     9014    1   DCL B$DS8$ PTR SYMREF;
       48     9015        /**/
       49     9016    1   DCL B$PS$(0:0) PTR SYMREF;
       50     9017        /**/
       51     9018    1   DCL DCT$$ PTR;
       52     9019    1   DCL HD$$ PTR;
       53     9020    1   DCL DCT$ PTR;
       54     9021    1   DCL DQH$ PTR;
       55     9022    1   DCL SQH$ PTR;
       56     9023    1   DCL SQHS$(0:56) PTR;
       57     9024    1   DCL NSQHS SBIN;
       58     9025    1   DCL NEXT_DCT SBIN;
       59     9026    1   DCL IOM$ PTR;
       60     9027    1   DCL IOM# UBIN;
       61     9028    1   DCL ADDRESS UBIN;
       62     9029    1   DCL LASTCON UBIN;
       63     9030    1   DCL NEXTF UBIN;
       64     9031    1   DCL NEXTS UBIN;
       65     9032    1   DCL CHT$ PTR;
       66     9033    1   DCL RAT$ PTR;
       67     9034    1   DCL DDT$ PTR;
       68     9035    1   DCL IOQ$ PTR;
       69     9036    1   DCL Q$ PTR;
PL6.E3A0      #001=DAD$DCT File=DAD$DCT.:E05TSI                                  TUE 07/29/97 12:42 Page:55
       70     9037    1   DCL IOF SBIN;
       71     9038    1   DCL OPF SBIN;
       72     9039    1   DCL FC SBIN;
       73     9040    1   DCL IOS$ PTR;
       74     9041    1   DCL MPSTATE$ PTR;
       75     9042    1   DCL PORTNR$ PTR;
       76     9043    1   DCL NSCPU$ PTR;
       77     9044    1   DCL PCU$ PTR;
       78     9045    1   DCL MPS CHAR(20);
       79     9046    1   DCL P$ PTR;
       80     9047    1   DCL NDCT SBIN;
       81     9048    1   DCL CMD SBIN;
       82     9049        %EQU DCTCMD=1;
       83     9050        %EQU LDCTCMD=2;
       84     9051        %EQU MDCTCMD=3;
       85     9052    1   DCL DCTXHI SBIN;
       86     9053    1   DCL DCTXLO SBIN;
       87     9054    1   DCL MXLOCAL SBIN;
       88     9055    1   DCL MXTOTAL SBIN;
       89     9056    1   DCL IOMS SBIN;
       90     9057    1   DCL I SBIN;
       91     9058    1   DCL J SBIN;
       92     9059    1   DCL K SBIN;
       93     9060    1   DCL DMN UBIN;
       94     9061
       95     9062    1   DCL LDCT_TYPE UBIN /* 0-Formatted lines    1-Display all fields*/;
       96     9063    1   DCL PASS UBIN;                          /*which line to print*/
       97     9064    1   DCL MAX_PASS UBIN;
       98     9065    1   DCL HEADER1 UBIN;
       99     9066    1   DCL HEADER2 UBIN;
      100     9067    1   DCL HEADER3 UBIN;
      101     9068    1   DCL HEADER4 UBIN;
      102     9069    1   DCL HEADER5 UBIN;
      103     9070
      104     9071
      105     9072    1   DCL DCTX SBIN;
      106     9073    1   DCL DEVNM CHAR(8);
PL6.E3A0      #001=DAD$DCT File=DAD$DCT.:E05TSI                                  TUE 07/29/97 12:42 Page:56
      107     9074    1   DCL FL SBIN;
      108     9075    1   DCL SQ SBIN;
      109     9076    1   DCL DFLG SBIN;
      110     9077    1   DCL DCTADR$ PTR;
      111     9078    1   DCL 1 IOCHAN,
      112     9079    1         2 IOM SBIN,
      113     9080    1         2 CHAN SBIN,
      114     9081    1         2 DVN SBIN;
      115     9082    1   DCL 1 DQHFL ALIGNED,
      116     9083    1         2 IOM SBIN,
      117     9084    1         2 CHAN SBIN;
      118     9085    1   DCL STATE CHAR(5);
      119     9086    1   DCL TDUSER SBIN;
      120     9087    1   DCL MSG CHAR(3);
      121     9088    1   DCL 1 STATUS,
      122     9089    1         2 DOWN CHAR(4),
      123     9090    1         2 TND CHAR(3);
      124     9091    1   DCL 1 DQCHAN ALIGNED,
      125     9092    1         2 IOM SBIN,
      126     9093    1         2 CHAN SBIN;
      127     9094    1   DCL LOSTINT SBIN;
      128     9095    1   DCL STOP CHAR(3);
      129     9096    1   DCL MREC CHAR(3);
      130     9097    1   DCL RESCOD CHAR(9);
      131     9098    1   DCL LDCT_GEN SBIN;
      132     9099    1   DCL NOCGR CHAR(4);
      133     9100    1   DCL NOCGI CHAR(4);
      134     9101    1   DCL ACCTNG CHAR(4);
      135     9102    1   DCL BDM_CHAR CHAR(3);
      136     9103    1   DCL BDM_CHAR_R(0:2) REDEF BDM_CHAR CHAR(1);
      137     9104    1   DCL 1 L_LOCK,
      138     9105    1         2 W1 BIT(36),
      139     9106    1         2 W2 BIT(36);
      140     9107    1   DCL LKFLG SBIN;
      141     9108    1   DCL QFL SBIN;
      142     9109    1   DCL RDSOUT SBIN;
      143     9110    1   DCL TTYP SBIN;
PL6.E3A0      #001=DAD$DCT File=DAD$DCT.:E05TSI                                  TUE 07/29/97 12:42 Page:57
      144     9111    1   DCL CURTH SBIN;
      145     9112    1   DCL MAXTH SBIN;
      146     9113    1   DCL CLDQ SBIN;
      147     9114    1   DCL RDCT SBIN;
      148     9115    1   DCL GATE$ PTR;
      149     9116    1   DCL G$ PTR;
      150     9117    1   DCL GATE BIT(72) BASED DALIGNED;
      151     9118    1   DCL 1 B$LOCK BASED ALIGNED,
      152     9119    1         2 W1 BIT(36) ALIGNED,
      153     9120    1         2 W2 BIT(36) ALIGNED;
      154     9121
      155     9122    1   DCL DRZERO UBIN;
      156     9123    1   DCL LOCK CHAR(4);
      157     9124    1   DCL MDCTX SBIN;
      158     9125    1   DCL MIR CHAR(3);
      159     9126    1   DCL LQ$ PTR;
      160     9127    1   DCL UTS UBIN;
      161     9128    1   DCL GATFMT CHAR(0) CONSTANT INIT('GATE=(%T%S)');
      162     9129        /**/
      163     9130    1   DCL SBINWORD SBIN BASED;
      164     9131    1   DCL UBINHALF UBIN HALF HALIGNED BASED;
      165     9132    1   DCL UARAY(0:0) UBIN BASED;
      166     9133    1   DCL PTR$ PTR BASED;
      167     9134    1   DCL PTRS$(0:0) PTR BASED;
      168     9135    1   DCL N$DCT$(0:0) PTR BASED(DCT$$);
      169     9136    1   DCL HD$(0:0) PTR BASED(HD$$);
      170     9137        %NI$DCT (NAME=DCT,STCLASS="BASED(DCT$)");
      171     9185        %NI$DQH (NAME=DQH,STCLASS="BASED(DQH$)");
      172     9208        %NI$CHT (NAME="CHT(0:0)",STCLASS="BASED(CHT$)");
      173     9211        %NI$SQH (NAME="SQH",STCLASS="BASED(SQH$)");
      174     9224        %NI$IOM (NAME="IOM",STCLASS="BASED(IOM$)");
      175     9229        %NK$LDCT (NAME=LDCT,STCLASS="BASED(DCT$)");
      176     9275        %N$REQ;
      177     9333        %FR$RAT (NAME=FR$RAT,STCLASS="BASED(RAT$)");
      178     9373        %FT$DDT (BASED="BASED(DDT$)");
      179     9435    1   DCL 1 P BASED ALIGNED,
      180     9436    1         2 WA UBIN(18) UNAL,
PL6.E3A0      #001=DAD$DCT File=DAD$DCT.:E05TSI                                  TUE 07/29/97 12:42 Page:58
      181     9437    1         2 CA UBIN(2) UNAL,
      182     9438    1         2 BA UBIN(4) UNAL,
      183     9439    1         2 SID,
      184     9440    1           3 S UBIN(2) UNAL,
      185     9441    1           3 D UBIN(10) UNAL;
      186     9442        %PARSE$OUT (NAME=OUT,STCLASS=BASED);
      187     9487        %PARSE$SYM (NAME=SYM,STCLASS=BASED);
      188     9525        /**/
      189     9526        %B$XL_ASC_DUMP (NAME=DA_PRINTABLE_TBL);
      190     9530        /**/
      191     9531        %B$EDEF (NAME=B$EDEF,STCLASS="BASED(EDEF$)");
      192     9601    1   DCL EDEF$ PTR;
      193     9602    1   DCL TH$ PTR;
      194     9603    1   DCL 1 TH BASED(TH$),
      195     9604    1         2 L UBIN HALF HALIGNED,
      196     9605    1         2 C CHAR(TH.L);
      197     9606    1   DCL 1 BLANKNAME CONSTANT,
      198     9607    1         2 * UBIN HALF HALIGNED INIT(2),
      199     9608    1         2 * CHAR(2) INIT('  ');
      200     9609    1   DCL IC UBIN;
      201     9610        /**/
      202     9611    1   DCL NOYES(0:1) CHAR(3) CONSTANT INIT('NO','YES');
      203     9612    1   DCL TDTST(0:5) CHAR(3) CONSTANT INIT(' ','PLT','ITR','MDR','MTR','FEP');
      204     9613    1   DCL IOSTATE(0:7) CHAR(5) CONSTANT INIT('IDLE','RQSTD','ASSGN','SPWT',
      205     9614    1                                          'KIWT','BUSY','SUSP','MPCWT');
      206     9615
      207     9616        %NK_RESCOD_TXT;
      208     9632
      209     9633        %REPORT (TITLE='DCT - Device Control Tables',NAME=DCTRPT,
      210     9634                 TABDFLT=5,
      211     9635                 TRUNC=YES,
      212     9636                 HEADER=YES);
      213     9702        %HEADER (LAST=NO,TEXT=
      214     9703        'DCTX DEVNAME  FL  SQ      DFLG    I-CCC-DD STATE MSG PART TND TDU DCTADR      ');
      215     9745        %HEADER (TEXT=
      216     9746        '---- -------- --- ------- ------- -------- ----- --- ---- --- --- ------------');
      217     9788    1   DCL DCTFMT CHAR(0) CONSTANT INIT(
PL6.E3A0      #001=DAD$DCT File=DAD$DCT.:E05TSI                                  TUE 07/29/97 12:42 Page:59
      218     9789    1   '%4D %A %3D .%6ZO .%6ZO %1D-%3ZD-%2ZD %A %A %4A %3A %3ZO %12ZO');
      219     9790
      220     9791        %REPORT (TITLE='MDCT - Mirror Device Control Tables',NAME=MDCTRPT,
      221     9792                 TABDFLT=5,
      222     9793                 TRUNC=YES,
      223     9794                 HEADER=YES);
      224     9860        %HEADER (LAST=NO,TEXT=
      225     9861        'DCTX DEVNAME  MIR MDCTX STATE UTS             LOCK U#  LQ$          DRZERO ');
      226     9903        %HEADER (TEXT=
      227     9904        '---- -------- --- ----- ----- --------------- ---- --- ------------ --------');
      228     9946    1   DCL MDCTFMT CHAR(0) CONSTANT INIT(
      229     9947    1   '%4D %8A %3A %5D %5A %15..3.10U %4A %3ZO %12ZO %8D');
      230     9948
      231     9949        %REPORT (TITLE='LDCT - Logical Device Control Tables',NAME=LDCTRPT_NHDR,
      232     9950                 TRUNC=NO,HEADER=NO);
      233    10016
      234    10017        %REPORT (TITLE='LDCT - Logical Device Control Tables',NAME=LDCTRPT,
      235    10018                 TRUNC=NO,
      236    10019                 HEADER=YES);
      237    10085
      238    10086
      239    10087        %HEADER (LAST=NO, TEXT=
      240    10088        '  #  DEVNAME  RESCODE   LDCT$        USER GEN  RLCID       DFLG    LKFLG   QFLG');
      241    10130
      242    10131        %HEADER (TEXT=
      243    10132        '---- -------- --------- ------------ ---- ---  ----------- ------- ------- ----');
      244    10174
      245    10175    1   DCL LDCTFMT1 CHAR(0) CONSTANT INIT(
      246    10176    1   '%4D %8A %9A %12ZO .%3ZO %3D  %2ZD-%3ZD-%4ZD  .%6ZO .%6ZO .%3ZO');
      247    10177
      248    10178
      249    10179        %REPORT (NAME=LDCTRPT2_NHDR,
      250    10180                 TRUNC=NO,HEADER=NO);
      251    10246
      252    10247        %REPORT (NAME=LDCTRPT2,
      253    10248                 TRUNC=NO,HEADER=YES);
      254    10314
PL6.E3A0      #001=DAD$DCT File=DAD$DCT.:E05TSI                                  TUE 07/29/97 12:42 Page:60
      255    10315        %HEADER (LAST=NO, TEXT=
      256    10316        '  #  CG$          STA$        RDSOUT CLDQ T: STR MxRcr# MxByt# MxRBSz NCGR NCGI');
      257    10358
      258    10359        %HEADER (TEXT=
      259    10360        '---- ------------ ------------ ------ ----   --- ------ ------ ------ ---- ----');
      260    10402
      261    10403    1   DCL LDCTFMT2 CHAR(0) CONSTANT INIT(
      262    10404    1   '%4D %12ZO %12ZO %6D  %2D     %3D %6D %6D %6D %A %A');
      263    10405
      264    10406
      265    10407    1   DCL LDCTRPT30 CHAR(0) CONSTANT INIT(
      266    10408    1   '  #  SYM$/MSGID/ERR IOQ$/MARKER  DDT$/LNK$    RAT$         IP$         IPFEI#');
      267    10409
      268    10410    1   DCL LDCTRPT31 CHAR(0) CONSTANT INIT(
      269    10411    1   '---- -------------- ------------ ------------ ------------ ------------ ------');
      270    10412
      271    10413    1   DCL LDCTFMT3 CHAR(0) CONSTANT INIT(
      272    10414    1   '%4D %12ZO   %12ZO %12ZO %12ZO %12ZO %6D');
      273    10415
      274    10416
      275    10417    1   DCL LDCTRPT40 CHAR(0) CONSTANT INIT(
      276    10418    1   '  #  DCB#  UDCB# SYSID   BKPND TCTX# ACTNG Term: LEV  TTYP CHAN SUB  SSUB');
      277    10419
      278    10420    1   DCL LDCTRPT41 CHAR(0) CONSTANT INIT(
      279    10421    1   '---- ----- ----- ------- ----- ----- -----       ---- ---- ---- ---- ----');
      280    10422
      281    10423    1   DCL LDCTFMT4 CHAR(0) CONSTANT INIT(
      282    10424    1   '%4D %5D %5D .%6ZO %5D %5D  %A       %4D %4D %4H %4D %4D');
      283    10425
      284    10426
      285    10427    1   DCL LDCTRPT50 CHAR(0) CONSTANT INIT(
      286    10428    1   '  #  NWait: DMN STR DCB Lock:                        Logon Acct TCTL JLNK');
      287    10429
      288    10430    1   DCL LDCTRPT51 CHAR(0) CONSTANT INIT(
      289    10431    1   '----        --- --- --- ------------- -------------  ---------- ---- ----');
      290    10432
      291    10433    1   DCL LDCTFMT5 CHAR(0) CONSTANT INIT(
PL6.E3A0      #001=DAD$DCT File=DAD$DCT.:E05TSI                                  TUE 07/29/97 12:42 Page:61
      292    10434    1   '%4D        %3D %3D %3D .%12ZO .%12ZO  %8A   %4D %4D');
      293    10435
      294    10436
      295    10437        %REPORT (TITLE='Channel Tables - Host',NAME=DQHRPT,
      296    10438                 TABDFLT=5,
      297    10439                 TRUNC=YES,
      298    10440                 HEADER=YES);
      299    10506        %HEADER (LAST=NO,TEXT=
      300    10507        'I-CCC MPC  FL    DQH$         IO$          SQH$        PRT TND STATE TI STP MRC');
      301    10549        %HEADER (TEXT=
      302    10550       '----- ---- ----- ------------ ------------ ------------ --- --- ----- -- --- ---');
      303    10592    1   DCL DQHFMT CHAR(0) CONSTANT INIT(
      304    10593    1   '%1D-%3ZD %4A%S %1D-%3ZD %12ZO %12ZO %12ZO %3A %A %A %2D %A %A');
      305    10594        %REPORT (NAME=RATRPT,TITLE='RAT - Resource Allocation Tables',
      306    10595                 TRUNC=YES,HEADER=YES);
      307    10661        %HEADER (LAST=NO,TEXT=
      308    10662        'DEVNM    TYNU SISID M1     M2     ACTX RFL RC ASID  SER    SSER   SOL FLG ADDR');
      309    10704        %HEADER (TEXT=
      310    10705        '-------- ---- ----- ------ ------ ---- --- -- ----- ------ ------ --- --- ----');
      311    10747    1   DCL RATFMT CHAR(0) CONSTANT INIT(
      312    10748    1   '%8A %2A%2A %5D %6ZO %6ZO %4D %3ZO %2D %5D %6A %6A %3ZO %3ZO %4ZO');
      313    10749
      314    10750        %REPORT (NAME=DDTRPT,
      315    10751                 TITLE='DDT - Device Dependent Tables',
      316    10752                 TRUNC=YES,
      317    10753                 HEADER=YES,
      318    10754                 FOOTER=YES);
      319    10820
      320    10821        %HEADER (LAST=NO,
      321    10822                 TEXT=
      322    10823        '     SERIAL  OWNER   FILE DENS             SOLI POSI 1ST  1ST  VOL EXPIRE FM   ');
      323    10865        %HEADER (LAST=NO,
      324    10866                 TEXT=
      325    10867        'DCTX NUMBER ACCOUNT  SEQ  ITY     FLAGS    CIT  TION SEQ  SECT ACC  DATE  COUNT');
      326    10909        %HEADER (LAST=YES,
      327    10910                 TEXT=
      328    10911        '---- ------ -------- ---- ----- ---------- ---- ---- ---- ---- --- ------ -----');
PL6.E3A0      #001=DAD$DCT File=DAD$DCT.:E05TSI                                  TUE 07/29/97 12:42 Page:62
      329    10953
      330    10954        %FOOTER (LAST=NO,
      331    10955                 TEXT=
      332    10956        '                     ANS LABELS *||||||||* EXPIRED                             ');
      333    10998        %FOOTER (LAST=NO,
      334    10999                 TEXT=
      335    11000        '                         SCRATCH *||||||* POSITION STRANGE                     ');
      336    11042        %FOOTER (LAST=NO,
      337    11043                 TEXT=
      338    11044        '                           EBCDIC *||||* FILE MARK NEEDED                      ');
      339    11086        %FOOTER (LAST=NO,
      340    11087                 TEXT=
      341    11088        '                           RING IN *||* POSITION LOST                          ');
      342    11130        %FOOTER (LAST=YES,
      343    11131                 TEXT=
      344    11132        '                      WRITE ALLOWED ** PO TAPE                                 ');
      345    11174
      346    11175    1   DCL DDTFMT CHAR(0) CONSTANT INIT(
      347    11176    1   '%4D %6A %8A%2S %4D %5A %10A %4A %4A%1S %4D %4D %3A %6A%3S %5D');
      348    11177
      349    11178        %REPORT (NAME=IOQRPT,TITLE='IOQ CHAINS',TRUNC=YES,HEADER=YES);
      350    11244        %HEADER (LAST=NO,TEXT=
      351    11245        'REQ$         FL$    DCTX FC IOF OPF USR BDM IOS$         STATUS       END ACTION
             11245         DCB$         BUF$');
      352    11287        %HEADER (LAST=YES,TEXT=
      353    11288       '------------ ------ ---- -- --- --- --- --- ------------ ------------ -------------
             11288         ------------ ------------');
      354    11330    1   DCL IOQFMT CHAR(0) CONSTANT INIT(
      355    11331    1   '%12ZO %6ZO %4D %2D %3ZO %3ZO %3ZO %3A %12ZO %12ZO%S %13LA %12ZO %12ZO');
      356    11332    1   DCL DEVNMFMT CHAR(0) CONSTANT INIT('%/%4A SQ$%S:%/');
      357    11333    1   DCL DEVBQFMT CHAR(0) CONSTANT INIT('%/%4A BQ$%S:%/');
      358    11334    1   DCL DEVLQFMT CHAR(0) CONSTANT INIT('%/%4A LQ$%S:%/');
      359    11335        %REPORT (NAME=CPUSRPT,TITLE='CPUS',TRUNC=YES,HEADER=NO);
      360    11401        %REPORT (TITLE='SQH - Subsytem Queue Headers',NAME=SQHRPT,
      361    11402                 TRUNC=YES,HEADER=YES);
      362    11468        %HEADER (LAST=NO,TEXT=
      363    11469        'TYPE SQH$         FDCT NDCT AQ$          CQ$          MPC$');
PL6.E3A0      #001=DAD$DCT File=DAD$DCT.:E05TSI                                  TUE 07/29/97 12:42 Page:63
      364    11511        %HEADER (LAST=YES,TEXT=
      365    11512        '---- ------------ ---- ---- ------------ ------------ -------------------------');
      366    11554    1   DCL SQHFMT CHAR(0) CONSTANT INIT(
      367    11555    1   '%4A %12ZO %4D %4D %12ZO %12ZO %N(%12ZO %)%S');
      368    11556
      369    11557        %REPORT (TITLE='IOM - NI$IOM display',NAME=IOMRPT,TRUNC=YES,HEADER=YES);
      370    11623        %HEADER (LAST=NO,TEXT=
      371    11624        'IOM# PORT LCHAN FLTBUF    SPECBUF   CONNECTS ERRCOUNT PART MBX$');
      372    11666        %HEADER (LAST=YES,TEXT=
      373    11667        '---- ---- ----- --------- --------- -------- -------- ---- ------------');
      374    11709    1   DCL IOMFMT CHAR(0) CONSTANT INIT(
      375    11710    1   '  %1D    %1D   %3D  %6ZO/%2ZO %6ZO/%2ZO %8D %8D %4A %12ZO');
      376    11711
      377    11712        %B$XL_UPPER (NAME=UPPER);
      378    11716    1  DCL CPUFMTNU CHAR(0) CONSTANT INIT('CPU ON PORT %D (LOGICAL PROCESSOR #%D) IS %>A');
      379    11717    1   DCL CPUFMT CHAR(0) CONSTANT INIT(
             11717            'CPU ON PORT %D (LOGICAL PROCESSOR #%D) IS %>A USER .%O');
      380    11718    1   DCL MPSTATE(0:3) CHAR(20) CONSTANT INIT('STOPPED','TEMPORARILY STOPPED','RUNNING',
             11718            'RELEASED');
      381    11719    1   DCL MIR_STATE(0:4) CHAR(4) CONSTANT INIT('OPER','FAIL','REST','WAIT','NONE');
      382    11720        %EJECT;
PL6.E3A0      #001=DAD$DCT File=DAD$DCT.:E05TSI                                  TUE 07/29/97 12:42 Page:64
      383    11721    1      CMD=%DCTCMD;

  11721  2 000002   000001 235007                    LDA     1,DL
         2 000003   200136 755100                    STA     CMD,,AUTO

      384    11722    1      GOTO DISPDCTS;

  11722  2 000004   000016 710000 2                  TRA     DISPDCTS

      385    11723    1   DAD$MDCT: ENTRY(TOP);

  11723  2 000005   000000 700200 xent  DAD$MDCT     TSX0  ! X66_AUTO_1
         2 000006   000416 000001                    ZERO    270,1

      386    11724    1      CMD=%MDCTCMD;

  11724  2 000007   000003 235007                    LDA     3,DL
         2 000010   200136 755100                    STA     CMD,,AUTO

      387    11725    1      GOTO DISPDCTS;

  11725  2 000011   000016 710000 2                  TRA     DISPDCTS

      388    11726    1   DAD$LDCT: ENTRY(TOP);

  11726  2 000012   000000 700200 xent  DAD$LDCT     TSX0  ! X66_AUTO_1
         2 000013   000416 000001                    ZERO    270,1

      389    11727    1      CMD=%LDCTCMD;

  11727  2 000014   000002 235007                    LDA     2,DL
         2 000015   200136 755100                    STA     CMD,,AUTO

  11727  2 000016                       DISPDCTS     null
      390    11728    1   DISPDCTS: ;
      391    11729    1      CALL DAS$SDMONPTR(%M#N$DCT$$,DCT$$) ALTRET(ALT);

PL6.E3A0      #001=DAD$DCT File=DAD$DCT.:E05TSI                                  TUE 07/29/97 12:42 Page:65
  11729  2 000016   200004 630500                    EPPR0   DCT$$,,AUTO
         2 000017   200271 450500                    STP0    X+19,,AUTO
         2 000020   000001 236000 3                  LDQ     1
         2 000021   200270 756100                    STQ     X+18,,AUTO
         2 000022   200270 630500                    EPPR0   X+18,,AUTO
         2 000023   000020 631400 xsym               EPPR1   B_VECTNIL+16
         2 000024   000000 701000 xent               TSX1    DAS$SDMONPTR
         2 000025   000464 702000 2                  TSX2    ALT

      392    11730    1      CALL DAS$SDMONPTR(%M#NK_MXLOCAL,P$) ALTRET(ALT);

  11730  2 000026   200134 630500                    EPPR0   P$,,AUTO
         2 000027   200271 450500                    STP0    X+19,,AUTO
         2 000030   000003 236000 3                  LDQ     3
         2 000031   200270 756100                    STQ     X+18,,AUTO
         2 000032   200270 630500                    EPPR0   X+18,,AUTO
         2 000033   000020 631400 xsym               EPPR1   B_VECTNIL+16
         2 000034   000000 701000 xent               TSX1    DAS$SDMONPTR
         2 000035   000464 702000 2                  TSX2    ALT

      393    11731    1      CALL DAM$MAP(P$,P$,,,DA_MONISDATA) ALTRET(ALT);

  11731  2 000036   000004 236000 3                  LDQ     4
         2 000037   200274 756100                    STQ     X+22,,AUTO
         2 000040   000001 236000 xsym               LDQ     B_VECTNIL+1
         2 000041   000001 235000 xsym               LDA     B_VECTNIL+1
         2 000042   200272 757100                    STAQ    X+20,,AUTO
         2 000043   200134 630500                    EPPR0   P$,,AUTO
         2 000044   200271 450500                    STP0    X+19,,AUTO
         2 000045   200134 631500                    EPPR1   P$,,AUTO
         2 000046   200270 451500                    STP1    X+18,,AUTO
         2 000047   200270 630500                    EPPR0   X+18,,AUTO
         2 000050   000023 631400 xsym               EPPR1   B_VECTNIL+19
         2 000051   000000 701000 xent               TSX1    DAM$MAP
         2 000052   000464 702000 2                  TSX2    ALT

      394    11732    1      MXLOCAL=P$->SBINWORD;
PL6.E3A0      #001=DAD$DCT File=DAD$DCT.:E05TSI                                  TUE 07/29/97 12:42 Page:66

  11732  2 000053   200134 470500                    LDP0    P$,,AUTO
         2 000054   000000 235100                    LDA     0,,PR0
         2 000055   200141 755100                    STA     MXLOCAL,,AUTO

      395    11733    1      CALL DAS$SDMONPTR(%M#NK_MXTOTAL,P$) ALTRET(ALT);

  11733  2 000056   200134 631500                    EPPR1   P$,,AUTO
         2 000057   200271 451500                    STP1    X+19,,AUTO
         2 000060   000006 236000 3                  LDQ     6
         2 000061   200270 756100                    STQ     X+18,,AUTO
         2 000062   200270 630500                    EPPR0   X+18,,AUTO
         2 000063   000020 631400 xsym               EPPR1   B_VECTNIL+16
         2 000064   000000 701000 xent               TSX1    DAS$SDMONPTR
         2 000065   000464 702000 2                  TSX2    ALT

      396    11734    1      CALL DAM$MAP(P$,P$,,,DA_MONISDATA) ALTRET(ALT);

  11734  2 000066   000004 236000 3                  LDQ     4
         2 000067   200274 756100                    STQ     X+22,,AUTO
         2 000070   000001 236000 xsym               LDQ     B_VECTNIL+1
         2 000071   000001 235000 xsym               LDA     B_VECTNIL+1
         2 000072   200272 757100                    STAQ    X+20,,AUTO
         2 000073   200134 630500                    EPPR0   P$,,AUTO
         2 000074   200271 450500                    STP0    X+19,,AUTO
         2 000075   200134 631500                    EPPR1   P$,,AUTO
         2 000076   200270 451500                    STP1    X+18,,AUTO
         2 000077   200270 630500                    EPPR0   X+18,,AUTO
         2 000100   000023 631400 xsym               EPPR1   B_VECTNIL+19
         2 000101   000000 701000 xent               TSX1    DAM$MAP
         2 000102   000464 702000 2                  TSX2    ALT

      397    11735    1      MXTOTAL=P$->SBINWORD;

  11735  2 000103   200134 470500                    LDP0    P$,,AUTO
         2 000104   000000 235100                    LDA     0,,PR0
         2 000105   200142 755100                    STA     MXTOTAL,,AUTO
PL6.E3A0      #001=DAD$DCT File=DAD$DCT.:E05TSI                                  TUE 07/29/97 12:42 Page:67

      398    11736    1      CALL DAM$MAP(DCT$$,DCT$$,,,DA_MONISDATA) ALTRET(ALT);

  11736  2 000106   000004 236000 3                  LDQ     4
         2 000107   200274 756100                    STQ     X+22,,AUTO
         2 000110   000001 236000 xsym               LDQ     B_VECTNIL+1
         2 000111   000001 235000 xsym               LDA     B_VECTNIL+1
         2 000112   200272 757100                    STAQ    X+20,,AUTO
         2 000113   200004 631500                    EPPR1   DCT$$,,AUTO
         2 000114   200271 451500                    STP1    X+19,,AUTO
         2 000115   200004 633500                    EPPR3   DCT$$,,AUTO
         2 000116   200270 453500                    STP3    X+18,,AUTO
         2 000117   200270 630500                    EPPR0   X+18,,AUTO
         2 000120   000023 631400 xsym               EPPR1   B_VECTNIL+19
         2 000121   000000 701000 xent               TSX1    DAM$MAP
         2 000122   000464 702000 2                  TSX2    ALT

      399    11737    1      DCT$$=DCT$$->PTR$;

  11737  2 000123   200004 470500                    LDP0    DCT$$,,AUTO
         2 000124   000000 236100                    LDQ     0,,PR0
         2 000125   200004 756100                    STQ     DCT$$,,AUTO

      400    11738    1      CALL DAM$MAP(DCT$$,DCT$$) ALTRET(ALT);

  11738  2 000126   200004 630500                    EPPR0   DCT$$,,AUTO
         2 000127   200271 450500                    STP0    X+19,,AUTO
         2 000130   200004 631500                    EPPR1   DCT$$,,AUTO
         2 000131   200270 451500                    STP1    X+18,,AUTO
         2 000132   200270 630500                    EPPR0   X+18,,AUTO
         2 000133   000020 631400 xsym               EPPR1   B_VECTNIL+16
         2 000134   000000 701000 xent               TSX1    DAM$MAP
         2 000135   000464 702000 2                  TSX2    ALT

      401    11739    2      DO CASE(CMD);

  11739  2 000136   200136 235100                    LDA     CMD,,AUTO
PL6.E3A0      #001=DAD$DCT File=DAD$DCT.:E05TSI                                  TUE 07/29/97 12:42 Page:68
         2 000137   000004 115007                    CMPA    4,DL
         2 000140   000142 602005 2                  TNC     s:11739+4,AL
         2 000141   000212 710000 2                  TRA     DISP_LDCT_LOOP
         2 000142   000212 710000 2                  TRA     DISP_LDCT_LOOP
         2 000143   000146 710000 2                  TRA     s:11741
         2 000144   000161 710000 2                  TRA     s:11746
         2 000145   000200 710000 2                  TRA     s:11756

      402    11740    2       CASE(%DCTCMD);

      403    11741    2         CALL DAF$INIT(DCTRPT);

  11741  2 000146   000007 630400 3                  EPPR0   7
         2 000147   000017 631400 xsym               EPPR1   B_VECTNIL+15
         2 000150   000000 701000 xent               TSX1    DAF$INIT
         2 000151   000000 011000                    NOP     0

      404    11742    2         DCTXLO=1;

  11742  2 000152   000001 235007                    LDA     1,DL
         2 000153   200140 755100                    STA     DCTXLO,,AUTO

      405    11743    2         DCTXHI=MXLOCAL;

  11743  2 000154   200141 236100                    LDQ     MXLOCAL,,AUTO
         2 000155   200137 756100                    STQ     DCTXHI,,AUTO

      406    11744    2         NDCT=4;

  11744  2 000156   000004 235007                    LDA     4,DL
         2 000157   200135 755100                    STA     NDCT,,AUTO
         2 000160   000212 710000 2                  TRA     DISP_LDCT_LOOP

      407    11745    2       CASE(%LDCTCMD);

      408    11746    2         PASS = 1;

PL6.E3A0      #001=DAD$DCT File=DAD$DCT.:E05TSI                                  TUE 07/29/97 12:42 Page:69
  11746  2 000161   000001 236007                    LDQ     1,DL
         2 000162   200151 756100                    STQ     PASS,,AUTO

      409    11747    2         HEADER1 = 0;

  11747  2 000163   200153 450100                    STZ     HEADER1,,AUTO

      410    11748    2         HEADER2 = 0;

  11748  2 000164   200154 450100                    STZ     HEADER2,,AUTO

      411    11749    2         HEADER3 = 0;

  11749  2 000165   200155 450100                    STZ     HEADER3,,AUTO

      412    11750    2         HEADER4 = 0;

  11750  2 000166   200156 450100                    STZ     HEADER4,,AUTO

      413    11751    2         HEADER5 = 0;

  11751  2 000167   200157 450100                    STZ     HEADER5,,AUTO

      414    11752    2         DCTXLO=MXLOCAL+1;

  11752  2 000170   200141 235100                    LDA     MXLOCAL,,AUTO
         2 000171   000001 035007                    ADLA    1,DL
         2 000172   200140 755100                    STA     DCTXLO,,AUTO

      415    11753    2         DCTXHI=MXTOTAL;

  11753  2 000173   200142 235100                    LDA     MXTOTAL,,AUTO
         2 000174   200137 755100                    STA     DCTXHI,,AUTO

      416    11754    2         NDCT=8;

  11754  2 000175   000010 235007                    LDA     8,DL
PL6.E3A0      #001=DAD$DCT File=DAD$DCT.:E05TSI                                  TUE 07/29/97 12:42 Page:70
         2 000176   200135 755100                    STA     NDCT,,AUTO
         2 000177   000212 710000 2                  TRA     DISP_LDCT_LOOP

      417    11755    2       CASE(%MDCTCMD);

      418    11756    2         CALL DAF$INIT(MDCTRPT);

  11756  2 000200   000010 630400 3                  EPPR0   8
         2 000201   000017 631400 xsym               EPPR1   B_VECTNIL+15
         2 000202   000000 701000 xent               TSX1    DAF$INIT
         2 000203   000000 011000                    NOP     0

      419    11757    2         DCTXLO=1;

  11757  2 000204   000001 235007                    LDA     1,DL
         2 000205   200140 755100                    STA     DCTXLO,,AUTO

      420    11758    2         DCTXHI=MXLOCAL;

  11758  2 000206   200141 236100                    LDQ     MXLOCAL,,AUTO
         2 000207   200137 756100                    STQ     DCTXHI,,AUTO

      421    11759    2         NDCT=4;

  11759  2 000210   000004 235007                    LDA     4,DL
         2 000211   200135 755100                    STA     NDCT,,AUTO

      422    11760    2         END;

  11750  2 000212                       DISP_LDCT_L* null
      423    11761
      424    11762
      425    11763    1   DISP_LDCT_LOOP: ;
      426    11764    1      IF TOP.NSUBLKS=0

  11764  2 000212   200003 470500                    LDP0    @TOP,,AUTO
         2 000213   000001 220100                    LDX0    1,,PR0
PL6.E3A0      #001=DAD$DCT File=DAD$DCT.:E05TSI                                  TUE 07/29/97 12:42 Page:71
         2 000214   000255 601000 2                  TNZ     s:11779

      427    11765    2      THEN DO;

      428    11766    2           LDCT_TYPE = 0/*formatted lines*/;

  11766  2 000215   200150 450100                    STZ     LDCT_TYPE,,AUTO

      429    11767    2           MAX_PASS = 2/*N* for now*/;

  11767  2 000216   000002 235007                    LDA     2,DL
         2 000217   200152 755100                    STA     MAX_PASS,,AUTO

      430    11768    3           DO I=DCTXLO TO DCTXHI;

  11768  2 000220   200140 236100                    LDQ     DCTXLO,,AUTO
         2 000221   200144 756100                    STQ     I,,AUTO
         2 000222   000251 710000 2                  TRA     NXTDCT+1

      431    11769    4                IF N$DCT$(I)~=ADDR(NIL) THEN DO;

  11769  2 000223   200004 470500                    LDP0    DCT$$,,AUTO
         2 000224   200144 720100                    LXL0    I,,AUTO
         2 000225   000000 236110                    LDQ     0,X0,PR0
         2 000226   000001 116000 xsym               CMPQ    B_VECTNIL+1
         2 000227   000250 600000 2                  TZE     NXTDCT

      432    11770    4                     CALL DAM$MAP(N$DCT$(I),DCT$) ALTRET(NXTDCT);

  11770  2 000230   200006 631500                    EPPR1   DCT$,,AUTO
         2 000231   200271 451500                    STP1    X+19,,AUTO
         2 000232   200144 236100                    LDQ     I,,AUTO
         2 000233   000022 736000                    QLS     18
         2 000234   200004 036100                    ADLQ    DCT$$,,AUTO
         2 000235   200270 756100                    STQ     X+18,,AUTO
         2 000236   200270 630500                    EPPR0   X+18,,AUTO
         2 000237   000020 631400 xsym               EPPR1   B_VECTNIL+16
PL6.E3A0      #001=DAD$DCT File=DAD$DCT.:E05TSI                                  TUE 07/29/97 12:42 Page:72
         2 000240   000000 701000 xent               TSX1    DAM$MAP
         2 000241   000250 702000 2                  TSX2    NXTDCT

      433    11771    4                     DCTADR$=N$DCT$(I);

  11771  2 000242   200004 470500                    LDP0    DCT$$,,AUTO
         2 000243   200144 720100                    LXL0    I,,AUTO
         2 000244   000000 236110                    LDQ     0,X0,PR0
         2 000245   200166 756100                    STQ     DCTADR$,,AUTO

      434    11772    4                     CALL DIDCT;

  11772  2 000246   000465 701000 2                  TSX1    DIDCT
         2 000247   000000 011000                    NOP     0

      435    11773    4   NXTDCT:           END;

  11773  2 000250                       NXTDCT       null
      436    11774    3                END;

  11774  2 000250   200144 054100                    AOS     I,,AUTO
         2 000251   200144 236100                    LDQ     I,,AUTO
         2 000252   200137 116100                    CMPQ    DCTXHI,,AUTO
         2 000253   000223 604400 2                  TMOZ    s:11769

      437    11775    2           END;

  11775  2 000254   000433 710000 2                  TRA     s:11820

      438    11776
      439    11777
      440    11778    2      ELSE DO;

      441    11779    2           LDCT_TYPE = 1/*display all fields*/;

  11779  2 000255   000001 235007                    LDA     1,DL
         2 000256   200150 755100                    STA     LDCT_TYPE,,AUTO
PL6.E3A0      #001=DAD$DCT File=DAD$DCT.:E05TSI                                  TUE 07/29/97 12:42 Page:73

      442    11780    2           MAX_PASS = 5;

  11780  2 000257   000005 236007                    LDQ     5,DL
         2 000260   200152 756100                    STQ     MAX_PASS,,AUTO

      443    11781    3           DO I=0 TO TOP.NSUBLKS-1;

  11781  2 000261   200144 450100                    STZ     I,,AUTO
         2 000262   000426 710000 2                  TRA     NXTDCTX+1

      444    11782    4                DO CASE(TOP.SUBLK$(I)->OUT.CODE);

  11782  2 000263   200003 470500                    LDP0    @TOP,,AUTO
         2 000264   200144 720100                    LXL0    I,,AUTO
         2 000265   000003 471510                    LDP1    3,X0,PR0
         2 000266   100000 721100                    LXL1    0,,PR1
         2 000267   000003 101003                    CMPX1   3,DU
         2 000270   000272 602011 2                  TNC     s:11782+7,X1
         2 000271   000425 710000 2                  TRA     NXTDCTX
         2 000272   000425 710000 2                  TRA     NXTDCTX
         2 000273   000275 710000 2                  TRA     s:11786
         2 000274   000352 710000 2                  TRA     s:11805

      445    11783
      446    11784
      447    11785    4                 CASE(%DA_DCT_NUM);

      448    11786    4                   CALL DAA$VALUE(TOP.SUBLK$(I)->OUT.SUBLK$(0)->OUT,J);

  11786  2 000275   100003 473500                    LDP3    3,,PR1
         2 000276   200145 634500                    EPPR4   J,,AUTO
         2 000277   200271 454500                    STP4    X+19,,AUTO
         2 000300   200270 453500                    STP3    X+18,,AUTO
         2 000301   200270 630500                    EPPR0   X+18,,AUTO
         2 000302   000020 631400 xsym               EPPR1   B_VECTNIL+16
         2 000303   000000 701000 xent               TSX1    DAA$VALUE
PL6.E3A0      #001=DAD$DCT File=DAD$DCT.:E05TSI                                  TUE 07/29/97 12:42 Page:74
         2 000304   000000 011000                    NOP     0

      449    11787    5                   IF J<DCTXLO OR J>DCTXHI THEN DO;

  11787  2 000305   200145 236100                    LDQ     J,,AUTO
         2 000306   200140 116100                    CMPQ    DCTXLO,,AUTO
         2 000307   000312 604000 2                  TMI     s:11788
         2 000310   200137 116100                    CMPQ    DCTXHI,,AUTO
         2 000311   000320 604400 2                  TMOZ    s:11795

      450    11788    5                        DA_ANLZERR='040104000000'O;

  11788  2 000312   000645 236000 0                  LDQ     MIR_STATE+5
         2 000313   000000 756000 xsym               STQ     DA_ANLZERR

      451    11789    5                        DA_ANLZERR.CODE=%E$DA_BAD_DCTX;

  11789  2 000314   000011 376000 3                  ANQ     9
         2 000315   004560 276007                    ORQ     2416,DL
         2 000316   000000 756000 xsym               STQ     DA_ANLZERR

      452    11790        /*E*    ERROR:   DAD-E$DA_BAD_DCTX
      453    11791                MESSAGE: Bad DCT index.
      454    11792                                                                           */
      455    11793    5                        END;

  11793  2 000317   000425 710000 2                  TRA     NXTDCTX

      456    11794    5                   ELSE DO;

      457    11795    5                        IF CMD=%LDCTCMD

  11795  2 000320   200136 235100                    LDA     CMD,,AUTO
         2 000321   000002 115007                    CMPA    2,DL
         2 000322   000330 601000 2                  TNZ     s:11797

      458    11796    5                        THEN DCTADR$=PINCRW(B$DS8$,(J-DCTXLO)*SIZEW(LDCT));
PL6.E3A0      #001=DAD$DCT File=DAD$DCT.:E05TSI                                  TUE 07/29/97 12:42 Page:75

  11796  2 000323   200140 136100                    SBLQ    DCTXLO,,AUTO
         2 000324   000030 402003                    MPY     24,DU
         2 000325   000000 036000 xsym               ADLQ    B$DS8$
         2 000326   200166 756100                    STQ     DCTADR$,,AUTO
         2 000327   000333 710000 2                  TRA     s:11798

      459    11797    5                        ELSE DCTADR$=N$DCT$(J);

  11797  2 000330   200004 470500                    LDP0    DCT$$,,AUTO
         2 000331   000000 236106                    LDQ     0,QL,PR0
         2 000332   200166 756100                    STQ     DCTADR$,,AUTO

      460    11798    5                        CALL DAM$MAP(DCTADR$,DCT$) ALTRET(NXTDCTX);

  11798  2 000333   200006 630500                    EPPR0   DCT$,,AUTO
         2 000334   200271 450500                    STP0    X+19,,AUTO
         2 000335   200166 631500                    EPPR1   DCTADR$,,AUTO
         2 000336   200270 451500                    STP1    X+18,,AUTO
         2 000337   200270 630500                    EPPR0   X+18,,AUTO
         2 000340   000020 631400 xsym               EPPR1   B_VECTNIL+16
         2 000341   000000 701000 xent               TSX1    DAM$MAP
         2 000342   000425 702000 2                  TSX2    NXTDCTX

      461    11799    5                        DCTADR$=N$DCT$(J);

  11799  2 000343   200004 470500                    LDP0    DCT$$,,AUTO
         2 000344   200145 720100                    LXL0    J,,AUTO
         2 000345   000000 236110                    LDQ     0,X0,PR0
         2 000346   200166 756100                    STQ     DCTADR$,,AUTO

      462    11800    5                        CALL DIDCT;

  11800  2 000347   000465 701000 2                  TSX1    DIDCT
         2 000350   000000 011000                    NOP     0

      463    11801    5                        END;
PL6.E3A0      #001=DAD$DCT File=DAD$DCT.:E05TSI                                  TUE 07/29/97 12:42 Page:76

  11801  2 000351   000425 710000 2                  TRA     NXTDCTX

      464    11802
      465    11803
      466    11804    4                 CASE(%DA_DCT_NAME);

      467    11805    5                   DO J=DCTXLO TO DCTXHI;

  11805  2 000352   200140 235100                    LDA     DCTXLO,,AUTO
         2 000353   200145 755100                    STA     J,,AUTO
         2 000354   000422 710000 2                  TRA     NXTDCTN+1

      468    11806    6                        IF N$DCT$(J)~=ADDR(NIL) THEN DO;

  11806  2 000355   200004 470500                    LDP0    DCT$$,,AUTO
         2 000356   200145 720100                    LXL0    J,,AUTO
         2 000357   000000 236110                    LDQ     0,X0,PR0
         2 000360   000001 116000 xsym               CMPQ    B_VECTNIL+1
         2 000361   000421 600000 2                  TZE     NXTDCTN

      469    11807    6                             CALL DAM$MAP(N$DCT$(J),DCT$) ALTRET(NXTDCTN);

  11807  2 000362   200006 631500                    EPPR1   DCT$,,AUTO
         2 000363   200271 451500                    STP1    X+19,,AUTO
         2 000364   200145 236100                    LDQ     J,,AUTO
         2 000365   000022 736000                    QLS     18
         2 000366   200004 036100                    ADLQ    DCT$$,,AUTO
         2 000367   200270 756100                    STQ     X+18,,AUTO
         2 000370   200270 630500                    EPPR0   X+18,,AUTO
         2 000371   000020 631400 xsym               EPPR1   B_VECTNIL+16
         2 000372   000000 701000 xent               TSX1    DAM$MAP
         2 000373   000421 702000 2                  TSX2    NXTDCTN

      470    11808    6                            CALL DAA$WILDCOMP(TOP.SUBLK$(I)->OUT.SUBLK$(0)->SYM.COUNT,

  11808  2 000374   200003 470500                    LDP0    @TOP,,AUTO
PL6.E3A0      #001=DAD$DCT File=DAD$DCT.:E05TSI                                  TUE 07/29/97 12:42 Page:77
         2 000375   200144 720100                    LXL0    I,,AUTO
         2 000376   000003 471510                    LDP1    3,X0,PR0
         2 000377   100003 473500                    LDP3    3,,PR1
         2 000400   200135 634500                    EPPR4   NDCT,,AUTO
         2 000401   200272 454500                    STP4    X+20,,AUTO
         2 000402   200006 236100                    LDQ     DCT$,,AUTO
         2 000403   000002 036003                    ADLQ    2,DU
         2 000404   200271 756100                    STQ     X+19,,AUTO
         2 000405   300004 631500                    EPPR1   4,,PR3
         2 000406   200270 451500                    STP1    X+18,,AUTO
         2 000407   200270 630500                    EPPR0   X+18,,AUTO
         2 000410   000021 631400 xsym               EPPR1   B_VECTNIL+17
         2 000411   000000 701000 xent               TSX1    DAA$WILDCOMP
         2 000412   000421 702000 2                  TSX2    NXTDCTN

      471    11809    6                               DCT.DEVNM,NDCT) ALTRET(NXTDCTN);
      472    11810    6                             DCTADR$=N$DCT$(J);

  11810  2 000413   200004 470500                    LDP0    DCT$$,,AUTO
         2 000414   200145 720100                    LXL0    J,,AUTO
         2 000415   000000 236110                    LDQ     0,X0,PR0
         2 000416   200166 756100                    STQ     DCTADR$,,AUTO

      473    11811    6                             CALL DIDCT;

  11811  2 000417   000465 701000 2                  TSX1    DIDCT
         2 000420   000000 011000                    NOP     0

      474    11812    6   NXTDCTN:                  END;

  11812  2 000421                       NXTDCTN      null
      475    11813    5                        END;

  11813  2 000421   200145 054100                    AOS     J,,AUTO
         2 000422   200145 236100                    LDQ     J,,AUTO
         2 000423   200137 116100                    CMPQ    DCTXHI,,AUTO
         2 000424   000355 604400 2                  TMOZ    s:11806
PL6.E3A0      #001=DAD$DCT File=DAD$DCT.:E05TSI                                  TUE 07/29/97 12:42 Page:78

      476    11814
      477    11815    4                   END/*do case*/;

      478    11816    3   NXTDCTX:     END/*do I=0 to nsublks*/;

  11816  2 000425   200144 054100       NXTDCTX      AOS     I,,AUTO
         2 000426   200003 470500                    LDP0    @TOP,,AUTO
         2 000427   000001 236100                    LDQ     1,,PR0
         2 000430   000022 772000                    QRL     18
         2 000431   200144 116100                    CMPQ    I,,AUTO
         2 000432   000263 605400 2                  TPNZ    s:11782

      479    11817    2           END/*else do*/;

      480    11818
      481    11819
      482    11820    1      IF (CMD = %LDCTCMD)

  11820  2 000433   200136 235100                    LDA     CMD,,AUTO
         2 000434   000002 115007                    CMPA    2,DL
         2 000435   000464 601000 2                  TNZ     ALT

      483    11821    2      THEN DO;

      484    11822    2           IF PASS < MAX_PASS

  11822  2 000436   200151 236100                    LDQ     PASS,,AUTO
         2 000437   200152 116100                    CMPQ    MAX_PASS,,AUTO
         2 000440   000444 603000 2                  TRC     s:11829

      485    11823    3           THEN DO;

      486    11824    3                PASS = PASS+1;

  11824  2 000441   000001 036007                    ADLQ    1,DL
         2 000442   200151 756100                    STQ     PASS,,AUTO
PL6.E3A0      #001=DAD$DCT File=DAD$DCT.:E05TSI                                  TUE 07/29/97 12:42 Page:79

      487    11825    3                GOTO DISP_LDCT_LOOP;

  11825  2 000443   000212 710000 2                  TRA     DISP_LDCT_LOOP

      488    11826    3                END;
      489    11827
      490    11828    3           ELSE DO;

      491    11829    3                IF LDCT_TYPE =            1/*display all fields*/

  11829  2 000444   200150 235100                    LDA     LDCT_TYPE,,AUTO
         2 000445   000001 115007                    CMPA    1,DL
         2 000446   000464 601000 2                  TNZ     ALT
         2 000447   200003 470500                    LDP0    @TOP,,AUTO
         2 000450   000001 220100                    LDX0    1,,PR0
         2 000451   000001 100003                    CMPX0   1,DU
         2 000452   000464 601000 2                  TNZ     ALT
         2 000453   000000 236000 xsym               LDQ     DA_ANLZERR
         2 000454   377770 316007                    CANQ    131064,DL
         2 000455   000464 601000 2                  TNZ     ALT

      492    11830    3                  AND TOP.NSUBLKS = 1     AND     DA_ANLZERR.CODE=0
      493    11831    4                THEN DO;

      494    11832    4                     IF TOP.SUBLK$(0)->OUT.CODE = %DA_DCT_NUM

  11832  2 000456   000003 471500                    LDP1    3,,PR0
         2 000457   100000 721100                    LXL1    0,,PR1
         2 000460   000001 101003                    CMPX1   1,DU
         2 000461   000464 601000 2                  TNZ     ALT

      495    11833    4                     THEN CALL DISP_A_LDCT;

  11833  2 000462   002500 701000 2                  TSX1    DISP_A_LDCT
         2 000463   000000 011000                    NOP     0

PL6.E3A0      #001=DAD$DCT File=DAD$DCT.:E05TSI                                  TUE 07/29/97 12:42 Page:80
      496    11834    4                     END;

      497    11835    3                END;

      498    11836    2           END;

      499    11837
      500    11838    1   ALT: RETURN;

  11838  2 000464   000000 702200 xent  ALT          TSX2  ! X66_ARET

      501    11839        %EJECT;
PL6.E3A0      #001=DAD$DCT File=DAD$DCT.:E05TSI                                  TUE 07/29/97 12:42 Page:81
      502    11840    1   DIDCT: PROC;

  11840  2 000465   200244 741300       DIDCT        STX1  ! IC+1,,AUTO

      503    11841    3      DO CASE(CMD);

  11841  2 000466   200136 235100                    LDA     CMD,,AUTO
         2 000467   000004 115007                    CMPA    4,DL
         2 000470   000472 602005 2                  TNC     s:11841+4,AL
         2 000471   000506 710000 2                  TRA     s:11849
         2 000472   000506 710000 2                  TRA     s:11849
         2 000473   000476 710000 2                  TRA     s:11843
         2 000474   000501 710000 2                  TRA     s:11845
         2 000475   000504 710000 2                  TRA     s:11847

      504    11842    3       CASE(%DCTCMD);

      505    11843    3         CALL DISP_DCT;

  11843  2 000476   002165 701000 2                  TSX1    DISP_DCT
         2 000477   000000 011000                    NOP     0
         2 000500   000506 710000 2                  TRA     s:11849

      506    11844    3       CASE(%LDCTCMD);

      507    11845    3         CALL DISP_LDCT;

  11845  2 000501   000745 701000 2                  TSX1    DISP_LDCT
         2 000502   000000 011000                    NOP     0
         2 000503   000506 710000 2                  TRA     s:11849

      508    11846    3       CASE(%MDCTCMD);

      509    11847    3         CALL DISP_MDCT;

  11847  2 000504   000510 701000 2                  TSX1    DISP_MDCT
         2 000505   000000 011000                    NOP     0
PL6.E3A0      #001=DAD$DCT File=DAD$DCT.:E05TSI                                  TUE 07/29/97 12:42 Page:82

      510    11848    3         END;

      511    11849    2      RETURN;

  11849  2 000506   200244 221300                    LDX1  ! IC+1,,AUTO
         2 000507   000001 702211                    TSX2  ! 1,X1

      512    11850    2   END DIDCT;
      513    11851        %EJECT;
PL6.E3A0      #001=DAD$DCT File=DAD$DCT.:E05TSI                                  TUE 07/29/97 12:42 Page:83
      514    11852    1   DISP_MDCT: PROC;

  11852  2 000510   200246 741300       DISP_MDCT    STX1  ! @CODE+1,,AUTO

      515    11853    2      DCTX=DCT.DCTX;

  11853  2 000511   200006 470500                    LDP0    DCT$,,AUTO
         2 000512   000006 236100                    LDQ     6,,PR0
         2 000513   000025 772000                    QRL     21
         2 000514   200160 756100                    STQ     DCTX,,AUTO

      516    11854    2      DEVNM=DCT.DEVNM;

  11854  2 000515   040100 100500                    MLR     fill='040'O
         2 000516   000002 000010                    ADSC9   2,,PR0                   cn=0,n=8
         2 000517   200161 000010                    ADSC9   DEVNM,,AUTO              cn=0,n=8

      517    11855    2      IF DCT.DP.MIRROR.FLAG THEN

  11855  2 000520   000036 234100                    SZN     30,,PR0
         2 000521   000537 605000 2                  TPL     s:11861

      518    11856    2           IF DCT.DP.MIRROR.PRI THEN

  11856  2 000522   000036 236100                    LDQ     30,,PR0
         2 000523   020000 316003                    CANQ    8192,DU
         2 000524   000532 600000 2                  TZE     s:11859

      519    11857    2                MIR = 'PRI';

  11857  2 000525   000646 236000 0                  LDQ     MIR_STATE+6
         2 000526   000012 376000 3                  ANQ     10
         2 000527   000040 276007                    ORQ     32,DL
         2 000530   200236 756100                    STQ     MIR,,AUTO
         2 000531   000543 710000 2                  TRA     s:11862

      520    11858    2           ELSE
PL6.E3A0      #001=DAD$DCT File=DAD$DCT.:E05TSI                                  TUE 07/29/97 12:42 Page:84
      521    11859    2                MIR = 'SEC';

  11859  2 000532   000647 236000 0                  LDQ     MIR_STATE+7
         2 000533   000012 376000 3                  ANQ     10
         2 000534   000040 276007                    ORQ     32,DL
         2 000535   200236 756100                    STQ     MIR,,AUTO
         2 000536   000543 710000 2                  TRA     s:11862

      522    11860    2      ELSE
      523    11861    2           MIR = 'NO';

  11861  2 000537   000650 236000 0                  LDQ     MIR_STATE+8
         2 000540   777777 376003                    ANQ     -1,DU
         2 000541   040040 276007                    ORQ     16416,DL
         2 000542   200236 756100                    STQ     MIR,,AUTO

      524    11862    2      MDCTX = DCT.DP.MIRROR.DCTX;

  11862  2 000543   000037 236100                    LDQ     31,,PR0
         2 000544   000022 772000                    QRL     18
         2 000545   200235 756100                    STQ     MDCTX,,AUTO

      525    11863    2      STATE = MIR_STATE(DCT.DP.MIRROR.STATE);

  11863  2 000546   000036 236100                    LDQ     30,,PR0
         2 000547   000030 772000                    QRL     24
         2 000550   000077 376007                    ANQ     63,DL
         2 000551   000002 736000                    QLS     2
         2 000552   040100 100406                    MLR     fill='040'O
         2 000553   000640 000004 0                  ADSC9   MIR_STATE,Q              cn=0,n=4
         2 000554   200174 000005                    ADSC9   STATE,,AUTO              cn=0,n=5

      526    11864    2      UTS = DCT.DP.MIRROR.UTS;

  11864  2 000555   000040 235100                    LDA     32,,PR0
         2 000556   200240 755100                    STA     UTS,,AUTO

PL6.E3A0      #001=DAD$DCT File=DAD$DCT.:E05TSI                                  TUE 07/29/97 12:42 Page:85
      527    11865    2      TDUSER = DCT.DP.MIRROR.USER#;

  11865  2 000557   000036 236100                    LDQ     30,,PR0
         2 000560   000777 376007                    ANQ     511,DL
         2 000561   200176 756100                    STQ     TDUSER,,AUTO

      528    11866    2      IF DCT.DP.MIRROR.LOCK THEN

  11866  2 000562   000036 236100                    LDQ     30,,PR0
         2 000563   040000 316003                    CANQ    16384,DU
         2 000564   000572 600000 2                  TZE     s:11869

      529    11867    2           LOCK = 'YES';

  11867  2 000565   000651 236000 0                  LDQ     MIR_STATE+9
         2 000566   000012 376000 3                  ANQ     10
         2 000567   000040 276007                    ORQ     32,DL
         2 000570   200234 756100                    STQ     LOCK,,AUTO
         2 000571   000576 710000 2                  TRA     s:11870

      530    11868    2      ELSE
      531    11869    2           LOCK = 'NO';

  11869  2 000572   000650 236000 0                  LDQ     MIR_STATE+8
         2 000573   777777 376003                    ANQ     -1,DU
         2 000574   040040 276007                    ORQ     16416,DL
         2 000575   200234 756100                    STQ     LOCK,,AUTO

      532    11870    2      LQ$ = DCT.DP.MIRROR.LQ$;

  11870  2 000576   000042 236100                    LDQ     34,,PR0
         2 000577   200237 756100                    STQ     LQ$,,AUTO

      533    11871    2      DRZERO = DCT.DP.MIRROR.DRZERO;

  11871  2 000600   000041 235100                    LDA     33,,PR0
         2 000601   200233 755100                    STA     DRZERO,,AUTO
PL6.E3A0      #001=DAD$DCT File=DAD$DCT.:E05TSI                                  TUE 07/29/97 12:42 Page:86

      534    11872    2      CALL DAF$WRITE(VECTOR(MDCTFMT),
      535    11873    2        VECTOR(DCTX),
      536    11874    2        VECTOR(DEVNM),
      537    11875    2        VECTOR(MIR),
      538    11876    2        VECTOR(MDCTX),
      539    11877    2        VECTOR(STATE),
      540    11878    2        VECTOR(UTS),
      541    11879    2        VECTOR(LOCK),
      542    11880    2        VECTOR(TDUSER),
      543    11881    2        VECTOR(LQ$),

  11881  2 000602   777640 235007                    LDA     -96,DL
         2 000603   200270 452500                    STP2    X+18,,AUTO
         2 000604   200270 236100                    LDQ     X+18,,AUTO
         2 000605   000160 036003                    ADLQ    112,DU
         2 000606   200272 757100                    STAQ    X+20,,AUTO
         2 000607   000013 235000 3                  LDA     11
         2 000610   200274 452500                    STP2    X+22,,AUTO
         2 000611   200274 236100                    LDQ     X+22,,AUTO
         2 000612   000161 036003                    ADLQ    113,DU
         2 000613   200276 757100                    STAQ    X+24,,AUTO
         2 000614   577640 235007                    LDA     -65632,DL
         2 000615   200300 452500                    STP2    X+26,,AUTO
         2 000616   200300 236100                    LDQ     X+26,,AUTO
         2 000617   000236 036003                    ADLQ    158,DU
         2 000620   200302 757100                    STAQ    X+28,,AUTO
         2 000621   777640 235007                    LDA     -96,DL
         2 000622   200304 452500                    STP2    X+30,,AUTO
         2 000623   200304 236100                    LDQ     X+30,,AUTO
         2 000624   000235 036003                    ADLQ    157,DU
         2 000625   200306 757100                    STAQ    X+32,,AUTO
         2 000626   000016 235000 3                  LDA     14
         2 000627   200310 452500                    STP2    X+34,,AUTO
         2 000630   200310 236100                    LDQ     X+34,,AUTO
         2 000631   000174 036003                    ADLQ    124,DU
         2 000632   200312 757100                    STAQ    X+36,,AUTO
PL6.E3A0      #001=DAD$DCT File=DAD$DCT.:E05TSI                                  TUE 07/29/97 12:42 Page:87
         2 000633   777640 235007                    LDA     -96,DL
         2 000634   200314 452500                    STP2    X+38,,AUTO
         2 000635   200314 236100                    LDQ     X+38,,AUTO
         2 000636   000240 036003                    ADLQ    160,DU
         2 000637   200316 757100                    STAQ    X+40,,AUTO
         2 000640   777640 235007                    LDA     -96,DL
         2 000641   200320 452500                    STP2    X+42,,AUTO
         2 000642   200320 236100                    LDQ     X+42,,AUTO
         2 000643   000234 036003                    ADLQ    156,DU
         2 000644   200322 757100                    STAQ    X+44,,AUTO
         2 000645   777640 235007                    LDA     -96,DL
         2 000646   200324 452500                    STP2    X+46,,AUTO
         2 000647   200324 236100                    LDQ     X+46,,AUTO
         2 000650   000176 036003                    ADLQ    126,DU
         2 000651   200326 757100                    STAQ    X+48,,AUTO
         2 000652   777640 235007                    LDA     -96,DL
         2 000653   200330 452500                    STP2    X+50,,AUTO
         2 000654   200330 236100                    LDQ     X+50,,AUTO
         2 000655   000237 036003                    ADLQ    159,DU
         2 000656   200332 757100                    STAQ    X+52,,AUTO
         2 000657   777640 235007                    LDA     -96,DL
         2 000660   200334 452500                    STP2    X+54,,AUTO
         2 000661   200334 236100                    LDQ     X+54,,AUTO
         2 000662   000233 036003                    ADLQ    155,DU
         2 000663   200340 757100                    STAQ    X+58,,AUTO
         2 000664   200272 237100                    LDAQ    X+20,,AUTO
         2 000665   200336 757100                    STAQ    X+56,,AUTO
         2 000666   200276 237100                    LDAQ    X+24,,AUTO
         2 000667   200342 757100                    STAQ    X+60,,AUTO
         2 000670   200302 237100                    LDAQ    X+28,,AUTO
         2 000671   200344 757100                    STAQ    X+62,,AUTO
         2 000672   200306 237100                    LDAQ    X+32,,AUTO
         2 000673   200346 757100                    STAQ    X+64,,AUTO
         2 000674   200312 237100                    LDAQ    X+36,,AUTO
         2 000675   200350 757100                    STAQ    X+66,,AUTO
         2 000676   200316 237100                    LDAQ    X+40,,AUTO
         2 000677   200352 757100                    STAQ    X+68,,AUTO
PL6.E3A0      #001=DAD$DCT File=DAD$DCT.:E05TSI                                  TUE 07/29/97 12:42 Page:88
         2 000700   200322 237100                    LDAQ    X+44,,AUTO
         2 000701   200354 757100                    STAQ    X+70,,AUTO
         2 000702   200326 237100                    LDAQ    X+48,,AUTO
         2 000703   200356 757100                    STAQ    X+72,,AUTO
         2 000704   200332 237100                    LDAQ    X+52,,AUTO
         2 000705   200360 757100                    STAQ    X+74,,AUTO
         2 000706   200340 237100                    LDAQ    X+58,,AUTO
         2 000707   200362 757100                    STAQ    X+76,,AUTO
         2 000710   200362 631500                    EPPR1   X+76,,AUTO
         2 000711   200376 451500                    STP1    X+88,,AUTO
         2 000712   200360 633500                    EPPR3   X+74,,AUTO
         2 000713   200375 453500                    STP3    X+87,,AUTO
         2 000714   200356 634500                    EPPR4   X+72,,AUTO
         2 000715   200374 454500                    STP4    X+86,,AUTO
         2 000716   200354 635500                    EPPR5   X+70,,AUTO
         2 000717   200373 455500                    STP5    X+85,,AUTO
         2 000720   200352 636500                    EPPR6   X+68,,AUTO
         2 000721   200372 456500                    STP6    X+84,,AUTO
         2 000722   200350 637500                    EPPR7   X+66,,AUTO
         2 000723   200371 457500                    STP7    X+83,,AUTO
         2 000724   200346 630500                    EPPR0   X+64,,AUTO
         2 000725   200370 450500                    STP0    X+82,,AUTO
         2 000726   200344 630500                    EPPR0   X+62,,AUTO
         2 000727   200367 450500                    STP0    X+81,,AUTO
         2 000730   200342 630500                    EPPR0   X+60,,AUTO
         2 000731   200366 450500                    STP0    X+80,,AUTO
         2 000732   200336 630500                    EPPR0   X+56,,AUTO
         2 000733   200365 450500                    STP0    X+79,,AUTO
         2 000734   000020 236000 3                  LDQ     16
         2 000735   200364 756100                    STQ     X+78,,AUTO
         2 000736   200364 630500                    EPPR0   X+78,,AUTO
         2 000737   000000 220000 xsym               LDX0    DAF$WRITE
         2 000740   000017 631400 3                  EPPR1   15
         2 000741   000000 701010                    TSX1    0,X0
         2 000742   000000 011000                    NOP     0

      544    11882    2        VECTOR(DRZERO));
PL6.E3A0      #001=DAD$DCT File=DAD$DCT.:E05TSI                                  TUE 07/29/97 12:42 Page:89
      545    11883    2      RETURN;

  11883  2 000743   200246 221300                    LDX1  ! @CODE+1,,AUTO
         2 000744   000001 702211                    TSX2  ! 1,X1

      546    11884    2   END DISP_MDCT;
      547    11885        %EJECT;
PL6.E3A0      #001=DAD$DCT File=DAD$DCT.:E05TSI                                  TUE 07/29/97 12:42 Page:90
      548    11886    1   DISP_LDCT: PROC;

  11886  2 000745   200246 741300       DISP_LDCT    STX1  ! @CODE+1,,AUTO

      549    11887    2      CALL XLATE(DEVNM,DA_PRINTABLE_TBL,LDCT.DEVNM);

  11887  2 000746   200006 470500                    LDP0    DCT$,,AUTO
         2 000747   000000 471400 xsym               LDP1    B$XL_ASC_DUMP$
         2 000750   040100 160500                    MVT     fill='040'O
         2 000751   000002 000010                    ADSC9   2,,PR0                   cn=0,n=8
         2 000752   200161 000010                    ADSC9   DEVNM,,AUTO              cn=0,n=8
         2 000753   100000 000100                    ARG     0,,PR1

      550    11888    2      DFLG=BITBIN(LDCT.DFLG) *16;

  11888  2 000754   000006 236100                    LDQ     6,,PR0
         2 000755   000004 772000                    QRL     4
         2 000756   037777 376007                    ANQ     16383,DL
         2 000757   000004 736000                    QLS     4
         2 000760   200165 756100                    STQ     DFLG,,AUTO

      551    11889    2      LKFLG=BITBIN(LDCT.LKFLG);

  11889  2 000761   000011 236100                    LDQ     9,,PR0
         2 000762   000022 772000                    QRL     18
         2 000763   200221 756100                    STQ     LKFLG,,AUTO

      552    11890    2      QFL=BITBIN(LDCT.QFL) *4;

  11890  2 000764   000010 236100                    LDQ     8,,PR0
         2 000765   000002 772000                    QRL     2
         2 000766   000177 376007                    ANQ     127,DL
         2 000767   000002 736000                    QLS     2
         2 000770   200222 756100                    STQ     QFL,,AUTO

      553    11891    2      LDCT_GEN=LDCT.GENERATION;

PL6.E3A0      #001=DAD$DCT File=DAD$DCT.:E05TSI                                  TUE 07/29/97 12:42 Page:91
  11891  2 000771   000014 236100                    LDQ     12,,PR0
         2 000772   000022 772000                    QRL     18
         2 000773   000377 376007                    ANQ     255,DL
         2 000774   200212 756100                    STQ     LDCT_GEN,,AUTO

      554    11892
      555    11893    2      IF LDCT.RESCOD <= %NK_RESCOD_HI#

  11893  2 000775   000006 236100                    LDQ     6,,PR0
         2 000776   000017 376007                    ANQ     15,DL
         2 000777   000017 116007                    CMPQ    15,DL
         2 001000   001006 603000 2                  TRC     s:11895

      556    11894    2      THEN RESCOD = NK_RESCOD_TXT(LDCT.RESCOD);

  11894  2 001001   000011 402007                    MPY     9,DL
         2 001002   040100 100406                    MLR     fill='040'O
         2 001003   000025 000011 0                  ADSC9   NK_RESCOD_TXT,Q          cn=0,n=9
         2 001004   200207 000011                    ADSC9   RESCOD,,AUTO             cn=0,n=9
         2 001005   001013 710000 2                  TRA     s:11897

      557    11895    2      ELSE CALL BINCHAR(RESCOD,LDCT.RESCOD);

  11895  2 001006   000000 235003                    LDA     0,DU
         2 001007   200270 757100                    STAQ    X+18,,AUTO
         2 001010   000100 301500                    BTD
         2 001011   200270 000010                    NDSC9   X+18,,AUTO               cn=0,s=lsgnf,sf=0,n=8
         2 001012   200207 030011                    NDSC9   RESCOD,,AUTO             cn=0,s=nosgn,sf=0,n=9

      558    11896
      559    11897    2      IF LDCT.NOCGREJ THEN NOCGR='Yes '; ELSE NOCGR=' No ';

  11897  2 001013   000007 236100                    LDQ     7,,PR0
         2 001014   004000 316003                    CANQ    2048,DU
         2 001015   001021 600000 2                  TZE     s:11897+6

  11897  2 001016   000652 236000 0                  LDQ     MIR_STATE+10
PL6.E3A0      #001=DAD$DCT File=DAD$DCT.:E05TSI                                  TUE 07/29/97 12:42 Page:92
         2 001017   200213 756100                    STQ     NOCGR,,AUTO
         2 001020   001023 710000 2                  TRA     s:11898

  11897  2 001021   000653 236000 0                  LDQ     MIR_STATE+11
         2 001022   200213 756100                    STQ     NOCGR,,AUTO

      560    11898    2      IF LDCT.NOCGINF THEN NOCGI='Yes '; ELSE NOCGI=' No ';

  11898  2 001023   000007 236100                    LDQ     7,,PR0
         2 001024   002000 316003                    CANQ    1024,DU
         2 001025   001031 600000 2                  TZE     s:11898+6

  11898  2 001026   000652 236000 0                  LDQ     MIR_STATE+10
         2 001027   200214 756100                    STQ     NOCGI,,AUTO
         2 001030   001033 710000 2                  TRA     s:11899

  11898  2 001031   000653 236000 0                  LDQ     MIR_STATE+11
         2 001032   200214 756100                    STQ     NOCGI,,AUTO

      561    11899    2      CLDQ=LDCT.CLDQ;

  11899  2 001033   000010 236100                    LDQ     8,,PR0
         2 001034   000003 376007                    ANQ     3,DL
         2 001035   200227 756100                    STQ     CLDQ,,AUTO

      562    11900
      563    11901    2      RDSOUT=LDCT.RDSOUT;

  11901  2 001036   000007 236100                    LDQ     7,,PR0
         2 001037   000036 772000                    QRL     30
         2 001040   200223 756100                    STQ     RDSOUT,,AUTO

      564    11902
      565    11903    2      IF LDCT.ACCTNG THEN ACCTNG='Yes '; ELSE ACCTNG=' No ';

  11903  2 001041   000007 430100                    FSZN    7,,PR0
         2 001042   001046 605000 2                  TPL     s:11903+5
PL6.E3A0      #001=DAD$DCT File=DAD$DCT.:E05TSI                                  TUE 07/29/97 12:42 Page:93

  11903  2 001043   000652 236000 0                  LDQ     MIR_STATE+10
         2 001044   200215 756100                    STQ     ACCTNG,,AUTO
         2 001045   001050 710000 2                  TRA     s:11905

  11903  2 001046   000653 236000 0                  LDQ     MIR_STATE+11
         2 001047   200215 756100                    STQ     ACCTNG,,AUTO

      566    11904
      567    11905    2      L_LOCK.W1 = ADDR(LDCT.LOCK)->B$LOCK.W1;

  11905  2 001050   000020 236100                    LDQ     16,,PR0
         2 001051   200217 756100                    STQ     L_LOCK,,AUTO

      568    11906    2      L_LOCK.W2 = ADDR(LDCT.LOCK)->B$LOCK.W2;

  11906  2 001052   000021 236100                    LDQ     17,,PR0
         2 001053   200220 756100                    STQ     L_LOCK+1,,AUTO

      569    11907
      570    11908        /*
      571    11909                TTYP=LDCT.TERMID.TTYP;
      572    11910                CURTH=LDCT.TH.MAXRCRBYTSIZ;
      573    11911                MAXTH=LDCT.TH.MAXNMBBYT;
      574    11912        */
      575    11913    2      IF PASS=1

  11913  2 001054   200151 235100                    LDA     PASS,,AUTO
         2 001055   000001 115007                    CMPA    1,DL
         2 001056   001273 601000 2                  TNZ     s:11943

      576    11914    3      THEN DO;

      577    11915    3           IF HEADER1 = 0

  11915  2 001057   200153 235100                    LDA     HEADER1,,AUTO
         2 001060   001115 601000 2                  TNZ     s:11936
PL6.E3A0      #001=DAD$DCT File=DAD$DCT.:E05TSI                                  TUE 07/29/97 12:42 Page:94

      578    11916    4           THEN DO;

      579    11917    4                IF LDCT_TYPE = 0

  11917  2 001061   200150 235100                    LDA     LDCT_TYPE,,AUTO
         2 001062   001070 601000 2                  TNZ     s:11920

      580    11918    4                THEN CALL DAF$INIT(LDCTRPT);

  11918  2 001063   000021 630400 3                  EPPR0   17
         2 001064   000017 631400 xsym               EPPR1   B_VECTNIL+15
         2 001065   000000 701000 xent               TSX1    DAF$INIT
         2 001066   000000 011000                    NOP     0
         2 001067   001113 710000 2                  TRA     s:11925

      581    11919    5                ELSE DO;

      582    11920    5                     CALL DAF$INIT(LDCTRPT_NHDR);

  11920  2 001070   000022 630400 3                  EPPR0   18
         2 001071   000017 631400 xsym               EPPR1   B_VECTNIL+15
         2 001072   000000 701000 xent               TSX1    DAF$INIT
         2 001073   000000 011000                    NOP     0

      583    11921    5                     CALL DAF$WRITE(VECTOR(BLANK_LINE));

  11921  2 001074   000026 630400 3                  EPPR0   22
         2 001075   000000 220000 xsym               LDX0    DAF$WRITE
         2 001076   000017 631400 xsym               EPPR1   B_VECTNIL+15
         2 001077   000000 701010                    TSX1    0,X0
         2 001100   000000 011000                    NOP     0

      584    11922    5                     CALL DAF$WRITE(VECTOR(LDCTRPTTX01.C));

  11922  2 001101   000032 630400 3                  EPPR0   26
         2 001102   000000 220000 xsym               LDX0    DAF$WRITE
PL6.E3A0      #001=DAD$DCT File=DAD$DCT.:E05TSI                                  TUE 07/29/97 12:42 Page:95
         2 001103   000017 631400 xsym               EPPR1   B_VECTNIL+15
         2 001104   000000 701010                    TSX1    0,X0
         2 001105   000000 011000                    NOP     0

      585    11923    5                     CALL DAF$WRITE(VECTOR(LDCTRPTTX02.C));

  11923  2 001106   000036 630400 3                  EPPR0   30
         2 001107   000000 220000 xsym               LDX0    DAF$WRITE
         2 001110   000017 631400 xsym               EPPR1   B_VECTNIL+15
         2 001111   000000 701010                    TSX1    0,X0
         2 001112   000000 011000                    NOP     0

      586    11924    5                     END;

      587    11925    4                HEADER1 = 1;

  11925  2 001113   000001 235007                    LDA     1,DL
         2 001114   200153 755100                    STA     HEADER1,,AUTO

      588    11926    4                END;

      589    11927
      590    11928    3           CALL DAF$WRITE(VECTOR(LDCTFMT1),
      591    11929    3             VECTOR(LDCT.LDCTX),
      592    11930    3             VECTOR(DEVNM),
      593    11931    3             VECTOR(RESCOD),
      594    11932    3             VECTOR(DCTADR$),
      595    11933    3             VECTOR(LDCT.USER),
      596    11934    3             VECTOR(LDCT_GEN),
      597    11935    3             VECTOR(LDCT.RLCID.NODE),
      598    11936    3             VECTOR(LDCT.RLCID.GENERATION),

  11936  2 001115   377640 235007                    LDA     130976,DL
         2 001116   200006 236100                    LDQ     DCT$,,AUTO
         2 001117   000006 036003                    ADLQ    6,DU
         2 001120   200270 757100                    STAQ    X+18,,AUTO
         2 001121   000013 235000 3                  LDA     11
PL6.E3A0      #001=DAD$DCT File=DAD$DCT.:E05TSI                                  TUE 07/29/97 12:42 Page:96
         2 001122   200272 452500                    STP2    X+20,,AUTO
         2 001123   200272 236100                    LDQ     X+20,,AUTO
         2 001124   000161 036003                    ADLQ    113,DU
         2 001125   200274 757100                    STAQ    X+22,,AUTO
         2 001126   000042 235000 3                  LDA     34
         2 001127   200276 452500                    STP2    X+24,,AUTO
         2 001130   200276 236100                    LDQ     X+24,,AUTO
         2 001131   000207 036003                    ADLQ    135,DU
         2 001132   200300 757100                    STAQ    X+26,,AUTO
         2 001133   777640 235007                    LDA     -96,DL
         2 001134   200302 452500                    STP2    X+28,,AUTO
         2 001135   200302 236100                    LDQ     X+28,,AUTO
         2 001136   000166 036003                    ADLQ    118,DU
         2 001137   200304 757100                    STAQ    X+30,,AUTO
         2 001140   177640 235007                    LDA     65440,DL
         2 001141   200006 236100                    LDQ     DCT$,,AUTO
         2 001142   000043 036000 3                  ADLQ    35
         2 001143   200306 757100                    STAQ    X+32,,AUTO
         2 001144   777640 235007                    LDA     -96,DL
         2 001145   200310 452500                    STP2    X+34,,AUTO
         2 001146   200310 236100                    LDQ     X+34,,AUTO
         2 001147   000212 036003                    ADLQ    138,DU
         2 001150   200312 757100                    STAQ    X+36,,AUTO
         2 001151   177640 235007                    LDA     65440,DL
         2 001152   200006 236100                    LDQ     DCT$,,AUTO
         2 001153   000015 036003                    ADLQ    13,DU
         2 001154   200314 757100                    STAQ    X+38,,AUTO
         2 001155   177640 235007                    LDA     65440,DL
         2 001156   200006 236100                    LDQ     DCT$,,AUTO
         2 001157   000044 036000 3                  ADLQ    36
         2 001160   200316 757100                    STAQ    X+40,,AUTO
         2 001161   377640 235007                    LDA     130976,DL
         2 001162   200006 236100                    LDQ     DCT$,,AUTO
         2 001163   000045 036000 3                  ADLQ    37
         2 001164   200320 757100                    STAQ    X+42,,AUTO
         2 001165   777640 235007                    LDA     -96,DL
         2 001166   200322 452500                    STP2    X+44,,AUTO
PL6.E3A0      #001=DAD$DCT File=DAD$DCT.:E05TSI                                  TUE 07/29/97 12:42 Page:97
         2 001167   200322 236100                    LDQ     X+44,,AUTO
         2 001170   000165 036003                    ADLQ    117,DU
         2 001171   200324 757100                    STAQ    X+46,,AUTO
         2 001172   777640 235007                    LDA     -96,DL
         2 001173   200326 452500                    STP2    X+48,,AUTO
         2 001174   200326 236100                    LDQ     X+48,,AUTO
         2 001175   000221 036003                    ADLQ    145,DU
         2 001176   200330 757100                    STAQ    X+50,,AUTO
         2 001177   777640 235007                    LDA     -96,DL
         2 001200   200332 452500                    STP2    X+52,,AUTO
         2 001201   200332 236100                    LDQ     X+52,,AUTO
         2 001202   000222 036003                    ADLQ    146,DU
         2 001203   200336 757100                    STAQ    X+56,,AUTO
         2 001204   200270 237100                    LDAQ    X+18,,AUTO
         2 001205   200334 757100                    STAQ    X+54,,AUTO
         2 001206   200274 237100                    LDAQ    X+22,,AUTO
         2 001207   200340 757100                    STAQ    X+58,,AUTO
         2 001210   200300 237100                    LDAQ    X+26,,AUTO
         2 001211   200342 757100                    STAQ    X+60,,AUTO
         2 001212   200304 237100                    LDAQ    X+30,,AUTO
         2 001213   200344 757100                    STAQ    X+62,,AUTO
         2 001214   200306 237100                    LDAQ    X+32,,AUTO
         2 001215   200346 757100                    STAQ    X+64,,AUTO
         2 001216   200312 237100                    LDAQ    X+36,,AUTO
         2 001217   200350 757100                    STAQ    X+66,,AUTO
         2 001220   200314 237100                    LDAQ    X+38,,AUTO
         2 001221   200352 757100                    STAQ    X+68,,AUTO
         2 001222   200316 237100                    LDAQ    X+40,,AUTO
         2 001223   200354 757100                    STAQ    X+70,,AUTO
         2 001224   200320 237100                    LDAQ    X+42,,AUTO
         2 001225   200356 757100                    STAQ    X+72,,AUTO
         2 001226   200324 237100                    LDAQ    X+46,,AUTO
         2 001227   200360 757100                    STAQ    X+74,,AUTO
         2 001230   200330 237100                    LDAQ    X+50,,AUTO
         2 001231   200362 757100                    STAQ    X+76,,AUTO
         2 001232   200336 237100                    LDAQ    X+56,,AUTO
         2 001233   200364 757100                    STAQ    X+78,,AUTO
PL6.E3A0      #001=DAD$DCT File=DAD$DCT.:E05TSI                                  TUE 07/29/97 12:42 Page:98
         2 001234   200364 630500                    EPPR0   X+78,,AUTO
         2 001235   200402 450500                    STP0    X+92,,AUTO
         2 001236   200362 631500                    EPPR1   X+76,,AUTO
         2 001237   200401 451500                    STP1    X+91,,AUTO
         2 001240   200360 633500                    EPPR3   X+74,,AUTO
         2 001241   200400 453500                    STP3    X+90,,AUTO
         2 001242   200356 634500                    EPPR4   X+72,,AUTO
         2 001243   200377 454500                    STP4    X+89,,AUTO
         2 001244   200354 635500                    EPPR5   X+70,,AUTO
         2 001245   200376 455500                    STP5    X+88,,AUTO
         2 001246   200352 636500                    EPPR6   X+68,,AUTO
         2 001247   200375 456500                    STP6    X+87,,AUTO
         2 001250   200350 637500                    EPPR7   X+66,,AUTO
         2 001251   200374 457500                    STP7    X+86,,AUTO
         2 001252   200346 630500                    EPPR0   X+64,,AUTO
         2 001253   200373 450500                    STP0    X+85,,AUTO
         2 001254   200344 630500                    EPPR0   X+62,,AUTO
         2 001255   200372 450500                    STP0    X+84,,AUTO
         2 001256   200342 630500                    EPPR0   X+60,,AUTO
         2 001257   200371 450500                    STP0    X+83,,AUTO
         2 001260   200340 630500                    EPPR0   X+58,,AUTO
         2 001261   200370 450500                    STP0    X+82,,AUTO
         2 001262   200334 630500                    EPPR0   X+54,,AUTO
         2 001263   200367 450500                    STP0    X+81,,AUTO
         2 001264   000047 236000 3                  LDQ     39
         2 001265   200366 756100                    STQ     X+80,,AUTO
         2 001266   200366 630500                    EPPR0   X+80,,AUTO
         2 001267   000000 220000 xsym               LDX0    DAF$WRITE
         2 001270   000046 631400 3                  EPPR1   38
         2 001271   000000 701010                    TSX1    0,X0
         2 001272   000000 011000                    NOP     0

      599    11937    3             VECTOR(LDCT.RLCID.LDCTX),
      600    11938    3             VECTOR(DFLG),
      601    11939    3             VECTOR(LKFLG),
      602    11940    3             VECTOR(QFL));
      603    11941    3           END/*pass 1*/;
PL6.E3A0      #001=DAD$DCT File=DAD$DCT.:E05TSI                                  TUE 07/29/97 12:42 Page:99

      604    11942
      605    11943    2      IF PASS=2

  11943  2 001273   200151 235100                    LDA     PASS,,AUTO
         2 001274   000002 115007                    CMPA    2,DL
         2 001275   001464 601000 2                  TNZ     s:11969

      606    11944    3      THEN DO;

      607    11945    3           IF HEADER2 = 0

  11945  2 001276   200154 236100                    LDQ     HEADER2,,AUTO
         2 001277   001321 601000 2                  TNZ     s:11960

      608    11946    4           THEN DO;

      609    11947    4                CALL DAF$WRITE(VECTOR(BLANK_LINE));

  11947  2 001300   000026 630400 3                  EPPR0   22
         2 001301   000000 220000 xsym               LDX0    DAF$WRITE
         2 001302   000017 631400 xsym               EPPR1   B_VECTNIL+15
         2 001303   000000 701010                    TSX1    0,X0
         2 001304   000000 011000                    NOP     0

      610    11948    4                CALL DAF$WRITE(VECTOR(LDCTRPT2TX00.C));

  11948  2 001305   000052 630400 3                  EPPR0   42
         2 001306   000000 220000 xsym               LDX0    DAF$WRITE
         2 001307   000017 631400 xsym               EPPR1   B_VECTNIL+15
         2 001310   000000 701010                    TSX1    0,X0
         2 001311   000000 011000                    NOP     0

      611    11949    4                CALL DAF$WRITE(VECTOR(LDCTRPT2TX01.C));

  11949  2 001312   000056 630400 3                  EPPR0   46
         2 001313   000000 220000 xsym               LDX0    DAF$WRITE
PL6.E3A0      #001=DAD$DCT File=DAD$DCT.:E05TSI                                  TUE 07/29/97 12:42 Page:100
         2 001314   000017 631400 xsym               EPPR1   B_VECTNIL+15
         2 001315   000000 701010                    TSX1    0,X0
         2 001316   000000 011000                    NOP     0

      612    11950    4                HEADER2 = 1;

  11950  2 001317   000001 235007                    LDA     1,DL
         2 001320   200154 755100                    STA     HEADER2,,AUTO

      613    11951    4                END;

      614    11952
      615    11953    3           CALL DAF$WRITE(VECTOR(LDCTFMT2),
      616    11954    3             VECTOR(LDCT.LDCTX),
      617    11955    3             VECTOR(LDCT.CG$),
      618    11956    3             VECTOR(LDCT.STA$),
      619    11957    3             VECTOR(RDSOUT),
      620    11958    3             VECTOR(CLDQ),
      621    11959    3             VECTOR(LDCT.TH.STR),
      622    11960    3             VECTOR(LDCT.TH.MAXNMBRCR),

  11960  2 001321   377640 235007                    LDA     130976,DL
         2 001322   200006 236100                    LDQ     DCT$,,AUTO
         2 001323   000006 036003                    ADLQ    6,DU
         2 001324   200270 757100                    STAQ    X+18,,AUTO
         2 001325   777640 235007                    LDA     -96,DL
         2 001326   200006 236100                    LDQ     DCT$,,AUTO
         2 001327   000027 036003                    ADLQ    23,DU
         2 001330   200272 757100                    STAQ    X+20,,AUTO
         2 001331   777640 235007                    LDA     -96,DL
         2 001332   200006 236100                    LDQ     DCT$,,AUTO
         2 001333   000012 036003                    ADLQ    10,DU
         2 001334   200274 757100                    STAQ    X+22,,AUTO
         2 001335   777640 235007                    LDA     -96,DL
         2 001336   200276 452500                    STP2    X+24,,AUTO
         2 001337   200276 236100                    LDQ     X+24,,AUTO
         2 001340   000223 036003                    ADLQ    147,DU
PL6.E3A0      #001=DAD$DCT File=DAD$DCT.:E05TSI                                  TUE 07/29/97 12:42 Page:101
         2 001341   200300 757100                    STAQ    X+26,,AUTO
         2 001342   777640 235007                    LDA     -96,DL
         2 001343   200302 452500                    STP2    X+28,,AUTO
         2 001344   200302 236100                    LDQ     X+28,,AUTO
         2 001345   000227 036003                    ADLQ    151,DU
         2 001346   200304 757100                    STAQ    X+30,,AUTO
         2 001347   177640 235007                    LDA     65440,DL
         2 001350   200006 236100                    LDQ     DCT$,,AUTO
         2 001351   000062 036000 3                  ADLQ    50
         2 001352   200306 757100                    STAQ    X+32,,AUTO
         2 001353   377640 235007                    LDA     130976,DL
         2 001354   200006 236100                    LDQ     DCT$,,AUTO
         2 001355   000063 036000 3                  ADLQ    51
         2 001356   200310 757100                    STAQ    X+34,,AUTO
         2 001357   377640 235007                    LDA     130976,DL
         2 001360   200006 236100                    LDQ     DCT$,,AUTO
         2 001361   000064 036000 3                  ADLQ    52
         2 001362   200312 757100                    STAQ    X+36,,AUTO
         2 001363   377640 235007                    LDA     130976,DL
         2 001364   200006 236100                    LDQ     DCT$,,AUTO
         2 001365   000017 036003                    ADLQ    15,DU
         2 001366   200314 757100                    STAQ    X+38,,AUTO
         2 001367   777640 235007                    LDA     -96,DL
         2 001370   200316 452500                    STP2    X+40,,AUTO
         2 001371   200316 236100                    LDQ     X+40,,AUTO
         2 001372   000213 036003                    ADLQ    139,DU
         2 001373   200320 757100                    STAQ    X+42,,AUTO
         2 001374   777640 235007                    LDA     -96,DL
         2 001375   200322 452500                    STP2    X+44,,AUTO
         2 001376   200322 236100                    LDQ     X+44,,AUTO
         2 001377   000214 036003                    ADLQ    140,DU
         2 001400   200326 757100                    STAQ    X+48,,AUTO
         2 001401   200270 237100                    LDAQ    X+18,,AUTO
         2 001402   200324 757100                    STAQ    X+46,,AUTO
         2 001403   200272 237100                    LDAQ    X+20,,AUTO
         2 001404   200330 757100                    STAQ    X+50,,AUTO
         2 001405   200274 237100                    LDAQ    X+22,,AUTO
PL6.E3A0      #001=DAD$DCT File=DAD$DCT.:E05TSI                                  TUE 07/29/97 12:42 Page:102
         2 001406   200332 757100                    STAQ    X+52,,AUTO
         2 001407   200300 237100                    LDAQ    X+26,,AUTO
         2 001410   200334 757100                    STAQ    X+54,,AUTO
         2 001411   200304 237100                    LDAQ    X+30,,AUTO
         2 001412   200336 757100                    STAQ    X+56,,AUTO
         2 001413   200306 237100                    LDAQ    X+32,,AUTO
         2 001414   200340 757100                    STAQ    X+58,,AUTO
         2 001415   200310 237100                    LDAQ    X+34,,AUTO
         2 001416   200342 757100                    STAQ    X+60,,AUTO
         2 001417   200312 237100                    LDAQ    X+36,,AUTO
         2 001420   200344 757100                    STAQ    X+62,,AUTO
         2 001421   200314 237100                    LDAQ    X+38,,AUTO
         2 001422   200346 757100                    STAQ    X+64,,AUTO
         2 001423   200320 237100                    LDAQ    X+42,,AUTO
         2 001424   200350 757100                    STAQ    X+66,,AUTO
         2 001425   200326 237100                    LDAQ    X+48,,AUTO
         2 001426   200352 757100                    STAQ    X+68,,AUTO
         2 001427   200352 630500                    EPPR0   X+68,,AUTO
         2 001430   200367 450500                    STP0    X+81,,AUTO
         2 001431   200350 631500                    EPPR1   X+66,,AUTO
         2 001432   200366 451500                    STP1    X+80,,AUTO
         2 001433   200346 633500                    EPPR3   X+64,,AUTO
         2 001434   200365 453500                    STP3    X+79,,AUTO
         2 001435   200344 634500                    EPPR4   X+62,,AUTO
         2 001436   200364 454500                    STP4    X+78,,AUTO
         2 001437   200342 635500                    EPPR5   X+60,,AUTO
         2 001440   200363 455500                    STP5    X+77,,AUTO
         2 001441   200340 636500                    EPPR6   X+58,,AUTO
         2 001442   200362 456500                    STP6    X+76,,AUTO
         2 001443   200336 637500                    EPPR7   X+56,,AUTO
         2 001444   200361 457500                    STP7    X+75,,AUTO
         2 001445   200334 630500                    EPPR0   X+54,,AUTO
         2 001446   200360 450500                    STP0    X+74,,AUTO
         2 001447   200332 630500                    EPPR0   X+52,,AUTO
         2 001450   200357 450500                    STP0    X+73,,AUTO
         2 001451   200330 630500                    EPPR0   X+50,,AUTO
         2 001452   200356 450500                    STP0    X+72,,AUTO
PL6.E3A0      #001=DAD$DCT File=DAD$DCT.:E05TSI                                  TUE 07/29/97 12:42 Page:103
         2 001453   200324 630500                    EPPR0   X+46,,AUTO
         2 001454   200355 450500                    STP0    X+71,,AUTO
         2 001455   000066 236000 3                  LDQ     54
         2 001456   200354 756100                    STQ     X+70,,AUTO
         2 001457   200354 630500                    EPPR0   X+70,,AUTO
         2 001460   000000 220000 xsym               LDX0    DAF$WRITE
         2 001461   000065 631400 3                  EPPR1   53
         2 001462   000000 701010                    TSX1    0,X0
         2 001463   000000 011000                    NOP     0

      623    11961    3             VECTOR(LDCT.TH.MAXNMBBYT),
      624    11962    3             VECTOR(LDCT.TH.MAXRCRBYTSIZ),
      625    11963    3             VECTOR(NOCGR),
      626    11964    3             VECTOR(NOCGI));
      627    11965
      628    11966
      629    11967    3           END/*pass 2*/;

      630    11968
      631    11969    2      IF PASS=3

  11969  2 001464   200151 235100                    LDA     PASS,,AUTO
         2 001465   000003 115007                    CMPA    3,DL
         2 001466   001610 601000 2                  TNZ     s:11990

      632    11970    3      THEN DO;

      633    11971    3           IF HEADER3 = 0

  11971  2 001467   200155 236100                    LDQ     HEADER3,,AUTO
         2 001470   001512 601000 2                  TNZ     s:11986

      634    11972    4           THEN DO;

      635    11973    4                CALL DAF$WRITE(VECTOR(BLANK_LINE));

  11973  2 001471   000026 630400 3                  EPPR0   22
PL6.E3A0      #001=DAD$DCT File=DAD$DCT.:E05TSI                                  TUE 07/29/97 12:42 Page:104
         2 001472   000000 220000 xsym               LDX0    DAF$WRITE
         2 001473   000017 631400 xsym               EPPR1   B_VECTNIL+15
         2 001474   000000 701010                    TSX1    0,X0
         2 001475   000000 011000                    NOP     0

      636    11974    4                CALL DAF$WRITE(VECTOR(LDCTRPT30));

  11974  2 001476   000072 630400 3                  EPPR0   58
         2 001477   000000 220000 xsym               LDX0    DAF$WRITE
         2 001500   000017 631400 xsym               EPPR1   B_VECTNIL+15
         2 001501   000000 701010                    TSX1    0,X0
         2 001502   000000 011000                    NOP     0

      637    11975    4                CALL DAF$WRITE(VECTOR(LDCTRPT31));

  11975  2 001503   000076 630400 3                  EPPR0   62
         2 001504   000000 220000 xsym               LDX0    DAF$WRITE
         2 001505   000017 631400 xsym               EPPR1   B_VECTNIL+15
         2 001506   000000 701010                    TSX1    0,X0
         2 001507   000000 011000                    NOP     0

      638    11976    4                HEADER3 = 1;

  11976  2 001510   000001 235007                    LDA     1,DL
         2 001511   200155 755100                    STA     HEADER3,,AUTO

      639    11977    4                END;

      640    11978
      641    11979    3           CALL DAF$WRITE(VECTOR(LDCTFMT3),
      642    11980    3             VECTOR(LDCT.LDCTX),
      643    11981    3             VECTOR(LDCT.SYMB$),
      644    11982    3             VECTOR(LDCT.IOQ$),
      645    11983    3             VECTOR(LDCT.LNK$),
      646    11984    3             VECTOR(LDCT.RAT$),
      647    11985    3             VECTOR(LDCT.IP$),
      648    11986    3             VECTOR(LDCT.IPFEI#));
PL6.E3A0      #001=DAD$DCT File=DAD$DCT.:E05TSI                                  TUE 07/29/97 12:42 Page:105

  11986  2 001512   377640 235007                    LDA     130976,DL
         2 001513   200006 236100                    LDQ     DCT$,,AUTO
         2 001514   000006 036003                    ADLQ    6,DU
         2 001515   200270 757100                    STAQ    X+18,,AUTO
         2 001516   777640 235007                    LDA     -96,DL
         2 001517   200006 236100                    LDQ     DCT$,,AUTO
         2 001520   200272 757100                    STAQ    X+20,,AUTO
         2 001521   777640 235007                    LDA     -96,DL
         2 001522   200006 236100                    LDQ     DCT$,,AUTO
         2 001523   000001 036003                    ADLQ    1,DU
         2 001524   200274 757100                    STAQ    X+22,,AUTO
         2 001525   777640 235007                    LDA     -96,DL
         2 001526   200006 236100                    LDQ     DCT$,,AUTO
         2 001527   000004 036003                    ADLQ    4,DU
         2 001530   200276 757100                    STAQ    X+24,,AUTO
         2 001531   777640 235007                    LDA     -96,DL
         2 001532   200006 236100                    LDQ     DCT$,,AUTO
         2 001533   000005 036003                    ADLQ    5,DU
         2 001534   200300 757100                    STAQ    X+26,,AUTO
         2 001535   777640 235007                    LDA     -96,DL
         2 001536   200006 236100                    LDQ     DCT$,,AUTO
         2 001537   000013 036003                    ADLQ    11,DU
         2 001540   200302 757100                    STAQ    X+28,,AUTO
         2 001541   177640 235007                    LDA     65440,DL
         2 001542   200006 236100                    LDQ     DCT$,,AUTO
         2 001543   000102 036000 3                  ADLQ    66
         2 001544   200306 757100                    STAQ    X+32,,AUTO
         2 001545   200270 237100                    LDAQ    X+18,,AUTO
         2 001546   200304 757100                    STAQ    X+30,,AUTO
         2 001547   200272 237100                    LDAQ    X+20,,AUTO
         2 001550   200310 757100                    STAQ    X+34,,AUTO
         2 001551   200274 237100                    LDAQ    X+22,,AUTO
         2 001552   200312 757100                    STAQ    X+36,,AUTO
         2 001553   200276 237100                    LDAQ    X+24,,AUTO
         2 001554   200314 757100                    STAQ    X+38,,AUTO
         2 001555   200300 237100                    LDAQ    X+26,,AUTO
PL6.E3A0      #001=DAD$DCT File=DAD$DCT.:E05TSI                                  TUE 07/29/97 12:42 Page:106
         2 001556   200316 757100                    STAQ    X+40,,AUTO
         2 001557   200302 237100                    LDAQ    X+28,,AUTO
         2 001560   200320 757100                    STAQ    X+42,,AUTO
         2 001561   200306 237100                    LDAQ    X+32,,AUTO
         2 001562   200322 757100                    STAQ    X+44,,AUTO
         2 001563   200322 630500                    EPPR0   X+44,,AUTO
         2 001564   200333 450500                    STP0    X+53,,AUTO
         2 001565   200320 631500                    EPPR1   X+42,,AUTO
         2 001566   200332 451500                    STP1    X+52,,AUTO
         2 001567   200316 633500                    EPPR3   X+40,,AUTO
         2 001570   200331 453500                    STP3    X+51,,AUTO
         2 001571   200314 634500                    EPPR4   X+38,,AUTO
         2 001572   200330 454500                    STP4    X+50,,AUTO
         2 001573   200312 635500                    EPPR5   X+36,,AUTO
         2 001574   200327 455500                    STP5    X+49,,AUTO
         2 001575   200310 636500                    EPPR6   X+34,,AUTO
         2 001576   200326 456500                    STP6    X+48,,AUTO
         2 001577   200304 637500                    EPPR7   X+30,,AUTO
         2 001600   200325 457500                    STP7    X+47,,AUTO
         2 001601   000103 236000 3                  LDQ     67
         2 001602   200324 756100                    STQ     X+46,,AUTO
         2 001603   200324 630500                    EPPR0   X+46,,AUTO
         2 001604   000000 220000 xsym               LDX0    DAF$WRITE
         2 001605   000026 631400 xsym               EPPR1   B_VECTNIL+22
         2 001606   000000 701010                    TSX1    0,X0
         2 001607   000000 011000                    NOP     0

      649    11987    3           END/*pass 3*/;

      650    11988
      651    11989
      652    11990    2      IF PASS=4

  11990  2 001610   200151 235100                    LDA     PASS,,AUTO
         2 001611   000004 115007                    CMPA    4,DL
         2 001612   002006 601000 2                  TNZ     s:12016

PL6.E3A0      #001=DAD$DCT File=DAD$DCT.:E05TSI                                  TUE 07/29/97 12:42 Page:107
      653    11991    3      THEN DO;

      654    11992    3           IF HEADER4 = 0

  11992  2 001613   200156 236100                    LDQ     HEADER4,,AUTO
         2 001614   001636 601000 2                  TNZ     s:12007

      655    11993    4           THEN DO;

      656    11994    4                CALL DAF$WRITE(VECTOR(BLANK_LINE));

  11994  2 001615   000026 630400 3                  EPPR0   22
         2 001616   000000 220000 xsym               LDX0    DAF$WRITE
         2 001617   000017 631400 xsym               EPPR1   B_VECTNIL+15
         2 001620   000000 701010                    TSX1    0,X0
         2 001621   000000 011000                    NOP     0

      657    11995    4                CALL DAF$WRITE(VECTOR(LDCTRPT40));

  11995  2 001622   000106 630400 3                  EPPR0   70
         2 001623   000000 220000 xsym               LDX0    DAF$WRITE
         2 001624   000017 631400 xsym               EPPR1   B_VECTNIL+15
         2 001625   000000 701010                    TSX1    0,X0
         2 001626   000000 011000                    NOP     0

      658    11996    4                CALL DAF$WRITE(VECTOR(LDCTRPT41));

  11996  2 001627   000112 630400 3                  EPPR0   74
         2 001630   000000 220000 xsym               LDX0    DAF$WRITE
         2 001631   000017 631400 xsym               EPPR1   B_VECTNIL+15
         2 001632   000000 701010                    TSX1    0,X0
         2 001633   000000 011000                    NOP     0

      659    11997    4                HEADER4 = 1;

  11997  2 001634   000001 235007                    LDA     1,DL
         2 001635   200156 755100                    STA     HEADER4,,AUTO
PL6.E3A0      #001=DAD$DCT File=DAD$DCT.:E05TSI                                  TUE 07/29/97 12:42 Page:108

      660    11998    4                END;

      661    11999
      662    12000    3           CALL DAF$WRITE(VECTOR(LDCTFMT4),
      663    12001    3             VECTOR(LDCT.LDCTX),
      664    12002    3             VECTOR(LDCT.DCBNO),
      665    12003    3             VECTOR(LDCT.UDCBNO),
      666    12004    3             VECTOR(LDCT.SYSID),
      667    12005    3             VECTOR(LDCT.BKPND),
      668    12006    3             VECTOR(LDCT.TCTX#),
      669    12007    3             VECTOR(ACCTNG),

  12007  2 001636   377640 235007                    LDA     130976,DL
         2 001637   200006 236100                    LDQ     DCT$,,AUTO
         2 001640   000006 036003                    ADLQ    6,DU
         2 001641   200270 757100                    STAQ    X+18,,AUTO
         2 001642   177640 235007                    LDA     65440,DL
         2 001643   200006 236100                    LDQ     DCT$,,AUTO
         2 001644   000116 036000 3                  ADLQ    78
         2 001645   200272 757100                    STAQ    X+20,,AUTO
         2 001646   177640 235007                    LDA     65440,DL
         2 001647   200006 236100                    LDQ     DCT$,,AUTO
         2 001650   000016 036003                    ADLQ    14,DU
         2 001651   200274 757100                    STAQ    X+22,,AUTO
         2 001652   377640 235007                    LDA     130976,DL
         2 001653   200006 236100                    LDQ     DCT$,,AUTO
         2 001654   000117 036000 3                  ADLQ    79
         2 001655   200276 757100                    STAQ    X+24,,AUTO
         2 001656   177640 235007                    LDA     65440,DL
         2 001657   200006 236100                    LDQ     DCT$,,AUTO
         2 001660   000014 036003                    ADLQ    12,DU
         2 001661   200300 757100                    STAQ    X+26,,AUTO
         2 001662   377640 235007                    LDA     130976,DL
         2 001663   200006 236100                    LDQ     DCT$,,AUTO
         2 001664   000120 036000 3                  ADLQ    80
         2 001665   200302 757100                    STAQ    X+28,,AUTO
PL6.E3A0      #001=DAD$DCT File=DAD$DCT.:E05TSI                                  TUE 07/29/97 12:42 Page:109
         2 001666   777640 235007                    LDA     -96,DL
         2 001667   200304 452500                    STP2    X+30,,AUTO
         2 001670   200304 236100                    LDQ     X+30,,AUTO
         2 001671   000215 036003                    ADLQ    141,DU
         2 001672   200306 757100                    STAQ    X+32,,AUTO
         2 001673   177640 235007                    LDA     65440,DL
         2 001674   200006 236100                    LDQ     DCT$,,AUTO
         2 001675   000022 036003                    ADLQ    18,DU
         2 001676   200310 757100                    STAQ    X+34,,AUTO
         2 001677   177640 235007                    LDA     65440,DL
         2 001700   200006 236100                    LDQ     DCT$,,AUTO
         2 001701   000121 036000 3                  ADLQ    81
         2 001702   200312 757100                    STAQ    X+36,,AUTO
         2 001703   377640 235007                    LDA     130976,DL
         2 001704   200006 236100                    LDQ     DCT$,,AUTO
         2 001705   000122 036000 3                  ADLQ    82
         2 001706   200314 757100                    STAQ    X+38,,AUTO
         2 001707   377640 235007                    LDA     130976,DL
         2 001710   200006 236100                    LDQ     DCT$,,AUTO
         2 001711   000023 036003                    ADLQ    19,DU
         2 001712   200316 757100                    STAQ    X+40,,AUTO
         2 001713   377640 235007                    LDA     130976,DL
         2 001714   200006 236100                    LDQ     DCT$,,AUTO
         2 001715   000123 036000 3                  ADLQ    83
         2 001716   200322 757100                    STAQ    X+44,,AUTO
         2 001717   200270 237100                    LDAQ    X+18,,AUTO
         2 001720   200320 757100                    STAQ    X+42,,AUTO
         2 001721   200272 237100                    LDAQ    X+20,,AUTO
         2 001722   200324 757100                    STAQ    X+46,,AUTO
         2 001723   200274 237100                    LDAQ    X+22,,AUTO
         2 001724   200326 757100                    STAQ    X+48,,AUTO
         2 001725   200276 237100                    LDAQ    X+24,,AUTO
         2 001726   200330 757100                    STAQ    X+50,,AUTO
         2 001727   200300 237100                    LDAQ    X+26,,AUTO
         2 001730   200332 757100                    STAQ    X+52,,AUTO
         2 001731   200302 237100                    LDAQ    X+28,,AUTO
         2 001732   200334 757100                    STAQ    X+54,,AUTO
PL6.E3A0      #001=DAD$DCT File=DAD$DCT.:E05TSI                                  TUE 07/29/97 12:42 Page:110
         2 001733   200306 237100                    LDAQ    X+32,,AUTO
         2 001734   200336 757100                    STAQ    X+56,,AUTO
         2 001735   200310 237100                    LDAQ    X+34,,AUTO
         2 001736   200340 757100                    STAQ    X+58,,AUTO
         2 001737   200312 237100                    LDAQ    X+36,,AUTO
         2 001740   200342 757100                    STAQ    X+60,,AUTO
         2 001741   200314 237100                    LDAQ    X+38,,AUTO
         2 001742   200344 757100                    STAQ    X+62,,AUTO
         2 001743   200316 237100                    LDAQ    X+40,,AUTO
         2 001744   200346 757100                    STAQ    X+64,,AUTO
         2 001745   200322 237100                    LDAQ    X+44,,AUTO
         2 001746   200350 757100                    STAQ    X+66,,AUTO
         2 001747   200350 630500                    EPPR0   X+66,,AUTO
         2 001750   200366 450500                    STP0    X+80,,AUTO
         2 001751   200346 631500                    EPPR1   X+64,,AUTO
         2 001752   200365 451500                    STP1    X+79,,AUTO
         2 001753   200344 633500                    EPPR3   X+62,,AUTO
         2 001754   200364 453500                    STP3    X+78,,AUTO
         2 001755   200342 634500                    EPPR4   X+60,,AUTO
         2 001756   200363 454500                    STP4    X+77,,AUTO
         2 001757   200340 635500                    EPPR5   X+58,,AUTO
         2 001760   200362 455500                    STP5    X+76,,AUTO
         2 001761   200336 636500                    EPPR6   X+56,,AUTO
         2 001762   200361 456500                    STP6    X+75,,AUTO
         2 001763   200334 637500                    EPPR7   X+54,,AUTO
         2 001764   200360 457500                    STP7    X+74,,AUTO
         2 001765   200332 630500                    EPPR0   X+52,,AUTO
         2 001766   200357 450500                    STP0    X+73,,AUTO
         2 001767   200330 630500                    EPPR0   X+50,,AUTO
         2 001770   200356 450500                    STP0    X+72,,AUTO
         2 001771   200326 630500                    EPPR0   X+48,,AUTO
         2 001772   200355 450500                    STP0    X+71,,AUTO
         2 001773   200324 630500                    EPPR0   X+46,,AUTO
         2 001774   200354 450500                    STP0    X+70,,AUTO
         2 001775   200320 630500                    EPPR0   X+42,,AUTO
         2 001776   200353 450500                    STP0    X+69,,AUTO
         2 001777   000124 236000 3                  LDQ     84
PL6.E3A0      #001=DAD$DCT File=DAD$DCT.:E05TSI                                  TUE 07/29/97 12:42 Page:111
         2 002000   200352 756100                    STQ     X+68,,AUTO
         2 002001   200352 630500                    EPPR0   X+68,,AUTO
         2 002002   000000 220000 xsym               LDX0    DAF$WRITE
         2 002003   000046 631400 3                  EPPR1   38
         2 002004   000000 701010                    TSX1    0,X0
         2 002005   000000 011000                    NOP     0

      670    12008    3             VECTOR(LDCT.TERMID.LEV),
      671    12009    3             VECTOR(LDCT.TERMID.TTYP),
      672    12010    3             VECTOR(LDCT.TERMID.CHAN),
      673    12011    3             VECTOR(LDCT.TERMID.SUB),
      674    12012    3             VECTOR(LDCT.TERMID.SUBSUB));
      675    12013    3           END/*pass 4*/;

      676    12014
      677    12015
      678    12016    2      IF PASS=5

  12016  2 002006   200151 235100                    LDA     PASS,,AUTO
         2 002007   000005 115007                    CMPA    5,DL
         2 002010   002163 601000 2                  TNZ     s:12039

      679    12017    3      THEN DO;

      680    12018    3           IF HEADER5 = 0

  12018  2 002011   200157 236100                    LDQ     HEADER5,,AUTO
         2 002012   002034 601000 2                  TNZ     s:12026

      681    12019    4           THEN DO;

      682    12020    4                CALL DAF$WRITE(VECTOR(BLANK_LINE));

  12020  2 002013   000026 630400 3                  EPPR0   22
         2 002014   000000 220000 xsym               LDX0    DAF$WRITE
         2 002015   000017 631400 xsym               EPPR1   B_VECTNIL+15
         2 002016   000000 701010                    TSX1    0,X0
PL6.E3A0      #001=DAD$DCT File=DAD$DCT.:E05TSI                                  TUE 07/29/97 12:42 Page:112
         2 002017   000000 011000                    NOP     0

      683    12021    4                CALL DAF$WRITE(VECTOR(LDCTRPT50));

  12021  2 002020   000130 630400 3                  EPPR0   88
         2 002021   000000 220000 xsym               LDX0    DAF$WRITE
         2 002022   000017 631400 xsym               EPPR1   B_VECTNIL+15
         2 002023   000000 701010                    TSX1    0,X0
         2 002024   000000 011000                    NOP     0

      684    12022    4                CALL DAF$WRITE(VECTOR(LDCTRPT51));

  12022  2 002025   000134 630400 3                  EPPR0   92
         2 002026   000000 220000 xsym               LDX0    DAF$WRITE
         2 002027   000017 631400 xsym               EPPR1   B_VECTNIL+15
         2 002030   000000 701010                    TSX1    0,X0
         2 002031   000000 011000                    NOP     0

      685    12023    4                HEADER5 = 1;

  12023  2 002032   000001 235007                    LDA     1,DL
         2 002033   200157 755100                    STA     HEADER5,,AUTO

      686    12024    4                END;

      687    12025
      688    12026    3           DMN=LDCT.NOWAIT.DMN;

  12026  2 002034   200006 470500                    LDP0    DCT$,,AUTO
         2 002035   000010 236100                    LDQ     8,,PR0
         2 002036   000033 772000                    QRL     27
         2 002037   000007 376007                    ANQ     7,DL
         2 002040   200147 756100                    STQ     DMN,,AUTO

      689    12027    3           CALL DAF$WRITE(VECTOR(LDCTFMT5),
      690    12028    3             VECTOR(LDCT.LDCTX),
      691    12029    3             VECTOR(DMN),
PL6.E3A0      #001=DAD$DCT File=DAD$DCT.:E05TSI                                  TUE 07/29/97 12:42 Page:113
      692    12030    3             VECTOR(LDCT.NOWAIT.STREAM),
      693    12031    3             VECTOR(LDCT.NOWAIT.DCB#),
      694    12032    3             VECTOR(L_LOCK.W1),
      695    12033    3             VECTOR(L_LOCK.W2),
      696    12034    3             VECTOR(LDCT.LOGON_ACCT),

  12034  2 002041   377640 235007                    LDA     130976,DL
         2 002042   200006 236100                    LDQ     DCT$,,AUTO
         2 002043   000006 036003                    ADLQ    6,DU
         2 002044   200270 757100                    STAQ    X+18,,AUTO
         2 002045   777640 235007                    LDA     -96,DL
         2 002046   200272 452500                    STP2    X+20,,AUTO
         2 002047   200272 236100                    LDQ     X+20,,AUTO
         2 002050   000147 036003                    ADLQ    103,DU
         2 002051   200274 757100                    STAQ    X+22,,AUTO
         2 002052   177640 235007                    LDA     65440,DL
         2 002053   200006 236100                    LDQ     DCT$,,AUTO
         2 002054   000140 036000 3                  ADLQ    96
         2 002055   200276 757100                    STAQ    X+24,,AUTO
         2 002056   177640 235007                    LDA     65440,DL
         2 002057   200006 236100                    LDQ     DCT$,,AUTO
         2 002060   000141 036000 3                  ADLQ    97
         2 002061   200300 757100                    STAQ    X+26,,AUTO
         2 002062   777640 235007                    LDA     -96,DL
         2 002063   200302 452500                    STP2    X+28,,AUTO
         2 002064   200302 236100                    LDQ     X+28,,AUTO
         2 002065   000217 036003                    ADLQ    143,DU
         2 002066   200304 757100                    STAQ    X+30,,AUTO
         2 002067   777640 235007                    LDA     -96,DL
         2 002070   200306 452500                    STP2    X+32,,AUTO
         2 002071   200306 236100                    LDQ     X+32,,AUTO
         2 002072   000220 036003                    ADLQ    144,DU
         2 002073   200310 757100                    STAQ    X+34,,AUTO
         2 002074   000013 235000 3                  LDA     11
         2 002075   200006 236100                    LDQ     DCT$,,AUTO
         2 002076   000024 036003                    ADLQ    20,DU
         2 002077   200312 757100                    STAQ    X+36,,AUTO
PL6.E3A0      #001=DAD$DCT File=DAD$DCT.:E05TSI                                  TUE 07/29/97 12:42 Page:114
         2 002100   177640 235007                    LDA     65440,DL
         2 002101   200006 236100                    LDQ     DCT$,,AUTO
         2 002102   000142 036000 3                  ADLQ    98
         2 002103   200314 757100                    STAQ    X+38,,AUTO
         2 002104   177640 235007                    LDA     65440,DL
         2 002105   200006 236100                    LDQ     DCT$,,AUTO
         2 002106   000143 036000 3                  ADLQ    99
         2 002107   200320 757100                    STAQ    X+42,,AUTO
         2 002110   200270 237100                    LDAQ    X+18,,AUTO
         2 002111   200316 757100                    STAQ    X+40,,AUTO
         2 002112   200274 237100                    LDAQ    X+22,,AUTO
         2 002113   200322 757100                    STAQ    X+44,,AUTO
         2 002114   200276 237100                    LDAQ    X+24,,AUTO
         2 002115   200324 757100                    STAQ    X+46,,AUTO
         2 002116   200300 237100                    LDAQ    X+26,,AUTO
         2 002117   200326 757100                    STAQ    X+48,,AUTO
         2 002120   200304 237100                    LDAQ    X+30,,AUTO
         2 002121   200330 757100                    STAQ    X+50,,AUTO
         2 002122   200310 237100                    LDAQ    X+34,,AUTO
         2 002123   200332 757100                    STAQ    X+52,,AUTO
         2 002124   200312 237100                    LDAQ    X+36,,AUTO
         2 002125   200334 757100                    STAQ    X+54,,AUTO
         2 002126   200314 237100                    LDAQ    X+38,,AUTO
         2 002127   200336 757100                    STAQ    X+56,,AUTO
         2 002130   200320 237100                    LDAQ    X+42,,AUTO
         2 002131   200340 757100                    STAQ    X+58,,AUTO
         2 002132   200340 631500                    EPPR1   X+58,,AUTO
         2 002133   200353 451500                    STP1    X+69,,AUTO
         2 002134   200336 633500                    EPPR3   X+56,,AUTO
         2 002135   200352 453500                    STP3    X+68,,AUTO
         2 002136   200334 634500                    EPPR4   X+54,,AUTO
         2 002137   200351 454500                    STP4    X+67,,AUTO
         2 002140   200332 635500                    EPPR5   X+52,,AUTO
         2 002141   200350 455500                    STP5    X+66,,AUTO
         2 002142   200330 636500                    EPPR6   X+50,,AUTO
         2 002143   200347 456500                    STP6    X+65,,AUTO
         2 002144   200326 637500                    EPPR7   X+48,,AUTO
PL6.E3A0      #001=DAD$DCT File=DAD$DCT.:E05TSI                                  TUE 07/29/97 12:42 Page:115
         2 002145   200346 457500                    STP7    X+64,,AUTO
         2 002146   200324 630500                    EPPR0   X+46,,AUTO
         2 002147   200345 450500                    STP0    X+63,,AUTO
         2 002150   200322 630500                    EPPR0   X+44,,AUTO
         2 002151   200344 450500                    STP0    X+62,,AUTO
         2 002152   200316 630500                    EPPR0   X+40,,AUTO
         2 002153   200343 450500                    STP0    X+61,,AUTO
         2 002154   000145 236000 3                  LDQ     101
         2 002155   200342 756100                    STQ     X+60,,AUTO
         2 002156   200342 630500                    EPPR0   X+60,,AUTO
         2 002157   000000 220000 xsym               LDX0    DAF$WRITE
         2 002160   000144 631400 3                  EPPR1   100
         2 002161   000000 701010                    TSX1    0,X0
         2 002162   000000 011000                    NOP     0

      697    12035    3             VECTOR(LDCT.TCTLCNT),
      698    12036    3             VECTOR(LDCT.JLNKCNT));
      699    12037    3           END/*pass 5*/;

      700    12038
      701    12039    2      RETURN;

  12039  2 002163   200246 221300                    LDX1  ! @CODE+1,,AUTO
         2 002164   000001 702211                    TSX2  ! 1,X1

      702    12040    2   END DISP_LDCT;
      703    12041        %EJECT;
PL6.E3A0      #001=DAD$DCT File=DAD$DCT.:E05TSI                                  TUE 07/29/97 12:42 Page:116
      704    12042    1   DISP_DCT: PROC;

  12042  2 002165   200246 741300       DISP_DCT     STX1  ! @CODE+1,,AUTO

      705    12043    2      DCTX=DCT.DCTX;

  12043  2 002166   200006 470500                    LDP0    DCT$,,AUTO
         2 002167   000006 236100                    LDQ     6,,PR0
         2 002170   000025 772000                    QRL     21
         2 002171   200160 756100                    STQ     DCTX,,AUTO

      706    12044    2      DEVNM=DCT.DEVNM;

  12044  2 002172   040100 100500                    MLR     fill='040'O
         2 002173   000002 000010                    ADSC9   2,,PR0                   cn=0,n=8
         2 002174   200161 000010                    ADSC9   DEVNM,,AUTO              cn=0,n=8

      707    12045    3      IF DCT.FL$=ADDR(NIL) THEN DO;

  12045  2 002175   000000 236100                    LDQ     0,,PR0
         2 002176   000001 116000 xsym               CMPQ    B_VECTNIL+1
         2 002177   002202 601000 2                  TNZ     s:12049

      708    12046    3   FL0:    FL=0;

  12046  2 002200   200163 450100       FL0          STZ     FL,,AUTO

      709    12047    3           END;

  12047  2 002201   002216 710000 2                  TRA     s:12052

      710    12048    3      ELSE DO;

      711    12049    3           CALL DAM$MAP(DCT.FL$,P$) ALTRET(FL0);

  12049  2 002202   200134 631500                    EPPR1   P$,,AUTO
         2 002203   200271 451500                    STP1    X+19,,AUTO
PL6.E3A0      #001=DAD$DCT File=DAD$DCT.:E05TSI                                  TUE 07/29/97 12:42 Page:117
         2 002204   200006 236100                    LDQ     DCT$,,AUTO
         2 002205   200270 756100                    STQ     X+18,,AUTO
         2 002206   200270 630500                    EPPR0   X+18,,AUTO
         2 002207   000020 631400 xsym               EPPR1   B_VECTNIL+16
         2 002210   000000 701000 xent               TSX1    DAM$MAP
         2 002211   002200 702000 2                  TSX2    FL0

      712    12050    3           FL=P$->DCT.DCTX;

  12050  2 002212   200134 470500                    LDP0    P$,,AUTO
         2 002213   000006 236100                    LDQ     6,,PR0
         2 002214   000025 772000                    QRL     21
         2 002215   200163 756100                    STQ     FL,,AUTO

      713    12051    3           END;

      714    12052    2      SQ=ADDR(DCT.SQ$)->P.WA;

  12052  2 002216   200006 470500                    LDP0    DCT$,,AUTO
         2 002217   000001 236100                    LDQ     1,,PR0
         2 002220   000022 772000                    QRL     18
         2 002221   200164 756100                    STQ     SQ,,AUTO

      715    12053    2      DFLG=BITBIN(DCT.DFLG);

  12053  2 002222   000006 236100                    LDQ     6,,PR0
         2 002223   000004 772000                    QRL     4
         2 002224   037777 376007                    ANQ     16383,DL
         2 002225   200165 756100                    STQ     DFLG,,AUTO

      716    12054    2      IOCHAN.DVN=DCT.DVN;

  12054  2 002226   000007 236100                    LDQ     7,,PR0
         2 002227   000030 772000                    QRL     24
         2 002230   000077 376007                    ANQ     63,DL
         2 002231   200171 756100                    STQ     IOCHAN+2,,AUTO

PL6.E3A0      #001=DAD$DCT File=DAD$DCT.:E05TSI                                  TUE 07/29/97 12:42 Page:118
      717    12055    3      IF DCT.DQH$=ADDR(NIL) THEN DO;

  12055  2 002232   000023 236100                    LDQ     19,,PR0
         2 002233   000001 116000 xsym               CMPQ    B_VECTNIL+1
         2 002234   002240 601000 2                  TNZ     s:12060

      718    12056    3   CHAN0:  IOCHAN.IOM=0;

  12056  2 002235   200167 450100       CHAN0        STZ     IOCHAN,,AUTO

      719    12057    3           IOCHAN.CHAN=0;

  12057  2 002236   200170 450100                    STZ     IOCHAN+1,,AUTO

      720    12058    3           END;

  12058  2 002237   002262 710000 2                  TRA     s:12064

      721    12059    3      ELSE DO;

      722    12060    3           CALL DAM$MAP(DCT.DQH$,DQH$) ALTRET(CHAN0);

  12060  2 002240   200007 631500                    EPPR1   DQH$,,AUTO
         2 002241   200271 451500                    STP1    X+19,,AUTO
         2 002242   200006 236100                    LDQ     DCT$,,AUTO
         2 002243   000023 036003                    ADLQ    19,DU
         2 002244   200270 756100                    STQ     X+18,,AUTO
         2 002245   200270 630500                    EPPR0   X+18,,AUTO
         2 002246   000020 631400 xsym               EPPR1   B_VECTNIL+16
         2 002247   000000 701000 xent               TSX1    DAM$MAP
         2 002250   002235 702000 2                  TSX2    CHAN0

      723    12061    3           IOCHAN.IOM=DQH.IOCHAN.IOM;

  12061  2 002251   200007 470500                    LDP0    DQH$,,AUTO
         2 002252   000001 236100                    LDQ     1,,PR0
         2 002253   000031 772000                    QRL     25
PL6.E3A0      #001=DAD$DCT File=DAD$DCT.:E05TSI                                  TUE 07/29/97 12:42 Page:119
         2 002254   000003 376007                    ANQ     3,DL
         2 002255   200167 756100                    STQ     IOCHAN,,AUTO

      724    12062    3           IOCHAN.CHAN=DQH.IOCHAN.CHANNEL;

  12062  2 002256   000001 236100                    LDQ     1,,PR0
         2 002257   000022 772000                    QRL     18
         2 002260   000177 376007                    ANQ     127,DL
         2 002261   200170 756100                    STQ     IOCHAN+1,,AUTO

      725    12063    3           END;

      726    12064    2      STATE=IOSTATE(DCT.STATE);

  12064  2 002262   200006 470500                    LDP0    DCT$,,AUTO
         2 002263   000007 236100                    LDQ     7,,PR0
         2 002264   000077 376007                    ANQ     63,DL
         2 002265   000005 402007                    MPY     5,DL
         2 002266   040100 100406                    MLR     fill='040'O
         2 002267   000013 000005 0                  ADSC9   IOSTATE,Q                cn=0,n=5
         2 002270   200174 000005                    ADSC9   STATE,,AUTO              cn=0,n=5

      727    12065    2      TDUSER=DCT.TDUSER#;

  12065  2 002271   000027 236100                    LDQ     23,,PR0
         2 002272   000022 772000                    QRL     18
         2 002273   000777 376007                    ANQ     511,DL
         2 002274   200176 756100                    STQ     TDUSER,,AUTO

      728    12066    2      MSG=NOYES(BITBIN(DCT.MSG#~=0));

  12066  2 002275   400000 220003                    LDX0    -131072,DU
         2 002276   000027 721100                    LXL1    23,,PR0
         2 002277   002301 601000 2                  TNZ     s:12066+4
         2 002300   000000 220003                    LDX0    0,DU
         2 002301   000000 636010                    EAQ     0,X0
         2 002302   000043 772000                    QRL     35
PL6.E3A0      #001=DAD$DCT File=DAD$DCT.:E05TSI                                  TUE 07/29/97 12:42 Page:120
         2 002303   000003 402007                    MPY     3,DL
         2 002304   040100 100406                    MLR     fill='040'O
         2 002305   000004 000003 0                  ADSC9   NOYES,Q                  cn=0,n=3
         2 002306   200177 000003                    ADSC9   MSG,,AUTO                cn=0,n=3

      729    12067    2      STATUS.DOWN=NOYES(BITBIN(DCT.STATUS.DOWN));

  12067  2 002307   000027 236100                    LDQ     23,,PR0
         2 002310   000043 772000                    QRL     35
         2 002311   000003 402007                    MPY     3,DL
         2 002312   040100 100406                    MLR     fill='040'O
         2 002313   000004 000003 0                  ADSC9   NOYES,Q                  cn=0,n=3
         2 002314   200200 000004                    ADSC9   STATUS,,AUTO             cn=0,n=4

      730    12068    2      STATUS.TND=TDTST(DCT.STATUS.TND);

  12068  2 002315   000027 236100                    LDQ     23,,PR0
         2 002316   000036 772000                    QRL     30
         2 002317   000017 376007                    ANQ     15,DL
         2 002320   000003 402007                    MPY     3,DL
         2 002321   040100 100406                    MLR     fill='040'O
         2 002322   000006 000003 0                  ADSC9   TDTST,Q                  cn=0,n=3
         2 002323   200201 000003                    ADSC9   STATUS+1,,AUTO           cn=0,n=3

      731    12069    2      CALL DAF$WRITE(VECTOR(DCTFMT),
      732    12070    2        VECTOR(DCTX),
      733    12071    2        VECTOR(DEVNM),
      734    12072    2        VECTOR(FL),
      735    12073    2        VECTOR(SQ),
      736    12074    2        VECTOR(DFLG),
      737    12075    2        VECTOR(IOCHAN),
      738    12076    2        VECTOR(STATE),
      739    12077    2        VECTOR(MSG),
      740    12078    2        VECTOR(STATUS),

  12078  2 002324   777640 235007                    LDA     -96,DL
         2 002325   200270 452500                    STP2    X+18,,AUTO
PL6.E3A0      #001=DAD$DCT File=DAD$DCT.:E05TSI                                  TUE 07/29/97 12:42 Page:121
         2 002326   200270 236100                    LDQ     X+18,,AUTO
         2 002327   000160 036003                    ADLQ    112,DU
         2 002330   200272 757100                    STAQ    X+20,,AUTO
         2 002331   000013 235000 3                  LDA     11
         2 002332   200274 452500                    STP2    X+22,,AUTO
         2 002333   200274 236100                    LDQ     X+22,,AUTO
         2 002334   000161 036003                    ADLQ    113,DU
         2 002335   200276 757100                    STAQ    X+24,,AUTO
         2 002336   777640 235007                    LDA     -96,DL
         2 002337   200300 452500                    STP2    X+26,,AUTO
         2 002340   200300 236100                    LDQ     X+26,,AUTO
         2 002341   000163 036003                    ADLQ    115,DU
         2 002342   200302 757100                    STAQ    X+28,,AUTO
         2 002343   777640 235007                    LDA     -96,DL
         2 002344   200304 452500                    STP2    X+30,,AUTO
         2 002345   200304 236100                    LDQ     X+30,,AUTO
         2 002346   000164 036003                    ADLQ    116,DU
         2 002347   200306 757100                    STAQ    X+32,,AUTO
         2 002350   777640 235007                    LDA     -96,DL
         2 002351   200310 452500                    STP2    X+34,,AUTO
         2 002352   200310 236100                    LDQ     X+34,,AUTO
         2 002353   000165 036003                    ADLQ    117,DU
         2 002354   200312 757100                    STAQ    X+36,,AUTO
         2 002355   000150 235000 3                  LDA     104
         2 002356   200314 452500                    STP2    X+38,,AUTO
         2 002357   200314 236100                    LDQ     X+38,,AUTO
         2 002360   000167 036003                    ADLQ    119,DU
         2 002361   200316 757100                    STAQ    X+40,,AUTO
         2 002362   000016 235000 3                  LDA     14
         2 002363   200320 452500                    STP2    X+42,,AUTO
         2 002364   200320 236100                    LDQ     X+42,,AUTO
         2 002365   000174 036003                    ADLQ    124,DU
         2 002366   200322 757100                    STAQ    X+44,,AUTO
         2 002367   577640 235007                    LDA     -65632,DL
         2 002370   200324 452500                    STP2    X+46,,AUTO
         2 002371   200324 236100                    LDQ     X+46,,AUTO
         2 002372   000177 036003                    ADLQ    127,DU
PL6.E3A0      #001=DAD$DCT File=DAD$DCT.:E05TSI                                  TUE 07/29/97 12:42 Page:122
         2 002373   200326 757100                    STAQ    X+48,,AUTO
         2 002374   000151 235000 3                  LDA     105
         2 002375   200330 452500                    STP2    X+50,,AUTO
         2 002376   200330 236100                    LDQ     X+50,,AUTO
         2 002377   000200 036003                    ADLQ    128,DU
         2 002400   200332 757100                    STAQ    X+52,,AUTO
         2 002401   777640 235007                    LDA     -96,DL
         2 002402   200334 452500                    STP2    X+54,,AUTO
         2 002403   200334 236100                    LDQ     X+54,,AUTO
         2 002404   000176 036003                    ADLQ    126,DU
         2 002405   200336 757100                    STAQ    X+56,,AUTO
         2 002406   777640 235007                    LDA     -96,DL
         2 002407   200340 452500                    STP2    X+58,,AUTO
         2 002410   200340 236100                    LDQ     X+58,,AUTO
         2 002411   000166 036003                    ADLQ    118,DU
         2 002412   200344 757100                    STAQ    X+62,,AUTO
         2 002413   200272 237100                    LDAQ    X+20,,AUTO
         2 002414   200342 757100                    STAQ    X+60,,AUTO
         2 002415   200276 237100                    LDAQ    X+24,,AUTO
         2 002416   200346 757100                    STAQ    X+64,,AUTO
         2 002417   200302 237100                    LDAQ    X+28,,AUTO
         2 002420   200350 757100                    STAQ    X+66,,AUTO
         2 002421   200306 237100                    LDAQ    X+32,,AUTO
         2 002422   200352 757100                    STAQ    X+68,,AUTO
         2 002423   200312 237100                    LDAQ    X+36,,AUTO
         2 002424   200354 757100                    STAQ    X+70,,AUTO
         2 002425   200316 237100                    LDAQ    X+40,,AUTO
         2 002426   200356 757100                    STAQ    X+72,,AUTO
         2 002427   200322 237100                    LDAQ    X+44,,AUTO
         2 002430   200360 757100                    STAQ    X+74,,AUTO
         2 002431   200326 237100                    LDAQ    X+48,,AUTO
         2 002432   200362 757100                    STAQ    X+76,,AUTO
         2 002433   200332 237100                    LDAQ    X+52,,AUTO
         2 002434   200364 757100                    STAQ    X+78,,AUTO
         2 002435   200336 237100                    LDAQ    X+56,,AUTO
         2 002436   200366 757100                    STAQ    X+80,,AUTO
         2 002437   200344 237100                    LDAQ    X+62,,AUTO
PL6.E3A0      #001=DAD$DCT File=DAD$DCT.:E05TSI                                  TUE 07/29/97 12:42 Page:123
         2 002440   200370 757100                    STAQ    X+82,,AUTO
         2 002441   200370 631500                    EPPR1   X+82,,AUTO
         2 002442   200405 451500                    STP1    X+95,,AUTO
         2 002443   200366 633500                    EPPR3   X+80,,AUTO
         2 002444   200404 453500                    STP3    X+94,,AUTO
         2 002445   200364 634500                    EPPR4   X+78,,AUTO
         2 002446   200403 454500                    STP4    X+93,,AUTO
         2 002447   200362 635500                    EPPR5   X+76,,AUTO
         2 002450   200402 455500                    STP5    X+92,,AUTO
         2 002451   200360 636500                    EPPR6   X+74,,AUTO
         2 002452   200401 456500                    STP6    X+91,,AUTO
         2 002453   200356 637500                    EPPR7   X+72,,AUTO
         2 002454   200400 457500                    STP7    X+90,,AUTO
         2 002455   200354 630500                    EPPR0   X+70,,AUTO
         2 002456   200377 450500                    STP0    X+89,,AUTO
         2 002457   200352 630500                    EPPR0   X+68,,AUTO
         2 002460   200376 450500                    STP0    X+88,,AUTO
         2 002461   200350 630500                    EPPR0   X+66,,AUTO
         2 002462   200375 450500                    STP0    X+87,,AUTO
         2 002463   200346 630500                    EPPR0   X+64,,AUTO
         2 002464   200374 450500                    STP0    X+86,,AUTO
         2 002465   200342 630500                    EPPR0   X+60,,AUTO
         2 002466   200373 450500                    STP0    X+85,,AUTO
         2 002467   000152 236000 3                  LDQ     106
         2 002470   200372 756100                    STQ     X+84,,AUTO
         2 002471   200372 630500                    EPPR0   X+84,,AUTO
         2 002472   000000 220000 xsym               LDX0    DAF$WRITE
         2 002473   000065 631400 3                  EPPR1   53
         2 002474   000000 701010                    TSX1    0,X0
         2 002475   000000 011000                    NOP     0

      741    12079    2        VECTOR(TDUSER),
      742    12080    2        VECTOR(DCTADR$));
      743    12081    2      RETURN;

  12081  2 002476   200246 221300                    LDX1  ! @CODE+1,,AUTO
         2 002477   000001 702211                    TSX2  ! 1,X1
PL6.E3A0      #001=DAD$DCT File=DAD$DCT.:E05TSI                                  TUE 07/29/97 12:42 Page:124

      744    12082    2   END DISP_DCT;
      745    12083        %EJECT;
PL6.E3A0      #001=DAD$DCT File=DAD$DCT.:E05TSI                                  TUE 07/29/97 12:42 Page:125
      746    12084    1   DISP_A_LDCT: PROC;

  12084  2 002500   200244 741300       DISP_A_LDCT  STX1  ! IC+1,,AUTO

      747    12085
      748    12086    2   DCL 1 DFLAG,
      749    12087    2         2 F BIT(14) UNAL,
      750    12088    2         2 * BIT(22) UNAL;
      751    12089
      752    12090    2   DCL 1 LKFLAG REDEF DFLAG,
      753    12091    2         2 F BIT(18) UNAL,
      754    12092    2         2 * BIT(18) UNAL;
      755    12093
      756    12094    2   DCL 1 QFLAG REDEF DFLAG,
      757    12095    2         2 F BIT(7) UNAL,
      758    12096    2         2 * BIT(29) UNAL;
      759    12097
      760    12098        %NK_DFLG_TEXT (NAME=DFLG_TEXT, STCLASS=STATIC);
      761    12109
      762    12110        %NK_LKFLG_TEXT (NAME=LKFLG_TEXT, STCLASS=STATIC);
      763    12122
      764    12123        %NK_QFL_TEXT (NAME=QFL_TEXT, STCLASS=STATIC);
      765    12132
      766    12133        %PLIST;
      767    12134
      768    12135    2      CALL DAF$WRITE(VECTOR(BLANK_LINE));

  12135  2 002501   000026 630400 3                  EPPR0   22
         2 002502   000000 220000 xsym               LDX0    DAF$WRITE
         2 002503   000017 631400 xsym               EPPR1   B_VECTNIL+15
         2 002504   000000 701010                    TSX1    0,X0
         2 002505   000000 011000                    NOP     0

      769    12136    2      CALL DAB$GATE(L_LOCK);

  12136  2 002506   200217 630500                    EPPR0   L_LOCK,,AUTO
         2 002507   200270 450500                    STP0    X+18,,AUTO
PL6.E3A0      #001=DAD$DCT File=DAD$DCT.:E05TSI                                  TUE 07/29/97 12:42 Page:126
         2 002510   200270 630500                    EPPR0   X+18,,AUTO
         2 002511   000017 631400 xsym               EPPR1   B_VECTNIL+15
         2 002512   000000 701000 xent               TSX1    DAB$GATE
         2 002513   000000 011000                    NOP     0

      770    12137    2      CALL DAF$WRITE(VECTOR(GATFMT),VECTOR(DA_GATETXT));

  12137  2 002514   000160 630400 3                  EPPR0   112
         2 002515   000000 220000 xsym               LDX0    DAF$WRITE
         2 002516   000020 631400 xsym               EPPR1   B_VECTNIL+16
         2 002517   000000 701010                    TSX1    0,X0
         2 002520   000000 011000                    NOP     0

      771    12138    2      CALL DAF$WRITE(VECTOR(BLANK_LINE));

  12138  2 002521   000026 630400 3                  EPPR0   22
         2 002522   000000 220000 xsym               LDX0    DAF$WRITE
         2 002523   000017 631400 xsym               EPPR1   B_VECTNIL+15
         2 002524   000000 701010                    TSX1    0,X0
         2 002525   000000 011000                    NOP     0

      772    12139
      773    12140    2      DFLAG.F = LDCT.DFLG;

  12140  2 002526   200006 470500                    LDP0    DCT$,,AUTO
         2 002527   000006 236100                    LDQ     6,,PR0
         2 002530   000022 736000                    QLS     18
         2 002531   200245 676100                    ERQ     DFLAG,,AUTO
         2 002532   777760 376003                    ANQ     -16,DU
         2 002533   200245 656100                    ERSQ    DFLAG,,AUTO

      774    12141    2      DFLG_TEXT.SREST = 'set: ';

  12141  2 002534   040000 100400                    MLR     fill='040'O
         2 002535   000654 000005 0                  ADSC9   MIR_STATE+12             cn=0,n=5
         2 002536   001457 400012 1                  ADSC9   DFLG_TEXT+1              cn=2,n=10

PL6.E3A0      #001=DAD$DCT File=DAD$DCT.:E05TSI                                  TUE 07/29/97 12:42 Page:127
      775    12142    2      CALL DAF$WRITE(VECTOR(DFLG_TEXT), VECTOR(DFLAG.F));

  12142  2 002537   377640 235007                    LDA     130976,DL
         2 002540   200270 452500                    STP2    X+18,,AUTO
         2 002541   200270 236100                    LDQ     X+18,,AUTO
         2 002542   000245 036003                    ADLQ    165,DU
         2 002543   200272 757100                    STAQ    X+20,,AUTO
         2 002544   200272 631500                    EPPR1   X+20,,AUTO
         2 002545   200275 451500                    STP1    X+23,,AUTO
         2 002546   000164 236000 3                  LDQ     116
         2 002547   200274 756100                    STQ     X+22,,AUTO
         2 002550   200274 630500                    EPPR0   X+22,,AUTO
         2 002551   000000 220000 xsym               LDX0    DAF$WRITE
         2 002552   000020 631400 xsym               EPPR1   B_VECTNIL+16
         2 002553   000000 701010                    TSX1    0,X0
         2 002554   000000 011000                    NOP     0

      776    12143    2      DFLAG.F = ~(DFLAG.F);

  12143  2 002555   200245 236100                    LDQ     DFLAG,,AUTO
         2 002556   777760 376003                    ANQ     -16,DU
         2 002557   777760 676003                    ERQ     -16,DU
         2 002560   200245 676100                    ERQ     DFLAG,,AUTO
         2 002561   777760 376003                    ANQ     -16,DU
         2 002562   200245 656100                    ERSQ    DFLAG,,AUTO

      777    12144    2      DFLG_TEXT.SREST = 'off: ';

  12144  2 002563   040000 100400                    MLR     fill='040'O
         2 002564   000656 000005 0                  ADSC9   MIR_STATE+14             cn=0,n=5
         2 002565   001457 400012 1                  ADSC9   DFLG_TEXT+1              cn=2,n=10

      778    12145    2      CALL DAF$WRITE(VECTOR(DFLG_TEXT), VECTOR(DFLAG.F));

  12145  2 002566   377640 235007                    LDA     130976,DL
         2 002567   200270 452500                    STP2    X+18,,AUTO
         2 002570   200270 236100                    LDQ     X+18,,AUTO
PL6.E3A0      #001=DAD$DCT File=DAD$DCT.:E05TSI                                  TUE 07/29/97 12:42 Page:128
         2 002571   000245 036003                    ADLQ    165,DU
         2 002572   200272 757100                    STAQ    X+20,,AUTO
         2 002573   200272 630500                    EPPR0   X+20,,AUTO
         2 002574   200275 450500                    STP0    X+23,,AUTO
         2 002575   000164 236000 3                  LDQ     116
         2 002576   200274 756100                    STQ     X+22,,AUTO
         2 002577   200274 630500                    EPPR0   X+22,,AUTO
         2 002600   000000 220000 xsym               LDX0    DAF$WRITE
         2 002601   000020 631400 xsym               EPPR1   B_VECTNIL+16
         2 002602   000000 701010                    TSX1    0,X0
         2 002603   000000 011000                    NOP     0

      779    12146    2      CALL DAF$WRITE(VECTOR(BLANK_LINE));

  12146  2 002604   000026 630400 3                  EPPR0   22
         2 002605   000000 220000 xsym               LDX0    DAF$WRITE
         2 002606   000017 631400 xsym               EPPR1   B_VECTNIL+15
         2 002607   000000 701010                    TSX1    0,X0
         2 002610   000000 011000                    NOP     0

      780    12147
      781    12148    2      LKFLAG.F = LDCT.LKFLG;

  12148  2 002611   200006 470500                    LDP0    DCT$,,AUTO
         2 002612   000011 220100                    LDX0    9,,PR0
         2 002613   200245 740100                    STX0    DFLAG,,AUTO

      782    12149    2      LKFLG_TEXT.SREST = 'set: ';

  12149  2 002614   040000 100400                    MLR     fill='040'O
         2 002615   000654 000005 0                  ADSC9   MIR_STATE+12             cn=0,n=5
         2 002616   001545 400012 1                  ADSC9   LKFLG_TEXT+1             cn=2,n=10

      783    12150    2      CALL DAF$WRITE(VECTOR(LKFLG_TEXT), VECTOR(LKFLAG.F));

  12150  2 002617   377640 235007                    LDA     130976,DL
         2 002620   200270 452500                    STP2    X+18,,AUTO
PL6.E3A0      #001=DAD$DCT File=DAD$DCT.:E05TSI                                  TUE 07/29/97 12:42 Page:129
         2 002621   200270 236100                    LDQ     X+18,,AUTO
         2 002622   000245 036003                    ADLQ    165,DU
         2 002623   200272 757100                    STAQ    X+20,,AUTO
         2 002624   200272 631500                    EPPR1   X+20,,AUTO
         2 002625   200275 451500                    STP1    X+23,,AUTO
         2 002626   000170 236000 3                  LDQ     120
         2 002627   200274 756100                    STQ     X+22,,AUTO
         2 002630   200274 630500                    EPPR0   X+22,,AUTO
         2 002631   000000 221000 xsym               LDX1    DAF$WRITE
         2 002632   000020 631400 xsym               EPPR1   B_VECTNIL+16
         2 002633   000000 701011                    TSX1    0,X1
         2 002634   000000 011000                    NOP     0

      784    12151    2      LKFLAG.F = ~(LKFLAG.F);

  12151  2 002635   200245 236100                    LDQ     DFLAG,,AUTO
         2 002636   777777 376003                    ANQ     -1,DU
         2 002637   777777 676003                    ERQ     -1,DU
         2 002640   000022 772000                    QRL     18
         2 002641   000000 620006                    EAX0    0,QL
         2 002642   200245 740100                    STX0    DFLAG,,AUTO

      785    12152    2      LKFLG_TEXT.SREST = 'off: ';

  12152  2 002643   040000 100400                    MLR     fill='040'O
         2 002644   000656 000005 0                  ADSC9   MIR_STATE+14             cn=0,n=5
         2 002645   001545 400012 1                  ADSC9   LKFLG_TEXT+1             cn=2,n=10

      786    12153    2      CALL DAF$WRITE(VECTOR(LKFLG_TEXT), VECTOR(LKFLAG.F));

  12153  2 002646   377640 235007                    LDA     130976,DL
         2 002647   200270 452500                    STP2    X+18,,AUTO
         2 002650   200270 236100                    LDQ     X+18,,AUTO
         2 002651   000245 036003                    ADLQ    165,DU
         2 002652   200272 757100                    STAQ    X+20,,AUTO
         2 002653   200272 630500                    EPPR0   X+20,,AUTO
         2 002654   200275 450500                    STP0    X+23,,AUTO
PL6.E3A0      #001=DAD$DCT File=DAD$DCT.:E05TSI                                  TUE 07/29/97 12:42 Page:130
         2 002655   000170 236000 3                  LDQ     120
         2 002656   200274 756100                    STQ     X+22,,AUTO
         2 002657   200274 630500                    EPPR0   X+22,,AUTO
         2 002660   000000 221000 xsym               LDX1    DAF$WRITE
         2 002661   000020 631400 xsym               EPPR1   B_VECTNIL+16
         2 002662   000000 701011                    TSX1    0,X1
         2 002663   000000 011000                    NOP     0

      787    12154    2      CALL DAF$WRITE(VECTOR(BLANK_LINE));

  12154  2 002664   000026 630400 3                  EPPR0   22
         2 002665   000000 220000 xsym               LDX0    DAF$WRITE
         2 002666   000017 631400 xsym               EPPR1   B_VECTNIL+15
         2 002667   000000 701010                    TSX1    0,X0
         2 002670   000000 011000                    NOP     0

      788    12155
      789    12156    2      QFLAG.F = LDCT.QFL;

  12156  2 002671   200006 470500                    LDP0    DCT$,,AUTO
         2 002672   000010 236100                    LDQ     8,,PR0
         2 002673   000033 736000                    QLS     27
         2 002674   200245 676100                    ERQ     DFLAG,,AUTO
         2 002675   774000 376003                    ANQ     -2048,DU
         2 002676   200245 656100                    ERSQ    DFLAG,,AUTO

      790    12157    2      QFL_TEXT.SREST = 'set: ';

  12157  2 002677   040000 100400                    MLR     fill='040'O
         2 002700   000654 000005 0                  ADSC9   MIR_STATE+12             cn=0,n=5
         2 002701   001653 200012 1                  ADSC9   QFL_TEXT+1               cn=1,n=10

      791    12158    2      CALL DAF$WRITE(VECTOR(QFL_TEXT), VECTOR(QFLAG.F));

  12158  2 002702   177640 235007                    LDA     65440,DL
         2 002703   200270 452500                    STP2    X+18,,AUTO
         2 002704   200270 236100                    LDQ     X+18,,AUTO
PL6.E3A0      #001=DAD$DCT File=DAD$DCT.:E05TSI                                  TUE 07/29/97 12:42 Page:131
         2 002705   000245 036003                    ADLQ    165,DU
         2 002706   200272 757100                    STAQ    X+20,,AUTO
         2 002707   200272 631500                    EPPR1   X+20,,AUTO
         2 002710   200275 451500                    STP1    X+23,,AUTO
         2 002711   000174 236000 3                  LDQ     124
         2 002712   200274 756100                    STQ     X+22,,AUTO
         2 002713   200274 630500                    EPPR0   X+22,,AUTO
         2 002714   000000 220000 xsym               LDX0    DAF$WRITE
         2 002715   000020 631400 xsym               EPPR1   B_VECTNIL+16
         2 002716   000000 701010                    TSX1    0,X0
         2 002717   000000 011000                    NOP     0

      792    12159    2      QFLAG.F = ~(QFLAG.F);

  12159  2 002720   200245 236100                    LDQ     DFLAG,,AUTO
         2 002721   774000 376003                    ANQ     -2048,DU
         2 002722   774000 676003                    ERQ     -2048,DU
         2 002723   200245 676100                    ERQ     DFLAG,,AUTO
         2 002724   774000 376003                    ANQ     -2048,DU
         2 002725   200245 656100                    ERSQ    DFLAG,,AUTO

      793    12160    2      QFL_TEXT.SREST = 'off: ';

  12160  2 002726   040000 100400                    MLR     fill='040'O
         2 002727   000656 000005 0                  ADSC9   MIR_STATE+14             cn=0,n=5
         2 002730   001653 200012 1                  ADSC9   QFL_TEXT+1               cn=1,n=10

      794    12161    2      CALL DAF$WRITE(VECTOR(QFL_TEXT), VECTOR(QFLAG.F));

  12161  2 002731   177640 235007                    LDA     65440,DL
         2 002732   200270 452500                    STP2    X+18,,AUTO
         2 002733   200270 236100                    LDQ     X+18,,AUTO
         2 002734   000245 036003                    ADLQ    165,DU
         2 002735   200272 757100                    STAQ    X+20,,AUTO
         2 002736   200272 630500                    EPPR0   X+20,,AUTO
         2 002737   200275 450500                    STP0    X+23,,AUTO
         2 002740   000174 236000 3                  LDQ     124
PL6.E3A0      #001=DAD$DCT File=DAD$DCT.:E05TSI                                  TUE 07/29/97 12:42 Page:132
         2 002741   200274 756100                    STQ     X+22,,AUTO
         2 002742   200274 630500                    EPPR0   X+22,,AUTO
         2 002743   000000 220000 xsym               LDX0    DAF$WRITE
         2 002744   000020 631400 xsym               EPPR1   B_VECTNIL+16
         2 002745   000000 701010                    TSX1    0,X0
         2 002746   000000 011000                    NOP     0

      795    12162    2      CALL DAF$WRITE(VECTOR(BLANK_LINE));

  12162  2 002747   000026 630400 3                  EPPR0   22
         2 002750   000000 220000 xsym               LDX0    DAF$WRITE
         2 002751   000017 631400 xsym               EPPR1   B_VECTNIL+15
         2 002752   000000 701010                    TSX1    0,X0
         2 002753   000000 011000                    NOP     0

      796    12163
      797    12164    2      RETURN;

  12164  2 002754   200244 221300                    LDX1  ! IC+1,,AUTO
         2 002755   000001 702211                    TSX2  ! 1,X1

      798    12165    2   END DISP_A_LDCT;
      799    12166        %EJECT;
PL6.E3A0      #001=DAD$DCT File=DAD$DCT.:E05TSI                                  TUE 07/29/97 12:42 Page:133
      800    12167        /*F* NAME: DAD$IOCHAN
      801    12168
      802    12169        */
      803    12170    1   DAD$IOCHAN: ENTRY(TOP);

  12170  2 002756   000000 700200 xent  DAD$IOCHAN   TSX0  ! X66_AUTO_1
         2 002757   000416 000001                    ZERO    270,1

      804    12171    1      CALL DAF$INIT(DQHRPT);

  12171  2 002760   000175 630400 3                  EPPR0   125
         2 002761   000017 631400 xsym               EPPR1   B_VECTNIL+15
         2 002762   000000 701000 xent               TSX1    DAF$INIT
         2 002763   000000 011000                    NOP     0

      805    12172    1      CALL DAS$SDMONPTR(%M#NI_IOMS,P$);

  12172  2 002764   200134 630500                    EPPR0   P$,,AUTO
         2 002765   200271 450500                    STP0    X+19,,AUTO
         2 002766   000177 236000 3                  LDQ     127
         2 002767   200270 756100                    STQ     X+18,,AUTO
         2 002770   200270 630500                    EPPR0   X+18,,AUTO
         2 002771   000020 631400 xsym               EPPR1   B_VECTNIL+16
         2 002772   000000 701000 xent               TSX1    DAS$SDMONPTR
         2 002773   000000 011000                    NOP     0

      806    12173    1      CALL DAM$MAP(P$,P$,,,DA_MONISDATA);

  12173  2 002774   000004 236000 3                  LDQ     4
         2 002775   200274 756100                    STQ     X+22,,AUTO
         2 002776   000001 236000 xsym               LDQ     B_VECTNIL+1
         2 002777   000001 235000 xsym               LDA     B_VECTNIL+1
         2 003000   200272 757100                    STAQ    X+20,,AUTO
         2 003001   200134 630500                    EPPR0   P$,,AUTO
         2 003002   200271 450500                    STP0    X+19,,AUTO
         2 003003   200134 631500                    EPPR1   P$,,AUTO
         2 003004   200270 451500                    STP1    X+18,,AUTO
PL6.E3A0      #001=DAD$DCT File=DAD$DCT.:E05TSI                                  TUE 07/29/97 12:42 Page:134
         2 003005   200270 630500                    EPPR0   X+18,,AUTO
         2 003006   000023 631400 xsym               EPPR1   B_VECTNIL+19
         2 003007   000000 701000 xent               TSX1    DAM$MAP
         2 003010   000000 011000                    NOP     0

      807    12174    1      IOMS=P$->SBINWORD-1;

  12174  2 003011   200134 470500                    LDP0    P$,,AUTO
         2 003012   000000 235100                    LDA     0,,PR0
         2 003013   000001 135007                    SBLA    1,DL
         2 003014   200143 755100                    STA     IOMS,,AUTO

      808    12175    1      CALL DAS$SDMONPTR(%M#NI$CHT$,P$);

  12175  2 003015   200134 631500                    EPPR1   P$,,AUTO
         2 003016   200271 451500                    STP1    X+19,,AUTO
         2 003017   000201 236000 3                  LDQ     129
         2 003020   200270 756100                    STQ     X+18,,AUTO
         2 003021   200270 630500                    EPPR0   X+18,,AUTO
         2 003022   000020 631400 xsym               EPPR1   B_VECTNIL+16
         2 003023   000000 701000 xent               TSX1    DAS$SDMONPTR
         2 003024   000000 011000                    NOP     0

      809    12176    1      CALL DAM$MAP(P$,P$,,,DA_MONISDATA);

  12176  2 003025   000004 236000 3                  LDQ     4
         2 003026   200274 756100                    STQ     X+22,,AUTO
         2 003027   000001 236000 xsym               LDQ     B_VECTNIL+1
         2 003030   000001 235000 xsym               LDA     B_VECTNIL+1
         2 003031   200272 757100                    STAQ    X+20,,AUTO
         2 003032   200134 630500                    EPPR0   P$,,AUTO
         2 003033   200271 450500                    STP0    X+19,,AUTO
         2 003034   200134 631500                    EPPR1   P$,,AUTO
         2 003035   200270 451500                    STP1    X+18,,AUTO
         2 003036   200270 630500                    EPPR0   X+18,,AUTO
         2 003037   000023 631400 xsym               EPPR1   B_VECTNIL+19
         2 003040   000000 701000 xent               TSX1    DAM$MAP
PL6.E3A0      #001=DAD$DCT File=DAD$DCT.:E05TSI                                  TUE 07/29/97 12:42 Page:135
         2 003041   000000 011000                    NOP     0

      810    12177    1      CHT$=P$->PTR$;

  12177  2 003042   200134 470500                    LDP0    P$,,AUTO
         2 003043   000000 236100                    LDQ     0,,PR0
         2 003044   200112 756100                    STQ     CHT$,,AUTO

      811    12178    1      CALL DAM$MAP(CHT$,CHT$);

  12178  2 003045   200112 631500                    EPPR1   CHT$,,AUTO
         2 003046   200271 451500                    STP1    X+19,,AUTO
         2 003047   200112 633500                    EPPR3   CHT$,,AUTO
         2 003050   200270 453500                    STP3    X+18,,AUTO
         2 003051   200270 630500                    EPPR0   X+18,,AUTO
         2 003052   000020 631400 xsym               EPPR1   B_VECTNIL+16
         2 003053   000000 701000 xent               TSX1    DAM$MAP
         2 003054   000000 011000                    NOP     0

      812    12179    2      IF TOP.NSUBLKS=0 THEN DO I=0 TO IOMS;

  12179  2 003055   200003 470500                    LDP0    @TOP,,AUTO
         2 003056   000001 220100                    LDX0    1,,PR0
         2 003057   003122 601000 2                  TNZ     s:12189

  12179  2 003060   200144 450100                    STZ     I,,AUTO
         2 003061   003116 710000 2                  TRA     s:12188+1

      813    12180    3           DO J=8 TO DA_MAXCHANS-1;

  12180  2 003062   000010 235007                    LDA     8,DL
         2 003063   200145 755100                    STA     J,,AUTO
         2 003064   003112 710000 2                  TRA     s:12187+1

      814    12181    3                DQH$=CHT.DQH$(I*DA_MAXCHANS+J);

  12181  2 003065   200144 236100                    LDQ     I,,AUTO
PL6.E3A0      #001=DAD$DCT File=DAD$DCT.:E05TSI                                  TUE 07/29/97 12:42 Page:136
         2 003066   000000 402000 xsym               MPY     DA_MAXCHANS
         2 003067   200145 036100                    ADLQ    J,,AUTO
         2 003070   000001 736000                    QLS     1
         2 003071   200112 470500                    LDP0    CHT$,,AUTO
         2 003072   000000 236106                    LDQ     0,QL,PR0
         2 003073   200007 756100                    STQ     DQH$,,AUTO

      815    12182    4                IF DQH$~=ADDR(NIL) THEN DO;

  12182  2 003074   000001 116000 xsym               CMPQ    B_VECTNIL+1
         2 003075   003111 600000 2                  TZE     s:12187

      816    12183    4                     DCTADR$=DQH$;

  12183  2 003076   200166 756100                    STQ     DCTADR$,,AUTO

      817    12184    4                     CALL DAM$MAP(DQH$,DQH$);

  12184  2 003077   200007 631500                    EPPR1   DQH$,,AUTO
         2 003100   200271 451500                    STP1    X+19,,AUTO
         2 003101   200007 633500                    EPPR3   DQH$,,AUTO
         2 003102   200270 453500                    STP3    X+18,,AUTO
         2 003103   200270 630500                    EPPR0   X+18,,AUTO
         2 003104   000020 631400 xsym               EPPR1   B_VECTNIL+16
         2 003105   000000 701000 xent               TSX1    DAM$MAP
         2 003106   000000 011000                    NOP     0

      818    12185    4                     CALL DIDQH;

  12185  2 003107   003312 701000 2                  TSX1    DIDQH
         2 003110   000000 011000                    NOP     0

      819    12186    4                     END;

      820    12187    3                END;

  12187  2 003111   200145 054100                    AOS     J,,AUTO
PL6.E3A0      #001=DAD$DCT File=DAD$DCT.:E05TSI                                  TUE 07/29/97 12:42 Page:137
         2 003112   200145 236100                    LDQ     J,,AUTO
         2 003113   000000 116000 xsym               CMPQ    DA_MAXCHANS
         2 003114   003065 604000 2                  TMI     s:12181

      821    12188    2           END;

  12188  2 003115   200144 054100                    AOS     I,,AUTO
         2 003116   200144 236100                    LDQ     I,,AUTO
         2 003117   200143 116100                    CMPQ    IOMS,,AUTO
         2 003120   003062 604400 2                  TMOZ    s:12180
         2 003121   003311 710000 2                  TRA     s:12223

      822    12189    2      ELSE DO I=0 TO TOP.NSUBLKS-1;

  12189  2 003122   200144 450100                    STZ     I,,AUTO
         2 003123   003304 710000 2                  TRA     NXTNODE+1

      823    12190    3           DO CASE(TOP.SUBLK$(I)->OUT.CODE);

  12190  2 003124   200003 470500                    LDP0    @TOP,,AUTO
         2 003125   200144 720100                    LXL0    I,,AUTO
         2 003126   000003 471510                    LDP1    3,X0,PR0
         2 003127   100000 721100                    LXL1    0,,PR1
         2 003130   000003 101003                    CMPX1   3,DU
         2 003131   003133 602011 2                  TNC     s:12190+7,X1
         2 003132   003303 710000 2                  TRA     NXTNODE
         2 003133   003303 710000 2                  TRA     NXTNODE
         2 003134   003136 710000 2                  TRA     s:12192
         2 003135   003211 710000 2                  TRA     s:12206

      824    12191    3            CASE(%DA_IOCHAN_IOM);

      825    12192    3              CALL DAA$VALUE(TOP.SUBLK$(I)->OUT.SUBLK$(0)->OUT,DCTX);

  12192  2 003136   100003 473500                    LDP3    3,,PR1
         2 003137   200160 634500                    EPPR4   DCTX,,AUTO
         2 003140   200271 454500                    STP4    X+19,,AUTO
PL6.E3A0      #001=DAD$DCT File=DAD$DCT.:E05TSI                                  TUE 07/29/97 12:42 Page:138
         2 003141   200270 453500                    STP3    X+18,,AUTO
         2 003142   200270 630500                    EPPR0   X+18,,AUTO
         2 003143   000020 631400 xsym               EPPR1   B_VECTNIL+16
         2 003144   000000 701000 xent               TSX1    DAA$VALUE
         2 003145   000000 011000                    NOP     0

      826    12193    3              IF DCTX>IOMS THEN CALL SETERR(%E$DA_IOC_BAD_IOM) ALTRET(NXTNODE);

  12193  2 003146   200160 236100                    LDQ     DCTX,,AUTO
         2 003147   200143 116100                    CMPQ    IOMS,,AUTO
         2 003150   003155 604400 2                  TMOZ    s:12197

  12193  2 003151   000203 236000 3                  LDQ     131
         2 003152   200245 756100                    STQ     IC+2,,AUTO
         2 003153   007311 701000 2                  TSX1    SETERR
         2 003154   003303 702000 2                  TSX2    NXTNODE

      827    12194        /*E*    ERROR:   DAD-E$DA_IOC_BAD_IOM
      828    12195                MESSAGE: IOM does not exist.
      829    12196                                                                           */
      830    12197    4              DO J=8 TO DA_MAXCHANS-1;

  12197  2 003155   000010 235007                    LDA     8,DL
         2 003156   200145 755100                    STA     J,,AUTO
         2 003157   003205 710000 2                  TRA     s:12204+1

      831    12198    4                   DQH$=CHT.DQH$(DCTX*DA_MAXCHANS+J);

  12198  2 003160   200160 236100                    LDQ     DCTX,,AUTO
         2 003161   000000 402000 xsym               MPY     DA_MAXCHANS
         2 003162   200145 036100                    ADLQ    J,,AUTO
         2 003163   000001 736000                    QLS     1
         2 003164   200112 470500                    LDP0    CHT$,,AUTO
         2 003165   000000 236106                    LDQ     0,QL,PR0
         2 003166   200007 756100                    STQ     DQH$,,AUTO

      832    12199    5                   IF DQH$~=ADDR(NIL) THEN DO;
PL6.E3A0      #001=DAD$DCT File=DAD$DCT.:E05TSI                                  TUE 07/29/97 12:42 Page:139

  12199  2 003167   000001 116000 xsym               CMPQ    B_VECTNIL+1
         2 003170   003204 600000 2                  TZE     s:12204

      833    12200    5                        DCTADR$=DQH$;

  12200  2 003171   200166 756100                    STQ     DCTADR$,,AUTO

      834    12201    5                        CALL DAM$MAP(DQH$,DQH$);

  12201  2 003172   200007 631500                    EPPR1   DQH$,,AUTO
         2 003173   200271 451500                    STP1    X+19,,AUTO
         2 003174   200007 633500                    EPPR3   DQH$,,AUTO
         2 003175   200270 453500                    STP3    X+18,,AUTO
         2 003176   200270 630500                    EPPR0   X+18,,AUTO
         2 003177   000020 631400 xsym               EPPR1   B_VECTNIL+16
         2 003200   000000 701000 xent               TSX1    DAM$MAP
         2 003201   000000 011000                    NOP     0

      835    12202    5                        CALL DIDQH;

  12202  2 003202   003312 701000 2                  TSX1    DIDQH
         2 003203   000000 011000                    NOP     0

      836    12203    5                        END;

      837    12204    4                   END;

  12204  2 003204   200145 054100                    AOS     J,,AUTO
         2 003205   200145 236100                    LDQ     J,,AUTO
         2 003206   000000 116000 xsym               CMPQ    DA_MAXCHANS
         2 003207   003160 604000 2                  TMI     s:12198
         2 003210   003303 710000 2                  TRA     NXTNODE

      838    12205    3            CASE(%DA_IOCHAN_CHAN);

      839    12206    3              CALL DAA$VALUE(TOP.SUBLK$(I)->OUT.SUBLK$(0)->OUT,DCTX);
PL6.E3A0      #001=DAD$DCT File=DAD$DCT.:E05TSI                                  TUE 07/29/97 12:42 Page:140

  12206  2 003211   100003 473500                    LDP3    3,,PR1
         2 003212   200160 634500                    EPPR4   DCTX,,AUTO
         2 003213   200271 454500                    STP4    X+19,,AUTO
         2 003214   200270 453500                    STP3    X+18,,AUTO
         2 003215   200270 630500                    EPPR0   X+18,,AUTO
         2 003216   000020 631400 xsym               EPPR1   B_VECTNIL+16
         2 003217   000000 701000 xent               TSX1    DAA$VALUE
         2 003220   000000 011000                    NOP     0

      840    12207    3              IF DCTX>IOMS THEN CALL SETERR(%E$DA_IOC_BAD_IOM) ALTRET(NXTNODE);

  12207  2 003221   200160 236100                    LDQ     DCTX,,AUTO
         2 003222   200143 116100                    CMPQ    IOMS,,AUTO
         2 003223   003230 604400 2                  TMOZ    s:12208

  12207  2 003224   000203 236000 3                  LDQ     131
         2 003225   200245 756100                    STQ     IC+2,,AUTO
         2 003226   007311 701000 2                  TSX1    SETERR
         2 003227   003303 702000 2                  TSX2    NXTNODE

      841    12208    3              CALL DAA$VALUE(TOP.SUBLK$(I)->OUT.SUBLK$(1)->OUT,J);

  12208  2 003230   200003 470500                    LDP0    @TOP,,AUTO
         2 003231   200144 720100                    LXL0    I,,AUTO
         2 003232   000003 471510                    LDP1    3,X0,PR0
         2 003233   100004 473500                    LDP3    4,,PR1
         2 003234   200145 634500                    EPPR4   J,,AUTO
         2 003235   200271 454500                    STP4    X+19,,AUTO
         2 003236   200270 453500                    STP3    X+18,,AUTO
         2 003237   200270 630500                    EPPR0   X+18,,AUTO
         2 003240   000020 631400 xsym               EPPR1   B_VECTNIL+16
         2 003241   000000 701000 xent               TSX1    DAA$VALUE
         2 003242   000000 011000                    NOP     0

      842    12209    3              IF J>DA_MAXCHANS-1 THEN CALL SETERR(%E$DA_IOC_BAD_CHAN) ALTRET(NXTNODE);

PL6.E3A0      #001=DAD$DCT File=DAD$DCT.:E05TSI                                  TUE 07/29/97 12:42 Page:141
  12209  2 003243   200145 236100                    LDQ     J,,AUTO
         2 003244   000000 116000 xsym               CMPQ    DA_MAXCHANS
         2 003245   003252 604000 2                  TMI     s:12213

  12209  2 003246   000205 236000 3                  LDQ     133
         2 003247   200245 756100                    STQ     IC+2,,AUTO
         2 003250   007311 701000 2                  TSX1    SETERR
         2 003251   003303 702000 2                  TSX2    NXTNODE

      843    12210        /*E*    ERROR:   DAD-E$DA_IOC_BAD_CHAN
      844    12211                MESSAGE: Bad channel number.
      845    12212                                                                           */
      846    12213    3              DQH$=CHT.DQH$(DCTX*DA_MAXCHANS+J);

  12213  2 003252   200160 236100                    LDQ     DCTX,,AUTO
         2 003253   000000 402000 xsym               MPY     DA_MAXCHANS
         2 003254   200145 036100                    ADLQ    J,,AUTO
         2 003255   000001 736000                    QLS     1
         2 003256   200112 470500                    LDP0    CHT$,,AUTO
         2 003257   000000 236106                    LDQ     0,QL,PR0
         2 003260   200007 756100                    STQ     DQH$,,AUTO

      847    12214    4              IF DQH$~=ADDR(NIL) THEN DO;

  12214  2 003261   000001 116000 xsym               CMPQ    B_VECTNIL+1
         2 003262   003277 600000 2                  TZE     s:12219

      848    12215    4                   DCTADR$=DQH$;

  12215  2 003263   200166 756100                    STQ     DCTADR$,,AUTO

      849    12216    4                   CALL DAM$MAP(DQH$,DQH$);

  12216  2 003264   200007 631500                    EPPR1   DQH$,,AUTO
         2 003265   200271 451500                    STP1    X+19,,AUTO
         2 003266   200007 633500                    EPPR3   DQH$,,AUTO
         2 003267   200270 453500                    STP3    X+18,,AUTO
PL6.E3A0      #001=DAD$DCT File=DAD$DCT.:E05TSI                                  TUE 07/29/97 12:42 Page:142
         2 003270   200270 630500                    EPPR0   X+18,,AUTO
         2 003271   000020 631400 xsym               EPPR1   B_VECTNIL+16
         2 003272   000000 701000 xent               TSX1    DAM$MAP
         2 003273   000000 011000                    NOP     0

      850    12217    4                   CALL DIDQH;

  12217  2 003274   003312 701000 2                  TSX1    DIDQH
         2 003275   000000 011000                    NOP     0

      851    12218    4                   END;

  12218  2 003276   003303 710000 2                  TRA     NXTNODE

      852    12219    3              ELSE CALL SETERR(%E$DA_IOC_BAD_CHAN);

  12219  2 003277   000205 236000 3                  LDQ     133
         2 003300   200245 756100                    STQ     IC+2,,AUTO
         2 003301   007311 701000 2                  TSX1    SETERR
         2 003302   000000 011000                    NOP     0

  12214  2 003303                       NXTNODE      null
      853    12220    3   NXTNODE:   ;
      854    12221    3              END;

      855    12222    2           END;

  12222  2 003303   200144 054100                    AOS     I,,AUTO
         2 003304   200003 470500                    LDP0    @TOP,,AUTO
         2 003305   000001 236100                    LDQ     1,,PR0
         2 003306   000022 772000                    QRL     18
         2 003307   200144 116100                    CMPQ    I,,AUTO
         2 003310   003124 605400 2                  TPNZ    s:12190

      856    12223    1      RETURN;

  12223  2 003311   000000 702200 xent               TSX2  ! X66_ARET
PL6.E3A0      #001=DAD$DCT File=DAD$DCT.:E05TSI                                  TUE 07/29/97 12:42 Page:143

      857    12224        %EJECT;
PL6.E3A0      #001=DAD$DCT File=DAD$DCT.:E05TSI                                  TUE 07/29/97 12:42 Page:144
      858    12225    1   DIDQH: PROC;

  12225  2 003312   200244 741300       DIDQH        STX1  ! IC+1,,AUTO

      859    12226    2      DQCHAN.IOM=DQH.IOCHAN.IOM;

  12226  2 003313   200007 470500                    LDP0    DQH$,,AUTO
         2 003314   000001 236100                    LDQ     1,,PR0
         2 003315   000031 772000                    QRL     25
         2 003316   000003 376007                    ANQ     3,DL
         2 003317   200202 756100                    STQ     DQCHAN,,AUTO

      860    12227    2      DQCHAN.CHAN=DQH.IOCHAN.CHANNEL;

  12227  2 003320   000001 236100                    LDQ     1,,PR0
         2 003321   000022 772000                    QRL     18
         2 003322   000177 376007                    ANQ     127,DL
         2 003323   200203 756100                    STQ     DQCHAN+1,,AUTO

      861    12228    2      STATUS.DOWN=NOYES(BITBIN(DQH.STATUS.DOWN));

  12228  2 003324   000001 236100                    LDQ     1,,PR0
         2 003325   000042 772000                    QRL     34
         2 003326   000001 376007                    ANQ     1,DL
         2 003327   000003 402007                    MPY     3,DL
         2 003330   040100 100406                    MLR     fill='040'O
         2 003331   000004 000003 0                  ADSC9   NOYES,Q                  cn=0,n=3
         2 003332   200200 000004                    ADSC9   STATUS,,AUTO             cn=0,n=4

      862    12229    2      STATUS.TND=TDTST(DQH.STATUS.TND);

  12229  2 003333   000001 236100                    LDQ     1,,PR0
         2 003334   000035 772000                    QRL     29
         2 003335   000017 376007                    ANQ     15,DL
         2 003336   000003 402007                    MPY     3,DL
         2 003337   040100 100406                    MLR     fill='040'O
         2 003340   000006 000003 0                  ADSC9   TDTST,Q                  cn=0,n=3
PL6.E3A0      #001=DAD$DCT File=DAD$DCT.:E05TSI                                  TUE 07/29/97 12:42 Page:145
         2 003341   200201 000003                    ADSC9   STATUS+1,,AUTO           cn=0,n=3

      863    12230    2      STATE=IOSTATE(DQH.STATE);

  12230  2 003342   000001 236100                    LDQ     1,,PR0
         2 003343   000077 376007                    ANQ     63,DL
         2 003344   000005 402007                    MPY     5,DL
         2 003345   040100 100406                    MLR     fill='040'O
         2 003346   000013 000005 0                  ADSC9   IOSTATE,Q                cn=0,n=5
         2 003347   200174 000005                    ADSC9   STATE,,AUTO              cn=0,n=5

      864    12231    2      LOSTINT=DQH.TIMOUT;

  12231  2 003350   000001 236100                    LDQ     1,,PR0
         2 003351   000014 772000                    QRL     12
         2 003352   000077 376007                    ANQ     63,DL
         2 003353   200204 756100                    STQ     LOSTINT,,AUTO

      865    12232    2      STOP=NOYES(BITBIN(DQH.CHANSTATE.STOP));

  12232  2 003354   000020 236100                    LDQ     16,,PR0
         2 003355   000043 772000                    QRL     35
         2 003356   000003 402007                    MPY     3,DL
         2 003357   040100 100406                    MLR     fill='040'O
         2 003360   000004 000003 0                  ADSC9   NOYES,Q                  cn=0,n=3
         2 003361   200205 000003                    ADSC9   STOP,,AUTO               cn=0,n=3

      866    12233    2      MREC=NOYES(BITBIN(DQH.MREC));

  12233  2 003362   000001 236100                    LDQ     1,,PR0
         2 003363   000043 772000                    QRL     35
         2 003364   000003 402007                    MPY     3,DL
         2 003365   040100 100406                    MLR     fill='040'O
         2 003366   000004 000003 0                  ADSC9   NOYES,Q                  cn=0,n=3
         2 003367   200206 000003                    ADSC9   MREC,,AUTO               cn=0,n=3

      867    12234    3      IF DQH.MPC$~=ADDR(NIL) AND DQH.MPC$~=B$PS$(0) THEN DO;
PL6.E3A0      #001=DAD$DCT File=DAD$DCT.:E05TSI                                  TUE 07/29/97 12:42 Page:146

  12234  2 003370   000015 236100                    LDQ     13,,PR0
         2 003371   000001 116000 xsym               CMPQ    B_VECTNIL+1
         2 003372   003413 600000 2                  TZE     s:12239
         2 003373   000000 116000 xsym               CMPQ    B$PS$
         2 003374   003413 600000 2                  TZE     s:12239

      868    12235    3           CALL DAM$MAP(DQH.MPC$,DCT$);

  12235  2 003375   200006 631500                    EPPR1   DCT$,,AUTO
         2 003376   200271 451500                    STP1    X+19,,AUTO
         2 003377   200007 236100                    LDQ     DQH$,,AUTO
         2 003400   000015 036003                    ADLQ    13,DU
         2 003401   200270 756100                    STQ     X+18,,AUTO
         2 003402   200270 630500                    EPPR0   X+18,,AUTO
         2 003403   000020 631400 xsym               EPPR1   B_VECTNIL+16
         2 003404   000000 701000 xent               TSX1    DAM$MAP
         2 003405   000000 011000                    NOP     0

      869    12236    3           DEVNM=DCT.DEVNM;

  12236  2 003406   200006 470500                    LDP0    DCT$,,AUTO
         2 003407   040100 100500                    MLR     fill='040'O
         2 003410   000002 000010                    ADSC9   2,,PR0                   cn=0,n=8
         2 003411   200161 000010                    ADSC9   DEVNM,,AUTO              cn=0,n=8

      870    12237    3           END;

  12237  2 003412   003417 710000 2                  TRA     s:12241

      871    12238    3      ELSE DO;

      872    12239    3           DEVNM=' ';

  12239  2 003413   000035 235000 xsym               LDA     B_VECTNIL+29
         2 003414   000035 236000 xsym               LDQ     B_VECTNIL+29
         2 003415   200161 755100                    STA     DEVNM,,AUTO
PL6.E3A0      #001=DAD$DCT File=DAD$DCT.:E05TSI                                  TUE 07/29/97 12:42 Page:147
         2 003416   200162 756100                    STQ     DEVNM+1,,AUTO

      873    12240    3           END;

      874    12241    2      DCT$=DQH.FL$;

  12241  2 003417   200007 470500                    LDP0    DQH$,,AUTO
         2 003420   000000 236100                    LDQ     0,,PR0
         2 003421   200006 756100                    STQ     DCT$,,AUTO

      875    12242    3      IF DCT$=ADDR(NIL) THEN DO;

  12242  2 003422   000001 116000 xsym               CMPQ    B_VECTNIL+1
         2 003423   003430 601000 2                  TNZ     s:12246

      876    12243    3           DQHFL='0'B;

  12243  2 003424   000000 235003                    LDA     0,DU
         2 003425   000000 236003                    LDQ     0,DU
         2 003426   200172 757100                    STAQ    DQHFL,,AUTO

      877    12244    3           END;

  12244  2 003427   003451 710000 2                  TRA     s:12259

      878    12245    3      ELSE DO;

      879    12246    3           CALL DAM$MAP(DCT$,DCT$);

  12246  2 003430   200006 631500                    EPPR1   DCT$,,AUTO
         2 003431   200271 451500                    STP1    X+19,,AUTO
         2 003432   200006 633500                    EPPR3   DCT$,,AUTO
         2 003433   200270 453500                    STP3    X+18,,AUTO
         2 003434   200270 630500                    EPPR0   X+18,,AUTO
         2 003435   000020 631400 xsym               EPPR1   B_VECTNIL+16
         2 003436   000000 701000 xent               TSX1    DAM$MAP
         2 003437   000000 011000                    NOP     0
PL6.E3A0      #001=DAD$DCT File=DAD$DCT.:E05TSI                                  TUE 07/29/97 12:42 Page:148

      880    12247    3           DQHFL.IOM=DCT$->DQH.IOCHAN.IOM;

  12247  2 003440   200006 470500                    LDP0    DCT$,,AUTO
         2 003441   000001 236100                    LDQ     1,,PR0
         2 003442   000031 772000                    QRL     25
         2 003443   000003 376007                    ANQ     3,DL
         2 003444   200172 756100                    STQ     DQHFL,,AUTO

      881    12248    3           DQHFL.CHAN=DCT$->DQH.IOCHAN.CHANNEL;

  12248  2 003445   000001 236100                    LDQ     1,,PR0
         2 003446   000022 772000                    QRL     18
         2 003447   000177 376007                    ANQ     127,DL
         2 003450   200173 756100                    STQ     DQHFL+1,,AUTO

      882    12249    3           END;

      883    12250    2      CALL DAF$WRITE(VECTOR(DQHFMT),
      884    12251    2        VECTOR(DQCHAN),
      885    12252    2        VECTOR(DEVNM),
      886    12253    2        VECTOR(DQHFL),
      887    12254    2        VECTOR(DCTADR$),
      888    12255    2        VECTOR(DQH.IO$),
      889    12256    2        VECTOR(DQH.SQH$),
      890    12257    2        VECTOR(STATUS),
      891    12258    2        VECTOR(STATE),
      892    12259    2        VECTOR(LOSTINT),

  12259  2 003451   000013 235000 3                  LDA     11
         2 003452   200270 452500                    STP2    X+18,,AUTO
         2 003453   200270 236100                    LDQ     X+18,,AUTO
         2 003454   000202 036003                    ADLQ    130,DU
         2 003455   200272 757100                    STAQ    X+20,,AUTO
         2 003456   000013 235000 3                  LDA     11
         2 003457   200274 452500                    STP2    X+22,,AUTO
         2 003460   200274 236100                    LDQ     X+22,,AUTO
PL6.E3A0      #001=DAD$DCT File=DAD$DCT.:E05TSI                                  TUE 07/29/97 12:42 Page:149
         2 003461   000161 036003                    ADLQ    113,DU
         2 003462   200276 757100                    STAQ    X+24,,AUTO
         2 003463   000013 235000 3                  LDA     11
         2 003464   200300 452500                    STP2    X+26,,AUTO
         2 003465   200300 236100                    LDQ     X+26,,AUTO
         2 003466   000172 036003                    ADLQ    122,DU
         2 003467   200302 757100                    STAQ    X+28,,AUTO
         2 003470   777640 235007                    LDA     -96,DL
         2 003471   200304 452500                    STP2    X+30,,AUTO
         2 003472   200304 236100                    LDQ     X+30,,AUTO
         2 003473   000166 036003                    ADLQ    118,DU
         2 003474   200306 757100                    STAQ    X+32,,AUTO
         2 003475   777640 235007                    LDA     -96,DL
         2 003476   200007 236100                    LDQ     DQH$,,AUTO
         2 003477   000014 036003                    ADLQ    12,DU
         2 003500   200310 757100                    STAQ    X+34,,AUTO
         2 003501   777640 235007                    LDA     -96,DL
         2 003502   200007 236100                    LDQ     DQH$,,AUTO
         2 003503   000013 036003                    ADLQ    11,DU
         2 003504   200312 757100                    STAQ    X+36,,AUTO
         2 003505   000151 235000 3                  LDA     105
         2 003506   200314 452500                    STP2    X+38,,AUTO
         2 003507   200314 236100                    LDQ     X+38,,AUTO
         2 003510   000200 036003                    ADLQ    128,DU
         2 003511   200316 757100                    STAQ    X+40,,AUTO
         2 003512   000016 235000 3                  LDA     14
         2 003513   200320 452500                    STP2    X+42,,AUTO
         2 003514   200320 236100                    LDQ     X+42,,AUTO
         2 003515   000174 036003                    ADLQ    124,DU
         2 003516   200322 757100                    STAQ    X+44,,AUTO
         2 003517   777640 235007                    LDA     -96,DL
         2 003520   200324 452500                    STP2    X+46,,AUTO
         2 003521   200324 236100                    LDQ     X+46,,AUTO
         2 003522   000204 036003                    ADLQ    132,DU
         2 003523   200326 757100                    STAQ    X+48,,AUTO
         2 003524   577640 235007                    LDA     -65632,DL
         2 003525   200330 452500                    STP2    X+50,,AUTO
PL6.E3A0      #001=DAD$DCT File=DAD$DCT.:E05TSI                                  TUE 07/29/97 12:42 Page:150
         2 003526   200330 236100                    LDQ     X+50,,AUTO
         2 003527   000205 036003                    ADLQ    133,DU
         2 003530   200332 757100                    STAQ    X+52,,AUTO
         2 003531   577640 235007                    LDA     -65632,DL
         2 003532   200334 452500                    STP2    X+54,,AUTO
         2 003533   200334 236100                    LDQ     X+54,,AUTO
         2 003534   000206 036003                    ADLQ    134,DU
         2 003535   200340 757100                    STAQ    X+58,,AUTO
         2 003536   200272 237100                    LDAQ    X+20,,AUTO
         2 003537   200336 757100                    STAQ    X+56,,AUTO
         2 003540   200276 237100                    LDAQ    X+24,,AUTO
         2 003541   200342 757100                    STAQ    X+60,,AUTO
         2 003542   200302 237100                    LDAQ    X+28,,AUTO
         2 003543   200344 757100                    STAQ    X+62,,AUTO
         2 003544   200306 237100                    LDAQ    X+32,,AUTO
         2 003545   200346 757100                    STAQ    X+64,,AUTO
         2 003546   200310 237100                    LDAQ    X+34,,AUTO
         2 003547   200350 757100                    STAQ    X+66,,AUTO
         2 003550   200312 237100                    LDAQ    X+36,,AUTO
         2 003551   200352 757100                    STAQ    X+68,,AUTO
         2 003552   200316 237100                    LDAQ    X+40,,AUTO
         2 003553   200354 757100                    STAQ    X+70,,AUTO
         2 003554   200322 237100                    LDAQ    X+44,,AUTO
         2 003555   200356 757100                    STAQ    X+72,,AUTO
         2 003556   200326 237100                    LDAQ    X+48,,AUTO
         2 003557   200360 757100                    STAQ    X+74,,AUTO
         2 003560   200332 237100                    LDAQ    X+52,,AUTO
         2 003561   200362 757100                    STAQ    X+76,,AUTO
         2 003562   200340 237100                    LDAQ    X+58,,AUTO
         2 003563   200364 757100                    STAQ    X+78,,AUTO
         2 003564   200364 630500                    EPPR0   X+78,,AUTO
         2 003565   200401 450500                    STP0    X+91,,AUTO
         2 003566   200362 631500                    EPPR1   X+76,,AUTO
         2 003567   200400 451500                    STP1    X+90,,AUTO
         2 003570   200360 633500                    EPPR3   X+74,,AUTO
         2 003571   200377 453500                    STP3    X+89,,AUTO
         2 003572   200356 634500                    EPPR4   X+72,,AUTO
PL6.E3A0      #001=DAD$DCT File=DAD$DCT.:E05TSI                                  TUE 07/29/97 12:42 Page:151
         2 003573   200376 454500                    STP4    X+88,,AUTO
         2 003574   200354 635500                    EPPR5   X+70,,AUTO
         2 003575   200375 455500                    STP5    X+87,,AUTO
         2 003576   200352 636500                    EPPR6   X+68,,AUTO
         2 003577   200374 456500                    STP6    X+86,,AUTO
         2 003600   200350 637500                    EPPR7   X+66,,AUTO
         2 003601   200373 457500                    STP7    X+85,,AUTO
         2 003602   200346 630500                    EPPR0   X+64,,AUTO
         2 003603   200372 450500                    STP0    X+84,,AUTO
         2 003604   200344 630500                    EPPR0   X+62,,AUTO
         2 003605   200371 450500                    STP0    X+83,,AUTO
         2 003606   200342 630500                    EPPR0   X+60,,AUTO
         2 003607   200370 450500                    STP0    X+82,,AUTO
         2 003610   200336 630500                    EPPR0   X+56,,AUTO
         2 003611   200367 450500                    STP0    X+81,,AUTO
         2 003612   000210 236000 3                  LDQ     136
         2 003613   200366 756100                    STQ     X+80,,AUTO
         2 003614   200366 630500                    EPPR0   X+80,,AUTO
         2 003615   000000 220000 xsym               LDX0    DAF$WRITE
         2 003616   000065 631400 3                  EPPR1   53
         2 003617   000000 701010                    TSX1    0,X0
         2 003620   000000 011000                    NOP     0

      893    12260    2        VECTOR(STOP),
      894    12261    2        VECTOR(MREC));
      895    12262    2      RETURN;

  12262  2 003621   200244 221300                    LDX1  ! IC+1,,AUTO
         2 003622   000001 702211                    TSX2  ! 1,X1

      896    12263    2   END DIDQH;
      897    12264        %EJECT;
PL6.E3A0      #001=DAD$DCT File=DAD$DCT.:E05TSI                                  TUE 07/29/97 12:42 Page:152
      898    12265    1   DAD$SQH: ENTRY (TOP);

  12265  2 003623   000000 700200 xent  DAD$SQH      TSX0  ! X66_AUTO_1
         2 003624   000416 000001                    ZERO    270,1

      899    12266
      900    12267    1      CALL DAF$INIT (SQHRPT);

  12267  2 003625   000211 630400 3                  EPPR0   137
         2 003626   000017 631400 xsym               EPPR1   B_VECTNIL+15
         2 003627   000000 701000 xent               TSX1    DAF$INIT
         2 003630   000000 011000                    NOP     0

      901    12268    1      CALL DAS$SDMONPTR(%M#NI_IOMS,P$);

  12268  2 003631   200134 630500                    EPPR0   P$,,AUTO
         2 003632   200271 450500                    STP0    X+19,,AUTO
         2 003633   000177 236000 3                  LDQ     127
         2 003634   200270 756100                    STQ     X+18,,AUTO
         2 003635   200270 630500                    EPPR0   X+18,,AUTO
         2 003636   000020 631400 xsym               EPPR1   B_VECTNIL+16
         2 003637   000000 701000 xent               TSX1    DAS$SDMONPTR
         2 003640   000000 011000                    NOP     0

      902    12269    1      CALL DAM$MAP (P$,P$,,,DA_MONISDATA);

  12269  2 003641   000004 236000 3                  LDQ     4
         2 003642   200274 756100                    STQ     X+22,,AUTO
         2 003643   000001 236000 xsym               LDQ     B_VECTNIL+1
         2 003644   000001 235000 xsym               LDA     B_VECTNIL+1
         2 003645   200272 757100                    STAQ    X+20,,AUTO
         2 003646   200134 630500                    EPPR0   P$,,AUTO
         2 003647   200271 450500                    STP0    X+19,,AUTO
         2 003650   200134 631500                    EPPR1   P$,,AUTO
         2 003651   200270 451500                    STP1    X+18,,AUTO
         2 003652   200270 630500                    EPPR0   X+18,,AUTO
         2 003653   000023 631400 xsym               EPPR1   B_VECTNIL+19
PL6.E3A0      #001=DAD$DCT File=DAD$DCT.:E05TSI                                  TUE 07/29/97 12:42 Page:153
         2 003654   000000 701000 xent               TSX1    DAM$MAP
         2 003655   000000 011000                    NOP     0

      903    12270    1      IOMS=P$->SBINWORD-1;

  12270  2 003656   200134 470500                    LDP0    P$,,AUTO
         2 003657   000000 235100                    LDA     0,,PR0
         2 003660   000001 135007                    SBLA    1,DL
         2 003661   200143 755100                    STA     IOMS,,AUTO

      904    12271    1      CALL DAS$SDMONPTR(%M#NI$CHT$,P$);

  12271  2 003662   200134 631500                    EPPR1   P$,,AUTO
         2 003663   200271 451500                    STP1    X+19,,AUTO
         2 003664   000201 236000 3                  LDQ     129
         2 003665   200270 756100                    STQ     X+18,,AUTO
         2 003666   200270 630500                    EPPR0   X+18,,AUTO
         2 003667   000020 631400 xsym               EPPR1   B_VECTNIL+16
         2 003670   000000 701000 xent               TSX1    DAS$SDMONPTR
         2 003671   000000 011000                    NOP     0

      905    12272    1      CALL DAM$MAP(P$,P$,,,DA_MONISDATA);

  12272  2 003672   000004 236000 3                  LDQ     4
         2 003673   200274 756100                    STQ     X+22,,AUTO
         2 003674   000001 236000 xsym               LDQ     B_VECTNIL+1
         2 003675   000001 235000 xsym               LDA     B_VECTNIL+1
         2 003676   200272 757100                    STAQ    X+20,,AUTO
         2 003677   200134 630500                    EPPR0   P$,,AUTO
         2 003700   200271 450500                    STP0    X+19,,AUTO
         2 003701   200134 631500                    EPPR1   P$,,AUTO
         2 003702   200270 451500                    STP1    X+18,,AUTO
         2 003703   200270 630500                    EPPR0   X+18,,AUTO
         2 003704   000023 631400 xsym               EPPR1   B_VECTNIL+19
         2 003705   000000 701000 xent               TSX1    DAM$MAP
         2 003706   000000 011000                    NOP     0

PL6.E3A0      #001=DAD$DCT File=DAD$DCT.:E05TSI                                  TUE 07/29/97 12:42 Page:154
      906    12273    1      CHT$=P$->PTR$;

  12273  2 003707   200134 470500                    LDP0    P$,,AUTO
         2 003710   000000 236100                    LDQ     0,,PR0
         2 003711   200112 756100                    STQ     CHT$,,AUTO

      907    12274    1      CALL DAM$MAP(CHT$,CHT$);

  12274  2 003712   200112 631500                    EPPR1   CHT$,,AUTO
         2 003713   200271 451500                    STP1    X+19,,AUTO
         2 003714   200112 633500                    EPPR3   CHT$,,AUTO
         2 003715   200270 453500                    STP3    X+18,,AUTO
         2 003716   200270 630500                    EPPR0   X+18,,AUTO
         2 003717   000020 631400 xsym               EPPR1   B_VECTNIL+16
         2 003720   000000 701000 xent               TSX1    DAM$MAP
         2 003721   000000 011000                    NOP     0

      908    12275    1      CALL DAS$SDMONPTR(%M#N$DCT$$,DCT$$) ALTRET(ALT);

  12275  2 003722   200004 630500                    EPPR0   DCT$$,,AUTO
         2 003723   200271 450500                    STP0    X+19,,AUTO
         2 003724   000001 236000 3                  LDQ     1
         2 003725   200270 756100                    STQ     X+18,,AUTO
         2 003726   200270 630500                    EPPR0   X+18,,AUTO
         2 003727   000020 631400 xsym               EPPR1   B_VECTNIL+16
         2 003730   000000 701000 xent               TSX1    DAS$SDMONPTR
         2 003731   000464 702000 2                  TSX2    ALT

      909    12276    1      CALL DAM$MAP(DCT$$,DCT$$,,,DA_MONISDATA) ALTRET(ALT);

  12276  2 003732   000004 236000 3                  LDQ     4
         2 003733   200274 756100                    STQ     X+22,,AUTO
         2 003734   000001 236000 xsym               LDQ     B_VECTNIL+1
         2 003735   000001 235000 xsym               LDA     B_VECTNIL+1
         2 003736   200272 757100                    STAQ    X+20,,AUTO
         2 003737   200004 630500                    EPPR0   DCT$$,,AUTO
         2 003740   200271 450500                    STP0    X+19,,AUTO
PL6.E3A0      #001=DAD$DCT File=DAD$DCT.:E05TSI                                  TUE 07/29/97 12:42 Page:155
         2 003741   200004 631500                    EPPR1   DCT$$,,AUTO
         2 003742   200270 451500                    STP1    X+18,,AUTO
         2 003743   200270 630500                    EPPR0   X+18,,AUTO
         2 003744   000023 631400 xsym               EPPR1   B_VECTNIL+19
         2 003745   000000 701000 xent               TSX1    DAM$MAP
         2 003746   000464 702000 2                  TSX2    ALT

      910    12277    1      DCT$$ = DCT$$->PTR$;

  12277  2 003747   200004 470500                    LDP0    DCT$$,,AUTO
         2 003750   000000 236100                    LDQ     0,,PR0
         2 003751   200004 756100                    STQ     DCT$$,,AUTO

      911    12278    1      CALL DAM$MAP(DCT$$,DCT$$) ALTRET(ALT);

  12278  2 003752   200004 630500                    EPPR0   DCT$$,,AUTO
         2 003753   200271 450500                    STP0    X+19,,AUTO
         2 003754   200004 631500                    EPPR1   DCT$$,,AUTO
         2 003755   200270 451500                    STP1    X+18,,AUTO
         2 003756   200270 630500                    EPPR0   X+18,,AUTO
         2 003757   000020 631400 xsym               EPPR1   B_VECTNIL+16
         2 003760   000000 701000 xent               TSX1    DAM$MAP
         2 003761   000464 702000 2                  TSX2    ALT

      912    12279    1      NSQHS = -1;

  12279  2 003762   000001 335007                    LCA     1,DL
         2 003763   200102 755100                    STA     NSQHS,,AUTO

      913    12280    1      NEXT_DCT = 1;

  12280  2 003764   000001 236007                    LDQ     1,DL
         2 003765   200103 756100                    STQ     NEXT_DCT,,AUTO

      914    12281    1   FIND_NEXT_DCT:
      915    12282    2      DO WHILE(NEXT_DCT < 5);

PL6.E3A0      #001=DAD$DCT File=DAD$DCT.:E05TSI                                  TUE 07/29/97 12:42 Page:156
  12282  2 003766   000005 116007       FIND_NEXT_D* CMPQ    5,DL
         2 003767   004017 605000 2                  TPL     NEXT_SORTED_ONE

      916    12283    3           IF N$DCT$(NEXT_DCT) ~= ADDR(NIL) THEN DO;

  12283  2 003770   200004 470500                    LDP0    DCT$$,,AUTO
         2 003771   200103 720100                    LXL0    NEXT_DCT,,AUTO
         2 003772   000000 236110                    LDQ     0,X0,PR0
         2 003773   000001 116000 xsym               CMPQ    B_VECTNIL+1
         2 003774   004013 600000 2                  TZE     s:12288

      917    12284    3                CALL DAM$MAP(N$DCT$(NEXT_DCT),DCT$) ALTRET(ALT);

  12284  2 003775   200006 631500                    EPPR1   DCT$,,AUTO
         2 003776   200271 451500                    STP1    X+19,,AUTO
         2 003777   200103 236100                    LDQ     NEXT_DCT,,AUTO
         2 004000   000022 736000                    QLS     18
         2 004001   200004 036100                    ADLQ    DCT$$,,AUTO
         2 004002   200270 756100                    STQ     X+18,,AUTO
         2 004003   200270 630500                    EPPR0   X+18,,AUTO
         2 004004   000020 631400 xsym               EPPR1   B_VECTNIL+16
         2 004005   000000 701000 xent               TSX1    DAM$MAP
         2 004006   000464 702000 2                  TSX2    ALT

      918    12285    3                IF SUBSTR(DCT.DEVNM,0,2) ~= 'MC' THEN

  12285  2 004007   200006 470500                    LDP0    DCT$,,AUTO
         2 004010   000002 220100                    LDX0    2,,PR0
         2 004011   000660 100000 0                  CMPX0   MIR_STATE+16
         2 004012   004017 601000 2                  TNZ     NEXT_SORTED_ONE

      919    12286    3                     EXIT FIND_NEXT_DCT;
      920    12287    3                END;

      921    12288    2           NEXT_DCT = NEXT_DCT + 1;

  12288  2 004013   200103 054100                    AOS     NEXT_DCT,,AUTO
PL6.E3A0      #001=DAD$DCT File=DAD$DCT.:E05TSI                                  TUE 07/29/97 12:42 Page:157

      922    12289    2           END;

  12289  2 004014   200103 235100                    LDA     NEXT_DCT,,AUTO
         2 004015   000005 115007                    CMPA    5,DL
         2 004016   003770 604000 2                  TMI     s:12283

      923    12290    1   NEXT_SORTED_ONE: /* Yes, I know this is a sleazy way to get it
      924    12291                             sorted, but since there aren't that many... */
      925    12292    2      DO I=0 TO IOMS;

  12292  2 004017   200144 450100       NEXT_SORTED* STZ     I,,AUTO
         2 004020   004121 710000 2                  TRA     s:12313+1

      926    12293    3           DO J=8 TO DA_MAXCHANS-1;

  12293  2 004021   000010 235007                    LDA     8,DL
         2 004022   200145 755100                    STA     J,,AUTO
         2 004023   004115 710000 2                  TRA     s:12312+1

      927    12294    3                DQH$=CHT.DQH$(I*DA_MAXCHANS+J);

  12294  2 004024   200144 236100                    LDQ     I,,AUTO
         2 004025   000000 402000 xsym               MPY     DA_MAXCHANS
         2 004026   200145 036100                    ADLQ    J,,AUTO
         2 004027   000001 736000                    QLS     1
         2 004030   200112 470500                    LDP0    CHT$,,AUTO
         2 004031   000000 236106                    LDQ     0,QL,PR0
         2 004032   200007 756100                    STQ     DQH$,,AUTO

      928    12295    3                IF DQH$~=ADDR(NIL) THEN

  12295  2 004033   000001 116000 xsym               CMPQ    B_VECTNIL+1
         2 004034   004114 600000 2                  TZE     s:12312

      929    12296    4   THIS_SQH:    DO;

PL6.E3A0      #001=DAD$DCT File=DAD$DCT.:E05TSI                                  TUE 07/29/97 12:42 Page:158
  12296  2 004035                       THIS_SQH     null
      930    12297    4                     CALL DAM$MAP(DQH$,DQH$);

  12297  2 004035   200007 631500                    EPPR1   DQH$,,AUTO
         2 004036   200271 451500                    STP1    X+19,,AUTO
         2 004037   200007 633500                    EPPR3   DQH$,,AUTO
         2 004040   200270 453500                    STP3    X+18,,AUTO
         2 004041   200270 630500                    EPPR0   X+18,,AUTO
         2 004042   000020 631400 xsym               EPPR1   B_VECTNIL+16
         2 004043   000000 701000 xent               TSX1    DAM$MAP
         2 004044   000000 011000                    NOP     0

      931    12298    4                     SQH$=DQH.SQH$;

  12298  2 004045   200007 470500                    LDP0    DQH$,,AUTO
         2 004046   000013 236100                    LDQ     11,,PR0
         2 004047   200010 756100                    STQ     SQH$,,AUTO

      932    12299    5                     IF SQH$ ~= ADDR(NIL) THEN DO;

  12299  2 004050   000001 116000 xsym               CMPQ    B_VECTNIL+1
         2 004051   004114 600000 2                  TZE     s:12312

      933    12300    5                          CALL DAM$MAP (SQH$,SQH$);

  12300  2 004052   200010 631500                    EPPR1   SQH$,,AUTO
         2 004053   200271 451500                    STP1    X+19,,AUTO
         2 004054   200010 633500                    EPPR3   SQH$,,AUTO
         2 004055   200270 453500                    STP3    X+18,,AUTO
         2 004056   200270 630500                    EPPR0   X+18,,AUTO
         2 004057   000020 631400 xsym               EPPR1   B_VECTNIL+16
         2 004060   000000 701000 xent               TSX1    DAM$MAP
         2 004061   000000 011000                    NOP     0

      934    12301    6                          DO K = 0 TO NSQHS;

  12301  2 004062   200146 450100                    STZ     K,,AUTO
PL6.E3A0      #001=DAD$DCT File=DAD$DCT.:E05TSI                                  TUE 07/29/97 12:42 Page:159
         2 004063   004071 710000 2                  TRA     s:12303+1

      935    12302    6                               IF SQH$ = SQHS$(K) THEN EXIT THIS_SQH;

  12302  2 004064   200146 720100                    LXL0    K,,AUTO
         2 004065   200010 236100                    LDQ     SQH$,,AUTO
         2 004066   200011 116110                    CMPQ    SQHS$,X0,AUTO
         2 004067   004114 600000 2                  TZE     s:12312

      936    12303    6                               END;

  12303  2 004070   200146 054100                    AOS     K,,AUTO
         2 004071   200146 236100                    LDQ     K,,AUTO
         2 004072   200102 116100                    CMPQ    NSQHS,,AUTO
         2 004073   004064 604400 2                  TMOZ    s:12302

      937    12304    5                          IF NEXT_DCT ~= SQH.FDCT THEN EXIT THIS_SQH;

  12304  2 004074   200010 470500                    LDP0    SQH$,,AUTO
         2 004075   000002 236100                    LDQ     2,,PR0
         2 004076   000022 772000                    QRL     18
         2 004077   200103 116100                    CMPQ    NEXT_DCT,,AUTO
         2 004100   004114 601000 2                  TNZ     s:12312

      938    12305    5                          NEXT_DCT = NEXT_DCT + SQH.NDCT;

  12305  2 004101   000002 236100                    LDQ     2,,PR0
         2 004102   777777 376007                    ANQ     -1,DL
         2 004103   200103 036100                    ADLQ    NEXT_DCT,,AUTO
         2 004104   200103 756100                    STQ     NEXT_DCT,,AUTO

      939    12306    5                          NSQHS = NSQHS + 1;

  12306  2 004105   200102 054100                    AOS     NSQHS,,AUTO

      940    12307    5                          SQHS$(NSQHS) = SQH$;

PL6.E3A0      #001=DAD$DCT File=DAD$DCT.:E05TSI                                  TUE 07/29/97 12:42 Page:160
  12307  2 004106   200010 236100                    LDQ     SQH$,,AUTO
         2 004107   200102 720100                    LXL0    NSQHS,,AUTO
         2 004110   200011 756110                    STQ     SQHS$,X0,AUTO

      941    12308    5                          CALL DISQH;

  12308  2 004111   004125 701000 2                  TSX1    DISQH
         2 004112   000000 011000                    NOP     0

      942    12309    5                          GOTO NEXT_SORTED_ONE;

  12309  2 004113   004017 710000 2                  TRA     NEXT_SORTED_ONE

      943    12310    5                          END;
      944    12311    4                     END;
      945    12312    3                END;

  12312  2 004114   200145 054100                    AOS     J,,AUTO
         2 004115   200145 236100                    LDQ     J,,AUTO
         2 004116   000000 116000 xsym               CMPQ    DA_MAXCHANS
         2 004117   004024 604000 2                  TMI     s:12294

      946    12313    2           END;

  12313  2 004120   200144 054100                    AOS     I,,AUTO
         2 004121   200144 236100                    LDQ     I,,AUTO
         2 004122   200143 116100                    CMPQ    IOMS,,AUTO
         2 004123   004021 604400 2                  TMOZ    s:12293

      947    12314    1      RETURN;

  12314  2 004124   000000 702200 xent               TSX2  ! X66_ARET

      948    12315        %EJECT;
PL6.E3A0      #001=DAD$DCT File=DAD$DCT.:E05TSI                                  TUE 07/29/97 12:42 Page:161
      949    12316    1   DISQH: PROC;

  12316  2 004125   200244 741300       DISQH        STX1  ! IC+1,,AUTO

      950    12317
      951    12318    2   DCL N UBIN;
      952    12319    2   DCL TYPE CHAR(4);
      953    12320
      954    12321    2      N = 1;

  12321  2 004126   000001 235007                    LDA     1,DL
         2 004127   200245 755100                    STA     N,,AUTO

      955    12322    2      TYPE='duck';

  12322  2 004130   000661 236000 0                  LDQ     MIR_STATE+17
         2 004131   200246 756100                    STQ     TYPE,,AUTO

      956    12323    2      IF SQH.MPC$(1) ~= ADDR(NIL) THEN N = 2;

  12323  2 004132   200010 470500                    LDP0    SQH$,,AUTO
         2 004133   000006 236100                    LDQ     6,,PR0
         2 004134   000001 116000 xsym               CMPQ    B_VECTNIL+1
         2 004135   004140 600000 2                  TZE     s:12324

  12323  2 004136   000002 235007                    LDA     2,DL
         2 004137   200245 755100                    STA     N,,AUTO

      957    12324    2      IF SQH.MPC$(0) = ADDR(NIL) THEN

  12324  2 004140   000005 236100                    LDQ     5,,PR0
         2 004141   000001 116000 xsym               CMPQ    B_VECTNIL+1
         2 004142   004146 601000 2                  TNZ     s:12327

      958    12325    2           TYPE='cons';

  12325  2 004143   000662 236000 0                  LDQ     MIR_STATE+18
PL6.E3A0      #001=DAD$DCT File=DAD$DCT.:E05TSI                                  TUE 07/29/97 12:42 Page:162
         2 004144   200246 756100                    STQ     TYPE,,AUTO
         2 004145   004211 710000 2                  TRA     s:12340

      959    12326    3      ELSE DO;

      960    12327    3           DCT$ = SQH.MPC$(0);

  12327  2 004146   200006 756100                    STQ     DCT$,,AUTO

      961    12328    3           CALL DAM$MAP (DCT$, DCT$);

  12328  2 004147   200006 631500                    EPPR1   DCT$,,AUTO
         2 004150   200271 451500                    STP1    X+19,,AUTO
         2 004151   200006 633500                    EPPR3   DCT$,,AUTO
         2 004152   200270 453500                    STP3    X+18,,AUTO
         2 004153   200270 630500                    EPPR0   X+18,,AUTO
         2 004154   000020 631400 xsym               EPPR1   B_VECTNIL+16
         2 004155   000000 701000 xent               TSX1    DAM$MAP
         2 004156   000000 011000                    NOP     0

      962    12329    4           DO CASE (DCT.MPC.TYPE);

  12329  2 004157   200006 470500                    LDP0    DCT$,,AUTO
         2 004160   000035 236100                    LDQ     29,,PR0
         2 004161   000033 772000                    QRL     27
         2 004162   000011 116007                    CMPQ    9,DL
         2 004163   004165 602006 2                  TNC     s:12329+6,QL
         2 004164   004211 710000 2                  TRA     s:12340
         2 004165   004211 710000 2                  TRA     s:12340
         2 004166   004211 710000 2                  TRA     s:12340
         2 004167   004211 710000 2                  TRA     s:12340
         2 004170   004207 710000 2                  TRA     s:12337
         2 004171   004204 710000 2                  TRA     s:12335
         2 004172   004211 710000 2                  TRA     s:12340
         2 004173   004201 710000 2                  TRA     s:12333
         2 004174   004211 710000 2                  TRA     s:12340
         2 004175   004176 710000 2                  TRA     s:12331
PL6.E3A0      #001=DAD$DCT File=DAD$DCT.:E05TSI                                  TUE 07/29/97 12:42 Page:163

      963    12330    4            CASE (%DV_AP);

      964    12331    4              TYPE='aray';

  12331  2 004176   000663 236000 0                  LDQ     MIR_STATE+19
         2 004177   200246 756100                    STQ     TYPE,,AUTO
         2 004200   004211 710000 2                  TRA     s:12340

      965    12332    4            CASE (%DV_DP);

      966    12333    4              TYPE='disk';

  12333  2 004201   000664 236000 0                  LDQ     MIR_STATE+20
         2 004202   200246 756100                    STQ     TYPE,,AUTO
         2 004203   004211 710000 2                  TRA     s:12340

      967    12334    4            CASE (%DV_MT);

      968    12335    4              TYPE='tape';

  12335  2 004204   000665 236000 0                  LDQ     MIR_STATE+21
         2 004205   200246 756100                    STQ     TYPE,,AUTO
         2 004206   004211 710000 2                  TRA     s:12340

      969    12336    4            CASE (%DV_LP);

      970    12337    4              TYPE='unit';

  12337  2 004207   000666 236000 0                  LDQ     MIR_STATE+22
         2 004210   200246 756100                    STQ     TYPE,,AUTO

      971    12338    4              END;

      972    12339    3           END;

      973    12340    2      IF SQH.GATE.LOCK = 0 THEN CALL XLATE (TYPE, UPPER, TYPE);
PL6.E3A0      #001=DAD$DCT File=DAD$DCT.:E05TSI                                  TUE 07/29/97 12:42 Page:164

  12340  2 004211   200010 470500                    LDP0    SQH$,,AUTO
         2 004212   000000 235100                    LDA     0,,PR0
         2 004213   004221 601000 2                  TNZ     s:12348

  12340  2 004214   000000 471400 xsym               LDP1    B$XL_UPPER$
         2 004215   040100 160500                    MVT     fill='040'O
         2 004216   200246 000004                    ADSC9   TYPE,,AUTO               cn=0,n=4
         2 004217   200246 000004                    ADSC9   TYPE,,AUTO               cn=0,n=4
         2 004220   100000 000100                    ARG     0,,PR1

      974    12341    2      CALL DAF$WRITE (VECTOR(SQHFMT),
      975    12342    2        VECTOR(TYPE),
      976    12343    2        VECTOR(DQH.SQH$),
      977    12344    2        VECTOR(SQH.FDCT),
      978    12345    2        VECTOR(SQH.NDCT),
      979    12346    2        VECTOR(SQH.AQ$),
      980    12347    2        VECTOR(SQH.CQ$),
      981    12348    2        VECTOR(N),

  12348  2 004221   777640 235007                    LDA     -96,DL
         2 004222   200270 452500                    STP2    X+18,,AUTO
         2 004223   200270 236100                    LDQ     X+18,,AUTO
         2 004224   000246 036003                    ADLQ    166,DU
         2 004225   200272 757100                    STAQ    X+20,,AUTO
         2 004226   777640 235007                    LDA     -96,DL
         2 004227   200007 236100                    LDQ     DQH$,,AUTO
         2 004230   000013 036003                    ADLQ    11,DU
         2 004231   200274 757100                    STAQ    X+22,,AUTO
         2 004232   377640 235007                    LDA     130976,DL
         2 004233   200010 236100                    LDQ     SQH$,,AUTO
         2 004234   000002 036003                    ADLQ    2,DU
         2 004235   200276 757100                    STAQ    X+24,,AUTO
         2 004236   377640 235007                    LDA     130976,DL
         2 004237   200010 236100                    LDQ     SQH$,,AUTO
         2 004240   000214 036000 3                  ADLQ    140
         2 004241   200300 757100                    STAQ    X+26,,AUTO
PL6.E3A0      #001=DAD$DCT File=DAD$DCT.:E05TSI                                  TUE 07/29/97 12:42 Page:165
         2 004242   777640 235007                    LDA     -96,DL
         2 004243   200010 236100                    LDQ     SQH$,,AUTO
         2 004244   000003 036003                    ADLQ    3,DU
         2 004245   200302 757100                    STAQ    X+28,,AUTO
         2 004246   777640 235007                    LDA     -96,DL
         2 004247   200010 236100                    LDQ     SQH$,,AUTO
         2 004250   000004 036003                    ADLQ    4,DU
         2 004251   200304 757100                    STAQ    X+30,,AUTO
         2 004252   777640 235007                    LDA     -96,DL
         2 004253   200306 452500                    STP2    X+32,,AUTO
         2 004254   200306 236100                    LDQ     X+32,,AUTO
         2 004255   000245 036003                    ADLQ    165,DU
         2 004256   200310 757100                    STAQ    X+34,,AUTO
         2 004257   000013 235000 3                  LDA     11
         2 004260   200010 236100                    LDQ     SQH$,,AUTO
         2 004261   000005 036003                    ADLQ    5,DU
         2 004262   200314 757100                    STAQ    X+38,,AUTO
         2 004263   200272 237100                    LDAQ    X+20,,AUTO
         2 004264   200312 757100                    STAQ    X+36,,AUTO
         2 004265   200274 237100                    LDAQ    X+22,,AUTO
         2 004266   200316 757100                    STAQ    X+40,,AUTO
         2 004267   200276 237100                    LDAQ    X+24,,AUTO
         2 004270   200320 757100                    STAQ    X+42,,AUTO
         2 004271   200300 237100                    LDAQ    X+26,,AUTO
         2 004272   200322 757100                    STAQ    X+44,,AUTO
         2 004273   200302 237100                    LDAQ    X+28,,AUTO
         2 004274   200324 757100                    STAQ    X+46,,AUTO
         2 004275   200304 237100                    LDAQ    X+30,,AUTO
         2 004276   200326 757100                    STAQ    X+48,,AUTO
         2 004277   200310 237100                    LDAQ    X+34,,AUTO
         2 004300   200330 757100                    STAQ    X+50,,AUTO
         2 004301   200314 237100                    LDAQ    X+38,,AUTO
         2 004302   200332 757100                    STAQ    X+52,,AUTO
         2 004303   200332 631500                    EPPR1   X+52,,AUTO
         2 004304   200344 451500                    STP1    X+62,,AUTO
         2 004305   200330 633500                    EPPR3   X+50,,AUTO
         2 004306   200343 453500                    STP3    X+61,,AUTO
PL6.E3A0      #001=DAD$DCT File=DAD$DCT.:E05TSI                                  TUE 07/29/97 12:42 Page:166
         2 004307   200326 634500                    EPPR4   X+48,,AUTO
         2 004310   200342 454500                    STP4    X+60,,AUTO
         2 004311   200324 635500                    EPPR5   X+46,,AUTO
         2 004312   200341 455500                    STP5    X+59,,AUTO
         2 004313   200322 636500                    EPPR6   X+44,,AUTO
         2 004314   200340 456500                    STP6    X+58,,AUTO
         2 004315   200320 637500                    EPPR7   X+42,,AUTO
         2 004316   200337 457500                    STP7    X+57,,AUTO
         2 004317   200316 630500                    EPPR0   X+40,,AUTO
         2 004320   200336 450500                    STP0    X+56,,AUTO
         2 004321   200312 630500                    EPPR0   X+36,,AUTO
         2 004322   200335 450500                    STP0    X+55,,AUTO
         2 004323   000216 236000 3                  LDQ     142
         2 004324   200334 756100                    STQ     X+54,,AUTO
         2 004325   200334 630500                    EPPR0   X+54,,AUTO
         2 004326   000000 220000 xsym               LDX0    DAF$WRITE
         2 004327   000215 631400 3                  EPPR1   141
         2 004330   000000 701010                    TSX1    0,X0
         2 004331   000000 011000                    NOP     0

      982    12349    2        VECTOR(SQH.MPC$));
      983    12350
      984    12351    2   END DISQH;

  12351  2 004332   200244 221300                    LDX1  ! IC+1,,AUTO
         2 004333   000001 702211                    TSX2  ! 1,X1

      985    12352        %EJECT;
PL6.E3A0      #001=DAD$DCT File=DAD$DCT.:E05TSI                                  TUE 07/29/97 12:42 Page:167
      986    12353    1   DAD$IOM: ENTRY (TOP);

  12353  2 004334   000000 700200 xent  DAD$IOM      TSX0  ! X66_AUTO_1
         2 004335   000416 000001                    ZERO    270,1

      987    12354
      988    12355    1      CALL DAF$INIT (IOMRPT);

  12355  2 004336   000217 630400 3                  EPPR0   143
         2 004337   000017 631400 xsym               EPPR1   B_VECTNIL+15
         2 004340   000000 701000 xent               TSX1    DAF$INIT
         2 004341   000000 011000                    NOP     0

      989    12356    1      CALL DAS$SDMONPTR(%M#NI_IOMS,P$);

  12356  2 004342   200134 630500                    EPPR0   P$,,AUTO
         2 004343   200271 450500                    STP0    X+19,,AUTO
         2 004344   000177 236000 3                  LDQ     127
         2 004345   200270 756100                    STQ     X+18,,AUTO
         2 004346   200270 630500                    EPPR0   X+18,,AUTO
         2 004347   000020 631400 xsym               EPPR1   B_VECTNIL+16
         2 004350   000000 701000 xent               TSX1    DAS$SDMONPTR
         2 004351   000000 011000                    NOP     0

      990    12357    1      CALL DAM$MAP (P$,P$,,,DA_MONISDATA);

  12357  2 004352   000004 236000 3                  LDQ     4
         2 004353   200274 756100                    STQ     X+22,,AUTO
         2 004354   000001 236000 xsym               LDQ     B_VECTNIL+1
         2 004355   000001 235000 xsym               LDA     B_VECTNIL+1
         2 004356   200272 757100                    STAQ    X+20,,AUTO
         2 004357   200134 630500                    EPPR0   P$,,AUTO
         2 004360   200271 450500                    STP0    X+19,,AUTO
         2 004361   200134 631500                    EPPR1   P$,,AUTO
         2 004362   200270 451500                    STP1    X+18,,AUTO
         2 004363   200270 630500                    EPPR0   X+18,,AUTO
         2 004364   000023 631400 xsym               EPPR1   B_VECTNIL+19
PL6.E3A0      #001=DAD$DCT File=DAD$DCT.:E05TSI                                  TUE 07/29/97 12:42 Page:168
         2 004365   000000 701000 xent               TSX1    DAM$MAP
         2 004366   000000 011000                    NOP     0

      991    12358    1      IOMS=P$->SBINWORD-1;

  12358  2 004367   200134 470500                    LDP0    P$,,AUTO
         2 004370   000000 235100                    LDA     0,,PR0
         2 004371   000001 135007                    SBLA    1,DL
         2 004372   200143 755100                    STA     IOMS,,AUTO

      992    12359
      993    12360    1      CALL DAS$SDMONPTR (%M#NI$IOM$,P$);

  12360  2 004373   200134 631500                    EPPR1   P$,,AUTO
         2 004374   200271 451500                    STP1    X+19,,AUTO
         2 004375   000221 236000 3                  LDQ     145
         2 004376   200270 756100                    STQ     X+18,,AUTO
         2 004377   200270 630500                    EPPR0   X+18,,AUTO
         2 004400   000020 631400 xsym               EPPR1   B_VECTNIL+16
         2 004401   000000 701000 xent               TSX1    DAS$SDMONPTR
         2 004402   000000 011000                    NOP     0

      994    12361    1      CALL DAM$MAP (P$,P$,,,DA_MONISDATA);

  12361  2 004403   000004 236000 3                  LDQ     4
         2 004404   200274 756100                    STQ     X+22,,AUTO
         2 004405   000001 236000 xsym               LDQ     B_VECTNIL+1
         2 004406   000001 235000 xsym               LDA     B_VECTNIL+1
         2 004407   200272 757100                    STAQ    X+20,,AUTO
         2 004410   200134 630500                    EPPR0   P$,,AUTO
         2 004411   200271 450500                    STP0    X+19,,AUTO
         2 004412   200134 631500                    EPPR1   P$,,AUTO
         2 004413   200270 451500                    STP1    X+18,,AUTO
         2 004414   200270 630500                    EPPR0   X+18,,AUTO
         2 004415   000023 631400 xsym               EPPR1   B_VECTNIL+19
         2 004416   000000 701000 xent               TSX1    DAM$MAP
         2 004417   000000 011000                    NOP     0
PL6.E3A0      #001=DAD$DCT File=DAD$DCT.:E05TSI                                  TUE 07/29/97 12:42 Page:169

      995    12362    2      DO I = 0 TO IOMS;

  12362  2 004420   200144 450100                    STZ     I,,AUTO
         2 004421   004634 710000 2                  TRA     s:12382+1

      996    12363    2           CALL DAM$MAP (P$->PTRS$(I),IOM$);

  12363  2 004422   200104 630500                    EPPR0   IOM$,,AUTO
         2 004423   200271 450500                    STP0    X+19,,AUTO
         2 004424   200144 236100                    LDQ     I,,AUTO
         2 004425   000022 736000                    QLS     18
         2 004426   200134 036100                    ADLQ    P$,,AUTO
         2 004427   200270 756100                    STQ     X+18,,AUTO
         2 004430   200270 630500                    EPPR0   X+18,,AUTO
         2 004431   000020 631400 xsym               EPPR1   B_VECTNIL+16
         2 004432   000000 701000 xent               TSX1    DAM$MAP
         2 004433   000000 011000                    NOP     0

      997    12364    2           IOM# = IOM.IOM#;

  12364  2 004434   200104 470500                    LDP0    IOM$,,AUTO
         2 004435   000003 236100                    LDQ     3,,PR0
         2 004436   000030 772000                    QRL     24
         2 004437   000007 376007                    ANQ     7,DL
         2 004440   200105 756100                    STQ     IOM#,,AUTO

      998    12365    2           ADDRESS = IOM.ADDRESS;

  12365  2 004441   000003 236100                    LDQ     3,,PR0
         2 004442   000007 376007                    ANQ     7,DL
         2 004443   200106 756100                    STQ     ADDRESS,,AUTO

      999    12366    2           LASTCON = IOM.LASTCON;

  12366  2 004444   000003 236100                    LDQ     3,,PR0
         2 004445   000033 772000                    QRL     27
PL6.E3A0      #001=DAD$DCT File=DAD$DCT.:E05TSI                                  TUE 07/29/97 12:42 Page:170
         2 004446   200107 756100                    STQ     LASTCON,,AUTO

     1000    12367    2           NEXTF = IOM.NEXTF;

  12367  2 004447   000003 236100                    LDQ     3,,PR0
         2 004450   000022 772000                    QRL     18
         2 004451   000077 376007                    ANQ     63,DL
         2 004452   200110 756100                    STQ     NEXTF,,AUTO

     1001    12368    2           NEXTS = IOM.NEXTS;

  12368  2 004453   000003 236100                    LDQ     3,,PR0
         2 004454   000014 772000                    QRL     12
         2 004455   000077 376007                    ANQ     63,DL
         2 004456   200111 756100                    STQ     NEXTS,,AUTO

     1002    12369    2           STATUS.DOWN = NOYES(BITBIN(IOM.STATUS.DOWN));

  12369  2 004457   000003 236100                    LDQ     3,,PR0
         2 004460   000005 772000                    QRL     5
         2 004461   000001 376007                    ANQ     1,DL
         2 004462   000003 402007                    MPY     3,DL
         2 004463   040100 100406                    MLR     fill='040'O
         2 004464   000004 000003 0                  ADSC9   NOYES,Q                  cn=0,n=3
         2 004465   200200 000004                    ADSC9   STATUS,,AUTO             cn=0,n=4

     1003    12370    2           CALL DAF$WRITE (VECTOR(IOMFMT),
     1004    12371    2             VECTOR(IOM#),
     1005    12372    2             VECTOR(ADDRESS),
     1006    12373    2             VECTOR(LASTCON),
     1007    12374    2             VECTOR(IOM.FLTBUF),
     1008    12375    2             VECTOR(NEXTF),
     1009    12376    2             VECTOR(IOM.SPECBUF),
     1010    12377    2             VECTOR(NEXTS),
     1011    12378    2             VECTOR(IOM.CONNCT),

  12378  2 004466   777640 235007                    LDA     -96,DL
PL6.E3A0      #001=DAD$DCT File=DAD$DCT.:E05TSI                                  TUE 07/29/97 12:42 Page:171
         2 004467   200270 452500                    STP2    X+18,,AUTO
         2 004470   200270 236100                    LDQ     X+18,,AUTO
         2 004471   000105 036003                    ADLQ    69,DU
         2 004472   200272 757100                    STAQ    X+20,,AUTO
         2 004473   777640 235007                    LDA     -96,DL
         2 004474   200274 452500                    STP2    X+22,,AUTO
         2 004475   200274 236100                    LDQ     X+22,,AUTO
         2 004476   000106 036003                    ADLQ    70,DU
         2 004477   200276 757100                    STAQ    X+24,,AUTO
         2 004500   777640 235007                    LDA     -96,DL
         2 004501   200300 452500                    STP2    X+26,,AUTO
         2 004502   200300 236100                    LDQ     X+26,,AUTO
         2 004503   000107 036003                    ADLQ    71,DU
         2 004504   200302 757100                    STAQ    X+28,,AUTO
         2 004505   377640 235007                    LDA     130976,DL
         2 004506   200104 236100                    LDQ     IOM$,,AUTO
         2 004507   000004 036003                    ADLQ    4,DU
         2 004510   200304 757100                    STAQ    X+30,,AUTO
         2 004511   777640 235007                    LDA     -96,DL
         2 004512   200306 452500                    STP2    X+32,,AUTO
         2 004513   200306 236100                    LDQ     X+32,,AUTO
         2 004514   000110 036003                    ADLQ    72,DU
         2 004515   200310 757100                    STAQ    X+34,,AUTO
         2 004516   377640 235007                    LDA     130976,DL
         2 004517   200104 236100                    LDQ     IOM$,,AUTO
         2 004520   000224 036000 3                  ADLQ    148
         2 004521   200312 757100                    STAQ    X+36,,AUTO
         2 004522   777640 235007                    LDA     -96,DL
         2 004523   200314 452500                    STP2    X+38,,AUTO
         2 004524   200314 236100                    LDQ     X+38,,AUTO
         2 004525   000111 036003                    ADLQ    73,DU
         2 004526   200316 757100                    STAQ    X+40,,AUTO
         2 004527   777640 235007                    LDA     -96,DL
         2 004530   200104 236100                    LDQ     IOM$,,AUTO
         2 004531   000005 036003                    ADLQ    5,DU
         2 004532   200320 757100                    STAQ    X+42,,AUTO
         2 004533   777640 235007                    LDA     -96,DL
PL6.E3A0      #001=DAD$DCT File=DAD$DCT.:E05TSI                                  TUE 07/29/97 12:42 Page:172
         2 004534   200104 236100                    LDQ     IOM$,,AUTO
         2 004535   000006 036003                    ADLQ    6,DU
         2 004536   200322 757100                    STAQ    X+44,,AUTO
         2 004537   777640 235007                    LDA     -96,DL
         2 004540   200324 452500                    STP2    X+46,,AUTO
         2 004541   200324 236100                    LDQ     X+46,,AUTO
         2 004542   000200 036003                    ADLQ    128,DU
         2 004543   200326 757100                    STAQ    X+48,,AUTO
         2 004544   777640 235007                    LDA     -96,DL
         2 004545   200104 236100                    LDQ     IOM$,,AUTO
         2 004546   000002 036003                    ADLQ    2,DU
         2 004547   200332 757100                    STAQ    X+52,,AUTO
         2 004550   200272 237100                    LDAQ    X+20,,AUTO
         2 004551   200330 757100                    STAQ    X+50,,AUTO
         2 004552   200276 237100                    LDAQ    X+24,,AUTO
         2 004553   200334 757100                    STAQ    X+54,,AUTO
         2 004554   200302 237100                    LDAQ    X+28,,AUTO
         2 004555   200336 757100                    STAQ    X+56,,AUTO
         2 004556   200304 237100                    LDAQ    X+30,,AUTO
         2 004557   200340 757100                    STAQ    X+58,,AUTO
         2 004560   200310 237100                    LDAQ    X+34,,AUTO
         2 004561   200342 757100                    STAQ    X+60,,AUTO
         2 004562   200312 237100                    LDAQ    X+36,,AUTO
         2 004563   200344 757100                    STAQ    X+62,,AUTO
         2 004564   200316 237100                    LDAQ    X+40,,AUTO
         2 004565   200346 757100                    STAQ    X+64,,AUTO
         2 004566   200320 237100                    LDAQ    X+42,,AUTO
         2 004567   200350 757100                    STAQ    X+66,,AUTO
         2 004570   200322 237100                    LDAQ    X+44,,AUTO
         2 004571   200352 757100                    STAQ    X+68,,AUTO
         2 004572   200326 237100                    LDAQ    X+48,,AUTO
         2 004573   200354 757100                    STAQ    X+70,,AUTO
         2 004574   200332 237100                    LDAQ    X+52,,AUTO
         2 004575   200356 757100                    STAQ    X+72,,AUTO
         2 004576   200356 631500                    EPPR1   X+72,,AUTO
         2 004577   200373 451500                    STP1    X+85,,AUTO
         2 004600   200354 633500                    EPPR3   X+70,,AUTO
PL6.E3A0      #001=DAD$DCT File=DAD$DCT.:E05TSI                                  TUE 07/29/97 12:42 Page:173
         2 004601   200372 453500                    STP3    X+84,,AUTO
         2 004602   200352 634500                    EPPR4   X+68,,AUTO
         2 004603   200371 454500                    STP4    X+83,,AUTO
         2 004604   200350 635500                    EPPR5   X+66,,AUTO
         2 004605   200370 455500                    STP5    X+82,,AUTO
         2 004606   200346 636500                    EPPR6   X+64,,AUTO
         2 004607   200367 456500                    STP6    X+81,,AUTO
         2 004610   200344 637500                    EPPR7   X+62,,AUTO
         2 004611   200366 457500                    STP7    X+80,,AUTO
         2 004612   200342 630500                    EPPR0   X+60,,AUTO
         2 004613   200365 450500                    STP0    X+79,,AUTO
         2 004614   200340 630500                    EPPR0   X+58,,AUTO
         2 004615   200364 450500                    STP0    X+78,,AUTO
         2 004616   200336 630500                    EPPR0   X+56,,AUTO
         2 004617   200363 450500                    STP0    X+77,,AUTO
         2 004620   200334 630500                    EPPR0   X+54,,AUTO
         2 004621   200362 450500                    STP0    X+76,,AUTO
         2 004622   200330 630500                    EPPR0   X+50,,AUTO
         2 004623   200361 450500                    STP0    X+75,,AUTO
         2 004624   000225 236000 3                  LDQ     149
         2 004625   200360 756100                    STQ     X+74,,AUTO
         2 004626   200360 630500                    EPPR0   X+74,,AUTO
         2 004627   000000 220000 xsym               LDX0    DAF$WRITE
         2 004630   000065 631400 3                  EPPR1   53
         2 004631   000000 701010                    TSX1    0,X0
         2 004632   000000 011000                    NOP     0

     1012    12379    2             VECTOR(IOM.ERRCNCT),
     1013    12380    2             VECTOR(STATUS.DOWN),
     1014    12381    2             VECTOR(IOM.MBX$));
     1015    12382    2           END;

  12382  2 004633   200144 054100                    AOS     I,,AUTO
         2 004634   200144 236100                    LDQ     I,,AUTO
         2 004635   200143 116100                    CMPQ    IOMS,,AUTO
         2 004636   004422 604400 2                  TMOZ    s:12363

PL6.E3A0      #001=DAD$DCT File=DAD$DCT.:E05TSI                                  TUE 07/29/97 12:42 Page:174
     1016    12383
     1017    12384    1      RETURN;

  12384  2 004637   000000 702200 xent               TSX2  ! X66_ARET

     1018    12385        %EJECT;
PL6.E3A0      #001=DAD$DCT File=DAD$DCT.:E05TSI                                  TUE 07/29/97 12:42 Page:175
     1019    12386    1   DAD$RAT: ENTRY(TOP);

  12386  2 004640   000000 700200 xent  DAD$RAT      TSX0  ! X66_AUTO_1
         2 004641   000416 000001                    ZERO    270,1

     1020    12387    1      CALL DAS$SDMONPTR(%M#N$DCT$$,DCT$$) ALTRET(RATALT);

  12387  2 004642   200004 630500                    EPPR0   DCT$$,,AUTO
         2 004643   200271 450500                    STP0    X+19,,AUTO
         2 004644   000001 236000 3                  LDQ     1
         2 004645   200270 756100                    STQ     X+18,,AUTO
         2 004646   200270 630500                    EPPR0   X+18,,AUTO
         2 004647   000020 631400 xsym               EPPR1   B_VECTNIL+16
         2 004650   000000 701000 xent               TSX1    DAS$SDMONPTR
         2 004651   005027 702000 2                  TSX2    RATALT

     1021    12388    1      CALL DAM$MAP(DCT$$,DCT$$,,,DA_MONISDATA) ALTRET(RATALT);

  12388  2 004652   000004 236000 3                  LDQ     4
         2 004653   200274 756100                    STQ     X+22,,AUTO
         2 004654   000001 236000 xsym               LDQ     B_VECTNIL+1
         2 004655   000001 235000 xsym               LDA     B_VECTNIL+1
         2 004656   200272 757100                    STAQ    X+20,,AUTO
         2 004657   200004 630500                    EPPR0   DCT$$,,AUTO
         2 004660   200271 450500                    STP0    X+19,,AUTO
         2 004661   200004 631500                    EPPR1   DCT$$,,AUTO
         2 004662   200270 451500                    STP1    X+18,,AUTO
         2 004663   200270 630500                    EPPR0   X+18,,AUTO
         2 004664   000023 631400 xsym               EPPR1   B_VECTNIL+19
         2 004665   000000 701000 xent               TSX1    DAM$MAP
         2 004666   005027 702000 2                  TSX2    RATALT

     1022    12389    1      DCT$$=DCT$$->PTR$;

  12389  2 004667   200004 470500                    LDP0    DCT$$,,AUTO
         2 004670   000000 236100                    LDQ     0,,PR0
         2 004671   200004 756100                    STQ     DCT$$,,AUTO
PL6.E3A0      #001=DAD$DCT File=DAD$DCT.:E05TSI                                  TUE 07/29/97 12:42 Page:176

     1023    12390    1      CALL DAM$MAP(DCT$$,DCT$$) ALTRET(RATALT);

  12390  2 004672   200004 630500                    EPPR0   DCT$$,,AUTO
         2 004673   200271 450500                    STP0    X+19,,AUTO
         2 004674   200004 631500                    EPPR1   DCT$$,,AUTO
         2 004675   200270 451500                    STP1    X+18,,AUTO
         2 004676   200270 630500                    EPPR0   X+18,,AUTO
         2 004677   000020 631400 xsym               EPPR1   B_VECTNIL+16
         2 004700   000000 701000 xent               TSX1    DAM$MAP
         2 004701   005027 702000 2                  TSX2    RATALT

     1024    12391    1      CALL DAS$SDMONPTR(%M#FR$HD$,HD$$) ALTRET(RATALT);

  12391  2 004702   200005 630500                    EPPR0   HD$$,,AUTO
         2 004703   200271 450500                    STP0    X+19,,AUTO
         2 004704   000227 236000 3                  LDQ     151
         2 004705   200270 756100                    STQ     X+18,,AUTO
         2 004706   200270 630500                    EPPR0   X+18,,AUTO
         2 004707   000020 631400 xsym               EPPR1   B_VECTNIL+16
         2 004710   000000 701000 xent               TSX1    DAS$SDMONPTR
         2 004711   005027 702000 2                  TSX2    RATALT

     1025    12392    1      CALL DAM$MAP(HD$$,HD$$,,,DA_MONISDATA) ALTRET(RATALT);

  12392  2 004712   000004 236000 3                  LDQ     4
         2 004713   200274 756100                    STQ     X+22,,AUTO
         2 004714   000001 236000 xsym               LDQ     B_VECTNIL+1
         2 004715   000001 235000 xsym               LDA     B_VECTNIL+1
         2 004716   200272 757100                    STAQ    X+20,,AUTO
         2 004717   200005 630500                    EPPR0   HD$$,,AUTO
         2 004720   200271 450500                    STP0    X+19,,AUTO
         2 004721   200005 631500                    EPPR1   HD$$,,AUTO
         2 004722   200270 451500                    STP1    X+18,,AUTO
         2 004723   200270 630500                    EPPR0   X+18,,AUTO
         2 004724   000023 631400 xsym               EPPR1   B_VECTNIL+19
         2 004725   000000 701000 xent               TSX1    DAM$MAP
PL6.E3A0      #001=DAD$DCT File=DAD$DCT.:E05TSI                                  TUE 07/29/97 12:42 Page:177
         2 004726   005027 702000 2                  TSX2    RATALT

     1026    12393    1      CALL DAF$INIT(RATRPT);

  12393  2 004727   000230 630400 3                  EPPR0   152
         2 004730   000017 631400 xsym               EPPR1   B_VECTNIL+15
         2 004731   000000 701000 xent               TSX1    DAF$INIT
         2 004732   000000 011000                    NOP     0

     1027    12394    2      IF TOP.NSUBLKS=0 THEN DO;

  12394  2 004733   200003 470500                    LDP0    @TOP,,AUTO
         2 004734   000001 220100                    LDX0    1,,PR0
         2 004735   004770 601000 2                  TNZ     s:12405

     1028    12395    3           DO I=0 TO 3;

  12395  2 004736   200144 450100                    STZ     I,,AUTO

     1029    12396    3                RAT$=HD$(I);

  12396  2 004737   200005 470500                    LDP0    HD$$,,AUTO
         2 004740   200144 720100                    LXL0    I,,AUTO
         2 004741   000000 236110                    LDQ     0,X0,PR0
         2 004742   200113 756100                    STQ     RAT$,,AUTO

     1030    12397    4                DO WHILE(RAT$~=ADDR(NIL));

  12397  2 004743   004761 710000 2                  TRA     s:12401

     1031    12398    4                     CALL DAM$MAP(RAT$,RAT$) ALTRET(RATALT);

  12398  2 004744   200113 630500                    EPPR0   RAT$,,AUTO
         2 004745   200271 450500                    STP0    X+19,,AUTO
         2 004746   200113 631500                    EPPR1   RAT$,,AUTO
         2 004747   200270 451500                    STP1    X+18,,AUTO
         2 004750   200270 630500                    EPPR0   X+18,,AUTO
PL6.E3A0      #001=DAD$DCT File=DAD$DCT.:E05TSI                                  TUE 07/29/97 12:42 Page:178
         2 004751   000020 631400 xsym               EPPR1   B_VECTNIL+16
         2 004752   000000 701000 xent               TSX1    DAM$MAP
         2 004753   005027 702000 2                  TSX2    RATALT

     1032    12399    4                     CALL DISPRAT;

  12399  2 004754   005030 701000 2                  TSX1    DISPRAT
         2 004755   000000 011000                    NOP     0

     1033    12400    4                     RAT$=RAT$->FR$RAT.LNK$;

  12400  2 004756   200113 470500                    LDP0    RAT$,,AUTO
         2 004757   000000 236100                    LDQ     0,,PR0
         2 004760   200113 756100                    STQ     RAT$,,AUTO

     1034    12401    4                     END;

  12401  2 004761   000001 116000 xsym               CMPQ    B_VECTNIL+1
         2 004762   004744 601000 2                  TNZ     s:12398

     1035    12402    3                END;

  12402  2 004763   200144 054100                    AOS     I,,AUTO
         2 004764   200144 235100                    LDA     I,,AUTO
         2 004765   000003 115007                    CMPA    3,DL
         2 004766   004737 604400 2                  TMOZ    s:12396

     1036    12403    2           END;

  12403  2 004767   005027 710000 2                  TRA     RATALT

     1037    12404    2      ELSE DO;

     1038    12405    3           DO I=0 TO TOP.NSUBLKS-1;

  12405  2 004770   200144 450100                    STZ     I,,AUTO
         2 004771   005022 710000 2                  TRA     s:12412+1
PL6.E3A0      #001=DAD$DCT File=DAD$DCT.:E05TSI                                  TUE 07/29/97 12:42 Page:179

     1039    12406    3                RAT$=HD$(TOP.SUBLK$(I)->OUT.CODE);

  12406  2 004772   200003 470500                    LDP0    @TOP,,AUTO
         2 004773   200144 720100                    LXL0    I,,AUTO
         2 004774   000003 471510                    LDP1    3,X0,PR0
         2 004775   100000 721100                    LXL1    0,,PR1
         2 004776   200005 473500                    LDP3    HD$$,,AUTO
         2 004777   300000 236111                    LDQ     0,X1,PR3
         2 005000   200113 756100                    STQ     RAT$,,AUTO

     1040    12407    4                DO WHILE(RAT$~=ADDR(NIL));

  12407  2 005001   005017 710000 2                  TRA     s:12411

     1041    12408    4                     CALL DAM$MAP(RAT$,RAT$) ALTRET(RATALT);

  12408  2 005002   200113 630500                    EPPR0   RAT$,,AUTO
         2 005003   200271 450500                    STP0    X+19,,AUTO
         2 005004   200113 631500                    EPPR1   RAT$,,AUTO
         2 005005   200270 451500                    STP1    X+18,,AUTO
         2 005006   200270 630500                    EPPR0   X+18,,AUTO
         2 005007   000020 631400 xsym               EPPR1   B_VECTNIL+16
         2 005010   000000 701000 xent               TSX1    DAM$MAP
         2 005011   005027 702000 2                  TSX2    RATALT

     1042    12409    4                     CALL DISPRAT;

  12409  2 005012   005030 701000 2                  TSX1    DISPRAT
         2 005013   000000 011000                    NOP     0

     1043    12410    4                     RAT$=RAT$->FR$RAT.LNK$;

  12410  2 005014   200113 470500                    LDP0    RAT$,,AUTO
         2 005015   000000 236100                    LDQ     0,,PR0
         2 005016   200113 756100                    STQ     RAT$,,AUTO

PL6.E3A0      #001=DAD$DCT File=DAD$DCT.:E05TSI                                  TUE 07/29/97 12:42 Page:180
     1044    12411    4                     END;

  12411  2 005017   000001 116000 xsym               CMPQ    B_VECTNIL+1
         2 005020   005002 601000 2                  TNZ     s:12408

     1045    12412    3                END;

  12412  2 005021   200144 054100                    AOS     I,,AUTO
         2 005022   200003 470500                    LDP0    @TOP,,AUTO
         2 005023   000001 236100                    LDQ     1,,PR0
         2 005024   000022 772000                    QRL     18
         2 005025   200144 116100                    CMPQ    I,,AUTO
         2 005026   004772 605400 2                  TPNZ    s:12406

     1046    12413    2           END;

     1047    12414    1   RATALT: RETURN;

  12414  2 005027   000000 702200 xent  RATALT       TSX2  ! X66_ARET

     1048    12415        %EJECT;
PL6.E3A0      #001=DAD$DCT File=DAD$DCT.:E05TSI                                  TUE 07/29/97 12:42 Page:181
     1049    12416    1   DISPRAT: PROC;

  12416  2 005030   200244 741300       DISPRAT      STX1  ! IC+1,,AUTO

     1050    12417    2   DCL 1 RAT,
     1051    12418    2         2 DEVNM CHAR(8),
     1052    12419    2         2 TYP CHAR(2),
     1053    12420    2         2 NUMB CHAR(2),
     1054    12421    2         2 SISID SBIN UNAL,
     1055    12422    2         2 M1 SBIN UNAL,
     1056    12423    2         2 M2 SBIN UNAL,
     1057    12424    2         2 ACTX SBIN UNAL,
     1058    12425    2         2 RFLG SBIN UNAL,
     1059    12426    2         2 RCOD SBIN UNAL,
     1060    12427    2         2 ASID SBIN UNAL,
     1061    12428    2         2 SER CHAR(6),
     1062    12429    2         2 SSER CHAR(6),
     1063    12430    2         2 SOLU SBIN UNAL,
     1064    12431    2         2 FLG SBIN UNAL,
     1065    12432    2         2 ADR SBIN UNAL;
     1066    12433    2   DCL POFF_BASED BASED ALIGNED UBIN HALF;
     1067    12434        /**/
     1068    12435    2      DCT$=N$DCT$(RAT$->FR$RAT.DCTX);

  12435  2 005031   200113 470500                    LDP0    RAT$,,AUTO
         2 005032   000003 720100                    LXL0    3,,PR0
         2 005033   200004 471500                    LDP1    DCT$$,,AUTO
         2 005034   100000 236110                    LDQ     0,X0,PR1
         2 005035   200006 756100                    STQ     DCT$,,AUTO

     1069    12436    2      IF DCT$=ADDR(NIL) THEN RAT.DEVNM=' ';

  12436  2 005036   000001 116000 xsym               CMPQ    B_VECTNIL+1
         2 005037   005045 601000 2                  TNZ     s:12438

  12436  2 005040   000035 235000 xsym               LDA     B_VECTNIL+29
         2 005041   000035 236000 xsym               LDQ     B_VECTNIL+29
PL6.E3A0      #001=DAD$DCT File=DAD$DCT.:E05TSI                                  TUE 07/29/97 12:42 Page:182
         2 005042   200245 755100                    STA     RAT,,AUTO
         2 005043   200246 756100                    STQ     TYPE,,AUTO
         2 005044   005061 710000 2                  TRA     s:12441

     1070    12437    3      ELSE DO;

     1071    12438    3           CALL DAM$MAP(DCT$,DCT$) ALTRET(ALT);

  12438  2 005045   200006 633500                    EPPR3   DCT$,,AUTO
         2 005046   200271 453500                    STP3    X+19,,AUTO
         2 005047   200006 634500                    EPPR4   DCT$,,AUTO
         2 005050   200270 454500                    STP4    X+18,,AUTO
         2 005051   200270 630500                    EPPR0   X+18,,AUTO
         2 005052   000020 631400 xsym               EPPR1   B_VECTNIL+16
         2 005053   000000 701000 xent               TSX1    DAM$MAP
         2 005054   005152 702000 2                  TSX2    ALT

     1072    12439    3           RAT.DEVNM=DCT$->DCT.DEVNM;

  12439  2 005055   200006 470500                    LDP0    DCT$,,AUTO
         2 005056   040100 100500                    MLR     fill='040'O
         2 005057   000002 000010                    ADSC9   2,,PR0                   cn=0,n=8
         2 005060   200245 000010                    ADSC9   RAT,,AUTO                cn=0,n=8

     1073    12440    3           END;

     1074    12441    2      RAT.SISID=RAT$->FR$RAT.RES.SISID;

  12441  2 005061   200113 470500                    LDP0    RAT$,,AUTO
         2 005062   000001 236100                    LDQ     1,,PR0
         2 005063   000022 732000                    QRS     18
         2 005064   200250 756100                    STQ     X+2,,AUTO

     1075    12442    2      RAT.M1=BITBIN(RAT$->FR$RAT.M1);

  12442  2 005065   000006 236100                    LDQ     6,,PR0
         2 005066   000022 772000                    QRL     18
PL6.E3A0      #001=DAD$DCT File=DAD$DCT.:E05TSI                                  TUE 07/29/97 12:42 Page:183
         2 005067   200251 756100                    STQ     X+3,,AUTO

     1076    12443    2      RAT.M2=BITBIN(RAT$->FR$RAT.RES.M2);

  12443  2 005070   000002 236100                    LDQ     2,,PR0
         2 005071   000022 772000                    QRL     18
         2 005072   200252 756100                    STQ     X+4,,AUTO

     1077    12444    2      RAT.NUMB=RAT$->FR$RAT.RES.NUMB;

  12444  2 005073   000001 720100                    LXL0    1,,PR0
         2 005074   200247 440100                    SXL0    X+1,,AUTO

     1078    12445    2      RAT.ACTX=RAT$->FR$RAT.RES.ACTX;

  12445  2 005075   000002 236100                    LDQ     2,,PR0
         2 005076   777777 376007                    ANQ     -1,DL
         2 005077   200253 756100                    STQ     X+5,,AUTO

     1079    12446    2      RAT.RFLG=BITBIN(RAT$->FR$RAT.RES.RFLG);

  12446  2 005100   000003 236100                    LDQ     3,,PR0
         2 005101   000033 772000                    QRL     27
         2 005102   200254 756100                    STQ     X+6,,AUTO

     1080    12447    2      RAT.RCOD=RAT$->FR$RAT.RCOD;

  12447  2 005103   000003 236100                    LDQ     3,,PR0
         2 005104   000027 772000                    QRL     23
         2 005105   000017 376007                    ANQ     15,DL
         2 005106   200255 756100                    STQ     X+7,,AUTO

     1081    12448    2      RAT.ASID=RAT$->FR$RAT.REEL.ASID;

  12448  2 005107   000004 236100                    LDQ     4,,PR0
         2 005110   000022 732000                    QRS     18
         2 005111   200256 756100                    STQ     X+8,,AUTO
PL6.E3A0      #001=DAD$DCT File=DAD$DCT.:E05TSI                                  TUE 07/29/97 12:42 Page:184

     1082    12449    2      RAT.SER=RAT$->FR$RAT.REEL.SER;

  12449  2 005112   040100 100500                    MLR     fill='040'O
         2 005113   000004 400006                    ADSC9   4,,PR0                   cn=2,n=6
         2 005114   200257 000006                    ADSC9   X+9,,AUTO                cn=0,n=6

     1083    12450    2      RAT.SSER=RAT$->FR$RAT.SSER;

  12450  2 005115   040100 100500                    MLR     fill='040'O
         2 005116   000006 400006                    ADSC9   6,,PR0                   cn=2,n=6
         2 005117   200260 400006                    ADSC9   X+10,,AUTO               cn=2,n=6

     1084    12451    2      RAT.TYP=RAT$->FR$RAT.TYP;

  12451  2 005120   000010 221100                    LDX1    8,,PR0
         2 005121   200247 741100                    STX1    X+1,,AUTO

     1085    12452    2      RAT.SOLU=RAT$->FR$RAT.SOLU;

  12452  2 005122   000010 236100                    LDQ     8,,PR0
         2 005123   000011 772000                    QRL     9
         2 005124   000777 376007                    ANQ     511,DL
         2 005125   200262 756100                    STQ     X+12,,AUTO

     1086    12453    2      RAT.FLG=BITBIN(RAT$->FR$RAT.FLG);

  12453  2 005126   000010 236100                    LDQ     8,,PR0
         2 005127   000777 376007                    ANQ     511,DL
         2 005130   200263 756100                    STQ     X+13,,AUTO

     1087    12454    2      RAT.ADR=ADDR(RAT$)->POFF_BASED;

  12454  2 005131   200113 235100                    LDA     RAT$,,AUTO
         2 005132   000022 771000                    ARL     18
         2 005133   200264 755100                    STA     X+14,,AUTO

PL6.E3A0      #001=DAD$DCT File=DAD$DCT.:E05TSI                                  TUE 07/29/97 12:42 Page:185
     1088    12455    2      CALL DAF$WRITE(VECTOR(RATFMT),VECTOR(RAT));

  12455  2 005134   000232 235000 3                  LDA     154
         2 005135   200270 452500                    STP2    X+18,,AUTO
         2 005136   200270 236100                    LDQ     X+18,,AUTO
         2 005137   000245 036003                    ADLQ    165,DU
         2 005140   200272 757100                    STAQ    X+20,,AUTO
         2 005141   200272 631500                    EPPR1   X+20,,AUTO
         2 005142   200275 451500                    STP1    X+23,,AUTO
         2 005143   000234 236000 3                  LDQ     156
         2 005144   200274 756100                    STQ     X+22,,AUTO
         2 005145   200274 630500                    EPPR0   X+22,,AUTO
         2 005146   000000 222000 xsym               LDX2    DAF$WRITE
         2 005147   000020 631400 xsym               EPPR1   B_VECTNIL+16
         2 005150   000000 701012                    TSX1    0,X2
         2 005151   000000 011000                    NOP     0

     1089    12456    2   ALT: RETURN;

  12456  2 005152   200244 221300       ALT          LDX1  ! IC+1,,AUTO
         2 005153   000001 702211                    TSX2  ! 1,X1

     1090    12457    2   END DISPRAT;
     1091    12458        %EJECT;
PL6.E3A0      #001=DAD$DCT File=DAD$DCT.:E05TSI                                  TUE 07/29/97 12:42 Page:186
     1092    12459    1   DAD$DDT: ENTRY(TOP);

  12459  2 005154   000000 700200 xent  DAD$DDT      TSX0  ! X66_AUTO_1
         2 005155   000416 000001                    ZERO    270,1

     1093    12460
     1094    12461    1      CALL DAS$SDMONPTR(%M#N$DCT$$,DCT$$) ALTRET(DDTALT);

  12461  2 005156   200004 630500                    EPPR0   DCT$$,,AUTO
         2 005157   200271 450500                    STP0    X+19,,AUTO
         2 005160   000001 236000 3                  LDQ     1
         2 005161   200270 756100                    STQ     X+18,,AUTO
         2 005162   200270 630500                    EPPR0   X+18,,AUTO
         2 005163   000020 631400 xsym               EPPR1   B_VECTNIL+16
         2 005164   000000 701000 xent               TSX1    DAS$SDMONPTR
         2 005165   005340 702000 2                  TSX2    DDTALT

     1095    12462    1      CALL DAM$MAP(DCT$$,DCT$$,,,DA_MONISDATA) ALTRET(DDTALT);

  12462  2 005166   000004 236000 3                  LDQ     4
         2 005167   200274 756100                    STQ     X+22,,AUTO
         2 005170   000001 236000 xsym               LDQ     B_VECTNIL+1
         2 005171   000001 235000 xsym               LDA     B_VECTNIL+1
         2 005172   200272 757100                    STAQ    X+20,,AUTO
         2 005173   200004 630500                    EPPR0   DCT$$,,AUTO
         2 005174   200271 450500                    STP0    X+19,,AUTO
         2 005175   200004 631500                    EPPR1   DCT$$,,AUTO
         2 005176   200270 451500                    STP1    X+18,,AUTO
         2 005177   200270 630500                    EPPR0   X+18,,AUTO
         2 005200   000023 631400 xsym               EPPR1   B_VECTNIL+19
         2 005201   000000 701000 xent               TSX1    DAM$MAP
         2 005202   005340 702000 2                  TSX2    DDTALT

     1096    12463    1      DCT$$ = DCT$$->PTR$;                 /* DCT pointer                        */

  12463  2 005203   200004 470500                    LDP0    DCT$$,,AUTO
         2 005204   000000 236100                    LDQ     0,,PR0
PL6.E3A0      #001=DAD$DCT File=DAD$DCT.:E05TSI                                  TUE 07/29/97 12:42 Page:187
         2 005205   200004 756100                    STQ     DCT$$,,AUTO

     1097    12464
     1098    12465    1      CALL DAS$SDMONPTR(%M#NK_MXLOCAL,P$) ALTRET(DDTALT);

  12465  2 005206   200134 630500                    EPPR0   P$,,AUTO
         2 005207   200271 450500                    STP0    X+19,,AUTO
         2 005210   000003 236000 3                  LDQ     3
         2 005211   200270 756100                    STQ     X+18,,AUTO
         2 005212   200270 630500                    EPPR0   X+18,,AUTO
         2 005213   000020 631400 xsym               EPPR1   B_VECTNIL+16
         2 005214   000000 701000 xent               TSX1    DAS$SDMONPTR
         2 005215   005340 702000 2                  TSX2    DDTALT

     1099    12466    1      CALL DAM$MAP(P$,P$,,,DA_MONISDATA) ALTRET(DDTALT);

  12466  2 005216   000004 236000 3                  LDQ     4
         2 005217   200274 756100                    STQ     X+22,,AUTO
         2 005220   000001 236000 xsym               LDQ     B_VECTNIL+1
         2 005221   000001 235000 xsym               LDA     B_VECTNIL+1
         2 005222   200272 757100                    STAQ    X+20,,AUTO
         2 005223   200134 630500                    EPPR0   P$,,AUTO
         2 005224   200271 450500                    STP0    X+19,,AUTO
         2 005225   200134 631500                    EPPR1   P$,,AUTO
         2 005226   200270 451500                    STP1    X+18,,AUTO
         2 005227   200270 630500                    EPPR0   X+18,,AUTO
         2 005230   000023 631400 xsym               EPPR1   B_VECTNIL+19
         2 005231   000000 701000 xent               TSX1    DAM$MAP
         2 005232   005340 702000 2                  TSX2    DDTALT

     1100    12467    1      NDCT = P$->SBINWORD;                 /* Number of DCTs                     */

  12467  2 005233   200134 470500                    LDP0    P$,,AUTO
         2 005234   000000 235100                    LDA     0,,PR0
         2 005235   200135 755100                    STA     NDCT,,AUTO

     1101    12468
PL6.E3A0      #001=DAD$DCT File=DAD$DCT.:E05TSI                                  TUE 07/29/97 12:42 Page:188
     1102    12469    1      CALL DAM$MAP(DCT$$,DCT$$) ALTRET(DDTALT);

  12469  2 005236   200004 631500                    EPPR1   DCT$$,,AUTO
         2 005237   200271 451500                    STP1    X+19,,AUTO
         2 005240   200004 633500                    EPPR3   DCT$$,,AUTO
         2 005241   200270 453500                    STP3    X+18,,AUTO
         2 005242   200270 630500                    EPPR0   X+18,,AUTO
         2 005243   000020 631400 xsym               EPPR1   B_VECTNIL+16
         2 005244   000000 701000 xent               TSX1    DAM$MAP
         2 005245   005340 702000 2                  TSX2    DDTALT

     1103    12470
     1104    12471    1      CALL DAF$INIT(DDTRPT);

  12471  2 005246   000235 630400 3                  EPPR0   157
         2 005247   000017 631400 xsym               EPPR1   B_VECTNIL+15
         2 005250   000000 701000 xent               TSX1    DAF$INIT
         2 005251   000000 011000                    NOP     0

     1105    12472
     1106    12473    1      IF TOP.NSUBLKS = 0

  12473  2 005252   200003 470500                    LDP0    @TOP,,AUTO
         2 005253   000001 220100                    LDX0    1,,PR0
         2 005254   005272 601000 2                  TNZ     s:12481

     1107    12474    2      THEN DO;                             /* Display all DDTs                   */

     1108    12475    3           DO I = 1 TO NDCT;

  12475  2 005255   000001 235007                    LDA     1,DL
         2 005256   200144 755100                    STA     I,,AUTO
         2 005257   005263 710000 2                  TRA     s:12477+1

     1109    12476    3                CALL DISPDDT_I;

  12476  2 005260   005341 701000 2                  TSX1    DISPDDT_I
PL6.E3A0      #001=DAD$DCT File=DAD$DCT.:E05TSI                                  TUE 07/29/97 12:42 Page:189
         2 005261   000000 011000                    NOP     0

     1110    12477    3                END;

  12477  2 005262   200144 054100                    AOS     I,,AUTO
         2 005263   200144 236100                    LDQ     I,,AUTO
         2 005264   200135 116100                    CMPQ    NDCT,,AUTO
         2 005265   005260 604400 2                  TMOZ    s:12476

     1111    12478    2           CALL DAF$NEWPAGE;               /* Get footer on page                 */

  12478  2 005266   000002 631400 xsym               EPPR1   B_VECTNIL+2
         2 005267   000000 701000 xent               TSX1    DAF$NEWPAGE
         2 005270   000000 011000                    NOP     0

     1112    12479    2           END;

  12479  2 005271   005340 710000 2                  TRA     DDTALT

     1113    12480    2      ELSE DO;                             /* Display DDTs selected by DCTX      */

     1114    12481    3           DO J = 0 TO TOP.NSUBLKS - 1;

  12481  2 005272   200145 450100                    STZ     J,,AUTO
         2 005273   005333 710000 2                  TRA     s:12492+1

     1115    12482    4                DO CASE( TOP.SUBLK$(J)->OUT.CODE );

  12482  2 005274   200003 470500                    LDP0    @TOP,,AUTO
         2 005275   200145 720100                    LXL0    J,,AUTO
         2 005276   000003 471510                    LDP1    3,X0,PR0
         2 005277   100000 721100                    LXL1    0,,PR1
         2 005300   000002 101003                    CMPX1   2,DU
         2 005301   005303 602011 2                  TNC     s:12482+7,X1
         2 005302   005332 710000 2                  TRA     s:12492
         2 005303   005332 710000 2                  TRA     s:12492
         2 005304   005305 710000 2                  TRA     s:12484
PL6.E3A0      #001=DAD$DCT File=DAD$DCT.:E05TSI                                  TUE 07/29/97 12:42 Page:190

     1116    12483    4                 CASE( %DA_DCT_NUM );

     1117    12484    4                   CALL DAA$VALUE( TOP.SUBLK$(J)->OUT.SUBLK$(0)->OUT, I );

  12484  2 005305   100003 473500                    LDP3    3,,PR1
         2 005306   200144 634500                    EPPR4   I,,AUTO
         2 005307   200271 454500                    STP4    X+19,,AUTO
         2 005310   200270 453500                    STP3    X+18,,AUTO
         2 005311   200270 630500                    EPPR0   X+18,,AUTO
         2 005312   000020 631400 xsym               EPPR1   B_VECTNIL+16
         2 005313   000000 701000 xent               TSX1    DAA$VALUE
         2 005314   000000 011000                    NOP     0

     1118    12485    4                   IF I < 1 OR I > NDCT

  12485  2 005315   200144 235100                    LDA     I,,AUTO
         2 005316   005322 604400 2                  TMOZ    s:12487
         2 005317   200144 236100                    LDQ     I,,AUTO
         2 005320   200135 116100                    CMPQ    NDCT,,AUTO
         2 005321   005330 604400 2                  TMOZ    s:12490

     1119    12486    5                   THEN DO;

     1120    12487    5                        DA_ANLZERR = '040104000000'O;

  12487  2 005322   000645 236000 0                  LDQ     MIR_STATE+5
         2 005323   000000 756000 xsym               STQ     DA_ANLZERR

     1121    12488    5                        DA_ANLZERR.CODE = %E$DA_BAD_DCTX;

  12488  2 005324   000011 376000 3                  ANQ     9
         2 005325   004560 276007                    ORQ     2416,DL
         2 005326   000000 756000 xsym               STQ     DA_ANLZERR

     1122    12489    5                        END;

PL6.E3A0      #001=DAD$DCT File=DAD$DCT.:E05TSI                                  TUE 07/29/97 12:42 Page:191
  12489  2 005327   005332 710000 2                  TRA     s:12492

     1123    12490    4                   ELSE CALL DISPDDT_I;

  12490  2 005330   005341 701000 2                  TSX1    DISPDDT_I
         2 005331   000000 011000                    NOP     0

     1124    12491    4                   END;

     1125    12492    3                END;

  12492  2 005332   200145 054100                    AOS     J,,AUTO
         2 005333   200003 470500                    LDP0    @TOP,,AUTO
         2 005334   000001 236100                    LDQ     1,,PR0
         2 005335   000022 772000                    QRL     18
         2 005336   200145 116100                    CMPQ    J,,AUTO
         2 005337   005274 605400 2                  TPNZ    s:12482

     1126    12493    2           END;

  12489  2 005340                       DDTALT       null
     1127    12494
     1128    12495    1   DDTALT: ;
     1129    12496    1      RETURN;

  12496  2 005340   000000 702200 xent               TSX2  ! X66_ARET

     1130    12497
     1131    12498        /******************************/
     1132    12499
     1133    12500    1   DISPDDT_I: PROC;

  12500  2 005341   200244 741300       DISPDDT_I    STX1  ! IC+1,,AUTO

     1134    12501
     1135    12502    2   DCL 1 DDT,
     1136    12503    2         2 DCTX SBIN,
PL6.E3A0      #001=DAD$DCT File=DAD$DCT.:E05TSI                                  TUE 07/29/97 12:42 Page:192
     1137    12504    2         2 SN CHAR(6),
     1138    12505    2         2 ACCT CHAR(8),
     1139    12506    2         2 FSN SBIN,
     1140    12507    2         2 DENSITY CHAR(5),
     1141    12508    2         2 FLAGS,
     1142    12509    2           3 ANST CHAR(1),
     1143    12510    2           3 SCRTCH CHAR(1),
     1144    12511    2           3 EBCDIC CHAR(1),
     1145    12512    2           3 RINGIN CHAR(1),
     1146    12513    2           3 WRITE CHAR(1),
     1147    12514    2           3 NOWANS CHAR(1),
     1148    12515    2           3 POSLOST CHAR(1),
     1149    12516    2           3 FMNEEDED CHAR(1),
     1150    12517    2           3 FUNNYPOS CHAR(1),
     1151    12518    2           3 EXPIRED CHAR(1),
     1152    12519    2         2 FLAGSCHARS REDEF FLAGS CHAR(10),
     1153    12520    2         2 SOLICIT CHAR(4),
     1154    12521    2         2 POS CHAR(4),
     1155    12522    2         2 FRSTFSN SBIN,
     1156    12523    2         2 FRSTFSECT SBIN,
     1157    12524    2         2 VOLACCESS CHAR(3),
     1158    12525    2         2 EXPIRE CHAR(6),
     1159    12526    2         2 FMCNT SBIN;
     1160    12527
     1161    12528        /********************/
     1162    12529
     1163    12530    2      CALL DAM$MAP(N$DCT$(I),DCT$) ALTRET(JUSTRET);

  12530  2 005342   200006 630500                    EPPR0   DCT$,,AUTO
         2 005343   200271 450500                    STP0    X+19,,AUTO
         2 005344   200144 236100                    LDQ     I,,AUTO
         2 005345   000022 736000                    QLS     18
         2 005346   200004 036100                    ADLQ    DCT$$,,AUTO
         2 005347   200270 756100                    STQ     X+18,,AUTO
         2 005350   200270 630500                    EPPR0   X+18,,AUTO
         2 005351   000020 631400 xsym               EPPR1   B_VECTNIL+16
         2 005352   000000 701000 xent               TSX1    DAM$MAP
PL6.E3A0      #001=DAD$DCT File=DAD$DCT.:E05TSI                                  TUE 07/29/97 12:42 Page:193
         2 005353   005747 702000 2                  TSX2    JUSTRET

     1164    12531    2      IF DCT.DDT$ = ADDR(NIL)

  12531  2 005354   200006 470500                    LDP0    DCT$,,AUTO
         2 005355   000004 236100                    LDQ     4,,PR0
         2 005356   000001 116000 xsym               CMPQ    B_VECTNIL+1
         2 005357   005362 601000 2                  TNZ     s:12533

     1165    12532    2      THEN RETURN;                         /* Not a device with a DDT            */

  12532  2 005360   200244 221300                    LDX1  ! IC+1,,AUTO
         2 005361   000001 702211                    TSX2  ! 1,X1

     1166    12533    2      CALL DAM$MAP(DCT.DDT$,DDT$) ALTRET(JUSTRET);

  12533  2 005362   200114 631500                    EPPR1   DDT$,,AUTO
         2 005363   200271 451500                    STP1    X+19,,AUTO
         2 005364   200006 236100                    LDQ     DCT$,,AUTO
         2 005365   000004 036003                    ADLQ    4,DU
         2 005366   200270 756100                    STQ     X+18,,AUTO
         2 005367   200270 630500                    EPPR0   X+18,,AUTO
         2 005370   000020 631400 xsym               EPPR1   B_VECTNIL+16
         2 005371   000000 701000 xent               TSX1    DAM$MAP
         2 005372   005747 702000 2                  TSX2    JUSTRET

     1167    12534
     1168    12535    2      DDT.DCTX = I;

  12535  2 005373   200144 235100                    LDA     I,,AUTO
         2 005374   200245 755100                    STA     DDT,,AUTO

     1169    12536    2      DDT.SN = FT$DDT.SN;

  12536  2 005375   200114 470500                    LDP0    DDT$,,AUTO
         2 005376   040100 100500                    MLR     fill='040'O
         2 005377   000002 000006                    ADSC9   2,,PR0                   cn=0,n=6
PL6.E3A0      #001=DAD$DCT File=DAD$DCT.:E05TSI                                  TUE 07/29/97 12:42 Page:194
         2 005400   200246 000006                    ADSC9   TYPE,,AUTO               cn=0,n=6

     1170    12537    2      DDT.ACCT = FT$DDT.ACCT;

  12537  2 005401   040100 100500                    MLR     fill='040'O
         2 005402   000000 000010                    ADSC9   0,,PR0                   cn=0,n=8
         2 005403   200247 400010                    ADSC9   X+1,,AUTO                cn=2,n=8

     1171    12538    2      DDT.FSN = FT$DDT.FSN;

  12538  2 005404   000005 236100                    LDQ     5,,PR0
         2 005405   000022 772000                    QRL     18
         2 005406   200252 756100                    STQ     X+4,,AUTO

     1172    12539
     1173    12540    3      DO CASE( FT$DDT.DENSITY );

  12540  2 005407   000006 236100                    LDQ     6,,PR0
         2 005410   000010 772000                    QRL     8
         2 005411   000007 376007                    ANQ     7,DL
         2 005412   000006 116007                    CMPQ    6,DL
         2 005413   005415 602006 2                  TNC     s:12540+6,QL
         2 005414   005447 710000 2                  TRA     s:12546
         2 005415   005423 710000 2                  TRA     s:12541
         2 005416   005447 710000 2                  TRA     s:12546
         2 005417   005427 710000 2                  TRA     s:12542
         2 005420   005433 710000 2                  TRA     s:12543
         2 005421   005437 710000 2                  TRA     s:12544
         2 005422   005443 710000 2                  TRA     s:12545

     1174    12541    3       CASE( %D_UNKNOWN# ); DDT.DENSITY = ' ????';

  12541  2 005423   040100 100400                    MLR     fill='040'O
         2 005424   000667 000005 0                  ADSC9   MIR_STATE+23             cn=0,n=5
         2 005425   200253 000005                    ADSC9   X+5,,AUTO                cn=0,n=5
         2 005426   005454 710000 2                  TRA     s:12549

PL6.E3A0      #001=DAD$DCT File=DAD$DCT.:E05TSI                                  TUE 07/29/97 12:42 Page:195
     1175    12542    3       CASE( %D800# ); DDT.DENSITY = ' 800B';

  12542  2 005427   040100 100400                    MLR     fill='040'O
         2 005430   000671 000005 0                  ADSC9   MIR_STATE+25             cn=0,n=5
         2 005431   200253 000005                    ADSC9   X+5,,AUTO                cn=0,n=5
         2 005432   005454 710000 2                  TRA     s:12549

     1176    12543    3       CASE( %D1600# ); DDT.DENSITY = '1600B';

  12543  2 005433   040100 100400                    MLR     fill='040'O
         2 005434   000673 000005 0                  ADSC9   MIR_STATE+27             cn=0,n=5
         2 005435   200253 000005                    ADSC9   X+5,,AUTO                cn=0,n=5
         2 005436   005454 710000 2                  TRA     s:12549

     1177    12544    3       CASE( %D6250# ); DDT.DENSITY = '6250B';

  12544  2 005437   040100 100400                    MLR     fill='040'O
         2 005440   000675 000005 0                  ADSC9   MIR_STATE+29             cn=0,n=5
         2 005441   200253 000005                    ADSC9   X+5,,AUTO                cn=0,n=5
         2 005442   005454 710000 2                  TRA     s:12549

     1178    12545    3       CASE( %D38000# ); DDT.DENSITY = ' 38KB';

  12545  2 005443   040100 100400                    MLR     fill='040'O
         2 005444   000677 000005 0                  ADSC9   MIR_STATE+31             cn=0,n=5
         2 005445   200253 000005                    ADSC9   X+5,,AUTO                cn=0,n=5
         2 005446   005454 710000 2                  TRA     s:12549

     1179    12546    3       CASE( ELSE ); CALL BINCHAR( DDT.DENSITY, FT$DDT.DENSITY );

  12546  2 005447   000000 235003                    LDA     0,DU
         2 005450   200270 757100                    STAQ    X+18,,AUTO
         2 005451   000100 301500                    BTD
         2 005452   200270 000010                    NDSC9   X+18,,AUTO               cn=0,s=lsgnf,sf=0,n=8
         2 005453   200253 030005                    NDSC9   X+5,,AUTO                cn=0,s=nosgn,sf=0,n=5

     1180    12547    3         END;
PL6.E3A0      #001=DAD$DCT File=DAD$DCT.:E05TSI                                  TUE 07/29/97 12:42 Page:196

     1181    12548
     1182    12549    2      DDT.FLAGSCHARS = ' ';

  12549  2 005454   040100 100400                    MLR     fill='040'O
         2 005455   000035 000001 xsym               ADSC9   B_VECTNIL+29             cn=0,n=1
         2 005456   200254 200012                    ADSC9   X+6,,AUTO                cn=1,n=10

     1183    12550    2      IF FT$DDT.ANST

  12550  2 005457   000006 236100                    LDQ     6,,PR0
         2 005460   400000 316007                    CANQ    -131072,DL
         2 005461   005464 600000 2                  TZE     s:12552

     1184    12551    2      THEN DDT.FLAGS.ANST = 'A';

  12551  2 005462   000101 236003                    LDQ     65,DU
         2 005463   200254 552120                    STBQ    X+6,'20'O,AUTO

     1185    12552    2      IF FT$DDT.SCRTCH

  12552  2 005464   000006 236100                    LDQ     6,,PR0
         2 005465   200000 316007                    CANQ    65536,DL
         2 005466   005471 600000 2                  TZE     s:12554

     1186    12553    2      THEN DDT.FLAGS.SCRTCH = 'S';

  12553  2 005467   123000 236007                    LDQ     42496,DL
         2 005470   200254 552110                    STBQ    X+6,'10'O,AUTO

     1187    12554    2      IF FT$DDT.EBCDIC

  12554  2 005471   000006 236100                    LDQ     6,,PR0
         2 005472   100000 316007                    CANQ    32768,DL
         2 005473   005476 600000 2                  TZE     s:12556

     1188    12555    2      THEN DDT.FLAGS.EBCDIC = 'E';
PL6.E3A0      #001=DAD$DCT File=DAD$DCT.:E05TSI                                  TUE 07/29/97 12:42 Page:197

  12555  2 005474   000105 236007                    LDQ     69,DL
         2 005475   200254 552104                    STBQ    X+6,'04'O,AUTO

     1189    12556    2      IF FT$DDT.RINGIN

  12556  2 005476   000006 236100                    LDQ     6,,PR0
         2 005477   040000 316007                    CANQ    16384,DL
         2 005500   005503 600000 2                  TZE     s:12558

     1190    12557    2      THEN DDT.FLAGS.RINGIN = 'R';

  12557  2 005501   122000 236003                    LDQ     41984,DU
         2 005502   200255 552140                    STBQ    X+7,'40'O,AUTO

     1191    12558    2      IF FT$DDT.WRITE

  12558  2 005503   000006 236100                    LDQ     6,,PR0
         2 005504   020000 316007                    CANQ    8192,DL
         2 005505   005510 600000 2                  TZE     s:12560

     1192    12559    2      THEN DDT.FLAGS.WRITE = 'W';

  12559  2 005506   000127 236003                    LDQ     87,DU
         2 005507   200255 552120                    STBQ    X+7,'20'O,AUTO

     1193    12560    2      IF FT$DDT.NOWANS

  12560  2 005510   000006 236100                    LDQ     6,,PR0
         2 005511   010000 316007                    CANQ    4096,DL
         2 005512   005515 600000 2                  TZE     s:12562

     1194    12561    2      THEN DDT.FLAGS.NOWANS = 'N';

  12561  2 005513   116000 236007                    LDQ     39936,DL
         2 005514   200255 552110                    STBQ    X+7,'10'O,AUTO

PL6.E3A0      #001=DAD$DCT File=DAD$DCT.:E05TSI                                  TUE 07/29/97 12:42 Page:198
     1195    12562    2      IF FT$DDT.POSLOST

  12562  2 005515   000006 236100                    LDQ     6,,PR0
         2 005516   004000 316007                    CANQ    2048,DL
         2 005517   005522 600000 2                  TZE     s:12564

     1196    12563    2      THEN DDT.FLAGS.POSLOST = 'P';

  12563  2 005520   000120 236007                    LDQ     80,DL
         2 005521   200255 552104                    STBQ    X+7,'04'O,AUTO

     1197    12564    2      IF FT$DDT.FMNEEDED

  12564  2 005522   000006 236100                    LDQ     6,,PR0
         2 005523   000200 316007                    CANQ    128,DL
         2 005524   005527 600000 2                  TZE     s:12566

     1198    12565    2      THEN DDT.FLAGS.FMNEEDED = 'F';

  12565  2 005525   106000 236003                    LDQ     35840,DU
         2 005526   200256 552140                    STBQ    X+8,'40'O,AUTO

     1199    12566    2      IF FT$DDT.FUNNYPOS

  12566  2 005527   000007 236100                    LDQ     7,,PR0
         2 005530   400000 316007                    CANQ    -131072,DL
         2 005531   005534 600000 2                  TZE     s:12568

     1200    12567    2      THEN DDT.FLAGS.FUNNYPOS = '?';

  12567  2 005532   000077 236003                    LDQ     63,DU
         2 005533   200256 552120                    STBQ    X+8,'20'O,AUTO

     1201    12568    2      IF FT$DDT.EXPIRED

  12568  2 005534   000006 236100                    LDQ     6,,PR0
         2 005535   000010 316007                    CANQ    8,DL
PL6.E3A0      #001=DAD$DCT File=DAD$DCT.:E05TSI                                  TUE 07/29/97 12:42 Page:199
         2 005536   005541 600000 2                  TZE     s:12571

     1202    12569    2      THEN DDT.FLAGS.EXPIRED = 'X';

  12569  2 005537   130000 236007                    LDQ     45056,DL
         2 005540   200256 552110                    STBQ    X+8,'10'O,AUTO

     1203    12570
     1204    12571    3      DO CASE( FT$DDT.SOLICIT );

  12571  2 005541   000006 720100                    LXL0    6,,PR0
         2 005542   000007 360003                    ANX0    7,DU
         2 005543   000005 100003                    CMPX0   5,DU
         2 005544   005546 602010 2                  TNC     s:12571+5,X0
         2 005545   005577 710000 2                  TRA     s:12577
         2 005546   005553 710000 2                  TRA     s:12572
         2 005547   005557 710000 2                  TRA     s:12573
         2 005550   005563 710000 2                  TRA     s:12574
         2 005551   005567 710000 2                  TRA     s:12575
         2 005552   005573 710000 2                  TRA     s:12576

     1205    12572    3       CASE( 0 ); DDT.SOLICIT = ' ';

  12572  2 005553   040100 100400                    MLR     fill='040'O
         2 005554   000035 000001 xsym               ADSC9   B_VECTNIL+29             cn=0,n=1
         2 005555   200256 600004                    ADSC9   X+8,,AUTO                cn=3,n=4
         2 005556   005606 710000 2                  TRA     s:12580

     1206    12573    3       CASE( %FT_OVERSOL# ); DDT.SOLICIT = 'OVER';

  12573  2 005557   040100 100400                    MLR     fill='040'O
         2 005560   000701 000004 0                  ADSC9   MIR_STATE+33             cn=0,n=4
         2 005561   200256 600004                    ADSC9   X+8,,AUTO                cn=3,n=4
         2 005562   005606 710000 2                  TRA     s:12580

     1207    12574    3       CASE( %FT_RINGSOL# ); DDT.SOLICIT = 'RING';

PL6.E3A0      #001=DAD$DCT File=DAD$DCT.:E05TSI                                  TUE 07/29/97 12:42 Page:200
  12574  2 005563   040100 100400                    MLR     fill='040'O
         2 005564   000702 000004 0                  ADSC9   MIR_STATE+34             cn=0,n=4
         2 005565   200256 600004                    ADSC9   X+8,,AUTO                cn=3,n=4
         2 005566   005606 710000 2                  TRA     s:12580

     1208    12575    3       CASE( %FT_NOWAYSOL# ); DDT.SOLICIT = 'NO';

  12575  2 005567   040100 100400                    MLR     fill='040'O
         2 005570   000650 000002 0                  ADSC9   MIR_STATE+8              cn=0,n=2
         2 005571   200256 600004                    ADSC9   X+8,,AUTO                cn=3,n=4
         2 005572   005606 710000 2                  TRA     s:12580

     1209    12576    3       CASE( %FT_AVRSOL# ); DDT.SOLICIT = 'AVR';

  12576  2 005573   040100 100400                    MLR     fill='040'O
         2 005574   000703 000003 0                  ADSC9   MIR_STATE+35             cn=0,n=3
         2 005575   200256 600004                    ADSC9   X+8,,AUTO                cn=3,n=4
         2 005576   005606 710000 2                  TRA     s:12580

     1210    12577    3       CASE( ELSE ); CALL BINCHAR( DDT.SOLICIT, FT$DDT.SOLICIT );

  12577  2 005577   000006 236100                    LDQ     6,,PR0
         2 005600   000007 376007                    ANQ     7,DL
         2 005601   000000 235003                    LDA     0,DU
         2 005602   200270 757100                    STAQ    X+18,,AUTO
         2 005603   000100 301500                    BTD
         2 005604   200270 000010                    NDSC9   X+18,,AUTO               cn=0,s=lsgnf,sf=0,n=8
         2 005605   200256 630004                    NDSC9   X+8,,AUTO                cn=3,s=nosgn,sf=0,n=4

     1211    12578    3         END;

     1212    12579
     1213    12580    3      DO CASE( FT$DDT.POS );

  12580  2 005606   000006 236100                    LDQ     6,,PR0
         2 005607   000004 772000                    QRL     4
         2 005610   000007 376007                    ANQ     7,DL
PL6.E3A0      #001=DAD$DCT File=DAD$DCT.:E05TSI                                  TUE 07/29/97 12:42 Page:201
         2 005611   000006 116007                    CMPQ    6,DL
         2 005612   005614 602006 2                  TNC     s:12580+6,QL
         2 005613   005652 710000 2                  TRA     s:12587
         2 005614   005622 710000 2                  TRA     s:12581
         2 005615   005626 710000 2                  TRA     s:12582
         2 005616   005632 710000 2                  TRA     s:12583
         2 005617   005636 710000 2                  TRA     s:12584
         2 005620   005642 710000 2                  TRA     s:12585
         2 005621   005646 710000 2                  TRA     s:12586

     1214    12581    3       CASE( FTP_UND# ); DDT.POS = 'UND';

  12581  2 005622   040100 100400                    MLR     fill='040'O
         2 005623   000704 000003 0                  ADSC9   MIR_STATE+36             cn=0,n=3
         2 005624   200257 600004                    ADSC9   X+9,,AUTO                cn=3,n=4
         2 005625   005657 710000 2                  TRA     s:12590

     1215    12582    3       CASE( FTP_BOV# ); DDT.POS = 'BOV';

  12582  2 005626   040100 100400                    MLR     fill='040'O
         2 005627   000705 000003 0                  ADSC9   MIR_STATE+37             cn=0,n=3
         2 005630   200257 600004                    ADSC9   X+9,,AUTO                cn=3,n=4
         2 005631   005657 710000 2                  TRA     s:12590

     1216    12583    3       CASE( FTP_HDR# ); DDT.POS = 'HDR';

  12583  2 005632   040100 100400                    MLR     fill='040'O
         2 005633   000706 000003 0                  ADSC9   MIR_STATE+38             cn=0,n=3
         2 005634   200257 600004                    ADSC9   X+9,,AUTO                cn=3,n=4
         2 005635   005657 710000 2                  TRA     s:12590

     1217    12584    3       CASE( FTP_BOD# ); DDT.POS = 'BOD';

  12584  2 005636   040100 100400                    MLR     fill='040'O
         2 005637   000707 000003 0                  ADSC9   MIR_STATE+39             cn=0,n=3
         2 005640   200257 600004                    ADSC9   X+9,,AUTO                cn=3,n=4
         2 005641   005657 710000 2                  TRA     s:12590
PL6.E3A0      #001=DAD$DCT File=DAD$DCT.:E05TSI                                  TUE 07/29/97 12:42 Page:202

     1218    12585    3       CASE( FTP_EOV# ); DDT.POS = 'EOV';

  12585  2 005642   040100 100400                    MLR     fill='040'O
         2 005643   000710 000003 0                  ADSC9   MIR_STATE+40             cn=0,n=3
         2 005644   200257 600004                    ADSC9   X+9,,AUTO                cn=3,n=4
         2 005645   005657 710000 2                  TRA     s:12590

     1219    12586    3       CASE( FTP_CHK# ); DDT.POS = 'CHK';

  12586  2 005646   040100 100400                    MLR     fill='040'O
         2 005647   000711 000003 0                  ADSC9   MIR_STATE+41             cn=0,n=3
         2 005650   200257 600004                    ADSC9   X+9,,AUTO                cn=3,n=4
         2 005651   005657 710000 2                  TRA     s:12590

     1220    12587    3       CASE( ELSE ); CALL BINCHAR( DDT.POS, FT$DDT.POS );

  12587  2 005652   000000 235003                    LDA     0,DU
         2 005653   200270 757100                    STAQ    X+18,,AUTO
         2 005654   000100 301500                    BTD
         2 005655   200270 000010                    NDSC9   X+18,,AUTO               cn=0,s=lsgnf,sf=0,n=8
         2 005656   200257 630004                    NDSC9   X+9,,AUTO                cn=3,s=nosgn,sf=0,n=4

     1221    12588    3         END;

     1222    12589
     1223    12590    2      DDT.FRSTFSN = FT$DDT.FRSTFSN;

  12590  2 005657   000005 236100                    LDQ     5,,PR0
         2 005660   777777 376007                    ANQ     -1,DL
         2 005661   200261 756100                    STQ     X+11,,AUTO

     1224    12591    2      DDT.FRSTFSECT = FT$DDT.FRSTFSECT;

  12591  2 005662   000007 236100                    LDQ     7,,PR0
         2 005663   000022 772000                    QRL     18
         2 005664   200262 756100                    STQ     X+12,,AUTO
PL6.E3A0      #001=DAD$DCT File=DAD$DCT.:E05TSI                                  TUE 07/29/97 12:42 Page:203

     1225    12592
     1226    12593    3      DO CASE( FT$DDT.VOLACCESS );

  12593  2 005665   000007 720100                    LXL0    7,,PR0
         2 005666   000003 360003                    ANX0    3,DU
         2 005667   000004 100003                    CMPX0   4,DU
         2 005670   005672 602010 2                  TNC     s:12593+5,X0
         2 005671   005714 710000 2                  TRA     s:12598
         2 005672   005676 710000 2                  TRA     s:12594
         2 005673   005701 710000 2                  TRA     s:12595
         2 005674   005704 710000 2                  TRA     s:12596
         2 005675   005711 710000 2                  TRA     s:12597

     1227    12594    3       CASE( 0 ); DDT.VOLACCESS = ' ';

  12594  2 005676   000236 236000 3                  LDQ     158
         2 005677   200263 552170                    STBQ    X+13,'70'O,AUTO
         2 005700   005723 710000 2                  TRA     s:12601

     1228    12595    3       CASE( %ALL# ); DDT.VOLACCESS = 'ALL';

  12595  2 005701   000712 236000 0                  LDQ     MIR_STATE+42
         2 005702   200263 552170                    STBQ    X+13,'70'O,AUTO
         2 005703   005723 710000 2                  TRA     s:12601

     1229    12596    3       CASE( %IN# ); DDT.VOLACCESS = 'IN';

  12596  2 005704   000713 236000 0                  LDQ     MIR_STATE+43
         2 005705   777777 376003                    ANQ     -1,DU
         2 005706   040040 276007                    ORQ     16416,DL
         2 005707   200263 552170                    STBQ    X+13,'70'O,AUTO
         2 005710   005723 710000 2                  TRA     s:12601

     1230    12597    3       CASE( %NONE# ); DDT.VOLACCESS = 'NONE';

  12597  2 005711   000714 236000 0                  LDQ     MIR_STATE+44
PL6.E3A0      #001=DAD$DCT File=DAD$DCT.:E05TSI                                  TUE 07/29/97 12:42 Page:204
         2 005712   200263 552170                    STBQ    X+13,'70'O,AUTO
         2 005713   005723 710000 2                  TRA     s:12601

     1231    12598    3       CASE( ELSE ); CALL BINCHAR( DDT.VOLACCESS, FT$DDT.VOLACCESS );

  12598  2 005714   000007 236100                    LDQ     7,,PR0
         2 005715   000003 376007                    ANQ     3,DL
         2 005716   000000 235003                    LDA     0,DU
         2 005717   200270 757100                    STAQ    X+18,,AUTO
         2 005720   000100 301500                    BTD
         2 005721   200270 000010                    NDSC9   X+18,,AUTO               cn=0,s=lsgnf,sf=0,n=8
         2 005722   200263 030003                    NDSC9   X+13,,AUTO               cn=0,s=nosgn,sf=0,n=3

     1232    12599    3         END;

     1233    12600
     1234    12601    2      DDT.EXPIRE = FT$DDT.EXPIRE;

  12601  2 005723   040100 100500                    MLR     fill='040'O
         2 005724   000003 400006                    ADSC9   3,,PR0                   cn=2,n=6
         2 005725   200263 600006                    ADSC9   X+13,,AUTO               cn=3,n=6

     1235    12602    2      DDT.FMCNT = FT$DDT.FMCNT;

  12602  2 005726   000006 236100                    LDQ     6,,PR0
         2 005727   000022 772000                    QRL     18
         2 005730   200266 756100                    STQ     X+16,,AUTO

     1236    12603
     1237    12604    2      CALL DAF$WRITE(VECTOR(DDTFMT),VECTOR(DDT));

  12604  2 005731   000237 235000 3                  LDA     159
         2 005732   200270 452500                    STP2    X+18,,AUTO
         2 005733   200270 236100                    LDQ     X+18,,AUTO
         2 005734   000245 036003                    ADLQ    165,DU
         2 005735   200272 757100                    STAQ    X+20,,AUTO
         2 005736   200272 631500                    EPPR1   X+20,,AUTO
PL6.E3A0      #001=DAD$DCT File=DAD$DCT.:E05TSI                                  TUE 07/29/97 12:42 Page:205
         2 005737   200275 451500                    STP1    X+23,,AUTO
         2 005740   000242 236000 3                  LDQ     162
         2 005741   200274 756100                    STQ     X+22,,AUTO
         2 005742   200274 630500                    EPPR0   X+22,,AUTO
         2 005743   000000 220000 xsym               LDX0    DAF$WRITE
         2 005744   000020 631400 xsym               EPPR1   B_VECTNIL+16
         2 005745   000000 701010                    TSX1    0,X0
         2 005746   000000 011000                    NOP     0

  12602  2 005747                       JUSTRET      null
     1238    12605
     1239    12606    2   JUSTRET: ;
     1240    12607    2      RETURN;

  12607  2 005747   200244 221300                    LDX1  ! IC+1,,AUTO
         2 005750   000001 702211                    TSX2  ! 1,X1

     1241    12608
     1242    12609    2   END DISPDDT_I;
     1243    12610        %EJECT;
PL6.E3A0      #001=DAD$DCT File=DAD$DCT.:E05TSI                                  TUE 07/29/97 12:42 Page:206
     1244    12611    1   DAD$IOQ: ENTRY(TOP);

  12611  2 005751   000000 700200 xent  DAD$IOQ      TSX0  ! X66_AUTO_1
         2 005752   000416 000001                    ZERO    270,1

     1245    12612    1      CALL DAF$INIT(IOQRPT);

  12612  2 005753   000243 630400 3                  EPPR0   163
         2 005754   000017 631400 xsym               EPPR1   B_VECTNIL+15
         2 005755   000000 701000 xent               TSX1    DAF$INIT
         2 005756   000000 011000                    NOP     0

     1246    12613    2      IF TOP.NSUBLKS=0 THEN DO;

  12613  2 005757   200003 470500                    LDP0    @TOP,,AUTO
         2 005760   000001 220100                    LDX0    1,,PR0
         2 005761   006204 601000 2                  TNZ     s:12641

     1247    12614    2           CALL DAS$SDMONPTR(%M#N$DCT$$,DCT$$) ALTRET(ALT);

  12614  2 005762   200004 631500                    EPPR1   DCT$$,,AUTO
         2 005763   200271 451500                    STP1    X+19,,AUTO
         2 005764   000001 236000 3                  LDQ     1
         2 005765   200270 756100                    STQ     X+18,,AUTO
         2 005766   200270 630500                    EPPR0   X+18,,AUTO
         2 005767   000020 631400 xsym               EPPR1   B_VECTNIL+16
         2 005770   000000 701000 xent               TSX1    DAS$SDMONPTR
         2 005771   000464 702000 2                  TSX2    ALT

     1248    12615    2           CALL DAS$SDMONPTR(%M#NK_MXLOCAL,P$) ALTRET(ALT);

  12615  2 005772   200134 630500                    EPPR0   P$,,AUTO
         2 005773   200271 450500                    STP0    X+19,,AUTO
         2 005774   000003 236000 3                  LDQ     3
         2 005775   200270 756100                    STQ     X+18,,AUTO
         2 005776   200270 630500                    EPPR0   X+18,,AUTO
         2 005777   000020 631400 xsym               EPPR1   B_VECTNIL+16
PL6.E3A0      #001=DAD$DCT File=DAD$DCT.:E05TSI                                  TUE 07/29/97 12:42 Page:207
         2 006000   000000 701000 xent               TSX1    DAS$SDMONPTR
         2 006001   000464 702000 2                  TSX2    ALT

     1249    12616    2           CALL DAM$MAP(P$,P$,,,DA_MONISDATA) ALTRET(ALT);

  12616  2 006002   000004 236000 3                  LDQ     4
         2 006003   200274 756100                    STQ     X+22,,AUTO
         2 006004   000001 236000 xsym               LDQ     B_VECTNIL+1
         2 006005   000001 235000 xsym               LDA     B_VECTNIL+1
         2 006006   200272 757100                    STAQ    X+20,,AUTO
         2 006007   200134 630500                    EPPR0   P$,,AUTO
         2 006010   200271 450500                    STP0    X+19,,AUTO
         2 006011   200134 631500                    EPPR1   P$,,AUTO
         2 006012   200270 451500                    STP1    X+18,,AUTO
         2 006013   200270 630500                    EPPR0   X+18,,AUTO
         2 006014   000023 631400 xsym               EPPR1   B_VECTNIL+19
         2 006015   000000 701000 xent               TSX1    DAM$MAP
         2 006016   000464 702000 2                  TSX2    ALT

     1250    12617    2           NDCT=P$->SBINWORD;

  12617  2 006017   200134 470500                    LDP0    P$,,AUTO
         2 006020   000000 235100                    LDA     0,,PR0
         2 006021   200135 755100                    STA     NDCT,,AUTO

     1251    12618    2           CALL DAM$MAP(DCT$$,DCT$$,,,DA_MONISDATA) ALTRET(ALT);

  12618  2 006022   000004 236000 3                  LDQ     4
         2 006023   200274 756100                    STQ     X+22,,AUTO
         2 006024   000001 236000 xsym               LDQ     B_VECTNIL+1
         2 006025   000001 235000 xsym               LDA     B_VECTNIL+1
         2 006026   200272 757100                    STAQ    X+20,,AUTO
         2 006027   200004 631500                    EPPR1   DCT$$,,AUTO
         2 006030   200271 451500                    STP1    X+19,,AUTO
         2 006031   200004 633500                    EPPR3   DCT$$,,AUTO
         2 006032   200270 453500                    STP3    X+18,,AUTO
         2 006033   200270 630500                    EPPR0   X+18,,AUTO
PL6.E3A0      #001=DAD$DCT File=DAD$DCT.:E05TSI                                  TUE 07/29/97 12:42 Page:208
         2 006034   000023 631400 xsym               EPPR1   B_VECTNIL+19
         2 006035   000000 701000 xent               TSX1    DAM$MAP
         2 006036   000464 702000 2                  TSX2    ALT

     1252    12619    2           DCT$$=DCT$$->PTR$;

  12619  2 006037   200004 470500                    LDP0    DCT$$,,AUTO
         2 006040   000000 236100                    LDQ     0,,PR0
         2 006041   200004 756100                    STQ     DCT$$,,AUTO

     1253    12620    2           CALL DAM$MAP(DCT$$,DCT$$) ALTRET(ALT);

  12620  2 006042   200004 630500                    EPPR0   DCT$$,,AUTO
         2 006043   200271 450500                    STP0    X+19,,AUTO
         2 006044   200004 631500                    EPPR1   DCT$$,,AUTO
         2 006045   200270 451500                    STP1    X+18,,AUTO
         2 006046   200270 630500                    EPPR0   X+18,,AUTO
         2 006047   000020 631400 xsym               EPPR1   B_VECTNIL+16
         2 006050   000000 701000 xent               TSX1    DAM$MAP
         2 006051   000464 702000 2                  TSX2    ALT

     1254    12621    3           DO I=1 TO NDCT;

  12621  2 006052   000001 235007                    LDA     1,DL
         2 006053   200144 755100                    STA     I,,AUTO
         2 006054   006200 710000 2                  TRA     NXTDCT1+1

     1255    12622    3                CALL DAM$MAP(N$DCT$(I),DCT$) ALTRET(NXTDCT1);

  12622  2 006055   200006 630500                    EPPR0   DCT$,,AUTO
         2 006056   200271 450500                    STP0    X+19,,AUTO
         2 006057   200144 236100                    LDQ     I,,AUTO
         2 006060   000022 736000                    QLS     18
         2 006061   200004 036100                    ADLQ    DCT$$,,AUTO
         2 006062   200270 756100                    STQ     X+18,,AUTO
         2 006063   200270 630500                    EPPR0   X+18,,AUTO
         2 006064   000020 631400 xsym               EPPR1   B_VECTNIL+16
PL6.E3A0      #001=DAD$DCT File=DAD$DCT.:E05TSI                                  TUE 07/29/97 12:42 Page:209
         2 006065   000000 701000 xent               TSX1    DAM$MAP
         2 006066   006177 702000 2                  TSX2    NXTDCT1

     1256    12623    4                IF DCT$->DCT.SQ$~=ADDR(NIL) THEN DO;

  12623  2 006067   200006 470500                    LDP0    DCT$,,AUTO
         2 006070   000001 236100                    LDQ     1,,PR0
         2 006071   000001 116000 xsym               CMPQ    B_VECTNIL+1
         2 006072   006115 600000 2                  TZE     s:12627

     1257    12624    4                     CALL DAF$WRITE(VECTOR(DEVNMFMT),VECTOR(DCT$->DCT.DEVNM));

  12624  2 006073   000013 235000 3                  LDA     11
         2 006074   200006 236100                    LDQ     DCT$,,AUTO
         2 006075   000002 036003                    ADLQ    2,DU
         2 006076   200270 757100                    STAQ    X+18,,AUTO
         2 006077   200270 631500                    EPPR1   X+18,,AUTO
         2 006100   200273 451500                    STP1    X+21,,AUTO
         2 006101   000246 236000 3                  LDQ     166
         2 006102   200272 756100                    STQ     X+20,,AUTO
         2 006103   200272 630500                    EPPR0   X+20,,AUTO
         2 006104   000000 220000 xsym               LDX0    DAF$WRITE
         2 006105   000020 631400 xsym               EPPR1   B_VECTNIL+16
         2 006106   000000 701010                    TSX1    0,X0
         2 006107   000000 011000                    NOP     0

     1258    12625    4                     CALL RUNIOQ(DCT$->DCT.SQ$);

  12625  2 006110   200006 236100                    LDQ     DCT$,,AUTO
         2 006111   000001 036003                    ADLQ    1,DU
         2 006112   200245 756100                    STQ     IC+2,,AUTO
         2 006113   006372 701000 2                  TSX1    RUNIOQ
         2 006114   000000 011000                    NOP     0

     1259    12626    4                     END;

     1260    12627    4                IF DCT$->DCT.TYPE = %DV_DP THEN DO;
PL6.E3A0      #001=DAD$DCT File=DAD$DCT.:E05TSI                                  TUE 07/29/97 12:42 Page:210

  12627  2 006115   200006 470500                    LDP0    DCT$,,AUTO
         2 006116   000007 236100                    LDQ     7,,PR0
         2 006117   007700 376007                    ANQ     4032,DL
         2 006120   000600 116007                    CMPQ    384,DL
         2 006121   006177 601000 2                  TNZ     NXTDCT1

     1261    12628    5                     IF DCT$->DCT.DP.BQ$~=ADDR(NIL) THEN DO;

  12628  2 006122   000030 236100                    LDQ     24,,PR0
         2 006123   000001 116000 xsym               CMPQ    B_VECTNIL+1
         2 006124   006147 600000 2                  TZE     s:12632

     1262    12629    5                          CALL DAF$WRITE(VECTOR(DEVBQFMT),VECTOR(DCT$->DCT.DEVNM));

  12629  2 006125   000013 235000 3                  LDA     11
         2 006126   200006 236100                    LDQ     DCT$,,AUTO
         2 006127   000002 036003                    ADLQ    2,DU
         2 006130   200270 757100                    STAQ    X+18,,AUTO
         2 006131   200270 631500                    EPPR1   X+18,,AUTO
         2 006132   200273 451500                    STP1    X+21,,AUTO
         2 006133   000252 236000 3                  LDQ     170
         2 006134   200272 756100                    STQ     X+20,,AUTO
         2 006135   200272 630500                    EPPR0   X+20,,AUTO
         2 006136   000000 220000 xsym               LDX0    DAF$WRITE
         2 006137   000020 631400 xsym               EPPR1   B_VECTNIL+16
         2 006140   000000 701010                    TSX1    0,X0
         2 006141   000000 011000                    NOP     0

     1263    12630    5                          CALL RUNIOQ(DCT$->DCT.DP.BQ$);

  12630  2 006142   200006 236100                    LDQ     DCT$,,AUTO
         2 006143   000030 036003                    ADLQ    24,DU
         2 006144   200245 756100                    STQ     IC+2,,AUTO
         2 006145   006372 701000 2                  TSX1    RUNIOQ
         2 006146   000000 011000                    NOP     0

PL6.E3A0      #001=DAD$DCT File=DAD$DCT.:E05TSI                                  TUE 07/29/97 12:42 Page:211
     1264    12631    5                          END;

     1265    12632    4                     IF DCT$->DCT.DP.MIRROR.FLAG AND

  12632  2 006147   200006 470500                    LDP0    DCT$,,AUTO
         2 006150   000036 234100                    SZN     30,,PR0
         2 006151   006177 605000 2                  TPL     NXTDCT1
         2 006152   000042 236100                    LDQ     34,,PR0
         2 006153   000001 116000 xsym               CMPQ    B_VECTNIL+1
         2 006154   006177 600000 2                  TZE     NXTDCT1

     1266    12633    5                       DCT$->DCT.DP.MIRROR.LQ$~=ADDR(NIL) THEN DO;

     1267    12634    5                          CALL DAF$WRITE(VECTOR(DEVLQFMT),VECTOR(DCT$->DCT.DEVNM));

  12634  2 006155   000013 235000 3                  LDA     11
         2 006156   200006 236100                    LDQ     DCT$,,AUTO
         2 006157   000002 036003                    ADLQ    2,DU
         2 006160   200270 757100                    STAQ    X+18,,AUTO
         2 006161   200270 631500                    EPPR1   X+18,,AUTO
         2 006162   200273 451500                    STP1    X+21,,AUTO
         2 006163   000256 236000 3                  LDQ     174
         2 006164   200272 756100                    STQ     X+20,,AUTO
         2 006165   200272 630500                    EPPR0   X+20,,AUTO
         2 006166   000000 220000 xsym               LDX0    DAF$WRITE
         2 006167   000020 631400 xsym               EPPR1   B_VECTNIL+16
         2 006170   000000 701010                    TSX1    0,X0
         2 006171   000000 011000                    NOP     0

     1268    12635    5                          CALL RUNIOQ(DCT$->DCT.DP.MIRROR.LQ$);

  12635  2 006172   200006 236100                    LDQ     DCT$,,AUTO
         2 006173   000042 036003                    ADLQ    34,DU
         2 006174   200245 756100                    STQ     IC+2,,AUTO
         2 006175   006372 701000 2                  TSX1    RUNIOQ
         2 006176   000000 011000                    NOP     0

PL6.E3A0      #001=DAD$DCT File=DAD$DCT.:E05TSI                                  TUE 07/29/97 12:42 Page:212
     1269    12636    5                          END;

     1270    12637    4                     END;

     1271    12638    3   NXTDCT1:     END;

  12638  2 006177   200144 054100       NXTDCT1      AOS     I,,AUTO
         2 006200   200144 236100                    LDQ     I,,AUTO
         2 006201   200135 116100                    CMPQ    NDCT,,AUTO
         2 006202   006055 604400 2                  TMOZ    s:12622

     1272    12639    2           END;

  12639  2 006203   006371 710000 2                  TRA     s:12669

     1273    12640    2      ELSE DO;

     1274    12641    3           IF TOP.SUBLK$(0)->OUT.CODE=%DA_IOQ_ALL THEN DO;

  12641  2 006204   000003 471500                    LDP1    3,,PR0
         2 006205   100000 721100                    LXL1    0,,PR1
         2 006206   000003 101003                    CMPX1   3,DU
         2 006207   006320 601000 2                  TNZ     s:12656

     1275    12642    3                CALL DAS$SDMONPTR(%M#NI$IOQ$,IOQ$) ALTRET(ALT);

  12642  2 006210   200115 633500                    EPPR3   IOQ$,,AUTO
         2 006211   200271 453500                    STP3    X+19,,AUTO
         2 006212   000260 236000 3                  LDQ     176
         2 006213   200270 756100                    STQ     X+18,,AUTO
         2 006214   200270 630500                    EPPR0   X+18,,AUTO
         2 006215   000020 631400 xsym               EPPR1   B_VECTNIL+16
         2 006216   000000 701000 xent               TSX1    DAS$SDMONPTR
         2 006217   000464 702000 2                  TSX2    ALT

     1276    12643    3                CALL DAM$MAP(IOQ$,Q$,,,DA_MONISDATA) ALTRET(ALT);

PL6.E3A0      #001=DAD$DCT File=DAD$DCT.:E05TSI                                  TUE 07/29/97 12:42 Page:213
  12643  2 006220   000004 236000 3                  LDQ     4
         2 006221   200274 756100                    STQ     X+22,,AUTO
         2 006222   000001 236000 xsym               LDQ     B_VECTNIL+1
         2 006223   000001 235000 xsym               LDA     B_VECTNIL+1
         2 006224   200272 757100                    STAQ    X+20,,AUTO
         2 006225   200116 630500                    EPPR0   Q$,,AUTO
         2 006226   200271 450500                    STP0    X+19,,AUTO
         2 006227   200115 631500                    EPPR1   IOQ$,,AUTO
         2 006230   200270 451500                    STP1    X+18,,AUTO
         2 006231   200270 630500                    EPPR0   X+18,,AUTO
         2 006232   000023 631400 xsym               EPPR1   B_VECTNIL+19
         2 006233   000000 701000 xent               TSX1    DAM$MAP
         2 006234   000464 702000 2                  TSX2    ALT

     1277    12644    3                CALL DAS$SDMONPTR(%M#NI_NUMIOQ,DCT$$) ALTRET(ALT);

  12644  2 006235   200004 630500                    EPPR0   DCT$$,,AUTO
         2 006236   200271 450500                    STP0    X+19,,AUTO
         2 006237   000262 236000 3                  LDQ     178
         2 006240   200270 756100                    STQ     X+18,,AUTO
         2 006241   200270 630500                    EPPR0   X+18,,AUTO
         2 006242   000020 631400 xsym               EPPR1   B_VECTNIL+16
         2 006243   000000 701000 xent               TSX1    DAS$SDMONPTR
         2 006244   000464 702000 2                  TSX2    ALT

     1278    12645    3                CALL DAM$MAP(DCT$$,DCT$$,,,DA_MONISDATA) ALTRET(ALT);

  12645  2 006245   000004 236000 3                  LDQ     4
         2 006246   200274 756100                    STQ     X+22,,AUTO
         2 006247   000001 236000 xsym               LDQ     B_VECTNIL+1
         2 006250   000001 235000 xsym               LDA     B_VECTNIL+1
         2 006251   200272 757100                    STAQ    X+20,,AUTO
         2 006252   200004 630500                    EPPR0   DCT$$,,AUTO
         2 006253   200271 450500                    STP0    X+19,,AUTO
         2 006254   200004 631500                    EPPR1   DCT$$,,AUTO
         2 006255   200270 451500                    STP1    X+18,,AUTO
         2 006256   200270 630500                    EPPR0   X+18,,AUTO
PL6.E3A0      #001=DAD$DCT File=DAD$DCT.:E05TSI                                  TUE 07/29/97 12:42 Page:214
         2 006257   000023 631400 xsym               EPPR1   B_VECTNIL+19
         2 006260   000000 701000 xent               TSX1    DAM$MAP
         2 006261   000464 702000 2                  TSX2    ALT

     1279    12646    3                NDCT=DCT$$->SBINWORD;

  12646  2 006262   200004 470500                    LDP0    DCT$$,,AUTO
         2 006263   000000 235100                    LDA     0,,PR0
         2 006264   200135 755100                    STA     NDCT,,AUTO

     1280    12647    3                IOQ$=Q$->PTR$;

  12647  2 006265   200116 471500                    LDP1    Q$,,AUTO
         2 006266   100000 236100                    LDQ     0,,PR1
         2 006267   200115 756100                    STQ     IOQ$,,AUTO

     1281    12648    3                CALL DAM$MAP(IOQ$,Q$) ALTRET(ALT);

  12648  2 006270   200116 633500                    EPPR3   Q$,,AUTO
         2 006271   200271 453500                    STP3    X+19,,AUTO
         2 006272   200115 634500                    EPPR4   IOQ$,,AUTO
         2 006273   200270 454500                    STP4    X+18,,AUTO
         2 006274   200270 630500                    EPPR0   X+18,,AUTO
         2 006275   000020 631400 xsym               EPPR1   B_VECTNIL+16
         2 006276   000000 701000 xent               TSX1    DAM$MAP
         2 006277   000464 702000 2                  TSX2    ALT

     1282    12649    4                DO I=1 TO NDCT;

  12649  2 006300   000001 235007                    LDA     1,DL
         2 006301   200144 755100                    STA     I,,AUTO
         2 006302   006314 710000 2                  TRA     s:12653+1

     1283    12650    4                     CALL DIIOQ;

  12650  2 006303   006450 701000 2                  TSX1    DIIOQ
         2 006304   000000 011000                    NOP     0
PL6.E3A0      #001=DAD$DCT File=DAD$DCT.:E05TSI                                  TUE 07/29/97 12:42 Page:215

     1284    12651    4                     Q$=PINCRW(Q$,SIZEW(N$REQ));

  12651  2 006305   200116 236100                    LDQ     Q$,,AUTO
         2 006306   000036 036003                    ADLQ    30,DU
         2 006307   200116 756100                    STQ     Q$,,AUTO

     1285    12652    4                     IOQ$=PINCRW(IOQ$,SIZEW(N$REQ));

  12652  2 006310   200115 236100                    LDQ     IOQ$,,AUTO
         2 006311   000036 036003                    ADLQ    30,DU
         2 006312   200115 756100                    STQ     IOQ$,,AUTO

     1286    12653    4                     END;

  12653  2 006313   200144 054100                    AOS     I,,AUTO
         2 006314   200144 236100                    LDQ     I,,AUTO
         2 006315   200135 116100                    CMPQ    NDCT,,AUTO
         2 006316   006303 604400 2                  TMOZ    s:12650

     1287    12654    3                END;

  12654  2 006317   006371 710000 2                  TRA     s:12669

     1288    12655    3           ELSE DO;

     1289    12656    3                CALL DAA$LOC(TOP.SUBLK$(0)->OUT.SUBLK$(0)->OUT,P$);

  12656  2 006320   100003 473500                    LDP3    3,,PR1
         2 006321   200134 634500                    EPPR4   P$,,AUTO
         2 006322   200271 454500                    STP4    X+19,,AUTO
         2 006323   200270 453500                    STP3    X+18,,AUTO
         2 006324   200270 630500                    EPPR0   X+18,,AUTO
         2 006325   000020 631400 xsym               EPPR1   B_VECTNIL+16
         2 006326   000000 701000 xent               TSX1    DAA$LOC
         2 006327   000000 011000                    NOP     0

PL6.E3A0      #001=DAD$DCT File=DAD$DCT.:E05TSI                                  TUE 07/29/97 12:42 Page:216
     1290    12657    4                IF TOP.SUBLK$(0)->OUT.CODE=%DA_IOQ_INDIRECT THEN DO;

  12657  2 006330   200003 470500                    LDP0    @TOP,,AUTO
         2 006331   000003 471500                    LDP1    3,,PR0
         2 006332   100000 720100                    LXL0    0,,PR1
         2 006333   000002 100003                    CMPX0   2,DU
         2 006334   006355 601000 2                  TNZ     s:12663

     1291    12658    4                     CALL DAM$MAP(P$,P$) ALTRET(ALT);

  12658  2 006335   200134 633500                    EPPR3   P$,,AUTO
         2 006336   200271 453500                    STP3    X+19,,AUTO
         2 006337   200134 631500                    EPPR1   P$,,AUTO
         2 006340   200270 451500                    STP1    X+18,,AUTO
         2 006341   200270 630500                    EPPR0   X+18,,AUTO
         2 006342   000020 631400 xsym               EPPR1   B_VECTNIL+16
         2 006343   000000 701000 xent               TSX1    DAM$MAP
         2 006344   000464 702000 2                  TSX2    ALT

     1292    12659    4                     P$=P$->PTR$;

  12659  2 006345   200134 470500                    LDP0    P$,,AUTO
         2 006346   000000 236100                    LDQ     0,,PR0
         2 006347   200134 756100                    STQ     P$,,AUTO

     1293    12660    4                     CALL RUNIOQ(P$);

  12660  2 006350   200134 630500                    EPPR0   P$,,AUTO
         2 006351   200245 450500                    STP0    IC+2,,AUTO
         2 006352   006372 701000 2                  TSX1    RUNIOQ
         2 006353   000000 011000                    NOP     0

     1294    12661    4                     END;

  12661  2 006354   006371 710000 2                  TRA     s:12669

     1295    12662    4                ELSE DO;
PL6.E3A0      #001=DAD$DCT File=DAD$DCT.:E05TSI                                  TUE 07/29/97 12:42 Page:217

     1296    12663    4                     IOQ$=P$;

  12663  2 006355   200134 236100                    LDQ     P$,,AUTO
         2 006356   200115 756100                    STQ     IOQ$,,AUTO

     1297    12664    4                     CALL DAM$MAP(IOQ$,Q$) ALTRET(ALT);

  12664  2 006357   200116 631500                    EPPR1   Q$,,AUTO
         2 006360   200271 451500                    STP1    X+19,,AUTO
         2 006361   200115 633500                    EPPR3   IOQ$,,AUTO
         2 006362   200270 453500                    STP3    X+18,,AUTO
         2 006363   200270 630500                    EPPR0   X+18,,AUTO
         2 006364   000020 631400 xsym               EPPR1   B_VECTNIL+16
         2 006365   000000 701000 xent               TSX1    DAM$MAP
         2 006366   000464 702000 2                  TSX2    ALT

     1298    12665    4                     CALL DIIOQ;

  12665  2 006367   006450 701000 2                  TSX1    DIIOQ
         2 006370   000000 011000                    NOP     0

     1299    12666    4                     END;

     1300    12667    3                END;

     1301    12668    2           END;

     1302    12669    1      RETURN;

  12669  2 006371   000000 702200 xent               TSX2  ! X66_ARET

     1303    12670        %EJECT;
PL6.E3A0      #001=DAD$DCT File=DAD$DCT.:E05TSI                                  TUE 07/29/97 12:42 Page:218
     1304    12671    1   RUNIOQ: PROC(QQ$);

  12671  2 006372   200244 741300       RUNIOQ       STX1  ! IC+1,,AUTO

     1305    12672    2   DCL QQ$ PTR;
     1306    12673    2   DCL X SBIN;
     1307    12674        /**/
     1308    12675    2      CALL DAM$MAP(QQ$,IOQ$) ALTRET(ALT);

  12675  2 006373   200115 630500                    EPPR0   IOQ$,,AUTO
         2 006374   200271 450500                    STP0    X+19,,AUTO
         2 006375   200245 236100                    LDQ     @QQ$,,AUTO
         2 006376   200270 756100                    STQ     X+18,,AUTO
         2 006377   200270 630500                    EPPR0   X+18,,AUTO
         2 006400   000020 631400 xsym               EPPR1   B_VECTNIL+16
         2 006401   000000 701000 xent               TSX1    DAM$MAP
         2 006402   006446 702000 2                  TSX2    ALT

     1309    12676    2      IOQ$=IOQ$->PTR$;

  12676  2 006403   200115 470500                    LDP0    IOQ$,,AUTO
         2 006404   000000 236100                    LDQ     0,,PR0
         2 006405   200115 756100                    STQ     IOQ$,,AUTO

     1310    12677    2      X=0;

  12677  2 006406   200246 450100                    STZ     X,,AUTO

     1311    12678    3      DO WHILE(X<1000);

  12678  2 006407   200246 235100                    LDA     X,,AUTO
         2 006410   001750 115007                    CMPA    1000,DL
         2 006411   006446 605000 2                  TPL     ALT

     1312    12679    3           IF IOQ$=ADDR(NIL) THEN RETURN;

  12679  2 006412   200115 236100                    LDQ     IOQ$,,AUTO
PL6.E3A0      #001=DAD$DCT File=DAD$DCT.:E05TSI                                  TUE 07/29/97 12:42 Page:219
         2 006413   000001 116000 xsym               CMPQ    B_VECTNIL+1
         2 006414   006417 601000 2                  TNZ     s:12680

  12679  2 006415   200244 221300                    LDX1  ! IC+1,,AUTO
         2 006416   000001 702211                    TSX2  ! 1,X1

     1313    12680    3           CALL DAM$MAP(IOQ$,Q$) ALTRET(ALT);

  12680  2 006417   200116 630500                    EPPR0   Q$,,AUTO
         2 006420   200271 450500                    STP0    X+19,,AUTO
         2 006421   200115 631500                    EPPR1   IOQ$,,AUTO
         2 006422   200270 451500                    STP1    X+18,,AUTO
         2 006423   200270 630500                    EPPR0   X+18,,AUTO
         2 006424   000020 631400 xsym               EPPR1   B_VECTNIL+16
         2 006425   000000 701000 xent               TSX1    DAM$MAP
         2 006426   006446 702000 2                  TSX2    ALT

     1314    12681    3           CALL DIIOQ;

  12681  2 006427   006450 701000 2                  TSX1    DIIOQ
         2 006430   000000 011000                    NOP     0

     1315    12682    3           IF IOQ$=QQ$ THEN RETURN;

  12682  2 006431   200245 470500                    LDP0    @QQ$,,AUTO
         2 006432   200115 236100                    LDQ     IOQ$,,AUTO
         2 006433   000000 116100                    CMPQ    0,,PR0
         2 006434   006437 601000 2                  TNZ     s:12683

  12682  2 006435   200244 221300                    LDX1  ! IC+1,,AUTO
         2 006436   000001 702211                    TSX2  ! 1,X1

     1316    12683    3           IOQ$=Q$->PTR$;

  12683  2 006437   200116 471500                    LDP1    Q$,,AUTO
         2 006440   100000 236100                    LDQ     0,,PR1
         2 006441   200115 756100                    STQ     IOQ$,,AUTO
PL6.E3A0      #001=DAD$DCT File=DAD$DCT.:E05TSI                                  TUE 07/29/97 12:42 Page:220

     1317    12684    3           X=X+1;

  12684  2 006442   200246 054100                    AOS     X,,AUTO

     1318    12685    3           END;

  12685  2 006443   200246 235100                    LDA     X,,AUTO
         2 006444   001750 115007                    CMPA    1000,DL
         2 006445   006412 604000 2                  TMI     s:12679

     1319    12686    2   ALT: RETURN;

  12686  2 006446   200244 221300       ALT          LDX1  ! IC+1,,AUTO
         2 006447   000001 702211                    TSX2  ! 1,X1

     1320    12687    2   END RUNIOQ;
     1321    12688        %EJECT;
PL6.E3A0      #001=DAD$DCT File=DAD$DCT.:E05TSI                                  TUE 07/29/97 12:42 Page:221
     1322    12689    1   DIIOQ: PROC;

  12689  2 006450   200250 741300       DIIOQ        STX1  ! X+2,,AUTO

     1323    12690    2      DCTX=Q$->N$REQ.DLA.DCTX;

  12690  2 006451   200116 470500                    LDP0    Q$,,AUTO
         2 006452   000001 236100                    LDQ     1,,PR0
         2 006453   000025 772000                    QRL     21
         2 006454   200160 756100                    STQ     DCTX,,AUTO

     1324    12691    2      IOF=BITBIN(Q$->N$REQ.IOFLG);

  12691  2 006455   000004 236100                    LDQ     4,,PR0
         2 006456   000011 772000                    QRL     9
         2 006457   000077 376007                    ANQ     63,DL
         2 006460   200117 756100                    STQ     IOF,,AUTO

     1325    12692    2      OPF=BITBIN(Q$->N$REQ.OPFLG);

  12692  2 006461   000004 236100                    LDQ     4,,PR0
         2 006462   000777 376007                    ANQ     511,DL
         2 006463   200120 756100                    STQ     OPF,,AUTO

     1326    12693    2      FC=Q$->N$REQ.FC;

  12693  2 006464   000003 236100                    LDQ     3,,PR0
         2 006465   000777 376007                    ANQ     511,DL
         2 006466   200121 756100                    STQ     FC,,AUTO

     1327    12694    2      IOS$=Q$->N$REQ.IOS$;

  12694  2 006467   000012 236100                    LDQ     10,,PR0
         2 006470   200122 756100                    STQ     IOS$,,AUTO

     1328    12695    2      TDUSER=Q$->N$REQ.USER#;

PL6.E3A0      #001=DAD$DCT File=DAD$DCT.:E05TSI                                  TUE 07/29/97 12:42 Page:222
  12695  2 006471   000027 236100                    LDQ     23,,PR0
         2 006472   000777 376007                    ANQ     511,DL
         2 006473   200176 756100                    STQ     TDUSER,,AUTO

     1329    12696    2      BDM_CHAR = '   ';

  12696  2 006474   000655 236000 0                  LDQ     MIR_STATE+13
         2 006475   200216 552170                    STBQ    BDM_CHAR,'70'O,AUTO

     1330    12697    2      IF Q$->N$REQ.BPMIR THEN BDM_CHAR= '|  ';

  12697  2 006476   000034 236100                    LDQ     28,,PR0
         2 006477   200000 316003                    CANQ    65536,DU
         2 006500   006503 600000 2                  TZE     s:12698

  12697  2 006501   000715 236000 0                  LDQ     MIR_STATE+45
         2 006502   200216 552170                    STBQ    BDM_CHAR,'70'O,AUTO

     1331    12698    2      IF Q$->N$REQ.DOMIR THEN BDM_CHAR_R(1) = '|';

  12698  2 006503   000034 234100                    SZN     28,,PR0
         2 006504   006507 605000 2                  TPL     s:12699

  12698  2 006505   000174 236003                    LDQ     124,DU
         2 006506   200216 552120                    STBQ    BDM_CHAR,'20'O,AUTO

     1332    12699    2      IF Q$->N$REQ.MIRDONE THEN BDM_CHAR_R(2) = '|';

  12699  2 006507   000034 236100                    LDQ     28,,PR0
         2 006510   100000 316003                    CANQ    32768,DU
         2 006511   006514 600000 2                  TZE     s:12700

  12699  2 006512   174000 236007                    LDQ     63488,DL
         2 006513   200216 552110                    STBQ    BDM_CHAR,'10'O,AUTO

     1333    12700    2      SQ = ADDR(Q$->N$REQ.FL$)->P.WA;

PL6.E3A0      #001=DAD$DCT File=DAD$DCT.:E05TSI                                  TUE 07/29/97 12:42 Page:223
  12700  2 006514   000000 236100                    LDQ     0,,PR0
         2 006515   000022 772000                    QRL     18
         2 006516   200164 756100                    STQ     SQ,,AUTO

     1334    12701    3      IF Q$->N$REQ.OPFLG.EA THEN DO;

  12701  2 006517   000004 236100                    LDQ     4,,PR0
         2 006520   000040 316007                    CANQ    32,DL
         2 006521   006543 600000 2                  TZE     NOEA

     1335    12702    3           IC=ADDR(Q$->N$REQ.EAENTRY)->UBINHALF;

  12702  2 006522   000023 236100                    LDQ     19,,PR0
         2 006523   000022 772000                    QRL     18
         2 006524   200243 756100                    STQ     IC,,AUTO

     1336    12703    3           CALL DAS$IC2ED(IC,EDEF$) ALTRET(NOEA);

  12703  2 006525   200241 631500                    EPPR1   EDEF$,,AUTO
         2 006526   200271 451500                    STP1    X+19,,AUTO
         2 006527   200243 633500                    EPPR3   IC,,AUTO
         2 006530   200270 453500                    STP3    X+18,,AUTO
         2 006531   200270 630500                    EPPR0   X+18,,AUTO
         2 006532   000020 631400 xsym               EPPR1   B_VECTNIL+16
         2 006533   000000 701000 xent               TSX1    DAS$IC2ED
         2 006534   006543 702000 2                  TSX2    NOEA

     1337    12704    3           TH$=PINCRW(DA_DNAME$,B$EDEF.NPOINTER);

  12704  2 006535   200241 470500                    LDP0    EDEF$,,AUTO
         2 006536   000001 220100                    LDX0    1,,PR0
         2 006537   000000 636010                    EAQ     0,X0
         2 006540   000000 036000 xsym               ADLQ    DA_DNAME$
         2 006541   200242 756100                    STQ     TH$,,AUTO

     1338    12705    3           END;

PL6.E3A0      #001=DAD$DCT File=DAD$DCT.:E05TSI                                  TUE 07/29/97 12:42 Page:224
  12705  2 006542   006545 710000 2                  TRA     s:12718

     1339    12706    3      ELSE DO;

     1340    12707    3   NOEA:   TH$=ADDR(BLANKNAME);

  12707  2 006543   000263 236000 3     NOEA         LDQ     179
         2 006544   200242 756100                    STQ     TH$,,AUTO

     1341    12708    3           END;

     1342    12709    2      CALL DAF$WRITE(VECTOR(IOQFMT),
     1343    12710    2        VECTOR(IOQ$),
     1344    12711    2        VECTOR(SQ),
     1345    12712    2        VECTOR(DCTX),
     1346    12713    2        VECTOR(FC),
     1347    12714    2        VECTOR(IOF),
     1348    12715    2        VECTOR(OPF),
     1349    12716    2        VECTOR(TDUSER),
     1350    12717    2        VECTOR(BDM_CHAR),
     1351    12718    2        VECTOR(IOS$),

  12718  2 006545   777640 235007                    LDA     -96,DL
         2 006546   200270 452500                    STP2    X+18,,AUTO
         2 006547   200270 236100                    LDQ     X+18,,AUTO
         2 006550   000115 036003                    ADLQ    77,DU
         2 006551   200272 757100                    STAQ    X+20,,AUTO
         2 006552   777640 235007                    LDA     -96,DL
         2 006553   200274 452500                    STP2    X+22,,AUTO
         2 006554   200274 236100                    LDQ     X+22,,AUTO
         2 006555   000164 036003                    ADLQ    116,DU
         2 006556   200276 757100                    STAQ    X+24,,AUTO
         2 006557   777640 235007                    LDA     -96,DL
         2 006560   200300 452500                    STP2    X+26,,AUTO
         2 006561   200300 236100                    LDQ     X+26,,AUTO
         2 006562   000160 036003                    ADLQ    112,DU
         2 006563   200302 757100                    STAQ    X+28,,AUTO
PL6.E3A0      #001=DAD$DCT File=DAD$DCT.:E05TSI                                  TUE 07/29/97 12:42 Page:225
         2 006564   777640 235007                    LDA     -96,DL
         2 006565   200304 452500                    STP2    X+30,,AUTO
         2 006566   200304 236100                    LDQ     X+30,,AUTO
         2 006567   000121 036003                    ADLQ    81,DU
         2 006570   200306 757100                    STAQ    X+32,,AUTO
         2 006571   777640 235007                    LDA     -96,DL
         2 006572   200310 452500                    STP2    X+34,,AUTO
         2 006573   200310 236100                    LDQ     X+34,,AUTO
         2 006574   000117 036003                    ADLQ    79,DU
         2 006575   200312 757100                    STAQ    X+36,,AUTO
         2 006576   777640 235007                    LDA     -96,DL
         2 006577   200314 452500                    STP2    X+38,,AUTO
         2 006600   200314 236100                    LDQ     X+38,,AUTO
         2 006601   000120 036003                    ADLQ    80,DU
         2 006602   200316 757100                    STAQ    X+40,,AUTO
         2 006603   777640 235007                    LDA     -96,DL
         2 006604   200320 452500                    STP2    X+42,,AUTO
         2 006605   200320 236100                    LDQ     X+42,,AUTO
         2 006606   000176 036003                    ADLQ    126,DU
         2 006607   200322 757100                    STAQ    X+44,,AUTO
         2 006610   577640 235007                    LDA     -65632,DL
         2 006611   200324 452500                    STP2    X+46,,AUTO
         2 006612   200324 236100                    LDQ     X+46,,AUTO
         2 006613   000216 036003                    ADLQ    142,DU
         2 006614   200326 757100                    STAQ    X+48,,AUTO
         2 006615   777640 235007                    LDA     -96,DL
         2 006616   200330 452500                    STP2    X+50,,AUTO
         2 006617   200330 236100                    LDQ     X+50,,AUTO
         2 006620   000122 036003                    ADLQ    82,DU
         2 006621   200332 757100                    STAQ    X+52,,AUTO
         2 006622   000013 235000 3                  LDA     11
         2 006623   200116 236100                    LDQ     Q$,,AUTO
         2 006624   000014 036003                    ADLQ    12,DU
         2 006625   200242 470500                    LDP0    TH$,,AUTO
         2 006626   000100 100500                    MLR     fill='000'O
         2 006627   000000 000002                    ADSC9   0,,PR0                   cn=0,n=2
         2 006630   200334 000004                    ADSC9   X+54,,AUTO               cn=0,n=4
PL6.E3A0      #001=DAD$DCT File=DAD$DCT.:E05TSI                                  TUE 07/29/97 12:42 Page:226
         2 006631   200334 220100                    LDX0    X+54,,AUTO
         2 006632   200336 757100                    STAQ    X+56,,AUTO
         2 006633   000000 635010                    EAA     0,X0
         2 006634   000002 771000                    ARL     2
         2 006635   000140 135007                    SBLA    96,DL
         2 006636   200242 236100                    LDQ     TH$,,AUTO
         2 006637   400000 036007                    ADLQ    -131072,DL
         2 006640   200340 757100                    STAQ    X+58,,AUTO
         2 006641   777640 235007                    LDA     -96,DL
         2 006642   200116 236100                    LDQ     Q$,,AUTO
         2 006643   000022 036003                    ADLQ    18,DU
         2 006644   200342 757100                    STAQ    X+60,,AUTO
         2 006645   777640 235007                    LDA     -96,DL
         2 006646   200116 236100                    LDQ     Q$,,AUTO
         2 006647   000005 036003                    ADLQ    5,DU
         2 006650   200346 757100                    STAQ    X+64,,AUTO
         2 006651   200272 237100                    LDAQ    X+20,,AUTO
         2 006652   200344 757100                    STAQ    X+62,,AUTO
         2 006653   200276 237100                    LDAQ    X+24,,AUTO
         2 006654   200350 757100                    STAQ    X+66,,AUTO
         2 006655   200302 237100                    LDAQ    X+28,,AUTO
         2 006656   200352 757100                    STAQ    X+68,,AUTO
         2 006657   200306 237100                    LDAQ    X+32,,AUTO
         2 006660   200354 757100                    STAQ    X+70,,AUTO
         2 006661   200312 237100                    LDAQ    X+36,,AUTO
         2 006662   200356 757100                    STAQ    X+72,,AUTO
         2 006663   200316 237100                    LDAQ    X+40,,AUTO
         2 006664   200360 757100                    STAQ    X+74,,AUTO
         2 006665   200322 237100                    LDAQ    X+44,,AUTO
         2 006666   200362 757100                    STAQ    X+76,,AUTO
         2 006667   200326 237100                    LDAQ    X+48,,AUTO
         2 006670   200364 757100                    STAQ    X+78,,AUTO
         2 006671   200332 237100                    LDAQ    X+52,,AUTO
         2 006672   200366 757100                    STAQ    X+80,,AUTO
         2 006673   200336 237100                    LDAQ    X+56,,AUTO
         2 006674   200370 757100                    STAQ    X+82,,AUTO
         2 006675   200340 237100                    LDAQ    X+58,,AUTO
PL6.E3A0      #001=DAD$DCT File=DAD$DCT.:E05TSI                                  TUE 07/29/97 12:42 Page:227
         2 006676   200372 757100                    STAQ    X+84,,AUTO
         2 006677   200342 237100                    LDAQ    X+60,,AUTO
         2 006700   200374 757100                    STAQ    X+86,,AUTO
         2 006701   200346 237100                    LDAQ    X+64,,AUTO
         2 006702   200376 757100                    STAQ    X+88,,AUTO
         2 006703   200376 631500                    EPPR1   X+88,,AUTO
         2 006704   200415 451500                    STP1    X+103,,AUTO
         2 006705   200374 633500                    EPPR3   X+86,,AUTO
         2 006706   200414 453500                    STP3    X+102,,AUTO
         2 006707   200372 634500                    EPPR4   X+84,,AUTO
         2 006710   200413 454500                    STP4    X+101,,AUTO
         2 006711   200370 635500                    EPPR5   X+82,,AUTO
         2 006712   200412 455500                    STP5    X+100,,AUTO
         2 006713   200366 636500                    EPPR6   X+80,,AUTO
         2 006714   200411 456500                    STP6    X+99,,AUTO
         2 006715   200364 637500                    EPPR7   X+78,,AUTO
         2 006716   200410 457500                    STP7    X+98,,AUTO
         2 006717   200362 630500                    EPPR0   X+76,,AUTO
         2 006720   200407 450500                    STP0    X+97,,AUTO
         2 006721   200360 630500                    EPPR0   X+74,,AUTO
         2 006722   200406 450500                    STP0    X+96,,AUTO
         2 006723   200356 630500                    EPPR0   X+72,,AUTO
         2 006724   200405 450500                    STP0    X+95,,AUTO
         2 006725   200354 630500                    EPPR0   X+70,,AUTO
         2 006726   200404 450500                    STP0    X+94,,AUTO
         2 006727   200352 630500                    EPPR0   X+68,,AUTO
         2 006730   200403 450500                    STP0    X+93,,AUTO
         2 006731   200350 630500                    EPPR0   X+66,,AUTO
         2 006732   200402 450500                    STP0    X+92,,AUTO
         2 006733   200344 630500                    EPPR0   X+62,,AUTO
         2 006734   200401 450500                    STP0    X+91,,AUTO
         2 006735   000267 236000 3                  LDQ     183
         2 006736   200400 756100                    STQ     X+90,,AUTO
         2 006737   200400 630500                    EPPR0   X+90,,AUTO
         2 006740   000000 221000 xsym               LDX1    DAF$WRITE
         2 006741   000266 631400 3                  EPPR1   182
         2 006742   000000 701011                    TSX1    0,X1
PL6.E3A0      #001=DAD$DCT File=DAD$DCT.:E05TSI                                  TUE 07/29/97 12:42 Page:228
         2 006743   000000 011000                    NOP     0

     1352    12719    2        VECTOR(Q$->N$REQ.STATUS),
     1353    12720    2        VECTOR(TH.C),
     1354    12721    2        VECTOR(Q$->N$REQ.DCB$),
     1355    12722    2        VECTOR(Q$->N$REQ.BUF$));
     1356    12723    2      RETURN;

  12723  2 006744   200250 221300                    LDX1  ! X+2,,AUTO
         2 006745   000001 702211                    TSX2  ! 1,X1

     1357    12724    2   END DIIOQ;
     1358    12725        %EJECT;
PL6.E3A0      #001=DAD$DCT File=DAD$DCT.:E05TSI                                  TUE 07/29/97 12:42 Page:229
     1359    12726    1   DAD$CPUS: ENTRY;

  12726  2 006746   000000 700200 xent  DAD$CPUS     TSX0  ! X66_AUTO_1
         2 006747   000416 000001                    ZERO    270,1

     1360    12727    1      CALL DAS$SDMONPTR(%M#S_MPSTATE,MPSTATE$) ALTRET(CPUS_ALT);

  12727  2 006750   200123 630500                    EPPR0   MPSTATE$,,AUTO
         2 006751   200271 450500                    STP0    X+19,,AUTO
         2 006752   000271 236000 3                  LDQ     185
         2 006753   200270 756100                    STQ     X+18,,AUTO
         2 006754   200270 630500                    EPPR0   X+18,,AUTO
         2 006755   000020 631400 xsym               EPPR1   B_VECTNIL+16
         2 006756   000000 701000 xent               TSX1    DAS$SDMONPTR
         2 006757   007250 702000 2                  TSX2    CPUS_ALT

     1361    12728    1      CALL DAS$SDMONPTR(%M#S_PORTNR,PORTNR$) ALTRET(CPUS_ALT);

  12728  2 006760   200124 630500                    EPPR0   PORTNR$,,AUTO
         2 006761   200271 450500                    STP0    X+19,,AUTO
         2 006762   000273 236000 3                  LDQ     187
         2 006763   200270 756100                    STQ     X+18,,AUTO
         2 006764   200270 630500                    EPPR0   X+18,,AUTO
         2 006765   000020 631400 xsym               EPPR1   B_VECTNIL+16
         2 006766   000000 701000 xent               TSX1    DAS$SDMONPTR
         2 006767   007250 702000 2                  TSX2    CPUS_ALT

     1362    12729    1      CALL DAS$SDMONPTR(%M#S_PCU,PCU$) ALTRET(CPUS_ALT);

  12729  2 006770   200126 630500                    EPPR0   PCU$,,AUTO
         2 006771   200271 450500                    STP0    X+19,,AUTO
         2 006772   000275 236000 3                  LDQ     189
         2 006773   200270 756100                    STQ     X+18,,AUTO
         2 006774   200270 630500                    EPPR0   X+18,,AUTO
         2 006775   000020 631400 xsym               EPPR1   B_VECTNIL+16
         2 006776   000000 701000 xent               TSX1    DAS$SDMONPTR
         2 006777   007250 702000 2                  TSX2    CPUS_ALT
PL6.E3A0      #001=DAD$DCT File=DAD$DCT.:E05TSI                                  TUE 07/29/97 12:42 Page:230

     1363    12730    1      CALL DAS$SDMONPTR(%M#S_NSCPU,NSCPU$) ALTRET(CPUS_ALT);

  12730  2 007000   200125 630500                    EPPR0   NSCPU$,,AUTO
         2 007001   200271 450500                    STP0    X+19,,AUTO
         2 007002   000277 236000 3                  LDQ     191
         2 007003   200270 756100                    STQ     X+18,,AUTO
         2 007004   200270 630500                    EPPR0   X+18,,AUTO
         2 007005   000020 631400 xsym               EPPR1   B_VECTNIL+16
         2 007006   000000 701000 xent               TSX1    DAS$SDMONPTR
         2 007007   007250 702000 2                  TSX2    CPUS_ALT

     1364    12731    1      CALL DAM$MAP(MPSTATE$,MPSTATE$,,,DA_MONISDATA) ALTRET(CPUS_ALT);

  12731  2 007010   000004 236000 3                  LDQ     4
         2 007011   200274 756100                    STQ     X+22,,AUTO
         2 007012   000001 236000 xsym               LDQ     B_VECTNIL+1
         2 007013   000001 235000 xsym               LDA     B_VECTNIL+1
         2 007014   200272 757100                    STAQ    X+20,,AUTO
         2 007015   200123 630500                    EPPR0   MPSTATE$,,AUTO
         2 007016   200271 450500                    STP0    X+19,,AUTO
         2 007017   200123 631500                    EPPR1   MPSTATE$,,AUTO
         2 007020   200270 451500                    STP1    X+18,,AUTO
         2 007021   200270 630500                    EPPR0   X+18,,AUTO
         2 007022   000023 631400 xsym               EPPR1   B_VECTNIL+19
         2 007023   000000 701000 xent               TSX1    DAM$MAP
         2 007024   007250 702000 2                  TSX2    CPUS_ALT

     1365    12732    1      CALL DAM$MAP(PORTNR$,PORTNR$,,,DA_MONISDATA) ALTRET(CPUS_ALT);

  12732  2 007025   000004 236000 3                  LDQ     4
         2 007026   200274 756100                    STQ     X+22,,AUTO
         2 007027   000001 236000 xsym               LDQ     B_VECTNIL+1
         2 007030   000001 235000 xsym               LDA     B_VECTNIL+1
         2 007031   200272 757100                    STAQ    X+20,,AUTO
         2 007032   200124 630500                    EPPR0   PORTNR$,,AUTO
         2 007033   200271 450500                    STP0    X+19,,AUTO
PL6.E3A0      #001=DAD$DCT File=DAD$DCT.:E05TSI                                  TUE 07/29/97 12:42 Page:231
         2 007034   200124 631500                    EPPR1   PORTNR$,,AUTO
         2 007035   200270 451500                    STP1    X+18,,AUTO
         2 007036   200270 630500                    EPPR0   X+18,,AUTO
         2 007037   000023 631400 xsym               EPPR1   B_VECTNIL+19
         2 007040   000000 701000 xent               TSX1    DAM$MAP
         2 007041   007250 702000 2                  TSX2    CPUS_ALT

     1366    12733    1      CALL DAM$MAP(PCU$,PCU$,,,DA_MONISDATA) ALTRET(CPUS_ALT);

  12733  2 007042   000004 236000 3                  LDQ     4
         2 007043   200274 756100                    STQ     X+22,,AUTO
         2 007044   000001 236000 xsym               LDQ     B_VECTNIL+1
         2 007045   000001 235000 xsym               LDA     B_VECTNIL+1
         2 007046   200272 757100                    STAQ    X+20,,AUTO
         2 007047   200126 630500                    EPPR0   PCU$,,AUTO
         2 007050   200271 450500                    STP0    X+19,,AUTO
         2 007051   200126 631500                    EPPR1   PCU$,,AUTO
         2 007052   200270 451500                    STP1    X+18,,AUTO
         2 007053   200270 630500                    EPPR0   X+18,,AUTO
         2 007054   000023 631400 xsym               EPPR1   B_VECTNIL+19
         2 007055   000000 701000 xent               TSX1    DAM$MAP
         2 007056   007250 702000 2                  TSX2    CPUS_ALT

     1367    12734    1      CALL DAM$MAP(NSCPU$,NSCPU$,,,DA_MONISDATA) ALTRET(CPUS_ALT);

  12734  2 007057   000004 236000 3                  LDQ     4
         2 007060   200274 756100                    STQ     X+22,,AUTO
         2 007061   000001 236000 xsym               LDQ     B_VECTNIL+1
         2 007062   000001 235000 xsym               LDA     B_VECTNIL+1
         2 007063   200272 757100                    STAQ    X+20,,AUTO
         2 007064   200125 630500                    EPPR0   NSCPU$,,AUTO
         2 007065   200271 450500                    STP0    X+19,,AUTO
         2 007066   200125 631500                    EPPR1   NSCPU$,,AUTO
         2 007067   200270 451500                    STP1    X+18,,AUTO
         2 007070   200270 630500                    EPPR0   X+18,,AUTO
         2 007071   000023 631400 xsym               EPPR1   B_VECTNIL+19
         2 007072   000000 701000 xent               TSX1    DAM$MAP
PL6.E3A0      #001=DAD$DCT File=DAD$DCT.:E05TSI                                  TUE 07/29/97 12:42 Page:232
         2 007073   007250 702000 2                  TSX2    CPUS_ALT

     1368    12735    1      CALL DAF$INIT(CPUSRPT);

  12735  2 007074   000300 630400 3                  EPPR0   192
         2 007075   000017 631400 xsym               EPPR1   B_VECTNIL+15
         2 007076   000000 701000 xent               TSX1    DAF$INIT
         2 007077   000000 011000                    NOP     0

     1369    12736    2      DO I=0 TO NSCPU$ -> SBINWORD;

  12736  2 007100   200144 450100                    STZ     I,,AUTO
         2 007101   007244 710000 2                  TRA     s:12753+1

     1370    12737    2           IF MPSTATE$->UARAY(I)<=3 THEN MPS=MPSTATE(MPSTATE$->UARAY(I));

  12737  2 007102   200123 470500                    LDP0    MPSTATE$,,AUTO
         2 007103   200144 720100                    LXL0    I,,AUTO
         2 007104   000000 235110                    LDA     0,X0,PR0
         2 007105   000004 115007                    CMPA    4,DL
         2 007106   007116 603000 2                  TRC     s:12738

  12737  2 007107   000000 236110                    LDQ     0,X0,PR0
         2 007110   000005 402007                    MPY     5,DL
         2 007111   000002 736000                    QLS     2
         2 007112   040100 100406                    MLR     fill='040'O
         2 007113   000614 000024 0                  ADSC9   MPSTATE,Q                cn=0,n=20
         2 007114   200127 000024                    ADSC9   MPS,,AUTO                cn=0,n=20
         2 007115   007121 710000 2                  TRA     s:12739

     1371    12738    2           ELSE MPS='CONFUSED';

  12738  2 007116   040100 100400                    MLR     fill='040'O
         2 007117   000716 000010 0                  ADSC9   MIR_STATE+46             cn=0,n=8
         2 007120   200127 000024                    ADSC9   MPS,,AUTO                cn=0,n=20

     1372    12739    2           J=PCU$->UARAY(I);
PL6.E3A0      #001=DAD$DCT File=DAD$DCT.:E05TSI                                  TUE 07/29/97 12:42 Page:233

  12739  2 007121   200126 471500                    LDP1    PCU$,,AUTO
         2 007122   100000 235110                    LDA     0,X0,PR1
         2 007123   200145 755100                    STA     J,,AUTO

     1373    12740    3           IF J=0 THEN DO;

  12740  2 007124   007170 601000 2                  TNZ     s:12747

     1374    12741    3                CALL DAF$WRITE(VECTOR(CPUFMTNU),

  12741  2 007125   777640 235007                    LDA     -96,DL
         2 007126   200144 236100                    LDQ     I,,AUTO
         2 007127   000022 736000                    QLS     18
         2 007130   200124 036100                    ADLQ    PORTNR$,,AUTO
         2 007131   200270 757100                    STAQ    X+18,,AUTO
         2 007132   777640 235007                    LDA     -96,DL
         2 007133   200272 452500                    STP2    X+20,,AUTO
         2 007134   200272 236100                    LDQ     X+20,,AUTO
         2 007135   000144 036003                    ADLQ    100,DU
         2 007136   200274 757100                    STAQ    X+22,,AUTO
         2 007137   000304 235000 3                  LDA     196
         2 007140   200276 452500                    STP2    X+24,,AUTO
         2 007141   200276 236100                    LDQ     X+24,,AUTO
         2 007142   000127 036003                    ADLQ    87,DU
         2 007143   200302 757100                    STAQ    X+28,,AUTO
         2 007144   200270 237100                    LDAQ    X+18,,AUTO
         2 007145   200300 757100                    STAQ    X+26,,AUTO
         2 007146   200274 237100                    LDAQ    X+22,,AUTO
         2 007147   200304 757100                    STAQ    X+30,,AUTO
         2 007150   200302 237100                    LDAQ    X+28,,AUTO
         2 007151   200306 757100                    STAQ    X+32,,AUTO
         2 007152   200306 633500                    EPPR3   X+32,,AUTO
         2 007153   200313 453500                    STP3    X+37,,AUTO
         2 007154   200304 634500                    EPPR4   X+30,,AUTO
         2 007155   200312 454500                    STP4    X+36,,AUTO
         2 007156   200300 635500                    EPPR5   X+26,,AUTO
PL6.E3A0      #001=DAD$DCT File=DAD$DCT.:E05TSI                                  TUE 07/29/97 12:42 Page:234
         2 007157   200311 455500                    STP5    X+35,,AUTO
         2 007160   000305 236000 3                  LDQ     197
         2 007161   200310 756100                    STQ     X+34,,AUTO
         2 007162   200310 630500                    EPPR0   X+34,,AUTO
         2 007163   000000 221000 xsym               LDX1    DAF$WRITE
         2 007164   000022 631400 xsym               EPPR1   B_VECTNIL+18
         2 007165   000000 701011                    TSX1    0,X1
         2 007166   000000 011000                    NOP     0

     1375    12742    3                  VECTOR(PORTNR$->UARAY(I)),
     1376    12743    3                  VECTOR(I),
     1377    12744    3                  VECTOR(MPS));
     1378    12745    3                END;

  12745  2 007167   007243 710000 2                  TRA     s:12753

     1379    12746    3           ELSE DO;

     1380    12747    3                CALL DAF$WRITE(VECTOR(CPUFMT),

  12747  2 007170   777640 235007                    LDA     -96,DL
         2 007171   200144 236100                    LDQ     I,,AUTO
         2 007172   000022 736000                    QLS     18
         2 007173   200124 036100                    ADLQ    PORTNR$,,AUTO
         2 007174   200270 757100                    STAQ    X+18,,AUTO
         2 007175   777640 235007                    LDA     -96,DL
         2 007176   200272 452500                    STP2    X+20,,AUTO
         2 007177   200272 236100                    LDQ     X+20,,AUTO
         2 007200   000144 036003                    ADLQ    100,DU
         2 007201   200274 757100                    STAQ    X+22,,AUTO
         2 007202   000304 235000 3                  LDA     196
         2 007203   200276 452500                    STP2    X+24,,AUTO
         2 007204   200276 236100                    LDQ     X+24,,AUTO
         2 007205   000127 036003                    ADLQ    87,DU
         2 007206   200300 757100                    STAQ    X+26,,AUTO
         2 007207   777640 235007                    LDA     -96,DL
         2 007210   200302 452500                    STP2    X+28,,AUTO
PL6.E3A0      #001=DAD$DCT File=DAD$DCT.:E05TSI                                  TUE 07/29/97 12:42 Page:235
         2 007211   200302 236100                    LDQ     X+28,,AUTO
         2 007212   000145 036003                    ADLQ    101,DU
         2 007213   200306 757100                    STAQ    X+32,,AUTO
         2 007214   200270 237100                    LDAQ    X+18,,AUTO
         2 007215   200304 757100                    STAQ    X+30,,AUTO
         2 007216   200274 237100                    LDAQ    X+22,,AUTO
         2 007217   200310 757100                    STAQ    X+34,,AUTO
         2 007220   200300 237100                    LDAQ    X+26,,AUTO
         2 007221   200312 757100                    STAQ    X+36,,AUTO
         2 007222   200306 237100                    LDAQ    X+32,,AUTO
         2 007223   200314 757100                    STAQ    X+38,,AUTO
         2 007224   200314 633500                    EPPR3   X+38,,AUTO
         2 007225   200322 453500                    STP3    X+44,,AUTO
         2 007226   200312 634500                    EPPR4   X+36,,AUTO
         2 007227   200321 454500                    STP4    X+43,,AUTO
         2 007230   200310 635500                    EPPR5   X+34,,AUTO
         2 007231   200320 455500                    STP5    X+42,,AUTO
         2 007232   200304 636500                    EPPR6   X+30,,AUTO
         2 007233   200317 456500                    STP6    X+41,,AUTO
         2 007234   000310 236000 3                  LDQ     200
         2 007235   200316 756100                    STQ     X+40,,AUTO
         2 007236   200316 630500                    EPPR0   X+40,,AUTO
         2 007237   000000 221000 xsym               LDX1    DAF$WRITE
         2 007240   000023 631400 xsym               EPPR1   B_VECTNIL+19
         2 007241   000000 701011                    TSX1    0,X1
         2 007242   000000 011000                    NOP     0

     1381    12748    3                  VECTOR(PORTNR$->UARAY(I)),
     1382    12749    3                  VECTOR(I),
     1383    12750    3                  VECTOR(MPS),
     1384    12751    3                  VECTOR(J));
     1385    12752    3                END;

     1386    12753    2           END;

  12753  2 007243   200144 054100                    AOS     I,,AUTO
         2 007244   200125 470500                    LDP0    NSCPU$,,AUTO
PL6.E3A0      #001=DAD$DCT File=DAD$DCT.:E05TSI                                  TUE 07/29/97 12:42 Page:236
         2 007245   200144 236100                    LDQ     I,,AUTO
         2 007246   000000 116100                    CMPQ    0,,PR0
         2 007247   007102 604400 2                  TMOZ    s:12737

     1387    12754    1   CPUS_ALT:
     1388    12755    1      RETURN;

  12755  2 007250   000000 702200 xent  CPUS_ALT     TSX2  ! X66_ARET

     1389    12756        %EJECT;
PL6.E3A0      #001=DAD$DCT File=DAD$DCT.:E05TSI                                  TUE 07/29/97 12:42 Page:237
     1390    12757    1   DAD$GATE: ENTRY(TOP);

  12757  2 007251   000000 700200 xent  DAD$GATE     TSX0  ! X66_AUTO_1
         2 007252   000416 000001                    ZERO    270,1

     1391    12758    1      CALL DAA$LOC(TOP.SUBLK$(0)->OUT.SUBLK$(0)->OUT,P$);

  12758  2 007253   200003 470500                    LDP0    @TOP,,AUTO
         2 007254   000003 471500                    LDP1    3,,PR0
         2 007255   100003 473500                    LDP3    3,,PR1
         2 007256   200134 634500                    EPPR4   P$,,AUTO
         2 007257   200271 454500                    STP4    X+19,,AUTO
         2 007260   200270 453500                    STP3    X+18,,AUTO
         2 007261   200270 630500                    EPPR0   X+18,,AUTO
         2 007262   000020 631400 xsym               EPPR1   B_VECTNIL+16
         2 007263   000000 701000 xent               TSX1    DAA$LOC
         2 007264   000000 011000                    NOP     0

     1392    12759    1      GATE$=P$;

  12759  2 007265   200134 236100                    LDQ     P$,,AUTO
         2 007266   200231 756100                    STQ     GATE$,,AUTO

     1393    12760    1      CALL DAM$MAP(GATE$,G$) ALTRET(ALT);

  12760  2 007267   200232 630500                    EPPR0   G$,,AUTO
         2 007270   200271 450500                    STP0    X+19,,AUTO
         2 007271   200231 631500                    EPPR1   GATE$,,AUTO
         2 007272   200270 451500                    STP1    X+18,,AUTO
         2 007273   200270 630500                    EPPR0   X+18,,AUTO
         2 007274   000020 631400 xsym               EPPR1   B_VECTNIL+16
         2 007275   000000 701000 xent               TSX1    DAM$MAP
         2 007276   000464 702000 2                  TSX2    ALT

     1394    12761    1      CALL DAB$GATE(G$->GATE);

  12761  2 007277   200232 630500                    EPPR0   G$,,AUTO
PL6.E3A0      #001=DAD$DCT File=DAD$DCT.:E05TSI                                  TUE 07/29/97 12:42 Page:238
         2 007300   000017 631400 xsym               EPPR1   B_VECTNIL+15
         2 007301   000000 701000 xent               TSX1    DAB$GATE
         2 007302   000000 011000                    NOP     0

     1395    12762    1      CALL DAF$WRITE(VECTOR(GATFMT),VECTOR(DA_GATETXT));

  12762  2 007303   000160 630400 3                  EPPR0   112
         2 007304   000000 220000 xsym               LDX0    DAF$WRITE
         2 007305   000020 631400 xsym               EPPR1   B_VECTNIL+16
         2 007306   000000 701010                    TSX1    0,X0
         2 007307   000000 011000                    NOP     0

     1396    12763    1      RETURN;

  12763  2 007310   000000 702200 xent               TSX2  ! X66_ARET

     1397    12764        %EJECT;
PL6.E3A0      #001=DAD$DCT File=DAD$DCT.:E05TSI                                  TUE 07/29/97 12:42 Page:239
     1398    12765    1   SETERR: PROC(CODE) ALTRET;

  12765  2 007311   200244 741300       SETERR       STX1  ! IC+1,,AUTO

     1399    12766    2   DCL CODE SBIN;
     1400    12767        /**/
     1401    12768    2      DA_ANLZERR='040104000000'O;

  12768  2 007312   000645 236000 0                  LDQ     MIR_STATE+5
         2 007313   000000 756000 xsym               STQ     DA_ANLZERR

     1402    12769    2      DA_ANLZERR.CODE=CODE;

  12769  2 007314   200245 470500                    LDP0    @CODE,,AUTO
         2 007315   000000 236100                    LDQ     0,,PR0
         2 007316   000003 736000                    QLS     3
         2 007317   000000 676000 xsym               ERQ     DA_ANLZERR
         2 007320   377770 376007                    ANQ     131064,DL
         2 007321   000000 656000 xsym               ERSQ    DA_ANLZERR

     1403    12770    2      ALTRETURN;

  12770  2 007322   000000 702211                    TSX2  ! 0,X1
     1404    12771    2   END SETERR;
     1405    12772    1   END DAD$DCT;

PL6.E3A0      #001=DAD$DCT File=DAD$DCT.:E05TSI                                  TUE 07/29/97 12:42 Page:240
--  Include file information  --

   IT_SUBS_C.:E05TOU  is referenced.
   FT_SUBS.:E05TOU  is referenced.
   FT$DDT.:E05TOU  is referenced.
   FR$RAT.:E05TOU  is referenced.
   N$REQ.:E05TOU  is referenced.
   NK$LDCT.:E05TOU  is referenced.
   DA_MONSYM_C.:E05TOU  is referenced.
   NI_DATA_C.:E05TOU  is referenced.
   NI$TABLES.:E05TOU  is referenced.
   DA_CMD_C.:E05TOU  is referenced.
   DA_FORMAT_C.:E05TOU  is referenced.
   DA_PERR_C.:E05TOU  is referenced.
   DA_TEXTC_C.:E05TOU  is referenced.
   DA_SYMBOLS_R.:E05TOU  cannot be made into a system file and is referenced.
   DA_MAP_R.:E05TOU  cannot be made into a system file and is referenced.
   DA_ANLZ_R.:E05TOU  cannot be made into a system file and is referenced.
   CP_6_SUBS.:E05TOU  is referenced.
   B$TABLES_C.:E05TOU  cannot be made into a system file and is referenced.
   B$OBJECT_C.:E05TOU  is referenced.
   XU_MACRO_C.:E05TOU  is referenced.
      No diagnostics issued in procedure DAD$DCT.
PL6.E3A0      #001=DAD$DCT File=DAD$DCT.:E05TSI                                  TUE 07/29/97 12:42 Page:241

 **** Variables and constants ****

  ****  Section 000 RoData DAD$DCT

  ****  Scalars and arrays  ****
OctLoc.c.b A Datatyp(siz) R M Lvl/name                 OctLoc.c.b A Datatyp(siz) R M Lvl/name

     3-0-0/h STRC        r     1 BLANKNAME                576-0-0/c CHAR(54)    r     1 CPUFMT
   562-0-0/c CHAR(45)    r     1 CPUFMTNU                  67-0-0/c CHAR(61)    r     1 DCTFMT
   452-0-0/c CHAR(61)    r     1 DDTFMT                   520-0-0/c CHAR(14)    r     1 DEVBQFMT
   524-0-0/c CHAR(14)    r     1 DEVLQFMT                 514-0-0/c CHAR(14)    r     1 DEVNMFMT
   412-0-0/c CHAR(61)    r     1 DQHFMT                     0-0-0/c CHAR(11)    r     1 GATFMT
   543-0-0/c CHAR(57)    r     1 IOMFMT                   472-0-0/c CHAR(69)    r     1 IOQFMT
    13-0-0/c CHAR(5)     r     1 IOSTATE(0:7)
   124-0-0/c CHAR(62)    r     1 LDCTFMT1                 144-0-0/c CHAR(50)    r     1 LDCTFMT2
   231-0-0/c CHAR(39)    r     1 LDCTFMT3                 311-0-0/c CHAR(55)    r     1 LDCTFMT4
   375-0-0/c CHAR(51)    r     1 LDCTFMT5                 161-0-0/c CHAR(77)    r     1 LDCTRPT30
   205-0-0/c CHAR(78)    r     1 LDCTRPT31                243-0-0/c CHAR(73)    r     1 LDCTRPT40
   266-0-0/c CHAR(73)    r     1 LDCTRPT41                327-0-0/c CHAR(73)    r     1 LDCTRPT50
   352-0-0/c CHAR(73)    r     1 LDCTRPT51                107-0-0/c CHAR(49)    r     1 MDCTFMT
   640-0-0/c CHAR(4)     r     1 MIR_STATE(0:4)
   614-0-0/c CHAR(20)    r     1 MPSTATE(0:3)
    25-0-0/c CHAR(9)     r     1 NK_RESCOD_TXT(0:14)
     4-0-0/c CHAR(3)     r     1 NOYES(0:1)               432-0-0/c CHAR(64)    r     1 RATFMT
   530-0-0/c CHAR(43)    r     1 SQHFMT                     6-0-0/c CHAR(3)     r     1 TDTST(0:5)

  ****  Section 001  Data  DAD$DCT

  ****  Scalars and arrays  ****
OctLoc.c.b A Datatyp(siz) R M Lvl/name                 OctLoc.c.b A Datatyp(siz) R M Lvl/name

  1261-0-0/w STRC(288)   r     1 CPUSRPT                 1271-0-0/c STRC(45)    r     1 CPUSRPTTX00
     0-0-0/w STRC(288)   r     1 DCTRPT                    17-0-0/w STRC(144)   r     1 DCTRPTHD00
    47-0-0/w STRC(144)   r     1 DCTRPTHD01                10-0-0/c STRC(252)   r     1 DCTRPTTX00
    23-0-0/c STRC(711)   r     1 DCTRPTTX01                53-0-0/c STRC(711)   r     1 DCTRPTTX02
   630-0-0/w STRC(288)   r     1 DDTRPT                   760-0-0/w STRC(144)   r     1 DDTRPTFT00
  1010-0-0/w STRC(144)   r     1 DDTRPTFT01              1040-0-0/w STRC(144)   r     1 DDTRPTFT02
PL6.E3A0      #001=DAD$DCT File=DAD$DCT.:E05TSI                                  TUE 07/29/97 12:42 Page:242
  1070-0-0/w STRC(144)   r     1 DDTRPTFT03              1120-0-0/w STRC(144)   r     1 DDTRPTFT04
   650-0-0/w STRC(144)   r     1 DDTRPTHD00               700-0-0/w STRC(144)   r     1 DDTRPTHD01
   730-0-0/w STRC(144)   r     1 DDTRPTHD02               640-0-0/c STRC(270)   r     1 DDTRPTTX00
   654-0-0/c STRC(720)   r     1 DDTRPTTX01               704-0-0/c STRC(720)   r     1 DDTRPTTX02
   734-0-0/c STRC(720)   r     1 DDTRPTTX03               764-0-0/c STRC(720)   r     1 DDTRPTTX04
  1014-0-0/c STRC(720)   r     1 DDTRPTTX05              1044-0-0/c STRC(720)   r     1 DDTRPTTX06
  1074-0-0/c STRC(720)   r     1 DDTRPTTX07              1124-0-0/c STRC(720)   r     1 DDTRPTTX08
  1456-0-0/c STRC(1926)  r     1 DFLG_TEXT                427-0-0/w STRC(288)   r     1 DQHRPT
   445-0-0/w STRC(144)   r     1 DQHRPTHD00               476-0-0/w STRC(144)   r     1 DQHRPTHD01
   437-0-0/c STRC(198)   r     1 DQHRPTTX00               451-0-0/c STRC(729)   r     1 DQHRPTTX01
   502-0-0/c STRC(729)   r     1 DQHRPTTX02              1366-0-0/w STRC(288)   r     1 IOMRPT
  1404-0-0/w STRC(144)   r     1 IOMRPTHD00              1430-0-0/w STRC(144)   r     1 IOMRPTHD01
  1376-0-0/c STRC(189)   r     1 IOMRPTTX00              1410-0-0/c STRC(576)   r     1 IOMRPTTX01
  1434-0-0/c STRC(648)   r     1 IOMRPTTX02              1150-0-0/w STRC(288)   r     1 IOQRPT
  1163-0-0/w STRC(144)   r     1 IOQRPTHD00              1221-0-0/w STRC(144)   r     1 IOQRPTHD01
  1160-0-0/c STRC(99)    r     1 IOQRPTTX00              1167-0-0/c STRC(918)   r     1 IOQRPTTX01
  1225-0-0/c STRC(990)   r     1 IOQRPTTX02               221-0-0/w STRC(288)   r     1 LDCTRPT
   345-0-0/w STRC(144)   r     1 LDCTRPT2HD00             376-0-0/w STRC(144)   r     1 LDCTRPT2HD01
   351-0-0/c STRC(729)   r     1 LDCTRPT2TX00             402-0-0/c STRC(729)   r     1 LDCTRPT2TX01
   243-0-0/w STRC(144)   r     1 LDCTRPTHD00              274-0-0/w STRC(144)   r     1 LDCTRPTHD01
   231-0-0/c STRC(333)   r     1 LDCTRPTTX00              247-0-0/c STRC(729)   r     1 LDCTRPTTX01
   300-0-0/c STRC(729)   r     1 LDCTRPTTX02              177-0-0/w STRC(288)   r     1 LDCTRPT_NHDR
   207-0-0/c STRC(333)   r     1 LDCTRPT_NHDRTX00        1544-0-0/c STRC(2502)  r     1 LKFLG_TEXT
    77-0-0/w STRC(288)   r     1 MDCTRPT                  120-0-0/w STRC(144)   r     1 MDCTRPTHD00
   147-0-0/w STRC(144)   r     1 MDCTRPTHD01              107-0-0/c STRC(324)   r     1 MDCTRPTTX00
   124-0-0/c STRC(684)   r     1 MDCTRPTTX01              153-0-0/c STRC(693)   r     1 MDCTRPTTX02
  1652-0-0/c STRC(1035)  r     1 QFL_TEXT                 527-0-0/w STRC(288)   r     1 RATRPT
   550-0-0/w STRC(144)   r     1 RATRPTHD00               600-0-0/w STRC(144)   r     1 RATRPTHD01
   537-0-0/c STRC(297)   r     1 RATRPTTX00               554-0-0/c STRC(711)   r     1 RATRPTTX01
   604-0-0/c STRC(711)   r     1 RATRPTTX02              1273-0-0/w STRC(288)   r     1 SQHRPT
  1313-0-0/w STRC(144)   r     1 SQHRPTHD00              1336-0-0/w STRC(144)   r     1 SQHRPTHD01
  1303-0-0/c STRC(261)   r     1 SQHRPTTX00              1317-0-0/c STRC(531)   r     1 SQHRPTTX01
  1342-0-0/c STRC(720)   r     1 SQHRPTTX02

  ****  Auto variables  ****

  ****  Scalars and arrays  ****
PL6.E3A0      #001=DAD$DCT File=DAD$DCT.:E05TSI                                  TUE 07/29/97 12:42 Page:243
OctLoc.c.b A Datatyp(siz) R M Lvl/name                 OctLoc.c.b A Datatyp(siz) R M Lvl/name

   245-0-0/w PTR         r     1 @CODE                    245-0-0/w PTR         r     1 @QQ$
     3-0-0/w PTR         r     1 @TOP                     215-0-0/c CHAR(4)     r     1 ACCTNG
   106-0-0/w UBIN        r     1 ADDRESS                  216-0-0/c CHAR(3)     r     1 BDM_CHAR
   216-0-0/c CHAR        r     1 BDM_CHAR_R(0:2)
   112-0-0/w PTR         r     1 CHT$                     227-0-0/w SBIN        r     1 CLDQ
   136-0-0/w SBIN        r     1 CMD                       *0-0-0/w SBIN        r     1 CODE
     6-0-0/w PTR         r     1 DCT$                       4-0-0/w PTR         r     1 DCT$$
   166-0-0/w PTR         r     1 DCTADR$                  160-0-0/w SBIN        r     1 DCTX
   137-0-0/w SBIN        r     1 DCTXHI                   140-0-0/w SBIN        r     1 DCTXLO
   245-0-0/w STRC(648)   r     1 DDT                      114-0-0/w PTR         r     1 DDT$
   161-0-0/c CHAR(8)     r     1 DEVNM                    245-0-0/b STRC        r     1 DFLAG
   165-0-0/w SBIN        r     1 DFLG                     147-0-0/w UBIN        r     1 DMN
   202-0-0/w STRC(72)    r     1 DQCHAN                     7-0-0/w PTR         r     1 DQH$
   172-0-0/w STRC(72)    r     1 DQHFL                    233-0-0/w UBIN        r     1 DRZERO
   241-0-0/w PTR         r     1 EDEF$                    121-0-0/w SBIN        r     1 FC
   163-0-0/w SBIN        r     1 FL                       232-0-0/w PTR         r     1 G$
   231-0-0/w PTR         r     1 GATE$                      5-0-0/w PTR         r     1 HD$$
   153-0-0/w UBIN        r     1 HEADER1                  154-0-0/w UBIN        r     1 HEADER2
   155-0-0/w UBIN        r     1 HEADER3                  156-0-0/w UBIN        r     1 HEADER4
   157-0-0/w UBIN        r     1 HEADER5                  144-0-0/w SBIN        r     1 I
   243-0-0/w UBIN        r     1 IC                       167-0-0/w STRC(108)   r     1 IOCHAN
   117-0-0/w SBIN        r     1 IOF                      105-0-0/w UBIN        r     1 IOM#
   104-0-0/w PTR         r     1 IOM$                     143-0-0/w SBIN        r     1 IOMS
   115-0-0/w PTR         r     1 IOQ$                     122-0-0/w PTR         r     1 IOS$
   145-0-0/w SBIN        r     1 J                        146-0-0/w SBIN        r     1 K
   107-0-0/w UBIN        r     1 LASTCON                  212-0-0/w SBIN        r     1 LDCT_GEN
   150-0-0/w UBIN        r     1 LDCT_TYPE                245-0-0/b STRC        r     1 LKFLAG
   221-0-0/w SBIN        r     1 LKFLG                    234-0-0/c CHAR(4)     r     1 LOCK
   204-0-0/w SBIN        r     1 LOSTINT                  237-0-0/w PTR         r     1 LQ$
   217-0-0/b STRC(72)    r     1 L_LOCK                   152-0-0/w UBIN        r     1 MAX_PASS
   235-0-0/w SBIN        r     1 MDCTX                    236-0-0/c CHAR(3)     r     1 MIR
   127-0-0/c CHAR(20)    r     1 MPS                      123-0-0/w PTR         r     1 MPSTATE$
   206-0-0/c CHAR(3)     r     1 MREC                     177-0-0/c CHAR(3)     r     1 MSG
   141-0-0/w SBIN        r     1 MXLOCAL                  142-0-0/w SBIN        r     1 MXTOTAL
   245-0-0/w UBIN        r     1 N                        135-0-0/w SBIN        r     1 NDCT
PL6.E3A0      #001=DAD$DCT File=DAD$DCT.:E05TSI                                  TUE 07/29/97 12:42 Page:244
   110-0-0/w UBIN        r     1 NEXTF                    111-0-0/w UBIN        r     1 NEXTS
   103-0-0/w SBIN        r     1 NEXT_DCT                 214-0-0/c CHAR(4)     r     1 NOCGI
   213-0-0/c CHAR(4)     r     1 NOCGR                    125-0-0/w PTR         r     1 NSCPU$
   102-0-0/w SBIN        r     1 NSQHS                    120-0-0/w SBIN        r     1 OPF
   134-0-0/w PTR         r     1 P$                       151-0-0/w UBIN        r     1 PASS
   126-0-0/w PTR         r     1 PCU$                     124-0-0/w PTR         r     1 PORTNR$
   116-0-0/w PTR         r     1 Q$                       222-0-0/w SBIN        r     1 QFL
   245-0-0/b STRC        r     1 QFLAG                     *0-0-0/w PTR         r     1 QQ$
   245-0-0/c STRC(576)   r     1 RAT                      113-0-0/w PTR         r     1 RAT$
   223-0-0/w SBIN        r     1 RDSOUT                   207-0-0/c CHAR(9)     r     1 RESCOD
   164-0-0/w SBIN        r     1 SQ                        10-0-0/w PTR         r     1 SQH$
    11-0-0/w PTR         r     1 SQHS$(0:56)              174-0-0/c CHAR(5)     r     1 STATE
   200-0-0/c STRC(63)    r     1 STATUS                   205-0-0/c CHAR(3)     r     1 STOP
   176-0-0/w SBIN        r     1 TDUSER                   242-0-0/w PTR         r     1 TH$
    *0-0-0/w STRC(144)   r     1 TOP                      246-0-0/c CHAR(4)     r     1 TYPE
   240-0-0/w UBIN        r     1 UTS                      246-0-0/w SBIN        r     1 X

  ****  SYMREF variables  ****

  ****  Scalars and arrays  ****
OctLoc.c.b A Datatyp(siz) R M Lvl/name                 OctLoc.c.b A Datatyp(siz) R M Lvl/name

     0-0-0/w PTR         r     1 B$DS8$                     0-0-0/w PTR         r     1 B$PS$(0:0)
     0-0-0/w PTR         r     1 B$XL_ASC_DUMP$             0-0-0/w PTR         r     1 B$XL_UPPER$
     0-0-0/c CHAR(4)     r     1 BLANK_LINE                 0-0-0/w EPTR        r     1 DAF$WRITE
     0-0-0/w STRC        r     1 DA_ANLZERR                 0-0-0/w PTR         r     1 DA_DNAME$
     0-0-0/w STRC(1080)  r     1 DA_GATETXT                 0-0-0/w SBIN        r     1 DA_MAXCHANS
     0-0-0/b BIT (72)    r     1 DA_MONISDATA

  ****  BASED and DCB variables  ****

  ****  Scalars and arrays  ****
OctLoc.c.b A Datatyp(siz) R M Lvl/name                 OctLoc.c.b A Datatyp(siz) R M Lvl/name

     0-0-0/w STRC(72)    r     1 B$EDEF                     0-0-0/w STRC(72)    r     1 B$LOCK
     0-0-0/w STRC(72)    r     1 CHT(0:0)                   0-0-0/d STRC(4608)  r     1 DA_PRINTABLE_TBL
     0-0-0/w STRC(1332)  r     1 DCT                        0-0-0/w STRC(648)   r     1 DQH
PL6.E3A0      #001=DAD$DCT File=DAD$DCT.:E05TSI                                  TUE 07/29/97 12:42 Page:245
     0-0-0/w STRC(324)   r     1 FR$RAT                     0-0-0/w STRC(288)   r     1 FT$DDT
     0-0-0/d BIT (72)    r     1 GATE                       0-0-0/w PTR         r     1 HD$(0:0)
     0-0-0/w STRC(252)   r     1 IOM                        0-0-0/d STRC(864)   r     1 LDCT
     0-0-0/w PTR         r     1 N$DCT$(0:0)                0-0-0/d STRC(1080)  r     1 N$REQ
     0-0-0/w STRC(144)   r     1 OUT                        0-0-0/w STRC        r     1 P
     0-0-0/w UBIN(18)    r     1 POFF_BASED                 0-0-0/w PTR         r     1 PTR$
     0-0-0/w PTR         r     1 PTRS$(0:0)                 0-0-0/w SBIN        r     1 SBINWORD
     0-0-0/w STRC(252)   r     1 SQH                        0-0-0/w ASTR(153)   r     1 SYM
     0-0-0/h ASTR(18)    r     1 TH                         0-0-0/w UBIN        r     1 UARAY(0:0)
     0-0-0/h UBIN(18)    r     1 UBINHALF                   0-0-0/d STRC(4608)  r     1 UPPER


   Procedure DAD$DCT requires 3795 words for executable code.
   Procedure DAD$DCT requires 270 words of local(AUTO) storage.

    No errors detected in file DAD$DCT.:E05TSI    .
PL6.E3A0      #001=DAD$DCT File=DAD$DCT.:E05TSI                                  TUE 07/29/97 12:42 Page:246
          *** CROSS REFERENCE LISTING ***
**     DENOTES     IDENTIFIER DEFINITION
<<                 IDENTIFIER'S VALUE SET
>>                 IDENTIFIER'S VALUE USED
<>                 IDENTIFIER SET AND/OR USED
--                 IDENTIFIER REFERENCED
PL6.E3A0      #001=DAD$DCT File=DAD$DCT.:E05TSI                                  TUE 07/29/97 12:42 Page:247
          MINI XREF LISTING

ACCTNG
      9101**DCL     11903<<ASSIGN  11903<<ASSIGN  12007--CALL
ADDRESS
      9028**DCL     12365<<ASSIGN  12378--CALL
ALT
     11838**LABEL   11729--CALLALT 11730--CALLALT 11731--CALLALT 11733--CALLALT 11734--CALLALT 11736--CALLALT
     11738--CALLALT 12275--CALLALT 12276--CALLALT 12278--CALLALT 12284--CALLALT 12614--CALLALT 12615--CALLALT
     12616--CALLALT 12618--CALLALT 12620--CALLALT 12642--CALLALT 12643--CALLALT 12644--CALLALT 12645--CALLALT
     12648--CALLALT 12658--CALLALT 12664--CALLALT 12760--CALLALT
ALT IN PROCEDURE DISPRAT
     12456**LABEL   12438--CALLALT
ALT IN PROCEDURE RUNIOQ
     12686**LABEL   12675--CALLALT 12680--CALLALT
B$DS8$
      9014**DCL     11796>>ASSIGN
B$EDEF.NPOINTER
      9557**DCL     12704>>ASSIGN
B$EDEF.OU
      9549**DCL      9555--REDEF
B$LOCK.W1
      9119**DCL     11905>>ASSIGN
B$LOCK.W2
      9120**DCL     11906>>ASSIGN
B$PS$
      9016**DCL     12234>>IF
B$XL_ASC_DUMP$
      9527**DCL      9528--IMP-PTR 11887>>CALLBLT
B$XL_UPPER$
     11713**DCL     11714--IMP-PTR 12340>>CALLBLT
BDM_CHAR
      9102**DCL      9103--REDEF   12696<<ASSIGN  12697<<ASSIGN  12718--CALL
BDM_CHAR_R
PL6.E3A0      #001=DAD$DCT File=DAD$DCT.:E05TSI                                  TUE 07/29/97 12:42 Page:248
      9103**DCL     12698<<ASSIGN  12699<<ASSIGN
BLANKNAME
      9606**DCL     12707--ASSIGN
BLANK_LINE
      7263**DCL     11921--CALL    11947--CALL    11973--CALL    11994--CALL    12020--CALL    12135--CALL
     12138--CALL    12146--CALL    12154--CALL    12162--CALL
CHAN0 IN PROCEDURE DISP_DCT
     12056**LABEL   12060--CALLALT
CHT.DQH$
      9209**DCL     12181>>ASSIGN  12198>>ASSIGN  12213>>ASSIGN  12294>>ASSIGN
CHT$
      9032**DCL      9209--IMP-PTR 12177<<ASSIGN  12178<>CALL    12178<>CALL    12181>>ASSIGN  12198>>ASSIGN
     12213>>ASSIGN  12273<<ASSIGN  12274<>CALL    12274<>CALL    12294>>ASSIGN
CLDQ
      9113**DCL     11899<<ASSIGN  11960--CALL
CMD
      9048**DCL     11721<<ASSIGN  11724<<ASSIGN  11727<<ASSIGN  11739>>DOCASE  11795>>IF      11820>>IF
     11841>>DOCASE
CODE IN PROCEDURE SETERR
     12766**DCL     12765--PROC    12769>>ASSIGN
CPUFMT
     11717**DCL     12747--CALL
CPUFMTNU
     11716**DCL     12741--CALL
CPUSRPT
     11352**DCL     12735<>CALL
CPUSRPTTX00
     11395**DCL     11382--DCLINIT
CPUS_ALT
     12755**LABEL   12727--CALLALT 12728--CALLALT 12729--CALLALT 12730--CALLALT 12731--CALLALT 12732--CALLALT
     12733--CALLALT 12734--CALLALT
DAA$LOC
      3164**DCL-ENT 12656--CALL    12758--CALL
DAA$VALUE
      3163**DCL-ENT 11786--CALL    12192--CALL    12206--CALL    12208--CALL    12484--CALL
DAA$WILDCOMP
PL6.E3A0      #001=DAD$DCT File=DAD$DCT.:E05TSI                                  TUE 07/29/97 12:42 Page:249
      3165**DCL-ENT 11808--CALL
DAB$GATE
      3166**DCL-ENT 12136--CALL    12761--CALL
DAF$INIT
      3171**DCL-ENT 11741--CALL    11756--CALL    11918--CALL    11920--CALL    12171--CALL    12267--CALL
     12355--CALL    12393--CALL    12471--CALL    12612--CALL    12735--CALL
DAF$NEWPAGE
      3172**DCL-ENT 12478--CALL
DAF$WRITE
      3170**DCL     11881>>CALL    11921>>CALL    11922>>CALL    11923>>CALL    11936>>CALL    11947>>CALL
     11948>>CALL    11949>>CALL    11960>>CALL    11973>>CALL    11974>>CALL    11975>>CALL    11986>>CALL
     11994>>CALL    11995>>CALL    11996>>CALL    12007>>CALL    12020>>CALL    12021>>CALL    12022>>CALL
     12034>>CALL    12078>>CALL    12135>>CALL    12137>>CALL    12138>>CALL    12142>>CALL    12145>>CALL
     12146>>CALL    12150>>CALL    12153>>CALL    12154>>CALL    12158>>CALL    12161>>CALL    12162>>CALL
     12259>>CALL    12348>>CALL    12378>>CALL    12455>>CALL    12604>>CALL    12624>>CALL    12629>>CALL
     12634>>CALL    12718>>CALL    12741>>CALL    12747>>CALL    12762>>CALL
DAM$MAP
      3169**DCL-ENT 11731--CALL    11734--CALL    11736--CALL    11738--CALL    11770--CALL    11798--CALL
     11807--CALL    12049--CALL    12060--CALL    12173--CALL    12176--CALL    12178--CALL    12184--CALL
     12201--CALL    12216--CALL    12235--CALL    12246--CALL    12269--CALL    12272--CALL    12274--CALL
     12276--CALL    12278--CALL    12284--CALL    12297--CALL    12300--CALL    12328--CALL    12357--CALL
     12361--CALL    12363--CALL    12388--CALL    12390--CALL    12392--CALL    12398--CALL    12408--CALL
     12438--CALL    12462--CALL    12466--CALL    12469--CALL    12530--CALL    12533--CALL    12616--CALL
     12618--CALL    12620--CALL    12622--CALL    12643--CALL    12645--CALL    12648--CALL    12658--CALL
     12664--CALL    12675--CALL    12680--CALL    12731--CALL    12732--CALL    12733--CALL    12734--CALL
     12760--CALL
DAS$IC2ED
      3168**DCL-ENT 12703--CALL
DAS$SDMONPTR
      3167**DCL-ENT 11729--CALL    11730--CALL    11733--CALL    12172--CALL    12175--CALL    12268--CALL
     12271--CALL    12275--CALL    12356--CALL    12360--CALL    12387--CALL    12391--CALL    12461--CALL
     12465--CALL    12614--CALL    12615--CALL    12642--CALL    12644--CALL    12727--CALL    12728--CALL
     12729--CALL    12730--CALL
DA_ANLZERR
      7260**DCL     11788<<ASSIGN  12487<<ASSIGN  12768<<ASSIGN
DA_ANLZERR.CODE
PL6.E3A0      #001=DAD$DCT File=DAD$DCT.:E05TSI                                  TUE 07/29/97 12:42 Page:250
      7260**DCL     11789<<ASSIGN  11829>>IF      12488<<ASSIGN  12769<<ASSIGN
DA_DNAME$
      7304**DCL     12704>>ASSIGN
DA_GATETXT
      7262**DCL     12137--CALL    12762--CALL
DA_MAPSEG.P
      7290**DCL      7291--REDEF
DA_MAXCHANS
      7263**DCL     12180>>DOINDEX 12181>>ASSIGN  12197>>DOINDEX 12198>>ASSIGN  12209>>IF      12213>>ASSIGN
     12293>>DOINDEX 12294>>ASSIGN
DA_MONISDATA
      7283**DCL     11731<>CALL    11734<>CALL    11736<>CALL    12173<>CALL    12176<>CALL    12269<>CALL
     12272<>CALL    12276<>CALL    12357<>CALL    12361<>CALL    12388<>CALL    12392<>CALL    12462<>CALL
     12466<>CALL    12616<>CALL    12618<>CALL    12643<>CALL    12645<>CALL    12731<>CALL    12732<>CALL
     12733<>CALL    12734<>CALL
DA_PRINTABLE_TBL
      9528**DCL     11887>>CALLBLT
DA_SDASN.DESC.TYPE0
      7275**DCL      7275--REDEF
DA_SYMSEG.P
      7303**DCL      7304--REDEF
DA_TIGRSEG.P
      7291**DCL      7292--REDEF
DCT.DCTX
      9147**DCL     11853>>ASSIGN  12043>>ASSIGN  12050>>ASSIGN
DCT.DDT$
      9147**DCL     12531>>IF      12533<>CALL
DCT.DEVNM
      9146**DCL     11808<>CALL    11854>>ASSIGN  12044>>ASSIGN  12236>>ASSIGN  12285>>IF      12439>>ASSIGN
     12624--CALL    12629--CALL    12634--CALL
DCT.DFLG
      9148**DCL     12053>>ASSIGN
DCT.DP
      9166**DCL      9173--REDEF    9176--REDEF    9177--REDEF    9179--REDEF    9179--REDEF    9180--REDEF
      9181--REDEF    9181--REDEF
DCT.DP.BQ$
PL6.E3A0      #001=DAD$DCT File=DAD$DCT.:E05TSI                                  TUE 07/29/97 12:42 Page:251
      9166**DCL     12628>>IF      12630<>CALL
DCT.DP.MIRROR.DCTX
      9171**DCL     11862>>ASSIGN
DCT.DP.MIRROR.DRZERO
      9172**DCL     11871>>ASSIGN
DCT.DP.MIRROR.FLAG
      9168**DCL     11855>>IF      12632>>IF
DCT.DP.MIRROR.LOCK
      9169**DCL     11866>>IF
DCT.DP.MIRROR.LQ$
      9173**DCL     11870>>ASSIGN  12632>>IF      12635<>CALL
DCT.DP.MIRROR.PRI
      9170**DCL     11856>>IF
DCT.DP.MIRROR.STATE
      9170**DCL     11863>>ASSIGN
DCT.DP.MIRROR.USER#
      9171**DCL     11865>>ASSIGN
DCT.DP.MIRROR.UTS
      9172**DCL     11864>>ASSIGN
DCT.DQH$
      9162**DCL     12055>>IF      12060<>CALL
DCT.DVN
      9155**DCL     12054>>ASSIGN
DCT.FL$
      9146**DCL     12045>>IF      12049<>CALL
DCT.MPC.IOCHANX
      9174**DCL      9174--REDEF
DCT.MPC.TYPE
      9174**DCL     12329>>DOCASE
DCT.MSG#
      9166**DCL     12066>>ASSIGN
DCT.SQ$
      9146**DCL     12052--ASSIGN  12623>>IF      12625<>CALL
DCT.STATE
      9156**DCL     12064>>ASSIGN
DCT.STATUS.DOWN
PL6.E3A0      #001=DAD$DCT File=DAD$DCT.:E05TSI                                  TUE 07/29/97 12:42 Page:252
      9163**DCL     12067>>ASSIGN
DCT.STATUS.TND
      9164**DCL     12068>>ASSIGN
DCT.TDUSER#
      9165**DCL     12065>>ASSIGN
DCT.TYPE
      9156**DCL     12627>>IF
DCT$
      9020**DCL      9146--IMP-PTR  9242--IMP-PTR 11770<>CALL    11798<>CALL    11807<>CALL    11808>>CALL
     11853>>ASSIGN  11854>>ASSIGN  11855>>IF      11856>>IF      11862>>ASSIGN  11863>>ASSIGN  11864>>ASSIGN
     11865>>ASSIGN  11866>>IF      11870>>ASSIGN  11871>>ASSIGN  11887>>CALLBLT 11888>>ASSIGN  11889>>ASSIGN
     11890>>ASSIGN  11891>>ASSIGN  11893>>IF      11894>>ASSIGN  11895>>CALLBLT 11897>>IF      11898>>IF
     11899>>ASSIGN  11901>>ASSIGN  11903>>IF      11905>>ASSIGN  11906>>ASSIGN  11936>>CALL    11936>>CALL
     11936>>CALL    11936>>CALL    11936>>CALL    11960>>CALL    11960>>CALL    11960>>CALL    11960>>CALL
     11960>>CALL    11960>>CALL    11960>>CALL    11986>>CALL    11986>>CALL    11986>>CALL    11986>>CALL
     11986>>CALL    11986>>CALL    11986>>CALL    12007>>CALL    12007>>CALL    12007>>CALL    12007>>CALL
     12007>>CALL    12007>>CALL    12007>>CALL    12007>>CALL    12007>>CALL    12007>>CALL    12007>>CALL
     12026>>ASSIGN  12034>>CALL    12034>>CALL    12034>>CALL    12034>>CALL    12034>>CALL    12034>>CALL
     12043>>ASSIGN  12044>>ASSIGN  12045>>IF      12049>>CALL    12052>>ASSIGN  12053>>ASSIGN  12054>>ASSIGN
     12055>>IF      12060>>CALL    12064>>ASSIGN  12065>>ASSIGN  12066>>ASSIGN  12067>>ASSIGN  12068>>ASSIGN
     12140>>ASSIGN  12148>>ASSIGN  12156>>ASSIGN  12235<>CALL    12236>>ASSIGN  12241<<ASSIGN  12242>>IF
     12246<>CALL    12246<>CALL    12247>>ASSIGN  12248>>ASSIGN  12284<>CALL    12285>>IF      12327<<ASSIGN
     12328<>CALL    12328<>CALL    12329>>DOCASE  12435<<ASSIGN  12436>>IF      12438<>CALL    12438<>CALL
     12439>>ASSIGN  12530<>CALL    12531>>IF      12533>>CALL    12622<>CALL    12623>>IF      12624>>CALL
     12625>>CALL    12627>>IF      12628>>IF      12629>>CALL    12630>>CALL    12632>>IF      12632>>IF
     12634>>CALL    12635>>CALL
DCT$$
      9018**DCL      9135--IMP-PTR 11729<>CALL    11736<>CALL    11736<>CALL    11737<<ASSIGN  11737>>ASSIGN
     11738<>CALL    11738<>CALL    11769>>IF      11770>>CALL    11771>>ASSIGN  11797>>ASSIGN  11799>>ASSIGN
     11806>>IF      11807>>CALL    11810>>ASSIGN  12275<>CALL    12276<>CALL    12276<>CALL    12277<<ASSIGN
     12277>>ASSIGN  12278<>CALL    12278<>CALL    12283>>IF      12284>>CALL    12387<>CALL    12388<>CALL
     12388<>CALL    12389<<ASSIGN  12389>>ASSIGN  12390<>CALL    12390<>CALL    12435>>ASSIGN  12461<>CALL
     12462<>CALL    12462<>CALL    12463<<ASSIGN  12463>>ASSIGN  12469<>CALL    12469<>CALL    12530>>CALL
     12614<>CALL    12618<>CALL    12618<>CALL    12619<<ASSIGN  12619>>ASSIGN  12620<>CALL    12620<>CALL
     12622>>CALL    12644<>CALL    12645<>CALL    12645<>CALL    12646>>ASSIGN
DCTADR$
PL6.E3A0      #001=DAD$DCT File=DAD$DCT.:E05TSI                                  TUE 07/29/97 12:42 Page:253
      9077**DCL     11771<<ASSIGN  11796<<ASSIGN  11797<<ASSIGN  11798<>CALL    11799<<ASSIGN  11810<<ASSIGN
     11936--CALL    12078--CALL    12183<<ASSIGN  12200<<ASSIGN  12215<<ASSIGN  12259--CALL
DCTFMT
      9788**DCL     12078--CALL
DCTRPT
      9653**DCL     11741<>CALL
DCTRPTHD00
      9720**DCL      9688--DCLINIT
DCTRPTHD01
      9763**DCL      9735--DCLINIT
DCTRPTTX00
      9696**DCL      9683--DCLINIT
DCTRPTTX01
      9738**DCL      9728--DCLINIT
DCTRPTTX02
      9781**DCL      9771--DCLINIT
DCTX
      9072**DCL     11853<<ASSIGN  11881--CALL    12043<<ASSIGN  12078--CALL    12192<>CALL    12193>>IF
     12198>>ASSIGN  12206<>CALL    12207>>IF      12213>>ASSIGN  12690<<ASSIGN  12718--CALL
DCTXHI
      9052**DCL     11743<<ASSIGN  11753<<ASSIGN  11758<<ASSIGN  11768>>DOINDEX 11787>>IF      11805>>DOINDEX
DCTXLO
      9053**DCL     11742<<ASSIGN  11752<<ASSIGN  11757<<ASSIGN  11768>>DOINDEX 11787>>IF      11796>>ASSIGN
     11805>>DOINDEX
DDT IN PROCEDURE DISPDDT_I
     12502**DCL     12604--CALL
DDT.ACCT IN PROCEDURE DISPDDT_I
     12505**DCL     12537<<ASSIGN
DDT.DCTX IN PROCEDURE DISPDDT_I
     12503**DCL     12535<<ASSIGN
DDT.DENSITY IN PROCEDURE DISPDDT_I
     12507**DCL     12541<<ASSIGN  12542<<ASSIGN  12543<<ASSIGN  12544<<ASSIGN  12545<<ASSIGN  12546<<CALLBLT
DDT.EXPIRE IN PROCEDURE DISPDDT_I
     12525**DCL     12601<<ASSIGN
DDT.FLAGS IN PROCEDURE DISPDDT_I
     12508**DCL     12519--REDEF
PL6.E3A0      #001=DAD$DCT File=DAD$DCT.:E05TSI                                  TUE 07/29/97 12:42 Page:254
DDT.FLAGS.ANST IN PROCEDURE DISPDDT_I
     12509**DCL     12551<<ASSIGN
DDT.FLAGS.EBCDIC IN PROCEDURE DISPDDT_I
     12511**DCL     12555<<ASSIGN
DDT.FLAGS.EXPIRED IN PROCEDURE DISPDDT_I
     12518**DCL     12569<<ASSIGN
DDT.FLAGS.FMNEEDED IN PROCEDURE DISPDDT_I
     12516**DCL     12565<<ASSIGN
DDT.FLAGS.FUNNYPOS IN PROCEDURE DISPDDT_I
     12517**DCL     12567<<ASSIGN
DDT.FLAGS.NOWANS IN PROCEDURE DISPDDT_I
     12514**DCL     12561<<ASSIGN
DDT.FLAGS.POSLOST IN PROCEDURE DISPDDT_I
     12515**DCL     12563<<ASSIGN
DDT.FLAGS.RINGIN IN PROCEDURE DISPDDT_I
     12512**DCL     12557<<ASSIGN
DDT.FLAGS.SCRTCH IN PROCEDURE DISPDDT_I
     12510**DCL     12553<<ASSIGN
DDT.FLAGS.WRITE IN PROCEDURE DISPDDT_I
     12513**DCL     12559<<ASSIGN
DDT.FLAGSCHARS IN PROCEDURE DISPDDT_I
     12519**DCL     12549<<ASSIGN
DDT.FMCNT IN PROCEDURE DISPDDT_I
     12526**DCL     12602<<ASSIGN
DDT.FRSTFSECT IN PROCEDURE DISPDDT_I
     12523**DCL     12591<<ASSIGN
DDT.FRSTFSN IN PROCEDURE DISPDDT_I
     12522**DCL     12590<<ASSIGN
DDT.FSN IN PROCEDURE DISPDDT_I
     12506**DCL     12538<<ASSIGN
DDT.POS IN PROCEDURE DISPDDT_I
     12521**DCL     12581<<ASSIGN  12582<<ASSIGN  12583<<ASSIGN  12584<<ASSIGN  12585<<ASSIGN  12586<<ASSIGN
     12587<<CALLBLT
DDT.SN IN PROCEDURE DISPDDT_I
     12504**DCL     12536<<ASSIGN
DDT.SOLICIT IN PROCEDURE DISPDDT_I
PL6.E3A0      #001=DAD$DCT File=DAD$DCT.:E05TSI                                  TUE 07/29/97 12:42 Page:255
     12520**DCL     12572<<ASSIGN  12573<<ASSIGN  12574<<ASSIGN  12575<<ASSIGN  12576<<ASSIGN  12577<<CALLBLT
DDT.VOLACCESS IN PROCEDURE DISPDDT_I
     12524**DCL     12594<<ASSIGN  12595<<ASSIGN  12596<<ASSIGN  12597<<ASSIGN  12598<<CALLBLT
DDT$
      9034**DCL      9381--IMP-PTR 12533<>CALL    12536>>ASSIGN  12537>>ASSIGN  12538>>ASSIGN  12540>>DOCASE
     12546>>CALLBLT 12550>>IF      12552>>IF      12554>>IF      12556>>IF      12558>>IF      12560>>IF
     12562>>IF      12564>>IF      12566>>IF      12568>>IF      12571>>DOCASE  12577>>CALLBLT 12580>>DOCASE
     12587>>CALLBLT 12590>>ASSIGN  12591>>ASSIGN  12593>>DOCASE  12598>>CALLBLT 12601>>ASSIGN  12602>>ASSIGN
DDTALT
     12489**LABEL   12461--CALLALT 12462--CALLALT 12465--CALLALT 12466--CALLALT 12469--CALLALT
DDTFMT
     11175**DCL     12604--CALL
DDTRPT
     10771**DCL     12471<>CALL
DDTRPTFT00
     10973**DCL     10811--DCLINIT
DDTRPTFT01
     11017**DCL     10988--DCLINIT
DDTRPTFT02
     11061**DCL     11032--DCLINIT
DDTRPTFT03
     11105**DCL     11076--DCLINIT
DDTRPTFT04
     11149**DCL     11120--DCLINIT
DDTRPTHD00
     10840**DCL     10806--DCLINIT
DDTRPTHD01
     10884**DCL     10855--DCLINIT
DDTRPTHD02
     10928**DCL     10899--DCLINIT
DDTRPTTX00
     10814**DCL     10801--DCLINIT
DDTRPTTX01
     10858**DCL     10848--DCLINIT
DDTRPTTX02
     10902**DCL     10892--DCLINIT
PL6.E3A0      #001=DAD$DCT File=DAD$DCT.:E05TSI                                  TUE 07/29/97 12:42 Page:256
DDTRPTTX03
     10946**DCL     10936--DCLINIT
DDTRPTTX04
     10991**DCL     10981--DCLINIT
DDTRPTTX05
     11035**DCL     11025--DCLINIT
DDTRPTTX06
     11079**DCL     11069--DCLINIT
DDTRPTTX07
     11123**DCL     11113--DCLINIT
DDTRPTTX08
     11167**DCL     11157--DCLINIT
DEVBQFMT
     11333**DCL     12629--CALL
DEVLQFMT
     11334**DCL     12634--CALL
DEVNM
      9073**DCL     11854<<ASSIGN  11881--CALL    11887<<CALLBLT 11936--CALL    12044<<ASSIGN  12078--CALL
     12236<<ASSIGN  12239<<ASSIGN  12259--CALL
DEVNMFMT
     11332**DCL     12624--CALL
DFLAG IN PROCEDURE DISP_A_LDCT
     12086**DCL     12090--REDEF   12094--REDEF
DFLAG.F IN PROCEDURE DISP_A_LDCT
     12087**DCL     12140<<ASSIGN  12142--CALL    12143<<ASSIGN  12143>>ASSIGN  12145--CALL
DFLG
      9076**DCL     11888<<ASSIGN  11936--CALL    12053<<ASSIGN  12078--CALL
DFLG_TEXT IN PROCEDURE DISP_A_LDCT
     12103**DCL     12142--CALL    12145--CALL
DFLG_TEXT.SREST IN PROCEDURE DISP_A_LDCT
     12103**DCL     12141<<ASSIGN  12144<<ASSIGN
DIDCT
     11840**PROC    11772--CALL    11800--CALL    11811--CALL
DIDQH
     12225**PROC    12185--CALL    12202--CALL    12217--CALL
DIIOQ
PL6.E3A0      #001=DAD$DCT File=DAD$DCT.:E05TSI                                  TUE 07/29/97 12:42 Page:257
     12689**PROC    12650--CALL    12665--CALL    12681--CALL
DISPDCTS
     11727**LABEL   11722--GOTO    11725--GOTO
DISPDDT_I
     12500**PROC    12476--CALL    12490--CALL
DISPRAT
     12416**PROC    12399--CALL    12409--CALL
DISP_A_LDCT
     12084**PROC    11833--CALL
DISP_DCT
     12042**PROC    11843--CALL
DISP_LDCT
     11886**PROC    11845--CALL
DISP_LDCT_LOOP
     11750**LABEL   11825--GOTO
DISP_MDCT
     11852**PROC    11847--CALL
DISQH
     12316**PROC    12308--CALL
DMN
      9060**DCL     12026<<ASSIGN  12034--CALL
DQCHAN
      9091**DCL     12259--CALL
DQCHAN.CHAN
      9093**DCL     12227<<ASSIGN
DQCHAN.IOM
      9092**DCL     12226<<ASSIGN
DQH.CHANSTATE.STOP
      9202**DCL     12232>>ASSIGN
DQH.FL$
      9194**DCL     12241>>ASSIGN
DQH.IO$
      9201**DCL     12259--CALL
DQH.IOCHAN.CHANNEL
      9197**DCL     12062>>ASSIGN  12227>>ASSIGN  12248>>ASSIGN
DQH.IOCHAN.IOM
PL6.E3A0      #001=DAD$DCT File=DAD$DCT.:E05TSI                                  TUE 07/29/97 12:42 Page:258
      9197**DCL     12061>>ASSIGN  12226>>ASSIGN  12247>>ASSIGN
DQH.IOCHANX
      9196**DCL      9197--REDEF
DQH.MBX$
      9205**DCL      9206--REDEF
DQH.MPC$
      9201**DCL     12234>>IF      12234>>IF      12235<>CALL
DQH.MREC
      9194**DCL     12233>>ASSIGN
DQH.SQH$
      9200**DCL     12259--CALL    12298>>ASSIGN  12348--CALL
DQH.STATE
      9198**DCL     12230>>ASSIGN
DQH.STATUS.DOWN
      9194**DCL     12228>>ASSIGN
DQH.STATUS.TND
      9195**DCL     12229>>ASSIGN
DQH.TIMOUT
      9197**DCL     12231>>ASSIGN
DQH$
      9021**DCL      9194--IMP-PTR 12060<>CALL    12061>>ASSIGN  12062>>ASSIGN  12181<<ASSIGN  12182>>IF
     12183>>ASSIGN  12184<>CALL    12184<>CALL    12198<<ASSIGN  12199>>IF      12200>>ASSIGN  12201<>CALL
     12201<>CALL    12213<<ASSIGN  12214>>IF      12215>>ASSIGN  12216<>CALL    12216<>CALL    12226>>ASSIGN
     12227>>ASSIGN  12228>>ASSIGN  12229>>ASSIGN  12230>>ASSIGN  12231>>ASSIGN  12232>>ASSIGN  12233>>ASSIGN
     12234>>IF      12234>>IF      12235>>CALL    12241>>ASSIGN  12259>>CALL    12259>>CALL    12294<<ASSIGN
     12295>>IF      12297<>CALL    12297<>CALL    12298>>ASSIGN  12348>>CALL
DQHFL
      9082**DCL     12243<<ASSIGN  12259--CALL
DQHFL.CHAN
      9084**DCL     12248<<ASSIGN
DQHFL.IOM
      9083**DCL     12247<<ASSIGN
DQHFMT
     10592**DCL     12259--CALL
DQHRPT
     10457**DCL     12171<>CALL
PL6.E3A0      #001=DAD$DCT File=DAD$DCT.:E05TSI                                  TUE 07/29/97 12:42 Page:259
DQHRPTHD00
     10524**DCL     10492--DCLINIT
DQHRPTHD01
     10567**DCL     10539--DCLINIT
DQHRPTTX00
     10500**DCL     10487--DCLINIT
DQHRPTTX01
     10542**DCL     10532--DCLINIT
DQHRPTTX02
     10585**DCL     10575--DCLINIT
DRZERO
      9122**DCL     11871<<ASSIGN  11881--CALL
EDEF$
      9601**DCL      9532--IMP-PTR 12703<>CALL    12704>>ASSIGN
FC
      9039**DCL     12693<<ASSIGN  12718--CALL
FIND_NEXT_DCT
     12282**LABEL   12286--EXIT
FL
      9074**DCL     12046<<ASSIGN  12050<<ASSIGN  12078--CALL
FL0 IN PROCEDURE DISP_DCT
     12046**LABEL   12049--CALLALT
FR$RAT.DCTX
      9353**DCL     12435>>ASSIGN
FR$RAT.FLG
      9361**DCL     12453>>ASSIGN
FR$RAT.LNK$
      9336**DCL     12400>>ASSIGN  12410>>ASSIGN
FR$RAT.M1
      9357**DCL     12442>>ASSIGN
FR$RAT.RCOD
      9348**DCL     12447>>ASSIGN
FR$RAT.REEL.ASID
      9355**DCL     12448>>ASSIGN
FR$RAT.REEL.SER
      9356**DCL     12449>>ASSIGN
PL6.E3A0      #001=DAD$DCT File=DAD$DCT.:E05TSI                                  TUE 07/29/97 12:42 Page:260
FR$RAT.RES.ACTX
      9341**DCL     12445>>ASSIGN
FR$RAT.RES.M2
      9340**DCL     12443>>ASSIGN
FR$RAT.RES.NUMB
      9339**DCL     12444>>ASSIGN
FR$RAT.RES.RFLG
      9342**DCL     12446>>ASSIGN
FR$RAT.RES.SISID
      9338**DCL     12441>>ASSIGN
FR$RAT.SOLU
      9360**DCL     12452>>ASSIGN
FR$RAT.SSER
      9358**DCL     12450>>ASSIGN
FR$RAT.TYP
      9359**DCL     12451>>ASSIGN
FT$DDT.ACCT
      9382**DCL     12537>>ASSIGN
FT$DDT.ANST
      9397**DCL     12550>>IF
FT$DDT.DENSITY
      9412**DCL     12540>>DOCASE  12546>>CALLBLT
FT$DDT.EBCDIC
      9400**DCL     12554>>IF
FT$DDT.EXPIRE
      9390**DCL     12601>>ASSIGN
FT$DDT.EXPIRED
      9416**DCL     12568>>IF
FT$DDT.FMCNT
      9395**DCL     12602>>ASSIGN
FT$DDT.FMNEEDED
      9413**DCL     12564>>IF
FT$DDT.FRSTFSECT
      9418**DCL     12591>>ASSIGN
FT$DDT.FRSTFSN
      9393**DCL     12590>>ASSIGN
PL6.E3A0      #001=DAD$DCT File=DAD$DCT.:E05TSI                                  TUE 07/29/97 12:42 Page:261
FT$DDT.FSN
      9391**DCL     12538>>ASSIGN
FT$DDT.FUNNYPOS
      9420**DCL     12566>>IF
FT$DDT.NOWANS
      9404**DCL     12560>>IF
FT$DDT.POS
      9415**DCL     12580>>DOCASE  12587>>CALLBLT
FT$DDT.POSLOST
      9408**DCL     12562>>IF
FT$DDT.RINGIN
      9401**DCL     12556>>IF
FT$DDT.SCRTCH
      9399**DCL     12552>>IF
FT$DDT.SN
      9386**DCL     12536>>ASSIGN
FT$DDT.SOLICIT
      9417**DCL     12571>>DOCASE  12577>>CALLBLT
FT$DDT.VOLACCESS
      9433**DCL     12593>>DOCASE  12598>>CALLBLT
FT$DDT.WRITE
      9402**DCL     12558>>IF
G$
      9116**DCL     12760<>CALL    12761>>CALL
GATE
      9117**DCL     12761<>CALL
GATE$
      9115**DCL     12759<<ASSIGN  12760<>CALL
GATFMT
      9128**DCL     12137--CALL    12762--CALL
HD$
      9136**DCL     12396>>ASSIGN  12406>>ASSIGN
HD$$
      9019**DCL      9136--IMP-PTR 12391<>CALL    12392<>CALL    12392<>CALL    12396>>ASSIGN  12406>>ASSIGN
HEADER1
      9065**DCL     11747<<ASSIGN  11915>>IF      11925<<ASSIGN
PL6.E3A0      #001=DAD$DCT File=DAD$DCT.:E05TSI                                  TUE 07/29/97 12:42 Page:262
HEADER2
      9066**DCL     11748<<ASSIGN  11945>>IF      11950<<ASSIGN
HEADER3
      9067**DCL     11749<<ASSIGN  11971>>IF      11976<<ASSIGN
HEADER4
      9068**DCL     11750<<ASSIGN  11992>>IF      11997<<ASSIGN
HEADER5
      9069**DCL     11751<<ASSIGN  12018>>IF      12023<<ASSIGN
I
      9057**DCL     11768<<DOINDEX 11769>>IF      11770>>CALL    11771>>ASSIGN  11781<<DOINDEX 11782>>DOCASE
     11786>>CALL    11808>>CALL    12179<<DOINDEX 12181>>ASSIGN  12189<<DOINDEX 12190>>DOCASE  12192>>CALL
     12206>>CALL    12208>>CALL    12292<<DOINDEX 12294>>ASSIGN  12362<<DOINDEX 12363>>CALL    12395<<DOINDEX
     12396>>ASSIGN  12405<<DOINDEX 12406>>ASSIGN  12475<<DOINDEX 12484<>CALL    12485>>IF      12485>>IF
     12530>>CALL    12535>>ASSIGN  12621<<DOINDEX 12622>>CALL    12649<<DOINDEX 12736<<DOINDEX 12737>>IF
     12737>>ASSIGN  12739>>ASSIGN  12741>>CALL    12741--CALL    12747>>CALL    12747--CALL
IC
      9609**DCL     12702<<ASSIGN  12703<>CALL
IOCHAN
      9078**DCL     12078--CALL
IOCHAN.CHAN
      9080**DCL     12057<<ASSIGN  12062<<ASSIGN
IOCHAN.DVN
      9081**DCL     12054<<ASSIGN
IOCHAN.IOM
      9079**DCL     12056<<ASSIGN  12061<<ASSIGN
IOF
      9037**DCL     12691<<ASSIGN  12718--CALL
IOM.ADDRESS
      9226**DCL     12365>>ASSIGN
IOM.CONNCT
      9227**DCL     12378--CALL
IOM.ERRCNCT
      9227**DCL     12378--CALL
IOM.FLTBUF
      9226**DCL     12378--CALL
IOM.IOM#
PL6.E3A0      #001=DAD$DCT File=DAD$DCT.:E05TSI                                  TUE 07/29/97 12:42 Page:263
      9225**DCL     12364>>ASSIGN
IOM.LASTCON
      9225**DCL     12366>>ASSIGN
IOM.MBX$
      9225**DCL     12378--CALL
IOM.NEXTF
      9225**DCL     12367>>ASSIGN
IOM.NEXTS
      9225**DCL     12368>>ASSIGN
IOM.SPECBUF
      9227**DCL     12378--CALL
IOM.STATUS.DOWN
      9226**DCL     12369>>ASSIGN
IOM#
      9027**DCL     12364<<ASSIGN  12378--CALL
IOM$
      9026**DCL      9225--IMP-PTR 12363<>CALL    12364>>ASSIGN  12365>>ASSIGN  12366>>ASSIGN  12367>>ASSIGN
     12368>>ASSIGN  12369>>ASSIGN  12378>>CALL    12378>>CALL    12378>>CALL    12378>>CALL    12378>>CALL
IOMFMT
     11709**DCL     12378--CALL
IOMRPT
     11574**DCL     12355<>CALL
IOMRPTHD00
     11641**DCL     11609--DCLINIT
IOMRPTHD01
     11684**DCL     11656--DCLINIT
IOMRPTTX00
     11617**DCL     11604--DCLINIT
IOMRPTTX01
     11659**DCL     11649--DCLINIT
IOMRPTTX02
     11702**DCL     11692--DCLINIT
IOMS
      9056**DCL     12174<<ASSIGN  12179>>DOINDEX 12193>>IF      12207>>IF      12270<<ASSIGN  12292>>DOINDEX
     12358<<ASSIGN  12362>>DOINDEX
IOQ$
PL6.E3A0      #001=DAD$DCT File=DAD$DCT.:E05TSI                                  TUE 07/29/97 12:42 Page:264
      9035**DCL     12642<>CALL    12643<>CALL    12647<<ASSIGN  12648<>CALL    12652<<ASSIGN  12652>>ASSIGN
     12663<<ASSIGN  12664<>CALL    12675<>CALL    12676<<ASSIGN  12676>>ASSIGN  12679>>IF      12680<>CALL
     12682>>IF      12683<<ASSIGN  12718--CALL
IOQFMT
     11330**DCL     12718--CALL
IOQRPT
     11195**DCL     12612<>CALL
IOQRPTHD00
     11262**DCL     11230--DCLINIT
IOQRPTHD01
     11305**DCL     11277--DCLINIT
IOQRPTTX00
     11238**DCL     11225--DCLINIT
IOQRPTTX01
     11280**DCL     11270--DCLINIT
IOQRPTTX02
     11323**DCL     11313--DCLINIT
IOS$
      9040**DCL     12694<<ASSIGN  12718--CALL
IOSTATE
      9613**DCL     12064>>ASSIGN  12230>>ASSIGN
J
      9058**DCL     11786<>CALL    11787>>IF      11787>>IF      11796>>ASSIGN  11797>>ASSIGN  11799>>ASSIGN
     11805<<DOINDEX 11806>>IF      11807>>CALL    11810>>ASSIGN  12180<<DOINDEX 12181>>ASSIGN  12197<<DOINDEX
     12198>>ASSIGN  12208<>CALL    12209>>IF      12213>>ASSIGN  12293<<DOINDEX 12294>>ASSIGN  12481<<DOINDEX
     12482>>DOCASE  12484>>CALL    12739<<ASSIGN  12740>>IF      12747--CALL
JUSTRET IN PROCEDURE DISPDDT_I
     12602**LABEL   12530--CALLALT 12533--CALLALT
K
      9059**DCL     12301<<DOINDEX 12302>>IF
LASTCON
      9029**DCL     12366<<ASSIGN  12378--CALL
LDCT
      9242**DCL     11796--ASSIGN
LDCT.ACCTNG
      9252**DCL     11903>>IF
PL6.E3A0      #001=DAD$DCT File=DAD$DCT.:E05TSI                                  TUE 07/29/97 12:42 Page:265
LDCT.BKPND
      9264**DCL     12007--CALL
LDCT.CG$
      9273**DCL     11960--CALL
LDCT.CLDQ
      9256**DCL     11899>>ASSIGN
LDCT.DCBNO
      9266**DCL     12007--CALL
LDCT.DDT$
      9244**DCL      9244--REDEF
LDCT.DEVNM
      9244**DCL     11887>>CALLBLT
LDCT.DFLG
      9246**DCL     11888>>ASSIGN  12140>>ASSIGN
LDCT.GENERATION
      9265**DCL     11891>>ASSIGN
LDCT.IOQ$
      9243**DCL      9244--REDEF   11986--CALL
LDCT.IP$
      9264**DCL     11986--CALL
LDCT.IPFEI#
      9265**DCL     11986--CALL
LDCT.JLNKCNT
      9273**DCL     12034--CALL
LDCT.LDCTX
      9245**DCL      9245--REDEF   11936--CALL    11960--CALL    11986--CALL    12007--CALL    12034--CALL
LDCT.LKFLG
      9257**DCL     11889>>ASSIGN  12148>>ASSIGN
LDCT.LKFLG.ABORTED
      9257**DCL      9258--REDEF
LDCT.LNK$
      9244**DCL     11986--CALL
LDCT.LOCK
      9270**DCL     11905--ASSIGN  11906--ASSIGN
LDCT.LOGON_ACCT
      9272**DCL     12034--CALL
PL6.E3A0      #001=DAD$DCT File=DAD$DCT.:E05TSI                                  TUE 07/29/97 12:42 Page:266
LDCT.NOCGINF
      9251**DCL     11898>>IF
LDCT.NOCGREJ
      9251**DCL     11897>>IF
LDCT.NOWAIT.DCB#
      9254**DCL     12034--CALL
LDCT.NOWAIT.DMN
      9253**DCL     12026>>ASSIGN
LDCT.NOWAIT.STREAM
      9253**DCL     12034--CALL
LDCT.QFL
      9254**DCL     11890>>ASSIGN  12156>>ASSIGN
LDCT.RAT$
      9245**DCL     11986--CALL
LDCT.RDSOUT
      9251**DCL     11901>>ASSIGN
LDCT.RESCOD
      9250**DCL     11893>>IF      11894>>ASSIGN  11895>>CALLBLT
LDCT.RLCID.GENERATION
      9266**DCL     11936--CALL
LDCT.RLCID.LDCTX
      9267**DCL      9267--REDEF   11936--CALL
LDCT.RLCID.NODE
      9266**DCL     11936--CALL
LDCT.STA$
      9263**DCL      9264--REDEF   11960--CALL
LDCT.SYMB$
      9242**DCL      9242--REDEF    9242--REDEF    9243--REDEF   11986--CALL
LDCT.SYSID
      9263**DCL     12007--CALL
LDCT.TCTLCNT
      9272**DCL     12034--CALL
LDCT.TCTX#
      9252**DCL     12007--CALL
LDCT.TERMID.CHAN
      9271**DCL     12007--CALL
PL6.E3A0      #001=DAD$DCT File=DAD$DCT.:E05TSI                                  TUE 07/29/97 12:42 Page:267
LDCT.TERMID.LEV
      9270**DCL     12007--CALL
LDCT.TERMID.SUB
      9271**DCL     12007--CALL
LDCT.TERMID.SUBSUB
      9271**DCL     12007--CALL
LDCT.TERMID.TTYP
      9270**DCL     12007--CALL
LDCT.TH.MAXNMBBYT
      9269**DCL     11960--CALL
LDCT.TH.MAXNMBRCR
      9268**DCL     11960--CALL
LDCT.TH.MAXRCRBYTSIZ
      9269**DCL     11960--CALL
LDCT.TH.STR
      9268**DCL     11960--CALL
LDCT.UDCBNO
      9267**DCL     12007--CALL
LDCT.USER
      9252**DCL     11936--CALL
LDCTFMT1
     10175**DCL     11936--CALL
LDCTFMT2
     10403**DCL     11960--CALL
LDCTFMT3
     10413**DCL     11986--CALL
LDCTFMT4
     10423**DCL     12007--CALL
LDCTFMT5
     10433**DCL     12034--CALL
LDCTRPT
     10036**DCL     11918<>CALL
LDCTRPT2HD00
     10333**DCL     10300--DCLINIT
LDCTRPT2HD01
     10377**DCL     10348--DCLINIT
PL6.E3A0      #001=DAD$DCT File=DAD$DCT.:E05TSI                                  TUE 07/29/97 12:42 Page:268
LDCTRPT2TX00
     10351**DCL     10341--DCLINIT
LDCTRPT2TX00.C
     10353**DCL     11948--CALL
LDCTRPT2TX01
     10395**DCL     10385--DCLINIT
LDCTRPT2TX01.C
     10397**DCL     11949--CALL
LDCTRPT30
     10407**DCL     11974--CALL
LDCTRPT31
     10410**DCL     11975--CALL
LDCTRPT40
     10417**DCL     11995--CALL
LDCTRPT41
     10420**DCL     11996--CALL
LDCTRPT50
     10427**DCL     12021--CALL
LDCTRPT51
     10430**DCL     12022--CALL
LDCTRPTHD00
     10105**DCL     10071--DCLINIT
LDCTRPTHD01
     10149**DCL     10120--DCLINIT
LDCTRPTTX00
     10079**DCL     10066--DCLINIT
LDCTRPTTX01
     10123**DCL     10113--DCLINIT
LDCTRPTTX01.C
     10125**DCL     11922--CALL
LDCTRPTTX02
     10167**DCL     10157--DCLINIT
LDCTRPTTX02.C
     10169**DCL     11923--CALL
LDCTRPT_NHDR
      9967**DCL     11920<>CALL
PL6.E3A0      #001=DAD$DCT File=DAD$DCT.:E05TSI                                  TUE 07/29/97 12:42 Page:269
LDCTRPT_NHDRTX00
     10010**DCL      9997--DCLINIT
LDCT_GEN
      9098**DCL     11891<<ASSIGN  11936--CALL
LDCT_TYPE
      9062**DCL     11766<<ASSIGN  11779<<ASSIGN  11829>>IF      11917>>IF
LKFLAG.F IN PROCEDURE DISP_A_LDCT
     12091**DCL     12148<<ASSIGN  12150--CALL    12151<<ASSIGN  12151>>ASSIGN  12153--CALL
LKFLG
      9107**DCL     11889<<ASSIGN  11936--CALL
LKFLG_TEXT IN PROCEDURE DISP_A_LDCT
     12115**DCL     12150--CALL    12153--CALL
LKFLG_TEXT.SREST IN PROCEDURE DISP_A_LDCT
     12115**DCL     12149<<ASSIGN  12152<<ASSIGN
LOCK
      9123**DCL     11867<<ASSIGN  11869<<ASSIGN  11881--CALL
LOSTINT
      9094**DCL     12231<<ASSIGN  12259--CALL
LQ$
      9126**DCL     11870<<ASSIGN  11881--CALL
L_LOCK
      9104**DCL     12136<>CALL
L_LOCK.W1
      9105**DCL     11905<<ASSIGN  12034--CALL
L_LOCK.W2
      9106**DCL     11906<<ASSIGN  12034--CALL
MAX_PASS
      9064**DCL     11767<<ASSIGN  11780<<ASSIGN  11822>>IF
MDCTFMT
      9946**DCL     11881--CALL
MDCTRPT
      9811**DCL     11756<>CALL
MDCTRPTHD00
      9878**DCL      9846--DCLINIT
MDCTRPTHD01
      9921**DCL      9893--DCLINIT
PL6.E3A0      #001=DAD$DCT File=DAD$DCT.:E05TSI                                  TUE 07/29/97 12:42 Page:270
MDCTRPTTX00
      9854**DCL      9841--DCLINIT
MDCTRPTTX01
      9896**DCL      9886--DCLINIT
MDCTRPTTX02
      9939**DCL      9929--DCLINIT
MDCTX
      9124**DCL     11862<<ASSIGN  11881--CALL
MIR
      9125**DCL     11857<<ASSIGN  11859<<ASSIGN  11861<<ASSIGN  11881--CALL
MIR_STATE
     11719**DCL     11863>>ASSIGN
MPS
      9045**DCL     12737<<ASSIGN  12738<<ASSIGN  12741--CALL    12747--CALL
MPSTATE
     11718**DCL     12737>>ASSIGN
MPSTATE$
      9041**DCL     12727<>CALL    12731<>CALL    12731<>CALL    12737>>IF      12737>>ASSIGN
MREC
      9096**DCL     12233<<ASSIGN  12259--CALL
MSG
      9087**DCL     12066<<ASSIGN  12078--CALL
MXLOCAL
      9054**DCL     11732<<ASSIGN  11743>>ASSIGN  11752>>ASSIGN  11758>>ASSIGN
MXTOTAL
      9055**DCL     11735<<ASSIGN  11753>>ASSIGN
N IN PROCEDURE DISQH
     12318**DCL     12321<<ASSIGN  12323<<ASSIGN  12348--CALL
N$DCT$
      9135**DCL     11769>>IF      11770<>CALL    11771>>ASSIGN  11797>>ASSIGN  11799>>ASSIGN  11806>>IF
     11807<>CALL    11810>>ASSIGN  12283>>IF      12284<>CALL    12435>>ASSIGN  12530<>CALL    12622<>CALL
N$REQ
      9284**DCL     12651--ASSIGN  12652--ASSIGN
N$REQ.BPMIR
      9329**DCL     12697>>IF
N$REQ.BUF$
PL6.E3A0      #001=DAD$DCT File=DAD$DCT.:E05TSI                                  TUE 07/29/97 12:42 Page:271
      9293**DCL     12718--CALL
N$REQ.BUFADDR
      9293**DCL      9294--REDEF    9294--REDEF
N$REQ.DCB$
      9315**DCL     12718--CALL
N$REQ.DLA.DCTX
      9284**DCL     12690>>ASSIGN
N$REQ.DLA.DRELADDR
      9285**DCL      9285--REDEF
N$REQ.DOMIR
      9328**DCL     12698>>IF
N$REQ.DVE.EOMCHAR
      9322**DCL      9323--REDEF
N$REQ.EAENTRY
      9315**DCL     12702--ASSIGN
N$REQ.EAINFO
      9316**DCL      9316--REDEF
N$REQ.EAINFOX
      9316**DCL      9317--REDEF
N$REQ.EVNTINFO
      9317**DCL      9317--REDEF
N$REQ.FC
      9287**DCL     12693>>ASSIGN
N$REQ.FL$
      9284**DCL     12700--ASSIGN
N$REQ.IOFLG
      9288**DCL     12691>>ASSIGN
N$REQ.IOS$
      9297**DCL     12694>>ASSIGN
N$REQ.MIRDONE
      9329**DCL     12699>>IF
N$REQ.OPFLG
      9290**DCL     12692>>ASSIGN
N$REQ.OPFLG.EA
      9291**DCL     12701>>IF
N$REQ.STATUS
PL6.E3A0      #001=DAD$DCT File=DAD$DCT.:E05TSI                                  TUE 07/29/97 12:42 Page:272
      9298**DCL      9304--REDEF   12718--CALL
N$REQ.USER#
      9318**DCL     12695>>ASSIGN
NDCT
      9047**DCL     11744<<ASSIGN  11754<<ASSIGN  11759<<ASSIGN  11808<>CALL    12467<<ASSIGN  12475>>DOINDEX
     12485>>IF      12617<<ASSIGN  12621>>DOINDEX 12646<<ASSIGN  12649>>DOINDEX
NEXTF
      9030**DCL     12367<<ASSIGN  12378--CALL
NEXTS
      9031**DCL     12368<<ASSIGN  12378--CALL
NEXT_DCT
      9025**DCL     12280<<ASSIGN  12282>>DOWHILE 12283>>IF      12284>>CALL    12288<<ASSIGN  12288>>ASSIGN
     12304>>IF      12305<<ASSIGN  12305>>ASSIGN
NEXT_SORTED_ONE
     12292**LABEL   12309--GOTO
NK_RESCOD_TXT
      9629**DCL     11894>>ASSIGN
NOCGI
      9100**DCL     11898<<ASSIGN  11898<<ASSIGN  11960--CALL
NOCGR
      9099**DCL     11897<<ASSIGN  11897<<ASSIGN  11960--CALL
NOEA IN PROCEDURE DIIOQ
     12707**LABEL   12703--CALLALT
NOYES
      9611**DCL     12066>>ASSIGN  12067>>ASSIGN  12228>>ASSIGN  12232>>ASSIGN  12233>>ASSIGN  12369>>ASSIGN
NSCPU$
      9043**DCL     12730<>CALL    12734<>CALL    12734<>CALL    12736>>DOINDEX
NSQHS
      9024**DCL     12279<<ASSIGN  12301>>DOINDEX 12306<<ASSIGN  12306>>ASSIGN  12307>>ASSIGN
NXTDCT
     11773**LABEL   11770--CALLALT
NXTDCT1
     12638**LABEL   12622--CALLALT
NXTDCTN
     11812**LABEL   11807--CALLALT 11808--CALLALT
NXTDCTX
PL6.E3A0      #001=DAD$DCT File=DAD$DCT.:E05TSI                                  TUE 07/29/97 12:42 Page:273
     11816**LABEL   11798--CALLALT
NXTNODE
     12214**LABEL   12193--CALLALT 12207--CALLALT 12209--CALLALT
OPF
      9038**DCL     12692<<ASSIGN  12718--CALL
OUT
      9448**DCL     11786<>CALL    12192<>CALL    12206<>CALL    12208<>CALL    12484<>CALL    12656<>CALL
     12758<>CALL
OUT.CODE
      9456**DCL     11782>>DOCASE  11832>>IF      12190>>DOCASE  12406>>ASSIGN  12482>>DOCASE  12641>>IF
     12657>>IF
OUT.SUBLK$
      9481**DCL     11786>>CALL    11808>>CALL    12192>>CALL    12206>>CALL    12208>>CALL    12484>>CALL
     12656>>CALL    12758>>CALL
P.WA
      9436**DCL     12052>>ASSIGN  12700>>ASSIGN
P$
      9046**DCL     11730<>CALL    11731<>CALL    11731<>CALL    11732>>ASSIGN  11733<>CALL    11734<>CALL
     11734<>CALL    11735>>ASSIGN  12049<>CALL    12050>>ASSIGN  12172<>CALL    12173<>CALL    12173<>CALL
     12174>>ASSIGN  12175<>CALL    12176<>CALL    12176<>CALL    12177>>ASSIGN  12268<>CALL    12269<>CALL
     12269<>CALL    12270>>ASSIGN  12271<>CALL    12272<>CALL    12272<>CALL    12273>>ASSIGN  12356<>CALL
     12357<>CALL    12357<>CALL    12358>>ASSIGN  12360<>CALL    12361<>CALL    12361<>CALL    12363>>CALL
     12465<>CALL    12466<>CALL    12466<>CALL    12467>>ASSIGN  12615<>CALL    12616<>CALL    12616<>CALL
     12617>>ASSIGN  12656<>CALL    12658<>CALL    12658<>CALL    12659<<ASSIGN  12659>>ASSIGN  12660<>CALL
     12663>>ASSIGN  12758<>CALL    12759>>ASSIGN
PASS
      9063**DCL     11746<<ASSIGN  11822>>IF      11824<<ASSIGN  11824>>ASSIGN  11913>>IF      11943>>IF
     11969>>IF      11990>>IF      12016>>IF
PCU$
      9044**DCL     12729<>CALL    12733<>CALL    12733<>CALL    12739>>ASSIGN
POFF_BASED IN PROCEDURE DISPRAT
     12433**DCL     12454>>ASSIGN
PORTNR$
      9042**DCL     12728<>CALL    12732<>CALL    12732<>CALL    12741>>CALL    12747>>CALL
PTR$
      9133**DCL     11737>>ASSIGN  12177>>ASSIGN  12273>>ASSIGN  12277>>ASSIGN  12389>>ASSIGN  12463>>ASSIGN
PL6.E3A0      #001=DAD$DCT File=DAD$DCT.:E05TSI                                  TUE 07/29/97 12:42 Page:274
     12619>>ASSIGN  12647>>ASSIGN  12659>>ASSIGN  12676>>ASSIGN  12683>>ASSIGN
PTRS$
      9134**DCL     12363<>CALL
Q$
      9036**DCL     12643<>CALL    12647>>ASSIGN  12648<>CALL    12651<<ASSIGN  12651>>ASSIGN  12664<>CALL
     12680<>CALL    12683>>ASSIGN  12690>>ASSIGN  12691>>ASSIGN  12692>>ASSIGN  12693>>ASSIGN  12694>>ASSIGN
     12695>>ASSIGN  12697>>IF      12698>>IF      12699>>IF      12700>>ASSIGN  12701>>IF      12702>>ASSIGN
     12718>>CALL    12718>>CALL    12718>>CALL
QFL
      9108**DCL     11890<<ASSIGN  11936--CALL
QFLAG.F IN PROCEDURE DISP_A_LDCT
     12095**DCL     12156<<ASSIGN  12158--CALL    12159<<ASSIGN  12159>>ASSIGN  12161--CALL
QFL_TEXT IN PROCEDURE DISP_A_LDCT
     12128**DCL     12158--CALL    12161--CALL
QFL_TEXT.SREST IN PROCEDURE DISP_A_LDCT
     12128**DCL     12157<<ASSIGN  12160<<ASSIGN
QQ$ IN PROCEDURE RUNIOQ
     12672**DCL     12671--PROC    12675<>CALL    12682>>IF
RAT IN PROCEDURE DISPRAT
     12417**DCL     12455--CALL
RAT.ACTX IN PROCEDURE DISPRAT
     12424**DCL     12445<<ASSIGN
RAT.ADR IN PROCEDURE DISPRAT
     12432**DCL     12454<<ASSIGN
RAT.ASID IN PROCEDURE DISPRAT
     12427**DCL     12448<<ASSIGN
RAT.DEVNM IN PROCEDURE DISPRAT
     12418**DCL     12436<<ASSIGN  12439<<ASSIGN
RAT.FLG IN PROCEDURE DISPRAT
     12431**DCL     12453<<ASSIGN
RAT.M1 IN PROCEDURE DISPRAT
     12422**DCL     12442<<ASSIGN
RAT.M2 IN PROCEDURE DISPRAT
     12423**DCL     12443<<ASSIGN
RAT.NUMB IN PROCEDURE DISPRAT
     12420**DCL     12444<<ASSIGN
PL6.E3A0      #001=DAD$DCT File=DAD$DCT.:E05TSI                                  TUE 07/29/97 12:42 Page:275
RAT.RCOD IN PROCEDURE DISPRAT
     12426**DCL     12447<<ASSIGN
RAT.RFLG IN PROCEDURE DISPRAT
     12425**DCL     12446<<ASSIGN
RAT.SER IN PROCEDURE DISPRAT
     12428**DCL     12449<<ASSIGN
RAT.SISID IN PROCEDURE DISPRAT
     12421**DCL     12441<<ASSIGN
RAT.SOLU IN PROCEDURE DISPRAT
     12430**DCL     12452<<ASSIGN
RAT.SSER IN PROCEDURE DISPRAT
     12429**DCL     12450<<ASSIGN
RAT.TYP IN PROCEDURE DISPRAT
     12419**DCL     12451<<ASSIGN
RAT$
      9033**DCL      9335--IMP-PTR 12396<<ASSIGN  12397>>DOWHILE 12398<>CALL    12398<>CALL    12400<<ASSIGN
     12400>>ASSIGN  12406<<ASSIGN  12407>>DOWHILE 12408<>CALL    12408<>CALL    12410<<ASSIGN  12410>>ASSIGN
     12435>>ASSIGN  12441>>ASSIGN  12442>>ASSIGN  12443>>ASSIGN  12444>>ASSIGN  12445>>ASSIGN  12446>>ASSIGN
     12447>>ASSIGN  12448>>ASSIGN  12449>>ASSIGN  12450>>ASSIGN  12451>>ASSIGN  12452>>ASSIGN  12453>>ASSIGN
     12454--ASSIGN
RATALT
     12414**LABEL   12387--CALLALT 12388--CALLALT 12390--CALLALT 12391--CALLALT 12392--CALLALT 12398--CALLALT
     12408--CALLALT
RATFMT
     10747**DCL     12455--CALL
RATRPT
     10612**DCL     12393<>CALL
RATRPTHD00
     10679**DCL     10647--DCLINIT
RATRPTHD01
     10722**DCL     10694--DCLINIT
RATRPTTX00
     10655**DCL     10642--DCLINIT
RATRPTTX01
     10697**DCL     10687--DCLINIT
RATRPTTX02
PL6.E3A0      #001=DAD$DCT File=DAD$DCT.:E05TSI                                  TUE 07/29/97 12:42 Page:276
     10740**DCL     10730--DCLINIT
RDSOUT
      9109**DCL     11901<<ASSIGN  11960--CALL
RESCOD
      9097**DCL     11894<<ASSIGN  11895<<CALLBLT 11936--CALL
RUNIOQ
     12671**PROC    12625--CALL    12630--CALL    12635--CALL    12660--CALL
SBINWORD
      9130**DCL     11732>>ASSIGN  11735>>ASSIGN  12174>>ASSIGN  12270>>ASSIGN  12358>>ASSIGN  12467>>ASSIGN
     12617>>ASSIGN  12646>>ASSIGN  12736>>DOINDEX
SETERR
     12765**PROC    12193--CALL    12207--CALL    12209--CALL    12219--CALL
SQ
      9075**DCL     12052<<ASSIGN  12078--CALL    12700<<ASSIGN  12718--CALL
SQH.AQ$
      9221**DCL     12348--CALL
SQH.CQ$
      9221**DCL     12348--CALL
SQH.DOOR
      9220**DCL      9220--REDEF
SQH.FDCT
      9220**DCL     12304>>IF      12348--CALL
SQH.GATE.LOCK
      9220**DCL     12340>>IF
SQH.MPC$
      9222**DCL     12323>>IF      12324>>IF      12327>>ASSIGN  12348--CALL
SQH.NDCT
      9221**DCL     12305>>ASSIGN  12348--CALL
SQH$
      9022**DCL      9220--IMP-PTR 12298<<ASSIGN  12299>>IF      12300<>CALL    12300<>CALL    12302>>IF
     12304>>IF      12305>>ASSIGN  12307>>ASSIGN  12323>>IF      12324>>IF      12327>>ASSIGN  12340>>IF
     12348>>CALL    12348>>CALL    12348>>CALL    12348>>CALL    12348>>CALL
SQHFMT
     11554**DCL     12348--CALL
SQHRPT
     11419**DCL     12267<>CALL
PL6.E3A0      #001=DAD$DCT File=DAD$DCT.:E05TSI                                  TUE 07/29/97 12:42 Page:277
SQHRPTHD00
     11486**DCL     11454--DCLINIT
SQHRPTHD01
     11529**DCL     11501--DCLINIT
SQHRPTTX00
     11462**DCL     11449--DCLINIT
SQHRPTTX01
     11504**DCL     11494--DCLINIT
SQHRPTTX02
     11547**DCL     11537--DCLINIT
SQHS$
      9023**DCL     12302>>IF      12307<<ASSIGN
STATE
      9085**DCL     11863<<ASSIGN  11881--CALL    12064<<ASSIGN  12078--CALL    12230<<ASSIGN  12259--CALL
STATUS
      9088**DCL     12078--CALL    12259--CALL
STATUS.DOWN
      9089**DCL     12067<<ASSIGN  12228<<ASSIGN  12369<<ASSIGN  12378--CALL
STATUS.TND
      9090**DCL     12068<<ASSIGN  12229<<ASSIGN
STOP
      9095**DCL     12232<<ASSIGN  12259--CALL
SYM.COUNT
      9517**DCL      9520--IMP-SIZ 11808<>CALL
TDTST
      9612**DCL     12068>>ASSIGN  12229>>ASSIGN
TDUSER
      9086**DCL     11865<<ASSIGN  11881--CALL    12065<<ASSIGN  12078--CALL    12695<<ASSIGN  12718--CALL
TH.C
      9605**DCL     12718--CALL
TH.L
      9604**DCL      9605--IMP-SIZ 12718>>CALL
TH$
      9602**DCL      9603--IMP-PTR 12704<<ASSIGN  12707<<ASSIGN  12718>>CALL    12718>>CALL
THIS_SQH
     12296**LABEL   12302--EXIT    12304--EXIT
PL6.E3A0      #001=DAD$DCT File=DAD$DCT.:E05TSI                                  TUE 07/29/97 12:42 Page:278
TOP
      3123**DCL         9--PROC    11723--ENTRY   11726--ENTRY   12170--ENTRY   12265--ENTRY   12353--ENTRY
     12386--ENTRY   12459--ENTRY   12611--ENTRY   12757--ENTRY
TOP.NSUBLKS
      3135**DCL     11764>>IF      11781>>DOINDEX 11829>>IF      12179>>IF      12189>>DOINDEX 12394>>IF
     12405>>DOINDEX 12473>>IF      12481>>DOINDEX 12613>>IF
TOP.SUBLK$
      3156**DCL     11782>>DOCASE  11786>>CALL    11808>>CALL    11832>>IF      12190>>DOCASE  12192>>CALL
     12206>>CALL    12208>>CALL    12406>>ASSIGN  12482>>DOCASE  12484>>CALL    12641>>IF      12656>>CALL
     12657>>IF      12758>>CALL
TYPE IN PROCEDURE DISQH
     12319**DCL     12322<<ASSIGN  12325<<ASSIGN  12331<<ASSIGN  12333<<ASSIGN  12335<<ASSIGN  12337<<ASSIGN
     12340<<CALLBLT 12340>>CALLBLT 12348--CALL
UARAY
      9132**DCL     12737>>IF      12737>>ASSIGN  12739>>ASSIGN  12741--CALL    12747--CALL
UBINHALF
      9131**DCL     12702>>ASSIGN
UPPER
     11714**DCL     12340>>CALLBLT
UTS
      9127**DCL     11864<<ASSIGN  11881--CALL
X IN PROCEDURE RUNIOQ
     12673**DCL     12677<<ASSIGN  12678>>DOWHILE 12684<<ASSIGN  12684>>ASSIGN
