VERSION E05

 12:44 07/29/97  FILE=DAD$FRAMEXT.:E05TSI                                                                1    BMAP - B00
                                         1  *M* BMAP ROUTINE
                                         2  *T***********************************************************
                                         3  *T*                                                         *
                                         4  *T* Copyright (c) Bull HN Information Systems Inc., 1997    *
                                         5  *T*                                                         *
                                         6  *T***********************************************************
                                         7  *
                                         8  *D* This routine's sole purpose in life is to setup $X1 with
                                         9  *   the size to extend the current frame size
                                        10  *
                                        11  * Defs
                                        12  *
 0 000000                               13           USE       DAD$FR,1
                                        14           ENTDEF    DAD$FREXT
                                        15           ENTDEF    DAD$FRREL
                                        16           ENTREF    X66_FRAME_EXT
                                        17           ENTREF    X66_FRAME_KEXT
             000000000000               18  PR0      EQU       0
             000000000001               19  PR1      EQU       1
             000000000001               20  X1       EQU       1
   000000                               21  DAD$FREXT NULL
   000000 (0)000016 7410 00             22           STX1      RET_IC           SAVE THE RETURN ADDRESS
   000001    0 00000 4715 00            23           LDP1      0,,PR0           GET THE SIZE POINTER
   000002    1 00000 7211 00            24           LXL1      0,,PR1           GET THE FRAME EXTENSION SIZE
   000003  X 000000 7000 00             25           TSX0      X66_FRAME_EXT    CALL X66 ROUTINE TO EXTEND FRAME
   000004 (0)000007 7100 00             26           TRA       ALTRET
   000005 (0)000016 2210 00             27           LDX1      RET_IC           RESTORE THE RETURN ADDRESS
   000006    000001 7100 11             28           TRA       1,X1             NORMAL RETURN
   000007                               29  ALTRET   NULL
   000007 (0)000016 2210 00             30           LDX1      RET_IC           RESTORE THE RETURN ADDRESS
   000010    000000 7100 11             31           TRA       0,X1             ALTRETURN
   000011                               32  DAD$FRREL NULL
   000011 (0)000016 7410 00             33           STX1      RET_IC           SAVE RETURN ADDRESS
   000012  X 000000 7000 00             34           TSX0      X66_FRAME_KEXT   UNDO FRAME EXTENSION
   000013    000000 0110 00             35           NOP       0
   000014 (0)000016 2210 00             36           LDX1      RET_IC           RESTORE RETURN ADDRESS
   000015    000001 7100 11             37           TRA       1,1              RETURN
 12:44 07/29/97  FILE=DAD$FRAMEXT.:E05TSI                                                                2    BMAP - B00
   000016                               38           USE       DAD$FR,0
   000016    000000000000               39  RET_IC   OCT       0
                                        40           END

  CONTROL SECTION TABLE

   0 DATA   EVEN  000017 DAD$FR
   1 RODATA EVEN  000000 LITERALS

 12:44 07/29/97  FILE=DAD$FRAMEXT.:E05TSI     SYMBOL TABLE                                               3    BMAP - B00
 01101000 000000000007 ALTRET          26       *29
 12101000 000000000000 DAD$FREXT       14       *21
 12101000 000000000011 DAD$FRREL       15       *32
 41000000 000000000000 PR0            *18        23
 41000000 000000000001 PR1            *19        24
 01101000 000000000016 RET_IC          22        27        30        33        36       *39
 40000000 000000000001 X1             *20
 03201000 000000000000 X66_FRAME_EXT  *16        25
 03201001 000000000000 X66_FRAME_KEXT           *17        34

       9 SYMBOLS

       0 MACROS

    SYMBOL SPACE USED   113 WORDS
     MACRO SPACE USED     0 WORDS
   INPUT RECORDS READ    80
 STATEMENTS PROCESSED    38
         ELAPSED TIME  0:00.72
             CPU TIME     0.40 SEC.
        ASSEMBLY RATE  5700 STATEMENTS/CPU MIN.

      NO ERRORS

