VERSION E05

PL6.E3A0      #001=DAD$IOC File=DAD$IOC.:E05TSI                                  TUE 07/29/97 12:44 Page:1
        1        1        /*M* DAD$IOC - IOC display for ANLZ */
        2        2        /*T***********************************************************/
        3        3        /*T*                                                         */
        4        4        /*T* Copyright (c) Bull HN Information Systems Inc., 1997    */
        5        5        /*T*                                                         */
        6        6        /*T***********************************************************/
        7        7        /*X* DDA */
        8        8        DAD$IOC: PROC(TOP);
        9        9               %INCLUDE DA_CMD_C;
       10      358               %INCLUDE DA_FORMAT_C;
       11      600               %INCLUDE DA_MAP_R;
       12      630               %INCLUDE DA_PERR_C;
       13      694               %INCLUDE DA_TEXTC_C;
       14      725        %INCLUDE DA_MONSYM_C;
       15      776               %INCLUDE FM_CACHE_C;
       16      842               %INCLUDE XU_MACRO_C;
       17     3948        /* */
       18     3949               %PARSE$OUT(NAME=TOP, STCLASS="");
       19     3994        /* */
       20     3995               %PARSE$OUT(NAME=OUT, STCLASS=BASED);
       21     4040    1          DCL PTR$ PTR BASED;
       22     4041    1          DCL WRD UBIN BASED;
       23     4042        /* */
       24     4043    1          DCL DAA$VALUE ENTRY(3) ALTRET;
       25     4044    1          DCL DAF$INIT ENTRY(1) ALTRET;
       26     4045    1          DCL DAF$WRITE EPTR SYMREF;
       27     4046    1          DCL DAM$MAP ENTRY(5) ALTRET;
       28     4047    1          DCL DAS$SDMONPTR ENTRY(2) ALTRET;
       29     4048        /* */
       30     4049    1          DCL STATFLG SBIN;
       31     4050    1          DCL CACHEFLG SBIN;
       32     4051    1          DCL I SBIN;
       33     4052    1          DCL J SBIN;
       34     4053    1          DCL N1 SBIN;
       35     4054    1          DCL N2 SBIN;
       36     4055    1          DCL CACHESIZ SBIN;
       37     4056    1          DCL TYPTBL$ PTR;
PL6.E3A0      #001=DAD$IOC File=DAD$IOC.:E05TSI                                  TUE 07/29/97 12:44 Page:2
       38     4057    1          DCL STATS$ PTR;
       39     4058    1          DCL OLDEST SBIN;
       40     4059    1          DCL NEWEST SBIN;
       41     4060    1          DCL HITZERO SBIN;
       42     4061    1          DCL HITNONZERO SBIN;
       43     4062    1          DCL ATTGET SBIN;
       44     4063    1          DCL ATTPUT SBIN;
       45     4064    1          DCL FAILED SBIN;
       46     4065    1          DCL UNUSED SBIN;
       47     4066    1          DCL CACHE$ PTR;
       48     4067    1          DCL TYPE CHAR(4);
       49     4068    1          DCL SRDA UBIN;
       50     4069    1          DCL FLINK UBIN;
       51     4070    1          DCL BLINK UBIN;
       52     4071    1          DCL USECNT UBIN;
       53     4072    1          DCL UPCOUNT UBIN;
       54     4073    1          DCL SETX UBIN;
       55     4074    1          DCL IO UBIN;
       56     4075    1          DCL WAIT UBIN;
       57     4076    1          DCL ERR UBIN;
       58     4077    1          DCL BUFUP UBIN;
       59     4078    1          DCL AGE UBIN;
       60     4079    1          DCL P$ PTR;
       61     4080        /* */
       62     4081    1          DCL GTYP(0:10) CHAR(4) CONSTANT INIT(
       63     4082    1             'MAD ', 'PAD ', 'GP  ', 'FD  ', 'FIT ', 'UL  ',
       64     4083    1             'INDX', 'DATA', 'REL ', 'CON ', 'ELSE');
       65     4084        /* */
       66     4085                %REPORT (TITLE='I/O CACHE TABLES', NAME=CACHEHDR, TABDFLT=5,
       67     4086                   TRUNC=YES, HEADER=YES);
       68     4152                %HEADER (LAST=NO, TEXT=
       69     4153        ' NUM   IWEB  TYPE    SRDA     FLINK   BLINK   SCT  PCT   SETX       AGE');
       70     4195                %HEADER (LAST=YES, TEXT=
       71     4196        '-----  ----  ----  ---------  ------  ------  ---  ---  ------  -----------');
       72     4238        /* */
       73     4239               %REPORT(TITLE='I/O CACHE STATISTICS', NAME=STATHDR,
       74     4240                  TABDFLT=5, TRUNC=YES, HEADER=YES);
PL6.E3A0      #001=DAD$IOC File=DAD$IOC.:E05TSI                                  TUE 07/29/97 12:44 Page:3
       75     4306               %HEADER(LAST=NO, TEXT=
       76     4307        'TYPE OLDEST NEWEST  UNUSED    ATTGET    ATTPUT    FAILED    HITZERO  HTNONZERO');
       77     4349               %HEADER(LAST=YES, TEXT=
       78     4350        '---- ------ ------ --------- --------- --------- --------- --------- ---------');
       79     4392        /* */
       80     4393    1          DCL CACHEFMT CHAR(0) CONSTANT INIT(
       81     4394    1   '%5O  %4(%1B%)  %4A  %9O  %6O  %6O  %3D  %3D  .%5ZO  %0.0.0.8U');
       82     4395    1          DCL STATSFMT CHAR(0) CONSTANT INIT(
       83     4396    1   '%4A %6O %6O %9D %9D %9D %9D %9D %9D');
       84     4397        /* */
       85     4398               %FMC$CACHE(STCLASS="BASED(CACHE$)");
       86     4421               %FMC$STATS(STCLASS="BASED(STATS$)");
       87     4430               %FMC$TYPTBL(STCLASS="BASED(TYPTBL$)");
       88     4435        /* */
       89     4436    1          STATFLG=0;
       90     4437    1          CACHEFLG=0;
       91     4438
       92     4439    1          IF TOP.NSUBLKS = 0 THEN
       93     4440    2             DO;
       94     4441    2             STATFLG=1;
       95     4442    2             CACHEFLG=2;
       96     4443    2             END;
       97     4444    1          ELSE
       98     4445    2             DO I=0 TO TOP.NSUBLKS-1;
       99     4446    3                DO CASE(TOP.SUBLK$(I)->OUT.CODE);
      100     4447    3                   CASE(%DA_IOC_RANGE, %DA_IOC_NUM);
      101     4448    3                      CACHEFLG=1;
      102     4449
      103     4450    3                   CASE(%DA_IOC_STATS);
      104     4451    3                      STATFLG=1;
      105     4452    3                END;  /* CASE */
      106     4453    2             END;  /* DO I */
      107     4454
      108     4455    1          CALL DAS$SDMONPTR(%M#FMC_CACHESIZ, P$);
      109     4456    1          CALL DAM$MAP(P$, P$,,, DA_MONISDATA);
      110     4457    1          CACHESIZ=P$->WRD;
      111     4458    1          IF CACHESIZ = 0 THEN
PL6.E3A0      #001=DAD$IOC File=DAD$IOC.:E05TSI                                  TUE 07/29/97 12:44 Page:4
      112     4459    1             RETURN;
      113     4460
      114     4461    1          IF STATFLG = 1 THEN
      115     4462    1             CALL PRINTSTATS;
      116     4463
      117     4464    1          IF CACHEFLG > 0 THEN
      118     4465    1             CALL PRINTCACHE;
      119     4466
      120     4467    1          RETURN;
      121     4468               %EJECT;
PL6.E3A0      #001=DAD$IOC File=DAD$IOC.:E05TSI                                  TUE 07/29/97 12:44 Page:5
      122     4469    1   PRINTSTATS: PROC;
      123     4470        /* */
      124     4471    2          CALL DAF$INIT(STATHDR);
      125     4472
      126     4473    2          CALL DAS$SDMONPTR(%M#FMC_TYPTBL$, TYPTBL$);
      127     4474    2          CALL DAM$MAP(TYPTBL$, TYPTBL$,,, DA_MONISDATA);
      128     4475    2          TYPTBL$=TYPTBL$->PTR$;
      129     4476    2          CALL DAM$MAP(TYPTBL$, TYPTBL$);
      130     4477
      131     4478    2          CALL DAS$SDMONPTR(%M#FMC_STATS$, STATS$);
      132     4479    2          CALL DAM$MAP(STATS$, STATS$,,, DA_MONISDATA);
      133     4480    2          STATS$=STATS$->PTR$;
      134     4481    2          CALL DAM$MAP(STATS$, STATS$);
      135     4482
      136     4483    3          DO I=0 TO %CACHETYPES-1;
      137     4484    3             OLDEST=FMC$TYPTBL.OLDEST(I);
      138     4485    3             NEWEST=FMC$TYPTBL.NEWEST(I);
      139     4486    3             HITZERO=FMC$STATS.HITZERO(I);
      140     4487    3             HITNONZERO=FMC$STATS.HITNONZERO(I);
      141     4488    3             FAILED=FMC$STATS.FAILED(I);
      142     4489    3             ATTGET=FMC$STATS.ATTGET(I);
      143     4490    3             ATTPUT=FMC$STATS.ATTPUT(I);
      144     4491    3             UNUSED=FMC$STATS.UNUSED(I);
      145     4492
      146     4493    3             CALL DAF$WRITE(VECTOR(STATSFMT),
      147     4494    3                VECTOR(GTYP(I)),
      148     4495    3                VECTOR(OLDEST),
      149     4496    3                VECTOR(NEWEST),
      150     4497    3                VECTOR(UNUSED),
      151     4498    3                VECTOR(ATTGET),
      152     4499    3                VECTOR(ATTPUT),
      153     4500    3                VECTOR(FAILED),
      154     4501    3                VECTOR(HITZERO),
      155     4502    3                VECTOR(HITNONZERO));
      156     4503
      157     4504    3          END;  /* DO I */
      158     4505
PL6.E3A0      #001=DAD$IOC File=DAD$IOC.:E05TSI                                  TUE 07/29/97 12:44 Page:6
      159     4506    2          RETURN;
      160     4507    2          END PRINTSTATS;
      161     4508               %EJECT;
PL6.E3A0      #001=DAD$IOC File=DAD$IOC.:E05TSI                                  TUE 07/29/97 12:44 Page:7
      162     4509    1   PRINTCACHE: PROC;
      163     4510        /* */
      164     4511    2          CALL DAS$SDMONPTR(%M#FMC_CACHE$, CACHE$);
      165     4512    2          CALL DAM$MAP(CACHE$, CACHE$,,, DA_MONISDATA);
      166     4513    2          CACHE$=CACHE$->PTR$;
      167     4514    2          CALL DAM$MAP(CACHE$, CACHE$);
      168     4515
      169     4516    2          CALL DAF$INIT(CACHEHDR);
      170     4517
      171     4518    2          IF CACHEFLG = 1 THEN
      172     4519    3             DO;   /* ENTRIES SPECIFIED */
      173     4520    4             DO I=0 TO TOP.NSUBLKS-1;
      174     4521    5                DO CASE(TOP.SUBLK$(I)->OUT.CODE);
      175     4522    5                   CASE(%DA_IOC_RANGE);
      176     4523    5                      CALL DAA$VALUE(TOP.SUBLK$(I)->OUT.SUBLK$(0)->OUT, N1);
      177     4524    5                      CALL DAA$VALUE(TOP.SUBLK$(I)->OUT.SUBLK$(1)->OUT, N2);
      178     4525    5                      IF N2 >= N1 THEN
      179     4526    6                         DO J=N1 TO N2;
      180     4527    6                            CALL PRINTONE(J);
      181     4528    6                         END;
      182     4529
      183     4530    5                   CASE(%DA_IOC_NUM);
      184     4531    5                      CALL DAA$VALUE(TOP.SUBLK$(I)->OUT.SUBLK$(0)->OUT, N1);
      185     4532    5                      CALL PRINTONE(N1);
      186     4533
      187     4534    5                END;  /* CASE */
      188     4535    4             END;  /* DO I */
      189     4536    3             END;  /* ENTRIES SPECIFIED */
      190     4537    2          ELSE
      191     4538    3             DO I=1 TO CACHESIZ;
      192     4539    3                IF FMC$CACHETBL.SRDA(I) > 0 THEN
      193     4540    3                   CALL PRINTONE(I);
      194     4541    3             END;
      195     4542
      196     4543    2          RETURN;
      197     4544    2          END PRINTCACHE;
      198     4545               %EJECT;
PL6.E3A0      #001=DAD$IOC File=DAD$IOC.:E05TSI                                  TUE 07/29/97 12:44 Page:8
      199     4546    1   PRINTONE: PROC(N);
      200     4547    2          DCL N SBIN;
      201     4548        /* */
      202     4549    2          IF N < 1 OR N > CACHESIZ THEN
      203     4550    2             RETURN;
      204     4551
      205     4552    2          TYPE=GTYP(FMC$CACHETBL.TYPE(N));
      206     4553    2          SRDA=FMC$CACHETBL.SRDA(N);
      207     4554    2          FLINK=FMC$CACHETBL.FLINK(N);
      208     4555    2          BLINK=FMC$CACHETBL.BLINK(N);
      209     4556    2          USECNT=FMC$CACHETBL.USECNT(N);
      210     4557    2          UPCOUNT=FMC$CACHETBL.UPCOUNT(N);
      211     4558    2          SETX=FMC$CACHETBL.SETX(N);
      212     4559    2          IO=BITBIN(FMC$CACHETBL.FLAGS.IO(N));
      213     4560    2          WAIT=BITBIN(FMC$CACHETBL.FLAGS.WAIT(N));
      214     4561    2          ERR=BITBIN(FMC$CACHETBL.FLAGS.ERR(N));
      215     4562    2          BUFUP=BITBIN(FMC$CACHETBL.FLAGS.BUFUP(N));
      216     4563    2          AGE=FMC$CACHETBL.AGE(N);
      217     4564
      218     4565    2          CALL DAF$WRITE(VECTOR(CACHEFMT),
      219     4566    2             VECTOR(N),
      220     4567    2             VECTOR(IO),
      221     4568    2             VECTOR(WAIT),
      222     4569    2             VECTOR(ERR),
      223     4570    2             VECTOR(BUFUP),
      224     4571    2             VECTOR(TYPE),
      225     4572    2             VECTOR(SRDA),
      226     4573    2             VECTOR(FLINK),
      227     4574    2             VECTOR(BLINK),
      228     4575    2             VECTOR(USECNT),
      229     4576    2             VECTOR(UPCOUNT),
      230     4577    2             VECTOR(SETX),
      231     4578    2             VECTOR(AGE));
      232     4579
      233     4580    2          RETURN;
      234     4581    2          END PRINTONE;
      235     4582    1          END DAD$IOC;
PL6.E3A0      #001=DAD$IOC File=DAD$IOC.:E05TSI                                  TUE 07/29/97 12:44 Page:9

PL6.E3A0      #001=DAD$IOC File=DAD$IOC.:E05TSI                                  TUE 07/29/97 12:44 Page:10
--  Include file information  --

   XU_MACRO_C.:E05TOU  is referenced.
   FM_CACHE_C.:E05TOU  is referenced.
   DA_MONSYM_C.:E05TOU  is referenced.
   DA_TEXTC_C.:E05TOU  is referenced.
   DA_PERR_C.:E05TOU  is referenced.
   DA_MAP_R.:E05TOU  cannot be made into a system file and is referenced.
   DA_FORMAT_C.:E05TOU  is referenced.
   DA_CMD_C.:E05TOU  is referenced.
      No diagnostics issued in procedure DAD$IOC.

   Procedure DAD$IOC requires 578 words for executable code.
   Procedure DAD$IOC requires 130 words of local(AUTO) storage.

    No errors detected in file DAD$IOC.:E05TSI    .

PL6.E3A0      #001=DAD$IOC File=DAD$IOC.:E05TSI                                  TUE 07/29/97 12:44 Page:11

 Object Unit name= DAD$IOC                                    File name= DAD$IOC.:E05TOU
 UTS= JUL 29 '97 12:44:12.12 TUE                              Compiler= PL-6/E31         Sev=      00
 SharedLib= :SHARED_SYSTEM                                    Alt SharedLib=


    ****  Control sections  ****

 Sect   Type Bound  Init  Size OctSiz  Section name(segment info)
    0  RoData even  UTS     36     44  DAD$IOC
    1   Data  even  none   120    170  DAD$IOC
    2   Proc  even  none   578   1102  DAD$IOC
    3  RoData even  none    20     24  DAD$IOC

    ****  Entry defs  ****

                              Check   Calling
                             calling  sequence
  Sect OctLoc Primary Altret sequence   type   Parms  Name
     2      0   yes            yes      Std        1  DAD$IOC

  ****  Entry refs  ****

         Check        Calling
        calling       sequence
Altret sequence SRef   type   Args  Name
 yes     yes           Std       2 DAS$SDMONPTR
 yes     yes           Std       5 DAM$MAP
 yes     yes           Std       1 DAF$INIT
 yes     yes           Std       3 DAA$VALUE
                       nStd      0 X66_AUTO_1
                       Std       0 B_CONSPOOL_D
                       nStd      0 X66_ARET
PL6.E3A0      #001=DAD$IOC File=DAD$IOC.:E05TSI                                  TUE 07/29/97 12:44 Page:12

  ****  Data refs  ****

  Flags:  r = read only, s = secondary
Flgs Name                             Flgs Name                             Flgs Name
     DA_MONISDATA                          DAF$WRITE                             B_VECTNIL

  ****  Segment refs  ****

  Flags:  r = read only, s = secondary
Flgs Name                             Flgs Name                             Flgs Name
     ISSID                                 NULLSID
PL6.E3A0      #001=DAD$IOC File=DAD$IOC.:E05TSI                                  TUE 07/29/97 12:44 Page:13


        1        1        /*M* DAD$IOC - IOC display for ANLZ */
        2        2        /*T***********************************************************/
        3        3        /*T*                                                         */
        4        4        /*T* Copyright (c) Bull HN Information Systems Inc., 1997    */
        5        5        /*T*                                                         */
        6        6        /*T***********************************************************/
        7        7        /*X* DDA */
        8        8        DAD$IOC: PROC(TOP);

      8  2 000000   000000 700200 xent  DAD$IOC      TSX0  ! X66_AUTO_1
         2 000001   000202 000001                    ZERO    130,1

        9        9               %INCLUDE DA_CMD_C;
       10      358               %INCLUDE DA_FORMAT_C;
       11      600               %INCLUDE DA_MAP_R;
       12      630               %INCLUDE DA_PERR_C;
       13      694               %INCLUDE DA_TEXTC_C;
       14      725        %INCLUDE DA_MONSYM_C;
       15      776               %INCLUDE FM_CACHE_C;
       16      842               %INCLUDE XU_MACRO_C;
       17     3948        /* */
       18     3949               %PARSE$OUT(NAME=TOP, STCLASS="");
       19     3994        /* */
       20     3995               %PARSE$OUT(NAME=OUT, STCLASS=BASED);
       21     4040    1          DCL PTR$ PTR BASED;
       22     4041    1          DCL WRD UBIN BASED;
       23     4042        /* */
       24     4043    1          DCL DAA$VALUE ENTRY(3) ALTRET;
       25     4044    1          DCL DAF$INIT ENTRY(1) ALTRET;
       26     4045    1          DCL DAF$WRITE EPTR SYMREF;
       27     4046    1          DCL DAM$MAP ENTRY(5) ALTRET;
       28     4047    1          DCL DAS$SDMONPTR ENTRY(2) ALTRET;
       29     4048        /* */
       30     4049    1          DCL STATFLG SBIN;
       31     4050    1          DCL CACHEFLG SBIN;
       32     4051    1          DCL I SBIN;
PL6.E3A0      #001=DAD$IOC File=DAD$IOC.:E05TSI                                  TUE 07/29/97 12:44 Page:14
       33     4052    1          DCL J SBIN;
       34     4053    1          DCL N1 SBIN;
       35     4054    1          DCL N2 SBIN;
       36     4055    1          DCL CACHESIZ SBIN;
       37     4056    1          DCL TYPTBL$ PTR;
       38     4057    1          DCL STATS$ PTR;
       39     4058    1          DCL OLDEST SBIN;
       40     4059    1          DCL NEWEST SBIN;
       41     4060    1          DCL HITZERO SBIN;
       42     4061    1          DCL HITNONZERO SBIN;
       43     4062    1          DCL ATTGET SBIN;
       44     4063    1          DCL ATTPUT SBIN;
       45     4064    1          DCL FAILED SBIN;
       46     4065    1          DCL UNUSED SBIN;
       47     4066    1          DCL CACHE$ PTR;
       48     4067    1          DCL TYPE CHAR(4);
       49     4068    1          DCL SRDA UBIN;
       50     4069    1          DCL FLINK UBIN;
       51     4070    1          DCL BLINK UBIN;
       52     4071    1          DCL USECNT UBIN;
       53     4072    1          DCL UPCOUNT UBIN;
       54     4073    1          DCL SETX UBIN;
       55     4074    1          DCL IO UBIN;
       56     4075    1          DCL WAIT UBIN;
       57     4076    1          DCL ERR UBIN;
       58     4077    1          DCL BUFUP UBIN;
       59     4078    1          DCL AGE UBIN;
       60     4079    1          DCL P$ PTR;
       61     4080        /* */
       62     4081    1          DCL GTYP(0:10) CHAR(4) CONSTANT INIT(
       63     4082    1             'MAD ', 'PAD ', 'GP  ', 'FD  ', 'FIT ', 'UL  ',
       64     4083    1             'INDX', 'DATA', 'REL ', 'CON ', 'ELSE');
       65     4084        /* */
       66     4085                %REPORT (TITLE='I/O CACHE TABLES', NAME=CACHEHDR, TABDFLT=5,
       67     4086                   TRUNC=YES, HEADER=YES);
       68     4152                %HEADER (LAST=NO, TEXT=
       69     4153        ' NUM   IWEB  TYPE    SRDA     FLINK   BLINK   SCT  PCT   SETX       AGE');
PL6.E3A0      #001=DAD$IOC File=DAD$IOC.:E05TSI                                  TUE 07/29/97 12:44 Page:15
       70     4195                %HEADER (LAST=YES, TEXT=
       71     4196        '-----  ----  ----  ---------  ------  ------  ---  ---  ------  -----------');
       72     4238        /* */
       73     4239               %REPORT(TITLE='I/O CACHE STATISTICS', NAME=STATHDR,
       74     4240                  TABDFLT=5, TRUNC=YES, HEADER=YES);
       75     4306               %HEADER(LAST=NO, TEXT=
       76     4307        'TYPE OLDEST NEWEST  UNUSED    ATTGET    ATTPUT    FAILED    HITZERO  HTNONZERO');
       77     4349               %HEADER(LAST=YES, TEXT=
       78     4350        '---- ------ ------ --------- --------- --------- --------- --------- ---------');
       79     4392        /* */
       80     4393    1          DCL CACHEFMT CHAR(0) CONSTANT INIT(
       81     4394    1   '%5O  %4(%1B%)  %4A  %9O  %6O  %6O  %3D  %3D  .%5ZO  %0.0.0.8U');
       82     4395    1          DCL STATSFMT CHAR(0) CONSTANT INIT(
       83     4396    1   '%4A %6O %6O %9D %9D %9D %9D %9D %9D');
       84     4397        /* */
       85     4398               %FMC$CACHE(STCLASS="BASED(CACHE$)");
       86     4421               %FMC$STATS(STCLASS="BASED(STATS$)");
       87     4430               %FMC$TYPTBL(STCLASS="BASED(TYPTBL$)");
       88     4435        /* */
       89     4436    1          STATFLG=0;

   4436  2 000002   200004 450100                    STZ     STATFLG,,AUTO

       90     4437    1          CACHEFLG=0;

   4437  2 000003   200005 450100                    STZ     CACHEFLG,,AUTO

       91     4438
       92     4439    1          IF TOP.NSUBLKS = 0 THEN

   4439  2 000004   200003 470500                    LDP0    @TOP,,AUTO
         2 000005   000001 220100                    LDX0    1,,PR0
         2 000006   000014 601000 2                  TNZ     s:4445

       93     4440    2             DO;

       94     4441    2             STATFLG=1;
PL6.E3A0      #001=DAD$IOC File=DAD$IOC.:E05TSI                                  TUE 07/29/97 12:44 Page:16

   4441  2 000007   000001 235007                    LDA     1,DL
         2 000010   200004 755100                    STA     STATFLG,,AUTO

       95     4442    2             CACHEFLG=2;

   4442  2 000011   000002 236007                    LDQ     2,DL
         2 000012   200005 756100                    STQ     CACHEFLG,,AUTO

       96     4443    2             END;

   4443  2 000013   000043 710000 2                  TRA     s:4455

       97     4444    1          ELSE
       98     4445    2             DO I=0 TO TOP.NSUBLKS-1;

   4445  2 000014   200006 450100                    STZ     I,,AUTO
         2 000015   000037 710000 2                  TRA     s:4453+1

       99     4446    3                DO CASE(TOP.SUBLK$(I)->OUT.CODE);

   4446  2 000016   200003 470500                    LDP0    @TOP,,AUTO
         2 000017   200006 720100                    LXL0    I,,AUTO
         2 000020   000003 471510                    LDP1    3,X0,PR0
         2 000021   100000 721100                    LXL1    0,,PR1
         2 000022   000004 101003                    CMPX1   4,DU
         2 000023   000025 602011 2                  TNC     s:4446+7,X1
         2 000024   000036 710000 2                  TRA     s:4453
         2 000025   000036 710000 2                  TRA     s:4453
         2 000026   000031 710000 2                  TRA     s:4448
         2 000027   000034 710000 2                  TRA     s:4451
         2 000030   000031 710000 2                  TRA     s:4448

      100     4447    3                   CASE(%DA_IOC_RANGE, %DA_IOC_NUM);

      101     4448    3                      CACHEFLG=1;

PL6.E3A0      #001=DAD$IOC File=DAD$IOC.:E05TSI                                  TUE 07/29/97 12:44 Page:17
   4448  2 000031   000001 235007                    LDA     1,DL
         2 000032   200005 755100                    STA     CACHEFLG,,AUTO
         2 000033   000036 710000 2                  TRA     s:4453

      102     4449
      103     4450    3                   CASE(%DA_IOC_STATS);

      104     4451    3                      STATFLG=1;

   4451  2 000034   000001 235007                    LDA     1,DL
         2 000035   200004 755100                    STA     STATFLG,,AUTO

      105     4452    3                END;  /* CASE */

      106     4453    2             END;  /* DO I */

   4453  2 000036   200006 054100                    AOS     I,,AUTO
         2 000037   000001 236100                    LDQ     1,,PR0
         2 000040   000022 772000                    QRL     18
         2 000041   200006 116100                    CMPQ    I,,AUTO
         2 000042   000016 605400 2                  TPNZ    s:4446

      107     4454
      108     4455    1          CALL DAS$SDMONPTR(%M#FMC_CACHESIZ, P$);

   4455  2 000043   200042 631500                    EPPR1   P$,,AUTO
         2 000044   200051 451500                    STP1    @N+2,,AUTO
         2 000045   000001 236000 3                  LDQ     1
         2 000046   200050 756100                    STQ     @N+1,,AUTO
         2 000047   200050 630500                    EPPR0   @N+1,,AUTO
         2 000050   000020 631400 xsym               EPPR1   B_VECTNIL+16
         2 000051   000000 701000 xent               TSX1    DAS$SDMONPTR
         2 000052   000000 011000                    NOP     0

      109     4456    1          CALL DAM$MAP(P$, P$,,, DA_MONISDATA);

   4456  2 000053   000002 236000 3                  LDQ     2
PL6.E3A0      #001=DAD$IOC File=DAD$IOC.:E05TSI                                  TUE 07/29/97 12:44 Page:18
         2 000054   200054 756100                    STQ     @N+5,,AUTO
         2 000055   000001 236000 xsym               LDQ     B_VECTNIL+1
         2 000056   000001 235000 xsym               LDA     B_VECTNIL+1
         2 000057   200052 757100                    STAQ    @N+3,,AUTO
         2 000060   200042 630500                    EPPR0   P$,,AUTO
         2 000061   200051 450500                    STP0    @N+2,,AUTO
         2 000062   200042 631500                    EPPR1   P$,,AUTO
         2 000063   200050 451500                    STP1    @N+1,,AUTO
         2 000064   200050 630500                    EPPR0   @N+1,,AUTO
         2 000065   000023 631400 xsym               EPPR1   B_VECTNIL+19
         2 000066   000000 701000 xent               TSX1    DAM$MAP
         2 000067   000000 011000                    NOP     0

      110     4457    1          CACHESIZ=P$->WRD;

   4457  2 000070   200042 470500                    LDP0    P$,,AUTO
         2 000071   000000 235100                    LDA     0,,PR0
         2 000072   200012 755100                    STA     CACHESIZ,,AUTO

      111     4458    1          IF CACHESIZ = 0 THEN

   4458  2 000073   000075 601000 2                  TNZ     s:4461

      112     4459    1             RETURN;

   4459  2 000074   000000 702200 xent               TSX2  ! X66_ARET

      113     4460
      114     4461    1          IF STATFLG = 1 THEN

   4461  2 000075   200004 236100                    LDQ     STATFLG,,AUTO
         2 000076   000001 116007                    CMPQ    1,DL
         2 000077   000102 601000 2                  TNZ     s:4464

      115     4462    1             CALL PRINTSTATS;

   4462  2 000100   000107 701000 2                  TSX1    PRINTSTATS
PL6.E3A0      #001=DAD$IOC File=DAD$IOC.:E05TSI                                  TUE 07/29/97 12:44 Page:19
         2 000101   000000 011000                    NOP     0

      116     4463
      117     4464    1          IF CACHEFLG > 0 THEN

   4464  2 000102   200005 235100                    LDA     CACHEFLG,,AUTO
         2 000103   000106 604400 2                  TMOZ    s:4467

      118     4465    1             CALL PRINTCACHE;

   4465  2 000104   000403 701000 2                  TSX1    PRINTCACHE
         2 000105   000000 011000                    NOP     0

      119     4466
      120     4467    1          RETURN;

   4467  2 000106   000000 702200 xent               TSX2  ! X66_ARET

      121     4468               %EJECT;
PL6.E3A0      #001=DAD$IOC File=DAD$IOC.:E05TSI                                  TUE 07/29/97 12:44 Page:20
      122     4469    1   PRINTSTATS: PROC;

   4469  2 000107   200044 741300       PRINTSTATS   STX1  ! P$+2,,AUTO

      123     4470        /* */
      124     4471    2          CALL DAF$INIT(STATHDR);

   4471  2 000110   000003 630400 3                  EPPR0   3
         2 000111   000017 631400 xsym               EPPR1   B_VECTNIL+15
         2 000112   000000 701000 xent               TSX1    DAF$INIT
         2 000113   000000 011000                    NOP     0

      125     4472
      126     4473    2          CALL DAS$SDMONPTR(%M#FMC_TYPTBL$, TYPTBL$);

   4473  2 000114   200013 630500                    EPPR0   TYPTBL$,,AUTO
         2 000115   200051 450500                    STP0    @N+2,,AUTO
         2 000116   000005 236000 3                  LDQ     5
         2 000117   200050 756100                    STQ     @N+1,,AUTO
         2 000120   200050 630500                    EPPR0   @N+1,,AUTO
         2 000121   000020 631400 xsym               EPPR1   B_VECTNIL+16
         2 000122   000000 701000 xent               TSX1    DAS$SDMONPTR
         2 000123   000000 011000                    NOP     0

      127     4474    2          CALL DAM$MAP(TYPTBL$, TYPTBL$,,, DA_MONISDATA);

   4474  2 000124   000002 236000 3                  LDQ     2
         2 000125   200054 756100                    STQ     @N+5,,AUTO
         2 000126   000001 236000 xsym               LDQ     B_VECTNIL+1
         2 000127   000001 235000 xsym               LDA     B_VECTNIL+1
         2 000130   200052 757100                    STAQ    @N+3,,AUTO
         2 000131   200013 630500                    EPPR0   TYPTBL$,,AUTO
         2 000132   200051 450500                    STP0    @N+2,,AUTO
         2 000133   200013 631500                    EPPR1   TYPTBL$,,AUTO
         2 000134   200050 451500                    STP1    @N+1,,AUTO
         2 000135   200050 630500                    EPPR0   @N+1,,AUTO
         2 000136   000023 631400 xsym               EPPR1   B_VECTNIL+19
PL6.E3A0      #001=DAD$IOC File=DAD$IOC.:E05TSI                                  TUE 07/29/97 12:44 Page:21
         2 000137   000000 701000 xent               TSX1    DAM$MAP
         2 000140   000000 011000                    NOP     0

      128     4475    2          TYPTBL$=TYPTBL$->PTR$;

   4475  2 000141   200013 470500                    LDP0    TYPTBL$,,AUTO
         2 000142   000000 236100                    LDQ     0,,PR0
         2 000143   200013 756100                    STQ     TYPTBL$,,AUTO

      129     4476    2          CALL DAM$MAP(TYPTBL$, TYPTBL$);

   4476  2 000144   200013 630500                    EPPR0   TYPTBL$,,AUTO
         2 000145   200051 450500                    STP0    @N+2,,AUTO
         2 000146   200013 631500                    EPPR1   TYPTBL$,,AUTO
         2 000147   200050 451500                    STP1    @N+1,,AUTO
         2 000150   200050 630500                    EPPR0   @N+1,,AUTO
         2 000151   000020 631400 xsym               EPPR1   B_VECTNIL+16
         2 000152   000000 701000 xent               TSX1    DAM$MAP
         2 000153   000000 011000                    NOP     0

      130     4477
      131     4478    2          CALL DAS$SDMONPTR(%M#FMC_STATS$, STATS$);

   4478  2 000154   200014 630500                    EPPR0   STATS$,,AUTO
         2 000155   200051 450500                    STP0    @N+2,,AUTO
         2 000156   000007 236000 3                  LDQ     7
         2 000157   200050 756100                    STQ     @N+1,,AUTO
         2 000160   200050 630500                    EPPR0   @N+1,,AUTO
         2 000161   000020 631400 xsym               EPPR1   B_VECTNIL+16
         2 000162   000000 701000 xent               TSX1    DAS$SDMONPTR
         2 000163   000000 011000                    NOP     0

      132     4479    2          CALL DAM$MAP(STATS$, STATS$,,, DA_MONISDATA);

   4479  2 000164   000002 236000 3                  LDQ     2
         2 000165   200054 756100                    STQ     @N+5,,AUTO
         2 000166   000001 236000 xsym               LDQ     B_VECTNIL+1
PL6.E3A0      #001=DAD$IOC File=DAD$IOC.:E05TSI                                  TUE 07/29/97 12:44 Page:22
         2 000167   000001 235000 xsym               LDA     B_VECTNIL+1
         2 000170   200052 757100                    STAQ    @N+3,,AUTO
         2 000171   200014 630500                    EPPR0   STATS$,,AUTO
         2 000172   200051 450500                    STP0    @N+2,,AUTO
         2 000173   200014 631500                    EPPR1   STATS$,,AUTO
         2 000174   200050 451500                    STP1    @N+1,,AUTO
         2 000175   200050 630500                    EPPR0   @N+1,,AUTO
         2 000176   000023 631400 xsym               EPPR1   B_VECTNIL+19
         2 000177   000000 701000 xent               TSX1    DAM$MAP
         2 000200   000000 011000                    NOP     0

      133     4480    2          STATS$=STATS$->PTR$;

   4480  2 000201   200014 470500                    LDP0    STATS$,,AUTO
         2 000202   000000 236100                    LDQ     0,,PR0
         2 000203   200014 756100                    STQ     STATS$,,AUTO

      134     4481    2          CALL DAM$MAP(STATS$, STATS$);

   4481  2 000204   200014 630500                    EPPR0   STATS$,,AUTO
         2 000205   200051 450500                    STP0    @N+2,,AUTO
         2 000206   200014 631500                    EPPR1   STATS$,,AUTO
         2 000207   200050 451500                    STP1    @N+1,,AUTO
         2 000210   200050 630500                    EPPR0   @N+1,,AUTO
         2 000211   000020 631400 xsym               EPPR1   B_VECTNIL+16
         2 000212   000000 701000 xent               TSX1    DAM$MAP
         2 000213   000000 011000                    NOP     0

      135     4482
      136     4483    3          DO I=0 TO %CACHETYPES-1;

   4483  2 000214   200006 450100                    STZ     I,,AUTO
         2 000215   000376 710000 2                  TRA     s:4504+1

      137     4484    3             OLDEST=FMC$TYPTBL.OLDEST(I);

   4484  2 000216   200006 235100                    LDA     I,,AUTO
PL6.E3A0      #001=DAD$IOC File=DAD$IOC.:E05TSI                                  TUE 07/29/97 12:44 Page:23
         2 000217   000001 735000                    ALS     1
         2 000220   200013 470500                    LDP0    TYPTBL$,,AUTO
         2 000221   000000 235105                    LDA     0,AL,PR0
         2 000222   200015 755100                    STA     OLDEST,,AUTO

      138     4485    3             NEWEST=FMC$TYPTBL.NEWEST(I);

   4485  2 000223   200006 236100                    LDQ     I,,AUTO
         2 000224   000001 736000                    QLS     1
         2 000225   000001 235106                    LDA     1,QL,PR0
         2 000226   200016 755100                    STA     NEWEST,,AUTO

      139     4486    3             HITZERO=FMC$STATS.HITZERO(I);

   4486  2 000227   200014 471500                    LDP1    STATS$,,AUTO
         2 000230   200006 720100                    LXL0    I,,AUTO
         2 000231   100000 235110                    LDA     0,X0,PR1
         2 000232   200017 755100                    STA     HITZERO,,AUTO

      140     4487    3             HITNONZERO=FMC$STATS.HITNONZERO(I);

   4487  2 000233   100013 235110                    LDA     11,X0,PR1
         2 000234   200020 755100                    STA     HITNONZERO,,AUTO

      141     4488    3             FAILED=FMC$STATS.FAILED(I);

   4488  2 000235   100026 235110                    LDA     22,X0,PR1
         2 000236   200023 755100                    STA     FAILED,,AUTO

      142     4489    3             ATTGET=FMC$STATS.ATTGET(I);

   4489  2 000237   100041 235110                    LDA     33,X0,PR1
         2 000240   200021 755100                    STA     ATTGET,,AUTO

      143     4490    3             ATTPUT=FMC$STATS.ATTPUT(I);

   4490  2 000241   100054 235110                    LDA     44,X0,PR1
PL6.E3A0      #001=DAD$IOC File=DAD$IOC.:E05TSI                                  TUE 07/29/97 12:44 Page:24
         2 000242   200022 755100                    STA     ATTPUT,,AUTO

      144     4491    3             UNUSED=FMC$STATS.UNUSED(I);

   4491  2 000243   100067 235110                    LDA     55,X0,PR1
         2 000244   200024 755100                    STA     UNUSED,,AUTO

      145     4492
      146     4493    3             CALL DAF$WRITE(VECTOR(STATSFMT),
      147     4494    3                VECTOR(GTYP(I)),
      148     4495    3                VECTOR(OLDEST),
      149     4496    3                VECTOR(NEWEST),
      150     4497    3                VECTOR(UNUSED),
      151     4498    3                VECTOR(ATTGET),
      152     4499    3                VECTOR(ATTPUT),
      153     4500    3                VECTOR(FAILED),
      154     4501    3                VECTOR(HITZERO),
      155     4502    3                VECTOR(HITNONZERO));

   4502  2 000245   777640 235007                    LDA     -96,DL
         2 000246   200006 236100                    LDQ     I,,AUTO
         2 000247   000022 736000                    QLS     18
         2 000250   000012 036000 3                  ADLQ    10
         2 000251   200050 757100                    STAQ    @N+1,,AUTO
         2 000252   777640 235007                    LDA     -96,DL
         2 000253   200052 452500                    STP2    @N+3,,AUTO
         2 000254   200052 236100                    LDQ     @N+3,,AUTO
         2 000255   000015 036003                    ADLQ    13,DU
         2 000256   200054 757100                    STAQ    @N+5,,AUTO
         2 000257   777640 235007                    LDA     -96,DL
         2 000260   200056 452500                    STP2    @N+7,,AUTO
         2 000261   200056 236100                    LDQ     @N+7,,AUTO
         2 000262   000016 036003                    ADLQ    14,DU
         2 000263   200060 757100                    STAQ    @N+9,,AUTO
         2 000264   777640 235007                    LDA     -96,DL
         2 000265   200062 452500                    STP2    @N+11,,AUTO
         2 000266   200062 236100                    LDQ     @N+11,,AUTO
PL6.E3A0      #001=DAD$IOC File=DAD$IOC.:E05TSI                                  TUE 07/29/97 12:44 Page:25
         2 000267   000024 036003                    ADLQ    20,DU
         2 000270   200064 757100                    STAQ    @N+13,,AUTO
         2 000271   777640 235007                    LDA     -96,DL
         2 000272   200066 452500                    STP2    @N+15,,AUTO
         2 000273   200066 236100                    LDQ     @N+15,,AUTO
         2 000274   000021 036003                    ADLQ    17,DU
         2 000275   200070 757100                    STAQ    @N+17,,AUTO
         2 000276   777640 235007                    LDA     -96,DL
         2 000277   200072 452500                    STP2    @N+19,,AUTO
         2 000300   200072 236100                    LDQ     @N+19,,AUTO
         2 000301   000022 036003                    ADLQ    18,DU
         2 000302   200074 757100                    STAQ    @N+21,,AUTO
         2 000303   777640 235007                    LDA     -96,DL
         2 000304   200076 452500                    STP2    @N+23,,AUTO
         2 000305   200076 236100                    LDQ     @N+23,,AUTO
         2 000306   000023 036003                    ADLQ    19,DU
         2 000307   200100 757100                    STAQ    @N+25,,AUTO
         2 000310   777640 235007                    LDA     -96,DL
         2 000311   200102 452500                    STP2    @N+27,,AUTO
         2 000312   200102 236100                    LDQ     @N+27,,AUTO
         2 000313   000017 036003                    ADLQ    15,DU
         2 000314   200104 757100                    STAQ    @N+29,,AUTO
         2 000315   777640 235007                    LDA     -96,DL
         2 000316   200106 452500                    STP2    @N+31,,AUTO
         2 000317   200106 236100                    LDQ     @N+31,,AUTO
         2 000320   000020 036003                    ADLQ    16,DU
         2 000321   200112 757100                    STAQ    @N+35,,AUTO
         2 000322   200050 237100                    LDAQ    @N+1,,AUTO
         2 000323   200110 757100                    STAQ    @N+33,,AUTO
         2 000324   200054 237100                    LDAQ    @N+5,,AUTO
         2 000325   200114 757100                    STAQ    @N+37,,AUTO
         2 000326   200060 237100                    LDAQ    @N+9,,AUTO
         2 000327   200116 757100                    STAQ    @N+39,,AUTO
         2 000330   200064 237100                    LDAQ    @N+13,,AUTO
         2 000331   200120 757100                    STAQ    @N+41,,AUTO
         2 000332   200070 237100                    LDAQ    @N+17,,AUTO
         2 000333   200122 757100                    STAQ    @N+43,,AUTO
PL6.E3A0      #001=DAD$IOC File=DAD$IOC.:E05TSI                                  TUE 07/29/97 12:44 Page:26
         2 000334   200074 237100                    LDAQ    @N+21,,AUTO
         2 000335   200124 757100                    STAQ    @N+45,,AUTO
         2 000336   200100 237100                    LDAQ    @N+25,,AUTO
         2 000337   200126 757100                    STAQ    @N+47,,AUTO
         2 000340   200104 237100                    LDAQ    @N+29,,AUTO
         2 000341   200130 757100                    STAQ    @N+49,,AUTO
         2 000342   200112 237100                    LDAQ    @N+35,,AUTO
         2 000343   200132 757100                    STAQ    @N+51,,AUTO
         2 000344   200132 633500                    EPPR3   @N+51,,AUTO
         2 000345   200145 453500                    STP3    @N+62,,AUTO
         2 000346   200130 634500                    EPPR4   @N+49,,AUTO
         2 000347   200144 454500                    STP4    @N+61,,AUTO
         2 000350   200126 635500                    EPPR5   @N+47,,AUTO
         2 000351   200143 455500                    STP5    @N+60,,AUTO
         2 000352   200124 636500                    EPPR6   @N+45,,AUTO
         2 000353   200142 456500                    STP6    @N+59,,AUTO
         2 000354   200122 637500                    EPPR7   @N+43,,AUTO
         2 000355   200141 457500                    STP7    @N+58,,AUTO
         2 000356   200120 630500                    EPPR0   @N+41,,AUTO
         2 000357   200140 450500                    STP0    @N+57,,AUTO
         2 000360   200116 630500                    EPPR0   @N+39,,AUTO
         2 000361   200137 450500                    STP0    @N+56,,AUTO
         2 000362   200114 630500                    EPPR0   @N+37,,AUTO
         2 000363   200136 450500                    STP0    @N+55,,AUTO
         2 000364   200110 630500                    EPPR0   @N+33,,AUTO
         2 000365   200135 450500                    STP0    @N+54,,AUTO
         2 000366   000014 236000 3                  LDQ     12
         2 000367   200134 756100                    STQ     @N+53,,AUTO
         2 000370   200134 630500                    EPPR0   @N+53,,AUTO
         2 000371   000000 221000 xsym               LDX1    DAF$WRITE
         2 000372   000013 631400 3                  EPPR1   11
         2 000373   000000 701011                    TSX1    0,X1
         2 000374   000000 011000                    NOP     0

      156     4503
      157     4504    3          END;  /* DO I */

PL6.E3A0      #001=DAD$IOC File=DAD$IOC.:E05TSI                                  TUE 07/29/97 12:44 Page:27
   4504  2 000375   200006 054100                    AOS     I,,AUTO
         2 000376   200006 235100                    LDA     I,,AUTO
         2 000377   000012 115007                    CMPA    10,DL
         2 000400   000216 604400 2                  TMOZ    s:4484

      158     4505
      159     4506    2          RETURN;

   4506  2 000401   200044 221300                    LDX1  ! P$+2,,AUTO
         2 000402   000001 702211                    TSX2  ! 1,X1

      160     4507    2          END PRINTSTATS;
      161     4508               %EJECT;
PL6.E3A0      #001=DAD$IOC File=DAD$IOC.:E05TSI                                  TUE 07/29/97 12:44 Page:28
      162     4509    1   PRINTCACHE: PROC;

   4509  2 000403   200044 741300       PRINTCACHE   STX1  ! P$+2,,AUTO

      163     4510        /* */
      164     4511    2          CALL DAS$SDMONPTR(%M#FMC_CACHE$, CACHE$);

   4511  2 000404   200025 630500                    EPPR0   CACHE$,,AUTO
         2 000405   200051 450500                    STP0    @N+2,,AUTO
         2 000406   000016 236000 3                  LDQ     14
         2 000407   200050 756100                    STQ     @N+1,,AUTO
         2 000410   200050 630500                    EPPR0   @N+1,,AUTO
         2 000411   000020 631400 xsym               EPPR1   B_VECTNIL+16
         2 000412   000000 701000 xent               TSX1    DAS$SDMONPTR
         2 000413   000000 011000                    NOP     0

      165     4512    2          CALL DAM$MAP(CACHE$, CACHE$,,, DA_MONISDATA);

   4512  2 000414   000002 236000 3                  LDQ     2
         2 000415   200054 756100                    STQ     @N+5,,AUTO
         2 000416   000001 236000 xsym               LDQ     B_VECTNIL+1
         2 000417   000001 235000 xsym               LDA     B_VECTNIL+1
         2 000420   200052 757100                    STAQ    @N+3,,AUTO
         2 000421   200025 630500                    EPPR0   CACHE$,,AUTO
         2 000422   200051 450500                    STP0    @N+2,,AUTO
         2 000423   200025 631500                    EPPR1   CACHE$,,AUTO
         2 000424   200050 451500                    STP1    @N+1,,AUTO
         2 000425   200050 630500                    EPPR0   @N+1,,AUTO
         2 000426   000023 631400 xsym               EPPR1   B_VECTNIL+19
         2 000427   000000 701000 xent               TSX1    DAM$MAP
         2 000430   000000 011000                    NOP     0

      166     4513    2          CACHE$=CACHE$->PTR$;

   4513  2 000431   200025 470500                    LDP0    CACHE$,,AUTO
         2 000432   000000 236100                    LDQ     0,,PR0
         2 000433   200025 756100                    STQ     CACHE$,,AUTO
PL6.E3A0      #001=DAD$IOC File=DAD$IOC.:E05TSI                                  TUE 07/29/97 12:44 Page:29

      167     4514    2          CALL DAM$MAP(CACHE$, CACHE$);

   4514  2 000434   200025 630500                    EPPR0   CACHE$,,AUTO
         2 000435   200051 450500                    STP0    @N+2,,AUTO
         2 000436   200025 631500                    EPPR1   CACHE$,,AUTO
         2 000437   200050 451500                    STP1    @N+1,,AUTO
         2 000440   200050 630500                    EPPR0   @N+1,,AUTO
         2 000441   000020 631400 xsym               EPPR1   B_VECTNIL+16
         2 000442   000000 701000 xent               TSX1    DAM$MAP
         2 000443   000000 011000                    NOP     0

      168     4515
      169     4516    2          CALL DAF$INIT(CACHEHDR);

   4516  2 000444   000017 630400 3                  EPPR0   15
         2 000445   000017 631400 xsym               EPPR1   B_VECTNIL+15
         2 000446   000000 701000 xent               TSX1    DAF$INIT
         2 000447   000000 011000                    NOP     0

      170     4517
      171     4518    2          IF CACHEFLG = 1 THEN

   4518  2 000450   200005 235100                    LDA     CACHEFLG,,AUTO
         2 000451   000001 115007                    CMPA    1,DL
         2 000452   000555 601000 2                  TNZ     s:4538

      172     4519    3             DO;   /* ENTRIES SPECIFIED */

      173     4520    4             DO I=0 TO TOP.NSUBLKS-1;

   4520  2 000453   200006 450100                    STZ     I,,AUTO
         2 000454   000547 710000 2                  TRA     s:4535+1

      174     4521    5                DO CASE(TOP.SUBLK$(I)->OUT.CODE);

   4521  2 000455   200003 470500                    LDP0    @TOP,,AUTO
PL6.E3A0      #001=DAD$IOC File=DAD$IOC.:E05TSI                                  TUE 07/29/97 12:44 Page:30
         2 000456   200006 720100                    LXL0    I,,AUTO
         2 000457   000003 471510                    LDP1    3,X0,PR0
         2 000460   100000 721100                    LXL1    0,,PR1
         2 000461   000004 101003                    CMPX1   4,DU
         2 000462   000464 602011 2                  TNC     s:4521+7,X1
         2 000463   000546 710000 2                  TRA     s:4535
         2 000464   000546 710000 2                  TRA     s:4535
         2 000465   000532 710000 2                  TRA     s:4531
         2 000466   000546 710000 2                  TRA     s:4535
         2 000467   000470 710000 2                  TRA     s:4523

      175     4522    5                   CASE(%DA_IOC_RANGE);

      176     4523    5                      CALL DAA$VALUE(TOP.SUBLK$(I)->OUT.SUBLK$(0)->OUT, N1);

   4523  2 000470   100003 473500                    LDP3    3,,PR1
         2 000471   200010 634500                    EPPR4   N1,,AUTO
         2 000472   200051 454500                    STP4    @N+2,,AUTO
         2 000473   200050 453500                    STP3    @N+1,,AUTO
         2 000474   200050 630500                    EPPR0   @N+1,,AUTO
         2 000475   000020 631400 xsym               EPPR1   B_VECTNIL+16
         2 000476   000000 701000 xent               TSX1    DAA$VALUE
         2 000477   000000 011000                    NOP     0

      177     4524    5                      CALL DAA$VALUE(TOP.SUBLK$(I)->OUT.SUBLK$(1)->OUT, N2);

   4524  2 000500   200003 470500                    LDP0    @TOP,,AUTO
         2 000501   200006 720100                    LXL0    I,,AUTO
         2 000502   000003 471510                    LDP1    3,X0,PR0
         2 000503   100004 473500                    LDP3    4,,PR1
         2 000504   200011 634500                    EPPR4   N2,,AUTO
         2 000505   200051 454500                    STP4    @N+2,,AUTO
         2 000506   200050 453500                    STP3    @N+1,,AUTO
         2 000507   200050 630500                    EPPR0   @N+1,,AUTO
         2 000510   000020 631400 xsym               EPPR1   B_VECTNIL+16
         2 000511   000000 701000 xent               TSX1    DAA$VALUE
         2 000512   000000 011000                    NOP     0
PL6.E3A0      #001=DAD$IOC File=DAD$IOC.:E05TSI                                  TUE 07/29/97 12:44 Page:31

      178     4525    5                      IF N2 >= N1 THEN

   4525  2 000513   200011 236100                    LDQ     N2,,AUTO
         2 000514   200010 116100                    CMPQ    N1,,AUTO
         2 000515   000546 604000 2                  TMI     s:4535

      179     4526    6                         DO J=N1 TO N2;

   4526  2 000516   200010 235100                    LDA     N1,,AUTO
         2 000517   200007 755100                    STA     J,,AUTO
         2 000520   000526 710000 2                  TRA     s:4528+1

      180     4527    6                            CALL PRINTONE(J);

   4527  2 000521   200007 630500                    EPPR0   J,,AUTO
         2 000522   200047 450500                    STP0    P$+5,,AUTO
         2 000523   000600 701000 2                  TSX1    PRINTONE
         2 000524   000000 011000                    NOP     0

      181     4528    6                         END;

   4528  2 000525   200007 054100                    AOS     J,,AUTO
         2 000526   200007 236100                    LDQ     J,,AUTO
         2 000527   200011 116100                    CMPQ    N2,,AUTO
         2 000530   000521 604400 2                  TMOZ    s:4527
         2 000531   000546 710000 2                  TRA     s:4535

      182     4529
      183     4530    5                   CASE(%DA_IOC_NUM);

      184     4531    5                      CALL DAA$VALUE(TOP.SUBLK$(I)->OUT.SUBLK$(0)->OUT, N1);

   4531  2 000532   100003 473500                    LDP3    3,,PR1
         2 000533   200010 634500                    EPPR4   N1,,AUTO
         2 000534   200051 454500                    STP4    @N+2,,AUTO
         2 000535   200050 453500                    STP3    @N+1,,AUTO
PL6.E3A0      #001=DAD$IOC File=DAD$IOC.:E05TSI                                  TUE 07/29/97 12:44 Page:32
         2 000536   200050 630500                    EPPR0   @N+1,,AUTO
         2 000537   000020 631400 xsym               EPPR1   B_VECTNIL+16
         2 000540   000000 701000 xent               TSX1    DAA$VALUE
         2 000541   000000 011000                    NOP     0

      185     4532    5                      CALL PRINTONE(N1);

   4532  2 000542   200010 630500                    EPPR0   N1,,AUTO
         2 000543   200047 450500                    STP0    P$+5,,AUTO
         2 000544   000600 701000 2                  TSX1    PRINTONE
         2 000545   000000 011000                    NOP     0

      186     4533
      187     4534    5                END;  /* CASE */

      188     4535    4             END;  /* DO I */

   4535  2 000546   200006 054100                    AOS     I,,AUTO
         2 000547   200003 470500                    LDP0    @TOP,,AUTO
         2 000550   000001 236100                    LDQ     1,,PR0
         2 000551   000022 772000                    QRL     18
         2 000552   200006 116100                    CMPQ    I,,AUTO
         2 000553   000455 605400 2                  TPNZ    s:4521

      189     4536    3             END;  /* ENTRIES SPECIFIED */

   4536  2 000554   000576 710000 2                  TRA     s:4543

      190     4537    2          ELSE
      191     4538    3             DO I=1 TO CACHESIZ;

   4538  2 000555   000001 236007                    LDQ     1,DL
         2 000556   200006 756100                    STQ     I,,AUTO
         2 000557   000573 710000 2                  TRA     s:4541+1

      192     4539    3                IF FMC$CACHETBL.SRDA(I) > 0 THEN

PL6.E3A0      #001=DAD$IOC File=DAD$IOC.:E05TSI                                  TUE 07/29/97 12:44 Page:33
   4539  2 000560   200006 236100                    LDQ     I,,AUTO
         2 000561   000006 402007                    MPY     6,DL
         2 000562   200025 470500                    LDP0    CACHE$,,AUTO
         2 000563   000000 236106                    LDQ     0,QL,PR0
         2 000564   000032 316000 xsym               CANQ    B_VECTNIL+26
         2 000565   000572 600000 2                  TZE     s:4541

      193     4540    3                   CALL PRINTONE(I);

   4540  2 000566   200006 631500                    EPPR1   I,,AUTO
         2 000567   200047 451500                    STP1    P$+5,,AUTO
         2 000570   000600 701000 2                  TSX1    PRINTONE
         2 000571   000000 011000                    NOP     0

      194     4541    3             END;

   4541  2 000572   200006 054100                    AOS     I,,AUTO
         2 000573   200006 236100                    LDQ     I,,AUTO
         2 000574   200012 116100                    CMPQ    CACHESIZ,,AUTO
         2 000575   000560 604400 2                  TMOZ    s:4539

      195     4542
      196     4543    2          RETURN;

   4543  2 000576   200044 221300                    LDX1  ! P$+2,,AUTO
         2 000577   000001 702211                    TSX2  ! 1,X1

      197     4544    2          END PRINTCACHE;
      198     4545               %EJECT;
PL6.E3A0      #001=DAD$IOC File=DAD$IOC.:E05TSI                                  TUE 07/29/97 12:44 Page:34
      199     4546    1   PRINTONE: PROC(N);

   4546  2 000600   200046 741300       PRINTONE     STX1  ! P$+4,,AUTO

      200     4547    2          DCL N SBIN;
      201     4548        /* */
      202     4549    2          IF N < 1 OR N > CACHESIZ THEN

   4549  2 000601   200047 470500                    LDP0    @N,,AUTO
         2 000602   000000 235100                    LDA     0,,PR0
         2 000603   000607 604400 2                  TMOZ    s:4550
         2 000604   000000 236100                    LDQ     0,,PR0
         2 000605   200012 116100                    CMPQ    CACHESIZ,,AUTO
         2 000606   000610 604400 2                  TMOZ    s:4552

      203     4550    2             RETURN;

   4550  2 000607   000001 702211                    TSX2  ! 1,X1

      204     4551
      205     4552    2          TYPE=GTYP(FMC$CACHETBL.TYPE(N));

   4552  2 000610   000006 402007                    MPY     6,DL
         2 000611   200025 471500                    LDP1    CACHE$,,AUTO
         2 000612   100000 236106                    LDQ     0,QL,PR1
         2 000613   000033 772000                    QRL     27
         2 000614   000000 236006 0                  LDQ     GTYP,QL
         2 000615   200026 756100                    STQ     TYPE,,AUTO

      206     4553    2          SRDA=FMC$CACHETBL.SRDA(N);

   4553  2 000616   000000 236100                    LDQ     0,,PR0
         2 000617   000006 402007                    MPY     6,DL
         2 000620   100000 236106                    LDQ     0,QL,PR1
         2 000621   000032 376000 xsym               ANQ     B_VECTNIL+26
         2 000622   200027 756100                    STQ     SRDA,,AUTO

PL6.E3A0      #001=DAD$IOC File=DAD$IOC.:E05TSI                                  TUE 07/29/97 12:44 Page:35
      207     4554    2          FLINK=FMC$CACHETBL.FLINK(N);

   4554  2 000623   000000 236100                    LDQ     0,,PR0
         2 000624   000006 402007                    MPY     6,DL
         2 000625   100001 236106                    LDQ     1,QL,PR1
         2 000626   000022 772000                    QRL     18
         2 000627   200030 756100                    STQ     FLINK,,AUTO

      208     4555    2          BLINK=FMC$CACHETBL.BLINK(N);

   4555  2 000630   000000 236100                    LDQ     0,,PR0
         2 000631   000006 402007                    MPY     6,DL
         2 000632   100001 236106                    LDQ     1,QL,PR1
         2 000633   777777 376007                    ANQ     -1,DL
         2 000634   200031 756100                    STQ     BLINK,,AUTO

      209     4556    2          USECNT=FMC$CACHETBL.USECNT(N);

   4556  2 000635   000000 236100                    LDQ     0,,PR0
         2 000636   000006 402007                    MPY     6,DL
         2 000637   100002 236106                    LDQ     2,QL,PR1
         2 000640   777777 376007                    ANQ     -1,DL
         2 000641   200032 756100                    STQ     USECNT,,AUTO

      210     4557    2          UPCOUNT=FMC$CACHETBL.UPCOUNT(N);

   4557  2 000642   000000 236100                    LDQ     0,,PR0
         2 000643   000006 402007                    MPY     6,DL
         2 000644   100003 235106                    LDA     3,QL,PR1
         2 000645   200033 755100                    STA     UPCOUNT,,AUTO

      211     4558    2          SETX=FMC$CACHETBL.SETX(N);

   4558  2 000646   000000 236100                    LDQ     0,,PR0
         2 000647   000006 402007                    MPY     6,DL
         2 000650   100004 236106                    LDQ     4,QL,PR1
         2 000651   000022 772000                    QRL     18
PL6.E3A0      #001=DAD$IOC File=DAD$IOC.:E05TSI                                  TUE 07/29/97 12:44 Page:36
         2 000652   200034 756100                    STQ     SETX,,AUTO

      212     4559    2          IO=BITBIN(FMC$CACHETBL.FLAGS.IO(N));

   4559  2 000653   000000 236100                    LDQ     0,,PR0
         2 000654   000006 402007                    MPY     6,DL
         2 000655   100004 236106                    LDQ     4,QL,PR1
         2 000656   000003 772000                    QRL     3
         2 000657   000001 376007                    ANQ     1,DL
         2 000660   200035 756100                    STQ     IO,,AUTO

      213     4560    2          WAIT=BITBIN(FMC$CACHETBL.FLAGS.WAIT(N));

   4560  2 000661   000000 236100                    LDQ     0,,PR0
         2 000662   000006 402007                    MPY     6,DL
         2 000663   100004 236106                    LDQ     4,QL,PR1
         2 000664   000002 772000                    QRL     2
         2 000665   000001 376007                    ANQ     1,DL
         2 000666   200036 756100                    STQ     WAIT,,AUTO

      214     4561    2          ERR=BITBIN(FMC$CACHETBL.FLAGS.ERR(N));

   4561  2 000667   000000 236100                    LDQ     0,,PR0
         2 000670   000006 402007                    MPY     6,DL
         2 000671   100004 236106                    LDQ     4,QL,PR1
         2 000672   000001 772000                    QRL     1
         2 000673   000001 376007                    ANQ     1,DL
         2 000674   200037 756100                    STQ     ERR,,AUTO

      215     4562    2          BUFUP=BITBIN(FMC$CACHETBL.FLAGS.BUFUP(N));

   4562  2 000675   000000 236100                    LDQ     0,,PR0
         2 000676   000006 402007                    MPY     6,DL
         2 000677   100004 236106                    LDQ     4,QL,PR1
         2 000700   000001 376007                    ANQ     1,DL
         2 000701   200040 756100                    STQ     BUFUP,,AUTO

PL6.E3A0      #001=DAD$IOC File=DAD$IOC.:E05TSI                                  TUE 07/29/97 12:44 Page:37
      216     4563    2          AGE=FMC$CACHETBL.AGE(N);

   4563  2 000702   000000 236100                    LDQ     0,,PR0
         2 000703   000006 402007                    MPY     6,DL
         2 000704   100005 235106                    LDA     5,QL,PR1
         2 000705   200041 755100                    STA     AGE,,AUTO

      217     4564
      218     4565    2          CALL DAF$WRITE(VECTOR(CACHEFMT),
      219     4566    2             VECTOR(N),
      220     4567    2             VECTOR(IO),
      221     4568    2             VECTOR(WAIT),
      222     4569    2             VECTOR(ERR),
      223     4570    2             VECTOR(BUFUP),
      224     4571    2             VECTOR(TYPE),
      225     4572    2             VECTOR(SRDA),
      226     4573    2             VECTOR(FLINK),
      227     4574    2             VECTOR(BLINK),

   4574  2 000706   777640 235007                    LDA     -96,DL
         2 000707   200047 236100                    LDQ     @N,,AUTO
         2 000710   200050 757100                    STAQ    @N+1,,AUTO
         2 000711   777640 235007                    LDA     -96,DL
         2 000712   200052 452500                    STP2    @N+3,,AUTO
         2 000713   200052 236100                    LDQ     @N+3,,AUTO
         2 000714   000035 036003                    ADLQ    29,DU
         2 000715   200054 757100                    STAQ    @N+5,,AUTO
         2 000716   777640 235007                    LDA     -96,DL
         2 000717   200056 452500                    STP2    @N+7,,AUTO
         2 000720   200056 236100                    LDQ     @N+7,,AUTO
         2 000721   000036 036003                    ADLQ    30,DU
         2 000722   200060 757100                    STAQ    @N+9,,AUTO
         2 000723   777640 235007                    LDA     -96,DL
         2 000724   200062 452500                    STP2    @N+11,,AUTO
         2 000725   200062 236100                    LDQ     @N+11,,AUTO
         2 000726   000037 036003                    ADLQ    31,DU
         2 000727   200064 757100                    STAQ    @N+13,,AUTO
PL6.E3A0      #001=DAD$IOC File=DAD$IOC.:E05TSI                                  TUE 07/29/97 12:44 Page:38
         2 000730   777640 235007                    LDA     -96,DL
         2 000731   200066 452500                    STP2    @N+15,,AUTO
         2 000732   200066 236100                    LDQ     @N+15,,AUTO
         2 000733   000040 036003                    ADLQ    32,DU
         2 000734   200070 757100                    STAQ    @N+17,,AUTO
         2 000735   777640 235007                    LDA     -96,DL
         2 000736   200072 452500                    STP2    @N+19,,AUTO
         2 000737   200072 236100                    LDQ     @N+19,,AUTO
         2 000740   000026 036003                    ADLQ    22,DU
         2 000741   200074 757100                    STAQ    @N+21,,AUTO
         2 000742   777640 235007                    LDA     -96,DL
         2 000743   200076 452500                    STP2    @N+23,,AUTO
         2 000744   200076 236100                    LDQ     @N+23,,AUTO
         2 000745   000027 036003                    ADLQ    23,DU
         2 000746   200100 757100                    STAQ    @N+25,,AUTO
         2 000747   777640 235007                    LDA     -96,DL
         2 000750   200102 452500                    STP2    @N+27,,AUTO
         2 000751   200102 236100                    LDQ     @N+27,,AUTO
         2 000752   000030 036003                    ADLQ    24,DU
         2 000753   200104 757100                    STAQ    @N+29,,AUTO
         2 000754   777640 235007                    LDA     -96,DL
         2 000755   200106 452500                    STP2    @N+31,,AUTO
         2 000756   200106 236100                    LDQ     @N+31,,AUTO
         2 000757   000031 036003                    ADLQ    25,DU
         2 000760   200110 757100                    STAQ    @N+33,,AUTO
         2 000761   777640 235007                    LDA     -96,DL
         2 000762   200112 452500                    STP2    @N+35,,AUTO
         2 000763   200112 236100                    LDQ     @N+35,,AUTO
         2 000764   000032 036003                    ADLQ    26,DU
         2 000765   200114 757100                    STAQ    @N+37,,AUTO
         2 000766   777640 235007                    LDA     -96,DL
         2 000767   200116 452500                    STP2    @N+39,,AUTO
         2 000770   200116 236100                    LDQ     @N+39,,AUTO
         2 000771   000033 036003                    ADLQ    27,DU
         2 000772   200120 757100                    STAQ    @N+41,,AUTO
         2 000773   777640 235007                    LDA     -96,DL
         2 000774   200122 452500                    STP2    @N+43,,AUTO
PL6.E3A0      #001=DAD$IOC File=DAD$IOC.:E05TSI                                  TUE 07/29/97 12:44 Page:39
         2 000775   200122 236100                    LDQ     @N+43,,AUTO
         2 000776   000034 036003                    ADLQ    28,DU
         2 000777   200124 757100                    STAQ    @N+45,,AUTO
         2 001000   777640 235007                    LDA     -96,DL
         2 001001   200126 452500                    STP2    @N+47,,AUTO
         2 001002   200126 236100                    LDQ     @N+47,,AUTO
         2 001003   000041 036003                    ADLQ    33,DU
         2 001004   200132 757100                    STAQ    @N+51,,AUTO
         2 001005   200050 237100                    LDAQ    @N+1,,AUTO
         2 001006   200130 757100                    STAQ    @N+49,,AUTO
         2 001007   200054 237100                    LDAQ    @N+5,,AUTO
         2 001010   200134 757100                    STAQ    @N+53,,AUTO
         2 001011   200060 237100                    LDAQ    @N+9,,AUTO
         2 001012   200136 757100                    STAQ    @N+55,,AUTO
         2 001013   200064 237100                    LDAQ    @N+13,,AUTO
         2 001014   200140 757100                    STAQ    @N+57,,AUTO
         2 001015   200070 237100                    LDAQ    @N+17,,AUTO
         2 001016   200142 757100                    STAQ    @N+59,,AUTO
         2 001017   200074 237100                    LDAQ    @N+21,,AUTO
         2 001020   200144 757100                    STAQ    @N+61,,AUTO
         2 001021   200100 237100                    LDAQ    @N+25,,AUTO
         2 001022   200146 757100                    STAQ    @N+63,,AUTO
         2 001023   200104 237100                    LDAQ    @N+29,,AUTO
         2 001024   200150 757100                    STAQ    @N+65,,AUTO
         2 001025   200110 237100                    LDAQ    @N+33,,AUTO
         2 001026   200152 757100                    STAQ    @N+67,,AUTO
         2 001027   200114 237100                    LDAQ    @N+37,,AUTO
         2 001030   200154 757100                    STAQ    @N+69,,AUTO
         2 001031   200120 237100                    LDAQ    @N+41,,AUTO
         2 001032   200156 757100                    STAQ    @N+71,,AUTO
         2 001033   200124 237100                    LDAQ    @N+45,,AUTO
         2 001034   200160 757100                    STAQ    @N+73,,AUTO
         2 001035   200132 237100                    LDAQ    @N+51,,AUTO
         2 001036   200162 757100                    STAQ    @N+75,,AUTO
         2 001037   200162 633500                    EPPR3   @N+75,,AUTO
         2 001040   200201 453500                    STP3    @N+90,,AUTO
         2 001041   200160 634500                    EPPR4   @N+73,,AUTO
PL6.E3A0      #001=DAD$IOC File=DAD$IOC.:E05TSI                                  TUE 07/29/97 12:44 Page:40
         2 001042   200200 454500                    STP4    @N+89,,AUTO
         2 001043   200156 635500                    EPPR5   @N+71,,AUTO
         2 001044   200177 455500                    STP5    @N+88,,AUTO
         2 001045   200154 636500                    EPPR6   @N+69,,AUTO
         2 001046   200176 456500                    STP6    @N+87,,AUTO
         2 001047   200152 637500                    EPPR7   @N+67,,AUTO
         2 001050   200175 457500                    STP7    @N+86,,AUTO
         2 001051   200150 630500                    EPPR0   @N+65,,AUTO
         2 001052   200174 450500                    STP0    @N+85,,AUTO
         2 001053   200146 630500                    EPPR0   @N+63,,AUTO
         2 001054   200173 450500                    STP0    @N+84,,AUTO
         2 001055   200144 630500                    EPPR0   @N+61,,AUTO
         2 001056   200172 450500                    STP0    @N+83,,AUTO
         2 001057   200142 630500                    EPPR0   @N+59,,AUTO
         2 001060   200171 450500                    STP0    @N+82,,AUTO
         2 001061   200140 630500                    EPPR0   @N+57,,AUTO
         2 001062   200170 450500                    STP0    @N+81,,AUTO
         2 001063   200136 630500                    EPPR0   @N+55,,AUTO
         2 001064   200167 450500                    STP0    @N+80,,AUTO
         2 001065   200134 630500                    EPPR0   @N+53,,AUTO
         2 001066   200166 450500                    STP0    @N+79,,AUTO
         2 001067   200130 630500                    EPPR0   @N+49,,AUTO
         2 001070   200165 450500                    STP0    @N+78,,AUTO
         2 001071   000023 236000 3                  LDQ     19
         2 001072   200164 756100                    STQ     @N+77,,AUTO
         2 001073   200164 630500                    EPPR0   @N+77,,AUTO
         2 001074   000000 220000 xsym               LDX0    DAF$WRITE
         2 001075   000022 631400 3                  EPPR1   18
         2 001076   000000 701010                    TSX1    0,X0
         2 001077   000000 011000                    NOP     0

      228     4575    2             VECTOR(USECNT),
      229     4576    2             VECTOR(UPCOUNT),
      230     4577    2             VECTOR(SETX),
      231     4578    2             VECTOR(AGE));
      232     4579
      233     4580    2          RETURN;
PL6.E3A0      #001=DAD$IOC File=DAD$IOC.:E05TSI                                  TUE 07/29/97 12:44 Page:41

   4580  2 001100   200046 221300                    LDX1  ! P$+4,,AUTO
         2 001101   000001 702211                    TSX2  ! 1,X1
      234     4581    2          END PRINTONE;
      235     4582    1          END DAD$IOC;

PL6.E3A0      #001=DAD$IOC File=DAD$IOC.:E05TSI                                  TUE 07/29/97 12:44 Page:42
--  Include file information  --

   XU_MACRO_C.:E05TOU  is referenced.
   FM_CACHE_C.:E05TOU  is referenced.
   DA_MONSYM_C.:E05TOU  is referenced.
   DA_TEXTC_C.:E05TOU  is referenced.
   DA_PERR_C.:E05TOU  is referenced.
   DA_MAP_R.:E05TOU  cannot be made into a system file and is referenced.
   DA_FORMAT_C.:E05TOU  is referenced.
   DA_CMD_C.:E05TOU  is referenced.
      No diagnostics issued in procedure DAD$IOC.
PL6.E3A0      #001=DAD$IOC File=DAD$IOC.:E05TSI                                  TUE 07/29/97 12:44 Page:43

 **** Variables and constants ****

  ****  Section 000 RoData DAD$IOC

  ****  Scalars and arrays  ****
OctLoc.c.b A Datatyp(siz) R M Lvl/name                 OctLoc.c.b A Datatyp(siz) R M Lvl/name

    13-0-0/c CHAR(61)    r     1 CACHEFMT                   0-0-0/c CHAR(4)     r     1 GTYP(0:10)
    33-0-0/c CHAR(35)    r     1 STATSFMT

  ****  Section 001  Data  DAD$IOC

  ****  Scalars and arrays  ****
OctLoc.c.b A Datatyp(siz) R M Lvl/name                 OctLoc.c.b A Datatyp(siz) R M Lvl/name

     0-0-0/w STRC(288)   r     1 CACHEHDR                  15-0-0/w STRC(144)   r     1 CACHEHDRHD00
    43-0-0/w STRC(144)   r     1 CACHEHDRHD01              10-0-0/c STRC(153)   r     1 CACHEHDRTX00
    21-0-0/c STRC(648)   r     1 CACHEHDRTX01              47-0-0/c STRC(684)   r     1 CACHEHDRTX02
    72-0-0/w STRC(288)   r     1 STATHDR                  110-0-0/w STRC(144)   r     1 STATHDRHD00
   140-0-0/w STRC(144)   r     1 STATHDRHD01              102-0-0/c STRC(189)   r     1 STATHDRTX00
   114-0-0/c STRC(711)   r     1 STATHDRTX01              144-0-0/c STRC(711)   r     1 STATHDRTX02

  ****  Auto variables  ****

  ****  Scalars and arrays  ****
OctLoc.c.b A Datatyp(siz) R M Lvl/name                 OctLoc.c.b A Datatyp(siz) R M Lvl/name

    47-0-0/w PTR         r     1 @N                         3-0-0/w PTR         r     1 @TOP
    41-0-0/w UBIN        r     1 AGE                       21-0-0/w SBIN        r     1 ATTGET
    22-0-0/w SBIN        r     1 ATTPUT                    31-0-0/w UBIN        r     1 BLINK
    40-0-0/w UBIN        r     1 BUFUP                     25-0-0/w PTR         r     1 CACHE$
     5-0-0/w SBIN        r     1 CACHEFLG                  12-0-0/w SBIN        r     1 CACHESIZ
    37-0-0/w UBIN        r     1 ERR                       23-0-0/w SBIN        r     1 FAILED
    30-0-0/w UBIN        r     1 FLINK                     20-0-0/w SBIN        r     1 HITNONZERO
    17-0-0/w SBIN        r     1 HITZERO                    6-0-0/w SBIN        r     1 I
    35-0-0/w UBIN        r     1 IO                         7-0-0/w SBIN        r     1 J
    *0-0-0/w SBIN        r     1 N                         10-0-0/w SBIN        r     1 N1
PL6.E3A0      #001=DAD$IOC File=DAD$IOC.:E05TSI                                  TUE 07/29/97 12:44 Page:44
    11-0-0/w SBIN        r     1 N2                        16-0-0/w SBIN        r     1 NEWEST
    15-0-0/w SBIN        r     1 OLDEST                    42-0-0/w PTR         r     1 P$
    34-0-0/w UBIN        r     1 SETX                      27-0-0/w UBIN        r     1 SRDA
     4-0-0/w SBIN        r     1 STATFLG                   14-0-0/w PTR         r     1 STATS$
    *0-0-0/w STRC(144)   r     1 TOP                       26-0-0/c CHAR(4)     r     1 TYPE
    13-0-0/w PTR         r     1 TYPTBL$                   24-0-0/w SBIN        r     1 UNUSED
    33-0-0/w UBIN        r     1 UPCOUNT                   32-0-0/w UBIN        r     1 USECNT
    36-0-0/w UBIN        r     1 WAIT

  ****  SYMREF variables  ****

  ****  Scalars and arrays  ****
OctLoc.c.b A Datatyp(siz) R M Lvl/name                 OctLoc.c.b A Datatyp(siz) R M Lvl/name

     0-0-0/w EPTR        r     1 DAF$WRITE                  0-0-0/b BIT (72)    r     1 DA_MONISDATA

  ****  BASED and DCB variables  ****

  ****  Scalars and arrays  ****
OctLoc.c.b A Datatyp(siz) R M Lvl/name                 OctLoc.c.b A Datatyp(siz) R M Lvl/name

     0-0-0/w STRC(216)   r     1 FMC$CACHETBL(0:0)
     0-0-0/w STRC(2376)  r     1 FMC$STATS
     0-0-0/w STRC(72)    r     1 FMC$TYPTBL(0:10)
     0-0-0/w STRC(144)   r     1 OUT                        0-0-0/w PTR         r     1 PTR$
     0-0-0/w UBIN        r     1 WRD


   Procedure DAD$IOC requires 578 words for executable code.
   Procedure DAD$IOC requires 130 words of local(AUTO) storage.

    No errors detected in file DAD$IOC.:E05TSI    .
PL6.E3A0      #001=DAD$IOC File=DAD$IOC.:E05TSI                                  TUE 07/29/97 12:44 Page:45
          *** CROSS REFERENCE LISTING ***
**     DENOTES     IDENTIFIER DEFINITION
<<                 IDENTIFIER'S VALUE SET
>>                 IDENTIFIER'S VALUE USED
<>                 IDENTIFIER SET AND/OR USED
--                 IDENTIFIER REFERENCED
PL6.E3A0      #001=DAD$IOC File=DAD$IOC.:E05TSI                                  TUE 07/29/97 12:44 Page:46
          MINI XREF LISTING

AGE
      4078**DCL      4563<<ASSIGN   4574--CALL
ATTGET
      4062**DCL      4489<<ASSIGN   4502--CALL
ATTPUT
      4063**DCL      4490<<ASSIGN   4502--CALL
BLINK
      4070**DCL      4555<<ASSIGN   4574--CALL
BUFUP
      4077**DCL      4562<<ASSIGN   4574--CALL
CACHE$
      4066**DCL      4400--IMP-PTR  4511<>CALL     4512<>CALL     4512<>CALL     4513<<ASSIGN   4513>>ASSIGN
      4514<>CALL     4514<>CALL     4539>>IF       4552>>ASSIGN   4553>>ASSIGN   4554>>ASSIGN   4555>>ASSIGN
      4556>>ASSIGN   4557>>ASSIGN   4558>>ASSIGN   4559>>ASSIGN   4560>>ASSIGN   4561>>ASSIGN   4562>>ASSIGN
      4563>>ASSIGN
CACHEFLG
      4050**DCL      4437<<ASSIGN   4442<<ASSIGN   4448<<ASSIGN   4464>>IF       4518>>IF
CACHEFMT
      4393**DCL      4574--CALL
CACHEHDR
      4103**DCL      4516<>CALL
CACHEHDRHD00
      4170**DCL      4138--DCLINIT
CACHEHDRHD01
      4213**DCL      4185--DCLINIT
CACHEHDRTX00
      4146**DCL      4133--DCLINIT
CACHEHDRTX01
      4188**DCL      4178--DCLINIT
CACHEHDRTX02
      4231**DCL      4221--DCLINIT
CACHESIZ
PL6.E3A0      #001=DAD$IOC File=DAD$IOC.:E05TSI                                  TUE 07/29/97 12:44 Page:47
      4055**DCL      4457<<ASSIGN   4458>>IF       4538>>DOINDEX  4549>>IF
DAA$VALUE
      4043**DCL-ENT  4523--CALL     4524--CALL     4531--CALL
DAF$INIT
      4044**DCL-ENT  4471--CALL     4516--CALL
DAF$WRITE
      4045**DCL      4502>>CALL     4574>>CALL
DAM$MAP
      4046**DCL-ENT  4456--CALL     4474--CALL     4476--CALL     4479--CALL     4481--CALL     4512--CALL
      4514--CALL
DAS$SDMONPTR
      4047**DCL-ENT  4455--CALL     4473--CALL     4478--CALL     4511--CALL
DA_MAPSEG.P
       625**DCL       626--REDEF
DA_MONISDATA
       618**DCL      4456<>CALL     4474<>CALL     4479<>CALL     4512<>CALL
DA_SDASN.DESC.TYPE0
       610**DCL       610--REDEF
DA_TIGRSEG.P
       626**DCL       627--REDEF
ERR
      4076**DCL      4561<<ASSIGN   4574--CALL
FAILED
      4064**DCL      4488<<ASSIGN   4502--CALL
FLINK
      4069**DCL      4554<<ASSIGN   4574--CALL
FMC$CACHETBL.AGE
      4419**DCL      4563>>ASSIGN
FMC$CACHETBL.BLINK
      4407**DCL      4555>>ASSIGN
FMC$CACHETBL.FLAGS.BUFUP
      4418**DCL      4562>>ASSIGN
FMC$CACHETBL.FLAGS.ERR
      4417**DCL      4561>>ASSIGN
FMC$CACHETBL.FLAGS.IO
      4415**DCL      4559>>ASSIGN
PL6.E3A0      #001=DAD$IOC File=DAD$IOC.:E05TSI                                  TUE 07/29/97 12:44 Page:48
FMC$CACHETBL.FLAGS.WAIT
      4416**DCL      4560>>ASSIGN
FMC$CACHETBL.FLINK
      4406**DCL      4554>>ASSIGN
FMC$CACHETBL.SETX
      4411**DCL      4558>>ASSIGN
FMC$CACHETBL.SRDA
      4405**DCL      4539>>IF       4553>>ASSIGN
FMC$CACHETBL.TYPE
      4404**DCL      4552>>ASSIGN
FMC$CACHETBL.UPCOUNT
      4410**DCL      4557>>ASSIGN
FMC$CACHETBL.USECNT
      4409**DCL      4556>>ASSIGN
FMC$STATS.ATTGET
      4426**DCL      4489>>ASSIGN
FMC$STATS.ATTPUT
      4427**DCL      4490>>ASSIGN
FMC$STATS.FAILED
      4425**DCL      4488>>ASSIGN
FMC$STATS.HITNONZERO
      4424**DCL      4487>>ASSIGN
FMC$STATS.HITZERO
      4423**DCL      4486>>ASSIGN
FMC$STATS.UNUSED
      4428**DCL      4491>>ASSIGN
FMC$TYPTBL.NEWEST
      4433**DCL      4485>>ASSIGN
FMC$TYPTBL.OLDEST
      4432**DCL      4484>>ASSIGN
GTYP
      4081**DCL      4502--CALL     4552>>ASSIGN
HITNONZERO
      4061**DCL      4487<<ASSIGN   4502--CALL
HITZERO
      4060**DCL      4486<<ASSIGN   4502--CALL
PL6.E3A0      #001=DAD$IOC File=DAD$IOC.:E05TSI                                  TUE 07/29/97 12:44 Page:49
I
      4051**DCL      4445<<DOINDEX  4446>>DOCASE   4483<<DOINDEX  4484>>ASSIGN   4485>>ASSIGN   4486>>ASSIGN
      4487>>ASSIGN   4488>>ASSIGN   4489>>ASSIGN   4490>>ASSIGN   4491>>ASSIGN   4502>>CALL     4520<<DOINDEX
      4521>>DOCASE   4523>>CALL     4524>>CALL     4531>>CALL     4538<<DOINDEX  4539>>IF       4540<>CALL
IO
      4074**DCL      4559<<ASSIGN   4574--CALL
J
      4052**DCL      4526<<DOINDEX  4527<>CALL
N IN PROCEDURE PRINTONE
      4547**DCL      4546--PROC     4549>>IF       4549>>IF       4552>>ASSIGN   4553>>ASSIGN   4554>>ASSIGN
      4555>>ASSIGN   4556>>ASSIGN   4557>>ASSIGN   4558>>ASSIGN   4559>>ASSIGN   4560>>ASSIGN   4561>>ASSIGN
      4562>>ASSIGN   4563>>ASSIGN   4574--CALL
N1
      4053**DCL      4523<>CALL     4525>>IF       4526>>DOINDEX  4531<>CALL     4532<>CALL
N2
      4054**DCL      4524<>CALL     4525>>IF       4526>>DOINDEX
NEWEST
      4059**DCL      4485<<ASSIGN   4502--CALL
OLDEST
      4058**DCL      4484<<ASSIGN   4502--CALL
OUT
      4001**DCL      4523<>CALL     4524<>CALL     4531<>CALL
OUT.CODE
      4009**DCL      4446>>DOCASE   4521>>DOCASE
OUT.SUBLK$
      4034**DCL      4523>>CALL     4524>>CALL     4531>>CALL
P$
      4079**DCL      4455<>CALL     4456<>CALL     4456<>CALL     4457>>ASSIGN
PRINTCACHE
      4509**PROC     4465--CALL
PRINTONE
      4546**PROC     4527--CALL     4532--CALL     4540--CALL
PRINTSTATS
      4469**PROC     4462--CALL
PTR$
      4040**DCL      4475>>ASSIGN   4480>>ASSIGN   4513>>ASSIGN
PL6.E3A0      #001=DAD$IOC File=DAD$IOC.:E05TSI                                  TUE 07/29/97 12:44 Page:50
SETX
      4073**DCL      4558<<ASSIGN   4574--CALL
SRDA
      4068**DCL      4553<<ASSIGN   4574--CALL
STATFLG
      4049**DCL      4436<<ASSIGN   4441<<ASSIGN   4451<<ASSIGN   4461>>IF
STATHDR
      4257**DCL      4471<>CALL
STATHDRHD00
      4324**DCL      4292--DCLINIT
STATHDRHD01
      4367**DCL      4339--DCLINIT
STATHDRTX00
      4300**DCL      4287--DCLINIT
STATHDRTX01
      4342**DCL      4332--DCLINIT
STATHDRTX02
      4385**DCL      4375--DCLINIT
STATS$
      4057**DCL      4422--IMP-PTR  4478<>CALL     4479<>CALL     4479<>CALL     4480<<ASSIGN   4480>>ASSIGN
      4481<>CALL     4481<>CALL     4486>>ASSIGN   4487>>ASSIGN   4488>>ASSIGN   4489>>ASSIGN   4490>>ASSIGN
      4491>>ASSIGN
STATSFMT
      4395**DCL      4502--CALL
TOP
      3955**DCL         8--PROC
TOP.NSUBLKS
      3967**DCL      4439>>IF       4445>>DOINDEX  4520>>DOINDEX
TOP.SUBLK$
      3988**DCL      4446>>DOCASE   4521>>DOCASE   4523>>CALL     4524>>CALL     4531>>CALL
TYPE
      4067**DCL      4552<<ASSIGN   4574--CALL
TYPTBL$
      4056**DCL      4431--IMP-PTR  4473<>CALL     4474<>CALL     4474<>CALL     4475<<ASSIGN   4475>>ASSIGN
      4476<>CALL     4476<>CALL     4484>>ASSIGN   4485>>ASSIGN
UNUSED
PL6.E3A0      #001=DAD$IOC File=DAD$IOC.:E05TSI                                  TUE 07/29/97 12:44 Page:51
      4065**DCL      4491<<ASSIGN   4502--CALL
UPCOUNT
      4072**DCL      4557<<ASSIGN   4574--CALL
USECNT
      4071**DCL      4556<<ASSIGN   4574--CALL
WAIT
      4075**DCL      4560<<ASSIGN   4574--CALL
WRD
      4041**DCL      4457>>ASSIGN
