PL6.E3A0      #003=DAD$SCTX File=DAD$ROUTE.:E05TSI                               TUE 07/29/97 12:45 Page:154
      795        1        /*T***********************************************************/
      796        2        /*T*                                                         */
      797        3        /*T* Copyright (c) Bull HN Information Systems Inc., 1997    */
      798        4        /*T*                                                         */
      799        5        /*T***********************************************************/
      800        6        /*F*    NAME: DAD$SCTX
      801        7                PURPOSE: To process the SCTX command for the Host.
      802        8        */
      803        9        /*X* DDA */
      804       10        DAD$SCTX: PROC( TOP);
      805       11        %INCLUDE CP_6;
      806     5570        %INCLUDE CP_6_SUBS;
      807     6110        %INCLUDE DA_FORMAT_C;
      808     6352        %INCLUDE DA_MONSYM_C;
      809     6403        %INCLUDE DA_ANLZ_R;
      810     6416        %INCLUDE DA_MAP_R;
      811     6446        %INCLUDE K_ADDRESS_M;
      812     6949        %INCLUDE K_SESSION_M;
      813     7039            %KIS$APPL( NAME=APPL, STCLASS=BASED);
      814     7108        %INCLUDE XU_MACRO_C;
      815    10214            %PARSE$OUT( NAME=TOP, STCLASS=PARAM);
      816    10259            %PARSE$OUT( NAME=OUT, STCLASS=BASED);
      817    10304
      818    10305    1       DCL DAA$VALUE ENTRY(3) ALTRET;
      819    10306    1       DCL DAF$INIT ENTRY(1) ALTRET;
      820    10307    1       DCL DAF$WRITE EPTR SYMREF;
      821    10308    1       DCL DAM$MAP ENTRY(5) ALTRET;
      822    10309    1       DCL DAS$SDMONPTR ENTRY(2) ALTRET;
      823    10310
      824    10311    1       DCL B$HALF UBIN(18) BASED;
      825    10312    1       DCL B$PTR PTR BASED;
      826    10313    1       DCL B$SBIN SBIN BASED;
      827    10314    1       DCL DISPALL BIT(1);
      828    10315    1       DCL I SBIN;
      829    10316    1       DCL J SBIN;
      830    10317    1       DCL KIS_MAJOR$ PTR;
      831    10318    1       DCL KIS_MINOR$ PTR;
PL6.E3A0      #003=DAD$SCTX File=DAD$ROUTE.:E05TSI                               TUE 07/29/97 12:45 Page:155
      832    10319    1       DCL KIS_SSN_CLIENTS SBIN;
      833    10320    1       DCL KIS_SSN_SERVERS SBIN;
      834    10321    1       DCL KIS_SSN_MAX SBIN;
      835    10322    1       DCL MAJCLNT# SBIN;
      836    10323    1       DCL MAJSRVR# SBIN;
      837    10324    1       DCL MINCLNT# SBIN;
      838    10325    1       DCL MINSRVR# SBIN;
      839    10326    1       DCL NEEDHDR BIT(1);
      840    10327    1       DCL P$ PTR;
      841    10328    1       DCL SCTX UBIN STATIC;
      842    10329    1       DCL SCTX_ VECTOR CONSTANT INIT( VECTOR( SCTX));
      843    10330    1       DCL TYPE CHAR(4) STATIC;
      844    10331    1       DCL TYPE_ VECTOR CONSTANT INIT( VECTOR( TYPE));
      845    10332    1       DCL X SBIN;
      846    10333
      847    10334            %REPORT( NAME=RPT, TRUNC=YES, TABDFLT=5, HEADER=YES,
      848    10335                     TITLE='Host OSI Session context');
      849    10401            %HEADER( LAST=NO, TEXT=
      850    10402        '$LS83-> SCTX TYPE  MajMin   SCID LDCTX AUDCT  USER TSAP/TCTX/Cookie');
      851    10444            %HEADER( TEXT=
      852    10445        '------- ---- ---- ------- ------ ----- ----- ----- -------------------------------'
             10445            );
      853    10487    1       DCL FMTMAJCLNT CHAR(0) CONSTANT INIT(
      854    10488    1   '.%6ZO %4D %A .%3ZO    %6D  .%3ZO        .%3ZO');
      855    10489    1       DCL FMTMAJCLNT_ VECTOR CONSTANT INIT( VECTOR( FMTMAJCLNT));
      856    10490    1       DCL FMTMAJSRVR CHAR(0) CONSTANT INIT(
      857    10491    1   '.%6ZO %4D %A .%3ZO    %6D  .%3ZO  .%3ZO  .%3ZO %A');
      858    10492    1       DCL FMTMAJSRVR_ VECTOR CONSTANT INIT( VECTOR( FMTMAJSRVR));
      859    10493    1       DCL FMTMIN CHAR(0) CONSTANT INIT(
      860    10494    1   '.%6ZO      %A .%3ZO%3ZO %6D                   TCTX=%D, Cookie=%D');
      861    10495    1       DCL FMTMIN_ VECTOR CONSTANT INIT( VECTOR( FMTMIN));
      862    10496    1       DCL FMTMAJSUM CHAR(0) CONSTANT INIT(
      863    10497    1   'Major Table: %D slots (%D Srvr, %D Clnt), %D in use (%D Srvr, %D Clnt), %D free');
      864    10498    1       DCL FMTMAJSUM_ VECTOR CONSTANT INIT( VECTOR( FMTMAJSUM));
      865    10499    1       DCL FMTMINSUM CHAR(0) CONSTANT INIT(
      866    10500    1   'Minor Table: %D slots (%D Srvr or Clnt), %D in use (%D Srvr, %D Clnt), %D free');
      867    10501    1       DCL FMTMINSUM_ VECTOR CONSTANT INIT( VECTOR( FMTMINSUM));
PL6.E3A0      #003=DAD$SCTX File=DAD$ROUTE.:E05TSI                               TUE 07/29/97 12:45 Page:156
      868    10502
      869    10503            /* get max number of clients */
      870    10504    1       CALL DAS$SDMONPTR( %M#KIS_SSN_CLIENTS, P$) ALTRET( DONE);
      871    10505    1       CALL DAM$MAP( P$, P$, , , DA_MONISDATA) ALTRET( DONE);
      872    10506    1       KIS_SSN_CLIENTS = P$->B$SBIN;
      873    10507            /* get max number of servers */
      874    10508    1       CALL DAS$SDMONPTR( %M#KIS_SSN_SERVERS, P$) ALTRET( DONE);
      875    10509    1       CALL DAM$MAP( P$, P$, , , DA_MONISDATA) ALTRET( DONE);
      876    10510    1       KIS_SSN_SERVERS = P$->B$SBIN;
      877    10511            /* get max number of connections */
      878    10512    1       CALL DAS$SDMONPTR( %M#KIS_SSN_MAX, P$) ALTRET( DONE);
      879    10513    1       CALL DAM$MAP( P$, P$, , , DA_MONISDATA) ALTRET( DONE);
      880    10514    1       KIS_SSN_MAX = P$->B$SBIN;
      881    10515            /* get ptr to major table */
      882    10516    1       CALL DAS$SDMONPTR( %M#KIS_MAJOR$, P$) ALTRET( DONE);
      883    10517    1       CALL DAM$MAP( P$, P$, , , DA_MONISDATA) ALTRET( DONE);
      884    10518    1       KIS_MAJOR$ = P$->B$PTR;
      885    10519    1       CALL DAM$MAP( KIS_MAJOR$, KIS_MAJOR$);
      886    10520            /* get ptr to minor table */
      887    10521    1       CALL DAS$SDMONPTR( %M#KIS_MINOR$, P$) ALTRET( DONE);
      888    10522    1       CALL DAM$MAP( P$, P$, , , DA_MONISDATA) ALTRET( DONE);
      889    10523    1       KIS_MINOR$ = P$->B$PTR;
      890    10524    1       CALL DAM$MAP( KIS_MINOR$, KIS_MINOR$);
      891    10525            /* o.k.... let's get going */
      892    10526    1       MAJCLNT# = 0;
      893    10527    1       MAJSRVR# = 0;
      894    10528    1       MINCLNT# = 0;
      895    10529    1       MINSRVR# = 0;
      896    10530    1       DISPALL = %NO#;
      897    10531    1       NEEDHDR = %YES#;
      898    10532    2       IF TOP.NSUBLKS = 1 THEN DO;
      899    10533    2           CALL DAA$VALUE( TOP.SUBLK$(0)->OUT, I) ALTRET( RUNALL);
      900    10534    3           IF I = 0 THEN DO;
      901    10535    3               DISPALL = %YES#;
      902    10536    3               GOTO RUNALL;
      903    10537    3               END;
      904    10538    2           END;
PL6.E3A0      #003=DAD$SCTX File=DAD$ROUTE.:E05TSI                               TUE 07/29/97 12:45 Page:157
      905    10539    2       IF TOP.NSUBLKS > 0 THEN DO;
      906    10540    3           DO X = 0 TO TOP.NSUBLKS - 1;
      907    10541    3               CALL DAA$VALUE( TOP.SUBLK$( X)->OUT, I) ALTRET( NEXT);
      908    10542    4               IF I < 10*KIS_SSN_SERVERS THEN DO;
      909    10543    4                   IF I = 1+10*((I-1)/10) THEN
      910    10544    4                       CALL MAJSRVR( PINCRW( KIS_MAJOR$, I), %YES#);
      911    10545    4                   ELSE
      912    10546    4                       GOTO NEXT;
      913    10547    4                   END;
      914    10548    3               ELSE
      915    10549    3                   IF I <= 10*KIS_SSN_SERVERS + KIS_SSN_CLIENTS THEN
      916    10550    3                       CALL MAJCLNT( PINCRW( KIS_MAJOR$, I), %YES#);
      917    10551    3   NEXT:
      918    10552    3               END;
      919    10553    2           RETURN;
      920    10554    2           END;
      921    10555    1   RUNALL:
      922    10556            /* run the server part of the major table */
      923    10557    2       DO I = 1 TO KIS_SSN_SERVERS;
      924    10558    2           P$ = PINCRW( KIS_MAJOR$, 10*I - 9);
      925    10559    2           CALL MAJSRVR( P$, DISPALL);
      926    10560    2           END;
      927    10561            /* run the client part of the major table */
      928    10562    2       DO I = 1 TO KIS_SSN_CLIENTS;
      929    10563    2           P$ = PINCRW( KIS_MAJOR$, I + 10*KIS_SSN_SERVERS);
      930    10564    2           CALL MAJCLNT( P$, DISPALL);
      931    10565    2           END;
      932    10566    1       CALL DSPMAJSUM;  /* display major table summary */
      933    10567            /* run the minor table if necessary */
      934    10568    2       IF DISPALL THEN DO;
      935    10569    2           P$ = PINCRW( KIS_MINOR$, KIS_MINOR$->APPL.Z.LINK);
      936    10570    2           CALL MINFREE( P$, %YES#);
      937    10571    2           END;
      938    10572    1       CALL DSPMINSUM;  /* display minor table summary */
      939    10573    1   DONE:
      940    10574    1       RETURN;
      941    10575        %EJECT;
PL6.E3A0      #003=DAD$SCTX File=DAD$ROUTE.:E05TSI                               TUE 07/29/97 12:45 Page:158
      942    10576    1   CHAIN: PROC( P$, FLAG);
      943    10577
      944    10578    2       DCL ACTION SBIN;
      945    10579        %EQU SRVR = 0;
      946    10580        %EQU CLNT = 1;
      947    10581        %EQU FREE = 2;
      948    10582    2       DCL P$ PTR;
      949    10583    2       DCL FLAG BIT(1);
      950    10584
      951    10585    2   MAJSRVR: ENTRY( P$, FLAG);
      952    10586
      953    10587    2       ACTION = %SRVR;
      954    10588    2       TYPE = 'Srvr';
      955    10589    2       IF P$->APPL.LDCTX > 0 THEN
      956    10590    2           MAJSRVR# = MAJSRVR# + 1;
      957    10591    2       GOTO COMMON;
      958    10592
      959    10593    2   MAJCLNT: ENTRY( P$, FLAG);
      960    10594
      961    10595    2       ACTION = %CLNT;
      962    10596    2       TYPE = 'Clnt';
      963    10597    2       IF P$->APPL.LDCTX > 0 THEN
      964    10598    2           MAJCLNT# = MAJCLNT# + 1;
      965    10599    2       GOTO COMMON;
      966    10600
      967    10601    2   MINFREE: ENTRY( P$, FLAG);
      968    10602
      969    10603    2       ACTION = %FREE;
      970    10604    2       TYPE = 'Free';
      971    10605    2       SCTX = 0;
      972    10606    2   COMMON:
      973    10607    3       DO CASE( ACTION);
      974    10608    3           CASE( %SRVR);
      975    10609    3               IF FLAG OR P$->APPL.LDCTX > 0 THEN
      976    10610    3                   CALL DSPMAJSRVR( P$);
      977    10611    3               IF P$->APPL.LDCTX = 0 THEN
      978    10612    3                   GOTO DONE;
PL6.E3A0      #003=DAD$SCTX File=DAD$ROUTE.:E05TSI                               TUE 07/29/97 12:45 Page:159
      979    10613    3   CHAINCHK:
      980    10614    3               J = P$->APPL.Z.LINK;
      981    10615    4               DO WHILE( J > 0);
      982    10616    4                   P$ = PINCRW( KIS_MINOR$, J);
      983    10617    4                   IF FLAG OR P$->APPL.TCTX > 0 THEN
      984    10618    4                       CALL DSPMIN( P$);
      985    10619    4                   IF P$->APPL.TCTX > 0 THEN
      986    10620    4                       IF ACTION = %SRVR THEN
      987    10621    4                           MINSRVR# = MINSRVR# + 1;
      988    10622    4                       ELSE
      989    10623    4                           IF ACTION = %CLNT THEN
      990    10624    4                               MINCLNT# = MINCLNT# + 1;
      991    10625    4                   J = P$->APPL.Z.LINK;
      992    10626    4                   END;
      993    10627    3           CASE( %CLNT);
      994    10628    3               IF FLAG OR P$->APPL.LDCTX > 0 THEN
      995    10629    3                   CALL DSPMAJCLNT( P$);
      996    10630    3               IF P$->APPL.LDCTX > 0 THEN
      997    10631    3                   GOTO CHAINCHK;
      998    10632    3           CASE( %FREE);
      999    10633    3               IF FLAG OR P$->APPL.TCTX > 0 THEN
     1000    10634    3                   CALL DSPMIN( P$);
     1001    10635    3               GOTO CHAINCHK;
     1002    10636    3           END;
     1003    10637    2   DONE:
     1004    10638    2       RETURN;
     1005    10639
     1006    10640    2       END CHAIN;
     1007    10641        %EJECT;
PL6.E3A0      #003=DAD$SCTX File=DAD$ROUTE.:E05TSI                               TUE 07/29/97 12:45 Page:160
     1008    10642    1   DISPLAY: PROC( P$);
     1009    10643
     1010    10644    2       DCL ACTION SBIN;
     1011    10645    2       DCL FMT_ VECTOR;
     1012    10646    2       DCL LS83 UBIN STATIC;
     1013    10647    2       DCL LS83_ VECTOR CONSTANT INIT( VECTOR( LS83));
     1014    10648    2       DCL MAJ SBIN STATIC;
     1015    10649    2       DCL MAJ_ VECTOR CONSTANT INIT( VECTOR( MAJ));
     1016    10650    2       DCL MIN SBIN STATIC;
     1017    10651    2       DCL MIN_ VECTOR CONSTANT INIT( VECTOR( MIN));
     1018    10652    2       DCL P$ PTR;
     1019    10653    2       DCL SCID UBIN STATIC;
     1020    10654    2       DCL SCID_ VECTOR CONSTANT INIT( VECTOR( SCID));
     1021    10655
     1022    10656    2   DSPMAJSRVR: ENTRY( P$);  /* display single major table entry (server type) */
     1023    10657
     1024    10658    2       ACTION = %SRVR;
     1025    10659    2       FMT_ = FMTMAJSRVR_;
     1026    10660    2       GOTO MAJCOMMON;
     1027    10661
     1028    10662    2   DSPMAJCLNT: ENTRY( P$);  /* display single major table entry (client type) */
     1029    10663
     1030    10664    2       ACTION = %CLNT;
     1031    10665    2       FMT_ = FMTMAJCLNT_;
     1032    10666    2   MAJCOMMON:
     1033    10667    2       SCTX = POFFW( P$, KIS_MAJOR$);
     1034    10668    2       MIN = 0;
     1035    10669    2       GOTO COMMON;
     1036    10670
     1037    10671    2   DSPMIN: ENTRY( P$);   /* display single minor table entry */
     1038    10672
     1039    10673    2       ACTION = %FREE;
     1040    10674    2       FMT_ = FMTMIN_;
     1041    10675    2       MIN = POFFW( P$, KIS_MINOR$);
     1042    10676    2   COMMON:
     1043    10677    3       IF NEEDHDR THEN DO;
     1044    10678    3           CALL DAF$INIT( RPT);
PL6.E3A0      #003=DAD$SCTX File=DAD$ROUTE.:E05TSI                               TUE 07/29/97 12:45 Page:161
     1045    10679    3           NEEDHDR = %NO#;
     1046    10680    3           END;
     1047    10681    2       LS83 = ADDR( P$)->B$HALF;
     1048    10682    2       MAJ = SCTX;
     1049    10683    2       SCID = MAJ*512 + MIN;
     1050    10684    3       DO CASE( ACTION);
     1051    10685    3           CASE( %SRVR);
     1052    10686    3               CALL DAF$WRITE( FMT_,
     1053    10687    3                       LS83_,
     1054    10688    3                       SCTX_,
     1055    10689    3                       TYPE_,
     1056    10690    3                       MAJ_,
     1057    10691    3                       SCID_,
     1058    10692    3                       VECTOR( P$->APPL.LDCTX),
     1059    10693    3                       VECTOR( P$->APPL.AUDCT),
     1060    10694    3                       VECTOR( P$->APPL.Z.USER),
     1061    10695    3                       VECTOR( SUBSTR( P$->APPL.TSAP.TSAP, 0, P$->APPL.TSAP.LEN)));
     1062    10696    3           CASE( %CLNT);
     1063    10697    3               CALL DAF$WRITE( FMT_,
     1064    10698    3                       LS83_,
     1065    10699    3                       SCTX_,
     1066    10700    3                       TYPE_,
     1067    10701    3                       MAJ_,
     1068    10702    3                       SCID_,
     1069    10703    3                       VECTOR( P$->APPL.LDCTX),
     1070    10704    3                       VECTOR( P$->APPL.Z.USER));
     1071    10705    3           CASE( %FREE);
     1072    10706    3               CALL DAF$WRITE( FMT_,
     1073    10707    3                       LS83_,
     1074    10708    3                       TYPE_,
     1075    10709    3                       MAJ_,
     1076    10710    3                       MIN_,
     1077    10711    3                       SCID_,
     1078    10712    3                       VECTOR( P$->APPL.TCTX),
     1079    10713    3                       VECTOR( P$->APPL.Z.COOKIE));
     1080    10714    3           END;
     1081    10715    2       RETURN;
PL6.E3A0      #003=DAD$SCTX File=DAD$ROUTE.:E05TSI                               TUE 07/29/97 12:45 Page:162
     1082    10716
     1083    10717    2   DSPMAJSUM: ENTRY;  /* display major table summary */
     1084    10718
     1085    10719    2       I = KIS_SSN_CLIENTS + KIS_SSN_SERVERS;
     1086    10720    2       J = MAJCLNT# + MAJSRVR#;
     1087    10721    2       X = I - J;
     1088    10722    2       CALL DAF$WRITE( FMTMAJSUM_,
     1089    10723    2               VECTOR( I),
     1090    10724    2               VECTOR( KIS_SSN_SERVERS),
     1091    10725    2               VECTOR( KIS_SSN_CLIENTS),
     1092    10726    2               VECTOR( J),
     1093    10727    2               VECTOR( MAJSRVR#),
     1094    10728    2               VECTOR( MAJCLNT#),
     1095    10729    2               VECTOR( X));
     1096    10730    2       RETURN;
     1097    10731
     1098    10732    2   DSPMINSUM: ENTRY;  /* display minor table summary */
     1099    10733
     1100    10734    2       I = KIS_SSN_MAX;
     1101    10735    2       J = MINCLNT# + MINSRVR#;
     1102    10736    2       X = I - J;
     1103    10737    2       CALL DAF$WRITE( FMTMINSUM_,
     1104    10738    2               VECTOR( I),
     1105    10739    2               VECTOR( KIS_SSN_MAX),
     1106    10740    2               VECTOR( J),
     1107    10741    2               VECTOR( MINSRVR#),
     1108    10742    2               VECTOR( MINCLNT#),
     1109    10743    2               VECTOR( X));
     1110    10744    2       RETURN;
     1111    10745
     1112    10746    2       END DISPLAY;
     1113    10747
     1114    10748    1       END DAD$SCTX;

PL6.E3A0      #003=DAD$SCTX File=DAD$ROUTE.:E05TSI                               TUE 07/29/97 12:45 Page:163
--  Include file information  --

   XU_MACRO_C.:E05TOU  is referenced.
   K_SESSION_M.:E05TOU  is referenced.
   K_ADDRESS_M.:E05TOU  is referenced.
   DA_MAP_R.:E05TOU  cannot be made into a system file and is referenced.
   DA_ANLZ_R.:E05TOU  cannot be made into a system file and is referenced.
   DA_MONSYM_C.:E05TOU  is referenced.
   DA_FORMAT_C.:E05TOU  is referenced.
   CP_6_SUBS.:E05TOU  is referenced.
   CP_6_C.:E05TOU  is referenced.
   CP_6.:E05TOU  cannot be made into a system file and is referenced.
      No diagnostics issued in procedure DAD$SCTX.

   Procedure DAD$SCTX requires 738 words for executable code.
   Procedure DAD$SCTX requires 82 words of local(AUTO) storage.

    No errors detected in file DAD$ROUTE.:E05TSI    .

PL6.E3A0      #003=DAD$SCTX File=DAD$ROUTE.:E05TSI                               TUE 07/29/97 12:45 Page:164

 Object Unit name= DAD$SCTX                                   File name= DAD$ROUTE.:E05TOU
 UTS= JUL 29 '97 12:45:20.92 TUE                              Compiler= PL-6/E31         Sev=      00
 SharedLib= :SHARED_SYSTEM                                    Alt SharedLib=


    ****  Control sections  ****

 Sect   Type Bound  Init  Size OctSiz  Section name(segment info)
    0   DCB   even  none     0      0  M$UC
    1   Data  even  none    67    103  DAD$SCTX
    2  RoData even  UTS    107    153  DAD$SCTX
    3   Proc  even  none   738   1342  DAD$SCTX
    4  RoData even  none    28     34  DAD$SCTX

    ****  Entry defs  ****

                              Check   Calling
                             calling  sequence
  Sect OctLoc Primary Altret sequence   type   Parms  Name
     3      0   yes            yes      Std        1  DAD$SCTX

  ****  Entry refs  ****

         Check        Calling
        calling       sequence
Altret sequence SRef   type   Args  Name
 yes     yes           Std       2 DAS$SDMONPTR
 yes     yes           Std       5 DAM$MAP
 yes     yes           Std       3 DAA$VALUE
 yes     yes           Std       1 DAF$INIT
                       nStd      0 X66_AUTO_1
                       Std       0 B_CONSPOOL_D
                       nStd      0 X66_ARET
PL6.E3A0      #003=DAD$SCTX File=DAD$ROUTE.:E05TSI                               TUE 07/29/97 12:45 Page:165

  ****  Data refs  ****

  Flags:  r = read only, s = secondary
Flgs Name                             Flgs Name                             Flgs Name
     M$UC                                  DA_MONISDATA                          DAF$WRITE
     B_VECTNIL

  ****  Segment refs  ****

  Flags:  r = read only, s = secondary
Flgs Name                             Flgs Name                             Flgs Name
     ISSID                                 NULLSID
PL6.E3A0      #003=DAD$SCTX File=DAD$ROUTE.:E05TSI                               TUE 07/29/97 12:45 Page:166


      795        1        /*T***********************************************************/
      796        2        /*T*                                                         */
      797        3        /*T* Copyright (c) Bull HN Information Systems Inc., 1997    */
      798        4        /*T*                                                         */
      799        5        /*T***********************************************************/
      800        6        /*F*    NAME: DAD$SCTX
      801        7                PURPOSE: To process the SCTX command for the Host.
      802        8        */
      803        9        /*X* DDA */
      804       10        DAD$SCTX: PROC( TOP);

     10  3 000000   000000 700200 xent  DAD$SCTX     TSX0  ! X66_AUTO_1
         3 000001   000122 000001                    ZERO    82,1

      805       11        %INCLUDE CP_6;
      806     5570        %INCLUDE CP_6_SUBS;
      807     6110        %INCLUDE DA_FORMAT_C;
      808     6352        %INCLUDE DA_MONSYM_C;
      809     6403        %INCLUDE DA_ANLZ_R;
      810     6416        %INCLUDE DA_MAP_R;
      811     6446        %INCLUDE K_ADDRESS_M;
      812     6949        %INCLUDE K_SESSION_M;
      813     7039            %KIS$APPL( NAME=APPL, STCLASS=BASED);
      814     7108        %INCLUDE XU_MACRO_C;
      815    10214            %PARSE$OUT( NAME=TOP, STCLASS=PARAM);
      816    10259            %PARSE$OUT( NAME=OUT, STCLASS=BASED);
      817    10304
      818    10305    1       DCL DAA$VALUE ENTRY(3) ALTRET;
      819    10306    1       DCL DAF$INIT ENTRY(1) ALTRET;
      820    10307    1       DCL DAF$WRITE EPTR SYMREF;
      821    10308    1       DCL DAM$MAP ENTRY(5) ALTRET;
      822    10309    1       DCL DAS$SDMONPTR ENTRY(2) ALTRET;
      823    10310
      824    10311    1       DCL B$HALF UBIN(18) BASED;
      825    10312    1       DCL B$PTR PTR BASED;
      826    10313    1       DCL B$SBIN SBIN BASED;
PL6.E3A0      #003=DAD$SCTX File=DAD$ROUTE.:E05TSI                               TUE 07/29/97 12:45 Page:167
      827    10314    1       DCL DISPALL BIT(1);
      828    10315    1       DCL I SBIN;
      829    10316    1       DCL J SBIN;
      830    10317    1       DCL KIS_MAJOR$ PTR;
      831    10318    1       DCL KIS_MINOR$ PTR;
      832    10319    1       DCL KIS_SSN_CLIENTS SBIN;
      833    10320    1       DCL KIS_SSN_SERVERS SBIN;
      834    10321    1       DCL KIS_SSN_MAX SBIN;
      835    10322    1       DCL MAJCLNT# SBIN;
      836    10323    1       DCL MAJSRVR# SBIN;
      837    10324    1       DCL MINCLNT# SBIN;
      838    10325    1       DCL MINSRVR# SBIN;
      839    10326    1       DCL NEEDHDR BIT(1);
      840    10327    1       DCL P$ PTR;
      841    10328    1       DCL SCTX UBIN STATIC;
      842    10329    1       DCL SCTX_ VECTOR CONSTANT INIT( VECTOR( SCTX));
      843    10330    1       DCL TYPE CHAR(4) STATIC;
      844    10331    1       DCL TYPE_ VECTOR CONSTANT INIT( VECTOR( TYPE));
      845    10332    1       DCL X SBIN;
      846    10333
      847    10334            %REPORT( NAME=RPT, TRUNC=YES, TABDFLT=5, HEADER=YES,
      848    10335                     TITLE='Host OSI Session context');
      849    10401            %HEADER( LAST=NO, TEXT=
      850    10402        '$LS83-> SCTX TYPE  MajMin   SCID LDCTX AUDCT  USER TSAP/TCTX/Cookie');
      851    10444            %HEADER( TEXT=
      852    10445       '------- ---- ---- ------- ------ ----- ----- ----- -------------------------------'
             10445            );
      853    10487    1       DCL FMTMAJCLNT CHAR(0) CONSTANT INIT(
      854    10488    1   '.%6ZO %4D %A .%3ZO    %6D  .%3ZO        .%3ZO');
      855    10489    1       DCL FMTMAJCLNT_ VECTOR CONSTANT INIT( VECTOR( FMTMAJCLNT));
      856    10490    1       DCL FMTMAJSRVR CHAR(0) CONSTANT INIT(
      857    10491    1   '.%6ZO %4D %A .%3ZO    %6D  .%3ZO  .%3ZO  .%3ZO %A');
      858    10492    1       DCL FMTMAJSRVR_ VECTOR CONSTANT INIT( VECTOR( FMTMAJSRVR));
      859    10493    1       DCL FMTMIN CHAR(0) CONSTANT INIT(
      860    10494    1   '.%6ZO      %A .%3ZO%3ZO %6D                   TCTX=%D, Cookie=%D');
      861    10495    1       DCL FMTMIN_ VECTOR CONSTANT INIT( VECTOR( FMTMIN));
      862    10496    1       DCL FMTMAJSUM CHAR(0) CONSTANT INIT(
PL6.E3A0      #003=DAD$SCTX File=DAD$ROUTE.:E05TSI                               TUE 07/29/97 12:45 Page:168
      863    10497    1   'Major Table: %D slots (%D Srvr, %D Clnt), %D in use (%D Srvr, %D Clnt), %D free');
      864    10498    1       DCL FMTMAJSUM_ VECTOR CONSTANT INIT( VECTOR( FMTMAJSUM));
      865    10499    1       DCL FMTMINSUM CHAR(0) CONSTANT INIT(
      866    10500    1   'Minor Table: %D slots (%D Srvr or Clnt), %D in use (%D Srvr, %D Clnt), %D free');
      867    10501    1       DCL FMTMINSUM_ VECTOR CONSTANT INIT( VECTOR( FMTMINSUM));
      868    10502
      869    10503            /* get max number of clients */
      870    10504    1       CALL DAS$SDMONPTR( %M#KIS_SSN_CLIENTS, P$) ALTRET( DONE);

  10504  3 000002   200021 630500                    EPPR0   P$,,AUTO
         3 000003   200037 450500                    STP0    FMT_+3,,AUTO
         3 000004   000001 236000 4                  LDQ     1
         3 000005   200036 756100                    STQ     FMT_+2,,AUTO
         3 000006   200036 630500                    EPPR0   FMT_+2,,AUTO
         3 000007   000020 631400 xsym               EPPR1   B_VECTNIL+16
         3 000010   000000 701000 xent               TSX1    DAS$SDMONPTR
         3 000011   000422 702000 3                  TSX2    DONE

      871    10505    1       CALL DAM$MAP( P$, P$, , , DA_MONISDATA) ALTRET( DONE);

  10505  3 000012   000002 236000 4                  LDQ     2
         3 000013   200042 756100                    STQ     FMT_+6,,AUTO
         3 000014   000001 236000 xsym               LDQ     B_VECTNIL+1
         3 000015   000001 235000 xsym               LDA     B_VECTNIL+1
         3 000016   200040 757100                    STAQ    FMT_+4,,AUTO
         3 000017   200021 630500                    EPPR0   P$,,AUTO
         3 000020   200037 450500                    STP0    FMT_+3,,AUTO
         3 000021   200021 631500                    EPPR1   P$,,AUTO
         3 000022   200036 451500                    STP1    FMT_+2,,AUTO
         3 000023   200036 630500                    EPPR0   FMT_+2,,AUTO
         3 000024   000023 631400 xsym               EPPR1   B_VECTNIL+19
         3 000025   000000 701000 xent               TSX1    DAM$MAP
         3 000026   000422 702000 3                  TSX2    DONE

      872    10506    1       KIS_SSN_CLIENTS = P$->B$SBIN;

  10506  3 000027   200021 470500                    LDP0    P$,,AUTO
PL6.E3A0      #003=DAD$SCTX File=DAD$ROUTE.:E05TSI                               TUE 07/29/97 12:45 Page:169
         3 000030   000000 235100                    LDA     0,,PR0
         3 000031   200011 755100                    STA     KIS_SSN_CLIENTS,,AUTO

      873    10507            /* get max number of servers */
      874    10508    1       CALL DAS$SDMONPTR( %M#KIS_SSN_SERVERS, P$) ALTRET( DONE);

  10508  3 000032   200021 631500                    EPPR1   P$,,AUTO
         3 000033   200037 451500                    STP1    FMT_+3,,AUTO
         3 000034   000004 236000 4                  LDQ     4
         3 000035   200036 756100                    STQ     FMT_+2,,AUTO
         3 000036   200036 630500                    EPPR0   FMT_+2,,AUTO
         3 000037   000020 631400 xsym               EPPR1   B_VECTNIL+16
         3 000040   000000 701000 xent               TSX1    DAS$SDMONPTR
         3 000041   000422 702000 3                  TSX2    DONE

      875    10509    1       CALL DAM$MAP( P$, P$, , , DA_MONISDATA) ALTRET( DONE);

  10509  3 000042   000002 236000 4                  LDQ     2
         3 000043   200042 756100                    STQ     FMT_+6,,AUTO
         3 000044   000001 236000 xsym               LDQ     B_VECTNIL+1
         3 000045   000001 235000 xsym               LDA     B_VECTNIL+1
         3 000046   200040 757100                    STAQ    FMT_+4,,AUTO
         3 000047   200021 630500                    EPPR0   P$,,AUTO
         3 000050   200037 450500                    STP0    FMT_+3,,AUTO
         3 000051   200021 631500                    EPPR1   P$,,AUTO
         3 000052   200036 451500                    STP1    FMT_+2,,AUTO
         3 000053   200036 630500                    EPPR0   FMT_+2,,AUTO
         3 000054   000023 631400 xsym               EPPR1   B_VECTNIL+19
         3 000055   000000 701000 xent               TSX1    DAM$MAP
         3 000056   000422 702000 3                  TSX2    DONE

      876    10510    1       KIS_SSN_SERVERS = P$->B$SBIN;

  10510  3 000057   200021 470500                    LDP0    P$,,AUTO
         3 000060   000000 235100                    LDA     0,,PR0
         3 000061   200012 755100                    STA     KIS_SSN_SERVERS,,AUTO

PL6.E3A0      #003=DAD$SCTX File=DAD$ROUTE.:E05TSI                               TUE 07/29/97 12:45 Page:170
      877    10511            /* get max number of connections */
      878    10512    1       CALL DAS$SDMONPTR( %M#KIS_SSN_MAX, P$) ALTRET( DONE);

  10512  3 000062   200021 631500                    EPPR1   P$,,AUTO
         3 000063   200037 451500                    STP1    FMT_+3,,AUTO
         3 000064   000006 236000 4                  LDQ     6
         3 000065   200036 756100                    STQ     FMT_+2,,AUTO
         3 000066   200036 630500                    EPPR0   FMT_+2,,AUTO
         3 000067   000020 631400 xsym               EPPR1   B_VECTNIL+16
         3 000070   000000 701000 xent               TSX1    DAS$SDMONPTR
         3 000071   000422 702000 3                  TSX2    DONE

      879    10513    1       CALL DAM$MAP( P$, P$, , , DA_MONISDATA) ALTRET( DONE);

  10513  3 000072   000002 236000 4                  LDQ     2
         3 000073   200042 756100                    STQ     FMT_+6,,AUTO
         3 000074   000001 236000 xsym               LDQ     B_VECTNIL+1
         3 000075   000001 235000 xsym               LDA     B_VECTNIL+1
         3 000076   200040 757100                    STAQ    FMT_+4,,AUTO
         3 000077   200021 630500                    EPPR0   P$,,AUTO
         3 000100   200037 450500                    STP0    FMT_+3,,AUTO
         3 000101   200021 631500                    EPPR1   P$,,AUTO
         3 000102   200036 451500                    STP1    FMT_+2,,AUTO
         3 000103   200036 630500                    EPPR0   FMT_+2,,AUTO
         3 000104   000023 631400 xsym               EPPR1   B_VECTNIL+19
         3 000105   000000 701000 xent               TSX1    DAM$MAP
         3 000106   000422 702000 3                  TSX2    DONE

      880    10514    1       KIS_SSN_MAX = P$->B$SBIN;

  10514  3 000107   200021 470500                    LDP0    P$,,AUTO
         3 000110   000000 235100                    LDA     0,,PR0
         3 000111   200013 755100                    STA     KIS_SSN_MAX,,AUTO

      881    10515            /* get ptr to major table */
      882    10516    1       CALL DAS$SDMONPTR( %M#KIS_MAJOR$, P$) ALTRET( DONE);

PL6.E3A0      #003=DAD$SCTX File=DAD$ROUTE.:E05TSI                               TUE 07/29/97 12:45 Page:171
  10516  3 000112   200021 631500                    EPPR1   P$,,AUTO
         3 000113   200037 451500                    STP1    FMT_+3,,AUTO
         3 000114   000010 236000 4                  LDQ     8
         3 000115   200036 756100                    STQ     FMT_+2,,AUTO
         3 000116   200036 630500                    EPPR0   FMT_+2,,AUTO
         3 000117   000020 631400 xsym               EPPR1   B_VECTNIL+16
         3 000120   000000 701000 xent               TSX1    DAS$SDMONPTR
         3 000121   000422 702000 3                  TSX2    DONE

      883    10517    1       CALL DAM$MAP( P$, P$, , , DA_MONISDATA) ALTRET( DONE);

  10517  3 000122   000002 236000 4                  LDQ     2
         3 000123   200042 756100                    STQ     FMT_+6,,AUTO
         3 000124   000001 236000 xsym               LDQ     B_VECTNIL+1
         3 000125   000001 235000 xsym               LDA     B_VECTNIL+1
         3 000126   200040 757100                    STAQ    FMT_+4,,AUTO
         3 000127   200021 630500                    EPPR0   P$,,AUTO
         3 000130   200037 450500                    STP0    FMT_+3,,AUTO
         3 000131   200021 631500                    EPPR1   P$,,AUTO
         3 000132   200036 451500                    STP1    FMT_+2,,AUTO
         3 000133   200036 630500                    EPPR0   FMT_+2,,AUTO
         3 000134   000023 631400 xsym               EPPR1   B_VECTNIL+19
         3 000135   000000 701000 xent               TSX1    DAM$MAP
         3 000136   000422 702000 3                  TSX2    DONE

      884    10518    1       KIS_MAJOR$ = P$->B$PTR;

  10518  3 000137   200021 470500                    LDP0    P$,,AUTO
         3 000140   000000 236100                    LDQ     0,,PR0
         3 000141   200007 756100                    STQ     KIS_MAJOR$,,AUTO

      885    10519    1       CALL DAM$MAP( KIS_MAJOR$, KIS_MAJOR$);

  10519  3 000142   200007 631500                    EPPR1   KIS_MAJOR$,,AUTO
         3 000143   200037 451500                    STP1    FMT_+3,,AUTO
         3 000144   200007 633500                    EPPR3   KIS_MAJOR$,,AUTO
         3 000145   200036 453500                    STP3    FMT_+2,,AUTO
PL6.E3A0      #003=DAD$SCTX File=DAD$ROUTE.:E05TSI                               TUE 07/29/97 12:45 Page:172
         3 000146   200036 630500                    EPPR0   FMT_+2,,AUTO
         3 000147   000020 631400 xsym               EPPR1   B_VECTNIL+16
         3 000150   000000 701000 xent               TSX1    DAM$MAP
         3 000151   000000 011000                    NOP     0

      886    10520            /* get ptr to minor table */
      887    10521    1       CALL DAS$SDMONPTR( %M#KIS_MINOR$, P$) ALTRET( DONE);

  10521  3 000152   200021 630500                    EPPR0   P$,,AUTO
         3 000153   200037 450500                    STP0    FMT_+3,,AUTO
         3 000154   000012 236000 4                  LDQ     10
         3 000155   200036 756100                    STQ     FMT_+2,,AUTO
         3 000156   200036 630500                    EPPR0   FMT_+2,,AUTO
         3 000157   000020 631400 xsym               EPPR1   B_VECTNIL+16
         3 000160   000000 701000 xent               TSX1    DAS$SDMONPTR
         3 000161   000422 702000 3                  TSX2    DONE

      888    10522    1       CALL DAM$MAP( P$, P$, , , DA_MONISDATA) ALTRET( DONE);

  10522  3 000162   000002 236000 4                  LDQ     2
         3 000163   200042 756100                    STQ     FMT_+6,,AUTO
         3 000164   000001 236000 xsym               LDQ     B_VECTNIL+1
         3 000165   000001 235000 xsym               LDA     B_VECTNIL+1
         3 000166   200040 757100                    STAQ    FMT_+4,,AUTO
         3 000167   200021 630500                    EPPR0   P$,,AUTO
         3 000170   200037 450500                    STP0    FMT_+3,,AUTO
         3 000171   200021 631500                    EPPR1   P$,,AUTO
         3 000172   200036 451500                    STP1    FMT_+2,,AUTO
         3 000173   200036 630500                    EPPR0   FMT_+2,,AUTO
         3 000174   000023 631400 xsym               EPPR1   B_VECTNIL+19
         3 000175   000000 701000 xent               TSX1    DAM$MAP
         3 000176   000422 702000 3                  TSX2    DONE

      889    10523    1       KIS_MINOR$ = P$->B$PTR;

  10523  3 000177   200021 470500                    LDP0    P$,,AUTO
         3 000200   000000 236100                    LDQ     0,,PR0
PL6.E3A0      #003=DAD$SCTX File=DAD$ROUTE.:E05TSI                               TUE 07/29/97 12:45 Page:173
         3 000201   200010 756100                    STQ     KIS_MINOR$,,AUTO

      890    10524    1       CALL DAM$MAP( KIS_MINOR$, KIS_MINOR$);

  10524  3 000202   200010 631500                    EPPR1   KIS_MINOR$,,AUTO
         3 000203   200037 451500                    STP1    FMT_+3,,AUTO
         3 000204   200010 633500                    EPPR3   KIS_MINOR$,,AUTO
         3 000205   200036 453500                    STP3    FMT_+2,,AUTO
         3 000206   200036 630500                    EPPR0   FMT_+2,,AUTO
         3 000207   000020 631400 xsym               EPPR1   B_VECTNIL+16
         3 000210   000000 701000 xent               TSX1    DAM$MAP
         3 000211   000000 011000                    NOP     0

      891    10525            /* o.k.... let's get going */
      892    10526    1       MAJCLNT# = 0;

  10526  3 000212   200014 450100                    STZ     MAJCLNT#,,AUTO

      893    10527    1       MAJSRVR# = 0;

  10527  3 000213   200015 450100                    STZ     MAJSRVR#,,AUTO

      894    10528    1       MINCLNT# = 0;

  10528  3 000214   200016 450100                    STZ     MINCLNT#,,AUTO

      895    10529    1       MINSRVR# = 0;

  10529  3 000215   200017 450100                    STZ     MINSRVR#,,AUTO

      896    10530    1       DISPALL = %NO#;

  10530  3 000216   200004 450100                    STZ     DISPALL,,AUTO

      897    10531    1       NEEDHDR = %YES#;

  10531  3 000217   400000 236003                    LDQ     -131072,DU
PL6.E3A0      #003=DAD$SCTX File=DAD$ROUTE.:E05TSI                               TUE 07/29/97 12:45 Page:174
         3 000220   200020 756100                    STQ     NEEDHDR,,AUTO

      898    10532    2       IF TOP.NSUBLKS = 1 THEN DO;

  10532  3 000221   200003 470500                    LDP0    @TOP,,AUTO
         3 000222   000001 220100                    LDX0    1,,PR0
         3 000223   000001 100003                    CMPX0   1,DU
         3 000224   000242 601000 3                  TNZ     s:10539

      899    10533    2           CALL DAA$VALUE( TOP.SUBLK$(0)->OUT, I) ALTRET( RUNALL);

  10533  3 000225   000003 471500                    LDP1    3,,PR0
         3 000226   200005 633500                    EPPR3   I,,AUTO
         3 000227   200037 453500                    STP3    FMT_+3,,AUTO
         3 000230   200036 451500                    STP1    FMT_+2,,AUTO
         3 000231   200036 630500                    EPPR0   FMT_+2,,AUTO
         3 000232   000020 631400 xsym               EPPR1   B_VECTNIL+16
         3 000233   000000 701000 xent               TSX1    DAA$VALUE
         3 000234   000333 702000 3                  TSX2    RUNALL

      900    10534    3           IF I = 0 THEN DO;

  10534  3 000235   200005 235100                    LDA     I,,AUTO
         3 000236   000242 601000 3                  TNZ     s:10539

      901    10535    3               DISPALL = %YES#;

  10535  3 000237   400000 236003                    LDQ     -131072,DU
         3 000240   200004 756100                    STQ     DISPALL,,AUTO

      902    10536    3               GOTO RUNALL;

  10536  3 000241   000333 710000 3                  TRA     RUNALL

      903    10537    3               END;
      904    10538    2           END;
      905    10539    2       IF TOP.NSUBLKS > 0 THEN DO;
PL6.E3A0      #003=DAD$SCTX File=DAD$ROUTE.:E05TSI                               TUE 07/29/97 12:45 Page:175

  10539  3 000242   200003 470500                    LDP0    @TOP,,AUTO
         3 000243   000001 220100                    LDX0    1,,PR0
         3 000244   000333 600000 3                  TZE     RUNALL

      906    10540    3           DO X = 0 TO TOP.NSUBLKS - 1;

  10540  3 000245   200022 450100                    STZ     X,,AUTO
         3 000246   000325 710000 3                  TRA     NEXT+1

      907    10541    3               CALL DAA$VALUE( TOP.SUBLK$( X)->OUT, I) ALTRET( NEXT);

  10541  3 000247   200003 470500                    LDP0    @TOP,,AUTO
         3 000250   200022 720100                    LXL0    X,,AUTO
         3 000251   000003 471510                    LDP1    3,X0,PR0
         3 000252   200005 633500                    EPPR3   I,,AUTO
         3 000253   200037 453500                    STP3    FMT_+3,,AUTO
         3 000254   200036 451500                    STP1    FMT_+2,,AUTO
         3 000255   200036 630500                    EPPR0   FMT_+2,,AUTO
         3 000256   000020 631400 xsym               EPPR1   B_VECTNIL+16
         3 000257   000000 701000 xent               TSX1    DAA$VALUE
         3 000260   000324 702000 3                  TSX2    NEXT

      908    10542    4               IF I < 10*KIS_SSN_SERVERS THEN DO;

  10542  3 000261   200012 236100                    LDQ     KIS_SSN_SERVERS,,AUTO
         3 000262   000012 402007                    MPY     10,DL
         3 000263   200005 116100                    CMPQ    I,,AUTO
         3 000264   000307 604400 3                  TMOZ    s:10549

      909    10543    4                   IF I = 1+10*((I-1)/10) THEN

  10543  3 000265   200005 236100                    LDQ     I,,AUTO
         3 000266   000001 136007                    SBLQ    1,DL
         3 000267   000012 506007                    DIV     10,DL
         3 000270   000012 402007                    MPY     10,DL
         3 000271   000001 036007                    ADLQ    1,DL
PL6.E3A0      #003=DAD$SCTX File=DAD$ROUTE.:E05TSI                               TUE 07/29/97 12:45 Page:176
         3 000272   200005 116100                    CMPQ    I,,AUTO
         3 000273   000324 601000 3                  TNZ     NEXT

      910    10544    4                       CALL MAJSRVR( PINCRW( KIS_MAJOR$, I), %YES#);

  10544  3 000274   200005 236100                    LDQ     I,,AUTO
         3 000275   000022 736000                    QLS     18
         3 000276   200007 036100                    ADLQ    KIS_MAJOR$,,AUTO
         3 000277   200120 756100                    STQ     FMT_+52,,AUTO
         3 000300   000013 236000 4                  LDQ     11
         3 000301   200026 756100                    STQ     @P$+1,,AUTO
         3 000302   200120 630500                    EPPR0   FMT_+52,,AUTO
         3 000303   200025 450500                    STP0    X+3,,AUTO
         3 000304   000425 701000 3                  TSX1    MAJSRVR
         3 000305   000000 011000                    NOP     0
         3 000306   000324 710000 3                  TRA     NEXT

      911    10545    4                   ELSE
      912    10546    4                       GOTO NEXT;
      913    10547    4                   END;
      914    10548    3               ELSE
      915    10549    3                   IF I <= 10*KIS_SSN_SERVERS + KIS_SSN_CLIENTS THEN

  10549  3 000307   200011 036100                    ADLQ    KIS_SSN_CLIENTS,,AUTO
         3 000310   200005 116100                    CMPQ    I,,AUTO
         3 000311   000324 604000 3                  TMI     NEXT

      916    10550    3                       CALL MAJCLNT( PINCRW( KIS_MAJOR$, I), %YES#);

  10550  3 000312   200005 236100                    LDQ     I,,AUTO
         3 000313   000022 736000                    QLS     18
         3 000314   200007 036100                    ADLQ    KIS_MAJOR$,,AUTO
         3 000315   200121 756100                    STQ     FMT_+53,,AUTO
         3 000316   000013 236000 4                  LDQ     11
         3 000317   200026 756100                    STQ     @P$+1,,AUTO
         3 000320   200121 630500                    EPPR0   FMT_+53,,AUTO
         3 000321   200025 450500                    STP0    X+3,,AUTO
PL6.E3A0      #003=DAD$SCTX File=DAD$ROUTE.:E05TSI                               TUE 07/29/97 12:45 Page:177
         3 000322   000437 701000 3                  TSX1    MAJCLNT
         3 000323   000000 011000                    NOP     0

      917    10551    3   NEXT:
      918    10552    3               END;

  10552  3 000324   200022 054100       NEXT         AOS     X,,AUTO
         3 000325   200003 470500                    LDP0    @TOP,,AUTO
         3 000326   000001 236100                    LDQ     1,,PR0
         3 000327   000022 772000                    QRL     18
         3 000330   200022 116100                    CMPQ    X,,AUTO
         3 000331   000247 605400 3                  TPNZ    s:10541

      919    10553    2           RETURN;

  10553  3 000332   000000 702200 xent               TSX2  ! X66_ARET

      920    10554    2           END;
      921    10555    1   RUNALL:
      922    10556            /* run the server part of the major table */
      923    10557    2       DO I = 1 TO KIS_SSN_SERVERS;

  10557  3 000333   000001 235007       RUNALL       LDA     1,DL
         3 000334   200005 755100                    STA     I,,AUTO
         3 000335   000352 710000 3                  TRA     s:10560+1

      924    10558    2           P$ = PINCRW( KIS_MAJOR$, 10*I - 9);

  10558  3 000336   200005 236100                    LDQ     I,,AUTO
         3 000337   000012 402003                    MPY     10,DU
         3 000340   000011 136003                    SBLQ    9,DU
         3 000341   200007 036100                    ADLQ    KIS_MAJOR$,,AUTO
         3 000342   200021 756100                    STQ     P$,,AUTO

      925    10559    2           CALL MAJSRVR( P$, DISPALL);

  10559  3 000343   200004 630500                    EPPR0   DISPALL,,AUTO
PL6.E3A0      #003=DAD$SCTX File=DAD$ROUTE.:E05TSI                               TUE 07/29/97 12:45 Page:178
         3 000344   200026 450500                    STP0    @P$+1,,AUTO
         3 000345   200021 631500                    EPPR1   P$,,AUTO
         3 000346   200025 451500                    STP1    X+3,,AUTO
         3 000347   000425 701000 3                  TSX1    MAJSRVR
         3 000350   000000 011000                    NOP     0

      926    10560    2           END;

  10560  3 000351   200005 054100                    AOS     I,,AUTO
         3 000352   200005 236100                    LDQ     I,,AUTO
         3 000353   200012 116100                    CMPQ    KIS_SSN_SERVERS,,AUTO
         3 000354   000336 604400 3                  TMOZ    s:10558

      927    10561            /* run the client part of the major table */
      928    10562    2       DO I = 1 TO KIS_SSN_CLIENTS;

  10562  3 000355   000001 235007                    LDA     1,DL
         3 000356   200005 755100                    STA     I,,AUTO
         3 000357   000375 710000 3                  TRA     s:10565+1

      929    10563    2           P$ = PINCRW( KIS_MAJOR$, I + 10*KIS_SSN_SERVERS);

  10563  3 000360   200012 236100                    LDQ     KIS_SSN_SERVERS,,AUTO
         3 000361   000012 402007                    MPY     10,DL
         3 000362   200005 036100                    ADLQ    I,,AUTO
         3 000363   000022 736000                    QLS     18
         3 000364   200007 036100                    ADLQ    KIS_MAJOR$,,AUTO
         3 000365   200021 756100                    STQ     P$,,AUTO

      930    10564    2           CALL MAJCLNT( P$, DISPALL);

  10564  3 000366   200004 630500                    EPPR0   DISPALL,,AUTO
         3 000367   200026 450500                    STP0    @P$+1,,AUTO
         3 000370   200021 631500                    EPPR1   P$,,AUTO
         3 000371   200025 451500                    STP1    X+3,,AUTO
         3 000372   000437 701000 3                  TSX1    MAJCLNT
         3 000373   000000 011000                    NOP     0
PL6.E3A0      #003=DAD$SCTX File=DAD$ROUTE.:E05TSI                               TUE 07/29/97 12:45 Page:179

      931    10565    2           END;

  10565  3 000374   200005 054100                    AOS     I,,AUTO
         3 000375   200005 236100                    LDQ     I,,AUTO
         3 000376   200011 116100                    CMPQ    KIS_SSN_CLIENTS,,AUTO
         3 000377   000360 604400 3                  TMOZ    s:10563

      932    10566    1       CALL DSPMAJSUM;  /* display major table summary */

  10566  3 000400   001110 701000 3                  TSX1    DSPMAJSUM
         3 000401   000000 011000                    NOP     0

      933    10567            /* run the minor table if necessary */
      934    10568    2       IF DISPALL THEN DO;

  10568  3 000402   200004 234100                    SZN     DISPALL,,AUTO
         3 000403   000420 605000 3                  TPL     s:10572

      935    10569    2           P$ = PINCRW( KIS_MINOR$, KIS_MINOR$->APPL.Z.LINK);

  10569  3 000404   200010 470500                    LDP0    KIS_MINOR$,,AUTO
         3 000405   000000 720100                    LXL0    0,,PR0
         3 000406   000777 360003                    ANX0    511,DU
         3 000407   000000 636010                    EAQ     0,X0
         3 000410   200010 036100                    ADLQ    KIS_MINOR$,,AUTO
         3 000411   200021 756100                    STQ     P$,,AUTO

      936    10570    2           CALL MINFREE( P$, %YES#);

  10570  3 000412   000013 236000 4                  LDQ     11
         3 000413   200026 756100                    STQ     @P$+1,,AUTO
         3 000414   200021 631500                    EPPR1   P$,,AUTO
         3 000415   200025 451500                    STP1    X+3,,AUTO
         3 000416   000452 701000 3                  TSX1    MINFREE
         3 000417   000000 011000                    NOP     0

PL6.E3A0      #003=DAD$SCTX File=DAD$ROUTE.:E05TSI                               TUE 07/29/97 12:45 Page:180
      937    10571    2           END;

      938    10572    1       CALL DSPMINSUM;  /* display minor table summary */

  10572  3 000420   001232 701000 3                  TSX1    DSPMINSUM
         3 000421   000000 011000                    NOP     0

      939    10573    1   DONE:
      940    10574    1       RETURN;

  10574  3 000422   000000 702200 xent  DONE         TSX2  ! X66_ARET

      941    10575        %EJECT;
PL6.E3A0      #003=DAD$SCTX File=DAD$ROUTE.:E05TSI                               TUE 07/29/97 12:45 Page:181
      942    10576    1   CHAIN: PROC( P$, FLAG);

  10576  3 000423   200024 741300       CHAIN        STX1  ! X+2,,AUTO
         3 000424   000426 710000 3                  TRA     s:10587

      943    10577
      944    10578    2       DCL ACTION SBIN;
      945    10579        %EQU SRVR = 0;
      946    10580        %EQU CLNT = 1;
      947    10581        %EQU FREE = 2;
      948    10582    2       DCL P$ PTR;
      949    10583    2       DCL FLAG BIT(1);
      950    10584
      951    10585    2   MAJSRVR: ENTRY( P$, FLAG);

  10585  3 000425   200024 741300       MAJSRVR      STX1  ! X+2,,AUTO

      952    10586
      953    10587    2       ACTION = %SRVR;

  10587  3 000426   200027 450100                    STZ     ACTION,,AUTO

      954    10588    2       TYPE = 'Srvr';

  10588  3 000427   000150 236000 2                  LDQ     SCID_+2
         3 000430   000001 756000 1                  STQ     TYPE

      955    10589    2       IF P$->APPL.LDCTX > 0 THEN

  10589  3 000431   200025 470500                    LDP0    @P$,,AUTO
         3 000432   000000 471500                    LDP1    0,,PR0
         3 000433   100000 220100                    LDX0    0,,PR1
         3 000434   000436 600000 3                  TZE     s:10591

      956    10590    2           MAJSRVR# = MAJSRVR# + 1;

  10590  3 000435   200015 054100                    AOS     MAJSRVR#,,AUTO
PL6.E3A0      #003=DAD$SCTX File=DAD$ROUTE.:E05TSI                               TUE 07/29/97 12:45 Page:182

      957    10591    2       GOTO COMMON;

  10591  3 000436   000460 710000 3                  TRA     COMMON

      958    10592
      959    10593    2   MAJCLNT: ENTRY( P$, FLAG);

  10593  3 000437   200024 741300       MAJCLNT      STX1  ! X+2,,AUTO

      960    10594
      961    10595    2       ACTION = %CLNT;

  10595  3 000440   000001 235007                    LDA     1,DL
         3 000441   200027 755100                    STA     ACTION,,AUTO

      962    10596    2       TYPE = 'Clnt';

  10596  3 000442   000151 236000 2                  LDQ     SCID_+3
         3 000443   000001 756000 1                  STQ     TYPE

      963    10597    2       IF P$->APPL.LDCTX > 0 THEN

  10597  3 000444   200025 470500                    LDP0    @P$,,AUTO
         3 000445   000000 471500                    LDP1    0,,PR0
         3 000446   100000 220100                    LDX0    0,,PR1
         3 000447   000451 600000 3                  TZE     s:10599

      964    10598    2           MAJCLNT# = MAJCLNT# + 1;

  10598  3 000450   200014 054100                    AOS     MAJCLNT#,,AUTO

      965    10599    2       GOTO COMMON;

  10599  3 000451   000460 710000 3                  TRA     COMMON

      966    10600
PL6.E3A0      #003=DAD$SCTX File=DAD$ROUTE.:E05TSI                               TUE 07/29/97 12:45 Page:183
      967    10601    2   MINFREE: ENTRY( P$, FLAG);

  10601  3 000452   200024 741300       MINFREE      STX1  ! X+2,,AUTO

      968    10602
      969    10603    2       ACTION = %FREE;

  10603  3 000453   000002 235007                    LDA     2,DL
         3 000454   200027 755100                    STA     ACTION,,AUTO

      970    10604    2       TYPE = 'Free';

  10604  3 000455   000152 236000 2                  LDQ     SCID_+4
         3 000456   000001 756000 1                  STQ     TYPE

      971    10605    2       SCTX = 0;

  10605  3 000457   000000 450000 1                  STZ     SCTX

      972    10606    2   COMMON:
      973    10607    3       DO CASE( ACTION);

  10607  3 000460   200027 235100       COMMON       LDA     ACTION,,AUTO
         3 000461   000003 115007                    CMPA    3,DL
         3 000462   000464 602005 3                  TNC     COMMON+4,AL
         3 000463   000620 710000 3                  TRA     DONE
         3 000464   000467 710000 3                  TRA     s:10609
         3 000465   000560 710000 3                  TRA     s:10628
         3 000466   000602 710000 3                  TRA     s:10633

      974    10608    3           CASE( %SRVR);

      975    10609    3               IF FLAG OR P$->APPL.LDCTX > 0 THEN

  10609  3 000467   200026 470500                    LDP0    @FLAG,,AUTO
         3 000470   000000 066500                    CMPB    filb='0'B
         3 000471   000000 000001                    BDSC    0,,PR0                   by=0,bit=0,n=1
PL6.E3A0      #003=DAD$SCTX File=DAD$ROUTE.:E05TSI                               TUE 07/29/97 12:45 Page:184
         3 000472   000002 000022 xsym               BDSC    B_VECTNIL+2              by=0,bit=0,n=18
         3 000473   000500 601000 3                  TNZ     s:10610
         3 000474   200025 471500                    LDP1    @P$,,AUTO
         3 000475   100000 473500                    LDP3    0,,PR1
         3 000476   300000 220100                    LDX0    0,,PR3
         3 000477   000504 600000 3                  TZE     s:10611

      976    10610    3                   CALL DSPMAJSRVR( P$);

  10610  3 000500   200025 236100                    LDQ     @P$,,AUTO
         3 000501   200031 756100                    STQ     ACTION+2,,AUTO
         3 000502   000624 701000 3                  TSX1    DSPMAJSRVR
         3 000503   000000 011000                    NOP     0

      977    10611    3               IF P$->APPL.LDCTX = 0 THEN

  10611  3 000504   200025 470500                    LDP0    @P$,,AUTO
         3 000505   000000 471500                    LDP1    0,,PR0
         3 000506   100000 220100                    LDX0    0,,PR1
         3 000507   000620 600000 3                  TZE     DONE

      978    10612    3                   GOTO DONE;
      979    10613    3   CHAINCHK:
      980    10614    3               J = P$->APPL.Z.LINK;

  10614  3 000510   200025 470500       CHAINCHK     LDP0    @P$,,AUTO
         3 000511   000000 471500                    LDP1    0,,PR0
         3 000512   100000 236100                    LDQ     0,,PR1
         3 000513   000777 376007                    ANQ     511,DL
         3 000514   200006 756100                    STQ     J,,AUTO

      981    10615    4               DO WHILE( J > 0);

  10615  3 000515   000620 604400 3                  TMOZ    DONE

      982    10616    4                   P$ = PINCRW( KIS_MINOR$, J);

PL6.E3A0      #003=DAD$SCTX File=DAD$ROUTE.:E05TSI                               TUE 07/29/97 12:45 Page:185
  10616  3 000516   200006 236100                    LDQ     J,,AUTO
         3 000517   000022 736000                    QLS     18
         3 000520   200010 036100                    ADLQ    KIS_MINOR$,,AUTO
         3 000521   200025 470500                    LDP0    @P$,,AUTO
         3 000522   000000 756100                    STQ     0,,PR0

      983    10617    4                   IF FLAG OR P$->APPL.TCTX > 0 THEN

  10617  3 000523   200026 471500                    LDP1    @FLAG,,AUTO
         3 000524   000000 066500                    CMPB    filb='0'B
         3 000525   100000 000001                    BDSC    0,,PR1                   by=0,bit=0,n=1
         3 000526   000002 000022 xsym               BDSC    B_VECTNIL+2              by=0,bit=0,n=18
         3 000527   000533 601000 3                  TNZ     s:10618
         3 000530   000000 473500                    LDP3    0,,PR0
         3 000531   300000 220100                    LDX0    0,,PR3
         3 000532   000537 600000 3                  TZE     s:10619

      984    10618    4                       CALL DSPMIN( P$);

  10618  3 000533   200025 236100                    LDQ     @P$,,AUTO
         3 000534   200031 756100                    STQ     ACTION+2,,AUTO
         3 000535   000650 701000 3                  TSX1    DSPMIN
         3 000536   000000 011000                    NOP     0

      985    10619    4                   IF P$->APPL.TCTX > 0 THEN

  10619  3 000537   200025 470500                    LDP0    @P$,,AUTO
         3 000540   000000 471500                    LDP1    0,,PR0
         3 000541   100000 220100                    LDX0    0,,PR1
         3 000542   000552 600000 3                  TZE     s:10625

      986    10620    4                       IF ACTION = %SRVR THEN

  10620  3 000543   200027 235100                    LDA     ACTION,,AUTO
         3 000544   000547 601000 3                  TNZ     s:10623

      987    10621    4                           MINSRVR# = MINSRVR# + 1;
PL6.E3A0      #003=DAD$SCTX File=DAD$ROUTE.:E05TSI                               TUE 07/29/97 12:45 Page:186

  10621  3 000545   200017 054100                    AOS     MINSRVR#,,AUTO
         3 000546   000552 710000 3                  TRA     s:10625

      988    10622    4                       ELSE
      989    10623    4                           IF ACTION = %CLNT THEN

  10623  3 000547   000001 115007                    CMPA    1,DL
         3 000550   000552 601000 3                  TNZ     s:10625

      990    10624    4                               MINCLNT# = MINCLNT# + 1;

  10624  3 000551   200016 054100                    AOS     MINCLNT#,,AUTO

      991    10625    4                   J = P$->APPL.Z.LINK;

  10625  3 000552   000000 471500                    LDP1    0,,PR0
         3 000553   100000 236100                    LDQ     0,,PR1
         3 000554   000777 376007                    ANQ     511,DL
         3 000555   200006 756100                    STQ     J,,AUTO

      992    10626    4                   END;

  10626  3 000556   000516 605400 3                  TPNZ    s:10616
         3 000557   000620 710000 3                  TRA     DONE

      993    10627    3           CASE( %CLNT);

      994    10628    3               IF FLAG OR P$->APPL.LDCTX > 0 THEN

  10628  3 000560   200026 470500                    LDP0    @FLAG,,AUTO
         3 000561   000000 066500                    CMPB    filb='0'B
         3 000562   000000 000001                    BDSC    0,,PR0                   by=0,bit=0,n=1
         3 000563   000002 000022 xsym               BDSC    B_VECTNIL+2              by=0,bit=0,n=18
         3 000564   000571 601000 3                  TNZ     s:10629
         3 000565   200025 471500                    LDP1    @P$,,AUTO
         3 000566   100000 473500                    LDP3    0,,PR1
PL6.E3A0      #003=DAD$SCTX File=DAD$ROUTE.:E05TSI                               TUE 07/29/97 12:45 Page:187
         3 000567   300000 220100                    LDX0    0,,PR3
         3 000570   000575 600000 3                  TZE     s:10630

      995    10629    3                   CALL DSPMAJCLNT( P$);

  10629  3 000571   200025 236100                    LDQ     @P$,,AUTO
         3 000572   200031 756100                    STQ     ACTION+2,,AUTO
         3 000573   000631 701000 3                  TSX1    DSPMAJCLNT
         3 000574   000000 011000                    NOP     0

      996    10630    3               IF P$->APPL.LDCTX > 0 THEN

  10630  3 000575   200025 470500                    LDP0    @P$,,AUTO
         3 000576   000000 471500                    LDP1    0,,PR0
         3 000577   100000 220100                    LDX0    0,,PR1
         3 000600   000510 601000 3                  TNZ     CHAINCHK
         3 000601   000620 710000 3                  TRA     DONE

      997    10631    3                   GOTO CHAINCHK;
      998    10632    3           CASE( %FREE);

      999    10633    3               IF FLAG OR P$->APPL.TCTX > 0 THEN

  10633  3 000602   200026 470500                    LDP0    @FLAG,,AUTO
         3 000603   000000 066500                    CMPB    filb='0'B
         3 000604   000000 000001                    BDSC    0,,PR0                   by=0,bit=0,n=1
         3 000605   000002 000022 xsym               BDSC    B_VECTNIL+2              by=0,bit=0,n=18
         3 000606   000613 601000 3                  TNZ     s:10634
         3 000607   200025 471500                    LDP1    @P$,,AUTO
         3 000610   100000 473500                    LDP3    0,,PR1
         3 000611   300000 220100                    LDX0    0,,PR3
         3 000612   000617 600000 3                  TZE     s:10635

     1000    10634    3                   CALL DSPMIN( P$);

  10634  3 000613   200025 236100                    LDQ     @P$,,AUTO
         3 000614   200031 756100                    STQ     ACTION+2,,AUTO
PL6.E3A0      #003=DAD$SCTX File=DAD$ROUTE.:E05TSI                               TUE 07/29/97 12:45 Page:188
         3 000615   000650 701000 3                  TSX1    DSPMIN
         3 000616   000000 011000                    NOP     0

     1001    10635    3               GOTO CHAINCHK;

  10635  3 000617   000510 710000 3                  TRA     CHAINCHK

     1002    10636    3           END;

     1003    10637    2   DONE:
     1004    10638    2       RETURN;

  10638  3 000620   200024 221300       DONE         LDX1  ! X+2,,AUTO
         3 000621   000001 702211                    TSX2  ! 1,X1

     1005    10639
     1006    10640    2       END CHAIN;
     1007    10641        %EJECT;
PL6.E3A0      #003=DAD$SCTX File=DAD$ROUTE.:E05TSI                               TUE 07/29/97 12:45 Page:189
     1008    10642    1   DISPLAY: PROC( P$);

  10642  3 000622   200030 741300       DISPLAY      STX1  ! ACTION+1,,AUTO
         3 000623   000625 710000 3                  TRA     s:10658

     1009    10643
     1010    10644    2       DCL ACTION SBIN;
     1011    10645    2       DCL FMT_ VECTOR;
     1012    10646    2       DCL LS83 UBIN STATIC;
     1013    10647    2       DCL LS83_ VECTOR CONSTANT INIT( VECTOR( LS83));
     1014    10648    2       DCL MAJ SBIN STATIC;
     1015    10649    2       DCL MAJ_ VECTOR CONSTANT INIT( VECTOR( MAJ));
     1016    10650    2       DCL MIN SBIN STATIC;
     1017    10651    2       DCL MIN_ VECTOR CONSTANT INIT( VECTOR( MIN));
     1018    10652    2       DCL P$ PTR;
     1019    10653    2       DCL SCID UBIN STATIC;
     1020    10654    2       DCL SCID_ VECTOR CONSTANT INIT( VECTOR( SCID));
     1021    10655
     1022    10656    2   DSPMAJSRVR: ENTRY( P$);  /* display single major table entry (server type) */

  10656  3 000624   200030 741300       DSPMAJSRVR   STX1  ! ACTION+1,,AUTO

     1023    10657
     1024    10658    2       ACTION = %SRVR;

  10658  3 000625   200032 450100                    STZ     ACTION,,AUTO

     1025    10659    2       FMT_ = FMTMAJSRVR_;

  10659  3 000626   000040 237000 2                  LDAQ    FMTMAJSRVR_
         3 000627   200034 757100                    STAQ    FMT_,,AUTO

     1026    10660    2       GOTO MAJCOMMON;

  10660  3 000630   000636 710000 3                  TRA     MAJCOMMON

     1027    10661
PL6.E3A0      #003=DAD$SCTX File=DAD$ROUTE.:E05TSI                               TUE 07/29/97 12:45 Page:190
     1028    10662    2   DSPMAJCLNT: ENTRY( P$);  /* display single major table entry (client type) */

  10662  3 000631   200030 741300       DSPMAJCLNT   STX1  ! ACTION+1,,AUTO

     1029    10663
     1030    10664    2       ACTION = %CLNT;

  10664  3 000632   000001 235007                    LDA     1,DL
         3 000633   200032 755100                    STA     ACTION,,AUTO

     1031    10665    2       FMT_ = FMTMAJCLNT_;

  10665  3 000634   000020 237000 2                  LDAQ    FMTMAJCLNT_
         3 000635   200034 757100                    STAQ    FMT_,,AUTO

     1032    10666    2   MAJCOMMON:
     1033    10667    2       SCTX = POFFW( P$, KIS_MAJOR$);

  10667  3 000636   200007 235100       MAJCOMMON    LDA     KIS_MAJOR$,,AUTO
         3 000637   000022 771000                    ARL     18
         3 000640   200036 755100                    STA     FMT_+2,,AUTO
         3 000641   200031 470500                    LDP0    @P$,,AUTO
         3 000642   000000 236100                    LDQ     0,,PR0
         3 000643   000022 772000                    QRL     18
         3 000644   200036 136100                    SBLQ    FMT_+2,,AUTO
         3 000645   000000 756000 1                  STQ     SCTX

     1034    10668    2       MIN = 0;

  10668  3 000646   000101 450000 1                  STZ     MIN

     1035    10669    2       GOTO COMMON;

  10669  3 000647   000665 710000 3                  TRA     COMMON

     1036    10670
     1037    10671    2   DSPMIN: ENTRY( P$);   /* display single minor table entry */
PL6.E3A0      #003=DAD$SCTX File=DAD$ROUTE.:E05TSI                               TUE 07/29/97 12:45 Page:191

  10671  3 000650   200030 741300       DSPMIN       STX1  ! ACTION+1,,AUTO

     1038    10672
     1039    10673    2       ACTION = %FREE;

  10673  3 000651   000002 235007                    LDA     2,DL
         3 000652   200032 755100                    STA     ACTION,,AUTO

     1040    10674    2       FMT_ = FMTMIN_;

  10674  3 000653   000062 237000 2                  LDAQ    FMTMIN_
         3 000654   200034 757100                    STAQ    FMT_,,AUTO

     1041    10675    2       MIN = POFFW( P$, KIS_MINOR$);

  10675  3 000655   200010 235100                    LDA     KIS_MINOR$,,AUTO
         3 000656   000022 771000                    ARL     18
         3 000657   200036 755100                    STA     FMT_+2,,AUTO
         3 000660   200031 470500                    LDP0    @P$,,AUTO
         3 000661   000000 236100                    LDQ     0,,PR0
         3 000662   000022 772000                    QRL     18
         3 000663   200036 136100                    SBLQ    FMT_+2,,AUTO
         3 000664   000101 756000 1                  STQ     MIN

     1042    10676    2   COMMON:
     1043    10677    3       IF NEEDHDR THEN DO;

  10677  3 000665   200020 234100       COMMON       SZN     NEEDHDR,,AUTO
         3 000666   000674 605000 3                  TPL     s:10681

     1044    10678    3           CALL DAF$INIT( RPT);

  10678  3 000667   000014 630400 4                  EPPR0   12
         3 000670   000017 631400 xsym               EPPR1   B_VECTNIL+15
         3 000671   000000 701000 xent               TSX1    DAF$INIT
         3 000672   000000 011000                    NOP     0
PL6.E3A0      #003=DAD$SCTX File=DAD$ROUTE.:E05TSI                               TUE 07/29/97 12:45 Page:192

     1045    10679    3           NEEDHDR = %NO#;

  10679  3 000673   200020 450100                    STZ     NEEDHDR,,AUTO

     1046    10680    3           END;

     1047    10681    2       LS83 = ADDR( P$)->B$HALF;

  10681  3 000674   200031 470500                    LDP0    @P$,,AUTO
         3 000675   000000 236100                    LDQ     0,,PR0
         3 000676   000022 772000                    QRL     18
         3 000677   000077 756000 1                  STQ     LS83

     1048    10682    2       MAJ = SCTX;

  10682  3 000700   000000 235000 1                  LDA     SCTX
         3 000701   000100 755000 1                  STA     MAJ

     1049    10683    2       SCID = MAJ*512 + MIN;

  10683  3 000702   000100 236000 1                  LDQ     MAJ
         3 000703   000011 736000                    QLS     9
         3 000704   000101 036000 1                  ADLQ    MIN
         3 000705   000102 756000 1                  STQ     SCID

     1050    10684    3       DO CASE( ACTION);

  10684  3 000706   200032 235100                    LDA     ACTION,,AUTO
         3 000707   000003 115007                    CMPA    3,DL
         3 000710   000712 602005 3                  TNC     s:10684+4,AL
         3 000711   001106 710000 3                  TRA     s:10715
         3 000712   000715 710000 3                  TRA     s:10695
         3 000713   001005 710000 3                  TRA     s:10697
         3 000714   001046 710000 3                  TRA     s:10706

     1051    10685    3           CASE( %SRVR);
PL6.E3A0      #003=DAD$SCTX File=DAD$ROUTE.:E05TSI                               TUE 07/29/97 12:45 Page:193

     1052    10686    3               CALL DAF$WRITE( FMT_,
     1053    10687    3                       LS83_,
     1054    10688    3                       SCTX_,
     1055    10689    3                       TYPE_,
     1056    10690    3                       MAJ_,
     1057    10691    3                       SCID_,
     1058    10692    3                       VECTOR( P$->APPL.LDCTX),
     1059    10693    3                       VECTOR( P$->APPL.AUDCT),
     1060    10694    3                       VECTOR( P$->APPL.Z.USER),
     1061    10695    3                       VECTOR( SUBSTR( P$->APPL.TSAP.TSAP, 0, P$->APPL.TSAP.LEN)));

  10695  3 000715   000000 471500                    LDP1    0,,PR0
         3 000716   377640 235007                    LDA     130976,DL
         3 000717   200036 451500                    STP1    FMT_+2,,AUTO
         3 000720   200036 236100                    LDQ     FMT_+2,,AUTO
         3 000721   000000 473500                    LDP3    0,,PR0
         3 000722   200040 757100                    STAQ    FMT_+4,,AUTO
         3 000723   377640 235007                    LDA     130976,DL
         3 000724   200042 453500                    STP3    FMT_+6,,AUTO
         3 000725   200042 236100                    LDQ     FMT_+6,,AUTO
         3 000726   000015 036000 4                  ADLQ    13
         3 000727   000000 474500                    LDP4    0,,PR0
         3 000730   200044 757100                    STAQ    FMT_+8,,AUTO
         3 000731   177640 235007                    LDA     65440,DL
         3 000732   200046 454500                    STP4    FMT_+10,,AUTO
         3 000733   200046 236100                    LDQ     FMT_+10,,AUTO
         3 000734   400000 036007                    ADLQ    -131072,DL
         3 000735   000000 475500                    LDP5    0,,PR0
         3 000736   500001 220100                    LDX0    1,,PR5
         3 000737   200050 757100                    STAQ    FMT_+12,,AUTO
         3 000740   000000 635010                    EAA     0,X0
         3 000741   000002 771000                    ARL     2
         3 000742   000140 135007                    SBLA    96,DL
         3 000743   200052 455500                    STP5    FMT_+14,,AUTO
         3 000744   200052 236100                    LDQ     FMT_+14,,AUTO
         3 000745   000016 036000 4                  ADLQ    14
PL6.E3A0      #003=DAD$SCTX File=DAD$ROUTE.:E05TSI                               TUE 07/29/97 12:45 Page:194
         3 000746   200056 757100                    STAQ    FMT_+18,,AUTO
         3 000747   200040 237100                    LDAQ    FMT_+4,,AUTO
         3 000750   200054 757100                    STAQ    FMT_+16,,AUTO
         3 000751   200044 237100                    LDAQ    FMT_+8,,AUTO
         3 000752   200060 757100                    STAQ    FMT_+20,,AUTO
         3 000753   200050 237100                    LDAQ    FMT_+12,,AUTO
         3 000754   200062 757100                    STAQ    FMT_+22,,AUTO
         3 000755   200056 237100                    LDAQ    FMT_+18,,AUTO
         3 000756   200064 757100                    STAQ    FMT_+24,,AUTO
         3 000757   200064 636500                    EPPR6   FMT_+24,,AUTO
         3 000760   200077 456500                    STP6    FMT_+35,,AUTO
         3 000761   200062 637500                    EPPR7   FMT_+22,,AUTO
         3 000762   200076 457500                    STP7    FMT_+34,,AUTO
         3 000763   200060 630500                    EPPR0   FMT_+20,,AUTO
         3 000764   200075 450500                    STP0    FMT_+33,,AUTO
         3 000765   200054 630500                    EPPR0   FMT_+16,,AUTO
         3 000766   200074 450500                    STP0    FMT_+32,,AUTO
         3 000767   000020 237000 4                  LDAQ    16
         3 000770   200072 757100                    STAQ    FMT_+30,,AUTO
         3 000771   000022 237000 4                  LDAQ    18
         3 000772   200070 757100                    STAQ    FMT_+28,,AUTO
         3 000773   000024 236000 4                  LDQ     20
         3 000774   200067 756100                    STQ     FMT_+27,,AUTO
         3 000775   200034 630500                    EPPR0   FMT_,,AUTO
         3 000776   200066 450500                    STP0    FMT_+26,,AUTO
         3 000777   200066 630500                    EPPR0   FMT_+26,,AUTO
         3 001000   000000 220000 xsym               LDX0    DAF$WRITE
         3 001001   000017 631400 4                  EPPR1   15
         3 001002   000000 701010                    TSX1    0,X0
         3 001003   000000 011000                    NOP     0
         3 001004   001106 710000 3                  TRA     s:10715

     1062    10696    3           CASE( %CLNT);

     1063    10697    3               CALL DAF$WRITE( FMT_,

  10697  3 001005   000000 471500                    LDP1    0,,PR0
PL6.E3A0      #003=DAD$SCTX File=DAD$ROUTE.:E05TSI                               TUE 07/29/97 12:45 Page:195
         3 001006   377640 235007                    LDA     130976,DL
         3 001007   200036 451500                    STP1    FMT_+2,,AUTO
         3 001010   200036 236100                    LDQ     FMT_+2,,AUTO
         3 001011   000000 473500                    LDP3    0,,PR0
         3 001012   200040 757100                    STAQ    FMT_+4,,AUTO
         3 001013   177640 235007                    LDA     65440,DL
         3 001014   200042 453500                    STP3    FMT_+6,,AUTO
         3 001015   200042 236100                    LDQ     FMT_+6,,AUTO
         3 001016   400000 036007                    ADLQ    -131072,DL
         3 001017   200046 757100                    STAQ    FMT_+10,,AUTO
         3 001020   200040 237100                    LDAQ    FMT_+4,,AUTO
         3 001021   200044 757100                    STAQ    FMT_+8,,AUTO
         3 001022   200046 237100                    LDAQ    FMT_+10,,AUTO
         3 001023   200050 757100                    STAQ    FMT_+12,,AUTO
         3 001024   200050 634500                    EPPR4   FMT_+12,,AUTO
         3 001025   200061 454500                    STP4    FMT_+21,,AUTO
         3 001026   200044 635500                    EPPR5   FMT_+8,,AUTO
         3 001027   200060 455500                    STP5    FMT_+20,,AUTO
         3 001030   000020 237000 4                  LDAQ    16
         3 001031   200056 757100                    STAQ    FMT_+18,,AUTO
         3 001032   000022 237000 4                  LDAQ    18
         3 001033   200054 757100                    STAQ    FMT_+16,,AUTO
         3 001034   000024 236000 4                  LDQ     20
         3 001035   200053 756100                    STQ     FMT_+15,,AUTO
         3 001036   200034 636500                    EPPR6   FMT_,,AUTO
         3 001037   200052 456500                    STP6    FMT_+14,,AUTO
         3 001040   200052 630500                    EPPR0   FMT_+14,,AUTO
         3 001041   000000 220000 xsym               LDX0    DAF$WRITE
         3 001042   000026 631400 xsym               EPPR1   B_VECTNIL+22
         3 001043   000000 701010                    TSX1    0,X0
         3 001044   000000 011000                    NOP     0
         3 001045   001106 710000 3                  TRA     s:10715

     1064    10698    3                       LS83_,
     1065    10699    3                       SCTX_,
     1066    10700    3                       TYPE_,
     1067    10701    3                       MAJ_,
PL6.E3A0      #003=DAD$SCTX File=DAD$ROUTE.:E05TSI                               TUE 07/29/97 12:45 Page:196
     1068    10702    3                       SCID_,
     1069    10703    3                       VECTOR( P$->APPL.LDCTX),
     1070    10704    3                       VECTOR( P$->APPL.Z.USER));
     1071    10705    3           CASE( %FREE);

     1072    10706    3               CALL DAF$WRITE( FMT_,

  10706  3 001046   000000 471500                    LDP1    0,,PR0
         3 001047   377640 235007                    LDA     130976,DL
         3 001050   200036 451500                    STP1    FMT_+2,,AUTO
         3 001051   200036 236100                    LDQ     FMT_+2,,AUTO
         3 001052   000000 473500                    LDP3    0,,PR0
         3 001053   200040 757100                    STAQ    FMT_+4,,AUTO
         3 001054   177640 235007                    LDA     65440,DL
         3 001055   200042 453500                    STP3    FMT_+6,,AUTO
         3 001056   200042 236100                    LDQ     FMT_+6,,AUTO
         3 001057   400000 036007                    ADLQ    -131072,DL
         3 001060   200046 757100                    STAQ    FMT_+10,,AUTO
         3 001061   200040 237100                    LDAQ    FMT_+4,,AUTO
         3 001062   200044 757100                    STAQ    FMT_+8,,AUTO
         3 001063   200046 237100                    LDAQ    FMT_+10,,AUTO
         3 001064   200050 757100                    STAQ    FMT_+12,,AUTO
         3 001065   200050 634500                    EPPR4   FMT_+12,,AUTO
         3 001066   200061 454500                    STP4    FMT_+21,,AUTO
         3 001067   200044 635500                    EPPR5   FMT_+8,,AUTO
         3 001070   200060 455500                    STP5    FMT_+20,,AUTO
         3 001071   000026 237000 4                  LDAQ    22
         3 001072   200056 757100                    STAQ    FMT_+18,,AUTO
         3 001073   000030 237000 4                  LDAQ    24
         3 001074   200054 757100                    STAQ    FMT_+16,,AUTO
         3 001075   000024 236000 4                  LDQ     20
         3 001076   200053 756100                    STQ     FMT_+15,,AUTO
         3 001077   200034 636500                    EPPR6   FMT_,,AUTO
         3 001100   200052 456500                    STP6    FMT_+14,,AUTO
         3 001101   200052 630500                    EPPR0   FMT_+14,,AUTO
         3 001102   000000 220000 xsym               LDX0    DAF$WRITE
         3 001103   000026 631400 xsym               EPPR1   B_VECTNIL+22
PL6.E3A0      #003=DAD$SCTX File=DAD$ROUTE.:E05TSI                               TUE 07/29/97 12:45 Page:197
         3 001104   000000 701010                    TSX1    0,X0
         3 001105   000000 011000                    NOP     0

     1073    10707    3                       LS83_,
     1074    10708    3                       TYPE_,
     1075    10709    3                       MAJ_,
     1076    10710    3                       MIN_,
     1077    10711    3                       SCID_,
     1078    10712    3                       VECTOR( P$->APPL.TCTX),
     1079    10713    3                       VECTOR( P$->APPL.Z.COOKIE));
     1080    10714    3           END;

     1081    10715    2       RETURN;

  10715  3 001106   200030 221300                    LDX1  ! ACTION+1,,AUTO
         3 001107   000001 702211                    TSX2  ! 1,X1

     1082    10716
     1083    10717    2   DSPMAJSUM: ENTRY;  /* display major table summary */

  10717  3 001110   200030 741300       DSPMAJSUM    STX1  ! ACTION+1,,AUTO

     1084    10718
     1085    10719    2       I = KIS_SSN_CLIENTS + KIS_SSN_SERVERS;

  10719  3 001111   200011 236100                    LDQ     KIS_SSN_CLIENTS,,AUTO
         3 001112   200012 036100                    ADLQ    KIS_SSN_SERVERS,,AUTO
         3 001113   200005 756100                    STQ     I,,AUTO

     1086    10720    2       J = MAJCLNT# + MAJSRVR#;

  10720  3 001114   200014 236100                    LDQ     MAJCLNT#,,AUTO
         3 001115   200015 036100                    ADLQ    MAJSRVR#,,AUTO
         3 001116   200006 756100                    STQ     J,,AUTO

     1087    10721    2       X = I - J;

PL6.E3A0      #003=DAD$SCTX File=DAD$ROUTE.:E05TSI                               TUE 07/29/97 12:45 Page:198
  10721  3 001117   200005 236100                    LDQ     I,,AUTO
         3 001120   200006 136100                    SBLQ    J,,AUTO
         3 001121   200022 756100                    STQ     X,,AUTO

     1088    10722    2       CALL DAF$WRITE( FMTMAJSUM_,

  10722  3 001122   777640 235007                    LDA     -96,DL
         3 001123   200036 452500                    STP2    FMT_+2,,AUTO
         3 001124   200036 236100                    LDQ     FMT_+2,,AUTO
         3 001125   000005 036003                    ADLQ    5,DU
         3 001126   200040 757100                    STAQ    FMT_+4,,AUTO
         3 001127   777640 235007                    LDA     -96,DL
         3 001130   200042 452500                    STP2    FMT_+6,,AUTO
         3 001131   200042 236100                    LDQ     FMT_+6,,AUTO
         3 001132   000012 036003                    ADLQ    10,DU
         3 001133   200044 757100                    STAQ    FMT_+8,,AUTO
         3 001134   777640 235007                    LDA     -96,DL
         3 001135   200046 452500                    STP2    FMT_+10,,AUTO
         3 001136   200046 236100                    LDQ     FMT_+10,,AUTO
         3 001137   000011 036003                    ADLQ    9,DU
         3 001140   200050 757100                    STAQ    FMT_+12,,AUTO
         3 001141   777640 235007                    LDA     -96,DL
         3 001142   200052 452500                    STP2    FMT_+14,,AUTO
         3 001143   200052 236100                    LDQ     FMT_+14,,AUTO
         3 001144   000006 036003                    ADLQ    6,DU
         3 001145   200054 757100                    STAQ    FMT_+16,,AUTO
         3 001146   777640 235007                    LDA     -96,DL
         3 001147   200056 452500                    STP2    FMT_+18,,AUTO
         3 001150   200056 236100                    LDQ     FMT_+18,,AUTO
         3 001151   000015 036003                    ADLQ    13,DU
         3 001152   200060 757100                    STAQ    FMT_+20,,AUTO
         3 001153   777640 235007                    LDA     -96,DL
         3 001154   200062 452500                    STP2    FMT_+22,,AUTO
         3 001155   200062 236100                    LDQ     FMT_+22,,AUTO
         3 001156   000014 036003                    ADLQ    12,DU
         3 001157   200064 757100                    STAQ    FMT_+24,,AUTO
         3 001160   777640 235007                    LDA     -96,DL
PL6.E3A0      #003=DAD$SCTX File=DAD$ROUTE.:E05TSI                               TUE 07/29/97 12:45 Page:199
         3 001161   200066 452500                    STP2    FMT_+26,,AUTO
         3 001162   200066 236100                    LDQ     FMT_+26,,AUTO
         3 001163   000022 036003                    ADLQ    18,DU
         3 001164   200072 757100                    STAQ    FMT_+30,,AUTO
         3 001165   200040 237100                    LDAQ    FMT_+4,,AUTO
         3 001166   200070 757100                    STAQ    FMT_+28,,AUTO
         3 001167   200044 237100                    LDAQ    FMT_+8,,AUTO
         3 001170   200074 757100                    STAQ    FMT_+32,,AUTO
         3 001171   200050 237100                    LDAQ    FMT_+12,,AUTO
         3 001172   200076 757100                    STAQ    FMT_+34,,AUTO
         3 001173   200054 237100                    LDAQ    FMT_+16,,AUTO
         3 001174   200100 757100                    STAQ    FMT_+36,,AUTO
         3 001175   200060 237100                    LDAQ    FMT_+20,,AUTO
         3 001176   200102 757100                    STAQ    FMT_+38,,AUTO
         3 001177   200064 237100                    LDAQ    FMT_+24,,AUTO
         3 001200   200104 757100                    STAQ    FMT_+40,,AUTO
         3 001201   200072 237100                    LDAQ    FMT_+30,,AUTO
         3 001202   200106 757100                    STAQ    FMT_+42,,AUTO
         3 001203   200106 630500                    EPPR0   FMT_+42,,AUTO
         3 001204   200117 450500                    STP0    FMT_+51,,AUTO
         3 001205   200104 631500                    EPPR1   FMT_+40,,AUTO
         3 001206   200116 451500                    STP1    FMT_+50,,AUTO
         3 001207   200102 633500                    EPPR3   FMT_+38,,AUTO
         3 001210   200115 453500                    STP3    FMT_+49,,AUTO
         3 001211   200100 634500                    EPPR4   FMT_+36,,AUTO
         3 001212   200114 454500                    STP4    FMT_+48,,AUTO
         3 001213   200076 635500                    EPPR5   FMT_+34,,AUTO
         3 001214   200113 455500                    STP5    FMT_+47,,AUTO
         3 001215   200074 636500                    EPPR6   FMT_+32,,AUTO
         3 001216   200112 456500                    STP6    FMT_+46,,AUTO
         3 001217   200070 637500                    EPPR7   FMT_+28,,AUTO
         3 001220   200111 457500                    STP7    FMT_+45,,AUTO
         3 001221   000032 236000 4                  LDQ     26
         3 001222   200110 756100                    STQ     FMT_+44,,AUTO
         3 001223   200110 630500                    EPPR0   FMT_+44,,AUTO
         3 001224   000000 220000 xsym               LDX0    DAF$WRITE
         3 001225   000026 631400 xsym               EPPR1   B_VECTNIL+22
PL6.E3A0      #003=DAD$SCTX File=DAD$ROUTE.:E05TSI                               TUE 07/29/97 12:45 Page:200
         3 001226   000000 701010                    TSX1    0,X0
         3 001227   000000 011000                    NOP     0

     1089    10723    2               VECTOR( I),
     1090    10724    2               VECTOR( KIS_SSN_SERVERS),
     1091    10725    2               VECTOR( KIS_SSN_CLIENTS),
     1092    10726    2               VECTOR( J),
     1093    10727    2               VECTOR( MAJSRVR#),
     1094    10728    2               VECTOR( MAJCLNT#),
     1095    10729    2               VECTOR( X));
     1096    10730    2       RETURN;

  10730  3 001230   200030 221300                    LDX1  ! ACTION+1,,AUTO
         3 001231   000001 702211                    TSX2  ! 1,X1

     1097    10731
     1098    10732    2   DSPMINSUM: ENTRY;  /* display minor table summary */

  10732  3 001232   200030 741300       DSPMINSUM    STX1  ! ACTION+1,,AUTO

     1099    10733
     1100    10734    2       I = KIS_SSN_MAX;

  10734  3 001233   200013 235100                    LDA     KIS_SSN_MAX,,AUTO
         3 001234   200005 755100                    STA     I,,AUTO

     1101    10735    2       J = MINCLNT# + MINSRVR#;

  10735  3 001235   200016 236100                    LDQ     MINCLNT#,,AUTO
         3 001236   200017 036100                    ADLQ    MINSRVR#,,AUTO
         3 001237   200006 756100                    STQ     J,,AUTO

     1102    10736    2       X = I - J;

  10736  3 001240   200005 236100                    LDQ     I,,AUTO
         3 001241   200006 136100                    SBLQ    J,,AUTO
         3 001242   200022 756100                    STQ     X,,AUTO
PL6.E3A0      #003=DAD$SCTX File=DAD$ROUTE.:E05TSI                               TUE 07/29/97 12:45 Page:201

     1103    10737    2       CALL DAF$WRITE( FMTMINSUM_,

  10737  3 001243   777640 235007                    LDA     -96,DL
         3 001244   200036 452500                    STP2    FMT_+2,,AUTO
         3 001245   200036 236100                    LDQ     FMT_+2,,AUTO
         3 001246   000005 036003                    ADLQ    5,DU
         3 001247   200040 757100                    STAQ    FMT_+4,,AUTO
         3 001250   777640 235007                    LDA     -96,DL
         3 001251   200042 452500                    STP2    FMT_+6,,AUTO
         3 001252   200042 236100                    LDQ     FMT_+6,,AUTO
         3 001253   000013 036003                    ADLQ    11,DU
         3 001254   200044 757100                    STAQ    FMT_+8,,AUTO
         3 001255   777640 235007                    LDA     -96,DL
         3 001256   200046 452500                    STP2    FMT_+10,,AUTO
         3 001257   200046 236100                    LDQ     FMT_+10,,AUTO
         3 001260   000006 036003                    ADLQ    6,DU
         3 001261   200050 757100                    STAQ    FMT_+12,,AUTO
         3 001262   777640 235007                    LDA     -96,DL
         3 001263   200052 452500                    STP2    FMT_+14,,AUTO
         3 001264   200052 236100                    LDQ     FMT_+14,,AUTO
         3 001265   000017 036003                    ADLQ    15,DU
         3 001266   200054 757100                    STAQ    FMT_+16,,AUTO
         3 001267   777640 235007                    LDA     -96,DL
         3 001270   200056 452500                    STP2    FMT_+18,,AUTO
         3 001271   200056 236100                    LDQ     FMT_+18,,AUTO
         3 001272   000016 036003                    ADLQ    14,DU
         3 001273   200060 757100                    STAQ    FMT_+20,,AUTO
         3 001274   777640 235007                    LDA     -96,DL
         3 001275   200062 452500                    STP2    FMT_+22,,AUTO
         3 001276   200062 236100                    LDQ     FMT_+22,,AUTO
         3 001277   000022 036003                    ADLQ    18,DU
         3 001300   200066 757100                    STAQ    FMT_+26,,AUTO
         3 001301   200040 237100                    LDAQ    FMT_+4,,AUTO
         3 001302   200064 757100                    STAQ    FMT_+24,,AUTO
         3 001303   200044 237100                    LDAQ    FMT_+8,,AUTO
         3 001304   200070 757100                    STAQ    FMT_+28,,AUTO
PL6.E3A0      #003=DAD$SCTX File=DAD$ROUTE.:E05TSI                               TUE 07/29/97 12:45 Page:202
         3 001305   200050 237100                    LDAQ    FMT_+12,,AUTO
         3 001306   200072 757100                    STAQ    FMT_+30,,AUTO
         3 001307   200054 237100                    LDAQ    FMT_+16,,AUTO
         3 001310   200074 757100                    STAQ    FMT_+32,,AUTO
         3 001311   200060 237100                    LDAQ    FMT_+20,,AUTO
         3 001312   200076 757100                    STAQ    FMT_+34,,AUTO
         3 001313   200066 237100                    LDAQ    FMT_+26,,AUTO
         3 001314   200100 757100                    STAQ    FMT_+36,,AUTO
         3 001315   200100 630500                    EPPR0   FMT_+36,,AUTO
         3 001316   200110 450500                    STP0    FMT_+44,,AUTO
         3 001317   200076 631500                    EPPR1   FMT_+34,,AUTO
         3 001320   200107 451500                    STP1    FMT_+43,,AUTO
         3 001321   200074 633500                    EPPR3   FMT_+32,,AUTO
         3 001322   200106 453500                    STP3    FMT_+42,,AUTO
         3 001323   200072 634500                    EPPR4   FMT_+30,,AUTO
         3 001324   200105 454500                    STP4    FMT_+41,,AUTO
         3 001325   200070 635500                    EPPR5   FMT_+28,,AUTO
         3 001326   200104 455500                    STP5    FMT_+40,,AUTO
         3 001327   200064 636500                    EPPR6   FMT_+24,,AUTO
         3 001330   200103 456500                    STP6    FMT_+39,,AUTO
         3 001331   000033 236000 4                  LDQ     27
         3 001332   200102 756100                    STQ     FMT_+38,,AUTO
         3 001333   200102 630500                    EPPR0   FMT_+38,,AUTO
         3 001334   000000 220000 xsym               LDX0    DAF$WRITE
         3 001335   000025 631400 xsym               EPPR1   B_VECTNIL+21
         3 001336   000000 701010                    TSX1    0,X0
         3 001337   000000 011000                    NOP     0

     1104    10738    2               VECTOR( I),
     1105    10739    2               VECTOR( KIS_SSN_MAX),
     1106    10740    2               VECTOR( J),
     1107    10741    2               VECTOR( MINSRVR#),
     1108    10742    2               VECTOR( MINCLNT#),
     1109    10743    2               VECTOR( X));
     1110    10744    2       RETURN;

  10744  3 001340   200030 221300                    LDX1  ! ACTION+1,,AUTO
PL6.E3A0      #003=DAD$SCTX File=DAD$ROUTE.:E05TSI                               TUE 07/29/97 12:45 Page:203
         3 001341   000001 702211                    TSX2  ! 1,X1
     1111    10745
     1112    10746    2       END DISPLAY;
     1113    10747
     1114    10748    1       END DAD$SCTX;

PL6.E3A0      #003=DAD$SCTX File=DAD$ROUTE.:E05TSI                               TUE 07/29/97 12:45 Page:204
--  Include file information  --

   XU_MACRO_C.:E05TOU  is referenced.
   K_SESSION_M.:E05TOU  is referenced.
   K_ADDRESS_M.:E05TOU  is referenced.
   DA_MAP_R.:E05TOU  cannot be made into a system file and is referenced.
   DA_ANLZ_R.:E05TOU  cannot be made into a system file and is referenced.
   DA_MONSYM_C.:E05TOU  is referenced.
   DA_FORMAT_C.:E05TOU  is referenced.
   CP_6_SUBS.:E05TOU  is referenced.
   CP_6_C.:E05TOU  is referenced.
   CP_6.:E05TOU  cannot be made into a system file and is referenced.
      No diagnostics issued in procedure DAD$SCTX.
PL6.E3A0      #003=DAD$SCTX File=DAD$ROUTE.:E05TSI                               TUE 07/29/97 12:45 Page:205

 **** Variables and constants ****

  ****  Section 001  Data  DAD$SCTX

  ****  Scalars and arrays  ****
OctLoc.c.b A Datatyp(siz) R M Lvl/name                 OctLoc.c.b A Datatyp(siz) R M Lvl/name

    77-0-0/w UBIN        r     1 LS83                     100-0-0/w SBIN        r     1 MAJ
   101-0-0/w SBIN        r     1 MIN                        2-0-0/w STRC(288)   r     1 RPT
    21-0-0/w STRC(144)   r     1 RPTHD00                   46-0-0/w STRC(144)   r     1 RPTHD01
    12-0-0/c STRC(225)   r     1 RPTTX00                   25-0-0/c STRC(612)   r     1 RPTTX01
    52-0-0/c STRC(747)   r     1 RPTTX02                  102-0-0/w UBIN        r     1 SCID
     0-0-0/w UBIN        r     1 SCTX                       1-0-0/c CHAR(4)     r     1 TYPE

  ****  Section 002 RoData DAD$SCTX

  ****  Scalars and arrays  ****
OctLoc.c.b A Datatyp(siz) R M Lvl/name                 OctLoc.c.b A Datatyp(siz) R M Lvl/name

     4-0-0/c CHAR(45)    r     1 FMTMAJCLNT                20-0-0/d VECT        r     1 FMTMAJCLNT_
    22-0-0/c CHAR(49)    r     1 FMTMAJSRVR                40-0-0/d VECT        r     1 FMTMAJSRVR_
    64-0-0/c CHAR(79)    r     1 FMTMAJSUM                110-0-0/d VECT        r     1 FMTMAJSUM_
    42-0-0/c CHAR(64)    r     1 FMTMIN                   112-0-0/c CHAR(78)    r     1 FMTMINSUM
   136-0-0/d VECT        r     1 FMTMINSUM_                62-0-0/d VECT        r     1 FMTMIN_
   140-0-0/d VECT        r     1 LS83_                    142-0-0/d VECT        r     1 MAJ_
   144-0-0/d VECT        r     1 MIN_                     146-0-0/d VECT        r     1 SCID_
     0-0-0/d VECT        r     1 SCTX_                      2-0-0/d VECT        r     1 TYPE_

  ****  Auto variables  ****

  ****  Scalars and arrays  ****
OctLoc.c.b A Datatyp(siz) R M Lvl/name                 OctLoc.c.b A Datatyp(siz) R M Lvl/name

    26-0-0/w PTR         r     1 @FLAG                     25-0-0/w PTR         r     1 @P$
    31-0-0/w PTR         r     1 @P$                        3-0-0/w PTR         r     1 @TOP
    27-0-0/w SBIN        r     1 ACTION                    32-0-0/w SBIN        r     1 ACTION
     4-0-0/b BIT         r     1 DISPALL                   *0-0-0/b BIT         r     1 FLAG
PL6.E3A0      #003=DAD$SCTX File=DAD$ROUTE.:E05TSI                               TUE 07/29/97 12:45 Page:206
    34-0-0/d VECT        r     1 FMT_                       5-0-0/w SBIN        r     1 I
     6-0-0/w SBIN        r     1 J                          7-0-0/w PTR         r     1 KIS_MAJOR$
    10-0-0/w PTR         r     1 KIS_MINOR$                11-0-0/w SBIN        r     1 KIS_SSN_CLIENTS
    13-0-0/w SBIN        r     1 KIS_SSN_MAX               12-0-0/w SBIN        r     1 KIS_SSN_SERVERS
    14-0-0/w SBIN        r     1 MAJCLNT#                  15-0-0/w SBIN        r     1 MAJSRVR#
    16-0-0/w SBIN        r     1 MINCLNT#                  17-0-0/w SBIN        r     1 MINSRVR#
    20-0-0/b BIT         r     1 NEEDHDR                   21-0-0/w PTR         r     1 P$
    *0-0-0/w PTR         r     1 P$                        *0-0-0/w PTR         r     1 P$
    *0-0-0/w STRC(144)   r     1 TOP                       22-0-0/w SBIN        r     1 X

  ****  SYMREF variables  ****

  ****  Scalars and arrays  ****
OctLoc.c.b A Datatyp(siz) R M Lvl/name                 OctLoc.c.b A Datatyp(siz) R M Lvl/name

     0-0-0/w EPTR        r     1 DAF$WRITE                  0-0-0/b BIT (72)    r     1 DA_MONISDATA

  ****  BASED and DCB variables  ****

  ****  Scalars and arrays  ****
OctLoc.c.b A Datatyp(siz) R M Lvl/name                 OctLoc.c.b A Datatyp(siz) R M Lvl/name

     0-0-0/w STRC(360)   r     1 APPL                       0-0-0/w UBIN(18)    r     1 B$HALF
     0-0-0/w PTR         r     1 B$PTR                      0-0-0/w SBIN        r     1 B$SBIN
     0-0-0/w STRC(144)   r     1 OUT


   Procedure DAD$SCTX requires 738 words for executable code.
   Procedure DAD$SCTX requires 82 words of local(AUTO) storage.

    No errors detected in file DAD$ROUTE.:E05TSI    .
PL6.E3A0      #003=DAD$SCTX File=DAD$ROUTE.:E05TSI                               TUE 07/29/97 12:45 Page:207
          *** CROSS REFERENCE LISTING ***
**     DENOTES     IDENTIFIER DEFINITION
<<                 IDENTIFIER'S VALUE SET
>>                 IDENTIFIER'S VALUE USED
<>                 IDENTIFIER SET AND/OR USED
--                 IDENTIFIER REFERENCED
PL6.E3A0      #003=DAD$SCTX File=DAD$ROUTE.:E05TSI                               TUE 07/29/97 12:45 Page:208
          MINI XREF LISTING

ACTION IN PROCEDURE CHAIN
     10578**DCL     10587<<ASSIGN  10595<<ASSIGN  10603<<ASSIGN  10607>>DOCASE  10620>>IF      10623>>IF
ACTION IN PROCEDURE DISPLAY
     10644**DCL     10658<<ASSIGN  10664<<ASSIGN  10673<<ASSIGN  10684>>DOCASE
APPL.AUDCT
      7106**DCL     10695--CALL
APPL.CLNTHD
      7066**DCL      7067--REDEF
APPL.LDCTX
      7064**DCL     10589>>IF      10597>>IF      10609>>IF      10611>>IF      10628>>IF      10630>>IF
     10695--CALL    10697--CALL
APPL.TCTX
      7063**DCL      7064--REDEF    7065--REDEF   10617>>IF      10619>>IF      10633>>IF      10706--CALL
APPL.TSAP.LEN
      7091**DCL     10695>>CALL
APPL.TSAP.TSAP
      7099**DCL     10695--CALL
APPL.Z.COOKIE
      7068**DCL      7069--REDEF   10706--CALL
APPL.Z.LINK
      7070**DCL     10569>>ASSIGN  10614>>ASSIGN  10625>>ASSIGN
APPL.Z.USER
      7069**DCL     10695--CALL    10697--CALL
B$HALF
     10311**DCL     10681>>ASSIGN
B$PTR
     10312**DCL     10518>>ASSIGN  10523>>ASSIGN
B$SBIN
     10313**DCL     10506>>ASSIGN  10510>>ASSIGN  10514>>ASSIGN
CHAINCHK IN PROCEDURE CHAIN
     10614**LABEL   10631--GOTO    10635--GOTO
COMMON IN PROCEDURE CHAIN
PL6.E3A0      #003=DAD$SCTX File=DAD$ROUTE.:E05TSI                               TUE 07/29/97 12:45 Page:209
     10607**LABEL   10591--GOTO    10599--GOTO
COMMON IN PROCEDURE DISPLAY
     10677**LABEL   10669--GOTO
DAA$VALUE
     10305**DCL-ENT 10533--CALL    10541--CALL
DAF$INIT
     10306**DCL-ENT 10678--CALL
DAF$WRITE
     10307**DCL     10695>>CALL    10697>>CALL    10706>>CALL    10722>>CALL    10737>>CALL
DAM$MAP
     10308**DCL-ENT 10505--CALL    10509--CALL    10513--CALL    10517--CALL    10519--CALL    10522--CALL
     10524--CALL
DAS$SDMONPTR
     10309**DCL-ENT 10504--CALL    10508--CALL    10512--CALL    10516--CALL    10521--CALL
DA_MAPSEG.P
      6441**DCL      6442--REDEF
DA_MONISDATA
      6434**DCL     10505<>CALL    10509<>CALL    10513<>CALL    10517<>CALL    10522<>CALL
DA_SDASN.DESC.TYPE0
      6426**DCL      6426--REDEF
DA_TIGRSEG.P
      6442**DCL      6443--REDEF
DISPALL
     10314**DCL     10530<<ASSIGN  10535<<ASSIGN  10559<>CALL    10564<>CALL    10568>>IF
DONE
     10574**LABEL   10504--CALLALT 10505--CALLALT 10508--CALLALT 10509--CALLALT 10512--CALLALT 10513--CALLALT
     10516--CALLALT 10517--CALLALT 10521--CALLALT 10522--CALLALT
DONE IN PROCEDURE CHAIN
     10638**LABEL   10612--GOTO
DSPMAJCLNT IN PROCEDURE DISPLAY
     10662**ENTRY   10629--CALL
DSPMAJSRVR IN PROCEDURE DISPLAY
     10656**ENTRY   10610--CALL
DSPMAJSUM IN PROCEDURE DISPLAY
     10717**ENTRY   10566--CALL
DSPMIN IN PROCEDURE DISPLAY
PL6.E3A0      #003=DAD$SCTX File=DAD$ROUTE.:E05TSI                               TUE 07/29/97 12:45 Page:210
     10671**ENTRY   10618--CALL    10634--CALL
DSPMINSUM IN PROCEDURE DISPLAY
     10732**ENTRY   10572--CALL
FLAG IN PROCEDURE CHAIN
     10583**DCL     10576--PROC    10585--ENTRY   10593--ENTRY   10601--ENTRY   10609>>IF      10617>>IF
     10628>>IF      10633>>IF
FMTMAJCLNT
     10487**DCL     10489--DCLINIT
FMTMAJCLNT_
     10489**DCL     10665>>ASSIGN
FMTMAJSRVR
     10490**DCL     10492--DCLINIT
FMTMAJSRVR_
     10492**DCL     10659>>ASSIGN
FMTMAJSUM
     10496**DCL     10498--DCLINIT
FMTMAJSUM_
     10498**DCL     10722<>CALL
FMTMIN
     10493**DCL     10495--DCLINIT
FMTMINSUM
     10499**DCL     10501--DCLINIT
FMTMINSUM_
     10501**DCL     10737<>CALL
FMTMIN_
     10495**DCL     10674>>ASSIGN
FMT_ IN PROCEDURE DISPLAY
     10645**DCL     10659<<ASSIGN  10665<<ASSIGN  10674<<ASSIGN  10695<>CALL    10697<>CALL    10706<>CALL
I
     10315**DCL     10533<>CALL    10534>>IF      10541<>CALL    10542>>IF      10543>>IF      10543>>IF
     10544>>CALL    10549>>IF      10550>>CALL    10557<<DOINDEX 10558>>ASSIGN  10562<<DOINDEX 10563>>ASSIGN
     10719<<ASSIGN  10721>>ASSIGN  10722--CALL    10734<<ASSIGN  10736>>ASSIGN  10737--CALL
J
     10316**DCL     10614<<ASSIGN  10615>>DOWHILE 10616>>ASSIGN  10625<<ASSIGN  10720<<ASSIGN  10721>>ASSIGN
     10722--CALL    10735<<ASSIGN  10736>>ASSIGN  10737--CALL
KIS_MAJOR$
PL6.E3A0      #003=DAD$SCTX File=DAD$ROUTE.:E05TSI                               TUE 07/29/97 12:45 Page:211
     10317**DCL     10518<<ASSIGN  10519<>CALL    10519<>CALL    10544>>CALL    10550>>CALL    10558>>ASSIGN
     10563>>ASSIGN  10667>>ASSIGN
KIS_MINOR$
     10318**DCL     10523<<ASSIGN  10524<>CALL    10524<>CALL    10569>>ASSIGN  10569>>ASSIGN  10616>>ASSIGN
     10675>>ASSIGN
KIS_SSN_CLIENTS
     10319**DCL     10506<<ASSIGN  10549>>IF      10562>>DOINDEX 10719>>ASSIGN  10722--CALL
KIS_SSN_MAX
     10321**DCL     10514<<ASSIGN  10734>>ASSIGN  10737--CALL
KIS_SSN_SERVERS
     10320**DCL     10510<<ASSIGN  10542>>IF      10549>>IF      10557>>DOINDEX 10563>>ASSIGN  10719>>ASSIGN
     10722--CALL
LS83 IN PROCEDURE DISPLAY
     10646**DCL     10647--DCLINIT 10681<<ASSIGN
LS83_ IN PROCEDURE DISPLAY
     10647**DCL     10695<>CALL    10697<>CALL    10706<>CALL
MAJ IN PROCEDURE DISPLAY
     10648**DCL     10649--DCLINIT 10682<<ASSIGN  10683>>ASSIGN
MAJCLNT IN PROCEDURE CHAIN
     10593**ENTRY   10550--CALL    10564--CALL
MAJCLNT#
     10322**DCL     10526<<ASSIGN  10598<<ASSIGN  10598>>ASSIGN  10720>>ASSIGN  10722--CALL
MAJCOMMON IN PROCEDURE DISPLAY
     10667**LABEL   10660--GOTO
MAJSRVR IN PROCEDURE CHAIN
     10585**ENTRY   10544--CALL    10559--CALL
MAJSRVR#
     10323**DCL     10527<<ASSIGN  10590<<ASSIGN  10590>>ASSIGN  10720>>ASSIGN  10722--CALL
MAJ_ IN PROCEDURE DISPLAY
     10649**DCL     10695<>CALL    10697<>CALL    10706<>CALL
MIN IN PROCEDURE DISPLAY
     10650**DCL     10651--DCLINIT 10668<<ASSIGN  10675<<ASSIGN  10683>>ASSIGN
MINCLNT#
     10324**DCL     10528<<ASSIGN  10624<<ASSIGN  10624>>ASSIGN  10735>>ASSIGN  10737--CALL
MINFREE IN PROCEDURE CHAIN
     10601**ENTRY   10570--CALL
PL6.E3A0      #003=DAD$SCTX File=DAD$ROUTE.:E05TSI                               TUE 07/29/97 12:45 Page:212
MINSRVR#
     10325**DCL     10529<<ASSIGN  10621<<ASSIGN  10621>>ASSIGN  10735>>ASSIGN  10737--CALL
MIN_ IN PROCEDURE DISPLAY
     10651**DCL     10706<>CALL
NEEDHDR
     10326**DCL     10531<<ASSIGN  10677>>IF      10679<<ASSIGN
NEXT
     10552**LABEL   10541--CALLALT 10546--GOTO
OUT
     10265**DCL     10533<>CALL    10541<>CALL
P$
     10327**DCL     10504<>CALL    10505<>CALL    10505<>CALL    10506>>ASSIGN  10508<>CALL    10509<>CALL
     10509<>CALL    10510>>ASSIGN  10512<>CALL    10513<>CALL    10513<>CALL    10514>>ASSIGN  10516<>CALL
     10517<>CALL    10517<>CALL    10518>>ASSIGN  10521<>CALL    10522<>CALL    10522<>CALL    10523>>ASSIGN
     10558<<ASSIGN  10559<>CALL    10563<<ASSIGN  10564<>CALL    10569<<ASSIGN  10570<>CALL
P$ IN PROCEDURE CHAIN
     10582**DCL     10576--PROC    10585--ENTRY   10589>>IF      10593--ENTRY   10597>>IF      10601--ENTRY
     10609>>IF      10610<>CALL    10611>>IF      10614>>ASSIGN  10616<<ASSIGN  10617>>IF      10618<>CALL
     10619>>IF      10625>>ASSIGN  10628>>IF      10629<>CALL    10630>>IF      10633>>IF      10634<>CALL
P$ IN PROCEDURE DISPLAY
     10652**DCL     10642--PROC    10656--ENTRY   10662--ENTRY   10667>>ASSIGN  10671--ENTRY   10675>>ASSIGN
     10681--ASSIGN  10695>>CALL    10695>>CALL    10695>>CALL    10695>>CALL    10695>>CALL    10697>>CALL
     10697>>CALL    10706>>CALL    10706>>CALL
RPT
     10352**DCL     10678<>CALL
RPTHD00
     10419**DCL     10387--DCLINIT
RPTHD01
     10462**DCL     10434--DCLINIT
RPTTX00
     10395**DCL     10382--DCLINIT
RPTTX01
     10437**DCL     10427--DCLINIT
RPTTX02
     10480**DCL     10470--DCLINIT
RUNALL
PL6.E3A0      #003=DAD$SCTX File=DAD$ROUTE.:E05TSI                               TUE 07/29/97 12:45 Page:213
     10557**LABEL   10533--CALLALT 10536--GOTO
SCID IN PROCEDURE DISPLAY
     10653**DCL     10654--DCLINIT 10683<<ASSIGN
SCID_ IN PROCEDURE DISPLAY
     10654**DCL     10695<>CALL    10697<>CALL    10706<>CALL
SCTX
     10328**DCL     10329--DCLINIT 10605<<ASSIGN  10667<<ASSIGN  10682>>ASSIGN
SCTX_
     10329**DCL     10695<>CALL    10697<>CALL
TOP
     10220**DCL        10--PROC
TOP.NSUBLKS
     10232**DCL     10532>>IF      10539>>IF      10540>>DOINDEX
TOP.SUBLK$
     10253**DCL     10533>>CALL    10541>>CALL
TYPE
     10330**DCL     10331--DCLINIT 10588<<ASSIGN  10596<<ASSIGN  10604<<ASSIGN
TYPE_
     10331**DCL     10695<>CALL    10697<>CALL    10706<>CALL
X
     10332**DCL     10540<<DOINDEX 10541>>CALL    10721<<ASSIGN  10722--CALL    10736<<ASSIGN  10737--CALL
