VERSION E05

PL6.E3A0      #001=DAD$SPROC File=DAD$SPROC.:E05TSI                              TUE 07/29/97 12:46 Page:1
        1        1        /*M* DAD$SPROC - Display processors data. */
        2        2        /*T***********************************************************/
        3        3        /*T*                                                         */
        4        4        /*T* Copyright (c) Bull HN Information Systems Inc., 1997    */
        5        5        /*T*                                                         */
        6        6        /*T***********************************************************/
        7        7        /*X* DMR */
        8        8        DAD$SPROC: PROC (TOP);
        9        9        %INCLUDE XU_MACRO_C;
       10     3115        %PARSE$OUT (NAME=TOP,STCLASS="");
       11     3160
       12     3161        %INCLUDE DA_MAP_R;
       13     3191        %INCLUDE DA_FORMAT_C;
       14     3433        %INCLUDE DA_CMD_C;
       15     3782        %INCLUDE DA_MONSYM_C;
       16     3833        %INCLUDE B$P;
       17     3917
       18     3918
       19     3919    1   DCL P$ PTR;
       20     3920    1   DCL P_LASTAUTO UBIN WORD;               /* LAST ENTRY IN PROCESSOR TABLES */
       21     3921    1   DCL I UBIN WORD;
       22     3922    1   DCL PASS SBIN;
       23     3923    1   DCL X SBIN;
       24     3924    1   DCL COUNT SBIN;
       25     3925    1   DCL P$$ PTR BASED;
       26     3926    1   DCL SBINWORD SBIN BASED;
       27     3927
       28     3928    1   DCL DAA$WILDCOMP ENTRY(3) ALTRET;
       29     3929    1   DCL DAA$VALUE ENTRY(3) ALTRET;
       30     3930    1   DCL DAS$SDMONPTR ENTRY(2) ALTRET;
       31     3931    1   DCL DAM$MAP ENTRY(5) ALTRET;
       32     3932    1   DCL DAF$WRITE EPTR SYMREF;
       33     3933    1   DCL DAF$INIT ENTRY(1) ALTRET;
       34     3934        %SUB B$P = "P$->B$P";
       35     3935
       36     3936        %REPORT (TITLE='PROCESSOR TABLES',NAME=PROCRPT,
       37     3937                  TABDFLT=5,
PL6.E3A0      #001=DAD$SPROC File=DAD$SPROC.:E05TSI                              TUE 07/29/97 12:46 Page:2
       38     3938                  TRUNC=YES,
       39     3939                  HEADER=YES);
       40     4005        %HEADER (LAST=NO,TEXT=
       41     4006         '#   NAME              ACCOUNT  UC  PPC LNK FRQ  HPP    TPP    PVA  HVA  DSZ    TCB
              4006          DVA');
       42     4048        %HEADER (TEXT=
       43     4049         '--- ----------------- -------- --- --- --- ---- ------ ------ ---- ---- ------ ---
              4049        - ----');
       44     4091    1   DCL PROCFMT CHAR(0) CONSTANT INIT(
       45     4092    1    '%3D %17A %8A %3D %3D %3D %4D .%5ZO .%5ZO %4D %4D %6D %4D %4D');
       46     4093
       47     4094        %REPORT (TITLE='PROCESSOR SECONDARY TABLES',NAME=PROCRPT2,
       48     4095                  CONTENTS=NO,
       49     4096                  TABDFLT=5,
       50     4097                  TRUNC=YES,
       51     4098                  HEADER=YES);
       52     4164        %HEADER (LAST=NO,TEXT=
       53     4165        '#   NAME         MODTIME     CRTIME      XEQTIME  SRVTIME  FLGS    PRIV          SA
              4165              DADDR  ');
       54     4207        %HEADER (TEXT=
       55     4208        '--- ------------ ----------- ----------- -------- -------- ------- ------------- --
              4208        ----- -------');
       56     4250    1   DCL PROCFMT2 CHAR(0) CONSTANT INIT(
       57     4251    1   '%3D %12A %11..3.2U %11..3.2U %8..0.4U %8..0.4U .%6ZO .%12ZO .%6ZO .%6ZO');
       58     4252
       59     4253        %PARSE$OUT (NAME=OUT,STCLASS=BASED);
       60     4298        %PARSE$SYM (NAME=SYM,STCLASS=BASED);
       61     4336        %SUB NEVER="WHILE('0'B)";
       62     4337        %SUB FOREVER="WHILE('1'B)";
       63     4338        %EJECT;
PL6.E3A0      #001=DAD$SPROC File=DAD$SPROC.:E05TSI                              TUE 07/29/97 12:46 Page:3
       64     4339    1           CALL DAS$SDMONPTR(%M#P_LAST_AUTO,P$) ALTRET(ALT);
       65     4340    1           CALL DAM$MAP (P$,P$,,,DA_MONISDATA) ALTRET(ALT);
       66     4341    1           P_LASTAUTO = P$ -> SBINWORD;
       67     4342    1           CALL DAS$SDMONPTR(%M#B$P$,P$) ALTRET(ALT);
       68     4343    1           CALL DAM$MAP (P$,P$,,,DA_MONISDATA) ALTRET(ALT);
       69     4344    1           P$ = P$ ->P$$;
       70     4345    1           CALL DAM$MAP(P$,P$) ALTRET(ALT);
       71     4346    2           DO PASS=0 TO 1;
       72     4347    2              IF PASS=0 THEN CALL DAF$INIT(PROCRPT);
       73     4348    2              ELSE CALL DAF$INIT(PROCRPT2);
       74     4349    3              IF TOP.NSUBLKS=0 THEN DO;
       75     4350    4                 DO I=1 TO P_LASTAUTO;
       76     4351    4                    IF B$P.INSTDATE(I) ~= 0 THEN CALL DISPROC;
       77     4352    4                    END;
       78     4353    3                 END;
       79     4354    3              ELSE DO;
       80     4355    4                 DO X=0 TO TOP.NSUBLKS-1;
       81     4356    5                    DO CASE(TOP.SUBLK$(X)->OUT.CODE);
       82     4357    5                     CASE(%DA_SPROC_NUM);
       83     4358    5                       CALL DAA$VALUE(TOP.SUBLK$(X)->OUT.SUBLK$(0)->OUT,I);
       84     4359    5                       IF I<=P_LASTAUTO THEN CALL DISPROC;
       85     4360    5                     CASE(%DA_SPROC_NAME);
       86     4361    6                       DO I=1 TO P_LASTAUTO;
       87     4362    6                          COUNT=B$P.NAME.COUNT(I);
       88     4363    6                          CALL DAA$WILDCOMP(TOP.SUBLK$(X)->OUT.SUBLK$(0)->SYM.COUNT,
       89     4364    6                            B$P.NAME.TEXT(I),COUNT) ALTRET(NXTNAME);
       90     4365    6                          CALL DISPROC;
       91     4366    6   NXTNAME:               END;
       92     4367    5                     CASE(%DA_SPROC_ACCT);
       93     4368    6                       DO I=1 TO P_LASTAUTO;
       94     4369    6                          CALL DAA$WILDCOMP(TOP.SUBLK$(X)->OUT.SUBLK$(0)->SYM.COUNT,
       95     4370    6                            B$P.ACCT(I),8) ALTRET(NXTACCT);
       96     4371    6                          CALL DISPROC;
       97     4372    6   NXTACCT:               END;
       98     4373    5                     CASE(%DA_SPROC_NOTACCT);
       99     4374    6                       DO I=1 TO P_LASTAUTO;
      100     4375    6                          CALL DAA$WILDCOMP(TOP.SUBLK$(X)->OUT.SUBLK$(0)->SYM.COUNT,
PL6.E3A0      #001=DAD$SPROC File=DAD$SPROC.:E05TSI                              TUE 07/29/97 12:46 Page:4
      101     4376    6                            B$P.ACCT(I),8) ALTRET(NOTACCT);
      102     4377    7                          DO NEVER;
      103     4378    7   NOTACCT:                  IF B$P.INSTDATE(I) ~= 0 THEN CALL DISPROC;
      104     4379    7                             END;
      105     4380    6                          END;
      106     4381    5                     END;
      107     4382    4                    END;
      108     4383    3                 END;
      109     4384    2              END;
      110     4385    1   ALT:
      111     4386    1           RETURN;
      112     4387        %EJECT;
PL6.E3A0      #001=DAD$SPROC File=DAD$SPROC.:E05TSI                              TUE 07/29/97 12:46 Page:5
      113     4388    1   DISPROC: PROC;
      114     4389    3           IF PASS=0 THEN DO;
      115     4390    3              CALL DAF$WRITE(VECTOR(PROCFMT),
      116     4391    3                VECTOR(I),
      117     4392    3                VECTOR(SUBSTR(B$P.NAME.TEXT(I),0,17)),
      118     4393    3                VECTOR(B$P.ACCT(I)),
      119     4394    3                VECTOR(B$P.UC(I)),
      120     4395    3                VECTOR(B$P.PPC(I)),
      121     4396    3                VECTOR(B$P.LNK(I)),
      122     4397    3                VECTOR(B$P.FRQ(I)),
      123     4398    3                VECTOR(B$P.HPP(I)),
      124     4399    3                VECTOR(B$P.TPP(I)),
      125     4400    3                VECTOR(B$P.PVA(I)),
      126     4401    3                VECTOR(B$P.HVA(I)),
      127     4402    3                VECTOR(B$P.DSZ(I)),
      128     4403    3                VECTOR(B$P.TCBSZ(I)),
      129     4404    3                VECTOR(B$P.DVA(I)));
      130     4405    3              END;
      131     4406    3           ELSE DO;
      132     4407
      133     4408    3              CALL DAF$WRITE(VECTOR(PROCFMT2),
      134     4409    3                VECTOR(I),
      135     4410    3                VECTOR(SUBSTR(B$P.NAME.TEXT(I),0,12)),
      136     4411    3                VECTOR(B$P.INSTDATE(I)),
      137     4412    3                VECTOR(B$P.CRDATE(I)),
      138     4413    3                VECTOR(B$P.XEQTIME(I)),
      139     4414    3                VECTOR(B$P.SRVTIME(I)),
      140     4415    3                VECTOR(B$P.FLGS(I)),
      141     4416    3                VECTOR(B$P.PRIV(I)),
      142     4417    3                VECTOR(B$P.SA(I)),
      143     4418    3                VECTOR(B$P.DADDR(I)));
      144     4419    3              END;
      145     4420    2   END DISPROC;
      146     4421    1   END DAD$SPROC;
      147     4422        %EOD;

PL6.E3A0      #001=DAD$SPROC File=DAD$SPROC.:E05TSI                              TUE 07/29/97 12:46 Page:6
--  Include file information  --

   B$P.:E05TOU  cannot be made into a system file and is referenced.
   DA_MONSYM_C.:E05TOU  is referenced.
   DA_CMD_C.:E05TOU  is referenced.
   DA_FORMAT_C.:E05TOU  is referenced.
   DA_MAP_R.:E05TOU  cannot be made into a system file and is referenced.
   XU_MACRO_C.:E05TOU  is referenced.
   B$JIT_C.:E05TOU  was found in the system file and is never referenced.
   CP_6_C.:E05TOU  was found in the system file and is never referenced.
      No diagnostics issued in procedure DAD$SPROC.

   Procedure DAD$SPROC requires 528 words for executable code.
   Procedure DAD$SPROC requires 112 words of local(AUTO) storage.

PL6.E3A0      #001=DAD$SPROC File=DAD$SPROC.:E05TSI                              TUE 07/29/97 12:46 Page:7

 Object Unit name= DAD$SPROC                                  File name= DAD$SPROC.:E05TOU
 UTS= JUL 29 '97 12:46:46.72 TUE                              Compiler= PL-6/E31         Sev=      00
 SharedLib= :SHARED_SYSTEM                                    Alt SharedLib=


    ****  Control sections  ****

 Sect   Type Bound  Init  Size OctSiz  Section name(segment info)
    0   Data  even  none   139    213  DAD$SPROC
    1  RoData even  UTS     33     41  DAD$SPROC
    2   Proc  even  none   528   1020  DAD$SPROC
    3  RoData even  none    24     30  DAD$SPROC

    ****  Entry defs  ****

                              Check   Calling
                             calling  sequence
  Sect OctLoc Primary Altret sequence   type   Parms  Name
     2      0   yes            yes      Std        1  DAD$SPROC

  ****  Entry refs  ****

         Check        Calling
        calling       sequence
Altret sequence SRef   type   Args  Name
 yes     yes           Std       2 DAS$SDMONPTR
 yes     yes           Std       3 DAA$WILDCOMP
 yes     yes           Std       5 DAM$MAP
 yes     yes           Std       3 DAA$VALUE
 yes     yes           Std       1 DAF$INIT
                       nStd      0 X66_AUTO_1
                       Std       0 B_CONSPOOL_D
                       nStd      0 X66_ARET
PL6.E3A0      #001=DAD$SPROC File=DAD$SPROC.:E05TSI                              TUE 07/29/97 12:46 Page:8

  ****  Data refs  ****

  Flags:  r = read only, s = secondary
Flgs Name                             Flgs Name                             Flgs Name
     DA_MONISDATA                          DAF$WRITE                             B_VECTNIL

  ****  Segment refs  ****

  Flags:  r = read only, s = secondary
Flgs Name                             Flgs Name                             Flgs Name
     ISSID                                 NULLSID
PL6.E3A0      #001=DAD$SPROC File=DAD$SPROC.:E05TSI                              TUE 07/29/97 12:46 Page:9


        1        1        /*M* DAD$SPROC - Display processors data. */
        2        2        /*T***********************************************************/
        3        3        /*T*                                                         */
        4        4        /*T* Copyright (c) Bull HN Information Systems Inc., 1997    */
        5        5        /*T*                                                         */
        6        6        /*T***********************************************************/
        7        7        /*X* DMR */
        8        8        DAD$SPROC: PROC (TOP);

      8  2 000000   000000 700200 xent  DAD$SPROC    TSX0  ! X66_AUTO_1
         2 000001   000160 000001                    ZERO    112,1

        9        9        %INCLUDE XU_MACRO_C;
       10     3115        %PARSE$OUT (NAME=TOP,STCLASS="");
       11     3160
       12     3161        %INCLUDE DA_MAP_R;
       13     3191        %INCLUDE DA_FORMAT_C;
       14     3433        %INCLUDE DA_CMD_C;
       15     3782        %INCLUDE DA_MONSYM_C;
       16     3833        %INCLUDE B$P;
       17     3917
       18     3918
       19     3919    1   DCL P$ PTR;
       20     3920    1   DCL P_LASTAUTO UBIN WORD;               /* LAST ENTRY IN PROCESSOR TABLES */
       21     3921    1   DCL I UBIN WORD;
       22     3922    1   DCL PASS SBIN;
       23     3923    1   DCL X SBIN;
       24     3924    1   DCL COUNT SBIN;
       25     3925    1   DCL P$$ PTR BASED;
       26     3926    1   DCL SBINWORD SBIN BASED;
       27     3927
       28     3928    1   DCL DAA$WILDCOMP ENTRY(3) ALTRET;
       29     3929    1   DCL DAA$VALUE ENTRY(3) ALTRET;
       30     3930    1   DCL DAS$SDMONPTR ENTRY(2) ALTRET;
       31     3931    1   DCL DAM$MAP ENTRY(5) ALTRET;
       32     3932    1   DCL DAF$WRITE EPTR SYMREF;
PL6.E3A0      #001=DAD$SPROC File=DAD$SPROC.:E05TSI                              TUE 07/29/97 12:46 Page:10
       33     3933    1   DCL DAF$INIT ENTRY(1) ALTRET;
       34     3934        %SUB B$P = "P$->B$P";
       35     3935
       36     3936        %REPORT (TITLE='PROCESSOR TABLES',NAME=PROCRPT,
       37     3937                  TABDFLT=5,
       38     3938                  TRUNC=YES,
       39     3939                  HEADER=YES);
       40     4005        %HEADER (LAST=NO,TEXT=
       41     4006         '#   NAME              ACCOUNT  UC  PPC LNK FRQ  HPP    TPP    PVA  HVA  DSZ   TCB
              4006          DVA');
       42     4048        %HEADER (TEXT=
       43     4049        '--- ----------------- -------- --- --- --- ---- ------ ------ ---- ---- ------ ---
              4049        - ----');
       44     4091    1   DCL PROCFMT CHAR(0) CONSTANT INIT(
       45     4092    1    '%3D %17A %8A %3D %3D %3D %4D .%5ZO .%5ZO %4D %4D %6D %4D %4D');
       46     4093
       47     4094        %REPORT (TITLE='PROCESSOR SECONDARY TABLES',NAME=PROCRPT2,
       48     4095                  CONTENTS=NO,
       49     4096                  TABDFLT=5,
       50     4097                  TRUNC=YES,
       51     4098                  HEADER=YES);
       52     4164        %HEADER (LAST=NO,TEXT=
       53     4165        '#   NAME         MODTIME     CRTIME      XEQTIME  SRVTIME  FLGS    PRIV         SA
              4165              DADDR  ');
       54     4207        %HEADER (TEXT=
       55     4208       '--- ------------ ----------- ----------- -------- -------- ------- ------------- --
              4208        ----- -------');
       56     4250    1   DCL PROCFMT2 CHAR(0) CONSTANT INIT(
       57     4251    1   '%3D %12A %11..3.2U %11..3.2U %8..0.4U %8..0.4U .%6ZO .%12ZO .%6ZO .%6ZO');
       58     4252
       59     4253        %PARSE$OUT (NAME=OUT,STCLASS=BASED);
       60     4298        %PARSE$SYM (NAME=SYM,STCLASS=BASED);
       61     4336        %SUB NEVER="WHILE('0'B)";
       62     4337        %SUB FOREVER="WHILE('1'B)";
       63     4338        %EJECT;
PL6.E3A0      #001=DAD$SPROC File=DAD$SPROC.:E05TSI                              TUE 07/29/97 12:46 Page:11
       64     4339    1           CALL DAS$SDMONPTR(%M#P_LAST_AUTO,P$) ALTRET(ALT);

   4339  2 000002   200004 630500                    EPPR0   P$,,AUTO
         2 000003   200015 450500                    STP0    COUNT+4,,AUTO
         2 000004   000000 236000 3                  LDQ     0
         2 000005   200014 756100                    STQ     COUNT+3,,AUTO
         2 000006   200014 630500                    EPPR0   COUNT+3,,AUTO
         2 000007   000020 631400 xsym               EPPR1   B_VECTNIL+16
         2 000010   000000 701000 xent               TSX1    DAS$SDMONPTR
         2 000011   000342 702000 2                  TSX2    ALT

       65     4340    1           CALL DAM$MAP (P$,P$,,,DA_MONISDATA) ALTRET(ALT);

   4340  2 000012   000001 236000 3                  LDQ     1
         2 000013   200020 756100                    STQ     COUNT+7,,AUTO
         2 000014   000001 236000 xsym               LDQ     B_VECTNIL+1
         2 000015   000001 235000 xsym               LDA     B_VECTNIL+1
         2 000016   200016 757100                    STAQ    COUNT+5,,AUTO
         2 000017   200004 630500                    EPPR0   P$,,AUTO
         2 000020   200015 450500                    STP0    COUNT+4,,AUTO
         2 000021   200004 631500                    EPPR1   P$,,AUTO
         2 000022   200014 451500                    STP1    COUNT+3,,AUTO
         2 000023   200014 630500                    EPPR0   COUNT+3,,AUTO
         2 000024   000023 631400 xsym               EPPR1   B_VECTNIL+19
         2 000025   000000 701000 xent               TSX1    DAM$MAP
         2 000026   000342 702000 2                  TSX2    ALT

       66     4341    1           P_LASTAUTO = P$ -> SBINWORD;

   4341  2 000027   200004 470500                    LDP0    P$,,AUTO
         2 000030   000000 235100                    LDA     0,,PR0
         2 000031   200005 755100                    STA     P_LASTAUTO,,AUTO

       67     4342    1           CALL DAS$SDMONPTR(%M#B$P$,P$) ALTRET(ALT);

   4342  2 000032   200004 631500                    EPPR1   P$,,AUTO
         2 000033   200015 451500                    STP1    COUNT+4,,AUTO
PL6.E3A0      #001=DAD$SPROC File=DAD$SPROC.:E05TSI                              TUE 07/29/97 12:46 Page:12
         2 000034   000002 236000 3                  LDQ     2
         2 000035   200014 756100                    STQ     COUNT+3,,AUTO
         2 000036   200014 630500                    EPPR0   COUNT+3,,AUTO
         2 000037   000020 631400 xsym               EPPR1   B_VECTNIL+16
         2 000040   000000 701000 xent               TSX1    DAS$SDMONPTR
         2 000041   000342 702000 2                  TSX2    ALT

       68     4343    1           CALL DAM$MAP (P$,P$,,,DA_MONISDATA) ALTRET(ALT);

   4343  2 000042   000001 236000 3                  LDQ     1
         2 000043   200020 756100                    STQ     COUNT+7,,AUTO
         2 000044   000001 236000 xsym               LDQ     B_VECTNIL+1
         2 000045   000001 235000 xsym               LDA     B_VECTNIL+1
         2 000046   200016 757100                    STAQ    COUNT+5,,AUTO
         2 000047   200004 630500                    EPPR0   P$,,AUTO
         2 000050   200015 450500                    STP0    COUNT+4,,AUTO
         2 000051   200004 631500                    EPPR1   P$,,AUTO
         2 000052   200014 451500                    STP1    COUNT+3,,AUTO
         2 000053   200014 630500                    EPPR0   COUNT+3,,AUTO
         2 000054   000023 631400 xsym               EPPR1   B_VECTNIL+19
         2 000055   000000 701000 xent               TSX1    DAM$MAP
         2 000056   000342 702000 2                  TSX2    ALT

       69     4344    1           P$ = P$ ->P$$;

   4344  2 000057   200004 470500                    LDP0    P$,,AUTO
         2 000060   000000 236100                    LDQ     0,,PR0
         2 000061   200004 756100                    STQ     P$,,AUTO

       70     4345    1           CALL DAM$MAP(P$,P$) ALTRET(ALT);

   4345  2 000062   200004 630500                    EPPR0   P$,,AUTO
         2 000063   200015 450500                    STP0    COUNT+4,,AUTO
         2 000064   200004 631500                    EPPR1   P$,,AUTO
         2 000065   200014 451500                    STP1    COUNT+3,,AUTO
         2 000066   200014 630500                    EPPR0   COUNT+3,,AUTO
         2 000067   000020 631400 xsym               EPPR1   B_VECTNIL+16
PL6.E3A0      #001=DAD$SPROC File=DAD$SPROC.:E05TSI                              TUE 07/29/97 12:46 Page:13
         2 000070   000000 701000 xent               TSX1    DAM$MAP
         2 000071   000342 702000 2                  TSX2    ALT

       71     4346    2           DO PASS=0 TO 1;

   4346  2 000072   200007 450100                    STZ     PASS,,AUTO

       72     4347    2              IF PASS=0 THEN CALL DAF$INIT(PROCRPT);

   4347  2 000073   200007 235100                    LDA     PASS,,AUTO
         2 000074   000102 601000 2                  TNZ     s:4348

   4347  2 000075   000003 630400 3                  EPPR0   3
         2 000076   000017 631400 xsym               EPPR1   B_VECTNIL+15
         2 000077   000000 701000 xent               TSX1    DAF$INIT
         2 000100   000000 011000                    NOP     0
         2 000101   000106 710000 2                  TRA     s:4349

       73     4348    2              ELSE CALL DAF$INIT(PROCRPT2);

   4348  2 000102   000004 630400 3                  EPPR0   4
         2 000103   000017 631400 xsym               EPPR1   B_VECTNIL+15
         2 000104   000000 701000 xent               TSX1    DAF$INIT
         2 000105   000000 011000                    NOP     0

       74     4349    3              IF TOP.NSUBLKS=0 THEN DO;

   4349  2 000106   200003 470500                    LDP0    @TOP,,AUTO
         2 000107   000001 220100                    LDX0    1,,PR0
         2 000110   000132 601000 2                  TNZ     s:4355

       75     4350    4                 DO I=1 TO P_LASTAUTO;

   4350  2 000111   000001 235007                    LDA     1,DL
         2 000112   200006 755100                    STA     I,,AUTO
         2 000113   000126 710000 2                  TRA     s:4352+3

PL6.E3A0      #001=DAD$SPROC File=DAD$SPROC.:E05TSI                              TUE 07/29/97 12:46 Page:14
       76     4351    4                    IF B$P.INSTDATE(I) ~= 0 THEN CALL DISPROC;

   4351  2 000114   200006 236100                    LDQ     I,,AUTO
         2 000115   000042 402007                    MPY     34,DL
         2 000116   200004 470500                    LDP0    P$,,AUTO
         2 000117   000005 235106                    LDA     5,QL,PR0
         2 000120   000123 600000 2                  TZE     s:4352

   4351  2 000121   000343 701000 2                  TSX1    DISPROC
         2 000122   000000 011000                    NOP     0

       77     4352    4                    END;

   4352  2 000123   200006 235100                    LDA     I,,AUTO
         2 000124   000001 035007                    ADLA    1,DL
         2 000125   200006 755100                    STA     I,,AUTO
         2 000126   200005 236100                    LDQ     P_LASTAUTO,,AUTO
         2 000127   200006 116100                    CMPQ    I,,AUTO
         2 000130   000114 603000 2                  TRC     s:4351

       78     4353    3                 END;

   4353  2 000131   000336 710000 2                  TRA     s:4384

       79     4354    3              ELSE DO;

       80     4355    4                 DO X=0 TO TOP.NSUBLKS-1;

   4355  2 000132   200010 450100                    STZ     X,,AUTO
         2 000133   000331 710000 2                  TRA     s:4382+1

       81     4356    5                    DO CASE(TOP.SUBLK$(X)->OUT.CODE);

   4356  2 000134   200003 470500                    LDP0    @TOP,,AUTO
         2 000135   200010 720100                    LXL0    X,,AUTO
         2 000136   000003 471510                    LDP1    3,X0,PR0
         2 000137   100000 721100                    LXL1    0,,PR1
PL6.E3A0      #001=DAD$SPROC File=DAD$SPROC.:E05TSI                              TUE 07/29/97 12:46 Page:15
         2 000140   000005 101003                    CMPX1   5,DU
         2 000141   000143 602011 2                  TNC     s:4356+7,X1
         2 000142   000330 710000 2                  TRA     s:4382
         2 000143   000330 710000 2                  TRA     s:4382
         2 000144   000150 710000 2                  TRA     s:4358
         2 000145   000166 710000 2                  TRA     s:4361
         2 000146   000231 710000 2                  TRA     s:4368
         2 000147   000266 710000 2                  TRA     s:4374

       82     4357    5                     CASE(%DA_SPROC_NUM);

       83     4358    5                       CALL DAA$VALUE(TOP.SUBLK$(X)->OUT.SUBLK$(0)->OUT,I);

   4358  2 000150   100003 473500                    LDP3    3,,PR1
         2 000151   200006 634500                    EPPR4   I,,AUTO
         2 000152   200015 454500                    STP4    COUNT+4,,AUTO
         2 000153   200014 453500                    STP3    COUNT+3,,AUTO
         2 000154   200014 630500                    EPPR0   COUNT+3,,AUTO
         2 000155   000020 631400 xsym               EPPR1   B_VECTNIL+16
         2 000156   000000 701000 xent               TSX1    DAA$VALUE
         2 000157   000000 011000                    NOP     0

       84     4359    5                       IF I<=P_LASTAUTO THEN CALL DISPROC;

   4359  2 000160   200005 236100                    LDQ     P_LASTAUTO,,AUTO
         2 000161   200006 116100                    CMPQ    I,,AUTO
         2 000162   000330 602000 2                  TNC     s:4382

   4359  2 000163   000343 701000 2                  TSX1    DISPROC
         2 000164   000000 011000                    NOP     0
         2 000165   000330 710000 2                  TRA     s:4382

       85     4360    5                     CASE(%DA_SPROC_NAME);

       86     4361    6                       DO I=1 TO P_LASTAUTO;

   4361  2 000166   000001 235007                    LDA     1,DL
PL6.E3A0      #001=DAD$SPROC File=DAD$SPROC.:E05TSI                              TUE 07/29/97 12:46 Page:16
         2 000167   200006 755100                    STA     I,,AUTO
         2 000170   000225 710000 2                  TRA     NXTNAME+3

       87     4362    6                          COUNT=B$P.NAME.COUNT(I);

   4362  2 000171   200006 236100                    LDQ     I,,AUTO
         2 000172   000042 402007                    MPY     34,DL
         2 000173   200004 470500                    LDP0    P$,,AUTO
         2 000174   000032 236106                    LDQ     26,QL,PR0
         2 000175   000033 772000                    QRL     27
         2 000176   200011 756100                    STQ     COUNT,,AUTO

       88     4363    6                          CALL DAA$WILDCOMP(TOP.SUBLK$(X)->OUT.SUBLK$(0)->SYM.COUNT,

   4363  2 000177   200003 471500                    LDP1    @TOP,,AUTO
         2 000200   200010 720100                    LXL0    X,,AUTO
         2 000201   100003 473510                    LDP3    3,X0,PR1
         2 000202   300003 474500                    LDP4    3,,PR3
         2 000203   200011 635500                    EPPR5   COUNT,,AUTO
         2 000204   200016 455500                    STP5    COUNT+5,,AUTO
         2 000205   200006 236100                    LDQ     I,,AUTO
         2 000206   000042 402003                    MPY     34,DU
         2 000207   000005 036000 3                  ADLQ    5
         2 000210   200004 036100                    ADLQ    P$,,AUTO
         2 000211   200015 756100                    STQ     COUNT+4,,AUTO
         2 000212   400004 633500                    EPPR3   4,,PR4
         2 000213   200014 453500                    STP3    COUNT+3,,AUTO
         2 000214   200014 630500                    EPPR0   COUNT+3,,AUTO
         2 000215   000021 631400 xsym               EPPR1   B_VECTNIL+17
         2 000216   000000 701000 xent               TSX1    DAA$WILDCOMP
         2 000217   000222 702000 2                  TSX2    NXTNAME

       89     4364    6                            B$P.NAME.TEXT(I),COUNT) ALTRET(NXTNAME);
       90     4365    6                          CALL DISPROC;

   4365  2 000220   000343 701000 2                  TSX1    DISPROC
         2 000221   000000 011000                    NOP     0
PL6.E3A0      #001=DAD$SPROC File=DAD$SPROC.:E05TSI                              TUE 07/29/97 12:46 Page:17

       91     4366    6   NXTNAME:               END;

   4366  2 000222   200006 235100       NXTNAME      LDA     I,,AUTO
         2 000223   000001 035007                    ADLA    1,DL
         2 000224   200006 755100                    STA     I,,AUTO
         2 000225   200005 236100                    LDQ     P_LASTAUTO,,AUTO
         2 000226   200006 116100                    CMPQ    I,,AUTO
         2 000227   000171 603000 2                  TRC     s:4362
         2 000230   000330 710000 2                  TRA     s:4382

       92     4367    5                     CASE(%DA_SPROC_ACCT);

       93     4368    6                       DO I=1 TO P_LASTAUTO;

   4368  2 000231   000001 235007                    LDA     1,DL
         2 000232   200006 755100                    STA     I,,AUTO
         2 000233   000262 710000 2                  TRA     NXTACCT+3

       94     4369    6                          CALL DAA$WILDCOMP(TOP.SUBLK$(X)->OUT.SUBLK$(0)->SYM.COUNT,

   4369  2 000234   200003 470500                    LDP0    @TOP,,AUTO
         2 000235   200010 720100                    LXL0    X,,AUTO
         2 000236   000003 471510                    LDP1    3,X0,PR0
         2 000237   100003 473500                    LDP3    3,,PR1
         2 000240   000006 236000 3                  LDQ     6
         2 000241   200016 756100                    STQ     COUNT+5,,AUTO
         2 000242   200006 236100                    LDQ     I,,AUTO
         2 000243   000042 402003                    MPY     34,DU
         2 000244   000030 036003                    ADLQ    24,DU
         2 000245   200004 036100                    ADLQ    P$,,AUTO
         2 000246   200015 756100                    STQ     COUNT+4,,AUTO
         2 000247   300004 631500                    EPPR1   4,,PR3
         2 000250   200014 451500                    STP1    COUNT+3,,AUTO
         2 000251   200014 630500                    EPPR0   COUNT+3,,AUTO
         2 000252   000021 631400 xsym               EPPR1   B_VECTNIL+17
         2 000253   000000 701000 xent               TSX1    DAA$WILDCOMP
PL6.E3A0      #001=DAD$SPROC File=DAD$SPROC.:E05TSI                              TUE 07/29/97 12:46 Page:18
         2 000254   000257 702000 2                  TSX2    NXTACCT

       95     4370    6                            B$P.ACCT(I),8) ALTRET(NXTACCT);
       96     4371    6                          CALL DISPROC;

   4371  2 000255   000343 701000 2                  TSX1    DISPROC
         2 000256   000000 011000                    NOP     0

       97     4372    6   NXTACCT:               END;

   4372  2 000257   200006 235100       NXTACCT      LDA     I,,AUTO
         2 000260   000001 035007                    ADLA    1,DL
         2 000261   200006 755100                    STA     I,,AUTO
         2 000262   200005 236100                    LDQ     P_LASTAUTO,,AUTO
         2 000263   200006 116100                    CMPQ    I,,AUTO
         2 000264   000234 603000 2                  TRC     s:4369
         2 000265   000330 710000 2                  TRA     s:4382

       98     4373    5                     CASE(%DA_SPROC_NOTACCT);

       99     4374    6                       DO I=1 TO P_LASTAUTO;

   4374  2 000266   000001 235007                    LDA     1,DL
         2 000267   200006 755100                    STA     I,,AUTO
         2 000270   000325 710000 2                  TRA     s:4380+3

      100     4375    6                          CALL DAA$WILDCOMP(TOP.SUBLK$(X)->OUT.SUBLK$(0)->SYM.COUNT,

   4375  2 000271   200003 470500                    LDP0    @TOP,,AUTO
         2 000272   200010 720100                    LXL0    X,,AUTO
         2 000273   000003 471510                    LDP1    3,X0,PR0
         2 000274   100003 473500                    LDP3    3,,PR1
         2 000275   000006 236000 3                  LDQ     6
         2 000276   200016 756100                    STQ     COUNT+5,,AUTO
         2 000277   200006 236100                    LDQ     I,,AUTO
         2 000300   000042 402003                    MPY     34,DU
         2 000301   000030 036003                    ADLQ    24,DU
PL6.E3A0      #001=DAD$SPROC File=DAD$SPROC.:E05TSI                              TUE 07/29/97 12:46 Page:19
         2 000302   200004 036100                    ADLQ    P$,,AUTO
         2 000303   200015 756100                    STQ     COUNT+4,,AUTO
         2 000304   300004 631500                    EPPR1   4,,PR3
         2 000305   200014 451500                    STP1    COUNT+3,,AUTO
         2 000306   200014 630500                    EPPR0   COUNT+3,,AUTO
         2 000307   000021 631400 xsym               EPPR1   B_VECTNIL+17
         2 000310   000000 701000 xent               TSX1    DAA$WILDCOMP
         2 000311   000313 702000 2                  TSX2    NOTACCT

      101     4376    6                            B$P.ACCT(I),8) ALTRET(NOTACCT);
      102     4377    7                          DO NEVER;

   4377  2 000312   000322 710000 2                  TRA     s:4380

      103     4378    7   NOTACCT:                  IF B$P.INSTDATE(I) ~= 0 THEN CALL DISPROC;

   4378  2 000313   200006 236100       NOTACCT      LDQ     I,,AUTO
         2 000314   000042 402007                    MPY     34,DL
         2 000315   200004 470500                    LDP0    P$,,AUTO
         2 000316   000005 235106                    LDA     5,QL,PR0
         2 000317   000322 600000 2                  TZE     s:4380

   4378  2 000320   000343 701000 2                  TSX1    DISPROC
         2 000321   000000 011000                    NOP     0

      104     4379    7                             END;

      105     4380    6                          END;

   4380  2 000322   200006 235100                    LDA     I,,AUTO
         2 000323   000001 035007                    ADLA    1,DL
         2 000324   200006 755100                    STA     I,,AUTO
         2 000325   200005 236100                    LDQ     P_LASTAUTO,,AUTO
         2 000326   200006 116100                    CMPQ    I,,AUTO
         2 000327   000271 603000 2                  TRC     s:4375

      106     4381    5                     END;
PL6.E3A0      #001=DAD$SPROC File=DAD$SPROC.:E05TSI                              TUE 07/29/97 12:46 Page:20

      107     4382    4                    END;

   4382  2 000330   200010 054100                    AOS     X,,AUTO
         2 000331   200003 470500                    LDP0    @TOP,,AUTO
         2 000332   000001 236100                    LDQ     1,,PR0
         2 000333   000022 772000                    QRL     18
         2 000334   200010 116100                    CMPQ    X,,AUTO
         2 000335   000134 605400 2                  TPNZ    s:4356

      108     4383    3                 END;

      109     4384    2              END;

   4384  2 000336   200007 054100                    AOS     PASS,,AUTO
         2 000337   200007 235100                    LDA     PASS,,AUTO
         2 000340   000001 115007                    CMPA    1,DL
         2 000341   000073 604400 2                  TMOZ    s:4347

      110     4385    1   ALT:
      111     4386    1           RETURN;

   4386  2 000342   000000 702200 xent  ALT          TSX2  ! X66_ARET

      112     4387        %EJECT;
PL6.E3A0      #001=DAD$SPROC File=DAD$SPROC.:E05TSI                              TUE 07/29/97 12:46 Page:21
      113     4388    1   DISPROC: PROC;

   4388  2 000343   200012 741300       DISPROC      STX1  ! COUNT+1,,AUTO

      114     4389    3           IF PASS=0 THEN DO;

   4389  2 000344   200007 235100                    LDA     PASS,,AUTO
         2 000345   000622 601000 2                  TNZ     s:4416

      115     4390    3              CALL DAF$WRITE(VECTOR(PROCFMT),
      116     4391    3                VECTOR(I),
      117     4392    3                VECTOR(SUBSTR(B$P.NAME.TEXT(I),0,17)),
      118     4393    3                VECTOR(B$P.ACCT(I)),
      119     4394    3                VECTOR(B$P.UC(I)),
      120     4395    3                VECTOR(B$P.PPC(I)),
      121     4396    3                VECTOR(B$P.LNK(I)),
      122     4397    3                VECTOR(B$P.FRQ(I)),
      123     4398    3                VECTOR(B$P.HPP(I)),
      124     4399    3                VECTOR(B$P.TPP(I)),
      125     4400    3                VECTOR(B$P.PVA(I)),
      126     4401    3                VECTOR(B$P.HVA(I)),
      127     4402    3                VECTOR(B$P.DSZ(I)),
      128     4403    3                VECTOR(B$P.TCBSZ(I)),

   4403  2 000346   777640 235007                    LDA     -96,DL
         2 000347   200014 452500                    STP2    COUNT+3,,AUTO
         2 000350   200014 236100                    LDQ     COUNT+3,,AUTO
         2 000351   000006 036003                    ADLQ    6,DU
         2 000352   200016 757100                    STAQ    COUNT+5,,AUTO
         2 000353   000012 235000 3                  LDA     10
         2 000354   200006 236100                    LDQ     I,,AUTO
         2 000355   200020 755100                    STA     COUNT+7,,AUTO
         2 000356   000042 402003                    MPY     34,DU
         2 000357   000005 036000 3                  ADLQ    5
         2 000360   200004 036100                    ADLQ    P$,,AUTO
         2 000361   200020 235100                    LDA     COUNT+7,,AUTO
         2 000362   200022 757100                    STAQ    COUNT+9,,AUTO
PL6.E3A0      #001=DAD$SPROC File=DAD$SPROC.:E05TSI                              TUE 07/29/97 12:46 Page:22
         2 000363   000013 235000 3                  LDA     11
         2 000364   200006 236100                    LDQ     I,,AUTO
         2 000365   200024 755100                    STA     COUNT+11,,AUTO
         2 000366   000042 402003                    MPY     34,DU
         2 000367   000030 036003                    ADLQ    24,DU
         2 000370   200004 036100                    ADLQ    P$,,AUTO
         2 000371   200024 235100                    LDA     COUNT+11,,AUTO
         2 000372   200026 757100                    STAQ    COUNT+13,,AUTO
         2 000373   777640 235007                    LDA     -96,DL
         2 000374   200006 236100                    LDQ     I,,AUTO
         2 000375   200030 755100                    STA     COUNT+15,,AUTO
         2 000376   000042 402003                    MPY     34,DU
         2 000377   200004 036100                    ADLQ    P$,,AUTO
         2 000400   200030 235100                    LDA     COUNT+15,,AUTO
         2 000401   200032 757100                    STAQ    COUNT+17,,AUTO
         2 000402   777640 235007                    LDA     -96,DL
         2 000403   200006 236100                    LDQ     I,,AUTO
         2 000404   200034 755100                    STA     COUNT+19,,AUTO
         2 000405   000042 402003                    MPY     34,DU
         2 000406   000003 036003                    ADLQ    3,DU
         2 000407   200004 036100                    ADLQ    P$,,AUTO
         2 000410   200034 235100                    LDA     COUNT+19,,AUTO
         2 000411   200036 757100                    STAQ    COUNT+21,,AUTO
         2 000412   377640 235007                    LDA     130976,DL
         2 000413   200006 236100                    LDQ     I,,AUTO
         2 000414   200040 755100                    STA     COUNT+23,,AUTO
         2 000415   000042 402003                    MPY     34,DU
         2 000416   000014 036000 3                  ADLQ    12
         2 000417   200004 036100                    ADLQ    P$,,AUTO
         2 000420   200040 235100                    LDA     COUNT+23,,AUTO
         2 000421   200042 757100                    STAQ    COUNT+25,,AUTO
         2 000422   777640 235007                    LDA     -96,DL
         2 000423   200006 236100                    LDQ     I,,AUTO
         2 000424   200044 755100                    STA     COUNT+27,,AUTO
         2 000425   000042 402003                    MPY     34,DU
         2 000426   000001 036003                    ADLQ    1,DU
         2 000427   200004 036100                    ADLQ    P$,,AUTO
PL6.E3A0      #001=DAD$SPROC File=DAD$SPROC.:E05TSI                              TUE 07/29/97 12:46 Page:23
         2 000430   200044 235100                    LDA     COUNT+27,,AUTO
         2 000431   200046 757100                    STAQ    COUNT+29,,AUTO
         2 000432   777640 235007                    LDA     -96,DL
         2 000433   200006 236100                    LDQ     I,,AUTO
         2 000434   200050 755100                    STA     COUNT+31,,AUTO
         2 000435   000042 402003                    MPY     34,DU
         2 000436   000002 036003                    ADLQ    2,DU
         2 000437   200004 036100                    ADLQ    P$,,AUTO
         2 000440   200050 235100                    LDA     COUNT+31,,AUTO
         2 000441   200052 757100                    STAQ    COUNT+33,,AUTO
         2 000442   377640 235007                    LDA     130976,DL
         2 000443   200006 236100                    LDQ     I,,AUTO
         2 000444   200054 755100                    STA     COUNT+35,,AUTO
         2 000445   000042 402003                    MPY     34,DU
         2 000446   000023 036003                    ADLQ    19,DU
         2 000447   200004 036100                    ADLQ    P$,,AUTO
         2 000450   200054 235100                    LDA     COUNT+35,,AUTO
         2 000451   200056 757100                    STAQ    COUNT+37,,AUTO
         2 000452   377640 235007                    LDA     130976,DL
         2 000453   200006 236100                    LDQ     I,,AUTO
         2 000454   200060 755100                    STA     COUNT+39,,AUTO
         2 000455   000042 402003                    MPY     34,DU
         2 000456   000025 036003                    ADLQ    21,DU
         2 000457   200004 036100                    ADLQ    P$,,AUTO
         2 000460   200060 235100                    LDA     COUNT+39,,AUTO
         2 000461   200062 757100                    STAQ    COUNT+41,,AUTO
         2 000462   377640 235007                    LDA     130976,DL
         2 000463   200006 236100                    LDQ     I,,AUTO
         2 000464   200064 755100                    STA     COUNT+43,,AUTO
         2 000465   000042 402003                    MPY     34,DU
         2 000466   000026 036003                    ADLQ    22,DU
         2 000467   200004 036100                    ADLQ    P$,,AUTO
         2 000470   200064 235100                    LDA     COUNT+43,,AUTO
         2 000471   200066 757100                    STAQ    COUNT+45,,AUTO
         2 000472   377640 235007                    LDA     130976,DL
         2 000473   200006 236100                    LDQ     I,,AUTO
         2 000474   200070 755100                    STA     COUNT+47,,AUTO
PL6.E3A0      #001=DAD$SPROC File=DAD$SPROC.:E05TSI                              TUE 07/29/97 12:46 Page:24
         2 000475   000042 402003                    MPY     34,DU
         2 000476   000015 036000 3                  ADLQ    13
         2 000477   200004 036100                    ADLQ    P$,,AUTO
         2 000500   200070 235100                    LDA     COUNT+47,,AUTO
         2 000501   200072 757100                    STAQ    COUNT+49,,AUTO
         2 000502   377640 235007                    LDA     130976,DL
         2 000503   200006 236100                    LDQ     I,,AUTO
         2 000504   200074 755100                    STA     COUNT+51,,AUTO
         2 000505   000042 402003                    MPY     34,DU
         2 000506   000016 036000 3                  ADLQ    14
         2 000507   200004 036100                    ADLQ    P$,,AUTO
         2 000510   200074 235100                    LDA     COUNT+51,,AUTO
         2 000511   200076 757100                    STAQ    COUNT+53,,AUTO
         2 000512   377640 235007                    LDA     130976,DL
         2 000513   200006 236100                    LDQ     I,,AUTO
         2 000514   200100 755100                    STA     COUNT+55,,AUTO
         2 000515   000042 402003                    MPY     34,DU
         2 000516   000017 036000 3                  ADLQ    15
         2 000517   200004 036100                    ADLQ    P$,,AUTO
         2 000520   200100 235100                    LDA     COUNT+55,,AUTO
         2 000521   200104 757100                    STAQ    COUNT+59,,AUTO
         2 000522   200016 237100                    LDAQ    COUNT+5,,AUTO
         2 000523   200102 757100                    STAQ    COUNT+57,,AUTO
         2 000524   200022 237100                    LDAQ    COUNT+9,,AUTO
         2 000525   200106 757100                    STAQ    COUNT+61,,AUTO
         2 000526   200026 237100                    LDAQ    COUNT+13,,AUTO
         2 000527   200110 757100                    STAQ    COUNT+63,,AUTO
         2 000530   200032 237100                    LDAQ    COUNT+17,,AUTO
         2 000531   200112 757100                    STAQ    COUNT+65,,AUTO
         2 000532   200036 237100                    LDAQ    COUNT+21,,AUTO
         2 000533   200114 757100                    STAQ    COUNT+67,,AUTO
         2 000534   200042 237100                    LDAQ    COUNT+25,,AUTO
         2 000535   200116 757100                    STAQ    COUNT+69,,AUTO
         2 000536   200046 237100                    LDAQ    COUNT+29,,AUTO
         2 000537   200120 757100                    STAQ    COUNT+71,,AUTO
         2 000540   200052 237100                    LDAQ    COUNT+33,,AUTO
         2 000541   200122 757100                    STAQ    COUNT+73,,AUTO
PL6.E3A0      #001=DAD$SPROC File=DAD$SPROC.:E05TSI                              TUE 07/29/97 12:46 Page:25
         2 000542   200056 237100                    LDAQ    COUNT+37,,AUTO
         2 000543   200124 757100                    STAQ    COUNT+75,,AUTO
         2 000544   200062 237100                    LDAQ    COUNT+41,,AUTO
         2 000545   200126 757100                    STAQ    COUNT+77,,AUTO
         2 000546   200066 237100                    LDAQ    COUNT+45,,AUTO
         2 000547   200130 757100                    STAQ    COUNT+79,,AUTO
         2 000550   200072 237100                    LDAQ    COUNT+49,,AUTO
         2 000551   200132 757100                    STAQ    COUNT+81,,AUTO
         2 000552   200076 237100                    LDAQ    COUNT+53,,AUTO
         2 000553   200134 757100                    STAQ    COUNT+83,,AUTO
         2 000554   200104 237100                    LDAQ    COUNT+59,,AUTO
         2 000555   200136 757100                    STAQ    COUNT+85,,AUTO
         2 000556   200136 630500                    EPPR0   COUNT+85,,AUTO
         2 000557   200156 450500                    STP0    COUNT+101,,AUTO
         2 000560   200134 631500                    EPPR1   COUNT+83,,AUTO
         2 000561   200155 451500                    STP1    COUNT+100,,AUTO
         2 000562   200132 633500                    EPPR3   COUNT+81,,AUTO
         2 000563   200154 453500                    STP3    COUNT+99,,AUTO
         2 000564   200130 634500                    EPPR4   COUNT+79,,AUTO
         2 000565   200153 454500                    STP4    COUNT+98,,AUTO
         2 000566   200126 635500                    EPPR5   COUNT+77,,AUTO
         2 000567   200152 455500                    STP5    COUNT+97,,AUTO
         2 000570   200124 636500                    EPPR6   COUNT+75,,AUTO
         2 000571   200151 456500                    STP6    COUNT+96,,AUTO
         2 000572   200122 637500                    EPPR7   COUNT+73,,AUTO
         2 000573   200150 457500                    STP7    COUNT+95,,AUTO
         2 000574   200120 630500                    EPPR0   COUNT+71,,AUTO
         2 000575   200147 450500                    STP0    COUNT+94,,AUTO
         2 000576   200116 630500                    EPPR0   COUNT+69,,AUTO
         2 000577   200146 450500                    STP0    COUNT+93,,AUTO
         2 000600   200114 630500                    EPPR0   COUNT+67,,AUTO
         2 000601   200145 450500                    STP0    COUNT+92,,AUTO
         2 000602   200112 630500                    EPPR0   COUNT+65,,AUTO
         2 000603   200144 450500                    STP0    COUNT+91,,AUTO
         2 000604   200110 630500                    EPPR0   COUNT+63,,AUTO
         2 000605   200143 450500                    STP0    COUNT+90,,AUTO
         2 000606   200106 630500                    EPPR0   COUNT+61,,AUTO
PL6.E3A0      #001=DAD$SPROC File=DAD$SPROC.:E05TSI                              TUE 07/29/97 12:46 Page:26
         2 000607   200142 450500                    STP0    COUNT+89,,AUTO
         2 000610   200102 630500                    EPPR0   COUNT+57,,AUTO
         2 000611   200141 450500                    STP0    COUNT+88,,AUTO
         2 000612   000021 236000 3                  LDQ     17
         2 000613   200140 756100                    STQ     COUNT+87,,AUTO
         2 000614   200140 630500                    EPPR0   COUNT+87,,AUTO
         2 000615   000000 220000 xsym               LDX0    DAF$WRITE
         2 000616   000020 631400 3                  EPPR1   16
         2 000617   000000 701010                    TSX1    0,X0
         2 000620   000000 011000                    NOP     0

      129     4404    3                VECTOR(B$P.DVA(I)));
      130     4405    3              END;

   4405  2 000621   001016 710000 2                  TRA     s:4420

      131     4406    3           ELSE DO;

      132     4407
      133     4408    3              CALL DAF$WRITE(VECTOR(PROCFMT2),
      134     4409    3                VECTOR(I),
      135     4410    3                VECTOR(SUBSTR(B$P.NAME.TEXT(I),0,12)),
      136     4411    3                VECTOR(B$P.INSTDATE(I)),
      137     4412    3                VECTOR(B$P.CRDATE(I)),
      138     4413    3                VECTOR(B$P.XEQTIME(I)),
      139     4414    3                VECTOR(B$P.SRVTIME(I)),
      140     4415    3                VECTOR(B$P.FLGS(I)),
      141     4416    3                VECTOR(B$P.PRIV(I)),

   4416  2 000622   777640 235007                    LDA     -96,DL
         2 000623   200014 452500                    STP2    COUNT+3,,AUTO
         2 000624   200014 236100                    LDQ     COUNT+3,,AUTO
         2 000625   000006 036003                    ADLQ    6,DU
         2 000626   200016 757100                    STAQ    COUNT+5,,AUTO
         2 000627   000024 235000 3                  LDA     20
         2 000630   200006 236100                    LDQ     I,,AUTO
         2 000631   200020 755100                    STA     COUNT+7,,AUTO
PL6.E3A0      #001=DAD$SPROC File=DAD$SPROC.:E05TSI                              TUE 07/29/97 12:46 Page:27
         2 000632   000042 402003                    MPY     34,DU
         2 000633   000005 036000 3                  ADLQ    5
         2 000634   200004 036100                    ADLQ    P$,,AUTO
         2 000635   200020 235100                    LDA     COUNT+7,,AUTO
         2 000636   200022 757100                    STAQ    COUNT+9,,AUTO
         2 000637   777640 235007                    LDA     -96,DL
         2 000640   200006 236100                    LDQ     I,,AUTO
         2 000641   200024 755100                    STA     COUNT+11,,AUTO
         2 000642   000042 402003                    MPY     34,DU
         2 000643   000005 036003                    ADLQ    5,DU
         2 000644   200004 036100                    ADLQ    P$,,AUTO
         2 000645   200024 235100                    LDA     COUNT+11,,AUTO
         2 000646   200026 757100                    STAQ    COUNT+13,,AUTO
         2 000647   777640 235007                    LDA     -96,DL
         2 000650   200006 236100                    LDQ     I,,AUTO
         2 000651   200030 755100                    STA     COUNT+15,,AUTO
         2 000652   000042 402003                    MPY     34,DU
         2 000653   000004 036003                    ADLQ    4,DU
         2 000654   200004 036100                    ADLQ    P$,,AUTO
         2 000655   200030 235100                    LDA     COUNT+15,,AUTO
         2 000656   200032 757100                    STAQ    COUNT+17,,AUTO
         2 000657   777640 235007                    LDA     -96,DL
         2 000660   200006 236100                    LDQ     I,,AUTO
         2 000661   200034 755100                    STA     COUNT+19,,AUTO
         2 000662   000042 402003                    MPY     34,DU
         2 000663   000006 036003                    ADLQ    6,DU
         2 000664   200004 036100                    ADLQ    P$,,AUTO
         2 000665   200034 235100                    LDA     COUNT+19,,AUTO
         2 000666   200036 757100                    STAQ    COUNT+21,,AUTO
         2 000667   777640 235007                    LDA     -96,DL
         2 000670   200006 236100                    LDQ     I,,AUTO
         2 000671   200040 755100                    STA     COUNT+23,,AUTO
         2 000672   000042 402003                    MPY     34,DU
         2 000673   000007 036003                    ADLQ    7,DU
         2 000674   200004 036100                    ADLQ    P$,,AUTO
         2 000675   200040 235100                    LDA     COUNT+23,,AUTO
         2 000676   200042 757100                    STAQ    COUNT+25,,AUTO
PL6.E3A0      #001=DAD$SPROC File=DAD$SPROC.:E05TSI                              TUE 07/29/97 12:46 Page:28
         2 000677   377640 235007                    LDA     130976,DL
         2 000700   200006 236100                    LDQ     I,,AUTO
         2 000701   200044 755100                    STA     COUNT+27,,AUTO
         2 000702   000042 402003                    MPY     34,DU
         2 000703   000027 036003                    ADLQ    23,DU
         2 000704   200004 036100                    ADLQ    P$,,AUTO
         2 000705   200044 235100                    LDA     COUNT+27,,AUTO
         2 000706   200046 757100                    STAQ    COUNT+29,,AUTO
         2 000707   777640 235007                    LDA     -96,DL
         2 000710   200006 236100                    LDQ     I,,AUTO
         2 000711   200050 755100                    STA     COUNT+31,,AUTO
         2 000712   000042 402003                    MPY     34,DU
         2 000713   000010 036003                    ADLQ    8,DU
         2 000714   200004 036100                    ADLQ    P$,,AUTO
         2 000715   200050 235100                    LDA     COUNT+31,,AUTO
         2 000716   200052 757100                    STAQ    COUNT+33,,AUTO
         2 000717   377640 235007                    LDA     130976,DL
         2 000720   200006 236100                    LDQ     I,,AUTO
         2 000721   200054 755100                    STA     COUNT+35,,AUTO
         2 000722   000042 402003                    MPY     34,DU
         2 000723   000025 036000 3                  ADLQ    21
         2 000724   200004 036100                    ADLQ    P$,,AUTO
         2 000725   200054 235100                    LDA     COUNT+35,,AUTO
         2 000726   200056 757100                    STAQ    COUNT+37,,AUTO
         2 000727   377640 235007                    LDA     130976,DL
         2 000730   200006 236100                    LDQ     I,,AUTO
         2 000731   200060 755100                    STA     COUNT+39,,AUTO
         2 000732   000042 402003                    MPY     34,DU
         2 000733   000024 036003                    ADLQ    20,DU
         2 000734   200004 036100                    ADLQ    P$,,AUTO
         2 000735   200060 235100                    LDA     COUNT+39,,AUTO
         2 000736   200064 757100                    STAQ    COUNT+43,,AUTO
         2 000737   200016 237100                    LDAQ    COUNT+5,,AUTO
         2 000740   200062 757100                    STAQ    COUNT+41,,AUTO
         2 000741   200022 237100                    LDAQ    COUNT+9,,AUTO
         2 000742   200066 757100                    STAQ    COUNT+45,,AUTO
         2 000743   200026 237100                    LDAQ    COUNT+13,,AUTO
PL6.E3A0      #001=DAD$SPROC File=DAD$SPROC.:E05TSI                              TUE 07/29/97 12:46 Page:29
         2 000744   200070 757100                    STAQ    COUNT+47,,AUTO
         2 000745   200032 237100                    LDAQ    COUNT+17,,AUTO
         2 000746   200072 757100                    STAQ    COUNT+49,,AUTO
         2 000747   200036 237100                    LDAQ    COUNT+21,,AUTO
         2 000750   200074 757100                    STAQ    COUNT+51,,AUTO
         2 000751   200042 237100                    LDAQ    COUNT+25,,AUTO
         2 000752   200076 757100                    STAQ    COUNT+53,,AUTO
         2 000753   200046 237100                    LDAQ    COUNT+29,,AUTO
         2 000754   200100 757100                    STAQ    COUNT+55,,AUTO
         2 000755   200052 237100                    LDAQ    COUNT+33,,AUTO
         2 000756   200102 757100                    STAQ    COUNT+57,,AUTO
         2 000757   200056 237100                    LDAQ    COUNT+37,,AUTO
         2 000760   200104 757100                    STAQ    COUNT+59,,AUTO
         2 000761   200064 237100                    LDAQ    COUNT+43,,AUTO
         2 000762   200106 757100                    STAQ    COUNT+61,,AUTO
         2 000763   200106 630500                    EPPR0   COUNT+61,,AUTO
         2 000764   200122 450500                    STP0    COUNT+73,,AUTO
         2 000765   200104 631500                    EPPR1   COUNT+59,,AUTO
         2 000766   200121 451500                    STP1    COUNT+72,,AUTO
         2 000767   200102 633500                    EPPR3   COUNT+57,,AUTO
         2 000770   200120 453500                    STP3    COUNT+71,,AUTO
         2 000771   200100 634500                    EPPR4   COUNT+55,,AUTO
         2 000772   200117 454500                    STP4    COUNT+70,,AUTO
         2 000773   200076 635500                    EPPR5   COUNT+53,,AUTO
         2 000774   200116 455500                    STP5    COUNT+69,,AUTO
         2 000775   200074 636500                    EPPR6   COUNT+51,,AUTO
         2 000776   200115 456500                    STP6    COUNT+68,,AUTO
         2 000777   200072 637500                    EPPR7   COUNT+49,,AUTO
         2 001000   200114 457500                    STP7    COUNT+67,,AUTO
         2 001001   200070 630500                    EPPR0   COUNT+47,,AUTO
         2 001002   200113 450500                    STP0    COUNT+66,,AUTO
         2 001003   200066 630500                    EPPR0   COUNT+45,,AUTO
         2 001004   200112 450500                    STP0    COUNT+65,,AUTO
         2 001005   200062 630500                    EPPR0   COUNT+41,,AUTO
         2 001006   200111 450500                    STP0    COUNT+64,,AUTO
         2 001007   000027 236000 3                  LDQ     23
         2 001010   200110 756100                    STQ     COUNT+63,,AUTO
PL6.E3A0      #001=DAD$SPROC File=DAD$SPROC.:E05TSI                              TUE 07/29/97 12:46 Page:30
         2 001011   200110 630500                    EPPR0   COUNT+63,,AUTO
         2 001012   000000 220000 xsym               LDX0    DAF$WRITE
         2 001013   000026 631400 3                  EPPR1   22
         2 001014   000000 701010                    TSX1    0,X0
         2 001015   000000 011000                    NOP     0

      142     4417    3                VECTOR(B$P.SA(I)),
      143     4418    3                VECTOR(B$P.DADDR(I)));
      144     4419    3              END;

      145     4420    2   END DISPROC;

   4420  2 001016   200012 221300                    LDX1  ! COUNT+1,,AUTO
         2 001017   000001 702211                    TSX2  ! 1,X1
      146     4421    1   END DAD$SPROC;
      147     4422        %EOD;

PL6.E3A0      #001=DAD$SPROC File=DAD$SPROC.:E05TSI                              TUE 07/29/97 12:46 Page:31
--  Include file information  --

   B$P.:E05TOU  cannot be made into a system file and is referenced.
   DA_MONSYM_C.:E05TOU  is referenced.
   DA_CMD_C.:E05TOU  is referenced.
   DA_FORMAT_C.:E05TOU  is referenced.
   DA_MAP_R.:E05TOU  cannot be made into a system file and is referenced.
   XU_MACRO_C.:E05TOU  is referenced.
   B$JIT_C.:E05TOU  was found in the system file and is never referenced.
   CP_6_C.:E05TOU  was found in the system file and is never referenced.
      No diagnostics issued in procedure DAD$SPROC.
PL6.E3A0      #001=DAD$SPROC File=DAD$SPROC.:E05TSI                              TUE 07/29/97 12:46 Page:32

 **** Variables and constants ****

  ****  Section 000  Data  DAD$SPROC

  ****  Scalars and arrays  ****
OctLoc.c.b A Datatyp(siz) R M Lvl/name                 OctLoc.c.b A Datatyp(siz) R M Lvl/name

     0-0-0/w STRC(288)   r     1 PROCRPT                  102-0-0/w STRC(288)   r     1 PROCRPT2
   121-0-0/w STRC(144)   r     1 PROCRPT2HD00             156-0-0/w STRC(144)   r     1 PROCRPT2HD01
   112-0-0/c STRC(243)   r     1 PROCRPT2TX00             125-0-0/c STRC(873)   r     1 PROCRPT2TX01
   162-0-0/c STRC(873)   r     1 PROCRPT2TX02              15-0-0/w STRC(144)   r     1 PROCRPTHD00
    47-0-0/w STRC(144)   r     1 PROCRPTHD01               10-0-0/c STRC(153)   r     1 PROCRPTTX00
    21-0-0/c STRC(792)   r     1 PROCRPTTX01               53-0-0/c STRC(801)   r     1 PROCRPTTX02

  ****  Section 001 RoData DAD$SPROC

  ****  Scalars and arrays  ****
OctLoc.c.b A Datatyp(siz) R M Lvl/name                 OctLoc.c.b A Datatyp(siz) R M Lvl/name

     0-0-0/c CHAR(60)    r     1 PROCFMT                   17-0-0/c CHAR(71)    r     1 PROCFMT2

  ****  Auto variables  ****

  ****  Scalars and arrays  ****
OctLoc.c.b A Datatyp(siz) R M Lvl/name                 OctLoc.c.b A Datatyp(siz) R M Lvl/name

     3-0-0/w PTR         r     1 @TOP                      11-0-0/w SBIN        r     1 COUNT
     6-0-0/w UBIN        r     1 I                          4-0-0/w PTR         r     1 P$
     7-0-0/w SBIN        r     1 PASS                       5-0-0/w UBIN        r     1 P_LASTAUTO
    *0-0-0/w STRC(144)   r     1 TOP                       10-0-0/w SBIN        r     1 X

  ****  SYMREF variables  ****

  ****  Scalars and arrays  ****
OctLoc.c.b A Datatyp(siz) R M Lvl/name                 OctLoc.c.b A Datatyp(siz) R M Lvl/name

     0-0-0/w EPTR        r     1 DAF$WRITE                  0-0-0/b BIT (72)    r     1 DA_MONISDATA
PL6.E3A0      #001=DAD$SPROC File=DAD$SPROC.:E05TSI                              TUE 07/29/97 12:46 Page:33

  ****  BASED and DCB variables  ****

  ****  Scalars and arrays  ****
OctLoc.c.b A Datatyp(siz) R M Lvl/name                 OctLoc.c.b A Datatyp(siz) R M Lvl/name

     0-0-0/d STRC(1224)  r     1 B$P(0:0)                   0-0-0/w STRC(144)   r     1 OUT
     0-0-0/w PTR         r     1 P$$                        0-0-0/w SBIN        r     1 SBINWORD
     0-0-0/w ASTR(153)   r     1 SYM


   Procedure DAD$SPROC requires 528 words for executable code.
   Procedure DAD$SPROC requires 112 words of local(AUTO) storage.
PL6.E3A0      #001=DAD$SPROC File=DAD$SPROC.:E05TSI                              TUE 07/29/97 12:46 Page:34
          *** CROSS REFERENCE LISTING ***
**     DENOTES     IDENTIFIER DEFINITION
<<                 IDENTIFIER'S VALUE SET
>>                 IDENTIFIER'S VALUE USED
<>                 IDENTIFIER SET AND/OR USED
--                 IDENTIFIER REFERENCED
PL6.E3A0      #001=DAD$SPROC File=DAD$SPROC.:E05TSI                              TUE 07/29/97 12:46 Page:35
          MINI XREF LISTING

ALT
      4386**LABEL    4339--CALLALT  4340--CALLALT  4342--CALLALT  4343--CALLALT  4345--CALLALT
B$P.ACCT
      3864**DCL      4369<>CALL     4375<>CALL     4403--CALL
B$P.CRDATE
      3846**DCL      4416--CALL
B$P.DADDR
      3856**DCL      4416--CALL
B$P.DSZ
      3857**DCL      4403--CALL
B$P.DVA
      3859**DCL      4403--CALL
B$P.FLGS
      3862**DCL      4416--CALL
B$P.FRQ
      3843**DCL      4403--CALL
B$P.HPP
      3844**DCL      4403--CALL
B$P.HVA
      3860**DCL      4403--CALL
B$P.INSTDATE
      3847**DCL      4351>>IF       4378>>IF       4416--CALL
B$P.LNK
      3853**DCL      4403--CALL
B$P.NAME.COUNT
      3866**DCL      4362>>ASSIGN
B$P.NAME.TEXT
      3867**DCL      4363<>CALL     4403--CALL     4416--CALL
B$P.PPC
      3845**DCL      4403--CALL
B$P.PRIV
      3850**DCL      4416--CALL
PL6.E3A0      #001=DAD$SPROC File=DAD$SPROC.:E05TSI                              TUE 07/29/97 12:46 Page:36
B$P.PVA
      3858**DCL      4403--CALL
B$P.SA
      3861**DCL      4416--CALL
B$P.SRVTIME
      3849**DCL      4416--CALL
B$P.TCBSZ
      3863**DCL      4403--CALL
B$P.TPP
      3854**DCL      4403--CALL
B$P.UC
      3842**DCL      4403--CALL
B$P.XEQTIME
      3848**DCL      4416--CALL
COUNT
      3924**DCL      4362<<ASSIGN   4363<>CALL
DAA$VALUE
      3929**DCL-ENT  4358--CALL
DAA$WILDCOMP
      3928**DCL-ENT  4363--CALL     4369--CALL     4375--CALL
DAF$INIT
      3933**DCL-ENT  4347--CALL     4348--CALL
DAF$WRITE
      3932**DCL      4403>>CALL     4416>>CALL
DAM$MAP
      3931**DCL-ENT  4340--CALL     4343--CALL     4345--CALL
DAS$SDMONPTR
      3930**DCL-ENT  4339--CALL     4342--CALL
DA_MAPSEG.P
      3186**DCL      3187--REDEF
DA_MONISDATA
      3179**DCL      4340<>CALL     4343<>CALL
DA_SDASN.DESC.TYPE0
      3171**DCL      3171--REDEF
DA_TIGRSEG.P
      3187**DCL      3188--REDEF
PL6.E3A0      #001=DAD$SPROC File=DAD$SPROC.:E05TSI                              TUE 07/29/97 12:46 Page:37
DISPROC
      4388**PROC     4351--CALL     4359--CALL     4365--CALL     4371--CALL     4378--CALL
I
      3921**DCL      4350<<DOINDEX  4351>>IF       4358<>CALL     4359>>IF       4361<<DOINDEX  4362>>ASSIGN
      4363>>CALL     4368<<DOINDEX  4369>>CALL     4374<<DOINDEX  4375>>CALL     4378>>IF       4403--CALL
      4403>>CALL     4403>>CALL     4403>>CALL     4403>>CALL     4403>>CALL     4403>>CALL     4403>>CALL
      4403>>CALL     4403>>CALL     4403>>CALL     4403>>CALL     4403>>CALL     4403>>CALL     4416--CALL
      4416>>CALL     4416>>CALL     4416>>CALL     4416>>CALL     4416>>CALL     4416>>CALL     4416>>CALL
      4416>>CALL     4416>>CALL
NOTACCT
      4378**LABEL    4375--CALLALT
NXTACCT
      4372**LABEL    4369--CALLALT
NXTNAME
      4366**LABEL    4363--CALLALT
OUT
      4259**DCL      4358<>CALL
OUT.CODE
      4267**DCL      4356>>DOCASE
OUT.SUBLK$
      4292**DCL      4358>>CALL     4363>>CALL     4369>>CALL     4375>>CALL
P$
      3919**DCL      4339<>CALL     4340<>CALL     4340<>CALL     4341>>ASSIGN   4342<>CALL     4343<>CALL
      4343<>CALL     4344<<ASSIGN   4344>>ASSIGN   4345<>CALL     4345<>CALL     4351>>IF       4362>>ASSIGN
      4363>>CALL     4369>>CALL     4375>>CALL     4378>>IF       4403>>CALL     4403>>CALL     4403>>CALL
      4403>>CALL     4403>>CALL     4403>>CALL     4403>>CALL     4403>>CALL     4403>>CALL     4403>>CALL
      4403>>CALL     4403>>CALL     4403>>CALL     4416>>CALL     4416>>CALL     4416>>CALL     4416>>CALL
      4416>>CALL     4416>>CALL     4416>>CALL     4416>>CALL     4416>>CALL
P$$
      3925**DCL      4344>>ASSIGN
PASS
      3922**DCL      4346<<DOINDEX  4347>>IF       4389>>IF
PROCFMT
      4091**DCL      4403--CALL
PROCFMT2
      4250**DCL      4416--CALL
PL6.E3A0      #001=DAD$SPROC File=DAD$SPROC.:E05TSI                              TUE 07/29/97 12:46 Page:38
PROCRPT
      3956**DCL      4347<>CALL
PROCRPT2
      4115**DCL      4348<>CALL
PROCRPT2HD00
      4182**DCL      4150--DCLINIT
PROCRPT2HD01
      4225**DCL      4197--DCLINIT
PROCRPT2TX00
      4158**DCL      4145--DCLINIT
PROCRPT2TX01
      4200**DCL      4190--DCLINIT
PROCRPT2TX02
      4243**DCL      4233--DCLINIT
PROCRPTHD00
      4023**DCL      3991--DCLINIT
PROCRPTHD01
      4066**DCL      4038--DCLINIT
PROCRPTTX00
      3999**DCL      3986--DCLINIT
PROCRPTTX01
      4041**DCL      4031--DCLINIT
PROCRPTTX02
      4084**DCL      4074--DCLINIT
P_LASTAUTO
      3920**DCL      4341<<ASSIGN   4350>>DOINDEX  4359>>IF       4361>>DOINDEX  4368>>DOINDEX  4374>>DOINDEX
SBINWORD
      3926**DCL      4341>>ASSIGN
SYM.COUNT
      4328**DCL      4331--IMP-SIZ  4363<>CALL     4369<>CALL     4375<>CALL
TOP
      3121**DCL         8--PROC
TOP.NSUBLKS
      3133**DCL      4349>>IF       4355>>DOINDEX
TOP.SUBLK$
      3154**DCL      4356>>DOCASE   4358>>CALL     4363>>CALL     4369>>CALL     4375>>CALL
PL6.E3A0      #001=DAD$SPROC File=DAD$SPROC.:E05TSI                              TUE 07/29/97 12:46 Page:39
X
      3923**DCL      4355<<DOINDEX  4356>>DOCASE   4358>>CALL     4363>>CALL     4369>>CALL     4375>>CALL

PL6.E3A0      #002=DAD$SPROC_DUMMY File=DAD$SPROC.:E05TSI                        TUE 07/29/97 12:47 Page:40
      148        1        /*T***********************************************************/
      149        2        /*T*                                                         */
      150        3        /*T* Copyright (c) Bull HN Information Systems Inc., 1997    */
      151        4        /*T*                                                         */
      152        5        /*T***********************************************************/
      153        6        DAD$SPROC_DUMMY: PROC NOAUTO;
      154        7    1   DCL P_NPROCS UBIN WORD STATIC SYMDEF;
      155        8    1   DCL P_MAXPROCS UBIN WORD STATIC SYMDEF;
      156        9    1   DCL P_AUTO_START UBIN WORD STATIC SYMDEF;
      157       10    1   DCL P_LAST_AUTO UBIN WORD STATIC SYMDEF;
      158       11    1   DCL P_AUTOSPACE UBIN WORD STATIC SYMDEF;
      159       12    1   DCL P_USED_AUTO UBIN WORD STATIC SYMDEF;
      160       13    1   DCL P_MAX_LOOKUP UBIN WORD STATIC SYMDEF;
      161       14    1   DCL B$P$ PTR STATIC SYMDEF;
      162       15    1   DCL B$LOOKUP$ PTR STATIC SYMDEF;
      163       16    1   END DAD$SPROC_DUMMY;

PL6.E3A0      #002=DAD$SPROC_DUMMY File=DAD$SPROC.:E05TSI                        TUE 07/29/97 12:47 Page:41
--  Include file information  --

   B$JIT_C.:E05TOU  was found in the system file and is never referenced.
   CP_6_C.:E05TOU  was found in the system file and is never referenced.
      No diagnostics issued in procedure DAD$SPROC_DUMMY.

   No code generated for procedure DAD$SPROC_DUMMY .
   Procedure DAD$SPROC_DUMMY is declared NOAUTO and requires 10 words of local(STATIC) storage.

    No errors detected in file DAD$SPROC.:E05TSI    .

PL6.E3A0      #002=DAD$SPROC_DUMMY File=DAD$SPROC.:E05TSI                        TUE 07/29/97 12:47 Page:42

 Object Unit name= DAD$SPROC_DUMMY                            File name= DAD$SPROC.:E05TOU
 UTS= JUL 29 '97 12:47:07.04 TUE                              Compiler= PL-6/E31         Sev=      00
 SharedLib= :SHARED_SYSTEM                                    Alt SharedLib=


    ****  Control sections  ****

 Sect   Type Bound  Init  Size OctSiz  Section name(segment info)
    0   Data  even  none    10     12  DAD$SPROC_DUMMY
    1   Proc  even  none     0      0  DAD$SPROC_DUMMY

    ****  Entry defs  ****

                              Check   Calling
                             calling  sequence
  Sect OctLoc Primary Altret sequence   type   Parms  Name
     1      0   yes            yes     ~proc       0  DAD$SPROC_DUMMY

  ****  Data defs  ****

 Sect OctLoc  Name                           Sect OctLoc  Name
    0      1  P_NPROCS                           0      2  P_MAXPROCS
    0      3  P_AUTO_START                       0      4  P_LAST_AUTO
    0      5  P_AUTOSPACE                        0      6  P_USED_AUTO
    0      7  P_MAX_LOOKUP                       0     10  B$P$
    0     11  B$LOOKUP$
PL6.E3A0      #002=DAD$SPROC_DUMMY File=DAD$SPROC.:E05TSI                        TUE 07/29/97 12:47 Page:43

      148        1        /*T***********************************************************/
      149        2        /*T*                                                         */
      150        3        /*T* Copyright (c) Bull HN Information Systems Inc., 1997    */
      151        4        /*T*                                                         */
      152        5        /*T***********************************************************/
      153        6        DAD$SPROC_DUMMY: PROC NOAUTO;
      154        7    1   DCL P_NPROCS UBIN WORD STATIC SYMDEF;
      155        8    1   DCL P_MAXPROCS UBIN WORD STATIC SYMDEF;
      156        9    1   DCL P_AUTO_START UBIN WORD STATIC SYMDEF;
      157       10    1   DCL P_LAST_AUTO UBIN WORD STATIC SYMDEF;
      158       11    1   DCL P_AUTOSPACE UBIN WORD STATIC SYMDEF;
      159       12    1   DCL P_USED_AUTO UBIN WORD STATIC SYMDEF;
      160       13    1   DCL P_MAX_LOOKUP UBIN WORD STATIC SYMDEF;
      161       14    1   DCL B$P$ PTR STATIC SYMDEF;
      162       15    1   DCL B$LOOKUP$ PTR STATIC SYMDEF;
      163       16    1   END DAD$SPROC_DUMMY;

PL6.E3A0      #002=DAD$SPROC_DUMMY File=DAD$SPROC.:E05TSI                        TUE 07/29/97 12:47 Page:44
--  Include file information  --

   B$JIT_C.:E05TOU  was found in the system file and is never referenced.
   CP_6_C.:E05TOU  was found in the system file and is never referenced.
      No diagnostics issued in procedure DAD$SPROC_DUMMY.
PL6.E3A0      #002=DAD$SPROC_DUMMY File=DAD$SPROC.:E05TSI                        TUE 07/29/97 12:47 Page:45

 **** Variables and constants ****


   No code generated for procedure DAD$SPROC_DUMMY .
   Procedure DAD$SPROC_DUMMY is declared NOAUTO and requires 10 words of local(STATIC) storage.

    No errors detected in file DAD$SPROC.:E05TSI    .
PL6.E3A0      #002=DAD$SPROC_DUMMY File=DAD$SPROC.:E05TSI                        TUE 07/29/97 12:47 Page:46
          *** CROSS REFERENCE LISTING ***
**     DENOTES     IDENTIFIER DEFINITION
<<                 IDENTIFIER'S VALUE SET
>>                 IDENTIFIER'S VALUE USED
<>                 IDENTIFIER SET AND/OR USED
--                 IDENTIFIER REFERENCED
PL6.E3A0      #002=DAD$SPROC_DUMMY File=DAD$SPROC.:E05TSI                        TUE 07/29/97 12:47 Page:47
          MINI XREF LISTING

