VERSION E05

PL6.E3A0      #001=DAD$USRT File=DAD$USRT.:E05TSI                                TUE 07/29/97 12:48 Page:1
        1        1        /*M*   Display USER tables for ANLZ                                   */
        2        2        /*T***********************************************************/
        3        3        /*T*                                                         */
        4        4        /*T* Copyright (c) Bull HN Information Systems Inc., 1997    */
        5        5        /*T*                                                         */
        6        6        /*T***********************************************************/
        7        7        /*                                                                    */
        8        8        /*D* NAME: DAD$USRT
        9        9             CALL: CALL DAD$USRT$(TOP);
       10       10             INPUT: TOP - Parser output block from DISPLAY USER command.
       11       11             DISCRIPTION:  If TOP.NSUBLKS is 0 then the entire USER table
       12       12                is displayed.  Otherwise, table entries for users specified in
       13       13                the DISPLAY command are displayed.
       14       14                                                                              */
       15       15        DAD$USRT: PROC(TOP);
       16       16        /*                                                                    */
       17       17    1   DCL DAA$NXTUSR ENTRY(1) ALTRET;
       18       18    1   DCL DAM$MAP ENTRY(5) ALTRET;
       19       19    1   DCL DAF$WRITE EPTR SYMREF;
       20       20    1   DCL DAF$INIT ENTRY(1) ALTRET;
       21       21    1   DCL DAF$NEWPAGE ENTRY;
       22       22    1   DCL UHDR0 CONSTANT CHAR(0) INIT(
       23       23    1   'SYSID M  #   FL  BL  ST   SQ         FLAG       ASYNCH   PCT PR BP MF CM CPU');
       24       24    1   DCL UULINE0 CONSTANT CHAR(0) INIT(
       25       25    1   '----- - --- --- --- ---  --- ------------ ------------  ---- -- -- --- -- ---');
       26       26    1   DCL UHDR1 CONSTANT CHAR(0) INIT(
       27       27    1   'SYSID  #  ACP  DB ASL APR APO ASP     PT ENQCNT ENQENT         MISC      WOO');
       28       28    1   DCL UULINE1 CONSTANT CHAR(0) INIT(
       29       29    1   '----- --- --- --- --- --- --- --- ------ ------ ------ ------------ --------');
       30       30    1   DCL DHDR CONSTANT CHAR(0) INIT(
       31       31    1   ' SYSID  #   BCIS LS83ADR   WSR  ECCSC        ENTER         EVID         ERRC  SZ');
       32       32    1   DCL 1 DULINE CONSTANT CHAR(0) INIT(
       33       33    1   '------ ---  ----  ------     - ------ ------------ ------------ ------------ ---');
       34       34    1   DCL DERRFMT CONSTANT CHAR(0) INIT(' %6D %Z3O MAP ERROR');
       35       35    1   DCL 1 USER,
       36       36    1         2 FL UBIN,
       37       37    1         2 BL UBIN,
PL6.E3A0      #001=DAD$USRT File=DAD$USRT.:E05TSI                                TUE 07/29/97 12:48 Page:2
       38       38    1         2 US CHAR(4),
       39       39    1         2 SQ UBIN,
       40       40    1         2 FLG UBIN,
       41       41    1         2 ASYNCH UBIN,
       42       42    1         2 PCT UBIN,
       43       43    1         2 PRIO UBIN,
       44       44    1         2 PRIOB UBIN,
       45       45    1         2 MF UBIN,
       46       46    1         2 CMF UBIN,
       47       47    1         2 CPU UBIN,
       48       48    1         2 ACP UBIN,
       49       49    1         2 DB UBIN,
       50       50    1         2 ASL UBIN,
       51       51    1         2 APR UBIN,
       52       52    1         2 APO UBIN,
       53       53    1         2 ASP UBIN,
       54       54    1         2 PT UBIN,
       55       55    1         2 ENQ BIT(36),
       56       56    1         2 MISC UBIN,
       57       57    1         2 WOO CHAR(8);
       58       58    1   DCL 1 UDO,
       59       59    1         2 SYSID UBIN,
       60       60    1         2 USR# UBIN,
       61       61    1         2 B UBIN,
       62       62    1         2 C UBIN,
       63       63    1         2 I UBIN,
       64       64    1         2 S UBIN,
       65       65    1         2 DL$ PTR,
       66       66    1         2 WSR UBIN,
       67       67    1         2 ECCSC UBIN,
       68       68    1         2 ENTER EPTR,
       69       69    1         2 EVID UBIN,
       70       70    1         2 ERRC BIT(36),
       71       71    1         2 N UBIN;
       72       72    1   DCL UDOINFO(0:5) UBIN;
       73       73    1   DCL 1 CDO,
       74       74    1         2 SYSID UBIN,
PL6.E3A0      #001=DAD$USRT File=DAD$USRT.:E05TSI                                TUE 07/29/97 12:48 Page:3
       75       75    1         2 USR# UBIN,
       76       76    1         2 B UBIN,
       77       77    1         2 C UBIN,
       78       78    1         2 DL$ PTR,
       79       79    1         2 INFO(0:2) UBIN;
       80       80    1   DCL CDO1(0:4) UBIN;
       81       81    1   DCL 1 DOFMT CONSTANT,
       82       82    1         2 * CHAR(0) INIT('%6D %Z3O  %O%O%O%O  %6ZMO     %D %Z6O'),
       83       83    1         2 * CHAR(0) INIT(' %Z12O %Z12O %Z12O %3D');
       84       84    1   DCL 1 DOFMT2 CONSTANT,
       85       85    1         2 * CHAR(0) INIT('%12-%4( %Z12O%) %:16-S%16.16.1A%/'),
       86       86    1         2 * CHAR(0) INIT('%12-%2( %Z12O%)%27X%:8-S%8.8.1A');
       87       87    1   DCL 1 CDOFMT CONSTANT,
       88       88    1         2 * CHAR(0) INIT('%6D %Z3O  %O%O    %6ZMO%3( %Z12O%)%5X%:12-S%12.12.1A');
       89       89    1   DCL 1 HDRBUF  STATIC,
       90       90    1         2 CT UBIN(9) UNAL ,
       91       91    1         2 TX CHAR(132);
       92       92    1   DCL 1 HDRBUF2 STATIC,
       93       93    1         2 CT UBIN(9) UNAL ,
       94       94    1         2 TX CHAR(132);
       95       95    1   DCL UFMT0 CONSTANT CHAR(0) INIT(
       96       96    1   '%5D %A%3( %Z3O%) %4A %Z3O%2( %Z12O%) %4D %2( %2D%) %3D %2D %3O');
       97       97    1   DCL UFMT1 CONSTANT CHAR(0) INIT(
       98       98    1   '%5D %Z3O%6( %3D%) %Z6O %6.18D %Z6.18O %Z12O %8A');
       99       99    1   DCL UV0(0:11) UBIN BASED;
      100      100    1   DCL UV1(0:10) UBIN BASED;
      101      101    1   DCL 1 MV STATIC,
      102      102    1         2 BND UBIN(20) UNAL INIT(2044),
      103      103    1         2 * UBIN(16) UNAL INIT(0),
      104      104    1         2 P$ PTR;
      105      105    1   DCL P$ PTR;
      106      106    1   DCL I UBIN;
      107      107    1   DCL J SBIN;
      108      108    1   DCL NUPGE UBIN;
      109      109        %INCLUDE SS_SCHED_C;
      110      342        %S_STATE (FPTN=S);
      111      374        %S_RSTATE (FPTN=RQ);
PL6.E3A0      #001=DAD$USRT File=DAD$USRT.:E05TSI                                TUE 07/29/97 12:48 Page:4
      112      387    1   DCL M(0:4) CHAR(4) CONSTANT INIT('?','B   ','G   ','O   ','T   ');
      113      388        %INCLUDE DA_FORMAT_C;
      114      630        %INCLUDE DA_ANLZ_R;
      115      643        %INCLUDE DA_MAP_R;
      116      673        %REPORT (NAME=URPRT,TITLE='USER TABLES',HEADER=YES);
      117      739        %HEADER (TEXTADR=HDRBUF,LAST=NO);
      118      781        %HEADER (TEXTADR=HDRBUF2);
      119      823        %INCLUDE XU_MACRO_C;
      120     3929        %PARSE$OUT (NAME=TOP,STCLASS=" ");
      121     3974        %PARSE$OUT (NAME=OUT,STCLASS=BASED);
      122     4019        %INCLUDE B$OBJECT_C;
      123     7449        %B$SDEF;
      124     7503        %INCLUDE B$USER;
      125     7719        %B$USERREFS;
      126     7723        %SUB NEVER="WHILE('0'B)";
      127     7724        %SUB FOREVER="WHILE('1'B)";
      128     7725        %EJECT;
PL6.E3A0      #001=DAD$USRT File=DAD$USRT.:E05TSI                                TUE 07/29/97 12:48 Page:5
      129     7726    1           CALL DAF$INIT(URPRT);
      130     7727    2           DO I = 0 TO 1;
      131     7728    3              DO CASE(I);
      132     7729    3               CASE(0);
      133     7730    3                 HDRBUF.TX=UHDR0;
      134     7731    3                 HDRBUF.CT=SIZEC(UHDR0);
      135     7732    3                 HDRBUF2.TX=UULINE0;
      136     7733    3                 HDRBUF2.CT=SIZEC(UULINE0);
      137     7734    3               CASE(1);
      138     7735    3                 HDRBUF.TX=UHDR1;
      139     7736    3                 HDRBUF.CT=SIZEC(UHDR1);
      140     7737    3                 HDRBUF2.TX=UULINE1;
      141     7738    3                 HDRBUF2.CT=SIZEC(UULINE1);
      142     7739    3                 CALL DAF$NEWPAGE;
      143     7740    3               END;
      144     7741    3              IF TOP.NSUBLKS=0 THEN DO;
      145     7742    4                 DO DA_CUN=1 TO DA_MUAIS;
      146     7743    4                    IF B$USRT$->B$USER.US(DA_CUN)~=%SS_SNULL THEN
      147     7744    4                       CALL DUSR(I,DA_CUN);
      148     7745    4                    END;
      149     7746    3                 END;
      150     7747    3              ELSE DO;
      151     7748    4                 DO J=0 TO TOP.NSUBLKS-1;
      152     7749    4                    DA_CUN=0;
      153     7750    5                    DO FOREVER;
      154     7751    5                       CALL DAA$NXTUSR(TOP.SUBLK$(J)->OUT) ALTRET(NXT);
      155     7752    5                       CALL DUSR(I,DA_CUN);
      156     7753    5                       END;
      157     7754    4   NXT:             END;
      158     7755    3                 END;
      159     7756    2              END;
      160     7757    1           HDRBUF.TX=DHDR;
      161     7758    1           HDRBUF.CT=SIZEC(DHDR);
      162     7759    1           HDRBUF2.TX=DULINE;
      163     7760    1           HDRBUF2.CT=SIZEC(DULINE);
      164     7761    1           NUPGE=0;
      165     7762    2           IF TOP.NSUBLKS=0 THEN DO;
PL6.E3A0      #001=DAD$USRT File=DAD$USRT.:E05TSI                                TUE 07/29/97 12:48 Page:6
      166     7763    3              DO DA_CUN=1 TO DA_MUAIS;
      167     7764    3                 IF B$USRT$->B$USER.US(DA_CUN)~=%SS_SNULL THEN
      168     7765    3                    CALL DDOUSR(DA_CUN);
      169     7766    3                 END;
      170     7767    2              END;
      171     7768    2           ELSE DO;
      172     7769    3              DO J=0 TO TOP.NSUBLKS-1;
      173     7770    3                 DA_CUN=0;
      174     7771    4                 DO FOREVER;
      175     7772    4                    CALL DAA$NXTUSR(TOP.SUBLK$(J)->OUT) ALTRET(NXT_SPEC);
      176     7773    4                    CALL DDOUSR(DA_CUN);
      177     7774    4                    END;
      178     7775    3   NXT_SPEC:     END;
      179     7776    2              END;
      180     7777    1   ERR:    RETURN;                         /* NORMAL AND ERROR RETURN            */
      181     7778        %EJECT;
PL6.E3A0      #001=DAD$USRT File=DAD$USRT.:E05TSI                                TUE 07/29/97 12:48 Page:7
      182     7779    1   DUSR:   PROC(I,U);
      183     7780    2   DCL U UBIN;
      184     7781    2   DCL I UBIN;
      185     7782    2   DCL MODE CHAR(1);
      186     7783    2   DCL USR UBIN;
      187     7784    2           USR=U;
      188     7785    3           DO CASE(I);
      189     7786    3            CASE(0);
      190     7787    3              MODE=M(B$USRT$->B$USER.MODE(USR));
      191     7788    3              USER.FL=B$USRT$->B$USER.FL(USR);
      192     7789    3              USER.BL=B$USRT$->B$USER.BL(USR);
      193     7790    3              IF B$USRT$->B$USER.US(USR) = %SS_SQR THEN
      194     7791    3                 USER.US=RQ(B$USRT$->B$USER.PRIO(USR));
      195     7792    3              ELSE
      196     7793    3                 USER.US=S(B$USRT$->B$USER.US(USR));
      197     7794    3              USER.SQ=B$USRT$->B$USER.SQ(USR);
      198     7795    3              USER.FLG=BITBIN(B$USRT$->B$USER.FLG(USR));
      199     7796    3              USER.ASYNCH=BITBIN(B$USRT$->B$USER.ASYNCH(USR));
      200     7797    3              USER.PCT=B$USRT$->B$USER.PCT(USR);
      201     7798    3              USER.PRIO=B$USRT$->B$USER.PRIO(USR);
      202     7799    3              USER.PRIOB=B$USRT$->B$USER.PRIOB(USR);
      203     7800    3              USER.MF=B$USRT$->B$USER.MF(USR);
      204     7801    3              USER.CMF=B$USRT$->B$USER.CMF(USR);
      205     7802    3              USER.CPU=B$USRT$->B$USER.CPU(USR);
      206     7803    3              CALL DAF$WRITE(VECTOR(UFMT0),VECTOR(B$USRT$->B$USER.SYSID(USR)),
      207     7804    3                VECTOR(MODE),VECTOR(USR),VECTOR(ADDR(USER)->UV0));
      208     7805    3            CASE(1);
      209     7806    3              USER.ACP=B$USRT$->B$USER.ACP(USR);
      210     7807    3              USER.DB=B$USRT$->B$USER.DB(USR);
      211     7808    3              USER.ASL=B$USRT$->B$USER.ASL(USR);
      212     7809    3              USER.APR=B$USRT$->B$USER.APR(USR);
      213     7810    3              USER.APO=B$USRT$->B$USER.APO(USR);
      214     7811    3              USER.ASP=B$USRT$->B$USER.ASP(USR);
      215     7812    3              USER.PT=B$USRT$->B$USER.PT(USR);
      216     7813    3              USER.ENQ=B$USRT$->B$USER.ENQ(USR);
      217     7814    3              USER.MISC=B$USRT$->B$USER.MISC(USR);
      218     7815    3              USER.WOO=B$USRT$->B$USER.WOO(USR);
PL6.E3A0      #001=DAD$USRT File=DAD$USRT.:E05TSI                                TUE 07/29/97 12:48 Page:8
      219     7816    3              CALL DAF$WRITE(VECTOR(UFMT1),VECTOR(B$USRT$->B$USER.SYSID(USR)),
      220     7817    3                VECTOR(USR),VECTOR(ADDR(USER.ACP)->UV1));
      221     7818    3            END;
      222     7819    2           RETURN;
      223     7820    2   END DUSR;
      224     7821        %EJECT;
PL6.E3A0      #001=DAD$USRT File=DAD$USRT.:E05TSI                                TUE 07/29/97 12:48 Page:9
      225     7822    1   DDOUSR: PROC(U);
      226     7823    2   DCL U UBIN;
      227     7824    2   DCL J SBIN;
      228     7825    2   DCL USR UBIN;
      229     7826    2           USR=U;
      230     7827    2           MV.P$=B$USRT$->B$USER.DL$(USR);
      231     7828    2   NXDO:   IF MV.P$ = ADDR(NIL) THEN RETURN;
      232     7829    2           CALL DAM$MAP(MV.P$,P$,0,0,MV) ALTRET(DOERR);
      233     7830    2           UDO.SYSID=B$USRT$->B$USER.SYSID(USR);
      234     7831    2           UDO.USR#=USR;
      235     7832    2           UDO.B=BITBIN(P$->B$DO.BUSY);
      236     7833    2           UDO.C=BITBIN(P$->B$DO.CONT);
      237     7834    2           UDO.I=BITBIN(P$->B$DO.SCHDDO);
      238     7835    2           UDO.S=BITBIN(P$->B$DO.SAVE);
      239     7836    2           UDO.WSR=P$->B$DO.WSR;
      240     7837    2           UDO.ECCSC=P$->B$DO.ECCSC;
      241     7838    2           UDO.DL$=MV.P$;
      242     7839    2           UDO.ENTER=P$->B$DO.ENTER;
      243     7840    2           UDO.EVID=P$->B$DO.EVID;
      244     7841    2           UDO.ERRC=P$->B$DO.ERRC;
      245     7842    2           UDO.N=P$->B$DO.ECCSZ;
      246     7843    3           DO J = 0 TO 5;
      247     7844    3              UDOINFO(J)=P$->B$DO.ECCINFO(J);
      248     7845    3              END;
      249     7846    2           IF NUPGE = 0 THEN
      250     7847    3           DO;
      251     7848    3              CALL DAF$NEWPAGE;
      252     7849    3              NUPGE=99;
      253     7850    3              END;
      254     7851    2           CALL DAF$WRITE(VECTOR(DOFMT),VECTOR(UDO));
      255     7852    2           CALL DAF$WRITE(VECTOR(DOFMT2),VECTOR(UDOINFO));
      256     7853    2   NXCD0:  MV.P$=P$->B$DO.LNK$;
      257     7854    2           IF P$->B$DO.CONT THEN
      258     7855    3           DO;
      259     7856    3              CALL DAM$MAP(MV.P$,P$,0,0,MV) ALTRET(DOERR);
      260     7857    3              CDO.SYSID=B$USRT$->B$USER.SYSID(USR);
      261     7858    3              CDO.USR#=USR;
PL6.E3A0      #001=DAD$USRT File=DAD$USRT.:E05TSI                                TUE 07/29/97 12:48 Page:10
      262     7859    3              CDO.B=BITBIN(P$->B$DO.BUSY);
      263     7860    3              CDO.C=BITBIN(P$->B$DO.CONT);
      264     7861    3              CDO.DL$=MV.P$;
      265     7862    4              DO J = 0 TO 2;
      266     7863    4                 CDO.INFO(J)=P$->B$DOCONT.ECCINFO(J);
      267     7864    4                 END;
      268     7865    4              DO J = 3 TO 8;
      269     7866    4                 UDOINFO(J-3)=P$->B$DOCONT.ECCINFO(J);
      270     7867    4                 END;
      271     7868    3              CALL DAF$WRITE(VECTOR(CDOFMT),VECTOR(CDO));
      272     7869    3              CALL DAF$WRITE(VECTOR(DOFMT2),VECTOR(UDOINFO));
      273     7870    3              GOTO NXCD0;
      274     7871    3              END;
      275     7872    2           GOTO NXDO;
      276     7873    2   DOERR:  IF NUPGE = 0 THEN
      277     7874    3           DO;
      278     7875    3              NUPGE=99;
      279     7876    3              CALL DAF$WRITE(VECTOR(DERRFMT),VECTOR(B$USRT$->B$USER.SYSID(USR)),
      280     7877    3                VECTOR(USR));
      281     7878    3              RETURN;
      282     7879    3              END;
      283     7880    2   END DDOUSR;
      284     7881    1   END DAD$USRT;

PL6.E3A0      #001=DAD$USRT File=DAD$USRT.:E05TSI                                TUE 07/29/97 12:48 Page:11
--  Include file information  --

   B$USER.:E05TOU  cannot be made into a system file and is referenced.
   B$OBJECT_C.:E05TOU  is referenced.
   XU_MACRO_C.:E05TOU  is referenced.
   DA_MAP_R.:E05TOU  cannot be made into a system file and is referenced.
   DA_ANLZ_R.:E05TOU  cannot be made into a system file and is referenced.
   DA_FORMAT_C.:E05TOU  is referenced.
   SS_SCHED_C.:E05TOU  is referenced.
      No diagnostics issued in procedure DAD$USRT.

   Procedure DAD$USRT requires 570 words for executable code.
   Procedure DAD$USRT requires 98 words of local(AUTO) storage.

    No errors detected in file DAD$USRT.:E05TSI    .

PL6.E3A0      #001=DAD$USRT File=DAD$USRT.:E05TSI                                TUE 07/29/97 12:48 Page:12

 Object Unit name= DAD$USRT                                   File name= DAD$USRT.:E05TOU
 UTS= JUL 29 '97 12:48:02.40 TUE                              Compiler= PL-6/E31         Sev=      00
 SharedLib= :SHARED_SYSTEM                                    Alt SharedLib=


    ****  Control sections  ****

 Sect   Type Bound  Init  Size OctSiz  Section name(segment info)
    0  RoData even  UTS    230    346  DAD$USRT
    1   Data  even  none    89    131  DAD$USRT
    2   Proc  even  none   570   1072  DAD$USRT
    3  RoData even  none    33     41  DAD$USRT

    ****  Entry defs  ****

                              Check   Calling
                             calling  sequence
  Sect OctLoc Primary Altret sequence   type   Parms  Name
     2      0   yes            yes      Std        1  DAD$USRT

  ****  Entry refs  ****

         Check        Calling
        calling       sequence
Altret sequence SRef   type   Args  Name
 yes     yes           Std       1 DAF$INIT
         yes           Std       0 DAF$NEWPAGE
 yes     yes           Std       1 DAA$NXTUSR
 yes     yes           Std       5 DAM$MAP
                       nStd      0 X66_AUTO_1
                       Std       0 B_CONSPOOL_D
                       nStd      0 X66_ARET
PL6.E3A0      #001=DAD$USRT File=DAD$USRT.:E05TSI                                TUE 07/29/97 12:48 Page:13

  ****  Data refs  ****

  Flags:  r = read only, s = secondary
Flgs Name                             Flgs Name                             Flgs Name
     DAF$WRITE                             DA_CUN                                DA_MUAIS
     B$USRT$                               B_VECTNIL

  ****  Segment refs  ****

  Flags:  r = read only, s = secondary
Flgs Name                             Flgs Name                             Flgs Name
     ISSID                                 NULLSID
PL6.E3A0      #001=DAD$USRT File=DAD$USRT.:E05TSI                                TUE 07/29/97 12:48 Page:14


        1        1        /*M*   Display USER tables for ANLZ                                   */
        2        2        /*T***********************************************************/
        3        3        /*T*                                                         */
        4        4        /*T* Copyright (c) Bull HN Information Systems Inc., 1997    */
        5        5        /*T*                                                         */
        6        6        /*T***********************************************************/
        7        7        /*                                                                    */
        8        8        /*D* NAME: DAD$USRT
        9        9             CALL: CALL DAD$USRT$(TOP);
       10       10             INPUT: TOP - Parser output block from DISPLAY USER command.
       11       11             DISCRIPTION:  If TOP.NSUBLKS is 0 then the entire USER table
       12       12                is displayed.  Otherwise, table entries for users specified in
       13       13                the DISPLAY command are displayed.
       14       14                                                                              */
       15       15        DAD$USRT: PROC(TOP);

     15  2 000000   000000 700200 xent  DAD$USRT     TSX0  ! X66_AUTO_1
         2 000001   000142 000001                    ZERO    98,1

       16       16        /*                                                                    */
       17       17    1   DCL DAA$NXTUSR ENTRY(1) ALTRET;
       18       18    1   DCL DAM$MAP ENTRY(5) ALTRET;
       19       19    1   DCL DAF$WRITE EPTR SYMREF;
       20       20    1   DCL DAF$INIT ENTRY(1) ALTRET;
       21       21    1   DCL DAF$NEWPAGE ENTRY;
       22       22    1   DCL UHDR0 CONSTANT CHAR(0) INIT(
       23       23    1   'SYSID M  #   FL  BL  ST   SQ         FLAG       ASYNCH   PCT PR BP MF CM CPU');
       24       24    1   DCL UULINE0 CONSTANT CHAR(0) INIT(
       25       25    1   '----- - --- --- --- ---  --- ------------ ------------  ---- -- -- --- -- ---');
       26       26    1   DCL UHDR1 CONSTANT CHAR(0) INIT(
       27       27    1   'SYSID  #  ACP  DB ASL APR APO ASP     PT ENQCNT ENQENT         MISC      WOO');
       28       28    1   DCL UULINE1 CONSTANT CHAR(0) INIT(
       29       29    1   '----- --- --- --- --- --- --- --- ------ ------ ------ ------------ --------');
       30       30    1   DCL DHDR CONSTANT CHAR(0) INIT(
       31       31    1   ' SYSID  #   BCIS LS83ADR   WSR  ECCSC        ENTER         EVID         ERRC SZ');
       32       32    1   DCL 1 DULINE CONSTANT CHAR(0) INIT(
PL6.E3A0      #001=DAD$USRT File=DAD$USRT.:E05TSI                                TUE 07/29/97 12:48 Page:15
       33       33    1   '------ ---  ----  ------    - ------ ------------ ------------ ------------ ---');
       34       34    1   DCL DERRFMT CONSTANT CHAR(0) INIT(' %6D %Z3O MAP ERROR');
       35       35    1   DCL 1 USER,
       36       36    1         2 FL UBIN,
       37       37    1         2 BL UBIN,
       38       38    1         2 US CHAR(4),
       39       39    1         2 SQ UBIN,
       40       40    1         2 FLG UBIN,
       41       41    1         2 ASYNCH UBIN,
       42       42    1         2 PCT UBIN,
       43       43    1         2 PRIO UBIN,
       44       44    1         2 PRIOB UBIN,
       45       45    1         2 MF UBIN,
       46       46    1         2 CMF UBIN,
       47       47    1         2 CPU UBIN,
       48       48    1         2 ACP UBIN,
       49       49    1         2 DB UBIN,
       50       50    1         2 ASL UBIN,
       51       51    1         2 APR UBIN,
       52       52    1         2 APO UBIN,
       53       53    1         2 ASP UBIN,
       54       54    1         2 PT UBIN,
       55       55    1         2 ENQ BIT(36),
       56       56    1         2 MISC UBIN,
       57       57    1         2 WOO CHAR(8);
       58       58    1   DCL 1 UDO,
       59       59    1         2 SYSID UBIN,
       60       60    1         2 USR# UBIN,
       61       61    1         2 B UBIN,
       62       62    1         2 C UBIN,
       63       63    1         2 I UBIN,
       64       64    1         2 S UBIN,
       65       65    1         2 DL$ PTR,
       66       66    1         2 WSR UBIN,
       67       67    1         2 ECCSC UBIN,
       68       68    1         2 ENTER EPTR,
       69       69    1         2 EVID UBIN,
PL6.E3A0      #001=DAD$USRT File=DAD$USRT.:E05TSI                                TUE 07/29/97 12:48 Page:16
       70       70    1         2 ERRC BIT(36),
       71       71    1         2 N UBIN;
       72       72    1   DCL UDOINFO(0:5) UBIN;
       73       73    1   DCL 1 CDO,
       74       74    1         2 SYSID UBIN,
       75       75    1         2 USR# UBIN,
       76       76    1         2 B UBIN,
       77       77    1         2 C UBIN,
       78       78    1         2 DL$ PTR,
       79       79    1         2 INFO(0:2) UBIN;
       80       80    1   DCL CDO1(0:4) UBIN;
       81       81    1   DCL 1 DOFMT CONSTANT,
       82       82    1         2 * CHAR(0) INIT('%6D %Z3O  %O%O%O%O  %6ZMO     %D %Z6O'),
       83       83    1         2 * CHAR(0) INIT(' %Z12O %Z12O %Z12O %3D');
       84       84    1   DCL 1 DOFMT2 CONSTANT,
       85       85    1         2 * CHAR(0) INIT('%12-%4( %Z12O%) %:16-S%16.16.1A%/'),
       86       86    1         2 * CHAR(0) INIT('%12-%2( %Z12O%)%27X%:8-S%8.8.1A');
       87       87    1   DCL 1 CDOFMT CONSTANT,
       88       88    1         2 * CHAR(0) INIT('%6D %Z3O  %O%O    %6ZMO%3( %Z12O%)%5X%:12-S%12.12.1A');
       89       89    1   DCL 1 HDRBUF  STATIC,
       90       90    1         2 CT UBIN(9) UNAL ,
       91       91    1         2 TX CHAR(132);
       92       92    1   DCL 1 HDRBUF2 STATIC,
       93       93    1         2 CT UBIN(9) UNAL ,
       94       94    1         2 TX CHAR(132);
       95       95    1   DCL UFMT0 CONSTANT CHAR(0) INIT(
       96       96    1   '%5D %A%3( %Z3O%) %4A %Z3O%2( %Z12O%) %4D %2( %2D%) %3D %2D %3O');
       97       97    1   DCL UFMT1 CONSTANT CHAR(0) INIT(
       98       98    1   '%5D %Z3O%6( %3D%) %Z6O %6.18D %Z6.18O %Z12O %8A');
       99       99    1   DCL UV0(0:11) UBIN BASED;
      100      100    1   DCL UV1(0:10) UBIN BASED;
      101      101    1   DCL 1 MV STATIC,
      102      102    1         2 BND UBIN(20) UNAL INIT(2044),
      103      103    1         2 * UBIN(16) UNAL INIT(0),
      104      104    1         2 P$ PTR;
      105      105    1   DCL P$ PTR;
      106      106    1   DCL I UBIN;
PL6.E3A0      #001=DAD$USRT File=DAD$USRT.:E05TSI                                TUE 07/29/97 12:48 Page:17
      107      107    1   DCL J SBIN;
      108      108    1   DCL NUPGE UBIN;
      109      109        %INCLUDE SS_SCHED_C;
      110      342        %S_STATE (FPTN=S);
      111      374        %S_RSTATE (FPTN=RQ);
      112      387    1   DCL M(0:4) CHAR(4) CONSTANT INIT('?','B   ','G   ','O   ','T   ');
      113      388        %INCLUDE DA_FORMAT_C;
      114      630        %INCLUDE DA_ANLZ_R;
      115      643        %INCLUDE DA_MAP_R;
      116      673        %REPORT (NAME=URPRT,TITLE='USER TABLES',HEADER=YES);
      117      739        %HEADER (TEXTADR=HDRBUF,LAST=NO);
      118      781        %HEADER (TEXTADR=HDRBUF2);
      119      823        %INCLUDE XU_MACRO_C;
      120     3929        %PARSE$OUT (NAME=TOP,STCLASS=" ");
      121     3974        %PARSE$OUT (NAME=OUT,STCLASS=BASED);
      122     4019        %INCLUDE B$OBJECT_C;
      123     7449        %B$SDEF;
      124     7503        %INCLUDE B$USER;
      125     7719        %B$USERREFS;
      126     7723        %SUB NEVER="WHILE('0'B)";
      127     7724        %SUB FOREVER="WHILE('1'B)";
      128     7725        %EJECT;
PL6.E3A0      #001=DAD$USRT File=DAD$USRT.:E05TSI                                TUE 07/29/97 12:48 Page:18
      129     7726    1           CALL DAF$INIT(URPRT);

   7726  2 000002   000000 630400 3                  EPPR0   0
         2 000003   000017 631400 xsym               EPPR1   B_VECTNIL+15
         2 000004   000000 701000 xent               TSX1    DAF$INIT
         2 000005   000000 011000                    NOP     0

      130     7727    2           DO I = 0 TO 1;

   7727  2 000006   200074 450100                    STZ     I,,AUTO

      131     7728    3              DO CASE(I);

   7728  2 000007   200074 235100                    LDA     I,,AUTO
         2 000010   000002 115007                    CMPA    2,DL
         2 000011   000013 602005 2                  TNC     s:7728+4,AL
         2 000012   000044 710000 2                  TRA     s:7741
         2 000013   000015 710000 2                  TRA     s:7730
         2 000014   000030 710000 2                  TRA     s:7735

      132     7729    3               CASE(0);

      133     7730    3                 HDRBUF.TX=UHDR0;

   7730  2 000015   040000 100400                    MLR     fill='040'O
         2 000016   000000 000114 0                  ADSC9   UHDR0                    cn=0,n=76
         2 000017   000000 200204 1                  ADSC9   HDRBUF                   cn=1,n=132

      134     7731    3                 HDRBUF.CT=SIZEC(UHDR0);

   7731  2 000020   114000 236003                    LDQ     38912,DU
         2 000021   000000 552040 1                  STBQ    HDRBUF,'40'O

      135     7732    3                 HDRBUF2.TX=UULINE0;

   7732  2 000022   040000 100400                    MLR     fill='040'O
         2 000023   000023 000115 0                  ADSC9   UULINE0                  cn=0,n=77
PL6.E3A0      #001=DAD$USRT File=DAD$USRT.:E05TSI                                TUE 07/29/97 12:48 Page:19
         2 000024   000042 200204 1                  ADSC9   HDRBUF2                  cn=1,n=132

      136     7733    3                 HDRBUF2.CT=SIZEC(UULINE0);

   7733  2 000025   115000 236003                    LDQ     39424,DU
         2 000026   000042 552040 1                  STBQ    HDRBUF2,'40'O
         2 000027   000044 710000 2                  TRA     s:7741

      137     7734    3               CASE(1);

      138     7735    3                 HDRBUF.TX=UHDR1;

   7735  2 000030   040000 100400                    MLR     fill='040'O
         2 000031   000047 000114 0                  ADSC9   UHDR1                    cn=0,n=76
         2 000032   000000 200204 1                  ADSC9   HDRBUF                   cn=1,n=132

      139     7736    3                 HDRBUF.CT=SIZEC(UHDR1);

   7736  2 000033   114000 236003                    LDQ     38912,DU
         2 000034   000000 552040 1                  STBQ    HDRBUF,'40'O

      140     7737    3                 HDRBUF2.TX=UULINE1;

   7737  2 000035   040000 100400                    MLR     fill='040'O
         2 000036   000072 000114 0                  ADSC9   UULINE1                  cn=0,n=76
         2 000037   000042 200204 1                  ADSC9   HDRBUF2                  cn=1,n=132

      141     7738    3                 HDRBUF2.CT=SIZEC(UULINE1);

   7738  2 000040   000042 552040 1                  STBQ    HDRBUF2,'40'O

      142     7739    3                 CALL DAF$NEWPAGE;

   7739  2 000041   000002 631400 xsym               EPPR1   B_VECTNIL+2
         2 000042   000000 701000 xent               TSX1    DAF$NEWPAGE
         2 000043   000000 011000                    NOP     0

PL6.E3A0      #001=DAD$USRT File=DAD$USRT.:E05TSI                                TUE 07/29/97 12:48 Page:20
      143     7740    3               END;

      144     7741    3              IF TOP.NSUBLKS=0 THEN DO;

   7741  2 000044   200003 470500                    LDP0    @TOP,,AUTO
         2 000045   000001 220100                    LDX0    1,,PR0
         2 000046   000074 601000 2                  TNZ     s:7748

      145     7742    4                 DO DA_CUN=1 TO DA_MUAIS;

   7742  2 000047   000001 235007                    LDA     1,DL
         2 000050   000000 755000 xsym               STA     DA_CUN
         2 000051   000070 710000 2                  TRA     s:7745+1

      146     7743    4                    IF B$USRT$->B$USER.US(DA_CUN)~=%SS_SNULL THEN

   7743  2 000052   000000 235000 xsym               LDA     DA_CUN
         2 000053   000004 735000                    ALS     4
         2 000054   000000 470400 xsym               LDP0    B$USRT$
         2 000055   000011 236105                    LDQ     9,AL,PR0
         2 000056   770000 376003                    ANQ     -4096,DU
         2 000057   300000 116003                    CMPQ    98304,DU
         2 000060   000067 600000 2                  TZE     s:7745

      147     7744    4                       CALL DUSR(I,DA_CUN);

   7744  2 000061   000001 236000 3                  LDQ     1
         2 000062   200102 756100                    STQ     @U+1,,AUTO
         2 000063   200074 631500                    EPPR1   I,,AUTO
         2 000064   200101 451500                    STP1    NUPGE+3,,AUTO
         2 000065   000220 701000 2                  TSX1    DUSR
         2 000066   000000 011000                    NOP     0

      148     7745    4                    END;

   7745  2 000067   000000 054000 xsym               AOS     DA_CUN
         2 000070   000000 236000 xsym               LDQ     DA_CUN
PL6.E3A0      #001=DAD$USRT File=DAD$USRT.:E05TSI                                TUE 07/29/97 12:48 Page:21
         2 000071   000000 116000 xsym               CMPQ    DA_MUAIS
         2 000072   000052 604400 2                  TMOZ    s:7743

      149     7746    3                 END;

   7746  2 000073   000124 710000 2                  TRA     s:7756

      150     7747    3              ELSE DO;

      151     7748    4                 DO J=0 TO TOP.NSUBLKS-1;

   7748  2 000074   200075 450100                    STZ     J,,AUTO
         2 000075   000117 710000 2                  TRA     NXT+1

      152     7749    4                    DA_CUN=0;

   7749  2 000076   000000 450000 xsym               STZ     DA_CUN

      153     7750    5                    DO FOREVER;

      154     7751    5                       CALL DAA$NXTUSR(TOP.SUBLK$(J)->OUT) ALTRET(NXT);

   7751  2 000077   200003 470500                    LDP0    @TOP,,AUTO
         2 000100   200075 720100                    LXL0    J,,AUTO
         2 000101   000003 471510                    LDP1    3,X0,PR0
         2 000102   200106 451500                    STP1    USR+2,,AUTO
         2 000103   200106 630500                    EPPR0   USR+2,,AUTO
         2 000104   000017 631400 xsym               EPPR1   B_VECTNIL+15
         2 000105   000000 701000 xent               TSX1    DAA$NXTUSR
         2 000106   000116 702000 2                  TSX2    NXT

      155     7752    5                       CALL DUSR(I,DA_CUN);

   7752  2 000107   000001 236000 3                  LDQ     1
         2 000110   200102 756100                    STQ     @U+1,,AUTO
         2 000111   200074 630500                    EPPR0   I,,AUTO
         2 000112   200101 450500                    STP0    NUPGE+3,,AUTO
PL6.E3A0      #001=DAD$USRT File=DAD$USRT.:E05TSI                                TUE 07/29/97 12:48 Page:22
         2 000113   000220 701000 2                  TSX1    DUSR
         2 000114   000000 011000                    NOP     0

      156     7753    5                       END;

   7753  2 000115   000077 710000 2                  TRA     s:7751

      157     7754    4   NXT:             END;

   7754  2 000116   200075 054100       NXT          AOS     J,,AUTO
         2 000117   200003 470500                    LDP0    @TOP,,AUTO
         2 000120   000001 236100                    LDQ     1,,PR0
         2 000121   000022 772000                    QRL     18
         2 000122   200075 116100                    CMPQ    J,,AUTO
         2 000123   000076 605400 2                  TPNZ    s:7749

      158     7755    3                 END;

      159     7756    2              END;

   7756  2 000124   200074 235100                    LDA     I,,AUTO
         2 000125   000001 035007                    ADLA    1,DL
         2 000126   200074 755100                    STA     I,,AUTO
         2 000127   000002 115007                    CMPA    2,DL
         2 000130   000007 602000 2                  TNC     s:7728

      160     7757    1           HDRBUF.TX=DHDR;

   7757  2 000131   040000 100400                    MLR     fill='040'O
         2 000132   000115 000120 0                  ADSC9   DHDR                     cn=0,n=80
         2 000133   000000 200204 1                  ADSC9   HDRBUF                   cn=1,n=132

      161     7758    1           HDRBUF.CT=SIZEC(DHDR);

   7758  2 000134   120000 236003                    LDQ     40960,DU
         2 000135   000000 552040 1                  STBQ    HDRBUF,'40'O

PL6.E3A0      #001=DAD$USRT File=DAD$USRT.:E05TSI                                TUE 07/29/97 12:48 Page:23
      162     7759    1           HDRBUF2.TX=DULINE;

   7759  2 000136   040000 100400                    MLR     fill='040'O
         2 000137   000141 000120 0                  ADSC9   DULINE                   cn=0,n=80
         2 000140   000042 200204 1                  ADSC9   HDRBUF2                  cn=1,n=132

      163     7760    1           HDRBUF2.CT=SIZEC(DULINE);

   7760  2 000141   000042 552040 1                  STBQ    HDRBUF2,'40'O

      164     7761    1           NUPGE=0;

   7761  2 000142   200076 450100                    STZ     NUPGE,,AUTO

      165     7762    2           IF TOP.NSUBLKS=0 THEN DO;

   7762  2 000143   200003 470500                    LDP0    @TOP,,AUTO
         2 000144   000001 220100                    LDX0    1,,PR0
         2 000145   000171 601000 2                  TNZ     s:7769

      166     7763    3              DO DA_CUN=1 TO DA_MUAIS;

   7763  2 000146   000001 235007                    LDA     1,DL
         2 000147   000000 755000 xsym               STA     DA_CUN
         2 000150   000165 710000 2                  TRA     s:7766+1

      167     7764    3                 IF B$USRT$->B$USER.US(DA_CUN)~=%SS_SNULL THEN

   7764  2 000151   000000 235000 xsym               LDA     DA_CUN
         2 000152   000004 735000                    ALS     4
         2 000153   000000 470400 xsym               LDP0    B$USRT$
         2 000154   000011 236105                    LDQ     9,AL,PR0
         2 000155   770000 376003                    ANQ     -4096,DU
         2 000156   300000 116003                    CMPQ    98304,DU
         2 000157   000164 600000 2                  TZE     s:7766

      168     7765    3                    CALL DDOUSR(DA_CUN);
PL6.E3A0      #001=DAD$USRT File=DAD$USRT.:E05TSI                                TUE 07/29/97 12:48 Page:24

   7765  2 000160   000001 236000 3                  LDQ     1
         2 000161   200101 756100                    STQ     NUPGE+3,,AUTO
         2 000162   000525 701000 2                  TSX1    DDOUSR
         2 000163   000000 011000                    NOP     0

      169     7766    3                 END;

   7766  2 000164   000000 054000 xsym               AOS     DA_CUN
         2 000165   000000 236000 xsym               LDQ     DA_CUN
         2 000166   000000 116000 xsym               CMPQ    DA_MUAIS
         2 000167   000151 604400 2                  TMOZ    s:7764

      170     7767    2              END;

   7767  2 000170   000217 710000 2                  TRA     ERR

      171     7768    2           ELSE DO;

      172     7769    3              DO J=0 TO TOP.NSUBLKS-1;

   7769  2 000171   200075 450100                    STZ     J,,AUTO
         2 000172   000212 710000 2                  TRA     NXT_SPEC+1

      173     7770    3                 DA_CUN=0;

   7770  2 000173   000000 450000 xsym               STZ     DA_CUN

      174     7771    4                 DO FOREVER;

      175     7772    4                    CALL DAA$NXTUSR(TOP.SUBLK$(J)->OUT) ALTRET(NXT_SPEC);

   7772  2 000174   200003 470500                    LDP0    @TOP,,AUTO
         2 000175   200075 720100                    LXL0    J,,AUTO
         2 000176   000003 471510                    LDP1    3,X0,PR0
         2 000177   200106 451500                    STP1    USR+2,,AUTO
         2 000200   200106 630500                    EPPR0   USR+2,,AUTO
PL6.E3A0      #001=DAD$USRT File=DAD$USRT.:E05TSI                                TUE 07/29/97 12:48 Page:25
         2 000201   000017 631400 xsym               EPPR1   B_VECTNIL+15
         2 000202   000000 701000 xent               TSX1    DAA$NXTUSR
         2 000203   000211 702000 2                  TSX2    NXT_SPEC

      176     7773    4                    CALL DDOUSR(DA_CUN);

   7773  2 000204   000001 236000 3                  LDQ     1
         2 000205   200101 756100                    STQ     NUPGE+3,,AUTO
         2 000206   000525 701000 2                  TSX1    DDOUSR
         2 000207   000000 011000                    NOP     0

      177     7774    4                    END;

   7774  2 000210   000174 710000 2                  TRA     s:7772

      178     7775    3   NXT_SPEC:     END;

   7775  2 000211   200075 054100       NXT_SPEC     AOS     J,,AUTO
         2 000212   200003 470500                    LDP0    @TOP,,AUTO
         2 000213   000001 236100                    LDQ     1,,PR0
         2 000214   000022 772000                    QRL     18
         2 000215   200075 116100                    CMPQ    J,,AUTO
         2 000216   000173 605400 2                  TPNZ    s:7770

      179     7776    2              END;

      180     7777    1   ERR:    RETURN;                         /* NORMAL AND ERROR RETURN            */

   7777  2 000217   000000 702200 xent  ERR          TSX2  ! X66_ARET

      181     7778        %EJECT;
PL6.E3A0      #001=DAD$USRT File=DAD$USRT.:E05TSI                                TUE 07/29/97 12:48 Page:26
      182     7779    1   DUSR:   PROC(I,U);

   7779  2 000220   200100 741300       DUSR         STX1  ! NUPGE+2,,AUTO

      183     7780    2   DCL U UBIN;
      184     7781    2   DCL I UBIN;
      185     7782    2   DCL MODE CHAR(1);
      186     7783    2   DCL USR UBIN;
      187     7784    2           USR=U;

   7784  2 000221   200102 470500                    LDP0    @U,,AUTO
         2 000222   000000 235100                    LDA     0,,PR0
         2 000223   200104 755100                    STA     USR,,AUTO

      188     7785    3           DO CASE(I);

   7785  2 000224   200101 471500                    LDP1    @I,,AUTO
         2 000225   100000 235100                    LDA     0,,PR1
         2 000226   000002 115007                    CMPA    2,DL
         2 000227   000231 602005 2                  TNC     s:7785+5,AL
         2 000230   000523 710000 2                  TRA     s:7819
         2 000231   000233 710000 2                  TRA     s:7787
         2 000232   000411 710000 2                  TRA     s:7806

      189     7786    3            CASE(0);

      190     7787    3              MODE=M(B$USRT$->B$USER.MODE(USR));

   7787  2 000233   200104 236100                    LDQ     USR,,AUTO
         2 000234   000004 736000                    QLS     4
         2 000235   000000 473400 xsym               LDP3    B$USRT$
         2 000236   300011 236106                    LDQ     9,QL,PR3
         2 000237   000006 772000                    QRL     6
         2 000240   000077 376007                    ANQ     63,DL
         2 000241   000341 236006 0                  LDQ     M,QL
         2 000242   777000 376003                    ANQ     -512,DU
         2 000243   000002 276000 3                  ORQ     2
PL6.E3A0      #001=DAD$USRT File=DAD$USRT.:E05TSI                                TUE 07/29/97 12:48 Page:27
         2 000244   200103 756100                    STQ     MODE,,AUTO

      191     7788    3              USER.FL=B$USRT$->B$USER.FL(USR);

   7788  2 000245   200104 235100                    LDA     USR,,AUTO
         2 000246   000004 735000                    ALS     4
         2 000247   300002 235105                    LDA     2,AL,PR3
         2 000250   200004 755100                    STA     USER,,AUTO

      192     7789    3              USER.BL=B$USRT$->B$USER.BL(USR);

   7789  2 000251   200104 235100                    LDA     USR,,AUTO
         2 000252   000004 735000                    ALS     4
         2 000253   300003 235105                    LDA     3,AL,PR3
         2 000254   200005 755100                    STA     USER+1,,AUTO

      193     7790    3              IF B$USRT$->B$USER.US(USR) = %SS_SQR THEN

   7790  2 000255   200104 235100                    LDA     USR,,AUTO
         2 000256   000004 735000                    ALS     4
         2 000257   300011 236105                    LDQ     9,AL,PR3
         2 000260   770000 376003                    ANQ     -4096,DU
         2 000261   240000 116003                    CMPQ    81920,DU
         2 000262   000270 601000 2                  TNZ     s:7793

      194     7791    3                 USER.US=RQ(B$USRT$->B$USER.PRIO(USR));

   7791  2 000263   300011 220105                    LDX0    9,AL,PR3
         2 000264   000077 360003                    ANX0    63,DU
         2 000265   000333 236010 0                  LDQ     RQ,X0
         2 000266   200006 756100                    STQ     USER+2,,AUTO
         2 000267   000274 710000 2                  TRA     s:7794

      195     7792    3              ELSE
      196     7793    3                 USER.US=S(B$USRT$->B$USER.US(USR));

   7793  2 000270   300011 236105                    LDQ     9,AL,PR3
PL6.E3A0      #001=DAD$USRT File=DAD$USRT.:E05TSI                                TUE 07/29/97 12:48 Page:28
         2 000271   000036 772000                    QRL     30
         2 000272   000302 236006 0                  LDQ     S,QL
         2 000273   200006 756100                    STQ     USER+2,,AUTO

      197     7794    3              USER.SQ=B$USRT$->B$USER.SQ(USR);

   7794  2 000274   300010 236105                    LDQ     8,AL,PR3
         2 000275   000011 772000                    QRL     9
         2 000276   000777 376007                    ANQ     511,DL
         2 000277   200007 756100                    STQ     USER+3,,AUTO

      198     7795    3              USER.FLG=BITBIN(B$USRT$->B$USER.FLG(USR));

   7795  2 000300   300000 235105                    LDA     0,AL,PR3
         2 000301   200010 755100                    STA     USER+4,,AUTO

      199     7796    3              USER.ASYNCH=BITBIN(B$USRT$->B$USER.ASYNCH(USR));

   7796  2 000302   200104 235100                    LDA     USR,,AUTO
         2 000303   000004 735000                    ALS     4
         2 000304   300001 235105                    LDA     1,AL,PR3
         2 000305   200011 755100                    STA     USER+5,,AUTO

      200     7797    3              USER.PCT=B$USRT$->B$USER.PCT(USR);

   7797  2 000306   200104 235100                    LDA     USR,,AUTO
         2 000307   000004 735000                    ALS     4
         2 000310   300010 236105                    LDQ     8,AL,PR3
         2 000311   000022 772000                    QRL     18
         2 000312   200012 756100                    STQ     USER+6,,AUTO

      201     7798    3              USER.PRIO=B$USRT$->B$USER.PRIO(USR);

   7798  2 000313   300011 236105                    LDQ     9,AL,PR3
         2 000314   000022 772000                    QRL     18
         2 000315   000077 376007                    ANQ     63,DL
         2 000316   200013 756100                    STQ     USER+7,,AUTO
PL6.E3A0      #001=DAD$USRT File=DAD$USRT.:E05TSI                                TUE 07/29/97 12:48 Page:29

      202     7799    3              USER.PRIOB=B$USRT$->B$USER.PRIOB(USR);

   7799  2 000317   300011 236105                    LDQ     9,AL,PR3
         2 000320   000014 772000                    QRL     12
         2 000321   000077 376007                    ANQ     63,DL
         2 000322   200014 756100                    STQ     USER+8,,AUTO

      203     7800    3              USER.MF=B$USRT$->B$USER.MF(USR);

   7800  2 000323   300006 236105                    LDQ     6,AL,PR3
         2 000324   000033 772000                    QRL     27
         2 000325   200015 756100                    STQ     USER+9,,AUTO

      204     7801    3              USER.CMF=B$USRT$->B$USER.CMF(USR);

   7801  2 000326   300007 236105                    LDQ     7,AL,PR3
         2 000327   000077 376007                    ANQ     63,DL
         2 000330   200016 756100                    STQ     USER+10,,AUTO

      205     7802    3              USER.CPU=B$USRT$->B$USER.CPU(USR);

   7802  2 000331   300010 236105                    LDQ     8,AL,PR3
         2 000332   000777 376007                    ANQ     511,DL
         2 000333   200017 756100                    STQ     USER+11,,AUTO

      206     7803    3              CALL DAF$WRITE(VECTOR(UFMT0),VECTOR(B$USRT$->B$USER.SYSID(USR)),

   7803  2 000334   377640 235007                    LDA     130976,DL
         2 000335   200104 236100                    LDQ     USR,,AUTO
         2 000336   000026 736000                    QLS     22
         2 000337   000003 036000 3                  ADLQ    3
         2 000340   000000 036000 xsym               ADLQ    B$USRT$
         2 000341   200106 757100                    STAQ    USR+2,,AUTO
         2 000342   177640 235007                    LDA     65440,DL
         2 000343   200110 452500                    STP2    USR+4,,AUTO
         2 000344   200110 236100                    LDQ     USR+4,,AUTO
PL6.E3A0      #001=DAD$USRT File=DAD$USRT.:E05TSI                                TUE 07/29/97 12:48 Page:30
         2 000345   000103 036003                    ADLQ    67,DU
         2 000346   200112 757100                    STAQ    USR+6,,AUTO
         2 000347   777640 235007                    LDA     -96,DL
         2 000350   200114 452500                    STP2    USR+8,,AUTO
         2 000351   200114 236100                    LDQ     USR+8,,AUTO
         2 000352   000104 036003                    ADLQ    68,DU
         2 000353   200116 757100                    STAQ    USR+10,,AUTO
         2 000354   000006 235000 3                  LDA     6
         2 000355   200120 452500                    STP2    USR+12,,AUTO
         2 000356   200120 236100                    LDQ     USR+12,,AUTO
         2 000357   000004 036003                    ADLQ    4,DU
         2 000360   200124 757100                    STAQ    USR+16,,AUTO
         2 000361   200106 237100                    LDAQ    USR+2,,AUTO
         2 000362   200122 757100                    STAQ    USR+14,,AUTO
         2 000363   200112 237100                    LDAQ    USR+6,,AUTO
         2 000364   200126 757100                    STAQ    USR+18,,AUTO
         2 000365   200116 237100                    LDAQ    USR+10,,AUTO
         2 000366   200130 757100                    STAQ    USR+20,,AUTO
         2 000367   200124 237100                    LDAQ    USR+16,,AUTO
         2 000370   200132 757100                    STAQ    USR+22,,AUTO
         2 000371   200132 634500                    EPPR4   USR+22,,AUTO
         2 000372   200140 454500                    STP4    USR+28,,AUTO
         2 000373   200130 635500                    EPPR5   USR+20,,AUTO
         2 000374   200137 455500                    STP5    USR+27,,AUTO
         2 000375   200126 636500                    EPPR6   USR+18,,AUTO
         2 000376   200136 456500                    STP6    USR+26,,AUTO
         2 000377   200122 637500                    EPPR7   USR+14,,AUTO
         2 000400   200135 457500                    STP7    USR+25,,AUTO
         2 000401   000007 236000 3                  LDQ     7
         2 000402   200134 756100                    STQ     USR+24,,AUTO
         2 000403   200134 630500                    EPPR0   USR+24,,AUTO
         2 000404   000000 220000 xsym               LDX0    DAF$WRITE
         2 000405   000023 631400 xsym               EPPR1   B_VECTNIL+19
         2 000406   000000 701010                    TSX1    0,X0
         2 000407   000000 011000                    NOP     0
         2 000410   000523 710000 2                  TRA     s:7819

PL6.E3A0      #001=DAD$USRT File=DAD$USRT.:E05TSI                                TUE 07/29/97 12:48 Page:31
      207     7804    3                VECTOR(MODE),VECTOR(USR),VECTOR(ADDR(USER)->UV0));
      208     7805    3            CASE(1);

      209     7806    3              USER.ACP=B$USRT$->B$USER.ACP(USR);

   7806  2 000411   200104 236100                    LDQ     USR,,AUTO
         2 000412   000004 736000                    QLS     4
         2 000413   000000 473400 xsym               LDP3    B$USRT$
         2 000414   300006 236106                    LDQ     6,QL,PR3
         2 000415   000022 772000                    QRL     18
         2 000416   000777 376007                    ANQ     511,DL
         2 000417   200020 756100                    STQ     USER+12,,AUTO

      210     7807    3              USER.DB=B$USRT$->B$USER.DB(USR);

   7807  2 000420   200104 235100                    LDA     USR,,AUTO
         2 000421   000004 735000                    ALS     4
         2 000422   300006 236105                    LDQ     6,AL,PR3
         2 000423   000011 772000                    QRL     9
         2 000424   000777 376007                    ANQ     511,DL
         2 000425   200021 756100                    STQ     USER+13,,AUTO

      211     7808    3              USER.ASL=B$USRT$->B$USER.ASL(USR);

   7808  2 000426   300006 236105                    LDQ     6,AL,PR3
         2 000427   000777 376007                    ANQ     511,DL
         2 000430   200022 756100                    STQ     USER+14,,AUTO

      212     7809    3              USER.APR=B$USRT$->B$USER.APR(USR);

   7809  2 000431   300007 236105                    LDQ     7,AL,PR3
         2 000432   000030 772000                    QRL     24
         2 000433   200023 756100                    STQ     USER+15,,AUTO

      213     7810    3              USER.APO=B$USRT$->B$USER.APO(USR);

   7810  2 000434   300007 236105                    LDQ     7,AL,PR3
PL6.E3A0      #001=DAD$USRT File=DAD$USRT.:E05TSI                                TUE 07/29/97 12:48 Page:32
         2 000435   000014 772000                    QRL     12
         2 000436   007777 376007                    ANQ     4095,DL
         2 000437   200024 756100                    STQ     USER+16,,AUTO

      214     7811    3              USER.ASP=B$USRT$->B$USER.ASP(USR);

   7811  2 000440   300007 236105                    LDQ     7,AL,PR3
         2 000441   000006 772000                    QRL     6
         2 000442   000077 376007                    ANQ     63,DL
         2 000443   200025 756100                    STQ     USER+17,,AUTO

      215     7812    3              USER.PT=B$USRT$->B$USER.PT(USR);

   7812  2 000444   300014 236105                    LDQ     12,AL,PR3
         2 000445   000022 772000                    QRL     18
         2 000446   200026 756100                    STQ     USER+18,,AUTO

      216     7813    3              USER.ENQ=B$USRT$->B$USER.ENQ(USR);

   7813  2 000447   300016 236105                    LDQ     14,AL,PR3
         2 000450   200027 756100                    STQ     USER+19,,AUTO

      217     7814    3              USER.MISC=B$USRT$->B$USER.MISC(USR);

   7814  2 000451   300017 235105                    LDA     15,AL,PR3
         2 000452   200030 755100                    STA     USER+20,,AUTO

      218     7815    3              USER.WOO=B$USRT$->B$USER.WOO(USR);

   7815  2 000453   200104 235100                    LDA     USR,,AUTO
         2 000454   000006 735000                    ALS     6
         2 000455   040100 100505                    MLR     fill='040'O
         2 000456   300012 000010                    ADSC9   10,A,PR3                 cn=0,n=8
         2 000457   200031 000010                    ADSC9   USER+21,,AUTO            cn=0,n=8

      219     7816    3              CALL DAF$WRITE(VECTOR(UFMT1),VECTOR(B$USRT$->B$USER.SYSID(USR)),

PL6.E3A0      #001=DAD$USRT File=DAD$USRT.:E05TSI                                TUE 07/29/97 12:48 Page:33
   7816  2 000460   377640 235007                    LDA     130976,DL
         2 000461   200104 236100                    LDQ     USR,,AUTO
         2 000462   000026 736000                    QLS     22
         2 000463   000003 036000 3                  ADLQ    3
         2 000464   000000 036000 xsym               ADLQ    B$USRT$
         2 000465   200106 757100                    STAQ    USR+2,,AUTO
         2 000466   777640 235007                    LDA     -96,DL
         2 000467   200110 452500                    STP2    USR+4,,AUTO
         2 000470   200110 236100                    LDQ     USR+4,,AUTO
         2 000471   000104 036003                    ADLQ    68,DU
         2 000472   200112 757100                    STAQ    USR+6,,AUTO
         2 000473   000012 235000 3                  LDA     10
         2 000474   200114 452500                    STP2    USR+8,,AUTO
         2 000475   200114 236100                    LDQ     USR+8,,AUTO
         2 000476   000020 036003                    ADLQ    16,DU
         2 000477   200120 757100                    STAQ    USR+12,,AUTO
         2 000500   200106 237100                    LDAQ    USR+2,,AUTO
         2 000501   200116 757100                    STAQ    USR+10,,AUTO
         2 000502   200112 237100                    LDAQ    USR+6,,AUTO
         2 000503   200122 757100                    STAQ    USR+14,,AUTO
         2 000504   200120 237100                    LDAQ    USR+12,,AUTO
         2 000505   200124 757100                    STAQ    USR+16,,AUTO
         2 000506   200124 634500                    EPPR4   USR+16,,AUTO
         2 000507   200131 454500                    STP4    USR+21,,AUTO
         2 000510   200122 635500                    EPPR5   USR+14,,AUTO
         2 000511   200130 455500                    STP5    USR+20,,AUTO
         2 000512   200116 636500                    EPPR6   USR+10,,AUTO
         2 000513   200127 456500                    STP6    USR+19,,AUTO
         2 000514   000013 236000 3                  LDQ     11
         2 000515   200126 756100                    STQ     USR+18,,AUTO
         2 000516   200126 630500                    EPPR0   USR+18,,AUTO
         2 000517   000000 220000 xsym               LDX0    DAF$WRITE
         2 000520   000022 631400 xsym               EPPR1   B_VECTNIL+18
         2 000521   000000 701010                    TSX1    0,X0
         2 000522   000000 011000                    NOP     0

      220     7817    3                VECTOR(USR),VECTOR(ADDR(USER.ACP)->UV1));
PL6.E3A0      #001=DAD$USRT File=DAD$USRT.:E05TSI                                TUE 07/29/97 12:48 Page:34
      221     7818    3            END;

      222     7819    2           RETURN;

   7819  2 000523   200100 221300                    LDX1  ! NUPGE+2,,AUTO
         2 000524   000001 702211                    TSX2  ! 1,X1

      223     7820    2   END DUSR;
      224     7821        %EJECT;
PL6.E3A0      #001=DAD$USRT File=DAD$USRT.:E05TSI                                TUE 07/29/97 12:48 Page:35
      225     7822    1   DDOUSR: PROC(U);

   7822  2 000525   200100 741300       DDOUSR       STX1  ! NUPGE+2,,AUTO

      226     7823    2   DCL U UBIN;
      227     7824    2   DCL J SBIN;
      228     7825    2   DCL USR UBIN;
      229     7826    2           USR=U;

   7826  2 000526   200101 470500                    LDP0    @U,,AUTO
         2 000527   000000 235100                    LDA     0,,PR0
         2 000530   200103 755100                    STA     USR,,AUTO

      230     7827    2           MV.P$=B$USRT$->B$USER.DL$(USR);

   7827  2 000531   000004 735000                    ALS     4
         2 000532   000000 471400 xsym               LDP1    B$USRT$
         2 000533   100015 236105                    LDQ     13,AL,PR1
         2 000534   000105 756000 1                  STQ     MV+1

      231     7828    2   NXDO:   IF MV.P$ = ADDR(NIL) THEN RETURN;

   7828  2 000535   000105 236000 1     NXDO         LDQ     MV+1
         2 000536   000001 116000 xsym               CMPQ    B_VECTNIL+1
         2 000537   000542 601000 2                  TNZ     s:7829

   7828  2 000540   200100 221300                    LDX1  ! NUPGE+2,,AUTO
         2 000541   000001 702211                    TSX2  ! 1,X1

      232     7829    2           CALL DAM$MAP(MV.P$,P$,0,0,MV) ALTRET(DOERR);

   7829  2 000542   000014 236000 3                  LDQ     12
         2 000543   200112 756100                    STQ     USR+6,,AUTO
         2 000544   000016 237000 3                  LDAQ    14
         2 000545   200110 757100                    STAQ    USR+4,,AUTO
         2 000546   200073 630500                    EPPR0   P$,,AUTO
         2 000547   200107 450500                    STP0    USR+3,,AUTO
PL6.E3A0      #001=DAD$USRT File=DAD$USRT.:E05TSI                                TUE 07/29/97 12:48 Page:36
         2 000550   000020 236000 3                  LDQ     16
         2 000551   200106 756100                    STQ     USR+2,,AUTO
         2 000552   200106 630500                    EPPR0   USR+2,,AUTO
         2 000553   000023 631400 xsym               EPPR1   B_VECTNIL+19
         2 000554   000000 701000 xent               TSX1    DAM$MAP
         2 000555   001030 702000 2                  TSX2    DOERR

      233     7830    2           UDO.SYSID=B$USRT$->B$USER.SYSID(USR);

   7830  2 000556   200103 235100                    LDA     USR,,AUTO
         2 000557   000004 735000                    ALS     4
         2 000560   000000 470400 xsym               LDP0    B$USRT$
         2 000561   000014 236105                    LDQ     12,AL,PR0
         2 000562   777777 376007                    ANQ     -1,DL
         2 000563   200033 756100                    STQ     UDO,,AUTO

      234     7831    2           UDO.USR#=USR;

   7831  2 000564   200103 235100                    LDA     USR,,AUTO
         2 000565   200034 755100                    STA     UDO+1,,AUTO

      235     7832    2           UDO.B=BITBIN(P$->B$DO.BUSY);

   7832  2 000566   200073 471500                    LDP1    P$,,AUTO
         2 000567   100002 236100                    LDQ     2,,PR1
         2 000570   000043 772000                    QRL     35
         2 000571   200035 756100                    STQ     UDO+2,,AUTO

      236     7833    2           UDO.C=BITBIN(P$->B$DO.CONT);

   7833  2 000572   100002 236100                    LDQ     2,,PR1
         2 000573   000042 772000                    QRL     34
         2 000574   000001 376007                    ANQ     1,DL
         2 000575   200036 756100                    STQ     UDO+3,,AUTO

      237     7834    2           UDO.I=BITBIN(P$->B$DO.SCHDDO);

PL6.E3A0      #001=DAD$USRT File=DAD$USRT.:E05TSI                                TUE 07/29/97 12:48 Page:37
   7834  2 000576   100002 236100                    LDQ     2,,PR1
         2 000577   000041 772000                    QRL     33
         2 000600   000001 376007                    ANQ     1,DL
         2 000601   200037 756100                    STQ     UDO+4,,AUTO

      238     7835    2           UDO.S=BITBIN(P$->B$DO.SAVE);

   7835  2 000602   100002 236100                    LDQ     2,,PR1
         2 000603   000040 772000                    QRL     32
         2 000604   000001 376007                    ANQ     1,DL
         2 000605   200040 756100                    STQ     UDO+5,,AUTO

      239     7836    2           UDO.WSR=P$->B$DO.WSR;

   7836  2 000606   100002 236100                    LDQ     2,,PR1
         2 000607   000022 772000                    QRL     18
         2 000610   000777 376007                    ANQ     511,DL
         2 000611   200042 756100                    STQ     UDO+7,,AUTO

      240     7837    2           UDO.ECCSC=P$->B$DO.ECCSC;

   7837  2 000612   100002 236100                    LDQ     2,,PR1
         2 000613   777777 376007                    ANQ     -1,DL
         2 000614   200043 756100                    STQ     UDO+8,,AUTO

      241     7838    2           UDO.DL$=MV.P$;

   7838  2 000615   000105 236000 1                  LDQ     MV+1
         2 000616   200041 756100                    STQ     UDO+6,,AUTO

      242     7839    2           UDO.ENTER=P$->B$DO.ENTER;

   7839  2 000617   100001 236100                    LDQ     1,,PR1
         2 000620   200044 756100                    STQ     UDO+9,,AUTO

      243     7840    2           UDO.EVID=P$->B$DO.EVID;

PL6.E3A0      #001=DAD$USRT File=DAD$USRT.:E05TSI                                TUE 07/29/97 12:48 Page:38
   7840  2 000621   100003 235100                    LDA     3,,PR1
         2 000622   200045 755100                    STA     UDO+10,,AUTO

      244     7841    2           UDO.ERRC=P$->B$DO.ERRC;

   7841  2 000623   100004 236100                    LDQ     4,,PR1
         2 000624   200046 756100                    STQ     UDO+11,,AUTO

      245     7842    2           UDO.N=P$->B$DO.ECCSZ;

   7842  2 000625   100005 235100                    LDA     5,,PR1
         2 000626   200047 755100                    STA     UDO+12,,AUTO

      246     7843    3           DO J = 0 TO 5;

   7843  2 000627   200102 450100                    STZ     J,,AUTO

      247     7844    3              UDOINFO(J)=P$->B$DO.ECCINFO(J);

   7844  2 000630   200073 470500                    LDP0    P$,,AUTO
         2 000631   200102 720100                    LXL0    J,,AUTO
         2 000632   000006 235110                    LDA     6,X0,PR0
         2 000633   200050 755110                    STA     UDOINFO,X0,AUTO

      248     7845    3              END;

   7845  2 000634   200102 054100                    AOS     J,,AUTO
         2 000635   200102 235100                    LDA     J,,AUTO
         2 000636   000005 115007                    CMPA    5,DL
         2 000637   000630 604400 2                  TMOZ    s:7844

      249     7846    2           IF NUPGE = 0 THEN

   7846  2 000640   200076 236100                    LDQ     NUPGE,,AUTO
         2 000641   000647 601000 2                  TNZ     s:7851

      250     7847    3           DO;
PL6.E3A0      #001=DAD$USRT File=DAD$USRT.:E05TSI                                TUE 07/29/97 12:48 Page:39

      251     7848    3              CALL DAF$NEWPAGE;

   7848  2 000642   000002 631400 xsym               EPPR1   B_VECTNIL+2
         2 000643   000000 701000 xent               TSX1    DAF$NEWPAGE
         2 000644   000000 011000                    NOP     0

      252     7849    3              NUPGE=99;

   7849  2 000645   000143 235007                    LDA     99,DL
         2 000646   200076 755100                    STA     NUPGE,,AUTO

      253     7850    3              END;

      254     7851    2           CALL DAF$WRITE(VECTOR(DOFMT),VECTOR(UDO));

   7851  2 000647   000024 235000 3                  LDA     20
         2 000650   200106 452500                    STP2    USR+2,,AUTO
         2 000651   200106 236100                    LDQ     USR+2,,AUTO
         2 000652   000033 036003                    ADLQ    27,DU
         2 000653   200110 757100                    STAQ    USR+4,,AUTO
         2 000654   200110 630500                    EPPR0   USR+4,,AUTO
         2 000655   200113 450500                    STP0    USR+7,,AUTO
         2 000656   000025 236000 3                  LDQ     21
         2 000657   200112 756100                    STQ     USR+6,,AUTO
         2 000660   200112 630500                    EPPR0   USR+6,,AUTO
         2 000661   000000 220000 xsym               LDX0    DAF$WRITE
         2 000662   000020 631400 xsym               EPPR1   B_VECTNIL+16
         2 000663   000000 701010                    TSX1    0,X0
         2 000664   000000 011000                    NOP     0

      255     7852    2           CALL DAF$WRITE(VECTOR(DOFMT2),VECTOR(UDOINFO));

   7852  2 000665   000030 235000 3                  LDA     24
         2 000666   200106 452500                    STP2    USR+2,,AUTO
         2 000667   200106 236100                    LDQ     USR+2,,AUTO
         2 000670   000050 036003                    ADLQ    40,DU
PL6.E3A0      #001=DAD$USRT File=DAD$USRT.:E05TSI                                TUE 07/29/97 12:48 Page:40
         2 000671   200110 757100                    STAQ    USR+4,,AUTO
         2 000672   200110 630500                    EPPR0   USR+4,,AUTO
         2 000673   200113 450500                    STP0    USR+7,,AUTO
         2 000674   000031 236000 3                  LDQ     25
         2 000675   200112 756100                    STQ     USR+6,,AUTO
         2 000676   200112 630500                    EPPR0   USR+6,,AUTO
         2 000677   000000 220000 xsym               LDX0    DAF$WRITE
         2 000700   000020 631400 xsym               EPPR1   B_VECTNIL+16
         2 000701   000000 701010                    TSX1    0,X0
         2 000702   000000 011000                    NOP     0

      256     7853    2   NXCD0:  MV.P$=P$->B$DO.LNK$;

   7853  2 000703   200073 470500       NXCD0        LDP0    P$,,AUTO
         2 000704   000000 236100                    LDQ     0,,PR0
         2 000705   000105 756000 1                  STQ     MV+1

      257     7854    2           IF P$->B$DO.CONT THEN

   7854  2 000706   000002 236100                    LDQ     2,,PR0
         2 000707   200000 316003                    CANQ    65536,DU
         2 000710   001027 600000 2                  TZE     s:7872

      258     7855    3           DO;

      259     7856    3              CALL DAM$MAP(MV.P$,P$,0,0,MV) ALTRET(DOERR);

   7856  2 000711   000014 236000 3                  LDQ     12
         2 000712   200112 756100                    STQ     USR+6,,AUTO
         2 000713   000016 237000 3                  LDAQ    14
         2 000714   200110 757100                    STAQ    USR+4,,AUTO
         2 000715   200073 631500                    EPPR1   P$,,AUTO
         2 000716   200107 451500                    STP1    USR+3,,AUTO
         2 000717   000020 236000 3                  LDQ     16
         2 000720   200106 756100                    STQ     USR+2,,AUTO
         2 000721   200106 630500                    EPPR0   USR+2,,AUTO
         2 000722   000023 631400 xsym               EPPR1   B_VECTNIL+19
PL6.E3A0      #001=DAD$USRT File=DAD$USRT.:E05TSI                                TUE 07/29/97 12:48 Page:41
         2 000723   000000 701000 xent               TSX1    DAM$MAP
         2 000724   001030 702000 2                  TSX2    DOERR

      260     7857    3              CDO.SYSID=B$USRT$->B$USER.SYSID(USR);

   7857  2 000725   200103 235100                    LDA     USR,,AUTO
         2 000726   000004 735000                    ALS     4
         2 000727   000000 470400 xsym               LDP0    B$USRT$
         2 000730   000014 236105                    LDQ     12,AL,PR0
         2 000731   777777 376007                    ANQ     -1,DL
         2 000732   200056 756100                    STQ     CDO,,AUTO

      261     7858    3              CDO.USR#=USR;

   7858  2 000733   200103 235100                    LDA     USR,,AUTO
         2 000734   200057 755100                    STA     CDO+1,,AUTO

      262     7859    3              CDO.B=BITBIN(P$->B$DO.BUSY);

   7859  2 000735   200073 471500                    LDP1    P$,,AUTO
         2 000736   100002 236100                    LDQ     2,,PR1
         2 000737   000043 772000                    QRL     35
         2 000740   200060 756100                    STQ     CDO+2,,AUTO

      263     7860    3              CDO.C=BITBIN(P$->B$DO.CONT);

   7860  2 000741   100002 236100                    LDQ     2,,PR1
         2 000742   000042 772000                    QRL     34
         2 000743   000001 376007                    ANQ     1,DL
         2 000744   200061 756100                    STQ     CDO+3,,AUTO

      264     7861    3              CDO.DL$=MV.P$;

   7861  2 000745   000105 236000 1                  LDQ     MV+1
         2 000746   200062 756100                    STQ     CDO+4,,AUTO

      265     7862    4              DO J = 0 TO 2;
PL6.E3A0      #001=DAD$USRT File=DAD$USRT.:E05TSI                                TUE 07/29/97 12:48 Page:42

   7862  2 000747   200102 450100                    STZ     J,,AUTO

      266     7863    4                 CDO.INFO(J)=P$->B$DOCONT.ECCINFO(J);

   7863  2 000750   200073 470500                    LDP0    P$,,AUTO
         2 000751   200102 720100                    LXL0    J,,AUTO
         2 000752   000003 235110                    LDA     3,X0,PR0
         2 000753   200063 755110                    STA     CDO+5,X0,AUTO

      267     7864    4                 END;

   7864  2 000754   200102 054100                    AOS     J,,AUTO
         2 000755   200102 235100                    LDA     J,,AUTO
         2 000756   000002 115007                    CMPA    2,DL
         2 000757   000750 604400 2                  TMOZ    s:7863

      268     7865    4              DO J = 3 TO 8;

   7865  2 000760   000003 236007                    LDQ     3,DL
         2 000761   200102 756100                    STQ     J,,AUTO

      269     7866    4                 UDOINFO(J-3)=P$->B$DOCONT.ECCINFO(J);

   7866  2 000762   200073 470500                    LDP0    P$,,AUTO
         2 000763   200102 720100                    LXL0    J,,AUTO
         2 000764   000003 235110                    LDA     3,X0,PR0
         2 000765   200045 755110                    STA     UDO+10,X0,AUTO

      270     7867    4                 END;

   7867  2 000766   200102 054100                    AOS     J,,AUTO
         2 000767   200102 235100                    LDA     J,,AUTO
         2 000770   000010 115007                    CMPA    8,DL
         2 000771   000762 604400 2                  TMOZ    s:7866

      271     7868    3              CALL DAF$WRITE(VECTOR(CDOFMT),VECTOR(CDO));
PL6.E3A0      #001=DAD$USRT File=DAD$USRT.:E05TSI                                TUE 07/29/97 12:48 Page:43

   7868  2 000772   000034 235000 3                  LDA     28
         2 000773   200106 452500                    STP2    USR+2,,AUTO
         2 000774   200106 236100                    LDQ     USR+2,,AUTO
         2 000775   000056 036003                    ADLQ    46,DU
         2 000776   200110 757100                    STAQ    USR+4,,AUTO
         2 000777   200110 630500                    EPPR0   USR+4,,AUTO
         2 001000   200113 450500                    STP0    USR+7,,AUTO
         2 001001   000035 236000 3                  LDQ     29
         2 001002   200112 756100                    STQ     USR+6,,AUTO
         2 001003   200112 630500                    EPPR0   USR+6,,AUTO
         2 001004   000000 220000 xsym               LDX0    DAF$WRITE
         2 001005   000020 631400 xsym               EPPR1   B_VECTNIL+16
         2 001006   000000 701010                    TSX1    0,X0
         2 001007   000000 011000                    NOP     0

      272     7869    3              CALL DAF$WRITE(VECTOR(DOFMT2),VECTOR(UDOINFO));

   7869  2 001010   000030 235000 3                  LDA     24
         2 001011   200106 452500                    STP2    USR+2,,AUTO
         2 001012   200106 236100                    LDQ     USR+2,,AUTO
         2 001013   000050 036003                    ADLQ    40,DU
         2 001014   200110 757100                    STAQ    USR+4,,AUTO
         2 001015   200110 630500                    EPPR0   USR+4,,AUTO
         2 001016   200113 450500                    STP0    USR+7,,AUTO
         2 001017   000031 236000 3                  LDQ     25
         2 001020   200112 756100                    STQ     USR+6,,AUTO
         2 001021   200112 630500                    EPPR0   USR+6,,AUTO
         2 001022   000000 220000 xsym               LDX0    DAF$WRITE
         2 001023   000020 631400 xsym               EPPR1   B_VECTNIL+16
         2 001024   000000 701010                    TSX1    0,X0
         2 001025   000000 011000                    NOP     0

      273     7870    3              GOTO NXCD0;

   7870  2 001026   000703 710000 2                  TRA     NXCD0

PL6.E3A0      #001=DAD$USRT File=DAD$USRT.:E05TSI                                TUE 07/29/97 12:48 Page:44
      274     7871    3              END;
      275     7872    2           GOTO NXDO;

   7872  2 001027   000535 710000 2                  TRA     NXDO

      276     7873    2   DOERR:  IF NUPGE = 0 THEN

   7873  2 001030   200076 235100       DOERR        LDA     NUPGE,,AUTO
         2 001031   001070 601000 2                  TNZ     s:7880

      277     7874    3           DO;

      278     7875    3              NUPGE=99;

   7875  2 001032   000143 236007                    LDQ     99,DL
         2 001033   200076 756100                    STQ     NUPGE,,AUTO

      279     7876    3              CALL DAF$WRITE(VECTOR(DERRFMT),VECTOR(B$USRT$->B$USER.SYSID(USR)),

   7876  2 001034   377640 235007                    LDA     130976,DL
         2 001035   200103 236100                    LDQ     USR,,AUTO
         2 001036   000026 736000                    QLS     22
         2 001037   000003 036000 3                  ADLQ    3
         2 001040   000000 036000 xsym               ADLQ    B$USRT$
         2 001041   200106 757100                    STAQ    USR+2,,AUTO
         2 001042   777640 235007                    LDA     -96,DL
         2 001043   200110 452500                    STP2    USR+4,,AUTO
         2 001044   200110 236100                    LDQ     USR+4,,AUTO
         2 001045   000103 036003                    ADLQ    67,DU
         2 001046   200114 757100                    STAQ    USR+8,,AUTO
         2 001047   200106 237100                    LDAQ    USR+2,,AUTO
         2 001050   200112 757100                    STAQ    USR+6,,AUTO
         2 001051   200114 237100                    LDAQ    USR+8,,AUTO
         2 001052   200116 757100                    STAQ    USR+10,,AUTO
         2 001053   200116 630500                    EPPR0   USR+10,,AUTO
         2 001054   200122 450500                    STP0    USR+14,,AUTO
         2 001055   200112 631500                    EPPR1   USR+6,,AUTO
PL6.E3A0      #001=DAD$USRT File=DAD$USRT.:E05TSI                                TUE 07/29/97 12:48 Page:45
         2 001056   200121 451500                    STP1    USR+13,,AUTO
         2 001057   000040 236000 3                  LDQ     32
         2 001060   200120 756100                    STQ     USR+12,,AUTO
         2 001061   200120 630500                    EPPR0   USR+12,,AUTO
         2 001062   000000 220000 xsym               LDX0    DAF$WRITE
         2 001063   000021 631400 xsym               EPPR1   B_VECTNIL+17
         2 001064   000000 701010                    TSX1    0,X0
         2 001065   000000 011000                    NOP     0

      280     7877    3                VECTOR(USR));
      281     7878    3              RETURN;

   7878  2 001066   200100 221300                    LDX1  ! NUPGE+2,,AUTO
         2 001067   000001 702211                    TSX2  ! 1,X1

      282     7879    3              END;
      283     7880    2   END DDOUSR;

   7880  2 001070   200100 221300                    LDX1  ! NUPGE+2,,AUTO
         2 001071   000001 702211                    TSX2  ! 1,X1
      284     7881    1   END DAD$USRT;

PL6.E3A0      #001=DAD$USRT File=DAD$USRT.:E05TSI                                TUE 07/29/97 12:48 Page:46
--  Include file information  --

   B$USER.:E05TOU  cannot be made into a system file and is referenced.
   B$OBJECT_C.:E05TOU  is referenced.
   XU_MACRO_C.:E05TOU  is referenced.
   DA_MAP_R.:E05TOU  cannot be made into a system file and is referenced.
   DA_ANLZ_R.:E05TOU  cannot be made into a system file and is referenced.
   DA_FORMAT_C.:E05TOU  is referenced.
   SS_SCHED_C.:E05TOU  is referenced.
      No diagnostics issued in procedure DAD$USRT.
PL6.E3A0      #001=DAD$USRT File=DAD$USRT.:E05TSI                                TUE 07/29/97 12:48 Page:47

 **** Variables and constants ****

  ****  Section 000 RoData DAD$USRT

  ****  Scalars and arrays  ****
OctLoc.c.b A Datatyp(siz) R M Lvl/name                 OctLoc.c.b A Datatyp(siz) R M Lvl/name

   231-0-0/c STRC(468)   r     1 CDOFMT                   165-0-0/c CHAR(19)    r     1 DERRFMT
   115-0-0/c CHAR(80)    r     1 DHDR                     172-0-0/c STRC(531)   r     1 DOFMT
   211-0-0/c STRC(576)   r     1 DOFMT2                   141-0-0/c CHAR(80)    r     1 DULINE
   341-0-0/c CHAR(4)     r     1 M(0:4)                   333-0-0/c CHAR(4)     r     1 RQ(0:5)
   302-0-0/c CHAR(4)     r     1 S(0:24)                  246-0-0/c CHAR(62)    r     1 UFMT0
   266-0-0/c CHAR(47)    r     1 UFMT1                      0-0-0/c CHAR(76)    r     1 UHDR0
    47-0-0/c CHAR(76)    r     1 UHDR1                     23-0-0/c CHAR(77)    r     1 UULINE0
    72-0-0/c CHAR(76)    r     1 UULINE1

  ****  Section 001  Data  DAD$USRT

  ****  Scalars and arrays  ****
OctLoc.c.b A Datatyp(siz) R M Lvl/name                 OctLoc.c.b A Datatyp(siz) R M Lvl/name

     0-0-0/c STRC(1197)  r     1 HDRBUF                    42-0-0/c STRC(1197)  r     1 HDRBUF2
   104-0-0/w STRC(72)    r     1 MV                       106-0-0/w STRC(288)   r     1 URPRT
   121-0-0/w STRC(144)   r     1 URPRTHD00                125-0-0/w STRC(144)   r     1 URPRTHD01
   116-0-0/c STRC(108)   r     1 URPRTTX00

  ****  Auto variables  ****

  ****  Scalars and arrays  ****
OctLoc.c.b A Datatyp(siz) R M Lvl/name                 OctLoc.c.b A Datatyp(siz) R M Lvl/name

   101-0-0/w PTR         r     1 @I                         3-0-0/w PTR         r     1 @TOP
   102-0-0/w PTR         r     1 @U                       101-0-0/w PTR         r     1 @U
    56-0-0/w STRC(288)   r     1 CDO                       74-0-0/w UBIN        r     1 I
    *0-0-0/w UBIN        r     1 I                         75-0-0/w SBIN        r     1 J
   102-0-0/w SBIN        r     1 J                        103-0-0/c CHAR        r     1 MODE
    76-0-0/w UBIN        r     1 NUPGE                     73-0-0/w PTR         r     1 P$
PL6.E3A0      #001=DAD$USRT File=DAD$USRT.:E05TSI                                TUE 07/29/97 12:48 Page:48
    *0-0-0/w STRC(144)   r     1 TOP                       *0-0-0/w UBIN        r     1 U
    *0-0-0/w UBIN        r     1 U                         33-0-0/w STRC(468)   r     1 UDO
    50-0-0/w UBIN        r     1 UDOINFO(0:5)
     4-0-0/w STRC(828)   r     1 USER                     104-0-0/w UBIN        r     1 USR
   103-0-0/w UBIN        r     1 USR

  ****  SYMREF variables  ****

  ****  Scalars and arrays  ****
OctLoc.c.b A Datatyp(siz) R M Lvl/name                 OctLoc.c.b A Datatyp(siz) R M Lvl/name

     0-0-0/w PTR         r     1 B$USRT$                    0-0-0/w EPTR        r     1 DAF$WRITE
     0-0-0/w SBIN        r     1 DA_CUN                     0-0-0/w SBIN        r     1 DA_MUAIS

  ****  BASED and DCB variables  ****

  ****  Scalars and arrays  ****
OctLoc.c.b A Datatyp(siz) R M Lvl/name                 OctLoc.c.b A Datatyp(siz) R M Lvl/name

     0-0-0/d STRC(396)   r     1 B$DO                       0-0-0/d STRC(432)   r     1 B$DOCONT
     0-0-0/w STRC(576)   r     1 B$USER(0:0)                0-0-0/w STRC(144)   r     1 OUT
     0-0-0/w UBIN        r     1 UV0(0:11)                  0-0-0/w UBIN        r     1 UV1(0:10)


   Procedure DAD$USRT requires 570 words for executable code.
   Procedure DAD$USRT requires 98 words of local(AUTO) storage.

    No errors detected in file DAD$USRT.:E05TSI    .
PL6.E3A0      #001=DAD$USRT File=DAD$USRT.:E05TSI                                TUE 07/29/97 12:48 Page:49
          *** CROSS REFERENCE LISTING ***
**     DENOTES     IDENTIFIER DEFINITION
<<                 IDENTIFIER'S VALUE SET
>>                 IDENTIFIER'S VALUE USED
<>                 IDENTIFIER SET AND/OR USED
--                 IDENTIFIER REFERENCED
PL6.E3A0      #001=DAD$USRT File=DAD$USRT.:E05TSI                                TUE 07/29/97 12:48 Page:50
          MINI XREF LISTING

B$DO.BUSY
      7641**DCL      7832>>ASSIGN   7859>>ASSIGN
B$DO.CONT
      7642**DCL      7833>>ASSIGN   7854>>IF       7860>>ASSIGN
B$DO.ECCINFO
      7654**DCL      7655--REDEF    7844>>ASSIGN
B$DO.ECCSC
      7647**DCL      7837>>ASSIGN
B$DO.ECCSZ
      7653**DCL      7842>>ASSIGN
B$DO.ENTER
      7640**DCL      7839>>ASSIGN
B$DO.ERRC
      7649**DCL      7841>>ASSIGN
B$DO.EVID
      7648**DCL      7840>>ASSIGN
B$DO.LNK$
      7639**DCL      7853>>ASSIGN
B$DO.SAVE
      7644**DCL      7835>>ASSIGN
B$DO.SCHDDO
      7643**DCL      7834>>ASSIGN
B$DO.WSR
      7646**DCL      7836>>ASSIGN
B$DOCONT.ECCINFO
      7671**DCL      7863>>ASSIGN   7866>>ASSIGN
B$SDEF.AD.OU
      7470**DCL      7476--REDEF
B$SDEF.VALUE
      7451**DCL      7454--REDEF
B$U.MISC
      7633**DCL      7634--REDEF
PL6.E3A0      #001=DAD$USRT File=DAD$USRT.:E05TSI                                TUE 07/29/97 12:48 Page:51
B$USER.ACP
      7686**DCL      7806>>ASSIGN
B$USER.APO
      7690**DCL      7810>>ASSIGN
B$USER.APR
      7689**DCL      7809>>ASSIGN
B$USER.ASL
      7688**DCL      7808>>ASSIGN
B$USER.ASP
      7691**DCL      7811>>ASSIGN
B$USER.ASYNCH
      7680**DCL      7796>>ASSIGN
B$USER.BL
      7682**DCL      7789>>ASSIGN
B$USER.CMF
      7692**DCL      7801>>ASSIGN
B$USER.CPU
      7695**DCL      7802>>ASSIGN
B$USER.DB
      7687**DCL      7807>>ASSIGN
B$USER.DL$
      7705**DCL      7827>>ASSIGN
B$USER.ENQ
      7706**DCL      7813>>ASSIGN
B$USER.FL
      7681**DCL      7788>>ASSIGN
B$USER.FLG
      7679**DCL      7795>>ASSIGN
B$USER.MF
      7685**DCL      7800>>ASSIGN
B$USER.MISC
      7709**DCL      7710--REDEF    7814>>ASSIGN
B$USER.MODE
      7700**DCL      7787>>ASSIGN
B$USER.PCT
      7693**DCL      7797>>ASSIGN
PL6.E3A0      #001=DAD$USRT File=DAD$USRT.:E05TSI                                TUE 07/29/97 12:48 Page:52
B$USER.PRIO
      7698**DCL      7791>>ASSIGN   7798>>ASSIGN
B$USER.PRIOB
      7699**DCL      7799>>ASSIGN
B$USER.PT
      7703**DCL      7812>>ASSIGN
B$USER.SQ
      7694**DCL      7794>>ASSIGN
B$USER.SYSID
      7704**DCL      7803--CALL     7816--CALL     7830>>ASSIGN   7857>>ASSIGN   7876--CALL
B$USER.US
      7696**DCL      7743>>IF       7764>>IF       7790>>IF       7793>>ASSIGN
B$USER.WOO
      7702**DCL      7815>>ASSIGN
B$USRT$
      7721**DCL      7743>>IF       7764>>IF       7787>>ASSIGN   7788>>ASSIGN   7789>>ASSIGN   7790>>IF
      7791>>ASSIGN   7793>>ASSIGN   7794>>ASSIGN   7795>>ASSIGN   7796>>ASSIGN   7797>>ASSIGN   7798>>ASSIGN
      7799>>ASSIGN   7800>>ASSIGN   7801>>ASSIGN   7802>>ASSIGN   7803>>CALL     7806>>ASSIGN   7807>>ASSIGN
      7808>>ASSIGN   7809>>ASSIGN   7810>>ASSIGN   7811>>ASSIGN   7812>>ASSIGN   7813>>ASSIGN   7814>>ASSIGN
      7815>>ASSIGN   7816>>CALL     7827>>ASSIGN   7830>>ASSIGN   7857>>ASSIGN   7876>>CALL
CDO
        73**DCL      7868--CALL
CDO.B
        76**DCL      7859<<ASSIGN
CDO.C
        77**DCL      7860<<ASSIGN
CDO.DL$
        78**DCL      7861<<ASSIGN
CDO.INFO
        79**DCL      7863<<ASSIGN
CDO.SYSID
        74**DCL      7857<<ASSIGN
CDO.USR#
        75**DCL      7858<<ASSIGN
CDOFMT
        87**DCL      7868--CALL
PL6.E3A0      #001=DAD$USRT File=DAD$USRT.:E05TSI                                TUE 07/29/97 12:48 Page:53
DAA$NXTUSR
        17**DCL-ENT  7751--CALL     7772--CALL
DAF$INIT
        20**DCL-ENT  7726--CALL
DAF$NEWPAGE
        21**DCL-ENT  7739--CALL     7848--CALL
DAF$WRITE
        19**DCL      7803>>CALL     7816>>CALL     7851>>CALL     7852>>CALL     7868>>CALL     7869>>CALL
      7876>>CALL
DAM$MAP
        18**DCL-ENT  7829--CALL     7856--CALL
DA_CUN
       638**DCL      7742<<DOINDEX  7743>>IF       7744<>CALL     7749<<ASSIGN   7752<>CALL     7763<<DOINDEX
      7764>>IF       7765<>CALL     7770<<ASSIGN   7773<>CALL
DA_MAPSEG.P
       668**DCL       669--REDEF
DA_MUAIS
       657**DCL      7742>>DOINDEX  7763>>DOINDEX
DA_SDASN.DESC.TYPE0
       653**DCL       653--REDEF
DA_TIGRSEG.P
       669**DCL       670--REDEF
DDOUSR
      7822**PROC     7765--CALL     7773--CALL
DERRFMT
        34**DCL      7876--CALL
DHDR
        30**DCL      7757>>ASSIGN   7758--ASSIGN
DOERR IN PROCEDURE DDOUSR
      7873**LABEL    7829--CALLALT  7856--CALLALT
DOFMT
        81**DCL      7851--CALL
DOFMT2
        84**DCL      7852--CALL     7869--CALL
DULINE
        32**DCL      7759>>ASSIGN   7760--ASSIGN
PL6.E3A0      #001=DAD$USRT File=DAD$USRT.:E05TSI                                TUE 07/29/97 12:48 Page:54
DUSR
      7779**PROC     7744--CALL     7752--CALL
HDRBUF
        89**DCL       762--DCLINIT
HDRBUF.CT
        90**DCL      7731<<ASSIGN   7736<<ASSIGN   7758<<ASSIGN
HDRBUF.TX
        91**DCL      7730<<ASSIGN   7735<<ASSIGN   7757<<ASSIGN
HDRBUF2
        92**DCL       804--DCLINIT
HDRBUF2.CT
        93**DCL      7733<<ASSIGN   7738<<ASSIGN   7760<<ASSIGN
HDRBUF2.TX
        94**DCL      7732<<ASSIGN   7737<<ASSIGN   7759<<ASSIGN
I
       106**DCL      7727<<DOINDEX  7728>>DOCASE   7744<>CALL     7752<>CALL
I IN PROCEDURE DUSR
      7781**DCL      7779--PROC     7785>>DOCASE
J
       107**DCL      7748<<DOINDEX  7751>>CALL     7769<<DOINDEX  7772>>CALL
J IN PROCEDURE DDOUSR
      7824**DCL      7843<<DOINDEX  7844>>ASSIGN   7844>>ASSIGN   7862<<DOINDEX  7863>>ASSIGN   7863>>ASSIGN
      7865<<DOINDEX  7866>>ASSIGN   7866>>ASSIGN
M
       387**DCL      7787>>ASSIGN
MODE IN PROCEDURE DUSR
      7782**DCL      7787<<ASSIGN   7803--CALL
MV
       101**DCL      7829<>CALL     7856<>CALL
MV.P$
       104**DCL      7827<<ASSIGN   7828>>IF       7829<>CALL     7838>>ASSIGN   7853<<ASSIGN   7856<>CALL
      7861>>ASSIGN
NUPGE
       108**DCL      7761<<ASSIGN   7846>>IF       7849<<ASSIGN   7873>>IF       7875<<ASSIGN
NXCD0 IN PROCEDURE DDOUSR
      7853**LABEL    7870--GOTO
PL6.E3A0      #001=DAD$USRT File=DAD$USRT.:E05TSI                                TUE 07/29/97 12:48 Page:55
NXDO IN PROCEDURE DDOUSR
      7828**LABEL    7872--GOTO
NXT
      7754**LABEL    7751--CALLALT
NXT_SPEC
      7775**LABEL    7772--CALLALT
OUT
      3980**DCL      7751<>CALL     7772<>CALL
P$
       105**DCL      7829<>CALL     7832>>ASSIGN   7833>>ASSIGN   7834>>ASSIGN   7835>>ASSIGN   7836>>ASSIGN
      7837>>ASSIGN   7839>>ASSIGN   7840>>ASSIGN   7841>>ASSIGN   7842>>ASSIGN   7844>>ASSIGN   7853>>ASSIGN
      7854>>IF       7856<>CALL     7859>>ASSIGN   7860>>ASSIGN   7863>>ASSIGN   7866>>ASSIGN
RQ
       379**DCL      7791>>ASSIGN
S
       347**DCL      7793>>ASSIGN
TOP
      3935**DCL        15--PROC
TOP.NSUBLKS
      3947**DCL      7741>>IF       7748>>DOINDEX  7762>>IF       7769>>DOINDEX
TOP.SUBLK$
      3968**DCL      7751>>CALL     7772>>CALL
U IN PROCEDURE DDOUSR
      7823**DCL      7822--PROC     7826>>ASSIGN
U IN PROCEDURE DUSR
      7780**DCL      7779--PROC     7784>>ASSIGN
UDO
        58**DCL      7851--CALL
UDO.B
        61**DCL      7832<<ASSIGN
UDO.C
        62**DCL      7833<<ASSIGN
UDO.DL$
        65**DCL      7838<<ASSIGN
UDO.ECCSC
        67**DCL      7837<<ASSIGN
PL6.E3A0      #001=DAD$USRT File=DAD$USRT.:E05TSI                                TUE 07/29/97 12:48 Page:56
UDO.ENTER
        68**DCL      7839<<ASSIGN
UDO.ERRC
        70**DCL      7841<<ASSIGN
UDO.EVID
        69**DCL      7840<<ASSIGN
UDO.I
        63**DCL      7834<<ASSIGN
UDO.N
        71**DCL      7842<<ASSIGN
UDO.S
        64**DCL      7835<<ASSIGN
UDO.SYSID
        59**DCL      7830<<ASSIGN
UDO.USR#
        60**DCL      7831<<ASSIGN
UDO.WSR
        66**DCL      7836<<ASSIGN
UDOINFO
        72**DCL      7844<<ASSIGN   7852--CALL     7866<<ASSIGN   7869--CALL
UFMT0
        95**DCL      7803--CALL
UFMT1
        97**DCL      7816--CALL
UHDR0
        22**DCL      7730>>ASSIGN   7731--ASSIGN
UHDR1
        26**DCL      7735>>ASSIGN   7736--ASSIGN
URPRT
       690**DCL      7726<>CALL
URPRTHD00
       756**DCL       725--DCLINIT
URPRTHD01
       798**DCL       771--DCLINIT
URPRTTX00
       733**DCL       720--DCLINIT
PL6.E3A0      #001=DAD$USRT File=DAD$USRT.:E05TSI                                TUE 07/29/97 12:48 Page:57
USER
        35**DCL      7803--CALL
USER.ACP
        48**DCL      7806<<ASSIGN   7816--CALL
USER.APO
        52**DCL      7810<<ASSIGN
USER.APR
        51**DCL      7809<<ASSIGN
USER.ASL
        50**DCL      7808<<ASSIGN
USER.ASP
        53**DCL      7811<<ASSIGN
USER.ASYNCH
        41**DCL      7796<<ASSIGN
USER.BL
        37**DCL      7789<<ASSIGN
USER.CMF
        46**DCL      7801<<ASSIGN
USER.CPU
        47**DCL      7802<<ASSIGN
USER.DB
        49**DCL      7807<<ASSIGN
USER.ENQ
        55**DCL      7813<<ASSIGN
USER.FL
        36**DCL      7788<<ASSIGN
USER.FLG
        40**DCL      7795<<ASSIGN
USER.MF
        45**DCL      7800<<ASSIGN
USER.MISC
        56**DCL      7814<<ASSIGN
USER.PCT
        42**DCL      7797<<ASSIGN
USER.PRIO
        43**DCL      7798<<ASSIGN
PL6.E3A0      #001=DAD$USRT File=DAD$USRT.:E05TSI                                TUE 07/29/97 12:48 Page:58
USER.PRIOB
        44**DCL      7799<<ASSIGN
USER.PT
        54**DCL      7812<<ASSIGN
USER.SQ
        39**DCL      7794<<ASSIGN
USER.US
        38**DCL      7791<<ASSIGN   7793<<ASSIGN
USER.WOO
        57**DCL      7815<<ASSIGN
USR IN PROCEDURE DDOUSR
      7825**DCL      7826<<ASSIGN   7827>>ASSIGN   7830>>ASSIGN   7831>>ASSIGN   7857>>ASSIGN   7858>>ASSIGN
      7876>>CALL     7876--CALL
USR IN PROCEDURE DUSR
      7783**DCL      7784<<ASSIGN   7787>>ASSIGN   7788>>ASSIGN   7789>>ASSIGN   7790>>IF       7791>>ASSIGN
      7793>>ASSIGN   7794>>ASSIGN   7795>>ASSIGN   7796>>ASSIGN   7797>>ASSIGN   7798>>ASSIGN   7799>>ASSIGN
      7800>>ASSIGN   7801>>ASSIGN   7802>>ASSIGN   7803>>CALL     7803--CALL     7806>>ASSIGN   7807>>ASSIGN
      7808>>ASSIGN   7809>>ASSIGN   7810>>ASSIGN   7811>>ASSIGN   7812>>ASSIGN   7813>>ASSIGN   7814>>ASSIGN
      7815>>ASSIGN   7816>>CALL     7816--CALL
UULINE0
        24**DCL      7732>>ASSIGN   7733--ASSIGN
UULINE1
        28**DCL      7737>>ASSIGN   7738--ASSIGN
UV0
        99**DCL      7803--CALL
UV1
       100**DCL      7816--CALL
