VERSION E05

PL6.E3A0      #001=DAM$MAP File=DAM$MAP.:E05TSI                                  TUE 07/29/97 12:51 Page:1
        1        1        /*M* DAM$MAP - MEMORY ACCESS ROUTINES FOR ANLZ */
        2        2        /*T***********************************************************/
        3        3        /*T*                                                         */
        4        4        /*T* Copyright (c) Bull HN Information Systems Inc., 1997    */
        5        5        /*T*                                                         */
        6        6        /*T***********************************************************/
        7        7        /*X* DMR */
        8        8        /*D*    NAME:    DAM$MAP
        9        9                CALL:    CALL DAM$MAP(IP$,OP$,SYSID,DOMAYN,V) ALTRET;
       10       10                INPUT:   IP$ - Input pointer.
       11       11                         OP$ - Output pointer.
       12       12                         SYSID - What user do we want to look at?
       13       13                                    0 = Monitor
       14       14                                    Neg. = Minus the user number.
       15       15                                    Pos. = User's SYSID.
       16       16                                    Default is monitor or B$JIT.USER
       17       17                                    depending on the descriptor referenced
       18       18                                    by IP$.
       19       19                         DOMAYN - Which linkage segment.
       20       20                                     Legal values are MONWSR, CPWSR, DBWSR,
       21       21                                     ASLWSR, USERWSR.  (SUBS in B_STRINGS_C)
       22       22                                     Default is MONWSR.
       23       23                         V - If input is from a dumpfile or it is necessary
       24       24                             to issue M$CVMs to perform the mapping function
       25       25                             then it may be necessary to map to only part of
       26       26                             the segment referenced by IP$ because of limit-
       27       27                             ations on the size of the window area.  V is a
       28       28                             vector framing the portion of the segement that
       29       29                             is to be mapped.  If this argument is present
       30       30                             then mapping to IS pages is forced.  Otherwise
       31       31                             M$SAD will be used if possible.
       32       32                DESCRIPTION:
       33       33                   A pointer is returned in OP$ that may be used to access
       34       34                the memory described by the other arguments to DAM$MAP.  If
       35       35                an error occurs the alternate return is taken with the error
       36       36                code stored in the SYMDEFed cell DA_MAPERR.
       37       37                                                                           */
PL6.E3A0      #001=DAM$MAP File=DAM$MAP.:E05TSI                                  TUE 07/29/97 12:51 Page:2
       38       38        /**/
       39       39        /**/
       40       40        /*D*    NAME:    DAM$VPAGE
       41       41                CALL:    CALL DAM$VPAGE(VP,WP,SYSID,WSQ,N) ALTRET;
       42       42                INPUT:   VP - First virtual page to be mapped.
       43       43                         WP - First window page.  This is relative to
       44       44                              the beginning of the window area.
       45       45                         SYSID - Which user to map to.
       46       46                                  If SYSID is 0 or omitted the monitor is used.
       47       47                                  If SYSID is positive it is a SYSID.
       48       48                                  If SYSID is negative it is minus the user number.
       49       49                                  If WSQ is not USERWSQ this argument is not
       50       50                                  significant.
       51       51                         WSQ - Which page table to use.   (Subs in B_STRINGS_C)
       52       52                                  Legal values are REALWSQ, MONWSQ, USERWSQ,
       53       53                                  B_CWSQ1 - B_CWSQ16.  If this argument is
       54       54                                  omitted and SYSID is 0 then MONWSQ is used.
       55       55                                  Otherwise USERWSQ is used.
       56       56                         N - Number of pages to map.  If this argument is
       57       57                             omitted then one page is mapped.
       58       58
       59       59                DESCRIPTION:
       60       60                   If a dump file is being used then M$GVP is called to
       61       61                get the window pages requesed and the appropriate pages
       62       62                are read from the dump file into the window pages.  If
       63       63                the running system is being used then M$CVM is called to
       64       64                map the window pages to the appropriate physical pages.
       65       65                In any case DA_WINDOW is updated to reflect the current
       66       66                status of the window area.  If the altreturn is taken the
       67       67                error code is in DA_MAPERR.
       68       68                                                                           */
       69       69        /**/
       70       70        /**/
       71       71        /*D*    NAME:    DAM$CVM
       72       72                CALL:    CALL DAM$CVM(RPN,WP) ALTRET;
       73       73                INPUT:   RPN - Physical page to map to.
       74       74                         WP - Window page number.
PL6.E3A0      #001=DAM$MAP File=DAM$MAP.:E05TSI                                  TUE 07/29/97 12:51 Page:3
       75       75
       76       76                DESCRIPTION:
       77       77                   M$CVM is called to map the requested physical page to
       78       78                the specified window page.  If RPN is -1 the presence bit
       79       79                in DA_WINDOW is reset, otherwise it is set unless the
       80       80                M$CVM fails.  If the altreturn is taken the error code is
       81       81                in the altret frame of the TCB.
       82       82                *** For internal use by DAM routines ***
       83       83                                                                           */
       84       84        /**/
       85       85        /**/
       86       86        /*D*    NAME:    DAM$DUMPFILE
       87       87                CALL:    CALL DAM$DUMPFILE(FID) ALTRET;
       88       88                INPUT:   FID - File identifier of dump file.  (TEXTC)
       89       89                DESCRIPTION:
       90       90                   DAM$DUMPFILE initializes mapping data to obtain memory
       91       91                from the specified dump file.  If the altreturn is taken the
       92       92                error code is in DA_MAPERR.
       93       93                                                                           */
       94       94        /**/
       95       95        /**/
       96       96        /*D*    NAME:    DAM$RUNNING
       97       97                CALL:    CALL DAM$RUNNING ALTRET;
       98       98                DESCRIPTION:
       99       99                   DAM$RUNNING initializes mapping data to obtain memory from
      100      100                the running sytem.  If the altreturn is taken the error code
      101      101                is in DA_MAPERR.
      102      102                                                                           */
      103      103        /**/
      104      104        /**/
      105      105        /*D*    NAME:    DAM$INIT
      106      106                CALL:    CALL DAM$INIT ALTRET;
      107      107                DESCRIPTION:
      108      108                   DAM$INIT must be called before using any of the other DAM
      109      109                routines.  DAM$INIT falls through to DAM$RUNNING.  If the
      110      110                altreturn is taken the error code is in DA_MAPERR.
      111      111                                                                           */
PL6.E3A0      #001=DAM$MAP File=DAM$MAP.:E05TSI                                  TUE 07/29/97 12:51 Page:4
      112      112        /**/
      113      113        /**/
      114      114        /*D*    NAME:    DAM$FREEM
      115      115                CALL:    CALL DAM$FREEM
      116      116                DESCRIPTION:
      117      117                   DAM$FREEM frees all of the allocatable special descriptor
      118      118                slots and all in use window pages.  The SPCL8 descriptor slot
      119      119                is used for TIGR data and is not freed.  If looking at the
      120      120                running system the SPCL7 descriptor slot is used for the
      121      121                monitor IS and is not freed.  The purpose of this routine is
      122      122                give the programmer some control over when pointers obtained
      123      123                by DAM$MAP become invalid.  Previously obtained pointers
      124      124                become invalid when a call to DAM$MAP requires that either
      125      125                 the next avialable special descriptor slot or the next
      126      126                available window page be reset to 0.
      127      127
      128      128                When mapping users DAM$FREEM should be called at least on
      129      129                each pass through the user tables.
      130      130                                                                           */
      131      131        /**/
      132      132        /**/
      133      133        /*D*    NAME:    DAM$USECPU
      134      134                CALL:    CALL DAM$USECPU(CPU#) ALTRET;
      135      135                INPUT:   CPU# - The processor number of the CPU whose page
      136      136                                table is to be used on subsequent calls to
      137      137                                DAM$VPAGE.  Note, this is the proccessor
      138      138                                number, not the port number.
      139      139                DESCRIPTION:
      140      140                   DAM$USECPU causes MONWSQ mapping to go through the page
      141      141                table of the specified CPU.  If the alternate return is taken
      142      142                the error code is in DA_MAPERR.  If DAM$MAP is called to
      143      143                perform an operation that can be done with an M$SAD then the
      144      144                currently specified CPU has no effect.  You see the CPU you
      145      145                are running on.  Therfore if CPU specific data is required
      146      146                then the V argument to DAM$MAP should be used to force mapping
      147      147                to window pages.
      148      148
PL6.E3A0      #001=DAM$MAP File=DAM$MAP.:E05TSI                                  TUE 07/29/97 12:51 Page:5
      149      149                DA_MAP_D is the static data module associated with these
      150      150                routines.
      151      151                                                                           */
      152      152        DAM$MAP: PROC(IP$,OP$,SYSID,DOMAYN,V) ALTRET;
      153      153        /**/
      154      154        /* PARAMETERS */
      155      155        /**/
      156      156    1   DCL IP$ PTR;
      157      157    1   DCL 1 IP REDEF IP$,
      158      158    1         2 CA UBIN(20) UNAL,
      159      159    1         2 BA UBIN(4) UNAL,
      160      160    1         2 SID,
      161      161    1           3 S UBIN(2) UNAL,
      162      162    1           3 D UBIN(10) UNAL;
      163      163    1   DCL OP$ PTR;
      164      164    1   DCL 1 OP REDEF OP$,
      165      165    1         2 CA UBIN(20) UNAL,
      166      166    1         2 BA UBIN(4) UNAL,
      167      167    1         2 SID,
      168      168    1           3 S UBIN(2) UNAL,
      169      169    1           3 D UBIN(10) UNAL;
      170      170    1   DCL DOMAYN SBIN;
      171      171    1   DCL SYSID SBIN;
      172      172    1   DCL V BIT(72) ALIGNED;
      173      173        /**/
      174      174        /* LOCALS FOR PARAMETERS */
      175      175        /**/
      176      176    1   DCL D# SBIN;
      177      177    1   DCL U# SBIN;
      178      178    1   DCL S# SBIN;
      179      179    1   DCL 1 V# ALIGNED,
      180      180    1         2 BOUND UBIN(20) UNAL,
      181      181    1         2 FLAGS BIT(16) UNAL,
      182      182    1         2 P,
      183      183    1           3 CA UBIN(20) UNAL,
      184      184    1           3 BA UBIN(4) UNAL,
      185      185    1           3 SID,
PL6.E3A0      #001=DAM$MAP File=DAM$MAP.:E05TSI                                  TUE 07/29/97 12:51 Page:6
      186      186    1             4 S UBIN(2) UNAL,
      187      187    1             4 D UBIN(10) UNAL,
      188      188    1         2 P$ REDEF P PTR;
      189      189        /**/
      190      190        /* AUTO DATA */
      191      191        /**/
      192      192    1   DCL I SBIN;
      193      193    1   DCL CVMFLG BIT(1) ALIGNED;
      194      194    1   DCL 1 DESC ALIGNED,
      195      195    1         2 BOUND UBIN(20) UNAL,
      196      196    1         2 FLAGS BIT(9) UNAL,
      197      197    1         2 WSR UBIN(3) UNAL,
      198      198    1         2 TYPE UBIN(4) UNAL,
      199      199    1         2 BASE UBIN WORD;
      200      200    1   DCL 1 DESC2 REDEF DESC,
      201      201    1         2 BOUND UBIN(20) UNAL,
      202      202    1         2 FLAGS BIT(3) UNAL,
      203      203    1         2 WSQ UBIN(9) UNAL,
      204      204    1         2 TYPE UBIN(4) UNAL,
      205      205    1         2 BASE UBIN WORD;
      206      206    1   DCL WSQ SBIN;
      207      207    1   DCL PAGES SBIN;
      208      208    1   DCL PT$ PTR;
      209      209    1   DCL LS$ PTR;
      210      210    1   DCL FCN SBIN;
      211      211        /**/
      212      212        /* INCLUDE FILES */
      213      213        /**/
      214      214        %INCLUDE DA_MAP_R;
      215      244        %INCLUDE DA_PERR_C;
      216      308        %INCLUDE CP_6;
      217      389        %INCLUDE B_STRINGS_C;
      218      518        %INCLUDE B_LSDATA_C;
      219     3724        %INCLUDE M_INFO_C;
      220     3864        %INCLUDE B_SEGIDS_C;
      221     4403    1   DCL B$JIT$ PTR SYMREF;
      222     4404        %INCLUDE B$JIT;
PL6.E3A0      #001=DAM$MAP File=DAM$MAP.:E05TSI                                  TUE 07/29/97 12:51 Page:7
      223     4694        %INCLUDE SS_SCHED_C;
      224     4927        %INCLUDE B$USER;
      225     5143        %B$USERREFS;
      226     5147        %INCLUDE B$MAP;
      227     5246        %INCLUDE JG_GHOSTS_C;
      228     5336        /**/
      229     5337        /* STATIC, CONSTANT, BASED AND OTHER STUFF */
      230     5338        /**/
      231     5339    1   DCL B$TCB$ PTR SYMREF;
      232     5340        %B$TCB;
      233     5343        %B$ALT;
      234     5351        %FPT_SAD;
      235     5366        %FPT_STD;
      236     5381    1   DCL VECINIT BIT(72) CONSTANT INIT('777777777640'O);
      237     5382    1   DCL LS(0:0) BIT(72) ALIGNED BASED;
      238     5383    1   DCL B$IS$ PTR SYMREF;
      239     5384    1   DCL DA_WSRWSQ(0:7) UBIN BYTE UNAL CONSTANT SYMDEF INIT(%MONWSQ,%MONWSQ,0,%CGWSQ,%
              5384            CPWSQ,
      240     5385    1                                                %DBWSQ,%ASLWSQ,%USERWSQ);
      241     5386    1   DCL LSOFFSET(0:7) SBIN CONSTANT INIT(%(%(MLS_BASE%-HJIT_BASE%)/4),
      242     5387    1                                        0,
      243     5388    1                                        0,
      244     5389    1                                        0,
      245     5390    1                                        %(%(CLS_BASE%-HJIT_BASE%)/4),
      246     5391    1                                        %(%(DLS_BASE%-HJIT_BASE%)/4),
      247     5392    1                                        %(%(ALS_BASE%-HJIT_BASE%)/4),
      248     5393    1                                        %(%(ULS_BASE%-HJIT_BASE%)/4));
      249     5394        /**/
      250     5395    1   DCL DAM$VPAGE ENTRY(5) ALTRET;
      251     5396    1   DCL DA_MAP_D ENTRY CONV(5);
      252     5397        /**/
      253     5398        %SUB NEVER="WHILE('0'B)";
      254     5399        %SUB FOREVER="WHILE('1'B)";
      255     5400        %EQU FCN_MAP=0;
      256     5401        %EQU FCN_GETDESC=1;
      257     5402        %EJECT;
PL6.E3A0      #001=DAM$MAP File=DAM$MAP.:E05TSI                                  TUE 07/29/97 12:51 Page:8
      258     5403    1           FCN=%FCN_MAP;
      259     5404    1           GOTO COMMON;
      260     5405    1   DAM$GETDESC: ENTRY(IP$,OP$,SYSID,DOMAYN,V) ALTRET;
      261     5406    1           FCN=%FCN_GETDESC;
      262     5407    1   COMMON: ;
      263     5408    1           IF ADDR(DOMAYN)=ADDR(NIL) THEN D#=%MONWSR;
      264     5409    1           ELSE D#=DOMAYN;
      265     5410    1           CVMFLG=DA_DUMPFILE;
      266     5411    2           IF FCN~=%FCN_GETDESC THEN DO;
      267     5412    3              IF ADDR(V)=ADDR(NIL) THEN DO;
      268     5413    3                 V#=VECINIT;
      269     5414    3                 V#.P.SID=IP.SID;
      270     5415    3                 END;
      271     5416    3              ELSE DO;
      272     5417    4                 IF ADDR(V)=ADDR(DA_MONISDATA) AND NOT DA_DUMPFILE THEN DO;
      273     5418    4                    OP$=IP$;
      274     5419    4                    OP.SID=DA_SDASN.SID(%MONIS#);
      275     5420    4                    DA_LASTBOUND=DA_SDASN.DESC.BOUND(%MONIS#);
      276     5421    4                    RETURN;
      277     5422    4                    END;
      278     5423    3                 V#=V;
      279     5424    3                 IF V#.P.SID~=IP.SID OR V#.P.CA>IP.CA OR V#.P.CA+V#.BOUND<IP.CA THEN
      280     5425    3                    CALL SETERR(%E$DA_BAD_VEC) ALTRET(ALT);
      281     5426        /*E*    ERROR:   DAM-E$DA_BAD_VEC
      282     5427                MESSAGE: The pointer part of the V argument to DAM$MAP must
      283     5428                         have the same segid as IP$ and IP$ must lie within
      284     5429                         the area framed by V.
      285     5430                                                                           */
      286     5431    3                 CVMFLG='1'B;
      287     5432    3                 END;
      288     5433    2              END;
      289     5434    1           IF ADDR(SYSID)=ADDR(NIL) THEN
      290     5435    1              IF D#=%MONWSR THEN U#=0;
      291     5436    1              ELSE U#=B$JIT.USER;
      292     5437    2           ELSE DO;
      293     5438    2              IF SYSID<=0 THEN U#=-SYSID;
      294     5439    3              ELSE DO;
PL6.E3A0      #001=DAM$MAP File=DAM$MAP.:E05TSI                                  TUE 07/29/97 12:51 Page:9
      295     5440    4                 DO U#=1 TO DA_MUAIS;
      296     5441    4                    IF SYSID=B$USRT$->B$USER.SYSID(U#) THEN GOTO USRFOUND;
      297     5442    4                    END;
      298     5443    3                 CALL SETERR(%E$DA_NO_USER) ALTRET(ALT);
      299     5444    3                 END;
      300     5445    2              END;
      301     5446    1   USRFOUND:;
      302     5447    1           IF U#<=JG_MING# THEN S#=U#;
      303     5448    1           ELSE S#=B$USRT$->B$USER.SYSID(U#);
      304     5449    2           IF U#~=0 THEN DO;
      305     5450    2              IF U#>DA_MUAIS OR B$USRT$->B$USER.US(U#)=%SS_SNULL THEN
      306     5451    2                 CALL SETERR(%E$DA_NO_USER) ALTRET(ALT);
      307     5452        /*E*    ERROR:   DAM-E$DA_NO_USER
      308     5453                MESSAGE: The specified sysid/user no. does not exist.
      309     5454                                                                           */
      310     5455    2              END;
      311     5456    2           DO CASE(IP.SID.S);
      312     5457    2            CASE(0);                       /* PARAMETER STACK */
      313     5458    2              I=DA_WSRWSQ(DA_PSR.WSR);
      314     5459    2              CALL DAM$VPAGE(DA_PSR.BASE/4096,%MSCPG3#,-U#,I) ALTRET(ALT);
      315     5460    2              LS$=PINCRC(B$IS$,DA_MSCPG3*4096+MOD(DA_PSR.BASE,4096));
      316     5461    2              CVMFLG='1'B;
      317     5462    2            CASE(2);                       /* ARGUMENT STACK */
      318     5463    2              I=DA_WSRWSQ(DA_ASR.WSR);
      319     5464    2              CALL DAM$VPAGE(DA_ASR.BASE/4096,%MSCPG3#,-U#,I) ALTRET(ALT);
      320     5465    2              LS$=PINCRC(B$IS$,DA_MSCPG3*4096+MOD(DA_ASR.BASE,4096));
      321     5466    2              CVMFLG='1'B;
      322     5467    2            CASE(3);                       /* LINKAGE SEGMENT */
      323     5468    3              DO CASE(D#);
      324     5469    3               CASE(%MONWSR);
      325     5470    3                 CALL DAM$VPAGE(HJIT_BASE%/4096,%MSCPG3#,,%MONWSQ) ALTRET(ALT);
      326     5471    3                 LS$=PINCRW(B$IS$,DA_MSCPG3*1024);
      327     5472    3               CASE(%CPWSR,%DBWSR,%ASLWSR,%USERWSR);
      328     5473    3                 CALL DAM$VPAGE(HJIT_BASE%/4096,%MSCPG3#,-U#,%USERWSQ) ALTRET(ALT);
      329     5474    3                 LS$=PINCRW(B$IS$,DA_MSCPG3*1024+LSOFFSET(D#));
      330     5475    3               CASE(ELSE);
      331     5476    3                 CALL SETERR(%E$DA_BAD_DOMAIN) ALTRET(ALT);
PL6.E3A0      #001=DAM$MAP File=DAM$MAP.:E05TSI                                  TUE 07/29/97 12:51 Page:10
      332     5477        /*E*    ERROR:   DAM-E$DA_BAD_DOMAIN
      333     5478                MESSAGE: DOMAIN must be one of %MONWSR, %CPWSR, %DBWSR, %ASLWSR,
      334     5479                         or %USERWSR.
      335     5480                                                                           */
      336     5481    3               END;
      337     5482    2            CASE(ELSE);
      338     5483    2              CALL SETERR(%E$DA_NOT_LS) ALTRET(ALT);
      339     5484        /*E*    ERROR:   DAM-E$DA_NOT_LS
      340     5485                MESSAGE: Bad input pointer to DAM$MAP.
      341     5486                                                                           */
      342     5487    2            END;
      343     5488        /**/
      344     5489    1           DESC=LS$->LS(IP.SID.D);
      345     5490    2           IF FCN=%FCN_GETDESC THEN DO;
      346     5491    2              V=DESC;
      347     5492    2              OP$=LS$;
      348     5493    2              RETURN;
      349     5494    2              END;
      350     5495    1           DESC.BASE=DESC.BASE+V#.P.CA;
      351     5496    1           DESC.BOUND=DESC.BOUND-V#.P.CA;
      352     5497    1           IF DESC.BOUND>V#.BOUND THEN DESC.BOUND=V#.BOUND;
      353     5498    1           ELSE V#.BOUND=DESC.BOUND;
      354     5499    2           DO CASE(DESC.TYPE);
      355     5500    2            CASE(0);
      356     5501    2              WSQ=DA_WSRWSQ(DESC.WSR);
      357     5502    2            CASE(2);
      358     5503    2              WSQ=DESC2.WSQ;
      359     5504    2            CASE(ELSE);
      360     5505    2              CALL SETERR(%E$DA_BAD_DESC) ALTRET(ALT);
      361     5506        /*E*    ERROR:   DAM-E$DA_BAD_DESC
      362     5507                MESSAGE: The descriptor referenced by IP$ must be of type 0 or 2.
      363     5508                                                                           */
      364     5509    2            END;
      365     5510    1           IF WSQ~=%USERWSQ THEN U#=0;
      366     5511    1           ELSE IF U#~=B$JIT.USER THEN CVMFLG='1'B;
      367     5512    1           IF D#~=%MONWSR THEN CVMFLG='1'B;
      368     5513    1           PAGES=(DESC.BOUND+MOD(DESC.BASE,4096))/4096;
PL6.E3A0      #001=DAM$MAP File=DAM$MAP.:E05TSI                                  TUE 07/29/97 12:51 Page:11
      369     5514    2           IF (WSQ~=%MONWSQ OR IP.SID~=%ISSID) AND NOT CVMFLG THEN DO;
      370     5515    2              CALL DAM$VPAGE(0,%MSCPG3#,-U#,WSQ,1) ALTRET(ALT);
      371     5516        /* THE ABOVE CALL CAUSES DAM$VPAGE TO PUT THE PAGE TABLE FOR WSQ
      372     5517           IN MSCPG1 */
      373     5518    2              PT$=PINCRW(B$IS$,DA_MSCPG1*1024);
      374     5519    3              DO I=0 TO PAGES;
      375     5520    3                 IF PT$->B$MAP.CTRL(I+DESC.BASE/4096) & %PGHKEEP THEN CVMFLG='1'B;
      376     5521    3                 END;
      377     5522    2              END;
      378     5523    2           DO I=0 TO 7;
      379     5524    3              IF DA_SDASN.DESC(I)=DESC AND S#=DA_SDASN.SYSID(I) THEN DO;
      380     5525    3                 OP=IP;
      381     5526    3                 OP.SID=DA_SDASN.SID(I);
      382     5527    3                 DA_LASTBOUND=DA_SDASN.DESC.BOUND(I);
      383     5528    3                 OP.CA=IP.CA-V#.P.CA;
      384     5529    3                 RETURN;
      385     5530    3                 END;
      386     5531    2              END;
      387     5532    2           IF CVMFLG THEN DO;
      388     5533    2              IF DA_WINDOWBASE+PAGES>DA_WINDOWMAX THEN
      389     5534    2                 CALL SETERR(%E$DA_SEG_TOO_BIG) ALTRET(ALT);
      390     5535        /*E*    ERROR:   DAM-E$DA_SEG_TOO_BIG
      391     5536                MESSAGE: The segment referenced is larger than the available
      392     5537                         window area.
      393     5538                MESSAGE1: If this is a dump file, it may help to !ORES MEM=300.
      394     5539                MESSAGE2: To map to this segment it is necessary to specify
      395     5540                          a vector framing only a portion of the segment that
      396     5541                          will fit into the available window area.
      397     5542                                                                           */
      398     5543    3              IF DA_NXTWINDOW+DA_WINDOWBASE+PAGES>DA_WINDOWMAX THEN DO;
      399     5544    3                 DA_NXTWINDOW=0;
      400     5545    4                 DO I=0 TO 7;
      401     5546    4                    IF DA_SDASN.CVM(I) THEN DA_SDASN.DESC(I)='0'B;
      402     5547    4                    END;
      403     5548    3                 END;
      404     5549    2              CALL DAM$VPAGE(DESC.BASE/4096,DA_NXTWINDOW,-U#,WSQ,PAGES+1) ALTRET(
              5549                       VPAGEALT);
PL6.E3A0      #001=DAM$MAP File=DAM$MAP.:E05TSI                                  TUE 07/29/97 12:51 Page:12
      405     5550    3              DO NEVER;
      406     5551    3   VPAGEALT:     IF DA_MAPERR.CODE~=%E$DA_NOT_DUMPED THEN GOTO ALT;
      407     5552    3                 END;
      408     5553    2              FPT_STD.V.USERSID#=DA_SDASN.SID(DA_NXTSPCL);
      409     5554    2              FPT_STD.AREA_.BOUND=DESC.BOUND;
      410     5555    2              FPT_STD.AREA_.AREA$=PINCRC(B$IS$,(DA_NXTWINDOW+DA_WINDOWBASE)*4096+MOD(
              5555                       DESC.BASE,4096));
      411     5556    2              CALL M$STD(FPT_STD) ALTRET(PMMEALT);
      412     5557    2              DA_SDASN.CVM(DA_NXTSPCL)='1'B;
      413     5558    2              DA_NXTWINDOW=DA_NXTWINDOW+PAGES+1;
      414     5559    2              END;
      415     5560    2           ELSE DO;
      416     5561    2              FPT_SAD.V.USERSID#=DA_SDASN.SID(DA_NXTSPCL);
      417     5562    2              FPT_SAD.V.MONSID#=IP.SID;
      418     5563    2              CALL M$SAD(FPT_SAD) ALTRET(PMMEALT);
      419     5564    2              FPT_STD.V.USERSID#=DA_SDASN.SID(DA_NXTSPCL);
      420     5565    2              V#.P.SID=DA_SDASN.SID(DA_NXTSPCL);
      421     5566    2              FPT_STD.AREA_=V#;
      422     5567    2              CALL M$STD(FPT_STD) ALTRET(PMMEALT);
      423     5568    2              DA_SDASN.CVM(DA_NXTSPCL)='0'B;
      424     5569    2              END;
      425     5570    1           OP=IP;
      426     5571    1           OP.SID=DA_SDASN.SID(DA_NXTSPCL);
      427     5572    1           OP.CA=IP.CA-V#.P.CA;
      428     5573    1           DA_SDASN.DESC(DA_NXTSPCL)=DESC;
      429     5574    1           DA_SDASN.SYSID(DA_NXTSPCL)=S#;
      430     5575    1           DA_LASTBOUND=DA_SDASN.DESC.BOUND(DA_NXTSPCL);
      431     5576    1           DA_NXTSPCL=MOD(DA_NXTSPCL+1,DA_NUMSPCL);
      432     5577    1           RETURN;
      433     5578    1   PMMEALT:;
      434     5579    1           DA_MAPERR=B$TCB$->B$TCB.ALT$->B$ALT.ERR;
      435     5580    1   ALT:    ALTRETURN;
      436     5581        %EJECT;
PL6.E3A0      #001=DAM$MAP File=DAM$MAP.:E05TSI                                  TUE 07/29/97 12:51 Page:13
      437     5582    1   SETERR: PROC(CODE) ALTRET;
      438     5583    2   DCL CODE SBIN;
      439     5584        /**/
      440     5585    2           DA_MAPERR='040115000000'O;
      441     5586    2           DA_MAPERR.CODE=CODE;
      442     5587    2           ALTRETURN;
      443     5588    2   END SETERR;
      444     5589    1   END DAM$MAP;
      445     5590        %EOD;

PL6.E3A0      #001=DAM$MAP File=DAM$MAP.:E05TSI                                  TUE 07/29/97 12:51 Page:14
--  Include file information  --

   JG_GHOSTS_C.:E05TOU  is referenced.
   B$MAP.:E05TOU  cannot be made into a system file and is referenced.
   B$USER.:E05TOU  cannot be made into a system file and is referenced.
   SS_SCHED_C.:E05TOU  is referenced.
   B$JIT.:E05TOU  cannot be made into a system file and is referenced.
   B_SEGIDS_C.:E05TOU  is referenced.
   M_INFO_C.:E05TOU  is referenced.
   B_MLSMAC_C.:E05TOU  is referenced.
   B_ULSMAC_C.:E05TOU  is referenced.
   B_LSDATA_C.:E05TOU  cannot be made into a system file and is referenced.
   B_STRINGS_C.:E05TOU  is referenced.
   CP_6.:E05TOU  cannot be made into a system file and is referenced.
   DA_PERR_C.:E05TOU  is referenced.
   DA_MAP_R.:E05TOU  cannot be made into a system file and is referenced.
   B$JIT_C.:E05TOU  was found in the system file and is referenced.
   CP_6_C.:E05TOU  was found in the system file and is referenced.
      No diagnostics issued in procedure DAM$MAP.

   Procedure DAM$MAP requires 649 words for executable code.
   Procedure DAM$MAP requires 32 words of local(AUTO) storage.

PL6.E3A0      #001=DAM$MAP File=DAM$MAP.:E05TSI                                  TUE 07/29/97 12:51 Page:15

 Object Unit name= DAM$MAP                                    File name= DAM$MAP.:E05TOU
 UTS= JUL 29 '97 12:51:23.60 TUE                              Compiler= PL-6/E31         Sev=      00
 SharedLib= :SHARED_SYSTEM                                    Alt SharedLib=


    ****  Control sections  ****

 Sect   Type Bound  Init  Size OctSiz  Section name(segment info)
    0   DCB   even  none     0      0  M$UC
    1   Data  even  none    10     12  DAM$MAP
    2  RoData even  UTS     13     15  DAM$MAP
    3   Proc  even  none   649   1211  DAM$MAP
    4  RoData even  none    22     26  DAM$MAP

    ****  Entry defs  ****

                              Check   Calling
                             calling  sequence
  Sect OctLoc Primary Altret sequence   type   Parms  Name
     3      0   yes    yes     yes      Std        5  DAM$MAP
     3      4          yes     yes      Std        5  DAM$GETDESC

  ****  Data defs  ****

 Sect OctLoc  Name                           Sect OctLoc  Name
    2      2  DA_WSRWSQ
PL6.E3A0      #001=DAM$MAP File=DAM$MAP.:E05TSI                                  TUE 07/29/97 12:51 Page:16

  ****  Entry refs  ****

         Check        Calling
        calling       sequence
Altret sequence SRef   type   Args  Name
         yes          ~proc      0 DA_MAP_D
 yes     yes           Std       5 DAM$VPAGE
                       nStd      0 X66_AUTO_5
                       Std       0 B_CONSPOOL_D
                       nStd      0 X66_ARET
                       nStd      0 X66_AALT

  ****  Data refs  ****

  Flags:  r = read only, s = secondary
Flgs Name                             Flgs Name                             Flgs Name
     DA_SDASN                              DA_MUAIS                              DA_WINDOWBASE
     DA_WINDOWMAX                          DA_NXTWINDOW                          DA_DUMPFILE
     DA_LASTBOUND                          DA_MONISDATA                          DA_MSCPG1
     DA_MSCPG3                             DA_MAPERR                             DA_NXTSPCL
     DA_NUMSPCL                            DA_PSR                                DA_ASR
     M$UC                                  B$JIT$                                B$USRT$
     B$TCB$                                B$IS$                                 B_VECTNIL

  ****  Segment refs  ****

  Flags:  r = read only, s = secondary
Flgs Name                             Flgs Name                             Flgs Name
     ISSID                                 NULLSID
PL6.E3A0      #001=DAM$MAP File=DAM$MAP.:E05TSI                                  TUE 07/29/97 12:51 Page:17


        1        1        /*M* DAM$MAP - MEMORY ACCESS ROUTINES FOR ANLZ */
        2        2        /*T***********************************************************/
        3        3        /*T*                                                         */
        4        4        /*T* Copyright (c) Bull HN Information Systems Inc., 1997    */
        5        5        /*T*                                                         */
        6        6        /*T***********************************************************/
        7        7        /*X* DMR */
        8        8        /*D*    NAME:    DAM$MAP
        9        9                CALL:    CALL DAM$MAP(IP$,OP$,SYSID,DOMAYN,V) ALTRET;
       10       10                INPUT:   IP$ - Input pointer.
       11       11                         OP$ - Output pointer.
       12       12                         SYSID - What user do we want to look at?
       13       13                                    0 = Monitor
       14       14                                    Neg. = Minus the user number.
       15       15                                    Pos. = User's SYSID.
       16       16                                    Default is monitor or B$JIT.USER
       17       17                                    depending on the descriptor referenced
       18       18                                    by IP$.
       19       19                         DOMAYN - Which linkage segment.
       20       20                                     Legal values are MONWSR, CPWSR, DBWSR,
       21       21                                     ASLWSR, USERWSR.  (SUBS in B_STRINGS_C)
       22       22                                     Default is MONWSR.
       23       23                         V - If input is from a dumpfile or it is necessary
       24       24                             to issue M$CVMs to perform the mapping function
       25       25                             then it may be necessary to map to only part of
       26       26                             the segment referenced by IP$ because of limit-
       27       27                             ations on the size of the window area.  V is a
       28       28                             vector framing the portion of the segement that
       29       29                             is to be mapped.  If this argument is present
       30       30                             then mapping to IS pages is forced.  Otherwise
       31       31                             M$SAD will be used if possible.
       32       32                DESCRIPTION:
       33       33                   A pointer is returned in OP$ that may be used to access
       34       34                the memory described by the other arguments to DAM$MAP.  If
       35       35                an error occurs the alternate return is taken with the error
       36       36                code stored in the SYMDEFed cell DA_MAPERR.
PL6.E3A0      #001=DAM$MAP File=DAM$MAP.:E05TSI                                  TUE 07/29/97 12:51 Page:18
       37       37                                                                           */
       38       38        /**/
       39       39        /**/
       40       40        /*D*    NAME:    DAM$VPAGE
       41       41                CALL:    CALL DAM$VPAGE(VP,WP,SYSID,WSQ,N) ALTRET;
       42       42                INPUT:   VP - First virtual page to be mapped.
       43       43                         WP - First window page.  This is relative to
       44       44                              the beginning of the window area.
       45       45                         SYSID - Which user to map to.
       46       46                                  If SYSID is 0 or omitted the monitor is used.
       47       47                                  If SYSID is positive it is a SYSID.
       48       48                                  If SYSID is negative it is minus the user number.
       49       49                                  If WSQ is not USERWSQ this argument is not
       50       50                                  significant.
       51       51                         WSQ - Which page table to use.   (Subs in B_STRINGS_C)
       52       52                                  Legal values are REALWSQ, MONWSQ, USERWSQ,
       53       53                                  B_CWSQ1 - B_CWSQ16.  If this argument is
       54       54                                  omitted and SYSID is 0 then MONWSQ is used.
       55       55                                  Otherwise USERWSQ is used.
       56       56                         N - Number of pages to map.  If this argument is
       57       57                             omitted then one page is mapped.
       58       58
       59       59                DESCRIPTION:
       60       60                   If a dump file is being used then M$GVP is called to
       61       61                get the window pages requesed and the appropriate pages
       62       62                are read from the dump file into the window pages.  If
       63       63                the running system is being used then M$CVM is called to
       64       64                map the window pages to the appropriate physical pages.
       65       65                In any case DA_WINDOW is updated to reflect the current
       66       66                status of the window area.  If the altreturn is taken the
       67       67                error code is in DA_MAPERR.
       68       68                                                                           */
       69       69        /**/
       70       70        /**/
       71       71        /*D*    NAME:    DAM$CVM
       72       72                CALL:    CALL DAM$CVM(RPN,WP) ALTRET;
       73       73                INPUT:   RPN - Physical page to map to.
PL6.E3A0      #001=DAM$MAP File=DAM$MAP.:E05TSI                                  TUE 07/29/97 12:51 Page:19
       74       74                         WP - Window page number.
       75       75
       76       76                DESCRIPTION:
       77       77                   M$CVM is called to map the requested physical page to
       78       78                the specified window page.  If RPN is -1 the presence bit
       79       79                in DA_WINDOW is reset, otherwise it is set unless the
       80       80                M$CVM fails.  If the altreturn is taken the error code is
       81       81                in the altret frame of the TCB.
       82       82                *** For internal use by DAM routines ***
       83       83                                                                           */
       84       84        /**/
       85       85        /**/
       86       86        /*D*    NAME:    DAM$DUMPFILE
       87       87                CALL:    CALL DAM$DUMPFILE(FID) ALTRET;
       88       88                INPUT:   FID - File identifier of dump file.  (TEXTC)
       89       89                DESCRIPTION:
       90       90                   DAM$DUMPFILE initializes mapping data to obtain memory
       91       91                from the specified dump file.  If the altreturn is taken the
       92       92                error code is in DA_MAPERR.
       93       93                                                                           */
       94       94        /**/
       95       95        /**/
       96       96        /*D*    NAME:    DAM$RUNNING
       97       97                CALL:    CALL DAM$RUNNING ALTRET;
       98       98                DESCRIPTION:
       99       99                   DAM$RUNNING initializes mapping data to obtain memory from
      100      100                the running sytem.  If the altreturn is taken the error code
      101      101                is in DA_MAPERR.
      102      102                                                                           */
      103      103        /**/
      104      104        /**/
      105      105        /*D*    NAME:    DAM$INIT
      106      106                CALL:    CALL DAM$INIT ALTRET;
      107      107                DESCRIPTION:
      108      108                   DAM$INIT must be called before using any of the other DAM
      109      109                routines.  DAM$INIT falls through to DAM$RUNNING.  If the
      110      110                altreturn is taken the error code is in DA_MAPERR.
PL6.E3A0      #001=DAM$MAP File=DAM$MAP.:E05TSI                                  TUE 07/29/97 12:51 Page:20
      111      111                                                                           */
      112      112        /**/
      113      113        /**/
      114      114        /*D*    NAME:    DAM$FREEM
      115      115                CALL:    CALL DAM$FREEM
      116      116                DESCRIPTION:
      117      117                   DAM$FREEM frees all of the allocatable special descriptor
      118      118                slots and all in use window pages.  The SPCL8 descriptor slot
      119      119                is used for TIGR data and is not freed.  If looking at the
      120      120                running system the SPCL7 descriptor slot is used for the
      121      121                monitor IS and is not freed.  The purpose of this routine is
      122      122                give the programmer some control over when pointers obtained
      123      123                by DAM$MAP become invalid.  Previously obtained pointers
      124      124                become invalid when a call to DAM$MAP requires that either
      125      125                 the next avialable special descriptor slot or the next
      126      126                available window page be reset to 0.
      127      127
      128      128                When mapping users DAM$FREEM should be called at least on
      129      129                each pass through the user tables.
      130      130                                                                           */
      131      131        /**/
      132      132        /**/
      133      133        /*D*    NAME:    DAM$USECPU
      134      134                CALL:    CALL DAM$USECPU(CPU#) ALTRET;
      135      135                INPUT:   CPU# - The processor number of the CPU whose page
      136      136                                table is to be used on subsequent calls to
      137      137                                DAM$VPAGE.  Note, this is the proccessor
      138      138                                number, not the port number.
      139      139                DESCRIPTION:
      140      140                   DAM$USECPU causes MONWSQ mapping to go through the page
      141      141                table of the specified CPU.  If the alternate return is taken
      142      142                the error code is in DA_MAPERR.  If DAM$MAP is called to
      143      143                perform an operation that can be done with an M$SAD then the
      144      144                currently specified CPU has no effect.  You see the CPU you
      145      145                are running on.  Therfore if CPU specific data is required
      146      146                then the V argument to DAM$MAP should be used to force mapping
      147      147                to window pages.
PL6.E3A0      #001=DAM$MAP File=DAM$MAP.:E05TSI                                  TUE 07/29/97 12:51 Page:21
      148      148
      149      149                DA_MAP_D is the static data module associated with these
      150      150                routines.
      151      151                                                                           */
      152      152        DAM$MAP: PROC(IP$,OP$,SYSID,DOMAYN,V) ALTRET;

    152  3 000000   000000 700200 xent  DAM$MAP      TSX0  ! X66_AUTO_5
         3 000001   000040 000005                    ZERO    32,5

      153      153        /**/
      154      154        /* PARAMETERS */
      155      155        /**/
      156      156    1   DCL IP$ PTR;
      157      157    1   DCL 1 IP REDEF IP$,
      158      158    1         2 CA UBIN(20) UNAL,
      159      159    1         2 BA UBIN(4) UNAL,
      160      160    1         2 SID,
      161      161    1           3 S UBIN(2) UNAL,
      162      162    1           3 D UBIN(10) UNAL;
      163      163    1   DCL OP$ PTR;
      164      164    1   DCL 1 OP REDEF OP$,
      165      165    1         2 CA UBIN(20) UNAL,
      166      166    1         2 BA UBIN(4) UNAL,
      167      167    1         2 SID,
      168      168    1           3 S UBIN(2) UNAL,
      169      169    1           3 D UBIN(10) UNAL;
      170      170    1   DCL DOMAYN SBIN;
      171      171    1   DCL SYSID SBIN;
      172      172    1   DCL V BIT(72) ALIGNED;
      173      173        /**/
      174      174        /* LOCALS FOR PARAMETERS */
      175      175        /**/
      176      176    1   DCL D# SBIN;
      177      177    1   DCL U# SBIN;
      178      178    1   DCL S# SBIN;
      179      179    1   DCL 1 V# ALIGNED,
      180      180    1         2 BOUND UBIN(20) UNAL,
PL6.E3A0      #001=DAM$MAP File=DAM$MAP.:E05TSI                                  TUE 07/29/97 12:51 Page:22
      181      181    1         2 FLAGS BIT(16) UNAL,
      182      182    1         2 P,
      183      183    1           3 CA UBIN(20) UNAL,
      184      184    1           3 BA UBIN(4) UNAL,
      185      185    1           3 SID,
      186      186    1             4 S UBIN(2) UNAL,
      187      187    1             4 D UBIN(10) UNAL,
      188      188    1         2 P$ REDEF P PTR;
      189      189        /**/
      190      190        /* AUTO DATA */
      191      191        /**/
      192      192    1   DCL I SBIN;
      193      193    1   DCL CVMFLG BIT(1) ALIGNED;
      194      194    1   DCL 1 DESC ALIGNED,
      195      195    1         2 BOUND UBIN(20) UNAL,
      196      196    1         2 FLAGS BIT(9) UNAL,
      197      197    1         2 WSR UBIN(3) UNAL,
      198      198    1         2 TYPE UBIN(4) UNAL,
      199      199    1         2 BASE UBIN WORD;
      200      200    1   DCL 1 DESC2 REDEF DESC,
      201      201    1         2 BOUND UBIN(20) UNAL,
      202      202    1         2 FLAGS BIT(3) UNAL,
      203      203    1         2 WSQ UBIN(9) UNAL,
      204      204    1         2 TYPE UBIN(4) UNAL,
      205      205    1         2 BASE UBIN WORD;
      206      206    1   DCL WSQ SBIN;
      207      207    1   DCL PAGES SBIN;
      208      208    1   DCL PT$ PTR;
      209      209    1   DCL LS$ PTR;
      210      210    1   DCL FCN SBIN;
      211      211        /**/
      212      212        /* INCLUDE FILES */
      213      213        /**/
      214      214        %INCLUDE DA_MAP_R;
      215      244        %INCLUDE DA_PERR_C;
      216      308        %INCLUDE CP_6;
      217      389        %INCLUDE B_STRINGS_C;
PL6.E3A0      #001=DAM$MAP File=DAM$MAP.:E05TSI                                  TUE 07/29/97 12:51 Page:23
      218      518        %INCLUDE B_LSDATA_C;
      219     3724        %INCLUDE M_INFO_C;
      220     3864        %INCLUDE B_SEGIDS_C;
      221     4403    1   DCL B$JIT$ PTR SYMREF;
      222     4404        %INCLUDE B$JIT;
      223     4694        %INCLUDE SS_SCHED_C;
      224     4927        %INCLUDE B$USER;
      225     5143        %B$USERREFS;
      226     5147        %INCLUDE B$MAP;
      227     5246        %INCLUDE JG_GHOSTS_C;
      228     5336        /**/
      229     5337        /* STATIC, CONSTANT, BASED AND OTHER STUFF */
      230     5338        /**/
      231     5339    1   DCL B$TCB$ PTR SYMREF;
      232     5340        %B$TCB;
      233     5343        %B$ALT;
      234     5351        %FPT_SAD;
      235     5366        %FPT_STD;
      236     5381    1   DCL VECINIT BIT(72) CONSTANT INIT('777777777640'O);
      237     5382    1   DCL LS(0:0) BIT(72) ALIGNED BASED;
      238     5383    1   DCL B$IS$ PTR SYMREF;
      239     5384    1   DCL DA_WSRWSQ(0:7) UBIN BYTE UNAL CONSTANT SYMDEF INIT(%MONWSQ,%MONWSQ,0,%CGWSQ,%
              5384            CPWSQ,
      240     5385    1                                                %DBWSQ,%ASLWSQ,%USERWSQ);
      241     5386    1   DCL LSOFFSET(0:7) SBIN CONSTANT INIT(%(%(MLS_BASE%-HJIT_BASE%)/4),
      242     5387    1                                        0,
      243     5388    1                                        0,
      244     5389    1                                        0,
      245     5390    1                                        %(%(CLS_BASE%-HJIT_BASE%)/4),
      246     5391    1                                        %(%(DLS_BASE%-HJIT_BASE%)/4),
      247     5392    1                                        %(%(ALS_BASE%-HJIT_BASE%)/4),
      248     5393    1                                        %(%(ULS_BASE%-HJIT_BASE%)/4));
      249     5394        /**/
      250     5395    1   DCL DAM$VPAGE ENTRY(5) ALTRET;
      251     5396    1   DCL DA_MAP_D ENTRY CONV(5);
      252     5397        /**/
      253     5398        %SUB NEVER="WHILE('0'B)";
PL6.E3A0      #001=DAM$MAP File=DAM$MAP.:E05TSI                                  TUE 07/29/97 12:51 Page:24
      254     5399        %SUB FOREVER="WHILE('1'B)";
      255     5400        %EQU FCN_MAP=0;
      256     5401        %EQU FCN_GETDESC=1;
      257     5402        %EJECT;
PL6.E3A0      #001=DAM$MAP File=DAM$MAP.:E05TSI                                  TUE 07/29/97 12:51 Page:25
      258     5403    1           FCN=%FCN_MAP;

   5403  3 000002   200025 450100                    STZ     FCN,,AUTO

      259     5404    1           GOTO COMMON;

   5404  3 000003   000010 710000 3                  TRA     COMMON

      260     5405    1   DAM$GETDESC: ENTRY(IP$,OP$,SYSID,DOMAYN,V) ALTRET;

   5405  3 000004   000000 700200 xent  DAM$GETDESC  TSX0  ! X66_AUTO_5
         3 000005   000040 000005                    ZERO    32,5

      261     5406    1           FCN=%FCN_GETDESC;

   5406  3 000006   000001 235007                    LDA     1,DL
         3 000007   200025 755100                    STA     FCN,,AUTO

   5406  3 000010                       COMMON       null
      262     5407    1   COMMON: ;
      263     5408    1           IF ADDR(DOMAYN)=ADDR(NIL) THEN D#=%MONWSR;

   5408  3 000010   200006 236100                    LDQ     @DOMAYN,,AUTO
         3 000011   000001 116000 xsym               CMPQ    B_VECTNIL+1
         3 000012   000015 601000 3                  TNZ     s:5409

   5408  3 000013   200010 450100                    STZ     D#,,AUTO
         3 000014   000020 710000 3                  TRA     s:5410

      264     5409    1           ELSE D#=DOMAYN;

   5409  3 000015   200006 470500                    LDP0    @DOMAYN,,AUTO
         3 000016   000000 235100                    LDA     0,,PR0
         3 000017   200010 755100                    STA     D#,,AUTO

      265     5410    1           CVMFLG=DA_DUMPFILE;

PL6.E3A0      #001=DAM$MAP File=DAM$MAP.:E05TSI                                  TUE 07/29/97 12:51 Page:26
   5410  3 000020   000000 236000 xsym               LDQ     DA_DUMPFILE
         3 000021   400000 376003                    ANQ     -131072,DU
         3 000022   200016 756100                    STQ     CVMFLG,,AUTO

      266     5411    2           IF FCN~=%FCN_GETDESC THEN DO;

   5411  3 000023   200025 235100                    LDA     FCN,,AUTO
         3 000024   000001 115007                    CMPA    1,DL
         3 000025   000123 600000 3                  TZE     s:5434

      267     5412    3              IF ADDR(V)=ADDR(NIL) THEN DO;

   5412  3 000026   200007 236100                    LDQ     @V,,AUTO
         3 000027   000001 116000 xsym               CMPQ    B_VECTNIL+1
         3 000030   000040 601000 3                  TNZ     s:5417

      268     5413    3                 V#=VECINIT;

   5413  3 000031   000000 237000 2                  LDAQ    VECINIT
         3 000032   200013 755100                    STA     V#,,AUTO
         3 000033   200014 756100                    STQ     V#+1,,AUTO

      269     5414    3                 V#.P.SID=IP.SID;

   5414  3 000034   200003 470500                    LDP0    @IP$,,AUTO
         3 000035   000000 236100                    LDQ     0,,PR0
         3 000036   200014 752103                    STCQ    V#+1,'03'O,AUTO

      270     5415    3                 END;

   5415  3 000037   000123 710000 3                  TRA     s:5434

      271     5416    3              ELSE DO;

      272     5417    4                 IF ADDR(V)=ADDR(DA_MONISDATA) AND NOT DA_DUMPFILE THEN DO;

   5417  3 000040   000000 236000 4                  LDQ     0
PL6.E3A0      #001=DAM$MAP File=DAM$MAP.:E05TSI                                  TUE 07/29/97 12:51 Page:27
         3 000041   200007 116100                    CMPQ    @V,,AUTO
         3 000042   000060 601000 3                  TNZ     s:5423
         3 000043   000000 234000 xsym               SZN     DA_DUMPFILE
         3 000044   000060 604000 3                  TMI     s:5423

      273     5418    4                    OP$=IP$;

   5418  3 000045   200003 470500                    LDP0    @IP$,,AUTO
         3 000046   000000 236100                    LDQ     0,,PR0
         3 000047   200004 471500                    LDP1    @OP$,,AUTO
         3 000050   100000 756100                    STQ     0,,PR1

      274     5419    4                    OP.SID=DA_SDASN.SID(%MONIS#);

   5419  3 000051   000024 236000 xsym               LDQ     DA_SDASN+20
         3 000052   000030 772000                    QRL     24
         3 000053   100000 752103                    STCQ    0,'03'O,PR1

      275     5420    4                    DA_LASTBOUND=DA_SDASN.DESC.BOUND(%MONIS#);

   5420  3 000054   000022 236000 xsym               LDQ     DA_SDASN+18
         3 000055   000020 772000                    QRL     16
         3 000056   000000 756000 xsym               STQ     DA_LASTBOUND

      276     5421    4                    RETURN;

   5421  3 000057   000000 702200 xent               TSX2  ! X66_ARET

      277     5422    4                    END;
      278     5423    3                 V#=V;

   5423  3 000060   200007 470500                    LDP0    @V,,AUTO
         3 000061   000100 100500                    MLR     fill='000'O
         3 000062   000000 000010                    ADSC9   0,,PR0                   cn=0,n=8
         3 000063   200013 000010                    ADSC9   V#,,AUTO                 cn=0,n=8

      279     5424    3                 IF V#.P.SID~=IP.SID OR V#.P.CA>IP.CA OR V#.P.CA+V#.BOUND<IP.CA THEN
PL6.E3A0      #001=DAM$MAP File=DAM$MAP.:E05TSI                                  TUE 07/29/97 12:51 Page:28

   5424  3 000064   200003 471500                    LDP1    @IP$,,AUTO
         3 000065   200014 236100                    LDQ     V#+1,,AUTO
         3 000066   100000 676100                    ERQ     0,,PR1
         3 000067   007777 376007                    ANQ     4095,DL
         3 000070   000115 601000 3                  TNZ     s:5425
         3 000071   200014 236100                    LDQ     V#+1,,AUTO
         3 000072   000020 772000                    QRL     16
         3 000073   200030 756100                    STQ     @CODE+1,,AUTO
         3 000074   100000 236100                    LDQ     0,,PR1
         3 000075   000020 772000                    QRL     16
         3 000076   200030 116100                    CMPQ    @CODE+1,,AUTO
         3 000077   000115 604000 3                  TMI     s:5425
         3 000100   200013 236100                    LDQ     V#,,AUTO
         3 000101   000020 772000                    QRL     16
         3 000102   200031 756100                    STQ     @CODE+2,,AUTO
         3 000103   200014 236100                    LDQ     V#+1,,AUTO
         3 000104   000020 772000                    QRL     16
         3 000105   200031 036100                    ADLQ    @CODE+2,,AUTO
         3 000106   200032 756100                    STQ     @CODE+3,,AUTO
         3 000107   100000 236100                    LDQ     0,,PR1
         3 000110   000020 772000                    QRL     16
         3 000111   200033 756100                    STQ     @CODE+4,,AUTO
         3 000112   200032 236100                    LDQ     @CODE+3,,AUTO
         3 000113   200033 116100                    CMPQ    @CODE+4,,AUTO
         3 000114   000121 603000 3                  TRC     s:5431

      280     5425    3                    CALL SETERR(%E$DA_BAD_VEC) ALTRET(ALT);

   5425  3 000115   000002 236000 4                  LDQ     2
         3 000116   200027 756100                    STQ     FCN+2,,AUTO
         3 000117   001177 701000 3                  TSX1    SETERR
         3 000120   001176 702000 3                  TSX2    ALT

      281     5426        /*E*    ERROR:   DAM-E$DA_BAD_VEC
      282     5427                MESSAGE: The pointer part of the V argument to DAM$MAP must
      283     5428                         have the same segid as IP$ and IP$ must lie within
PL6.E3A0      #001=DAM$MAP File=DAM$MAP.:E05TSI                                  TUE 07/29/97 12:51 Page:29
      284     5429                         the area framed by V.
      285     5430                                                                           */
      286     5431    3                 CVMFLG='1'B;

   5431  3 000121   400000 236003                    LDQ     -131072,DU
         3 000122   200016 756100                    STQ     CVMFLG,,AUTO

      287     5432    3                 END;

      288     5433    2              END;

      289     5434    1           IF ADDR(SYSID)=ADDR(NIL) THEN

   5434  3 000123   200005 236100                    LDQ     @SYSID,,AUTO
         3 000124   000001 116000 xsym               CMPQ    B_VECTNIL+1
         3 000125   000140 601000 3                  TNZ     s:5438

      290     5435    1              IF D#=%MONWSR THEN U#=0;

   5435  3 000126   200010 235100                    LDA     D#,,AUTO
         3 000127   000132 601000 3                  TNZ     s:5436

   5435  3 000130   200011 450100                    STZ     U#,,AUTO
         3 000131   000172 710000 3                  TRA     USRFOUND

      291     5436    1              ELSE U#=B$JIT.USER;

   5436  3 000132   000000 470400 xsym               LDP0    B$JIT$
         3 000133   000000 236100                    LDQ     0,,PR0
         3 000134   000022 772000                    QRL     18
         3 000135   000777 376007                    ANQ     511,DL
         3 000136   200011 756100                    STQ     U#,,AUTO
         3 000137   000172 710000 3                  TRA     USRFOUND

      292     5437    2           ELSE DO;

      293     5438    2              IF SYSID<=0 THEN U#=-SYSID;
PL6.E3A0      #001=DAM$MAP File=DAM$MAP.:E05TSI                                  TUE 07/29/97 12:51 Page:30

   5438  3 000140   200005 470500                    LDP0    @SYSID,,AUTO
         3 000141   000000 235100                    LDA     0,,PR0
         3 000142   000147 605400 3                  TPNZ    s:5440

   5438  3 000143   000000 235100                    LDA     0,,PR0
         3 000144   000000 531000                    NEG     0
         3 000145   200011 755100                    STA     U#,,AUTO
         3 000146   000172 710000 3                  TRA     USRFOUND

      294     5439    3              ELSE DO;

      295     5440    4                 DO U#=1 TO DA_MUAIS;

   5440  3 000147   000001 235007                    LDA     1,DL
         3 000150   200011 755100                    STA     U#,,AUTO
         3 000151   000163 710000 3                  TRA     s:5442+1

      296     5441    4                    IF SYSID=B$USRT$->B$USER.SYSID(U#) THEN GOTO USRFOUND;

   5441  3 000152   200005 470500                    LDP0    @SYSID,,AUTO
         3 000153   200011 235100                    LDA     U#,,AUTO
         3 000154   000004 735000                    ALS     4
         3 000155   000000 471400 xsym               LDP1    B$USRT$
         3 000156   100014 236105                    LDQ     12,AL,PR1
         3 000157   777777 376007                    ANQ     -1,DL
         3 000160   000000 116100                    CMPQ    0,,PR0
         3 000161   000172 600000 3                  TZE     USRFOUND

      297     5442    4                    END;

   5442  3 000162   200011 054100                    AOS     U#,,AUTO
         3 000163   200011 236100                    LDQ     U#,,AUTO
         3 000164   000000 116000 xsym               CMPQ    DA_MUAIS
         3 000165   000152 604400 3                  TMOZ    s:5441

      298     5443    3                 CALL SETERR(%E$DA_NO_USER) ALTRET(ALT);
PL6.E3A0      #001=DAM$MAP File=DAM$MAP.:E05TSI                                  TUE 07/29/97 12:51 Page:31

   5443  3 000166   000004 236000 4                  LDQ     4
         3 000167   200027 756100                    STQ     FCN+2,,AUTO
         3 000170   001177 701000 3                  TSX1    SETERR
         3 000171   001176 702000 3                  TSX2    ALT

      299     5444    3                 END;

      300     5445    2              END;

   5441  3 000172                       USRFOUND     null
      301     5446    1   USRFOUND:;
      302     5447    1           IF U#<=JG_MING# THEN S#=U#;

   5447  3 000172   200011 235100                    LDA     U#,,AUTO
         3 000173   000017 115007                    CMPA    15,DL
         3 000174   000177 605400 3                  TPNZ    s:5448

   5447  3 000175   200012 755100                    STA     S#,,AUTO
         3 000176   000204 710000 3                  TRA     s:5449

      303     5448    1           ELSE S#=B$USRT$->B$USER.SYSID(U#);

   5448  3 000177   000004 735000                    ALS     4
         3 000200   000000 470400 xsym               LDP0    B$USRT$
         3 000201   000014 236105                    LDQ     12,AL,PR0
         3 000202   777777 376007                    ANQ     -1,DL
         3 000203   200012 756100                    STQ     S#,,AUTO

      304     5449    2           IF U#~=0 THEN DO;

   5449  3 000204   200011 235100                    LDA     U#,,AUTO
         3 000205   000223 600000 3                  TZE     s:5456

      305     5450    2              IF U#>DA_MUAIS OR B$USRT$->B$USER.US(U#)=%SS_SNULL THEN

   5450  3 000206   200011 236100                    LDQ     U#,,AUTO
PL6.E3A0      #001=DAM$MAP File=DAM$MAP.:E05TSI                                  TUE 07/29/97 12:51 Page:32
         3 000207   000000 116000 xsym               CMPQ    DA_MUAIS
         3 000210   000217 605400 3                  TPNZ    s:5451
         3 000211   000004 735000                    ALS     4
         3 000212   000000 470400 xsym               LDP0    B$USRT$
         3 000213   000011 236105                    LDQ     9,AL,PR0
         3 000214   770000 376003                    ANQ     -4096,DU
         3 000215   300000 116003                    CMPQ    98304,DU
         3 000216   000223 601000 3                  TNZ     s:5456

      306     5451    2                 CALL SETERR(%E$DA_NO_USER) ALTRET(ALT);

   5451  3 000217   000004 236000 4                  LDQ     4
         3 000220   200027 756100                    STQ     FCN+2,,AUTO
         3 000221   001177 701000 3                  TSX1    SETERR
         3 000222   001176 702000 3                  TSX2    ALT

      307     5452        /*E*    ERROR:   DAM-E$DA_NO_USER
      308     5453                MESSAGE: The specified sysid/user no. does not exist.
      309     5454                                                                           */
      310     5455    2              END;

      311     5456    2           DO CASE(IP.SID.S);

   5456  3 000223   200003 470500                    LDP0    @IP$,,AUTO
         3 000224   000000 236100                    LDQ     0,,PR0
         3 000225   000012 772000                    QRL     10
         3 000226   000003 376007                    ANQ     3,DL
         3 000227   000004 116007                    CMPQ    4,DL
         3 000230   000232 602006 3                  TNC     s:5456+7,QL
         3 000231   000427 710000 3                  TRA     s:5483
         3 000232   000236 710000 3                  TRA     s:5458
         3 000233   000427 710000 3                  TRA     s:5483
         3 000234   000301 710000 3                  TRA     s:5463
         3 000235   000344 710000 3                  TRA     s:5468

      312     5457    2            CASE(0);                       /* PARAMETER STACK */

PL6.E3A0      #001=DAM$MAP File=DAM$MAP.:E05TSI                                  TUE 07/29/97 12:51 Page:33
      313     5458    2              I=DA_WSRWSQ(DA_PSR.WSR);

   5458  3 000236   000000 236000 xsym               LDQ     DA_PSR
         3 000237   000004 772000                    QRL     4
         3 000240   000007 376007                    ANQ     7,DL
         3 000241   000100 101406                    MRL     fill='000'O
         3 000242   000002 000001 2                  ADSC9   DA_WSRWSQ,Q              cn=0,n=1
         3 000243   200015 000004                    ADSC9   I,,AUTO                  cn=0,n=4

      314     5459    2              CALL DAM$VPAGE(DA_PSR.BASE/4096,%MSCPG3#,-U#,I) ALTRET(ALT);

   5459  3 000244   000001 236000 xsym               LDQ     DA_PSR+1
         3 000245   000014 772000                    QRL     12
         3 000246   200030 756100                    STQ     @CODE+1,,AUTO
         3 000247   200011 335100                    LCA     U#,,AUTO
         3 000250   200031 755100                    STA     @CODE+2,,AUTO
         3 000251   200015 631500                    EPPR1   I,,AUTO
         3 000252   200035 451500                    STP1    @CODE+6,,AUTO
         3 000253   200031 633500                    EPPR3   @CODE+2,,AUTO
         3 000254   200034 453500                    STP3    @CODE+5,,AUTO
         3 000255   000005 236000 4                  LDQ     5
         3 000256   200033 756100                    STQ     @CODE+4,,AUTO
         3 000257   200030 634500                    EPPR4   @CODE+1,,AUTO
         3 000260   200032 454500                    STP4    @CODE+3,,AUTO
         3 000261   200032 630500                    EPPR0   @CODE+3,,AUTO
         3 000262   000022 631400 xsym               EPPR1   B_VECTNIL+18
         3 000263   000000 701000 xent               TSX1    DAM$VPAGE
         3 000264   001176 702000 3                  TSX2    ALT

      315     5460    2              LS$=PINCRC(B$IS$,DA_MSCPG3*4096+MOD(DA_PSR.BASE,4096));

   5460  3 000265   000001 236000 xsym               LDQ     DA_PSR+1
         3 000266   007777 376007                    ANQ     4095,DL
         3 000267   200030 756100                    STQ     @CODE+1,,AUTO
         3 000270   000000 236000 xsym               LDQ     DA_MSCPG3
         3 000271   000014 736000                    QLS     12
         3 000272   200030 036100                    ADLQ    @CODE+1,,AUTO
PL6.E3A0      #001=DAM$MAP File=DAM$MAP.:E05TSI                                  TUE 07/29/97 12:51 Page:34
         3 000273   000020 736000                    QLS     16
         3 000274   000000 036000 xsym               ADLQ    B$IS$
         3 000275   200024 756100                    STQ     LS$,,AUTO

      316     5461    2              CVMFLG='1'B;

   5461  3 000276   400000 236003                    LDQ     -131072,DU
         3 000277   200016 756100                    STQ     CVMFLG,,AUTO
         3 000300   000433 710000 3                  TRA     s:5489

      317     5462    2            CASE(2);                       /* ARGUMENT STACK */

      318     5463    2              I=DA_WSRWSQ(DA_ASR.WSR);

   5463  3 000301   000000 236000 xsym               LDQ     DA_ASR
         3 000302   000004 772000                    QRL     4
         3 000303   000007 376007                    ANQ     7,DL
         3 000304   000100 101406                    MRL     fill='000'O
         3 000305   000002 000001 2                  ADSC9   DA_WSRWSQ,Q              cn=0,n=1
         3 000306   200015 000004                    ADSC9   I,,AUTO                  cn=0,n=4

      319     5464    2              CALL DAM$VPAGE(DA_ASR.BASE/4096,%MSCPG3#,-U#,I) ALTRET(ALT);

   5464  3 000307   000001 236000 xsym               LDQ     DA_ASR+1
         3 000310   000014 772000                    QRL     12
         3 000311   200030 756100                    STQ     @CODE+1,,AUTO
         3 000312   200011 335100                    LCA     U#,,AUTO
         3 000313   200031 755100                    STA     @CODE+2,,AUTO
         3 000314   200015 631500                    EPPR1   I,,AUTO
         3 000315   200035 451500                    STP1    @CODE+6,,AUTO
         3 000316   200031 633500                    EPPR3   @CODE+2,,AUTO
         3 000317   200034 453500                    STP3    @CODE+5,,AUTO
         3 000320   000005 236000 4                  LDQ     5
         3 000321   200033 756100                    STQ     @CODE+4,,AUTO
         3 000322   200030 634500                    EPPR4   @CODE+1,,AUTO
         3 000323   200032 454500                    STP4    @CODE+3,,AUTO
         3 000324   200032 630500                    EPPR0   @CODE+3,,AUTO
PL6.E3A0      #001=DAM$MAP File=DAM$MAP.:E05TSI                                  TUE 07/29/97 12:51 Page:35
         3 000325   000022 631400 xsym               EPPR1   B_VECTNIL+18
         3 000326   000000 701000 xent               TSX1    DAM$VPAGE
         3 000327   001176 702000 3                  TSX2    ALT

      320     5465    2              LS$=PINCRC(B$IS$,DA_MSCPG3*4096+MOD(DA_ASR.BASE,4096));

   5465  3 000330   000001 236000 xsym               LDQ     DA_ASR+1
         3 000331   007777 376007                    ANQ     4095,DL
         3 000332   200030 756100                    STQ     @CODE+1,,AUTO
         3 000333   000000 236000 xsym               LDQ     DA_MSCPG3
         3 000334   000014 736000                    QLS     12
         3 000335   200030 036100                    ADLQ    @CODE+1,,AUTO
         3 000336   000020 736000                    QLS     16
         3 000337   000000 036000 xsym               ADLQ    B$IS$
         3 000340   200024 756100                    STQ     LS$,,AUTO

      321     5466    2              CVMFLG='1'B;

   5466  3 000341   400000 236003                    LDQ     -131072,DU
         3 000342   200016 756100                    STQ     CVMFLG,,AUTO
         3 000343   000433 710000 3                  TRA     s:5489

      322     5467    2            CASE(3);                       /* LINKAGE SEGMENT */

      323     5468    3              DO CASE(D#);

   5468  3 000344   200010 235100                    LDA     D#,,AUTO
         3 000345   000010 115007                    CMPA    8,DL
         3 000346   000350 602005 3                  TNC     s:5468+4,AL
         3 000347   000422 710000 3                  TRA     s:5476
         3 000350   000360 710000 3                  TRA     s:5470
         3 000351   000422 710000 3                  TRA     s:5476
         3 000352   000422 710000 3                  TRA     s:5476
         3 000353   000422 710000 3                  TRA     s:5476
         3 000354   000376 710000 3                  TRA     s:5473
         3 000355   000376 710000 3                  TRA     s:5473
         3 000356   000376 710000 3                  TRA     s:5473
PL6.E3A0      #001=DAM$MAP File=DAM$MAP.:E05TSI                                  TUE 07/29/97 12:51 Page:36
         3 000357   000376 710000 3                  TRA     s:5473

      324     5469    3               CASE(%MONWSR);

      325     5470    3                 CALL DAM$VPAGE(HJIT_BASE%/4096,%MSCPG3#,,%MONWSQ) ALTRET(ALT);

   5470  3 000360   000007 236000 4                  LDQ     7
         3 000361   000001 235000 xsym               LDA     B_VECTNIL+1
         3 000362   200032 757100                    STAQ    @CODE+3,,AUTO
         3 000363   000010 237000 4                  LDAQ    8
         3 000364   200030 757100                    STAQ    @CODE+1,,AUTO
         3 000365   200030 630500                    EPPR0   @CODE+1,,AUTO
         3 000366   000022 631400 xsym               EPPR1   B_VECTNIL+18
         3 000367   000000 701000 xent               TSX1    DAM$VPAGE
         3 000370   001176 702000 3                  TSX2    ALT

      326     5471    3                 LS$=PINCRW(B$IS$,DA_MSCPG3*1024);

   5471  3 000371   000000 236000 xsym               LDQ     DA_MSCPG3
         3 000372   000034 736000                    QLS     28
         3 000373   000000 036000 xsym               ADLQ    B$IS$
         3 000374   200024 756100                    STQ     LS$,,AUTO
         3 000375   000433 710000 3                  TRA     s:5489

      327     5472    3               CASE(%CPWSR,%DBWSR,%ASLWSR,%USERWSR);

      328     5473    3                 CALL DAM$VPAGE(HJIT_BASE%/4096,%MSCPG3#,-U#,%USERWSQ) ALTRET(ALT);

   5473  3 000376   200011 335100                    LCA     U#,,AUTO
         3 000377   200030 755100                    STA     @CODE+1,,AUTO
         3 000400   000012 236000 4                  LDQ     10
         3 000401   200035 756100                    STQ     @CODE+6,,AUTO
         3 000402   200030 631500                    EPPR1   @CODE+1,,AUTO
         3 000403   200034 451500                    STP1    @CODE+5,,AUTO
         3 000404   000010 237000 4                  LDAQ    8
         3 000405   200032 757100                    STAQ    @CODE+3,,AUTO
         3 000406   200032 630500                    EPPR0   @CODE+3,,AUTO
PL6.E3A0      #001=DAM$MAP File=DAM$MAP.:E05TSI                                  TUE 07/29/97 12:51 Page:37
         3 000407   000022 631400 xsym               EPPR1   B_VECTNIL+18
         3 000410   000000 701000 xent               TSX1    DAM$VPAGE
         3 000411   001176 702000 3                  TSX2    ALT

      329     5474    3                 LS$=PINCRW(B$IS$,DA_MSCPG3*1024+LSOFFSET(D#));

   5474  3 000412   200010 720100                    LXL0    D#,,AUTO
         3 000413   000000 236000 xsym               LDQ     DA_MSCPG3
         3 000414   000012 736000                    QLS     10
         3 000415   000004 036010 2                  ADLQ    LSOFFSET,X0
         3 000416   000022 736000                    QLS     18
         3 000417   000000 036000 xsym               ADLQ    B$IS$
         3 000420   200024 756100                    STQ     LS$,,AUTO
         3 000421   000433 710000 3                  TRA     s:5489

      330     5475    3               CASE(ELSE);

      331     5476    3                 CALL SETERR(%E$DA_BAD_DOMAIN) ALTRET(ALT);

   5476  3 000422   000014 236000 4                  LDQ     12
         3 000423   200027 756100                    STQ     FCN+2,,AUTO
         3 000424   001177 701000 3                  TSX1    SETERR
         3 000425   001176 702000 3                  TSX2    ALT

      332     5477        /*E*    ERROR:   DAM-E$DA_BAD_DOMAIN
      333     5478                MESSAGE: DOMAIN must be one of %MONWSR, %CPWSR, %DBWSR, %ASLWSR,
      334     5479                         or %USERWSR.
      335     5480                                                                           */
      336     5481    3               END;

   5481  3 000426   000433 710000 3                  TRA     s:5489

      337     5482    2            CASE(ELSE);

      338     5483    2              CALL SETERR(%E$DA_NOT_LS) ALTRET(ALT);

   5483  3 000427   000016 236000 4                  LDQ     14
PL6.E3A0      #001=DAM$MAP File=DAM$MAP.:E05TSI                                  TUE 07/29/97 12:51 Page:38
         3 000430   200027 756100                    STQ     FCN+2,,AUTO
         3 000431   001177 701000 3                  TSX1    SETERR
         3 000432   001176 702000 3                  TSX2    ALT

      339     5484        /*E*    ERROR:   DAM-E$DA_NOT_LS
      340     5485                MESSAGE: Bad input pointer to DAM$MAP.
      341     5486                                                                           */
      342     5487    2            END;

      343     5488        /**/
      344     5489    1           DESC=LS$->LS(IP.SID.D);

   5489  3 000433   200003 470500                    LDP0    @IP$,,AUTO
         3 000434   000000 236100                    LDQ     0,,PR0
         3 000435   000001 736000                    QLS     1
         3 000436   003776 376007                    ANQ     2046,DL
         3 000437   000002 736000                    QLS     2
         3 000440   200024 471500                    LDP1    LS$,,AUTO
         3 000441   000100 100506                    MLR     fill='000'O
         3 000442   100000 000010                    ADSC9   0,Q,PR1                  cn=0,n=8
         3 000443   200017 000010                    ADSC9   DESC,,AUTO               cn=0,n=8

      345     5490    2           IF FCN=%FCN_GETDESC THEN DO;

   5490  3 000444   200025 235100                    LDA     FCN,,AUTO
         3 000445   000001 115007                    CMPA    1,DL
         3 000446   000457 601000 3                  TNZ     s:5495

      346     5491    2              V=DESC;

   5491  3 000447   200007 473500                    LDP3    @V,,AUTO
         3 000450   000100 100500                    MLR     fill='000'O
         3 000451   200017 000010                    ADSC9   DESC,,AUTO               cn=0,n=8
         3 000452   300000 000010                    ADSC9   0,,PR3                   cn=0,n=8

      347     5492    2              OP$=LS$;

PL6.E3A0      #001=DAM$MAP File=DAM$MAP.:E05TSI                                  TUE 07/29/97 12:51 Page:39
   5492  3 000453   200024 236100                    LDQ     LS$,,AUTO
         3 000454   200004 474500                    LDP4    @OP$,,AUTO
         3 000455   400000 756100                    STQ     0,,PR4

      348     5493    2              RETURN;

   5493  3 000456   000000 702200 xent               TSX2  ! X66_ARET

      349     5494    2              END;
      350     5495    1           DESC.BASE=DESC.BASE+V#.P.CA;

   5495  3 000457   200014 236100                    LDQ     V#+1,,AUTO
         3 000460   000020 772000                    QRL     16
         3 000461   200020 036100                    ADLQ    DESC+1,,AUTO
         3 000462   200020 756100                    STQ     DESC+1,,AUTO

      351     5496    1           DESC.BOUND=DESC.BOUND-V#.P.CA;

   5496  3 000463   200014 236100                    LDQ     V#+1,,AUTO
         3 000464   000020 772000                    QRL     16
         3 000465   200030 756100                    STQ     @CODE+1,,AUTO
         3 000466   200017 236100                    LDQ     DESC,,AUTO
         3 000467   000020 772000                    QRL     16
         3 000470   200030 136100                    SBLQ    @CODE+1,,AUTO
         3 000471   000020 736000                    QLS     16
         3 000472   200017 676100                    ERQ     DESC,,AUTO
         3 000473   000034 376000 xsym               ANQ     B_VECTNIL+28
         3 000474   200017 656100                    ERSQ    DESC,,AUTO

      352     5497    1           IF DESC.BOUND>V#.BOUND THEN DESC.BOUND=V#.BOUND;

   5497  3 000475   200017 236100                    LDQ     DESC,,AUTO
         3 000476   000020 772000                    QRL     16
         3 000477   200030 756100                    STQ     @CODE+1,,AUTO
         3 000500   200013 236100                    LDQ     V#,,AUTO
         3 000501   000020 772000                    QRL     16
         3 000502   200030 116100                    CMPQ    @CODE+1,,AUTO
PL6.E3A0      #001=DAM$MAP File=DAM$MAP.:E05TSI                                  TUE 07/29/97 12:51 Page:40
         3 000503   000511 605000 3                  TPL     s:5498

   5497  3 000504   200013 236100                    LDQ     V#,,AUTO
         3 000505   200017 676100                    ERQ     DESC,,AUTO
         3 000506   000034 376000 xsym               ANQ     B_VECTNIL+28
         3 000507   200017 656100                    ERSQ    DESC,,AUTO
         3 000510   000515 710000 3                  TRA     s:5499

      353     5498    1           ELSE V#.BOUND=DESC.BOUND;

   5498  3 000511   200017 236100                    LDQ     DESC,,AUTO
         3 000512   200013 676100                    ERQ     V#,,AUTO
         3 000513   000034 376000 xsym               ANQ     B_VECTNIL+28
         3 000514   200013 656100                    ERSQ    V#,,AUTO

      354     5499    2           DO CASE(DESC.TYPE);

   5499  3 000515   200017 720100                    LXL0    DESC,,AUTO
         3 000516   000017 360003                    ANX0    15,DU
         3 000517   000003 100003                    CMPX0   3,DU
         3 000520   000522 602010 3                  TNC     s:5499+5,X0
         3 000521   000541 710000 3                  TRA     s:5505
         3 000522   000525 710000 3                  TRA     s:5501
         3 000523   000541 710000 3                  TRA     s:5505
         3 000524   000534 710000 3                  TRA     s:5503

      355     5500    2            CASE(0);

      356     5501    2              WSQ=DA_WSRWSQ(DESC.WSR);

   5501  3 000525   200017 236100                    LDQ     DESC,,AUTO
         3 000526   000004 772000                    QRL     4
         3 000527   000007 376007                    ANQ     7,DL
         3 000530   000100 101406                    MRL     fill='000'O
         3 000531   000002 000001 2                  ADSC9   DA_WSRWSQ,Q              cn=0,n=1
         3 000532   200021 000004                    ADSC9   WSQ,,AUTO                cn=0,n=4
         3 000533   000545 710000 3                  TRA     s:5510
PL6.E3A0      #001=DAM$MAP File=DAM$MAP.:E05TSI                                  TUE 07/29/97 12:51 Page:41

      357     5502    2            CASE(2);

      358     5503    2              WSQ=DESC2.WSQ;

   5503  3 000534   200017 236100                    LDQ     DESC,,AUTO
         3 000535   000004 772000                    QRL     4
         3 000536   000777 376007                    ANQ     511,DL
         3 000537   200021 756100                    STQ     WSQ,,AUTO
         3 000540   000545 710000 3                  TRA     s:5510

      359     5504    2            CASE(ELSE);

      360     5505    2              CALL SETERR(%E$DA_BAD_DESC) ALTRET(ALT);

   5505  3 000541   000020 236000 4                  LDQ     16
         3 000542   200027 756100                    STQ     FCN+2,,AUTO
         3 000543   001177 701000 3                  TSX1    SETERR
         3 000544   001176 702000 3                  TSX2    ALT

      361     5506        /*E*    ERROR:   DAM-E$DA_BAD_DESC
      362     5507                MESSAGE: The descriptor referenced by IP$ must be of type 0 or 2.
      363     5508                                                                           */
      364     5509    2            END;

      365     5510    1           IF WSQ~=%USERWSQ THEN U#=0;

   5510  3 000545   200021 235100                    LDA     WSQ,,AUTO
         3 000546   000010 115007                    CMPA    8,DL
         3 000547   000552 600000 3                  TZE     s:5511

   5510  3 000550   200011 450100                    STZ     U#,,AUTO
         3 000551   000562 710000 3                  TRA     s:5512

      366     5511    1           ELSE IF U#~=B$JIT.USER THEN CVMFLG='1'B;

   5511  3 000552   000000 470400 xsym               LDP0    B$JIT$
PL6.E3A0      #001=DAM$MAP File=DAM$MAP.:E05TSI                                  TUE 07/29/97 12:51 Page:42
         3 000553   000000 236100                    LDQ     0,,PR0
         3 000554   000022 772000                    QRL     18
         3 000555   000777 376007                    ANQ     511,DL
         3 000556   200011 116100                    CMPQ    U#,,AUTO
         3 000557   000562 600000 3                  TZE     s:5512

   5511  3 000560   400000 236003                    LDQ     -131072,DU
         3 000561   200016 756100                    STQ     CVMFLG,,AUTO

      367     5512    1           IF D#~=%MONWSR THEN CVMFLG='1'B;

   5512  3 000562   200010 236100                    LDQ     D#,,AUTO
         3 000563   000566 600000 3                  TZE     s:5513

   5512  3 000564   400000 236003                    LDQ     -131072,DU
         3 000565   200016 756100                    STQ     CVMFLG,,AUTO

      368     5513    1           PAGES=(DESC.BOUND+MOD(DESC.BASE,4096))/4096;

   5513  3 000566   200020 236100                    LDQ     DESC+1,,AUTO
         3 000567   007777 376007                    ANQ     4095,DL
         3 000570   200030 756100                    STQ     @CODE+1,,AUTO
         3 000571   200017 236100                    LDQ     DESC,,AUTO
         3 000572   000020 772000                    QRL     16
         3 000573   200031 756100                    STQ     @CODE+2,,AUTO
         3 000574   200030 236100                    LDQ     @CODE+1,,AUTO
         3 000575   200031 036100                    ADLQ    @CODE+2,,AUTO
         3 000576   000014 772000                    QRL     12
         3 000577   200022 756100                    STQ     PAGES,,AUTO

      369     5514    2           IF (WSQ~=%MONWSQ OR IP.SID~=%ISSID) AND NOT CVMFLG THEN DO;

   5514  3 000600   000001 115007                    CMPA    1,DL
         3 000601   000607 601000 3                  TNZ     s:5514+7
         3 000602   200003 470500                    LDP0    @IP$,,AUTO
         3 000603   000000 236100                    LDQ     0,,PR0
         3 000604   007777 376007                    ANQ     4095,DL
PL6.E3A0      #001=DAM$MAP File=DAM$MAP.:E05TSI                                  TUE 07/29/97 12:51 Page:43
         3 000605   006000 116007                    CMPQ    3072,DL
         3 000606   000655 600000 3                  TZE     s:5523
         3 000607   200016 234100                    SZN     CVMFLG,,AUTO
         3 000610   000655 604000 3                  TMI     s:5523

      370     5515    2              CALL DAM$VPAGE(0,%MSCPG3#,-U#,WSQ,1) ALTRET(ALT);

   5515  3 000611   200011 336100                    LCQ     U#,,AUTO
         3 000612   200030 756100                    STQ     @CODE+1,,AUTO
         3 000613   000007 236000 4                  LDQ     7
         3 000614   200035 756100                    STQ     @CODE+6,,AUTO
         3 000615   200021 630500                    EPPR0   WSQ,,AUTO
         3 000616   200034 450500                    STP0    @CODE+5,,AUTO
         3 000617   200030 631500                    EPPR1   @CODE+1,,AUTO
         3 000620   200033 451500                    STP1    @CODE+4,,AUTO
         3 000621   000005 236000 4                  LDQ     5
         3 000622   200032 756100                    STQ     @CODE+3,,AUTO
         3 000623   000021 236000 4                  LDQ     17
         3 000624   200031 756100                    STQ     @CODE+2,,AUTO
         3 000625   200031 630500                    EPPR0   @CODE+2,,AUTO
         3 000626   000023 631400 xsym               EPPR1   B_VECTNIL+19
         3 000627   000000 701000 xent               TSX1    DAM$VPAGE
         3 000630   001176 702000 3                  TSX2    ALT

      371     5516        /* THE ABOVE CALL CAUSES DAM$VPAGE TO PUT THE PAGE TABLE FOR WSQ
      372     5517           IN MSCPG1 */
      373     5518    2              PT$=PINCRW(B$IS$,DA_MSCPG1*1024);

   5518  3 000631   000000 236000 xsym               LDQ     DA_MSCPG1
         3 000632   000034 736000                    QLS     28
         3 000633   000000 036000 xsym               ADLQ    B$IS$
         3 000634   200023 756100                    STQ     PT$,,AUTO

      374     5519    3              DO I=0 TO PAGES;

   5519  3 000635   200015 450100                    STZ     I,,AUTO
         3 000636   000652 710000 3                  TRA     s:5521+1
PL6.E3A0      #001=DAM$MAP File=DAM$MAP.:E05TSI                                  TUE 07/29/97 12:51 Page:44

      375     5520    3                 IF PT$->B$MAP.CTRL(I+DESC.BASE/4096) & %PGHKEEP THEN CVMFLG='1'B;

   5520  3 000637   200020 236100                    LDQ     DESC+1,,AUTO
         3 000640   000014 772000                    QRL     12
         3 000641   200015 036100                    ADLQ    I,,AUTO
         3 000642   200023 470500                    LDP0    PT$,,AUTO
         3 000643   000000 236106                    LDQ     0,QL,PR0
         3 000644   000036 736000                    QLS     30
         3 000645   100000 376003                    ANQ     32768,DU
         3 000646   000651 600000 3                  TZE     s:5521

   5520  3 000647   400000 236003                    LDQ     -131072,DU
         3 000650   200016 756100                    STQ     CVMFLG,,AUTO

      376     5521    3                 END;

   5521  3 000651   200015 054100                    AOS     I,,AUTO
         3 000652   200015 236100                    LDQ     I,,AUTO
         3 000653   200022 116100                    CMPQ    PAGES,,AUTO
         3 000654   000637 604400 3                  TMOZ    s:5520

      377     5522    2              END;

      378     5523    2           DO I=0 TO 7;

   5523  3 000655   200015 450100                    STZ     I,,AUTO

      379     5524    3              IF DA_SDASN.DESC(I)=DESC AND S#=DA_SDASN.SYSID(I) THEN DO;

   5524  3 000656   200015 236100                    LDQ     I,,AUTO
         3 000657   000014 402007                    MPY     12,DL
         3 000660   000100 106406                    CMPC    fill='000'O
         3 000661   000000 000010 xsym               ADSC9   DA_SDASN,Q               cn=0,n=8
         3 000662   200017 000010                    ADSC9   DESC,,AUTO               cn=0,n=8
         3 000663   000723 601000 3                  TNZ     s:5531
         3 000664   200015 236100                    LDQ     I,,AUTO
PL6.E3A0      #001=DAM$MAP File=DAM$MAP.:E05TSI                                  TUE 07/29/97 12:51 Page:45
         3 000665   000003 402007                    MPY     3,DL
         3 000666   000002 236006 xsym               LDQ     DA_SDASN+2,QL
         3 000667   777777 376007                    ANQ     -1,DL
         3 000670   200012 116100                    CMPQ    S#,,AUTO
         3 000671   000723 601000 3                  TNZ     s:5531

      380     5525    3                 OP=IP;

   5525  3 000672   200003 470500                    LDP0    @IP$,,AUTO
         3 000673   000000 236100                    LDQ     0,,PR0
         3 000674   200004 471500                    LDP1    @OP$,,AUTO
         3 000675   100000 756100                    STQ     0,,PR1

      381     5526    3                 OP.SID=DA_SDASN.SID(I);

   5526  3 000676   200015 236100                    LDQ     I,,AUTO
         3 000677   000003 402007                    MPY     3,DL
         3 000700   000002 236006 xsym               LDQ     DA_SDASN+2,QL
         3 000701   000030 772000                    QRL     24
         3 000702   100000 752103                    STCQ    0,'03'O,PR1

      382     5527    3                 DA_LASTBOUND=DA_SDASN.DESC.BOUND(I);

   5527  3 000703   200015 236100                    LDQ     I,,AUTO
         3 000704   000003 402007                    MPY     3,DL
         3 000705   000000 236006 xsym               LDQ     DA_SDASN,QL
         3 000706   000020 772000                    QRL     16
         3 000707   000000 756000 xsym               STQ     DA_LASTBOUND

      383     5528    3                 OP.CA=IP.CA-V#.P.CA;

   5528  3 000710   200014 236100                    LDQ     V#+1,,AUTO
         3 000711   000020 772000                    QRL     16
         3 000712   200030 756100                    STQ     @CODE+1,,AUTO
         3 000713   000000 236100                    LDQ     0,,PR0
         3 000714   000020 772000                    QRL     16
         3 000715   200030 136100                    SBLQ    @CODE+1,,AUTO
PL6.E3A0      #001=DAM$MAP File=DAM$MAP.:E05TSI                                  TUE 07/29/97 12:51 Page:46
         3 000716   000020 736000                    QLS     16
         3 000717   100000 676100                    ERQ     0,,PR1
         3 000720   000034 376000 xsym               ANQ     B_VECTNIL+28
         3 000721   100000 656100                    ERSQ    0,,PR1

      384     5529    3                 RETURN;

   5529  3 000722   000000 702200 xent               TSX2  ! X66_ARET

      385     5530    3                 END;
      386     5531    2              END;

   5531  3 000723   200015 054100                    AOS     I,,AUTO
         3 000724   200015 235100                    LDA     I,,AUTO
         3 000725   000007 115007                    CMPA    7,DL
         3 000726   000656 604400 3                  TMOZ    s:5524

      387     5532    2           IF CVMFLG THEN DO;

   5532  3 000727   200016 234100                    SZN     CVMFLG,,AUTO
         3 000730   001063 605000 3                  TPL     s:5561

      388     5533    2              IF DA_WINDOWBASE+PAGES>DA_WINDOWMAX THEN

   5533  3 000731   000000 236000 xsym               LDQ     DA_WINDOWBASE
         3 000732   200022 036100                    ADLQ    PAGES,,AUTO
         3 000733   000000 116000 xsym               CMPQ    DA_WINDOWMAX
         3 000734   000741 604400 3                  TMOZ    s:5543

      389     5534    2                 CALL SETERR(%E$DA_SEG_TOO_BIG) ALTRET(ALT);

   5534  3 000735   000023 236000 4                  LDQ     19
         3 000736   200027 756100                    STQ     FCN+2,,AUTO
         3 000737   001177 701000 3                  TSX1    SETERR
         3 000740   001176 702000 3                  TSX2    ALT

      390     5535        /*E*    ERROR:   DAM-E$DA_SEG_TOO_BIG
PL6.E3A0      #001=DAM$MAP File=DAM$MAP.:E05TSI                                  TUE 07/29/97 12:51 Page:47
      391     5536                MESSAGE: The segment referenced is larger than the available
      392     5537                         window area.
      393     5538                MESSAGE1: If this is a dump file, it may help to !ORES MEM=300.
      394     5539                MESSAGE2: To map to this segment it is necessary to specify
      395     5540                          a vector framing only a portion of the segment that
      396     5541                          will fit into the available window area.
      397     5542                                                                           */
      398     5543    3              IF DA_NXTWINDOW+DA_WINDOWBASE+PAGES>DA_WINDOWMAX THEN DO;

   5543  3 000741   000000 236000 xsym               LDQ     DA_NXTWINDOW
         3 000742   000000 036000 xsym               ADLQ    DA_WINDOWBASE
         3 000743   200022 036100                    ADLQ    PAGES,,AUTO
         3 000744   000000 116000 xsym               CMPQ    DA_WINDOWMAX
         3 000745   000765 604400 3                  TMOZ    s:5549

      399     5544    3                 DA_NXTWINDOW=0;

   5544  3 000746   000000 450000 xsym               STZ     DA_NXTWINDOW

      400     5545    4                 DO I=0 TO 7;

   5545  3 000747   200015 450100                    STZ     I,,AUTO

      401     5546    4                    IF DA_SDASN.CVM(I) THEN DA_SDASN.DESC(I)='0'B;

   5546  3 000750   200015 236100                    LDQ     I,,AUTO
         3 000751   000003 402007                    MPY     3,DL
         3 000752   000002 236006 xsym               LDQ     DA_SDASN+2,QL
         3 000753   000040 316003                    CANQ    32,DU
         3 000754   000761 600000 3                  TZE     s:5547

   5546  3 000755   200015 236100                    LDQ     I,,AUTO
         3 000756   000003 402007                    MPY     3,DL
         3 000757   000000 450006 xsym               STZ     DA_SDASN,QL
         3 000760   000001 450006 xsym               STZ     DA_SDASN+1,QL

      402     5547    4                    END;
PL6.E3A0      #001=DAM$MAP File=DAM$MAP.:E05TSI                                  TUE 07/29/97 12:51 Page:48

   5547  3 000761   200015 054100                    AOS     I,,AUTO
         3 000762   200015 235100                    LDA     I,,AUTO
         3 000763   000007 115007                    CMPA    7,DL
         3 000764   000750 604400 3                  TMOZ    s:5546

      403     5548    3                 END;

      404     5549    2              CALL DAM$VPAGE(DESC.BASE/4096,DA_NXTWINDOW,-U#,WSQ,PAGES+1) ALTRET(
              5549                       VPAGEALT);

   5549  3 000765   200020 236100                    LDQ     DESC+1,,AUTO
         3 000766   000014 772000                    QRL     12
         3 000767   200030 756100                    STQ     @CODE+1,,AUTO
         3 000770   200011 335100                    LCA     U#,,AUTO
         3 000771   200031 755100                    STA     @CODE+2,,AUTO
         3 000772   200022 235100                    LDA     PAGES,,AUTO
         3 000773   000001 035007                    ADLA    1,DL
         3 000774   200032 755100                    STA     @CODE+3,,AUTO
         3 000775   200032 630500                    EPPR0   @CODE+3,,AUTO
         3 000776   200037 450500                    STP0    @CODE+8,,AUTO
         3 000777   200021 631500                    EPPR1   WSQ,,AUTO
         3 001000   200036 451500                    STP1    @CODE+7,,AUTO
         3 001001   200031 633500                    EPPR3   @CODE+2,,AUTO
         3 001002   200035 453500                    STP3    @CODE+6,,AUTO
         3 001003   000024 236000 4                  LDQ     20
         3 001004   200034 756100                    STQ     @CODE+5,,AUTO
         3 001005   200030 634500                    EPPR4   @CODE+1,,AUTO
         3 001006   200033 454500                    STP4    @CODE+4,,AUTO
         3 001007   200033 630500                    EPPR0   @CODE+4,,AUTO
         3 001010   000023 631400 xsym               EPPR1   B_VECTNIL+19
         3 001011   000000 701000 xent               TSX1    DAM$VPAGE
         3 001012   001014 702000 3                  TSX2    VPAGEALT

      405     5550    3              DO NEVER;

   5550  3 001013   001020 710000 3                  TRA     s:5553
PL6.E3A0      #001=DAM$MAP File=DAM$MAP.:E05TSI                                  TUE 07/29/97 12:51 Page:49

      406     5551    3   VPAGEALT:     IF DA_MAPERR.CODE~=%E$DA_NOT_DUMPED THEN GOTO ALT;

   5551  3 001014   000000 236000 xsym  VPAGEALT     LDQ     DA_MAPERR
         3 001015   377770 376007                    ANQ     131064,DL
         3 001016   001460 116007                    CMPQ    816,DL
         3 001017   001176 601000 3                  TNZ     ALT

      407     5552    3                 END;

      408     5553    2              FPT_STD.V.USERSID#=DA_SDASN.SID(DA_NXTSPCL);

   5553  3 001020   000000 236000 xsym               LDQ     DA_NXTSPCL
         3 001021   000003 402007                    MPY     3,DL
         3 001022   000002 236006 xsym               LDQ     DA_SDASN+2,QL
         3 001023   000030 772000                    QRL     24
         3 001024   000010 752003 1                  STCQ    FPT_STD+4,'03'O

      409     5554    2              FPT_STD.AREA_.BOUND=DESC.BOUND;

   5554  3 001025   200017 236100                    LDQ     DESC,,AUTO
         3 001026   000006 676000 1                  ERQ     FPT_STD+2
         3 001027   000034 376000 xsym               ANQ     B_VECTNIL+28
         3 001030   000006 656000 1                  ERSQ    FPT_STD+2

      410     5555    2              FPT_STD.AREA_.AREA$=PINCRC(B$IS$,(DA_NXTWINDOW+DA_WINDOWBASE)*4096+MOD(
              5555                       DESC.BASE,4096));

   5555  3 001031   000000 236000 xsym               LDQ     DA_NXTWINDOW
         3 001032   000000 036000 xsym               ADLQ    DA_WINDOWBASE
         3 001033   200030 756100                    STQ     @CODE+1,,AUTO
         3 001034   200020 236100                    LDQ     DESC+1,,AUTO
         3 001035   007777 376007                    ANQ     4095,DL
         3 001036   200031 756100                    STQ     @CODE+2,,AUTO
         3 001037   200030 236100                    LDQ     @CODE+1,,AUTO
         3 001040   000014 736000                    QLS     12
         3 001041   200031 036100                    ADLQ    @CODE+2,,AUTO
PL6.E3A0      #001=DAM$MAP File=DAM$MAP.:E05TSI                                  TUE 07/29/97 12:51 Page:50
         3 001042   000020 736000                    QLS     16
         3 001043   000000 036000 xsym               ADLQ    B$IS$
         3 001044   000007 756000 1                  STQ     FPT_STD+3

      411     5556    2              CALL M$STD(FPT_STD) ALTRET(PMMEALT);

   5556  3 001045   000004 630400 1                  EPPR0   FPT_STD
         3 001046   430016 713400                    CLIMB   alt,+12302
         3 001047   400400 401760                    pmme    nvectors=2
         3 001050   001172 702000 3                  TSX2    PMMEALT

      412     5557    2              DA_SDASN.CVM(DA_NXTSPCL)='1'B;

   5557  3 001051   000000 236000 xsym               LDQ     DA_NXTSPCL
         3 001052   000003 402007                    MPY     3,DL
         3 001053   000000 620006                    EAX0    0,QL
         3 001054   000040 236003                    LDQ     32,DU
         3 001055   000002 256010 xsym               ORSQ    DA_SDASN+2,X0

      413     5558    2              DA_NXTWINDOW=DA_NXTWINDOW+PAGES+1;

   5558  3 001056   000000 236000 xsym               LDQ     DA_NXTWINDOW
         3 001057   200022 036100                    ADLQ    PAGES,,AUTO
         3 001060   000001 036007                    ADLQ    1,DL
         3 001061   000000 756000 xsym               STQ     DA_NXTWINDOW

      414     5559    2              END;

   5559  3 001062   001125 710000 3                  TRA     s:5570

      415     5560    2           ELSE DO;

      416     5561    2              FPT_SAD.V.USERSID#=DA_SDASN.SID(DA_NXTSPCL);

   5561  3 001063   000000 236000 xsym               LDQ     DA_NXTSPCL
         3 001064   000003 402007                    MPY     3,DL
         3 001065   000002 236006 xsym               LDQ     DA_SDASN+2,QL
PL6.E3A0      #001=DAM$MAP File=DAM$MAP.:E05TSI                                  TUE 07/29/97 12:51 Page:51
         3 001066   000006 772000                    QRL     6
         3 001067   000002 752030 1                  STCQ    FPT_SAD+2,'30'O

      417     5562    2              FPT_SAD.V.MONSID#=IP.SID;

   5562  3 001070   200003 470500                    LDP0    @IP$,,AUTO
         3 001071   000000 236100                    LDQ     0,,PR0
         3 001072   000002 752003 1                  STCQ    FPT_SAD+2,'03'O

      418     5563    2              CALL M$SAD(FPT_SAD) ALTRET(PMMEALT);

   5563  3 001073   000000 630400 1                  EPPR0   FPT_SAD
         3 001074   430015 713400                    CLIMB   alt,+12301
         3 001075   400000 401760                    pmme    nvectors=1
         3 001076   001172 702000 3                  TSX2    PMMEALT

      419     5564    2              FPT_STD.V.USERSID#=DA_SDASN.SID(DA_NXTSPCL);

   5564  3 001077   000000 236000 xsym               LDQ     DA_NXTSPCL
         3 001100   000003 402007                    MPY     3,DL
         3 001101   000002 236006 xsym               LDQ     DA_SDASN+2,QL
         3 001102   000030 772000                    QRL     24
         3 001103   000010 752003 1                  STCQ    FPT_STD+4,'03'O

      420     5565    2              V#.P.SID=DA_SDASN.SID(DA_NXTSPCL);

   5565  3 001104   000000 236000 xsym               LDQ     DA_NXTSPCL
         3 001105   000003 402007                    MPY     3,DL
         3 001106   000002 236006 xsym               LDQ     DA_SDASN+2,QL
         3 001107   000030 772000                    QRL     24
         3 001110   200014 752103                    STCQ    V#+1,'03'O,AUTO

      421     5566    2              FPT_STD.AREA_=V#;

   5566  3 001111   000000 100500                    MLR     fill='000'O
         3 001112   200013 000010                    ADSC9   V#,,AUTO                 cn=0,n=8
         3 001113   000006 000010 1                  ADSC9   FPT_STD+2                cn=0,n=8
PL6.E3A0      #001=DAM$MAP File=DAM$MAP.:E05TSI                                  TUE 07/29/97 12:51 Page:52

      422     5567    2              CALL M$STD(FPT_STD) ALTRET(PMMEALT);

   5567  3 001114   000004 630400 1                  EPPR0   FPT_STD
         3 001115   430016 713400                    CLIMB   alt,+12302
         3 001116   400400 401760                    pmme    nvectors=2
         3 001117   001172 702000 3                  TSX2    PMMEALT

      423     5568    2              DA_SDASN.CVM(DA_NXTSPCL)='0'B;

   5568  3 001120   000000 236000 xsym               LDQ     DA_NXTSPCL
         3 001121   000003 402007                    MPY     3,DL
         3 001122   000000 620006                    EAX0    0,QL
         3 001123   000025 236000 4                  LDQ     21
         3 001124   000002 356010 xsym               ANSQ    DA_SDASN+2,X0

      424     5569    2              END;

      425     5570    1           OP=IP;

   5570  3 001125   200003 470500                    LDP0    @IP$,,AUTO
         3 001126   000000 236100                    LDQ     0,,PR0
         3 001127   200004 471500                    LDP1    @OP$,,AUTO
         3 001130   100000 756100                    STQ     0,,PR1

      426     5571    1           OP.SID=DA_SDASN.SID(DA_NXTSPCL);

   5571  3 001131   000000 236000 xsym               LDQ     DA_NXTSPCL
         3 001132   000003 402007                    MPY     3,DL
         3 001133   000002 236006 xsym               LDQ     DA_SDASN+2,QL
         3 001134   000030 772000                    QRL     24
         3 001135   100000 752103                    STCQ    0,'03'O,PR1

      427     5572    1           OP.CA=IP.CA-V#.P.CA;

   5572  3 001136   200014 236100                    LDQ     V#+1,,AUTO
         3 001137   000020 772000                    QRL     16
PL6.E3A0      #001=DAM$MAP File=DAM$MAP.:E05TSI                                  TUE 07/29/97 12:51 Page:53
         3 001140   200030 756100                    STQ     @CODE+1,,AUTO
         3 001141   000000 236100                    LDQ     0,,PR0
         3 001142   000020 772000                    QRL     16
         3 001143   200030 136100                    SBLQ    @CODE+1,,AUTO
         3 001144   000020 736000                    QLS     16
         3 001145   100000 676100                    ERQ     0,,PR1
         3 001146   000034 376000 xsym               ANQ     B_VECTNIL+28
         3 001147   100000 656100                    ERSQ    0,,PR1

      428     5573    1           DA_SDASN.DESC(DA_NXTSPCL)=DESC;

   5573  3 001150   000000 236000 xsym               LDQ     DA_NXTSPCL
         3 001151   000003 402007                    MPY     3,DL
         3 001152   000002 736000                    QLS     2
         3 001153   000006 100500                    MLR     fill='000'O
         3 001154   200017 000010                    ADSC9   DESC,,AUTO               cn=0,n=8
         3 001155   000000 000010 xsym               ADSC9   DA_SDASN,Q               cn=0,n=8

      429     5574    1           DA_SDASN.SYSID(DA_NXTSPCL)=S#;

   5574  3 001156   000000 236000 xsym               LDQ     DA_NXTSPCL
         3 001157   000003 402007                    MPY     3,DL
         3 001160   200012 720100                    LXL0    S#,,AUTO
         3 001161   000002 440006 xsym               SXL0    DA_SDASN+2,QL

      430     5575    1           DA_LASTBOUND=DA_SDASN.DESC.BOUND(DA_NXTSPCL);

   5575  3 001162   000000 236006 xsym               LDQ     DA_SDASN,QL
         3 001163   000020 772000                    QRL     16
         3 001164   000000 756000 xsym               STQ     DA_LASTBOUND

      431     5576    1           DA_NXTSPCL=MOD(DA_NXTSPCL+1,DA_NUMSPCL);

   5576  3 001165   000000 236000 xsym               LDQ     DA_NXTSPCL
         3 001166   000001 036007                    ADLQ    1,DL
         3 001167   000000 506000 xsym               DIV     DA_NUMSPCL
         3 001170   000000 755000 xsym               STA     DA_NXTSPCL
PL6.E3A0      #001=DAM$MAP File=DAM$MAP.:E05TSI                                  TUE 07/29/97 12:51 Page:54

      432     5577    1           RETURN;

   5577  3 001171   000000 702200 xent               TSX2  ! X66_ARET

   5576  3 001172                       PMMEALT      null
      433     5578    1   PMMEALT:;
      434     5579    1           DA_MAPERR=B$TCB$->B$TCB.ALT$->B$ALT.ERR;

   5579  3 001172   000000 470400 xsym               LDP0    B$TCB$
         3 001173   000000 471500                    LDP1    0,,PR0
         3 001174   100102 236100                    LDQ     66,,PR1
         3 001175   000000 756000 xsym               STQ     DA_MAPERR

      435     5580    1   ALT:    ALTRETURN;

   5580  3 001176   000000 702200 xent  ALT          TSX2  ! X66_AALT

      436     5581        %EJECT;
PL6.E3A0      #001=DAM$MAP File=DAM$MAP.:E05TSI                                  TUE 07/29/97 12:51 Page:55
      437     5582    1   SETERR: PROC(CODE) ALTRET;

   5582  3 001177   200026 741300       SETERR       STX1  ! FCN+1,,AUTO

      438     5583    2   DCL CODE SBIN;
      439     5584        /**/
      440     5585    2           DA_MAPERR='040115000000'O;

   5585  3 001200   000014 236000 2                  LDQ     LSOFFSET+8
         3 001201   000000 756000 xsym               STQ     DA_MAPERR

      441     5586    2           DA_MAPERR.CODE=CODE;

   5586  3 001202   200027 470500                    LDP0    @CODE,,AUTO
         3 001203   000000 236100                    LDQ     0,,PR0
         3 001204   000003 736000                    QLS     3
         3 001205   000000 676000 xsym               ERQ     DA_MAPERR
         3 001206   377770 376007                    ANQ     131064,DL
         3 001207   000000 656000 xsym               ERSQ    DA_MAPERR

      442     5587    2           ALTRETURN;

   5587  3 001210   000000 702211                    TSX2  ! 0,X1
      443     5588    2   END SETERR;
      444     5589    1   END DAM$MAP;
      445     5590        %EOD;

PL6.E3A0      #001=DAM$MAP File=DAM$MAP.:E05TSI                                  TUE 07/29/97 12:51 Page:56
--  Include file information  --

   JG_GHOSTS_C.:E05TOU  is referenced.
   B$MAP.:E05TOU  cannot be made into a system file and is referenced.
   B$USER.:E05TOU  cannot be made into a system file and is referenced.
   SS_SCHED_C.:E05TOU  is referenced.
   B$JIT.:E05TOU  cannot be made into a system file and is referenced.
   B_SEGIDS_C.:E05TOU  is referenced.
   M_INFO_C.:E05TOU  is referenced.
   B_MLSMAC_C.:E05TOU  is referenced.
   B_ULSMAC_C.:E05TOU  is referenced.
   B_LSDATA_C.:E05TOU  cannot be made into a system file and is referenced.
   B_STRINGS_C.:E05TOU  is referenced.
   CP_6.:E05TOU  cannot be made into a system file and is referenced.
   DA_PERR_C.:E05TOU  is referenced.
   DA_MAP_R.:E05TOU  cannot be made into a system file and is referenced.
   B$JIT_C.:E05TOU  was found in the system file and is referenced.
   CP_6_C.:E05TOU  was found in the system file and is referenced.
      No diagnostics issued in procedure DAM$MAP.
PL6.E3A0      #001=DAM$MAP File=DAM$MAP.:E05TSI                                  TUE 07/29/97 12:51 Page:57

 **** Variables and constants ****

  ****  Section 001  Data  DAM$MAP

  ****  Scalars and arrays  ****
OctLoc.c.b A Datatyp(siz) R M Lvl/name                 OctLoc.c.b A Datatyp(siz) R M Lvl/name

     0-0-0/d STRC(144)   r     1 FPT_SAD                    4-0-0/d STRC(216)   r     1 FPT_STD

  ****  Section 002 RoData DAM$MAP

  ****  Scalars and arrays  ****
OctLoc.c.b A Datatyp(siz) R M Lvl/name                 OctLoc.c.b A Datatyp(siz) R M Lvl/name

     2-0-0/b UBIN(9)     r     1 DA_WSRWSQ(0:7)
     4-0-0/w SBIN        r     1 LSOFFSET(0:7)
     0-0-0/b BIT (72)    r     1 VECINIT

  ****  Auto variables  ****

  ****  Scalars and arrays  ****
OctLoc.c.b A Datatyp(siz) R M Lvl/name                 OctLoc.c.b A Datatyp(siz) R M Lvl/name

    27-0-0/w PTR         r     1 @CODE                      6-0-0/w PTR         r     1 @DOMAYN
     3-0-0/w PTR         r     1 @IP$                       4-0-0/w PTR         r     1 @OP$
     5-0-0/w PTR         r     1 @SYSID                     7-0-0/w PTR         r     1 @V
    *0-0-0/w SBIN        r     1 CODE                      16-0-0/w BIT         r     1 CVMFLG
    10-0-0/w SBIN        r     1 D#                        17-0-0/w STRC(72)    r     1 DESC
    17-0-0/w STRC(72)    r     1 DESC2                     *0-0-0/w SBIN        r     1 DOMAYN
    25-0-0/w SBIN        r     1 FCN                       15-0-0/w SBIN        r     1 I
    *0-0-0/w STRC        r     1 IP                        *0-0-0/w PTR         r     1 IP$
    24-0-0/w PTR         r     1 LS$                       *0-0-0/w STRC        r     1 OP
    *0-0-0/w PTR         r     1 OP$                       22-0-0/w SBIN        r     1 PAGES
    23-0-0/w PTR         r     1 PT$                       12-0-0/w SBIN        r     1 S#
    *0-0-0/w SBIN        r     1 SYSID                     11-0-0/w SBIN        r     1 U#
    *0-0-0/w BIT (72)    r     1 V                         13-0-0/w STRC(72)    r     1 V#
    21-0-0/w SBIN        r     1 WSQ
PL6.E3A0      #001=DAM$MAP File=DAM$MAP.:E05TSI                                  TUE 07/29/97 12:51 Page:58

  ****  SYMREF variables  ****

  ****  Scalars and arrays  ****
OctLoc.c.b A Datatyp(siz) R M Lvl/name                 OctLoc.c.b A Datatyp(siz) R M Lvl/name

     0-0-0/w PTR         r     1 B$IS$                      0-0-0/w PTR         r     1 B$JIT$
     0-0-0/w PTR         r     1 B$TCB$                     0-0-0/w PTR         r     1 B$USRT$
     0-0-0/w STRC(72)    r     1 DA_ASR                     0-0-0/w BIT         r     1 DA_DUMPFILE
     0-0-0/w SBIN        r     1 DA_LASTBOUND               0-0-0/w STRC        r     1 DA_MAPERR
     0-0-0/b BIT (72)    r     1 DA_MONISDATA               0-0-0/w SBIN        r     1 DA_MSCPG1
     0-0-0/w SBIN        r     1 DA_MSCPG3                  0-0-0/w SBIN        r     1 DA_MUAIS
     0-0-0/w SBIN        r     1 DA_NUMSPCL                 0-0-0/w SBIN        r     1 DA_NXTSPCL
     0-0-0/w SBIN        r     1 DA_NXTWINDOW               0-0-0/w STRC(72)    r     1 DA_PSR
     0-0-0/w STRC(108)   r     1 DA_SDASN(0:7)
     0-0-0/w SBIN        r     1 DA_WINDOWBASE              0-0-0/w SBIN        r     1 DA_WINDOWMAX

  ****  BASED and DCB variables  ****

  ****  Scalars and arrays  ****
OctLoc.c.b A Datatyp(siz) R M Lvl/name                 OctLoc.c.b A Datatyp(siz) R M Lvl/name

     0-0-0/w STRC(2448)  r     1 B$ALT                      0-0-0/d STRC(8856)  r     1 B$JIT
     0-0-0/w STRC        r     1 B$MAP(0:1023)              0-0-0/w STRC(144)   r     1 B$TCB
     0-0-0/w STRC(576)   r     1 B$USER(0:0)                0-0-0/w BIT (72)    r     1 LS(0:0)


   Procedure DAM$MAP requires 649 words for executable code.
   Procedure DAM$MAP requires 32 words of local(AUTO) storage.
PL6.E3A0      #001=DAM$MAP File=DAM$MAP.:E05TSI                                  TUE 07/29/97 12:51 Page:59
          *** CROSS REFERENCE LISTING ***
**     DENOTES     IDENTIFIER DEFINITION
<<                 IDENTIFIER'S VALUE SET
>>                 IDENTIFIER'S VALUE USED
<>                 IDENTIFIER SET AND/OR USED
--                 IDENTIFIER REFERENCED
PL6.E3A0      #001=DAM$MAP File=DAM$MAP.:E05TSI                                  TUE 07/29/97 12:51 Page:60
          MINI XREF LISTING

ALT
      5580**LABEL    5425--CALLALT  5443--CALLALT  5451--CALLALT  5459--CALLALT  5464--CALLALT  5470--CALLALT
      5473--CALLALT  5476--CALLALT  5483--CALLALT  5505--CALLALT  5515--CALLALT  5534--CALLALT  5551--GOTO
B$ALT.CODE
      5345**DCL      5345--REDEF    5346--REDEF    5346--REDEF
B$ALT.ERR
      5346**DCL      5579>>ASSIGN
B$ALT.ERR.ERR#
      5347**DCL      5347--REDEF
B$ALT.EVID
      5346**DCL      5346--REDEF    5346--REDEF
B$DO.ECCINFO
      5078**DCL      5079--REDEF
B$IS$
      5383**DCL      5460>>ASSIGN   5465>>ASSIGN   5471>>ASSIGN   5474>>ASSIGN   5518>>ASSIGN   5555>>ASSIGN
B$JIT.CPFLAGS1.SLEAZE
      4512**DCL      4512--REDEF
B$JIT.ERR.MID
      4419**DCL      4419--REDEF
B$JIT.JRESPEAK
      4580**DCL      4581--REDEF
B$JIT.ORIGINATOR_PORT.FROM_CR
      4689**DCL      4689--REDEF    4690--REDEF
B$JIT.PNR
      4593**DCL      4593--REDEF
B$JIT.TSLINE
      4687**DCL      4688--REDEF
B$JIT.USER
      4418**DCL      5436>>ASSIGN   5511>>IF
B$JIT$
      4403**DCL      4413--IMP-PTR  5436>>ASSIGN   5511>>IF
B$MAP.CTRL
PL6.E3A0      #001=DAM$MAP File=DAM$MAP.:E05TSI                                  TUE 07/29/97 12:51 Page:61
      5193**DCL      5520>>IF
B$MAP.SCTRL
      5190**DCL      5191--REDEF
B$TCB.ALT$
      5341**DCL      5579>>ASSIGN
B$TCB$
      5339**DCL      5579>>ASSIGN
B$U.MISC
      5057**DCL      5058--REDEF
B$USER.MISC
      5133**DCL      5134--REDEF
B$USER.SYSID
      5128**DCL      5441>>IF       5448>>ASSIGN
B$USER.US
      5120**DCL      5450>>IF
B$USRT$
      5145**DCL      5441>>IF       5448>>ASSIGN   5450>>IF
CODE IN PROCEDURE SETERR
      5583**DCL      5582--PROC     5586>>ASSIGN
COMMON
      5406**LABEL    5404--GOTO
CVMFLG
       193**DCL      5410<<ASSIGN   5431<<ASSIGN   5461<<ASSIGN   5466<<ASSIGN   5511<<ASSIGN   5512<<ASSIGN
      5514>>IF       5520<<ASSIGN   5532>>IF
D#
       176**DCL      5408<<ASSIGN   5409<<ASSIGN   5435>>IF       5468>>DOCASE   5474>>ASSIGN   5512>>IF
DAM$VPAGE
      5395**DCL-ENT  5459--CALL     5464--CALL     5470--CALL     5473--CALL     5515--CALL     5549--CALL
DA_ASR.BASE
       243**DCL      5464>>CALL     5465>>ASSIGN
DA_ASR.WSR
       243**DCL      5463>>ASSIGN
DA_DUMPFILE
       229**DCL      5410>>ASSIGN   5417>>IF
DA_LASTBOUND
       230**DCL      5420<<ASSIGN   5527<<ASSIGN   5575<<ASSIGN
PL6.E3A0      #001=DAM$MAP File=DAM$MAP.:E05TSI                                  TUE 07/29/97 12:51 Page:62
DA_MAPERR
       238**DCL      5579<<ASSIGN   5585<<ASSIGN
DA_MAPERR.CODE
       238**DCL      5551>>IF       5586<<ASSIGN
DA_MAPSEG.P
       239**DCL       240--REDEF
DA_MONISDATA
       232**DCL      5417--IF
DA_MSCPG1
       232**DCL      5518>>ASSIGN
DA_MSCPG3
       236**DCL      5460>>ASSIGN   5465>>ASSIGN   5471>>ASSIGN   5474>>ASSIGN
DA_MUAIS
       228**DCL      5440>>DOINDEX  5450>>IF
DA_NUMSPCL
       238**DCL      5576>>ASSIGN
DA_NXTSPCL
       238**DCL      5553>>ASSIGN   5557>>ASSIGN   5561>>ASSIGN   5564>>ASSIGN   5565>>ASSIGN   5568>>ASSIGN
      5571>>ASSIGN   5573>>ASSIGN   5574>>ASSIGN   5575>>ASSIGN   5576<<ASSIGN   5576>>ASSIGN
DA_NXTWINDOW
       229**DCL      5543>>IF       5544<<ASSIGN   5549<>CALL     5555>>ASSIGN   5558<<ASSIGN   5558>>ASSIGN
DA_PSR.BASE
       242**DCL      5459>>CALL     5460>>ASSIGN
DA_PSR.WSR
       242**DCL      5458>>ASSIGN
DA_SDASN.CVM
       225**DCL      5546>>IF       5557<<ASSIGN   5568<<ASSIGN
DA_SDASN.DESC
       224**DCL      5524>>IF       5546<<ASSIGN   5573<<ASSIGN
DA_SDASN.DESC.BOUND
       224**DCL      5420>>ASSIGN   5527>>ASSIGN   5575>>ASSIGN
DA_SDASN.DESC.TYPE0
       224**DCL       224--REDEF
DA_SDASN.SID
       225**DCL      5419>>ASSIGN   5526>>ASSIGN   5553>>ASSIGN   5561>>ASSIGN   5564>>ASSIGN   5565>>ASSIGN
      5571>>ASSIGN
PL6.E3A0      #001=DAM$MAP File=DAM$MAP.:E05TSI                                  TUE 07/29/97 12:51 Page:63
DA_SDASN.SYSID
       225**DCL      5524>>IF       5574<<ASSIGN
DA_TIGRSEG.P
       240**DCL       241--REDEF
DA_WINDOWBASE
       228**DCL      5533>>IF       5543>>IF       5555>>ASSIGN
DA_WINDOWMAX
       228**DCL      5533>>IF       5543>>IF
DA_WSRWSQ
      5384**DCL      5458>>ASSIGN   5463>>ASSIGN   5501>>ASSIGN
DESC
       194**DCL       200--REDEF    5489<<ASSIGN   5491>>ASSIGN   5524>>IF       5573>>ASSIGN
DESC.BASE
       199**DCL      5495<<ASSIGN   5495>>ASSIGN   5513>>ASSIGN   5520>>IF       5549>>CALL     5555>>ASSIGN
DESC.BOUND
       195**DCL      5496<<ASSIGN   5496>>ASSIGN   5497>>IF       5497<<ASSIGN   5498>>ASSIGN   5513>>ASSIGN
      5554>>ASSIGN
DESC.TYPE
       198**DCL      5499>>DOCASE
DESC.WSR
       197**DCL      5501>>ASSIGN
DESC2.WSQ
       203**DCL      5503>>ASSIGN
DOMAYN
       170**DCL       152--PROC     5405--ENTRY    5408--IF       5409>>ASSIGN
FCN
       210**DCL      5403<<ASSIGN   5406<<ASSIGN   5411>>IF       5490>>IF
FPT_SAD
      5362**DCL      5563<>CALL
FPT_SAD.V
      5362**DCL      5362--DCLINIT
FPT_SAD.V.MONSID#
      5363**DCL      5562<<ASSIGN
FPT_SAD.V.USERSID#
      5362**DCL      5561<<ASSIGN
FPT_STD
PL6.E3A0      #001=DAM$MAP File=DAM$MAP.:E05TSI                                  TUE 07/29/97 12:51 Page:64
      5377**DCL      5556<>CALL     5567<>CALL
FPT_STD.AREA_
      5377**DCL      5566<<ASSIGN
FPT_STD.AREA_.AREA$
      5378**DCL      5555<<ASSIGN
FPT_STD.AREA_.BOUND
      5377**DCL      5554<<ASSIGN
FPT_STD.V
      5378**DCL      5377--DCLINIT
FPT_STD.V.USERSID#
      5379**DCL      5553<<ASSIGN   5564<<ASSIGN
I
       192**DCL      5458<<ASSIGN   5459<>CALL     5463<<ASSIGN   5464<>CALL     5519<<DOINDEX  5520>>IF
      5523<<DOINDEX  5524>>IF       5524>>IF       5526>>ASSIGN   5527>>ASSIGN   5545<<DOINDEX  5546>>IF
      5546>>ASSIGN
IP
       157**DCL      5525>>ASSIGN   5570>>ASSIGN
IP.CA
       158**DCL      5424>>IF       5424>>IF       5528>>ASSIGN   5572>>ASSIGN
IP.SID
       160**DCL      5414>>ASSIGN   5424>>IF       5514>>IF       5562>>ASSIGN
IP.SID.D
       162**DCL      5489>>ASSIGN
IP.SID.S
       161**DCL      5456>>DOCASE
IP$
       156**DCL       152--PROC      157--REDEF    5405--ENTRY    5418>>ASSIGN
LS
      5382**DCL      5489>>ASSIGN
LS$
       209**DCL      5460<<ASSIGN   5465<<ASSIGN   5471<<ASSIGN   5474<<ASSIGN   5489>>ASSIGN   5492>>ASSIGN
LSOFFSET
      5386**DCL      5474>>ASSIGN
M$SAD
       356**DCL-ENT  5563--CALL
M$STD
PL6.E3A0      #001=DAM$MAP File=DAM$MAP.:E05TSI                                  TUE 07/29/97 12:51 Page:65
       357**DCL-ENT  5556--CALL     5567--CALL
OP
       164**DCL      5525<<ASSIGN   5570<<ASSIGN
OP.CA
       165**DCL      5528<<ASSIGN   5572<<ASSIGN
OP.SID
       167**DCL      5419<<ASSIGN   5526<<ASSIGN   5571<<ASSIGN
OP$
       163**DCL       152--PROC      164--REDEF    5405--ENTRY    5418<<ASSIGN   5492<<ASSIGN
PAGES
       207**DCL      5513<<ASSIGN   5519>>DOINDEX  5533>>IF       5543>>IF       5549>>CALL     5558>>ASSIGN
PMMEALT
      5576**LABEL    5556--CALLALT  5563--CALLALT  5567--CALLALT
PT$
       208**DCL      5518<<ASSIGN   5520>>IF
S#
       178**DCL      5447<<ASSIGN   5448<<ASSIGN   5524>>IF       5574>>ASSIGN
SETERR
      5582**PROC     5425--CALL     5443--CALL     5451--CALL     5476--CALL     5483--CALL     5505--CALL
      5534--CALL
SYSID
       171**DCL       152--PROC     5405--ENTRY    5434--IF       5438>>IF       5438>>ASSIGN   5441>>IF
U#
       177**DCL      5435<<ASSIGN   5436<<ASSIGN   5438<<ASSIGN   5440<<DOINDEX  5441>>IF       5447>>IF
      5447>>ASSIGN   5448>>ASSIGN   5449>>IF       5450>>IF       5450>>IF       5459<>CALL     5464<>CALL
      5473<>CALL     5510<<ASSIGN   5511>>IF       5515<>CALL     5549<>CALL
USRFOUND
      5441**LABEL    5441--GOTO
V
       172**DCL       152--PROC     5405--ENTRY    5412--IF       5417--IF       5423>>ASSIGN   5491<<ASSIGN
V#
       179**DCL      5413<<ASSIGN   5423<<ASSIGN   5566>>ASSIGN
V#.BOUND
       180**DCL      5424>>IF       5497>>IF       5497>>ASSIGN   5498<<ASSIGN
V#.P
       182**DCL       188--REDEF
PL6.E3A0      #001=DAM$MAP File=DAM$MAP.:E05TSI                                  TUE 07/29/97 12:51 Page:66
V#.P.CA
       183**DCL      5424>>IF       5424>>IF       5495>>ASSIGN   5496>>ASSIGN   5528>>ASSIGN   5572>>ASSIGN
V#.P.SID
       185**DCL      5414<<ASSIGN   5424>>IF       5565<<ASSIGN
VECINIT
      5381**DCL      5413>>ASSIGN
VPAGEALT
      5551**LABEL    5549--CALLALT
WSQ
       206**DCL      5501<<ASSIGN   5503<<ASSIGN   5510>>IF       5514>>IF       5515<>CALL     5549<>CALL

PL6.E3A0      #002=DAM$VPAGE File=DAM$MAP.:E05TSI                                TUE 07/29/97 12:51 Page:67
      446        1        /*T***********************************************************/
      447        2        /*T*                                                         */
      448        3        /*T* Copyright (c) Bull HN Information Systems Inc., 1997    */
      449        4        /*T*                                                         */
      450        5        /*T***********************************************************/
      451        6        DAM$VPAGE: PROC(VP,WP,SYSID,WSQ,N) ALTRET;
      452        7        /**/
      453        8    1   DCL VP SBIN;
      454        9    1   DCL WP SBIN;
      455       10    1   DCL SYSID SBIN;
      456       11    1   DCL WSQ SBIN;
      457       12    1   DCL N SBIN;
      458       13        /**/
      459       14        /* LOCALS FOR PARAMETERS */
      460       15        /**/
      461       16    1   DCL VP# SBIN;
      462       17    1   DCL WP# SBIN;
      463       18    1   DCL U# SBIN;
      464       19    1   DCL W# SBIN;
      465       20    1   DCL N# SBIN;
      466       21        /**/
      467       22        /* AUTO DATA */
      468       23        /**/
      469       24    1   DCL 1 ERRCD ALIGNED,
      470       25    1         2 FCG BIT(18) UNAL,
      471       26    1         2 MON BIT(1) UNAL,
      472       27    1         2 CODE UBIN(14) UNAL,
      473       28    1         2 SEV UBIN(3) UNAL;
      474       29    1   DCL I SBIN;
      475       30    1   DCL PTP SBIN;
      476       31    1   DCL PTSZ SBIN;
      477       32    1   DCL RPN SBIN;
      478       33    1   DCL PT$ PTR;
      479       34    1   DCL NPGS SBIN;
      480       35        /**/
      481       36        /* INCLUDE FILES */
      482       37        /**/
PL6.E3A0      #002=DAM$VPAGE File=DAM$MAP.:E05TSI                                TUE 07/29/97 12:51 Page:68
      483       38        %INCLUDE DA_MAP_R;
      484       68        %INCLUDE CP_6;
      485      149        %INCLUDE B$USER;
      486      365        %B$USERREFS;
      487      369        %INCLUDE B$MAP;
      488      468        %INCLUDE IR_DATA_M;
      489      632        %INCLUDE NI$TABLES;
      490      848        %RV_DFSUBS;
      491      875        %RV_BUFF (NAME=RVBUF,STCLASS="BASED(DA_RVBUF$)");
      492      911        %RV_USRDIR (NAME=USERDIR,STCLASS="BASED(DA_USERDIR$)");
      493      915        %INCLUDE DA_PERR_C;
      494      979        %INCLUDE M_INFO_C;
      495     1119        %INCLUDE B_LSDATA_C;
      496     4325        %INCLUDE B_STRINGS_C;
      497     4454        %INCLUDE SS_SCHED_C;
      498     4687        /**/
      499     4688        /* STATIC DATA */
      500     4689        /**/
      501     4690        %RV_DFKEY (NAME=DFKEY,STCLASS=STATIC);
      502     4708    1   DCL M$DUMPFILE DCB;
      503     4709        %FPT_READ (FPTN=FPT_RDDUMP,KEY=DFKEY,KEYS=YES,DCB=M$DUMPFILE);
      504     4748    1   DCL ZERO SBIN CONSTANT INIT(0);
      505     4749        %FPT_CVM (PHYSICAL=NO);
      506     4765        %FPT_GVP;
      507     4779        %FPT_FVP;
      508     4793    1   DCL B$IS$ PTR SYMREF;
      509     4794
      510     4795    1   DCL DAM$PHYS_TO_REAL ENTRY(2);
      511     4796        /**/
      512     4797        /* BASED STRUCTURES */
      513     4798        /**/
      514     4799    1   DCL PAGE(0:0) CHAR(4096) BASED(B$IS$);
      515     4800    1   DCL 1 S$WSPTD(0:0) ALIGNED BASED(DA_WSPTD$),
      516     4801    1         2 BLKNO UBIN(18) UNAL,
      517     4802    1         2 Q BIT(2),
      518     4803    1         2 P BIT(1),
      519     4804    1         2 T BIT(2),
PL6.E3A0      #002=DAM$VPAGE File=DAM$MAP.:E05TSI                                TUE 07/29/97 12:51 Page:69
      520     4805    1         2 * BIT(1),
      521     4806    1         2 NBLKS UBIN(12) UNAL;
      522     4807    1   DCL B$TCB$ PTR SYMREF;
      523     4808        %B$TCB;
      524     4811        %B$ALT;
      525     4819        %SUB NEVER="WHILE('0'B)";
      526     4820        %SUB FOREVER="WHILE('1'B)";
      527     4821        %EJECT;
PL6.E3A0      #002=DAM$VPAGE File=DAM$MAP.:E05TSI                                TUE 07/29/97 12:51 Page:70
      528     4822    1           ERRCD='0'B;
      529     4823    1           IF ADDR(SYSID)=ADDR(NIL) THEN U#=0;
      530     4824    1           ELSE IF SYSID<=0 THEN U#=-SYSID;
      531     4825    2              ELSE DO;
      532     4826    3                 DO U#=1 TO DA_MUAIS;
      533     4827    3                    IF SYSID=B$USRT$->B$USER.SYSID(U#) THEN GOTO USRFOUND;
      534     4828    3                    END;
      535     4829    2                 CALL SETERR(%E$DA_NO_USER) ALTRET(ALT);
      536     4830    2                 END;
      537     4831    1   USRFOUND: ;
      538     4832    1           IF U#~=0 THEN
      539     4833    1              IF U#>DA_MUAIS OR B$USRT$->B$USER.US(U#)=%SS_SNULL THEN
      540     4834    1                 CALL SETERR(%E$DA_NO_USER) ALTRET(ALT);
      541     4835    1           IF ADDR(WSQ)=ADDR(NIL) THEN
      542     4836    1              IF U#=0 THEN W#=%MONWSQ;
      543     4837    1              ELSE W#=%USERWSQ;
      544     4838    1           ELSE W#=WSQ;
      545     4839    1           IF W#~=%USERWSQ THEN U#=0;
      546     4840    1           VP#=VP;
      547     4841    1           WP#=WP+DA_WINDOWBASE;
      548     4842    1           IF ADDR(N)=ADDR(NIL) THEN N#=0;
      549     4843    1           ELSE N#=N-1;
      550     4844    1           IF WP#+N#>DA_WINDOWMAX THEN
      551     4845    1              CALL SETERR(%E$DA_WINDOWMAX) ALTRET(ALT);
      552     4846        /*E*    ERROR:   DAM-E$DA_WINDOWMAX
      553     4847                MESSAGE: The requested window extends beyond the end of the
      554     4848                         available window area.
      555     4849                                                                           */
      556     4850        %EJECT;
PL6.E3A0      #002=DAM$VPAGE File=DAM$MAP.:E05TSI                                TUE 07/29/97 12:51 Page:71
      557     4851    2           IF DA_DUMPFILE THEN DO;
      558     4852    2              DFKEY='007'O;
      559     4853    2              DFKEY.K.NODEIDX=DA_NODEIDX;
      560     4854    3              DO I=0 TO N#;
      561     4855    4                 IF NOT DA_WINDOW.PRESENCE(I+WP#) THEN DO;
      562     4856    4                    FPT_GVP.V.PNO#=I+WP#;
      563     4857    5                    DO INHIBIT;
      564     4858    5                       DA_WINDOW(I+WP#)='400000777000'O;
      565     4859    6                       CALL M$GVP(FPT_GVP) WHENALTRETURN DO;
      566     4860    6                          DA_WINDOW.PRESENCE(I+WP#)='0'B;
      567     4861    6                          GOTO PMMEALT;
      568     4862    6                          END;
      569     4863    5                       END;
      570     4864    4                    END;
      571     4865    3                 END;
      572     4866    2              NPGS=0;
      573     4867    3   WSQCASE:   DO CASE(W#);
      574     4868    3               CASE(%REALWSQ);
      575     4869    3                 DFKEY.K.TYP=%R_LRMEM#;
      576     4870    3                 DFKEY.K.STYP=0;
      577     4871    3                 DFKEY.K.USR#=0;
      578     4872    3               CASE(%MONWSQ);
      579     4873    4                 IF VP#>=%(REAL_BASE%/4096) AND VP#<%(%(REAL_BASE%+REAL_BOUND%+1)/4096)
              4873                          THEN DO;
      580     4874    4                    VP#=VP#-%(REAL_BASE%/4096);
      581     4875    4                    W#=%REALWSQ;
      582     4876    4                    GOTO WSQCASE;
      583     4877    4                    END;
      584     4878    3                 DFKEY.K.TYP=%R_MWSQ#;
      585     4879    3                 IF DA_CPU#=RVBUF.S_PNO THEN DFKEY.K.STYP=%R_MCPU#;
      586     4880    3                 ELSE DFKEY.K.STYP=%R_SCPU#;
      587     4881    3                 DFKEY.K.USR#=DA_CPU#;
      588     4882    3               CASE(%USERWSQ);
      589     4883    4                 IF VP#=0 AND USERDIR.USER.DA(U#)=0 THEN DO;
      590     4884    4                    DFKEY.K.TYP=%R_DINFO#;
      591     4885    4                    DFKEY.K.STYP=%R_AJITS#;
      592     4886    4                    DFKEY.K.USR#=U#;
PL6.E3A0      #002=DAM$VPAGE File=DAM$MAP.:E05TSI                                TUE 07/29/97 12:51 Page:72
      593     4887    4                    DFKEY.K.VP#=0;
      594     4888    4                    I=0;
      595     4889    4                    FPT_RDDUMP.BUF_.BUF$=PINCRW(B$IS$,WP#*1024+512);
      596     4890    4                    FPT_RDDUMP.BUF_.BOUND=512;
      597     4891    4                    CALL M$READ(FPT_RDDUMP) ALTRET(NO_DUMP_PAGE);
      598     4892    4                    VP#=VP#+1;
      599     4893    4                    N#=N#-1;
      600     4894    4                    NPGS=NPGS+1;
      601     4895    4                    DA_WINDOW.VP(WP#)=0;
      602     4896    4                    DA_WINDOW.WSQ(WP#)=%USERWSQ;
      603     4897    4                    DA_WINDOW.USR(WP#)=U#;
      604     4898    4                    END;
      605     4899    3                 DFKEY.K.TYP=%R_UWSQ#;
      606     4900    3                 DFKEY.K.STYP=USERDIR.USER.TYP(U#);
      607     4901    3                 DFKEY.K.USR#=U#;
      608     4902    3               CASE(%CGWSQ,%B_CWSQ1,%B_CWSQ2,%B_CWSQ3,%B_CWSQ4,
      609     4903    3                   %B_CWSQ5,%B_CWSQ6,%B_CWSQ7,%B_CWSQ8,
      610     4904    3                   %B_CWSQ9,%B_CWSQ10,%B_CWSQ11,%B_CWSQ12,
      611     4905    3                   %B_CWSQ13,%B_CWSQ14,%B_CWSQ15,%B_CWSQ16);
      612     4906    3                 IF W#=%CGWSQ THEN DFKEY.K.TYP=%R_CGPGS#;
      613     4907    3                 ELSE DFKEY.K.TYP=%R_CWSQPGS#;
      614     4908    3                 DFKEY.K.STYP=W#;
      615     4909    4                 IF VP#<0 THEN DO;         /* GET THE PAGE TABLE                 */
      616     4910    4                    DFKEY.K.USR#=0;
      617     4911    4                    VP#=0;
      618     4912    4                    END;
      619     4913    3                 ELSE DFKEY.K.USR#=1;
      620     4914    3               CASE(ELSE);
      621     4915    3                 CALL SETERR(%E$DA_BAD_WSQ) ALTRET(ALT);
      622     4916        /*E*    ERROR:   DAM-E$DA_BAD_WSQ
      623     4917                MESSAGE: Invalid working space quarter number.
      624     4918                MESSAGE1: Valid WSQs are %REALWSQ, %MONWSQ, %USERWSQ or any
      625     4919                          communications WSQ.
      626     4920                                                                           */
      627     4921    3               END;
      628     4922    3              DO I=0 TO N#;
      629     4923    3                 IF NOT (DA_WINDOW.VP(WP#+I)=VP#+I AND
PL6.E3A0      #002=DAM$VPAGE File=DAM$MAP.:E05TSI                                TUE 07/29/97 12:51 Page:73
      630     4924    3                   DA_WINDOW.WSQ(WP#+I)=W# AND
      631     4925    4                   DA_WINDOW.USR(WP#+I)=U#) THEN DO;
      632     4926    4                    DFKEY.K.VP#=VP#+I;
      633     4927    4                    FPT_RDDUMP.BUF_=VECTOR(PAGE(WP#+I));
      634     4928    4                    CALL M$READ(FPT_RDDUMP) ALTRET(NO_DUMP_PAGE);
      635     4929    4                    DA_WINDOW.VP(WP#+I)=VP#+I;
      636     4930    4                    DA_WINDOW.WSQ(WP#+I)=W#;
      637     4931    4                    DA_WINDOW.USR(WP#+I)=U#;
      638     4932    4                    END;
      639     4933    3                 NPGS=NPGS+1;
      640     4934    4                 DO NEVER;
      641     4935    4   NO_DUMP_PAGE:    ;
      642     4936                                                /* CALL SETERR(%E$DA_NOT_DUMPED); */
      643     4937        /*E*    ERROR:   DAM-E$DA_NOT_DUMPED
      644     4938                MESSAGE: One or more of the requested pages is not in the
      645     4939                         dump file.
      646     4940                                                                           */
      647     4941    4                    FPT_FVP.V.PNO#=WP#+I;
      648     4942    4                    DA_WINDOW(WP#+I)='000000777000'O;
      649     4943    4                    CALL M$FVP(FPT_FVP) ALTRET(L1);
      650     4944    4   L1:              ;
      651     4945    4                    END;
      652     4946    3                 END;
      653     4947    2              END;                         /* IF DA_DUMPFILE                     */
      654     4948        %EJECT;
PL6.E3A0      #002=DAM$VPAGE File=DAM$MAP.:E05TSI                                TUE 07/29/97 12:51 Page:74
      655     4949    2           ELSE DO;                        /* NOT USING DUMP FILE                */
      656     4950    2              NPGS=0;
      657     4951    2              PTSZ = 1;
      658     4952    3              IF W#~=0 OR DA_CPU=%DPS90 OR DA_CPU=%DPS90XA THEN DO;
      659     4953    3                 IF U#=0 THEN
      660     4954    4                    IF W#=%MONWSQ THEN DO;
      661     4955    4                       PTP=DA_MONPTP;
      662     4956    4                       PTSZ = S$WSPTD.NBLKS(%MONWSQ)/16;
      663     4957    4                       END;
      664     4958    4                    ELSE DO;
      665     4959    4                       PTP=S$WSPTD.BLKNO(W#);
      666     4960    4                       PTSZ = S$WSPTD.NBLKS(W#)/16;
      667     4961    4                       END;
      668     4962    3                 ELSE PTP=B$USRT$->B$USER.PT(U#);
      669     4963    3                 RPN = MOD(PTP*64,1024);
      670     4964    3                 IF DA_CPU~=%DPS90XA AND DA_CPU~=%DPS8000 THEN PTP=PTP*64/1024;ELSE RPN
              4964                          =0;
      671     4965    3                 IF W#=%CGWSQ THEN PTSZ = 10; /* MAP IN TEN PAGES */
      672     4966    4                 DO I=0 TO PTSZ-1;
      673     4967    4                    CALL CVM(DA_MSCPG1+I,(PTP)+I) ALTRET(PMMEALT);
      674     4968    4                    END;
      675     4969    3                 PT$=PINCRW(B$IS$,DA_MSCPG1*1024+RPN);
      676     4970    3                 END;
      677     4971    3              DO I=0 TO N#;
      678     4972    3                 IF NOT (DA_WINDOW.VP(WP#+I)=VP#+I AND
      679     4973    3                   DA_WINDOW.WSQ(WP#+I)=W# AND
      680     4974    4                   DA_WINDOW.USR(WP#+I)=U#) THEN DO;
      681     4975    5                    IF W#=0 AND DA_CPU~=%DPS90 AND DA_CPU~=%DPS90XA THEN DO;
      682     4976    5                       RPN = VP# + I;
      683     4977    5                       END;
      684     4978    5                    ELSE DO;
      685     4979    5                       IF PT$->B$MAP.CTRL(VP#+I) & %PGINMEM THEN
      686     4980    6                       DO;
      687     4981    6                          RPN=PT$->B$MAP.RPN(VP#+I);
      688     4982    6                          END;
      689     4983    5                       ELSE RPN=-1;
      690     4984    5                       END;
PL6.E3A0      #002=DAM$VPAGE File=DAM$MAP.:E05TSI                                TUE 07/29/97 12:51 Page:75
      691     4985    4                    CALL CVM(WP#+I,RPN);
      692     4986    4                    DA_WINDOW.VP(WP#+I)=VP#+I;
      693     4987    4                    DA_WINDOW.WSQ(WP#+I)=W#;
      694     4988    4                    DA_WINDOW.USR(WP#+I)=U#;
      695     4989    4                    END;
      696     4990    3                 ELSE NPGS=NPGS+1;
      697     4991    3                 END;
      698     4992    2              END;                         /* IF DA_DUMPFILE ELSE                */
      699     4993    1           IF NPGS=0 THEN CALL SETERR(%E$DA_NO_PAGES);
      700     4994        /*E*    ERROR:   DAM-E$DA_NO_PAGES
      701     4995                MESSAGE: None of the requested pages were successfully mapped
      702     4996                MESSAGE1: If looking at a dumfile, none of the requested pages
      703     4997                          were dumped.  If looking at the running system, M$CVM
      704     4998                          altreturned for every page reqested or there were no
      705     4999                          allocated virtual pages.
      706     5000                                                                           */
      707     5001        %EJECT;
PL6.E3A0      #002=DAM$VPAGE File=DAM$MAP.:E05TSI                                TUE 07/29/97 12:51 Page:76
      708     5002    2           DO NEVER;
      709     5003    2   PMMEALT:   ERRCD=B$TCB$->B$TCB.ALT$->B$ALT.ERR;
      710     5004    2              END;
      711     5005    1   ALT:    IF ERRCD='0'B THEN RETURN;
      712     5006    2           ELSE DO;
      713     5007    2              DA_MAPERR=ERRCD;
      714     5008    2              ALTRETURN;
      715     5009    2              END;
      716     5010        %EJECT;
PL6.E3A0      #002=DAM$VPAGE File=DAM$MAP.:E05TSI                                TUE 07/29/97 12:51 Page:77
      717     5011    1   DAM$CVM: ENTRY(VP,WP) ALTRET;
      718     5012    1           CALL CVM(WP+DA_WINDOWBASE,VP) ALTRET(CVMALT);
      719     5013    1           RETURN;
      720     5014    1   CVMALT: ALTRETURN;
      721     5015        /**/
      722     5016        /**/
      723     5017        /**/
      724     5018    1   CVM:    PROC(WNDW,PHYS) ALTRET;
      725     5019    2   DCL WNDW SBIN;
      726     5020    2   DCL PHYS SBIN;
      727     5021    2   DCL REAL SBIN;
      728     5022    2   DCL DAM$PHYS_TO_REAL ENTRY(2);
      729     5023    2           IF (DA_CPU = %DPS90XA OR DA_CPU = %DPS90) AND PHYS>=0 THEN
      730     5024    2              CALL DAM$PHYS_TO_REAL (REAL,PHYS);
      731     5025    2           ELSE
      732     5026    2              REAL=PHYS;
      733     5027    3           IF DA_WINDOW.PRESENCE(WNDW) OR PHYS>=0 THEN DO;
      734     5028    3              FPT_CVM.V.PPNO#=REAL;
      735     5029    3              FPT_CVM.V.VPNO#=WNDW;
      736     5030    3              CALL M$CVM(FPT_CVM) ALTRET(ALT);
      737     5031    3              END;
      738     5032    2           IF PHYS<0 THEN DA_WINDOW.PRESENCE(WNDW)='0'B;
      739     5033    3           ELSE DO;
      740     5034    3              DA_WINDOW.PRESENCE(WNDW)='1'B;
      741     5035    3              NPGS=NPGS+1;
      742     5036    3              END;
      743     5037    2           RETURN;
      744     5038    2   ALT:    ALTRETURN;
      745     5039    2   END CVM;
      746     5040        %EJECT;
PL6.E3A0      #002=DAM$VPAGE File=DAM$MAP.:E05TSI                                TUE 07/29/97 12:51 Page:78
      747     5041    1   SETERR: PROC(CODE) ALTRET;
      748     5042    2   DCL CODE SBIN;
      749     5043    2           ERRCD='040115000000'O;
      750     5044    2           ERRCD.CODE=CODE;
      751     5045    2           ALTRETURN;
      752     5046    2   END SETERR;
      753     5047    1   END DAM$VPAGE;
      754     5048        %EOD;

PL6.E3A0      #002=DAM$VPAGE File=DAM$MAP.:E05TSI                                TUE 07/29/97 12:51 Page:79
--  Include file information  --

   SS_SCHED_C.:E05TOU  is referenced.
   B_STRINGS_C.:E05TOU  is referenced.
   B_MLSMAC_C.:E05TOU  is referenced.
   B_ULSMAC_C.:E05TOU  is referenced.
   B_LSDATA_C.:E05TOU  cannot be made into a system file and is referenced.
   M_INFO_C.:E05TOU  is referenced.
   DA_PERR_C.:E05TOU  is referenced.
   NI$TABLES.:E05TOU  is referenced.
   IR_DATA_M.:E05TOU  is referenced.
   B$MAP.:E05TOU  cannot be made into a system file and is referenced.
   B$USER.:E05TOU  cannot be made into a system file and is referenced.
   CP_6.:E05TOU  cannot be made into a system file and is referenced.
   DA_MAP_R.:E05TOU  cannot be made into a system file and is referenced.
   B$JIT_C.:E05TOU  was found in the system file and is never referenced.
   CP_6_C.:E05TOU  was found in the system file and is referenced.
      No diagnostics issued in procedure DAM$VPAGE.

   Procedure DAM$VPAGE requires 629 words for executable code.
   Procedure DAM$VPAGE requires 30 words of local(AUTO) storage.

PL6.E3A0      #002=DAM$VPAGE File=DAM$MAP.:E05TSI                                TUE 07/29/97 12:51 Page:80

 Object Unit name= DAM$VPAGE                                  File name= DAM$MAP.:E05TOU
 UTS= JUL 29 '97 12:51:48.68 TUE                              Compiler= PL-6/E31         Sev=      00
 SharedLib= :SHARED_SYSTEM                                    Alt SharedLib=


    ****  Control sections  ****

 Sect   Type Bound  Init  Size OctSiz  Section name(segment info)
    0   DCB   even  none     0      0  M$UC
    1   Data  even  none    30     36  DAM$VPAGE
    2   DCB   even  none     0      0  M$DUMPFILE
    3  RoData even  UTS      4      4  DAM$VPAGE
    4   Proc  even  none   629   1165  DAM$VPAGE
    5  RoData even  none    11     13  DAM$VPAGE

    ****  Entry defs  ****

                              Check   Calling
                             calling  sequence
  Sect OctLoc Primary Altret sequence   type   Parms  Name
     4      0   yes    yes     yes      Std        5  DAM$VPAGE
     4   1050          yes     yes      Std        2  DAM$CVM

  ****  Entry refs  ****

         Check        Calling
        calling       sequence
Altret sequence SRef   type   Args  Name
         yes           Std       2 DAM$PHYS_TO_REAL
                       nStd      0 X66_AUTO_5
                       Std       0 B_CONSPOOL_D
                       nStd      0 X66_ARET
                       nStd      0 X66_AALT
PL6.E3A0      #002=DAM$VPAGE File=DAM$MAP.:E05TSI                                TUE 07/29/97 12:51 Page:81

  ****  Data refs  ****

  Flags:  r = read only, s = secondary
Flgs Name                             Flgs Name                             Flgs Name
     DA_WINDOW                             DA_MUAIS                              DA_CPU
     DA_WINDOWBASE                         DA_WINDOWMAX                          DA_DUMPFILE
     DA_CPU#                               DA_NODEIDX                            DA_MONPTP
     DA_RVBUF$                             DA_WSPTD$                             DA_USERDIR$
     DA_MSCPG1                             DA_MAPERR                             M$UC
     B$USRT$                               M$DUMPFILE                            B$IS$
     B$TCB$                                B_VECTNIL

  ****  Segment refs  ****

  Flags:  r = read only, s = secondary
Flgs Name                             Flgs Name                             Flgs Name
     ISSID                                 NULLSID
PL6.E3A0      #002=DAM$VPAGE File=DAM$MAP.:E05TSI                                TUE 07/29/97 12:51 Page:82


      446        1        /*T***********************************************************/
      447        2        /*T*                                                         */
      448        3        /*T* Copyright (c) Bull HN Information Systems Inc., 1997    */
      449        4        /*T*                                                         */
      450        5        /*T***********************************************************/
      451        6        DAM$VPAGE: PROC(VP,WP,SYSID,WSQ,N) ALTRET;

      6  4 000000   000000 700200 xent  DAM$VPAGE    TSX0  ! X66_AUTO_5
         4 000001   000036 000005                    ZERO    30,5

      452        7        /**/
      453        8    1   DCL VP SBIN;
      454        9    1   DCL WP SBIN;
      455       10    1   DCL SYSID SBIN;
      456       11    1   DCL WSQ SBIN;
      457       12    1   DCL N SBIN;
      458       13        /**/
      459       14        /* LOCALS FOR PARAMETERS */
      460       15        /**/
      461       16    1   DCL VP# SBIN;
      462       17    1   DCL WP# SBIN;
      463       18    1   DCL U# SBIN;
      464       19    1   DCL W# SBIN;
      465       20    1   DCL N# SBIN;
      466       21        /**/
      467       22        /* AUTO DATA */
      468       23        /**/
      469       24    1   DCL 1 ERRCD ALIGNED,
      470       25    1         2 FCG BIT(18) UNAL,
      471       26    1         2 MON BIT(1) UNAL,
      472       27    1         2 CODE UBIN(14) UNAL,
      473       28    1         2 SEV UBIN(3) UNAL;
      474       29    1   DCL I SBIN;
      475       30    1   DCL PTP SBIN;
      476       31    1   DCL PTSZ SBIN;
      477       32    1   DCL RPN SBIN;
PL6.E3A0      #002=DAM$VPAGE File=DAM$MAP.:E05TSI                                TUE 07/29/97 12:51 Page:83
      478       33    1   DCL PT$ PTR;
      479       34    1   DCL NPGS SBIN;
      480       35        /**/
      481       36        /* INCLUDE FILES */
      482       37        /**/
      483       38        %INCLUDE DA_MAP_R;
      484       68        %INCLUDE CP_6;
      485      149        %INCLUDE B$USER;
      486      365        %B$USERREFS;
      487      369        %INCLUDE B$MAP;
      488      468        %INCLUDE IR_DATA_M;
      489      632        %INCLUDE NI$TABLES;
      490      848        %RV_DFSUBS;
      491      875        %RV_BUFF (NAME=RVBUF,STCLASS="BASED(DA_RVBUF$)");
      492      911        %RV_USRDIR (NAME=USERDIR,STCLASS="BASED(DA_USERDIR$)");
      493      915        %INCLUDE DA_PERR_C;
      494      979        %INCLUDE M_INFO_C;
      495     1119        %INCLUDE B_LSDATA_C;
      496     4325        %INCLUDE B_STRINGS_C;
      497     4454        %INCLUDE SS_SCHED_C;
      498     4687        /**/
      499     4688        /* STATIC DATA */
      500     4689        /**/
      501     4690        %RV_DFKEY (NAME=DFKEY,STCLASS=STATIC);
      502     4708    1   DCL M$DUMPFILE DCB;
      503     4709        %FPT_READ (FPTN=FPT_RDDUMP,KEY=DFKEY,KEYS=YES,DCB=M$DUMPFILE);
      504     4748    1   DCL ZERO SBIN CONSTANT INIT(0);
      505     4749        %FPT_CVM (PHYSICAL=NO);
      506     4765        %FPT_GVP;
      507     4779        %FPT_FVP;
      508     4793    1   DCL B$IS$ PTR SYMREF;
      509     4794
      510     4795    1   DCL DAM$PHYS_TO_REAL ENTRY(2);
      511     4796        /**/
      512     4797        /* BASED STRUCTURES */
      513     4798        /**/
      514     4799    1   DCL PAGE(0:0) CHAR(4096) BASED(B$IS$);
PL6.E3A0      #002=DAM$VPAGE File=DAM$MAP.:E05TSI                                TUE 07/29/97 12:51 Page:84
      515     4800    1   DCL 1 S$WSPTD(0:0) ALIGNED BASED(DA_WSPTD$),
      516     4801    1         2 BLKNO UBIN(18) UNAL,
      517     4802    1         2 Q BIT(2),
      518     4803    1         2 P BIT(1),
      519     4804    1         2 T BIT(2),
      520     4805    1         2 * BIT(1),
      521     4806    1         2 NBLKS UBIN(12) UNAL;
      522     4807    1   DCL B$TCB$ PTR SYMREF;
      523     4808        %B$TCB;
      524     4811        %B$ALT;
      525     4819        %SUB NEVER="WHILE('0'B)";
      526     4820        %SUB FOREVER="WHILE('1'B)";
      527     4821        %EJECT;
PL6.E3A0      #002=DAM$VPAGE File=DAM$MAP.:E05TSI                                TUE 07/29/97 12:51 Page:85
      528     4822    1           ERRCD='0'B;

   4822  4 000002   200015 450100                    STZ     ERRCD,,AUTO

      529     4823    1           IF ADDR(SYSID)=ADDR(NIL) THEN U#=0;

   4823  4 000003   200005 236100                    LDQ     @SYSID,,AUTO
         4 000004   000001 116000 xsym               CMPQ    B_VECTNIL+1
         4 000005   000010 601000 4                  TNZ     s:4824

   4823  4 000006   200012 450100                    STZ     U#,,AUTO
         4 000007   000042 710000 4                  TRA     USRFOUND

      530     4824    1           ELSE IF SYSID<=0 THEN U#=-SYSID;

   4824  4 000010   200005 470500                    LDP0    @SYSID,,AUTO
         4 000011   000000 235100                    LDA     0,,PR0
         4 000012   000017 605400 4                  TPNZ    s:4826

   4824  4 000013   000000 235100                    LDA     0,,PR0
         4 000014   000000 531000                    NEG     0
         4 000015   200012 755100                    STA     U#,,AUTO
         4 000016   000042 710000 4                  TRA     USRFOUND

      531     4825    2              ELSE DO;

      532     4826    3                 DO U#=1 TO DA_MUAIS;

   4826  4 000017   000001 235007                    LDA     1,DL
         4 000020   200012 755100                    STA     U#,,AUTO
         4 000021   000033 710000 4                  TRA     s:4828+1

      533     4827    3                    IF SYSID=B$USRT$->B$USER.SYSID(U#) THEN GOTO USRFOUND;

   4827  4 000022   200005 470500                    LDP0    @SYSID,,AUTO
         4 000023   200012 235100                    LDA     U#,,AUTO
         4 000024   000004 735000                    ALS     4
PL6.E3A0      #002=DAM$VPAGE File=DAM$MAP.:E05TSI                                TUE 07/29/97 12:51 Page:86
         4 000025   000000 471400 xsym               LDP1    B$USRT$
         4 000026   100014 236105                    LDQ     12,AL,PR1
         4 000027   777777 376007                    ANQ     -1,DL
         4 000030   000000 116100                    CMPQ    0,,PR0
         4 000031   000042 600000 4                  TZE     USRFOUND

      534     4828    3                    END;

   4828  4 000032   200012 054100                    AOS     U#,,AUTO
         4 000033   200012 236100                    LDQ     U#,,AUTO
         4 000034   000000 116000 xsym               CMPQ    DA_MUAIS
         4 000035   000022 604400 4                  TMOZ    s:4827

      535     4829    2                 CALL SETERR(%E$DA_NO_USER) ALTRET(ALT);

   4829  4 000036   000001 236000 5                  LDQ     1
         4 000037   200025 756100                    STQ     NPGS+2,,AUTO
         4 000040   001153 701000 4                  TSX1    SETERR
         4 000041   001042 702000 4                  TSX2    ALT

      536     4830    2                 END;

   4828  4 000042                       USRFOUND     null
      537     4831    1   USRFOUND: ;
      538     4832    1           IF U#~=0 THEN

   4832  4 000042   200012 235100                    LDA     U#,,AUTO
         4 000043   000061 600000 4                  TZE     s:4835

      539     4833    1              IF U#>DA_MUAIS OR B$USRT$->B$USER.US(U#)=%SS_SNULL THEN

   4833  4 000044   200012 236100                    LDQ     U#,,AUTO
         4 000045   000000 116000 xsym               CMPQ    DA_MUAIS
         4 000046   000055 605400 4                  TPNZ    s:4834
         4 000047   000004 735000                    ALS     4
         4 000050   000000 470400 xsym               LDP0    B$USRT$
         4 000051   000011 236105                    LDQ     9,AL,PR0
PL6.E3A0      #002=DAM$VPAGE File=DAM$MAP.:E05TSI                                TUE 07/29/97 12:51 Page:87
         4 000052   770000 376003                    ANQ     -4096,DU
         4 000053   300000 116003                    CMPQ    98304,DU
         4 000054   000061 601000 4                  TNZ     s:4835

      540     4834    1                 CALL SETERR(%E$DA_NO_USER) ALTRET(ALT);

   4834  4 000055   000001 236000 5                  LDQ     1
         4 000056   200025 756100                    STQ     NPGS+2,,AUTO
         4 000057   001153 701000 4                  TSX1    SETERR
         4 000060   001042 702000 4                  TSX2    ALT

      541     4835    1           IF ADDR(WSQ)=ADDR(NIL) THEN

   4835  4 000061   200006 236100                    LDQ     @WSQ,,AUTO
         4 000062   000001 116000 xsym               CMPQ    B_VECTNIL+1
         4 000063   000074 601000 4                  TNZ     s:4838

      542     4836    1              IF U#=0 THEN W#=%MONWSQ;

   4836  4 000064   200012 235100                    LDA     U#,,AUTO
         4 000065   000071 601000 4                  TNZ     s:4837

   4836  4 000066   000001 235007                    LDA     1,DL
         4 000067   200013 755100                    STA     W#,,AUTO
         4 000070   000077 710000 4                  TRA     s:4839

      543     4837    1              ELSE W#=%USERWSQ;

   4837  4 000071   000010 235007                    LDA     8,DL
         4 000072   200013 755100                    STA     W#,,AUTO
         4 000073   000077 710000 4                  TRA     s:4839

      544     4838    1           ELSE W#=WSQ;

   4838  4 000074   200006 470500                    LDP0    @WSQ,,AUTO
         4 000075   000000 235100                    LDA     0,,PR0
         4 000076   200013 755100                    STA     W#,,AUTO
PL6.E3A0      #002=DAM$VPAGE File=DAM$MAP.:E05TSI                                TUE 07/29/97 12:51 Page:88

      545     4839    1           IF W#~=%USERWSQ THEN U#=0;

   4839  4 000077   000010 115007                    CMPA    8,DL
         4 000100   000102 600000 4                  TZE     s:4840

   4839  4 000101   200012 450100                    STZ     U#,,AUTO

      546     4840    1           VP#=VP;

   4840  4 000102   200003 470500                    LDP0    @VP,,AUTO
         4 000103   000000 235100                    LDA     0,,PR0
         4 000104   200010 755100                    STA     VP#,,AUTO

      547     4841    1           WP#=WP+DA_WINDOWBASE;

   4841  4 000105   200004 471500                    LDP1    @WP,,AUTO
         4 000106   100000 236100                    LDQ     0,,PR1
         4 000107   000000 036000 xsym               ADLQ    DA_WINDOWBASE
         4 000110   200011 756100                    STQ     WP#,,AUTO

      548     4842    1           IF ADDR(N)=ADDR(NIL) THEN N#=0;

   4842  4 000111   200007 236100                    LDQ     @N,,AUTO
         4 000112   000001 116000 xsym               CMPQ    B_VECTNIL+1
         4 000113   000116 601000 4                  TNZ     s:4843

   4842  4 000114   200014 450100                    STZ     N#,,AUTO
         4 000115   000122 710000 4                  TRA     s:4844

      549     4843    1           ELSE N#=N-1;

   4843  4 000116   200007 473500                    LDP3    @N,,AUTO
         4 000117   300000 235100                    LDA     0,,PR3
         4 000120   000001 135007                    SBLA    1,DL
         4 000121   200014 755100                    STA     N#,,AUTO

PL6.E3A0      #002=DAM$VPAGE File=DAM$MAP.:E05TSI                                TUE 07/29/97 12:51 Page:89
      550     4844    1           IF WP#+N#>DA_WINDOWMAX THEN

   4844  4 000122   200011 236100                    LDQ     WP#,,AUTO
         4 000123   200014 036100                    ADLQ    N#,,AUTO
         4 000124   000000 116000 xsym               CMPQ    DA_WINDOWMAX
         4 000125   000132 604400 4                  TMOZ    s:4851

      551     4845    1              CALL SETERR(%E$DA_WINDOWMAX) ALTRET(ALT);

   4845  4 000126   000003 236000 5                  LDQ     3
         4 000127   200025 756100                    STQ     NPGS+2,,AUTO
         4 000130   001153 701000 4                  TSX1    SETERR
         4 000131   001042 702000 4                  TSX2    ALT

      552     4846        /*E*    ERROR:   DAM-E$DA_WINDOWMAX
      553     4847                MESSAGE: The requested window extends beyond the end of the
      554     4848                         available window area.
      555     4849                                                                           */
      556     4850        %EJECT;
PL6.E3A0      #002=DAM$VPAGE File=DAM$MAP.:E05TSI                                TUE 07/29/97 12:51 Page:90
      557     4851    2           IF DA_DUMPFILE THEN DO;

   4851  4 000132   000000 234000 xsym               SZN     DA_DUMPFILE
         4 000133   000547 605000 4                  TPL     s:4950

      558     4852    2              DFKEY='007'O;

   4852  4 000134   007000 235003                    LDA     3584,DU
         4 000135   000000 236003                    LDQ     0,DU
         4 000136   000000 757000 1                  STAQ    DFKEY

      559     4853    2              DFKEY.K.NODEIDX=DA_NODEIDX;

   4853  4 000137   000000 236000 xsym               LDQ     DA_NODEIDX
         4 000140   000022 736000                    QLS     18
         4 000141   000000 552020 1                  STBQ    DFKEY,'20'O

      560     4854    3              DO I=0 TO N#;

   4854  4 000142   200016 450100                    STZ     I,,AUTO
         4 000143   000176 710000 4                  TRA     s:4865+1

      561     4855    4                 IF NOT DA_WINDOW.PRESENCE(I+WP#) THEN DO;

   4855  4 000144   200016 236100                    LDQ     I,,AUTO
         4 000145   200011 036100                    ADLQ    WP#,,AUTO
         4 000146   000000 234006 xsym               SZN     DA_WINDOW,QL
         4 000147   000175 604000 4                  TMI     s:4865

      562     4856    4                    FPT_GVP.V.PNO#=I+WP#;

   4856  4 000150   200016 236100                    LDQ     I,,AUTO
         4 000151   200011 036100                    ADLQ    WP#,,AUTO
         4 000152   000000 620006                    EAX0    0,QL
         4 000153   000030 440000 1                  SXL0    FPT_GVP+2

      563     4857    5                    DO INHIBIT;
PL6.E3A0      #002=DAM$VPAGE File=DAM$MAP.:E05TSI                                TUE 07/29/97 12:51 Page:91

      564     4858    5                       DA_WINDOW(I+WP#)='400000777000'O;

   4858  4 000154   200016 236300                    LDQ   ! I,,AUTO
         4 000155   200011 036300                    ADLQ  ! WP#,,AUTO
         4 000156   200030 756300                    STQ   ! REAL+1,,AUTO
         4 000157   000001 236200 3                  LDQ   ! 1
         4 000160   200030 721300                    LXL1  ! REAL+1,,AUTO
         4 000161   000000 756211 xsym               STQ   ! DA_WINDOW,X1

      565     4859    6                       CALL M$GVP(FPT_GVP) WHENALTRETURN DO;

   4859  4 000162   000026 630600 1                  EPPR0 ! FPT_GVP
         4 000163   430005 713600                    CLIMB ! alt,+12293
         4 000164   400000 401760                    pmme    nvectors=1
         4 000165   000167 702200 4                  TSX2  ! s:4860
         4 000166   000175 710200 4                  TRA   ! s:4865

      566     4860    6                          DA_WINDOW.PRESENCE(I+WP#)='0'B;

   4860  4 000167   200016 236300                    LDQ   ! I,,AUTO
         4 000170   200011 036300                    ADLQ  ! WP#,,AUTO
         4 000171   000000 620206                    EAX0  ! 0,QL
         4 000172   000031 236200 xsym               LDQ   ! B_VECTNIL+25
         4 000173   000000 356210 xsym               ANSQ  ! DA_WINDOW,X0

      567     4861    6                          GOTO PMMEALT;

   4861  4 000174   001036 710200 4                  TRA   ! PMMEALT

      568     4862    6                          END;
      569     4863    5                       END;

      570     4864    4                    END;

      571     4865    3                 END;

PL6.E3A0      #002=DAM$VPAGE File=DAM$MAP.:E05TSI                                TUE 07/29/97 12:51 Page:92
   4865  4 000175   200016 054100                    AOS     I,,AUTO
         4 000176   200016 236100                    LDQ     I,,AUTO
         4 000177   200014 116100                    CMPQ    N#,,AUTO
         4 000200   000144 604400 4                  TMOZ    s:4855

      572     4866    2              NPGS=0;

   4866  4 000201   200023 450100                    STZ     NPGS,,AUTO

      573     4867    3   WSQCASE:   DO CASE(W#);

   4867  4 000202   200013 235100       WSQCASE      LDA     W#,,AUTO
         4 000203   000035 115007                    CMPA    29,DL
         4 000204   000206 602005 4                  TNC     WSQCASE+4,AL
         4 000205   000415 710000 4                  TRA     s:4915
         4 000206   000243 710000 4                  TRA     s:4869
         4 000207   000251 710000 4                  TRA     s:4873
         4 000210   000415 710000 4                  TRA     s:4915
         4 000211   000415 710000 4                  TRA     s:4915
         4 000212   000415 710000 4                  TRA     s:4915
         4 000213   000415 710000 4                  TRA     s:4915
         4 000214   000415 710000 4                  TRA     s:4915
         4 000215   000415 710000 4                  TRA     s:4915
         4 000216   000302 710000 4                  TRA     s:4883
         4 000217   000415 710000 4                  TRA     s:4915
         4 000220   000415 710000 4                  TRA     s:4915
         4 000221   000415 710000 4                  TRA     s:4915
         4 000222   000373 710000 4                  TRA     s:4906
         4 000223   000373 710000 4                  TRA     s:4906
         4 000224   000373 710000 4                  TRA     s:4906
         4 000225   000373 710000 4                  TRA     s:4906
         4 000226   000373 710000 4                  TRA     s:4906
         4 000227   000373 710000 4                  TRA     s:4906
         4 000230   000373 710000 4                  TRA     s:4906
         4 000231   000373 710000 4                  TRA     s:4906
         4 000232   000373 710000 4                  TRA     s:4906
         4 000233   000373 710000 4                  TRA     s:4906
PL6.E3A0      #002=DAM$VPAGE File=DAM$MAP.:E05TSI                                TUE 07/29/97 12:51 Page:93
         4 000234   000373 710000 4                  TRA     s:4906
         4 000235   000373 710000 4                  TRA     s:4906
         4 000236   000373 710000 4                  TRA     s:4906
         4 000237   000373 710000 4                  TRA     s:4906
         4 000240   000373 710000 4                  TRA     s:4906
         4 000241   000373 710000 4                  TRA     s:4906
         4 000242   000373 710000 4                  TRA     s:4906

      574     4868    3               CASE(%REALWSQ);

      575     4869    3                 DFKEY.K.TYP=%R_LRMEM#;

   4869  4 000243   001000 236007                    LDQ     512,DL
         4 000244   000000 552010 1                  STBQ    DFKEY,'10'O

      576     4870    3                 DFKEY.K.STYP=0;

   4870  4 000245   000000 236003                    LDQ     0,DU
         4 000246   000000 552004 1                  STBQ    DFKEY,'04'O

      577     4871    3                 DFKEY.K.USR#=0;

   4871  4 000247   000001 552040 1                  STBQ    DFKEY+1,'40'O
         4 000250   000421 710000 4                  TRA     s:4922

      578     4872    3               CASE(%MONWSQ);

      579     4873    4                IF VP#>=%(REAL_BASE%/4096) AND VP#<%(%(REAL_BASE%+REAL_BOUND%+1)/4096)
              4873                          THEN DO;

   4873  4 000251   200010 236100                    LDQ     VP#,,AUTO
         4 000252   000500 116007                    CMPQ    320,DL
         4 000253   000262 604000 4                  TMI     s:4878
         4 000254   000510 116007                    CMPQ    328,DL
         4 000255   000262 605000 4                  TPL     s:4878

      580     4874    4                    VP#=VP#-%(REAL_BASE%/4096);
PL6.E3A0      #002=DAM$VPAGE File=DAM$MAP.:E05TSI                                TUE 07/29/97 12:51 Page:94

   4874  4 000256   000500 336007                    LCQ     320,DL
         4 000257   200010 056100                    ASQ     VP#,,AUTO

      581     4875    4                    W#=%REALWSQ;

   4875  4 000260   200013 450100                    STZ     W#,,AUTO

      582     4876    4                    GOTO WSQCASE;

   4876  4 000261   000202 710000 4                  TRA     WSQCASE

      583     4877    4                    END;
      584     4878    3                 DFKEY.K.TYP=%R_MWSQ#;

   4878  4 000262   002000 236007                    LDQ     1024,DL
         4 000263   000000 552010 1                  STBQ    DFKEY,'10'O

      585     4879    3                 IF DA_CPU#=RVBUF.S_PNO THEN DFKEY.K.STYP=%R_MCPU#;

   4879  4 000264   000000 470400 xsym               LDP0    DA_RVBUF$
         4 000265   000000 236000 xsym               LDQ     DA_CPU#
         4 000266   000274 604000 4                  TMI     s:4880
         4 000267   000142 116100                    CMPQ    98,,PR0
         4 000270   000274 601000 4                  TNZ     s:4880

   4879  4 000271   000000 236003                    LDQ     0,DU
         4 000272   000000 552004 1                  STBQ    DFKEY,'04'O
         4 000273   000276 710000 4                  TRA     s:4881

      586     4880    3                 ELSE DFKEY.K.STYP=%R_SCPU#;

   4880  4 000274   000001 236007                    LDQ     1,DL
         4 000275   000000 552004 1                  STBQ    DFKEY,'04'O

      587     4881    3                 DFKEY.K.USR#=DA_CPU#;

PL6.E3A0      #002=DAM$VPAGE File=DAM$MAP.:E05TSI                                TUE 07/29/97 12:51 Page:95
   4881  4 000276   000000 236000 xsym               LDQ     DA_CPU#
         4 000277   000033 736000                    QLS     27
         4 000300   000001 552040 1                  STBQ    DFKEY+1,'40'O
         4 000301   000421 710000 4                  TRA     s:4922

      588     4882    3               CASE(%USERWSQ);

      589     4883    4                 IF VP#=0 AND USERDIR.USER.DA(U#)=0 THEN DO;

   4883  4 000302   200010 236100                    LDQ     VP#,,AUTO
         4 000303   000357 601000 4                  TNZ     s:4899
         4 000304   200012 235100                    LDA     U#,,AUTO
         4 000305   000001 735000                    ALS     1
         4 000306   000000 470400 xsym               LDP0    DA_USERDIR$
         4 000307   000000 235105                    LDA     0,AL,PR0
         4 000310   000357 601000 4                  TNZ     s:4899

      590     4884    4                    DFKEY.K.TYP=%R_DINFO#;

   4884  4 000311   000000 236003                    LDQ     0,DU
         4 000312   000000 552010 1                  STBQ    DFKEY,'10'O

      591     4885    4                    DFKEY.K.STYP=%R_AJITS#;

   4885  4 000313   000002 236007                    LDQ     2,DL
         4 000314   000000 552004 1                  STBQ    DFKEY,'04'O

      592     4886    4                    DFKEY.K.USR#=U#;

   4886  4 000315   200012 236100                    LDQ     U#,,AUTO
         4 000316   000033 736000                    QLS     27
         4 000317   000001 552040 1                  STBQ    DFKEY+1,'40'O

      593     4887    4                    DFKEY.K.VP#=0;

   4887  4 000320   000000 236003                    LDQ     0,DU
         4 000321   000001 552034 1                  STBQ    DFKEY+1,'34'O
PL6.E3A0      #002=DAM$VPAGE File=DAM$MAP.:E05TSI                                TUE 07/29/97 12:51 Page:96

      594     4888    4                    I=0;

   4888  4 000322   200016 450100                    STZ     I,,AUTO

      595     4889    4                    FPT_RDDUMP.BUF_.BUF$=PINCRW(B$IS$,WP#*1024+512);

   4889  4 000323   200011 236100                    LDQ     WP#,,AUTO
         4 000324   000034 736000                    QLS     28
         4 000325   001000 036003                    ADLQ    512,DU
         4 000326   000000 036000 xsym               ADLQ    B$IS$
         4 000327   000007 756000 1                  STQ     FPT_RDDUMP+5

      596     4890    4                    FPT_RDDUMP.BUF_.BOUND=512;

   4890  4 000330   000006 236000 1                  LDQ     FPT_RDDUMP+4
         4 000331   177777 376007                    ANQ     65535,DL
         4 000332   000200 276003                    ORQ     128,DU
         4 000333   000006 756000 1                  STQ     FPT_RDDUMP+4

      597     4891    4                    CALL M$READ(FPT_RDDUMP) ALTRET(NO_DUMP_PAGE);

   4891  4 000334   000002 630400 1                  EPPR0   FPT_RDDUMP
         4 000335   440000 713400                    CLIMB   alt,read
         4 000336   401400 401760                    pmme    nvectors=4
         4 000337   000524 702000 4                  TSX2    NO_DUMP_PAGE

      598     4892    4                    VP#=VP#+1;

   4892  4 000340   200010 054100                    AOS     VP#,,AUTO

      599     4893    4                    N#=N#-1;

   4893  4 000341   000001 336007                    LCQ     1,DL
         4 000342   200014 056100                    ASQ     N#,,AUTO

      600     4894    4                    NPGS=NPGS+1;
PL6.E3A0      #002=DAM$VPAGE File=DAM$MAP.:E05TSI                                TUE 07/29/97 12:51 Page:97

   4894  4 000343   200023 054100                    AOS     NPGS,,AUTO

      601     4895    4                    DA_WINDOW.VP(WP#)=0;

   4895  4 000344   200011 720100                    LXL0    WP#,,AUTO
         4 000345   000004 236000 5                  LDQ     4
         4 000346   000000 356010 xsym               ANSQ    DA_WINDOW,X0

      602     4896    4                    DA_WINDOW.WSQ(WP#)=%USERWSQ;

   4896  4 000347   000000 236010 xsym               LDQ     DA_WINDOW,X0
         4 000350   000005 376000 5                  ANQ     5
         4 000351   010000 276007                    ORQ     4096,DL
         4 000352   000000 756010 xsym               STQ     DA_WINDOW,X0

      603     4897    4                    DA_WINDOW.USR(WP#)=U#;

   4897  4 000353   200012 236100                    LDQ     U#,,AUTO
         4 000354   000000 676010 xsym               ERQ     DA_WINDOW,X0
         4 000355   000777 376007                    ANQ     511,DL
         4 000356   000000 656010 xsym               ERSQ    DA_WINDOW,X0

      604     4898    4                    END;

      605     4899    3                 DFKEY.K.TYP=%R_UWSQ#;

   4899  4 000357   004000 236007                    LDQ     2048,DL
         4 000360   000000 552010 1                  STBQ    DFKEY,'10'O

      606     4900    3                 DFKEY.K.STYP=USERDIR.USER.TYP(U#);

   4900  4 000361   200012 235100                    LDA     U#,,AUTO
         4 000362   000001 735000                    ALS     1
         4 000363   000000 470400 xsym               LDP0    DA_USERDIR$
         4 000364   000001 236105                    LDQ     1,AL,PR0
         4 000365   000022 772000                    QRL     18
PL6.E3A0      #002=DAM$VPAGE File=DAM$MAP.:E05TSI                                TUE 07/29/97 12:51 Page:98
         4 000366   000000 552004 1                  STBQ    DFKEY,'04'O

      607     4901    3                 DFKEY.K.USR#=U#;

   4901  4 000367   200012 236100                    LDQ     U#,,AUTO
         4 000370   000033 736000                    QLS     27
         4 000371   000001 552040 1                  STBQ    DFKEY+1,'40'O
         4 000372   000421 710000 4                  TRA     s:4922

      608     4902    3               CASE(%CGWSQ,%B_CWSQ1,%B_CWSQ2,%B_CWSQ3,%B_CWSQ4,

      609     4903    3                   %B_CWSQ5,%B_CWSQ6,%B_CWSQ7,%B_CWSQ8,
      610     4904    3                   %B_CWSQ9,%B_CWSQ10,%B_CWSQ11,%B_CWSQ12,
      611     4905    3                   %B_CWSQ13,%B_CWSQ14,%B_CWSQ15,%B_CWSQ16);
      612     4906    3                 IF W#=%CGWSQ THEN DFKEY.K.TYP=%R_CGPGS#;

   4906  4 000373   000014 115007                    CMPA    12,DL
         4 000374   000400 601000 4                  TNZ     s:4907

   4906  4 000375   005000 236007                    LDQ     2560,DL
         4 000376   000000 552010 1                  STBQ    DFKEY,'10'O
         4 000377   000402 710000 4                  TRA     s:4908

      613     4907    3                 ELSE DFKEY.K.TYP=%R_CWSQPGS#;

   4907  4 000400   003000 236007                    LDQ     1536,DL
         4 000401   000000 552010 1                  STBQ    DFKEY,'10'O

      614     4908    3                 DFKEY.K.STYP=W#;

   4908  4 000402   200013 236100                    LDQ     W#,,AUTO
         4 000403   000000 552004 1                  STBQ    DFKEY,'04'O

      615     4909    4                 IF VP#<0 THEN DO;         /* GET THE PAGE TABLE                 */

   4909  4 000404   200010 235100                    LDA     VP#,,AUTO
         4 000405   000412 605000 4                  TPL     s:4913
PL6.E3A0      #002=DAM$VPAGE File=DAM$MAP.:E05TSI                                TUE 07/29/97 12:51 Page:99

      616     4910    4                    DFKEY.K.USR#=0;

   4910  4 000406   000000 236003                    LDQ     0,DU
         4 000407   000001 552040 1                  STBQ    DFKEY+1,'40'O

      617     4911    4                    VP#=0;

   4911  4 000410   200010 450100                    STZ     VP#,,AUTO

      618     4912    4                    END;

   4912  4 000411   000421 710000 4                  TRA     s:4922

      619     4913    3                 ELSE DFKEY.K.USR#=1;

   4913  4 000412   001000 236003                    LDQ     512,DU
         4 000413   000001 552040 1                  STBQ    DFKEY+1,'40'O
         4 000414   000421 710000 4                  TRA     s:4922

      620     4914    3               CASE(ELSE);

      621     4915    3                 CALL SETERR(%E$DA_BAD_WSQ) ALTRET(ALT);

   4915  4 000415   000007 236000 5                  LDQ     7
         4 000416   200025 756100                    STQ     NPGS+2,,AUTO
         4 000417   001153 701000 4                  TSX1    SETERR
         4 000420   001042 702000 4                  TSX2    ALT

      622     4916        /*E*    ERROR:   DAM-E$DA_BAD_WSQ
      623     4917                MESSAGE: Invalid working space quarter number.
      624     4918                MESSAGE1: Valid WSQs are %REALWSQ, %MONWSQ, %USERWSQ or any
      625     4919                          communications WSQ.
      626     4920                                                                           */
      627     4921    3               END;

      628     4922    3              DO I=0 TO N#;
PL6.E3A0      #002=DAM$VPAGE File=DAM$MAP.:E05TSI                                TUE 07/29/97 12:51 Page:100

   4922  4 000421   200016 450100                    STZ     I,,AUTO
         4 000422   000543 710000 4                  TRA     L1+1

      629     4923    3                 IF NOT (DA_WINDOW.VP(WP#+I)=VP#+I AND

   4923  4 000423   200011 236100                    LDQ     WP#,,AUTO
         4 000424   200016 036100                    ADLQ    I,,AUTO
         4 000425   200030 756100                    STQ     REAL+1,,AUTO
         4 000426   200010 236100                    LDQ     VP#,,AUTO
         4 000427   200016 036100                    ADLQ    I,,AUTO
         4 000430   200031 756100                    STQ     REAL+2,,AUTO
         4 000431   200030 720100                    LXL0    REAL+1,,AUTO
         4 000432   000000 236010 xsym               LDQ     DA_WINDOW,X0
         4 000433   000022 772000                    QRL     18
         4 000434   377777 376007                    ANQ     131071,DL
         4 000435   200031 116100                    CMPQ    REAL+2,,AUTO
         4 000436   000454 601000 4                  TNZ     s:4926
         4 000437   200011 236100                    LDQ     WP#,,AUTO
         4 000440   200016 036100                    ADLQ    I,,AUTO
         4 000441   000000 236006 xsym               LDQ     DA_WINDOW,QL
         4 000442   000011 772000                    QRL     9
         4 000443   000777 376007                    ANQ     511,DL
         4 000444   200013 116100                    CMPQ    W#,,AUTO
         4 000445   000454 601000 4                  TNZ     s:4926
         4 000446   200011 236100                    LDQ     WP#,,AUTO
         4 000447   200016 036100                    ADLQ    I,,AUTO
         4 000450   000000 236006 xsym               LDQ     DA_WINDOW,QL
         4 000451   000777 376007                    ANQ     511,DL
         4 000452   200012 116100                    CMPQ    U#,,AUTO
         4 000453   000522 600000 4                  TZE     s:4933

      630     4924    3                   DA_WINDOW.WSQ(WP#+I)=W# AND
      631     4925    4                   DA_WINDOW.USR(WP#+I)=U#) THEN DO;

      632     4926    4                    DFKEY.K.VP#=VP#+I;

PL6.E3A0      #002=DAM$VPAGE File=DAM$MAP.:E05TSI                                TUE 07/29/97 12:51 Page:101
   4926  4 000454   200010 236100                    LDQ     VP#,,AUTO
         4 000455   200016 036100                    ADLQ    I,,AUTO
         4 000456   000001 552034 1                  STBQ    DFKEY+1,'34'O

      633     4927    4                    FPT_RDDUMP.BUF_=VECTOR(PAGE(WP#+I));

   4927  4 000457   200011 236100                    LDQ     WP#,,AUTO
         4 000460   200016 036100                    ADLQ    I,,AUTO
         4 000461   000010 235000 5                  LDA     8
         4 000462   000034 736000                    QLS     28
         4 000463   000000 036000 xsym               ADLQ    B$IS$
         4 000464   000006 757000 1                  STAQ    FPT_RDDUMP+4

      634     4928    4                    CALL M$READ(FPT_RDDUMP) ALTRET(NO_DUMP_PAGE);

   4928  4 000465   000002 630400 1                  EPPR0   FPT_RDDUMP
         4 000466   440000 713400                    CLIMB   alt,read
         4 000467   401400 401760                    pmme    nvectors=4
         4 000470   000524 702000 4                  TSX2    NO_DUMP_PAGE

      635     4929    4                    DA_WINDOW.VP(WP#+I)=VP#+I;

   4929  4 000471   200011 236100                    LDQ     WP#,,AUTO
         4 000472   200016 036100                    ADLQ    I,,AUTO
         4 000473   200030 756100                    STQ     REAL+1,,AUTO
         4 000474   200010 236100                    LDQ     VP#,,AUTO
         4 000475   200016 036100                    ADLQ    I,,AUTO
         4 000476   200030 720100                    LXL0    REAL+1,,AUTO
         4 000477   000022 736000                    QLS     18
         4 000500   000000 676010 xsym               ERQ     DA_WINDOW,X0
         4 000501   377777 376003                    ANQ     131071,DU
         4 000502   000000 656010 xsym               ERSQ    DA_WINDOW,X0

      636     4930    4                    DA_WINDOW.WSQ(WP#+I)=W#;

   4930  4 000503   200011 236100                    LDQ     WP#,,AUTO
         4 000504   200016 036100                    ADLQ    I,,AUTO
PL6.E3A0      #002=DAM$VPAGE File=DAM$MAP.:E05TSI                                TUE 07/29/97 12:51 Page:102
         4 000505   000000 620006                    EAX0    0,QL
         4 000506   200013 236100                    LDQ     W#,,AUTO
         4 000507   000011 736000                    QLS     9
         4 000510   000000 676010 xsym               ERQ     DA_WINDOW,X0
         4 000511   777000 376007                    ANQ     -512,DL
         4 000512   000000 656010 xsym               ERSQ    DA_WINDOW,X0

      637     4931    4                    DA_WINDOW.USR(WP#+I)=U#;

   4931  4 000513   200011 236100                    LDQ     WP#,,AUTO
         4 000514   200016 036100                    ADLQ    I,,AUTO
         4 000515   000000 620006                    EAX0    0,QL
         4 000516   200012 236100                    LDQ     U#,,AUTO
         4 000517   000000 676010 xsym               ERQ     DA_WINDOW,X0
         4 000520   000777 376007                    ANQ     511,DL
         4 000521   000000 656010 xsym               ERSQ    DA_WINDOW,X0

      638     4932    4                    END;

      639     4933    3                 NPGS=NPGS+1;

   4933  4 000522   200023 054100                    AOS     NPGS,,AUTO

      640     4934    4                 DO NEVER;

   4934  4 000523   000542 710000 4                  TRA     L1

   4929  4 000524                       NO_DUMP_PAGE null
      641     4935    4   NO_DUMP_PAGE:    ;
      642     4936                                                /* CALL SETERR(%E$DA_NOT_DUMPED); */
      643     4937        /*E*    ERROR:   DAM-E$DA_NOT_DUMPED
      644     4938                MESSAGE: One or more of the requested pages is not in the
      645     4939                         dump file.
      646     4940                                                                           */
      647     4941    4                    FPT_FVP.V.PNO#=WP#+I;

   4941  4 000524   200011 236100                    LDQ     WP#,,AUTO
PL6.E3A0      #002=DAM$VPAGE File=DAM$MAP.:E05TSI                                TUE 07/29/97 12:51 Page:103
         4 000525   200016 036100                    ADLQ    I,,AUTO
         4 000526   000000 620006                    EAX0    0,QL
         4 000527   000034 440000 1                  SXL0    FPT_FVP+2

      648     4942    4                    DA_WINDOW(WP#+I)='000000777000'O;

   4942  4 000530   200011 236100                    LDQ     WP#,,AUTO
         4 000531   200016 036100                    ADLQ    I,,AUTO
         4 000532   200030 756100                    STQ     REAL+1,,AUTO
         4 000533   000002 236000 3                  LDQ     2
         4 000534   200030 721100                    LXL1    REAL+1,,AUTO
         4 000535   000000 756011 xsym               STQ     DA_WINDOW,X1

      649     4943    4                    CALL M$FVP(FPT_FVP) ALTRET(L1);

   4943  4 000536   000032 630400 1                  EPPR0   FPT_FVP
         4 000537   430006 713400                    CLIMB   alt,+12294
         4 000540   400000 401760                    pmme    nvectors=1
         4 000541   000542 702000 4                  TSX2    L1

   4942  4 000542                       L1           null
      650     4944    4   L1:              ;
      651     4945    4                    END;

      652     4946    3                 END;

   4946  4 000542   200016 054100                    AOS     I,,AUTO
         4 000543   200016 236100                    LDQ     I,,AUTO
         4 000544   200014 116100                    CMPQ    N#,,AUTO
         4 000545   000423 604400 4                  TMOZ    s:4923

      653     4947    2              END;                         /* IF DA_DUMPFILE                     */

   4947  4 000546   001027 710000 4                  TRA     s:4993

      654     4948        %EJECT;
PL6.E3A0      #002=DAM$VPAGE File=DAM$MAP.:E05TSI                                TUE 07/29/97 12:51 Page:104
      655     4949    2           ELSE DO;                        /* NOT USING DUMP FILE                */

      656     4950    2              NPGS=0;

   4950  4 000547   200023 450100                    STZ     NPGS,,AUTO

      657     4951    2              PTSZ = 1;

   4951  4 000550   000001 235007                    LDA     1,DL
         4 000551   200020 755100                    STA     PTSZ,,AUTO

      658     4952    3              IF W#~=0 OR DA_CPU=%DPS90 OR DA_CPU=%DPS90XA THEN DO;

   4952  4 000552   200013 236100                    LDQ     W#,,AUTO
         4 000553   000561 601000 4                  TNZ     s:4953
         4 000554   000000 235000 xsym               LDA     DA_CPU
         4 000555   000004 115007                    CMPA    4,DL
         4 000556   000561 600000 4                  TZE     s:4953
         4 000557   000005 115007                    CMPA    5,DL
         4 000560   000672 601000 4                  TNZ     s:4971

      659     4953    3                 IF U#=0 THEN

   4953  4 000561   200012 235100                    LDA     U#,,AUTO
         4 000562   000607 601000 4                  TNZ     s:4962

      660     4954    4                    IF W#=%MONWSQ THEN DO;

   4954  4 000563   000001 116007                    CMPQ    1,DL
         4 000564   000575 601000 4                  TNZ     s:4959

      661     4955    4                       PTP=DA_MONPTP;

   4955  4 000565   000000 235000 xsym               LDA     DA_MONPTP
         4 000566   200017 755100                    STA     PTP,,AUTO

      662     4956    4                       PTSZ = S$WSPTD.NBLKS(%MONWSQ)/16;
PL6.E3A0      #002=DAM$VPAGE File=DAM$MAP.:E05TSI                                TUE 07/29/97 12:51 Page:105

   4956  4 000567   000000 470400 xsym               LDP0    DA_WSPTD$
         4 000570   000001 236100                    LDQ     1,,PR0
         4 000571   007777 376007                    ANQ     4095,DL
         4 000572   000004 772000                    QRL     4
         4 000573   200020 756100                    STQ     PTSZ,,AUTO

      663     4957    4                       END;

   4957  4 000574   000614 710000 4                  TRA     s:4963

      664     4958    4                    ELSE DO;

      665     4959    4                       PTP=S$WSPTD.BLKNO(W#);

   4959  4 000575   000000 470400 xsym               LDP0    DA_WSPTD$
         4 000576   000000 236106                    LDQ     0,QL,PR0
         4 000577   000022 772000                    QRL     18
         4 000600   200017 756100                    STQ     PTP,,AUTO

      666     4960    4                       PTSZ = S$WSPTD.NBLKS(W#)/16;

   4960  4 000601   200013 720100                    LXL0    W#,,AUTO
         4 000602   000000 236110                    LDQ     0,X0,PR0
         4 000603   007777 376007                    ANQ     4095,DL
         4 000604   000004 772000                    QRL     4
         4 000605   200020 756100                    STQ     PTSZ,,AUTO

      667     4961    4                       END;

   4961  4 000606   000614 710000 4                  TRA     s:4963

      668     4962    3                 ELSE PTP=B$USRT$->B$USER.PT(U#);

   4962  4 000607   000004 735000                    ALS     4
         4 000610   000000 470400 xsym               LDP0    B$USRT$
         4 000611   000014 236105                    LDQ     12,AL,PR0
PL6.E3A0      #002=DAM$VPAGE File=DAM$MAP.:E05TSI                                TUE 07/29/97 12:51 Page:106
         4 000612   000022 772000                    QRL     18
         4 000613   200017 756100                    STQ     PTP,,AUTO

      669     4963    3                 RPN = MOD(PTP*64,1024);

   4963  4 000614   200017 236100                    LDQ     PTP,,AUTO
         4 000615   000006 736000                    QLS     6
         4 000616   002000 506007                    DIV     1024,DL
         4 000617   200021 755100                    STA     RPN,,AUTO

      670     4964    3                IF DA_CPU~=%DPS90XA AND DA_CPU~=%DPS8000 THEN PTP=PTP*64/1024;ELSE RPN
              4964                          =0;

   4964  4 000620   000000 236000 xsym               LDQ     DA_CPU
         4 000621   000005 116007                    CMPQ    5,DL
         4 000622   000632 600000 4                  TZE     s:4964+10
         4 000623   000006 116007                    CMPQ    6,DL
         4 000624   000632 600000 4                  TZE     s:4964+10

   4964  4 000625   200017 236100                    LDQ     PTP,,AUTO
         4 000626   000006 736000                    QLS     6
         4 000627   002000 506007                    DIV     1024,DL
         4 000630   200017 756100                    STQ     PTP,,AUTO
         4 000631   000633 710000 4                  TRA     s:4965

   4964  4 000632   200021 450100                    STZ     RPN,,AUTO

      671     4965    3                 IF W#=%CGWSQ THEN PTSZ = 10; /* MAP IN TEN PAGES */

   4965  4 000633   200013 235100                    LDA     W#,,AUTO
         4 000634   000014 115007                    CMPA    12,DL
         4 000635   000640 601000 4                  TNZ     s:4966

   4965  4 000636   000012 236007                    LDQ     10,DL
         4 000637   200020 756100                    STQ     PTSZ,,AUTO

      672     4966    4                 DO I=0 TO PTSZ-1;
PL6.E3A0      #002=DAM$VPAGE File=DAM$MAP.:E05TSI                                TUE 07/29/97 12:51 Page:107

   4966  4 000640   200016 450100                    STZ     I,,AUTO
         4 000641   000661 710000 4                  TRA     s:4968+1

      673     4967    4                    CALL CVM(DA_MSCPG1+I,(PTP)+I) ALTRET(PMMEALT);

   4967  4 000642   000000 236000 xsym               LDQ     DA_MSCPG1
         4 000643   200016 036100                    ADLQ    I,,AUTO
         4 000644   200030 756100                    STQ     REAL+1,,AUTO
         4 000645   200017 236100                    LDQ     PTP,,AUTO
         4 000646   200016 036100                    ADLQ    I,,AUTO
         4 000647   200030 235100                    LDA     REAL+1,,AUTO
         4 000650   200032 755100                    STA     REAL+3,,AUTO
         4 000651   200033 756100                    STQ     REAL+4,,AUTO
         4 000652   200033 630500                    EPPR0   REAL+4,,AUTO
         4 000653   200026 450500                    STP0    @CODE+1,,AUTO
         4 000654   200032 631500                    EPPR1   REAL+3,,AUTO
         4 000655   200025 451500                    STP1    NPGS+2,,AUTO
         4 000656   001066 701000 4                  TSX1    CVM
         4 000657   001036 702000 4                  TSX2    PMMEALT

      674     4968    4                    END;

   4968  4 000660   200016 054100                    AOS     I,,AUTO
         4 000661   200016 236100                    LDQ     I,,AUTO
         4 000662   200020 116100                    CMPQ    PTSZ,,AUTO
         4 000663   000642 604000 4                  TMI     s:4967

      675     4969    3                 PT$=PINCRW(B$IS$,DA_MSCPG1*1024+RPN);

   4969  4 000664   000000 236000 xsym               LDQ     DA_MSCPG1
         4 000665   000012 736000                    QLS     10
         4 000666   200021 036100                    ADLQ    RPN,,AUTO
         4 000667   000022 736000                    QLS     18
         4 000670   000000 036000 xsym               ADLQ    B$IS$
         4 000671   200022 756100                    STQ     PT$,,AUTO

PL6.E3A0      #002=DAM$VPAGE File=DAM$MAP.:E05TSI                                TUE 07/29/97 12:51 Page:108
      676     4970    3                 END;

      677     4971    3              DO I=0 TO N#;

   4971  4 000672   200016 450100                    STZ     I,,AUTO
         4 000673   001024 710000 4                  TRA     s:4991+1

      678     4972    3                 IF NOT (DA_WINDOW.VP(WP#+I)=VP#+I AND

   4972  4 000674   200011 236100                    LDQ     WP#,,AUTO
         4 000675   200016 036100                    ADLQ    I,,AUTO
         4 000676   200030 756100                    STQ     REAL+1,,AUTO
         4 000677   200010 236100                    LDQ     VP#,,AUTO
         4 000700   200016 036100                    ADLQ    I,,AUTO
         4 000701   200031 756100                    STQ     REAL+2,,AUTO
         4 000702   200030 720100                    LXL0    REAL+1,,AUTO
         4 000703   000000 236010 xsym               LDQ     DA_WINDOW,X0
         4 000704   000022 772000                    QRL     18
         4 000705   377777 376007                    ANQ     131071,DL
         4 000706   200031 116100                    CMPQ    REAL+2,,AUTO
         4 000707   000725 601000 4                  TNZ     s:4975
         4 000710   200011 236100                    LDQ     WP#,,AUTO
         4 000711   200016 036100                    ADLQ    I,,AUTO
         4 000712   000000 236006 xsym               LDQ     DA_WINDOW,QL
         4 000713   000011 772000                    QRL     9
         4 000714   000777 376007                    ANQ     511,DL
         4 000715   200013 116100                    CMPQ    W#,,AUTO
         4 000716   000725 601000 4                  TNZ     s:4975
         4 000717   200011 236100                    LDQ     WP#,,AUTO
         4 000720   200016 036100                    ADLQ    I,,AUTO
         4 000721   000000 236006 xsym               LDQ     DA_WINDOW,QL
         4 000722   000777 376007                    ANQ     511,DL
         4 000723   200012 116100                    CMPQ    U#,,AUTO
         4 000724   001022 600000 4                  TZE     s:4990

      679     4973    3                   DA_WINDOW.WSQ(WP#+I)=W# AND
      680     4974    4                   DA_WINDOW.USR(WP#+I)=U#) THEN DO;
PL6.E3A0      #002=DAM$VPAGE File=DAM$MAP.:E05TSI                                TUE 07/29/97 12:51 Page:109

      681     4975    5                    IF W#=0 AND DA_CPU~=%DPS90 AND DA_CPU~=%DPS90XA THEN DO;

   4975  4 000725   200013 235100                    LDA     W#,,AUTO
         4 000726   000740 601000 4                  TNZ     s:4979
         4 000727   000000 236000 xsym               LDQ     DA_CPU
         4 000730   000004 116007                    CMPQ    4,DL
         4 000731   000740 600000 4                  TZE     s:4979
         4 000732   000005 116007                    CMPQ    5,DL
         4 000733   000740 600000 4                  TZE     s:4979

      682     4976    5                       RPN = VP# + I;

   4976  4 000734   200010 236100                    LDQ     VP#,,AUTO
         4 000735   200016 036100                    ADLQ    I,,AUTO
         4 000736   200021 756100                    STQ     RPN,,AUTO

      683     4977    5                       END;

   4977  4 000737   000757 710000 4                  TRA     s:4985

      684     4978    5                    ELSE DO;

      685     4979    5                       IF PT$->B$MAP.CTRL(VP#+I) & %PGINMEM THEN

   4979  4 000740   200010 236100                    LDQ     VP#,,AUTO
         4 000741   200016 036100                    ADLQ    I,,AUTO
         4 000742   200022 470500                    LDP0    PT$,,AUTO
         4 000743   000000 236106                    LDQ     0,QL,PR0
         4 000744   000036 736000                    QLS     30
         4 000745   400000 376003                    ANQ     -131072,DU
         4 000746   000755 600000 4                  TZE     s:4983

      686     4980    6                       DO;

      687     4981    6                          RPN=PT$->B$MAP.RPN(VP#+I);

PL6.E3A0      #002=DAM$VPAGE File=DAM$MAP.:E05TSI                                TUE 07/29/97 12:51 Page:110
   4981  4 000747   200010 236100                    LDQ     VP#,,AUTO
         4 000750   200016 036100                    ADLQ    I,,AUTO
         4 000751   000000 236106                    LDQ     0,QL,PR0
         4 000752   000022 772000                    QRL     18
         4 000753   200021 756100                    STQ     RPN,,AUTO

      688     4982    6                          END;

   4982  4 000754   000757 710000 4                  TRA     s:4985

      689     4983    5                       ELSE RPN=-1;

   4983  4 000755   000001 336007                    LCQ     1,DL
         4 000756   200021 756100                    STQ     RPN,,AUTO

      690     4984    5                       END;

      691     4985    4                    CALL CVM(WP#+I,RPN);

   4985  4 000757   200011 236100                    LDQ     WP#,,AUTO
         4 000760   200016 036100                    ADLQ    I,,AUTO
         4 000761   200034 756100                    STQ     REAL+5,,AUTO
         4 000762   200021 630500                    EPPR0   RPN,,AUTO
         4 000763   200026 450500                    STP0    @CODE+1,,AUTO
         4 000764   200034 631500                    EPPR1   REAL+5,,AUTO
         4 000765   200025 451500                    STP1    NPGS+2,,AUTO
         4 000766   001066 701000 4                  TSX1    CVM
         4 000767   000000 011000                    NOP     0

      692     4986    4                    DA_WINDOW.VP(WP#+I)=VP#+I;

   4986  4 000770   200011 236100                    LDQ     WP#,,AUTO
         4 000771   200016 036100                    ADLQ    I,,AUTO
         4 000772   200030 756100                    STQ     REAL+1,,AUTO
         4 000773   200010 236100                    LDQ     VP#,,AUTO
         4 000774   200016 036100                    ADLQ    I,,AUTO
         4 000775   200030 720100                    LXL0    REAL+1,,AUTO
PL6.E3A0      #002=DAM$VPAGE File=DAM$MAP.:E05TSI                                TUE 07/29/97 12:51 Page:111
         4 000776   000022 736000                    QLS     18
         4 000777   000000 676010 xsym               ERQ     DA_WINDOW,X0
         4 001000   377777 376003                    ANQ     131071,DU
         4 001001   000000 656010 xsym               ERSQ    DA_WINDOW,X0

      693     4987    4                    DA_WINDOW.WSQ(WP#+I)=W#;

   4987  4 001002   200011 236100                    LDQ     WP#,,AUTO
         4 001003   200016 036100                    ADLQ    I,,AUTO
         4 001004   000000 620006                    EAX0    0,QL
         4 001005   200013 236100                    LDQ     W#,,AUTO
         4 001006   000011 736000                    QLS     9
         4 001007   000000 676010 xsym               ERQ     DA_WINDOW,X0
         4 001010   777000 376007                    ANQ     -512,DL
         4 001011   000000 656010 xsym               ERSQ    DA_WINDOW,X0

      694     4988    4                    DA_WINDOW.USR(WP#+I)=U#;

   4988  4 001012   200011 236100                    LDQ     WP#,,AUTO
         4 001013   200016 036100                    ADLQ    I,,AUTO
         4 001014   000000 620006                    EAX0    0,QL
         4 001015   200012 236100                    LDQ     U#,,AUTO
         4 001016   000000 676010 xsym               ERQ     DA_WINDOW,X0
         4 001017   000777 376007                    ANQ     511,DL
         4 001020   000000 656010 xsym               ERSQ    DA_WINDOW,X0

      695     4989    4                    END;

   4989  4 001021   001023 710000 4                  TRA     s:4991

      696     4990    3                 ELSE NPGS=NPGS+1;

   4990  4 001022   200023 054100                    AOS     NPGS,,AUTO

      697     4991    3                 END;

   4991  4 001023   200016 054100                    AOS     I,,AUTO
PL6.E3A0      #002=DAM$VPAGE File=DAM$MAP.:E05TSI                                TUE 07/29/97 12:51 Page:112
         4 001024   200016 236100                    LDQ     I,,AUTO
         4 001025   200014 116100                    CMPQ    N#,,AUTO
         4 001026   000674 604400 4                  TMOZ    s:4972

      698     4992    2              END;                         /* IF DA_DUMPFILE ELSE                */

      699     4993    1           IF NPGS=0 THEN CALL SETERR(%E$DA_NO_PAGES);

   4993  4 001027   200023 235100                    LDA     NPGS,,AUTO
         4 001030   001035 601000 4                  TNZ     s:5002

   4993  4 001031   000012 236000 5                  LDQ     10
         4 001032   200025 756100                    STQ     NPGS+2,,AUTO
         4 001033   001153 701000 4                  TSX1    SETERR
         4 001034   000000 011000                    NOP     0

      700     4994        /*E*    ERROR:   DAM-E$DA_NO_PAGES
      701     4995                MESSAGE: None of the requested pages were successfully mapped
      702     4996                MESSAGE1: If looking at a dumfile, none of the requested pages
      703     4997                          were dumped.  If looking at the running system, M$CVM
      704     4998                          altreturned for every page reqested or there were no
      705     4999                          allocated virtual pages.
      706     5000                                                                           */
      707     5001        %EJECT;
PL6.E3A0      #002=DAM$VPAGE File=DAM$MAP.:E05TSI                                TUE 07/29/97 12:51 Page:113
      708     5002    2           DO NEVER;

   5002  4 001035   001042 710000 4                  TRA     ALT

      709     5003    2   PMMEALT:   ERRCD=B$TCB$->B$TCB.ALT$->B$ALT.ERR;

   5003  4 001036   000000 470400 xsym  PMMEALT      LDP0    B$TCB$
         4 001037   000000 471500                    LDP1    0,,PR0
         4 001040   100102 236100                    LDQ     66,,PR1
         4 001041   200015 756100                    STQ     ERRCD,,AUTO

      710     5004    2              END;

      711     5005    1   ALT:    IF ERRCD='0'B THEN RETURN;

   5005  4 001042   200015 235100       ALT          LDA     ERRCD,,AUTO
         4 001043   001045 601000 4                  TNZ     s:5007

   5005  4 001044   000000 702200 xent               TSX2  ! X66_ARET

      712     5006    2           ELSE DO;

      713     5007    2              DA_MAPERR=ERRCD;

   5007  4 001045   200015 236100                    LDQ     ERRCD,,AUTO
         4 001046   000000 756000 xsym               STQ     DA_MAPERR

      714     5008    2              ALTRETURN;

   5008  4 001047   000000 702200 xent               TSX2  ! X66_AALT

      715     5009    2              END;
      716     5010        %EJECT;
PL6.E3A0      #002=DAM$VPAGE File=DAM$MAP.:E05TSI                                TUE 07/29/97 12:51 Page:114
      717     5011    1   DAM$CVM: ENTRY(VP,WP) ALTRET;

   5011  4 001050   000000 700200 xent  DAM$CVM      TSX0  ! X66_AUTO_5
         4 001051   000036 000005                    ZERO    30,5

      718     5012    1           CALL CVM(WP+DA_WINDOWBASE,VP) ALTRET(CVMALT);

   5012  4 001052   200004 470500                    LDP0    @WP,,AUTO
         4 001053   000000 236100                    LDQ     0,,PR0
         4 001054   000000 036000 xsym               ADLQ    DA_WINDOWBASE
         4 001055   200035 756100                    STQ     REAL+6,,AUTO
         4 001056   200003 236100                    LDQ     @VP,,AUTO
         4 001057   200026 756100                    STQ     @CODE+1,,AUTO
         4 001060   200035 631500                    EPPR1   REAL+6,,AUTO
         4 001061   200025 451500                    STP1    NPGS+2,,AUTO
         4 001062   001066 701000 4                  TSX1    CVM
         4 001063   001065 702000 4                  TSX2    CVMALT

      719     5013    1           RETURN;

   5013  4 001064   000000 702200 xent               TSX2  ! X66_ARET

      720     5014    1   CVMALT: ALTRETURN;

   5014  4 001065   000000 702200 xent  CVMALT       TSX2  ! X66_AALT

      721     5015        /**/
      722     5016        /**/
      723     5017        /**/
      724     5018    1   CVM:    PROC(WNDW,PHYS) ALTRET;

   5018  4 001066   200024 741300       CVM          STX1  ! NPGS+1,,AUTO

      725     5019    2   DCL WNDW SBIN;
      726     5020    2   DCL PHYS SBIN;
      727     5021    2   DCL REAL SBIN;
      728     5022    2   DCL DAM$PHYS_TO_REAL ENTRY(2);
PL6.E3A0      #002=DAM$VPAGE File=DAM$MAP.:E05TSI                                TUE 07/29/97 12:51 Page:115
      729     5023    2           IF (DA_CPU = %DPS90XA OR DA_CPU = %DPS90) AND PHYS>=0 THEN

   5023  4 001067   000000 235000 xsym               LDA     DA_CPU
         4 001070   000005 115007                    CMPA    5,DL
         4 001071   001074 600000 4                  TZE     s:5023+5
         4 001072   000004 115007                    CMPA    4,DL
         4 001073   001110 601000 4                  TNZ     s:5026
         4 001074   200026 470500                    LDP0    @PHYS,,AUTO
         4 001075   000000 235100                    LDA     0,,PR0
         4 001076   001110 604000 4                  TMI     s:5026

      730     5024    2              CALL DAM$PHYS_TO_REAL (REAL,PHYS);

   5024  4 001077   200026 236100                    LDQ     @PHYS,,AUTO
         4 001100   200031 756100                    STQ     REAL+2,,AUTO
         4 001101   200027 631500                    EPPR1   REAL,,AUTO
         4 001102   200030 451500                    STP1    REAL+1,,AUTO
         4 001103   200030 630500                    EPPR0   REAL+1,,AUTO
         4 001104   000020 631400 xsym               EPPR1   B_VECTNIL+16
         4 001105   000000 701000 xent               TSX1    DAM$PHYS_TO_REAL
         4 001106   000000 011000                    NOP     0
         4 001107   001113 710000 4                  TRA     s:5027

      731     5025    2           ELSE
      732     5026    2              REAL=PHYS;

   5026  4 001110   200026 470500                    LDP0    @PHYS,,AUTO
         4 001111   000000 235100                    LDA     0,,PR0
         4 001112   200027 755100                    STA     REAL,,AUTO

      733     5027    3           IF DA_WINDOW.PRESENCE(WNDW) OR PHYS>=0 THEN DO;

   5027  4 001113   200025 470500                    LDP0    @WNDW,,AUTO
         4 001114   000000 720100                    LXL0    0,,PR0
         4 001115   000000 234010 xsym               SZN     DA_WINDOW,X0
         4 001116   001122 604000 4                  TMI     s:5028
         4 001117   200026 471500                    LDP1    @PHYS,,AUTO
PL6.E3A0      #002=DAM$VPAGE File=DAM$MAP.:E05TSI                                TUE 07/29/97 12:51 Page:116
         4 001120   100000 235100                    LDA     0,,PR1
         4 001121   001132 604000 4                  TMI     s:5032

      734     5028    3              FPT_CVM.V.PPNO#=REAL;

   5028  4 001122   200027 235100                    LDA     REAL,,AUTO
         4 001123   000023 755000 1                  STA     FPT_CVM+3

      735     5029    3              FPT_CVM.V.VPNO#=WNDW;

   5029  4 001124   000000 720100                    LXL0    0,,PR0
         4 001125   000024 440000 1                  SXL0    FPT_CVM+4

      736     5030    3              CALL M$CVM(FPT_CVM) ALTRET(ALT);

   5030  4 001126   000020 630400 1                  EPPR0   FPT_CVM
         4 001127   430011 713400                    CLIMB   alt,+12297
         4 001130   400000 401760                    pmme    nvectors=1
         4 001131   001151 702000 4                  TSX2    ALT

      737     5031    3              END;

      738     5032    2           IF PHYS<0 THEN DA_WINDOW.PRESENCE(WNDW)='0'B;

   5032  4 001132   200026 470500                    LDP0    @PHYS,,AUTO
         4 001133   000000 235100                    LDA     0,,PR0
         4 001134   001142 605000 4                  TPL     s:5034

   5032  4 001135   200025 471500                    LDP1    @WNDW,,AUTO
         4 001136   100000 720100                    LXL0    0,,PR1
         4 001137   000031 236000 xsym               LDQ     B_VECTNIL+25
         4 001140   000000 356010 xsym               ANSQ    DA_WINDOW,X0
         4 001141   001147 710000 4                  TRA     s:5037

      739     5033    3           ELSE DO;

      740     5034    3              DA_WINDOW.PRESENCE(WNDW)='1'B;
PL6.E3A0      #002=DAM$VPAGE File=DAM$MAP.:E05TSI                                TUE 07/29/97 12:51 Page:117

   5034  4 001142   200025 471500                    LDP1    @WNDW,,AUTO
         4 001143   100000 720100                    LXL0    0,,PR1
         4 001144   400000 236003                    LDQ     -131072,DU
         4 001145   000000 256010 xsym               ORSQ    DA_WINDOW,X0

      741     5035    3              NPGS=NPGS+1;

   5035  4 001146   200023 054100                    AOS     NPGS,,AUTO

      742     5036    3              END;

      743     5037    2           RETURN;

   5037  4 001147   200024 221300                    LDX1  ! NPGS+1,,AUTO
         4 001150   000001 702211                    TSX2  ! 1,X1

      744     5038    2   ALT:    ALTRETURN;

   5038  4 001151   200024 221300       ALT          LDX1  ! NPGS+1,,AUTO
         4 001152   000000 702211                    TSX2  ! 0,X1

      745     5039    2   END CVM;
      746     5040        %EJECT;
PL6.E3A0      #002=DAM$VPAGE File=DAM$MAP.:E05TSI                                TUE 07/29/97 12:51 Page:118
      747     5041    1   SETERR: PROC(CODE) ALTRET;

   5041  4 001153   200024 741300       SETERR       STX1  ! NPGS+1,,AUTO

      748     5042    2   DCL CODE SBIN;
      749     5043    2           ERRCD='040115000000'O;

   5043  4 001154   000003 236000 3                  LDQ     3
         4 001155   200015 756100                    STQ     ERRCD,,AUTO

      750     5044    2           ERRCD.CODE=CODE;

   5044  4 001156   200025 470500                    LDP0    @CODE,,AUTO
         4 001157   000000 236100                    LDQ     0,,PR0
         4 001160   000003 736000                    QLS     3
         4 001161   200015 676100                    ERQ     ERRCD,,AUTO
         4 001162   377770 376007                    ANQ     131064,DL
         4 001163   200015 656100                    ERSQ    ERRCD,,AUTO

      751     5045    2           ALTRETURN;

   5045  4 001164   000000 702211                    TSX2  ! 0,X1
      752     5046    2   END SETERR;
      753     5047    1   END DAM$VPAGE;
      754     5048        %EOD;

PL6.E3A0      #002=DAM$VPAGE File=DAM$MAP.:E05TSI                                TUE 07/29/97 12:51 Page:119
--  Include file information  --

   SS_SCHED_C.:E05TOU  is referenced.
   B_STRINGS_C.:E05TOU  is referenced.
   B_MLSMAC_C.:E05TOU  is referenced.
   B_ULSMAC_C.:E05TOU  is referenced.
   B_LSDATA_C.:E05TOU  cannot be made into a system file and is referenced.
   M_INFO_C.:E05TOU  is referenced.
   DA_PERR_C.:E05TOU  is referenced.
   NI$TABLES.:E05TOU  is referenced.
   IR_DATA_M.:E05TOU  is referenced.
   B$MAP.:E05TOU  cannot be made into a system file and is referenced.
   B$USER.:E05TOU  cannot be made into a system file and is referenced.
   CP_6.:E05TOU  cannot be made into a system file and is referenced.
   DA_MAP_R.:E05TOU  cannot be made into a system file and is referenced.
   B$JIT_C.:E05TOU  was found in the system file and is never referenced.
   CP_6_C.:E05TOU  was found in the system file and is referenced.
      No diagnostics issued in procedure DAM$VPAGE.
PL6.E3A0      #002=DAM$VPAGE File=DAM$MAP.:E05TSI                                TUE 07/29/97 12:51 Page:120

 **** Variables and constants ****

  ****  Section 001  Data  DAM$VPAGE

  ****  Scalars and arrays  ****
OctLoc.c.b A Datatyp(siz) R M Lvl/name                 OctLoc.c.b A Datatyp(siz) R M Lvl/name

     0-0-0/d STRC(72)    r     1 DFKEY                     20-0-0/d STRC(216)   r     1 FPT_CVM
    32-0-0/d STRC(144)   r     1 FPT_FVP                   26-0-0/d STRC(144)   r     1 FPT_GVP
     2-0-0/d STRC(504)   r     1 FPT_RDDUMP

  ****  Auto variables  ****

  ****  Scalars and arrays  ****
OctLoc.c.b A Datatyp(siz) R M Lvl/name                 OctLoc.c.b A Datatyp(siz) R M Lvl/name

    25-0-0/w PTR         r     1 @CODE                      7-0-0/w PTR         r     1 @N
    26-0-0/w PTR         r     1 @PHYS                      5-0-0/w PTR         r     1 @SYSID
     3-0-0/w PTR         r     1 @VP                       25-0-0/w PTR         r     1 @WNDW
     4-0-0/w PTR         r     1 @WP                        6-0-0/w PTR         r     1 @WSQ
    *0-0-0/w SBIN        r     1 CODE                      15-0-0/w STRC        r     1 ERRCD
    16-0-0/w SBIN        r     1 I                         *0-0-0/w SBIN        r     1 N
    14-0-0/w SBIN        r     1 N#                        23-0-0/w SBIN        r     1 NPGS
    *0-0-0/w SBIN        r     1 PHYS                      22-0-0/w PTR         r     1 PT$
    17-0-0/w SBIN        r     1 PTP                       20-0-0/w SBIN        r     1 PTSZ
    27-0-0/w SBIN        r     1 REAL                      21-0-0/w SBIN        r     1 RPN
    *0-0-0/w SBIN        r     1 SYSID                     12-0-0/w SBIN        r     1 U#
    *0-0-0/w SBIN        r     1 VP                        10-0-0/w SBIN        r     1 VP#
    13-0-0/w SBIN        r     1 W#                        *0-0-0/w SBIN        r     1 WNDW
    *0-0-0/w SBIN        r     1 WP                        11-0-0/w SBIN        r     1 WP#
    *0-0-0/w SBIN        r     1 WSQ

  ****  SYMREF variables  ****

  ****  Scalars and arrays  ****
OctLoc.c.b A Datatyp(siz) R M Lvl/name                 OctLoc.c.b A Datatyp(siz) R M Lvl/name

PL6.E3A0      #002=DAM$VPAGE File=DAM$MAP.:E05TSI                                TUE 07/29/97 12:51 Page:121
     0-0-0/w PTR         r     1 B$IS$                      0-0-0/w PTR         r     1 B$TCB$
     0-0-0/w PTR         r     1 B$USRT$                    0-0-0/w SBIN        r     1 DA_CPU
     0-0-0/w SBIN        r     1 DA_CPU#                    0-0-0/w BIT         r     1 DA_DUMPFILE
     0-0-0/w STRC        r     1 DA_MAPERR                  0-0-0/w SBIN        r     1 DA_MONPTP
     0-0-0/w SBIN        r     1 DA_MSCPG1                  0-0-0/w SBIN        r     1 DA_MUAIS
     0-0-0/w SBIN        r     1 DA_NODEIDX                 0-0-0/w PTR         r     1 DA_RVBUF$
     0-0-0/w PTR         r     1 DA_USERDIR$
     0-0-0/b STRC        r     1 DA_WINDOW(0:255)
     0-0-0/w SBIN        r     1 DA_WINDOWBASE              0-0-0/w SBIN        r     1 DA_WINDOWMAX
     0-0-0/w PTR         r     1 DA_WSPTD$

  ****  BASED and DCB variables  ****

  ****  Scalars and arrays  ****
OctLoc.c.b A Datatyp(siz) R M Lvl/name                 OctLoc.c.b A Datatyp(siz) R M Lvl/name

     0-0-0/w STRC(2448)  r     1 B$ALT                      0-0-0/w STRC        r     1 B$MAP(0:1023)
     0-0-0/w STRC(144)   r     1 B$TCB                      0-0-0/w STRC(576)   r     1 B$USER(0:0)
     0-0-0N  NULL        r     1 M$DUMPFILE                 0-0-0/c CHAR(4096)  r     1 PAGE(0:0)
     0-0-0/d STRC(36864) r     1 RVBUF
     0-0-0/w STRC        r     1 S$WSPTD(0:0)
     0-0-0/d STRC(36864) r     1 USERDIR


   Procedure DAM$VPAGE requires 629 words for executable code.
   Procedure DAM$VPAGE requires 30 words of local(AUTO) storage.
PL6.E3A0      #002=DAM$VPAGE File=DAM$MAP.:E05TSI                                TUE 07/29/97 12:51 Page:122
          *** CROSS REFERENCE LISTING ***
**     DENOTES     IDENTIFIER DEFINITION
<<                 IDENTIFIER'S VALUE SET
>>                 IDENTIFIER'S VALUE USED
<>                 IDENTIFIER SET AND/OR USED
--                 IDENTIFIER REFERENCED
PL6.E3A0      #002=DAM$VPAGE File=DAM$MAP.:E05TSI                                TUE 07/29/97 12:51 Page:123
          MINI XREF LISTING

ALT
      5005**LABEL    4829--CALLALT  4834--CALLALT  4845--CALLALT  4915--CALLALT
ALT IN PROCEDURE CVM
      5038**LABEL    5030--CALLALT
B$ALT.CODE
      4813**DCL      4813--REDEF    4814--REDEF    4814--REDEF
B$ALT.ERR
      4814**DCL      5003>>ASSIGN
B$ALT.ERR.ERR#
      4815**DCL      4815--REDEF
B$ALT.EVID
      4814**DCL      4814--REDEF    4814--REDEF
B$DO.ECCINFO
       300**DCL       301--REDEF
B$IS$
      4793**DCL      4799--IMP-PTR  4889>>ASSIGN   4927>>ASSIGN   4969>>ASSIGN
B$MAP.CTRL
       415**DCL      4979>>IF
B$MAP.RPN
       411**DCL      4981>>ASSIGN
B$MAP.SCTRL
       412**DCL       413--REDEF
B$TCB.ALT$
      4809**DCL      5003>>ASSIGN
B$TCB$
      4807**DCL      5003>>ASSIGN
B$U.MISC
       279**DCL       280--REDEF
B$USER.MISC
       355**DCL       356--REDEF
B$USER.PT
       349**DCL      4962>>ASSIGN
PL6.E3A0      #002=DAM$VPAGE File=DAM$MAP.:E05TSI                                TUE 07/29/97 12:51 Page:124
B$USER.SYSID
       350**DCL      4827>>IF
B$USER.US
       342**DCL      4833>>IF
B$USRT$
       367**DCL      4827>>IF       4833>>IF       4962>>ASSIGN
CODE IN PROCEDURE SETERR
      5042**DCL      5041--PROC     5044>>ASSIGN
CVM
      5018**PROC     4967--CALL     4985--CALL     5012--CALL
CVMALT
      5014**LABEL    5012--CALLALT
DAM$PHYS_TO_REAL IN PROCEDURE CVM
      5022**DCL-ENT  5024--CALL
DA_CPU
        52**DCL      4952>>IF       4952>>IF       4964>>IF       4964>>IF       4975>>IF       4975>>IF
      5023>>IF       5023>>IF
DA_CPU#
        54**DCL      4879>>IF       4881>>ASSIGN
DA_DUMPFILE
        53**DCL      4851>>IF
DA_MAPERR
        62**DCL      5007<<ASSIGN
DA_MAPSEG.P
        63**DCL        64--REDEF
DA_MONPTP
        55**DCL      4955>>ASSIGN
DA_MSCPG1
        56**DCL      4967>>CALL     4969>>ASSIGN
DA_MUAIS
        52**DCL      4826>>DOINDEX  4833>>IF
DA_NODEIDX
        54**DCL      4853>>ASSIGN
DA_RVBUF$
        55**DCL       876--IMP-PTR  4879>>IF
DA_SDASN.DESC.TYPE0
PL6.E3A0      #002=DAM$VPAGE File=DAM$MAP.:E05TSI                                TUE 07/29/97 12:51 Page:125
        48**DCL        48--REDEF
DA_TIGRSEG.P
        64**DCL        65--REDEF
DA_USERDIR$
        56**DCL       912--IMP-PTR  4883>>IF       4900>>ASSIGN
DA_WINDOW
        47**DCL      4858<<ASSIGN   4942<<ASSIGN
DA_WINDOW.PRESENCE
        47**DCL      4855>>IF       4860<<ASSIGN   5027>>IF       5032<<ASSIGN   5034<<ASSIGN
DA_WINDOW.USR
        47**DCL      4897<<ASSIGN   4923>>IF       4931<<ASSIGN   4972>>IF       4988<<ASSIGN
DA_WINDOW.VP
        47**DCL      4895<<ASSIGN   4923>>IF       4929<<ASSIGN   4972>>IF       4986<<ASSIGN
DA_WINDOW.WSQ
        47**DCL      4896<<ASSIGN   4923>>IF       4930<<ASSIGN   4972>>IF       4987<<ASSIGN
DA_WINDOWBASE
        52**DCL      4841>>ASSIGN   5012>>CALL
DA_WINDOWMAX
        52**DCL      4844>>IF
DA_WSPTD$
        55**DCL      4800--IMP-PTR  4956>>ASSIGN   4959>>ASSIGN   4960>>ASSIGN
DFKEY
      4701**DCL      4726--DCLINIT  4727--DCLINIT  4852<<ASSIGN
DFKEY.K.NODEIDX
      4705**DCL      4853<<ASSIGN
DFKEY.K.STYP
      4705**DCL      4870<<ASSIGN   4879<<ASSIGN   4880<<ASSIGN   4885<<ASSIGN   4900<<ASSIGN   4908<<ASSIGN
DFKEY.K.TYP
      4705**DCL      4869<<ASSIGN   4878<<ASSIGN   4884<<ASSIGN   4899<<ASSIGN   4906<<ASSIGN   4907<<ASSIGN
DFKEY.K.USR#
      4705**DCL      4871<<ASSIGN   4881<<ASSIGN   4886<<ASSIGN   4901<<ASSIGN   4910<<ASSIGN   4913<<ASSIGN
DFKEY.K.VP#
      4706**DCL      4887<<ASSIGN   4926<<ASSIGN
ERRCD
        24**DCL      4822<<ASSIGN   5003<<ASSIGN   5005>>IF       5007>>ASSIGN   5043<<ASSIGN
ERRCD.CODE
PL6.E3A0      #002=DAM$VPAGE File=DAM$MAP.:E05TSI                                TUE 07/29/97 12:51 Page:126
        27**DCL      5044<<ASSIGN
FPT_CVM
      4760**DCL      5030<>CALL
FPT_CVM.V
      4760**DCL      4760--DCLINIT
FPT_CVM.V.PPNO#
      4761**DCL      5028<<ASSIGN
FPT_CVM.V.VPNO#
      4762**DCL      5029<<ASSIGN
FPT_FVP
      4790**DCL      4943<>CALL
FPT_FVP.V
      4790**DCL      4790--DCLINIT
FPT_FVP.V.PNO#
      4791**DCL      4941<<ASSIGN
FPT_GVP
      4776**DCL      4859<>CALL
FPT_GVP.V
      4776**DCL      4776--DCLINIT
FPT_GVP.V.PNO#
      4777**DCL      4856<<ASSIGN
FPT_RDDUMP
      4726**DCL      4891<>CALL     4928<>CALL
FPT_RDDUMP.BUF_
      4728**DCL      4927<<ASSIGN
FPT_RDDUMP.BUF_.BOUND
      4728**DCL      4890<<ASSIGN
FPT_RDDUMP.BUF_.BUF$
      4729**DCL      4889<<ASSIGN
FPT_RDDUMP.STATION_
      4729**DCL      4730--REDEF
FPT_RDDUMP.V
      4730**DCL      4726--DCLINIT
FPT_RDDUMP.V.DVBYTE.REREAD#
      4741**DCL      4741--REDEF
FPT_RDDUMP.V.INDX#
PL6.E3A0      #002=DAM$VPAGE File=DAM$MAP.:E05TSI                                TUE 07/29/97 12:51 Page:127
      4739**DCL      4739--REDEF
I
        29**DCL      4854<<DOINDEX  4855>>IF       4856>>ASSIGN   4858>>ASSIGN   4860>>ASSIGN   4888<<ASSIGN
      4922<<DOINDEX  4923>>IF       4923>>IF       4923>>IF       4923>>IF       4926>>ASSIGN   4927>>ASSIGN
      4929>>ASSIGN   4929>>ASSIGN   4930>>ASSIGN   4931>>ASSIGN   4941>>ASSIGN   4942>>ASSIGN   4966<<DOINDEX
      4967>>CALL     4967>>CALL     4971<<DOINDEX  4972>>IF       4972>>IF       4972>>IF       4972>>IF
      4976>>ASSIGN   4979>>IF       4981>>ASSIGN   4985>>CALL     4986>>ASSIGN   4986>>ASSIGN   4987>>ASSIGN
      4988>>ASSIGN
L1
      4942**LABEL    4943--CALLALT
M$CVM
       115**DCL-ENT  5030--CALL
M$FVP
       114**DCL-ENT  4943--CALL
M$GVP
       113**DCL-ENT  4859--CALL
M$READ
        78**DCL-ENT  4891--CALL     4928--CALL
N
        12**DCL         6--PROC     4842--IF       4843>>ASSIGN
N#
        20**DCL      4842<<ASSIGN   4843<<ASSIGN   4844>>IF       4854>>DOINDEX  4893<<ASSIGN   4893>>ASSIGN
      4922>>DOINDEX  4971>>DOINDEX
NO_DUMP_PAGE
      4929**LABEL    4891--CALLALT  4928--CALLALT
NPGS
        34**DCL      4866<<ASSIGN   4894<<ASSIGN   4894>>ASSIGN   4933<<ASSIGN   4933>>ASSIGN   4950<<ASSIGN
      4990<<ASSIGN   4990>>ASSIGN   4993>>IF       5035<<ASSIGN   5035>>ASSIGN
PAGE
      4799**DCL      4927--ASSIGN
PHYS IN PROCEDURE CVM
      5020**DCL      5018--PROC     5023>>IF       5024<>CALL     5026>>ASSIGN   5027>>IF       5032>>IF
PMMEALT
      5003**LABEL    4861--GOTO     4967--CALLALT
PT$
        33**DCL      4969<<ASSIGN   4979>>IF       4981>>ASSIGN
PL6.E3A0      #002=DAM$VPAGE File=DAM$MAP.:E05TSI                                TUE 07/29/97 12:51 Page:128
PTP
        30**DCL      4955<<ASSIGN   4959<<ASSIGN   4962<<ASSIGN   4963>>ASSIGN   4964<<ASSIGN   4964>>ASSIGN
      4967>>CALL
PTSZ
        31**DCL      4951<<ASSIGN   4956<<ASSIGN   4960<<ASSIGN   4965<<ASSIGN   4966>>DOINDEX
REAL IN PROCEDURE CVM
      5021**DCL      5024<>CALL     5026<<ASSIGN   5028>>ASSIGN
RPN
        32**DCL      4963<<ASSIGN   4964<<ASSIGN   4969>>ASSIGN   4976<<ASSIGN   4981<<ASSIGN   4983<<ASSIGN
      4985<>CALL
RVBUF.S_PNO
       887**DCL      4879>>IF
S$WSPTD.BLKNO
      4801**DCL      4959>>ASSIGN
S$WSPTD.NBLKS
      4806**DCL      4956>>ASSIGN   4960>>ASSIGN
SETERR
      5041**PROC     4829--CALL     4834--CALL     4845--CALL     4915--CALL     4993--CALL
SYSID
        10**DCL         6--PROC     4823--IF       4824>>IF       4824>>ASSIGN   4827>>IF
U#
        18**DCL      4823<<ASSIGN   4824<<ASSIGN   4826<<DOINDEX  4827>>IF       4832>>IF       4833>>IF
      4833>>IF       4836>>IF       4839<<ASSIGN   4883>>IF       4886>>ASSIGN   4897>>ASSIGN   4900>>ASSIGN
      4901>>ASSIGN   4923>>IF       4931>>ASSIGN   4953>>IF       4962>>ASSIGN   4972>>IF       4988>>ASSIGN
USERDIR.USER.DA
       912**DCL      4883>>IF
USERDIR.USER.TYP
       913**DCL      4900>>ASSIGN
USRFOUND
      4828**LABEL    4827--GOTO
VP
         8**DCL         6--PROC     4840>>ASSIGN   5011--ENTRY    5012<>CALL
VP#
        16**DCL      4840<<ASSIGN   4873>>IF       4873>>IF       4874<<ASSIGN   4874>>ASSIGN   4883>>IF
      4892<<ASSIGN   4892>>ASSIGN   4909>>IF       4911<<ASSIGN   4923>>IF       4926>>ASSIGN   4929>>ASSIGN
      4972>>IF       4976>>ASSIGN   4979>>IF       4981>>ASSIGN   4986>>ASSIGN
PL6.E3A0      #002=DAM$VPAGE File=DAM$MAP.:E05TSI                                TUE 07/29/97 12:51 Page:129
W#
        19**DCL      4836<<ASSIGN   4837<<ASSIGN   4838<<ASSIGN   4839>>IF       4867>>DOCASE   4875<<ASSIGN
      4906>>IF       4908>>ASSIGN   4923>>IF       4930>>ASSIGN   4952>>IF       4954>>IF       4959>>ASSIGN
      4960>>ASSIGN   4965>>IF       4972>>IF       4975>>IF       4987>>ASSIGN
WNDW IN PROCEDURE CVM
      5019**DCL      5018--PROC     5027>>IF       5029>>ASSIGN   5032>>ASSIGN   5034>>ASSIGN
WP
         9**DCL         6--PROC     4841>>ASSIGN   5011--ENTRY    5012>>CALL
WP#
        17**DCL      4841<<ASSIGN   4844>>IF       4855>>IF       4856>>ASSIGN   4858>>ASSIGN   4860>>ASSIGN
      4889>>ASSIGN   4895>>ASSIGN   4896>>ASSIGN   4897>>ASSIGN   4923>>IF       4923>>IF       4923>>IF
      4927>>ASSIGN   4929>>ASSIGN   4930>>ASSIGN   4931>>ASSIGN   4941>>ASSIGN   4942>>ASSIGN   4972>>IF
      4972>>IF       4972>>IF       4985>>CALL     4986>>ASSIGN   4987>>ASSIGN   4988>>ASSIGN
WSQ
        11**DCL         6--PROC     4835--IF       4838>>ASSIGN
WSQCASE
      4867**LABEL    4876--GOTO

