PL6.E3A0      #003=DAM$DUMPFILE File=DAM$MAP.:E05TSI                             TUE 07/29/97 12:52 Page:130
      755        1        /*T***********************************************************/
      756        2        /*T*                                                         */
      757        3        /*T* Copyright (c) Bull HN Information Systems Inc., 1997    */
      758        4        /*T*                                                         */
      759        5        /*T***********************************************************/
      760        6        DAM$DUMPFILE: PROC(FID) ALTRET;
      761        7        /**/
      762        8        /* PARAMETERS */
      763        9        /**/
      764       10    1   DCL 1 FID,
      765       11    1         2 L UBIN BYTE UNAL,
      766       12    1         2 C CHAR(FID.L);
      767       13        /**/
      768       14        /* EXTERNAL PROCEDURES */
      769       15        /**/
      770       16    1   DCL DAM$VPAGE ENTRY(5) ALTRET;
      771       17    1   DCL DAM$USECPU ENTRY(1) ALTRET;
      772       18    1   DCL DAA$ERRMSG ENTRY(1) OPTIONAL;
      773       19    1   DCL DA_MAP_D ENTRY CONV(5);
      774       20        /* AUTO DATA */
      775       21        /**/
      776       22    1   DCL I SBIN;
      777       23    1   DCL J SBIN;
      778       24    1   DCL DS$ PTR;
      779       25    1   DCL LS$ PTR;
      780       26    1   DCL TIGRPGS SBIN;
      781       27    1   DCL SEGSIZE SBIN;
      782       28    1   DCL WINDOWMAX SBIN;
      783       29        /**/
      784       30        /* INCLUDE FILES */
      785       31        /**/
      786       32        %INCLUDE DA_MAP_R;
      787       62        %INCLUDE DA_ANLZ_R;
      788       75        %INCLUDE DA_PERR_C;
      789      139        %INCLUDE DA_TEXTC_C;
      790      170        %INCLUDE CP_6;
      791      251        %INCLUDE M_INFO_C;
PL6.E3A0      #003=DAM$DUMPFILE File=DAM$MAP.:E05TSI                             TUE 07/29/97 12:52 Page:131
      792      391        %INCLUDE B_LSDATA_C;
      793     3597        %INCLUDE B_STRINGS_C;
      794     3726        %INCLUDE B_SEGIDS_C;
      795     4265        %INCLUDE B_ERRORS_C;
      796     5392        %INCLUDE NI$TABLES;
      797     5608        %INCLUDE CP_6_SUBS;
      798     6148        %INCLUDE IR_DATA_M;
      799     6312        %RV_DFSUBS;
      800     6339        %INCLUDE B$USER;
      801     6555        %B$USERREFS;
      802     6559        %INCLUDE B$JIT;
      803     6849        %INCLUDE B$SS;
      804     7028        /**/
      805     7029        /* STATIC AND BASED DATA */
      806     7030        /**/
      807     7031    1   DCL M$DUMPFILE DCB;
      808     7032        %FPT_OPEN (DCB=M$DUMPFILE,
      809     7033                   FUN=IN,
      810     7034                   NAME=VLP_NAME,
      811     7035                   ACCT=VLP_ACCT,
      812     7036                   SN=VLP_SN,
      813     7037                   PASS=VLP_PASS,
      814     7038                   WSN=VLP_WSN);
      815     7147        %VLP_NAME;
      816     7174        %VLP_ACCT;
      817     7187        %VLP_SN;
      818     7200        %VLP_ACCT (FPTN=VLP_PASS);
      819     7213        %VLP_ACCT (FPTN=VLP_WSN);
      820     7226        %FPT_CLOSE (DCB=M$DUMPFILE,DISP=SAVE);
      821     7268        %FPT_FID (ACCT=VLP_ACCT,
      822     7269                  ASN="FPT_OPEN.V.ASN#",
      823     7270                  NAME=VLP_NAME,
      824     7271                  PASS=VLP_PASS,
      825     7272                  RES="FPT_OPEN.V.RES#",
      826     7273                  SN=VLP_SN,
      827     7274                  WSN=VLP_WSN);
      828     7297        %F$DCB;
PL6.E3A0      #003=DAM$DUMPFILE File=DAM$MAP.:E05TSI                             TUE 07/29/97 12:52 Page:132
      829     7354        %B$TCB;
      830     7357        %B$ALT;
      831     7365        %FPT_CVM (PPNO=-1);
      832     7381    1   DCL B$IS$ PTR SYMREF;
      833     7382    1   DCL DESC(0:0) BIT(72) ALIGNED BASED;
      834     7383        %RV_DFKEY (NAME=DFKEY,STCLASS=STATIC);
      835     7401        %FPT_READ (DCB=M$DUMPFILE,
      836     7402                   KEY=DFKEY,
      837     7403                   KEYS=YES);
      838     7442        %FPT_GDS (FPTN=FPT_GDS_MAP,RESULTS=DA_MAPSEG);
      839     7458        %FPT_GDS (FPTN=FPT_GDS_TIGR,RESULTS=DA_TIGRSEG);
      840     7474        %FPT_FVP;
      841     7488        %FPT_STD;
      842     7503        %FPT_SAD;
      843     7518        %FPT_WAIT (FPTN=WAIT4DUMP, UNITS=30);
      844     7532        %FPT_MONINFO (MONINFO=MNINFO,
      845     7533                      SITEINFO=VLR_SITEINFO,
      846     7534                      MONPTRS=MNPTRS);
      847     7549        %VLR_MONINFO (FPTN=MNINFO);
      848     7567        %VLR_MONPTRS (FPTN=MNPTRS);
      849     7582        %VLR_SITEINFO;
      850     7601        %FPT_GDDL (RESULTS=VLR_GDDL);
      851     7614        %VLP_GDDL (FPTN=VLR_GDDL);
      852     7628        %RV_NODEDIR (FPTN=NODEDIR,N=10,STCLASS="BASED(DA_NODEDIR$)");
      853     7645    1   DCL HOSTNODE UBIN STATIC;
      854     7646        %RV_BUFF (NAME=RVBUFF,STCLASS="BASED(DA_RVBUF$)");
      855     7682    1   DCL 1 P BASED ALIGNED,
      856     7683    1         2 PA UBIN(8) UNAL,
      857     7684    1         2 WA UBIN(10) UNAL,
      858     7685    1         2 CA UBIN(2) UNAL,
      859     7686    1         2 BA UBIN(4) UNAL,
      860     7687    1         2 SID,
      861     7688    1           3 S UBIN(2) UNAL,
      862     7689    1           3 D UBIN(10) UNAL;
      863     7690    1   DCL PAGE CHAR(4096) BASED;
      864     7691    1   DCL B$JIT$ PTR SYMREF;
      865     7692    1   DCL B$TCB$ PTR SYMREF;
PL6.E3A0      #003=DAM$DUMPFILE File=DAM$MAP.:E05TSI                             TUE 07/29/97 12:52 Page:133
      866     7693    1   DCL 1 S$WSPTD(0:0) ALIGNED BASED(DA_WSPTD$),
      867     7694    1         2 BLKNO UBIN(18) UNAL,
      868     7695    1         2 * BIT(2),
      869     7696    1         2 P BIT(1),
      870     7697    1         2 T BIT(1),
      871     7698    1         2 * BIT(6),
      872     7699    1         2 NBLKS UBIN(8) UNAL;
      873     7700        %SUB FOREVER="WHILE('1'B)";
      874     7701        %SUB NEVER="WHILE('0'B)";
      875     7702        %EQU MINPGS=20;          /* SAVE AT LEAST THIS MANY PAGES FOR DYNAMIC DATA */
      876     7703        %EJECT;
PL6.E3A0      #003=DAM$DUMPFILE File=DAM$MAP.:E05TSI                             TUE 07/29/97 12:52 Page:134
      877     7704        %EJECT;
PL6.E3A0      #003=DAM$DUMPFILE File=DAM$MAP.:E05TSI                             TUE 07/29/97 12:52 Page:135
      878     7705    2           IF ADDR(FID)~=ADDR(NIL) THEN DO;
      879     7706    3              IF FID.L=0 OR FID.L=511 OR FID.L=510 THEN DO;
      880     7707    3                 FPT_OPEN.NAME_=VECTOR(NIL);
      881     7708    3                 FPT_OPEN.ACCT_=VECTOR(NIL);
      882     7709    3                 FPT_OPEN.SN_=VECTOR(NIL);
      883     7710    3                 FPT_OPEN.V.OPER.NXTF#='1'B;
      884     7711    3                 FPT_OPEN.V.OPER.THISF#='0'B;
      885     7712    3                 IF FID.L=511 THEN
      886     7713    3                    FPT_OPEN.V.SRCHCOND.REV#='1'B;
      887     7714    3                 ELSE
      888     7715    3                    IF FID.L=0 THEN
      889     7716    3                       FPT_OPEN.V.SRCHCOND.REV#='0'B;
      890     7717    4                    ELSE DO;
      891     7718    4                       FPT_OPEN.V.OPER.NXTF# = '0'B;
      892     7719    4                       FPT_OPEN.V.OPER.THISF# = '1'B;
      893     7720    4                       END;
      894     7721    3                 END;
      895     7722    3              ELSE DO;
      896     7723    3                 FPT_OPEN.NAME_=VECTOR(VLP_NAME);
      897     7724    3                 FPT_OPEN.ACCT_=VECTOR(VLP_ACCT);
      898     7725    3                 FPT_OPEN.SN_=VECTOR(VLP_SN);
      899     7726    3                 FPT_OPEN.V.OPER.NXTF#='0'B;
      900     7727    3                 FPT_OPEN.V.OPER.THISF#='1'B;
      901     7728    3                 FPT_OPEN.V.SRCHCOND.REV#='0'B;
      902     7729    3                 FPT_FID.TEXTFID_=VECTOR(FID.C);
      903     7730    3                 CALL M$FID(FPT_FID) ALTRET(PMMEALT);
      904     7731    3                 END;
      905     7732    2              END;
      906     7733    1           IF FPT_OPEN.V.ASN#~=%TAPE# AND FPT_OPEN.V.ASN#~=%FILE# THEN
      907     7734    1              CALL SETERR(%E$DA_BAD_DUMP_FID) ALTRET(ALT);
      908     7735        /*E*    ERROR:   DAM-E$DA_BAD_DUMP_FID
      909     7736                MESSAGE: Dump files must be keyed files residing on either disk
      910     7737                         or labeled tape.
      911     7738                                                                           */
      912     7739    1           DA_INITIALIZED='0'B;
      913     7740    1           IF DCBADDR(DCBNUM(M$DUMPFILE))->F$DCB.FCD# THEN
      914     7741    1              CALL M$CLOSE(FPT_CLOSE) ALTRET(PMMEALT);
PL6.E3A0      #003=DAM$DUMPFILE File=DAM$MAP.:E05TSI                             TUE 07/29/97 12:52 Page:136
      915     7742    2   OPEN2:  CALL M$OPEN(FPT_OPEN) WHENALTRETURN DO;
      916     7743    3              IF B$TCB$->B$TCB.ALT$->B$ALT.ERR.ERR# = %E$FILEBUSY THEN DO;
      917     7744    3                 REMEMBER RENVALT IN DA_TRTN;
      918     7745    3                 CALL M$SENV;
      919     7746    3                 CALL SETERR (%E$DA_DUMPBUSY);
      920     7747        /*E* ERROR: DAM-E$DA_DUMPBUSY
      921     7748          MESSAGE: Dump file busy, waiting...
      922     7749        */
      923     7750    3                 IF ENTADDR(DAA$ERRMSG) ~= ENTADDR(NIL) THEN
      924     7751    3                    CALL DAA$ERRMSG;
      925     7752    3                 CALL M$WAIT (WAIT4DUMP);
      926     7753    3                 CALL M$RENV;
      927     7754    3                 CALL M$RETRY;
      928     7755    3   RENVALT:      CALL M$RENV;
      929     7756    3                 ALTRETURN;
      930     7757    3                 END;
      931     7758    2              IF B$TCB$->B$TCB.ALT$->B$ALT.ERR.ERR# ~= %E$NOFILE OR NOT DA_SYSTAC2 THEN
              7758                       GOTO PMMEALT;
      932     7759    3              IF SUBSTR(VLP_ACCT.ACCT#,7,1)='2' THEN DO;
      933     7760    3                 SUBSTR(VLP_ACCT.ACCT#,7,1)=' ';
      934     7761    3                 DA_SYSTAC2 = '0'B;
      935     7762    2                 END; ELSE SUBSTR(VLP_ACCT.ACCT#,7,1)='2';
      936     7763    2              GOTO OPEN2;
      937     7764    2              END;
      938     7765    2           DO I=0 TO 7;
      939     7766    2              DA_SDASN.DESC(I)='0'B;
      940     7767    2              DA_SDASN.CVM(I)='0'B;
      941     7768    2              DA_SDASN.SYSID(I)=0;
      942     7769    2              END;
      943     7770    2           DO I=DA_MSCPG1 TO 255;
      944     7771    3              IF DA_WINDOW(I)~='000000777000'O THEN DO;
      945     7772    4                 IF DA_DUMPFILE THEN DO;
      946     7773    4                    FPT_FVP.V.PNO#=I;
      947     7774    4                    CALL M$FVP(FPT_FVP) ALTRET(BADCVM);
      948     7775    4                    END;
      949     7776    4                 ELSE DO;
      950     7777    4                    FPT_CVM.V.VPNO#=I;
PL6.E3A0      #003=DAM$DUMPFILE File=DAM$MAP.:E05TSI                             TUE 07/29/97 12:52 Page:137
      951     7778    4                    CALL M$CVM(FPT_CVM) ALTRET(BADCVM);
      952     7779    4                    END;
      953     7780    3   BADCVM:       DA_WINDOW(I)='000000777000'O;
      954     7781    3                 END;
      955     7782    2              END;
      956     7783    1           DA_DUMPFILE='1'B;
      957     7784    2           IF DA_MAPSEG.BOUND<%(3*1024*4-1) THEN DO;
      958     7785    2              FPT_GDS_MAP.V.SEGSIZE#=(%(3*1024*4)-DA_MAPSEG.BOUND)/4;
      959     7786    2              CALL M$GDS(FPT_GDS_MAP) ALTRET(PMMEALT);
      960     7787    2              END;
      961     7788    1           DS$=DA_MAPSEG.P$;
      962     7789    1           DFKEY='007'O;
      963     7790    1           FPT_READ.BUF_=VECTOR(DS$->NODEDIR);
      964     7791    2           CALL M$READ(FPT_READ) WHENALTRETURN DO;
      965     7792    2              CALL SETERR(%E$DA_NOT_DUMPFILE);
      966     7793        /*E*       ERROR:   DAM-E$DA_NOT_DUMPFILE
      967     7794                   MESSAGE: %UF is not a dump file.  It has no node directory.
      968     7795        */
      969     7796    2              ALTRETURN;
      970     7797    2              END;
      971     7798    1           DA_NODEDIR$=DS$;
      972     7799    1           DS$=PINCRW(DS$,SIZEW(NODEDIR));
      973     7800    2   FINDHOST: DO;
      974     7801    3              DO I=1 TO NODEDIR.N;
      975     7802    4                 IF NODEDIR.NODE.NODENAME(I)='HOST' THEN DO;
      976     7803    4                    DA_NODEIDX=I;
      977     7804    4                    HOSTNODE=I;
      978     7805    4                    EXIT FINDHOST;
      979     7806    4                    END;
      980     7807    3                 END;
      981     7808    2              END;
      982     7809    2           DO WHILE(SUBSTR(NODEDIR.NODE.NODENAME(DA_NODEIDX),0,4)~='HOST'
      983     7810    2             AND DA_NODEIDX<=NODEDIR.N);
      984     7811    2              DA_NODEIDX=DA_NODEIDX+1;
      985     7812    2              END;
      986     7813    1           DFKEY.K.NODEIDX=DA_NODEIDX;
      987     7814    1           DFKEY.K.TYP=%R_DINFO#;
PL6.E3A0      #003=DAM$DUMPFILE File=DAM$MAP.:E05TSI                             TUE 07/29/97 12:52 Page:138
      988     7815    1           DFKEY.K.STYP=%R_BUFF#;
      989     7816    1           DFKEY.K.USR#=0;
      990     7817    1           DFKEY.K.VP#=0;
      991     7818    1           FPT_READ.BUF_=VECTOR(DS$->PAGE);
      992     7819    1           CALL M$READ(FPT_READ) ALTRET(PMMEALT);
      993     7820    1           DA_RVBUF$=DS$;
      994     7821    1           DS$=PINCRW(DS$,1024);
      995     7822    1           DFKEY.K.STYP=%R_USRD#;
      996     7823    1           FPT_READ.BUF_=VECTOR(DS$->PAGE);
      997     7824    1           CALL M$READ(FPT_READ) ALTRET(UDERR);
      998     7825    1           DA_USERDIR$=DS$;
      999     7826    1           DA_MUAIS=RVBUFF.B_MUAIS;
     1000     7827    2           DO NEVER;
     1001     7828    2   UDERR:     DA_USERDIR$=ADDR(NIL);
     1002     7829    2              DA_MUAIS=0;
     1003     7830    2              CALL SETERR(%E$DA_NO_USERDIR);
     1004     7831        /*E*    ERROR: DAM-E$DA_NO_USERDIR
     1005     7832                MESSAGE: No user directory in this dump file
     1006     7833                                                                           */
     1007     7834    2              END;
     1008     7835    1           CALL DAM$USECPU(RVBUFF.S_PNO);
     1009     7836    1           CALL DAM$VPAGE(%(HJIT_BASE%/4096),0,0,%MONWSQ) ALTRET(ALT);
     1010     7837    1           LS$=PINCRW(B$IS$,DA_WINDOWBASE*1024);
     1011     7838    1           DA_SDASN.DESC(%TIGR#)=LS$->DESC(%(%BITBIN(%TIGRSID)-%BITBIN(%ISSID)));
     1012     7839    1           DA_SDASN.SYSID(%TIGR#)=0;
     1013     7840    1           TIGRPGS=(DA_SDASN.DESC.BOUND(%TIGR#)/4096)+1;
     1014     7841    1           SEGSIZE=TIGRPGS*4096;
     1015     7842    2           IF SEGSIZE-1>DA_TIGRSEG.BOUND THEN DO;
     1016     7843    2              FPT_GDS_TIGR.V.SEGSIZE#=(SEGSIZE-DA_TIGRSEG.BOUND)/4;
     1017     7844    2              CALL M$GDS(FPT_GDS_TIGR) ALTRET(PMMEALT);
     1018     7845    2              END;
     1019     7846    1           FPT_READ.BUF_=VECTOR(DA_TIGRSEG.P$->PAGE);
     1020     7847    1           DFKEY.K.TYP=%R_MWSQ#;
     1021     7848    1           DFKEY.K.STYP=%R_MCPU#;
     1022     7849    1           DFKEY.K.USR#=DA_CPU#;
     1023     7850    1           DFKEY.K.VP#=DA_SDASN.DESC.BASE(%TIGR#)/4096;
     1024     7851    1           J=0;
PL6.E3A0      #003=DAM$DUMPFILE File=DAM$MAP.:E05TSI                             TUE 07/29/97 12:52 Page:139
     1025     7852    2           DO I=0 TO TIGRPGS-1;
     1026     7853    2              CALL M$READ(FPT_READ) ALTRET(NXTTIGR);
     1027     7854    2              J=J+1;
     1028     7855    2   NXTTIGR:   FPT_READ.BUF_.BUF$=PINCRW(FPT_READ.BUF_.BUF$,1024);
     1029     7856    2              DFKEY.K.VP#=DFKEY.K.VP#+1;
     1030     7857    2              END;
     1031     7858    1           DA_SDASN.SID(%TIGR#)=DA_TIGRSEG.P.SID;
     1032     7859    2           IF J=0 THEN DO;
     1033     7860    2              FPT_GDS_TIGR.V.SEGSIZE#=%(256*1024-1);
     1034     7861    2              CALL M$FDS(FPT_GDS_TIGR);
     1035     7862    2              DA_TIGRSEG='0'B;
     1036     7863    2              B$USRT$=ADDR(NIL);
     1037     7864    2              DA_MUAIS=0;
     1038     7865    2              S$CU$=ADDR(NIL);
     1039     7866    2              DA_MAPERR=B$TCB$->B$TCB.ALT$->B$ALT.ERR;
     1040     7867    2              END;
     1041     7868    2           ELSE DO;
     1042     7869    2              FPT_GDS_TIGR.V.SEGSIZE#=(DA_TIGRSEG.BOUND+1-J*4096)/4;
     1043     7870    2              CALL M$FDS(FPT_GDS_TIGR) ALTRET(PMMEALT);
     1044     7871    2              B$USRT$=RVBUFF.B$USRT$;
     1045     7872    2              ADDR(B$USRT$)->P.SID=DA_SDASN.SID(%TIGR#);
     1046     7873    2              S$CU$=ADDR(B$USRT$->B$USER(RVBUFF.CUN));
     1047     7874    2              END;
     1048     7875    1           CALL M$GDDL(FPT_GDDL);
     1049     7876    1           DA_WINDOWMAX=DA_WINDOWBASE+VLR_GDDL.AVAIL_PGS#-%MINPGS;
     1050     7877    1           WINDOWMAX=B$JIT.DDUL-B$JIT.DLL;
     1051     7878    2           IF DA_WINDOWMAX - 32 < DA_WINDOWBASE THEN DO;
     1052     7879    2              CALL SETERR(%E$DA_NEED_MORE_MEM) ALTRET(ALT);
     1053     7880    2              END;
     1054     7881        /*E*    ERROR:   DAM-E$DA_NEED_MORE_MEM
     1055     7882                MESSAGE: Insufficient memory available to look at dump file.
     1056     7883               MESSAGE1: You must increase your resource memory to look at a dump file.
     1057     7884        */
     1058     7885    1           ELSE IF DA_WINDOWMAX>WINDOWMAX THEN DA_WINDOWMAX=WINDOWMAX;
     1059     7886    1           DA_NXTWINDOW=0;
     1060     7887    1           DA_NXTSPCL=0;
     1061     7888    1           DA_NUMSPCL=7;
PL6.E3A0      #003=DAM$DUMPFILE File=DAM$MAP.:E05TSI                             TUE 07/29/97 12:52 Page:140
     1062     7889    1           DA_WSPTD$=ADDR(NIL);
     1063     7890    1           ADDR(DA_TIGR$)->P=BINBIT(BITBIN(DA_SDASN.SID(%TIGR#)),36);
     1064     7891    1           DA_PSR=ADDR(RVBUFF.SSFRAME)->B$SS.PSR;
     1065     7892    1           DA_ASR=ADDR(RVBUFF.SSFRAME)->B$SS.ASR;
     1066     7893    1           DA_CURCG.CG$=RVBUFF.CURCG.CG$;
     1067     7894    1           DA_INITIALIZED='1'B;
     1068     7895    1           RETURN;
     1069     7896        %EJECT;
PL6.E3A0      #003=DAM$DUMPFILE File=DAM$MAP.:E05TSI                             TUE 07/29/97 12:52 Page:141
     1070     7897    1   DAM$INIT: ENTRY ALTRET;
     1071     7898    2           DO I=0 TO 255;
     1072     7899    2              DA_WINDOW(I)='000000777000'O;
     1073     7900    2              END;
     1074     7901    1           DA_WINDOWBASE=B$JIT.DDLL+B$JIT.PCDD-B$JIT.DLL-%MSCPG1#;
     1075     7902    1           DA_MSCPG1=DA_WINDOWBASE+%MSCPG1#;
     1076     7903    1           DA_MSCPG2=DA_WINDOWBASE+%MSCPG2#;
     1077     7904    1           DA_MSCPG3=DA_WINDOWBASE+%MSCPG3#;
     1078     7905    1           DA_MAPERR='0'B;
     1079     7906        %EJECT;
PL6.E3A0      #003=DAM$DUMPFILE File=DAM$MAP.:E05TSI                             TUE 07/29/97 12:52 Page:142
     1080     7907    1   DAM$RUNNING: ENTRY ALTRET;
     1081     7908    1           IF DA_INITIALIZED AND NOT DA_DUMPFILE THEN RETURN;
     1082     7909    1           DA_INITIALIZED='0'B;
     1083     7910    1           IF DCBADDR(DCBNUM(M$DUMPFILE))->F$DCB.FCD# THEN
     1084     7911    2              CALL M$CLOSE(FPT_CLOSE) WHENALTRETURN DO; END;
     1085     7912    2           DO I=0 TO 7;
     1086     7913    2              DA_SDASN.DESC(I)='0'B;
     1087     7914    2              DA_SDASN.CVM(I)='0'B;
     1088     7915    2              DA_SDASN.SYSID(I)=0;
     1089     7916    2              END;
     1090     7917    2           IF DA_MAPSEG~='0'B THEN DO;
     1091     7918    2              FPT_GDS_MAP.V.SEGSIZE#=(DA_MAPSEG.BOUND+1)/4;
     1092     7919    2              CALL M$FDS(FPT_GDS_MAP) ALTRET(PMMEALT);
     1093     7920    2              DA_MAPSEG='0'B;
     1094     7921    2              END;
     1095     7922    2           IF DA_TIGRSEG~='0'B THEN DO;
     1096     7923    2              FPT_GDS_TIGR.V.SEGSIZE#=(DA_TIGRSEG.BOUND+1)/4;
     1097     7924    2              CALL M$FDS(FPT_GDS_TIGR) ALTRET(PMMEALT);
     1098     7925    2              DA_TIGRSEG='0'B;
     1099     7926    2              END;
     1100     7927    1           CALL M$MONINFO(FPT_MONINFO) ALTRET(PMMEALT);
     1101     7928    1           DA_MUAIS=MNINFO.MUAIS#;
     1102     7929    1           DA_CPU = VLR_SITEINFO.CPU_TYPE#;
     1103     7930    1           B$USRT$=MNPTRS.B$USRT$;
     1104     7931    1           ADDR(B$USRT$)->P.SID=%SPCL8SID;
     1105     7932    1           S$CU$=ADDR(B$USRT$->B$USER(B$JIT.USER));
     1106     7933    1           DA_WINDOWMAX=B$JIT.DDUL-B$JIT.DLL;
     1107     7934    2           IF DA_DUMPFILE THEN DO I=DA_MSCPG1 TO 255;
     1108     7935    3              IF DA_WINDOW(I)~='000000777000'O THEN DO;
     1109     7936    3                 FPT_FVP.V.PNO#=I;
     1110     7937    3                 CALL M$FVP(FPT_FVP) ALTRET(NXTPG);
     1111     7938    3   NXTPG:        DA_WINDOW(I)='000000777000'O;
     1112     7939    3                 END;
     1113     7940    2              END;
     1114     7941    1           DA_DUMPFILE='0'B;
     1115     7942    1           DA_NXTWINDOW=0;
     1116     7943    1           DA_NXTSPCL=0;
PL6.E3A0      #003=DAM$DUMPFILE File=DAM$MAP.:E05TSI                             TUE 07/29/97 12:52 Page:143
     1117     7944    1           DA_RVBUF$=ADDR(NIL);
     1118     7945    1           DA_USERDIR$=ADDR(NIL);
     1119     7946    1           DA_NUMSPCL=6;
     1120     7947    1           IF DA_CPU=%DPS90 OR DA_CPU=%DPS90XA THEN DA_NUMSPCL=5;
     1121     7948    1           FPT_SAD.V.USERSID#=DA_SDASN.SID(%MONIS#);
     1122     7949    1           FPT_SAD.V.MONSID#=%ISSID;
     1123     7950    1           CALL M$SAD(FPT_SAD) ALTRET(PMMEALT);
     1124     7951    1           DA_SDASN.SID(%TIGR#)=%SPCL8SID;
     1125     7952    1           FPT_SAD.V.USERSID#=DA_SDASN.SID(%TIGR#);
     1126     7953    1           FPT_SAD.V.MONSID#=%TIGRSID;
     1127     7954    1           CALL M$SAD(FPT_SAD) ALTRET(PMMEALT);
     1128     7955    1           ADDR(DA_WSPTD$)->P=BINBIT(BITBIN(DA_SDASN.SID(%MONIS#)),36);
     1129     7956    1           DA_MONPTP=S$WSPTD.BLKNO(%MONWSQ);
     1130     7957    1           CALL DAM$USECPU(0) ALTRET(ALT);
     1131     7958    1           CALL DAM$VPAGE(%(HJIT_BASE%/4096),0,0,%MONWSQ) ALTRET(ALT);
     1132     7959    1           LS$=PINCRW(B$IS$,DA_WINDOWBASE*1024);
     1133     7960    1           DA_SDASN.DESC(%MONIS#)=LS$->DESC(0);
     1134     7961    1           DA_SDASN.SYSID(%MONIS#)=0;
     1135     7962    1           DA_SDASN.DESC(%TIGR#)=LS$->DESC(%(%BITBIN(%TIGRSID)-%BITBIN(%ISSID)));
     1136     7963    1           DA_SDASN.SYSID(%TIGR#)=0;
     1137     7964    1           ADDR(DA_TIGR$)->P=BINBIT(BITBIN(DA_SDASN.SID(%TIGR#)),36);
     1138     7965                                  /* INITIALIZE ASR AND PSR TO SOMETHING
     1139     7966                                     ENTIRELY UNREASONABLE                 */
     1140     7967    1           DA_PSR=B$TCB$->B$TCB.ALT$->B$SS.ASR;
     1141     7968    1           DA_ASR=B$TCB$->B$TCB.ALT$->B$SS.ASR;
     1142     7969    1           DA_CURCG.CG$=ADDR(NIL);
     1143     7970    1           DA_INITIALIZED='1'B;
     1144     7971    1           RETURN;
     1145     7972    1   PMMEALT: ;
     1146     7973    1           DA_MAPERR=B$TCB$->B$TCB.ALT$->B$ALT.ERR;
     1147     7974    1   ALT:    ALTRETURN;
     1148     7975        /**/
     1149     7976        %EJECT;
PL6.E3A0      #003=DAM$DUMPFILE File=DAM$MAP.:E05TSI                             TUE 07/29/97 12:52 Page:144
     1150     7977        /**/
     1151     7978    1   DAM$SELECT: ENTRY(FID) ALTRET;
     1152     7979        /**/
     1153     7980    1           DA_NODEIDX=HOSTNODE;
     1154     7981    1           RETURN;
     1155     7982        /**/
     1156     7983        /**/
     1157     7984        /**/
     1158     7985        %EJECT;
PL6.E3A0      #003=DAM$DUMPFILE File=DAM$MAP.:E05TSI                             TUE 07/29/97 12:52 Page:145
     1159     7986    1   SETERR: PROC(CODE) ALTRET;
     1160     7987    2   DCL CODE SBIN;
     1161     7988    2           DA_MAPERR='040115000000'O;
     1162     7989    2           DA_MAPERR.CODE=CODE;
     1163     7990    2           ALTRETURN;
     1164     7991    2   END SETERR;
     1165     7992    1   END DAM$DUMPFILE;
     1166     7993        %EOD;

PL6.E3A0      #003=DAM$DUMPFILE File=DAM$MAP.:E05TSI                             TUE 07/29/97 12:52 Page:146
--  Include file information  --

   B$SS.:E05TOU  cannot be made into a system file and is referenced.
   B$JIT.:E05TOU  cannot be made into a system file and is referenced.
   B$USER.:E05TOU  cannot be made into a system file and is referenced.
   IR_DATA_M.:E05TOU  is referenced.
   CP_6_SUBS.:E05TOU  is referenced.
   NI$TABLES.:E05TOU  is referenced.
   B_ERRORS_C.:E05TOU  is referenced.
   B_SEGIDS_C.:E05TOU  is referenced.
   B_STRINGS_C.:E05TOU  is referenced.
   B_MLSMAC_C.:E05TOU  is referenced.
   B_ULSMAC_C.:E05TOU  is referenced.
   B_LSDATA_C.:E05TOU  cannot be made into a system file and is referenced.
   M_INFO_C.:E05TOU  is referenced.
   CP_6.:E05TOU  cannot be made into a system file and is referenced.
   DA_TEXTC_C.:E05TOU  is referenced.
   DA_PERR_C.:E05TOU  is referenced.
   DA_ANLZ_R.:E05TOU  cannot be made into a system file and is referenced.
   DA_MAP_R.:E05TOU  cannot be made into a system file and is referenced.
   B$JIT_C.:E05TOU  was found in the system file and is referenced.
   CP_6_C.:E05TOU  was found in the system file and is referenced.
      No diagnostics issued in procedure DAM$DUMPFILE.

   Procedure DAM$DUMPFILE requires 733 words for executable code.
   Procedure DAM$DUMPFILE requires 18 words of local(AUTO) storage.

PL6.E3A0      #003=DAM$DUMPFILE File=DAM$MAP.:E05TSI                             TUE 07/29/97 12:52 Page:147

 Object Unit name= DAM$DUMPFILE                               File name= DAM$MAP.:E05TOU
 UTS= JUL 29 '97 12:52:15.72 TUE                              Compiler= PL-6/E31         Sev=      00
 SharedLib= :SHARED_SYSTEM                                    Alt SharedLib=


    ****  Control sections  ****

 Sect   Type Bound  Init  Size OctSiz  Section name(segment info)
    0   DCB   even  none     0      0  M$UC
    1   DCB   even  none     0      0  M$DUMPFILE
    2   Data  even  none   295    447  DAM$DUMPFILE
    3  RoData even  UTS      3      3  DAM$DUMPFILE
    4   Proc  even  none   733   1335  DAM$DUMPFILE
    5  RoData even  none    31     37  DAM$DUMPFILE

    ****  Entry defs  ****

                              Check   Calling
                             calling  sequence
  Sect OctLoc Primary Altret sequence   type   Parms  Name
     4      0   yes    yes     yes      Std        1  DAM$DUMPFILE
     4    742          yes     yes      Std        0  DAM$INIT
     4   1005          yes     yes      Std        0  DAM$RUNNING
     4   1316          yes     yes      Std        1  DAM$SELECT
PL6.E3A0      #003=DAM$DUMPFILE File=DAM$MAP.:E05TSI                             TUE 07/29/97 12:52 Page:148

  ****  Entry refs  ****

         Check        Calling
        calling       sequence
Altret sequence SRef   type   Args  Name
         yes          ~proc      0 DA_MAP_D
 yes     yes           Std       5 DAM$VPAGE
         yes    yes    Std       1 DAA$ERRMSG
 yes     yes           Std       1 DAM$USECPU
                       nStd      0 X66_AUTO_1
                       Std       0 B_CONSPOOL_D
                       nStd      0 X66_AALT
                       nStd      0 X66_ARET

  ****  Data refs  ****

  Flags:  r = read only, s = secondary
Flgs Name                             Flgs Name                             Flgs Name
     DA_WINDOW                             DA_SDASN                              DA_MUAIS
     DA_CPU                                DA_WINDOWBASE                         DA_WINDOWMAX
     DA_NXTWINDOW                          DA_DUMPFILE                           DA_SYSTAC2
     DA_INITIALIZED                        DA_CPU#                               DA_NODEIDX
     DA_MONPTP                             DA_NODEDIR$                           DA_RVBUF$
     DA_WSPTD$                             DA_TIGR$                              DA_USERDIR$
     DA_MSCPG1                             DA_MSCPG2                             DA_MSCPG3
     DA_MAPERR                             DA_NXTSPCL                            DA_NUMSPCL
     DA_MAPSEG                             DA_TIGRSEG                            DA_PSR
     DA_ASR                                DA_CURCG                              DA_TRTN
     M$UC                                  S$CU$                                 B$USRT$
     M$DUMPFILE                            B$IS$                                 B$JIT$
     B$TCB$                                B_VECTNIL
PL6.E3A0      #003=DAM$DUMPFILE File=DAM$MAP.:E05TSI                             TUE 07/29/97 12:52 Page:149

  ****  Segment refs  ****

  Flags:  r = read only, s = secondary
Flgs Name                             Flgs Name                             Flgs Name
     ISSID                                 NULLSID                               ROSID
PL6.E3A0      #003=DAM$DUMPFILE File=DAM$MAP.:E05TSI                             TUE 07/29/97 12:52 Page:150


      755        1        /*T***********************************************************/
      756        2        /*T*                                                         */
      757        3        /*T* Copyright (c) Bull HN Information Systems Inc., 1997    */
      758        4        /*T*                                                         */
      759        5        /*T***********************************************************/
      760        6        DAM$DUMPFILE: PROC(FID) ALTRET;

      6  4 000000   000000 700200 xent  DAM$DUMPFILE TSX0  ! X66_AUTO_1
         4 000001   000022 000001                    ZERO    18,1

      761        7        /**/
      762        8        /* PARAMETERS */
      763        9        /**/
      764       10    1   DCL 1 FID,
      765       11    1         2 L UBIN BYTE UNAL,
      766       12    1         2 C CHAR(FID.L);
      767       13        /**/
      768       14        /* EXTERNAL PROCEDURES */
      769       15        /**/
      770       16    1   DCL DAM$VPAGE ENTRY(5) ALTRET;
      771       17    1   DCL DAM$USECPU ENTRY(1) ALTRET;
      772       18    1   DCL DAA$ERRMSG ENTRY(1) OPTIONAL;
      773       19    1   DCL DA_MAP_D ENTRY CONV(5);
      774       20        /* AUTO DATA */
      775       21        /**/
      776       22    1   DCL I SBIN;
      777       23    1   DCL J SBIN;
      778       24    1   DCL DS$ PTR;
      779       25    1   DCL LS$ PTR;
      780       26    1   DCL TIGRPGS SBIN;
      781       27    1   DCL SEGSIZE SBIN;
      782       28    1   DCL WINDOWMAX SBIN;
      783       29        /**/
      784       30        /* INCLUDE FILES */
      785       31        /**/
      786       32        %INCLUDE DA_MAP_R;
PL6.E3A0      #003=DAM$DUMPFILE File=DAM$MAP.:E05TSI                             TUE 07/29/97 12:52 Page:151
      787       62        %INCLUDE DA_ANLZ_R;
      788       75        %INCLUDE DA_PERR_C;
      789      139        %INCLUDE DA_TEXTC_C;
      790      170        %INCLUDE CP_6;
      791      251        %INCLUDE M_INFO_C;
      792      391        %INCLUDE B_LSDATA_C;
      793     3597        %INCLUDE B_STRINGS_C;
      794     3726        %INCLUDE B_SEGIDS_C;
      795     4265        %INCLUDE B_ERRORS_C;
      796     5392        %INCLUDE NI$TABLES;
      797     5608        %INCLUDE CP_6_SUBS;
      798     6148        %INCLUDE IR_DATA_M;
      799     6312        %RV_DFSUBS;
      800     6339        %INCLUDE B$USER;
      801     6555        %B$USERREFS;
      802     6559        %INCLUDE B$JIT;
      803     6849        %INCLUDE B$SS;
      804     7028        /**/
      805     7029        /* STATIC AND BASED DATA */
      806     7030        /**/
      807     7031    1   DCL M$DUMPFILE DCB;
      808     7032        %FPT_OPEN (DCB=M$DUMPFILE,
      809     7033                   FUN=IN,
      810     7034                   NAME=VLP_NAME,
      811     7035                   ACCT=VLP_ACCT,
      812     7036                   SN=VLP_SN,
      813     7037                   PASS=VLP_PASS,
      814     7038                   WSN=VLP_WSN);
      815     7147        %VLP_NAME;
      816     7174        %VLP_ACCT;
      817     7187        %VLP_SN;
      818     7200        %VLP_ACCT (FPTN=VLP_PASS);
      819     7213        %VLP_ACCT (FPTN=VLP_WSN);
      820     7226        %FPT_CLOSE (DCB=M$DUMPFILE,DISP=SAVE);
      821     7268        %FPT_FID (ACCT=VLP_ACCT,
      822     7269                  ASN="FPT_OPEN.V.ASN#",
      823     7270                  NAME=VLP_NAME,
PL6.E3A0      #003=DAM$DUMPFILE File=DAM$MAP.:E05TSI                             TUE 07/29/97 12:52 Page:152
      824     7271                  PASS=VLP_PASS,
      825     7272                  RES="FPT_OPEN.V.RES#",
      826     7273                  SN=VLP_SN,
      827     7274                  WSN=VLP_WSN);
      828     7297        %F$DCB;
      829     7354        %B$TCB;
      830     7357        %B$ALT;
      831     7365        %FPT_CVM (PPNO=-1);
      832     7381    1   DCL B$IS$ PTR SYMREF;
      833     7382    1   DCL DESC(0:0) BIT(72) ALIGNED BASED;
      834     7383        %RV_DFKEY (NAME=DFKEY,STCLASS=STATIC);
      835     7401        %FPT_READ (DCB=M$DUMPFILE,
      836     7402                   KEY=DFKEY,
      837     7403                   KEYS=YES);
      838     7442        %FPT_GDS (FPTN=FPT_GDS_MAP,RESULTS=DA_MAPSEG);
      839     7458        %FPT_GDS (FPTN=FPT_GDS_TIGR,RESULTS=DA_TIGRSEG);
      840     7474        %FPT_FVP;
      841     7488        %FPT_STD;
      842     7503        %FPT_SAD;
      843     7518        %FPT_WAIT (FPTN=WAIT4DUMP, UNITS=30);
      844     7532        %FPT_MONINFO (MONINFO=MNINFO,
      845     7533                      SITEINFO=VLR_SITEINFO,
      846     7534                      MONPTRS=MNPTRS);
      847     7549        %VLR_MONINFO (FPTN=MNINFO);
      848     7567        %VLR_MONPTRS (FPTN=MNPTRS);
      849     7582        %VLR_SITEINFO;
      850     7601        %FPT_GDDL (RESULTS=VLR_GDDL);
      851     7614        %VLP_GDDL (FPTN=VLR_GDDL);
      852     7628        %RV_NODEDIR (FPTN=NODEDIR,N=10,STCLASS="BASED(DA_NODEDIR$)");
      853     7645    1   DCL HOSTNODE UBIN STATIC;
      854     7646        %RV_BUFF (NAME=RVBUFF,STCLASS="BASED(DA_RVBUF$)");
      855     7682    1   DCL 1 P BASED ALIGNED,
      856     7683    1         2 PA UBIN(8) UNAL,
      857     7684    1         2 WA UBIN(10) UNAL,
      858     7685    1         2 CA UBIN(2) UNAL,
      859     7686    1         2 BA UBIN(4) UNAL,
      860     7687    1         2 SID,
PL6.E3A0      #003=DAM$DUMPFILE File=DAM$MAP.:E05TSI                             TUE 07/29/97 12:52 Page:153
      861     7688    1           3 S UBIN(2) UNAL,
      862     7689    1           3 D UBIN(10) UNAL;
      863     7690    1   DCL PAGE CHAR(4096) BASED;
      864     7691    1   DCL B$JIT$ PTR SYMREF;
      865     7692    1   DCL B$TCB$ PTR SYMREF;
      866     7693    1   DCL 1 S$WSPTD(0:0) ALIGNED BASED(DA_WSPTD$),
      867     7694    1         2 BLKNO UBIN(18) UNAL,
      868     7695    1         2 * BIT(2),
      869     7696    1         2 P BIT(1),
      870     7697    1         2 T BIT(1),
      871     7698    1         2 * BIT(6),
      872     7699    1         2 NBLKS UBIN(8) UNAL;
      873     7700        %SUB FOREVER="WHILE('1'B)";
      874     7701        %SUB NEVER="WHILE('0'B)";
      875     7702        %EQU MINPGS=20;          /* SAVE AT LEAST THIS MANY PAGES FOR DYNAMIC DATA */
      876     7703        %EJECT;
PL6.E3A0      #003=DAM$DUMPFILE File=DAM$MAP.:E05TSI                             TUE 07/29/97 12:52 Page:154
      877     7704        %EJECT;
PL6.E3A0      #003=DAM$DUMPFILE File=DAM$MAP.:E05TSI                             TUE 07/29/97 12:52 Page:155
      878     7705    2           IF ADDR(FID)~=ADDR(NIL) THEN DO;

   7705  4 000002   200003 236100                    LDQ     @FID,,AUTO
         4 000003   000001 116000 xsym               CMPQ    B_VECTNIL+1
         4 000004   000123 600000 4                  TZE     s:7733

      879     7706    3              IF FID.L=0 OR FID.L=511 OR FID.L=510 THEN DO;

   7706  4 000005   200003 470500                    LDP0    @FID,,AUTO
         4 000006   000100 101500                    MRL     fill='000'O
         4 000007   000000 000001                    ADSC9   0,,PR0                   cn=0,n=1
         4 000010   200016 000004                    ADSC9   @CODE+1,,AUTO            cn=0,n=4
         4 000011   200016 236100                    LDQ     @CODE+1,,AUTO
         4 000012   000000 116003                    CMPQ    0,DU
         4 000013   000030 600000 4                  TZE     s:7707
         4 000014   000100 101500                    MRL     fill='000'O
         4 000015   000000 000001                    ADSC9   0,,PR0                   cn=0,n=1
         4 000016   200017 000004                    ADSC9   @CODE+2,,AUTO            cn=0,n=4
         4 000017   200017 236100                    LDQ     @CODE+2,,AUTO
         4 000020   000777 116007                    CMPQ    511,DL
         4 000021   000030 600000 4                  TZE     s:7707
         4 000022   000100 101500                    MRL     fill='000'O
         4 000023   000000 000001                    ADSC9   0,,PR0                   cn=0,n=1
         4 000024   200020 000004                    ADSC9   @CODE+3,,AUTO            cn=0,n=4
         4 000025   200020 236100                    LDQ     @CODE+3,,AUTO
         4 000026   000776 116007                    CMPQ    510,DL
         4 000027   000071 601000 4                  TNZ     s:7723

      880     7707    3                 FPT_OPEN.NAME_=VECTOR(NIL);

   7707  4 000030   000000 237000 5                  LDAQ    0
         4 000031   000006 757000 2                  STAQ    FPT_OPEN+6

      881     7708    3                 FPT_OPEN.ACCT_=VECTOR(NIL);

   7708  4 000032   000000 237000 5                  LDAQ    0
         4 000033   000024 757000 2                  STAQ    FPT_OPEN+20
PL6.E3A0      #003=DAM$DUMPFILE File=DAM$MAP.:E05TSI                             TUE 07/29/97 12:52 Page:156

      882     7709    3                 FPT_OPEN.SN_=VECTOR(NIL);

   7709  4 000034   000000 237000 5                  LDAQ    0
         4 000035   000002 757000 2                  STAQ    FPT_OPEN+2

      883     7710    3                 FPT_OPEN.V.OPER.NXTF#='1'B;

   7710  4 000036   004000 236007                    LDQ     2048,DL
         4 000037   000044 256000 2                  ORSQ    FPT_OPEN+36

      884     7711    3                 FPT_OPEN.V.OPER.THISF#='0'B;

   7711  4 000040   000002 236000 5                  LDQ     2
         4 000041   000044 356000 2                  ANSQ    FPT_OPEN+36

      885     7712    3                 IF FID.L=511 THEN

   7712  4 000042   000100 101500                    MRL     fill='000'O
         4 000043   000000 000001                    ADSC9   0,,PR0                   cn=0,n=1
         4 000044   200016 000004                    ADSC9   @CODE+1,,AUTO            cn=0,n=4
         4 000045   200016 236100                    LDQ     @CODE+1,,AUTO
         4 000046   000777 116007                    CMPQ    511,DL
         4 000047   000053 601000 4                  TNZ     s:7715

      886     7713    3                    FPT_OPEN.V.SRCHCOND.REV#='1'B;

   7713  4 000050   000001 236003                    LDQ     1,DU
         4 000051   000045 256000 2                  ORSQ    FPT_OPEN+37
         4 000052   000123 710000 4                  TRA     s:7733

      887     7714    3                 ELSE
      888     7715    3                    IF FID.L=0 THEN

   7715  4 000053   000100 101500                    MRL     fill='000'O
         4 000054   000000 000001                    ADSC9   0,,PR0                   cn=0,n=1
         4 000055   200016 000004                    ADSC9   @CODE+1,,AUTO            cn=0,n=4
PL6.E3A0      #003=DAM$DUMPFILE File=DAM$MAP.:E05TSI                             TUE 07/29/97 12:52 Page:157
         4 000056   200016 236100                    LDQ     @CODE+1,,AUTO
         4 000057   000000 116003                    CMPQ    0,DU
         4 000060   000064 601000 4                  TNZ     s:7718

      889     7716    3                       FPT_OPEN.V.SRCHCOND.REV#='0'B;

   7716  4 000061   000003 236000 5                  LDQ     3
         4 000062   000045 356000 2                  ANSQ    FPT_OPEN+37
         4 000063   000123 710000 4                  TRA     s:7733

      890     7717    4                    ELSE DO;

      891     7718    4                       FPT_OPEN.V.OPER.NXTF# = '0'B;

   7718  4 000064   000004 236000 5                  LDQ     4
         4 000065   000044 356000 2                  ANSQ    FPT_OPEN+36

      892     7719    4                       FPT_OPEN.V.OPER.THISF# = '1'B;

   7719  4 000066   002000 236007                    LDQ     1024,DL
         4 000067   000044 256000 2                  ORSQ    FPT_OPEN+36

      893     7720    4                       END;

      894     7721    3                 END;

   7721  4 000070   000123 710000 4                  TRA     s:7733

      895     7722    3              ELSE DO;

      896     7723    3                 FPT_OPEN.NAME_=VECTOR(VLP_NAME);

   7723  4 000071   000006 237000 5                  LDAQ    6
         4 000072   000006 757000 2                  STAQ    FPT_OPEN+6

      897     7724    3                 FPT_OPEN.ACCT_=VECTOR(VLP_ACCT);

PL6.E3A0      #003=DAM$DUMPFILE File=DAM$MAP.:E05TSI                             TUE 07/29/97 12:52 Page:158
   7724  4 000073   000010 237000 5                  LDAQ    8
         4 000074   000024 757000 2                  STAQ    FPT_OPEN+20

      898     7725    3                 FPT_OPEN.SN_=VECTOR(VLP_SN);

   7725  4 000075   000012 237000 5                  LDAQ    10
         4 000076   000002 757000 2                  STAQ    FPT_OPEN+2

      899     7726    3                 FPT_OPEN.V.OPER.NXTF#='0'B;

   7726  4 000077   000004 236000 5                  LDQ     4
         4 000100   000044 356000 2                  ANSQ    FPT_OPEN+36

      900     7727    3                 FPT_OPEN.V.OPER.THISF#='1'B;

   7727  4 000101   002000 236007                    LDQ     1024,DL
         4 000102   000044 256000 2                  ORSQ    FPT_OPEN+36

      901     7728    3                 FPT_OPEN.V.SRCHCOND.REV#='0'B;

   7728  4 000103   000003 236000 5                  LDQ     3
         4 000104   000045 356000 2                  ANSQ    FPT_OPEN+37

      902     7729    3                 FPT_FID.TEXTFID_=VECTOR(FID.C);

   7729  4 000105   000100 101500                    MRL     fill='000'O
         4 000106   000000 000001                    ADSC9   0,,PR0                   cn=0,n=1
         4 000107   200016 000002                    ADSC9   @CODE+1,,AUTO            cn=0,n=2
         4 000110   200016 220100                    LDX0    @CODE+1,,AUTO
         4 000111   000000 635010                    EAA     0,X0
         4 000112   000002 771000                    ARL     2
         4 000113   000140 135007                    SBLA    96,DL
         4 000114   200003 236100                    LDQ     @FID,,AUTO
         4 000115   200000 036007                    ADLQ    65536,DL
         4 000116   000154 757000 2                  STAQ    FPT_FID+2

      903     7730    3                 CALL M$FID(FPT_FID) ALTRET(PMMEALT);
PL6.E3A0      #003=DAM$DUMPFILE File=DAM$MAP.:E05TSI                             TUE 07/29/97 12:52 Page:159

   7730  4 000117   000152 630400 2                  EPPR0   FPT_FID
         4 000120   420001 713400                    CLIMB   alt,+8193
         4 000121   404400 401760                    pmme    nvectors=10
         4 000122   001311 702000 4                  TSX2    PMMEALT

      904     7731    3                 END;

      905     7732    2              END;

      906     7733    1           IF FPT_OPEN.V.ASN#~=%TAPE# AND FPT_OPEN.V.ASN#~=%FILE# THEN

   7733  4 000123   000045 236000 2                  LDQ     FPT_OPEN+37
         4 000124   000777 376007                    ANQ     511,DL
         4 000125   000002 116007                    CMPQ    2,DL
         4 000126   000135 600000 4                  TZE     s:7739
         4 000127   000001 116007                    CMPQ    1,DL
         4 000130   000135 600000 4                  TZE     s:7739

      907     7734    1              CALL SETERR(%E$DA_BAD_DUMP_FID) ALTRET(ALT);

   7734  4 000131   000014 236000 5                  LDQ     12
         4 000132   200015 756100                    STQ     WINDOWMAX+3,,AUTO
         4 000133   001323 701000 4                  TSX1    SETERR
         4 000134   001315 702000 4                  TSX2    ALT

      908     7735        /*E*    ERROR:   DAM-E$DA_BAD_DUMP_FID
      909     7736                MESSAGE: Dump files must be keyed files residing on either disk
      910     7737                         or labeled tape.
      911     7738                                                                           */
      912     7739    1           DA_INITIALIZED='0'B;

   7739  4 000135   000000 450000 xsym               STZ     DA_INITIALIZED

      913     7740    1           IF DCBADDR(DCBNUM(M$DUMPFILE))->F$DCB.FCD# THEN

   7740  4 000136   000000 236007 xsym               LDQ     M$DUMPFILE,DL
PL6.E3A0      #003=DAM$DUMPFILE File=DAM$MAP.:E05TSI                             TUE 07/29/97 12:52 Page:160
         4 000137   000015 470400 5                  LDP0    13
         4 000140   000000 471500                    LDP1    0,,PR0
         4 000141   100000 473506                    LDP3    0,QL,PR1
         4 000142   300031 236100                    LDQ     25,,PR3
         4 000143   020000 316007                    CANQ    8192,DL
         4 000144   000151 600000 4                  TZE     OPEN2

      914     7741    1              CALL M$CLOSE(FPT_CLOSE) ALTRET(PMMEALT);

   7741  4 000145   000114 630400 2                  EPPR0   FPT_CLOSE
         4 000146   450001 713400                    CLIMB   alt,close
         4 000147   406000 401760                    pmme    nvectors=13
         4 000150   001311 702000 4                  TSX2    PMMEALT

      915     7742    2   OPEN2:  CALL M$OPEN(FPT_OPEN) WHENALTRETURN DO;

   7742  4 000151   000000 630400 2     OPEN2        EPPR0   FPT_OPEN
         4 000152   450000 713400                    CLIMB   alt,open
         4 000153   410400 401760                    pmme    nvectors=18
         4 000154   000156 702000 4                  TSX2    s:7743
         4 000155   000234 710000 4                  TRA     s:7765

      916     7743    3              IF B$TCB$->B$TCB.ALT$->B$ALT.ERR.ERR# = %E$FILEBUSY THEN DO;

   7743  4 000156   000000 470400 xsym               LDP0    B$TCB$
         4 000157   000000 471500                    LDP1    0,,PR0
         4 000160   100102 236100                    LDQ     66,,PR1
         4 000161   377770 376007                    ANQ     131064,DL
         4 000162   001550 116007                    CMPQ    872,DL
         4 000163   000215 601000 4                  TNZ     s:7758

      917     7744    3                 REMEMBER RENVALT IN DA_TRTN;

   7744  4 000164   000212 635000 4                  EAA     RENVALT
         4 000165   000000 452400 xsym               STP2    DA_TRTN
         4 000166   000001 755000 xsym               STA     DA_TRTN+1

PL6.E3A0      #003=DAM$DUMPFILE File=DAM$MAP.:E05TSI                             TUE 07/29/97 12:52 Page:161
      918     7745    3                 CALL M$SENV;

   7745  4 000167   010011 713400                    CLIMB   4105
         4 000170   000000 401760                    pmme    nvectors=0

      919     7746    3                 CALL SETERR (%E$DA_DUMPBUSY);

   7746  4 000171   000017 236000 5                  LDQ     15
         4 000172   200015 756100                    STQ     WINDOWMAX+3,,AUTO
         4 000173   001323 701000 4                  TSX1    SETERR
         4 000174   000000 011000                    NOP     0

      920     7747        /*E* ERROR: DAM-E$DA_DUMPBUSY
      921     7748          MESSAGE: Dump file busy, waiting...
      922     7749        */
      923     7750    3                 IF ENTADDR(DAA$ERRMSG) ~= ENTADDR(NIL) THEN

   7750  4 000175   000000 636000 xent               EAQ     DAA$ERRMSG
         4 000176   000002 116000 xsym               CMPQ    B_VECTNIL+2
         4 000177   000203 600000 4                  TZE     s:7752

      924     7751    3                    CALL DAA$ERRMSG;

   7751  4 000200   000002 631400 xsym               EPPR1   B_VECTNIL+2
         4 000201   000000 701000 xent               TSX1    DAA$ERRMSG
         4 000202   000000 011000                    NOP     0

      925     7752    3                 CALL M$WAIT (WAIT4DUMP);

   7752  4 000203   000262 630400 2                  EPPR0   WAIT4DUMP
         4 000204   020006 713400                    CLIMB   8198
         4 000205   400400 401760                    pmme    nvectors=2

      926     7753    3                 CALL M$RENV;

   7753  4 000206   010016 713400                    CLIMB   4110
         4 000207   000000 401760                    pmme    nvectors=0
PL6.E3A0      #003=DAM$DUMPFILE File=DAM$MAP.:E05TSI                             TUE 07/29/97 12:52 Page:162

      927     7754    3                 CALL M$RETRY;

   7754  4 000210   010010 713400                    CLIMB   4104
         4 000211   000000 401760                    pmme    nvectors=0

      928     7755    3   RENVALT:      CALL M$RENV;

   7755  4 000212   010016 713400       RENVALT      CLIMB   4110
         4 000213   000000 401760                    pmme    nvectors=0

      929     7756    3                 ALTRETURN;

   7756  4 000214   000000 702200 xent               TSX2  ! X66_AALT

      930     7757    3                 END;
      931     7758    2             IF B$TCB$->B$TCB.ALT$->B$ALT.ERR.ERR# ~= %E$NOFILE OR NOT DA_SYSTAC2 THEN
              7758                       GOTO PMMEALT;

   7758  4 000215   001610 116007                    CMPQ    904,DL
         4 000216   001311 601000 4                  TNZ     PMMEALT
         4 000217   000000 234000 xsym               SZN     DA_SYSTAC2
         4 000220   001311 605000 4                  TPL     PMMEALT

      932     7759    3              IF SUBSTR(VLP_ACCT.ACCT#,7,1)='2' THEN DO;

   7759  4 000221   000103 236000 2                  LDQ     VLP_ACCT+1
         4 000222   000777 376007                    ANQ     511,DL
         4 000223   000062 116007                    CMPQ    50,DL
         4 000224   000231 601000 4                  TNZ     s:7762+1

      933     7760    3                 SUBSTR(VLP_ACCT.ACCT#,7,1)=' ';

   7760  4 000225   000040 236007                    LDQ     32,DL
         4 000226   000103 552004 2                  STBQ    VLP_ACCT+1,'04'O

      934     7761    3                 DA_SYSTAC2 = '0'B;
PL6.E3A0      #003=DAM$DUMPFILE File=DAM$MAP.:E05TSI                             TUE 07/29/97 12:52 Page:163

   7761  4 000227   000000 450000 xsym               STZ     DA_SYSTAC2

      935     7762    2                 END; ELSE SUBSTR(VLP_ACCT.ACCT#,7,1)='2';

   7762  4 000230   000233 710000 4                  TRA     s:7763

   7762  4 000231   000062 236007                    LDQ     50,DL
         4 000232   000103 552004 2                  STBQ    VLP_ACCT+1,'04'O

      936     7763    2              GOTO OPEN2;

   7763  4 000233   000151 710000 4                  TRA     OPEN2

      937     7764    2              END;
      938     7765    2           DO I=0 TO 7;

   7765  4 000234   200004 450100                    STZ     I,,AUTO

      939     7766    2              DA_SDASN.DESC(I)='0'B;

   7766  4 000235   200004 236100                    LDQ     I,,AUTO
         4 000236   000003 402007                    MPY     3,DL
         4 000237   000000 450006 xsym               STZ     DA_SDASN,QL
         4 000240   000001 450006 xsym               STZ     DA_SDASN+1,QL

      940     7767    2              DA_SDASN.CVM(I)='0'B;

   7767  4 000241   000000 620006                    EAX0    0,QL
         4 000242   000020 236000 5                  LDQ     16
         4 000243   000002 356010 xsym               ANSQ    DA_SDASN+2,X0

      941     7768    2              DA_SDASN.SYSID(I)=0;

   7768  4 000244   000000 221003                    LDX1    0,DU
         4 000245   000002 441010 xsym               SXL1    DA_SDASN+2,X0

PL6.E3A0      #003=DAM$DUMPFILE File=DAM$MAP.:E05TSI                             TUE 07/29/97 12:52 Page:164
      942     7769    2              END;

   7769  4 000246   200004 054100                    AOS     I,,AUTO
         4 000247   200004 235100                    LDA     I,,AUTO
         4 000250   000007 115007                    CMPA    7,DL
         4 000251   000235 604400 4                  TMOZ    s:7766

      943     7770    2           DO I=DA_MSCPG1 TO 255;

   7770  4 000252   000000 235000 xsym               LDA     DA_MSCPG1
         4 000253   200004 755100                    STA     I,,AUTO
         4 000254   000302 710000 4                  TRA     s:7782+1

      944     7771    3              IF DA_WINDOW(I)~='000000777000'O THEN DO;

   7771  4 000255   200004 720100                    LXL0    I,,AUTO
         4 000256   000000 236010 xsym               LDQ     DA_WINDOW,X0
         4 000257   000000 116000 3                  CMPQ    0
         4 000260   000301 600000 4                  TZE     s:7782

      945     7772    4                 IF DA_DUMPFILE THEN DO;

   7772  4 000261   000000 234000 xsym               SZN     DA_DUMPFILE
         4 000262   000271 605000 4                  TPL     s:7777

      946     7773    4                    FPT_FVP.V.PNO#=I;

   7773  4 000263   000246 440000 2                  SXL0    FPT_FVP+2

      947     7774    4                    CALL M$FVP(FPT_FVP) ALTRET(BADCVM);

   7774  4 000264   000244 630400 2                  EPPR0   FPT_FVP
         4 000265   430006 713400                    CLIMB   alt,+12294
         4 000266   400000 401760                    pmme    nvectors=1
         4 000267   000276 702000 4                  TSX2    BADCVM

      948     7775    4                    END;
PL6.E3A0      #003=DAM$DUMPFILE File=DAM$MAP.:E05TSI                             TUE 07/29/97 12:52 Page:165

   7775  4 000270   000276 710000 4                  TRA     BADCVM

      949     7776    4                 ELSE DO;

      950     7777    4                    FPT_CVM.V.VPNO#=I;

   7777  4 000271   000206 440000 2                  SXL0    FPT_CVM+4

      951     7778    4                    CALL M$CVM(FPT_CVM) ALTRET(BADCVM);

   7778  4 000272   000202 630400 2                  EPPR0   FPT_CVM
         4 000273   430011 713400                    CLIMB   alt,+12297
         4 000274   400000 401760                    pmme    nvectors=1
         4 000275   000276 702000 4                  TSX2    BADCVM

      952     7779    4                    END;

      953     7780    3   BADCVM:       DA_WINDOW(I)='000000777000'O;

   7780  4 000276   000000 236000 3     BADCVM       LDQ     0
         4 000277   200004 720100                    LXL0    I,,AUTO
         4 000300   000000 756010 xsym               STQ     DA_WINDOW,X0

      954     7781    3                 END;

      955     7782    2              END;

   7782  4 000301   200004 054100                    AOS     I,,AUTO
         4 000302   200004 235100                    LDA     I,,AUTO
         4 000303   000377 115007                    CMPA    255,DL
         4 000304   000255 604400 4                  TMOZ    s:7771

      956     7783    1           DA_DUMPFILE='1'B;

   7783  4 000305   400000 236003                    LDQ     -131072,DU
         4 000306   000000 756000 xsym               STQ     DA_DUMPFILE
PL6.E3A0      #003=DAM$DUMPFILE File=DAM$MAP.:E05TSI                             TUE 07/29/97 12:52 Page:166

      957     7784    2           IF DA_MAPSEG.BOUND<%(3*1024*4-1) THEN DO;

   7784  4 000307   000000 236000 xsym               LDQ     DA_MAPSEG
         4 000310   000034 376000 xsym               ANQ     B_VECTNIL+28
         4 000311   000021 116000 5                  CMPQ    17
         4 000312   000326 603000 4                  TRC     s:7788

      958     7785    2              FPT_GDS_MAP.V.SEGSIZE#=(%(3*1024*4)-DA_MAPSEG.BOUND)/4;

   7785  4 000313   000000 236000 xsym               LDQ     DA_MAPSEG
         4 000314   000020 772000                    QRL     16
         4 000315   000027 676000 xsym               ERQ     B_VECTNIL+23
         4 000316   030001 036007                    ADLQ    12289,DL
         4 000317   000004 506007                    DIV     4,DL
         4 000320   000000 620006                    EAX0    0,QL
         4 000321   000234 440000 2                  SXL0    FPT_GDS_MAP+4

      959     7786    2              CALL M$GDS(FPT_GDS_MAP) ALTRET(PMMEALT);

   7786  4 000322   000230 630400 2                  EPPR0   FPT_GDS_MAP
         4 000323   430001 713400                    CLIMB   alt,gds
         4 000324   400400 401760                    pmme    nvectors=2
         4 000325   001311 702000 4                  TSX2    PMMEALT

      960     7787    2              END;

      961     7788    1           DS$=DA_MAPSEG.P$;

   7788  4 000326   000001 236000 xsym               LDQ     DA_MAPSEG+1
         4 000327   200006 756100                    STQ     DS$,,AUTO

      962     7789    1           DFKEY='007'O;

   7789  4 000330   007000 235003                    LDA     3584,DU
         4 000331   000000 236003                    LDQ     0,DU
         4 000332   000210 757000 2                  STAQ    DFKEY
PL6.E3A0      #003=DAM$DUMPFILE File=DAM$MAP.:E05TSI                             TUE 07/29/97 12:52 Page:167

      963     7790    1           FPT_READ.BUF_=VECTOR(DS$->NODEDIR);

   7790  4 000333   000022 235000 5                  LDA     18
         4 000334   200006 236100                    LDQ     DS$,,AUTO
         4 000335   000216 757000 2                  STAQ    FPT_READ+4

      964     7791    2           CALL M$READ(FPT_READ) WHENALTRETURN DO;

   7791  4 000336   000212 630400 2                  EPPR0   FPT_READ
         4 000337   440000 713400                    CLIMB   alt,read
         4 000340   401400 401760                    pmme    nvectors=4
         4 000341   000343 702000 4                  TSX2    s:7792
         4 000342   000350 710000 4                  TRA     s:7798

      965     7792    2              CALL SETERR(%E$DA_NOT_DUMPFILE);

   7792  4 000343   000024 236000 5                  LDQ     20
         4 000344   200015 756100                    STQ     WINDOWMAX+3,,AUTO
         4 000345   001323 701000 4                  TSX1    SETERR
         4 000346   000000 011000                    NOP     0

      966     7793        /*E*       ERROR:   DAM-E$DA_NOT_DUMPFILE
      967     7794                   MESSAGE: %UF is not a dump file.  It has no node directory.
      968     7795        */
      969     7796    2              ALTRETURN;

   7796  4 000347   000000 702200 xent               TSX2  ! X66_AALT

      970     7797    2              END;
      971     7798    1           DA_NODEDIR$=DS$;

   7798  4 000350   200006 236100                    LDQ     DS$,,AUTO
         4 000351   000000 756000 xsym               STQ     DA_NODEDIR$

      972     7799    1           DS$=PINCRW(DS$,SIZEW(NODEDIR));

PL6.E3A0      #003=DAM$DUMPFILE File=DAM$MAP.:E05TSI                             TUE 07/29/97 12:52 Page:168
   7799  4 000352   000042 036003                    ADLQ    34,DU
         4 000353   200006 756100                    STQ     DS$,,AUTO

      973     7800    2   FINDHOST: DO;

   7800  4 000354                       FINDHOST     null
      974     7801    3              DO I=1 TO NODEDIR.N;

   7801  4 000354   000001 235007                    LDA     1,DL
         4 000355   200004 755100                    STA     I,,AUTO
         4 000356   000373 710000 4                  TRA     s:7807+1

      975     7802    4                 IF NODEDIR.NODE.NODENAME(I)='HOST' THEN DO;

   7802  4 000357   200004 236100                    LDQ     I,,AUTO
         4 000360   000014 402007                    MPY     12,DL
         4 000361   000000 470400 xsym               LDP0    DA_NODEDIR$
         4 000362   040000 106506                    CMPC    fill='040'O
         4 000363   000001 000010                    ADSC9   1,Q,PR0                  cn=0,n=8
         4 000364   000001 000004 3                  ADSC9   1                        cn=0,n=4
         4 000365   000372 601000 4                  TNZ     s:7807

      976     7803    4                    DA_NODEIDX=I;

   7803  4 000366   200004 235100                    LDA     I,,AUTO
         4 000367   000000 755000 xsym               STA     DA_NODEIDX

      977     7804    4                    HOSTNODE=I;

   7804  4 000370   000446 755000 2                  STA     HOSTNODE

      978     7805    4                    EXIT FINDHOST;

   7805  4 000371   000400 710000 4                  TRA     s:7809

      979     7806    4                    END;
      980     7807    3                 END;
PL6.E3A0      #003=DAM$DUMPFILE File=DAM$MAP.:E05TSI                             TUE 07/29/97 12:52 Page:169

   7807  4 000372   200004 054100                    AOS     I,,AUTO
         4 000373   000000 470400 xsym               LDP0    DA_NODEDIR$
         4 000374   000000 236100                    LDQ     0,,PR0
         4 000375   000357 604000 4                  TMI     s:7802
         4 000376   200004 116100                    CMPQ    I,,AUTO
         4 000377   000357 605000 4                  TPL     s:7802

      981     7808    2              END;

      982     7809    2           DO WHILE(SUBSTR(NODEDIR.NODE.NODENAME(DA_NODEIDX),0,4)~='HOST'

   7809  4 000400   000402 710000 4                  TRA     s:7812

      983     7810    2             AND DA_NODEIDX<=NODEDIR.N);
      984     7811    2              DA_NODEIDX=DA_NODEIDX+1;

   7811  4 000401   000000 054000 xsym               AOS     DA_NODEIDX

      985     7812    2              END;

   7812  4 000402   000000 236000 xsym               LDQ     DA_NODEIDX
         4 000403   000003 402007                    MPY     3,DL
         4 000404   000000 470400 xsym               LDP0    DA_NODEDIR$
         4 000405   000001 236106                    LDQ     1,QL,PR0
         4 000406   000001 116000 3                  CMPQ    1
         4 000407   000414 600000 4                  TZE     s:7813
         4 000410   000000 236100                    LDQ     0,,PR0
         4 000411   000401 604000 4                  TMI     s:7811
         4 000412   000000 116000 xsym               CMPQ    DA_NODEIDX
         4 000413   000401 605000 4                  TPL     s:7811

      986     7813    1           DFKEY.K.NODEIDX=DA_NODEIDX;

   7813  4 000414   000000 236000 xsym               LDQ     DA_NODEIDX
         4 000415   000022 736000                    QLS     18
         4 000416   000210 552020 2                  STBQ    DFKEY,'20'O
PL6.E3A0      #003=DAM$DUMPFILE File=DAM$MAP.:E05TSI                             TUE 07/29/97 12:52 Page:170

      987     7814    1           DFKEY.K.TYP=%R_DINFO#;

   7814  4 000417   000000 236003                    LDQ     0,DU
         4 000420   000210 552010 2                  STBQ    DFKEY,'10'O

      988     7815    1           DFKEY.K.STYP=%R_BUFF#;

   7815  4 000421   000210 552004 2                  STBQ    DFKEY,'04'O

      989     7816    1           DFKEY.K.USR#=0;

   7816  4 000422   000211 552040 2                  STBQ    DFKEY+1,'40'O

      990     7817    1           DFKEY.K.VP#=0;

   7817  4 000423   000211 552034 2                  STBQ    DFKEY+1,'34'O

      991     7818    1           FPT_READ.BUF_=VECTOR(DS$->PAGE);

   7818  4 000424   000025 235000 5                  LDA     21
         4 000425   200006 236100                    LDQ     DS$,,AUTO
         4 000426   000216 757000 2                  STAQ    FPT_READ+4

      992     7819    1           CALL M$READ(FPT_READ) ALTRET(PMMEALT);

   7819  4 000427   000212 630400 2                  EPPR0   FPT_READ
         4 000430   440000 713400                    CLIMB   alt,read
         4 000431   401400 401760                    pmme    nvectors=4
         4 000432   001311 702000 4                  TSX2    PMMEALT

      993     7820    1           DA_RVBUF$=DS$;

   7820  4 000433   200006 236100                    LDQ     DS$,,AUTO
         4 000434   000000 756000 xsym               STQ     DA_RVBUF$

      994     7821    1           DS$=PINCRW(DS$,1024);
PL6.E3A0      #003=DAM$DUMPFILE File=DAM$MAP.:E05TSI                             TUE 07/29/97 12:52 Page:171

   7821  4 000435   002000 036003                    ADLQ    1024,DU
         4 000436   200006 756100                    STQ     DS$,,AUTO

      995     7822    1           DFKEY.K.STYP=%R_USRD#;

   7822  4 000437   000001 236007                    LDQ     1,DL
         4 000440   000210 552004 2                  STBQ    DFKEY,'04'O

      996     7823    1           FPT_READ.BUF_=VECTOR(DS$->PAGE);

   7823  4 000441   000025 235000 5                  LDA     21
         4 000442   200006 236100                    LDQ     DS$,,AUTO
         4 000443   000216 757000 2                  STAQ    FPT_READ+4

      997     7824    1           CALL M$READ(FPT_READ) ALTRET(UDERR);

   7824  4 000444   000212 630400 2                  EPPR0   FPT_READ
         4 000445   440000 713400                    CLIMB   alt,read
         4 000446   401400 401760                    pmme    nvectors=4
         4 000447   000456 702000 4                  TSX2    UDERR

      998     7825    1           DA_USERDIR$=DS$;

   7825  4 000450   200006 236100                    LDQ     DS$,,AUTO
         4 000451   000000 756000 xsym               STQ     DA_USERDIR$

      999     7826    1           DA_MUAIS=RVBUFF.B_MUAIS;

   7826  4 000452   000000 470400 xsym               LDP0    DA_RVBUF$
         4 000453   000161 235100                    LDA     113,,PR0
         4 000454   000000 755000 xsym               STA     DA_MUAIS

     1000     7827    2           DO NEVER;

   7827  4 000455   000465 710000 4                  TRA     s:7835

PL6.E3A0      #003=DAM$DUMPFILE File=DAM$MAP.:E05TSI                             TUE 07/29/97 12:52 Page:172
     1001     7828    2   UDERR:     DA_USERDIR$=ADDR(NIL);

   7828  4 000456   000001 236000 xsym  UDERR        LDQ     B_VECTNIL+1
         4 000457   000000 756000 xsym               STQ     DA_USERDIR$

     1002     7829    2              DA_MUAIS=0;

   7829  4 000460   000000 450000 xsym               STZ     DA_MUAIS

     1003     7830    2              CALL SETERR(%E$DA_NO_USERDIR);

   7830  4 000461   000027 236000 5                  LDQ     23
         4 000462   200015 756100                    STQ     WINDOWMAX+3,,AUTO
         4 000463   001323 701000 4                  TSX1    SETERR
         4 000464   000000 011000                    NOP     0

     1004     7831        /*E*    ERROR: DAM-E$DA_NO_USERDIR
     1005     7832                MESSAGE: No user directory in this dump file
     1006     7833                                                                           */
     1007     7834    2              END;

     1008     7835    1           CALL DAM$USECPU(RVBUFF.S_PNO);

   7835  4 000465   000000 236000 xsym               LDQ     DA_RVBUF$
         4 000466   000142 036003                    ADLQ    98,DU
         4 000467   200016 756100                    STQ     @CODE+1,,AUTO
         4 000470   200016 630500                    EPPR0   @CODE+1,,AUTO
         4 000471   000017 631400 xsym               EPPR1   B_VECTNIL+15
         4 000472   000000 701000 xent               TSX1    DAM$USECPU
         4 000473   000000 011000                    NOP     0

     1009     7836    1           CALL DAM$VPAGE(%(HJIT_BASE%/4096),0,0,%MONWSQ) ALTRET(ALT);

   7836  4 000474   000031 630400 5                  EPPR0   25
         4 000475   000022 631400 xsym               EPPR1   B_VECTNIL+18
         4 000476   000000 701000 xent               TSX1    DAM$VPAGE
         4 000477   001315 702000 4                  TSX2    ALT
PL6.E3A0      #003=DAM$DUMPFILE File=DAM$MAP.:E05TSI                             TUE 07/29/97 12:52 Page:173

     1010     7837    1           LS$=PINCRW(B$IS$,DA_WINDOWBASE*1024);

   7837  4 000500   000000 236000 xsym               LDQ     DA_WINDOWBASE
         4 000501   000034 736000                    QLS     28
         4 000502   000000 036000 xsym               ADLQ    B$IS$
         4 000503   200007 756100                    STQ     LS$,,AUTO

     1011     7838    1           DA_SDASN.DESC(%TIGR#)=LS$->DESC(%(%BITBIN(%TIGRSID)-%BITBIN(%ISSID)));

   7838  4 000504   200007 470500                    LDP0    LS$,,AUTO
         4 000505   000000 100500                    MLR     fill='000'O
         4 000506   000246 000010                    ADSC9   166,,PR0                 cn=0,n=8
         4 000507   000025 000010 xsym               ADSC9   DA_SDASN+21              cn=0,n=8

     1012     7839    1           DA_SDASN.SYSID(%TIGR#)=0;

   7839  4 000510   000000 220003                    LDX0    0,DU
         4 000511   000027 440000 xsym               SXL0    DA_SDASN+23

     1013     7840    1           TIGRPGS=(DA_SDASN.DESC.BOUND(%TIGR#)/4096)+1;

   7840  4 000512   000025 236000 xsym               LDQ     DA_SDASN+21
         4 000513   000020 772000                    QRL     16
         4 000514   000014 772000                    QRL     12
         4 000515   000001 036007                    ADLQ    1,DL
         4 000516   200010 756100                    STQ     TIGRPGS,,AUTO

     1014     7841    1           SEGSIZE=TIGRPGS*4096;

   7841  4 000517   200010 235100                    LDA     TIGRPGS,,AUTO
         4 000520   000014 735000                    ALS     12
         4 000521   200011 755100                    STA     SEGSIZE,,AUTO

     1015     7842    2           IF SEGSIZE-1>DA_TIGRSEG.BOUND THEN DO;

   7842  4 000522   000001 135007                    SBLA    1,DL
PL6.E3A0      #003=DAM$DUMPFILE File=DAM$MAP.:E05TSI                             TUE 07/29/97 12:52 Page:174
         4 000523   200016 755100                    STA     @CODE+1,,AUTO
         4 000524   000000 236000 xsym               LDQ     DA_TIGRSEG
         4 000525   000020 772000                    QRL     16
         4 000526   200016 116100                    CMPQ    @CODE+1,,AUTO
         4 000527   000542 605000 4                  TPL     s:7846

     1016     7843    2              FPT_GDS_TIGR.V.SEGSIZE#=(SEGSIZE-DA_TIGRSEG.BOUND)/4;

   7843  4 000530   200016 756100                    STQ     @CODE+1,,AUTO
         4 000531   200011 236100                    LDQ     SEGSIZE,,AUTO
         4 000532   200016 136100                    SBLQ    @CODE+1,,AUTO
         4 000533   000004 506007                    DIV     4,DL
         4 000534   000000 621006                    EAX1    0,QL
         4 000535   000242 441000 2                  SXL1    FPT_GDS_TIGR+4

     1017     7844    2              CALL M$GDS(FPT_GDS_TIGR) ALTRET(PMMEALT);

   7844  4 000536   000236 630400 2                  EPPR0   FPT_GDS_TIGR
         4 000537   430001 713400                    CLIMB   alt,gds
         4 000540   400400 401760                    pmme    nvectors=2
         4 000541   001311 702000 4                  TSX2    PMMEALT

     1018     7845    2              END;

     1019     7846    1           FPT_READ.BUF_=VECTOR(DA_TIGRSEG.P$->PAGE);

   7846  4 000542   000025 235000 5                  LDA     21
         4 000543   000001 236000 xsym               LDQ     DA_TIGRSEG+1
         4 000544   000216 757000 2                  STAQ    FPT_READ+4

     1020     7847    1           DFKEY.K.TYP=%R_MWSQ#;

   7847  4 000545   002000 236007                    LDQ     1024,DL
         4 000546   000210 552010 2                  STBQ    DFKEY,'10'O

     1021     7848    1           DFKEY.K.STYP=%R_MCPU#;

PL6.E3A0      #003=DAM$DUMPFILE File=DAM$MAP.:E05TSI                             TUE 07/29/97 12:52 Page:175
   7848  4 000547   000000 236003                    LDQ     0,DU
         4 000550   000210 552004 2                  STBQ    DFKEY,'04'O

     1022     7849    1           DFKEY.K.USR#=DA_CPU#;

   7849  4 000551   000000 236000 xsym               LDQ     DA_CPU#
         4 000552   000033 736000                    QLS     27
         4 000553   000211 552040 2                  STBQ    DFKEY+1,'40'O

     1023     7850    1           DFKEY.K.VP#=DA_SDASN.DESC.BASE(%TIGR#)/4096;

   7850  4 000554   000026 236000 xsym               LDQ     DA_SDASN+22
         4 000555   000014 772000                    QRL     12
         4 000556   000211 552034 2                  STBQ    DFKEY+1,'34'O

     1024     7851    1           J=0;

   7851  4 000557   200005 450100                    STZ     J,,AUTO

     1025     7852    2           DO I=0 TO TIGRPGS-1;

   7852  4 000560   200004 450100                    STZ     I,,AUTO
         4 000561   000576 710000 4                  TRA     s:7857+1

     1026     7853    2              CALL M$READ(FPT_READ) ALTRET(NXTTIGR);

   7853  4 000562   000212 630400 2                  EPPR0   FPT_READ
         4 000563   440000 713400                    CLIMB   alt,read
         4 000564   401400 401760                    pmme    nvectors=4
         4 000565   000567 702000 4                  TSX2    NXTTIGR

     1027     7854    2              J=J+1;

   7854  4 000566   200005 054100                    AOS     J,,AUTO

     1028     7855    2   NXTTIGR:   FPT_READ.BUF_.BUF$=PINCRW(FPT_READ.BUF_.BUF$,1024);

PL6.E3A0      #003=DAM$DUMPFILE File=DAM$MAP.:E05TSI                             TUE 07/29/97 12:52 Page:176
   7855  4 000567   000217 236000 2     NXTTIGR      LDQ     FPT_READ+5
         4 000570   002000 036003                    ADLQ    1024,DU
         4 000571   000217 756000 2                  STQ     FPT_READ+5

     1029     7856    2              DFKEY.K.VP#=DFKEY.K.VP#+1;

   7856  4 000572   000211 236000 2                  LDQ     DFKEY+1
         4 000573   000001 036007                    ADLQ    1,DL
         4 000574   000211 552034 2                  STBQ    DFKEY+1,'34'O

     1030     7857    2              END;

   7857  4 000575   200004 054100                    AOS     I,,AUTO
         4 000576   200004 236100                    LDQ     I,,AUTO
         4 000577   200010 116100                    CMPQ    TIGRPGS,,AUTO
         4 000600   000562 604000 4                  TMI     s:7853

     1031     7858    1           DA_SDASN.SID(%TIGR#)=DA_TIGRSEG.P.SID;

   7858  4 000601   000001 236000 xsym               LDQ     DA_TIGRSEG+1
         4 000602   000030 736000                    QLS     24
         4 000603   000027 752060 xsym               STCQ    DA_SDASN+23,'60'O

     1032     7859    2           IF J=0 THEN DO;

   7859  4 000604   200005 235100                    LDA     J,,AUTO
         4 000605   000626 601000 4                  TNZ     s:7869

     1033     7860    2              FPT_GDS_TIGR.V.SEGSIZE#=%(256*1024-1);

   7860  4 000606   777777 220003                    LDX0    -1,DU
         4 000607   000242 440000 2                  SXL0    FPT_GDS_TIGR+4

     1034     7861    2              CALL M$FDS(FPT_GDS_TIGR);

   7861  4 000610   000236 630400 2                  EPPR0   FPT_GDS_TIGR
         4 000611   030002 713400                    CLIMB   fds
PL6.E3A0      #003=DAM$DUMPFILE File=DAM$MAP.:E05TSI                             TUE 07/29/97 12:52 Page:177
         4 000612   400400 401760                    pmme    nvectors=2

     1035     7862    2              DA_TIGRSEG='0'B;

   7862  4 000613   000000 450000 xsym               STZ     DA_TIGRSEG
         4 000614   000001 450000 xsym               STZ     DA_TIGRSEG+1

     1036     7863    2              B$USRT$=ADDR(NIL);

   7863  4 000615   000001 236000 xsym               LDQ     B_VECTNIL+1
         4 000616   000000 756000 xsym               STQ     B$USRT$

     1037     7864    2              DA_MUAIS=0;

   7864  4 000617   000000 450000 xsym               STZ     DA_MUAIS

     1038     7865    2              S$CU$=ADDR(NIL);

   7865  4 000620   000000 756000 xsym               STQ     S$CU$

     1039     7866    2              DA_MAPERR=B$TCB$->B$TCB.ALT$->B$ALT.ERR;

   7866  4 000621   000000 470400 xsym               LDP0    B$TCB$
         4 000622   000000 471500                    LDP1    0,,PR0
         4 000623   100102 236100                    LDQ     66,,PR1
         4 000624   000000 756000 xsym               STQ     DA_MAPERR

     1040     7867    2              END;

   7867  4 000625   000660 710000 4                  TRA     s:7875

     1041     7868    2           ELSE DO;

     1042     7869    2              FPT_GDS_TIGR.V.SEGSIZE#=(DA_TIGRSEG.BOUND+1-J*4096)/4;

   7869  4 000626   000000 236000 xsym               LDQ     DA_TIGRSEG
         4 000627   000020 772000                    QRL     16
PL6.E3A0      #003=DAM$DUMPFILE File=DAM$MAP.:E05TSI                             TUE 07/29/97 12:52 Page:178
         4 000630   200016 756100                    STQ     @CODE+1,,AUTO
         4 000631   200005 336100                    LCQ     J,,AUTO
         4 000632   000014 736000                    QLS     12
         4 000633   200016 036100                    ADLQ    @CODE+1,,AUTO
         4 000634   000001 036007                    ADLQ    1,DL
         4 000635   000004 506007                    DIV     4,DL
         4 000636   000000 620006                    EAX0    0,QL
         4 000637   000242 440000 2                  SXL0    FPT_GDS_TIGR+4

     1043     7870    2              CALL M$FDS(FPT_GDS_TIGR) ALTRET(PMMEALT);

   7870  4 000640   000236 630400 2                  EPPR0   FPT_GDS_TIGR
         4 000641   430002 713400                    CLIMB   alt,fds
         4 000642   400400 401760                    pmme    nvectors=2
         4 000643   001311 702000 4                  TSX2    PMMEALT

     1044     7871    2              B$USRT$=RVBUFF.B$USRT$;

   7871  4 000644   000000 470400 xsym               LDP0    DA_RVBUF$
         4 000645   000154 236100                    LDQ     108,,PR0
         4 000646   000000 756000 xsym               STQ     B$USRT$

     1045     7872    2              ADDR(B$USRT$)->P.SID=DA_SDASN.SID(%TIGR#);

   7872  4 000647   000027 236000 xsym               LDQ     DA_SDASN+23
         4 000650   000030 772000                    QRL     24
         4 000651   000000 752003 xsym               STCQ    B$USRT$,'03'O

     1046     7873    2              S$CU$=ADDR(B$USRT$->B$USER(RVBUFF.CUN));

   7873  4 000652   000140 235100                    LDA     96,,PR0
         4 000653   000004 735000                    ALS     4
         4 000654   000044 733000                    LRS     36
         4 000655   000022 736000                    QLS     18
         4 000656   000000 036000 xsym               ADLQ    B$USRT$
         4 000657   000000 756000 xsym               STQ     S$CU$

PL6.E3A0      #003=DAM$DUMPFILE File=DAM$MAP.:E05TSI                             TUE 07/29/97 12:52 Page:179
     1047     7874    2              END;

     1048     7875    1           CALL M$GDDL(FPT_GDDL);

   7875  4 000660   000440 630400 2                  EPPR0   FPT_GDDL
         4 000661   030014 713400                    CLIMB   12300
         4 000662   400000 401760                    pmme    nvectors=1

     1049     7876    1           DA_WINDOWMAX=DA_WINDOWBASE+VLR_GDDL.AVAIL_PGS#-%MINPGS;

   7876  4 000663   000000 236000 xsym               LDQ     DA_WINDOWBASE
         4 000664   000444 036000 2                  ADLQ    VLR_GDDL+2
         4 000665   000024 136007                    SBLQ    20,DL
         4 000666   000000 756000 xsym               STQ     DA_WINDOWMAX

     1050     7877    1           WINDOWMAX=B$JIT.DDUL-B$JIT.DLL;

   7877  4 000667   000000 470400 xsym               LDP0    B$JIT$
         4 000670   000177 236100                    LDQ     127,,PR0
         4 000671   000022 772000                    QRL     18
         4 000672   200016 756100                    STQ     @CODE+1,,AUTO
         4 000673   000200 236100                    LDQ     128,,PR0
         4 000674   777777 376007                    ANQ     -1,DL
         4 000675   200016 136100                    SBLQ    @CODE+1,,AUTO
         4 000676   200012 756100                    STQ     WINDOWMAX,,AUTO

     1051     7878    2           IF DA_WINDOWMAX - 32 < DA_WINDOWBASE THEN DO;

   7878  4 000677   000000 236000 xsym               LDQ     DA_WINDOWMAX
         4 000700   000040 136007                    SBLQ    32,DL
         4 000701   000000 116000 xsym               CMPQ    DA_WINDOWBASE
         4 000702   000710 605000 4                  TPL     s:7885

     1052     7879    2              CALL SETERR(%E$DA_NEED_MORE_MEM) ALTRET(ALT);

   7879  4 000703   000036 236000 5                  LDQ     30
         4 000704   200015 756100                    STQ     WINDOWMAX+3,,AUTO
PL6.E3A0      #003=DAM$DUMPFILE File=DAM$MAP.:E05TSI                             TUE 07/29/97 12:52 Page:180
         4 000705   001323 701000 4                  TSX1    SETERR
         4 000706   001315 702000 4                  TSX2    ALT

     1053     7880    2              END;

   7880  4 000707   000715 710000 4                  TRA     s:7886

     1054     7881        /*E*    ERROR:   DAM-E$DA_NEED_MORE_MEM
     1055     7882                MESSAGE: Insufficient memory available to look at dump file.
     1056     7883               MESSAGE1: You must increase your resource memory to look at a dump file.
     1057     7884        */
     1058     7885    1           ELSE IF DA_WINDOWMAX>WINDOWMAX THEN DA_WINDOWMAX=WINDOWMAX;

   7885  4 000710   000000 236000 xsym               LDQ     DA_WINDOWMAX
         4 000711   200012 116100                    CMPQ    WINDOWMAX,,AUTO
         4 000712   000715 604400 4                  TMOZ    s:7886

   7885  4 000713   200012 235100                    LDA     WINDOWMAX,,AUTO
         4 000714   000000 755000 xsym               STA     DA_WINDOWMAX

     1059     7886    1           DA_NXTWINDOW=0;

   7886  4 000715   000000 450000 xsym               STZ     DA_NXTWINDOW

     1060     7887    1           DA_NXTSPCL=0;

   7887  4 000716   000000 450000 xsym               STZ     DA_NXTSPCL

     1061     7888    1           DA_NUMSPCL=7;

   7888  4 000717   000007 235007                    LDA     7,DL
         4 000720   000000 755000 xsym               STA     DA_NUMSPCL

     1062     7889    1           DA_WSPTD$=ADDR(NIL);

   7889  4 000721   000001 236000 xsym               LDQ     B_VECTNIL+1
         4 000722   000000 756000 xsym               STQ     DA_WSPTD$
PL6.E3A0      #003=DAM$DUMPFILE File=DAM$MAP.:E05TSI                             TUE 07/29/97 12:52 Page:181

     1063     7890    1           ADDR(DA_TIGR$)->P=BINBIT(BITBIN(DA_SDASN.SID(%TIGR#)),36);

   7890  4 000723   000027 236000 xsym               LDQ     DA_SDASN+23
         4 000724   000030 772000                    QRL     24
         4 000725   000000 756000 xsym               STQ     DA_TIGR$

     1064     7891    1           DA_PSR=ADDR(RVBUFF.SSFRAME)->B$SS.PSR;

   7891  4 000726   000000 470400 xsym               LDP0    DA_RVBUF$
         4 000727   000056 237100                    LDAQ    46,,PR0
         4 000730   000000 755000 xsym               STA     DA_PSR
         4 000731   000001 756000 xsym               STQ     DA_PSR+1

     1065     7892    1           DA_ASR=ADDR(RVBUFF.SSFRAME)->B$SS.ASR;

   7892  4 000732   000052 237100                    LDAQ    42,,PR0
         4 000733   000000 755000 xsym               STA     DA_ASR
         4 000734   000001 756000 xsym               STQ     DA_ASR+1

     1066     7893    1           DA_CURCG.CG$=RVBUFF.CURCG.CG$;

   7893  4 000735   000472 236100                    LDQ     314,,PR0
         4 000736   000000 756000 xsym               STQ     DA_CURCG

     1067     7894    1           DA_INITIALIZED='1'B;

   7894  4 000737   400000 236003                    LDQ     -131072,DU
         4 000740   000000 756000 xsym               STQ     DA_INITIALIZED

     1068     7895    1           RETURN;

   7895  4 000741   000000 702200 xent               TSX2  ! X66_ARET

     1069     7896        %EJECT;
PL6.E3A0      #003=DAM$DUMPFILE File=DAM$MAP.:E05TSI                             TUE 07/29/97 12:52 Page:182
     1070     7897    1   DAM$INIT: ENTRY ALTRET;

   7897  4 000742   000000 700200 xent  DAM$INIT     TSX0  ! X66_AUTO_1
         4 000743   000022 000001                    ZERO    18,1

     1071     7898    2           DO I=0 TO 255;

   7898  4 000744   200004 450100                    STZ     I,,AUTO

     1072     7899    2              DA_WINDOW(I)='000000777000'O;

   7899  4 000745   000000 236000 3                  LDQ     0
         4 000746   200004 720100                    LXL0    I,,AUTO
         4 000747   000000 756010 xsym               STQ     DA_WINDOW,X0

     1073     7900    2              END;

   7900  4 000750   200004 054100                    AOS     I,,AUTO
         4 000751   200004 235100                    LDA     I,,AUTO
         4 000752   000377 115007                    CMPA    255,DL
         4 000753   000745 604400 4                  TMOZ    s:7899

     1074     7901    1           DA_WINDOWBASE=B$JIT.DDLL+B$JIT.PCDD-B$JIT.DLL-%MSCPG1#;

   7901  4 000754   000000 470400 xsym               LDP0    B$JIT$
         4 000755   000203 236100                    LDQ     131,,PR0
         4 000756   777777 376007                    ANQ     -1,DL
         4 000757   200016 756100                    STQ     @CODE+1,,AUTO
         4 000760   000200 236100                    LDQ     128,,PR0
         4 000761   000022 772000                    QRL     18
         4 000762   200016 036100                    ADLQ    @CODE+1,,AUTO
         4 000763   200017 756100                    STQ     @CODE+2,,AUTO
         4 000764   000177 236100                    LDQ     127,,PR0
         4 000765   000022 772000                    QRL     18
         4 000766   200020 756100                    STQ     @CODE+3,,AUTO
         4 000767   200017 236100                    LDQ     @CODE+2,,AUTO
         4 000770   200020 136100                    SBLQ    @CODE+3,,AUTO
PL6.E3A0      #003=DAM$DUMPFILE File=DAM$MAP.:E05TSI                             TUE 07/29/97 12:52 Page:183
         4 000771   000014 036007                    ADLQ    12,DL
         4 000772   000000 756000 xsym               STQ     DA_WINDOWBASE

     1075     7902    1           DA_MSCPG1=DA_WINDOWBASE+%MSCPG1#;

   7902  4 000773   000014 136007                    SBLQ    12,DL
         4 000774   000000 756000 xsym               STQ     DA_MSCPG1

     1076     7903    1           DA_MSCPG2=DA_WINDOWBASE+%MSCPG2#;

   7903  4 000775   000000 235000 xsym               LDA     DA_WINDOWBASE
         4 000776   000002 135007                    SBLA    2,DL
         4 000777   000000 755000 xsym               STA     DA_MSCPG2

     1077     7904    1           DA_MSCPG3=DA_WINDOWBASE+%MSCPG3#;

   7904  4 001000   000000 235000 xsym               LDA     DA_WINDOWBASE
         4 001001   000001 135007                    SBLA    1,DL
         4 001002   000000 755000 xsym               STA     DA_MSCPG3

     1078     7905    1           DA_MAPERR='0'B;

   7905  4 001003   000000 450000 xsym               STZ     DA_MAPERR
         4 001004   001007 710000 4                  TRA     s:7908

     1079     7906        %EJECT;
PL6.E3A0      #003=DAM$DUMPFILE File=DAM$MAP.:E05TSI                             TUE 07/29/97 12:52 Page:184
     1080     7907    1   DAM$RUNNING: ENTRY ALTRET;

   7907  4 001005   000000 700200 xent  DAM$RUNNING  TSX0  ! X66_AUTO_1
         4 001006   000022 000001                    ZERO    18,1

     1081     7908    1           IF DA_INITIALIZED AND NOT DA_DUMPFILE THEN RETURN;

   7908  4 001007   000000 234000 xsym               SZN     DA_INITIALIZED
         4 001010   001014 605000 4                  TPL     s:7909
         4 001011   000000 234000 xsym               SZN     DA_DUMPFILE
         4 001012   001014 604000 4                  TMI     s:7909

   7908  4 001013   000000 702200 xent               TSX2  ! X66_ARET

     1082     7909    1           DA_INITIALIZED='0'B;

   7909  4 001014   000000 450000 xsym               STZ     DA_INITIALIZED

     1083     7910    1           IF DCBADDR(DCBNUM(M$DUMPFILE))->F$DCB.FCD# THEN

   7910  4 001015   000000 236007 xsym               LDQ     M$DUMPFILE,DL
         4 001016   000015 470400 5                  LDP0    13
         4 001017   000000 471500                    LDP1    0,,PR0
         4 001020   100000 473506                    LDP3    0,QL,PR1
         4 001021   300031 236100                    LDQ     25,,PR3
         4 001022   020000 316007                    CANQ    8192,DL
         4 001023   001031 600000 4                  TZE     s:7912

     1084     7911    2              CALL M$CLOSE(FPT_CLOSE) WHENALTRETURN DO; END;

   7911  4 001024   000114 630400 2                  EPPR0   FPT_CLOSE
         4 001025   450001 713400                    CLIMB   alt,close
         4 001026   406000 401760                    pmme    nvectors=13
         4 001027   001031 702000 4                  TSX2    s:7912
         4 001030   001031 710000 4                  TRA     s:7912

     1085     7912    2           DO I=0 TO 7;
PL6.E3A0      #003=DAM$DUMPFILE File=DAM$MAP.:E05TSI                             TUE 07/29/97 12:52 Page:185

   7912  4 001031   200004 450100                    STZ     I,,AUTO

     1086     7913    2              DA_SDASN.DESC(I)='0'B;

   7913  4 001032   200004 236100                    LDQ     I,,AUTO
         4 001033   000003 402007                    MPY     3,DL
         4 001034   000000 450006 xsym               STZ     DA_SDASN,QL
         4 001035   000001 450006 xsym               STZ     DA_SDASN+1,QL

     1087     7914    2              DA_SDASN.CVM(I)='0'B;

   7914  4 001036   000000 620006                    EAX0    0,QL
         4 001037   000020 236000 5                  LDQ     16
         4 001040   000002 356010 xsym               ANSQ    DA_SDASN+2,X0

     1088     7915    2              DA_SDASN.SYSID(I)=0;

   7915  4 001041   000000 221003                    LDX1    0,DU
         4 001042   000002 441010 xsym               SXL1    DA_SDASN+2,X0

     1089     7916    2              END;

   7916  4 001043   200004 054100                    AOS     I,,AUTO
         4 001044   200004 235100                    LDA     I,,AUTO
         4 001045   000007 115007                    CMPA    7,DL
         4 001046   001032 604400 4                  TMOZ    s:7913

     1090     7917    2           IF DA_MAPSEG~='0'B THEN DO;

   7917  4 001047   000000 106400                    CMPC    fill='000'O
         4 001050   000000 000010 xsym               ADSC9   DA_MAPSEG                cn=0,n=8
         4 001051   000002 000002 xsym               ADSC9   B_VECTNIL+2              cn=0,n=2
         4 001052   001067 600000 4                  TZE     s:7922

     1091     7918    2              FPT_GDS_MAP.V.SEGSIZE#=(DA_MAPSEG.BOUND+1)/4;

PL6.E3A0      #003=DAM$DUMPFILE File=DAM$MAP.:E05TSI                             TUE 07/29/97 12:52 Page:186
   7918  4 001053   000000 236000 xsym               LDQ     DA_MAPSEG
         4 001054   000020 772000                    QRL     16
         4 001055   000001 036007                    ADLQ    1,DL
         4 001056   000002 772000                    QRL     2
         4 001057   000000 620006                    EAX0    0,QL
         4 001060   000234 440000 2                  SXL0    FPT_GDS_MAP+4

     1092     7919    2              CALL M$FDS(FPT_GDS_MAP) ALTRET(PMMEALT);

   7919  4 001061   000230 630400 2                  EPPR0   FPT_GDS_MAP
         4 001062   430002 713400                    CLIMB   alt,fds
         4 001063   400400 401760                    pmme    nvectors=2
         4 001064   001311 702000 4                  TSX2    PMMEALT

     1093     7920    2              DA_MAPSEG='0'B;

   7920  4 001065   000000 450000 xsym               STZ     DA_MAPSEG
         4 001066   000001 450000 xsym               STZ     DA_MAPSEG+1

     1094     7921    2              END;

     1095     7922    2           IF DA_TIGRSEG~='0'B THEN DO;

   7922  4 001067   000000 106400                    CMPC    fill='000'O
         4 001070   000000 000010 xsym               ADSC9   DA_TIGRSEG               cn=0,n=8
         4 001071   000002 000002 xsym               ADSC9   B_VECTNIL+2              cn=0,n=2
         4 001072   001107 600000 4                  TZE     s:7927

     1096     7923    2              FPT_GDS_TIGR.V.SEGSIZE#=(DA_TIGRSEG.BOUND+1)/4;

   7923  4 001073   000000 236000 xsym               LDQ     DA_TIGRSEG
         4 001074   000020 772000                    QRL     16
         4 001075   000001 036007                    ADLQ    1,DL
         4 001076   000002 772000                    QRL     2
         4 001077   000000 620006                    EAX0    0,QL
         4 001100   000242 440000 2                  SXL0    FPT_GDS_TIGR+4

PL6.E3A0      #003=DAM$DUMPFILE File=DAM$MAP.:E05TSI                             TUE 07/29/97 12:52 Page:187
     1097     7924    2              CALL M$FDS(FPT_GDS_TIGR) ALTRET(PMMEALT);

   7924  4 001101   000236 630400 2                  EPPR0   FPT_GDS_TIGR
         4 001102   430002 713400                    CLIMB   alt,fds
         4 001103   400400 401760                    pmme    nvectors=2
         4 001104   001311 702000 4                  TSX2    PMMEALT

     1098     7925    2              DA_TIGRSEG='0'B;

   7925  4 001105   000000 450000 xsym               STZ     DA_TIGRSEG
         4 001106   000001 450000 xsym               STZ     DA_TIGRSEG+1

     1099     7926    2              END;

     1100     7927    1           CALL M$MONINFO(FPT_MONINFO) ALTRET(PMMEALT);

   7927  4 001107   000270 630400 2                  EPPR0   FPT_MONINFO
         4 001110   420023 713400                    CLIMB   alt,+8211
         4 001111   402400 401760                    pmme    nvectors=6
         4 001112   001311 702000 4                  TSX2    PMMEALT

     1101     7928    1           DA_MUAIS=MNINFO.MUAIS#;

   7928  4 001113   000313 235000 2                  LDA     MNINFO+7
         4 001114   000000 755000 xsym               STA     DA_MUAIS

     1102     7929    1           DA_CPU = VLR_SITEINFO.CPU_TYPE#;

   7929  4 001115   000431 236000 2                  LDQ     VLR_SITEINFO+55
         4 001116   000011 772000                    QRL     9
         4 001117   000777 376007                    ANQ     511,DL
         4 001120   000000 756000 xsym               STQ     DA_CPU

     1103     7930    1           B$USRT$=MNPTRS.B$USRT$;

   7930  4 001121   000327 236000 2                  LDQ     MNPTRS+3
         4 001122   000000 756000 xsym               STQ     B$USRT$
PL6.E3A0      #003=DAM$DUMPFILE File=DAM$MAP.:E05TSI                             TUE 07/29/97 12:52 Page:188

     1104     7931    1           ADDR(B$USRT$)->P.SID=%SPCL8SID;

   7931  4 001123   006031 236007                    LDQ     3097,DL
         4 001124   000000 752003 xsym               STCQ    B$USRT$,'03'O

     1105     7932    1           S$CU$=ADDR(B$USRT$->B$USER(B$JIT.USER));

   7932  4 001125   000000 470400 xsym               LDP0    B$JIT$
         4 001126   000000 236100                    LDQ     0,,PR0
         4 001127   000016 772000                    QRL     14
         4 001130   017760 376007                    ANQ     8176,DL
         4 001131   000022 736000                    QLS     18
         4 001132   000000 036000 xsym               ADLQ    B$USRT$
         4 001133   000000 756000 xsym               STQ     S$CU$

     1106     7933    1           DA_WINDOWMAX=B$JIT.DDUL-B$JIT.DLL;

   7933  4 001134   000177 236100                    LDQ     127,,PR0
         4 001135   000022 772000                    QRL     18
         4 001136   200016 756100                    STQ     @CODE+1,,AUTO
         4 001137   000200 236100                    LDQ     128,,PR0
         4 001140   777777 376007                    ANQ     -1,DL
         4 001141   200016 136100                    SBLQ    @CODE+1,,AUTO
         4 001142   000000 756000 xsym               STQ     DA_WINDOWMAX

     1107     7934    2           IF DA_DUMPFILE THEN DO I=DA_MSCPG1 TO 255;

   7934  4 001143   000000 234000 xsym               SZN     DA_DUMPFILE
         4 001144   001170 605000 4                  TPL     s:7941

   7934  4 001145   000000 235000 xsym               LDA     DA_MSCPG1
         4 001146   200004 755100                    STA     I,,AUTO
         4 001147   001165 710000 4                  TRA     s:7940+1

     1108     7935    3              IF DA_WINDOW(I)~='000000777000'O THEN DO;

PL6.E3A0      #003=DAM$DUMPFILE File=DAM$MAP.:E05TSI                             TUE 07/29/97 12:52 Page:189
   7935  4 001150   200004 720100                    LXL0    I,,AUTO
         4 001151   000000 236010 xsym               LDQ     DA_WINDOW,X0
         4 001152   000000 116000 3                  CMPQ    0
         4 001153   001164 600000 4                  TZE     s:7940

     1109     7936    3                 FPT_FVP.V.PNO#=I;

   7936  4 001154   000246 440000 2                  SXL0    FPT_FVP+2

     1110     7937    3                 CALL M$FVP(FPT_FVP) ALTRET(NXTPG);

   7937  4 001155   000244 630400 2                  EPPR0   FPT_FVP
         4 001156   430006 713400                    CLIMB   alt,+12294
         4 001157   400000 401760                    pmme    nvectors=1
         4 001160   001161 702000 4                  TSX2    NXTPG

     1111     7938    3   NXTPG:        DA_WINDOW(I)='000000777000'O;

   7938  4 001161   000000 236000 3     NXTPG        LDQ     0
         4 001162   200004 720100                    LXL0    I,,AUTO
         4 001163   000000 756010 xsym               STQ     DA_WINDOW,X0

     1112     7939    3                 END;

     1113     7940    2              END;

   7940  4 001164   200004 054100                    AOS     I,,AUTO
         4 001165   200004 235100                    LDA     I,,AUTO
         4 001166   000377 115007                    CMPA    255,DL
         4 001167   001150 604400 4                  TMOZ    s:7935

     1114     7941    1           DA_DUMPFILE='0'B;

   7941  4 001170   000000 450000 xsym               STZ     DA_DUMPFILE

     1115     7942    1           DA_NXTWINDOW=0;

PL6.E3A0      #003=DAM$DUMPFILE File=DAM$MAP.:E05TSI                             TUE 07/29/97 12:52 Page:190
   7942  4 001171   000000 450000 xsym               STZ     DA_NXTWINDOW

     1116     7943    1           DA_NXTSPCL=0;

   7943  4 001172   000000 450000 xsym               STZ     DA_NXTSPCL

     1117     7944    1           DA_RVBUF$=ADDR(NIL);

   7944  4 001173   000001 236000 xsym               LDQ     B_VECTNIL+1
         4 001174   000000 756000 xsym               STQ     DA_RVBUF$

     1118     7945    1           DA_USERDIR$=ADDR(NIL);

   7945  4 001175   000000 756000 xsym               STQ     DA_USERDIR$

     1119     7946    1           DA_NUMSPCL=6;

   7946  4 001176   000006 235007                    LDA     6,DL
         4 001177   000000 755000 xsym               STA     DA_NUMSPCL

     1120     7947    1           IF DA_CPU=%DPS90 OR DA_CPU=%DPS90XA THEN DA_NUMSPCL=5;

   7947  4 001200   000000 235000 xsym               LDA     DA_CPU
         4 001201   000004 115007                    CMPA    4,DL
         4 001202   001205 600000 4                  TZE     s:7947+5
         4 001203   000005 115007                    CMPA    5,DL
         4 001204   001207 601000 4                  TNZ     s:7948

   7947  4 001205   000005 235007                    LDA     5,DL
         4 001206   000000 755000 xsym               STA     DA_NUMSPCL

     1121     7948    1           FPT_SAD.V.USERSID#=DA_SDASN.SID(%MONIS#);

   7948  4 001207   000024 236000 xsym               LDQ     DA_SDASN+20
         4 001210   000006 772000                    QRL     6
         4 001211   000260 752030 2                  STCQ    FPT_SAD+2,'30'O

PL6.E3A0      #003=DAM$DUMPFILE File=DAM$MAP.:E05TSI                             TUE 07/29/97 12:52 Page:191
     1122     7949    1           FPT_SAD.V.MONSID#=%ISSID;

   7949  4 001212   006000 236007                    LDQ     3072,DL
         4 001213   000260 752003 2                  STCQ    FPT_SAD+2,'03'O

     1123     7950    1           CALL M$SAD(FPT_SAD) ALTRET(PMMEALT);

   7950  4 001214   000256 630400 2                  EPPR0   FPT_SAD
         4 001215   430015 713400                    CLIMB   alt,+12301
         4 001216   400000 401760                    pmme    nvectors=1
         4 001217   001311 702000 4                  TSX2    PMMEALT

     1124     7951    1           DA_SDASN.SID(%TIGR#)=%SPCL8SID;

   7951  4 001220   603100 236003                    LDQ     -63936,DU
         4 001221   000027 752060 xsym               STCQ    DA_SDASN+23,'60'O

     1125     7952    1           FPT_SAD.V.USERSID#=DA_SDASN.SID(%TIGR#);

   7952  4 001222   000027 236000 xsym               LDQ     DA_SDASN+23
         4 001223   000006 772000                    QRL     6
         4 001224   000260 752030 2                  STCQ    FPT_SAD+2,'30'O

     1126     7953    1           FPT_SAD.V.MONSID#=%TIGRSID;

   7953  4 001225   006123 236007                    LDQ     3155,DL
         4 001226   000260 752003 2                  STCQ    FPT_SAD+2,'03'O

     1127     7954    1           CALL M$SAD(FPT_SAD) ALTRET(PMMEALT);

   7954  4 001227   000256 630400 2                  EPPR0   FPT_SAD
         4 001230   430015 713400                    CLIMB   alt,+12301
         4 001231   400000 401760                    pmme    nvectors=1
         4 001232   001311 702000 4                  TSX2    PMMEALT

     1128     7955    1           ADDR(DA_WSPTD$)->P=BINBIT(BITBIN(DA_SDASN.SID(%MONIS#)),36);

PL6.E3A0      #003=DAM$DUMPFILE File=DAM$MAP.:E05TSI                             TUE 07/29/97 12:52 Page:192
   7955  4 001233   000024 236000 xsym               LDQ     DA_SDASN+20
         4 001234   000030 772000                    QRL     24
         4 001235   000000 756000 xsym               STQ     DA_WSPTD$

     1129     7956    1           DA_MONPTP=S$WSPTD.BLKNO(%MONWSQ);

   7956  4 001236   000000 470400 xsym               LDP0    DA_WSPTD$
         4 001237   000001 236100                    LDQ     1,,PR0
         4 001240   000022 772000                    QRL     18
         4 001241   000000 756000 xsym               STQ     DA_MONPTP

     1130     7957    1           CALL DAM$USECPU(0) ALTRET(ALT);

   7957  4 001242   000032 630400 5                  EPPR0   26
         4 001243   000017 631400 xsym               EPPR1   B_VECTNIL+15
         4 001244   000000 701000 xent               TSX1    DAM$USECPU
         4 001245   001315 702000 4                  TSX2    ALT

     1131     7958    1           CALL DAM$VPAGE(%(HJIT_BASE%/4096),0,0,%MONWSQ) ALTRET(ALT);

   7958  4 001246   000031 630400 5                  EPPR0   25
         4 001247   000022 631400 xsym               EPPR1   B_VECTNIL+18
         4 001250   000000 701000 xent               TSX1    DAM$VPAGE
         4 001251   001315 702000 4                  TSX2    ALT

     1132     7959    1           LS$=PINCRW(B$IS$,DA_WINDOWBASE*1024);

   7959  4 001252   000000 236000 xsym               LDQ     DA_WINDOWBASE
         4 001253   000034 736000                    QLS     28
         4 001254   000000 036000 xsym               ADLQ    B$IS$
         4 001255   200007 756100                    STQ     LS$,,AUTO

     1133     7960    1           DA_SDASN.DESC(%MONIS#)=LS$->DESC(0);

   7960  4 001256   200007 470500                    LDP0    LS$,,AUTO
         4 001257   000000 100500                    MLR     fill='000'O
         4 001260   000000 000010                    ADSC9   0,,PR0                   cn=0,n=8
PL6.E3A0      #003=DAM$DUMPFILE File=DAM$MAP.:E05TSI                             TUE 07/29/97 12:52 Page:193
         4 001261   000022 000010 xsym               ADSC9   DA_SDASN+18              cn=0,n=8

     1134     7961    1           DA_SDASN.SYSID(%MONIS#)=0;

   7961  4 001262   000000 220003                    LDX0    0,DU
         4 001263   000024 440000 xsym               SXL0    DA_SDASN+20

     1135     7962    1           DA_SDASN.DESC(%TIGR#)=LS$->DESC(%(%BITBIN(%TIGRSID)-%BITBIN(%ISSID)));

   7962  4 001264   000000 100500                    MLR     fill='000'O
         4 001265   000246 000010                    ADSC9   166,,PR0                 cn=0,n=8
         4 001266   000025 000010 xsym               ADSC9   DA_SDASN+21              cn=0,n=8

     1136     7963    1           DA_SDASN.SYSID(%TIGR#)=0;

   7963  4 001267   000027 440000 xsym               SXL0    DA_SDASN+23

     1137     7964    1           ADDR(DA_TIGR$)->P=BINBIT(BITBIN(DA_SDASN.SID(%TIGR#)),36);

   7964  4 001270   000027 236000 xsym               LDQ     DA_SDASN+23
         4 001271   000030 772000                    QRL     24
         4 001272   000000 756000 xsym               STQ     DA_TIGR$

     1138     7965                                  /* INITIALIZE ASR AND PSR TO SOMETHING
     1139     7966                                     ENTIRELY UNREASONABLE                 */
     1140     7967    1           DA_PSR=B$TCB$->B$TCB.ALT$->B$SS.ASR;

   7967  4 001273   000000 471400 xsym               LDP1    B$TCB$
         4 001274   100000 473500                    LDP3    0,,PR1
         4 001275   300012 237100                    LDAQ    10,,PR3
         4 001276   000000 755000 xsym               STA     DA_PSR
         4 001277   000001 756000 xsym               STQ     DA_PSR+1

     1141     7968    1           DA_ASR=B$TCB$->B$TCB.ALT$->B$SS.ASR;

   7968  4 001300   100000 473500                    LDP3    0,,PR1
         4 001301   300012 237100                    LDAQ    10,,PR3
PL6.E3A0      #003=DAM$DUMPFILE File=DAM$MAP.:E05TSI                             TUE 07/29/97 12:52 Page:194
         4 001302   000000 755000 xsym               STA     DA_ASR
         4 001303   000001 756000 xsym               STQ     DA_ASR+1

     1142     7969    1           DA_CURCG.CG$=ADDR(NIL);

   7969  4 001304   000001 236000 xsym               LDQ     B_VECTNIL+1
         4 001305   000000 756000 xsym               STQ     DA_CURCG

     1143     7970    1           DA_INITIALIZED='1'B;

   7970  4 001306   400000 236003                    LDQ     -131072,DU
         4 001307   000000 756000 xsym               STQ     DA_INITIALIZED

     1144     7971    1           RETURN;

   7971  4 001310   000000 702200 xent               TSX2  ! X66_ARET

   7970  4 001311                       PMMEALT      null
     1145     7972    1   PMMEALT: ;
     1146     7973    1           DA_MAPERR=B$TCB$->B$TCB.ALT$->B$ALT.ERR;

   7973  4 001311   000000 470400 xsym               LDP0    B$TCB$
         4 001312   000000 471500                    LDP1    0,,PR0
         4 001313   100102 236100                    LDQ     66,,PR1
         4 001314   000000 756000 xsym               STQ     DA_MAPERR

     1147     7974    1   ALT:    ALTRETURN;

   7974  4 001315   000000 702200 xent  ALT          TSX2  ! X66_AALT

     1148     7975        /**/
     1149     7976        %EJECT;
PL6.E3A0      #003=DAM$DUMPFILE File=DAM$MAP.:E05TSI                             TUE 07/29/97 12:52 Page:195
     1150     7977        /**/
     1151     7978    1   DAM$SELECT: ENTRY(FID) ALTRET;

   7978  4 001316   000000 700200 xent  DAM$SELECT   TSX0  ! X66_AUTO_1
         4 001317   000022 000001                    ZERO    18,1

     1152     7979        /**/
     1153     7980    1           DA_NODEIDX=HOSTNODE;

   7980  4 001320   000446 235000 2                  LDA     HOSTNODE
         4 001321   000000 755000 xsym               STA     DA_NODEIDX

     1154     7981    1           RETURN;

   7981  4 001322   000000 702200 xent               TSX2  ! X66_ARET

     1155     7982        /**/
     1156     7983        /**/
     1157     7984        /**/
     1158     7985        %EJECT;
PL6.E3A0      #003=DAM$DUMPFILE File=DAM$MAP.:E05TSI                             TUE 07/29/97 12:52 Page:196
     1159     7986    1   SETERR: PROC(CODE) ALTRET;

   7986  4 001323   200014 741300       SETERR       STX1  ! WINDOWMAX+2,,AUTO

     1160     7987    2   DCL CODE SBIN;
     1161     7988    2           DA_MAPERR='040115000000'O;

   7988  4 001324   000002 236000 3                  LDQ     2
         4 001325   000000 756000 xsym               STQ     DA_MAPERR

     1162     7989    2           DA_MAPERR.CODE=CODE;

   7989  4 001326   200015 470500                    LDP0    @CODE,,AUTO
         4 001327   000000 236100                    LDQ     0,,PR0
         4 001330   000003 736000                    QLS     3
         4 001331   000000 676000 xsym               ERQ     DA_MAPERR
         4 001332   377770 376007                    ANQ     131064,DL
         4 001333   000000 656000 xsym               ERSQ    DA_MAPERR

     1163     7990    2           ALTRETURN;

   7990  4 001334   000000 702211                    TSX2  ! 0,X1
     1164     7991    2   END SETERR;
     1165     7992    1   END DAM$DUMPFILE;
     1166     7993        %EOD;

PL6.E3A0      #003=DAM$DUMPFILE File=DAM$MAP.:E05TSI                             TUE 07/29/97 12:52 Page:197
--  Include file information  --

   B$SS.:E05TOU  cannot be made into a system file and is referenced.
   B$JIT.:E05TOU  cannot be made into a system file and is referenced.
   B$USER.:E05TOU  cannot be made into a system file and is referenced.
   IR_DATA_M.:E05TOU  is referenced.
   CP_6_SUBS.:E05TOU  is referenced.
   NI$TABLES.:E05TOU  is referenced.
   B_ERRORS_C.:E05TOU  is referenced.
   B_SEGIDS_C.:E05TOU  is referenced.
   B_STRINGS_C.:E05TOU  is referenced.
   B_MLSMAC_C.:E05TOU  is referenced.
   B_ULSMAC_C.:E05TOU  is referenced.
   B_LSDATA_C.:E05TOU  cannot be made into a system file and is referenced.
   M_INFO_C.:E05TOU  is referenced.
   CP_6.:E05TOU  cannot be made into a system file and is referenced.
   DA_TEXTC_C.:E05TOU  is referenced.
   DA_PERR_C.:E05TOU  is referenced.
   DA_ANLZ_R.:E05TOU  cannot be made into a system file and is referenced.
   DA_MAP_R.:E05TOU  cannot be made into a system file and is referenced.
   B$JIT_C.:E05TOU  was found in the system file and is referenced.
   CP_6_C.:E05TOU  was found in the system file and is referenced.
      No diagnostics issued in procedure DAM$DUMPFILE.
PL6.E3A0      #003=DAM$DUMPFILE File=DAM$MAP.:E05TSI                             TUE 07/29/97 12:52 Page:198

 **** Variables and constants ****

  ****  Section 002  Data  DAM$DUMPFILE

  ****  Scalars and arrays  ****
OctLoc.c.b A Datatyp(siz) R M Lvl/name                 OctLoc.c.b A Datatyp(siz) R M Lvl/name

   210-0-0/d STRC(72)    r     1 DFKEY                    114-0-0/d STRC(1080)  r     1 FPT_CLOSE
   202-0-0/d STRC(216)   r     1 FPT_CVM                  152-0-0/d STRC(864)   r     1 FPT_FID
   244-0-0/d STRC(144)   r     1 FPT_FVP                  440-0-0/d STRC(72)    r     1 FPT_GDDL
   230-0-0/d STRC(216)   r     1 FPT_GDS_MAP              236-0-0/d STRC(216)   r     1 FPT_GDS_TIGR
   270-0-0/d STRC(432)   r     1 FPT_MONINFO                0-0-0/d STRC(2088)  r     1 FPT_OPEN
   212-0-0/d STRC(504)   r     1 FPT_READ                 256-0-0/d STRC(144)   r     1 FPT_SAD
   250-0-0/d STRC(216)   r     1 FPT_STD                  446-0-0/w UBIN        r     1 HOSTNODE
   304-0-0/d STRC(540)   r     1 MNINFO                   324-0-0/d STRC(468)   r     1 MNPTRS
   102-0-0/c STRC(72)    r     1 VLP_ACCT                  72-0-0/c STRC(288)   r     1 VLP_NAME
   110-0-0/c STRC(72)    r     1 VLP_PASS                 104-0-0/d STRC(90)    r     1 VLP_SN
   112-0-0/c STRC(72)    r     1 VLP_WSN                  442-0-0/d STRC(108)   r     1 VLR_GDDL
   342-0-0/d STRC(2232)  r     1 VLR_SITEINFO             262-0-0/d STRC(216)   r     1 WAIT4DUMP

  ****  Auto variables  ****

  ****  Scalars and arrays  ****
OctLoc.c.b A Datatyp(siz) R M Lvl/name                 OctLoc.c.b A Datatyp(siz) R M Lvl/name

    15-0-0/w PTR         r     1 @CODE                      3-0-0/w PTR         r     1 @FID
    *0-0-0/w SBIN        r     1 CODE                       6-0-0/w PTR         r     1 DS$
    *0-0-0/c ASTR(9)     r     1 FID                        4-0-0/w SBIN        r     1 I
     5-0-0/w SBIN        r     1 J                          7-0-0/w PTR         r     1 LS$
    11-0-0/w SBIN        r     1 SEGSIZE                   10-0-0/w SBIN        r     1 TIGRPGS
    12-0-0/w SBIN        r     1 WINDOWMAX

  ****  SYMREF variables  ****

  ****  Scalars and arrays  ****
OctLoc.c.b A Datatyp(siz) R M Lvl/name                 OctLoc.c.b A Datatyp(siz) R M Lvl/name

PL6.E3A0      #003=DAM$DUMPFILE File=DAM$MAP.:E05TSI                             TUE 07/29/97 12:52 Page:199
     0-0-0/w PTR         r     1 B$IS$                      0-0-0/w PTR         r     1 B$JIT$
     0-0-0/w PTR         r     1 B$TCB$                     0-0-0/w PTR         r     1 B$USRT$
     0-0-0/w STRC(72)    r     1 DA_ASR                     0-0-0/w SBIN        r     1 DA_CPU
     0-0-0/w SBIN        r     1 DA_CPU#                    0-0-0/w STRC        r     1 DA_CURCG
     0-0-0/w BIT         r     1 DA_DUMPFILE                0-0-0/w BIT         r     1 DA_INITIALIZED
     0-0-0/w STRC        r     1 DA_MAPERR                  0-0-0/w STRC(72)    r     1 DA_MAPSEG
     0-0-0/w SBIN        r     1 DA_MONPTP                  0-0-0/w SBIN        r     1 DA_MSCPG1
     0-0-0/w SBIN        r     1 DA_MSCPG2                  0-0-0/w SBIN        r     1 DA_MSCPG3
     0-0-0/w SBIN        r     1 DA_MUAIS                   0-0-0/w PTR         r     1 DA_NODEDIR$
     0-0-0/w SBIN        r     1 DA_NODEIDX                 0-0-0/w SBIN        r     1 DA_NUMSPCL
     0-0-0/w SBIN        r     1 DA_NXTSPCL                 0-0-0/w SBIN        r     1 DA_NXTWINDOW
     0-0-0/w STRC(72)    r     1 DA_PSR                     0-0-0/w PTR         r     1 DA_RVBUF$
     0-0-0/w STRC(108)   r     1 DA_SDASN(0:7)
     0-0-0/w BIT         r     1 DA_SYSTAC2                 0-0-0/w PTR         r     1 DA_TIGR$
     0-0-0/w STRC(72)    r     1 DA_TIGRSEG                 0-0-0/d REMB        r     1 DA_TRTN
     0-0-0/w PTR         r     1 DA_USERDIR$
     0-0-0/b STRC        r     1 DA_WINDOW(0:255)
     0-0-0/w SBIN        r     1 DA_WINDOWBASE              0-0-0/w SBIN        r     1 DA_WINDOWMAX
     0-0-0/w PTR         r     1 DA_WSPTD$                  0-0-0/w PTR         r     1 S$CU$

  ****  BASED and DCB variables  ****

  ****  Scalars and arrays  ****
OctLoc.c.b A Datatyp(siz) R M Lvl/name                 OctLoc.c.b A Datatyp(siz) R M Lvl/name

     0-0-0/w STRC(2448)  r     1 B$ALT                      0-0-0/d STRC(8856)  r     1 B$JIT
     0-0-0/d STRC(2304)  r     1 B$SS                       0-0-0/w STRC(144)   r     1 B$TCB
     0-0-0/w STRC(576)   r     1 B$USER(0:0)                0-0-0/w BIT (72)    r     1 DESC(0:0)
     0-0-0/d ASTR(3528)  r     1 F$DCB                      0-0-0N  NULL        r     1 M$DUMPFILE
     0-0-0/w STRC(1224)  r     1 NODEDIR                    0-0-0/w STRC        r     1 P
     0-0-0/c CHAR(4096)  r     1 PAGE                       0-0-0/d STRC(36864) r     1 RVBUFF
     0-0-0/w STRC        r     1 S$WSPTD(0:0)


   Procedure DAM$DUMPFILE requires 733 words for executable code.
   Procedure DAM$DUMPFILE requires 18 words of local(AUTO) storage.
PL6.E3A0      #003=DAM$DUMPFILE File=DAM$MAP.:E05TSI                             TUE 07/29/97 12:52 Page:200
          *** CROSS REFERENCE LISTING ***
**     DENOTES     IDENTIFIER DEFINITION
<<                 IDENTIFIER'S VALUE SET
>>                 IDENTIFIER'S VALUE USED
<>                 IDENTIFIER SET AND/OR USED
--                 IDENTIFIER REFERENCED
PL6.E3A0      #003=DAM$DUMPFILE File=DAM$MAP.:E05TSI                             TUE 07/29/97 12:52 Page:201
          MINI XREF LISTING

ALT
      7974**LABEL    7734--CALLALT  7836--CALLALT  7879--CALLALT  7957--CALLALT  7958--CALLALT
B$ALT.CODE
      7359**DCL      7359--REDEF    7360--REDEF    7360--REDEF
B$ALT.ERR
      7360**DCL      7866>>ASSIGN   7973>>ASSIGN
B$ALT.ERR.ERR#
      7361**DCL      7361--REDEF    7743>>IF       7758>>IF
B$ALT.EVID
      7360**DCL      7360--REDEF    7360--REDEF
B$DO.ECCINFO
      6490**DCL      6491--REDEF
B$IS$
      7381**DCL      7837>>ASSIGN   7959>>ASSIGN
B$JIT.CPFLAGS1.SLEAZE
      6667**DCL      6667--REDEF
B$JIT.DDLL
      6731**DCL      7901>>ASSIGN
B$JIT.DDUL
      6731**DCL      7877>>ASSIGN   7933>>ASSIGN
B$JIT.DLL
      6731**DCL      7877>>ASSIGN   7901>>ASSIGN   7933>>ASSIGN
B$JIT.ERR.MID
      6574**DCL      6574--REDEF
B$JIT.JRESPEAK
      6735**DCL      6736--REDEF
B$JIT.ORIGINATOR_PORT.FROM_CR
      6844**DCL      6844--REDEF    6845--REDEF
B$JIT.PCDD
      6733**DCL      7901>>ASSIGN
B$JIT.PNR
      6748**DCL      6748--REDEF
PL6.E3A0      #003=DAM$DUMPFILE File=DAM$MAP.:E05TSI                             TUE 07/29/97 12:52 Page:202
B$JIT.TSLINE
      6842**DCL      6843--REDEF
B$JIT.USER
      6573**DCL      7932>>ASSIGN
B$JIT$
      7691**DCL      6568--IMP-PTR  7877>>ASSIGN   7877>>ASSIGN   7901>>ASSIGN   7901>>ASSIGN   7901>>ASSIGN
      7932>>ASSIGN   7933>>ASSIGN   7933>>ASSIGN
B$SS.ASR
      6909**DCL      7892>>ASSIGN   7967>>ASSIGN   7968>>ASSIGN
B$SS.PSR
      6921**DCL      7891>>ASSIGN
B$SS.RVA
      6901**DCL      6902--REDEF
B$TCB.ALT$
      7355**DCL      7743>>IF       7758>>IF       7866>>ASSIGN   7967>>ASSIGN   7968>>ASSIGN   7973>>ASSIGN
B$TCB$
      7692**DCL      7743>>IF       7758>>IF       7866>>ASSIGN   7967>>ASSIGN   7968>>ASSIGN   7973>>ASSIGN
B$U.MISC
      6469**DCL      6470--REDEF
B$USER
      6514**DCL      7873--ASSIGN   7932--ASSIGN
B$USER.MISC
      6545**DCL      6546--REDEF
B$USRT$
      6557**DCL      7863<<ASSIGN   7871<<ASSIGN   7872--ASSIGN   7873>>ASSIGN   7930<<ASSIGN   7931--ASSIGN
      7932>>ASSIGN
BADCVM
      7780**LABEL    7774--CALLALT  7778--CALLALT
CODE IN PROCEDURE SETERR
      7987**DCL      7986--PROC     7989>>ASSIGN
DAA$ERRMSG
        18**DCL-ENT  7750--IF       7751--CALL
DAM$USECPU
        17**DCL-ENT  7835--CALL     7957--CALL
DAM$VPAGE
        16**DCL-ENT  7836--CALL     7958--CALL
PL6.E3A0      #003=DAM$DUMPFILE File=DAM$MAP.:E05TSI                             TUE 07/29/97 12:52 Page:203
DA_ASR
        60**DCL      7892<<ASSIGN   7968<<ASSIGN
DA_CPU
        46**DCL      7929<<ASSIGN   7947>>IF       7947>>IF
DA_CPU#
        48**DCL      7849>>ASSIGN
DA_CURCG.CG$
        61**DCL      7893<<ASSIGN   7969<<ASSIGN
DA_DUMPFILE
        47**DCL      7772>>IF       7783<<ASSIGN   7908>>IF       7934>>IF       7941<<ASSIGN
DA_INITIALIZED
        47**DCL      7739<<ASSIGN   7894<<ASSIGN   7908>>IF       7909<<ASSIGN   7970<<ASSIGN
DA_MAPERR
        56**DCL      7866<<ASSIGN   7905<<ASSIGN   7973<<ASSIGN   7988<<ASSIGN
DA_MAPERR.CODE
        56**DCL      7989<<ASSIGN
DA_MAPSEG
        57**DCL      7453--DCLINIT  7917>>IF       7920<<ASSIGN
DA_MAPSEG.BOUND
        57**DCL      7784>>IF       7785>>ASSIGN   7918>>ASSIGN
DA_MAPSEG.P
        57**DCL        58--REDEF
DA_MAPSEG.P$
        58**DCL      7788>>ASSIGN
DA_MONPTP
        49**DCL      7956<<ASSIGN
DA_MSCPG1
        50**DCL      7770>>DOINDEX  7902<<ASSIGN   7934>>DOINDEX
DA_MSCPG2
        52**DCL      7903<<ASSIGN
DA_MSCPG3
        54**DCL      7904<<ASSIGN
DA_MUAIS
        46**DCL      7826<<ASSIGN   7829<<ASSIGN   7864<<ASSIGN   7928<<ASSIGN
DA_NODEDIR$
        49**DCL      7641--IMP-PTR  7798<<ASSIGN   7801>>DOINDEX  7802>>IF       7809>>DOWHILE  7809>>DOWHILE
PL6.E3A0      #003=DAM$DUMPFILE File=DAM$MAP.:E05TSI                             TUE 07/29/97 12:52 Page:204
DA_NODEIDX
        48**DCL      7803<<ASSIGN   7809>>DOWHILE  7809>>DOWHILE  7811<<ASSIGN   7811>>ASSIGN   7813>>ASSIGN
      7980<<ASSIGN
DA_NUMSPCL
        56**DCL      7888<<ASSIGN   7946<<ASSIGN   7947<<ASSIGN
DA_NXTSPCL
        56**DCL      7887<<ASSIGN   7943<<ASSIGN
DA_NXTWINDOW
        47**DCL      7886<<ASSIGN   7942<<ASSIGN
DA_PSR
        59**DCL      7891<<ASSIGN   7967<<ASSIGN
DA_RVBUF$
        49**DCL      7647--IMP-PTR  7820<<ASSIGN   7826>>ASSIGN   7835>>CALL     7871>>ASSIGN   7873>>ASSIGN
      7891>>ASSIGN   7892>>ASSIGN   7893>>ASSIGN   7944<<ASSIGN
DA_SDASN.CVM
        43**DCL      7767<<ASSIGN   7914<<ASSIGN
DA_SDASN.DESC
        42**DCL      7766<<ASSIGN   7838<<ASSIGN   7913<<ASSIGN   7960<<ASSIGN   7962<<ASSIGN
DA_SDASN.DESC.BASE
        43**DCL      7850>>ASSIGN
DA_SDASN.DESC.BOUND
        42**DCL      7840>>ASSIGN
DA_SDASN.DESC.TYPE0
        42**DCL        42--REDEF
DA_SDASN.SID
        43**DCL      7858<<ASSIGN   7872>>ASSIGN   7890>>ASSIGN   7948>>ASSIGN   7951<<ASSIGN   7952>>ASSIGN
      7955>>ASSIGN   7964>>ASSIGN
DA_SDASN.SYSID
        43**DCL      7768<<ASSIGN   7839<<ASSIGN   7915<<ASSIGN   7961<<ASSIGN   7963<<ASSIGN
DA_SYSTAC2
        47**DCL      7758>>IF       7761<<ASSIGN
DA_TIGR$
        49**DCL      7890--ASSIGN   7964--ASSIGN
DA_TIGRSEG
        58**DCL      7469--DCLINIT  7862<<ASSIGN   7922>>IF       7925<<ASSIGN
DA_TIGRSEG.BOUND
PL6.E3A0      #003=DAM$DUMPFILE File=DAM$MAP.:E05TSI                             TUE 07/29/97 12:52 Page:205
        58**DCL      7842>>IF       7843>>ASSIGN   7869>>ASSIGN   7923>>ASSIGN
DA_TIGRSEG.P
        58**DCL        59--REDEF
DA_TIGRSEG.P.SID
        59**DCL      7858>>ASSIGN
DA_TIGRSEG.P$
        59**DCL      7846>>ASSIGN
DA_TRTN
        61**DCL      7744<<REMEMBR
DA_USERDIR$
        50**DCL      7825<<ASSIGN   7828<<ASSIGN   7945<<ASSIGN
DA_WINDOW
        41**DCL      7771>>IF       7780<<ASSIGN   7899<<ASSIGN   7935>>IF       7938<<ASSIGN
DA_WINDOWBASE
        46**DCL      7837>>ASSIGN   7876>>ASSIGN   7878>>IF       7901<<ASSIGN   7902>>ASSIGN   7903>>ASSIGN
      7904>>ASSIGN   7959>>ASSIGN
DA_WINDOWMAX
        46**DCL      7876<<ASSIGN   7878>>IF       7885>>IF       7885<<ASSIGN   7933<<ASSIGN
DA_WSPTD$
        49**DCL      7693--IMP-PTR  7889<<ASSIGN   7955--ASSIGN   7956>>ASSIGN
DESC
      7382**DCL      7838>>ASSIGN   7960>>ASSIGN   7962>>ASSIGN
DFKEY
      7394**DCL      7420--DCLINIT  7421--DCLINIT  7789<<ASSIGN
DFKEY.K.NODEIDX
      7398**DCL      7813<<ASSIGN
DFKEY.K.STYP
      7398**DCL      7815<<ASSIGN   7822<<ASSIGN   7848<<ASSIGN
DFKEY.K.TYP
      7398**DCL      7814<<ASSIGN   7847<<ASSIGN
DFKEY.K.USR#
      7398**DCL      7816<<ASSIGN   7849<<ASSIGN
DFKEY.K.VP#
      7399**DCL      7817<<ASSIGN   7850<<ASSIGN   7856<<ASSIGN   7856>>ASSIGN
DS$
        24**DCL      7788<<ASSIGN   7790>>ASSIGN   7798>>ASSIGN   7799<<ASSIGN   7799>>ASSIGN   7818>>ASSIGN
PL6.E3A0      #003=DAM$DUMPFILE File=DAM$MAP.:E05TSI                             TUE 07/29/97 12:52 Page:206
      7820>>ASSIGN   7821<<ASSIGN   7821>>ASSIGN   7823>>ASSIGN   7825>>ASSIGN
F$DCB.ACTPOS
      7330**DCL      7330--REDEF
F$DCB.ARS#
      7304**DCL      7304--REDEF
F$DCB.ATTR
      7323**DCL      7324--REDEF
F$DCB.BORROW
      7338**DCL      7338--REDEF    7338--REDEF    7338--REDEF
F$DCB.DCBNAME.L
      7352**DCL      7352--IMP-SIZ
F$DCB.EOMCHAR#
      7308**DCL      7308--REDEF
F$DCB.FCD#
      7317**DCL      7740>>IF       7910>>IF
F$DCB.FLDID
      7333**DCL      7333--REDEF
F$DCB.FORM$
      7327**DCL      7327--REDEF
F$DCB.FSECT
      7343**DCL      7343--REDEF
F$DCB.FSN#
      7320**DCL      7320--REDEF    7320--REDEF    7321--REDEF
F$DCB.HEADER$
      7326**DCL      7326--REDEF
F$DCB.IXTNSIZE#
      7324**DCL      7324--REDEF
F$DCB.LASTSTA$
      7313**DCL      7313--REDEF
F$DCB.LVL
      7339**DCL      7339--REDEF
F$DCB.NAME#.C
      7314**DCL      7314--REDEF
F$DCB.NOEOF
      7336**DCL      7336--REDEF
F$DCB.NRECS#
PL6.E3A0      #003=DAM$DUMPFILE File=DAM$MAP.:E05TSI                             TUE 07/29/97 12:52 Page:207
      7325**DCL      7325--REDEF
F$DCB.NRECX
      7344**DCL      7344--REDEF
F$DCB.OHDR
      7336**DCL      7336--REDEF
F$DCB.ORG#
      7319**DCL      7319--REDEF
F$DCB.PRECNO
      7342**DCL      7342--REDEF
F$DCB.RCSZ
      7348**DCL      7348--REDEF
F$DCB.RES#
      7315**DCL      7315--REDEF
F$DCB.SETX
      7327**DCL      7327--REDEF
F$DCB.TAB$
      7327**DCL      7327--REDEF
F$DCB.TDA
      7341**DCL      7342--REDEF
F$DCB.WSN#
      7315**DCL      7315--REDEF
FID
        10**DCL         6--PROC     7705--IF       7978--ENTRY
FID.C
        12**DCL      7729--ASSIGN
FID.L
        11**DCL        12--IMP-SIZ  7706>>IF       7706>>IF       7706>>IF       7712>>IF       7715>>IF
      7729>>ASSIGN
FINDHOST
      7800**LABEL    7805--EXIT
FPT_CLOSE
      7249**DCL      7741<>CALL     7911<>CALL
FPT_CLOSE.SN_
      7249**DCL      7249--REDEF
FPT_CLOSE.UTL_
      7250**DCL      7250--REDEF
PL6.E3A0      #003=DAM$DUMPFILE File=DAM$MAP.:E05TSI                             TUE 07/29/97 12:52 Page:208
FPT_CLOSE.V
      7254**DCL      7249--DCLINIT
FPT_CLOSE.V.EXPIRE#
      7264**DCL      7264--REDEF
FPT_CLOSE.V.TYPE#
      7262**DCL      7262--REDEF
FPT_CLOSE.V.XTNSIZE#
      7259**DCL      7259--REDEF    7261--REDEF
FPT_CVM
      7376**DCL      7778<>CALL
FPT_CVM.V
      7376**DCL      7376--DCLINIT
FPT_CVM.V.VPNO#
      7378**DCL      7777<<ASSIGN
FPT_FID
      7285**DCL      7730<>CALL
FPT_FID.TEXTFID_
      7285**DCL      7729<<ASSIGN
FPT_FID.V
      7289**DCL      7285--DCLINIT
FPT_FVP
      7485**DCL      7774<>CALL     7937<>CALL
FPT_FVP.V
      7485**DCL      7485--DCLINIT
FPT_FVP.V.PNO#
      7486**DCL      7773<<ASSIGN   7936<<ASSIGN
FPT_GDDL
      7612**DCL      7875<>CALL
FPT_GDS_MAP
      7453**DCL      7786<>CALL     7919<>CALL
FPT_GDS_MAP.V
      7453**DCL      7453--DCLINIT
FPT_GDS_MAP.V.SEGSIZE#
      7456**DCL      7785<<ASSIGN   7918<<ASSIGN
FPT_GDS_TIGR
      7469**DCL      7844<>CALL     7861<>CALL     7870<>CALL     7924<>CALL
PL6.E3A0      #003=DAM$DUMPFILE File=DAM$MAP.:E05TSI                             TUE 07/29/97 12:52 Page:209
FPT_GDS_TIGR.V
      7469**DCL      7469--DCLINIT
FPT_GDS_TIGR.V.SEGSIZE#
      7472**DCL      7843<<ASSIGN   7860<<ASSIGN   7869<<ASSIGN   7923<<ASSIGN
FPT_MONINFO
      7545**DCL      7927<>CALL
FPT_OPEN
      7103**DCL      7742<>CALL
FPT_OPEN.ACCT_
      7107**DCL      7708<<ASSIGN   7724<<ASSIGN
FPT_OPEN.ACSVEH_
      7105**DCL      7106--REDEF
FPT_OPEN.ALTKEYS_
      7111**DCL      7112--REDEF    7112--REDEF
FPT_OPEN.HDR_
      7110**DCL      7111--REDEF
FPT_OPEN.NAME_
      7104**DCL      7707<<ASSIGN   7723<<ASSIGN
FPT_OPEN.SN_
      7103**DCL      7709<<ASSIGN   7725<<ASSIGN
FPT_OPEN.TAB_
      7109**DCL      7110--REDEF
FPT_OPEN.UHL_
      7103**DCL      7104--REDEF    7104--REDEF
FPT_OPEN.V
      7112**DCL      7103--DCLINIT
FPT_OPEN.V.ASN#
      7122**DCL      7288--DCLINIT  7733>>IF       7733>>IF
FPT_OPEN.V.FSN#
      7143**DCL      7143--REDEF    7143--REDEF
FPT_OPEN.V.OPER.NXTF#
      7115**DCL      7710<<ASSIGN   7718<<ASSIGN   7726<<ASSIGN
FPT_OPEN.V.OPER.THISF#
      7115**DCL      7711<<ASSIGN   7719<<ASSIGN   7727<<ASSIGN
FPT_OPEN.V.RES#
      7127**DCL      7288--DCLINIT
PL6.E3A0      #003=DAM$DUMPFILE File=DAM$MAP.:E05TSI                             TUE 07/29/97 12:52 Page:210
FPT_OPEN.V.SRCHCOND.REV#
      7121**DCL      7713<<ASSIGN   7716<<ASSIGN   7728<<ASSIGN
FPT_OPEN.WSN_
      7109**DCL      7109--REDEF
FPT_READ
      7420**DCL      7791<>CALL     7819<>CALL     7824<>CALL     7853<>CALL
FPT_READ.BUF_
      7422**DCL      7790<<ASSIGN   7818<<ASSIGN   7823<<ASSIGN   7846<<ASSIGN
FPT_READ.BUF_.BUF$
      7423**DCL      7855<<ASSIGN   7855>>ASSIGN
FPT_READ.STATION_
      7423**DCL      7424--REDEF
FPT_READ.V
      7424**DCL      7420--DCLINIT
FPT_READ.V.DVBYTE.REREAD#
      7435**DCL      7435--REDEF
FPT_READ.V.INDX#
      7433**DCL      7433--REDEF
FPT_SAD
      7514**DCL      7950<>CALL     7954<>CALL
FPT_SAD.V
      7514**DCL      7514--DCLINIT
FPT_SAD.V.MONSID#
      7515**DCL      7949<<ASSIGN   7953<<ASSIGN
FPT_SAD.V.USERSID#
      7514**DCL      7948<<ASSIGN   7952<<ASSIGN
FPT_STD.V
      7500**DCL      7499--DCLINIT
HOSTNODE
      7645**DCL      7804<<ASSIGN   7980>>ASSIGN
I
        22**DCL      7765<<DOINDEX  7766>>ASSIGN   7767>>ASSIGN   7768>>ASSIGN   7770<<DOINDEX  7771>>IF
      7773>>ASSIGN   7777>>ASSIGN   7780>>ASSIGN   7801<<DOINDEX  7802>>IF       7803>>ASSIGN   7804>>ASSIGN
      7852<<DOINDEX  7898<<DOINDEX  7899>>ASSIGN   7912<<DOINDEX  7913>>ASSIGN   7914>>ASSIGN   7915>>ASSIGN
      7934<<DOINDEX  7935>>IF       7936>>ASSIGN   7938>>ASSIGN
J
PL6.E3A0      #003=DAM$DUMPFILE File=DAM$MAP.:E05TSI                             TUE 07/29/97 12:52 Page:211
        23**DCL      7851<<ASSIGN   7854<<ASSIGN   7854>>ASSIGN   7859>>IF       7869>>ASSIGN
LS$
        25**DCL      7837<<ASSIGN   7838>>ASSIGN   7959<<ASSIGN   7960>>ASSIGN   7962>>ASSIGN
M$CLOSE
       179**DCL-ENT  7741--CALL     7911--CALL
M$CVM
       217**DCL-ENT  7778--CALL
M$DUMPFILE
      7031**DCL      7740--IF       7910--IF
M$FDS
       214**DCL-ENT  7861--CALL     7870--CALL     7919--CALL     7924--CALL
M$FID
       242**DCL-ENT  7730--CALL
M$FVP
       216**DCL-ENT  7774--CALL     7937--CALL
M$GDDL
       216**DCL-ENT  7875--CALL
M$GDS
       214**DCL-ENT  7786--CALL     7844--CALL
M$MONINFO
       247**DCL-ENT  7927--CALL
M$OPEN
       179**DCL-ENT  7742--CALL
M$READ
       180**DCL-ENT  7791--CALL     7819--CALL     7824--CALL     7853--CALL
M$RENV
       235**DCL-ENT  7753--CALL     7755--CALL
M$RETRY
       236**DCL-ENT  7754--CALL
M$SAD
       218**DCL-ENT  7950--CALL     7954--CALL
M$SENV
       235**DCL-ENT  7745--CALL
M$WAIT
       237**DCL-ENT  7752--CALL
MNINFO
PL6.E3A0      #003=DAM$DUMPFILE File=DAM$MAP.:E05TSI                             TUE 07/29/97 12:52 Page:212
      7560**DCL      7545--DCLINIT
MNINFO.MUAIS#
      7562**DCL      7928>>ASSIGN
MNPTRS
      7578**DCL      7546--DCLINIT
MNPTRS.B$USRT$
      7579**DCL      7930>>ASSIGN
NODEDIR
      7641**DCL      7790--ASSIGN   7799--ASSIGN
NODEDIR.N
      7641**DCL      7801>>DOINDEX  7809>>DOWHILE
NODEDIR.NODE.NODENAME
      7641**DCL      7802>>IF       7809>>DOWHILE
NXTPG
      7938**LABEL    7937--CALLALT
NXTTIGR
      7855**LABEL    7853--CALLALT
OPEN2
      7742**LABEL    7763--GOTO
P
      7682**DCL      7890<<ASSIGN   7955<<ASSIGN   7964<<ASSIGN
P.SID
      7687**DCL      7872<<ASSIGN   7931<<ASSIGN
PAGE
      7690**DCL      7818--ASSIGN   7823--ASSIGN   7846--ASSIGN
PMMEALT
      7970**LABEL    7730--CALLALT  7741--CALLALT  7758--GOTO     7786--CALLALT  7819--CALLALT  7844--CALLALT
      7870--CALLALT  7919--CALLALT  7924--CALLALT  7927--CALLALT  7950--CALLALT  7954--CALLALT
RENVALT
      7755**LABEL    7744--REMEMBR
RVBUFF.B$USRT$
      7658**DCL      7871>>ASSIGN
RVBUFF.B_MUAIS
      7659**DCL      7826>>ASSIGN
RVBUFF.CUN
      7657**DCL      7873>>ASSIGN
PL6.E3A0      #003=DAM$DUMPFILE File=DAM$MAP.:E05TSI                             TUE 07/29/97 12:52 Page:213
RVBUFF.CURCG.CG$
      7670**DCL      7893>>ASSIGN
RVBUFF.SSFRAME
      7657**DCL      7891--ASSIGN   7892--ASSIGN
RVBUFF.S_PNO
      7658**DCL      7835<>CALL
S$CU$
      6556**DCL      7865<<ASSIGN   7873<<ASSIGN   7932<<ASSIGN
S$WSPTD.BLKNO
      7694**DCL      7956>>ASSIGN
SEGSIZE
        27**DCL      7841<<ASSIGN   7842>>IF       7843>>ASSIGN
SETERR
      7986**PROC     7734--CALL     7746--CALL     7792--CALL     7830--CALL     7879--CALL
TIGRPGS
        26**DCL      7840<<ASSIGN   7841>>ASSIGN   7852>>DOINDEX
UDERR
      7828**LABEL    7824--CALLALT
VLP_ACCT
      7185**DCL      7108--DCLINIT  7286--DCLINIT  7724--ASSIGN
VLP_ACCT.ACCT#
      7185**DCL      7759>>IF       7760<<ASSIGN   7762<<ASSIGN
VLP_NAME
      7172**DCL      7104--DCLINIT  7286--DCLINIT  7723--ASSIGN
VLP_PASS
      7211**DCL      7105--DCLINIT  7287--DCLINIT
VLP_SN
      7198**DCL      7103--DCLINIT  7287--DCLINIT  7725--ASSIGN
VLP_WSN
      7224**DCL      7109--DCLINIT  7287--DCLINIT
VLR_GDDL
      7625**DCL      7612--DCLINIT
VLR_GDDL.AVAIL_PGS#
      7626**DCL      7876>>ASSIGN
VLR_SITEINFO
      7593**DCL      7545--DCLINIT
PL6.E3A0      #003=DAM$DUMPFILE File=DAM$MAP.:E05TSI                             TUE 07/29/97 12:52 Page:214
VLR_SITEINFO.CPU_TYPE#
      7597**DCL      7929>>ASSIGN
WAIT4DUMP
      7529**DCL      7752<>CALL
WAIT4DUMP.V
      7530**DCL      7529--DCLINIT
WINDOWMAX
        28**DCL      7877<<ASSIGN   7885>>IF       7885>>ASSIGN

PL6.E3A0      #004=DAM$FREEM File=DAM$MAP.:E05TSI                                TUE 07/29/97 12:53 Page:215
     1167        1        /*T***********************************************************/
     1168        2        /*T*                                                         */
     1169        3        /*T* Copyright (c) Bull HN Information Systems Inc., 1997    */
     1170        4        /*T*                                                         */
     1171        5        /*T***********************************************************/
     1172        6        DAM$FREEM: PROC;
     1173        7        %INCLUDE DA_MAP_R;
     1174       37    1   DCL I SBIN;
     1175       38        /**/
     1176       39    2           DO I=0 TO DA_NUMSPCL-1;
     1177       40    2              DA_SDASN.DESC(I)='0'B;
     1178       41    2              DA_SDASN.SYSID(I)=0;
     1179       42    2              END;
     1180       43    2           DO I=DA_MSCPG1 TO 255;
     1181       44    2              DA_WINDOW.WSQ(I)=511;
     1182       45    2              END;
     1183       46    1           DA_NXTSPCL=0;
     1184       47    1           DA_NXTWINDOW=0;
     1185       48    1           RETURN;
     1186       49    1   END DAM$FREEM;
     1187       50        %EOD;

PL6.E3A0      #004=DAM$FREEM File=DAM$MAP.:E05TSI                                TUE 07/29/97 12:53 Page:216
--  Include file information  --

   DA_MAP_R.:E05TOU  cannot be made into a system file and is referenced.
   B$JIT_C.:E05TOU  was found in the system file and is never referenced.
   CP_6_C.:E05TOU  was found in the system file and is never referenced.
      No diagnostics issued in procedure DAM$FREEM.

   Procedure DAM$FREEM requires 27 words for executable code.
   Procedure DAM$FREEM requires 4 words of local(AUTO) storage.

PL6.E3A0      #004=DAM$FREEM File=DAM$MAP.:E05TSI                                TUE 07/29/97 12:53 Page:217

 Object Unit name= DAM$FREEM                                  File name= DAM$MAP.:E05TOU
 UTS= JUL 29 '97 12:53:02.72 TUE                              Compiler= PL-6/E31         Sev=      00
 SharedLib= :SHARED_SYSTEM                                    Alt SharedLib=


    ****  Control sections  ****

 Sect   Type Bound  Init  Size OctSiz  Section name(segment info)
    0   Proc  even  none    27     33  DAM$FREEM

    ****  Entry defs  ****

                              Check   Calling
                             calling  sequence
  Sect OctLoc Primary Altret sequence   type   Parms  Name
     0      0   yes            yes      Std        0  DAM$FREEM

  ****  Entry refs  ****

         Check        Calling
        calling       sequence
Altret sequence SRef   type   Args  Name
                       nStd      0 X66_AUTO_0
                       nStd      0 X66_ARET

  ****  Data refs  ****

  Flags:  r = read only, s = secondary
Flgs Name                             Flgs Name                             Flgs Name
     DA_WINDOW                             DA_SDASN                              DA_NXTWINDOW
     DA_MSCPG1                             DA_NXTSPCL                            DA_NUMSPCL
PL6.E3A0      #004=DAM$FREEM File=DAM$MAP.:E05TSI                                TUE 07/29/97 12:53 Page:218


     1167        1        /*T***********************************************************/
     1168        2        /*T*                                                         */
     1169        3        /*T* Copyright (c) Bull HN Information Systems Inc., 1997    */
     1170        4        /*T*                                                         */
     1171        5        /*T***********************************************************/
     1172        6        DAM$FREEM: PROC;

      6  0 000000   000000 700200 xent  DAM$FREEM    TSX0  ! X66_AUTO_0
         0 000001   000004 000000                    ZERO    4,0

     1173        7        %INCLUDE DA_MAP_R;
     1174       37    1   DCL I SBIN;
     1175       38        /**/
     1176       39    2           DO I=0 TO DA_NUMSPCL-1;

     39  0 000002   200003 450100                    STZ     I,,AUTO
         0 000003   000013 710000 0                  TRA     s:42+1

     1177       40    2              DA_SDASN.DESC(I)='0'B;

     40  0 000004   200003 236100                    LDQ     I,,AUTO
         0 000005   000003 402007                    MPY     3,DL
         0 000006   000000 450006 xsym               STZ     DA_SDASN,QL
         0 000007   000001 450006 xsym               STZ     DA_SDASN+1,QL

     1178       41    2              DA_SDASN.SYSID(I)=0;

     41  0 000010   000000 220003                    LDX0    0,DU
         0 000011   000002 440006 xsym               SXL0    DA_SDASN+2,QL

     1179       42    2              END;

     42  0 000012   200003 054100                    AOS     I,,AUTO
         0 000013   200003 236100                    LDQ     I,,AUTO
         0 000014   000000 116000 xsym               CMPQ    DA_NUMSPCL
         0 000015   000004 604000 0                  TMI     s:40
PL6.E3A0      #004=DAM$FREEM File=DAM$MAP.:E05TSI                                TUE 07/29/97 12:53 Page:219

     1180       43    2           DO I=DA_MSCPG1 TO 255;

     43  0 000016   000000 235000 xsym               LDA     DA_MSCPG1
         0 000017   200003 755100                    STA     I,,AUTO
         0 000020   000025 710000 0                  TRA     s:45+1

     1181       44    2              DA_WINDOW.WSQ(I)=511;

     44  0 000021   200003 720100                    LXL0    I,,AUTO
         0 000022   777000 236007                    LDQ     -512,DL
         0 000023   000000 256010 xsym               ORSQ    DA_WINDOW,X0

     1182       45    2              END;

     45  0 000024   200003 054100                    AOS     I,,AUTO
         0 000025   200003 235100                    LDA     I,,AUTO
         0 000026   000377 115007                    CMPA    255,DL
         0 000027   000021 604400 0                  TMOZ    s:44

     1183       46    1           DA_NXTSPCL=0;

     46  0 000030   000000 450000 xsym               STZ     DA_NXTSPCL

     1184       47    1           DA_NXTWINDOW=0;

     47  0 000031   000000 450000 xsym               STZ     DA_NXTWINDOW

     1185       48    1           RETURN;

     48  0 000032   000000 702200 xent               TSX2  ! X66_ARET
     1186       49    1   END DAM$FREEM;
     1187       50        %EOD;

PL6.E3A0      #004=DAM$FREEM File=DAM$MAP.:E05TSI                                TUE 07/29/97 12:53 Page:220
--  Include file information  --

   DA_MAP_R.:E05TOU  cannot be made into a system file and is referenced.
   B$JIT_C.:E05TOU  was found in the system file and is never referenced.
   CP_6_C.:E05TOU  was found in the system file and is never referenced.
      No diagnostics issued in procedure DAM$FREEM.
PL6.E3A0      #004=DAM$FREEM File=DAM$MAP.:E05TSI                                TUE 07/29/97 12:53 Page:221

 **** Variables and constants ****

  ****  Auto variables  ****

  ****  Scalars and arrays  ****
OctLoc.c.b A Datatyp(siz) R M Lvl/name                 OctLoc.c.b A Datatyp(siz) R M Lvl/name

     3-0-0/w SBIN        r     1 I

  ****  SYMREF variables  ****

  ****  Scalars and arrays  ****
OctLoc.c.b A Datatyp(siz) R M Lvl/name                 OctLoc.c.b A Datatyp(siz) R M Lvl/name

     0-0-0/w SBIN        r     1 DA_MSCPG1                  0-0-0/w SBIN        r     1 DA_NUMSPCL
     0-0-0/w SBIN        r     1 DA_NXTSPCL                 0-0-0/w SBIN        r     1 DA_NXTWINDOW
     0-0-0/w STRC(108)   r     1 DA_SDASN(0:7)
     0-0-0/b STRC        r     1 DA_WINDOW(0:255)


   Procedure DAM$FREEM requires 27 words for executable code.
   Procedure DAM$FREEM requires 4 words of local(AUTO) storage.
PL6.E3A0      #004=DAM$FREEM File=DAM$MAP.:E05TSI                                TUE 07/29/97 12:53 Page:222
          *** CROSS REFERENCE LISTING ***
**     DENOTES     IDENTIFIER DEFINITION
<<                 IDENTIFIER'S VALUE SET
>>                 IDENTIFIER'S VALUE USED
<>                 IDENTIFIER SET AND/OR USED
--                 IDENTIFIER REFERENCED
PL6.E3A0      #004=DAM$FREEM File=DAM$MAP.:E05TSI                                TUE 07/29/97 12:53 Page:223
          MINI XREF LISTING

DA_MAPSEG.P
        32**DCL        33--REDEF
DA_MSCPG1
        25**DCL        43>>DOINDEX
DA_NUMSPCL
        31**DCL        39>>DOINDEX
DA_NXTSPCL
        31**DCL        46<<ASSIGN
DA_NXTWINDOW
        22**DCL        47<<ASSIGN
DA_SDASN.DESC
        17**DCL        40<<ASSIGN
DA_SDASN.DESC.TYPE0
        17**DCL        17--REDEF
DA_SDASN.SYSID
        18**DCL        41<<ASSIGN
DA_TIGRSEG.P
        33**DCL        34--REDEF
DA_WINDOW.WSQ
        16**DCL        44<<ASSIGN
I
        37**DCL        39<<DOINDEX    40>>ASSIGN     41>>ASSIGN     43<<DOINDEX    44>>ASSIGN

PL6.E3A0      #005=DAM$USECPU File=DAM$MAP.:E05TSI                               TUE 07/29/97 12:53 Page:224
     1188        1        /*T***********************************************************/
     1189        2        /*T*                                                         */
     1190        3        /*T* Copyright (c) Bull HN Information Systems Inc., 1997    */
     1191        4        /*T*                                                         */
     1192        5        /*T***********************************************************/
     1193        6        DAM$USECPU: PROC(CPU#) ALTRET;
     1194        7    1   DCL CPU# SBIN;
     1195        8        /**/
     1196        9    1   DCL DAM$FREEM ENTRY;
     1197       10    1   DCL DAM$VPAGE ENTRY(5) ALTRET;
     1198       11    1   DCL DAS$SETNODE ENTRY ALTRET OPTIONAL;
     1199       12        /**/
     1200       13        %INCLUDE DA_PERR_C;
     1201       77        %INCLUDE B$MAP;
     1202      176    1   DCL PT$ PTR;
     1203      177        %INCLUDE M_INFO_C;
     1204      317        %INCLUDE B_STRINGS_C;
     1205      446        %INCLUDE B_LSDATA_C;
     1206     3652    1   DCL B$JIT$ PTR SYMREF;
     1207     3653        %INCLUDE B$JIT;
     1208     3943    1   DCL B$IS$ PTR SYMREF;
     1209     3944    1   DCL PT(0:5) SBIN CONSTANT INIT(%(MASTERPT_BASE%/4096),
     1210     3945    1                                  %(SLV1PT_BASE%/4096),
     1211     3946    1                                  %(SLV2PT_BASE%/4096),
     1212     3947    1                                  %(SLV3PT_BASE%/4096),
     1213     3948    1                                  %(SLV4PT_BASE%/4096),
     1214     3949    1                                  %(SLV5PT_BASE%/4096));
     1215     3950        %INCLUDE DA_MAP_R;
     1216     3980        %EJECT;
PL6.E3A0      #005=DAM$USECPU File=DAM$MAP.:E05TSI                               TUE 07/29/97 12:53 Page:225
     1217     3981    1           IF CPU#>5 THEN GOTO BADCPU;
     1218     3982    1           CALL DAM$FREEM;
     1219     3983    2           IF NOT DA_DUMPFILE THEN DO;
     1220     3984    2              CALL DAM$VPAGE(0,0,0,%MONWSQ,1) ALTRET(VPAGEALT);
     1221     3985    2              PT$=PINCRW(B$IS$,DA_WINDOWBASE*1024);
     1222     3986    2              IF PT$->B$MAP.RPN(PT(CPU#))~=1 THEN
     1223     3987    2                 IF DA_CPU = %DPS90XA OR DA_CPU = %DPS8000 THEN
     1224     3988    2                    DA_MONPTP=PT$->B$MAP.RPN(PT(CPU#));
     1225     3989    2                 ELSE
     1226     3990    2                    DA_MONPTP=PT$->B$MAP.RPN(PT(CPU#))*16;
     1227     3991    3              ELSE DO;
     1228     3992    3   BADCPU:       DA_MAPERR='040115000000'O;
     1229     3993    3                 DA_MAPERR.CODE=%E$DA_NO_CPU;
     1230     3994        /*E*    ERROR:   DAM-E$DA_NO_CPU
     1231     3995                MESSAGE: The specified CPU is not configured in this system.
     1232     3996                                                                           */
     1233     3997    3   VPAGEALT:     ALTRETURN;
     1234     3998    3                 END;
     1235     3999    2              END;
     1236     4000    1           DA_CPU#=CPU#;
     1237     4001    1           IF ENTADDR(DAS$SETNODE)~=ENTADDR(NIL)
     1238     4002    1           THEN CALL DAS$SETNODE;
     1239     4003    1           RETURN;
     1240     4004    1   END DAM$USECPU;
     1241     4005        %EOD;

PL6.E3A0      #005=DAM$USECPU File=DAM$MAP.:E05TSI                               TUE 07/29/97 12:53 Page:226
--  Include file information  --

   DA_MAP_R.:E05TOU  cannot be made into a system file and is referenced.
   B$JIT.:E05TOU  cannot be made into a system file and is referenced.
   B_MLSMAC_C.:E05TOU  is referenced.
   B_ULSMAC_C.:E05TOU  is referenced.
   B_LSDATA_C.:E05TOU  cannot be made into a system file and is referenced.
   B_STRINGS_C.:E05TOU  is referenced.
   M_INFO_C.:E05TOU  is referenced.
   B$MAP.:E05TOU  cannot be made into a system file and is referenced.
   DA_PERR_C.:E05TOU  is referenced.
   B$JIT_C.:E05TOU  was found in the system file and is referenced.
   CP_6_C.:E05TOU  was found in the system file and is never referenced.
      No diagnostics issued in procedure DAM$USECPU.

   Procedure DAM$USECPU requires 60 words for executable code.
   Procedure DAM$USECPU requires 6 words of local(AUTO) storage.

PL6.E3A0      #005=DAM$USECPU File=DAM$MAP.:E05TSI                               TUE 07/29/97 12:53 Page:227

 Object Unit name= DAM$USECPU                                 File name= DAM$MAP.:E05TOU
 UTS= JUL 29 '97 12:53:04.92 TUE                              Compiler= PL-6/E31         Sev=      00
 SharedLib= :SHARED_SYSTEM                                    Alt SharedLib=


    ****  Control sections  ****

 Sect   Type Bound  Init  Size OctSiz  Section name(segment info)
    0  RoData even  UTS      7      7  DAM$USECPU
    1   Proc  even  none    60     74  DAM$USECPU
    2  RoData even  none     7      7  DAM$USECPU

    ****  Entry defs  ****

                              Check   Calling
                             calling  sequence
  Sect OctLoc Primary Altret sequence   type   Parms  Name
     1      0   yes    yes     yes      Std        1  DAM$USECPU

  ****  Entry refs  ****

         Check        Calling
        calling       sequence
Altret sequence SRef   type   Args  Name
         yes           Std       0 DAM$FREEM
 yes     yes           Std       5 DAM$VPAGE
 yes     yes    yes    Std       0 DAS$SETNODE
                       nStd      0 X66_AUTO_1
                       Std       0 B_CONSPOOL_D
                       nStd      0 X66_AALT
                       nStd      0 X66_ARET
PL6.E3A0      #005=DAM$USECPU File=DAM$MAP.:E05TSI                               TUE 07/29/97 12:53 Page:228

  ****  Data refs  ****

  Flags:  r = read only, s = secondary
Flgs Name                             Flgs Name                             Flgs Name
     B$JIT$                                B$IS$                                 DA_CPU
     DA_WINDOWBASE                         DA_DUMPFILE                           DA_CPU#
     DA_MONPTP                             DA_MAPERR                             B_VECTNIL

  ****  Segment refs  ****

  Flags:  r = read only, s = secondary
Flgs Name                             Flgs Name                             Flgs Name
     ISSID
PL6.E3A0      #005=DAM$USECPU File=DAM$MAP.:E05TSI                               TUE 07/29/97 12:53 Page:229


     1188        1        /*T***********************************************************/
     1189        2        /*T*                                                         */
     1190        3        /*T* Copyright (c) Bull HN Information Systems Inc., 1997    */
     1191        4        /*T*                                                         */
     1192        5        /*T***********************************************************/
     1193        6        DAM$USECPU: PROC(CPU#) ALTRET;

      6  1 000000   000000 700200 xent  DAM$USECPU   TSX0  ! X66_AUTO_1
         1 000001   000006 000001                    ZERO    6,1

     1194        7    1   DCL CPU# SBIN;
     1195        8        /**/
     1196        9    1   DCL DAM$FREEM ENTRY;
     1197       10    1   DCL DAM$VPAGE ENTRY(5) ALTRET;
     1198       11    1   DCL DAS$SETNODE ENTRY ALTRET OPTIONAL;
     1199       12        /**/
     1200       13        %INCLUDE DA_PERR_C;
     1201       77        %INCLUDE B$MAP;
     1202      176    1   DCL PT$ PTR;
     1203      177        %INCLUDE M_INFO_C;
     1204      317        %INCLUDE B_STRINGS_C;
     1205      446        %INCLUDE B_LSDATA_C;
     1206     3652    1   DCL B$JIT$ PTR SYMREF;
     1207     3653        %INCLUDE B$JIT;
     1208     3943    1   DCL B$IS$ PTR SYMREF;
     1209     3944    1   DCL PT(0:5) SBIN CONSTANT INIT(%(MASTERPT_BASE%/4096),
     1210     3945    1                                  %(SLV1PT_BASE%/4096),
     1211     3946    1                                  %(SLV2PT_BASE%/4096),
     1212     3947    1                                  %(SLV3PT_BASE%/4096),
     1213     3948    1                                  %(SLV4PT_BASE%/4096),
     1214     3949    1                                  %(SLV5PT_BASE%/4096));
     1215     3950        %INCLUDE DA_MAP_R;
     1216     3980        %EJECT;
PL6.E3A0      #005=DAM$USECPU File=DAM$MAP.:E05TSI                               TUE 07/29/97 12:53 Page:230
     1217     3981    1           IF CPU#>5 THEN GOTO BADCPU;

   3981  1 000002   200003 470500                    LDP0    @CPU#,,AUTO
         1 000003   000000 235100                    LDA     0,,PR0
         1 000004   000005 115007                    CMPA    5,DL
         1 000005   000054 605400 1                  TPNZ    BADCPU

     1218     3982    1           CALL DAM$FREEM;

   3982  1 000006   000002 631400 xsym               EPPR1   B_VECTNIL+2
         1 000007   000000 701000 xent               TSX1    DAM$FREEM
         1 000010   000000 011000                    NOP     0

     1219     3983    2           IF NOT DA_DUMPFILE THEN DO;

   3983  1 000011   000000 234000 xsym               SZN     DA_DUMPFILE
         1 000012   000062 604000 1                  TMI     s:4000

     1220     3984    2              CALL DAM$VPAGE(0,0,0,%MONWSQ,1) ALTRET(VPAGEALT);

   3984  1 000013   000000 630400 2                  EPPR0   0
         1 000014   000023 631400 xsym               EPPR1   B_VECTNIL+19
         1 000015   000000 701000 xent               TSX1    DAM$VPAGE
         1 000016   000061 702000 1                  TSX2    VPAGEALT

     1221     3985    2              PT$=PINCRW(B$IS$,DA_WINDOWBASE*1024);

   3985  1 000017   000000 236000 xsym               LDQ     DA_WINDOWBASE
         1 000020   000034 736000                    QLS     28
         1 000021   000000 036000 xsym               ADLQ    B$IS$
         1 000022   200004 756100                    STQ     PT$,,AUTO

     1222     3986    2              IF PT$->B$MAP.RPN(PT(CPU#))~=1 THEN

   3986  1 000023   200003 470500                    LDP0    @CPU#,,AUTO
         1 000024   000000 720100                    LXL0    0,,PR0
         1 000025   000000 721010 0                  LXL1    PT,X0
PL6.E3A0      #005=DAM$USECPU File=DAM$MAP.:E05TSI                               TUE 07/29/97 12:53 Page:231
         1 000026   200004 471500                    LDP1    PT$,,AUTO
         1 000027   100000 220111                    LDX0    0,X1,PR1
         1 000030   000001 100003                    CMPX0   1,DU
         1 000031   000054 600000 1                  TZE     BADCPU

     1223     3987    2                 IF DA_CPU = %DPS90XA OR DA_CPU = %DPS8000 THEN

   3987  1 000032   000000 235000 xsym               LDA     DA_CPU
         1 000033   000005 115007                    CMPA    5,DL
         1 000034   000037 600000 1                  TZE     s:3988
         1 000035   000006 115007                    CMPA    6,DL
         1 000036   000045 601000 1                  TNZ     s:3990

     1224     3988    2                    DA_MONPTP=PT$->B$MAP.RPN(PT(CPU#));

   3988  1 000037   000000 720100                    LXL0    0,,PR0
         1 000040   000000 721010 0                  LXL1    PT,X0
         1 000041   100000 236111                    LDQ     0,X1,PR1
         1 000042   000022 772000                    QRL     18
         1 000043   000000 756000 xsym               STQ     DA_MONPTP
         1 000044   000062 710000 1                  TRA     s:4000

     1225     3989    2                 ELSE
     1226     3990    2                    DA_MONPTP=PT$->B$MAP.RPN(PT(CPU#))*16;

   3990  1 000045   000000 720100                    LXL0    0,,PR0
         1 000046   000000 721010 0                  LXL1    PT,X0
         1 000047   100000 236111                    LDQ     0,X1,PR1
         1 000050   000016 772000                    QRL     14
         1 000051   000005 376000 2                  ANQ     5
         1 000052   000000 756000 xsym               STQ     DA_MONPTP
         1 000053   000062 710000 1                  TRA     s:4000

     1227     3991    3              ELSE DO;

     1228     3992    3   BADCPU:       DA_MAPERR='040115000000'O;

PL6.E3A0      #005=DAM$USECPU File=DAM$MAP.:E05TSI                               TUE 07/29/97 12:53 Page:232
   3992  1 000054   000006 236000 0     BADCPU       LDQ     PT+6
         1 000055   000000 756000 xsym               STQ     DA_MAPERR

     1229     3993    3                 DA_MAPERR.CODE=%E$DA_NO_CPU;

   3993  1 000056   000006 376000 2                  ANQ     6
         1 000057   002020 276007                    ORQ     1040,DL
         1 000060   000000 756000 xsym               STQ     DA_MAPERR

     1230     3994        /*E*    ERROR:   DAM-E$DA_NO_CPU
     1231     3995                MESSAGE: The specified CPU is not configured in this system.
     1232     3996                                                                           */
     1233     3997    3   VPAGEALT:     ALTRETURN;

   3997  1 000061   000000 702200 xent  VPAGEALT     TSX2  ! X66_AALT

     1234     3998    3                 END;
     1235     3999    2              END;
     1236     4000    1           DA_CPU#=CPU#;

   4000  1 000062   200003 470500                    LDP0    @CPU#,,AUTO
         1 000063   000000 235100                    LDA     0,,PR0
         1 000064   000000 755000 xsym               STA     DA_CPU#

     1237     4001    1           IF ENTADDR(DAS$SETNODE)~=ENTADDR(NIL)

   4001  1 000065   000000 636000 xent               EAQ     DAS$SETNODE
         1 000066   000002 116000 xsym               CMPQ    B_VECTNIL+2
         1 000067   000073 600000 1                  TZE     s:4003

     1238     4002    1           THEN CALL DAS$SETNODE;

   4002  1 000070   000002 631400 xsym               EPPR1   B_VECTNIL+2
         1 000071   000000 701000 xent               TSX1    DAS$SETNODE
         1 000072   000000 011000                    NOP     0

     1239     4003    1           RETURN;
PL6.E3A0      #005=DAM$USECPU File=DAM$MAP.:E05TSI                               TUE 07/29/97 12:53 Page:233

   4003  1 000073   000000 702200 xent               TSX2  ! X66_ARET
     1240     4004    1   END DAM$USECPU;
     1241     4005        %EOD;

PL6.E3A0      #005=DAM$USECPU File=DAM$MAP.:E05TSI                               TUE 07/29/97 12:53 Page:234
--  Include file information  --

   DA_MAP_R.:E05TOU  cannot be made into a system file and is referenced.
   B$JIT.:E05TOU  cannot be made into a system file and is referenced.
   B_MLSMAC_C.:E05TOU  is referenced.
   B_ULSMAC_C.:E05TOU  is referenced.
   B_LSDATA_C.:E05TOU  cannot be made into a system file and is referenced.
   B_STRINGS_C.:E05TOU  is referenced.
   M_INFO_C.:E05TOU  is referenced.
   B$MAP.:E05TOU  cannot be made into a system file and is referenced.
   DA_PERR_C.:E05TOU  is referenced.
   B$JIT_C.:E05TOU  was found in the system file and is referenced.
   CP_6_C.:E05TOU  was found in the system file and is never referenced.
      No diagnostics issued in procedure DAM$USECPU.
PL6.E3A0      #005=DAM$USECPU File=DAM$MAP.:E05TSI                               TUE 07/29/97 12:53 Page:235

 **** Variables and constants ****

  ****  Section 000 RoData DAM$USECPU

  ****  Scalars and arrays  ****
OctLoc.c.b A Datatyp(siz) R M Lvl/name                 OctLoc.c.b A Datatyp(siz) R M Lvl/name

     0-0-0/w SBIN        r     1 PT(0:5)

  ****  Auto variables  ****

  ****  Scalars and arrays  ****
OctLoc.c.b A Datatyp(siz) R M Lvl/name                 OctLoc.c.b A Datatyp(siz) R M Lvl/name

     3-0-0/w PTR         r     1 @CPU#                     *0-0-0/w SBIN        r     1 CPU#
     4-0-0/w PTR         r     1 PT$

  ****  SYMREF variables  ****

  ****  Scalars and arrays  ****
OctLoc.c.b A Datatyp(siz) R M Lvl/name                 OctLoc.c.b A Datatyp(siz) R M Lvl/name

     0-0-0/w PTR         r     1 B$IS$                      0-0-0/w PTR         r     1 B$JIT$
     0-0-0/w SBIN        r     1 DA_CPU                     0-0-0/w SBIN        r     1 DA_CPU#
     0-0-0/w BIT         r     1 DA_DUMPFILE                0-0-0/w STRC        r     1 DA_MAPERR
     0-0-0/w SBIN        r     1 DA_MONPTP                  0-0-0/w SBIN        r     1 DA_WINDOWBASE

  ****  BASED and DCB variables  ****

  ****  Scalars and arrays  ****
OctLoc.c.b A Datatyp(siz) R M Lvl/name                 OctLoc.c.b A Datatyp(siz) R M Lvl/name

     0-0-0/w STRC        r     1 B$MAP(0:1023)


   Procedure DAM$USECPU requires 60 words for executable code.
PL6.E3A0      #005=DAM$USECPU File=DAM$MAP.:E05TSI                               TUE 07/29/97 12:53 Page:236
   Procedure DAM$USECPU requires 6 words of local(AUTO) storage.
PL6.E3A0      #005=DAM$USECPU File=DAM$MAP.:E05TSI                               TUE 07/29/97 12:53 Page:237
          *** CROSS REFERENCE LISTING ***
**     DENOTES     IDENTIFIER DEFINITION
<<                 IDENTIFIER'S VALUE SET
>>                 IDENTIFIER'S VALUE USED
<>                 IDENTIFIER SET AND/OR USED
--                 IDENTIFIER REFERENCED
PL6.E3A0      #005=DAM$USECPU File=DAM$MAP.:E05TSI                               TUE 07/29/97 12:53 Page:238
          MINI XREF LISTING

B$IS$
      3943**DCL      3985>>ASSIGN
B$JIT.CPFLAGS1.SLEAZE
      3761**DCL      3761--REDEF
B$JIT.ERR.MID
      3668**DCL      3668--REDEF
B$JIT.JRESPEAK
      3829**DCL      3830--REDEF
B$JIT.ORIGINATOR_PORT.FROM_CR
      3938**DCL      3938--REDEF    3939--REDEF
B$JIT.PNR
      3842**DCL      3842--REDEF
B$JIT.TSLINE
      3936**DCL      3937--REDEF
B$JIT$
      3652**DCL      3662--IMP-PTR
B$MAP.RPN
       119**DCL      3986>>IF       3988>>ASSIGN   3990>>ASSIGN
B$MAP.SCTRL
       120**DCL       121--REDEF
BADCPU
      3992**LABEL    3981--GOTO
CPU#
         7**DCL         6--PROC     3981>>IF       3986>>IF       3988>>ASSIGN   3990>>ASSIGN   4000>>ASSIGN
DAM$FREEM
         9**DCL-ENT  3982--CALL
DAM$VPAGE
        10**DCL-ENT  3984--CALL
DAS$SETNODE
        11**DCL-ENT  4001--IF       4002--CALL
DA_CPU
      3964**DCL      3987>>IF       3987>>IF
PL6.E3A0      #005=DAM$USECPU File=DAM$MAP.:E05TSI                               TUE 07/29/97 12:53 Page:239
DA_CPU#
      3966**DCL      4000<<ASSIGN
DA_DUMPFILE
      3965**DCL      3983>>IF
DA_MAPERR
      3974**DCL      3992<<ASSIGN
DA_MAPERR.CODE
      3974**DCL      3993<<ASSIGN
DA_MAPSEG.P
      3975**DCL      3976--REDEF
DA_MONPTP
      3967**DCL      3988<<ASSIGN   3990<<ASSIGN
DA_SDASN.DESC.TYPE0
      3960**DCL      3960--REDEF
DA_TIGRSEG.P
      3976**DCL      3977--REDEF
DA_WINDOWBASE
      3964**DCL      3985>>ASSIGN
PT
      3944**DCL      3986>>IF       3988>>ASSIGN   3990>>ASSIGN
PT$
       176**DCL      3985<<ASSIGN   3986>>IF       3988>>ASSIGN   3990>>ASSIGN
VPAGEALT
      3997**LABEL    3984--CALLALT

PL6.E3A0      #006=DAM$REAL_TO_PHYS File=DAM$MAP.:E05TSI                         TUE 07/29/97 12:53 Page:240
     1242        1        /*T***********************************************************/
     1243        2        /*T*                                                         */
     1244        3        /*T* Copyright (c) Bull HN Information Systems Inc., 1997    */
     1245        4        /*T*                                                         */
     1246        5        /*T***********************************************************/
     1247        6        DAM$REAL_TO_PHYS: PROC(REAL,PHYS);
     1248        7    1   DCL REAL UBIN;
     1249        8    1   DCL PHYS UBIN;
     1250        9
     1251       10    1   DCL B$HWORD UBIN HALF BASED HALIGNED;
     1252       11    1   DCL DESCR DSCR;
     1253       12    1   DCL P$ PTR;
     1254       13
     1255       14        %INCLUDE CP_6;
     1256       95        %INCLUDE B_SEGIDS_C;
     1257      634        %INCLUDE B$JIT;
     1258      924        %INCLUDE M_INFO_C;
     1259     1064        %INCLUDE DA_MAP_R;
     1260     1094
     1261     1095    1   DCL B$IS$ PTR SYMREF READONLY;
     1262     1096    1   DCL B$SPCL6$ PTR SYMREF READONLY;
     1263     1097    1   DCL B$JIT$ PTR SYMREF READONLY;
     1264     1098
     1265     1099        %FPT_SAD(FPTN=FPT_SAD_WSQ0PT,MONSID=%WSQ0PTSID,USERSID=%SPCL6SID);
     1266     1114        %FPT_SAD(FPTN=FPT_SAD_IPHYMAP,MONSID=%IPHYMAPSID,USERSID=%SPCL6SID);
     1267     1129        %FPT_CVM (PHYSICAL=NO);
     1268     1145
     1269     1146    1           CALL M$SAD(FPT_SAD_WSQ0PT);
     1270     1147    1           DESCR=PTRDSCR(B$SPCL6$);
     1271     1148    1           FPT_CVM.V.PPNO# = DBASE(DESCR)/4096+REAL/1024;
     1272     1149    1           FPT_CVM.V.VPNO# = DA_MSCPG2;
     1273     1150    1           CALL M$CVM(FPT_CVM);
     1274     1151    1           P$=PINCRW(B$IS$,DA_MSCPG2*1024+MOD(REAL,1024));
     1275     1152    1           PHYS=P$->B$HWORD;
     1276     1153    1           FPT_CVM.V.PPNO# = -1;
     1277     1154    1           CALL M$CVM(FPT_CVM);
     1278     1155    1           RETURN;
PL6.E3A0      #006=DAM$REAL_TO_PHYS File=DAM$MAP.:E05TSI                         TUE 07/29/97 12:53 Page:241
     1279     1156
     1280     1157    1   DAM$PHYS_TO_REAL: ENTRY(REAL,PHYS);
     1281     1158
     1282     1159    1           CALL M$SAD(FPT_SAD_IPHYMAP);
     1283     1160    1           DESCR=PTRDSCR(B$SPCL6$);
     1284     1161    1           FPT_CVM.V.PPNO# = DBASE(DESCR)/4096+PHYS/2048;
     1285     1162    1           FPT_CVM.V.VPNO# = DA_MSCPG2;
     1286     1163    1           CALL M$CVM(FPT_CVM);
     1287     1164    1           P$=PINCRC(B$IS$,DA_MSCPG2*4096+MOD(PHYS,2048)*2);
     1288     1165    1           REAL=P$->B$HWORD;
     1289     1166    1           FPT_CVM.V.PPNO# = -1;
     1290     1167    1           CALL M$CVM(FPT_CVM);
     1291     1168    1   END DAM$REAL_TO_PHYS;

PL6.E3A0      #006=DAM$REAL_TO_PHYS File=DAM$MAP.:E05TSI                         TUE 07/29/97 12:53 Page:242
--  Include file information  --

   DA_MAP_R.:E05TOU  cannot be made into a system file and is referenced.
   M_INFO_C.:E05TOU  is referenced.
   B$JIT.:E05TOU  cannot be made into a system file and is referenced.
   B_SEGIDS_C.:E05TOU  is referenced.
   CP_6.:E05TOU  cannot be made into a system file and is referenced.
   B$JIT_C.:E05TOU  was found in the system file and is referenced.
   CP_6_C.:E05TOU  was found in the system file and is referenced.
      No diagnostics issued in procedure DAM$REAL_TO_PHYS.

   Procedure DAM$REAL_TO_PHYS requires 82 words for executable code.
   Procedure DAM$REAL_TO_PHYS requires 12 words of local(AUTO) storage.

    No errors detected in file DAM$MAP.:E05TSI    .

PL6.E3A0      #006=DAM$REAL_TO_PHYS File=DAM$MAP.:E05TSI                         TUE 07/29/97 12:53 Page:243

 Object Unit name= DAM$REAL_TO_PHYS                           File name= DAM$MAP.:E05TOU
 UTS= JUL 29 '97 12:53:20.76 TUE                              Compiler= PL-6/E31         Sev=      00
 SharedLib= :SHARED_SYSTEM                                    Alt SharedLib=


    ****  Control sections  ****

 Sect   Type Bound  Init  Size OctSiz  Section name(segment info)
    0   DCB   even  none     0      0  M$UC
    1   Data  even  none    14     16  DAM$REAL_TO_PHYS
    2   Proc  even  none    82    122  DAM$REAL_TO_PHYS

    ****  Entry defs  ****

                              Check   Calling
                             calling  sequence
  Sect OctLoc Primary Altret sequence   type   Parms  Name
     2      0   yes            yes      Std        2  DAM$REAL_TO_PHYS
     2     51                  yes      Std        2  DAM$PHYS_TO_REAL

  ****  Entry refs  ****

         Check        Calling
        calling       sequence
Altret sequence SRef   type   Args  Name
                       nStd      0 X66_AUTO_2
                       nStd      0 X66_ARET

  ****  Data refs  ****

  Flags:  r = read only, s = secondary
Flgs Name                             Flgs Name                             Flgs Name
     M$UC                                  DA_MSCPG2                        r    B$IS$
r    B$SPCL6$                         r    B$JIT$
PL6.E3A0      #006=DAM$REAL_TO_PHYS File=DAM$MAP.:E05TSI                         TUE 07/29/97 12:53 Page:244

  ****  Segment refs  ****

  Flags:  r = read only, s = secondary
Flgs Name                             Flgs Name                             Flgs Name
     ISSID
PL6.E3A0      #006=DAM$REAL_TO_PHYS File=DAM$MAP.:E05TSI                         TUE 07/29/97 12:53 Page:245


     1242        1        /*T***********************************************************/
     1243        2        /*T*                                                         */
     1244        3        /*T* Copyright (c) Bull HN Information Systems Inc., 1997    */
     1245        4        /*T*                                                         */
     1246        5        /*T***********************************************************/
     1247        6        DAM$REAL_TO_PHYS: PROC(REAL,PHYS);

      6  2 000000   000000 700200 xent  DAM$REAL_TO* TSX0  ! X66_AUTO_2
         2 000001   000014 000002                    ZERO    12,2

     1248        7    1   DCL REAL UBIN;
     1249        8    1   DCL PHYS UBIN;
     1250        9
     1251       10    1   DCL B$HWORD UBIN HALF BASED HALIGNED;
     1252       11    1   DCL DESCR DSCR;
     1253       12    1   DCL P$ PTR;
     1254       13
     1255       14        %INCLUDE CP_6;
     1256       95        %INCLUDE B_SEGIDS_C;
     1257      634        %INCLUDE B$JIT;
     1258      924        %INCLUDE M_INFO_C;
     1259     1064        %INCLUDE DA_MAP_R;
     1260     1094
     1261     1095    1   DCL B$IS$ PTR SYMREF READONLY;
     1262     1096    1   DCL B$SPCL6$ PTR SYMREF READONLY;
     1263     1097    1   DCL B$JIT$ PTR SYMREF READONLY;
     1264     1098
     1265     1099        %FPT_SAD(FPTN=FPT_SAD_WSQ0PT,MONSID=%WSQ0PTSID,USERSID=%SPCL6SID);
     1266     1114        %FPT_SAD(FPTN=FPT_SAD_IPHYMAP,MONSID=%IPHYMAPSID,USERSID=%SPCL6SID);
     1267     1129        %FPT_CVM (PHYSICAL=NO);
     1268     1145
     1269     1146    1           CALL M$SAD(FPT_SAD_WSQ0PT);

   1146  2 000002   000000 630400 1                  EPPR0   FPT_SAD_WSQ0PT
         2 000003   030015 713400                    CLIMB   12301
         2 000004   400000 401760                    pmme    nvectors=1
PL6.E3A0      #006=DAM$REAL_TO_PHYS File=DAM$MAP.:E05TSI                         TUE 07/29/97 12:53 Page:246

     1270     1147    1           DESCR=PTRDSCR(B$SPCL6$);

   1147  2 000005   000000 470400 xsym               LDP0    B$SPCL6$
         2 000006   200006 050500                    STD0    DESCR,,AUTO

     1271     1148    1           FPT_CVM.V.PPNO# = DBASE(DESCR)/4096+REAL/1024;

   1148  2 000007   200007 236100                    LDQ     DESCR+1,,AUTO
         2 000010   000014 772000                    QRL     12
         2 000011   200003 470500                    LDP0    @REAL,,AUTO
         2 000012   200012 756100                    STQ     P$+2,,AUTO
         2 000013   000000 236100                    LDQ     0,,PR0
         2 000014   000012 772000                    QRL     10
         2 000015   200012 036100                    ADLQ    P$+2,,AUTO
         2 000016   000013 756000 1                  STQ     FPT_CVM+3

     1272     1149    1           FPT_CVM.V.VPNO# = DA_MSCPG2;

   1149  2 000017   000000 720000 xsym               LXL0    DA_MSCPG2
         2 000020   000014 440000 1                  SXL0    FPT_CVM+4

     1273     1150    1           CALL M$CVM(FPT_CVM);

   1150  2 000021   000010 630400 1                  EPPR0   FPT_CVM
         2 000022   030011 713400                    CLIMB   12297
         2 000023   400000 401760                    pmme    nvectors=1

     1274     1151    1           P$=PINCRW(B$IS$,DA_MSCPG2*1024+MOD(REAL,1024));

   1151  2 000024   200003 470500                    LDP0    @REAL,,AUTO
         2 000025   000000 236100                    LDQ     0,,PR0
         2 000026   001777 376007                    ANQ     1023,DL
         2 000027   200012 756100                    STQ     P$+2,,AUTO
         2 000030   000000 236000 xsym               LDQ     DA_MSCPG2
         2 000031   000012 736000                    QLS     10
         2 000032   200012 036100                    ADLQ    P$+2,,AUTO
PL6.E3A0      #006=DAM$REAL_TO_PHYS File=DAM$MAP.:E05TSI                         TUE 07/29/97 12:53 Page:247
         2 000033   000022 736000                    QLS     18
         2 000034   000000 036000 xsym               ADLQ    B$IS$
         2 000035   200010 756100                    STQ     P$,,AUTO

     1275     1152    1           PHYS=P$->B$HWORD;

   1152  2 000036   200010 471500                    LDP1    P$,,AUTO
         2 000037   200004 473500                    LDP3    @PHYS,,AUTO
         2 000040   000100 101500                    MRL     fill='000'O
         2 000041   100000 000002                    ADSC9   0,,PR1                   cn=0,n=2
         2 000042   300000 000004                    ADSC9   0,,PR3                   cn=0,n=4

     1276     1153    1           FPT_CVM.V.PPNO# = -1;

   1153  2 000043   000001 335007                    LCA     1,DL
         2 000044   000013 755000 1                  STA     FPT_CVM+3

     1277     1154    1           CALL M$CVM(FPT_CVM);

   1154  2 000045   000010 630400 1                  EPPR0   FPT_CVM
         2 000046   030011 713400                    CLIMB   12297
         2 000047   400000 401760                    pmme    nvectors=1

     1278     1155    1           RETURN;

   1155  2 000050   000000 702200 xent               TSX2  ! X66_ARET

     1279     1156
     1280     1157    1   DAM$PHYS_TO_REAL: ENTRY(REAL,PHYS);

   1157  2 000051   000000 700200 xent  DAM$PHYS_TO* TSX0  ! X66_AUTO_2
         2 000052   000014 000002                    ZERO    12,2

     1281     1158
     1282     1159    1           CALL M$SAD(FPT_SAD_IPHYMAP);

   1159  2 000053   000004 630400 1                  EPPR0   FPT_SAD_IPHYMAP
PL6.E3A0      #006=DAM$REAL_TO_PHYS File=DAM$MAP.:E05TSI                         TUE 07/29/97 12:53 Page:248
         2 000054   030015 713400                    CLIMB   12301
         2 000055   400000 401760                    pmme    nvectors=1

     1283     1160    1           DESCR=PTRDSCR(B$SPCL6$);

   1160  2 000056   000000 470400 xsym               LDP0    B$SPCL6$
         2 000057   200006 050500                    STD0    DESCR,,AUTO

     1284     1161    1           FPT_CVM.V.PPNO# = DBASE(DESCR)/4096+PHYS/2048;

   1161  2 000060   200007 236100                    LDQ     DESCR+1,,AUTO
         2 000061   000014 772000                    QRL     12
         2 000062   200004 470500                    LDP0    @PHYS,,AUTO
         2 000063   200012 756100                    STQ     P$+2,,AUTO
         2 000064   000000 236100                    LDQ     0,,PR0
         2 000065   000013 772000                    QRL     11
         2 000066   200012 036100                    ADLQ    P$+2,,AUTO
         2 000067   000013 756000 1                  STQ     FPT_CVM+3

     1285     1162    1           FPT_CVM.V.VPNO# = DA_MSCPG2;

   1162  2 000070   000000 720000 xsym               LXL0    DA_MSCPG2
         2 000071   000014 440000 1                  SXL0    FPT_CVM+4

     1286     1163    1           CALL M$CVM(FPT_CVM);

   1163  2 000072   000010 630400 1                  EPPR0   FPT_CVM
         2 000073   030011 713400                    CLIMB   12297
         2 000074   400000 401760                    pmme    nvectors=1

     1287     1164    1           P$=PINCRC(B$IS$,DA_MSCPG2*4096+MOD(PHYS,2048)*2);

   1164  2 000075   200004 470500                    LDP0    @PHYS,,AUTO
         2 000076   000000 236100                    LDQ     0,,PR0
         2 000077   003777 376007                    ANQ     2047,DL
         2 000100   200012 756100                    STQ     P$+2,,AUTO
         2 000101   000000 236000 xsym               LDQ     DA_MSCPG2
PL6.E3A0      #006=DAM$REAL_TO_PHYS File=DAM$MAP.:E05TSI                         TUE 07/29/97 12:53 Page:249
         2 000102   000013 736000                    QLS     11
         2 000103   200012 036100                    ADLQ    P$+2,,AUTO
         2 000104   000021 736000                    QLS     17
         2 000105   000000 036000 xsym               ADLQ    B$IS$
         2 000106   200010 756100                    STQ     P$,,AUTO

     1288     1165    1           REAL=P$->B$HWORD;

   1165  2 000107   200010 471500                    LDP1    P$,,AUTO
         2 000110   200003 473500                    LDP3    @REAL,,AUTO
         2 000111   000100 101500                    MRL     fill='000'O
         2 000112   100000 000002                    ADSC9   0,,PR1                   cn=0,n=2
         2 000113   300000 000004                    ADSC9   0,,PR3                   cn=0,n=4

     1289     1166    1           FPT_CVM.V.PPNO# = -1;

   1166  2 000114   000001 335007                    LCA     1,DL
         2 000115   000013 755000 1                  STA     FPT_CVM+3

     1290     1167    1           CALL M$CVM(FPT_CVM);

   1167  2 000116   000010 630400 1                  EPPR0   FPT_CVM
         2 000117   030011 713400                    CLIMB   12297
         2 000120   400000 401760                    pmme    nvectors=1

     1291     1168    1   END DAM$REAL_TO_PHYS;

   1168  2 000121   000000 702200 xent               TSX2  ! X66_ARET

PL6.E3A0      #006=DAM$REAL_TO_PHYS File=DAM$MAP.:E05TSI                         TUE 07/29/97 12:53 Page:250
--  Include file information  --

   DA_MAP_R.:E05TOU  cannot be made into a system file and is referenced.
   M_INFO_C.:E05TOU  is referenced.
   B$JIT.:E05TOU  cannot be made into a system file and is referenced.
   B_SEGIDS_C.:E05TOU  is referenced.
   CP_6.:E05TOU  cannot be made into a system file and is referenced.
   B$JIT_C.:E05TOU  was found in the system file and is referenced.
   CP_6_C.:E05TOU  was found in the system file and is referenced.
      No diagnostics issued in procedure DAM$REAL_TO_PHYS.
PL6.E3A0      #006=DAM$REAL_TO_PHYS File=DAM$MAP.:E05TSI                         TUE 07/29/97 12:53 Page:251

 **** Variables and constants ****

  ****  Section 001  Data  DAM$REAL_TO_PHYS

  ****  Scalars and arrays  ****
OctLoc.c.b A Datatyp(siz) R M Lvl/name                 OctLoc.c.b A Datatyp(siz) R M Lvl/name

    10-0-0/d STRC(216)   r     1 FPT_CVM                    4-0-0/d STRC(144)   r     1 FPT_SAD_IPHYMAP
     0-0-0/d STRC(144)   r     1 FPT_SAD_WSQ0PT

  ****  Auto variables  ****

  ****  Scalars and arrays  ****
OctLoc.c.b A Datatyp(siz) R M Lvl/name                 OctLoc.c.b A Datatyp(siz) R M Lvl/name

     4-0-0/w PTR         r     1 @PHYS                      3-0-0/w PTR         r     1 @REAL
     6-0-0/d DSCR        r     1 DESCR                     10-0-0/w PTR         r     1 P$
    *0-0-0/w UBIN        r     1 PHYS                      *0-0-0/w UBIN        r     1 REAL

  ****  SYMREF variables  ****

  ****  Scalars and arrays  ****
OctLoc.c.b A Datatyp(siz) R M Lvl/name                 OctLoc.c.b A Datatyp(siz) R M Lvl/name

     0-0-0/w PTR         r     1 B$IS$                      0-0-0/w PTR         r     1 B$JIT$
     0-0-0/w PTR         r     1 B$SPCL6$                   0-0-0/w SBIN        r     1 DA_MSCPG2

  ****  BASED and DCB variables  ****

  ****  Scalars and arrays  ****
OctLoc.c.b A Datatyp(siz) R M Lvl/name                 OctLoc.c.b A Datatyp(siz) R M Lvl/name

     0-0-0/h UBIN(18)    r     1 B$HWORD


   Procedure DAM$REAL_TO_PHYS requires 82 words for executable code.
PL6.E3A0      #006=DAM$REAL_TO_PHYS File=DAM$MAP.:E05TSI                         TUE 07/29/97 12:53 Page:252
   Procedure DAM$REAL_TO_PHYS requires 12 words of local(AUTO) storage.

    No errors detected in file DAM$MAP.:E05TSI    .
PL6.E3A0      #006=DAM$REAL_TO_PHYS File=DAM$MAP.:E05TSI                         TUE 07/29/97 12:53 Page:253
          *** CROSS REFERENCE LISTING ***
**     DENOTES     IDENTIFIER DEFINITION
<<                 IDENTIFIER'S VALUE SET
>>                 IDENTIFIER'S VALUE USED
<>                 IDENTIFIER SET AND/OR USED
--                 IDENTIFIER REFERENCED
PL6.E3A0      #006=DAM$REAL_TO_PHYS File=DAM$MAP.:E05TSI                         TUE 07/29/97 12:53 Page:254
          MINI XREF LISTING

B$HWORD
        10**DCL      1152>>ASSIGN   1165>>ASSIGN
B$IS$
      1095**DCL      1151>>ASSIGN   1164>>ASSIGN
B$JIT.CPFLAGS1.SLEAZE
       742**DCL       742--REDEF
B$JIT.ERR.MID
       649**DCL       649--REDEF
B$JIT.JRESPEAK
       810**DCL       811--REDEF
B$JIT.ORIGINATOR_PORT.FROM_CR
       919**DCL       919--REDEF     920--REDEF
B$JIT.PNR
       823**DCL       823--REDEF
B$JIT.TSLINE
       917**DCL       918--REDEF
B$JIT$
      1097**DCL       643--IMP-PTR
B$SPCL6$
      1096**DCL      1147>>ASSIGN   1160>>ASSIGN
DA_MAPSEG.P
      1089**DCL      1090--REDEF
DA_MSCPG2
      1084**DCL      1149>>ASSIGN   1151>>ASSIGN   1162>>ASSIGN   1164>>ASSIGN
DA_SDASN.DESC.TYPE0
      1074**DCL      1074--REDEF
DA_TIGRSEG.P
      1090**DCL      1091--REDEF
DESCR
        11**DCL      1147<<ASSIGN   1148>>ASSIGN   1160<<ASSIGN   1161>>ASSIGN
FPT_CVM
      1140**DCL      1150<>CALL     1154<>CALL     1163<>CALL     1167<>CALL
PL6.E3A0      #006=DAM$REAL_TO_PHYS File=DAM$MAP.:E05TSI                         TUE 07/29/97 12:53 Page:255
FPT_CVM.V
      1140**DCL      1140--DCLINIT
FPT_CVM.V.PPNO#
      1141**DCL      1148<<ASSIGN   1153<<ASSIGN   1161<<ASSIGN   1166<<ASSIGN
FPT_CVM.V.VPNO#
      1142**DCL      1149<<ASSIGN   1162<<ASSIGN
FPT_SAD_IPHYMAP
      1125**DCL      1159<>CALL
FPT_SAD_IPHYMAP.V
      1125**DCL      1125--DCLINIT
FPT_SAD_WSQ0PT
      1110**DCL      1146<>CALL
FPT_SAD_WSQ0PT.V
      1110**DCL      1110--DCLINIT
M$CVM
        61**DCL-ENT  1150--CALL     1154--CALL     1163--CALL     1167--CALL
M$SAD
        62**DCL-ENT  1146--CALL     1159--CALL
P$
        12**DCL      1151<<ASSIGN   1152>>ASSIGN   1164<<ASSIGN   1165>>ASSIGN
PHYS
         8**DCL         6--PROC     1152<<ASSIGN   1157--ENTRY    1161>>ASSIGN   1164>>ASSIGN
REAL
         7**DCL         6--PROC     1148>>ASSIGN   1151>>ASSIGN   1157--ENTRY    1165<<ASSIGN
