VERSION E05

PL6.E3A0      #001=DAU$DCBS File=DAU$DCBS.:E05TSI                                TUE 07/29/97 12:54 Page:1
        1        1        /*M* DAU$DCBS - DISPLAY DCBS FOR DA_CUN */
        2        2        /*T***********************************************************/
        3        3        /*T*                                                         */
        4        4        /*T* Copyright (c) Bull HN Information Systems Inc., 1997    */
        5        5        /*T*                                                         */
        6        6        /*T***********************************************************/
        7        7        /*X* DMR */
        8        8        DAU$DCBS: PROC(TOP);
        9        9        /**/
       10       10        %INCLUDE XU_MACRO_C;
       11     3116        %PARSE$OUT (NAME=TOP,STCLASS=PARAM);
       12     3161        /**/
       13     3162    1   DCL DAF$WRITE EPTR SYMREF;
       14     3163    1   DCL DAA$ERRMSG ENTRY(1);
       15     3164    1   DCL DAA$VALUE ENTRY(3) ALTRET;
       16     3165    1   DCL DAF$ADDHDR ENTRY(1);
       17     3166    1   DCL DAM$FREEM ENTRY;
       18     3167    1   DCL DAM$MAP ENTRY(5) ALTRET;
       19     3168    1   DCL B$ROS$ PTR SYMREF;
       20     3169    1   DCL B$JIT$ PTR SYMREF;
       21     3170    1   DCL JIT$ PTR;
       22     3171        %INCLUDE B$JIT;
       23     3461        %INCLUDE DA_PERR_C;
       24     3525        %INCLUDE B$USER;
       25     3741    1   DCL B$USRT$ PTR SYMREF;
       26     3742        %INCLUDE SS_SCHED_C;
       27     3975        %INCLUDE B$ROSEG;
       28     4038        %INCLUDE F$DCB;
       29     4087        %SUB F$DCB="DCB$->F$DCB";
       30     4088        %INCLUDE CP_6_SUBS;
       31     4628        %INCLUDE CP_6;
       32     4709        %INCLUDE DA_FORMAT_C;
       33     4951        %INCLUDE DA_TEXTC_C;
       34     4982    1   DCL ROS$ PTR;
       35     4983    1   DCL DCBTAB$(0:0) PTR BASED ALIGNED;
       36     4984    1   DCL I SBIN;
       37     4985    1   DCL D# SBIN;
PL6.E3A0      #001=DAU$DCBS File=DAU$DCBS.:E05TSI                                TUE 07/29/97 12:54 Page:2
       38     4986    1   DCL OFFSET SBIN;
       39     4987    1   DCL B$TCB$ PTR SYMREF;
       40     4988        %B$TCB;
       41     4991        %B$ALT;
       42     4999        %SUB B$ALT=B$TCB$->B$TCB.ALT$->B$ALT;
       43     5000    1   DCL CNT0 SBIN;
       44     5001    1   DCL CNT1 SBIN;
       45     5002    1   DCL DCBPTR$ PTR;
       46     5003        /**/
       47     5004    1   DCL DCBFMT1 CHAR(0) CONSTANT INIT(
       48     5005    1    '%+2D .%5ZO %A %A %A %A %A%5O %A %A %A %N(%S.%6.18ZO/%0.0.3.6P%1D%)%N(%9X%S%S%) %N(
              5005        %1D,%1D%)%19P%N(%3X%) %>A');
       49     5006    1   DCL DCBFMT2 CHAR(0) CONSTANT INIT(
       50     5007    1        '%15-Fid: %>A');
       51     5008    1   DCL DCBFMT3 CHAR(0) CONSTANT INIT(
       52     5009             '%10-BFR #%D:  %1N(BUFUP,%)%1N(SCRUB,%)%1N(CHNG,%)
       53     5010        %1N(CVM,%)%SBUFX=%D,B$=.%O,DA=.%O,CX=.%O,
       54     5011    1   SIZ=%D');
       55     5012    1   DCL ASNTAB(0:9) CHAR(3) CONSTANT INIT(
       56     5013    1        ' ','FIL','TAP','DEV','CG','STR','T&D','FMD','FPG','FPA');
       57     5014    1   DCL ORGTAB(0:25) CHAR(3) CONSTANT INIT(
       58     5015    1        ' ','CON','KEY','RAN','UR','REL','IND','IDS','TRM','SYM',
       59     5016    1        'FPG','CG','?','IRL','?','FIX','VAR','UND','RST','FRE','DDB',
       60     5017    1        'DCG','DSY','SE ','X36','FRM');
       61     5018    1   DCL FUNTAB(0:3) CHAR(2) CONSTANT INIT(
       62     5019    1        ' ','UP','IN','CR');
       63     5020    1   DCL GTYPTAB(0:7) CHAR(4) CONSTANT INIT(
       64     5021    1        ' ','GP','MAD','PAD','FD','FIT','FILE','FDST');
       65     5022    1   DCL FCDTAB(0:1) CHAR(3) CONSTANT UNAL INIT('CLS','OPN');
       66     5023        %SET RPTNAME='DCB';
       67     5024        %SET HDRNUM=0;
       68     5025        %SET TXTNUM=0;
       69     5026        %HEADER (NAME=DCBHDR,LAST=NO,STCLASS=CONSTANT,
       70     5027            TEXT='NO OFFSET ST  ASN ORG FN RS SETX IAS IOR GTYP CFU$      FCN DCBNAME');
       71     5069        %HEADER (STCLASS=CONSTANT,
       72     5070            TEXT=
              5070            '-- ------ --- --- --- -- -- ---- --- --- ---- --------- --- ------------------'
PL6.E3A0      #001=DAU$DCBS File=DAU$DCBS.:E05TSI                                TUE 07/29/97 12:54 Page:3
              5070                );
       73     5112        %INCLUDE DA_ANLZ_R;
       74     5125        %INCLUDE DA_MAP_R;
       75     5155    1   DCL JDCBFMT CHAR(0) CONSTANT INIT('%/JIT DCB IS %>A @.%O%/');
       76     5156    1   DCL DCB$ PTR;
       77     5157    1   DCL FID CHAR(80);
       78     5158    1   DCL MODE(0:4) CHAR(6) CONSTANT INIT('????','BATCH','GHOST','ONLINE','TP');
       79     5159    1   DCL JITFMT1 CHAR(0) CONSTANT INIT('%>A USER NUMBER .%O  FMA=DP#%>A.%>A  WOO=%>A%2/')
              5159            ;
       80     5160    1   DCL PRIVFMT CHAR(0) CONSTANT INIT(%CONCAT('PRIVILEGES:%/',
       81     5161        'ACTIVE       AUTH         JOB          PRC          SAVED        PPRIV%/',
       82     5162        '------------ ------------ ------------ ------------ ------------ ------------%/',
       83     5163    1   '%6(%12ZO %)%2/'));
       84     5164    1   DCL CCBUFFMT CHAR(0) CONSTANT INIT('CCBUF: %>A%2/');
       85     5165    1   DCL JITFMT2 CHAR(0) CONSTANT INIT('CPFLAGS: %12ZO  ERR: %J  USRERR: %J%2/');
       86     5166    1   DCL JTIMEFMT CHAR(0) CONSTANT INIT(
              5166            'LOGON: %..2.0U  CPU USED: %..0.4U  MRT: %..0.4U  PMMES: %D%2/');
       87     5167    1   DCL JMMFMT CHAR(0) CONSTANT INIT(
              5167            'MAXCORE: %D  CURCORE: %D  JPEAK: %D  SPEAK: %D  LNKCNT: %D%2/');
       88     5168    1   DCL JPRIFMT CHAR(0) CONSTANT INIT(
              5168            'DEFPRI: %D  MAXPRI: %D  STEPS: %D  STEPCC: %D  INTER: %D%2/');
       89     5169    1   DCL JMMLFMT CHAR(0) CONSTANT INIT(
              5169            'PLL: %D  PUL: %D  DLL: %D  DUL: %D  DDLL: %D  DDUL: %D%2/');
       90     5170    1   DCL JMMPCFMT CHAR(0) CONSTANT INIT(
       91     5171    1   'PPC: %D  PCP: %D  PCD: %D  PCDS: %D  PCC: %D  PCROS: %D  PCDD: %D%/PCDDS: %D  PCADS
              5171        : %D  PCL: %D  PCV: %D%2/');
       92     5172    1   DCL JMMMFMT CHAR(0) CONSTANT INIT('TDP: %D  EUP: %D  FBUC: %D  FBUL: %D  XCONF: .%3Z
              5172        O  XLIMFLG: .%3ZO  SVLDTF: .%3ZO%2/');
       93     5173    1   DCL JRNSTFMT CHAR(0) CONSTANT INIT(
              5173            'RNST: .%3ZO  FRS: .%3ZO  RUNFLAGS: .%3ZO  JUNKs: .%6ZO .%6ZO%2/');
       94     5174    1   DCL JIOSFMT CHAR(0) CONSTANT INIT('DISKIOS: %D  TAPEIOS: %D  LINE: %D-%4ZH%N(-%D%)
              5174        ENQS: %D  PRIOB: %+D  QUAN: %+D%2/');
       95     5175        %FPT_FID (NAME=FNAME,ACCT=FACCT,SN=FPSN,ASN=FASN,RES=FRES);
       96     5198        %VLP_NAME (FPTN=FNAME);
       97     5225        %VLP_ACCT (FPTN=FACCT);
       98     5238        %VLP_SN (FPTN=FPSN,N=1);
       99     5251    1   DCL FASN UBIN BYTE STATIC CALIGNED;
PL6.E3A0      #001=DAU$DCBS File=DAU$DCBS.:E05TSI                                TUE 07/29/97 12:54 Page:4
      100     5252    1   DCL OPEN_OPT_REQ BIT(1) STATIC;
      101     5253    1   DCL FRES CHAR(4) STATIC;
      102     5254    1   DCL U SBIN;
      103     5255    1   DCL UCNT SBIN;
      104     5256        %PARSE$OUT (NAME=OUT,STCLASS=BASED);
      105     5301        %PARSE$SYM (NAME=SYM,STCLASS=BASED);
      106     5339    1   DCL WHOFMT CHAR(0) CONSTANT INIT('%D %>A,%>A (%>A) %A');
      107     5340    1   DCL CLSD CHAR(0) CONSTANT INIT('(Closed)');
      108     5341    1   DCL CLSDV VECTOR;
      109     5342    1   DCL 1 SUBDEV_ARG ALIGNED,
      110     5343    1         2 LEVEL2,
      111     5344    1           3 N_ARGS SBIN,
      112     5345    1           3 SUBDEV SBIN,
      113     5346    1         2 SUBSUBDEV SBIN;
      114     5347    1   DCL SUBDEV_VECTOR BIT(72);
      115     5348        %EJECT;
PL6.E3A0      #001=DAU$DCBS File=DAU$DCBS.:E05TSI                                TUE 07/29/97 12:54 Page:5
      116     5349    1           IF TOP.NSUBLKS = 1 THEN
      117     5350    1              CALL DAA$VALUE (TOP.SUBLK$(0)->OUT, D#) ALTRET (ZERO);
      118     5351    1           ELSE
      119     5352    1   ZERO:      D# = -99;
      120     5353    1           CALL DAM$MAP(B$ROS$,ROS$,-DA_CUN,7) ALTRET(OOPS);
      121     5354    1           CALL DAM$MAP(ROS$->B$ROSEG.DCBPTR$,DCBPTR$,-DA_CUN,7) ALTRET(OOPS);
      122     5355    1           CALL DAF$ADDHDR(DCBHDR);
      123     5356    2           DO I=%M$MAXNEG# TO ROS$->B$ROSEG.NUMDCBS;
      124     5357    3              IF DCBPTR$->DCBTAB$(I)~=ADDR(NIL) THEN DO;
      125     5358    3                 CALL DAM$MAP(DCBPTR$->DCBTAB$(I),DCB$,-DA_CUN,7) ALTRET(OOPS);
      126     5359    3                 CALL DIDCB(I);
      127     5360    3                 END;
      128     5361    2              END;
      129     5362        /**/
      130     5363        /* Now get the hidden symbiont DCBs */
      131     5364        /**/
      132     5365    2           DO I=0 TO 15;
      133     5366    3              IF ROS$->B$ROSEG.STREAMID.FLG(I)=2 THEN DO;
      134     5367    3                 CALL DAM$MAP(PINCRW(B$ROS$,ROS$->B$ROSEG.STREAMID.IDENT(I)),
      135     5368    3                   DCB$,-DA_CUN,7) ALTRET(OOPS);
      136     5369    3                 CALL DIDCB(0);
      137     5370    3                 END;
      138     5371    2              END;
      139     5372    2           IF ROS$->B$ROSEG.CR01DCB>1 THEN DO;
      140     5373    2              CALL DAM$MAP(PINCRW(B$ROS$,ROS$->B$ROSEG.CR01DCB),DCB$,
      141     5374    2                -DA_CUN,7) ALTRET(OOPS);
      142     5375    2              IF F$DCB.DCBNAME.N~='M$UC' THEN
      143     5376    2                 CALL DIDCB(0);
      144     5377    2              END;
      145     5378        /**/
      146     5379        /* Print address of current DCB */
      147     5380        /**/
      148     5381    1           CALL DAM$MAP(B$JIT$,JIT$,-DA_CUN,7) ALTRET(OOPS);
      149     5382    1           DCB$=JIT$->B$JIT.DCB$;
      150     5383    2           IF DCB$~=ADDR(NIL) THEN DO;
      151     5384    2              CALL DAM$MAP(DCB$,DCB$,-DA_CUN,7) ALTRET(OOPS);
      152     5385    2              OFFSET=POFFW(DCB$,ROS$);
PL6.E3A0      #001=DAU$DCBS File=DAU$DCBS.:E05TSI                                TUE 07/29/97 12:54 Page:6
      153     5386    2              CALL DAF$WRITE(VECTOR(JDCBFMT),VECTOR(F$DCB.DCBNAME.N),
      154     5387    2                VECTOR(OFFSET));
      155     5388    2              END;
      156     5389    1           DA_MAPERR='0'B;
      157     5390    1           CALL DAF$ADDHDR;
      158     5391    1           RETURN;
      159     5392    1   OOPS:
      160     5393    1           CALL DAF$ADDHDR;
      161     5394    1           RETURN;
      162     5395        %EJECT;
PL6.E3A0      #001=DAU$DCBS File=DAU$DCBS.:E05TSI                                TUE 07/29/97 12:54 Page:7
      163     5396    1   DIDCB:  PROC(DCB#);
      164     5397        /**/
      165     5398    2   DCL DCB# SBIN;
      166     5399        /**/
      167     5400    2   DCL PSNL SBIN;
      168     5401    2   DCL I UBIN;
      169     5402    2   DCL BADDR SBIN;
      170     5403    2   DCL BUFX SBIN;
      171     5404    2   DCL 1 BFR,
      172     5405    2         2 BUFUP BIT(1),
      173     5406    2         2 SCRUB BIT(1),
      174     5407    2         2 CHNG BIT(1),
      175     5408    2         2 CVM BIT(1),
      176     5409    2         2 * BIT(5);
      177     5410    2   DCL CFUFLG UBIN;
      178     5411    2   DCL NILCFUFLG UBIN;
      179     5412    2   DCL FIDFLG BIT(1);
      180     5413    2   DCL FCNFLG UBIN;
      181     5414    2   DCL NILFCNFLG UBIN;
      182     5415        /**/
      183     5416    2           IF D# ~= -99 AND D# ~= DCB# THEN RETURN;
      184     5417    2           FIDFLG='1'B;
      185     5418    3           DO CASE(F$DCB.ASN);
      186     5419    3            CASE(%FILE#);
      187     5420    3              IF F$DCB.PSN=' ' THEN
      188     5421    3                 CALL CONCAT(FID,
      189     5422    3                   SUBSTR(F$DCB.NAME.C,0,F$DCB.NAME.L),
      190     5423    3                   '.',
      191     5424    3                   F$DCB.ACCT);
      192     5425    4              ELSE DO;
      193     5426    4                 CALL INDEX(PSNL,' ',F$DCB.PSN);
      194     5427    4                 CALL CONCAT(FID,
      195     5428    4                   'DP#',
      196     5429    4                   SUBSTR(F$DCB.PSN,0,PSNL),
      197     5430    4                   '/',
      198     5431    4                   SUBSTR(F$DCB.NAME.C,0,F$DCB.NAME.L),
      199     5432    4                   '.',
PL6.E3A0      #001=DAU$DCBS File=DAU$DCBS.:E05TSI                                TUE 07/29/97 12:54 Page:8
      200     5433    4                   F$DCB.ACCT);
      201     5434    4                 END;
      202     5435    3            CASE(%TAPE#);
      203     5436    3              CALL INDEX(PSNL,' ',F$DCB.PSN);
      204     5437    3              CALL CONCAT(FID,
      205     5438    3                'LT#',
      206     5439    3                SUBSTR(F$DCB.PSN,0,PSNL),
      207     5440    3                '/',
      208     5441    3                SUBSTR(F$DCB.NAME.C,0,F$DCB.NAME.L),
      209     5442    3                '.',
      210     5443    3                F$DCB.ACCT);
      211     5444    3            CASE(%DEVICE#);
      212     5445    3              IF F$DCB.PSN=' ' THEN FIDFLG='0'B;
      213     5446    3              ELSE CALL CONCAT(FID,
      214     5447    3                   SUBSTR(F$DCB.RES,0,2),
      215     5448    3                   '#',
      216     5449    3                   F$DCB.PSN);
      217     5450    3            CASE(%COMGROUP#);
      218     5451    3              CALL CONCAT(FID,
      219     5452    3                'CG/',
      220     5453    3                SUBSTR(F$DCB.NAME.C,0,F$DCB.NAME.L),
      221     5454    3                '.',F$DCB.ACCT);
      222     5455    3            CASE(%T@D#);
      223     5456    3              CALL CONCAT(FID,'TD/',SUBSTR(F$DCB.NAME.C,0,F$DCB.NAME.L));
      224     5457    3            CASE(ELSE);
      225     5458    3              FIDFLG='0'B;
      226     5459    3            END;
      227     5460    2           OFFSET=POFFW(DCB$,ROS$);
      228     5461    3           IF F$DCB.CFU$=ADDR(NIL) THEN DO;
      229     5462    3              NILCFUFLG=1;
      230     5463    3              CFUFLG=0;
      231     5464    3              END;
      232     5465    3           ELSE DO;
      233     5466    3              NILCFUFLG=0;
      234     5467    3              CFUFLG=1;
      235     5468    3              END;
      236     5469    2           CNT0=F$DCB.FCN.CNT(0);
PL6.E3A0      #001=DAU$DCBS File=DAU$DCBS.:E05TSI                                TUE 07/29/97 12:54 Page:9
      237     5470    2           CNT1=F$DCB.FCN.CNT(1);
      238     5471    3           IF F$DCB.FCN THEN DO;
      239     5472    3              FCNFLG=1;
      240     5473    3              NILFCNFLG=0;
      241     5474    3              END;
      242     5475    3           ELSE DO;
      243     5476    3              FCNFLG=0;
      244     5477    3              NILFCNFLG=1;
      245     5478    3              END;
      246     5479    2           CALL DAF$WRITE(VECTOR(DCBFMT1),
      247     5480    2             VECTOR(DCB#),
      248     5481    2             VECTOR(OFFSET),
      249     5482    2             VECTOR(FCDTAB(BITBIN(F$DCB.FCD))),
      250     5483    2             VECTOR(ASNTAB(F$DCB.ASN)),
      251     5484    2             VECTOR(ORGTAB(F$DCB.ORG)),
      252     5485    2             VECTOR(FUNTAB(F$DCB.FUN)),
      253     5486    2             VECTOR(SUBSTR(F$DCB.RES,0,2)),
      254     5487    2             VECTOR(F$DCB.SETX),
      255     5488    2             VECTOR(ASNTAB(F$DCB.IASN)),
      256     5489    2             VECTOR(ORGTAB(F$DCB.IORG)),
      257     5490    2             VECTOR(GTYPTAB(F$DCB.GTYP)),
      258     5491    2             VECTOR(CFUFLG),
      259     5492    2             VECTOR(NILCFUFLG),
      260     5493    2             VECTOR(F$DCB.CFU$),
      261     5494    2             VECTOR(NILCFUFLG),
      262     5495    2             VECTOR(FCNFLG),VECTOR(CNT0),VECTOR(CNT1),
      263     5496    2             VECTOR(NILFCNFLG),
      264     5497    2             VECTOR(F$DCB.DCBNAME.N));
      265     5498    2           IF FIDFLG THEN
      266     5499    2              CALL DAF$WRITE(VECTOR(DCBFMT2),
      267     5500    2                VECTOR(FID));
      268     5501    3           DO I=0 TO 4;
      269     5502    4              IF F$DCB.BFR.BUFX(I)~=0 THEN DO;
      270     5503    4                 BFR.BUFUP=F$DCB.BFR.BUFUP(I);
      271     5504    4                 BFR.SCRUB=F$DCB.BFR.SCRUB(I);
      272     5505    4                 BFR.CHNG=F$DCB.BFR.CHNG(I);
      273     5506    4                 BFR.CVM=F$DCB.BFR.CVM(I);
PL6.E3A0      #001=DAU$DCBS File=DAU$DCBS.:E05TSI                                TUE 07/29/97 12:54 Page:10
      274     5507    4                 BUFX=F$DCB.BFR.BUFX(I);
      275     5508    4                 BADDR=(BUFX-1)*1024;
      276     5509    4                 CALL DAF$WRITE(VECTOR(DCBFMT3),
      277     5510    4                   VECTOR(I),
      278     5511    4                   VECTOR(BFR),
      279     5512    4                   VECTOR(BUFX),
      280     5513    4                   VECTOR(BADDR),
      281     5514    4                   VECTOR(F$DCB.BFR.DA(I)),
      282     5515    4                   VECTOR(F$DCB.BFR1.CX(I)),
      283     5516    4                   VECTOR(F$DCB.BFR1.SIZ(I)));
      284     5517    4                 END;
      285     5518    3              END;
      286     5519    2           RETURN;
      287     5520    2   END DIDCB;
      288     5521        %EJECT;
PL6.E3A0      #001=DAU$DCBS File=DAU$DCBS.:E05TSI                                TUE 07/29/97 12:54 Page:11
      289     5522    1   DAU$JIT: ENTRY;
      290     5523    1           CALL DAM$MAP(B$JIT$,JIT$,-DA_CUN,7) ALTRET(OOPS);
      291     5524    1           CNT0=JIT$->B$JIT.USER;
      292     5525    1           CALL DAF$WRITE(VECTOR(JITFMT1),
      293     5526    1             VECTOR(MODE(JIT$->B$JIT.MODE)),
      294     5527    1             VECTOR(CNT0),
      295     5528    1             VECTOR(JIT$->B$JIT.FPSN),
      296     5529    1             VECTOR(JIT$->B$JIT.FACCN),
      297     5530    1             VECTOR(JIT$->B$JIT.WOO));
      298     5531    1           CALL DAF$WRITE(VECTOR(PRIVFMT),
      299     5532    1             VECTOR(JIT$->B$JIT.PRIV),
      300     5533    1             VECTOR(JIT$->B$JIT.PPRIV));
      301     5534    1           CALL DAF$WRITE(VECTOR(CCBUFFMT),
      302     5535    1             VECTOR(JIT$->B$JIT.CCBUF));
      303     5536    1           CALL DAF$WRITE(VECTOR(JITFMT2),
      304     5537    1             VECTOR(JIT$->B$JIT.CPFLAGS1),
      305     5538    1             VECTOR(JIT$->B$JIT.ERR),
      306     5539    1             VECTOR(JIT$->B$JIT.USRERR));
      307     5540    1           CNT0=JIT$->B$JIT.TPEXT+JIT$->B$JIT.TPSVT+JIT$->B$JIT.TUEXT+JIT$->B$JIT.TUSVT
              5540                    ;
      308     5541    1           CALL DAF$WRITE(VECTOR(JTIMEFMT),
      309     5542    1             VECTOR(JIT$->B$JIT.LOGONTIME),
      310     5543    1             VECTOR(CNT0),
      311     5544    1             VECTOR(JIT$->B$JIT.MRT),
      312     5545    1             VECTOR(JIT$->B$JIT.CALCNT));
      313     5546    1           CALL DAF$WRITE(VECTOR(JMMFMT),
      314     5547    1             VECTOR(JIT$->B$JIT.MAXCORE),
      315     5548    1             VECTOR(JIT$->B$JIT.CURRCORE),
      316     5549    1             VECTOR(JIT$->B$JIT.JPEAK),
      317     5550    1             VECTOR(JIT$->B$JIT.SPEAK),
      318     5551    1             VECTOR(JIT$->B$JIT.LNKCNT));
      319     5552    1           CALL DAF$WRITE(VECTOR(JPRIFMT),
      320     5553    1             VECTOR(JIT$->B$JIT.DEFPRI),
      321     5554    1             VECTOR(JIT$->B$JIT.MAXPRI),
      322     5555    1             VECTOR(JIT$->B$JIT.STEPS),
      323     5556    1             VECTOR(JIT$->B$JIT.STEPCC),
      324     5557    1             VECTOR(JIT$->B$JIT.INTER));
PL6.E3A0      #001=DAU$DCBS File=DAU$DCBS.:E05TSI                                TUE 07/29/97 12:54 Page:12
      325     5558    1           CALL DAF$WRITE(VECTOR(JMMLFMT),
      326     5559    1             VECTOR(JIT$->B$JIT.PLL),
      327     5560    1             VECTOR(JIT$->B$JIT.PUL),
      328     5561    1             VECTOR(JIT$->B$JIT.DLL),
      329     5562    1             VECTOR(JIT$->B$JIT.DUL),
      330     5563    1             VECTOR(JIT$->B$JIT.DDLL),
      331     5564    1             VECTOR(JIT$->B$JIT.DDUL));
      332     5565    1           CALL DAF$WRITE(VECTOR(JMMPCFMT),
      333     5566    1             VECTOR(JIT$->B$JIT.PPC),
      334     5567    1             VECTOR(JIT$->B$JIT.PCP),
      335     5568    1             VECTOR(JIT$->B$JIT.PCD),
      336     5569    1             VECTOR(JIT$->B$JIT.PCDS),
      337     5570    1             VECTOR(JIT$->B$JIT.PCC),
      338     5571    1             VECTOR(JIT$->B$JIT.PCROS),
      339     5572    1             VECTOR(JIT$->B$JIT.PCDD),
      340     5573    1             VECTOR(JIT$->B$JIT.PCDDS),
      341     5574    1             VECTOR(JIT$->B$JIT.PCADS),
      342     5575    1             VECTOR(JIT$->B$JIT.PCL),
      343     5576    1             VECTOR(JIT$->B$JIT.PCV));
      344     5577    1           CALL DAF$WRITE(VECTOR(JMMMFMT),
      345     5578    1             VECTOR(JIT$->B$JIT.TDP),
      346     5579    1             VECTOR(JIT$->B$JIT.EUP),
      347     5580    1             VECTOR(JIT$->B$JIT.FBUC),
      348     5581    1             VECTOR(JIT$->B$JIT.FBUL),
      349     5582    1             VECTOR(JIT$->B$JIT.XCONF),
      350     5583    1             VECTOR(JIT$->B$JIT.XLIMFLG),
      351     5584    1             VECTOR(JIT$->B$JIT.SVLDTF));
      352     5585    1           CALL DAF$WRITE(VECTOR(JRNSTFMT),
      353     5586    1             VECTOR(JIT$->B$JIT.RNST),
      354     5587    1             VECTOR(JIT$->B$JIT.FRS),
      355     5588    1             VECTOR(JIT$->B$JIT.RUNFLAGS),
      356     5589    1             VECTOR(JIT$->B$JIT.JUNK),
      357     5590    1             VECTOR(JIT$->B$JIT.JUNK2));
      358     5591                                           /* #39271: MODIFIED TO DISPLAY SUBDEVICE
      359     5592                                            *         AND SUBSUBDEVICE TSLINE FIELDS
      360     5593                                            *         FOR VALID LEV VALUES
      361     5594                                            */
PL6.E3A0      #001=DAU$DCBS File=DAU$DCBS.:E05TSI                                TUE 07/29/97 12:54 Page:13
      362     5595    2           IF JIT$->B$JIT.TSLINE.LEV = 2 THEN DO;
      363     5596    2              SUBDEV_ARG.LEVEL2.N_ARGS=1;
      364     5597    2              SUBDEV_ARG.LEVEL2.SUBDEV=JIT$->B$JIT.TSLINE.SUBDEVICE;
      365     5598    2              SUBDEV_VECTOR=VECTOR(SUBDEV_ARG.LEVEL2);
      366     5599    2              END;
      367     5600    2           ELSE IF JIT$->B$JIT.TSLINE.LEV = 3 THEN DO;
      368     5601    2                 SUBDEV_ARG.LEVEL2.N_ARGS=2;
      369     5602    2                 SUBDEV_ARG.LEVEL2.SUBDEV=JIT$->B$JIT.TSLINE.SUBDEVICE;
      370     5603    2                 SUBDEV_ARG.SUBSUBDEV=JIT$->B$JIT.TSLINE.SUBSUBDEVICE;
      371     5604    2                 SUBDEV_VECTOR=VECTOR(SUBDEV_ARG);
      372     5605    2                 END;
      373     5606    2              ELSE DO;
      374     5607    2                 SUBDEV_ARG.LEVEL2.N_ARGS=0;
      375     5608    2                 SUBDEV_VECTOR=VECTOR(SUBDEV_ARG.LEVEL2.N_ARGS);
      376     5609    2                 END;
      377     5610    1           CALL DAF$WRITE(VECTOR(JIOSFMT),
      378     5611    1             VECTOR(JIT$->B$JIT.ACCESS.PACKS),
      379     5612    1             VECTOR(JIT$->B$JIT.ACCESS.TAPES),
      380     5613    1             VECTOR(JIT$->B$JIT.TSLINE.FEX),
      381     5614    1             VECTOR(JIT$->B$JIT.TSLINE.PORT),
      382     5615    1             SUBDEV_VECTOR,
      383     5616    1             VECTOR(JIT$->B$JIT.ENQS),
      384     5617    1             VECTOR(JIT$->B$JIT.PRIOB),
      385     5618    1             VECTOR(JIT$->B$JIT.QUAN));
      386     5619    1           RETURN;
      387     5620        %EJECT;
PL6.E3A0      #001=DAU$DCBS File=DAU$DCBS.:E05TSI                                TUE 07/29/97 12:54 Page:14
      388     5621    1   DAU$WHOHAS: ENTRY(TOP);
      389     5622    1           IF TOP.NSUBLKS > 1 THEN
      390     5623    1              OPEN_OPT_REQ = '1'B;
      391     5624    1           ELSE
      392     5625    1              OPEN_OPT_REQ = '0'B;
      393     5626    1           FASN = 0;
      394     5627    1           FNAME.NAME# = ' ';
      395     5628    1           FPSN.SN#(0) = ' ';
      396     5629    1           FACCT.ACCT# = ' ';
      397     5630    1           FPT_FID.TEXTFID_=VECTOR(TOP.SUBLK$(0)->SYM.TEXT);
      398     5631    2           CALL M$FID(FPT_FID) WHENALTRETURN DO;
      399     5632    2              CALL DAA$ERRMSG(B$ALT.ERR);
      400     5633    2              RETURN;
      401     5634    2              END;
      402     5635    1           UCNT=0;
      403     5636    2           DO U=1 TO DA_MUAIS;
      404     5637    3              IF B$USRT$->B$USER.US(U)~=%SS_SNULL THEN DO;
      405     5638    3                 CALL DAM$FREEM;
      406     5639    4                 CALL DAM$MAP(B$ROS$,ROS$,-U,7) WHENRETURN DO;
      407     5640    5                    CALL DAM$MAP(ROS$->B$ROSEG.DCBPTR$,DCBPTR$,-U,7) WHENRETURN DO;
      408     5641    6                       DO I=%M$MAXNEG# TO ROS$->B$ROSEG.NUMDCBS;
      409     5642    7                          IF DCBPTR$->DCBTAB$(I)~=ADDR(NIL) THEN DO;
      410     5643    8                             CALL DAM$MAP(DCBPTR$->DCBTAB$(I),DCB$,-U,7) WHENRETURN DO;
      411     5644    8                                IF FNAME.NAME# ~= ' ' THEN
      412     5645    8                                   CALL TEST_FNAME;
      413     5646    8                                ELSE
      414     5647    8                                   IF FACCT.ACCT# ~= ' ' THEN
      415     5648    8                                      CALL TEST_FACCT;
      416     5649    8                                   ELSE;
      417     5650    8                                END;       /*WHENRETURN*/
      418     5651    7                             END;          /*IF*/
      419     5652    6                          END;             /*DO I*/
      420     5653    5                       END;                /*WHENRETURN*/
      421     5654    4                    END;                   /*WHENRETURN*/
      422     5655    3                 END;                      /*IF*/
      423     5656    2              END;                         /*DO U*/
      424     5657    2           IF UCNT=0 THEN DO;
PL6.E3A0      #001=DAU$DCBS File=DAU$DCBS.:E05TSI                                TUE 07/29/97 12:54 Page:15
      425     5658    2              CALL DAA$ERRMSG(%E$DA_NO_ONE_HAS_FILE_OPEN);
      426     5659        /*E*       ERROR:  DAA-E$DA_NO_ONE_HAS_FILE_OPEN
      427     5660                   MESSAGE: No one that I can find.
      428     5661              MESSAGE1: But someone may have opened it and then M$LINKed to another program.
      429     5662        */
      430     5663    2              END;
      431     5664    1           RETURN;
      432     5665    1   TEST_FNAME: PROC;
      433     5666    2           IF (F$DCB.ASN=FASN) AND
      434     5667    2             (F$DCB.NAME.C=FNAME.NAME#) AND
      435     5668    2             (F$DCB.ACCT=FACCT.ACCT# OR FACCT.ACCT#=' ') AND
      436     5669    3             (F$DCB.PSN=FPSN.SN#(0) OR FPSN.SN#(0)=' ' OR F$DCB.PSN=' ') THEN DO;
      437     5670    3              CALL DAM$MAP(B$JIT$,JIT$,-U,7);
      438     5671    3              IF F$DCB.FCD THEN
      439     5672    3                 CLSDV=VECTOR(NIL);
      440     5673    4              ELSE DO;
      441     5674    4                 IF OPEN_OPT_REQ THEN RETURN;
      442     5675    4                 CLSDV=VECTOR(CLSD);
      443     5676    4                 END;
      444     5677    3              CALL DAF$WRITE(VECTOR(WHOFMT),
      445     5678    3                VECTOR(JIT$->B$JIT.SYSID),
      446     5679    3                VECTOR(JIT$->B$JIT.ACCN),
      447     5680    3                VECTOR(JIT$->B$JIT.UNAME),
      448     5681    3                VECTOR(F$DCB.DCBNAME.N),
      449     5682    3                CLSDV);
      450     5683    3              UCNT=UCNT+1;
      451     5684    3              END;
      452     5685    2   END TEST_FNAME;
      453     5686    1   TEST_FACCT: PROC;
      454     5687    2           IF (F$DCB.ASN=%FILE# OR F$DCB.ASN=%COMGROUP#) AND
      455     5688    2             (F$DCB.ACCT=FACCT.ACCT# ) AND
      456     5689    3             (F$DCB.PSN=FPSN.SN#(0) OR FPSN.SN#(0)=' ' OR F$DCB.PSN=' ') THEN DO;
      457     5690    3              CALL DAM$MAP(B$JIT$,JIT$,-U,7);
      458     5691    3              IF F$DCB.FCD THEN
      459     5692    3                 CLSDV=VECTOR(NIL);
      460     5693    4              ELSE DO;
      461     5694    4                 IF OPEN_OPT_REQ THEN RETURN;
PL6.E3A0      #001=DAU$DCBS File=DAU$DCBS.:E05TSI                                TUE 07/29/97 12:54 Page:16
      462     5695    4                 CLSDV=VECTOR(CLSD);
      463     5696    4                 END;
      464     5697    3              CALL DAF$WRITE(VECTOR(WHOFMT),
      465     5698    3                VECTOR(JIT$->B$JIT.SYSID),
      466     5699    3                VECTOR(JIT$->B$JIT.ACCN),
      467     5700    3                VECTOR(JIT$->B$JIT.UNAME),
      468     5701    3                VECTOR(F$DCB.DCBNAME.N),
      469     5702    3                CLSDV);
      470     5703    3              UCNT=UCNT+1;
      471     5704    3              END;
      472     5705    2   END TEST_FACCT;
      473     5706    1   END DAU$DCBS;

PL6.E3A0      #001=DAU$DCBS File=DAU$DCBS.:E05TSI                                TUE 07/29/97 12:54 Page:17
--  Include file information  --

   DA_MAP_R.:E05TOU  cannot be made into a system file and is referenced.
   DA_ANLZ_R.:E05TOU  cannot be made into a system file and is referenced.
   DA_TEXTC_C.:E05TOU  is referenced.
   DA_FORMAT_C.:E05TOU  is referenced.
   CP_6.:E05TOU  cannot be made into a system file and is referenced.
   CP_6_SUBS.:E05TOU  is referenced.
   F$DCB.:E05TOU  cannot be made into a system file and is referenced.
   B$ROSEG.:E05TOU  cannot be made into a system file and is referenced.
   SS_SCHED_C.:E05TOU  is referenced.
   B$USER.:E05TOU  cannot be made into a system file and is referenced.
   DA_PERR_C.:E05TOU  is referenced.
   B$JIT.:E05TOU  cannot be made into a system file and is referenced.
   XU_MACRO_C.:E05TOU  is referenced.
   B$JIT_C.:E05TOU  was found in the system file and is referenced.
   CP_6_C.:E05TOU  was found in the system file and is referenced.
      No diagnostics issued in procedure DAU$DCBS.

   Procedure DAU$DCBS requires 1803 words for executable code.
   Procedure DAU$DCBS requires 176 words of local(AUTO) storage.

    No errors detected in file DAU$DCBS.:E05TSI    .

PL6.E3A0      #001=DAU$DCBS File=DAU$DCBS.:E05TSI                                TUE 07/29/97 12:54 Page:18

 Object Unit name= DAU$DCBS                                   File name= DAU$DCBS.:E05TOU
 UTS= JUL 29 '97 12:54:31.44 TUE                              Compiler= PL-6/E31         Sev=      00
 SharedLib= :SHARED_SYSTEM                                    Alt SharedLib=


    ****  Control sections  ****

 Sect   Type Bound  Init  Size OctSiz  Section name(segment info)
    0   DCB   even  none     0      0  M$UC
    1  RoData even  UTS    346    532  DAU$DCBS
    2   Data  even  none    79    117  DAU$DCBS
    3   Proc  even  none  1803   3413  DAU$DCBS
    4  RoData even  none   121    171  DAU$DCBS

    ****  Entry defs  ****

                              Check   Calling
                             calling  sequence
  Sect OctLoc Primary Altret sequence   type   Parms  Name
     3      0   yes            yes      Std        1  DAU$DCBS
     3   1455                  yes      Std        0  DAU$JIT
     3   2664                  yes      Std        1  DAU$WHOHAS

  ****  Entry refs  ****

         Check        Calling
        calling       sequence
Altret sequence SRef   type   Args  Name
 yes     yes           Std       3 DAA$VALUE
         yes           Std       1 DAF$ADDHDR
         yes           Std       0 DAM$FREEM
         yes           Std       1 DAA$ERRMSG
 yes     yes           Std       5 DAM$MAP
                       nStd      0 X66_AUTO_1
                       Std       0 B_CONSPOOL_D
                       nStd      0 X66_ARET
PL6.E3A0      #001=DAU$DCBS File=DAU$DCBS.:E05TSI                                TUE 07/29/97 12:54 Page:19

  ****  Data refs  ****

  Flags:  r = read only, s = secondary
Flgs Name                             Flgs Name                             Flgs Name
     DAF$WRITE                             B$ROS$                                B$JIT$
     B$USRT$                               M$UC                                  B$TCB$
     DA_CUN                                DA_MUAIS                              DA_MAPERR
     B_VECTNIL

  ****  Segment refs  ****

  Flags:  r = read only, s = secondary
Flgs Name                             Flgs Name                             Flgs Name
     ISSID                                 NULLSID
PL6.E3A0      #001=DAU$DCBS File=DAU$DCBS.:E05TSI                                TUE 07/29/97 12:54 Page:20


        1        1        /*M* DAU$DCBS - DISPLAY DCBS FOR DA_CUN */
        2        2        /*T***********************************************************/
        3        3        /*T*                                                         */
        4        4        /*T* Copyright (c) Bull HN Information Systems Inc., 1997    */
        5        5        /*T*                                                         */
        6        6        /*T***********************************************************/
        7        7        /*X* DMR */
        8        8        DAU$DCBS: PROC(TOP);

      8  3 000000   000000 700200 xent  DAU$DCBS     TSX0  ! X66_AUTO_1
         3 000001   000260 000001                    ZERO    176,1

        9        9        /**/
       10       10        %INCLUDE XU_MACRO_C;
       11     3116        %PARSE$OUT (NAME=TOP,STCLASS=PARAM);
       12     3161        /**/
       13     3162    1   DCL DAF$WRITE EPTR SYMREF;
       14     3163    1   DCL DAA$ERRMSG ENTRY(1);
       15     3164    1   DCL DAA$VALUE ENTRY(3) ALTRET;
       16     3165    1   DCL DAF$ADDHDR ENTRY(1);
       17     3166    1   DCL DAM$FREEM ENTRY;
       18     3167    1   DCL DAM$MAP ENTRY(5) ALTRET;
       19     3168    1   DCL B$ROS$ PTR SYMREF;
       20     3169    1   DCL B$JIT$ PTR SYMREF;
       21     3170    1   DCL JIT$ PTR;
       22     3171        %INCLUDE B$JIT;
       23     3461        %INCLUDE DA_PERR_C;
       24     3525        %INCLUDE B$USER;
       25     3741    1   DCL B$USRT$ PTR SYMREF;
       26     3742        %INCLUDE SS_SCHED_C;
       27     3975        %INCLUDE B$ROSEG;
       28     4038        %INCLUDE F$DCB;
       29     4087        %SUB F$DCB="DCB$->F$DCB";
       30     4088        %INCLUDE CP_6_SUBS;
       31     4628        %INCLUDE CP_6;
       32     4709        %INCLUDE DA_FORMAT_C;
PL6.E3A0      #001=DAU$DCBS File=DAU$DCBS.:E05TSI                                TUE 07/29/97 12:54 Page:21
       33     4951        %INCLUDE DA_TEXTC_C;
       34     4982    1   DCL ROS$ PTR;
       35     4983    1   DCL DCBTAB$(0:0) PTR BASED ALIGNED;
       36     4984    1   DCL I SBIN;
       37     4985    1   DCL D# SBIN;
       38     4986    1   DCL OFFSET SBIN;
       39     4987    1   DCL B$TCB$ PTR SYMREF;
       40     4988        %B$TCB;
       41     4991        %B$ALT;
       42     4999        %SUB B$ALT=B$TCB$->B$TCB.ALT$->B$ALT;
       43     5000    1   DCL CNT0 SBIN;
       44     5001    1   DCL CNT1 SBIN;
       45     5002    1   DCL DCBPTR$ PTR;
       46     5003        /**/
       47     5004    1   DCL DCBFMT1 CHAR(0) CONSTANT INIT(
       48     5005    1   '%+2D .%5ZO %A %A %A %A %A%5O %A %A %A %N(%S.%6.18ZO/%0.0.3.6P%1D%)%N(%9X%S%S%) %N(
              5005        %1D,%1D%)%19P%N(%3X%) %>A');
       49     5006    1   DCL DCBFMT2 CHAR(0) CONSTANT INIT(
       50     5007    1        '%15-Fid: %>A');
       51     5008    1   DCL DCBFMT3 CHAR(0) CONSTANT INIT(
       52     5009             '%10-BFR #%D:  %1N(BUFUP,%)%1N(SCRUB,%)%1N(CHNG,%)
       53     5010        %1N(CVM,%)%SBUFX=%D,B$=.%O,DA=.%O,CX=.%O,
       54     5011    1   SIZ=%D');
       55     5012    1   DCL ASNTAB(0:9) CHAR(3) CONSTANT INIT(
       56     5013    1        ' ','FIL','TAP','DEV','CG','STR','T&D','FMD','FPG','FPA');
       57     5014    1   DCL ORGTAB(0:25) CHAR(3) CONSTANT INIT(
       58     5015    1        ' ','CON','KEY','RAN','UR','REL','IND','IDS','TRM','SYM',
       59     5016    1        'FPG','CG','?','IRL','?','FIX','VAR','UND','RST','FRE','DDB',
       60     5017    1        'DCG','DSY','SE ','X36','FRM');
       61     5018    1   DCL FUNTAB(0:3) CHAR(2) CONSTANT INIT(
       62     5019    1        ' ','UP','IN','CR');
       63     5020    1   DCL GTYPTAB(0:7) CHAR(4) CONSTANT INIT(
       64     5021    1        ' ','GP','MAD','PAD','FD','FIT','FILE','FDST');
       65     5022    1   DCL FCDTAB(0:1) CHAR(3) CONSTANT UNAL INIT('CLS','OPN');
       66     5023        %SET RPTNAME='DCB';
       67     5024        %SET HDRNUM=0;
       68     5025        %SET TXTNUM=0;
PL6.E3A0      #001=DAU$DCBS File=DAU$DCBS.:E05TSI                                TUE 07/29/97 12:54 Page:22
       69     5026        %HEADER (NAME=DCBHDR,LAST=NO,STCLASS=CONSTANT,
       70     5027            TEXT='NO OFFSET ST  ASN ORG FN RS SETX IAS IOR GTYP CFU$      FCN DCBNAME');
       71     5069        %HEADER (STCLASS=CONSTANT,
       72     5070            TEXT=
              5070           '-- ------ --- --- --- -- -- ---- --- --- ---- --------- --- ------------------'
              5070                );
       73     5112        %INCLUDE DA_ANLZ_R;
       74     5125        %INCLUDE DA_MAP_R;
       75     5155    1   DCL JDCBFMT CHAR(0) CONSTANT INIT('%/JIT DCB IS %>A @.%O%/');
       76     5156    1   DCL DCB$ PTR;
       77     5157    1   DCL FID CHAR(80);
       78     5158    1   DCL MODE(0:4) CHAR(6) CONSTANT INIT('????','BATCH','GHOST','ONLINE','TP');
       79     5159    1   DCL JITFMT1 CHAR(0) CONSTANT INIT('%>A USER NUMBER .%O  FMA=DP#%>A.%>A WOO=%>A%2/')
              5159            ;
       80     5160    1   DCL PRIVFMT CHAR(0) CONSTANT INIT(%CONCAT('PRIVILEGES:%/',
       81     5161        'ACTIVE       AUTH         JOB          PRC          SAVED        PPRIV%/',
       82     5162        '------------ ------------ ------------ ------------ ------------ ------------%/',
       83     5163    1   '%6(%12ZO %)%2/'));
       84     5164    1   DCL CCBUFFMT CHAR(0) CONSTANT INIT('CCBUF: %>A%2/');
       85     5165    1   DCL JITFMT2 CHAR(0) CONSTANT INIT('CPFLAGS: %12ZO  ERR: %J  USRERR: %J%2/');
       86     5166    1   DCL JTIMEFMT CHAR(0) CONSTANT INIT(
              5166            'LOGON: %..2.0U  CPU USED: %..0.4U  MRT: %..0.4U  PMMES: %D%2/');
       87     5167    1   DCL JMMFMT CHAR(0) CONSTANT INIT(
              5167            'MAXCORE: %D  CURCORE: %D  JPEAK: %D  SPEAK: %D  LNKCNT: %D%2/');
       88     5168    1   DCL JPRIFMT CHAR(0) CONSTANT INIT(
              5168            'DEFPRI: %D  MAXPRI: %D  STEPS: %D  STEPCC: %D  INTER: %D%2/');
       89     5169    1   DCL JMMLFMT CHAR(0) CONSTANT INIT(
              5169            'PLL: %D  PUL: %D  DLL: %D  DUL: %D  DDLL: %D  DDUL: %D%2/');
       90     5170    1   DCL JMMPCFMT CHAR(0) CONSTANT INIT(
       91     5171    1   'PPC: %D  PCP: %D  PCD: %D  PCDS: %D  PCC: %D  PCROS: %D  PCDD: %D%/PCDDS: %D PCADS
              5171        : %D  PCL: %D  PCV: %D%2/');
       92     5172    1   DCL JMMMFMT CHAR(0) CONSTANT INIT('TDP: %D  EUP: %D  FBUC: %D  FBUL: %D XCONF: .%3Z
              5172        O  XLIMFLG: .%3ZO  SVLDTF: .%3ZO%2/');
       93     5173    1   DCL JRNSTFMT CHAR(0) CONSTANT INIT(
              5173            'RNST: .%3ZO  FRS: .%3ZO  RUNFLAGS: .%3ZO  JUNKs: .%6ZO .%6ZO%2/');
       94     5174    1   DCL JIOSFMT CHAR(0) CONSTANT INIT('DISKIOS: %D  TAPEIOS: %D  LINE: %D-%4ZH%N(-%D%)
              5174        ENQS: %D  PRIOB: %+D  QUAN: %+D%2/');
PL6.E3A0      #001=DAU$DCBS File=DAU$DCBS.:E05TSI                                TUE 07/29/97 12:54 Page:23
       95     5175        %FPT_FID (NAME=FNAME,ACCT=FACCT,SN=FPSN,ASN=FASN,RES=FRES);
       96     5198        %VLP_NAME (FPTN=FNAME);
       97     5225        %VLP_ACCT (FPTN=FACCT);
       98     5238        %VLP_SN (FPTN=FPSN,N=1);
       99     5251    1   DCL FASN UBIN BYTE STATIC CALIGNED;
      100     5252    1   DCL OPEN_OPT_REQ BIT(1) STATIC;
      101     5253    1   DCL FRES CHAR(4) STATIC;
      102     5254    1   DCL U SBIN;
      103     5255    1   DCL UCNT SBIN;
      104     5256        %PARSE$OUT (NAME=OUT,STCLASS=BASED);
      105     5301        %PARSE$SYM (NAME=SYM,STCLASS=BASED);
      106     5339    1   DCL WHOFMT CHAR(0) CONSTANT INIT('%D %>A,%>A (%>A) %A');
      107     5340    1   DCL CLSD CHAR(0) CONSTANT INIT('(Closed)');
      108     5341    1   DCL CLSDV VECTOR;
      109     5342    1   DCL 1 SUBDEV_ARG ALIGNED,
      110     5343    1         2 LEVEL2,
      111     5344    1           3 N_ARGS SBIN,
      112     5345    1           3 SUBDEV SBIN,
      113     5346    1         2 SUBSUBDEV SBIN;
      114     5347    1   DCL SUBDEV_VECTOR BIT(72);
      115     5348        %EJECT;
PL6.E3A0      #001=DAU$DCBS File=DAU$DCBS.:E05TSI                                TUE 07/29/97 12:54 Page:24
      116     5349    1           IF TOP.NSUBLKS = 1 THEN

   5349  3 000002   200003 470500                    LDP0    @TOP,,AUTO
         3 000003   000001 220100                    LDX0    1,,PR0
         3 000004   000001 100003                    CMPX0   1,DU
         3 000005   000017 601000 3                  TNZ     ZERO

      117     5350    1              CALL DAA$VALUE (TOP.SUBLK$(0)->OUT, D#) ALTRET (ZERO);

   5350  3 000006   000003 471500                    LDP1    3,,PR0
         3 000007   200007 633500                    EPPR3   D#,,AUTO
         3 000010   200071 453500                    STP3    NILFCNFLG+2,,AUTO
         3 000011   200070 451500                    STP1    NILFCNFLG+1,,AUTO
         3 000012   200070 630500                    EPPR0   NILFCNFLG+1,,AUTO
         3 000013   000020 631400 xsym               EPPR1   B_VECTNIL+16
         3 000014   000000 701000 xent               TSX1    DAA$VALUE
         3 000015   000017 702000 3                  TSX2    ZERO
         3 000016   000021 710000 3                  TRA     s:5353

      118     5351    1           ELSE
      119     5352    1   ZERO:      D# = -99;

   5352  3 000017   000143 335007       ZERO         LCA     99,DL
         3 000020   200007 755100                    STA     D#,,AUTO

      120     5353    1           CALL DAM$MAP(B$ROS$,ROS$,-DA_CUN,7) ALTRET(OOPS);

   5353  3 000021   000000 335000 xsym               LCA     DA_CUN
         3 000022   200070 755100                    STA     NILFCNFLG+1,,AUTO
         3 000023   000000 236000 4                  LDQ     0
         3 000024   200075 756100                    STQ     NILFCNFLG+6,,AUTO
         3 000025   200070 630500                    EPPR0   NILFCNFLG+1,,AUTO
         3 000026   200074 450500                    STP0    NILFCNFLG+5,,AUTO
         3 000027   200005 631500                    EPPR1   ROS$,,AUTO
         3 000030   200073 451500                    STP1    NILFCNFLG+4,,AUTO
         3 000031   000001 236000 4                  LDQ     1
         3 000032   200072 756100                    STQ     NILFCNFLG+3,,AUTO
PL6.E3A0      #001=DAU$DCBS File=DAU$DCBS.:E05TSI                                TUE 07/29/97 12:54 Page:25
         3 000033   200072 630500                    EPPR0   NILFCNFLG+3,,AUTO
         3 000034   000022 631400 xsym               EPPR1   B_VECTNIL+18
         3 000035   000000 701000 xent               TSX1    DAM$MAP
         3 000036   000340 702000 3                  TSX2    OOPS

      121     5354    1           CALL DAM$MAP(ROS$->B$ROSEG.DCBPTR$,DCBPTR$,-DA_CUN,7) ALTRET(OOPS);

   5354  3 000037   000000 335000 xsym               LCA     DA_CUN
         3 000040   200070 755100                    STA     NILFCNFLG+1,,AUTO
         3 000041   000000 236000 4                  LDQ     0
         3 000042   200075 756100                    STQ     NILFCNFLG+6,,AUTO
         3 000043   200070 630500                    EPPR0   NILFCNFLG+1,,AUTO
         3 000044   200074 450500                    STP0    NILFCNFLG+5,,AUTO
         3 000045   200013 631500                    EPPR1   DCBPTR$,,AUTO
         3 000046   200073 451500                    STP1    NILFCNFLG+4,,AUTO
         3 000047   200005 236100                    LDQ     ROS$,,AUTO
         3 000050   200072 756100                    STQ     NILFCNFLG+3,,AUTO
         3 000051   200072 630500                    EPPR0   NILFCNFLG+3,,AUTO
         3 000052   000022 631400 xsym               EPPR1   B_VECTNIL+18
         3 000053   000000 701000 xent               TSX1    DAM$MAP
         3 000054   000340 702000 3                  TSX2    OOPS

      122     5355    1           CALL DAF$ADDHDR(DCBHDR);

   5355  3 000055   000002 630400 4                  EPPR0   2
         3 000056   000017 631400 xsym               EPPR1   B_VECTNIL+15
         3 000057   000000 701000 xent               TSX1    DAF$ADDHDR
         3 000060   000000 011000                    NOP     0

      123     5356    2           DO I=%M$MAXNEG# TO ROS$->B$ROSEG.NUMDCBS;

   5356  3 000061   000040 335007                    LCA     32,DL
         3 000062   200006 755100                    STA     I,,AUTO
         3 000063   000116 710000 3                  TRA     s:5361+1

      124     5357    3              IF DCBPTR$->DCBTAB$(I)~=ADDR(NIL) THEN DO;

PL6.E3A0      #001=DAU$DCBS File=DAU$DCBS.:E05TSI                                TUE 07/29/97 12:54 Page:26
   5357  3 000064   200013 470500                    LDP0    DCBPTR$,,AUTO
         3 000065   200006 720100                    LXL0    I,,AUTO
         3 000066   000000 236110                    LDQ     0,X0,PR0
         3 000067   000001 116000 xsym               CMPQ    B_VECTNIL+1
         3 000070   000115 600000 3                  TZE     s:5361

      125     5358    3                 CALL DAM$MAP(DCBPTR$->DCBTAB$(I),DCB$,-DA_CUN,7) ALTRET(OOPS);

   5358  3 000071   000000 335000 xsym               LCA     DA_CUN
         3 000072   200070 755100                    STA     NILFCNFLG+1,,AUTO
         3 000073   000000 236000 4                  LDQ     0
         3 000074   200075 756100                    STQ     NILFCNFLG+6,,AUTO
         3 000075   200070 631500                    EPPR1   NILFCNFLG+1,,AUTO
         3 000076   200074 451500                    STP1    NILFCNFLG+5,,AUTO
         3 000077   200014 633500                    EPPR3   DCB$,,AUTO
         3 000100   200073 453500                    STP3    NILFCNFLG+4,,AUTO
         3 000101   200006 236100                    LDQ     I,,AUTO
         3 000102   000022 736000                    QLS     18
         3 000103   200013 036100                    ADLQ    DCBPTR$,,AUTO
         3 000104   200072 756100                    STQ     NILFCNFLG+3,,AUTO
         3 000105   200072 630500                    EPPR0   NILFCNFLG+3,,AUTO
         3 000106   000022 631400 xsym               EPPR1   B_VECTNIL+18
         3 000107   000000 701000 xent               TSX1    DAM$MAP
         3 000110   000340 702000 3                  TSX2    OOPS

      126     5359    3                 CALL DIDCB(I);

   5359  3 000111   200006 630500                    EPPR0   I,,AUTO
         3 000112   200055 450500                    STP0    SUBDEV_VECTOR+4,,AUTO
         3 000113   000344 701000 3                  TSX1    DIDCB
         3 000114   000000 011000                    NOP     0

      127     5360    3                 END;

      128     5361    2              END;

   5361  3 000115   200006 054100                    AOS     I,,AUTO
PL6.E3A0      #001=DAU$DCBS File=DAU$DCBS.:E05TSI                                TUE 07/29/97 12:54 Page:27
         3 000116   200005 470500                    LDP0    ROS$,,AUTO
         3 000117   000002 236100                    LDQ     2,,PR0
         3 000120   000022 772000                    QRL     18
         3 000121   200006 116100                    CMPQ    I,,AUTO
         3 000122   000064 605000 3                  TPL     s:5357

      129     5362        /**/
      130     5363        /* Now get the hidden symbiont DCBs */
      131     5364        /**/
      132     5365    2           DO I=0 TO 15;

   5365  3 000123   200006 450100                    STZ     I,,AUTO

      133     5366    3              IF ROS$->B$ROSEG.STREAMID.FLG(I)=2 THEN DO;

   5366  3 000124   200005 470500                    LDP0    ROS$,,AUTO
         3 000125   200006 720100                    LXL0    I,,AUTO
         3 000126   000074 236110                    LDQ     60,X0,PR0
         3 000127   600000 376003                    ANQ     -65536,DU
         3 000130   400000 116003                    CMPQ    -131072,DU
         3 000131   000160 601000 3                  TNZ     s:5371

      134     5367    3                 CALL DAM$MAP(PINCRW(B$ROS$,ROS$->B$ROSEG.STREAMID.IDENT(I)),

   5367  3 000132   000074 721110                    LXL1    60,X0,PR0
         3 000133   000000 636011                    EAQ     0,X1
         3 000134   000000 036000 xsym               ADLQ    B$ROS$
         3 000135   200070 756100                    STQ     NILFCNFLG+1,,AUTO
         3 000136   000000 335000 xsym               LCA     DA_CUN
         3 000137   200071 755100                    STA     NILFCNFLG+2,,AUTO
         3 000140   000000 236000 4                  LDQ     0
         3 000141   200075 756100                    STQ     NILFCNFLG+6,,AUTO
         3 000142   200071 631500                    EPPR1   NILFCNFLG+2,,AUTO
         3 000143   200074 451500                    STP1    NILFCNFLG+5,,AUTO
         3 000144   200014 633500                    EPPR3   DCB$,,AUTO
         3 000145   200073 453500                    STP3    NILFCNFLG+4,,AUTO
         3 000146   200070 634500                    EPPR4   NILFCNFLG+1,,AUTO
PL6.E3A0      #001=DAU$DCBS File=DAU$DCBS.:E05TSI                                TUE 07/29/97 12:54 Page:28
         3 000147   200072 454500                    STP4    NILFCNFLG+3,,AUTO
         3 000150   200072 630500                    EPPR0   NILFCNFLG+3,,AUTO
         3 000151   000022 631400 xsym               EPPR1   B_VECTNIL+18
         3 000152   000000 701000 xent               TSX1    DAM$MAP
         3 000153   000340 702000 3                  TSX2    OOPS

      135     5368    3                   DCB$,-DA_CUN,7) ALTRET(OOPS);
      136     5369    3                 CALL DIDCB(0);

   5369  3 000154   000003 236000 4                  LDQ     3
         3 000155   200055 756100                    STQ     SUBDEV_VECTOR+4,,AUTO
         3 000156   000344 701000 3                  TSX1    DIDCB
         3 000157   000000 011000                    NOP     0

      137     5370    3                 END;

      138     5371    2              END;

   5371  3 000160   200006 054100                    AOS     I,,AUTO
         3 000161   200006 235100                    LDA     I,,AUTO
         3 000162   000017 115007                    CMPA    15,DL
         3 000163   000124 604400 3                  TMOZ    s:5366

      139     5372    2           IF ROS$->B$ROSEG.CR01DCB>1 THEN DO;

   5372  3 000164   200005 470500                    LDP0    ROS$,,AUTO
         3 000165   000115 220100                    LDX0    77,,PR0
         3 000166   000002 100003                    CMPX0   2,DU
         3 000167   000226 602000 3                  TNC     s:5381

      140     5373    2              CALL DAM$MAP(PINCRW(B$ROS$,ROS$->B$ROSEG.CR01DCB),DCB$,

   5373  3 000170   000000 636010                    EAQ     0,X0
         3 000171   000000 036000 xsym               ADLQ    B$ROS$
         3 000172   200070 756100                    STQ     NILFCNFLG+1,,AUTO
         3 000173   000000 335000 xsym               LCA     DA_CUN
         3 000174   200071 755100                    STA     NILFCNFLG+2,,AUTO
PL6.E3A0      #001=DAU$DCBS File=DAU$DCBS.:E05TSI                                TUE 07/29/97 12:54 Page:29
         3 000175   000000 236000 4                  LDQ     0
         3 000176   200075 756100                    STQ     NILFCNFLG+6,,AUTO
         3 000177   200071 631500                    EPPR1   NILFCNFLG+2,,AUTO
         3 000200   200074 451500                    STP1    NILFCNFLG+5,,AUTO
         3 000201   200014 633500                    EPPR3   DCB$,,AUTO
         3 000202   200073 453500                    STP3    NILFCNFLG+4,,AUTO
         3 000203   200070 634500                    EPPR4   NILFCNFLG+1,,AUTO
         3 000204   200072 454500                    STP4    NILFCNFLG+3,,AUTO
         3 000205   200072 630500                    EPPR0   NILFCNFLG+3,,AUTO
         3 000206   000022 631400 xsym               EPPR1   B_VECTNIL+18
         3 000207   000000 701000 xent               TSX1    DAM$MAP
         3 000210   000340 702000 3                  TSX2    OOPS

      141     5374    2                -DA_CUN,7) ALTRET(OOPS);
      142     5375    2              IF F$DCB.DCBNAME.N~='M$UC' THEN

   5375  3 000211   200014 470500                    LDP0    DCB$,,AUTO
         3 000212   000140 236100                    LDQ     96,,PR0
         3 000213   000033 772000                    QRL     27
         3 000214   000037 376007                    ANQ     31,DL
         3 000215   000000 620006                    EAX0    0,QL
         3 000216   040000 106540                    CMPC    fill='040'O
         3 000217   000140 200010                    ADSC9   96,,PR0                  cn=1,n=*X0
         3 000220   000525 000004 1                  ADSC9   CLSD+2                   cn=0,n=4
         3 000221   000226 600000 3                  TZE     s:5381

      143     5376    2                 CALL DIDCB(0);

   5376  3 000222   000003 236000 4                  LDQ     3
         3 000223   200055 756100                    STQ     SUBDEV_VECTOR+4,,AUTO
         3 000224   000344 701000 3                  TSX1    DIDCB
         3 000225   000000 011000                    NOP     0

      144     5377    2              END;

      145     5378        /**/
      146     5379        /* Print address of current DCB */
PL6.E3A0      #001=DAU$DCBS File=DAU$DCBS.:E05TSI                                TUE 07/29/97 12:54 Page:30
      147     5380        /**/
      148     5381    1           CALL DAM$MAP(B$JIT$,JIT$,-DA_CUN,7) ALTRET(OOPS);

   5381  3 000226   000000 335000 xsym               LCA     DA_CUN
         3 000227   200070 755100                    STA     NILFCNFLG+1,,AUTO
         3 000230   000000 236000 4                  LDQ     0
         3 000231   200075 756100                    STQ     NILFCNFLG+6,,AUTO
         3 000232   200070 630500                    EPPR0   NILFCNFLG+1,,AUTO
         3 000233   200074 450500                    STP0    NILFCNFLG+5,,AUTO
         3 000234   200004 631500                    EPPR1   JIT$,,AUTO
         3 000235   200073 451500                    STP1    NILFCNFLG+4,,AUTO
         3 000236   000004 236000 4                  LDQ     4
         3 000237   200072 756100                    STQ     NILFCNFLG+3,,AUTO
         3 000240   200072 630500                    EPPR0   NILFCNFLG+3,,AUTO
         3 000241   000022 631400 xsym               EPPR1   B_VECTNIL+18
         3 000242   000000 701000 xent               TSX1    DAM$MAP
         3 000243   000340 702000 3                  TSX2    OOPS

      149     5382    1           DCB$=JIT$->B$JIT.DCB$;

   5382  3 000244   200004 470500                    LDP0    JIT$,,AUTO
         3 000245   000232 236100                    LDQ     154,,PR0
         3 000246   200014 756100                    STQ     DCB$,,AUTO

      150     5383    2           IF DCB$~=ADDR(NIL) THEN DO;

   5383  3 000247   000001 116000 xsym               CMPQ    B_VECTNIL+1
         3 000250   000333 600000 3                  TZE     s:5389

      151     5384    2              CALL DAM$MAP(DCB$,DCB$,-DA_CUN,7) ALTRET(OOPS);

   5384  3 000251   000000 335000 xsym               LCA     DA_CUN
         3 000252   200070 755100                    STA     NILFCNFLG+1,,AUTO
         3 000253   000000 236000 4                  LDQ     0
         3 000254   200075 756100                    STQ     NILFCNFLG+6,,AUTO
         3 000255   200070 631500                    EPPR1   NILFCNFLG+1,,AUTO
         3 000256   200074 451500                    STP1    NILFCNFLG+5,,AUTO
PL6.E3A0      #001=DAU$DCBS File=DAU$DCBS.:E05TSI                                TUE 07/29/97 12:54 Page:31
         3 000257   200014 633500                    EPPR3   DCB$,,AUTO
         3 000260   200073 453500                    STP3    NILFCNFLG+4,,AUTO
         3 000261   200014 634500                    EPPR4   DCB$,,AUTO
         3 000262   200072 454500                    STP4    NILFCNFLG+3,,AUTO
         3 000263   200072 630500                    EPPR0   NILFCNFLG+3,,AUTO
         3 000264   000022 631400 xsym               EPPR1   B_VECTNIL+18
         3 000265   000000 701000 xent               TSX1    DAM$MAP
         3 000266   000340 702000 3                  TSX2    OOPS

      152     5385    2              OFFSET=POFFW(DCB$,ROS$);

   5385  3 000267   200005 235100                    LDA     ROS$,,AUTO
         3 000270   000022 771000                    ARL     18
         3 000271   200070 755100                    STA     NILFCNFLG+1,,AUTO
         3 000272   200014 236100                    LDQ     DCB$,,AUTO
         3 000273   000022 772000                    QRL     18
         3 000274   200070 136100                    SBLQ    NILFCNFLG+1,,AUTO
         3 000275   200010 756100                    STQ     OFFSET,,AUTO

      153     5386    2              CALL DAF$WRITE(VECTOR(JDCBFMT),VECTOR(F$DCB.DCBNAME.N),

   5386  3 000276   200014 470500                    LDP0    DCB$,,AUTO
         3 000277   000140 236100                    LDQ     96,,PR0
         3 000300   000033 772000                    QRL     27
         3 000301   000037 376007                    ANQ     31,DL
         3 000302   000064 737000                    LLS     52
         3 000303   000140 135007                    SBLA    96,DL
         3 000304   200014 236100                    LDQ     DCB$,,AUTO
         3 000305   000010 036000 4                  ADLQ    8
         3 000306   200070 757100                    STAQ    NILFCNFLG+1,,AUTO
         3 000307   777640 235007                    LDA     -96,DL
         3 000310   200072 452500                    STP2    NILFCNFLG+3,,AUTO
         3 000311   200072 236100                    LDQ     NILFCNFLG+3,,AUTO
         3 000312   000010 036003                    ADLQ    8,DU
         3 000313   200076 757100                    STAQ    NILFCNFLG+7,,AUTO
         3 000314   200070 237100                    LDAQ    NILFCNFLG+1,,AUTO
         3 000315   200074 757100                    STAQ    NILFCNFLG+5,,AUTO
PL6.E3A0      #001=DAU$DCBS File=DAU$DCBS.:E05TSI                                TUE 07/29/97 12:54 Page:32
         3 000316   200076 237100                    LDAQ    NILFCNFLG+7,,AUTO
         3 000317   200100 757100                    STAQ    NILFCNFLG+9,,AUTO
         3 000320   200100 631500                    EPPR1   NILFCNFLG+9,,AUTO
         3 000321   200104 451500                    STP1    NILFCNFLG+13,,AUTO
         3 000322   200074 633500                    EPPR3   NILFCNFLG+5,,AUTO
         3 000323   200103 453500                    STP3    NILFCNFLG+12,,AUTO
         3 000324   000011 236000 4                  LDQ     9
         3 000325   200102 756100                    STQ     NILFCNFLG+11,,AUTO
         3 000326   200102 630500                    EPPR0   NILFCNFLG+11,,AUTO
         3 000327   000000 220000 xsym               LDX0    DAF$WRITE
         3 000330   000021 631400 xsym               EPPR1   B_VECTNIL+17
         3 000331   000000 701010                    TSX1    0,X0
         3 000332   000000 011000                    NOP     0

      154     5387    2                VECTOR(OFFSET));
      155     5388    2              END;

      156     5389    1           DA_MAPERR='0'B;

   5389  3 000333   000000 450000 xsym               STZ     DA_MAPERR

      157     5390    1           CALL DAF$ADDHDR;

   5390  3 000334   000002 631400 xsym               EPPR1   B_VECTNIL+2
         3 000335   000000 701000 xent               TSX1    DAF$ADDHDR
         3 000336   000000 011000                    NOP     0

      158     5391    1           RETURN;

   5391  3 000337   000000 702200 xent               TSX2  ! X66_ARET

      159     5392    1   OOPS:
      160     5393    1           CALL DAF$ADDHDR;

   5393  3 000340   000002 631400 xsym  OOPS         EPPR1   B_VECTNIL+2
         3 000341   000000 701000 xent               TSX1    DAF$ADDHDR
         3 000342   000000 011000                    NOP     0
PL6.E3A0      #001=DAU$DCBS File=DAU$DCBS.:E05TSI                                TUE 07/29/97 12:54 Page:33

      161     5394    1           RETURN;

   5394  3 000343   000000 702200 xent               TSX2  ! X66_ARET

      162     5395        %EJECT;
PL6.E3A0      #001=DAU$DCBS File=DAU$DCBS.:E05TSI                                TUE 07/29/97 12:54 Page:34
      163     5396    1   DIDCB:  PROC(DCB#);

   5396  3 000344   200054 741300       DIDCB        STX1  ! SUBDEV_VECTOR+3,,AUTO

      164     5397        /**/
      165     5398    2   DCL DCB# SBIN;
      166     5399        /**/
      167     5400    2   DCL PSNL SBIN;
      168     5401    2   DCL I UBIN;
      169     5402    2   DCL BADDR SBIN;
      170     5403    2   DCL BUFX SBIN;
      171     5404    2   DCL 1 BFR,
      172     5405    2         2 BUFUP BIT(1),
      173     5406    2         2 SCRUB BIT(1),
      174     5407    2         2 CHNG BIT(1),
      175     5408    2         2 CVM BIT(1),
      176     5409    2         2 * BIT(5);
      177     5410    2   DCL CFUFLG UBIN;
      178     5411    2   DCL NILCFUFLG UBIN;
      179     5412    2   DCL FIDFLG BIT(1);
      180     5413    2   DCL FCNFLG UBIN;
      181     5414    2   DCL NILFCNFLG UBIN;
      182     5415        /**/
      183     5416    2           IF D# ~= -99 AND D# ~= DCB# THEN RETURN;

   5416  3 000345   200007 235100                    LDA     D#,,AUTO
         3 000346   000012 115000 4                  CMPA    10
         3 000347   000355 600000 3                  TZE     s:5417
         3 000350   200055 470500                    LDP0    @DCB#,,AUTO
         3 000351   200007 236100                    LDQ     D#,,AUTO
         3 000352   000000 116100                    CMPQ    0,,PR0
         3 000353   000355 600000 3                  TZE     s:5417

   5416  3 000354   000001 702211                    TSX2  ! 1,X1

      184     5417    2           FIDFLG='1'B;

PL6.E3A0      #001=DAU$DCBS File=DAU$DCBS.:E05TSI                                TUE 07/29/97 12:54 Page:35
   5417  3 000355   400000 236003                    LDQ     -131072,DU
         3 000356   200065 756100                    STQ     FIDFLG,,AUTO

      185     5418    3           DO CASE(F$DCB.ASN);

   5418  3 000357   200014 470500                    LDP0    DCB$,,AUTO
         3 000360   000032 236100                    LDQ     26,,PR0
         3 000361   000011 772000                    QRL     9
         3 000362   000777 376007                    ANQ     511,DL
         3 000363   000007 116007                    CMPQ    7,DL
         3 000364   000366 602006 3                  TNC     s:5418+7,QL
         3 000365   000703 710000 3                  TRA     s:5458
         3 000366   000703 710000 3                  TRA     s:5458
         3 000367   000375 710000 3                  TRA     s:5420
         3 000370   000521 710000 3                  TRA     s:5436
         3 000371   000613 710000 3                  TRA     s:5445
         3 000372   000631 710000 3                  TRA     s:5451
         3 000373   000703 710000 3                  TRA     s:5458
         3 000374   000670 710000 3                  TRA     s:5456

      186     5419    3            CASE(%FILE#);

      187     5420    3              IF F$DCB.PSN=' ' THEN

   5420  3 000375   040000 106500                    CMPC    fill='040'O
         3 000376   000024 000006                    ADSC9   20,,PR0                  cn=0,n=6
         3 000377   000035 000001 xsym               ADSC9   B_VECTNIL+29             cn=0,n=1
         3 000400   000427 601000 3                  TNZ     s:5426

      188     5421    3                 CALL CONCAT(FID,

   5421  3 000401   000010 236100                    LDQ     8,,PR0
         3 000402   000033 772000                    QRL     27
         3 000403   000000 620006                    EAX0    0,QL
         3 000404   040100 100540                    MLR     fill='040'O
         3 000405   000010 200010                    ADSC9   8,,PR0                   cn=1,n=*X0
         3 000406   200015 000120                    ADSC9   FID,,AUTO                cn=0,n=80
PL6.E3A0      #001=DAU$DCBS File=DAU$DCBS.:E05TSI                                TUE 07/29/97 12:54 Page:36
         3 000407   000120 116007                    CMPQ    80,DL
         3 000410   000426 603000 3                  TRC     s:5421+21
         3 000411   777657 620006                    EAX0    -81,QL
         3 000412   777777 660003                    ERX0    -1,DU
         3 000413   040146 100400                    MLR     fill='040'O
         3 000414   000013 000001 4                  ADSC9   11                       cn=0,n=1
         3 000415   200015 000010                    ADSC9   FID,Q,AUTO               cn=0,n=*X0
         3 000416   000117 116007                    CMPQ    79,DL
         3 000417   000426 603000 3                  TRC     s:5421+21
         3 000420   777660 620006                    EAX0    -80,QL
         3 000421   777777 660003                    ERX0    -1,DU
         3 000422   200014 470500                    LDP0    DCB$,,AUTO
         3 000423   040146 100500                    MLR     fill='040'O
         3 000424   000020 000010                    ADSC9   16,,PR0                  cn=0,n=8
         3 000425   200015 200010                    ADSC9   FID,Q,AUTO               cn=1,n=*X0
         3 000426   000704 710000 3                  TRA     s:5460

      189     5422    3                   SUBSTR(F$DCB.NAME.C,0,F$DCB.NAME.L),
      190     5423    3                   '.',
      191     5424    3                   F$DCB.ACCT);
      192     5425    4              ELSE DO;

      193     5426    4                 CALL INDEX(PSNL,' ',F$DCB.PSN);

   5426  3 000427   000000 124500                    SCM     mask='000'O
         3 000430   000024 000006                    ADSC9   20,,PR0                  cn=0,n=6
         3 000431   000035 000001 xsym               ADSC9   B_VECTNIL+29             cn=0,n=1
         3 000432   200056 000100                    ARG     PSNL,,AUTO

      194     5427    4                 CALL CONCAT(FID,

   5427  3 000433   000010 236100                    LDQ     8,,PR0
         3 000434   000033 772000                    QRL     27
         3 000435   000000 620006                    EAX0    0,QL
         3 000436   000526 236000 1                  LDQ     CLSD+3
         3 000437   000014 376000 4                  ANQ     12
         3 000440   000040 276007                    ORQ     32,DL
PL6.E3A0      #001=DAU$DCBS File=DAU$DCBS.:E05TSI                                TUE 07/29/97 12:54 Page:37
         3 000441   200015 756100                    STQ     FID,,AUTO
         3 000442   200056 722100                    LXL2    PSNL,,AUTO
         3 000443   040100 100540                    MLR     fill='040'O
         3 000444   000024 000012                    ADSC9   20,,PR0                  cn=0,n=*X2
         3 000445   200015 600115                    ADSC9   FID,,AUTO                cn=3,n=77
         3 000446   200056 236100                    LDQ     PSNL,,AUTO
         3 000447   000115 116007                    CMPQ    77,DL
         3 000450   000520 605000 3                  TPL     s:5434
         3 000451   777662 623006                    EAX3    -78,QL
         3 000452   777777 663003                    ERX3    -1,DU
         3 000453   040146 100400                    MLR     fill='040'O
         3 000454   000015 000001 4                  ADSC9   13                       cn=0,n=1
         3 000455   200015 600013                    ADSC9   FID,Q,AUTO               cn=3,n=*X3
         3 000456   000114 116007                    CMPQ    76,DL
         3 000457   000520 605000 3                  TPL     s:5434
         3 000460   777663 621006                    EAX1    -77,QL
         3 000461   777777 661003                    ERX1    -1,DU
         3 000462   200014 470500                    LDP0    DCB$,,AUTO
         3 000463   040146 100540                    MLR     fill='040'O
         3 000464   000010 200010                    ADSC9   8,,PR0                   cn=1,n=*X0
         3 000465   200016 000011                    ADSC9   FID+1,Q,AUTO             cn=0,n=*X1
         3 000466   000000 636010                    EAQ     0,X0
         3 000467   000022 772000                    QRL     18
         3 000470   200056 036100                    ADLQ    PSNL,,AUTO
         3 000471   000114 116007                    CMPQ    76,DL
         3 000472   000520 605000 3                  TPL     s:5434
         3 000473   200070 756100                    STQ     NILFCNFLG+1,,AUTO
         3 000474   000000 636010                    EAQ     0,X0
         3 000475   000022 772000                    QRL     18
         3 000476   200056 036100                    ADLQ    PSNL,,AUTO
         3 000477   200070 720100                    LXL0    NILFCNFLG+1,,AUTO
         3 000500   777663 620010                    EAX0    -77,X0
         3 000501   777777 660003                    ERX0    -1,DU
         3 000502   040146 100400                    MLR     fill='040'O
         3 000503   000013 000001 4                  ADSC9   11                       cn=0,n=1
         3 000504   200016 000010                    ADSC9   FID+1,Q,AUTO             cn=0,n=*X0
         3 000505   200071 756100                    STQ     NILFCNFLG+2,,AUTO
PL6.E3A0      #001=DAU$DCBS File=DAU$DCBS.:E05TSI                                TUE 07/29/97 12:54 Page:38
         3 000506   200070 236100                    LDQ     NILFCNFLG+1,,AUTO
         3 000507   000113 116007                    CMPQ    75,DL
         3 000510   000520 605000 3                  TPL     s:5434
         3 000511   777664 624006                    EAX4    -76,QL
         3 000512   777777 664003                    ERX4    -1,DU
         3 000513   200014 470500                    LDP0    DCB$,,AUTO
         3 000514   200071 235100                    LDA     NILFCNFLG+2,,AUTO
         3 000515   040145 100500                    MLR     fill='040'O
         3 000516   000020 000010                    ADSC9   16,,PR0                  cn=0,n=8
         3 000517   200016 200014                    ADSC9   FID+1,A,AUTO             cn=1,n=*X4

      195     5428    4                   'DP#',
      196     5429    4                   SUBSTR(F$DCB.PSN,0,PSNL),
      197     5430    4                   '/',
      198     5431    4                   SUBSTR(F$DCB.NAME.C,0,F$DCB.NAME.L),
      199     5432    4                   '.',
      200     5433    4                   F$DCB.ACCT);
      201     5434    4                 END;

   5434  3 000520   000704 710000 3                  TRA     s:5460

      202     5435    3            CASE(%TAPE#);

      203     5436    3              CALL INDEX(PSNL,' ',F$DCB.PSN);

   5436  3 000521   000000 124500                    SCM     mask='000'O
         3 000522   000024 000006                    ADSC9   20,,PR0                  cn=0,n=6
         3 000523   000035 000001 xsym               ADSC9   B_VECTNIL+29             cn=0,n=1
         3 000524   200056 000100                    ARG     PSNL,,AUTO

      204     5437    3              CALL CONCAT(FID,

   5437  3 000525   000010 236100                    LDQ     8,,PR0
         3 000526   000033 772000                    QRL     27
         3 000527   000000 620006                    EAX0    0,QL
         3 000530   000527 236000 1                  LDQ     CLSD+4
         3 000531   000014 376000 4                  ANQ     12
PL6.E3A0      #001=DAU$DCBS File=DAU$DCBS.:E05TSI                                TUE 07/29/97 12:54 Page:39
         3 000532   000040 276007                    ORQ     32,DL
         3 000533   200015 756100                    STQ     FID,,AUTO
         3 000534   200056 722100                    LXL2    PSNL,,AUTO
         3 000535   040100 100540                    MLR     fill='040'O
         3 000536   000024 000012                    ADSC9   20,,PR0                  cn=0,n=*X2
         3 000537   200015 600115                    ADSC9   FID,,AUTO                cn=3,n=77
         3 000540   200056 236100                    LDQ     PSNL,,AUTO
         3 000541   000115 116007                    CMPQ    77,DL
         3 000542   000612 605000 3                  TPL     s:5437+53
         3 000543   777662 623006                    EAX3    -78,QL
         3 000544   777777 663003                    ERX3    -1,DU
         3 000545   040146 100400                    MLR     fill='040'O
         3 000546   000015 000001 4                  ADSC9   13                       cn=0,n=1
         3 000547   200015 600013                    ADSC9   FID,Q,AUTO               cn=3,n=*X3
         3 000550   000114 116007                    CMPQ    76,DL
         3 000551   000612 605000 3                  TPL     s:5437+53
         3 000552   777663 621006                    EAX1    -77,QL
         3 000553   777777 661003                    ERX1    -1,DU
         3 000554   200014 470500                    LDP0    DCB$,,AUTO
         3 000555   040146 100540                    MLR     fill='040'O
         3 000556   000010 200010                    ADSC9   8,,PR0                   cn=1,n=*X0
         3 000557   200016 000011                    ADSC9   FID+1,Q,AUTO             cn=0,n=*X1
         3 000560   000000 636010                    EAQ     0,X0
         3 000561   000022 772000                    QRL     18
         3 000562   200056 036100                    ADLQ    PSNL,,AUTO
         3 000563   000114 116007                    CMPQ    76,DL
         3 000564   000612 605000 3                  TPL     s:5437+53
         3 000565   200070 756100                    STQ     NILFCNFLG+1,,AUTO
         3 000566   000000 636010                    EAQ     0,X0
         3 000567   000022 772000                    QRL     18
         3 000570   200056 036100                    ADLQ    PSNL,,AUTO
         3 000571   200070 720100                    LXL0    NILFCNFLG+1,,AUTO
         3 000572   777663 620010                    EAX0    -77,X0
         3 000573   777777 660003                    ERX0    -1,DU
         3 000574   040146 100400                    MLR     fill='040'O
         3 000575   000013 000001 4                  ADSC9   11                       cn=0,n=1
         3 000576   200016 000010                    ADSC9   FID+1,Q,AUTO             cn=0,n=*X0
PL6.E3A0      #001=DAU$DCBS File=DAU$DCBS.:E05TSI                                TUE 07/29/97 12:54 Page:40
         3 000577   200071 756100                    STQ     NILFCNFLG+2,,AUTO
         3 000600   200070 236100                    LDQ     NILFCNFLG+1,,AUTO
         3 000601   000113 116007                    CMPQ    75,DL
         3 000602   000612 605000 3                  TPL     s:5437+53
         3 000603   777664 624006                    EAX4    -76,QL
         3 000604   777777 664003                    ERX4    -1,DU
         3 000605   200014 470500                    LDP0    DCB$,,AUTO
         3 000606   200071 235100                    LDA     NILFCNFLG+2,,AUTO
         3 000607   040145 100500                    MLR     fill='040'O
         3 000610   000020 000010                    ADSC9   16,,PR0                  cn=0,n=8
         3 000611   200016 200014                    ADSC9   FID+1,A,AUTO             cn=1,n=*X4
         3 000612   000704 710000 3                  TRA     s:5460

      205     5438    3                'LT#',
      206     5439    3                SUBSTR(F$DCB.PSN,0,PSNL),
      207     5440    3                '/',
      208     5441    3                SUBSTR(F$DCB.NAME.C,0,F$DCB.NAME.L),
      209     5442    3                '.',
      210     5443    3                F$DCB.ACCT);
      211     5444    3            CASE(%DEVICE#);

      212     5445    3              IF F$DCB.PSN=' ' THEN FIDFLG='0'B;

   5445  3 000613   040000 106500                    CMPC    fill='040'O
         3 000614   000024 000006                    ADSC9   20,,PR0                  cn=0,n=6
         3 000615   000035 000001 xsym               ADSC9   B_VECTNIL+29             cn=0,n=1
         3 000616   000621 601000 3                  TNZ     s:5446

   5445  3 000617   200065 450100                    STZ     FIDFLG,,AUTO
         3 000620   000704 710000 3                  TRA     s:5460

      213     5446    3              ELSE CALL CONCAT(FID,

   5446  3 000621   000026 220100                    LDX0    22,,PR0
         3 000622   200015 740100                    STX0    FID,,AUTO
         3 000623   043000 236007                    LDQ     17920,DL
         3 000624   200015 552110                    STBQ    FID,'10'O,AUTO
PL6.E3A0      #001=DAU$DCBS File=DAU$DCBS.:E05TSI                                TUE 07/29/97 12:54 Page:41
         3 000625   040100 100500                    MLR     fill='040'O
         3 000626   000024 000006                    ADSC9   20,,PR0                  cn=0,n=6
         3 000627   200015 600115                    ADSC9   FID,,AUTO                cn=3,n=77
         3 000630   000704 710000 3                  TRA     s:5460

      214     5447    3                   SUBSTR(F$DCB.RES,0,2),
      215     5448    3                   '#',
      216     5449    3                   F$DCB.PSN);
      217     5450    3            CASE(%COMGROUP#);

      218     5451    3              CALL CONCAT(FID,

   5451  3 000631   000010 236100                    LDQ     8,,PR0
         3 000632   000033 772000                    QRL     27
         3 000633   000000 620006                    EAX0    0,QL
         3 000634   000530 236000 1                  LDQ     CLSD+5
         3 000635   000014 376000 4                  ANQ     12
         3 000636   000040 276007                    ORQ     32,DL
         3 000637   200015 756100                    STQ     FID,,AUTO
         3 000640   040100 100540                    MLR     fill='040'O
         3 000641   000010 200010                    ADSC9   8,,PR0                   cn=1,n=*X0
         3 000642   200015 600115                    ADSC9   FID,,AUTO                cn=3,n=77
         3 000643   000000 636010                    EAQ     0,X0
         3 000644   000022 772000                    QRL     18
         3 000645   000115 116007                    CMPQ    77,DL
         3 000646   000667 603000 3                  TRC     s:5451+30
         3 000647   200070 740100                    STX0    NILFCNFLG+1,,AUTO
         3 000650   777662 620010                    EAX0    -78,X0
         3 000651   777777 660003                    ERX0    -1,DU
         3 000652   200070 236100                    LDQ     NILFCNFLG+1,,AUTO
         3 000653   000022 772000                    QRL     18
         3 000654   040146 100400                    MLR     fill='040'O
         3 000655   000013 000001 4                  ADSC9   11                       cn=0,n=1
         3 000656   200015 600010                    ADSC9   FID,Q,AUTO               cn=3,n=*X0
         3 000657   000114 116007                    CMPQ    76,DL
         3 000660   000667 603000 3                  TRC     s:5451+30
         3 000661   777663 620006                    EAX0    -77,QL
PL6.E3A0      #001=DAU$DCBS File=DAU$DCBS.:E05TSI                                TUE 07/29/97 12:54 Page:42
         3 000662   777777 660003                    ERX0    -1,DU
         3 000663   200014 470500                    LDP0    DCB$,,AUTO
         3 000664   040146 100500                    MLR     fill='040'O
         3 000665   000020 000010                    ADSC9   16,,PR0                  cn=0,n=8
         3 000666   200016 000010                    ADSC9   FID+1,Q,AUTO             cn=0,n=*X0
         3 000667   000704 710000 3                  TRA     s:5460

      219     5452    3                'CG/',
      220     5453    3                SUBSTR(F$DCB.NAME.C,0,F$DCB.NAME.L),
      221     5454    3                '.',F$DCB.ACCT);
      222     5455    3            CASE(%T@D#);

      223     5456    3              CALL CONCAT(FID,'TD/',SUBSTR(F$DCB.NAME.C,0,F$DCB.NAME.L));

   5456  3 000670   000010 236100                    LDQ     8,,PR0
         3 000671   000033 772000                    QRL     27
         3 000672   000000 620006                    EAX0    0,QL
         3 000673   000531 236000 1                  LDQ     CLSD+6
         3 000674   000014 376000 4                  ANQ     12
         3 000675   000040 276007                    ORQ     32,DL
         3 000676   200015 756100                    STQ     FID,,AUTO
         3 000677   040100 100540                    MLR     fill='040'O
         3 000700   000010 200010                    ADSC9   8,,PR0                   cn=1,n=*X0
         3 000701   200015 600115                    ADSC9   FID,,AUTO                cn=3,n=77
         3 000702   000704 710000 3                  TRA     s:5460

      224     5457    3            CASE(ELSE);

      225     5458    3              FIDFLG='0'B;

   5458  3 000703   200065 450100                    STZ     FIDFLG,,AUTO

      226     5459    3            END;

      227     5460    2           OFFSET=POFFW(DCB$,ROS$);

   5460  3 000704   200005 235100                    LDA     ROS$,,AUTO
PL6.E3A0      #001=DAU$DCBS File=DAU$DCBS.:E05TSI                                TUE 07/29/97 12:54 Page:43
         3 000705   000022 771000                    ARL     18
         3 000706   200070 755100                    STA     NILFCNFLG+1,,AUTO
         3 000707   200014 236100                    LDQ     DCB$,,AUTO
         3 000710   000022 772000                    QRL     18
         3 000711   200070 136100                    SBLQ    NILFCNFLG+1,,AUTO
         3 000712   200010 756100                    STQ     OFFSET,,AUTO

      228     5461    3           IF F$DCB.CFU$=ADDR(NIL) THEN DO;

   5461  3 000713   200014 470500                    LDP0    DCB$,,AUTO
         3 000714   000066 236100                    LDQ     54,,PR0
         3 000715   000001 116000 xsym               CMPQ    B_VECTNIL+1
         3 000716   000723 601000 3                  TNZ     s:5466

      229     5462    3              NILCFUFLG=1;

   5462  3 000717   000001 235007                    LDA     1,DL
         3 000720   200064 755100                    STA     NILCFUFLG,,AUTO

      230     5463    3              CFUFLG=0;

   5463  3 000721   200063 450100                    STZ     CFUFLG,,AUTO

      231     5464    3              END;

   5464  3 000722   000726 710000 3                  TRA     s:5469

      232     5465    3           ELSE DO;

      233     5466    3              NILCFUFLG=0;

   5466  3 000723   200064 450100                    STZ     NILCFUFLG,,AUTO

      234     5467    3              CFUFLG=1;

   5467  3 000724   000001 235007                    LDA     1,DL
         3 000725   200063 755100                    STA     CFUFLG,,AUTO
PL6.E3A0      #001=DAU$DCBS File=DAU$DCBS.:E05TSI                                TUE 07/29/97 12:54 Page:44

      235     5468    3              END;

      236     5469    2           CNT0=F$DCB.FCN.CNT(0);

   5469  3 000726   000074 236100                    LDQ     60,,PR0
         3 000727   000033 772000                    QRL     27
         3 000730   000377 376007                    ANQ     255,DL
         3 000731   200011 756100                    STQ     CNT0,,AUTO

      237     5470    2           CNT1=F$DCB.FCN.CNT(1);

   5470  3 000732   000074 236100                    LDQ     60,,PR0
         3 000733   000022 772000                    QRL     18
         3 000734   000377 376007                    ANQ     255,DL
         3 000735   200012 756100                    STQ     CNT1,,AUTO

      238     5471    3           IF F$DCB.FCN THEN DO;

   5471  3 000736   000074 220100                    LDX0    60,,PR0
         3 000737   000743 600000 3                  TZE     s:5476

      239     5472    3              FCNFLG=1;

   5472  3 000740   200066 755100                    STA     FCNFLG,,AUTO

      240     5473    3              NILFCNFLG=0;

   5473  3 000741   200067 450100                    STZ     NILFCNFLG,,AUTO

      241     5474    3              END;

   5474  3 000742   000745 710000 3                  TRA     s:5495

      242     5475    3           ELSE DO;

      243     5476    3              FCNFLG=0;
PL6.E3A0      #001=DAU$DCBS File=DAU$DCBS.:E05TSI                                TUE 07/29/97 12:54 Page:45

   5476  3 000743   200066 450100                    STZ     FCNFLG,,AUTO

      244     5477    3              NILFCNFLG=1;

   5477  3 000744   200067 755100                    STA     NILFCNFLG,,AUTO

      245     5478    3              END;

      246     5479    2           CALL DAF$WRITE(VECTOR(DCBFMT1),
      247     5480    2             VECTOR(DCB#),
      248     5481    2             VECTOR(OFFSET),
      249     5482    2             VECTOR(FCDTAB(BITBIN(F$DCB.FCD))),
      250     5483    2             VECTOR(ASNTAB(F$DCB.ASN)),
      251     5484    2             VECTOR(ORGTAB(F$DCB.ORG)),
      252     5485    2             VECTOR(FUNTAB(F$DCB.FUN)),
      253     5486    2             VECTOR(SUBSTR(F$DCB.RES,0,2)),
      254     5487    2             VECTOR(F$DCB.SETX),
      255     5488    2             VECTOR(ASNTAB(F$DCB.IASN)),
      256     5489    2             VECTOR(ORGTAB(F$DCB.IORG)),
      257     5490    2             VECTOR(GTYPTAB(F$DCB.GTYP)),
      258     5491    2             VECTOR(CFUFLG),
      259     5492    2             VECTOR(NILCFUFLG),
      260     5493    2             VECTOR(F$DCB.CFU$),
      261     5494    2             VECTOR(NILCFUFLG),
      262     5495    2             VECTOR(FCNFLG),VECTOR(CNT0),VECTOR(CNT1),

   5495  3 000745   777640 235007                    LDA     -96,DL
         3 000746   200055 236100                    LDQ     @DCB#,,AUTO
         3 000747   200070 757100                    STAQ    NILFCNFLG+1,,AUTO
         3 000750   777640 235007                    LDA     -96,DL
         3 000751   200072 452500                    STP2    NILFCNFLG+3,,AUTO
         3 000752   200072 236100                    LDQ     NILFCNFLG+3,,AUTO
         3 000753   000010 036003                    ADLQ    8,DU
         3 000754   200074 757100                    STAQ    NILFCNFLG+5,,AUTO
         3 000755   000031 236100                    LDQ     25,,PR0
         3 000756   000015 772000                    QRL     13
PL6.E3A0      #001=DAU$DCBS File=DAU$DCBS.:E05TSI                                TUE 07/29/97 12:54 Page:46
         3 000757   000001 376007                    ANQ     1,DL
         3 000760   577640 235007                    LDA     -65632,DL
         3 000761   200076 755100                    STA     NILFCNFLG+7,,AUTO
         3 000762   600000 402007                    MPY     -65536,DL
         3 000763   000020 036000 4                  ADLQ    16
         3 000764   200076 235100                    LDA     NILFCNFLG+7,,AUTO
         3 000765   200100 757100                    STAQ    NILFCNFLG+9,,AUTO
         3 000766   000032 236100                    LDQ     26,,PR0
         3 000767   000011 772000                    QRL     9
         3 000770   000777 376007                    ANQ     511,DL
         3 000771   000003 402007                    MPY     3,DL
         3 000772   577640 235007                    LDA     -65632,DL
         3 000773   000020 736000                    QLS     16
         3 000774   000021 036000 4                  ADLQ    17
         3 000775   200102 757100                    STAQ    NILFCNFLG+11,,AUTO
         3 000776   000032 236100                    LDQ     26,,PR0
         3 000777   000033 772000                    QRL     27
         3 001000   000003 402007                    MPY     3,DL
         3 001001   577640 235007                    LDA     -65632,DL
         3 001002   000020 736000                    QLS     16
         3 001003   000022 036000 4                  ADLQ    18
         3 001004   200104 757100                    STAQ    NILFCNFLG+13,,AUTO
         3 001005   000032 236100                    LDQ     26,,PR0
         3 001006   000022 772000                    QRL     18
         3 001007   000777 376007                    ANQ     511,DL
         3 001010   377640 235007                    LDA     130976,DL
         3 001011   000021 736000                    QLS     17
         3 001012   000023 036000 4                  ADLQ    19
         3 001013   200106 757100                    STAQ    NILFCNFLG+15,,AUTO
         3 001014   377640 235007                    LDA     130976,DL
         3 001015   200014 236100                    LDQ     DCB$,,AUTO
         3 001016   000026 036003                    ADLQ    22,DU
         3 001017   200110 757100                    STAQ    NILFCNFLG+17,,AUTO
         3 001020   377640 235007                    LDA     130976,DL
         3 001021   200014 236100                    LDQ     DCB$,,AUTO
         3 001022   000024 036000 4                  ADLQ    20
         3 001023   200112 757100                    STAQ    NILFCNFLG+19,,AUTO
PL6.E3A0      #001=DAU$DCBS File=DAU$DCBS.:E05TSI                                TUE 07/29/97 12:54 Page:47
         3 001024   000103 236100                    LDQ     67,,PR0
         3 001025   000777 376007                    ANQ     511,DL
         3 001026   000003 402007                    MPY     3,DL
         3 001027   577640 235007                    LDA     -65632,DL
         3 001030   000020 736000                    QLS     16
         3 001031   000021 036000 4                  ADLQ    17
         3 001032   200114 757100                    STAQ    NILFCNFLG+21,,AUTO
         3 001033   000070 236100                    LDQ     56,,PR0
         3 001034   000033 772000                    QRL     27
         3 001035   000077 376007                    ANQ     63,DL
         3 001036   000003 402007                    MPY     3,DL
         3 001037   577640 235007                    LDA     -65632,DL
         3 001040   000020 736000                    QLS     16
         3 001041   000022 036000 4                  ADLQ    18
         3 001042   200116 757100                    STAQ    NILFCNFLG+23,,AUTO
         3 001043   000064 236100                    LDQ     52,,PR0
         3 001044   000035 772000                    QRL     29
         3 001045   000007 376007                    ANQ     7,DL
         3 001046   777640 235007                    LDA     -96,DL
         3 001047   000022 736000                    QLS     18
         3 001050   000025 036000 4                  ADLQ    21
         3 001051   200120 757100                    STAQ    NILFCNFLG+25,,AUTO
         3 001052   777640 235007                    LDA     -96,DL
         3 001053   200122 452500                    STP2    NILFCNFLG+27,,AUTO
         3 001054   200122 236100                    LDQ     NILFCNFLG+27,,AUTO
         3 001055   000063 036003                    ADLQ    51,DU
         3 001056   200124 757100                    STAQ    NILFCNFLG+29,,AUTO
         3 001057   777640 235007                    LDA     -96,DL
         3 001060   200126 452500                    STP2    NILFCNFLG+31,,AUTO
         3 001061   200126 236100                    LDQ     NILFCNFLG+31,,AUTO
         3 001062   000064 036003                    ADLQ    52,DU
         3 001063   200130 757100                    STAQ    NILFCNFLG+33,,AUTO
         3 001064   777640 235007                    LDA     -96,DL
         3 001065   200014 236100                    LDQ     DCB$,,AUTO
         3 001066   000066 036003                    ADLQ    54,DU
         3 001067   200132 757100                    STAQ    NILFCNFLG+35,,AUTO
         3 001070   777640 235007                    LDA     -96,DL
PL6.E3A0      #001=DAU$DCBS File=DAU$DCBS.:E05TSI                                TUE 07/29/97 12:54 Page:48
         3 001071   200134 452500                    STP2    NILFCNFLG+37,,AUTO
         3 001072   200134 236100                    LDQ     NILFCNFLG+37,,AUTO
         3 001073   000064 036003                    ADLQ    52,DU
         3 001074   200136 757100                    STAQ    NILFCNFLG+39,,AUTO
         3 001075   777640 235007                    LDA     -96,DL
         3 001076   200140 452500                    STP2    NILFCNFLG+41,,AUTO
         3 001077   200140 236100                    LDQ     NILFCNFLG+41,,AUTO
         3 001100   000066 036003                    ADLQ    54,DU
         3 001101   200142 757100                    STAQ    NILFCNFLG+43,,AUTO
         3 001102   777640 235007                    LDA     -96,DL
         3 001103   200144 452500                    STP2    NILFCNFLG+45,,AUTO
         3 001104   200144 236100                    LDQ     NILFCNFLG+45,,AUTO
         3 001105   000011 036003                    ADLQ    9,DU
         3 001106   200146 757100                    STAQ    NILFCNFLG+47,,AUTO
         3 001107   777640 235007                    LDA     -96,DL
         3 001110   200150 452500                    STP2    NILFCNFLG+49,,AUTO
         3 001111   200150 236100                    LDQ     NILFCNFLG+49,,AUTO
         3 001112   000012 036003                    ADLQ    10,DU
         3 001113   200152 757100                    STAQ    NILFCNFLG+51,,AUTO
         3 001114   777640 235007                    LDA     -96,DL
         3 001115   200154 452500                    STP2    NILFCNFLG+53,,AUTO
         3 001116   200154 236100                    LDQ     NILFCNFLG+53,,AUTO
         3 001117   000067 036003                    ADLQ    55,DU
         3 001120   200156 757100                    STAQ    NILFCNFLG+55,,AUTO
         3 001121   000140 236100                    LDQ     96,,PR0
         3 001122   000033 772000                    QRL     27
         3 001123   000037 376007                    ANQ     31,DL
         3 001124   000064 737000                    LLS     52
         3 001125   000140 135007                    SBLA    96,DL
         3 001126   200014 236100                    LDQ     DCB$,,AUTO
         3 001127   000010 036000 4                  ADLQ    8
         3 001130   200162 757100                    STAQ    NILFCNFLG+59,,AUTO
         3 001131   200070 237100                    LDAQ    NILFCNFLG+1,,AUTO
         3 001132   200160 757100                    STAQ    NILFCNFLG+57,,AUTO
         3 001133   200074 237100                    LDAQ    NILFCNFLG+5,,AUTO
         3 001134   200164 757100                    STAQ    NILFCNFLG+61,,AUTO
         3 001135   200100 237100                    LDAQ    NILFCNFLG+9,,AUTO
PL6.E3A0      #001=DAU$DCBS File=DAU$DCBS.:E05TSI                                TUE 07/29/97 12:54 Page:49
         3 001136   200166 757100                    STAQ    NILFCNFLG+63,,AUTO
         3 001137   200102 237100                    LDAQ    NILFCNFLG+11,,AUTO
         3 001140   200170 757100                    STAQ    NILFCNFLG+65,,AUTO
         3 001141   200104 237100                    LDAQ    NILFCNFLG+13,,AUTO
         3 001142   200172 757100                    STAQ    NILFCNFLG+67,,AUTO
         3 001143   200106 237100                    LDAQ    NILFCNFLG+15,,AUTO
         3 001144   200174 757100                    STAQ    NILFCNFLG+69,,AUTO
         3 001145   200110 237100                    LDAQ    NILFCNFLG+17,,AUTO
         3 001146   200176 757100                    STAQ    NILFCNFLG+71,,AUTO
         3 001147   200112 237100                    LDAQ    NILFCNFLG+19,,AUTO
         3 001150   200200 757100                    STAQ    NILFCNFLG+73,,AUTO
         3 001151   200114 237100                    LDAQ    NILFCNFLG+21,,AUTO
         3 001152   200202 757100                    STAQ    NILFCNFLG+75,,AUTO
         3 001153   200116 237100                    LDAQ    NILFCNFLG+23,,AUTO
         3 001154   200204 757100                    STAQ    NILFCNFLG+77,,AUTO
         3 001155   200120 237100                    LDAQ    NILFCNFLG+25,,AUTO
         3 001156   200206 757100                    STAQ    NILFCNFLG+79,,AUTO
         3 001157   200124 237100                    LDAQ    NILFCNFLG+29,,AUTO
         3 001160   200210 757100                    STAQ    NILFCNFLG+81,,AUTO
         3 001161   200130 237100                    LDAQ    NILFCNFLG+33,,AUTO
         3 001162   200212 757100                    STAQ    NILFCNFLG+83,,AUTO
         3 001163   200132 237100                    LDAQ    NILFCNFLG+35,,AUTO
         3 001164   200214 757100                    STAQ    NILFCNFLG+85,,AUTO
         3 001165   200136 237100                    LDAQ    NILFCNFLG+39,,AUTO
         3 001166   200216 757100                    STAQ    NILFCNFLG+87,,AUTO
         3 001167   200142 237100                    LDAQ    NILFCNFLG+43,,AUTO
         3 001170   200220 757100                    STAQ    NILFCNFLG+89,,AUTO
         3 001171   200146 237100                    LDAQ    NILFCNFLG+47,,AUTO
         3 001172   200222 757100                    STAQ    NILFCNFLG+91,,AUTO
         3 001173   200152 237100                    LDAQ    NILFCNFLG+51,,AUTO
         3 001174   200224 757100                    STAQ    NILFCNFLG+93,,AUTO
         3 001175   200156 237100                    LDAQ    NILFCNFLG+55,,AUTO
         3 001176   200226 757100                    STAQ    NILFCNFLG+95,,AUTO
         3 001177   200162 237100                    LDAQ    NILFCNFLG+59,,AUTO
         3 001200   200230 757100                    STAQ    NILFCNFLG+97,,AUTO
         3 001201   200230 631500                    EPPR1   NILFCNFLG+97,,AUTO
         3 001202   200256 451500                    STP1    NILFCNFLG+119,,AUTO
PL6.E3A0      #001=DAU$DCBS File=DAU$DCBS.:E05TSI                                TUE 07/29/97 12:54 Page:50
         3 001203   200226 633500                    EPPR3   NILFCNFLG+95,,AUTO
         3 001204   200255 453500                    STP3    NILFCNFLG+118,,AUTO
         3 001205   200224 634500                    EPPR4   NILFCNFLG+93,,AUTO
         3 001206   200254 454500                    STP4    NILFCNFLG+117,,AUTO
         3 001207   200222 635500                    EPPR5   NILFCNFLG+91,,AUTO
         3 001210   200253 455500                    STP5    NILFCNFLG+116,,AUTO
         3 001211   200220 636500                    EPPR6   NILFCNFLG+89,,AUTO
         3 001212   200252 456500                    STP6    NILFCNFLG+115,,AUTO
         3 001213   200216 637500                    EPPR7   NILFCNFLG+87,,AUTO
         3 001214   200251 457500                    STP7    NILFCNFLG+114,,AUTO
         3 001215   200214 630500                    EPPR0   NILFCNFLG+85,,AUTO
         3 001216   200250 450500                    STP0    NILFCNFLG+113,,AUTO
         3 001217   200212 630500                    EPPR0   NILFCNFLG+83,,AUTO
         3 001220   200247 450500                    STP0    NILFCNFLG+112,,AUTO
         3 001221   200210 630500                    EPPR0   NILFCNFLG+81,,AUTO
         3 001222   200246 450500                    STP0    NILFCNFLG+111,,AUTO
         3 001223   200206 630500                    EPPR0   NILFCNFLG+79,,AUTO
         3 001224   200245 450500                    STP0    NILFCNFLG+110,,AUTO
         3 001225   200204 630500                    EPPR0   NILFCNFLG+77,,AUTO
         3 001226   200244 450500                    STP0    NILFCNFLG+109,,AUTO
         3 001227   200202 630500                    EPPR0   NILFCNFLG+75,,AUTO
         3 001230   200243 450500                    STP0    NILFCNFLG+108,,AUTO
         3 001231   200200 630500                    EPPR0   NILFCNFLG+73,,AUTO
         3 001232   200242 450500                    STP0    NILFCNFLG+107,,AUTO
         3 001233   200176 630500                    EPPR0   NILFCNFLG+71,,AUTO
         3 001234   200241 450500                    STP0    NILFCNFLG+106,,AUTO
         3 001235   200174 630500                    EPPR0   NILFCNFLG+69,,AUTO
         3 001236   200240 450500                    STP0    NILFCNFLG+105,,AUTO
         3 001237   200172 630500                    EPPR0   NILFCNFLG+67,,AUTO
         3 001240   200237 450500                    STP0    NILFCNFLG+104,,AUTO
         3 001241   200170 630500                    EPPR0   NILFCNFLG+65,,AUTO
         3 001242   200236 450500                    STP0    NILFCNFLG+103,,AUTO
         3 001243   200166 630500                    EPPR0   NILFCNFLG+63,,AUTO
         3 001244   200235 450500                    STP0    NILFCNFLG+102,,AUTO
         3 001245   200164 630500                    EPPR0   NILFCNFLG+61,,AUTO
         3 001246   200234 450500                    STP0    NILFCNFLG+101,,AUTO
         3 001247   200160 630500                    EPPR0   NILFCNFLG+57,,AUTO
PL6.E3A0      #001=DAU$DCBS File=DAU$DCBS.:E05TSI                                TUE 07/29/97 12:54 Page:51
         3 001250   200233 450500                    STP0    NILFCNFLG+100,,AUTO
         3 001251   000027 236000 4                  LDQ     23
         3 001252   200232 756100                    STQ     NILFCNFLG+99,,AUTO
         3 001253   200232 630500                    EPPR0   NILFCNFLG+99,,AUTO
         3 001254   000000 220000 xsym               LDX0    DAF$WRITE
         3 001255   000026 631400 4                  EPPR1   22
         3 001256   000000 701010                    TSX1    0,X0
         3 001257   000000 011000                    NOP     0

      263     5496    2             VECTOR(NILFCNFLG),
      264     5497    2             VECTOR(F$DCB.DCBNAME.N));
      265     5498    2           IF FIDFLG THEN

   5498  3 001260   200065 234100                    SZN     FIDFLG,,AUTO
         3 001261   001300 605000 3                  TPL     s:5501

      266     5499    2              CALL DAF$WRITE(VECTOR(DCBFMT2),

   5499  3 001262   000032 235000 4                  LDA     26
         3 001263   200070 452500                    STP2    NILFCNFLG+1,,AUTO
         3 001264   200070 236100                    LDQ     NILFCNFLG+1,,AUTO
         3 001265   000015 036003                    ADLQ    13,DU
         3 001266   200072 757100                    STAQ    NILFCNFLG+3,,AUTO
         3 001267   200072 630500                    EPPR0   NILFCNFLG+3,,AUTO
         3 001270   200075 450500                    STP0    NILFCNFLG+6,,AUTO
         3 001271   000033 236000 4                  LDQ     27
         3 001272   200074 756100                    STQ     NILFCNFLG+5,,AUTO
         3 001273   200074 630500                    EPPR0   NILFCNFLG+5,,AUTO
         3 001274   000000 220000 xsym               LDX0    DAF$WRITE
         3 001275   000020 631400 xsym               EPPR1   B_VECTNIL+16
         3 001276   000000 701010                    TSX1    0,X0
         3 001277   000000 011000                    NOP     0

      267     5500    2                VECTOR(FID));
      268     5501    3           DO I=0 TO 4;

   5501  3 001300   200057 450100                    STZ     I,,AUTO
PL6.E3A0      #001=DAU$DCBS File=DAU$DCBS.:E05TSI                                TUE 07/29/97 12:54 Page:52

      269     5502    4              IF F$DCB.BFR.BUFX(I)~=0 THEN DO;

   5502  3 001301   200014 470500                    LDP0    DCB$,,AUTO
         3 001302   200057 720100                    LXL0    I,,AUTO
         3 001303   000115 236110                    LDQ     77,X0,PR0
         3 001304   037000 316003                    CANQ    15872,DU
         3 001305   001446 600000 3                  TZE     s:5518

      270     5503    4                 BFR.BUFUP=F$DCB.BFR.BUFUP(I);

   5503  3 001306   200062 676100                    ERQ     BFR,,AUTO
         3 001307   400000 376003                    ANQ     -131072,DU
         3 001310   200062 656100                    ERSQ    BFR,,AUTO

      271     5504    4                 BFR.SCRUB=F$DCB.BFR.SCRUB(I);

   5504  3 001311   000115 236110                    LDQ     77,X0,PR0
         3 001312   200062 676100                    ERQ     BFR,,AUTO
         3 001313   200000 376003                    ANQ     65536,DU
         3 001314   200062 656100                    ERSQ    BFR,,AUTO

      272     5505    4                 BFR.CHNG=F$DCB.BFR.CHNG(I);

   5505  3 001315   000115 236110                    LDQ     77,X0,PR0
         3 001316   200062 676100                    ERQ     BFR,,AUTO
         3 001317   100000 376003                    ANQ     32768,DU
         3 001320   200062 656100                    ERSQ    BFR,,AUTO

      273     5506    4                 BFR.CVM=F$DCB.BFR.CVM(I);

   5506  3 001321   000115 236110                    LDQ     77,X0,PR0
         3 001322   200062 676100                    ERQ     BFR,,AUTO
         3 001323   040000 376003                    ANQ     16384,DU
         3 001324   200062 656100                    ERSQ    BFR,,AUTO

      274     5507    4                 BUFX=F$DCB.BFR.BUFX(I);
PL6.E3A0      #001=DAU$DCBS File=DAU$DCBS.:E05TSI                                TUE 07/29/97 12:54 Page:53

   5507  3 001325   000115 236110                    LDQ     77,X0,PR0
         3 001326   000033 772000                    QRL     27
         3 001327   000037 376007                    ANQ     31,DL
         3 001330   200061 756100                    STQ     BUFX,,AUTO

      275     5508    4                 BADDR=(BUFX-1)*1024;

   5508  3 001331   200061 235100                    LDA     BUFX,,AUTO
         3 001332   000012 735000                    ALS     10
         3 001333   002000 135007                    SBLA    1024,DL
         3 001334   200060 755100                    STA     BADDR,,AUTO

      276     5509    4                 CALL DAF$WRITE(VECTOR(DCBFMT3),
      277     5510    4                   VECTOR(I),
      278     5511    4                   VECTOR(BFR),
      279     5512    4                   VECTOR(BUFX),
      280     5513    4                   VECTOR(BADDR),
      281     5514    4                   VECTOR(F$DCB.BFR.DA(I)),
      282     5515    4                   VECTOR(F$DCB.BFR1.CX(I)),

   5515  3 001335   777640 235007                    LDA     -96,DL
         3 001336   200070 452500                    STP2    NILFCNFLG+1,,AUTO
         3 001337   200070 236100                    LDQ     NILFCNFLG+1,,AUTO
         3 001340   000057 036003                    ADLQ    47,DU
         3 001341   200072 757100                    STAQ    NILFCNFLG+3,,AUTO
         3 001342   177640 235007                    LDA     65440,DL
         3 001343   200074 452500                    STP2    NILFCNFLG+5,,AUTO
         3 001344   200074 236100                    LDQ     NILFCNFLG+5,,AUTO
         3 001345   000062 036003                    ADLQ    50,DU
         3 001346   200076 757100                    STAQ    NILFCNFLG+7,,AUTO
         3 001347   777640 235007                    LDA     -96,DL
         3 001350   200100 452500                    STP2    NILFCNFLG+9,,AUTO
         3 001351   200100 236100                    LDQ     NILFCNFLG+9,,AUTO
         3 001352   000061 036003                    ADLQ    49,DU
         3 001353   200102 757100                    STAQ    NILFCNFLG+11,,AUTO
         3 001354   777640 235007                    LDA     -96,DL
PL6.E3A0      #001=DAU$DCBS File=DAU$DCBS.:E05TSI                                TUE 07/29/97 12:54 Page:54
         3 001355   200104 452500                    STP2    NILFCNFLG+13,,AUTO
         3 001356   200104 236100                    LDQ     NILFCNFLG+13,,AUTO
         3 001357   000060 036003                    ADLQ    48,DU
         3 001360   200106 757100                    STAQ    NILFCNFLG+15,,AUTO
         3 001361   577640 235007                    LDA     -65632,DL
         3 001362   200057 236100                    LDQ     I,,AUTO
         3 001363   000022 736000                    QLS     18
         3 001364   000036 036000 4                  ADLQ    30
         3 001365   200014 036100                    ADLQ    DCB$,,AUTO
         3 001366   200110 757100                    STAQ    NILFCNFLG+17,,AUTO
         3 001367   377640 235007                    LDA     130976,DL
         3 001370   200057 236100                    LDQ     I,,AUTO
         3 001371   000022 736000                    QLS     18
         3 001372   000037 036000 4                  ADLQ    31
         3 001373   200014 036100                    ADLQ    DCB$,,AUTO
         3 001374   200112 757100                    STAQ    NILFCNFLG+19,,AUTO
         3 001375   177640 235007                    LDA     65440,DL
         3 001376   200057 236100                    LDQ     I,,AUTO
         3 001377   000022 736000                    QLS     18
         3 001400   000040 036000 4                  ADLQ    32
         3 001401   200014 036100                    ADLQ    DCB$,,AUTO
         3 001402   200116 757100                    STAQ    NILFCNFLG+23,,AUTO
         3 001403   200072 237100                    LDAQ    NILFCNFLG+3,,AUTO
         3 001404   200114 757100                    STAQ    NILFCNFLG+21,,AUTO
         3 001405   200076 237100                    LDAQ    NILFCNFLG+7,,AUTO
         3 001406   200120 757100                    STAQ    NILFCNFLG+25,,AUTO
         3 001407   200102 237100                    LDAQ    NILFCNFLG+11,,AUTO
         3 001410   200122 757100                    STAQ    NILFCNFLG+27,,AUTO
         3 001411   200106 237100                    LDAQ    NILFCNFLG+15,,AUTO
         3 001412   200124 757100                    STAQ    NILFCNFLG+29,,AUTO
         3 001413   200110 237100                    LDAQ    NILFCNFLG+17,,AUTO
         3 001414   200126 757100                    STAQ    NILFCNFLG+31,,AUTO
         3 001415   200112 237100                    LDAQ    NILFCNFLG+19,,AUTO
         3 001416   200130 757100                    STAQ    NILFCNFLG+33,,AUTO
         3 001417   200116 237100                    LDAQ    NILFCNFLG+23,,AUTO
         3 001420   200132 757100                    STAQ    NILFCNFLG+35,,AUTO
         3 001421   200132 631500                    EPPR1   NILFCNFLG+35,,AUTO
PL6.E3A0      #001=DAU$DCBS File=DAU$DCBS.:E05TSI                                TUE 07/29/97 12:54 Page:55
         3 001422   200143 451500                    STP1    NILFCNFLG+44,,AUTO
         3 001423   200130 633500                    EPPR3   NILFCNFLG+33,,AUTO
         3 001424   200142 453500                    STP3    NILFCNFLG+43,,AUTO
         3 001425   200126 634500                    EPPR4   NILFCNFLG+31,,AUTO
         3 001426   200141 454500                    STP4    NILFCNFLG+42,,AUTO
         3 001427   200124 635500                    EPPR5   NILFCNFLG+29,,AUTO
         3 001430   200140 455500                    STP5    NILFCNFLG+41,,AUTO
         3 001431   200122 636500                    EPPR6   NILFCNFLG+27,,AUTO
         3 001432   200137 456500                    STP6    NILFCNFLG+40,,AUTO
         3 001433   200120 637500                    EPPR7   NILFCNFLG+25,,AUTO
         3 001434   200136 457500                    STP7    NILFCNFLG+39,,AUTO
         3 001435   200114 630500                    EPPR0   NILFCNFLG+21,,AUTO
         3 001436   200135 450500                    STP0    NILFCNFLG+38,,AUTO
         3 001437   000041 236000 4                  LDQ     33
         3 001440   200134 756100                    STQ     NILFCNFLG+37,,AUTO
         3 001441   200134 630500                    EPPR0   NILFCNFLG+37,,AUTO
         3 001442   000000 221000 xsym               LDX1    DAF$WRITE
         3 001443   000026 631400 xsym               EPPR1   B_VECTNIL+22
         3 001444   000000 701011                    TSX1    0,X1
         3 001445   000000 011000                    NOP     0

      283     5516    4                   VECTOR(F$DCB.BFR1.SIZ(I)));
      284     5517    4                 END;

      285     5518    3              END;

   5518  3 001446   200057 235100                    LDA     I,,AUTO
         3 001447   000001 035007                    ADLA    1,DL
         3 001450   200057 755100                    STA     I,,AUTO
         3 001451   000005 115007                    CMPA    5,DL
         3 001452   001301 602000 3                  TNC     s:5502

      286     5519    2           RETURN;

   5519  3 001453   200054 221300                    LDX1  ! SUBDEV_VECTOR+3,,AUTO
         3 001454   000001 702211                    TSX2  ! 1,X1

PL6.E3A0      #001=DAU$DCBS File=DAU$DCBS.:E05TSI                                TUE 07/29/97 12:54 Page:56
      287     5520    2   END DIDCB;
      288     5521        %EJECT;
PL6.E3A0      #001=DAU$DCBS File=DAU$DCBS.:E05TSI                                TUE 07/29/97 12:54 Page:57
      289     5522    1   DAU$JIT: ENTRY;

   5522  3 001455   000000 700200 xent  DAU$JIT      TSX0  ! X66_AUTO_1
         3 001456   000260 000001                    ZERO    176,1

      290     5523    1           CALL DAM$MAP(B$JIT$,JIT$,-DA_CUN,7) ALTRET(OOPS);

   5523  3 001457   000000 335000 xsym               LCA     DA_CUN
         3 001460   200070 755100                    STA     NILFCNFLG+1,,AUTO
         3 001461   000000 236000 4                  LDQ     0
         3 001462   200075 756100                    STQ     NILFCNFLG+6,,AUTO
         3 001463   200070 630500                    EPPR0   NILFCNFLG+1,,AUTO
         3 001464   200074 450500                    STP0    NILFCNFLG+5,,AUTO
         3 001465   200004 631500                    EPPR1   JIT$,,AUTO
         3 001466   200073 451500                    STP1    NILFCNFLG+4,,AUTO
         3 001467   000004 236000 4                  LDQ     4
         3 001470   200072 756100                    STQ     NILFCNFLG+3,,AUTO
         3 001471   200072 630500                    EPPR0   NILFCNFLG+3,,AUTO
         3 001472   000022 631400 xsym               EPPR1   B_VECTNIL+18
         3 001473   000000 701000 xent               TSX1    DAM$MAP
         3 001474   000340 702000 3                  TSX2    OOPS

      291     5524    1           CNT0=JIT$->B$JIT.USER;

   5524  3 001475   200004 470500                    LDP0    JIT$,,AUTO
         3 001476   000000 236100                    LDQ     0,,PR0
         3 001477   000022 772000                    QRL     18
         3 001500   000777 376007                    ANQ     511,DL
         3 001501   200011 756100                    STQ     CNT0,,AUTO

      292     5525    1           CALL DAF$WRITE(VECTOR(JITFMT1),
      293     5526    1             VECTOR(MODE(JIT$->B$JIT.MODE)),
      294     5527    1             VECTOR(CNT0),
      295     5528    1             VECTOR(JIT$->B$JIT.FPSN),
      296     5529    1             VECTOR(JIT$->B$JIT.FACCN),
      297     5530    1             VECTOR(JIT$->B$JIT.WOO));

PL6.E3A0      #001=DAU$DCBS File=DAU$DCBS.:E05TSI                                TUE 07/29/97 12:54 Page:58
   5530  3 001502   000000 236100                    LDQ     0,,PR0
         3 001503   000040 772000                    QRL     32
         3 001504   000044 235000 4                  LDA     36
         3 001505   200070 755100                    STA     NILFCNFLG+1,,AUTO
         3 001506   000046 402000 4                  MPY     38
         3 001507   000045 036000 4                  ADLQ    37
         3 001510   200070 235100                    LDA     NILFCNFLG+1,,AUTO
         3 001511   200072 757100                    STAQ    NILFCNFLG+3,,AUTO
         3 001512   777640 235007                    LDA     -96,DL
         3 001513   200074 452500                    STP2    NILFCNFLG+5,,AUTO
         3 001514   200074 236100                    LDQ     NILFCNFLG+5,,AUTO
         3 001515   000011 036003                    ADLQ    9,DU
         3 001516   200076 757100                    STAQ    NILFCNFLG+7,,AUTO
         3 001517   000044 235000 4                  LDA     36
         3 001520   200004 236100                    LDQ     JIT$,,AUTO
         3 001521   000021 036003                    ADLQ    17,DU
         3 001522   200100 757100                    STAQ    NILFCNFLG+9,,AUTO
         3 001523   000047 235000 4                  LDA     39
         3 001524   200004 236100                    LDQ     JIT$,,AUTO
         3 001525   000006 036003                    ADLQ    6,DU
         3 001526   200102 757100                    STAQ    NILFCNFLG+11,,AUTO
         3 001527   000047 235000 4                  LDA     39
         3 001530   200004 236100                    LDQ     JIT$,,AUTO
         3 001531   000010 036003                    ADLQ    8,DU
         3 001532   200106 757100                    STAQ    NILFCNFLG+15,,AUTO
         3 001533   200072 237100                    LDAQ    NILFCNFLG+3,,AUTO
         3 001534   200104 757100                    STAQ    NILFCNFLG+13,,AUTO
         3 001535   200076 237100                    LDAQ    NILFCNFLG+7,,AUTO
         3 001536   200110 757100                    STAQ    NILFCNFLG+17,,AUTO
         3 001537   200100 237100                    LDAQ    NILFCNFLG+9,,AUTO
         3 001540   200112 757100                    STAQ    NILFCNFLG+19,,AUTO
         3 001541   200102 237100                    LDAQ    NILFCNFLG+11,,AUTO
         3 001542   200114 757100                    STAQ    NILFCNFLG+21,,AUTO
         3 001543   200106 237100                    LDAQ    NILFCNFLG+15,,AUTO
         3 001544   200116 757100                    STAQ    NILFCNFLG+23,,AUTO
         3 001545   200116 631500                    EPPR1   NILFCNFLG+23,,AUTO
         3 001546   200125 451500                    STP1    NILFCNFLG+30,,AUTO
PL6.E3A0      #001=DAU$DCBS File=DAU$DCBS.:E05TSI                                TUE 07/29/97 12:54 Page:59
         3 001547   200114 633500                    EPPR3   NILFCNFLG+21,,AUTO
         3 001550   200124 453500                    STP3    NILFCNFLG+29,,AUTO
         3 001551   200112 634500                    EPPR4   NILFCNFLG+19,,AUTO
         3 001552   200123 454500                    STP4    NILFCNFLG+28,,AUTO
         3 001553   200110 635500                    EPPR5   NILFCNFLG+17,,AUTO
         3 001554   200122 455500                    STP5    NILFCNFLG+27,,AUTO
         3 001555   200104 636500                    EPPR6   NILFCNFLG+13,,AUTO
         3 001556   200121 456500                    STP6    NILFCNFLG+26,,AUTO
         3 001557   000050 236000 4                  LDQ     40
         3 001560   200120 756100                    STQ     NILFCNFLG+25,,AUTO
         3 001561   200120 630500                    EPPR0   NILFCNFLG+25,,AUTO
         3 001562   000000 220000 xsym               LDX0    DAF$WRITE
         3 001563   000024 631400 xsym               EPPR1   B_VECTNIL+20
         3 001564   000000 701010                    TSX1    0,X0
         3 001565   000000 011000                    NOP     0

      298     5531    1           CALL DAF$WRITE(VECTOR(PRIVFMT),

   5531  3 001566   000054 235000 4                  LDA     44
         3 001567   200004 236100                    LDQ     JIT$,,AUTO
         3 001570   000013 036003                    ADLQ    11,DU
         3 001571   200070 757100                    STAQ    NILFCNFLG+1,,AUTO
         3 001572   777640 235007                    LDA     -96,DL
         3 001573   200004 236100                    LDQ     JIT$,,AUTO
         3 001574   000020 036003                    ADLQ    16,DU
         3 001575   200074 757100                    STAQ    NILFCNFLG+5,,AUTO
         3 001576   200070 237100                    LDAQ    NILFCNFLG+1,,AUTO
         3 001577   200072 757100                    STAQ    NILFCNFLG+3,,AUTO
         3 001600   200074 237100                    LDAQ    NILFCNFLG+5,,AUTO
         3 001601   200076 757100                    STAQ    NILFCNFLG+7,,AUTO
         3 001602   200076 630500                    EPPR0   NILFCNFLG+7,,AUTO
         3 001603   200102 450500                    STP0    NILFCNFLG+11,,AUTO
         3 001604   200072 631500                    EPPR1   NILFCNFLG+3,,AUTO
         3 001605   200101 451500                    STP1    NILFCNFLG+10,,AUTO
         3 001606   000055 236000 4                  LDQ     45
         3 001607   200100 756100                    STQ     NILFCNFLG+9,,AUTO
         3 001610   200100 630500                    EPPR0   NILFCNFLG+9,,AUTO
PL6.E3A0      #001=DAU$DCBS File=DAU$DCBS.:E05TSI                                TUE 07/29/97 12:54 Page:60
         3 001611   000000 220000 xsym               LDX0    DAF$WRITE
         3 001612   000021 631400 xsym               EPPR1   B_VECTNIL+17
         3 001613   000000 701010                    TSX1    0,X0
         3 001614   000000 011000                    NOP     0

      299     5532    1             VECTOR(JIT$->B$JIT.PRIV),
      300     5533    1             VECTOR(JIT$->B$JIT.PPRIV));
      301     5534    1           CALL DAF$WRITE(VECTOR(CCBUFFMT),

   5534  3 001615   000060 235000 4                  LDA     48
         3 001616   200004 236100                    LDQ     JIT$,,AUTO
         3 001617   000033 036003                    ADLQ    27,DU
         3 001620   200070 757100                    STAQ    NILFCNFLG+1,,AUTO
         3 001621   200070 630500                    EPPR0   NILFCNFLG+1,,AUTO
         3 001622   200073 450500                    STP0    NILFCNFLG+4,,AUTO
         3 001623   000061 236000 4                  LDQ     49
         3 001624   200072 756100                    STQ     NILFCNFLG+3,,AUTO
         3 001625   200072 630500                    EPPR0   NILFCNFLG+3,,AUTO
         3 001626   000000 220000 xsym               LDX0    DAF$WRITE
         3 001627   000020 631400 xsym               EPPR1   B_VECTNIL+16
         3 001630   000000 701010                    TSX1    0,X0
         3 001631   000000 011000                    NOP     0

      302     5535    1             VECTOR(JIT$->B$JIT.CCBUF));
      303     5536    1           CALL DAF$WRITE(VECTOR(JITFMT2),

   5536  3 001632   777640 235007                    LDA     -96,DL
         3 001633   200004 236100                    LDQ     JIT$,,AUTO
         3 001634   000143 036003                    ADLQ    99,DU
         3 001635   200070 757100                    STAQ    NILFCNFLG+1,,AUTO
         3 001636   777640 235007                    LDA     -96,DL
         3 001637   200004 236100                    LDQ     JIT$,,AUTO
         3 001640   000012 036003                    ADLQ    10,DU
         3 001641   200072 757100                    STAQ    NILFCNFLG+3,,AUTO
         3 001642   777640 235007                    LDA     -96,DL
         3 001643   200004 236100                    LDQ     JIT$,,AUTO
         3 001644   000144 036003                    ADLQ    100,DU
PL6.E3A0      #001=DAU$DCBS File=DAU$DCBS.:E05TSI                                TUE 07/29/97 12:54 Page:61
         3 001645   200076 757100                    STAQ    NILFCNFLG+7,,AUTO
         3 001646   200070 237100                    LDAQ    NILFCNFLG+1,,AUTO
         3 001647   200074 757100                    STAQ    NILFCNFLG+5,,AUTO
         3 001650   200072 237100                    LDAQ    NILFCNFLG+3,,AUTO
         3 001651   200100 757100                    STAQ    NILFCNFLG+9,,AUTO
         3 001652   200076 237100                    LDAQ    NILFCNFLG+7,,AUTO
         3 001653   200102 757100                    STAQ    NILFCNFLG+11,,AUTO
         3 001654   200102 630500                    EPPR0   NILFCNFLG+11,,AUTO
         3 001655   200107 450500                    STP0    NILFCNFLG+16,,AUTO
         3 001656   200100 631500                    EPPR1   NILFCNFLG+9,,AUTO
         3 001657   200106 451500                    STP1    NILFCNFLG+15,,AUTO
         3 001660   200074 633500                    EPPR3   NILFCNFLG+5,,AUTO
         3 001661   200105 453500                    STP3    NILFCNFLG+14,,AUTO
         3 001662   000064 236000 4                  LDQ     52
         3 001663   200104 756100                    STQ     NILFCNFLG+13,,AUTO
         3 001664   200104 630500                    EPPR0   NILFCNFLG+13,,AUTO
         3 001665   000000 220000 xsym               LDX0    DAF$WRITE
         3 001666   000022 631400 xsym               EPPR1   B_VECTNIL+18
         3 001667   000000 701010                    TSX1    0,X0
         3 001670   000000 011000                    NOP     0

      304     5537    1             VECTOR(JIT$->B$JIT.CPFLAGS1),
      305     5538    1             VECTOR(JIT$->B$JIT.ERR),
      306     5539    1             VECTOR(JIT$->B$JIT.USRERR));
      307     5540    1          CNT0=JIT$->B$JIT.TPEXT+JIT$->B$JIT.TPSVT+JIT$->B$JIT.TUEXT+JIT$->B$JIT.TUSVT
              5540                    ;

   5540  3 001671   200004 470500                    LDP0    JIT$,,AUTO
         3 001672   000270 236100                    LDQ     184,,PR0
         3 001673   000271 036100                    ADLQ    185,,PR0
         3 001674   000273 036100                    ADLQ    187,,PR0
         3 001675   000274 036100                    ADLQ    188,,PR0
         3 001676   200011 756100                    STQ     CNT0,,AUTO

      308     5541    1           CALL DAF$WRITE(VECTOR(JTIMEFMT),

   5541  3 001677   777640 235007                    LDA     -96,DL
PL6.E3A0      #001=DAU$DCBS File=DAU$DCBS.:E05TSI                                TUE 07/29/97 12:54 Page:62
         3 001700   200004 236100                    LDQ     JIT$,,AUTO
         3 001701   000150 036003                    ADLQ    104,DU
         3 001702   200070 757100                    STAQ    NILFCNFLG+1,,AUTO
         3 001703   777640 235007                    LDA     -96,DL
         3 001704   200072 452500                    STP2    NILFCNFLG+3,,AUTO
         3 001705   200072 236100                    LDQ     NILFCNFLG+3,,AUTO
         3 001706   000011 036003                    ADLQ    9,DU
         3 001707   200074 757100                    STAQ    NILFCNFLG+5,,AUTO
         3 001710   777640 235007                    LDA     -96,DL
         3 001711   200004 236100                    LDQ     JIT$,,AUTO
         3 001712   000276 036003                    ADLQ    190,DU
         3 001713   200076 757100                    STAQ    NILFCNFLG+7,,AUTO
         3 001714   777640 235007                    LDA     -96,DL
         3 001715   200004 236100                    LDQ     JIT$,,AUTO
         3 001716   000267 036003                    ADLQ    183,DU
         3 001717   200102 757100                    STAQ    NILFCNFLG+11,,AUTO
         3 001720   200070 237100                    LDAQ    NILFCNFLG+1,,AUTO
         3 001721   200100 757100                    STAQ    NILFCNFLG+9,,AUTO
         3 001722   200074 237100                    LDAQ    NILFCNFLG+5,,AUTO
         3 001723   200104 757100                    STAQ    NILFCNFLG+13,,AUTO
         3 001724   200076 237100                    LDAQ    NILFCNFLG+7,,AUTO
         3 001725   200106 757100                    STAQ    NILFCNFLG+15,,AUTO
         3 001726   200102 237100                    LDAQ    NILFCNFLG+11,,AUTO
         3 001727   200110 757100                    STAQ    NILFCNFLG+17,,AUTO
         3 001730   200110 631500                    EPPR1   NILFCNFLG+17,,AUTO
         3 001731   200116 451500                    STP1    NILFCNFLG+23,,AUTO
         3 001732   200106 633500                    EPPR3   NILFCNFLG+15,,AUTO
         3 001733   200115 453500                    STP3    NILFCNFLG+22,,AUTO
         3 001734   200104 634500                    EPPR4   NILFCNFLG+13,,AUTO
         3 001735   200114 454500                    STP4    NILFCNFLG+21,,AUTO
         3 001736   200100 635500                    EPPR5   NILFCNFLG+9,,AUTO
         3 001737   200113 455500                    STP5    NILFCNFLG+20,,AUTO
         3 001740   000070 236000 4                  LDQ     56
         3 001741   200112 756100                    STQ     NILFCNFLG+19,,AUTO
         3 001742   200112 630500                    EPPR0   NILFCNFLG+19,,AUTO
         3 001743   000000 220000 xsym               LDX0    DAF$WRITE
         3 001744   000023 631400 xsym               EPPR1   B_VECTNIL+19
PL6.E3A0      #001=DAU$DCBS File=DAU$DCBS.:E05TSI                                TUE 07/29/97 12:54 Page:63
         3 001745   000000 701010                    TSX1    0,X0
         3 001746   000000 011000                    NOP     0

      309     5542    1             VECTOR(JIT$->B$JIT.LOGONTIME),
      310     5543    1             VECTOR(CNT0),
      311     5544    1             VECTOR(JIT$->B$JIT.MRT),
      312     5545    1             VECTOR(JIT$->B$JIT.CALCNT));
      313     5546    1           CALL DAF$WRITE(VECTOR(JMMFMT),
      314     5547    1             VECTOR(JIT$->B$JIT.MAXCORE),
      315     5548    1             VECTOR(JIT$->B$JIT.CURRCORE),
      316     5549    1             VECTOR(JIT$->B$JIT.JPEAK),
      317     5550    1             VECTOR(JIT$->B$JIT.SPEAK),
      318     5551    1             VECTOR(JIT$->B$JIT.LNKCNT));

   5551  3 001747   377640 235007                    LDA     130976,DL
         3 001750   200004 236100                    LDQ     JIT$,,AUTO
         3 001751   000210 036003                    ADLQ    136,DU
         3 001752   200070 757100                    STAQ    NILFCNFLG+1,,AUTO
         3 001753   377640 235007                    LDA     130976,DL
         3 001754   200004 236100                    LDQ     JIT$,,AUTO
         3 001755   000074 036000 4                  ADLQ    60
         3 001756   200072 757100                    STAQ    NILFCNFLG+3,,AUTO
         3 001757   377640 235007                    LDA     130976,DL
         3 001760   200004 236100                    LDQ     JIT$,,AUTO
         3 001761   000075 036000 4                  ADLQ    61
         3 001762   200074 757100                    STAQ    NILFCNFLG+5,,AUTO
         3 001763   377640 235007                    LDA     130976,DL
         3 001764   200004 236100                    LDQ     JIT$,,AUTO
         3 001765   000211 036003                    ADLQ    137,DU
         3 001766   200076 757100                    STAQ    NILFCNFLG+7,,AUTO
         3 001767   177640 235007                    LDA     65440,DL
         3 001770   200004 236100                    LDQ     JIT$,,AUTO
         3 001771   000076 036000 4                  ADLQ    62
         3 001772   200102 757100                    STAQ    NILFCNFLG+11,,AUTO
         3 001773   200070 237100                    LDAQ    NILFCNFLG+1,,AUTO
         3 001774   200100 757100                    STAQ    NILFCNFLG+9,,AUTO
         3 001775   200072 237100                    LDAQ    NILFCNFLG+3,,AUTO
PL6.E3A0      #001=DAU$DCBS File=DAU$DCBS.:E05TSI                                TUE 07/29/97 12:54 Page:64
         3 001776   200104 757100                    STAQ    NILFCNFLG+13,,AUTO
         3 001777   200074 237100                    LDAQ    NILFCNFLG+5,,AUTO
         3 002000   200106 757100                    STAQ    NILFCNFLG+15,,AUTO
         3 002001   200076 237100                    LDAQ    NILFCNFLG+7,,AUTO
         3 002002   200110 757100                    STAQ    NILFCNFLG+17,,AUTO
         3 002003   200102 237100                    LDAQ    NILFCNFLG+11,,AUTO
         3 002004   200112 757100                    STAQ    NILFCNFLG+19,,AUTO
         3 002005   200112 630500                    EPPR0   NILFCNFLG+19,,AUTO
         3 002006   200121 450500                    STP0    NILFCNFLG+26,,AUTO
         3 002007   200110 631500                    EPPR1   NILFCNFLG+17,,AUTO
         3 002010   200120 451500                    STP1    NILFCNFLG+25,,AUTO
         3 002011   200106 633500                    EPPR3   NILFCNFLG+15,,AUTO
         3 002012   200117 453500                    STP3    NILFCNFLG+24,,AUTO
         3 002013   200104 634500                    EPPR4   NILFCNFLG+13,,AUTO
         3 002014   200116 454500                    STP4    NILFCNFLG+23,,AUTO
         3 002015   200100 635500                    EPPR5   NILFCNFLG+9,,AUTO
         3 002016   200115 455500                    STP5    NILFCNFLG+22,,AUTO
         3 002017   000077 236000 4                  LDQ     63
         3 002020   200114 756100                    STQ     NILFCNFLG+21,,AUTO
         3 002021   200114 630500                    EPPR0   NILFCNFLG+21,,AUTO
         3 002022   000000 220000 xsym               LDX0    DAF$WRITE
         3 002023   000024 631400 xsym               EPPR1   B_VECTNIL+20
         3 002024   000000 701010                    TSX1    0,X0
         3 002025   000000 011000                    NOP     0

      319     5552    1           CALL DAF$WRITE(VECTOR(JPRIFMT),
      320     5553    1             VECTOR(JIT$->B$JIT.DEFPRI),
      321     5554    1             VECTOR(JIT$->B$JIT.MAXPRI),
      322     5555    1             VECTOR(JIT$->B$JIT.STEPS),
      323     5556    1             VECTOR(JIT$->B$JIT.STEPCC),
      324     5557    1             VECTOR(JIT$->B$JIT.INTER));

   5557  3 002026   177640 235007                    LDA     65440,DL
         3 002027   200004 236100                    LDQ     JIT$,,AUTO
         3 002030   000153 036003                    ADLQ    107,DU
         3 002031   200070 757100                    STAQ    NILFCNFLG+1,,AUTO
         3 002032   177640 235007                    LDA     65440,DL
PL6.E3A0      #001=DAU$DCBS File=DAU$DCBS.:E05TSI                                TUE 07/29/97 12:54 Page:65
         3 002033   200004 236100                    LDQ     JIT$,,AUTO
         3 002034   000102 036000 4                  ADLQ    66
         3 002035   200072 757100                    STAQ    NILFCNFLG+3,,AUTO
         3 002036   377640 235007                    LDA     130976,DL
         3 002037   200004 236100                    LDQ     JIT$,,AUTO
         3 002040   000103 036000 4                  ADLQ    67
         3 002041   200074 757100                    STAQ    NILFCNFLG+5,,AUTO
         3 002042   177640 235007                    LDA     65440,DL
         3 002043   200004 236100                    LDQ     JIT$,,AUTO
         3 002044   000104 036000 4                  ADLQ    68
         3 002045   200076 757100                    STAQ    NILFCNFLG+7,,AUTO
         3 002046   377640 235007                    LDA     130976,DL
         3 002047   200004 236100                    LDQ     JIT$,,AUTO
         3 002050   000105 036000 4                  ADLQ    69
         3 002051   200102 757100                    STAQ    NILFCNFLG+11,,AUTO
         3 002052   200070 237100                    LDAQ    NILFCNFLG+1,,AUTO
         3 002053   200100 757100                    STAQ    NILFCNFLG+9,,AUTO
         3 002054   200072 237100                    LDAQ    NILFCNFLG+3,,AUTO
         3 002055   200104 757100                    STAQ    NILFCNFLG+13,,AUTO
         3 002056   200074 237100                    LDAQ    NILFCNFLG+5,,AUTO
         3 002057   200106 757100                    STAQ    NILFCNFLG+15,,AUTO
         3 002060   200076 237100                    LDAQ    NILFCNFLG+7,,AUTO
         3 002061   200110 757100                    STAQ    NILFCNFLG+17,,AUTO
         3 002062   200102 237100                    LDAQ    NILFCNFLG+11,,AUTO
         3 002063   200112 757100                    STAQ    NILFCNFLG+19,,AUTO
         3 002064   200112 630500                    EPPR0   NILFCNFLG+19,,AUTO
         3 002065   200121 450500                    STP0    NILFCNFLG+26,,AUTO
         3 002066   200110 631500                    EPPR1   NILFCNFLG+17,,AUTO
         3 002067   200120 451500                    STP1    NILFCNFLG+25,,AUTO
         3 002070   200106 633500                    EPPR3   NILFCNFLG+15,,AUTO
         3 002071   200117 453500                    STP3    NILFCNFLG+24,,AUTO
         3 002072   200104 634500                    EPPR4   NILFCNFLG+13,,AUTO
         3 002073   200116 454500                    STP4    NILFCNFLG+23,,AUTO
         3 002074   200100 635500                    EPPR5   NILFCNFLG+9,,AUTO
         3 002075   200115 455500                    STP5    NILFCNFLG+22,,AUTO
         3 002076   000106 236000 4                  LDQ     70
         3 002077   200114 756100                    STQ     NILFCNFLG+21,,AUTO
PL6.E3A0      #001=DAU$DCBS File=DAU$DCBS.:E05TSI                                TUE 07/29/97 12:54 Page:66
         3 002100   200114 630500                    EPPR0   NILFCNFLG+21,,AUTO
         3 002101   000000 220000 xsym               LDX0    DAF$WRITE
         3 002102   000024 631400 xsym               EPPR1   B_VECTNIL+20
         3 002103   000000 701010                    TSX1    0,X0
         3 002104   000000 011000                    NOP     0

      325     5558    1           CALL DAF$WRITE(VECTOR(JMMLFMT),
      326     5559    1             VECTOR(JIT$->B$JIT.PLL),
      327     5560    1             VECTOR(JIT$->B$JIT.PUL),
      328     5561    1             VECTOR(JIT$->B$JIT.DLL),
      329     5562    1             VECTOR(JIT$->B$JIT.DUL),
      330     5563    1             VECTOR(JIT$->B$JIT.DDLL),

   5563  3 002105   377640 235007                    LDA     130976,DL
         3 002106   200004 236100                    LDQ     JIT$,,AUTO
         3 002107   000176 036003                    ADLQ    126,DU
         3 002110   200070 757100                    STAQ    NILFCNFLG+1,,AUTO
         3 002111   377640 235007                    LDA     130976,DL
         3 002112   200004 236100                    LDQ     JIT$,,AUTO
         3 002113   000112 036000 4                  ADLQ    74
         3 002114   200072 757100                    STAQ    NILFCNFLG+3,,AUTO
         3 002115   377640 235007                    LDA     130976,DL
         3 002116   200004 236100                    LDQ     JIT$,,AUTO
         3 002117   000177 036003                    ADLQ    127,DU
         3 002120   200074 757100                    STAQ    NILFCNFLG+5,,AUTO
         3 002121   377640 235007                    LDA     130976,DL
         3 002122   200004 236100                    LDQ     JIT$,,AUTO
         3 002123   000113 036000 4                  ADLQ    75
         3 002124   200076 757100                    STAQ    NILFCNFLG+7,,AUTO
         3 002125   377640 235007                    LDA     130976,DL
         3 002126   200004 236100                    LDQ     JIT$,,AUTO
         3 002127   000200 036003                    ADLQ    128,DU
         3 002130   200100 757100                    STAQ    NILFCNFLG+9,,AUTO
         3 002131   377640 235007                    LDA     130976,DL
         3 002132   200004 236100                    LDQ     JIT$,,AUTO
         3 002133   000114 036000 4                  ADLQ    76
         3 002134   200104 757100                    STAQ    NILFCNFLG+13,,AUTO
PL6.E3A0      #001=DAU$DCBS File=DAU$DCBS.:E05TSI                                TUE 07/29/97 12:54 Page:67
         3 002135   200070 237100                    LDAQ    NILFCNFLG+1,,AUTO
         3 002136   200102 757100                    STAQ    NILFCNFLG+11,,AUTO
         3 002137   200072 237100                    LDAQ    NILFCNFLG+3,,AUTO
         3 002140   200106 757100                    STAQ    NILFCNFLG+15,,AUTO
         3 002141   200074 237100                    LDAQ    NILFCNFLG+5,,AUTO
         3 002142   200110 757100                    STAQ    NILFCNFLG+17,,AUTO
         3 002143   200076 237100                    LDAQ    NILFCNFLG+7,,AUTO
         3 002144   200112 757100                    STAQ    NILFCNFLG+19,,AUTO
         3 002145   200100 237100                    LDAQ    NILFCNFLG+9,,AUTO
         3 002146   200114 757100                    STAQ    NILFCNFLG+21,,AUTO
         3 002147   200104 237100                    LDAQ    NILFCNFLG+13,,AUTO
         3 002150   200116 757100                    STAQ    NILFCNFLG+23,,AUTO
         3 002151   200116 630500                    EPPR0   NILFCNFLG+23,,AUTO
         3 002152   200126 450500                    STP0    NILFCNFLG+31,,AUTO
         3 002153   200114 631500                    EPPR1   NILFCNFLG+21,,AUTO
         3 002154   200125 451500                    STP1    NILFCNFLG+30,,AUTO
         3 002155   200112 633500                    EPPR3   NILFCNFLG+19,,AUTO
         3 002156   200124 453500                    STP3    NILFCNFLG+29,,AUTO
         3 002157   200110 634500                    EPPR4   NILFCNFLG+17,,AUTO
         3 002160   200123 454500                    STP4    NILFCNFLG+28,,AUTO
         3 002161   200106 635500                    EPPR5   NILFCNFLG+15,,AUTO
         3 002162   200122 455500                    STP5    NILFCNFLG+27,,AUTO
         3 002163   200102 636500                    EPPR6   NILFCNFLG+11,,AUTO
         3 002164   200121 456500                    STP6    NILFCNFLG+26,,AUTO
         3 002165   000115 236000 4                  LDQ     77
         3 002166   200120 756100                    STQ     NILFCNFLG+25,,AUTO
         3 002167   200120 630500                    EPPR0   NILFCNFLG+25,,AUTO
         3 002170   000000 220000 xsym               LDX0    DAF$WRITE
         3 002171   000025 631400 xsym               EPPR1   B_VECTNIL+21
         3 002172   000000 701010                    TSX1    0,X0
         3 002173   000000 011000                    NOP     0

      331     5564    1             VECTOR(JIT$->B$JIT.DDUL));
      332     5565    1           CALL DAF$WRITE(VECTOR(JMMPCFMT),
      333     5566    1             VECTOR(JIT$->B$JIT.PPC),
      334     5567    1             VECTOR(JIT$->B$JIT.PCP),
      335     5568    1             VECTOR(JIT$->B$JIT.PCD),
PL6.E3A0      #001=DAU$DCBS File=DAU$DCBS.:E05TSI                                TUE 07/29/97 12:54 Page:68
      336     5569    1             VECTOR(JIT$->B$JIT.PCDS),
      337     5570    1             VECTOR(JIT$->B$JIT.PCC),
      338     5571    1             VECTOR(JIT$->B$JIT.PCROS),
      339     5572    1             VECTOR(JIT$->B$JIT.PCDD),
      340     5573    1             VECTOR(JIT$->B$JIT.PCDDS),
      341     5574    1             VECTOR(JIT$->B$JIT.PCADS),
      342     5575    1             VECTOR(JIT$->B$JIT.PCL),
      343     5576    1             VECTOR(JIT$->B$JIT.PCV));

   5576  3 002174   377640 235007                    LDA     130976,DL
         3 002175   200004 236100                    LDQ     JIT$,,AUTO
         3 002176   000120 036000 4                  ADLQ    80
         3 002177   200070 757100                    STAQ    NILFCNFLG+1,,AUTO
         3 002200   377640 235007                    LDA     130976,DL
         3 002201   200004 236100                    LDQ     JIT$,,AUTO
         3 002202   000201 036003                    ADLQ    129,DU
         3 002203   200072 757100                    STAQ    NILFCNFLG+3,,AUTO
         3 002204   377640 235007                    LDA     130976,DL
         3 002205   200004 236100                    LDQ     JIT$,,AUTO
         3 002206   000121 036000 4                  ADLQ    81
         3 002207   200074 757100                    STAQ    NILFCNFLG+5,,AUTO
         3 002210   377640 235007                    LDA     130976,DL
         3 002211   200004 236100                    LDQ     JIT$,,AUTO
         3 002212   000202 036003                    ADLQ    130,DU
         3 002213   200076 757100                    STAQ    NILFCNFLG+7,,AUTO
         3 002214   377640 235007                    LDA     130976,DL
         3 002215   200004 236100                    LDQ     JIT$,,AUTO
         3 002216   000122 036000 4                  ADLQ    82
         3 002217   200100 757100                    STAQ    NILFCNFLG+9,,AUTO
         3 002220   377640 235007                    LDA     130976,DL
         3 002221   200004 236100                    LDQ     JIT$,,AUTO
         3 002222   000203 036003                    ADLQ    131,DU
         3 002223   200102 757100                    STAQ    NILFCNFLG+11,,AUTO
         3 002224   377640 235007                    LDA     130976,DL
         3 002225   200004 236100                    LDQ     JIT$,,AUTO
         3 002226   000123 036000 4                  ADLQ    83
         3 002227   200104 757100                    STAQ    NILFCNFLG+13,,AUTO
PL6.E3A0      #001=DAU$DCBS File=DAU$DCBS.:E05TSI                                TUE 07/29/97 12:54 Page:69
         3 002230   377640 235007                    LDA     130976,DL
         3 002231   200004 236100                    LDQ     JIT$,,AUTO
         3 002232   000124 036000 4                  ADLQ    84
         3 002233   200106 757100                    STAQ    NILFCNFLG+15,,AUTO
         3 002234   377640 235007                    LDA     130976,DL
         3 002235   200004 236100                    LDQ     JIT$,,AUTO
         3 002236   000214 036003                    ADLQ    140,DU
         3 002237   200110 757100                    STAQ    NILFCNFLG+17,,AUTO
         3 002240   377640 235007                    LDA     130976,DL
         3 002241   200004 236100                    LDQ     JIT$,,AUTO
         3 002242   000125 036000 4                  ADLQ    85
         3 002243   200112 757100                    STAQ    NILFCNFLG+19,,AUTO
         3 002244   377640 235007                    LDA     130976,DL
         3 002245   200004 236100                    LDQ     JIT$,,AUTO
         3 002246   000216 036003                    ADLQ    142,DU
         3 002247   200116 757100                    STAQ    NILFCNFLG+23,,AUTO
         3 002250   200070 237100                    LDAQ    NILFCNFLG+1,,AUTO
         3 002251   200114 757100                    STAQ    NILFCNFLG+21,,AUTO
         3 002252   200072 237100                    LDAQ    NILFCNFLG+3,,AUTO
         3 002253   200120 757100                    STAQ    NILFCNFLG+25,,AUTO
         3 002254   200074 237100                    LDAQ    NILFCNFLG+5,,AUTO
         3 002255   200122 757100                    STAQ    NILFCNFLG+27,,AUTO
         3 002256   200076 237100                    LDAQ    NILFCNFLG+7,,AUTO
         3 002257   200124 757100                    STAQ    NILFCNFLG+29,,AUTO
         3 002260   200100 237100                    LDAQ    NILFCNFLG+9,,AUTO
         3 002261   200126 757100                    STAQ    NILFCNFLG+31,,AUTO
         3 002262   200102 237100                    LDAQ    NILFCNFLG+11,,AUTO
         3 002263   200130 757100                    STAQ    NILFCNFLG+33,,AUTO
         3 002264   200104 237100                    LDAQ    NILFCNFLG+13,,AUTO
         3 002265   200132 757100                    STAQ    NILFCNFLG+35,,AUTO
         3 002266   200106 237100                    LDAQ    NILFCNFLG+15,,AUTO
         3 002267   200134 757100                    STAQ    NILFCNFLG+37,,AUTO
         3 002270   200110 237100                    LDAQ    NILFCNFLG+17,,AUTO
         3 002271   200136 757100                    STAQ    NILFCNFLG+39,,AUTO
         3 002272   200112 237100                    LDAQ    NILFCNFLG+19,,AUTO
         3 002273   200140 757100                    STAQ    NILFCNFLG+41,,AUTO
         3 002274   200116 237100                    LDAQ    NILFCNFLG+23,,AUTO
PL6.E3A0      #001=DAU$DCBS File=DAU$DCBS.:E05TSI                                TUE 07/29/97 12:54 Page:70
         3 002275   200142 757100                    STAQ    NILFCNFLG+43,,AUTO
         3 002276   200142 630500                    EPPR0   NILFCNFLG+43,,AUTO
         3 002277   200157 450500                    STP0    NILFCNFLG+56,,AUTO
         3 002300   200140 631500                    EPPR1   NILFCNFLG+41,,AUTO
         3 002301   200156 451500                    STP1    NILFCNFLG+55,,AUTO
         3 002302   200136 633500                    EPPR3   NILFCNFLG+39,,AUTO
         3 002303   200155 453500                    STP3    NILFCNFLG+54,,AUTO
         3 002304   200134 634500                    EPPR4   NILFCNFLG+37,,AUTO
         3 002305   200154 454500                    STP4    NILFCNFLG+53,,AUTO
         3 002306   200132 635500                    EPPR5   NILFCNFLG+35,,AUTO
         3 002307   200153 455500                    STP5    NILFCNFLG+52,,AUTO
         3 002310   200130 636500                    EPPR6   NILFCNFLG+33,,AUTO
         3 002311   200152 456500                    STP6    NILFCNFLG+51,,AUTO
         3 002312   200126 637500                    EPPR7   NILFCNFLG+31,,AUTO
         3 002313   200151 457500                    STP7    NILFCNFLG+50,,AUTO
         3 002314   200124 630500                    EPPR0   NILFCNFLG+29,,AUTO
         3 002315   200150 450500                    STP0    NILFCNFLG+49,,AUTO
         3 002316   200122 630500                    EPPR0   NILFCNFLG+27,,AUTO
         3 002317   200147 450500                    STP0    NILFCNFLG+48,,AUTO
         3 002320   200120 630500                    EPPR0   NILFCNFLG+25,,AUTO
         3 002321   200146 450500                    STP0    NILFCNFLG+47,,AUTO
         3 002322   200114 630500                    EPPR0   NILFCNFLG+21,,AUTO
         3 002323   200145 450500                    STP0    NILFCNFLG+46,,AUTO
         3 002324   000127 236000 4                  LDQ     87
         3 002325   200144 756100                    STQ     NILFCNFLG+45,,AUTO
         3 002326   200144 630500                    EPPR0   NILFCNFLG+45,,AUTO
         3 002327   000000 220000 xsym               LDX0    DAF$WRITE
         3 002330   000126 631400 4                  EPPR1   86
         3 002331   000000 701010                    TSX1    0,X0
         3 002332   000000 011000                    NOP     0

      344     5577    1           CALL DAF$WRITE(VECTOR(JMMMFMT),
      345     5578    1             VECTOR(JIT$->B$JIT.TDP),
      346     5579    1             VECTOR(JIT$->B$JIT.EUP),
      347     5580    1             VECTOR(JIT$->B$JIT.FBUC),
      348     5581    1             VECTOR(JIT$->B$JIT.FBUL),
      349     5582    1             VECTOR(JIT$->B$JIT.XCONF),
PL6.E3A0      #001=DAU$DCBS File=DAU$DCBS.:E05TSI                                TUE 07/29/97 12:54 Page:71

   5582  3 002333   377640 235007                    LDA     130976,DL
         3 002334   200004 236100                    LDQ     JIT$,,AUTO
         3 002335   000204 036003                    ADLQ    132,DU
         3 002336   200070 757100                    STAQ    NILFCNFLG+1,,AUTO
         3 002337   377640 235007                    LDA     130976,DL
         3 002340   200004 236100                    LDQ     JIT$,,AUTO
         3 002341   000132 036000 4                  ADLQ    90
         3 002342   200072 757100                    STAQ    NILFCNFLG+3,,AUTO
         3 002343   377640 235007                    LDA     130976,DL
         3 002344   200004 236100                    LDQ     JIT$,,AUTO
         3 002345   000205 036003                    ADLQ    133,DU
         3 002346   200074 757100                    STAQ    NILFCNFLG+5,,AUTO
         3 002347   377640 235007                    LDA     130976,DL
         3 002350   200004 236100                    LDQ     JIT$,,AUTO
         3 002351   000133 036000 4                  ADLQ    91
         3 002352   200076 757100                    STAQ    NILFCNFLG+7,,AUTO
         3 002353   177640 235007                    LDA     65440,DL
         3 002354   200004 236100                    LDQ     JIT$,,AUTO
         3 002355   000316 036003                    ADLQ    206,DU
         3 002356   200100 757100                    STAQ    NILFCNFLG+9,,AUTO
         3 002357   177640 235007                    LDA     65440,DL
         3 002360   200004 236100                    LDQ     JIT$,,AUTO
         3 002361   000134 036000 4                  ADLQ    92
         3 002362   200102 757100                    STAQ    NILFCNFLG+11,,AUTO
         3 002363   177640 235007                    LDA     65440,DL
         3 002364   200004 236100                    LDQ     JIT$,,AUTO
         3 002365   000135 036000 4                  ADLQ    93
         3 002366   200106 757100                    STAQ    NILFCNFLG+15,,AUTO
         3 002367   200070 237100                    LDAQ    NILFCNFLG+1,,AUTO
         3 002370   200104 757100                    STAQ    NILFCNFLG+13,,AUTO
         3 002371   200072 237100                    LDAQ    NILFCNFLG+3,,AUTO
         3 002372   200110 757100                    STAQ    NILFCNFLG+17,,AUTO
         3 002373   200074 237100                    LDAQ    NILFCNFLG+5,,AUTO
         3 002374   200112 757100                    STAQ    NILFCNFLG+19,,AUTO
         3 002375   200076 237100                    LDAQ    NILFCNFLG+7,,AUTO
         3 002376   200114 757100                    STAQ    NILFCNFLG+21,,AUTO
PL6.E3A0      #001=DAU$DCBS File=DAU$DCBS.:E05TSI                                TUE 07/29/97 12:54 Page:72
         3 002377   200100 237100                    LDAQ    NILFCNFLG+9,,AUTO
         3 002400   200116 757100                    STAQ    NILFCNFLG+23,,AUTO
         3 002401   200102 237100                    LDAQ    NILFCNFLG+11,,AUTO
         3 002402   200120 757100                    STAQ    NILFCNFLG+25,,AUTO
         3 002403   200106 237100                    LDAQ    NILFCNFLG+15,,AUTO
         3 002404   200122 757100                    STAQ    NILFCNFLG+27,,AUTO
         3 002405   200122 630500                    EPPR0   NILFCNFLG+27,,AUTO
         3 002406   200133 450500                    STP0    NILFCNFLG+36,,AUTO
         3 002407   200120 631500                    EPPR1   NILFCNFLG+25,,AUTO
         3 002410   200132 451500                    STP1    NILFCNFLG+35,,AUTO
         3 002411   200116 633500                    EPPR3   NILFCNFLG+23,,AUTO
         3 002412   200131 453500                    STP3    NILFCNFLG+34,,AUTO
         3 002413   200114 634500                    EPPR4   NILFCNFLG+21,,AUTO
         3 002414   200130 454500                    STP4    NILFCNFLG+33,,AUTO
         3 002415   200112 635500                    EPPR5   NILFCNFLG+19,,AUTO
         3 002416   200127 455500                    STP5    NILFCNFLG+32,,AUTO
         3 002417   200110 636500                    EPPR6   NILFCNFLG+17,,AUTO
         3 002420   200126 456500                    STP6    NILFCNFLG+31,,AUTO
         3 002421   200104 637500                    EPPR7   NILFCNFLG+13,,AUTO
         3 002422   200125 457500                    STP7    NILFCNFLG+30,,AUTO
         3 002423   000136 236000 4                  LDQ     94
         3 002424   200124 756100                    STQ     NILFCNFLG+29,,AUTO
         3 002425   200124 630500                    EPPR0   NILFCNFLG+29,,AUTO
         3 002426   000000 220000 xsym               LDX0    DAF$WRITE
         3 002427   000026 631400 xsym               EPPR1   B_VECTNIL+22
         3 002430   000000 701010                    TSX1    0,X0
         3 002431   000000 011000                    NOP     0

      350     5583    1             VECTOR(JIT$->B$JIT.XLIMFLG),
      351     5584    1             VECTOR(JIT$->B$JIT.SVLDTF));
      352     5585    1           CALL DAF$WRITE(VECTOR(JRNSTFMT),
      353     5586    1             VECTOR(JIT$->B$JIT.RNST),
      354     5587    1             VECTOR(JIT$->B$JIT.FRS),
      355     5588    1             VECTOR(JIT$->B$JIT.RUNFLAGS),
      356     5589    1             VECTOR(JIT$->B$JIT.JUNK),
      357     5590    1             VECTOR(JIT$->B$JIT.JUNK2));

PL6.E3A0      #001=DAU$DCBS File=DAU$DCBS.:E05TSI                                TUE 07/29/97 12:54 Page:73
   5590  3 002432   177640 235007                    LDA     65440,DL
         3 002433   200004 236100                    LDQ     JIT$,,AUTO
         3 002434   000314 036003                    ADLQ    204,DU
         3 002435   200070 757100                    STAQ    NILFCNFLG+1,,AUTO
         3 002436   177640 235007                    LDA     65440,DL
         3 002437   200004 236100                    LDQ     JIT$,,AUTO
         3 002440   000142 036000 4                  ADLQ    98
         3 002441   200072 757100                    STAQ    NILFCNFLG+3,,AUTO
         3 002442   177640 235007                    LDA     65440,DL
         3 002443   200004 236100                    LDQ     JIT$,,AUTO
         3 002444   000143 036000 4                  ADLQ    99
         3 002445   200074 757100                    STAQ    NILFCNFLG+5,,AUTO
         3 002446   377640 235007                    LDA     130976,DL
         3 002447   200004 236100                    LDQ     JIT$,,AUTO
         3 002450   000315 036003                    ADLQ    205,DU
         3 002451   200076 757100                    STAQ    NILFCNFLG+7,,AUTO
         3 002452   377640 235007                    LDA     130976,DL
         3 002453   200004 236100                    LDQ     JIT$,,AUTO
         3 002454   000321 036003                    ADLQ    209,DU
         3 002455   200102 757100                    STAQ    NILFCNFLG+11,,AUTO
         3 002456   200070 237100                    LDAQ    NILFCNFLG+1,,AUTO
         3 002457   200100 757100                    STAQ    NILFCNFLG+9,,AUTO
         3 002460   200072 237100                    LDAQ    NILFCNFLG+3,,AUTO
         3 002461   200104 757100                    STAQ    NILFCNFLG+13,,AUTO
         3 002462   200074 237100                    LDAQ    NILFCNFLG+5,,AUTO
         3 002463   200106 757100                    STAQ    NILFCNFLG+15,,AUTO
         3 002464   200076 237100                    LDAQ    NILFCNFLG+7,,AUTO
         3 002465   200110 757100                    STAQ    NILFCNFLG+17,,AUTO
         3 002466   200102 237100                    LDAQ    NILFCNFLG+11,,AUTO
         3 002467   200112 757100                    STAQ    NILFCNFLG+19,,AUTO
         3 002470   200112 630500                    EPPR0   NILFCNFLG+19,,AUTO
         3 002471   200121 450500                    STP0    NILFCNFLG+26,,AUTO
         3 002472   200110 631500                    EPPR1   NILFCNFLG+17,,AUTO
         3 002473   200120 451500                    STP1    NILFCNFLG+25,,AUTO
         3 002474   200106 633500                    EPPR3   NILFCNFLG+15,,AUTO
         3 002475   200117 453500                    STP3    NILFCNFLG+24,,AUTO
         3 002476   200104 634500                    EPPR4   NILFCNFLG+13,,AUTO
PL6.E3A0      #001=DAU$DCBS File=DAU$DCBS.:E05TSI                                TUE 07/29/97 12:54 Page:74
         3 002477   200116 454500                    STP4    NILFCNFLG+23,,AUTO
         3 002500   200100 635500                    EPPR5   NILFCNFLG+9,,AUTO
         3 002501   200115 455500                    STP5    NILFCNFLG+22,,AUTO
         3 002502   000144 236000 4                  LDQ     100
         3 002503   200114 756100                    STQ     NILFCNFLG+21,,AUTO
         3 002504   200114 630500                    EPPR0   NILFCNFLG+21,,AUTO
         3 002505   000000 220000 xsym               LDX0    DAF$WRITE
         3 002506   000024 631400 xsym               EPPR1   B_VECTNIL+20
         3 002507   000000 701010                    TSX1    0,X0
         3 002510   000000 011000                    NOP     0

      358     5591                                           /* #39271: MODIFIED TO DISPLAY SUBDEVICE
      359     5592                                            *         AND SUBSUBDEVICE TSLINE FIELDS
      360     5593                                            *         FOR VALID LEV VALUES
      361     5594                                            */
      362     5595    2           IF JIT$->B$JIT.TSLINE.LEV = 2 THEN DO;

   5595  3 002511   200004 470500                    LDP0    JIT$,,AUTO
         3 002512   000340 236100                    LDQ     224,,PR0
         3 002513   777000 376003                    ANQ     -512,DU
         3 002514   002000 116003                    CMPQ    1024,DU
         3 002515   002532 601000 3                  TNZ     s:5600

      363     5596    2              SUBDEV_ARG.LEVEL2.N_ARGS=1;

   5596  3 002516   000001 235007                    LDA     1,DL
         3 002517   200046 755100                    STA     SUBDEV_ARG,,AUTO

      364     5597    2              SUBDEV_ARG.LEVEL2.SUBDEV=JIT$->B$JIT.TSLINE.SUBDEVICE;

   5597  3 002520   000340 236100                    LDQ     224,,PR0
         3 002521   777777 376007                    ANQ     -1,DL
         3 002522   200047 756100                    STQ     SUBDEV_ARG+1,,AUTO

      365     5598    2              SUBDEV_VECTOR=VECTOR(SUBDEV_ARG.LEVEL2);

   5598  3 002523   000047 235000 4                  LDA     39
PL6.E3A0      #001=DAU$DCBS File=DAU$DCBS.:E05TSI                                TUE 07/29/97 12:54 Page:75
         3 002524   200070 452500                    STP2    NILFCNFLG+1,,AUTO
         3 002525   200070 236100                    LDQ     NILFCNFLG+1,,AUTO
         3 002526   000046 036003                    ADLQ    38,DU
         3 002527   200051 755100                    STA     SUBDEV_VECTOR,,AUTO
         3 002530   200052 756100                    STQ     SUBDEV_VECTOR+1,,AUTO

      366     5599    2              END;

   5599  3 002531   002562 710000 3                  TRA     s:5615

      367     5600    2           ELSE IF JIT$->B$JIT.TSLINE.LEV = 3 THEN DO;

   5600  3 002532   003000 116003                    CMPQ    1536,DU
         3 002533   002553 601000 3                  TNZ     s:5607

      368     5601    2                 SUBDEV_ARG.LEVEL2.N_ARGS=2;

   5601  3 002534   000002 235007                    LDA     2,DL
         3 002535   200046 755100                    STA     SUBDEV_ARG,,AUTO

      369     5602    2                 SUBDEV_ARG.LEVEL2.SUBDEV=JIT$->B$JIT.TSLINE.SUBDEVICE;

   5602  3 002536   000340 236100                    LDQ     224,,PR0
         3 002537   777777 376007                    ANQ     -1,DL
         3 002540   200047 756100                    STQ     SUBDEV_ARG+1,,AUTO

      370     5603    2                 SUBDEV_ARG.SUBSUBDEV=JIT$->B$JIT.TSLINE.SUBSUBDEVICE;

   5603  3 002541   000341 236100                    LDQ     225,,PR0
         3 002542   000022 772000                    QRL     18
         3 002543   200050 756100                    STQ     SUBDEV_ARG+2,,AUTO

      371     5604    2                 SUBDEV_VECTOR=VECTOR(SUBDEV_ARG);

   5604  3 002544   000030 235000 4                  LDA     24
         3 002545   200070 452500                    STP2    NILFCNFLG+1,,AUTO
         3 002546   200070 236100                    LDQ     NILFCNFLG+1,,AUTO
PL6.E3A0      #001=DAU$DCBS File=DAU$DCBS.:E05TSI                                TUE 07/29/97 12:54 Page:76
         3 002547   000046 036003                    ADLQ    38,DU
         3 002550   200051 755100                    STA     SUBDEV_VECTOR,,AUTO
         3 002551   200052 756100                    STQ     SUBDEV_VECTOR+1,,AUTO

      372     5605    2                 END;

   5605  3 002552   002562 710000 3                  TRA     s:5615

      373     5606    2              ELSE DO;

      374     5607    2                 SUBDEV_ARG.LEVEL2.N_ARGS=0;

   5607  3 002553   200046 450100                    STZ     SUBDEV_ARG,,AUTO

      375     5608    2                 SUBDEV_VECTOR=VECTOR(SUBDEV_ARG.LEVEL2.N_ARGS);

   5608  3 002554   777640 235007                    LDA     -96,DL
         3 002555   200070 452500                    STP2    NILFCNFLG+1,,AUTO
         3 002556   200070 236100                    LDQ     NILFCNFLG+1,,AUTO
         3 002557   000046 036003                    ADLQ    38,DU
         3 002560   200051 755100                    STA     SUBDEV_VECTOR,,AUTO
         3 002561   200052 756100                    STQ     SUBDEV_VECTOR+1,,AUTO

      376     5609    2                 END;

      377     5610    1           CALL DAF$WRITE(VECTOR(JIOSFMT),
      378     5611    1             VECTOR(JIT$->B$JIT.ACCESS.PACKS),
      379     5612    1             VECTOR(JIT$->B$JIT.ACCESS.TAPES),
      380     5613    1             VECTOR(JIT$->B$JIT.TSLINE.FEX),
      381     5614    1             VECTOR(JIT$->B$JIT.TSLINE.PORT),
      382     5615    1             SUBDEV_VECTOR,

   5615  3 002562   777640 235007                    LDA     -96,DL
         3 002563   200004 236100                    LDQ     JIT$,,AUTO
         3 002564   000327 036003                    ADLQ    215,DU
         3 002565   200070 757100                    STAQ    NILFCNFLG+1,,AUTO
         3 002566   777640 235007                    LDA     -96,DL
PL6.E3A0      #001=DAU$DCBS File=DAU$DCBS.:E05TSI                                TUE 07/29/97 12:54 Page:77
         3 002567   200004 236100                    LDQ     JIT$,,AUTO
         3 002570   000330 036003                    ADLQ    216,DU
         3 002571   200072 757100                    STAQ    NILFCNFLG+3,,AUTO
         3 002572   177640 235007                    LDA     65440,DL
         3 002573   200004 236100                    LDQ     JIT$,,AUTO
         3 002574   000337 036003                    ADLQ    223,DU
         3 002575   200074 757100                    STAQ    NILFCNFLG+5,,AUTO
         3 002576   377640 235007                    LDA     130976,DL
         3 002577   200004 236100                    LDQ     JIT$,,AUTO
         3 002600   000150 036000 4                  ADLQ    104
         3 002601   200076 757100                    STAQ    NILFCNFLG+7,,AUTO
         3 002602   377640 235007                    LDA     130976,DL
         3 002603   200004 236100                    LDQ     JIT$,,AUTO
         3 002604   000357 036003                    ADLQ    239,DU
         3 002605   200100 757100                    STAQ    NILFCNFLG+9,,AUTO
         3 002606   177640 235007                    LDA     65440,DL
         3 002607   200004 236100                    LDQ     JIT$,,AUTO
         3 002610   000151 036000 4                  ADLQ    105
         3 002611   200102 757100                    STAQ    NILFCNFLG+11,,AUTO
         3 002612   377640 235007                    LDA     130976,DL
         3 002613   200004 236100                    LDQ     JIT$,,AUTO
         3 002614   000260 036003                    ADLQ    176,DU
         3 002615   200106 757100                    STAQ    NILFCNFLG+15,,AUTO
         3 002616   200070 237100                    LDAQ    NILFCNFLG+1,,AUTO
         3 002617   200104 757100                    STAQ    NILFCNFLG+13,,AUTO
         3 002620   200072 237100                    LDAQ    NILFCNFLG+3,,AUTO
         3 002621   200110 757100                    STAQ    NILFCNFLG+17,,AUTO
         3 002622   200074 237100                    LDAQ    NILFCNFLG+5,,AUTO
         3 002623   200112 757100                    STAQ    NILFCNFLG+19,,AUTO
         3 002624   200076 237100                    LDAQ    NILFCNFLG+7,,AUTO
         3 002625   200114 757100                    STAQ    NILFCNFLG+21,,AUTO
         3 002626   200100 237100                    LDAQ    NILFCNFLG+9,,AUTO
         3 002627   200116 757100                    STAQ    NILFCNFLG+23,,AUTO
         3 002630   200102 237100                    LDAQ    NILFCNFLG+11,,AUTO
         3 002631   200120 757100                    STAQ    NILFCNFLG+25,,AUTO
         3 002632   200106 237100                    LDAQ    NILFCNFLG+15,,AUTO
         3 002633   200122 757100                    STAQ    NILFCNFLG+27,,AUTO
PL6.E3A0      #001=DAU$DCBS File=DAU$DCBS.:E05TSI                                TUE 07/29/97 12:54 Page:78
         3 002634   200122 631500                    EPPR1   NILFCNFLG+27,,AUTO
         3 002635   200134 451500                    STP1    NILFCNFLG+37,,AUTO
         3 002636   200120 633500                    EPPR3   NILFCNFLG+25,,AUTO
         3 002637   200133 453500                    STP3    NILFCNFLG+36,,AUTO
         3 002640   200116 634500                    EPPR4   NILFCNFLG+23,,AUTO
         3 002641   200132 454500                    STP4    NILFCNFLG+35,,AUTO
         3 002642   200051 635500                    EPPR5   SUBDEV_VECTOR,,AUTO
         3 002643   200131 455500                    STP5    NILFCNFLG+34,,AUTO
         3 002644   200114 636500                    EPPR6   NILFCNFLG+21,,AUTO
         3 002645   200130 456500                    STP6    NILFCNFLG+33,,AUTO
         3 002646   200112 637500                    EPPR7   NILFCNFLG+19,,AUTO
         3 002647   200127 457500                    STP7    NILFCNFLG+32,,AUTO
         3 002650   200110 630500                    EPPR0   NILFCNFLG+17,,AUTO
         3 002651   200126 450500                    STP0    NILFCNFLG+31,,AUTO
         3 002652   200104 630500                    EPPR0   NILFCNFLG+13,,AUTO
         3 002653   200125 450500                    STP0    NILFCNFLG+30,,AUTO
         3 002654   000153 236000 4                  LDQ     107
         3 002655   200124 756100                    STQ     NILFCNFLG+29,,AUTO
         3 002656   200124 630500                    EPPR0   NILFCNFLG+29,,AUTO
         3 002657   000000 220000 xsym               LDX0    DAF$WRITE
         3 002660   000152 631400 4                  EPPR1   106
         3 002661   000000 701010                    TSX1    0,X0
         3 002662   000000 011000                    NOP     0

      383     5616    1             VECTOR(JIT$->B$JIT.ENQS),
      384     5617    1             VECTOR(JIT$->B$JIT.PRIOB),
      385     5618    1             VECTOR(JIT$->B$JIT.QUAN));
      386     5619    1           RETURN;

   5619  3 002663   000000 702200 xent               TSX2  ! X66_ARET

      387     5620        %EJECT;
PL6.E3A0      #001=DAU$DCBS File=DAU$DCBS.:E05TSI                                TUE 07/29/97 12:54 Page:79
      388     5621    1   DAU$WHOHAS: ENTRY(TOP);

   5621  3 002664   000000 700200 xent  DAU$WHOHAS   TSX0  ! X66_AUTO_1
         3 002665   000260 000001                    ZERO    176,1

      389     5622    1           IF TOP.NSUBLKS > 1 THEN

   5622  3 002666   200003 470500                    LDP0    @TOP,,AUTO
         3 002667   000001 220100                    LDX0    1,,PR0
         3 002670   000002 100003                    CMPX0   2,DU
         3 002671   002675 602000 3                  TNC     s:5625

      390     5623    1              OPEN_OPT_REQ = '1'B;

   5623  3 002672   400000 236003                    LDQ     -131072,DU
         3 002673   000115 756000 2                  STQ     OPEN_OPT_REQ
         3 002674   002676 710000 3                  TRA     s:5626

      391     5624    1           ELSE
      392     5625    1              OPEN_OPT_REQ = '0'B;

   5625  3 002675   000115 450000 2                  STZ     OPEN_OPT_REQ

      393     5626    1           FASN = 0;

   5626  3 002676   000114 450000 2                  STZ     FASN

      394     5627    1           FNAME.NAME# = ' ';

   5627  3 002677   040000 100400                    MLR     fill='040'O
         3 002700   000035 000001 xsym               ADSC9   B_VECTNIL+29             cn=0,n=1
         3 002701   000076 200037 2                  ADSC9   FNAME                    cn=1,n=31

      395     5628    1           FPSN.SN#(0) = ' ';

   5628  3 002702   040000 100400                    MLR     fill='040'O
         3 002703   000035 000001 xsym               ADSC9   B_VECTNIL+29             cn=0,n=1
PL6.E3A0      #001=DAU$DCBS File=DAU$DCBS.:E05TSI                                TUE 07/29/97 12:54 Page:80
         3 002704   000111 000006 2                  ADSC9   FPSN+1                   cn=0,n=6

      396     5629    1           FACCT.ACCT# = ' ';

   5629  3 002705   000035 235000 xsym               LDA     B_VECTNIL+29
         3 002706   000035 236000 xsym               LDQ     B_VECTNIL+29
         3 002707   000106 757000 2                  STAQ    FACCT

      397     5630    1           FPT_FID.TEXTFID_=VECTOR(TOP.SUBLK$(0)->SYM.TEXT);

   5630  3 002710   000003 471500                    LDP1    3,,PR0
         3 002711   100004 236100                    LDQ     4,,PR1
         3 002712   000033 772000                    QRL     27
         3 002713   000064 737000                    LLS     52
         3 002714   000140 135007                    SBLA    96,DL
         3 002715   200070 451500                    STP1    NILFCNFLG+1,,AUTO
         3 002716   200070 236100                    LDQ     NILFCNFLG+1,,AUTO
         3 002717   000154 036000 4                  ADLQ    108
         3 002720   000050 757000 2                  STAQ    FPT_FID+2

      398     5631    2           CALL M$FID(FPT_FID) WHENALTRETURN DO;

   5631  3 002721   000046 630400 2                  EPPR0   FPT_FID
         3 002722   420001 713400                    CLIMB   alt,+8193
         3 002723   404400 401760                    pmme    nvectors=10
         3 002724   002726 702000 3                  TSX2    s:5632
         3 002725   002737 710000 3                  TRA     s:5635

      399     5632    2              CALL DAA$ERRMSG(B$ALT.ERR);

   5632  3 002726   000000 470400 xsym               LDP0    B$TCB$
         3 002727   000000 471500                    LDP1    0,,PR0
         3 002730   100102 633500                    EPPR3   66,,PR1
         3 002731   200070 453500                    STP3    NILFCNFLG+1,,AUTO
         3 002732   200070 630500                    EPPR0   NILFCNFLG+1,,AUTO
         3 002733   000017 631400 xsym               EPPR1   B_VECTNIL+15
         3 002734   000000 701000 xent               TSX1    DAA$ERRMSG
PL6.E3A0      #001=DAU$DCBS File=DAU$DCBS.:E05TSI                                TUE 07/29/97 12:54 Page:81
         3 002735   000000 011000                    NOP     0

      400     5633    2              RETURN;

   5633  3 002736   000000 702200 xent               TSX2  ! X66_ARET

      401     5634    2              END;
      402     5635    1           UCNT=0;

   5635  3 002737   200042 450100                    STZ     UCNT,,AUTO

      403     5636    2           DO U=1 TO DA_MUAIS;

   5636  3 002740   000001 235007                    LDA     1,DL
         3 002741   200041 755100                    STA     U,,AUTO
         3 002742   003064 710000 3                  TRA     s:5656+1

      404     5637    3              IF B$USRT$->B$USER.US(U)~=%SS_SNULL THEN DO;

   5637  3 002743   200041 235100                    LDA     U,,AUTO
         3 002744   000004 735000                    ALS     4
         3 002745   000000 470400 xsym               LDP0    B$USRT$
         3 002746   000011 236105                    LDQ     9,AL,PR0
         3 002747   770000 376003                    ANQ     -4096,DU
         3 002750   300000 116003                    CMPQ    98304,DU
         3 002751   003063 600000 3                  TZE     s:5656

      405     5638    3                 CALL DAM$FREEM;

   5638  3 002752   000002 631400 xsym               EPPR1   B_VECTNIL+2
         3 002753   000000 701000 xent               TSX1    DAM$FREEM
         3 002754   000000 011000                    NOP     0

      406     5639    4                 CALL DAM$MAP(B$ROS$,ROS$,-U,7) WHENRETURN DO;

   5639  3 002755   200041 335100                    LCA     U,,AUTO
         3 002756   200070 755100                    STA     NILFCNFLG+1,,AUTO
PL6.E3A0      #001=DAU$DCBS File=DAU$DCBS.:E05TSI                                TUE 07/29/97 12:54 Page:82
         3 002757   000000 236000 4                  LDQ     0
         3 002760   200075 756100                    STQ     NILFCNFLG+6,,AUTO
         3 002761   200070 630500                    EPPR0   NILFCNFLG+1,,AUTO
         3 002762   200074 450500                    STP0    NILFCNFLG+5,,AUTO
         3 002763   200005 631500                    EPPR1   ROS$,,AUTO
         3 002764   200073 451500                    STP1    NILFCNFLG+4,,AUTO
         3 002765   000001 236000 4                  LDQ     1
         3 002766   200072 756100                    STQ     NILFCNFLG+3,,AUTO
         3 002767   200072 630500                    EPPR0   NILFCNFLG+3,,AUTO
         3 002770   000022 631400 xsym               EPPR1   B_VECTNIL+18
         3 002771   000000 701000 xent               TSX1    DAM$MAP
         3 002772   003063 702000 3                  TSX2    s:5656

      407     5640    5                    CALL DAM$MAP(ROS$->B$ROSEG.DCBPTR$,DCBPTR$,-U,7) WHENRETURN DO;

   5640  3 002773   200041 335100                    LCA     U,,AUTO
         3 002774   200070 755100                    STA     NILFCNFLG+1,,AUTO
         3 002775   000000 236000 4                  LDQ     0
         3 002776   200075 756100                    STQ     NILFCNFLG+6,,AUTO
         3 002777   200070 630500                    EPPR0   NILFCNFLG+1,,AUTO
         3 003000   200074 450500                    STP0    NILFCNFLG+5,,AUTO
         3 003001   200013 631500                    EPPR1   DCBPTR$,,AUTO
         3 003002   200073 451500                    STP1    NILFCNFLG+4,,AUTO
         3 003003   200005 236100                    LDQ     ROS$,,AUTO
         3 003004   200072 756100                    STQ     NILFCNFLG+3,,AUTO
         3 003005   200072 630500                    EPPR0   NILFCNFLG+3,,AUTO
         3 003006   000022 631400 xsym               EPPR1   B_VECTNIL+18
         3 003007   000000 701000 xent               TSX1    DAM$MAP
         3 003010   003063 702000 3                  TSX2    s:5656

      408     5641    6                       DO I=%M$MAXNEG# TO ROS$->B$ROSEG.NUMDCBS;

   5641  3 003011   000040 335007                    LCA     32,DL
         3 003012   200006 755100                    STA     I,,AUTO
         3 003013   003056 710000 3                  TRA     s:5652+1

      409     5642    7                          IF DCBPTR$->DCBTAB$(I)~=ADDR(NIL) THEN DO;
PL6.E3A0      #001=DAU$DCBS File=DAU$DCBS.:E05TSI                                TUE 07/29/97 12:54 Page:83

   5642  3 003014   200013 470500                    LDP0    DCBPTR$,,AUTO
         3 003015   200006 720100                    LXL0    I,,AUTO
         3 003016   000000 236110                    LDQ     0,X0,PR0
         3 003017   000001 116000 xsym               CMPQ    B_VECTNIL+1
         3 003020   003055 600000 3                  TZE     s:5652

      410     5643    8                            CALL DAM$MAP(DCBPTR$->DCBTAB$(I),DCB$,-U,7) WHENRETURN DO;

   5643  3 003021   200041 335100                    LCA     U,,AUTO
         3 003022   200070 755100                    STA     NILFCNFLG+1,,AUTO
         3 003023   000000 236000 4                  LDQ     0
         3 003024   200075 756100                    STQ     NILFCNFLG+6,,AUTO
         3 003025   200070 631500                    EPPR1   NILFCNFLG+1,,AUTO
         3 003026   200074 451500                    STP1    NILFCNFLG+5,,AUTO
         3 003027   200014 633500                    EPPR3   DCB$,,AUTO
         3 003030   200073 453500                    STP3    NILFCNFLG+4,,AUTO
         3 003031   200006 236100                    LDQ     I,,AUTO
         3 003032   000022 736000                    QLS     18
         3 003033   200013 036100                    ADLQ    DCBPTR$,,AUTO
         3 003034   200072 756100                    STQ     NILFCNFLG+3,,AUTO
         3 003035   200072 630500                    EPPR0   NILFCNFLG+3,,AUTO
         3 003036   000022 631400 xsym               EPPR1   B_VECTNIL+18
         3 003037   000000 701000 xent               TSX1    DAM$MAP
         3 003040   003055 702000 3                  TSX2    s:5652

      411     5644    8                                IF FNAME.NAME# ~= ' ' THEN

   5644  3 003041   040000 106400                    CMPC    fill='040'O
         3 003042   000076 200037 2                  ADSC9   FNAME                    cn=1,n=31
         3 003043   000035 000001 xsym               ADSC9   B_VECTNIL+29             cn=0,n=1
         3 003044   003050 600000 3                  TZE     s:5647

      412     5645    8                                   CALL TEST_FNAME;

   5645  3 003045   003076 701000 3                  TSX1    TEST_FNAME
         3 003046   000000 011000                    NOP     0
PL6.E3A0      #001=DAU$DCBS File=DAU$DCBS.:E05TSI                                TUE 07/29/97 12:54 Page:84
         3 003047   003055 710000 3                  TRA     s:5652

      413     5646    8                                ELSE
      414     5647    8                                   IF FACCT.ACCT# ~= ' ' THEN

   5647  3 003050   000106 237000 2                  LDAQ    FACCT
         3 003051   000156 117000 4                  CMPAQ   110
         3 003052   003055 600000 3                  TZE     s:5652

      415     5648    8                                      CALL TEST_FACCT;

   5648  3 003053   003251 701000 3                  TSX1    TEST_FACCT
         3 003054   000000 011000                    NOP     0

      416     5649    8                                   ELSE;
      417     5650    8                                END;       /*WHENRETURN*/

      418     5651    7                             END;          /*IF*/

      419     5652    6                          END;             /*DO I*/

   5652  3 003055   200006 054100                    AOS     I,,AUTO
         3 003056   200005 470500                    LDP0    ROS$,,AUTO
         3 003057   000002 236100                    LDQ     2,,PR0
         3 003060   000022 772000                    QRL     18
         3 003061   200006 116100                    CMPQ    I,,AUTO
         3 003062   003014 605000 3                  TPL     s:5642

      420     5653    5                       END;                /*WHENRETURN*/

      421     5654    4                    END;                   /*WHENRETURN*/

      422     5655    3                 END;                      /*IF*/

      423     5656    2              END;                         /*DO U*/

   5656  3 003063   200041 054100                    AOS     U,,AUTO
PL6.E3A0      #001=DAU$DCBS File=DAU$DCBS.:E05TSI                                TUE 07/29/97 12:54 Page:85
         3 003064   200041 236100                    LDQ     U,,AUTO
         3 003065   000000 116000 xsym               CMPQ    DA_MUAIS
         3 003066   002743 604400 3                  TMOZ    s:5637

      424     5657    2           IF UCNT=0 THEN DO;

   5657  3 003067   200042 235100                    LDA     UCNT,,AUTO
         3 003070   003075 601000 3                  TNZ     s:5664

      425     5658    2              CALL DAA$ERRMSG(%E$DA_NO_ONE_HAS_FILE_OPEN);

   5658  3 003071   000160 630400 4                  EPPR0   112
         3 003072   000017 631400 xsym               EPPR1   B_VECTNIL+15
         3 003073   000000 701000 xent               TSX1    DAA$ERRMSG
         3 003074   000000 011000                    NOP     0

      426     5659        /*E*       ERROR:  DAA-E$DA_NO_ONE_HAS_FILE_OPEN
      427     5660                   MESSAGE: No one that I can find.
      428     5661             MESSAGE1: But someone may have opened it and then M$LINKed to another program.
      429     5662        */
      430     5663    2              END;

      431     5664    1           RETURN;

   5664  3 003075   000000 702200 xent               TSX2  ! X66_ARET

      432     5665    1   TEST_FNAME: PROC;

   5665  3 003076   200054 741300       TEST_FNAME   STX1  ! SUBDEV_VECTOR+3,,AUTO

      433     5666    2           IF (F$DCB.ASN=FASN) AND

   5666  3 003077   000114 236000 2                  LDQ     FASN
         3 003100   000033 772000                    QRL     27
         3 003101   200070 756100                    STQ     NILFCNFLG+1,,AUTO
         3 003102   200014 470500                    LDP0    DCB$,,AUTO
         3 003103   000032 236100                    LDQ     26,,PR0
PL6.E3A0      #001=DAU$DCBS File=DAU$DCBS.:E05TSI                                TUE 07/29/97 12:54 Page:86
         3 003104   000011 772000                    QRL     9
         3 003105   000777 376007                    ANQ     511,DL
         3 003106   200070 116100                    CMPQ    NILFCNFLG+1,,AUTO
         3 003107   003247 601000 3                  TNZ     s:5685
         3 003110   040000 106500                    CMPC    fill='040'O
         3 003111   000010 200037                    ADSC9   8,,PR0                   cn=1,n=31
         3 003112   000076 200037 2                  ADSC9   FNAME                    cn=1,n=31
         3 003113   003247 601000 3                  TNZ     s:5685
         3 003114   000020 237100                    LDAQ    16,,PR0
         3 003115   000106 117000 2                  CMPAQ   FACCT
         3 003116   003122 600000 3                  TZE     s:5666+19
         3 003117   000106 237000 2                  LDAQ    FACCT
         3 003120   000156 117000 4                  CMPAQ   110
         3 003121   003247 601000 3                  TNZ     s:5685
         3 003122   040000 106500                    CMPC    fill='040'O
         3 003123   000024 000006                    ADSC9   20,,PR0                  cn=0,n=6
         3 003124   000111 000006 2                  ADSC9   FPSN+1                   cn=0,n=6
         3 003125   003136 600000 3                  TZE     s:5670
         3 003126   040000 106400                    CMPC    fill='040'O
         3 003127   000111 000006 2                  ADSC9   FPSN+1                   cn=0,n=6
         3 003130   000035 000001 xsym               ADSC9   B_VECTNIL+29             cn=0,n=1
         3 003131   003136 600000 3                  TZE     s:5670
         3 003132   040000 106500                    CMPC    fill='040'O
         3 003133   000024 000006                    ADSC9   20,,PR0                  cn=0,n=6
         3 003134   000035 000001 xsym               ADSC9   B_VECTNIL+29             cn=0,n=1
         3 003135   003247 601000 3                  TNZ     s:5685

      434     5667    2             (F$DCB.NAME.C=FNAME.NAME#) AND
      435     5668    2             (F$DCB.ACCT=FACCT.ACCT# OR FACCT.ACCT#=' ') AND
      436     5669    3             (F$DCB.PSN=FPSN.SN#(0) OR FPSN.SN#(0)=' ' OR F$DCB.PSN=' ') THEN DO;

      437     5670    3              CALL DAM$MAP(B$JIT$,JIT$,-U,7);

   5670  3 003136   200041 335100                    LCA     U,,AUTO
         3 003137   200070 755100                    STA     NILFCNFLG+1,,AUTO
         3 003140   000000 236000 4                  LDQ     0
         3 003141   200075 756100                    STQ     NILFCNFLG+6,,AUTO
PL6.E3A0      #001=DAU$DCBS File=DAU$DCBS.:E05TSI                                TUE 07/29/97 12:54 Page:87
         3 003142   200070 631500                    EPPR1   NILFCNFLG+1,,AUTO
         3 003143   200074 451500                    STP1    NILFCNFLG+5,,AUTO
         3 003144   200004 633500                    EPPR3   JIT$,,AUTO
         3 003145   200073 453500                    STP3    NILFCNFLG+4,,AUTO
         3 003146   000004 236000 4                  LDQ     4
         3 003147   200072 756100                    STQ     NILFCNFLG+3,,AUTO
         3 003150   200072 630500                    EPPR0   NILFCNFLG+3,,AUTO
         3 003151   000022 631400 xsym               EPPR1   B_VECTNIL+18
         3 003152   000000 701000 xent               TSX1    DAM$MAP
         3 003153   000000 011000                    NOP     0

      438     5671    3              IF F$DCB.FCD THEN

   5671  3 003154   200014 470500                    LDP0    DCB$,,AUTO
         3 003155   000031 236100                    LDQ     25,,PR0
         3 003156   020000 316007                    CANQ    8192,DL
         3 003157   003163 600000 3                  TZE     s:5674

      439     5672    3                 CLSDV=VECTOR(NIL);

   5672  3 003160   000162 237000 4                  LDAQ    114
         3 003161   200044 757100                    STAQ    CLSDV,,AUTO
         3 003162   003171 710000 3                  TRA     s:5677

      440     5673    4              ELSE DO;

      441     5674    4                 IF OPEN_OPT_REQ THEN RETURN;

   5674  3 003163   000115 234000 2                  SZN     OPEN_OPT_REQ
         3 003164   003167 605000 3                  TPL     s:5675

   5674  3 003165   200054 221300                    LDX1  ! SUBDEV_VECTOR+3,,AUTO
         3 003166   000001 702211                    TSX2  ! 1,X1

      442     5675    4                 CLSDV=VECTOR(CLSD);

   5675  3 003167   000164 237000 4                  LDAQ    116
PL6.E3A0      #001=DAU$DCBS File=DAU$DCBS.:E05TSI                                TUE 07/29/97 12:54 Page:88
         3 003170   200044 757100                    STAQ    CLSDV,,AUTO

      443     5676    4                 END;

      444     5677    3              CALL DAF$WRITE(VECTOR(WHOFMT),

   5677  3 003171   377640 235007                    LDA     130976,DL
         3 003172   200004 236100                    LDQ     JIT$,,AUTO
         3 003173   400000 036007                    ADLQ    -131072,DL
         3 003174   200070 757100                    STAQ    NILFCNFLG+1,,AUTO
         3 003175   000047 235000 4                  LDA     39
         3 003176   200004 236100                    LDQ     JIT$,,AUTO
         3 003177   000001 036003                    ADLQ    1,DU
         3 003200   200072 757100                    STAQ    NILFCNFLG+3,,AUTO
         3 003201   000030 235000 4                  LDA     24
         3 003202   200004 236100                    LDQ     JIT$,,AUTO
         3 003203   000003 036003                    ADLQ    3,DU
         3 003204   200074 757100                    STAQ    NILFCNFLG+5,,AUTO
         3 003205   000140 236100                    LDQ     96,,PR0
         3 003206   000033 772000                    QRL     27
         3 003207   000037 376007                    ANQ     31,DL
         3 003210   000064 737000                    LLS     52
         3 003211   000140 135007                    SBLA    96,DL
         3 003212   200014 236100                    LDQ     DCB$,,AUTO
         3 003213   000010 036000 4                  ADLQ    8
         3 003214   200100 757100                    STAQ    NILFCNFLG+9,,AUTO
         3 003215   200070 237100                    LDAQ    NILFCNFLG+1,,AUTO
         3 003216   200076 757100                    STAQ    NILFCNFLG+7,,AUTO
         3 003217   200072 237100                    LDAQ    NILFCNFLG+3,,AUTO
         3 003220   200102 757100                    STAQ    NILFCNFLG+11,,AUTO
         3 003221   200074 237100                    LDAQ    NILFCNFLG+5,,AUTO
         3 003222   200104 757100                    STAQ    NILFCNFLG+13,,AUTO
         3 003223   200100 237100                    LDAQ    NILFCNFLG+9,,AUTO
         3 003224   200106 757100                    STAQ    NILFCNFLG+15,,AUTO
         3 003225   200044 631500                    EPPR1   CLSDV,,AUTO
         3 003226   200115 451500                    STP1    NILFCNFLG+22,,AUTO
         3 003227   200106 633500                    EPPR3   NILFCNFLG+15,,AUTO
PL6.E3A0      #001=DAU$DCBS File=DAU$DCBS.:E05TSI                                TUE 07/29/97 12:54 Page:89
         3 003230   200114 453500                    STP3    NILFCNFLG+21,,AUTO
         3 003231   200104 634500                    EPPR4   NILFCNFLG+13,,AUTO
         3 003232   200113 454500                    STP4    NILFCNFLG+20,,AUTO
         3 003233   200102 635500                    EPPR5   NILFCNFLG+11,,AUTO
         3 003234   200112 455500                    STP5    NILFCNFLG+19,,AUTO
         3 003235   200076 636500                    EPPR6   NILFCNFLG+7,,AUTO
         3 003236   200111 456500                    STP6    NILFCNFLG+18,,AUTO
         3 003237   000170 236000 4                  LDQ     120
         3 003240   200110 756100                    STQ     NILFCNFLG+17,,AUTO
         3 003241   200110 630500                    EPPR0   NILFCNFLG+17,,AUTO
         3 003242   000000 220000 xsym               LDX0    DAF$WRITE
         3 003243   000024 631400 xsym               EPPR1   B_VECTNIL+20
         3 003244   000000 701010                    TSX1    0,X0
         3 003245   000000 011000                    NOP     0

      445     5678    3                VECTOR(JIT$->B$JIT.SYSID),
      446     5679    3                VECTOR(JIT$->B$JIT.ACCN),
      447     5680    3                VECTOR(JIT$->B$JIT.UNAME),
      448     5681    3                VECTOR(F$DCB.DCBNAME.N),
      449     5682    3                CLSDV);
      450     5683    3              UCNT=UCNT+1;

   5683  3 003246   200042 054100                    AOS     UCNT,,AUTO

      451     5684    3              END;

      452     5685    2   END TEST_FNAME;

   5685  3 003247   200054 221300                    LDX1  ! SUBDEV_VECTOR+3,,AUTO
         3 003250   000001 702211                    TSX2  ! 1,X1

      453     5686    1   TEST_FACCT: PROC;

   5686  3 003251   200054 741300       TEST_FACCT   STX1  ! SUBDEV_VECTOR+3,,AUTO

      454     5687    2           IF (F$DCB.ASN=%FILE# OR F$DCB.ASN=%COMGROUP#) AND

PL6.E3A0      #001=DAU$DCBS File=DAU$DCBS.:E05TSI                                TUE 07/29/97 12:54 Page:90
   5687  3 003252   200014 470500                    LDP0    DCB$,,AUTO
         3 003253   000032 236100                    LDQ     26,,PR0
         3 003254   777000 376007                    ANQ     -512,DL
         3 003255   001000 116007                    CMPQ    512,DL
         3 003256   003261 600000 3                  TZE     s:5687+7
         3 003257   004000 116007                    CMPQ    2048,DL
         3 003260   003411 601000 3                  TNZ     s:5705
         3 003261   000020 237100                    LDAQ    16,,PR0
         3 003262   000106 117000 2                  CMPAQ   FACCT
         3 003263   003411 601000 3                  TNZ     s:5705
         3 003264   040000 106500                    CMPC    fill='040'O
         3 003265   000024 000006                    ADSC9   20,,PR0                  cn=0,n=6
         3 003266   000111 000006 2                  ADSC9   FPSN+1                   cn=0,n=6
         3 003267   003300 600000 3                  TZE     s:5690
         3 003270   040000 106400                    CMPC    fill='040'O
         3 003271   000111 000006 2                  ADSC9   FPSN+1                   cn=0,n=6
         3 003272   000035 000001 xsym               ADSC9   B_VECTNIL+29             cn=0,n=1
         3 003273   003300 600000 3                  TZE     s:5690
         3 003274   040000 106500                    CMPC    fill='040'O
         3 003275   000024 000006                    ADSC9   20,,PR0                  cn=0,n=6
         3 003276   000035 000001 xsym               ADSC9   B_VECTNIL+29             cn=0,n=1
         3 003277   003411 601000 3                  TNZ     s:5705

      455     5688    2             (F$DCB.ACCT=FACCT.ACCT# ) AND
      456     5689    3             (F$DCB.PSN=FPSN.SN#(0) OR FPSN.SN#(0)=' ' OR F$DCB.PSN=' ') THEN DO;

      457     5690    3              CALL DAM$MAP(B$JIT$,JIT$,-U,7);

   5690  3 003300   200041 335100                    LCA     U,,AUTO
         3 003301   200070 755100                    STA     NILFCNFLG+1,,AUTO
         3 003302   000000 236000 4                  LDQ     0
         3 003303   200075 756100                    STQ     NILFCNFLG+6,,AUTO
         3 003304   200070 631500                    EPPR1   NILFCNFLG+1,,AUTO
         3 003305   200074 451500                    STP1    NILFCNFLG+5,,AUTO
         3 003306   200004 633500                    EPPR3   JIT$,,AUTO
         3 003307   200073 453500                    STP3    NILFCNFLG+4,,AUTO
         3 003310   000004 236000 4                  LDQ     4
PL6.E3A0      #001=DAU$DCBS File=DAU$DCBS.:E05TSI                                TUE 07/29/97 12:54 Page:91
         3 003311   200072 756100                    STQ     NILFCNFLG+3,,AUTO
         3 003312   200072 630500                    EPPR0   NILFCNFLG+3,,AUTO
         3 003313   000022 631400 xsym               EPPR1   B_VECTNIL+18
         3 003314   000000 701000 xent               TSX1    DAM$MAP
         3 003315   000000 011000                    NOP     0

      458     5691    3              IF F$DCB.FCD THEN

   5691  3 003316   200014 470500                    LDP0    DCB$,,AUTO
         3 003317   000031 236100                    LDQ     25,,PR0
         3 003320   020000 316007                    CANQ    8192,DL
         3 003321   003325 600000 3                  TZE     s:5694

      459     5692    3                 CLSDV=VECTOR(NIL);

   5692  3 003322   000162 237000 4                  LDAQ    114
         3 003323   200044 757100                    STAQ    CLSDV,,AUTO
         3 003324   003333 710000 3                  TRA     s:5697

      460     5693    4              ELSE DO;

      461     5694    4                 IF OPEN_OPT_REQ THEN RETURN;

   5694  3 003325   000115 234000 2                  SZN     OPEN_OPT_REQ
         3 003326   003331 605000 3                  TPL     s:5695

   5694  3 003327   200054 221300                    LDX1  ! SUBDEV_VECTOR+3,,AUTO
         3 003330   000001 702211                    TSX2  ! 1,X1

      462     5695    4                 CLSDV=VECTOR(CLSD);

   5695  3 003331   000164 237000 4                  LDAQ    116
         3 003332   200044 757100                    STAQ    CLSDV,,AUTO

      463     5696    4                 END;

      464     5697    3              CALL DAF$WRITE(VECTOR(WHOFMT),
PL6.E3A0      #001=DAU$DCBS File=DAU$DCBS.:E05TSI                                TUE 07/29/97 12:54 Page:92

   5697  3 003333   377640 235007                    LDA     130976,DL
         3 003334   200004 236100                    LDQ     JIT$,,AUTO
         3 003335   400000 036007                    ADLQ    -131072,DL
         3 003336   200070 757100                    STAQ    NILFCNFLG+1,,AUTO
         3 003337   000047 235000 4                  LDA     39
         3 003340   200004 236100                    LDQ     JIT$,,AUTO
         3 003341   000001 036003                    ADLQ    1,DU
         3 003342   200072 757100                    STAQ    NILFCNFLG+3,,AUTO
         3 003343   000030 235000 4                  LDA     24
         3 003344   200004 236100                    LDQ     JIT$,,AUTO
         3 003345   000003 036003                    ADLQ    3,DU
         3 003346   200074 757100                    STAQ    NILFCNFLG+5,,AUTO
         3 003347   000140 236100                    LDQ     96,,PR0
         3 003350   000033 772000                    QRL     27
         3 003351   000037 376007                    ANQ     31,DL
         3 003352   000064 737000                    LLS     52
         3 003353   000140 135007                    SBLA    96,DL
         3 003354   200014 236100                    LDQ     DCB$,,AUTO
         3 003355   000010 036000 4                  ADLQ    8
         3 003356   200100 757100                    STAQ    NILFCNFLG+9,,AUTO
         3 003357   200070 237100                    LDAQ    NILFCNFLG+1,,AUTO
         3 003360   200076 757100                    STAQ    NILFCNFLG+7,,AUTO
         3 003361   200072 237100                    LDAQ    NILFCNFLG+3,,AUTO
         3 003362   200102 757100                    STAQ    NILFCNFLG+11,,AUTO
         3 003363   200074 237100                    LDAQ    NILFCNFLG+5,,AUTO
         3 003364   200104 757100                    STAQ    NILFCNFLG+13,,AUTO
         3 003365   200100 237100                    LDAQ    NILFCNFLG+9,,AUTO
         3 003366   200106 757100                    STAQ    NILFCNFLG+15,,AUTO
         3 003367   200044 631500                    EPPR1   CLSDV,,AUTO
         3 003370   200115 451500                    STP1    NILFCNFLG+22,,AUTO
         3 003371   200106 633500                    EPPR3   NILFCNFLG+15,,AUTO
         3 003372   200114 453500                    STP3    NILFCNFLG+21,,AUTO
         3 003373   200104 634500                    EPPR4   NILFCNFLG+13,,AUTO
         3 003374   200113 454500                    STP4    NILFCNFLG+20,,AUTO
         3 003375   200102 635500                    EPPR5   NILFCNFLG+11,,AUTO
         3 003376   200112 455500                    STP5    NILFCNFLG+19,,AUTO
PL6.E3A0      #001=DAU$DCBS File=DAU$DCBS.:E05TSI                                TUE 07/29/97 12:54 Page:93
         3 003377   200076 636500                    EPPR6   NILFCNFLG+7,,AUTO
         3 003400   200111 456500                    STP6    NILFCNFLG+18,,AUTO
         3 003401   000170 236000 4                  LDQ     120
         3 003402   200110 756100                    STQ     NILFCNFLG+17,,AUTO
         3 003403   200110 630500                    EPPR0   NILFCNFLG+17,,AUTO
         3 003404   000000 220000 xsym               LDX0    DAF$WRITE
         3 003405   000024 631400 xsym               EPPR1   B_VECTNIL+20
         3 003406   000000 701010                    TSX1    0,X0
         3 003407   000000 011000                    NOP     0

      465     5698    3                VECTOR(JIT$->B$JIT.SYSID),
      466     5699    3                VECTOR(JIT$->B$JIT.ACCN),
      467     5700    3                VECTOR(JIT$->B$JIT.UNAME),
      468     5701    3                VECTOR(F$DCB.DCBNAME.N),
      469     5702    3                CLSDV);
      470     5703    3              UCNT=UCNT+1;

   5703  3 003410   200042 054100                    AOS     UCNT,,AUTO

      471     5704    3              END;

      472     5705    2   END TEST_FACCT;

   5705  3 003411   200054 221300                    LDX1  ! SUBDEV_VECTOR+3,,AUTO
         3 003412   000001 702211                    TSX2  ! 1,X1
      473     5706    1   END DAU$DCBS;

PL6.E3A0      #001=DAU$DCBS File=DAU$DCBS.:E05TSI                                TUE 07/29/97 12:54 Page:94
--  Include file information  --

   DA_MAP_R.:E05TOU  cannot be made into a system file and is referenced.
   DA_ANLZ_R.:E05TOU  cannot be made into a system file and is referenced.
   DA_TEXTC_C.:E05TOU  is referenced.
   DA_FORMAT_C.:E05TOU  is referenced.
   CP_6.:E05TOU  cannot be made into a system file and is referenced.
   CP_6_SUBS.:E05TOU  is referenced.
   F$DCB.:E05TOU  cannot be made into a system file and is referenced.
   B$ROSEG.:E05TOU  cannot be made into a system file and is referenced.
   SS_SCHED_C.:E05TOU  is referenced.
   B$USER.:E05TOU  cannot be made into a system file and is referenced.
   DA_PERR_C.:E05TOU  is referenced.
   B$JIT.:E05TOU  cannot be made into a system file and is referenced.
   XU_MACRO_C.:E05TOU  is referenced.
   B$JIT_C.:E05TOU  was found in the system file and is referenced.
   CP_6_C.:E05TOU  was found in the system file and is referenced.
      No diagnostics issued in procedure DAU$DCBS.
PL6.E3A0      #001=DAU$DCBS File=DAU$DCBS.:E05TSI                                TUE 07/29/97 12:54 Page:95

 **** Variables and constants ****

  ****  Section 001 RoData DAU$DCBS

  ****  Scalars and arrays  ****
OctLoc.c.b A Datatyp(siz) R M Lvl/name                 OctLoc.c.b A Datatyp(siz) R M Lvl/name

    66-0-0/c CHAR(3)     r     1 ASNTAB(0:9)              255-0-0/c CHAR(13)    r     1 CCBUFFMT
   523-0-0/c CHAR(8)     r     1 CLSD                       0-0-0/c CHAR(107)   r     1 DCBFMT1
    33-0-0/c CHAR(12)    r     1 DCBFMT2                   36-0-0/c CHAR(96)    r     1 DCBFMT3
   142-0-0/w STRC(144)   r     1 DCBHD01                  136-0-0/w STRC(144)   r     1 DCBHDR
   134-0-0/c CHAR(3)     r     1 FCDTAB(0:1)              122-0-0/c CHAR(2)     r     1 FUNTAB(0:3)
   124-0-0/c CHAR(4)     r     1 GTYPTAB(0:7)
   146-0-0/c CHAR(23)    r     1 JDCBFMT                  471-0-0/c CHAR(83)    r     1 JIOSFMT
   164-0-0/c CHAR(47)    r     1 JITFMT1                  261-0-0/c CHAR(38)    r     1 JITFMT2
   313-0-0/c CHAR(61)    r     1 JMMFMT                   352-0-0/c CHAR(57)    r     1 JMMLFMT
   424-0-0/c CHAR(84)    r     1 JMMMFMT                  371-0-0/c CHAR(108)   r     1 JMMPCFMT
   333-0-0/c CHAR(59)    r     1 JPRIFMT                  451-0-0/c CHAR(63)    r     1 JRNSTFMT
   273-0-0/c CHAR(61)    r     1 JTIMEFMT                 154-0-0/c CHAR(6)     r     1 MODE(0:4)
    76-0-0/c CHAR(3)     r     1 ORGTAB(0:25)             200-0-0/c CHAR(178)   r     1 PRIVFMT
   516-0-0/c CHAR(19)    r     1 WHOFMT

  ****  Section 002  Data  DAU$DCBS

  ****  Scalars and arrays  ****
OctLoc.c.b A Datatyp(siz) R M Lvl/name                 OctLoc.c.b A Datatyp(siz) R M Lvl/name

     0-0-0/c STRC(612)   r     1 DCBTX00                   21-0-0/c STRC(711)   r     1 DCBTX01
   106-0-0/c STRC(72)    r     1 FACCT                    114-0-0/c UBIN(9)     r     1 FASN
    76-0-0/c STRC(288)   r     1 FNAME                    110-0-0/d STRC(90)    r     1 FPSN
    46-0-0/d STRC(864)   r     1 FPT_FID                  116-0-0/c CHAR(4)     r     1 FRES
   115-0-0/b BIT         r     1 OPEN_OPT_REQ

  ****  Auto variables  ****

  ****  Scalars and arrays  ****
OctLoc.c.b A Datatyp(siz) R M Lvl/name                 OctLoc.c.b A Datatyp(siz) R M Lvl/name
PL6.E3A0      #001=DAU$DCBS File=DAU$DCBS.:E05TSI                                TUE 07/29/97 12:54 Page:96

    55-0-0/w PTR         r     1 @DCB#                      3-0-0/w PTR         r     1 @TOP
    60-0-0/w SBIN        r     1 BADDR                     62-0-0/b STRC(9)     r     1 BFR
    61-0-0/w SBIN        r     1 BUFX                      63-0-0/w UBIN        r     1 CFUFLG
    44-0-0/d VECT        r     1 CLSDV                     11-0-0/w SBIN        r     1 CNT0
    12-0-0/w SBIN        r     1 CNT1                       7-0-0/w SBIN        r     1 D#
    *0-0-0/w SBIN        r     1 DCB#                      14-0-0/w PTR         r     1 DCB$
    13-0-0/w PTR         r     1 DCBPTR$                   66-0-0/w UBIN        r     1 FCNFLG
    15-0-0/c CHAR(80)    r     1 FID                       65-0-0/b BIT         r     1 FIDFLG
     6-0-0/w SBIN        r     1 I                         57-0-0/w UBIN        r     1 I
     4-0-0/w PTR         r     1 JIT$                      64-0-0/w UBIN        r     1 NILCFUFLG
    67-0-0/w UBIN        r     1 NILFCNFLG                 10-0-0/w SBIN        r     1 OFFSET
    56-0-0/w SBIN        r     1 PSNL                       5-0-0/w PTR         r     1 ROS$
    46-0-0/w STRC(108)   r     1 SUBDEV_ARG                51-0-0/b BIT (72)    r     1 SUBDEV_VECTOR
    *0-0-0/w STRC(144)   r     1 TOP                       41-0-0/w SBIN        r     1 U
    42-0-0/w SBIN        r     1 UCNT

  ****  SYMREF variables  ****

  ****  Scalars and arrays  ****
OctLoc.c.b A Datatyp(siz) R M Lvl/name                 OctLoc.c.b A Datatyp(siz) R M Lvl/name

     0-0-0/w PTR         r     1 B$JIT$                     0-0-0/w PTR         r     1 B$ROS$
     0-0-0/w PTR         r     1 B$TCB$                     0-0-0/w PTR         r     1 B$USRT$
     0-0-0/w EPTR        r     1 DAF$WRITE                  0-0-0/w SBIN        r     1 DA_CUN
     0-0-0/w STRC        r     1 DA_MAPERR                  0-0-0/w SBIN        r     1 DA_MUAIS

  ****  BASED and DCB variables  ****

  ****  Scalars and arrays  ****
OctLoc.c.b A Datatyp(siz) R M Lvl/name                 OctLoc.c.b A Datatyp(siz) R M Lvl/name

     0-0-0/w STRC(2448)  r     1 B$ALT                      0-0-0/d STRC(8856)  r     1 B$JIT
     0-0-0/d STRC(3024)  r     1 B$ROSEG                    0-0-0/w STRC(144)   r     1 B$TCB
     0-0-0/w STRC(576)   r     1 B$USER(0:0)
     0-0-0/w PTR         r     1 DCBTAB$(0:0)
     0-0-0/d ASTR(3528)  r     1 F$DCB                      0-0-0/w STRC(144)   r     1 OUT
PL6.E3A0      #001=DAU$DCBS File=DAU$DCBS.:E05TSI                                TUE 07/29/97 12:54 Page:97
     0-0-0/w ASTR(153)   r     1 SYM


   Procedure DAU$DCBS requires 1803 words for executable code.
   Procedure DAU$DCBS requires 176 words of local(AUTO) storage.

    No errors detected in file DAU$DCBS.:E05TSI    .
PL6.E3A0      #001=DAU$DCBS File=DAU$DCBS.:E05TSI                                TUE 07/29/97 12:54 Page:98
          *** CROSS REFERENCE LISTING ***
**     DENOTES     IDENTIFIER DEFINITION
<<                 IDENTIFIER'S VALUE SET
>>                 IDENTIFIER'S VALUE USED
<>                 IDENTIFIER SET AND/OR USED
--                 IDENTIFIER REFERENCED
PL6.E3A0      #001=DAU$DCBS File=DAU$DCBS.:E05TSI                                TUE 07/29/97 12:54 Page:99
          MINI XREF LISTING

ASNTAB
      5012**DCL      5495--CALL     5495--CALL
B$ALT.CODE
      4993**DCL      4993--REDEF    4994--REDEF    4994--REDEF
B$ALT.ERR
      4994**DCL      5632<>CALL
B$ALT.ERR.ERR#
      4995**DCL      4995--REDEF
B$ALT.EVID
      4994**DCL      4994--REDEF    4994--REDEF
B$DO.ECCINFO
      3676**DCL      3677--REDEF
B$JIT.ACCESS.PACKS
      3453**DCL      5615--CALL
B$JIT.ACCESS.TAPES
      3453**DCL      5615--CALL
B$JIT.ACCN
      3185**DCL      5677--CALL     5697--CALL
B$JIT.CALCNT
      3359**DCL      5541--CALL
B$JIT.CCBUF
      3273**DCL      5534--CALL
B$JIT.CPFLAGS1
      3274**DCL      5536--CALL
B$JIT.CPFLAGS1.SLEAZE
      3279**DCL      3279--REDEF
B$JIT.CURRCORE
      3347**DCL      5551--CALL
B$JIT.DCB$
      3353**DCL      5382>>ASSIGN
B$JIT.DDLL
      3343**DCL      5563--CALL
PL6.E3A0      #001=DAU$DCBS File=DAU$DCBS.:E05TSI                                TUE 07/29/97 12:54 Page:100
B$JIT.DDUL
      3343**DCL      5563--CALL
B$JIT.DEFPRI
      3333**DCL      5557--CALL
B$JIT.DLL
      3343**DCL      5563--CALL
B$JIT.DUL
      3343**DCL      5563--CALL
B$JIT.ENQS
      3458**DCL      5615--CALL
B$JIT.ERR
      3185**DCL      5536--CALL
B$JIT.ERR.MID
      3186**DCL      3186--REDEF
B$JIT.EUP
      3345**DCL      5582--CALL
B$JIT.FACCN
      3185**DCL      5530--CALL
B$JIT.FBUC
      3345**DCL      5582--CALL
B$JIT.FBUL
      3345**DCL      5582--CALL
B$JIT.FPSN
      3266**DCL      5530--CALL
B$JIT.FRS
      3381**DCL      5590--CALL
B$JIT.INTER
      3452**DCL      5557--CALL
B$JIT.JPEAK
      3347**DCL      5551--CALL
B$JIT.JRESPEAK
      3347**DCL      3348--REDEF
B$JIT.JUNK
      3385**DCL      5590--CALL
B$JIT.JUNK2
      3439**DCL      5590--CALL
PL6.E3A0      #001=DAU$DCBS File=DAU$DCBS.:E05TSI                                TUE 07/29/97 12:54 Page:101
B$JIT.LNKCNT
      3385**DCL      5551--CALL
B$JIT.LOGONTIME
      3322**DCL      5541--CALL
B$JIT.MAXCORE
      3346**DCL      5551--CALL
B$JIT.MAXPRI
      3333**DCL      5557--CALL
B$JIT.MODE
      3180**DCL      5530>>CALL
B$JIT.MRT
      3359**DCL      5541--CALL
B$JIT.ORIGINATOR_PORT.FROM_CR
      3456**DCL      3456--REDEF    3457--REDEF
B$JIT.PCADS
      3349**DCL      5576--CALL
B$JIT.PCC
      3344**DCL      5576--CALL
B$JIT.PCD
      3344**DCL      5576--CALL
B$JIT.PCDD
      3345**DCL      5576--CALL
B$JIT.PCDDS
      3348**DCL      5576--CALL
B$JIT.PCDS
      3344**DCL      5576--CALL
B$JIT.PCL
      3349**DCL      5576--CALL
B$JIT.PCP
      3344**DCL      5576--CALL
B$JIT.PCROS
      3344**DCL      5576--CALL
B$JIT.PCV
      3349**DCL      5576--CALL
B$JIT.PLL
      3343**DCL      5563--CALL
PL6.E3A0      #001=DAU$DCBS File=DAU$DCBS.:E05TSI                                TUE 07/29/97 12:54 Page:102
B$JIT.PNR
      3360**DCL      3360--REDEF
B$JIT.PPC
      3346**DCL      5576--CALL
B$JIT.PPRIV
      3241**DCL      5531--CALL
B$JIT.PRIOB
      3358**DCL      5615--CALL
B$JIT.PRIV
      3186**DCL      5531--CALL
B$JIT.PUL
      3343**DCL      5563--CALL
B$JIT.QUAN
      3358**DCL      5615--CALL
B$JIT.RNST
      3364**DCL      5590--CALL
B$JIT.RUNFLAGS
      3381**DCL      5590--CALL
B$JIT.SPEAK
      3347**DCL      5551--CALL
B$JIT.STEPCC
      3412**DCL      5557--CALL
B$JIT.STEPS
      3406**DCL      5557--CALL
B$JIT.SVLDTF
      3426**DCL      5582--CALL
B$JIT.SYSID
      3185**DCL      5677--CALL     5697--CALL
B$JIT.TDP
      3345**DCL      5582--CALL
B$JIT.TPEXT
      3359**DCL      5540>>ASSIGN
B$JIT.TPSVT
      3359**DCL      5540>>ASSIGN
B$JIT.TSLINE
      3454**DCL      3455--REDEF
PL6.E3A0      #001=DAU$DCBS File=DAU$DCBS.:E05TSI                                TUE 07/29/97 12:54 Page:103
B$JIT.TSLINE.FEX
      3454**DCL      5615--CALL
B$JIT.TSLINE.LEV
      3455**DCL      5595>>IF       5600>>IF
B$JIT.TSLINE.PORT
      3454**DCL      5615--CALL
B$JIT.TSLINE.SUBDEVICE
      3455**DCL      5597>>ASSIGN   5602>>ASSIGN
B$JIT.TSLINE.SUBSUBDEVICE
      3455**DCL      5603>>ASSIGN
B$JIT.TUEXT
      3359**DCL      5540>>ASSIGN
B$JIT.TUSVT
      3359**DCL      5540>>ASSIGN
B$JIT.UNAME
      3185**DCL      5677--CALL     5697--CALL
B$JIT.USER
      3185**DCL      5524>>ASSIGN
B$JIT.USRERR
      3321**DCL      5536--CALL
B$JIT.WOO
      3185**DCL      5530--CALL
B$JIT.XCONF
      3406**DCL      5582--CALL
B$JIT.XLIMFLG
      3416**DCL      5582--CALL
B$JIT$
      3169**DCL      3180--IMP-PTR  5381<>CALL     5523<>CALL     5670<>CALL     5690<>CALL
B$ROS$
      3168**DCL      5353<>CALL     5367>>CALL     5373>>CALL     5639<>CALL
B$ROSEG.CR01DCB
      4015**DCL      5372>>IF       5373>>CALL
B$ROSEG.DCBPTR$
      3986**DCL      5354<>CALL     5640<>CALL
B$ROSEG.NUMDCBS
      3988**DCL      5356>>DOINDEX  5641>>DOINDEX
PL6.E3A0      #001=DAU$DCBS File=DAU$DCBS.:E05TSI                                TUE 07/29/97 12:54 Page:104
B$ROSEG.STREAMID.FLG
      3998**DCL      5366>>IF
B$ROSEG.STREAMID.IDENT
      4005**DCL      5367>>CALL
B$TCB.ALT$
      4989**DCL      5632>>CALL
B$TCB$
      4987**DCL      5632>>CALL
B$U.MISC
      3655**DCL      3656--REDEF
B$USER.MISC
      3731**DCL      3732--REDEF
B$USER.US
      3718**DCL      5637>>IF
B$USRT$
      3741**DCL      5637>>IF
BADDR IN PROCEDURE DIDCB
      5402**DCL      5508<<ASSIGN   5515--CALL
BFR IN PROCEDURE DIDCB
      5404**DCL      5515--CALL
BFR.BUFUP IN PROCEDURE DIDCB
      5405**DCL      5503<<ASSIGN
BFR.CHNG IN PROCEDURE DIDCB
      5407**DCL      5505<<ASSIGN
BFR.CVM IN PROCEDURE DIDCB
      5408**DCL      5506<<ASSIGN
BFR.SCRUB IN PROCEDURE DIDCB
      5406**DCL      5504<<ASSIGN
BUFX IN PROCEDURE DIDCB
      5403**DCL      5507<<ASSIGN   5508>>ASSIGN   5515--CALL
CCBUFFMT
      5164**DCL      5534--CALL
CFUFLG IN PROCEDURE DIDCB
      5410**DCL      5463<<ASSIGN   5467<<ASSIGN   5495--CALL
CLSD
      5340**DCL      5675--ASSIGN   5695--ASSIGN
PL6.E3A0      #001=DAU$DCBS File=DAU$DCBS.:E05TSI                                TUE 07/29/97 12:54 Page:105
CLSDV
      5341**DCL      5672<<ASSIGN   5675<<ASSIGN   5677<>CALL     5692<<ASSIGN   5695<<ASSIGN   5697<>CALL
CNT0
      5000**DCL      5469<<ASSIGN   5495--CALL     5524<<ASSIGN   5530--CALL     5540<<ASSIGN   5541--CALL
CNT1
      5001**DCL      5470<<ASSIGN   5495--CALL
D#
      4985**DCL      5350<>CALL     5352<<ASSIGN   5416>>IF       5416>>IF
DAA$ERRMSG
      3163**DCL-ENT  5632--CALL     5658--CALL
DAA$VALUE
      3164**DCL-ENT  5350--CALL
DAF$ADDHDR
      3165**DCL-ENT  5355--CALL     5390--CALL     5393--CALL
DAF$WRITE
      3162**DCL      5386>>CALL     5495>>CALL     5499>>CALL     5515>>CALL     5530>>CALL     5531>>CALL
      5534>>CALL     5536>>CALL     5541>>CALL     5551>>CALL     5557>>CALL     5563>>CALL     5576>>CALL
      5582>>CALL     5590>>CALL     5615>>CALL     5677>>CALL     5697>>CALL
DAM$FREEM
      3166**DCL-ENT  5638--CALL
DAM$MAP
      3167**DCL-ENT  5353--CALL     5354--CALL     5358--CALL     5367--CALL     5373--CALL     5381--CALL
      5384--CALL     5523--CALL     5639--CALL     5640--CALL     5643--CALL     5670--CALL     5690--CALL
DA_CUN
      5120**DCL      5353<>CALL     5354<>CALL     5358<>CALL     5367<>CALL     5373<>CALL     5381<>CALL
      5384<>CALL     5523<>CALL
DA_MAPERR
      5149**DCL      5389<<ASSIGN
DA_MAPSEG.P
      5150**DCL      5151--REDEF
DA_MUAIS
      5139**DCL      5636>>DOINDEX
DA_SDASN.DESC.TYPE0
      5135**DCL      5135--REDEF
DA_TIGRSEG.P
      5151**DCL      5152--REDEF
PL6.E3A0      #001=DAU$DCBS File=DAU$DCBS.:E05TSI                                TUE 07/29/97 12:54 Page:106
DCB# IN PROCEDURE DIDCB
      5398**DCL      5396--PROC     5416>>IF       5495--CALL
DCB$
      5156**DCL      5358<>CALL     5367<>CALL     5373<>CALL     5375>>IF       5375>>IF       5382<<ASSIGN
      5383>>IF       5384<>CALL     5384<>CALL     5385>>ASSIGN   5386>>CALL     5386>>CALL     5418>>DOCASE
      5420>>IF       5421>>CALLBLT  5421>>CALLBLT  5421>>CALLBLT  5426>>CALLBLT  5427>>CALLBLT  5427>>CALLBLT
      5427>>CALLBLT  5427>>CALLBLT  5436>>CALLBLT  5437>>CALLBLT  5437>>CALLBLT  5437>>CALLBLT  5437>>CALLBLT
      5445>>IF       5446>>CALLBLT  5446>>CALLBLT  5451>>CALLBLT  5451>>CALLBLT  5451>>CALLBLT  5456>>CALLBLT
      5456>>CALLBLT  5460>>ASSIGN   5461>>IF       5469>>ASSIGN   5470>>ASSIGN   5471>>IF       5495>>CALL
      5495>>CALL     5495>>CALL     5495>>CALL     5495>>CALL     5495>>CALL     5495>>CALL     5495>>CALL
      5495>>CALL     5495>>CALL     5495>>CALL     5495>>CALL     5502>>IF       5503>>ASSIGN   5504>>ASSIGN
      5505>>ASSIGN   5506>>ASSIGN   5507>>ASSIGN   5515>>CALL     5515>>CALL     5515>>CALL     5643<>CALL
      5666>>IF       5666>>IF       5666>>IF       5666>>IF       5666>>IF       5671>>IF       5677>>CALL
      5677>>CALL     5687>>IF       5687>>IF       5687>>IF       5687>>IF       5687>>IF       5691>>IF
      5697>>CALL     5697>>CALL
DCBFMT1
      5004**DCL      5495--CALL
DCBFMT2
      5006**DCL      5499--CALL
DCBFMT3
      5008**DCL      5515--CALL
DCBHD01
      5087**DCL      5059--DCLINIT
DCBHDR
      5046**DCL      5355<>CALL
DCBPTR$
      5002**DCL      5354<>CALL     5357>>IF       5358>>CALL     5640<>CALL     5642>>IF       5643>>CALL
DCBTAB$
      4983**DCL      5357>>IF       5358<>CALL     5642>>IF       5643<>CALL
DCBTX00
      5062**DCL      5052--DCLINIT
DCBTX01
      5105**DCL      5095--DCLINIT
DIDCB
      5396**PROC     5359--CALL     5369--CALL     5376--CALL
F$DCB.ACCT
PL6.E3A0      #001=DAU$DCBS File=DAU$DCBS.:E05TSI                                TUE 07/29/97 12:54 Page:107
      4049**DCL      5421>>CALLBLT  5427>>CALLBLT  5437>>CALLBLT  5451>>CALLBLT  5666>>IF       5687>>IF
F$DCB.ACTPOS
      4064**DCL      4064--REDEF
F$DCB.ARS
      4039**DCL      4039--REDEF
F$DCB.ASN
      4054**DCL      5418>>DOCASE   5495>>CALL     5666>>IF       5687>>IF       5687>>IF
F$DCB.ATTR
      4057**DCL      4058--REDEF
F$DCB.BFR.BUFUP
      4083**DCL      5503>>ASSIGN
F$DCB.BFR.BUFX
      4084**DCL      5502>>IF       5507>>ASSIGN
F$DCB.BFR.CHNG
      4083**DCL      5505>>ASSIGN
F$DCB.BFR.CVM
      4084**DCL      5506>>ASSIGN
F$DCB.BFR.DA
      4084**DCL      5515--CALL
F$DCB.BFR.SCRUB
      4083**DCL      5504>>ASSIGN
F$DCB.BFR1.CX
      4085**DCL      5515--CALL
F$DCB.BFR1.SIZ
      4084**DCL      5515--CALL
F$DCB.BORROW
      4072**DCL      4072--REDEF    4072--REDEF    4072--REDEF
F$DCB.CFU$
      4073**DCL      5461>>IF       5495--CALL
F$DCB.DCBNAME.L
      4086**DCL      4086--IMP-SIZ  5375>>IF       5386>>CALL     5495>>CALL     5677>>CALL     5697>>CALL
F$DCB.DCBNAME.N
      4086**DCL      5375>>IF       5386--CALL     5495--CALL     5677--CALL     5697--CALL
F$DCB.EOMCHAR
      4043**DCL      4043--REDEF
F$DCB.FCD
PL6.E3A0      #001=DAU$DCBS File=DAU$DCBS.:E05TSI                                TUE 07/29/97 12:54 Page:108
      4052**DCL      5495>>CALL     5671>>IF       5691>>IF
F$DCB.FCN
      4076**DCL      5471>>IF
F$DCB.FCN.CNT
      4076**DCL      5469>>ASSIGN   5470>>ASSIGN
F$DCB.FLDID
      4067**DCL      4067--REDEF
F$DCB.FORM$
      4061**DCL      4061--REDEF
F$DCB.FSECT
      4077**DCL      4077--REDEF
F$DCB.FSN
      4054**DCL      4054--REDEF    4054--REDEF    4055--REDEF
F$DCB.FUN
      4053**DCL      5495>>CALL
F$DCB.GTYP
      4068**DCL      5495>>CALL
F$DCB.HEADER$
      4060**DCL      4060--REDEF
F$DCB.IASN
      4080**DCL      5495>>CALL
F$DCB.IORG
      4075**DCL      5495>>CALL
F$DCB.IXTNSIZE
      4058**DCL      4058--REDEF
F$DCB.LASTSTA$
      4048**DCL      4048--REDEF
F$DCB.LVL
      4073**DCL      4073--REDEF
F$DCB.NAME.C
      4048**DCL      4048--REDEF    5421>>CALLBLT  5427>>CALLBLT  5437>>CALLBLT  5451>>CALLBLT  5456>>CALLBLT
      5666>>IF
F$DCB.NAME.L
      4048**DCL      5421>>CALLBLT  5427>>CALLBLT  5437>>CALLBLT  5451>>CALLBLT  5456>>CALLBLT
F$DCB.NOEOF
      4069**DCL      4069--REDEF
PL6.E3A0      #001=DAU$DCBS File=DAU$DCBS.:E05TSI                                TUE 07/29/97 12:54 Page:109
F$DCB.NRECS
      4059**DCL      4059--REDEF
F$DCB.NRECX
      4078**DCL      4078--REDEF
F$DCB.OHDR
      4070**DCL      4070--REDEF
F$DCB.ORG
      4053**DCL      4053--REDEF    5495>>CALL
F$DCB.PRECNO
      4076**DCL      4076--REDEF
F$DCB.PSN
      4049**DCL      5420>>IF       5426>>CALLBLT  5427>>CALLBLT  5436>>CALLBLT  5437>>CALLBLT  5445>>IF
      5446>>CALLBLT  5666>>IF       5666>>IF       5687>>IF       5687>>IF
F$DCB.RCSZ
      4081**DCL      4081--REDEF
F$DCB.RES
      4049**DCL      4049--REDEF    5446>>CALLBLT  5495--CALL
F$DCB.SETX
      4061**DCL      4061--REDEF    5495--CALL
F$DCB.TAB$
      4060**DCL      4061--REDEF
F$DCB.TDA
      4075**DCL      4075--REDEF
F$DCB.WSN
      4050**DCL      4050--REDEF
FACCT
      5236**DCL      5187--DCLINIT
FACCT.ACCT#
      5236**DCL      5629<<ASSIGN   5647>>IF       5666>>IF       5666>>IF       5687>>IF
FASN
      5251**DCL      5189--DCLINIT  5626<<ASSIGN   5666>>IF
FCDTAB
      5022**DCL      5495--CALL
FCNFLG IN PROCEDURE DIDCB
      5413**DCL      5472<<ASSIGN   5476<<ASSIGN   5495--CALL
FID
PL6.E3A0      #001=DAU$DCBS File=DAU$DCBS.:E05TSI                                TUE 07/29/97 12:54 Page:110
      5157**DCL      5421<<CALLBLT  5427<<CALLBLT  5437<<CALLBLT  5446<<CALLBLT  5451<<CALLBLT  5456<<CALLBLT
      5499--CALL
FIDFLG IN PROCEDURE DIDCB
      5412**DCL      5417<<ASSIGN   5445<<ASSIGN   5458<<ASSIGN   5498>>IF
FNAME
      5223**DCL      5187--DCLINIT
FNAME.NAME#
      5223**DCL      5627<<ASSIGN   5644>>IF       5666>>IF
FPSN
      5249**DCL      5188--DCLINIT
FPSN.SN#
      5249**DCL      5628<<ASSIGN   5666>>IF       5666>>IF       5687>>IF       5687>>IF
FPT_FID
      5186**DCL      5631<>CALL
FPT_FID.TEXTFID_
      5186**DCL      5630<<ASSIGN
FPT_FID.V
      5190**DCL      5186--DCLINIT
FRES
      5253**DCL      5189--DCLINIT
FUNTAB
      5018**DCL      5495--CALL
GTYPTAB
      5020**DCL      5495--CALL
I
      4984**DCL      5356<<DOINDEX  5357>>IF       5358>>CALL     5359<>CALL     5365<<DOINDEX  5366>>IF
      5367>>CALL     5641<<DOINDEX  5642>>IF       5643>>CALL
I IN PROCEDURE DIDCB
      5401**DCL      5501<<DOINDEX  5502>>IF       5503>>ASSIGN   5504>>ASSIGN   5505>>ASSIGN   5506>>ASSIGN
      5507>>ASSIGN   5515--CALL     5515>>CALL     5515>>CALL     5515>>CALL
JDCBFMT
      5155**DCL      5386--CALL
JIOSFMT
      5174**DCL      5615--CALL
JIT$
      3170**DCL      5381<>CALL     5382>>ASSIGN   5523<>CALL     5524>>ASSIGN   5530>>CALL     5530>>CALL
PL6.E3A0      #001=DAU$DCBS File=DAU$DCBS.:E05TSI                                TUE 07/29/97 12:54 Page:111
      5530>>CALL     5530>>CALL     5531>>CALL     5531>>CALL     5534>>CALL     5536>>CALL     5536>>CALL
      5536>>CALL     5540>>ASSIGN   5540>>ASSIGN   5540>>ASSIGN   5540>>ASSIGN   5541>>CALL     5541>>CALL
      5541>>CALL     5551>>CALL     5551>>CALL     5551>>CALL     5551>>CALL     5551>>CALL     5557>>CALL
      5557>>CALL     5557>>CALL     5557>>CALL     5557>>CALL     5563>>CALL     5563>>CALL     5563>>CALL
      5563>>CALL     5563>>CALL     5563>>CALL     5576>>CALL     5576>>CALL     5576>>CALL     5576>>CALL
      5576>>CALL     5576>>CALL     5576>>CALL     5576>>CALL     5576>>CALL     5576>>CALL     5576>>CALL
      5582>>CALL     5582>>CALL     5582>>CALL     5582>>CALL     5582>>CALL     5582>>CALL     5582>>CALL
      5590>>CALL     5590>>CALL     5590>>CALL     5590>>CALL     5590>>CALL     5595>>IF       5597>>ASSIGN
      5600>>IF       5602>>ASSIGN   5603>>ASSIGN   5615>>CALL     5615>>CALL     5615>>CALL     5615>>CALL
      5615>>CALL     5615>>CALL     5615>>CALL     5670<>CALL     5677>>CALL     5677>>CALL     5677>>CALL
      5690<>CALL     5697>>CALL     5697>>CALL     5697>>CALL
JITFMT1
      5159**DCL      5530--CALL
JITFMT2
      5165**DCL      5536--CALL
JMMFMT
      5167**DCL      5551--CALL
JMMLFMT
      5169**DCL      5563--CALL
JMMMFMT
      5172**DCL      5582--CALL
JMMPCFMT
      5170**DCL      5576--CALL
JPRIFMT
      5168**DCL      5557--CALL
JRNSTFMT
      5173**DCL      5590--CALL
JTIMEFMT
      5166**DCL      5541--CALL
M$FID
      4700**DCL-ENT  5631--CALL
MODE
      5158**DCL      5530--CALL
NILCFUFLG IN PROCEDURE DIDCB
      5411**DCL      5462<<ASSIGN   5466<<ASSIGN   5495--CALL     5495--CALL
NILFCNFLG IN PROCEDURE DIDCB
PL6.E3A0      #001=DAU$DCBS File=DAU$DCBS.:E05TSI                                TUE 07/29/97 12:54 Page:112
      5414**DCL      5473<<ASSIGN   5477<<ASSIGN   5495--CALL
OFFSET
      4986**DCL      5385<<ASSIGN   5386--CALL     5460<<ASSIGN   5495--CALL
OOPS
      5393**LABEL    5353--CALLALT  5354--CALLALT  5358--CALLALT  5367--CALLALT  5373--CALLALT  5381--CALLALT
      5384--CALLALT  5523--CALLALT
OPEN_OPT_REQ
      5252**DCL      5623<<ASSIGN   5625<<ASSIGN   5674>>IF       5694>>IF
ORGTAB
      5014**DCL      5495--CALL     5495--CALL
OUT
      5262**DCL      5350<>CALL
PRIVFMT
      5160**DCL      5531--CALL
PSNL IN PROCEDURE DIDCB
      5400**DCL      5426<<CALLBLT  5427>>CALLBLT  5436<<CALLBLT  5437>>CALLBLT
ROS$
      4982**DCL      5353<>CALL     5354>>CALL     5356>>DOINDEX  5366>>IF       5367>>CALL     5372>>IF
      5373>>CALL     5385>>ASSIGN   5460>>ASSIGN   5639<>CALL     5640>>CALL     5641>>DOINDEX
SUBDEV_ARG
      5342**DCL      5604--ASSIGN
SUBDEV_ARG.LEVEL2
      5343**DCL      5598--ASSIGN
SUBDEV_ARG.LEVEL2.N_ARGS
      5344**DCL      5596<<ASSIGN   5601<<ASSIGN   5607<<ASSIGN   5608--ASSIGN
SUBDEV_ARG.LEVEL2.SUBDEV
      5345**DCL      5597<<ASSIGN   5602<<ASSIGN
SUBDEV_ARG.SUBSUBDEV
      5346**DCL      5603<<ASSIGN
SUBDEV_VECTOR
      5347**DCL      5598<<ASSIGN   5604<<ASSIGN   5608<<ASSIGN   5615<>CALL
SYM.COUNT
      5331**DCL      5334--IMP-SIZ  5630>>ASSIGN
SYM.TEXT
      5334**DCL      5630--ASSIGN
TEST_FACCT
PL6.E3A0      #001=DAU$DCBS File=DAU$DCBS.:E05TSI                                TUE 07/29/97 12:54 Page:113
      5686**PROC     5648--CALL
TEST_FNAME
      5665**PROC     5645--CALL
TOP
      3122**DCL         8--PROC     5621--ENTRY
TOP.NSUBLKS
      3134**DCL      5349>>IF       5622>>IF
TOP.SUBLK$
      3155**DCL      5350>>CALL     5630>>ASSIGN   5630>>ASSIGN
U
      5254**DCL      5636<<DOINDEX  5637>>IF       5639<>CALL     5640<>CALL     5643<>CALL     5670<>CALL
      5690<>CALL
UCNT
      5255**DCL      5635<<ASSIGN   5657>>IF       5683<<ASSIGN   5683>>ASSIGN   5703<<ASSIGN   5703>>ASSIGN
WHOFMT
      5339**DCL      5677--CALL     5697--CALL
ZERO
      5352**LABEL    5350--CALLALT
