VERSION E05

PL6.E3A0      #001=DAU$TCB File=DAU$TCB.:E05TSI                                  TUE 07/29/97 12:55 Page:1
        1        1        /*M* DAU$TCB - DISPLAY USERS TCB FOR ANLZ */
        2        2        /*T***********************************************************/
        3        3        /*T*                                                         */
        4        4        /*T* Copyright (c) Bull HN Information Systems Inc., 1997    */
        5        5        /*T*                                                         */
        6        6        /*T***********************************************************/
        7        7        DAU$TCB: PROC(TOP);
        8        8        %INCLUDE XU_MACRO_C;
        9     3114        %PARSE$OUT (NAME=TOP,STCLASS="");
       10     3159        /**/
       11     3160        %INCLUDE DA_ANLZ_R;
       12     3173        %INCLUDE DA_MAP_R;
       13     3203        %INCLUDE DA_FORMAT_C;
       14     3445        %INCLUDE DA_FORMAT_R;
       15     3457        %INCLUDE CP_6;
       16     3538        %B$TCB;
       17     3541        %B$ALT;
       18     3549        %B$EXCFR;
       19     3567        /**/
       20     3568    1   DCL DAM$MAP ENTRY(5) ALTRET;
       21     3569    1   DCL DAF$INIT ENTRY(1) ALTRET;
       22     3570    1   DCL DAF$WRITE EPTR SYMREF;
       23     3571    1   DCL DAF$NEWPAGE ENTRY;
       24     3572    1   DCL DAF$UPDLNCNT ENTRY;
       25     3573    1   DCL DAB$SSFRAME ENTRY(1);
       26     3574    1   DCL DAB$OCTDUMP ENTRY(5);
       27     3575        /**/
       28     3576        %PARSE$OUT (NAME=OUT,STCLASS=BASED);
       29     3621        /**/
       30     3622    1   DCL B$TCB$ PTR SYMREF;
       31     3623    1   DCL TCB$ PTR;
       32     3624        %REPORT (NAME=TCBRPT,CONTENTS=NO,TITLE='TCB');
       33     3690    1   DCL FRAME$ PTR;
       34     3691    1   DCL 1 FRAME REDEF FRAME$,
       35     3692    1         2 WA UBIN(18) UNAL,
       36     3693    1         2 * UBIN(18) UNAL;
       37     3694    1   DCL SIZE SBIN;
PL6.E3A0      #001=DAU$TCB File=DAU$TCB.:E05TSI                                  TUE 07/29/97 12:55 Page:2
       38     3695    1   DCL FO SBIN;
       39     3696    1   DCL DOMAYN SBIN;
       40     3697    1   DCL NOTCBFMT CHAR(0) CONSTANT INIT('%/ NO TCB %/');
       41     3698    1   DCL ALTHDR CHAR(0) CONSTANT INIT('%/ ALTRET FRAME:%/');
       42     3699    1   DCL ECFFMT CHAR(0) CONSTANT INIT(' EXCEPTIONAL CONDITION FRAME AT .%O:%/');
       43     3700    1   DCL M$LO DCB;
       44     3701        %FPT_ERRMSG (INCLCODE=YES,SUBMESS=YES);
       45     3728    1   DCL 1 ERRBUF ALIGNED,
       46     3729    1         2 M1 CHAR(120),
       47     3730    1         2 M2 CHAR(120);
       48     3731    1   DCL ERRFMT CHAR(0) CONSTANT INIT('%/ ERROR CODE:%/%>A%/');
       49     3732        %EJECT;
PL6.E3A0      #001=DAU$TCB File=DAU$TCB.:E05TSI                                  TUE 07/29/97 12:55 Page:3
       50     3733    1           IF ADDR(TOP)=ADDR(NIL) THEN DOMAYN=DA_DOMAIN;
       51     3734    1           ELSE IF TOP.NSUBLKS~=1 THEN DOMAYN=DA_DOMAIN;
       52     3735    1           ELSE DOMAYN=TOP.SUBLK$(0)->OUT.CODE;
       53     3736    1           CALL DAM$MAP(B$TCB$,TCB$,-DA_CUN,DOMAYN) ALTRET(RET);
       54     3737    2           IF DA_LASTBOUND=0 THEN DO;
       55     3738    2              CALL DAF$WRITE(VECTOR(NOTCBFMT));
       56     3739    2              RETURN;
       57     3740    2              END;
       58     3741    1           FRAME$=TCB$->B$TCB.ALT$;
       59     3742    2           IF FRAME$~=ADDR(NIL) THEN DO;
       60     3743    2              CALL DAM$MAP(FRAME$,FRAME$,-DA_CUN,DOMAYN) ALTRET(RET);
       61     3744    2              SIZE=SIZEW(B$ALT);
       62     3745    2              CALL DAF$WRITE(VECTOR(ALTHDR));
       63     3746    2              CALL DUMP_FRAME;
       64     3747    2              END;
       65     3748    1           SIZE=TCB$->B$TCB.CURRSZ;
       66     3749    1           FRAME$=TCB$->B$TCB.STK$;
       67     3750    1           IF SIZE>0 THEN
       68     3751    1              CALL DAM$MAP(FRAME$,FRAME$,-DA_CUN,DOMAYN) ALTRET(RET);
       69     3752    2           DO WHILE(SIZE>0);
       70     3753    2              FO=FRAME.WA;
       71     3754    2              CALL DAF$NEWPAGE;
       72     3755    2              CALL DAF$WRITE(VECTOR(ECFFMT),VECTOR(FO));
       73     3756    2              CALL DUMP_FRAME;
       74     3757    2              SIZE=FRAME$->B$EXCFR.PREVSZ;
       75     3758    2              FRAME$=PINCRW(FRAME$,-SIZE);
       76     3759    2              END;
       77     3760    1   RET:    RETURN;
       78     3761        %EJECT;
PL6.E3A0      #001=DAU$TCB File=DAU$TCB.:E05TSI                                  TUE 07/29/97 12:55 Page:4
       79     3762    1   DAU$DUMPFRAME: ENTRY(TOP);
       80     3763    1           FRAME$=ADDR(TOP);
       81     3764    1           SIZE=68;
       82     3765    1           CALL DUMP_FRAME;
       83     3766    1           RETURN;
       84     3767        %EJECT;
PL6.E3A0      #001=DAU$TCB File=DAU$TCB.:E05TSI                                  TUE 07/29/97 12:55 Page:5
       85     3768    1   DUMP_FRAME: PROC;
       86     3769    2           CALL DAB$SSFRAME(FRAME$->B$EXCFR);
       87     3770    2           FPT_ERRMSG.CODE_=VECTOR(FRAME$->B$ALT.ERR);
       88     3771    2           FPT_ERRMSG.BUF_=VECTOR(ERRBUF);
       89     3772    2           FPT_ERRMSG.V.OUTDCB1#=DAF_DCB#;
       90     3773    2           CALL M$ERRMSG(FPT_ERRMSG);
       91     3774    2           CALL DAF$UPDLNCNT;
       92     3775    2           CALL DAB$OCTDUMP(PINCRW(FRAME$,64)->B$EXCFR,SIZE-64,64,'1'B);
       93     3776    2           RETURN;
       94     3777    2   END DUMP_FRAME;
       95     3778    1   END DAU$TCB;

PL6.E3A0      #001=DAU$TCB File=DAU$TCB.:E05TSI                                  TUE 07/29/97 12:55 Page:6
--  Include file information  --

   CP_6.:E05TOU  cannot be made into a system file and is referenced.
   DA_FORMAT_R.:E05TOU  cannot be made into a system file and is referenced.
   DA_FORMAT_C.:E05TOU  is referenced.
   DA_MAP_R.:E05TOU  cannot be made into a system file and is referenced.
   DA_ANLZ_R.:E05TOU  cannot be made into a system file and is referenced.
   XU_MACRO_C.:E05TOU  is referenced.
   B$JIT_C.:E05TOU  was found in the system file and is never referenced.
   CP_6_C.:E05TOU  was found in the system file and is referenced.
      No diagnostics issued in procedure DAU$TCB.

   Procedure DAU$TCB requires 174 words for executable code.
   Procedure DAU$TCB requires 78 words of local(AUTO) storage.

    No errors detected in file DAU$TCB.:E05TSI    .

PL6.E3A0      #001=DAU$TCB File=DAU$TCB.:E05TSI                                  TUE 07/29/97 12:55 Page:7

 Object Unit name= DAU$TCB                                    File name= DAU$TCB.:E05TOU
 UTS= JUL 29 '97 12:55:10.68 TUE                              Compiler= PL-6/E31         Sev=      00
 SharedLib= :SHARED_SYSTEM                                    Alt SharedLib=


    ****  Control sections  ****

 Sect   Type Bound  Init  Size OctSiz  Section name(segment info)
    0   DCB   even  none     0      0  M$UC
    1   Data  even  none    36     44  DAU$TCB
    2  RoData even  UTS     24     30  DAU$TCB
    3   DCB   even  none     0      0  M$LO
    4   Proc  even  none   174    256  DAU$TCB
    5  RoData even  none    18     22  DAU$TCB

    ****  Entry defs  ****

                              Check   Calling
                             calling  sequence
  Sect OctLoc Primary Altret sequence   type   Parms  Name
     4      0   yes            yes      Std        1  DAU$TCB
     4    177                  yes      Std        1  DAU$DUMPFRAME

  ****  Entry refs  ****

         Check        Calling
        calling       sequence
Altret sequence SRef   type   Args  Name
 yes     yes           Std       5 DAM$MAP
         yes           Std       0 DAF$NEWPAGE
         yes           Std       1 DAB$SSFRAME
         yes           Std       0 DAF$UPDLNCNT
         yes           Std       5 DAB$OCTDUMP
                       nStd      0 X66_AUTO_1
                       Std       0 B_CONSPOOL_D
                       nStd      0 X66_ARET
PL6.E3A0      #001=DAU$TCB File=DAU$TCB.:E05TSI                                  TUE 07/29/97 12:55 Page:8

  ****  Data refs  ****

  Flags:  r = read only, s = secondary
Flgs Name                             Flgs Name                             Flgs Name
     DA_CUN                                DA_DOMAIN                             DA_LASTBOUND
     DAF_DCB#                              M$UC                                  DAF$WRITE
     B$TCB$                                M$LO                                  B_VECTNIL

  ****  Segment refs  ****

  Flags:  r = read only, s = secondary
Flgs Name                             Flgs Name                             Flgs Name
     ISSID                                 NULLSID
PL6.E3A0      #001=DAU$TCB File=DAU$TCB.:E05TSI                                  TUE 07/29/97 12:55 Page:9


        1        1        /*M* DAU$TCB - DISPLAY USERS TCB FOR ANLZ */
        2        2        /*T***********************************************************/
        3        3        /*T*                                                         */
        4        4        /*T* Copyright (c) Bull HN Information Systems Inc., 1997    */
        5        5        /*T*                                                         */
        6        6        /*T***********************************************************/
        7        7        DAU$TCB: PROC(TOP);

      7  4 000000   000000 700200 xent  DAU$TCB      TSX0  ! X66_AUTO_1
         4 000001   000116 000001                    ZERO    78,1

        8        8        %INCLUDE XU_MACRO_C;
        9     3114        %PARSE$OUT (NAME=TOP,STCLASS="");
       10     3159        /**/
       11     3160        %INCLUDE DA_ANLZ_R;
       12     3173        %INCLUDE DA_MAP_R;
       13     3203        %INCLUDE DA_FORMAT_C;
       14     3445        %INCLUDE DA_FORMAT_R;
       15     3457        %INCLUDE CP_6;
       16     3538        %B$TCB;
       17     3541        %B$ALT;
       18     3549        %B$EXCFR;
       19     3567        /**/
       20     3568    1   DCL DAM$MAP ENTRY(5) ALTRET;
       21     3569    1   DCL DAF$INIT ENTRY(1) ALTRET;
       22     3570    1   DCL DAF$WRITE EPTR SYMREF;
       23     3571    1   DCL DAF$NEWPAGE ENTRY;
       24     3572    1   DCL DAF$UPDLNCNT ENTRY;
       25     3573    1   DCL DAB$SSFRAME ENTRY(1);
       26     3574    1   DCL DAB$OCTDUMP ENTRY(5);
       27     3575        /**/
       28     3576        %PARSE$OUT (NAME=OUT,STCLASS=BASED);
       29     3621        /**/
       30     3622    1   DCL B$TCB$ PTR SYMREF;
       31     3623    1   DCL TCB$ PTR;
       32     3624        %REPORT (NAME=TCBRPT,CONTENTS=NO,TITLE='TCB');
PL6.E3A0      #001=DAU$TCB File=DAU$TCB.:E05TSI                                  TUE 07/29/97 12:55 Page:10
       33     3690    1   DCL FRAME$ PTR;
       34     3691    1   DCL 1 FRAME REDEF FRAME$,
       35     3692    1         2 WA UBIN(18) UNAL,
       36     3693    1         2 * UBIN(18) UNAL;
       37     3694    1   DCL SIZE SBIN;
       38     3695    1   DCL FO SBIN;
       39     3696    1   DCL DOMAYN SBIN;
       40     3697    1   DCL NOTCBFMT CHAR(0) CONSTANT INIT('%/ NO TCB %/');
       41     3698    1   DCL ALTHDR CHAR(0) CONSTANT INIT('%/ ALTRET FRAME:%/');
       42     3699    1   DCL ECFFMT CHAR(0) CONSTANT INIT(' EXCEPTIONAL CONDITION FRAME AT .%O:%/');
       43     3700    1   DCL M$LO DCB;
       44     3701        %FPT_ERRMSG (INCLCODE=YES,SUBMESS=YES);
       45     3728    1   DCL 1 ERRBUF ALIGNED,
       46     3729    1         2 M1 CHAR(120),
       47     3730    1         2 M2 CHAR(120);
       48     3731    1   DCL ERRFMT CHAR(0) CONSTANT INIT('%/ ERROR CODE:%/%>A%/');
       49     3732        %EJECT;
PL6.E3A0      #001=DAU$TCB File=DAU$TCB.:E05TSI                                  TUE 07/29/97 12:55 Page:11
       50     3733    1           IF ADDR(TOP)=ADDR(NIL) THEN DOMAYN=DA_DOMAIN;

   3733  4 000002   200003 236100                    LDQ     @TOP,,AUTO
         4 000003   000001 116000 xsym               CMPQ    B_VECTNIL+1
         4 000004   000010 601000 4                  TNZ     s:3734

   3733  4 000005   000000 235000 xsym               LDA     DA_DOMAIN
         4 000006   200010 755100                    STA     DOMAYN,,AUTO
         4 000007   000023 710000 4                  TRA     s:3736

       51     3734    1           ELSE IF TOP.NSUBLKS~=1 THEN DOMAYN=DA_DOMAIN;

   3734  4 000010   200003 470500                    LDP0    @TOP,,AUTO
         4 000011   000001 220100                    LDX0    1,,PR0
         4 000012   000001 100003                    CMPX0   1,DU
         4 000013   000017 600000 4                  TZE     s:3735

   3734  4 000014   000000 235000 xsym               LDA     DA_DOMAIN
         4 000015   200010 755100                    STA     DOMAYN,,AUTO
         4 000016   000023 710000 4                  TRA     s:3736

       52     3735    1           ELSE DOMAYN=TOP.SUBLK$(0)->OUT.CODE;

   3735  4 000017   000003 471500                    LDP1    3,,PR0
         4 000020   100000 236100                    LDQ     0,,PR1
         4 000021   777777 376007                    ANQ     -1,DL
         4 000022   200010 756100                    STQ     DOMAYN,,AUTO

       53     3736    1           CALL DAM$MAP(B$TCB$,TCB$,-DA_CUN,DOMAYN) ALTRET(RET);

   3736  4 000023   000000 335000 xsym               LCA     DA_CUN
         4 000024   200110 755100                    STA     ERRBUF+63,,AUTO
         4 000025   200010 630500                    EPPR0   DOMAYN,,AUTO
         4 000026   200115 450500                    STP0    ERRBUF+68,,AUTO
         4 000027   200110 631500                    EPPR1   ERRBUF+63,,AUTO
         4 000030   200114 451500                    STP1    ERRBUF+67,,AUTO
         4 000031   200004 633500                    EPPR3   TCB$,,AUTO
PL6.E3A0      #001=DAU$TCB File=DAU$TCB.:E05TSI                                  TUE 07/29/97 12:55 Page:12
         4 000032   200113 453500                    STP3    ERRBUF+66,,AUTO
         4 000033   000000 236000 5                  LDQ     0
         4 000034   200112 756100                    STQ     ERRBUF+65,,AUTO
         4 000035   200112 630500                    EPPR0   ERRBUF+65,,AUTO
         4 000036   000022 631400 xsym               EPPR1   B_VECTNIL+18
         4 000037   000000 701000 xent               TSX1    DAM$MAP
         4 000040   000176 702000 4                  TSX2    RET

       54     3737    2           IF DA_LASTBOUND=0 THEN DO;

   3737  4 000041   000000 235000 xsym               LDA     DA_LASTBOUND
         4 000042   000051 601000 4                  TNZ     s:3741

       55     3738    2              CALL DAF$WRITE(VECTOR(NOTCBFMT));

   3738  4 000043   000004 630400 5                  EPPR0   4
         4 000044   000000 220000 xsym               LDX0    DAF$WRITE
         4 000045   000017 631400 xsym               EPPR1   B_VECTNIL+15
         4 000046   000000 701010                    TSX1    0,X0
         4 000047   000000 011000                    NOP     0

       56     3739    2              RETURN;

   3739  4 000050   000000 702200 xent               TSX2  ! X66_ARET

       57     3740    2              END;
       58     3741    1           FRAME$=TCB$->B$TCB.ALT$;

   3741  4 000051   200004 470500                    LDP0    TCB$,,AUTO
         4 000052   000000 236100                    LDQ     0,,PR0
         4 000053   200005 756100                    STQ     FRAME$,,AUTO

       59     3742    2           IF FRAME$~=ADDR(NIL) THEN DO;

   3742  4 000054   000001 116000 xsym               CMPQ    B_VECTNIL+1
         4 000055   000105 600000 4                  TZE     s:3748

PL6.E3A0      #001=DAU$TCB File=DAU$TCB.:E05TSI                                  TUE 07/29/97 12:55 Page:13
       60     3743    2              CALL DAM$MAP(FRAME$,FRAME$,-DA_CUN,DOMAYN) ALTRET(RET);

   3743  4 000056   000000 335000 xsym               LCA     DA_CUN
         4 000057   200110 755100                    STA     ERRBUF+63,,AUTO
         4 000060   200010 631500                    EPPR1   DOMAYN,,AUTO
         4 000061   200115 451500                    STP1    ERRBUF+68,,AUTO
         4 000062   200110 633500                    EPPR3   ERRBUF+63,,AUTO
         4 000063   200114 453500                    STP3    ERRBUF+67,,AUTO
         4 000064   200005 634500                    EPPR4   FRAME$,,AUTO
         4 000065   200113 454500                    STP4    ERRBUF+66,,AUTO
         4 000066   200005 635500                    EPPR5   FRAME$,,AUTO
         4 000067   200112 455500                    STP5    ERRBUF+65,,AUTO
         4 000070   200112 630500                    EPPR0   ERRBUF+65,,AUTO
         4 000071   000022 631400 xsym               EPPR1   B_VECTNIL+18
         4 000072   000000 701000 xent               TSX1    DAM$MAP
         4 000073   000176 702000 4                  TSX2    RET

       61     3744    2              SIZE=SIZEW(B$ALT);

   3744  4 000074   000104 235007                    LDA     68,DL
         4 000075   200006 755100                    STA     SIZE,,AUTO

       62     3745    2              CALL DAF$WRITE(VECTOR(ALTHDR));

   3745  4 000076   000010 630400 5                  EPPR0   8
         4 000077   000000 220000 xsym               LDX0    DAF$WRITE
         4 000100   000017 631400 xsym               EPPR1   B_VECTNIL+15
         4 000101   000000 701010                    TSX1    0,X0
         4 000102   000000 011000                    NOP     0

       63     3746    2              CALL DUMP_FRAME;

   3746  4 000103   000210 701000 4                  TSX1    DUMP_FRAME
         4 000104   000000 011000                    NOP     0

       64     3747    2              END;

PL6.E3A0      #001=DAU$TCB File=DAU$TCB.:E05TSI                                  TUE 07/29/97 12:55 Page:14
       65     3748    1           SIZE=TCB$->B$TCB.CURRSZ;

   3748  4 000105   200004 470500                    LDP0    TCB$,,AUTO
         4 000106   000002 236100                    LDQ     2,,PR0
         4 000107   777777 376007                    ANQ     -1,DL
         4 000110   200006 756100                    STQ     SIZE,,AUTO

       66     3749    1           FRAME$=TCB$->B$TCB.STK$;

   3749  4 000111   000001 236100                    LDQ     1,,PR0
         4 000112   200005 756100                    STQ     FRAME$,,AUTO

       67     3750    1           IF SIZE>0 THEN

   3750  4 000113   200006 235100                    LDA     SIZE,,AUTO
         4 000114   000133 604400 4                  TMOZ    s:3752

       68     3751    1              CALL DAM$MAP(FRAME$,FRAME$,-DA_CUN,DOMAYN) ALTRET(RET);

   3751  4 000115   000000 335000 xsym               LCA     DA_CUN
         4 000116   200110 755100                    STA     ERRBUF+63,,AUTO
         4 000117   200010 631500                    EPPR1   DOMAYN,,AUTO
         4 000120   200115 451500                    STP1    ERRBUF+68,,AUTO
         4 000121   200110 633500                    EPPR3   ERRBUF+63,,AUTO
         4 000122   200114 453500                    STP3    ERRBUF+67,,AUTO
         4 000123   200005 634500                    EPPR4   FRAME$,,AUTO
         4 000124   200113 454500                    STP4    ERRBUF+66,,AUTO
         4 000125   200005 635500                    EPPR5   FRAME$,,AUTO
         4 000126   200112 455500                    STP5    ERRBUF+65,,AUTO
         4 000127   200112 630500                    EPPR0   ERRBUF+65,,AUTO
         4 000130   000022 631400 xsym               EPPR1   B_VECTNIL+18
         4 000131   000000 701000 xent               TSX1    DAM$MAP
         4 000132   000176 702000 4                  TSX2    RET

       69     3752    2           DO WHILE(SIZE>0);

   3752  4 000133   200006 235100                    LDA     SIZE,,AUTO
PL6.E3A0      #001=DAU$TCB File=DAU$TCB.:E05TSI                                  TUE 07/29/97 12:55 Page:15
         4 000134   000176 604400 4                  TMOZ    RET

       70     3753    2              FO=FRAME.WA;

   3753  4 000135   200005 235100                    LDA     FRAME$,,AUTO
         4 000136   000022 771000                    ARL     18
         4 000137   200007 755100                    STA     FO,,AUTO

       71     3754    2              CALL DAF$NEWPAGE;

   3754  4 000140   000002 631400 xsym               EPPR1   B_VECTNIL+2
         4 000141   000000 701000 xent               TSX1    DAF$NEWPAGE
         4 000142   000000 011000                    NOP     0

       72     3755    2              CALL DAF$WRITE(VECTOR(ECFFMT),VECTOR(FO));

   3755  4 000143   777640 235007                    LDA     -96,DL
         4 000144   200110 452500                    STP2    ERRBUF+63,,AUTO
         4 000145   200110 236100                    LDQ     ERRBUF+63,,AUTO
         4 000146   000007 036003                    ADLQ    7,DU
         4 000147   200112 757100                    STAQ    ERRBUF+65,,AUTO
         4 000150   200112 630500                    EPPR0   ERRBUF+65,,AUTO
         4 000151   200115 450500                    STP0    ERRBUF+68,,AUTO
         4 000152   000014 236000 5                  LDQ     12
         4 000153   200114 756100                    STQ     ERRBUF+67,,AUTO
         4 000154   200114 630500                    EPPR0   ERRBUF+67,,AUTO
         4 000155   000000 220000 xsym               LDX0    DAF$WRITE
         4 000156   000020 631400 xsym               EPPR1   B_VECTNIL+16
         4 000157   000000 701010                    TSX1    0,X0
         4 000160   000000 011000                    NOP     0

       73     3756    2              CALL DUMP_FRAME;

   3756  4 000161   000210 701000 4                  TSX1    DUMP_FRAME
         4 000162   000000 011000                    NOP     0

       74     3757    2              SIZE=FRAME$->B$EXCFR.PREVSZ;
PL6.E3A0      #001=DAU$TCB File=DAU$TCB.:E05TSI                                  TUE 07/29/97 12:55 Page:16

   3757  4 000163   200005 470500                    LDP0    FRAME$,,AUTO
         4 000164   000000 236100                    LDQ     0,,PR0
         4 000165   000022 772000                    QRL     18
         4 000166   200006 756100                    STQ     SIZE,,AUTO

       75     3758    2              FRAME$=PINCRW(FRAME$,-SIZE);

   3758  4 000167   000022 736000                    QLS     18
         4 000170   000027 676000 xsym               ERQ     B_VECTNIL+23
         4 000171   000001 036007                    ADLQ    1,DL
         4 000172   200005 036100                    ADLQ    FRAME$,,AUTO
         4 000173   200005 756100                    STQ     FRAME$,,AUTO

       76     3759    2              END;

   3759  4 000174   200006 235100                    LDA     SIZE,,AUTO
         4 000175   000135 605400 4                  TPNZ    s:3753

       77     3760    1   RET:    RETURN;

   3760  4 000176   000000 702200 xent  RET          TSX2  ! X66_ARET

       78     3761        %EJECT;
PL6.E3A0      #001=DAU$TCB File=DAU$TCB.:E05TSI                                  TUE 07/29/97 12:55 Page:17
       79     3762    1   DAU$DUMPFRAME: ENTRY(TOP);

   3762  4 000177   000000 700200 xent  DAU$DUMPFRA* TSX0  ! X66_AUTO_1
         4 000200   000116 000001                    ZERO    78,1

       80     3763    1           FRAME$=ADDR(TOP);

   3763  4 000201   200003 236100                    LDQ     @TOP,,AUTO
         4 000202   200005 756100                    STQ     FRAME$,,AUTO

       81     3764    1           SIZE=68;

   3764  4 000203   000104 235007                    LDA     68,DL
         4 000204   200006 755100                    STA     SIZE,,AUTO

       82     3765    1           CALL DUMP_FRAME;

   3765  4 000205   000210 701000 4                  TSX1    DUMP_FRAME
         4 000206   000000 011000                    NOP     0

       83     3766    1           RETURN;

   3766  4 000207   000000 702200 xent               TSX2  ! X66_ARET

       84     3767        %EJECT;
PL6.E3A0      #001=DAU$TCB File=DAU$TCB.:E05TSI                                  TUE 07/29/97 12:55 Page:18
       85     3768    1   DUMP_FRAME: PROC;

   3768  4 000210   200106 741300       DUMP_FRAME   STX1  ! ERRBUF+61,,AUTO

       86     3769    2           CALL DAB$SSFRAME(FRAME$->B$EXCFR);

   3769  4 000211   200005 630500                    EPPR0   FRAME$,,AUTO
         4 000212   000017 631400 xsym               EPPR1   B_VECTNIL+15
         4 000213   000000 701000 xent               TSX1    DAB$SSFRAME
         4 000214   000000 011000                    NOP     0

       87     3770    2           FPT_ERRMSG.CODE_=VECTOR(FRAME$->B$ALT.ERR);

   3770  4 000215   777640 235007                    LDA     -96,DL
         4 000216   200005 236100                    LDQ     FRAME$,,AUTO
         4 000217   000102 036003                    ADLQ    66,DU
         4 000220   000014 757000 1                  STAQ    FPT_ERRMSG+2

       88     3771    2           FPT_ERRMSG.BUF_=VECTOR(ERRBUF);

   3771  4 000221   000015 235000 5                  LDA     13
         4 000222   200110 452500                    STP2    ERRBUF+63,,AUTO
         4 000223   200110 236100                    LDQ     ERRBUF+63,,AUTO
         4 000224   000011 036003                    ADLQ    9,DU
         4 000225   000016 757000 1                  STAQ    FPT_ERRMSG+4

       89     3772    2           FPT_ERRMSG.V.OUTDCB1#=DAF_DCB#;

   3772  4 000226   000000 720000 xsym               LXL0    DAF_DCB#
         4 000227   000040 440000 1                  SXL0    FPT_ERRMSG+22

       90     3773    2           CALL M$ERRMSG(FPT_ERRMSG);

   3773  4 000230   000012 630400 1                  EPPR0   FPT_ERRMSG
         4 000231   020000 713400                    CLIMB   8192
         4 000232   405000 401760                    pmme    nvectors=11

PL6.E3A0      #001=DAU$TCB File=DAU$TCB.:E05TSI                                  TUE 07/29/97 12:55 Page:19
       91     3774    2           CALL DAF$UPDLNCNT;

   3774  4 000233   000002 631400 xsym               EPPR1   B_VECTNIL+2
         4 000234   000000 701000 xent               TSX1    DAF$UPDLNCNT
         4 000235   000000 011000                    NOP     0

       92     3775    2           CALL DAB$OCTDUMP(PINCRW(FRAME$,64)->B$EXCFR,SIZE-64,64,'1'B);

   3775  4 000236   200006 235100                    LDA     SIZE,,AUTO
         4 000237   000100 135007                    SBLA    64,DL
         4 000240   200110 755100                    STA     ERRBUF+63,,AUTO
         4 000241   000020 237000 5                  LDAQ    16
         4 000242   200114 757100                    STAQ    ERRBUF+67,,AUTO
         4 000243   200110 630500                    EPPR0   ERRBUF+63,,AUTO
         4 000244   200113 450500                    STP0    ERRBUF+66,,AUTO
         4 000245   200005 236100                    LDQ     FRAME$,,AUTO
         4 000246   000100 036003                    ADLQ    64,DU
         4 000247   200112 756100                    STQ     ERRBUF+65,,AUTO
         4 000250   200112 630500                    EPPR0   ERRBUF+65,,AUTO
         4 000251   000022 631400 xsym               EPPR1   B_VECTNIL+18
         4 000252   000000 701000 xent               TSX1    DAB$OCTDUMP
         4 000253   000000 011000                    NOP     0

       93     3776    2           RETURN;

   3776  4 000254   200106 221300                    LDX1  ! ERRBUF+61,,AUTO
         4 000255   000001 702211                    TSX2  ! 1,X1
       94     3777    2   END DUMP_FRAME;
       95     3778    1   END DAU$TCB;

PL6.E3A0      #001=DAU$TCB File=DAU$TCB.:E05TSI                                  TUE 07/29/97 12:55 Page:20
--  Include file information  --

   CP_6.:E05TOU  cannot be made into a system file and is referenced.
   DA_FORMAT_R.:E05TOU  cannot be made into a system file and is referenced.
   DA_FORMAT_C.:E05TOU  is referenced.
   DA_MAP_R.:E05TOU  cannot be made into a system file and is referenced.
   DA_ANLZ_R.:E05TOU  cannot be made into a system file and is referenced.
   XU_MACRO_C.:E05TOU  is referenced.
   B$JIT_C.:E05TOU  was found in the system file and is never referenced.
   CP_6_C.:E05TOU  was found in the system file and is referenced.
      No diagnostics issued in procedure DAU$TCB.
PL6.E3A0      #001=DAU$TCB File=DAU$TCB.:E05TSI                                  TUE 07/29/97 12:55 Page:21

 **** Variables and constants ****

  ****  Section 001  Data  DAU$TCB

  ****  Scalars and arrays  ****
OctLoc.c.b A Datatyp(siz) R M Lvl/name                 OctLoc.c.b A Datatyp(siz) R M Lvl/name

    12-0-0/d STRC(936)   r     1 FPT_ERRMSG                10-0-0/c STRC        r     1 TCBRPTTX00

  ****  Section 002 RoData DAU$TCB

  ****  Scalars and arrays  ****
OctLoc.c.b A Datatyp(siz) R M Lvl/name                 OctLoc.c.b A Datatyp(siz) R M Lvl/name

     3-0-0/c CHAR(18)    r     1 ALTHDR                    10-0-0/c CHAR(38)    r     1 ECFFMT
     0-0-0/c CHAR(12)    r     1 NOTCBFMT

  ****  Auto variables  ****

  ****  Scalars and arrays  ****
OctLoc.c.b A Datatyp(siz) R M Lvl/name                 OctLoc.c.b A Datatyp(siz) R M Lvl/name

     3-0-0/w PTR         r     1 @TOP                      10-0-0/w SBIN        r     1 DOMAYN
    11-0-0/w STRC(2160)  r     1 ERRBUF                     7-0-0/w SBIN        r     1 FO
     5-0-0/w STRC        r     1 FRAME                      5-0-0/w PTR         r     1 FRAME$
     6-0-0/w SBIN        r     1 SIZE                       4-0-0/w PTR         r     1 TCB$
    *0-0-0/w STRC(144)   r     1 TOP

  ****  SYMREF variables  ****

  ****  Scalars and arrays  ****
OctLoc.c.b A Datatyp(siz) R M Lvl/name                 OctLoc.c.b A Datatyp(siz) R M Lvl/name

     0-0-0/w PTR         r     1 B$TCB$                     0-0-0/w EPTR        r     1 DAF$WRITE
     0-0-0/w UBIN        r     1 DAF_DCB#                   0-0-0/w SBIN        r     1 DA_CUN
     0-0-0/w SBIN        r     1 DA_DOMAIN                  0-0-0/w SBIN        r     1 DA_LASTBOUND

PL6.E3A0      #001=DAU$TCB File=DAU$TCB.:E05TSI                                  TUE 07/29/97 12:55 Page:22
  ****  BASED and DCB variables  ****

  ****  Scalars and arrays  ****
OctLoc.c.b A Datatyp(siz) R M Lvl/name                 OctLoc.c.b A Datatyp(siz) R M Lvl/name

     0-0-0/w STRC(2448)  r     1 B$ALT                      0-0-0/w STRC(2448)  r     1 B$EXCFR
     0-0-0/w STRC(144)   r     1 B$TCB                      0-0-0/w STRC(144)   r     1 OUT


   Procedure DAU$TCB requires 174 words for executable code.
   Procedure DAU$TCB requires 78 words of local(AUTO) storage.

    No errors detected in file DAU$TCB.:E05TSI    .
PL6.E3A0      #001=DAU$TCB File=DAU$TCB.:E05TSI                                  TUE 07/29/97 12:55 Page:23
          *** CROSS REFERENCE LISTING ***
**     DENOTES     IDENTIFIER DEFINITION
<<                 IDENTIFIER'S VALUE SET
>>                 IDENTIFIER'S VALUE USED
<>                 IDENTIFIER SET AND/OR USED
--                 IDENTIFIER REFERENCED
PL6.E3A0      #001=DAU$TCB File=DAU$TCB.:E05TSI                                  TUE 07/29/97 12:55 Page:24
          MINI XREF LISTING

ALTHDR
      3698**DCL      3745--CALL
B$ALT
      3543**DCL      3744--ASSIGN
B$ALT.CODE
      3543**DCL      3543--REDEF    3544--REDEF    3544--REDEF
B$ALT.ERR
      3544**DCL      3770--ASSIGN
B$ALT.ERR.ERR#
      3545**DCL      3545--REDEF
B$ALT.EVID
      3544**DCL      3544--REDEF    3544--REDEF
B$EXCFR
      3550**DCL      3769<>CALL     3775<>CALL
B$EXCFR.ASL
      3550**DCL      3550--REDEF
B$EXCFR.ERR.ERR#
      3564**DCL      3564--REDEF
B$EXCFR.EVID
      3563**DCL      3563--REDEF    3564--REDEF
B$EXCFR.IR
      3551**DCL      3551--REDEF
B$EXCFR.PREVSZ
      3550**DCL      3550--REDEF    3757>>ASSIGN
B$EXCFR.SUBC
      3562**DCL      3562--REDEF    3563--REDEF    3563--REDEF
B$TCB.ALT$
      3539**DCL      3741>>ASSIGN
B$TCB.CURRSZ
      3539**DCL      3748>>ASSIGN
B$TCB.STK$
      3539**DCL      3749>>ASSIGN
PL6.E3A0      #001=DAU$TCB File=DAU$TCB.:E05TSI                                  TUE 07/29/97 12:55 Page:25
B$TCB$
      3622**DCL      3736<>CALL
DAB$OCTDUMP
      3574**DCL-ENT  3775--CALL
DAB$SSFRAME
      3573**DCL-ENT  3769--CALL
DAF$NEWPAGE
      3571**DCL-ENT  3754--CALL
DAF$UPDLNCNT
      3572**DCL-ENT  3774--CALL
DAF$WRITE
      3570**DCL      3738>>CALL     3745>>CALL     3755>>CALL
DAF_DCB#
      3453**DCL      3772>>ASSIGN
DAM$MAP
      3568**DCL-ENT  3736--CALL     3743--CALL     3751--CALL
DA_CUN
      3168**DCL      3736<>CALL     3743<>CALL     3751<>CALL
DA_DOMAIN
      3168**DCL      3733>>ASSIGN   3734>>ASSIGN
DA_FMTSEG.P
      3454**DCL      3454--REDEF
DA_LASTBOUND
      3189**DCL      3737>>IF
DA_MAPSEG.P
      3198**DCL      3199--REDEF
DA_SDASN.DESC.TYPE0
      3183**DCL      3183--REDEF
DA_TIGRSEG.P
      3199**DCL      3200--REDEF
DOMAYN
      3696**DCL      3733<<ASSIGN   3734<<ASSIGN   3735<<ASSIGN   3736<>CALL     3743<>CALL     3751<>CALL
DUMP_FRAME
      3768**PROC     3746--CALL     3756--CALL     3765--CALL
ECFFMT
      3699**DCL      3755--CALL
PL6.E3A0      #001=DAU$TCB File=DAU$TCB.:E05TSI                                  TUE 07/29/97 12:55 Page:26
ERRBUF
      3728**DCL      3771--ASSIGN
FO
      3695**DCL      3753<<ASSIGN   3755--CALL
FPT_ERRMSG
      3712**DCL      3773<>CALL
FPT_ERRMSG.BUF_
      3712**DCL      3771<<ASSIGN
FPT_ERRMSG.CODE_
      3712**DCL      3770<<ASSIGN
FPT_ERRMSG.V
      3716**DCL      3712--DCLINIT
FPT_ERRMSG.V.OUTDCB1#
      3717**DCL      3772<<ASSIGN
FRAME.WA
      3692**DCL      3753>>ASSIGN
FRAME$
      3690**DCL      3691--REDEF    3741<<ASSIGN   3742>>IF       3743<>CALL     3743<>CALL     3749<<ASSIGN
      3751<>CALL     3751<>CALL     3757>>ASSIGN   3758<<ASSIGN   3758>>ASSIGN   3763<<ASSIGN   3769>>CALL
      3770>>ASSIGN   3775>>CALL
M$ERRMSG
      3529**DCL-ENT  3773--CALL
NOTCBFMT
      3697**DCL      3738--CALL
OUT.CODE
      3590**DCL      3735>>ASSIGN
RET
      3760**LABEL    3736--CALLALT  3743--CALLALT  3751--CALLALT
SIZE
      3694**DCL      3744<<ASSIGN   3748<<ASSIGN   3750>>IF       3752>>DOWHILE  3757<<ASSIGN   3758>>ASSIGN
      3764<<ASSIGN   3775>>CALL
TCB$
      3623**DCL      3736<>CALL     3741>>ASSIGN   3748>>ASSIGN   3749>>ASSIGN
TCBRPTTX00
      3684**DCL      3671--DCLINIT
TOP
PL6.E3A0      #001=DAU$TCB File=DAU$TCB.:E05TSI                                  TUE 07/29/97 12:55 Page:27
      3120**DCL         7--PROC     3733--IF       3762--ENTRY    3763--ASSIGN
TOP.NSUBLKS
      3132**DCL      3734>>IF
TOP.SUBLK$
      3153**DCL      3735>>ASSIGN
