VERSION E05

PL6.E3A0      #001=DA_ANLZ_D File=DA_ANLZ_D.:E05TSI                              TUE 07/29/97 12:55 Page:1
        1        1        /*M* DA_ANLZ_D - MAIN STATIC DATA MODULE FOR ANLZ */
        2        2        /*T***********************************************************/
        3        3        /*T*                                                         */
        4        4        /*T* Copyright (c) Bull HN Information Systems Inc., 1997    */
        5        5        /*T*                                                         */
        6        6        /*T***********************************************************/
        7        7        DA_ANLZ_D: PROC NOAUTO;
        8        8
        9        9        /* ! ! */
       10       10        %INCLUDE GM_VIRTUAL_E;
       11      220        /* ! R ! */
       12      221
       13      222    1   DCL DA_CUN SBIN STATIC SYMDEF INIT(0);
       14      223    1   DCL DA_DOMAIN SBIN STATIC SYMDEF INIT(7);
       15      224
       16      225    1   DCL 1 DA_ANLZERR STATIC SYMDEF ALIGNED,
       17      226    1         2 FCG BIT(18) UNAL,
       18      227    1         2 MON BIT(1) UNAL,
       19      228    1         2 CODE UBIN(14) UNAL,
       20      229    1         2 SEV UBIN(3) UNAL;
       21      230
       22      231    1   DCL 1 DBD_ERR STATIC SYMDEF ALIGNED,
       23      232    1         2 FCG BIT(18) UNAL INIT('040204'O),
       24      233    1         2 MON BIT(1) UNAL INIT('0'B),
       25      234    1         2 CODE UBIN(14) UNAL INIT(0),
       26      235    1         2 SEV UBIN(3) UNAL INIT(0);
       27      236
       28      237    1   DCL DA_DELTA_FLG BIT(1) ALIGNED STATIC SYMDEF INIT('0'B);
       29      238        /*DCL DA_TRTN REMEMBER STATIC SYMDEF; look in DA_MAP_D, since DAM$DUMPFILE needs it
               238        */
       30      239    1   DCL DA_TRAPPED BIT(1) STATIC SYMDEF INIT('0'B);
       31      240    1   DCL 1 DA_GATETXT STATIC SYMDEF ALIGNED,
       32      241    1         2 L UBIN BYTE UNAL INIT(0),
       33      242    1         2 C CHAR(119) INIT(' ');
       34      243    1   DCL DA_XUR$ PTR STATIC SYMDEF;
       35      244    1   DCL DA_DFLT_RADIX UBIN STATIC SYMDEF INIT(8);
       36      245    1   DCL DA_MAXCHANS SBIN STATIC SYMDEF INIT(0);
PL6.E3A0      #001=DA_ANLZ_D File=DA_ANLZ_D.:E05TSI                              TUE 07/29/97 12:55 Page:2
       37      246
       38      247    1   DCL BLANK_LINE CHAR(4) CONSTANT SYMDEF INIT(' ');
       39      248
       40      249    1   DCL DB_BOBCAT$ UBIN CONSTANT SYMDEF INIT(%GM_BOBCAT_BASE);
       41      250    1   DCL DB_HANDQ$ UBIN CONSTANT SYMDEF INIT(%GM_HAND_Q_BASE);
       42      251    1   DCL DB_ROS$ UBIN CONSTANT SYMDEF INIT(%GM_ROS_BASE);
       43      252
       44      253    1   DCL DBD$FEPMAP$ PTR STATIC SYMDEF INIT(ADDR(NIL));
       45      254    1   END DA_ANLZ_D;

PL6.E3A0      #001=DA_ANLZ_D File=DA_ANLZ_D.:E05TSI                              TUE 07/29/97 12:55 Page:3
--  Include file information  --

   GM_VIRTUAL_E.:E05TOU  is referenced.
      No diagnostics issued in procedure DA_ANLZ_D.

   No code generated for procedure DA_ANLZ_D .
   Procedure DA_ANLZ_D is declared NOAUTO and requires 42 words of local(STATIC) storage.

    No errors detected in file DA_ANLZ_D.:E05TSI    .

PL6.E3A0      #001=DA_ANLZ_D File=DA_ANLZ_D.:E05TSI                              TUE 07/29/97 12:55 Page:4

 Object Unit name= DA_ANLZ_D                                  File name= DA_ANLZ_D.:E05TOU
 UTS= JUL 29 '97 12:55:28.68 TUE                              Compiler= PL-6/E31         Sev=      00
 SharedLib= :SHARED_SYSTEM                                    Alt SharedLib=


    ****  Control sections  ****

 Sect   Type Bound  Init  Size OctSiz  Section name(segment info)
    0   Data  even  none    42     52  DA_ANLZ_D
    1  RoData even  UTS      4      4  DA_ANLZ_D
    2   Proc  even  none     0      0  DA_ANLZ_D

    ****  Entry defs  ****

                              Check   Calling
                             calling  sequence
  Sect OctLoc Primary Altret sequence   type   Parms  Name
     2      0   yes            yes     ~proc       0  DA_ANLZ_D

  ****  Data defs  ****

 Sect OctLoc  Name                           Sect OctLoc  Name
    0      1  DA_CUN                             0      2  DA_DOMAIN
    0      3  DA_ANLZERR                         0      4  DBD_ERR
    0      5  DA_DELTA_FLG                       0      6  DA_TRAPPED
    0      7  DA_GATETXT                         0     45  DA_XUR$
    0     46  DA_DFLT_RADIX                      0     47  DA_MAXCHANS
    1      0  BLANK_LINE                         1      1  DB_BOBCAT$
    1      2  DB_HANDQ$                          1      3  DB_ROS$
    0     50  DBD$FEPMAP$

  ****  Segment refs  ****

  Flags:  r = read only, s = secondary
Flgs Name                             Flgs Name                             Flgs Name
     NULLSID
PL6.E3A0      #001=DA_ANLZ_D File=DA_ANLZ_D.:E05TSI                              TUE 07/29/97 12:55 Page:5

        1        1        /*M* DA_ANLZ_D - MAIN STATIC DATA MODULE FOR ANLZ */
        2        2        /*T***********************************************************/
        3        3        /*T*                                                         */
        4        4        /*T* Copyright (c) Bull HN Information Systems Inc., 1997    */
        5        5        /*T*                                                         */
        6        6        /*T***********************************************************/
        7        7        DA_ANLZ_D: PROC NOAUTO;
        8        8
        9        9        /* ! ! */
       10       10        %INCLUDE GM_VIRTUAL_E;
       11      220        /* ! R ! */
       12      221
       13      222    1   DCL DA_CUN SBIN STATIC SYMDEF INIT(0);
       14      223    1   DCL DA_DOMAIN SBIN STATIC SYMDEF INIT(7);
       15      224
       16      225    1   DCL 1 DA_ANLZERR STATIC SYMDEF ALIGNED,
       17      226    1         2 FCG BIT(18) UNAL,
       18      227    1         2 MON BIT(1) UNAL,
       19      228    1         2 CODE UBIN(14) UNAL,
       20      229    1         2 SEV UBIN(3) UNAL;
       21      230
       22      231    1   DCL 1 DBD_ERR STATIC SYMDEF ALIGNED,
       23      232    1         2 FCG BIT(18) UNAL INIT('040204'O),
       24      233    1         2 MON BIT(1) UNAL INIT('0'B),
       25      234    1         2 CODE UBIN(14) UNAL INIT(0),
       26      235    1         2 SEV UBIN(3) UNAL INIT(0);
       27      236
       28      237    1   DCL DA_DELTA_FLG BIT(1) ALIGNED STATIC SYMDEF INIT('0'B);
       29      238        /*DCL DA_TRTN REMEMBER STATIC SYMDEF; look in DA_MAP_D, since DAM$DUMPFILE needs it
               238        */
       30      239    1   DCL DA_TRAPPED BIT(1) STATIC SYMDEF INIT('0'B);
       31      240    1   DCL 1 DA_GATETXT STATIC SYMDEF ALIGNED,
       32      241    1         2 L UBIN BYTE UNAL INIT(0),
       33      242    1         2 C CHAR(119) INIT(' ');
       34      243    1   DCL DA_XUR$ PTR STATIC SYMDEF;
       35      244    1   DCL DA_DFLT_RADIX UBIN STATIC SYMDEF INIT(8);
       36      245    1   DCL DA_MAXCHANS SBIN STATIC SYMDEF INIT(0);
PL6.E3A0      #001=DA_ANLZ_D File=DA_ANLZ_D.:E05TSI                              TUE 07/29/97 12:55 Page:6
       37      246
       38      247    1   DCL BLANK_LINE CHAR(4) CONSTANT SYMDEF INIT(' ');
       39      248
       40      249    1   DCL DB_BOBCAT$ UBIN CONSTANT SYMDEF INIT(%GM_BOBCAT_BASE);
       41      250    1   DCL DB_HANDQ$ UBIN CONSTANT SYMDEF INIT(%GM_HAND_Q_BASE);
       42      251    1   DCL DB_ROS$ UBIN CONSTANT SYMDEF INIT(%GM_ROS_BASE);
       43      252
       44      253    1   DCL DBD$FEPMAP$ PTR STATIC SYMDEF INIT(ADDR(NIL));
       45      254    1   END DA_ANLZ_D;

PL6.E3A0      #001=DA_ANLZ_D File=DA_ANLZ_D.:E05TSI                              TUE 07/29/97 12:55 Page:7
--  Include file information  --

   GM_VIRTUAL_E.:E05TOU  is referenced.
      No diagnostics issued in procedure DA_ANLZ_D.
PL6.E3A0      #001=DA_ANLZ_D File=DA_ANLZ_D.:E05TSI                              TUE 07/29/97 12:55 Page:8

 **** Variables and constants ****


   No code generated for procedure DA_ANLZ_D .
   Procedure DA_ANLZ_D is declared NOAUTO and requires 42 words of local(STATIC) storage.

    No errors detected in file DA_ANLZ_D.:E05TSI    .
PL6.E3A0      #001=DA_ANLZ_D File=DA_ANLZ_D.:E05TSI                              TUE 07/29/97 12:55 Page:9
          *** CROSS REFERENCE LISTING ***
**     DENOTES     IDENTIFIER DEFINITION
<<                 IDENTIFIER'S VALUE SET
>>                 IDENTIFIER'S VALUE USED
<>                 IDENTIFIER SET AND/OR USED
--                 IDENTIFIER REFERENCED
PL6.E3A0      #001=DA_ANLZ_D File=DA_ANLZ_D.:E05TSI                              TUE 07/29/97 12:55 Page:10
          MINI XREF LISTING

