VERSION E05

PL6.E3A0      #001=DA_COMMANDS_D File=DA_COMMANDS_D.:E05TSI                      TUE 07/29/97 12:55 Page:1
        1        1        /*M* DA_COMMANDS_D - COMMAND ARRAYS FOR DO ONCE AND PER USER COMMANDS */
        2        2        /*T***********************************************************/
        3        3        /*T*                                                         */
        4        4        /*T* Copyright (c) Bull HN Information Systems Inc., 1997    */
        5        5        /*T*                                                         */
        6        6        /*T***********************************************************/
        7        7        DA_COMMANDS_D: PROC NOAUTO;
        8        8        /**/
        9        9        %INCLUDE DA_CMD_C;
       10      358        /**/
       11      359        %MACRO COMMAND (ROUTINE=NIL);
       12      360                3 * EPTR INIT(ENTADDR(ROUTINE)),
       13      361        %MEND;
       14      362        /**/
       15      363    1   DCL 1 DA_CMDTBL$ CONSTANT SYMDEF ALIGNED,
       16      364    1         2 HOUSEKEEPING$ PTR INIT(ADDR(NIL)),
       17      365    1         2 DO_ONCE PTR INIT(ADDR(DA_ONCE_CMD)),
       18      366    1         2 PER_USER PTR INIT(ADDR(DA_PER_USER_CMD)),
       19      367    1         2 DELTA PTR INIT(ADDR(NIL)),
       20      368    1         2 MISC PTR INIT(ADDR(DA_MISC_CMD)),
       21      369    1         2 DUMP PTR INIT(ADDR(DA_DUMP_CMD)),
       22      370    1         2 FEPDUMP PTR INIT(ADDR(DB_DUMP_CMD)),
       23      371    1         2 FEPDISPLAY PTR INIT(ADDR(DB_DISPLAY_CMD)),
       24      372    1         2 * PTR INIT(ADDR(NIL));
       25      373        /**/
       26      374        /* DO-ONCE COMMAND ROUTINES */
       27      375        /**/
       28      376    1   DCL DAB$BANNER ENTRY;
       29      377    1   DCL DAD$ENQ ENTRY(1);
       30      378    1   DCL DAD$RECOVERY ENTRY;
       31      379    1   DCL DAD$RVBUF ENTRY;
       32      380    1   DCL DAD$DCT ENTRY(1);
       33      381    1   DCL DAD$IOCHAN ENTRY(1);
       34      382    1   DCL DAD$USRT ENTRY(1);
       35      383    1   DCL DAD$SCHED ENTRY;
       36      384    1   DCL DAD$SPY ENTRY(1);
       37      385    1   DCL DAD$RAT ENTRY(1);
PL6.E3A0      #001=DA_COMMANDS_D File=DA_COMMANDS_D.:E05TSI                      TUE 07/29/97 12:55 Page:2
       38      386    1   DCL DAD$CPUS ENTRY;
       39      387    1   DCL DAD$IOQ ENTRY(1);
       40      388    1   DCL DAD$CFUS ENTRY(1) OPTIONAL;
       41      389    1   DCL DAD$SPROC ENTRY(1) OPTIONAL;
       42      390    1   DCL DAD$EVBUF ENTRY OPTIONAL;
       43      391    1   DCL DAD$DDT ENTRY(1);
       44      392    1   DCL DAD$MPDUMP ENTRY(1);
       45      393    1   DCL DAD$CGS ENTRY(1);
       46      394    1   DCL DAD$CGMS ENTRY(1);
       47      395    1   DCL DAD$CGSTATS ENTRY(1);
       48      396    1   DCL DAD$DATACACHE ENTRY(1);
       49      397    1   DCL DAD$MMD ENTRY(1);
       50      398    1   DCL DAD$GARB ENTRY(1);
       51      399    1   DCL DAD$QUEUE ENTRY(1);
       52      400    1   DCL DAD$DTREE ENTRY(1);
       53      401    1   DCL DAD$STREE ENTRY(1);
       54      402    1   DCL DAD$TTREE ENTRY(1);
       55      403    1   DCL DAD$QTREE ENTRY(1);
       56      404    1   DCL DAD$MLH ENTRY(1);
       57      405    1   DCL DAD$DFRBLK ENTRY(1);
       58      406    1   DCL DAD$IOC ENTRY(1);
       59      407    1   DCL DAD$CGLOG ENTRY;
       60      408    1   DCL DAD$LDCT ENTRY(1);
       61      409    1   DCL DAD$GATE ENTRY(1);
       62      410    1   DCL DAD$ROUTE ENTRY(1);
       63      411    1   DCL DAD$FEI ENTRY(1);
       64      412    1   DCL DAD$SQH ENTRY(1);
       65      413    1   DCL DAD$ICQ ENTRY(1);
       66      414    1   DCL DAD$OCQ ENTRY(1);
       67      415    1   DCL DAD$TCTX ENTRY(1);
       68      416    1   DCL DAD$IOM ENTRY(1);
       69      417    1   DCL DAD$VCB ENTRY(1);
       70      418    1   DCL DAD$VSCHECK ENTRY(1);
       71      419    1   DCL DAD$PPUT ENTRY(1);
       72      420    1   DCL DAD$SCTX ENTRY(1);
       73      421    1   DCL DAD$CHECK_PPUT ENTRY;
       74      422    1   DCL DAD$MDCT ENTRY(1);
PL6.E3A0      #001=DA_COMMANDS_D File=DA_COMMANDS_D.:E05TSI                      TUE 07/29/97 12:55 Page:3
       75      423        /**/
       76      424    1   DCL 1 DA_ONCE_CMD CONSTANT SYMDEF ALIGNED,
       77      425    1         2 MAX SBIN INIT(SIZEW(DA_ONCE_CMD.VECTRS)),
       78      426    1         2 VECTRS,
       79      427                %COMMAND (ROUTINE=DAB$BANNER);
       80      430                %COMMAND (ROUTINE=DAD$RECOVERY);
       81      433                %COMMAND (ROUTINE=DAD$RVBUF);
       82      436                %COMMAND (ROUTINE=DAD$ENQ);
       83      439                %COMMAND (ROUTINE=DAD$DCT);
       84      442                %COMMAND (ROUTINE=DAD$IOCHAN);
       85      445                %COMMAND (ROUTINE=DAD$USRT);
       86      448                %COMMAND (ROUTINE=DAD$SCHED);
       87      451                %COMMAND (ROUTINE=DAD$SPY);
       88      454                %COMMAND (ROUTINE=DAD$RAT);
       89      457                %COMMAND (ROUTINE=DAD$CPUS);
       90      460                %COMMAND (ROUTINE=DAD$IOQ);
       91      463                %COMMAND (ROUTINE=DAD$CFUS);
       92      466                %COMMAND (ROUTINE=DAD$SPROC);
       93      469                %COMMAND (ROUTINE=DAD$EVBUF);
       94      472                %COMMAND (ROUTINE=DAD$DDT);
       95      475                %COMMAND (ROUTINE=DAD$MPDUMP);
       96      478                %COMMAND (ROUTINE=DAD$CGS);
       97      481                %COMMAND (ROUTINE=DAD$DATACACHE);
       98      484                %COMMAND (ROUTINE=DAD$MMD);
       99      487                %COMMAND (ROUTINE=DAD$GARB);
      100      490                %COMMAND (ROUTINE=DAD$QUEUE);
      101      493                %COMMAND (ROUTINE=DAD$DTREE);
      102      496                %COMMAND (ROUTINE=DAD$STREE);
      103      499                %COMMAND (ROUTINE=DAD$TTREE);
      104      502                %COMMAND (ROUTINE=DAD$QTREE);
      105      505                %COMMAND (ROUTINE=DAD$MLH);
      106      508                %COMMAND (ROUTINE=DAD$DFRBLK);
      107      511                %COMMAND (ROUTINE=DAD$CGLOG);
      108      514                %COMMAND (ROUTINE=DAD$IOC);
      109      517                %COMMAND (ROUTINE=DAD$LDCT);
      110      520                %COMMAND (ROUTINE=DAD$GATE);
      111      523                %COMMAND (ROUTINE=DAD$ROUTE);
PL6.E3A0      #001=DA_COMMANDS_D File=DA_COMMANDS_D.:E05TSI                      TUE 07/29/97 12:55 Page:4
      112      526                %COMMAND (ROUTINE=DAD$FEI);
      113      529                %COMMAND (ROUTINE=DAD$SQH);
      114      532                %COMMAND(ROUTINE=DAD$OCQ);
      115      535                %COMMAND(ROUTINE=DAD$ICQ);
      116      538                %COMMAND(ROUTINE=DAD$TCTX);
      117      541                %COMMAND (ROUTINE=DAD$IOM);
      118      544                %COMMAND (ROUTINE=DAD$VCB);
      119      547                %COMMAND(ROUTINE=DAD$VSCHECK);
      120      550                %COMMAND(ROUTINE=DAD$PPUT);
      121      553                %COMMAND (ROUTINE=DAD$CGMS);
      122      556                %COMMAND (ROUTINE=DAD$CGSTATS);
      123      559                %COMMAND (ROUTINE=DAD$SCTX);
      124      562                %COMMAND (ROUTINE=DAD$CHECK_PPUT);
      125      565                %COMMAND (ROUTINE=DAD$MDCT);
      126      568    1         2 * SBIN;
      127      569        /**/
      128      570        %EJECT;
PL6.E3A0      #001=DA_COMMANDS_D File=DA_COMMANDS_D.:E05TSI                      TUE 07/29/97 12:55 Page:5
      129      571        /**/
      130      572    1   DCL DAU$JIT ENTRY;
      131      573    1   DCL DAU$DCBS ENTRY(1);
      132      574    1   DCL DAU$TCB ENTRY(1);
      133      575        /**/
      134      576    1   DCL 1 DA_PER_USER_CMD CONSTANT SYMDEF ALIGNED,
      135      577    1         2 MAX SBIN INIT(SIZEW(DA_PER_USER_CMD.VECTRS)),
      136      578    1         2 VECTRS,
      137      579                %COMMAND (ROUTINE=DAU$JIT);
      138      582                %COMMAND (ROUTINE=DAU$DCBS);
      139      585                %COMMAND (ROUTINE=DAU$TCB);
      140      588    1         2 * SBIN;
      141      589        /**/
      142      590        %EJECT;
PL6.E3A0      #001=DA_COMMANDS_D File=DA_COMMANDS_D.:E05TSI                      TUE 07/29/97 12:55 Page:6
      143      591        /**/
      144      592    1   DCL DAD$CURCG ENTRY(1);
      145      593    1   DCL DAD$MSGLIST ENTRY(1);
      146      594    1   DCL DAU$WHOHAS ENTRY(1);
      147      595    1   DCL DBA$EVAL ENTRY(1);
      148      596    1   DCL DBA$ERROR ENTRY(1);
      149      597        /**/
      150      598    1   DCL 1 DA_MISC_CMD CONSTANT SYMDEF ALIGNED,
      151      599    1         2 MAX SBIN INIT(SIZEW(DA_MISC_CMD.VECTRS)),
      152      600    1         2 VECTRS,
      153      601                %COMMAND (ROUTINE=DAD$CURCG);
      154      604                %COMMAND (ROUTINE=DAD$MSGLIST);
      155      607                %COMMAND (ROUTINE=DAU$WHOHAS);
      156      610                %COMMAND (ROUTINE=DBA$EVAL);
      157      613                %COMMAND (ROUTINE=DBA$ERROR);
      158      616    1         2 * SBIN;
      159      617        /**/
      160      618        %EJECT;
PL6.E3A0      #001=DA_COMMANDS_D File=DA_COMMANDS_D.:E05TSI                      TUE 07/29/97 12:55 Page:7
      161      619        /**/
      162      620    1   DCL DAB$DUMP ENTRY(1);
      163      621    1   DCL DAB$SSDUMP ENTRY(1);
      164      622    1   DCL DAB$HISTREG ENTRY(1);
      165      623    1   DCL DAB$AUTODUMP ENTRY(1);
      166      624    1   DCL DAB$RESOLVE ENTRY(1);
      167      625    1   DCL DAB$LLIST ENTRY(1);
      168      626    1   DCL DAB$DFMT ENTRY(1);
      169      627        /**/
      170      628    1   DCL 1 DA_DUMP_CMD CONSTANT SYMDEF ALIGNED,
      171      629    1         2 MAX SBIN INIT(SIZEW(DA_DUMP_CMD.VECTRS)),
      172      630    1         2 VECTRS,
      173      631                %COMMAND (ROUTINE=DAB$DUMP);
      174      634                %COMMAND (ROUTINE=DAB$SSDUMP);
      175      637                %COMMAND (ROUTINE=DAB$AUTODUMP);
      176      640                %COMMAND (ROUTINE=DAB$HISTREG);
      177      643                %COMMAND (ROUTINE=DAB$RESOLVE);
      178      646                %COMMAND (ROUTINE=DAB$LLIST);
      179      649                %COMMAND (ROUTINE=DAB$DFMT);
      180      652
      181      653    1         2 * SBIN;
      182      654        /**/
      183      655        %EJECT;
PL6.E3A0      #001=DA_COMMANDS_D File=DA_COMMANDS_D.:E05TSI                      TUE 07/29/97 12:55 Page:8
      184      656        /**/
      185      657    1   DCL DBB$DUMP ENTRY(1);
      186      658        /**/
      187      659    1   DCL 1 DB_DUMP_CMD CONSTANT SYMDEF ALIGNED, /* FEP DUMP COMMANDS               */
      188      660    1         2 MAX SBIN INIT(SIZEW(DB_DUMP_CMD.VECTRS)),
      189      661    1         2 VECTRS,
      190      662                %COMMAND (ROUTINE=DBB$DUMP);
      191      665                %COMMAND (ROUTINE=DBB$DUMP);
      192      668                %COMMAND (ROUTINE=DBB$DUMP);
      193      671                %COMMAND (ROUTINE=DBB$DUMP);
      194      674                %COMMAND (ROUTINE=DBB$DUMP);
      195      677                %COMMAND (ROUTINE=DBB$DUMP);
      196      680                %COMMAND (ROUTINE=DBB$DUMP);
      197      683                %COMMAND (ROUTINE=DBB$DUMP);
      198      686                %COMMAND (ROUTINE=DBB$DUMP);
      199      689                %COMMAND (ROUTINE=DBB$DUMP);
      200      692    1         2 * SBIN;
      201      693        /**/
      202      694        /* DISPLAY COMMANDS */
      203      695        /**/
      204      696    1   DCL DBD$RECOVERY ENTRY;
      205      697    1   DCL DBD$SPY ENTRY(1);
      206      698    1   DCL DBD$BOBCAT ENTRY;
      207      699    1   DCL DBD$CHNTBL ENTRY(1);
      208      700    1   DCL DBD$STAT ENTRY(1);
      209      701    1   DCL DBD$LDCT ENTRY(1);
      210      702    1   DCL DBD$FMT ENTRY(1);
      211      703    1   DCL DBD$ADD ENTRY(1);
      212      704    1   DCL DBD$DROP ENTRY(1);
      213      705    1   DCL DBD$MEMORY ENTRY;
      214      706    1   DCL DBD$ROUTE ENTRY(1);
      215      707    1   DCL DBD$LINK ENTRY(1);
      216      708    1   DCL DBD$CHANNELS ENTRY(1);
      217      709    1   DCL DBD$SFILE ENTRY(1);
      218      710    1   DCL DBD$ACC_RES ENTRY;
      219      711    1   DCL DBA$RUE ENTRY(1);
      220      712    1   DCL DBD$JIT ENTRY(1);
PL6.E3A0      #001=DA_COMMANDS_D File=DA_COMMANDS_D.:E05TSI                      TUE 07/29/97 12:55 Page:9
      221      713    1   DCL DBD$TCB ENTRY(1);
      222      714    1   DCL DBD$ROS ENTRY(1);
      223      715    1   DCL DBD$USRT ENTRY(1);
      224      716    1   DCL DBD$INTCON ENTRY(1);
      225      717    1   DCL DBD$DCB ENTRY(1);
      226      718    1   DCL DBD$ECCB ENTRY(1);
      227      719    1   DCL DBD$PPUT ENTRY(1);
      228      720    1   DCL DBD$HMI ENTRY(1);
      229      721    1   DCL DBD$CQ ENTRY(1);
      230      722    1   DCL DBD$SSN ENTRY(1);
      231      723    1   DCL DBD$IOP ENTRY(1);
      232      724    1   DCL DBD$IOP_CHECK ENTRY(1);
      233      725    1   DCL DBD$SSN_CHECK ENTRY(1);
      234      726    1   DCL DBD$PPUT_CHECK ENTRY(1);
      235      727    1   DCL DBD$FEPMAP ENTRY;
      236      728    1   DCL DBD$SFILE_DATA ENTRY(1);
      237      729    1   DCL DBD$RCQ ENTRY(1);
      238      730    1   DCL DBD$SCQ ENTRY(1);
      239      731    1   DCL DBD$EVB ENTRY;
      240      732    1   DCL DBD$LDCT_CHECK ENTRY(1);
      241      733    1   DCL DBD$HMI_CHECK ENTRY(1);
      242      734    1   DCL DBD$TCTX ENTRY(1);
      243      735    1   DCL DBD$TCTX_CHECK ENTRY(1);
      244      736        /**/
      245      737    1   DCL 1 DB_DISPLAY_CMD CONSTANT SYMDEF ALIGNED,
      246      738    1         2 MAX SBIN INIT(SIZEW(DB_DISPLAY_CMD.VECTRS)),
      247      739    1         2 VECTRS,
      248      740                %COMMAND (ROUTINE=DBD$RECOVERY);
      249      743                %COMMAND (ROUTINE=DBA$EVAL);
      250      746                %COMMAND (ROUTINE=DBD$SPY);
      251      749                %COMMAND (ROUTINE=DBA$ERROR);
      252      752                %COMMAND (ROUTINE=DBD$BOBCAT);
      253      755                %COMMAND (ROUTINE=DBD$CHNTBL);
      254      758                %COMMAND (ROUTINE=DBD$STAT);
      255      761                %COMMAND (ROUTINE=DBD$LDCT);
      256      764                %COMMAND(ROUTINE=DBD$FMT);
      257      767                %COMMAND(ROUTINE=DBD$ADD);
PL6.E3A0      #001=DA_COMMANDS_D File=DA_COMMANDS_D.:E05TSI                      TUE 07/29/97 12:55 Page:10
      258      770                %COMMAND(ROUTINE=DBD$DROP);
      259      773                %COMMAND (ROUTINE=DBD$MEMORY);
      260      776                %COMMAND (ROUTINE=DBD$ROUTE);
      261      779                %COMMAND (ROUTINE=DBD$LINK);
      262      782                %COMMAND (ROUTINE=DBD$CHANNELS);
      263      785                %COMMAND (ROUTINE=DBD$CQ);
      264      788                %COMMAND (ROUTINE=DBD$SFILE);
      265      791                %COMMAND (ROUTINE=DBD$ACC_RES);
      266      794                %COMMAND (ROUTINE=DBA$RUE);
      267      797                %COMMAND (ROUTINE=DBD$JIT);
      268      800                %COMMAND (ROUTINE=DBD$TCB);
      269      803                %COMMAND (ROUTINE=DBD$ROS);
      270      806                %COMMAND (ROUTINE=DBD$USRT);
      271      809                %COMMAND (ROUTINE=DBD$INTCON);
      272      812                %COMMAND (ROUTINE=DBD$DCB);
      273      815                %COMMAND (ROUTINE=DBD$ECCB);
      274      818                %COMMAND (ROUTINE=DBD$PPUT);
      275      821                %COMMAND (ROUTINE=DBD$HMI);
      276      824                %COMMAND (ROUTINE=DBD$SSN);
      277      827                %COMMAND (ROUTINE=DBD$IOP);
      278      830                %COMMAND (ROUTINE=DBD$IOP_CHECK);
      279      833                %COMMAND (ROUTINE=DBD$SSN_CHECK);
      280      836                %COMMAND (ROUTINE=DBD$PPUT_CHECK);
      281      839                %COMMAND (ROUTINE=DBD$FEPMAP);
      282      842                %COMMAND (ROUTINE=DBD$SFILE_DATA);
      283      845                %COMMAND (ROUTINE=DBD$RCQ);
      284      848                %COMMAND (ROUTINE=DBD$SCQ);
      285      851                %COMMAND (ROUTINE=DBD$EVB);
      286      854                %COMMAND (ROUTINE=DBD$LDCT_CHECK);
      287      857                %COMMAND (ROUTINE=DBD$HMI_CHECK);
      288      860                %COMMAND (ROUTINE=DBD$TCTX);
      289      863                %COMMAND (ROUTINE=DBD$TCTX_CHECK);
      290      866    1         2 * SBIN;
      291      867    1   END DA_COMMANDS_D;

PL6.E3A0      #001=DA_COMMANDS_D File=DA_COMMANDS_D.:E05TSI                      TUE 07/29/97 12:55 Page:11
--  Include file information  --

   DA_CMD_C.:E05TOU  is referenced.
      No diagnostics issued in procedure DA_COMMANDS_D.

   No code generated for procedure DA_COMMANDS_D .
   Procedure DA_COMMANDS_D is declared NOAUTO and requires 2 words of local(STATIC) storage.

    No errors detected in file DA_COMMANDS_D.:E05TSI    .

PL6.E3A0      #001=DA_COMMANDS_D File=DA_COMMANDS_D.:E05TSI                      TUE 07/29/97 12:55 Page:12

 Object Unit name= DA_COMMANDS_D                              File name= DA_COMMANDS_D.:E05TOU
 UTS= JUL 29 '97 12:55:40.24 TUE                              Compiler= PL-6/E31         Sev=      00
 SharedLib= :SHARED_SYSTEM                                    Alt SharedLib=


    ****  Control sections  ****

 Sect   Type Bound  Init  Size OctSiz  Section name(segment info)
    0   Data  even  none     2      2  DA_COMMANDS_D
    1  RoData even  UTS    135    207  DA_COMMANDS_D
    2   Proc  even  none     0      0  DA_COMMANDS_D

    ****  Entry defs  ****

                              Check   Calling
                             calling  sequence
  Sect OctLoc Primary Altret sequence   type   Parms  Name
     2      0   yes            yes     ~proc       0  DA_COMMANDS_D

  ****  Data defs  ****

 Sect OctLoc  Name                           Sect OctLoc  Name
    1      0  DA_CMDTBL$                         1     11  DA_ONCE_CMD
    1     72  DA_PER_USER_CMD                    1     77  DA_MISC_CMD
    1    106  DA_DUMP_CMD                        1    117  DB_DUMP_CMD
    1    133  DB_DISPLAY_CMD
PL6.E3A0      #001=DA_COMMANDS_D File=DA_COMMANDS_D.:E05TSI                      TUE 07/29/97 12:55 Page:13

  ****  Entry refs  ****

         Check        Calling
        calling       sequence
Altret sequence SRef   type   Args  Name
         yes           Std       0 DAB$BANNER
         yes           Std       0 DAD$RECOVERY
         yes           Std       1 DAD$IOQ
         yes    yes    Std       0 DAD$EVBUF
         yes           Std       1 DAD$GATE
         yes           Std       1 DAD$SCTX
         yes    yes    Std       1 DAD$CFUS
         yes           Std       1 DAD$MMD
         yes           Std       1 DBD$CQ
         yes           Std       0 DBD$ACC_RES
         yes           Std       1 DBD$PPUT_CHECK
         yes           Std       0 DBD$EVB
         yes           Std       1 DAB$RESOLVE
         yes           Std       1 DBD$DROP
         yes           Std       1 DAD$FEI
         yes           Std       1 DBD$INTCON
         yes           Std       1 DBD$SCQ
         yes           Std       1 DAD$IOCHAN
         yes           Std       0 DAD$SCHED
         yes           Std       1 DBD$ROS
         yes           Std       1 DAD$QTREE
         yes           Std       0 DAD$CGLOG
         yes           Std       1 DBD$SSN_CHECK
         yes           Std       0 DAD$RVBUF
         yes           Std       1 DAD$ENQ
         yes           Std       0 DAD$CPUS
         yes    yes    Std       1 DAD$SPROC
         yes           Std       1 DAD$OCQ
         yes           Std       1 DAB$HISTREG
         yes           Std       1 DBD$ADD
         yes           Std       1 DBD$LDCT
         yes           Std       1 DAD$ICQ
PL6.E3A0      #001=DA_COMMANDS_D File=DA_COMMANDS_D.:E05TSI                      TUE 07/29/97 12:55 Page:14
         yes           Std       1 DAU$DCBS
         yes           Std       1 DBD$IOP
         yes           Std       1 DBD$ROUTE
         yes           Std       1 DBA$RUE
         yes           Std       1 DBD$DCB
         yes           Std       1 DAD$DCT
         yes           Std       1 DAD$SPY
         yes           Std       1 DAD$DDT
         yes           Std       1 DAD$GARB
         yes           Std       1 DAD$DTREE
         yes           Std       1 DAD$LDCT
         yes           Std       1 DAD$PPUT
         yes           Std       1 DBD$PPUT
         yes           Std       1 DBD$TCTX_CHECK
         yes           Std       1 DAD$IOC
         yes           Std       1 DAD$SQH
         yes           Std       1 DBD$SPY
         yes           Std       1 DAD$TCTX
         yes           Std       1 DAB$SSDUMP
         yes           Std       1 DAD$CURCG
         yes           Std       1 DBA$ERROR
         yes           Std       1 DBD$SFILE_DATA
         yes           Std       1 DAB$DFMT
         yes           Std       1 DAD$CGS
         yes           Std       1 DBD$JIT
         yes           Std       1 DBD$USRT
         yes           Std       0 DBD$FEPMAP
         yes           Std       1 DBD$SSN
         yes           Std       1 DAD$USRT
         yes           Std       1 DAD$RAT
         yes           Std       1 DAD$DFRBLK
         yes           Std       1 DAD$VSCHECK
         yes           Std       0 DAD$CHECK_PPUT
         yes           Std       1 DBD$CHNTBL
         yes           Std       1 DBB$DUMP
         yes           Std       1 DAD$CGMS
         yes           Std       1 DAD$CGSTATS
PL6.E3A0      #001=DA_COMMANDS_D File=DA_COMMANDS_D.:E05TSI                      TUE 07/29/97 12:55 Page:15
         yes           Std       1 DAB$DUMP
         yes           Std       1 DAD$MSGLIST
         yes           Std       1 DBD$STAT
         yes           Std       0 DBD$MEMORY
         yes           Std       1 DBD$SFILE
         yes           Std       1 DBD$HMI
         yes           Std       1 DBD$TCB
         yes           Std       1 DBD$ECCB
         yes           Std       1 DAD$DATACACHE
         yes           Std       1 DAU$WHOHAS
         yes           Std       1 DBD$LINK
         yes           Std       1 DAD$MPDUMP
         yes           Std       1 DAD$TTREE
         yes           Std       1 DBD$FMT
         yes           Std       1 DBD$LDCT_CHECK
         yes           Std       1 DBD$RCQ
         yes           Std       1 DAD$QUEUE
         yes           Std       1 DAD$IOM
         yes           Std       1 DAD$MDCT
         yes           Std       0 DAU$JIT
         yes           Std       1 DBA$EVAL
         yes           Std       0 DBD$BOBCAT
         yes           Std       1 DAD$STREE
         yes           Std       1 DAD$MLH
         yes           Std       1 DAB$LLIST
         yes           Std       1 DBD$TCTX
         yes           Std       1 DAD$ROUTE
         yes           Std       1 DBD$CHANNELS
         yes           Std       1 DBD$IOP_CHECK
         yes           Std       1 DAD$VCB
         yes           Std       1 DAU$TCB
         yes           Std       1 DAB$AUTODUMP
         yes           Std       1 DBD$HMI_CHECK
         yes           Std       0 DBD$RECOVERY
PL6.E3A0      #001=DA_COMMANDS_D File=DA_COMMANDS_D.:E05TSI                      TUE 07/29/97 12:55 Page:16

  ****  Segment refs  ****

  Flags:  r = read only, s = secondary
Flgs Name                             Flgs Name                             Flgs Name
     NULLSID                               ISSID
PL6.E3A0      #001=DA_COMMANDS_D File=DA_COMMANDS_D.:E05TSI                      TUE 07/29/97 12:55 Page:17

        1        1        /*M* DA_COMMANDS_D - COMMAND ARRAYS FOR DO ONCE AND PER USER COMMANDS */
        2        2        /*T***********************************************************/
        3        3        /*T*                                                         */
        4        4        /*T* Copyright (c) Bull HN Information Systems Inc., 1997    */
        5        5        /*T*                                                         */
        6        6        /*T***********************************************************/
        7        7        DA_COMMANDS_D: PROC NOAUTO;
        8        8        /**/
        9        9        %INCLUDE DA_CMD_C;
       10      358        /**/
       11      359        %MACRO COMMAND (ROUTINE=NIL);
       12      360                3 * EPTR INIT(ENTADDR(ROUTINE)),
       13      361        %MEND;
       14      362        /**/
       15      363    1   DCL 1 DA_CMDTBL$ CONSTANT SYMDEF ALIGNED,
       16      364    1         2 HOUSEKEEPING$ PTR INIT(ADDR(NIL)),
       17      365    1         2 DO_ONCE PTR INIT(ADDR(DA_ONCE_CMD)),
       18      366    1         2 PER_USER PTR INIT(ADDR(DA_PER_USER_CMD)),
       19      367    1         2 DELTA PTR INIT(ADDR(NIL)),
       20      368    1         2 MISC PTR INIT(ADDR(DA_MISC_CMD)),
       21      369    1         2 DUMP PTR INIT(ADDR(DA_DUMP_CMD)),
       22      370    1         2 FEPDUMP PTR INIT(ADDR(DB_DUMP_CMD)),
       23      371    1         2 FEPDISPLAY PTR INIT(ADDR(DB_DISPLAY_CMD)),
       24      372    1         2 * PTR INIT(ADDR(NIL));
       25      373        /**/
       26      374        /* DO-ONCE COMMAND ROUTINES */
       27      375        /**/
       28      376    1   DCL DAB$BANNER ENTRY;
       29      377    1   DCL DAD$ENQ ENTRY(1);
       30      378    1   DCL DAD$RECOVERY ENTRY;
       31      379    1   DCL DAD$RVBUF ENTRY;
       32      380    1   DCL DAD$DCT ENTRY(1);
       33      381    1   DCL DAD$IOCHAN ENTRY(1);
       34      382    1   DCL DAD$USRT ENTRY(1);
       35      383    1   DCL DAD$SCHED ENTRY;
       36      384    1   DCL DAD$SPY ENTRY(1);
       37      385    1   DCL DAD$RAT ENTRY(1);
PL6.E3A0      #001=DA_COMMANDS_D File=DA_COMMANDS_D.:E05TSI                      TUE 07/29/97 12:55 Page:18
       38      386    1   DCL DAD$CPUS ENTRY;
       39      387    1   DCL DAD$IOQ ENTRY(1);
       40      388    1   DCL DAD$CFUS ENTRY(1) OPTIONAL;
       41      389    1   DCL DAD$SPROC ENTRY(1) OPTIONAL;
       42      390    1   DCL DAD$EVBUF ENTRY OPTIONAL;
       43      391    1   DCL DAD$DDT ENTRY(1);
       44      392    1   DCL DAD$MPDUMP ENTRY(1);
       45      393    1   DCL DAD$CGS ENTRY(1);
       46      394    1   DCL DAD$CGMS ENTRY(1);
       47      395    1   DCL DAD$CGSTATS ENTRY(1);
       48      396    1   DCL DAD$DATACACHE ENTRY(1);
       49      397    1   DCL DAD$MMD ENTRY(1);
       50      398    1   DCL DAD$GARB ENTRY(1);
       51      399    1   DCL DAD$QUEUE ENTRY(1);
       52      400    1   DCL DAD$DTREE ENTRY(1);
       53      401    1   DCL DAD$STREE ENTRY(1);
       54      402    1   DCL DAD$TTREE ENTRY(1);
       55      403    1   DCL DAD$QTREE ENTRY(1);
       56      404    1   DCL DAD$MLH ENTRY(1);
       57      405    1   DCL DAD$DFRBLK ENTRY(1);
       58      406    1   DCL DAD$IOC ENTRY(1);
       59      407    1   DCL DAD$CGLOG ENTRY;
       60      408    1   DCL DAD$LDCT ENTRY(1);
       61      409    1   DCL DAD$GATE ENTRY(1);
       62      410    1   DCL DAD$ROUTE ENTRY(1);
       63      411    1   DCL DAD$FEI ENTRY(1);
       64      412    1   DCL DAD$SQH ENTRY(1);
       65      413    1   DCL DAD$ICQ ENTRY(1);
       66      414    1   DCL DAD$OCQ ENTRY(1);
       67      415    1   DCL DAD$TCTX ENTRY(1);
       68      416    1   DCL DAD$IOM ENTRY(1);
       69      417    1   DCL DAD$VCB ENTRY(1);
       70      418    1   DCL DAD$VSCHECK ENTRY(1);
       71      419    1   DCL DAD$PPUT ENTRY(1);
       72      420    1   DCL DAD$SCTX ENTRY(1);
       73      421    1   DCL DAD$CHECK_PPUT ENTRY;
       74      422    1   DCL DAD$MDCT ENTRY(1);
PL6.E3A0      #001=DA_COMMANDS_D File=DA_COMMANDS_D.:E05TSI                      TUE 07/29/97 12:55 Page:19
       75      423        /**/
       76      424    1   DCL 1 DA_ONCE_CMD CONSTANT SYMDEF ALIGNED,
       77      425    1         2 MAX SBIN INIT(SIZEW(DA_ONCE_CMD.VECTRS)),
       78      426    1         2 VECTRS,
       79      427                %COMMAND (ROUTINE=DAB$BANNER);
       80      430                %COMMAND (ROUTINE=DAD$RECOVERY);
       81      433                %COMMAND (ROUTINE=DAD$RVBUF);
       82      436                %COMMAND (ROUTINE=DAD$ENQ);
       83      439                %COMMAND (ROUTINE=DAD$DCT);
       84      442                %COMMAND (ROUTINE=DAD$IOCHAN);
       85      445                %COMMAND (ROUTINE=DAD$USRT);
       86      448                %COMMAND (ROUTINE=DAD$SCHED);
       87      451                %COMMAND (ROUTINE=DAD$SPY);
       88      454                %COMMAND (ROUTINE=DAD$RAT);
       89      457                %COMMAND (ROUTINE=DAD$CPUS);
       90      460                %COMMAND (ROUTINE=DAD$IOQ);
       91      463                %COMMAND (ROUTINE=DAD$CFUS);
       92      466                %COMMAND (ROUTINE=DAD$SPROC);
       93      469                %COMMAND (ROUTINE=DAD$EVBUF);
       94      472                %COMMAND (ROUTINE=DAD$DDT);
       95      475                %COMMAND (ROUTINE=DAD$MPDUMP);
       96      478                %COMMAND (ROUTINE=DAD$CGS);
       97      481                %COMMAND (ROUTINE=DAD$DATACACHE);
       98      484                %COMMAND (ROUTINE=DAD$MMD);
       99      487                %COMMAND (ROUTINE=DAD$GARB);
      100      490                %COMMAND (ROUTINE=DAD$QUEUE);
      101      493                %COMMAND (ROUTINE=DAD$DTREE);
      102      496                %COMMAND (ROUTINE=DAD$STREE);
      103      499                %COMMAND (ROUTINE=DAD$TTREE);
      104      502                %COMMAND (ROUTINE=DAD$QTREE);
      105      505                %COMMAND (ROUTINE=DAD$MLH);
      106      508                %COMMAND (ROUTINE=DAD$DFRBLK);
      107      511                %COMMAND (ROUTINE=DAD$CGLOG);
      108      514                %COMMAND (ROUTINE=DAD$IOC);
      109      517                %COMMAND (ROUTINE=DAD$LDCT);
      110      520                %COMMAND (ROUTINE=DAD$GATE);
      111      523                %COMMAND (ROUTINE=DAD$ROUTE);
PL6.E3A0      #001=DA_COMMANDS_D File=DA_COMMANDS_D.:E05TSI                      TUE 07/29/97 12:55 Page:20
      112      526                %COMMAND (ROUTINE=DAD$FEI);
      113      529                %COMMAND (ROUTINE=DAD$SQH);
      114      532                %COMMAND(ROUTINE=DAD$OCQ);
      115      535                %COMMAND(ROUTINE=DAD$ICQ);
      116      538                %COMMAND(ROUTINE=DAD$TCTX);
      117      541                %COMMAND (ROUTINE=DAD$IOM);
      118      544                %COMMAND (ROUTINE=DAD$VCB);
      119      547                %COMMAND(ROUTINE=DAD$VSCHECK);
      120      550                %COMMAND(ROUTINE=DAD$PPUT);
      121      553                %COMMAND (ROUTINE=DAD$CGMS);
      122      556                %COMMAND (ROUTINE=DAD$CGSTATS);
      123      559                %COMMAND (ROUTINE=DAD$SCTX);
      124      562                %COMMAND (ROUTINE=DAD$CHECK_PPUT);
      125      565                %COMMAND (ROUTINE=DAD$MDCT);
      126      568    1         2 * SBIN;
      127      569        /**/
      128      570        %EJECT;
PL6.E3A0      #001=DA_COMMANDS_D File=DA_COMMANDS_D.:E05TSI                      TUE 07/29/97 12:55 Page:21
      129      571        /**/
      130      572    1   DCL DAU$JIT ENTRY;
      131      573    1   DCL DAU$DCBS ENTRY(1);
      132      574    1   DCL DAU$TCB ENTRY(1);
      133      575        /**/
      134      576    1   DCL 1 DA_PER_USER_CMD CONSTANT SYMDEF ALIGNED,
      135      577    1         2 MAX SBIN INIT(SIZEW(DA_PER_USER_CMD.VECTRS)),
      136      578    1         2 VECTRS,
      137      579                %COMMAND (ROUTINE=DAU$JIT);
      138      582                %COMMAND (ROUTINE=DAU$DCBS);
      139      585                %COMMAND (ROUTINE=DAU$TCB);
      140      588    1         2 * SBIN;
      141      589        /**/
      142      590        %EJECT;
PL6.E3A0      #001=DA_COMMANDS_D File=DA_COMMANDS_D.:E05TSI                      TUE 07/29/97 12:55 Page:22
      143      591        /**/
      144      592    1   DCL DAD$CURCG ENTRY(1);
      145      593    1   DCL DAD$MSGLIST ENTRY(1);
      146      594    1   DCL DAU$WHOHAS ENTRY(1);
      147      595    1   DCL DBA$EVAL ENTRY(1);
      148      596    1   DCL DBA$ERROR ENTRY(1);
      149      597        /**/
      150      598    1   DCL 1 DA_MISC_CMD CONSTANT SYMDEF ALIGNED,
      151      599    1         2 MAX SBIN INIT(SIZEW(DA_MISC_CMD.VECTRS)),
      152      600    1         2 VECTRS,
      153      601                %COMMAND (ROUTINE=DAD$CURCG);
      154      604                %COMMAND (ROUTINE=DAD$MSGLIST);
      155      607                %COMMAND (ROUTINE=DAU$WHOHAS);
      156      610                %COMMAND (ROUTINE=DBA$EVAL);
      157      613                %COMMAND (ROUTINE=DBA$ERROR);
      158      616    1         2 * SBIN;
      159      617        /**/
      160      618        %EJECT;
PL6.E3A0      #001=DA_COMMANDS_D File=DA_COMMANDS_D.:E05TSI                      TUE 07/29/97 12:55 Page:23
      161      619        /**/
      162      620    1   DCL DAB$DUMP ENTRY(1);
      163      621    1   DCL DAB$SSDUMP ENTRY(1);
      164      622    1   DCL DAB$HISTREG ENTRY(1);
      165      623    1   DCL DAB$AUTODUMP ENTRY(1);
      166      624    1   DCL DAB$RESOLVE ENTRY(1);
      167      625    1   DCL DAB$LLIST ENTRY(1);
      168      626    1   DCL DAB$DFMT ENTRY(1);
      169      627        /**/
      170      628    1   DCL 1 DA_DUMP_CMD CONSTANT SYMDEF ALIGNED,
      171      629    1         2 MAX SBIN INIT(SIZEW(DA_DUMP_CMD.VECTRS)),
      172      630    1         2 VECTRS,
      173      631                %COMMAND (ROUTINE=DAB$DUMP);
      174      634                %COMMAND (ROUTINE=DAB$SSDUMP);
      175      637                %COMMAND (ROUTINE=DAB$AUTODUMP);
      176      640                %COMMAND (ROUTINE=DAB$HISTREG);
      177      643                %COMMAND (ROUTINE=DAB$RESOLVE);
      178      646                %COMMAND (ROUTINE=DAB$LLIST);
      179      649                %COMMAND (ROUTINE=DAB$DFMT);
      180      652
      181      653    1         2 * SBIN;
      182      654        /**/
      183      655        %EJECT;
PL6.E3A0      #001=DA_COMMANDS_D File=DA_COMMANDS_D.:E05TSI                      TUE 07/29/97 12:55 Page:24
      184      656        /**/
      185      657    1   DCL DBB$DUMP ENTRY(1);
      186      658        /**/
      187      659    1   DCL 1 DB_DUMP_CMD CONSTANT SYMDEF ALIGNED, /* FEP DUMP COMMANDS               */
      188      660    1         2 MAX SBIN INIT(SIZEW(DB_DUMP_CMD.VECTRS)),
      189      661    1         2 VECTRS,
      190      662                %COMMAND (ROUTINE=DBB$DUMP);
      191      665                %COMMAND (ROUTINE=DBB$DUMP);
      192      668                %COMMAND (ROUTINE=DBB$DUMP);
      193      671                %COMMAND (ROUTINE=DBB$DUMP);
      194      674                %COMMAND (ROUTINE=DBB$DUMP);
      195      677                %COMMAND (ROUTINE=DBB$DUMP);
      196      680                %COMMAND (ROUTINE=DBB$DUMP);
      197      683                %COMMAND (ROUTINE=DBB$DUMP);
      198      686                %COMMAND (ROUTINE=DBB$DUMP);
      199      689                %COMMAND (ROUTINE=DBB$DUMP);
      200      692    1         2 * SBIN;
      201      693        /**/
      202      694        /* DISPLAY COMMANDS */
      203      695        /**/
      204      696    1   DCL DBD$RECOVERY ENTRY;
      205      697    1   DCL DBD$SPY ENTRY(1);
      206      698    1   DCL DBD$BOBCAT ENTRY;
      207      699    1   DCL DBD$CHNTBL ENTRY(1);
      208      700    1   DCL DBD$STAT ENTRY(1);
      209      701    1   DCL DBD$LDCT ENTRY(1);
      210      702    1   DCL DBD$FMT ENTRY(1);
      211      703    1   DCL DBD$ADD ENTRY(1);
      212      704    1   DCL DBD$DROP ENTRY(1);
      213      705    1   DCL DBD$MEMORY ENTRY;
      214      706    1   DCL DBD$ROUTE ENTRY(1);
      215      707    1   DCL DBD$LINK ENTRY(1);
      216      708    1   DCL DBD$CHANNELS ENTRY(1);
      217      709    1   DCL DBD$SFILE ENTRY(1);
      218      710    1   DCL DBD$ACC_RES ENTRY;
      219      711    1   DCL DBA$RUE ENTRY(1);
      220      712    1   DCL DBD$JIT ENTRY(1);
PL6.E3A0      #001=DA_COMMANDS_D File=DA_COMMANDS_D.:E05TSI                      TUE 07/29/97 12:55 Page:25
      221      713    1   DCL DBD$TCB ENTRY(1);
      222      714    1   DCL DBD$ROS ENTRY(1);
      223      715    1   DCL DBD$USRT ENTRY(1);
      224      716    1   DCL DBD$INTCON ENTRY(1);
      225      717    1   DCL DBD$DCB ENTRY(1);
      226      718    1   DCL DBD$ECCB ENTRY(1);
      227      719    1   DCL DBD$PPUT ENTRY(1);
      228      720    1   DCL DBD$HMI ENTRY(1);
      229      721    1   DCL DBD$CQ ENTRY(1);
      230      722    1   DCL DBD$SSN ENTRY(1);
      231      723    1   DCL DBD$IOP ENTRY(1);
      232      724    1   DCL DBD$IOP_CHECK ENTRY(1);
      233      725    1   DCL DBD$SSN_CHECK ENTRY(1);
      234      726    1   DCL DBD$PPUT_CHECK ENTRY(1);
      235      727    1   DCL DBD$FEPMAP ENTRY;
      236      728    1   DCL DBD$SFILE_DATA ENTRY(1);
      237      729    1   DCL DBD$RCQ ENTRY(1);
      238      730    1   DCL DBD$SCQ ENTRY(1);
      239      731    1   DCL DBD$EVB ENTRY;
      240      732    1   DCL DBD$LDCT_CHECK ENTRY(1);
      241      733    1   DCL DBD$HMI_CHECK ENTRY(1);
      242      734    1   DCL DBD$TCTX ENTRY(1);
      243      735    1   DCL DBD$TCTX_CHECK ENTRY(1);
      244      736        /**/
      245      737    1   DCL 1 DB_DISPLAY_CMD CONSTANT SYMDEF ALIGNED,
      246      738    1         2 MAX SBIN INIT(SIZEW(DB_DISPLAY_CMD.VECTRS)),
      247      739    1         2 VECTRS,
      248      740                %COMMAND (ROUTINE=DBD$RECOVERY);
      249      743                %COMMAND (ROUTINE=DBA$EVAL);
      250      746                %COMMAND (ROUTINE=DBD$SPY);
      251      749                %COMMAND (ROUTINE=DBA$ERROR);
      252      752                %COMMAND (ROUTINE=DBD$BOBCAT);
      253      755                %COMMAND (ROUTINE=DBD$CHNTBL);
      254      758                %COMMAND (ROUTINE=DBD$STAT);
      255      761                %COMMAND (ROUTINE=DBD$LDCT);
      256      764                %COMMAND(ROUTINE=DBD$FMT);
      257      767                %COMMAND(ROUTINE=DBD$ADD);
PL6.E3A0      #001=DA_COMMANDS_D File=DA_COMMANDS_D.:E05TSI                      TUE 07/29/97 12:55 Page:26
      258      770                %COMMAND(ROUTINE=DBD$DROP);
      259      773                %COMMAND (ROUTINE=DBD$MEMORY);
      260      776                %COMMAND (ROUTINE=DBD$ROUTE);
      261      779                %COMMAND (ROUTINE=DBD$LINK);
      262      782                %COMMAND (ROUTINE=DBD$CHANNELS);
      263      785                %COMMAND (ROUTINE=DBD$CQ);
      264      788                %COMMAND (ROUTINE=DBD$SFILE);
      265      791                %COMMAND (ROUTINE=DBD$ACC_RES);
      266      794                %COMMAND (ROUTINE=DBA$RUE);
      267      797                %COMMAND (ROUTINE=DBD$JIT);
      268      800                %COMMAND (ROUTINE=DBD$TCB);
      269      803                %COMMAND (ROUTINE=DBD$ROS);
      270      806                %COMMAND (ROUTINE=DBD$USRT);
      271      809                %COMMAND (ROUTINE=DBD$INTCON);
      272      812                %COMMAND (ROUTINE=DBD$DCB);
      273      815                %COMMAND (ROUTINE=DBD$ECCB);
      274      818                %COMMAND (ROUTINE=DBD$PPUT);
      275      821                %COMMAND (ROUTINE=DBD$HMI);
      276      824                %COMMAND (ROUTINE=DBD$SSN);
      277      827                %COMMAND (ROUTINE=DBD$IOP);
      278      830                %COMMAND (ROUTINE=DBD$IOP_CHECK);
      279      833                %COMMAND (ROUTINE=DBD$SSN_CHECK);
      280      836                %COMMAND (ROUTINE=DBD$PPUT_CHECK);
      281      839                %COMMAND (ROUTINE=DBD$FEPMAP);
      282      842                %COMMAND (ROUTINE=DBD$SFILE_DATA);
      283      845                %COMMAND (ROUTINE=DBD$RCQ);
      284      848                %COMMAND (ROUTINE=DBD$SCQ);
      285      851                %COMMAND (ROUTINE=DBD$EVB);
      286      854                %COMMAND (ROUTINE=DBD$LDCT_CHECK);
      287      857                %COMMAND (ROUTINE=DBD$HMI_CHECK);
      288      860                %COMMAND (ROUTINE=DBD$TCTX);
      289      863                %COMMAND (ROUTINE=DBD$TCTX_CHECK);
      290      866    1         2 * SBIN;
      291      867    1   END DA_COMMANDS_D;

PL6.E3A0      #001=DA_COMMANDS_D File=DA_COMMANDS_D.:E05TSI                      TUE 07/29/97 12:55 Page:27
--  Include file information  --

   DA_CMD_C.:E05TOU  is referenced.
      No diagnostics issued in procedure DA_COMMANDS_D.
PL6.E3A0      #001=DA_COMMANDS_D File=DA_COMMANDS_D.:E05TSI                      TUE 07/29/97 12:55 Page:28

 **** Variables and constants ****

  ****  Section 001 RoData DA_COMMANDS_D

  ****  Scalars and arrays  ****
OctLoc.c.b A Datatyp(siz) R M Lvl/name                 OctLoc.c.b A Datatyp(siz) R M Lvl/name

   106-0-0/w STRC(324)   r     1 DA_DUMP_CMD               77-0-0/w STRC(252)   r     1 DA_MISC_CMD
    11-0-0/w STRC(1764)  r     1 DA_ONCE_CMD               72-0-0/w STRC(180)   r     1 DA_PER_USER_CMD
   133-0-0/w STRC(1584)  r     1 DB_DISPLAY_CMD           117-0-0/w STRC(432)   r     1 DB_DUMP_CMD


   No code generated for procedure DA_COMMANDS_D .
   Procedure DA_COMMANDS_D is declared NOAUTO and requires 2 words of local(STATIC) storage.

    No errors detected in file DA_COMMANDS_D.:E05TSI    .
PL6.E3A0      #001=DA_COMMANDS_D File=DA_COMMANDS_D.:E05TSI                      TUE 07/29/97 12:55 Page:29
          *** CROSS REFERENCE LISTING ***
**     DENOTES     IDENTIFIER DEFINITION
<<                 IDENTIFIER'S VALUE SET
>>                 IDENTIFIER'S VALUE USED
<>                 IDENTIFIER SET AND/OR USED
--                 IDENTIFIER REFERENCED
PL6.E3A0      #001=DA_COMMANDS_D File=DA_COMMANDS_D.:E05TSI                      TUE 07/29/97 12:55 Page:30
          MINI XREF LISTING

DAB$AUTODUMP
       623**DCL-ENT   638--DCLINIT
DAB$BANNER
       376**DCL-ENT   428--DCLINIT
DAB$DFMT
       626**DCL-ENT   650--DCLINIT
DAB$DUMP
       620**DCL-ENT   632--DCLINIT
DAB$HISTREG
       622**DCL-ENT   641--DCLINIT
DAB$LLIST
       625**DCL-ENT   647--DCLINIT
DAB$RESOLVE
       624**DCL-ENT   644--DCLINIT
DAB$SSDUMP
       621**DCL-ENT   635--DCLINIT
DAD$CFUS
       388**DCL-ENT   464--DCLINIT
DAD$CGLOG
       407**DCL-ENT   512--DCLINIT
DAD$CGMS
       394**DCL-ENT   554--DCLINIT
DAD$CGS
       393**DCL-ENT   479--DCLINIT
DAD$CGSTATS
       395**DCL-ENT   557--DCLINIT
DAD$CHECK_PPUT
       421**DCL-ENT   563--DCLINIT
DAD$CPUS
       386**DCL-ENT   458--DCLINIT
DAD$CURCG
       592**DCL-ENT   602--DCLINIT
PL6.E3A0      #001=DA_COMMANDS_D File=DA_COMMANDS_D.:E05TSI                      TUE 07/29/97 12:55 Page:31
DAD$DATACACHE
       396**DCL-ENT   482--DCLINIT
DAD$DCT
       380**DCL-ENT   440--DCLINIT
DAD$DDT
       391**DCL-ENT   473--DCLINIT
DAD$DFRBLK
       405**DCL-ENT   509--DCLINIT
DAD$DTREE
       400**DCL-ENT   494--DCLINIT
DAD$ENQ
       377**DCL-ENT   437--DCLINIT
DAD$EVBUF
       390**DCL-ENT   470--DCLINIT
DAD$FEI
       411**DCL-ENT   527--DCLINIT
DAD$GARB
       398**DCL-ENT   488--DCLINIT
DAD$GATE
       409**DCL-ENT   521--DCLINIT
DAD$ICQ
       413**DCL-ENT   536--DCLINIT
DAD$IOC
       406**DCL-ENT   515--DCLINIT
DAD$IOCHAN
       381**DCL-ENT   443--DCLINIT
DAD$IOM
       416**DCL-ENT   542--DCLINIT
DAD$IOQ
       387**DCL-ENT   461--DCLINIT
DAD$LDCT
       408**DCL-ENT   518--DCLINIT
DAD$MDCT
       422**DCL-ENT   566--DCLINIT
DAD$MLH
       404**DCL-ENT   506--DCLINIT
PL6.E3A0      #001=DA_COMMANDS_D File=DA_COMMANDS_D.:E05TSI                      TUE 07/29/97 12:55 Page:32
DAD$MMD
       397**DCL-ENT   485--DCLINIT
DAD$MPDUMP
       392**DCL-ENT   476--DCLINIT
DAD$MSGLIST
       593**DCL-ENT   605--DCLINIT
DAD$OCQ
       414**DCL-ENT   533--DCLINIT
DAD$PPUT
       419**DCL-ENT   551--DCLINIT
DAD$QTREE
       403**DCL-ENT   503--DCLINIT
DAD$QUEUE
       399**DCL-ENT   491--DCLINIT
DAD$RAT
       385**DCL-ENT   455--DCLINIT
DAD$RECOVERY
       378**DCL-ENT   431--DCLINIT
DAD$ROUTE
       410**DCL-ENT   524--DCLINIT
DAD$RVBUF
       379**DCL-ENT   434--DCLINIT
DAD$SCHED
       383**DCL-ENT   449--DCLINIT
DAD$SCTX
       420**DCL-ENT   560--DCLINIT
DAD$SPROC
       389**DCL-ENT   467--DCLINIT
DAD$SPY
       384**DCL-ENT   452--DCLINIT
DAD$SQH
       412**DCL-ENT   530--DCLINIT
DAD$STREE
       401**DCL-ENT   497--DCLINIT
DAD$TCTX
       415**DCL-ENT   539--DCLINIT
PL6.E3A0      #001=DA_COMMANDS_D File=DA_COMMANDS_D.:E05TSI                      TUE 07/29/97 12:55 Page:33
DAD$TTREE
       402**DCL-ENT   500--DCLINIT
DAD$USRT
       382**DCL-ENT   446--DCLINIT
DAD$VCB
       417**DCL-ENT   545--DCLINIT
DAD$VSCHECK
       418**DCL-ENT   548--DCLINIT
DAU$DCBS
       573**DCL-ENT   583--DCLINIT
DAU$JIT
       572**DCL-ENT   580--DCLINIT
DAU$TCB
       574**DCL-ENT   586--DCLINIT
DAU$WHOHAS
       594**DCL-ENT   608--DCLINIT
DA_DUMP_CMD
       628**DCL       369--DCLINIT
DA_DUMP_CMD.VECTRS
       630**DCL       629--DCLINIT
DA_MISC_CMD
       598**DCL       368--DCLINIT
DA_MISC_CMD.VECTRS
       600**DCL       599--DCLINIT
DA_ONCE_CMD
       424**DCL       365--DCLINIT
DA_ONCE_CMD.VECTRS
       426**DCL       425--DCLINIT
DA_PER_USER_CMD
       576**DCL       366--DCLINIT
DA_PER_USER_CMD.VECTRS
       578**DCL       577--DCLINIT
DBA$ERROR
       596**DCL-ENT   614--DCLINIT   750--DCLINIT
DBA$EVAL
       595**DCL-ENT   611--DCLINIT   744--DCLINIT
PL6.E3A0      #001=DA_COMMANDS_D File=DA_COMMANDS_D.:E05TSI                      TUE 07/29/97 12:55 Page:34
DBA$RUE
       711**DCL-ENT   795--DCLINIT
DBB$DUMP
       657**DCL-ENT   663--DCLINIT   666--DCLINIT   669--DCLINIT   672--DCLINIT   675--DCLINIT   678--DCLINIT
       681--DCLINIT   684--DCLINIT   687--DCLINIT   690--DCLINIT
DBD$ACC_RES
       710**DCL-ENT   792--DCLINIT
DBD$ADD
       703**DCL-ENT   768--DCLINIT
DBD$BOBCAT
       698**DCL-ENT   753--DCLINIT
DBD$CHANNELS
       708**DCL-ENT   783--DCLINIT
DBD$CHNTBL
       699**DCL-ENT   756--DCLINIT
DBD$CQ
       721**DCL-ENT   786--DCLINIT
DBD$DCB
       717**DCL-ENT   813--DCLINIT
DBD$DROP
       704**DCL-ENT   771--DCLINIT
DBD$ECCB
       718**DCL-ENT   816--DCLINIT
DBD$EVB
       731**DCL-ENT   852--DCLINIT
DBD$FEPMAP
       727**DCL-ENT   840--DCLINIT
DBD$FMT
       702**DCL-ENT   765--DCLINIT
DBD$HMI
       720**DCL-ENT   822--DCLINIT
DBD$HMI_CHECK
       733**DCL-ENT   858--DCLINIT
DBD$INTCON
       716**DCL-ENT   810--DCLINIT
DBD$IOP
PL6.E3A0      #001=DA_COMMANDS_D File=DA_COMMANDS_D.:E05TSI                      TUE 07/29/97 12:55 Page:35
       723**DCL-ENT   828--DCLINIT
DBD$IOP_CHECK
       724**DCL-ENT   831--DCLINIT
DBD$JIT
       712**DCL-ENT   798--DCLINIT
DBD$LDCT
       701**DCL-ENT   762--DCLINIT
DBD$LDCT_CHECK
       732**DCL-ENT   855--DCLINIT
DBD$LINK
       707**DCL-ENT   780--DCLINIT
DBD$MEMORY
       705**DCL-ENT   774--DCLINIT
DBD$PPUT
       719**DCL-ENT   819--DCLINIT
DBD$PPUT_CHECK
       726**DCL-ENT   837--DCLINIT
DBD$RCQ
       729**DCL-ENT   846--DCLINIT
DBD$RECOVERY
       696**DCL-ENT   741--DCLINIT
DBD$ROS
       714**DCL-ENT   804--DCLINIT
DBD$ROUTE
       706**DCL-ENT   777--DCLINIT
DBD$SCQ
       730**DCL-ENT   849--DCLINIT
DBD$SFILE
       709**DCL-ENT   789--DCLINIT
DBD$SFILE_DATA
       728**DCL-ENT   843--DCLINIT
DBD$SPY
       697**DCL-ENT   747--DCLINIT
DBD$SSN
       722**DCL-ENT   825--DCLINIT
DBD$SSN_CHECK
PL6.E3A0      #001=DA_COMMANDS_D File=DA_COMMANDS_D.:E05TSI                      TUE 07/29/97 12:55 Page:36
       725**DCL-ENT   834--DCLINIT
DBD$STAT
       700**DCL-ENT   759--DCLINIT
DBD$TCB
       713**DCL-ENT   801--DCLINIT
DBD$TCTX
       734**DCL-ENT   861--DCLINIT
DBD$TCTX_CHECK
       735**DCL-ENT   864--DCLINIT
DBD$USRT
       715**DCL-ENT   807--DCLINIT
DB_DISPLAY_CMD
       737**DCL       371--DCLINIT
DB_DISPLAY_CMD.VECTRS
       739**DCL       738--DCLINIT
DB_DUMP_CMD
       659**DCL       370--DCLINIT
DB_DUMP_CMD.VECTRS
       661**DCL       660--DCLINIT
