VERSION E05

PL6.E3A0      #001=DA_FORMAT_D File=DA_FORMAT_D.:E05TSI                          TUE 07/29/97 12:55 Page:1
        1        1        /*M* DA_FORMAT_D - STATIC DATA FOR ANLZ FORMATTING ROUTINES */
        2        2        /*T***********************************************************/
        3        3        /*T*                                                         */
        4        4        /*T* Copyright (c) Bull HN Information Systems Inc., 1997    */
        5        5        /*T*                                                         */
        6        6        /*T***********************************************************/
        7        7        DA_FORMAT_D: PROC NOAUTO;
        8        8    1   DCL DA_REPORT$ PTR STATIC SYMDEF INIT(ADDR(NIL));
        9        9        /* ! ! */
       10       10    1   DCL M$LO DCB;
       11       11        /* !R! */
       12       12    1   DCL DAF_DCB# UBIN STATIC SYMDEF INIT(DCBNUM(M$LO));
       13       13    1   DCL DA_LO$ PTR STATIC SYMDEF INIT(ADDR(NIL));
       14       14    1   DCL 1 DA_FMTSEG STATIC SYMDEF ALIGNED,
       15       15    1         2 BOUND UBIN(20) UNAL INIT(0),
       16       16    1         2 FLAGS BIT(16) UNAL INIT('0'B),
       17       17    1         2 P,
       18       18    1           3 CA UBIN(20) UNAL INIT(0),
       19       19    1           3 BA UBIN(4) UNAL INIT(0),
       20       20    1           3 SID,
       21       21    1             4 S UBIN(2) UNAL INIT(0),
       22       22    1             4 D UBIN(10) UNAL INIT(0),
       23       23    1         2 P$ REDEF P PTR;
       24       24    1   DCL DA_FMT_NEWCMD BIT(1) STATIC SYMDEF;
       25       25    1   DCL DA_FMT_TITLEX SBIN STATIC SYMDEF INIT(36);
       26       26    1   DCL DA_FMT_TLEN SBIN STATIC SYMDEF INIT(42);
       27       27    1   DCL DA_CONTENTS$ PTR STATIC SYMDEF INIT(ADDR(NIL));
       28       28    1   DCL 1 DA_FMTERR STATIC SYMDEF ALIGNED,
       29       29    1         2 FCG BIT(18) UNAL,
       30       30    1         2 MON BIT(1) UNAL,
       31       31    1         2 CODE UBIN(14) UNAL,
       32       32    1         2 SEV UBIN(3) UNAL;
       33       33    1   END DA_FORMAT_D;

PL6.E3A0      #001=DA_FORMAT_D File=DA_FORMAT_D.:E05TSI                          TUE 07/29/97 12:55 Page:2
      No diagnostics issued in procedure DA_FORMAT_D.

   No code generated for procedure DA_FORMAT_D .
   Procedure DA_FORMAT_D is declared NOAUTO and requires 12 words of local(STATIC) storage.

    No errors detected in file DA_FORMAT_D.:E05TSI    .

PL6.E3A0      #001=DA_FORMAT_D File=DA_FORMAT_D.:E05TSI                          TUE 07/29/97 12:55 Page:3

 Object Unit name= DA_FORMAT_D                                File name= DA_FORMAT_D.:E05TOU
 UTS= JUL 29 '97 12:55:55.44 TUE                              Compiler= PL-6/E31         Sev=      00
 SharedLib= :SHARED_SYSTEM                                    Alt SharedLib=


    ****  Control sections  ****

 Sect   Type Bound  Init  Size OctSiz  Section name(segment info)
    0   Data  even  none    12     14  DA_FORMAT_D
    1   DCB   even  none     0      0  M$LO
    2   Proc  even  none     0      0  DA_FORMAT_D

    ****  Entry defs  ****

                              Check   Calling
                             calling  sequence
  Sect OctLoc Primary Altret sequence   type   Parms  Name
     2      0   yes            yes     ~proc       0  DA_FORMAT_D

  ****  Data defs  ****

 Sect OctLoc  Name                           Sect OctLoc  Name
    0      1  DA_REPORT$                         0      2  DAF_DCB#
    0      3  DA_LO$                             0      4  DA_FMTSEG
    0      6  DA_FMT_NEWCMD                      0      7  DA_FMT_TITLEX
    0     10  DA_FMT_TLEN                        0     11  DA_CONTENTS$
    0     12  DA_FMTERR

  ****  Data refs  ****

  Flags:  r = read only, s = secondary
Flgs Name                             Flgs Name                             Flgs Name
     M$LO
PL6.E3A0      #001=DA_FORMAT_D File=DA_FORMAT_D.:E05TSI                          TUE 07/29/97 12:55 Page:4

  ****  Segment refs  ****

  Flags:  r = read only, s = secondary
Flgs Name                             Flgs Name                             Flgs Name
     NULLSID
PL6.E3A0      #001=DA_FORMAT_D File=DA_FORMAT_D.:E05TSI                          TUE 07/29/97 12:55 Page:5

        1        1        /*M* DA_FORMAT_D - STATIC DATA FOR ANLZ FORMATTING ROUTINES */
        2        2        /*T***********************************************************/
        3        3        /*T*                                                         */
        4        4        /*T* Copyright (c) Bull HN Information Systems Inc., 1997    */
        5        5        /*T*                                                         */
        6        6        /*T***********************************************************/
        7        7        DA_FORMAT_D: PROC NOAUTO;
        8        8    1   DCL DA_REPORT$ PTR STATIC SYMDEF INIT(ADDR(NIL));
        9        9        /* ! ! */
       10       10    1   DCL M$LO DCB;
       11       11        /* !R! */
       12       12    1   DCL DAF_DCB# UBIN STATIC SYMDEF INIT(DCBNUM(M$LO));
       13       13    1   DCL DA_LO$ PTR STATIC SYMDEF INIT(ADDR(NIL));
       14       14    1   DCL 1 DA_FMTSEG STATIC SYMDEF ALIGNED,
       15       15    1         2 BOUND UBIN(20) UNAL INIT(0),
       16       16    1         2 FLAGS BIT(16) UNAL INIT('0'B),
       17       17    1         2 P,
       18       18    1           3 CA UBIN(20) UNAL INIT(0),
       19       19    1           3 BA UBIN(4) UNAL INIT(0),
       20       20    1           3 SID,
       21       21    1             4 S UBIN(2) UNAL INIT(0),
       22       22    1             4 D UBIN(10) UNAL INIT(0),
       23       23    1         2 P$ REDEF P PTR;
       24       24    1   DCL DA_FMT_NEWCMD BIT(1) STATIC SYMDEF;
       25       25    1   DCL DA_FMT_TITLEX SBIN STATIC SYMDEF INIT(36);
       26       26    1   DCL DA_FMT_TLEN SBIN STATIC SYMDEF INIT(42);
       27       27    1   DCL DA_CONTENTS$ PTR STATIC SYMDEF INIT(ADDR(NIL));
       28       28    1   DCL 1 DA_FMTERR STATIC SYMDEF ALIGNED,
       29       29    1         2 FCG BIT(18) UNAL,
       30       30    1         2 MON BIT(1) UNAL,
       31       31    1         2 CODE UBIN(14) UNAL,
       32       32    1         2 SEV UBIN(3) UNAL;
       33       33    1   END DA_FORMAT_D;

PL6.E3A0      #001=DA_FORMAT_D File=DA_FORMAT_D.:E05TSI                          TUE 07/29/97 12:55 Page:6
      No diagnostics issued in procedure DA_FORMAT_D.
PL6.E3A0      #001=DA_FORMAT_D File=DA_FORMAT_D.:E05TSI                          TUE 07/29/97 12:55 Page:7

 **** Variables and constants ****

  ****  BASED and DCB variables  ****

  ****  Scalars and arrays  ****
OctLoc.c.b A Datatyp(siz) R M Lvl/name                 OctLoc.c.b A Datatyp(siz) R M Lvl/name

     0-0-0N  NULL        r     1 M$LO


   No code generated for procedure DA_FORMAT_D .
   Procedure DA_FORMAT_D is declared NOAUTO and requires 12 words of local(STATIC) storage.

    No errors detected in file DA_FORMAT_D.:E05TSI    .
PL6.E3A0      #001=DA_FORMAT_D File=DA_FORMAT_D.:E05TSI                          TUE 07/29/97 12:55 Page:8
          *** CROSS REFERENCE LISTING ***
**     DENOTES     IDENTIFIER DEFINITION
<<                 IDENTIFIER'S VALUE SET
>>                 IDENTIFIER'S VALUE USED
<>                 IDENTIFIER SET AND/OR USED
--                 IDENTIFIER REFERENCED
PL6.E3A0      #001=DA_FORMAT_D File=DA_FORMAT_D.:E05TSI                          TUE 07/29/97 12:55 Page:9
          MINI XREF LISTING

DA_FMTSEG.P
        17**DCL        23--REDEF
