VERSION E05

PL6.E3A0      #001=DA_SYMBOLS_D File=DA_SYMBOLS_D.:E05TSI                        TUE 07/29/97 12:56 Page:1
        1        1        /*M* DA_SYMBOLS_D - STATIC DATA FOR SYMBOL HANDLING ROUTINES */
        2        2        /*T***********************************************************/
        3        3        /*T*                                                         */
        4        4        /*T* Copyright (c) Bull HN Information Systems Inc., 1997    */
        5        5        /*T*                                                         */
        6        6        /*T***********************************************************/
        7        7        DA_SYMBOLS_D: PROC NOAUTO;
        8        8    1   DCL 1 DA_SYMSEG STATIC SYMDEF,
        9        9    1         2 BOUND UBIN(20) UNAL INIT(0),
       10       10    1         2 FLAGS BIT(16) UNAL INIT('0'B),
       11       11    1         2 P,
       12       12    1           3 CA UBIN(20) UNAL INIT(0),
       13       13    1           3 BA UBIN(4) UNAL INIT(0),
       14       14    1           3 SID,
       15       15    1             4 S UBIN(2) UNAL INIT(0),
       16       16    1             4 D UBIN(10) UNAL INIT(0),
       17       17    1         2 P$ REDEF P PTR;
       18       18    1   DCL DA_ENTDEF$ PTR STATIC SYMDEF INIT(ADDR(NIL));
       19       19    1   DCL DA_SYMDEF$ PTR STATIC SYMDEF INIT(ADDR(NIL));
       20       20    1   DCL DA_DNAME$ PTR STATIC SYMDEF INIT(ADDR(NIL));
       21       21    1   DCL 1 DA_SYMERR STATIC SYMDEF,
       22       22    1         2 FCG BIT(18) UNAL,
       23       23    1         2 MON BIT(1) UNAL,
       24       24    1         2 CODE UBIN(14) UNAL,
       25       25    1         2 SEV UBIN(3) UNAL;
       26       26    1   DCL DA_DFLTACCT CHAR(8) CONSTANT SYMDEF INIT(':SYS');
       27       27    1   DCL 1 DA_SYMBOL STATIC SYMDEF ALIGNED,
       28       28    1         2 L UBIN BYTE UNAL INIT(0),
       29       29    1         2 C CHAR(31) INIT(' ');
       30       30    1   DCL DA_MONPTR$(0:50) PTR STATIC SYMDEF INIT(ADDR(NIL)*0);
       31       31    1   DCL 1 DA_SDCTL(0:15) STATIC SYMDEF,
       32       32    1      2 START SBIN HALF UNAL INIT(0*0),
       33       33    1      2 STOP SBIN HALF UNAL INIT(0*0);
       34       34    1   DCL 1 DA_EDCTL(0:15) STATIC SYMDEF,
       35       35    1      2 START SBIN HALF UNAL INIT(0*0),
       36       36    1      2 STOP SBIN HALF UNAL INIT(0*0);
       37       37    1   DCL DA_ALTSYM SBIN STATIC SYMDEF INIT(0);
PL6.E3A0      #001=DA_SYMBOLS_D File=DA_SYMBOLS_D.:E05TSI                        TUE 07/29/97 12:56 Page:2
       38       38    1   DCL DA_ALTSHI SBIN STATIC SYMDEF INIT(0);
       39       39    1   END DA_SYMBOLS_D;

PL6.E3A0      #001=DA_SYMBOLS_D File=DA_SYMBOLS_D.:E05TSI                        TUE 07/29/97 12:56 Page:3
      No diagnostics issued in procedure DA_SYMBOLS_D.

   No code generated for procedure DA_SYMBOLS_D .
   Procedure DA_SYMBOLS_D is declared NOAUTO and requires 100 words of local(STATIC) storage.

    No errors detected in file DA_SYMBOLS_D.:E05TSI    .

PL6.E3A0      #001=DA_SYMBOLS_D File=DA_SYMBOLS_D.:E05TSI                        TUE 07/29/97 12:56 Page:4

 Object Unit name= DA_SYMBOLS_D                               File name= DA_SYMBOLS_D.:E05TOU
 UTS= JUL 29 '97 12:56:47.80 TUE                              Compiler= PL-6/E31         Sev=      00
 SharedLib= :SHARED_SYSTEM                                    Alt SharedLib=


    ****  Control sections  ****

 Sect   Type Bound  Init  Size OctSiz  Section name(segment info)
    0   Data  even  none   100    144  DA_SYMBOLS_D
    1  RoData even  UTS      2      2  DA_SYMBOLS_D
    2   Proc  even  none     0      0  DA_SYMBOLS_D

    ****  Entry defs  ****

                              Check   Calling
                             calling  sequence
  Sect OctLoc Primary Altret sequence   type   Parms  Name
     2      0   yes            yes     ~proc       0  DA_SYMBOLS_D

  ****  Data defs  ****

 Sect OctLoc  Name                           Sect OctLoc  Name
    0      1  DA_SYMSEG                          0      3  DA_ENTDEF$
    0      4  DA_SYMDEF$                         0      5  DA_DNAME$
    0      6  DA_SYMERR                          1      0  DA_DFLTACCT
    0      7  DA_SYMBOL                          0     17  DA_MONPTR$
    0    102  DA_SDCTL                           0    122  DA_EDCTL
    0    142  DA_ALTSYM                          0    143  DA_ALTSHI

  ****  Segment refs  ****

  Flags:  r = read only, s = secondary
Flgs Name                             Flgs Name                             Flgs Name
     NULLSID
PL6.E3A0      #001=DA_SYMBOLS_D File=DA_SYMBOLS_D.:E05TSI                        TUE 07/29/97 12:56 Page:5

        1        1        /*M* DA_SYMBOLS_D - STATIC DATA FOR SYMBOL HANDLING ROUTINES */
        2        2        /*T***********************************************************/
        3        3        /*T*                                                         */
        4        4        /*T* Copyright (c) Bull HN Information Systems Inc., 1997    */
        5        5        /*T*                                                         */
        6        6        /*T***********************************************************/
        7        7        DA_SYMBOLS_D: PROC NOAUTO;
        8        8    1   DCL 1 DA_SYMSEG STATIC SYMDEF,
        9        9    1         2 BOUND UBIN(20) UNAL INIT(0),
       10       10    1         2 FLAGS BIT(16) UNAL INIT('0'B),
       11       11    1         2 P,
       12       12    1           3 CA UBIN(20) UNAL INIT(0),
       13       13    1           3 BA UBIN(4) UNAL INIT(0),
       14       14    1           3 SID,
       15       15    1             4 S UBIN(2) UNAL INIT(0),
       16       16    1             4 D UBIN(10) UNAL INIT(0),
       17       17    1         2 P$ REDEF P PTR;
       18       18    1   DCL DA_ENTDEF$ PTR STATIC SYMDEF INIT(ADDR(NIL));
       19       19    1   DCL DA_SYMDEF$ PTR STATIC SYMDEF INIT(ADDR(NIL));
       20       20    1   DCL DA_DNAME$ PTR STATIC SYMDEF INIT(ADDR(NIL));
       21       21    1   DCL 1 DA_SYMERR STATIC SYMDEF,
       22       22    1         2 FCG BIT(18) UNAL,
       23       23    1         2 MON BIT(1) UNAL,
       24       24    1         2 CODE UBIN(14) UNAL,
       25       25    1         2 SEV UBIN(3) UNAL;
       26       26    1   DCL DA_DFLTACCT CHAR(8) CONSTANT SYMDEF INIT(':SYS');
       27       27    1   DCL 1 DA_SYMBOL STATIC SYMDEF ALIGNED,
       28       28    1         2 L UBIN BYTE UNAL INIT(0),
       29       29    1         2 C CHAR(31) INIT(' ');
       30       30    1   DCL DA_MONPTR$(0:50) PTR STATIC SYMDEF INIT(ADDR(NIL)*0);
       31       31    1   DCL 1 DA_SDCTL(0:15) STATIC SYMDEF,
       32       32    1      2 START SBIN HALF UNAL INIT(0*0),
       33       33    1      2 STOP SBIN HALF UNAL INIT(0*0);
       34       34    1   DCL 1 DA_EDCTL(0:15) STATIC SYMDEF,
       35       35    1      2 START SBIN HALF UNAL INIT(0*0),
       36       36    1      2 STOP SBIN HALF UNAL INIT(0*0);
       37       37    1   DCL DA_ALTSYM SBIN STATIC SYMDEF INIT(0);
PL6.E3A0      #001=DA_SYMBOLS_D File=DA_SYMBOLS_D.:E05TSI                        TUE 07/29/97 12:56 Page:6
       38       38    1   DCL DA_ALTSHI SBIN STATIC SYMDEF INIT(0);
       39       39    1   END DA_SYMBOLS_D;

PL6.E3A0      #001=DA_SYMBOLS_D File=DA_SYMBOLS_D.:E05TSI                        TUE 07/29/97 12:56 Page:7
      No diagnostics issued in procedure DA_SYMBOLS_D.
PL6.E3A0      #001=DA_SYMBOLS_D File=DA_SYMBOLS_D.:E05TSI                        TUE 07/29/97 12:56 Page:8

 **** Variables and constants ****


   No code generated for procedure DA_SYMBOLS_D .
   Procedure DA_SYMBOLS_D is declared NOAUTO and requires 100 words of local(STATIC) storage.

    No errors detected in file DA_SYMBOLS_D.:E05TSI    .
PL6.E3A0      #001=DA_SYMBOLS_D File=DA_SYMBOLS_D.:E05TSI                        TUE 07/29/97 12:56 Page:9
          *** CROSS REFERENCE LISTING ***
**     DENOTES     IDENTIFIER DEFINITION
<<                 IDENTIFIER'S VALUE SET
>>                 IDENTIFIER'S VALUE USED
<>                 IDENTIFIER SET AND/OR USED
--                 IDENTIFIER REFERENCED
PL6.E3A0      #001=DA_SYMBOLS_D File=DA_SYMBOLS_D.:E05TSI                        TUE 07/29/97 12:56 Page:10
          MINI XREF LISTING

DA_SYMSEG.P
        11**DCL        17--REDEF
