VERSION E05

PL6.E3A0      #001=DBB$DUMP File=DBB$DUMP.:E05TSI                                TUE 07/29/97 12:57 Page:1
        1        1        /*M* DBB$DUMP - FEPANLZ DUMP COMMAND */
        2        2        /*T***********************************************************/
        3        3        /*T*                                                         */
        4        4        /*T* Copyright (c) Bull HN Information Systems Inc., 1997    */
        5        5        /*T*                                                         */
        6        6        /*T***********************************************************/
        7        7        /**/
        8        8        /*X* DMR */
        9        9        /**/
       10       10        DBB$DUMP: PROC(TOP);
       11       11        /**/
       12       12        %INCLUDE XU_MACRO_C;
       13     3118        %INCLUDE XUF_ENTRY;
       14     3126        %INCLUDE XU_FORMAT_C;
       15     3288        %INCLUDE DA_FORMAT_C;
       16     3530        %INCLUDE DA_CMD_C;
       17     3879        %INCLUDE DA_ANLZ_R;
       18     3892        %INCLUDE DA_SYMBOLS_R;
       19     3905        %INCLUDE DB_MACRO_M;
       20     3936        %DB$MAP_EQUS;
       21     3946        %INCLUDE B$OBJECT_C;
       22     7376        %INCLUDE B$TABLES_C;
       23     7484        /**/
       24     7485        %B$XL_ASC_DUMP (NAME=DA_PRINTABLE_TBL);
       25     7489        %B$XL_EBC_DUMP (NAME=DA_EBCDIC_TBL);
       26     7493        /**/
       27     7494        %PARSE$OUT (NAME=TOP,STCLASS=PARAM);
       28     7539        %PARSE$OUT (NAME=OUT,STCLASS=BASED);
       29     7584        %PARSE$SYM (NAME=SYM,STCLASS=BASED);
       30     7622        /**/
       31     7623    1   DCL DAA$VALUE ENTRY(3) ALTRET;
       32     7624    1   DCL DAF$INIT ENTRY(1) ALTRET;
       33     7625    1   DCL DAF$WRITE EPTR SYMREF;
       34     7626    1   DCL DBA$EXPRESSION ENTRY(3) ALTRET;
       35     7627    1   DCL DBA$SELECTION ENTRY(3) ALTRET;
       36     7628    1   DCL DBB$EDIT ENTRY(2) ALTRET;
       37     7629    1   DCL DBB$HEXDUMP ENTRY(4);
PL6.E3A0      #001=DBB$DUMP File=DBB$DUMP.:E05TSI                                TUE 07/29/97 12:57 Page:2
       38     7630    1   DCL DBB$HEXDUMPB ENTRY(4);
       39     7631    1   DCL DBD$MLCTX ENTRY(2) OPTIONAL;
       40     7632    1   DCL DBD$VDH ENTRY(1);
       41     7633    1   DCL DBM$GETMLCP ENTRY(5) ALTRET;
       42     7634    1   DCL DBB$DUMPLCT ENTRY(2);
       43     7635    1   DCL DBM$GETMEM ENTRY(10) ALTRET;
       44     7636    1   DCL DBM$SYSID2UN ENTRY(1) ALTRET;
       45     7637    1   DCL DBM$PACK1 ENTRY(2);
       46     7638    1   DCL DBM$PACK2 ENTRY(2);
       47     7639    1   DCL DBM$PACK4 ENTRY(2);
       48     7640        /**/
       49     7641    1   DCL I SBIN;
       50     7642    1   DCL IA(0:0) REDEF I SBIN;
       51     7643    1   DCL TTLFLG BIT(1) ALIGNED;
       52     7644    1   DCL CHAN UBIN;
       53     7645    1   DCL XTAB$ PTR;
       54     7646    1   DCL XTAB CHAR(512) BASED(XTAB$);
       55     7647    1   DCL RADIX SBIN;
       56     7648    1   DCL DUMPBUF$ PTR;
       57     7649        /**/
       58     7650    1   DCL LOCIDX SBIN;
       59     7651    1   DCL SIZEIDX SBIN;
       60     7652    1   DCL ATX SBIN;
       61     7653    1   DCL AT UBIN;
       62     7654    1   DCL MEMADR UBIN;
       63     7655    1   DCL 1 MEMADR_R REDEF MEMADR,
       64     7656    1         2 * BIT(4) UNAL,
       65     7657    1         2 B(0:3) BIT(8) UNAL;
       66     7658    1   DCL MEMWRDS UBIN;
       67     7659    1   DCL CHUNK UBIN;
       68     7660    1   DCL IMW UBIN;
       69     7661    1   DCL 1 LP(0:3),
       70     7662    1         2 * BIT(1) UNAL,
       71     7663    1         2 B BIT(8) UNAL;
       72     7664    1   DCL GOTLP BIT(1) ALIGNED;
       73     7665    1   DCL B$HALF(0:0) BIT(18) BASED HALIGNED;
       74     7666    1   DCL B$WORD BIT(36) BASED UNAL;
PL6.E3A0      #001=DBB$DUMP File=DBB$DUMP.:E05TSI                                TUE 07/29/97 12:57 Page:3
       75     7667    1   DCL DB_U# SBIN SYMREF;
       76     7668    1   DCL UNO REDEF DB_U# SBIN;
       77     7669    1   DCL DB_D# SBIN SYMREF;
       78     7670    1   DCL DOM REDEF DB_D# SBIN;
       79     7671    1   DCL FMTN$ PTR;
       80     7672    1   DCL DB_NXT$ PTR SYMREF;
       81     7673    1   DCL ARS SBIN;
       82     7674        /**/
       83     7675        %F_FDS (NAME=FDS,BUF=TTL);
       84     7788        %REPORT (NAME=RPT,TITLEADR=TTL);
       85     7854    1   DCL TFMT CHAR(0) CONSTANT
       86     7855    1   INIT('Dump of .%H,.%H%.N:=[%? for user %.#:512&[%.#KD%?.%.:#-KH%]%]');
       87     7856        %F_FDS (NAME=DA_FDS, STCLASS=SYMREF);
       88     7969    1   DCL 1 TTL STATIC,
       89     7970    1         2 L UBIN BYTE CALIGNED,
       90     7971    1         2 C CHAR(43);
       91     7972        /**/
       92     7973    1   DCL DUMPBUF(0:2048) UBIN HALF HALIGNED;
       93     7974    1   DCL FMTBUF REDEF DUMPBUF CHAR(4098);
       94     7975        /**/
       95     7976    1   DCL DB_CUN UBIN SYMREF;
       96     7977    1   DCL DB_FMT BIT(36) SYMREF;
       97     7978    1   DCL DB_FMT_DEFAULT BIT(36) SYMREF;
       98     7979        /**/
       99     7980        %EQU K4=1024*4;
      100     7981        %EQU K64=1024*64;
      101     7982        /**/
      102     7983        %EJECT;
PL6.E3A0      #001=DBB$DUMP File=DBB$DUMP.:E05TSI                                TUE 07/29/97 12:57 Page:4
      103     7984        /**/
      104     7985    1           XTAB$=ADDR(NIL);
      105     7986    1           TTLFLG='0'B;
      106     7987    1           UNO=0;
      107     7988    1           DOM=%DB#DOMAIN_MONUSR;
      108     7989    1           MEMADR=0;
      109     7990    1           LOCIDX=-1;
      110     7991    1           SIZEIDX=-1;
      111     7992    1           ATX=-1;
      112     7993    1           AT=0;
      113     7994    1           RPT.EDIT#=ENTADDR(NIL);
      114     7995    1           DB_NXT$=ADDR(NIL);
      115     7996    2           DO I=0 TO TOP.NSUBLKS-1;
      116     7997    3              DO CASE(TOP.SUBLK$(I)->OUT.CODE);
      117     7998    3               CASE(%DB_DUMP_LOC);
      118     7999    3                 IF LOCIDX<0 THEN LOCIDX=I;
      119     8000    3                 ELSE AT=AT+1;
      120     8001    3               CASE(%DB_DUMP_SIZE);
      121     8002    3                 SIZEIDX=I;
      122     8003    3               CASE(%DB_DUMP_AT);
      123     8004    3                 ATX=I;
      124     8005    3               CASE(%DB_DUMP_FMTN);
      125     8006    3                 FMTN$=TOP.SUBLK$(I);
      126     8007    3                 RPT.EDIT#=ENTADDR(DBB$EDIT);
      127     8008    3               CASE(%DB_DUMP_USER);
      128     8009    4                 CALL DBA$SELECTION(TOP.SUBLK$(I)->OUT.SUBLK$(0)->OUT,UNO,DOM)
              8009                          WHENALTRETURN DO;
      129     8010    4                    RETURN;
      130     8011    4                    END;
      131     8012    3               CASE(%DB_DUMP_ASDT);
      132     8013    4                 CALL DBA$EXPRESSION(TOP.SUBLK$(I)->OUT.SUBLK$(0)->OUT,UNO)
              8013                          WHENALTRETURN DO;
      133     8014    4                    RETURN;
      134     8015    4                    END;
      135     8016    3                 DOM=%DB#DOMAIN_ASDT;
      136     8017    3               CASE(%DB_DUMP_ASC);
      137     8018    3                 XTAB$=ADDR(DA_PRINTABLE_TBL);
PL6.E3A0      #001=DBB$DUMP File=DBB$DUMP.:E05TSI                                TUE 07/29/97 12:57 Page:5
      138     8019    3               CASE(%DB_DUMP_EBC);
      139     8020    3                 XTAB$=ADDR(DA_EBCDIC_TBL);
      140     8021    3               CASE(%DB_DUMP_TITLE);
      141     8022    3                 TTL.L=TOP.SUBLK$(I)->SYM.COUNT;
      142     8023    3                 TTL.C=TOP.SUBLK$(I)->SYM.TEXT;
      143     8024    3                 TTLFLG='1'B;
      144     8025    3               CASE(%DB_DUMP_CHAN);
      145     8026    4                 CALL DAA$VALUE(TOP.SUBLK$(I)->OUT,CHAN) WHENALTRETURN DO;
      146     8027    4                    RETURN;
      147     8028    4                    END;
      148     8029    3               END;
      149     8030    2              END;
      150     8031        /**/
      151     8032    2           IF LOCIDX >=0 THEN DO;
      152     8033    3              CALL DBA$EXPRESSION(TOP.SUBLK$(LOCIDX)->OUT.SUBLK$(0)->OUT,MEMADR,UNO)
              8033                       WHENALTRETURN DO;
      153     8034    3                 RETURN;
      154     8035    3                 END;
      155     8036    2              END;
      156     8037    2           IF SIZEIDX >= 0 THEN DO;
      157     8038    3              CALL DBA$EXPRESSION(TOP.SUBLK$(SIZEIDX)->OUT.SUBLK$(0)->OUT,MEMWRDS,UNO)
              8038                       WHENALTRETURN DO;
      158     8039    3                 RETURN;
      159     8040    3                 END;
      160     8041    2              END;
      161     8042    2           ELSE DO;
      162     8043    2              IF MEMADR<%K64 THEN
      163     8044    2                 MEMWRDS=%K4-MOD(MEMADR,%K4);
      164     8045    2              ELSE
      165     8046    2                 MEMWRDS=%K64-MOD(MEMADR,%K64);
      166     8047    2              END;
      167     8048    1           IMW = MEMWRDS;
      168     8049    2           IF ATX >=0 THEN DO;
      169     8050    3              CALL DBA$EXPRESSION(TOP.SUBLK$(ATX)->OUT.SUBLK$(0)->OUT,AT,UNO)
              8050                       WHENALTRETURN DO;
      170     8051    3                 RETURN;
      171     8052    3                 END;
PL6.E3A0      #001=DBB$DUMP File=DBB$DUMP.:E05TSI                                TUE 07/29/97 12:57 Page:6
      172     8053    2              END;
      173     8054    2           IF NOT TTLFLG THEN DO;
      174     8055    2   LLMORE:    CALL X$WRITE(FDS,VECTOR(TFMT),
      175     8056    2                VECTOR(MEMADR),
      176     8057    2                VECTOR(MEMWRDS),
      177     8058    2                VECTOR(UNO));
      178     8059    2              TTL.L=FDS.BUFX-1;
      179     8060    2              END;
      180     8061    1           CALL DAF$INIT(RPT);
      181     8062        /**/
      182     8063    1           DUMPBUF$=ADDR(DUMPBUF);
      183     8064    2           DO CASE(TOP.CODE);
      184     8065    2            CASE(%DB_DUMP_DUMP,%DB_DUMP_LLIST);
      185     8066    2              GOTLP='0'B;
      186     8067    2              IF TOP.CODE=%DB_DUMP_LLIST THEN
      187     8068    2                 CALL DBM$GETMEM (MEMADR+AT, LP, UNO, 4, ARS,,DOM)
      188     8069    3                 WHENRETURN DO;
      189     8070    3                    IF ARS=4 THEN GOTLP='1'B;
      190     8071    3                    END;
      191     8072    2              MEMWRDS = IMW;
      192     8073    3              DO WHILE(MEMWRDS>0);
      193     8074    3                 CHUNK=MINIMUM(MEMWRDS,256-MOD(MEMADR,256));
      194     8075    3                 CALL DBM$GETMEM(MEMADR,DUMPBUF,UNO,CHUNK*2,ARS,,DOM);
      195     8076    4                 IF ARS~=0 THEN DO;
      196     8077    4                    CALL DBB$HEXDUMP(DUMPBUF,ARS/2,MEMADR,XTAB);
      197     8078    4                    END;
      198     8079    3                 MEMWRDS=MEMWRDS-CHUNK;
      199     8080    3                 MEMADR=MEMADR+CHUNK;
      200     8081    4                 IF (ARS/2)~=CHUNK THEN DO;
      201     8082    4                    MEMWRDS=0;
      202     8083    4                    END;
      203     8084    3                 END;
      204     8085    3              IF TOP.CODE=%DB_DUMP_LLIST AND GOTLP AND LP~='0'B THEN DO;
      205     8086    4                 DO I = 0 TO 3;
      206     8087    4                    MEMADR_R.B(I)=LP.B(I);
      207     8088    4                    END;
      208     8089    3                 GOTO LLMORE;
PL6.E3A0      #001=DBB$DUMP File=DBB$DUMP.:E05TSI                                TUE 07/29/97 12:57 Page:7
      209     8090    3                 END;
      210     8091    2            CASE(%DB_DUMP_FMT);
      211     8092    2              SUBSTR(FMTBUF,0,13)='%4.XXXXXXXE%(';
      212     8093    2              CALL BINCHAR(SUBSTR(FMTBUF,3,7),MEMADR);
      213     8094    2              I=FMTN$->SYM.COUNT;
      214     8095    2              SUBSTR(FMTBUF,13,I)=FMTN$->SYM.TEXT;
      215     8096    2              SUBSTR(FMTBUF,13+I,2)='%)';
      216     8097    2              IF AT>POFFW(ADDR(FMTBUF),ADDR(IA(3)))
      217     8098    2              THEN AT=POFFW(ADDR(FMTBUF),ADDR(IA(3)));
      218     8099    2              IA(1)=AT+1;
      219     8100    2              IA(2)=LOCIDX;
      220     8101    2              I=IA(2)+AT;
      221     8102    3              IF I>=0 THEN DO WHILE '1'B;
      222     8103    3                 IF TOP.SUBLK$(I)->OUT.CODE~=%DB_DUMP_LOC THEN EXIT;
      223     8104    3                 CALL DBA$EXPRESSION (TOP.SUBLK$(I)->OUT.SUBLK$(0)->OUT,
      224     8105    3                   IA(I-IA(2)+2),UNO)
      225     8106    4                 WHENALTRETURN DO; RETURN; END;
      226     8107    3                 I=I-1;
      227     8108    3                 END;
      228     8109    2              IA(2)=-1;
      229     8110    2              CALL DAF$WRITE (VECTOR(FMTBUF), VECTOR(ADDR(I)->XTAB),
      230     8111    2                VECTOR(DUMPBUF(1024)),VECTOR(DUMPBUF(1536)));
      231     8112    2            CASE(%DB_DUMP_ISA,%DB_DUMP_TSA);
      232     8113    2              I=TOP.CODE;
      233     8114    2              CALL DBM$GETMEM(MEMADR,DUMPBUF(1024),UNO,128,ARS,1,DOM)
      234     8115    3              WHENRETURN DO;
      235     8116    3   ISA_TSA:      SUBSTR(FMTBUF,0,12)='%4E%(G$TSA%)';
      236     8117    3                 IF I=%DB_DUMP_ISA THEN SUBSTR(FMTBUF,7,1)='I';
      237     8118    3   FMT_IT:       I=MEMADR;
      238     8119    3                 DA_FDS.EDIT#=ENTADDR(DBB$EDIT);
      239     8120    3                 CALL DAF$WRITE (VECTOR(FMTBUF), VECTOR(I),
      240     8121    3                   VECTOR(SUBSTR(FMTBUF,2048)));
      241     8122    3                 DA_FDS.EDIT#=ENTADDR(NIL);
      242     8123    3                 END;
      243     8124    2            CASE(%DB_DUMP_MLCP);
      244     8125    2              IF MEMADR>=4096 THEN RETURN;
      245     8126    3              IF MEMADR+MEMWRDS>4096 THEN DO;
PL6.E3A0      #001=DBB$DUMP File=DBB$DUMP.:E05TSI                                TUE 07/29/97 12:57 Page:8
      246     8127    3                 MEMWRDS=4096-MEMADR;
      247     8128    3                 END;
      248     8129    3              CALL DBM$GETMLCP(CHAN,DUMPBUF,MEMADR,MEMWRDS) WHENRETURN DO;
      249     8130    3                 CALL DBB$HEXDUMPB(DUMPBUF,MEMWRDS,MEMADR,XTAB);
      250     8131    3                 END;
      251     8132    2            CASE(%DB_DUMP_LCT);
      252     8133    2              CALL DBB$DUMPLCT(CHAN,XTAB);
      253     8134    2            CASE(%DB_DUMP_PLUGH);
      254     8135    3              CALL DBM$GETMEM(MEMADR,DUMPBUF(1024),UNO,16,,16,DOM) WHENRETURN DO;
      255     8136    3                 SUBSTR(FMTBUF,0,16)='%4E%(G$PLUGH%)';
      256     8137    3                 GOTO FMT_IT;
      257     8138    3                 END;
      258     8139    2            CASE(%DB_DUMP_MLCTX);
      259     8140    2              IF ENTADDR(DBD$MLCTX) ~= ENTADDR(NIL) THEN CALL DBD$MLCTX(MEMADR,UNO);
      260     8141    2            CASE(%DB_DUMP_VDH);
      261     8142    2              DB_FMT = DB_FMT_DEFAULT;
      262     8143    2              DA_FDS.EDIT#=ENTADDR(DBB$EDIT);
      263     8144    2              CALL DBD$VDH(MEMADR);
      264     8145    2            END;
      265     8146    1           RETURN;
      266     8147        %EJECT;
PL6.E3A0      #001=DBB$DUMP File=DBB$DUMP.:E05TSI                                TUE 07/29/97 12:57 Page:9
      267     8148    1   DBB$TSA: ENTRY (TOP);
      268     8149    1           I=%DB_DUMP_TSA;
      269     8150    1           GOTO TSA_ISA;
      270     8151    1   DBB$ISA: ENTRY (TOP);
      271     8152    1           I=%DB_DUMP_ISA;
      272     8153    1   TSA_ISA: SUBSTR(FMTBUF,2048,128)=ADDR(TOP)->XTAB;
      273     8154    1           GOTO ISA_TSA;
      274     8155        /**/
      275     8156    1   END DBB$DUMP;
      276     8157        %EOD;

PL6.E3A0      #001=DBB$DUMP File=DBB$DUMP.:E05TSI                                TUE 07/29/97 12:57 Page:10
--  Include file information  --

   B$TABLES_C.:E05TOU  cannot be made into a system file and is referenced.
   B$OBJECT_C.:E05TOU  is referenced.
   DB_MACRO_M.:E05TOU  is referenced.
   DA_SYMBOLS_R.:E05TOU  cannot be made into a system file and is referenced.
   DA_ANLZ_R.:E05TOU  cannot be made into a system file and is referenced.
   DA_CMD_C.:E05TOU  is referenced.
   DA_FORMAT_C.:E05TOU  is referenced.
   XU_FORMAT_C.:E05TOU  is referenced.
   XUF_ENTRY.:E05TOU  cannot be made into a system file and is referenced.
   XU_MACRO_C.:E05TOU  is referenced.
      No diagnostics issued in procedure DBB$DUMP.

   Procedure DBB$DUMP requires 641 words for executable code.
   Procedure DBB$DUMP requires 1076 words of local(AUTO) storage.

PL6.E3A0      #001=DBB$DUMP File=DBB$DUMP.:E05TSI                                TUE 07/29/97 12:57 Page:11

 Object Unit name= DBB$DUMP                                   File name= DBB$DUMP.:E05TOU
 UTS= JUL 29 '97 12:57:51.24 TUE                              Compiler= PL-6/E31         Sev=      00
 SharedLib= :SHARED_SYSTEM                                    Alt SharedLib=


    ****  Control sections  ****

 Sect   Type Bound  Init  Size OctSiz  Section name(segment info)
    0   Data  even  none    49     61  DBB$DUMP
    1  RoData even  UTS     28     34  DBB$DUMP
    2   Proc  even  none   641   1201  DBB$DUMP
    3  RoData even  none    24     30  DBB$DUMP

    ****  Entry defs  ****

                              Check   Calling
                             calling  sequence
  Sect OctLoc Primary Altret sequence   type   Parms  Name
     2      0   yes            yes      Std        1  DBB$DUMP
     2   1163                  yes      Std        1  DBB$TSA
     2   1170                  yes      Std        1  DBB$ISA
PL6.E3A0      #001=DBB$DUMP File=DBB$DUMP.:E05TSI                                TUE 07/29/97 12:57 Page:12

  ****  Entry refs  ****

         Check        Calling
        calling       sequence
Altret sequence SRef   type   Args  Name
         yes          ~proc      0 B_POINTER
 yes     yes           Std       3 DBA$EXPRESSION
 yes     yes           Std       2 DBB$EDIT
 yes     yes           Std       3 DBA$SELECTION
 yes     yes           Std       3 DAA$VALUE
         yes           Std      22 X$WRITE
 yes     yes           Std      10 DBM$GETMEM
         yes           Std       1 DBD$VDH
         yes           Std       4 DBB$HEXDUMP
 yes     yes           Std       5 DBM$GETMLCP
 yes     yes           Std       1 DAF$INIT
         yes           Std       4 DBB$HEXDUMPB
         yes           Std       2 DBB$DUMPLCT
         yes    yes    Std       2 DBD$MLCTX
                       nStd      0 X66_AUTO_1
                       Std       0 B_CONSPOOL_D
                       nStd      0 X66_ARET

  ****  Data refs  ****

  Flags:  r = read only, s = secondary
Flgs Name                             Flgs Name                             Flgs Name
r    B$XL_ASC_DUMP$                   r    B$XL_EBC_DUMP$                        DAF$WRITE
     DB_U#                                 DB_D#                                 DB_NXT$
     DA_FDS                                DB_FMT                                DB_FMT_DEFAULT
     B_VECTNIL
PL6.E3A0      #001=DBB$DUMP File=DBB$DUMP.:E05TSI                                TUE 07/29/97 12:57 Page:13

  ****  Segment refs  ****

  Flags:  r = read only, s = secondary
Flgs Name                             Flgs Name                             Flgs Name
     NULLSID                               ISSID
PL6.E3A0      #001=DBB$DUMP File=DBB$DUMP.:E05TSI                                TUE 07/29/97 12:57 Page:14


        1        1        /*M* DBB$DUMP - FEPANLZ DUMP COMMAND */
        2        2        /*T***********************************************************/
        3        3        /*T*                                                         */
        4        4        /*T* Copyright (c) Bull HN Information Systems Inc., 1997    */
        5        5        /*T*                                                         */
        6        6        /*T***********************************************************/
        7        7        /**/
        8        8        /*X* DMR */
        9        9        /**/
       10       10        DBB$DUMP: PROC(TOP);

     10  2 000000   000000 700200 xent  DBB$DUMP     TSX0  ! X66_AUTO_1
         2 000001   002064 000001                    ZERO    1076,1

       11       11        /**/
       12       12        %INCLUDE XU_MACRO_C;
       13     3118        %INCLUDE XUF_ENTRY;
       14     3126        %INCLUDE XU_FORMAT_C;
       15     3288        %INCLUDE DA_FORMAT_C;
       16     3530        %INCLUDE DA_CMD_C;
       17     3879        %INCLUDE DA_ANLZ_R;
       18     3892        %INCLUDE DA_SYMBOLS_R;
       19     3905        %INCLUDE DB_MACRO_M;
       20     3936        %DB$MAP_EQUS;
       21     3946        %INCLUDE B$OBJECT_C;
       22     7376        %INCLUDE B$TABLES_C;
       23     7484        /**/
       24     7485        %B$XL_ASC_DUMP (NAME=DA_PRINTABLE_TBL);
       25     7489        %B$XL_EBC_DUMP (NAME=DA_EBCDIC_TBL);
       26     7493        /**/
       27     7494        %PARSE$OUT (NAME=TOP,STCLASS=PARAM);
       28     7539        %PARSE$OUT (NAME=OUT,STCLASS=BASED);
       29     7584        %PARSE$SYM (NAME=SYM,STCLASS=BASED);
       30     7622        /**/
       31     7623    1   DCL DAA$VALUE ENTRY(3) ALTRET;
       32     7624    1   DCL DAF$INIT ENTRY(1) ALTRET;
PL6.E3A0      #001=DBB$DUMP File=DBB$DUMP.:E05TSI                                TUE 07/29/97 12:57 Page:15
       33     7625    1   DCL DAF$WRITE EPTR SYMREF;
       34     7626    1   DCL DBA$EXPRESSION ENTRY(3) ALTRET;
       35     7627    1   DCL DBA$SELECTION ENTRY(3) ALTRET;
       36     7628    1   DCL DBB$EDIT ENTRY(2) ALTRET;
       37     7629    1   DCL DBB$HEXDUMP ENTRY(4);
       38     7630    1   DCL DBB$HEXDUMPB ENTRY(4);
       39     7631    1   DCL DBD$MLCTX ENTRY(2) OPTIONAL;
       40     7632    1   DCL DBD$VDH ENTRY(1);
       41     7633    1   DCL DBM$GETMLCP ENTRY(5) ALTRET;
       42     7634    1   DCL DBB$DUMPLCT ENTRY(2);
       43     7635    1   DCL DBM$GETMEM ENTRY(10) ALTRET;
       44     7636    1   DCL DBM$SYSID2UN ENTRY(1) ALTRET;
       45     7637    1   DCL DBM$PACK1 ENTRY(2);
       46     7638    1   DCL DBM$PACK2 ENTRY(2);
       47     7639    1   DCL DBM$PACK4 ENTRY(2);
       48     7640        /**/
       49     7641    1   DCL I SBIN;
       50     7642    1   DCL IA(0:0) REDEF I SBIN;
       51     7643    1   DCL TTLFLG BIT(1) ALIGNED;
       52     7644    1   DCL CHAN UBIN;
       53     7645    1   DCL XTAB$ PTR;
       54     7646    1   DCL XTAB CHAR(512) BASED(XTAB$);
       55     7647    1   DCL RADIX SBIN;
       56     7648    1   DCL DUMPBUF$ PTR;
       57     7649        /**/
       58     7650    1   DCL LOCIDX SBIN;
       59     7651    1   DCL SIZEIDX SBIN;
       60     7652    1   DCL ATX SBIN;
       61     7653    1   DCL AT UBIN;
       62     7654    1   DCL MEMADR UBIN;
       63     7655    1   DCL 1 MEMADR_R REDEF MEMADR,
       64     7656    1         2 * BIT(4) UNAL,
       65     7657    1         2 B(0:3) BIT(8) UNAL;
       66     7658    1   DCL MEMWRDS UBIN;
       67     7659    1   DCL CHUNK UBIN;
       68     7660    1   DCL IMW UBIN;
       69     7661    1   DCL 1 LP(0:3),
PL6.E3A0      #001=DBB$DUMP File=DBB$DUMP.:E05TSI                                TUE 07/29/97 12:57 Page:16
       70     7662    1         2 * BIT(1) UNAL,
       71     7663    1         2 B BIT(8) UNAL;
       72     7664    1   DCL GOTLP BIT(1) ALIGNED;
       73     7665    1   DCL B$HALF(0:0) BIT(18) BASED HALIGNED;
       74     7666    1   DCL B$WORD BIT(36) BASED UNAL;
       75     7667    1   DCL DB_U# SBIN SYMREF;
       76     7668    1   DCL UNO REDEF DB_U# SBIN;
       77     7669    1   DCL DB_D# SBIN SYMREF;
       78     7670    1   DCL DOM REDEF DB_D# SBIN;
       79     7671    1   DCL FMTN$ PTR;
       80     7672    1   DCL DB_NXT$ PTR SYMREF;
       81     7673    1   DCL ARS SBIN;
       82     7674        /**/
       83     7675        %F_FDS (NAME=FDS,BUF=TTL);
       84     7788        %REPORT (NAME=RPT,TITLEADR=TTL);
       85     7854    1   DCL TFMT CHAR(0) CONSTANT
       86     7855    1   INIT('Dump of .%H,.%H%.N:=[%? for user %.#:512&[%.#KD%?.%.:#-KH%]%]');
       87     7856        %F_FDS (NAME=DA_FDS, STCLASS=SYMREF);
       88     7969    1   DCL 1 TTL STATIC,
       89     7970    1         2 L UBIN BYTE CALIGNED,
       90     7971    1         2 C CHAR(43);
       91     7972        /**/
       92     7973    1   DCL DUMPBUF(0:2048) UBIN HALF HALIGNED;
       93     7974    1   DCL FMTBUF REDEF DUMPBUF CHAR(4098);
       94     7975        /**/
       95     7976    1   DCL DB_CUN UBIN SYMREF;
       96     7977    1   DCL DB_FMT BIT(36) SYMREF;
       97     7978    1   DCL DB_FMT_DEFAULT BIT(36) SYMREF;
       98     7979        /**/
       99     7980        %EQU K4=1024*4;
      100     7981        %EQU K64=1024*64;
      101     7982        /**/
      102     7983        %EJECT;
PL6.E3A0      #001=DBB$DUMP File=DBB$DUMP.:E05TSI                                TUE 07/29/97 12:57 Page:17
      103     7984        /**/
      104     7985    1           XTAB$=ADDR(NIL);

   7985  2 000002   000001 236000 xsym               LDQ     B_VECTNIL+1
         2 000003   200007 756100                    STQ     XTAB$,,AUTO

      105     7986    1           TTLFLG='0'B;

   7986  2 000004   200005 450100                    STZ     TTLFLG,,AUTO

      106     7987    1           UNO=0;

   7987  2 000005   000000 450000 xsym               STZ     DB_U#

      107     7988    1           DOM=%DB#DOMAIN_MONUSR;

   7988  2 000006   000000 450000 xsym               STZ     DB_D#

      108     7989    1           MEMADR=0;

   7989  2 000007   200016 450100                    STZ     MEMADR,,AUTO

      109     7990    1           LOCIDX=-1;

   7990  2 000010   000001 335007                    LCA     1,DL
         2 000011   200012 755100                    STA     LOCIDX,,AUTO

      110     7991    1           SIZEIDX=-1;

   7991  2 000012   200013 755100                    STA     SIZEIDX,,AUTO

      111     7992    1           ATX=-1;

   7992  2 000013   200014 755100                    STA     ATX,,AUTO

      112     7993    1           AT=0;

PL6.E3A0      #001=DBB$DUMP File=DBB$DUMP.:E05TSI                                TUE 07/29/97 12:57 Page:18
   7993  2 000014   200015 450100                    STZ     AT,,AUTO

      113     7994    1           RPT.EDIT#=ENTADDR(NIL);

   7994  2 000015   000002 236000 xsym               LDQ     B_VECTNIL+2
         2 000016   000042 756000 0                  STQ     RPT+4

      114     7995    1           DB_NXT$=ADDR(NIL);

   7995  2 000017   000001 236000 xsym               LDQ     B_VECTNIL+1
         2 000020   000000 756000 xsym               STQ     DB_NXT$

      115     7996    2           DO I=0 TO TOP.NSUBLKS-1;

   7996  2 000021   200004 450100                    STZ     I,,AUTO
         2 000022   000156 710000 2                  TRA     s:8030+1

      116     7997    3              DO CASE(TOP.SUBLK$(I)->OUT.CODE);

   7997  2 000023   200003 470500                    LDP0    @TOP,,AUTO
         2 000024   200004 720100                    LXL0    I,,AUTO
         2 000025   000003 471510                    LDP1    3,X0,PR0
         2 000026   100000 721100                    LXL1    0,,PR1
         2 000027   000012 101003                    CMPX1   10,DU
         2 000030   000032 602011 2                  TNC     s:7997+7,X1
         2 000031   000155 710000 2                  TRA     s:8030
         2 000032   000044 710000 2                  TRA     s:7999
         2 000033   000055 710000 2                  TRA     s:8002
         2 000034   000070 710000 2                  TRA     s:8009
         2 000035   000122 710000 2                  TRA     s:8018
         2 000036   000130 710000 2                  TRA     s:8022
         2 000037   000125 710000 2                  TRA     s:8020
         2 000040   000144 710000 2                  TRA     s:8026
         2 000041   000105 710000 2                  TRA     s:8013
         2 000042   000060 710000 2                  TRA     s:8004
         2 000043   000063 710000 2                  TRA     s:8006

PL6.E3A0      #001=DBB$DUMP File=DBB$DUMP.:E05TSI                                TUE 07/29/97 12:57 Page:19
      117     7998    3               CASE(%DB_DUMP_LOC);

      118     7999    3                 IF LOCIDX<0 THEN LOCIDX=I;

   7999  2 000044   200012 235100                    LDA     LOCIDX,,AUTO
         2 000045   000051 605000 2                  TPL     s:8000

   7999  2 000046   200004 236100                    LDQ     I,,AUTO
         2 000047   200012 756100                    STQ     LOCIDX,,AUTO
         2 000050   000155 710000 2                  TRA     s:8030

      119     8000    3                 ELSE AT=AT+1;

   8000  2 000051   200015 236100                    LDQ     AT,,AUTO
         2 000052   000001 036007                    ADLQ    1,DL
         2 000053   200015 756100                    STQ     AT,,AUTO
         2 000054   000155 710000 2                  TRA     s:8030

      120     8001    3               CASE(%DB_DUMP_SIZE);

      121     8002    3                 SIZEIDX=I;

   8002  2 000055   200004 235100                    LDA     I,,AUTO
         2 000056   200013 755100                    STA     SIZEIDX,,AUTO
         2 000057   000155 710000 2                  TRA     s:8030

      122     8003    3               CASE(%DB_DUMP_AT);

      123     8004    3                 ATX=I;

   8004  2 000060   200004 235100                    LDA     I,,AUTO
         2 000061   200014 755100                    STA     ATX,,AUTO
         2 000062   000155 710000 2                  TRA     s:8030

      124     8005    3               CASE(%DB_DUMP_FMTN);

      125     8006    3                 FMTN$=TOP.SUBLK$(I);
PL6.E3A0      #001=DBB$DUMP File=DBB$DUMP.:E05TSI                                TUE 07/29/97 12:57 Page:20

   8006  2 000063   000003 236110                    LDQ     3,X0,PR0
         2 000064   200024 756100                    STQ     FMTN$,,AUTO

      126     8007    3                 RPT.EDIT#=ENTADDR(DBB$EDIT);

   8007  2 000065   000000 636000 xent               EAQ     DBB$EDIT
         2 000066   000042 756000 0                  STQ     RPT+4
         2 000067   000155 710000 2                  TRA     s:8030

      127     8008    3               CASE(%DB_DUMP_USER);

      128     8009    4                 CALL DBA$SELECTION(TOP.SUBLK$(I)->OUT.SUBLK$(0)->OUT,UNO,DOM)
              8009                          WHENALTRETURN DO;

   8009  2 000070   100003 473500                    LDP3    3,,PR1
         2 000071   000000 236000 3                  LDQ     0
         2 000072   202032 756100                    STQ     DUMPBUF+1028,,AUTO
         2 000073   000001 236000 3                  LDQ     1
         2 000074   202031 756100                    STQ     DUMPBUF+1027,,AUTO
         2 000075   202030 453500                    STP3    DUMPBUF+1026,,AUTO
         2 000076   202030 630500                    EPPR0   DUMPBUF+1026,,AUTO
         2 000077   000021 631400 xsym               EPPR1   B_VECTNIL+17
         2 000100   000000 701000 xent               TSX1    DBA$SELECTION
         2 000101   000103 702000 2                  TSX2    s:8010
         2 000102   000104 710000 2                  TRA     s:8010+1

      129     8010    4                    RETURN;

   8010  2 000103   000000 702200 xent               TSX2  ! X66_ARET
         2 000104   000155 710000 2                  TRA     s:8030

      130     8011    4                    END;
      131     8012    3               CASE(%DB_DUMP_ASDT);

      132     8013    4                 CALL DBA$EXPRESSION(TOP.SUBLK$(I)->OUT.SUBLK$(0)->OUT,UNO)
              8013                          WHENALTRETURN DO;
PL6.E3A0      #001=DBB$DUMP File=DBB$DUMP.:E05TSI                                TUE 07/29/97 12:57 Page:21

   8013  2 000105   100003 473500                    LDP3    3,,PR1
         2 000106   000001 236000 3                  LDQ     1
         2 000107   202031 756100                    STQ     DUMPBUF+1027,,AUTO
         2 000110   202030 453500                    STP3    DUMPBUF+1026,,AUTO
         2 000111   202030 630500                    EPPR0   DUMPBUF+1026,,AUTO
         2 000112   000020 631400 xsym               EPPR1   B_VECTNIL+16
         2 000113   000000 701000 xent               TSX1    DBA$EXPRESSION
         2 000114   000116 702000 2                  TSX2    s:8014
         2 000115   000117 710000 2                  TRA     s:8016

      133     8014    4                    RETURN;

   8014  2 000116   000000 702200 xent               TSX2  ! X66_ARET

      134     8015    4                    END;
      135     8016    3                 DOM=%DB#DOMAIN_ASDT;

   8016  2 000117   000005 235007                    LDA     5,DL
         2 000120   000000 755000 xsym               STA     DB_D#
         2 000121   000155 710000 2                  TRA     s:8030

      136     8017    3               CASE(%DB_DUMP_ASC);

      137     8018    3                 XTAB$=ADDR(DA_PRINTABLE_TBL);

   8018  2 000122   000000 236000 xsym               LDQ     B$XL_ASC_DUMP$
         2 000123   200007 756100                    STQ     XTAB$,,AUTO
         2 000124   000155 710000 2                  TRA     s:8030

      138     8019    3               CASE(%DB_DUMP_EBC);

      139     8020    3                 XTAB$=ADDR(DA_EBCDIC_TBL);

   8020  2 000125   000000 236000 xsym               LDQ     B$XL_EBC_DUMP$
         2 000126   200007 756100                    STQ     XTAB$,,AUTO
         2 000127   000155 710000 2                  TRA     s:8030
PL6.E3A0      #001=DBB$DUMP File=DBB$DUMP.:E05TSI                                TUE 07/29/97 12:57 Page:22

      140     8021    3               CASE(%DB_DUMP_TITLE);

      141     8022    3                 TTL.L=TOP.SUBLK$(I)->SYM.COUNT;

   8022  2 000130   100004 236100                    LDQ     4,,PR1
         2 000131   000046 552040 0                  STBQ    TTL,'40'O

      142     8023    3                 TTL.C=TOP.SUBLK$(I)->SYM.TEXT;

   8023  2 000132   000003 471510                    LDP1    3,X0,PR0
         2 000133   100004 236100                    LDQ     4,,PR1
         2 000134   000033 772000                    QRL     27
         2 000135   000000 621006                    EAX1    0,QL
         2 000136   040000 100540                    MLR     fill='040'O
         2 000137   100004 200011                    ADSC9   4,,PR1                   cn=1,n=*X1
         2 000140   000046 200053 0                  ADSC9   TTL                      cn=1,n=43

      143     8024    3                 TTLFLG='1'B;

   8024  2 000141   400000 236003                    LDQ     -131072,DU
         2 000142   200005 756100                    STQ     TTLFLG,,AUTO
         2 000143   000155 710000 2                  TRA     s:8030

      144     8025    3               CASE(%DB_DUMP_CHAN);

      145     8026    4                 CALL DAA$VALUE(TOP.SUBLK$(I)->OUT,CHAN) WHENALTRETURN DO;

   8026  2 000144   200006 633500                    EPPR3   CHAN,,AUTO
         2 000145   202031 453500                    STP3    DUMPBUF+1027,,AUTO
         2 000146   202030 451500                    STP1    DUMPBUF+1026,,AUTO
         2 000147   202030 630500                    EPPR0   DUMPBUF+1026,,AUTO
         2 000150   000020 631400 xsym               EPPR1   B_VECTNIL+16
         2 000151   000000 701000 xent               TSX1    DAA$VALUE
         2 000152   000154 702000 2                  TSX2    s:8027
         2 000153   000155 710000 2                  TRA     s:8030

PL6.E3A0      #001=DBB$DUMP File=DBB$DUMP.:E05TSI                                TUE 07/29/97 12:57 Page:23
      146     8027    4                    RETURN;

   8027  2 000154   000000 702200 xent               TSX2  ! X66_ARET

      147     8028    4                    END;
      148     8029    3               END;

      149     8030    2              END;

   8030  2 000155   200004 054100                    AOS     I,,AUTO
         2 000156   200003 470500                    LDP0    @TOP,,AUTO
         2 000157   000001 236100                    LDQ     1,,PR0
         2 000160   000022 772000                    QRL     18
         2 000161   200004 116100                    CMPQ    I,,AUTO
         2 000162   000023 605400 2                  TPNZ    s:7997

      150     8031        /**/
      151     8032    2           IF LOCIDX >=0 THEN DO;

   8032  2 000163   200012 235100                    LDA     LOCIDX,,AUTO
         2 000164   000202 604000 2                  TMI     s:8037

      152     8033    3              CALL DBA$EXPRESSION(TOP.SUBLK$(LOCIDX)->OUT.SUBLK$(0)->OUT,MEMADR,UNO)
              8033                       WHENALTRETURN DO;

   8033  2 000165   000003 471505                    LDP1    3,AL,PR0
         2 000166   100003 473500                    LDP3    3,,PR1
         2 000167   000001 236000 3                  LDQ     1
         2 000170   202032 756100                    STQ     DUMPBUF+1028,,AUTO
         2 000171   200016 631500                    EPPR1   MEMADR,,AUTO
         2 000172   202031 451500                    STP1    DUMPBUF+1027,,AUTO
         2 000173   202030 453500                    STP3    DUMPBUF+1026,,AUTO
         2 000174   202030 630500                    EPPR0   DUMPBUF+1026,,AUTO
         2 000175   000021 631400 xsym               EPPR1   B_VECTNIL+17
         2 000176   000000 701000 xent               TSX1    DBA$EXPRESSION
         2 000177   000201 702000 2                  TSX2    s:8034
         2 000200   000202 710000 2                  TRA     s:8037
PL6.E3A0      #001=DBB$DUMP File=DBB$DUMP.:E05TSI                                TUE 07/29/97 12:57 Page:24

      153     8034    3                 RETURN;

   8034  2 000201   000000 702200 xent               TSX2  ! X66_ARET

      154     8035    3                 END;
      155     8036    2              END;

      156     8037    2           IF SIZEIDX >= 0 THEN DO;

   8037  2 000202   200013 235100                    LDA     SIZEIDX,,AUTO
         2 000203   000223 604000 2                  TMI     s:8043

      157     8038    3              CALL DBA$EXPRESSION(TOP.SUBLK$(SIZEIDX)->OUT.SUBLK$(0)->OUT,MEMWRDS,UNO)
              8038                       WHENALTRETURN DO;

   8038  2 000204   200003 470500                    LDP0    @TOP,,AUTO
         2 000205   000003 471505                    LDP1    3,AL,PR0
         2 000206   100003 473500                    LDP3    3,,PR1
         2 000207   000001 236000 3                  LDQ     1
         2 000210   202032 756100                    STQ     DUMPBUF+1028,,AUTO
         2 000211   200017 631500                    EPPR1   MEMWRDS,,AUTO
         2 000212   202031 451500                    STP1    DUMPBUF+1027,,AUTO
         2 000213   202030 453500                    STP3    DUMPBUF+1026,,AUTO
         2 000214   202030 630500                    EPPR0   DUMPBUF+1026,,AUTO
         2 000215   000021 631400 xsym               EPPR1   B_VECTNIL+17
         2 000216   000000 701000 xent               TSX1    DBA$EXPRESSION
         2 000217   000221 702000 2                  TSX2    s:8039
         2 000220   000222 710000 2                  TRA     s:8041

      158     8039    3                 RETURN;

   8039  2 000221   000000 702200 xent               TSX2  ! X66_ARET

      159     8040    3                 END;
      160     8041    2              END;

PL6.E3A0      #001=DBB$DUMP File=DBB$DUMP.:E05TSI                                TUE 07/29/97 12:57 Page:25
   8041  2 000222   000237 710000 2                  TRA     s:8048

      161     8042    2           ELSE DO;

      162     8043    2              IF MEMADR<%K64 THEN

   8043  2 000223   200016 236100                    LDQ     MEMADR,,AUTO
         2 000224   200000 116007                    CMPQ    65536,DL
         2 000225   000233 603000 2                  TRC     s:8046

      163     8044    2                 MEMWRDS=%K4-MOD(MEMADR,%K4);

   8044  2 000226   007777 376007                    ANQ     4095,DL
         2 000227   000027 676000 xsym               ERQ     B_VECTNIL+23
         2 000230   010001 036007                    ADLQ    4097,DL
         2 000231   200017 756100                    STQ     MEMWRDS,,AUTO
         2 000232   000237 710000 2                  TRA     s:8048

      164     8045    2              ELSE
      165     8046    2                 MEMWRDS=%K64-MOD(MEMADR,%K64);

   8046  2 000233   177777 376007                    ANQ     65535,DL
         2 000234   000027 676000 xsym               ERQ     B_VECTNIL+23
         2 000235   200001 036007                    ADLQ    65537,DL
         2 000236   200017 756100                    STQ     MEMWRDS,,AUTO

      166     8047    2              END;

      167     8048    1           IMW = MEMWRDS;

   8048  2 000237   200017 235100                    LDA     MEMWRDS,,AUTO
         2 000240   200021 755100                    STA     IMW,,AUTO

      168     8049    2           IF ATX >=0 THEN DO;

   8049  2 000241   200014 236100                    LDQ     ATX,,AUTO
         2 000242   000261 604000 2                  TMI     s:8054
PL6.E3A0      #001=DBB$DUMP File=DBB$DUMP.:E05TSI                                TUE 07/29/97 12:57 Page:26

      169     8050    3              CALL DBA$EXPRESSION(TOP.SUBLK$(ATX)->OUT.SUBLK$(0)->OUT,AT,UNO)
              8050                       WHENALTRETURN DO;

   8050  2 000243   200003 470500                    LDP0    @TOP,,AUTO
         2 000244   000003 471506                    LDP1    3,QL,PR0
         2 000245   100003 473500                    LDP3    3,,PR1
         2 000246   000001 236000 3                  LDQ     1
         2 000247   202032 756100                    STQ     DUMPBUF+1028,,AUTO
         2 000250   200015 631500                    EPPR1   AT,,AUTO
         2 000251   202031 451500                    STP1    DUMPBUF+1027,,AUTO
         2 000252   202030 453500                    STP3    DUMPBUF+1026,,AUTO
         2 000253   202030 630500                    EPPR0   DUMPBUF+1026,,AUTO
         2 000254   000021 631400 xsym               EPPR1   B_VECTNIL+17
         2 000255   000000 701000 xent               TSX1    DBA$EXPRESSION
         2 000256   000260 702000 2                  TSX2    s:8051
         2 000257   000261 710000 2                  TRA     s:8054

      170     8051    3                 RETURN;

   8051  2 000260   000000 702200 xent               TSX2  ! X66_ARET

      171     8052    3                 END;
      172     8053    2              END;

      173     8054    2           IF NOT TTLFLG THEN DO;

   8054  2 000261   200005 234100                    SZN     TTLFLG,,AUTO
         2 000262   000321 604000 2                  TMI     s:8061

      174     8055    2   LLMORE:    CALL X$WRITE(FDS,VECTOR(TFMT),

   8055  2 000263   777640 235007       LLMORE       LDA     -96,DL
         2 000264   202030 452500                    STP2    DUMPBUF+1026,,AUTO
         2 000265   202030 236100                    LDQ     DUMPBUF+1026,,AUTO
         2 000266   000016 036003                    ADLQ    14,DU
         2 000267   202032 757100                    STAQ    DUMPBUF+1028,,AUTO
PL6.E3A0      #001=DBB$DUMP File=DBB$DUMP.:E05TSI                                TUE 07/29/97 12:57 Page:27
         2 000270   777640 235007                    LDA     -96,DL
         2 000271   202034 452500                    STP2    DUMPBUF+1030,,AUTO
         2 000272   202034 236100                    LDQ     DUMPBUF+1030,,AUTO
         2 000273   000017 036003                    ADLQ    15,DU
         2 000274   202040 757100                    STAQ    DUMPBUF+1034,,AUTO
         2 000275   202032 237100                    LDAQ    DUMPBUF+1028,,AUTO
         2 000276   202036 757100                    STAQ    DUMPBUF+1032,,AUTO
         2 000277   202040 237100                    LDAQ    DUMPBUF+1034,,AUTO
         2 000300   202042 757100                    STAQ    DUMPBUF+1036,,AUTO
         2 000301   000006 236000 3                  LDQ     6
         2 000302   202050 756100                    STQ     DUMPBUF+1042,,AUTO
         2 000303   202042 630500                    EPPR0   DUMPBUF+1036,,AUTO
         2 000304   202047 450500                    STP0    DUMPBUF+1041,,AUTO
         2 000305   202036 631500                    EPPR1   DUMPBUF+1032,,AUTO
         2 000306   202046 451500                    STP1    DUMPBUF+1040,,AUTO
         2 000307   000010 237000 3                  LDAQ    8
         2 000310   202044 757100                    STAQ    DUMPBUF+1038,,AUTO
         2 000311   202044 630500                    EPPR0   DUMPBUF+1038,,AUTO
         2 000312   000023 631400 xsym               EPPR1   B_VECTNIL+19
         2 000313   000000 701000 xent               TSX1    X$WRITE
         2 000314   000000 011000                    NOP     0

      175     8056    2                VECTOR(MEMADR),
      176     8057    2                VECTOR(MEMWRDS),
      177     8058    2                VECTOR(UNO));
      178     8059    2              TTL.L=FDS.BUFX-1;

   8059  2 000315   000007 236000 0                  LDQ     FDS+7
         2 000316   000001 136007                    SBLQ    1,DL
         2 000317   000033 736000                    QLS     27
         2 000320   000046 552040 0                  STBQ    TTL,'40'O

      179     8060    2              END;

      180     8061    1           CALL DAF$INIT(RPT);

   8061  2 000321   000012 630400 3                  EPPR0   10
PL6.E3A0      #001=DBB$DUMP File=DBB$DUMP.:E05TSI                                TUE 07/29/97 12:57 Page:28
         2 000322   000017 631400 xsym               EPPR1   B_VECTNIL+15
         2 000323   000000 701000 xent               TSX1    DAF$INIT
         2 000324   000000 011000                    NOP     0

      181     8062        /**/
      182     8063    1           DUMPBUF$=ADDR(DUMPBUF);

   8063  2 000325   200026 630500                    EPPR0   DUMPBUF,,AUTO
         2 000326   200011 450500                    STP0    DUMPBUF$,,AUTO

      183     8064    2           DO CASE(TOP.CODE);

   8064  2 000327   200003 471500                    LDP1    @TOP,,AUTO
         2 000330   100000 720100                    LXL0    0,,PR1
         2 000331   000012 100003                    CMPX0   10,DU
         2 000332   000334 602010 2                  TNC     s:8064+5,X0
         2 000333   001162 710000 2                  TRA     s:8146
         2 000334   000346 710000 2                  TRA     s:8066
         2 000335   000731 710000 2                  TRA     s:8113
         2 000336   000731 710000 2                  TRA     s:8113
         2 000337   001033 710000 2                  TRA     s:8125
         2 000340   001077 710000 2                  TRA     s:8133
         2 000341   001110 710000 2                  TRA     s:8135
         2 000342   001134 710000 2                  TRA     s:8140
         2 000343   001150 710000 2                  TRA     s:8142
         2 000344   000535 710000 2                  TRA     s:8092
         2 000345   000346 710000 2                  TRA     s:8066

      184     8065    2            CASE(%DB_DUMP_DUMP,%DB_DUMP_LLIST);

      185     8066    2              GOTLP='0'B;

   8066  2 000346   200023 450100                    STZ     GOTLP,,AUTO

      186     8067    2              IF TOP.CODE=%DB_DUMP_LLIST THEN

   8067  2 000347   000011 100003                    CMPX0   9,DU
PL6.E3A0      #001=DBB$DUMP File=DBB$DUMP.:E05TSI                                TUE 07/29/97 12:57 Page:29
         2 000350   000402 601000 2                  TNZ     s:8072

      187     8068    2                 CALL DBM$GETMEM (MEMADR+AT, LP, UNO, 4, ARS,,DOM)

   8068  2 000351   200016 236100                    LDQ     MEMADR,,AUTO
         2 000352   200015 036100                    ADLQ    AT,,AUTO
         2 000353   202030 756100                    STQ     DUMPBUF+1026,,AUTO
         2 000354   000000 236000 3                  LDQ     0
         2 000355   000001 235000 xsym               LDA     B_VECTNIL+1
         2 000356   202036 757100                    STAQ    DUMPBUF+1032,,AUTO
         2 000357   200025 633500                    EPPR3   ARS,,AUTO
         2 000360   202035 453500                    STP3    DUMPBUF+1031,,AUTO
         2 000361   000013 236000 3                  LDQ     11
         2 000362   202034 756100                    STQ     DUMPBUF+1030,,AUTO
         2 000363   000001 236000 3                  LDQ     1
         2 000364   202033 756100                    STQ     DUMPBUF+1029,,AUTO
         2 000365   200022 634500                    EPPR4   LP,,AUTO
         2 000366   202032 454500                    STP4    DUMPBUF+1028,,AUTO
         2 000367   202030 635500                    EPPR5   DUMPBUF+1026,,AUTO
         2 000370   202031 455500                    STP5    DUMPBUF+1027,,AUTO
         2 000371   202031 630500                    EPPR0   DUMPBUF+1027,,AUTO
         2 000372   000025 631400 xsym               EPPR1   B_VECTNIL+21
         2 000373   000000 701000 xent               TSX1    DBM$GETMEM
         2 000374   000402 702000 2                  TSX2    s:8072

      188     8069    3                 WHENRETURN DO;

      189     8070    3                    IF ARS=4 THEN GOTLP='1'B;

   8070  2 000375   200025 235100                    LDA     ARS,,AUTO
         2 000376   000004 115007                    CMPA    4,DL
         2 000377   000402 601000 2                  TNZ     s:8072

   8070  2 000400   400000 236003                    LDQ     -131072,DU
         2 000401   200023 756100                    STQ     GOTLP,,AUTO

      190     8071    3                    END;
PL6.E3A0      #001=DBB$DUMP File=DBB$DUMP.:E05TSI                                TUE 07/29/97 12:57 Page:30

      191     8072    2              MEMWRDS = IMW;

   8072  2 000402   200021 235100                    LDA     IMW,,AUTO
         2 000403   200017 755100                    STA     MEMWRDS,,AUTO

      192     8073    3              DO WHILE(MEMWRDS>0);

   8073  2 000404   000503 600000 2                  TZE     s:8085

      193     8074    3                 CHUNK=MINIMUM(MEMWRDS,256-MOD(MEMADR,256));

   8074  2 000405   200016 236100                    LDQ     MEMADR,,AUTO
         2 000406   000377 376007                    ANQ     255,DL
         2 000407   000027 676000 xsym               ERQ     B_VECTNIL+23
         2 000410   000401 036007                    ADLQ    257,DL
         2 000411   000416 604000 2                  TMI     s:8074+9
         2 000412   200017 116100                    CMPQ    MEMWRDS,,AUTO
         2 000413   000416 602000 2                  TNC     s:8074+9
         2 000414   000416 600000 2                  TZE     s:8074+9
         2 000415   200017 236100                    LDQ     MEMWRDS,,AUTO
         2 000416   200020 756100                    STQ     CHUNK,,AUTO

      194     8075    3                 CALL DBM$GETMEM(MEMADR,DUMPBUF,UNO,CHUNK*2,ARS,,DOM);

   8075  2 000417   200020 235100                    LDA     CHUNK,,AUTO
         2 000420   000001 735000                    ALS     1
         2 000421   202030 755100                    STA     DUMPBUF+1026,,AUTO
         2 000422   000000 236000 3                  LDQ     0
         2 000423   000001 235000 xsym               LDA     B_VECTNIL+1
         2 000424   202036 757100                    STAQ    DUMPBUF+1032,,AUTO
         2 000425   200025 630500                    EPPR0   ARS,,AUTO
         2 000426   202035 450500                    STP0    DUMPBUF+1031,,AUTO
         2 000427   202030 631500                    EPPR1   DUMPBUF+1026,,AUTO
         2 000430   202034 451500                    STP1    DUMPBUF+1030,,AUTO
         2 000431   000001 236000 3                  LDQ     1
         2 000432   202033 756100                    STQ     DUMPBUF+1029,,AUTO
PL6.E3A0      #001=DBB$DUMP File=DBB$DUMP.:E05TSI                                TUE 07/29/97 12:57 Page:31
         2 000433   200026 633500                    EPPR3   DUMPBUF,,AUTO
         2 000434   202032 453500                    STP3    DUMPBUF+1028,,AUTO
         2 000435   200016 634500                    EPPR4   MEMADR,,AUTO
         2 000436   202031 454500                    STP4    DUMPBUF+1027,,AUTO
         2 000437   202031 630500                    EPPR0   DUMPBUF+1027,,AUTO
         2 000440   000025 631400 xsym               EPPR1   B_VECTNIL+21
         2 000441   000000 701000 xent               TSX1    DBM$GETMEM
         2 000442   000000 011000                    NOP     0

      195     8076    4                 IF ARS~=0 THEN DO;

   8076  2 000443   200025 235100                    LDA     ARS,,AUTO
         2 000444   000464 600000 2                  TZE     s:8079

      196     8077    4                    CALL DBB$HEXDUMP(DUMPBUF,ARS/2,MEMADR,XTAB);

   8077  2 000445   200025 236100                    LDQ     ARS,,AUTO
         2 000446   000002 506007                    DIV     2,DL
         2 000447   202030 756100                    STQ     DUMPBUF+1026,,AUTO
         2 000450   200007 236100                    LDQ     XTAB$,,AUTO
         2 000451   202035 756100                    STQ     DUMPBUF+1031,,AUTO
         2 000452   200016 630500                    EPPR0   MEMADR,,AUTO
         2 000453   202034 450500                    STP0    DUMPBUF+1030,,AUTO
         2 000454   202030 631500                    EPPR1   DUMPBUF+1026,,AUTO
         2 000455   202033 451500                    STP1    DUMPBUF+1029,,AUTO
         2 000456   200026 633500                    EPPR3   DUMPBUF,,AUTO
         2 000457   202032 453500                    STP3    DUMPBUF+1028,,AUTO
         2 000460   202032 630500                    EPPR0   DUMPBUF+1028,,AUTO
         2 000461   000022 631400 xsym               EPPR1   B_VECTNIL+18
         2 000462   000000 701000 xent               TSX1    DBB$HEXDUMP
         2 000463   000000 011000                    NOP     0

      197     8078    4                    END;

      198     8079    3                 MEMWRDS=MEMWRDS-CHUNK;

   8079  2 000464   200017 236100                    LDQ     MEMWRDS,,AUTO
PL6.E3A0      #001=DBB$DUMP File=DBB$DUMP.:E05TSI                                TUE 07/29/97 12:57 Page:32
         2 000465   200020 136100                    SBLQ    CHUNK,,AUTO
         2 000466   200017 756100                    STQ     MEMWRDS,,AUTO

      199     8080    3                 MEMADR=MEMADR+CHUNK;

   8080  2 000467   200016 236100                    LDQ     MEMADR,,AUTO
         2 000470   200020 036100                    ADLQ    CHUNK,,AUTO
         2 000471   200016 756100                    STQ     MEMADR,,AUTO

      200     8081    4                 IF (ARS/2)~=CHUNK THEN DO;

   8081  2 000472   200025 236100                    LDQ     ARS,,AUTO
         2 000473   000002 506007                    DIV     2,DL
         2 000474   000000 116003                    CMPQ    0,DU
         2 000475   000500 604000 2                  TMI     s:8082
         2 000476   200020 116100                    CMPQ    CHUNK,,AUTO
         2 000477   000501 600000 2                  TZE     s:8084

      201     8082    4                    MEMWRDS=0;

   8082  2 000500   200017 450100                    STZ     MEMWRDS,,AUTO

      202     8083    4                    END;

      203     8084    3                 END;

   8084  2 000501   200017 235100                    LDA     MEMWRDS,,AUTO
         2 000502   000405 601000 2                  TNZ     s:8074

      204     8085    3              IF TOP.CODE=%DB_DUMP_LLIST AND GOTLP AND LP~='0'B THEN DO;

   8085  2 000503   200003 470500                    LDP0    @TOP,,AUTO
         2 000504   000000 720100                    LXL0    0,,PR0
         2 000505   000011 100003                    CMPX0   9,DU
         2 000506   001162 601000 2                  TNZ     s:8146
         2 000507   200023 234100                    SZN     GOTLP,,AUTO
         2 000510   001162 605000 2                  TPL     s:8146
PL6.E3A0      #001=DBB$DUMP File=DBB$DUMP.:E05TSI                                TUE 07/29/97 12:57 Page:33
         2 000511   200022 236100                    LDQ     LP,,AUTO
         2 000512   001162 600000 2                  TZE     s:8146

      205     8086    4                 DO I = 0 TO 3;

   8086  2 000513   200004 450100                    STZ     I,,AUTO

      206     8087    4                    MEMADR_R.B(I)=LP.B(I);

   8087  2 000514   200004 236100                    LDQ     I,,AUTO
         2 000515   000011 402007                    MPY     9,DL
         2 000516   000000 116003                    CMPQ    0,DU
         2 000517   000521 605000 2                  TPL     s:8087+5
         2 000520   000044 036003                    ADLQ    36,DU
         2 000521   200004 235100                    LDA     I,,AUTO
         2 000522   000003 735000                    ALS     3
         2 000523   000525 605000 2                  TPL     s:8087+9
         2 000524   000044 035003                    ADLA    36,DU
         2 000525   003105 060506                    CSL     bolr='003'O
         2 000526   200022 010010                    BDSC    LP,Q,AUTO                by=0,bit=1,n=8
         2 000527   200016 040010                    BDSC    MEMADR,A,AUTO            by=0,bit=4,n=8

      207     8088    4                    END;

   8088  2 000530   200004 054100                    AOS     I,,AUTO
         2 000531   200004 235100                    LDA     I,,AUTO
         2 000532   000003 115007                    CMPA    3,DL
         2 000533   000514 604400 2                  TMOZ    s:8087

      208     8089    3                 GOTO LLMORE;

   8089  2 000534   000263 710000 2                  TRA     LLMORE

      209     8090    3                 END;
      210     8091    2            CASE(%DB_DUMP_FMT);

      211     8092    2              SUBSTR(FMTBUF,0,13)='%4.XXXXXXXE%(';
PL6.E3A0      #001=DBB$DUMP File=DBB$DUMP.:E05TSI                                TUE 07/29/97 12:57 Page:34

   8092  2 000535   040100 100400                    MLR     fill='040'O
         2 000536   000020 000015 1                  ADSC9   TFMT+16                  cn=0,n=13
         2 000537   200026 000015                    ADSC9   DUMPBUF,,AUTO            cn=0,n=13

      212     8093    2              CALL BINCHAR(SUBSTR(FMTBUF,3,7),MEMADR);

   8093  2 000540   200016 235100                    LDA     MEMADR,,AUTO
         2 000541   000044 773000                    LRL     36
         2 000542   202030 757100                    STAQ    DUMPBUF+1026,,AUTO
         2 000543   000100 301500                    BTD
         2 000544   202030 000010                    NDSC9   DUMPBUF+1026,,AUTO       cn=0,s=lsgnf,sf=0,n=8
         2 000545   200026 630007                    NDSC9   DUMPBUF,,AUTO            cn=3,s=nosgn,sf=0,n=7

      213     8094    2              I=FMTN$->SYM.COUNT;

   8094  2 000546   200024 473500                    LDP3    FMTN$,,AUTO
         2 000547   300004 236100                    LDQ     4,,PR3
         2 000550   000033 772000                    QRL     27
         2 000551   200004 756100                    STQ     I,,AUTO

      214     8095    2              SUBSTR(FMTBUF,13,I)=FMTN$->SYM.TEXT;

   8095  2 000552   300004 236100                    LDQ     4,,PR3
         2 000553   000033 772000                    QRL     27
         2 000554   000000 620006                    EAX0    0,QL
         2 000555   200004 721100                    LXL1    I,,AUTO
         2 000556   040140 100540                    MLR     fill='040'O
         2 000557   300004 200010                    ADSC9   4,,PR3                   cn=1,n=*X0
         2 000560   200031 200011                    ADSC9   DUMPBUF+3,,AUTO          cn=1,n=*X1

      215     8096    2              SUBSTR(FMTBUF,13+I,2)='%)';

   8096  2 000561   200004 235100                    LDA     I,,AUTO
         2 000562   040105 100400                    MLR     fill='040'O
         2 000563   000024 000002 1                  ADSC9   TFMT+20                  cn=0,n=2
         2 000564   200031 200002                    ADSC9   DUMPBUF+3,A,AUTO         cn=1,n=2
PL6.E3A0      #001=DBB$DUMP File=DBB$DUMP.:E05TSI                                TUE 07/29/97 12:57 Page:35

      216     8097    2              IF AT>POFFW(ADDR(FMTBUF),ADDR(IA(3)))

   8097  2 000565   202030 452500                    STP2    DUMPBUF+1026,,AUTO
         2 000566   202030 236100                    LDQ     DUMPBUF+1026,,AUTO
         2 000567   000007 036003                    ADLQ    7,DU
         2 000570   000022 772000                    QRL     18
         2 000571   202031 452500                    STP2    DUMPBUF+1027,,AUTO
         2 000572   202032 756100                    STQ     DUMPBUF+1028,,AUTO
         2 000573   202031 236100                    LDQ     DUMPBUF+1027,,AUTO
         2 000574   000026 036003                    ADLQ    22,DU
         2 000575   000022 772000                    QRL     18
         2 000576   202032 136100                    SBLQ    DUMPBUF+1028,,AUTO
         2 000577   000602 604000 2                  TMI     s:8098
         2 000600   200015 116100                    CMPQ    AT,,AUTO
         2 000601   000615 603000 2                  TRC     s:8099

      217     8098    2              THEN AT=POFFW(ADDR(FMTBUF),ADDR(IA(3)));

   8098  2 000602   202030 452500                    STP2    DUMPBUF+1026,,AUTO
         2 000603   202030 236100                    LDQ     DUMPBUF+1026,,AUTO
         2 000604   000007 036003                    ADLQ    7,DU
         2 000605   000022 772000                    QRL     18
         2 000606   202031 452500                    STP2    DUMPBUF+1027,,AUTO
         2 000607   202032 756100                    STQ     DUMPBUF+1028,,AUTO
         2 000610   202031 236100                    LDQ     DUMPBUF+1027,,AUTO
         2 000611   000026 036003                    ADLQ    22,DU
         2 000612   000022 772000                    QRL     18
         2 000613   202032 136100                    SBLQ    DUMPBUF+1028,,AUTO
         2 000614   200015 756100                    STQ     AT,,AUTO

      218     8099    2              IA(1)=AT+1;

   8099  2 000615   200015 235100                    LDA     AT,,AUTO
         2 000616   000001 035007                    ADLA    1,DL
         2 000617   200005 755100                    STA     TTLFLG,,AUTO

PL6.E3A0      #001=DBB$DUMP File=DBB$DUMP.:E05TSI                                TUE 07/29/97 12:57 Page:36
      219     8100    2              IA(2)=LOCIDX;

   8100  2 000620   200012 236100                    LDQ     LOCIDX,,AUTO
         2 000621   200006 756100                    STQ     CHAN,,AUTO

      220     8101    2              I=IA(2)+AT;

   8101  2 000622   200015 036100                    ADLQ    AT,,AUTO
         2 000623   200004 756100                    STQ     I,,AUTO

      221     8102    3              IF I>=0 THEN DO WHILE '1'B;

   8102  2 000624   000655 604000 2                  TMI     s:8109

      222     8103    3                 IF TOP.SUBLK$(I)->OUT.CODE~=%DB_DUMP_LOC THEN EXIT;

   8103  2 000625   200003 470500                    LDP0    @TOP,,AUTO
         2 000626   200004 720100                    LXL0    I,,AUTO
         2 000627   000003 471510                    LDP1    3,X0,PR0
         2 000630   100000 721100                    LXL1    0,,PR1
         2 000631   000655 601000 2                  TNZ     s:8109

      223     8104    3                 CALL DBA$EXPRESSION (TOP.SUBLK$(I)->OUT.SUBLK$(0)->OUT,

   8104  2 000632   100003 473500                    LDP3    3,,PR1
         2 000633   200004 236100                    LDQ     I,,AUTO
         2 000634   200006 136100                    SBLQ    CHAN,,AUTO
         2 000635   202033 756100                    STQ     DUMPBUF+1029,,AUTO
         2 000636   000001 236000 3                  LDQ     1
         2 000637   202032 756100                    STQ     DUMPBUF+1028,,AUTO
         2 000640   202033 721100                    LXL1    DUMPBUF+1029,,AUTO
         2 000641   200006 631511                    EPPR1   CHAN,X1,AUTO
         2 000642   202031 451500                    STP1    DUMPBUF+1027,,AUTO
         2 000643   202030 453500                    STP3    DUMPBUF+1026,,AUTO
         2 000644   202030 630500                    EPPR0   DUMPBUF+1026,,AUTO
         2 000645   000021 631400 xsym               EPPR1   B_VECTNIL+17
         2 000646   000000 701000 xent               TSX1    DBA$EXPRESSION
PL6.E3A0      #001=DBB$DUMP File=DBB$DUMP.:E05TSI                                TUE 07/29/97 12:57 Page:37
         2 000647   000651 702000 2                  TSX2    s:8106
         2 000650   000652 710000 2                  TRA     s:8107

      224     8105    3                   IA(I-IA(2)+2),UNO)
      225     8106    4                 WHENALTRETURN DO; RETURN; END;

   8106  2 000651   000000 702200 xent               TSX2  ! X66_ARET

      226     8107    3                 I=I-1;

   8107  2 000652   000001 336007                    LCQ     1,DL
         2 000653   200004 056100                    ASQ     I,,AUTO

      227     8108    3                 END;

   8108  2 000654   000625 710000 2                  TRA     s:8103

      228     8109    2              IA(2)=-1;

   8109  2 000655   000001 335007                    LCA     1,DL
         2 000656   200006 755100                    STA     CHAN,,AUTO

      229     8110    2              CALL DAF$WRITE (VECTOR(FMTBUF), VECTOR(ADDR(I)->XTAB),

   8110  2 000657   000014 235000 3                  LDA     12
         2 000660   202030 452500                    STP2    DUMPBUF+1026,,AUTO
         2 000661   202030 236100                    LDQ     DUMPBUF+1026,,AUTO
         2 000662   000026 036003                    ADLQ    22,DU
         2 000663   202032 757100                    STAQ    DUMPBUF+1028,,AUTO
         2 000664   000015 235000 3                  LDA     13
         2 000665   202034 452500                    STP2    DUMPBUF+1030,,AUTO
         2 000666   202034 236100                    LDQ     DUMPBUF+1030,,AUTO
         2 000667   000004 036003                    ADLQ    4,DU
         2 000670   202036 757100                    STAQ    DUMPBUF+1032,,AUTO
         2 000671   377640 235007                    LDA     130976,DL
         2 000672   202040 452500                    STP2    DUMPBUF+1034,,AUTO
         2 000673   202040 236100                    LDQ     DUMPBUF+1034,,AUTO
PL6.E3A0      #001=DBB$DUMP File=DBB$DUMP.:E05TSI                                TUE 07/29/97 12:57 Page:38
         2 000674   001026 036003                    ADLQ    534,DU
         2 000675   202042 757100                    STAQ    DUMPBUF+1036,,AUTO
         2 000676   377640 235007                    LDA     130976,DL
         2 000677   202044 452500                    STP2    DUMPBUF+1038,,AUTO
         2 000700   202044 236100                    LDQ     DUMPBUF+1038,,AUTO
         2 000701   001426 036003                    ADLQ    790,DU
         2 000702   202050 757100                    STAQ    DUMPBUF+1042,,AUTO
         2 000703   202032 237100                    LDAQ    DUMPBUF+1028,,AUTO
         2 000704   202046 757100                    STAQ    DUMPBUF+1040,,AUTO
         2 000705   202036 237100                    LDAQ    DUMPBUF+1032,,AUTO
         2 000706   202052 757100                    STAQ    DUMPBUF+1044,,AUTO
         2 000707   202042 237100                    LDAQ    DUMPBUF+1036,,AUTO
         2 000710   202054 757100                    STAQ    DUMPBUF+1046,,AUTO
         2 000711   202050 237100                    LDAQ    DUMPBUF+1042,,AUTO
         2 000712   202056 757100                    STAQ    DUMPBUF+1048,,AUTO
         2 000713   202056 630500                    EPPR0   DUMPBUF+1048,,AUTO
         2 000714   202063 450500                    STP0    DUMPBUF+1053,,AUTO
         2 000715   202054 631500                    EPPR1   DUMPBUF+1046,,AUTO
         2 000716   202062 451500                    STP1    DUMPBUF+1052,,AUTO
         2 000717   202052 633500                    EPPR3   DUMPBUF+1044,,AUTO
         2 000720   202061 453500                    STP3    DUMPBUF+1051,,AUTO
         2 000721   202046 634500                    EPPR4   DUMPBUF+1040,,AUTO
         2 000722   202060 454500                    STP4    DUMPBUF+1050,,AUTO
         2 000723   202060 630500                    EPPR0   DUMPBUF+1050,,AUTO
         2 000724   000000 220000 xsym               LDX0    DAF$WRITE
         2 000725   000022 631400 xsym               EPPR1   B_VECTNIL+18
         2 000726   000000 701010                    TSX1    0,X0
         2 000727   000000 011000                    NOP     0
         2 000730   001162 710000 2                  TRA     s:8146

      230     8111    2                VECTOR(DUMPBUF(1024)),VECTOR(DUMPBUF(1536)));
      231     8112    2            CASE(%DB_DUMP_ISA,%DB_DUMP_TSA);

      232     8113    2              I=TOP.CODE;

   8113  2 000731   100000 236100                    LDQ     0,,PR1
         2 000732   777777 376007                    ANQ     -1,DL
PL6.E3A0      #001=DBB$DUMP File=DBB$DUMP.:E05TSI                                TUE 07/29/97 12:57 Page:39
         2 000733   200004 756100                    STQ     I,,AUTO

      233     8114    2              CALL DBM$GETMEM(MEMADR,DUMPBUF(1024),UNO,128,ARS,1,DOM)

   8114  2 000734   000000 236000 3                  LDQ     0
         2 000735   202036 756100                    STQ     DUMPBUF+1032,,AUTO
         2 000736   000017 236000 3                  LDQ     15
         2 000737   202035 756100                    STQ     DUMPBUF+1031,,AUTO
         2 000740   200025 633500                    EPPR3   ARS,,AUTO
         2 000741   202034 453500                    STP3    DUMPBUF+1030,,AUTO
         2 000742   000020 237000 3                  LDAQ    16
         2 000743   202032 757100                    STAQ    DUMPBUF+1028,,AUTO
         2 000744   201026 634500                    EPPR4   DUMPBUF+512,,AUTO
         2 000745   202031 454500                    STP4    DUMPBUF+1027,,AUTO
         2 000746   200016 635500                    EPPR5   MEMADR,,AUTO
         2 000747   202030 455500                    STP5    DUMPBUF+1026,,AUTO
         2 000750   202030 630500                    EPPR0   DUMPBUF+1026,,AUTO
         2 000751   000025 631400 xsym               EPPR1   B_VECTNIL+21
         2 000752   000000 701000 xent               TSX1    DBM$GETMEM
         2 000753   001032 702000 2                  TSX2    s:8123

      234     8115    3              WHENRETURN DO;

      235     8116    3   ISA_TSA:      SUBSTR(FMTBUF,0,12)='%4E%(G$TSA%)';

   8116  2 000754   040100 100400       ISA_TSA      MLR     fill='040'O
         2 000755   000025 000014 1                  ADSC9   TFMT+21                  cn=0,n=12
         2 000756   200026 000014                    ADSC9   DUMPBUF,,AUTO            cn=0,n=12

      236     8117    3                 IF I=%DB_DUMP_ISA THEN SUBSTR(FMTBUF,7,1)='I';

   8117  2 000757   200004 235100                    LDA     I,,AUTO
         2 000760   000001 115007                    CMPA    1,DL
         2 000761   000764 601000 2                  TNZ     FMT_IT

   8117  2 000762   000111 236007                    LDQ     73,DL
         2 000763   200027 552104                    STBQ    DUMPBUF+1,'04'O,AUTO
PL6.E3A0      #001=DBB$DUMP File=DBB$DUMP.:E05TSI                                TUE 07/29/97 12:57 Page:40

      237     8118    3   FMT_IT:       I=MEMADR;

   8118  2 000764   200016 235100       FMT_IT       LDA     MEMADR,,AUTO
         2 000765   200004 755100                    STA     I,,AUTO

      238     8119    3                 DA_FDS.EDIT#=ENTADDR(DBB$EDIT);

   8119  2 000766   000000 636000 xent               EAQ     DBB$EDIT
         2 000767   000015 756000 xsym               STQ     DA_FDS+13

      239     8120    3                 CALL DAF$WRITE (VECTOR(FMTBUF), VECTOR(I),

   8120  2 000770   000014 235000 3                  LDA     12
         2 000771   202030 452500                    STP2    DUMPBUF+1026,,AUTO
         2 000772   202030 236100                    LDQ     DUMPBUF+1026,,AUTO
         2 000773   000026 036003                    ADLQ    22,DU
         2 000774   202032 757100                    STAQ    DUMPBUF+1028,,AUTO
         2 000775   777640 235007                    LDA     -96,DL
         2 000776   202034 452500                    STP2    DUMPBUF+1030,,AUTO
         2 000777   202034 236100                    LDQ     DUMPBUF+1030,,AUTO
         2 001000   000004 036003                    ADLQ    4,DU
         2 001001   202036 757100                    STAQ    DUMPBUF+1032,,AUTO
         2 001002   000022 235000 3                  LDA     18
         2 001003   202040 452500                    STP2    DUMPBUF+1034,,AUTO
         2 001004   202040 236100                    LDQ     DUMPBUF+1034,,AUTO
         2 001005   001026 036003                    ADLQ    534,DU
         2 001006   202044 757100                    STAQ    DUMPBUF+1038,,AUTO
         2 001007   202032 237100                    LDAQ    DUMPBUF+1028,,AUTO
         2 001010   202042 757100                    STAQ    DUMPBUF+1036,,AUTO
         2 001011   202036 237100                    LDAQ    DUMPBUF+1032,,AUTO
         2 001012   202046 757100                    STAQ    DUMPBUF+1040,,AUTO
         2 001013   202044 237100                    LDAQ    DUMPBUF+1038,,AUTO
         2 001014   202050 757100                    STAQ    DUMPBUF+1042,,AUTO
         2 001015   202050 630500                    EPPR0   DUMPBUF+1042,,AUTO
         2 001016   202054 450500                    STP0    DUMPBUF+1046,,AUTO
         2 001017   202046 631500                    EPPR1   DUMPBUF+1040,,AUTO
PL6.E3A0      #001=DBB$DUMP File=DBB$DUMP.:E05TSI                                TUE 07/29/97 12:57 Page:41
         2 001020   202053 451500                    STP1    DUMPBUF+1045,,AUTO
         2 001021   202042 633500                    EPPR3   DUMPBUF+1036,,AUTO
         2 001022   202052 453500                    STP3    DUMPBUF+1044,,AUTO
         2 001023   202052 630500                    EPPR0   DUMPBUF+1044,,AUTO
         2 001024   000000 220000 xsym               LDX0    DAF$WRITE
         2 001025   000021 631400 xsym               EPPR1   B_VECTNIL+17
         2 001026   000000 701010                    TSX1    0,X0
         2 001027   000000 011000                    NOP     0

      240     8121    3                   VECTOR(SUBSTR(FMTBUF,2048)));
      241     8122    3                 DA_FDS.EDIT#=ENTADDR(NIL);

   8122  2 001030   000002 236000 xsym               LDQ     B_VECTNIL+2
         2 001031   000015 756000 xsym               STQ     DA_FDS+13

      242     8123    3                 END;

   8123  2 001032   001162 710000 2                  TRA     s:8146

      243     8124    2            CASE(%DB_DUMP_MLCP);

      244     8125    2              IF MEMADR>=4096 THEN RETURN;

   8125  2 001033   200016 235100                    LDA     MEMADR,,AUTO
         2 001034   010000 115007                    CMPA    4096,DL
         2 001035   001037 602000 2                  TNC     s:8126

   8125  2 001036   000000 702200 xent               TSX2  ! X66_ARET

      245     8126    3              IF MEMADR+MEMWRDS>4096 THEN DO;

   8126  2 001037   200016 236100                    LDQ     MEMADR,,AUTO
         2 001040   200017 036100                    ADLQ    MEMWRDS,,AUTO
         2 001041   010001 116007                    CMPQ    4097,DL
         2 001042   001046 602000 2                  TNC     s:8129

      246     8127    3                 MEMWRDS=4096-MEMADR;
PL6.E3A0      #001=DBB$DUMP File=DBB$DUMP.:E05TSI                                TUE 07/29/97 12:57 Page:42

   8127  2 001043   000027 675000 xsym               ERA     B_VECTNIL+23
         2 001044   010001 035007                    ADLA    4097,DL
         2 001045   200017 755100                    STA     MEMWRDS,,AUTO

      247     8128    3                 END;

      248     8129    3              CALL DBM$GETMLCP(CHAN,DUMPBUF,MEMADR,MEMWRDS) WHENRETURN DO;

   8129  2 001046   200017 633500                    EPPR3   MEMWRDS,,AUTO
         2 001047   202033 453500                    STP3    DUMPBUF+1029,,AUTO
         2 001050   200016 634500                    EPPR4   MEMADR,,AUTO
         2 001051   202032 454500                    STP4    DUMPBUF+1028,,AUTO
         2 001052   200026 635500                    EPPR5   DUMPBUF,,AUTO
         2 001053   202031 455500                    STP5    DUMPBUF+1027,,AUTO
         2 001054   200006 636500                    EPPR6   CHAN,,AUTO
         2 001055   202030 456500                    STP6    DUMPBUF+1026,,AUTO
         2 001056   202030 630500                    EPPR0   DUMPBUF+1026,,AUTO
         2 001057   000022 631400 xsym               EPPR1   B_VECTNIL+18
         2 001060   000000 701000 xent               TSX1    DBM$GETMLCP
         2 001061   001076 702000 2                  TSX2    s:8131

      249     8130    3                 CALL DBB$HEXDUMPB(DUMPBUF,MEMWRDS,MEMADR,XTAB);

   8130  2 001062   200007 236100                    LDQ     XTAB$,,AUTO
         2 001063   202033 756100                    STQ     DUMPBUF+1029,,AUTO
         2 001064   200016 630500                    EPPR0   MEMADR,,AUTO
         2 001065   202032 450500                    STP0    DUMPBUF+1028,,AUTO
         2 001066   200017 631500                    EPPR1   MEMWRDS,,AUTO
         2 001067   202031 451500                    STP1    DUMPBUF+1027,,AUTO
         2 001070   200026 633500                    EPPR3   DUMPBUF,,AUTO
         2 001071   202030 453500                    STP3    DUMPBUF+1026,,AUTO
         2 001072   202030 630500                    EPPR0   DUMPBUF+1026,,AUTO
         2 001073   000022 631400 xsym               EPPR1   B_VECTNIL+18
         2 001074   000000 701000 xent               TSX1    DBB$HEXDUMPB
         2 001075   000000 011000                    NOP     0

PL6.E3A0      #001=DBB$DUMP File=DBB$DUMP.:E05TSI                                TUE 07/29/97 12:57 Page:43
      250     8131    3                 END;

   8131  2 001076   001162 710000 2                  TRA     s:8146

      251     8132    2            CASE(%DB_DUMP_LCT);

      252     8133    2              CALL DBB$DUMPLCT(CHAN,XTAB);

   8133  2 001077   200007 236100                    LDQ     XTAB$,,AUTO
         2 001100   202031 756100                    STQ     DUMPBUF+1027,,AUTO
         2 001101   200006 633500                    EPPR3   CHAN,,AUTO
         2 001102   202030 453500                    STP3    DUMPBUF+1026,,AUTO
         2 001103   202030 630500                    EPPR0   DUMPBUF+1026,,AUTO
         2 001104   000020 631400 xsym               EPPR1   B_VECTNIL+16
         2 001105   000000 701000 xent               TSX1    DBB$DUMPLCT
         2 001106   000000 011000                    NOP     0
         2 001107   001162 710000 2                  TRA     s:8146

      253     8134    2            CASE(%DB_DUMP_PLUGH);

      254     8135    3              CALL DBM$GETMEM(MEMADR,DUMPBUF(1024),UNO,16,,16,DOM) WHENRETURN DO;

   8135  2 001110   000000 236000 3                  LDQ     0
         2 001111   202036 756100                    STQ     DUMPBUF+1032,,AUTO
         2 001112   000024 236000 3                  LDQ     20
         2 001113   000001 235000 xsym               LDA     B_VECTNIL+1
         2 001114   202034 757100                    STAQ    DUMPBUF+1030,,AUTO
         2 001115   000026 237000 3                  LDAQ    22
         2 001116   202032 757100                    STAQ    DUMPBUF+1028,,AUTO
         2 001117   201026 633500                    EPPR3   DUMPBUF+512,,AUTO
         2 001120   202031 453500                    STP3    DUMPBUF+1027,,AUTO
         2 001121   200016 634500                    EPPR4   MEMADR,,AUTO
         2 001122   202030 454500                    STP4    DUMPBUF+1026,,AUTO
         2 001123   202030 630500                    EPPR0   DUMPBUF+1026,,AUTO
         2 001124   000025 631400 xsym               EPPR1   B_VECTNIL+21
         2 001125   000000 701000 xent               TSX1    DBM$GETMEM
         2 001126   001133 702000 2                  TSX2    s:8137+1
PL6.E3A0      #001=DBB$DUMP File=DBB$DUMP.:E05TSI                                TUE 07/29/97 12:57 Page:44

      255     8136    3                 SUBSTR(FMTBUF,0,16)='%4E%(G$PLUGH%)';

   8136  2 001127   040100 100400                    MLR     fill='040'O
         2 001130   000030 000016 1                  ADSC9   TFMT+24                  cn=0,n=14
         2 001131   200026 000020                    ADSC9   DUMPBUF,,AUTO            cn=0,n=16

      256     8137    3                 GOTO FMT_IT;

   8137  2 001132   000764 710000 2                  TRA     FMT_IT
         2 001133   001162 710000 2                  TRA     s:8146

      257     8138    3                 END;
      258     8139    2            CASE(%DB_DUMP_MLCTX);

      259     8140    2              IF ENTADDR(DBD$MLCTX) ~= ENTADDR(NIL) THEN CALL DBD$MLCTX(MEMADR,UNO);

   8140  2 001134   000000 636000 xent               EAQ     DBD$MLCTX
         2 001135   000002 116000 xsym               CMPQ    B_VECTNIL+2
         2 001136   001162 600000 2                  TZE     s:8146

   8140  2 001137   000001 236000 3                  LDQ     1
         2 001140   202031 756100                    STQ     DUMPBUF+1027,,AUTO
         2 001141   200016 633500                    EPPR3   MEMADR,,AUTO
         2 001142   202030 453500                    STP3    DUMPBUF+1026,,AUTO
         2 001143   202030 630500                    EPPR0   DUMPBUF+1026,,AUTO
         2 001144   000020 631400 xsym               EPPR1   B_VECTNIL+16
         2 001145   000000 701000 xent               TSX1    DBD$MLCTX
         2 001146   000000 011000                    NOP     0
         2 001147   001162 710000 2                  TRA     s:8146

      260     8141    2            CASE(%DB_DUMP_VDH);

      261     8142    2              DB_FMT = DB_FMT_DEFAULT;

   8142  2 001150   000000 236000 xsym               LDQ     DB_FMT_DEFAULT
         2 001151   000000 756000 xsym               STQ     DB_FMT
PL6.E3A0      #001=DBB$DUMP File=DBB$DUMP.:E05TSI                                TUE 07/29/97 12:57 Page:45

      262     8143    2              DA_FDS.EDIT#=ENTADDR(DBB$EDIT);

   8143  2 001152   000000 636000 xent               EAQ     DBB$EDIT
         2 001153   000015 756000 xsym               STQ     DA_FDS+13

      263     8144    2              CALL DBD$VDH(MEMADR);

   8144  2 001154   200016 633500                    EPPR3   MEMADR,,AUTO
         2 001155   202030 453500                    STP3    DUMPBUF+1026,,AUTO
         2 001156   202030 630500                    EPPR0   DUMPBUF+1026,,AUTO
         2 001157   000017 631400 xsym               EPPR1   B_VECTNIL+15
         2 001160   000000 701000 xent               TSX1    DBD$VDH
         2 001161   000000 011000                    NOP     0

      264     8145    2            END;

      265     8146    1           RETURN;

   8146  2 001162   000000 702200 xent               TSX2  ! X66_ARET

      266     8147        %EJECT;
PL6.E3A0      #001=DBB$DUMP File=DBB$DUMP.:E05TSI                                TUE 07/29/97 12:57 Page:46
      267     8148    1   DBB$TSA: ENTRY (TOP);

   8148  2 001163   000000 700200 xent  DBB$TSA      TSX0  ! X66_AUTO_1
         2 001164   002064 000001                    ZERO    1076,1

      268     8149    1           I=%DB_DUMP_TSA;

   8149  2 001165   000002 235007                    LDA     2,DL
         2 001166   200004 755100                    STA     I,,AUTO

      269     8150    1           GOTO TSA_ISA;

   8150  2 001167   001174 710000 2                  TRA     TSA_ISA

      270     8151    1   DBB$ISA: ENTRY (TOP);

   8151  2 001170   000000 700200 xent  DBB$ISA      TSX0  ! X66_AUTO_1
         2 001171   002064 000001                    ZERO    1076,1

      271     8152    1           I=%DB_DUMP_ISA;

   8152  2 001172   000001 235007                    LDA     1,DL
         2 001173   200004 755100                    STA     I,,AUTO

      272     8153    1   TSA_ISA: SUBSTR(FMTBUF,2048,128)=ADDR(TOP)->XTAB;

   8153  2 001174   200003 470500       TSA_ISA      LDP0    @TOP,,AUTO
         2 001175   040100 100500                    MLR     fill='040'O
         2 001176   000000 000200                    ADSC9   0,,PR0                   cn=0,n=128
         2 001177   201026 000200                    ADSC9   DUMPBUF+512,,AUTO        cn=0,n=128

      273     8154    1           GOTO ISA_TSA;

   8154  2 001200   000754 710000 2                  TRA     ISA_TSA
      274     8155        /**/
      275     8156    1   END DBB$DUMP;
      276     8157        %EOD;
PL6.E3A0      #001=DBB$DUMP File=DBB$DUMP.:E05TSI                                TUE 07/29/97 12:57 Page:47

PL6.E3A0      #001=DBB$DUMP File=DBB$DUMP.:E05TSI                                TUE 07/29/97 12:57 Page:48
--  Include file information  --

   B$TABLES_C.:E05TOU  cannot be made into a system file and is referenced.
   B$OBJECT_C.:E05TOU  is referenced.
   DB_MACRO_M.:E05TOU  is referenced.
   DA_SYMBOLS_R.:E05TOU  cannot be made into a system file and is referenced.
   DA_ANLZ_R.:E05TOU  cannot be made into a system file and is referenced.
   DA_CMD_C.:E05TOU  is referenced.
   DA_FORMAT_C.:E05TOU  is referenced.
   XU_FORMAT_C.:E05TOU  is referenced.
   XUF_ENTRY.:E05TOU  cannot be made into a system file and is referenced.
   XU_MACRO_C.:E05TOU  is referenced.
      No diagnostics issued in procedure DBB$DUMP.
PL6.E3A0      #001=DBB$DUMP File=DBB$DUMP.:E05TSI                                TUE 07/29/97 12:57 Page:49

 **** Variables and constants ****

  ****  Section 000  Data  DBB$DUMP

  ****  Scalars and arrays  ****
OctLoc.c.b A Datatyp(siz) R M Lvl/name                 OctLoc.c.b A Datatyp(siz) R M Lvl/name

     0-0-0/w STRC(1080)  r     1 FDS                       36-0-0/w STRC(288)   r     1 RPT
    46-0-0/c STRC(396)   r     1 TTL

  ****  Section 001 RoData DBB$DUMP

  ****  Scalars and arrays  ****
OctLoc.c.b A Datatyp(siz) R M Lvl/name                 OctLoc.c.b A Datatyp(siz) R M Lvl/name

     0-0-0/c CHAR(61)    r     1 TFMT

  ****  Auto variables  ****

  ****  Scalars and arrays  ****
OctLoc.c.b A Datatyp(siz) R M Lvl/name                 OctLoc.c.b A Datatyp(siz) R M Lvl/name

     3-0-0/w PTR         r     1 @TOP                      25-0-0/w SBIN        r     1 ARS
    15-0-0/w UBIN        r     1 AT                        14-0-0/w SBIN        r     1 ATX
     6-0-0/w UBIN        r     1 CHAN                      20-0-0/w UBIN        r     1 CHUNK
    26-0-0/h UBIN(18)    r     1 DUMPBUF(0:2048)           11-0-0/w PTR         r     1 DUMPBUF$
    26-0-0/h CHAR(4098)  r     1 FMTBUF                    24-0-0/w PTR         r     1 FMTN$
    23-0-0/w BIT         r     1 GOTLP                      4-0-0/w SBIN        r     1 I
     4-0-0/w SBIN        r     1 IA(0:0)                   21-0-0/w UBIN        r     1 IMW
    12-0-0/w SBIN        r     1 LOCIDX                    22-0-0/b STRC(9)     r     1 LP(0:3)
    16-0-0/w UBIN        r     1 MEMADR                    16-0-0/w STRC        r     1 MEMADR_R
    17-0-0/w UBIN        r     1 MEMWRDS                   13-0-0/w SBIN        r     1 SIZEIDX
    *0-0-0/w STRC(144)   r     1 TOP                        5-0-0/w BIT         r     1 TTLFLG
     7-0-0/w PTR         r     1 XTAB$

  ****  SYMREF variables  ****

PL6.E3A0      #001=DBB$DUMP File=DBB$DUMP.:E05TSI                                TUE 07/29/97 12:57 Page:50
  ****  Scalars and arrays  ****
OctLoc.c.b A Datatyp(siz) R M Lvl/name                 OctLoc.c.b A Datatyp(siz) R M Lvl/name

     0-0-0/w PTR         r     1 B$XL_ASC_DUMP$             0-0-0/w PTR         r     1 B$XL_EBC_DUMP$
     0-0-0/w EPTR        r     1 DAF$WRITE                  0-0-0/w STRC(1080)  r     1 DA_FDS
     0-0-0/w SBIN        r     1 DB_D#                      0-0-0/b BIT         r     1 DB_FMT
     0-0-0/b BIT         r     1 DB_FMT_DEFAULT             0-0-0/w PTR         r     1 DB_NXT$
     0-0-0/w SBIN        r     1 DB_U#                      0-0-0/w SBIN        r     1 DOM
     0-0-0/w SBIN        r     1 UNO

  ****  BASED and DCB variables  ****

  ****  Scalars and arrays  ****
OctLoc.c.b A Datatyp(siz) R M Lvl/name                 OctLoc.c.b A Datatyp(siz) R M Lvl/name

     0-0-0/d STRC(4608)  r     1 DA_EBCDIC_TBL              0-0-0/d STRC(4608)  r     1 DA_PRINTABLE_TBL
     0-0-0/w STRC(144)   r     1 OUT                        0-0-0/w ASTR(153)   r     1 SYM
     0-0-0/c CHAR(512)   r     1 XTAB


   Procedure DBB$DUMP requires 641 words for executable code.
   Procedure DBB$DUMP requires 1076 words of local(AUTO) storage.
PL6.E3A0      #001=DBB$DUMP File=DBB$DUMP.:E05TSI                                TUE 07/29/97 12:57 Page:51
          *** CROSS REFERENCE LISTING ***
**     DENOTES     IDENTIFIER DEFINITION
<<                 IDENTIFIER'S VALUE SET
>>                 IDENTIFIER'S VALUE USED
<>                 IDENTIFIER SET AND/OR USED
--                 IDENTIFIER REFERENCED
PL6.E3A0      #001=DBB$DUMP File=DBB$DUMP.:E05TSI                                TUE 07/29/97 12:57 Page:52
          MINI XREF LISTING

ARS
      7673**DCL      8068<>CALL     8070>>IF       8075<>CALL     8076>>IF       8077>>CALL     8081>>IF
      8114<>CALL
AT
      7653**DCL      7993<<ASSIGN   8000<<ASSIGN   8000>>ASSIGN   8050<>CALL     8068>>CALL     8097>>IF
      8098<<ASSIGN   8099>>ASSIGN   8101>>ASSIGN
ATX
      7652**DCL      7992<<ASSIGN   8004<<ASSIGN   8049>>IF       8050>>CALL
B$XL_ASC_DUMP$
      7486**DCL      7487--IMP-PTR  8018>>ASSIGN
B$XL_EBC_DUMP$
      7490**DCL      7491--IMP-PTR  8020>>ASSIGN
CHAN
      7644**DCL      8026<>CALL     8129<>CALL     8133<>CALL
CHUNK
      7659**DCL      8074<<ASSIGN   8075>>CALL     8079>>ASSIGN   8080>>ASSIGN   8081>>IF
DAA$VALUE
      7623**DCL-ENT  8026--CALL
DAF$INIT
      7624**DCL-ENT  8061--CALL
DAF$WRITE
      7625**DCL      8110>>CALL     8120>>CALL
DA_EBCDIC_TBL
      7491**DCL      8020--ASSIGN
DA_FDS.EDIT#
      7929**DCL      8119<<ASSIGN   8122<<ASSIGN   8143<<ASSIGN
DA_PRINTABLE_TBL
      7487**DCL      8018--ASSIGN
DA_SYMSEG.P
      3900**DCL      3901--REDEF
DBA$EXPRESSION
      7626**DCL-ENT  8013--CALL     8033--CALL     8038--CALL     8050--CALL     8104--CALL
PL6.E3A0      #001=DBB$DUMP File=DBB$DUMP.:E05TSI                                TUE 07/29/97 12:57 Page:53
DBA$SELECTION
      7627**DCL-ENT  8009--CALL
DBB$DUMPLCT
      7634**DCL-ENT  8133--CALL
DBB$EDIT
      7628**DCL-ENT  8007--ASSIGN   8119--ASSIGN   8143--ASSIGN
DBB$HEXDUMP
      7629**DCL-ENT  8077--CALL
DBB$HEXDUMPB
      7630**DCL-ENT  8130--CALL
DBD$MLCTX
      7631**DCL-ENT  8140--IF       8140--CALL
DBD$VDH
      7632**DCL-ENT  8144--CALL
DBM$GETMEM
      7635**DCL-ENT  8068--CALL     8075--CALL     8114--CALL     8135--CALL
DBM$GETMLCP
      7633**DCL-ENT  8129--CALL
DB_D#
      7669**DCL      7670--REDEF
DB_FMT
      7977**DCL      8142<<ASSIGN
DB_FMT_DEFAULT
      7978**DCL      8142>>ASSIGN
DB_NXT$
      7672**DCL      7995<<ASSIGN
DB_U#
      7667**DCL      7668--REDEF
DOM
      7670**DCL      7988<<ASSIGN   8009<>CALL     8016<<ASSIGN   8068<>CALL     8075<>CALL     8114<>CALL
      8135<>CALL
DUMPBUF
      7973**DCL      7974--REDEF    8063--ASSIGN   8075<>CALL     8077<>CALL     8110--CALL     8110--CALL
      8114<>CALL     8129<>CALL     8130<>CALL     8135<>CALL
DUMPBUF$
      7648**DCL      8063<<ASSIGN
PL6.E3A0      #001=DBB$DUMP File=DBB$DUMP.:E05TSI                                TUE 07/29/97 12:57 Page:54
FDS
      7689**DCL      8055<>CALL
FDS.BUFX
      7713**DCL      8059>>ASSIGN
FMTBUF
      7974**DCL      8092<<ASSIGN   8093<<CALLBLT  8095<<ASSIGN   8096<<ASSIGN   8097--IF       8098--ASSIGN
      8110--CALL     8116<<ASSIGN   8117<<ASSIGN   8120--CALL     8120--CALL     8136<<ASSIGN   8153<<ASSIGN
FMTN$
      7671**DCL      8006<<ASSIGN   8094>>ASSIGN   8095>>ASSIGN   8095>>ASSIGN
FMT_IT
      8118**LABEL    8137--GOTO
GOTLP
      7664**DCL      8066<<ASSIGN   8070<<ASSIGN   8085>>IF
I
      7641**DCL      7642--REDEF    7996<<DOINDEX  7997>>DOCASE   7999>>ASSIGN   8002>>ASSIGN   8004>>ASSIGN
      8006>>ASSIGN   8009>>CALL     8013>>CALL     8022>>ASSIGN   8023>>ASSIGN   8023>>ASSIGN   8026>>CALL
      8086<<DOINDEX  8087>>ASSIGN   8087>>ASSIGN   8094<<ASSIGN   8095>>ASSIGN   8096>>ASSIGN   8101<<ASSIGN
      8102>>IF       8103>>IF       8104>>CALL     8104>>CALL     8107<<ASSIGN   8107>>ASSIGN   8110--CALL
      8113<<ASSIGN   8117>>IF       8118<<ASSIGN   8120--CALL     8149<<ASSIGN   8152<<ASSIGN
IA
      7642**DCL      8097--IF       8098--ASSIGN   8099<<ASSIGN   8100<<ASSIGN   8101>>ASSIGN   8104>>CALL
      8104<>CALL     8109<<ASSIGN
IMW
      7660**DCL      8048<<ASSIGN   8072>>ASSIGN
ISA_TSA
      8116**LABEL    8154--GOTO
LLMORE
      8055**LABEL    8089--GOTO
LOCIDX
      7650**DCL      7990<<ASSIGN   7999>>IF       7999<<ASSIGN   8032>>IF       8033>>CALL     8100>>ASSIGN
LP
      7661**DCL      8068<>CALL     8085>>IF
LP.B
      7663**DCL      8087>>ASSIGN
MEMADR
      7654**DCL      7655--REDEF    7989<<ASSIGN   8033<>CALL     8043>>IF       8044>>ASSIGN   8046>>ASSIGN
PL6.E3A0      #001=DBB$DUMP File=DBB$DUMP.:E05TSI                                TUE 07/29/97 12:57 Page:55
      8055--CALL     8068>>CALL     8074>>ASSIGN   8075<>CALL     8077<>CALL     8080<<ASSIGN   8080>>ASSIGN
      8093>>CALLBLT  8114<>CALL     8118>>ASSIGN   8125>>IF       8126>>IF       8127>>ASSIGN   8129<>CALL
      8130<>CALL     8135<>CALL     8140<>CALL     8144<>CALL
MEMADR_R.B
      7657**DCL      8087<<ASSIGN
MEMWRDS
      7658**DCL      8038<>CALL     8044<<ASSIGN   8046<<ASSIGN   8048>>ASSIGN   8055--CALL     8072<<ASSIGN
      8073>>DOWHILE  8074>>ASSIGN   8079<<ASSIGN   8079>>ASSIGN   8082<<ASSIGN   8126>>IF       8127<<ASSIGN
      8129<>CALL     8130<>CALL
OUT
      7545**DCL      8009<>CALL     8013<>CALL     8026<>CALL     8033<>CALL     8038<>CALL     8050<>CALL
      8104<>CALL
OUT.CODE
      7553**DCL      7997>>DOCASE   8103>>IF
OUT.SUBLK$
      7578**DCL      8009>>CALL     8013>>CALL     8033>>CALL     8038>>CALL     8050>>CALL     8104>>CALL
RPT
      7805**DCL      8061<>CALL
RPT.EDIT#
      7831**DCL      7994<<ASSIGN   8007<<ASSIGN
SIZEIDX
      7651**DCL      7991<<ASSIGN   8002<<ASSIGN   8037>>IF       8038>>CALL
SYM.COUNT
      7614**DCL      7617--IMP-SIZ  8022>>ASSIGN   8023>>ASSIGN   8094>>ASSIGN   8095>>ASSIGN
SYM.TEXT
      7617**DCL      8023>>ASSIGN   8095>>ASSIGN
TFMT
      7854**DCL      8055--CALL
TOP
      7500**DCL        10--PROC     8148--ENTRY    8151--ENTRY    8153--ASSIGN
TOP.CODE
      7508**DCL      8064>>DOCASE   8067>>IF       8085>>IF       8113>>ASSIGN
TOP.NSUBLKS
      7512**DCL      7996>>DOINDEX
TOP.SUBLK$
      7533**DCL      7997>>DOCASE   8006>>ASSIGN   8009>>CALL     8013>>CALL     8022>>ASSIGN   8023>>ASSIGN
PL6.E3A0      #001=DBB$DUMP File=DBB$DUMP.:E05TSI                                TUE 07/29/97 12:57 Page:56
      8023>>ASSIGN   8026>>CALL     8033>>CALL     8038>>CALL     8050>>CALL     8103>>IF       8104>>CALL
TSA_ISA
      8153**LABEL    8150--GOTO
TTL
      7969**DCL      7707--DCLINIT  7709--DCLINIT  7833--DCLINIT
TTL.C
      7971**DCL      8023<<ASSIGN
TTL.L
      7970**DCL      8022<<ASSIGN   8059<<ASSIGN
TTLFLG
      7643**DCL      7986<<ASSIGN   8024<<ASSIGN   8054>>IF
UNO
      7668**DCL      7987<<ASSIGN   8009<>CALL     8013<>CALL     8033<>CALL     8038<>CALL     8050<>CALL
      8055--CALL     8068<>CALL     8075<>CALL     8104<>CALL     8114<>CALL     8135<>CALL     8140<>CALL
X$WRITE
      3124**DCL-ENT  8055--CALL
XTAB
      7646**DCL      8077<>CALL     8110--CALL     8130<>CALL     8133<>CALL     8153>>ASSIGN
XTAB$
      7645**DCL      7646--IMP-PTR  7985<<ASSIGN   8018<<ASSIGN   8020<<ASSIGN   8077>>CALL     8130>>CALL
      8133>>CALL

PL6.E3A0      #002=DBB$DUMPLCT File=DBB$DUMP.:E05TSI                             TUE 07/29/97 12:58 Page:57
      277        1        /*T***********************************************************/
      278        2        /*T*                                                         */
      279        3        /*T* Copyright (c) Bull HN Information Systems Inc., 1997    */
      280        4        /*T*                                                         */
      281        5        /*T***********************************************************/
      282        6        DBB$DUMPLCT: PROC(CHN,XTAB);
      283        7
      284        8    1   DCL CHN UBIN;
      285        9    1   DCL XTAB UBIN;
      286       10
      287       11        %INCLUDE DA_ANLZ_R;
      288       24        %INCLUDE DA_MAP_R;
      289       54        %INCLUDE DB_PERR_C;
      290       72        %INCLUDE G$BOBCAT_M;
      291       92        %INCLUDE KH$CHN;
      292      214        %INCLUDE KI_CP6;
      293     1310
      294     1311    1   DCL DAA$ERRMSG ENTRY(1);
      295     1312    1   DCL DBB$HEXDUMPB ENTRY(4);
      296     1313    1   DCL DBM$GETBOBCAT ENTRY(1) ALTRET;
      297     1314    1   DCL DBM$GETMEM ENTRY(10) ALTRET;
      298     1315    1   DCL DBM$PACK2 ENTRY(2);
      299     1316    1   DCL DBM$PACK4 ENTRY(2);
      300     1317    1   DCL DBM$GETMLCP ENTRY(5) ALTRET;
      301     1318    1   DCL DBM$GETLCT ENTRY(4) ALTRET;
      302     1319    1   DCL DAF$WRITE EPTR SYMREF;
      303     1320
      304     1321        %G$BOBCAT (FPTN=G$BOBCAT,STCLASS=AUTO);
      305     1334        %KH$CHN (NAME=KH$CHN,STCLASS=AUTO);
      306     1458    1   DCL CHNLOW UBIN;
      307     1459    1   DCL CHNLOWPTR UBIN;
      308     1460    1   DCL CHNHI UBIN;
      309     1461    1   DCL CHNADR UBIN;
      310     1462    1   DCL DVCID UBIN;
      311     1463
      312     1464    1   DCL LCTBYTES UBIN;
      313     1465    1   DCL LCTBUF CHAR(256);
PL6.E3A0      #002=DBB$DUMPLCT File=DBB$DUMP.:E05TSI                             TUE 07/29/97 12:58 Page:58
      314     1466    1   DCL LCTADR UBIN;
      315     1467
      316     1468    1   DCL LCTFMT CHAR(0) CONSTANT INIT('%/LCT for channel .%H%/');
      317     1469
      318     1470    2           CALL DBM$GETBOBCAT(G$BOBCAT) WHENALTRETURN DO;
      319     1471    2              RETURN;
      320     1472    2              END;
      321     1473    1           CALL DBM$PACK2(G$BOBCAT.CHNLOW,CHNLOW);
      322     1474    1           CALL DBM$PACK4(G$BOBCAT.CHNLOW$,CHNLOWPTR);
      323     1475    1           CALL DBM$PACK2(G$BOBCAT.CHNHI,CHNHI);
      324     1476    2           IF CHN<CHNLOW OR CHN>CHNHI THEN DO;
      325     1477    2              DA_ANLZERR='040202000000'O;
      326     1478    2              DA_ANLZERR.CODE=%E$DB_BAD_CHAN;
      327     1479        /*E*       ERROR:  DBB-E$DB_BAD_CHAN
      328     1480                   MESSAGE:  Invalid channel identifier.
      329     1481        */
      330     1482    2              RETURN;
      331     1483    2              END;
      332     1484    1           CHNADR=CHNLOWPTR+CHN*SIZEC(KH$CHN)/256;
      333     1485    2           CALL DBM$GETMEM(CHNADR,KH$CHN,,SIZEC(KH$CHN),,SIZEC(KH$CHN)) WHENALTRETURN
              1485                    DO;
      334     1486    2              CALL DAA$ERRMSG;
      335     1487    2              RETURN;
      336     1488    2              END;
      337     1489
      338     1490    1           CALL DBM$PACK2(KH$CHN.DVCID,DVCID);
      339     1491    2           IF DVCID = %BITBIN('2978'X) THEN DO;
      340     1492    2              LCTBYTES=256;
      341     1493    2              END;
      342     1494    2           ELSE DO;
      343     1495    2              LCTBYTES=64;
      344     1496    2              END;
      345     1497    1           LCTADR = LCTBYTES*MOD(CHN,1024)/128;
      346     1498    2           CALL GETLCT WHENRETURN DO;
      347     1499    2              CALL DAF$WRITE(VECTOR(LCTFMT),VECTOR(CHN));
      348     1500    2              CALL DBB$HEXDUMPB(LCTBUF,LCTBYTES,0,XTAB);
      349     1501    2              END;
PL6.E3A0      #002=DBB$DUMPLCT File=DBB$DUMP.:E05TSI                             TUE 07/29/97 12:58 Page:59
      350     1502    1           RETURN;
      351     1503
      352     1504    1   GETLCT: PROC ALTRET;
      353     1505
      354     1506    3           IF DA_DUMPFILE THEN DO;
      355     1507    4              CALL DBM$GETMLCP(CHN,LCTBUF,LCTADR,LCTBYTES) WHENALTRETURN DO;
      356     1508    4                 ALTRETURN;
      357     1509    4                 END;
      358     1510    3              END;
      359     1511    3           ELSE DO;
      360     1512    4              CALL DBM$GETLCT(CHN,LCTBUF,LCTADR,LCTBYTES) WHENALTRETURN DO;
      361     1513    4                 ALTRETURN;
      362     1514    4                 END;
      363     1515    3              END;
      364     1516    2           RETURN;
      365     1517
      366     1518    2   END GETLCT;
      367     1519    1   END DBB$DUMPLCT;
      368     1520        %EOD;

PL6.E3A0      #002=DBB$DUMPLCT File=DBB$DUMP.:E05TSI                             TUE 07/29/97 12:58 Page:60
--  Include file information  --

   KI_CP6.:E05TOU  is referenced.
   KH$CHN.:E05TOU  is referenced.
   G$BOBCAT_M.:E05TOU  is referenced.
   DB_PERR_C.:E05TOU  is referenced.
   DA_MAP_R.:E05TOU  cannot be made into a system file and is referenced.
   DA_ANLZ_R.:E05TOU  cannot be made into a system file and is referenced.
      No diagnostics issued in procedure DBB$DUMPLCT.

   Procedure DBB$DUMPLCT requires 156 words for executable code.
   Procedure DBB$DUMPLCT requires 154 words of local(AUTO) storage.

PL6.E3A0      #002=DBB$DUMPLCT File=DBB$DUMP.:E05TSI                             TUE 07/29/97 12:58 Page:61

 Object Unit name= DBB$DUMPLCT                                File name= DBB$DUMP.:E05TOU
 UTS= JUL 29 '97 12:58:07.24 TUE                              Compiler= PL-6/E31         Sev=      00
 SharedLib= :SHARED_SYSTEM                                    Alt SharedLib=


    ****  Control sections  ****

 Sect   Type Bound  Init  Size OctSiz  Section name(segment info)
    0  RoData even  UTS      7      7  DBB$DUMPLCT
    1   Proc  even  none   156    234  DBB$DUMPLCT
    2  RoData even  none     8     10  DBB$DUMPLCT

    ****  Entry defs  ****

                              Check   Calling
                             calling  sequence
  Sect OctLoc Primary Altret sequence   type   Parms  Name
     1      0   yes            yes      Std        2  DBB$DUMPLCT

  ****  Entry refs  ****

         Check        Calling
        calling       sequence
Altret sequence SRef   type   Args  Name
 yes     yes           Std       1 DBM$GETBOBCAT
         yes           Std       2 DBM$PACK2
         yes           Std       2 DBM$PACK4
 yes     yes           Std      10 DBM$GETMEM
         yes           Std       1 DAA$ERRMSG
         yes           Std       4 DBB$HEXDUMPB
 yes     yes           Std       5 DBM$GETMLCP
 yes     yes           Std       4 DBM$GETLCT
                       nStd      0 X66_AUTO_2
                       Std       0 B_CONSPOOL_D
                       nStd      0 X66_ARET
PL6.E3A0      #002=DBB$DUMPLCT File=DBB$DUMP.:E05TSI                             TUE 07/29/97 12:58 Page:62

  ****  Data refs  ****

  Flags:  r = read only, s = secondary
Flgs Name                             Flgs Name                             Flgs Name
     DA_ANLZERR                            DA_DUMPFILE                           DAF$WRITE
     B_VECTNIL

  ****  Segment refs  ****

  Flags:  r = read only, s = secondary
Flgs Name                             Flgs Name                             Flgs Name
     ISSID
PL6.E3A0      #002=DBB$DUMPLCT File=DBB$DUMP.:E05TSI                             TUE 07/29/97 12:58 Page:63


      277        1        /*T***********************************************************/
      278        2        /*T*                                                         */
      279        3        /*T* Copyright (c) Bull HN Information Systems Inc., 1997    */
      280        4        /*T*                                                         */
      281        5        /*T***********************************************************/
      282        6        DBB$DUMPLCT: PROC(CHN,XTAB);

      6  1 000000   000000 700200 xent  DBB$DUMPLCT  TSX0  ! X66_AUTO_2
         1 000001   000232 000002                    ZERO    154,2

      283        7
      284        8    1   DCL CHN UBIN;
      285        9    1   DCL XTAB UBIN;
      286       10
      287       11        %INCLUDE DA_ANLZ_R;
      288       24        %INCLUDE DA_MAP_R;
      289       54        %INCLUDE DB_PERR_C;
      290       72        %INCLUDE G$BOBCAT_M;
      291       92        %INCLUDE KH$CHN;
      292      214        %INCLUDE KI_CP6;
      293     1310
      294     1311    1   DCL DAA$ERRMSG ENTRY(1);
      295     1312    1   DCL DBB$HEXDUMPB ENTRY(4);
      296     1313    1   DCL DBM$GETBOBCAT ENTRY(1) ALTRET;
      297     1314    1   DCL DBM$GETMEM ENTRY(10) ALTRET;
      298     1315    1   DCL DBM$PACK2 ENTRY(2);
      299     1316    1   DCL DBM$PACK4 ENTRY(2);
      300     1317    1   DCL DBM$GETMLCP ENTRY(5) ALTRET;
      301     1318    1   DCL DBM$GETLCT ENTRY(4) ALTRET;
      302     1319    1   DCL DAF$WRITE EPTR SYMREF;
      303     1320
      304     1321        %G$BOBCAT (FPTN=G$BOBCAT,STCLASS=AUTO);
      305     1334        %KH$CHN (NAME=KH$CHN,STCLASS=AUTO);
      306     1458    1   DCL CHNLOW UBIN;
      307     1459    1   DCL CHNLOWPTR UBIN;
      308     1460    1   DCL CHNHI UBIN;
PL6.E3A0      #002=DBB$DUMPLCT File=DBB$DUMP.:E05TSI                             TUE 07/29/97 12:58 Page:64
      309     1461    1   DCL CHNADR UBIN;
      310     1462    1   DCL DVCID UBIN;
      311     1463
      312     1464    1   DCL LCTBYTES UBIN;
      313     1465    1   DCL LCTBUF CHAR(256);
      314     1466    1   DCL LCTADR UBIN;
      315     1467
      316     1468    1   DCL LCTFMT CHAR(0) CONSTANT INIT('%/LCT for channel .%H%/');
      317     1469
      318     1470    2           CALL DBM$GETBOBCAT(G$BOBCAT) WHENALTRETURN DO;

   1470  1 000002   200005 630500                    EPPR0   G$BOBCAT,,AUTO
         1 000003   200224 450500                    STP0    LCTADR+4,,AUTO
         1 000004   200224 630500                    EPPR0   LCTADR+4,,AUTO
         1 000005   000017 631400 xsym               EPPR1   B_VECTNIL+15
         1 000006   000000 701000 xent               TSX1    DBM$GETBOBCAT
         1 000007   000011 702000 1                  TSX2    s:1471
         1 000010   000012 710000 1                  TRA     s:1473

      319     1471    2              RETURN;

   1471  1 000011   000000 702200 xent               TSX2  ! X66_ARET

      320     1472    2              END;
      321     1473    1           CALL DBM$PACK2(G$BOBCAT.CHNLOW,CHNLOW);

   1473  1 000012   200112 630500                    EPPR0   CHNLOW,,AUTO
         1 000013   200225 450500                    STP0    LCTADR+5,,AUTO
         1 000014   200037 631500                    EPPR1   G$BOBCAT+26,,AUTO
         1 000015   200224 451500                    STP1    LCTADR+4,,AUTO
         1 000016   200224 630500                    EPPR0   LCTADR+4,,AUTO
         1 000017   000020 631400 xsym               EPPR1   B_VECTNIL+16
         1 000020   000000 701000 xent               TSX1    DBM$PACK2
         1 000021   000000 011000                    NOP     0

      322     1474    1           CALL DBM$PACK4(G$BOBCAT.CHNLOW$,CHNLOWPTR);

PL6.E3A0      #002=DBB$DUMPLCT File=DBB$DUMP.:E05TSI                             TUE 07/29/97 12:58 Page:65
   1474  1 000022   200113 630500                    EPPR0   CHNLOWPTR,,AUTO
         1 000023   200225 450500                    STP0    LCTADR+5,,AUTO
         1 000024   200041 631500                    EPPR1   G$BOBCAT+28,,AUTO
         1 000025   200224 451500                    STP1    LCTADR+4,,AUTO
         1 000026   200224 630500                    EPPR0   LCTADR+4,,AUTO
         1 000027   000020 631400 xsym               EPPR1   B_VECTNIL+16
         1 000030   000000 701000 xent               TSX1    DBM$PACK4
         1 000031   000000 011000                    NOP     0

      323     1475    1           CALL DBM$PACK2(G$BOBCAT.CHNHI,CHNHI);

   1475  1 000032   200114 630500                    EPPR0   CHNHI,,AUTO
         1 000033   200225 450500                    STP0    LCTADR+5,,AUTO
         1 000034   200226 452500                    STP2    LCTADR+6,,AUTO
         1 000035   200226 236100                    LDQ     LCTADR+6,,AUTO
         1 000036   000000 036000 2                  ADLQ    0
         1 000037   200224 756100                    STQ     LCTADR+4,,AUTO
         1 000040   200224 630500                    EPPR0   LCTADR+4,,AUTO
         1 000041   000020 631400 xsym               EPPR1   B_VECTNIL+16
         1 000042   000000 701000 xent               TSX1    DBM$PACK2
         1 000043   000000 011000                    NOP     0

      324     1476    2           IF CHN<CHNLOW OR CHN>CHNHI THEN DO;

   1476  1 000044   200003 470500                    LDP0    @CHN,,AUTO
         1 000045   000000 236100                    LDQ     0,,PR0
         1 000046   200112 116100                    CMPQ    CHNLOW,,AUTO
         1 000047   000053 602000 1                  TNC     s:1477
         1 000050   200114 116100                    CMPQ    CHNHI,,AUTO
         1 000051   000061 602000 1                  TNC     s:1484
         1 000052   000061 600000 1                  TZE     s:1484

      325     1477    2              DA_ANLZERR='040202000000'O;

   1477  1 000053   000006 236000 0                  LDQ     LCTFMT+6
         1 000054   000000 756000 xsym               STQ     DA_ANLZERR

PL6.E3A0      #002=DBB$DUMPLCT File=DBB$DUMP.:E05TSI                             TUE 07/29/97 12:58 Page:66
      326     1478    2              DA_ANLZERR.CODE=%E$DB_BAD_CHAN;

   1478  1 000055   000001 376000 2                  ANQ     1
         1 000056   000030 276007                    ORQ     24,DL
         1 000057   000000 756000 xsym               STQ     DA_ANLZERR

      327     1479        /*E*       ERROR:  DBB-E$DB_BAD_CHAN
      328     1480                   MESSAGE:  Invalid channel identifier.
      329     1481        */
      330     1482    2              RETURN;

   1482  1 000060   000000 702200 xent               TSX2  ! X66_ARET

      331     1483    2              END;
      332     1484    1           CHNADR=CHNLOWPTR+CHN*SIZEC(KH$CHN)/256;

   1484  1 000061   000006 736000                    QLS     6
         1 000062   000010 772000                    QRL     8
         1 000063   200113 036100                    ADLQ    CHNLOWPTR,,AUTO
         1 000064   200115 756100                    STQ     CHNADR,,AUTO

      333     1485    2           CALL DBM$GETMEM(CHNADR,KH$CHN,,SIZEC(KH$CHN),,SIZEC(KH$CHN)) WHENALTRETURN
              1485                    DO;

   1485  1 000065   000003 236000 2                  LDQ     3
         1 000066   000001 235000 xsym               LDA     B_VECTNIL+1
         1 000067   200230 757100                    STAQ    LCTADR+8,,AUTO
         1 000070   000003 236000 2                  LDQ     3
         1 000071   000001 235000 xsym               LDA     B_VECTNIL+1
         1 000072   200226 757100                    STAQ    LCTADR+6,,AUTO
         1 000073   200072 631500                    EPPR1   KH$CHN,,AUTO
         1 000074   200225 451500                    STP1    LCTADR+5,,AUTO
         1 000075   200115 633500                    EPPR3   CHNADR,,AUTO
         1 000076   200224 453500                    STP3    LCTADR+4,,AUTO
         1 000077   200224 630500                    EPPR0   LCTADR+4,,AUTO
         1 000100   000024 631400 xsym               EPPR1   B_VECTNIL+20
         1 000101   000000 701000 xent               TSX1    DBM$GETMEM
PL6.E3A0      #002=DBB$DUMPLCT File=DBB$DUMP.:E05TSI                             TUE 07/29/97 12:58 Page:67
         1 000102   000104 702000 1                  TSX2    s:1486
         1 000103   000110 710000 1                  TRA     s:1490

      334     1486    2              CALL DAA$ERRMSG;

   1486  1 000104   000002 631400 xsym               EPPR1   B_VECTNIL+2
         1 000105   000000 701000 xent               TSX1    DAA$ERRMSG
         1 000106   000000 011000                    NOP     0

      335     1487    2              RETURN;

   1487  1 000107   000000 702200 xent               TSX2  ! X66_ARET

      336     1488    2              END;
      337     1489
      338     1490    1           CALL DBM$PACK2(KH$CHN.DVCID,DVCID);

   1490  1 000110   200116 630500                    EPPR0   DVCID,,AUTO
         1 000111   200225 450500                    STP0    LCTADR+5,,AUTO
         1 000112   200073 631500                    EPPR1   KH$CHN+1,,AUTO
         1 000113   200224 451500                    STP1    LCTADR+4,,AUTO
         1 000114   200224 630500                    EPPR0   LCTADR+4,,AUTO
         1 000115   000020 631400 xsym               EPPR1   B_VECTNIL+16
         1 000116   000000 701000 xent               TSX1    DBM$PACK2
         1 000117   000000 011000                    NOP     0

      339     1491    2           IF DVCID = %BITBIN('2978'X) THEN DO;

   1491  1 000120   200116 235100                    LDA     DVCID,,AUTO
         1 000121   024570 115007                    CMPA    10616,DL
         1 000122   000126 601000 1                  TNZ     s:1495

      340     1492    2              LCTBYTES=256;

   1492  1 000123   000400 236007                    LDQ     256,DL
         1 000124   200117 756100                    STQ     LCTBYTES,,AUTO

PL6.E3A0      #002=DBB$DUMPLCT File=DBB$DUMP.:E05TSI                             TUE 07/29/97 12:58 Page:68
      341     1493    2              END;

   1493  1 000125   000130 710000 1                  TRA     s:1497

      342     1494    2           ELSE DO;

      343     1495    2              LCTBYTES=64;

   1495  1 000126   000100 236007                    LDQ     64,DL
         1 000127   200117 756100                    STQ     LCTBYTES,,AUTO

      344     1496    2              END;

      345     1497    1           LCTADR = LCTBYTES*MOD(CHN,1024)/128;

   1497  1 000130   200003 470500                    LDP0    @CHN,,AUTO
         1 000131   000000 236100                    LDQ     0,,PR0
         1 000132   001777 376007                    ANQ     1023,DL
         1 000133   200117 402100                    MPY     LCTBYTES,,AUTO
         1 000134   000007 772000                    QRL     7
         1 000135   200220 756100                    STQ     LCTADR,,AUTO

      346     1498    2           CALL GETLCT WHENRETURN DO;

   1498  1 000136   000170 701000 1                  TSX1    GETLCT
         1 000137   000167 702000 1                  TSX2    s:1502

      347     1499    2              CALL DAF$WRITE(VECTOR(LCTFMT),VECTOR(CHN));

   1499  1 000140   777640 235007                    LDA     -96,DL
         1 000141   200003 236100                    LDQ     @CHN,,AUTO
         1 000142   200224 757100                    STAQ    LCTADR+4,,AUTO
         1 000143   200224 630500                    EPPR0   LCTADR+4,,AUTO
         1 000144   200227 450500                    STP0    LCTADR+7,,AUTO
         1 000145   000006 236000 2                  LDQ     6
         1 000146   200226 756100                    STQ     LCTADR+6,,AUTO
         1 000147   200226 630500                    EPPR0   LCTADR+6,,AUTO
PL6.E3A0      #002=DBB$DUMPLCT File=DBB$DUMP.:E05TSI                             TUE 07/29/97 12:58 Page:69
         1 000150   000000 220000 xsym               LDX0    DAF$WRITE
         1 000151   000020 631400 xsym               EPPR1   B_VECTNIL+16
         1 000152   000000 701010                    TSX1    0,X0
         1 000153   000000 011000                    NOP     0

      348     1500    2              CALL DBB$HEXDUMPB(LCTBUF,LCTBYTES,0,XTAB);

   1500  1 000154   200004 236100                    LDQ     @XTAB,,AUTO
         1 000155   000007 235000 2                  LDA     7
         1 000156   200226 757100                    STAQ    LCTADR+6,,AUTO
         1 000157   200117 630500                    EPPR0   LCTBYTES,,AUTO
         1 000160   200225 450500                    STP0    LCTADR+5,,AUTO
         1 000161   200120 631500                    EPPR1   LCTBUF,,AUTO
         1 000162   200224 451500                    STP1    LCTADR+4,,AUTO
         1 000163   200224 630500                    EPPR0   LCTADR+4,,AUTO
         1 000164   000022 631400 xsym               EPPR1   B_VECTNIL+18
         1 000165   000000 701000 xent               TSX1    DBB$HEXDUMPB
         1 000166   000000 011000                    NOP     0

      349     1501    2              END;

      350     1502    1           RETURN;

   1502  1 000167   000000 702200 xent               TSX2  ! X66_ARET

      351     1503
      352     1504    1   GETLCT: PROC ALTRET;

   1504  1 000170   200222 741300       GETLCT       STX1  ! LCTADR+2,,AUTO

      353     1505
      354     1506    3           IF DA_DUMPFILE THEN DO;

   1506  1 000171   000000 234000 xsym               SZN     DA_DUMPFILE
         1 000172   000213 605000 1                  TPL     s:1512

      355     1507    4              CALL DBM$GETMLCP(CHN,LCTBUF,LCTADR,LCTBYTES) WHENALTRETURN DO;
PL6.E3A0      #002=DBB$DUMPLCT File=DBB$DUMP.:E05TSI                             TUE 07/29/97 12:58 Page:70

   1507  1 000173   200117 630500                    EPPR0   LCTBYTES,,AUTO
         1 000174   200227 450500                    STP0    LCTADR+7,,AUTO
         1 000175   200220 631500                    EPPR1   LCTADR,,AUTO
         1 000176   200226 451500                    STP1    LCTADR+6,,AUTO
         1 000177   200120 633500                    EPPR3   LCTBUF,,AUTO
         1 000200   200225 453500                    STP3    LCTADR+5,,AUTO
         1 000201   200003 236100                    LDQ     @CHN,,AUTO
         1 000202   200224 756100                    STQ     LCTADR+4,,AUTO
         1 000203   200224 630500                    EPPR0   LCTADR+4,,AUTO
         1 000204   000022 631400 xsym               EPPR1   B_VECTNIL+18
         1 000205   000000 701000 xent               TSX1    DBM$GETMLCP
         1 000206   000210 702000 1                  TSX2    s:1508
         1 000207   000212 710000 1                  TRA     s:1510

      356     1508    4                 ALTRETURN;

   1508  1 000210   200222 221300                    LDX1  ! LCTADR+2,,AUTO
         1 000211   000000 702211                    TSX2  ! 0,X1

      357     1509    4                 END;
      358     1510    3              END;

   1510  1 000212   000232 710000 1                  TRA     s:1516

      359     1511    3           ELSE DO;

      360     1512    4              CALL DBM$GETLCT(CHN,LCTBUF,LCTADR,LCTBYTES) WHENALTRETURN DO;

   1512  1 000213   200117 630500                    EPPR0   LCTBYTES,,AUTO
         1 000214   200227 450500                    STP0    LCTADR+7,,AUTO
         1 000215   200220 631500                    EPPR1   LCTADR,,AUTO
         1 000216   200226 451500                    STP1    LCTADR+6,,AUTO
         1 000217   200120 633500                    EPPR3   LCTBUF,,AUTO
         1 000220   200225 453500                    STP3    LCTADR+5,,AUTO
         1 000221   200003 236100                    LDQ     @CHN,,AUTO
         1 000222   200224 756100                    STQ     LCTADR+4,,AUTO
PL6.E3A0      #002=DBB$DUMPLCT File=DBB$DUMP.:E05TSI                             TUE 07/29/97 12:58 Page:71
         1 000223   200224 630500                    EPPR0   LCTADR+4,,AUTO
         1 000224   000022 631400 xsym               EPPR1   B_VECTNIL+18
         1 000225   000000 701000 xent               TSX1    DBM$GETLCT
         1 000226   000230 702000 1                  TSX2    s:1513
         1 000227   000232 710000 1                  TRA     s:1516

      361     1513    4                 ALTRETURN;

   1513  1 000230   200222 221300                    LDX1  ! LCTADR+2,,AUTO
         1 000231   000000 702211                    TSX2  ! 0,X1

      362     1514    4                 END;
      363     1515    3              END;

      364     1516    2           RETURN;

   1516  1 000232   200222 221300                    LDX1  ! LCTADR+2,,AUTO
         1 000233   000001 702211                    TSX2  ! 1,X1
      365     1517
      366     1518    2   END GETLCT;
      367     1519    1   END DBB$DUMPLCT;
      368     1520        %EOD;

PL6.E3A0      #002=DBB$DUMPLCT File=DBB$DUMP.:E05TSI                             TUE 07/29/97 12:58 Page:72
--  Include file information  --

   KI_CP6.:E05TOU  is referenced.
   KH$CHN.:E05TOU  is referenced.
   G$BOBCAT_M.:E05TOU  is referenced.
   DB_PERR_C.:E05TOU  is referenced.
   DA_MAP_R.:E05TOU  cannot be made into a system file and is referenced.
   DA_ANLZ_R.:E05TOU  cannot be made into a system file and is referenced.
      No diagnostics issued in procedure DBB$DUMPLCT.
PL6.E3A0      #002=DBB$DUMPLCT File=DBB$DUMP.:E05TSI                             TUE 07/29/97 12:58 Page:73

 **** Variables and constants ****

  ****  Section 000 RoData DBB$DUMPLCT

  ****  Scalars and arrays  ****
OctLoc.c.b A Datatyp(siz) R M Lvl/name                 OctLoc.c.b A Datatyp(siz) R M Lvl/name

     0-0-0/c CHAR(23)    r     1 LCTFMT

  ****  Auto variables  ****

  ****  Scalars and arrays  ****
OctLoc.c.b A Datatyp(siz) R M Lvl/name                 OctLoc.c.b A Datatyp(siz) R M Lvl/name

     3-0-0/w PTR         r     1 @CHN                       4-0-0/w PTR         r     1 @XTAB
    *0-0-0/w UBIN        r     1 CHN                      115-0-0/w UBIN        r     1 CHNADR
   114-0-0/w UBIN        r     1 CHNHI                    112-0-0/w UBIN        r     1 CHNLOW
   113-0-0/w UBIN        r     1 CHNLOWPTR                116-0-0/w UBIN        r     1 DVCID
     5-0-0/w STRC(1908)  r     1 G$BOBCAT                  72-0-0/w STRC(576)   r     1 KH$CHN
   220-0-0/w UBIN        r     1 LCTADR                   120-0-0/c CHAR(256)   r     1 LCTBUF
   117-0-0/w UBIN        r     1 LCTBYTES                  *0-0-0/w UBIN        r     1 XTAB

  ****  SYMREF variables  ****

  ****  Scalars and arrays  ****
OctLoc.c.b A Datatyp(siz) R M Lvl/name                 OctLoc.c.b A Datatyp(siz) R M Lvl/name

     0-0-0/w EPTR        r     1 DAF$WRITE                  0-0-0/w STRC        r     1 DA_ANLZERR
     0-0-0/w BIT         r     1 DA_DUMPFILE


   Procedure DBB$DUMPLCT requires 156 words for executable code.
   Procedure DBB$DUMPLCT requires 154 words of local(AUTO) storage.
PL6.E3A0      #002=DBB$DUMPLCT File=DBB$DUMP.:E05TSI                             TUE 07/29/97 12:58 Page:74
          *** CROSS REFERENCE LISTING ***
**     DENOTES     IDENTIFIER DEFINITION
<<                 IDENTIFIER'S VALUE SET
>>                 IDENTIFIER'S VALUE USED
<>                 IDENTIFIER SET AND/OR USED
--                 IDENTIFIER REFERENCED
PL6.E3A0      #002=DBB$DUMPLCT File=DBB$DUMP.:E05TSI                             TUE 07/29/97 12:58 Page:75
          MINI XREF LISTING

CHN
         8**DCL         6--PROC     1476>>IF       1476>>IF       1484>>ASSIGN   1497>>ASSIGN   1499--CALL
      1507<>CALL     1512<>CALL
CHNADR
      1461**DCL      1484<<ASSIGN   1485<>CALL
CHNHI
      1460**DCL      1475<>CALL     1476>>IF
CHNLOW
      1458**DCL      1473<>CALL     1476>>IF
CHNLOWPTR
      1459**DCL      1474<>CALL     1484>>ASSIGN
DAA$ERRMSG
      1311**DCL-ENT  1486--CALL
DAF$WRITE
      1319**DCL      1499>>CALL
DA_ANLZERR
        19**DCL      1477<<ASSIGN
DA_ANLZERR.CODE
        19**DCL      1478<<ASSIGN
DA_DUMPFILE
        39**DCL      1506>>IF
DA_MAPSEG.P
        49**DCL        50--REDEF
DA_SDASN.DESC.TYPE0
        34**DCL        34--REDEF
DA_TIGRSEG.P
        50**DCL        51--REDEF
DBB$HEXDUMPB
      1312**DCL-ENT  1500--CALL
DBM$GETBOBCAT
      1313**DCL-ENT  1470--CALL
DBM$GETLCT
PL6.E3A0      #002=DBB$DUMPLCT File=DBB$DUMP.:E05TSI                             TUE 07/29/97 12:58 Page:76
      1318**DCL-ENT  1512--CALL
DBM$GETMEM
      1314**DCL-ENT  1485--CALL
DBM$GETMLCP
      1317**DCL-ENT  1507--CALL
DBM$PACK2
      1315**DCL-ENT  1473--CALL     1475--CALL     1490--CALL
DBM$PACK4
      1316**DCL-ENT  1474--CALL
DVCID
      1462**DCL      1490<>CALL     1491>>IF
G$BOBCAT
      1322**DCL      1470<>CALL
G$BOBCAT.CHNHI
      1328**DCL      1475<>CALL
G$BOBCAT.CHNLOW
      1328**DCL      1473<>CALL
G$BOBCAT.CHNLOW$
      1329**DCL      1474<>CALL
GETLCT
      1504**PROC     1498--CALL
KH$CHN
      1349**DCL      1484--ASSIGN   1485<>CALL     1485--CALL     1485--CALL
KH$CHN.DVCID
      1372**DCL      1490<>CALL
KH$CHN.TERMID.TERM
      1445**DCL      1454--REDEF
LCTADR
      1466**DCL      1497<<ASSIGN   1507<>CALL     1512<>CALL
LCTBUF
      1465**DCL      1500<>CALL     1507<>CALL     1512<>CALL
LCTBYTES
      1464**DCL      1492<<ASSIGN   1495<<ASSIGN   1497>>ASSIGN   1500<>CALL     1507<>CALL     1512<>CALL
LCTFMT
      1468**DCL      1499--CALL
XTAB
PL6.E3A0      #002=DBB$DUMPLCT File=DBB$DUMP.:E05TSI                             TUE 07/29/97 12:58 Page:77
         9**DCL         6--PROC     1500<>CALL

PL6.E3A0      #003=DBB$EDIT File=DBB$DUMP.:E05TSI                                TUE 07/29/97 12:58 Page:78
      369        1        /*T***********************************************************/
      370        2        /*T*                                                         */
      371        3        /*T* Copyright (c) Bull HN Information Systems Inc., 1997    */
      372        4        /*T*                                                         */
      373        5        /*T***********************************************************/
      374        6        DBB$EDIT: PROC(FDS,CNT) ALTRET;
      375        7
      376        8        %INCLUDE CP_6;
      377     5567        %INCLUDE XU_FORMAT_C;
      378     5729
      379     5730        %M$DCB (DCBN=M$FMT, ASN=FILE, NAME=':FORMAT', ACS=DIRECT);
      380     5804        %M$DCB (DCBN=M$FMTSYS, ASN=FILE, NAME=':FORMAT', ACCT=':SYS', ACS=DIRECT);
      381     5878        %EQU M$FMT=CHARTEXT('DCBADDR(DCBNUM(M$FMT))->M$FMT');
      382     5879
      383     5880        %FPT_READ (FPTN=READFMT, DCB=M$FMT, KEY=FMTKEY, KEYS=YES);
      384     5919    1   DCL 1 FMTKEY STATIC,
      385     5920    1         2 L UBIN(9) UNAL INIT(0),
      386     5921    1         2 T CHAR(31);
      387     5922
      388     5923        %F_FDS (NAME=FDS, STCLASS=PARAM);
      389     6036    1   DCL CNT(0:4) SBIN;
      390     6037
      391     6038    1   DCL 1 MEMVEC(0:0) BASED(FDS.VECTR$),
      392     6039    1         2 BOUND UBIN(20) UNAL,
      393     6040    1         2 * BIT(16),
      394     6041    1         2 PTR$ PTR;
      395     6042    1   DCL FMT CHAR(FDS.FMTSIZE) BASED(FDS.FMT_.FMT$);
      396     6043    1   DCL BUF CHAR(FDS.BUFSIZE) BASED(FDS.BUF_.BUF$);
      397     6044    1   DCL I UBIN;
      398     6045    1   DCL I$ REDEF I PTR;
      399     6046    1   DCL 1 SYM,
      400     6047    1         2 L UBIN(9) UNAL,
      401     6048    1         2 T CHAR(63);
      402     6049    1   DCL DATSIZ SBIN STATIC;
      403     6050    1   DCL BUBIN UBIN BASED ALIGNED;
      404     6051    1   DCL BHBIN UBIN HALF BASED ALIGNED;
      405     6052    1   DCL 1 TEXTH BASED ALIGNED,
PL6.E3A0      #003=DBB$EDIT File=DBB$DUMP.:E05TSI                                TUE 07/29/97 12:58 Page:79
      406     6053    1         2 C UBIN HALF CALIGNED,
      407     6054    1         2 T CHAR(TEXTH.C) CALIGNED;
      408     6055    1   DCL DB_NXTX SBIN BASED(DB_NXT$) ALIGNED;
      409     6056    1   DCL 1 CND BASED ALIGNED,
      410     6057    1         2 * BIT(72),
      411     6058    1         2 FLG(0:35) BIT(1);
      412     6059
      413     6060    1   DCL DAM$MAP ENTRY(5) ALTRET;
      414     6061    1   DCL DAS$IC2PEDOFS ENTRY(3) ALTRET;
      415     6062    1   DCL DAS$SDMONPTR ENTRY(2) ALTRET;
      416     6063    1   DCL DAS$SDSRCHPTR ENTRY(2) ALTRET;
      417     6064    1   DCL DAS$EDSRCHPTR ENTRY(2) ALTRET;
      418     6065    1   DCL DA_DFLT_RADIX SBIN SYMREF;
      419     6066    1   DCL DBM$GETMEM ENTRY(10) ALTRET;
      420     6067    1   DCL DB_U# SBIN STATIC SYMDEF;
      421     6068    1   DCL DB_D# SBIN STATIC SYMDEF;
      422     6069    1   DCL DB_NXT$ PTR STATIC SYMDEF INIT(ADDR(NIL));
      423     6070        %EJECT;
PL6.E3A0      #003=DBB$EDIT File=DBB$DUMP.:E05TSI                                TUE 07/29/97 12:58 Page:80
      424     6071    2           IF SUBSTR(FMT,0,4)~='%(%)' THEN DO;
      425     6072    2              FMTKEY.L=0;
      426     6073    2              DATSIZ=0;
      427     6074    2              END;
      428     6075    2           DO CASE(CNT(0));
      429     6076    2            CASE(0);                       /* DOT PREV FIELD */
      430     6077    3              CALL INDEX1R(I,' ',BUF,FDS.BUFX) WHENRETURN DO;
      431     6078    3                 SUBSTR(BUF,I,1)='.';
      432     6079    3                 END;
      433     6080    2            CASE(1);             /* Next to format: addr in CNT(1), FMT follows */
      434     6081    2              IF DB_NXT$=ADDR(NIL) OR CNT(1)=0 THEN EXIT;
      435     6082    2              CALL GETFMT;
      436     6083    2            CASE (2, 10);                  /* Fix size */
      437     6084    2              DATSIZ=CNT(1);
      438     6085    3              IF DATSIZ>1024 THEN DO;
      439     6086    3                 CALL BADSIZE;
      440     6087    3                 RETURN;
      441     6088    3                 END;
      442     6089    2              IF CNT(4)>1
      443     6090    2              THEN IF DA_DFLT_RADIX=8 AND CNT(2)<=BITBIN('777777'O) AND CNT(0)=2
      444     6091    2                 THEN MEMVEC.PTR$(0)->BHBIN=CNT(2);
      445     6092    2                 ELSE MEMVEC.PTR$(0)->BUBIN=CNT(2);
      446     6093    2              IF DATSIZ~=0 THEN CALL FIXSIZ;
      447     6094    2            CASE (3, 11);                  /* New data, keep FMT */
      448     6095    2              CALL GETMEM;
      449     6096    2            CASE (4, 12);
      450     6097    2              CALL GETFMT;
      451     6098    2              IF CNT(4)>0 THEN CALL GETMEM;
      452     6099    2            CASE(5);
              6099             /* Abort if no MEMVEC.PTR$(0)->CND.FLG flags set (CNT(1), CNT(2), or CNT(3)) */
      453     6100    2              IF NOT MEMVEC.PTR$(0)->CND.FLG(CNT(1))
      454     6101    2                AND (CNT(2)=0 OR NOT MEMVEC.PTR$(0)->CND.FLG(CNT(2)))
      455     6102    2                AND (CNT(3)=0 OR NOT MEMVEC.PTR$(0)->CND.FLG(CNT(3)))
      456     6103    2              THEN UNWIND TO FDS.BAILOUT;
      457     6104    2            CASE(6);                       /* Display ENTDEF name */
      458     6105    3              CALL DAS$IC2PEDOFS (CNT(2),I$,CNT(3)) WHENRETURN DO;
      459     6106    3                 SUBSTR(BUF,FDS.BUFX)=I$->TEXTH.T;
PL6.E3A0      #003=DBB$EDIT File=DBB$DUMP.:E05TSI                                TUE 07/29/97 12:58 Page:81
      460     6107    3                 FDS.BUFX=MINIMUM(FDS.BUFX+I$->TEXTH.C, FDS.BUFSIZE);
      461     6108    3                 CNT(0)=CNT(3);
      462     6109    3                 END; WHENALTRETURN DO;
      463     6110    3                 CNT(0)=-1;
      464     6111    3                 END;
      465     6112    2              ALTRETURN;
      466     6113    2            CASE(7);                       /* Symbol lookup */
      467     6114    2              IF CNT(1)~=0
      468     6115    2              THEN CALL DAS$SDMONPTR (CNT(1),FDS.USERDAT1#) ALTRET(BAD_SYM);
      469     6116    3              ELSE DO;
      470     6117    3                 CALL INDEX(I,'%',SUBSTR(FMT,FDS.FMTX+2));
      471     6118    3                 SYM.L = I;
      472     6119    3                 SYM.T = SUBSTR(FMT,FDS.FMTX+2,I);
      473     6120    4                 CALL DAS$SDSRCHPTR (SYM, FDS.USERDAT1#) WHENALTRETURN DO;
      474     6121    5                    CALL DAS$EDSRCHPTR (SYM, FDS.USERDAT1#) WHENALTRETURN DO;
      475     6122    5   BAD_SYM:            ; CALL NOSYMBOL;
      476     6123    5                       END;
      477     6124    4                    END;
      478     6125    3                 END;
      479     6126    2            END;
      480     6127    1           RETURN;
      481     6128        %EJECT;
PL6.E3A0      #003=DBB$EDIT File=DBB$DUMP.:E05TSI                                TUE 07/29/97 12:58 Page:82
      482     6129        /* Subroutines */
      483     6130    1   GETFMT: PROC ALTRET;
      484     6131
      485     6132    2   DCL CHAR4 CHAR(4) BASED CALIGNED;
      486     6133    2   DCL CHAR1 CHAR(1) BASED CALIGNED;
      487     6134    2   DCL CHARI CHAR(I) BASED CALIGNED;
      488     6135    2           CALL INDEX(I,'%)',SUBSTR(FMT,FDS.FMTX+2)) ALTRET(BADFMT);
      489     6136    3           IF CNT(0)=1 THEN DO;
      490     6137    3              IF DB_NXTX<I+9 THEN GOTO NOROOM;
      491     6138    3              PINCRC(DB_NXT$,DB_NXTX-4)->CHAR4=ADDR(CNT(1))->CHAR4;
      492     6139    3              DB_NXTX=DB_NXTX-5-I;
      493     6140    3              PINCRC(DB_NXT$,DB_NXTX+1)->CHARI=ADDR(SUBSTR(FMT,FDS.FMTX+2))->CHARI;
      494     6141    3              PINCRC(DB_NXT$,DB_NXTX)->CHAR1=BINASC(I);
      495     6142    3              RETURN;
      496     6143    3              END;
      497     6144    3           IF I~=FMTKEY.L OR SUBSTR(FMT,FDS.FMTX+2,I)~=FMTKEY.T THEN DO;
      498     6145    3              FMTKEY.L=I;
      499     6146    3              FMTKEY.T=SUBSTR(FMT,FDS.FMTX+2,I);
      500     6147    3              READFMT.BUF_.BUF$=FDS.FMT_.FMT$;
      501     6148    3              READFMT.BUF_.BOUND=2047;
      502     6149    4              CALL M$READ(READFMT) WHENALTRETURN DO;
      503     6150    4                 IF READFMT.V.DCB#=DCBNUM(M$FMTSYS) THEN GOTO NOFMT;
      504     6151    4                 READFMT.V.DCB#=DCBNUM(M$FMTSYS);
      505     6152    5                 CALL M$READ(READFMT) WHENALTRETURN DO;
      506     6153    5                    IF %M$FMT.FCD# THEN READFMT.V.DCB#=DCBNUM(M$FMT);
      507     6154    5                    FMTKEY.L=0;
      508     6155    5                    GOTO NOFMT;
      509     6156    5                    END;
      510     6157    4                 END;
      511     6158    3              FDS.FMTSIZE=DCBADDR(READFMT.V.DCB#)->BUBIN;
      512     6159    3              IF %M$FMT.FCD# THEN READFMT.V.DCB#=DCBNUM(M$FMT);
      513     6160    3              IF FDS.FMTSIZE<6 THEN GOTO NOFMT;
      514     6161    3              IF ADDR(FMT)->BUBIN~=0 OR CNT(1)~=0
      515     6162    3              THEN DATSIZ=ADDR(FMT)->BUBIN;
      516     6163    3              IF DATSIZ>1024 THEN GOTO BADSIZ;
      517     6164    3              SUBSTR(FMT,0,4)='%(%)';
      518     6165    3              END;
PL6.E3A0      #003=DBB$EDIT File=DBB$DUMP.:E05TSI                                TUE 07/29/97 12:58 Page:83
      519     6166    2           FDS.FMTX=4;                     /* Start at the beginning */
      520     6167    2           RETURN;
      521     6168    2   NOFMT:  SUBSTR(FMT,0,30)='%/FMT not found in FMT file:';
      522     6169    2           GOTO NOFMT1;
      523     6170    2   NOROOM: SUBSTR(FMT,0,30)='%/No room for "next" item';
      524     6171    2           GOTO NOFMT1;
      525     6172    2   BADFMT: SUBSTR(FMT,0,30)='%/No new FMT name found in ';
      526     6173    2   NOFMT1: SUBSTR(FMT,30,30)=FMTKEY.T;
      527     6174    2   NOFMT2: FDS.FMTX=0;
      528     6175    2           FDS.FMTSIZE=63;
      529     6176    2           SUBSTR(FMT,60,3)='%1Q';
      530     6177    2           DATSIZ=0;
      531     6178    2           ALTRETURN;
      532     6179    2   BADSIZE: ENTRY ALTRET;
      533     6180    2   BADSIZ: SUBSTR(FMT,0,60) = '%/Data request exceeds maximum (1024 words)';
      534     6181    2           GOTO NOFMT2;
      535     6182    2   NOSYMBOL: ENTRY ALTRET;
      536     6183    2           SUBSTR(FMT,0,20) = '%/Symbol not found:';
      537     6184    2           SUBSTR(FMT,20,40) = SYM.T;
      538     6185    2           GOTO NOFMT2;
      539     6186    2   END GETFMT;
      540     6187        %EJECT;
PL6.E3A0      #003=DBB$EDIT File=DBB$DUMP.:E05TSI                                TUE 07/29/97 12:58 Page:84
      541     6188    1   GETMEM: PROC ALTRET;
      542     6189    2           IF DA_DFLT_RADIX=8 AND CNT(1)<=BITBIN('777777'O) AND CNT(0)<8
      543     6190    2           THEN MEMVEC.PTR$(0)->BHBIN=CNT(1);
      544     6191    2           ELSE MEMVEC.PTR$(0)->BUBIN=CNT(1);
      545     6192    2           IF CNT(4)>1 THEN DB_U#=CNT(2);
      546     6193    2           IF CNT(4)>2 THEN DB_D#=CNT(3);
      547     6194    2           IF DATSIZ=0 THEN RETURN;
      548     6195    2   FIXSIZ: ENTRY ALTRET;
      549     6196    2           I=FDS.MEMX;
      550     6197    2           IF I=0 THEN I=1;
      551     6198    2           MEMVEC.BOUND(I)=DATSIZ*32/DA_DFLT_RADIX-1;
      552     6199    2           IF DA_DFLT_RADIX=16
      553     6200    2           THEN CALL DBM$GETMEM (MEMVEC.PTR$(0)->BUBIN,MEMVEC.PTR$(I)->BUBIN,
      554     6201    2                DB_U#,DATSIZ*2,,DATSIZ*2,DB_D#) ALTRET(NOMEM);
      555     6202    3           ELSE IF DATSIZ=1 AND MEMVEC.PTR$(0)->BUBIN<262144 THEN DO;
      556     6203    3                 CALL DAM$MAP (MEMVEC.PTR$(0)->BUBIN,MEMVEC.PTR$(I),
      557     6204    3                   DB_U#,DB_D#) ALTRET(NOMEM);
      558     6205    3                 MEMVEC.BOUND(I)=BITBIN('3777777'O);
      559     6206    3                 END; ELSE DO;
      560     6207    3                 ADDR(MEMVEC.PTR$(I))->BUBIN=MEMVEC.PTR$(0)->BUBIN;
      561     6208    3                 CALL DAM$MAP (MEMVEC.PTR$(0)->BUBIN,MEMVEC.PTR$(I),
      562     6209    3                   DB_U#,DB_D#,MEMVEC(I)) ALTRET(NOMEM);
      563     6210    3                 END;
      564     6211    2           RETURN;
      565     6212    2   NOMEM:  ;
      566     6213    2           UNWIND TO FDS.BAILOUT;
      567     6214    2   END GETMEM;
      568     6215    1   END;

PL6.E3A0      #003=DBB$EDIT File=DBB$DUMP.:E05TSI                                TUE 07/29/97 12:58 Page:85
--  Include file information  --

   XU_FORMAT_C.:E05TOU  is referenced.
   CP_6_C.:E05TOU  is referenced.
   CP_6.:E05TOU  cannot be made into a system file and is referenced.
      No diagnostics issued in procedure DBB$EDIT.

   Procedure DBB$EDIT requires 594 words for executable code.
   Procedure DBB$EDIT requires 34 words of local(AUTO) storage.

    No errors detected in file DBB$DUMP.:E05TSI    .

PL6.E3A0      #003=DBB$EDIT File=DBB$DUMP.:E05TSI                                TUE 07/29/97 12:58 Page:86

 Object Unit name= DBB$EDIT                                   File name= DBB$DUMP.:E05TOU
 UTS= JUL 29 '97 12:58:13.56 TUE                              Compiler= PL-6/E31         Sev=      00
 SharedLib= :SHARED_SYSTEM                                    Alt SharedLib=


    ****  Control sections  ****

 Sect   Type Bound  Init  Size OctSiz  Section name(segment info)
    0   DCB   even  none     0      0  M$UC
    1   DCB   even  none    98    142  M$FMT
    2   DCB   even  none    98    142  M$FMTSYS
    3   Data  even  none    26     32  DBB$EDIT
    4  RoData even  UTS     41     51  DBB$EDIT
    5   Proc  even  none   594   1122  DBB$EDIT
    6  RoData even  none    10     12  DBB$EDIT

    ****  Entry defs  ****

                              Check   Calling
                             calling  sequence
  Sect OctLoc Primary Altret sequence   type   Parms  Name
     5      0   yes    yes     yes      Std        2  DBB$EDIT

  ****  Data defs  ****

 Sect OctLoc  Name                           Sect OctLoc  Name
    3     27  DB_U#                              3     30  DB_D#
    3     31  DB_NXT$
PL6.E3A0      #003=DBB$EDIT File=DBB$DUMP.:E05TSI                                TUE 07/29/97 12:58 Page:87

  ****  Entry refs  ****

         Check        Calling
        calling       sequence
Altret sequence SRef   type   Args  Name
 yes     yes           Std       2 DAS$SDSRCHPTR
 yes     yes           Std       2 DAS$SDMONPTR
 yes     yes           Std       2 DAS$EDSRCHPTR
 yes     yes           Std       3 DAS$IC2PEDOFS
 yes     yes           Std      10 DBM$GETMEM
 yes     yes           Std       5 DAM$MAP
                       nStd      0 X66_AUTO_2
                       Std       0 B_CONSPOOL_D
                       nStd      0 X66_ARET
                       nStd      0 X66_AUNWIND
                       nStd      0 X66_AALT

  ****  Data refs  ****

  Flags:  r = read only, s = secondary
Flgs Name                             Flgs Name                             Flgs Name
     M$UC                                  M$FMT                                 M$FMTSYS
     DA_DFLT_RADIX                         B_VECTNIL

  ****  Segment refs  ****

  Flags:  r = read only, s = secondary
Flgs Name                             Flgs Name                             Flgs Name
     NULLSID                               ISSID                                 ROSID
PL6.E3A0      #003=DBB$EDIT File=DBB$DUMP.:E05TSI                                TUE 07/29/97 12:58 Page:88


      369        1        /*T***********************************************************/
      370        2        /*T*                                                         */
      371        3        /*T* Copyright (c) Bull HN Information Systems Inc., 1997    */
      372        4        /*T*                                                         */
      373        5        /*T***********************************************************/
      374        6        DBB$EDIT: PROC(FDS,CNT) ALTRET;

      6  5 000000   000000 700200 xent  DBB$EDIT     TSX0  ! X66_AUTO_2
         5 000001   000042 000002                    ZERO    34,2

      375        7
      376        8        %INCLUDE CP_6;
      377     5567        %INCLUDE XU_FORMAT_C;
      378     5729
      379     5730        %M$DCB (DCBN=M$FMT, ASN=FILE, NAME=':FORMAT', ACS=DIRECT);
      380     5804        %M$DCB (DCBN=M$FMTSYS, ASN=FILE, NAME=':FORMAT', ACCT=':SYS', ACS=DIRECT);
      381     5878        %EQU M$FMT=CHARTEXT('DCBADDR(DCBNUM(M$FMT))->M$FMT');
      382     5879
      383     5880        %FPT_READ (FPTN=READFMT, DCB=M$FMT, KEY=FMTKEY, KEYS=YES);
      384     5919    1   DCL 1 FMTKEY STATIC,
      385     5920    1         2 L UBIN(9) UNAL INIT(0),
      386     5921    1         2 T CHAR(31);
      387     5922
      388     5923        %F_FDS (NAME=FDS, STCLASS=PARAM);
      389     6036    1   DCL CNT(0:4) SBIN;
      390     6037
      391     6038    1   DCL 1 MEMVEC(0:0) BASED(FDS.VECTR$),
      392     6039    1         2 BOUND UBIN(20) UNAL,
      393     6040    1         2 * BIT(16),
      394     6041    1         2 PTR$ PTR;
      395     6042    1   DCL FMT CHAR(FDS.FMTSIZE) BASED(FDS.FMT_.FMT$);
      396     6043    1   DCL BUF CHAR(FDS.BUFSIZE) BASED(FDS.BUF_.BUF$);
      397     6044    1   DCL I UBIN;
      398     6045    1   DCL I$ REDEF I PTR;
      399     6046    1   DCL 1 SYM,
      400     6047    1         2 L UBIN(9) UNAL,
PL6.E3A0      #003=DBB$EDIT File=DBB$DUMP.:E05TSI                                TUE 07/29/97 12:58 Page:89
      401     6048    1         2 T CHAR(63);
      402     6049    1   DCL DATSIZ SBIN STATIC;
      403     6050    1   DCL BUBIN UBIN BASED ALIGNED;
      404     6051    1   DCL BHBIN UBIN HALF BASED ALIGNED;
      405     6052    1   DCL 1 TEXTH BASED ALIGNED,
      406     6053    1         2 C UBIN HALF CALIGNED,
      407     6054    1         2 T CHAR(TEXTH.C) CALIGNED;
      408     6055    1   DCL DB_NXTX SBIN BASED(DB_NXT$) ALIGNED;
      409     6056    1   DCL 1 CND BASED ALIGNED,
      410     6057    1         2 * BIT(72),
      411     6058    1         2 FLG(0:35) BIT(1);
      412     6059
      413     6060    1   DCL DAM$MAP ENTRY(5) ALTRET;
      414     6061    1   DCL DAS$IC2PEDOFS ENTRY(3) ALTRET;
      415     6062    1   DCL DAS$SDMONPTR ENTRY(2) ALTRET;
      416     6063    1   DCL DAS$SDSRCHPTR ENTRY(2) ALTRET;
      417     6064    1   DCL DAS$EDSRCHPTR ENTRY(2) ALTRET;
      418     6065    1   DCL DA_DFLT_RADIX SBIN SYMREF;
      419     6066    1   DCL DBM$GETMEM ENTRY(10) ALTRET;
      420     6067    1   DCL DB_U# SBIN STATIC SYMDEF;
      421     6068    1   DCL DB_D# SBIN STATIC SYMDEF;
      422     6069    1   DCL DB_NXT$ PTR STATIC SYMDEF INIT(ADDR(NIL));
      423     6070        %EJECT;
PL6.E3A0      #003=DBB$EDIT File=DBB$DUMP.:E05TSI                                TUE 07/29/97 12:58 Page:90
      424     6071    2           IF SUBSTR(FMT,0,4)~='%(%)' THEN DO;

   6071  5 000002   200003 470500                    LDP0    @FDS,,AUTO
         5 000003   000001 471500                    LDP1    1,,PR0
         5 000004   000004 720100                    LXL0    4,,PR0
         5 000005   040000 106500                    CMPC    fill='040'O
         5 000006   100000 000004                    ADSC9   0,,PR1                   cn=0,n=4
         5 000007   000000 000004 4                  ADSC9   0                        cn=0,n=4
         5 000010   000014 600000 5                  TZE     s:6075

      425     6072    2              FMTKEY.L=0;

   6072  5 000011   000000 236003                    LDQ     0,DU
         5 000012   000016 552040 3                  STBQ    FMTKEY,'40'O

      426     6073    2              DATSIZ=0;

   6073  5 000013   000026 450000 3                  STZ     DATSIZ

      427     6074    2              END;

      428     6075    2           DO CASE(CNT(0));

   6075  5 000014   200004 471500                    LDP1    @CNT,,AUTO
         5 000015   100000 235100                    LDA     0,,PR1
         5 000016   000015 115007                    CMPA    13,DL
         5 000017   000021 602005 5                  TNC     s:6075+5,AL
         5 000020   000342 710000 5                  TRA     s:6127
         5 000021   000036 710000 5                  TRA     s:6077
         5 000022   000056 710000 5                  TRA     s:6081
         5 000023   000066 710000 5                  TRA     s:6084
         5 000024   000127 710000 5                  TRA     s:6095
         5 000025   000132 710000 5                  TRA     s:6097
         5 000026   000142 710000 5                  TRA     s:6100
         5 000027   000201 710000 5                  TRA     s:6105
         5 000030   000252 710000 5                  TRA     s:6114
         5 000031   000342 710000 5                  TRA     s:6127
PL6.E3A0      #003=DBB$EDIT File=DBB$DUMP.:E05TSI                                TUE 07/29/97 12:58 Page:91
         5 000032   000342 710000 5                  TRA     s:6127
         5 000033   000066 710000 5                  TRA     s:6084
         5 000034   000127 710000 5                  TRA     s:6095
         5 000035   000132 710000 5                  TRA     s:6097

      429     6076    2            CASE(0);                       /* DOT PREV FIELD */

      430     6077    3              CALL INDEX1R(I,' ',BUF,FDS.BUFX) WHENRETURN DO;

   6077  5 000036   000006 473500                    LDP3    6,,PR0
         5 000037   000010 720100                    LXL0    8,,PR0
         5 000040   000007 721100                    LXL1    7,,PR0
         5 000041   000007 236100                    LDQ     7,,PR0
         5 000042   000000 125540                    SCMR    mask='000'O
         5 000043   300000 000011                    ADSC9   0,,PR3                   cn=0,n=*X1
         5 000044   000035 000001 xsym               ADSC9   B_VECTNIL+29             cn=0,n=1
         5 000045   200005 000100                    ARG     I,,AUTO
         5 000046   000055 606400 5                  TTN     s:6079
         5 000047   200005 054100                    AOS     I,,AUTO
         5 000050   200005 156100                    SSQ     I,,AUTO

      431     6078    3                 SUBSTR(BUF,I,1)='.';

   6078  5 000051   200005 235100                    LDA     I,,AUTO
         5 000052   040105 100400                    MLR     fill='040'O
         5 000053   000000 000001 6                  ADSC9   0                        cn=0,n=1
         5 000054   300000 000001                    ADSC9   0,A,PR3                  cn=0,n=1

      432     6079    3                 END;

   6079  5 000055   000342 710000 5                  TRA     s:6127

      433     6080    2            CASE(1);             /* Next to format: addr in CNT(1), FMT follows */

      434     6081    2              IF DB_NXT$=ADDR(NIL) OR CNT(1)=0 THEN EXIT;

   6081  5 000056   000031 236000 3                  LDQ     DB_NXT$
PL6.E3A0      #003=DBB$EDIT File=DBB$DUMP.:E05TSI                                TUE 07/29/97 12:58 Page:92
         5 000057   000001 116000 xsym               CMPQ    B_VECTNIL+1
         5 000060   000342 600000 5                  TZE     s:6127
         5 000061   100001 235100                    LDA     1,,PR1
         5 000062   000342 600000 5                  TZE     s:6127

      435     6082    2              CALL GETFMT;

   6082  5 000063   000343 701000 5                  TSX1    GETFMT
         5 000064   000000 011000                    NOP     0
         5 000065   000342 710000 5                  TRA     s:6127

      436     6083    2            CASE (2, 10);                  /* Fix size */

      437     6084    2              DATSIZ=CNT(1);

   6084  5 000066   100001 235100                    LDA     1,,PR1
         5 000067   000026 755000 3                  STA     DATSIZ

      438     6085    3              IF DATSIZ>1024 THEN DO;

   6085  5 000070   002000 115007                    CMPA    1024,DL
         5 000071   000075 604400 5                  TMOZ    s:6089

      439     6086    3                 CALL BADSIZE;

   6086  5 000072   000647 701000 5                  TSX1    BADSIZE
         5 000073   000000 011000                    NOP     0

      440     6087    3                 RETURN;

   6087  5 000074   000000 702200 xent               TSX2  ! X66_ARET

      441     6088    3                 END;
      442     6089    2              IF CNT(4)>1

   6089  5 000075   100004 235100                    LDA     4,,PR1
         5 000076   000001 115007                    CMPA    1,DL
PL6.E3A0      #003=DBB$EDIT File=DBB$DUMP.:E05TSI                                TUE 07/29/97 12:58 Page:93
         5 000077   000122 604400 5                  TMOZ    s:6093

      443     6090    2              THEN IF DA_DFLT_RADIX=8 AND CNT(2)<=BITBIN('777777'O) AND CNT(0)=2

   6090  5 000100   000000 236000 xsym               LDQ     DA_DFLT_RADIX
         5 000101   000010 116007                    CMPQ    8,DL
         5 000102   000116 601000 5                  TNZ     s:6092
         5 000103   100002 235100                    LDA     2,,PR1
         5 000104   777777 115007                    CMPA    -1,DL
         5 000105   000116 605400 5                  TPNZ    s:6092
         5 000106   100000 235100                    LDA     0,,PR1
         5 000107   000002 115007                    CMPA    2,DL
         5 000110   000116 601000 5                  TNZ     s:6092

      444     6091    2                 THEN MEMVEC.PTR$(0)->BHBIN=CNT(2);

   6091  5 000111   000012 473500                    LDP3    10,,PR0
         5 000112   300001 474500                    LDP4    1,,PR3
         5 000113   100002 720100                    LXL0    2,,PR1
         5 000114   400000 740100                    STX0    0,,PR4
         5 000115   000122 710000 5                  TRA     s:6093

      445     6092    2                 ELSE MEMVEC.PTR$(0)->BUBIN=CNT(2);

   6092  5 000116   000012 473500                    LDP3    10,,PR0
         5 000117   300001 474500                    LDP4    1,,PR3
         5 000120   100002 235100                    LDA     2,,PR1
         5 000121   400000 755100                    STA     0,,PR4

      446     6093    2              IF DATSIZ~=0 THEN CALL FIXSIZ;

   6093  5 000122   000026 235000 3                  LDA     DATSIZ
         5 000123   000342 600000 5                  TZE     s:6127

   6093  5 000124   000743 701000 5                  TSX1    FIXSIZ
         5 000125   000000 011000                    NOP     0
         5 000126   000342 710000 5                  TRA     s:6127
PL6.E3A0      #003=DBB$EDIT File=DBB$DUMP.:E05TSI                                TUE 07/29/97 12:58 Page:94

      447     6094    2            CASE (3, 11);                  /* New data, keep FMT */

      448     6095    2              CALL GETMEM;

   6095  5 000127   000674 701000 5                  TSX1    GETMEM
         5 000130   000000 011000                    NOP     0
         5 000131   000342 710000 5                  TRA     s:6127

      449     6096    2            CASE (4, 12);

      450     6097    2              CALL GETFMT;

   6097  5 000132   000343 701000 5                  TSX1    GETFMT
         5 000133   000000 011000                    NOP     0

      451     6098    2              IF CNT(4)>0 THEN CALL GETMEM;

   6098  5 000134   200004 470500                    LDP0    @CNT,,AUTO
         5 000135   000004 235100                    LDA     4,,PR0
         5 000136   000342 604400 5                  TMOZ    s:6127

   6098  5 000137   000674 701000 5                  TSX1    GETMEM
         5 000140   000000 011000                    NOP     0
         5 000141   000342 710000 5                  TRA     s:6127

      452     6099    2            CASE(5);
              6099            /* Abort if no MEMVEC.PTR$(0)->CND.FLG flags set (CNT(1), CNT(2), or CNT(3)) */

      453     6100    2              IF NOT MEMVEC.PTR$(0)->CND.FLG(CNT(1))

   6100  5 000142   000012 473500                    LDP3    10,,PR0
         5 000143   300001 474500                    LDP4    1,,PR3
         5 000144   100001 235100                    LDA     1,,PR1
         5 000145   000147 605000 5                  TPL     s:6100+5
         5 000146   000044 035003                    ADLA    36,DU
         5 000147   000000 066505                    CMPB    filb='0'B
PL6.E3A0      #003=DBB$EDIT File=DBB$DUMP.:E05TSI                                TUE 07/29/97 12:58 Page:95
         5 000150   400002 000001                    BDSC    2,A,PR4                  by=0,bit=0,n=1
         5 000151   000002 000022 xsym               BDSC    B_VECTNIL+2              by=0,bit=0,n=18
         5 000152   000342 601000 5                  TNZ     s:6127
         5 000153   100002 235100                    LDA     2,,PR1
         5 000154   000163 600000 5                  TZE     s:6100+17
         5 000155   000157 605000 5                  TPL     s:6100+13
         5 000156   000044 035003                    ADLA    36,DU
         5 000157   000000 066505                    CMPB    filb='0'B
         5 000160   400002 000001                    BDSC    2,A,PR4                  by=0,bit=0,n=1
         5 000161   000002 000022 xsym               BDSC    B_VECTNIL+2              by=0,bit=0,n=18
         5 000162   000342 601000 5                  TNZ     s:6127
         5 000163   100003 235100                    LDA     3,,PR1
         5 000164   000173 600000 5                  TZE     s:6103
         5 000165   000167 605000 5                  TPL     s:6100+21
         5 000166   000044 035003                    ADLA    36,DU
         5 000167   000000 066505                    CMPB    filb='0'B
         5 000170   400002 000001                    BDSC    2,A,PR4                  by=0,bit=0,n=1
         5 000171   000002 000022 xsym               BDSC    B_VECTNIL+2              by=0,bit=0,n=18
         5 000172   000342 601000 5                  TNZ     s:6127

      454     6101    2                AND (CNT(2)=0 OR NOT MEMVEC.PTR$(0)->CND.FLG(CNT(2)))
      455     6102    2                AND (CNT(3)=0 OR NOT MEMVEC.PTR$(0)->CND.FLG(CNT(3)))
      456     6103    2              THEN UNWIND TO FDS.BAILOUT;

   6103  5 000173   000100 100700                    MLR   ! fill='000'O
         5 000174   000021 000010                    ADSC9   17,,PR0                  cn=0,n=8
         5 000175   200030 000010                    ADSC9   SYM+18,,AUTO             cn=0,n=8
         5 000176   200030 237300                    LDAQ  ! SYM+18,,AUTO
         5 000177   000000 700200 xent               TSX0  ! X66_AUNWIND
         5 000200   000000 000200                    ZERO    0,128

      457     6104    2            CASE(6);                       /* Display ENTDEF name */

      458     6105    3              CALL DAS$IC2PEDOFS (CNT(2),I$,CNT(3)) WHENRETURN DO;

   6105  5 000201   200004 236100                    LDQ     @CNT,,AUTO
         5 000202   000003 036003                    ADLQ    3,DU
PL6.E3A0      #003=DBB$EDIT File=DBB$DUMP.:E05TSI                                TUE 07/29/97 12:58 Page:96
         5 000203   200032 756100                    STQ     SYM+20,,AUTO
         5 000204   200005 633500                    EPPR3   I,,AUTO
         5 000205   200031 453500                    STP3    SYM+19,,AUTO
         5 000206   200004 236100                    LDQ     @CNT,,AUTO
         5 000207   000002 036003                    ADLQ    2,DU
         5 000210   200030 756100                    STQ     SYM+18,,AUTO
         5 000211   200030 630500                    EPPR0   SYM+18,,AUTO
         5 000212   000021 631400 xsym               EPPR1   B_VECTNIL+17
         5 000213   000000 701000 xent               TSX1    DAS$IC2PEDOFS
         5 000214   000246 702000 5                  TSX2    s:6110

      459     6106    3                 SUBSTR(BUF,FDS.BUFX)=I$->TEXTH.T;

   6106  5 000215   200003 470500                    LDP0    @FDS,,AUTO
         5 000216   000006 471500                    LDP1    6,,PR0
         5 000217   000010 720100                    LXL0    8,,PR0
         5 000220   000000 636010                    EAQ     0,X0
         5 000221   000022 732000                    QRS     18
         5 000222   000007 136100                    SBLQ    7,,PR0
         5 000223   000007 235100                    LDA     7,,PR0
         5 000224   200005 473500                    LDP3    I,,AUTO
         5 000225   300000 221100                    LDX1    0,,PR3
         5 000226   000000 622006                    EAX2    0,QL
         5 000227   040145 100540                    MLR     fill='040'O
         5 000230   300000 400011                    ADSC9   0,,PR3                   cn=2,n=*X1
         5 000231   100000 000012                    ADSC9   0,A,PR1                  cn=0,n=*X2

      460     6107    3                 FDS.BUFX=MINIMUM(FDS.BUFX+I$->TEXTH.C, FDS.BUFSIZE);

   6107  5 000232   200005 471500                    LDP1    I,,AUTO
         5 000233   100000 236100                    LDQ     0,,PR1
         5 000234   000022 772000                    QRL     18
         5 000235   000007 036100                    ADLQ    7,,PR0
         5 000236   000010 116100                    CMPQ    8,,PR0
         5 000237   000241 604400 5                  TMOZ    s:6107+7
         5 000240   000010 236100                    LDQ     8,,PR0
         5 000241   000007 756100                    STQ     7,,PR0
PL6.E3A0      #003=DBB$EDIT File=DBB$DUMP.:E05TSI                                TUE 07/29/97 12:58 Page:97

      461     6108    3                 CNT(0)=CNT(3);

   6108  5 000242   200004 473500                    LDP3    @CNT,,AUTO
         5 000243   300003 235100                    LDA     3,,PR3
         5 000244   300000 755100                    STA     0,,PR3

      462     6109    3                 END; WHENALTRETURN DO;

   6109  5 000245   000251 710000 5                  TRA     s:6112

      463     6110    3                 CNT(0)=-1;

   6110  5 000246   000001 335007                    LCA     1,DL
         5 000247   200004 470500                    LDP0    @CNT,,AUTO
         5 000250   000000 755100                    STA     0,,PR0

      464     6111    3                 END;

      465     6112    2              ALTRETURN;

   6112  5 000251   000000 702200 xent               TSX2  ! X66_AALT

      466     6113    2            CASE(7);                       /* Symbol lookup */

      467     6114    2              IF CNT(1)~=0

   6114  5 000252   100001 235100                    LDA     1,,PR1
         5 000253   000267 600000 5                  TZE     s:6117

      468     6115    2              THEN CALL DAS$SDMONPTR (CNT(1),FDS.USERDAT1#) ALTRET(BAD_SYM);

   6115  5 000254   200003 236100                    LDQ     @FDS,,AUTO
         5 000255   000033 036003                    ADLQ    27,DU
         5 000256   200031 756100                    STQ     SYM+19,,AUTO
         5 000257   200004 236100                    LDQ     @CNT,,AUTO
         5 000260   000001 036003                    ADLQ    1,DU
PL6.E3A0      #003=DBB$EDIT File=DBB$DUMP.:E05TSI                                TUE 07/29/97 12:58 Page:98
         5 000261   200030 756100                    STQ     SYM+18,,AUTO
         5 000262   200030 630500                    EPPR0   SYM+18,,AUTO
         5 000263   000020 631400 xsym               EPPR1   B_VECTNIL+16
         5 000264   000000 701000 xent               TSX1    DAS$SDMONPTR
         5 000265   000340 702000 5                  TSX2    BAD_SYM
         5 000266   000342 710000 5                  TRA     s:6127

      469     6116    3              ELSE DO;

      470     6117    3                 CALL INDEX(I,'%',SUBSTR(FMT,FDS.FMTX+2));

   6117  5 000267   000001 473500                    LDP3    1,,PR0
         5 000270   000004 720100                    LXL0    4,,PR0
         5 000271   000000 636010                    EAQ     0,X0
         5 000272   000022 732000                    QRS     18
         5 000273   000002 136100                    SBLQ    2,,PR0
         5 000274   000002 235100                    LDA     2,,PR0
         5 000275   777776 621006                    EAX1    -2,QL
         5 000276   000000 124545                    SCM     mask='000'O
         5 000277   300000 400011                    ADSC9   0,A,PR3                  cn=2,n=*X1
         5 000300   000001 000001 6                  ADSC9   1                        cn=0,n=1
         5 000301   200005 000100                    ARG     I,,AUTO

      471     6118    3                 SYM.L = I;

   6118  5 000302   200005 236100                    LDQ     I,,AUTO
         5 000303   000033 736000                    QLS     27
         5 000304   200006 552140                    STBQ    SYM,'40'O,AUTO

      472     6119    3                 SYM.T = SUBSTR(FMT,FDS.FMTX+2,I);

   6119  5 000305   000001 473500                    LDP3    1,,PR0
         5 000306   000004 720100                    LXL0    4,,PR0
         5 000307   000002 235100                    LDA     2,,PR0
         5 000310   200005 721100                    LXL1    I,,AUTO
         5 000311   040100 100545                    MLR     fill='040'O
         5 000312   300000 400011                    ADSC9   0,A,PR3                  cn=2,n=*X1
PL6.E3A0      #003=DBB$EDIT File=DBB$DUMP.:E05TSI                                TUE 07/29/97 12:58 Page:99
         5 000313   200006 200077                    ADSC9   SYM,,AUTO                cn=1,n=63

      473     6120    4                 CALL DAS$SDSRCHPTR (SYM, FDS.USERDAT1#) WHENALTRETURN DO;

   6120  5 000314   200003 236100                    LDQ     @FDS,,AUTO
         5 000315   000033 036003                    ADLQ    27,DU
         5 000316   200031 756100                    STQ     SYM+19,,AUTO
         5 000317   200006 633500                    EPPR3   SYM,,AUTO
         5 000320   200030 453500                    STP3    SYM+18,,AUTO
         5 000321   200030 630500                    EPPR0   SYM+18,,AUTO
         5 000322   000020 631400 xsym               EPPR1   B_VECTNIL+16
         5 000323   000000 701000 xent               TSX1    DAS$SDSRCHPTR
         5 000324   000326 702000 5                  TSX2    s:6121
         5 000325   000342 710000 5                  TRA     s:6127

      474     6121    5                    CALL DAS$EDSRCHPTR (SYM, FDS.USERDAT1#) WHENALTRETURN DO;

   6121  5 000326   200003 236100                    LDQ     @FDS,,AUTO
         5 000327   000033 036003                    ADLQ    27,DU
         5 000330   200031 756100                    STQ     SYM+19,,AUTO
         5 000331   200006 630500                    EPPR0   SYM,,AUTO
         5 000332   200030 450500                    STP0    SYM+18,,AUTO
         5 000333   200030 630500                    EPPR0   SYM+18,,AUTO
         5 000334   000020 631400 xsym               EPPR1   B_VECTNIL+16
         5 000335   000000 701000 xent               TSX1    DAS$EDSRCHPTR
         5 000336   000340 702000 5                  TSX2    BAD_SYM
         5 000337   000342 710000 5                  TRA     s:6127

      475     6122    5   BAD_SYM:            ; CALL NOSYMBOL;

   6122  5 000340                       BAD_SYM      null
   6122  5 000340   000657 701000 5                  TSX1    NOSYMBOL
         5 000341   000000 011000                    NOP     0

      476     6123    5                       END;

      477     6124    4                    END;
PL6.E3A0      #003=DBB$EDIT File=DBB$DUMP.:E05TSI                                TUE 07/29/97 12:58 Page:100

      478     6125    3                 END;

      479     6126    2            END;

      480     6127    1           RETURN;

   6127  5 000342   000000 702200 xent               TSX2  ! X66_ARET

      481     6128        %EJECT;
PL6.E3A0      #003=DBB$EDIT File=DBB$DUMP.:E05TSI                                TUE 07/29/97 12:58 Page:101
      482     6129        /* Subroutines */
      483     6130    1   GETFMT: PROC ALTRET;

   6130  5 000343   200026 741300       GETFMT       STX1  ! SYM+16,,AUTO

      484     6131
      485     6132    2   DCL CHAR4 CHAR(4) BASED CALIGNED;
      486     6133    2   DCL CHAR1 CHAR(1) BASED CALIGNED;
      487     6134    2   DCL CHARI CHAR(I) BASED CALIGNED;
      488     6135    2           CALL INDEX(I,'%)',SUBSTR(FMT,FDS.FMTX+2)) ALTRET(BADFMT);

   6135  5 000344   200003 470500                    LDP0    @FDS,,AUTO
         5 000345   000001 471500                    LDP1    1,,PR0
         5 000346   000004 720100                    LXL0    4,,PR0
         5 000347   000000 636010                    EAQ     0,X0
         5 000350   000022 732000                    QRS     18
         5 000351   000002 136100                    SBLQ    2,,PR0
         5 000352   000002 235100                    LDA     2,,PR0
         5 000353   777776 622006                    EAX2    -2,QL
         5 000354   000000 120545                    SCD
         5 000355   100000 400012                    ADSC9   0,A,PR1                  cn=2,n=*X2
         5 000356   000001 000002 4                  ADSC9   1                        cn=0,n=2
         5 000357   200005 000100                    ARG     I,,AUTO
         5 000360   000363 607000 5                  TTF     s:6136
         5 000361   200005 054100                    AOS     I,,AUTO
         5 000362   000620 710000 5                  TRA     BADFMT

      489     6136    3           IF CNT(0)=1 THEN DO;

   6136  5 000363   200004 471500                    LDP1    @CNT,,AUTO
         5 000364   100000 235100                    LDA     0,,PR1
         5 000365   000001 115007                    CMPA    1,DL
         5 000366   000441 601000 5                  TNZ     s:6144

      490     6137    3              IF DB_NXTX<I+9 THEN GOTO NOROOM;

   6137  5 000367   000031 473400 3                  LDP3    DB_NXT$
PL6.E3A0      #003=DBB$EDIT File=DBB$DUMP.:E05TSI                                TUE 07/29/97 12:58 Page:102
         5 000370   200005 236100                    LDQ     I,,AUTO
         5 000371   000011 036007                    ADLQ    9,DL
         5 000372   000612 604000 5                  TMI     NOROOM
         5 000373   300000 116100                    CMPQ    0,,PR3
         5 000374   000612 605400 5                  TPNZ    NOROOM

      491     6138    3              PINCRC(DB_NXT$,DB_NXTX-4)->CHAR4=ADDR(CNT(1))->CHAR4;

   6138  5 000375   300000 236100                    LDQ     0,,PR3
         5 000376   040106 100500                    MLR     fill='040'O
         5 000377   100001 000004                    ADSC9   1,,PR1                   cn=0,n=4
         5 000400   377777 000004                    ADSC9   -1,Q,PR3                 cn=0,n=4

      492     6139    3              DB_NXTX=DB_NXTX-5-I;

   6139  5 000401   000031 473400 3                  LDP3    DB_NXT$
         5 000402   300000 236100                    LDQ     0,,PR3
         5 000403   200005 136100                    SBLQ    I,,AUTO
         5 000404   000005 136007                    SBLQ    5,DL
         5 000405   300000 756100                    STQ     0,,PR3

      493     6140    3              PINCRC(DB_NXT$,DB_NXTX+1)->CHARI=ADDR(SUBSTR(FMT,FDS.FMTX+2))->CHARI;

   6140  5 000406   000031 473400 3                  LDP3    DB_NXT$
         5 000407   300000 236100                    LDQ     0,,PR3
         5 000410   000001 474500                    LDP4    1,,PR0
         5 000411   000004 720100                    LXL0    4,,PR0
         5 000412   200030 756100                    STQ     SYM+18,,AUTO
         5 000413   000000 636010                    EAQ     0,X0
         5 000414   000022 732000                    QRS     18
         5 000415   000002 136100                    SBLQ    2,,PR0
         5 000416   000002 235100                    LDA     2,,PR0
         5 000417   200005 720100                    LXL0    I,,AUTO
         5 000420   200030 236100                    LDQ     SYM+18,,AUTO
         5 000421   040146 100545                    MLR     fill='040'O
         5 000422   400000 400010                    ADSC9   0,A,PR4                  cn=2,n=*X0
         5 000423   300000 200010                    ADSC9   0,Q,PR3                  cn=1,n=*X0
PL6.E3A0      #003=DBB$EDIT File=DBB$DUMP.:E05TSI                                TUE 07/29/97 12:58 Page:103

      494     6141    3              PINCRC(DB_NXT$,DB_NXTX)->CHAR1=BINASC(I);

   6141  5 000424   000031 473400 3                  LDP3    DB_NXT$
         5 000425   300000 236100                    LDQ     0,,PR3
         5 000426   200030 756100                    STQ     SYM+18,,AUTO
         5 000427   200005 236100                    LDQ     I,,AUTO
         5 000430   000033 736000                    QLS     27
         5 000431   000002 276000 6                  ORQ     2
         5 000432   200031 756100                    STQ     SYM+19,,AUTO
         5 000433   200030 235100                    LDA     SYM+18,,AUTO
         5 000434   040105 100500                    MLR     fill='040'O
         5 000435   200031 000004                    ADSC9   SYM+19,,AUTO             cn=0,n=4
         5 000436   300000 000001                    ADSC9   0,A,PR3                  cn=0,n=1

      495     6142    3              RETURN;

   6142  5 000437   200026 221300                    LDX1  ! SYM+16,,AUTO
         5 000440   000001 702211                    TSX2  ! 1,X1

      496     6143    3              END;
      497     6144    3           IF I~=FMTKEY.L OR SUBSTR(FMT,FDS.FMTX+2,I)~=FMTKEY.T THEN DO;

   6144  5 000441   000016 236000 3                  LDQ     FMTKEY
         5 000442   000033 772000                    QRL     27
         5 000443   200005 116100                    CMPQ    I,,AUTO
         5 000444   000455 601000 5                  TNZ     s:6145
         5 000445   000001 473500                    LDP3    1,,PR0
         5 000446   000004 720100                    LXL0    4,,PR0
         5 000447   000002 235100                    LDA     2,,PR0
         5 000450   200005 722100                    LXL2    I,,AUTO
         5 000451   040000 106545                    CMPC    fill='040'O
         5 000452   300000 400012                    ADSC9   0,A,PR3                  cn=2,n=*X2
         5 000453   000016 200037 3                  ADSC9   FMTKEY                   cn=1,n=31
         5 000454   000576 600000 5                  TZE     s:6166

      498     6145    3              FMTKEY.L=I;
PL6.E3A0      #003=DBB$EDIT File=DBB$DUMP.:E05TSI                                TUE 07/29/97 12:58 Page:104

   6145  5 000455   200005 236100                    LDQ     I,,AUTO
         5 000456   000033 736000                    QLS     27
         5 000457   000016 552040 3                  STBQ    FMTKEY,'40'O

      499     6146    3              FMTKEY.T=SUBSTR(FMT,FDS.FMTX+2,I);

   6146  5 000460   000001 473500                    LDP3    1,,PR0
         5 000461   000004 720100                    LXL0    4,,PR0
         5 000462   000002 235100                    LDA     2,,PR0
         5 000463   200005 722100                    LXL2    I,,AUTO
         5 000464   040000 100545                    MLR     fill='040'O
         5 000465   300000 400012                    ADSC9   0,A,PR3                  cn=2,n=*X2
         5 000466   000016 200037 3                  ADSC9   FMTKEY                   cn=1,n=31

      500     6147    3              READFMT.BUF_.BUF$=FDS.FMT_.FMT$;

   6147  5 000467   000001 236100                    LDQ     1,,PR0
         5 000470   000005 756000 3                  STQ     READFMT+5

      501     6148    3              READFMT.BUF_.BOUND=2047;

   6148  5 000471   000004 236000 3                  LDQ     READFMT+4
         5 000472   177777 376007                    ANQ     65535,DL
         5 000473   000003 276000 6                  ORQ     3
         5 000474   000004 756000 3                  STQ     READFMT+4

      502     6149    4              CALL M$READ(READFMT) WHENALTRETURN DO;

   6149  5 000475   000000 630400 3                  EPPR0   READFMT
         5 000476   440000 713400                    CLIMB   alt,read
         5 000477   401400 401760                    pmme    nvectors=4
         5 000500   000502 702000 5                  TSX2    s:6150
         5 000501   000535 710000 5                  TRA     s:6158

      503     6150    4                 IF READFMT.V.DCB#=DCBNUM(M$FMTSYS) THEN GOTO NOFMT;

PL6.E3A0      #003=DBB$EDIT File=DBB$DUMP.:E05TSI                                TUE 07/29/97 12:58 Page:105
   6150  5 000502   000000 236007 xsym               LDQ     M$FMTSYS,DL
         5 000503   200030 756100                    STQ     SYM+18,,AUTO
         5 000504   000010 236000 3                  LDQ     READFMT+8
         5 000505   000022 772000                    QRL     18
         5 000506   200030 116100                    CMPQ    SYM+18,,AUTO
         5 000507   000603 600000 5                  TZE     NOFMT

      504     6151    4                 READFMT.V.DCB#=DCBNUM(M$FMTSYS);

   6151  5 000510   000000 236007 xsym               LDQ     M$FMTSYS,DL
         5 000511   000000 620006                    EAX0    0,QL
         5 000512   000010 740000 3                  STX0    READFMT+8

      505     6152    5                 CALL M$READ(READFMT) WHENALTRETURN DO;

   6152  5 000513   000000 630400 3                  EPPR0   READFMT
         5 000514   440000 713400                    CLIMB   alt,read
         5 000515   401400 401760                    pmme    nvectors=4
         5 000516   000520 702000 5                  TSX2    s:6153
         5 000517   000535 710000 5                  TRA     s:6158

      506     6153    5                    IF %M$FMT.FCD# THEN READFMT.V.DCB#=DCBNUM(M$FMT);

   6153  5 000520   000000 236007 xsym               LDQ     M$FMT,DL
         5 000521   000004 470400 6                  LDP0    4
         5 000522   000000 471500                    LDP1    0,,PR0
         5 000523   100000 473506                    LDP3    0,QL,PR1
         5 000524   300031 236100                    LDQ     25,,PR3
         5 000525   020000 316007                    CANQ    8192,DL
         5 000526   000532 600000 5                  TZE     s:6154

   6153  5 000527   000000 236007 xsym               LDQ     M$FMT,DL
         5 000530   000000 620006                    EAX0    0,QL
         5 000531   000010 740000 3                  STX0    READFMT+8

      507     6154    5                    FMTKEY.L=0;

PL6.E3A0      #003=DBB$EDIT File=DBB$DUMP.:E05TSI                                TUE 07/29/97 12:58 Page:106
   6154  5 000532   000000 236003                    LDQ     0,DU
         5 000533   000016 552040 3                  STBQ    FMTKEY,'40'O

      508     6155    5                    GOTO NOFMT;

   6155  5 000534   000603 710000 5                  TRA     NOFMT

      509     6156    5                    END;
      510     6157    4                 END;

      511     6158    3              FDS.FMTSIZE=DCBADDR(READFMT.V.DCB#)->BUBIN;

   6158  5 000535   000004 470400 6                  LDP0    4
         5 000536   000000 471500                    LDP1    0,,PR0
         5 000537   000010 220000 3                  LDX0    READFMT+8
         5 000540   100000 473510                    LDP3    0,X0,PR1
         5 000541   300000 235100                    LDA     0,,PR3
         5 000542   200003 474500                    LDP4    @FDS,,AUTO
         5 000543   400004 755100                    STA     4,,PR4

      512     6159    3              IF %M$FMT.FCD# THEN READFMT.V.DCB#=DCBNUM(M$FMT);

   6159  5 000544   000000 236007 xsym               LDQ     M$FMT,DL
         5 000545   100000 473506                    LDP3    0,QL,PR1
         5 000546   300031 236100                    LDQ     25,,PR3
         5 000547   020000 316007                    CANQ    8192,DL
         5 000550   000554 600000 5                  TZE     s:6160

   6159  5 000551   000000 236007 xsym               LDQ     M$FMT,DL
         5 000552   000000 620006                    EAX0    0,QL
         5 000553   000010 740000 3                  STX0    READFMT+8

      513     6160    3              IF FDS.FMTSIZE<6 THEN GOTO NOFMT;

   6160  5 000554   400004 235100                    LDA     4,,PR4
         5 000555   000006 115007                    CMPA    6,DL
         5 000556   000603 604000 5                  TMI     NOFMT
PL6.E3A0      #003=DBB$EDIT File=DBB$DUMP.:E05TSI                                TUE 07/29/97 12:58 Page:107

      514     6161    3              IF ADDR(FMT)->BUBIN~=0 OR CNT(1)~=0

   6161  5 000557   400001 473500                    LDP3    1,,PR4
         5 000560   300000 235100                    LDA     0,,PR3
         5 000561   000565 601000 5                  TNZ     s:6162
         5 000562   200004 475500                    LDP5    @CNT,,AUTO
         5 000563   500001 235100                    LDA     1,,PR5
         5 000564   000567 600000 5                  TZE     s:6163

      515     6162    3              THEN DATSIZ=ADDR(FMT)->BUBIN;

   6162  5 000565   300000 235100                    LDA     0,,PR3
         5 000566   000026 755000 3                  STA     DATSIZ

      516     6163    3              IF DATSIZ>1024 THEN GOTO BADSIZ;

   6163  5 000567   000026 235000 3                  LDA     DATSIZ
         5 000570   002000 115007                    CMPA    1024,DL
         5 000571   000650 605400 5                  TPNZ    BADSIZ

      517     6164    3              SUBSTR(FMT,0,4)='%(%)';

   6164  5 000572   400004 720100                    LXL0    4,,PR4
         5 000573   040100 100400                    MLR     fill='040'O
         5 000574   000000 000004 4                  ADSC9   0                        cn=0,n=4
         5 000575   300000 000004                    ADSC9   0,,PR3                   cn=0,n=4

      518     6165    3              END;

      519     6166    2           FDS.FMTX=4;                     /* Start at the beginning */

   6166  5 000576   000004 235007                    LDA     4,DL
         5 000577   200003 470500                    LDP0    @FDS,,AUTO
         5 000600   000002 755100                    STA     2,,PR0

      520     6167    2           RETURN;
PL6.E3A0      #003=DBB$EDIT File=DBB$DUMP.:E05TSI                                TUE 07/29/97 12:58 Page:108

   6167  5 000601   200026 221300                    LDX1  ! SYM+16,,AUTO
         5 000602   000001 702211                    TSX2  ! 1,X1

      521     6168    2   NOFMT:  SUBSTR(FMT,0,30)='%/FMT not found in FMT file:';

   6168  5 000603   200003 470500       NOFMT        LDP0    @FDS,,AUTO
         5 000604   000001 471500                    LDP1    1,,PR0
         5 000605   000004 720100                    LXL0    4,,PR0
         5 000606   040100 100400                    MLR     fill='040'O
         5 000607   000002 000034 4                  ADSC9   2                        cn=0,n=28
         5 000610   100000 000036                    ADSC9   0,,PR1                   cn=0,n=30

      522     6169    2           GOTO NOFMT1;

   6169  5 000611   000626 710000 5                  TRA     NOFMT1

      523     6170    2   NOROOM: SUBSTR(FMT,0,30)='%/No room for "next" item';

   6170  5 000612   000001 474500       NOROOM       LDP4    1,,PR0
         5 000613   000004 720100                    LXL0    4,,PR0
         5 000614   040100 100400                    MLR     fill='040'O
         5 000615   000011 000031 4                  ADSC9   9                        cn=0,n=25
         5 000616   400000 000036                    ADSC9   0,,PR4                   cn=0,n=30

      524     6171    2           GOTO NOFMT1;

   6171  5 000617   000626 710000 5                  TRA     NOFMT1

      525     6172    2   BADFMT: SUBSTR(FMT,0,30)='%/No new FMT name found in ';

   6172  5 000620   200003 470500       BADFMT       LDP0    @FDS,,AUTO
         5 000621   000001 471500                    LDP1    1,,PR0
         5 000622   000004 720100                    LXL0    4,,PR0
         5 000623   040100 100400                    MLR     fill='040'O
         5 000624   000020 000033 4                  ADSC9   16                       cn=0,n=27
         5 000625   100000 000036                    ADSC9   0,,PR1                   cn=0,n=30
PL6.E3A0      #003=DBB$EDIT File=DBB$DUMP.:E05TSI                                TUE 07/29/97 12:58 Page:109

      526     6173    2   NOFMT1: SUBSTR(FMT,30,30)=FMTKEY.T;

   6173  5 000626   000001 471500       NOFMT1       LDP1    1,,PR0
         5 000627   000004 720100                    LXL0    4,,PR0
         5 000630   040100 100400                    MLR     fill='040'O
         5 000631   000016 200036 3                  ADSC9   FMTKEY                   cn=1,n=30
         5 000632   100007 400036                    ADSC9   7,,PR1                   cn=2,n=30

      527     6174    2   NOFMT2: FDS.FMTX=0;

   6174  5 000633   200003 470500       NOFMT2       LDP0    @FDS,,AUTO
         5 000634   000002 450100                    STZ     2,,PR0

      528     6175    2           FDS.FMTSIZE=63;

   6175  5 000635   000077 235007                    LDA     63,DL
         5 000636   000004 755100                    STA     4,,PR0

      529     6176    2           SUBSTR(FMT,60,3)='%1Q';

   6176  5 000637   000001 471500                    LDP1    1,,PR0
         5 000640   000004 720100                    LXL0    4,,PR0
         5 000641   040100 100400                    MLR     fill='040'O
         5 000642   000027 000003 4                  ADSC9   23                       cn=0,n=3
         5 000643   100017 000003                    ADSC9   15,,PR1                  cn=0,n=3

      530     6177    2           DATSIZ=0;

   6177  5 000644   000026 450000 3                  STZ     DATSIZ

      531     6178    2           ALTRETURN;

   6178  5 000645   200026 221300                    LDX1  ! SYM+16,,AUTO
         5 000646   000000 702211                    TSX2  ! 0,X1

      532     6179    2   BADSIZE: ENTRY ALTRET;
PL6.E3A0      #003=DBB$EDIT File=DBB$DUMP.:E05TSI                                TUE 07/29/97 12:58 Page:110

   6179  5 000647   200026 741300       BADSIZE      STX1  ! SYM+16,,AUTO

      533     6180    2   BADSIZ: SUBSTR(FMT,0,60) = '%/Data request exceeds maximum (1024 words)';

   6180  5 000650   200003 470500       BADSIZ       LDP0    @FDS,,AUTO
         5 000651   000001 471500                    LDP1    1,,PR0
         5 000652   000004 720100                    LXL0    4,,PR0
         5 000653   040100 100400                    MLR     fill='040'O
         5 000654   000030 000053 4                  ADSC9   24                       cn=0,n=43
         5 000655   100000 000074                    ADSC9   0,,PR1                   cn=0,n=60

      534     6181    2           GOTO NOFMT2;

   6181  5 000656   000633 710000 5                  TRA     NOFMT2

      535     6182    2   NOSYMBOL: ENTRY ALTRET;

   6182  5 000657   200026 741300       NOSYMBOL     STX1  ! SYM+16,,AUTO

      536     6183    2           SUBSTR(FMT,0,20) = '%/Symbol not found:';

   6183  5 000660   200003 470500                    LDP0    @FDS,,AUTO
         5 000661   000001 471500                    LDP1    1,,PR0
         5 000662   000004 720100                    LXL0    4,,PR0
         5 000663   040100 100400                    MLR     fill='040'O
         5 000664   000043 000023 4                  ADSC9   35                       cn=0,n=19
         5 000665   100000 000024                    ADSC9   0,,PR1                   cn=0,n=20

      537     6184    2           SUBSTR(FMT,20,40) = SYM.T;

   6184  5 000666   000001 471500                    LDP1    1,,PR0
         5 000667   000004 720100                    LXL0    4,,PR0
         5 000670   040100 100500                    MLR     fill='040'O
         5 000671   200006 200050                    ADSC9   SYM,,AUTO                cn=1,n=40
         5 000672   100005 000050                    ADSC9   5,,PR1                   cn=0,n=40

PL6.E3A0      #003=DBB$EDIT File=DBB$DUMP.:E05TSI                                TUE 07/29/97 12:58 Page:111
      538     6185    2           GOTO NOFMT2;

   6185  5 000673   000633 710000 5                  TRA     NOFMT2

      539     6186    2   END GETFMT;
      540     6187        %EJECT;
PL6.E3A0      #003=DBB$EDIT File=DBB$DUMP.:E05TSI                                TUE 07/29/97 12:58 Page:112
      541     6188    1   GETMEM: PROC ALTRET;

   6188  5 000674   200026 741300       GETMEM       STX1  ! SYM+16,,AUTO

      542     6189    2           IF DA_DFLT_RADIX=8 AND CNT(1)<=BITBIN('777777'O) AND CNT(0)<8

   6189  5 000675   000000 235000 xsym               LDA     DA_DFLT_RADIX
         5 000676   000010 115007                    CMPA    8,DL
         5 000677   000715 601000 5                  TNZ     s:6191
         5 000700   200004 470500                    LDP0    @CNT,,AUTO
         5 000701   000001 235100                    LDA     1,,PR0
         5 000702   777777 115007                    CMPA    -1,DL
         5 000703   000715 605400 5                  TPNZ    s:6191
         5 000704   000000 235100                    LDA     0,,PR0
         5 000705   000010 115007                    CMPA    8,DL
         5 000706   000715 605000 5                  TPL     s:6191

      543     6190    2           THEN MEMVEC.PTR$(0)->BHBIN=CNT(1);

   6190  5 000707   200003 471500                    LDP1    @FDS,,AUTO
         5 000710   100012 473500                    LDP3    10,,PR1
         5 000711   300001 474500                    LDP4    1,,PR3
         5 000712   000001 720100                    LXL0    1,,PR0
         5 000713   400000 740100                    STX0    0,,PR4
         5 000714   000723 710000 5                  TRA     s:6192

      544     6191    2           ELSE MEMVEC.PTR$(0)->BUBIN=CNT(1);

   6191  5 000715   200003 470500                    LDP0    @FDS,,AUTO
         5 000716   000012 471500                    LDP1    10,,PR0
         5 000717   100001 473500                    LDP3    1,,PR1
         5 000720   200004 474500                    LDP4    @CNT,,AUTO
         5 000721   400001 235100                    LDA     1,,PR4
         5 000722   300000 755100                    STA     0,,PR3

      545     6192    2           IF CNT(4)>1 THEN DB_U#=CNT(2);

PL6.E3A0      #003=DBB$EDIT File=DBB$DUMP.:E05TSI                                TUE 07/29/97 12:58 Page:113
   6192  5 000723   200004 470500                    LDP0    @CNT,,AUTO
         5 000724   000004 235100                    LDA     4,,PR0
         5 000725   000001 115007                    CMPA    1,DL
         5 000726   000731 604400 5                  TMOZ    s:6193

   6192  5 000727   000002 235100                    LDA     2,,PR0
         5 000730   000027 755000 3                  STA     DB_U#

      546     6193    2           IF CNT(4)>2 THEN DB_D#=CNT(3);

   6193  5 000731   000004 235100                    LDA     4,,PR0
         5 000732   000002 115007                    CMPA    2,DL
         5 000733   000736 604400 5                  TMOZ    s:6194

   6193  5 000734   000003 235100                    LDA     3,,PR0
         5 000735   000030 755000 3                  STA     DB_D#

      547     6194    2           IF DATSIZ=0 THEN RETURN;

   6194  5 000736   000026 235000 3                  LDA     DATSIZ
         5 000737   000742 601000 5                  TNZ     s:6194+4

   6194  5 000740   200026 221300                    LDX1  ! SYM+16,,AUTO
         5 000741   000001 702211                    TSX2  ! 1,X1
         5 000742   000744 710000 5                  TRA     s:6196

      548     6195    2   FIXSIZ: ENTRY ALTRET;

   6195  5 000743   200026 741300       FIXSIZ       STX1  ! SYM+16,,AUTO

      549     6196    2           I=FDS.MEMX;

   6196  5 000744   200003 470500                    LDP0    @FDS,,AUTO
         5 000745   000026 235100                    LDA     22,,PR0
         5 000746   200005 755100                    STA     I,,AUTO

      550     6197    2           IF I=0 THEN I=1;
PL6.E3A0      #003=DBB$EDIT File=DBB$DUMP.:E05TSI                                TUE 07/29/97 12:58 Page:114

   6197  5 000747   000752 601000 5                  TNZ     s:6198

   6197  5 000750   000001 236007                    LDQ     1,DL
         5 000751   200005 756100                    STQ     I,,AUTO

      551     6198    2           MEMVEC.BOUND(I)=DATSIZ*32/DA_DFLT_RADIX-1;

   6198  5 000752   000012 471500                    LDP1    10,,PR0
         5 000753   200005 236100                    LDQ     I,,AUTO
         5 000754   000001 736000                    QLS     1
         5 000755   000000 620006                    EAX0    0,QL
         5 000756   000026 236000 3                  LDQ     DATSIZ
         5 000757   000005 736000                    QLS     5
         5 000760   000000 506000 xsym               DIV     DA_DFLT_RADIX
         5 000761   000001 136007                    SBLQ    1,DL
         5 000762   000020 736000                    QLS     16
         5 000763   100000 676110                    ERQ     0,X0,PR1
         5 000764   000034 376000 xsym               ANQ     B_VECTNIL+28
         5 000765   100000 656110                    ERSQ    0,X0,PR1

      552     6199    2           IF DA_DFLT_RADIX=16

   6199  5 000766   000000 235000 xsym               LDA     DA_DFLT_RADIX
         5 000767   000020 115007                    CMPA    16,DL
         5 000770   001023 601000 5                  TNZ     s:6202

      553     6200    2           THEN CALL DBM$GETMEM (MEMVEC.PTR$(0)->BUBIN,MEMVEC.PTR$(I)->BUBIN,

   6200  5 000771   000012 471500                    LDP1    10,,PR0
         5 000772   100001 473500                    LDP3    1,,PR1
         5 000773   200005 236100                    LDQ     I,,AUTO
         5 000774   000001 736000                    QLS     1
         5 000775   100001 474506                    LDP4    1,QL,PR1
         5 000776   000026 235000 3                  LDA     DATSIZ
         5 000777   000001 735000                    ALS     1
         5 001000   200030 755100                    STA     SYM+18,,AUTO
PL6.E3A0      #003=DBB$EDIT File=DBB$DUMP.:E05TSI                                TUE 07/29/97 12:58 Page:115
         5 001001   200031 755100                    STA     SYM+19,,AUTO
         5 001002   000005 236000 6                  LDQ     5
         5 001003   200040 756100                    STQ     SYM+26,,AUTO
         5 001004   200031 631500                    EPPR1   SYM+19,,AUTO
         5 001005   200037 451500                    STP1    SYM+25,,AUTO
         5 001006   000001 236000 xsym               LDQ     B_VECTNIL+1
         5 001007   200036 756100                    STQ     SYM+24,,AUTO
         5 001010   200030 635500                    EPPR5   SYM+18,,AUTO
         5 001011   200035 455500                    STP5    SYM+23,,AUTO
         5 001012   000006 236000 6                  LDQ     6
         5 001013   200034 756100                    STQ     SYM+22,,AUTO
         5 001014   200033 454500                    STP4    SYM+21,,AUTO
         5 001015   200032 453500                    STP3    SYM+20,,AUTO
         5 001016   200032 630500                    EPPR0   SYM+20,,AUTO
         5 001017   000025 631400 xsym               EPPR1   B_VECTNIL+21
         5 001020   000000 701000 xent               TSX1    DBM$GETMEM
         5 001021   001113 702000 5                  TSX2    NOMEM
         5 001022   001111 710000 5                  TRA     s:6211

      554     6201    2                DB_U#,DATSIZ*2,,DATSIZ*2,DB_D#) ALTRET(NOMEM);
      555     6202    3           ELSE IF DATSIZ=1 AND MEMVEC.PTR$(0)->BUBIN<262144 THEN DO;

   6202  5 001023   000026 236000 3                  LDQ     DATSIZ
         5 001024   000001 116007                    CMPQ    1,DL
         5 001025   001061 601000 5                  TNZ     s:6207
         5 001026   000012 471500                    LDP1    10,,PR0
         5 001027   100001 473500                    LDP3    1,,PR1
         5 001030   300000 235100                    LDA     0,,PR3
         5 001031   000001 115003                    CMPA    1,DU
         5 001032   001061 603000 5                  TRC     s:6207

      556     6203    3                 CALL DAM$MAP (MEMVEC.PTR$(0)->BUBIN,MEMVEC.PTR$(I),

   6203  5 001033   000010 237000 6                  LDAQ    8
         5 001034   200032 757100                    STAQ    SYM+20,,AUTO
         5 001035   200005 235100                    LDA     I,,AUTO
         5 001036   000001 735000                    ALS     1
PL6.E3A0      #003=DBB$EDIT File=DBB$DUMP.:E05TSI                                TUE 07/29/97 12:58 Page:116
         5 001037   100001 634505                    EPPR4   1,AL,PR1
         5 001040   200031 454500                    STP4    SYM+19,,AUTO
         5 001041   200030 453500                    STP3    SYM+18,,AUTO
         5 001042   200030 630500                    EPPR0   SYM+18,,AUTO
         5 001043   000022 631400 xsym               EPPR1   B_VECTNIL+18
         5 001044   000000 701000 xent               TSX1    DAM$MAP
         5 001045   001113 702000 5                  TSX2    NOMEM

      557     6204    3                   DB_U#,DB_D#) ALTRET(NOMEM);
      558     6205    3                 MEMVEC.BOUND(I)=BITBIN('3777777'O);

   6205  5 001046   200003 470500                    LDP0    @FDS,,AUTO
         5 001047   000012 471500                    LDP1    10,,PR0
         5 001050   200005 235100                    LDA     I,,AUTO
         5 001051   000001 735000                    ALS     1
         5 001052   000050 236000 4                  LDQ     40
         5 001053   000017 772000                    QRL     15
         5 001054   000020 736000                    QLS     16
         5 001055   100000 676105                    ERQ     0,AL,PR1
         5 001056   000034 376000 xsym               ANQ     B_VECTNIL+28
         5 001057   100000 656105                    ERSQ    0,AL,PR1

      559     6206    3                 END; ELSE DO;

   6206  5 001060   001111 710000 5                  TRA     s:6211

      560     6207    3                 ADDR(MEMVEC.PTR$(I))->BUBIN=MEMVEC.PTR$(0)->BUBIN;

   6207  5 001061   000012 471500                    LDP1    10,,PR0
         5 001062   200005 235100                    LDA     I,,AUTO
         5 001063   000001 735000                    ALS     1
         5 001064   100001 473500                    LDP3    1,,PR1
         5 001065   000000 620005                    EAX0    0,AL
         5 001066   300000 235100                    LDA     0,,PR3
         5 001067   100001 755110                    STA     1,X0,PR1

      561     6208    3                 CALL DAM$MAP (MEMVEC.PTR$(0)->BUBIN,MEMVEC.PTR$(I),
PL6.E3A0      #003=DBB$EDIT File=DBB$DUMP.:E05TSI                                TUE 07/29/97 12:58 Page:117

   6208  5 001070   000012 471500                    LDP1    10,,PR0
         5 001071   100001 473500                    LDP3    1,,PR1
         5 001072   200005 235100                    LDA     I,,AUTO
         5 001073   000001 735000                    ALS     1
         5 001074   100000 634505                    EPPR4   0,AL,PR1
         5 001075   200034 454500                    STP4    SYM+22,,AUTO
         5 001076   000006 237000 6                  LDAQ    6
         5 001077   200032 757100                    STAQ    SYM+20,,AUTO
         5 001100   200005 235100                    LDA     I,,AUTO
         5 001101   000001 735000                    ALS     1
         5 001102   100001 635505                    EPPR5   1,AL,PR1
         5 001103   200031 455500                    STP5    SYM+19,,AUTO
         5 001104   200030 453500                    STP3    SYM+18,,AUTO
         5 001105   200030 630500                    EPPR0   SYM+18,,AUTO
         5 001106   000023 631400 xsym               EPPR1   B_VECTNIL+19
         5 001107   000000 701000 xent               TSX1    DAM$MAP
         5 001110   001113 702000 5                  TSX2    NOMEM

      562     6209    3                   DB_U#,DB_D#,MEMVEC(I)) ALTRET(NOMEM);
      563     6210    3                 END;

      564     6211    2           RETURN;

   6211  5 001111   200026 221300                    LDX1  ! SYM+16,,AUTO
         5 001112   000001 702211                    TSX2  ! 1,X1

   6209  5 001113                       NOMEM        null
      565     6212    2   NOMEM:  ;
      566     6213    2           UNWIND TO FDS.BAILOUT;

   6213  5 001113   200003 470700                    LDP0  ! @FDS,,AUTO
         5 001114   000100 100700                    MLR   ! fill='000'O
         5 001115   000021 000010                    ADSC9   17,,PR0                  cn=0,n=8
         5 001116   200030 000010                    ADSC9   SYM+18,,AUTO             cn=0,n=8
         5 001117   200030 237300                    LDAQ  ! SYM+18,,AUTO
         5 001120   000000 700200 xent               TSX0  ! X66_AUNWIND
PL6.E3A0      #003=DBB$EDIT File=DBB$DUMP.:E05TSI                                TUE 07/29/97 12:58 Page:118
         5 001121   000000 000200                    ZERO    0,128
      567     6214    2   END GETMEM;
      568     6215    1   END;

PL6.E3A0      #003=DBB$EDIT File=DBB$DUMP.:E05TSI                                TUE 07/29/97 12:58 Page:119
--  Include file information  --

   XU_FORMAT_C.:E05TOU  is referenced.
   CP_6_C.:E05TOU  is referenced.
   CP_6.:E05TOU  cannot be made into a system file and is referenced.
      No diagnostics issued in procedure DBB$EDIT.
PL6.E3A0      #003=DBB$EDIT File=DBB$DUMP.:E05TSI                                TUE 07/29/97 12:58 Page:120

 **** Variables and constants ****

  ****  Section 003  Data  DBB$EDIT

  ****  Scalars and arrays  ****
OctLoc.c.b A Datatyp(siz) R M Lvl/name                 OctLoc.c.b A Datatyp(siz) R M Lvl/name

    26-0-0/w SBIN        r     1 DATSIZ                    30-0-0/w SBIN        r     1 DB_D#
    31-0-0/w PTR         r     1 DB_NXT$                   27-0-0/w SBIN        r     1 DB_U#
    16-0-0/c STRC(288)   r     1 FMTKEY                     0-0-0/d STRC(504)   r     1 READFMT

  ****  Auto variables  ****

  ****  Scalars and arrays  ****
OctLoc.c.b A Datatyp(siz) R M Lvl/name                 OctLoc.c.b A Datatyp(siz) R M Lvl/name

     4-0-0/w PTR         r     1 @CNT                       3-0-0/w PTR         r     1 @FDS
    *0-0-0/w SBIN        r     1 CNT(0:4)                  *0-0-0/w STRC(1080)  r     1 FDS
     5-0-0/w UBIN        r     1 I                          5-0-0/w PTR         r     1 I$
     6-0-0/c STRC(576)   r     1 SYM

  ****  SYMREF variables  ****

  ****  Scalars and arrays  ****
OctLoc.c.b A Datatyp(siz) R M Lvl/name                 OctLoc.c.b A Datatyp(siz) R M Lvl/name

     0-0-0/w SBIN        r     1 DA_DFLT_RADIX

  ****  BASED and DCB variables  ****

  ****  Scalars and arrays  ****
OctLoc.c.b A Datatyp(siz) R M Lvl/name                 OctLoc.c.b A Datatyp(siz) R M Lvl/name

     0-0-0/w UBIN(18)    r     1 BHBIN                      0-0-0/w UBIN        r     1 BUBIN
     0-0-0/c ACHR        r     1 BUF                        0-0-0/c CHAR        r     1 CHAR1
     0-0-0/c CHAR(4)     r     1 CHAR4                      0-0-0/c ACHR        r     1 CHARI
     0-0-0/w STRC(108)   r     1 CND                        0-0-0/w SBIN        r     1 DB_NXTX
PL6.E3A0      #003=DBB$EDIT File=DBB$DUMP.:E05TSI                                TUE 07/29/97 12:58 Page:121
     0-0-0/c ACHR        r     1 FMT                        0-0-0/d ASTR(3528)  r     1 M$FMT
     0-0-0/d ASTR(3528)  r     1 M$FMTSYS                   0-0-0/w STRC(72)    r     1 MEMVEC(0:0)
     0-0-0/w ASTR(18)    r     1 TEXTH


   Procedure DBB$EDIT requires 594 words for executable code.
   Procedure DBB$EDIT requires 34 words of local(AUTO) storage.

    No errors detected in file DBB$DUMP.:E05TSI    .
PL6.E3A0      #003=DBB$EDIT File=DBB$DUMP.:E05TSI                                TUE 07/29/97 12:58 Page:122
          *** CROSS REFERENCE LISTING ***
**     DENOTES     IDENTIFIER DEFINITION
<<                 IDENTIFIER'S VALUE SET
>>                 IDENTIFIER'S VALUE USED
<>                 IDENTIFIER SET AND/OR USED
--                 IDENTIFIER REFERENCED
PL6.E3A0      #003=DBB$EDIT File=DBB$DUMP.:E05TSI                                TUE 07/29/97 12:58 Page:123
          MINI XREF LISTING

BADFMT IN PROCEDURE GETFMT
      6172**LABEL    6135--CALLALT
BADSIZ IN PROCEDURE GETFMT
      6180**LABEL    6163--GOTO
BADSIZE IN PROCEDURE GETFMT
      6179**ENTRY    6086--CALL
BAD_SYM
      6122**LABEL    6115--CALLALT
BHBIN
      6051**DCL      6091<<ASSIGN   6190<<ASSIGN
BUBIN
      6050**DCL      6092<<ASSIGN   6158>>ASSIGN   6161>>IF       6162>>ASSIGN   6191<<ASSIGN   6200<>CALL
      6200<>CALL     6202>>IF       6203<>CALL     6207<<ASSIGN   6207>>ASSIGN   6208<>CALL
BUF
      6043**DCL      6077>>CALLBLT  6078<<ASSIGN   6106<<ASSIGN
CHAR1 IN PROCEDURE GETFMT
      6133**DCL      6141<<ASSIGN
CHAR4 IN PROCEDURE GETFMT
      6132**DCL      6138<<ASSIGN   6138>>ASSIGN
CHARI IN PROCEDURE GETFMT
      6134**DCL      6140<<ASSIGN   6140>>ASSIGN
CND.FLG
      6058**DCL      6100>>IF       6100>>IF       6100>>IF
CNT
      6036**DCL         6--PROC     6075>>DOCASE   6081>>IF       6084>>ASSIGN   6089>>IF       6090>>IF
      6090>>IF       6091>>ASSIGN   6092>>ASSIGN   6098>>IF       6100>>IF       6100>>IF       6100>>IF
      6100>>IF       6100>>IF       6105<>CALL     6105<>CALL     6108<<ASSIGN   6108>>ASSIGN   6110<<ASSIGN
      6114>>IF       6115<>CALL     6136>>IF       6138--ASSIGN   6161>>IF       6189>>IF       6189>>IF
      6190>>ASSIGN   6191>>ASSIGN   6192>>IF       6192>>ASSIGN   6193>>IF       6193>>ASSIGN
DAM$MAP
      6060**DCL-ENT  6203--CALL     6208--CALL
DAS$EDSRCHPTR
PL6.E3A0      #003=DBB$EDIT File=DBB$DUMP.:E05TSI                                TUE 07/29/97 12:58 Page:124
      6064**DCL-ENT  6121--CALL
DAS$IC2PEDOFS
      6061**DCL-ENT  6105--CALL
DAS$SDMONPTR
      6062**DCL-ENT  6115--CALL
DAS$SDSRCHPTR
      6063**DCL-ENT  6120--CALL
DATSIZ
      6049**DCL      6073<<ASSIGN   6084<<ASSIGN   6085>>IF       6093>>IF       6162<<ASSIGN   6163>>IF
      6177<<ASSIGN   6194>>IF       6198>>ASSIGN   6200>>CALL     6200>>CALL     6202>>IF
DA_DFLT_RADIX
      6065**DCL      6090>>IF       6189>>IF       6198>>ASSIGN   6199>>IF
DBM$GETMEM
      6066**DCL-ENT  6200--CALL
DB_D#
      6068**DCL      6193<<ASSIGN   6200<>CALL     6203<>CALL     6208<>CALL
DB_NXT$
      6069**DCL      6055--IMP-PTR  6081>>IF       6137>>IF       6138>>ASSIGN   6138>>ASSIGN   6139>>ASSIGN
      6139>>ASSIGN   6140>>ASSIGN   6140>>ASSIGN   6141>>ASSIGN   6141>>ASSIGN
DB_NXTX
      6055**DCL      6137>>IF       6138>>ASSIGN   6139<<ASSIGN   6139>>ASSIGN   6140>>ASSIGN   6141>>ASSIGN
DB_U#
      6067**DCL      6192<<ASSIGN   6200<>CALL     6203<>CALL     6208<>CALL
FDS
      5937**DCL         6--PROC
FDS.BAILOUT
      6009**DCL      6103>>UNWIND   6213>>UNWIND
FDS.BUFSIZE
      5963**DCL      6043--IMP-SIZ  6077>>CALLBLT  6078>>ASSIGN   6106>>ASSIGN   6107>>ASSIGN
FDS.BUFX
      5961**DCL      6077>>CALLBLT  6106>>ASSIGN   6107<<ASSIGN   6107>>ASSIGN
FDS.BUF_.BUF$
      5957**DCL      6043--IMP-PTR  6077>>CALLBLT  6078>>ASSIGN   6106>>ASSIGN
FDS.FMTSIZE
      5952**DCL      6042--IMP-SIZ  6071>>IF       6117>>CALLBLT  6119>>ASSIGN   6135>>CALLBLT  6140>>ASSIGN
      6144>>IF       6146>>ASSIGN   6158<<ASSIGN   6160>>IF       6164>>ASSIGN   6168>>ASSIGN   6170>>ASSIGN
PL6.E3A0      #003=DBB$EDIT File=DBB$DUMP.:E05TSI                                TUE 07/29/97 12:58 Page:125
      6172>>ASSIGN   6173>>ASSIGN   6175<<ASSIGN   6176>>ASSIGN   6180>>ASSIGN   6183>>ASSIGN   6184>>ASSIGN
FDS.FMTX
      5948**DCL      6117>>CALLBLT  6119>>ASSIGN   6135>>CALLBLT  6140>>ASSIGN   6144>>IF       6146>>ASSIGN
      6166<<ASSIGN   6174<<ASSIGN
FDS.FMT_.FMT$
      5944**DCL      6042--IMP-PTR  6071>>IF       6117>>CALLBLT  6119>>ASSIGN   6135>>CALLBLT  6140>>ASSIGN
      6144>>IF       6146>>ASSIGN   6147>>ASSIGN   6161>>IF       6162>>ASSIGN   6164>>ASSIGN   6168>>ASSIGN
      6170>>ASSIGN   6172>>ASSIGN   6173>>ASSIGN   6176>>ASSIGN   6180>>ASSIGN   6183>>ASSIGN   6184>>ASSIGN
FDS.MEMX
      6017**DCL      6196>>ASSIGN
FDS.USERDAT1#
      6032**DCL      6115<>CALL     6120<>CALL     6121<>CALL
FDS.VECTR$
      5967**DCL      6038--IMP-PTR  6091>>ASSIGN   6092>>ASSIGN   6100>>IF       6100>>IF       6100>>IF
      6190>>ASSIGN   6191>>ASSIGN   6198>>ASSIGN   6200>>CALL     6200>>CALL     6202>>IF       6203>>CALL
      6203>>CALL     6205>>ASSIGN   6207>>ASSIGN   6207>>ASSIGN   6208>>CALL     6208>>CALL     6208>>CALL
FIXSIZ IN PROCEDURE GETMEM
      6195**ENTRY    6093--CALL
FMT
      6042**DCL      6071>>IF       6117>>CALLBLT  6119>>ASSIGN   6135>>CALLBLT  6140--ASSIGN   6144>>IF
      6146>>ASSIGN   6161--IF       6162--ASSIGN   6164<<ASSIGN   6168<<ASSIGN   6170<<ASSIGN   6172<<ASSIGN
      6173<<ASSIGN   6176<<ASSIGN   6180<<ASSIGN   6183<<ASSIGN   6184<<ASSIGN
FMTKEY
      5919**DCL      5897--DCLINIT  5898--DCLINIT
FMTKEY.L
      5920**DCL      6072<<ASSIGN   6144>>IF       6145<<ASSIGN   6154<<ASSIGN
FMTKEY.T
      5921**DCL      6144>>IF       6146<<ASSIGN   6173>>ASSIGN
GETFMT
      6130**PROC     6082--CALL     6097--CALL
GETMEM
      6188**PROC     6095--CALL     6098--CALL
I
      6044**DCL      6045--REDEF    6077<<CALLBLT  6078>>ASSIGN   6117<<CALLBLT  6118>>ASSIGN   6119>>ASSIGN
      6134--IMP-SIZ  6135<<CALLBLT  6137>>IF       6139>>ASSIGN   6140>>ASSIGN   6140>>ASSIGN   6141>>ASSIGN
      6144>>IF       6144>>IF       6145>>ASSIGN   6146>>ASSIGN   6196<<ASSIGN   6197>>IF       6197<<ASSIGN
PL6.E3A0      #003=DBB$EDIT File=DBB$DUMP.:E05TSI                                TUE 07/29/97 12:58 Page:126
      6198>>ASSIGN   6200>>CALL     6203>>CALL     6205>>ASSIGN   6207>>ASSIGN   6208>>CALL     6208>>CALL
I$
      6045**DCL      6105<>CALL     6106>>ASSIGN   6106>>ASSIGN   6107>>ASSIGN
M$FMT
      5731**DCL      6153--IF       6153>>ASSIGN   6159--IF       6159>>ASSIGN
M$FMT.ACTPOS
      5772**DCL      5772--REDEF
M$FMT.ARS#
      5731**DCL      5731--REDEF
M$FMT.ATTR#
      5761**DCL      5761--REDEF    5763--REDEF
M$FMT.BORROW
      5783**DCL      5783--REDEF    5783--REDEF    5783--REDEF
M$FMT.DCBNAME.L
      5802**DCL      5802--IMP-SIZ  6153>>IF       6153>>ASSIGN   6159>>IF       6159>>ASSIGN
M$FMT.EOMCHAR#
      5738**DCL      5739--REDEF
M$FMT.FCD#
      5753**DCL      6153>>IF       6159>>IF
M$FMT.FLDID
      5775**DCL      5776--REDEF
M$FMT.FORM$
      5767**DCL      5767--REDEF
M$FMT.FSECT
      5790**DCL      5790--REDEF
M$FMT.FSN#
      5757**DCL      5757--REDEF    5757--REDEF    5758--REDEF
M$FMT.HEADER$
      5766**DCL      5767--REDEF
M$FMT.IXTNSIZE#
      5763**DCL      5764--REDEF
M$FMT.LASTSTA$
      5747**DCL      5747--REDEF
M$FMT.LVL
      5784**DCL      5784--REDEF
M$FMT.NAME#.C
PL6.E3A0      #003=DBB$EDIT File=DBB$DUMP.:E05TSI                                TUE 07/29/97 12:58 Page:127
      5747**DCL      5748--REDEF
M$FMT.NOEOF
      5779**DCL      5779--REDEF
M$FMT.NRECS#
      5764**DCL      5764--REDEF
M$FMT.NRECX
      5791**DCL      5791--REDEF
M$FMT.OHDR
      5780**DCL      5780--REDEF
M$FMT.ORG#
      5755**DCL      5756--REDEF
M$FMT.PRECNO
      5788**DCL      5788--REDEF
M$FMT.RCSZ
      5796**DCL      5796--REDEF
M$FMT.RES#
      5749**DCL      5749--REDEF
M$FMT.SETX
      5768**DCL      5768--REDEF
M$FMT.TAB$
      5767**DCL      5767--REDEF
M$FMT.TDA
      5787**DCL      5788--REDEF
M$FMT.WSN#
      5749**DCL      5750--REDEF
M$FMTSYS
      5805**DCL      6150>>IF       6151>>ASSIGN
M$FMTSYS.ACTPOS
      5846**DCL      5846--REDEF
M$FMTSYS.ARS#
      5805**DCL      5805--REDEF
M$FMTSYS.ATTR#
      5835**DCL      5835--REDEF    5837--REDEF
M$FMTSYS.BORROW
      5857**DCL      5857--REDEF    5857--REDEF    5857--REDEF
M$FMTSYS.DCBNAME.L
PL6.E3A0      #003=DBB$EDIT File=DBB$DUMP.:E05TSI                                TUE 07/29/97 12:58 Page:128
      5876**DCL      5876--IMP-SIZ  6150>>IF       6151>>ASSIGN
M$FMTSYS.EOMCHAR#
      5812**DCL      5813--REDEF
M$FMTSYS.FLDID
      5849**DCL      5850--REDEF
M$FMTSYS.FORM$
      5841**DCL      5841--REDEF
M$FMTSYS.FSECT
      5864**DCL      5864--REDEF
M$FMTSYS.FSN#
      5831**DCL      5831--REDEF    5831--REDEF    5832--REDEF
M$FMTSYS.HEADER$
      5840**DCL      5841--REDEF
M$FMTSYS.IXTNSIZE#
      5837**DCL      5838--REDEF
M$FMTSYS.LASTSTA$
      5821**DCL      5821--REDEF
M$FMTSYS.LVL
      5858**DCL      5858--REDEF
M$FMTSYS.NAME#.C
      5821**DCL      5822--REDEF
M$FMTSYS.NOEOF
      5853**DCL      5853--REDEF
M$FMTSYS.NRECS#
      5838**DCL      5838--REDEF
M$FMTSYS.NRECX
      5865**DCL      5865--REDEF
M$FMTSYS.OHDR
      5854**DCL      5854--REDEF
M$FMTSYS.ORG#
      5829**DCL      5830--REDEF
M$FMTSYS.PRECNO
      5862**DCL      5862--REDEF
M$FMTSYS.RCSZ
      5870**DCL      5870--REDEF
M$FMTSYS.RES#
PL6.E3A0      #003=DBB$EDIT File=DBB$DUMP.:E05TSI                                TUE 07/29/97 12:58 Page:129
      5823**DCL      5823--REDEF
M$FMTSYS.SETX
      5842**DCL      5842--REDEF
M$FMTSYS.TAB$
      5841**DCL      5841--REDEF
M$FMTSYS.TDA
      5861**DCL      5862--REDEF
M$FMTSYS.WSN#
      5823**DCL      5824--REDEF
M$READ
      5496**DCL-ENT  6149--CALL     6152--CALL
MEMVEC
      6038**DCL      6208<>CALL
MEMVEC.BOUND
      6039**DCL      6198<<ASSIGN   6205<<ASSIGN
MEMVEC.PTR$
      6041**DCL      6091>>ASSIGN   6092>>ASSIGN   6100>>IF       6100>>IF       6100>>IF       6190>>ASSIGN
      6191>>ASSIGN   6200>>CALL     6200>>CALL     6202>>IF       6203>>CALL     6203<>CALL     6207--ASSIGN
      6207>>ASSIGN   6208>>CALL     6208<>CALL
NOFMT IN PROCEDURE GETFMT
      6168**LABEL    6150--GOTO     6155--GOTO     6160--GOTO
NOFMT1 IN PROCEDURE GETFMT
      6173**LABEL    6169--GOTO     6171--GOTO
NOFMT2 IN PROCEDURE GETFMT
      6174**LABEL    6181--GOTO     6185--GOTO
NOMEM IN PROCEDURE GETMEM
      6209**LABEL    6200--CALLALT  6203--CALLALT  6208--CALLALT
NOROOM IN PROCEDURE GETFMT
      6170**LABEL    6137--GOTO
NOSYMBOL IN PROCEDURE GETFMT
      6182**ENTRY    6122--CALL
READFMT
      5897**DCL      6149<>CALL     6152<>CALL
READFMT.BUF_.BOUND
      5899**DCL      6148<<ASSIGN
READFMT.BUF_.BUF$
PL6.E3A0      #003=DBB$EDIT File=DBB$DUMP.:E05TSI                                TUE 07/29/97 12:58 Page:130
      5900**DCL      6147<<ASSIGN
READFMT.STATION_
      5900**DCL      5901--REDEF
READFMT.V
      5901**DCL      5897--DCLINIT
READFMT.V.DCB#
      5901**DCL      6150>>IF       6151<<ASSIGN   6153<<ASSIGN   6158--ASSIGN   6159<<ASSIGN
READFMT.V.DVBYTE.REREAD#
      5912**DCL      5912--REDEF
READFMT.V.INDX#
      5910**DCL      5910--REDEF
SYM
      6046**DCL      6120<>CALL     6121<>CALL
SYM.L
      6047**DCL      6118<<ASSIGN
SYM.T
      6048**DCL      6119<<ASSIGN   6184>>ASSIGN
TEXTH.C
      6053**DCL      6054--IMP-SIZ  6106>>ASSIGN   6107>>ASSIGN
TEXTH.T
      6054**DCL      6106>>ASSIGN
