VERSION E05

PL6.E3A0      #001=DBB$HEXDUMP File=DBB$HEXDUMP.:E05TSI                          TUE 07/29/97 12:58 Page:1
        1        1        /*M* DBB$HEXDUMP - HEX DUMP ROUTINE FOR ANLZ */
        2        2        /*T***********************************************************/
        3        3        /*T*                                                         */
        4        4        /*T* Copyright (c) Bull HN Information Systems Inc., 1997    */
        5        5        /*T*                                                         */
        6        6        /*T***********************************************************/
        7        7        DBB$HEXDUMP: PROC(MEM,NWRDS,OFFSET,XTAB);
        8        8    1   DCL MEM SBIN;
        9        9    1   DCL NWRDS SBIN;
       10       10    1   DCL OFFSET SBIN;
       11       11    1   DCL XTAB CHAR(512) ALIGNED;
       12       12        /**/
       13       13    1   DCL DAF$WRITE EPTR SYMREF;
       14       14    1   DCL DAB$OUTPUT ENTRY(2) ALTRET;
       15       15        /**/
       16       16        %INCLUDE DA_ANLZ_R;
       17       29        %INCLUDE DA_FORMAT_R;
       18       41        %INCLUDE DA_FORMAT_C;
       19      283        %INCLUDE DA_MAP_R;
       20      313        %REPORT (NAME=REPORT,STCLASS="BASED(DA_REPORT$)");
       21      379        %INCLUDE XU_FORMAT_C;
       22      541        %F_FDS (NAME=DA_FDS,STCLASS=SYMREF);
       23      654        /**/
       24      655    1   DCL DAB_BUF2$ PTR SYMREF;
       25      656    1   DCL DAB_STAR CHAR(1) SYMREF;
       26      657    1   DCL DAB_LASTLINE BIT(1) ALIGNED SYMREF;
       27      658        /**/
       28      659    1   DCL BUF2 CHAR(256);
       29      660    1   DCL BUF1$ PTR;
       30      661    1   DCL OUTPUT EPTR;
       31      662    1   DCL AFLG SBIN;
       32      663    1   DCL X1 SBIN;
       33      664    1   DCL X2 SBIN;
       34      665    1   DCL X3 SBIN;
       35      666    1   DCL WPL SBIN;
       36      667    1   DCL ASC$ PTR;
       37      668    1   DCL MEM$ PTR;
PL6.E3A0      #001=DBB$HEXDUMP File=DBB$HEXDUMP.:E05TSI                          TUE 07/29/97 12:58 Page:2
       38      669    1   DCL CSIZE SBIN;
       39      670    1   DCL WDSZ SBIN;
       40      671    1   DCL ASCII CHAR(64);
       41      672    1   DCL MBASE CHAR(CSIZE) BASED(MEM$);
       42      673    1   DCL ABASE CHAR(CSIZE) BASED(ASC$);
       43      674    1   DCL WX SBIN;
       44      675    1   DCL AVEC BIT(72);
       45      676    1   DCL TRTN REMEMBER ;
       46      677    1   DCL OTAB SBIN;
       47      678    1   DCL ATAB SBIN;
       48      679    1   DCL FMTV1 VECTOR;
       49      680    1   DCL FMTV2 VECTOR;
       50      681    1   DCL FMTV3 VECTOR;
       51      682    1   DCL HDRV VECTOR;
       52      683        /**/
       53      684    1   DCL HDRW CHAR(0) CONSTANT INIT('           0    1    2    3    4    5    6    7    8
               684            9    A    B    C    D    E    F');
       54      685    1   DCL FMT1 CHAR(0) CONSTANT INIT('%6ZH%N-%N(%4.18ZY %)%N-%N(%2A%)');
       55      686    1   DCL FMT2 CHAR(0) CONSTANT INIT('%6ZH  %N(%4.18ZY %) %N(%2A%)');
       56      687    1   DCL FMT3 CHAR(0) CONSTANT INIT('%6ZH  %N(%4.18ZY %)%N-%N(%2A%)');
       57      688        /**/
       58      689    1   DCL HDRB CHAR(0) CONSTANT INIT(
               689            '         0  1  2  3  4  5  6  7  8  9  A  B  C  D  E  F');
       59      690    1   DCL FMTB1 CHAR(0) CONSTANT INIT('%6ZH%N-%N(%2.9ZY %)%N-%N(%1A%)');
       60      691    1   DCL FMTB2 CHAR(0) CONSTANT INIT('%6ZH  %N(%2.9ZY %) %N(%1A%)');
       61      692    1   DCL FMTB3 CHAR(0) CONSTANT INIT('%6ZH  %N(%2.9ZY %)%N-%N(%1A%)');
       62      693        /**/
       63      694        %EJECT;
PL6.E3A0      #001=DBB$HEXDUMP File=DBB$HEXDUMP.:E05TSI                          TUE 07/29/97 12:58 Page:3
       64      695    1           WDSZ=2;
       65      696    1           FMTV1=VECTOR(FMT1);
       66      697    1           FMTV2=VECTOR(FMT2);
       67      698    1           FMTV3=VECTOR(FMT3);
       68      699    1           HDRV=VECTOR(HDRW);
       69      700    1           GOTO DMP_CMN;
       70      701        /**/
       71      702    1   DBB$HEXDUMPB: ENTRY(MEM,NWRDS,OFFSET,XTAB);
       72      703    1           WDSZ=1;
       73      704    1           FMTV1=VECTOR(FMTB1);
       74      705    1           FMTV2=VECTOR(FMTB2);
       75      706    1           FMTV3=VECTOR(FMTB3);
       76      707    1           HDRV=VECTOR(HDRB);
       77      708        /**/
       78      709    1   DMP_CMN:
       79      710    1           DAB_BUF2$=ADDR(BUF2);
       80      711    1           BUF2=' ';
       81      712    1           BUF1$=DA_FDS.BUF_.BUF$;
       82      713    1           TRTN=DA_TRTN;
       83      714    1           REMEMBER FINI IN DA_TRTN;
       84      715    1           DAB_STAR=' ';
       85      716    1           OUTPUT=DA_FDS.OUTPUT#;
       86      717    1           DA_FDS.OUTPUT#=ENTADDR(DAB$OUTPUT);
       87      718    1           AFLG=BITBIN(ADDR(XTAB)~=ADDR(NIL));
       88      719    1           X1=(REPORT.PAGEWID.N-(8+AFLG))/(1+(WDSZ*(AFLG+2)));
       89      720    1           WPL=1;
       90      721    2           DO WHILE(X1>1 AND WPL<16);
       91      722    2              WPL=WPL*2;
       92      723    2              X1=X1/2;
       93      724    2              END;
       94      725    1           VBOUND(HDRV)=6+WPL*(WDSZ*2+1);
       95      726    1           CALL DAF$WRITE(HDRV);
       96      727    1           ASC$=ADDR(ASCII);
       97      728    1           MEM$=ADDR(MEM);
       98      729    1           AVEC=VECTOR(NIL);
       99      730    1           X1=MOD(OFFSET,WPL);
      100      731    1           WX=OFFSET-X1;
PL6.E3A0      #001=DBB$HEXDUMP File=DBB$HEXDUMP.:E05TSI                          TUE 07/29/97 12:58 Page:4
      101      732    2           IF X1~=0 THEN DO;
      102      733    2              X2=WPL-X1;
      103      734    2              IF X2>NWRDS THEN X2=NWRDS;
      104      735    2              CSIZE=X2*WDSZ;
      105      736    2              OTAB=9+(1+2*WDSZ)*X1;
      106      737    2              ATAB=10+(1+2*WDSZ)*WPL+WDSZ*X1;
      107      738    3              IF AFLG~=0 THEN DO;
      108      739    3                 CALL XLATE(ABASE,XTAB,MBASE);
      109      740    3                 AVEC=VECTOR(ABASE);
      110      741    3                 END;
      111      742    2              X3=X2*AFLG;
      112      743    2              CALL DAF$WRITE(FMTV1,VECTOR(WX),
      113      744    2                VECTOR(OTAB),VECTOR(X2),
      114      745    2                VECTOR(MBASE),VECTOR(ATAB),
      115      746    2                VECTOR(X3),AVEC);
      116      747    2              WX=WX+WPL;
      117      748    2              MEM$=PINCRC(MEM$,X2*WDSZ);
      118      749    2              END;
      119      750    1           CSIZE=WPL*WDSZ;
      120      751    1           IF AFLG~=0 THEN AVEC=VECTOR(ABASE);
      121      752    1           X3=WPL*AFLG;
      122      753    2           DO WHILE((OFFSET+NWRDS)-WX>=WPL);
      123      754    2              DAB_LASTLINE=((OFFSET+NWRDS)-WX)=WPL;
      124      755    2              IF AFLG~=0 THEN
      125      756    2                 CALL XLATE(ABASE,XTAB,MBASE);
      126      757    2                 CALL DAF$WRITE(FMTV2,VECTOR(WX),
      127      758    2                   VECTOR(WPL),VECTOR(MBASE),
      128      759    2                   VECTOR(X3),AVEC);
      129      760    2              MEM$=PINCRC(MEM$,WPL*WDSZ);
      130      761    2              WX=WX+WPL;
      131      762    2              END;
      132      763    1           X1=(OFFSET+NWRDS)-WX;
      133      764    2           IF X1>0 THEN DO;
      134      765    2              CSIZE=X1*WDSZ;
      135      766    2              X3=X1*AFLG;
      136      767    2              ATAB=10+(1+2*WDSZ)*WPL;
      137      768    3              IF AFLG~=0 THEN DO;
PL6.E3A0      #001=DBB$HEXDUMP File=DBB$HEXDUMP.:E05TSI                          TUE 07/29/97 12:58 Page:5
      138      769    3                 CALL XLATE(ABASE,XTAB,MBASE);
      139      770    3                 AVEC=VECTOR(ABASE);
      140      771    3                 END;
      141      772    2              CALL DAF$WRITE(FMTV3,VECTOR(WX),
      142      773    2                VECTOR(X1),VECTOR(MBASE),
      143      774    2                VECTOR(ATAB),VECTOR(X3),
      144      775    2                AVEC);
      145      776    2              END;
      146      777    1           DA_TRTN=TRTN;
      147      778    1           DA_FDS.BUF_.BUF$=BUF1$;
      148      779    1           DA_FDS.OUTPUT#=OUTPUT;
      149      780    1           RETURN;
      150      781    1   FINI:   DA_TRTN=TRTN;
      151      782    1           DA_FDS.BUF_.BUF$=BUF1$;
      152      783    1           DA_FDS.OUTPUT#=OUTPUT;
      153      784    1           UNWIND TO DA_TRTN;
      154      785    1   END DBB$HEXDUMP;

PL6.E3A0      #001=DBB$HEXDUMP File=DBB$HEXDUMP.:E05TSI                          TUE 07/29/97 12:58 Page:6
--  Include file information  --

   XU_FORMAT_C.:E05TOU  is referenced.
   DA_MAP_R.:E05TOU  cannot be made into a system file and is referenced.
   DA_FORMAT_C.:E05TOU  is referenced.
   DA_FORMAT_R.:E05TOU  cannot be made into a system file and is referenced.
   DA_ANLZ_R.:E05TOU  cannot be made into a system file and is referenced.
      No diagnostics issued in procedure DBB$HEXDUMP.

   Procedure DBB$HEXDUMP requires 424 words for executable code.
   Procedure DBB$HEXDUMP requires 156 words of local(AUTO) storage.

    No errors detected in file DBB$HEXDUMP.:E05TSI    .

PL6.E3A0      #001=DBB$HEXDUMP File=DBB$HEXDUMP.:E05TSI                          TUE 07/29/97 12:58 Page:7

 Object Unit name= DBB$HEXDUMP                                File name= DBB$HEXDUMP.:E05TOU
 UTS= JUL 29 '97 12:58:43.80 TUE                              Compiler= PL-6/E31         Sev=      00
 SharedLib= :SHARED_SYSTEM                                    Alt SharedLib=


    ****  Control sections  ****

 Sect   Type Bound  Init  Size OctSiz  Section name(segment info)
    0  RoData even  UTS     82    122  DBB$HEXDUMP
    1   Proc  even  none   424    650  DBB$HEXDUMP
    2  RoData even  none    18     22  DBB$HEXDUMP

    ****  Entry defs  ****

                              Check   Calling
                             calling  sequence
  Sect OctLoc Primary Altret sequence   type   Parms  Name
     1      0   yes            yes      Std        4  DBB$HEXDUMP
     1     15                  yes      Std        4  DBB$HEXDUMPB

  ****  Entry refs  ****

         Check        Calling
        calling       sequence
Altret sequence SRef   type   Args  Name
 yes     yes           Std       2 DAB$OUTPUT
                       nStd      0 X66_AUTO_4
                       Std       0 B_CONSPOOL_D
                       nStd      0 X66_ARET
                       nStd      0 X66_AUNWIND
PL6.E3A0      #001=DBB$HEXDUMP File=DBB$HEXDUMP.:E05TSI                          TUE 07/29/97 12:58 Page:8

  ****  Data refs  ****

  Flags:  r = read only, s = secondary
Flgs Name                             Flgs Name                             Flgs Name
     DAF$WRITE                             DA_REPORT$                            DA_TRTN
     DA_FDS                                DAB_BUF2$                             DAB_STAR
     DAB_LASTLINE                          B_VECTNIL

  ****  Segment refs  ****

  Flags:  r = read only, s = secondary
Flgs Name                             Flgs Name                             Flgs Name
     NULLSID                               ISSID
PL6.E3A0      #001=DBB$HEXDUMP File=DBB$HEXDUMP.:E05TSI                          TUE 07/29/97 12:58 Page:9


        1        1        /*M* DBB$HEXDUMP - HEX DUMP ROUTINE FOR ANLZ */
        2        2        /*T***********************************************************/
        3        3        /*T*                                                         */
        4        4        /*T* Copyright (c) Bull HN Information Systems Inc., 1997    */
        5        5        /*T*                                                         */
        6        6        /*T***********************************************************/
        7        7        DBB$HEXDUMP: PROC(MEM,NWRDS,OFFSET,XTAB);

      7  1 000000   000000 700200 xent  DBB$HEXDUMP  TSX0  ! X66_AUTO_4
         1 000001   000234 000004                    ZERO    156,4

        8        8    1   DCL MEM SBIN;
        9        9    1   DCL NWRDS SBIN;
       10       10    1   DCL OFFSET SBIN;
       11       11    1   DCL XTAB CHAR(512) ALIGNED;
       12       12        /**/
       13       13    1   DCL DAF$WRITE EPTR SYMREF;
       14       14    1   DCL DAB$OUTPUT ENTRY(2) ALTRET;
       15       15        /**/
       16       16        %INCLUDE DA_ANLZ_R;
       17       29        %INCLUDE DA_FORMAT_R;
       18       41        %INCLUDE DA_FORMAT_C;
       19      283        %INCLUDE DA_MAP_R;
       20      313        %REPORT (NAME=REPORT,STCLASS="BASED(DA_REPORT$)");
       21      379        %INCLUDE XU_FORMAT_C;
       22      541        %F_FDS (NAME=DA_FDS,STCLASS=SYMREF);
       23      654        /**/
       24      655    1   DCL DAB_BUF2$ PTR SYMREF;
       25      656    1   DCL DAB_STAR CHAR(1) SYMREF;
       26      657    1   DCL DAB_LASTLINE BIT(1) ALIGNED SYMREF;
       27      658        /**/
       28      659    1   DCL BUF2 CHAR(256);
       29      660    1   DCL BUF1$ PTR;
       30      661    1   DCL OUTPUT EPTR;
       31      662    1   DCL AFLG SBIN;
       32      663    1   DCL X1 SBIN;
PL6.E3A0      #001=DBB$HEXDUMP File=DBB$HEXDUMP.:E05TSI                          TUE 07/29/97 12:58 Page:10
       33      664    1   DCL X2 SBIN;
       34      665    1   DCL X3 SBIN;
       35      666    1   DCL WPL SBIN;
       36      667    1   DCL ASC$ PTR;
       37      668    1   DCL MEM$ PTR;
       38      669    1   DCL CSIZE SBIN;
       39      670    1   DCL WDSZ SBIN;
       40      671    1   DCL ASCII CHAR(64);
       41      672    1   DCL MBASE CHAR(CSIZE) BASED(MEM$);
       42      673    1   DCL ABASE CHAR(CSIZE) BASED(ASC$);
       43      674    1   DCL WX SBIN;
       44      675    1   DCL AVEC BIT(72);
       45      676    1   DCL TRTN REMEMBER ;
       46      677    1   DCL OTAB SBIN;
       47      678    1   DCL ATAB SBIN;
       48      679    1   DCL FMTV1 VECTOR;
       49      680    1   DCL FMTV2 VECTOR;
       50      681    1   DCL FMTV3 VECTOR;
       51      682    1   DCL HDRV VECTOR;
       52      683        /**/
       53      684    1   DCL HDRW CHAR(0) CONSTANT INIT('           0    1    2    3    4    5    6    7   8
               684            9    A    B    C    D    E    F');
       54      685    1   DCL FMT1 CHAR(0) CONSTANT INIT('%6ZH%N-%N(%4.18ZY %)%N-%N(%2A%)');
       55      686    1   DCL FMT2 CHAR(0) CONSTANT INIT('%6ZH  %N(%4.18ZY %) %N(%2A%)');
       56      687    1   DCL FMT3 CHAR(0) CONSTANT INIT('%6ZH  %N(%4.18ZY %)%N-%N(%2A%)');
       57      688        /**/
       58      689    1   DCL HDRB CHAR(0) CONSTANT INIT(
               689            '         0  1  2  3  4  5  6  7  8  9  A  B  C  D  E  F');
       59      690    1   DCL FMTB1 CHAR(0) CONSTANT INIT('%6ZH%N-%N(%2.9ZY %)%N-%N(%1A%)');
       60      691    1   DCL FMTB2 CHAR(0) CONSTANT INIT('%6ZH  %N(%2.9ZY %) %N(%1A%)');
       61      692    1   DCL FMTB3 CHAR(0) CONSTANT INIT('%6ZH  %N(%2.9ZY %)%N-%N(%1A%)');
       62      693        /**/
       63      694        %EJECT;
PL6.E3A0      #001=DBB$HEXDUMP File=DBB$HEXDUMP.:E05TSI                          TUE 07/29/97 12:58 Page:11
       64      695    1           WDSZ=2;

    695  1 000002   000002 235007                    LDA     2,DL
         1 000003   200121 755100                    STA     WDSZ,,AUTO

       65      696    1           FMTV1=VECTOR(FMT1);

    696  1 000004   000000 237000 2                  LDAQ    0
         1 000005   200152 757100                    STAQ    FMTV1,,AUTO

       66      697    1           FMTV2=VECTOR(FMT2);

    697  1 000006   000002 237000 2                  LDAQ    2
         1 000007   200154 757100                    STAQ    FMTV2,,AUTO

       67      698    1           FMTV3=VECTOR(FMT3);

    698  1 000010   000004 237000 2                  LDAQ    4
         1 000011   200156 757100                    STAQ    FMTV3,,AUTO

       68      699    1           HDRV=VECTOR(HDRW);

    699  1 000012   000006 237000 2                  LDAQ    6
         1 000013   200160 757100                    STAQ    HDRV,,AUTO

       69      700    1           GOTO DMP_CMN;

    700  1 000014   000031 710000 1                  TRA     DMP_CMN

       70      701        /**/
       71      702    1   DBB$HEXDUMPB: ENTRY(MEM,NWRDS,OFFSET,XTAB);

    702  1 000015   000000 700200 xent  DBB$HEXDUMPB TSX0  ! X66_AUTO_4
         1 000016   000234 000004                    ZERO    156,4

       72      703    1           WDSZ=1;

PL6.E3A0      #001=DBB$HEXDUMP File=DBB$HEXDUMP.:E05TSI                          TUE 07/29/97 12:58 Page:12
    703  1 000017   000001 235007                    LDA     1,DL
         1 000020   200121 755100                    STA     WDSZ,,AUTO

       73      704    1           FMTV1=VECTOR(FMTB1);

    704  1 000021   000010 237000 2                  LDAQ    8
         1 000022   200152 757100                    STAQ    FMTV1,,AUTO

       74      705    1           FMTV2=VECTOR(FMTB2);

    705  1 000023   000012 237000 2                  LDAQ    10
         1 000024   200154 757100                    STAQ    FMTV2,,AUTO

       75      706    1           FMTV3=VECTOR(FMTB3);

    706  1 000025   000014 237000 2                  LDAQ    12
         1 000026   200156 757100                    STAQ    FMTV3,,AUTO

       76      707    1           HDRV=VECTOR(HDRB);

    707  1 000027   000016 237000 2                  LDAQ    14
         1 000030   200160 757100                    STAQ    HDRV,,AUTO

       77      708        /**/
       78      709    1   DMP_CMN:
       79      710    1           DAB_BUF2$=ADDR(BUF2);

    710  1 000031   200007 630500       DMP_CMN      EPPR0   BUF2,,AUTO
         1 000032   000000 450400 xsym               STP0    DAB_BUF2$

       80      711    1           BUF2=' ';

    711  1 000033   040100 100400                    MLR     fill='040'O
         1 000034   000035 000001 xsym               ADSC9   B_VECTNIL+29             cn=0,n=1
         1 000035   200007 000400                    ADSC9   BUF2,,AUTO               cn=0,n=256

       81      712    1           BUF1$=DA_FDS.BUF_.BUF$;
PL6.E3A0      #001=DBB$HEXDUMP File=DBB$HEXDUMP.:E05TSI                          TUE 07/29/97 12:58 Page:13

    712  1 000036   000006 236000 xsym               LDQ     DA_FDS+6
         1 000037   200107 756100                    STQ     BUF1$,,AUTO

       82      713    1           TRTN=DA_TRTN;

    713  1 000040   000000 237000 xsym               LDAQ    DA_TRTN
         1 000041   200146 757100                    STAQ    TRTN,,AUTO

       83      714    1           REMEMBER FINI IN DA_TRTN;

    714  1 000042   000637 635000 1                  EAA     FINI
         1 000043   000000 452400 xsym               STP2    DA_TRTN
         1 000044   000001 755000 xsym               STA     DA_TRTN+1

       84      715    1           DAB_STAR=' ';

    715  1 000045   040000 236003                    LDQ     16384,DU
         1 000046   000000 756000 xsym               STQ     DAB_STAR

       85      716    1           OUTPUT=DA_FDS.OUTPUT#;

    716  1 000047   000014 236000 xsym               LDQ     DA_FDS+12
         1 000050   200110 756100                    STQ     OUTPUT,,AUTO

       86      717    1           DA_FDS.OUTPUT#=ENTADDR(DAB$OUTPUT);

    717  1 000051   000000 636000 xent               EAQ     DAB$OUTPUT
         1 000052   000014 756000 xsym               STQ     DA_FDS+12

       87      718    1           AFLG=BITBIN(ADDR(XTAB)~=ADDR(NIL));

    718  1 000053   400000 220003                    LDX0    -131072,DU
         1 000054   200006 236100                    LDQ     @XTAB,,AUTO
         1 000055   000001 116000 xsym               CMPQ    B_VECTNIL+1
         1 000056   000060 601000 1                  TNZ     s:718+5
         1 000057   000000 220003                    LDX0    0,DU
PL6.E3A0      #001=DBB$HEXDUMP File=DBB$HEXDUMP.:E05TSI                          TUE 07/29/97 12:58 Page:14
         1 000060   000000 636010                    EAQ     0,X0
         1 000061   000043 772000                    QRL     35
         1 000062   200111 756100                    STQ     AFLG,,AUTO

       88      719    1           X1=(REPORT.PAGEWID.N-(8+AFLG))/(1+(WDSZ*(AFLG+2)));

    719  1 000063   000000 471400 xsym               LDP1    DA_REPORT$
         1 000064   100000 236100                    LDQ     0,,PR1
         1 000065   377777 376007                    ANQ     131071,DL
         1 000066   200111 136100                    SBLQ    AFLG,,AUTO
         1 000067   200162 756100                    STQ     HDRV+2,,AUTO
         1 000070   200111 236100                    LDQ     AFLG,,AUTO
         1 000071   000002 036007                    ADLQ    2,DL
         1 000072   200121 402100                    MPY     WDSZ,,AUTO
         1 000073   000001 036007                    ADLQ    1,DL
         1 000074   200163 756100                    STQ     HDRV+3,,AUTO
         1 000075   200162 236100                    LDQ     HDRV+2,,AUTO
         1 000076   000010 136007                    SBLQ    8,DL
         1 000077   200163 506100                    DIV     HDRV+3,,AUTO
         1 000100   200112 756100                    STQ     X1,,AUTO

       89      720    1           WPL=1;

    720  1 000101   000001 235007                    LDA     1,DL
         1 000102   200115 755100                    STA     WPL,,AUTO

       90      721    2           DO WHILE(X1>1 AND WPL<16);

    721  1 000103   000111 710000 1                  TRA     s:724

       91      722    2              WPL=WPL*2;

    722  1 000104   200115 236100                    LDQ     WPL,,AUTO
         1 000105   200115 056100                    ASQ     WPL,,AUTO

       92      723    2              X1=X1/2;

PL6.E3A0      #001=DBB$HEXDUMP File=DBB$HEXDUMP.:E05TSI                          TUE 07/29/97 12:58 Page:15
    723  1 000106   200112 236100                    LDQ     X1,,AUTO
         1 000107   000002 506007                    DIV     2,DL
         1 000110   200112 756100                    STQ     X1,,AUTO

       93      724    2              END;

    724  1 000111   000001 116007                    CMPQ    1,DL
         1 000112   000116 604400 1                  TMOZ    s:725
         1 000113   200115 235100                    LDA     WPL,,AUTO
         1 000114   000020 115007                    CMPA    16,DL
         1 000115   000104 604000 1                  TMI     s:722

       94      725    1           VBOUND(HDRV)=6+WPL*(WDSZ*2+1);

    725  1 000116   200121 236100                    LDQ     WDSZ,,AUTO
         1 000117   000001 736000                    QLS     1
         1 000120   000001 036007                    ADLQ    1,DL
         1 000121   200115 402100                    MPY     WPL,,AUTO
         1 000122   000006 036007                    ADLQ    6,DL
         1 000123   000020 736000                    QLS     16
         1 000124   200160 676100                    ERQ     HDRV,,AUTO
         1 000125   000034 376000 xsym               ANQ     B_VECTNIL+28
         1 000126   200160 656100                    ERSQ    HDRV,,AUTO

       95      726    1           CALL DAF$WRITE(HDRV);

    726  1 000127   200160 630500                    EPPR0   HDRV,,AUTO
         1 000130   200162 450500                    STP0    HDRV+2,,AUTO
         1 000131   200162 630500                    EPPR0   HDRV+2,,AUTO
         1 000132   000000 220000 xsym               LDX0    DAF$WRITE
         1 000133   000017 631400 xsym               EPPR1   B_VECTNIL+15
         1 000134   000000 701010                    TSX1    0,X0
         1 000135   000000 011000                    NOP     0

       96      727    1           ASC$=ADDR(ASCII);

    727  1 000136   200122 630500                    EPPR0   ASCII,,AUTO
PL6.E3A0      #001=DBB$HEXDUMP File=DBB$HEXDUMP.:E05TSI                          TUE 07/29/97 12:58 Page:16
         1 000137   200116 450500                    STP0    ASC$,,AUTO

       97      728    1           MEM$=ADDR(MEM);

    728  1 000140   200003 236100                    LDQ     @MEM,,AUTO
         1 000141   200117 756100                    STQ     MEM$,,AUTO

       98      729    1           AVEC=VECTOR(NIL);

    729  1 000142   000020 237000 2                  LDAQ    16
         1 000143   200143 755100                    STA     AVEC,,AUTO
         1 000144   200144 756100                    STQ     AVEC+1,,AUTO

       99      730    1           X1=MOD(OFFSET,WPL);

    730  1 000145   200005 471500                    LDP1    @OFFSET,,AUTO
         1 000146   100000 236100                    LDQ     0,,PR1
         1 000147   200115 506100                    DIV     WPL,,AUTO
         1 000150   200112 755100                    STA     X1,,AUTO

      100      731    1           WX=OFFSET-X1;

    731  1 000151   100000 236100                    LDQ     0,,PR1
         1 000152   200112 136100                    SBLQ    X1,,AUTO
         1 000153   200142 756100                    STQ     WX,,AUTO

      101      732    2           IF X1~=0 THEN DO;

    732  1 000154   000000 115003                    CMPA    0,DU
         1 000155   000342 600000 1                  TZE     s:750

      102      733    2              X2=WPL-X1;

    733  1 000156   200115 236100                    LDQ     WPL,,AUTO
         1 000157   200112 136100                    SBLQ    X1,,AUTO
         1 000160   200113 756100                    STQ     X2,,AUTO

PL6.E3A0      #001=DBB$HEXDUMP File=DBB$HEXDUMP.:E05TSI                          TUE 07/29/97 12:58 Page:17
      103      734    2              IF X2>NWRDS THEN X2=NWRDS;

    734  1 000161   200004 473500                    LDP3    @NWRDS,,AUTO
         1 000162   300000 116100                    CMPQ    0,,PR3
         1 000163   000166 604400 1                  TMOZ    s:735

    734  1 000164   300000 235100                    LDA     0,,PR3
         1 000165   200113 755100                    STA     X2,,AUTO

      104      735    2              CSIZE=X2*WDSZ;

    735  1 000166   200113 236100                    LDQ     X2,,AUTO
         1 000167   200121 402100                    MPY     WDSZ,,AUTO
         1 000170   200120 756100                    STQ     CSIZE,,AUTO

      105      736    2              OTAB=9+(1+2*WDSZ)*X1;

    736  1 000171   200121 236100                    LDQ     WDSZ,,AUTO
         1 000172   000001 736000                    QLS     1
         1 000173   000001 036007                    ADLQ    1,DL
         1 000174   200112 402100                    MPY     X1,,AUTO
         1 000175   000011 036007                    ADLQ    9,DL
         1 000176   200150 756100                    STQ     OTAB,,AUTO

      106      737    2              ATAB=10+(1+2*WDSZ)*WPL+WDSZ*X1;

    737  1 000177   200121 236100                    LDQ     WDSZ,,AUTO
         1 000200   000001 736000                    QLS     1
         1 000201   000001 036007                    ADLQ    1,DL
         1 000202   200115 402100                    MPY     WPL,,AUTO
         1 000203   200162 756100                    STQ     HDRV+2,,AUTO
         1 000204   200121 236100                    LDQ     WDSZ,,AUTO
         1 000205   200112 402100                    MPY     X1,,AUTO
         1 000206   200162 036100                    ADLQ    HDRV+2,,AUTO
         1 000207   000012 036007                    ADLQ    10,DL
         1 000210   200151 756100                    STQ     ATAB,,AUTO

PL6.E3A0      #001=DBB$HEXDUMP File=DBB$HEXDUMP.:E05TSI                          TUE 07/29/97 12:58 Page:18
      107      738    3              IF AFLG~=0 THEN DO;

    738  1 000211   200111 235100                    LDA     AFLG,,AUTO
         1 000212   000230 600000 1                  TZE     s:742

      108      739    3                 CALL XLATE(ABASE,XTAB,MBASE);

    739  1 000213   200117 474500                    LDP4    MEM$,,AUTO
         1 000214   200120 720100                    LXL0    CSIZE,,AUTO
         1 000215   200006 475500                    LDP5    @XTAB,,AUTO
         1 000216   040140 160540                    MVT     fill='040'O
         1 000217   400000 000010                    ADSC9   0,,PR4                   cn=0,n=*X0
         1 000220   000000 000010                    ADSC9   0,,PR0                   cn=0,n=*X0
         1 000221   500000 000100                    ARG     0,,PR5

      109      740    3                 AVEC=VECTOR(ABASE);

    740  1 000222   200120 236100                    LDQ     CSIZE,,AUTO
         1 000223   000064 737000                    LLS     52
         1 000224   000140 135007                    SBLA    96,DL
         1 000225   200116 236100                    LDQ     ASC$,,AUTO
         1 000226   200143 755100                    STA     AVEC,,AUTO
         1 000227   200144 756100                    STQ     AVEC+1,,AUTO

      110      741    3                 END;

      111      742    2              X3=X2*AFLG;

    742  1 000230   200113 236100                    LDQ     X2,,AUTO
         1 000231   200111 402100                    MPY     AFLG,,AUTO
         1 000232   200114 756100                    STQ     X3,,AUTO

      112      743    2              CALL DAF$WRITE(FMTV1,VECTOR(WX),

    743  1 000233   777640 235007                    LDA     -96,DL
         1 000234   200162 452500                    STP2    HDRV+2,,AUTO
         1 000235   200162 236100                    LDQ     HDRV+2,,AUTO
PL6.E3A0      #001=DBB$HEXDUMP File=DBB$HEXDUMP.:E05TSI                          TUE 07/29/97 12:58 Page:19
         1 000236   000142 036003                    ADLQ    98,DU
         1 000237   200164 757100                    STAQ    HDRV+4,,AUTO
         1 000240   777640 235007                    LDA     -96,DL
         1 000241   200166 452500                    STP2    HDRV+6,,AUTO
         1 000242   200166 236100                    LDQ     HDRV+6,,AUTO
         1 000243   000150 036003                    ADLQ    104,DU
         1 000244   200170 757100                    STAQ    HDRV+8,,AUTO
         1 000245   777640 235007                    LDA     -96,DL
         1 000246   200172 452500                    STP2    HDRV+10,,AUTO
         1 000247   200172 236100                    LDQ     HDRV+10,,AUTO
         1 000250   000113 036003                    ADLQ    75,DU
         1 000251   200174 757100                    STAQ    HDRV+12,,AUTO
         1 000252   200120 235100                    LDA     CSIZE,,AUTO
         1 000253   000020 735000                    ALS     16
         1 000254   000140 135007                    SBLA    96,DL
         1 000255   200117 236100                    LDQ     MEM$,,AUTO
         1 000256   200176 757100                    STAQ    HDRV+14,,AUTO
         1 000257   777640 235007                    LDA     -96,DL
         1 000260   200200 452500                    STP2    HDRV+16,,AUTO
         1 000261   200200 236100                    LDQ     HDRV+16,,AUTO
         1 000262   000151 036003                    ADLQ    105,DU
         1 000263   200202 757100                    STAQ    HDRV+18,,AUTO
         1 000264   777640 235007                    LDA     -96,DL
         1 000265   200204 452500                    STP2    HDRV+20,,AUTO
         1 000266   200204 236100                    LDQ     HDRV+20,,AUTO
         1 000267   000114 036003                    ADLQ    76,DU
         1 000270   200210 757100                    STAQ    HDRV+24,,AUTO
         1 000271   200164 237100                    LDAQ    HDRV+4,,AUTO
         1 000272   200206 757100                    STAQ    HDRV+22,,AUTO
         1 000273   200170 237100                    LDAQ    HDRV+8,,AUTO
         1 000274   200212 757100                    STAQ    HDRV+26,,AUTO
         1 000275   200174 237100                    LDAQ    HDRV+12,,AUTO
         1 000276   200214 757100                    STAQ    HDRV+28,,AUTO
         1 000277   200176 237100                    LDAQ    HDRV+14,,AUTO
         1 000300   200216 757100                    STAQ    HDRV+30,,AUTO
         1 000301   200202 237100                    LDAQ    HDRV+18,,AUTO
         1 000302   200220 757100                    STAQ    HDRV+32,,AUTO
PL6.E3A0      #001=DBB$HEXDUMP File=DBB$HEXDUMP.:E05TSI                          TUE 07/29/97 12:58 Page:20
         1 000303   200210 237100                    LDAQ    HDRV+24,,AUTO
         1 000304   200222 757100                    STAQ    HDRV+34,,AUTO
         1 000305   200143 634500                    EPPR4   AVEC,,AUTO
         1 000306   200233 454500                    STP4    HDRV+43,,AUTO
         1 000307   200222 635500                    EPPR5   HDRV+34,,AUTO
         1 000310   200232 455500                    STP5    HDRV+42,,AUTO
         1 000311   200220 636500                    EPPR6   HDRV+32,,AUTO
         1 000312   200231 456500                    STP6    HDRV+41,,AUTO
         1 000313   200216 637500                    EPPR7   HDRV+30,,AUTO
         1 000314   200230 457500                    STP7    HDRV+40,,AUTO
         1 000315   200214 630500                    EPPR0   HDRV+28,,AUTO
         1 000316   200227 450500                    STP0    HDRV+39,,AUTO
         1 000317   200212 630500                    EPPR0   HDRV+26,,AUTO
         1 000320   200226 450500                    STP0    HDRV+38,,AUTO
         1 000321   200206 630500                    EPPR0   HDRV+22,,AUTO
         1 000322   200225 450500                    STP0    HDRV+37,,AUTO
         1 000323   200152 630500                    EPPR0   FMTV1,,AUTO
         1 000324   200224 450500                    STP0    HDRV+36,,AUTO
         1 000325   200224 630500                    EPPR0   HDRV+36,,AUTO
         1 000326   000000 220000 xsym               LDX0    DAF$WRITE
         1 000327   000026 631400 xsym               EPPR1   B_VECTNIL+22
         1 000330   000000 701010                    TSX1    0,X0
         1 000331   000000 011000                    NOP     0

      113      744    2                VECTOR(OTAB),VECTOR(X2),
      114      745    2                VECTOR(MBASE),VECTOR(ATAB),
      115      746    2                VECTOR(X3),AVEC);
      116      747    2              WX=WX+WPL;

    747  1 000332   200142 236100                    LDQ     WX,,AUTO
         1 000333   200115 036100                    ADLQ    WPL,,AUTO
         1 000334   200142 756100                    STQ     WX,,AUTO

      117      748    2              MEM$=PINCRC(MEM$,X2*WDSZ);

    748  1 000335   200113 236100                    LDQ     X2,,AUTO
         1 000336   200121 402100                    MPY     WDSZ,,AUTO
PL6.E3A0      #001=DBB$HEXDUMP File=DBB$HEXDUMP.:E05TSI                          TUE 07/29/97 12:58 Page:21
         1 000337   000020 736000                    QLS     16
         1 000340   200117 036100                    ADLQ    MEM$,,AUTO
         1 000341   200117 756100                    STQ     MEM$,,AUTO

      118      749    2              END;

      119      750    1           CSIZE=WPL*WDSZ;

    750  1 000342   200115 236100                    LDQ     WPL,,AUTO
         1 000343   200121 402100                    MPY     WDSZ,,AUTO
         1 000344   200120 756100                    STQ     CSIZE,,AUTO

      120      751    1           IF AFLG~=0 THEN AVEC=VECTOR(ABASE);

    751  1 000345   200111 235100                    LDA     AFLG,,AUTO
         1 000346   000355 600000 1                  TZE     s:752

    751  1 000347   200120 235100                    LDA     CSIZE,,AUTO
         1 000350   000020 735000                    ALS     16
         1 000351   000140 135007                    SBLA    96,DL
         1 000352   200116 236100                    LDQ     ASC$,,AUTO
         1 000353   200143 755100                    STA     AVEC,,AUTO
         1 000354   200144 756100                    STQ     AVEC+1,,AUTO

      121      752    1           X3=WPL*AFLG;

    752  1 000355   200115 236100                    LDQ     WPL,,AUTO
         1 000356   200111 402100                    MPY     AFLG,,AUTO
         1 000357   200114 756100                    STQ     X3,,AUTO

      122      753    2           DO WHILE((OFFSET+NWRDS)-WX>=WPL);

    753  1 000360   000473 710000 1                  TRA     s:762

      123      754    2              DAB_LASTLINE=((OFFSET+NWRDS)-WX)=WPL;

    754  1 000361   200005 470500                    LDP0    @OFFSET,,AUTO
PL6.E3A0      #001=DBB$HEXDUMP File=DBB$HEXDUMP.:E05TSI                          TUE 07/29/97 12:58 Page:22
         1 000362   200004 471500                    LDP1    @NWRDS,,AUTO
         1 000363   000000 236100                    LDQ     0,,PR0
         1 000364   100000 036100                    ADLQ    0,,PR1
         1 000365   200142 136100                    SBLQ    WX,,AUTO
         1 000366   400000 220003                    LDX0    -131072,DU
         1 000367   200115 116100                    CMPQ    WPL,,AUTO
         1 000370   000372 600000 1                  TZE     s:754+9
         1 000371   000000 220003                    LDX0    0,DU
         1 000372   000000 636010                    EAQ     0,X0
         1 000373   000000 756000 xsym               STQ     DAB_LASTLINE

      124      755    2              IF AFLG~=0 THEN

    755  1 000374   200111 235100                    LDA     AFLG,,AUTO
         1 000375   000406 600000 1                  TZE     s:757

      125      756    2                 CALL XLATE(ABASE,XTAB,MBASE);

    756  1 000376   200117 473500                    LDP3    MEM$,,AUTO
         1 000377   200120 720100                    LXL0    CSIZE,,AUTO
         1 000400   200006 474500                    LDP4    @XTAB,,AUTO
         1 000401   200116 475500                    LDP5    ASC$,,AUTO
         1 000402   040140 160540                    MVT     fill='040'O
         1 000403   300000 000010                    ADSC9   0,,PR3                   cn=0,n=*X0
         1 000404   500000 000010                    ADSC9   0,,PR5                   cn=0,n=*X0
         1 000405   400000 000100                    ARG     0,,PR4

      126      757    2                 CALL DAF$WRITE(FMTV2,VECTOR(WX),

    757  1 000406   777640 235007                    LDA     -96,DL
         1 000407   200162 452500                    STP2    HDRV+2,,AUTO
         1 000410   200162 236100                    LDQ     HDRV+2,,AUTO
         1 000411   000142 036003                    ADLQ    98,DU
         1 000412   200164 757100                    STAQ    HDRV+4,,AUTO
         1 000413   777640 235007                    LDA     -96,DL
         1 000414   200166 452500                    STP2    HDRV+6,,AUTO
         1 000415   200166 236100                    LDQ     HDRV+6,,AUTO
PL6.E3A0      #001=DBB$HEXDUMP File=DBB$HEXDUMP.:E05TSI                          TUE 07/29/97 12:58 Page:23
         1 000416   000115 036003                    ADLQ    77,DU
         1 000417   200170 757100                    STAQ    HDRV+8,,AUTO
         1 000420   200120 235100                    LDA     CSIZE,,AUTO
         1 000421   000020 735000                    ALS     16
         1 000422   000140 135007                    SBLA    96,DL
         1 000423   200117 236100                    LDQ     MEM$,,AUTO
         1 000424   200172 757100                    STAQ    HDRV+10,,AUTO
         1 000425   777640 235007                    LDA     -96,DL
         1 000426   200174 452500                    STP2    HDRV+12,,AUTO
         1 000427   200174 236100                    LDQ     HDRV+12,,AUTO
         1 000430   000114 036003                    ADLQ    76,DU
         1 000431   200200 757100                    STAQ    HDRV+16,,AUTO
         1 000432   200164 237100                    LDAQ    HDRV+4,,AUTO
         1 000433   200176 757100                    STAQ    HDRV+14,,AUTO
         1 000434   200170 237100                    LDAQ    HDRV+8,,AUTO
         1 000435   200202 757100                    STAQ    HDRV+18,,AUTO
         1 000436   200172 237100                    LDAQ    HDRV+10,,AUTO
         1 000437   200204 757100                    STAQ    HDRV+20,,AUTO
         1 000440   200200 237100                    LDAQ    HDRV+16,,AUTO
         1 000441   200206 757100                    STAQ    HDRV+22,,AUTO
         1 000442   200143 633500                    EPPR3   AVEC,,AUTO
         1 000443   200215 453500                    STP3    HDRV+29,,AUTO
         1 000444   200206 634500                    EPPR4   HDRV+22,,AUTO
         1 000445   200214 454500                    STP4    HDRV+28,,AUTO
         1 000446   200204 635500                    EPPR5   HDRV+20,,AUTO
         1 000447   200213 455500                    STP5    HDRV+27,,AUTO
         1 000450   200202 636500                    EPPR6   HDRV+18,,AUTO
         1 000451   200212 456500                    STP6    HDRV+26,,AUTO
         1 000452   200176 637500                    EPPR7   HDRV+14,,AUTO
         1 000453   200211 457500                    STP7    HDRV+25,,AUTO
         1 000454   200154 630500                    EPPR0   FMTV2,,AUTO
         1 000455   200210 450500                    STP0    HDRV+24,,AUTO
         1 000456   200210 630500                    EPPR0   HDRV+24,,AUTO
         1 000457   000000 220000 xsym               LDX0    DAF$WRITE
         1 000460   000024 631400 xsym               EPPR1   B_VECTNIL+20
         1 000461   000000 701010                    TSX1    0,X0
         1 000462   000000 011000                    NOP     0
PL6.E3A0      #001=DBB$HEXDUMP File=DBB$HEXDUMP.:E05TSI                          TUE 07/29/97 12:58 Page:24

      127      758    2                   VECTOR(WPL),VECTOR(MBASE),
      128      759    2                   VECTOR(X3),AVEC);
      129      760    2              MEM$=PINCRC(MEM$,WPL*WDSZ);

    760  1 000463   200115 236100                    LDQ     WPL,,AUTO
         1 000464   200121 402100                    MPY     WDSZ,,AUTO
         1 000465   000020 736000                    QLS     16
         1 000466   200117 036100                    ADLQ    MEM$,,AUTO
         1 000467   200117 756100                    STQ     MEM$,,AUTO

      130      761    2              WX=WX+WPL;

    761  1 000470   200142 236100                    LDQ     WX,,AUTO
         1 000471   200115 036100                    ADLQ    WPL,,AUTO
         1 000472   200142 756100                    STQ     WX,,AUTO

      131      762    2              END;

    762  1 000473   200005 470500                    LDP0    @OFFSET,,AUTO
         1 000474   200004 471500                    LDP1    @NWRDS,,AUTO
         1 000475   000000 236100                    LDQ     0,,PR0
         1 000476   100000 036100                    ADLQ    0,,PR1
         1 000477   200142 136100                    SBLQ    WX,,AUTO
         1 000500   200115 116100                    CMPQ    WPL,,AUTO
         1 000501   000361 605000 1                  TPL     s:754

      132      763    1           X1=(OFFSET+NWRDS)-WX;

    763  1 000502   000000 236100                    LDQ     0,,PR0
         1 000503   100000 036100                    ADLQ    0,,PR1
         1 000504   200142 136100                    SBLQ    WX,,AUTO
         1 000505   200112 756100                    STQ     X1,,AUTO

      133      764    2           IF X1>0 THEN DO;

    764  1 000506   000630 604400 1                  TMOZ    s:777
PL6.E3A0      #001=DBB$HEXDUMP File=DBB$HEXDUMP.:E05TSI                          TUE 07/29/97 12:58 Page:25

      134      765    2              CSIZE=X1*WDSZ;

    765  1 000507   200121 402100                    MPY     WDSZ,,AUTO
         1 000510   200120 756100                    STQ     CSIZE,,AUTO

      135      766    2              X3=X1*AFLG;

    766  1 000511   200112 236100                    LDQ     X1,,AUTO
         1 000512   200111 402100                    MPY     AFLG,,AUTO
         1 000513   200114 756100                    STQ     X3,,AUTO

      136      767    2              ATAB=10+(1+2*WDSZ)*WPL;

    767  1 000514   200121 236100                    LDQ     WDSZ,,AUTO
         1 000515   000001 736000                    QLS     1
         1 000516   000001 036007                    ADLQ    1,DL
         1 000517   200115 402100                    MPY     WPL,,AUTO
         1 000520   000012 036007                    ADLQ    10,DL
         1 000521   200151 756100                    STQ     ATAB,,AUTO

      137      768    3              IF AFLG~=0 THEN DO;

    768  1 000522   200111 235100                    LDA     AFLG,,AUTO
         1 000523   000542 600000 1                  TZE     s:772

      138      769    3                 CALL XLATE(ABASE,XTAB,MBASE);

    769  1 000524   200117 473500                    LDP3    MEM$,,AUTO
         1 000525   200120 720100                    LXL0    CSIZE,,AUTO
         1 000526   200006 474500                    LDP4    @XTAB,,AUTO
         1 000527   200116 475500                    LDP5    ASC$,,AUTO
         1 000530   040140 160540                    MVT     fill='040'O
         1 000531   300000 000010                    ADSC9   0,,PR3                   cn=0,n=*X0
         1 000532   500000 000010                    ADSC9   0,,PR5                   cn=0,n=*X0
         1 000533   400000 000100                    ARG     0,,PR4

PL6.E3A0      #001=DBB$HEXDUMP File=DBB$HEXDUMP.:E05TSI                          TUE 07/29/97 12:58 Page:26
      139      770    3                 AVEC=VECTOR(ABASE);

    770  1 000534   200120 236100                    LDQ     CSIZE,,AUTO
         1 000535   000064 737000                    LLS     52
         1 000536   000140 135007                    SBLA    96,DL
         1 000537   200116 236100                    LDQ     ASC$,,AUTO
         1 000540   200143 755100                    STA     AVEC,,AUTO
         1 000541   200144 756100                    STQ     AVEC+1,,AUTO

      140      771    3                 END;

      141      772    2              CALL DAF$WRITE(FMTV3,VECTOR(WX),

    772  1 000542   777640 235007                    LDA     -96,DL
         1 000543   200162 452500                    STP2    HDRV+2,,AUTO
         1 000544   200162 236100                    LDQ     HDRV+2,,AUTO
         1 000545   000142 036003                    ADLQ    98,DU
         1 000546   200164 757100                    STAQ    HDRV+4,,AUTO
         1 000547   777640 235007                    LDA     -96,DL
         1 000550   200166 452500                    STP2    HDRV+6,,AUTO
         1 000551   200166 236100                    LDQ     HDRV+6,,AUTO
         1 000552   000112 036003                    ADLQ    74,DU
         1 000553   200170 757100                    STAQ    HDRV+8,,AUTO
         1 000554   200120 235100                    LDA     CSIZE,,AUTO
         1 000555   000020 735000                    ALS     16
         1 000556   000140 135007                    SBLA    96,DL
         1 000557   200117 236100                    LDQ     MEM$,,AUTO
         1 000560   200172 757100                    STAQ    HDRV+10,,AUTO
         1 000561   777640 235007                    LDA     -96,DL
         1 000562   200174 452500                    STP2    HDRV+12,,AUTO
         1 000563   200174 236100                    LDQ     HDRV+12,,AUTO
         1 000564   000151 036003                    ADLQ    105,DU
         1 000565   200176 757100                    STAQ    HDRV+14,,AUTO
         1 000566   777640 235007                    LDA     -96,DL
         1 000567   200200 452500                    STP2    HDRV+16,,AUTO
         1 000570   200200 236100                    LDQ     HDRV+16,,AUTO
         1 000571   000114 036003                    ADLQ    76,DU
PL6.E3A0      #001=DBB$HEXDUMP File=DBB$HEXDUMP.:E05TSI                          TUE 07/29/97 12:58 Page:27
         1 000572   200204 757100                    STAQ    HDRV+20,,AUTO
         1 000573   200164 237100                    LDAQ    HDRV+4,,AUTO
         1 000574   200202 757100                    STAQ    HDRV+18,,AUTO
         1 000575   200170 237100                    LDAQ    HDRV+8,,AUTO
         1 000576   200206 757100                    STAQ    HDRV+22,,AUTO
         1 000577   200172 237100                    LDAQ    HDRV+10,,AUTO
         1 000600   200210 757100                    STAQ    HDRV+24,,AUTO
         1 000601   200176 237100                    LDAQ    HDRV+14,,AUTO
         1 000602   200212 757100                    STAQ    HDRV+26,,AUTO
         1 000603   200204 237100                    LDAQ    HDRV+20,,AUTO
         1 000604   200214 757100                    STAQ    HDRV+28,,AUTO
         1 000605   200143 633500                    EPPR3   AVEC,,AUTO
         1 000606   200224 453500                    STP3    HDRV+36,,AUTO
         1 000607   200214 634500                    EPPR4   HDRV+28,,AUTO
         1 000610   200223 454500                    STP4    HDRV+35,,AUTO
         1 000611   200212 635500                    EPPR5   HDRV+26,,AUTO
         1 000612   200222 455500                    STP5    HDRV+34,,AUTO
         1 000613   200210 636500                    EPPR6   HDRV+24,,AUTO
         1 000614   200221 456500                    STP6    HDRV+33,,AUTO
         1 000615   200206 637500                    EPPR7   HDRV+22,,AUTO
         1 000616   200220 457500                    STP7    HDRV+32,,AUTO
         1 000617   200202 630500                    EPPR0   HDRV+18,,AUTO
         1 000620   200217 450500                    STP0    HDRV+31,,AUTO
         1 000621   200156 630500                    EPPR0   FMTV3,,AUTO
         1 000622   200216 450500                    STP0    HDRV+30,,AUTO
         1 000623   200216 630500                    EPPR0   HDRV+30,,AUTO
         1 000624   000000 220000 xsym               LDX0    DAF$WRITE
         1 000625   000025 631400 xsym               EPPR1   B_VECTNIL+21
         1 000626   000000 701010                    TSX1    0,X0
         1 000627   000000 011000                    NOP     0

      142      773    2                VECTOR(X1),VECTOR(MBASE),
      143      774    2                VECTOR(ATAB),VECTOR(X3),
      144      775    2                AVEC);
      145      776    2              END;

      146      777    1           DA_TRTN=TRTN;
PL6.E3A0      #001=DBB$HEXDUMP File=DBB$HEXDUMP.:E05TSI                          TUE 07/29/97 12:58 Page:28

    777  1 000630   200146 237100                    LDAQ    TRTN,,AUTO
         1 000631   000000 757000 xsym               STAQ    DA_TRTN

      147      778    1           DA_FDS.BUF_.BUF$=BUF1$;

    778  1 000632   200107 236100                    LDQ     BUF1$,,AUTO
         1 000633   000006 756000 xsym               STQ     DA_FDS+6

      148      779    1           DA_FDS.OUTPUT#=OUTPUT;

    779  1 000634   200110 236100                    LDQ     OUTPUT,,AUTO
         1 000635   000014 756000 xsym               STQ     DA_FDS+12

      149      780    1           RETURN;

    780  1 000636   000000 702200 xent               TSX2  ! X66_ARET

      150      781    1   FINI:   DA_TRTN=TRTN;

    781  1 000637   200146 237100       FINI         LDAQ    TRTN,,AUTO
         1 000640   000000 757000 xsym               STAQ    DA_TRTN

      151      782    1           DA_FDS.BUF_.BUF$=BUF1$;

    782  1 000641   200107 236100                    LDQ     BUF1$,,AUTO
         1 000642   000006 756000 xsym               STQ     DA_FDS+6

      152      783    1           DA_FDS.OUTPUT#=OUTPUT;

    783  1 000643   200110 236100                    LDQ     OUTPUT,,AUTO
         1 000644   000014 756000 xsym               STQ     DA_FDS+12

      153      784    1           UNWIND TO DA_TRTN;

    784  1 000645   000000 237200 xsym               LDAQ  ! DA_TRTN
         1 000646   000000 700200 xent               TSX0  ! X66_AUNWIND
PL6.E3A0      #001=DBB$HEXDUMP File=DBB$HEXDUMP.:E05TSI                          TUE 07/29/97 12:58 Page:29
         1 000647   000000 000200                    ZERO    0,128
      154      785    1   END DBB$HEXDUMP;

PL6.E3A0      #001=DBB$HEXDUMP File=DBB$HEXDUMP.:E05TSI                          TUE 07/29/97 12:58 Page:30
--  Include file information  --

   XU_FORMAT_C.:E05TOU  is referenced.
   DA_MAP_R.:E05TOU  cannot be made into a system file and is referenced.
   DA_FORMAT_C.:E05TOU  is referenced.
   DA_FORMAT_R.:E05TOU  cannot be made into a system file and is referenced.
   DA_ANLZ_R.:E05TOU  cannot be made into a system file and is referenced.
      No diagnostics issued in procedure DBB$HEXDUMP.
PL6.E3A0      #001=DBB$HEXDUMP File=DBB$HEXDUMP.:E05TSI                          TUE 07/29/97 12:58 Page:31

 **** Variables and constants ****

  ****  Section 000 RoData DBB$HEXDUMP

  ****  Scalars and arrays  ****
OctLoc.c.b A Datatyp(siz) R M Lvl/name                 OctLoc.c.b A Datatyp(siz) R M Lvl/name

    26-0-0/c CHAR(31)    r     1 FMT1                      36-0-0/c CHAR(28)    r     1 FMT2
    45-0-0/c CHAR(30)    r     1 FMT3                      73-0-0/c CHAR(30)    r     1 FMTB1
   103-0-0/c CHAR(27)    r     1 FMTB2                    112-0-0/c CHAR(29)    r     1 FMTB3
    55-0-0/c CHAR(55)    r     1 HDRB                       0-0-0/c CHAR(87)    r     1 HDRW

  ****  Auto variables  ****

  ****  Scalars and arrays  ****
OctLoc.c.b A Datatyp(siz) R M Lvl/name                 OctLoc.c.b A Datatyp(siz) R M Lvl/name

     3-0-0/w PTR         r     1 @MEM                       4-0-0/w PTR         r     1 @NWRDS
     5-0-0/w PTR         r     1 @OFFSET                    6-0-0/w PTR         r     1 @XTAB
   111-0-0/w SBIN        r     1 AFLG                     116-0-0/w PTR         r     1 ASC$
   122-0-0/c CHAR(64)    r     1 ASCII                    151-0-0/w SBIN        r     1 ATAB
   143-0-0/b BIT (72)    r     1 AVEC                     107-0-0/w PTR         r     1 BUF1$
     7-0-0/c CHAR(256)   r     1 BUF2                     120-0-0/w SBIN        r     1 CSIZE
   152-0-0/d VECT        r     1 FMTV1                    154-0-0/d VECT        r     1 FMTV2
   156-0-0/d VECT        r     1 FMTV3                    160-0-0/d VECT        r     1 HDRV
    *0-0-0/w SBIN        r     1 MEM                      117-0-0/w PTR         r     1 MEM$
    *0-0-0/w SBIN        r     1 NWRDS                     *0-0-0/w SBIN        r     1 OFFSET
   150-0-0/w SBIN        r     1 OTAB                     110-0-0/w EPTR        r     1 OUTPUT
   146-0-0/d REMB        r     1 TRTN                     121-0-0/w SBIN        r     1 WDSZ
   115-0-0/w SBIN        r     1 WPL                      142-0-0/w SBIN        r     1 WX
   112-0-0/w SBIN        r     1 X1                       113-0-0/w SBIN        r     1 X2
   114-0-0/w SBIN        r     1 X3                        *0-0-0/w CHAR(512)   r     1 XTAB

  ****  SYMREF variables  ****

  ****  Scalars and arrays  ****
OctLoc.c.b A Datatyp(siz) R M Lvl/name                 OctLoc.c.b A Datatyp(siz) R M Lvl/name
PL6.E3A0      #001=DBB$HEXDUMP File=DBB$HEXDUMP.:E05TSI                          TUE 07/29/97 12:58 Page:32

     0-0-0/w PTR         r     1 DAB_BUF2$                  0-0-0/w BIT         r     1 DAB_LASTLINE
     0-0-0/c CHAR        r     1 DAB_STAR                   0-0-0/w EPTR        r     1 DAF$WRITE
     0-0-0/w STRC(1080)  r     1 DA_FDS                     0-0-0/w PTR         r     1 DA_REPORT$
     0-0-0/d REMB        r     1 DA_TRTN

  ****  BASED and DCB variables  ****

  ****  Scalars and arrays  ****
OctLoc.c.b A Datatyp(siz) R M Lvl/name                 OctLoc.c.b A Datatyp(siz) R M Lvl/name

     0-0-0/c ACHR        r     1 ABASE                      0-0-0/c ACHR        r     1 MBASE
     0-0-0/w STRC(288)   r     1 REPORT


   Procedure DBB$HEXDUMP requires 424 words for executable code.
   Procedure DBB$HEXDUMP requires 156 words of local(AUTO) storage.

    No errors detected in file DBB$HEXDUMP.:E05TSI    .
PL6.E3A0      #001=DBB$HEXDUMP File=DBB$HEXDUMP.:E05TSI                          TUE 07/29/97 12:58 Page:33
          *** CROSS REFERENCE LISTING ***
**     DENOTES     IDENTIFIER DEFINITION
<<                 IDENTIFIER'S VALUE SET
>>                 IDENTIFIER'S VALUE USED
<>                 IDENTIFIER SET AND/OR USED
--                 IDENTIFIER REFERENCED
PL6.E3A0      #001=DBB$HEXDUMP File=DBB$HEXDUMP.:E05TSI                          TUE 07/29/97 12:58 Page:34
          MINI XREF LISTING

ABASE
       673**DCL       739<<CALLBLT   740--ASSIGN    751--ASSIGN    756<<CALLBLT   769<<CALLBLT   770--ASSIGN
AFLG
       662**DCL       718<<ASSIGN    719>>ASSIGN    719>>ASSIGN    738>>IF        742>>ASSIGN    751>>IF
       752>>ASSIGN    755>>IF        766>>ASSIGN    768>>IF
ASC$
       667**DCL       673--IMP-PTR   727<<ASSIGN    739>>CALLBLT   740>>ASSIGN    751>>ASSIGN    756>>CALLBLT
       769>>CALLBLT   770>>ASSIGN
ASCII
       671**DCL       727--ASSIGN
ATAB
       678**DCL       737<<ASSIGN    743--CALL      767<<ASSIGN    772--CALL
AVEC
       675**DCL       729<<ASSIGN    740<<ASSIGN    743<>CALL      751<<ASSIGN    757<>CALL      770<<ASSIGN
       772<>CALL
BUF1$
       660**DCL       712<<ASSIGN    778>>ASSIGN    782>>ASSIGN
BUF2
       659**DCL       710--ASSIGN    711<<ASSIGN
CSIZE
       669**DCL       672--IMP-SIZ   673--IMP-SIZ   735<<ASSIGN    739>>CALLBLT   739>>CALLBLT   740>>ASSIGN
       743>>CALL      750<<ASSIGN    751>>ASSIGN    756>>CALLBLT   756>>CALLBLT   757>>CALL      765<<ASSIGN
       769>>CALLBLT   769>>CALLBLT   770>>ASSIGN    772>>CALL
DAB$OUTPUT
        14**DCL-ENT   717--ASSIGN
DAB_BUF2$
       655**DCL       710<<ASSIGN
DAB_LASTLINE
       657**DCL       754<<ASSIGN
DAB_STAR
       656**DCL       715<<ASSIGN
DAF$WRITE
PL6.E3A0      #001=DBB$HEXDUMP File=DBB$HEXDUMP.:E05TSI                          TUE 07/29/97 12:58 Page:35
        13**DCL       726>>CALL      743>>CALL      757>>CALL      772>>CALL
DA_FDS.BUF_.BUF$
       575**DCL       712>>ASSIGN    778<<ASSIGN    782<<ASSIGN
DA_FDS.OUTPUT#
       609**DCL       716>>ASSIGN    717<<ASSIGN    779<<ASSIGN    783<<ASSIGN
DA_FMTSEG.P
        38**DCL        38--REDEF
DA_MAPSEG.P
       308**DCL       309--REDEF
DA_REPORT$
        37**DCL       330--IMP-PTR   719>>ASSIGN
DA_SDASN.DESC.TYPE0
       293**DCL       293--REDEF
DA_TIGRSEG.P
       309**DCL       310--REDEF
DA_TRTN
       312**DCL       713>>ASSIGN    714<<REMEMBR   777<<ASSIGN    781<<ASSIGN    784>>UNWIND
DMP_CMN
       710**LABEL     700--GOTO
FINI
       781**LABEL     714--REMEMBR
FMT1
       685**DCL       696--ASSIGN
FMT2
       686**DCL       697--ASSIGN
FMT3
       687**DCL       698--ASSIGN
FMTB1
       690**DCL       704--ASSIGN
FMTB2
       691**DCL       705--ASSIGN
FMTB3
       692**DCL       706--ASSIGN
FMTV1
       679**DCL       696<<ASSIGN    704<<ASSIGN    743<>CALL
FMTV2
PL6.E3A0      #001=DBB$HEXDUMP File=DBB$HEXDUMP.:E05TSI                          TUE 07/29/97 12:58 Page:36
       680**DCL       697<<ASSIGN    705<<ASSIGN    757<>CALL
FMTV3
       681**DCL       698<<ASSIGN    706<<ASSIGN    772<>CALL
HDRB
       689**DCL       707--ASSIGN
HDRV
       682**DCL       699<<ASSIGN    707<<ASSIGN    725<<ASSIGN    726<>CALL
HDRW
       684**DCL       699--ASSIGN
MBASE
       672**DCL       739>>CALLBLT   743--CALL      756>>CALLBLT   757--CALL      769>>CALLBLT   772--CALL
MEM
         8**DCL         7--PROC      702--ENTRY     728--ASSIGN
MEM$
       668**DCL       672--IMP-PTR   728<<ASSIGN    739>>CALLBLT   743>>CALL      748<<ASSIGN    748>>ASSIGN
       756>>CALLBLT   757>>CALL      760<<ASSIGN    760>>ASSIGN    769>>CALLBLT   772>>CALL
NWRDS
         9**DCL         7--PROC      702--ENTRY     734>>IF        734>>ASSIGN    753>>DOWHILE   754>>ASSIGN
       763>>ASSIGN
OFFSET
        10**DCL         7--PROC      702--ENTRY     730>>ASSIGN    731>>ASSIGN    753>>DOWHILE   754>>ASSIGN
       763>>ASSIGN
OTAB
       677**DCL       736<<ASSIGN    743--CALL
OUTPUT
       661**DCL       716<<ASSIGN    779>>ASSIGN    783>>ASSIGN
REPORT.PAGEWID.N
       346**DCL       719>>ASSIGN
TRTN
       676**DCL       713<<ASSIGN    777>>ASSIGN    781>>ASSIGN
WDSZ
       670**DCL       695<<ASSIGN    703<<ASSIGN    719>>ASSIGN    725>>ASSIGN    735>>ASSIGN    736>>ASSIGN
       737>>ASSIGN    737>>ASSIGN    748>>ASSIGN    750>>ASSIGN    760>>ASSIGN    765>>ASSIGN    767>>ASSIGN
WPL
       666**DCL       720<<ASSIGN    721>>DOWHILE   722<<ASSIGN    722>>ASSIGN    725>>ASSIGN    730>>ASSIGN
       733>>ASSIGN    737>>ASSIGN    747>>ASSIGN    750>>ASSIGN    752>>ASSIGN    753>>DOWHILE   754>>ASSIGN
PL6.E3A0      #001=DBB$HEXDUMP File=DBB$HEXDUMP.:E05TSI                          TUE 07/29/97 12:58 Page:37
       757--CALL      760>>ASSIGN    761>>ASSIGN    767>>ASSIGN
WX
       674**DCL       731<<ASSIGN    743--CALL      747<<ASSIGN    747>>ASSIGN    753>>DOWHILE   754>>ASSIGN
       757--CALL      761<<ASSIGN    761>>ASSIGN    763>>ASSIGN    772--CALL
X1
       663**DCL       719<<ASSIGN    721>>DOWHILE   723<<ASSIGN    723>>ASSIGN    730<<ASSIGN    731>>ASSIGN
       732>>IF        733>>ASSIGN    736>>ASSIGN    737>>ASSIGN    763<<ASSIGN    764>>IF        765>>ASSIGN
       766>>ASSIGN    772--CALL
X2
       664**DCL       733<<ASSIGN    734>>IF        734<<ASSIGN    735>>ASSIGN    742>>ASSIGN    743--CALL
       748>>ASSIGN
X3
       665**DCL       742<<ASSIGN    743--CALL      752<<ASSIGN    757--CALL      766<<ASSIGN    772--CALL
XTAB
        11**DCL         7--PROC      702--ENTRY     718--ASSIGN    739>>CALLBLT   756>>CALLBLT   769>>CALLBLT
