VERSION E05

PL6.E3A0      #001=DBD$BOBCAT File=DBD$BOBCAT.:E05TSI                            TUE 07/29/97 12:59 Page:1
        1        1        /*M* DBD$BOBCAT - Display Bobcat Data */
        2        2        /*T***********************************************************/
        3        3        /*T*                                                         */
        4        4        /*T* Copyright (c) Bull HN Information Systems Inc., 1997    */
        5        5        /*T*                                                         */
        6        6        /*T***********************************************************/
        7        7        DBD$BOBCAT: PROC;
        8        8
        9        9        %INCLUDE G$BOBCAT_M;
       10       29        %INCLUDE DA_FORMAT_C;
       11      271
       12      272    1   DCL DAF$WRITE EPTR SYMREF;
       13      273    1   DCL DAF$INIT ENTRY(1) ALTRET;
       14      274    1   DCL DBM$GETBOBCAT ENTRY(1) ALTRET;
       15      275    1   DCL DBM$PACK2 ENTRY(2);
       16      276    1   DCL DBM$PACK4 ENTRY(2);
       17      277
       18      278        %REPORT (NAME=BOBRPT,TRUNC=YES,TABDFLT=19,HEADER=NO,TITLE='Bobcat Data');
       19      344
       20      345        %G$BOBCAT (FPTN=G$BOBCAT,STCLASS=AUTO);
       21      358
       22      359    1   DCL FEP# UBIN;
       23      360    1   DCL HOST# UBIN;
       24      361    1   DCL TYPE# UBIN;
       25      362    1   DCL TYPE CHAR(4);
       26      363
       27      364    1   DCL 1 BOBC CONSTANT,
       28      365    1      2 * CHAR(0) INIT('%/Fep#: %D%-%19R'),
       29      366    1      2 * CHAR(0) INIT('Node name: %>A%-%19R'),
       30      367    1      2 * CHAR(0) INIT('Host#: %D%-%19R'),
       31      368    1      2 * CHAR(0) INIT('DPS8000: %>A%-%19R'),
       32      369    1      2 * CHAR(0) INIT('Mon fid: %>A%/');
       33      370
       34      371    1   DCL 1 BOB ALIGNED,
       35      372    1         2 USRT$ UBIN,
       36      373    1         2 MUIS UBIN,
       37      374    1         2 ROUTE$$ UBIN,
PL6.E3A0      #001=DBD$BOBCAT File=DBD$BOBCAT.:E05TSI                            TUE 07/29/97 12:59 Page:2
       38      375    1         2 NODES UBIN,
       39      376    1         2 DOLIST$ UBIN,
       40      377    1         2 MUIS2 UBIN,
       41      378    1         2 ROUTE$ UBIN,
       42      379    1         2 NODES2 UBIN,
       43      380    1         2 DCT$$ UBIN,
       44      381    1         2 LDCT# UBIN,
       45      382    1         2 LINK$$ UBIN,
       46      383    1         2 LINKS UBIN,
       47      384    1         2 LDCT$ UBIN,
       48      385    1         2 LDCT2# UBIN,
       49      386    1         2 LINK$ UBIN,
       50      387    1         2 LINK2 UBIN,
       51      388    1         2 IOP$ UBIN,
       52      389    1         2 IOP# UBIN,
       53      390    1         2 OSI$$ UBIN,
       54      391    1         2 OSI# UBIN,
       55      392    1         2 HMI$ UBIN,
       56      393    1         2 HMI# UBIN,
       57      394    1         2 OSI$ UBIN,
       58      395    1         2 OSI2# UBIN,
       59      396    1         2 SSN$ UBIN,
       60      397    1         2 SSN# UBIN,
       61      398    1         2 CHNLOW$ UBIN,
       62      399    1         2 CHNLOW UBIN,
       63      400    1         2 SFILE$ UBIN,
       64      401    1         2 SFILE# UBIN,
       65      402    1         2 CHNHI$ UBIN,
       66      403    1         2 CHNHI UBIN,
       67      404    1         2 ACCTRES$ UBIN,
       68      405    1         2 ACCTRES# UBIN,
       69      406    1         2 CHNFREE$ UBIN,
       70      407    1         2 DEVICES UBIN,
       71      408    1         2 TCTX$$ UBIN,
       72      409    1         2 TCTX# UBIN,
       73      410    1         2 UNUSED$ UBIN,
       74      411    1         2 UNUSED# UBIN,
PL6.E3A0      #001=DBD$BOBCAT File=DBD$BOBCAT.:E05TSI                            TUE 07/29/97 12:59 Page:3
       75      412    1         2 TCTX$ UBIN,
       76      413    1         2 TCTX2# UBIN;
       77      414
       78      415
       79      416    1   DCL 1 BOBFMT CONSTANT,
       80      417    1         2 * CHAR(0) INIT('USRT$:    .%H%-%19R'),
       81      418    1         2 * CHAR(0) INIT('MUIS:      %D%-%19R'),
       82      419    1         2 * CHAR(0) INIT('ROUTE$$:  .%H%-%19R'),
       83      420    1         2 * CHAR(0) INIT('Nodes:     %D%-%19R'),
       84      421    1         2 * CHAR(0) INIT('DOLIST$:  .%H%-%19R'),
       85      422    1         2 * CHAR(0) INIT('MUIS:      %D%-%19R'),
       86      423    1         2 * CHAR(0) INIT('ROUTE$:   .%H%-%19R'),
       87      424    1         2 * CHAR(0) INIT('Nodes:     %D%-%19R'),
       88      425    1         2 * CHAR(0) INIT('LDCT$$:   .%H%-%19R'),
       89      426    1         2 * CHAR(0) INIT('LDCT#:     %D%-%19R'),
       90      427    1         2 * CHAR(0) INIT('LINK$$:   .%H%-%19R'),
       91      428    1         2 * CHAR(0) INIT('LINK#:     %D%-%19R'),
       92      429    1         2 * CHAR(0) INIT('LDCT$:    .%H%-%19R'),
       93      430    1         2 * CHAR(0) INIT('LDCT#:     %D%-%19R'),
       94      431    1         2 * CHAR(0) INIT('LINK$:    .%H%-%19R'),
       95      432    1         2 * CHAR(0) INIT('LINK#:     %D%-%19R'),
       96      433    1         2 * CHAR(0) INIT('IOP$:     .%H%-%19R'),
       97      434    1         2 * CHAR(0) INIT('IOP#:      %D%-%19R'),
       98      435    1         2 * CHAR(0) INIT('OSI$$:    .%H%-%19R'),
       99      436    1         2 * CHAR(0) INIT('OSI_RTE#:  %D%-%19R'),
      100      437    1         2 * CHAR(0) INIT('HMI$:     .%H%-%19R'),
      101      438    1         2 * CHAR(0) INIT('HMI#:      %D%-%19R'),
      102      439    1         2 * CHAR(0) INIT('OSI$:     .%H%-%19R'),
      103      440    1         2 * CHAR(0) INIT('OSI_RTE#:  %D%-%19R'),
      104      441    1         2 * CHAR(0) INIT('SSN$:     .%H%-%19R'),
      105      442    1         2 * CHAR(0) INIT('SSN#:      %D%-%19R'),
      106      443    1         2 * CHAR(0) INIT('CHNLOW$:  .%H%-%19R'),
      107      444    1         2 * CHAR(0) INIT('CHNLOW:   .%H%-%19R'),
      108      445    1         2 * CHAR(0) INIT('SFILE$:   .%H%-%19R'),
      109      446    1         2 * CHAR(0) INIT('SFILE#:    %D%-%19R'),
      110      447    1         2 * CHAR(0) INIT('CHNHI$:   .%H%-%19R'),
      111      448    1         2 * CHAR(0) INIT('CHNHI:    .%H%-%19R'),
PL6.E3A0      #001=DBD$BOBCAT File=DBD$BOBCAT.:E05TSI                            TUE 07/29/97 12:59 Page:4
      112      449    1         2 * CHAR(0) INIT('ACCTRES$: .%H%-%19R'),
      113      450    1         2 * CHAR(0) INIT('ACCTRES#:  %D%-%19R'),
      114      451    1         2 * CHAR(0) INIT('CHNFREE$: .%H%-%19R'),
      115      452    1         2 * CHAR(0) INIT('DEVICE#:   %D%-%19R'),
      116      453    1         2 * CHAR(0) INIT('TCTX$$:   .%H%-%19R'),
      117      454    1         2 * CHAR(0) INIT('TCTX#:     %D%-%19R'),
      118      455    1         2 * CHAR(0) INIT('UNUSED$:  .%H%-%19R'),
      119      456    1         2 * CHAR(0) INIT('UNUSED#:   %D%-%19R'),
      120      457    1         2 * CHAR(0) INIT('TCTX$:    .%H%-%19R'),
      121      458    1         2 * CHAR(0) INIT('TCTX#:     %D%-%19R'),
      122      459    1         2 * CHAR(0) INIT('%/');
      123      460
      124      461    2           CALL DBM$GETBOBCAT(G$BOBCAT) WHENALTRETURN DO;
      125      462    2              RETURN;
      126      463    2              END;
      127      464    1           CALL DAF$INIT(BOBRPT);
      128      465
      129      466    1           CALL DBM$PACK2(G$BOBCAT.FEP#,FEP#);
      130      467    1           CALL DBM$PACK2(G$BOBCAT.HOSTNODE,HOST#);
      131      468    1           CALL DBM$PACK2(G$BOBCAT.MUIS,BOB.MUIS);
      132      469    1           BOB.MUIS2 = BOB.MUIS;
      133      470    1           CALL DBM$PACK4(G$BOBCAT.USRT$,BOB.USRT$);
      134      471    1           CALL DBM$PACK4(G$BOBCAT.DOLIST$,BOB.DOLIST$);
      135      472    1           CALL DBM$PACK2(G$BOBCAT.SFILE#,BOB.SFILE#);
      136      473    1           CALL DBM$PACK4(G$BOBCAT.SFILE$,BOB.SFILE$);
      137      474    1           CALL DBM$PACK4(G$BOBCAT.DCT$$,BOB.DCT$$);
      138      475    1           CALL DBM$PACK2(G$BOBCAT.IOP#,BOB.IOP#);
      139      476    1           CALL DBM$PACK2(G$BOBCAT.LDCT#,BOB.LDCT#);
      140      477    1           CALL DBM$PACK4(G$BOBCAT.LDCT_START$,BOB.LDCT$);
      141      478    1           BOB.LDCT2# = BOB.LDCT#;
      142      479    1           CALL DBM$PACK2(G$BOBCAT.HMI#,BOB.HMI#);
      143      480    1           CALL DBM$PACK4(G$BOBCAT.HMI$,BOB.HMI$);
      144      481    1           CALL DBM$PACK2(G$BOBCAT.APESSN#,BOB.SSN#);
      145      482    1           CALL DBM$PACK2(G$BOBCAT.TCTX#,BOB.TCTX#);
      146      483    1           BOB.TCTX2# = BOB.TCTX#;
      147      484    1           CALL DBM$PACK4(G$BOBCAT.TCTX$,BOB.TCTX$);
      148      485    1           CALL DBM$PACK4(G$BOBCAT.TCTX$$,BOB.TCTX$$);
PL6.E3A0      #001=DBD$BOBCAT File=DBD$BOBCAT.:E05TSI                            TUE 07/29/97 12:59 Page:5
      149      486    1           CALL DBM$PACK4(G$BOBCAT.OSIROUTE$,BOB.OSI$$);
      150      487    1           CALL DBM$PACK4(G$BOBCAT.OSIROUTE_START$,BOB.OSI$);
      151      488    1           CALL DBM$PACK2(G$BOBCAT.OSIROUTE#,BOB.OSI#);
      152      489    1           BOB.OSI2# = BOB.OSI#;
      153      490    1           CALL DBM$PACK2(G$BOBCAT.NODES,BOB.NODES);
      154      491    1           BOB.NODES2 = BOB.NODES;
      155      492    1           CALL DBM$PACK2(G$BOBCAT.LINKS,BOB.LINKS);
      156      493    1           BOB.LINK2 = BOB.LINKS;
      157      494    1           CALL DBM$PACK4(G$BOBCAT.ROUTE$$,BOB.ROUTE$$);
      158      495    1           CALL DBM$PACK4(G$BOBCAT.ROUTE_START$,BOB.ROUTE$);
      159      496    1           CALL DBM$PACK4(G$BOBCAT.LINK$$,BOB.LINK$$);
      160      497    1           CALL DBM$PACK4(G$BOBCAT.LINK_START$,BOB.LINK$);
      161      498    1           CALL DBM$PACK2(G$BOBCAT.CHNLOW,BOB.CHNLOW);
      162      499    1           CALL DBM$PACK4(G$BOBCAT.CHNLOW$,BOB.CHNLOW$);
      163      500    1           CALL DBM$PACK2(G$BOBCAT.CHNHI,BOB.CHNHI);
      164      501    1           CALL DBM$PACK4(G$BOBCAT.CHNHI$,BOB.CHNHI$);
      165      502    1           CALL DBM$PACK4(G$BOBCAT.CHNFREE$,BOB.CHNFREE$);
      166      503    1           CALL DBM$PACK2(G$BOBCAT.DEVICES,BOB.DEVICES);
      167      504    1           CALL DBM$PACK2(G$BOBCAT.ACCT_RES#,BOB.ACCTRES#);
      168      505    1           CALL DBM$PACK4(G$BOBCAT.ACCT_RES$,BOB.ACCTRES$);
      169      506    1           CALL DBM$PACK4(G$BOBCAT.IOP_START$,BOB.IOP$);
      170      507    1           CALL DBM$PACK4(G$BOBCAT.SSN_START$,BOB.SSN$);
      171      508
      172      509    1           CALL DBM$PACK2(G$BOBCAT.DPS8000FLG,TYPE#);
      173      510    1           IF TYPE# = 0
      174      511    1           THEN TYPE = 'NO  ';
      175      512    1           ELSE TYPE = 'YES ';
      176      513    1           CALL DBM$PACK2(G$BOBCAT.UNUSED#,BOB.UNUSED#);
      177      514    1           CALL DBM$PACK4(G$BOBCAT.UNUSED$,BOB.UNUSED$);
      178      515
      179      516    1           CALL DAF$WRITE(VECTOR(BOBC), VECTOR(FEP#), VECTOR(G$BOBCAT.NODENAME), VECTOR
               516                    (HOST#),
      180      517    1             VECTOR(TYPE), VECTOR(G$BOBCAT.BOOTFID));
      181      518
      182      519    1           CALL DAF$WRITE(VECTOR(BOBFMT),VECTOR(BOB));
      183      520
      184      521    1           RETURN;
PL6.E3A0      #001=DBD$BOBCAT File=DBD$BOBCAT.:E05TSI                            TUE 07/29/97 12:59 Page:6
      185      522
      186      523    1   END DBD$BOBCAT;

PL6.E3A0      #001=DBD$BOBCAT File=DBD$BOBCAT.:E05TSI                            TUE 07/29/97 12:59 Page:7
--  Include file information  --

   DA_FORMAT_C.:E05TOU  is referenced.
   G$BOBCAT_M.:E05TOU  is referenced.
      No diagnostics issued in procedure DBD$BOBCAT.

   Procedure DBD$BOBCAT requires 434 words for executable code.
   Procedure DBD$BOBCAT requires 138 words of local(AUTO) storage.

    No errors detected in file DBD$BOBCAT.:E05TSI    .

PL6.E3A0      #001=DBD$BOBCAT File=DBD$BOBCAT.:E05TSI                            TUE 07/29/97 12:59 Page:8

 Object Unit name= DBD$BOBCAT                                 File name= DBD$BOBCAT.:E05TOU
 UTS= JUL 29 '97 12:59:34.00 TUE                              Compiler= PL-6/E31         Sev=      00
 SharedLib= :SHARED_SYSTEM                                    Alt SharedLib=


    ****  Control sections  ****

 Sect   Type Bound  Init  Size OctSiz  Section name(segment info)
    0   Data  even  none    11     13  DBD$BOBCAT
    1  RoData even  UTS    223    337  DBD$BOBCAT
    2   Proc  even  none   434    662  DBD$BOBCAT
    3  RoData even  none    24     30  DBD$BOBCAT

    ****  Entry defs  ****

                              Check   Calling
                             calling  sequence
  Sect OctLoc Primary Altret sequence   type   Parms  Name
     2      0   yes            yes      Std        0  DBD$BOBCAT

  ****  Entry refs  ****

         Check        Calling
        calling       sequence
Altret sequence SRef   type   Args  Name
 yes     yes           Std       1 DBM$GETBOBCAT
 yes     yes           Std       1 DAF$INIT
         yes           Std       2 DBM$PACK2
         yes           Std       2 DBM$PACK4
                       nStd      0 X66_AUTO_0
                       Std       0 B_CONSPOOL_D
                       nStd      0 X66_ARET
PL6.E3A0      #001=DBD$BOBCAT File=DBD$BOBCAT.:E05TSI                            TUE 07/29/97 12:59 Page:9

  ****  Data refs  ****

  Flags:  r = read only, s = secondary
Flgs Name                             Flgs Name                             Flgs Name
     DAF$WRITE                             B_VECTNIL

  ****  Segment refs  ****

  Flags:  r = read only, s = secondary
Flgs Name                             Flgs Name                             Flgs Name
     ISSID                                 NULLSID
PL6.E3A0      #001=DBD$BOBCAT File=DBD$BOBCAT.:E05TSI                            TUE 07/29/97 12:59 Page:10


        1        1        /*M* DBD$BOBCAT - Display Bobcat Data */
        2        2        /*T***********************************************************/
        3        3        /*T*                                                         */
        4        4        /*T* Copyright (c) Bull HN Information Systems Inc., 1997    */
        5        5        /*T*                                                         */
        6        6        /*T***********************************************************/
        7        7        DBD$BOBCAT: PROC;

      7  2 000000   000000 700200 xent  DBD$BOBCAT   TSX0  ! X66_AUTO_0
         2 000001   000212 000000                    ZERO    138,0

        8        8
        9        9        %INCLUDE G$BOBCAT_M;
       10       29        %INCLUDE DA_FORMAT_C;
       11      271
       12      272    1   DCL DAF$WRITE EPTR SYMREF;
       13      273    1   DCL DAF$INIT ENTRY(1) ALTRET;
       14      274    1   DCL DBM$GETBOBCAT ENTRY(1) ALTRET;
       15      275    1   DCL DBM$PACK2 ENTRY(2);
       16      276    1   DCL DBM$PACK4 ENTRY(2);
       17      277
       18      278        %REPORT (NAME=BOBRPT,TRUNC=YES,TABDFLT=19,HEADER=NO,TITLE='Bobcat Data');
       19      344
       20      345        %G$BOBCAT (FPTN=G$BOBCAT,STCLASS=AUTO);
       21      358
       22      359    1   DCL FEP# UBIN;
       23      360    1   DCL HOST# UBIN;
       24      361    1   DCL TYPE# UBIN;
       25      362    1   DCL TYPE CHAR(4);
       26      363
       27      364    1   DCL 1 BOBC CONSTANT,
       28      365    1      2 * CHAR(0) INIT('%/Fep#: %D%-%19R'),
       29      366    1      2 * CHAR(0) INIT('Node name: %>A%-%19R'),
       30      367    1      2 * CHAR(0) INIT('Host#: %D%-%19R'),
       31      368    1      2 * CHAR(0) INIT('DPS8000: %>A%-%19R'),
       32      369    1      2 * CHAR(0) INIT('Mon fid: %>A%/');
PL6.E3A0      #001=DBD$BOBCAT File=DBD$BOBCAT.:E05TSI                            TUE 07/29/97 12:59 Page:11
       33      370
       34      371    1   DCL 1 BOB ALIGNED,
       35      372    1         2 USRT$ UBIN,
       36      373    1         2 MUIS UBIN,
       37      374    1         2 ROUTE$$ UBIN,
       38      375    1         2 NODES UBIN,
       39      376    1         2 DOLIST$ UBIN,
       40      377    1         2 MUIS2 UBIN,
       41      378    1         2 ROUTE$ UBIN,
       42      379    1         2 NODES2 UBIN,
       43      380    1         2 DCT$$ UBIN,
       44      381    1         2 LDCT# UBIN,
       45      382    1         2 LINK$$ UBIN,
       46      383    1         2 LINKS UBIN,
       47      384    1         2 LDCT$ UBIN,
       48      385    1         2 LDCT2# UBIN,
       49      386    1         2 LINK$ UBIN,
       50      387    1         2 LINK2 UBIN,
       51      388    1         2 IOP$ UBIN,
       52      389    1         2 IOP# UBIN,
       53      390    1         2 OSI$$ UBIN,
       54      391    1         2 OSI# UBIN,
       55      392    1         2 HMI$ UBIN,
       56      393    1         2 HMI# UBIN,
       57      394    1         2 OSI$ UBIN,
       58      395    1         2 OSI2# UBIN,
       59      396    1         2 SSN$ UBIN,
       60      397    1         2 SSN# UBIN,
       61      398    1         2 CHNLOW$ UBIN,
       62      399    1         2 CHNLOW UBIN,
       63      400    1         2 SFILE$ UBIN,
       64      401    1         2 SFILE# UBIN,
       65      402    1         2 CHNHI$ UBIN,
       66      403    1         2 CHNHI UBIN,
       67      404    1         2 ACCTRES$ UBIN,
       68      405    1         2 ACCTRES# UBIN,
       69      406    1         2 CHNFREE$ UBIN,
PL6.E3A0      #001=DBD$BOBCAT File=DBD$BOBCAT.:E05TSI                            TUE 07/29/97 12:59 Page:12
       70      407    1         2 DEVICES UBIN,
       71      408    1         2 TCTX$$ UBIN,
       72      409    1         2 TCTX# UBIN,
       73      410    1         2 UNUSED$ UBIN,
       74      411    1         2 UNUSED# UBIN,
       75      412    1         2 TCTX$ UBIN,
       76      413    1         2 TCTX2# UBIN;
       77      414
       78      415
       79      416    1   DCL 1 BOBFMT CONSTANT,
       80      417    1         2 * CHAR(0) INIT('USRT$:    .%H%-%19R'),
       81      418    1         2 * CHAR(0) INIT('MUIS:      %D%-%19R'),
       82      419    1         2 * CHAR(0) INIT('ROUTE$$:  .%H%-%19R'),
       83      420    1         2 * CHAR(0) INIT('Nodes:     %D%-%19R'),
       84      421    1         2 * CHAR(0) INIT('DOLIST$:  .%H%-%19R'),
       85      422    1         2 * CHAR(0) INIT('MUIS:      %D%-%19R'),
       86      423    1         2 * CHAR(0) INIT('ROUTE$:   .%H%-%19R'),
       87      424    1         2 * CHAR(0) INIT('Nodes:     %D%-%19R'),
       88      425    1         2 * CHAR(0) INIT('LDCT$$:   .%H%-%19R'),
       89      426    1         2 * CHAR(0) INIT('LDCT#:     %D%-%19R'),
       90      427    1         2 * CHAR(0) INIT('LINK$$:   .%H%-%19R'),
       91      428    1         2 * CHAR(0) INIT('LINK#:     %D%-%19R'),
       92      429    1         2 * CHAR(0) INIT('LDCT$:    .%H%-%19R'),
       93      430    1         2 * CHAR(0) INIT('LDCT#:     %D%-%19R'),
       94      431    1         2 * CHAR(0) INIT('LINK$:    .%H%-%19R'),
       95      432    1         2 * CHAR(0) INIT('LINK#:     %D%-%19R'),
       96      433    1         2 * CHAR(0) INIT('IOP$:     .%H%-%19R'),
       97      434    1         2 * CHAR(0) INIT('IOP#:      %D%-%19R'),
       98      435    1         2 * CHAR(0) INIT('OSI$$:    .%H%-%19R'),
       99      436    1         2 * CHAR(0) INIT('OSI_RTE#:  %D%-%19R'),
      100      437    1         2 * CHAR(0) INIT('HMI$:     .%H%-%19R'),
      101      438    1         2 * CHAR(0) INIT('HMI#:      %D%-%19R'),
      102      439    1         2 * CHAR(0) INIT('OSI$:     .%H%-%19R'),
      103      440    1         2 * CHAR(0) INIT('OSI_RTE#:  %D%-%19R'),
      104      441    1         2 * CHAR(0) INIT('SSN$:     .%H%-%19R'),
      105      442    1         2 * CHAR(0) INIT('SSN#:      %D%-%19R'),
      106      443    1         2 * CHAR(0) INIT('CHNLOW$:  .%H%-%19R'),
PL6.E3A0      #001=DBD$BOBCAT File=DBD$BOBCAT.:E05TSI                            TUE 07/29/97 12:59 Page:13
      107      444    1         2 * CHAR(0) INIT('CHNLOW:   .%H%-%19R'),
      108      445    1         2 * CHAR(0) INIT('SFILE$:   .%H%-%19R'),
      109      446    1         2 * CHAR(0) INIT('SFILE#:    %D%-%19R'),
      110      447    1         2 * CHAR(0) INIT('CHNHI$:   .%H%-%19R'),
      111      448    1         2 * CHAR(0) INIT('CHNHI:    .%H%-%19R'),
      112      449    1         2 * CHAR(0) INIT('ACCTRES$: .%H%-%19R'),
      113      450    1         2 * CHAR(0) INIT('ACCTRES#:  %D%-%19R'),
      114      451    1         2 * CHAR(0) INIT('CHNFREE$: .%H%-%19R'),
      115      452    1         2 * CHAR(0) INIT('DEVICE#:   %D%-%19R'),
      116      453    1         2 * CHAR(0) INIT('TCTX$$:   .%H%-%19R'),
      117      454    1         2 * CHAR(0) INIT('TCTX#:     %D%-%19R'),
      118      455    1         2 * CHAR(0) INIT('UNUSED$:  .%H%-%19R'),
      119      456    1         2 * CHAR(0) INIT('UNUSED#:   %D%-%19R'),
      120      457    1         2 * CHAR(0) INIT('TCTX$:    .%H%-%19R'),
      121      458    1         2 * CHAR(0) INIT('TCTX#:     %D%-%19R'),
      122      459    1         2 * CHAR(0) INIT('%/');
      123      460
      124      461    2           CALL DBM$GETBOBCAT(G$BOBCAT) WHENALTRETURN DO;

    461  2 000002   200003 630500                    EPPR0   G$BOBCAT,,AUTO
         2 000003   200146 450500                    STP0    BOB+42,,AUTO
         2 000004   200146 630500                    EPPR0   BOB+42,,AUTO
         2 000005   000017 631400 xsym               EPPR1   B_VECTNIL+15
         2 000006   000000 701000 xent               TSX1    DBM$GETBOBCAT
         2 000007   000011 702000 2                  TSX2    s:462
         2 000010   000012 710000 2                  TRA     s:464

      125      462    2              RETURN;

    462  2 000011   000000 702200 xent               TSX2  ! X66_ARET

      126      463    2              END;
      127      464    1           CALL DAF$INIT(BOBRPT);

    464  2 000012   000000 630400 3                  EPPR0   0
         2 000013   000017 631400 xsym               EPPR1   B_VECTNIL+15
         2 000014   000000 701000 xent               TSX1    DAF$INIT
PL6.E3A0      #001=DBD$BOBCAT File=DBD$BOBCAT.:E05TSI                            TUE 07/29/97 12:59 Page:14
         2 000015   000000 011000                    NOP     0

      128      465
      129      466    1           CALL DBM$PACK2(G$BOBCAT.FEP#,FEP#);

    466  2 000016   200070 630500                    EPPR0   FEP#,,AUTO
         2 000017   200147 450500                    STP0    BOB+43,,AUTO
         2 000020   200003 631500                    EPPR1   G$BOBCAT,,AUTO
         2 000021   200146 451500                    STP1    BOB+42,,AUTO
         2 000022   200146 630500                    EPPR0   BOB+42,,AUTO
         2 000023   000020 631400 xsym               EPPR1   B_VECTNIL+16
         2 000024   000000 701000 xent               TSX1    DBM$PACK2
         2 000025   000000 011000                    NOP     0

      130      467    1           CALL DBM$PACK2(G$BOBCAT.HOSTNODE,HOST#);

    467  2 000026   200071 630500                    EPPR0   HOST#,,AUTO
         2 000027   200147 450500                    STP0    BOB+43,,AUTO
         2 000030   200150 452500                    STP2    BOB+44,,AUTO
         2 000031   200150 236100                    LDQ     BOB+44,,AUTO
         2 000032   000001 036000 3                  ADLQ    1
         2 000033   200146 756100                    STQ     BOB+42,,AUTO
         2 000034   200146 630500                    EPPR0   BOB+42,,AUTO
         2 000035   000020 631400 xsym               EPPR1   B_VECTNIL+16
         2 000036   000000 701000 xent               TSX1    DBM$PACK2
         2 000037   000000 011000                    NOP     0

      131      468    1           CALL DBM$PACK2(G$BOBCAT.MUIS,BOB.MUIS);

    468  2 000040   200075 630500                    EPPR0   BOB+1,,AUTO
         2 000041   200147 450500                    STP0    BOB+43,,AUTO
         2 000042   200010 631500                    EPPR1   G$BOBCAT+5,,AUTO
         2 000043   200146 451500                    STP1    BOB+42,,AUTO
         2 000044   200146 630500                    EPPR0   BOB+42,,AUTO
         2 000045   000020 631400 xsym               EPPR1   B_VECTNIL+16
         2 000046   000000 701000 xent               TSX1    DBM$PACK2
         2 000047   000000 011000                    NOP     0
PL6.E3A0      #001=DBD$BOBCAT File=DBD$BOBCAT.:E05TSI                            TUE 07/29/97 12:59 Page:15

      132      469    1           BOB.MUIS2 = BOB.MUIS;

    469  2 000050   200075 235100                    LDA     BOB+1,,AUTO
         2 000051   200101 755100                    STA     BOB+5,,AUTO

      133      470    1           CALL DBM$PACK4(G$BOBCAT.USRT$,BOB.USRT$);

    470  2 000052   200074 630500                    EPPR0   BOB,,AUTO
         2 000053   200147 450500                    STP0    BOB+43,,AUTO
         2 000054   200017 631500                    EPPR1   G$BOBCAT+12,,AUTO
         2 000055   200146 451500                    STP1    BOB+42,,AUTO
         2 000056   200146 630500                    EPPR0   BOB+42,,AUTO
         2 000057   000020 631400 xsym               EPPR1   B_VECTNIL+16
         2 000060   000000 701000 xent               TSX1    DBM$PACK4
         2 000061   000000 011000                    NOP     0

      134      471    1           CALL DBM$PACK4(G$BOBCAT.DOLIST$,BOB.DOLIST$);

    471  2 000062   200100 630500                    EPPR0   BOB+4,,AUTO
         2 000063   200147 450500                    STP0    BOB+43,,AUTO
         2 000064   200020 631500                    EPPR1   G$BOBCAT+13,,AUTO
         2 000065   200146 451500                    STP1    BOB+42,,AUTO
         2 000066   200146 630500                    EPPR0   BOB+42,,AUTO
         2 000067   000020 631400 xsym               EPPR1   B_VECTNIL+16
         2 000070   000000 701000 xent               TSX1    DBM$PACK4
         2 000071   000000 011000                    NOP     0

      135      472    1           CALL DBM$PACK2(G$BOBCAT.SFILE#,BOB.SFILE#);

    472  2 000072   200131 630500                    EPPR0   BOB+29,,AUTO
         2 000073   200147 450500                    STP0    BOB+43,,AUTO
         2 000074   200150 452500                    STP2    BOB+44,,AUTO
         2 000075   200150 236100                    LDQ     BOB+44,,AUTO
         2 000076   000002 036000 3                  ADLQ    2
         2 000077   200146 756100                    STQ     BOB+42,,AUTO
         2 000100   200146 630500                    EPPR0   BOB+42,,AUTO
PL6.E3A0      #001=DBD$BOBCAT File=DBD$BOBCAT.:E05TSI                            TUE 07/29/97 12:59 Page:16
         2 000101   000020 631400 xsym               EPPR1   B_VECTNIL+16
         2 000102   000000 701000 xent               TSX1    DBM$PACK2
         2 000103   000000 011000                    NOP     0

      136      473    1           CALL DBM$PACK4(G$BOBCAT.SFILE$,BOB.SFILE$);

    473  2 000104   200130 630500                    EPPR0   BOB+28,,AUTO
         2 000105   200147 450500                    STP0    BOB+43,,AUTO
         2 000106   200022 631500                    EPPR1   G$BOBCAT+15,,AUTO
         2 000107   200146 451500                    STP1    BOB+42,,AUTO
         2 000110   200146 630500                    EPPR0   BOB+42,,AUTO
         2 000111   000020 631400 xsym               EPPR1   B_VECTNIL+16
         2 000112   000000 701000 xent               TSX1    DBM$PACK4
         2 000113   000000 011000                    NOP     0

      137      474    1           CALL DBM$PACK4(G$BOBCAT.DCT$$,BOB.DCT$$);

    474  2 000114   200104 630500                    EPPR0   BOB+8,,AUTO
         2 000115   200147 450500                    STP0    BOB+43,,AUTO
         2 000116   200025 631500                    EPPR1   G$BOBCAT+18,,AUTO
         2 000117   200146 451500                    STP1    BOB+42,,AUTO
         2 000120   200146 630500                    EPPR0   BOB+42,,AUTO
         2 000121   000020 631400 xsym               EPPR1   B_VECTNIL+16
         2 000122   000000 701000 xent               TSX1    DBM$PACK4
         2 000123   000000 011000                    NOP     0

      138      475    1           CALL DBM$PACK2(G$BOBCAT.IOP#,BOB.IOP#);

    475  2 000124   200115 630500                    EPPR0   BOB+17,,AUTO
         2 000125   200147 450500                    STP0    BOB+43,,AUTO
         2 000126   200150 452500                    STP2    BOB+44,,AUTO
         2 000127   200150 236100                    LDQ     BOB+44,,AUTO
         2 000130   000003 036000 3                  ADLQ    3
         2 000131   200146 756100                    STQ     BOB+42,,AUTO
         2 000132   200146 630500                    EPPR0   BOB+42,,AUTO
         2 000133   000020 631400 xsym               EPPR1   B_VECTNIL+16
         2 000134   000000 701000 xent               TSX1    DBM$PACK2
PL6.E3A0      #001=DBD$BOBCAT File=DBD$BOBCAT.:E05TSI                            TUE 07/29/97 12:59 Page:17
         2 000135   000000 011000                    NOP     0

      139      476    1           CALL DBM$PACK2(G$BOBCAT.LDCT#,BOB.LDCT#);

    476  2 000136   200105 630500                    EPPR0   BOB+9,,AUTO
         2 000137   200147 450500                    STP0    BOB+43,,AUTO
         2 000140   200013 631500                    EPPR1   G$BOBCAT+8,,AUTO
         2 000141   200146 451500                    STP1    BOB+42,,AUTO
         2 000142   200146 630500                    EPPR0   BOB+42,,AUTO
         2 000143   000020 631400 xsym               EPPR1   B_VECTNIL+16
         2 000144   000000 701000 xent               TSX1    DBM$PACK2
         2 000145   000000 011000                    NOP     0

      140      477    1           CALL DBM$PACK4(G$BOBCAT.LDCT_START$,BOB.LDCT$);

    477  2 000146   200110 630500                    EPPR0   BOB+12,,AUTO
         2 000147   200147 450500                    STP0    BOB+43,,AUTO
         2 000150   200026 631500                    EPPR1   G$BOBCAT+19,,AUTO
         2 000151   200146 451500                    STP1    BOB+42,,AUTO
         2 000152   200146 630500                    EPPR0   BOB+42,,AUTO
         2 000153   000020 631400 xsym               EPPR1   B_VECTNIL+16
         2 000154   000000 701000 xent               TSX1    DBM$PACK4
         2 000155   000000 011000                    NOP     0

      141      478    1           BOB.LDCT2# = BOB.LDCT#;

    478  2 000156   200105 235100                    LDA     BOB+9,,AUTO
         2 000157   200111 755100                    STA     BOB+13,,AUTO

      142      479    1           CALL DBM$PACK2(G$BOBCAT.HMI#,BOB.HMI#);

    479  2 000160   200121 630500                    EPPR0   BOB+21,,AUTO
         2 000161   200147 450500                    STP0    BOB+43,,AUTO
         2 000162   200150 452500                    STP2    BOB+44,,AUTO
         2 000163   200150 236100                    LDQ     BOB+44,,AUTO
         2 000164   000004 036000 3                  ADLQ    4
         2 000165   200146 756100                    STQ     BOB+42,,AUTO
PL6.E3A0      #001=DBD$BOBCAT File=DBD$BOBCAT.:E05TSI                            TUE 07/29/97 12:59 Page:18
         2 000166   200146 630500                    EPPR0   BOB+42,,AUTO
         2 000167   000020 631400 xsym               EPPR1   B_VECTNIL+16
         2 000170   000000 701000 xent               TSX1    DBM$PACK2
         2 000171   000000 011000                    NOP     0

      143      480    1           CALL DBM$PACK4(G$BOBCAT.HMI$,BOB.HMI$);

    480  2 000172   200120 630500                    EPPR0   BOB+20,,AUTO
         2 000173   200147 450500                    STP0    BOB+43,,AUTO
         2 000174   200027 631500                    EPPR1   G$BOBCAT+20,,AUTO
         2 000175   200146 451500                    STP1    BOB+42,,AUTO
         2 000176   200146 630500                    EPPR0   BOB+42,,AUTO
         2 000177   000020 631400 xsym               EPPR1   B_VECTNIL+16
         2 000200   000000 701000 xent               TSX1    DBM$PACK4
         2 000201   000000 011000                    NOP     0

      144      481    1           CALL DBM$PACK2(G$BOBCAT.APESSN#,BOB.SSN#);

    481  2 000202   200125 630500                    EPPR0   BOB+25,,AUTO
         2 000203   200147 450500                    STP0    BOB+43,,AUTO
         2 000204   200014 631500                    EPPR1   G$BOBCAT+9,,AUTO
         2 000205   200146 451500                    STP1    BOB+42,,AUTO
         2 000206   200146 630500                    EPPR0   BOB+42,,AUTO
         2 000207   000020 631400 xsym               EPPR1   B_VECTNIL+16
         2 000210   000000 701000 xent               TSX1    DBM$PACK2
         2 000211   000000 011000                    NOP     0

      145      482    1           CALL DBM$PACK2(G$BOBCAT.TCTX#,BOB.TCTX#);

    482  2 000212   200141 630500                    EPPR0   BOB+37,,AUTO
         2 000213   200147 450500                    STP0    BOB+43,,AUTO
         2 000214   200150 452500                    STP2    BOB+44,,AUTO
         2 000215   200150 236100                    LDQ     BOB+44,,AUTO
         2 000216   000005 036000 3                  ADLQ    5
         2 000217   200146 756100                    STQ     BOB+42,,AUTO
         2 000220   200146 630500                    EPPR0   BOB+42,,AUTO
         2 000221   000020 631400 xsym               EPPR1   B_VECTNIL+16
PL6.E3A0      #001=DBD$BOBCAT File=DBD$BOBCAT.:E05TSI                            TUE 07/29/97 12:59 Page:19
         2 000222   000000 701000 xent               TSX1    DBM$PACK2
         2 000223   000000 011000                    NOP     0

      146      483    1           BOB.TCTX2# = BOB.TCTX#;

    483  2 000224   200141 235100                    LDA     BOB+37,,AUTO
         2 000225   200145 755100                    STA     BOB+41,,AUTO

      147      484    1           CALL DBM$PACK4(G$BOBCAT.TCTX$,BOB.TCTX$);

    484  2 000226   200144 630500                    EPPR0   BOB+40,,AUTO
         2 000227   200147 450500                    STP0    BOB+43,,AUTO
         2 000230   200031 631500                    EPPR1   G$BOBCAT+22,,AUTO
         2 000231   200146 451500                    STP1    BOB+42,,AUTO
         2 000232   200146 630500                    EPPR0   BOB+42,,AUTO
         2 000233   000020 631400 xsym               EPPR1   B_VECTNIL+16
         2 000234   000000 701000 xent               TSX1    DBM$PACK4
         2 000235   000000 011000                    NOP     0

      148      485    1           CALL DBM$PACK4(G$BOBCAT.TCTX$$,BOB.TCTX$$);

    485  2 000236   200140 630500                    EPPR0   BOB+36,,AUTO
         2 000237   200147 450500                    STP0    BOB+43,,AUTO
         2 000240   200032 631500                    EPPR1   G$BOBCAT+23,,AUTO
         2 000241   200146 451500                    STP1    BOB+42,,AUTO
         2 000242   200146 630500                    EPPR0   BOB+42,,AUTO
         2 000243   000020 631400 xsym               EPPR1   B_VECTNIL+16
         2 000244   000000 701000 xent               TSX1    DBM$PACK4
         2 000245   000000 011000                    NOP     0

      149      486    1           CALL DBM$PACK4(G$BOBCAT.OSIROUTE$,BOB.OSI$$);

    486  2 000246   200116 630500                    EPPR0   BOB+18,,AUTO
         2 000247   200147 450500                    STP0    BOB+43,,AUTO
         2 000250   200150 452500                    STP2    BOB+44,,AUTO
         2 000251   200150 236100                    LDQ     BOB+44,,AUTO
         2 000252   000006 036000 3                  ADLQ    6
PL6.E3A0      #001=DBD$BOBCAT File=DBD$BOBCAT.:E05TSI                            TUE 07/29/97 12:59 Page:20
         2 000253   200146 756100                    STQ     BOB+42,,AUTO
         2 000254   200146 630500                    EPPR0   BOB+42,,AUTO
         2 000255   000020 631400 xsym               EPPR1   B_VECTNIL+16
         2 000256   000000 701000 xent               TSX1    DBM$PACK4
         2 000257   000000 011000                    NOP     0

      150      487    1           CALL DBM$PACK4(G$BOBCAT.OSIROUTE_START$,BOB.OSI$);

    487  2 000260   200122 630500                    EPPR0   BOB+22,,AUTO
         2 000261   200147 450500                    STP0    BOB+43,,AUTO
         2 000262   200150 452500                    STP2    BOB+44,,AUTO
         2 000263   200150 236100                    LDQ     BOB+44,,AUTO
         2 000264   000007 036000 3                  ADLQ    7
         2 000265   200146 756100                    STQ     BOB+42,,AUTO
         2 000266   200146 630500                    EPPR0   BOB+42,,AUTO
         2 000267   000020 631400 xsym               EPPR1   B_VECTNIL+16
         2 000270   000000 701000 xent               TSX1    DBM$PACK4
         2 000271   000000 011000                    NOP     0

      151      488    1           CALL DBM$PACK2(G$BOBCAT.OSIROUTE#,BOB.OSI#);

    488  2 000272   200117 630500                    EPPR0   BOB+19,,AUTO
         2 000273   200147 450500                    STP0    BOB+43,,AUTO
         2 000274   200064 631500                    EPPR1   G$BOBCAT+49,,AUTO
         2 000275   200146 451500                    STP1    BOB+42,,AUTO
         2 000276   200146 630500                    EPPR0   BOB+42,,AUTO
         2 000277   000020 631400 xsym               EPPR1   B_VECTNIL+16
         2 000300   000000 701000 xent               TSX1    DBM$PACK2
         2 000301   000000 011000                    NOP     0

      152      489    1           BOB.OSI2# = BOB.OSI#;

    489  2 000302   200117 235100                    LDA     BOB+19,,AUTO
         2 000303   200123 755100                    STA     BOB+23,,AUTO

      153      490    1           CALL DBM$PACK2(G$BOBCAT.NODES,BOB.NODES);

PL6.E3A0      #001=DBD$BOBCAT File=DBD$BOBCAT.:E05TSI                            TUE 07/29/97 12:59 Page:21
    490  2 000304   200077 630500                    EPPR0   BOB+3,,AUTO
         2 000305   200147 450500                    STP0    BOB+43,,AUTO
         2 000306   200150 452500                    STP2    BOB+44,,AUTO
         2 000307   200150 236100                    LDQ     BOB+44,,AUTO
         2 000310   000010 036000 3                  ADLQ    8
         2 000311   200146 756100                    STQ     BOB+42,,AUTO
         2 000312   200146 630500                    EPPR0   BOB+42,,AUTO
         2 000313   000020 631400 xsym               EPPR1   B_VECTNIL+16
         2 000314   000000 701000 xent               TSX1    DBM$PACK2
         2 000315   000000 011000                    NOP     0

      154      491    1           BOB.NODES2 = BOB.NODES;

    491  2 000316   200077 235100                    LDA     BOB+3,,AUTO
         2 000317   200103 755100                    STA     BOB+7,,AUTO

      155      492    1           CALL DBM$PACK2(G$BOBCAT.LINKS,BOB.LINKS);

    492  2 000320   200107 630500                    EPPR0   BOB+11,,AUTO
         2 000321   200147 450500                    STP0    BOB+43,,AUTO
         2 000322   200016 631500                    EPPR1   G$BOBCAT+11,,AUTO
         2 000323   200146 451500                    STP1    BOB+42,,AUTO
         2 000324   200146 630500                    EPPR0   BOB+42,,AUTO
         2 000325   000020 631400 xsym               EPPR1   B_VECTNIL+16
         2 000326   000000 701000 xent               TSX1    DBM$PACK2
         2 000327   000000 011000                    NOP     0

      156      493    1           BOB.LINK2 = BOB.LINKS;

    493  2 000330   200107 235100                    LDA     BOB+11,,AUTO
         2 000331   200113 755100                    STA     BOB+15,,AUTO

      157      494    1           CALL DBM$PACK4(G$BOBCAT.ROUTE$$,BOB.ROUTE$$);

    494  2 000332   200076 630500                    EPPR0   BOB+2,,AUTO
         2 000333   200147 450500                    STP0    BOB+43,,AUTO
         2 000334   200033 631500                    EPPR1   G$BOBCAT+24,,AUTO
PL6.E3A0      #001=DBD$BOBCAT File=DBD$BOBCAT.:E05TSI                            TUE 07/29/97 12:59 Page:22
         2 000335   200146 451500                    STP1    BOB+42,,AUTO
         2 000336   200146 630500                    EPPR0   BOB+42,,AUTO
         2 000337   000020 631400 xsym               EPPR1   B_VECTNIL+16
         2 000340   000000 701000 xent               TSX1    DBM$PACK4
         2 000341   000000 011000                    NOP     0

      158      495    1           CALL DBM$PACK4(G$BOBCAT.ROUTE_START$,BOB.ROUTE$);

    495  2 000342   200102 630500                    EPPR0   BOB+6,,AUTO
         2 000343   200147 450500                    STP0    BOB+43,,AUTO
         2 000344   200024 631500                    EPPR1   G$BOBCAT+17,,AUTO
         2 000345   200146 451500                    STP1    BOB+42,,AUTO
         2 000346   200146 630500                    EPPR0   BOB+42,,AUTO
         2 000347   000020 631400 xsym               EPPR1   B_VECTNIL+16
         2 000350   000000 701000 xent               TSX1    DBM$PACK4
         2 000351   000000 011000                    NOP     0

      159      496    1           CALL DBM$PACK4(G$BOBCAT.LINK$$,BOB.LINK$$);

    496  2 000352   200106 630500                    EPPR0   BOB+10,,AUTO
         2 000353   200147 450500                    STP0    BOB+43,,AUTO
         2 000354   200034 631500                    EPPR1   G$BOBCAT+25,,AUTO
         2 000355   200146 451500                    STP1    BOB+42,,AUTO
         2 000356   200146 630500                    EPPR0   BOB+42,,AUTO
         2 000357   000020 631400 xsym               EPPR1   B_VECTNIL+16
         2 000360   000000 701000 xent               TSX1    DBM$PACK4
         2 000361   000000 011000                    NOP     0

      160      497    1           CALL DBM$PACK4(G$BOBCAT.LINK_START$,BOB.LINK$);

    497  2 000362   200112 630500                    EPPR0   BOB+14,,AUTO
         2 000363   200147 450500                    STP0    BOB+43,,AUTO
         2 000364   200030 631500                    EPPR1   G$BOBCAT+21,,AUTO
         2 000365   200146 451500                    STP1    BOB+42,,AUTO
         2 000366   200146 630500                    EPPR0   BOB+42,,AUTO
         2 000367   000020 631400 xsym               EPPR1   B_VECTNIL+16
         2 000370   000000 701000 xent               TSX1    DBM$PACK4
PL6.E3A0      #001=DBD$BOBCAT File=DBD$BOBCAT.:E05TSI                            TUE 07/29/97 12:59 Page:23
         2 000371   000000 011000                    NOP     0

      161      498    1           CALL DBM$PACK2(G$BOBCAT.CHNLOW,BOB.CHNLOW);

    498  2 000372   200127 630500                    EPPR0   BOB+27,,AUTO
         2 000373   200147 450500                    STP0    BOB+43,,AUTO
         2 000374   200035 631500                    EPPR1   G$BOBCAT+26,,AUTO
         2 000375   200146 451500                    STP1    BOB+42,,AUTO
         2 000376   200146 630500                    EPPR0   BOB+42,,AUTO
         2 000377   000020 631400 xsym               EPPR1   B_VECTNIL+16
         2 000400   000000 701000 xent               TSX1    DBM$PACK2
         2 000401   000000 011000                    NOP     0

      162      499    1           CALL DBM$PACK4(G$BOBCAT.CHNLOW$,BOB.CHNLOW$);

    499  2 000402   200126 630500                    EPPR0   BOB+26,,AUTO
         2 000403   200147 450500                    STP0    BOB+43,,AUTO
         2 000404   200037 631500                    EPPR1   G$BOBCAT+28,,AUTO
         2 000405   200146 451500                    STP1    BOB+42,,AUTO
         2 000406   200146 630500                    EPPR0   BOB+42,,AUTO
         2 000407   000020 631400 xsym               EPPR1   B_VECTNIL+16
         2 000410   000000 701000 xent               TSX1    DBM$PACK4
         2 000411   000000 011000                    NOP     0

      163      500    1           CALL DBM$PACK2(G$BOBCAT.CHNHI,BOB.CHNHI);

    500  2 000412   200133 630500                    EPPR0   BOB+31,,AUTO
         2 000413   200147 450500                    STP0    BOB+43,,AUTO
         2 000414   200150 452500                    STP2    BOB+44,,AUTO
         2 000415   200150 236100                    LDQ     BOB+44,,AUTO
         2 000416   000011 036000 3                  ADLQ    9
         2 000417   200146 756100                    STQ     BOB+42,,AUTO
         2 000420   200146 630500                    EPPR0   BOB+42,,AUTO
         2 000421   000020 631400 xsym               EPPR1   B_VECTNIL+16
         2 000422   000000 701000 xent               TSX1    DBM$PACK2
         2 000423   000000 011000                    NOP     0

PL6.E3A0      #001=DBD$BOBCAT File=DBD$BOBCAT.:E05TSI                            TUE 07/29/97 12:59 Page:24
      164      501    1           CALL DBM$PACK4(G$BOBCAT.CHNHI$,BOB.CHNHI$);

    501  2 000424   200132 630500                    EPPR0   BOB+30,,AUTO
         2 000425   200147 450500                    STP0    BOB+43,,AUTO
         2 000426   200040 631500                    EPPR1   G$BOBCAT+29,,AUTO
         2 000427   200146 451500                    STP1    BOB+42,,AUTO
         2 000430   200146 630500                    EPPR0   BOB+42,,AUTO
         2 000431   000020 631400 xsym               EPPR1   B_VECTNIL+16
         2 000432   000000 701000 xent               TSX1    DBM$PACK4
         2 000433   000000 011000                    NOP     0

      165      502    1           CALL DBM$PACK4(G$BOBCAT.CHNFREE$,BOB.CHNFREE$);

    502  2 000434   200136 630500                    EPPR0   BOB+34,,AUTO
         2 000435   200147 450500                    STP0    BOB+43,,AUTO
         2 000436   200041 631500                    EPPR1   G$BOBCAT+30,,AUTO
         2 000437   200146 451500                    STP1    BOB+42,,AUTO
         2 000440   200146 630500                    EPPR0   BOB+42,,AUTO
         2 000441   000020 631400 xsym               EPPR1   B_VECTNIL+16
         2 000442   000000 701000 xent               TSX1    DBM$PACK4
         2 000443   000000 011000                    NOP     0

      166      503    1           CALL DBM$PACK2(G$BOBCAT.DEVICES,BOB.DEVICES);

    503  2 000444   200137 630500                    EPPR0   BOB+35,,AUTO
         2 000445   200147 450500                    STP0    BOB+43,,AUTO
         2 000446   200150 452500                    STP2    BOB+44,,AUTO
         2 000447   200150 236100                    LDQ     BOB+44,,AUTO
         2 000450   000012 036000 3                  ADLQ    10
         2 000451   200146 756100                    STQ     BOB+42,,AUTO
         2 000452   200146 630500                    EPPR0   BOB+42,,AUTO
         2 000453   000020 631400 xsym               EPPR1   B_VECTNIL+16
         2 000454   000000 701000 xent               TSX1    DBM$PACK2
         2 000455   000000 011000                    NOP     0

      167      504    1           CALL DBM$PACK2(G$BOBCAT.ACCT_RES#,BOB.ACCTRES#);

PL6.E3A0      #001=DBD$BOBCAT File=DBD$BOBCAT.:E05TSI                            TUE 07/29/97 12:59 Page:25
    504  2 000456   200135 630500                    EPPR0   BOB+33,,AUTO
         2 000457   200147 450500                    STP0    BOB+43,,AUTO
         2 000460   200012 631500                    EPPR1   G$BOBCAT+7,,AUTO
         2 000461   200146 451500                    STP1    BOB+42,,AUTO
         2 000462   200146 630500                    EPPR0   BOB+42,,AUTO
         2 000463   000020 631400 xsym               EPPR1   B_VECTNIL+16
         2 000464   000000 701000 xent               TSX1    DBM$PACK2
         2 000465   000000 011000                    NOP     0

      168      505    1           CALL DBM$PACK4(G$BOBCAT.ACCT_RES$,BOB.ACCTRES$);

    505  2 000466   200134 630500                    EPPR0   BOB+32,,AUTO
         2 000467   200147 450500                    STP0    BOB+43,,AUTO
         2 000470   200023 631500                    EPPR1   G$BOBCAT+16,,AUTO
         2 000471   200146 451500                    STP1    BOB+42,,AUTO
         2 000472   200146 630500                    EPPR0   BOB+42,,AUTO
         2 000473   000020 631400 xsym               EPPR1   B_VECTNIL+16
         2 000474   000000 701000 xent               TSX1    DBM$PACK4
         2 000475   000000 011000                    NOP     0

      169      506    1           CALL DBM$PACK4(G$BOBCAT.IOP_START$,BOB.IOP$);

    506  2 000476   200114 630500                    EPPR0   BOB+16,,AUTO
         2 000477   200147 450500                    STP0    BOB+43,,AUTO
         2 000500   200043 631500                    EPPR1   G$BOBCAT+32,,AUTO
         2 000501   200146 451500                    STP1    BOB+42,,AUTO
         2 000502   200146 630500                    EPPR0   BOB+42,,AUTO
         2 000503   000020 631400 xsym               EPPR1   B_VECTNIL+16
         2 000504   000000 701000 xent               TSX1    DBM$PACK4
         2 000505   000000 011000                    NOP     0

      170      507    1           CALL DBM$PACK4(G$BOBCAT.SSN_START$,BOB.SSN$);

    507  2 000506   200124 630500                    EPPR0   BOB+24,,AUTO
         2 000507   200147 450500                    STP0    BOB+43,,AUTO
         2 000510   200044 631500                    EPPR1   G$BOBCAT+33,,AUTO
         2 000511   200146 451500                    STP1    BOB+42,,AUTO
PL6.E3A0      #001=DBD$BOBCAT File=DBD$BOBCAT.:E05TSI                            TUE 07/29/97 12:59 Page:26
         2 000512   200146 630500                    EPPR0   BOB+42,,AUTO
         2 000513   000020 631400 xsym               EPPR1   B_VECTNIL+16
         2 000514   000000 701000 xent               TSX1    DBM$PACK4
         2 000515   000000 011000                    NOP     0

      171      508
      172      509    1           CALL DBM$PACK2(G$BOBCAT.DPS8000FLG,TYPE#);

    509  2 000516   200072 630500                    EPPR0   TYPE#,,AUTO
         2 000517   200147 450500                    STP0    BOB+43,,AUTO
         2 000520   200150 452500                    STP2    BOB+44,,AUTO
         2 000521   200150 236100                    LDQ     BOB+44,,AUTO
         2 000522   000013 036000 3                  ADLQ    11
         2 000523   200146 756100                    STQ     BOB+42,,AUTO
         2 000524   200146 630500                    EPPR0   BOB+42,,AUTO
         2 000525   000020 631400 xsym               EPPR1   B_VECTNIL+16
         2 000526   000000 701000 xent               TSX1    DBM$PACK2
         2 000527   000000 011000                    NOP     0

      173      510    1           IF TYPE# = 0

    510  2 000530   200072 235100                    LDA     TYPE#,,AUTO
         2 000531   000535 601000 2                  TNZ     s:512

      174      511    1           THEN TYPE = 'NO  ';

    511  2 000532   000335 236000 1                  LDQ     BOBFMT+200
         2 000533   200073 756100                    STQ     TYPE,,AUTO
         2 000534   000537 710000 2                  TRA     s:513

      175      512    1           ELSE TYPE = 'YES ';

    512  2 000535   000336 236000 1                  LDQ     BOBFMT+201
         2 000536   200073 756100                    STQ     TYPE,,AUTO

      176      513    1           CALL DBM$PACK2(G$BOBCAT.UNUSED#,BOB.UNUSED#);

PL6.E3A0      #001=DBD$BOBCAT File=DBD$BOBCAT.:E05TSI                            TUE 07/29/97 12:59 Page:27
    513  2 000537   200143 630500                    EPPR0   BOB+39,,AUTO
         2 000540   200147 450500                    STP0    BOB+43,,AUTO
         2 000541   200015 631500                    EPPR1   G$BOBCAT+10,,AUTO
         2 000542   200146 451500                    STP1    BOB+42,,AUTO
         2 000543   200146 630500                    EPPR0   BOB+42,,AUTO
         2 000544   000020 631400 xsym               EPPR1   B_VECTNIL+16
         2 000545   000000 701000 xent               TSX1    DBM$PACK2
         2 000546   000000 011000                    NOP     0

      177      514    1           CALL DBM$PACK4(G$BOBCAT.UNUSED$,BOB.UNUSED$);

    514  2 000547   200142 630500                    EPPR0   BOB+38,,AUTO
         2 000550   200147 450500                    STP0    BOB+43,,AUTO
         2 000551   200067 631500                    EPPR1   G$BOBCAT+52,,AUTO
         2 000552   200146 451500                    STP1    BOB+42,,AUTO
         2 000553   200146 630500                    EPPR0   BOB+42,,AUTO
         2 000554   000020 631400 xsym               EPPR1   B_VECTNIL+16
         2 000555   000000 701000 xent               TSX1    DBM$PACK4
         2 000556   000000 011000                    NOP     0

      178      515
      179      516    1          CALL DAF$WRITE(VECTOR(BOBC), VECTOR(FEP#), VECTOR(G$BOBCAT.NODENAME), VECTOR
               516                    (HOST#),

    516  2 000557   777640 235007                    LDA     -96,DL
         2 000560   200146 452500                    STP2    BOB+42,,AUTO
         2 000561   200146 236100                    LDQ     BOB+42,,AUTO
         2 000562   000070 036003                    ADLQ    56,DU
         2 000563   200150 757100                    STAQ    BOB+44,,AUTO
         2 000564   000016 235000 3                  LDA     14
         2 000565   200152 452500                    STP2    BOB+46,,AUTO
         2 000566   200152 236100                    LDQ     BOB+46,,AUTO
         2 000567   000017 036000 3                  ADLQ    15
         2 000570   200154 757100                    STAQ    BOB+48,,AUTO
         2 000571   777640 235007                    LDA     -96,DL
         2 000572   200156 452500                    STP2    BOB+50,,AUTO
         2 000573   200156 236100                    LDQ     BOB+50,,AUTO
PL6.E3A0      #001=DBD$BOBCAT File=DBD$BOBCAT.:E05TSI                            TUE 07/29/97 12:59 Page:28
         2 000574   000071 036003                    ADLQ    57,DU
         2 000575   200160 757100                    STAQ    BOB+52,,AUTO
         2 000576   777640 235007                    LDA     -96,DL
         2 000577   200162 452500                    STP2    BOB+54,,AUTO
         2 000600   200162 236100                    LDQ     BOB+54,,AUTO
         2 000601   000073 036003                    ADLQ    59,DU
         2 000602   200164 757100                    STAQ    BOB+56,,AUTO
         2 000603   000020 235000 3                  LDA     16
         2 000604   200166 452500                    STP2    BOB+58,,AUTO
         2 000605   200166 236100                    LDQ     BOB+58,,AUTO
         2 000606   000021 036000 3                  ADLQ    17
         2 000607   200172 757100                    STAQ    BOB+62,,AUTO
         2 000610   200150 237100                    LDAQ    BOB+44,,AUTO
         2 000611   200170 757100                    STAQ    BOB+60,,AUTO
         2 000612   200154 237100                    LDAQ    BOB+48,,AUTO
         2 000613   200174 757100                    STAQ    BOB+64,,AUTO
         2 000614   200160 237100                    LDAQ    BOB+52,,AUTO
         2 000615   200176 757100                    STAQ    BOB+66,,AUTO
         2 000616   200164 237100                    LDAQ    BOB+56,,AUTO
         2 000617   200200 757100                    STAQ    BOB+68,,AUTO
         2 000620   200172 237100                    LDAQ    BOB+62,,AUTO
         2 000621   200202 757100                    STAQ    BOB+70,,AUTO
         2 000622   200202 630500                    EPPR0   BOB+70,,AUTO
         2 000623   200211 450500                    STP0    BOB+77,,AUTO
         2 000624   200200 631500                    EPPR1   BOB+68,,AUTO
         2 000625   200210 451500                    STP1    BOB+76,,AUTO
         2 000626   200176 633500                    EPPR3   BOB+66,,AUTO
         2 000627   200207 453500                    STP3    BOB+75,,AUTO
         2 000630   200174 634500                    EPPR4   BOB+64,,AUTO
         2 000631   200206 454500                    STP4    BOB+74,,AUTO
         2 000632   200170 635500                    EPPR5   BOB+60,,AUTO
         2 000633   200205 455500                    STP5    BOB+73,,AUTO
         2 000634   000022 236000 3                  LDQ     18
         2 000635   200204 756100                    STQ     BOB+72,,AUTO
         2 000636   200204 630500                    EPPR0   BOB+72,,AUTO
         2 000637   000000 220000 xsym               LDX0    DAF$WRITE
         2 000640   000024 631400 xsym               EPPR1   B_VECTNIL+20
PL6.E3A0      #001=DBD$BOBCAT File=DBD$BOBCAT.:E05TSI                            TUE 07/29/97 12:59 Page:29
         2 000641   000000 701010                    TSX1    0,X0
         2 000642   000000 011000                    NOP     0

      180      517    1             VECTOR(TYPE), VECTOR(G$BOBCAT.BOOTFID));
      181      518
      182      519    1           CALL DAF$WRITE(VECTOR(BOBFMT),VECTOR(BOB));

    519  2 000643   000026 235000 3                  LDA     22
         2 000644   200146 452500                    STP2    BOB+42,,AUTO
         2 000645   200146 236100                    LDQ     BOB+42,,AUTO
         2 000646   000074 036003                    ADLQ    60,DU
         2 000647   200150 757100                    STAQ    BOB+44,,AUTO
         2 000650   200150 630500                    EPPR0   BOB+44,,AUTO
         2 000651   200153 450500                    STP0    BOB+47,,AUTO
         2 000652   000027 236000 3                  LDQ     23
         2 000653   200152 756100                    STQ     BOB+46,,AUTO
         2 000654   200152 630500                    EPPR0   BOB+46,,AUTO
         2 000655   000000 220000 xsym               LDX0    DAF$WRITE
         2 000656   000020 631400 xsym               EPPR1   B_VECTNIL+16
         2 000657   000000 701010                    TSX1    0,X0
         2 000660   000000 011000                    NOP     0

      183      520
      184      521    1           RETURN;

    521  2 000661   000000 702200 xent               TSX2  ! X66_ARET
      185      522
      186      523    1   END DBD$BOBCAT;

PL6.E3A0      #001=DBD$BOBCAT File=DBD$BOBCAT.:E05TSI                            TUE 07/29/97 12:59 Page:30
--  Include file information  --

   DA_FORMAT_C.:E05TOU  is referenced.
   G$BOBCAT_M.:E05TOU  is referenced.
      No diagnostics issued in procedure DBD$BOBCAT.
PL6.E3A0      #001=DBD$BOBCAT File=DBD$BOBCAT.:E05TSI                            TUE 07/29/97 12:59 Page:31

 **** Variables and constants ****

  ****  Section 000  Data  DBD$BOBCAT

  ****  Scalars and arrays  ****
OctLoc.c.b A Datatyp(siz) R M Lvl/name                 OctLoc.c.b A Datatyp(siz) R M Lvl/name

     0-0-0/w STRC(288)   r     1 BOBRPT                    10-0-0/c STRC(108)   r     1 BOBRPTTX00

  ****  Section 001 RoData DBD$BOBCAT

  ****  Scalars and arrays  ****
OctLoc.c.b A Datatyp(siz) R M Lvl/name                 OctLoc.c.b A Datatyp(siz) R M Lvl/name

     0-0-0/c STRC(747)   r     1 BOBC                      25-0-0/c STRC(7200)  r     1 BOBFMT

  ****  Auto variables  ****

  ****  Scalars and arrays  ****
OctLoc.c.b A Datatyp(siz) R M Lvl/name                 OctLoc.c.b A Datatyp(siz) R M Lvl/name

    74-0-0/w STRC(1512)  r     1 BOB                       70-0-0/w UBIN        r     1 FEP#
     3-0-0/w STRC(1908)  r     1 G$BOBCAT                  71-0-0/w UBIN        r     1 HOST#
    73-0-0/c CHAR(4)     r     1 TYPE                      72-0-0/w UBIN        r     1 TYPE#

  ****  SYMREF variables  ****

  ****  Scalars and arrays  ****
OctLoc.c.b A Datatyp(siz) R M Lvl/name                 OctLoc.c.b A Datatyp(siz) R M Lvl/name

     0-0-0/w EPTR        r     1 DAF$WRITE


   Procedure DBD$BOBCAT requires 434 words for executable code.
   Procedure DBD$BOBCAT requires 138 words of local(AUTO) storage.
PL6.E3A0      #001=DBD$BOBCAT File=DBD$BOBCAT.:E05TSI                            TUE 07/29/97 12:59 Page:32

    No errors detected in file DBD$BOBCAT.:E05TSI    .
PL6.E3A0      #001=DBD$BOBCAT File=DBD$BOBCAT.:E05TSI                            TUE 07/29/97 12:59 Page:33
          *** CROSS REFERENCE LISTING ***
**     DENOTES     IDENTIFIER DEFINITION
<<                 IDENTIFIER'S VALUE SET
>>                 IDENTIFIER'S VALUE USED
<>                 IDENTIFIER SET AND/OR USED
--                 IDENTIFIER REFERENCED
PL6.E3A0      #001=DBD$BOBCAT File=DBD$BOBCAT.:E05TSI                            TUE 07/29/97 12:59 Page:34
          MINI XREF LISTING

BOB
       371**DCL       519--CALL
BOB.ACCTRES#
       405**DCL       504<>CALL
BOB.ACCTRES$
       404**DCL       505<>CALL
BOB.CHNFREE$
       406**DCL       502<>CALL
BOB.CHNHI
       403**DCL       500<>CALL
BOB.CHNHI$
       402**DCL       501<>CALL
BOB.CHNLOW
       399**DCL       498<>CALL
BOB.CHNLOW$
       398**DCL       499<>CALL
BOB.DCT$$
       380**DCL       474<>CALL
BOB.DEVICES
       407**DCL       503<>CALL
BOB.DOLIST$
       376**DCL       471<>CALL
BOB.HMI#
       393**DCL       479<>CALL
BOB.HMI$
       392**DCL       480<>CALL
BOB.IOP#
       389**DCL       475<>CALL
BOB.IOP$
       388**DCL       506<>CALL
BOB.LDCT#
       381**DCL       476<>CALL      478>>ASSIGN
PL6.E3A0      #001=DBD$BOBCAT File=DBD$BOBCAT.:E05TSI                            TUE 07/29/97 12:59 Page:35
BOB.LDCT$
       384**DCL       477<>CALL
BOB.LDCT2#
       385**DCL       478<<ASSIGN
BOB.LINK$
       386**DCL       497<>CALL
BOB.LINK$$
       382**DCL       496<>CALL
BOB.LINK2
       387**DCL       493<<ASSIGN
BOB.LINKS
       383**DCL       492<>CALL      493>>ASSIGN
BOB.MUIS
       373**DCL       468<>CALL      469>>ASSIGN
BOB.MUIS2
       377**DCL       469<<ASSIGN
BOB.NODES
       375**DCL       490<>CALL      491>>ASSIGN
BOB.NODES2
       379**DCL       491<<ASSIGN
BOB.OSI#
       391**DCL       488<>CALL      489>>ASSIGN
BOB.OSI$
       394**DCL       487<>CALL
BOB.OSI$$
       390**DCL       486<>CALL
BOB.OSI2#
       395**DCL       489<<ASSIGN
BOB.ROUTE$
       378**DCL       495<>CALL
BOB.ROUTE$$
       374**DCL       494<>CALL
BOB.SFILE#
       401**DCL       472<>CALL
BOB.SFILE$
       400**DCL       473<>CALL
PL6.E3A0      #001=DBD$BOBCAT File=DBD$BOBCAT.:E05TSI                            TUE 07/29/97 12:59 Page:36
BOB.SSN#
       397**DCL       481<>CALL
BOB.SSN$
       396**DCL       507<>CALL
BOB.TCTX#
       409**DCL       482<>CALL      483>>ASSIGN
BOB.TCTX$
       412**DCL       484<>CALL
BOB.TCTX$$
       408**DCL       485<>CALL
BOB.TCTX2#
       413**DCL       483<<ASSIGN
BOB.UNUSED#
       411**DCL       513<>CALL
BOB.UNUSED$
       410**DCL       514<>CALL
BOB.USRT$
       372**DCL       470<>CALL
BOBC
       364**DCL       516--CALL
BOBFMT
       416**DCL       519--CALL
BOBRPT
       295**DCL       464<>CALL
BOBRPTTX00
       338**DCL       325--DCLINIT
DAF$INIT
       273**DCL-ENT   464--CALL
DAF$WRITE
       272**DCL       516>>CALL      519>>CALL
DBM$GETBOBCAT
       274**DCL-ENT   461--CALL
DBM$PACK2
       275**DCL-ENT   466--CALL      467--CALL      468--CALL      472--CALL      475--CALL      476--CALL
       479--CALL      481--CALL      482--CALL      488--CALL      490--CALL      492--CALL      498--CALL
       500--CALL      503--CALL      504--CALL      509--CALL      513--CALL
PL6.E3A0      #001=DBD$BOBCAT File=DBD$BOBCAT.:E05TSI                            TUE 07/29/97 12:59 Page:37
DBM$PACK4
       276**DCL-ENT   470--CALL      471--CALL      473--CALL      474--CALL      477--CALL      480--CALL
       484--CALL      485--CALL      486--CALL      487--CALL      494--CALL      495--CALL      496--CALL
       497--CALL      499--CALL      501--CALL      502--CALL      505--CALL      506--CALL      507--CALL
       514--CALL
FEP#
       359**DCL       466<>CALL      516--CALL
G$BOBCAT
       346**DCL       461<>CALL
G$BOBCAT.ACCT_RES#
       347**DCL       504<>CALL
G$BOBCAT.ACCT_RES$
       350**DCL       505<>CALL
G$BOBCAT.APESSN#
       348**DCL       481<>CALL
G$BOBCAT.BOOTFID
       355**DCL       516--CALL
G$BOBCAT.CHNFREE$
       353**DCL       502<>CALL
G$BOBCAT.CHNHI
       352**DCL       500<>CALL
G$BOBCAT.CHNHI$
       353**DCL       501<>CALL
G$BOBCAT.CHNLOW
       352**DCL       498<>CALL
G$BOBCAT.CHNLOW$
       353**DCL       499<>CALL
G$BOBCAT.DCT$$
       351**DCL       474<>CALL
G$BOBCAT.DEVICES
       349**DCL       503<>CALL
G$BOBCAT.DOLIST$
       350**DCL       471<>CALL
G$BOBCAT.DPS8000FLG
       356**DCL       509<>CALL
G$BOBCAT.FEP#
PL6.E3A0      #001=DBD$BOBCAT File=DBD$BOBCAT.:E05TSI                            TUE 07/29/97 12:59 Page:38
       346**DCL       466<>CALL
G$BOBCAT.HMI#
       348**DCL       479<>CALL
G$BOBCAT.HMI$
       351**DCL       480<>CALL
G$BOBCAT.HOSTNODE
       355**DCL       467<>CALL
G$BOBCAT.IOP#
       348**DCL       475<>CALL
G$BOBCAT.IOP_START$
       353**DCL       506<>CALL
G$BOBCAT.LDCT#
       348**DCL       476<>CALL
G$BOBCAT.LDCT_START$
       351**DCL       477<>CALL
G$BOBCAT.LINK$$
       352**DCL       496<>CALL
G$BOBCAT.LINKS
       349**DCL       492<>CALL
G$BOBCAT.LINK_START$
       351**DCL       497<>CALL
G$BOBCAT.MUIS
       347**DCL       468<>CALL
G$BOBCAT.NODENAME
       346**DCL       516--CALL
G$BOBCAT.NODES
       349**DCL       490<>CALL
G$BOBCAT.OSIROUTE#
       355**DCL       488<>CALL
G$BOBCAT.OSIROUTE$
       356**DCL       486<>CALL
G$BOBCAT.OSIROUTE_START$
       355**DCL       487<>CALL
G$BOBCAT.ROUTE$$
       352**DCL       494<>CALL
G$BOBCAT.ROUTE_START$
PL6.E3A0      #001=DBD$BOBCAT File=DBD$BOBCAT.:E05TSI                            TUE 07/29/97 12:59 Page:39
       350**DCL       495<>CALL
G$BOBCAT.SFILE#
       347**DCL       472<>CALL
G$BOBCAT.SFILE$
       350**DCL       473<>CALL
G$BOBCAT.SSN_START$
       354**DCL       507<>CALL
G$BOBCAT.TCTX#
       348**DCL       482<>CALL
G$BOBCAT.TCTX$
       351**DCL       484<>CALL
G$BOBCAT.TCTX$$
       351**DCL       485<>CALL
G$BOBCAT.UNUSED#
       349**DCL       513<>CALL
G$BOBCAT.UNUSED$
       356**DCL       514<>CALL
G$BOBCAT.USRT$
       349**DCL       470<>CALL
HOST#
       360**DCL       467<>CALL      516--CALL
TYPE
       362**DCL       511<<ASSIGN    512<<ASSIGN    516--CALL
TYPE#
       361**DCL       509<>CALL      510>>IF
