VERSION E05

PL6.E3A0      #001=DBD$SFILE File=DBD$FMT_G.:E05TSI                              TUE 07/29/97 13:02 Page:1
        1        1        /*M* DBD$FMT_G  Formats FEP tables belonging to FCG G        */
        2        2        /*T***********************************************************/
        3        3        /*T*                                                         */
        4        4        /*T* Copyright (c) Bull HN Information Systems Inc., 1997    */
        5        5        /*T*                                                         */
        6        6        /*T***********************************************************/
        7        7        /*X* PLM=3,IND=5,ENU=0,ECU=0   */
        8        8
        9        9        /*F*      NAME: DBD$FMT_G
       10       10                  PURPOSE: Contains the following FEP structure formatting routines:
       11       11                                DBD$SFILE
       12       12                                DBD$ACC_RES
       13       13                                DBD$USRT
       14       14                                DBD$INTCON
       15       15                                DBD$PPUT
       16       16                                DBD$FEPMAP
       17       17        */
       18       18
       19       19        /*F*    NAME: DBD$SFILE
       20       20                PURPOSE: To process the SFILE command for FEPs.
       21       21
       22       22        */
       23       23        DBD$SFILE: PROC(TOP);
       24       24
       25       25        /*X* PLM=3,IND=5,ECU=0,ENU=0   */
       26       26
       27       27        %INCLUDE CP_6;
       28     5586        %INCLUDE G$BOBCAT_M;
       29     5606        %INCLUDE G_SFILE_M;
       30     5666        %INCLUDE GJ_MACROS_M;
       31     6139        %INCLUDE DA_FORMAT_C;
       32     6381        %INCLUDE DB_ANLZ_M;
       33     6548        %INCLUDE XU_MACRO_C;
       34     9654
       35     9655        %G$BOBCAT (FPTN=G$BOBCAT,STCLASS=AUTO);
       36     9668        %G$SFILE (FPTN=G$SFILE,STCLASS=AUTO,ARRAYED=NO);
       37     9705        %GJ_SFILE_TBL (FPTN=GJ$SFDATA, TYPE=STRUCTURE, STCLASS=AUTO);
PL6.E3A0      #001=DBD$SFILE File=DBD$FMT_G.:E05TSI                              TUE 07/29/97 13:02 Page:2
       38     9798
       39     9799        %PARSE$OUT (NAME=TOP,STCLASS=PARAM);
       40     9844        %PARSE$OUT (NAME=OUT,STCLASS=BASED);
       41     9889
       42     9890    1   DCL DAA$VALUE ENTRY(3) ALTRET;
       43     9891    1   DCL DAF$WRITE EPTR SYMREF;
       44     9892    1   DCL DAF$INIT ENTRY(1) ALTRET;
       45     9893    1   DCL DBD$FEPMAP_ERR ENTRY(1);
       46     9894    1   DCL DBM$GETMEM ENTRY(10) ALTRET;
       47     9895    1   DCL DBM$GETBOBCAT ENTRY(1) ALTRET;
       48     9896    1   DCL DBM$PACK1 ENTRY(2);
       49     9897    1   DCL DBM$PACK2 ENTRY(2);
       50     9898    1   DCL DBM$PACK4 ENTRY(2);
       51     9899
       52     9900    1   DCL DBD$FEPMAP$ PTR SYMREF;
       53     9901
       54     9902    1   DCL SFD_FMT1 CHAR(0) CONSTANT INIT(
       55     9903    1   'SFILE Entires: current used: %@4.16D   peak used: %@4.16D   max entries: %@4.16D');
       56     9904
       57     9905    1   DCL SFD_FMT2 CHAR(0) CONSTANT INIT(
       58     9906    1   'SFILE Data   : current pgs : %@4.16D   peak pgs : %@4.16D   max data pg: %@4.16D');
       59     9907
       60     9908    1   DCL SFD_FMT3 CHAR(0) CONSTANT INIT(
       61     9909    1   'SFILE Proc   : current pgs : %@4.16D   peak pgs : %@4.16D');
       62     9910
       63     9911    1   DCL SFD_FMT4 CHAR(0) CONSTANT INIT(
       64     9912    1   'Releases for memory: %@5.16D   Releases for entry: %@5.16D   Table full: %@5.16D');
       65     9913
       66     9914        %REPORT (NAME=SFILERPT1,TRUNC=YES,TABDFLT=5,HEADER=YES,TITLE=
              9914            'FEP SFILE - Shared File Table');
       67     9980        %HEADER (LAST=NO,TEXT=
       68     9981        ' #  File Identification              Flags Modtime     Instime     UC  FRQ');
       69    10023        %HEADER (TEXT=
       70    10024        '--- -------------------------------- ----- ----------- ----------- --- ---');
       71    10066    1   DCL 1 SFILE_FMT1 CHAR(0) CONSTANT INIT(
       72    10067    1   '%3D %T%S.%A %37- .%4ZH %11..11.2U %11..11.2U %3D %3D');
       73    10068
PL6.E3A0      #001=DBD$SFILE File=DBD$FMT_G.:E05TSI                              TUE 07/29/97 13:02 Page:3
       74    10069
       75    10070    1   DCL BLANK_LINE CHAR(4) SYMREF;
       76    10071    1   DCL SFILERPT2 CHAR(0) CONSTANT INIT(
       77    10072    1   ' #  PGs ROS DATA  PROC  PP# ROS   SEG1  SEG2  SEG3  SEG4  SEG5  SEG6  SEG7 ');
       78    10073    1   DCL SFILERPT3 CHAR(0) CONSTANT INIT(
       79    10074    1   '---     --- ----- -----     ----- ----- ----- ----- ----- ----- ----- -----');
       80    10075    1   DCL 1 SFILE_FMT2 CHAR(0) CONSTANT INIT(
       81    10076    1   '%3D    .%3ZH .%4ZH .%4ZH     .%4ZH .%4ZH .%4ZH .%4ZH .%4ZH .%4ZH .%4ZH .%4ZH');
       82    10077
       83    10078
       84    10079                                                /* BASED Structures                   */
       85    10080        %LIST;
       86    10081        %B$FEPMAP;
             10082    1   DCL 1 B$FEPMAP(0:0) BASED ALIGNED,
             10083    1         2 TYP UBIN BYTE CALIGNED,
             10084                                                /* 1=HHJIT   2=SFILE      3=USER      */
             10085    1         2 WHAT# UBIN BYTE CALIGNED,
             10086                                                /* INTLEVL   SFILE#       USER#       */
             10087    1         2 INDX# UBIN BYTE CALIGNED,
             10088                                                /* USR#      SFILE.SEG#   ASDT_INDX   */
             10089    1         2 SIZE UBIN BYTE CALIGNED;
             10090                                                /* # of pages #                       */
             10091        %EQU DBD_MAPTYP_HHJIT#=1;
             10092        %EQU DBD_MAPTYP_SFILE#=2;
             10093        %EQU DBD_MAPTYP_USER#=3;
       87    10095        %PLIST;
       88    10096
       89    10097    1   DCL B$SEGS(0:7) UBIN BASED;
       90    10098                                                /* AUTO Storage                       */
       91    10099    1   DCL MAP_ERR UBIN;
       92    10100    1   DCL MAP_PG# UBIN;
       93    10101    1   DCL MAP_SIZE UBIN;
       94    10102    1   DCL THIS_SIZE UBIN;
       95    10103    1   DCL PP_SEG$ PTR;
       96    10104    1   DCL PASS UBIN;                          /*which line to print*/
       97    10105    1   DCL I UBIN;
       98    10106    1   DCL J UBIN;
PL6.E3A0      #001=DBD$SFILE File=DBD$FMT_G.:E05TSI                              TUE 07/29/97 13:02 Page:4
       99    10107    1   DCL X UBIN;
      100    10108    1   DCL RADIX UBIN;
      101    10109    1   DCL SFILE# UBIN;
      102    10110    1   DCL THIS_SFILE# UBIN;
      103    10111    1   DCL SFILE$ UBIN;
      104    10112    1   DCL THIS_SFILE$ UBIN;
      105    10113    1   DCL SFILE_SIZE UBIN;                    /*G$SFILE L6 word size                */
      106    10114
      107    10115        /* G$SFILE data is packed into auto */
      108    10116    1   DCL FLAGS UBIN;
      109    10117    1   DCL MODTIME UBIN;
      110    10118    1   DCL INSTIME UBIN;
      111    10119    1   DCL UC UBIN;
      112    10120    1   DCL FRQ UBIN;
      113    10121    1   DCL ROS# UBIN;
      114    10122    1   DCL DATA# UBIN;
      115    10123    1   DCL PROC# UBIN;
      116    10124    1   DCL ROS_PG UBIN;
      117    10125    1   DCL SEG1_PG UBIN;
      118    10126    1   DCL SEG2_PG UBIN;
      119    10127    1   DCL SEG3_PG UBIN;
      120    10128    1   DCL SEG4_PG UBIN;
      121    10129    1   DCL SEG5_PG UBIN;
      122    10130    1   DCL SEG6_PG UBIN;
      123    10131    1   DCL SEG7_PG UBIN;
      124    10132    1   DCL SEG_1_DATA UBIN;
      125    10133    1   DCL SEG_1_PROC UBIN;
      126    10134    1   DCL SEG_NXT_DATA UBIN;
      127    10135
      128    10136        %EJECT;
PL6.E3A0      #001=DBD$SFILE File=DBD$FMT_G.:E05TSI                              TUE 07/29/97 13:02 Page:5
      129    10137
      130    10138    1      SFILE_SIZE = (SIZEC(G$SFILE)+1) / 2;
      131    10139    1      CALL DBM$GETBOBCAT(G$BOBCAT)
      132    10140    2      WHENALTRETURN DO; RETURN; END;
      133    10141    1      CALL DBM$PACK4(G$BOBCAT.SFILE$,SFILE$);
      134    10142    1      CALL DBM$PACK2(G$BOBCAT.SFILE#,SFILE#);
      135    10143
      136    10144    2      DO PASS=0 TO 1;
      137    10145    2           IF DBD$FEPMAP$ = ADDR(NIL)
      138    10146    3           THEN DO;
      139    10147    3                IF PASS=0
      140    10148    3                THEN CALL DAF$INIT(SFILERPT1);
      141    10149    4                ELSE DO;
      142    10150    4                     CALL DAF$WRITE(VECTOR(BLANK_LINE));
      143    10151    4                     CALL DAF$WRITE(VECTOR(BLANK_LINE));
      144    10152    4                     CALL DAF$WRITE(VECTOR(SFILERPT2));
      145    10153    4                     CALL DAF$WRITE(VECTOR(SFILERPT3));
      146    10154    4                     END;
      147    10155    3                END/*do if not mapping*/;
      148    10156
      149    10157    2           ELSE GOTO SFILE_LOOP;
      150    10158
      151    10159    2           IF TOP.NSUBLKS=0
      152    10160    3           THEN DO;
      153    10161    3   SFILE_LOOP:  ;
      154    10162    4                DO I=1 TO SFILE#;
      155    10163    4                     CALL DISP_SFILE;
      156    10164    4                     END;
      157    10165    3                END;
      158    10166
      159    10167    3           ELSE DO;                        /*display a single sfile entry*/
      160    10168    4                DO X=0 TO TOP.NSUBLKS-1;
      161    10169    4                     CALL DAA$VALUE(TOP.SUBLK$(X)->OUT,I,RADIX);
      162    10170    4                     IF (I > 0) AND (I <= SFILE#)
      163    10171    4                     THEN CALL DISP_SFILE;
      164    10172    4                     END;
      165    10173    3                END;
PL6.E3A0      #001=DBD$SFILE File=DBD$FMT_G.:E05TSI                              TUE 07/29/97 13:02 Page:6
      166    10174
      167    10175    2           END/*do pass=0 to 1*/;
      168    10176    1      CALL DAF$WRITE(VECTOR(BLANK_LINE));
      169    10177    1      CALL DAF$WRITE(VECTOR(BLANK_LINE));
      170    10178    1      RETURN;
      171    10179        %EJECT;
PL6.E3A0      #001=DBD$SFILE File=DBD$FMT_G.:E05TSI                              TUE 07/29/97 13:02 Page:7
      172    10180
      173    10181    1   DISP_SFILE: PROC;
      174    10182    2      THIS_SFILE$ = SFILE$ + (SFILE_SIZE *I);
      175    10183    2      CALL DBM$GETMEM(THIS_SFILE$,G$SFILE,0,SIZEC(G$SFILE),,SIZEC(G$SFILE));
      176    10184
      177    10185    2      CALL DBM$PACK4(G$SFILE.INSTTIME,INSTIME);
      178    10186    2      IF INSTIME = 0 THEN RETURN;
      179    10187
      180    10188    2      IF PASS = 0
      181    10189    3      THEN DO;
      182    10190    3           IF DBD$FEPMAP$ = ADDR(NIL)
      183    10191    4           THEN DO;
      184    10192    4                CALL DBM$PACK2(G$SFILE.RU_FLGS,FLAGS);
      185    10193    4                CALL DBM$PACK4(G$SFILE.MODTIME,MODTIME);
      186    10194    4                CALL DBM$PACK1(G$SFILE.UC,UC);
      187    10195    4                CALL DBM$PACK1(G$SFILE.FRQ,FRQ);
      188    10196    4                CALL DAF$WRITE(VECTOR(SFILE_FMT1),
      189    10197    4                  VECTOR(I),
      190    10198    4                  VECTOR(G$SFILE.NAME),
      191    10199    4                  VECTOR(G$SFILE.ACCT),
      192    10200    4                  VECTOR(FLAGS),
      193    10201    4                  VECTOR(MODTIME),
      194    10202    4                  VECTOR(INSTIME),
      195    10203    4                  VECTOR(UC),
      196    10204    4                  VECTOR(FRQ));
      197    10205    4                END/*do if not MAP*/;
      198    10206    3           END/*pass 0*/;
      199    10207
      200    10208    3      ELSE DO;
      201    10209    3           CALL DBM$PACK1(G$SFILE.PGSZ_ROS,ROS#);
      202    10210    3           CALL DBM$PACK2(G$SFILE.PGSZ_DATA,DATA#);
      203    10211    3           CALL DBM$PACK2(G$SFILE.PGSZ_PROC,PROC#);
      204    10212    3           CALL DBM$PACK2(G$SFILE.PP_ROS,ROS_PG);
      205    10213    3           CALL DBM$PACK2(G$SFILE.PP_SEG1,SEG1_PG);
      206    10214    3           CALL DBM$PACK2(G$SFILE.PP_SEG2,SEG2_PG);
      207    10215    3           CALL DBM$PACK2(G$SFILE.PP_SEG3,SEG3_PG);
      208    10216    3           CALL DBM$PACK2(G$SFILE.PP_SEG4,SEG4_PG);
PL6.E3A0      #001=DBD$SFILE File=DBD$FMT_G.:E05TSI                              TUE 07/29/97 13:02 Page:8
      209    10217    3           CALL DBM$PACK2(G$SFILE.PP_SEG5,SEG5_PG);
      210    10218    3           CALL DBM$PACK2(G$SFILE.PP_SEG6,SEG6_PG);
      211    10219    3           CALL DBM$PACK2(G$SFILE.PP_SEG7,SEG7_PG);
      212    10220    3           CALL DBM$PACK2(G$SFILE.SEG_1ST_DATA,SEG_1_DATA);
      213    10221    3           CALL DBM$PACK2(G$SFILE.SEG_1ST_PROC,SEG_1_PROC);
      214    10222
      215    10223    3           IF DBD$FEPMAP$ = ADDR(NIL)
      216    10224    4           THEN DO;
      217    10225    4                CALL DAF$WRITE(VECTOR(SFILE_FMT2),
      218    10226    4                  VECTOR(I),
      219    10227    4                  VECTOR(ROS#),
      220    10228    4                  VECTOR(DATA#),
      221    10229    4                  VECTOR(PROC#),
      222    10230    4                  VECTOR(ROS_PG),
      223    10231    4                  VECTOR(SEG1_PG),
      224    10232    4                  VECTOR(SEG2_PG),
      225    10233    4                  VECTOR(SEG3_PG),
      226    10234    4                  VECTOR(SEG4_PG),
      227    10235    4                  VECTOR(SEG5_PG),
      228    10236    4                  VECTOR(SEG6_PG),
      229    10237    4                  VECTOR(SEG7_PG));
      230    10238    4                END;
      231    10239
      232    10240    4           ELSE DO;
      233    10241    4                PP_SEG$ = ADDR(ROS_PG);
      234    10242    4                IF ROS# ~= 0
      235    10243    5                THEN DO;
      236    10244    5                     J=7;                  /*index for g_sfile_seg*/
      237    10245    5                     THIS_SIZE = ROS#;
      238    10246    5                     MAP_PG# = ROS_PG;
      239    10247    5                     CALL SET_MAP2;
      240    10248    5                     END/*if ros# ~ 0*/;
      241    10249
      242    10250    4                PP_SEG$ = ADDR(SEG1_PG);
      243    10251    4                IF DATA# ~= 0
      244    10252    5                THEN DO;
      245    10253    5                     IF G$SFILE.RU_FLGS.LIB
PL6.E3A0      #001=DBD$SFILE File=DBD$FMT_G.:E05TSI                              TUE 07/29/97 13:02 Page:9
      246    10254    6                     THEN DO;
      247    10255    6                          THIS_SIZE = DATA#;
      248    10256    6                          SEG_NXT_DATA = SEG_1_DATA;
      249    10257    6                          END;
      250    10258
      251    10259    6                     ELSE DO;
      252    10260    6                          CALL DBM$PACK2(G$SFILE.USR_DATA.PGSZ_DATA1,THIS_SIZE);
      253    10261    6                          J = SEG_1_DATA;
      254    10262    6                          CALL SET_MAP;
      255    10263    6                          THIS_SIZE = DATA# - THIS_SIZE/*whats remaining*/;
      256    10264    6                          SEG_NXT_DATA = SEG_1_DATA+1;
      257    10265    6                          END;
      258    10266
      259    10267    6                     DO J=SEG_NXT_DATA TO SEG_1_PROC-1;
      260    10268    6                          CALL SET_MAP;
      261    10269    6                          END;
      262    10270    5                     END/*if data# ~0*/;
      263    10271
      264    10272    4                IF PROC# ~= 0
      265    10273    5                THEN DO;
      266    10274    5                     THIS_SIZE = PROC#;
      267    10275
      268    10276    6                     DO J=SEG_1_PROC TO 6;
      269    10277    6                          CALL SET_MAP;
      270    10278    6                          END;
      271    10279    5                     END/*if proc# ~0*/;
      272    10280    4                END/*do if map command*/;
      273    10281    3           END;
      274    10282    2   END DISP_SFILE;
      275    10283
      276    10284        %EJECT;
PL6.E3A0      #001=DBD$SFILE File=DBD$FMT_G.:E05TSI                              TUE 07/29/97 13:02 Page:10
      277    10285    1   SET_MAP: PROC;
      278    10286    2      MAP_PG# = PP_SEG$->B$SEGS(J);
      279    10287
      280    10288    2   SET_MAP2: ENTRY;
      281    10289    2      IF THIS_SIZE > 256
      282    10290    2      THEN MAP_SIZE = 256;
      283    10291    2      ELSE MAP_SIZE = THIS_SIZE;
      284    10292
      285    10293    2      IF MAP_SIZE ~= 0
      286    10294    3      THEN DO;
      287    10295    3           MAP_ERR = 0;
      288    10296    3           IF DBD$FEPMAP$->B$FEPMAP(MAP_PG#) ~= '0'B
      289    10297    4           THEN DO;
      290    10298    4                CALL DBD$FEPMAP_ERR(MAP_PG#);
      291    10299    4                MAP_ERR = 1;
      292    10300    4                END;
      293    10301
      294    10302    3           DBD$FEPMAP$->B$FEPMAP.TYP(MAP_PG#) = %DBD_MAPTYP_SFILE#;
      295    10303    3           DBD$FEPMAP$->B$FEPMAP.WHAT#(MAP_PG#) = I;
      296    10304    3           DBD$FEPMAP$->B$FEPMAP.INDX#(MAP_PG#) = J;
      297    10305    3           DBD$FEPMAP$->B$FEPMAP.SIZE(MAP_PG#) = MAP_SIZE;
      298    10306
      299    10307    3           IF MAP_ERR ~= 0
      300    10308    4           THEN DO;
      301    10309    4                CALL DBD$FEPMAP_ERR(MAP_PG#);
      302    10310    4                END;
      303    10311    3           END;
      304    10312
      305    10313    2      THIS_SIZE = THIS_SIZE - MAP_SIZE;
      306    10314
      307    10315    2      RETURN;
      308    10316    2   END SET_MAP;
      309    10317        %EJECT;
PL6.E3A0      #001=DBD$SFILE File=DBD$FMT_G.:E05TSI                              TUE 07/29/97 13:02 Page:11
      310    10318
      311    10319    1   DBD$SFILE_DATA: ENTRY(TOP);
      312    10320
      313    10321    1      CALL DBM$GETBOBCAT(G$BOBCAT)
      314    10322    2      WHENALTRETURN DO; RETURN; END;
      315    10323    1      CALL DBM$PACK4(G$BOBCAT.SFDATA$,SFILE$);
      316    10324
      317    10325    1      CALL DBM$GETMEM(SFILE$,GJ$SFDATA,0,SIZEC(GJ$SFDATA),,SIZEC(GJ$SFDATA));
      318    10326    1      CALL DAF$WRITE(VECTOR(SFD_FMT1),
      319    10327    1        VECTOR(GJ$SFDATA.CURR#),
      320    10328    1        VECTOR(GJ$SFDATA.PEAK#),
      321    10329    1        VECTOR(GJ$SFDATA.MAX#));
      322    10330
      323    10331    1      CALL DAF$WRITE(VECTOR(SFD_FMT2),
      324    10332    1        VECTOR(GJ$SFDATA.CUR_DATA),
      325    10333    1        VECTOR(GJ$SFDATA.PEAK_DATA),
      326    10334    1        VECTOR(GJ$SFDATA.MAX_DATA));
      327    10335
      328    10336    1      CALL DAF$WRITE(VECTOR(SFD_FMT3),
      329    10337    1        VECTOR(GJ$SFDATA.CUR_PROC),
      330    10338    1        VECTOR(GJ$SFDATA.PEAK_PROC));
      331    10339
      332    10340    1      CALL DAF$WRITE(VECTOR(BLANK_LINE));
      333    10341    1      CALL DAF$WRITE(VECTOR(SFD_FMT4),
      334    10342    1        VECTOR(GJ$SFDATA.REL_4MEM),
      335    10343    1        VECTOR(GJ$SFDATA.REL_4SFILE),
      336    10344    1        VECTOR(GJ$SFDATA.TBL_FULL));
      337    10345
      338    10346    1      RETURN;
      339    10347    1   END DBD$SFILE;
      340    10348        %EOD;

PL6.E3A0      #001=DBD$SFILE File=DBD$FMT_G.:E05TSI                              TUE 07/29/97 13:02 Page:12
--  Include file information  --

   XU_MACRO_C.:E05TOU  is referenced.
   DB_ANLZ_M.:E05TOU  is referenced.
   DA_FORMAT_C.:E05TOU  is referenced.
   GJ_MACROS_M.:E05TOU  is referenced.
   G_SFILE_M.:E05TOU  is referenced.
   G$BOBCAT_M.:E05TOU  is referenced.
   CP_6_C.:E05TOU  is referenced.
   CP_6.:E05TOU  cannot be made into a system file and is referenced.
      No diagnostics issued in procedure DBD$SFILE.

   Procedure DBD$SFILE requires 816 words for executable code.
   Procedure DBD$SFILE requires 214 words of local(AUTO) storage.

PL6.E3A0      #001=DBD$SFILE File=DBD$FMT_G.:E05TSI                              TUE 07/29/97 13:02 Page:13

 Object Unit name= DBD$SFILE                                  File name= DBD$FMT_G.:E05TOU
 UTS= JUL 29 '97 13:02:20.76 TUE                              Compiler= PL-6/E31         Sev=      00
 SharedLib= :SHARED_SYSTEM                                    Alt SharedLib=


    ****  Control sections  ****

 Sect   Type Bound  Init  Size OctSiz  Section name(segment info)
    0   DCB   even  none     0      0  M$UC
    1  RoData even  UTS    145    221  DBD$SFILE
    2   Data  even  none    62     76  DBD$SFILE
    3   Proc  even  none   816   1460  DBD$SFILE
    4  RoData even  none    60     74  DBD$SFILE

    ****  Entry defs  ****

                              Check   Calling
                             calling  sequence
  Sect OctLoc Primary Altret sequence   type   Parms  Name
     3      0   yes            yes      Std        1  DBD$SFILE
     3   1214                  yes      Std        1  DBD$SFILE_DATA
PL6.E3A0      #001=DBD$SFILE File=DBD$FMT_G.:E05TSI                              TUE 07/29/97 13:02 Page:14

  ****  Entry refs  ****

         Check        Calling
        calling       sequence
Altret sequence SRef   type   Args  Name
 yes     yes           Std       1 DBM$GETBOBCAT
         yes           Std       2 DBM$PACK4
         yes           Std       2 DBM$PACK2
 yes     yes           Std      10 DBM$GETMEM
 yes     yes           Std       1 DAF$INIT
 yes     yes           Std       3 DAA$VALUE
         yes           Std       2 DBM$PACK1
         yes           Std       1 DBD$FEPMAP_ERR
                       nStd      0 X66_AUTO_1
                       Std       0 B_CONSPOOL_D
                       nStd      0 X66_ARET

  ****  Data refs  ****

  Flags:  r = read only, s = secondary
Flgs Name                             Flgs Name                             Flgs Name
     M$UC                                  DAF$WRITE                             DBD$FEPMAP$
     BLANK_LINE                            B_VECTNIL

  ****  Segment refs  ****

  Flags:  r = read only, s = secondary
Flgs Name                             Flgs Name                             Flgs Name
     ISSID                                 NULLSID
PL6.E3A0      #001=DBD$SFILE File=DBD$FMT_G.:E05TSI                              TUE 07/29/97 13:02 Page:15


        1        1        /*M* DBD$FMT_G  Formats FEP tables belonging to FCG G        */
        2        2        /*T***********************************************************/
        3        3        /*T*                                                         */
        4        4        /*T* Copyright (c) Bull HN Information Systems Inc., 1997    */
        5        5        /*T*                                                         */
        6        6        /*T***********************************************************/
        7        7        /*X* PLM=3,IND=5,ENU=0,ECU=0   */
        8        8
        9        9        /*F*      NAME: DBD$FMT_G
       10       10                  PURPOSE: Contains the following FEP structure formatting routines:
       11       11                                DBD$SFILE
       12       12                                DBD$ACC_RES
       13       13                                DBD$USRT
       14       14                                DBD$INTCON
       15       15                                DBD$PPUT
       16       16                                DBD$FEPMAP
       17       17        */
       18       18
       19       19        /*F*    NAME: DBD$SFILE
       20       20                PURPOSE: To process the SFILE command for FEPs.
       21       21
       22       22        */
       23       23        DBD$SFILE: PROC(TOP);

     23  3 000000   000000 700200 xent  DBD$SFILE    TSX0  ! X66_AUTO_1
         3 000001   000326 000001                    ZERO    214,1

       24       24
       25       25        /*X* PLM=3,IND=5,ECU=0,ENU=0   */
       26       26
       27       27        %INCLUDE CP_6;
       28     5586        %INCLUDE G$BOBCAT_M;
       29     5606        %INCLUDE G_SFILE_M;
       30     5666        %INCLUDE GJ_MACROS_M;
       31     6139        %INCLUDE DA_FORMAT_C;
       32     6381        %INCLUDE DB_ANLZ_M;
PL6.E3A0      #001=DBD$SFILE File=DBD$FMT_G.:E05TSI                              TUE 07/29/97 13:02 Page:16
       33     6548        %INCLUDE XU_MACRO_C;
       34     9654
       35     9655        %G$BOBCAT (FPTN=G$BOBCAT,STCLASS=AUTO);
       36     9668        %G$SFILE (FPTN=G$SFILE,STCLASS=AUTO,ARRAYED=NO);
       37     9705        %GJ_SFILE_TBL (FPTN=GJ$SFDATA, TYPE=STRUCTURE, STCLASS=AUTO);
       38     9798
       39     9799        %PARSE$OUT (NAME=TOP,STCLASS=PARAM);
       40     9844        %PARSE$OUT (NAME=OUT,STCLASS=BASED);
       41     9889
       42     9890    1   DCL DAA$VALUE ENTRY(3) ALTRET;
       43     9891    1   DCL DAF$WRITE EPTR SYMREF;
       44     9892    1   DCL DAF$INIT ENTRY(1) ALTRET;
       45     9893    1   DCL DBD$FEPMAP_ERR ENTRY(1);
       46     9894    1   DCL DBM$GETMEM ENTRY(10) ALTRET;
       47     9895    1   DCL DBM$GETBOBCAT ENTRY(1) ALTRET;
       48     9896    1   DCL DBM$PACK1 ENTRY(2);
       49     9897    1   DCL DBM$PACK2 ENTRY(2);
       50     9898    1   DCL DBM$PACK4 ENTRY(2);
       51     9899
       52     9900    1   DCL DBD$FEPMAP$ PTR SYMREF;
       53     9901
       54     9902    1   DCL SFD_FMT1 CHAR(0) CONSTANT INIT(
       55     9903    1   'SFILE Entires: current used: %@4.16D   peak used: %@4.16D  max entries: %@4.16D');
       56     9904
       57     9905    1   DCL SFD_FMT2 CHAR(0) CONSTANT INIT(
       58     9906    1   'SFILE Data   : current pgs : %@4.16D   peak pgs : %@4.16D  max data pg: %@4.16D');
       59     9907
       60     9908    1   DCL SFD_FMT3 CHAR(0) CONSTANT INIT(
       61     9909    1   'SFILE Proc   : current pgs : %@4.16D   peak pgs : %@4.16D');
       62     9910
       63     9911    1   DCL SFD_FMT4 CHAR(0) CONSTANT INIT(
       64     9912    1   'Releases for memory: %@5.16D   Releases for entry: %@5.16D  Table full: %@5.16D');
       65     9913
       66     9914        %REPORT (NAME=SFILERPT1,TRUNC=YES,TABDFLT=5,HEADER=YES,TITLE=
              9914            'FEP SFILE - Shared File Table');
       67     9980        %HEADER (LAST=NO,TEXT=
       68     9981        ' #  File Identification              Flags Modtime     Instime     UC  FRQ');
PL6.E3A0      #001=DBD$SFILE File=DBD$FMT_G.:E05TSI                              TUE 07/29/97 13:02 Page:17
       69    10023        %HEADER (TEXT=
       70    10024        '--- -------------------------------- ----- ----------- ----------- --- ---');
       71    10066    1   DCL 1 SFILE_FMT1 CHAR(0) CONSTANT INIT(
       72    10067    1   '%3D %T%S.%A %37- .%4ZH %11..11.2U %11..11.2U %3D %3D');
       73    10068
       74    10069
       75    10070    1   DCL BLANK_LINE CHAR(4) SYMREF;
       76    10071    1   DCL SFILERPT2 CHAR(0) CONSTANT INIT(
       77    10072    1   ' #  PGs ROS DATA  PROC  PP# ROS   SEG1  SEG2  SEG3  SEG4  SEG5  SEG6  SEG7 ');
       78    10073    1   DCL SFILERPT3 CHAR(0) CONSTANT INIT(
       79    10074    1   '---     --- ----- -----     ----- ----- ----- ----- ----- ----- ----- -----');
       80    10075    1   DCL 1 SFILE_FMT2 CHAR(0) CONSTANT INIT(
       81    10076    1   '%3D    .%3ZH .%4ZH .%4ZH     .%4ZH .%4ZH .%4ZH .%4ZH .%4ZH .%4ZH .%4ZH .%4ZH');
       82    10077
       83    10078
       84    10079                                                /* BASED Structures                   */
       85    10080        %LIST;
       86    10081        %B$FEPMAP;
             10082    1   DCL 1 B$FEPMAP(0:0) BASED ALIGNED,
             10083    1         2 TYP UBIN BYTE CALIGNED,
             10084                                                /* 1=HHJIT   2=SFILE      3=USER      */
             10085    1         2 WHAT# UBIN BYTE CALIGNED,
             10086                                                /* INTLEVL   SFILE#       USER#       */
             10087    1         2 INDX# UBIN BYTE CALIGNED,
             10088                                                /* USR#      SFILE.SEG#   ASDT_INDX   */
             10089    1         2 SIZE UBIN BYTE CALIGNED;
             10090                                                /* # of pages #                       */
             10091        %EQU DBD_MAPTYP_HHJIT#=1;
             10092        %EQU DBD_MAPTYP_SFILE#=2;
             10093        %EQU DBD_MAPTYP_USER#=3;
       87    10095        %PLIST;
       88    10096
       89    10097    1   DCL B$SEGS(0:7) UBIN BASED;
       90    10098                                                /* AUTO Storage                       */
       91    10099    1   DCL MAP_ERR UBIN;
       92    10100    1   DCL MAP_PG# UBIN;
       93    10101    1   DCL MAP_SIZE UBIN;
PL6.E3A0      #001=DBD$SFILE File=DBD$FMT_G.:E05TSI                              TUE 07/29/97 13:02 Page:18
       94    10102    1   DCL THIS_SIZE UBIN;
       95    10103    1   DCL PP_SEG$ PTR;
       96    10104    1   DCL PASS UBIN;                          /*which line to print*/
       97    10105    1   DCL I UBIN;
       98    10106    1   DCL J UBIN;
       99    10107    1   DCL X UBIN;
      100    10108    1   DCL RADIX UBIN;
      101    10109    1   DCL SFILE# UBIN;
      102    10110    1   DCL THIS_SFILE# UBIN;
      103    10111    1   DCL SFILE$ UBIN;
      104    10112    1   DCL THIS_SFILE$ UBIN;
      105    10113    1   DCL SFILE_SIZE UBIN;                    /*G$SFILE L6 word size                */
      106    10114
      107    10115        /* G$SFILE data is packed into auto */
      108    10116    1   DCL FLAGS UBIN;
      109    10117    1   DCL MODTIME UBIN;
      110    10118    1   DCL INSTIME UBIN;
      111    10119    1   DCL UC UBIN;
      112    10120    1   DCL FRQ UBIN;
      113    10121    1   DCL ROS# UBIN;
      114    10122    1   DCL DATA# UBIN;
      115    10123    1   DCL PROC# UBIN;
      116    10124    1   DCL ROS_PG UBIN;
      117    10125    1   DCL SEG1_PG UBIN;
      118    10126    1   DCL SEG2_PG UBIN;
      119    10127    1   DCL SEG3_PG UBIN;
      120    10128    1   DCL SEG4_PG UBIN;
      121    10129    1   DCL SEG5_PG UBIN;
      122    10130    1   DCL SEG6_PG UBIN;
      123    10131    1   DCL SEG7_PG UBIN;
      124    10132    1   DCL SEG_1_DATA UBIN;
      125    10133    1   DCL SEG_1_PROC UBIN;
      126    10134    1   DCL SEG_NXT_DATA UBIN;
      127    10135
      128    10136        %EJECT;
PL6.E3A0      #001=DBD$SFILE File=DBD$FMT_G.:E05TSI                              TUE 07/29/97 13:02 Page:19
      129    10137
      130    10138    1      SFILE_SIZE = (SIZEC(G$SFILE)+1) / 2;

  10138  3 000002   000060 235007                    LDA     48,DL
         3 000003   200147 755100                    STA     SFILE_SIZE,,AUTO

      131    10139    1      CALL DBM$GETBOBCAT(G$BOBCAT)

  10139  3 000004   200004 630500                    EPPR0   G$BOBCAT,,AUTO
         3 000005   200200 450500                    STP0    SEG_NXT_DATA+6,,AUTO
         3 000006   200200 630500                    EPPR0   SEG_NXT_DATA+6,,AUTO
         3 000007   000017 631400 xsym               EPPR1   B_VECTNIL+15
         3 000010   000000 701000 xent               TSX1    DBM$GETBOBCAT
         3 000011   000013 702000 3                  TSX2    s:10140
         3 000012   000014 710000 3                  TRA     s:10141

      132    10140    2      WHENALTRETURN DO; RETURN; END;

  10140  3 000013   000000 702200 xent               TSX2  ! X66_ARET

      133    10141    1      CALL DBM$PACK4(G$BOBCAT.SFILE$,SFILE$);

  10141  3 000014   200145 630500                    EPPR0   SFILE$,,AUTO
         3 000015   200201 450500                    STP0    SEG_NXT_DATA+7,,AUTO
         3 000016   200023 631500                    EPPR1   G$BOBCAT+15,,AUTO
         3 000017   200200 451500                    STP1    SEG_NXT_DATA+6,,AUTO
         3 000020   200200 630500                    EPPR0   SEG_NXT_DATA+6,,AUTO
         3 000021   000020 631400 xsym               EPPR1   B_VECTNIL+16
         3 000022   000000 701000 xent               TSX1    DBM$PACK4
         3 000023   000000 011000                    NOP     0

      134    10142    1      CALL DBM$PACK2(G$BOBCAT.SFILE#,SFILE#);

  10142  3 000024   200143 630500                    EPPR0   SFILE#,,AUTO
         3 000025   200201 450500                    STP0    SEG_NXT_DATA+7,,AUTO
         3 000026   200202 452500                    STP2    SEG_NXT_DATA+8,,AUTO
         3 000027   200202 236100                    LDQ     SEG_NXT_DATA+8,,AUTO
PL6.E3A0      #001=DBD$SFILE File=DBD$FMT_G.:E05TSI                              TUE 07/29/97 13:02 Page:20
         3 000030   000000 036000 4                  ADLQ    0
         3 000031   200200 756100                    STQ     SEG_NXT_DATA+6,,AUTO
         3 000032   200200 630500                    EPPR0   SEG_NXT_DATA+6,,AUTO
         3 000033   000020 631400 xsym               EPPR1   B_VECTNIL+16
         3 000034   000000 701000 xent               TSX1    DBM$PACK2
         3 000035   000000 011000                    NOP     0

      135    10143
      136    10144    2      DO PASS=0 TO 1;

  10144  3 000036   200136 450100                    STZ     PASS,,AUTO

      137    10145    2           IF DBD$FEPMAP$ = ADDR(NIL)

  10145  3 000037   000000 236000 xsym               LDQ     DBD$FEPMAP$
         3 000040   000001 116000 xsym               CMPQ    B_VECTNIL+1
         3 000041   000101 601000 3                  TNZ     SFILE_LOOP

      138    10146    3           THEN DO;

      139    10147    3                IF PASS=0

  10147  3 000042   200136 235100                    LDA     PASS,,AUTO
         3 000043   000051 601000 3                  TNZ     s:10150

      140    10148    3                THEN CALL DAF$INIT(SFILERPT1);

  10148  3 000044   000001 630400 4                  EPPR0   1
         3 000045   000017 631400 xsym               EPPR1   B_VECTNIL+15
         3 000046   000000 701000 xent               TSX1    DAF$INIT
         3 000047   000000 011000                    NOP     0
         3 000050   000076 710000 3                  TRA     s:10159

      141    10149    4                ELSE DO;

      142    10150    4                     CALL DAF$WRITE(VECTOR(BLANK_LINE));

PL6.E3A0      #001=DBD$SFILE File=DBD$FMT_G.:E05TSI                              TUE 07/29/97 13:02 Page:21
  10150  3 000051   000004 630400 4                  EPPR0   4
         3 000052   000000 220000 xsym               LDX0    DAF$WRITE
         3 000053   000017 631400 xsym               EPPR1   B_VECTNIL+15
         3 000054   000000 701010                    TSX1    0,X0
         3 000055   000000 011000                    NOP     0

      143    10151    4                     CALL DAF$WRITE(VECTOR(BLANK_LINE));

  10151  3 000056   000004 630400 4                  EPPR0   4
         3 000057   000000 220000 xsym               LDX0    DAF$WRITE
         3 000060   000017 631400 xsym               EPPR1   B_VECTNIL+15
         3 000061   000000 701010                    TSX1    0,X0
         3 000062   000000 011000                    NOP     0

      144    10152    4                     CALL DAF$WRITE(VECTOR(SFILERPT2));

  10152  3 000063   000010 630400 4                  EPPR0   8
         3 000064   000000 220000 xsym               LDX0    DAF$WRITE
         3 000065   000017 631400 xsym               EPPR1   B_VECTNIL+15
         3 000066   000000 701010                    TSX1    0,X0
         3 000067   000000 011000                    NOP     0

      145    10153    4                     CALL DAF$WRITE(VECTOR(SFILERPT3));

  10153  3 000070   000014 630400 4                  EPPR0   12
         3 000071   000000 220000 xsym               LDX0    DAF$WRITE
         3 000072   000017 631400 xsym               EPPR1   B_VECTNIL+15
         3 000073   000000 701010                    TSX1    0,X0
         3 000074   000000 011000                    NOP     0

      146    10154    4                     END;

      147    10155    3                END/*do if not mapping*/;

  10155  3 000075   000076 710000 3                  TRA     s:10159

      148    10156
PL6.E3A0      #001=DBD$SFILE File=DBD$FMT_G.:E05TSI                              TUE 07/29/97 13:02 Page:22
      149    10157    2           ELSE GOTO SFILE_LOOP;
      150    10158
      151    10159    2           IF TOP.NSUBLKS=0

  10159  3 000076   200003 470500                    LDP0    @TOP,,AUTO
         3 000077   000001 220100                    LDX0    1,,PR0
         3 000100   000115 601000 3                  TNZ     s:10168

      152    10160    3           THEN DO;

  10157  3 000101                       SFILE_LOOP   null
      153    10161    3   SFILE_LOOP:  ;
      154    10162    4                DO I=1 TO SFILE#;

  10162  3 000101   000001 235007                    LDA     1,DL
         3 000102   200137 755100                    STA     I,,AUTO
         3 000103   000111 710000 3                  TRA     s:10164+3

      155    10163    4                     CALL DISP_SFILE;

  10163  3 000104   000173 701000 3                  TSX1    DISP_SFILE
         3 000105   000000 011000                    NOP     0

      156    10164    4                     END;

  10164  3 000106   200137 235100                    LDA     I,,AUTO
         3 000107   000001 035007                    ADLA    1,DL
         3 000110   200137 755100                    STA     I,,AUTO
         3 000111   200143 236100                    LDQ     SFILE#,,AUTO
         3 000112   200137 116100                    CMPQ    I,,AUTO
         3 000113   000104 603000 3                  TRC     s:10163

      157    10165    3                END;

  10165  3 000114   000153 710000 3                  TRA     s:10175

      158    10166
PL6.E3A0      #001=DBD$SFILE File=DBD$FMT_G.:E05TSI                              TUE 07/29/97 13:02 Page:23
      159    10167    3           ELSE DO;                        /*display a single sfile entry*/

      160    10168    4                DO X=0 TO TOP.NSUBLKS-1;

  10168  3 000115   200141 450100                    STZ     X,,AUTO
         3 000116   000145 710000 3                  TRA     s:10172+3

      161    10169    4                     CALL DAA$VALUE(TOP.SUBLK$(X)->OUT,I,RADIX);

  10169  3 000117   200003 470500                    LDP0    @TOP,,AUTO
         3 000120   200141 720100                    LXL0    X,,AUTO
         3 000121   000003 471510                    LDP1    3,X0,PR0
         3 000122   200142 633500                    EPPR3   RADIX,,AUTO
         3 000123   200202 453500                    STP3    SEG_NXT_DATA+8,,AUTO
         3 000124   200137 634500                    EPPR4   I,,AUTO
         3 000125   200201 454500                    STP4    SEG_NXT_DATA+7,,AUTO
         3 000126   200200 451500                    STP1    SEG_NXT_DATA+6,,AUTO
         3 000127   200200 630500                    EPPR0   SEG_NXT_DATA+6,,AUTO
         3 000130   000021 631400 xsym               EPPR1   B_VECTNIL+17
         3 000131   000000 701000 xent               TSX1    DAA$VALUE
         3 000132   000000 011000                    NOP     0

      162    10170    4                     IF (I > 0) AND (I <= SFILE#)

  10170  3 000133   200137 235100                    LDA     I,,AUTO
         3 000134   000142 600000 3                  TZE     s:10172
         3 000135   200143 236100                    LDQ     SFILE#,,AUTO
         3 000136   200137 116100                    CMPQ    I,,AUTO
         3 000137   000142 602000 3                  TNC     s:10172

      163    10171    4                     THEN CALL DISP_SFILE;

  10171  3 000140   000173 701000 3                  TSX1    DISP_SFILE
         3 000141   000000 011000                    NOP     0

      164    10172    4                     END;

PL6.E3A0      #001=DBD$SFILE File=DBD$FMT_G.:E05TSI                              TUE 07/29/97 13:02 Page:24
  10172  3 000142   200141 235100                    LDA     X,,AUTO
         3 000143   000001 035007                    ADLA    1,DL
         3 000144   200141 755100                    STA     X,,AUTO
         3 000145   200003 470500                    LDP0    @TOP,,AUTO
         3 000146   000001 236100                    LDQ     1,,PR0
         3 000147   000022 772000                    QRL     18
         3 000150   200141 116100                    CMPQ    X,,AUTO
         3 000151   000153 600000 3                  TZE     s:10175
         3 000152   000117 603000 3                  TRC     s:10169

      165    10173    3                END;

      166    10174
      167    10175    2           END/*do pass=0 to 1*/;

  10175  3 000153   200136 235100                    LDA     PASS,,AUTO
         3 000154   000001 035007                    ADLA    1,DL
         3 000155   200136 755100                    STA     PASS,,AUTO
         3 000156   000002 115007                    CMPA    2,DL
         3 000157   000037 602000 3                  TNC     s:10145

      168    10176    1      CALL DAF$WRITE(VECTOR(BLANK_LINE));

  10176  3 000160   000004 630400 4                  EPPR0   4
         3 000161   000000 220000 xsym               LDX0    DAF$WRITE
         3 000162   000017 631400 xsym               EPPR1   B_VECTNIL+15
         3 000163   000000 701010                    TSX1    0,X0
         3 000164   000000 011000                    NOP     0

      169    10177    1      CALL DAF$WRITE(VECTOR(BLANK_LINE));

  10177  3 000165   000004 630400 4                  EPPR0   4
         3 000166   000000 220000 xsym               LDX0    DAF$WRITE
         3 000167   000017 631400 xsym               EPPR1   B_VECTNIL+15
         3 000170   000000 701010                    TSX1    0,X0
         3 000171   000000 011000                    NOP     0

PL6.E3A0      #001=DBD$SFILE File=DBD$FMT_G.:E05TSI                              TUE 07/29/97 13:02 Page:25
      170    10178    1      RETURN;

  10178  3 000172   000000 702200 xent               TSX2  ! X66_ARET

      171    10179        %EJECT;
PL6.E3A0      #001=DBD$SFILE File=DBD$FMT_G.:E05TSI                              TUE 07/29/97 13:02 Page:26
      172    10180
      173    10181    1   DISP_SFILE: PROC;

  10181  3 000173   200174 741300       DISP_SFILE   STX1  ! SEG_NXT_DATA+2,,AUTO

      174    10182    2      THIS_SFILE$ = SFILE$ + (SFILE_SIZE *I);

  10182  3 000174   200147 236100                    LDQ     SFILE_SIZE,,AUTO
         3 000175   200137 402100                    MPY     I,,AUTO
         3 000176   200145 036100                    ADLQ    SFILE$,,AUTO
         3 000177   200146 756100                    STQ     THIS_SFILE$,,AUTO

      175    10183    2      CALL DBM$GETMEM(THIS_SFILE$,G$SFILE,0,SIZEC(G$SFILE),,SIZEC(G$SFILE));

  10183  3 000200   000016 236000 4                  LDQ     14
         3 000201   000001 235000 xsym               LDA     B_VECTNIL+1
         3 000202   200204 757100                    STAQ    SEG_NXT_DATA+10,,AUTO
         3 000203   000020 237000 4                  LDAQ    16
         3 000204   200202 757100                    STAQ    SEG_NXT_DATA+8,,AUTO
         3 000205   200071 630500                    EPPR0   G$SFILE,,AUTO
         3 000206   200201 450500                    STP0    SEG_NXT_DATA+7,,AUTO
         3 000207   200146 631500                    EPPR1   THIS_SFILE$,,AUTO
         3 000210   200200 451500                    STP1    SEG_NXT_DATA+6,,AUTO
         3 000211   200200 630500                    EPPR0   SEG_NXT_DATA+6,,AUTO
         3 000212   000024 631400 xsym               EPPR1   B_VECTNIL+20
         3 000213   000000 701000 xent               TSX1    DBM$GETMEM
         3 000214   000000 011000                    NOP     0

      176    10184
      177    10185    2      CALL DBM$PACK4(G$SFILE.INSTTIME,INSTIME);

  10185  3 000215   200152 630500                    EPPR0   INSTIME,,AUTO
         3 000216   200201 450500                    STP0    SEG_NXT_DATA+7,,AUTO
         3 000217   200111 631500                    EPPR1   G$SFILE+16,,AUTO
         3 000220   200200 451500                    STP1    SEG_NXT_DATA+6,,AUTO
         3 000221   200200 630500                    EPPR0   SEG_NXT_DATA+6,,AUTO
         3 000222   000020 631400 xsym               EPPR1   B_VECTNIL+16
PL6.E3A0      #001=DBD$SFILE File=DBD$FMT_G.:E05TSI                              TUE 07/29/97 13:02 Page:27
         3 000223   000000 701000 xent               TSX1    DBM$PACK4
         3 000224   000000 011000                    NOP     0

      178    10186    2      IF INSTIME = 0 THEN RETURN;

  10186  3 000225   200152 235100                    LDA     INSTIME,,AUTO
         3 000226   000231 601000 3                  TNZ     s:10188

  10186  3 000227   200174 221300                    LDX1  ! SEG_NXT_DATA+2,,AUTO
         3 000230   000001 702211                    TSX2  ! 1,X1

      179    10187
      180    10188    2      IF PASS = 0

  10188  3 000231   200136 236100                    LDQ     PASS,,AUTO
         3 000232   000426 601000 3                  TNZ     s:10209

      181    10189    3      THEN DO;

      182    10190    3           IF DBD$FEPMAP$ = ADDR(NIL)

  10190  3 000233   000000 236000 xsym               LDQ     DBD$FEPMAP$
         3 000234   000001 116000 xsym               CMPQ    B_VECTNIL+1
         3 000235   001106 601000 3                  TNZ     s:10282

      183    10191    4           THEN DO;

      184    10192    4                CALL DBM$PACK2(G$SFILE.RU_FLGS,FLAGS);

  10192  3 000236   200150 630500                    EPPR0   FLAGS,,AUTO
         3 000237   200201 450500                    STP0    SEG_NXT_DATA+7,,AUTO
         3 000240   200202 452500                    STP2    SEG_NXT_DATA+8,,AUTO
         3 000241   200202 236100                    LDQ     SEG_NXT_DATA+8,,AUTO
         3 000242   000022 036000 4                  ADLQ    18
         3 000243   200200 756100                    STQ     SEG_NXT_DATA+6,,AUTO
         3 000244   200200 630500                    EPPR0   SEG_NXT_DATA+6,,AUTO
         3 000245   000020 631400 xsym               EPPR1   B_VECTNIL+16
PL6.E3A0      #001=DBD$SFILE File=DBD$FMT_G.:E05TSI                              TUE 07/29/97 13:02 Page:28
         3 000246   000000 701000 xent               TSX1    DBM$PACK2
         3 000247   000000 011000                    NOP     0

      185    10193    4                CALL DBM$PACK4(G$SFILE.MODTIME,MODTIME);

  10193  3 000250   200151 630500                    EPPR0   MODTIME,,AUTO
         3 000251   200201 450500                    STP0    SEG_NXT_DATA+7,,AUTO
         3 000252   200202 452500                    STP2    SEG_NXT_DATA+8,,AUTO
         3 000253   200202 236100                    LDQ     SEG_NXT_DATA+8,,AUTO
         3 000254   000023 036000 4                  ADLQ    19
         3 000255   200200 756100                    STQ     SEG_NXT_DATA+6,,AUTO
         3 000256   200200 630500                    EPPR0   SEG_NXT_DATA+6,,AUTO
         3 000257   000020 631400 xsym               EPPR1   B_VECTNIL+16
         3 000260   000000 701000 xent               TSX1    DBM$PACK4
         3 000261   000000 011000                    NOP     0

      186    10194    4                CALL DBM$PACK1(G$SFILE.UC,UC);

  10194  3 000262   200153 630500                    EPPR0   UC,,AUTO
         3 000263   200201 450500                    STP0    SEG_NXT_DATA+7,,AUTO
         3 000264   200202 452500                    STP2    SEG_NXT_DATA+8,,AUTO
         3 000265   200202 236100                    LDQ     SEG_NXT_DATA+8,,AUTO
         3 000266   000024 036000 4                  ADLQ    20
         3 000267   200200 756100                    STQ     SEG_NXT_DATA+6,,AUTO
         3 000270   200200 630500                    EPPR0   SEG_NXT_DATA+6,,AUTO
         3 000271   000020 631400 xsym               EPPR1   B_VECTNIL+16
         3 000272   000000 701000 xent               TSX1    DBM$PACK1
         3 000273   000000 011000                    NOP     0

      187    10195    4                CALL DBM$PACK1(G$SFILE.FRQ,FRQ);

  10195  3 000274   200154 630500                    EPPR0   FRQ,,AUTO
         3 000275   200201 450500                    STP0    SEG_NXT_DATA+7,,AUTO
         3 000276   200202 452500                    STP2    SEG_NXT_DATA+8,,AUTO
         3 000277   200202 236100                    LDQ     SEG_NXT_DATA+8,,AUTO
         3 000300   000025 036000 4                  ADLQ    21
         3 000301   200200 756100                    STQ     SEG_NXT_DATA+6,,AUTO
PL6.E3A0      #001=DBD$SFILE File=DBD$FMT_G.:E05TSI                              TUE 07/29/97 13:02 Page:29
         3 000302   200200 630500                    EPPR0   SEG_NXT_DATA+6,,AUTO
         3 000303   000020 631400 xsym               EPPR1   B_VECTNIL+16
         3 000304   000000 701000 xent               TSX1    DBM$PACK1
         3 000305   000000 011000                    NOP     0

      188    10196    4                CALL DAF$WRITE(VECTOR(SFILE_FMT1),
      189    10197    4                  VECTOR(I),
      190    10198    4                  VECTOR(G$SFILE.NAME),
      191    10199    4                  VECTOR(G$SFILE.ACCT),
      192    10200    4                  VECTOR(FLAGS),
      193    10201    4                  VECTOR(MODTIME),
      194    10202    4                  VECTOR(INSTIME),
      195    10203    4                  VECTOR(UC),
      196    10204    4                  VECTOR(FRQ));

  10204  3 000306   777640 235007                    LDA     -96,DL
         3 000307   200200 452500                    STP2    SEG_NXT_DATA+6,,AUTO
         3 000310   200200 236100                    LDQ     SEG_NXT_DATA+6,,AUTO
         3 000311   000137 036003                    ADLQ    95,DU
         3 000312   200202 757100                    STAQ    SEG_NXT_DATA+8,,AUTO
         3 000313   000030 235000 4                  LDA     24
         3 000314   200204 452500                    STP2    SEG_NXT_DATA+10,,AUTO
         3 000315   200204 236100                    LDQ     SEG_NXT_DATA+10,,AUTO
         3 000316   000071 036003                    ADLQ    57,DU
         3 000317   200206 757100                    STAQ    SEG_NXT_DATA+12,,AUTO
         3 000320   000031 235000 4                  LDA     25
         3 000321   200210 452500                    STP2    SEG_NXT_DATA+14,,AUTO
         3 000322   200210 236100                    LDQ     SEG_NXT_DATA+14,,AUTO
         3 000323   000101 036003                    ADLQ    65,DU
         3 000324   200212 757100                    STAQ    SEG_NXT_DATA+16,,AUTO
         3 000325   777640 235007                    LDA     -96,DL
         3 000326   200214 452500                    STP2    SEG_NXT_DATA+18,,AUTO
         3 000327   200214 236100                    LDQ     SEG_NXT_DATA+18,,AUTO
         3 000330   000150 036003                    ADLQ    104,DU
         3 000331   200216 757100                    STAQ    SEG_NXT_DATA+20,,AUTO
         3 000332   777640 235007                    LDA     -96,DL
         3 000333   200220 452500                    STP2    SEG_NXT_DATA+22,,AUTO
PL6.E3A0      #001=DBD$SFILE File=DBD$FMT_G.:E05TSI                              TUE 07/29/97 13:02 Page:30
         3 000334   200220 236100                    LDQ     SEG_NXT_DATA+22,,AUTO
         3 000335   000151 036003                    ADLQ    105,DU
         3 000336   200222 757100                    STAQ    SEG_NXT_DATA+24,,AUTO
         3 000337   777640 235007                    LDA     -96,DL
         3 000340   200224 452500                    STP2    SEG_NXT_DATA+26,,AUTO
         3 000341   200224 236100                    LDQ     SEG_NXT_DATA+26,,AUTO
         3 000342   000152 036003                    ADLQ    106,DU
         3 000343   200226 757100                    STAQ    SEG_NXT_DATA+28,,AUTO
         3 000344   777640 235007                    LDA     -96,DL
         3 000345   200230 452500                    STP2    SEG_NXT_DATA+30,,AUTO
         3 000346   200230 236100                    LDQ     SEG_NXT_DATA+30,,AUTO
         3 000347   000153 036003                    ADLQ    107,DU
         3 000350   200232 757100                    STAQ    SEG_NXT_DATA+32,,AUTO
         3 000351   777640 235007                    LDA     -96,DL
         3 000352   200234 452500                    STP2    SEG_NXT_DATA+34,,AUTO
         3 000353   200234 236100                    LDQ     SEG_NXT_DATA+34,,AUTO
         3 000354   000154 036003                    ADLQ    108,DU
         3 000355   200240 757100                    STAQ    SEG_NXT_DATA+38,,AUTO
         3 000356   200202 237100                    LDAQ    SEG_NXT_DATA+8,,AUTO
         3 000357   200236 757100                    STAQ    SEG_NXT_DATA+36,,AUTO
         3 000360   200206 237100                    LDAQ    SEG_NXT_DATA+12,,AUTO
         3 000361   200242 757100                    STAQ    SEG_NXT_DATA+40,,AUTO
         3 000362   200212 237100                    LDAQ    SEG_NXT_DATA+16,,AUTO
         3 000363   200244 757100                    STAQ    SEG_NXT_DATA+42,,AUTO
         3 000364   200216 237100                    LDAQ    SEG_NXT_DATA+20,,AUTO
         3 000365   200246 757100                    STAQ    SEG_NXT_DATA+44,,AUTO
         3 000366   200222 237100                    LDAQ    SEG_NXT_DATA+24,,AUTO
         3 000367   200250 757100                    STAQ    SEG_NXT_DATA+46,,AUTO
         3 000370   200226 237100                    LDAQ    SEG_NXT_DATA+28,,AUTO
         3 000371   200252 757100                    STAQ    SEG_NXT_DATA+48,,AUTO
         3 000372   200232 237100                    LDAQ    SEG_NXT_DATA+32,,AUTO
         3 000373   200254 757100                    STAQ    SEG_NXT_DATA+50,,AUTO
         3 000374   200240 237100                    LDAQ    SEG_NXT_DATA+38,,AUTO
         3 000375   200256 757100                    STAQ    SEG_NXT_DATA+52,,AUTO
         3 000376   200256 630500                    EPPR0   SEG_NXT_DATA+52,,AUTO
         3 000377   200270 450500                    STP0    SEG_NXT_DATA+62,,AUTO
         3 000400   200254 631500                    EPPR1   SEG_NXT_DATA+50,,AUTO
PL6.E3A0      #001=DBD$SFILE File=DBD$FMT_G.:E05TSI                              TUE 07/29/97 13:02 Page:31
         3 000401   200267 451500                    STP1    SEG_NXT_DATA+61,,AUTO
         3 000402   200252 633500                    EPPR3   SEG_NXT_DATA+48,,AUTO
         3 000403   200266 453500                    STP3    SEG_NXT_DATA+60,,AUTO
         3 000404   200250 634500                    EPPR4   SEG_NXT_DATA+46,,AUTO
         3 000405   200265 454500                    STP4    SEG_NXT_DATA+59,,AUTO
         3 000406   200246 635500                    EPPR5   SEG_NXT_DATA+44,,AUTO
         3 000407   200264 455500                    STP5    SEG_NXT_DATA+58,,AUTO
         3 000410   200244 636500                    EPPR6   SEG_NXT_DATA+42,,AUTO
         3 000411   200263 456500                    STP6    SEG_NXT_DATA+57,,AUTO
         3 000412   200242 637500                    EPPR7   SEG_NXT_DATA+40,,AUTO
         3 000413   200262 457500                    STP7    SEG_NXT_DATA+56,,AUTO
         3 000414   200236 630500                    EPPR0   SEG_NXT_DATA+36,,AUTO
         3 000415   200261 450500                    STP0    SEG_NXT_DATA+55,,AUTO
         3 000416   000033 236000 4                  LDQ     27
         3 000417   200260 756100                    STQ     SEG_NXT_DATA+54,,AUTO
         3 000420   200260 630500                    EPPR0   SEG_NXT_DATA+54,,AUTO
         3 000421   000000 220000 xsym               LDX0    DAF$WRITE
         3 000422   000032 631400 4                  EPPR1   26
         3 000423   000000 701010                    TSX1    0,X0
         3 000424   000000 011000                    NOP     0

      197    10205    4                END/*do if not MAP*/;

      198    10206    3           END/*pass 0*/;

  10206  3 000425   001106 710000 3                  TRA     s:10282

      199    10207
      200    10208    3      ELSE DO;

      201    10209    3           CALL DBM$PACK1(G$SFILE.PGSZ_ROS,ROS#);

  10209  3 000426   200155 630500                    EPPR0   ROS#,,AUTO
         3 000427   200201 450500                    STP0    SEG_NXT_DATA+7,,AUTO
         3 000430   200202 452500                    STP2    SEG_NXT_DATA+8,,AUTO
         3 000431   200202 236100                    LDQ     SEG_NXT_DATA+8,,AUTO
         3 000432   000034 036000 4                  ADLQ    28
PL6.E3A0      #001=DBD$SFILE File=DBD$FMT_G.:E05TSI                              TUE 07/29/97 13:02 Page:32
         3 000433   200200 756100                    STQ     SEG_NXT_DATA+6,,AUTO
         3 000434   200200 630500                    EPPR0   SEG_NXT_DATA+6,,AUTO
         3 000435   000020 631400 xsym               EPPR1   B_VECTNIL+16
         3 000436   000000 701000 xent               TSX1    DBM$PACK1
         3 000437   000000 011000                    NOP     0

      202    10210    3           CALL DBM$PACK2(G$SFILE.PGSZ_DATA,DATA#);

  10210  3 000440   200156 630500                    EPPR0   DATA#,,AUTO
         3 000441   200201 450500                    STP0    SEG_NXT_DATA+7,,AUTO
         3 000442   200114 631500                    EPPR1   G$SFILE+19,,AUTO
         3 000443   200200 451500                    STP1    SEG_NXT_DATA+6,,AUTO
         3 000444   200200 630500                    EPPR0   SEG_NXT_DATA+6,,AUTO
         3 000445   000020 631400 xsym               EPPR1   B_VECTNIL+16
         3 000446   000000 701000 xent               TSX1    DBM$PACK2
         3 000447   000000 011000                    NOP     0

      203    10211    3           CALL DBM$PACK2(G$SFILE.PGSZ_PROC,PROC#);

  10211  3 000450   200157 630500                    EPPR0   PROC#,,AUTO
         3 000451   200201 450500                    STP0    SEG_NXT_DATA+7,,AUTO
         3 000452   200202 452500                    STP2    SEG_NXT_DATA+8,,AUTO
         3 000453   200202 236100                    LDQ     SEG_NXT_DATA+8,,AUTO
         3 000454   000035 036000 4                  ADLQ    29
         3 000455   200200 756100                    STQ     SEG_NXT_DATA+6,,AUTO
         3 000456   200200 630500                    EPPR0   SEG_NXT_DATA+6,,AUTO
         3 000457   000020 631400 xsym               EPPR1   B_VECTNIL+16
         3 000460   000000 701000 xent               TSX1    DBM$PACK2
         3 000461   000000 011000                    NOP     0

      204    10212    3           CALL DBM$PACK2(G$SFILE.PP_ROS,ROS_PG);

  10212  3 000462   200160 630500                    EPPR0   ROS_PG,,AUTO
         3 000463   200201 450500                    STP0    SEG_NXT_DATA+7,,AUTO
         3 000464   200115 631500                    EPPR1   G$SFILE+20,,AUTO
         3 000465   200200 451500                    STP1    SEG_NXT_DATA+6,,AUTO
         3 000466   200200 630500                    EPPR0   SEG_NXT_DATA+6,,AUTO
PL6.E3A0      #001=DBD$SFILE File=DBD$FMT_G.:E05TSI                              TUE 07/29/97 13:02 Page:33
         3 000467   000020 631400 xsym               EPPR1   B_VECTNIL+16
         3 000470   000000 701000 xent               TSX1    DBM$PACK2
         3 000471   000000 011000                    NOP     0

      205    10213    3           CALL DBM$PACK2(G$SFILE.PP_SEG1,SEG1_PG);

  10213  3 000472   200161 630500                    EPPR0   SEG1_PG,,AUTO
         3 000473   200201 450500                    STP0    SEG_NXT_DATA+7,,AUTO
         3 000474   200202 452500                    STP2    SEG_NXT_DATA+8,,AUTO
         3 000475   200202 236100                    LDQ     SEG_NXT_DATA+8,,AUTO
         3 000476   000036 036000 4                  ADLQ    30
         3 000477   200200 756100                    STQ     SEG_NXT_DATA+6,,AUTO
         3 000500   200200 630500                    EPPR0   SEG_NXT_DATA+6,,AUTO
         3 000501   000020 631400 xsym               EPPR1   B_VECTNIL+16
         3 000502   000000 701000 xent               TSX1    DBM$PACK2
         3 000503   000000 011000                    NOP     0

      206    10214    3           CALL DBM$PACK2(G$SFILE.PP_SEG2,SEG2_PG);

  10214  3 000504   200162 630500                    EPPR0   SEG2_PG,,AUTO
         3 000505   200201 450500                    STP0    SEG_NXT_DATA+7,,AUTO
         3 000506   200116 631500                    EPPR1   G$SFILE+21,,AUTO
         3 000507   200200 451500                    STP1    SEG_NXT_DATA+6,,AUTO
         3 000510   200200 630500                    EPPR0   SEG_NXT_DATA+6,,AUTO
         3 000511   000020 631400 xsym               EPPR1   B_VECTNIL+16
         3 000512   000000 701000 xent               TSX1    DBM$PACK2
         3 000513   000000 011000                    NOP     0

      207    10215    3           CALL DBM$PACK2(G$SFILE.PP_SEG3,SEG3_PG);

  10215  3 000514   200163 630500                    EPPR0   SEG3_PG,,AUTO
         3 000515   200201 450500                    STP0    SEG_NXT_DATA+7,,AUTO
         3 000516   200202 452500                    STP2    SEG_NXT_DATA+8,,AUTO
         3 000517   200202 236100                    LDQ     SEG_NXT_DATA+8,,AUTO
         3 000520   000037 036000 4                  ADLQ    31
         3 000521   200200 756100                    STQ     SEG_NXT_DATA+6,,AUTO
         3 000522   200200 630500                    EPPR0   SEG_NXT_DATA+6,,AUTO
PL6.E3A0      #001=DBD$SFILE File=DBD$FMT_G.:E05TSI                              TUE 07/29/97 13:02 Page:34
         3 000523   000020 631400 xsym               EPPR1   B_VECTNIL+16
         3 000524   000000 701000 xent               TSX1    DBM$PACK2
         3 000525   000000 011000                    NOP     0

      208    10216    3           CALL DBM$PACK2(G$SFILE.PP_SEG4,SEG4_PG);

  10216  3 000526   200164 630500                    EPPR0   SEG4_PG,,AUTO
         3 000527   200201 450500                    STP0    SEG_NXT_DATA+7,,AUTO
         3 000530   200117 631500                    EPPR1   G$SFILE+22,,AUTO
         3 000531   200200 451500                    STP1    SEG_NXT_DATA+6,,AUTO
         3 000532   200200 630500                    EPPR0   SEG_NXT_DATA+6,,AUTO
         3 000533   000020 631400 xsym               EPPR1   B_VECTNIL+16
         3 000534   000000 701000 xent               TSX1    DBM$PACK2
         3 000535   000000 011000                    NOP     0

      209    10217    3           CALL DBM$PACK2(G$SFILE.PP_SEG5,SEG5_PG);

  10217  3 000536   200165 630500                    EPPR0   SEG5_PG,,AUTO
         3 000537   200201 450500                    STP0    SEG_NXT_DATA+7,,AUTO
         3 000540   200202 452500                    STP2    SEG_NXT_DATA+8,,AUTO
         3 000541   200202 236100                    LDQ     SEG_NXT_DATA+8,,AUTO
         3 000542   000040 036000 4                  ADLQ    32
         3 000543   200200 756100                    STQ     SEG_NXT_DATA+6,,AUTO
         3 000544   200200 630500                    EPPR0   SEG_NXT_DATA+6,,AUTO
         3 000545   000020 631400 xsym               EPPR1   B_VECTNIL+16
         3 000546   000000 701000 xent               TSX1    DBM$PACK2
         3 000547   000000 011000                    NOP     0

      210    10218    3           CALL DBM$PACK2(G$SFILE.PP_SEG6,SEG6_PG);

  10218  3 000550   200166 630500                    EPPR0   SEG6_PG,,AUTO
         3 000551   200201 450500                    STP0    SEG_NXT_DATA+7,,AUTO
         3 000552   200120 631500                    EPPR1   G$SFILE+23,,AUTO
         3 000553   200200 451500                    STP1    SEG_NXT_DATA+6,,AUTO
         3 000554   200200 630500                    EPPR0   SEG_NXT_DATA+6,,AUTO
         3 000555   000020 631400 xsym               EPPR1   B_VECTNIL+16
         3 000556   000000 701000 xent               TSX1    DBM$PACK2
PL6.E3A0      #001=DBD$SFILE File=DBD$FMT_G.:E05TSI                              TUE 07/29/97 13:02 Page:35
         3 000557   000000 011000                    NOP     0

      211    10219    3           CALL DBM$PACK2(G$SFILE.PP_SEG7,SEG7_PG);

  10219  3 000560   200167 630500                    EPPR0   SEG7_PG,,AUTO
         3 000561   200201 450500                    STP0    SEG_NXT_DATA+7,,AUTO
         3 000562   200202 452500                    STP2    SEG_NXT_DATA+8,,AUTO
         3 000563   200202 236100                    LDQ     SEG_NXT_DATA+8,,AUTO
         3 000564   000041 036000 4                  ADLQ    33
         3 000565   200200 756100                    STQ     SEG_NXT_DATA+6,,AUTO
         3 000566   200200 630500                    EPPR0   SEG_NXT_DATA+6,,AUTO
         3 000567   000020 631400 xsym               EPPR1   B_VECTNIL+16
         3 000570   000000 701000 xent               TSX1    DBM$PACK2
         3 000571   000000 011000                    NOP     0

      212    10220    3           CALL DBM$PACK2(G$SFILE.SEG_1ST_DATA,SEG_1_DATA);

  10220  3 000572   200170 630500                    EPPR0   SEG_1_DATA,,AUTO
         3 000573   200201 450500                    STP0    SEG_NXT_DATA+7,,AUTO
         3 000574   200112 631500                    EPPR1   G$SFILE+17,,AUTO
         3 000575   200200 451500                    STP1    SEG_NXT_DATA+6,,AUTO
         3 000576   200200 630500                    EPPR0   SEG_NXT_DATA+6,,AUTO
         3 000577   000020 631400 xsym               EPPR1   B_VECTNIL+16
         3 000600   000000 701000 xent               TSX1    DBM$PACK2
         3 000601   000000 011000                    NOP     0

      213    10221    3           CALL DBM$PACK2(G$SFILE.SEG_1ST_PROC,SEG_1_PROC);

  10221  3 000602   200171 630500                    EPPR0   SEG_1_PROC,,AUTO
         3 000603   200201 450500                    STP0    SEG_NXT_DATA+7,,AUTO
         3 000604   200202 452500                    STP2    SEG_NXT_DATA+8,,AUTO
         3 000605   200202 236100                    LDQ     SEG_NXT_DATA+8,,AUTO
         3 000606   000042 036000 4                  ADLQ    34
         3 000607   200200 756100                    STQ     SEG_NXT_DATA+6,,AUTO
         3 000610   200200 630500                    EPPR0   SEG_NXT_DATA+6,,AUTO
         3 000611   000020 631400 xsym               EPPR1   B_VECTNIL+16
         3 000612   000000 701000 xent               TSX1    DBM$PACK2
PL6.E3A0      #001=DBD$SFILE File=DBD$FMT_G.:E05TSI                              TUE 07/29/97 13:02 Page:36
         3 000613   000000 011000                    NOP     0

      214    10222
      215    10223    3           IF DBD$FEPMAP$ = ADDR(NIL)

  10223  3 000614   000000 236000 xsym               LDQ     DBD$FEPMAP$
         3 000615   000001 116000 xsym               CMPQ    B_VECTNIL+1
         3 000616   001003 601000 3                  TNZ     s:10241

      216    10224    4           THEN DO;

      217    10225    4                CALL DAF$WRITE(VECTOR(SFILE_FMT2),
      218    10226    4                  VECTOR(I),
      219    10227    4                  VECTOR(ROS#),
      220    10228    4                  VECTOR(DATA#),
      221    10229    4                  VECTOR(PROC#),
      222    10230    4                  VECTOR(ROS_PG),
      223    10231    4                  VECTOR(SEG1_PG),
      224    10232    4                  VECTOR(SEG2_PG),
      225    10233    4                  VECTOR(SEG3_PG),
      226    10234    4                  VECTOR(SEG4_PG),

  10234  3 000617   777640 235007                    LDA     -96,DL
         3 000620   200200 452500                    STP2    SEG_NXT_DATA+6,,AUTO
         3 000621   200200 236100                    LDQ     SEG_NXT_DATA+6,,AUTO
         3 000622   000137 036003                    ADLQ    95,DU
         3 000623   200202 757100                    STAQ    SEG_NXT_DATA+8,,AUTO
         3 000624   777640 235007                    LDA     -96,DL
         3 000625   200204 452500                    STP2    SEG_NXT_DATA+10,,AUTO
         3 000626   200204 236100                    LDQ     SEG_NXT_DATA+10,,AUTO
         3 000627   000155 036003                    ADLQ    109,DU
         3 000630   200206 757100                    STAQ    SEG_NXT_DATA+12,,AUTO
         3 000631   777640 235007                    LDA     -96,DL
         3 000632   200210 452500                    STP2    SEG_NXT_DATA+14,,AUTO
         3 000633   200210 236100                    LDQ     SEG_NXT_DATA+14,,AUTO
         3 000634   000156 036003                    ADLQ    110,DU
         3 000635   200212 757100                    STAQ    SEG_NXT_DATA+16,,AUTO
PL6.E3A0      #001=DBD$SFILE File=DBD$FMT_G.:E05TSI                              TUE 07/29/97 13:02 Page:37
         3 000636   777640 235007                    LDA     -96,DL
         3 000637   200214 452500                    STP2    SEG_NXT_DATA+18,,AUTO
         3 000640   200214 236100                    LDQ     SEG_NXT_DATA+18,,AUTO
         3 000641   000157 036003                    ADLQ    111,DU
         3 000642   200216 757100                    STAQ    SEG_NXT_DATA+20,,AUTO
         3 000643   777640 235007                    LDA     -96,DL
         3 000644   200220 452500                    STP2    SEG_NXT_DATA+22,,AUTO
         3 000645   200220 236100                    LDQ     SEG_NXT_DATA+22,,AUTO
         3 000646   000160 036003                    ADLQ    112,DU
         3 000647   200222 757100                    STAQ    SEG_NXT_DATA+24,,AUTO
         3 000650   777640 235007                    LDA     -96,DL
         3 000651   200224 452500                    STP2    SEG_NXT_DATA+26,,AUTO
         3 000652   200224 236100                    LDQ     SEG_NXT_DATA+26,,AUTO
         3 000653   000161 036003                    ADLQ    113,DU
         3 000654   200226 757100                    STAQ    SEG_NXT_DATA+28,,AUTO
         3 000655   777640 235007                    LDA     -96,DL
         3 000656   200230 452500                    STP2    SEG_NXT_DATA+30,,AUTO
         3 000657   200230 236100                    LDQ     SEG_NXT_DATA+30,,AUTO
         3 000660   000162 036003                    ADLQ    114,DU
         3 000661   200232 757100                    STAQ    SEG_NXT_DATA+32,,AUTO
         3 000662   777640 235007                    LDA     -96,DL
         3 000663   200234 452500                    STP2    SEG_NXT_DATA+34,,AUTO
         3 000664   200234 236100                    LDQ     SEG_NXT_DATA+34,,AUTO
         3 000665   000163 036003                    ADLQ    115,DU
         3 000666   200236 757100                    STAQ    SEG_NXT_DATA+36,,AUTO
         3 000667   777640 235007                    LDA     -96,DL
         3 000670   200240 452500                    STP2    SEG_NXT_DATA+38,,AUTO
         3 000671   200240 236100                    LDQ     SEG_NXT_DATA+38,,AUTO
         3 000672   000164 036003                    ADLQ    116,DU
         3 000673   200242 757100                    STAQ    SEG_NXT_DATA+40,,AUTO
         3 000674   777640 235007                    LDA     -96,DL
         3 000675   200244 452500                    STP2    SEG_NXT_DATA+42,,AUTO
         3 000676   200244 236100                    LDQ     SEG_NXT_DATA+42,,AUTO
         3 000677   000165 036003                    ADLQ    117,DU
         3 000700   200246 757100                    STAQ    SEG_NXT_DATA+44,,AUTO
         3 000701   777640 235007                    LDA     -96,DL
         3 000702   200250 452500                    STP2    SEG_NXT_DATA+46,,AUTO
PL6.E3A0      #001=DBD$SFILE File=DBD$FMT_G.:E05TSI                              TUE 07/29/97 13:02 Page:38
         3 000703   200250 236100                    LDQ     SEG_NXT_DATA+46,,AUTO
         3 000704   000166 036003                    ADLQ    118,DU
         3 000705   200252 757100                    STAQ    SEG_NXT_DATA+48,,AUTO
         3 000706   777640 235007                    LDA     -96,DL
         3 000707   200254 452500                    STP2    SEG_NXT_DATA+50,,AUTO
         3 000710   200254 236100                    LDQ     SEG_NXT_DATA+50,,AUTO
         3 000711   000167 036003                    ADLQ    119,DU
         3 000712   200260 757100                    STAQ    SEG_NXT_DATA+54,,AUTO
         3 000713   200202 237100                    LDAQ    SEG_NXT_DATA+8,,AUTO
         3 000714   200256 757100                    STAQ    SEG_NXT_DATA+52,,AUTO
         3 000715   200206 237100                    LDAQ    SEG_NXT_DATA+12,,AUTO
         3 000716   200262 757100                    STAQ    SEG_NXT_DATA+56,,AUTO
         3 000717   200212 237100                    LDAQ    SEG_NXT_DATA+16,,AUTO
         3 000720   200264 757100                    STAQ    SEG_NXT_DATA+58,,AUTO
         3 000721   200216 237100                    LDAQ    SEG_NXT_DATA+20,,AUTO
         3 000722   200266 757100                    STAQ    SEG_NXT_DATA+60,,AUTO
         3 000723   200222 237100                    LDAQ    SEG_NXT_DATA+24,,AUTO
         3 000724   200270 757100                    STAQ    SEG_NXT_DATA+62,,AUTO
         3 000725   200226 237100                    LDAQ    SEG_NXT_DATA+28,,AUTO
         3 000726   200272 757100                    STAQ    SEG_NXT_DATA+64,,AUTO
         3 000727   200232 237100                    LDAQ    SEG_NXT_DATA+32,,AUTO
         3 000730   200274 757100                    STAQ    SEG_NXT_DATA+66,,AUTO
         3 000731   200236 237100                    LDAQ    SEG_NXT_DATA+36,,AUTO
         3 000732   200276 757100                    STAQ    SEG_NXT_DATA+68,,AUTO
         3 000733   200242 237100                    LDAQ    SEG_NXT_DATA+40,,AUTO
         3 000734   200300 757100                    STAQ    SEG_NXT_DATA+70,,AUTO
         3 000735   200246 237100                    LDAQ    SEG_NXT_DATA+44,,AUTO
         3 000736   200302 757100                    STAQ    SEG_NXT_DATA+72,,AUTO
         3 000737   200252 237100                    LDAQ    SEG_NXT_DATA+48,,AUTO
         3 000740   200304 757100                    STAQ    SEG_NXT_DATA+74,,AUTO
         3 000741   200260 237100                    LDAQ    SEG_NXT_DATA+54,,AUTO
         3 000742   200306 757100                    STAQ    SEG_NXT_DATA+76,,AUTO
         3 000743   200306 630500                    EPPR0   SEG_NXT_DATA+76,,AUTO
         3 000744   200324 450500                    STP0    SEG_NXT_DATA+90,,AUTO
         3 000745   200304 631500                    EPPR1   SEG_NXT_DATA+74,,AUTO
         3 000746   200323 451500                    STP1    SEG_NXT_DATA+89,,AUTO
         3 000747   200302 633500                    EPPR3   SEG_NXT_DATA+72,,AUTO
PL6.E3A0      #001=DBD$SFILE File=DBD$FMT_G.:E05TSI                              TUE 07/29/97 13:02 Page:39
         3 000750   200322 453500                    STP3    SEG_NXT_DATA+88,,AUTO
         3 000751   200300 634500                    EPPR4   SEG_NXT_DATA+70,,AUTO
         3 000752   200321 454500                    STP4    SEG_NXT_DATA+87,,AUTO
         3 000753   200276 635500                    EPPR5   SEG_NXT_DATA+68,,AUTO
         3 000754   200320 455500                    STP5    SEG_NXT_DATA+86,,AUTO
         3 000755   200274 636500                    EPPR6   SEG_NXT_DATA+66,,AUTO
         3 000756   200317 456500                    STP6    SEG_NXT_DATA+85,,AUTO
         3 000757   200272 637500                    EPPR7   SEG_NXT_DATA+64,,AUTO
         3 000760   200316 457500                    STP7    SEG_NXT_DATA+84,,AUTO
         3 000761   200270 630500                    EPPR0   SEG_NXT_DATA+62,,AUTO
         3 000762   200315 450500                    STP0    SEG_NXT_DATA+83,,AUTO
         3 000763   200266 630500                    EPPR0   SEG_NXT_DATA+60,,AUTO
         3 000764   200314 450500                    STP0    SEG_NXT_DATA+82,,AUTO
         3 000765   200264 630500                    EPPR0   SEG_NXT_DATA+58,,AUTO
         3 000766   200313 450500                    STP0    SEG_NXT_DATA+81,,AUTO
         3 000767   200262 630500                    EPPR0   SEG_NXT_DATA+56,,AUTO
         3 000770   200312 450500                    STP0    SEG_NXT_DATA+80,,AUTO
         3 000771   200256 630500                    EPPR0   SEG_NXT_DATA+52,,AUTO
         3 000772   200311 450500                    STP0    SEG_NXT_DATA+79,,AUTO
         3 000773   000046 236000 4                  LDQ     38
         3 000774   200310 756100                    STQ     SEG_NXT_DATA+78,,AUTO
         3 000775   200310 630500                    EPPR0   SEG_NXT_DATA+78,,AUTO
         3 000776   000000 220000 xsym               LDX0    DAF$WRITE
         3 000777   000043 631400 4                  EPPR1   35
         3 001000   000000 701010                    TSX1    0,X0
         3 001001   000000 011000                    NOP     0

      227    10235    4                  VECTOR(SEG5_PG),
      228    10236    4                  VECTOR(SEG6_PG),
      229    10237    4                  VECTOR(SEG7_PG));
      230    10238    4                END;

  10238  3 001002   001106 710000 3                  TRA     s:10282

      231    10239
      232    10240    4           ELSE DO;

PL6.E3A0      #001=DBD$SFILE File=DBD$FMT_G.:E05TSI                              TUE 07/29/97 13:02 Page:40
      233    10241    4                PP_SEG$ = ADDR(ROS_PG);

  10241  3 001003   200160 630500                    EPPR0   ROS_PG,,AUTO
         3 001004   200135 450500                    STP0    PP_SEG$,,AUTO

      234    10242    4                IF ROS# ~= 0

  10242  3 001005   200155 235100                    LDA     ROS#,,AUTO
         3 001006   001017 600000 3                  TZE     s:10250

      235    10243    5                THEN DO;

      236    10244    5                     J=7;                  /*index for g_sfile_seg*/

  10244  3 001007   000007 235007                    LDA     7,DL
         3 001010   200140 755100                    STA     J,,AUTO

      237    10245    5                     THIS_SIZE = ROS#;

  10245  3 001011   200155 235100                    LDA     ROS#,,AUTO
         3 001012   200134 755100                    STA     THIS_SIZE,,AUTO

      238    10246    5                     MAP_PG# = ROS_PG;

  10246  3 001013   200160 235100                    LDA     ROS_PG,,AUTO
         3 001014   200132 755100                    STA     MAP_PG#,,AUTO

      239    10247    5                     CALL SET_MAP2;

  10247  3 001015   001116 701000 3                  TSX1    SET_MAP2
         3 001016   000000 011000                    NOP     0

      240    10248    5                     END/*if ros# ~ 0*/;

      241    10249
      242    10250    4                PP_SEG$ = ADDR(SEG1_PG);

PL6.E3A0      #001=DBD$SFILE File=DBD$FMT_G.:E05TSI                              TUE 07/29/97 13:02 Page:41
  10250  3 001017   200161 630500                    EPPR0   SEG1_PG,,AUTO
         3 001020   200135 450500                    STP0    PP_SEG$,,AUTO

      243    10251    4                IF DATA# ~= 0

  10251  3 001021   200156 235100                    LDA     DATA#,,AUTO
         3 001022   001070 600000 3                  TZE     s:10272

      244    10252    5                THEN DO;

      245    10253    5                     IF G$SFILE.RU_FLGS.LIB

  10253  3 001023   200107 236100                    LDQ     G$SFILE+14,,AUTO
         3 001024   100000 316007                    CANQ    32768,DL
         3 001025   001032 600000 3                  TZE     s:10260

      246    10254    6                     THEN DO;

      247    10255    6                          THIS_SIZE = DATA#;

  10255  3 001026   200134 755100                    STA     THIS_SIZE,,AUTO

      248    10256    6                          SEG_NXT_DATA = SEG_1_DATA;

  10256  3 001027   200170 235100                    LDA     SEG_1_DATA,,AUTO
         3 001030   200172 755100                    STA     SEG_NXT_DATA,,AUTO

      249    10257    6                          END;

  10257  3 001031   001056 710000 3                  TRA     s:10267

      250    10258
      251    10259    6                     ELSE DO;

      252    10260    6                          CALL DBM$PACK2(G$SFILE.USR_DATA.PGSZ_DATA1,THIS_SIZE);

  10260  3 001032   200134 631500                    EPPR1   THIS_SIZE,,AUTO
PL6.E3A0      #001=DBD$SFILE File=DBD$FMT_G.:E05TSI                              TUE 07/29/97 13:02 Page:42
         3 001033   200201 451500                    STP1    SEG_NXT_DATA+7,,AUTO
         3 001034   200202 452500                    STP2    SEG_NXT_DATA+8,,AUTO
         3 001035   200202 236100                    LDQ     SEG_NXT_DATA+8,,AUTO
         3 001036   000047 036000 4                  ADLQ    39
         3 001037   200200 756100                    STQ     SEG_NXT_DATA+6,,AUTO
         3 001040   200200 630500                    EPPR0   SEG_NXT_DATA+6,,AUTO
         3 001041   000020 631400 xsym               EPPR1   B_VECTNIL+16
         3 001042   000000 701000 xent               TSX1    DBM$PACK2
         3 001043   000000 011000                    NOP     0

      253    10261    6                          J = SEG_1_DATA;

  10261  3 001044   200170 235100                    LDA     SEG_1_DATA,,AUTO
         3 001045   200140 755100                    STA     J,,AUTO

      254    10262    6                          CALL SET_MAP;

  10262  3 001046   001110 701000 3                  TSX1    SET_MAP
         3 001047   000000 011000                    NOP     0

      255    10263    6                          THIS_SIZE = DATA# - THIS_SIZE/*whats remaining*/;

  10263  3 001050   200156 236100                    LDQ     DATA#,,AUTO
         3 001051   200134 136100                    SBLQ    THIS_SIZE,,AUTO
         3 001052   200134 756100                    STQ     THIS_SIZE,,AUTO

      256    10264    6                          SEG_NXT_DATA = SEG_1_DATA+1;

  10264  3 001053   200170 235100                    LDA     SEG_1_DATA,,AUTO
         3 001054   000001 035007                    ADLA    1,DL
         3 001055   200172 755100                    STA     SEG_NXT_DATA,,AUTO

      257    10265    6                          END;

      258    10266
      259    10267    6                     DO J=SEG_NXT_DATA TO SEG_1_PROC-1;

PL6.E3A0      #001=DBD$SFILE File=DBD$FMT_G.:E05TSI                              TUE 07/29/97 13:02 Page:43
  10267  3 001056   200140 755100                    STA     J,,AUTO
         3 001057   001065 710000 3                  TRA     s:10269+3

      260    10268    6                          CALL SET_MAP;

  10268  3 001060   001110 701000 3                  TSX1    SET_MAP
         3 001061   000000 011000                    NOP     0

      261    10269    6                          END;

  10269  3 001062   200140 235100                    LDA     J,,AUTO
         3 001063   000001 035007                    ADLA    1,DL
         3 001064   200140 755100                    STA     J,,AUTO
         3 001065   200140 236100                    LDQ     J,,AUTO
         3 001066   200171 116100                    CMPQ    SEG_1_PROC,,AUTO
         3 001067   001060 602000 3                  TNC     s:10268

      262    10270    5                     END/*if data# ~0*/;

      263    10271
      264    10272    4                IF PROC# ~= 0

  10272  3 001070   200157 235100                    LDA     PROC#,,AUTO
         3 001071   001106 600000 3                  TZE     s:10282

      265    10273    5                THEN DO;

      266    10274    5                     THIS_SIZE = PROC#;

  10274  3 001072   200134 755100                    STA     THIS_SIZE,,AUTO

      267    10275
      268    10276    6                     DO J=SEG_1_PROC TO 6;

  10276  3 001073   200171 236100                    LDQ     SEG_1_PROC,,AUTO
         3 001074   200140 756100                    STQ     J,,AUTO
         3 001075   001103 710000 3                  TRA     s:10278+3
PL6.E3A0      #001=DBD$SFILE File=DBD$FMT_G.:E05TSI                              TUE 07/29/97 13:02 Page:44

      269    10277    6                          CALL SET_MAP;

  10277  3 001076   001110 701000 3                  TSX1    SET_MAP
         3 001077   000000 011000                    NOP     0

      270    10278    6                          END;

  10278  3 001100   200140 235100                    LDA     J,,AUTO
         3 001101   000001 035007                    ADLA    1,DL
         3 001102   200140 755100                    STA     J,,AUTO
         3 001103   200140 235100                    LDA     J,,AUTO
         3 001104   000007 115007                    CMPA    7,DL
         3 001105   001076 602000 3                  TNC     s:10277

      271    10279    5                     END/*if proc# ~0*/;

      272    10280    4                END/*do if map command*/;

      273    10281    3           END;

      274    10282    2   END DISP_SFILE;

  10282  3 001106   200174 221300                    LDX1  ! SEG_NXT_DATA+2,,AUTO
         3 001107   000001 702211                    TSX2  ! 1,X1

      275    10283
      276    10284        %EJECT;
PL6.E3A0      #001=DBD$SFILE File=DBD$FMT_G.:E05TSI                              TUE 07/29/97 13:02 Page:45
      277    10285    1   SET_MAP: PROC;

  10285  3 001110   200176 741300       SET_MAP      STX1  ! SEG_NXT_DATA+4,,AUTO

      278    10286    2      MAP_PG# = PP_SEG$->B$SEGS(J);

  10286  3 001111   200135 470500                    LDP0    PP_SEG$,,AUTO
         3 001112   200140 720100                    LXL0    J,,AUTO
         3 001113   000000 235110                    LDA     0,X0,PR0
         3 001114   200132 755100                    STA     MAP_PG#,,AUTO
         3 001115   001117 710000 3                  TRA     s:10289

      279    10287
      280    10288    2   SET_MAP2: ENTRY;

  10288  3 001116   200176 741300       SET_MAP2     STX1  ! SEG_NXT_DATA+4,,AUTO

      281    10289    2      IF THIS_SIZE > 256

  10289  3 001117   200134 235100                    LDA     THIS_SIZE,,AUTO
         3 001120   000401 115007                    CMPA    257,DL
         3 001121   001125 602000 3                  TNC     s:10291

      282    10290    2      THEN MAP_SIZE = 256;

  10290  3 001122   000400 236007                    LDQ     256,DL
         3 001123   200133 756100                    STQ     MAP_SIZE,,AUTO
         3 001124   001126 710000 3                  TRA     s:10293

      283    10291    2      ELSE MAP_SIZE = THIS_SIZE;

  10291  3 001125   200133 755100                    STA     MAP_SIZE,,AUTO

      284    10292
      285    10293    2      IF MAP_SIZE ~= 0

  10293  3 001126   200133 236100                    LDQ     MAP_SIZE,,AUTO
PL6.E3A0      #001=DBD$SFILE File=DBD$FMT_G.:E05TSI                              TUE 07/29/97 13:02 Page:46
         3 001127   001207 600000 3                  TZE     s:10313

      286    10294    3      THEN DO;

      287    10295    3           MAP_ERR = 0;

  10295  3 001130   200131 450100                    STZ     MAP_ERR,,AUTO

      288    10296    3           IF DBD$FEPMAP$->B$FEPMAP(MAP_PG#) ~= '0'B

  10296  3 001131   000000 470400 xsym               LDP0    DBD$FEPMAP$
         3 001132   200132 720100                    LXL0    MAP_PG#,,AUTO
         3 001133   000000 235110                    LDA     0,X0,PR0
         3 001134   001145 600000 3                  TZE     s:10302

      289    10297    4           THEN DO;

      290    10298    4                CALL DBD$FEPMAP_ERR(MAP_PG#);

  10298  3 001135   200132 631500                    EPPR1   MAP_PG#,,AUTO
         3 001136   200200 451500                    STP1    SEG_NXT_DATA+6,,AUTO
         3 001137   200200 630500                    EPPR0   SEG_NXT_DATA+6,,AUTO
         3 001140   000017 631400 xsym               EPPR1   B_VECTNIL+15
         3 001141   000000 701000 xent               TSX1    DBD$FEPMAP_ERR
         3 001142   000000 011000                    NOP     0

      291    10299    4                MAP_ERR = 1;

  10299  3 001143   000001 235007                    LDA     1,DL
         3 001144   200131 755100                    STA     MAP_ERR,,AUTO

      292    10300    4                END;

      293    10301
      294    10302    3           DBD$FEPMAP$->B$FEPMAP.TYP(MAP_PG#) = %DBD_MAPTYP_SFILE#;

  10302  3 001145   000000 470400 xsym               LDP0    DBD$FEPMAP$
PL6.E3A0      #001=DBD$SFILE File=DBD$FMT_G.:E05TSI                              TUE 07/29/97 13:02 Page:47
         3 001146   200132 720100                    LXL0    MAP_PG#,,AUTO
         3 001147   000000 236110                    LDQ     0,X0,PR0
         3 001150   000032 376000 xsym               ANQ     B_VECTNIL+26
         3 001151   002000 276003                    ORQ     1024,DU
         3 001152   000000 756110                    STQ     0,X0,PR0

      295    10303    3           DBD$FEPMAP$->B$FEPMAP.WHAT#(MAP_PG#) = I;

  10303  3 001153   000000 470400 xsym               LDP0    DBD$FEPMAP$
         3 001154   200132 720100                    LXL0    MAP_PG#,,AUTO
         3 001155   200137 236100                    LDQ     I,,AUTO
         3 001156   000022 736000                    QLS     18
         3 001157   000000 676110                    ERQ     0,X0,PR0
         3 001160   000777 376003                    ANQ     511,DU
         3 001161   000000 656110                    ERSQ    0,X0,PR0

      296    10304    3           DBD$FEPMAP$->B$FEPMAP.INDX#(MAP_PG#) = J;

  10304  3 001162   000000 470400 xsym               LDP0    DBD$FEPMAP$
         3 001163   200132 720100                    LXL0    MAP_PG#,,AUTO
         3 001164   200140 236100                    LDQ     J,,AUTO
         3 001165   000011 736000                    QLS     9
         3 001166   000000 676110                    ERQ     0,X0,PR0
         3 001167   777000 376007                    ANQ     -512,DL
         3 001170   000000 656110                    ERSQ    0,X0,PR0

      297    10305    3           DBD$FEPMAP$->B$FEPMAP.SIZE(MAP_PG#) = MAP_SIZE;

  10305  3 001171   000000 470400 xsym               LDP0    DBD$FEPMAP$
         3 001172   200132 720100                    LXL0    MAP_PG#,,AUTO
         3 001173   200133 236100                    LDQ     MAP_SIZE,,AUTO
         3 001174   000000 676110                    ERQ     0,X0,PR0
         3 001175   000777 376007                    ANQ     511,DL
         3 001176   000000 656110                    ERSQ    0,X0,PR0

      298    10306
      299    10307    3           IF MAP_ERR ~= 0
PL6.E3A0      #001=DBD$SFILE File=DBD$FMT_G.:E05TSI                              TUE 07/29/97 13:02 Page:48

  10307  3 001177   200131 235100                    LDA     MAP_ERR,,AUTO
         3 001200   001207 600000 3                  TZE     s:10313

      300    10308    4           THEN DO;

      301    10309    4                CALL DBD$FEPMAP_ERR(MAP_PG#);

  10309  3 001201   200132 630500                    EPPR0   MAP_PG#,,AUTO
         3 001202   200200 450500                    STP0    SEG_NXT_DATA+6,,AUTO
         3 001203   200200 630500                    EPPR0   SEG_NXT_DATA+6,,AUTO
         3 001204   000017 631400 xsym               EPPR1   B_VECTNIL+15
         3 001205   000000 701000 xent               TSX1    DBD$FEPMAP_ERR
         3 001206   000000 011000                    NOP     0

      302    10310    4                END;

      303    10311    3           END;

      304    10312
      305    10313    2      THIS_SIZE = THIS_SIZE - MAP_SIZE;

  10313  3 001207   200134 236100                    LDQ     THIS_SIZE,,AUTO
         3 001210   200133 136100                    SBLQ    MAP_SIZE,,AUTO
         3 001211   200134 756100                    STQ     THIS_SIZE,,AUTO

      306    10314
      307    10315    2      RETURN;

  10315  3 001212   200176 221300                    LDX1  ! SEG_NXT_DATA+4,,AUTO
         3 001213   000001 702211                    TSX2  ! 1,X1

      308    10316    2   END SET_MAP;
      309    10317        %EJECT;
PL6.E3A0      #001=DBD$SFILE File=DBD$FMT_G.:E05TSI                              TUE 07/29/97 13:02 Page:49
      310    10318
      311    10319    1   DBD$SFILE_DATA: ENTRY(TOP);

  10319  3 001214   000000 700200 xent  DBD$SFILE_D* TSX0  ! X66_AUTO_1
         3 001215   000326 000001                    ZERO    214,1

      312    10320
      313    10321    1      CALL DBM$GETBOBCAT(G$BOBCAT)

  10321  3 001216   200004 630500                    EPPR0   G$BOBCAT,,AUTO
         3 001217   200200 450500                    STP0    SEG_NXT_DATA+6,,AUTO
         3 001220   200200 630500                    EPPR0   SEG_NXT_DATA+6,,AUTO
         3 001221   000017 631400 xsym               EPPR1   B_VECTNIL+15
         3 001222   000000 701000 xent               TSX1    DBM$GETBOBCAT
         3 001223   001225 702000 3                  TSX2    s:10322
         3 001224   001226 710000 3                  TRA     s:10323

      314    10322    2      WHENALTRETURN DO; RETURN; END;

  10322  3 001225   000000 702200 xent               TSX2  ! X66_ARET

      315    10323    1      CALL DBM$PACK4(G$BOBCAT.SFDATA$,SFILE$);

  10323  3 001226   200145 630500                    EPPR0   SFILE$,,AUTO
         3 001227   200201 450500                    STP0    SEG_NXT_DATA+7,,AUTO
         3 001230   200012 631500                    EPPR1   G$BOBCAT+6,,AUTO
         3 001231   200200 451500                    STP1    SEG_NXT_DATA+6,,AUTO
         3 001232   200200 630500                    EPPR0   SEG_NXT_DATA+6,,AUTO
         3 001233   000020 631400 xsym               EPPR1   B_VECTNIL+16
         3 001234   000000 701000 xent               TSX1    DBM$PACK4
         3 001235   000000 011000                    NOP     0

      316    10324
      317    10325    1      CALL DBM$GETMEM(SFILE$,GJ$SFDATA,0,SIZEC(GJ$SFDATA),,SIZEC(GJ$SFDATA));

  10325  3 001236   000051 236000 4                  LDQ     41
         3 001237   000001 235000 xsym               LDA     B_VECTNIL+1
PL6.E3A0      #001=DBD$SFILE File=DBD$FMT_G.:E05TSI                              TUE 07/29/97 13:02 Page:50
         3 001240   200204 757100                    STAQ    SEG_NXT_DATA+10,,AUTO
         3 001241   000052 237000 4                  LDAQ    42
         3 001242   200202 757100                    STAQ    SEG_NXT_DATA+8,,AUTO
         3 001243   200121 630500                    EPPR0   GJ$SFDATA,,AUTO
         3 001244   200201 450500                    STP0    SEG_NXT_DATA+7,,AUTO
         3 001245   200145 631500                    EPPR1   SFILE$,,AUTO
         3 001246   200200 451500                    STP1    SEG_NXT_DATA+6,,AUTO
         3 001247   200200 630500                    EPPR0   SEG_NXT_DATA+6,,AUTO
         3 001250   000024 631400 xsym               EPPR1   B_VECTNIL+20
         3 001251   000000 701000 xent               TSX1    DBM$GETMEM
         3 001252   000000 011000                    NOP     0

      318    10326    1      CALL DAF$WRITE(VECTOR(SFD_FMT1),

  10326  3 001253   377640 235007                    LDA     130976,DL
         3 001254   200200 452500                    STP2    SEG_NXT_DATA+6,,AUTO
         3 001255   200200 236100                    LDQ     SEG_NXT_DATA+6,,AUTO
         3 001256   000122 036003                    ADLQ    82,DU
         3 001257   200202 757100                    STAQ    SEG_NXT_DATA+8,,AUTO
         3 001260   377640 235007                    LDA     130976,DL
         3 001261   200204 452500                    STP2    SEG_NXT_DATA+10,,AUTO
         3 001262   200204 236100                    LDQ     SEG_NXT_DATA+10,,AUTO
         3 001263   000123 036003                    ADLQ    83,DU
         3 001264   200206 757100                    STAQ    SEG_NXT_DATA+12,,AUTO
         3 001265   377640 235007                    LDA     130976,DL
         3 001266   200210 452500                    STP2    SEG_NXT_DATA+14,,AUTO
         3 001267   200210 236100                    LDQ     SEG_NXT_DATA+14,,AUTO
         3 001270   000056 036000 4                  ADLQ    46
         3 001271   200214 757100                    STAQ    SEG_NXT_DATA+18,,AUTO
         3 001272   200202 237100                    LDAQ    SEG_NXT_DATA+8,,AUTO
         3 001273   200212 757100                    STAQ    SEG_NXT_DATA+16,,AUTO
         3 001274   200206 237100                    LDAQ    SEG_NXT_DATA+12,,AUTO
         3 001275   200216 757100                    STAQ    SEG_NXT_DATA+20,,AUTO
         3 001276   200214 237100                    LDAQ    SEG_NXT_DATA+18,,AUTO
         3 001277   200220 757100                    STAQ    SEG_NXT_DATA+22,,AUTO
         3 001300   200220 630500                    EPPR0   SEG_NXT_DATA+22,,AUTO
         3 001301   200225 450500                    STP0    SEG_NXT_DATA+27,,AUTO
PL6.E3A0      #001=DBD$SFILE File=DBD$FMT_G.:E05TSI                              TUE 07/29/97 13:02 Page:51
         3 001302   200216 631500                    EPPR1   SEG_NXT_DATA+20,,AUTO
         3 001303   200224 451500                    STP1    SEG_NXT_DATA+26,,AUTO
         3 001304   200212 633500                    EPPR3   SEG_NXT_DATA+16,,AUTO
         3 001305   200223 453500                    STP3    SEG_NXT_DATA+25,,AUTO
         3 001306   000057 236000 4                  LDQ     47
         3 001307   200222 756100                    STQ     SEG_NXT_DATA+24,,AUTO
         3 001310   200222 630500                    EPPR0   SEG_NXT_DATA+24,,AUTO
         3 001311   000000 220000 xsym               LDX0    DAF$WRITE
         3 001312   000022 631400 xsym               EPPR1   B_VECTNIL+18
         3 001313   000000 701010                    TSX1    0,X0
         3 001314   000000 011000                    NOP     0

      319    10327    1        VECTOR(GJ$SFDATA.CURR#),
      320    10328    1        VECTOR(GJ$SFDATA.PEAK#),
      321    10329    1        VECTOR(GJ$SFDATA.MAX#));
      322    10330
      323    10331    1      CALL DAF$WRITE(VECTOR(SFD_FMT2),

  10331  3 001315   377640 235007                    LDA     130976,DL
         3 001316   200200 452500                    STP2    SEG_NXT_DATA+6,,AUTO
         3 001317   200200 236100                    LDQ     SEG_NXT_DATA+6,,AUTO
         3 001320   000124 036003                    ADLQ    84,DU
         3 001321   200202 757100                    STAQ    SEG_NXT_DATA+8,,AUTO
         3 001322   377640 235007                    LDA     130976,DL
         3 001323   200204 452500                    STP2    SEG_NXT_DATA+10,,AUTO
         3 001324   200204 236100                    LDQ     SEG_NXT_DATA+10,,AUTO
         3 001325   000125 036003                    ADLQ    85,DU
         3 001326   200206 757100                    STAQ    SEG_NXT_DATA+12,,AUTO
         3 001327   377640 235007                    LDA     130976,DL
         3 001330   200210 452500                    STP2    SEG_NXT_DATA+14,,AUTO
         3 001331   200210 236100                    LDQ     SEG_NXT_DATA+14,,AUTO
         3 001332   000062 036000 4                  ADLQ    50
         3 001333   200214 757100                    STAQ    SEG_NXT_DATA+18,,AUTO
         3 001334   200202 237100                    LDAQ    SEG_NXT_DATA+8,,AUTO
         3 001335   200212 757100                    STAQ    SEG_NXT_DATA+16,,AUTO
         3 001336   200206 237100                    LDAQ    SEG_NXT_DATA+12,,AUTO
         3 001337   200216 757100                    STAQ    SEG_NXT_DATA+20,,AUTO
PL6.E3A0      #001=DBD$SFILE File=DBD$FMT_G.:E05TSI                              TUE 07/29/97 13:02 Page:52
         3 001340   200214 237100                    LDAQ    SEG_NXT_DATA+18,,AUTO
         3 001341   200220 757100                    STAQ    SEG_NXT_DATA+22,,AUTO
         3 001342   200220 630500                    EPPR0   SEG_NXT_DATA+22,,AUTO
         3 001343   200225 450500                    STP0    SEG_NXT_DATA+27,,AUTO
         3 001344   200216 631500                    EPPR1   SEG_NXT_DATA+20,,AUTO
         3 001345   200224 451500                    STP1    SEG_NXT_DATA+26,,AUTO
         3 001346   200212 633500                    EPPR3   SEG_NXT_DATA+16,,AUTO
         3 001347   200223 453500                    STP3    SEG_NXT_DATA+25,,AUTO
         3 001350   000063 236000 4                  LDQ     51
         3 001351   200222 756100                    STQ     SEG_NXT_DATA+24,,AUTO
         3 001352   200222 630500                    EPPR0   SEG_NXT_DATA+24,,AUTO
         3 001353   000000 220000 xsym               LDX0    DAF$WRITE
         3 001354   000022 631400 xsym               EPPR1   B_VECTNIL+18
         3 001355   000000 701010                    TSX1    0,X0
         3 001356   000000 011000                    NOP     0

      324    10332    1        VECTOR(GJ$SFDATA.CUR_DATA),
      325    10333    1        VECTOR(GJ$SFDATA.PEAK_DATA),
      326    10334    1        VECTOR(GJ$SFDATA.MAX_DATA));
      327    10335
      328    10336    1      CALL DAF$WRITE(VECTOR(SFD_FMT3),

  10336  3 001357   377640 235007                    LDA     130976,DL
         3 001360   200200 452500                    STP2    SEG_NXT_DATA+6,,AUTO
         3 001361   200200 236100                    LDQ     SEG_NXT_DATA+6,,AUTO
         3 001362   000066 036000 4                  ADLQ    54
         3 001363   200202 757100                    STAQ    SEG_NXT_DATA+8,,AUTO
         3 001364   377640 235007                    LDA     130976,DL
         3 001365   200204 452500                    STP2    SEG_NXT_DATA+10,,AUTO
         3 001366   200204 236100                    LDQ     SEG_NXT_DATA+10,,AUTO
         3 001367   000126 036003                    ADLQ    86,DU
         3 001370   200210 757100                    STAQ    SEG_NXT_DATA+14,,AUTO
         3 001371   200202 237100                    LDAQ    SEG_NXT_DATA+8,,AUTO
         3 001372   200206 757100                    STAQ    SEG_NXT_DATA+12,,AUTO
         3 001373   200210 237100                    LDAQ    SEG_NXT_DATA+14,,AUTO
         3 001374   200212 757100                    STAQ    SEG_NXT_DATA+16,,AUTO
         3 001375   200212 630500                    EPPR0   SEG_NXT_DATA+16,,AUTO
PL6.E3A0      #001=DBD$SFILE File=DBD$FMT_G.:E05TSI                              TUE 07/29/97 13:02 Page:53
         3 001376   200216 450500                    STP0    SEG_NXT_DATA+20,,AUTO
         3 001377   200206 631500                    EPPR1   SEG_NXT_DATA+12,,AUTO
         3 001400   200215 451500                    STP1    SEG_NXT_DATA+19,,AUTO
         3 001401   000067 236000 4                  LDQ     55
         3 001402   200214 756100                    STQ     SEG_NXT_DATA+18,,AUTO
         3 001403   200214 630500                    EPPR0   SEG_NXT_DATA+18,,AUTO
         3 001404   000000 220000 xsym               LDX0    DAF$WRITE
         3 001405   000021 631400 xsym               EPPR1   B_VECTNIL+17
         3 001406   000000 701010                    TSX1    0,X0
         3 001407   000000 011000                    NOP     0

      329    10337    1        VECTOR(GJ$SFDATA.CUR_PROC),
      330    10338    1        VECTOR(GJ$SFDATA.PEAK_PROC));
      331    10339
      332    10340    1      CALL DAF$WRITE(VECTOR(BLANK_LINE));

  10340  3 001410   000004 630400 4                  EPPR0   4
         3 001411   000000 220000 xsym               LDX0    DAF$WRITE
         3 001412   000017 631400 xsym               EPPR1   B_VECTNIL+15
         3 001413   000000 701010                    TSX1    0,X0
         3 001414   000000 011000                    NOP     0

      333    10341    1      CALL DAF$WRITE(VECTOR(SFD_FMT4),

  10341  3 001415   377640 235007                    LDA     130976,DL
         3 001416   200200 452500                    STP2    SEG_NXT_DATA+6,,AUTO
         3 001417   200200 236100                    LDQ     SEG_NXT_DATA+6,,AUTO
         3 001420   000072 036000 4                  ADLQ    58
         3 001421   200202 757100                    STAQ    SEG_NXT_DATA+8,,AUTO
         3 001422   377640 235007                    LDA     130976,DL
         3 001423   200204 452500                    STP2    SEG_NXT_DATA+10,,AUTO
         3 001424   200204 236100                    LDQ     SEG_NXT_DATA+10,,AUTO
         3 001425   000130 036003                    ADLQ    88,DU
         3 001426   200206 757100                    STAQ    SEG_NXT_DATA+12,,AUTO
         3 001427   377640 235007                    LDA     130976,DL
         3 001430   200210 452500                    STP2    SEG_NXT_DATA+14,,AUTO
         3 001431   200210 236100                    LDQ     SEG_NXT_DATA+14,,AUTO
PL6.E3A0      #001=DBD$SFILE File=DBD$FMT_G.:E05TSI                              TUE 07/29/97 13:02 Page:54
         3 001432   000127 036003                    ADLQ    87,DU
         3 001433   200214 757100                    STAQ    SEG_NXT_DATA+18,,AUTO
         3 001434   200202 237100                    LDAQ    SEG_NXT_DATA+8,,AUTO
         3 001435   200212 757100                    STAQ    SEG_NXT_DATA+16,,AUTO
         3 001436   200206 237100                    LDAQ    SEG_NXT_DATA+12,,AUTO
         3 001437   200216 757100                    STAQ    SEG_NXT_DATA+20,,AUTO
         3 001440   200214 237100                    LDAQ    SEG_NXT_DATA+18,,AUTO
         3 001441   200220 757100                    STAQ    SEG_NXT_DATA+22,,AUTO
         3 001442   200220 630500                    EPPR0   SEG_NXT_DATA+22,,AUTO
         3 001443   200225 450500                    STP0    SEG_NXT_DATA+27,,AUTO
         3 001444   200216 631500                    EPPR1   SEG_NXT_DATA+20,,AUTO
         3 001445   200224 451500                    STP1    SEG_NXT_DATA+26,,AUTO
         3 001446   200212 633500                    EPPR3   SEG_NXT_DATA+16,,AUTO
         3 001447   200223 453500                    STP3    SEG_NXT_DATA+25,,AUTO
         3 001450   000073 236000 4                  LDQ     59
         3 001451   200222 756100                    STQ     SEG_NXT_DATA+24,,AUTO
         3 001452   200222 630500                    EPPR0   SEG_NXT_DATA+24,,AUTO
         3 001453   000000 220000 xsym               LDX0    DAF$WRITE
         3 001454   000022 631400 xsym               EPPR1   B_VECTNIL+18
         3 001455   000000 701010                    TSX1    0,X0
         3 001456   000000 011000                    NOP     0

      334    10342    1        VECTOR(GJ$SFDATA.REL_4MEM),
      335    10343    1        VECTOR(GJ$SFDATA.REL_4SFILE),
      336    10344    1        VECTOR(GJ$SFDATA.TBL_FULL));
      337    10345
      338    10346    1      RETURN;

  10346  3 001457   000000 702200 xent               TSX2  ! X66_ARET
      339    10347    1   END DBD$SFILE;
      340    10348        %EOD;

PL6.E3A0      #001=DBD$SFILE File=DBD$FMT_G.:E05TSI                              TUE 07/29/97 13:02 Page:55
--  Include file information  --

   XU_MACRO_C.:E05TOU  is referenced.
   DB_ANLZ_M.:E05TOU  is referenced.
   DA_FORMAT_C.:E05TOU  is referenced.
   GJ_MACROS_M.:E05TOU  is referenced.
   G_SFILE_M.:E05TOU  is referenced.
   G$BOBCAT_M.:E05TOU  is referenced.
   CP_6_C.:E05TOU  is referenced.
   CP_6.:E05TOU  cannot be made into a system file and is referenced.
      No diagnostics issued in procedure DBD$SFILE.
PL6.E3A0      #001=DBD$SFILE File=DBD$FMT_G.:E05TSI                              TUE 07/29/97 13:02 Page:56

 **** Variables and constants ****

  ****  Section 001 RoData DBD$SFILE

  ****  Scalars and arrays  ****
OctLoc.c.b A Datatyp(siz) R M Lvl/name                 OctLoc.c.b A Datatyp(siz) R M Lvl/name

     0-0-0/c CHAR(80)    r     1 SFD_FMT1                  24-0-0/c CHAR(80)    r     1 SFD_FMT2
    50-0-0/c CHAR(57)    r     1 SFD_FMT3                  67-0-0/c CHAR(80)    r     1 SFD_FMT4
   130-0-0/c CHAR(75)    r     1 SFILERPT2                153-0-0/c CHAR(75)    r     1 SFILERPT3
   113-0-0/c CHAR(52)    r     1 SFILE_FMT1               176-0-0/c CHAR(76)    r     1 SFILE_FMT2

  ****  Section 002  Data  DBD$SFILE

  ****  Scalars and arrays  ****
OctLoc.c.b A Datatyp(siz) R M Lvl/name                 OctLoc.c.b A Datatyp(siz) R M Lvl/name

     0-0-0/w STRC(288)   r     1 SFILERPT1                 20-0-0/w STRC(144)   r     1 SFILERPT1HD00
    47-0-0/w STRC(144)   r     1 SFILERPT1HD01             10-0-0/c STRC(270)   r     1 SFILERPT1TX00
    24-0-0/c STRC(675)   r     1 SFILERPT1TX01             53-0-0/c STRC(675)   r     1 SFILERPT1TX02

  ****  Auto variables  ****

  ****  Scalars and arrays  ****
OctLoc.c.b A Datatyp(siz) R M Lvl/name                 OctLoc.c.b A Datatyp(siz) R M Lvl/name

     3-0-0/w PTR         r     1 @TOP                     156-0-0/w UBIN        r     1 DATA#
   150-0-0/w UBIN        r     1 FLAGS                    154-0-0/w UBIN        r     1 FRQ
     4-0-0/w STRC(1908)  r     1 G$BOBCAT                  71-0-0/w STRC(864)   r     1 G$SFILE
   121-0-0/w STRC(270)   r     1 GJ$SFDATA                137-0-0/w UBIN        r     1 I
   152-0-0/w UBIN        r     1 INSTIME                  140-0-0/w UBIN        r     1 J
   131-0-0/w UBIN        r     1 MAP_ERR                  132-0-0/w UBIN        r     1 MAP_PG#
   133-0-0/w UBIN        r     1 MAP_SIZE                 151-0-0/w UBIN        r     1 MODTIME
   136-0-0/w UBIN        r     1 PASS                     135-0-0/w PTR         r     1 PP_SEG$
   157-0-0/w UBIN        r     1 PROC#                    142-0-0/w UBIN        r     1 RADIX
   155-0-0/w UBIN        r     1 ROS#                     160-0-0/w UBIN        r     1 ROS_PG
   161-0-0/w UBIN        r     1 SEG1_PG                  162-0-0/w UBIN        r     1 SEG2_PG
PL6.E3A0      #001=DBD$SFILE File=DBD$FMT_G.:E05TSI                              TUE 07/29/97 13:02 Page:57
   163-0-0/w UBIN        r     1 SEG3_PG                  164-0-0/w UBIN        r     1 SEG4_PG
   165-0-0/w UBIN        r     1 SEG5_PG                  166-0-0/w UBIN        r     1 SEG6_PG
   167-0-0/w UBIN        r     1 SEG7_PG                  170-0-0/w UBIN        r     1 SEG_1_DATA
   171-0-0/w UBIN        r     1 SEG_1_PROC               172-0-0/w UBIN        r     1 SEG_NXT_DATA
   143-0-0/w UBIN        r     1 SFILE#                   145-0-0/w UBIN        r     1 SFILE$
   147-0-0/w UBIN        r     1 SFILE_SIZE               146-0-0/w UBIN        r     1 THIS_SFILE$
   134-0-0/w UBIN        r     1 THIS_SIZE                 *0-0-0/w STRC(144)   r     1 TOP
   153-0-0/w UBIN        r     1 UC                       141-0-0/w UBIN        r     1 X

  ****  SYMREF variables  ****

  ****  Scalars and arrays  ****
OctLoc.c.b A Datatyp(siz) R M Lvl/name                 OctLoc.c.b A Datatyp(siz) R M Lvl/name

     0-0-0/c CHAR(4)     r     1 BLANK_LINE                 0-0-0/w EPTR        r     1 DAF$WRITE
     0-0-0/w PTR         r     1 DBD$FEPMAP$

  ****  BASED and DCB variables  ****

  ****  Scalars and arrays  ****
OctLoc.c.b A Datatyp(siz) R M Lvl/name                 OctLoc.c.b A Datatyp(siz) R M Lvl/name

     0-0-0/w STRC        r     1 B$FEPMAP(0:0)
     0-0-0/w UBIN        r     1 B$SEGS(0:7)                0-0-0/w STRC(144)   r     1 OUT


   Procedure DBD$SFILE requires 816 words for executable code.
   Procedure DBD$SFILE requires 214 words of local(AUTO) storage.
PL6.E3A0      #001=DBD$SFILE File=DBD$FMT_G.:E05TSI                              TUE 07/29/97 13:02 Page:58
          *** CROSS REFERENCE LISTING ***
**     DENOTES     IDENTIFIER DEFINITION
<<                 IDENTIFIER'S VALUE SET
>>                 IDENTIFIER'S VALUE USED
<>                 IDENTIFIER SET AND/OR USED
--                 IDENTIFIER REFERENCED
PL6.E3A0      #001=DBD$SFILE File=DBD$FMT_G.:E05TSI                              TUE 07/29/97 13:02 Page:59
          MINI XREF LISTING

B$FEPMAP
     10082**DCL     10296>>IF
B$FEPMAP.INDX#
     10087**DCL     10304<<ASSIGN
B$FEPMAP.SIZE
     10089**DCL     10305<<ASSIGN
B$FEPMAP.TYP
     10083**DCL     10302<<ASSIGN
B$FEPMAP.WHAT#
     10085**DCL     10303<<ASSIGN
B$SEGS
     10097**DCL     10286>>ASSIGN
BLANK_LINE
     10070**DCL     10150--CALL    10151--CALL    10176--CALL    10177--CALL    10340--CALL
DAA$VALUE
      9890**DCL-ENT 10169--CALL
DAF$INIT
      9892**DCL-ENT 10148--CALL
DAF$WRITE
      9891**DCL     10150>>CALL    10151>>CALL    10152>>CALL    10153>>CALL    10176>>CALL    10177>>CALL
     10204>>CALL    10234>>CALL    10326>>CALL    10331>>CALL    10336>>CALL    10340>>CALL    10341>>CALL
DATA#
     10122**DCL     10210<>CALL    10234--CALL    10251>>IF      10255>>ASSIGN  10263>>ASSIGN
DBD$FEPMAP$
      9900**DCL     10145>>IF      10190>>IF      10223>>IF      10296>>IF      10302>>ASSIGN  10303>>ASSIGN
     10304>>ASSIGN  10305>>ASSIGN
DBD$FEPMAP_ERR
      9893**DCL-ENT 10298--CALL    10309--CALL
DBM$GETBOBCAT
      9895**DCL-ENT 10139--CALL    10321--CALL
DBM$GETMEM
      9894**DCL-ENT 10183--CALL    10325--CALL
PL6.E3A0      #001=DBD$SFILE File=DBD$FMT_G.:E05TSI                              TUE 07/29/97 13:02 Page:60
DBM$PACK1
      9896**DCL-ENT 10194--CALL    10195--CALL    10209--CALL
DBM$PACK2
      9897**DCL-ENT 10142--CALL    10192--CALL    10210--CALL    10211--CALL    10212--CALL    10213--CALL
     10214--CALL    10215--CALL    10216--CALL    10217--CALL    10218--CALL    10219--CALL    10220--CALL
     10221--CALL    10260--CALL
DBM$PACK4
      9898**DCL-ENT 10141--CALL    10185--CALL    10193--CALL    10323--CALL
DISP_SFILE
     10181**PROC    10163--CALL    10171--CALL
FLAGS
     10116**DCL     10192<>CALL    10204--CALL
FRQ
     10120**DCL     10195<>CALL    10204--CALL
G$BOBCAT
      9656**DCL     10139<>CALL    10321<>CALL
G$BOBCAT.SFDATA$
      9657**DCL     10323<>CALL
G$BOBCAT.SFILE#
      9657**DCL     10142<>CALL
G$BOBCAT.SFILE$
      9660**DCL     10141<>CALL
G$SFILE
      9684**DCL     10138--ASSIGN  10183<>CALL    10183--CALL    10183--CALL
G$SFILE.ACCT
      9686**DCL     10204--CALL
G$SFILE.FRQ
      9699**DCL     10195<>CALL
G$SFILE.INSTTIME
      9700**DCL     10185<>CALL
G$SFILE.LIB_WDSZ_DATA
      9700**DCL      9701--REDEF
G$SFILE.MODTIME
      9686**DCL     10193<>CALL
G$SFILE.NAME
      9686**DCL     10204--CALL
PL6.E3A0      #001=DBD$SFILE File=DBD$FMT_G.:E05TSI                              TUE 07/29/97 13:02 Page:61
G$SFILE.PGSZ_DATA
      9701**DCL     10210<>CALL
G$SFILE.PGSZ_PROC
      9701**DCL     10211<>CALL
G$SFILE.PGSZ_ROS
      9699**DCL     10209<>CALL
G$SFILE.PP_ROS
      9702**DCL     10212<>CALL
G$SFILE.PP_SEG1
      9702**DCL     10213<>CALL
G$SFILE.PP_SEG2
      9702**DCL     10214<>CALL
G$SFILE.PP_SEG3
      9702**DCL     10215<>CALL
G$SFILE.PP_SEG4
      9703**DCL     10216<>CALL
G$SFILE.PP_SEG5
      9703**DCL     10217<>CALL
G$SFILE.PP_SEG6
      9703**DCL     10218<>CALL
G$SFILE.PP_SEG7
      9703**DCL     10219<>CALL
G$SFILE.RU_FLGS
      9687**DCL     10192<>CALL
G$SFILE.RU_FLGS.LIB
      9691**DCL     10253>>IF
G$SFILE.SEG_1ST_DATA
      9700**DCL     10220<>CALL
G$SFILE.SEG_1ST_PROC
      9700**DCL     10221<>CALL
G$SFILE.UC
      9699**DCL     10194<>CALL
G$SFILE.USR_DATA.PGSZ_DATA1
      9701**DCL     10260<>CALL
GJ$SFDATA
      9711**DCL     10325<>CALL    10325--CALL    10325--CALL
PL6.E3A0      #001=DBD$SFILE File=DBD$FMT_G.:E05TSI                              TUE 07/29/97 13:02 Page:62
GJ$SFDATA.CURR#
      9727**DCL     10326--CALL
GJ$SFDATA.CUR_DATA
      9747**DCL     10331--CALL
GJ$SFDATA.CUR_PROC
      9762**DCL     10336--CALL
GJ$SFDATA.MAX#
      9732**DCL     10326--CALL
GJ$SFDATA.MAX_DATA
      9752**DCL     10331--CALL
GJ$SFDATA.PEAK#
      9737**DCL     10326--CALL
GJ$SFDATA.PEAK_DATA
      9757**DCL     10331--CALL
GJ$SFDATA.PEAK_PROC
      9768**DCL     10336--CALL
GJ$SFDATA.REL_4MEM
      9785**DCL     10341--CALL
GJ$SFDATA.REL_4SFILE
      9791**DCL     10341--CALL
GJ$SFDATA.TBL_FULL
      9779**DCL     10341--CALL
I
     10105**DCL     10162<<DOINDEX 10169<>CALL    10170>>IF      10170>>IF      10182>>ASSIGN  10204--CALL
     10234--CALL    10303>>ASSIGN
INSTIME
     10118**DCL     10185<>CALL    10186>>IF      10204--CALL
J
     10106**DCL     10244<<ASSIGN  10261<<ASSIGN  10267<<DOINDEX 10276<<DOINDEX 10286>>ASSIGN  10304>>ASSIGN
MAP_ERR
     10099**DCL     10295<<ASSIGN  10299<<ASSIGN  10307>>IF
MAP_PG#
     10100**DCL     10246<<ASSIGN  10286<<ASSIGN  10296>>IF      10298<>CALL    10302>>ASSIGN  10303>>ASSIGN
     10304>>ASSIGN  10305>>ASSIGN  10309<>CALL
MAP_SIZE
     10101**DCL     10290<<ASSIGN  10291<<ASSIGN  10293>>IF      10305>>ASSIGN  10313>>ASSIGN
PL6.E3A0      #001=DBD$SFILE File=DBD$FMT_G.:E05TSI                              TUE 07/29/97 13:02 Page:63
MODTIME
     10117**DCL     10193<>CALL    10204--CALL
OUT
      9850**DCL     10169<>CALL
PASS
     10104**DCL     10144<<DOINDEX 10147>>IF      10188>>IF
PP_SEG$
     10103**DCL     10241<<ASSIGN  10250<<ASSIGN  10286>>ASSIGN
PROC#
     10123**DCL     10211<>CALL    10234--CALL    10272>>IF      10274>>ASSIGN
RADIX
     10108**DCL     10169<>CALL
ROS#
     10121**DCL     10209<>CALL    10234--CALL    10242>>IF      10245>>ASSIGN
ROS_PG
     10124**DCL     10212<>CALL    10234--CALL    10241--ASSIGN  10246>>ASSIGN
SEG1_PG
     10125**DCL     10213<>CALL    10234--CALL    10250--ASSIGN
SEG2_PG
     10126**DCL     10214<>CALL    10234--CALL
SEG3_PG
     10127**DCL     10215<>CALL    10234--CALL
SEG4_PG
     10128**DCL     10216<>CALL    10234--CALL
SEG5_PG
     10129**DCL     10217<>CALL    10234--CALL
SEG6_PG
     10130**DCL     10218<>CALL    10234--CALL
SEG7_PG
     10131**DCL     10219<>CALL    10234--CALL
SEG_1_DATA
     10132**DCL     10220<>CALL    10256>>ASSIGN  10261>>ASSIGN  10264>>ASSIGN
SEG_1_PROC
     10133**DCL     10221<>CALL    10267>>DOINDEX 10276>>DOINDEX
SEG_NXT_DATA
     10134**DCL     10256<<ASSIGN  10264<<ASSIGN  10267>>DOINDEX
PL6.E3A0      #001=DBD$SFILE File=DBD$FMT_G.:E05TSI                              TUE 07/29/97 13:02 Page:64
SET_MAP
     10285**PROC    10262--CALL    10268--CALL    10277--CALL
SET_MAP2 IN PROCEDURE SET_MAP
     10288**ENTRY   10247--CALL
SFD_FMT1
      9902**DCL     10326--CALL
SFD_FMT2
      9905**DCL     10331--CALL
SFD_FMT3
      9908**DCL     10336--CALL
SFD_FMT4
      9911**DCL     10341--CALL
SFILE#
     10109**DCL     10142<>CALL    10162>>DOINDEX 10170>>IF
SFILE$
     10111**DCL     10141<>CALL    10182>>ASSIGN  10323<>CALL    10325<>CALL
SFILERPT1
      9931**DCL     10148<>CALL
SFILERPT1HD00
      9998**DCL      9966--DCLINIT
SFILERPT1HD01
     10041**DCL     10013--DCLINIT
SFILERPT1TX00
      9974**DCL      9961--DCLINIT
SFILERPT1TX01
     10016**DCL     10006--DCLINIT
SFILERPT1TX02
     10059**DCL     10049--DCLINIT
SFILERPT2
     10071**DCL     10152--CALL
SFILERPT3
     10073**DCL     10153--CALL
SFILE_FMT1
     10066**DCL     10204--CALL
SFILE_FMT2
     10075**DCL     10234--CALL
PL6.E3A0      #001=DBD$SFILE File=DBD$FMT_G.:E05TSI                              TUE 07/29/97 13:02 Page:65
SFILE_LOOP
     10157**LABEL   10157--GOTO
SFILE_SIZE
     10113**DCL     10138<<ASSIGN  10182>>ASSIGN
THIS_SFILE$
     10112**DCL     10182<<ASSIGN  10183<>CALL
THIS_SIZE
     10102**DCL     10245<<ASSIGN  10255<<ASSIGN  10260<>CALL    10263<<ASSIGN  10263>>ASSIGN  10274<<ASSIGN
     10289>>IF      10291>>ASSIGN  10313<<ASSIGN  10313>>ASSIGN
TOP
      9805**DCL        23--PROC    10319--ENTRY
TOP.NSUBLKS
      9817**DCL     10159>>IF      10168>>DOINDEX
TOP.SUBLK$
      9838**DCL     10169>>CALL
UC
     10119**DCL     10194<>CALL    10204--CALL
X
     10107**DCL     10168<<DOINDEX 10169>>CALL

PL6.E3A0      #002=DBD$ACC_RES File=DBD$FMT_G.:E05TSI                            TUE 07/29/97 13:03 Page:66
      341        1        /*T***********************************************************/
      342        2        /*T*                                                         */
      343        3        /*T* Copyright (c) Bull HN Information Systems Inc., 1997    */
      344        4        /*T*                                                         */
      345        5        /*T***********************************************************/
      346        6        /*F*    NAME: DBD$ACC_RES
      347        7                PURPOSE: To process the ACCRES command for FEPs.
      348        8
      349        9        */
      350       10        DBD$ACC_RES: PROC;
      351       11
      352       12        /*X* PLM=3,IND=5,ECU=0,ENU=0   */
      353       13
      354       14        %INCLUDE CP_6;
      355     5573        %INCLUDE G$BOBCAT_M;
      356     5593        %INCLUDE GFR_DATA_M;
      357     5613        %INCLUDE DA_FORMAT_C;
      358     5855        %INCLUDE XU_MACRO_C;
      359     8961
      360     8962        %G$BOBCAT (FPTN=G$BOBCAT,STCLASS=AUTO);
      361     8975        %GFR$ACCT (FPTN=G$ACCT_RES,STCLASS=AUTO,ARRAYED=NO);
      362     8988
      363     8989    1   DCL DAF$WRITE EPTR SYMREF;
      364     8990    1   DCL DAF$INIT ENTRY(1) ALTRET;
      365     8991    1   DCL DBM$GETMEM ENTRY(10) ALTRET;
      366     8992    1   DCL DBM$GETBOBCAT ENTRY(1) ALTRET;
      367     8993    1   DCL DBM$PACK2 ENTRY(2);
      368     8994    1   DCL DBM$PACK4 ENTRY(2);
      369     8995
      370     8996        %REPORT (NAME=ACCT_RES_RPT,TRUNC=YES,TABDFLT=5,HEADER=YES,TITLE=
              8996            'FEP ACCRES - Account Resource Table');
      371     9062        %HEADER (LAST=NO,TEXT=
      372     9063        ' #  Identification                  Max Fprg  Cur Fprg  Max Mem  Cur Mem');
      373     9105        %HEADER (TEXT=
      374     9106        '--- ------------------------------  --------  --------  -------  -------');
      375     9148    1   DCL 1 ACCT_RES_FMT CHAR(0) CONSTANT INIT(
      376     9149    1   '%3D %>A,%>A %36- %8D%10D%9D%9D');
PL6.E3A0      #002=DBD$ACC_RES File=DBD$FMT_G.:E05TSI                            TUE 07/29/97 13:03 Page:67
      377     9150
      378     9151    1   DCL BLANK_LINE CHAR(4) SYMREF;
      379     9152
      380     9153        /* AUTO Storage */
      381     9154    1   DCL I UBIN;
      382     9155    1   DCL X UBIN;
      383     9156    1   DCL ACCT_RES# UBIN;
      384     9157    1   DCL ACCT_RES$ UBIN;
      385     9158    1   DCL THIS_ACCT_RES$ UBIN;
      386     9159    1   DCL ACCT_RES_SIZE UBIN;                 /*L6 word size                        */
      387     9160
      388     9161    1   DCL MAX_MEM UBIN;
      389     9162    1   DCL CUR_MEM UBIN;
      390     9163    1   DCL MAX_FPRGS UBIN;
      391     9164    1   DCL CUR_FPRGS UBIN;
      392     9165        %EJECT;
PL6.E3A0      #002=DBD$ACC_RES File=DBD$FMT_G.:E05TSI                            TUE 07/29/97 13:03 Page:68
      393     9166
      394     9167    1      ACCT_RES_SIZE = (SIZEC(G$ACCT_RES)+1) / 2;
      395     9168    1      CALL DBM$GETBOBCAT(G$BOBCAT)
      396     9169    2      WHENALTRETURN DO; RETURN; END;
      397     9170    1      CALL DBM$PACK4(G$BOBCAT.ACCT_RES$,ACCT_RES$);
      398     9171    1      CALL DBM$PACK2(G$BOBCAT.ACCT_RES#,ACCT_RES#);
      399     9172
      400     9173    1      CALL DAF$INIT(ACCT_RES_RPT);
      401     9174
      402     9175    2      DO I=1 TO ACCT_RES#;
      403     9176    2           THIS_ACCT_RES$ = ACCT_RES$ + (ACCT_RES_SIZE *I);
      404     9177    2           CALL DBM$GETMEM(THIS_ACCT_RES$,G$ACCT_RES,0,SIZEC(G$ACCT_RES),,SIZEC(
              9177                    G$ACCT_RES));
      405     9178
      406     9179    2           CALL DBM$PACK2(G$ACCT_RES.MAX_MEM,MAX_MEM);
      407     9180    2           CALL DBM$PACK2(G$ACCT_RES.CUR_MEM,CUR_MEM);
      408     9181    2           CALL DBM$PACK2(G$ACCT_RES.MAX_FPRGS,MAX_FPRGS);
      409     9182    2           CALL DBM$PACK2(G$ACCT_RES.CUR_FPRGS,CUR_FPRGS);
      410     9183
      411     9184    2           IF MAX_FPRGS ~= 0
      412     9185    3           THEN DO;
      413     9186    3                CALL DAF$WRITE(VECTOR(ACCT_RES_FMT),
      414     9187    3                  VECTOR(I),
      415     9188    3                  VECTOR(G$ACCT_RES.ACCN),
      416     9189    3                  VECTOR(G$ACCT_RES.UNAME),
      417     9190    3                  VECTOR(MAX_FPRGS),
      418     9191    3                  VECTOR(CUR_FPRGS),
      419     9192    3                  VECTOR(MAX_MEM),
      420     9193    3                  VECTOR(CUR_MEM));
      421     9194    3                END;
      422     9195
      423     9196    2           END/*do I=1 to acc_res#*/;
      424     9197    1      CALL DAF$WRITE(VECTOR(BLANK_LINE));
      425     9198    1      CALL DAF$WRITE(VECTOR(BLANK_LINE));
      426     9199    1      RETURN;
      427     9200
      428     9201    1   END DBD$ACC_RES;
PL6.E3A0      #002=DBD$ACC_RES File=DBD$FMT_G.:E05TSI                            TUE 07/29/97 13:03 Page:69
      429     9202        %EOD;

PL6.E3A0      #002=DBD$ACC_RES File=DBD$FMT_G.:E05TSI                            TUE 07/29/97 13:03 Page:70
--  Include file information  --

   XU_MACRO_C.:E05TOU  is referenced.
   DA_FORMAT_C.:E05TOU  is referenced.
   GFR_DATA_M.:E05TOU  is referenced.
   G$BOBCAT_M.:E05TOU  is referenced.
   CP_6_C.:E05TOU  is referenced.
   CP_6.:E05TOU  cannot be made into a system file and is referenced.
      No diagnostics issued in procedure DBD$ACC_RES.

   Procedure DBD$ACC_RES requires 177 words for executable code.
   Procedure DBD$ACC_RES requires 124 words of local(AUTO) storage.

PL6.E3A0      #002=DBD$ACC_RES File=DBD$FMT_G.:E05TSI                            TUE 07/29/97 13:03 Page:71

 Object Unit name= DBD$ACC_RES                                File name= DBD$FMT_G.:E05TOU
 UTS= JUL 29 '97 13:03:23.80 TUE                              Compiler= PL-6/E31         Sev=      00
 SharedLib= :SHARED_SYSTEM                                    Alt SharedLib=


    ****  Control sections  ****

 Sect   Type Bound  Init  Size OctSiz  Section name(segment info)
    0   DCB   even  none     0      0  M$UC
    1   Data  even  none    63     77  DBD$ACC_RES
    2  RoData even  UTS      8     10  DBD$ACC_RES
    3   Proc  even  none   177    261  DBD$ACC_RES
    4  RoData even  none    17     21  DBD$ACC_RES

    ****  Entry defs  ****

                              Check   Calling
                             calling  sequence
  Sect OctLoc Primary Altret sequence   type   Parms  Name
     3      0   yes            yes      Std        0  DBD$ACC_RES

  ****  Entry refs  ****

         Check        Calling
        calling       sequence
Altret sequence SRef   type   Args  Name
 yes     yes           Std       1 DBM$GETBOBCAT
         yes           Std       2 DBM$PACK4
         yes           Std       2 DBM$PACK2
 yes     yes           Std      10 DBM$GETMEM
 yes     yes           Std       1 DAF$INIT
                       nStd      0 X66_AUTO_0
                       Std       0 B_CONSPOOL_D
                       nStd      0 X66_ARET
PL6.E3A0      #002=DBD$ACC_RES File=DBD$FMT_G.:E05TSI                            TUE 07/29/97 13:03 Page:72

  ****  Data refs  ****

  Flags:  r = read only, s = secondary
Flgs Name                             Flgs Name                             Flgs Name
     M$UC                                  DAF$WRITE                             BLANK_LINE
     B_VECTNIL

  ****  Segment refs  ****

  Flags:  r = read only, s = secondary
Flgs Name                             Flgs Name                             Flgs Name
     ISSID                                 NULLSID
PL6.E3A0      #002=DBD$ACC_RES File=DBD$FMT_G.:E05TSI                            TUE 07/29/97 13:03 Page:73


      341        1        /*T***********************************************************/
      342        2        /*T*                                                         */
      343        3        /*T* Copyright (c) Bull HN Information Systems Inc., 1997    */
      344        4        /*T*                                                         */
      345        5        /*T***********************************************************/
      346        6        /*F*    NAME: DBD$ACC_RES
      347        7                PURPOSE: To process the ACCRES command for FEPs.
      348        8
      349        9        */
      350       10        DBD$ACC_RES: PROC;

     10  3 000000   000000 700200 xent  DBD$ACC_RES  TSX0  ! X66_AUTO_0
         3 000001   000174 000000                    ZERO    124,0

      351       11
      352       12        /*X* PLM=3,IND=5,ECU=0,ENU=0   */
      353       13
      354       14        %INCLUDE CP_6;
      355     5573        %INCLUDE G$BOBCAT_M;
      356     5593        %INCLUDE GFR_DATA_M;
      357     5613        %INCLUDE DA_FORMAT_C;
      358     5855        %INCLUDE XU_MACRO_C;
      359     8961
      360     8962        %G$BOBCAT (FPTN=G$BOBCAT,STCLASS=AUTO);
      361     8975        %GFR$ACCT (FPTN=G$ACCT_RES,STCLASS=AUTO,ARRAYED=NO);
      362     8988
      363     8989    1   DCL DAF$WRITE EPTR SYMREF;
      364     8990    1   DCL DAF$INIT ENTRY(1) ALTRET;
      365     8991    1   DCL DBM$GETMEM ENTRY(10) ALTRET;
      366     8992    1   DCL DBM$GETBOBCAT ENTRY(1) ALTRET;
      367     8993    1   DCL DBM$PACK2 ENTRY(2);
      368     8994    1   DCL DBM$PACK4 ENTRY(2);
      369     8995
      370     8996        %REPORT (NAME=ACCT_RES_RPT,TRUNC=YES,TABDFLT=5,HEADER=YES,TITLE=
              8996            'FEP ACCRES - Account Resource Table');
      371     9062        %HEADER (LAST=NO,TEXT=
PL6.E3A0      #002=DBD$ACC_RES File=DBD$FMT_G.:E05TSI                            TUE 07/29/97 13:03 Page:74
      372     9063        ' #  Identification                  Max Fprg  Cur Fprg  Max Mem  Cur Mem');
      373     9105        %HEADER (TEXT=
      374     9106        '--- ------------------------------  --------  --------  -------  -------');
      375     9148    1   DCL 1 ACCT_RES_FMT CHAR(0) CONSTANT INIT(
      376     9149    1   '%3D %>A,%>A %36- %8D%10D%9D%9D');
      377     9150
      378     9151    1   DCL BLANK_LINE CHAR(4) SYMREF;
      379     9152
      380     9153        /* AUTO Storage */
      381     9154    1   DCL I UBIN;
      382     9155    1   DCL X UBIN;
      383     9156    1   DCL ACCT_RES# UBIN;
      384     9157    1   DCL ACCT_RES$ UBIN;
      385     9158    1   DCL THIS_ACCT_RES$ UBIN;
      386     9159    1   DCL ACCT_RES_SIZE UBIN;                 /*L6 word size                        */
      387     9160
      388     9161    1   DCL MAX_MEM UBIN;
      389     9162    1   DCL CUR_MEM UBIN;
      390     9163    1   DCL MAX_FPRGS UBIN;
      391     9164    1   DCL CUR_FPRGS UBIN;
      392     9165        %EJECT;
PL6.E3A0      #002=DBD$ACC_RES File=DBD$FMT_G.:E05TSI                            TUE 07/29/97 13:03 Page:75
      393     9166
      394     9167    1      ACCT_RES_SIZE = (SIZEC(G$ACCT_RES)+1) / 2;

   9167  3 000002   000016 235007                    LDA     14,DL
         3 000003   200104 755100                    STA     ACCT_RES_SIZE,,AUTO

      395     9168    1      CALL DBM$GETBOBCAT(G$BOBCAT)

   9168  3 000004   200003 630500                    EPPR0   G$BOBCAT,,AUTO
         3 000005   200112 450500                    STP0    CUR_FPRGS+2,,AUTO
         3 000006   200112 630500                    EPPR0   CUR_FPRGS+2,,AUTO
         3 000007   000017 631400 xsym               EPPR1   B_VECTNIL+15
         3 000010   000000 701000 xent               TSX1    DBM$GETBOBCAT
         3 000011   000013 702000 3                  TSX2    s:9169
         3 000012   000014 710000 3                  TRA     s:9170

      396     9169    2      WHENALTRETURN DO; RETURN; END;

   9169  3 000013   000000 702200 xent               TSX2  ! X66_ARET

      397     9170    1      CALL DBM$PACK4(G$BOBCAT.ACCT_RES$,ACCT_RES$);

   9170  3 000014   200102 630500                    EPPR0   ACCT_RES$,,AUTO
         3 000015   200113 450500                    STP0    CUR_FPRGS+3,,AUTO
         3 000016   200023 631500                    EPPR1   G$BOBCAT+16,,AUTO
         3 000017   200112 451500                    STP1    CUR_FPRGS+2,,AUTO
         3 000020   200112 630500                    EPPR0   CUR_FPRGS+2,,AUTO
         3 000021   000020 631400 xsym               EPPR1   B_VECTNIL+16
         3 000022   000000 701000 xent               TSX1    DBM$PACK4
         3 000023   000000 011000                    NOP     0

      398     9171    1      CALL DBM$PACK2(G$BOBCAT.ACCT_RES#,ACCT_RES#);

   9171  3 000024   200101 630500                    EPPR0   ACCT_RES#,,AUTO
         3 000025   200113 450500                    STP0    CUR_FPRGS+3,,AUTO
         3 000026   200012 631500                    EPPR1   G$BOBCAT+7,,AUTO
         3 000027   200112 451500                    STP1    CUR_FPRGS+2,,AUTO
PL6.E3A0      #002=DBD$ACC_RES File=DBD$FMT_G.:E05TSI                            TUE 07/29/97 13:03 Page:76
         3 000030   200112 630500                    EPPR0   CUR_FPRGS+2,,AUTO
         3 000031   000020 631400 xsym               EPPR1   B_VECTNIL+16
         3 000032   000000 701000 xent               TSX1    DBM$PACK2
         3 000033   000000 011000                    NOP     0

      399     9172
      400     9173    1      CALL DAF$INIT(ACCT_RES_RPT);

   9173  3 000034   000000 630400 4                  EPPR0   0
         3 000035   000017 631400 xsym               EPPR1   B_VECTNIL+15
         3 000036   000000 701000 xent               TSX1    DAF$INIT
         3 000037   000000 011000                    NOP     0

      401     9174
      402     9175    2      DO I=1 TO ACCT_RES#;

   9175  3 000040   000001 235007                    LDA     1,DL
         3 000041   200077 755100                    STA     I,,AUTO
         3 000042   000243 710000 3                  TRA     s:9196+3

      403     9176    2           THIS_ACCT_RES$ = ACCT_RES$ + (ACCT_RES_SIZE *I);

   9176  3 000043   200104 236100                    LDQ     ACCT_RES_SIZE,,AUTO
         3 000044   200077 402100                    MPY     I,,AUTO
         3 000045   200102 036100                    ADLQ    ACCT_RES$,,AUTO
         3 000046   200103 756100                    STQ     THIS_ACCT_RES$,,AUTO

      404     9177    2           CALL DBM$GETMEM(THIS_ACCT_RES$,G$ACCT_RES,0,SIZEC(G$ACCT_RES),,SIZEC(
              9177                    G$ACCT_RES));

   9177  3 000047   000002 236000 4                  LDQ     2
         3 000050   000001 235000 xsym               LDA     B_VECTNIL+1
         3 000051   200116 757100                    STAQ    CUR_FPRGS+6,,AUTO
         3 000052   000004 237000 4                  LDAQ    4
         3 000053   200114 757100                    STAQ    CUR_FPRGS+4,,AUTO
         3 000054   200070 630500                    EPPR0   G$ACCT_RES,,AUTO
         3 000055   200113 450500                    STP0    CUR_FPRGS+3,,AUTO
PL6.E3A0      #002=DBD$ACC_RES File=DBD$FMT_G.:E05TSI                            TUE 07/29/97 13:03 Page:77
         3 000056   200103 631500                    EPPR1   THIS_ACCT_RES$,,AUTO
         3 000057   200112 451500                    STP1    CUR_FPRGS+2,,AUTO
         3 000060   200112 630500                    EPPR0   CUR_FPRGS+2,,AUTO
         3 000061   000024 631400 xsym               EPPR1   B_VECTNIL+20
         3 000062   000000 701000 xent               TSX1    DBM$GETMEM
         3 000063   000000 011000                    NOP     0

      405     9178
      406     9179    2           CALL DBM$PACK2(G$ACCT_RES.MAX_MEM,MAX_MEM);

   9179  3 000064   200105 630500                    EPPR0   MAX_MEM,,AUTO
         3 000065   200113 450500                    STP0    CUR_FPRGS+3,,AUTO
         3 000066   200075 631500                    EPPR1   G$ACCT_RES+5,,AUTO
         3 000067   200112 451500                    STP1    CUR_FPRGS+2,,AUTO
         3 000070   200112 630500                    EPPR0   CUR_FPRGS+2,,AUTO
         3 000071   000020 631400 xsym               EPPR1   B_VECTNIL+16
         3 000072   000000 701000 xent               TSX1    DBM$PACK2
         3 000073   000000 011000                    NOP     0

      407     9180    2           CALL DBM$PACK2(G$ACCT_RES.CUR_MEM,CUR_MEM);

   9180  3 000074   200106 630500                    EPPR0   CUR_MEM,,AUTO
         3 000075   200113 450500                    STP0    CUR_FPRGS+3,,AUTO
         3 000076   200114 452500                    STP2    CUR_FPRGS+4,,AUTO
         3 000077   200114 236100                    LDQ     CUR_FPRGS+4,,AUTO
         3 000100   000006 036000 4                  ADLQ    6
         3 000101   200112 756100                    STQ     CUR_FPRGS+2,,AUTO
         3 000102   200112 630500                    EPPR0   CUR_FPRGS+2,,AUTO
         3 000103   000020 631400 xsym               EPPR1   B_VECTNIL+16
         3 000104   000000 701000 xent               TSX1    DBM$PACK2
         3 000105   000000 011000                    NOP     0

      408     9181    2           CALL DBM$PACK2(G$ACCT_RES.MAX_FPRGS,MAX_FPRGS);

   9181  3 000106   200107 630500                    EPPR0   MAX_FPRGS,,AUTO
         3 000107   200113 450500                    STP0    CUR_FPRGS+3,,AUTO
         3 000110   200076 631500                    EPPR1   G$ACCT_RES+6,,AUTO
PL6.E3A0      #002=DBD$ACC_RES File=DBD$FMT_G.:E05TSI                            TUE 07/29/97 13:03 Page:78
         3 000111   200112 451500                    STP1    CUR_FPRGS+2,,AUTO
         3 000112   200112 630500                    EPPR0   CUR_FPRGS+2,,AUTO
         3 000113   000020 631400 xsym               EPPR1   B_VECTNIL+16
         3 000114   000000 701000 xent               TSX1    DBM$PACK2
         3 000115   000000 011000                    NOP     0

      409     9182    2           CALL DBM$PACK2(G$ACCT_RES.CUR_FPRGS,CUR_FPRGS);

   9182  3 000116   200110 630500                    EPPR0   CUR_FPRGS,,AUTO
         3 000117   200113 450500                    STP0    CUR_FPRGS+3,,AUTO
         3 000120   200114 452500                    STP2    CUR_FPRGS+4,,AUTO
         3 000121   200114 236100                    LDQ     CUR_FPRGS+4,,AUTO
         3 000122   000007 036000 4                  ADLQ    7
         3 000123   200112 756100                    STQ     CUR_FPRGS+2,,AUTO
         3 000124   200112 630500                    EPPR0   CUR_FPRGS+2,,AUTO
         3 000125   000020 631400 xsym               EPPR1   B_VECTNIL+16
         3 000126   000000 701000 xent               TSX1    DBM$PACK2
         3 000127   000000 011000                    NOP     0

      410     9183
      411     9184    2           IF MAX_FPRGS ~= 0

   9184  3 000130   200107 235100                    LDA     MAX_FPRGS,,AUTO
         3 000131   000240 600000 3                  TZE     s:9196

      412     9185    3           THEN DO;

      413     9186    3                CALL DAF$WRITE(VECTOR(ACCT_RES_FMT),

   9186  3 000132   777640 235007                    LDA     -96,DL
         3 000133   200112 452500                    STP2    CUR_FPRGS+2,,AUTO
         3 000134   200112 236100                    LDQ     CUR_FPRGS+2,,AUTO
         3 000135   000077 036003                    ADLQ    63,DU
         3 000136   200114 757100                    STAQ    CUR_FPRGS+4,,AUTO
         3 000137   000012 235000 4                  LDA     10
         3 000140   200116 452500                    STP2    CUR_FPRGS+6,,AUTO
         3 000141   200116 236100                    LDQ     CUR_FPRGS+6,,AUTO
PL6.E3A0      #002=DBD$ACC_RES File=DBD$FMT_G.:E05TSI                            TUE 07/29/97 13:03 Page:79
         3 000142   000073 036003                    ADLQ    59,DU
         3 000143   200120 757100                    STAQ    CUR_FPRGS+8,,AUTO
         3 000144   000013 235000 4                  LDA     11
         3 000145   200122 452500                    STP2    CUR_FPRGS+10,,AUTO
         3 000146   200122 236100                    LDQ     CUR_FPRGS+10,,AUTO
         3 000147   000070 036003                    ADLQ    56,DU
         3 000150   200124 757100                    STAQ    CUR_FPRGS+12,,AUTO
         3 000151   777640 235007                    LDA     -96,DL
         3 000152   200126 452500                    STP2    CUR_FPRGS+14,,AUTO
         3 000153   200126 236100                    LDQ     CUR_FPRGS+14,,AUTO
         3 000154   000107 036003                    ADLQ    71,DU
         3 000155   200130 757100                    STAQ    CUR_FPRGS+16,,AUTO
         3 000156   777640 235007                    LDA     -96,DL
         3 000157   200132 452500                    STP2    CUR_FPRGS+18,,AUTO
         3 000160   200132 236100                    LDQ     CUR_FPRGS+18,,AUTO
         3 000161   000110 036003                    ADLQ    72,DU
         3 000162   200134 757100                    STAQ    CUR_FPRGS+20,,AUTO
         3 000163   777640 235007                    LDA     -96,DL
         3 000164   200136 452500                    STP2    CUR_FPRGS+22,,AUTO
         3 000165   200136 236100                    LDQ     CUR_FPRGS+22,,AUTO
         3 000166   000105 036003                    ADLQ    69,DU
         3 000167   200140 757100                    STAQ    CUR_FPRGS+24,,AUTO
         3 000170   777640 235007                    LDA     -96,DL
         3 000171   200142 452500                    STP2    CUR_FPRGS+26,,AUTO
         3 000172   200142 236100                    LDQ     CUR_FPRGS+26,,AUTO
         3 000173   000106 036003                    ADLQ    70,DU
         3 000174   200146 757100                    STAQ    CUR_FPRGS+30,,AUTO
         3 000175   200114 237100                    LDAQ    CUR_FPRGS+4,,AUTO
         3 000176   200144 757100                    STAQ    CUR_FPRGS+28,,AUTO
         3 000177   200120 237100                    LDAQ    CUR_FPRGS+8,,AUTO
         3 000200   200150 757100                    STAQ    CUR_FPRGS+32,,AUTO
         3 000201   200124 237100                    LDAQ    CUR_FPRGS+12,,AUTO
         3 000202   200152 757100                    STAQ    CUR_FPRGS+34,,AUTO
         3 000203   200130 237100                    LDAQ    CUR_FPRGS+16,,AUTO
         3 000204   200154 757100                    STAQ    CUR_FPRGS+36,,AUTO
         3 000205   200134 237100                    LDAQ    CUR_FPRGS+20,,AUTO
         3 000206   200156 757100                    STAQ    CUR_FPRGS+38,,AUTO
PL6.E3A0      #002=DBD$ACC_RES File=DBD$FMT_G.:E05TSI                            TUE 07/29/97 13:03 Page:80
         3 000207   200140 237100                    LDAQ    CUR_FPRGS+24,,AUTO
         3 000210   200160 757100                    STAQ    CUR_FPRGS+40,,AUTO
         3 000211   200146 237100                    LDAQ    CUR_FPRGS+30,,AUTO
         3 000212   200162 757100                    STAQ    CUR_FPRGS+42,,AUTO
         3 000213   200162 630500                    EPPR0   CUR_FPRGS+42,,AUTO
         3 000214   200173 450500                    STP0    CUR_FPRGS+51,,AUTO
         3 000215   200160 631500                    EPPR1   CUR_FPRGS+40,,AUTO
         3 000216   200172 451500                    STP1    CUR_FPRGS+50,,AUTO
         3 000217   200156 633500                    EPPR3   CUR_FPRGS+38,,AUTO
         3 000220   200171 453500                    STP3    CUR_FPRGS+49,,AUTO
         3 000221   200154 634500                    EPPR4   CUR_FPRGS+36,,AUTO
         3 000222   200170 454500                    STP4    CUR_FPRGS+48,,AUTO
         3 000223   200152 635500                    EPPR5   CUR_FPRGS+34,,AUTO
         3 000224   200167 455500                    STP5    CUR_FPRGS+47,,AUTO
         3 000225   200150 636500                    EPPR6   CUR_FPRGS+32,,AUTO
         3 000226   200166 456500                    STP6    CUR_FPRGS+46,,AUTO
         3 000227   200144 637500                    EPPR7   CUR_FPRGS+28,,AUTO
         3 000230   200165 457500                    STP7    CUR_FPRGS+45,,AUTO
         3 000231   000014 236000 4                  LDQ     12
         3 000232   200164 756100                    STQ     CUR_FPRGS+44,,AUTO
         3 000233   200164 630500                    EPPR0   CUR_FPRGS+44,,AUTO
         3 000234   000000 220000 xsym               LDX0    DAF$WRITE
         3 000235   000026 631400 xsym               EPPR1   B_VECTNIL+22
         3 000236   000000 701010                    TSX1    0,X0
         3 000237   000000 011000                    NOP     0

      414     9187    3                  VECTOR(I),
      415     9188    3                  VECTOR(G$ACCT_RES.ACCN),
      416     9189    3                  VECTOR(G$ACCT_RES.UNAME),
      417     9190    3                  VECTOR(MAX_FPRGS),
      418     9191    3                  VECTOR(CUR_FPRGS),
      419     9192    3                  VECTOR(MAX_MEM),
      420     9193    3                  VECTOR(CUR_MEM));
      421     9194    3                END;

      422     9195
      423     9196    2           END/*do I=1 to acc_res#*/;
PL6.E3A0      #002=DBD$ACC_RES File=DBD$FMT_G.:E05TSI                            TUE 07/29/97 13:03 Page:81

   9196  3 000240   200077 235100                    LDA     I,,AUTO
         3 000241   000001 035007                    ADLA    1,DL
         3 000242   200077 755100                    STA     I,,AUTO
         3 000243   200101 236100                    LDQ     ACCT_RES#,,AUTO
         3 000244   200077 116100                    CMPQ    I,,AUTO
         3 000245   000043 603000 3                  TRC     s:9176

      424     9197    1      CALL DAF$WRITE(VECTOR(BLANK_LINE));

   9197  3 000246   000020 630400 4                  EPPR0   16
         3 000247   000000 220000 xsym               LDX0    DAF$WRITE
         3 000250   000017 631400 xsym               EPPR1   B_VECTNIL+15
         3 000251   000000 701010                    TSX1    0,X0
         3 000252   000000 011000                    NOP     0

      425     9198    1      CALL DAF$WRITE(VECTOR(BLANK_LINE));

   9198  3 000253   000020 630400 4                  EPPR0   16
         3 000254   000000 220000 xsym               LDX0    DAF$WRITE
         3 000255   000017 631400 xsym               EPPR1   B_VECTNIL+15
         3 000256   000000 701010                    TSX1    0,X0
         3 000257   000000 011000                    NOP     0

      426     9199    1      RETURN;

   9199  3 000260   000000 702200 xent               TSX2  ! X66_ARET
      427     9200
      428     9201    1   END DBD$ACC_RES;
      429     9202        %EOD;

PL6.E3A0      #002=DBD$ACC_RES File=DBD$FMT_G.:E05TSI                            TUE 07/29/97 13:03 Page:82
--  Include file information  --

   XU_MACRO_C.:E05TOU  is referenced.
   DA_FORMAT_C.:E05TOU  is referenced.
   GFR_DATA_M.:E05TOU  is referenced.
   G$BOBCAT_M.:E05TOU  is referenced.
   CP_6_C.:E05TOU  is referenced.
   CP_6.:E05TOU  cannot be made into a system file and is referenced.
      No diagnostics issued in procedure DBD$ACC_RES.
PL6.E3A0      #002=DBD$ACC_RES File=DBD$FMT_G.:E05TSI                            TUE 07/29/97 13:03 Page:83

 **** Variables and constants ****

  ****  Section 001  Data  DBD$ACC_RES

  ****  Scalars and arrays  ****
OctLoc.c.b A Datatyp(siz) R M Lvl/name                 OctLoc.c.b A Datatyp(siz) R M Lvl/name

     0-0-0/w STRC(288)   r     1 ACCT_RES_RPT              21-0-0/w STRC(144)   r     1 ACCT_RES_RPTHD00
    50-0-0/w STRC(144)   r     1 ACCT_RES_RPTHD01          10-0-0/c STRC(324)   r     1 ACCT_RES_RPTTX00
    25-0-0/c STRC(657)   r     1 ACCT_RES_RPTTX01          54-0-0/c STRC(657)   r     1 ACCT_RES_RPTTX02

  ****  Section 002 RoData DBD$ACC_RES

  ****  Scalars and arrays  ****
OctLoc.c.b A Datatyp(siz) R M Lvl/name                 OctLoc.c.b A Datatyp(siz) R M Lvl/name

     0-0-0/c CHAR(30)    r     1 ACCT_RES_FMT

  ****  Auto variables  ****

  ****  Scalars and arrays  ****
OctLoc.c.b A Datatyp(siz) R M Lvl/name                 OctLoc.c.b A Datatyp(siz) R M Lvl/name

   101-0-0/w UBIN        r     1 ACCT_RES#                102-0-0/w UBIN        r     1 ACCT_RES$
   104-0-0/w UBIN        r     1 ACCT_RES_SIZE            110-0-0/w UBIN        r     1 CUR_FPRGS
   106-0-0/w UBIN        r     1 CUR_MEM                   70-0-0/w STRC(252)   r     1 G$ACCT_RES
     3-0-0/w STRC(1908)  r     1 G$BOBCAT                  77-0-0/w UBIN        r     1 I
   107-0-0/w UBIN        r     1 MAX_FPRGS                105-0-0/w UBIN        r     1 MAX_MEM
   103-0-0/w UBIN        r     1 THIS_ACCT_RES$

  ****  SYMREF variables  ****

  ****  Scalars and arrays  ****
OctLoc.c.b A Datatyp(siz) R M Lvl/name                 OctLoc.c.b A Datatyp(siz) R M Lvl/name

     0-0-0/c CHAR(4)     r     1 BLANK_LINE                 0-0-0/w EPTR        r     1 DAF$WRITE

PL6.E3A0      #002=DBD$ACC_RES File=DBD$FMT_G.:E05TSI                            TUE 07/29/97 13:03 Page:84

   Procedure DBD$ACC_RES requires 177 words for executable code.
   Procedure DBD$ACC_RES requires 124 words of local(AUTO) storage.
PL6.E3A0      #002=DBD$ACC_RES File=DBD$FMT_G.:E05TSI                            TUE 07/29/97 13:03 Page:85
          *** CROSS REFERENCE LISTING ***
**     DENOTES     IDENTIFIER DEFINITION
<<                 IDENTIFIER'S VALUE SET
>>                 IDENTIFIER'S VALUE USED
<>                 IDENTIFIER SET AND/OR USED
--                 IDENTIFIER REFERENCED
PL6.E3A0      #002=DBD$ACC_RES File=DBD$FMT_G.:E05TSI                            TUE 07/29/97 13:03 Page:86
          MINI XREF LISTING

ACCT_RES#
      9156**DCL      9171<>CALL     9175>>DOINDEX
ACCT_RES$
      9157**DCL      9170<>CALL     9176>>ASSIGN
ACCT_RES_FMT
      9148**DCL      9186--CALL
ACCT_RES_RPT
      9013**DCL      9173<>CALL
ACCT_RES_RPTHD00
      9080**DCL      9048--DCLINIT
ACCT_RES_RPTHD01
      9123**DCL      9095--DCLINIT
ACCT_RES_RPTTX00
      9056**DCL      9043--DCLINIT
ACCT_RES_RPTTX01
      9098**DCL      9088--DCLINIT
ACCT_RES_RPTTX02
      9141**DCL      9131--DCLINIT
ACCT_RES_SIZE
      9159**DCL      9167<<ASSIGN   9176>>ASSIGN
BLANK_LINE
      9151**DCL      9197--CALL     9198--CALL
CUR_FPRGS
      9164**DCL      9182<>CALL     9186--CALL
CUR_MEM
      9162**DCL      9180<>CALL     9186--CALL
DAF$INIT
      8990**DCL-ENT  9173--CALL
DAF$WRITE
      8989**DCL      9186>>CALL     9197>>CALL     9198>>CALL
DBM$GETBOBCAT
      8992**DCL-ENT  9168--CALL
PL6.E3A0      #002=DBD$ACC_RES File=DBD$FMT_G.:E05TSI                            TUE 07/29/97 13:03 Page:87
DBM$GETMEM
      8991**DCL-ENT  9177--CALL
DBM$PACK2
      8993**DCL-ENT  9171--CALL     9179--CALL     9180--CALL     9181--CALL     9182--CALL
DBM$PACK4
      8994**DCL-ENT  9170--CALL
G$ACCT_RES
      8983**DCL      9167--ASSIGN   9177<>CALL     9177--CALL     9177--CALL
G$ACCT_RES.ACCN
      8985**DCL      9186--CALL
G$ACCT_RES.CUR_FPRGS
      8985**DCL      9182<>CALL
G$ACCT_RES.CUR_MEM
      8985**DCL      9180<>CALL
G$ACCT_RES.MAX_FPRGS
      8985**DCL      9181<>CALL
G$ACCT_RES.MAX_MEM
      8985**DCL      9179<>CALL
G$ACCT_RES.UNAME
      8985**DCL      9186--CALL
G$BOBCAT
      8963**DCL      9168<>CALL
G$BOBCAT.ACCT_RES#
      8964**DCL      9171<>CALL
G$BOBCAT.ACCT_RES$
      8967**DCL      9170<>CALL
I
      9154**DCL      9175<<DOINDEX  9176>>ASSIGN   9186--CALL
MAX_FPRGS
      9163**DCL      9181<>CALL     9184>>IF       9186--CALL
MAX_MEM
      9161**DCL      9179<>CALL     9186--CALL
THIS_ACCT_RES$
      9158**DCL      9176<<ASSIGN   9177<>CALL

PL6.E3A0      #003=DBD$USRT File=DBD$FMT_G.:E05TSI                               TUE 07/29/97 13:03 Page:88
      430        1        /*T***********************************************************/
      431        2        /*T*                                                         */
      432        3        /*T* Copyright (c) Bull HN Information Systems Inc., 1997    */
      433        4        /*T*                                                         */
      434        5        /*T***********************************************************/
      435        6        /*F*    NAME: DBD$USRT
      436        7                PURPOSE: To process the USRT command for FEPs.
      437        8        */
      438        9        DBD$USRT: PROC(TOP);
      439       10
      440       11        /*X* PLM=3,IND=5,ECU=0,ENU=0   */
      441       12
      442       13        %INCLUDE CP_6;
      443     5572        %INCLUDE G$BOBCAT_M;
      444     5592        %INCLUDE GH_SCHD_M;
      445     5736        %INCLUDE GH_SCHD_E;
      446     5832        %INCLUDE DA_FORMAT_C;
      447     6074        %INCLUDE XU_MACRO_C;
      448     9180
      449     9181        %G$BOBCAT (FPTN=G$BOBCAT,STCLASS=AUTO);
      450     9194        %G$USER (FPTN=G$USER,STCLASS=AUTO);
      451     9205
      452     9206        %PARSE$OUT (NAME=TOP,STCLASS=PARAM);
      453     9251        %PARSE$OUT (NAME=OUT,STCLASS=BASED);
      454     9296
      455     9297    1   DCL DAA$VALUE ENTRY(3) ALTRET;
      456     9298    1   DCL DAF$WRITE EPTR SYMREF;
      457     9299    1   DCL DAF$INIT ENTRY(1) ALTRET;
      458     9300    1   DCL DBA$SELECTION ENTRY(3) ALTRET;
      459     9301    1   DCL DBM$GETMEM ENTRY(10) ALTRET;
      460     9302    1   DCL DBM$GETBOBCAT ENTRY(1) ALTRET;
      461     9303    1   DCL DBM$PACK1 ENTRY(2);
      462     9304    1   DCL DBM$PACK2 ENTRY(2);
      463     9305    1   DCL DBM$PACK4 ENTRY(2);
      464     9306    1   DCL DBM$SYSID2UN ENTRY(1) ALTRET;
      465     9307    1   DCL DB_CUN UBIN SYMREF;
      466     9308
PL6.E3A0      #003=DBD$USRT File=DBD$FMT_G.:E05TSI                               TUE 07/29/97 13:03 Page:89
      467     9309        %REPORT (NAME=USERRPT1,TRUNC=YES,TABDFLT=5,HEADER=YES,TITLE='FEP USRT - User Table')
              9309            ;
      468     9375        %HEADER (LAST=NO,TEXT=
      469     9376        ' #  FL   BL   Sysid  Mode  State Flags  Async  DL$    UTS/LDCT$  HMI$  ');
      470     9418        %HEADER (TEXT=
      471     9419        '--- ---  ---  -----  ----  ----- -----  -----  ------ ---------  ------');
      472     9461    1   DCL 1 USER_FMT1 CHAR(0) CONSTANT INIT(
      473     9462    1   '.%2ZH .%2ZH  .%2ZH  %5D    %A   %4A  .%4ZH  .%4ZH  .%5ZH .%8ZH  .%5ZH');
      474     9463
      475     9464
      476     9465    1   DCL BLANK_LINE CHAR(4) SYMREF;
      477     9466    1   DCL USERRPT2 CHAR(0) CONSTANT INIT(
      478     9467    1   ' #  Sysid   HJIT  MF  Clock  UTS         Prio   PrioB   USRT$');
      479     9468    1   DCL USERRPT3 CHAR(0) CONSTANT INIT(
      480     9469    1   '--- -----  -----  --- -----  ----------- -----  -----   ------');
      481     9470    1   DCL 1 USER_FMT2 CHAR(0) CONSTANT INIT(
      482     9471    1   '.%2ZH %5D  .%4ZH  %3D .%4ZH  %11..3.2U  %4D   %4D   .%5ZH');
      483     9472
      484     9473        %G_STTTXT;
      485     9490        %G_USRFLG_TEXT (NAME=USERFLG_TEXT, STCLASS=STATIC);
      486     9499        %G_ASYNC_TEXT (NAME=ASYNC_TEXT, STCLASS=STATIC);
      487     9509
      488     9510    1   DCL MODECHAR(0:4) CHAR(1) CONSTANT INIT(' ','U','C','H','G');
      489     9511
      490     9512        /* AUTO Storage */
      491     9513    1   DCL PASS UBIN;                          /*which line to print*/
      492     9514    1   DCL HEADER0 UBIN;
      493     9515    1   DCL HEADER1 UBIN;
      494     9516    1   DCL I SBIN;
      495     9517    1   DCL X UBIN;
      496     9518    1   DCL RADIX UBIN;
      497     9519    1   DCL USER# UBIN;
      498     9520    1   DCL THIS_USER# UBIN;
      499     9521    1   DCL USER$ UBIN;
      500     9522    1   DCL THIS_USER$ UBIN;
      501     9523    1   DCL USER_SIZE UBIN;                     /*G$USER L6 word size                 */
      502     9524    1   DCL 1 FLGS,
PL6.E3A0      #003=DBD$USRT File=DBD$FMT_G.:E05TSI                               TUE 07/29/97 13:03 Page:90
      503     9525    1         2 F BIT(18) UNAL,
      504     9526    1         2 * BIT(18) UNAL;
      505     9527
      506     9528
      507     9529        /* G$USER data is packed into auto */
      508     9530    1   DCL FLAGS UBIN;
      509     9531    1   DCL ASYNCH UBIN;
      510     9532    1   DCL STATE UBIN;
      511     9533    1   DCL TXT_STATE CHAR(4);
      512     9534    1   DCL FLINK UBIN;
      513     9535    1   DCL BLINK UBIN;
      514     9536    1   DCL MISC$ UBIN;
      515     9537    1   DCL UTS UBIN;
      516     9538    1   DCL CLOCK UBIN;
      517     9539    1   DCL PCOUNT UBIN;
      518     9540    1   DCL MFCOUNT UBIN;
      519     9541    1   DCL MODE UBIN;
      520     9542    1   DCL DL$ UBIN;
      521     9543    1   DCL PRIO UBIN;
      522     9544    1   DCL PRIOB UBIN;
      523     9545    1   DCL UHJITPP UBIN;
      524     9546    1   DCL SYSID UBIN;
      525     9547    1   DCL HMI$ UBIN;
      526     9548
      527     9549        %FPT_TIME (SOURCE=FUTS,DEST=UTS);
      528     9568        %EJECT;
PL6.E3A0      #003=DBD$USRT File=DBD$FMT_G.:E05TSI                               TUE 07/29/97 13:03 Page:91
      529     9569
      530     9570    1      USER_SIZE = (SIZEC(G$USER)+1) / 2;
      531     9571    1      CALL DBM$GETBOBCAT(G$BOBCAT)
      532     9572    2      WHENALTRETURN DO; RETURN; END;
      533     9573    1      CALL DBM$PACK4(G$BOBCAT.USRT$,USER$);
      534     9574    1      CALL DBM$PACK2(G$BOBCAT.MUIS,USER#);
      535     9575    1      HEADER0 = 0;
      536     9576    1      HEADER1 = 0;
      537     9577
      538     9578    2      DO PASS=0 TO 1;
      539     9579    2           IF TOP.NSUBLKS=0
      540     9580    3           THEN DO;
      541     9581    4                DO I=1 TO USER#;
      542     9582    4                     CALL DISP_USER;
      543     9583    4                     END;
      544     9584    3                END;
      545     9585
      546     9586    3           ELSE DO;                        /*display a single usrt entry*/
      547     9587    4                DO X=0 TO TOP.NSUBLKS-1;
      548     9588    4                     CALL DBA$SELECTION(TOP.SUBLK$(X)->OUT,I);
      549     9589    5                     IF I>0 THEN DO;
      550     9590    5                          CALL DBM$SYSID2UN(I)
      551     9591    6                          WHENRETURN DO; I=DB_CUN; END;
      552     9592    6                          WHENALTRETURN DO; I=0; END;
      553     9593    5                          END;
      554     9594    5                     ELSE DO;
      555     9595    5                          I = -I;
      556     9596    5                          END;
      557     9597    4                     IF (I > 0) AND (I <= USER#)
      558     9598    5                     THEN DO;
      559     9599    5                          CALL DISP_USER
      560     9600    6                          WHENRETURN DO;
      561     9601    6                               IF PASS ~= 0   AND   TOP.NSUBLKS=1
      562     9602    7                               THEN DO;
      563     9603    7                                    CALL DAF$WRITE(VECTOR(BLANK_LINE));
      564     9604    7                                    FLGS.F = G$USER.FLG;
      565     9605    7                                    USERFLG_TEXT.SREST = 'set: ';
PL6.E3A0      #003=DBD$USRT File=DBD$FMT_G.:E05TSI                               TUE 07/29/97 13:03 Page:92
      566     9606    7                                    CALL DAF$WRITE(VECTOR(USERFLG_TEXT),VECTOR(FLGS.F))
              9606                                             ;
      567     9607    7                                    FLGS.F = ~(FLGS.F);
      568     9608    7                                    USERFLG_TEXT.SREST = 'off: ';
      569     9609    7                                    CALL DAF$WRITE(VECTOR(USERFLG_TEXT),VECTOR(FLGS.F))
              9609                                             ;
      570     9610
      571     9611    7                                    FLGS.F = G$USER.ASYNCH;
      572     9612    7                                    ASYNC_TEXT.SREST = 'set: ';
      573     9613    7                                    CALL DAF$WRITE(VECTOR(ASYNC_TEXT),VECTOR(FLGS.F));
      574     9614    7                                    FLGS.F = ~(FLGS.F);
      575     9615    7                                    ASYNC_TEXT.SREST = 'off: ';
      576     9616    7                                    CALL DAF$WRITE(VECTOR(ASYNC_TEXT),VECTOR(FLGS.F));
      577     9617    7                                    END/*do if disply single user*/;
      578     9618    6                               end/*return from disp_user*/;
      579     9619    5                          END/*do if valid user#*/;
      580     9620    4                     END/*do x=0 to top*/;
      581     9621    3                END/*else do*/;
      582     9622
      583     9623    2           END/*do pass=0 to 1*/;
      584     9624
      585     9625    1      CALL DAF$WRITE(VECTOR(BLANK_LINE));
      586     9626    1      CALL DAF$WRITE(VECTOR(BLANK_LINE));
      587     9627    1      RETURN;
      588     9628        %EJECT;
PL6.E3A0      #003=DBD$USRT File=DBD$FMT_G.:E05TSI                               TUE 07/29/97 13:03 Page:93
      589     9629
      590     9630    1   DISP_USER: PROC ALTRET;
      591     9631    2      THIS_USER$ = USER$ + (USER_SIZE *I);
      592     9632    2      CALL DBM$GETMEM(THIS_USER$,G$USER,0,SIZEC(G$USER),,SIZEC(G$USER))
      593     9633    3      WHENALTRETURN DO; ALTRETURN; END;
      594     9634
      595     9635    2      CALL DBM$PACK2(G$USER.US,STATE);
      596     9636    2      IF STATE = %GH_NULL THEN RETURN;
      597     9637    2      CALL DBM$PACK2(G$USER.SYSID,SYSID);
      598     9638
      599     9639    2      IF PASS = 0
      600     9640    3      THEN DO;
      601     9641    3           IF HEADER0 = 0
      602     9642    4           THEN DO;
      603     9643    4                CALL DAF$INIT(USERRPT1);
      604     9644    4                HEADER0 = 1;
      605     9645    4                END;
      606     9646
      607     9647    3           IF STATE > %GH_NULL
      608     9648    3           THEN TXT_STATE = 'ILGL';
      609     9649    3           ELSE TXT_STATE = G_STTTXT(STATE);
      610     9650
      611     9651    3           CALL DBM$PACK2(G$USER.FLG,FLAGS);
      612     9652    3           CALL DBM$PACK2(G$USER.ASYNCH,ASYNCH);
      613     9653    3           CALL DBM$PACK2(G$USER.FL,FLINK);
      614     9654    3           CALL DBM$PACK2(G$USER.BL,BLINK);
      615     9655    3           CALL DBM$PACK4(G$USER.MISC$,MISC$);
      616     9656    3           CALL DBM$PACK4(G$USER.DL$,DL$);
      617     9657    3           CALL DBM$PACK4(G$USER.HMI$,HMI$);
      618     9658
      619     9659
      620     9660    3           CALL DAF$WRITE(VECTOR(USER_FMT1),
      621     9661    3             VECTOR(I),
      622     9662    3             VECTOR(FLINK),
      623     9663    3             VECTOR(BLINK),
      624     9664    3             VECTOR(SYSID),
      625     9665    3             VECTOR(MODECHAR(G$USER.MODE)),
PL6.E3A0      #003=DBD$USRT File=DBD$FMT_G.:E05TSI                               TUE 07/29/97 13:03 Page:94
      626     9666    3             VECTOR(TXT_STATE),
      627     9667    3             VECTOR(FLAGS),
      628     9668    3             VECTOR(ASYNCH),
      629     9669    3             VECTOR(DL$),
      630     9670    3             VECTOR(MISC$),
      631     9671    3             VECTOR(HMI$));
      632     9672    3           END/*pass 0*/;
      633     9673
      634     9674    3      ELSE DO;
      635     9675    3           IF HEADER1 = 0
      636     9676    4           THEN DO;
      637     9677    4                CALL DAF$WRITE(VECTOR(BLANK_LINE));
      638     9678    4                CALL DAF$WRITE(VECTOR(BLANK_LINE));
      639     9679    4                CALL DAF$WRITE(VECTOR(USERRPT2));
      640     9680    4                CALL DAF$WRITE(VECTOR(USERRPT3));
      641     9681    4                HEADER1 = 1;
      642     9682    4                END;
      643     9683
      644     9684    3           CALL DBM$PACK2(G$USER.CLOCK,CLOCK);
      645     9685    3           CALL DBM$PACK2(G$USER.PCT,PCOUNT);
      646     9686    3           CALL DBM$PACK1(G$USER.MF,MFCOUNT);
      647     9687    3           CALL DBM$PACK2(G$USER.PRIO,PRIO);
      648     9688    3           CALL DBM$PACK2(G$USER.PRIOB,PRIOB);
      649     9689    3           CALL DBM$PACK4(G$USER.UHJITPP,UHJITPP);
      650     9690
      651     9691    3           CALL DBM$PACK4(G$USER.UTS,UTS);
      652     9692    3           FPT_TIME.TSTAMP_ = VECTOR(UTS);
      653     9693    4           CALL M$TIME(FPT_TIME) WHENALTRETURN DO; END;
      654     9694
      655     9695
      656     9696    3           CALL DAF$WRITE(VECTOR(USER_FMT2),
      657     9697    3             VECTOR(I),
      658     9698    3             VECTOR(SYSID),
      659     9699    3             VECTOR(UHJITPP),
      660     9700    3             VECTOR(MFCOUNT),
      661     9701    3             VECTOR(CLOCK),
      662     9702    3             VECTOR(UTS),
PL6.E3A0      #003=DBD$USRT File=DBD$FMT_G.:E05TSI                               TUE 07/29/97 13:03 Page:95
      663     9703    3             VECTOR(PRIO),
      664     9704    3             VECTOR(PRIOB),
      665     9705    3             VECTOR(THIS_USER$));
      666     9706    3           END;
      667     9707    2   END DISP_USER;
      668     9708
      669     9709    1   END DBD$USRT;
      670     9710        %EOD;

PL6.E3A0      #003=DBD$USRT File=DBD$FMT_G.:E05TSI                               TUE 07/29/97 13:03 Page:96
--  Include file information  --

   XU_MACRO_C.:E05TOU  is referenced.
   DA_FORMAT_C.:E05TOU  is referenced.
   GH_SCHD_E.:E05TOU  is referenced.
   GH_SCHD_M.:E05TOU  is referenced.
   G$BOBCAT_M.:E05TOU  is referenced.
   CP_6_C.:E05TOU  is referenced.
   CP_6.:E05TOU  cannot be made into a system file and is referenced.
      No diagnostics issued in procedure DBD$USRT.

   Procedure DBD$USRT requires 630 words for executable code.
   Procedure DBD$USRT requires 178 words of local(AUTO) storage.

PL6.E3A0      #003=DBD$USRT File=DBD$FMT_G.:E05TSI                               TUE 07/29/97 13:03 Page:97

 Object Unit name= DBD$USRT                                   File name= DBD$FMT_G.:E05TOU
 UTS= JUL 29 '97 13:03:55.68 TUE                              Compiler= PL-6/E31         Sev=      00
 SharedLib= :SHARED_SYSTEM                                    Alt SharedLib=


    ****  Control sections  ****

 Sect   Type Bound  Init  Size OctSiz  Section name(segment info)
    0   DCB   even  none     0      0  M$UC
    1   Data  even  none   132    204  DBD$USRT
    2  RoData even  UTS    104    150  DBD$USRT
    3   Proc  even  none   630   1166  DBD$USRT
    4  RoData even  none    44     54  DBD$USRT

    ****  Entry defs  ****

                              Check   Calling
                             calling  sequence
  Sect OctLoc Primary Altret sequence   type   Parms  Name
     3      0   yes            yes      Std        1  DBD$USRT

  ****  Entry refs  ****

         Check        Calling
        calling       sequence
Altret sequence SRef   type   Args  Name
 yes     yes           Std       1 DBM$GETBOBCAT
         yes           Std       2 DBM$PACK4
         yes           Std       2 DBM$PACK2
 yes     yes           Std       1 DBM$SYSID2UN
 yes     yes           Std       3 DBA$SELECTION
 yes     yes           Std      10 DBM$GETMEM
         yes           Std       2 DBM$PACK1
 yes     yes           Std       1 DAF$INIT
                       nStd      0 X66_AUTO_1
                       Std       0 B_CONSPOOL_D
                       nStd      0 X66_ARET
PL6.E3A0      #003=DBD$USRT File=DBD$FMT_G.:E05TSI                               TUE 07/29/97 13:03 Page:98

  ****  Data refs  ****

  Flags:  r = read only, s = secondary
Flgs Name                             Flgs Name                             Flgs Name
     M$UC                                  DAF$WRITE                             DB_CUN
     BLANK_LINE                            B_VECTNIL

  ****  Segment refs  ****

  Flags:  r = read only, s = secondary
Flgs Name                             Flgs Name                             Flgs Name
     ISSID                                 NULLSID
PL6.E3A0      #003=DBD$USRT File=DBD$FMT_G.:E05TSI                               TUE 07/29/97 13:03 Page:99


      430        1        /*T***********************************************************/
      431        2        /*T*                                                         */
      432        3        /*T* Copyright (c) Bull HN Information Systems Inc., 1997    */
      433        4        /*T*                                                         */
      434        5        /*T***********************************************************/
      435        6        /*F*    NAME: DBD$USRT
      436        7                PURPOSE: To process the USRT command for FEPs.
      437        8        */
      438        9        DBD$USRT: PROC(TOP);

      9  3 000000   000000 700200 xent  DBD$USRT     TSX0  ! X66_AUTO_1
         3 000001   000262 000001                    ZERO    178,1

      439       10
      440       11        /*X* PLM=3,IND=5,ECU=0,ENU=0   */
      441       12
      442       13        %INCLUDE CP_6;
      443     5572        %INCLUDE G$BOBCAT_M;
      444     5592        %INCLUDE GH_SCHD_M;
      445     5736        %INCLUDE GH_SCHD_E;
      446     5832        %INCLUDE DA_FORMAT_C;
      447     6074        %INCLUDE XU_MACRO_C;
      448     9180
      449     9181        %G$BOBCAT (FPTN=G$BOBCAT,STCLASS=AUTO);
      450     9194        %G$USER (FPTN=G$USER,STCLASS=AUTO);
      451     9205
      452     9206        %PARSE$OUT (NAME=TOP,STCLASS=PARAM);
      453     9251        %PARSE$OUT (NAME=OUT,STCLASS=BASED);
      454     9296
      455     9297    1   DCL DAA$VALUE ENTRY(3) ALTRET;
      456     9298    1   DCL DAF$WRITE EPTR SYMREF;
      457     9299    1   DCL DAF$INIT ENTRY(1) ALTRET;
      458     9300    1   DCL DBA$SELECTION ENTRY(3) ALTRET;
      459     9301    1   DCL DBM$GETMEM ENTRY(10) ALTRET;
      460     9302    1   DCL DBM$GETBOBCAT ENTRY(1) ALTRET;
      461     9303    1   DCL DBM$PACK1 ENTRY(2);
PL6.E3A0      #003=DBD$USRT File=DBD$FMT_G.:E05TSI                               TUE 07/29/97 13:03 Page:100
      462     9304    1   DCL DBM$PACK2 ENTRY(2);
      463     9305    1   DCL DBM$PACK4 ENTRY(2);
      464     9306    1   DCL DBM$SYSID2UN ENTRY(1) ALTRET;
      465     9307    1   DCL DB_CUN UBIN SYMREF;
      466     9308
      467     9309       %REPORT (NAME=USERRPT1,TRUNC=YES,TABDFLT=5,HEADER=YES,TITLE='FEP USRT - User Table')
              9309            ;
      468     9375        %HEADER (LAST=NO,TEXT=
      469     9376        ' #  FL   BL   Sysid  Mode  State Flags  Async  DL$    UTS/LDCT$  HMI$  ');
      470     9418        %HEADER (TEXT=
      471     9419        '--- ---  ---  -----  ----  ----- -----  -----  ------ ---------  ------');
      472     9461    1   DCL 1 USER_FMT1 CHAR(0) CONSTANT INIT(
      473     9462    1   '.%2ZH .%2ZH  .%2ZH  %5D    %A   %4A  .%4ZH  .%4ZH  .%5ZH .%8ZH  .%5ZH');
      474     9463
      475     9464
      476     9465    1   DCL BLANK_LINE CHAR(4) SYMREF;
      477     9466    1   DCL USERRPT2 CHAR(0) CONSTANT INIT(
      478     9467    1   ' #  Sysid   HJIT  MF  Clock  UTS         Prio   PrioB   USRT$');
      479     9468    1   DCL USERRPT3 CHAR(0) CONSTANT INIT(
      480     9469    1   '--- -----  -----  --- -----  ----------- -----  -----   ------');
      481     9470    1   DCL 1 USER_FMT2 CHAR(0) CONSTANT INIT(
      482     9471    1   '.%2ZH %5D  .%4ZH  %3D .%4ZH  %11..3.2U  %4D   %4D   .%5ZH');
      483     9472
      484     9473        %G_STTTXT;
      485     9490        %G_USRFLG_TEXT (NAME=USERFLG_TEXT, STCLASS=STATIC);
      486     9499        %G_ASYNC_TEXT (NAME=ASYNC_TEXT, STCLASS=STATIC);
      487     9509
      488     9510    1   DCL MODECHAR(0:4) CHAR(1) CONSTANT INIT(' ','U','C','H','G');
      489     9511
      490     9512        /* AUTO Storage */
      491     9513    1   DCL PASS UBIN;                          /*which line to print*/
      492     9514    1   DCL HEADER0 UBIN;
      493     9515    1   DCL HEADER1 UBIN;
      494     9516    1   DCL I SBIN;
      495     9517    1   DCL X UBIN;
      496     9518    1   DCL RADIX UBIN;
      497     9519    1   DCL USER# UBIN;
PL6.E3A0      #003=DBD$USRT File=DBD$FMT_G.:E05TSI                               TUE 07/29/97 13:03 Page:101
      498     9520    1   DCL THIS_USER# UBIN;
      499     9521    1   DCL USER$ UBIN;
      500     9522    1   DCL THIS_USER$ UBIN;
      501     9523    1   DCL USER_SIZE UBIN;                     /*G$USER L6 word size                 */
      502     9524    1   DCL 1 FLGS,
      503     9525    1         2 F BIT(18) UNAL,
      504     9526    1         2 * BIT(18) UNAL;
      505     9527
      506     9528
      507     9529        /* G$USER data is packed into auto */
      508     9530    1   DCL FLAGS UBIN;
      509     9531    1   DCL ASYNCH UBIN;
      510     9532    1   DCL STATE UBIN;
      511     9533    1   DCL TXT_STATE CHAR(4);
      512     9534    1   DCL FLINK UBIN;
      513     9535    1   DCL BLINK UBIN;
      514     9536    1   DCL MISC$ UBIN;
      515     9537    1   DCL UTS UBIN;
      516     9538    1   DCL CLOCK UBIN;
      517     9539    1   DCL PCOUNT UBIN;
      518     9540    1   DCL MFCOUNT UBIN;
      519     9541    1   DCL MODE UBIN;
      520     9542    1   DCL DL$ UBIN;
      521     9543    1   DCL PRIO UBIN;
      522     9544    1   DCL PRIOB UBIN;
      523     9545    1   DCL UHJITPP UBIN;
      524     9546    1   DCL SYSID UBIN;
      525     9547    1   DCL HMI$ UBIN;
      526     9548
      527     9549        %FPT_TIME (SOURCE=FUTS,DEST=UTS);
      528     9568        %EJECT;
PL6.E3A0      #003=DBD$USRT File=DBD$FMT_G.:E05TSI                               TUE 07/29/97 13:03 Page:102
      529     9569
      530     9570    1      USER_SIZE = (SIZEC(G$USER)+1) / 2;

   9570  3 000002   000030 235007                    LDA     24,DL
         3 000003   200117 755100                    STA     USER_SIZE,,AUTO

      531     9571    1      CALL DBM$GETBOBCAT(G$BOBCAT)

   9571  3 000004   200004 630500                    EPPR0   G$BOBCAT,,AUTO
         3 000005   200146 450500                    STP0    HMI$+4,,AUTO
         3 000006   200146 630500                    EPPR0   HMI$+4,,AUTO
         3 000007   000017 631400 xsym               EPPR1   B_VECTNIL+15
         3 000010   000000 701000 xent               TSX1    DBM$GETBOBCAT
         3 000011   000013 702000 3                  TSX2    s:9572
         3 000012   000014 710000 3                  TRA     s:9573

      532     9572    2      WHENALTRETURN DO; RETURN; END;

   9572  3 000013   000000 702200 xent               TSX2  ! X66_ARET

      533     9573    1      CALL DBM$PACK4(G$BOBCAT.USRT$,USER$);

   9573  3 000014   200115 630500                    EPPR0   USER$,,AUTO
         3 000015   200147 450500                    STP0    HMI$+5,,AUTO
         3 000016   200020 631500                    EPPR1   G$BOBCAT+12,,AUTO
         3 000017   200146 451500                    STP1    HMI$+4,,AUTO
         3 000020   200146 630500                    EPPR0   HMI$+4,,AUTO
         3 000021   000020 631400 xsym               EPPR1   B_VECTNIL+16
         3 000022   000000 701000 xent               TSX1    DBM$PACK4
         3 000023   000000 011000                    NOP     0

      534     9574    1      CALL DBM$PACK2(G$BOBCAT.MUIS,USER#);

   9574  3 000024   200113 630500                    EPPR0   USER#,,AUTO
         3 000025   200147 450500                    STP0    HMI$+5,,AUTO
         3 000026   200011 631500                    EPPR1   G$BOBCAT+5,,AUTO
         3 000027   200146 451500                    STP1    HMI$+4,,AUTO
PL6.E3A0      #003=DBD$USRT File=DBD$FMT_G.:E05TSI                               TUE 07/29/97 13:03 Page:103
         3 000030   200146 630500                    EPPR0   HMI$+4,,AUTO
         3 000031   000020 631400 xsym               EPPR1   B_VECTNIL+16
         3 000032   000000 701000 xent               TSX1    DBM$PACK2
         3 000033   000000 011000                    NOP     0

      535     9575    1      HEADER0 = 0;

   9575  3 000034   200106 450100                    STZ     HEADER0,,AUTO

      536     9576    1      HEADER1 = 0;

   9576  3 000035   200107 450100                    STZ     HEADER1,,AUTO

      537     9577
      538     9578    2      DO PASS=0 TO 1;

   9578  3 000036   200105 450100                    STZ     PASS,,AUTO

      539     9579    2           IF TOP.NSUBLKS=0

   9579  3 000037   200003 470500                    LDP0    @TOP,,AUTO
         3 000040   000001 220100                    LDX0    1,,PR0
         3 000041   000055 601000 3                  TNZ     s:9587

      540     9580    3           THEN DO;

      541     9581    4                DO I=1 TO USER#;

   9581  3 000042   000001 235007                    LDA     1,DL
         3 000043   200110 755100                    STA     I,,AUTO
         3 000044   000050 710000 3                  TRA     s:9583+1

      542     9582    4                     CALL DISP_USER;

   9582  3 000045   000316 701000 3                  TSX1    DISP_USER
         3 000046   000000 011000                    NOP     0

PL6.E3A0      #003=DBD$USRT File=DBD$FMT_G.:E05TSI                               TUE 07/29/97 13:03 Page:104
      543     9583    4                     END;

   9583  3 000047   200110 054100                    AOS     I,,AUTO
         3 000050   200113 236100                    LDQ     USER#,,AUTO
         3 000051   000045 604000 3                  TMI     s:9582
         3 000052   200110 116100                    CMPQ    I,,AUTO
         3 000053   000045 605000 3                  TPL     s:9582

      544     9584    3                END;

   9584  3 000054   000276 710000 3                  TRA     s:9623

      545     9585
      546     9586    3           ELSE DO;                        /*display a single usrt entry*/

      547     9587    4                DO X=0 TO TOP.NSUBLKS-1;

   9587  3 000055   200111 450100                    STZ     X,,AUTO
         3 000056   000270 710000 3                  TRA     s:9620+3

      548     9588    4                     CALL DBA$SELECTION(TOP.SUBLK$(X)->OUT,I);

   9588  3 000057   200003 470500                    LDP0    @TOP,,AUTO
         3 000060   200111 720100                    LXL0    X,,AUTO
         3 000061   000003 471510                    LDP1    3,X0,PR0
         3 000062   200110 633500                    EPPR3   I,,AUTO
         3 000063   200147 453500                    STP3    HMI$+5,,AUTO
         3 000064   200146 451500                    STP1    HMI$+4,,AUTO
         3 000065   200146 630500                    EPPR0   HMI$+4,,AUTO
         3 000066   000020 631400 xsym               EPPR1   B_VECTNIL+16
         3 000067   000000 701000 xent               TSX1    DBA$SELECTION
         3 000070   000000 011000                    NOP     0

      549     9589    5                     IF I>0 THEN DO;

   9589  3 000071   200110 235100                    LDA     I,,AUTO
         3 000072   000106 604400 3                  TMOZ    s:9595
PL6.E3A0      #003=DBD$USRT File=DBD$FMT_G.:E05TSI                               TUE 07/29/97 13:03 Page:105

      550     9590    5                          CALL DBM$SYSID2UN(I)

   9590  3 000073   200110 630500                    EPPR0   I,,AUTO
         3 000074   200146 450500                    STP0    HMI$+4,,AUTO
         3 000075   200146 630500                    EPPR0   HMI$+4,,AUTO
         3 000076   000017 631400 xsym               EPPR1   B_VECTNIL+15
         3 000077   000000 701000 xent               TSX1    DBM$SYSID2UN
         3 000100   000104 702000 3                  TSX2    s:9592

      551     9591    6                          WHENRETURN DO; I=DB_CUN; END;

   9591  3 000101   000000 235000 xsym               LDA     DB_CUN
         3 000102   200110 755100                    STA     I,,AUTO

   9591  3 000103   000105 710000 3                  TRA     s:9593

      552     9592    6                          WHENALTRETURN DO; I=0; END;

   9592  3 000104   200110 450100                    STZ     I,,AUTO

      553     9593    5                          END;

   9593  3 000105   000110 710000 3                  TRA     s:9597

      554     9594    5                     ELSE DO;

      555     9595    5                          I = -I;

   9595  3 000106   000000 531000                    NEG     0
         3 000107   200110 755100                    STA     I,,AUTO

      556     9596    5                          END;

      557     9597    4                     IF (I > 0) AND (I <= USER#)

   9597  3 000110   200110 235100                    LDA     I,,AUTO
PL6.E3A0      #003=DBD$USRT File=DBD$FMT_G.:E05TSI                               TUE 07/29/97 13:03 Page:106
         3 000111   000265 604400 3                  TMOZ    s:9620
         3 000112   200113 236100                    LDQ     USER#,,AUTO
         3 000113   000116 604000 3                  TMI     s:9599
         3 000114   200110 116100                    CMPQ    I,,AUTO
         3 000115   000265 604000 3                  TMI     s:9620

      558     9598    5                     THEN DO;

      559     9599    5                          CALL DISP_USER

   9599  3 000116   000316 701000 3                  TSX1    DISP_USER
         3 000117   000265 702000 3                  TSX2    s:9620

      560     9600    6                          WHENRETURN DO;

      561     9601    6                               IF PASS ~= 0   AND   TOP.NSUBLKS=1

   9601  3 000120   200105 235100                    LDA     PASS,,AUTO
         3 000121   000265 600000 3                  TZE     s:9620
         3 000122   200003 470500                    LDP0    @TOP,,AUTO
         3 000123   000001 220100                    LDX0    1,,PR0
         3 000124   000001 100003                    CMPX0   1,DU
         3 000125   000265 601000 3                  TNZ     s:9620

      562     9602    7                               THEN DO;

      563     9603    7                                    CALL DAF$WRITE(VECTOR(BLANK_LINE));

   9603  3 000126   000002 630400 4                  EPPR0   2
         3 000127   000000 220000 xsym               LDX0    DAF$WRITE
         3 000130   000017 631400 xsym               EPPR1   B_VECTNIL+15
         3 000131   000000 701010                    TSX1    0,X0
         3 000132   000000 011000                    NOP     0

      564     9604    7                                    FLGS.F = G$USER.FLG;

   9604  3 000133   003100 060500                    CSL     bolr='003'O
PL6.E3A0      #003=DBD$USRT File=DBD$FMT_G.:E05TSI                               TUE 07/29/97 13:03 Page:107
         3 000134   200071 000020                    BDSC    G$USER,,AUTO             by=0,bit=0,n=16
         3 000135   200146 000044                    BDSC    HMI$+4,,AUTO             by=0,bit=0,n=36
         3 000136   200146 220100                    LDX0    HMI$+4,,AUTO
         3 000137   200120 740100                    STX0    FLGS,,AUTO

      565     9605    7                                    USERFLG_TEXT.SREST = 'set: ';

   9605  3 000140   040000 100400                    MLR     fill='040'O
         3 000141   000143 000005 2                  ADSC9   MODECHAR+2               cn=0,n=5
         3 000142   000073 600011 1                  ADSC9   USERFLG_TEXT+1           cn=3,n=9

      566     9606    7                                   CALL DAF$WRITE(VECTOR(USERFLG_TEXT),VECTOR(FLGS.F))
              9606                                             ;

   9606  3 000143   377640 235007                    LDA     130976,DL
         3 000144   200146 452500                    STP2    HMI$+4,,AUTO
         3 000145   200146 236100                    LDQ     HMI$+4,,AUTO
         3 000146   000120 036003                    ADLQ    80,DU
         3 000147   200150 757100                    STAQ    HMI$+6,,AUTO
         3 000150   200150 630500                    EPPR0   HMI$+6,,AUTO
         3 000151   200153 450500                    STP0    HMI$+9,,AUTO
         3 000152   000006 236000 4                  LDQ     6
         3 000153   200152 756100                    STQ     HMI$+8,,AUTO
         3 000154   200152 630500                    EPPR0   HMI$+8,,AUTO
         3 000155   000000 221000 xsym               LDX1    DAF$WRITE
         3 000156   000020 631400 xsym               EPPR1   B_VECTNIL+16
         3 000157   000000 701011                    TSX1    0,X1
         3 000160   000000 011000                    NOP     0

      567     9607    7                                    FLGS.F = ~(FLGS.F);

   9607  3 000161   200120 236100                    LDQ     FLGS,,AUTO
         3 000162   777777 376003                    ANQ     -1,DU
         3 000163   777777 676003                    ERQ     -1,DU
         3 000164   000022 772000                    QRL     18
         3 000165   000000 620006                    EAX0    0,QL
         3 000166   200120 740100                    STX0    FLGS,,AUTO
PL6.E3A0      #003=DBD$USRT File=DBD$FMT_G.:E05TSI                               TUE 07/29/97 13:03 Page:108

      568     9608    7                                    USERFLG_TEXT.SREST = 'off: ';

   9608  3 000167   040000 100400                    MLR     fill='040'O
         3 000170   000145 000005 2                  ADSC9   MODECHAR+4               cn=0,n=5
         3 000171   000073 600011 1                  ADSC9   USERFLG_TEXT+1           cn=3,n=9

      569     9609    7                                   CALL DAF$WRITE(VECTOR(USERFLG_TEXT),VECTOR(FLGS.F))
              9609                                             ;

   9609  3 000172   377640 235007                    LDA     130976,DL
         3 000173   200146 452500                    STP2    HMI$+4,,AUTO
         3 000174   200146 236100                    LDQ     HMI$+4,,AUTO
         3 000175   000120 036003                    ADLQ    80,DU
         3 000176   200150 757100                    STAQ    HMI$+6,,AUTO
         3 000177   200150 630500                    EPPR0   HMI$+6,,AUTO
         3 000200   200153 450500                    STP0    HMI$+9,,AUTO
         3 000201   000006 236000 4                  LDQ     6
         3 000202   200152 756100                    STQ     HMI$+8,,AUTO
         3 000203   200152 630500                    EPPR0   HMI$+8,,AUTO
         3 000204   000000 221000 xsym               LDX1    DAF$WRITE
         3 000205   000020 631400 xsym               EPPR1   B_VECTNIL+16
         3 000206   000000 701011                    TSX1    0,X1
         3 000207   000000 011000                    NOP     0

      570     9610
      571     9611    7                                    FLGS.F = G$USER.ASYNCH;

   9611  3 000210   003100 060500                    CSL     bolr='003'O
         3 000211   200071 400020                    BDSC    G$USER,,AUTO             by=2,bit=0,n=16
         3 000212   200146 000044                    BDSC    HMI$+4,,AUTO             by=0,bit=0,n=36
         3 000213   200146 220100                    LDX0    HMI$+4,,AUTO
         3 000214   200120 740100                    STX0    FLGS,,AUTO

      572     9612    7                                    ASYNC_TEXT.SREST = 'set: ';

   9612  3 000215   040000 100400                    MLR     fill='040'O
PL6.E3A0      #003=DBD$USRT File=DBD$FMT_G.:E05TSI                               TUE 07/29/97 13:03 Page:109
         3 000216   000143 000005 2                  ADSC9   MODECHAR+2               cn=0,n=5
         3 000217   000126 600011 1                  ADSC9   ASYNC_TEXT+1             cn=3,n=9

      573     9613    7                                    CALL DAF$WRITE(VECTOR(ASYNC_TEXT),VECTOR(FLGS.F));

   9613  3 000220   377640 235007                    LDA     130976,DL
         3 000221   200146 452500                    STP2    HMI$+4,,AUTO
         3 000222   200146 236100                    LDQ     HMI$+4,,AUTO
         3 000223   000120 036003                    ADLQ    80,DU
         3 000224   200150 757100                    STAQ    HMI$+6,,AUTO
         3 000225   200150 630500                    EPPR0   HMI$+6,,AUTO
         3 000226   200153 450500                    STP0    HMI$+9,,AUTO
         3 000227   000012 236000 4                  LDQ     10
         3 000230   200152 756100                    STQ     HMI$+8,,AUTO
         3 000231   200152 630500                    EPPR0   HMI$+8,,AUTO
         3 000232   000000 221000 xsym               LDX1    DAF$WRITE
         3 000233   000020 631400 xsym               EPPR1   B_VECTNIL+16
         3 000234   000000 701011                    TSX1    0,X1
         3 000235   000000 011000                    NOP     0

      574     9614    7                                    FLGS.F = ~(FLGS.F);

   9614  3 000236   200120 236100                    LDQ     FLGS,,AUTO
         3 000237   777777 376003                    ANQ     -1,DU
         3 000240   777777 676003                    ERQ     -1,DU
         3 000241   000022 772000                    QRL     18
         3 000242   000000 620006                    EAX0    0,QL
         3 000243   200120 740100                    STX0    FLGS,,AUTO

      575     9615    7                                    ASYNC_TEXT.SREST = 'off: ';

   9615  3 000244   040000 100400                    MLR     fill='040'O
         3 000245   000145 000005 2                  ADSC9   MODECHAR+4               cn=0,n=5
         3 000246   000126 600011 1                  ADSC9   ASYNC_TEXT+1             cn=3,n=9

      576     9616    7                                    CALL DAF$WRITE(VECTOR(ASYNC_TEXT),VECTOR(FLGS.F));

PL6.E3A0      #003=DBD$USRT File=DBD$FMT_G.:E05TSI                               TUE 07/29/97 13:03 Page:110
   9616  3 000247   377640 235007                    LDA     130976,DL
         3 000250   200146 452500                    STP2    HMI$+4,,AUTO
         3 000251   200146 236100                    LDQ     HMI$+4,,AUTO
         3 000252   000120 036003                    ADLQ    80,DU
         3 000253   200150 757100                    STAQ    HMI$+6,,AUTO
         3 000254   200150 630500                    EPPR0   HMI$+6,,AUTO
         3 000255   200153 450500                    STP0    HMI$+9,,AUTO
         3 000256   000012 236000 4                  LDQ     10
         3 000257   200152 756100                    STQ     HMI$+8,,AUTO
         3 000260   200152 630500                    EPPR0   HMI$+8,,AUTO
         3 000261   000000 221000 xsym               LDX1    DAF$WRITE
         3 000262   000020 631400 xsym               EPPR1   B_VECTNIL+16
         3 000263   000000 701011                    TSX1    0,X1
         3 000264   000000 011000                    NOP     0

      577     9617    7                                    END/*do if disply single user*/;

      578     9618    6                               end/*return from disp_user*/;

      579     9619    5                          END/*do if valid user#*/;

      580     9620    4                     END/*do x=0 to top*/;

   9620  3 000265   200111 235100                    LDA     X,,AUTO
         3 000266   000001 035007                    ADLA    1,DL
         3 000267   200111 755100                    STA     X,,AUTO
         3 000270   200003 470500                    LDP0    @TOP,,AUTO
         3 000271   000001 236100                    LDQ     1,,PR0
         3 000272   000022 772000                    QRL     18
         3 000273   200111 116100                    CMPQ    X,,AUTO
         3 000274   000276 600000 3                  TZE     s:9623
         3 000275   000057 603000 3                  TRC     s:9588

      581     9621    3                END/*else do*/;

      582     9622
      583     9623    2           END/*do pass=0 to 1*/;
PL6.E3A0      #003=DBD$USRT File=DBD$FMT_G.:E05TSI                               TUE 07/29/97 13:03 Page:111

   9623  3 000276   200105 235100                    LDA     PASS,,AUTO
         3 000277   000001 035007                    ADLA    1,DL
         3 000300   200105 755100                    STA     PASS,,AUTO
         3 000301   000002 115007                    CMPA    2,DL
         3 000302   000037 602000 3                  TNC     s:9579

      584     9624
      585     9625    1      CALL DAF$WRITE(VECTOR(BLANK_LINE));

   9625  3 000303   000002 630400 4                  EPPR0   2
         3 000304   000000 220000 xsym               LDX0    DAF$WRITE
         3 000305   000017 631400 xsym               EPPR1   B_VECTNIL+15
         3 000306   000000 701010                    TSX1    0,X0
         3 000307   000000 011000                    NOP     0

      586     9626    1      CALL DAF$WRITE(VECTOR(BLANK_LINE));

   9626  3 000310   000002 630400 4                  EPPR0   2
         3 000311   000000 220000 xsym               LDX0    DAF$WRITE
         3 000312   000017 631400 xsym               EPPR1   B_VECTNIL+15
         3 000313   000000 701010                    TSX1    0,X0
         3 000314   000000 011000                    NOP     0

      587     9627    1      RETURN;

   9627  3 000315   000000 702200 xent               TSX2  ! X66_ARET

      588     9628        %EJECT;
PL6.E3A0      #003=DBD$USRT File=DBD$FMT_G.:E05TSI                               TUE 07/29/97 13:03 Page:112
      589     9629
      590     9630    1   DISP_USER: PROC ALTRET;

   9630  3 000316   200144 741300       DISP_USER    STX1  ! HMI$+2,,AUTO

      591     9631    2      THIS_USER$ = USER$ + (USER_SIZE *I);

   9631  3 000317   200117 236100                    LDQ     USER_SIZE,,AUTO
         3 000320   200110 402100                    MPY     I,,AUTO
         3 000321   200115 036100                    ADLQ    USER$,,AUTO
         3 000322   200116 756100                    STQ     THIS_USER$,,AUTO

      592     9632    2      CALL DBM$GETMEM(THIS_USER$,G$USER,0,SIZEC(G$USER),,SIZEC(G$USER))

   9632  3 000323   000014 236000 4                  LDQ     12
         3 000324   000001 235000 xsym               LDA     B_VECTNIL+1
         3 000325   200152 757100                    STAQ    HMI$+8,,AUTO
         3 000326   000016 237000 4                  LDAQ    14
         3 000327   200150 757100                    STAQ    HMI$+6,,AUTO
         3 000330   200071 630500                    EPPR0   G$USER,,AUTO
         3 000331   200147 450500                    STP0    HMI$+5,,AUTO
         3 000332   200116 631500                    EPPR1   THIS_USER$,,AUTO
         3 000333   200146 451500                    STP1    HMI$+4,,AUTO
         3 000334   200146 630500                    EPPR0   HMI$+4,,AUTO
         3 000335   000024 631400 xsym               EPPR1   B_VECTNIL+20
         3 000336   000000 701000 xent               TSX1    DBM$GETMEM
         3 000337   000341 702000 3                  TSX2    s:9633
         3 000340   000343 710000 3                  TRA     s:9635

      593     9633    3      WHENALTRETURN DO; ALTRETURN; END;

   9633  3 000341   200144 221300                    LDX1  ! HMI$+2,,AUTO
         3 000342   000000 702211                    TSX2  ! 0,X1

      594     9634
      595     9635    2      CALL DBM$PACK2(G$USER.US,STATE);

PL6.E3A0      #003=DBD$USRT File=DBD$FMT_G.:E05TSI                               TUE 07/29/97 13:03 Page:113
   9635  3 000343   200123 630500                    EPPR0   STATE,,AUTO
         3 000344   200147 450500                    STP0    HMI$+5,,AUTO
         3 000345   200072 631500                    EPPR1   G$USER+1,,AUTO
         3 000346   200146 451500                    STP1    HMI$+4,,AUTO
         3 000347   200146 630500                    EPPR0   HMI$+4,,AUTO
         3 000350   000020 631400 xsym               EPPR1   B_VECTNIL+16
         3 000351   000000 701000 xent               TSX1    DBM$PACK2
         3 000352   000000 011000                    NOP     0

      596     9636    2      IF STATE = %GH_NULL THEN RETURN;

   9636  3 000353   200123 235100                    LDA     STATE,,AUTO
         3 000354   000037 115007                    CMPA    31,DL
         3 000355   000360 601000 3                  TNZ     s:9637

   9636  3 000356   200144 221300                    LDX1  ! HMI$+2,,AUTO
         3 000357   000001 702211                    TSX2  ! 1,X1

      597     9637    2      CALL DBM$PACK2(G$USER.SYSID,SYSID);

   9637  3 000360   200141 630500                    EPPR0   SYSID,,AUTO
         3 000361   200147 450500                    STP0    HMI$+5,,AUTO
         3 000362   200150 452500                    STP2    HMI$+6,,AUTO
         3 000363   200150 236100                    LDQ     HMI$+6,,AUTO
         3 000364   000020 036000 4                  ADLQ    16
         3 000365   200146 756100                    STQ     HMI$+4,,AUTO
         3 000366   200146 630500                    EPPR0   HMI$+4,,AUTO
         3 000367   000020 631400 xsym               EPPR1   B_VECTNIL+16
         3 000370   000000 701000 xent               TSX1    DBM$PACK2
         3 000371   000000 011000                    NOP     0

      598     9638
      599     9639    2      IF PASS = 0

   9639  3 000372   200105 235100                    LDA     PASS,,AUTO
         3 000373   000670 601000 3                  TNZ     s:9675

PL6.E3A0      #003=DBD$USRT File=DBD$FMT_G.:E05TSI                               TUE 07/29/97 13:03 Page:114
      600     9640    3      THEN DO;

      601     9641    3           IF HEADER0 = 0

   9641  3 000374   200106 236100                    LDQ     HEADER0,,AUTO
         3 000375   000404 601000 3                  TNZ     s:9647

      602     9642    4           THEN DO;

      603     9643    4                CALL DAF$INIT(USERRPT1);

   9643  3 000376   000021 630400 4                  EPPR0   17
         3 000377   000017 631400 xsym               EPPR1   B_VECTNIL+15
         3 000400   000000 701000 xent               TSX1    DAF$INIT
         3 000401   000000 011000                    NOP     0

      604     9644    4                HEADER0 = 1;

   9644  3 000402   000001 235007                    LDA     1,DL
         3 000403   200106 755100                    STA     HEADER0,,AUTO

      605     9645    4                END;

      606     9646
      607     9647    3           IF STATE > %GH_NULL

   9647  3 000404   200123 235100                    LDA     STATE,,AUTO
         3 000405   000040 115007                    CMPA    32,DL
         3 000406   000412 602000 3                  TNC     s:9649

      608     9648    3           THEN TXT_STATE = 'ILGL';

   9648  3 000407   000147 236000 2                  LDQ     MODECHAR+6
         3 000410   200124 756100                    STQ     TXT_STATE,,AUTO
         3 000411   000414 710000 3                  TRA     s:9651

      609     9649    3           ELSE TXT_STATE = G_STTTXT(STATE);
PL6.E3A0      #003=DBD$USRT File=DBD$FMT_G.:E05TSI                               TUE 07/29/97 13:03 Page:115

   9649  3 000412   000101 236005 2                  LDQ     G_STTTXT,AL
         3 000413   200124 756100                    STQ     TXT_STATE,,AUTO

      610     9650
      611     9651    3           CALL DBM$PACK2(G$USER.FLG,FLAGS);

   9651  3 000414   200121 630500                    EPPR0   FLAGS,,AUTO
         3 000415   200147 450500                    STP0    HMI$+5,,AUTO
         3 000416   200071 631500                    EPPR1   G$USER,,AUTO
         3 000417   200146 451500                    STP1    HMI$+4,,AUTO
         3 000420   200146 630500                    EPPR0   HMI$+4,,AUTO
         3 000421   000020 631400 xsym               EPPR1   B_VECTNIL+16
         3 000422   000000 701000 xent               TSX1    DBM$PACK2
         3 000423   000000 011000                    NOP     0

      612     9652    3           CALL DBM$PACK2(G$USER.ASYNCH,ASYNCH);

   9652  3 000424   200122 630500                    EPPR0   ASYNCH,,AUTO
         3 000425   200147 450500                    STP0    HMI$+5,,AUTO
         3 000426   200150 452500                    STP2    HMI$+6,,AUTO
         3 000427   200150 236100                    LDQ     HMI$+6,,AUTO
         3 000430   000022 036000 4                  ADLQ    18
         3 000431   200146 756100                    STQ     HMI$+4,,AUTO
         3 000432   200146 630500                    EPPR0   HMI$+4,,AUTO
         3 000433   000020 631400 xsym               EPPR1   B_VECTNIL+16
         3 000434   000000 701000 xent               TSX1    DBM$PACK2
         3 000435   000000 011000                    NOP     0

      613     9653    3           CALL DBM$PACK2(G$USER.FL,FLINK);

   9653  3 000436   200125 630500                    EPPR0   FLINK,,AUTO
         3 000437   200147 450500                    STP0    HMI$+5,,AUTO
         3 000440   200150 452500                    STP2    HMI$+6,,AUTO
         3 000441   200150 236100                    LDQ     HMI$+6,,AUTO
         3 000442   000023 036000 4                  ADLQ    19
         3 000443   200146 756100                    STQ     HMI$+4,,AUTO
PL6.E3A0      #003=DBD$USRT File=DBD$FMT_G.:E05TSI                               TUE 07/29/97 13:03 Page:116
         3 000444   200146 630500                    EPPR0   HMI$+4,,AUTO
         3 000445   000020 631400 xsym               EPPR1   B_VECTNIL+16
         3 000446   000000 701000 xent               TSX1    DBM$PACK2
         3 000447   000000 011000                    NOP     0

      614     9654    3           CALL DBM$PACK2(G$USER.BL,BLINK);

   9654  3 000450   200126 630500                    EPPR0   BLINK,,AUTO
         3 000451   200147 450500                    STP0    HMI$+5,,AUTO
         3 000452   200073 631500                    EPPR1   G$USER+2,,AUTO
         3 000453   200146 451500                    STP1    HMI$+4,,AUTO
         3 000454   200146 630500                    EPPR0   HMI$+4,,AUTO
         3 000455   000020 631400 xsym               EPPR1   B_VECTNIL+16
         3 000456   000000 701000 xent               TSX1    DBM$PACK2
         3 000457   000000 011000                    NOP     0

      615     9655    3           CALL DBM$PACK4(G$USER.MISC$,MISC$);

   9655  3 000460   200127 630500                    EPPR0   MISC$,,AUTO
         3 000461   200147 450500                    STP0    HMI$+5,,AUTO
         3 000462   200150 452500                    STP2    HMI$+6,,AUTO
         3 000463   200150 236100                    LDQ     HMI$+6,,AUTO
         3 000464   000024 036000 4                  ADLQ    20
         3 000465   200146 756100                    STQ     HMI$+4,,AUTO
         3 000466   200146 630500                    EPPR0   HMI$+4,,AUTO
         3 000467   000020 631400 xsym               EPPR1   B_VECTNIL+16
         3 000470   000000 701000 xent               TSX1    DBM$PACK4
         3 000471   000000 011000                    NOP     0

      616     9656    3           CALL DBM$PACK4(G$USER.DL$,DL$);

   9656  3 000472   200135 630500                    EPPR0   DL$,,AUTO
         3 000473   200147 450500                    STP0    HMI$+5,,AUTO
         3 000474   200150 452500                    STP2    HMI$+6,,AUTO
         3 000475   200150 236100                    LDQ     HMI$+6,,AUTO
         3 000476   000025 036000 4                  ADLQ    21
         3 000477   200146 756100                    STQ     HMI$+4,,AUTO
PL6.E3A0      #003=DBD$USRT File=DBD$FMT_G.:E05TSI                               TUE 07/29/97 13:03 Page:117
         3 000500   200146 630500                    EPPR0   HMI$+4,,AUTO
         3 000501   000020 631400 xsym               EPPR1   B_VECTNIL+16
         3 000502   000000 701000 xent               TSX1    DBM$PACK4
         3 000503   000000 011000                    NOP     0

      617     9657    3           CALL DBM$PACK4(G$USER.HMI$,HMI$);

   9657  3 000504   200142 630500                    EPPR0   HMI$,,AUTO
         3 000505   200147 450500                    STP0    HMI$+5,,AUTO
         3 000506   200103 631500                    EPPR1   G$USER+10,,AUTO
         3 000507   200146 451500                    STP1    HMI$+4,,AUTO
         3 000510   200146 630500                    EPPR0   HMI$+4,,AUTO
         3 000511   000020 631400 xsym               EPPR1   B_VECTNIL+16
         3 000512   000000 701000 xent               TSX1    DBM$PACK4
         3 000513   000000 011000                    NOP     0

      618     9658
      619     9659
      620     9660    3           CALL DAF$WRITE(VECTOR(USER_FMT1),
      621     9661    3             VECTOR(I),
      622     9662    3             VECTOR(FLINK),
      623     9663    3             VECTOR(BLINK),
      624     9664    3             VECTOR(SYSID),
      625     9665    3             VECTOR(MODECHAR(G$USER.MODE)),
      626     9666    3             VECTOR(TXT_STATE),
      627     9667    3             VECTOR(FLAGS),
      628     9668    3             VECTOR(ASYNCH),

   9668  3 000514   777640 235007                    LDA     -96,DL
         3 000515   200146 452500                    STP2    HMI$+4,,AUTO
         3 000516   200146 236100                    LDQ     HMI$+4,,AUTO
         3 000517   000110 036003                    ADLQ    72,DU
         3 000520   200150 757100                    STAQ    HMI$+6,,AUTO
         3 000521   777640 235007                    LDA     -96,DL
         3 000522   200152 452500                    STP2    HMI$+8,,AUTO
         3 000523   200152 236100                    LDQ     HMI$+8,,AUTO
         3 000524   000125 036003                    ADLQ    85,DU
PL6.E3A0      #003=DBD$USRT File=DBD$FMT_G.:E05TSI                               TUE 07/29/97 13:03 Page:118
         3 000525   200154 757100                    STAQ    HMI$+10,,AUTO
         3 000526   777640 235007                    LDA     -96,DL
         3 000527   200156 452500                    STP2    HMI$+12,,AUTO
         3 000530   200156 236100                    LDQ     HMI$+12,,AUTO
         3 000531   000126 036003                    ADLQ    86,DU
         3 000532   200160 757100                    STAQ    HMI$+14,,AUTO
         3 000533   777640 235007                    LDA     -96,DL
         3 000534   200162 452500                    STP2    HMI$+16,,AUTO
         3 000535   200162 236100                    LDQ     HMI$+16,,AUTO
         3 000536   000141 036003                    ADLQ    97,DU
         3 000537   200164 757100                    STAQ    HMI$+18,,AUTO
         3 000540   200077 236100                    LDQ     G$USER+6,,AUTO
         3 000541   000033 772000                    QRL     27
         3 000542   177640 235007                    LDA     65440,DL
         3 000543   000020 736000                    QLS     16
         3 000544   000030 036000 4                  ADLQ    24
         3 000545   200166 757100                    STAQ    HMI$+20,,AUTO
         3 000546   777640 235007                    LDA     -96,DL
         3 000547   200170 452500                    STP2    HMI$+22,,AUTO
         3 000550   200170 236100                    LDQ     HMI$+22,,AUTO
         3 000551   000124 036003                    ADLQ    84,DU
         3 000552   200172 757100                    STAQ    HMI$+24,,AUTO
         3 000553   777640 235007                    LDA     -96,DL
         3 000554   200174 452500                    STP2    HMI$+26,,AUTO
         3 000555   200174 236100                    LDQ     HMI$+26,,AUTO
         3 000556   000121 036003                    ADLQ    81,DU
         3 000557   200176 757100                    STAQ    HMI$+28,,AUTO
         3 000560   777640 235007                    LDA     -96,DL
         3 000561   200200 452500                    STP2    HMI$+30,,AUTO
         3 000562   200200 236100                    LDQ     HMI$+30,,AUTO
         3 000563   000122 036003                    ADLQ    82,DU
         3 000564   200202 757100                    STAQ    HMI$+32,,AUTO
         3 000565   777640 235007                    LDA     -96,DL
         3 000566   200204 452500                    STP2    HMI$+34,,AUTO
         3 000567   200204 236100                    LDQ     HMI$+34,,AUTO
         3 000570   000135 036003                    ADLQ    93,DU
         3 000571   200206 757100                    STAQ    HMI$+36,,AUTO
PL6.E3A0      #003=DBD$USRT File=DBD$FMT_G.:E05TSI                               TUE 07/29/97 13:03 Page:119
         3 000572   777640 235007                    LDA     -96,DL
         3 000573   200210 452500                    STP2    HMI$+38,,AUTO
         3 000574   200210 236100                    LDQ     HMI$+38,,AUTO
         3 000575   000127 036003                    ADLQ    87,DU
         3 000576   200212 757100                    STAQ    HMI$+40,,AUTO
         3 000577   777640 235007                    LDA     -96,DL
         3 000600   200214 452500                    STP2    HMI$+42,,AUTO
         3 000601   200214 236100                    LDQ     HMI$+42,,AUTO
         3 000602   000142 036003                    ADLQ    98,DU
         3 000603   200220 757100                    STAQ    HMI$+46,,AUTO
         3 000604   200150 237100                    LDAQ    HMI$+6,,AUTO
         3 000605   200216 757100                    STAQ    HMI$+44,,AUTO
         3 000606   200154 237100                    LDAQ    HMI$+10,,AUTO
         3 000607   200222 757100                    STAQ    HMI$+48,,AUTO
         3 000610   200160 237100                    LDAQ    HMI$+14,,AUTO
         3 000611   200224 757100                    STAQ    HMI$+50,,AUTO
         3 000612   200164 237100                    LDAQ    HMI$+18,,AUTO
         3 000613   200226 757100                    STAQ    HMI$+52,,AUTO
         3 000614   200166 237100                    LDAQ    HMI$+20,,AUTO
         3 000615   200230 757100                    STAQ    HMI$+54,,AUTO
         3 000616   200172 237100                    LDAQ    HMI$+24,,AUTO
         3 000617   200232 757100                    STAQ    HMI$+56,,AUTO
         3 000620   200176 237100                    LDAQ    HMI$+28,,AUTO
         3 000621   200234 757100                    STAQ    HMI$+58,,AUTO
         3 000622   200202 237100                    LDAQ    HMI$+32,,AUTO
         3 000623   200236 757100                    STAQ    HMI$+60,,AUTO
         3 000624   200206 237100                    LDAQ    HMI$+36,,AUTO
         3 000625   200240 757100                    STAQ    HMI$+62,,AUTO
         3 000626   200212 237100                    LDAQ    HMI$+40,,AUTO
         3 000627   200242 757100                    STAQ    HMI$+64,,AUTO
         3 000630   200220 237100                    LDAQ    HMI$+46,,AUTO
         3 000631   200244 757100                    STAQ    HMI$+66,,AUTO
         3 000632   200244 630500                    EPPR0   HMI$+66,,AUTO
         3 000633   200261 450500                    STP0    HMI$+79,,AUTO
         3 000634   200242 631500                    EPPR1   HMI$+64,,AUTO
         3 000635   200260 451500                    STP1    HMI$+78,,AUTO
         3 000636   200240 633500                    EPPR3   HMI$+62,,AUTO
PL6.E3A0      #003=DBD$USRT File=DBD$FMT_G.:E05TSI                               TUE 07/29/97 13:03 Page:120
         3 000637   200257 453500                    STP3    HMI$+77,,AUTO
         3 000640   200236 634500                    EPPR4   HMI$+60,,AUTO
         3 000641   200256 454500                    STP4    HMI$+76,,AUTO
         3 000642   200234 635500                    EPPR5   HMI$+58,,AUTO
         3 000643   200255 455500                    STP5    HMI$+75,,AUTO
         3 000644   200232 636500                    EPPR6   HMI$+56,,AUTO
         3 000645   200254 456500                    STP6    HMI$+74,,AUTO
         3 000646   200230 637500                    EPPR7   HMI$+54,,AUTO
         3 000647   200253 457500                    STP7    HMI$+73,,AUTO
         3 000650   200226 630500                    EPPR0   HMI$+52,,AUTO
         3 000651   200252 450500                    STP0    HMI$+72,,AUTO
         3 000652   200224 630500                    EPPR0   HMI$+50,,AUTO
         3 000653   200251 450500                    STP0    HMI$+71,,AUTO
         3 000654   200222 630500                    EPPR0   HMI$+48,,AUTO
         3 000655   200250 450500                    STP0    HMI$+70,,AUTO
         3 000656   200216 630500                    EPPR0   HMI$+44,,AUTO
         3 000657   200247 450500                    STP0    HMI$+69,,AUTO
         3 000660   000032 236000 4                  LDQ     26
         3 000661   200246 756100                    STQ     HMI$+68,,AUTO
         3 000662   200246 630500                    EPPR0   HMI$+68,,AUTO
         3 000663   000000 220000 xsym               LDX0    DAF$WRITE
         3 000664   000031 631400 4                  EPPR1   25
         3 000665   000000 701010                    TSX1    0,X0
         3 000666   000000 011000                    NOP     0

      629     9669    3             VECTOR(DL$),
      630     9670    3             VECTOR(MISC$),
      631     9671    3             VECTOR(HMI$));
      632     9672    3           END/*pass 0*/;

   9672  3 000667   001164 710000 3                  TRA     s:9707

      633     9673
      634     9674    3      ELSE DO;

      635     9675    3           IF HEADER1 = 0

PL6.E3A0      #003=DBD$USRT File=DBD$FMT_G.:E05TSI                               TUE 07/29/97 13:03 Page:121
   9675  3 000670   200107 236100                    LDQ     HEADER1,,AUTO
         3 000671   000720 601000 3                  TNZ     s:9684

      636     9676    4           THEN DO;

      637     9677    4                CALL DAF$WRITE(VECTOR(BLANK_LINE));

   9677  3 000672   000002 630400 4                  EPPR0   2
         3 000673   000000 220000 xsym               LDX0    DAF$WRITE
         3 000674   000017 631400 xsym               EPPR1   B_VECTNIL+15
         3 000675   000000 701010                    TSX1    0,X0
         3 000676   000000 011000                    NOP     0

      638     9678    4                CALL DAF$WRITE(VECTOR(BLANK_LINE));

   9678  3 000677   000002 630400 4                  EPPR0   2
         3 000700   000000 220000 xsym               LDX0    DAF$WRITE
         3 000701   000017 631400 xsym               EPPR1   B_VECTNIL+15
         3 000702   000000 701010                    TSX1    0,X0
         3 000703   000000 011000                    NOP     0

      639     9679    4                CALL DAF$WRITE(VECTOR(USERRPT2));

   9679  3 000704   000036 630400 4                  EPPR0   30
         3 000705   000000 220000 xsym               LDX0    DAF$WRITE
         3 000706   000017 631400 xsym               EPPR1   B_VECTNIL+15
         3 000707   000000 701010                    TSX1    0,X0
         3 000710   000000 011000                    NOP     0

      640     9680    4                CALL DAF$WRITE(VECTOR(USERRPT3));

   9680  3 000711   000042 630400 4                  EPPR0   34
         3 000712   000000 220000 xsym               LDX0    DAF$WRITE
         3 000713   000017 631400 xsym               EPPR1   B_VECTNIL+15
         3 000714   000000 701010                    TSX1    0,X0
         3 000715   000000 011000                    NOP     0

PL6.E3A0      #003=DBD$USRT File=DBD$FMT_G.:E05TSI                               TUE 07/29/97 13:03 Page:122
      641     9681    4                HEADER1 = 1;

   9681  3 000716   000001 235007                    LDA     1,DL
         3 000717   200107 755100                    STA     HEADER1,,AUTO

      642     9682    4                END;

      643     9683
      644     9684    3           CALL DBM$PACK2(G$USER.CLOCK,CLOCK);

   9684  3 000720   200131 630500                    EPPR0   CLOCK,,AUTO
         3 000721   200147 450500                    STP0    HMI$+5,,AUTO
         3 000722   200150 452500                    STP2    HMI$+6,,AUTO
         3 000723   200150 236100                    LDQ     HMI$+6,,AUTO
         3 000724   000043 036000 4                  ADLQ    35
         3 000725   200146 756100                    STQ     HMI$+4,,AUTO
         3 000726   200146 630500                    EPPR0   HMI$+4,,AUTO
         3 000727   000020 631400 xsym               EPPR1   B_VECTNIL+16
         3 000730   000000 701000 xent               TSX1    DBM$PACK2
         3 000731   000000 011000                    NOP     0

      645     9685    3           CALL DBM$PACK2(G$USER.PCT,PCOUNT);

   9685  3 000732   200132 630500                    EPPR0   PCOUNT,,AUTO
         3 000733   200147 450500                    STP0    HMI$+5,,AUTO
         3 000734   200076 631500                    EPPR1   G$USER+5,,AUTO
         3 000735   200146 451500                    STP1    HMI$+4,,AUTO
         3 000736   200146 630500                    EPPR0   HMI$+4,,AUTO
         3 000737   000020 631400 xsym               EPPR1   B_VECTNIL+16
         3 000740   000000 701000 xent               TSX1    DBM$PACK2
         3 000741   000000 011000                    NOP     0

      646     9686    3           CALL DBM$PACK1(G$USER.MF,MFCOUNT);

   9686  3 000742   200133 630500                    EPPR0   MFCOUNT,,AUTO
         3 000743   200147 450500                    STP0    HMI$+5,,AUTO
         3 000744   200150 452500                    STP2    HMI$+6,,AUTO
PL6.E3A0      #003=DBD$USRT File=DBD$FMT_G.:E05TSI                               TUE 07/29/97 13:03 Page:123
         3 000745   200150 236100                    LDQ     HMI$+6,,AUTO
         3 000746   000044 036000 4                  ADLQ    36
         3 000747   200146 756100                    STQ     HMI$+4,,AUTO
         3 000750   200146 630500                    EPPR0   HMI$+4,,AUTO
         3 000751   000020 631400 xsym               EPPR1   B_VECTNIL+16
         3 000752   000000 701000 xent               TSX1    DBM$PACK1
         3 000753   000000 011000                    NOP     0

      647     9687    3           CALL DBM$PACK2(G$USER.PRIO,PRIO);

   9687  3 000754   200136 630500                    EPPR0   PRIO,,AUTO
         3 000755   200147 450500                    STP0    HMI$+5,,AUTO
         3 000756   200150 452500                    STP2    HMI$+6,,AUTO
         3 000757   200150 236100                    LDQ     HMI$+6,,AUTO
         3 000760   000045 036000 4                  ADLQ    37
         3 000761   200146 756100                    STQ     HMI$+4,,AUTO
         3 000762   200146 630500                    EPPR0   HMI$+4,,AUTO
         3 000763   000020 631400 xsym               EPPR1   B_VECTNIL+16
         3 000764   000000 701000 xent               TSX1    DBM$PACK2
         3 000765   000000 011000                    NOP     0

      648     9688    3           CALL DBM$PACK2(G$USER.PRIOB,PRIOB);

   9688  3 000766   200137 630500                    EPPR0   PRIOB,,AUTO
         3 000767   200147 450500                    STP0    HMI$+5,,AUTO
         3 000770   200101 631500                    EPPR1   G$USER+8,,AUTO
         3 000771   200146 451500                    STP1    HMI$+4,,AUTO
         3 000772   200146 630500                    EPPR0   HMI$+4,,AUTO
         3 000773   000020 631400 xsym               EPPR1   B_VECTNIL+16
         3 000774   000000 701000 xent               TSX1    DBM$PACK2
         3 000775   000000 011000                    NOP     0

      649     9689    3           CALL DBM$PACK4(G$USER.UHJITPP,UHJITPP);

   9689  3 000776   200140 630500                    EPPR0   UHJITPP,,AUTO
         3 000777   200147 450500                    STP0    HMI$+5,,AUTO
         3 001000   200150 452500                    STP2    HMI$+6,,AUTO
PL6.E3A0      #003=DBD$USRT File=DBD$FMT_G.:E05TSI                               TUE 07/29/97 13:03 Page:124
         3 001001   200150 236100                    LDQ     HMI$+6,,AUTO
         3 001002   000046 036000 4                  ADLQ    38
         3 001003   200146 756100                    STQ     HMI$+4,,AUTO
         3 001004   200146 630500                    EPPR0   HMI$+4,,AUTO
         3 001005   000020 631400 xsym               EPPR1   B_VECTNIL+16
         3 001006   000000 701000 xent               TSX1    DBM$PACK4
         3 001007   000000 011000                    NOP     0

      650     9690
      651     9691    3           CALL DBM$PACK4(G$USER.UTS,UTS);

   9691  3 001010   200130 630500                    EPPR0   UTS,,AUTO
         3 001011   200147 450500                    STP0    HMI$+5,,AUTO
         3 001012   200150 452500                    STP2    HMI$+6,,AUTO
         3 001013   200150 236100                    LDQ     HMI$+6,,AUTO
         3 001014   000047 036000 4                  ADLQ    39
         3 001015   200146 756100                    STQ     HMI$+4,,AUTO
         3 001016   200146 630500                    EPPR0   HMI$+4,,AUTO
         3 001017   000020 631400 xsym               EPPR1   B_VECTNIL+16
         3 001020   000000 701000 xent               TSX1    DBM$PACK4
         3 001021   000000 011000                    NOP     0

      652     9692    3           FPT_TIME.TSTAMP_ = VECTOR(UTS);

   9692  3 001022   777640 235007                    LDA     -96,DL
         3 001023   200146 452500                    STP2    HMI$+4,,AUTO
         3 001024   200146 236100                    LDQ     HMI$+4,,AUTO
         3 001025   000130 036003                    ADLQ    88,DU
         3 001026   000200 757000 1                  STAQ    FPT_TIME+8

      653     9693    4           CALL M$TIME(FPT_TIME) WHENALTRETURN DO; END;

   9693  3 001027   000170 630400 1                  EPPR0   FPT_TIME
         3 001030   420004 713400                    CLIMB   alt,+8196
         3 001031   402000 401760                    pmme    nvectors=5
         3 001032   001034 702000 3                  TSX2    s:9705
         3 001033   001034 710000 3                  TRA     s:9705
PL6.E3A0      #003=DBD$USRT File=DBD$FMT_G.:E05TSI                               TUE 07/29/97 13:03 Page:125

      654     9694
      655     9695
      656     9696    3           CALL DAF$WRITE(VECTOR(USER_FMT2),
      657     9697    3             VECTOR(I),
      658     9698    3             VECTOR(SYSID),
      659     9699    3             VECTOR(UHJITPP),
      660     9700    3             VECTOR(MFCOUNT),
      661     9701    3             VECTOR(CLOCK),
      662     9702    3             VECTOR(UTS),
      663     9703    3             VECTOR(PRIO),
      664     9704    3             VECTOR(PRIOB),
      665     9705    3             VECTOR(THIS_USER$));

   9705  3 001034   777640 235007                    LDA     -96,DL
         3 001035   200146 452500                    STP2    HMI$+4,,AUTO
         3 001036   200146 236100                    LDQ     HMI$+4,,AUTO
         3 001037   000110 036003                    ADLQ    72,DU
         3 001040   200150 757100                    STAQ    HMI$+6,,AUTO
         3 001041   777640 235007                    LDA     -96,DL
         3 001042   200152 452500                    STP2    HMI$+8,,AUTO
         3 001043   200152 236100                    LDQ     HMI$+8,,AUTO
         3 001044   000141 036003                    ADLQ    97,DU
         3 001045   200154 757100                    STAQ    HMI$+10,,AUTO
         3 001046   777640 235007                    LDA     -96,DL
         3 001047   200156 452500                    STP2    HMI$+12,,AUTO
         3 001050   200156 236100                    LDQ     HMI$+12,,AUTO
         3 001051   000140 036003                    ADLQ    96,DU
         3 001052   200160 757100                    STAQ    HMI$+14,,AUTO
         3 001053   777640 235007                    LDA     -96,DL
         3 001054   200162 452500                    STP2    HMI$+16,,AUTO
         3 001055   200162 236100                    LDQ     HMI$+16,,AUTO
         3 001056   000133 036003                    ADLQ    91,DU
         3 001057   200164 757100                    STAQ    HMI$+18,,AUTO
         3 001060   777640 235007                    LDA     -96,DL
         3 001061   200166 452500                    STP2    HMI$+20,,AUTO
         3 001062   200166 236100                    LDQ     HMI$+20,,AUTO
PL6.E3A0      #003=DBD$USRT File=DBD$FMT_G.:E05TSI                               TUE 07/29/97 13:03 Page:126
         3 001063   000131 036003                    ADLQ    89,DU
         3 001064   200170 757100                    STAQ    HMI$+22,,AUTO
         3 001065   777640 235007                    LDA     -96,DL
         3 001066   200172 452500                    STP2    HMI$+24,,AUTO
         3 001067   200172 236100                    LDQ     HMI$+24,,AUTO
         3 001070   000130 036003                    ADLQ    88,DU
         3 001071   200174 757100                    STAQ    HMI$+26,,AUTO
         3 001072   777640 235007                    LDA     -96,DL
         3 001073   200176 452500                    STP2    HMI$+28,,AUTO
         3 001074   200176 236100                    LDQ     HMI$+28,,AUTO
         3 001075   000136 036003                    ADLQ    94,DU
         3 001076   200200 757100                    STAQ    HMI$+30,,AUTO
         3 001077   777640 235007                    LDA     -96,DL
         3 001100   200202 452500                    STP2    HMI$+32,,AUTO
         3 001101   200202 236100                    LDQ     HMI$+32,,AUTO
         3 001102   000137 036003                    ADLQ    95,DU
         3 001103   200204 757100                    STAQ    HMI$+34,,AUTO
         3 001104   777640 235007                    LDA     -96,DL
         3 001105   200206 452500                    STP2    HMI$+36,,AUTO
         3 001106   200206 236100                    LDQ     HMI$+36,,AUTO
         3 001107   000116 036003                    ADLQ    78,DU
         3 001110   200212 757100                    STAQ    HMI$+40,,AUTO
         3 001111   200150 237100                    LDAQ    HMI$+6,,AUTO
         3 001112   200210 757100                    STAQ    HMI$+38,,AUTO
         3 001113   200154 237100                    LDAQ    HMI$+10,,AUTO
         3 001114   200214 757100                    STAQ    HMI$+42,,AUTO
         3 001115   200160 237100                    LDAQ    HMI$+14,,AUTO
         3 001116   200216 757100                    STAQ    HMI$+44,,AUTO
         3 001117   200164 237100                    LDAQ    HMI$+18,,AUTO
         3 001120   200220 757100                    STAQ    HMI$+46,,AUTO
         3 001121   200170 237100                    LDAQ    HMI$+22,,AUTO
         3 001122   200222 757100                    STAQ    HMI$+48,,AUTO
         3 001123   200174 237100                    LDAQ    HMI$+26,,AUTO
         3 001124   200224 757100                    STAQ    HMI$+50,,AUTO
         3 001125   200200 237100                    LDAQ    HMI$+30,,AUTO
         3 001126   200226 757100                    STAQ    HMI$+52,,AUTO
         3 001127   200204 237100                    LDAQ    HMI$+34,,AUTO
PL6.E3A0      #003=DBD$USRT File=DBD$FMT_G.:E05TSI                               TUE 07/29/97 13:03 Page:127
         3 001130   200230 757100                    STAQ    HMI$+54,,AUTO
         3 001131   200212 237100                    LDAQ    HMI$+40,,AUTO
         3 001132   200232 757100                    STAQ    HMI$+56,,AUTO
         3 001133   200232 630500                    EPPR0   HMI$+56,,AUTO
         3 001134   200245 450500                    STP0    HMI$+67,,AUTO
         3 001135   200230 631500                    EPPR1   HMI$+54,,AUTO
         3 001136   200244 451500                    STP1    HMI$+66,,AUTO
         3 001137   200226 633500                    EPPR3   HMI$+52,,AUTO
         3 001140   200243 453500                    STP3    HMI$+65,,AUTO
         3 001141   200224 634500                    EPPR4   HMI$+50,,AUTO
         3 001142   200242 454500                    STP4    HMI$+64,,AUTO
         3 001143   200222 635500                    EPPR5   HMI$+48,,AUTO
         3 001144   200241 455500                    STP5    HMI$+63,,AUTO
         3 001145   200220 636500                    EPPR6   HMI$+46,,AUTO
         3 001146   200240 456500                    STP6    HMI$+62,,AUTO
         3 001147   200216 637500                    EPPR7   HMI$+44,,AUTO
         3 001150   200237 457500                    STP7    HMI$+61,,AUTO
         3 001151   200214 630500                    EPPR0   HMI$+42,,AUTO
         3 001152   200236 450500                    STP0    HMI$+60,,AUTO
         3 001153   200210 630500                    EPPR0   HMI$+38,,AUTO
         3 001154   200235 450500                    STP0    HMI$+59,,AUTO
         3 001155   000053 236000 4                  LDQ     43
         3 001156   200234 756100                    STQ     HMI$+58,,AUTO
         3 001157   200234 630500                    EPPR0   HMI$+58,,AUTO
         3 001160   000000 220000 xsym               LDX0    DAF$WRITE
         3 001161   000052 631400 4                  EPPR1   42
         3 001162   000000 701010                    TSX1    0,X0
         3 001163   000000 011000                    NOP     0

      666     9706    3           END;

      667     9707    2   END DISP_USER;

   9707  3 001164   200144 221300                    LDX1  ! HMI$+2,,AUTO
         3 001165   000001 702211                    TSX2  ! 1,X1
      668     9708
      669     9709    1   END DBD$USRT;
PL6.E3A0      #003=DBD$USRT File=DBD$FMT_G.:E05TSI                               TUE 07/29/97 13:03 Page:128
      670     9710        %EOD;

PL6.E3A0      #003=DBD$USRT File=DBD$FMT_G.:E05TSI                               TUE 07/29/97 13:03 Page:129
--  Include file information  --

   XU_MACRO_C.:E05TOU  is referenced.
   DA_FORMAT_C.:E05TOU  is referenced.
   GH_SCHD_E.:E05TOU  is referenced.
   GH_SCHD_M.:E05TOU  is referenced.
   G$BOBCAT_M.:E05TOU  is referenced.
   CP_6_C.:E05TOU  is referenced.
   CP_6.:E05TOU  cannot be made into a system file and is referenced.
      No diagnostics issued in procedure DBD$USRT.
PL6.E3A0      #003=DBD$USRT File=DBD$FMT_G.:E05TSI                               TUE 07/29/97 13:03 Page:130

 **** Variables and constants ****

  ****  Section 001  Data  DBD$USRT

  ****  Scalars and arrays  ****
OctLoc.c.b A Datatyp(siz) R M Lvl/name                 OctLoc.c.b A Datatyp(siz) R M Lvl/name

   125-0-0/c STRC(1224)  r     1 ASYNC_TEXT               170-0-0/d STRC(432)   r     1 FPT_TIME
    72-0-0/c STRC(972)   r     1 USERFLG_TEXT               0-0-0/w STRC(288)   r     1 USERRPT1
    16-0-0/w STRC(144)   r     1 USERRPT1HD00              44-0-0/w STRC(144)   r     1 USERRPT1HD01
    10-0-0/c STRC(198)   r     1 USERRPT1TX00              22-0-0/c STRC(648)   r     1 USERRPT1TX01
    50-0-0/c STRC(648)   r     1 USERRPT1TX02

  ****  Section 002 RoData DBD$USRT

  ****  Scalars and arrays  ****
OctLoc.c.b A Datatyp(siz) R M Lvl/name                 OctLoc.c.b A Datatyp(siz) R M Lvl/name

   101-0-0/c CHAR(4)     r     1 G_STTTXT(0:31)
   141-0-0/c CHAR        r     1 MODECHAR(0:4)
    22-0-0/c CHAR(61)    r     1 USERRPT2                  42-0-0/c CHAR(62)    r     1 USERRPT3
     0-0-0/c CHAR(69)    r     1 USER_FMT1                 62-0-0/c CHAR(57)    r     1 USER_FMT2

  ****  Auto variables  ****

  ****  Scalars and arrays  ****
OctLoc.c.b A Datatyp(siz) R M Lvl/name                 OctLoc.c.b A Datatyp(siz) R M Lvl/name

     3-0-0/w PTR         r     1 @TOP                     122-0-0/w UBIN        r     1 ASYNCH
   126-0-0/w UBIN        r     1 BLINK                    131-0-0/w UBIN        r     1 CLOCK
   135-0-0/w UBIN        r     1 DL$                      121-0-0/w UBIN        r     1 FLAGS
   120-0-0/b STRC        r     1 FLGS                     125-0-0/w UBIN        r     1 FLINK
     4-0-0/w STRC(1908)  r     1 G$BOBCAT                  71-0-0/w STRC(432)   r     1 G$USER
   106-0-0/w UBIN        r     1 HEADER0                  107-0-0/w UBIN        r     1 HEADER1
   142-0-0/w UBIN        r     1 HMI$                     110-0-0/w SBIN        r     1 I
   133-0-0/w UBIN        r     1 MFCOUNT                  127-0-0/w UBIN        r     1 MISC$
   105-0-0/w UBIN        r     1 PASS                     132-0-0/w UBIN        r     1 PCOUNT
PL6.E3A0      #003=DBD$USRT File=DBD$FMT_G.:E05TSI                               TUE 07/29/97 13:03 Page:131
   136-0-0/w UBIN        r     1 PRIO                     137-0-0/w UBIN        r     1 PRIOB
   123-0-0/w UBIN        r     1 STATE                    141-0-0/w UBIN        r     1 SYSID
   116-0-0/w UBIN        r     1 THIS_USER$                *0-0-0/w STRC(144)   r     1 TOP
   124-0-0/c CHAR(4)     r     1 TXT_STATE                140-0-0/w UBIN        r     1 UHJITPP
   113-0-0/w UBIN        r     1 USER#                    115-0-0/w UBIN        r     1 USER$
   117-0-0/w UBIN        r     1 USER_SIZE                130-0-0/w UBIN        r     1 UTS
   111-0-0/w UBIN        r     1 X

  ****  SYMREF variables  ****

  ****  Scalars and arrays  ****
OctLoc.c.b A Datatyp(siz) R M Lvl/name                 OctLoc.c.b A Datatyp(siz) R M Lvl/name

     0-0-0/c CHAR(4)     r     1 BLANK_LINE                 0-0-0/w EPTR        r     1 DAF$WRITE
     0-0-0/w UBIN        r     1 DB_CUN

  ****  BASED and DCB variables  ****

  ****  Scalars and arrays  ****
OctLoc.c.b A Datatyp(siz) R M Lvl/name                 OctLoc.c.b A Datatyp(siz) R M Lvl/name

     0-0-0/w STRC(144)   r     1 OUT


   Procedure DBD$USRT requires 630 words for executable code.
   Procedure DBD$USRT requires 178 words of local(AUTO) storage.
PL6.E3A0      #003=DBD$USRT File=DBD$FMT_G.:E05TSI                               TUE 07/29/97 13:03 Page:132
          *** CROSS REFERENCE LISTING ***
**     DENOTES     IDENTIFIER DEFINITION
<<                 IDENTIFIER'S VALUE SET
>>                 IDENTIFIER'S VALUE USED
<>                 IDENTIFIER SET AND/OR USED
--                 IDENTIFIER REFERENCED
PL6.E3A0      #003=DBD$USRT File=DBD$FMT_G.:E05TSI                               TUE 07/29/97 13:03 Page:133
          MINI XREF LISTING

ASYNCH
      9531**DCL      9652<>CALL     9668--CALL
ASYNC_TEXT
      9504**DCL      9613--CALL     9616--CALL
ASYNC_TEXT.SREST
      9504**DCL      9612<<ASSIGN   9615<<ASSIGN
BLANK_LINE
      9465**DCL      9603--CALL     9625--CALL     9626--CALL     9677--CALL     9678--CALL
BLINK
      9535**DCL      9654<>CALL     9668--CALL
CLOCK
      9538**DCL      9684<>CALL     9705--CALL
DAF$INIT
      9299**DCL-ENT  9643--CALL
DAF$WRITE
      9298**DCL      9603>>CALL     9606>>CALL     9609>>CALL     9613>>CALL     9616>>CALL     9625>>CALL
      9626>>CALL     9668>>CALL     9677>>CALL     9678>>CALL     9679>>CALL     9680>>CALL     9705>>CALL
DBA$SELECTION
      9300**DCL-ENT  9588--CALL
DBM$GETBOBCAT
      9302**DCL-ENT  9571--CALL
DBM$GETMEM
      9301**DCL-ENT  9632--CALL
DBM$PACK1
      9303**DCL-ENT  9686--CALL
DBM$PACK2
      9304**DCL-ENT  9574--CALL     9635--CALL     9637--CALL     9651--CALL     9652--CALL     9653--CALL
      9654--CALL     9684--CALL     9685--CALL     9687--CALL     9688--CALL
DBM$PACK4
      9305**DCL-ENT  9573--CALL     9655--CALL     9656--CALL     9657--CALL     9689--CALL     9691--CALL
DBM$SYSID2UN
      9306**DCL-ENT  9590--CALL
PL6.E3A0      #003=DBD$USRT File=DBD$FMT_G.:E05TSI                               TUE 07/29/97 13:03 Page:134
DB_CUN
      9307**DCL      9591>>ASSIGN
DISP_USER
      9630**PROC     9582--CALL     9599--CALL
DL$
      9542**DCL      9656<>CALL     9668--CALL
FLAGS
      9530**DCL      9651<>CALL     9668--CALL
FLGS.F
      9525**DCL      9604<<ASSIGN   9606--CALL     9607<<ASSIGN   9607>>ASSIGN   9609--CALL     9611<<ASSIGN
      9613--CALL     9614<<ASSIGN   9614>>ASSIGN   9616--CALL
FLINK
      9534**DCL      9653<>CALL     9668--CALL
FPT_TIME
      9560**DCL      9693<>CALL
FPT_TIME.TSTAMP_
      9563**DCL      9692<<ASSIGN
FPT_TIME.V
      9564**DCL      9560--DCLINIT
G$BOBCAT
      9182**DCL      9571<>CALL
G$BOBCAT.MUIS
      9183**DCL      9574<>CALL
G$BOBCAT.USRT$
      9185**DCL      9573<>CALL
G$USER
      9199**DCL      9570--ASSIGN   9632<>CALL     9632--CALL     9632--CALL
G$USER.ASYNCH
      9200**DCL      9611>>ASSIGN   9652<>CALL
G$USER.BL
      9200**DCL      9654<>CALL
G$USER.CLOCK
      9201**DCL      9684<>CALL
G$USER.DL$
      9202**DCL      9656<>CALL
G$USER.FL
PL6.E3A0      #003=DBD$USRT File=DBD$FMT_G.:E05TSI                               TUE 07/29/97 13:03 Page:135
      9200**DCL      9653<>CALL
G$USER.FLG
      9199**DCL      9604>>ASSIGN   9651<>CALL
G$USER.HMI$
      9203**DCL      9657<>CALL
G$USER.MF
      9201**DCL      9686<>CALL
G$USER.MISC
      9200**DCL      9200--REDEF
G$USER.MISC$
      9200**DCL      9655<>CALL
G$USER.MODE
      9202**DCL      9668>>CALL
G$USER.PCT
      9201**DCL      9685<>CALL
G$USER.PRIO
      9202**DCL      9687<>CALL
G$USER.PRIOB
      9202**DCL      9688<>CALL
G$USER.SYSID
      9203**DCL      9637<>CALL
G$USER.UHJITPP
      9202**DCL      9689<>CALL
G$USER.US
      9200**DCL      9635<>CALL
G$USER.UTS
      9201**DCL      9691<>CALL
G_STTTXT
      9486**DCL      9649>>ASSIGN
HEADER0
      9514**DCL      9575<<ASSIGN   9641>>IF       9644<<ASSIGN
HEADER1
      9515**DCL      9576<<ASSIGN   9675>>IF       9681<<ASSIGN
HMI$
      9547**DCL      9657<>CALL     9668--CALL
I
PL6.E3A0      #003=DBD$USRT File=DBD$FMT_G.:E05TSI                               TUE 07/29/97 13:03 Page:136
      9516**DCL      9581<<DOINDEX  9588<>CALL     9589>>IF       9590<>CALL     9591<<ASSIGN   9592<<ASSIGN
      9595<<ASSIGN   9595>>ASSIGN   9597>>IF       9597>>IF       9631>>ASSIGN   9668--CALL     9705--CALL
M$TIME
      5567**DCL-ENT  9693--CALL
MFCOUNT
      9540**DCL      9686<>CALL     9705--CALL
MISC$
      9536**DCL      9655<>CALL     9668--CALL
MODECHAR
      9510**DCL      9668--CALL
OUT
      9257**DCL      9588<>CALL
PASS
      9513**DCL      9578<<DOINDEX  9601>>IF       9639>>IF
PCOUNT
      9539**DCL      9685<>CALL
PRIO
      9543**DCL      9687<>CALL     9705--CALL
PRIOB
      9544**DCL      9688<>CALL     9705--CALL
STATE
      9532**DCL      9635<>CALL     9636>>IF       9647>>IF       9649>>ASSIGN
SYSID
      9546**DCL      9637<>CALL     9668--CALL     9705--CALL
THIS_USER$
      9522**DCL      9631<<ASSIGN   9632<>CALL     9705--CALL
TOP
      9212**DCL         9--PROC
TOP.NSUBLKS
      9224**DCL      9579>>IF       9587>>DOINDEX  9601>>IF
TOP.SUBLK$
      9245**DCL      9588>>CALL
TXT_STATE
      9533**DCL      9648<<ASSIGN   9649<<ASSIGN   9668--CALL
UHJITPP
      9545**DCL      9689<>CALL     9705--CALL
PL6.E3A0      #003=DBD$USRT File=DBD$FMT_G.:E05TSI                               TUE 07/29/97 13:03 Page:137
USER#
      9519**DCL      9574<>CALL     9581>>DOINDEX  9597>>IF
USER$
      9521**DCL      9573<>CALL     9631>>ASSIGN
USERFLG_TEXT
      9495**DCL      9606--CALL     9609--CALL
USERFLG_TEXT.SREST
      9495**DCL      9605<<ASSIGN   9608<<ASSIGN
USERRPT1
      9326**DCL      9643<>CALL
USERRPT1HD00
      9393**DCL      9361--DCLINIT
USERRPT1HD01
      9436**DCL      9408--DCLINIT
USERRPT1TX00
      9369**DCL      9356--DCLINIT
USERRPT1TX01
      9411**DCL      9401--DCLINIT
USERRPT1TX02
      9454**DCL      9444--DCLINIT
USERRPT2
      9466**DCL      9679--CALL
USERRPT3
      9468**DCL      9680--CALL
USER_FMT1
      9461**DCL      9668--CALL
USER_FMT2
      9470**DCL      9705--CALL
USER_SIZE
      9523**DCL      9570<<ASSIGN   9631>>ASSIGN
UTS
      9537**DCL      9691<>CALL     9692--ASSIGN   9705--CALL
X
      9517**DCL      9587<<DOINDEX  9588>>CALL

