PL6.E3A0      #005=DBD$TCTX File=DBD$FMT_KN.:E05TSI                              TUE 07/29/97 13:06 Page:178
      938        1        /*T***********************************************************/
      939        2        /*T*                                                         */
      940        3        /*T* Copyright (c) Bull HN Information Systems Inc., 1997    */
      941        4        /*T*                                                         */
      942        5        /*T***********************************************************/
      943        6        /*F*    NAME: DBD$TCTX
      944        7                PURPOSE: To process the TCTX command for FEPs.
      945        8
      946        9        */
      947       10        DBD$TCTX: PROC(TOP);
      948       11
      949       12        /*X* PLM=3,IND=5,ECU=0,ENU=0,MOC   */
      950       13
      951       14        %INCLUDE CP_6;
      952     5573        %INCLUDE GH_SCHD_M;
      953     5717        %INCLUDE G$BOBCAT_M;
      954     5737        %INCLUDE KN_DATA_M;
      955     7523        %INCLUDE K_ADDRESS_M;
      956     8026        %INCLUDE DA_FORMAT_C;
      957     8268        %INCLUDE XU_MACRO_C;
      958    11374        %INCLUDE DA_ANLZ_R;
      959    11387        %INCLUDE DB_PERR_C;
      960    11405
      961    11406        %PARSE$OUT (NAME=TOP,STCLASS=PARAM);
      962    11451        %PARSE$OUT (NAME=OUT,STCLASS=BASED);
      963    11496
      964    11497    1   DCL DAA$VALUE ENTRY(3) ALTRET;
      965    11498    1   DCL DAF$WRITE EPTR SYMREF;
      966    11499    1   DCL DAF$INIT ENTRY(1) ALTRET;
      967    11500    1   DCL DBB$HEXDUMP ENTRY(4);
      968    11501    1   DCL DBM$GETMEM ENTRY(10) ALTRET;
      969    11502    1   DCL DBM$GETBOBCAT ENTRY(1) ALTRET;
      970    11503    1   DCL DBM$PACK1 ENTRY(2);
      971    11504    1   DCL DBM$PACK2 ENTRY(2);
      972    11505    1   DCL DBM$PACK4 ENTRY(2);
      973    11506    1   DCL DBD$KNINFO ENTRY(2) ALTRET;
      974    11507
PL6.E3A0      #005=DBD$TCTX File=DBD$FMT_KN.:E05TSI                              TUE 07/29/97 13:06 Page:179
      975    11508
      976    11509        %REPORT (NAME=TCTXRPT1,TRUNC=YES,TABDFLT=5,HEADER=YES,TITLE='FEP Transport Context')
             11509            ;
      977    11575        %HEADER (LAST=NO,TEXT=
      978    11576        'TCTX$  TCTX# STATE     NODES  DST_REF SENDN RECVN QOS  CLASS FLAGS BufBy RSN ERR');
      979    11618        %HEADER (TEXT=
      980    11619        '------ ----- -------- ------- ------- ----- ----- ---- ----- ----- ----- --- ---');
      981    11661    1   DCL 1 TCTX_FMT1 CHAR(0) CONSTANT INIT(
      982    11662    1   '.%5ZH %@5.16D %A %@7.8D %@7.16D %@5.32D %@5.32D %@4.8D %@5.8D .%4ZH %5D %@3.8D %@3.
             11662        8D');
      983    11663
      984    11664    1   DCL 1 TCTX_FMT1X CHAR(0) CONSTANT INIT(
      985    11665    1   '.%5ZH %@5.16D %A %@3.8D-%@3.8D %@3.16D-%@3.16D %@5.32D %@5.32D %@4.8D %@5.8D .%4ZH
             11665        %5D %@3.8D %@3.8D');
      986    11666
      987    11667    1   DCL 1 TCTX_FMT1Y CHAR(0) CONSTANT INIT(
      988    11668    1   '.%5ZH %@5.16D %A %@3.8D-%A %@3.16D-%@3.16D %@5.32D %@5.32D %@4.8D %@5.8D .%4ZH %5D
             11668        %@3.8D %@3.8D');
      989    11669
      990    11670        %K_TCTX_ST_TXT (FPTN=K_TCTX_STATE, STCLASS=STATIC);
      991    11687
      992    11688    1   DCL BAD_TCTX_ADDR CHAR(0) CONSTANT INIT(
      993    11689    1      'Invalid TCTX address');
      994    11690
      995    11691    1   DCL BLANK3 CHAR(3) STATIC INIT('   ');
      996    11692        /* AUTO Storage */
      997    11693        %G$BOBCAT (FPTN=G$BOBCAT,STCLASS=AUTO);
      998    11706        %K$TCTX (NAME=K$TCTX,STCLASS=AUTO,ALGN=CALIGNED);
      999    12613
     1000    12614    1   DCL I SBIN;
     1001    12615    1   DCL X UBIN;
     1002    12616    1   DCL RADIX UBIN;
     1003    12617
     1004    12618    1   DCL TCTX_DATA$ UBIN;
     1005    12619    1   DCL THIS_TCTX$ UBIN;
     1006    12620    1   DCL TCTX_$$ UBIN;
     1007    12621    1   DCL TCTX_SIZE UBIN;
PL6.E3A0      #005=DBD$TCTX File=DBD$FMT_KN.:E05TSI                              TUE 07/29/97 13:06 Page:180
     1008    12622    1   DCL STATE UBIN;
     1009    12623    1   DCL FLAGS UBIN;
     1010    12624    1   DCL BUF_BYT UBIN;
     1011    12625    1   DCL TEMP UBIN;
     1012    12626    1   DCL ACTION UBIN;              /* 0 = display all     1 = display if in use    */
     1013    12627    1   DCL ENTRY_TYPE UBIN;          /* 0 = display TCTXs     1 = check TCTX chain*/
     1014    12628    1   DCL HEADER0 UBIN;
     1015    12629    1   DCL HEADER1 UBIN;
     1016    12630
     1017    12631    1   DCL 1 TCTXFLG,
     1018    12632    1         2 F BIT(9) UNAL,
     1019    12633    1         2 * BIT(27) UNAL;
     1020    12634
     1021    12635    1   DCL DBD_BOBCAT$ UBIN SYMREF;
     1022    12636
     1023    12637    1   DCL DBD_FEPCTX_START$ UBIN SYMREF;
     1024    12638    1   DCL DBD_FEPCTX_END$ UBIN SYMREF;
     1025    12639    1   DCL DBD_FEPCTX_MAX# UBIN SYMREF;
     1026    12640
     1027    12641    1   DCL B$1WORD UBIN BASED;
     1028    12642    1   DCL M$DO DCB;
     1029    12643
     1030    12644        %EJECT;
PL6.E3A0      #005=DBD$TCTX File=DBD$FMT_KN.:E05TSI                              TUE 07/29/97 13:06 Page:181
     1031    12645    1      ENTRY_TYPE=0/*display TCTXs*/;
     1032    12646    1      GOTO TCTX_START;
     1033    12647
     1034    12648    1   DBD$TCTX_CHECK: ENTRY(TOP);
     1035    12649    1      ENTRY_TYPE=1/*check TCTX chain*/;
     1036    12650
     1037    12651    1   TCTX_START: ;
     1038    12652    1      HEADER0 = 0;
     1039    12653    1      TCTX_SIZE = (SIZEC(K$TCTX)+1)/2;
     1040    12654    1      CALL DBM$GETBOBCAT(G$BOBCAT)
     1041    12655    2      WHENALTRETURN DO; RETURN; END;
     1042    12656
     1043    12657    1      CALL DBM$PACK4(G$BOBCAT.TCTXDATA$,TCTX_DATA$);
     1044    12658    1      CALL DBM$PACK4(G$BOBCAT.TCTX$$,TCTX_$$);
     1045    12659
     1046    12660    1      CALL DBD$KNINFO(TCTX_DATA$,0);
     1047    12661
     1048    12662    1      IF (ENTRY_TYPE=1/*if check*/)
     1049    12663    2      THEN DO;
     1050    12664    2           CALL DBD$KNINFO(TCTX_DATA$,1);
     1051    12665    2           RETURN;
     1052    12666    2           END/*do if check*/;
     1053    12667
     1054    12668        %EJECT;
PL6.E3A0      #005=DBD$TCTX File=DBD$FMT_KN.:E05TSI                              TUE 07/29/97 13:06 Page:182
     1055    12669    1   DISPLAY_ALL: ;
     1056    12670    1      IF TOP.NSUBLKS=0
     1057    12671    2      THEN DO;
     1058    12672    2           ACTION=1/*display all in use*/;
     1059    12673    3           DO I=0 TO DBD_FEPCTX_MAX#;
     1060    12674    3                THIS_TCTX$ = TCTX_$$ + (2*I);
     1061    12675    3                CALL DBM$GETMEM(THIS_TCTX$,THIS_TCTX$,0,4,,4);
     1062    12676    3                CALL DBM$PACK4(THIS_TCTX$,THIS_TCTX$);
     1063    12677    3                IF THIS_TCTX$ ~= 0
     1064    12678    3                THEN CALL DISP_TCTX;
     1065    12679    3                END;
     1066    12680    2           END;
     1067    12681
     1068    12682    2      ELSE DO;
     1069    12683    3           DO X=0 TO TOP.NSUBLKS-1;
     1070    12684    3                CALL DAA$VALUE(TOP.SUBLK$(X)->OUT,THIS_TCTX$)
     1071    12685    4                WHENRETURN DO;
     1072    12686    4                     IF THIS_TCTX$ = 0
     1073    12687    5                     THEN DO;
     1074    12688    5                          ACTION=0/*display all*/;
     1075    12689    6                          DO I=0 TO DBD_FEPCTX_MAX# -1;
     1076    12690    6                               THIS_TCTX$ = DBD_FEPCTX_START$ + (TCTX_SIZE *I);
     1077    12691    6                               CALL DISP_TCTX;
     1078    12692    6                               END;
     1079    12693    5                          RETURN;
     1080    12694    5                          END;
     1081    12695
     1082    12696    4                     CALL DISP_TCTX
     1083    12697    5                     WHENRETURN DO;
     1084    12698    5                          END/*return from disp_iop*/;
     1085    12699    4                     END/*return from daa$value*/;
     1086    12700
     1087    12701    3                END/*do X=0 to nsublks-1*/;
     1088    12702    2           END/*else do*/;
     1089    12703
     1090    12704
     1091    12705    1      RETURN;
PL6.E3A0      #005=DBD$TCTX File=DBD$FMT_KN.:E05TSI                              TUE 07/29/97 13:06 Page:183
     1092    12706
     1093    12707        %EJECT;
PL6.E3A0      #005=DBD$TCTX File=DBD$FMT_KN.:E05TSI                              TUE 07/29/97 13:06 Page:184
     1094    12708    1   DISP_TCTX: PROC ALTRET;
     1095    12709    2      IF THIS_TCTX$ < DBD_BOBCAT$
     1096    12710    3      THEN DO;
     1097    12711    3           IF (THIS_TCTX$ > DBD_FEPCTX_MAX#) THEN GOTO REPORT_BAD_TCTX;
     1098    12712    3           THIS_TCTX$ = DBD_FEPCTX_START$ + (TCTX_SIZE *(THIS_TCTX$-1));
     1099    12713    3           END;
     1100    12714
     1101    12715    2      IF (THIS_TCTX$ < DBD_FEPCTX_START$) OR (THIS_TCTX$ > DBD_FEPCTX_END$)
     1102    12716    3      THEN DO;
     1103    12717    3   REPORT_BAD_TCTX: ;
     1104    12718    3           CALL DAF$WRITE(VECTOR(BAD_TCTX_ADDR));
     1105    12719    3           ALTRETURN;
     1106    12720    3           END;
     1107    12721
     1108    12722    2      CALL DBM$GETMEM(THIS_TCTX$,K$TCTX,0,SIZEC(K$TCTX),,SIZEC(K$TCTX))
     1109    12723    3      WHENALTRETURN DO; RETURN; END;
     1110    12724
     1111    12725    2      CALL DBM$PACK1(K$TCTX.STATE,STATE);
     1112    12726    2      CALL DBM$PACK2(K$TCTX.FLAGS,FLAGS);
     1113    12727    2      CALL DBM$PACK2(K$TCTX.SEND_BUFF.BYTES_CUR,BUF_BYT);
     1114    12728    2      CALL DBM$PACK2(K$TCTX.RECV_BUFF.BYTES_CUR,TEMP);
     1115    12729    2      BUF_BYT = BUF_BYT + TEMP;
     1116    12730
     1117    12731    2      IF (ACTION=1/*display only in use*/)
     1118    12732    3      THEN DO;
     1119    12733    3           IF STATE=%K_TSTATE_NULL OR STATE=%K_TSTATE_CLOSED THEN RETURN;
     1120    12734    3           END;
     1121    12735
     1122    12736    2      IF HEADER0 = 0
     1123    12737    3      THEN DO;
     1124    12738    3           CALL DAF$INIT(TCTXRPT1);
     1125    12739    3           HEADER0 = 1;
     1126    12740    3           END;
     1127    12741
     1128    12742    2      IF K$TCTX.FLAGS.PRIMARY
     1129    12743    3      THEN DO;
     1130    12744    3           CALL DAF$WRITE(VECTOR(TCTX_FMT1),
PL6.E3A0      #005=DBD$TCTX File=DBD$FMT_KN.:E05TSI                              TUE 07/29/97 13:06 Page:185
     1131    12745    3             VECTOR(THIS_TCTX$),
     1132    12746    3             VECTOR(K$TCTX.SRC_REF),
     1133    12747    3             VECTOR(K_TCTX_STATE(STATE)),
     1134    12748    3             VECTOR(K$TCTX.NODE),
     1135    12749    3             VECTOR(K$TCTX.DST_REF),
     1136    12750    3             VECTOR(K$TCTX.SEND_NEXT),
     1137    12751    3             VECTOR(K$TCTX.RECV_NEXT),
     1138    12752    3             VECTOR(K$TCTX.QOS),
     1139    12753    3             VECTOR(K$TCTX.CLASS),
     1140    12754    3             VECTOR(FLAGS),
     1141    12755    3             VECTOR(BUF_BYT),
     1142    12756    3             VECTOR(K$TCTX.REASON),
     1143    12757    3             VECTOR(K$TCTX.ERR)  );
     1144    12758    3           END/*do if primary*/;
     1145    12759    3      ELSE DO;
     1146    12760    3           IF K$TCTX.OPTION.OSI
     1147    12761    4           THEN DO;
     1148    12762    4                CALL DAF$WRITE(VECTOR(TCTX_FMT1Y),
     1149    12763    4                  VECTOR(THIS_TCTX$),
     1150    12764    4                  VECTOR(K$TCTX.SRC_REF),
     1151    12765    4                  VECTOR(K_TCTX_STATE(STATE)),
     1152    12766    4                  VECTOR(K$TCTX.HOST_NODE),
     1153    12767    4                  VECTOR(BLANK3),
     1154    12768    4                  VECTOR(K$TCTX.HOST_REF),
     1155    12769    4                  VECTOR(K$TCTX.DST_REF),
     1156    12770    4                  VECTOR(K$TCTX.SEND_NEXT),
     1157    12771    4                  VECTOR(K$TCTX.RECV_NEXT),
     1158    12772    4                  VECTOR(K$TCTX.QOS),
     1159    12773    4                  VECTOR(K$TCTX.CLASS),
     1160    12774    4                  VECTOR(FLAGS),
     1161    12775    4                  VECTOR(BUF_BYT),
     1162    12776    4                  VECTOR(K$TCTX.REASON),
     1163    12777    4                  VECTOR(K$TCTX.ERR) );
     1164    12778    4                END/*do if osi intermediate*/;
     1165    12779    4           ELSE DO;
     1166    12780    4                CALL DAF$WRITE(VECTOR(TCTX_FMT1X),
     1167    12781    4                  VECTOR(THIS_TCTX$),
PL6.E3A0      #005=DBD$TCTX File=DBD$FMT_KN.:E05TSI                              TUE 07/29/97 13:06 Page:186
     1168    12782    4                  VECTOR(K$TCTX.SRC_REF),
     1169    12783    4                  VECTOR(K_TCTX_STATE(STATE)),
     1170    12784    4                  VECTOR(K$TCTX.HOST_NODE),
     1171    12785    4                  VECTOR(K$TCTX.NODE),
     1172    12786    4                  VECTOR(K$TCTX.HOST_REF),
     1173    12787    4                  VECTOR(K$TCTX.DST_REF),
     1174    12788    4                  VECTOR(K$TCTX.SEND_NEXT),
     1175    12789    4                  VECTOR(K$TCTX.RECV_NEXT),
     1176    12790    4                  VECTOR(K$TCTX.QOS),
     1177    12791    4                  VECTOR(K$TCTX.CLASS),
     1178    12792    4                  VECTOR(FLAGS),
     1179    12793    4                  VECTOR(BUF_BYT),
     1180    12794    4                  VECTOR(K$TCTX.REASON),
     1181    12795    4                  VECTOR(K$TCTX.ERR) );
     1182    12796    4                END/*do if cp6 intermediate*/;
     1183    12797    3           END/* do if intermediate*/;
     1184    12798
     1185    12799    2   END DISP_TCTX;
     1186    12800
     1187    12801    1   END DBD$TCTX;

PL6.E3A0      #005=DBD$TCTX File=DBD$FMT_KN.:E05TSI                              TUE 07/29/97 13:06 Page:187
--  Include file information  --

   DB_PERR_C.:E05TOU  is referenced.
   DA_ANLZ_R.:E05TOU  cannot be made into a system file and is referenced.
   XU_MACRO_C.:E05TOU  is referenced.
   DA_FORMAT_C.:E05TOU  is referenced.
   K_ADDRESS_M.:E05TOU  is referenced.
   KN_DATA_M.:E05TOU  is referenced.
   G$BOBCAT_M.:E05TOU  is referenced.
   GH_SCHD_M.:E05TOU  is referenced.
   CP_6_C.:E05TOU  is referenced.
   CP_6.:E05TOU  cannot be made into a system file and is referenced.
      No diagnostics issued in procedure DBD$TCTX.

   Procedure DBD$TCTX requires 641 words for executable code.
   Procedure DBD$TCTX requires 268 words of local(AUTO) storage.

    No errors detected in file DBD$FMT_KN.:E05TSI    .

PL6.E3A0      #005=DBD$TCTX File=DBD$FMT_KN.:E05TSI                              TUE 07/29/97 13:06 Page:188

 Object Unit name= DBD$TCTX                                   File name= DBD$FMT_KN.:E05TOU
 UTS= JUL 29 '97 13:06:50.76 TUE                              Compiler= PL-6/E31         Sev=      00
 SharedLib= :SHARED_SYSTEM                                    Alt SharedLib=


    ****  Control sections  ****

 Sect   Type Bound  Init  Size OctSiz  Section name(segment info)
    0   DCB   even  none     0      0  M$UC
    1   Data  even  none    89    131  DBD$TCTX
    2  RoData even  UTS     76    114  DBD$TCTX
    3   DCB   even  none     0      0  M$DO
    4   Proc  even  none   641   1201  DBD$TCTX
    5  RoData even  none    39     47  DBD$TCTX

    ****  Entry defs  ****

                              Check   Calling
                             calling  sequence
  Sect OctLoc Primary Altret sequence   type   Parms  Name
     4      0   yes            yes      Std        1  DBD$TCTX
     4      4                  yes      Std        1  DBD$TCTX_CHECK
PL6.E3A0      #005=DBD$TCTX File=DBD$FMT_KN.:E05TSI                              TUE 07/29/97 13:06 Page:189

  ****  Entry refs  ****

         Check        Calling
        calling       sequence
Altret sequence SRef   type   Args  Name
 yes     yes           Std       1 DBM$GETBOBCAT
         yes           Std       2 DBM$PACK4
 yes     yes           Std      10 DBM$GETMEM
 yes     yes           Std       2 DBD$KNINFO
 yes     yes           Std       3 DAA$VALUE
         yes           Std       2 DBM$PACK1
         yes           Std       2 DBM$PACK2
 yes     yes           Std       1 DAF$INIT
                       nStd      0 X66_AUTO_1
                       Std       0 B_CONSPOOL_D
                       nStd      0 X66_ARET

  ****  Data refs  ****

  Flags:  r = read only, s = secondary
Flgs Name                             Flgs Name                             Flgs Name
     M$UC                                  DAF$WRITE                             DBD_BOBCAT$
     DBD_FEPCTX_START$                     DBD_FEPCTX_END$                       DBD_FEPCTX_MAX#
     M$DO                                  B_VECTNIL

  ****  Segment refs  ****

  Flags:  r = read only, s = secondary
Flgs Name                             Flgs Name                             Flgs Name
     ISSID                                 NULLSID
PL6.E3A0      #005=DBD$TCTX File=DBD$FMT_KN.:E05TSI                              TUE 07/29/97 13:06 Page:190


      938        1        /*T***********************************************************/
      939        2        /*T*                                                         */
      940        3        /*T* Copyright (c) Bull HN Information Systems Inc., 1997    */
      941        4        /*T*                                                         */
      942        5        /*T***********************************************************/
      943        6        /*F*    NAME: DBD$TCTX
      944        7                PURPOSE: To process the TCTX command for FEPs.
      945        8
      946        9        */
      947       10        DBD$TCTX: PROC(TOP);

     10  4 000000   000000 700200 xent  DBD$TCTX     TSX0  ! X66_AUTO_1
         4 000001   000414 000001                    ZERO    268,1

      948       11
      949       12        /*X* PLM=3,IND=5,ECU=0,ENU=0,MOC   */
      950       13
      951       14        %INCLUDE CP_6;
      952     5573        %INCLUDE GH_SCHD_M;
      953     5717        %INCLUDE G$BOBCAT_M;
      954     5737        %INCLUDE KN_DATA_M;
      955     7523        %INCLUDE K_ADDRESS_M;
      956     8026        %INCLUDE DA_FORMAT_C;
      957     8268        %INCLUDE XU_MACRO_C;
      958    11374        %INCLUDE DA_ANLZ_R;
      959    11387        %INCLUDE DB_PERR_C;
      960    11405
      961    11406        %PARSE$OUT (NAME=TOP,STCLASS=PARAM);
      962    11451        %PARSE$OUT (NAME=OUT,STCLASS=BASED);
      963    11496
      964    11497    1   DCL DAA$VALUE ENTRY(3) ALTRET;
      965    11498    1   DCL DAF$WRITE EPTR SYMREF;
      966    11499    1   DCL DAF$INIT ENTRY(1) ALTRET;
      967    11500    1   DCL DBB$HEXDUMP ENTRY(4);
      968    11501    1   DCL DBM$GETMEM ENTRY(10) ALTRET;
      969    11502    1   DCL DBM$GETBOBCAT ENTRY(1) ALTRET;
PL6.E3A0      #005=DBD$TCTX File=DBD$FMT_KN.:E05TSI                              TUE 07/29/97 13:06 Page:191
      970    11503    1   DCL DBM$PACK1 ENTRY(2);
      971    11504    1   DCL DBM$PACK2 ENTRY(2);
      972    11505    1   DCL DBM$PACK4 ENTRY(2);
      973    11506    1   DCL DBD$KNINFO ENTRY(2) ALTRET;
      974    11507
      975    11508
      976    11509       %REPORT (NAME=TCTXRPT1,TRUNC=YES,TABDFLT=5,HEADER=YES,TITLE='FEP Transport Context')
             11509            ;
      977    11575        %HEADER (LAST=NO,TEXT=
      978    11576        'TCTX$  TCTX# STATE     NODES  DST_REF SENDN RECVN QOS CLASS FLAGS BufBy RSN ERR');
      979    11618        %HEADER (TEXT=
      980    11619       '------ ----- -------- ------- ------- ----- ----- ---- ----- ----- ----- --- ---');
      981    11661    1   DCL 1 TCTX_FMT1 CHAR(0) CONSTANT INIT(
      982    11662    1  '.%5ZH %@5.16D %A %@7.8D %@7.16D %@5.32D %@5.32D %@4.8D %@5.8D .%4ZH %5D %@3.8D %@3.
             11662        8D');
      983    11663
      984    11664    1   DCL 1 TCTX_FMT1X CHAR(0) CONSTANT INIT(
      985    11665    1   '.%5ZH %@5.16D %A %@3.8D-%@3.8D %@3.16D-%@3.16D %@5.32D %@5.32D %@4.8D %@5.8D .%4ZH
             11665        %5D %@3.8D %@3.8D');
      986    11666
      987    11667    1   DCL 1 TCTX_FMT1Y CHAR(0) CONSTANT INIT(
      988    11668    1   '.%5ZH %@5.16D %A %@3.8D-%A %@3.16D-%@3.16D %@5.32D %@5.32D %@4.8D %@5.8D .%4ZH %5D
             11668        %@3.8D %@3.8D');
      989    11669
      990    11670        %K_TCTX_ST_TXT (FPTN=K_TCTX_STATE, STCLASS=STATIC);
      991    11687
      992    11688    1   DCL BAD_TCTX_ADDR CHAR(0) CONSTANT INIT(
      993    11689    1      'Invalid TCTX address');
      994    11690
      995    11691    1   DCL BLANK3 CHAR(3) STATIC INIT('   ');
      996    11692        /* AUTO Storage */
      997    11693        %G$BOBCAT (FPTN=G$BOBCAT,STCLASS=AUTO);
      998    11706        %K$TCTX (NAME=K$TCTX,STCLASS=AUTO,ALGN=CALIGNED);
      999    12613
     1000    12614    1   DCL I SBIN;
     1001    12615    1   DCL X UBIN;
     1002    12616    1   DCL RADIX UBIN;
PL6.E3A0      #005=DBD$TCTX File=DBD$FMT_KN.:E05TSI                              TUE 07/29/97 13:06 Page:192
     1003    12617
     1004    12618    1   DCL TCTX_DATA$ UBIN;
     1005    12619    1   DCL THIS_TCTX$ UBIN;
     1006    12620    1   DCL TCTX_$$ UBIN;
     1007    12621    1   DCL TCTX_SIZE UBIN;
     1008    12622    1   DCL STATE UBIN;
     1009    12623    1   DCL FLAGS UBIN;
     1010    12624    1   DCL BUF_BYT UBIN;
     1011    12625    1   DCL TEMP UBIN;
     1012    12626    1   DCL ACTION UBIN;              /* 0 = display all     1 = display if in use    */
     1013    12627    1   DCL ENTRY_TYPE UBIN;          /* 0 = display TCTXs     1 = check TCTX chain*/
     1014    12628    1   DCL HEADER0 UBIN;
     1015    12629    1   DCL HEADER1 UBIN;
     1016    12630
     1017    12631    1   DCL 1 TCTXFLG,
     1018    12632    1         2 F BIT(9) UNAL,
     1019    12633    1         2 * BIT(27) UNAL;
     1020    12634
     1021    12635    1   DCL DBD_BOBCAT$ UBIN SYMREF;
     1022    12636
     1023    12637    1   DCL DBD_FEPCTX_START$ UBIN SYMREF;
     1024    12638    1   DCL DBD_FEPCTX_END$ UBIN SYMREF;
     1025    12639    1   DCL DBD_FEPCTX_MAX# UBIN SYMREF;
     1026    12640
     1027    12641    1   DCL B$1WORD UBIN BASED;
     1028    12642    1   DCL M$DO DCB;
     1029    12643
     1030    12644        %EJECT;
PL6.E3A0      #005=DBD$TCTX File=DBD$FMT_KN.:E05TSI                              TUE 07/29/97 13:06 Page:193
     1031    12645    1      ENTRY_TYPE=0/*display TCTXs*/;

  12645  4 000002   200235 450100                    STZ     ENTRY_TYPE,,AUTO

     1032    12646    1      GOTO TCTX_START;

  12646  4 000003   000010 710000 4                  TRA     TCTX_START

     1033    12647
     1034    12648    1   DBD$TCTX_CHECK: ENTRY(TOP);

  12648  4 000004   000000 700200 xent  DBD$TCTX_CH* TSX0  ! X66_AUTO_1
         4 000005   000414 000001                    ZERO    268,1

     1035    12649    1      ENTRY_TYPE=1/*check TCTX chain*/;

  12649  4 000006   000001 235007                    LDA     1,DL
         4 000007   200235 755100                    STA     ENTRY_TYPE,,AUTO

  12649  4 000010                       TCTX_START   null
     1036    12650
     1037    12651    1   TCTX_START: ;
     1038    12652    1      HEADER0 = 0;

  12652  4 000010   200236 450100                    STZ     HEADER0,,AUTO

     1039    12653    1      TCTX_SIZE = (SIZEC(K$TCTX)+1)/2;

  12653  4 000011   000260 235007                    LDA     176,DL
         4 000012   200227 755100                    STA     TCTX_SIZE,,AUTO

     1040    12654    1      CALL DBM$GETBOBCAT(G$BOBCAT)

  12654  4 000013   200004 630500                    EPPR0   G$BOBCAT,,AUTO
         4 000014   200244 450500                    STP0    HEADER0+6,,AUTO
         4 000015   200244 630500                    EPPR0   HEADER0+6,,AUTO
         4 000016   000017 631400 xsym               EPPR1   B_VECTNIL+15
PL6.E3A0      #005=DBD$TCTX File=DBD$FMT_KN.:E05TSI                              TUE 07/29/97 13:06 Page:194
         4 000017   000000 701000 xent               TSX1    DBM$GETBOBCAT
         4 000020   000022 702000 4                  TSX2    s:12655
         4 000021   000023 710000 4                  TRA     s:12657

     1041    12655    2      WHENALTRETURN DO; RETURN; END;

  12655  4 000022   000000 702200 xent               TSX2  ! X66_ARET

     1042    12656
     1043    12657    1      CALL DBM$PACK4(G$BOBCAT.TCTXDATA$,TCTX_DATA$);

  12657  4 000023   200224 630500                    EPPR0   TCTX_DATA$,,AUTO
         4 000024   200245 450500                    STP0    HEADER0+7,,AUTO
         4 000025   200043 631500                    EPPR1   G$BOBCAT+31,,AUTO
         4 000026   200244 451500                    STP1    HEADER0+6,,AUTO
         4 000027   200244 630500                    EPPR0   HEADER0+6,,AUTO
         4 000030   000020 631400 xsym               EPPR1   B_VECTNIL+16
         4 000031   000000 701000 xent               TSX1    DBM$PACK4
         4 000032   000000 011000                    NOP     0

     1044    12658    1      CALL DBM$PACK4(G$BOBCAT.TCTX$$,TCTX_$$);

  12658  4 000033   200226 630500                    EPPR0   TCTX_$$,,AUTO
         4 000034   200245 450500                    STP0    HEADER0+7,,AUTO
         4 000035   200033 631500                    EPPR1   G$BOBCAT+23,,AUTO
         4 000036   200244 451500                    STP1    HEADER0+6,,AUTO
         4 000037   200244 630500                    EPPR0   HEADER0+6,,AUTO
         4 000040   000020 631400 xsym               EPPR1   B_VECTNIL+16
         4 000041   000000 701000 xent               TSX1    DBM$PACK4
         4 000042   000000 011000                    NOP     0

     1045    12659
     1046    12660    1      CALL DBD$KNINFO(TCTX_DATA$,0);

  12660  4 000043   000000 236000 5                  LDQ     0
         4 000044   200245 756100                    STQ     HEADER0+7,,AUTO
         4 000045   200224 630500                    EPPR0   TCTX_DATA$,,AUTO
PL6.E3A0      #005=DBD$TCTX File=DBD$FMT_KN.:E05TSI                              TUE 07/29/97 13:06 Page:195
         4 000046   200244 450500                    STP0    HEADER0+6,,AUTO
         4 000047   200244 630500                    EPPR0   HEADER0+6,,AUTO
         4 000050   000020 631400 xsym               EPPR1   B_VECTNIL+16
         4 000051   000000 701000 xent               TSX1    DBD$KNINFO
         4 000052   000000 011000                    NOP     0

     1047    12661
     1048    12662    1      IF (ENTRY_TYPE=1/*if check*/)

  12662  4 000053   200235 235100                    LDA     ENTRY_TYPE,,AUTO
         4 000054   000001 115007                    CMPA    1,DL
         4 000055   000067 601000 4                  TNZ     DISPLAY_ALL

     1049    12663    2      THEN DO;

     1050    12664    2           CALL DBD$KNINFO(TCTX_DATA$,1);

  12664  4 000056   000001 236000 5                  LDQ     1
         4 000057   200245 756100                    STQ     HEADER0+7,,AUTO
         4 000060   200224 630500                    EPPR0   TCTX_DATA$,,AUTO
         4 000061   200244 450500                    STP0    HEADER0+6,,AUTO
         4 000062   200244 630500                    EPPR0   HEADER0+6,,AUTO
         4 000063   000020 631400 xsym               EPPR1   B_VECTNIL+16
         4 000064   000000 701000 xent               TSX1    DBD$KNINFO
         4 000065   000000 011000                    NOP     0

     1051    12665    2           RETURN;

  12665  4 000066   000000 702200 xent               TSX2  ! X66_ARET

  12662  4 000067                       DISPLAY_ALL  null
     1052    12666    2           END/*do if check*/;
     1053    12667
     1054    12668        %EJECT;
PL6.E3A0      #005=DBD$TCTX File=DBD$FMT_KN.:E05TSI                              TUE 07/29/97 13:06 Page:196
     1055    12669    1   DISPLAY_ALL: ;
     1056    12670    1      IF TOP.NSUBLKS=0

  12670  4 000067   200003 470500                    LDP0    @TOP,,AUTO
         4 000070   000001 220100                    LDX0    1,,PR0
         4 000071   000141 601000 4                  TNZ     s:12683

     1057    12671    2      THEN DO;

     1058    12672    2           ACTION=1/*display all in use*/;

  12672  4 000072   000001 236007                    LDQ     1,DL
         4 000073   200234 756100                    STQ     ACTION,,AUTO

     1059    12673    3           DO I=0 TO DBD_FEPCTX_MAX#;

  12673  4 000074   200221 450100                    STZ     I,,AUTO
         4 000075   000134 710000 4                  TRA     s:12679+1

     1060    12674    3                THIS_TCTX$ = TCTX_$$ + (2*I);

  12674  4 000076   200221 236100                    LDQ     I,,AUTO
         4 000077   000001 736000                    QLS     1
         4 000100   200226 036100                    ADLQ    TCTX_$$,,AUTO
         4 000101   200225 756100                    STQ     THIS_TCTX$,,AUTO

     1061    12675    3                CALL DBM$GETMEM(THIS_TCTX$,THIS_TCTX$,0,4,,4);

  12675  4 000102   000002 236000 5                  LDQ     2
         4 000103   000001 235000 xsym               LDA     B_VECTNIL+1
         4 000104   200250 757100                    STAQ    HEADER0+10,,AUTO
         4 000105   000004 237000 5                  LDAQ    4
         4 000106   200246 757100                    STAQ    HEADER0+8,,AUTO
         4 000107   200225 630500                    EPPR0   THIS_TCTX$,,AUTO
         4 000110   200245 450500                    STP0    HEADER0+7,,AUTO
         4 000111   200225 631500                    EPPR1   THIS_TCTX$,,AUTO
         4 000112   200244 451500                    STP1    HEADER0+6,,AUTO
PL6.E3A0      #005=DBD$TCTX File=DBD$FMT_KN.:E05TSI                              TUE 07/29/97 13:06 Page:197
         4 000113   200244 630500                    EPPR0   HEADER0+6,,AUTO
         4 000114   000024 631400 xsym               EPPR1   B_VECTNIL+20
         4 000115   000000 701000 xent               TSX1    DBM$GETMEM
         4 000116   000000 011000                    NOP     0

     1062    12676    3                CALL DBM$PACK4(THIS_TCTX$,THIS_TCTX$);

  12676  4 000117   200225 630500                    EPPR0   THIS_TCTX$,,AUTO
         4 000120   200245 450500                    STP0    HEADER0+7,,AUTO
         4 000121   200225 631500                    EPPR1   THIS_TCTX$,,AUTO
         4 000122   200244 451500                    STP1    HEADER0+6,,AUTO
         4 000123   200244 630500                    EPPR0   HEADER0+6,,AUTO
         4 000124   000020 631400 xsym               EPPR1   B_VECTNIL+16
         4 000125   000000 701000 xent               TSX1    DBM$PACK4
         4 000126   000000 011000                    NOP     0

     1063    12677    3                IF THIS_TCTX$ ~= 0

  12677  4 000127   200225 235100                    LDA     THIS_TCTX$,,AUTO
         4 000130   000133 600000 4                  TZE     s:12679

     1064    12678    3                THEN CALL DISP_TCTX;

  12678  4 000131   000212 701000 4                  TSX1    DISP_TCTX
         4 000132   000000 011000                    NOP     0

     1065    12679    3                END;

  12679  4 000133   200221 054100                    AOS     I,,AUTO
         4 000134   000000 236000 xsym               LDQ     DBD_FEPCTX_MAX#
         4 000135   000076 604000 4                  TMI     s:12674
         4 000136   200221 116100                    CMPQ    I,,AUTO
         4 000137   000076 605000 4                  TPL     s:12674

     1066    12680    2           END;

  12680  4 000140   000211 710000 4                  TRA     s:12705
PL6.E3A0      #005=DBD$TCTX File=DBD$FMT_KN.:E05TSI                              TUE 07/29/97 13:06 Page:198

     1067    12681
     1068    12682    2      ELSE DO;

     1069    12683    3           DO X=0 TO TOP.NSUBLKS-1;

  12683  4 000141   200222 450100                    STZ     X,,AUTO
         4 000142   000203 710000 4                  TRA     s:12701+3

     1070    12684    3                CALL DAA$VALUE(TOP.SUBLK$(X)->OUT,THIS_TCTX$)

  12684  4 000143   200003 470500                    LDP0    @TOP,,AUTO
         4 000144   200222 720100                    LXL0    X,,AUTO
         4 000145   000003 471510                    LDP1    3,X0,PR0
         4 000146   200225 633500                    EPPR3   THIS_TCTX$,,AUTO
         4 000147   200245 453500                    STP3    HEADER0+7,,AUTO
         4 000150   200244 451500                    STP1    HEADER0+6,,AUTO
         4 000151   200244 630500                    EPPR0   HEADER0+6,,AUTO
         4 000152   000020 631400 xsym               EPPR1   B_VECTNIL+16
         4 000153   000000 701000 xent               TSX1    DAA$VALUE
         4 000154   000200 702000 4                  TSX2    s:12701

     1071    12685    4                WHENRETURN DO;

     1072    12686    4                     IF THIS_TCTX$ = 0

  12686  4 000155   200225 235100                    LDA     THIS_TCTX$,,AUTO
         4 000156   000176 601000 4                  TNZ     s:12696

     1073    12687    5                     THEN DO;

     1074    12688    5                          ACTION=0/*display all*/;

  12688  4 000157   200234 450100                    STZ     ACTION,,AUTO

     1075    12689    6                          DO I=0 TO DBD_FEPCTX_MAX# -1;

PL6.E3A0      #005=DBD$TCTX File=DBD$FMT_KN.:E05TSI                              TUE 07/29/97 13:06 Page:199
  12689  4 000160   200221 450100                    STZ     I,,AUTO
         4 000161   000171 710000 4                  TRA     s:12692+1

     1076    12690    6                               THIS_TCTX$ = DBD_FEPCTX_START$ + (TCTX_SIZE *I);

  12690  4 000162   200227 236100                    LDQ     TCTX_SIZE,,AUTO
         4 000163   200221 402100                    MPY     I,,AUTO
         4 000164   000000 036000 xsym               ADLQ    DBD_FEPCTX_START$
         4 000165   200225 756100                    STQ     THIS_TCTX$,,AUTO

     1077    12691    6                               CALL DISP_TCTX;

  12691  4 000166   000212 701000 4                  TSX1    DISP_TCTX
         4 000167   000000 011000                    NOP     0

     1078    12692    6                               END;

  12692  4 000170   200221 054100                    AOS     I,,AUTO
         4 000171   200221 236100                    LDQ     I,,AUTO
         4 000172   000162 604000 4                  TMI     s:12690
         4 000173   000000 116000 xsym               CMPQ    DBD_FEPCTX_MAX#
         4 000174   000162 602000 4                  TNC     s:12690

     1079    12693    5                          RETURN;

  12693  4 000175   000000 702200 xent               TSX2  ! X66_ARET

     1080    12694    5                          END;
     1081    12695
     1082    12696    4                     CALL DISP_TCTX

  12696  4 000176   000212 701000 4                  TSX1    DISP_TCTX
         4 000177   000200 702000 4                  TSX2    s:12701

     1083    12697    5                     WHENRETURN DO;

     1084    12698    5                          END/*return from disp_iop*/;
PL6.E3A0      #005=DBD$TCTX File=DBD$FMT_KN.:E05TSI                              TUE 07/29/97 13:06 Page:200

     1085    12699    4                     END/*return from daa$value*/;

     1086    12700
     1087    12701    3                END/*do X=0 to nsublks-1*/;

  12701  4 000200   200222 235100                    LDA     X,,AUTO
         4 000201   000001 035007                    ADLA    1,DL
         4 000202   200222 755100                    STA     X,,AUTO
         4 000203   200003 470500                    LDP0    @TOP,,AUTO
         4 000204   000001 236100                    LDQ     1,,PR0
         4 000205   000022 772000                    QRL     18
         4 000206   200222 116100                    CMPQ    X,,AUTO
         4 000207   000211 600000 4                  TZE     s:12705
         4 000210   000143 603000 4                  TRC     s:12684

     1088    12702    2           END/*else do*/;

     1089    12703
     1090    12704
     1091    12705    1      RETURN;

  12705  4 000211   000000 702200 xent               TSX2  ! X66_ARET

     1092    12706
     1093    12707        %EJECT;
PL6.E3A0      #005=DBD$TCTX File=DBD$FMT_KN.:E05TSI                              TUE 07/29/97 13:06 Page:201
     1094    12708    1   DISP_TCTX: PROC ALTRET;

  12708  4 000212   200242 741300       DISP_TCTX    STX1  ! HEADER0+4,,AUTO

     1095    12709    2      IF THIS_TCTX$ < DBD_BOBCAT$

  12709  4 000213   200225 236100                    LDQ     THIS_TCTX$,,AUTO
         4 000214   000000 116000 xsym               CMPQ    DBD_BOBCAT$
         4 000215   000225 603000 4                  TRC     s:12715

     1096    12710    3      THEN DO;

     1097    12711    3           IF (THIS_TCTX$ > DBD_FEPCTX_MAX#) THEN GOTO REPORT_BAD_TCTX;

  12711  4 000216   000000 116000 xsym               CMPQ    DBD_FEPCTX_MAX#
         4 000217   000221 600000 4                  TZE     s:12712
         4 000220   000232 603000 4                  TRC     REPORT_BAD_TCTX

     1098    12712    3           THIS_TCTX$ = DBD_FEPCTX_START$ + (TCTX_SIZE *(THIS_TCTX$-1));

  12712  4 000221   000001 136007                    SBLQ    1,DL
         4 000222   200227 402100                    MPY     TCTX_SIZE,,AUTO
         4 000223   000000 036000 xsym               ADLQ    DBD_FEPCTX_START$
         4 000224   200225 756100                    STQ     THIS_TCTX$,,AUTO

     1099    12713    3           END;

     1100    12714
     1101    12715    2      IF (THIS_TCTX$ < DBD_FEPCTX_START$) OR (THIS_TCTX$ > DBD_FEPCTX_END$)

  12715  4 000225   000000 116000 xsym               CMPQ    DBD_FEPCTX_START$
         4 000226   000232 602000 4                  TNC     REPORT_BAD_TCTX
         4 000227   000000 116000 xsym               CMPQ    DBD_FEPCTX_END$
         4 000230   000241 602000 4                  TNC     s:12722
         4 000231   000241 600000 4                  TZE     s:12722

     1102    12716    3      THEN DO;
PL6.E3A0      #005=DBD$TCTX File=DBD$FMT_KN.:E05TSI                              TUE 07/29/97 13:06 Page:202

  12712  4 000232                       REPORT_BAD_* null
     1103    12717    3   REPORT_BAD_TCTX: ;
     1104    12718    3           CALL DAF$WRITE(VECTOR(BAD_TCTX_ADDR));

  12718  4 000232   000010 630400 5                  EPPR0   8
         4 000233   000000 220000 xsym               LDX0    DAF$WRITE
         4 000234   000017 631400 xsym               EPPR1   B_VECTNIL+15
         4 000235   000000 701010                    TSX1    0,X0
         4 000236   000000 011000                    NOP     0

     1105    12719    3           ALTRETURN;

  12719  4 000237   200242 221300                    LDX1  ! HEADER0+4,,AUTO
         4 000240   000000 702211                    TSX2  ! 0,X1

     1106    12720    3           END;
     1107    12721
     1108    12722    2      CALL DBM$GETMEM(THIS_TCTX$,K$TCTX,0,SIZEC(K$TCTX),,SIZEC(K$TCTX))

  12722  4 000241   000012 236000 5                  LDQ     10
         4 000242   000001 235000 xsym               LDA     B_VECTNIL+1
         4 000243   200250 757100                    STAQ    HEADER0+10,,AUTO
         4 000244   000014 237000 5                  LDAQ    12
         4 000245   200246 757100                    STAQ    HEADER0+8,,AUTO
         4 000246   200071 630500                    EPPR0   K$TCTX,,AUTO
         4 000247   200245 450500                    STP0    HEADER0+7,,AUTO
         4 000250   200225 631500                    EPPR1   THIS_TCTX$,,AUTO
         4 000251   200244 451500                    STP1    HEADER0+6,,AUTO
         4 000252   200244 630500                    EPPR0   HEADER0+6,,AUTO
         4 000253   000024 631400 xsym               EPPR1   B_VECTNIL+20
         4 000254   000000 701000 xent               TSX1    DBM$GETMEM
         4 000255   000257 702000 4                  TSX2    s:12723
         4 000256   000261 710000 4                  TRA     s:12725

     1109    12723    3      WHENALTRETURN DO; RETURN; END;

PL6.E3A0      #005=DBD$TCTX File=DBD$FMT_KN.:E05TSI                              TUE 07/29/97 13:06 Page:203
  12723  4 000257   200242 221300                    LDX1  ! HEADER0+4,,AUTO
         4 000260   000001 702211                    TSX2  ! 1,X1

     1110    12724
     1111    12725    2      CALL DBM$PACK1(K$TCTX.STATE,STATE);

  12725  4 000261   200230 630500                    EPPR0   STATE,,AUTO
         4 000262   200245 450500                    STP0    HEADER0+7,,AUTO
         4 000263   200071 631500                    EPPR1   K$TCTX,,AUTO
         4 000264   200244 451500                    STP1    HEADER0+6,,AUTO
         4 000265   200244 630500                    EPPR0   HEADER0+6,,AUTO
         4 000266   000020 631400 xsym               EPPR1   B_VECTNIL+16
         4 000267   000000 701000 xent               TSX1    DBM$PACK1
         4 000270   000000 011000                    NOP     0

     1112    12726    2      CALL DBM$PACK2(K$TCTX.FLAGS,FLAGS);

  12726  4 000271   200231 630500                    EPPR0   FLAGS,,AUTO
         4 000272   200245 450500                    STP0    HEADER0+7,,AUTO
         4 000273   200246 452500                    STP2    HEADER0+8,,AUTO
         4 000274   200246 236100                    LDQ     HEADER0+8,,AUTO
         4 000275   000016 036000 5                  ADLQ    14
         4 000276   200244 756100                    STQ     HEADER0+6,,AUTO
         4 000277   200244 630500                    EPPR0   HEADER0+6,,AUTO
         4 000300   000020 631400 xsym               EPPR1   B_VECTNIL+16
         4 000301   000000 701000 xent               TSX1    DBM$PACK2
         4 000302   000000 011000                    NOP     0

     1113    12727    2      CALL DBM$PACK2(K$TCTX.SEND_BUFF.BYTES_CUR,BUF_BYT);

  12727  4 000303   200232 630500                    EPPR0   BUF_BYT,,AUTO
         4 000304   200245 450500                    STP0    HEADER0+7,,AUTO
         4 000305   200121 631500                    EPPR1   K$TCTX+24,,AUTO
         4 000306   200244 451500                    STP1    HEADER0+6,,AUTO
         4 000307   200244 630500                    EPPR0   HEADER0+6,,AUTO
         4 000310   000020 631400 xsym               EPPR1   B_VECTNIL+16
         4 000311   000000 701000 xent               TSX1    DBM$PACK2
PL6.E3A0      #005=DBD$TCTX File=DBD$FMT_KN.:E05TSI                              TUE 07/29/97 13:06 Page:204
         4 000312   000000 011000                    NOP     0

     1114    12728    2      CALL DBM$PACK2(K$TCTX.RECV_BUFF.BYTES_CUR,TEMP);

  12728  4 000313   200233 630500                    EPPR0   TEMP,,AUTO
         4 000314   200245 450500                    STP0    HEADER0+7,,AUTO
         4 000315   200111 631500                    EPPR1   K$TCTX+16,,AUTO
         4 000316   200244 451500                    STP1    HEADER0+6,,AUTO
         4 000317   200244 630500                    EPPR0   HEADER0+6,,AUTO
         4 000320   000020 631400 xsym               EPPR1   B_VECTNIL+16
         4 000321   000000 701000 xent               TSX1    DBM$PACK2
         4 000322   000000 011000                    NOP     0

     1115    12729    2      BUF_BYT = BUF_BYT + TEMP;

  12729  4 000323   200232 236100                    LDQ     BUF_BYT,,AUTO
         4 000324   200233 036100                    ADLQ    TEMP,,AUTO
         4 000325   200232 756100                    STQ     BUF_BYT,,AUTO

     1116    12730
     1117    12731    2      IF (ACTION=1/*display only in use*/)

  12731  4 000326   200234 235100                    LDA     ACTION,,AUTO
         4 000327   000001 115007                    CMPA    1,DL
         4 000330   000337 601000 4                  TNZ     s:12736

     1118    12732    3      THEN DO;

     1119    12733    3           IF STATE=%K_TSTATE_NULL OR STATE=%K_TSTATE_CLOSED THEN RETURN;

  12733  4 000331   200230 235100                    LDA     STATE,,AUTO
         4 000332   000335 600000 4                  TZE     s:12733+4
         4 000333   000002 115007                    CMPA    2,DL
         4 000334   000337 601000 4                  TNZ     s:12736

  12733  4 000335   200242 221300                    LDX1  ! HEADER0+4,,AUTO
         4 000336   000001 702211                    TSX2  ! 1,X1
PL6.E3A0      #005=DBD$TCTX File=DBD$FMT_KN.:E05TSI                              TUE 07/29/97 13:06 Page:205

     1120    12734    3           END;
     1121    12735
     1122    12736    2      IF HEADER0 = 0

  12736  4 000337   200236 235100                    LDA     HEADER0,,AUTO
         4 000340   000347 601000 4                  TNZ     s:12742

     1123    12737    3      THEN DO;

     1124    12738    3           CALL DAF$INIT(TCTXRPT1);

  12738  4 000341   000017 630400 5                  EPPR0   15
         4 000342   000017 631400 xsym               EPPR1   B_VECTNIL+15
         4 000343   000000 701000 xent               TSX1    DAF$INIT
         4 000344   000000 011000                    NOP     0

     1125    12739    3           HEADER0 = 1;

  12739  4 000345   000001 235007                    LDA     1,DL
         4 000346   200236 755100                    STA     HEADER0,,AUTO

     1126    12740    3           END;

     1127    12741
     1128    12742    2      IF K$TCTX.FLAGS.PRIMARY

  12742  4 000347   200077 236100                    LDQ     K$TCTX+6,,AUTO
         4 000350   000001 316007                    CANQ    1,DL
         4 000351   000547 600000 4                  TZE     s:12760

     1129    12743    3      THEN DO;

     1130    12744    3           CALL DAF$WRITE(VECTOR(TCTX_FMT1),
     1131    12745    3             VECTOR(THIS_TCTX$),
     1132    12746    3             VECTOR(K$TCTX.SRC_REF),
     1133    12747    3             VECTOR(K_TCTX_STATE(STATE)),
PL6.E3A0      #005=DBD$TCTX File=DBD$FMT_KN.:E05TSI                              TUE 07/29/97 13:06 Page:206
     1134    12748    3             VECTOR(K$TCTX.NODE),
     1135    12749    3             VECTOR(K$TCTX.DST_REF),
     1136    12750    3             VECTOR(K$TCTX.SEND_NEXT),
     1137    12751    3             VECTOR(K$TCTX.RECV_NEXT),

  12751  4 000352   777640 235007                    LDA     -96,DL
         4 000353   200244 452500                    STP2    HEADER0+6,,AUTO
         4 000354   200244 236100                    LDQ     HEADER0+6,,AUTO
         4 000355   000225 036003                    ADLQ    149,DU
         4 000356   200246 757100                    STAQ    HEADER0+8,,AUTO
         4 000357   377640 235007                    LDA     130976,DL
         4 000360   200250 452500                    STP2    HEADER0+10,,AUTO
         4 000361   200250 236100                    LDQ     HEADER0+10,,AUTO
         4 000362   000072 036003                    ADLQ    58,DU
         4 000363   200252 757100                    STAQ    HEADER0+12,,AUTO
         4 000364   000022 235000 5                  LDA     18
         4 000365   200230 236100                    LDQ     STATE,,AUTO
         4 000366   000023 736000                    QLS     19
         4 000367   000023 036000 5                  ADLQ    19
         4 000370   200254 757100                    STAQ    HEADER0+14,,AUTO
         4 000371   177640 235007                    LDA     65440,DL
         4 000372   200256 452500                    STP2    HEADER0+16,,AUTO
         4 000373   200256 236100                    LDQ     HEADER0+16,,AUTO
         4 000374   000024 036000 5                  ADLQ    20
         4 000375   200260 757100                    STAQ    HEADER0+18,,AUTO
         4 000376   377640 235007                    LDA     130976,DL
         4 000377   200262 452500                    STP2    HEADER0+20,,AUTO
         4 000400   200262 236100                    LDQ     HEADER0+20,,AUTO
         4 000401   000025 036000 5                  ADLQ    21
         4 000402   200264 757100                    STAQ    HEADER0+22,,AUTO
         4 000403   777640 235007                    LDA     -96,DL
         4 000404   200266 452500                    STP2    HEADER0+24,,AUTO
         4 000405   200266 236100                    LDQ     HEADER0+24,,AUTO
         4 000406   000124 036003                    ADLQ    84,DU
         4 000407   200270 757100                    STAQ    HEADER0+26,,AUTO
         4 000410   777640 235007                    LDA     -96,DL
         4 000411   200272 452500                    STP2    HEADER0+28,,AUTO
PL6.E3A0      #005=DBD$TCTX File=DBD$FMT_KN.:E05TSI                              TUE 07/29/97 13:06 Page:207
         4 000412   200272 236100                    LDQ     HEADER0+28,,AUTO
         4 000413   000114 036003                    ADLQ    76,DU
         4 000414   200274 757100                    STAQ    HEADER0+30,,AUTO
         4 000415   177640 235007                    LDA     65440,DL
         4 000416   200276 452500                    STP2    HEADER0+32,,AUTO
         4 000417   200276 236100                    LDQ     HEADER0+32,,AUTO
         4 000420   000026 036000 5                  ADLQ    22
         4 000421   200300 757100                    STAQ    HEADER0+34,,AUTO
         4 000422   177640 235007                    LDA     65440,DL
         4 000423   200302 452500                    STP2    HEADER0+36,,AUTO
         4 000424   200302 236100                    LDQ     HEADER0+36,,AUTO
         4 000425   000027 036000 5                  ADLQ    23
         4 000426   200304 757100                    STAQ    HEADER0+38,,AUTO
         4 000427   777640 235007                    LDA     -96,DL
         4 000430   200306 452500                    STP2    HEADER0+40,,AUTO
         4 000431   200306 236100                    LDQ     HEADER0+40,,AUTO
         4 000432   000231 036003                    ADLQ    153,DU
         4 000433   200310 757100                    STAQ    HEADER0+42,,AUTO
         4 000434   777640 235007                    LDA     -96,DL
         4 000435   200312 452500                    STP2    HEADER0+44,,AUTO
         4 000436   200312 236100                    LDQ     HEADER0+44,,AUTO
         4 000437   000232 036003                    ADLQ    154,DU
         4 000440   200314 757100                    STAQ    HEADER0+46,,AUTO
         4 000441   177640 235007                    LDA     65440,DL
         4 000442   200316 452500                    STP2    HEADER0+48,,AUTO
         4 000443   200316 236100                    LDQ     HEADER0+48,,AUTO
         4 000444   000100 036003                    ADLQ    64,DU
         4 000445   200320 757100                    STAQ    HEADER0+50,,AUTO
         4 000446   177640 235007                    LDA     65440,DL
         4 000447   200322 452500                    STP2    HEADER0+52,,AUTO
         4 000450   200322 236100                    LDQ     HEADER0+52,,AUTO
         4 000451   000030 036000 5                  ADLQ    24
         4 000452   200326 757100                    STAQ    HEADER0+56,,AUTO
         4 000453   200246 237100                    LDAQ    HEADER0+8,,AUTO
         4 000454   200324 757100                    STAQ    HEADER0+54,,AUTO
         4 000455   200252 237100                    LDAQ    HEADER0+12,,AUTO
         4 000456   200330 757100                    STAQ    HEADER0+58,,AUTO
PL6.E3A0      #005=DBD$TCTX File=DBD$FMT_KN.:E05TSI                              TUE 07/29/97 13:06 Page:208
         4 000457   200254 237100                    LDAQ    HEADER0+14,,AUTO
         4 000460   200332 757100                    STAQ    HEADER0+60,,AUTO
         4 000461   200260 237100                    LDAQ    HEADER0+18,,AUTO
         4 000462   200334 757100                    STAQ    HEADER0+62,,AUTO
         4 000463   200264 237100                    LDAQ    HEADER0+22,,AUTO
         4 000464   200336 757100                    STAQ    HEADER0+64,,AUTO
         4 000465   200270 237100                    LDAQ    HEADER0+26,,AUTO
         4 000466   200340 757100                    STAQ    HEADER0+66,,AUTO
         4 000467   200274 237100                    LDAQ    HEADER0+30,,AUTO
         4 000470   200342 757100                    STAQ    HEADER0+68,,AUTO
         4 000471   200300 237100                    LDAQ    HEADER0+34,,AUTO
         4 000472   200344 757100                    STAQ    HEADER0+70,,AUTO
         4 000473   200304 237100                    LDAQ    HEADER0+38,,AUTO
         4 000474   200346 757100                    STAQ    HEADER0+72,,AUTO
         4 000475   200310 237100                    LDAQ    HEADER0+42,,AUTO
         4 000476   200350 757100                    STAQ    HEADER0+74,,AUTO
         4 000477   200314 237100                    LDAQ    HEADER0+46,,AUTO
         4 000500   200352 757100                    STAQ    HEADER0+76,,AUTO
         4 000501   200320 237100                    LDAQ    HEADER0+50,,AUTO
         4 000502   200354 757100                    STAQ    HEADER0+78,,AUTO
         4 000503   200326 237100                    LDAQ    HEADER0+56,,AUTO
         4 000504   200356 757100                    STAQ    HEADER0+80,,AUTO
         4 000505   200356 630500                    EPPR0   HEADER0+80,,AUTO
         4 000506   200375 450500                    STP0    HEADER0+95,,AUTO
         4 000507   200354 631500                    EPPR1   HEADER0+78,,AUTO
         4 000510   200374 451500                    STP1    HEADER0+94,,AUTO
         4 000511   200352 633500                    EPPR3   HEADER0+76,,AUTO
         4 000512   200373 453500                    STP3    HEADER0+93,,AUTO
         4 000513   200350 634500                    EPPR4   HEADER0+74,,AUTO
         4 000514   200372 454500                    STP4    HEADER0+92,,AUTO
         4 000515   200346 635500                    EPPR5   HEADER0+72,,AUTO
         4 000516   200371 455500                    STP5    HEADER0+91,,AUTO
         4 000517   200344 636500                    EPPR6   HEADER0+70,,AUTO
         4 000520   200370 456500                    STP6    HEADER0+90,,AUTO
         4 000521   200342 637500                    EPPR7   HEADER0+68,,AUTO
         4 000522   200367 457500                    STP7    HEADER0+89,,AUTO
         4 000523   200340 630500                    EPPR0   HEADER0+66,,AUTO
PL6.E3A0      #005=DBD$TCTX File=DBD$FMT_KN.:E05TSI                              TUE 07/29/97 13:06 Page:209
         4 000524   200366 450500                    STP0    HEADER0+88,,AUTO
         4 000525   200336 630500                    EPPR0   HEADER0+64,,AUTO
         4 000526   200365 450500                    STP0    HEADER0+87,,AUTO
         4 000527   200334 630500                    EPPR0   HEADER0+62,,AUTO
         4 000530   200364 450500                    STP0    HEADER0+86,,AUTO
         4 000531   200332 630500                    EPPR0   HEADER0+60,,AUTO
         4 000532   200363 450500                    STP0    HEADER0+85,,AUTO
         4 000533   200330 630500                    EPPR0   HEADER0+58,,AUTO
         4 000534   200362 450500                    STP0    HEADER0+84,,AUTO
         4 000535   200324 630500                    EPPR0   HEADER0+54,,AUTO
         4 000536   200361 450500                    STP0    HEADER0+83,,AUTO
         4 000537   000032 236000 5                  LDQ     26
         4 000540   200360 756100                    STQ     HEADER0+82,,AUTO
         4 000541   200360 630500                    EPPR0   HEADER0+82,,AUTO
         4 000542   000000 220000 xsym               LDX0    DAF$WRITE
         4 000543   000031 631400 5                  EPPR1   25
         4 000544   000000 701010                    TSX1    0,X0
         4 000545   000000 011000                    NOP     0

     1138    12752    3             VECTOR(K$TCTX.QOS),
     1139    12753    3             VECTOR(K$TCTX.CLASS),
     1140    12754    3             VECTOR(FLAGS),
     1141    12755    3             VECTOR(BUF_BYT),
     1142    12756    3             VECTOR(K$TCTX.REASON),
     1143    12757    3             VECTOR(K$TCTX.ERR)  );
     1144    12758    3           END/*do if primary*/;

  12758  4 000546   001177 710000 4                  TRA     s:12799

     1145    12759    3      ELSE DO;

     1146    12760    3           IF K$TCTX.OPTION.OSI

  12760  4 000547   000020 316003                    CANQ    16,DU
         4 000550   000761 600000 4                  TZE     s:12795

     1147    12761    4           THEN DO;
PL6.E3A0      #005=DBD$TCTX File=DBD$FMT_KN.:E05TSI                              TUE 07/29/97 13:06 Page:210

     1148    12762    4                CALL DAF$WRITE(VECTOR(TCTX_FMT1Y),
     1149    12763    4                  VECTOR(THIS_TCTX$),
     1150    12764    4                  VECTOR(K$TCTX.SRC_REF),
     1151    12765    4                  VECTOR(K_TCTX_STATE(STATE)),
     1152    12766    4                  VECTOR(K$TCTX.HOST_NODE),
     1153    12767    4                  VECTOR(BLANK3),
     1154    12768    4                  VECTOR(K$TCTX.HOST_REF),
     1155    12769    4                  VECTOR(K$TCTX.DST_REF),
     1156    12770    4                  VECTOR(K$TCTX.SEND_NEXT),
     1157    12771    4                  VECTOR(K$TCTX.RECV_NEXT),
     1158    12772    4                  VECTOR(K$TCTX.QOS),
     1159    12773    4                  VECTOR(K$TCTX.CLASS),
     1160    12774    4                  VECTOR(FLAGS),
     1161    12775    4                  VECTOR(BUF_BYT),
     1162    12776    4                  VECTOR(K$TCTX.REASON),
     1163    12777    4                  VECTOR(K$TCTX.ERR) );

  12777  4 000551   777640 235007                    LDA     -96,DL
         4 000552   200244 452500                    STP2    HEADER0+6,,AUTO
         4 000553   200244 236100                    LDQ     HEADER0+6,,AUTO
         4 000554   000225 036003                    ADLQ    149,DU
         4 000555   200246 757100                    STAQ    HEADER0+8,,AUTO
         4 000556   377640 235007                    LDA     130976,DL
         4 000557   200250 452500                    STP2    HEADER0+10,,AUTO
         4 000560   200250 236100                    LDQ     HEADER0+10,,AUTO
         4 000561   000072 036003                    ADLQ    58,DU
         4 000562   200252 757100                    STAQ    HEADER0+12,,AUTO
         4 000563   000022 235000 5                  LDA     18
         4 000564   200230 236100                    LDQ     STATE,,AUTO
         4 000565   000023 736000                    QLS     19
         4 000566   000023 036000 5                  ADLQ    19
         4 000567   200254 757100                    STAQ    HEADER0+14,,AUTO
         4 000570   177640 235007                    LDA     65440,DL
         4 000571   200256 452500                    STP2    HEADER0+16,,AUTO
         4 000572   200256 236100                    LDQ     HEADER0+16,,AUTO
         4 000573   000073 036003                    ADLQ    59,DU
PL6.E3A0      #005=DBD$TCTX File=DBD$FMT_KN.:E05TSI                              TUE 07/29/97 13:06 Page:211
         4 000574   200260 757100                    STAQ    HEADER0+18,,AUTO
         4 000575   377640 235007                    LDA     130976,DL
         4 000576   200262 452500                    STP2    HEADER0+20,,AUTO
         4 000577   200262 236100                    LDQ     HEADER0+20,,AUTO
         4 000600   000040 036000 5                  ADLQ    32
         4 000601   200264 757100                    STAQ    HEADER0+22,,AUTO
         4 000602   377640 235007                    LDA     130976,DL
         4 000603   200266 452500                    STP2    HEADER0+24,,AUTO
         4 000604   200266 236100                    LDQ     HEADER0+24,,AUTO
         4 000605   000025 036000 5                  ADLQ    21
         4 000606   200270 757100                    STAQ    HEADER0+26,,AUTO
         4 000607   777640 235007                    LDA     -96,DL
         4 000610   200272 452500                    STP2    HEADER0+28,,AUTO
         4 000611   200272 236100                    LDQ     HEADER0+28,,AUTO
         4 000612   000124 036003                    ADLQ    84,DU
         4 000613   200274 757100                    STAQ    HEADER0+30,,AUTO
         4 000614   777640 235007                    LDA     -96,DL
         4 000615   200276 452500                    STP2    HEADER0+32,,AUTO
         4 000616   200276 236100                    LDQ     HEADER0+32,,AUTO
         4 000617   000114 036003                    ADLQ    76,DU
         4 000620   200300 757100                    STAQ    HEADER0+34,,AUTO
         4 000621   177640 235007                    LDA     65440,DL
         4 000622   200302 452500                    STP2    HEADER0+36,,AUTO
         4 000623   200302 236100                    LDQ     HEADER0+36,,AUTO
         4 000624   000026 036000 5                  ADLQ    22
         4 000625   200304 757100                    STAQ    HEADER0+38,,AUTO
         4 000626   177640 235007                    LDA     65440,DL
         4 000627   200306 452500                    STP2    HEADER0+40,,AUTO
         4 000630   200306 236100                    LDQ     HEADER0+40,,AUTO
         4 000631   000027 036000 5                  ADLQ    23
         4 000632   200310 757100                    STAQ    HEADER0+42,,AUTO
         4 000633   777640 235007                    LDA     -96,DL
         4 000634   200312 452500                    STP2    HEADER0+44,,AUTO
         4 000635   200312 236100                    LDQ     HEADER0+44,,AUTO
         4 000636   000231 036003                    ADLQ    153,DU
         4 000637   200314 757100                    STAQ    HEADER0+46,,AUTO
         4 000640   777640 235007                    LDA     -96,DL
PL6.E3A0      #005=DBD$TCTX File=DBD$FMT_KN.:E05TSI                              TUE 07/29/97 13:06 Page:212
         4 000641   200316 452500                    STP2    HEADER0+48,,AUTO
         4 000642   200316 236100                    LDQ     HEADER0+48,,AUTO
         4 000643   000232 036003                    ADLQ    154,DU
         4 000644   200320 757100                    STAQ    HEADER0+50,,AUTO
         4 000645   177640 235007                    LDA     65440,DL
         4 000646   200322 452500                    STP2    HEADER0+52,,AUTO
         4 000647   200322 236100                    LDQ     HEADER0+52,,AUTO
         4 000650   000100 036003                    ADLQ    64,DU
         4 000651   200324 757100                    STAQ    HEADER0+54,,AUTO
         4 000652   177640 235007                    LDA     65440,DL
         4 000653   200326 452500                    STP2    HEADER0+56,,AUTO
         4 000654   200326 236100                    LDQ     HEADER0+56,,AUTO
         4 000655   000030 036000 5                  ADLQ    24
         4 000656   200332 757100                    STAQ    HEADER0+60,,AUTO
         4 000657   200246 237100                    LDAQ    HEADER0+8,,AUTO
         4 000660   200330 757100                    STAQ    HEADER0+58,,AUTO
         4 000661   200252 237100                    LDAQ    HEADER0+12,,AUTO
         4 000662   200334 757100                    STAQ    HEADER0+62,,AUTO
         4 000663   200254 237100                    LDAQ    HEADER0+14,,AUTO
         4 000664   200336 757100                    STAQ    HEADER0+64,,AUTO
         4 000665   200260 237100                    LDAQ    HEADER0+18,,AUTO
         4 000666   200340 757100                    STAQ    HEADER0+66,,AUTO
         4 000667   200264 237100                    LDAQ    HEADER0+22,,AUTO
         4 000670   200342 757100                    STAQ    HEADER0+68,,AUTO
         4 000671   200270 237100                    LDAQ    HEADER0+26,,AUTO
         4 000672   200344 757100                    STAQ    HEADER0+70,,AUTO
         4 000673   200274 237100                    LDAQ    HEADER0+30,,AUTO
         4 000674   200346 757100                    STAQ    HEADER0+72,,AUTO
         4 000675   200300 237100                    LDAQ    HEADER0+34,,AUTO
         4 000676   200350 757100                    STAQ    HEADER0+74,,AUTO
         4 000677   200304 237100                    LDAQ    HEADER0+38,,AUTO
         4 000700   200352 757100                    STAQ    HEADER0+76,,AUTO
         4 000701   200310 237100                    LDAQ    HEADER0+42,,AUTO
         4 000702   200354 757100                    STAQ    HEADER0+78,,AUTO
         4 000703   200314 237100                    LDAQ    HEADER0+46,,AUTO
         4 000704   200356 757100                    STAQ    HEADER0+80,,AUTO
         4 000705   200320 237100                    LDAQ    HEADER0+50,,AUTO
PL6.E3A0      #005=DBD$TCTX File=DBD$FMT_KN.:E05TSI                              TUE 07/29/97 13:06 Page:213
         4 000706   200360 757100                    STAQ    HEADER0+82,,AUTO
         4 000707   200324 237100                    LDAQ    HEADER0+54,,AUTO
         4 000710   200362 757100                    STAQ    HEADER0+84,,AUTO
         4 000711   200332 237100                    LDAQ    HEADER0+60,,AUTO
         4 000712   200364 757100                    STAQ    HEADER0+86,,AUTO
         4 000713   200364 630500                    EPPR0   HEADER0+86,,AUTO
         4 000714   200405 450500                    STP0    HEADER0+103,,AUTO
         4 000715   200362 631500                    EPPR1   HEADER0+84,,AUTO
         4 000716   200404 451500                    STP1    HEADER0+102,,AUTO
         4 000717   200360 633500                    EPPR3   HEADER0+82,,AUTO
         4 000720   200403 453500                    STP3    HEADER0+101,,AUTO
         4 000721   200356 634500                    EPPR4   HEADER0+80,,AUTO
         4 000722   200402 454500                    STP4    HEADER0+100,,AUTO
         4 000723   200354 635500                    EPPR5   HEADER0+78,,AUTO
         4 000724   200401 455500                    STP5    HEADER0+99,,AUTO
         4 000725   200352 636500                    EPPR6   HEADER0+76,,AUTO
         4 000726   200400 456500                    STP6    HEADER0+98,,AUTO
         4 000727   200350 637500                    EPPR7   HEADER0+74,,AUTO
         4 000730   200377 457500                    STP7    HEADER0+97,,AUTO
         4 000731   200346 630500                    EPPR0   HEADER0+72,,AUTO
         4 000732   200376 450500                    STP0    HEADER0+96,,AUTO
         4 000733   200344 630500                    EPPR0   HEADER0+70,,AUTO
         4 000734   200375 450500                    STP0    HEADER0+95,,AUTO
         4 000735   200342 630500                    EPPR0   HEADER0+68,,AUTO
         4 000736   200374 450500                    STP0    HEADER0+94,,AUTO
         4 000737   000042 236000 5                  LDQ     34
         4 000740   200373 756100                    STQ     HEADER0+93,,AUTO
         4 000741   200340 630500                    EPPR0   HEADER0+66,,AUTO
         4 000742   200372 450500                    STP0    HEADER0+92,,AUTO
         4 000743   200336 630500                    EPPR0   HEADER0+64,,AUTO
         4 000744   200371 450500                    STP0    HEADER0+91,,AUTO
         4 000745   200334 630500                    EPPR0   HEADER0+62,,AUTO
         4 000746   200370 450500                    STP0    HEADER0+90,,AUTO
         4 000747   200330 630500                    EPPR0   HEADER0+58,,AUTO
         4 000750   200367 450500                    STP0    HEADER0+89,,AUTO
         4 000751   000043 236000 5                  LDQ     35
         4 000752   200366 756100                    STQ     HEADER0+88,,AUTO
PL6.E3A0      #005=DBD$TCTX File=DBD$FMT_KN.:E05TSI                              TUE 07/29/97 13:06 Page:214
         4 000753   200366 630500                    EPPR0   HEADER0+88,,AUTO
         4 000754   000000 220000 xsym               LDX0    DAF$WRITE
         4 000755   000041 631400 5                  EPPR1   33
         4 000756   000000 701010                    TSX1    0,X0
         4 000757   000000 011000                    NOP     0

     1164    12778    4                END/*do if osi intermediate*/;

  12778  4 000760   001177 710000 4                  TRA     s:12799

     1165    12779    4           ELSE DO;

     1166    12780    4                CALL DAF$WRITE(VECTOR(TCTX_FMT1X),
     1167    12781    4                  VECTOR(THIS_TCTX$),
     1168    12782    4                  VECTOR(K$TCTX.SRC_REF),
     1169    12783    4                  VECTOR(K_TCTX_STATE(STATE)),
     1170    12784    4                  VECTOR(K$TCTX.HOST_NODE),
     1171    12785    4                  VECTOR(K$TCTX.NODE),
     1172    12786    4                  VECTOR(K$TCTX.HOST_REF),
     1173    12787    4                  VECTOR(K$TCTX.DST_REF),
     1174    12788    4                  VECTOR(K$TCTX.SEND_NEXT),
     1175    12789    4                  VECTOR(K$TCTX.RECV_NEXT),
     1176    12790    4                  VECTOR(K$TCTX.QOS),
     1177    12791    4                  VECTOR(K$TCTX.CLASS),
     1178    12792    4                  VECTOR(FLAGS),
     1179    12793    4                  VECTOR(BUF_BYT),
     1180    12794    4                  VECTOR(K$TCTX.REASON),
     1181    12795    4                  VECTOR(K$TCTX.ERR) );

  12795  4 000761   777640 235007                    LDA     -96,DL
         4 000762   200244 452500                    STP2    HEADER0+6,,AUTO
         4 000763   200244 236100                    LDQ     HEADER0+6,,AUTO
         4 000764   000225 036003                    ADLQ    149,DU
         4 000765   200246 757100                    STAQ    HEADER0+8,,AUTO
         4 000766   377640 235007                    LDA     130976,DL
         4 000767   200250 452500                    STP2    HEADER0+10,,AUTO
         4 000770   200250 236100                    LDQ     HEADER0+10,,AUTO
PL6.E3A0      #005=DBD$TCTX File=DBD$FMT_KN.:E05TSI                              TUE 07/29/97 13:06 Page:215
         4 000771   000072 036003                    ADLQ    58,DU
         4 000772   200252 757100                    STAQ    HEADER0+12,,AUTO
         4 000773   000022 235000 5                  LDA     18
         4 000774   200230 236100                    LDQ     STATE,,AUTO
         4 000775   000023 736000                    QLS     19
         4 000776   000023 036000 5                  ADLQ    19
         4 000777   200254 757100                    STAQ    HEADER0+14,,AUTO
         4 001000   177640 235007                    LDA     65440,DL
         4 001001   200256 452500                    STP2    HEADER0+16,,AUTO
         4 001002   200256 236100                    LDQ     HEADER0+16,,AUTO
         4 001003   000073 036003                    ADLQ    59,DU
         4 001004   200260 757100                    STAQ    HEADER0+18,,AUTO
         4 001005   177640 235007                    LDA     65440,DL
         4 001006   200262 452500                    STP2    HEADER0+20,,AUTO
         4 001007   200262 236100                    LDQ     HEADER0+20,,AUTO
         4 001010   000024 036000 5                  ADLQ    20
         4 001011   200264 757100                    STAQ    HEADER0+22,,AUTO
         4 001012   377640 235007                    LDA     130976,DL
         4 001013   200266 452500                    STP2    HEADER0+24,,AUTO
         4 001014   200266 236100                    LDQ     HEADER0+24,,AUTO
         4 001015   000040 036000 5                  ADLQ    32
         4 001016   200270 757100                    STAQ    HEADER0+26,,AUTO
         4 001017   377640 235007                    LDA     130976,DL
         4 001020   200272 452500                    STP2    HEADER0+28,,AUTO
         4 001021   200272 236100                    LDQ     HEADER0+28,,AUTO
         4 001022   000025 036000 5                  ADLQ    21
         4 001023   200274 757100                    STAQ    HEADER0+30,,AUTO
         4 001024   777640 235007                    LDA     -96,DL
         4 001025   200276 452500                    STP2    HEADER0+32,,AUTO
         4 001026   200276 236100                    LDQ     HEADER0+32,,AUTO
         4 001027   000124 036003                    ADLQ    84,DU
         4 001030   200300 757100                    STAQ    HEADER0+34,,AUTO
         4 001031   777640 235007                    LDA     -96,DL
         4 001032   200302 452500                    STP2    HEADER0+36,,AUTO
         4 001033   200302 236100                    LDQ     HEADER0+36,,AUTO
         4 001034   000114 036003                    ADLQ    76,DU
         4 001035   200304 757100                    STAQ    HEADER0+38,,AUTO
PL6.E3A0      #005=DBD$TCTX File=DBD$FMT_KN.:E05TSI                              TUE 07/29/97 13:06 Page:216
         4 001036   177640 235007                    LDA     65440,DL
         4 001037   200306 452500                    STP2    HEADER0+40,,AUTO
         4 001040   200306 236100                    LDQ     HEADER0+40,,AUTO
         4 001041   000026 036000 5                  ADLQ    22
         4 001042   200310 757100                    STAQ    HEADER0+42,,AUTO
         4 001043   177640 235007                    LDA     65440,DL
         4 001044   200312 452500                    STP2    HEADER0+44,,AUTO
         4 001045   200312 236100                    LDQ     HEADER0+44,,AUTO
         4 001046   000027 036000 5                  ADLQ    23
         4 001047   200314 757100                    STAQ    HEADER0+46,,AUTO
         4 001050   777640 235007                    LDA     -96,DL
         4 001051   200316 452500                    STP2    HEADER0+48,,AUTO
         4 001052   200316 236100                    LDQ     HEADER0+48,,AUTO
         4 001053   000231 036003                    ADLQ    153,DU
         4 001054   200320 757100                    STAQ    HEADER0+50,,AUTO
         4 001055   777640 235007                    LDA     -96,DL
         4 001056   200322 452500                    STP2    HEADER0+52,,AUTO
         4 001057   200322 236100                    LDQ     HEADER0+52,,AUTO
         4 001060   000232 036003                    ADLQ    154,DU
         4 001061   200324 757100                    STAQ    HEADER0+54,,AUTO
         4 001062   177640 235007                    LDA     65440,DL
         4 001063   200326 452500                    STP2    HEADER0+56,,AUTO
         4 001064   200326 236100                    LDQ     HEADER0+56,,AUTO
         4 001065   000100 036003                    ADLQ    64,DU
         4 001066   200330 757100                    STAQ    HEADER0+58,,AUTO
         4 001067   177640 235007                    LDA     65440,DL
         4 001070   200332 452500                    STP2    HEADER0+60,,AUTO
         4 001071   200332 236100                    LDQ     HEADER0+60,,AUTO
         4 001072   000030 036000 5                  ADLQ    24
         4 001073   200336 757100                    STAQ    HEADER0+64,,AUTO
         4 001074   200246 237100                    LDAQ    HEADER0+8,,AUTO
         4 001075   200334 757100                    STAQ    HEADER0+62,,AUTO
         4 001076   200252 237100                    LDAQ    HEADER0+12,,AUTO
         4 001077   200340 757100                    STAQ    HEADER0+66,,AUTO
         4 001100   200254 237100                    LDAQ    HEADER0+14,,AUTO
         4 001101   200342 757100                    STAQ    HEADER0+68,,AUTO
         4 001102   200260 237100                    LDAQ    HEADER0+18,,AUTO
PL6.E3A0      #005=DBD$TCTX File=DBD$FMT_KN.:E05TSI                              TUE 07/29/97 13:06 Page:217
         4 001103   200344 757100                    STAQ    HEADER0+70,,AUTO
         4 001104   200264 237100                    LDAQ    HEADER0+22,,AUTO
         4 001105   200346 757100                    STAQ    HEADER0+72,,AUTO
         4 001106   200270 237100                    LDAQ    HEADER0+26,,AUTO
         4 001107   200350 757100                    STAQ    HEADER0+74,,AUTO
         4 001110   200274 237100                    LDAQ    HEADER0+30,,AUTO
         4 001111   200352 757100                    STAQ    HEADER0+76,,AUTO
         4 001112   200300 237100                    LDAQ    HEADER0+34,,AUTO
         4 001113   200354 757100                    STAQ    HEADER0+78,,AUTO
         4 001114   200304 237100                    LDAQ    HEADER0+38,,AUTO
         4 001115   200356 757100                    STAQ    HEADER0+80,,AUTO
         4 001116   200310 237100                    LDAQ    HEADER0+42,,AUTO
         4 001117   200360 757100                    STAQ    HEADER0+82,,AUTO
         4 001120   200314 237100                    LDAQ    HEADER0+46,,AUTO
         4 001121   200362 757100                    STAQ    HEADER0+84,,AUTO
         4 001122   200320 237100                    LDAQ    HEADER0+50,,AUTO
         4 001123   200364 757100                    STAQ    HEADER0+86,,AUTO
         4 001124   200324 237100                    LDAQ    HEADER0+54,,AUTO
         4 001125   200366 757100                    STAQ    HEADER0+88,,AUTO
         4 001126   200330 237100                    LDAQ    HEADER0+58,,AUTO
         4 001127   200370 757100                    STAQ    HEADER0+90,,AUTO
         4 001130   200336 237100                    LDAQ    HEADER0+64,,AUTO
         4 001131   200372 757100                    STAQ    HEADER0+92,,AUTO
         4 001132   200372 630500                    EPPR0   HEADER0+92,,AUTO
         4 001133   200413 450500                    STP0    HEADER0+109,,AUTO
         4 001134   200370 631500                    EPPR1   HEADER0+90,,AUTO
         4 001135   200412 451500                    STP1    HEADER0+108,,AUTO
         4 001136   200366 633500                    EPPR3   HEADER0+88,,AUTO
         4 001137   200411 453500                    STP3    HEADER0+107,,AUTO
         4 001140   200364 634500                    EPPR4   HEADER0+86,,AUTO
         4 001141   200410 454500                    STP4    HEADER0+106,,AUTO
         4 001142   200362 635500                    EPPR5   HEADER0+84,,AUTO
         4 001143   200407 455500                    STP5    HEADER0+105,,AUTO
         4 001144   200360 636500                    EPPR6   HEADER0+82,,AUTO
         4 001145   200406 456500                    STP6    HEADER0+104,,AUTO
         4 001146   200356 637500                    EPPR7   HEADER0+80,,AUTO
         4 001147   200405 457500                    STP7    HEADER0+103,,AUTO
PL6.E3A0      #005=DBD$TCTX File=DBD$FMT_KN.:E05TSI                              TUE 07/29/97 13:06 Page:218
         4 001150   200354 630500                    EPPR0   HEADER0+78,,AUTO
         4 001151   200404 450500                    STP0    HEADER0+102,,AUTO
         4 001152   200352 630500                    EPPR0   HEADER0+76,,AUTO
         4 001153   200403 450500                    STP0    HEADER0+101,,AUTO
         4 001154   200350 630500                    EPPR0   HEADER0+74,,AUTO
         4 001155   200402 450500                    STP0    HEADER0+100,,AUTO
         4 001156   200346 630500                    EPPR0   HEADER0+72,,AUTO
         4 001157   200401 450500                    STP0    HEADER0+99,,AUTO
         4 001160   200344 630500                    EPPR0   HEADER0+70,,AUTO
         4 001161   200400 450500                    STP0    HEADER0+98,,AUTO
         4 001162   200342 630500                    EPPR0   HEADER0+68,,AUTO
         4 001163   200377 450500                    STP0    HEADER0+97,,AUTO
         4 001164   200340 630500                    EPPR0   HEADER0+66,,AUTO
         4 001165   200376 450500                    STP0    HEADER0+96,,AUTO
         4 001166   200334 630500                    EPPR0   HEADER0+62,,AUTO
         4 001167   200375 450500                    STP0    HEADER0+95,,AUTO
         4 001170   000046 236000 5                  LDQ     38
         4 001171   200374 756100                    STQ     HEADER0+94,,AUTO
         4 001172   200374 630500                    EPPR0   HEADER0+94,,AUTO
         4 001173   000000 220000 xsym               LDX0    DAF$WRITE
         4 001174   000041 631400 5                  EPPR1   33
         4 001175   000000 701010                    TSX1    0,X0
         4 001176   000000 011000                    NOP     0

     1182    12796    4                END/*do if cp6 intermediate*/;

     1183    12797    3           END/* do if intermediate*/;

     1184    12798
     1185    12799    2   END DISP_TCTX;

  12799  4 001177   200242 221300                    LDX1  ! HEADER0+4,,AUTO
         4 001200   000001 702211                    TSX2  ! 1,X1
     1186    12800
     1187    12801    1   END DBD$TCTX;

PL6.E3A0      #005=DBD$TCTX File=DBD$FMT_KN.:E05TSI                              TUE 07/29/97 13:06 Page:219
--  Include file information  --

   DB_PERR_C.:E05TOU  is referenced.
   DA_ANLZ_R.:E05TOU  cannot be made into a system file and is referenced.
   XU_MACRO_C.:E05TOU  is referenced.
   DA_FORMAT_C.:E05TOU  is referenced.
   K_ADDRESS_M.:E05TOU  is referenced.
   KN_DATA_M.:E05TOU  is referenced.
   G$BOBCAT_M.:E05TOU  is referenced.
   GH_SCHD_M.:E05TOU  is referenced.
   CP_6_C.:E05TOU  is referenced.
   CP_6.:E05TOU  cannot be made into a system file and is referenced.
      No diagnostics issued in procedure DBD$TCTX.
PL6.E3A0      #005=DBD$TCTX File=DBD$FMT_KN.:E05TSI                              TUE 07/29/97 13:06 Page:220

 **** Variables and constants ****

  ****  Section 001  Data  DBD$TCTX

  ****  Scalars and arrays  ****
OctLoc.c.b A Datatyp(siz) R M Lvl/name                 OctLoc.c.b A Datatyp(siz) R M Lvl/name

   130-0-0/c CHAR(3)     r     1 BLANK3
   100-0-0/c CHAR(8)     r     1 K_TCTX_STATE(0:11)
     0-0-0/w STRC(288)   r     1 TCTXRPT1                  16-0-0/w STRC(144)   r     1 TCTXRPT1HD00
    47-0-0/w STRC(144)   r     1 TCTXRPT1HD01              10-0-0/c STRC(198)   r     1 TCTXRPT1TX00
    22-0-0/c STRC(729)   r     1 TCTXRPT1TX01              53-0-0/c STRC(729)   r     1 TCTXRPT1TX02

  ****  Section 002 RoData DBD$TCTX

  ****  Scalars and arrays  ****
OctLoc.c.b A Datatyp(siz) R M Lvl/name                 OctLoc.c.b A Datatyp(siz) R M Lvl/name

   107-0-0/c CHAR(20)    r     1 BAD_TCTX_ADDR              0-0-0/c CHAR(85)    r     1 TCTX_FMT1
    26-0-0/c CHAR(100)   r     1 TCTX_FMT1X                57-0-0/c CHAR(96)    r     1 TCTX_FMT1Y

  ****  Auto variables  ****

  ****  Scalars and arrays  ****
OctLoc.c.b A Datatyp(siz) R M Lvl/name                 OctLoc.c.b A Datatyp(siz) R M Lvl/name

     3-0-0/w PTR         r     1 @TOP                     234-0-0/w UBIN        r     1 ACTION
   232-0-0/w UBIN        r     1 BUF_BYT                  235-0-0/w UBIN        r     1 ENTRY_TYPE
   231-0-0/w UBIN        r     1 FLAGS                      4-0-0/w STRC(1908)  r     1 G$BOBCAT
   236-0-0/w UBIN        r     1 HEADER0                  221-0-0/w SBIN        r     1 I
    71-0-0/c STRC(3168)  r     1 K$TCTX                   230-0-0/w UBIN        r     1 STATE
   226-0-0/w UBIN        r     1 TCTX_$$                  224-0-0/w UBIN        r     1 TCTX_DATA$
   227-0-0/w UBIN        r     1 TCTX_SIZE                233-0-0/w UBIN        r     1 TEMP
   225-0-0/w UBIN        r     1 THIS_TCTX$                *0-0-0/w STRC(144)   r     1 TOP
   222-0-0/w UBIN        r     1 X

  ****  SYMREF variables  ****
PL6.E3A0      #005=DBD$TCTX File=DBD$FMT_KN.:E05TSI                              TUE 07/29/97 13:06 Page:221

  ****  Scalars and arrays  ****
OctLoc.c.b A Datatyp(siz) R M Lvl/name                 OctLoc.c.b A Datatyp(siz) R M Lvl/name

     0-0-0/w EPTR        r     1 DAF$WRITE                  0-0-0/w UBIN        r     1 DBD_BOBCAT$
     0-0-0/w UBIN        r     1 DBD_FEPCTX_END$            0-0-0/w UBIN        r     1 DBD_FEPCTX_MAX#
     0-0-0/w UBIN        r     1 DBD_FEPCTX_START$

  ****  BASED and DCB variables  ****

  ****  Scalars and arrays  ****
OctLoc.c.b A Datatyp(siz) R M Lvl/name                 OctLoc.c.b A Datatyp(siz) R M Lvl/name

     0-0-0/w STRC(144)   r     1 OUT


   Procedure DBD$TCTX requires 641 words for executable code.
   Procedure DBD$TCTX requires 268 words of local(AUTO) storage.

    No errors detected in file DBD$FMT_KN.:E05TSI    .
PL6.E3A0      #005=DBD$TCTX File=DBD$FMT_KN.:E05TSI                              TUE 07/29/97 13:06 Page:222
          *** CROSS REFERENCE LISTING ***
**     DENOTES     IDENTIFIER DEFINITION
<<                 IDENTIFIER'S VALUE SET
>>                 IDENTIFIER'S VALUE USED
<>                 IDENTIFIER SET AND/OR USED
--                 IDENTIFIER REFERENCED
PL6.E3A0      #005=DBD$TCTX File=DBD$FMT_KN.:E05TSI                              TUE 07/29/97 13:06 Page:223
          MINI XREF LISTING

ACTION
     12626**DCL     12672<<ASSIGN  12688<<ASSIGN  12731>>IF
BAD_TCTX_ADDR
     11688**DCL     12718--CALL
BLANK3
     11691**DCL     12777--CALL
BUF_BYT
     12624**DCL     12727<>CALL    12729<<ASSIGN  12729>>ASSIGN  12751--CALL    12777--CALL    12795--CALL
DAA$VALUE
     11497**DCL-ENT 12684--CALL
DAF$INIT
     11499**DCL-ENT 12738--CALL
DAF$WRITE
     11498**DCL     12718>>CALL    12751>>CALL    12777>>CALL    12795>>CALL
DBD$KNINFO
     11506**DCL-ENT 12660--CALL    12664--CALL
DBD_BOBCAT$
     12635**DCL     12709>>IF
DBD_FEPCTX_END$
     12638**DCL     12715>>IF
DBD_FEPCTX_MAX#
     12639**DCL     12673>>DOINDEX 12689>>DOINDEX 12711>>IF
DBD_FEPCTX_START$
     12637**DCL     12690>>ASSIGN  12712>>ASSIGN  12715>>IF
DBM$GETBOBCAT
     11502**DCL-ENT 12654--CALL
DBM$GETMEM
     11501**DCL-ENT 12675--CALL    12722--CALL
DBM$PACK1
     11503**DCL-ENT 12725--CALL
DBM$PACK2
     11504**DCL-ENT 12726--CALL    12727--CALL    12728--CALL
PL6.E3A0      #005=DBD$TCTX File=DBD$FMT_KN.:E05TSI                              TUE 07/29/97 13:06 Page:224
DBM$PACK4
     11505**DCL-ENT 12657--CALL    12658--CALL    12676--CALL
DISP_TCTX
     12708**PROC    12678--CALL    12691--CALL    12696--CALL
ENTRY_TYPE
     12627**DCL     12645<<ASSIGN  12649<<ASSIGN  12662>>IF
FLAGS
     12623**DCL     12726<>CALL    12751--CALL    12777--CALL    12795--CALL
G$BOBCAT
     11694**DCL     12654<>CALL
G$BOBCAT.TCTX$$
     11699**DCL     12658<>CALL
G$BOBCAT.TCTXDATA$
     11701**DCL     12657<>CALL
HEADER0
     12628**DCL     12652<<ASSIGN  12736>>IF      12739<<ASSIGN
I
     12614**DCL     12673<<DOINDEX 12674>>ASSIGN  12689<<DOINDEX 12690>>ASSIGN
K$TCTX
     11711**DCL     12653--ASSIGN  12722<>CALL    12722--CALL    12722--CALL
K$TCTX.CLASS
     11777**DCL     12751--CALL    12777--CALL    12795--CALL
K$TCTX.DST_NSAP.ADDRESS_N
     12596**DCL     12597--REDEF
K$TCTX.DST_REF
     11737**DCL     12751--CALL    12777--CALL    12795--CALL
K$TCTX.ERR
     11968**DCL     12751--CALL    12777--CALL    12795--CALL
K$TCTX.FLAGS
     11887**DCL     12726<>CALL
K$TCTX.FLAGS.PRIMARY
     11956**DCL     12742>>IF
K$TCTX.HOST_NODE
     11760**DCL     12777--CALL    12795--CALL
K$TCTX.HOST_REF
     11753**DCL     12777--CALL    12795--CALL
PL6.E3A0      #005=DBD$TCTX File=DBD$FMT_KN.:E05TSI                              TUE 07/29/97 13:06 Page:225
K$TCTX.NODE
     11718**DCL     11731--REDEF   12751--CALL    12795--CALL
K$TCTX.OPTION.OSI
     11839**DCL     12760>>IF
K$TCTX.QOS
     11766**DCL     12751--CALL    12777--CALL    12795--CALL
K$TCTX.REASON
     11962**DCL     12751--CALL    12777--CALL    12795--CALL
K$TCTX.RECV_BUFF.BYTES_CUR
     12077**DCL     12728<>CALL
K$TCTX.RECV_NEXT
     12098**DCL     12751--CALL    12777--CALL    12795--CALL
K$TCTX.SEND_BUFF.BYTES_CUR
     12137**DCL     12727<>CALL
K$TCTX.SEND_NEXT
     12155**DCL     12751--CALL    12777--CALL    12795--CALL
K$TCTX.SRC_NSAP.ADDRESS_N
     12532**DCL     12533--REDEF
K$TCTX.SRC_REF
     11745**DCL     12751--CALL    12777--CALL    12795--CALL
K$TCTX.STATE
     11712**DCL     12725<>CALL
K$TCTX.TMR_INACTIVITY.ARG
     12352**DCL     12353--REDEF
K$TCTX.TMR_REFERENCE.ARG
     12382**DCL     12383--REDEF
K$TCTX.TMR_RETRAN.ARG
     12293**DCL     12294--REDEF
K$TCTX.TMR_WINDOW.ARG
     12322**DCL     12323--REDEF
K_TCTX_STATE
     11679**DCL     12751--CALL    12777--CALL    12795--CALL
OUT
     11457**DCL     12684<>CALL
REPORT_BAD_TCTX IN PROCEDURE DISP_TCTX
     12712**LABEL   12711--GOTO
PL6.E3A0      #005=DBD$TCTX File=DBD$FMT_KN.:E05TSI                              TUE 07/29/97 13:06 Page:226
STATE
     12622**DCL     12725<>CALL    12733>>IF      12733>>IF      12751>>CALL    12777>>CALL    12795>>CALL
TCTXRPT1
     11526**DCL     12738<>CALL
TCTXRPT1HD00
     11593**DCL     11561--DCLINIT
TCTXRPT1HD01
     11636**DCL     11608--DCLINIT
TCTXRPT1TX00
     11569**DCL     11556--DCLINIT
TCTXRPT1TX01
     11611**DCL     11601--DCLINIT
TCTXRPT1TX02
     11654**DCL     11644--DCLINIT
TCTX_$$
     12620**DCL     12658<>CALL    12674>>ASSIGN
TCTX_DATA$
     12618**DCL     12657<>CALL    12660<>CALL    12664<>CALL
TCTX_FMT1
     11661**DCL     12751--CALL
TCTX_FMT1X
     11664**DCL     12795--CALL
TCTX_FMT1Y
     11667**DCL     12777--CALL
TCTX_SIZE
     12621**DCL     12653<<ASSIGN  12690>>ASSIGN  12712>>ASSIGN
TCTX_START
     12649**LABEL   12646--GOTO
TEMP
     12625**DCL     12728<>CALL    12729>>ASSIGN
THIS_TCTX$
     12619**DCL     12674<<ASSIGN  12675<>CALL    12675<>CALL    12676<>CALL    12676<>CALL    12677>>IF
     12684<>CALL    12686>>IF      12690<<ASSIGN  12709>>IF      12711>>IF      12712<<ASSIGN  12712>>ASSIGN
     12715>>IF      12715>>IF      12722<>CALL    12751--CALL    12777--CALL    12795--CALL
TOP
     11412**DCL        10--PROC    12648--ENTRY
PL6.E3A0      #005=DBD$TCTX File=DBD$FMT_KN.:E05TSI                              TUE 07/29/97 13:06 Page:227
TOP.NSUBLKS
     11424**DCL     12670>>IF      12683>>DOINDEX
TOP.SUBLK$
     11445**DCL     12684>>CALL
X
     12615**DCL     12683<<DOINDEX 12684>>CALL
