PL6.E3A0      #002=DBD$JIT File=DBD$USER.:E05TSI                                 TUE 07/29/97 13:10 Page:118
      648        1        /*T***********************************************************/
      649        2        /*T*                                                         */
      650        3        /*T* Copyright (c) Bull HN Information Systems Inc., 1997    */
      651        4        /*T*                                                         */
      652        5        /*T***********************************************************/
      653        6        /*F* NAME: DBD$JIT
      654        7             PURPOSE:  To process the JIT command for FEPs.
      655        8        */
      656        9        DBD$JIT: PROC(TOP);
      657       10        %INCLUDE CP_6;
      658     5569        %INCLUDE G_JIT_M;
      659     5834        %INCLUDE G_LCP6_E;
      660     6092        %INCLUDE GM_VIRTUAL_E;
      661     6302        %INCLUDE DA_FORMAT_C;
      662     6544        %INCLUDE XU_MACRO_C;
      663     9650
      664     9651        %PARSE$OUT (NAME=TOP,STCLASS=PARAM);
      665     9696        %PARSE$OUT (NAME=OUT,STCLASS=BASED);
      666     9741
      667     9742    1   DCL DAA$VALUE ENTRY(3) ALTRET;
      668     9743    1   DCL DAF$WRITE EPTR SYMREF;
      669     9744    1   DCL DAF$INIT ENTRY(1) ALTRET;
      670     9745    1   DCL DBA$SELECTION ENTRY(3) ALTRET;
      671     9746    1   DCL DBM$GETMEM ENTRY(10) ALTRET;
      672     9747    1   DCL DBM$GETBOBCAT ENTRY(1) ALTRET;
      673     9748    1   DCL DBM$PACK1 ENTRY(2);
      674     9749    1   DCL DBM$PACK2 ENTRY(2);
      675     9750    1   DCL DBM$PACK4 ENTRY(2);
      676     9751    1   DCL DBM$SYSID2UN ENTRY(1) ALTRET;
      677     9752
      678     9753    1   DCL DB_MUIS UBIN SYMREF;
      679     9754    1   DCL DA_MAPERR BIT(36) SYMREF;
      680     9755    1   DCL DB_USRT$ UBIN SYMREF;
      681     9756    1   DCL DB_CUN UBIN SYMREF;
      682     9757
      683     9758        %FPT_ERRMSG (L6_CODE=YES, OUTDCB1=M$DO);
      684     9785    1   DCL ERRBUF CHAR(200);
PL6.E3A0      #002=DBD$JIT File=DBD$USER.:E05TSI                                 TUE 07/29/97 13:10 Page:119
      685     9786    1   DCL B$1WORD UBIN BASED;
      686     9787    1   DCL M$DO DCB;
      687     9788
      688     9789        %EJECT;
PL6.E3A0      #002=DBD$JIT File=DBD$USER.:E05TSI                                 TUE 07/29/97 13:10 Page:120
      689     9790    1   DCL ROS$ UBIN CONSTANT INIT(%GM_ROS_BASE);
      690     9791    1   DCL 1 ROSBASE AUTO,
      691     9792    1         2 DCBPTR$ UBIN,
      692     9793    1         2 JIT$ UBIN,
      693     9794    1         2 ALT$ UBIN,
      694     9795    1         2 STK$ UBIN;
      695     9796
      696     9797    1   DCL JIT$ UBIN;
      697     9798        %G$JIT(FPTN=G$JIT,STCLASS=AUTO);
      698     9992
      699     9993    1   DCL CPUMINS SBIN;
      700     9994    1   DCL CPUSECS SBIN;
      701     9995
      702     9996    1   DCL TUEXT SBIN;
      703     9997    1   DCL TUSVT UBIN;
      704     9998    1   DCL MRT UBIN;
      705     9999
      706    10000
      707    10001    1   DCL SYSID UBIN;
      708    10002    1   DCL JITUN UBIN;
      709    10003
      710    10004    1   DCL DLL UBIN;
      711    10005    1   DCL DUL UBIN;
      712    10006    1   DCL PLL UBIN;
      713    10007    1   DCL PUL UBIN;
      714    10008    1   DCL LLL UBIN;
      715    10009    1   DCL LUL UBIN;
      716    10010    1   DCL MAXMEM UBIN;
      717    10011
      718    10012    1   DCL PCD UBIN;
      719    10013    1   DCL PCP UBIN;
      720    10014    1   DCL PCL UBIN;
      721    10015    1   DCL PCDS UBIN;
      722    10016    1   DCL PCDDS UBIN;
      723    10017    1   DCL PCC UBIN;
      724    10018    1   DCL PCROS UBIN;
      725    10019    1   DCL PSEUDOPGS UBIN;
PL6.E3A0      #002=DBD$JIT File=DBD$USER.:E05TSI                                 TUE 07/29/97 13:10 Page:121
      726    10020    1   DCL NSPC UBIN;
      727    10021    1   DCL CQPC UBIN;
      728    10022
      729    10023    1   DCL PRIV_ACTIVE UBIN;
      730    10024    1   DCL PRIV_AUTH UBIN;
      731    10025    1   DCL PRIV_PRC UBIN;
      732    10026    1   DCL PPRIV UBIN;
      733    10027
      734    10028    1   DCL JMCLS UBIN;
      735    10029    1   DCL SMCLS UBIN;
      736    10030    1   DCL STEPS UBIN;
      737    10031    1   DCL CVM_REAL UBIN;
      738    10032    1   DCL SPROC UBIN;
      739    10033    1   DCL SLIB UBIN;
      740    10034    1   DCL DB UBIN;
      741    10035
      742    10036    1   DCL RNST UBIN;
      743    10037    1   DCL FRS UBIN;
      744    10038    1   DCL XLIMFLG UBIN;
      745    10039    1   DCL STEPCC UBIN;
      746    10040    1   DCL RUNFLAGS UBIN;
      747    10041    1   DCL JUNK UBIN;
      748    10042
      749    10043    1   DCL MAXLVLS UBIN;
      750    10044    1   DCL CURRLVLS UBIN;
      751    10045    1   DCL SPEAKLVLS UBIN;
      752    10046    1   DCL JPEAKLVLS UBIN;
      753    10047    1   DCL CLUKRLVL UBIN;
      754    10048    1   DCL CLUKXLVL UBIN;
      755    10049
      756    10050
      757    10051        %EJECT;
PL6.E3A0      #002=DBD$JIT File=DBD$USER.:E05TSI                                 TUE 07/29/97 13:10 Page:122
      758    10052    1   DCL I UBIN;
      759    10053    1   DCL USR_REP_FLG UBIN;
      760    10054    1   DCL UN SBIN;
      761    10055    1   DCL RADIX UBIN;
      762    10056    1   DCL T$ PTR;
      763    10057
      764    10058        %EJECT;
PL6.E3A0      #002=DBD$JIT File=DBD$USER.:E05TSI                                 TUE 07/29/97 13:10 Page:123
      765    10059    1   DCL BLANK_LINE CHAR(1) CONSTANT INIT(' ');
      766    10060    1   DCL JIT_LINE CHAR(0) CONSTANT INIT('JIT.ERR and JIT_FD_ALTERR');
      767    10061    1   DCL ENTRYCHAR(0:2) CHAR(7) CONSTANT INIT(
      768    10062    1   'Bigfoot','M$SETFP','M$LDTRC');
      769    10063    1   DCL MODECHAR(0:4) CHAR(8) CONSTANT INIT(
      770    10064    1   ' ','User','Comgroup','Handler','Ghost');
      771    10065
      772    10066        %REPORT (NAME=JITRPT,TRUNC=YES,HEADER=NO,TITLE='FEP JIT - Job Information Table');
      773    10132
      774    10133    1   DCL JITFMT10 CHAR(0) CONSTANT INIT(
      775    10134    1   'JIT for User# .%2ZH Sysid %D  Mode: %>A  Prog entry: %>A  %>A,%>A');
      776    10135
      777    10136    1   DCL JITFMT20 CHAR(0) CONSTANT INIT(
      778    10137    1   'DLL .%4ZH  DUL .%4ZH  PLL .%4ZH  PUL .%4ZH  LLL .%4ZH  LUL .%4ZH  MAXMEM %D');
      779    10138
      780    10139    1   DCL JITFMT30 CHAR(0) CONSTANT INIT(
      781    10140    1   'PCD %D   PCP %D   PCL %D   PCDS(non-IO) %D  PCDS(IO) %D');
      782    10141
      783    10142    1   DCL JITFMT31 CHAR(0) CONSTANT INIT(
      784    10143    1   'PCC %D  PCROS %D  PCCQ %D  PCHHJIT %D  PCDDS %D');
      785    10144
      786    10145    1   DCL JITFMT40 CHAR(0) CONSTANT INIT(
      787    10146    1   'PRIV.ACTIVE: .%8ZH   AUTH: .%8ZH  PRC: .%8ZH    PPRIV .%8ZH');
      788    10147
      789    10148    1   DCL JITFMT41 CHAR(0) CONSTANT INIT(
      790    10149    1   'SMCLs: %D JMCLs: %D Steps: %D CVM_REAL: .%8ZH SPROC: %D SLIB: %D  DB: %D');
      791    10150
      792    10151
      793    10152    1   DCL JITFMT50 CHAR(0) CONSTANT INIT(
      794    10153    1   'RNST .%4ZH  FRS .%4ZH  XLIMFLG .%2ZH STEPCC .%2ZH RUNF .%2ZH   JUNK .%4ZH');
      795    10154
      796    10155    1   DCL JITFMT60 CHAR(0) CONSTANT INIT(
      797    10156    1   'Interrupts: MAX %D  CURR %D  SPEAK %D  JPEAK %D  Rtime Clk %D  Xtime Clk %D');
      798    10157
      799    10158    1   DCL JITFMT70 CHAR(0) CONSTANT INIT(
      800    10159    1   'Reads:  Step HO-%@10.32D  UC-%@10.32D  Job HO-%@10.32D  UC-%@10.32D');
      801    10160
PL6.E3A0      #002=DBD$JIT File=DBD$USER.:E05TSI                                 TUE 07/29/97 13:10 Page:124
      802    10161    1   DCL JITFMT71 CHAR(0) CONSTANT INIT(
      803    10162    1   'Writes: Step HO-%@10.32D  UC-%@10.32D  Job HO-%@10.32D  UC-%@10.32D');
      804    10163
      805    10164        %EJECT;
PL6.E3A0      #002=DBD$JIT File=DBD$USER.:E05TSI                                 TUE 07/29/97 13:10 Page:125
      806    10165    1      CALL DAF$INIT(JITRPT);
      807    10166    1      USR_REP_FLG = 0;
      808    10167    2      IF TOP.NSUBLKS=0 THEN DO;
      809    10168    3           DO UN=-1 DOWNTO -DB_MUIS;
      810    10169    3                DA_MAPERR = '0'B;
      811    10170    3                CALL DISPJIT;
      812    10171    3                END;
      813    10172    2           END;
      814    10173    2      ELSE DO;
      815    10174    3           DO I=0 TO TOP.NSUBLKS-1;
      816    10175    4                CALL DBA$SELECTION(TOP.SUBLK$(I)->OUT,UN) WHENRETURN DO;
      817    10176    4                     CALL DISPJIT;
      818    10177    4                     END;
      819    10178    3                END;
      820    10179    2           END;
      821    10180    1      IF USR_REP_FLG>0 THEN DA_MAPERR='0'B;
      822    10181    1      RETURN;
      823    10182        %EJECT;
PL6.E3A0      #002=DBD$JIT File=DBD$USER.:E05TSI                                 TUE 07/29/97 13:10 Page:126
      824    10183    1   DISPJIT: PROC;
      825    10184    2      CALL DBM$GETMEM(ROS$,ROSBASE,UN,SIZEC(ROSBASE),,SIZEC(ROSBASE))
      826    10185    3      WHENALTRETURN DO;
      827    10186    3           RETURN;
      828    10187    3           END;
      829    10188    2      USR_REP_FLG = 1;
      830    10189    2      CALL DBM$PACK4(ROSBASE.JIT$,JIT$);
      831    10190    2      CALL DBM$GETMEM(JIT$,G$JIT,UN,SIZEC(G$JIT));
      832    10191
      833    10192
      834    10193    2      CALL DBM$PACK2(G$JIT.SYSID,SYSID);
      835    10194    2      CALL DBM$PACK1(G$JIT.USR#,JITUN);
      836    10195
      837    10196    2      CALL DBM$PACK2(G$JIT.DLL,DLL);
      838    10197    2      CALL DBM$PACK2(G$JIT.DUL,DUL);
      839    10198    2      CALL DBM$PACK2(G$JIT.PLL,PLL);
      840    10199    2      CALL DBM$PACK2(G$JIT.PUL,PUL);
      841    10200    2      CALL DBM$PACK2(G$JIT.LLL,LLL);
      842    10201    2      CALL DBM$PACK2(G$JIT.LUL,LUL);
      843    10202    2      CALL DBM$PACK2(G$JIT.MAXMEM,MAXMEM);
      844    10203
      845    10204    2      CALL DBM$PACK2(G$JIT.PCD,PCD);
      846    10205    2      CALL DBM$PACK2(G$JIT.PCP,PCP);
      847    10206    2      CALL DBM$PACK2(G$JIT.PCL,PCL);
      848    10207    2      CALL DBM$PACK2(G$JIT.PCDS,PCDS);
      849    10208    2      CALL DBM$PACK2(G$JIT.PCDDS,PCDDS);
      850    10209    2      CALL DBM$PACK2(G$JIT.PCC,PCC);
      851    10210    2      CALL DBM$PACK2(G$JIT.PCROS,PCROS);
      852    10211    2      CALL DBM$PACK2(G$JIT.NSPC,NSPC);
      853    10212    2      CALL DBM$PACK2(G$JIT.CQPC,CQPC);
      854    10213    2      CALL DBM$PACK2(G$JIT.PSEUDOPGS,PSEUDOPGS);
      855    10214
      856    10215    2      CALL DBM$PACK4(G$JIT.PRIV.ACTIVE,PRIV_ACTIVE);
      857    10216    2      CALL DBM$PACK4(G$JIT.PRIV.AUTH,PRIV_AUTH);
      858    10217    2      CALL DBM$PACK4(G$JIT.PRIV.PRC,PRIV_PRC);
      859    10218    2      CALL DBM$PACK4(G$JIT.PPRIV,PPRIV);
      860    10219
PL6.E3A0      #002=DBD$JIT File=DBD$USER.:E05TSI                                 TUE 07/29/97 13:10 Page:127
      861    10220    2      CALL DBM$PACK2(G$JIT.MCLS,SMCLS);
      862    10221    2      CALL DBM$PACK2(G$JIT.JMCLS,JMCLS);
      863    10222    2      CALL DBM$PACK2(G$JIT.STEP,STEPS);
      864    10223    2      CALL DBM$PACK4(G$JIT.CVM_REAL,CVM_REAL);
      865    10224    2      CALL DBM$PACK1(G$JIT.SPROC#,SPROC);
      866    10225    2      CALL DBM$PACK1(G$JIT.SLIB#,SLIB);
      867    10226    2      CALL DBM$PACK1(G$JIT.DB#,DB);
      868    10227
      869    10228    2      CALL DBM$PACK2(G$JIT.RNST,RNST);
      870    10229    2      CALL DBM$PACK2(G$JIT.FRS,FRS);
      871    10230    2      CALL DBM$PACK1(G$JIT.XLIMFLG,XLIMFLG);
      872    10231    2      CALL DBM$PACK1(G$JIT.STEPCC,STEPCC);
      873    10232    2      CALL DBM$PACK1(G$JIT.RUNFLAGS,RUNFLAGS);
      874    10233    2      CALL DBM$PACK2(G$JIT.JUNK,JUNK);
      875    10234
      876    10235
      877    10236    2      CALL DBM$PACK1(G$JIT.MAXLVLS,MAXLVLS);
      878    10237    2      CALL DBM$PACK1(G$JIT.CURRLVLS,CURRLVLS);
      879    10238    2      CALL DBM$PACK2(G$JIT.PEAK_LVLS,SPEAKLVLS);
      880    10239    2      CALL DBM$PACK2(G$JIT.JPEAK_LVLS,JPEAKLVLS);
      881    10240    2      CALL DBM$PACK1(G$JIT.CLUKRLVL,CLUKRLVL);
      882    10241    2      CALL DBM$PACK1(G$JIT.CLUKXLVL,CLUKXLVL);
      883    10242
      884    10243    2      CALL DBM$PACK4(G$JIT.TUEXT,TUEXT);
      885    10244    2      TUEXT=(TUEXT+60)/120/*Seconds*/;
      886    10245    2      CPUMINS=TUEXT/60;
      887    10246    2      CPUSECS=MOD(TUEXT,60);
      888    10247
      889    10248    2      CALL DAF$WRITE(VECTOR(JITFMT10),
      890    10249    2        VECTOR(JITUN),  VECTOR(SYSID),
      891    10250    2        VECTOR(MODECHAR(G$JIT.MODE)),
      892    10251    2        VECTOR(ENTRYCHAR(G$JIT.PROG_ENTRY)),
      893    10252    2        VECTOR(G$JIT.ACCN), VECTOR(G$JIT.UNAME) );
      894    10253    2      CALL DAF$WRITE(VECTOR(BLANK_LINE));
      895    10254
      896    10255    2      CALL DAF$WRITE(VECTOR(JITFMT20),
      897    10256    2        VECTOR(DLL), VECTOR(DUL), VECTOR(PLL), VECTOR(PUL),
PL6.E3A0      #002=DBD$JIT File=DBD$USER.:E05TSI                                 TUE 07/29/97 13:10 Page:128
      898    10257    2        VECTOR(LLL), VECTOR(LUL), VECTOR(MAXMEM) );
      899    10258    2      CALL DAF$WRITE(VECTOR(BLANK_LINE));
      900    10259
      901    10260    2      CALL DAF$WRITE(VECTOR(JITFMT30),
      902    10261    2        VECTOR(PCD), VECTOR(PCP), VECTOR(PCL), VECTOR(PCDS), VECTOR(NSPC) );
      903    10262
      904    10263    2      CALL DAF$WRITE(VECTOR(JITFMT31),
      905    10264    2        VECTOR (PCC), VECTOR(PCROS), VECTOR(CQPC), VECTOR(PSEUDOPGS), VECTOR(PCDDS) );
      906    10265    2      CALL DAF$WRITE(VECTOR(BLANK_LINE));
      907    10266
      908    10267    2      CALL DAF$WRITE(VECTOR(JITFMT40),
      909    10268    2        VECTOR(PRIV_ACTIVE), VECTOR(PRIV_AUTH), VECTOR(PRIV_PRC), VECTOR(PPRIV) );
      910    10269    2      CALL DAF$WRITE(VECTOR(BLANK_LINE));
      911    10270
      912    10271    2      CALL DAF$WRITE(VECTOR(JITFMT41),
      913    10272    2        VECTOR(SMCLS), VECTOR(JMCLS), VECTOR(STEPS), VECTOR(CVM_REAL),
      914    10273    2        VECTOR(SPROC), VECTOR(SLIB), VECTOR(DB) );
      915    10274    2      CALL DAF$WRITE(VECTOR(BLANK_LINE));
      916    10275
      917    10276
      918    10277    2      CALL DAF$WRITE(VECTOR(JITFMT50),
      919    10278    2        VECTOR(RNST), VECTOR(FRS), VECTOR(XLIMFLG), VECTOR(STEPCC),
      920    10279    2        VECTOR(RUNFLAGS), VECTOR(JUNK) );
      921    10280    2      CALL DAF$WRITE(VECTOR(BLANK_LINE));
      922    10281
      923    10282    2      CALL DAF$WRITE(VECTOR(JITFMT60),
      924    10283    2        VECTOR(MAXLVLS), VECTOR(CURRLVLS), VECTOR(SPEAKLVLS),
      925    10284    2        VECTOR(JPEAKLVLS), VECTOR(CLUKRLVL), VECTOR(CLUKXLVL) );
      926    10285    2      CALL DAF$WRITE(VECTOR(BLANK_LINE));
      927    10286
      928    10287    2      CALL DAF$WRITE(VECTOR(JITFMT70),
      929    10288    2        VECTOR(G$JIT.READS_HOST), VECTOR(G$JIT.READS_UC),
      930    10289    2        VECTOR(G$JIT.JREADS_HOST), VECTOR(G$JIT.JREADS_UC) );
      931    10290
      932    10291    2      CALL DAF$WRITE(VECTOR(JITFMT71),
      933    10292    2        VECTOR(G$JIT.WRITES_HOST), VECTOR(G$JIT.WRITES_UC),
      934    10293    2        VECTOR(G$JIT.JWRITES_HOST), VECTOR(G$JIT.JWRITES_UC) );
PL6.E3A0      #002=DBD$JIT File=DBD$USER.:E05TSI                                 TUE 07/29/97 13:10 Page:129
      935    10294    2      CALL DAF$WRITE(VECTOR(BLANK_LINE));
      936    10295
      937    10296    2      CALL DAF$WRITE(VECTOR(JIT_LINE));
      938    10297    2      FPT_ERRMSG.BUF_ = VECTOR(ERRBUF);
      939    10298    2      T$ = ADDR(G$JIT.ERR);
      940    10299    2      FPT_ERRMSG.CODE_ = VECTOR(T$->B$1WORD);
      941    10300    2      CALL M$ERRMSG(FPT_ERRMSG);
      942    10301
      943    10302    2      T$ = ADDR(G$JIT.FD_ALTERR);
      944    10303    2      FPT_ERRMSG.CODE_ = VECTOR(T$->B$1WORD);
      945    10304    3      CALL M$ERRMSG(FPT_ERRMSG) WHENALTRETURN DO; END;
      946    10305
      947    10306    2      CALL DAF$WRITE(VECTOR(BLANK_LINE));
      948    10307    2      RETURN;
      949    10308    2   END DISPJIT;
      950    10309    1   END DBD$JIT;

PL6.E3A0      #002=DBD$JIT File=DBD$USER.:E05TSI                                 TUE 07/29/97 13:10 Page:130
--  Include file information  --

   XU_MACRO_C.:E05TOU  is referenced.
   DA_FORMAT_C.:E05TOU  is referenced.
   GM_VIRTUAL_E.:E05TOU  is referenced.
   G_LCP6_E.:E05TOU  is referenced.
   G_JIT_M.:E05TOU  is referenced.
   CP_6_C.:E05TOU  is referenced.
   CP_6.:E05TOU  cannot be made into a system file and is referenced.
      No diagnostics issued in procedure DBD$JIT.

   Procedure DBD$JIT requires 1118 words for executable code.
   Procedure DBD$JIT requires 340 words of local(AUTO) storage.

    No errors detected in file DBD$USER.:E05TSI    .

PL6.E3A0      #002=DBD$JIT File=DBD$USER.:E05TSI                                 TUE 07/29/97 13:10 Page:131

 Object Unit name= DBD$JIT                                    File name= DBD$USER.:E05TOU
 UTS= JUL 29 '97 13:10:35.92 TUE                              Compiler= PL-6/E31         Sev=      00
 SharedLib= :SHARED_SYSTEM                                    Alt SharedLib=


    ****  Control sections  ****

 Sect   Type Bound  Init  Size OctSiz  Section name(segment info)
    0   DCB   even  none     0      0  M$UC
    1   Data  even  none    42     52  DBD$JIT
    2   DCB   even  none     0      0  M$DO
    3  RoData even  UTS    192    300  DBD$JIT
    4   Proc  even  none  1118   2136  DBD$JIT
    5  RoData even  none    82    122  DBD$JIT

    ****  Entry defs  ****

                              Check   Calling
                             calling  sequence
  Sect OctLoc Primary Altret sequence   type   Parms  Name
     4      0   yes            yes      Std        1  DBD$JIT

  ****  Entry refs  ****

         Check        Calling
        calling       sequence
Altret sequence SRef   type   Args  Name
 yes     yes           Std       1 DAF$INIT
 yes     yes           Std       3 DBA$SELECTION
 yes     yes           Std      10 DBM$GETMEM
         yes           Std       2 DBM$PACK2
         yes           Std       2 DBM$PACK1
         yes           Std       2 DBM$PACK4
                       nStd      0 X66_AUTO_1
                       Std       0 B_CONSPOOL_D
                       nStd      0 X66_ARET
PL6.E3A0      #002=DBD$JIT File=DBD$USER.:E05TSI                                 TUE 07/29/97 13:10 Page:132

  ****  Data refs  ****

  Flags:  r = read only, s = secondary
Flgs Name                             Flgs Name                             Flgs Name
     M$UC                                  DAF$WRITE                             DB_MUIS
     DA_MAPERR                             M$DO                                  B_VECTNIL

  ****  Segment refs  ****

  Flags:  r = read only, s = secondary
Flgs Name                             Flgs Name                             Flgs Name
     ISSID                                 NULLSID
PL6.E3A0      #002=DBD$JIT File=DBD$USER.:E05TSI                                 TUE 07/29/97 13:10 Page:133


      648        1        /*T***********************************************************/
      649        2        /*T*                                                         */
      650        3        /*T* Copyright (c) Bull HN Information Systems Inc., 1997    */
      651        4        /*T*                                                         */
      652        5        /*T***********************************************************/
      653        6        /*F* NAME: DBD$JIT
      654        7             PURPOSE:  To process the JIT command for FEPs.
      655        8        */
      656        9        DBD$JIT: PROC(TOP);

      9  4 000000   000000 700200 xent  DBD$JIT      TSX0  ! X66_AUTO_1
         4 000001   000524 000001                    ZERO    340,1

      657       10        %INCLUDE CP_6;
      658     5569        %INCLUDE G_JIT_M;
      659     5834        %INCLUDE G_LCP6_E;
      660     6092        %INCLUDE GM_VIRTUAL_E;
      661     6302        %INCLUDE DA_FORMAT_C;
      662     6544        %INCLUDE XU_MACRO_C;
      663     9650
      664     9651        %PARSE$OUT (NAME=TOP,STCLASS=PARAM);
      665     9696        %PARSE$OUT (NAME=OUT,STCLASS=BASED);
      666     9741
      667     9742    1   DCL DAA$VALUE ENTRY(3) ALTRET;
      668     9743    1   DCL DAF$WRITE EPTR SYMREF;
      669     9744    1   DCL DAF$INIT ENTRY(1) ALTRET;
      670     9745    1   DCL DBA$SELECTION ENTRY(3) ALTRET;
      671     9746    1   DCL DBM$GETMEM ENTRY(10) ALTRET;
      672     9747    1   DCL DBM$GETBOBCAT ENTRY(1) ALTRET;
      673     9748    1   DCL DBM$PACK1 ENTRY(2);
      674     9749    1   DCL DBM$PACK2 ENTRY(2);
      675     9750    1   DCL DBM$PACK4 ENTRY(2);
      676     9751    1   DCL DBM$SYSID2UN ENTRY(1) ALTRET;
      677     9752
      678     9753    1   DCL DB_MUIS UBIN SYMREF;
      679     9754    1   DCL DA_MAPERR BIT(36) SYMREF;
PL6.E3A0      #002=DBD$JIT File=DBD$USER.:E05TSI                                 TUE 07/29/97 13:10 Page:134
      680     9755    1   DCL DB_USRT$ UBIN SYMREF;
      681     9756    1   DCL DB_CUN UBIN SYMREF;
      682     9757
      683     9758        %FPT_ERRMSG (L6_CODE=YES, OUTDCB1=M$DO);
      684     9785    1   DCL ERRBUF CHAR(200);
      685     9786    1   DCL B$1WORD UBIN BASED;
      686     9787    1   DCL M$DO DCB;
      687     9788
      688     9789        %EJECT;
PL6.E3A0      #002=DBD$JIT File=DBD$USER.:E05TSI                                 TUE 07/29/97 13:10 Page:135
      689     9790    1   DCL ROS$ UBIN CONSTANT INIT(%GM_ROS_BASE);
      690     9791    1   DCL 1 ROSBASE AUTO,
      691     9792    1         2 DCBPTR$ UBIN,
      692     9793    1         2 JIT$ UBIN,
      693     9794    1         2 ALT$ UBIN,
      694     9795    1         2 STK$ UBIN;
      695     9796
      696     9797    1   DCL JIT$ UBIN;
      697     9798        %G$JIT(FPTN=G$JIT,STCLASS=AUTO);
      698     9992
      699     9993    1   DCL CPUMINS SBIN;
      700     9994    1   DCL CPUSECS SBIN;
      701     9995
      702     9996    1   DCL TUEXT SBIN;
      703     9997    1   DCL TUSVT UBIN;
      704     9998    1   DCL MRT UBIN;
      705     9999
      706    10000
      707    10001    1   DCL SYSID UBIN;
      708    10002    1   DCL JITUN UBIN;
      709    10003
      710    10004    1   DCL DLL UBIN;
      711    10005    1   DCL DUL UBIN;
      712    10006    1   DCL PLL UBIN;
      713    10007    1   DCL PUL UBIN;
      714    10008    1   DCL LLL UBIN;
      715    10009    1   DCL LUL UBIN;
      716    10010    1   DCL MAXMEM UBIN;
      717    10011
      718    10012    1   DCL PCD UBIN;
      719    10013    1   DCL PCP UBIN;
      720    10014    1   DCL PCL UBIN;
      721    10015    1   DCL PCDS UBIN;
      722    10016    1   DCL PCDDS UBIN;
      723    10017    1   DCL PCC UBIN;
      724    10018    1   DCL PCROS UBIN;
      725    10019    1   DCL PSEUDOPGS UBIN;
PL6.E3A0      #002=DBD$JIT File=DBD$USER.:E05TSI                                 TUE 07/29/97 13:10 Page:136
      726    10020    1   DCL NSPC UBIN;
      727    10021    1   DCL CQPC UBIN;
      728    10022
      729    10023    1   DCL PRIV_ACTIVE UBIN;
      730    10024    1   DCL PRIV_AUTH UBIN;
      731    10025    1   DCL PRIV_PRC UBIN;
      732    10026    1   DCL PPRIV UBIN;
      733    10027
      734    10028    1   DCL JMCLS UBIN;
      735    10029    1   DCL SMCLS UBIN;
      736    10030    1   DCL STEPS UBIN;
      737    10031    1   DCL CVM_REAL UBIN;
      738    10032    1   DCL SPROC UBIN;
      739    10033    1   DCL SLIB UBIN;
      740    10034    1   DCL DB UBIN;
      741    10035
      742    10036    1   DCL RNST UBIN;
      743    10037    1   DCL FRS UBIN;
      744    10038    1   DCL XLIMFLG UBIN;
      745    10039    1   DCL STEPCC UBIN;
      746    10040    1   DCL RUNFLAGS UBIN;
      747    10041    1   DCL JUNK UBIN;
      748    10042
      749    10043    1   DCL MAXLVLS UBIN;
      750    10044    1   DCL CURRLVLS UBIN;
      751    10045    1   DCL SPEAKLVLS UBIN;
      752    10046    1   DCL JPEAKLVLS UBIN;
      753    10047    1   DCL CLUKRLVL UBIN;
      754    10048    1   DCL CLUKXLVL UBIN;
      755    10049
      756    10050
      757    10051        %EJECT;
PL6.E3A0      #002=DBD$JIT File=DBD$USER.:E05TSI                                 TUE 07/29/97 13:10 Page:137
      758    10052    1   DCL I UBIN;
      759    10053    1   DCL USR_REP_FLG UBIN;
      760    10054    1   DCL UN SBIN;
      761    10055    1   DCL RADIX UBIN;
      762    10056    1   DCL T$ PTR;
      763    10057
      764    10058        %EJECT;
PL6.E3A0      #002=DBD$JIT File=DBD$USER.:E05TSI                                 TUE 07/29/97 13:10 Page:138
      765    10059    1   DCL BLANK_LINE CHAR(1) CONSTANT INIT(' ');
      766    10060    1   DCL JIT_LINE CHAR(0) CONSTANT INIT('JIT.ERR and JIT_FD_ALTERR');
      767    10061    1   DCL ENTRYCHAR(0:2) CHAR(7) CONSTANT INIT(
      768    10062    1   'Bigfoot','M$SETFP','M$LDTRC');
      769    10063    1   DCL MODECHAR(0:4) CHAR(8) CONSTANT INIT(
      770    10064    1   ' ','User','Comgroup','Handler','Ghost');
      771    10065
      772    10066        %REPORT (NAME=JITRPT,TRUNC=YES,HEADER=NO,TITLE='FEP JIT - Job Information Table');
      773    10132
      774    10133    1   DCL JITFMT10 CHAR(0) CONSTANT INIT(
      775    10134    1   'JIT for User# .%2ZH Sysid %D  Mode: %>A  Prog entry: %>A  %>A,%>A');
      776    10135
      777    10136    1   DCL JITFMT20 CHAR(0) CONSTANT INIT(
      778    10137    1   'DLL .%4ZH  DUL .%4ZH  PLL .%4ZH  PUL .%4ZH  LLL .%4ZH  LUL .%4ZH  MAXMEM %D');
      779    10138
      780    10139    1   DCL JITFMT30 CHAR(0) CONSTANT INIT(
      781    10140    1   'PCD %D   PCP %D   PCL %D   PCDS(non-IO) %D  PCDS(IO) %D');
      782    10141
      783    10142    1   DCL JITFMT31 CHAR(0) CONSTANT INIT(
      784    10143    1   'PCC %D  PCROS %D  PCCQ %D  PCHHJIT %D  PCDDS %D');
      785    10144
      786    10145    1   DCL JITFMT40 CHAR(0) CONSTANT INIT(
      787    10146    1   'PRIV.ACTIVE: .%8ZH   AUTH: .%8ZH  PRC: .%8ZH    PPRIV .%8ZH');
      788    10147
      789    10148    1   DCL JITFMT41 CHAR(0) CONSTANT INIT(
      790    10149    1   'SMCLs: %D JMCLs: %D Steps: %D CVM_REAL: .%8ZH SPROC: %D SLIB: %D  DB: %D');
      791    10150
      792    10151
      793    10152    1   DCL JITFMT50 CHAR(0) CONSTANT INIT(
      794    10153    1   'RNST .%4ZH  FRS .%4ZH  XLIMFLG .%2ZH STEPCC .%2ZH RUNF .%2ZH   JUNK .%4ZH');
      795    10154
      796    10155    1   DCL JITFMT60 CHAR(0) CONSTANT INIT(
      797    10156    1   'Interrupts: MAX %D  CURR %D  SPEAK %D  JPEAK %D  Rtime Clk %D  Xtime Clk %D');
      798    10157
      799    10158    1   DCL JITFMT70 CHAR(0) CONSTANT INIT(
      800    10159    1   'Reads:  Step HO-%@10.32D  UC-%@10.32D  Job HO-%@10.32D  UC-%@10.32D');
      801    10160
PL6.E3A0      #002=DBD$JIT File=DBD$USER.:E05TSI                                 TUE 07/29/97 13:10 Page:139
      802    10161    1   DCL JITFMT71 CHAR(0) CONSTANT INIT(
      803    10162    1   'Writes: Step HO-%@10.32D  UC-%@10.32D  Job HO-%@10.32D  UC-%@10.32D');
      804    10163
      805    10164        %EJECT;
PL6.E3A0      #002=DBD$JIT File=DBD$USER.:E05TSI                                 TUE 07/29/97 13:10 Page:140
      806    10165    1      CALL DAF$INIT(JITRPT);

  10165  4 000002   000000 630400 5                  EPPR0   0
         4 000003   000017 631400 xsym               EPPR1   B_VECTNIL+15
         4 000004   000000 701000 xent               TSX1    DAF$INIT
         4 000005   000000 011000                    NOP     0

      807    10166    1      USR_REP_FLG = 0;

  10166  4 000006   200433 450100                    STZ     USR_REP_FLG,,AUTO

      808    10167    2      IF TOP.NSUBLKS=0 THEN DO;

  10167  4 000007   200003 470500                    LDP0    @TOP,,AUTO
         4 000010   000001 220100                    LDX0    1,,PR0
         4 000011   000027 601000 4                  TNZ     s:10174

      809    10168    3           DO UN=-1 DOWNTO -DB_MUIS;

  10168  4 000012   000001 335007                    LCA     1,DL
         4 000013   200434 755100                    STA     UN,,AUTO
         4 000014   000022 710000 4                  TRA     s:10171+2

      810    10169    3                DA_MAPERR = '0'B;

  10169  4 000015   000000 450000 xsym               STZ     DA_MAPERR

      811    10170    3                CALL DISPJIT;

  10170  4 000016   000062 701000 4                  TSX1    DISPJIT
         4 000017   000000 011000                    NOP     0

      812    10171    3                END;

  10171  4 000020   000001 336007                    LCQ     1,DL
         4 000021   200434 056100                    ASQ     UN,,AUTO
         4 000022   000000 236003                    LDQ     0,DU
PL6.E3A0      #002=DBD$JIT File=DBD$USER.:E05TSI                                 TUE 07/29/97 13:10 Page:141
         4 000023   000000 136000 xsym               SBLQ    DB_MUIS
         4 000024   200434 116100                    CMPQ    UN,,AUTO
         4 000025   000015 604400 4                  TMOZ    s:10169

      813    10172    2           END;

  10172  4 000026   000056 710000 4                  TRA     s:10180

      814    10173    2      ELSE DO;

      815    10174    3           DO I=0 TO TOP.NSUBLKS-1;

  10174  4 000027   200432 450100                    STZ     I,,AUTO
         4 000030   000050 710000 4                  TRA     s:10178+3

      816    10175    4                CALL DBA$SELECTION(TOP.SUBLK$(I)->OUT,UN) WHENRETURN DO;

  10175  4 000031   200003 470500                    LDP0    @TOP,,AUTO
         4 000032   200432 720100                    LXL0    I,,AUTO
         4 000033   000003 471510                    LDP1    3,X0,PR0
         4 000034   200434 633500                    EPPR3   UN,,AUTO
         4 000035   200443 453500                    STP3    T$+5,,AUTO
         4 000036   200442 451500                    STP1    T$+4,,AUTO
         4 000037   200442 630500                    EPPR0   T$+4,,AUTO
         4 000040   000020 631400 xsym               EPPR1   B_VECTNIL+16
         4 000041   000000 701000 xent               TSX1    DBA$SELECTION
         4 000042   000045 702000 4                  TSX2    s:10178

      817    10176    4                     CALL DISPJIT;

  10176  4 000043   000062 701000 4                  TSX1    DISPJIT
         4 000044   000000 011000                    NOP     0

      818    10177    4                     END;

      819    10178    3                END;

PL6.E3A0      #002=DBD$JIT File=DBD$USER.:E05TSI                                 TUE 07/29/97 13:10 Page:142
  10178  4 000045   200432 235100                    LDA     I,,AUTO
         4 000046   000001 035007                    ADLA    1,DL
         4 000047   200432 755100                    STA     I,,AUTO
         4 000050   200003 470500                    LDP0    @TOP,,AUTO
         4 000051   000001 236100                    LDQ     1,,PR0
         4 000052   000022 772000                    QRL     18
         4 000053   200432 116100                    CMPQ    I,,AUTO
         4 000054   000056 600000 4                  TZE     s:10180
         4 000055   000031 603000 4                  TRC     s:10175

      820    10179    2           END;

      821    10180    1      IF USR_REP_FLG>0 THEN DA_MAPERR='0'B;

  10180  4 000056   200433 235100                    LDA     USR_REP_FLG,,AUTO
         4 000057   000061 600000 4                  TZE     s:10181

  10180  4 000060   000000 450000 xsym               STZ     DA_MAPERR

      822    10181    1      RETURN;

  10181  4 000061   000000 702200 xent               TSX2  ! X66_ARET

      823    10182        %EJECT;
PL6.E3A0      #002=DBD$JIT File=DBD$USER.:E05TSI                                 TUE 07/29/97 13:10 Page:143
      824    10183    1   DISPJIT: PROC;

  10183  4 000062   200440 741300       DISPJIT      STX1  ! T$+2,,AUTO

      825    10184    2      CALL DBM$GETMEM(ROS$,ROSBASE,UN,SIZEC(ROSBASE),,SIZEC(ROSBASE))

  10184  4 000063   000002 236000 5                  LDQ     2
         4 000064   000001 235000 xsym               LDA     B_VECTNIL+1
         4 000065   200446 757100                    STAQ    T$+8,,AUTO
         4 000066   000002 236000 5                  LDQ     2
         4 000067   200445 756100                    STQ     T$+7,,AUTO
         4 000070   200434 630500                    EPPR0   UN,,AUTO
         4 000071   200444 450500                    STP0    T$+6,,AUTO
         4 000072   200066 631500                    EPPR1   ROSBASE,,AUTO
         4 000073   200443 451500                    STP1    T$+5,,AUTO
         4 000074   000003 236000 5                  LDQ     3
         4 000075   200442 756100                    STQ     T$+4,,AUTO
         4 000076   200442 630500                    EPPR0   T$+4,,AUTO
         4 000077   000024 631400 xsym               EPPR1   B_VECTNIL+20
         4 000100   000000 701000 xent               TSX1    DBM$GETMEM
         4 000101   000103 702000 4                  TSX2    s:10186
         4 000102   000105 710000 4                  TRA     s:10188

      826    10185    3      WHENALTRETURN DO;

      827    10186    3           RETURN;

  10186  4 000103   200440 221300                    LDX1  ! T$+2,,AUTO
         4 000104   000001 702211                    TSX2  ! 1,X1

      828    10187    3           END;
      829    10188    2      USR_REP_FLG = 1;

  10188  4 000105   000001 235007                    LDA     1,DL
         4 000106   200433 755100                    STA     USR_REP_FLG,,AUTO

      830    10189    2      CALL DBM$PACK4(ROSBASE.JIT$,JIT$);
PL6.E3A0      #002=DBD$JIT File=DBD$USER.:E05TSI                                 TUE 07/29/97 13:10 Page:144

  10189  4 000107   200072 630500                    EPPR0   JIT$,,AUTO
         4 000110   200443 450500                    STP0    T$+5,,AUTO
         4 000111   200067 631500                    EPPR1   ROSBASE+1,,AUTO
         4 000112   200442 451500                    STP1    T$+4,,AUTO
         4 000113   200442 630500                    EPPR0   T$+4,,AUTO
         4 000114   000020 631400 xsym               EPPR1   B_VECTNIL+16
         4 000115   000000 701000 xent               TSX1    DBM$PACK4
         4 000116   000000 011000                    NOP     0

      831    10190    2      CALL DBM$GETMEM(JIT$,G$JIT,UN,SIZEC(G$JIT));

  10190  4 000117   000005 236000 5                  LDQ     5
         4 000120   200445 756100                    STQ     T$+7,,AUTO
         4 000121   200434 630500                    EPPR0   UN,,AUTO
         4 000122   200444 450500                    STP0    T$+6,,AUTO
         4 000123   200073 631500                    EPPR1   G$JIT,,AUTO
         4 000124   200443 451500                    STP1    T$+5,,AUTO
         4 000125   200072 633500                    EPPR3   JIT$,,AUTO
         4 000126   200442 453500                    STP3    T$+4,,AUTO
         4 000127   200442 630500                    EPPR0   T$+4,,AUTO
         4 000130   000022 631400 xsym               EPPR1   B_VECTNIL+18
         4 000131   000000 701000 xent               TSX1    DBM$GETMEM
         4 000132   000000 011000                    NOP     0

      832    10191
      833    10192
      834    10193    2      CALL DBM$PACK2(G$JIT.SYSID,SYSID);

  10193  4 000133   200360 630500                    EPPR0   SYSID,,AUTO
         4 000134   200443 450500                    STP0    T$+5,,AUTO
         4 000135   200444 452500                    STP2    T$+6,,AUTO
         4 000136   200444 236100                    LDQ     T$+6,,AUTO
         4 000137   000006 036000 5                  ADLQ    6
         4 000140   200442 756100                    STQ     T$+4,,AUTO
         4 000141   200442 630500                    EPPR0   T$+4,,AUTO
         4 000142   000020 631400 xsym               EPPR1   B_VECTNIL+16
PL6.E3A0      #002=DBD$JIT File=DBD$USER.:E05TSI                                 TUE 07/29/97 13:10 Page:145
         4 000143   000000 701000 xent               TSX1    DBM$PACK2
         4 000144   000000 011000                    NOP     0

      835    10194    2      CALL DBM$PACK1(G$JIT.USR#,JITUN);

  10194  4 000145   200361 630500                    EPPR0   JITUN,,AUTO
         4 000146   200443 450500                    STP0    T$+5,,AUTO
         4 000147   200444 452500                    STP2    T$+6,,AUTO
         4 000150   200444 236100                    LDQ     T$+6,,AUTO
         4 000151   000007 036000 5                  ADLQ    7
         4 000152   200442 756100                    STQ     T$+4,,AUTO
         4 000153   200442 630500                    EPPR0   T$+4,,AUTO
         4 000154   000020 631400 xsym               EPPR1   B_VECTNIL+16
         4 000155   000000 701000 xent               TSX1    DBM$PACK1
         4 000156   000000 011000                    NOP     0

      836    10195
      837    10196    2      CALL DBM$PACK2(G$JIT.DLL,DLL);

  10196  4 000157   200362 630500                    EPPR0   DLL,,AUTO
         4 000160   200443 450500                    STP0    T$+5,,AUTO
         4 000161   200444 452500                    STP2    T$+6,,AUTO
         4 000162   200444 236100                    LDQ     T$+6,,AUTO
         4 000163   000010 036000 5                  ADLQ    8
         4 000164   200442 756100                    STQ     T$+4,,AUTO
         4 000165   200442 630500                    EPPR0   T$+4,,AUTO
         4 000166   000020 631400 xsym               EPPR1   B_VECTNIL+16
         4 000167   000000 701000 xent               TSX1    DBM$PACK2
         4 000170   000000 011000                    NOP     0

      838    10197    2      CALL DBM$PACK2(G$JIT.DUL,DUL);

  10197  4 000171   200363 630500                    EPPR0   DUL,,AUTO
         4 000172   200443 450500                    STP0    T$+5,,AUTO
         4 000173   200170 631500                    EPPR1   G$JIT+61,,AUTO
         4 000174   200442 451500                    STP1    T$+4,,AUTO
         4 000175   200442 630500                    EPPR0   T$+4,,AUTO
PL6.E3A0      #002=DBD$JIT File=DBD$USER.:E05TSI                                 TUE 07/29/97 13:10 Page:146
         4 000176   000020 631400 xsym               EPPR1   B_VECTNIL+16
         4 000177   000000 701000 xent               TSX1    DBM$PACK2
         4 000200   000000 011000                    NOP     0

      839    10198    2      CALL DBM$PACK2(G$JIT.PLL,PLL);

  10198  4 000201   200364 630500                    EPPR0   PLL,,AUTO
         4 000202   200443 450500                    STP0    T$+5,,AUTO
         4 000203   200444 452500                    STP2    T$+6,,AUTO
         4 000204   200444 236100                    LDQ     T$+6,,AUTO
         4 000205   000011 036000 5                  ADLQ    9
         4 000206   200442 756100                    STQ     T$+4,,AUTO
         4 000207   200442 630500                    EPPR0   T$+4,,AUTO
         4 000210   000020 631400 xsym               EPPR1   B_VECTNIL+16
         4 000211   000000 701000 xent               TSX1    DBM$PACK2
         4 000212   000000 011000                    NOP     0

      840    10199    2      CALL DBM$PACK2(G$JIT.PUL,PUL);

  10199  4 000213   200365 630500                    EPPR0   PUL,,AUTO
         4 000214   200443 450500                    STP0    T$+5,,AUTO
         4 000215   200171 631500                    EPPR1   G$JIT+62,,AUTO
         4 000216   200442 451500                    STP1    T$+4,,AUTO
         4 000217   200442 630500                    EPPR0   T$+4,,AUTO
         4 000220   000020 631400 xsym               EPPR1   B_VECTNIL+16
         4 000221   000000 701000 xent               TSX1    DBM$PACK2
         4 000222   000000 011000                    NOP     0

      841    10200    2      CALL DBM$PACK2(G$JIT.LLL,LLL);

  10200  4 000223   200366 630500                    EPPR0   LLL,,AUTO
         4 000224   200443 450500                    STP0    T$+5,,AUTO
         4 000225   200444 452500                    STP2    T$+6,,AUTO
         4 000226   200444 236100                    LDQ     T$+6,,AUTO
         4 000227   000012 036000 5                  ADLQ    10
         4 000230   200442 756100                    STQ     T$+4,,AUTO
         4 000231   200442 630500                    EPPR0   T$+4,,AUTO
PL6.E3A0      #002=DBD$JIT File=DBD$USER.:E05TSI                                 TUE 07/29/97 13:10 Page:147
         4 000232   000020 631400 xsym               EPPR1   B_VECTNIL+16
         4 000233   000000 701000 xent               TSX1    DBM$PACK2
         4 000234   000000 011000                    NOP     0

      842    10201    2      CALL DBM$PACK2(G$JIT.LUL,LUL);

  10201  4 000235   200367 630500                    EPPR0   LUL,,AUTO
         4 000236   200443 450500                    STP0    T$+5,,AUTO
         4 000237   200172 631500                    EPPR1   G$JIT+63,,AUTO
         4 000240   200442 451500                    STP1    T$+4,,AUTO
         4 000241   200442 630500                    EPPR0   T$+4,,AUTO
         4 000242   000020 631400 xsym               EPPR1   B_VECTNIL+16
         4 000243   000000 701000 xent               TSX1    DBM$PACK2
         4 000244   000000 011000                    NOP     0

      843    10202    2      CALL DBM$PACK2(G$JIT.MAXMEM,MAXMEM);

  10202  4 000245   200370 630500                    EPPR0   MAXMEM,,AUTO
         4 000246   200443 450500                    STP0    T$+5,,AUTO
         4 000247   200444 452500                    STP2    T$+6,,AUTO
         4 000250   200444 236100                    LDQ     T$+6,,AUTO
         4 000251   000013 036000 5                  ADLQ    11
         4 000252   200442 756100                    STQ     T$+4,,AUTO
         4 000253   200442 630500                    EPPR0   T$+4,,AUTO
         4 000254   000020 631400 xsym               EPPR1   B_VECTNIL+16
         4 000255   000000 701000 xent               TSX1    DBM$PACK2
         4 000256   000000 011000                    NOP     0

      844    10203
      845    10204    2      CALL DBM$PACK2(G$JIT.PCD,PCD);

  10204  4 000257   200371 630500                    EPPR0   PCD,,AUTO
         4 000260   200443 450500                    STP0    T$+5,,AUTO
         4 000261   200173 631500                    EPPR1   G$JIT+64,,AUTO
         4 000262   200442 451500                    STP1    T$+4,,AUTO
         4 000263   200442 630500                    EPPR0   T$+4,,AUTO
         4 000264   000020 631400 xsym               EPPR1   B_VECTNIL+16
PL6.E3A0      #002=DBD$JIT File=DBD$USER.:E05TSI                                 TUE 07/29/97 13:10 Page:148
         4 000265   000000 701000 xent               TSX1    DBM$PACK2
         4 000266   000000 011000                    NOP     0

      846    10205    2      CALL DBM$PACK2(G$JIT.PCP,PCP);

  10205  4 000267   200372 630500                    EPPR0   PCP,,AUTO
         4 000270   200443 450500                    STP0    T$+5,,AUTO
         4 000271   200444 452500                    STP2    T$+6,,AUTO
         4 000272   200444 236100                    LDQ     T$+6,,AUTO
         4 000273   000014 036000 5                  ADLQ    12
         4 000274   200442 756100                    STQ     T$+4,,AUTO
         4 000275   200442 630500                    EPPR0   T$+4,,AUTO
         4 000276   000020 631400 xsym               EPPR1   B_VECTNIL+16
         4 000277   000000 701000 xent               TSX1    DBM$PACK2
         4 000300   000000 011000                    NOP     0

      847    10206    2      CALL DBM$PACK2(G$JIT.PCL,PCL);

  10206  4 000301   200373 630500                    EPPR0   PCL,,AUTO
         4 000302   200443 450500                    STP0    T$+5,,AUTO
         4 000303   200174 631500                    EPPR1   G$JIT+65,,AUTO
         4 000304   200442 451500                    STP1    T$+4,,AUTO
         4 000305   200442 630500                    EPPR0   T$+4,,AUTO
         4 000306   000020 631400 xsym               EPPR1   B_VECTNIL+16
         4 000307   000000 701000 xent               TSX1    DBM$PACK2
         4 000310   000000 011000                    NOP     0

      848    10207    2      CALL DBM$PACK2(G$JIT.PCDS,PCDS);

  10207  4 000311   200374 630500                    EPPR0   PCDS,,AUTO
         4 000312   200443 450500                    STP0    T$+5,,AUTO
         4 000313   200444 452500                    STP2    T$+6,,AUTO
         4 000314   200444 236100                    LDQ     T$+6,,AUTO
         4 000315   000015 036000 5                  ADLQ    13
         4 000316   200442 756100                    STQ     T$+4,,AUTO
         4 000317   200442 630500                    EPPR0   T$+4,,AUTO
         4 000320   000020 631400 xsym               EPPR1   B_VECTNIL+16
PL6.E3A0      #002=DBD$JIT File=DBD$USER.:E05TSI                                 TUE 07/29/97 13:10 Page:149
         4 000321   000000 701000 xent               TSX1    DBM$PACK2
         4 000322   000000 011000                    NOP     0

      849    10208    2      CALL DBM$PACK2(G$JIT.PCDDS,PCDDS);

  10208  4 000323   200375 630500                    EPPR0   PCDDS,,AUTO
         4 000324   200443 450500                    STP0    T$+5,,AUTO
         4 000325   200175 631500                    EPPR1   G$JIT+66,,AUTO
         4 000326   200442 451500                    STP1    T$+4,,AUTO
         4 000327   200442 630500                    EPPR0   T$+4,,AUTO
         4 000330   000020 631400 xsym               EPPR1   B_VECTNIL+16
         4 000331   000000 701000 xent               TSX1    DBM$PACK2
         4 000332   000000 011000                    NOP     0

      850    10209    2      CALL DBM$PACK2(G$JIT.PCC,PCC);

  10209  4 000333   200376 630500                    EPPR0   PCC,,AUTO
         4 000334   200443 450500                    STP0    T$+5,,AUTO
         4 000335   200444 452500                    STP2    T$+6,,AUTO
         4 000336   200444 236100                    LDQ     T$+6,,AUTO
         4 000337   000016 036000 5                  ADLQ    14
         4 000340   200442 756100                    STQ     T$+4,,AUTO
         4 000341   200442 630500                    EPPR0   T$+4,,AUTO
         4 000342   000020 631400 xsym               EPPR1   B_VECTNIL+16
         4 000343   000000 701000 xent               TSX1    DBM$PACK2
         4 000344   000000 011000                    NOP     0

      851    10210    2      CALL DBM$PACK2(G$JIT.PCROS,PCROS);

  10210  4 000345   200377 630500                    EPPR0   PCROS,,AUTO
         4 000346   200443 450500                    STP0    T$+5,,AUTO
         4 000347   200176 631500                    EPPR1   G$JIT+67,,AUTO
         4 000350   200442 451500                    STP1    T$+4,,AUTO
         4 000351   200442 630500                    EPPR0   T$+4,,AUTO
         4 000352   000020 631400 xsym               EPPR1   B_VECTNIL+16
         4 000353   000000 701000 xent               TSX1    DBM$PACK2
         4 000354   000000 011000                    NOP     0
PL6.E3A0      #002=DBD$JIT File=DBD$USER.:E05TSI                                 TUE 07/29/97 13:10 Page:150

      852    10211    2      CALL DBM$PACK2(G$JIT.NSPC,NSPC);

  10211  4 000355   200401 630500                    EPPR0   NSPC,,AUTO
         4 000356   200443 450500                    STP0    T$+5,,AUTO
         4 000357   200444 452500                    STP2    T$+6,,AUTO
         4 000360   200444 236100                    LDQ     T$+6,,AUTO
         4 000361   000017 036000 5                  ADLQ    15
         4 000362   200442 756100                    STQ     T$+4,,AUTO
         4 000363   200442 630500                    EPPR0   T$+4,,AUTO
         4 000364   000020 631400 xsym               EPPR1   B_VECTNIL+16
         4 000365   000000 701000 xent               TSX1    DBM$PACK2
         4 000366   000000 011000                    NOP     0

      853    10212    2      CALL DBM$PACK2(G$JIT.CQPC,CQPC);

  10212  4 000367   200402 630500                    EPPR0   CQPC,,AUTO
         4 000370   200443 450500                    STP0    T$+5,,AUTO
         4 000371   200444 452500                    STP2    T$+6,,AUTO
         4 000372   200444 236100                    LDQ     T$+6,,AUTO
         4 000373   000020 036000 5                  ADLQ    16
         4 000374   200442 756100                    STQ     T$+4,,AUTO
         4 000375   200442 630500                    EPPR0   T$+4,,AUTO
         4 000376   000020 631400 xsym               EPPR1   B_VECTNIL+16
         4 000377   000000 701000 xent               TSX1    DBM$PACK2
         4 000400   000000 011000                    NOP     0

      854    10213    2      CALL DBM$PACK2(G$JIT.PSEUDOPGS,PSEUDOPGS);

  10213  4 000401   200400 630500                    EPPR0   PSEUDOPGS,,AUTO
         4 000402   200443 450500                    STP0    T$+5,,AUTO
         4 000403   200200 631500                    EPPR1   G$JIT+69,,AUTO
         4 000404   200442 451500                    STP1    T$+4,,AUTO
         4 000405   200442 630500                    EPPR0   T$+4,,AUTO
         4 000406   000020 631400 xsym               EPPR1   B_VECTNIL+16
         4 000407   000000 701000 xent               TSX1    DBM$PACK2
         4 000410   000000 011000                    NOP     0
PL6.E3A0      #002=DBD$JIT File=DBD$USER.:E05TSI                                 TUE 07/29/97 13:10 Page:151

      855    10214
      856    10215    2      CALL DBM$PACK4(G$JIT.PRIV.ACTIVE,PRIV_ACTIVE);

  10215  4 000411   200403 630500                    EPPR0   PRIV_ACTIVE,,AUTO
         4 000412   200443 450500                    STP0    T$+5,,AUTO
         4 000413   200202 631500                    EPPR1   G$JIT+71,,AUTO
         4 000414   200442 451500                    STP1    T$+4,,AUTO
         4 000415   200442 630500                    EPPR0   T$+4,,AUTO
         4 000416   000020 631400 xsym               EPPR1   B_VECTNIL+16
         4 000417   000000 701000 xent               TSX1    DBM$PACK4
         4 000420   000000 011000                    NOP     0

      857    10216    2      CALL DBM$PACK4(G$JIT.PRIV.AUTH,PRIV_AUTH);

  10216  4 000421   200404 630500                    EPPR0   PRIV_AUTH,,AUTO
         4 000422   200443 450500                    STP0    T$+5,,AUTO
         4 000423   200203 631500                    EPPR1   G$JIT+72,,AUTO
         4 000424   200442 451500                    STP1    T$+4,,AUTO
         4 000425   200442 630500                    EPPR0   T$+4,,AUTO
         4 000426   000020 631400 xsym               EPPR1   B_VECTNIL+16
         4 000427   000000 701000 xent               TSX1    DBM$PACK4
         4 000430   000000 011000                    NOP     0

      858    10217    2      CALL DBM$PACK4(G$JIT.PRIV.PRC,PRIV_PRC);

  10217  4 000431   200405 630500                    EPPR0   PRIV_PRC,,AUTO
         4 000432   200443 450500                    STP0    T$+5,,AUTO
         4 000433   200204 631500                    EPPR1   G$JIT+73,,AUTO
         4 000434   200442 451500                    STP1    T$+4,,AUTO
         4 000435   200442 630500                    EPPR0   T$+4,,AUTO
         4 000436   000020 631400 xsym               EPPR1   B_VECTNIL+16
         4 000437   000000 701000 xent               TSX1    DBM$PACK4
         4 000440   000000 011000                    NOP     0

      859    10218    2      CALL DBM$PACK4(G$JIT.PPRIV,PPRIV);

PL6.E3A0      #002=DBD$JIT File=DBD$USER.:E05TSI                                 TUE 07/29/97 13:10 Page:152
  10218  4 000441   200406 630500                    EPPR0   PPRIV,,AUTO
         4 000442   200443 450500                    STP0    T$+5,,AUTO
         4 000443   200205 631500                    EPPR1   G$JIT+74,,AUTO
         4 000444   200442 451500                    STP1    T$+4,,AUTO
         4 000445   200442 630500                    EPPR0   T$+4,,AUTO
         4 000446   000020 631400 xsym               EPPR1   B_VECTNIL+16
         4 000447   000000 701000 xent               TSX1    DBM$PACK4
         4 000450   000000 011000                    NOP     0

      860    10219
      861    10220    2      CALL DBM$PACK2(G$JIT.MCLS,SMCLS);

  10220  4 000451   200410 630500                    EPPR0   SMCLS,,AUTO
         4 000452   200443 450500                    STP0    T$+5,,AUTO
         4 000453   200126 631500                    EPPR1   G$JIT+27,,AUTO
         4 000454   200442 451500                    STP1    T$+4,,AUTO
         4 000455   200442 630500                    EPPR0   T$+4,,AUTO
         4 000456   000020 631400 xsym               EPPR1   B_VECTNIL+16
         4 000457   000000 701000 xent               TSX1    DBM$PACK2
         4 000460   000000 011000                    NOP     0

      862    10221    2      CALL DBM$PACK2(G$JIT.JMCLS,JMCLS);

  10221  4 000461   200407 630500                    EPPR0   JMCLS,,AUTO
         4 000462   200443 450500                    STP0    T$+5,,AUTO
         4 000463   200342 631500                    EPPR1   G$JIT+167,,AUTO
         4 000464   200442 451500                    STP1    T$+4,,AUTO
         4 000465   200442 630500                    EPPR0   T$+4,,AUTO
         4 000466   000020 631400 xsym               EPPR1   B_VECTNIL+16
         4 000467   000000 701000 xent               TSX1    DBM$PACK2
         4 000470   000000 011000                    NOP     0

      863    10222    2      CALL DBM$PACK2(G$JIT.STEP,STEPS);

  10222  4 000471   200411 630500                    EPPR0   STEPS,,AUTO
         4 000472   200443 450500                    STP0    T$+5,,AUTO
         4 000473   200150 631500                    EPPR1   G$JIT+45,,AUTO
PL6.E3A0      #002=DBD$JIT File=DBD$USER.:E05TSI                                 TUE 07/29/97 13:10 Page:153
         4 000474   200442 451500                    STP1    T$+4,,AUTO
         4 000475   200442 630500                    EPPR0   T$+4,,AUTO
         4 000476   000020 631400 xsym               EPPR1   B_VECTNIL+16
         4 000477   000000 701000 xent               TSX1    DBM$PACK2
         4 000500   000000 011000                    NOP     0

      864    10223    2      CALL DBM$PACK4(G$JIT.CVM_REAL,CVM_REAL);

  10223  4 000501   200412 630500                    EPPR0   CVM_REAL,,AUTO
         4 000502   200443 450500                    STP0    T$+5,,AUTO
         4 000503   200226 631500                    EPPR1   G$JIT+91,,AUTO
         4 000504   200442 451500                    STP1    T$+4,,AUTO
         4 000505   200442 630500                    EPPR0   T$+4,,AUTO
         4 000506   000020 631400 xsym               EPPR1   B_VECTNIL+16
         4 000507   000000 701000 xent               TSX1    DBM$PACK4
         4 000510   000000 011000                    NOP     0

      865    10224    2      CALL DBM$PACK1(G$JIT.SPROC#,SPROC);

  10224  4 000511   200413 630500                    EPPR0   SPROC,,AUTO
         4 000512   200443 450500                    STP0    T$+5,,AUTO
         4 000513   200201 631500                    EPPR1   G$JIT+70,,AUTO
         4 000514   200442 451500                    STP1    T$+4,,AUTO
         4 000515   200442 630500                    EPPR0   T$+4,,AUTO
         4 000516   000020 631400 xsym               EPPR1   B_VECTNIL+16
         4 000517   000000 701000 xent               TSX1    DBM$PACK1
         4 000520   000000 011000                    NOP     0

      866    10225    2      CALL DBM$PACK1(G$JIT.SLIB#,SLIB);

  10225  4 000521   200414 630500                    EPPR0   SLIB,,AUTO
         4 000522   200443 450500                    STP0    T$+5,,AUTO
         4 000523   200444 452500                    STP2    T$+6,,AUTO
         4 000524   200444 236100                    LDQ     T$+6,,AUTO
         4 000525   000021 036000 5                  ADLQ    17
         4 000526   200442 756100                    STQ     T$+4,,AUTO
         4 000527   200442 630500                    EPPR0   T$+4,,AUTO
PL6.E3A0      #002=DBD$JIT File=DBD$USER.:E05TSI                                 TUE 07/29/97 13:10 Page:154
         4 000530   000020 631400 xsym               EPPR1   B_VECTNIL+16
         4 000531   000000 701000 xent               TSX1    DBM$PACK1
         4 000532   000000 011000                    NOP     0

      867    10226    2      CALL DBM$PACK1(G$JIT.DB#,DB);

  10226  4 000533   200415 630500                    EPPR0   DB,,AUTO
         4 000534   200443 450500                    STP0    T$+5,,AUTO
         4 000535   200444 452500                    STP2    T$+6,,AUTO
         4 000536   200444 236100                    LDQ     T$+6,,AUTO
         4 000537   000022 036000 5                  ADLQ    18
         4 000540   200442 756100                    STQ     T$+4,,AUTO
         4 000541   200442 630500                    EPPR0   T$+4,,AUTO
         4 000542   000020 631400 xsym               EPPR1   B_VECTNIL+16
         4 000543   000000 701000 xent               TSX1    DBM$PACK1
         4 000544   000000 011000                    NOP     0

      868    10227
      869    10228    2      CALL DBM$PACK2(G$JIT.RNST,RNST);

  10228  4 000545   200416 630500                    EPPR0   RNST,,AUTO
         4 000546   200443 450500                    STP0    T$+5,,AUTO
         4 000547   200206 631500                    EPPR1   G$JIT+75,,AUTO
         4 000550   200442 451500                    STP1    T$+4,,AUTO
         4 000551   200442 630500                    EPPR0   T$+4,,AUTO
         4 000552   000020 631400 xsym               EPPR1   B_VECTNIL+16
         4 000553   000000 701000 xent               TSX1    DBM$PACK2
         4 000554   000000 011000                    NOP     0

      870    10229    2      CALL DBM$PACK2(G$JIT.FRS,FRS);

  10229  4 000555   200417 630500                    EPPR0   FRS,,AUTO
         4 000556   200443 450500                    STP0    T$+5,,AUTO
         4 000557   200132 631500                    EPPR1   G$JIT+31,,AUTO
         4 000560   200442 451500                    STP1    T$+4,,AUTO
         4 000561   200442 630500                    EPPR0   T$+4,,AUTO
         4 000562   000020 631400 xsym               EPPR1   B_VECTNIL+16
PL6.E3A0      #002=DBD$JIT File=DBD$USER.:E05TSI                                 TUE 07/29/97 13:10 Page:155
         4 000563   000000 701000 xent               TSX1    DBM$PACK2
         4 000564   000000 011000                    NOP     0

      871    10230    2      CALL DBM$PACK1(G$JIT.XLIMFLG,XLIMFLG);

  10230  4 000565   200420 630500                    EPPR0   XLIMFLG,,AUTO
         4 000566   200443 450500                    STP0    T$+5,,AUTO
         4 000567   200444 452500                    STP2    T$+6,,AUTO
         4 000570   200444 236100                    LDQ     T$+6,,AUTO
         4 000571   000023 036000 5                  ADLQ    19
         4 000572   200442 756100                    STQ     T$+4,,AUTO
         4 000573   200442 630500                    EPPR0   T$+4,,AUTO
         4 000574   000020 631400 xsym               EPPR1   B_VECTNIL+16
         4 000575   000000 701000 xent               TSX1    DBM$PACK1
         4 000576   000000 011000                    NOP     0

      872    10231    2      CALL DBM$PACK1(G$JIT.STEPCC,STEPCC);

  10231  4 000577   200421 630500                    EPPR0   STEPCC,,AUTO
         4 000600   200443 450500                    STP0    T$+5,,AUTO
         4 000601   200444 452500                    STP2    T$+6,,AUTO
         4 000602   200444 236100                    LDQ     T$+6,,AUTO
         4 000603   000024 036000 5                  ADLQ    20
         4 000604   200442 756100                    STQ     T$+4,,AUTO
         4 000605   200442 630500                    EPPR0   T$+4,,AUTO
         4 000606   000020 631400 xsym               EPPR1   B_VECTNIL+16
         4 000607   000000 701000 xent               TSX1    DBM$PACK1
         4 000610   000000 011000                    NOP     0

      873    10232    2      CALL DBM$PACK1(G$JIT.RUNFLAGS,RUNFLAGS);

  10232  4 000611   200422 630500                    EPPR0   RUNFLAGS,,AUTO
         4 000612   200443 450500                    STP0    T$+5,,AUTO
         4 000613   200444 452500                    STP2    T$+6,,AUTO
         4 000614   200444 236100                    LDQ     T$+6,,AUTO
         4 000615   000025 036000 5                  ADLQ    21
         4 000616   200442 756100                    STQ     T$+4,,AUTO
PL6.E3A0      #002=DBD$JIT File=DBD$USER.:E05TSI                                 TUE 07/29/97 13:10 Page:156
         4 000617   200442 630500                    EPPR0   T$+4,,AUTO
         4 000620   000020 631400 xsym               EPPR1   B_VECTNIL+16
         4 000621   000000 701000 xent               TSX1    DBM$PACK1
         4 000622   000000 011000                    NOP     0

      874    10233    2      CALL DBM$PACK2(G$JIT.JUNK,JUNK);

  10233  4 000623   200423 630500                    EPPR0   JUNK,,AUTO
         4 000624   200443 450500                    STP0    T$+5,,AUTO
         4 000625   200207 631500                    EPPR1   G$JIT+76,,AUTO
         4 000626   200442 451500                    STP1    T$+4,,AUTO
         4 000627   200442 630500                    EPPR0   T$+4,,AUTO
         4 000630   000020 631400 xsym               EPPR1   B_VECTNIL+16
         4 000631   000000 701000 xent               TSX1    DBM$PACK2
         4 000632   000000 011000                    NOP     0

      875    10234
      876    10235
      877    10236    2      CALL DBM$PACK1(G$JIT.MAXLVLS,MAXLVLS);

  10236  4 000633   200424 630500                    EPPR0   MAXLVLS,,AUTO
         4 000634   200443 450500                    STP0    T$+5,,AUTO
         4 000635   200212 631500                    EPPR1   G$JIT+79,,AUTO
         4 000636   200442 451500                    STP1    T$+4,,AUTO
         4 000637   200442 630500                    EPPR0   T$+4,,AUTO
         4 000640   000020 631400 xsym               EPPR1   B_VECTNIL+16
         4 000641   000000 701000 xent               TSX1    DBM$PACK1
         4 000642   000000 011000                    NOP     0

      878    10237    2      CALL DBM$PACK1(G$JIT.CURRLVLS,CURRLVLS);

  10237  4 000643   200425 630500                    EPPR0   CURRLVLS,,AUTO
         4 000644   200443 450500                    STP0    T$+5,,AUTO
         4 000645   200444 452500                    STP2    T$+6,,AUTO
         4 000646   200444 236100                    LDQ     T$+6,,AUTO
         4 000647   000026 036000 5                  ADLQ    22
         4 000650   200442 756100                    STQ     T$+4,,AUTO
PL6.E3A0      #002=DBD$JIT File=DBD$USER.:E05TSI                                 TUE 07/29/97 13:10 Page:157
         4 000651   200442 630500                    EPPR0   T$+4,,AUTO
         4 000652   000020 631400 xsym               EPPR1   B_VECTNIL+16
         4 000653   000000 701000 xent               TSX1    DBM$PACK1
         4 000654   000000 011000                    NOP     0

      879    10238    2      CALL DBM$PACK2(G$JIT.PEAK_LVLS,SPEAKLVLS);

  10238  4 000655   200426 630500                    EPPR0   SPEAKLVLS,,AUTO
         4 000656   200443 450500                    STP0    T$+5,,AUTO
         4 000657   200444 452500                    STP2    T$+6,,AUTO
         4 000660   200444 236100                    LDQ     T$+6,,AUTO
         4 000661   000027 036000 5                  ADLQ    23
         4 000662   200442 756100                    STQ     T$+4,,AUTO
         4 000663   200442 630500                    EPPR0   T$+4,,AUTO
         4 000664   000020 631400 xsym               EPPR1   B_VECTNIL+16
         4 000665   000000 701000 xent               TSX1    DBM$PACK2
         4 000666   000000 011000                    NOP     0

      880    10239    2      CALL DBM$PACK2(G$JIT.JPEAK_LVLS,JPEAKLVLS);

  10239  4 000667   200427 630500                    EPPR0   JPEAKLVLS,,AUTO
         4 000670   200443 450500                    STP0    T$+5,,AUTO
         4 000671   200444 452500                    STP2    T$+6,,AUTO
         4 000672   200444 236100                    LDQ     T$+6,,AUTO
         4 000673   000030 036000 5                  ADLQ    24
         4 000674   200442 756100                    STQ     T$+4,,AUTO
         4 000675   200442 630500                    EPPR0   T$+4,,AUTO
         4 000676   000020 631400 xsym               EPPR1   B_VECTNIL+16
         4 000677   000000 701000 xent               TSX1    DBM$PACK2
         4 000700   000000 011000                    NOP     0

      881    10240    2      CALL DBM$PACK1(G$JIT.CLUKRLVL,CLUKRLVL);

  10240  4 000701   200430 630500                    EPPR0   CLUKRLVL,,AUTO
         4 000702   200443 450500                    STP0    T$+5,,AUTO
         4 000703   200165 631500                    EPPR1   G$JIT+58,,AUTO
         4 000704   200442 451500                    STP1    T$+4,,AUTO
PL6.E3A0      #002=DBD$JIT File=DBD$USER.:E05TSI                                 TUE 07/29/97 13:10 Page:158
         4 000705   200442 630500                    EPPR0   T$+4,,AUTO
         4 000706   000020 631400 xsym               EPPR1   B_VECTNIL+16
         4 000707   000000 701000 xent               TSX1    DBM$PACK1
         4 000710   000000 011000                    NOP     0

      882    10241    2      CALL DBM$PACK1(G$JIT.CLUKXLVL,CLUKXLVL);

  10241  4 000711   200431 630500                    EPPR0   CLUKXLVL,,AUTO
         4 000712   200443 450500                    STP0    T$+5,,AUTO
         4 000713   200444 452500                    STP2    T$+6,,AUTO
         4 000714   200444 236100                    LDQ     T$+6,,AUTO
         4 000715   000031 036000 5                  ADLQ    25
         4 000716   200442 756100                    STQ     T$+4,,AUTO
         4 000717   200442 630500                    EPPR0   T$+4,,AUTO
         4 000720   000020 631400 xsym               EPPR1   B_VECTNIL+16
         4 000721   000000 701000 xent               TSX1    DBM$PACK1
         4 000722   000000 011000                    NOP     0

      883    10242
      884    10243    2      CALL DBM$PACK4(G$JIT.TUEXT,TUEXT);

  10243  4 000723   200355 630500                    EPPR0   TUEXT,,AUTO
         4 000724   200443 450500                    STP0    T$+5,,AUTO
         4 000725   200115 631500                    EPPR1   G$JIT+18,,AUTO
         4 000726   200442 451500                    STP1    T$+4,,AUTO
         4 000727   200442 630500                    EPPR0   T$+4,,AUTO
         4 000730   000020 631400 xsym               EPPR1   B_VECTNIL+16
         4 000731   000000 701000 xent               TSX1    DBM$PACK4
         4 000732   000000 011000                    NOP     0

      885    10244    2      TUEXT=(TUEXT+60)/120/*Seconds*/;

  10244  4 000733   200355 236100                    LDQ     TUEXT,,AUTO
         4 000734   000074 036007                    ADLQ    60,DL
         4 000735   000170 506007                    DIV     120,DL
         4 000736   200355 756100                    STQ     TUEXT,,AUTO

PL6.E3A0      #002=DBD$JIT File=DBD$USER.:E05TSI                                 TUE 07/29/97 13:10 Page:159
      886    10245    2      CPUMINS=TUEXT/60;

  10245  4 000737   000074 506007                    DIV     60,DL
         4 000740   200353 756100                    STQ     CPUMINS,,AUTO

      887    10246    2      CPUSECS=MOD(TUEXT,60);

  10246  4 000741   200355 236100                    LDQ     TUEXT,,AUTO
         4 000742   000074 506007                    DIV     60,DL
         4 000743   200354 755100                    STA     CPUSECS,,AUTO

      888    10247
      889    10248    2      CALL DAF$WRITE(VECTOR(JITFMT10),
      890    10249    2        VECTOR(JITUN),  VECTOR(SYSID),
      891    10250    2        VECTOR(MODECHAR(G$JIT.MODE)),
      892    10251    2        VECTOR(ENTRYCHAR(G$JIT.PROG_ENTRY)),
      893    10252    2        VECTOR(G$JIT.ACCN), VECTOR(G$JIT.UNAME) );

  10252  4 000744   777640 235007                    LDA     -96,DL
         4 000745   200442 452500                    STP2    T$+4,,AUTO
         4 000746   200442 236100                    LDQ     T$+4,,AUTO
         4 000747   000361 036003                    ADLQ    241,DU
         4 000750   200444 757100                    STAQ    T$+6,,AUTO
         4 000751   777640 235007                    LDA     -96,DL
         4 000752   200446 452500                    STP2    T$+8,,AUTO
         4 000753   200446 236100                    LDQ     T$+8,,AUTO
         4 000754   000360 036003                    ADLQ    240,DU
         4 000755   200450 757100                    STAQ    T$+10,,AUTO
         4 000756   200075 236100                    LDQ     G$JIT+2,,AUTO
         4 000757   000033 772000                    QRL     27
         4 000760   000034 235000 5                  LDA     28
         4 000761   000023 736000                    QLS     19
         4 000762   000035 036000 5                  ADLQ    29
         4 000763   200452 757100                    STAQ    T$+12,,AUTO
         4 000764   200074 236100                    LDQ     G$JIT+1,,AUTO
         4 000765   000777 376007                    ANQ     511,DL
         4 000766   000007 402007                    MPY     7,DL
PL6.E3A0      #002=DBD$JIT File=DBD$USER.:E05TSI                                 TUE 07/29/97 13:10 Page:160
         4 000767   000036 235000 5                  LDA     30
         4 000770   000020 736000                    QLS     16
         4 000771   000037 036000 5                  ADLQ    31
         4 000772   200454 757100                    STAQ    T$+14,,AUTO
         4 000773   000034 235000 5                  LDA     28
         4 000774   200456 452500                    STP2    T$+16,,AUTO
         4 000775   200456 236100                    LDQ     T$+16,,AUTO
         4 000776   000076 036003                    ADLQ    62,DU
         4 000777   200460 757100                    STAQ    T$+18,,AUTO
         4 001000   000040 235000 5                  LDA     32
         4 001001   200462 452500                    STP2    T$+20,,AUTO
         4 001002   200462 236100                    LDQ     T$+20,,AUTO
         4 001003   000100 036003                    ADLQ    64,DU
         4 001004   200466 757100                    STAQ    T$+24,,AUTO
         4 001005   200444 237100                    LDAQ    T$+6,,AUTO
         4 001006   200464 757100                    STAQ    T$+22,,AUTO
         4 001007   200450 237100                    LDAQ    T$+10,,AUTO
         4 001010   200470 757100                    STAQ    T$+26,,AUTO
         4 001011   200452 237100                    LDAQ    T$+12,,AUTO
         4 001012   200472 757100                    STAQ    T$+28,,AUTO
         4 001013   200454 237100                    LDAQ    T$+14,,AUTO
         4 001014   200474 757100                    STAQ    T$+30,,AUTO
         4 001015   200460 237100                    LDAQ    T$+18,,AUTO
         4 001016   200476 757100                    STAQ    T$+32,,AUTO
         4 001017   200466 237100                    LDAQ    T$+24,,AUTO
         4 001020   200500 757100                    STAQ    T$+34,,AUTO
         4 001021   200500 630500                    EPPR0   T$+34,,AUTO
         4 001022   200510 450500                    STP0    T$+42,,AUTO
         4 001023   200476 631500                    EPPR1   T$+32,,AUTO
         4 001024   200507 451500                    STP1    T$+41,,AUTO
         4 001025   200474 633500                    EPPR3   T$+30,,AUTO
         4 001026   200506 453500                    STP3    T$+40,,AUTO
         4 001027   200472 634500                    EPPR4   T$+28,,AUTO
         4 001030   200505 454500                    STP4    T$+39,,AUTO
         4 001031   200470 635500                    EPPR5   T$+26,,AUTO
         4 001032   200504 455500                    STP5    T$+38,,AUTO
         4 001033   200464 636500                    EPPR6   T$+22,,AUTO
PL6.E3A0      #002=DBD$JIT File=DBD$USER.:E05TSI                                 TUE 07/29/97 13:10 Page:161
         4 001034   200503 456500                    STP6    T$+37,,AUTO
         4 001035   000041 236000 5                  LDQ     33
         4 001036   200502 756100                    STQ     T$+36,,AUTO
         4 001037   200502 630500                    EPPR0   T$+36,,AUTO
         4 001040   000000 220000 xsym               LDX0    DAF$WRITE
         4 001041   000025 631400 xsym               EPPR1   B_VECTNIL+21
         4 001042   000000 701010                    TSX1    0,X0
         4 001043   000000 011000                    NOP     0

      894    10253    2      CALL DAF$WRITE(VECTOR(BLANK_LINE));

  10253  4 001044   000044 630400 5                  EPPR0   36
         4 001045   000000 220000 xsym               LDX0    DAF$WRITE
         4 001046   000017 631400 xsym               EPPR1   B_VECTNIL+15
         4 001047   000000 701010                    TSX1    0,X0
         4 001050   000000 011000                    NOP     0

      895    10254
      896    10255    2      CALL DAF$WRITE(VECTOR(JITFMT20),

  10255  4 001051   777640 235007                    LDA     -96,DL
         4 001052   200442 452500                    STP2    T$+4,,AUTO
         4 001053   200442 236100                    LDQ     T$+4,,AUTO
         4 001054   000362 036003                    ADLQ    242,DU
         4 001055   200444 757100                    STAQ    T$+6,,AUTO
         4 001056   777640 235007                    LDA     -96,DL
         4 001057   200446 452500                    STP2    T$+8,,AUTO
         4 001060   200446 236100                    LDQ     T$+8,,AUTO
         4 001061   000363 036003                    ADLQ    243,DU
         4 001062   200450 757100                    STAQ    T$+10,,AUTO
         4 001063   777640 235007                    LDA     -96,DL
         4 001064   200452 452500                    STP2    T$+12,,AUTO
         4 001065   200452 236100                    LDQ     T$+12,,AUTO
         4 001066   000364 036003                    ADLQ    244,DU
         4 001067   200454 757100                    STAQ    T$+14,,AUTO
         4 001070   777640 235007                    LDA     -96,DL
         4 001071   200456 452500                    STP2    T$+16,,AUTO
PL6.E3A0      #002=DBD$JIT File=DBD$USER.:E05TSI                                 TUE 07/29/97 13:10 Page:162
         4 001072   200456 236100                    LDQ     T$+16,,AUTO
         4 001073   000365 036003                    ADLQ    245,DU
         4 001074   200460 757100                    STAQ    T$+18,,AUTO
         4 001075   777640 235007                    LDA     -96,DL
         4 001076   200462 452500                    STP2    T$+20,,AUTO
         4 001077   200462 236100                    LDQ     T$+20,,AUTO
         4 001100   000366 036003                    ADLQ    246,DU
         4 001101   200464 757100                    STAQ    T$+22,,AUTO
         4 001102   777640 235007                    LDA     -96,DL
         4 001103   200466 452500                    STP2    T$+24,,AUTO
         4 001104   200466 236100                    LDQ     T$+24,,AUTO
         4 001105   000367 036003                    ADLQ    247,DU
         4 001106   200470 757100                    STAQ    T$+26,,AUTO
         4 001107   777640 235007                    LDA     -96,DL
         4 001110   200472 452500                    STP2    T$+28,,AUTO
         4 001111   200472 236100                    LDQ     T$+28,,AUTO
         4 001112   000370 036003                    ADLQ    248,DU
         4 001113   200476 757100                    STAQ    T$+32,,AUTO
         4 001114   200444 237100                    LDAQ    T$+6,,AUTO
         4 001115   200474 757100                    STAQ    T$+30,,AUTO
         4 001116   200450 237100                    LDAQ    T$+10,,AUTO
         4 001117   200500 757100                    STAQ    T$+34,,AUTO
         4 001120   200454 237100                    LDAQ    T$+14,,AUTO
         4 001121   200502 757100                    STAQ    T$+36,,AUTO
         4 001122   200460 237100                    LDAQ    T$+18,,AUTO
         4 001123   200504 757100                    STAQ    T$+38,,AUTO
         4 001124   200464 237100                    LDAQ    T$+22,,AUTO
         4 001125   200506 757100                    STAQ    T$+40,,AUTO
         4 001126   200470 237100                    LDAQ    T$+26,,AUTO
         4 001127   200510 757100                    STAQ    T$+42,,AUTO
         4 001130   200476 237100                    LDAQ    T$+32,,AUTO
         4 001131   200512 757100                    STAQ    T$+44,,AUTO
         4 001132   200512 630500                    EPPR0   T$+44,,AUTO
         4 001133   200523 450500                    STP0    T$+53,,AUTO
         4 001134   200510 631500                    EPPR1   T$+42,,AUTO
         4 001135   200522 451500                    STP1    T$+52,,AUTO
         4 001136   200506 633500                    EPPR3   T$+40,,AUTO
PL6.E3A0      #002=DBD$JIT File=DBD$USER.:E05TSI                                 TUE 07/29/97 13:10 Page:163
         4 001137   200521 453500                    STP3    T$+51,,AUTO
         4 001140   200504 634500                    EPPR4   T$+38,,AUTO
         4 001141   200520 454500                    STP4    T$+50,,AUTO
         4 001142   200502 635500                    EPPR5   T$+36,,AUTO
         4 001143   200517 455500                    STP5    T$+49,,AUTO
         4 001144   200500 636500                    EPPR6   T$+34,,AUTO
         4 001145   200516 456500                    STP6    T$+48,,AUTO
         4 001146   200474 637500                    EPPR7   T$+30,,AUTO
         4 001147   200515 457500                    STP7    T$+47,,AUTO
         4 001150   000050 236000 5                  LDQ     40
         4 001151   200514 756100                    STQ     T$+46,,AUTO
         4 001152   200514 630500                    EPPR0   T$+46,,AUTO
         4 001153   000000 220000 xsym               LDX0    DAF$WRITE
         4 001154   000026 631400 xsym               EPPR1   B_VECTNIL+22
         4 001155   000000 701010                    TSX1    0,X0
         4 001156   000000 011000                    NOP     0

      897    10256    2        VECTOR(DLL), VECTOR(DUL), VECTOR(PLL), VECTOR(PUL),
      898    10257    2        VECTOR(LLL), VECTOR(LUL), VECTOR(MAXMEM) );
      899    10258    2      CALL DAF$WRITE(VECTOR(BLANK_LINE));

  10258  4 001157   000044 630400 5                  EPPR0   36
         4 001160   000000 220000 xsym               LDX0    DAF$WRITE
         4 001161   000017 631400 xsym               EPPR1   B_VECTNIL+15
         4 001162   000000 701010                    TSX1    0,X0
         4 001163   000000 011000                    NOP     0

      900    10259
      901    10260    2      CALL DAF$WRITE(VECTOR(JITFMT30),

  10260  4 001164   777640 235007                    LDA     -96,DL
         4 001165   200442 452500                    STP2    T$+4,,AUTO
         4 001166   200442 236100                    LDQ     T$+4,,AUTO
         4 001167   000371 036003                    ADLQ    249,DU
         4 001170   200444 757100                    STAQ    T$+6,,AUTO
         4 001171   777640 235007                    LDA     -96,DL
         4 001172   200446 452500                    STP2    T$+8,,AUTO
PL6.E3A0      #002=DBD$JIT File=DBD$USER.:E05TSI                                 TUE 07/29/97 13:10 Page:164
         4 001173   200446 236100                    LDQ     T$+8,,AUTO
         4 001174   000372 036003                    ADLQ    250,DU
         4 001175   200450 757100                    STAQ    T$+10,,AUTO
         4 001176   777640 235007                    LDA     -96,DL
         4 001177   200452 452500                    STP2    T$+12,,AUTO
         4 001200   200452 236100                    LDQ     T$+12,,AUTO
         4 001201   000373 036003                    ADLQ    251,DU
         4 001202   200454 757100                    STAQ    T$+14,,AUTO
         4 001203   777640 235007                    LDA     -96,DL
         4 001204   200456 452500                    STP2    T$+16,,AUTO
         4 001205   200456 236100                    LDQ     T$+16,,AUTO
         4 001206   000374 036003                    ADLQ    252,DU
         4 001207   200460 757100                    STAQ    T$+18,,AUTO
         4 001210   777640 235007                    LDA     -96,DL
         4 001211   200462 452500                    STP2    T$+20,,AUTO
         4 001212   200462 236100                    LDQ     T$+20,,AUTO
         4 001213   000401 036003                    ADLQ    257,DU
         4 001214   200466 757100                    STAQ    T$+24,,AUTO
         4 001215   200444 237100                    LDAQ    T$+6,,AUTO
         4 001216   200464 757100                    STAQ    T$+22,,AUTO
         4 001217   200450 237100                    LDAQ    T$+10,,AUTO
         4 001220   200470 757100                    STAQ    T$+26,,AUTO
         4 001221   200454 237100                    LDAQ    T$+14,,AUTO
         4 001222   200472 757100                    STAQ    T$+28,,AUTO
         4 001223   200460 237100                    LDAQ    T$+18,,AUTO
         4 001224   200474 757100                    STAQ    T$+30,,AUTO
         4 001225   200466 237100                    LDAQ    T$+24,,AUTO
         4 001226   200476 757100                    STAQ    T$+32,,AUTO
         4 001227   200476 630500                    EPPR0   T$+32,,AUTO
         4 001230   200505 450500                    STP0    T$+39,,AUTO
         4 001231   200474 631500                    EPPR1   T$+30,,AUTO
         4 001232   200504 451500                    STP1    T$+38,,AUTO
         4 001233   200472 633500                    EPPR3   T$+28,,AUTO
         4 001234   200503 453500                    STP3    T$+37,,AUTO
         4 001235   200470 634500                    EPPR4   T$+26,,AUTO
         4 001236   200502 454500                    STP4    T$+36,,AUTO
         4 001237   200464 635500                    EPPR5   T$+22,,AUTO
PL6.E3A0      #002=DBD$JIT File=DBD$USER.:E05TSI                                 TUE 07/29/97 13:10 Page:165
         4 001240   200501 455500                    STP5    T$+35,,AUTO
         4 001241   000054 236000 5                  LDQ     44
         4 001242   200500 756100                    STQ     T$+34,,AUTO
         4 001243   200500 630500                    EPPR0   T$+34,,AUTO
         4 001244   000000 220000 xsym               LDX0    DAF$WRITE
         4 001245   000024 631400 xsym               EPPR1   B_VECTNIL+20
         4 001246   000000 701010                    TSX1    0,X0
         4 001247   000000 011000                    NOP     0

      902    10261    2        VECTOR(PCD), VECTOR(PCP), VECTOR(PCL), VECTOR(PCDS), VECTOR(NSPC) );
      903    10262
      904    10263    2      CALL DAF$WRITE(VECTOR(JITFMT31),

  10263  4 001250   777640 235007                    LDA     -96,DL
         4 001251   200442 452500                    STP2    T$+4,,AUTO
         4 001252   200442 236100                    LDQ     T$+4,,AUTO
         4 001253   000376 036003                    ADLQ    254,DU
         4 001254   200444 757100                    STAQ    T$+6,,AUTO
         4 001255   777640 235007                    LDA     -96,DL
         4 001256   200446 452500                    STP2    T$+8,,AUTO
         4 001257   200446 236100                    LDQ     T$+8,,AUTO
         4 001260   000377 036003                    ADLQ    255,DU
         4 001261   200450 757100                    STAQ    T$+10,,AUTO
         4 001262   777640 235007                    LDA     -96,DL
         4 001263   200452 452500                    STP2    T$+12,,AUTO
         4 001264   200452 236100                    LDQ     T$+12,,AUTO
         4 001265   000402 036003                    ADLQ    258,DU
         4 001266   200454 757100                    STAQ    T$+14,,AUTO
         4 001267   777640 235007                    LDA     -96,DL
         4 001270   200456 452500                    STP2    T$+16,,AUTO
         4 001271   200456 236100                    LDQ     T$+16,,AUTO
         4 001272   000400 036003                    ADLQ    256,DU
         4 001273   200460 757100                    STAQ    T$+18,,AUTO
         4 001274   777640 235007                    LDA     -96,DL
         4 001275   200462 452500                    STP2    T$+20,,AUTO
         4 001276   200462 236100                    LDQ     T$+20,,AUTO
         4 001277   000375 036003                    ADLQ    253,DU
PL6.E3A0      #002=DBD$JIT File=DBD$USER.:E05TSI                                 TUE 07/29/97 13:10 Page:166
         4 001300   200466 757100                    STAQ    T$+24,,AUTO
         4 001301   200444 237100                    LDAQ    T$+6,,AUTO
         4 001302   200464 757100                    STAQ    T$+22,,AUTO
         4 001303   200450 237100                    LDAQ    T$+10,,AUTO
         4 001304   200470 757100                    STAQ    T$+26,,AUTO
         4 001305   200454 237100                    LDAQ    T$+14,,AUTO
         4 001306   200472 757100                    STAQ    T$+28,,AUTO
         4 001307   200460 237100                    LDAQ    T$+18,,AUTO
         4 001310   200474 757100                    STAQ    T$+30,,AUTO
         4 001311   200466 237100                    LDAQ    T$+24,,AUTO
         4 001312   200476 757100                    STAQ    T$+32,,AUTO
         4 001313   200476 630500                    EPPR0   T$+32,,AUTO
         4 001314   200505 450500                    STP0    T$+39,,AUTO
         4 001315   200474 631500                    EPPR1   T$+30,,AUTO
         4 001316   200504 451500                    STP1    T$+38,,AUTO
         4 001317   200472 633500                    EPPR3   T$+28,,AUTO
         4 001320   200503 453500                    STP3    T$+37,,AUTO
         4 001321   200470 634500                    EPPR4   T$+26,,AUTO
         4 001322   200502 454500                    STP4    T$+36,,AUTO
         4 001323   200464 635500                    EPPR5   T$+22,,AUTO
         4 001324   200501 455500                    STP5    T$+35,,AUTO
         4 001325   000060 236000 5                  LDQ     48
         4 001326   200500 756100                    STQ     T$+34,,AUTO
         4 001327   200500 630500                    EPPR0   T$+34,,AUTO
         4 001330   000000 220000 xsym               LDX0    DAF$WRITE
         4 001331   000024 631400 xsym               EPPR1   B_VECTNIL+20
         4 001332   000000 701010                    TSX1    0,X0
         4 001333   000000 011000                    NOP     0

      905    10264    2        VECTOR (PCC), VECTOR(PCROS), VECTOR(CQPC), VECTOR(PSEUDOPGS), VECTOR(PCDDS) );
      906    10265    2      CALL DAF$WRITE(VECTOR(BLANK_LINE));

  10265  4 001334   000044 630400 5                  EPPR0   36
         4 001335   000000 220000 xsym               LDX0    DAF$WRITE
         4 001336   000017 631400 xsym               EPPR1   B_VECTNIL+15
         4 001337   000000 701010                    TSX1    0,X0
         4 001340   000000 011000                    NOP     0
PL6.E3A0      #002=DBD$JIT File=DBD$USER.:E05TSI                                 TUE 07/29/97 13:10 Page:167

      907    10266
      908    10267    2      CALL DAF$WRITE(VECTOR(JITFMT40),

  10267  4 001341   777640 235007                    LDA     -96,DL
         4 001342   200442 452500                    STP2    T$+4,,AUTO
         4 001343   200442 236100                    LDQ     T$+4,,AUTO
         4 001344   000403 036003                    ADLQ    259,DU
         4 001345   200444 757100                    STAQ    T$+6,,AUTO
         4 001346   777640 235007                    LDA     -96,DL
         4 001347   200446 452500                    STP2    T$+8,,AUTO
         4 001350   200446 236100                    LDQ     T$+8,,AUTO
         4 001351   000404 036003                    ADLQ    260,DU
         4 001352   200450 757100                    STAQ    T$+10,,AUTO
         4 001353   777640 235007                    LDA     -96,DL
         4 001354   200452 452500                    STP2    T$+12,,AUTO
         4 001355   200452 236100                    LDQ     T$+12,,AUTO
         4 001356   000405 036003                    ADLQ    261,DU
         4 001357   200454 757100                    STAQ    T$+14,,AUTO
         4 001360   777640 235007                    LDA     -96,DL
         4 001361   200456 452500                    STP2    T$+16,,AUTO
         4 001362   200456 236100                    LDQ     T$+16,,AUTO
         4 001363   000406 036003                    ADLQ    262,DU
         4 001364   200462 757100                    STAQ    T$+20,,AUTO
         4 001365   200444 237100                    LDAQ    T$+6,,AUTO
         4 001366   200460 757100                    STAQ    T$+18,,AUTO
         4 001367   200450 237100                    LDAQ    T$+10,,AUTO
         4 001370   200464 757100                    STAQ    T$+22,,AUTO
         4 001371   200454 237100                    LDAQ    T$+14,,AUTO
         4 001372   200466 757100                    STAQ    T$+24,,AUTO
         4 001373   200462 237100                    LDAQ    T$+20,,AUTO
         4 001374   200470 757100                    STAQ    T$+26,,AUTO
         4 001375   200470 630500                    EPPR0   T$+26,,AUTO
         4 001376   200476 450500                    STP0    T$+32,,AUTO
         4 001377   200466 631500                    EPPR1   T$+24,,AUTO
         4 001400   200475 451500                    STP1    T$+31,,AUTO
         4 001401   200464 633500                    EPPR3   T$+22,,AUTO
PL6.E3A0      #002=DBD$JIT File=DBD$USER.:E05TSI                                 TUE 07/29/97 13:10 Page:168
         4 001402   200474 453500                    STP3    T$+30,,AUTO
         4 001403   200460 634500                    EPPR4   T$+18,,AUTO
         4 001404   200473 454500                    STP4    T$+29,,AUTO
         4 001405   000064 236000 5                  LDQ     52
         4 001406   200472 756100                    STQ     T$+28,,AUTO
         4 001407   200472 630500                    EPPR0   T$+28,,AUTO
         4 001410   000000 220000 xsym               LDX0    DAF$WRITE
         4 001411   000023 631400 xsym               EPPR1   B_VECTNIL+19
         4 001412   000000 701010                    TSX1    0,X0
         4 001413   000000 011000                    NOP     0

      909    10268    2        VECTOR(PRIV_ACTIVE), VECTOR(PRIV_AUTH), VECTOR(PRIV_PRC), VECTOR(PPRIV) );
      910    10269    2      CALL DAF$WRITE(VECTOR(BLANK_LINE));

  10269  4 001414   000044 630400 5                  EPPR0   36
         4 001415   000000 220000 xsym               LDX0    DAF$WRITE
         4 001416   000017 631400 xsym               EPPR1   B_VECTNIL+15
         4 001417   000000 701010                    TSX1    0,X0
         4 001420   000000 011000                    NOP     0

      911    10270
      912    10271    2      CALL DAF$WRITE(VECTOR(JITFMT41),

  10271  4 001421   777640 235007                    LDA     -96,DL
         4 001422   200442 452500                    STP2    T$+4,,AUTO
         4 001423   200442 236100                    LDQ     T$+4,,AUTO
         4 001424   000410 036003                    ADLQ    264,DU
         4 001425   200444 757100                    STAQ    T$+6,,AUTO
         4 001426   777640 235007                    LDA     -96,DL
         4 001427   200446 452500                    STP2    T$+8,,AUTO
         4 001430   200446 236100                    LDQ     T$+8,,AUTO
         4 001431   000407 036003                    ADLQ    263,DU
         4 001432   200450 757100                    STAQ    T$+10,,AUTO
         4 001433   777640 235007                    LDA     -96,DL
         4 001434   200452 452500                    STP2    T$+12,,AUTO
         4 001435   200452 236100                    LDQ     T$+12,,AUTO
         4 001436   000411 036003                    ADLQ    265,DU
PL6.E3A0      #002=DBD$JIT File=DBD$USER.:E05TSI                                 TUE 07/29/97 13:10 Page:169
         4 001437   200454 757100                    STAQ    T$+14,,AUTO
         4 001440   777640 235007                    LDA     -96,DL
         4 001441   200456 452500                    STP2    T$+16,,AUTO
         4 001442   200456 236100                    LDQ     T$+16,,AUTO
         4 001443   000412 036003                    ADLQ    266,DU
         4 001444   200460 757100                    STAQ    T$+18,,AUTO
         4 001445   777640 235007                    LDA     -96,DL
         4 001446   200462 452500                    STP2    T$+20,,AUTO
         4 001447   200462 236100                    LDQ     T$+20,,AUTO
         4 001450   000413 036003                    ADLQ    267,DU
         4 001451   200464 757100                    STAQ    T$+22,,AUTO
         4 001452   777640 235007                    LDA     -96,DL
         4 001453   200466 452500                    STP2    T$+24,,AUTO
         4 001454   200466 236100                    LDQ     T$+24,,AUTO
         4 001455   000414 036003                    ADLQ    268,DU
         4 001456   200470 757100                    STAQ    T$+26,,AUTO
         4 001457   777640 235007                    LDA     -96,DL
         4 001460   200472 452500                    STP2    T$+28,,AUTO
         4 001461   200472 236100                    LDQ     T$+28,,AUTO
         4 001462   000415 036003                    ADLQ    269,DU
         4 001463   200476 757100                    STAQ    T$+32,,AUTO
         4 001464   200444 237100                    LDAQ    T$+6,,AUTO
         4 001465   200474 757100                    STAQ    T$+30,,AUTO
         4 001466   200450 237100                    LDAQ    T$+10,,AUTO
         4 001467   200500 757100                    STAQ    T$+34,,AUTO
         4 001470   200454 237100                    LDAQ    T$+14,,AUTO
         4 001471   200502 757100                    STAQ    T$+36,,AUTO
         4 001472   200460 237100                    LDAQ    T$+18,,AUTO
         4 001473   200504 757100                    STAQ    T$+38,,AUTO
         4 001474   200464 237100                    LDAQ    T$+22,,AUTO
         4 001475   200506 757100                    STAQ    T$+40,,AUTO
         4 001476   200470 237100                    LDAQ    T$+26,,AUTO
         4 001477   200510 757100                    STAQ    T$+42,,AUTO
         4 001500   200476 237100                    LDAQ    T$+32,,AUTO
         4 001501   200512 757100                    STAQ    T$+44,,AUTO
         4 001502   200512 630500                    EPPR0   T$+44,,AUTO
         4 001503   200523 450500                    STP0    T$+53,,AUTO
PL6.E3A0      #002=DBD$JIT File=DBD$USER.:E05TSI                                 TUE 07/29/97 13:10 Page:170
         4 001504   200510 631500                    EPPR1   T$+42,,AUTO
         4 001505   200522 451500                    STP1    T$+52,,AUTO
         4 001506   200506 633500                    EPPR3   T$+40,,AUTO
         4 001507   200521 453500                    STP3    T$+51,,AUTO
         4 001510   200504 634500                    EPPR4   T$+38,,AUTO
         4 001511   200520 454500                    STP4    T$+50,,AUTO
         4 001512   200502 635500                    EPPR5   T$+36,,AUTO
         4 001513   200517 455500                    STP5    T$+49,,AUTO
         4 001514   200500 636500                    EPPR6   T$+34,,AUTO
         4 001515   200516 456500                    STP6    T$+48,,AUTO
         4 001516   200474 637500                    EPPR7   T$+30,,AUTO
         4 001517   200515 457500                    STP7    T$+47,,AUTO
         4 001520   000070 236000 5                  LDQ     56
         4 001521   200514 756100                    STQ     T$+46,,AUTO
         4 001522   200514 630500                    EPPR0   T$+46,,AUTO
         4 001523   000000 220000 xsym               LDX0    DAF$WRITE
         4 001524   000026 631400 xsym               EPPR1   B_VECTNIL+22
         4 001525   000000 701010                    TSX1    0,X0
         4 001526   000000 011000                    NOP     0

      913    10272    2        VECTOR(SMCLS), VECTOR(JMCLS), VECTOR(STEPS), VECTOR(CVM_REAL),
      914    10273    2        VECTOR(SPROC), VECTOR(SLIB), VECTOR(DB) );
      915    10274    2      CALL DAF$WRITE(VECTOR(BLANK_LINE));

  10274  4 001527   000044 630400 5                  EPPR0   36
         4 001530   000000 220000 xsym               LDX0    DAF$WRITE
         4 001531   000017 631400 xsym               EPPR1   B_VECTNIL+15
         4 001532   000000 701010                    TSX1    0,X0
         4 001533   000000 011000                    NOP     0

      916    10275
      917    10276
      918    10277    2      CALL DAF$WRITE(VECTOR(JITFMT50),

  10277  4 001534   777640 235007                    LDA     -96,DL
         4 001535   200442 452500                    STP2    T$+4,,AUTO
         4 001536   200442 236100                    LDQ     T$+4,,AUTO
PL6.E3A0      #002=DBD$JIT File=DBD$USER.:E05TSI                                 TUE 07/29/97 13:10 Page:171
         4 001537   000416 036003                    ADLQ    270,DU
         4 001540   200444 757100                    STAQ    T$+6,,AUTO
         4 001541   777640 235007                    LDA     -96,DL
         4 001542   200446 452500                    STP2    T$+8,,AUTO
         4 001543   200446 236100                    LDQ     T$+8,,AUTO
         4 001544   000417 036003                    ADLQ    271,DU
         4 001545   200450 757100                    STAQ    T$+10,,AUTO
         4 001546   777640 235007                    LDA     -96,DL
         4 001547   200452 452500                    STP2    T$+12,,AUTO
         4 001550   200452 236100                    LDQ     T$+12,,AUTO
         4 001551   000420 036003                    ADLQ    272,DU
         4 001552   200454 757100                    STAQ    T$+14,,AUTO
         4 001553   777640 235007                    LDA     -96,DL
         4 001554   200456 452500                    STP2    T$+16,,AUTO
         4 001555   200456 236100                    LDQ     T$+16,,AUTO
         4 001556   000421 036003                    ADLQ    273,DU
         4 001557   200460 757100                    STAQ    T$+18,,AUTO
         4 001560   777640 235007                    LDA     -96,DL
         4 001561   200462 452500                    STP2    T$+20,,AUTO
         4 001562   200462 236100                    LDQ     T$+20,,AUTO
         4 001563   000422 036003                    ADLQ    274,DU
         4 001564   200464 757100                    STAQ    T$+22,,AUTO
         4 001565   777640 235007                    LDA     -96,DL
         4 001566   200466 452500                    STP2    T$+24,,AUTO
         4 001567   200466 236100                    LDQ     T$+24,,AUTO
         4 001570   000423 036003                    ADLQ    275,DU
         4 001571   200472 757100                    STAQ    T$+28,,AUTO
         4 001572   200444 237100                    LDAQ    T$+6,,AUTO
         4 001573   200470 757100                    STAQ    T$+26,,AUTO
         4 001574   200450 237100                    LDAQ    T$+10,,AUTO
         4 001575   200474 757100                    STAQ    T$+30,,AUTO
         4 001576   200454 237100                    LDAQ    T$+14,,AUTO
         4 001577   200476 757100                    STAQ    T$+32,,AUTO
         4 001600   200460 237100                    LDAQ    T$+18,,AUTO
         4 001601   200500 757100                    STAQ    T$+34,,AUTO
         4 001602   200464 237100                    LDAQ    T$+22,,AUTO
         4 001603   200502 757100                    STAQ    T$+36,,AUTO
PL6.E3A0      #002=DBD$JIT File=DBD$USER.:E05TSI                                 TUE 07/29/97 13:10 Page:172
         4 001604   200472 237100                    LDAQ    T$+28,,AUTO
         4 001605   200504 757100                    STAQ    T$+38,,AUTO
         4 001606   200504 630500                    EPPR0   T$+38,,AUTO
         4 001607   200514 450500                    STP0    T$+46,,AUTO
         4 001610   200502 631500                    EPPR1   T$+36,,AUTO
         4 001611   200513 451500                    STP1    T$+45,,AUTO
         4 001612   200500 633500                    EPPR3   T$+34,,AUTO
         4 001613   200512 453500                    STP3    T$+44,,AUTO
         4 001614   200476 634500                    EPPR4   T$+32,,AUTO
         4 001615   200511 454500                    STP4    T$+43,,AUTO
         4 001616   200474 635500                    EPPR5   T$+30,,AUTO
         4 001617   200510 455500                    STP5    T$+42,,AUTO
         4 001620   200470 636500                    EPPR6   T$+26,,AUTO
         4 001621   200507 456500                    STP6    T$+41,,AUTO
         4 001622   000074 236000 5                  LDQ     60
         4 001623   200506 756100                    STQ     T$+40,,AUTO
         4 001624   200506 630500                    EPPR0   T$+40,,AUTO
         4 001625   000000 220000 xsym               LDX0    DAF$WRITE
         4 001626   000025 631400 xsym               EPPR1   B_VECTNIL+21
         4 001627   000000 701010                    TSX1    0,X0
         4 001630   000000 011000                    NOP     0

      919    10278    2        VECTOR(RNST), VECTOR(FRS), VECTOR(XLIMFLG), VECTOR(STEPCC),
      920    10279    2        VECTOR(RUNFLAGS), VECTOR(JUNK) );
      921    10280    2      CALL DAF$WRITE(VECTOR(BLANK_LINE));

  10280  4 001631   000044 630400 5                  EPPR0   36
         4 001632   000000 220000 xsym               LDX0    DAF$WRITE
         4 001633   000017 631400 xsym               EPPR1   B_VECTNIL+15
         4 001634   000000 701010                    TSX1    0,X0
         4 001635   000000 011000                    NOP     0

      922    10281
      923    10282    2      CALL DAF$WRITE(VECTOR(JITFMT60),

  10282  4 001636   777640 235007                    LDA     -96,DL
         4 001637   200442 452500                    STP2    T$+4,,AUTO
PL6.E3A0      #002=DBD$JIT File=DBD$USER.:E05TSI                                 TUE 07/29/97 13:10 Page:173
         4 001640   200442 236100                    LDQ     T$+4,,AUTO
         4 001641   000424 036003                    ADLQ    276,DU
         4 001642   200444 757100                    STAQ    T$+6,,AUTO
         4 001643   777640 235007                    LDA     -96,DL
         4 001644   200446 452500                    STP2    T$+8,,AUTO
         4 001645   200446 236100                    LDQ     T$+8,,AUTO
         4 001646   000425 036003                    ADLQ    277,DU
         4 001647   200450 757100                    STAQ    T$+10,,AUTO
         4 001650   777640 235007                    LDA     -96,DL
         4 001651   200452 452500                    STP2    T$+12,,AUTO
         4 001652   200452 236100                    LDQ     T$+12,,AUTO
         4 001653   000426 036003                    ADLQ    278,DU
         4 001654   200454 757100                    STAQ    T$+14,,AUTO
         4 001655   777640 235007                    LDA     -96,DL
         4 001656   200456 452500                    STP2    T$+16,,AUTO
         4 001657   200456 236100                    LDQ     T$+16,,AUTO
         4 001660   000427 036003                    ADLQ    279,DU
         4 001661   200460 757100                    STAQ    T$+18,,AUTO
         4 001662   777640 235007                    LDA     -96,DL
         4 001663   200462 452500                    STP2    T$+20,,AUTO
         4 001664   200462 236100                    LDQ     T$+20,,AUTO
         4 001665   000430 036003                    ADLQ    280,DU
         4 001666   200464 757100                    STAQ    T$+22,,AUTO
         4 001667   777640 235007                    LDA     -96,DL
         4 001670   200466 452500                    STP2    T$+24,,AUTO
         4 001671   200466 236100                    LDQ     T$+24,,AUTO
         4 001672   000431 036003                    ADLQ    281,DU
         4 001673   200472 757100                    STAQ    T$+28,,AUTO
         4 001674   200444 237100                    LDAQ    T$+6,,AUTO
         4 001675   200470 757100                    STAQ    T$+26,,AUTO
         4 001676   200450 237100                    LDAQ    T$+10,,AUTO
         4 001677   200474 757100                    STAQ    T$+30,,AUTO
         4 001700   200454 237100                    LDAQ    T$+14,,AUTO
         4 001701   200476 757100                    STAQ    T$+32,,AUTO
         4 001702   200460 237100                    LDAQ    T$+18,,AUTO
         4 001703   200500 757100                    STAQ    T$+34,,AUTO
         4 001704   200464 237100                    LDAQ    T$+22,,AUTO
PL6.E3A0      #002=DBD$JIT File=DBD$USER.:E05TSI                                 TUE 07/29/97 13:10 Page:174
         4 001705   200502 757100                    STAQ    T$+36,,AUTO
         4 001706   200472 237100                    LDAQ    T$+28,,AUTO
         4 001707   200504 757100                    STAQ    T$+38,,AUTO
         4 001710   200504 630500                    EPPR0   T$+38,,AUTO
         4 001711   200514 450500                    STP0    T$+46,,AUTO
         4 001712   200502 631500                    EPPR1   T$+36,,AUTO
         4 001713   200513 451500                    STP1    T$+45,,AUTO
         4 001714   200500 633500                    EPPR3   T$+34,,AUTO
         4 001715   200512 453500                    STP3    T$+44,,AUTO
         4 001716   200476 634500                    EPPR4   T$+32,,AUTO
         4 001717   200511 454500                    STP4    T$+43,,AUTO
         4 001720   200474 635500                    EPPR5   T$+30,,AUTO
         4 001721   200510 455500                    STP5    T$+42,,AUTO
         4 001722   200470 636500                    EPPR6   T$+26,,AUTO
         4 001723   200507 456500                    STP6    T$+41,,AUTO
         4 001724   000100 236000 5                  LDQ     64
         4 001725   200506 756100                    STQ     T$+40,,AUTO
         4 001726   200506 630500                    EPPR0   T$+40,,AUTO
         4 001727   000000 220000 xsym               LDX0    DAF$WRITE
         4 001730   000025 631400 xsym               EPPR1   B_VECTNIL+21
         4 001731   000000 701010                    TSX1    0,X0
         4 001732   000000 011000                    NOP     0

      924    10283    2        VECTOR(MAXLVLS), VECTOR(CURRLVLS), VECTOR(SPEAKLVLS),
      925    10284    2        VECTOR(JPEAKLVLS), VECTOR(CLUKRLVL), VECTOR(CLUKXLVL) );
      926    10285    2      CALL DAF$WRITE(VECTOR(BLANK_LINE));

  10285  4 001733   000044 630400 5                  EPPR0   36
         4 001734   000000 220000 xsym               LDX0    DAF$WRITE
         4 001735   000017 631400 xsym               EPPR1   B_VECTNIL+15
         4 001736   000000 701010                    TSX1    0,X0
         4 001737   000000 011000                    NOP     0

      927    10286
      928    10287    2      CALL DAF$WRITE(VECTOR(JITFMT70),

  10287  4 001740   777640 235007                    LDA     -96,DL
PL6.E3A0      #002=DBD$JIT File=DBD$USER.:E05TSI                                 TUE 07/29/97 13:10 Page:175
         4 001741   200442 452500                    STP2    T$+4,,AUTO
         4 001742   200442 236100                    LDQ     T$+4,,AUTO
         4 001743   000133 036003                    ADLQ    91,DU
         4 001744   200444 757100                    STAQ    T$+6,,AUTO
         4 001745   777640 235007                    LDA     -96,DL
         4 001746   200446 452500                    STP2    T$+8,,AUTO
         4 001747   200446 236100                    LDQ     T$+8,,AUTO
         4 001750   000135 036003                    ADLQ    93,DU
         4 001751   200450 757100                    STAQ    T$+10,,AUTO
         4 001752   777640 235007                    LDA     -96,DL
         4 001753   200452 452500                    STP2    T$+12,,AUTO
         4 001754   200452 236100                    LDQ     T$+12,,AUTO
         4 001755   000104 036000 5                  ADLQ    68
         4 001756   200454 757100                    STAQ    T$+14,,AUTO
         4 001757   777640 235007                    LDA     -96,DL
         4 001760   200456 452500                    STP2    T$+16,,AUTO
         4 001761   200456 236100                    LDQ     T$+16,,AUTO
         4 001762   000105 036000 5                  ADLQ    69
         4 001763   200462 757100                    STAQ    T$+20,,AUTO
         4 001764   200444 237100                    LDAQ    T$+6,,AUTO
         4 001765   200460 757100                    STAQ    T$+18,,AUTO
         4 001766   200450 237100                    LDAQ    T$+10,,AUTO
         4 001767   200464 757100                    STAQ    T$+22,,AUTO
         4 001770   200454 237100                    LDAQ    T$+14,,AUTO
         4 001771   200466 757100                    STAQ    T$+24,,AUTO
         4 001772   200462 237100                    LDAQ    T$+20,,AUTO
         4 001773   200470 757100                    STAQ    T$+26,,AUTO
         4 001774   200470 630500                    EPPR0   T$+26,,AUTO
         4 001775   200476 450500                    STP0    T$+32,,AUTO
         4 001776   200466 631500                    EPPR1   T$+24,,AUTO
         4 001777   200475 451500                    STP1    T$+31,,AUTO
         4 002000   200464 633500                    EPPR3   T$+22,,AUTO
         4 002001   200474 453500                    STP3    T$+30,,AUTO
         4 002002   200460 634500                    EPPR4   T$+18,,AUTO
         4 002003   200473 454500                    STP4    T$+29,,AUTO
         4 002004   000106 236000 5                  LDQ     70
         4 002005   200472 756100                    STQ     T$+28,,AUTO
PL6.E3A0      #002=DBD$JIT File=DBD$USER.:E05TSI                                 TUE 07/29/97 13:10 Page:176
         4 002006   200472 630500                    EPPR0   T$+28,,AUTO
         4 002007   000000 220000 xsym               LDX0    DAF$WRITE
         4 002010   000023 631400 xsym               EPPR1   B_VECTNIL+19
         4 002011   000000 701010                    TSX1    0,X0
         4 002012   000000 011000                    NOP     0

      929    10288    2        VECTOR(G$JIT.READS_HOST), VECTOR(G$JIT.READS_UC),
      930    10289    2        VECTOR(G$JIT.JREADS_HOST), VECTOR(G$JIT.JREADS_UC) );
      931    10290
      932    10291    2      CALL DAF$WRITE(VECTOR(JITFMT71),

  10291  4 002013   777640 235007                    LDA     -96,DL
         4 002014   200442 452500                    STP2    T$+4,,AUTO
         4 002015   200442 236100                    LDQ     T$+4,,AUTO
         4 002016   000134 036003                    ADLQ    92,DU
         4 002017   200444 757100                    STAQ    T$+6,,AUTO
         4 002020   777640 235007                    LDA     -96,DL
         4 002021   200446 452500                    STP2    T$+8,,AUTO
         4 002022   200446 236100                    LDQ     T$+8,,AUTO
         4 002023   000136 036003                    ADLQ    94,DU
         4 002024   200450 757100                    STAQ    T$+10,,AUTO
         4 002025   777640 235007                    LDA     -96,DL
         4 002026   200452 452500                    STP2    T$+12,,AUTO
         4 002027   200452 236100                    LDQ     T$+12,,AUTO
         4 002030   000112 036000 5                  ADLQ    74
         4 002031   200454 757100                    STAQ    T$+14,,AUTO
         4 002032   777640 235007                    LDA     -96,DL
         4 002033   200456 452500                    STP2    T$+16,,AUTO
         4 002034   200456 236100                    LDQ     T$+16,,AUTO
         4 002035   000113 036000 5                  ADLQ    75
         4 002036   200462 757100                    STAQ    T$+20,,AUTO
         4 002037   200444 237100                    LDAQ    T$+6,,AUTO
         4 002040   200460 757100                    STAQ    T$+18,,AUTO
         4 002041   200450 237100                    LDAQ    T$+10,,AUTO
         4 002042   200464 757100                    STAQ    T$+22,,AUTO
         4 002043   200454 237100                    LDAQ    T$+14,,AUTO
         4 002044   200466 757100                    STAQ    T$+24,,AUTO
PL6.E3A0      #002=DBD$JIT File=DBD$USER.:E05TSI                                 TUE 07/29/97 13:10 Page:177
         4 002045   200462 237100                    LDAQ    T$+20,,AUTO
         4 002046   200470 757100                    STAQ    T$+26,,AUTO
         4 002047   200470 630500                    EPPR0   T$+26,,AUTO
         4 002050   200476 450500                    STP0    T$+32,,AUTO
         4 002051   200466 631500                    EPPR1   T$+24,,AUTO
         4 002052   200475 451500                    STP1    T$+31,,AUTO
         4 002053   200464 633500                    EPPR3   T$+22,,AUTO
         4 002054   200474 453500                    STP3    T$+30,,AUTO
         4 002055   200460 634500                    EPPR4   T$+18,,AUTO
         4 002056   200473 454500                    STP4    T$+29,,AUTO
         4 002057   000114 236000 5                  LDQ     76
         4 002060   200472 756100                    STQ     T$+28,,AUTO
         4 002061   200472 630500                    EPPR0   T$+28,,AUTO
         4 002062   000000 220000 xsym               LDX0    DAF$WRITE
         4 002063   000023 631400 xsym               EPPR1   B_VECTNIL+19
         4 002064   000000 701010                    TSX1    0,X0
         4 002065   000000 011000                    NOP     0

      933    10292    2        VECTOR(G$JIT.WRITES_HOST), VECTOR(G$JIT.WRITES_UC),
      934    10293    2        VECTOR(G$JIT.JWRITES_HOST), VECTOR(G$JIT.JWRITES_UC) );
      935    10294    2      CALL DAF$WRITE(VECTOR(BLANK_LINE));

  10294  4 002066   000044 630400 5                  EPPR0   36
         4 002067   000000 220000 xsym               LDX0    DAF$WRITE
         4 002070   000017 631400 xsym               EPPR1   B_VECTNIL+15
         4 002071   000000 701010                    TSX1    0,X0
         4 002072   000000 011000                    NOP     0

      936    10295
      937    10296    2      CALL DAF$WRITE(VECTOR(JIT_LINE));

  10296  4 002073   000120 630400 5                  EPPR0   80
         4 002074   000000 220000 xsym               LDX0    DAF$WRITE
         4 002075   000017 631400 xsym               EPPR1   B_VECTNIL+15
         4 002076   000000 701010                    TSX1    0,X0
         4 002077   000000 011000                    NOP     0

PL6.E3A0      #002=DBD$JIT File=DBD$USER.:E05TSI                                 TUE 07/29/97 13:10 Page:178
      938    10297    2      FPT_ERRMSG.BUF_ = VECTOR(ERRBUF);

  10297  4 002100   000121 235000 5                  LDA     81
         4 002101   200442 452500                    STP2    T$+4,,AUTO
         4 002102   200442 236100                    LDQ     T$+4,,AUTO
         4 002103   000004 036003                    ADLQ    4,DU
         4 002104   000004 757000 1                  STAQ    FPT_ERRMSG+4

      939    10298    2      T$ = ADDR(G$JIT.ERR);

  10298  4 002105   200131 630500                    EPPR0   G$JIT+30,,AUTO
         4 002106   200436 450500                    STP0    T$,,AUTO

      940    10299    2      FPT_ERRMSG.CODE_ = VECTOR(T$->B$1WORD);

  10299  4 002107   777640 235007                    LDA     -96,DL
         4 002110   200436 236100                    LDQ     T$,,AUTO
         4 002111   000002 757000 1                  STAQ    FPT_ERRMSG+2

      941    10300    2      CALL M$ERRMSG(FPT_ERRMSG);

  10300  4 002112   000000 630400 1                  EPPR0   FPT_ERRMSG
         4 002113   020000 713400                    CLIMB   8192
         4 002114   405000 401760                    pmme    nvectors=11

      942    10301
      943    10302    2      T$ = ADDR(G$JIT.FD_ALTERR);

  10302  4 002115   200225 630500                    EPPR0   G$JIT+90,,AUTO
         4 002116   200436 450500                    STP0    T$,,AUTO

      944    10303    2      FPT_ERRMSG.CODE_ = VECTOR(T$->B$1WORD);

  10303  4 002117   777640 235007                    LDA     -96,DL
         4 002120   200436 236100                    LDQ     T$,,AUTO
         4 002121   000002 757000 1                  STAQ    FPT_ERRMSG+2

PL6.E3A0      #002=DBD$JIT File=DBD$USER.:E05TSI                                 TUE 07/29/97 13:10 Page:179
      945    10304    3      CALL M$ERRMSG(FPT_ERRMSG) WHENALTRETURN DO; END;

  10304  4 002122   000000 630400 1                  EPPR0   FPT_ERRMSG
         4 002123   420000 713400                    CLIMB   alt,+8192
         4 002124   405000 401760                    pmme    nvectors=11
         4 002125   002127 702000 4                  TSX2    s:10306
         4 002126   002127 710000 4                  TRA     s:10306

      946    10305
      947    10306    2      CALL DAF$WRITE(VECTOR(BLANK_LINE));

  10306  4 002127   000044 630400 5                  EPPR0   36
         4 002130   000000 220000 xsym               LDX0    DAF$WRITE
         4 002131   000017 631400 xsym               EPPR1   B_VECTNIL+15
         4 002132   000000 701010                    TSX1    0,X0
         4 002133   000000 011000                    NOP     0

      948    10307    2      RETURN;

  10307  4 002134   200440 221300                    LDX1  ! T$+2,,AUTO
         4 002135   000001 702211                    TSX2  ! 1,X1
      949    10308    2   END DISPJIT;
      950    10309    1   END DBD$JIT;

PL6.E3A0      #002=DBD$JIT File=DBD$USER.:E05TSI                                 TUE 07/29/97 13:10 Page:180
--  Include file information  --

   XU_MACRO_C.:E05TOU  is referenced.
   DA_FORMAT_C.:E05TOU  is referenced.
   GM_VIRTUAL_E.:E05TOU  is referenced.
   G_LCP6_E.:E05TOU  is referenced.
   G_JIT_M.:E05TOU  is referenced.
   CP_6_C.:E05TOU  is referenced.
   CP_6.:E05TOU  cannot be made into a system file and is referenced.
      No diagnostics issued in procedure DBD$JIT.
PL6.E3A0      #002=DBD$JIT File=DBD$USER.:E05TSI                                 TUE 07/29/97 13:10 Page:181

 **** Variables and constants ****

  ****  Section 001  Data  DBD$JIT

  ****  Scalars and arrays  ****
OctLoc.c.b A Datatyp(siz) R M Lvl/name                 OctLoc.c.b A Datatyp(siz) R M Lvl/name

     0-0-0/d STRC(936)   r     1 FPT_ERRMSG                32-0-0/w STRC(288)   r     1 JITRPT
    42-0-0/c STRC(288)   r     1 JITRPTTX00

  ****  Section 003 RoData DBD$JIT

  ****  Scalars and arrays  ****
OctLoc.c.b A Datatyp(siz) R M Lvl/name                 OctLoc.c.b A Datatyp(siz) R M Lvl/name

     1-0-0/c CHAR        r     1 BLANK_LINE
    11-0-0/c CHAR(7)     r     1 ENTRYCHAR(0:2)
    31-0-0/c CHAR(65)    r     1 JITFMT10                  52-0-0/c CHAR(75)    r     1 JITFMT20
    75-0-0/c CHAR(55)    r     1 JITFMT30                 113-0-0/c CHAR(47)    r     1 JITFMT31
   127-0-0/c CHAR(59)    r     1 JITFMT40                 146-0-0/c CHAR(72)    r     1 JITFMT41
   170-0-0/c CHAR(73)    r     1 JITFMT50                 213-0-0/c CHAR(75)    r     1 JITFMT60
   236-0-0/c CHAR(67)    r     1 JITFMT70                 257-0-0/c CHAR(67)    r     1 JITFMT71
     2-0-0/c CHAR(25)    r     1 JIT_LINE
    17-0-0/c CHAR(8)     r     1 MODECHAR(0:4)
     0-0-0/w UBIN        r     1 ROS$

  ****  Auto variables  ****

  ****  Scalars and arrays  ****
OctLoc.c.b A Datatyp(siz) R M Lvl/name                 OctLoc.c.b A Datatyp(siz) R M Lvl/name

     3-0-0/w PTR         r     1 @TOP                     430-0-0/w UBIN        r     1 CLUKRLVL
   431-0-0/w UBIN        r     1 CLUKXLVL                 353-0-0/w SBIN        r     1 CPUMINS
   354-0-0/w SBIN        r     1 CPUSECS                  402-0-0/w UBIN        r     1 CQPC
   425-0-0/w UBIN        r     1 CURRLVLS                 412-0-0/w UBIN        r     1 CVM_REAL
   415-0-0/w UBIN        r     1 DB                       362-0-0/w UBIN        r     1 DLL
   363-0-0/w UBIN        r     1 DUL                        4-0-0/c CHAR(200)   r     1 ERRBUF
PL6.E3A0      #002=DBD$JIT File=DBD$USER.:E05TSI                                 TUE 07/29/97 13:10 Page:182
   417-0-0/w UBIN        r     1 FRS                       73-0-0/w STRC(6318)  r     1 G$JIT
   432-0-0/w UBIN        r     1 I                         72-0-0/w UBIN        r     1 JIT$
   361-0-0/w UBIN        r     1 JITUN                    407-0-0/w UBIN        r     1 JMCLS
   427-0-0/w UBIN        r     1 JPEAKLVLS                423-0-0/w UBIN        r     1 JUNK
   366-0-0/w UBIN        r     1 LLL                      367-0-0/w UBIN        r     1 LUL
   424-0-0/w UBIN        r     1 MAXLVLS                  370-0-0/w UBIN        r     1 MAXMEM
   401-0-0/w UBIN        r     1 NSPC                     376-0-0/w UBIN        r     1 PCC
   371-0-0/w UBIN        r     1 PCD                      375-0-0/w UBIN        r     1 PCDDS
   374-0-0/w UBIN        r     1 PCDS                     373-0-0/w UBIN        r     1 PCL
   372-0-0/w UBIN        r     1 PCP                      377-0-0/w UBIN        r     1 PCROS
   364-0-0/w UBIN        r     1 PLL                      406-0-0/w UBIN        r     1 PPRIV
   403-0-0/w UBIN        r     1 PRIV_ACTIVE              404-0-0/w UBIN        r     1 PRIV_AUTH
   405-0-0/w UBIN        r     1 PRIV_PRC                 400-0-0/w UBIN        r     1 PSEUDOPGS
   365-0-0/w UBIN        r     1 PUL                      416-0-0/w UBIN        r     1 RNST
    66-0-0/w STRC(144)   r     1 ROSBASE                  422-0-0/w UBIN        r     1 RUNFLAGS
   414-0-0/w UBIN        r     1 SLIB                     410-0-0/w UBIN        r     1 SMCLS
   426-0-0/w UBIN        r     1 SPEAKLVLS                413-0-0/w UBIN        r     1 SPROC
   421-0-0/w UBIN        r     1 STEPCC                   411-0-0/w UBIN        r     1 STEPS
   360-0-0/w UBIN        r     1 SYSID                    436-0-0/w PTR         r     1 T$
    *0-0-0/w STRC(144)   r     1 TOP                      355-0-0/w SBIN        r     1 TUEXT
   434-0-0/w SBIN        r     1 UN                       433-0-0/w UBIN        r     1 USR_REP_FLG
   420-0-0/w UBIN        r     1 XLIMFLG

  ****  SYMREF variables  ****

  ****  Scalars and arrays  ****
OctLoc.c.b A Datatyp(siz) R M Lvl/name                 OctLoc.c.b A Datatyp(siz) R M Lvl/name

     0-0-0/w EPTR        r     1 DAF$WRITE                  0-0-0/b BIT         r     1 DA_MAPERR
     0-0-0/w UBIN        r     1 DB_MUIS

  ****  BASED and DCB variables  ****

  ****  Scalars and arrays  ****
OctLoc.c.b A Datatyp(siz) R M Lvl/name                 OctLoc.c.b A Datatyp(siz) R M Lvl/name

     0-0-0/w UBIN        r     1 B$1WORD                    0-0-0N  NULL        r     1 M$DO
PL6.E3A0      #002=DBD$JIT File=DBD$USER.:E05TSI                                 TUE 07/29/97 13:10 Page:183
     0-0-0/w STRC(144)   r     1 OUT


   Procedure DBD$JIT requires 1118 words for executable code.
   Procedure DBD$JIT requires 340 words of local(AUTO) storage.

    No errors detected in file DBD$USER.:E05TSI    .
PL6.E3A0      #002=DBD$JIT File=DBD$USER.:E05TSI                                 TUE 07/29/97 13:10 Page:184
          *** CROSS REFERENCE LISTING ***
**     DENOTES     IDENTIFIER DEFINITION
<<                 IDENTIFIER'S VALUE SET
>>                 IDENTIFIER'S VALUE USED
<>                 IDENTIFIER SET AND/OR USED
--                 IDENTIFIER REFERENCED
PL6.E3A0      #002=DBD$JIT File=DBD$USER.:E05TSI                                 TUE 07/29/97 13:10 Page:185
          MINI XREF LISTING

B$1WORD
      9786**DCL     10299--ASSIGN  10303--ASSIGN
BLANK_LINE
     10059**DCL     10253--CALL    10258--CALL    10265--CALL    10269--CALL    10274--CALL    10280--CALL
     10285--CALL    10294--CALL    10306--CALL
CLUKRLVL
     10047**DCL     10240<>CALL    10282--CALL
CLUKXLVL
     10048**DCL     10241<>CALL    10282--CALL
CPUMINS
      9993**DCL     10245<<ASSIGN
CPUSECS
      9994**DCL     10246<<ASSIGN
CQPC
     10021**DCL     10212<>CALL    10263--CALL
CURRLVLS
     10044**DCL     10237<>CALL    10282--CALL
CVM_REAL
     10031**DCL     10223<>CALL    10271--CALL
DAF$INIT
      9744**DCL-ENT 10165--CALL
DAF$WRITE
      9743**DCL     10252>>CALL    10253>>CALL    10255>>CALL    10258>>CALL    10260>>CALL    10263>>CALL
     10265>>CALL    10267>>CALL    10269>>CALL    10271>>CALL    10274>>CALL    10277>>CALL    10280>>CALL
     10282>>CALL    10285>>CALL    10287>>CALL    10291>>CALL    10294>>CALL    10296>>CALL    10306>>CALL
DA_MAPERR
      9754**DCL     10169<<ASSIGN  10180<<ASSIGN
DB
     10034**DCL     10226<>CALL    10271--CALL
DBA$SELECTION
      9745**DCL-ENT 10175--CALL
DBM$GETMEM
PL6.E3A0      #002=DBD$JIT File=DBD$USER.:E05TSI                                 TUE 07/29/97 13:10 Page:186
      9746**DCL-ENT 10184--CALL    10190--CALL
DBM$PACK1
      9748**DCL-ENT 10194--CALL    10224--CALL    10225--CALL    10226--CALL    10230--CALL    10231--CALL
     10232--CALL    10236--CALL    10237--CALL    10240--CALL    10241--CALL
DBM$PACK2
      9749**DCL-ENT 10193--CALL    10196--CALL    10197--CALL    10198--CALL    10199--CALL    10200--CALL
     10201--CALL    10202--CALL    10204--CALL    10205--CALL    10206--CALL    10207--CALL    10208--CALL
     10209--CALL    10210--CALL    10211--CALL    10212--CALL    10213--CALL    10220--CALL    10221--CALL
     10222--CALL    10228--CALL    10229--CALL    10233--CALL    10238--CALL    10239--CALL
DBM$PACK4
      9750**DCL-ENT 10189--CALL    10215--CALL    10216--CALL    10217--CALL    10218--CALL    10223--CALL
     10243--CALL
DB_MUIS
      9753**DCL     10168>>DOINDEX
DISPJIT
     10183**PROC    10170--CALL    10176--CALL
DLL
     10004**DCL     10196<>CALL    10255--CALL
DUL
     10005**DCL     10197<>CALL    10255--CALL
ENTRYCHAR
     10061**DCL     10252--CALL
ERRBUF
      9785**DCL     10297--ASSIGN
FPT_ERRMSG
      9769**DCL     10300<>CALL    10304<>CALL
FPT_ERRMSG.BUF_
      9769**DCL     10297<<ASSIGN
FPT_ERRMSG.CODE_
      9769**DCL     10299<<ASSIGN  10303<<ASSIGN
FPT_ERRMSG.V
      9773**DCL      9769--DCLINIT
FRS
     10037**DCL     10229<>CALL    10277--CALL
G$JIT
      9812**DCL     10190<>CALL    10190--CALL
PL6.E3A0      #002=DBD$JIT File=DBD$USER.:E05TSI                                 TUE 07/29/97 13:10 Page:187
G$JIT.ACCN
      9871**DCL     10252--CALL
G$JIT.CLUKRLVL
      9914**DCL     10240<>CALL
G$JIT.CLUKXLVL
      9914**DCL     10241<>CALL
G$JIT.CQPC
      9924**DCL     10212<>CALL
G$JIT.CURRLVLS
      9971**DCL     10237<>CALL
G$JIT.CVM_REAL
      9982**DCL     10223<>CALL
G$JIT.DB#
      9925**DCL     10226<>CALL
G$JIT.DLL
      9916**DCL     10196<>CALL
G$JIT.DUL
      9916**DCL     10197<>CALL
G$JIT.ERR
      9886**DCL     10298--ASSIGN
G$JIT.ERRLOG
      9967**DCL      9970--REDEF
G$JIT.FD_ALTERR
      9980**DCL     10302--ASSIGN
G$JIT.FRS
      9892**DCL     10229<>CALL
G$JIT.JMCLS
      9987**DCL     10221<>CALL
G$JIT.JPEAK_LVLS
      9983**DCL     10239<>CALL
G$JIT.JREADS_HOST
      9987**DCL     10287--CALL
G$JIT.JREADS_UC
      9988**DCL     10287--CALL
G$JIT.JSUNIT
      9881**DCL      9882--REDEF
PL6.E3A0      #002=DBD$JIT File=DBD$USER.:E05TSI                                 TUE 07/29/97 13:10 Page:188
G$JIT.JUNK
      9953**DCL     10233<>CALL
G$JIT.JWRITES_HOST
      9988**DCL     10291--CALL
G$JIT.JWRITES_UC
      9989**DCL     10291--CALL
G$JIT.LLL
      9917**DCL     10200<>CALL
G$JIT.LUL
      9918**DCL     10201<>CALL
G$JIT.MAXLVLS
      9971**DCL     10236<>CALL
G$JIT.MAXMEM
      9923**DCL     10202<>CALL
G$JIT.MCLS
      9880**DCL      9880--REDEF   10220<>CALL
G$JIT.MODE
      9869**DCL     10252>>CALL
G$JIT.NSPC
      9921**DCL     10211<>CALL
G$JIT.PCC
      9920**DCL     10209<>CALL
G$JIT.PCD
      9918**DCL     10204<>CALL
G$JIT.PCDDS
      9920**DCL     10208<>CALL
G$JIT.PCDS
      9920**DCL     10207<>CALL
G$JIT.PCL
      9919**DCL     10206<>CALL
G$JIT.PCP
      9919**DCL     10205<>CALL
G$JIT.PCROS
      9921**DCL     10210<>CALL
G$JIT.PEAK_LVLS
      9879**DCL     10238<>CALL
PL6.E3A0      #002=DBD$JIT File=DBD$USER.:E05TSI                                 TUE 07/29/97 13:10 Page:189
G$JIT.PLL
      9916**DCL     10198<>CALL
G$JIT.PPRIV
      9942**DCL     10218<>CALL
G$JIT.PRIV.ACTIVE
      9930**DCL     10215<>CALL
G$JIT.PRIV.AUTH
      9935**DCL     10216<>CALL
G$JIT.PRIV.PRC
      9940**DCL     10217<>CALL
G$JIT.PROG_ENTRY
      9869**DCL     10252>>CALL
G$JIT.PSEUDOPGS
      9923**DCL     10213<>CALL
G$JIT.PUL
      9917**DCL     10199<>CALL
G$JIT.READS_HOST
      9904**DCL     10287--CALL
G$JIT.READS_UC
      9905**DCL     10287--CALL
G$JIT.RNST
      9946**DCL     10228<>CALL
G$JIT.RUNFLAGS
      9948**DCL     10232<>CALL
G$JIT.SLIB#
      9924**DCL     10225<>CALL
G$JIT.SPROC#
      9924**DCL     10224<>CALL
G$JIT.STEP
      9907**DCL     10222<>CALL
G$JIT.STEPCC
      9900**DCL     10231<>CALL
G$JIT.SYSID
      9870**DCL     10193<>CALL
G$JIT.TMRZ
      9974**DCL      9975--REDEF
PL6.E3A0      #002=DBD$JIT File=DBD$USER.:E05TSI                                 TUE 07/29/97 13:10 Page:190
G$JIT.TUEXT
      9874**DCL     10243<>CALL
G$JIT.UNAME
      9871**DCL     10252--CALL
G$JIT.USER_EXTIME
      9873**DCL      9874--REDEF
G$JIT.USER_MEMTIME
      9876**DCL      9876--REDEF
G$JIT.USER_SVTIME
      9875**DCL      9875--REDEF
G$JIT.USR#
      9870**DCL     10194<>CALL
G$JIT.WRITES_HOST
      9905**DCL     10291--CALL
G$JIT.WRITES_UC
      9906**DCL     10291--CALL
G$JIT.XLIMFLG
      9900**DCL     10230<>CALL
I
     10052**DCL     10174<<DOINDEX 10175>>CALL
JIT$
      9797**DCL     10189<>CALL    10190<>CALL
JITFMT10
     10133**DCL     10252--CALL
JITFMT20
     10136**DCL     10255--CALL
JITFMT30
     10139**DCL     10260--CALL
JITFMT31
     10142**DCL     10263--CALL
JITFMT40
     10145**DCL     10267--CALL
JITFMT41
     10148**DCL     10271--CALL
JITFMT50
     10152**DCL     10277--CALL
PL6.E3A0      #002=DBD$JIT File=DBD$USER.:E05TSI                                 TUE 07/29/97 13:10 Page:191
JITFMT60
     10155**DCL     10282--CALL
JITFMT70
     10158**DCL     10287--CALL
JITFMT71
     10161**DCL     10291--CALL
JITRPT
     10083**DCL     10165<>CALL
JITRPTTX00
     10126**DCL     10113--DCLINIT
JITUN
     10002**DCL     10194<>CALL    10252--CALL
JIT_LINE
     10060**DCL     10296--CALL
JMCLS
     10028**DCL     10221<>CALL    10271--CALL
JPEAKLVLS
     10046**DCL     10239<>CALL    10282--CALL
JUNK
     10041**DCL     10233<>CALL    10277--CALL
LLL
     10008**DCL     10200<>CALL    10255--CALL
LUL
     10009**DCL     10201<>CALL    10255--CALL
M$ERRMSG
      5560**DCL-ENT 10300--CALL    10304--CALL
MAXLVLS
     10043**DCL     10236<>CALL    10282--CALL
MAXMEM
     10010**DCL     10202<>CALL    10255--CALL
MODECHAR
     10063**DCL     10252--CALL
NSPC
     10020**DCL     10211<>CALL    10260--CALL
OUT
      9702**DCL     10175<>CALL
PL6.E3A0      #002=DBD$JIT File=DBD$USER.:E05TSI                                 TUE 07/29/97 13:10 Page:192
PCC
     10017**DCL     10209<>CALL    10263--CALL
PCD
     10012**DCL     10204<>CALL    10260--CALL
PCDDS
     10016**DCL     10208<>CALL    10263--CALL
PCDS
     10015**DCL     10207<>CALL    10260--CALL
PCL
     10014**DCL     10206<>CALL    10260--CALL
PCP
     10013**DCL     10205<>CALL    10260--CALL
PCROS
     10018**DCL     10210<>CALL    10263--CALL
PLL
     10006**DCL     10198<>CALL    10255--CALL
PPRIV
     10026**DCL     10218<>CALL    10267--CALL
PRIV_ACTIVE
     10023**DCL     10215<>CALL    10267--CALL
PRIV_AUTH
     10024**DCL     10216<>CALL    10267--CALL
PRIV_PRC
     10025**DCL     10217<>CALL    10267--CALL
PSEUDOPGS
     10019**DCL     10213<>CALL    10263--CALL
PUL
     10007**DCL     10199<>CALL    10255--CALL
RNST
     10036**DCL     10228<>CALL    10277--CALL
ROS$
      9790**DCL     10184<>CALL
ROSBASE
      9791**DCL     10184<>CALL    10184--CALL    10184--CALL
ROSBASE.JIT$
      9793**DCL     10189<>CALL
PL6.E3A0      #002=DBD$JIT File=DBD$USER.:E05TSI                                 TUE 07/29/97 13:10 Page:193
RUNFLAGS
     10040**DCL     10232<>CALL    10277--CALL
SLIB
     10033**DCL     10225<>CALL    10271--CALL
SMCLS
     10029**DCL     10220<>CALL    10271--CALL
SPEAKLVLS
     10045**DCL     10238<>CALL    10282--CALL
SPROC
     10032**DCL     10224<>CALL    10271--CALL
STEPCC
     10039**DCL     10231<>CALL    10277--CALL
STEPS
     10030**DCL     10222<>CALL    10271--CALL
SYSID
     10001**DCL     10193<>CALL    10252--CALL
T$
     10056**DCL     10298<<ASSIGN  10299>>ASSIGN  10302<<ASSIGN  10303>>ASSIGN
TOP
      9657**DCL         9--PROC
TOP.NSUBLKS
      9669**DCL     10167>>IF      10174>>DOINDEX
TOP.SUBLK$
      9690**DCL     10175>>CALL
TUEXT
      9996**DCL     10243<>CALL    10244<<ASSIGN  10244>>ASSIGN  10245>>ASSIGN  10246>>ASSIGN
UN
     10054**DCL     10168<<DOINDEX 10175<>CALL    10184<>CALL    10190<>CALL
USR_REP_FLG
     10053**DCL     10166<<ASSIGN  10180>>IF      10188<<ASSIGN
XLIMFLG
     10038**DCL     10230<>CALL    10277--CALL
