VERSION E05

PL6.E3A0      #001=DBD$USER File=DBD$USER.:E05TSI                                TUE 07/29/97 13:10 Page:1
        1        1        /*M* DBD$USER  Formats FEP User Read Only Segment data   */
        2        2        /*T***********************************************************/
        3        3        /*T*                                                         */
        4        4        /*T* Copyright (c) Bull HN Information Systems Inc., 1997    */
        5        5        /*T*                                                         */
        6        6        /*T***********************************************************/
        7        7        /*X* PLM=3,IND=5,ECU=0,ENU=0   */
        8        8
        9        9        /*F* NAME: DBD$USER
       10       10             PURPOSE: To format the contents of the FEP Read Only Segment.
       11       11        */
       12       12        DBD$USER: PROC(TOP);
       13       13        %INCLUDE CP_6;
       14     5572        %INCLUDE G_JIT_M;
       15     5837        %INCLUDE G_LCP6_E;
       16     6095        %INCLUDE GM_VIRTUAL_E;
       17     6305        %INCLUDE DA_FORMAT_C;
       18     6547        %INCLUDE XU_MACRO_C;
       19     9653        %INCLUDE B$TABLES_C;
       20     9761
       21     9762        %PARSE$OUT (NAME=TOP,STCLASS=PARAM);
       22     9807        %PARSE$OUT (NAME=OUT,STCLASS=BASED);
       23     9852
       24     9853    1   DCL DAA$VALUE ENTRY(3) ALTRET;
       25     9854    1   DCL DAF$WRITE EPTR SYMREF;
       26     9855    1   DCL DAF$INIT ENTRY(1) ALTRET;
       27     9856    1   DCL DBA$WRITEIC ENTRY(2);
       28     9857    1   DCL DBA$SELECTION ENTRY(3) ALTRET;
       29     9858    1   DCL DBB$HEXDUMP ENTRY(4);
       30     9859    1   DCL DBM$GETMEM ENTRY(10) ALTRET;
       31     9860    1   DCL DBM$GETBOBCAT ENTRY(1) ALTRET;
       32     9861    1   DCL DBM$PACK1 ENTRY(2);
       33     9862    1   DCL DBM$PACK2 ENTRY(2);
       34     9863    1   DCL DBM$PACK4 ENTRY(2);
       35     9864    1   DCL DBM$PACKB ENTRY(2);
       36     9865    1   DCL DBM$SYSID2UN ENTRY(1) ALTRET;
       37     9866
PL6.E3A0      #001=DBD$USER File=DBD$USER.:E05TSI                                TUE 07/29/97 13:10 Page:2
       38     9867    1   DCL DB_MUIS UBIN SYMREF;
       39     9868    1   DCL DA_MAPERR BIT(36) SYMREF;
       40     9869    1   DCL DB_USRT$ UBIN SYMREF;
       41     9870    1   DCL DB_CUN UBIN SYMREF;
       42     9871
       43     9872        %B$XL_ASC_DUMP (NAME=DA_PRINTABLE_TBL);
       44     9876
       45     9877        %FPT_ERRMSG (L6_CODE=YES, OUTDCB1=M$DO);
       46     9904    1   DCL ERRBUF CHAR(200);
       47     9905    1   DCL B$1WORD UBIN BASED;
       48     9906    1   DCL M$DO DCB;
       49     9907
       50     9908    1   DCL DISP_WHAT UBIN;
       51     9909        %EQU DISP_ROS# = 0;
       52     9910        %EQU DISP_TCB# = 1;
       53     9911        %EQU DISP_DCB# = 2;
       54     9912        %EQU DISP_ECCB# = 3;
       55     9913
       56     9914        %EJECT;
PL6.E3A0      #001=DBD$USER File=DBD$USER.:E05TSI                                TUE 07/29/97 13:10 Page:3
       57     9915    1   DCL ROS$ UBIN CONSTANT INIT(%GM_ROS_BASE);
       58     9916    1   DCL 1 ROSBASE AUTO,
       59     9917    1         2 DCBPTR$ UBIN,
       60     9918    1         2 JIT$ UBIN,
       61     9919    1         2 ALT$ UBIN,
       62     9920    1         2 STK$ UBIN,
       63     9921    1         2 AVSZ UBIN HALF CALIGNED,
       64     9922    1         2 CURRSZ UBIN HALF CALIGNED,
       65     9923    1         2 AVAIL$ UBIN,
       66     9924    1         2 U_ECCB$ UBIN,
       67     9925    1         2 DB_ECCB$ UBIN,
       68     9926    1         2 CP_ECCB$ UBIN,
       69     9927    1         2 PIA$ UBIN,
       70     9928    1         2 NUMDCBS UBIN,
       71     9929    1         2 PIA(0:0) UBIN HALF CALIGNED;
       72     9930
       73     9931    1   DCL DCBPTR$ UBIN;
       74     9932    1   DCL JIT$ UBIN;
       75     9933    1   DCL ALT$ UBIN;
       76     9934    1   DCL STK$ UBIN;
       77     9935    1   DCL AVSZ UBIN;
       78     9936    1   DCL CURRSZ UBIN;
       79     9937    1   DCL AVAIL$ UBIN;
       80     9938    1   DCL U_ECCB$ UBIN;
       81     9939    1   DCL DB_ECCB$ UBIN;
       82     9940    1   DCL CP_ECCB$ UBIN;
       83     9941    1   DCL PIA$ UBIN;
       84     9942    1   DCL NUMDCBS UBIN;
       85     9943
       86     9944    1   DCL DCB$ UBIN;
       87     9945    1   DCL DCBTAB_CSIZE UBIN;
       88     9946    1   DCL DCBTABLE(0:29) UBIN;
       89     9947    1   DCL DCBI UBIN;
       90     9948    1   DCL HMI$ UBIN;
       91     9949    1   DCL SSN$ UBIN;
       92     9950    1   DCL STRM UBIN;
       93     9951    1   DCL DDEV UBIN;
PL6.E3A0      #001=DBD$USER File=DBD$USER.:E05TSI                                TUE 07/29/97 13:10 Page:4
       94     9952    1   DCL RLCID_NODE UBIN;
       95     9953    1   DCL RLCID_GEN UBIN;
       96     9954    1   DCL RLCID_LDCTX UBIN;
       97     9955    1   DCL ORG CHAR(3);
       98     9956    1   DCL FCD CHAR(3);
       99     9957    1   DCL DCBNAME_TXT CHAR(31);
      100     9958    1   DCL 1 B$DCBNAME BASED,
      101     9959    1         2 CNT UBIN(9) UNAL,
      102     9960    1         2 TXT CHAR(B$DCBNAME.CNT) UNAL;
      103     9961
      104     9962
      105     9963    1   DCL 1 G$DCB AUTO,
      106     9964    1         2 ARS UBIN HALF CALIGNED,
      107     9965    1         2 TYC UBIN HALF CALIGNED,
      108     9966    1         2 DVBYTE UBIN(9) CALIGNED,
      109     9967    1         2 STRM UBIN(9) CALIGNED,
      110     9968    1         2 FFLG UBIN(9) CALIGNED,
      111     9969    1         2 DDEV UBIN BYTE CALIGNED,
      112     9970    1         2 WIDTH UBIN HALF CALIGNED,
      113     9971    1         2 NAME CALIGNED,
      114     9972    1           3 L UBIN(9) UNAL,
      115     9973    1           3 C CHAR(31) UNAL,
      116     9974    1         2 ACCT CHAR(8) UNAL,
      117     9975    1         2 RES CHAR(4) CALIGNED,
      118     9976    1         2 WSN CHAR(8) CALIGNED,
      119     9977    1         2 * BIT(1) UNAL,
      120     9978    1         2 FCI BIT(1) UNAL,
      121     9979    1         2 FCD BIT(1) UNAL,
      122     9980    1         2 SHARE UBIN(2) UNAL,
      123     9981    1         2 DISP UBIN(4) UNAL,
      124     9982    1         2 ORG UBIN(9) CALIGNED,
      125     9983    1         2 * UBIN(1) UNAL,
      126     9984    1         2 FUN UBIN(4) UNAL,
      127     9985    1         2 ASN UBIN(4) UNAL,
      128     9986    1         2 DCB# UBIN(9) CALIGNED,
      129     9987    1         2 RECL UBIN HALF CALIGNED,
      130     9988    1         2 EOMCHAR UBIN HALF CALIGNED,
PL6.E3A0      #001=DBD$USER File=DBD$USER.:E05TSI                                TUE 07/29/97 13:10 Page:5
      131     9989    1         2 LINES UBIN HALF CALIGNED,
      132     9990    1         2 KEYTYPE UBIN BYTE CALIGNED,
      133     9991    1         2 DVFC CHAR(1) CALIGNED,
      134     9992    1         2 EVENT UBIN HALF CALIGNED,
      135     9993    1         2 HEADER$ UBIN CALIGNED,
      136     9994    1         2 TAB$ UBIN CALIGNED,
      137     9995    1         2 HMI$ UBIN CALIGNED,
      138     9996    1         2 LDCTX UBIN HALF CALIGNED,
      139     9997    1         2 RLCID CALIGNED,
      140     9998    1           3 NODE UBIN BYTE UNAL,
      141     9999    1           3 GENERATION UBIN BYTE UNAL,
      142    10000    1           3 LDCTX UBIN HALF UNAL,
      143    10001    1         2 ACTPOS UBIN HALF CALIGNED,
      144    10002    1         2 SSN$ UBIN HALIGNED,
      145    10003    1         2 DCBNAME CALIGNED,
      146    10004    1           3 L UBIN(9) UNAL,
      147    10005    1           3 NAME CHAR(31) UNAL;
      148    10006
      149    10007    1   DCL 1 G$ECCB AUTO,
      150    10008    1         2 EVENT$ UBIN CALIGNED,
      151    10009    1         2 INT$ UBIN CALIGNED,
      152    10010    1         2 XCON$ UBIN CALIGNED,
      153    10011    1         2 TRAP$ UBIN CALIGNED,
      154    10012    1         2 DBCONTROL$ UBIN CALIGNED,
      155    10013    1         2 FLAGS UBIN HALF CALIGNED,
      156    10014    1         2 FLTFLG(0:2) UBIN HALF CALIGNED;
      157    10015
      158    10016    1   DCL EXCFR$ UBIN;
      159    10017    1   DCL 1 EXCFR AUTO,
      160    10018    1         2 PREVSZ UBIN HALF CALIGNED,
      161    10019    1         2 ECC UBIN HALF CALIGNED,
      162    10020    1         2 ISM1 UBIN HALF CALIGNED,
      163    10021    1         2 ISM2 UBIN HALF CALIGNED,
      164    10022    1         2 P$ PTR CALIGNED,
      165    10023    1         2 S UBIN HALF CALIGNED,
      166    10024    1         2 REGS(0:33) UBIN HALF CALIGNED,
      167    10025    1         2 SUBC UBIN HALF CALIGNED,
PL6.E3A0      #001=DBD$USER File=DBD$USER.:E05TSI                                TUE 07/29/97 13:10 Page:6
      168    10026    1         2 EVID UBIN HALF CALIGNED,
      169    10027    1         2 ERR BIT(36) CALIGNED,
      170    10028    1         2 P# UBIN HALF CALIGNED;
      171    10029
      172    10030    1   DCL P##(0:24) UBIN;
      173    10031
      174    10032    1   DCL PREVSZ UBIN;
      175    10033    1   DCL ECC UBIN;
      176    10034    1   DCL ISM1 SBIN;
      177    10035    1   DCL ISM2 SBIN;
      178    10036    1   DCL PREG SBIN;
      179    10037    1   DCL SREG SBIN;
      180    10038    1   DCL 1 REGS(0:6),
      181    10039    1         2 CONTENTS SBIN WORD;
      182    10040    1   DCL IREG SBIN;
      183    10041    1   DCL TREG SBIN;
      184    10042    1   DCL CIREG SBIN;
      185    10043    1   DCL RDBR SBIN;
      186    10044    1   DCL SUBC UBIN;
      187    10045    1   DCL EVID UBIN;
      188    10046    1   DCL ERR UBIN;
      189    10047    1   DCL P# UBIN;
      190    10048    1   DCL L6_ERR BIT(36);
      191    10049
      192    10050    1   DCL 1 ISM,
      193    10051    1         2 M1 BIT(1),
      194    10052    1         2 RREG(0:6) BIT(1),
      195    10053    1         2 I BIT(1),
      196    10054    1         2 BREG(0:6) BIT(1),
      197    10055    1         2 MMU BIT(1),
      198    10056    1         2 NATSAP UBIN(3) UNAL,
      199    10057    1         2 * BIT(2),
      200    10058    1         2 SIP BIT(1),
      201    10059    1         2 CIP BIT(1),
      202    10060    1         2 * BIT(6),
      203    10061    1         2 T BIT(1),
      204    10062    1         2 M2_M7 BIT(1),
PL6.E3A0      #001=DBD$USER File=DBD$USER.:E05TSI                                TUE 07/29/97 13:10 Page:7
      205    10063    1         2 * BIT(4);
      206    10064
      207    10065
      208    10066        /* More Auto
      209    10067        */
      210    10068    1   DCL USR_REP_FLG UBIN;
      211    10069    1   DCL UN SBIN;
      212    10070    1   DCL USERNUM SBIN;
      213    10071    1   DCL RADIX UBIN;
      214    10072    1   DCL I SBIN;
      215    10073    1   DCL TEMP UBIN;
      216    10074    1   DCL TEMPB REDEF TEMP BIT(36);
      217    10075    1   DCL R$ PTR;
      218    10076    1   DCL R UBIN BASED(R$) CALIGNED;
      219    10077    1   DCL T$ PTR;
      220    10078
      221    10079        /* Formats for ROS Display
      222    10080        */
      223    10081        %REPORT (NAME=ROSRPT,TRUNC=YES,HEADER=NO,TITLE='FEP ROS - Read Only Segment');
      224    10147    1   DCL ROSFMT10 CHAR(0) CONSTANT INIT(
      225    10148    1   'Read Only Segment for User# .%2ZH   DCBPTR$ .%5ZH   AVAIL$ .%5ZH   NUMDCBS %D');
      226    10149
      227    10150    1   DCL ROSFMT20 CHAR(0) CONSTANT INIT(
      228    10151    1   'TCB.ALT$ .%5ZH   TCB.STK$ .%5ZH   TCB.AVSZ .%4ZH   TCB.CURRSZ .%4ZH');
      229    10152    1   DCL ROSFMT30 CHAR(0) CONSTANT INIT(
      230    10153    1   'U_ECCB$ .%5ZH   DB_ECCB$ .%5ZH   JIT$ .%5ZH   PIA$ .%5ZH');
      231    10154
      232    10155        /* Formats for DCB Display
      233    10156        */
      234    10157        %REPORT (NAME=DCBRPT,TRUNC=YES,HEADER=NO,TITLE='FEP DCB - Data Control Block');
      235    10223    1   DCL DCBFMT10 CHAR(0) CONSTANT INIT(
      236    10224    1   'DCBs for User# .%2ZH');
      237    10225
      238    10226    1   DCL DCBFMT11 CHAR(0) CONSTANT INIT(
      239    10227    1   '  # DCB$   FCD ORG RES     RLCID      STRM DDEV HMI$   SSN$   DCBNAME');
      240    10228    1   DCL DCBFMT12 CHAR(0) CONSTANT INIT(
      241    10229    1   '--- ------ --- --- ----  -----------  ---- ---- ------ ------ -------------');
PL6.E3A0      #001=DBD$USER File=DBD$USER.:E05TSI                                TUE 07/29/97 13:10 Page:8
      242    10230
      243    10231    1   DCL DCBFMT20 CHAR(0) CONSTANT INIT(
      244    10232    1   '.%2ZH .%5ZH %A %A %A  %2ZD-%3ZD-%4ZD   .%2ZH  .%2ZH .%5ZH .%5ZH %>A');
      245    10233
      246    10234    1   DCL DCBFMT30 CHAR(0) CONSTANT INIT(
      247    10235    1   '       Name: %>A.%>A');
      248    10236    1   DCL TEXT_ORG(0:7) CHAR(3) CONSTANT INIT(
      249    10237    1   '0  ','CON','FOR','TRM','UR ','CQ ','SE ','364');
      250    10238
      251    10239        /* Formats for ECCB Display.
      252    10240        */
      253    10241        %REPORT (NAME=ECCBRPT,TRUNC=YES,HEADER=NO,TITLE=
             10241            'FEP ECCB - Exceptional Condition Block');
      254    10307
      255    10308    1   DCL ECCBFMT1 CHAR(0) CONSTANT INIT(
      256    10309    1   'ECCB for User# .%2ZH:');
      257    10310    1   DCL ECCBFMT2 CHAR(0) CONSTANT INIT(
      258    10311    1   'EVENT$ .%@5.32ZH  INT$ .%@5.32ZH  XCON$ .%@5.32ZH  TRAP$ .%@5.32ZH  DBCONTROL$ .%@5
             10311        .32ZH');
      259    10312    1   DCL ECCBFMT3 CHAR(0) CONSTANT INIT(
      260    10313    1   'FLAGS: .%@4.16ZH  FLTFLG: .%@4.16ZH .%@4.16ZH .%4.16ZH %S');
      261    10314
      262    10315
      263    10316        /*  Formats for TCB Display
      264    10317        */
      265    10318    1   DCL BLANK_LINE CHAR(1) CONSTANT INIT(' ');
      266    10319        %REPORT (NAME=TCBRPT,TRUNC=YES,HEADER=NO,TITLE='FEP TCB - Task Control Block');
      267    10385    1   DCL TYP_FRAME_TXT(0:6) CHAR(10) CONSTANT INIT(
      268    10386    1   'Event','Break','Xcon','Trap','DB Cntrl','TCB Full','Altret');
      269    10387    1   DCL TCBFMT1 CHAR(0) CONSTANT INIT(
      270    10388    1   'TCB for User# .%2ZH   ALT$ .%5ZH   STK$ .%5ZH   AVSZ .%4ZH   CURRSZ .%4ZH');
      271    10389
      272    10390    1   DCL TCBFMT2 CHAR(0) CONSTANT INIT(
      273    10391    1   '%>A frame at .%5ZH  ECC: .%4ZH  PREVSZ: .%4ZH');
      274    10392
      275    10393    1   DCL F_INFO1 CHAR(0) CONSTANT INIT(
      276    10394    1   'P: .%8LH  S: .%4ZH  ISM1: .%4ZH  ISM2: .%4ZH%/');
PL6.E3A0      #001=DBD$USER File=DBD$USER.:E05TSI                                TUE 07/29/97 13:10 Page:9
      277    10395
      278    10396    1   DCL ICTEXT CHAR(0) CONSTANT INIT('P$: %A+.%H');
      279    10397
      280    10398    1   DCL F_REG1 CHAR(0) CONSTANT INIT(
      281    10399    1    '%/                   1      2      3      4      5      6      7');
      282    10400
      283    10401    1   DCL F_REG2 CHAR(0) CONSTANT INIT(
      284    10402
      285    10403    1    '              ------ ------ ------ ------ ------ ------ ------');
      286    10404
      287    10405    1   DCL F_REG3 CHAR(0) CONSTANT INIT(
      288    10406    1   '%A Registers:  %7(%6*H %)');
      289    10407
      290    10408    1   DCL C_BREGS CHAR(1) CONSTANT INIT('B');
      291    10409    1   DCL C_RREGS CHAR(1) CONSTANT INIT('R');
      292    10410    1   DCL C_MREGS CHAR(1) CONSTANT INIT('M');
      293    10411
      294    10412    1   DCL F_INFO2 CHAR(0) CONSTANT INIT(
      295    10413    1   '%/I: .%4Z*H  T$: .%8L*H   CI: .%4ZH  RDBR$: .%8LH');
      296    10414
      297    10415    1   DCL TCBFMT9 CHAR(0) CONSTANT INIT(
      298    10416    1   'SUBC: .%4ZH   EVID: .%4ZH   ERR: .%8ZH   P#: .%4ZH');
      299    10417
      300    10418    1   DCL TCBFMT10 CHAR(0) CONSTANT INIT(
      301    10419    1   '.%4ZH  %8(.%4ZH %)');
      302    10420
      303    10421        %EJECT;
PL6.E3A0      #001=DBD$USER File=DBD$USER.:E05TSI                                TUE 07/29/97 13:10 Page:10
      304    10422        /*F* NAME: DBD$ROS
      305    10423             PURPOSE: To format the initial portion of the FEP ROS.
      306    10424        */
      307    10425    1   DBD$ROS: ENTRY(TOP);
      308    10426    1      DISP_WHAT = %DISP_ROS#;
      309    10427    1      CALL DAF$INIT(ROSRPT);
      310    10428    1      GOTO COMMON_ENTRY;
      311    10429
      312    10430        /*F* NAME: DBD$TCB
      313    10431             PURPOSE: To format the FEP Task Control Block.
      314    10432        */
      315    10433    1   DBD$TCB: ENTRY(TOP);
      316    10434    1      DISP_WHAT = %DISP_TCB#;
      317    10435    1      CALL DAF$INIT(TCBRPT);
      318    10436    1      GOTO COMMON_ENTRY;
      319    10437
      320    10438
      321    10439        /*F* NAME: DBD$DCB
      322    10440             PURPOSE: To format the FEP Data Control Block.
      323    10441        */
      324    10442    1   DBD$DCB: ENTRY(TOP);
      325    10443    1      DISP_WHAT = %DISP_DCB#;
      326    10444    1      CALL DAF$INIT(DCBRPT);
      327    10445    1      GOTO COMMON_ENTRY;
      328    10446
      329    10447        /*F* NAME: DBD$ECCB
      330    10448             PURPOSE: To format the FEP Exceptional Condition Control Block.
      331    10449        */
      332    10450    1   DBD$ECCB: ENTRY(TOP);
      333    10451    1      DISP_WHAT = %DISP_ECCB#;
      334    10452    1      CALL DAF$INIT(ECCBRPT);
      335    10453    1      GOTO COMMON_ENTRY;
      336    10454
      337    10455        %EJECT;
PL6.E3A0      #001=DBD$USER File=DBD$USER.:E05TSI                                TUE 07/29/97 13:10 Page:11
      338    10456    1   COMMON_ENTRY : ;
      339    10457    1      USR_REP_FLG = 0;
      340    10458    2      IF TOP.NSUBLKS=0 THEN DO;
      341    10459    3           DO UN=-1 DOWNTO -DB_MUIS;
      342    10460    3                USERNUM = -UN;
      343    10461    4                DO CASE(DISP_WHAT);
      344    10462    4                 CASE(%DISP_ROS#); CALL DISP_ROS;
      345    10463    4                 CASE(%DISP_DCB#); CALL DISP_DCB;
      346    10464    4                 CASE(%DISP_TCB#); CALL DISP_TCB;
      347    10465    4                 CASE(%DISP_ECCB#); CALL DISP_ECCB;
      348    10466    4                   END;
      349    10467    3                END;
      350    10468    2           END;
      351    10469    2      ELSE DO;
      352    10470    3           DO I=0 TO TOP.NSUBLKS-1;
      353    10471    4                CALL DBA$SELECTION(TOP.SUBLK$(I)->OUT,UN) WHENRETURN DO;
      354    10472    4                     IF UN < 0 THEN
      355    10473    4                          USERNUM = -UN;
      356    10474    4                     ELSE
      357    10475    5                          CALL DBM$SYSID2UN(UN) WHENRETURN DO;
      358    10476    5                               USERNUM = DB_CUN;
      359    10477    5                               END;
      360    10478    5                          WHENALTRETURN DO;
      361    10479    5                               USERNUM = UN;
      362    10480    5                               END;
      363    10481    5                     DO CASE(DISP_WHAT);
      364    10482    5                      CASE(%DISP_ROS#); CALL DISP_ROS;
      365    10483    5                      CASE(%DISP_DCB#); CALL DISP_DCB;
      366    10484    5                      CASE(%DISP_TCB#); CALL DISP_TCB;
      367    10485    5                      CASE(%DISP_ECCB#); CALL DISP_ECCB;
      368    10486    5                        END;
      369    10487    4                     END;
      370    10488    3                END;
      371    10489    2           END;
      372    10490    1      IF USR_REP_FLG>0 THEN DA_MAPERR='0'B;
      373    10491    1      CALL DAF$WRITE(VECTOR(BLANK_LINE));
      374    10492    1      CALL DAF$WRITE(VECTOR(BLANK_LINE));
PL6.E3A0      #001=DBD$USER File=DBD$USER.:E05TSI                                TUE 07/29/97 13:10 Page:12
      375    10493    1      RETURN;
      376    10494        %EJECT;
PL6.E3A0      #001=DBD$USER File=DBD$USER.:E05TSI                                TUE 07/29/97 13:10 Page:13
      377    10495    1   DISP_ROS: PROC;
      378    10496    2      CALL GET_ROSBASE
      379    10497    3      WHENALTRETURN DO; RETURN; END;
      380    10498
      381    10499    2      CALL DAF$WRITE(VECTOR(ROSFMT10),
      382    10500    2        VECTOR(USERNUM), VECTOR(DCBPTR$), VECTOR(AVAIL$), VECTOR(NUMDCBS) );
      383    10501    2      CALL DAF$WRITE(VECTOR(BLANK_LINE));
      384    10502
      385    10503    2      CALL DAF$WRITE(VECTOR(ROSFMT20),
      386    10504    2        VECTOR(ALT$), VECTOR(STK$), VECTOR(AVSZ), VECTOR(CURRSZ) );
      387    10505    2      CALL DAF$WRITE(VECTOR(BLANK_LINE));
      388    10506
      389    10507    2      CALL DAF$WRITE(VECTOR(ROSFMT30),
      390    10508    2        VECTOR(U_ECCB$), VECTOR(DB_ECCB$), VECTOR(JIT$), VECTOR(PIA$) );
      391    10509    2      CALL DAF$WRITE(VECTOR(BLANK_LINE));
      392    10510    2      CALL DAF$WRITE(VECTOR(BLANK_LINE));
      393    10511
      394    10512    2      RETURN;
      395    10513    2   END DISP_ROS;
      396    10514        %EJECT;
PL6.E3A0      #001=DBD$USER File=DBD$USER.:E05TSI                                TUE 07/29/97 13:10 Page:14
      397    10515    1   DISP_DCB: PROC;
      398    10516    2      CALL GET_ROSBASE
      399    10517    3      WHENALTRETURN DO; RETURN; END;
      400    10518
      401    10519    2      IF NUMDCBS > 29 THEN NUMDCBS = 29;
      402    10520    2      DCBTAB_CSIZE = (NUMDCBS+1)*4;
      403    10521    2      CALL DBM$GETMEM(DCBPTR$,DCBTABLE,UN,DCBTAB_CSIZE,,DCBTAB_CSIZE)
      404    10522    3      WHENALTRETURN DO; RETURN; END;
      405    10523
      406    10524    2      CALL DAF$WRITE(VECTOR(DCBFMT10), VECTOR(USERNUM));
      407    10525    2      CALL DAF$WRITE(VECTOR(DCBFMT11));
      408    10526    2      CALL DAF$WRITE(VECTOR(DCBFMT12));
      409    10527
      410    10528    3      DO DCBI = 0 TO NUMDCBS;
      411    10529    3           CALL DBM$PACK4(DCBTABLE(DCBI),DCB$);
      412    10530    3           IF DCB$ ~= 0
      413    10531    4           THEN DO;
      414    10532    4                CALL DBM$GETMEM(DCB$,G$DCB,UN,SIZEC(G$DCB),,SIZEC(G$DCB))
      415    10533    5                WHENRETURN DO;
      416    10534    5                     CALL DBM$PACK4(G$DCB.HMI$,HMI$);
      417    10535    5                     CALL DBM$PACK4(G$DCB.SSN$,SSN$);
      418    10536    5                     CALL DBM$PACK1(G$DCB.DDEV,DDEV);
      419    10537    5                     CALL DBM$PACK1(G$DCB.STRM,STRM);
      420    10538    5                     CALL DBM$PACK2(G$DCB.RLCID.LDCTX,RLCID_LDCTX);
      421    10539    5                     CALL DBM$PACK1(G$DCB.RLCID.GENERATION,RLCID_GEN);
      422    10540    5                     CALL DBM$PACK1(G$DCB.RLCID.NODE,RLCID_NODE);
      423    10541
      424    10542    5                     IF G$DCB.FCD = '1'B
      425    10543    5                     THEN FCD = 'OPN';
      426    10544    5                     ELSE FCD = 'CLS';
      427    10545
      428    10546    5                     IF G$DCB.ORG <= %G_ORG_X364#
      429    10547    5                     THEN ORG = TEXT_ORG(G$DCB.ORG);
      430    10548    5                     ELSE ORG = '???';
      431    10549
      432    10550    5                     DCBNAME_TXT = ADDR(G$DCB.DCBNAME)->B$DCBNAME.TXT;
      433    10551
PL6.E3A0      #001=DBD$USER File=DBD$USER.:E05TSI                                TUE 07/29/97 13:10 Page:15
      434    10552    5                     CALL DAF$WRITE(VECTOR(DCBFMT20),
      435    10553    5                       VECTOR(DCBI), VECTOR(DCB$), VECTOR(FCD), VECTOR(ORG),
      436    10554    5                       VECTOR(G$DCB.RES), VECTOR(RLCID_NODE), VECTOR(RLCID_GEN),
      437    10555    5                       VECTOR(RLCID_LDCTX), VECTOR(STRM), VECTOR(DDEV),
      438    10556    5                       VECTOR(HMI$), VECTOR(SSN$),
      439    10557    5                       VECTOR(DCBNAME_TXT));
      440    10558
      441    10559    5                     IF G$DCB.NAME.L ~= 0
      442    10560    6                     THEN DO;
      443    10561    6                          CALL DAF$WRITE(VECTOR(DCBFMT30),
      444    10562    6                            VECTOR(G$DCB.NAME.C), VECTOR(G$DCB.ACCT));
      445    10563    6                          END;
      446    10564    5                     END/*when return*/;
      447    10565    4                END/*do if DCB$ ~ 0*/;
      448    10566    3           END/*do DCBI 0 -> NUMDCBS*/;
      449    10567
      450    10568    2      CALL DAF$WRITE(VECTOR(BLANK_LINE));
      451    10569    2      CALL DAF$WRITE(VECTOR(BLANK_LINE));
      452    10570    2      RETURN;
      453    10571    2   END DISP_DCB;
      454    10572        %EJECT;
PL6.E3A0      #001=DBD$USER File=DBD$USER.:E05TSI                                TUE 07/29/97 13:10 Page:16
      455    10573
      456    10574    1   DISP_TCB: PROC;
      457    10575    2      CALL GET_ROSBASE
      458    10576    3      WHENALTRETURN DO; RETURN; END;
      459    10577
      460    10578    2      CALL DAF$WRITE(VECTOR(TCBFMT1),
      461    10579    2        VECTOR(USERNUM), VECTOR(ALT$), VECTOR(STK$),
      462    10580    2        VECTOR(AVSZ), VECTOR(CURRSZ) );
      463    10581    2      CALL DAF$WRITE(VECTOR(BLANK_LINE));
      464    10582
      465    10583    2      IF ALT$ ~= 0
      466    10584    3      THEN DO;
      467    10585    3           EXCFR$ = ALT$;
      468    10586    3           CALL DBM$GETMEM(EXCFR$,EXCFR,UN,1,,1)
      469    10587    4           WHENRETURN DO;
      470    10588    4                CALL DBM$PACK2(EXCFR.PREVSZ,PREVSZ);
      471    10589    4                IF PREVSZ ~=          65535/* .FFFF                              */
      472    10590    4                THEN CALL DISP_FRAME;
      473    10591    4                END;
      474    10592    3           END;
      475    10593
      476    10594    2      EXCFR$ = STK$;
      477    10595    3      DO WHILE(CURRSZ ~= 0);
      478    10596    3           CALL DISP_FRAME;
      479    10597    3           EXCFR$ = EXCFR$ - PREVSZ;
      480    10598    3           CURRSZ = PREVSZ;
      481    10599    3           END;
      482    10600
      483    10601    2      RETURN;
      484    10602    2   END DISP_TCB;
      485    10603        %EJECT;
PL6.E3A0      #001=DBD$USER File=DBD$USER.:E05TSI                                TUE 07/29/97 13:10 Page:17
      486    10604
      487    10605    1   DISP_ECCB: PROC;
      488    10606    2      CALL GET_ROSBASE
      489    10607    3      WHENALTRETURN DO; RETURN; END;
      490    10608
      491    10609    2      CALL DBM$GETMEM(U_ECCB$,G$ECCB,UN,SIZEC(G$ECCB),,SIZEC(G$ECCB))
      492    10610    3      WHENALTRETURN DO; RETURN; END;
      493    10611
      494    10612    2      CALL DAF$WRITE(VECTOR(ECCBFMT1), VECTOR(USERNUM));
      495    10613    2      CALL DAF$WRITE(VECTOR(ECCBFMT2), VECTOR(G$ECCB.EVENT$),
      496    10614    2        VECTOR(G$ECCB.INT$), VECTOR(G$ECCB.XCON$), VECTOR(G$ECCB.TRAP$),
      497    10615    2        VECTOR(G$ECCB.DBCONTROL$));
      498    10616    2      CALL DAF$WRITE(VECTOR(ECCBFMT3), VECTOR(G$ECCB.FLAGS),
      499    10617    2        VECTOR(G$ECCB.FLTFLG(0)), VECTOR(G$ECCB.FLTFLG(1)),
      500    10618    2        VECTOR(G$ECCB.FLTFLG(2)));
      501    10619
      502    10620    2      CALL DAF$WRITE(VECTOR(BLANK_LINE));
      503    10621    2      CALL DAF$WRITE(VECTOR(BLANK_LINE));
      504    10622    2      RETURN;
      505    10623
      506    10624    2   END DISP_ECCB;
      507    10625        %EJECT;
PL6.E3A0      #001=DBD$USER File=DBD$USER.:E05TSI                                TUE 07/29/97 13:10 Page:18
      508    10626        /*I* NAME: GET_ROSBASE
      509    10627
      510    10628        */
      511    10629    1   GET_ROSBASE: PROC ALTRET;
      512    10630    2      CALL DBM$GETMEM(ROS$,ROSBASE,UN,SIZEC(ROSBASE),,SIZEC(ROSBASE))
      513    10631    3      WHENALTRETURN DO;
      514    10632    3           ALTRETURN;
      515    10633    3           END;
      516    10634    2      USR_REP_FLG = 1;
      517    10635
      518    10636    2      CALL DBM$PACK4(ROSBASE.DCBPTR$,DCBPTR$);
      519    10637    2      CALL DBM$PACK4(ROSBASE.JIT$,JIT$);
      520    10638    2      CALL DBM$PACK4(ROSBASE.ALT$,ALT$);
      521    10639    2      CALL DBM$PACK4(ROSBASE.STK$,STK$);
      522    10640    2      CALL DBM$PACK2(ROSBASE.AVSZ,AVSZ);
      523    10641    2      CALL DBM$PACK2(ROSBASE.CURRSZ,CURRSZ);
      524    10642    2      CALL DBM$PACK4(ROSBASE.AVAIL$,AVAIL$);
      525    10643    2      CALL DBM$PACK4(ROSBASE.U_ECCB$,U_ECCB$);
      526    10644    2      CALL DBM$PACK4(ROSBASE.DB_ECCB$,DB_ECCB$);
      527    10645    2      CALL DBM$PACK4(ROSBASE.CP_ECCB$,CP_ECCB$);
      528    10646    2      CALL DBM$PACK4(ROSBASE.PIA$,PIA$);
      529    10647    2      CALL DBM$PACK2(ROSBASE.NUMDCBS,NUMDCBS);
      530    10648
      531    10649    2      RETURN;
      532    10650    2   END GET_ROSBASE;
      533    10651        %EJECT;
PL6.E3A0      #001=DBD$USER File=DBD$USER.:E05TSI                                TUE 07/29/97 13:10 Page:19
      534    10652
      535    10653
      536    10654    1   DISP_FRAME: PROC;
      537    10655
      538    10656    2   DCL I SBIN;
      539    10657
      540    10658    2      CALL DBM$GETMEM(EXCFR$,EXCFR,UN,SIZEC(EXCFR),,SIZEC(EXCFR))
      541    10659    3      WHENALTRETURN DO;
      542    10660    3           RETURN;
      543    10661    3           END;
      544    10662
      545    10663    2      CALL DBM$PACK2(EXCFR.PREVSZ,PREVSZ);
      546    10664    2      CALL DBM$PACK2(EXCFR.ECC,ECC);
      547    10665
      548    10666    2      IF ECC >= 98
      549    10667    2      THEN TEMP = ECC-93;/*N* Use G_LCP_E and a macro to gen the names */
      550    10668    2      ELSE TEMP=ECC;
      551    10669
      552    10670    2      CALL DAF$WRITE(VECTOR(TCBFMT2), VECTOR(TYP_FRAME_TXT(TEMP)),
      553    10671    2        VECTOR(EXCFR$), VECTOR(ECC), VECTOR(PREVSZ) );
      554    10672    2      CALL DAF$WRITE(VECTOR(BLANK_LINE));
      555    10673
      556    10674    2      CALL DBM$PACKB(EXCFR.ISM1,ISM);
      557    10675    2      CALL DBM$PACK2(EXCFR.ISM1,TEMP);
      558    10676    2      ISM1=BITBIN(TEMPB & '000000177777'O);
      559    10677
      560    10678    2      CALL DBM$PACK2(EXCFR.ISM2,TEMP);
      561    10679    2      ISM2=BITBIN(TEMPB & '000000177777'O);
      562    10680
      563    10681    2      CALL DBM$PACK4(EXCFR.P$,PREG);
      564    10682
      565    10683    2      CALL DBM$PACK2(EXCFR.S,TEMP);
      566    10684    2      SREG=BITBIN(TEMPB & '000000177777'O);
      567    10685
      568    10686
      569    10687    2      CALL DAF$WRITE(VECTOR(F_INFO1),
      570    10688    2        VECTOR(PREG),
PL6.E3A0      #001=DBD$USER File=DBD$USER.:E05TSI                                TUE 07/29/97 13:10 Page:20
      571    10689    2        VECTOR(SREG),
      572    10690    2        VECTOR(ISM1),
      573    10691    2        VECTOR(ISM2) );
      574    10692
      575    10693    2      CALL DBA$WRITEIC(VECTOR(ICTEXT),PREG);
      576    10694
      577    10695    2      CALL DAF$WRITE(VECTOR(F_REG1));
      578    10696    2      CALL DAF$WRITE(VECTOR(F_REG2));
      579    10697
      580    10698    2      R$=ADDR(EXCFR.REGS);
      581    10699    3      DO I=6 DOWNTO 0;
      582    10700    3           CALL DBM$PACK4(R,REGS.CONTENTS(I));
      583    10701    3           R$=PINCRC(R$,4);
      584    10702    3           END;
      585    10703    2      CALL DAF$WRITE(VECTOR(F_REG3),VECTOR(C_BREGS),VECTOR(REGS));
      586    10704
      587    10705    2      CALL DBM$PACK2(R,IREG);
      588    10706    2      R$=PINCRC(R$,2);
      589    10707
      590    10708    3      DO I=6 DOWNTO 0;
      591    10709    3           CALL DBM$PACK2(R,TEMP);
      592    10710    3           REGS.CONTENTS(I)=BITBIN(TEMPB & '000000177777'O);
      593    10711    3           R$=PINCRC(R$,2);
      594    10712    3           END;
      595    10713    2      CALL DAF$WRITE(VECTOR(F_REG3),VECTOR(C_RREGS),VECTOR(REGS));
      596    10714
      597    10715    3      DO I=1 TO 6;
      598    10716    3           CALL DBM$PACK2(R,TEMP);
      599    10717    3           REGS.CONTENTS(I)=BITBIN(TEMPB & '000000177777'O);
      600    10718    3           R$=PINCRC(R$,2);
      601    10719    3           END;
      602    10720    2      CALL DAF$WRITE(VECTOR(F_REG3),VECTOR(C_MREGS),VECTOR(REGS));
      603    10721
      604    10722    2      CALL DBM$PACK4(R,TREG);
      605    10723    2      R$=PINCRC(R$,4);
      606    10724
      607    10725
PL6.E3A0      #001=DBD$USER File=DBD$USER.:E05TSI                                TUE 07/29/97 13:10 Page:21
      608    10726    2      CALL DBM$PACK2(R,CIREG);
      609    10727    2      R$=PINCRC(R$,2);
      610    10728
      611    10729    2      CALL DBM$PACK4(R,RDBR);
      612    10730    2      R$=PINCRC(R$,4);
      613    10731
      614    10732    2      CALL DAF$WRITE(VECTOR(F_INFO2),
      615    10733    2        VECTOR(IREG), VECTOR(TREG), VECTOR(CIREG), VECTOR(RDBR) );
      616    10734
      617    10735    2      CALL DBM$PACK2(EXCFR.SUBC,SUBC);
      618    10736    2      CALL DBM$PACK2(EXCFR.EVID,EVID);
      619    10737    2      CALL DBM$PACK4(EXCFR.ERR,ERR);
      620    10738    2      CALL DBM$PACK2(EXCFR.P#,P#);
      621    10739
      622    10740    2      CALL DAF$WRITE(VECTOR(TCBFMT9),
      623    10741    2        VECTOR(SUBC), VECTOR(EVID), VECTOR(ERR), VECTOR(P#) );
      624    10742    2      CALL DAF$WRITE(VECTOR(BLANK_LINE));
      625    10743
      626    10744    2      L6_ERR = EXCFR.ERR;
      627    10745    2      FPT_ERRMSG.CODE_ = VECTOR(L6_ERR);
      628    10746    2      FPT_ERRMSG.BUF_ = VECTOR(ERRBUF);
      629    10747    2      CALL M$ERRMSG(FPT_ERRMSG);
      630    10748
      631    10749    2      IF P# ~= 0
      632    10750    3      THEN DO;
      633    10751    3           IF P# > 48 THEN P# = 48;
      634    10752    3           R = EXCFR$ + SIZEW(EXCFR);
      635    10753    3           CALL DBM$GETMEM(R,P##,UN,P# *2,,P# *2)
      636    10754    4           WHENALTRETURN DO; RETURN; END;
      637    10755
      638    10756    3           CALL DAF$WRITE(VECTOR(BLANK_LINE));
      639    10757    3           CALL DBB$HEXDUMP(P##,P#,R,DA_PRINTABLE_TBL);
      640    10758    3           END;
      641    10759    2      CALL DAF$WRITE(VECTOR(BLANK_LINE));
      642    10760    2      RETURN;
      643    10761    2   END DISP_FRAME;
      644    10762
PL6.E3A0      #001=DBD$USER File=DBD$USER.:E05TSI                                TUE 07/29/97 13:10 Page:22
      645    10763
      646    10764    1   END DBD$USER;
      647    10765        %EOD;

PL6.E3A0      #001=DBD$USER File=DBD$USER.:E05TSI                                TUE 07/29/97 13:10 Page:23
--  Include file information  --

   B$TABLES_C.:E05TOU  cannot be made into a system file and is referenced.
   XU_MACRO_C.:E05TOU  is referenced.
   DA_FORMAT_C.:E05TOU  is referenced.
   GM_VIRTUAL_E.:E05TOU  is referenced.
   G_LCP6_E.:E05TOU  is referenced.
   G_JIT_M.:E05TOU  is referenced.
   CP_6_C.:E05TOU  is referenced.
   CP_6.:E05TOU  cannot be made into a system file and is referenced.
      No diagnostics issued in procedure DBD$USER.

   Procedure DBD$USER requires 1580 words for executable code.
   Procedure DBD$USER requires 346 words of local(AUTO) storage.

PL6.E3A0      #001=DBD$USER File=DBD$USER.:E05TSI                                TUE 07/29/97 13:10 Page:24

 Object Unit name= DBD$USER                                   File name= DBD$USER.:E05TOU
 UTS= JUL 29 '97 13:10:05.12 TUE                              Compiler= PL-6/E31         Sev=      00
 SharedLib= :SHARED_SYSTEM                                    Alt SharedLib=


    ****  Control sections  ****

 Sect   Type Bound  Init  Size OctSiz  Section name(segment info)
    0   DCB   even  none     0      0  M$UC
    1   Data  even  none    91    133  DBD$USER
    2   DCB   even  none     0      0  M$DO
    3  RoData even  UTS    307    463  DBD$USER
    4   Proc  even  none  1580   3054  DBD$USER
    5  RoData even  none   123    173  DBD$USER

    ****  Entry defs  ****

                              Check   Calling
                             calling  sequence
  Sect OctLoc Primary Altret sequence   type   Parms  Name
     4      0   yes            yes      Std        1  DBD$USER
     4      3                  yes      Std        1  DBD$ROS
     4     13                  yes      Std        1  DBD$TCB
     4     24                  yes      Std        1  DBD$DCB
     4     35                  yes      Std        1  DBD$ECCB
PL6.E3A0      #001=DBD$USER File=DBD$USER.:E05TSI                                TUE 07/29/97 13:10 Page:25

  ****  Entry refs  ****

         Check        Calling
        calling       sequence
Altret sequence SRef   type   Args  Name
         yes          ~proc      0 B_POINTER
 yes     yes           Std       1 DAF$INIT
 yes     yes           Std       1 DBM$SYSID2UN
 yes     yes           Std       3 DBA$SELECTION
 yes     yes           Std      10 DBM$GETMEM
         yes           Std       2 DBM$PACK1
         yes           Std       2 DBM$PACK2
         yes           Std       2 DBM$PACK4
         yes           Std       4 DBB$HEXDUMP
         yes           Std       2 DBM$PACKB
         yes           Std       2 DBA$WRITEIC
                       nStd      0 X66_AUTO_1
                       Std       0 B_CONSPOOL_D
                       nStd      0 X66_ARET

  ****  Data refs  ****

  Flags:  r = read only, s = secondary
Flgs Name                             Flgs Name                             Flgs Name
     M$UC                                  DAF$WRITE                             DB_MUIS
     DA_MAPERR                             DB_CUN                           r    B$XL_ASC_DUMP$
     M$DO                                  B_VECTNIL

  ****  Segment refs  ****

  Flags:  r = read only, s = secondary
Flgs Name                             Flgs Name                             Flgs Name
     ISSID                                 NULLSID
PL6.E3A0      #001=DBD$USER File=DBD$USER.:E05TSI                                TUE 07/29/97 13:10 Page:26


        1        1        /*M* DBD$USER  Formats FEP User Read Only Segment data   */
        2        2        /*T***********************************************************/
        3        3        /*T*                                                         */
        4        4        /*T* Copyright (c) Bull HN Information Systems Inc., 1997    */
        5        5        /*T*                                                         */
        6        6        /*T***********************************************************/
        7        7        /*X* PLM=3,IND=5,ECU=0,ENU=0   */
        8        8
        9        9        /*F* NAME: DBD$USER
       10       10             PURPOSE: To format the contents of the FEP Read Only Segment.
       11       11        */
       12       12        DBD$USER: PROC(TOP);

     12  4 000000   000000 700200 xent  DBD$USER     TSX0  ! X66_AUTO_1
         4 000001   000532 000001                    ZERO    346,1
         4 000002   000005 710000 4                  TRA     s:10426

       13       13        %INCLUDE CP_6;
       14     5572        %INCLUDE G_JIT_M;
       15     5837        %INCLUDE G_LCP6_E;
       16     6095        %INCLUDE GM_VIRTUAL_E;
       17     6305        %INCLUDE DA_FORMAT_C;
       18     6547        %INCLUDE XU_MACRO_C;
       19     9653        %INCLUDE B$TABLES_C;
       20     9761
       21     9762        %PARSE$OUT (NAME=TOP,STCLASS=PARAM);
       22     9807        %PARSE$OUT (NAME=OUT,STCLASS=BASED);
       23     9852
       24     9853    1   DCL DAA$VALUE ENTRY(3) ALTRET;
       25     9854    1   DCL DAF$WRITE EPTR SYMREF;
       26     9855    1   DCL DAF$INIT ENTRY(1) ALTRET;
       27     9856    1   DCL DBA$WRITEIC ENTRY(2);
       28     9857    1   DCL DBA$SELECTION ENTRY(3) ALTRET;
       29     9858    1   DCL DBB$HEXDUMP ENTRY(4);
       30     9859    1   DCL DBM$GETMEM ENTRY(10) ALTRET;
       31     9860    1   DCL DBM$GETBOBCAT ENTRY(1) ALTRET;
PL6.E3A0      #001=DBD$USER File=DBD$USER.:E05TSI                                TUE 07/29/97 13:10 Page:27
       32     9861    1   DCL DBM$PACK1 ENTRY(2);
       33     9862    1   DCL DBM$PACK2 ENTRY(2);
       34     9863    1   DCL DBM$PACK4 ENTRY(2);
       35     9864    1   DCL DBM$PACKB ENTRY(2);
       36     9865    1   DCL DBM$SYSID2UN ENTRY(1) ALTRET;
       37     9866
       38     9867    1   DCL DB_MUIS UBIN SYMREF;
       39     9868    1   DCL DA_MAPERR BIT(36) SYMREF;
       40     9869    1   DCL DB_USRT$ UBIN SYMREF;
       41     9870    1   DCL DB_CUN UBIN SYMREF;
       42     9871
       43     9872        %B$XL_ASC_DUMP (NAME=DA_PRINTABLE_TBL);
       44     9876
       45     9877        %FPT_ERRMSG (L6_CODE=YES, OUTDCB1=M$DO);
       46     9904    1   DCL ERRBUF CHAR(200);
       47     9905    1   DCL B$1WORD UBIN BASED;
       48     9906    1   DCL M$DO DCB;
       49     9907
       50     9908    1   DCL DISP_WHAT UBIN;
       51     9909        %EQU DISP_ROS# = 0;
       52     9910        %EQU DISP_TCB# = 1;
       53     9911        %EQU DISP_DCB# = 2;
       54     9912        %EQU DISP_ECCB# = 3;
       55     9913
       56     9914        %EJECT;
PL6.E3A0      #001=DBD$USER File=DBD$USER.:E05TSI                                TUE 07/29/97 13:10 Page:28
       57     9915    1   DCL ROS$ UBIN CONSTANT INIT(%GM_ROS_BASE);
       58     9916    1   DCL 1 ROSBASE AUTO,
       59     9917    1         2 DCBPTR$ UBIN,
       60     9918    1         2 JIT$ UBIN,
       61     9919    1         2 ALT$ UBIN,
       62     9920    1         2 STK$ UBIN,
       63     9921    1         2 AVSZ UBIN HALF CALIGNED,
       64     9922    1         2 CURRSZ UBIN HALF CALIGNED,
       65     9923    1         2 AVAIL$ UBIN,
       66     9924    1         2 U_ECCB$ UBIN,
       67     9925    1         2 DB_ECCB$ UBIN,
       68     9926    1         2 CP_ECCB$ UBIN,
       69     9927    1         2 PIA$ UBIN,
       70     9928    1         2 NUMDCBS UBIN,
       71     9929    1         2 PIA(0:0) UBIN HALF CALIGNED;
       72     9930
       73     9931    1   DCL DCBPTR$ UBIN;
       74     9932    1   DCL JIT$ UBIN;
       75     9933    1   DCL ALT$ UBIN;
       76     9934    1   DCL STK$ UBIN;
       77     9935    1   DCL AVSZ UBIN;
       78     9936    1   DCL CURRSZ UBIN;
       79     9937    1   DCL AVAIL$ UBIN;
       80     9938    1   DCL U_ECCB$ UBIN;
       81     9939    1   DCL DB_ECCB$ UBIN;
       82     9940    1   DCL CP_ECCB$ UBIN;
       83     9941    1   DCL PIA$ UBIN;
       84     9942    1   DCL NUMDCBS UBIN;
       85     9943
       86     9944    1   DCL DCB$ UBIN;
       87     9945    1   DCL DCBTAB_CSIZE UBIN;
       88     9946    1   DCL DCBTABLE(0:29) UBIN;
       89     9947    1   DCL DCBI UBIN;
       90     9948    1   DCL HMI$ UBIN;
       91     9949    1   DCL SSN$ UBIN;
       92     9950    1   DCL STRM UBIN;
       93     9951    1   DCL DDEV UBIN;
PL6.E3A0      #001=DBD$USER File=DBD$USER.:E05TSI                                TUE 07/29/97 13:10 Page:29
       94     9952    1   DCL RLCID_NODE UBIN;
       95     9953    1   DCL RLCID_GEN UBIN;
       96     9954    1   DCL RLCID_LDCTX UBIN;
       97     9955    1   DCL ORG CHAR(3);
       98     9956    1   DCL FCD CHAR(3);
       99     9957    1   DCL DCBNAME_TXT CHAR(31);
      100     9958    1   DCL 1 B$DCBNAME BASED,
      101     9959    1         2 CNT UBIN(9) UNAL,
      102     9960    1         2 TXT CHAR(B$DCBNAME.CNT) UNAL;
      103     9961
      104     9962
      105     9963    1   DCL 1 G$DCB AUTO,
      106     9964    1         2 ARS UBIN HALF CALIGNED,
      107     9965    1         2 TYC UBIN HALF CALIGNED,
      108     9966    1         2 DVBYTE UBIN(9) CALIGNED,
      109     9967    1         2 STRM UBIN(9) CALIGNED,
      110     9968    1         2 FFLG UBIN(9) CALIGNED,
      111     9969    1         2 DDEV UBIN BYTE CALIGNED,
      112     9970    1         2 WIDTH UBIN HALF CALIGNED,
      113     9971    1         2 NAME CALIGNED,
      114     9972    1           3 L UBIN(9) UNAL,
      115     9973    1           3 C CHAR(31) UNAL,
      116     9974    1         2 ACCT CHAR(8) UNAL,
      117     9975    1         2 RES CHAR(4) CALIGNED,
      118     9976    1         2 WSN CHAR(8) CALIGNED,
      119     9977    1         2 * BIT(1) UNAL,
      120     9978    1         2 FCI BIT(1) UNAL,
      121     9979    1         2 FCD BIT(1) UNAL,
      122     9980    1         2 SHARE UBIN(2) UNAL,
      123     9981    1         2 DISP UBIN(4) UNAL,
      124     9982    1         2 ORG UBIN(9) CALIGNED,
      125     9983    1         2 * UBIN(1) UNAL,
      126     9984    1         2 FUN UBIN(4) UNAL,
      127     9985    1         2 ASN UBIN(4) UNAL,
      128     9986    1         2 DCB# UBIN(9) CALIGNED,
      129     9987    1         2 RECL UBIN HALF CALIGNED,
      130     9988    1         2 EOMCHAR UBIN HALF CALIGNED,
PL6.E3A0      #001=DBD$USER File=DBD$USER.:E05TSI                                TUE 07/29/97 13:10 Page:30
      131     9989    1         2 LINES UBIN HALF CALIGNED,
      132     9990    1         2 KEYTYPE UBIN BYTE CALIGNED,
      133     9991    1         2 DVFC CHAR(1) CALIGNED,
      134     9992    1         2 EVENT UBIN HALF CALIGNED,
      135     9993    1         2 HEADER$ UBIN CALIGNED,
      136     9994    1         2 TAB$ UBIN CALIGNED,
      137     9995    1         2 HMI$ UBIN CALIGNED,
      138     9996    1         2 LDCTX UBIN HALF CALIGNED,
      139     9997    1         2 RLCID CALIGNED,
      140     9998    1           3 NODE UBIN BYTE UNAL,
      141     9999    1           3 GENERATION UBIN BYTE UNAL,
      142    10000    1           3 LDCTX UBIN HALF UNAL,
      143    10001    1         2 ACTPOS UBIN HALF CALIGNED,
      144    10002    1         2 SSN$ UBIN HALIGNED,
      145    10003    1         2 DCBNAME CALIGNED,
      146    10004    1           3 L UBIN(9) UNAL,
      147    10005    1           3 NAME CHAR(31) UNAL;
      148    10006
      149    10007    1   DCL 1 G$ECCB AUTO,
      150    10008    1         2 EVENT$ UBIN CALIGNED,
      151    10009    1         2 INT$ UBIN CALIGNED,
      152    10010    1         2 XCON$ UBIN CALIGNED,
      153    10011    1         2 TRAP$ UBIN CALIGNED,
      154    10012    1         2 DBCONTROL$ UBIN CALIGNED,
      155    10013    1         2 FLAGS UBIN HALF CALIGNED,
      156    10014    1         2 FLTFLG(0:2) UBIN HALF CALIGNED;
      157    10015
      158    10016    1   DCL EXCFR$ UBIN;
      159    10017    1   DCL 1 EXCFR AUTO,
      160    10018    1         2 PREVSZ UBIN HALF CALIGNED,
      161    10019    1         2 ECC UBIN HALF CALIGNED,
      162    10020    1         2 ISM1 UBIN HALF CALIGNED,
      163    10021    1         2 ISM2 UBIN HALF CALIGNED,
      164    10022    1         2 P$ PTR CALIGNED,
      165    10023    1         2 S UBIN HALF CALIGNED,
      166    10024    1         2 REGS(0:33) UBIN HALF CALIGNED,
      167    10025    1         2 SUBC UBIN HALF CALIGNED,
PL6.E3A0      #001=DBD$USER File=DBD$USER.:E05TSI                                TUE 07/29/97 13:10 Page:31
      168    10026    1         2 EVID UBIN HALF CALIGNED,
      169    10027    1         2 ERR BIT(36) CALIGNED,
      170    10028    1         2 P# UBIN HALF CALIGNED;
      171    10029
      172    10030    1   DCL P##(0:24) UBIN;
      173    10031
      174    10032    1   DCL PREVSZ UBIN;
      175    10033    1   DCL ECC UBIN;
      176    10034    1   DCL ISM1 SBIN;
      177    10035    1   DCL ISM2 SBIN;
      178    10036    1   DCL PREG SBIN;
      179    10037    1   DCL SREG SBIN;
      180    10038    1   DCL 1 REGS(0:6),
      181    10039    1         2 CONTENTS SBIN WORD;
      182    10040    1   DCL IREG SBIN;
      183    10041    1   DCL TREG SBIN;
      184    10042    1   DCL CIREG SBIN;
      185    10043    1   DCL RDBR SBIN;
      186    10044    1   DCL SUBC UBIN;
      187    10045    1   DCL EVID UBIN;
      188    10046    1   DCL ERR UBIN;
      189    10047    1   DCL P# UBIN;
      190    10048    1   DCL L6_ERR BIT(36);
      191    10049
      192    10050    1   DCL 1 ISM,
      193    10051    1         2 M1 BIT(1),
      194    10052    1         2 RREG(0:6) BIT(1),
      195    10053    1         2 I BIT(1),
      196    10054    1         2 BREG(0:6) BIT(1),
      197    10055    1         2 MMU BIT(1),
      198    10056    1         2 NATSAP UBIN(3) UNAL,
      199    10057    1         2 * BIT(2),
      200    10058    1         2 SIP BIT(1),
      201    10059    1         2 CIP BIT(1),
      202    10060    1         2 * BIT(6),
      203    10061    1         2 T BIT(1),
      204    10062    1         2 M2_M7 BIT(1),
PL6.E3A0      #001=DBD$USER File=DBD$USER.:E05TSI                                TUE 07/29/97 13:10 Page:32
      205    10063    1         2 * BIT(4);
      206    10064
      207    10065
      208    10066        /* More Auto
      209    10067        */
      210    10068    1   DCL USR_REP_FLG UBIN;
      211    10069    1   DCL UN SBIN;
      212    10070    1   DCL USERNUM SBIN;
      213    10071    1   DCL RADIX UBIN;
      214    10072    1   DCL I SBIN;
      215    10073    1   DCL TEMP UBIN;
      216    10074    1   DCL TEMPB REDEF TEMP BIT(36);
      217    10075    1   DCL R$ PTR;
      218    10076    1   DCL R UBIN BASED(R$) CALIGNED;
      219    10077    1   DCL T$ PTR;
      220    10078
      221    10079        /* Formats for ROS Display
      222    10080        */
      223    10081        %REPORT (NAME=ROSRPT,TRUNC=YES,HEADER=NO,TITLE='FEP ROS - Read Only Segment');
      224    10147    1   DCL ROSFMT10 CHAR(0) CONSTANT INIT(
      225    10148    1   'Read Only Segment for User# .%2ZH   DCBPTR$ .%5ZH   AVAIL$ .%5ZH   NUMDCBS %D');
      226    10149
      227    10150    1   DCL ROSFMT20 CHAR(0) CONSTANT INIT(
      228    10151    1   'TCB.ALT$ .%5ZH   TCB.STK$ .%5ZH   TCB.AVSZ .%4ZH   TCB.CURRSZ .%4ZH');
      229    10152    1   DCL ROSFMT30 CHAR(0) CONSTANT INIT(
      230    10153    1   'U_ECCB$ .%5ZH   DB_ECCB$ .%5ZH   JIT$ .%5ZH   PIA$ .%5ZH');
      231    10154
      232    10155        /* Formats for DCB Display
      233    10156        */
      234    10157        %REPORT (NAME=DCBRPT,TRUNC=YES,HEADER=NO,TITLE='FEP DCB - Data Control Block');
      235    10223    1   DCL DCBFMT10 CHAR(0) CONSTANT INIT(
      236    10224    1   'DCBs for User# .%2ZH');
      237    10225
      238    10226    1   DCL DCBFMT11 CHAR(0) CONSTANT INIT(
      239    10227    1   '  # DCB$   FCD ORG RES     RLCID      STRM DDEV HMI$   SSN$   DCBNAME');
      240    10228    1   DCL DCBFMT12 CHAR(0) CONSTANT INIT(
      241    10229    1   '--- ------ --- --- ----  -----------  ---- ---- ------ ------ -------------');
PL6.E3A0      #001=DBD$USER File=DBD$USER.:E05TSI                                TUE 07/29/97 13:10 Page:33
      242    10230
      243    10231    1   DCL DCBFMT20 CHAR(0) CONSTANT INIT(
      244    10232    1   '.%2ZH .%5ZH %A %A %A  %2ZD-%3ZD-%4ZD   .%2ZH  .%2ZH .%5ZH .%5ZH %>A');
      245    10233
      246    10234    1   DCL DCBFMT30 CHAR(0) CONSTANT INIT(
      247    10235    1   '       Name: %>A.%>A');
      248    10236    1   DCL TEXT_ORG(0:7) CHAR(3) CONSTANT INIT(
      249    10237    1   '0  ','CON','FOR','TRM','UR ','CQ ','SE ','364');
      250    10238
      251    10239        /* Formats for ECCB Display.
      252    10240        */
      253    10241        %REPORT (NAME=ECCBRPT,TRUNC=YES,HEADER=NO,TITLE=
             10241            'FEP ECCB - Exceptional Condition Block');
      254    10307
      255    10308    1   DCL ECCBFMT1 CHAR(0) CONSTANT INIT(
      256    10309    1   'ECCB for User# .%2ZH:');
      257    10310    1   DCL ECCBFMT2 CHAR(0) CONSTANT INIT(
      258    10311    1   'EVENT$ .%@5.32ZH  INT$ .%@5.32ZH  XCON$ .%@5.32ZH  TRAP$ .%@5.32ZH DBCONTROL$ .%@5
             10311        .32ZH');
      259    10312    1   DCL ECCBFMT3 CHAR(0) CONSTANT INIT(
      260    10313    1   'FLAGS: .%@4.16ZH  FLTFLG: .%@4.16ZH .%@4.16ZH .%4.16ZH %S');
      261    10314
      262    10315
      263    10316        /*  Formats for TCB Display
      264    10317        */
      265    10318    1   DCL BLANK_LINE CHAR(1) CONSTANT INIT(' ');
      266    10319        %REPORT (NAME=TCBRPT,TRUNC=YES,HEADER=NO,TITLE='FEP TCB - Task Control Block');
      267    10385    1   DCL TYP_FRAME_TXT(0:6) CHAR(10) CONSTANT INIT(
      268    10386    1   'Event','Break','Xcon','Trap','DB Cntrl','TCB Full','Altret');
      269    10387    1   DCL TCBFMT1 CHAR(0) CONSTANT INIT(
      270    10388    1   'TCB for User# .%2ZH   ALT$ .%5ZH   STK$ .%5ZH   AVSZ .%4ZH   CURRSZ .%4ZH');
      271    10389
      272    10390    1   DCL TCBFMT2 CHAR(0) CONSTANT INIT(
      273    10391    1   '%>A frame at .%5ZH  ECC: .%4ZH  PREVSZ: .%4ZH');
      274    10392
      275    10393    1   DCL F_INFO1 CHAR(0) CONSTANT INIT(
      276    10394    1   'P: .%8LH  S: .%4ZH  ISM1: .%4ZH  ISM2: .%4ZH%/');
PL6.E3A0      #001=DBD$USER File=DBD$USER.:E05TSI                                TUE 07/29/97 13:10 Page:34
      277    10395
      278    10396    1   DCL ICTEXT CHAR(0) CONSTANT INIT('P$: %A+.%H');
      279    10397
      280    10398    1   DCL F_REG1 CHAR(0) CONSTANT INIT(
      281    10399    1    '%/                   1      2      3      4      5      6      7');
      282    10400
      283    10401    1   DCL F_REG2 CHAR(0) CONSTANT INIT(
      284    10402
      285    10403    1    '              ------ ------ ------ ------ ------ ------ ------');
      286    10404
      287    10405    1   DCL F_REG3 CHAR(0) CONSTANT INIT(
      288    10406    1   '%A Registers:  %7(%6*H %)');
      289    10407
      290    10408    1   DCL C_BREGS CHAR(1) CONSTANT INIT('B');
      291    10409    1   DCL C_RREGS CHAR(1) CONSTANT INIT('R');
      292    10410    1   DCL C_MREGS CHAR(1) CONSTANT INIT('M');
      293    10411
      294    10412    1   DCL F_INFO2 CHAR(0) CONSTANT INIT(
      295    10413    1   '%/I: .%4Z*H  T$: .%8L*H   CI: .%4ZH  RDBR$: .%8LH');
      296    10414
      297    10415    1   DCL TCBFMT9 CHAR(0) CONSTANT INIT(
      298    10416    1   'SUBC: .%4ZH   EVID: .%4ZH   ERR: .%8ZH   P#: .%4ZH');
      299    10417
      300    10418    1   DCL TCBFMT10 CHAR(0) CONSTANT INIT(
      301    10419    1   '.%4ZH  %8(.%4ZH %)');
      302    10420
      303    10421        %EJECT;
PL6.E3A0      #001=DBD$USER File=DBD$USER.:E05TSI                                TUE 07/29/97 13:10 Page:35
      304    10422        /*F* NAME: DBD$ROS
      305    10423             PURPOSE: To format the initial portion of the FEP ROS.
      306    10424        */
      307    10425    1   DBD$ROS: ENTRY(TOP);

  10425  4 000003   000000 700200 xent  DBD$ROS      TSX0  ! X66_AUTO_1
         4 000004   000532 000001                    ZERO    346,1

      308    10426    1      DISP_WHAT = %DISP_ROS#;

  10426  4 000005   200066 450100                    STZ     DISP_WHAT,,AUTO

      309    10427    1      CALL DAF$INIT(ROSRPT);

  10427  4 000006   000000 630400 5                  EPPR0   0
         4 000007   000017 631400 xsym               EPPR1   B_VECTNIL+15
         4 000010   000000 701000 xent               TSX1    DAF$INIT
         4 000011   000000 011000                    NOP     0

      310    10428    1      GOTO COMMON_ENTRY;

  10428  4 000012   000046 710000 4                  TRA     COMMON_ENTRY

      311    10429
      312    10430        /*F* NAME: DBD$TCB
      313    10431             PURPOSE: To format the FEP Task Control Block.
      314    10432        */
      315    10433    1   DBD$TCB: ENTRY(TOP);

  10433  4 000013   000000 700200 xent  DBD$TCB      TSX0  ! X66_AUTO_1
         4 000014   000532 000001                    ZERO    346,1

      316    10434    1      DISP_WHAT = %DISP_TCB#;

  10434  4 000015   000001 235007                    LDA     1,DL
         4 000016   200066 755100                    STA     DISP_WHAT,,AUTO

PL6.E3A0      #001=DBD$USER File=DBD$USER.:E05TSI                                TUE 07/29/97 13:10 Page:36
      317    10435    1      CALL DAF$INIT(TCBRPT);

  10435  4 000017   000001 630400 5                  EPPR0   1
         4 000020   000017 631400 xsym               EPPR1   B_VECTNIL+15
         4 000021   000000 701000 xent               TSX1    DAF$INIT
         4 000022   000000 011000                    NOP     0

      318    10436    1      GOTO COMMON_ENTRY;

  10436  4 000023   000046 710000 4                  TRA     COMMON_ENTRY

      319    10437
      320    10438
      321    10439        /*F* NAME: DBD$DCB
      322    10440             PURPOSE: To format the FEP Data Control Block.
      323    10441        */
      324    10442    1   DBD$DCB: ENTRY(TOP);

  10442  4 000024   000000 700200 xent  DBD$DCB      TSX0  ! X66_AUTO_1
         4 000025   000532 000001                    ZERO    346,1

      325    10443    1      DISP_WHAT = %DISP_DCB#;

  10443  4 000026   000002 235007                    LDA     2,DL
         4 000027   200066 755100                    STA     DISP_WHAT,,AUTO

      326    10444    1      CALL DAF$INIT(DCBRPT);

  10444  4 000030   000002 630400 5                  EPPR0   2
         4 000031   000017 631400 xsym               EPPR1   B_VECTNIL+15
         4 000032   000000 701000 xent               TSX1    DAF$INIT
         4 000033   000000 011000                    NOP     0

      327    10445    1      GOTO COMMON_ENTRY;

  10445  4 000034   000046 710000 4                  TRA     COMMON_ENTRY

PL6.E3A0      #001=DBD$USER File=DBD$USER.:E05TSI                                TUE 07/29/97 13:10 Page:37
      328    10446
      329    10447        /*F* NAME: DBD$ECCB
      330    10448             PURPOSE: To format the FEP Exceptional Condition Control Block.
      331    10449        */
      332    10450    1   DBD$ECCB: ENTRY(TOP);

  10450  4 000035   000000 700200 xent  DBD$ECCB     TSX0  ! X66_AUTO_1
         4 000036   000532 000001                    ZERO    346,1

      333    10451    1      DISP_WHAT = %DISP_ECCB#;

  10451  4 000037   000003 235007                    LDA     3,DL
         4 000040   200066 755100                    STA     DISP_WHAT,,AUTO

      334    10452    1      CALL DAF$INIT(ECCBRPT);

  10452  4 000041   000003 630400 5                  EPPR0   3
         4 000042   000017 631400 xsym               EPPR1   B_VECTNIL+15
         4 000043   000000 701000 xent               TSX1    DAF$INIT
         4 000044   000000 011000                    NOP     0

      335    10453    1      GOTO COMMON_ENTRY;

  10453  4 000045   000046 710000 4                  TRA     COMMON_ENTRY

  10451  4 000046                       COMMON_ENTRY null
      336    10454
      337    10455        %EJECT;
PL6.E3A0      #001=DBD$USER File=DBD$USER.:E05TSI                                TUE 07/29/97 13:10 Page:38
      338    10456    1   COMMON_ENTRY : ;
      339    10457    1      USR_REP_FLG = 0;

  10457  4 000046   200361 450100                    STZ     USR_REP_FLG,,AUTO

      340    10458    2      IF TOP.NSUBLKS=0 THEN DO;

  10458  4 000047   200003 470500                    LDP0    @TOP,,AUTO
         4 000050   000001 220100                    LDX0    1,,PR0
         4 000051   000111 601000 4                  TNZ     s:10470

      341    10459    3           DO UN=-1 DOWNTO -DB_MUIS;

  10459  4 000052   000001 335007                    LCA     1,DL
         4 000053   200362 755100                    STA     UN,,AUTO
         4 000054   000104 710000 4                  TRA     s:10467+2

      342    10460    3                USERNUM = -UN;

  10460  4 000055   200362 335100                    LCA     UN,,AUTO
         4 000056   200363 755100                    STA     USERNUM,,AUTO

      343    10461    4                DO CASE(DISP_WHAT);

  10461  4 000057   200066 236100                    LDQ     DISP_WHAT,,AUTO
         4 000060   000004 116007                    CMPQ    4,DL
         4 000061   000063 602006 4                  TNC     s:10461+4,QL
         4 000062   000102 710000 4                  TRA     s:10467
         4 000063   000067 710000 4                  TRA     s:10462
         4 000064   000075 710000 4                  TRA     s:10464
         4 000065   000072 710000 4                  TRA     s:10463
         4 000066   000100 710000 4                  TRA     s:10465

      344    10462    4                 CASE(%DISP_ROS#); CALL DISP_ROS;

  10462  4 000067   000214 701000 4                  TSX1    DISP_ROS
         4 000070   000000 011000                    NOP     0
PL6.E3A0      #001=DBD$USER File=DBD$USER.:E05TSI                                TUE 07/29/97 13:10 Page:39
         4 000071   000102 710000 4                  TRA     s:10467

      345    10463    4                 CASE(%DISP_DCB#); CALL DISP_DCB;

  10463  4 000072   000451 701000 4                  TSX1    DISP_DCB
         4 000073   000000 011000                    NOP     0
         4 000074   000102 710000 4                  TRA     s:10467

      346    10464    4                 CASE(%DISP_TCB#); CALL DISP_TCB;

  10464  4 000075   001210 701000 4                  TSX1    DISP_TCB
         4 000076   000000 011000                    NOP     0
         4 000077   000102 710000 4                  TRA     s:10467

      347    10465    4                 CASE(%DISP_ECCB#); CALL DISP_ECCB;

  10465  4 000100   001364 701000 4                  TSX1    DISP_ECCB
         4 000101   000000 011000                    NOP     0

      348    10466    4                   END;

      349    10467    3                END;

  10467  4 000102   000001 336007                    LCQ     1,DL
         4 000103   200362 056100                    ASQ     UN,,AUTO
         4 000104   000000 236003                    LDQ     0,DU
         4 000105   000000 136000 xsym               SBLQ    DB_MUIS
         4 000106   200362 116100                    CMPQ    UN,,AUTO
         4 000107   000055 604400 4                  TMOZ    s:10460

      350    10468    2           END;

  10468  4 000110   000176 710000 4                  TRA     s:10490

      351    10469    2      ELSE DO;

      352    10470    3           DO I=0 TO TOP.NSUBLKS-1;
PL6.E3A0      #001=DBD$USER File=DBD$USER.:E05TSI                                TUE 07/29/97 13:10 Page:40

  10470  4 000111   200365 450100                    STZ     I,,AUTO
         4 000112   000171 710000 4                  TRA     s:10488+1

      353    10471    4                CALL DBA$SELECTION(TOP.SUBLK$(I)->OUT,UN) WHENRETURN DO;

  10471  4 000113   200003 470500                    LDP0    @TOP,,AUTO
         4 000114   200365 720100                    LXL0    I,,AUTO
         4 000115   000003 471510                    LDP1    3,X0,PR0
         4 000116   200362 633500                    EPPR3   UN,,AUTO
         4 000117   200377 453500                    STP3    I+2,,AUTO
         4 000120   200376 451500                    STP1    I+1,,AUTO
         4 000121   200376 630500                    EPPR0   I+1,,AUTO
         4 000122   000020 631400 xsym               EPPR1   B_VECTNIL+16
         4 000123   000000 701000 xent               TSX1    DBA$SELECTION
         4 000124   000170 702000 4                  TSX2    s:10488

      354    10472    4                     IF UN < 0 THEN

  10472  4 000125   200362 235100                    LDA     UN,,AUTO
         4 000126   000132 605000 4                  TPL     s:10475

      355    10473    4                          USERNUM = -UN;

  10473  4 000127   000000 531000                    NEG     0
         4 000130   200363 755100                    STA     USERNUM,,AUTO
         4 000131   000145 710000 4                  TRA     s:10481

      356    10474    4                     ELSE
      357    10475    5                          CALL DBM$SYSID2UN(UN) WHENRETURN DO;

  10475  4 000132   200362 630500                    EPPR0   UN,,AUTO
         4 000133   200376 450500                    STP0    I+1,,AUTO
         4 000134   200376 630500                    EPPR0   I+1,,AUTO
         4 000135   000017 631400 xsym               EPPR1   B_VECTNIL+15
         4 000136   000000 701000 xent               TSX1    DBM$SYSID2UN
         4 000137   000143 702000 4                  TSX2    s:10479
PL6.E3A0      #001=DBD$USER File=DBD$USER.:E05TSI                                TUE 07/29/97 13:10 Page:41

      358    10476    5                               USERNUM = DB_CUN;

  10476  4 000140   000000 235000 xsym               LDA     DB_CUN
         4 000141   200363 755100                    STA     USERNUM,,AUTO

      359    10477    5                               END;

  10477  4 000142   000145 710000 4                  TRA     s:10481

      360    10478    5                          WHENALTRETURN DO;

      361    10479    5                               USERNUM = UN;

  10479  4 000143   200362 235100                    LDA     UN,,AUTO
         4 000144   200363 755100                    STA     USERNUM,,AUTO

      362    10480    5                               END;

      363    10481    5                     DO CASE(DISP_WHAT);

  10481  4 000145   200066 236100                    LDQ     DISP_WHAT,,AUTO
         4 000146   000004 116007                    CMPQ    4,DL
         4 000147   000151 602006 4                  TNC     s:10481+4,QL
         4 000150   000170 710000 4                  TRA     s:10488
         4 000151   000155 710000 4                  TRA     s:10482
         4 000152   000163 710000 4                  TRA     s:10484
         4 000153   000160 710000 4                  TRA     s:10483
         4 000154   000166 710000 4                  TRA     s:10485

      364    10482    5                      CASE(%DISP_ROS#); CALL DISP_ROS;

  10482  4 000155   000214 701000 4                  TSX1    DISP_ROS
         4 000156   000000 011000                    NOP     0
         4 000157   000170 710000 4                  TRA     s:10488

      365    10483    5                      CASE(%DISP_DCB#); CALL DISP_DCB;
PL6.E3A0      #001=DBD$USER File=DBD$USER.:E05TSI                                TUE 07/29/97 13:10 Page:42

  10483  4 000160   000451 701000 4                  TSX1    DISP_DCB
         4 000161   000000 011000                    NOP     0
         4 000162   000170 710000 4                  TRA     s:10488

      366    10484    5                      CASE(%DISP_TCB#); CALL DISP_TCB;

  10484  4 000163   001210 701000 4                  TSX1    DISP_TCB
         4 000164   000000 011000                    NOP     0
         4 000165   000170 710000 4                  TRA     s:10488

      367    10485    5                      CASE(%DISP_ECCB#); CALL DISP_ECCB;

  10485  4 000166   001364 701000 4                  TSX1    DISP_ECCB
         4 000167   000000 011000                    NOP     0

      368    10486    5                        END;

      369    10487    4                     END;

      370    10488    3                END;

  10488  4 000170   200365 054100                    AOS     I,,AUTO
         4 000171   200003 470500                    LDP0    @TOP,,AUTO
         4 000172   000001 236100                    LDQ     1,,PR0
         4 000173   000022 772000                    QRL     18
         4 000174   200365 116100                    CMPQ    I,,AUTO
         4 000175   000113 605400 4                  TPNZ    s:10471

      371    10489    2           END;

      372    10490    1      IF USR_REP_FLG>0 THEN DA_MAPERR='0'B;

  10490  4 000176   200361 235100                    LDA     USR_REP_FLG,,AUTO
         4 000177   000201 600000 4                  TZE     s:10491

  10490  4 000200   000000 450000 xsym               STZ     DA_MAPERR
PL6.E3A0      #001=DBD$USER File=DBD$USER.:E05TSI                                TUE 07/29/97 13:10 Page:43

      373    10491    1      CALL DAF$WRITE(VECTOR(BLANK_LINE));

  10491  4 000201   000006 630400 5                  EPPR0   6
         4 000202   000000 220000 xsym               LDX0    DAF$WRITE
         4 000203   000017 631400 xsym               EPPR1   B_VECTNIL+15
         4 000204   000000 701010                    TSX1    0,X0
         4 000205   000000 011000                    NOP     0

      374    10492    1      CALL DAF$WRITE(VECTOR(BLANK_LINE));

  10492  4 000206   000006 630400 5                  EPPR0   6
         4 000207   000000 220000 xsym               LDX0    DAF$WRITE
         4 000210   000017 631400 xsym               EPPR1   B_VECTNIL+15
         4 000211   000000 701010                    TSX1    0,X0
         4 000212   000000 011000                    NOP     0

      375    10493    1      RETURN;

  10493  4 000213   000000 702200 xent               TSX2  ! X66_ARET

      376    10494        %EJECT;
PL6.E3A0      #001=DBD$USER File=DBD$USER.:E05TSI                                TUE 07/29/97 13:10 Page:44
      377    10495    1   DISP_ROS: PROC;

  10495  4 000214   200372 741300       DISP_ROS     STX1  ! R$+3,,AUTO

      378    10496    2      CALL GET_ROSBASE

  10496  4 000215   001605 701000 4                  TSX1    GET_ROSBASE
         4 000216   000220 702000 4                  TSX2    s:10497
         4 000217   000222 710000 4                  TRA     s:10499

      379    10497    3      WHENALTRETURN DO; RETURN; END;

  10497  4 000220   200372 221300                    LDX1  ! R$+3,,AUTO
         4 000221   000001 702211                    TSX2  ! 1,X1

      380    10498
      381    10499    2      CALL DAF$WRITE(VECTOR(ROSFMT10),

  10499  4 000222   777640 235007                    LDA     -96,DL
         4 000223   200376 452500                    STP2    I+1,,AUTO
         4 000224   200376 236100                    LDQ     I+1,,AUTO
         4 000225   000363 036003                    ADLQ    243,DU
         4 000226   200400 757100                    STAQ    I+3,,AUTO
         4 000227   777640 235007                    LDA     -96,DL
         4 000230   200402 452500                    STP2    I+5,,AUTO
         4 000231   200402 236100                    LDQ     I+5,,AUTO
         4 000232   000103 036003                    ADLQ    67,DU
         4 000233   200404 757100                    STAQ    I+7,,AUTO
         4 000234   777640 235007                    LDA     -96,DL
         4 000235   200406 452500                    STP2    I+9,,AUTO
         4 000236   200406 236100                    LDQ     I+9,,AUTO
         4 000237   000111 036003                    ADLQ    73,DU
         4 000240   200410 757100                    STAQ    I+11,,AUTO
         4 000241   777640 235007                    LDA     -96,DL
         4 000242   200412 452500                    STP2    I+13,,AUTO
         4 000243   200412 236100                    LDQ     I+13,,AUTO
         4 000244   000116 036003                    ADLQ    78,DU
PL6.E3A0      #001=DBD$USER File=DBD$USER.:E05TSI                                TUE 07/29/97 13:10 Page:45
         4 000245   200416 757100                    STAQ    I+17,,AUTO
         4 000246   200400 237100                    LDAQ    I+3,,AUTO
         4 000247   200414 757100                    STAQ    I+15,,AUTO
         4 000250   200404 237100                    LDAQ    I+7,,AUTO
         4 000251   200420 757100                    STAQ    I+19,,AUTO
         4 000252   200410 237100                    LDAQ    I+11,,AUTO
         4 000253   200422 757100                    STAQ    I+21,,AUTO
         4 000254   200416 237100                    LDAQ    I+17,,AUTO
         4 000255   200424 757100                    STAQ    I+23,,AUTO
         4 000256   200424 630500                    EPPR0   I+23,,AUTO
         4 000257   200432 450500                    STP0    I+29,,AUTO
         4 000260   200422 631500                    EPPR1   I+21,,AUTO
         4 000261   200431 451500                    STP1    I+28,,AUTO
         4 000262   200420 633500                    EPPR3   I+19,,AUTO
         4 000263   200430 453500                    STP3    I+27,,AUTO
         4 000264   200414 634500                    EPPR4   I+15,,AUTO
         4 000265   200427 454500                    STP4    I+26,,AUTO
         4 000266   000012 236000 5                  LDQ     10
         4 000267   200426 756100                    STQ     I+25,,AUTO
         4 000270   200426 630500                    EPPR0   I+25,,AUTO
         4 000271   000000 220000 xsym               LDX0    DAF$WRITE
         4 000272   000023 631400 xsym               EPPR1   B_VECTNIL+19
         4 000273   000000 701010                    TSX1    0,X0
         4 000274   000000 011000                    NOP     0

      382    10500    2        VECTOR(USERNUM), VECTOR(DCBPTR$), VECTOR(AVAIL$), VECTOR(NUMDCBS) );
      383    10501    2      CALL DAF$WRITE(VECTOR(BLANK_LINE));

  10501  4 000275   000006 630400 5                  EPPR0   6
         4 000276   000000 220000 xsym               LDX0    DAF$WRITE
         4 000277   000017 631400 xsym               EPPR1   B_VECTNIL+15
         4 000300   000000 701010                    TSX1    0,X0
         4 000301   000000 011000                    NOP     0

      384    10502
      385    10503    2      CALL DAF$WRITE(VECTOR(ROSFMT20),

PL6.E3A0      #001=DBD$USER File=DBD$USER.:E05TSI                                TUE 07/29/97 13:10 Page:46
  10503  4 000302   777640 235007                    LDA     -96,DL
         4 000303   200376 452500                    STP2    I+1,,AUTO
         4 000304   200376 236100                    LDQ     I+1,,AUTO
         4 000305   000105 036003                    ADLQ    69,DU
         4 000306   200400 757100                    STAQ    I+3,,AUTO
         4 000307   777640 235007                    LDA     -96,DL
         4 000310   200402 452500                    STP2    I+5,,AUTO
         4 000311   200402 236100                    LDQ     I+5,,AUTO
         4 000312   000106 036003                    ADLQ    70,DU
         4 000313   200404 757100                    STAQ    I+7,,AUTO
         4 000314   777640 235007                    LDA     -96,DL
         4 000315   200406 452500                    STP2    I+9,,AUTO
         4 000316   200406 236100                    LDQ     I+9,,AUTO
         4 000317   000107 036003                    ADLQ    71,DU
         4 000320   200410 757100                    STAQ    I+11,,AUTO
         4 000321   777640 235007                    LDA     -96,DL
         4 000322   200412 452500                    STP2    I+13,,AUTO
         4 000323   200412 236100                    LDQ     I+13,,AUTO
         4 000324   000110 036003                    ADLQ    72,DU
         4 000325   200416 757100                    STAQ    I+17,,AUTO
         4 000326   200400 237100                    LDAQ    I+3,,AUTO
         4 000327   200414 757100                    STAQ    I+15,,AUTO
         4 000330   200404 237100                    LDAQ    I+7,,AUTO
         4 000331   200420 757100                    STAQ    I+19,,AUTO
         4 000332   200410 237100                    LDAQ    I+11,,AUTO
         4 000333   200422 757100                    STAQ    I+21,,AUTO
         4 000334   200416 237100                    LDAQ    I+17,,AUTO
         4 000335   200424 757100                    STAQ    I+23,,AUTO
         4 000336   200424 630500                    EPPR0   I+23,,AUTO
         4 000337   200432 450500                    STP0    I+29,,AUTO
         4 000340   200422 631500                    EPPR1   I+21,,AUTO
         4 000341   200431 451500                    STP1    I+28,,AUTO
         4 000342   200420 633500                    EPPR3   I+19,,AUTO
         4 000343   200430 453500                    STP3    I+27,,AUTO
         4 000344   200414 634500                    EPPR4   I+15,,AUTO
         4 000345   200427 454500                    STP4    I+26,,AUTO
         4 000346   000016 236000 5                  LDQ     14
PL6.E3A0      #001=DBD$USER File=DBD$USER.:E05TSI                                TUE 07/29/97 13:10 Page:47
         4 000347   200426 756100                    STQ     I+25,,AUTO
         4 000350   200426 630500                    EPPR0   I+25,,AUTO
         4 000351   000000 220000 xsym               LDX0    DAF$WRITE
         4 000352   000023 631400 xsym               EPPR1   B_VECTNIL+19
         4 000353   000000 701010                    TSX1    0,X0
         4 000354   000000 011000                    NOP     0

      386    10504    2        VECTOR(ALT$), VECTOR(STK$), VECTOR(AVSZ), VECTOR(CURRSZ) );
      387    10505    2      CALL DAF$WRITE(VECTOR(BLANK_LINE));

  10505  4 000355   000006 630400 5                  EPPR0   6
         4 000356   000000 220000 xsym               LDX0    DAF$WRITE
         4 000357   000017 631400 xsym               EPPR1   B_VECTNIL+15
         4 000360   000000 701010                    TSX1    0,X0
         4 000361   000000 011000                    NOP     0

      388    10506
      389    10507    2      CALL DAF$WRITE(VECTOR(ROSFMT30),

  10507  4 000362   777640 235007                    LDA     -96,DL
         4 000363   200376 452500                    STP2    I+1,,AUTO
         4 000364   200376 236100                    LDQ     I+1,,AUTO
         4 000365   000112 036003                    ADLQ    74,DU
         4 000366   200400 757100                    STAQ    I+3,,AUTO
         4 000367   777640 235007                    LDA     -96,DL
         4 000370   200402 452500                    STP2    I+5,,AUTO
         4 000371   200402 236100                    LDQ     I+5,,AUTO
         4 000372   000113 036003                    ADLQ    75,DU
         4 000373   200404 757100                    STAQ    I+7,,AUTO
         4 000374   777640 235007                    LDA     -96,DL
         4 000375   200406 452500                    STP2    I+9,,AUTO
         4 000376   200406 236100                    LDQ     I+9,,AUTO
         4 000377   000104 036003                    ADLQ    68,DU
         4 000400   200410 757100                    STAQ    I+11,,AUTO
         4 000401   777640 235007                    LDA     -96,DL
         4 000402   200412 452500                    STP2    I+13,,AUTO
         4 000403   200412 236100                    LDQ     I+13,,AUTO
PL6.E3A0      #001=DBD$USER File=DBD$USER.:E05TSI                                TUE 07/29/97 13:10 Page:48
         4 000404   000115 036003                    ADLQ    77,DU
         4 000405   200416 757100                    STAQ    I+17,,AUTO
         4 000406   200400 237100                    LDAQ    I+3,,AUTO
         4 000407   200414 757100                    STAQ    I+15,,AUTO
         4 000410   200404 237100                    LDAQ    I+7,,AUTO
         4 000411   200420 757100                    STAQ    I+19,,AUTO
         4 000412   200410 237100                    LDAQ    I+11,,AUTO
         4 000413   200422 757100                    STAQ    I+21,,AUTO
         4 000414   200416 237100                    LDAQ    I+17,,AUTO
         4 000415   200424 757100                    STAQ    I+23,,AUTO
         4 000416   200424 630500                    EPPR0   I+23,,AUTO
         4 000417   200432 450500                    STP0    I+29,,AUTO
         4 000420   200422 631500                    EPPR1   I+21,,AUTO
         4 000421   200431 451500                    STP1    I+28,,AUTO
         4 000422   200420 633500                    EPPR3   I+19,,AUTO
         4 000423   200430 453500                    STP3    I+27,,AUTO
         4 000424   200414 634500                    EPPR4   I+15,,AUTO
         4 000425   200427 454500                    STP4    I+26,,AUTO
         4 000426   000022 236000 5                  LDQ     18
         4 000427   200426 756100                    STQ     I+25,,AUTO
         4 000430   200426 630500                    EPPR0   I+25,,AUTO
         4 000431   000000 220000 xsym               LDX0    DAF$WRITE
         4 000432   000023 631400 xsym               EPPR1   B_VECTNIL+19
         4 000433   000000 701010                    TSX1    0,X0
         4 000434   000000 011000                    NOP     0

      390    10508    2        VECTOR(U_ECCB$), VECTOR(DB_ECCB$), VECTOR(JIT$), VECTOR(PIA$) );
      391    10509    2      CALL DAF$WRITE(VECTOR(BLANK_LINE));

  10509  4 000435   000006 630400 5                  EPPR0   6
         4 000436   000000 220000 xsym               LDX0    DAF$WRITE
         4 000437   000017 631400 xsym               EPPR1   B_VECTNIL+15
         4 000440   000000 701010                    TSX1    0,X0
         4 000441   000000 011000                    NOP     0

      392    10510    2      CALL DAF$WRITE(VECTOR(BLANK_LINE));

PL6.E3A0      #001=DBD$USER File=DBD$USER.:E05TSI                                TUE 07/29/97 13:10 Page:49
  10510  4 000442   000006 630400 5                  EPPR0   6
         4 000443   000000 220000 xsym               LDX0    DAF$WRITE
         4 000444   000017 631400 xsym               EPPR1   B_VECTNIL+15
         4 000445   000000 701010                    TSX1    0,X0
         4 000446   000000 011000                    NOP     0

      393    10511
      394    10512    2      RETURN;

  10512  4 000447   200372 221300                    LDX1  ! R$+3,,AUTO
         4 000450   000001 702211                    TSX2  ! 1,X1

      395    10513    2   END DISP_ROS;
      396    10514        %EJECT;
PL6.E3A0      #001=DBD$USER File=DBD$USER.:E05TSI                                TUE 07/29/97 13:10 Page:50
      397    10515    1   DISP_DCB: PROC;

  10515  4 000451   200372 741300       DISP_DCB     STX1  ! R$+3,,AUTO

      398    10516    2      CALL GET_ROSBASE

  10516  4 000452   001605 701000 4                  TSX1    GET_ROSBASE
         4 000453   000455 702000 4                  TSX2    s:10517
         4 000454   000457 710000 4                  TRA     s:10519

      399    10517    3      WHENALTRETURN DO; RETURN; END;

  10517  4 000455   200372 221300                    LDX1  ! R$+3,,AUTO
         4 000456   000001 702211                    TSX2  ! 1,X1

      400    10518
      401    10519    2      IF NUMDCBS > 29 THEN NUMDCBS = 29;

  10519  4 000457   200116 235100                    LDA     NUMDCBS,,AUTO
         4 000460   000036 115007                    CMPA    30,DL
         4 000461   000464 602000 4                  TNC     s:10520

  10519  4 000462   000035 236007                    LDQ     29,DL
         4 000463   200116 756100                    STQ     NUMDCBS,,AUTO

      402    10520    2      DCBTAB_CSIZE = (NUMDCBS+1)*4;

  10520  4 000464   200116 235100                    LDA     NUMDCBS,,AUTO
         4 000465   000002 735000                    ALS     2
         4 000466   000004 035007                    ADLA    4,DL
         4 000467   200120 755100                    STA     DCBTAB_CSIZE,,AUTO

      403    10521    2      CALL DBM$GETMEM(DCBPTR$,DCBTABLE,UN,DCBTAB_CSIZE,,DCBTAB_CSIZE)

  10521  4 000470   200120 630500                    EPPR0   DCBTAB_CSIZE,,AUTO
         4 000471   200403 450500                    STP0    I+6,,AUTO
         4 000472   000001 236000 xsym               LDQ     B_VECTNIL+1
PL6.E3A0      #001=DBD$USER File=DBD$USER.:E05TSI                                TUE 07/29/97 13:10 Page:51
         4 000473   200402 756100                    STQ     I+5,,AUTO
         4 000474   200120 631500                    EPPR1   DCBTAB_CSIZE,,AUTO
         4 000475   200401 451500                    STP1    I+4,,AUTO
         4 000476   200362 633500                    EPPR3   UN,,AUTO
         4 000477   200400 453500                    STP3    I+3,,AUTO
         4 000500   200121 634500                    EPPR4   DCBTABLE,,AUTO
         4 000501   200377 454500                    STP4    I+2,,AUTO
         4 000502   200103 635500                    EPPR5   DCBPTR$,,AUTO
         4 000503   200376 455500                    STP5    I+1,,AUTO
         4 000504   200376 630500                    EPPR0   I+1,,AUTO
         4 000505   000024 631400 xsym               EPPR1   B_VECTNIL+20
         4 000506   000000 701000 xent               TSX1    DBM$GETMEM
         4 000507   000511 702000 4                  TSX2    s:10522
         4 000510   000513 710000 4                  TRA     s:10524

      404    10522    3      WHENALTRETURN DO; RETURN; END;

  10522  4 000511   200372 221300                    LDX1  ! R$+3,,AUTO
         4 000512   000001 702211                    TSX2  ! 1,X1

      405    10523
      406    10524    2      CALL DAF$WRITE(VECTOR(DCBFMT10), VECTOR(USERNUM));

  10524  4 000513   777640 235007                    LDA     -96,DL
         4 000514   200376 452500                    STP2    I+1,,AUTO
         4 000515   200376 236100                    LDQ     I+1,,AUTO
         4 000516   000363 036003                    ADLQ    243,DU
         4 000517   200400 757100                    STAQ    I+3,,AUTO
         4 000520   200400 630500                    EPPR0   I+3,,AUTO
         4 000521   200403 450500                    STP0    I+6,,AUTO
         4 000522   000026 236000 5                  LDQ     22
         4 000523   200402 756100                    STQ     I+5,,AUTO
         4 000524   200402 630500                    EPPR0   I+5,,AUTO
         4 000525   000000 220000 xsym               LDX0    DAF$WRITE
         4 000526   000020 631400 xsym               EPPR1   B_VECTNIL+16
         4 000527   000000 701010                    TSX1    0,X0
         4 000530   000000 011000                    NOP     0
PL6.E3A0      #001=DBD$USER File=DBD$USER.:E05TSI                                TUE 07/29/97 13:10 Page:52

      407    10525    2      CALL DAF$WRITE(VECTOR(DCBFMT11));

  10525  4 000531   000032 630400 5                  EPPR0   26
         4 000532   000000 220000 xsym               LDX0    DAF$WRITE
         4 000533   000017 631400 xsym               EPPR1   B_VECTNIL+15
         4 000534   000000 701010                    TSX1    0,X0
         4 000535   000000 011000                    NOP     0

      408    10526    2      CALL DAF$WRITE(VECTOR(DCBFMT12));

  10526  4 000536   000036 630400 5                  EPPR0   30
         4 000537   000000 220000 xsym               LDX0    DAF$WRITE
         4 000540   000017 631400 xsym               EPPR1   B_VECTNIL+15
         4 000541   000000 701010                    TSX1    0,X0
         4 000542   000000 011000                    NOP     0

      409    10527
      410    10528    3      DO DCBI = 0 TO NUMDCBS;

  10528  4 000543   200157 450100                    STZ     DCBI,,AUTO
         4 000544   001171 710000 4                  TRA     s:10566+3

      411    10529    3           CALL DBM$PACK4(DCBTABLE(DCBI),DCB$);

  10529  4 000545   200117 630500                    EPPR0   DCB$,,AUTO
         4 000546   200377 450500                    STP0    I+2,,AUTO
         4 000547   200157 720100                    LXL0    DCBI,,AUTO
         4 000550   200121 631510                    EPPR1   DCBTABLE,X0,AUTO
         4 000551   200376 451500                    STP1    I+1,,AUTO
         4 000552   200376 630500                    EPPR0   I+1,,AUTO
         4 000553   000020 631400 xsym               EPPR1   B_VECTNIL+16
         4 000554   000000 701000 xent               TSX1    DBM$PACK4
         4 000555   000000 011000                    NOP     0

      412    10530    3           IF DCB$ ~= 0

PL6.E3A0      #001=DBD$USER File=DBD$USER.:E05TSI                                TUE 07/29/97 13:10 Page:53
  10530  4 000556   200117 235100                    LDA     DCB$,,AUTO
         4 000557   001166 600000 4                  TZE     s:10566

      413    10531    4           THEN DO;

      414    10532    4                CALL DBM$GETMEM(DCB$,G$DCB,UN,SIZEC(G$DCB),,SIZEC(G$DCB))

  10532  4 000560   000040 236000 5                  LDQ     32
         4 000561   000001 235000 xsym               LDA     B_VECTNIL+1
         4 000562   200402 757100                    STAQ    I+5,,AUTO
         4 000563   000040 236000 5                  LDQ     32
         4 000564   200401 756100                    STQ     I+4,,AUTO
         4 000565   200362 630500                    EPPR0   UN,,AUTO
         4 000566   200400 450500                    STP0    I+3,,AUTO
         4 000567   200201 631500                    EPPR1   G$DCB,,AUTO
         4 000570   200377 451500                    STP1    I+2,,AUTO
         4 000571   200117 633500                    EPPR3   DCB$,,AUTO
         4 000572   200376 453500                    STP3    I+1,,AUTO
         4 000573   200376 630500                    EPPR0   I+1,,AUTO
         4 000574   000024 631400 xsym               EPPR1   B_VECTNIL+20
         4 000575   000000 701000 xent               TSX1    DBM$GETMEM
         4 000576   001166 702000 4                  TSX2    s:10566

      415    10533    5                WHENRETURN DO;

      416    10534    5                     CALL DBM$PACK4(G$DCB.HMI$,HMI$);

  10534  4 000577   200160 630500                    EPPR0   HMI$,,AUTO
         4 000600   200377 450500                    STP0    I+2,,AUTO
         4 000601   200226 631500                    EPPR1   G$DCB+21,,AUTO
         4 000602   200376 451500                    STP1    I+1,,AUTO
         4 000603   200376 630500                    EPPR0   I+1,,AUTO
         4 000604   000020 631400 xsym               EPPR1   B_VECTNIL+16
         4 000605   000000 701000 xent               TSX1    DBM$PACK4
         4 000606   000000 011000                    NOP     0

      417    10535    5                     CALL DBM$PACK4(G$DCB.SSN$,SSN$);
PL6.E3A0      #001=DBD$USER File=DBD$USER.:E05TSI                                TUE 07/29/97 13:10 Page:54

  10535  4 000607   200161 630500                    EPPR0   SSN$,,AUTO
         4 000610   200377 450500                    STP0    I+2,,AUTO
         4 000611   200231 631500                    EPPR1   G$DCB+24,,AUTO
         4 000612   200376 451500                    STP1    I+1,,AUTO
         4 000613   200376 630500                    EPPR0   I+1,,AUTO
         4 000614   000020 631400 xsym               EPPR1   B_VECTNIL+16
         4 000615   000000 701000 xent               TSX1    DBM$PACK4
         4 000616   000000 011000                    NOP     0

      418    10536    5                     CALL DBM$PACK1(G$DCB.DDEV,DDEV);

  10536  4 000617   200163 630500                    EPPR0   DDEV,,AUTO
         4 000620   200377 450500                    STP0    I+2,,AUTO
         4 000621   200400 452500                    STP2    I+3,,AUTO
         4 000622   200400 236100                    LDQ     I+3,,AUTO
         4 000623   000041 036000 5                  ADLQ    33
         4 000624   200376 756100                    STQ     I+1,,AUTO
         4 000625   200376 630500                    EPPR0   I+1,,AUTO
         4 000626   000020 631400 xsym               EPPR1   B_VECTNIL+16
         4 000627   000000 701000 xent               TSX1    DBM$PACK1
         4 000630   000000 011000                    NOP     0

      419    10537    5                     CALL DBM$PACK1(G$DCB.STRM,STRM);

  10537  4 000631   200162 630500                    EPPR0   STRM,,AUTO
         4 000632   200377 450500                    STP0    I+2,,AUTO
         4 000633   200400 452500                    STP2    I+3,,AUTO
         4 000634   200400 236100                    LDQ     I+3,,AUTO
         4 000635   000042 036000 5                  ADLQ    34
         4 000636   200376 756100                    STQ     I+1,,AUTO
         4 000637   200376 630500                    EPPR0   I+1,,AUTO
         4 000640   000020 631400 xsym               EPPR1   B_VECTNIL+16
         4 000641   000000 701000 xent               TSX1    DBM$PACK1
         4 000642   000000 011000                    NOP     0

      420    10538    5                     CALL DBM$PACK2(G$DCB.RLCID.LDCTX,RLCID_LDCTX);
PL6.E3A0      #001=DBD$USER File=DBD$USER.:E05TSI                                TUE 07/29/97 13:10 Page:55

  10538  4 000643   200166 630500                    EPPR0   RLCID_LDCTX,,AUTO
         4 000644   200377 450500                    STP0    I+2,,AUTO
         4 000645   200230 631500                    EPPR1   G$DCB+23,,AUTO
         4 000646   200376 451500                    STP1    I+1,,AUTO
         4 000647   200376 630500                    EPPR0   I+1,,AUTO
         4 000650   000020 631400 xsym               EPPR1   B_VECTNIL+16
         4 000651   000000 701000 xent               TSX1    DBM$PACK2
         4 000652   000000 011000                    NOP     0

      421    10539    5                     CALL DBM$PACK1(G$DCB.RLCID.GENERATION,RLCID_GEN);

  10539  4 000653   200165 630500                    EPPR0   RLCID_GEN,,AUTO
         4 000654   200377 450500                    STP0    I+2,,AUTO
         4 000655   200400 452500                    STP2    I+3,,AUTO
         4 000656   200400 236100                    LDQ     I+3,,AUTO
         4 000657   000043 036000 5                  ADLQ    35
         4 000660   200376 756100                    STQ     I+1,,AUTO
         4 000661   200376 630500                    EPPR0   I+1,,AUTO
         4 000662   000020 631400 xsym               EPPR1   B_VECTNIL+16
         4 000663   000000 701000 xent               TSX1    DBM$PACK1
         4 000664   000000 011000                    NOP     0

      422    10540    5                     CALL DBM$PACK1(G$DCB.RLCID.NODE,RLCID_NODE);

  10540  4 000665   200164 630500                    EPPR0   RLCID_NODE,,AUTO
         4 000666   200377 450500                    STP0    I+2,,AUTO
         4 000667   200400 452500                    STP2    I+3,,AUTO
         4 000670   200400 236100                    LDQ     I+3,,AUTO
         4 000671   000044 036000 5                  ADLQ    36
         4 000672   200376 756100                    STQ     I+1,,AUTO
         4 000673   200376 630500                    EPPR0   I+1,,AUTO
         4 000674   000020 631400 xsym               EPPR1   B_VECTNIL+16
         4 000675   000000 701000 xent               TSX1    DBM$PACK1
         4 000676   000000 011000                    NOP     0

      423    10541
PL6.E3A0      #001=DBD$USER File=DBD$USER.:E05TSI                                TUE 07/29/97 13:10 Page:56
      424    10542    5                     IF G$DCB.FCD = '1'B

  10542  4 000677   200220 236100                    LDQ     G$DCB+15,,AUTO
         4 000700   100000 316007                    CANQ    32768,DL
         4 000701   000707 600000 4                  TZE     s:10544

      425    10543    5                     THEN FCD = 'OPN';

  10543  4 000702   000457 236000 3                  LDQ     TCBFMT9+18
         4 000703   000045 376000 5                  ANQ     37
         4 000704   000040 276007                    ORQ     32,DL
         4 000705   200170 756100                    STQ     FCD,,AUTO
         4 000706   000713 710000 4                  TRA     s:10546

      426    10544    5                     ELSE FCD = 'CLS';

  10544  4 000707   000460 236000 3                  LDQ     TCBFMT9+19
         4 000710   000045 376000 5                  ANQ     37
         4 000711   000040 276007                    ORQ     32,DL
         4 000712   200170 756100                    STQ     FCD,,AUTO

      427    10545
      428    10546    5                     IF G$DCB.ORG <= %G_ORG_X364#

  10546  4 000713   200220 236100                    LDQ     G$DCB+15,,AUTO
         4 000714   000777 376007                    ANQ     511,DL
         4 000715   000010 116007                    CMPQ    8,DL
         4 000716   000724 603000 4                  TRC     s:10548

      429    10547    5                     THEN ORG = TEXT_ORG(G$DCB.ORG);

  10547  4 000717   000003 402007                    MPY     3,DL
         4 000720   040100 100406                    MLR     fill='040'O
         4 000721   000164 000003 3                  ADSC9   TEXT_ORG,Q               cn=0,n=3
         4 000722   200167 000003                    ADSC9   ORG,,AUTO                cn=0,n=3
         4 000723   000730 710000 4                  TRA     s:10550

PL6.E3A0      #001=DBD$USER File=DBD$USER.:E05TSI                                TUE 07/29/97 13:10 Page:57
      430    10548    5                     ELSE ORG = '???';

  10548  4 000724   000461 236000 3                  LDQ     TCBFMT9+20
         4 000725   000045 376000 5                  ANQ     37
         4 000726   000040 276007                    ORQ     32,DL
         4 000727   200167 756100                    STQ     ORG,,AUTO

      431    10549
      432    10550    5                     DCBNAME_TXT = ADDR(G$DCB.DCBNAME)->B$DCBNAME.TXT;

  10550  4 000730   200232 236100                    LDQ     G$DCB+25,,AUTO
         4 000731   000033 772000                    QRL     27
         4 000732   000000 620006                    EAX0    0,QL
         4 000733   040100 100540                    MLR     fill='040'O
         4 000734   200232 200010                    ADSC9   G$DCB+25,,AUTO           cn=1,n=*X0
         4 000735   200171 000037                    ADSC9   DCBNAME_TXT,,AUTO        cn=0,n=31

      433    10551
      434    10552    5                     CALL DAF$WRITE(VECTOR(DCBFMT20),
      435    10553    5                       VECTOR(DCBI), VECTOR(DCB$), VECTOR(FCD), VECTOR(ORG),
      436    10554    5                       VECTOR(G$DCB.RES), VECTOR(RLCID_NODE), VECTOR(RLCID_GEN),
      437    10555    5                       VECTOR(RLCID_LDCTX), VECTOR(STRM), VECTOR(DDEV),

  10555  4 000736   777640 235007                    LDA     -96,DL
         4 000737   200376 452500                    STP2    I+1,,AUTO
         4 000740   200376 236100                    LDQ     I+1,,AUTO
         4 000741   000157 036003                    ADLQ    111,DU
         4 000742   200400 757100                    STAQ    I+3,,AUTO
         4 000743   777640 235007                    LDA     -96,DL
         4 000744   200402 452500                    STP2    I+5,,AUTO
         4 000745   200402 236100                    LDQ     I+5,,AUTO
         4 000746   000117 036003                    ADLQ    79,DU
         4 000747   200404 757100                    STAQ    I+7,,AUTO
         4 000750   577640 235007                    LDA     -65632,DL
         4 000751   200406 452500                    STP2    I+9,,AUTO
         4 000752   200406 236100                    LDQ     I+9,,AUTO
         4 000753   000170 036003                    ADLQ    120,DU
PL6.E3A0      #001=DBD$USER File=DBD$USER.:E05TSI                                TUE 07/29/97 13:10 Page:58
         4 000754   200410 757100                    STAQ    I+11,,AUTO
         4 000755   577640 235007                    LDA     -65632,DL
         4 000756   200412 452500                    STP2    I+13,,AUTO
         4 000757   200412 236100                    LDQ     I+13,,AUTO
         4 000760   000167 036003                    ADLQ    119,DU
         4 000761   200414 757100                    STAQ    I+15,,AUTO
         4 000762   777640 235007                    LDA     -96,DL
         4 000763   200416 452500                    STP2    I+17,,AUTO
         4 000764   200416 236100                    LDQ     I+17,,AUTO
         4 000765   000050 036000 5                  ADLQ    40
         4 000766   200420 757100                    STAQ    I+19,,AUTO
         4 000767   777640 235007                    LDA     -96,DL
         4 000770   200422 452500                    STP2    I+21,,AUTO
         4 000771   200422 236100                    LDQ     I+21,,AUTO
         4 000772   000164 036003                    ADLQ    116,DU
         4 000773   200424 757100                    STAQ    I+23,,AUTO
         4 000774   777640 235007                    LDA     -96,DL
         4 000775   200426 452500                    STP2    I+25,,AUTO
         4 000776   200426 236100                    LDQ     I+25,,AUTO
         4 000777   000165 036003                    ADLQ    117,DU
         4 001000   200430 757100                    STAQ    I+27,,AUTO
         4 001001   777640 235007                    LDA     -96,DL
         4 001002   200432 452500                    STP2    I+29,,AUTO
         4 001003   200432 236100                    LDQ     I+29,,AUTO
         4 001004   000166 036003                    ADLQ    118,DU
         4 001005   200434 757100                    STAQ    I+31,,AUTO
         4 001006   777640 235007                    LDA     -96,DL
         4 001007   200436 452500                    STP2    I+33,,AUTO
         4 001010   200436 236100                    LDQ     I+33,,AUTO
         4 001011   000162 036003                    ADLQ    114,DU
         4 001012   200440 757100                    STAQ    I+35,,AUTO
         4 001013   777640 235007                    LDA     -96,DL
         4 001014   200442 452500                    STP2    I+37,,AUTO
         4 001015   200442 236100                    LDQ     I+37,,AUTO
         4 001016   000163 036003                    ADLQ    115,DU
         4 001017   200444 757100                    STAQ    I+39,,AUTO
         4 001020   777640 235007                    LDA     -96,DL
PL6.E3A0      #001=DBD$USER File=DBD$USER.:E05TSI                                TUE 07/29/97 13:10 Page:59
         4 001021   200446 452500                    STP2    I+41,,AUTO
         4 001022   200446 236100                    LDQ     I+41,,AUTO
         4 001023   000160 036003                    ADLQ    112,DU
         4 001024   200450 757100                    STAQ    I+43,,AUTO
         4 001025   777640 235007                    LDA     -96,DL
         4 001026   200452 452500                    STP2    I+45,,AUTO
         4 001027   200452 236100                    LDQ     I+45,,AUTO
         4 001030   000161 036003                    ADLQ    113,DU
         4 001031   200454 757100                    STAQ    I+47,,AUTO
         4 001032   000051 235000 5                  LDA     41
         4 001033   200456 452500                    STP2    I+49,,AUTO
         4 001034   200456 236100                    LDQ     I+49,,AUTO
         4 001035   000171 036003                    ADLQ    121,DU
         4 001036   200462 757100                    STAQ    I+53,,AUTO
         4 001037   200400 237100                    LDAQ    I+3,,AUTO
         4 001040   200460 757100                    STAQ    I+51,,AUTO
         4 001041   200404 237100                    LDAQ    I+7,,AUTO
         4 001042   200464 757100                    STAQ    I+55,,AUTO
         4 001043   200410 237100                    LDAQ    I+11,,AUTO
         4 001044   200466 757100                    STAQ    I+57,,AUTO
         4 001045   200414 237100                    LDAQ    I+15,,AUTO
         4 001046   200470 757100                    STAQ    I+59,,AUTO
         4 001047   200420 237100                    LDAQ    I+19,,AUTO
         4 001050   200472 757100                    STAQ    I+61,,AUTO
         4 001051   200424 237100                    LDAQ    I+23,,AUTO
         4 001052   200474 757100                    STAQ    I+63,,AUTO
         4 001053   200430 237100                    LDAQ    I+27,,AUTO
         4 001054   200476 757100                    STAQ    I+65,,AUTO
         4 001055   200434 237100                    LDAQ    I+31,,AUTO
         4 001056   200500 757100                    STAQ    I+67,,AUTO
         4 001057   200440 237100                    LDAQ    I+35,,AUTO
         4 001060   200502 757100                    STAQ    I+69,,AUTO
         4 001061   200444 237100                    LDAQ    I+39,,AUTO
         4 001062   200504 757100                    STAQ    I+71,,AUTO
         4 001063   200450 237100                    LDAQ    I+43,,AUTO
         4 001064   200506 757100                    STAQ    I+73,,AUTO
         4 001065   200454 237100                    LDAQ    I+47,,AUTO
PL6.E3A0      #001=DBD$USER File=DBD$USER.:E05TSI                                TUE 07/29/97 13:10 Page:60
         4 001066   200510 757100                    STAQ    I+75,,AUTO
         4 001067   200462 237100                    LDAQ    I+53,,AUTO
         4 001070   200512 757100                    STAQ    I+77,,AUTO
         4 001071   200512 630500                    EPPR0   I+77,,AUTO
         4 001072   200531 450500                    STP0    I+92,,AUTO
         4 001073   200510 631500                    EPPR1   I+75,,AUTO
         4 001074   200530 451500                    STP1    I+91,,AUTO
         4 001075   200506 633500                    EPPR3   I+73,,AUTO
         4 001076   200527 453500                    STP3    I+90,,AUTO
         4 001077   200504 634500                    EPPR4   I+71,,AUTO
         4 001100   200526 454500                    STP4    I+89,,AUTO
         4 001101   200502 635500                    EPPR5   I+69,,AUTO
         4 001102   200525 455500                    STP5    I+88,,AUTO
         4 001103   200500 636500                    EPPR6   I+67,,AUTO
         4 001104   200524 456500                    STP6    I+87,,AUTO
         4 001105   200476 637500                    EPPR7   I+65,,AUTO
         4 001106   200523 457500                    STP7    I+86,,AUTO
         4 001107   200474 630500                    EPPR0   I+63,,AUTO
         4 001110   200522 450500                    STP0    I+85,,AUTO
         4 001111   200472 630500                    EPPR0   I+61,,AUTO
         4 001112   200521 450500                    STP0    I+84,,AUTO
         4 001113   200470 630500                    EPPR0   I+59,,AUTO
         4 001114   200520 450500                    STP0    I+83,,AUTO
         4 001115   200466 630500                    EPPR0   I+57,,AUTO
         4 001116   200517 450500                    STP0    I+82,,AUTO
         4 001117   200464 630500                    EPPR0   I+55,,AUTO
         4 001120   200516 450500                    STP0    I+81,,AUTO
         4 001121   200460 630500                    EPPR0   I+51,,AUTO
         4 001122   200515 450500                    STP0    I+80,,AUTO
         4 001123   000053 236000 5                  LDQ     43
         4 001124   200514 756100                    STQ     I+79,,AUTO
         4 001125   200514 630500                    EPPR0   I+79,,AUTO
         4 001126   000000 221000 xsym               LDX1    DAF$WRITE
         4 001127   000052 631400 5                  EPPR1   42
         4 001130   000000 701011                    TSX1    0,X1
         4 001131   000000 011000                    NOP     0

PL6.E3A0      #001=DBD$USER File=DBD$USER.:E05TSI                                TUE 07/29/97 13:10 Page:61
      438    10556    5                       VECTOR(HMI$), VECTOR(SSN$),
      439    10557    5                       VECTOR(DCBNAME_TXT));
      440    10558
      441    10559    5                     IF G$DCB.NAME.L ~= 0

  10559  4 001132   200203 236100                    LDQ     G$DCB+2,,AUTO
         4 001133   777000 316007                    CANQ    -512,DL
         4 001134   001166 600000 4                  TZE     s:10566

      442    10560    6                     THEN DO;

      443    10561    6                          CALL DAF$WRITE(VECTOR(DCBFMT30),

  10561  4 001135   000051 235000 5                  LDA     41
         4 001136   200376 452500                    STP2    I+1,,AUTO
         4 001137   200376 236100                    LDQ     I+1,,AUTO
         4 001140   000056 036000 5                  ADLQ    46
         4 001141   200400 757100                    STAQ    I+3,,AUTO
         4 001142   000057 235000 5                  LDA     47
         4 001143   200402 452500                    STP2    I+5,,AUTO
         4 001144   200402 236100                    LDQ     I+5,,AUTO
         4 001145   000060 036000 5                  ADLQ    48
         4 001146   200406 757100                    STAQ    I+9,,AUTO
         4 001147   200400 237100                    LDAQ    I+3,,AUTO
         4 001150   200404 757100                    STAQ    I+7,,AUTO
         4 001151   200406 237100                    LDAQ    I+9,,AUTO
         4 001152   200410 757100                    STAQ    I+11,,AUTO
         4 001153   200410 630500                    EPPR0   I+11,,AUTO
         4 001154   200414 450500                    STP0    I+15,,AUTO
         4 001155   200404 631500                    EPPR1   I+7,,AUTO
         4 001156   200413 451500                    STP1    I+14,,AUTO
         4 001157   000061 236000 5                  LDQ     49
         4 001160   200412 756100                    STQ     I+13,,AUTO
         4 001161   200412 630500                    EPPR0   I+13,,AUTO
         4 001162   000000 220000 xsym               LDX0    DAF$WRITE
         4 001163   000021 631400 xsym               EPPR1   B_VECTNIL+17
         4 001164   000000 701010                    TSX1    0,X0
PL6.E3A0      #001=DBD$USER File=DBD$USER.:E05TSI                                TUE 07/29/97 13:10 Page:62
         4 001165   000000 011000                    NOP     0

      444    10562    6                            VECTOR(G$DCB.NAME.C), VECTOR(G$DCB.ACCT));
      445    10563    6                          END;

      446    10564    5                     END/*when return*/;

      447    10565    4                END/*do if DCB$ ~ 0*/;

      448    10566    3           END/*do DCBI 0 -> NUMDCBS*/;

  10566  4 001166   200157 235100                    LDA     DCBI,,AUTO
         4 001167   000001 035007                    ADLA    1,DL
         4 001170   200157 755100                    STA     DCBI,,AUTO
         4 001171   200116 236100                    LDQ     NUMDCBS,,AUTO
         4 001172   200157 116100                    CMPQ    DCBI,,AUTO
         4 001173   000545 603000 4                  TRC     s:10529

      449    10567
      450    10568    2      CALL DAF$WRITE(VECTOR(BLANK_LINE));

  10568  4 001174   000006 630400 5                  EPPR0   6
         4 001175   000000 220000 xsym               LDX0    DAF$WRITE
         4 001176   000017 631400 xsym               EPPR1   B_VECTNIL+15
         4 001177   000000 701010                    TSX1    0,X0
         4 001200   000000 011000                    NOP     0

      451    10569    2      CALL DAF$WRITE(VECTOR(BLANK_LINE));

  10569  4 001201   000006 630400 5                  EPPR0   6
         4 001202   000000 220000 xsym               LDX0    DAF$WRITE
         4 001203   000017 631400 xsym               EPPR1   B_VECTNIL+15
         4 001204   000000 701010                    TSX1    0,X0
         4 001205   000000 011000                    NOP     0

      452    10570    2      RETURN;

PL6.E3A0      #001=DBD$USER File=DBD$USER.:E05TSI                                TUE 07/29/97 13:10 Page:63
  10570  4 001206   200372 221300                    LDX1  ! R$+3,,AUTO
         4 001207   000001 702211                    TSX2  ! 1,X1

      453    10571    2   END DISP_DCB;
      454    10572        %EJECT;
PL6.E3A0      #001=DBD$USER File=DBD$USER.:E05TSI                                TUE 07/29/97 13:10 Page:64
      455    10573
      456    10574    1   DISP_TCB: PROC;

  10574  4 001210   200372 741300       DISP_TCB     STX1  ! R$+3,,AUTO

      457    10575    2      CALL GET_ROSBASE

  10575  4 001211   001605 701000 4                  TSX1    GET_ROSBASE
         4 001212   001214 702000 4                  TSX2    s:10576
         4 001213   001216 710000 4                  TRA     s:10578

      458    10576    3      WHENALTRETURN DO; RETURN; END;

  10576  4 001214   200372 221300                    LDX1  ! R$+3,,AUTO
         4 001215   000001 702211                    TSX2  ! 1,X1

      459    10577
      460    10578    2      CALL DAF$WRITE(VECTOR(TCBFMT1),

  10578  4 001216   777640 235007                    LDA     -96,DL
         4 001217   200376 452500                    STP2    I+1,,AUTO
         4 001220   200376 236100                    LDQ     I+1,,AUTO
         4 001221   000363 036003                    ADLQ    243,DU
         4 001222   200400 757100                    STAQ    I+3,,AUTO
         4 001223   777640 235007                    LDA     -96,DL
         4 001224   200402 452500                    STP2    I+5,,AUTO
         4 001225   200402 236100                    LDQ     I+5,,AUTO
         4 001226   000105 036003                    ADLQ    69,DU
         4 001227   200404 757100                    STAQ    I+7,,AUTO
         4 001230   777640 235007                    LDA     -96,DL
         4 001231   200406 452500                    STP2    I+9,,AUTO
         4 001232   200406 236100                    LDQ     I+9,,AUTO
         4 001233   000106 036003                    ADLQ    70,DU
         4 001234   200410 757100                    STAQ    I+11,,AUTO
         4 001235   777640 235007                    LDA     -96,DL
         4 001236   200412 452500                    STP2    I+13,,AUTO
         4 001237   200412 236100                    LDQ     I+13,,AUTO
PL6.E3A0      #001=DBD$USER File=DBD$USER.:E05TSI                                TUE 07/29/97 13:10 Page:65
         4 001240   000107 036003                    ADLQ    71,DU
         4 001241   200414 757100                    STAQ    I+15,,AUTO
         4 001242   777640 235007                    LDA     -96,DL
         4 001243   200416 452500                    STP2    I+17,,AUTO
         4 001244   200416 236100                    LDQ     I+17,,AUTO
         4 001245   000110 036003                    ADLQ    72,DU
         4 001246   200422 757100                    STAQ    I+21,,AUTO
         4 001247   200400 237100                    LDAQ    I+3,,AUTO
         4 001250   200420 757100                    STAQ    I+19,,AUTO
         4 001251   200404 237100                    LDAQ    I+7,,AUTO
         4 001252   200424 757100                    STAQ    I+23,,AUTO
         4 001253   200410 237100                    LDAQ    I+11,,AUTO
         4 001254   200426 757100                    STAQ    I+25,,AUTO
         4 001255   200414 237100                    LDAQ    I+15,,AUTO
         4 001256   200430 757100                    STAQ    I+27,,AUTO
         4 001257   200422 237100                    LDAQ    I+21,,AUTO
         4 001260   200432 757100                    STAQ    I+29,,AUTO
         4 001261   200432 630500                    EPPR0   I+29,,AUTO
         4 001262   200441 450500                    STP0    I+36,,AUTO
         4 001263   200430 631500                    EPPR1   I+27,,AUTO
         4 001264   200440 451500                    STP1    I+35,,AUTO
         4 001265   200426 633500                    EPPR3   I+25,,AUTO
         4 001266   200437 453500                    STP3    I+34,,AUTO
         4 001267   200424 634500                    EPPR4   I+23,,AUTO
         4 001270   200436 454500                    STP4    I+33,,AUTO
         4 001271   200420 635500                    EPPR5   I+19,,AUTO
         4 001272   200435 455500                    STP5    I+32,,AUTO
         4 001273   000064 236000 5                  LDQ     52
         4 001274   200434 756100                    STQ     I+31,,AUTO
         4 001275   200434 630500                    EPPR0   I+31,,AUTO
         4 001276   000000 220000 xsym               LDX0    DAF$WRITE
         4 001277   000024 631400 xsym               EPPR1   B_VECTNIL+20
         4 001300   000000 701010                    TSX1    0,X0
         4 001301   000000 011000                    NOP     0

      461    10579    2        VECTOR(USERNUM), VECTOR(ALT$), VECTOR(STK$),
      462    10580    2        VECTOR(AVSZ), VECTOR(CURRSZ) );
PL6.E3A0      #001=DBD$USER File=DBD$USER.:E05TSI                                TUE 07/29/97 13:10 Page:66
      463    10581    2      CALL DAF$WRITE(VECTOR(BLANK_LINE));

  10581  4 001302   000006 630400 5                  EPPR0   6
         4 001303   000000 220000 xsym               LDX0    DAF$WRITE
         4 001304   000017 631400 xsym               EPPR1   B_VECTNIL+15
         4 001305   000000 701010                    TSX1    0,X0
         4 001306   000000 011000                    NOP     0

      464    10582
      465    10583    2      IF ALT$ ~= 0

  10583  4 001307   200105 235100                    LDA     ALT$,,AUTO
         4 001310   001346 600000 4                  TZE     s:10594

      466    10584    3      THEN DO;

      467    10585    3           EXCFR$ = ALT$;

  10585  4 001311   200251 755100                    STA     EXCFR$,,AUTO

      468    10586    3           CALL DBM$GETMEM(EXCFR$,EXCFR,UN,1,,1)

  10586  4 001312   000065 236000 5                  LDQ     53
         4 001313   000001 235000 xsym               LDA     B_VECTNIL+1
         4 001314   200402 757100                    STAQ    I+5,,AUTO
         4 001315   000065 236000 5                  LDQ     53
         4 001316   200401 756100                    STQ     I+4,,AUTO
         4 001317   200362 630500                    EPPR0   UN,,AUTO
         4 001320   200400 450500                    STP0    I+3,,AUTO
         4 001321   200252 631500                    EPPR1   EXCFR,,AUTO
         4 001322   200377 451500                    STP1    I+2,,AUTO
         4 001323   200251 633500                    EPPR3   EXCFR$,,AUTO
         4 001324   200376 453500                    STP3    I+1,,AUTO
         4 001325   200376 630500                    EPPR0   I+1,,AUTO
         4 001326   000024 631400 xsym               EPPR1   B_VECTNIL+20
         4 001327   000000 701000 xent               TSX1    DBM$GETMEM
         4 001330   001346 702000 4                  TSX2    s:10594
PL6.E3A0      #001=DBD$USER File=DBD$USER.:E05TSI                                TUE 07/29/97 13:10 Page:67

      469    10587    4           WHENRETURN DO;

      470    10588    4                CALL DBM$PACK2(EXCFR.PREVSZ,PREVSZ);

  10588  4 001331   200332 630500                    EPPR0   PREVSZ,,AUTO
         4 001332   200377 450500                    STP0    I+2,,AUTO
         4 001333   200252 631500                    EPPR1   EXCFR,,AUTO
         4 001334   200376 451500                    STP1    I+1,,AUTO
         4 001335   200376 630500                    EPPR0   I+1,,AUTO
         4 001336   000020 631400 xsym               EPPR1   B_VECTNIL+16
         4 001337   000000 701000 xent               TSX1    DBM$PACK2
         4 001340   000000 011000                    NOP     0

      471    10589    4                IF PREVSZ ~=          65535/* .FFFF                              */

  10589  4 001341   200332 235100                    LDA     PREVSZ,,AUTO
         4 001342   177777 115007                    CMPA    65535,DL
         4 001343   001346 600000 4                  TZE     s:10594

      472    10590    4                THEN CALL DISP_FRAME;

  10590  4 001344   001776 701000 4                  TSX1    DISP_FRAME
         4 001345   000000 011000                    NOP     0

      473    10591    4                END;

      474    10592    3           END;

      475    10593
      476    10594    2      EXCFR$ = STK$;

  10594  4 001346   200106 235100                    LDA     STK$,,AUTO
         4 001347   200251 755100                    STA     EXCFR$,,AUTO

      477    10595    3      DO WHILE(CURRSZ ~= 0);

PL6.E3A0      #001=DBD$USER File=DBD$USER.:E05TSI                                TUE 07/29/97 13:10 Page:68
  10595  4 001350   200110 236100                    LDQ     CURRSZ,,AUTO
         4 001351   001362 600000 4                  TZE     s:10601

      478    10596    3           CALL DISP_FRAME;

  10596  4 001352   001776 701000 4                  TSX1    DISP_FRAME
         4 001353   000000 011000                    NOP     0

      479    10597    3           EXCFR$ = EXCFR$ - PREVSZ;

  10597  4 001354   200251 236100                    LDQ     EXCFR$,,AUTO
         4 001355   200332 136100                    SBLQ    PREVSZ,,AUTO
         4 001356   200251 756100                    STQ     EXCFR$,,AUTO

      480    10598    3           CURRSZ = PREVSZ;

  10598  4 001357   200332 235100                    LDA     PREVSZ,,AUTO
         4 001360   200110 755100                    STA     CURRSZ,,AUTO

      481    10599    3           END;

  10599  4 001361   001352 601000 4                  TNZ     s:10596

      482    10600
      483    10601    2      RETURN;

  10601  4 001362   200372 221300                    LDX1  ! R$+3,,AUTO
         4 001363   000001 702211                    TSX2  ! 1,X1

      484    10602    2   END DISP_TCB;
      485    10603        %EJECT;
PL6.E3A0      #001=DBD$USER File=DBD$USER.:E05TSI                                TUE 07/29/97 13:10 Page:69
      486    10604
      487    10605    1   DISP_ECCB: PROC;

  10605  4 001364   200372 741300       DISP_ECCB    STX1  ! R$+3,,AUTO

      488    10606    2      CALL GET_ROSBASE

  10606  4 001365   001605 701000 4                  TSX1    GET_ROSBASE
         4 001366   001370 702000 4                  TSX2    s:10607
         4 001367   001372 710000 4                  TRA     s:10609

      489    10607    3      WHENALTRETURN DO; RETURN; END;

  10607  4 001370   200372 221300                    LDX1  ! R$+3,,AUTO
         4 001371   000001 702211                    TSX2  ! 1,X1

      490    10608
      491    10609    2      CALL DBM$GETMEM(U_ECCB$,G$ECCB,UN,SIZEC(G$ECCB),,SIZEC(G$ECCB))

  10609  4 001372   000067 236000 5                  LDQ     55
         4 001373   000001 235000 xsym               LDA     B_VECTNIL+1
         4 001374   200402 757100                    STAQ    I+5,,AUTO
         4 001375   000067 236000 5                  LDQ     55
         4 001376   200401 756100                    STQ     I+4,,AUTO
         4 001377   200362 630500                    EPPR0   UN,,AUTO
         4 001400   200400 450500                    STP0    I+3,,AUTO
         4 001401   200242 631500                    EPPR1   G$ECCB,,AUTO
         4 001402   200377 451500                    STP1    I+2,,AUTO
         4 001403   200112 633500                    EPPR3   U_ECCB$,,AUTO
         4 001404   200376 453500                    STP3    I+1,,AUTO
         4 001405   200376 630500                    EPPR0   I+1,,AUTO
         4 001406   000024 631400 xsym               EPPR1   B_VECTNIL+20
         4 001407   000000 701000 xent               TSX1    DBM$GETMEM
         4 001410   001412 702000 4                  TSX2    s:10610
         4 001411   001414 710000 4                  TRA     s:10612

      492    10610    3      WHENALTRETURN DO; RETURN; END;
PL6.E3A0      #001=DBD$USER File=DBD$USER.:E05TSI                                TUE 07/29/97 13:10 Page:70

  10610  4 001412   200372 221300                    LDX1  ! R$+3,,AUTO
         4 001413   000001 702211                    TSX2  ! 1,X1

      493    10611
      494    10612    2      CALL DAF$WRITE(VECTOR(ECCBFMT1), VECTOR(USERNUM));

  10612  4 001414   777640 235007                    LDA     -96,DL
         4 001415   200376 452500                    STP2    I+1,,AUTO
         4 001416   200376 236100                    LDQ     I+1,,AUTO
         4 001417   000363 036003                    ADLQ    243,DU
         4 001420   200400 757100                    STAQ    I+3,,AUTO
         4 001421   200400 630500                    EPPR0   I+3,,AUTO
         4 001422   200403 450500                    STP0    I+6,,AUTO
         4 001423   000072 236000 5                  LDQ     58
         4 001424   200402 756100                    STQ     I+5,,AUTO
         4 001425   200402 630500                    EPPR0   I+5,,AUTO
         4 001426   000000 220000 xsym               LDX0    DAF$WRITE
         4 001427   000020 631400 xsym               EPPR1   B_VECTNIL+16
         4 001430   000000 701010                    TSX1    0,X0
         4 001431   000000 011000                    NOP     0

      495    10613    2      CALL DAF$WRITE(VECTOR(ECCBFMT2), VECTOR(G$ECCB.EVENT$),

  10613  4 001432   777640 235007                    LDA     -96,DL
         4 001433   200376 452500                    STP2    I+1,,AUTO
         4 001434   200376 236100                    LDQ     I+1,,AUTO
         4 001435   000242 036003                    ADLQ    162,DU
         4 001436   200400 757100                    STAQ    I+3,,AUTO
         4 001437   777640 235007                    LDA     -96,DL
         4 001440   200402 452500                    STP2    I+5,,AUTO
         4 001441   200402 236100                    LDQ     I+5,,AUTO
         4 001442   000243 036003                    ADLQ    163,DU
         4 001443   200404 757100                    STAQ    I+7,,AUTO
         4 001444   777640 235007                    LDA     -96,DL
         4 001445   200406 452500                    STP2    I+9,,AUTO
         4 001446   200406 236100                    LDQ     I+9,,AUTO
PL6.E3A0      #001=DBD$USER File=DBD$USER.:E05TSI                                TUE 07/29/97 13:10 Page:71
         4 001447   000244 036003                    ADLQ    164,DU
         4 001450   200410 757100                    STAQ    I+11,,AUTO
         4 001451   777640 235007                    LDA     -96,DL
         4 001452   200412 452500                    STP2    I+13,,AUTO
         4 001453   200412 236100                    LDQ     I+13,,AUTO
         4 001454   000245 036003                    ADLQ    165,DU
         4 001455   200414 757100                    STAQ    I+15,,AUTO
         4 001456   777640 235007                    LDA     -96,DL
         4 001457   200416 452500                    STP2    I+17,,AUTO
         4 001460   200416 236100                    LDQ     I+17,,AUTO
         4 001461   000246 036003                    ADLQ    166,DU
         4 001462   200422 757100                    STAQ    I+21,,AUTO
         4 001463   200400 237100                    LDAQ    I+3,,AUTO
         4 001464   200420 757100                    STAQ    I+19,,AUTO
         4 001465   200404 237100                    LDAQ    I+7,,AUTO
         4 001466   200424 757100                    STAQ    I+23,,AUTO
         4 001467   200410 237100                    LDAQ    I+11,,AUTO
         4 001470   200426 757100                    STAQ    I+25,,AUTO
         4 001471   200414 237100                    LDAQ    I+15,,AUTO
         4 001472   200430 757100                    STAQ    I+27,,AUTO
         4 001473   200422 237100                    LDAQ    I+21,,AUTO
         4 001474   200432 757100                    STAQ    I+29,,AUTO
         4 001475   200432 630500                    EPPR0   I+29,,AUTO
         4 001476   200441 450500                    STP0    I+36,,AUTO
         4 001477   200430 631500                    EPPR1   I+27,,AUTO
         4 001500   200440 451500                    STP1    I+35,,AUTO
         4 001501   200426 633500                    EPPR3   I+25,,AUTO
         4 001502   200437 453500                    STP3    I+34,,AUTO
         4 001503   200424 634500                    EPPR4   I+23,,AUTO
         4 001504   200436 454500                    STP4    I+33,,AUTO
         4 001505   200420 635500                    EPPR5   I+19,,AUTO
         4 001506   200435 455500                    STP5    I+32,,AUTO
         4 001507   000076 236000 5                  LDQ     62
         4 001510   200434 756100                    STQ     I+31,,AUTO
         4 001511   200434 630500                    EPPR0   I+31,,AUTO
         4 001512   000000 220000 xsym               LDX0    DAF$WRITE
         4 001513   000024 631400 xsym               EPPR1   B_VECTNIL+20
PL6.E3A0      #001=DBD$USER File=DBD$USER.:E05TSI                                TUE 07/29/97 13:10 Page:72
         4 001514   000000 701010                    TSX1    0,X0
         4 001515   000000 011000                    NOP     0

      496    10614    2        VECTOR(G$ECCB.INT$), VECTOR(G$ECCB.XCON$), VECTOR(G$ECCB.TRAP$),
      497    10615    2        VECTOR(G$ECCB.DBCONTROL$));
      498    10616    2      CALL DAF$WRITE(VECTOR(ECCBFMT3), VECTOR(G$ECCB.FLAGS),

  10616  4 001516   377640 235007                    LDA     130976,DL
         4 001517   200376 452500                    STP2    I+1,,AUTO
         4 001520   200376 236100                    LDQ     I+1,,AUTO
         4 001521   000247 036003                    ADLQ    167,DU
         4 001522   200400 757100                    STAQ    I+3,,AUTO
         4 001523   377640 235007                    LDA     130976,DL
         4 001524   200402 452500                    STP2    I+5,,AUTO
         4 001525   200402 236100                    LDQ     I+5,,AUTO
         4 001526   000102 036000 5                  ADLQ    66
         4 001527   200404 757100                    STAQ    I+7,,AUTO
         4 001530   377640 235007                    LDA     130976,DL
         4 001531   200406 452500                    STP2    I+9,,AUTO
         4 001532   200406 236100                    LDQ     I+9,,AUTO
         4 001533   000250 036003                    ADLQ    168,DU
         4 001534   200410 757100                    STAQ    I+11,,AUTO
         4 001535   377640 235007                    LDA     130976,DL
         4 001536   200412 452500                    STP2    I+13,,AUTO
         4 001537   200412 236100                    LDQ     I+13,,AUTO
         4 001540   000103 036000 5                  ADLQ    67
         4 001541   200416 757100                    STAQ    I+17,,AUTO
         4 001542   200400 237100                    LDAQ    I+3,,AUTO
         4 001543   200414 757100                    STAQ    I+15,,AUTO
         4 001544   200404 237100                    LDAQ    I+7,,AUTO
         4 001545   200420 757100                    STAQ    I+19,,AUTO
         4 001546   200410 237100                    LDAQ    I+11,,AUTO
         4 001547   200422 757100                    STAQ    I+21,,AUTO
         4 001550   200416 237100                    LDAQ    I+17,,AUTO
         4 001551   200424 757100                    STAQ    I+23,,AUTO
         4 001552   200424 630500                    EPPR0   I+23,,AUTO
         4 001553   200432 450500                    STP0    I+29,,AUTO
PL6.E3A0      #001=DBD$USER File=DBD$USER.:E05TSI                                TUE 07/29/97 13:10 Page:73
         4 001554   200422 631500                    EPPR1   I+21,,AUTO
         4 001555   200431 451500                    STP1    I+28,,AUTO
         4 001556   200420 633500                    EPPR3   I+19,,AUTO
         4 001557   200430 453500                    STP3    I+27,,AUTO
         4 001560   200414 634500                    EPPR4   I+15,,AUTO
         4 001561   200427 454500                    STP4    I+26,,AUTO
         4 001562   000104 236000 5                  LDQ     68
         4 001563   200426 756100                    STQ     I+25,,AUTO
         4 001564   200426 630500                    EPPR0   I+25,,AUTO
         4 001565   000000 220000 xsym               LDX0    DAF$WRITE
         4 001566   000023 631400 xsym               EPPR1   B_VECTNIL+19
         4 001567   000000 701010                    TSX1    0,X0
         4 001570   000000 011000                    NOP     0

      499    10617    2        VECTOR(G$ECCB.FLTFLG(0)), VECTOR(G$ECCB.FLTFLG(1)),
      500    10618    2        VECTOR(G$ECCB.FLTFLG(2)));
      501    10619
      502    10620    2      CALL DAF$WRITE(VECTOR(BLANK_LINE));

  10620  4 001571   000006 630400 5                  EPPR0   6
         4 001572   000000 220000 xsym               LDX0    DAF$WRITE
         4 001573   000017 631400 xsym               EPPR1   B_VECTNIL+15
         4 001574   000000 701010                    TSX1    0,X0
         4 001575   000000 011000                    NOP     0

      503    10621    2      CALL DAF$WRITE(VECTOR(BLANK_LINE));

  10621  4 001576   000006 630400 5                  EPPR0   6
         4 001577   000000 220000 xsym               LDX0    DAF$WRITE
         4 001600   000017 631400 xsym               EPPR1   B_VECTNIL+15
         4 001601   000000 701010                    TSX1    0,X0
         4 001602   000000 011000                    NOP     0

      504    10622    2      RETURN;

  10622  4 001603   200372 221300                    LDX1  ! R$+3,,AUTO
         4 001604   000001 702211                    TSX2  ! 1,X1
PL6.E3A0      #001=DBD$USER File=DBD$USER.:E05TSI                                TUE 07/29/97 13:10 Page:74

      505    10623
      506    10624    2   END DISP_ECCB;
      507    10625        %EJECT;
PL6.E3A0      #001=DBD$USER File=DBD$USER.:E05TSI                                TUE 07/29/97 13:10 Page:75
      508    10626        /*I* NAME: GET_ROSBASE
      509    10627
      510    10628        */
      511    10629    1   GET_ROSBASE: PROC ALTRET;

  10629  4 001605   200374 741300       GET_ROSBASE  STX1  ! R$+5,,AUTO

      512    10630    2      CALL DBM$GETMEM(ROS$,ROSBASE,UN,SIZEC(ROSBASE),,SIZEC(ROSBASE))

  10630  4 001606   000106 236000 5                  LDQ     70
         4 001607   000001 235000 xsym               LDA     B_VECTNIL+1
         4 001610   200402 757100                    STAQ    I+5,,AUTO
         4 001611   000106 236000 5                  LDQ     70
         4 001612   200401 756100                    STQ     I+4,,AUTO
         4 001613   200362 630500                    EPPR0   UN,,AUTO
         4 001614   200400 450500                    STP0    I+3,,AUTO
         4 001615   200067 631500                    EPPR1   ROSBASE,,AUTO
         4 001616   200377 451500                    STP1    I+2,,AUTO
         4 001617   000107 236000 5                  LDQ     71
         4 001620   200376 756100                    STQ     I+1,,AUTO
         4 001621   200376 630500                    EPPR0   I+1,,AUTO
         4 001622   000024 631400 xsym               EPPR1   B_VECTNIL+20
         4 001623   000000 701000 xent               TSX1    DBM$GETMEM
         4 001624   001626 702000 4                  TSX2    s:10632
         4 001625   001630 710000 4                  TRA     s:10634

      513    10631    3      WHENALTRETURN DO;

      514    10632    3           ALTRETURN;

  10632  4 001626   200374 221300                    LDX1  ! R$+5,,AUTO
         4 001627   000000 702211                    TSX2  ! 0,X1

      515    10633    3           END;
      516    10634    2      USR_REP_FLG = 1;

  10634  4 001630   000001 235007                    LDA     1,DL
PL6.E3A0      #001=DBD$USER File=DBD$USER.:E05TSI                                TUE 07/29/97 13:10 Page:76
         4 001631   200361 755100                    STA     USR_REP_FLG,,AUTO

      517    10635
      518    10636    2      CALL DBM$PACK4(ROSBASE.DCBPTR$,DCBPTR$);

  10636  4 001632   200103 630500                    EPPR0   DCBPTR$,,AUTO
         4 001633   200377 450500                    STP0    I+2,,AUTO
         4 001634   200067 631500                    EPPR1   ROSBASE,,AUTO
         4 001635   200376 451500                    STP1    I+1,,AUTO
         4 001636   200376 630500                    EPPR0   I+1,,AUTO
         4 001637   000020 631400 xsym               EPPR1   B_VECTNIL+16
         4 001640   000000 701000 xent               TSX1    DBM$PACK4
         4 001641   000000 011000                    NOP     0

      519    10637    2      CALL DBM$PACK4(ROSBASE.JIT$,JIT$);

  10637  4 001642   200104 630500                    EPPR0   JIT$,,AUTO
         4 001643   200377 450500                    STP0    I+2,,AUTO
         4 001644   200070 631500                    EPPR1   ROSBASE+1,,AUTO
         4 001645   200376 451500                    STP1    I+1,,AUTO
         4 001646   200376 630500                    EPPR0   I+1,,AUTO
         4 001647   000020 631400 xsym               EPPR1   B_VECTNIL+16
         4 001650   000000 701000 xent               TSX1    DBM$PACK4
         4 001651   000000 011000                    NOP     0

      520    10638    2      CALL DBM$PACK4(ROSBASE.ALT$,ALT$);

  10638  4 001652   200105 630500                    EPPR0   ALT$,,AUTO
         4 001653   200377 450500                    STP0    I+2,,AUTO
         4 001654   200071 631500                    EPPR1   ROSBASE+2,,AUTO
         4 001655   200376 451500                    STP1    I+1,,AUTO
         4 001656   200376 630500                    EPPR0   I+1,,AUTO
         4 001657   000020 631400 xsym               EPPR1   B_VECTNIL+16
         4 001660   000000 701000 xent               TSX1    DBM$PACK4
         4 001661   000000 011000                    NOP     0

      521    10639    2      CALL DBM$PACK4(ROSBASE.STK$,STK$);
PL6.E3A0      #001=DBD$USER File=DBD$USER.:E05TSI                                TUE 07/29/97 13:10 Page:77

  10639  4 001662   200106 630500                    EPPR0   STK$,,AUTO
         4 001663   200377 450500                    STP0    I+2,,AUTO
         4 001664   200072 631500                    EPPR1   ROSBASE+3,,AUTO
         4 001665   200376 451500                    STP1    I+1,,AUTO
         4 001666   200376 630500                    EPPR0   I+1,,AUTO
         4 001667   000020 631400 xsym               EPPR1   B_VECTNIL+16
         4 001670   000000 701000 xent               TSX1    DBM$PACK4
         4 001671   000000 011000                    NOP     0

      522    10640    2      CALL DBM$PACK2(ROSBASE.AVSZ,AVSZ);

  10640  4 001672   200107 630500                    EPPR0   AVSZ,,AUTO
         4 001673   200377 450500                    STP0    I+2,,AUTO
         4 001674   200073 631500                    EPPR1   ROSBASE+4,,AUTO
         4 001675   200376 451500                    STP1    I+1,,AUTO
         4 001676   200376 630500                    EPPR0   I+1,,AUTO
         4 001677   000020 631400 xsym               EPPR1   B_VECTNIL+16
         4 001700   000000 701000 xent               TSX1    DBM$PACK2
         4 001701   000000 011000                    NOP     0

      523    10641    2      CALL DBM$PACK2(ROSBASE.CURRSZ,CURRSZ);

  10641  4 001702   200110 630500                    EPPR0   CURRSZ,,AUTO
         4 001703   200377 450500                    STP0    I+2,,AUTO
         4 001704   200400 452500                    STP2    I+3,,AUTO
         4 001705   200400 236100                    LDQ     I+3,,AUTO
         4 001706   000110 036000 5                  ADLQ    72
         4 001707   200376 756100                    STQ     I+1,,AUTO
         4 001710   200376 630500                    EPPR0   I+1,,AUTO
         4 001711   000020 631400 xsym               EPPR1   B_VECTNIL+16
         4 001712   000000 701000 xent               TSX1    DBM$PACK2
         4 001713   000000 011000                    NOP     0

      524    10642    2      CALL DBM$PACK4(ROSBASE.AVAIL$,AVAIL$);

  10642  4 001714   200111 630500                    EPPR0   AVAIL$,,AUTO
PL6.E3A0      #001=DBD$USER File=DBD$USER.:E05TSI                                TUE 07/29/97 13:10 Page:78
         4 001715   200377 450500                    STP0    I+2,,AUTO
         4 001716   200074 631500                    EPPR1   ROSBASE+5,,AUTO
         4 001717   200376 451500                    STP1    I+1,,AUTO
         4 001720   200376 630500                    EPPR0   I+1,,AUTO
         4 001721   000020 631400 xsym               EPPR1   B_VECTNIL+16
         4 001722   000000 701000 xent               TSX1    DBM$PACK4
         4 001723   000000 011000                    NOP     0

      525    10643    2      CALL DBM$PACK4(ROSBASE.U_ECCB$,U_ECCB$);

  10643  4 001724   200112 630500                    EPPR0   U_ECCB$,,AUTO
         4 001725   200377 450500                    STP0    I+2,,AUTO
         4 001726   200075 631500                    EPPR1   ROSBASE+6,,AUTO
         4 001727   200376 451500                    STP1    I+1,,AUTO
         4 001730   200376 630500                    EPPR0   I+1,,AUTO
         4 001731   000020 631400 xsym               EPPR1   B_VECTNIL+16
         4 001732   000000 701000 xent               TSX1    DBM$PACK4
         4 001733   000000 011000                    NOP     0

      526    10644    2      CALL DBM$PACK4(ROSBASE.DB_ECCB$,DB_ECCB$);

  10644  4 001734   200113 630500                    EPPR0   DB_ECCB$,,AUTO
         4 001735   200377 450500                    STP0    I+2,,AUTO
         4 001736   200076 631500                    EPPR1   ROSBASE+7,,AUTO
         4 001737   200376 451500                    STP1    I+1,,AUTO
         4 001740   200376 630500                    EPPR0   I+1,,AUTO
         4 001741   000020 631400 xsym               EPPR1   B_VECTNIL+16
         4 001742   000000 701000 xent               TSX1    DBM$PACK4
         4 001743   000000 011000                    NOP     0

      527    10645    2      CALL DBM$PACK4(ROSBASE.CP_ECCB$,CP_ECCB$);

  10645  4 001744   200114 630500                    EPPR0   CP_ECCB$,,AUTO
         4 001745   200377 450500                    STP0    I+2,,AUTO
         4 001746   200077 631500                    EPPR1   ROSBASE+8,,AUTO
         4 001747   200376 451500                    STP1    I+1,,AUTO
         4 001750   200376 630500                    EPPR0   I+1,,AUTO
PL6.E3A0      #001=DBD$USER File=DBD$USER.:E05TSI                                TUE 07/29/97 13:10 Page:79
         4 001751   000020 631400 xsym               EPPR1   B_VECTNIL+16
         4 001752   000000 701000 xent               TSX1    DBM$PACK4
         4 001753   000000 011000                    NOP     0

      528    10646    2      CALL DBM$PACK4(ROSBASE.PIA$,PIA$);

  10646  4 001754   200115 630500                    EPPR0   PIA$,,AUTO
         4 001755   200377 450500                    STP0    I+2,,AUTO
         4 001756   200100 631500                    EPPR1   ROSBASE+9,,AUTO
         4 001757   200376 451500                    STP1    I+1,,AUTO
         4 001760   200376 630500                    EPPR0   I+1,,AUTO
         4 001761   000020 631400 xsym               EPPR1   B_VECTNIL+16
         4 001762   000000 701000 xent               TSX1    DBM$PACK4
         4 001763   000000 011000                    NOP     0

      529    10647    2      CALL DBM$PACK2(ROSBASE.NUMDCBS,NUMDCBS);

  10647  4 001764   200116 630500                    EPPR0   NUMDCBS,,AUTO
         4 001765   200377 450500                    STP0    I+2,,AUTO
         4 001766   200101 631500                    EPPR1   ROSBASE+10,,AUTO
         4 001767   200376 451500                    STP1    I+1,,AUTO
         4 001770   200376 630500                    EPPR0   I+1,,AUTO
         4 001771   000020 631400 xsym               EPPR1   B_VECTNIL+16
         4 001772   000000 701000 xent               TSX1    DBM$PACK2
         4 001773   000000 011000                    NOP     0

      530    10648
      531    10649    2      RETURN;

  10649  4 001774   200374 221300                    LDX1  ! R$+5,,AUTO
         4 001775   000001 702211                    TSX2  ! 1,X1

      532    10650    2   END GET_ROSBASE;
      533    10651        %EJECT;
PL6.E3A0      #001=DBD$USER File=DBD$USER.:E05TSI                                TUE 07/29/97 13:10 Page:80
      534    10652
      535    10653
      536    10654    1   DISP_FRAME: PROC;

  10654  4 001776   200374 741300       DISP_FRAME   STX1  ! R$+5,,AUTO

      537    10655
      538    10656    2   DCL I SBIN;
      539    10657
      540    10658    2      CALL DBM$GETMEM(EXCFR$,EXCFR,UN,SIZEC(EXCFR),,SIZEC(EXCFR))

  10658  4 001777   000112 236000 5                  LDQ     74
         4 002000   000001 235000 xsym               LDA     B_VECTNIL+1
         4 002001   200402 757100                    STAQ    I+5,,AUTO
         4 002002   000112 236000 5                  LDQ     74
         4 002003   200401 756100                    STQ     I+4,,AUTO
         4 002004   200362 630500                    EPPR0   UN,,AUTO
         4 002005   200400 450500                    STP0    I+3,,AUTO
         4 002006   200252 631500                    EPPR1   EXCFR,,AUTO
         4 002007   200377 451500                    STP1    I+2,,AUTO
         4 002010   200251 633500                    EPPR3   EXCFR$,,AUTO
         4 002011   200376 453500                    STP3    I+1,,AUTO
         4 002012   200376 630500                    EPPR0   I+1,,AUTO
         4 002013   000024 631400 xsym               EPPR1   B_VECTNIL+20
         4 002014   000000 701000 xent               TSX1    DBM$GETMEM
         4 002015   002017 702000 4                  TSX2    s:10660
         4 002016   002021 710000 4                  TRA     s:10663

      541    10659    3      WHENALTRETURN DO;

      542    10660    3           RETURN;

  10660  4 002017   200374 221300                    LDX1  ! R$+5,,AUTO
         4 002020   000001 702211                    TSX2  ! 1,X1

      543    10661    3           END;
      544    10662
PL6.E3A0      #001=DBD$USER File=DBD$USER.:E05TSI                                TUE 07/29/97 13:10 Page:81
      545    10663    2      CALL DBM$PACK2(EXCFR.PREVSZ,PREVSZ);

  10663  4 002021   200332 630500                    EPPR0   PREVSZ,,AUTO
         4 002022   200377 450500                    STP0    I+2,,AUTO
         4 002023   200252 631500                    EPPR1   EXCFR,,AUTO
         4 002024   200376 451500                    STP1    I+1,,AUTO
         4 002025   200376 630500                    EPPR0   I+1,,AUTO
         4 002026   000020 631400 xsym               EPPR1   B_VECTNIL+16
         4 002027   000000 701000 xent               TSX1    DBM$PACK2
         4 002030   000000 011000                    NOP     0

      546    10664    2      CALL DBM$PACK2(EXCFR.ECC,ECC);

  10664  4 002031   200333 630500                    EPPR0   ECC,,AUTO
         4 002032   200377 450500                    STP0    I+2,,AUTO
         4 002033   200400 452500                    STP2    I+3,,AUTO
         4 002034   200400 236100                    LDQ     I+3,,AUTO
         4 002035   000113 036000 5                  ADLQ    75
         4 002036   200376 756100                    STQ     I+1,,AUTO
         4 002037   200376 630500                    EPPR0   I+1,,AUTO
         4 002040   000020 631400 xsym               EPPR1   B_VECTNIL+16
         4 002041   000000 701000 xent               TSX1    DBM$PACK2
         4 002042   000000 011000                    NOP     0

      547    10665
      548    10666    2      IF ECC >= 98

  10666  4 002043   200333 235100                    LDA     ECC,,AUTO
         4 002044   000142 115007                    CMPA    98,DL
         4 002045   002051 602000 4                  TNC     s:10668

      549    10667    2      THEN TEMP = ECC-93;/*N* Use G_LCP_E and a macro to gen the names */

  10667  4 002046   000135 135007                    SBLA    93,DL
         4 002047   200366 755100                    STA     TEMP,,AUTO
         4 002050   002052 710000 4                  TRA     s:10670

PL6.E3A0      #001=DBD$USER File=DBD$USER.:E05TSI                                TUE 07/29/97 13:10 Page:82
      550    10668    2      ELSE TEMP=ECC;

  10668  4 002051   200366 755100                    STA     TEMP,,AUTO

      551    10669
      552    10670    2      CALL DAF$WRITE(VECTOR(TCBFMT2), VECTOR(TYP_FRAME_TXT(TEMP)),

  10670  4 002052   000116 235000 5                  LDA     78
         4 002053   200366 236100                    LDQ     TEMP,,AUTO
         4 002054   200376 755100                    STA     I+1,,AUTO
         4 002055   000120 402000 5                  MPY     80
         4 002056   000117 036000 5                  ADLQ    79
         4 002057   200376 235100                    LDA     I+1,,AUTO
         4 002060   200400 757100                    STAQ    I+3,,AUTO
         4 002061   777640 235007                    LDA     -96,DL
         4 002062   200402 452500                    STP2    I+5,,AUTO
         4 002063   200402 236100                    LDQ     I+5,,AUTO
         4 002064   000251 036003                    ADLQ    169,DU
         4 002065   200404 757100                    STAQ    I+7,,AUTO
         4 002066   777640 235007                    LDA     -96,DL
         4 002067   200406 452500                    STP2    I+9,,AUTO
         4 002070   200406 236100                    LDQ     I+9,,AUTO
         4 002071   000333 036003                    ADLQ    219,DU
         4 002072   200410 757100                    STAQ    I+11,,AUTO
         4 002073   777640 235007                    LDA     -96,DL
         4 002074   200412 452500                    STP2    I+13,,AUTO
         4 002075   200412 236100                    LDQ     I+13,,AUTO
         4 002076   000332 036003                    ADLQ    218,DU
         4 002077   200416 757100                    STAQ    I+17,,AUTO
         4 002100   200400 237100                    LDAQ    I+3,,AUTO
         4 002101   200414 757100                    STAQ    I+15,,AUTO
         4 002102   200404 237100                    LDAQ    I+7,,AUTO
         4 002103   200420 757100                    STAQ    I+19,,AUTO
         4 002104   200410 237100                    LDAQ    I+11,,AUTO
         4 002105   200422 757100                    STAQ    I+21,,AUTO
         4 002106   200416 237100                    LDAQ    I+17,,AUTO
         4 002107   200424 757100                    STAQ    I+23,,AUTO
PL6.E3A0      #001=DBD$USER File=DBD$USER.:E05TSI                                TUE 07/29/97 13:10 Page:83
         4 002110   200424 630500                    EPPR0   I+23,,AUTO
         4 002111   200432 450500                    STP0    I+29,,AUTO
         4 002112   200422 631500                    EPPR1   I+21,,AUTO
         4 002113   200431 451500                    STP1    I+28,,AUTO
         4 002114   200420 633500                    EPPR3   I+19,,AUTO
         4 002115   200430 453500                    STP3    I+27,,AUTO
         4 002116   200414 634500                    EPPR4   I+15,,AUTO
         4 002117   200427 454500                    STP4    I+26,,AUTO
         4 002120   000121 236000 5                  LDQ     81
         4 002121   200426 756100                    STQ     I+25,,AUTO
         4 002122   200426 630500                    EPPR0   I+25,,AUTO
         4 002123   000000 220000 xsym               LDX0    DAF$WRITE
         4 002124   000023 631400 xsym               EPPR1   B_VECTNIL+19
         4 002125   000000 701010                    TSX1    0,X0
         4 002126   000000 011000                    NOP     0

      553    10671    2        VECTOR(EXCFR$), VECTOR(ECC), VECTOR(PREVSZ) );
      554    10672    2      CALL DAF$WRITE(VECTOR(BLANK_LINE));

  10672  4 002127   000006 630400 5                  EPPR0   6
         4 002130   000000 220000 xsym               LDX0    DAF$WRITE
         4 002131   000017 631400 xsym               EPPR1   B_VECTNIL+15
         4 002132   000000 701010                    TSX1    0,X0
         4 002133   000000 011000                    NOP     0

      555    10673
      556    10674    2      CALL DBM$PACKB(EXCFR.ISM1,ISM);

  10674  4 002134   200360 630500                    EPPR0   ISM,,AUTO
         4 002135   200377 450500                    STP0    I+2,,AUTO
         4 002136   200253 631500                    EPPR1   EXCFR+1,,AUTO
         4 002137   200376 451500                    STP1    I+1,,AUTO
         4 002140   200376 630500                    EPPR0   I+1,,AUTO
         4 002141   000020 631400 xsym               EPPR1   B_VECTNIL+16
         4 002142   000000 701000 xent               TSX1    DBM$PACKB
         4 002143   000000 011000                    NOP     0

PL6.E3A0      #001=DBD$USER File=DBD$USER.:E05TSI                                TUE 07/29/97 13:10 Page:84
      557    10675    2      CALL DBM$PACK2(EXCFR.ISM1,TEMP);

  10675  4 002144   200366 630500                    EPPR0   TEMP,,AUTO
         4 002145   200377 450500                    STP0    I+2,,AUTO
         4 002146   200253 631500                    EPPR1   EXCFR+1,,AUTO
         4 002147   200376 451500                    STP1    I+1,,AUTO
         4 002150   200376 630500                    EPPR0   I+1,,AUTO
         4 002151   000020 631400 xsym               EPPR1   B_VECTNIL+16
         4 002152   000000 701000 xent               TSX1    DBM$PACK2
         4 002153   000000 011000                    NOP     0

      558    10676    2      ISM1=BITBIN(TEMPB & '000000177777'O);

  10676  4 002154   200366 236100                    LDQ     TEMP,,AUTO
         4 002155   000462 376000 3                  ANQ     TCBFMT9+21
         4 002156   200334 756100                    STQ     ISM1,,AUTO

      559    10677
      560    10678    2      CALL DBM$PACK2(EXCFR.ISM2,TEMP);

  10678  4 002157   200366 630500                    EPPR0   TEMP,,AUTO
         4 002160   200377 450500                    STP0    I+2,,AUTO
         4 002161   200400 452500                    STP2    I+3,,AUTO
         4 002162   200400 236100                    LDQ     I+3,,AUTO
         4 002163   000122 036000 5                  ADLQ    82
         4 002164   200376 756100                    STQ     I+1,,AUTO
         4 002165   200376 630500                    EPPR0   I+1,,AUTO
         4 002166   000020 631400 xsym               EPPR1   B_VECTNIL+16
         4 002167   000000 701000 xent               TSX1    DBM$PACK2
         4 002170   000000 011000                    NOP     0

      561    10679    2      ISM2=BITBIN(TEMPB & '000000177777'O);

  10679  4 002171   200366 236100                    LDQ     TEMP,,AUTO
         4 002172   000462 376000 3                  ANQ     TCBFMT9+21
         4 002173   200335 756100                    STQ     ISM2,,AUTO

PL6.E3A0      #001=DBD$USER File=DBD$USER.:E05TSI                                TUE 07/29/97 13:10 Page:85
      562    10680
      563    10681    2      CALL DBM$PACK4(EXCFR.P$,PREG);

  10681  4 002174   200336 630500                    EPPR0   PREG,,AUTO
         4 002175   200377 450500                    STP0    I+2,,AUTO
         4 002176   200254 631500                    EPPR1   EXCFR+2,,AUTO
         4 002177   200376 451500                    STP1    I+1,,AUTO
         4 002200   200376 630500                    EPPR0   I+1,,AUTO
         4 002201   000020 631400 xsym               EPPR1   B_VECTNIL+16
         4 002202   000000 701000 xent               TSX1    DBM$PACK4
         4 002203   000000 011000                    NOP     0

      564    10682
      565    10683    2      CALL DBM$PACK2(EXCFR.S,TEMP);

  10683  4 002204   200366 630500                    EPPR0   TEMP,,AUTO
         4 002205   200377 450500                    STP0    I+2,,AUTO
         4 002206   200255 631500                    EPPR1   EXCFR+3,,AUTO
         4 002207   200376 451500                    STP1    I+1,,AUTO
         4 002210   200376 630500                    EPPR0   I+1,,AUTO
         4 002211   000020 631400 xsym               EPPR1   B_VECTNIL+16
         4 002212   000000 701000 xent               TSX1    DBM$PACK2
         4 002213   000000 011000                    NOP     0

      566    10684    2      SREG=BITBIN(TEMPB & '000000177777'O);

  10684  4 002214   200366 236100                    LDQ     TEMP,,AUTO
         4 002215   000462 376000 3                  ANQ     TCBFMT9+21
         4 002216   200337 756100                    STQ     SREG,,AUTO

      567    10685
      568    10686
      569    10687    2      CALL DAF$WRITE(VECTOR(F_INFO1),

  10687  4 002217   777640 235007                    LDA     -96,DL
         4 002220   200376 452500                    STP2    I+1,,AUTO
         4 002221   200376 236100                    LDQ     I+1,,AUTO
PL6.E3A0      #001=DBD$USER File=DBD$USER.:E05TSI                                TUE 07/29/97 13:10 Page:86
         4 002222   000336 036003                    ADLQ    222,DU
         4 002223   200400 757100                    STAQ    I+3,,AUTO
         4 002224   777640 235007                    LDA     -96,DL
         4 002225   200402 452500                    STP2    I+5,,AUTO
         4 002226   200402 236100                    LDQ     I+5,,AUTO
         4 002227   000337 036003                    ADLQ    223,DU
         4 002230   200404 757100                    STAQ    I+7,,AUTO
         4 002231   777640 235007                    LDA     -96,DL
         4 002232   200406 452500                    STP2    I+9,,AUTO
         4 002233   200406 236100                    LDQ     I+9,,AUTO
         4 002234   000334 036003                    ADLQ    220,DU
         4 002235   200410 757100                    STAQ    I+11,,AUTO
         4 002236   777640 235007                    LDA     -96,DL
         4 002237   200412 452500                    STP2    I+13,,AUTO
         4 002240   200412 236100                    LDQ     I+13,,AUTO
         4 002241   000335 036003                    ADLQ    221,DU
         4 002242   200416 757100                    STAQ    I+17,,AUTO
         4 002243   200400 237100                    LDAQ    I+3,,AUTO
         4 002244   200414 757100                    STAQ    I+15,,AUTO
         4 002245   200404 237100                    LDAQ    I+7,,AUTO
         4 002246   200420 757100                    STAQ    I+19,,AUTO
         4 002247   200410 237100                    LDAQ    I+11,,AUTO
         4 002250   200422 757100                    STAQ    I+21,,AUTO
         4 002251   200416 237100                    LDAQ    I+17,,AUTO
         4 002252   200424 757100                    STAQ    I+23,,AUTO
         4 002253   200424 630500                    EPPR0   I+23,,AUTO
         4 002254   200432 450500                    STP0    I+29,,AUTO
         4 002255   200422 631500                    EPPR1   I+21,,AUTO
         4 002256   200431 451500                    STP1    I+28,,AUTO
         4 002257   200420 633500                    EPPR3   I+19,,AUTO
         4 002260   200430 453500                    STP3    I+27,,AUTO
         4 002261   200414 634500                    EPPR4   I+15,,AUTO
         4 002262   200427 454500                    STP4    I+26,,AUTO
         4 002263   000123 236000 5                  LDQ     83
         4 002264   200426 756100                    STQ     I+25,,AUTO
         4 002265   200426 630500                    EPPR0   I+25,,AUTO
         4 002266   000000 220000 xsym               LDX0    DAF$WRITE
PL6.E3A0      #001=DBD$USER File=DBD$USER.:E05TSI                                TUE 07/29/97 13:10 Page:87
         4 002267   000023 631400 xsym               EPPR1   B_VECTNIL+19
         4 002270   000000 701010                    TSX1    0,X0
         4 002271   000000 011000                    NOP     0

      570    10688    2        VECTOR(PREG),
      571    10689    2        VECTOR(SREG),
      572    10690    2        VECTOR(ISM1),
      573    10691    2        VECTOR(ISM2) );
      574    10692
      575    10693    2      CALL DBA$WRITEIC(VECTOR(ICTEXT),PREG);

  10693  4 002272   200336 630500                    EPPR0   PREG,,AUTO
         4 002273   200377 450500                    STP0    I+2,,AUTO
         4 002274   000130 236000 5                  LDQ     88
         4 002275   200376 756100                    STQ     I+1,,AUTO
         4 002276   200376 630500                    EPPR0   I+1,,AUTO
         4 002277   000020 631400 xsym               EPPR1   B_VECTNIL+16
         4 002300   000000 701000 xent               TSX1    DBA$WRITEIC
         4 002301   000000 011000                    NOP     0

      576    10694
      577    10695    2      CALL DAF$WRITE(VECTOR(F_REG1));

  10695  4 002302   000134 630400 5                  EPPR0   92
         4 002303   000000 220000 xsym               LDX0    DAF$WRITE
         4 002304   000017 631400 xsym               EPPR1   B_VECTNIL+15
         4 002305   000000 701010                    TSX1    0,X0
         4 002306   000000 011000                    NOP     0

      578    10696    2      CALL DAF$WRITE(VECTOR(F_REG2));

  10696  4 002307   000140 630400 5                  EPPR0   96
         4 002310   000000 220000 xsym               LDX0    DAF$WRITE
         4 002311   000017 631400 xsym               EPPR1   B_VECTNIL+15
         4 002312   000000 701010                    TSX1    0,X0
         4 002313   000000 011000                    NOP     0

PL6.E3A0      #001=DBD$USER File=DBD$USER.:E05TSI                                TUE 07/29/97 13:10 Page:88
      579    10697
      580    10698    2      R$=ADDR(EXCFR.REGS);

  10698  4 002314   200376 452500                    STP2    I+1,,AUTO
         4 002315   200376 236100                    LDQ     I+1,,AUTO
         4 002316   000141 036000 5                  ADLQ    97
         4 002317   200367 756100                    STQ     R$,,AUTO

      581    10699    3      DO I=6 DOWNTO 0;

  10699  4 002320   000006 235007                    LDA     6,DL
         4 002321   200375 755100                    STA     I,,AUTO

      582    10700    3           CALL DBM$PACK4(R,REGS.CONTENTS(I));

  10700  4 002322   200375 720100                    LXL0    I,,AUTO
         4 002323   200340 630510                    EPPR0   REGS,X0,AUTO
         4 002324   200377 450500                    STP0    I+2,,AUTO
         4 002325   200367 236100                    LDQ     R$,,AUTO
         4 002326   200376 756100                    STQ     I+1,,AUTO
         4 002327   200376 630500                    EPPR0   I+1,,AUTO
         4 002330   000020 631400 xsym               EPPR1   B_VECTNIL+16
         4 002331   000000 701000 xent               TSX1    DBM$PACK4
         4 002332   000000 011000                    NOP     0

      583    10701    3           R$=PINCRC(R$,4);

  10701  4 002333   200367 236100                    LDQ     R$,,AUTO
         4 002334   000001 036003                    ADLQ    1,DU
         4 002335   200367 756100                    STQ     R$,,AUTO

      584    10702    3           END;

  10702  4 002336   000001 336007                    LCQ     1,DL
         4 002337   200375 056100                    ASQ     I,,AUTO
         4 002340   002322 605000 4                  TPL     s:10700

PL6.E3A0      #001=DBD$USER File=DBD$USER.:E05TSI                                TUE 07/29/97 13:10 Page:89
      585    10703    2      CALL DAF$WRITE(VECTOR(F_REG3),VECTOR(C_BREGS),VECTOR(REGS));

  10703  4 002341   000146 235000 5                  LDA     102
         4 002342   200376 452500                    STP2    I+1,,AUTO
         4 002343   200376 236100                    LDQ     I+1,,AUTO
         4 002344   000340 036003                    ADLQ    224,DU
         4 002345   200400 757100                    STAQ    I+3,,AUTO
         4 002346   200400 630500                    EPPR0   I+3,,AUTO
         4 002347   200404 450500                    STP0    I+7,,AUTO
         4 002350   000150 237000 5                  LDAQ    104
         4 002351   200402 757100                    STAQ    I+5,,AUTO
         4 002352   200402 630500                    EPPR0   I+5,,AUTO
         4 002353   000000 220000 xsym               LDX0    DAF$WRITE
         4 002354   000021 631400 xsym               EPPR1   B_VECTNIL+17
         4 002355   000000 701010                    TSX1    0,X0
         4 002356   000000 011000                    NOP     0

      586    10704
      587    10705    2      CALL DBM$PACK2(R,IREG);

  10705  4 002357   200347 630500                    EPPR0   IREG,,AUTO
         4 002360   200377 450500                    STP0    I+2,,AUTO
         4 002361   200367 236100                    LDQ     R$,,AUTO
         4 002362   200376 756100                    STQ     I+1,,AUTO
         4 002363   200376 630500                    EPPR0   I+1,,AUTO
         4 002364   000020 631400 xsym               EPPR1   B_VECTNIL+16
         4 002365   000000 701000 xent               TSX1    DBM$PACK2
         4 002366   000000 011000                    NOP     0

      588    10706    2      R$=PINCRC(R$,2);

  10706  4 002367   200367 236100                    LDQ     R$,,AUTO
         4 002370   400000 036007                    ADLQ    -131072,DL
         4 002371   200367 756100                    STQ     R$,,AUTO

      589    10707
      590    10708    3      DO I=6 DOWNTO 0;
PL6.E3A0      #001=DBD$USER File=DBD$USER.:E05TSI                                TUE 07/29/97 13:10 Page:90

  10708  4 002372   000006 235007                    LDA     6,DL
         4 002373   200375 755100                    STA     I,,AUTO

      591    10709    3           CALL DBM$PACK2(R,TEMP);

  10709  4 002374   200366 630500                    EPPR0   TEMP,,AUTO
         4 002375   200377 450500                    STP0    I+2,,AUTO
         4 002376   200367 236100                    LDQ     R$,,AUTO
         4 002377   200376 756100                    STQ     I+1,,AUTO
         4 002400   200376 630500                    EPPR0   I+1,,AUTO
         4 002401   000020 631400 xsym               EPPR1   B_VECTNIL+16
         4 002402   000000 701000 xent               TSX1    DBM$PACK2
         4 002403   000000 011000                    NOP     0

      592    10710    3           REGS.CONTENTS(I)=BITBIN(TEMPB & '000000177777'O);

  10710  4 002404   200366 236100                    LDQ     TEMP,,AUTO
         4 002405   000462 376000 3                  ANQ     TCBFMT9+21
         4 002406   200375 720100                    LXL0    I,,AUTO
         4 002407   200340 756110                    STQ     REGS,X0,AUTO

      593    10711    3           R$=PINCRC(R$,2);

  10711  4 002410   200367 236100                    LDQ     R$,,AUTO
         4 002411   400000 036007                    ADLQ    -131072,DL
         4 002412   200367 756100                    STQ     R$,,AUTO

      594    10712    3           END;

  10712  4 002413   000001 336007                    LCQ     1,DL
         4 002414   200375 056100                    ASQ     I,,AUTO
         4 002415   002374 605000 4                  TPL     s:10709

      595    10713    2      CALL DAF$WRITE(VECTOR(F_REG3),VECTOR(C_RREGS),VECTOR(REGS));

  10713  4 002416   000146 235000 5                  LDA     102
PL6.E3A0      #001=DBD$USER File=DBD$USER.:E05TSI                                TUE 07/29/97 13:10 Page:91
         4 002417   200376 452500                    STP2    I+1,,AUTO
         4 002420   200376 236100                    LDQ     I+1,,AUTO
         4 002421   000340 036003                    ADLQ    224,DU
         4 002422   200400 757100                    STAQ    I+3,,AUTO
         4 002423   200400 630500                    EPPR0   I+3,,AUTO
         4 002424   200404 450500                    STP0    I+7,,AUTO
         4 002425   000154 237000 5                  LDAQ    108
         4 002426   200402 757100                    STAQ    I+5,,AUTO
         4 002427   200402 630500                    EPPR0   I+5,,AUTO
         4 002430   000000 220000 xsym               LDX0    DAF$WRITE
         4 002431   000021 631400 xsym               EPPR1   B_VECTNIL+17
         4 002432   000000 701010                    TSX1    0,X0
         4 002433   000000 011000                    NOP     0

      596    10714
      597    10715    3      DO I=1 TO 6;

  10715  4 002434   000001 235007                    LDA     1,DL
         4 002435   200375 755100                    STA     I,,AUTO

      598    10716    3           CALL DBM$PACK2(R,TEMP);

  10716  4 002436   200366 630500                    EPPR0   TEMP,,AUTO
         4 002437   200377 450500                    STP0    I+2,,AUTO
         4 002440   200367 236100                    LDQ     R$,,AUTO
         4 002441   200376 756100                    STQ     I+1,,AUTO
         4 002442   200376 630500                    EPPR0   I+1,,AUTO
         4 002443   000020 631400 xsym               EPPR1   B_VECTNIL+16
         4 002444   000000 701000 xent               TSX1    DBM$PACK2
         4 002445   000000 011000                    NOP     0

      599    10717    3           REGS.CONTENTS(I)=BITBIN(TEMPB & '000000177777'O);

  10717  4 002446   200366 236100                    LDQ     TEMP,,AUTO
         4 002447   000462 376000 3                  ANQ     TCBFMT9+21
         4 002450   200375 720100                    LXL0    I,,AUTO
         4 002451   200340 756110                    STQ     REGS,X0,AUTO
PL6.E3A0      #001=DBD$USER File=DBD$USER.:E05TSI                                TUE 07/29/97 13:10 Page:92

      600    10718    3           R$=PINCRC(R$,2);

  10718  4 002452   200367 236100                    LDQ     R$,,AUTO
         4 002453   400000 036007                    ADLQ    -131072,DL
         4 002454   200367 756100                    STQ     R$,,AUTO

      601    10719    3           END;

  10719  4 002455   200375 054100                    AOS     I,,AUTO
         4 002456   200375 235100                    LDA     I,,AUTO
         4 002457   000006 115007                    CMPA    6,DL
         4 002460   002436 604400 4                  TMOZ    s:10716

      602    10720    2      CALL DAF$WRITE(VECTOR(F_REG3),VECTOR(C_MREGS),VECTOR(REGS));

  10720  4 002461   000146 235000 5                  LDA     102
         4 002462   200376 452500                    STP2    I+1,,AUTO
         4 002463   200376 236100                    LDQ     I+1,,AUTO
         4 002464   000340 036003                    ADLQ    224,DU
         4 002465   200400 757100                    STAQ    I+3,,AUTO
         4 002466   200400 630500                    EPPR0   I+3,,AUTO
         4 002467   200404 450500                    STP0    I+7,,AUTO
         4 002470   000160 237000 5                  LDAQ    112
         4 002471   200402 757100                    STAQ    I+5,,AUTO
         4 002472   200402 630500                    EPPR0   I+5,,AUTO
         4 002473   000000 220000 xsym               LDX0    DAF$WRITE
         4 002474   000021 631400 xsym               EPPR1   B_VECTNIL+17
         4 002475   000000 701010                    TSX1    0,X0
         4 002476   000000 011000                    NOP     0

      603    10721
      604    10722    2      CALL DBM$PACK4(R,TREG);

  10722  4 002477   200350 630500                    EPPR0   TREG,,AUTO
         4 002500   200377 450500                    STP0    I+2,,AUTO
         4 002501   200367 236100                    LDQ     R$,,AUTO
PL6.E3A0      #001=DBD$USER File=DBD$USER.:E05TSI                                TUE 07/29/97 13:10 Page:93
         4 002502   200376 756100                    STQ     I+1,,AUTO
         4 002503   200376 630500                    EPPR0   I+1,,AUTO
         4 002504   000020 631400 xsym               EPPR1   B_VECTNIL+16
         4 002505   000000 701000 xent               TSX1    DBM$PACK4
         4 002506   000000 011000                    NOP     0

      605    10723    2      R$=PINCRC(R$,4);

  10723  4 002507   200367 236100                    LDQ     R$,,AUTO
         4 002510   000001 036003                    ADLQ    1,DU
         4 002511   200367 756100                    STQ     R$,,AUTO

      606    10724
      607    10725
      608    10726    2      CALL DBM$PACK2(R,CIREG);

  10726  4 002512   200351 630500                    EPPR0   CIREG,,AUTO
         4 002513   200377 450500                    STP0    I+2,,AUTO
         4 002514   200376 756100                    STQ     I+1,,AUTO
         4 002515   200376 630500                    EPPR0   I+1,,AUTO
         4 002516   000020 631400 xsym               EPPR1   B_VECTNIL+16
         4 002517   000000 701000 xent               TSX1    DBM$PACK2
         4 002520   000000 011000                    NOP     0

      609    10727    2      R$=PINCRC(R$,2);

  10727  4 002521   200367 236100                    LDQ     R$,,AUTO
         4 002522   400000 036007                    ADLQ    -131072,DL
         4 002523   200367 756100                    STQ     R$,,AUTO

      610    10728
      611    10729    2      CALL DBM$PACK4(R,RDBR);

  10729  4 002524   200352 630500                    EPPR0   RDBR,,AUTO
         4 002525   200377 450500                    STP0    I+2,,AUTO
         4 002526   200376 756100                    STQ     I+1,,AUTO
         4 002527   200376 630500                    EPPR0   I+1,,AUTO
PL6.E3A0      #001=DBD$USER File=DBD$USER.:E05TSI                                TUE 07/29/97 13:10 Page:94
         4 002530   000020 631400 xsym               EPPR1   B_VECTNIL+16
         4 002531   000000 701000 xent               TSX1    DBM$PACK4
         4 002532   000000 011000                    NOP     0

      612    10730    2      R$=PINCRC(R$,4);

  10730  4 002533   200367 236100                    LDQ     R$,,AUTO
         4 002534   000001 036003                    ADLQ    1,DU
         4 002535   200367 756100                    STQ     R$,,AUTO

      613    10731
      614    10732    2      CALL DAF$WRITE(VECTOR(F_INFO2),

  10732  4 002536   777640 235007                    LDA     -96,DL
         4 002537   200376 452500                    STP2    I+1,,AUTO
         4 002540   200376 236100                    LDQ     I+1,,AUTO
         4 002541   000347 036003                    ADLQ    231,DU
         4 002542   200400 757100                    STAQ    I+3,,AUTO
         4 002543   777640 235007                    LDA     -96,DL
         4 002544   200402 452500                    STP2    I+5,,AUTO
         4 002545   200402 236100                    LDQ     I+5,,AUTO
         4 002546   000350 036003                    ADLQ    232,DU
         4 002547   200404 757100                    STAQ    I+7,,AUTO
         4 002550   777640 235007                    LDA     -96,DL
         4 002551   200406 452500                    STP2    I+9,,AUTO
         4 002552   200406 236100                    LDQ     I+9,,AUTO
         4 002553   000351 036003                    ADLQ    233,DU
         4 002554   200410 757100                    STAQ    I+11,,AUTO
         4 002555   777640 235007                    LDA     -96,DL
         4 002556   200412 452500                    STP2    I+13,,AUTO
         4 002557   200412 236100                    LDQ     I+13,,AUTO
         4 002560   000352 036003                    ADLQ    234,DU
         4 002561   200416 757100                    STAQ    I+17,,AUTO
         4 002562   200400 237100                    LDAQ    I+3,,AUTO
         4 002563   200414 757100                    STAQ    I+15,,AUTO
         4 002564   200404 237100                    LDAQ    I+7,,AUTO
         4 002565   200420 757100                    STAQ    I+19,,AUTO
PL6.E3A0      #001=DBD$USER File=DBD$USER.:E05TSI                                TUE 07/29/97 13:10 Page:95
         4 002566   200410 237100                    LDAQ    I+11,,AUTO
         4 002567   200422 757100                    STAQ    I+21,,AUTO
         4 002570   200416 237100                    LDAQ    I+17,,AUTO
         4 002571   200424 757100                    STAQ    I+23,,AUTO
         4 002572   200424 630500                    EPPR0   I+23,,AUTO
         4 002573   200432 450500                    STP0    I+29,,AUTO
         4 002574   200422 631500                    EPPR1   I+21,,AUTO
         4 002575   200431 451500                    STP1    I+28,,AUTO
         4 002576   200420 633500                    EPPR3   I+19,,AUTO
         4 002577   200430 453500                    STP3    I+27,,AUTO
         4 002600   200414 634500                    EPPR4   I+15,,AUTO
         4 002601   200427 454500                    STP4    I+26,,AUTO
         4 002602   000147 236000 5                  LDQ     103
         4 002603   200426 756100                    STQ     I+25,,AUTO
         4 002604   200426 630500                    EPPR0   I+25,,AUTO
         4 002605   000000 220000 xsym               LDX0    DAF$WRITE
         4 002606   000023 631400 xsym               EPPR1   B_VECTNIL+19
         4 002607   000000 701010                    TSX1    0,X0
         4 002610   000000 011000                    NOP     0

      615    10733    2        VECTOR(IREG), VECTOR(TREG), VECTOR(CIREG), VECTOR(RDBR) );
      616    10734
      617    10735    2      CALL DBM$PACK2(EXCFR.SUBC,SUBC);

  10735  4 002611   200353 630500                    EPPR0   SUBC,,AUTO
         4 002612   200377 450500                    STP0    I+2,,AUTO
         4 002613   200400 452500                    STP2    I+3,,AUTO
         4 002614   200400 236100                    LDQ     I+3,,AUTO
         4 002615   000164 036000 5                  ADLQ    116
         4 002616   200376 756100                    STQ     I+1,,AUTO
         4 002617   200376 630500                    EPPR0   I+1,,AUTO
         4 002620   000020 631400 xsym               EPPR1   B_VECTNIL+16
         4 002621   000000 701000 xent               TSX1    DBM$PACK2
         4 002622   000000 011000                    NOP     0

      618    10736    2      CALL DBM$PACK2(EXCFR.EVID,EVID);

PL6.E3A0      #001=DBD$USER File=DBD$USER.:E05TSI                                TUE 07/29/97 13:10 Page:96
  10736  4 002623   200354 630500                    EPPR0   EVID,,AUTO
         4 002624   200377 450500                    STP0    I+2,,AUTO
         4 002625   200277 631500                    EPPR1   EXCFR+21,,AUTO
         4 002626   200376 451500                    STP1    I+1,,AUTO
         4 002627   200376 630500                    EPPR0   I+1,,AUTO
         4 002630   000020 631400 xsym               EPPR1   B_VECTNIL+16
         4 002631   000000 701000 xent               TSX1    DBM$PACK2
         4 002632   000000 011000                    NOP     0

      619    10737    2      CALL DBM$PACK4(EXCFR.ERR,ERR);

  10737  4 002633   200355 630500                    EPPR0   ERR,,AUTO
         4 002634   200377 450500                    STP0    I+2,,AUTO
         4 002635   200400 452500                    STP2    I+3,,AUTO
         4 002636   200400 236100                    LDQ     I+3,,AUTO
         4 002637   000165 036000 5                  ADLQ    117
         4 002640   200376 756100                    STQ     I+1,,AUTO
         4 002641   200376 630500                    EPPR0   I+1,,AUTO
         4 002642   000020 631400 xsym               EPPR1   B_VECTNIL+16
         4 002643   000000 701000 xent               TSX1    DBM$PACK4
         4 002644   000000 011000                    NOP     0

      620    10738    2      CALL DBM$PACK2(EXCFR.P#,P#);

  10738  4 002645   200356 630500                    EPPR0   P#,,AUTO
         4 002646   200377 450500                    STP0    I+2,,AUTO
         4 002647   200400 452500                    STP2    I+3,,AUTO
         4 002650   200400 236100                    LDQ     I+3,,AUTO
         4 002651   000166 036000 5                  ADLQ    118
         4 002652   200376 756100                    STQ     I+1,,AUTO
         4 002653   200376 630500                    EPPR0   I+1,,AUTO
         4 002654   000020 631400 xsym               EPPR1   B_VECTNIL+16
         4 002655   000000 701000 xent               TSX1    DBM$PACK2
         4 002656   000000 011000                    NOP     0

      621    10739
      622    10740    2      CALL DAF$WRITE(VECTOR(TCBFMT9),
PL6.E3A0      #001=DBD$USER File=DBD$USER.:E05TSI                                TUE 07/29/97 13:10 Page:97

  10740  4 002657   777640 235007                    LDA     -96,DL
         4 002660   200376 452500                    STP2    I+1,,AUTO
         4 002661   200376 236100                    LDQ     I+1,,AUTO
         4 002662   000353 036003                    ADLQ    235,DU
         4 002663   200400 757100                    STAQ    I+3,,AUTO
         4 002664   777640 235007                    LDA     -96,DL
         4 002665   200402 452500                    STP2    I+5,,AUTO
         4 002666   200402 236100                    LDQ     I+5,,AUTO
         4 002667   000354 036003                    ADLQ    236,DU
         4 002670   200404 757100                    STAQ    I+7,,AUTO
         4 002671   777640 235007                    LDA     -96,DL
         4 002672   200406 452500                    STP2    I+9,,AUTO
         4 002673   200406 236100                    LDQ     I+9,,AUTO
         4 002674   000355 036003                    ADLQ    237,DU
         4 002675   200410 757100                    STAQ    I+11,,AUTO
         4 002676   777640 235007                    LDA     -96,DL
         4 002677   200412 452500                    STP2    I+13,,AUTO
         4 002700   200412 236100                    LDQ     I+13,,AUTO
         4 002701   000356 036003                    ADLQ    238,DU
         4 002702   200416 757100                    STAQ    I+17,,AUTO
         4 002703   200400 237100                    LDAQ    I+3,,AUTO
         4 002704   200414 757100                    STAQ    I+15,,AUTO
         4 002705   200404 237100                    LDAQ    I+7,,AUTO
         4 002706   200420 757100                    STAQ    I+19,,AUTO
         4 002707   200410 237100                    LDAQ    I+11,,AUTO
         4 002710   200422 757100                    STAQ    I+21,,AUTO
         4 002711   200416 237100                    LDAQ    I+17,,AUTO
         4 002712   200424 757100                    STAQ    I+23,,AUTO
         4 002713   200424 630500                    EPPR0   I+23,,AUTO
         4 002714   200432 450500                    STP0    I+29,,AUTO
         4 002715   200422 631500                    EPPR1   I+21,,AUTO
         4 002716   200431 451500                    STP1    I+28,,AUTO
         4 002717   200420 633500                    EPPR3   I+19,,AUTO
         4 002720   200430 453500                    STP3    I+27,,AUTO
         4 002721   200414 634500                    EPPR4   I+15,,AUTO
         4 002722   200427 454500                    STP4    I+26,,AUTO
PL6.E3A0      #001=DBD$USER File=DBD$USER.:E05TSI                                TUE 07/29/97 13:10 Page:98
         4 002723   000167 236000 5                  LDQ     119
         4 002724   200426 756100                    STQ     I+25,,AUTO
         4 002725   200426 630500                    EPPR0   I+25,,AUTO
         4 002726   000000 220000 xsym               LDX0    DAF$WRITE
         4 002727   000023 631400 xsym               EPPR1   B_VECTNIL+19
         4 002730   000000 701010                    TSX1    0,X0
         4 002731   000000 011000                    NOP     0

      623    10741    2        VECTOR(SUBC), VECTOR(EVID), VECTOR(ERR), VECTOR(P#) );
      624    10742    2      CALL DAF$WRITE(VECTOR(BLANK_LINE));

  10742  4 002732   000006 630400 5                  EPPR0   6
         4 002733   000000 220000 xsym               LDX0    DAF$WRITE
         4 002734   000017 631400 xsym               EPPR1   B_VECTNIL+15
         4 002735   000000 701010                    TSX1    0,X0
         4 002736   000000 011000                    NOP     0

      625    10743
      626    10744    2      L6_ERR = EXCFR.ERR;

  10744  4 002737   200277 235100                    LDA     EXCFR+21,,AUTO
         4 002740   200300 236100                    LDQ     EXCFR+22,,AUTO
         4 002741   000022 773000                    LRL     18
         4 002742   000027 376000 xsym               ANQ     B_VECTNIL+23
         4 002743   200357 756100                    STQ     L6_ERR,,AUTO

      627    10745    2      FPT_ERRMSG.CODE_ = VECTOR(L6_ERR);

  10745  4 002744   777640 235007                    LDA     -96,DL
         4 002745   200376 452500                    STP2    I+1,,AUTO
         4 002746   200376 236100                    LDQ     I+1,,AUTO
         4 002747   000357 036003                    ADLQ    239,DU
         4 002750   000002 757000 1                  STAQ    FPT_ERRMSG+2

      628    10746    2      FPT_ERRMSG.BUF_ = VECTOR(ERRBUF);

  10746  4 002751   000172 235000 5                  LDA     122
PL6.E3A0      #001=DBD$USER File=DBD$USER.:E05TSI                                TUE 07/29/97 13:10 Page:99
         4 002752   200376 452500                    STP2    I+1,,AUTO
         4 002753   200376 236100                    LDQ     I+1,,AUTO
         4 002754   000004 036003                    ADLQ    4,DU
         4 002755   000004 757000 1                  STAQ    FPT_ERRMSG+4

      629    10747    2      CALL M$ERRMSG(FPT_ERRMSG);

  10747  4 002756   000000 630400 1                  EPPR0   FPT_ERRMSG
         4 002757   020000 713400                    CLIMB   8192
         4 002760   405000 401760                    pmme    nvectors=11

      630    10748
      631    10749    2      IF P# ~= 0

  10749  4 002761   200356 235100                    LDA     P#,,AUTO
         4 002762   003045 600000 4                  TZE     s:10759

      632    10750    3      THEN DO;

      633    10751    3           IF P# > 48 THEN P# = 48;

  10751  4 002763   000061 115007                    CMPA    49,DL
         4 002764   002767 602000 4                  TNC     s:10752

  10751  4 002765   000060 236007                    LDQ     48,DL
         4 002766   200356 756100                    STQ     P#,,AUTO

      634    10752    3           R = EXCFR$ + SIZEW(EXCFR);

  10752  4 002767   200251 236100                    LDQ     EXCFR$,,AUTO
         4 002770   000027 036007                    ADLQ    23,DL
         4 002771   200376 756100                    STQ     I+1,,AUTO
         4 002772   200367 470500                    LDP0    R$,,AUTO
         4 002773   000100 100500                    MLR     fill='000'O
         4 002774   200376 000004                    ADSC9   I+1,,AUTO                cn=0,n=4
         4 002775   000000 000004                    ADSC9   0,,PR0                   cn=0,n=4

PL6.E3A0      #001=DBD$USER File=DBD$USER.:E05TSI                                TUE 07/29/97 13:10 Page:100
      635    10753    3           CALL DBM$GETMEM(R,P##,UN,P# *2,,P# *2)

  10753  4 002776   200356 235100                    LDA     P#,,AUTO
         4 002777   000001 735000                    ALS     1
         4 003000   200376 755100                    STA     I+1,,AUTO
         4 003001   200377 755100                    STA     I+2,,AUTO
         4 003002   200377 631500                    EPPR1   I+2,,AUTO
         4 003003   200405 451500                    STP1    I+8,,AUTO
         4 003004   000001 236000 xsym               LDQ     B_VECTNIL+1
         4 003005   200404 756100                    STQ     I+7,,AUTO
         4 003006   200376 633500                    EPPR3   I+1,,AUTO
         4 003007   200403 453500                    STP3    I+6,,AUTO
         4 003010   200362 634500                    EPPR4   UN,,AUTO
         4 003011   200402 454500                    STP4    I+5,,AUTO
         4 003012   200301 635500                    EPPR5   P##,,AUTO
         4 003013   200401 455500                    STP5    I+4,,AUTO
         4 003014   200367 236100                    LDQ     R$,,AUTO
         4 003015   200400 756100                    STQ     I+3,,AUTO
         4 003016   200400 630500                    EPPR0   I+3,,AUTO
         4 003017   000024 631400 xsym               EPPR1   B_VECTNIL+20
         4 003020   000000 701000 xent               TSX1    DBM$GETMEM
         4 003021   003023 702000 4                  TSX2    s:10754
         4 003022   003025 710000 4                  TRA     s:10756

      636    10754    4           WHENALTRETURN DO; RETURN; END;

  10754  4 003023   200374 221300                    LDX1  ! R$+5,,AUTO
         4 003024   000001 702211                    TSX2  ! 1,X1

      637    10755
      638    10756    3           CALL DAF$WRITE(VECTOR(BLANK_LINE));

  10756  4 003025   000006 630400 5                  EPPR0   6
         4 003026   000000 220000 xsym               LDX0    DAF$WRITE
         4 003027   000017 631400 xsym               EPPR1   B_VECTNIL+15
         4 003030   000000 701010                    TSX1    0,X0
         4 003031   000000 011000                    NOP     0
PL6.E3A0      #001=DBD$USER File=DBD$USER.:E05TSI                                TUE 07/29/97 13:10 Page:101

      639    10757    3           CALL DBB$HEXDUMP(P##,P#,R,DA_PRINTABLE_TBL);

  10757  4 003032   000000 236000 xsym               LDQ     B$XL_ASC_DUMP$
         4 003033   200367 235100                    LDA     R$,,AUTO
         4 003034   200400 757100                    STAQ    I+3,,AUTO
         4 003035   200356 630500                    EPPR0   P#,,AUTO
         4 003036   200377 450500                    STP0    I+2,,AUTO
         4 003037   200301 631500                    EPPR1   P##,,AUTO
         4 003040   200376 451500                    STP1    I+1,,AUTO
         4 003041   200376 630500                    EPPR0   I+1,,AUTO
         4 003042   000022 631400 xsym               EPPR1   B_VECTNIL+18
         4 003043   000000 701000 xent               TSX1    DBB$HEXDUMP
         4 003044   000000 011000                    NOP     0

      640    10758    3           END;

      641    10759    2      CALL DAF$WRITE(VECTOR(BLANK_LINE));

  10759  4 003045   000006 630400 5                  EPPR0   6
         4 003046   000000 220000 xsym               LDX0    DAF$WRITE
         4 003047   000017 631400 xsym               EPPR1   B_VECTNIL+15
         4 003050   000000 701010                    TSX1    0,X0
         4 003051   000000 011000                    NOP     0

      642    10760    2      RETURN;

  10760  4 003052   200374 221300                    LDX1  ! R$+5,,AUTO
         4 003053   000001 702211                    TSX2  ! 1,X1
      643    10761    2   END DISP_FRAME;
      644    10762
      645    10763
      646    10764    1   END DBD$USER;
      647    10765        %EOD;

PL6.E3A0      #001=DBD$USER File=DBD$USER.:E05TSI                                TUE 07/29/97 13:10 Page:102
--  Include file information  --

   B$TABLES_C.:E05TOU  cannot be made into a system file and is referenced.
   XU_MACRO_C.:E05TOU  is referenced.
   DA_FORMAT_C.:E05TOU  is referenced.
   GM_VIRTUAL_E.:E05TOU  is referenced.
   G_LCP6_E.:E05TOU  is referenced.
   G_JIT_M.:E05TOU  is referenced.
   CP_6_C.:E05TOU  is referenced.
   CP_6.:E05TOU  cannot be made into a system file and is referenced.
      No diagnostics issued in procedure DBD$USER.
PL6.E3A0      #001=DBD$USER File=DBD$USER.:E05TSI                                TUE 07/29/97 13:10 Page:103

 **** Variables and constants ****

  ****  Section 001  Data  DBD$USER

  ****  Scalars and arrays  ****
OctLoc.c.b A Datatyp(siz) R M Lvl/name                 OctLoc.c.b A Datatyp(siz) R M Lvl/name

    51-0-0/w STRC(288)   r     1 DCBRPT                    61-0-0/c STRC(261)   r     1 DCBRPTTX00
    71-0-0/w STRC(288)   r     1 ECCBRPT                  101-0-0/c STRC(351)   r     1 ECCBRPTTX00
     0-0-0/d STRC(936)   r     1 FPT_ERRMSG                32-0-0/w STRC(288)   r     1 ROSRPT
    42-0-0/c STRC(252)   r     1 ROSRPTTX00               113-0-0/w STRC(288)   r     1 TCBRPT
   123-0-0/c STRC(261)   r     1 TCBRPTTX00

  ****  Section 003 RoData DBD$USER

  ****  Scalars and arrays  ****
OctLoc.c.b A Datatyp(siz) R M Lvl/name                 OctLoc.c.b A Datatyp(siz) R M Lvl/name

   245-0-0/c CHAR        r     1 BLANK_LINE               415-0-0/c CHAR        r     1 C_BREGS
   417-0-0/c CHAR        r     1 C_MREGS                  416-0-0/c CHAR        r     1 C_RREGS
    64-0-0/c CHAR(20)    r     1 DCBFMT10                  71-0-0/c CHAR(69)    r     1 DCBFMT11
   113-0-0/c CHAR(75)    r     1 DCBFMT12                 136-0-0/c CHAR(67)    r     1 DCBFMT20
   157-0-0/c CHAR(20)    r     1 DCBFMT30                 172-0-0/c CHAR(21)    r     1 ECCBFMT1
   200-0-0/c CHAR(88)    r     1 ECCBFMT2                 226-0-0/c CHAR(57)    r     1 ECCBFMT3
   327-0-0/c CHAR(46)    r     1 F_INFO1                  420-0-0/c CHAR(49)    r     1 F_INFO2
   346-0-0/c CHAR(64)    r     1 F_REG1                   366-0-0/c CHAR(62)    r     1 F_REG2
   406-0-0/c CHAR(25)    r     1 F_REG3                   343-0-0/c CHAR(10)    r     1 ICTEXT
     0-0-0/w UBIN        r     1 ROS$                       1-0-0/c CHAR(77)    r     1 ROSFMT10
    25-0-0/c CHAR(67)    r     1 ROSFMT20                  46-0-0/c CHAR(56)    r     1 ROSFMT30
   270-0-0/c CHAR(73)    r     1 TCBFMT1                  313-0-0/c CHAR(45)    r     1 TCBFMT2
   435-0-0/c CHAR(50)    r     1 TCBFMT9
   164-0-0/c CHAR(3)     r     1 TEXT_ORG(0:7)
   246-0-0/c CHAR(10)    r     1 TYP_FRAME_TXT(0:6)

  ****  Auto variables  ****

  ****  Scalars and arrays  ****
PL6.E3A0      #001=DBD$USER File=DBD$USER.:E05TSI                                TUE 07/29/97 13:10 Page:104
OctLoc.c.b A Datatyp(siz) R M Lvl/name                 OctLoc.c.b A Datatyp(siz) R M Lvl/name

     3-0-0/w PTR         r     1 @TOP                     105-0-0/w UBIN        r     1 ALT$
   111-0-0/w UBIN        r     1 AVAIL$                   107-0-0/w UBIN        r     1 AVSZ
   351-0-0/w SBIN        r     1 CIREG                    114-0-0/w UBIN        r     1 CP_ECCB$
   110-0-0/w UBIN        r     1 CURRSZ                   113-0-0/w UBIN        r     1 DB_ECCB$
   117-0-0/w UBIN        r     1 DCB$                     157-0-0/w UBIN        r     1 DCBI
   171-0-0/c CHAR(31)    r     1 DCBNAME_TXT              103-0-0/w UBIN        r     1 DCBPTR$
   121-0-0/w UBIN        r     1 DCBTABLE(0:29)
   120-0-0/w UBIN        r     1 DCBTAB_CSIZE             163-0-0/w UBIN        r     1 DDEV
    66-0-0/w UBIN        r     1 DISP_WHAT                333-0-0/w UBIN        r     1 ECC
   355-0-0/w UBIN        r     1 ERR                        4-0-0/c CHAR(200)   r     1 ERRBUF
   354-0-0/w UBIN        r     1 EVID                     252-0-0/c STRC(828)   r     1 EXCFR
   251-0-0/w UBIN        r     1 EXCFR$                   170-0-0/c CHAR(3)     r     1 FCD
   201-0-0/h STRC(1188)  r     1 G$DCB                    242-0-0/c STRC(252)   r     1 G$ECCB
   160-0-0/w UBIN        r     1 HMI$                     365-0-0/w SBIN        r     1 I
   375-0-0/w SBIN        r     1 I                        347-0-0/w SBIN        r     1 IREG
   360-0-0/b STRC        r     1 ISM                      334-0-0/w SBIN        r     1 ISM1
   335-0-0/w SBIN        r     1 ISM2                     104-0-0/w UBIN        r     1 JIT$
   357-0-0/b BIT         r     1 L6_ERR                   116-0-0/w UBIN        r     1 NUMDCBS
   167-0-0/c CHAR(3)     r     1 ORG                      356-0-0/w UBIN        r     1 P#
   301-0-0/w UBIN        r     1 P##(0:24)                115-0-0/w UBIN        r     1 PIA$
   336-0-0/w SBIN        r     1 PREG                     332-0-0/w UBIN        r     1 PREVSZ
   367-0-0/w PTR         r     1 R$                       352-0-0/w SBIN        r     1 RDBR
   340-0-0/w STRC        r     1 REGS(0:6)                165-0-0/w UBIN        r     1 RLCID_GEN
   166-0-0/w UBIN        r     1 RLCID_LDCTX              164-0-0/w UBIN        r     1 RLCID_NODE
    67-0-0/w STRC(414)   r     1 ROSBASE                  337-0-0/w SBIN        r     1 SREG
   161-0-0/w UBIN        r     1 SSN$                     106-0-0/w UBIN        r     1 STK$
   162-0-0/w UBIN        r     1 STRM                     353-0-0/w UBIN        r     1 SUBC
   366-0-0/w UBIN        r     1 TEMP                     366-0-0/w BIT         r     1 TEMPB
    *0-0-0/w STRC(144)   r     1 TOP                      350-0-0/w SBIN        r     1 TREG
   362-0-0/w SBIN        r     1 UN                       363-0-0/w SBIN        r     1 USERNUM
   361-0-0/w UBIN        r     1 USR_REP_FLG              112-0-0/w UBIN        r     1 U_ECCB$

  ****  SYMREF variables  ****

  ****  Scalars and arrays  ****
PL6.E3A0      #001=DBD$USER File=DBD$USER.:E05TSI                                TUE 07/29/97 13:10 Page:105
OctLoc.c.b A Datatyp(siz) R M Lvl/name                 OctLoc.c.b A Datatyp(siz) R M Lvl/name

     0-0-0/w PTR         r     1 B$XL_ASC_DUMP$             0-0-0/w EPTR        r     1 DAF$WRITE
     0-0-0/b BIT         r     1 DA_MAPERR                  0-0-0/w UBIN        r     1 DB_CUN
     0-0-0/w UBIN        r     1 DB_MUIS

  ****  BASED and DCB variables  ****

  ****  Scalars and arrays  ****
OctLoc.c.b A Datatyp(siz) R M Lvl/name                 OctLoc.c.b A Datatyp(siz) R M Lvl/name

     0-0-0/c ASTR(9)     r     1 B$DCBNAME                  0-0-0/d STRC(4608)  r     1 DA_PRINTABLE_TBL
     0-0-0N  NULL        r     1 M$DO                       0-0-0/w STRC(144)   r     1 OUT
     0-0-0/c UBIN        r     1 R


   Procedure DBD$USER requires 1580 words for executable code.
   Procedure DBD$USER requires 346 words of local(AUTO) storage.
PL6.E3A0      #001=DBD$USER File=DBD$USER.:E05TSI                                TUE 07/29/97 13:10 Page:106
          *** CROSS REFERENCE LISTING ***
**     DENOTES     IDENTIFIER DEFINITION
<<                 IDENTIFIER'S VALUE SET
>>                 IDENTIFIER'S VALUE USED
<>                 IDENTIFIER SET AND/OR USED
--                 IDENTIFIER REFERENCED
PL6.E3A0      #001=DBD$USER File=DBD$USER.:E05TSI                                TUE 07/29/97 13:10 Page:107
          MINI XREF LISTING

ALT$
      9933**DCL     10503--CALL    10578--CALL    10583>>IF      10585>>ASSIGN  10638<>CALL
AVAIL$
      9937**DCL     10499--CALL    10642<>CALL
AVSZ
      9935**DCL     10503--CALL    10578--CALL    10640<>CALL
B$DCBNAME.CNT
      9959**DCL      9960--IMP-SIZ 10550>>ASSIGN
B$DCBNAME.TXT
      9960**DCL     10550>>ASSIGN
B$XL_ASC_DUMP$
      9873**DCL      9874--IMP-PTR 10757>>CALL
BLANK_LINE
     10318**DCL     10491--CALL    10492--CALL    10501--CALL    10505--CALL    10509--CALL    10510--CALL
     10568--CALL    10569--CALL    10581--CALL    10620--CALL    10621--CALL    10672--CALL    10742--CALL
     10756--CALL    10759--CALL
CIREG
     10042**DCL     10726<>CALL    10732--CALL
COMMON_ENTRY
     10451**LABEL   10428--GOTO    10436--GOTO    10445--GOTO    10453--GOTO
CP_ECCB$
      9940**DCL     10645<>CALL
CURRSZ
      9936**DCL     10503--CALL    10578--CALL    10595>>DOWHILE 10598<<ASSIGN  10641<>CALL
C_BREGS
     10408**DCL     10703--CALL
C_MREGS
     10410**DCL     10720--CALL
C_RREGS
     10409**DCL     10713--CALL
DAF$INIT
      9855**DCL-ENT 10427--CALL    10435--CALL    10444--CALL    10452--CALL
PL6.E3A0      #001=DBD$USER File=DBD$USER.:E05TSI                                TUE 07/29/97 13:10 Page:108
DAF$WRITE
      9854**DCL     10491>>CALL    10492>>CALL    10499>>CALL    10501>>CALL    10503>>CALL    10505>>CALL
     10507>>CALL    10509>>CALL    10510>>CALL    10524>>CALL    10525>>CALL    10526>>CALL    10555>>CALL
     10561>>CALL    10568>>CALL    10569>>CALL    10578>>CALL    10581>>CALL    10612>>CALL    10613>>CALL
     10616>>CALL    10620>>CALL    10621>>CALL    10670>>CALL    10672>>CALL    10687>>CALL    10695>>CALL
     10696>>CALL    10703>>CALL    10713>>CALL    10720>>CALL    10732>>CALL    10740>>CALL    10742>>CALL
     10756>>CALL    10759>>CALL
DA_MAPERR
      9868**DCL     10490<<ASSIGN
DA_PRINTABLE_TBL
      9874**DCL     10757<>CALL
DBA$SELECTION
      9857**DCL-ENT 10471--CALL
DBA$WRITEIC
      9856**DCL-ENT 10693--CALL
DBB$HEXDUMP
      9858**DCL-ENT 10757--CALL
DBM$GETMEM
      9859**DCL-ENT 10521--CALL    10532--CALL    10586--CALL    10609--CALL    10630--CALL    10658--CALL
     10753--CALL
DBM$PACK1
      9861**DCL-ENT 10536--CALL    10537--CALL    10539--CALL    10540--CALL
DBM$PACK2
      9862**DCL-ENT 10538--CALL    10588--CALL    10640--CALL    10641--CALL    10647--CALL    10663--CALL
     10664--CALL    10675--CALL    10678--CALL    10683--CALL    10705--CALL    10709--CALL    10716--CALL
     10726--CALL    10735--CALL    10736--CALL    10738--CALL
DBM$PACK4
      9863**DCL-ENT 10529--CALL    10534--CALL    10535--CALL    10636--CALL    10637--CALL    10638--CALL
     10639--CALL    10642--CALL    10643--CALL    10644--CALL    10645--CALL    10646--CALL    10681--CALL
     10700--CALL    10722--CALL    10729--CALL    10737--CALL
DBM$PACKB
      9864**DCL-ENT 10674--CALL
DBM$SYSID2UN
      9865**DCL-ENT 10475--CALL
DB_CUN
      9870**DCL     10476>>ASSIGN
PL6.E3A0      #001=DBD$USER File=DBD$USER.:E05TSI                                TUE 07/29/97 13:10 Page:109
DB_ECCB$
      9939**DCL     10507--CALL    10644<>CALL
DB_MUIS
      9867**DCL     10459>>DOINDEX
DCB$
      9944**DCL     10529<>CALL    10530>>IF      10532<>CALL    10555--CALL
DCBFMT10
     10223**DCL     10524--CALL
DCBFMT11
     10226**DCL     10525--CALL
DCBFMT12
     10228**DCL     10526--CALL
DCBFMT20
     10231**DCL     10555--CALL
DCBFMT30
     10234**DCL     10561--CALL
DCBI
      9947**DCL     10528<<DOINDEX 10529>>CALL    10555--CALL
DCBNAME_TXT
      9957**DCL     10550<<ASSIGN  10555--CALL
DCBPTR$
      9931**DCL     10499--CALL    10521<>CALL    10636<>CALL
DCBRPT
     10174**DCL     10444<>CALL
DCBRPTTX00
     10217**DCL     10204--DCLINIT
DCBTABLE
      9946**DCL     10521<>CALL    10529<>CALL
DCBTAB_CSIZE
      9945**DCL     10520<<ASSIGN  10521<>CALL    10521<>CALL
DDEV
      9951**DCL     10536<>CALL    10555--CALL
DISP_DCB
     10515**PROC    10463--CALL    10483--CALL
DISP_ECCB
     10605**PROC    10465--CALL    10485--CALL
PL6.E3A0      #001=DBD$USER File=DBD$USER.:E05TSI                                TUE 07/29/97 13:10 Page:110
DISP_FRAME
     10654**PROC    10590--CALL    10596--CALL
DISP_ROS
     10495**PROC    10462--CALL    10482--CALL
DISP_TCB
     10574**PROC    10464--CALL    10484--CALL
DISP_WHAT
      9908**DCL     10426<<ASSIGN  10434<<ASSIGN  10443<<ASSIGN  10451<<ASSIGN  10461>>DOCASE  10481>>DOCASE
ECC
     10033**DCL     10664<>CALL    10666>>IF      10667>>ASSIGN  10668>>ASSIGN  10670--CALL
ECCBFMT1
     10308**DCL     10612--CALL
ECCBFMT2
     10310**DCL     10613--CALL
ECCBFMT3
     10312**DCL     10616--CALL
ECCBRPT
     10258**DCL     10452<>CALL
ECCBRPTTX00
     10301**DCL     10288--DCLINIT
ERR
     10046**DCL     10737<>CALL    10740--CALL
ERRBUF
      9904**DCL     10746--ASSIGN
EVID
     10045**DCL     10736<>CALL    10740--CALL
EXCFR
     10017**DCL     10586<>CALL    10658<>CALL    10658--CALL    10658--CALL    10752--ASSIGN
EXCFR.ECC
     10019**DCL     10664<>CALL
EXCFR.ERR
     10027**DCL     10737<>CALL    10744>>ASSIGN
EXCFR.EVID
     10026**DCL     10736<>CALL
EXCFR.ISM1
     10020**DCL     10674<>CALL    10675<>CALL
PL6.E3A0      #001=DBD$USER File=DBD$USER.:E05TSI                                TUE 07/29/97 13:10 Page:111
EXCFR.ISM2
     10021**DCL     10678<>CALL
EXCFR.P#
     10028**DCL     10738<>CALL
EXCFR.P$
     10022**DCL     10681<>CALL
EXCFR.PREVSZ
     10018**DCL     10588<>CALL    10663<>CALL
EXCFR.REGS
     10024**DCL     10698--ASSIGN
EXCFR.S
     10023**DCL     10683<>CALL
EXCFR.SUBC
     10025**DCL     10735<>CALL
EXCFR$
     10016**DCL     10585<<ASSIGN  10586<>CALL    10594<<ASSIGN  10597<<ASSIGN  10597>>ASSIGN  10658<>CALL
     10670--CALL    10752>>ASSIGN
FCD
      9956**DCL     10543<<ASSIGN  10544<<ASSIGN  10555--CALL
FPT_ERRMSG
      9888**DCL     10747<>CALL
FPT_ERRMSG.BUF_
      9888**DCL     10746<<ASSIGN
FPT_ERRMSG.CODE_
      9888**DCL     10745<<ASSIGN
FPT_ERRMSG.V
      9892**DCL      9888--DCLINIT
F_INFO1
     10393**DCL     10687--CALL
F_INFO2
     10412**DCL     10732--CALL
F_REG1
     10398**DCL     10695--CALL
F_REG2
     10401**DCL     10696--CALL
F_REG3
PL6.E3A0      #001=DBD$USER File=DBD$USER.:E05TSI                                TUE 07/29/97 13:10 Page:112
     10405**DCL     10703--CALL    10713--CALL    10720--CALL
G$DCB
      9963**DCL     10532<>CALL    10532--CALL    10532--CALL
G$DCB.ACCT
      9974**DCL     10561--CALL
G$DCB.DCBNAME
     10003**DCL     10550--ASSIGN  10550--ASSIGN
G$DCB.DDEV
      9969**DCL     10536<>CALL
G$DCB.FCD
      9979**DCL     10542>>IF
G$DCB.HMI$
      9995**DCL     10534<>CALL
G$DCB.NAME.C
      9973**DCL     10561--CALL
G$DCB.NAME.L
      9972**DCL     10559>>IF
G$DCB.ORG
      9982**DCL     10546>>IF      10547>>ASSIGN
G$DCB.RES
      9975**DCL     10555--CALL
G$DCB.RLCID.GENERATION
      9999**DCL     10539<>CALL
G$DCB.RLCID.LDCTX
     10000**DCL     10538<>CALL
G$DCB.RLCID.NODE
      9998**DCL     10540<>CALL
G$DCB.SSN$
     10002**DCL     10535<>CALL
G$DCB.STRM
      9967**DCL     10537<>CALL
G$ECCB
     10007**DCL     10609<>CALL    10609--CALL    10609--CALL
G$ECCB.DBCONTROL$
     10012**DCL     10613--CALL
G$ECCB.EVENT$
PL6.E3A0      #001=DBD$USER File=DBD$USER.:E05TSI                                TUE 07/29/97 13:10 Page:113
     10008**DCL     10613--CALL
G$ECCB.FLAGS
     10013**DCL     10616--CALL
G$ECCB.FLTFLG
     10014**DCL     10616--CALL    10616--CALL    10616--CALL
G$ECCB.INT$
     10009**DCL     10613--CALL
G$ECCB.TRAP$
     10011**DCL     10613--CALL
G$ECCB.XCON$
     10010**DCL     10613--CALL
GET_ROSBASE
     10629**PROC    10496--CALL    10516--CALL    10575--CALL    10606--CALL
HMI$
      9948**DCL     10534<>CALL    10555--CALL
I
     10072**DCL     10470<<DOINDEX 10471>>CALL
I IN PROCEDURE DISP_FRAME
     10656**DCL     10699<<DOINDEX 10700>>CALL    10708<<DOINDEX 10710>>ASSIGN  10715<<DOINDEX 10717>>ASSIGN
ICTEXT
     10396**DCL     10693--CALL
IREG
     10040**DCL     10705<>CALL    10732--CALL
ISM
     10050**DCL     10674<>CALL
ISM1
     10034**DCL     10676<<ASSIGN  10687--CALL
ISM2
     10035**DCL     10679<<ASSIGN  10687--CALL
JIT$
      9932**DCL     10507--CALL    10637<>CALL
L6_ERR
     10048**DCL     10744<<ASSIGN  10745--ASSIGN
M$ERRMSG
      5563**DCL-ENT 10747--CALL
NUMDCBS
PL6.E3A0      #001=DBD$USER File=DBD$USER.:E05TSI                                TUE 07/29/97 13:10 Page:114
      9942**DCL     10499--CALL    10519>>IF      10519<<ASSIGN  10520>>ASSIGN  10528>>DOINDEX 10647<>CALL
ORG
      9955**DCL     10547<<ASSIGN  10548<<ASSIGN  10555--CALL
OUT
      9813**DCL     10471<>CALL
P#
     10047**DCL     10738<>CALL    10740--CALL    10749>>IF      10751>>IF      10751<<ASSIGN  10753>>CALL
     10753>>CALL    10757<>CALL
P##
     10030**DCL     10753<>CALL    10757<>CALL
PIA$
      9941**DCL     10507--CALL    10646<>CALL
PREG
     10036**DCL     10681<>CALL    10687--CALL    10693<>CALL
PREVSZ
     10032**DCL     10588<>CALL    10589>>IF      10597>>ASSIGN  10598>>ASSIGN  10663<>CALL    10670--CALL
R
     10076**DCL     10700<>CALL    10705<>CALL    10709<>CALL    10716<>CALL    10722<>CALL    10726<>CALL
     10729<>CALL    10752<<ASSIGN  10753<>CALL    10757<>CALL
R$
     10075**DCL     10076--IMP-PTR 10698<<ASSIGN  10700>>CALL    10701<<ASSIGN  10701>>ASSIGN  10705>>CALL
     10706<<ASSIGN  10706>>ASSIGN  10709>>CALL    10711<<ASSIGN  10711>>ASSIGN  10716>>CALL    10718<<ASSIGN
     10718>>ASSIGN  10722>>CALL    10723<<ASSIGN  10723>>ASSIGN  10726>>CALL    10727<<ASSIGN  10727>>ASSIGN
     10729>>CALL    10730<<ASSIGN  10730>>ASSIGN  10752>>ASSIGN  10753>>CALL    10757>>CALL
RDBR
     10043**DCL     10729<>CALL    10732--CALL
REGS
     10038**DCL     10703--CALL    10713--CALL    10720--CALL
REGS.CONTENTS
     10039**DCL     10700<>CALL    10710<<ASSIGN  10717<<ASSIGN
RLCID_GEN
      9953**DCL     10539<>CALL    10555--CALL
RLCID_LDCTX
      9954**DCL     10538<>CALL    10555--CALL
RLCID_NODE
      9952**DCL     10540<>CALL    10555--CALL
PL6.E3A0      #001=DBD$USER File=DBD$USER.:E05TSI                                TUE 07/29/97 13:10 Page:115
ROS$
      9915**DCL     10630<>CALL
ROSBASE
      9916**DCL     10630<>CALL    10630--CALL    10630--CALL
ROSBASE.ALT$
      9919**DCL     10638<>CALL
ROSBASE.AVAIL$
      9923**DCL     10642<>CALL
ROSBASE.AVSZ
      9921**DCL     10640<>CALL
ROSBASE.CP_ECCB$
      9926**DCL     10645<>CALL
ROSBASE.CURRSZ
      9922**DCL     10641<>CALL
ROSBASE.DB_ECCB$
      9925**DCL     10644<>CALL
ROSBASE.DCBPTR$
      9917**DCL     10636<>CALL
ROSBASE.JIT$
      9918**DCL     10637<>CALL
ROSBASE.NUMDCBS
      9928**DCL     10647<>CALL
ROSBASE.PIA$
      9927**DCL     10646<>CALL
ROSBASE.STK$
      9920**DCL     10639<>CALL
ROSBASE.U_ECCB$
      9924**DCL     10643<>CALL
ROSFMT10
     10147**DCL     10499--CALL
ROSFMT20
     10150**DCL     10503--CALL
ROSFMT30
     10152**DCL     10507--CALL
ROSRPT
     10098**DCL     10427<>CALL
PL6.E3A0      #001=DBD$USER File=DBD$USER.:E05TSI                                TUE 07/29/97 13:10 Page:116
ROSRPTTX00
     10141**DCL     10128--DCLINIT
SREG
     10037**DCL     10684<<ASSIGN  10687--CALL
SSN$
      9949**DCL     10535<>CALL    10555--CALL
STK$
      9934**DCL     10503--CALL    10578--CALL    10594>>ASSIGN  10639<>CALL
STRM
      9950**DCL     10537<>CALL    10555--CALL
SUBC
     10044**DCL     10735<>CALL    10740--CALL
TCBFMT1
     10387**DCL     10578--CALL
TCBFMT2
     10390**DCL     10670--CALL
TCBFMT9
     10415**DCL     10740--CALL
TCBRPT
     10336**DCL     10435<>CALL
TCBRPTTX00
     10379**DCL     10366--DCLINIT
TEMP
     10073**DCL     10074--REDEF   10667<<ASSIGN  10668<<ASSIGN  10670>>CALL    10675<>CALL    10678<>CALL
     10683<>CALL    10709<>CALL    10716<>CALL
TEMPB
     10074**DCL     10676>>ASSIGN  10679>>ASSIGN  10684>>ASSIGN  10710>>ASSIGN  10717>>ASSIGN
TEXT_ORG
     10236**DCL     10547>>ASSIGN
TOP
      9768**DCL        12--PROC    10425--ENTRY   10433--ENTRY   10442--ENTRY   10450--ENTRY
TOP.NSUBLKS
      9780**DCL     10458>>IF      10470>>DOINDEX
TOP.SUBLK$
      9801**DCL     10471>>CALL
TREG
PL6.E3A0      #001=DBD$USER File=DBD$USER.:E05TSI                                TUE 07/29/97 13:10 Page:117
     10041**DCL     10722<>CALL    10732--CALL
TYP_FRAME_TXT
     10385**DCL     10670--CALL
UN
     10069**DCL     10459<<DOINDEX 10460>>ASSIGN  10471<>CALL    10472>>IF      10473>>ASSIGN  10475<>CALL
     10479>>ASSIGN  10521<>CALL    10532<>CALL    10586<>CALL    10609<>CALL    10630<>CALL    10658<>CALL
     10753<>CALL
USERNUM
     10070**DCL     10460<<ASSIGN  10473<<ASSIGN  10476<<ASSIGN  10479<<ASSIGN  10499--CALL    10524--CALL
     10578--CALL    10612--CALL
USR_REP_FLG
     10068**DCL     10457<<ASSIGN  10490>>IF      10634<<ASSIGN
U_ECCB$
      9938**DCL     10507--CALL    10609<>CALL    10643<>CALL

