PL6.E3A0      #001=DBD$UTIL1 File=DBD$UTIL1.:E05TSI                              TUE 07/29/97 13:11 Page:1
        1        1        /*M* DBD$UTIL1  Formats FEP tables and FEP memory displays   */
        2        2        /*T***********************************************************/
        3        3        /*T*                                                         */
        4        4        /*T* Copyright (c) Bull HN Information Systems Inc., 1997    */
        5        5        /*T*                                                         */
        6        6        /*T***********************************************************/
        7        7        /*X* PLM=3,IND=5,ENU=0,ECU=0     */
        8        8
        9        9        /*F*    NAME: DBD$UTIL1
       10       10                PURPOSE: Contains the formatting routines for:
       11       11                             SPY
       12       12                             STAT
       13       13                             MEMORY
       14       14
       15       15        */
       16       16        DBD$UTIL1: PROC(TOP);
       17       17
       18       18
       19       19        %INCLUDE XU_MACRO_C;
       20     3125        %INCLUDE G_JIT_M;
       21     3390        %INCLUDE DA_FORMAT_C;
       22     3632        %INCLUDE CP_6;
       23     9191        %INCLUDE G_LCP6_E;
       24     9449        %INCLUDE GM_VIRTUAL_E;
       25     9659        %INCLUDE GM_MACRO_M;
       26    10141        %INCLUDE DB_ANLZ_M;
       27    10308        %INCLUDE DBD_FEP_E;
       28    10319        %INCLUDE GJ_MACROS_M;
       29    10792        %INCLUDE GH_SCHD_M;
       30    10936        %INCLUDE GH_SCHD_E;
       31    11032        %INCLUDE G$BOBCAT_M;
       32    11052        %INCLUDE GH_LCP6_M;
       33    11886
       34    11887        %PARSE$OUT (NAME=TOP,STCLASS=PARAM);
       35    11932        %PARSE$OUT (NAME=OUT,STCLASS=BASED);
       36    11977
       37    11978    1   DCL DBA$SELECTION ENTRY(3) ALTRET;
PL6.E3A0      #001=DBD$UTIL1 File=DBD$UTIL1.:E05TSI                              TUE 07/29/97 13:11 Page:2
       38    11979    1   DCL DBM$GETMEM ENTRY(10) ALTRET;
       39    11980    1   DCL DBM$PACK2 ENTRY(2);
       40    11981    1   DCL DBM$PACK4 ENTRY(2);
       41    11982    1   DCL DAD$SPYDOT ENTRY(2);
       42    11983    1   DCL DAF$INIT ENTRY(1) ALTRET;
       43    11984    1   DCL DAA$VALUE ENTRY(3) ALTRET;
       44    11985    1   DCL DBM$SYSID2UN ENTRY(1) ALTRET;
       45    11986    1   DCL DBM$PACK1 ENTRY(2);
       46    11987    1   DCL DBD$FEPMAP_ERR ENTRY(1);
       47    11988
       48    11989        %G$JIT (FPTN=G$JIT,STCLASS=AUTO);
       49    12183        %G$USER (FPTN=G$U,STCLASS=AUTO);
       50    12194        %G$BOBCAT (FPTN=G$BOBCAT,STCLASS=AUTO);
       51    12207
       52    12208    1   DCL 1 ROSBASE AUTO,
       53    12209    1         2 DCBPTR$ UBIN,
       54    12210    1         2 JIT$ UBIN,
       55    12211    1         2 ALT$ UBIN,
       56    12212    1         2 STK$ UBIN;
       57    12213
       58    12214    1   DCL 1 FEPDCB AUTO,
       59    12215    1         2 ARS UBIN HALF CALIGNED,
       60    12216    1         2 TYC BIT(16) CALIGNED,
       61    12217    1         2 DVBYTE BIT(9),
       62    12218    1         2 EOMCHAR CHAR(1),
       63    12219    1         2 FFLG BIT(9),
       64    12220    1         2 DDEV BIT(9),
       65    12221    1         2 WIDTH UBIN HALF CALIGNED,
       66    12222    1         2 NAME,
       67    12223    1           3 L UBIN BYTE CALIGNED,
       68    12224    1           3 C CHAR(31),
       69    12225    1         2 ACCT CHAR(8),
       70    12226    1         2 RES CHAR(4),
       71    12227    1         2 WSN CHAR(8);
       72    12228
       73    12229        %LIST;
       74    12230        %B$FEPMAP;
PL6.E3A0      #001=DBD$UTIL1 File=DBD$UTIL1.:E05TSI                              TUE 07/29/97 13:11 Page:3
             12231    1   DCL 1 B$FEPMAP(0:0) BASED ALIGNED,
             12232    1         2 TYP UBIN BYTE CALIGNED,
             12233                                                /* 1=HHJIT   2=SFILE      3=USER      */
             12234    1         2 WHAT# UBIN BYTE CALIGNED,
             12235                                                /* INTLEVL   SFILE#       USER#       */
             12236    1         2 INDX# UBIN BYTE CALIGNED,
             12237                                                /* USR#      SFILE.SEG#   ASDT_INDX   */
             12238    1         2 SIZE UBIN BYTE CALIGNED;
             12239                                                /* # of pages #                       */
             12240        %EQU DBD_MAPTYP_HHJIT#=1;
             12241        %EQU DBD_MAPTYP_SFILE#=2;
             12242        %EQU DBD_MAPTYP_USER#=3;
       75    12244        %PLIST;
       76    12245
       77    12246    1   DCL 1 ASDTBASE (0:30) AUTO,
       78    12247    1         2 WORD1,
       79    12248    1           3 * BIT(1) UNAL,
       80    12249    1           3 V BIT(1) UNAL,
       81    12250    1           3 * BIT(16) UNAL,
       82    12251    1         2 WORD2,
       83    12252    1           3 * BIT(9) UNAL,
       84    12253    1           3 SIZE UBIN(9) UNAL;
       85    12254
       86    12255        %GM_DATA_TBL (FPTN=GM$DATA,TYPE=STRUCTURE,STCLASS=AUTO);
       87    12372        %GJ_SFILE_TBL (FPTN=GJ$SDATA,TYPE=STRUCTURE,STCLASS=AUTO);
       88    12465
       89    12466    1   DCL ASDT_USR (0:29) UBIN;
       90    12467    1   DCL ASDT_MON (0:7) UBIN;
       91    12468    1   DCL HJIT_COUNT UBIN;
       92    12469
       93    12470
       94    12471        %EJECT;
PL6.E3A0      #001=DBD$UTIL1 File=DBD$UTIL1.:E05TSI                              TUE 07/29/97 13:11 Page:4
       95    12472    1   DCL I SBIN;
       96    12473    1   DCL J UBIN;
       97    12474    1   DCL K UBIN;
       98    12475
       99    12476    1   DCL UN SBIN;
      100    12477
      101    12478
      102    12479    1   DCL CPUMINS SBIN;
      103    12480    1   DCL CPUSECS SBIN;
      104    12481
      105    12482    1   DCL TUEXT SBIN;
      106    12483    1   DCL TUSVT UBIN;
      107    12484    1   DCL XTIME UBIN;
      108    12485    1   DCL STIME UBIN;
      109    12486    1   DCL MRT UBIN;
      110    12487    1   DCL SYSID UBIN;
      111    12488    1   DCL JITUN UBIN;
      112    12489    1   DCL CALCNT UBIN;
      113    12490    1   DCL STEPCC UBIN;
      114    12491    1   DCL DLL UBIN;
      115    12492    1   DCL DUL UBIN;
      116    12493    1   DCL PLL UBIN;
      117    12494    1   DCL PUL UBIN;
      118    12495    1   DCL LLL UBIN;
      119    12496    1   DCL LUL UBIN;
      120    12497
      121    12498    1   DCL PCD UBIN;
      122    12499    1   DCL PCP UBIN;
      123    12500    1   DCL PCL UBIN;
      124    12501    1   DCL PCDS UBIN;
      125    12502    1   DCL PCDDS UBIN;
      126    12503    1   DCL PCC UBIN;
      127    12504    1   DCL PCROS UBIN;
      128    12505    1   DCL PSEUDOPGS UBIN;
      129    12506    1   DCL NSPC UBIN;
      130    12507    1   DCL CQPC UBIN;
      131    12508
PL6.E3A0      #001=DBD$UTIL1 File=DBD$UTIL1.:E05TSI                              TUE 07/29/97 13:11 Page:5
      132    12509    1   DCL SPROC UBIN;
      133    12510    1   DCL SLIB UBIN;
      134    12511    1   DCL DB UBIN;
      135    12512
      136    12513    1   DCL PRIV_ACTIVE UBIN;
      137    12514    1   DCL PRIV_AUTH UBIN;
      138    12515    1   DCL PRIV_PRC UBIN;
      139    12516    1   DCL PPRIV UBIN;
      140    12517
      141    12518    1   DCL RNST UBIN;
      142    12519    1   DCL JUNK UBIN;
      143    12520
      144    12521    1   DCL 1 CVM_REAL UNAL,
      145    12522    1         2 * BIT(4),
      146    12523    1         2 SEG (0:31) BIT(1);
      147    12524
      148    12525    1   DCL 1 SHRD_FLAG UNAL,
      149    12526    1         2 * BIT(4),
      150    12527    1         2 SEG (0:31) BIT(1);
      151    12528
      152    12529    1   DCL SHRD_SEG(0:31) UBIN(9) UNAL;
      153    12530
      154    12531    1   DCL MAP_ERR UBIN;
      155    12532    1   DCL MAP_PG# UBIN;
      156    12533    1   DCL PCT UBIN;
      157    12534    1   DCL DCBPTR$ UBIN;
      158    12535    1   DCL JIT$ UBIN;
      159    12536    1   DCL DCB$ UBIN;
      160    12537    1   DCL DCBPTR UBIN;
      161    12538    1   DCL MON_TOTAL UBIN;
      162    12539    1   DCL TOTAL(0:4) UBIN;
      163    12540    1   DCL AVAILABLE UBIN;
      164    12541    1   DCL FPRG_TOTAL UBIN;
      165    12542    1   DCL TOTAL_FREE UBIN;
      166    12543    1   DCL TOTAL_USED UBIN;
      167    12544    1   DCL SHR_PROC UBIN;
      168    12545    1   DCL SHR_DATA UBIN;
PL6.E3A0      #001=DBD$UTIL1 File=DBD$UTIL1.:E05TSI                              TUE 07/29/97 13:11 Page:6
      169    12546    1   DCL SHR_LIB UBIN;
      170    12547    1   DCL MAX_SHUF UBIN;
      171    12548    1   DCL MEM_LOW UBIN;
      172    12549    1   DCL SHUF_HI UBIN;
      173    12550    1   DCL TOTAL_SHUF UBIN;
      174    12551    1   DCL TOTAL_NSHF UBIN;
      175    12552    1   DCL FRAG_NSHF UBIN;
      176    12553    1   DCL USED_NSHF UBIN;
      177    12554    1   DCL CURR_SHUF UBIN;
      178    12555    1   DCL CURR_NSHF UBIN;
      179    12556    1   DCL CURR_HSHUF UBIN;
      180    12557    1   DCL MISSING UBIN;
      181    12558    1   DCL MEM_HI UBIN;
      182    12559    1   DCL MUIS UBIN;
      183    12560    1   DCL MAXMEM UBIN;
      184    12561    1   DCL SHRFLG CHAR(1);
      185    12562    1   DCL CQFLG CHAR(1);
      186    12563    1   DCL RADIX UBIN;
      187    12564    1   DCL TOPIC CHAR(7);
      188    12565    1   DCL TITLE CHAR(32);
      189    12566    1   DCL 1 WORD2,
      190    12567    1         2 * UBIN(27) UNAL,
      191    12568    1         2 SIZE UBIN(9) UNAL;
      192    12569                                                /* CONSTANT and STATIC data           */
      193    12570    1   DCL ASDT_PCT_FLG (0:30) UBIN(9) STATIC INIT
      194    12571    1   (0,1,1,0,1,1,0,0,0,0,1,1,0,1,1,1,1,1,1,1,1,1,1,0,0,1,1,1,1,0,0);
      195    12572        /* ASDT_PCT_FLG is used by STATS to indicate if the segment is
      196    12573           chargeable to the user.
      197    12574        */
      198    12575
      199    12576    1   DCL ASDT_USR_FLG (0:30) UBIN(9) STATIC INIT
      200    12577    1   (0,3,5,0,3,3,0,0,0,0,2,2,2,2,2,2,2,2,2,2,2,2,2,2,2,2,2,2,4,0,0);
      201    12578        /* ASDT_USR_FLG indicates which pool into which the page count from
      202    12579           the user ASDT(I) is tobe added: 0-none  1-procedure  2-data
      203    12580                                           3-context 4-Hand CQ  5-Delta DD
      204    12581        */
      205    12582
PL6.E3A0      #001=DBD$UTIL1 File=DBD$UTIL1.:E05TSI                              TUE 07/29/97 13:11 Page:7
      206    12583    1   DCL ASDT_MON_FLG (0:30) UBIN(9) CONSTANT INIT
      207    12584    1   (0,3,7,0,3,3,3,0,2,2,0,0,0,0,0,0,2,2,2,2,2,0,0,7,0,5,4,6,0,0,1);
      208    12585
      209    12586    1   DCL SHRD_FLAG_OFF UBIN CONSTANT INIT(%G_UHJIT_SHRD_FLAG#);
      210    12587    1   DCL SHRD_SEG_OFF UBIN CONSTANT INIT(%G_UHJIT_SHRD_SEG#);
      211    12588
      212    12589    1   DCL ROS$ UBIN CONSTANT INIT(%GM_ROS_BASE);
      213    12590    1   DCL UHJIT$ UBIN CONSTANT INIT(%GM_UHJIT_BASE);
      214    12591    1   DCL BOBCAT$ UBIN CONSTANT INIT(%GM_BOBCAT_BASE);
      215    12592    1   DCL MHJIT$ UBIN CONSTANT INIT(%GM_MHJIT_BASE);
      216    12593    1   DCL MMDATA$ UBIN;
      217    12594    1   DCL SFDATA$ UBIN;
      218    12595
      219    12596        /*   SPY formating info
      220    12597        */
      221    12598    1   DCL RCV_SPYHDR CHAR(0) CONSTANT INIT(
      222    12599    1   'M Usr#  Identification           Sysid     CPU     M$LM');
      223    12600
      224    12601        %REPORT (NAME=SPYRPT,TRUNC=YES,EDIT=DAD$SPYDOT,HEADER=YES,TITLE='FEP SPY Report');
      225    12667        %HEADER (TEXT=
      226    12668        'M Usr#  Identification           Sysid     CPU     M$LM');
      227    12710    1   DCL SPYFMT CHAR(0) CONSTANT INIT(
      228    12711    1   '%A%4H%E   %>A,%>A %33-%6D%5D:%2ZD     %>A.%>A');
      229    12712    1   DCL MODECHAR(0:4) CHAR(1) CONSTANT INIT(' ','U','C','H','G');
      230    12713
      231    12714
      232    12715        /*  STAT formatting info
      233    12716        */
      234    12717        %REPORT (NAME=STAT_RPT,TRUNC=YES,HEADER=YES,TITLE='FEP STAT - User page counts');
      235    12783        %HEADER (LAST=NO,TEXT=
      236    12784        '                            Max Phys  Pro  Data  Dyn  Dyn Con  Ro Dbg   Cq HHJT');
      237    12826        %HEADER (LAST=YES,TEXT=
      238    12827        'M Identification     Sysid  Pgs  Pgs  Pgs   Pgs  Pgs  I/O Pgs Pgs Pgs  Pgs  Pgs');
      239    12869    1   DCL STATFMT CHAR(0) CONSTANT INIT(
      240    12870    1   '%A %>A,%>A %20-%6D%6D%5D%5D%A%5D%5D%5D%4D%4D%4D%5D%A%4D');
      241    12871
      242    12872
PL6.E3A0      #001=DBD$UTIL1 File=DBD$UTIL1.:E05TSI                              TUE 07/29/97 13:11 Page:8
      243    12873        /*  MEMORY formatting info
      244    12874        */
      245    12875        %REPORT (NAME=MON_UTIL_RPT,TRUNC=YES,HEADER=YES,TITLE='FEP Memory Usage');
      246    12941        %HEADER (LAST=NO,TEXT=
      247    12942        '                             FEP Memory Utilization');
      248    12984        %HEADER (LAST=YES,TEXT=' ');
      249    13026
      250    13027    1   DCL ASDT_MON_TTL (0:7) CHAR(32) CONSTANT INIT
      251    13028    1   ('Garbage',
      252    13029    1    'BIGFOOT',
      253    13030    1    'Procedure and Static Data',
      254    13031    1    'Cntx-TSTKM,UMHJIT,MHJIT,ROS,LRM',
      255    13032    1    'Communication Buffers',
      256    13033    1    'PPUT',
      257    13034    1    'BOBCAT',
      258    13035    1    'DELTA-Procedure and Dyn Data Seg');
      259    13036
      260    13037    1   DCL USR_UTIL_HDR CHAR(0) CONSTANT INIT(
      261    13038    1   '                                           USER  COMGP  HAND GHOST');
      262    13039    1   DCL UTILFMT CHAR(0) CONSTANT INIT('%7A:%32A  %5D  %5D %5D %5D');
      263    13040    1   DCL UTIL2FMT CHAR(0) CONSTANT INIT('%7A:%32A  .%4ZH  .%4ZH .%4ZH .%4ZH');
      264    13041    1   DCL TOTLFMT CHAR(0) CONSTANT INIT('%7A:%32A  %5D  .%4ZH');
      265    13042
      266    13043    1   DCL ASDT_USR_TTL (0:5) CHAR(32) CONSTANT INIT
      267    13044    1   ('Garbage',
      268    13045    1    'User Procedure',
      269    13046    1    'User Data-Static and Dynamic',
      270    13047    1    'Context-TSTACKM,ROS,UHJIT,HHJITs',
      271    13048    1    'Handler Q',
      272    13049    1    'DELTA-Dynamic Data');
      273    13050
      274    13051    1   DCL BLANK_LINE CHAR(1) CONSTANT INIT(' ');
      275    13052        %EJECT;
PL6.E3A0      #001=DBD$UTIL1 File=DBD$UTIL1.:E05TSI                              TUE 07/29/97 13:11 Page:9
      276    13053                                                /*  SYMREFs                           */
      277    13054    1   DCL DBD$FEPMAP$ PTR SYMREF;
      278    13055    1   DCL DAF$WRITE EPTR SYMREF;
      279    13056    1   DCL DB_MUIS UBIN SYMREF;
      280    13057    1   DCL DA_MAPERR BIT(36) SYMREF;
      281    13058    1   DCL DB_USRT$ UBIN SYMREF;
      282    13059    1   DCL DB_CURRENT_USER UBIN SYMREF;
      283    13060        %EJECT;
PL6.E3A0      #001=DBD$UTIL1 File=DBD$UTIL1.:E05TSI                              TUE 07/29/97 13:11 Page:10
      284    13061        /*F*    NAME: DBD$SPY
      285    13062                PURPOSE: To process the SPY command for FEPs.
      286    13063
      287    13064        */
      288    13065
      289    13066    1   DBD$SPY_RCV: ENTRY;
      290    13067    1      UN = -DB_CURRENT_USER;
      291    13068    1      CALL DAF$WRITE(VECTOR(RCV_SPYHDR));
      292    13069    1      CALL DISPSPY;
      293    13070    1      CALL DAF$WRITE(VECTOR(BLANK_LINE));
      294    13071    1      RETURN;
      295    13072
      296    13073    1   DBD$SPY: ENTRY(TOP);
      297    13074    1      CALL DAF$INIT(SPYRPT);
      298    13075    1      IF TOP.NSUBLKS=0
      299    13076    2      THEN DO;
      300    13077    3           DO UN=-1 DOWNTO -DB_MUIS;
      301    13078    3                CALL DISPSPY;
      302    13079    3                END;
      303    13080    2           DA_MAPERR = '0'B;
      304    13081    2           END;
      305    13082    2      ELSE DO;
      306    13083    3           DO I=0 TO TOP.NSUBLKS-1;
      307    13084    4                CALL DBA$SELECTION(TOP.SUBLK$(I)->OUT,UN) WHENRETURN DO;
      308    13085    4                     CALL DISPSPY;
      309    13086    4                     END;
      310    13087    3                END;
      311    13088    2           END;
      312    13089    1      CALL DAF$WRITE(VECTOR(BLANK_LINE));
      313    13090    1      CALL DAF$WRITE(VECTOR(BLANK_LINE));
      314    13091    1      RETURN;
      315    13092        %EJECT;
PL6.E3A0      #001=DBD$UTIL1 File=DBD$UTIL1.:E05TSI                              TUE 07/29/97 13:11 Page:11
      316    13093    1   DISPSPY: PROC;
      317    13094    2      CALL DBM$GETMEM(ROS$,ROSBASE,UN,SIZEC(ROSBASE),,SIZEC(ROSBASE))
      318    13095    3      WHENRETURN DO;
      319    13096    3           CALL DBM$PACK4(ROSBASE.DCBPTR$,DCBPTR$);
      320    13097    3           CALL DBM$PACK4(ROSBASE.JIT$,JIT$);
      321    13098    3           CALL DBM$GETMEM(JIT$,G$JIT,UN,SIZEC(G$JIT));
      322    13099    3           CALL DBM$PACK1(G$JIT.USR#,JITUN);
      323    13100    3           CALL DBM$PACK2(G$JIT.SYSID,SYSID);
      324    13101    3           CALL DBM$PACK4(G$JIT.TUEXT,TUEXT);
      325    13102    3           CALL DBM$PACK4(G$JIT.TUSVT, TUSVT);
      326    13103    3           CALL DBM$PACK4(G$JIT.XTIME, XTIME);
      327    13104    3           CALL DBM$PACK4(G$JIT.STIME, STIME);
      328    13105    3           TUEXT=(TUEXT+TUSVT+XTIME+STIME+60)/120; /* SECONDS                    */
      329    13106    3           CPUMINS=TUEXT/60;
      330    13107    3           CPUSECS=MOD(TUEXT,60);
      331    13108    3           CALL DBM$GETMEM(DCBPTR$+%(G_M$LM#*2),DCBPTR,UN,SIZEC(DCB$));
      332    13109    3           CALL DBM$PACK4(DCBPTR,DCB$);
      333    13110    3           CALL DBM$GETMEM(DCB$,FEPDCB,UN,SIZEC(FEPDCB));
      334    13111    3           CALL DAF$WRITE(VECTOR(SPYFMT),
      335    13112    3             VECTOR(MODECHAR(G$JIT.MODE)),
      336    13113    3             VECTOR(JITUN),
      337    13114    3             VECTOR(G$JIT.ACCN),
      338    13115    3             VECTOR(G$JIT.UNAME),
      339    13116    3             VECTOR(SYSID),
      340    13117    3             VECTOR(CPUMINS),
      341    13118    3             VECTOR(CPUSECS),
      342    13119    3             VECTOR(FEPDCB.NAME.C),
      343    13120    3             VECTOR(FEPDCB.ACCT));
      344    13121    3           END;
      345    13122    2      RETURN;
      346    13123
      347    13124    2   END DISPSPY;
      348    13125        %EJECT;
PL6.E3A0      #001=DBD$UTIL1 File=DBD$UTIL1.:E05TSI                              TUE 07/29/97 13:11 Page:12
      349    13126        /*F*    NAME: DBD$STAT
      350    13127                PURPOSE: To process the STAT command for FEPs.
      351    13128
      352    13129        */
      353    13130    1   DBD$STAT: ENTRY(TOP);
      354    13131
      355    13132    1      CALL DBM$GETMEM(BOBCAT$,G$BOBCAT,0,SIZEC(G$BOBCAT),,SIZEC(G$BOBCAT));
      356    13133    1      CALL DBM$PACK4(G$BOBCAT.MMDATA$,MMDATA$);
      357    13134    1      CALL DBM$GETMEM(MMDATA$,GM$DATA,0,SIZEC(GM$DATA),,SIZEC(GM$DATA));
      358    13135    1      CALL DBM$PACK2(GM$DATA.SHUF_HI,SHUF_HI);
      359    13136
      360    13137    1      CALL DAF$INIT(STAT_RPT);
      361    13138    1      IF TOP.NSUBLKS=0
      362    13139    2      THEN DO;
      363    13140    3           DO UN=-1 DOWNTO -DB_MUIS;
      364    13141    3                CALL DISPSTAT;
      365    13142    3                END;
      366    13143    2           DA_MAPERR = '0'B;
      367    13144    2           END;
      368    13145    2      ELSE DO;
      369    13146    3           DO I=0 TO TOP.NSUBLKS-1;
      370    13147    4                CALL DBA$SELECTION(TOP.SUBLK$(I)->OUT,UN) WHENRETURN DO;
      371    13148    4                     CALL DISPSTAT;
      372    13149    4                     END;
      373    13150    3                END;
      374    13151    2           END;
      375    13152    1      CALL DAF$WRITE(VECTOR(BLANK_LINE));
      376    13153    1      CALL DAF$WRITE(VECTOR(BLANK_LINE));
      377    13154    1      RETURN;
      378    13155        %EJECT;
PL6.E3A0      #001=DBD$UTIL1 File=DBD$UTIL1.:E05TSI                              TUE 07/29/97 13:11 Page:13
      379    13156    1   DISPSTAT: PROC;
      380    13157    2      CALL DBM$GETMEM(ROS$,ROSBASE,UN,SIZEC(ROSBASE),,SIZEC(ROSBASE))
      381    13158    3      WHENRETURN DO;
      382    13159    3           CALL DBM$PACK4(ROSBASE.JIT$,JIT$);
      383    13160    3           CALL DBM$GETMEM(JIT$,G$JIT,UN,SIZEC(G$JIT));
      384    13161    3           CALL DBM$PACK1(G$JIT.USR#,JITUN);
      385    13162    3           CALL DBM$PACK2(G$JIT.SYSID,SYSID);
      386    13163    3           CALL DBM$PACK2(G$JIT.PCD,PCD);
      387    13164    3           CALL DBM$PACK2(G$JIT.PCP,PCP);
      388    13165    3           CALL DBM$PACK2(G$JIT.PCDS,PCDS);
      389    13166    3           CALL DBM$PACK2(G$JIT.PCDDS,PCDDS);
      390    13167    3           CALL DBM$PACK2(G$JIT.PCC,PCC);
      391    13168    3           CALL DBM$PACK2(G$JIT.PCROS,PCROS);
      392    13169    3           CALL DBM$PACK2(G$JIT.NSPC,NSPC);
      393    13170    3           CALL DBM$PACK2(G$JIT.CQPC,CQPC);
      394    13171    3           CALL DBM$PACK2(G$JIT.PSEUDOPGS,PSEUDOPGS);
      395    13172    3           CALL DBM$PACK2(G$JIT.MAXMEM,MAXMEM);
      396    13173    3           CALL DBM$PACK1(G$JIT.SPROC#,SPROC);
      397    13174    3           CALL DBM$PACK2(G$JIT.SLIB#,SLIB);
      398    13175    3           CALL DBM$PACK4(G$JIT.CVM_REAL(0),CVM_REAL);
      399    13176    3           IF SLIB = 0
      400    13177    4           THEN DO;
      401    13178    4                ASDT_PCT_FLG(21) = 1;
      402    13179    4                ASDT_PCT_FLG(22) = 1;
      403    13180    4                END;
      404    13181    4           ELSE DO;
      405    13182    4                ASDT_PCT_FLG(21) = 0;
      406    13183    4                ASDT_PCT_FLG(22) = 0;
      407    13184    4                END;
      408    13185    3           CALL DBM$GETMEM(UHJIT$,ASDTBASE,UN,SIZEC(ASDTBASE),,SIZEC(ASDTBASE));
      409    13186    3           CALL DBM$GETMEM(UHJIT$+SHRD_SEG_OFF,SHRD_SEG,UN,SIZEC(SHRD_SEG),,SIZEC(
             13186                    SHRD_SEG));
      410    13187    3           CALL DBM$GETMEM(UHJIT$+SHRD_FLAG_OFF,SHRD_FLAG,UN,4,,4);
      411    13188    3           CALL DBM$PACK4(SHRD_FLAG,SHRD_FLAG);
      412    13189    3           PCT = 0;
      413    13190    3           CQFLG = ' ';
      414    13191    4           DO J = 0 TO 30;
PL6.E3A0      #001=DBD$UTIL1 File=DBD$UTIL1.:E05TSI                              TUE 07/29/97 13:11 Page:14
      415    13192    4                IF (ASDT_PCT_FLG(J)=1) AND (ASDTBASE.WORD1.V(J) )
      416    13193    4                  AND NOT(CVM_REAL.SEG(J) )
      417    13194    4                  AND NOT(SHRD_FLAG.SEG(J) )
      418    13195    4                  AND SHRD_SEG(J) = 0
      419    13196    5                THEN DO;
      420    13197    5                     CALL DBM$PACK2(ASDTBASE.WORD2(J),WORD2);
      421    13198    5                     PCT = PCT + WORD2.SIZE + 1;
      422    13199    5                     IF J =%GM_HAND_Q#
      423    13200    6                     THEN DO;
      424    13201    6                          ASDTBASE.WORD1.V(J) = '0'B;
      425    13202    6                          CALL DBM$PACK2(ASDTBASE.WORD1(J),MAP_PG#);
      426    13203    6                          IF MAP_PG# > SHUF_HI
      427    13204    6                          THEN CQFLG = 'I';
      428    13205    6                          END;
      429    13206    5                     END;
      430    13207    4                END;
      431    13208    3           PCT = PCT + PSEUDOPGS;
      432    13209    3           IF SPROC ~= 0
      433    13210    4           THEN DO;
      434    13211    4                SHRFLG = 'S';
      435    13212    4                END;
      436    13213    4           ELSE DO;
      437    13214    4                SHRFLG = ' ';
      438    13215    4                END;
      439    13216    3           CALL DAF$WRITE(VECTOR(STATFMT),
      440    13217    3             VECTOR(MODECHAR(G$JIT.MODE)),
      441    13218    3             VECTOR(G$JIT.ACCN),
      442    13219    3             VECTOR(G$JIT.UNAME),
      443    13220    3             VECTOR(SYSID),
      444    13221    3             VECTOR(MAXMEM),
      445    13222    3             VECTOR(PCT),
      446    13223    3             VECTOR(PCP),
      447    13224    3             VECTOR(SHRFLG),
      448    13225    3             VECTOR(PCD),
      449    13226    3             VECTOR(PCDS),
      450    13227    3             VECTOR(NSPC),
      451    13228    3             VECTOR(PCC),
PL6.E3A0      #001=DBD$UTIL1 File=DBD$UTIL1.:E05TSI                              TUE 07/29/97 13:11 Page:15
      452    13229    3             VECTOR(PCROS),
      453    13230    3             VECTOR(PCDDS),
      454    13231    3             VECTOR(CQPC),
      455    13232    3             VECTOR(CQFLG),
      456    13233    3             VECTOR(PSEUDOPGS));
      457    13234    3           END;
      458    13235    2      RETURN;
      459    13236
      460    13237    2   END DISPSTAT;
      461    13238        %EJECT;
PL6.E3A0      #001=DBD$UTIL1 File=DBD$UTIL1.:E05TSI                              TUE 07/29/97 13:11 Page:16
      462    13239        /*F*    NAME: DBD$MEMORY
      463    13240                PURPOSE: To process the MEMORY command for Feps.
      464    13241
      465    13242        */
      466    13243    1   DBD$MEMORY: ENTRY;
      467    13244    2      DO I = 0 TO 7;
      468    13245    2           ASDT_MON(I) = 0;
      469    13246    2           END;
      470    13247    2      DO I = 0 TO 29;
      471    13248    2           ASDT_USR(I) = 0;
      472    13249    2           END;
      473    13250    1      HJIT_COUNT = 0;
      474    13251    1      CALL DBM$GETMEM(BOBCAT$,G$BOBCAT,0,SIZEC(G$BOBCAT),,SIZEC(G$BOBCAT));
      475    13252    1      CALL DBM$PACK2(G$BOBCAT.MUIS,MUIS);
      476    13253    1      CALL DBM$PACK4(G$BOBCAT.SFDATA$,SFDATA$);
      477    13254    1      CALL DBM$PACK4(G$BOBCAT.MMDATA$,MMDATA$);
      478    13255
      479    13256    1      CALL DBM$GETMEM(SFDATA$,GJ$SDATA,0,SIZEC(GJ$SDATA),,SIZEC(GJ$SDATA));
      480    13257    1      CALL DBM$PACK2(GJ$SDATA.CUR_PROC,SHR_PROC);
      481    13258    1      CALL DBM$PACK2(GJ$SDATA.CUR_DATA,SHR_DATA);
      482    13259    1      CALL DBM$PACK2(GJ$SDATA.LIB_DATA,SHR_LIB);
      483    13260    1      SHR_DATA = SHR_DATA + SHR_LIB;
      484    13261
      485    13262    1      CALL DBM$GETMEM(MMDATA$,GM$DATA,0,SIZEC(GM$DATA),,SIZEC(GM$DATA));
      486    13263    1      CALL DBM$PACK2(GM$DATA.ASHUF,TOTAL_SHUF);
      487    13264    1      CALL DBM$PACK2(GM$DATA.NSHF,FRAG_NSHF);
      488    13265    1      CALL DBM$PACK2(GM$DATA.NSHF_CURR,USED_NSHF);
      489    13266    1      CALL DBM$PACK2(GM$DATA.SHUF,CURR_SHUF);
      490    13267    1      CALL DBM$PACK2(GM$DATA.NSHF,CURR_NSHF);
      491    13268    1      CALL DBM$PACK2(GM$DATA.HSHUF,CURR_HSHUF);
      492    13269    1      CALL DBM$PACK2(GM$DATA.SHUF_HI,SHUF_HI);
      493    13270    1      CALL DBM$PACK2(GM$DATA.MEM_LOW,MEM_LOW);
      494    13271    1      CALL DBM$PACK2(GM$DATA.MEM_HI,MEM_HI);
      495    13272    1      MEM_HI = MEM_HI + 1;
      496    13273    1      MAX_SHUF = SHUF_HI - MEM_LOW +1;
      497    13274    1      TOTAL_NSHF = FRAG_NSHF + USED_NSHF;
      498    13275
PL6.E3A0      #001=DBD$UTIL1 File=DBD$UTIL1.:E05TSI                              TUE 07/29/97 13:11 Page:17
      499    13276    1      CALL DBM$GETMEM(MHJIT$,ASDTBASE,0,SIZEC(ASDTBASE),,SIZEC(ASDTBASE));
      500    13277    2      DO I = 0 TO 30;
      501    13278    2           IF ASDTBASE.WORD1.V(I)
      502    13279    3           THEN DO;
      503    13280    3                CALL DBM$PACK2(ASDTBASE.WORD2(I),WORD2);
      504    13281    3                ASDT_MON(ASDT_MON_FLG(I)) = ASDT_MON(ASDT_MON_FLG(I)) +
      505    13282    3                  WORD2.SIZE + 1;
      506    13283    3                END;
      507    13284    2           END;
      508    13285    1      ASDT_MON(3) = ASDT_MON(3) + %GM_LOW_MEM_SZ;
      509    13286
      510    13287    2      DO UN = 1 TO MUIS;
      511    13288    3           CALL DBM$GETMEM(ROS$,ROSBASE,-UN,SIZEC(ROSBASE),,SIZEC(ROSBASE)) WHENRETURN
             13288                    DO;
      512    13289    3                CALL DBM$PACK4(ROSBASE.JIT$,JIT$);
      513    13290    3                CALL DBM$GETMEM(JIT$,G$JIT,-UN,SIZEC(G$JIT));
      514    13291    3                CALL DBM$PACK4(G$JIT.CVM_REAL(0),CVM_REAL);
      515    13292    3                CALL DBM$PACK1(G$JIT.SPROC#,SPROC);
      516    13293    3                CALL DBM$PACK1(G$JIT.SLIB#,SLIB);
      517    13294    3                CALL DBM$PACK2(G$JIT.PCP,PCP);
      518    13295    3                CALL DBM$PACK2(G$JIT.PSEUDOPGS,PSEUDOPGS);
      519    13296    3                IF SLIB = 0
      520    13297    4                THEN DO;
      521    13298    4                     ASDT_USR_FLG(29) = 2;
      522    13299    4                     ASDT_USR_FLG(30) = 2;
      523    13300    4                     END;
      524    13301    4                ELSE DO;
      525    13302    4                     ASDT_USR_FLG(29) = 0;
      526    13303    4                     ASDT_USR_FLG(30) = 0;
      527    13304    4                     END;
      528    13305    3                CALL DBM$GETMEM(UHJIT$,ASDTBASE,-UN,SIZEC(ASDTBASE),,SIZEC(ASDTBASE));
      529    13306    3                CALL DBM$GETMEM(UHJIT$+SHRD_SEG_OFF,SHRD_SEG,-UN,SIZEC(SHRD_SEG),,SIZEC
             13306                         (SHRD_SEG));
      530    13307    3                CALL DBM$GETMEM(UHJIT$+SHRD_FLAG_OFF,SHRD_FLAG,-UN,4,,4);
      531    13308    3                CALL DBM$PACK4(SHRD_FLAG,SHRD_FLAG);
      532    13309    4                DO I = 0 TO 30;
      533    13310    4                     IF (ASDTBASE.WORD1.V(I) ) AND NOT(CVM_REAL.SEG(I) )
PL6.E3A0      #001=DBD$UTIL1 File=DBD$UTIL1.:E05TSI                              TUE 07/29/97 13:11 Page:18
      534    13311    4                       AND NOT(SHRD_FLAG.SEG(I) )
      535    13312    4                       AND SHRD_SEG(I) = 0
      536    13313    5                     THEN DO;
      537    13314    5                          CALL DBM$PACK2(ASDTBASE.WORD2(I),WORD2);
      538    13315    5                          ASDT_USR(ASDT_USR_FLG(I)*5+G$JIT.MODE) =
      539    13316    5                            ASDT_USR(ASDT_USR_FLG(I)*5+G$JIT.MODE) + WORD2.SIZE + 1;
      540    13317
      541    13318    5                          IF DBD$FEPMAP$~=ADDR(NIL) AND ASDT_USR_FLG(I)~=0
      542    13319    6                          THEN DO;
      543    13320    6                               MAP_ERR = 0;
      544    13321    6                               ASDTBASE.WORD1.V(I) = '0'B;
      545    13322    6                               CALL DBM$PACK2(ASDTBASE.WORD1(I),MAP_PG#);
      546    13323
      547    13324    6                               IF DBD$FEPMAP$->B$FEPMAP(MAP_PG#) ~= '0'B
      548    13325    7                               THEN DO;
      549    13326        /*N*
      550    13327        */
      551    13328    7                                    IF (DBD$FEPMAP$->B$FEPMAP.TYP(MAP_PG#) = %
             13328                                             DBD_MAPTYP_SFILE#)
      552    13329    7                                      AND (I >= %GM_ISR1#) AND (I <= %GM_ISR7#)
      553    13330    7                                    THEN GOTO OK_4_NOW;
      554    13331
      555    13332    7                                    CALL DBD$FEPMAP_ERR(MAP_PG#);
      556    13333    7                                    MAP_ERR = 1;
      557    13334    7                                    END;
      558    13335
      559    13336    6                               DBD$FEPMAP$->B$FEPMAP.TYP(MAP_PG#) = %DBD_MAPTYP_USER#;
      560    13337    6                               DBD$FEPMAP$->B$FEPMAP.WHAT#(MAP_PG#) = UN;
      561    13338    6                               DBD$FEPMAP$->B$FEPMAP.INDX#(MAP_PG#) = I;
      562    13339    6                               DBD$FEPMAP$->B$FEPMAP.SIZE(MAP_PG#) = WORD2.SIZE + 1;
      563    13340
      564    13341    6                               IF MAP_ERR ~= 0
      565    13342    7                               THEN DO;
      566    13343    7                                    CALL DBD$FEPMAP_ERR(MAP_PG#);
      567    13344    7                                    END;
      568    13345    6   OK_4_NOW:                   ;
      569    13346    6                               END/*do if DBD$FEPMAP$ ~ nil */;
PL6.E3A0      #001=DBD$UTIL1 File=DBD$UTIL1.:E05TSI                              TUE 07/29/97 13:11 Page:19
      570    13347
      571    13348    5                          END;
      572    13349    4                     END;
      573    13350    3                IF SPROC = 0
      574    13351    4                THEN DO;
      575    13352    4                     ASDT_USR(1*5+G$JIT.MODE) = ASDT_USR(1*5+G$JIT.MODE) + PCP;
      576    13353    4                     ASDT_USR(2*5+G$JIT.MODE) = ASDT_USR(2*5+G$JIT.MODE) - PCP;
      577    13354    4                     END;
      578    13355    3                ASDT_USR(3*5+G$JIT.MODE) = ASDT_USR(3*5+G$JIT.MODE) + PSEUDOPGS;
      579    13356    3                END;
      580    13357    2           END;
      581    13358        %EJECT;
PL6.E3A0      #001=DBD$UTIL1 File=DBD$UTIL1.:E05TSI                              TUE 07/29/97 13:11 Page:20
      582    13359    1      IF DBD$FEPMAP$ ~= ADDR(NIL) THEN RETURN/*doing MAP command*/;
      583    13360
      584    13361    1      CALL DAF$INIT(MON_UTIL_RPT);
      585    13362    1      TOPIC = 'MONITOR';
      586    13363    1      MON_TOTAL = 0;
      587    13364    2      DO I = 1 TO 7;
      588    13365    2           CALL DAF$WRITE(VECTOR(TOTLFMT),VECTOR(TOPIC),
      589    13366    2             VECTOR(ASDT_MON_TTL(I)),VECTOR(ASDT_MON(I)),VECTOR(ASDT_MON(I)));
      590    13367    2           MON_TOTAL = MON_TOTAL + ASDT_MON(I);
      591    13368    2           END;
      592    13369    1      TITLE = 'Total Dedicated Memory..........';
      593    13370    1      CALL DAF$WRITE(VECTOR(TOTLFMT),VECTOR(TOPIC),
      594    13371    1        VECTOR(TITLE),VECTOR(MON_TOTAL),VECTOR(MON_TOTAL));
      595    13372    1      CALL DAF$WRITE(VECTOR(BLANK_LINE));
      596    13373    1      CALL DAF$WRITE(VECTOR(BLANK_LINE));
      597    13374
      598    13375        %EJECT;
PL6.E3A0      #001=DBD$UTIL1 File=DBD$UTIL1.:E05TSI                              TUE 07/29/97 13:11 Page:21
      599    13376    1      CALL DAF$WRITE(VECTOR(USR_UTIL_HDR));
      600    13377    1      TOPIC = 'FPRGS  ';
      601    13378    2      DO I = 1 TO 4;
      602    13379    2           TOTAL(I) = 0;
      603    13380    2           END;
      604    13381    2      DO I = 1 TO 5;
      605    13382    2           CALL DAF$WRITE(VECTOR(UTILFMT),VECTOR(TOPIC),
      606    13383    2             VECTOR(ASDT_USR_TTL(I)),VECTOR(ASDT_USR(I*5+1)),
      607    13384    2             VECTOR(ASDT_USR(I*5+2)),VECTOR(ASDT_USR(I*5+3)),
      608    13385    2             VECTOR(ASDT_USR(I*5+4)));
      609    13386    3           DO J = 1 TO 4;
      610    13387    3                TOTAL(J) = TOTAL(J) + ASDT_USR(I*5+J);
      611    13388    3                END;
      612    13389    2           END;
      613    13390    1      FPRG_TOTAL = 0;
      614    13391    2      DO I = 1 TO 4;
      615    13392    2           FPRG_TOTAL = FPRG_TOTAL + TOTAL(I);
      616    13393    2           END;
      617    13394    1      TITLE = 'Individual Totals...............';
      618    13395    1      CALL DAF$WRITE(VECTOR(UTILFMT),VECTOR(TOPIC),VECTOR(TITLE),
      619    13396    1        VECTOR(TOTAL(1)),VECTOR(TOTAL(2)),
      620    13397    1        VECTOR(TOTAL(3)),VECTOR(TOTAL(4)));
      621    13398    1      CALL DAF$WRITE(VECTOR(UTIL2FMT),VECTOR(TOPIC),VECTOR(TITLE),
      622    13399    1        VECTOR(TOTAL(1)),VECTOR(TOTAL(2)),
      623    13400    1        VECTOR(TOTAL(3)),VECTOR(TOTAL(4)));
      624    13401        %EJECT;
PL6.E3A0      #001=DBD$UTIL1 File=DBD$UTIL1.:E05TSI                              TUE 07/29/97 13:11 Page:22
      625    13402    1      CALL DAF$WRITE(VECTOR(BLANK_LINE));
      626    13403    1      CALL DAF$WRITE(VECTOR(BLANK_LINE));
      627    13404    1      AVAILABLE = MEM_HI - MON_TOTAL;
      628    13405    1      TOPIC = 'TOTAL  ';
      629    13406
      630    13407    1      TITLE = 'Memory Available on FEP.........';
      631    13408    1      CALL DAF$WRITE(VECTOR(TOTLFMT),VECTOR(TOPIC),VECTOR(TITLE),
      632    13409    1        VECTOR(MEM_HI),VECTOR(MEM_HI));
      633    13410
      634    13411    1      CALL DAF$WRITE(VECTOR(BLANK_LINE));
      635    13412
      636    13413    1      TITLE = 'Memory Dedicated by LCP6 Monitor';
      637    13414    1      CALL DAF$WRITE(VECTOR(TOTLFMT),VECTOR(TOPIC),VECTOR(TITLE),
      638    13415    1        VECTOR(MON_TOTAL),VECTOR(MON_TOTAL));
      639    13416
      640    13417    1      TITLE = 'Available for FPRGs and SFILEs';
      641    13418    1      CALL DAF$WRITE(VECTOR(TOTLFMT),VECTOR(TOPIC),VECTOR(TITLE),
      642    13419    1        VECTOR(AVAILABLE),VECTOR(AVAILABLE));
      643    13420
      644    13421    1      CALL DAF$WRITE(VECTOR(BLANK_LINE));
      645    13422
      646    13423    1      TITLE = 'System I/O Memory';
      647    13424    1      CALL DAF$WRITE(VECTOR(TOTLFMT),VECTOR(TOPIC),VECTOR(TITLE),
      648    13425    1        VECTOR(TOTAL_NSHF),VECTOR(TOTAL_NSHF));
      649    13426
      650    13427    1      TITLE = 'System Standard Memory';
      651    13428    1      CALL DAF$WRITE(VECTOR(TOTLFMT),VECTOR(TOPIC),VECTOR(TITLE),
      652    13429    1        VECTOR(MAX_SHUF),VECTOR(MAX_SHUF));
      653    13430
      654    13431    1      CALL DAF$WRITE(VECTOR(BLANK_LINE));
      655    13432
      656    13433    1      TITLE = 'Dedicated Handler/Library Memory';
      657    13434    1      CALL DAF$WRITE(VECTOR(TOTLFMT),VECTOR(TOPIC),VECTOR(TITLE),
      658    13435    1        VECTOR(CURR_HSHUF),VECTOR(CURR_HSHUF));
      659    13436
      660    13437    1      TITLE = 'Available Standard Memory';
      661    13438    1      CALL DAF$WRITE(VECTOR(TOTLFMT),VECTOR(TOPIC),VECTOR(TITLE),
PL6.E3A0      #001=DBD$UTIL1 File=DBD$UTIL1.:E05TSI                              TUE 07/29/97 13:11 Page:23
      662    13439    1        VECTOR(TOTAL_SHUF),VECTOR(TOTAL_SHUF));
      663    13440
      664    13441    1      CALL DAF$WRITE(VECTOR(BLANK_LINE));
      665    13442
      666    13443    1      TITLE = 'Memory used by FPRGs';
      667    13444    1      CALL DAF$WRITE(VECTOR(TOTLFMT),VECTOR(TOPIC),VECTOR(TITLE),
      668    13445    1        VECTOR(FPRG_TOTAL),VECTOR(FPRG_TOTAL));
      669    13446
      670    13447    1      TITLE = 'Memory used for SFILE Procedure';
      671    13448    1      CALL DAF$WRITE(VECTOR(TOTLFMT),VECTOR(TOPIC),VECTOR(TITLE),
      672    13449    1        VECTOR(SHR_PROC),VECTOR(SHR_PROC));
      673    13450
      674    13451    1      TITLE = 'Memory used for SFILE Data';
      675    13452    1      CALL DAF$WRITE(VECTOR(TOTLFMT),VECTOR(TOPIC),VECTOR(TITLE),
      676    13453    1        VECTOR(SHR_DATA),VECTOR(SHR_DATA));
      677    13454    1      TOTAL_USED = FPRG_TOTAL + SHR_PROC+SHR_DATA;
      678    13455
      679    13456    1      TITLE = 'Memory Used - Total';
      680    13457    1      CALL DAF$WRITE(VECTOR(TOTLFMT),VECTOR(TOPIC),VECTOR(TITLE),
      681    13458    1        VECTOR(TOTAL_USED),VECTOR(TOTAL_USED));
      682    13459
      683    13460    1      CALL DAF$WRITE(VECTOR(BLANK_LINE));
      684    13461
      685    13462    1      TITLE = 'Memory Free - Standard';
      686    13463    1      CALL DAF$WRITE(VECTOR(TOTLFMT),VECTOR(TOPIC),VECTOR(TITLE),
      687    13464    1        VECTOR(CURR_SHUF),VECTOR(CURR_SHUF));
      688    13465
      689    13466    1      TITLE = 'Memory Free - I/O';
      690    13467    1      CALL DAF$WRITE(VECTOR(TOTLFMT),VECTOR(TOPIC),VECTOR(TITLE),
      691    13468    1        VECTOR(CURR_NSHF),VECTOR(CURR_NSHF));
      692    13469    1      TOTAL_FREE = CURR_SHUF + CURR_NSHF;
      693    13470
      694    13471    1      TITLE = 'Memory Free - Total';
      695    13472    1      CALL DAF$WRITE(VECTOR(TOTLFMT),VECTOR(TOPIC),VECTOR(TITLE),
      696    13473    1        VECTOR(TOTAL_FREE),VECTOR(TOTAL_FREE));
      697    13474
      698    13475    1      CALL DAF$WRITE(VECTOR(BLANK_LINE));
PL6.E3A0      #001=DBD$UTIL1 File=DBD$UTIL1.:E05TSI                              TUE 07/29/97 13:11 Page:24
      699    13476
      700    13477    1      MISSING = MEM_HI - MON_TOTAL - FPRG_TOTAL - TOTAL_FREE - SHR_PROC - SHR_DATA;
      701    13478    1      TITLE = 'Memory Unaccounted For';
      702    13479    1      CALL DAF$WRITE(VECTOR(TOTLFMT),VECTOR(TOPIC),VECTOR(TITLE),
      703    13480    1        VECTOR(MISSING),VECTOR(MISSING));
      704    13481
      705    13482    1      DA_MAPERR = '0'B;
      706    13483    1      CALL DAF$WRITE(VECTOR(BLANK_LINE));
      707    13484    1      CALL DAF$WRITE(VECTOR(BLANK_LINE));
      708    13485    1      RETURN;
      709    13486
      710    13487    1   END DBD$UTIL1;

PL6.E3A0      #001=DBD$UTIL1 File=DBD$UTIL1.:E05TSI                              TUE 07/29/97 13:11 Page:25
--  Include file information  --

   GH_LCP6_M.:E05TOU  is referenced.
   G$BOBCAT_M.:E05TOU  is referenced.
   GH_SCHD_E.:E05TOU  is referenced.
   GH_SCHD_M.:E05TOU  is referenced.
   GJ_MACROS_M.:E05TOU  is referenced.
   DBD_FEP_E.:E05TOU  is referenced.
   DB_ANLZ_M.:E05TOU  is referenced.
   GM_MACRO_M.:E05TOU  is referenced.
   GM_VIRTUAL_E.:E05TOU  is referenced.
   G_LCP6_E.:E05TOU  is referenced.
   CP_6_C.:E05TOU  is referenced.
   CP_6.:E05TOU  cannot be made into a system file and is referenced.
   DA_FORMAT_C.:E05TOU  is referenced.
   G_JIT_M.:E05TOU  is referenced.
   XU_MACRO_C.:E05TOU  is referenced.
      No diagnostics issued in procedure DBD$UTIL1.

   Procedure DBD$UTIL1 requires 2595 words for executable code.
   Procedure DBD$UTIL1 requires 572 words of local(AUTO) storage.

    No errors detected in file DBD$UTIL1.:E05TSI    .

PL6.E3A0      #001=DBD$UTIL1 File=DBD$UTIL1.:E05TSI                              TUE 07/29/97 13:11 Page:26

 Object Unit name= DBD$UTIL1                                  File name= DBD$UTIL1.:E05TOU
 UTS= JUL 29 '97 13:11:10.04 TUE                              Compiler= PL-6/E31         Sev=      00
 SharedLib= :SHARED_SYSTEM                                    Alt SharedLib=


    ****  Control sections  ****

 Sect   Type Bound  Init  Size OctSiz  Section name(segment info)
    0   DCB   even  none     0      0  M$UC
    1   Data  even  none   190    276  DBD$UTIL1
    2  RoData even  UTS    349    535  DBD$UTIL1
    3   Proc  even  none  2595   5043  DBD$UTIL1
    4  RoData even  none    87    127  DBD$UTIL1

    ****  Entry defs  ****

                              Check   Calling
                             calling  sequence
  Sect OctLoc Primary Altret sequence   type   Parms  Name
     3      0   yes            yes      Std        1  DBD$UTIL1
     3      3                  yes      Std        0  DBD$SPY_RCV
     3     25                  yes      Std        1  DBD$SPY
     3    464                  yes      Std        1  DBD$STAT
     3   1565                  yes      Std        0  DBD$MEMORY
PL6.E3A0      #001=DBD$UTIL1 File=DBD$UTIL1.:E05TSI                              TUE 07/29/97 13:11 Page:27

  ****  Entry refs  ****

         Check        Calling
        calling       sequence
Altret sequence SRef   type   Args  Name
         yes           Std       2 DAD$SPYDOT
         yes           Std       2 DBM$PACK2
         yes           Std       2 DBM$PACK1
 yes     yes           Std      10 DBM$GETMEM
         yes           Std       2 DBM$PACK4
 yes     yes           Std       1 DAF$INIT
 yes     yes           Std       3 DBA$SELECTION
         yes           Std       1 DBD$FEPMAP_ERR
                       nStd      0 X66_AUTO_1
                       Std       0 B_CONSPOOL_D
                       nStd      0 X66_ARET

  ****  Data refs  ****

  Flags:  r = read only, s = secondary
Flgs Name                             Flgs Name                             Flgs Name
     M$UC                                  DBD$FEPMAP$                           DAF$WRITE
     DB_MUIS                               DA_MAPERR                             DB_CURRENT_USER
     B_VECTNIL

  ****  Segment refs  ****

  Flags:  r = read only, s = secondary
Flgs Name                             Flgs Name                             Flgs Name
     ISSID                                 NULLSID
PL6.E3A0      #001=DBD$UTIL1 File=DBD$UTIL1.:E05TSI                              TUE 07/29/97 13:11 Page:28


        1        1        /*M* DBD$UTIL1  Formats FEP tables and FEP memory displays   */
        2        2        /*T***********************************************************/
        3        3        /*T*                                                         */
        4        4        /*T* Copyright (c) Bull HN Information Systems Inc., 1997    */
        5        5        /*T*                                                         */
        6        6        /*T***********************************************************/
        7        7        /*X* PLM=3,IND=5,ENU=0,ECU=0     */
        8        8
        9        9        /*F*    NAME: DBD$UTIL1
       10       10                PURPOSE: Contains the formatting routines for:
       11       11                             SPY
       12       12                             STAT
       13       13                             MEMORY
       14       14
       15       15        */
       16       16        DBD$UTIL1: PROC(TOP);

     16  3 000000   000000 700200 xent  DBD$UTIL1    TSX0  ! X66_AUTO_1
         3 000001   001074 000001                    ZERO    572,1
         3 000002   000005 710000 3                  TRA     s:13067

       17       17
       18       18
       19       19        %INCLUDE XU_MACRO_C;
       20     3125        %INCLUDE G_JIT_M;
       21     3390        %INCLUDE DA_FORMAT_C;
       22     3632        %INCLUDE CP_6;
       23     9191        %INCLUDE G_LCP6_E;
       24     9449        %INCLUDE GM_VIRTUAL_E;
       25     9659        %INCLUDE GM_MACRO_M;
       26    10141        %INCLUDE DB_ANLZ_M;
       27    10308        %INCLUDE DBD_FEP_E;
       28    10319        %INCLUDE GJ_MACROS_M;
       29    10792        %INCLUDE GH_SCHD_M;
       30    10936        %INCLUDE GH_SCHD_E;
       31    11032        %INCLUDE G$BOBCAT_M;
PL6.E3A0      #001=DBD$UTIL1 File=DBD$UTIL1.:E05TSI                              TUE 07/29/97 13:11 Page:29
       32    11052        %INCLUDE GH_LCP6_M;
       33    11886
       34    11887        %PARSE$OUT (NAME=TOP,STCLASS=PARAM);
       35    11932        %PARSE$OUT (NAME=OUT,STCLASS=BASED);
       36    11977
       37    11978    1   DCL DBA$SELECTION ENTRY(3) ALTRET;
       38    11979    1   DCL DBM$GETMEM ENTRY(10) ALTRET;
       39    11980    1   DCL DBM$PACK2 ENTRY(2);
       40    11981    1   DCL DBM$PACK4 ENTRY(2);
       41    11982    1   DCL DAD$SPYDOT ENTRY(2);
       42    11983    1   DCL DAF$INIT ENTRY(1) ALTRET;
       43    11984    1   DCL DAA$VALUE ENTRY(3) ALTRET;
       44    11985    1   DCL DBM$SYSID2UN ENTRY(1) ALTRET;
       45    11986    1   DCL DBM$PACK1 ENTRY(2);
       46    11987    1   DCL DBD$FEPMAP_ERR ENTRY(1);
       47    11988
       48    11989        %G$JIT (FPTN=G$JIT,STCLASS=AUTO);
       49    12183        %G$USER (FPTN=G$U,STCLASS=AUTO);
       50    12194        %G$BOBCAT (FPTN=G$BOBCAT,STCLASS=AUTO);
       51    12207
       52    12208    1   DCL 1 ROSBASE AUTO,
       53    12209    1         2 DCBPTR$ UBIN,
       54    12210    1         2 JIT$ UBIN,
       55    12211    1         2 ALT$ UBIN,
       56    12212    1         2 STK$ UBIN;
       57    12213
       58    12214    1   DCL 1 FEPDCB AUTO,
       59    12215    1         2 ARS UBIN HALF CALIGNED,
       60    12216    1         2 TYC BIT(16) CALIGNED,
       61    12217    1         2 DVBYTE BIT(9),
       62    12218    1         2 EOMCHAR CHAR(1),
       63    12219    1         2 FFLG BIT(9),
       64    12220    1         2 DDEV BIT(9),
       65    12221    1         2 WIDTH UBIN HALF CALIGNED,
       66    12222    1         2 NAME,
       67    12223    1           3 L UBIN BYTE CALIGNED,
       68    12224    1           3 C CHAR(31),
PL6.E3A0      #001=DBD$UTIL1 File=DBD$UTIL1.:E05TSI                              TUE 07/29/97 13:11 Page:30
       69    12225    1         2 ACCT CHAR(8),
       70    12226    1         2 RES CHAR(4),
       71    12227    1         2 WSN CHAR(8);
       72    12228
       73    12229        %LIST;
       74    12230        %B$FEPMAP;
             12231    1   DCL 1 B$FEPMAP(0:0) BASED ALIGNED,
             12232    1         2 TYP UBIN BYTE CALIGNED,
             12233                                                /* 1=HHJIT   2=SFILE      3=USER      */
             12234    1         2 WHAT# UBIN BYTE CALIGNED,
             12235                                                /* INTLEVL   SFILE#       USER#       */
             12236    1         2 INDX# UBIN BYTE CALIGNED,
             12237                                                /* USR#      SFILE.SEG#   ASDT_INDX   */
             12238    1         2 SIZE UBIN BYTE CALIGNED;
             12239                                                /* # of pages #                       */
             12240        %EQU DBD_MAPTYP_HHJIT#=1;
             12241        %EQU DBD_MAPTYP_SFILE#=2;
             12242        %EQU DBD_MAPTYP_USER#=3;
       75    12244        %PLIST;
       76    12245
       77    12246    1   DCL 1 ASDTBASE (0:30) AUTO,
       78    12247    1         2 WORD1,
       79    12248    1           3 * BIT(1) UNAL,
       80    12249    1           3 V BIT(1) UNAL,
       81    12250    1           3 * BIT(16) UNAL,
       82    12251    1         2 WORD2,
       83    12252    1           3 * BIT(9) UNAL,
       84    12253    1           3 SIZE UBIN(9) UNAL;
       85    12254
       86    12255        %GM_DATA_TBL (FPTN=GM$DATA,TYPE=STRUCTURE,STCLASS=AUTO);
       87    12372        %GJ_SFILE_TBL (FPTN=GJ$SDATA,TYPE=STRUCTURE,STCLASS=AUTO);
       88    12465
       89    12466    1   DCL ASDT_USR (0:29) UBIN;
       90    12467    1   DCL ASDT_MON (0:7) UBIN;
       91    12468    1   DCL HJIT_COUNT UBIN;
       92    12469
       93    12470
PL6.E3A0      #001=DBD$UTIL1 File=DBD$UTIL1.:E05TSI                              TUE 07/29/97 13:11 Page:31
       94    12471        %EJECT;
PL6.E3A0      #001=DBD$UTIL1 File=DBD$UTIL1.:E05TSI                              TUE 07/29/97 13:11 Page:32
       95    12472    1   DCL I SBIN;
       96    12473    1   DCL J UBIN;
       97    12474    1   DCL K UBIN;
       98    12475
       99    12476    1   DCL UN SBIN;
      100    12477
      101    12478
      102    12479    1   DCL CPUMINS SBIN;
      103    12480    1   DCL CPUSECS SBIN;
      104    12481
      105    12482    1   DCL TUEXT SBIN;
      106    12483    1   DCL TUSVT UBIN;
      107    12484    1   DCL XTIME UBIN;
      108    12485    1   DCL STIME UBIN;
      109    12486    1   DCL MRT UBIN;
      110    12487    1   DCL SYSID UBIN;
      111    12488    1   DCL JITUN UBIN;
      112    12489    1   DCL CALCNT UBIN;
      113    12490    1   DCL STEPCC UBIN;
      114    12491    1   DCL DLL UBIN;
      115    12492    1   DCL DUL UBIN;
      116    12493    1   DCL PLL UBIN;
      117    12494    1   DCL PUL UBIN;
      118    12495    1   DCL LLL UBIN;
      119    12496    1   DCL LUL UBIN;
      120    12497
      121    12498    1   DCL PCD UBIN;
      122    12499    1   DCL PCP UBIN;
      123    12500    1   DCL PCL UBIN;
      124    12501    1   DCL PCDS UBIN;
      125    12502    1   DCL PCDDS UBIN;
      126    12503    1   DCL PCC UBIN;
      127    12504    1   DCL PCROS UBIN;
      128    12505    1   DCL PSEUDOPGS UBIN;
      129    12506    1   DCL NSPC UBIN;
      130    12507    1   DCL CQPC UBIN;
      131    12508
PL6.E3A0      #001=DBD$UTIL1 File=DBD$UTIL1.:E05TSI                              TUE 07/29/97 13:11 Page:33
      132    12509    1   DCL SPROC UBIN;
      133    12510    1   DCL SLIB UBIN;
      134    12511    1   DCL DB UBIN;
      135    12512
      136    12513    1   DCL PRIV_ACTIVE UBIN;
      137    12514    1   DCL PRIV_AUTH UBIN;
      138    12515    1   DCL PRIV_PRC UBIN;
      139    12516    1   DCL PPRIV UBIN;
      140    12517
      141    12518    1   DCL RNST UBIN;
      142    12519    1   DCL JUNK UBIN;
      143    12520
      144    12521    1   DCL 1 CVM_REAL UNAL,
      145    12522    1         2 * BIT(4),
      146    12523    1         2 SEG (0:31) BIT(1);
      147    12524
      148    12525    1   DCL 1 SHRD_FLAG UNAL,
      149    12526    1         2 * BIT(4),
      150    12527    1         2 SEG (0:31) BIT(1);
      151    12528
      152    12529    1   DCL SHRD_SEG(0:31) UBIN(9) UNAL;
      153    12530
      154    12531    1   DCL MAP_ERR UBIN;
      155    12532    1   DCL MAP_PG# UBIN;
      156    12533    1   DCL PCT UBIN;
      157    12534    1   DCL DCBPTR$ UBIN;
      158    12535    1   DCL JIT$ UBIN;
      159    12536    1   DCL DCB$ UBIN;
      160    12537    1   DCL DCBPTR UBIN;
      161    12538    1   DCL MON_TOTAL UBIN;
      162    12539    1   DCL TOTAL(0:4) UBIN;
      163    12540    1   DCL AVAILABLE UBIN;
      164    12541    1   DCL FPRG_TOTAL UBIN;
      165    12542    1   DCL TOTAL_FREE UBIN;
      166    12543    1   DCL TOTAL_USED UBIN;
      167    12544    1   DCL SHR_PROC UBIN;
      168    12545    1   DCL SHR_DATA UBIN;
PL6.E3A0      #001=DBD$UTIL1 File=DBD$UTIL1.:E05TSI                              TUE 07/29/97 13:11 Page:34
      169    12546    1   DCL SHR_LIB UBIN;
      170    12547    1   DCL MAX_SHUF UBIN;
      171    12548    1   DCL MEM_LOW UBIN;
      172    12549    1   DCL SHUF_HI UBIN;
      173    12550    1   DCL TOTAL_SHUF UBIN;
      174    12551    1   DCL TOTAL_NSHF UBIN;
      175    12552    1   DCL FRAG_NSHF UBIN;
      176    12553    1   DCL USED_NSHF UBIN;
      177    12554    1   DCL CURR_SHUF UBIN;
      178    12555    1   DCL CURR_NSHF UBIN;
      179    12556    1   DCL CURR_HSHUF UBIN;
      180    12557    1   DCL MISSING UBIN;
      181    12558    1   DCL MEM_HI UBIN;
      182    12559    1   DCL MUIS UBIN;
      183    12560    1   DCL MAXMEM UBIN;
      184    12561    1   DCL SHRFLG CHAR(1);
      185    12562    1   DCL CQFLG CHAR(1);
      186    12563    1   DCL RADIX UBIN;
      187    12564    1   DCL TOPIC CHAR(7);
      188    12565    1   DCL TITLE CHAR(32);
      189    12566    1   DCL 1 WORD2,
      190    12567    1         2 * UBIN(27) UNAL,
      191    12568    1         2 SIZE UBIN(9) UNAL;
      192    12569                                                /* CONSTANT and STATIC data           */
      193    12570    1   DCL ASDT_PCT_FLG (0:30) UBIN(9) STATIC INIT
      194    12571    1   (0,1,1,0,1,1,0,0,0,0,1,1,0,1,1,1,1,1,1,1,1,1,1,0,0,1,1,1,1,0,0);
      195    12572        /* ASDT_PCT_FLG is used by STATS to indicate if the segment is
      196    12573           chargeable to the user.
      197    12574        */
      198    12575
      199    12576    1   DCL ASDT_USR_FLG (0:30) UBIN(9) STATIC INIT
      200    12577    1   (0,3,5,0,3,3,0,0,0,0,2,2,2,2,2,2,2,2,2,2,2,2,2,2,2,2,2,2,4,0,0);
      201    12578        /* ASDT_USR_FLG indicates which pool into which the page count from
      202    12579           the user ASDT(I) is tobe added: 0-none  1-procedure  2-data
      203    12580                                           3-context 4-Hand CQ  5-Delta DD
      204    12581        */
      205    12582
PL6.E3A0      #001=DBD$UTIL1 File=DBD$UTIL1.:E05TSI                              TUE 07/29/97 13:11 Page:35
      206    12583    1   DCL ASDT_MON_FLG (0:30) UBIN(9) CONSTANT INIT
      207    12584    1   (0,3,7,0,3,3,3,0,2,2,0,0,0,0,0,0,2,2,2,2,2,0,0,7,0,5,4,6,0,0,1);
      208    12585
      209    12586    1   DCL SHRD_FLAG_OFF UBIN CONSTANT INIT(%G_UHJIT_SHRD_FLAG#);
      210    12587    1   DCL SHRD_SEG_OFF UBIN CONSTANT INIT(%G_UHJIT_SHRD_SEG#);
      211    12588
      212    12589    1   DCL ROS$ UBIN CONSTANT INIT(%GM_ROS_BASE);
      213    12590    1   DCL UHJIT$ UBIN CONSTANT INIT(%GM_UHJIT_BASE);
      214    12591    1   DCL BOBCAT$ UBIN CONSTANT INIT(%GM_BOBCAT_BASE);
      215    12592    1   DCL MHJIT$ UBIN CONSTANT INIT(%GM_MHJIT_BASE);
      216    12593    1   DCL MMDATA$ UBIN;
      217    12594    1   DCL SFDATA$ UBIN;
      218    12595
      219    12596        /*   SPY formating info
      220    12597        */
      221    12598    1   DCL RCV_SPYHDR CHAR(0) CONSTANT INIT(
      222    12599    1   'M Usr#  Identification           Sysid     CPU     M$LM');
      223    12600
      224    12601        %REPORT (NAME=SPYRPT,TRUNC=YES,EDIT=DAD$SPYDOT,HEADER=YES,TITLE='FEP SPY Report');
      225    12667        %HEADER (TEXT=
      226    12668        'M Usr#  Identification           Sysid     CPU     M$LM');
      227    12710    1   DCL SPYFMT CHAR(0) CONSTANT INIT(
      228    12711    1   '%A%4H%E   %>A,%>A %33-%6D%5D:%2ZD     %>A.%>A');
      229    12712    1   DCL MODECHAR(0:4) CHAR(1) CONSTANT INIT(' ','U','C','H','G');
      230    12713
      231    12714
      232    12715        /*  STAT formatting info
      233    12716        */
      234    12717        %REPORT (NAME=STAT_RPT,TRUNC=YES,HEADER=YES,TITLE='FEP STAT - User page counts');
      235    12783        %HEADER (LAST=NO,TEXT=
      236    12784        '                            Max Phys  Pro  Data  Dyn  Dyn Con  Ro Dbg   Cq HHJT');
      237    12826        %HEADER (LAST=YES,TEXT=
      238    12827        'M Identification     Sysid  Pgs  Pgs  Pgs   Pgs  Pgs  I/O Pgs Pgs Pgs  Pgs  Pgs');
      239    12869    1   DCL STATFMT CHAR(0) CONSTANT INIT(
      240    12870    1   '%A %>A,%>A %20-%6D%6D%5D%5D%A%5D%5D%5D%4D%4D%4D%5D%A%4D');
      241    12871
      242    12872
PL6.E3A0      #001=DBD$UTIL1 File=DBD$UTIL1.:E05TSI                              TUE 07/29/97 13:11 Page:36
      243    12873        /*  MEMORY formatting info
      244    12874        */
      245    12875        %REPORT (NAME=MON_UTIL_RPT,TRUNC=YES,HEADER=YES,TITLE='FEP Memory Usage');
      246    12941        %HEADER (LAST=NO,TEXT=
      247    12942        '                             FEP Memory Utilization');
      248    12984        %HEADER (LAST=YES,TEXT=' ');
      249    13026
      250    13027    1   DCL ASDT_MON_TTL (0:7) CHAR(32) CONSTANT INIT
      251    13028    1   ('Garbage',
      252    13029    1    'BIGFOOT',
      253    13030    1    'Procedure and Static Data',
      254    13031    1    'Cntx-TSTKM,UMHJIT,MHJIT,ROS,LRM',
      255    13032    1    'Communication Buffers',
      256    13033    1    'PPUT',
      257    13034    1    'BOBCAT',
      258    13035    1    'DELTA-Procedure and Dyn Data Seg');
      259    13036
      260    13037    1   DCL USR_UTIL_HDR CHAR(0) CONSTANT INIT(
      261    13038    1   '                                           USER  COMGP  HAND GHOST');
      262    13039    1   DCL UTILFMT CHAR(0) CONSTANT INIT('%7A:%32A  %5D  %5D %5D %5D');
      263    13040    1   DCL UTIL2FMT CHAR(0) CONSTANT INIT('%7A:%32A  .%4ZH  .%4ZH .%4ZH .%4ZH');
      264    13041    1   DCL TOTLFMT CHAR(0) CONSTANT INIT('%7A:%32A  %5D  .%4ZH');
      265    13042
      266    13043    1   DCL ASDT_USR_TTL (0:5) CHAR(32) CONSTANT INIT
      267    13044    1   ('Garbage',
      268    13045    1    'User Procedure',
      269    13046    1    'User Data-Static and Dynamic',
      270    13047    1    'Context-TSTACKM,ROS,UHJIT,HHJITs',
      271    13048    1    'Handler Q',
      272    13049    1    'DELTA-Dynamic Data');
      273    13050
      274    13051    1   DCL BLANK_LINE CHAR(1) CONSTANT INIT(' ');
      275    13052        %EJECT;
PL6.E3A0      #001=DBD$UTIL1 File=DBD$UTIL1.:E05TSI                              TUE 07/29/97 13:11 Page:37
      276    13053                                                /*  SYMREFs                           */
      277    13054    1   DCL DBD$FEPMAP$ PTR SYMREF;
      278    13055    1   DCL DAF$WRITE EPTR SYMREF;
      279    13056    1   DCL DB_MUIS UBIN SYMREF;
      280    13057    1   DCL DA_MAPERR BIT(36) SYMREF;
      281    13058    1   DCL DB_USRT$ UBIN SYMREF;
      282    13059    1   DCL DB_CURRENT_USER UBIN SYMREF;
      283    13060        %EJECT;
PL6.E3A0      #001=DBD$UTIL1 File=DBD$UTIL1.:E05TSI                              TUE 07/29/97 13:11 Page:38
      284    13061        /*F*    NAME: DBD$SPY
      285    13062                PURPOSE: To process the SPY command for FEPs.
      286    13063
      287    13064        */
      288    13065
      289    13066    1   DBD$SPY_RCV: ENTRY;

  13066  3 000003   000000 700200 xent  DBD$SPY_RCV  TSX0  ! X66_AUTO_1
         3 000004   001074 000001                    ZERO    572,1

      290    13067    1      UN = -DB_CURRENT_USER;

  13067  3 000005   000000 235003                    LDA     0,DU
         3 000006   000000 135000 xsym               SBLA    DB_CURRENT_USER
         3 000007   200543 755100                    STA     UN,,AUTO

      291    13068    1      CALL DAF$WRITE(VECTOR(RCV_SPYHDR));

  13068  3 000010   000002 630400 4                  EPPR0   2
         3 000011   000000 220000 xsym               LDX0    DAF$WRITE
         3 000012   000017 631400 xsym               EPPR1   B_VECTNIL+15
         3 000013   000000 701010                    TSX1    0,X0
         3 000014   000000 011000                    NOP     0

      292    13069    1      CALL DISPSPY;

  13069  3 000015   000112 701000 3                  TSX1    DISPSPY
         3 000016   000000 011000                    NOP     0

      293    13070    1      CALL DAF$WRITE(VECTOR(BLANK_LINE));

  13070  3 000017   000006 630400 4                  EPPR0   6
         3 000020   000000 220000 xsym               LDX0    DAF$WRITE
         3 000021   000017 631400 xsym               EPPR1   B_VECTNIL+15
         3 000022   000000 701010                    TSX1    0,X0
         3 000023   000000 011000                    NOP     0

PL6.E3A0      #001=DBD$UTIL1 File=DBD$UTIL1.:E05TSI                              TUE 07/29/97 13:11 Page:39
      294    13071    1      RETURN;

  13071  3 000024   000000 702200 xent               TSX2  ! X66_ARET

      295    13072
      296    13073    1   DBD$SPY: ENTRY(TOP);

  13073  3 000025   000000 700200 xent  DBD$SPY      TSX0  ! X66_AUTO_1
         3 000026   001074 000001                    ZERO    572,1

      297    13074    1      CALL DAF$INIT(SPYRPT);

  13074  3 000027   000007 630400 4                  EPPR0   7
         3 000030   000017 631400 xsym               EPPR1   B_VECTNIL+15
         3 000031   000000 701000 xent               TSX1    DAF$INIT
         3 000032   000000 011000                    NOP     0

      298    13075    1      IF TOP.NSUBLKS=0

  13075  3 000033   200003 470500                    LDP0    @TOP,,AUTO
         3 000034   000001 220100                    LDX0    1,,PR0
         3 000035   000053 601000 3                  TNZ     s:13083

      299    13076    2      THEN DO;

      300    13077    3           DO UN=-1 DOWNTO -DB_MUIS;

  13077  3 000036   000001 335007                    LCA     1,DL
         3 000037   200543 755100                    STA     UN,,AUTO
         3 000040   000045 710000 3                  TRA     s:13079+2

      301    13078    3                CALL DISPSPY;

  13078  3 000041   000112 701000 3                  TSX1    DISPSPY
         3 000042   000000 011000                    NOP     0

      302    13079    3                END;
PL6.E3A0      #001=DBD$UTIL1 File=DBD$UTIL1.:E05TSI                              TUE 07/29/97 13:11 Page:40

  13079  3 000043   000001 336007                    LCQ     1,DL
         3 000044   200543 056100                    ASQ     UN,,AUTO
         3 000045   000000 236003                    LDQ     0,DU
         3 000046   000000 136000 xsym               SBLQ    DB_MUIS
         3 000047   200543 116100                    CMPQ    UN,,AUTO
         3 000050   000041 604400 3                  TMOZ    s:13078

      303    13080    2           DA_MAPERR = '0'B;

  13080  3 000051   000000 450000 xsym               STZ     DA_MAPERR

      304    13081    2           END;

  13081  3 000052   000077 710000 3                  TRA     s:13089

      305    13082    2      ELSE DO;

      306    13083    3           DO I=0 TO TOP.NSUBLKS-1;

  13083  3 000053   200540 450100                    STZ     I,,AUTO
         3 000054   000072 710000 3                  TRA     s:13087+1

      307    13084    4                CALL DBA$SELECTION(TOP.SUBLK$(I)->OUT,UN) WHENRETURN DO;

  13084  3 000055   200003 470500                    LDP0    @TOP,,AUTO
         3 000056   200540 720100                    LXL0    I,,AUTO
         3 000057   000003 471510                    LDP1    3,X0,PR0
         3 000060   200543 633500                    EPPR3   UN,,AUTO
         3 000061   200707 453500                    STP3    SFDATA$+4,,AUTO
         3 000062   200706 451500                    STP1    SFDATA$+3,,AUTO
         3 000063   200706 630500                    EPPR0   SFDATA$+3,,AUTO
         3 000064   000020 631400 xsym               EPPR1   B_VECTNIL+16
         3 000065   000000 701000 xent               TSX1    DBA$SELECTION
         3 000066   000071 702000 3                  TSX2    s:13087

      308    13085    4                     CALL DISPSPY;
PL6.E3A0      #001=DBD$UTIL1 File=DBD$UTIL1.:E05TSI                              TUE 07/29/97 13:11 Page:41

  13085  3 000067   000112 701000 3                  TSX1    DISPSPY
         3 000070   000000 011000                    NOP     0

      309    13086    4                     END;

      310    13087    3                END;

  13087  3 000071   200540 054100                    AOS     I,,AUTO
         3 000072   200003 470500                    LDP0    @TOP,,AUTO
         3 000073   000001 236100                    LDQ     1,,PR0
         3 000074   000022 772000                    QRL     18
         3 000075   200540 116100                    CMPQ    I,,AUTO
         3 000076   000055 605400 3                  TPNZ    s:13084

      311    13088    2           END;

      312    13089    1      CALL DAF$WRITE(VECTOR(BLANK_LINE));

  13089  3 000077   000006 630400 4                  EPPR0   6
         3 000100   000000 220000 xsym               LDX0    DAF$WRITE
         3 000101   000017 631400 xsym               EPPR1   B_VECTNIL+15
         3 000102   000000 701010                    TSX1    0,X0
         3 000103   000000 011000                    NOP     0

      313    13090    1      CALL DAF$WRITE(VECTOR(BLANK_LINE));

  13090  3 000104   000006 630400 4                  EPPR0   6
         3 000105   000000 220000 xsym               LDX0    DAF$WRITE
         3 000106   000017 631400 xsym               EPPR1   B_VECTNIL+15
         3 000107   000000 701010                    TSX1    0,X0
         3 000110   000000 011000                    NOP     0

      314    13091    1      RETURN;

  13091  3 000111   000000 702200 xent               TSX2  ! X66_ARET

PL6.E3A0      #001=DBD$UTIL1 File=DBD$UTIL1.:E05TSI                              TUE 07/29/97 13:11 Page:42
      315    13092        %EJECT;
PL6.E3A0      #001=DBD$UTIL1 File=DBD$UTIL1.:E05TSI                              TUE 07/29/97 13:11 Page:43
      316    13093    1   DISPSPY: PROC;

  13093  3 000112   200704 741300       DISPSPY      STX1  ! SFDATA$+1,,AUTO

      317    13094    2      CALL DBM$GETMEM(ROS$,ROSBASE,UN,SIZEC(ROSBASE),,SIZEC(ROSBASE))

  13094  3 000113   000011 236000 4                  LDQ     9
         3 000114   000001 235000 xsym               LDA     B_VECTNIL+1
         3 000115   200712 757100                    STAQ    SFDATA$+7,,AUTO
         3 000116   000011 236000 4                  LDQ     9
         3 000117   200711 756100                    STQ     SFDATA$+6,,AUTO
         3 000120   200543 630500                    EPPR0   UN,,AUTO
         3 000121   200710 450500                    STP0    SFDATA$+5,,AUTO
         3 000122   200365 631500                    EPPR1   ROSBASE,,AUTO
         3 000123   200707 451500                    STP1    SFDATA$+4,,AUTO
         3 000124   000012 236000 4                  LDQ     10
         3 000125   200706 756100                    STQ     SFDATA$+3,,AUTO
         3 000126   200706 630500                    EPPR0   SFDATA$+3,,AUTO
         3 000127   000024 631400 xsym               EPPR1   B_VECTNIL+20
         3 000130   000000 701000 xent               TSX1    DBM$GETMEM
         3 000131   000462 702000 3                  TSX2    s:13122

      318    13095    3      WHENRETURN DO;

      319    13096    3           CALL DBM$PACK4(ROSBASE.DCBPTR$,DCBPTR$);

  13096  3 000132   200625 630500                    EPPR0   DCBPTR$,,AUTO
         3 000133   200707 450500                    STP0    SFDATA$+4,,AUTO
         3 000134   200365 631500                    EPPR1   ROSBASE,,AUTO
         3 000135   200706 451500                    STP1    SFDATA$+3,,AUTO
         3 000136   200706 630500                    EPPR0   SFDATA$+3,,AUTO
         3 000137   000020 631400 xsym               EPPR1   B_VECTNIL+16
         3 000140   000000 701000 xent               TSX1    DBM$PACK4
         3 000141   000000 011000                    NOP     0

      320    13097    3           CALL DBM$PACK4(ROSBASE.JIT$,JIT$);

PL6.E3A0      #001=DBD$UTIL1 File=DBD$UTIL1.:E05TSI                              TUE 07/29/97 13:11 Page:44
  13097  3 000142   200626 630500                    EPPR0   JIT$,,AUTO
         3 000143   200707 450500                    STP0    SFDATA$+4,,AUTO
         3 000144   200366 631500                    EPPR1   ROSBASE+1,,AUTO
         3 000145   200706 451500                    STP1    SFDATA$+3,,AUTO
         3 000146   200706 630500                    EPPR0   SFDATA$+3,,AUTO
         3 000147   000020 631400 xsym               EPPR1   B_VECTNIL+16
         3 000150   000000 701000 xent               TSX1    DBM$PACK4
         3 000151   000000 011000                    NOP     0

      321    13098    3           CALL DBM$GETMEM(JIT$,G$JIT,UN,SIZEC(G$JIT));

  13098  3 000152   000014 236000 4                  LDQ     12
         3 000153   200711 756100                    STQ     SFDATA$+6,,AUTO
         3 000154   200543 630500                    EPPR0   UN,,AUTO
         3 000155   200710 450500                    STP0    SFDATA$+5,,AUTO
         3 000156   200004 631500                    EPPR1   G$JIT,,AUTO
         3 000157   200707 451500                    STP1    SFDATA$+4,,AUTO
         3 000160   200626 633500                    EPPR3   JIT$,,AUTO
         3 000161   200706 453500                    STP3    SFDATA$+3,,AUTO
         3 000162   200706 630500                    EPPR0   SFDATA$+3,,AUTO
         3 000163   000022 631400 xsym               EPPR1   B_VECTNIL+18
         3 000164   000000 701000 xent               TSX1    DBM$GETMEM
         3 000165   000000 011000                    NOP     0

      322    13099    3           CALL DBM$PACK1(G$JIT.USR#,JITUN);

  13099  3 000166   200554 630500                    EPPR0   JITUN,,AUTO
         3 000167   200707 450500                    STP0    SFDATA$+4,,AUTO
         3 000170   200710 452500                    STP2    SFDATA$+5,,AUTO
         3 000171   200710 236100                    LDQ     SFDATA$+5,,AUTO
         3 000172   000015 036000 4                  ADLQ    13
         3 000173   200706 756100                    STQ     SFDATA$+3,,AUTO
         3 000174   200706 630500                    EPPR0   SFDATA$+3,,AUTO
         3 000175   000020 631400 xsym               EPPR1   B_VECTNIL+16
         3 000176   000000 701000 xent               TSX1    DBM$PACK1
         3 000177   000000 011000                    NOP     0

PL6.E3A0      #001=DBD$UTIL1 File=DBD$UTIL1.:E05TSI                              TUE 07/29/97 13:11 Page:45
      323    13100    3           CALL DBM$PACK2(G$JIT.SYSID,SYSID);

  13100  3 000200   200553 630500                    EPPR0   SYSID,,AUTO
         3 000201   200707 450500                    STP0    SFDATA$+4,,AUTO
         3 000202   200710 452500                    STP2    SFDATA$+5,,AUTO
         3 000203   200710 236100                    LDQ     SFDATA$+5,,AUTO
         3 000204   000016 036000 4                  ADLQ    14
         3 000205   200706 756100                    STQ     SFDATA$+3,,AUTO
         3 000206   200706 630500                    EPPR0   SFDATA$+3,,AUTO
         3 000207   000020 631400 xsym               EPPR1   B_VECTNIL+16
         3 000210   000000 701000 xent               TSX1    DBM$PACK2
         3 000211   000000 011000                    NOP     0

      324    13101    3           CALL DBM$PACK4(G$JIT.TUEXT,TUEXT);

  13101  3 000212   200546 630500                    EPPR0   TUEXT,,AUTO
         3 000213   200707 450500                    STP0    SFDATA$+4,,AUTO
         3 000214   200026 631500                    EPPR1   G$JIT+18,,AUTO
         3 000215   200706 451500                    STP1    SFDATA$+3,,AUTO
         3 000216   200706 630500                    EPPR0   SFDATA$+3,,AUTO
         3 000217   000020 631400 xsym               EPPR1   B_VECTNIL+16
         3 000220   000000 701000 xent               TSX1    DBM$PACK4
         3 000221   000000 011000                    NOP     0

      325    13102    3           CALL DBM$PACK4(G$JIT.TUSVT, TUSVT);

  13102  3 000222   200547 630500                    EPPR0   TUSVT,,AUTO
         3 000223   200707 450500                    STP0    SFDATA$+4,,AUTO
         3 000224   200027 631500                    EPPR1   G$JIT+19,,AUTO
         3 000225   200706 451500                    STP1    SFDATA$+3,,AUTO
         3 000226   200706 630500                    EPPR0   SFDATA$+3,,AUTO
         3 000227   000020 631400 xsym               EPPR1   B_VECTNIL+16
         3 000230   000000 701000 xent               TSX1    DBM$PACK4
         3 000231   000000 011000                    NOP     0

      326    13103    3           CALL DBM$PACK4(G$JIT.XTIME, XTIME);

PL6.E3A0      #001=DBD$UTIL1 File=DBD$UTIL1.:E05TSI                              TUE 07/29/97 13:11 Page:46
  13103  3 000232   200550 630500                    EPPR0   XTIME,,AUTO
         3 000233   200707 450500                    STP0    SFDATA$+4,,AUTO
         3 000234   200071 631500                    EPPR1   G$JIT+53,,AUTO
         3 000235   200706 451500                    STP1    SFDATA$+3,,AUTO
         3 000236   200706 630500                    EPPR0   SFDATA$+3,,AUTO
         3 000237   000020 631400 xsym               EPPR1   B_VECTNIL+16
         3 000240   000000 701000 xent               TSX1    DBM$PACK4
         3 000241   000000 011000                    NOP     0

      327    13104    3           CALL DBM$PACK4(G$JIT.STIME, STIME);

  13104  3 000242   200551 630500                    EPPR0   STIME,,AUTO
         3 000243   200707 450500                    STP0    SFDATA$+4,,AUTO
         3 000244   200072 631500                    EPPR1   G$JIT+54,,AUTO
         3 000245   200706 451500                    STP1    SFDATA$+3,,AUTO
         3 000246   200706 630500                    EPPR0   SFDATA$+3,,AUTO
         3 000247   000020 631400 xsym               EPPR1   B_VECTNIL+16
         3 000250   000000 701000 xent               TSX1    DBM$PACK4
         3 000251   000000 011000                    NOP     0

      328    13105    3           TUEXT=(TUEXT+TUSVT+XTIME+STIME+60)/120; /* SECONDS                    */

  13105  3 000252   200546 236100                    LDQ     TUEXT,,AUTO
         3 000253   200547 036100                    ADLQ    TUSVT,,AUTO
         3 000254   200550 036100                    ADLQ    XTIME,,AUTO
         3 000255   200551 036100                    ADLQ    STIME,,AUTO
         3 000256   000074 036007                    ADLQ    60,DL
         3 000257   000170 506007                    DIV     120,DL
         3 000260   200546 756100                    STQ     TUEXT,,AUTO

      329    13106    3           CPUMINS=TUEXT/60;

  13106  3 000261   000074 506007                    DIV     60,DL
         3 000262   200544 756100                    STQ     CPUMINS,,AUTO

      330    13107    3           CPUSECS=MOD(TUEXT,60);

PL6.E3A0      #001=DBD$UTIL1 File=DBD$UTIL1.:E05TSI                              TUE 07/29/97 13:11 Page:47
  13107  3 000263   200546 236100                    LDQ     TUEXT,,AUTO
         3 000264   000074 506007                    DIV     60,DL
         3 000265   200545 755100                    STA     CPUSECS,,AUTO

      331    13108    3           CALL DBM$GETMEM(DCBPTR$+%(G_M$LM#*2),DCBPTR,UN,SIZEC(DCB$));

  13108  3 000266   200625 236100                    LDQ     DCBPTR$,,AUTO
         3 000267   000004 036007                    ADLQ    4,DL
         3 000270   200706 756100                    STQ     SFDATA$+3,,AUTO
         3 000271   000017 236000 4                  LDQ     15
         3 000272   200713 756100                    STQ     SFDATA$+8,,AUTO
         3 000273   200543 630500                    EPPR0   UN,,AUTO
         3 000274   200712 450500                    STP0    SFDATA$+7,,AUTO
         3 000275   200630 631500                    EPPR1   DCBPTR,,AUTO
         3 000276   200711 451500                    STP1    SFDATA$+6,,AUTO
         3 000277   200706 633500                    EPPR3   SFDATA$+3,,AUTO
         3 000300   200710 453500                    STP3    SFDATA$+5,,AUTO
         3 000301   200710 630500                    EPPR0   SFDATA$+5,,AUTO
         3 000302   000022 631400 xsym               EPPR1   B_VECTNIL+18
         3 000303   000000 701000 xent               TSX1    DBM$GETMEM
         3 000304   000000 011000                    NOP     0

      332    13109    3           CALL DBM$PACK4(DCBPTR,DCB$);

  13109  3 000305   200627 630500                    EPPR0   DCB$,,AUTO
         3 000306   200707 450500                    STP0    SFDATA$+4,,AUTO
         3 000307   200630 631500                    EPPR1   DCBPTR,,AUTO
         3 000310   200706 451500                    STP1    SFDATA$+3,,AUTO
         3 000311   200706 630500                    EPPR0   SFDATA$+3,,AUTO
         3 000312   000020 631400 xsym               EPPR1   B_VECTNIL+16
         3 000313   000000 701000 xent               TSX1    DBM$PACK4
         3 000314   000000 011000                    NOP     0

      333    13110    3           CALL DBM$GETMEM(DCB$,FEPDCB,UN,SIZEC(FEPDCB));

  13110  3 000315   000021 236000 4                  LDQ     17
         3 000316   200711 756100                    STQ     SFDATA$+6,,AUTO
PL6.E3A0      #001=DBD$UTIL1 File=DBD$UTIL1.:E05TSI                              TUE 07/29/97 13:11 Page:48
         3 000317   200543 630500                    EPPR0   UN,,AUTO
         3 000320   200710 450500                    STP0    SFDATA$+5,,AUTO
         3 000321   200371 631500                    EPPR1   FEPDCB,,AUTO
         3 000322   200707 451500                    STP1    SFDATA$+4,,AUTO
         3 000323   200627 633500                    EPPR3   DCB$,,AUTO
         3 000324   200706 453500                    STP3    SFDATA$+3,,AUTO
         3 000325   200706 630500                    EPPR0   SFDATA$+3,,AUTO
         3 000326   000022 631400 xsym               EPPR1   B_VECTNIL+18
         3 000327   000000 701000 xent               TSX1    DBM$GETMEM
         3 000330   000000 011000                    NOP     0

      334    13111    3           CALL DAF$WRITE(VECTOR(SPYFMT),
      335    13112    3             VECTOR(MODECHAR(G$JIT.MODE)),
      336    13113    3             VECTOR(JITUN),
      337    13114    3             VECTOR(G$JIT.ACCN),
      338    13115    3             VECTOR(G$JIT.UNAME),
      339    13116    3             VECTOR(SYSID),
      340    13117    3             VECTOR(CPUMINS),
      341    13118    3             VECTOR(CPUSECS),
      342    13119    3             VECTOR(FEPDCB.NAME.C),

  13119  3 000331   200006 236100                    LDQ     G$JIT+2,,AUTO
         3 000332   000033 772000                    QRL     27
         3 000333   177640 235007                    LDA     65440,DL
         3 000334   000020 736000                    QLS     16
         3 000335   000024 036000 4                  ADLQ    20
         3 000336   200706 757100                    STAQ    SFDATA$+3,,AUTO
         3 000337   777640 235007                    LDA     -96,DL
         3 000340   200710 452500                    STP2    SFDATA$+5,,AUTO
         3 000341   200710 236100                    LDQ     SFDATA$+5,,AUTO
         3 000342   000554 036003                    ADLQ    364,DU
         3 000343   200712 757100                    STAQ    SFDATA$+7,,AUTO
         3 000344   000025 235000 4                  LDA     21
         3 000345   200714 452500                    STP2    SFDATA$+9,,AUTO
         3 000346   200714 236100                    LDQ     SFDATA$+9,,AUTO
         3 000347   000007 036003                    ADLQ    7,DU
         3 000350   200716 757100                    STAQ    SFDATA$+11,,AUTO
PL6.E3A0      #001=DBD$UTIL1 File=DBD$UTIL1.:E05TSI                              TUE 07/29/97 13:11 Page:49
         3 000351   000026 235000 4                  LDA     22
         3 000352   200720 452500                    STP2    SFDATA$+13,,AUTO
         3 000353   200720 236100                    LDQ     SFDATA$+13,,AUTO
         3 000354   000011 036003                    ADLQ    9,DU
         3 000355   200722 757100                    STAQ    SFDATA$+15,,AUTO
         3 000356   777640 235007                    LDA     -96,DL
         3 000357   200724 452500                    STP2    SFDATA$+17,,AUTO
         3 000360   200724 236100                    LDQ     SFDATA$+17,,AUTO
         3 000361   000553 036003                    ADLQ    363,DU
         3 000362   200726 757100                    STAQ    SFDATA$+19,,AUTO
         3 000363   777640 235007                    LDA     -96,DL
         3 000364   200730 452500                    STP2    SFDATA$+21,,AUTO
         3 000365   200730 236100                    LDQ     SFDATA$+21,,AUTO
         3 000366   000544 036003                    ADLQ    356,DU
         3 000367   200732 757100                    STAQ    SFDATA$+23,,AUTO
         3 000370   777640 235007                    LDA     -96,DL
         3 000371   200734 452500                    STP2    SFDATA$+25,,AUTO
         3 000372   200734 236100                    LDQ     SFDATA$+25,,AUTO
         3 000373   000545 036003                    ADLQ    357,DU
         3 000374   200736 757100                    STAQ    SFDATA$+27,,AUTO
         3 000375   000027 235000 4                  LDA     23
         3 000376   200740 452500                    STP2    SFDATA$+29,,AUTO
         3 000377   200740 236100                    LDQ     SFDATA$+29,,AUTO
         3 000400   000030 036000 4                  ADLQ    24
         3 000401   200742 757100                    STAQ    SFDATA$+31,,AUTO
         3 000402   000025 235000 4                  LDA     21
         3 000403   200744 452500                    STP2    SFDATA$+33,,AUTO
         3 000404   200744 236100                    LDQ     SFDATA$+33,,AUTO
         3 000405   000031 036000 4                  ADLQ    25
         3 000406   200750 757100                    STAQ    SFDATA$+37,,AUTO
         3 000407   200706 237100                    LDAQ    SFDATA$+3,,AUTO
         3 000410   200746 757100                    STAQ    SFDATA$+35,,AUTO
         3 000411   200712 237100                    LDAQ    SFDATA$+7,,AUTO
         3 000412   200752 757100                    STAQ    SFDATA$+39,,AUTO
         3 000413   200716 237100                    LDAQ    SFDATA$+11,,AUTO
         3 000414   200754 757100                    STAQ    SFDATA$+41,,AUTO
         3 000415   200722 237100                    LDAQ    SFDATA$+15,,AUTO
PL6.E3A0      #001=DBD$UTIL1 File=DBD$UTIL1.:E05TSI                              TUE 07/29/97 13:11 Page:50
         3 000416   200756 757100                    STAQ    SFDATA$+43,,AUTO
         3 000417   200726 237100                    LDAQ    SFDATA$+19,,AUTO
         3 000420   200760 757100                    STAQ    SFDATA$+45,,AUTO
         3 000421   200732 237100                    LDAQ    SFDATA$+23,,AUTO
         3 000422   200762 757100                    STAQ    SFDATA$+47,,AUTO
         3 000423   200736 237100                    LDAQ    SFDATA$+27,,AUTO
         3 000424   200764 757100                    STAQ    SFDATA$+49,,AUTO
         3 000425   200742 237100                    LDAQ    SFDATA$+31,,AUTO
         3 000426   200766 757100                    STAQ    SFDATA$+51,,AUTO
         3 000427   200750 237100                    LDAQ    SFDATA$+37,,AUTO
         3 000430   200770 757100                    STAQ    SFDATA$+53,,AUTO
         3 000431   200770 630500                    EPPR0   SFDATA$+53,,AUTO
         3 000432   201003 450500                    STP0    SFDATA$+64,,AUTO
         3 000433   200766 631500                    EPPR1   SFDATA$+51,,AUTO
         3 000434   201002 451500                    STP1    SFDATA$+63,,AUTO
         3 000435   200764 633500                    EPPR3   SFDATA$+49,,AUTO
         3 000436   201001 453500                    STP3    SFDATA$+62,,AUTO
         3 000437   200762 634500                    EPPR4   SFDATA$+47,,AUTO
         3 000440   201000 454500                    STP4    SFDATA$+61,,AUTO
         3 000441   200760 635500                    EPPR5   SFDATA$+45,,AUTO
         3 000442   200777 455500                    STP5    SFDATA$+60,,AUTO
         3 000443   200756 636500                    EPPR6   SFDATA$+43,,AUTO
         3 000444   200776 456500                    STP6    SFDATA$+59,,AUTO
         3 000445   200754 637500                    EPPR7   SFDATA$+41,,AUTO
         3 000446   200775 457500                    STP7    SFDATA$+58,,AUTO
         3 000447   200752 630500                    EPPR0   SFDATA$+39,,AUTO
         3 000450   200774 450500                    STP0    SFDATA$+57,,AUTO
         3 000451   200746 630500                    EPPR0   SFDATA$+35,,AUTO
         3 000452   200773 450500                    STP0    SFDATA$+56,,AUTO
         3 000453   000033 236000 4                  LDQ     27
         3 000454   200772 756100                    STQ     SFDATA$+55,,AUTO
         3 000455   200772 630500                    EPPR0   SFDATA$+55,,AUTO
         3 000456   000000 220000 xsym               LDX0    DAF$WRITE
         3 000457   000032 631400 4                  EPPR1   26
         3 000460   000000 701010                    TSX1    0,X0
         3 000461   000000 011000                    NOP     0

PL6.E3A0      #001=DBD$UTIL1 File=DBD$UTIL1.:E05TSI                              TUE 07/29/97 13:11 Page:51
      343    13120    3             VECTOR(FEPDCB.ACCT));
      344    13121    3           END;

      345    13122    2      RETURN;

  13122  3 000462   200704 221300                    LDX1  ! SFDATA$+1,,AUTO
         3 000463   000001 702211                    TSX2  ! 1,X1

      346    13123
      347    13124    2   END DISPSPY;
      348    13125        %EJECT;
PL6.E3A0      #001=DBD$UTIL1 File=DBD$UTIL1.:E05TSI                              TUE 07/29/97 13:11 Page:52
      349    13126        /*F*    NAME: DBD$STAT
      350    13127                PURPOSE: To process the STAT command for FEPs.
      351    13128
      352    13129        */
      353    13130    1   DBD$STAT: ENTRY(TOP);

  13130  3 000464   000000 700200 xent  DBD$STAT     TSX0  ! X66_AUTO_1
         3 000465   001074 000001                    ZERO    572,1

      354    13131
      355    13132    1      CALL DBM$GETMEM(BOBCAT$,G$BOBCAT,0,SIZEC(G$BOBCAT),,SIZEC(G$BOBCAT));

  13132  3 000466   000035 236000 4                  LDQ     29
         3 000467   000001 235000 xsym               LDA     B_VECTNIL+1
         3 000470   200712 757100                    STAQ    SFDATA$+7,,AUTO
         3 000471   000036 237000 4                  LDAQ    30
         3 000472   200710 757100                    STAQ    SFDATA$+5,,AUTO
         3 000473   200300 630500                    EPPR0   G$BOBCAT,,AUTO
         3 000474   200707 450500                    STP0    SFDATA$+4,,AUTO
         3 000475   000040 236000 4                  LDQ     32
         3 000476   200706 756100                    STQ     SFDATA$+3,,AUTO
         3 000477   200706 630500                    EPPR0   SFDATA$+3,,AUTO
         3 000500   000024 631400 xsym               EPPR1   B_VECTNIL+20
         3 000501   000000 701000 xent               TSX1    DBM$GETMEM
         3 000502   000000 011000                    NOP     0

      356    13133    1      CALL DBM$PACK4(G$BOBCAT.MMDATA$,MMDATA$);

  13133  3 000503   200702 630500                    EPPR0   MMDATA$,,AUTO
         3 000504   200707 450500                    STP0    SFDATA$+4,,AUTO
         3 000505   200303 631500                    EPPR1   G$BOBCAT+3,,AUTO
         3 000506   200706 451500                    STP1    SFDATA$+3,,AUTO
         3 000507   200706 630500                    EPPR0   SFDATA$+3,,AUTO
         3 000510   000020 631400 xsym               EPPR1   B_VECTNIL+16
         3 000511   000000 701000 xent               TSX1    DBM$PACK4
         3 000512   000000 011000                    NOP     0

PL6.E3A0      #001=DBD$UTIL1 File=DBD$UTIL1.:E05TSI                              TUE 07/29/97 13:11 Page:53
      357    13134    1      CALL DBM$GETMEM(MMDATA$,GM$DATA,0,SIZEC(GM$DATA),,SIZEC(GM$DATA));

  13134  3 000513   000042 236000 4                  LDQ     34
         3 000514   000001 235000 xsym               LDA     B_VECTNIL+1
         3 000515   200712 757100                    STAQ    SFDATA$+7,,AUTO
         3 000516   000044 237000 4                  LDAQ    36
         3 000517   200710 757100                    STAQ    SFDATA$+5,,AUTO
         3 000520   200450 630500                    EPPR0   GM$DATA,,AUTO
         3 000521   200707 450500                    STP0    SFDATA$+4,,AUTO
         3 000522   200702 631500                    EPPR1   MMDATA$,,AUTO
         3 000523   200706 451500                    STP1    SFDATA$+3,,AUTO
         3 000524   200706 630500                    EPPR0   SFDATA$+3,,AUTO
         3 000525   000024 631400 xsym               EPPR1   B_VECTNIL+20
         3 000526   000000 701000 xent               TSX1    DBM$GETMEM
         3 000527   000000 011000                    NOP     0

      358    13135    1      CALL DBM$PACK2(GM$DATA.SHUF_HI,SHUF_HI);

  13135  3 000530   200650 630500                    EPPR0   SHUF_HI,,AUTO
         3 000531   200707 450500                    STP0    SFDATA$+4,,AUTO
         3 000532   200451 631500                    EPPR1   GM$DATA+1,,AUTO
         3 000533   200706 451500                    STP1    SFDATA$+3,,AUTO
         3 000534   200706 630500                    EPPR0   SFDATA$+3,,AUTO
         3 000535   000020 631400 xsym               EPPR1   B_VECTNIL+16
         3 000536   000000 701000 xent               TSX1    DBM$PACK2
         3 000537   000000 011000                    NOP     0

      359    13136
      360    13137    1      CALL DAF$INIT(STAT_RPT);

  13137  3 000540   000046 630400 4                  EPPR0   38
         3 000541   000017 631400 xsym               EPPR1   B_VECTNIL+15
         3 000542   000000 701000 xent               TSX1    DAF$INIT
         3 000543   000000 011000                    NOP     0

      361    13138    1      IF TOP.NSUBLKS=0

PL6.E3A0      #001=DBD$UTIL1 File=DBD$UTIL1.:E05TSI                              TUE 07/29/97 13:11 Page:54
  13138  3 000544   200003 470500                    LDP0    @TOP,,AUTO
         3 000545   000001 220100                    LDX0    1,,PR0
         3 000546   000564 601000 3                  TNZ     s:13146

      362    13139    2      THEN DO;

      363    13140    3           DO UN=-1 DOWNTO -DB_MUIS;

  13140  3 000547   000001 335007                    LCA     1,DL
         3 000550   200543 755100                    STA     UN,,AUTO
         3 000551   000556 710000 3                  TRA     s:13142+2

      364    13141    3                CALL DISPSTAT;

  13141  3 000552   000623 701000 3                  TSX1    DISPSTAT
         3 000553   000000 011000                    NOP     0

      365    13142    3                END;

  13142  3 000554   000001 336007                    LCQ     1,DL
         3 000555   200543 056100                    ASQ     UN,,AUTO
         3 000556   000000 236003                    LDQ     0,DU
         3 000557   000000 136000 xsym               SBLQ    DB_MUIS
         3 000560   200543 116100                    CMPQ    UN,,AUTO
         3 000561   000552 604400 3                  TMOZ    s:13141

      366    13143    2           DA_MAPERR = '0'B;

  13143  3 000562   000000 450000 xsym               STZ     DA_MAPERR

      367    13144    2           END;

  13144  3 000563   000610 710000 3                  TRA     s:13152

      368    13145    2      ELSE DO;

      369    13146    3           DO I=0 TO TOP.NSUBLKS-1;
PL6.E3A0      #001=DBD$UTIL1 File=DBD$UTIL1.:E05TSI                              TUE 07/29/97 13:11 Page:55

  13146  3 000564   200540 450100                    STZ     I,,AUTO
         3 000565   000603 710000 3                  TRA     s:13150+1

      370    13147    4                CALL DBA$SELECTION(TOP.SUBLK$(I)->OUT,UN) WHENRETURN DO;

  13147  3 000566   200003 470500                    LDP0    @TOP,,AUTO
         3 000567   200540 720100                    LXL0    I,,AUTO
         3 000570   000003 471510                    LDP1    3,X0,PR0
         3 000571   200543 633500                    EPPR3   UN,,AUTO
         3 000572   200707 453500                    STP3    SFDATA$+4,,AUTO
         3 000573   200706 451500                    STP1    SFDATA$+3,,AUTO
         3 000574   200706 630500                    EPPR0   SFDATA$+3,,AUTO
         3 000575   000020 631400 xsym               EPPR1   B_VECTNIL+16
         3 000576   000000 701000 xent               TSX1    DBA$SELECTION
         3 000577   000602 702000 3                  TSX2    s:13150

      371    13148    4                     CALL DISPSTAT;

  13148  3 000600   000623 701000 3                  TSX1    DISPSTAT
         3 000601   000000 011000                    NOP     0

      372    13149    4                     END;

      373    13150    3                END;

  13150  3 000602   200540 054100                    AOS     I,,AUTO
         3 000603   200003 470500                    LDP0    @TOP,,AUTO
         3 000604   000001 236100                    LDQ     1,,PR0
         3 000605   000022 772000                    QRL     18
         3 000606   200540 116100                    CMPQ    I,,AUTO
         3 000607   000566 605400 3                  TPNZ    s:13147

      374    13151    2           END;

      375    13152    1      CALL DAF$WRITE(VECTOR(BLANK_LINE));

PL6.E3A0      #001=DBD$UTIL1 File=DBD$UTIL1.:E05TSI                              TUE 07/29/97 13:11 Page:56
  13152  3 000610   000006 630400 4                  EPPR0   6
         3 000611   000000 220000 xsym               LDX0    DAF$WRITE
         3 000612   000017 631400 xsym               EPPR1   B_VECTNIL+15
         3 000613   000000 701010                    TSX1    0,X0
         3 000614   000000 011000                    NOP     0

      376    13153    1      CALL DAF$WRITE(VECTOR(BLANK_LINE));

  13153  3 000615   000006 630400 4                  EPPR0   6
         3 000616   000000 220000 xsym               LDX0    DAF$WRITE
         3 000617   000017 631400 xsym               EPPR1   B_VECTNIL+15
         3 000620   000000 701010                    TSX1    0,X0
         3 000621   000000 011000                    NOP     0

      377    13154    1      RETURN;

  13154  3 000622   000000 702200 xent               TSX2  ! X66_ARET

      378    13155        %EJECT;
PL6.E3A0      #001=DBD$UTIL1 File=DBD$UTIL1.:E05TSI                              TUE 07/29/97 13:11 Page:57
      379    13156    1   DISPSTAT: PROC;

  13156  3 000623   200704 741300       DISPSTAT     STX1  ! SFDATA$+1,,AUTO

      380    13157    2      CALL DBM$GETMEM(ROS$,ROSBASE,UN,SIZEC(ROSBASE),,SIZEC(ROSBASE))

  13157  3 000624   000011 236000 4                  LDQ     9
         3 000625   000001 235000 xsym               LDA     B_VECTNIL+1
         3 000626   200712 757100                    STAQ    SFDATA$+7,,AUTO
         3 000627   000011 236000 4                  LDQ     9
         3 000630   200711 756100                    STQ     SFDATA$+6,,AUTO
         3 000631   200543 630500                    EPPR0   UN,,AUTO
         3 000632   200710 450500                    STP0    SFDATA$+5,,AUTO
         3 000633   200365 631500                    EPPR1   ROSBASE,,AUTO
         3 000634   200707 451500                    STP1    SFDATA$+4,,AUTO
         3 000635   000012 236000 4                  LDQ     10
         3 000636   200706 756100                    STQ     SFDATA$+3,,AUTO
         3 000637   200706 630500                    EPPR0   SFDATA$+3,,AUTO
         3 000640   000024 631400 xsym               EPPR1   B_VECTNIL+20
         3 000641   000000 701000 xent               TSX1    DBM$GETMEM
         3 000642   001563 702000 3                  TSX2    s:13235

      381    13158    3      WHENRETURN DO;

      382    13159    3           CALL DBM$PACK4(ROSBASE.JIT$,JIT$);

  13159  3 000643   200626 630500                    EPPR0   JIT$,,AUTO
         3 000644   200707 450500                    STP0    SFDATA$+4,,AUTO
         3 000645   200366 631500                    EPPR1   ROSBASE+1,,AUTO
         3 000646   200706 451500                    STP1    SFDATA$+3,,AUTO
         3 000647   200706 630500                    EPPR0   SFDATA$+3,,AUTO
         3 000650   000020 631400 xsym               EPPR1   B_VECTNIL+16
         3 000651   000000 701000 xent               TSX1    DBM$PACK4
         3 000652   000000 011000                    NOP     0

      383    13160    3           CALL DBM$GETMEM(JIT$,G$JIT,UN,SIZEC(G$JIT));

PL6.E3A0      #001=DBD$UTIL1 File=DBD$UTIL1.:E05TSI                              TUE 07/29/97 13:11 Page:58
  13160  3 000653   000014 236000 4                  LDQ     12
         3 000654   200711 756100                    STQ     SFDATA$+6,,AUTO
         3 000655   200543 630500                    EPPR0   UN,,AUTO
         3 000656   200710 450500                    STP0    SFDATA$+5,,AUTO
         3 000657   200004 631500                    EPPR1   G$JIT,,AUTO
         3 000660   200707 451500                    STP1    SFDATA$+4,,AUTO
         3 000661   200626 633500                    EPPR3   JIT$,,AUTO
         3 000662   200706 453500                    STP3    SFDATA$+3,,AUTO
         3 000663   200706 630500                    EPPR0   SFDATA$+3,,AUTO
         3 000664   000022 631400 xsym               EPPR1   B_VECTNIL+18
         3 000665   000000 701000 xent               TSX1    DBM$GETMEM
         3 000666   000000 011000                    NOP     0

      384    13161    3           CALL DBM$PACK1(G$JIT.USR#,JITUN);

  13161  3 000667   200554 630500                    EPPR0   JITUN,,AUTO
         3 000670   200707 450500                    STP0    SFDATA$+4,,AUTO
         3 000671   200710 452500                    STP2    SFDATA$+5,,AUTO
         3 000672   200710 236100                    LDQ     SFDATA$+5,,AUTO
         3 000673   000015 036000 4                  ADLQ    13
         3 000674   200706 756100                    STQ     SFDATA$+3,,AUTO
         3 000675   200706 630500                    EPPR0   SFDATA$+3,,AUTO
         3 000676   000020 631400 xsym               EPPR1   B_VECTNIL+16
         3 000677   000000 701000 xent               TSX1    DBM$PACK1
         3 000700   000000 011000                    NOP     0

      385    13162    3           CALL DBM$PACK2(G$JIT.SYSID,SYSID);

  13162  3 000701   200553 630500                    EPPR0   SYSID,,AUTO
         3 000702   200707 450500                    STP0    SFDATA$+4,,AUTO
         3 000703   200710 452500                    STP2    SFDATA$+5,,AUTO
         3 000704   200710 236100                    LDQ     SFDATA$+5,,AUTO
         3 000705   000016 036000 4                  ADLQ    14
         3 000706   200706 756100                    STQ     SFDATA$+3,,AUTO
         3 000707   200706 630500                    EPPR0   SFDATA$+3,,AUTO
         3 000710   000020 631400 xsym               EPPR1   B_VECTNIL+16
         3 000711   000000 701000 xent               TSX1    DBM$PACK2
PL6.E3A0      #001=DBD$UTIL1 File=DBD$UTIL1.:E05TSI                              TUE 07/29/97 13:11 Page:59
         3 000712   000000 011000                    NOP     0

      386    13163    3           CALL DBM$PACK2(G$JIT.PCD,PCD);

  13163  3 000713   200565 630500                    EPPR0   PCD,,AUTO
         3 000714   200707 450500                    STP0    SFDATA$+4,,AUTO
         3 000715   200104 631500                    EPPR1   G$JIT+64,,AUTO
         3 000716   200706 451500                    STP1    SFDATA$+3,,AUTO
         3 000717   200706 630500                    EPPR0   SFDATA$+3,,AUTO
         3 000720   000020 631400 xsym               EPPR1   B_VECTNIL+16
         3 000721   000000 701000 xent               TSX1    DBM$PACK2
         3 000722   000000 011000                    NOP     0

      387    13164    3           CALL DBM$PACK2(G$JIT.PCP,PCP);

  13164  3 000723   200566 630500                    EPPR0   PCP,,AUTO
         3 000724   200707 450500                    STP0    SFDATA$+4,,AUTO
         3 000725   200710 452500                    STP2    SFDATA$+5,,AUTO
         3 000726   200710 236100                    LDQ     SFDATA$+5,,AUTO
         3 000727   000047 036000 4                  ADLQ    39
         3 000730   200706 756100                    STQ     SFDATA$+3,,AUTO
         3 000731   200706 630500                    EPPR0   SFDATA$+3,,AUTO
         3 000732   000020 631400 xsym               EPPR1   B_VECTNIL+16
         3 000733   000000 701000 xent               TSX1    DBM$PACK2
         3 000734   000000 011000                    NOP     0

      388    13165    3           CALL DBM$PACK2(G$JIT.PCDS,PCDS);

  13165  3 000735   200570 630500                    EPPR0   PCDS,,AUTO
         3 000736   200707 450500                    STP0    SFDATA$+4,,AUTO
         3 000737   200710 452500                    STP2    SFDATA$+5,,AUTO
         3 000740   200710 236100                    LDQ     SFDATA$+5,,AUTO
         3 000741   000050 036000 4                  ADLQ    40
         3 000742   200706 756100                    STQ     SFDATA$+3,,AUTO
         3 000743   200706 630500                    EPPR0   SFDATA$+3,,AUTO
         3 000744   000020 631400 xsym               EPPR1   B_VECTNIL+16
         3 000745   000000 701000 xent               TSX1    DBM$PACK2
PL6.E3A0      #001=DBD$UTIL1 File=DBD$UTIL1.:E05TSI                              TUE 07/29/97 13:11 Page:60
         3 000746   000000 011000                    NOP     0

      389    13166    3           CALL DBM$PACK2(G$JIT.PCDDS,PCDDS);

  13166  3 000747   200571 630500                    EPPR0   PCDDS,,AUTO
         3 000750   200707 450500                    STP0    SFDATA$+4,,AUTO
         3 000751   200106 631500                    EPPR1   G$JIT+66,,AUTO
         3 000752   200706 451500                    STP1    SFDATA$+3,,AUTO
         3 000753   200706 630500                    EPPR0   SFDATA$+3,,AUTO
         3 000754   000020 631400 xsym               EPPR1   B_VECTNIL+16
         3 000755   000000 701000 xent               TSX1    DBM$PACK2
         3 000756   000000 011000                    NOP     0

      390    13167    3           CALL DBM$PACK2(G$JIT.PCC,PCC);

  13167  3 000757   200572 630500                    EPPR0   PCC,,AUTO
         3 000760   200707 450500                    STP0    SFDATA$+4,,AUTO
         3 000761   200710 452500                    STP2    SFDATA$+5,,AUTO
         3 000762   200710 236100                    LDQ     SFDATA$+5,,AUTO
         3 000763   000051 036000 4                  ADLQ    41
         3 000764   200706 756100                    STQ     SFDATA$+3,,AUTO
         3 000765   200706 630500                    EPPR0   SFDATA$+3,,AUTO
         3 000766   000020 631400 xsym               EPPR1   B_VECTNIL+16
         3 000767   000000 701000 xent               TSX1    DBM$PACK2
         3 000770   000000 011000                    NOP     0

      391    13168    3           CALL DBM$PACK2(G$JIT.PCROS,PCROS);

  13168  3 000771   200573 630500                    EPPR0   PCROS,,AUTO
         3 000772   200707 450500                    STP0    SFDATA$+4,,AUTO
         3 000773   200107 631500                    EPPR1   G$JIT+67,,AUTO
         3 000774   200706 451500                    STP1    SFDATA$+3,,AUTO
         3 000775   200706 630500                    EPPR0   SFDATA$+3,,AUTO
         3 000776   000020 631400 xsym               EPPR1   B_VECTNIL+16
         3 000777   000000 701000 xent               TSX1    DBM$PACK2
         3 001000   000000 011000                    NOP     0

PL6.E3A0      #001=DBD$UTIL1 File=DBD$UTIL1.:E05TSI                              TUE 07/29/97 13:11 Page:61
      392    13169    3           CALL DBM$PACK2(G$JIT.NSPC,NSPC);

  13169  3 001001   200575 630500                    EPPR0   NSPC,,AUTO
         3 001002   200707 450500                    STP0    SFDATA$+4,,AUTO
         3 001003   200710 452500                    STP2    SFDATA$+5,,AUTO
         3 001004   200710 236100                    LDQ     SFDATA$+5,,AUTO
         3 001005   000052 036000 4                  ADLQ    42
         3 001006   200706 756100                    STQ     SFDATA$+3,,AUTO
         3 001007   200706 630500                    EPPR0   SFDATA$+3,,AUTO
         3 001010   000020 631400 xsym               EPPR1   B_VECTNIL+16
         3 001011   000000 701000 xent               TSX1    DBM$PACK2
         3 001012   000000 011000                    NOP     0

      393    13170    3           CALL DBM$PACK2(G$JIT.CQPC,CQPC);

  13170  3 001013   200576 630500                    EPPR0   CQPC,,AUTO
         3 001014   200707 450500                    STP0    SFDATA$+4,,AUTO
         3 001015   200710 452500                    STP2    SFDATA$+5,,AUTO
         3 001016   200710 236100                    LDQ     SFDATA$+5,,AUTO
         3 001017   000053 036000 4                  ADLQ    43
         3 001020   200706 756100                    STQ     SFDATA$+3,,AUTO
         3 001021   200706 630500                    EPPR0   SFDATA$+3,,AUTO
         3 001022   000020 631400 xsym               EPPR1   B_VECTNIL+16
         3 001023   000000 701000 xent               TSX1    DBM$PACK2
         3 001024   000000 011000                    NOP     0

      394    13171    3           CALL DBM$PACK2(G$JIT.PSEUDOPGS,PSEUDOPGS);

  13171  3 001025   200574 630500                    EPPR0   PSEUDOPGS,,AUTO
         3 001026   200707 450500                    STP0    SFDATA$+4,,AUTO
         3 001027   200111 631500                    EPPR1   G$JIT+69,,AUTO
         3 001030   200706 451500                    STP1    SFDATA$+3,,AUTO
         3 001031   200706 630500                    EPPR0   SFDATA$+3,,AUTO
         3 001032   000020 631400 xsym               EPPR1   B_VECTNIL+16
         3 001033   000000 701000 xent               TSX1    DBM$PACK2
         3 001034   000000 011000                    NOP     0

PL6.E3A0      #001=DBD$UTIL1 File=DBD$UTIL1.:E05TSI                              TUE 07/29/97 13:11 Page:62
      395    13172    3           CALL DBM$PACK2(G$JIT.MAXMEM,MAXMEM);

  13172  3 001035   200663 630500                    EPPR0   MAXMEM,,AUTO
         3 001036   200707 450500                    STP0    SFDATA$+4,,AUTO
         3 001037   200710 452500                    STP2    SFDATA$+5,,AUTO
         3 001040   200710 236100                    LDQ     SFDATA$+5,,AUTO
         3 001041   000054 036000 4                  ADLQ    44
         3 001042   200706 756100                    STQ     SFDATA$+3,,AUTO
         3 001043   200706 630500                    EPPR0   SFDATA$+3,,AUTO
         3 001044   000020 631400 xsym               EPPR1   B_VECTNIL+16
         3 001045   000000 701000 xent               TSX1    DBM$PACK2
         3 001046   000000 011000                    NOP     0

      396    13173    3           CALL DBM$PACK1(G$JIT.SPROC#,SPROC);

  13173  3 001047   200577 630500                    EPPR0   SPROC,,AUTO
         3 001050   200707 450500                    STP0    SFDATA$+4,,AUTO
         3 001051   200112 631500                    EPPR1   G$JIT+70,,AUTO
         3 001052   200706 451500                    STP1    SFDATA$+3,,AUTO
         3 001053   200706 630500                    EPPR0   SFDATA$+3,,AUTO
         3 001054   000020 631400 xsym               EPPR1   B_VECTNIL+16
         3 001055   000000 701000 xent               TSX1    DBM$PACK1
         3 001056   000000 011000                    NOP     0

      397    13174    3           CALL DBM$PACK2(G$JIT.SLIB#,SLIB);

  13174  3 001057   200600 630500                    EPPR0   SLIB,,AUTO
         3 001060   200707 450500                    STP0    SFDATA$+4,,AUTO
         3 001061   200710 452500                    STP2    SFDATA$+5,,AUTO
         3 001062   200710 236100                    LDQ     SFDATA$+5,,AUTO
         3 001063   000055 036000 4                  ADLQ    45
         3 001064   200706 756100                    STQ     SFDATA$+3,,AUTO
         3 001065   200706 630500                    EPPR0   SFDATA$+3,,AUTO
         3 001066   000020 631400 xsym               EPPR1   B_VECTNIL+16
         3 001067   000000 701000 xent               TSX1    DBM$PACK2
         3 001070   000000 011000                    NOP     0

PL6.E3A0      #001=DBD$UTIL1 File=DBD$UTIL1.:E05TSI                              TUE 07/29/97 13:11 Page:63
      398    13175    3           CALL DBM$PACK4(G$JIT.CVM_REAL(0),CVM_REAL);

  13175  3 001071   200610 630500                    EPPR0   CVM_REAL,,AUTO
         3 001072   200707 450500                    STP0    SFDATA$+4,,AUTO
         3 001073   200137 631500                    EPPR1   G$JIT+91,,AUTO
         3 001074   200706 451500                    STP1    SFDATA$+3,,AUTO
         3 001075   200706 630500                    EPPR0   SFDATA$+3,,AUTO
         3 001076   000020 631400 xsym               EPPR1   B_VECTNIL+16
         3 001077   000000 701000 xent               TSX1    DBM$PACK4
         3 001100   000000 011000                    NOP     0

      399    13176    3           IF SLIB = 0

  13176  3 001101   200600 235100                    LDA     SLIB,,AUTO
         3 001102   001107 601000 3                  TNZ     s:13182

      400    13177    4           THEN DO;

      401    13178    4                ASDT_PCT_FLG(21) = 1;

  13178  3 001103   001000 236003                    LDQ     512,DU
         3 001104   000025 756000 1                  STQ     ASDT_PCT_FLG+21

      402    13179    4                ASDT_PCT_FLG(22) = 1;

  13179  3 001105   000026 756000 1                  STQ     ASDT_PCT_FLG+22

      403    13180    4                END;

  13180  3 001106   001111 710000 3                  TRA     s:13185

      404    13181    4           ELSE DO;

      405    13182    4                ASDT_PCT_FLG(21) = 0;

  13182  3 001107   000025 450000 1                  STZ     ASDT_PCT_FLG+21

PL6.E3A0      #001=DBD$UTIL1 File=DBD$UTIL1.:E05TSI                              TUE 07/29/97 13:11 Page:64
      406    13183    4                ASDT_PCT_FLG(22) = 0;

  13183  3 001110   000026 450000 1                  STZ     ASDT_PCT_FLG+22

      407    13184    4                END;

      408    13185    3           CALL DBM$GETMEM(UHJIT$,ASDTBASE,UN,SIZEC(ASDTBASE),,SIZEC(ASDTBASE));

  13185  3 001111   000057 236000 4                  LDQ     47
         3 001112   000001 235000 xsym               LDA     B_VECTNIL+1
         3 001113   200712 757100                    STAQ    SFDATA$+7,,AUTO
         3 001114   000057 236000 4                  LDQ     47
         3 001115   200711 756100                    STQ     SFDATA$+6,,AUTO
         3 001116   200543 630500                    EPPR0   UN,,AUTO
         3 001117   200710 450500                    STP0    SFDATA$+5,,AUTO
         3 001120   200411 631500                    EPPR1   ASDTBASE,,AUTO
         3 001121   200707 451500                    STP1    SFDATA$+4,,AUTO
         3 001122   000060 236000 4                  LDQ     48
         3 001123   200706 756100                    STQ     SFDATA$+3,,AUTO
         3 001124   200706 630500                    EPPR0   SFDATA$+3,,AUTO
         3 001125   000024 631400 xsym               EPPR1   B_VECTNIL+20
         3 001126   000000 701000 xent               TSX1    DBM$GETMEM
         3 001127   000000 011000                    NOP     0

      409    13186    3           CALL DBM$GETMEM(UHJIT$+SHRD_SEG_OFF,SHRD_SEG,UN,SIZEC(SHRD_SEG),,SIZEC(
             13186                    SHRD_SEG));

  13186  3 001130   000042 236000 2                  LDQ     UHJIT$
         3 001131   000040 036000 2                  ADLQ    SHRD_SEG_OFF
         3 001132   200706 756100                    STQ     SFDATA$+3,,AUTO
         3 001133   000062 236000 4                  LDQ     50
         3 001134   000001 235000 xsym               LDA     B_VECTNIL+1
         3 001135   200714 757100                    STAQ    SFDATA$+9,,AUTO
         3 001136   000062 236000 4                  LDQ     50
         3 001137   200713 756100                    STQ     SFDATA$+8,,AUTO
         3 001140   200543 630500                    EPPR0   UN,,AUTO
         3 001141   200712 450500                    STP0    SFDATA$+7,,AUTO
PL6.E3A0      #001=DBD$UTIL1 File=DBD$UTIL1.:E05TSI                              TUE 07/29/97 13:11 Page:65
         3 001142   200612 631500                    EPPR1   SHRD_SEG,,AUTO
         3 001143   200711 451500                    STP1    SFDATA$+6,,AUTO
         3 001144   200706 633500                    EPPR3   SFDATA$+3,,AUTO
         3 001145   200710 453500                    STP3    SFDATA$+5,,AUTO
         3 001146   200710 630500                    EPPR0   SFDATA$+5,,AUTO
         3 001147   000024 631400 xsym               EPPR1   B_VECTNIL+20
         3 001150   000000 701000 xent               TSX1    DBM$GETMEM
         3 001151   000000 011000                    NOP     0

      410    13187    3           CALL DBM$GETMEM(UHJIT$+SHRD_FLAG_OFF,SHRD_FLAG,UN,4,,4);

  13187  3 001152   000042 236000 2                  LDQ     UHJIT$
         3 001153   000037 036000 2                  ADLQ    SHRD_FLAG_OFF
         3 001154   200706 756100                    STQ     SFDATA$+3,,AUTO
         3 001155   000017 236000 4                  LDQ     15
         3 001156   000001 235000 xsym               LDA     B_VECTNIL+1
         3 001157   200714 757100                    STAQ    SFDATA$+9,,AUTO
         3 001160   000017 236000 4                  LDQ     15
         3 001161   200713 756100                    STQ     SFDATA$+8,,AUTO
         3 001162   200543 630500                    EPPR0   UN,,AUTO
         3 001163   200712 450500                    STP0    SFDATA$+7,,AUTO
         3 001164   200611 631500                    EPPR1   SHRD_FLAG,,AUTO
         3 001165   200711 451500                    STP1    SFDATA$+6,,AUTO
         3 001166   200706 633500                    EPPR3   SFDATA$+3,,AUTO
         3 001167   200710 453500                    STP3    SFDATA$+5,,AUTO
         3 001170   200710 630500                    EPPR0   SFDATA$+5,,AUTO
         3 001171   000024 631400 xsym               EPPR1   B_VECTNIL+20
         3 001172   000000 701000 xent               TSX1    DBM$GETMEM
         3 001173   000000 011000                    NOP     0

      411    13188    3           CALL DBM$PACK4(SHRD_FLAG,SHRD_FLAG);

  13188  3 001174   200611 630500                    EPPR0   SHRD_FLAG,,AUTO
         3 001175   200707 450500                    STP0    SFDATA$+4,,AUTO
         3 001176   200611 631500                    EPPR1   SHRD_FLAG,,AUTO
         3 001177   200706 451500                    STP1    SFDATA$+3,,AUTO
         3 001200   200706 630500                    EPPR0   SFDATA$+3,,AUTO
PL6.E3A0      #001=DBD$UTIL1 File=DBD$UTIL1.:E05TSI                              TUE 07/29/97 13:11 Page:66
         3 001201   000020 631400 xsym               EPPR1   B_VECTNIL+16
         3 001202   000000 701000 xent               TSX1    DBM$PACK4
         3 001203   000000 011000                    NOP     0

      412    13189    3           PCT = 0;

  13189  3 001204   200624 450100                    STZ     PCT,,AUTO

      413    13190    3           CQFLG = ' ';

  13190  3 001205   040000 236003                    LDQ     16384,DU
         3 001206   200665 756100                    STQ     CQFLG,,AUTO

      414    13191    4           DO J = 0 TO 30;

  13191  3 001207   200541 450100                    STZ     J,,AUTO

      415    13192    4                IF (ASDT_PCT_FLG(J)=1) AND (ASDTBASE.WORD1.V(J) )

  13192  3 001210   200541 720100                    LXL0    J,,AUTO
         3 001211   000000 236010 1                  LDQ     ASDT_PCT_FLG,X0
         3 001212   777000 376003                    ANQ     -512,DU
         3 001213   001000 116003                    CMPQ    512,DU
         3 001214   001303 601000 3                  TNZ     s:13207
         3 001215   200411 236110                    LDQ     ASDTBASE,X0,AUTO
         3 001216   200000 316003                    CANQ    65536,DU
         3 001217   001303 600000 3                  TZE     s:13207
         3 001220   200541 235100                    LDA     J,,AUTO
         3 001221   000000 066505                    CMPB    filb='0'B
         3 001222   200610 040001                    BDSC    CVM_REAL,A,AUTO          by=0,bit=4,n=1
         3 001223   000002 000022 xsym               BDSC    B_VECTNIL+2              by=0,bit=0,n=18
         3 001224   001303 601000 3                  TNZ     s:13207
         3 001225   000000 066505                    CMPB    filb='0'B
         3 001226   200611 040001                    BDSC    SHRD_FLAG,A,AUTO         by=0,bit=4,n=1
         3 001227   000002 000022 xsym               BDSC    B_VECTNIL+2              by=0,bit=0,n=18
         3 001230   001303 601000 3                  TNZ     s:13207
         3 001231   000100 101505                    MRL     fill='000'O
PL6.E3A0      #001=DBD$UTIL1 File=DBD$UTIL1.:E05TSI                              TUE 07/29/97 13:11 Page:67
         3 001232   200612 000001                    ADSC9   SHRD_SEG,A,AUTO          cn=0,n=1
         3 001233   200706 000004                    ADSC9   SFDATA$+3,,AUTO          cn=0,n=4
         3 001234   200706 236100                    LDQ     SFDATA$+3,,AUTO
         3 001235   000000 116003                    CMPQ    0,DU
         3 001236   001303 601000 3                  TNZ     s:13207

      416    13193    4                  AND NOT(CVM_REAL.SEG(J) )
      417    13194    4                  AND NOT(SHRD_FLAG.SEG(J) )
      418    13195    4                  AND SHRD_SEG(J) = 0
      419    13196    5                THEN DO;

      420    13197    5                     CALL DBM$PACK2(ASDTBASE.WORD2(J),WORD2);

  13197  3 001237   200701 630500                    EPPR0   WORD2,,AUTO
         3 001240   200707 450500                    STP0    SFDATA$+4,,AUTO
         3 001241   200710 452500                    STP2    SFDATA$+5,,AUTO
         3 001242   200541 236100                    LDQ     J,,AUTO
         3 001243   000022 736000                    QLS     18
         3 001244   000063 036000 4                  ADLQ    51
         3 001245   200710 036100                    ADLQ    SFDATA$+5,,AUTO
         3 001246   200706 756100                    STQ     SFDATA$+3,,AUTO
         3 001247   200706 630500                    EPPR0   SFDATA$+3,,AUTO
         3 001250   000020 631400 xsym               EPPR1   B_VECTNIL+16
         3 001251   000000 701000 xent               TSX1    DBM$PACK2
         3 001252   000000 011000                    NOP     0

      421    13198    5                     PCT = PCT + WORD2.SIZE + 1;

  13198  3 001253   200701 236100                    LDQ     WORD2,,AUTO
         3 001254   000777 376007                    ANQ     511,DL
         3 001255   200624 036100                    ADLQ    PCT,,AUTO
         3 001256   000001 036007                    ADLQ    1,DL
         3 001257   200624 756100                    STQ     PCT,,AUTO

      422    13199    5                     IF J =%GM_HAND_Q#

  13199  3 001260   200541 235100                    LDA     J,,AUTO
PL6.E3A0      #001=DBD$UTIL1 File=DBD$UTIL1.:E05TSI                              TUE 07/29/97 13:11 Page:68
         3 001261   000034 115007                    CMPA    28,DL
         3 001262   001303 601000 3                  TNZ     s:13207

      423    13200    6                     THEN DO;

      424    13201    6                          ASDTBASE.WORD1.V(J) = '0'B;

  13201  3 001263   000064 236000 4                  LDQ     52
         3 001264   200411 356105                    ANSQ    ASDTBASE,AL,AUTO

      425    13202    6                          CALL DBM$PACK2(ASDTBASE.WORD1(J),MAP_PG#);

  13202  3 001265   200623 630500                    EPPR0   MAP_PG#,,AUTO
         3 001266   200707 450500                    STP0    SFDATA$+4,,AUTO
         3 001267   200541 720100                    LXL0    J,,AUTO
         3 001270   200411 631510                    EPPR1   ASDTBASE,X0,AUTO
         3 001271   200706 451500                    STP1    SFDATA$+3,,AUTO
         3 001272   200706 630500                    EPPR0   SFDATA$+3,,AUTO
         3 001273   000020 631400 xsym               EPPR1   B_VECTNIL+16
         3 001274   000000 701000 xent               TSX1    DBM$PACK2
         3 001275   000000 011000                    NOP     0

      426    13203    6                          IF MAP_PG# > SHUF_HI

  13203  3 001276   200650 236100                    LDQ     SHUF_HI,,AUTO
         3 001277   200623 116100                    CMPQ    MAP_PG#,,AUTO
         3 001300   001303 603000 3                  TRC     s:13207

      427    13204    6                          THEN CQFLG = 'I';

  13204  3 001301   111000 236003                    LDQ     37376,DU
         3 001302   200665 756100                    STQ     CQFLG,,AUTO

      428    13205    6                          END;

      429    13206    5                     END;

PL6.E3A0      #001=DBD$UTIL1 File=DBD$UTIL1.:E05TSI                              TUE 07/29/97 13:11 Page:69
      430    13207    4                END;

  13207  3 001303   200541 235100                    LDA     J,,AUTO
         3 001304   000001 035007                    ADLA    1,DL
         3 001305   200541 755100                    STA     J,,AUTO
         3 001306   000037 115007                    CMPA    31,DL
         3 001307   001210 602000 3                  TNC     s:13192

      431    13208    3           PCT = PCT + PSEUDOPGS;

  13208  3 001310   200624 236100                    LDQ     PCT,,AUTO
         3 001311   200574 036100                    ADLQ    PSEUDOPGS,,AUTO
         3 001312   200624 756100                    STQ     PCT,,AUTO

      432    13209    3           IF SPROC ~= 0

  13209  3 001313   200577 235100                    LDA     SPROC,,AUTO
         3 001314   001320 600000 3                  TZE     s:13214

      433    13210    4           THEN DO;

      434    13211    4                SHRFLG = 'S';

  13211  3 001315   123000 236003                    LDQ     42496,DU
         3 001316   200664 756100                    STQ     SHRFLG,,AUTO

      435    13212    4                END;

  13212  3 001317   001322 710000 3                  TRA     s:13224

      436    13213    4           ELSE DO;

      437    13214    4                SHRFLG = ' ';

  13214  3 001320   040000 236003                    LDQ     16384,DU
         3 001321   200664 756100                    STQ     SHRFLG,,AUTO

PL6.E3A0      #001=DBD$UTIL1 File=DBD$UTIL1.:E05TSI                              TUE 07/29/97 13:11 Page:70
      438    13215    4                END;

      439    13216    3           CALL DAF$WRITE(VECTOR(STATFMT),
      440    13217    3             VECTOR(MODECHAR(G$JIT.MODE)),
      441    13218    3             VECTOR(G$JIT.ACCN),
      442    13219    3             VECTOR(G$JIT.UNAME),
      443    13220    3             VECTOR(SYSID),
      444    13221    3             VECTOR(MAXMEM),
      445    13222    3             VECTOR(PCT),
      446    13223    3             VECTOR(PCP),
      447    13224    3             VECTOR(SHRFLG),

  13224  3 001322   200006 236100                    LDQ     G$JIT+2,,AUTO
         3 001323   000033 772000                    QRL     27
         3 001324   177640 235007                    LDA     65440,DL
         3 001325   000020 736000                    QLS     16
         3 001326   000024 036000 4                  ADLQ    20
         3 001327   200706 757100                    STAQ    SFDATA$+3,,AUTO
         3 001330   000025 235000 4                  LDA     21
         3 001331   200710 452500                    STP2    SFDATA$+5,,AUTO
         3 001332   200710 236100                    LDQ     SFDATA$+5,,AUTO
         3 001333   000007 036003                    ADLQ    7,DU
         3 001334   200712 757100                    STAQ    SFDATA$+7,,AUTO
         3 001335   000026 235000 4                  LDA     22
         3 001336   200714 452500                    STP2    SFDATA$+9,,AUTO
         3 001337   200714 236100                    LDQ     SFDATA$+9,,AUTO
         3 001340   000011 036003                    ADLQ    9,DU
         3 001341   200716 757100                    STAQ    SFDATA$+11,,AUTO
         3 001342   777640 235007                    LDA     -96,DL
         3 001343   200720 452500                    STP2    SFDATA$+13,,AUTO
         3 001344   200720 236100                    LDQ     SFDATA$+13,,AUTO
         3 001345   000553 036003                    ADLQ    363,DU
         3 001346   200722 757100                    STAQ    SFDATA$+15,,AUTO
         3 001347   777640 235007                    LDA     -96,DL
         3 001350   200724 452500                    STP2    SFDATA$+17,,AUTO
         3 001351   200724 236100                    LDQ     SFDATA$+17,,AUTO
         3 001352   000663 036003                    ADLQ    435,DU
PL6.E3A0      #001=DBD$UTIL1 File=DBD$UTIL1.:E05TSI                              TUE 07/29/97 13:11 Page:71
         3 001353   200726 757100                    STAQ    SFDATA$+19,,AUTO
         3 001354   777640 235007                    LDA     -96,DL
         3 001355   200730 452500                    STP2    SFDATA$+21,,AUTO
         3 001356   200730 236100                    LDQ     SFDATA$+21,,AUTO
         3 001357   000624 036003                    ADLQ    404,DU
         3 001360   200732 757100                    STAQ    SFDATA$+23,,AUTO
         3 001361   777640 235007                    LDA     -96,DL
         3 001362   200734 452500                    STP2    SFDATA$+25,,AUTO
         3 001363   200734 236100                    LDQ     SFDATA$+25,,AUTO
         3 001364   000566 036003                    ADLQ    374,DU
         3 001365   200736 757100                    STAQ    SFDATA$+27,,AUTO
         3 001366   177640 235007                    LDA     65440,DL
         3 001367   200740 452500                    STP2    SFDATA$+29,,AUTO
         3 001370   200740 236100                    LDQ     SFDATA$+29,,AUTO
         3 001371   000664 036003                    ADLQ    436,DU
         3 001372   200742 757100                    STAQ    SFDATA$+31,,AUTO
         3 001373   777640 235007                    LDA     -96,DL
         3 001374   200744 452500                    STP2    SFDATA$+33,,AUTO
         3 001375   200744 236100                    LDQ     SFDATA$+33,,AUTO
         3 001376   000565 036003                    ADLQ    373,DU
         3 001377   200746 757100                    STAQ    SFDATA$+35,,AUTO
         3 001400   777640 235007                    LDA     -96,DL
         3 001401   200750 452500                    STP2    SFDATA$+37,,AUTO
         3 001402   200750 236100                    LDQ     SFDATA$+37,,AUTO
         3 001403   000570 036003                    ADLQ    376,DU
         3 001404   200752 757100                    STAQ    SFDATA$+39,,AUTO
         3 001405   777640 235007                    LDA     -96,DL
         3 001406   200754 452500                    STP2    SFDATA$+41,,AUTO
         3 001407   200754 236100                    LDQ     SFDATA$+41,,AUTO
         3 001410   000575 036003                    ADLQ    381,DU
         3 001411   200756 757100                    STAQ    SFDATA$+43,,AUTO
         3 001412   777640 235007                    LDA     -96,DL
         3 001413   200760 452500                    STP2    SFDATA$+45,,AUTO
         3 001414   200760 236100                    LDQ     SFDATA$+45,,AUTO
         3 001415   000572 036003                    ADLQ    378,DU
         3 001416   200762 757100                    STAQ    SFDATA$+47,,AUTO
         3 001417   777640 235007                    LDA     -96,DL
PL6.E3A0      #001=DBD$UTIL1 File=DBD$UTIL1.:E05TSI                              TUE 07/29/97 13:11 Page:72
         3 001420   200764 452500                    STP2    SFDATA$+49,,AUTO
         3 001421   200764 236100                    LDQ     SFDATA$+49,,AUTO
         3 001422   000573 036003                    ADLQ    379,DU
         3 001423   200766 757100                    STAQ    SFDATA$+51,,AUTO
         3 001424   777640 235007                    LDA     -96,DL
         3 001425   200770 452500                    STP2    SFDATA$+53,,AUTO
         3 001426   200770 236100                    LDQ     SFDATA$+53,,AUTO
         3 001427   000571 036003                    ADLQ    377,DU
         3 001430   200772 757100                    STAQ    SFDATA$+55,,AUTO
         3 001431   777640 235007                    LDA     -96,DL
         3 001432   200774 452500                    STP2    SFDATA$+57,,AUTO
         3 001433   200774 236100                    LDQ     SFDATA$+57,,AUTO
         3 001434   000576 036003                    ADLQ    382,DU
         3 001435   200776 757100                    STAQ    SFDATA$+59,,AUTO
         3 001436   177640 235007                    LDA     65440,DL
         3 001437   201000 452500                    STP2    SFDATA$+61,,AUTO
         3 001440   201000 236100                    LDQ     SFDATA$+61,,AUTO
         3 001441   000665 036003                    ADLQ    437,DU
         3 001442   201002 757100                    STAQ    SFDATA$+63,,AUTO
         3 001443   777640 235007                    LDA     -96,DL
         3 001444   201004 452500                    STP2    SFDATA$+65,,AUTO
         3 001445   201004 236100                    LDQ     SFDATA$+65,,AUTO
         3 001446   000574 036003                    ADLQ    380,DU
         3 001447   201010 757100                    STAQ    SFDATA$+69,,AUTO
         3 001450   200706 237100                    LDAQ    SFDATA$+3,,AUTO
         3 001451   201006 757100                    STAQ    SFDATA$+67,,AUTO
         3 001452   200712 237100                    LDAQ    SFDATA$+7,,AUTO
         3 001453   201012 757100                    STAQ    SFDATA$+71,,AUTO
         3 001454   200716 237100                    LDAQ    SFDATA$+11,,AUTO
         3 001455   201014 757100                    STAQ    SFDATA$+73,,AUTO
         3 001456   200722 237100                    LDAQ    SFDATA$+15,,AUTO
         3 001457   201016 757100                    STAQ    SFDATA$+75,,AUTO
         3 001460   200726 237100                    LDAQ    SFDATA$+19,,AUTO
         3 001461   201020 757100                    STAQ    SFDATA$+77,,AUTO
         3 001462   200732 237100                    LDAQ    SFDATA$+23,,AUTO
         3 001463   201022 757100                    STAQ    SFDATA$+79,,AUTO
         3 001464   200736 237100                    LDAQ    SFDATA$+27,,AUTO
PL6.E3A0      #001=DBD$UTIL1 File=DBD$UTIL1.:E05TSI                              TUE 07/29/97 13:11 Page:73
         3 001465   201024 757100                    STAQ    SFDATA$+81,,AUTO
         3 001466   200742 237100                    LDAQ    SFDATA$+31,,AUTO
         3 001467   201026 757100                    STAQ    SFDATA$+83,,AUTO
         3 001470   200746 237100                    LDAQ    SFDATA$+35,,AUTO
         3 001471   201030 757100                    STAQ    SFDATA$+85,,AUTO
         3 001472   200752 237100                    LDAQ    SFDATA$+39,,AUTO
         3 001473   201032 757100                    STAQ    SFDATA$+87,,AUTO
         3 001474   200756 237100                    LDAQ    SFDATA$+43,,AUTO
         3 001475   201034 757100                    STAQ    SFDATA$+89,,AUTO
         3 001476   200762 237100                    LDAQ    SFDATA$+47,,AUTO
         3 001477   201036 757100                    STAQ    SFDATA$+91,,AUTO
         3 001500   200766 237100                    LDAQ    SFDATA$+51,,AUTO
         3 001501   201040 757100                    STAQ    SFDATA$+93,,AUTO
         3 001502   200772 237100                    LDAQ    SFDATA$+55,,AUTO
         3 001503   201042 757100                    STAQ    SFDATA$+95,,AUTO
         3 001504   200776 237100                    LDAQ    SFDATA$+59,,AUTO
         3 001505   201044 757100                    STAQ    SFDATA$+97,,AUTO
         3 001506   201002 237100                    LDAQ    SFDATA$+63,,AUTO
         3 001507   201046 757100                    STAQ    SFDATA$+99,,AUTO
         3 001510   201010 237100                    LDAQ    SFDATA$+69,,AUTO
         3 001511   201050 757100                    STAQ    SFDATA$+101,,AUTO
         3 001512   201050 630500                    EPPR0   SFDATA$+101,,AUTO
         3 001513   201073 450500                    STP0    SFDATA$+120,,AUTO
         3 001514   201046 631500                    EPPR1   SFDATA$+99,,AUTO
         3 001515   201072 451500                    STP1    SFDATA$+119,,AUTO
         3 001516   201044 633500                    EPPR3   SFDATA$+97,,AUTO
         3 001517   201071 453500                    STP3    SFDATA$+118,,AUTO
         3 001520   201042 634500                    EPPR4   SFDATA$+95,,AUTO
         3 001521   201070 454500                    STP4    SFDATA$+117,,AUTO
         3 001522   201040 635500                    EPPR5   SFDATA$+93,,AUTO
         3 001523   201067 455500                    STP5    SFDATA$+116,,AUTO
         3 001524   201036 636500                    EPPR6   SFDATA$+91,,AUTO
         3 001525   201066 456500                    STP6    SFDATA$+115,,AUTO
         3 001526   201034 636500                    EPPR6   SFDATA$+89,,AUTO
         3 001527   201065 456500                    STP6    SFDATA$+114,,AUTO
         3 001530   201032 636500                    EPPR6   SFDATA$+87,,AUTO
         3 001531   201064 456500                    STP6    SFDATA$+113,,AUTO
PL6.E3A0      #001=DBD$UTIL1 File=DBD$UTIL1.:E05TSI                              TUE 07/29/97 13:11 Page:74
         3 001532   201030 636500                    EPPR6   SFDATA$+85,,AUTO
         3 001533   201063 456500                    STP6    SFDATA$+112,,AUTO
         3 001534   201026 636500                    EPPR6   SFDATA$+83,,AUTO
         3 001535   201062 456500                    STP6    SFDATA$+111,,AUTO
         3 001536   201024 636500                    EPPR6   SFDATA$+81,,AUTO
         3 001537   201061 456500                    STP6    SFDATA$+110,,AUTO
         3 001540   201022 636500                    EPPR6   SFDATA$+79,,AUTO
         3 001541   201060 456500                    STP6    SFDATA$+109,,AUTO
         3 001542   201020 636500                    EPPR6   SFDATA$+77,,AUTO
         3 001543   201057 456500                    STP6    SFDATA$+108,,AUTO
         3 001544   201016 636500                    EPPR6   SFDATA$+75,,AUTO
         3 001545   201056 456500                    STP6    SFDATA$+107,,AUTO
         3 001546   201014 636500                    EPPR6   SFDATA$+73,,AUTO
         3 001547   201055 456500                    STP6    SFDATA$+106,,AUTO
         3 001550   201012 636500                    EPPR6   SFDATA$+71,,AUTO
         3 001551   201054 456500                    STP6    SFDATA$+105,,AUTO
         3 001552   201006 636500                    EPPR6   SFDATA$+67,,AUTO
         3 001553   201053 456500                    STP6    SFDATA$+104,,AUTO
         3 001554   000070 236000 4                  LDQ     56
         3 001555   201052 756100                    STQ     SFDATA$+103,,AUTO
         3 001556   201052 630500                    EPPR0   SFDATA$+103,,AUTO
         3 001557   000000 220000 xsym               LDX0    DAF$WRITE
         3 001560   000065 631400 4                  EPPR1   53
         3 001561   000000 701010                    TSX1    0,X0
         3 001562   000000 011000                    NOP     0

      448    13225    3             VECTOR(PCD),
      449    13226    3             VECTOR(PCDS),
      450    13227    3             VECTOR(NSPC),
      451    13228    3             VECTOR(PCC),
      452    13229    3             VECTOR(PCROS),
      453    13230    3             VECTOR(PCDDS),
      454    13231    3             VECTOR(CQPC),
      455    13232    3             VECTOR(CQFLG),
      456    13233    3             VECTOR(PSEUDOPGS));
      457    13234    3           END;

PL6.E3A0      #001=DBD$UTIL1 File=DBD$UTIL1.:E05TSI                              TUE 07/29/97 13:11 Page:75
      458    13235    2      RETURN;

  13235  3 001563   200704 221300                    LDX1  ! SFDATA$+1,,AUTO
         3 001564   000001 702211                    TSX2  ! 1,X1

      459    13236
      460    13237    2   END DISPSTAT;
      461    13238        %EJECT;
PL6.E3A0      #001=DBD$UTIL1 File=DBD$UTIL1.:E05TSI                              TUE 07/29/97 13:11 Page:76
      462    13239        /*F*    NAME: DBD$MEMORY
      463    13240                PURPOSE: To process the MEMORY command for Feps.
      464    13241
      465    13242        */
      466    13243    1   DBD$MEMORY: ENTRY;

  13243  3 001565   000000 700200 xent  DBD$MEMORY   TSX0  ! X66_AUTO_1
         3 001566   001074 000001                    ZERO    572,1

      467    13244    2      DO I = 0 TO 7;

  13244  3 001567   200540 450100                    STZ     I,,AUTO

      468    13245    2           ASDT_MON(I) = 0;

  13245  3 001570   200540 720100                    LXL0    I,,AUTO
         3 001571   200527 450110                    STZ     ASDT_MON,X0,AUTO

      469    13246    2           END;

  13246  3 001572   200540 054100                    AOS     I,,AUTO
         3 001573   200540 235100                    LDA     I,,AUTO
         3 001574   000007 115007                    CMPA    7,DL
         3 001575   001570 604400 3                  TMOZ    s:13245

      470    13247    2      DO I = 0 TO 29;

  13247  3 001576   200540 450100                    STZ     I,,AUTO

      471    13248    2           ASDT_USR(I) = 0;

  13248  3 001577   200540 720100                    LXL0    I,,AUTO
         3 001600   200471 450110                    STZ     ASDT_USR,X0,AUTO

      472    13249    2           END;

  13249  3 001601   200540 054100                    AOS     I,,AUTO
PL6.E3A0      #001=DBD$UTIL1 File=DBD$UTIL1.:E05TSI                              TUE 07/29/97 13:11 Page:77
         3 001602   200540 235100                    LDA     I,,AUTO
         3 001603   000035 115007                    CMPA    29,DL
         3 001604   001577 604400 3                  TMOZ    s:13248

      473    13250    1      HJIT_COUNT = 0;

  13250  3 001605   200537 450100                    STZ     HJIT_COUNT,,AUTO

      474    13251    1      CALL DBM$GETMEM(BOBCAT$,G$BOBCAT,0,SIZEC(G$BOBCAT),,SIZEC(G$BOBCAT));

  13251  3 001606   000035 236000 4                  LDQ     29
         3 001607   000001 235000 xsym               LDA     B_VECTNIL+1
         3 001610   200712 757100                    STAQ    SFDATA$+7,,AUTO
         3 001611   000036 237000 4                  LDAQ    30
         3 001612   200710 757100                    STAQ    SFDATA$+5,,AUTO
         3 001613   200300 630500                    EPPR0   G$BOBCAT,,AUTO
         3 001614   200707 450500                    STP0    SFDATA$+4,,AUTO
         3 001615   000040 236000 4                  LDQ     32
         3 001616   200706 756100                    STQ     SFDATA$+3,,AUTO
         3 001617   200706 630500                    EPPR0   SFDATA$+3,,AUTO
         3 001620   000024 631400 xsym               EPPR1   B_VECTNIL+20
         3 001621   000000 701000 xent               TSX1    DBM$GETMEM
         3 001622   000000 011000                    NOP     0

      475    13252    1      CALL DBM$PACK2(G$BOBCAT.MUIS,MUIS);

  13252  3 001623   200662 630500                    EPPR0   MUIS,,AUTO
         3 001624   200707 450500                    STP0    SFDATA$+4,,AUTO
         3 001625   200305 631500                    EPPR1   G$BOBCAT+5,,AUTO
         3 001626   200706 451500                    STP1    SFDATA$+3,,AUTO
         3 001627   200706 630500                    EPPR0   SFDATA$+3,,AUTO
         3 001630   000020 631400 xsym               EPPR1   B_VECTNIL+16
         3 001631   000000 701000 xent               TSX1    DBM$PACK2
         3 001632   000000 011000                    NOP     0

      476    13253    1      CALL DBM$PACK4(G$BOBCAT.SFDATA$,SFDATA$);

PL6.E3A0      #001=DBD$UTIL1 File=DBD$UTIL1.:E05TSI                              TUE 07/29/97 13:11 Page:78
  13253  3 001633   200703 630500                    EPPR0   SFDATA$,,AUTO
         3 001634   200707 450500                    STP0    SFDATA$+4,,AUTO
         3 001635   200306 631500                    EPPR1   G$BOBCAT+6,,AUTO
         3 001636   200706 451500                    STP1    SFDATA$+3,,AUTO
         3 001637   200706 630500                    EPPR0   SFDATA$+3,,AUTO
         3 001640   000020 631400 xsym               EPPR1   B_VECTNIL+16
         3 001641   000000 701000 xent               TSX1    DBM$PACK4
         3 001642   000000 011000                    NOP     0

      477    13254    1      CALL DBM$PACK4(G$BOBCAT.MMDATA$,MMDATA$);

  13254  3 001643   200702 630500                    EPPR0   MMDATA$,,AUTO
         3 001644   200707 450500                    STP0    SFDATA$+4,,AUTO
         3 001645   200303 631500                    EPPR1   G$BOBCAT+3,,AUTO
         3 001646   200706 451500                    STP1    SFDATA$+3,,AUTO
         3 001647   200706 630500                    EPPR0   SFDATA$+3,,AUTO
         3 001650   000020 631400 xsym               EPPR1   B_VECTNIL+16
         3 001651   000000 701000 xent               TSX1    DBM$PACK4
         3 001652   000000 011000                    NOP     0

      478    13255
      479    13256    1      CALL DBM$GETMEM(SFDATA$,GJ$SDATA,0,SIZEC(GJ$SDATA),,SIZEC(GJ$SDATA));

  13256  3 001653   000062 236000 4                  LDQ     50
         3 001654   000001 235000 xsym               LDA     B_VECTNIL+1
         3 001655   200712 757100                    STAQ    SFDATA$+7,,AUTO
         3 001656   000072 237000 4                  LDAQ    58
         3 001657   200710 757100                    STAQ    SFDATA$+5,,AUTO
         3 001660   200461 630500                    EPPR0   GJ$SDATA,,AUTO
         3 001661   200707 450500                    STP0    SFDATA$+4,,AUTO
         3 001662   200703 631500                    EPPR1   SFDATA$,,AUTO
         3 001663   200706 451500                    STP1    SFDATA$+3,,AUTO
         3 001664   200706 630500                    EPPR0   SFDATA$+3,,AUTO
         3 001665   000024 631400 xsym               EPPR1   B_VECTNIL+20
         3 001666   000000 701000 xent               TSX1    DBM$GETMEM
         3 001667   000000 011000                    NOP     0

PL6.E3A0      #001=DBD$UTIL1 File=DBD$UTIL1.:E05TSI                              TUE 07/29/97 13:11 Page:79
      480    13257    1      CALL DBM$PACK2(GJ$SDATA.CUR_PROC,SHR_PROC);

  13257  3 001670   200643 630500                    EPPR0   SHR_PROC,,AUTO
         3 001671   200707 450500                    STP0    SFDATA$+4,,AUTO
         3 001672   200710 452500                    STP2    SFDATA$+5,,AUTO
         3 001673   200710 236100                    LDQ     SFDATA$+5,,AUTO
         3 001674   000074 036000 4                  ADLQ    60
         3 001675   200706 756100                    STQ     SFDATA$+3,,AUTO
         3 001676   200706 630500                    EPPR0   SFDATA$+3,,AUTO
         3 001677   000020 631400 xsym               EPPR1   B_VECTNIL+16
         3 001700   000000 701000 xent               TSX1    DBM$PACK2
         3 001701   000000 011000                    NOP     0

      481    13258    1      CALL DBM$PACK2(GJ$SDATA.CUR_DATA,SHR_DATA);

  13258  3 001702   200644 630500                    EPPR0   SHR_DATA,,AUTO
         3 001703   200707 450500                    STP0    SFDATA$+4,,AUTO
         3 001704   200464 631500                    EPPR1   GJ$SDATA+3,,AUTO
         3 001705   200706 451500                    STP1    SFDATA$+3,,AUTO
         3 001706   200706 630500                    EPPR0   SFDATA$+3,,AUTO
         3 001707   000020 631400 xsym               EPPR1   B_VECTNIL+16
         3 001710   000000 701000 xent               TSX1    DBM$PACK2
         3 001711   000000 011000                    NOP     0

      482    13259    1      CALL DBM$PACK2(GJ$SDATA.LIB_DATA,SHR_LIB);

  13259  3 001712   200645 630500                    EPPR0   SHR_LIB,,AUTO
         3 001713   200707 450500                    STP0    SFDATA$+4,,AUTO
         3 001714   200710 452500                    STP2    SFDATA$+5,,AUTO
         3 001715   200710 236100                    LDQ     SFDATA$+5,,AUTO
         3 001716   000075 036000 4                  ADLQ    61
         3 001717   200706 756100                    STQ     SFDATA$+3,,AUTO
         3 001720   200706 630500                    EPPR0   SFDATA$+3,,AUTO
         3 001721   000020 631400 xsym               EPPR1   B_VECTNIL+16
         3 001722   000000 701000 xent               TSX1    DBM$PACK2
         3 001723   000000 011000                    NOP     0

PL6.E3A0      #001=DBD$UTIL1 File=DBD$UTIL1.:E05TSI                              TUE 07/29/97 13:11 Page:80
      483    13260    1      SHR_DATA = SHR_DATA + SHR_LIB;

  13260  3 001724   200644 236100                    LDQ     SHR_DATA,,AUTO
         3 001725   200645 036100                    ADLQ    SHR_LIB,,AUTO
         3 001726   200644 756100                    STQ     SHR_DATA,,AUTO

      484    13261
      485    13262    1      CALL DBM$GETMEM(MMDATA$,GM$DATA,0,SIZEC(GM$DATA),,SIZEC(GM$DATA));

  13262  3 001727   000042 236000 4                  LDQ     34
         3 001730   000001 235000 xsym               LDA     B_VECTNIL+1
         3 001731   200712 757100                    STAQ    SFDATA$+7,,AUTO
         3 001732   000044 237000 4                  LDAQ    36
         3 001733   200710 757100                    STAQ    SFDATA$+5,,AUTO
         3 001734   200450 630500                    EPPR0   GM$DATA,,AUTO
         3 001735   200707 450500                    STP0    SFDATA$+4,,AUTO
         3 001736   200702 631500                    EPPR1   MMDATA$,,AUTO
         3 001737   200706 451500                    STP1    SFDATA$+3,,AUTO
         3 001740   200706 630500                    EPPR0   SFDATA$+3,,AUTO
         3 001741   000024 631400 xsym               EPPR1   B_VECTNIL+20
         3 001742   000000 701000 xent               TSX1    DBM$GETMEM
         3 001743   000000 011000                    NOP     0

      486    13263    1      CALL DBM$PACK2(GM$DATA.ASHUF,TOTAL_SHUF);

  13263  3 001744   200651 630500                    EPPR0   TOTAL_SHUF,,AUTO
         3 001745   200707 450500                    STP0    SFDATA$+4,,AUTO
         3 001746   200710 452500                    STP2    SFDATA$+5,,AUTO
         3 001747   200710 236100                    LDQ     SFDATA$+5,,AUTO
         3 001750   000076 036000 4                  ADLQ    62
         3 001751   200706 756100                    STQ     SFDATA$+3,,AUTO
         3 001752   200706 630500                    EPPR0   SFDATA$+3,,AUTO
         3 001753   000020 631400 xsym               EPPR1   B_VECTNIL+16
         3 001754   000000 701000 xent               TSX1    DBM$PACK2
         3 001755   000000 011000                    NOP     0

      487    13264    1      CALL DBM$PACK2(GM$DATA.NSHF,FRAG_NSHF);
PL6.E3A0      #001=DBD$UTIL1 File=DBD$UTIL1.:E05TSI                              TUE 07/29/97 13:11 Page:81

  13264  3 001756   200653 630500                    EPPR0   FRAG_NSHF,,AUTO
         3 001757   200707 450500                    STP0    SFDATA$+4,,AUTO
         3 001760   200710 452500                    STP2    SFDATA$+5,,AUTO
         3 001761   200710 236100                    LDQ     SFDATA$+5,,AUTO
         3 001762   000077 036000 4                  ADLQ    63
         3 001763   200706 756100                    STQ     SFDATA$+3,,AUTO
         3 001764   200706 630500                    EPPR0   SFDATA$+3,,AUTO
         3 001765   000020 631400 xsym               EPPR1   B_VECTNIL+16
         3 001766   000000 701000 xent               TSX1    DBM$PACK2
         3 001767   000000 011000                    NOP     0

      488    13265    1      CALL DBM$PACK2(GM$DATA.NSHF_CURR,USED_NSHF);

  13265  3 001770   200654 630500                    EPPR0   USED_NSHF,,AUTO
         3 001771   200707 450500                    STP0    SFDATA$+4,,AUTO
         3 001772   200710 452500                    STP2    SFDATA$+5,,AUTO
         3 001773   200710 236100                    LDQ     SFDATA$+5,,AUTO
         3 001774   000100 036000 4                  ADLQ    64
         3 001775   200706 756100                    STQ     SFDATA$+3,,AUTO
         3 001776   200706 630500                    EPPR0   SFDATA$+3,,AUTO
         3 001777   000020 631400 xsym               EPPR1   B_VECTNIL+16
         3 002000   000000 701000 xent               TSX1    DBM$PACK2
         3 002001   000000 011000                    NOP     0

      489    13266    1      CALL DBM$PACK2(GM$DATA.SHUF,CURR_SHUF);

  13266  3 002002   200655 630500                    EPPR0   CURR_SHUF,,AUTO
         3 002003   200707 450500                    STP0    SFDATA$+4,,AUTO
         3 002004   200452 631500                    EPPR1   GM$DATA+2,,AUTO
         3 002005   200706 451500                    STP1    SFDATA$+3,,AUTO
         3 002006   200706 630500                    EPPR0   SFDATA$+3,,AUTO
         3 002007   000020 631400 xsym               EPPR1   B_VECTNIL+16
         3 002010   000000 701000 xent               TSX1    DBM$PACK2
         3 002011   000000 011000                    NOP     0

      490    13267    1      CALL DBM$PACK2(GM$DATA.NSHF,CURR_NSHF);
PL6.E3A0      #001=DBD$UTIL1 File=DBD$UTIL1.:E05TSI                              TUE 07/29/97 13:11 Page:82

  13267  3 002012   200656 630500                    EPPR0   CURR_NSHF,,AUTO
         3 002013   200707 450500                    STP0    SFDATA$+4,,AUTO
         3 002014   200710 452500                    STP2    SFDATA$+5,,AUTO
         3 002015   200710 236100                    LDQ     SFDATA$+5,,AUTO
         3 002016   000077 036000 4                  ADLQ    63
         3 002017   200706 756100                    STQ     SFDATA$+3,,AUTO
         3 002020   200706 630500                    EPPR0   SFDATA$+3,,AUTO
         3 002021   000020 631400 xsym               EPPR1   B_VECTNIL+16
         3 002022   000000 701000 xent               TSX1    DBM$PACK2
         3 002023   000000 011000                    NOP     0

      491    13268    1      CALL DBM$PACK2(GM$DATA.HSHUF,CURR_HSHUF);

  13268  3 002024   200657 630500                    EPPR0   CURR_HSHUF,,AUTO
         3 002025   200707 450500                    STP0    SFDATA$+4,,AUTO
         3 002026   200455 631500                    EPPR1   GM$DATA+5,,AUTO
         3 002027   200706 451500                    STP1    SFDATA$+3,,AUTO
         3 002030   200706 630500                    EPPR0   SFDATA$+3,,AUTO
         3 002031   000020 631400 xsym               EPPR1   B_VECTNIL+16
         3 002032   000000 701000 xent               TSX1    DBM$PACK2
         3 002033   000000 011000                    NOP     0

      492    13269    1      CALL DBM$PACK2(GM$DATA.SHUF_HI,SHUF_HI);

  13269  3 002034   200650 630500                    EPPR0   SHUF_HI,,AUTO
         3 002035   200707 450500                    STP0    SFDATA$+4,,AUTO
         3 002036   200451 631500                    EPPR1   GM$DATA+1,,AUTO
         3 002037   200706 451500                    STP1    SFDATA$+3,,AUTO
         3 002040   200706 630500                    EPPR0   SFDATA$+3,,AUTO
         3 002041   000020 631400 xsym               EPPR1   B_VECTNIL+16
         3 002042   000000 701000 xent               TSX1    DBM$PACK2
         3 002043   000000 011000                    NOP     0

      493    13270    1      CALL DBM$PACK2(GM$DATA.MEM_LOW,MEM_LOW);

  13270  3 002044   200647 630500                    EPPR0   MEM_LOW,,AUTO
PL6.E3A0      #001=DBD$UTIL1 File=DBD$UTIL1.:E05TSI                              TUE 07/29/97 13:11 Page:83
         3 002045   200707 450500                    STP0    SFDATA$+4,,AUTO
         3 002046   200450 631500                    EPPR1   GM$DATA,,AUTO
         3 002047   200706 451500                    STP1    SFDATA$+3,,AUTO
         3 002050   200706 630500                    EPPR0   SFDATA$+3,,AUTO
         3 002051   000020 631400 xsym               EPPR1   B_VECTNIL+16
         3 002052   000000 701000 xent               TSX1    DBM$PACK2
         3 002053   000000 011000                    NOP     0

      494    13271    1      CALL DBM$PACK2(GM$DATA.MEM_HI,MEM_HI);

  13271  3 002054   200661 630500                    EPPR0   MEM_HI,,AUTO
         3 002055   200707 450500                    STP0    SFDATA$+4,,AUTO
         3 002056   200710 452500                    STP2    SFDATA$+5,,AUTO
         3 002057   200710 236100                    LDQ     SFDATA$+5,,AUTO
         3 002060   000101 036000 4                  ADLQ    65
         3 002061   200706 756100                    STQ     SFDATA$+3,,AUTO
         3 002062   200706 630500                    EPPR0   SFDATA$+3,,AUTO
         3 002063   000020 631400 xsym               EPPR1   B_VECTNIL+16
         3 002064   000000 701000 xent               TSX1    DBM$PACK2
         3 002065   000000 011000                    NOP     0

      495    13272    1      MEM_HI = MEM_HI + 1;

  13272  3 002066   200661 235100                    LDA     MEM_HI,,AUTO
         3 002067   000001 035007                    ADLA    1,DL
         3 002070   200661 755100                    STA     MEM_HI,,AUTO

      496    13273    1      MAX_SHUF = SHUF_HI - MEM_LOW +1;

  13273  3 002071   200650 236100                    LDQ     SHUF_HI,,AUTO
         3 002072   200647 136100                    SBLQ    MEM_LOW,,AUTO
         3 002073   000001 036007                    ADLQ    1,DL
         3 002074   200646 756100                    STQ     MAX_SHUF,,AUTO

      497    13274    1      TOTAL_NSHF = FRAG_NSHF + USED_NSHF;

  13274  3 002075   200653 236100                    LDQ     FRAG_NSHF,,AUTO
PL6.E3A0      #001=DBD$UTIL1 File=DBD$UTIL1.:E05TSI                              TUE 07/29/97 13:11 Page:84
         3 002076   200654 036100                    ADLQ    USED_NSHF,,AUTO
         3 002077   200652 756100                    STQ     TOTAL_NSHF,,AUTO

      498    13275
      499    13276    1      CALL DBM$GETMEM(MHJIT$,ASDTBASE,0,SIZEC(ASDTBASE),,SIZEC(ASDTBASE));

  13276  3 002100   000057 236000 4                  LDQ     47
         3 002101   000001 235000 xsym               LDA     B_VECTNIL+1
         3 002102   200712 757100                    STAQ    SFDATA$+7,,AUTO
         3 002103   000102 237000 4                  LDAQ    66
         3 002104   200710 757100                    STAQ    SFDATA$+5,,AUTO
         3 002105   200411 630500                    EPPR0   ASDTBASE,,AUTO
         3 002106   200707 450500                    STP0    SFDATA$+4,,AUTO
         3 002107   000104 236000 4                  LDQ     68
         3 002110   200706 756100                    STQ     SFDATA$+3,,AUTO
         3 002111   200706 630500                    EPPR0   SFDATA$+3,,AUTO
         3 002112   000024 631400 xsym               EPPR1   B_VECTNIL+20
         3 002113   000000 701000 xent               TSX1    DBM$GETMEM
         3 002114   000000 011000                    NOP     0

      500    13277    2      DO I = 0 TO 30;

  13277  3 002115   200540 450100                    STZ     I,,AUTO

      501    13278    2           IF ASDTBASE.WORD1.V(I)

  13278  3 002116   200540 720100                    LXL0    I,,AUTO
         3 002117   200411 236110                    LDQ     ASDTBASE,X0,AUTO
         3 002120   200000 316003                    CANQ    65536,DU
         3 002121   002150 600000 3                  TZE     s:13284

      502    13279    3           THEN DO;

      503    13280    3                CALL DBM$PACK2(ASDTBASE.WORD2(I),WORD2);

  13280  3 002122   200701 630500                    EPPR0   WORD2,,AUTO
         3 002123   200707 450500                    STP0    SFDATA$+4,,AUTO
PL6.E3A0      #001=DBD$UTIL1 File=DBD$UTIL1.:E05TSI                              TUE 07/29/97 13:11 Page:85
         3 002124   200710 452500                    STP2    SFDATA$+5,,AUTO
         3 002125   200540 236100                    LDQ     I,,AUTO
         3 002126   000022 736000                    QLS     18
         3 002127   000063 036000 4                  ADLQ    51
         3 002130   200710 036100                    ADLQ    SFDATA$+5,,AUTO
         3 002131   200706 756100                    STQ     SFDATA$+3,,AUTO
         3 002132   200706 630500                    EPPR0   SFDATA$+3,,AUTO
         3 002133   000020 631400 xsym               EPPR1   B_VECTNIL+16
         3 002134   000000 701000 xent               TSX1    DBM$PACK2
         3 002135   000000 011000                    NOP     0

      504    13281    3                ASDT_MON(ASDT_MON_FLG(I)) = ASDT_MON(ASDT_MON_FLG(I)) +

  13281  3 002136   200540 720100                    LXL0    I,,AUTO
         3 002137   000000 236010 2                  LDQ     ASDT_MON_FLG,X0
         3 002140   000033 772000                    QRL     27
         3 002141   000000 621006                    EAX1    0,QL
         3 002142   000000 622006                    EAX2    0,QL
         3 002143   200701 236100                    LDQ     WORD2,,AUTO
         3 002144   000777 376007                    ANQ     511,DL
         3 002145   200527 036111                    ADLQ    ASDT_MON,X1,AUTO
         3 002146   000001 036007                    ADLQ    1,DL
         3 002147   200527 756112                    STQ     ASDT_MON,X2,AUTO

      505    13282    3                  WORD2.SIZE + 1;
      506    13283    3                END;

      507    13284    2           END;

  13284  3 002150   200540 054100                    AOS     I,,AUTO
         3 002151   200540 235100                    LDA     I,,AUTO
         3 002152   000036 115007                    CMPA    30,DL
         3 002153   002116 604400 3                  TMOZ    s:13278

      508    13285    1      ASDT_MON(3) = ASDT_MON(3) + %GM_LOW_MEM_SZ;

  13285  3 002154   200532 236100                    LDQ     ASDT_MON+3,,AUTO
PL6.E3A0      #001=DBD$UTIL1 File=DBD$UTIL1.:E05TSI                              TUE 07/29/97 13:11 Page:86
         3 002155   000004 036007                    ADLQ    4,DL
         3 002156   200532 756100                    STQ     ASDT_MON+3,,AUTO

      509    13286
      510    13287    2      DO UN = 1 TO MUIS;

  13287  3 002157   000001 235007                    LDA     1,DL
         3 002160   200543 755100                    STA     UN,,AUTO
         3 002161   002656 710000 3                  TRA     s:13357+1

      511    13288    3           CALL DBM$GETMEM(ROS$,ROSBASE,-UN,SIZEC(ROSBASE),,SIZEC(ROSBASE)) WHENRETURN
             13288                    DO;

  13288  3 002162   200543 335100                    LCA     UN,,AUTO
         3 002163   200706 755100                    STA     SFDATA$+3,,AUTO
         3 002164   000011 236000 4                  LDQ     9
         3 002165   000001 235000 xsym               LDA     B_VECTNIL+1
         3 002166   200714 757100                    STAQ    SFDATA$+9,,AUTO
         3 002167   000011 236000 4                  LDQ     9
         3 002170   200713 756100                    STQ     SFDATA$+8,,AUTO
         3 002171   200706 630500                    EPPR0   SFDATA$+3,,AUTO
         3 002172   200712 450500                    STP0    SFDATA$+7,,AUTO
         3 002173   200365 631500                    EPPR1   ROSBASE,,AUTO
         3 002174   200711 451500                    STP1    SFDATA$+6,,AUTO
         3 002175   000012 236000 4                  LDQ     10
         3 002176   200710 756100                    STQ     SFDATA$+5,,AUTO
         3 002177   200710 630500                    EPPR0   SFDATA$+5,,AUTO
         3 002200   000024 631400 xsym               EPPR1   B_VECTNIL+20
         3 002201   000000 701000 xent               TSX1    DBM$GETMEM
         3 002202   002655 702000 3                  TSX2    s:13357

      512    13289    3                CALL DBM$PACK4(ROSBASE.JIT$,JIT$);

  13289  3 002203   200626 630500                    EPPR0   JIT$,,AUTO
         3 002204   200707 450500                    STP0    SFDATA$+4,,AUTO
         3 002205   200366 631500                    EPPR1   ROSBASE+1,,AUTO
         3 002206   200706 451500                    STP1    SFDATA$+3,,AUTO
PL6.E3A0      #001=DBD$UTIL1 File=DBD$UTIL1.:E05TSI                              TUE 07/29/97 13:11 Page:87
         3 002207   200706 630500                    EPPR0   SFDATA$+3,,AUTO
         3 002210   000020 631400 xsym               EPPR1   B_VECTNIL+16
         3 002211   000000 701000 xent               TSX1    DBM$PACK4
         3 002212   000000 011000                    NOP     0

      513    13290    3                CALL DBM$GETMEM(JIT$,G$JIT,-UN,SIZEC(G$JIT));

  13290  3 002213   200543 335100                    LCA     UN,,AUTO
         3 002214   200706 755100                    STA     SFDATA$+3,,AUTO
         3 002215   000014 236000 4                  LDQ     12
         3 002216   200713 756100                    STQ     SFDATA$+8,,AUTO
         3 002217   200706 630500                    EPPR0   SFDATA$+3,,AUTO
         3 002220   200712 450500                    STP0    SFDATA$+7,,AUTO
         3 002221   200004 631500                    EPPR1   G$JIT,,AUTO
         3 002222   200711 451500                    STP1    SFDATA$+6,,AUTO
         3 002223   200626 633500                    EPPR3   JIT$,,AUTO
         3 002224   200710 453500                    STP3    SFDATA$+5,,AUTO
         3 002225   200710 630500                    EPPR0   SFDATA$+5,,AUTO
         3 002226   000022 631400 xsym               EPPR1   B_VECTNIL+18
         3 002227   000000 701000 xent               TSX1    DBM$GETMEM
         3 002230   000000 011000                    NOP     0

      514    13291    3                CALL DBM$PACK4(G$JIT.CVM_REAL(0),CVM_REAL);

  13291  3 002231   200610 630500                    EPPR0   CVM_REAL,,AUTO
         3 002232   200707 450500                    STP0    SFDATA$+4,,AUTO
         3 002233   200137 631500                    EPPR1   G$JIT+91,,AUTO
         3 002234   200706 451500                    STP1    SFDATA$+3,,AUTO
         3 002235   200706 630500                    EPPR0   SFDATA$+3,,AUTO
         3 002236   000020 631400 xsym               EPPR1   B_VECTNIL+16
         3 002237   000000 701000 xent               TSX1    DBM$PACK4
         3 002240   000000 011000                    NOP     0

      515    13292    3                CALL DBM$PACK1(G$JIT.SPROC#,SPROC);

  13292  3 002241   200577 630500                    EPPR0   SPROC,,AUTO
         3 002242   200707 450500                    STP0    SFDATA$+4,,AUTO
PL6.E3A0      #001=DBD$UTIL1 File=DBD$UTIL1.:E05TSI                              TUE 07/29/97 13:11 Page:88
         3 002243   200112 631500                    EPPR1   G$JIT+70,,AUTO
         3 002244   200706 451500                    STP1    SFDATA$+3,,AUTO
         3 002245   200706 630500                    EPPR0   SFDATA$+3,,AUTO
         3 002246   000020 631400 xsym               EPPR1   B_VECTNIL+16
         3 002247   000000 701000 xent               TSX1    DBM$PACK1
         3 002250   000000 011000                    NOP     0

      516    13293    3                CALL DBM$PACK1(G$JIT.SLIB#,SLIB);

  13293  3 002251   200600 630500                    EPPR0   SLIB,,AUTO
         3 002252   200707 450500                    STP0    SFDATA$+4,,AUTO
         3 002253   200710 452500                    STP2    SFDATA$+5,,AUTO
         3 002254   200710 236100                    LDQ     SFDATA$+5,,AUTO
         3 002255   000055 036000 4                  ADLQ    45
         3 002256   200706 756100                    STQ     SFDATA$+3,,AUTO
         3 002257   200706 630500                    EPPR0   SFDATA$+3,,AUTO
         3 002260   000020 631400 xsym               EPPR1   B_VECTNIL+16
         3 002261   000000 701000 xent               TSX1    DBM$PACK1
         3 002262   000000 011000                    NOP     0

      517    13294    3                CALL DBM$PACK2(G$JIT.PCP,PCP);

  13294  3 002263   200566 630500                    EPPR0   PCP,,AUTO
         3 002264   200707 450500                    STP0    SFDATA$+4,,AUTO
         3 002265   200710 452500                    STP2    SFDATA$+5,,AUTO
         3 002266   200710 236100                    LDQ     SFDATA$+5,,AUTO
         3 002267   000047 036000 4                  ADLQ    39
         3 002270   200706 756100                    STQ     SFDATA$+3,,AUTO
         3 002271   200706 630500                    EPPR0   SFDATA$+3,,AUTO
         3 002272   000020 631400 xsym               EPPR1   B_VECTNIL+16
         3 002273   000000 701000 xent               TSX1    DBM$PACK2
         3 002274   000000 011000                    NOP     0

      518    13295    3                CALL DBM$PACK2(G$JIT.PSEUDOPGS,PSEUDOPGS);

  13295  3 002275   200574 630500                    EPPR0   PSEUDOPGS,,AUTO
         3 002276   200707 450500                    STP0    SFDATA$+4,,AUTO
PL6.E3A0      #001=DBD$UTIL1 File=DBD$UTIL1.:E05TSI                              TUE 07/29/97 13:11 Page:89
         3 002277   200111 631500                    EPPR1   G$JIT+69,,AUTO
         3 002300   200706 451500                    STP1    SFDATA$+3,,AUTO
         3 002301   200706 630500                    EPPR0   SFDATA$+3,,AUTO
         3 002302   000020 631400 xsym               EPPR1   B_VECTNIL+16
         3 002303   000000 701000 xent               TSX1    DBM$PACK2
         3 002304   000000 011000                    NOP     0

      519    13296    3                IF SLIB = 0

  13296  3 002305   200600 235100                    LDA     SLIB,,AUTO
         3 002306   002313 601000 3                  TNZ     s:13302

      520    13297    4                THEN DO;

      521    13298    4                     ASDT_USR_FLG(29) = 2;

  13298  3 002307   002000 236003                    LDQ     1024,DU
         3 002310   000074 756000 1                  STQ     ASDT_USR_FLG+29

      522    13299    4                     ASDT_USR_FLG(30) = 2;

  13299  3 002311   000075 756000 1                  STQ     ASDT_USR_FLG+30

      523    13300    4                     END;

  13300  3 002312   002315 710000 3                  TRA     s:13305

      524    13301    4                ELSE DO;

      525    13302    4                     ASDT_USR_FLG(29) = 0;

  13302  3 002313   000074 450000 1                  STZ     ASDT_USR_FLG+29

      526    13303    4                     ASDT_USR_FLG(30) = 0;

  13303  3 002314   000075 450000 1                  STZ     ASDT_USR_FLG+30

PL6.E3A0      #001=DBD$UTIL1 File=DBD$UTIL1.:E05TSI                              TUE 07/29/97 13:11 Page:90
      527    13304    4                     END;

      528    13305    3                CALL DBM$GETMEM(UHJIT$,ASDTBASE,-UN,SIZEC(ASDTBASE),,SIZEC(ASDTBASE));

  13305  3 002315   200543 336100                    LCQ     UN,,AUTO
         3 002316   200706 756100                    STQ     SFDATA$+3,,AUTO
         3 002317   000057 236000 4                  LDQ     47
         3 002320   000001 235000 xsym               LDA     B_VECTNIL+1
         3 002321   200714 757100                    STAQ    SFDATA$+9,,AUTO
         3 002322   000057 236000 4                  LDQ     47
         3 002323   200713 756100                    STQ     SFDATA$+8,,AUTO
         3 002324   200706 630500                    EPPR0   SFDATA$+3,,AUTO
         3 002325   200712 450500                    STP0    SFDATA$+7,,AUTO
         3 002326   200411 631500                    EPPR1   ASDTBASE,,AUTO
         3 002327   200711 451500                    STP1    SFDATA$+6,,AUTO
         3 002330   000060 236000 4                  LDQ     48
         3 002331   200710 756100                    STQ     SFDATA$+5,,AUTO
         3 002332   200710 630500                    EPPR0   SFDATA$+5,,AUTO
         3 002333   000024 631400 xsym               EPPR1   B_VECTNIL+20
         3 002334   000000 701000 xent               TSX1    DBM$GETMEM
         3 002335   000000 011000                    NOP     0

      529    13306    3               CALL DBM$GETMEM(UHJIT$+SHRD_SEG_OFF,SHRD_SEG,-UN,SIZEC(SHRD_SEG),,SIZEC
             13306                         (SHRD_SEG));

  13306  3 002336   000042 236000 2                  LDQ     UHJIT$
         3 002337   000040 036000 2                  ADLQ    SHRD_SEG_OFF
         3 002340   200706 756100                    STQ     SFDATA$+3,,AUTO
         3 002341   200543 335100                    LCA     UN,,AUTO
         3 002342   200707 755100                    STA     SFDATA$+4,,AUTO
         3 002343   000062 236000 4                  LDQ     50
         3 002344   000001 235000 xsym               LDA     B_VECTNIL+1
         3 002345   200714 757100                    STAQ    SFDATA$+9,,AUTO
         3 002346   000062 236000 4                  LDQ     50
         3 002347   200713 756100                    STQ     SFDATA$+8,,AUTO
         3 002350   200707 630500                    EPPR0   SFDATA$+4,,AUTO
         3 002351   200712 450500                    STP0    SFDATA$+7,,AUTO
PL6.E3A0      #001=DBD$UTIL1 File=DBD$UTIL1.:E05TSI                              TUE 07/29/97 13:11 Page:91
         3 002352   200612 631500                    EPPR1   SHRD_SEG,,AUTO
         3 002353   200711 451500                    STP1    SFDATA$+6,,AUTO
         3 002354   200706 633500                    EPPR3   SFDATA$+3,,AUTO
         3 002355   200710 453500                    STP3    SFDATA$+5,,AUTO
         3 002356   200710 630500                    EPPR0   SFDATA$+5,,AUTO
         3 002357   000024 631400 xsym               EPPR1   B_VECTNIL+20
         3 002360   000000 701000 xent               TSX1    DBM$GETMEM
         3 002361   000000 011000                    NOP     0

      530    13307    3                CALL DBM$GETMEM(UHJIT$+SHRD_FLAG_OFF,SHRD_FLAG,-UN,4,,4);

  13307  3 002362   000042 236000 2                  LDQ     UHJIT$
         3 002363   000037 036000 2                  ADLQ    SHRD_FLAG_OFF
         3 002364   200706 756100                    STQ     SFDATA$+3,,AUTO
         3 002365   200543 335100                    LCA     UN,,AUTO
         3 002366   200707 755100                    STA     SFDATA$+4,,AUTO
         3 002367   000017 236000 4                  LDQ     15
         3 002370   000001 235000 xsym               LDA     B_VECTNIL+1
         3 002371   200714 757100                    STAQ    SFDATA$+9,,AUTO
         3 002372   000017 236000 4                  LDQ     15
         3 002373   200713 756100                    STQ     SFDATA$+8,,AUTO
         3 002374   200707 630500                    EPPR0   SFDATA$+4,,AUTO
         3 002375   200712 450500                    STP0    SFDATA$+7,,AUTO
         3 002376   200611 631500                    EPPR1   SHRD_FLAG,,AUTO
         3 002377   200711 451500                    STP1    SFDATA$+6,,AUTO
         3 002400   200706 633500                    EPPR3   SFDATA$+3,,AUTO
         3 002401   200710 453500                    STP3    SFDATA$+5,,AUTO
         3 002402   200710 630500                    EPPR0   SFDATA$+5,,AUTO
         3 002403   000024 631400 xsym               EPPR1   B_VECTNIL+20
         3 002404   000000 701000 xent               TSX1    DBM$GETMEM
         3 002405   000000 011000                    NOP     0

      531    13308    3                CALL DBM$PACK4(SHRD_FLAG,SHRD_FLAG);

  13308  3 002406   200611 630500                    EPPR0   SHRD_FLAG,,AUTO
         3 002407   200707 450500                    STP0    SFDATA$+4,,AUTO
         3 002410   200611 631500                    EPPR1   SHRD_FLAG,,AUTO
PL6.E3A0      #001=DBD$UTIL1 File=DBD$UTIL1.:E05TSI                              TUE 07/29/97 13:11 Page:92
         3 002411   200706 451500                    STP1    SFDATA$+3,,AUTO
         3 002412   200706 630500                    EPPR0   SFDATA$+3,,AUTO
         3 002413   000020 631400 xsym               EPPR1   B_VECTNIL+16
         3 002414   000000 701000 xent               TSX1    DBM$PACK4
         3 002415   000000 011000                    NOP     0

      532    13309    4                DO I = 0 TO 30;

  13309  3 002416   200540 450100                    STZ     I,,AUTO

      533    13310    4                     IF (ASDTBASE.WORD1.V(I) ) AND NOT(CVM_REAL.SEG(I) )

  13310  3 002417   200540 720100                    LXL0    I,,AUTO
         3 002420   200411 236110                    LDQ     ASDTBASE,X0,AUTO
         3 002421   200000 316003                    CANQ    65536,DU
         3 002422   002625 600000 3                  TZE     OK_4_NOW
         3 002423   200540 235100                    LDA     I,,AUTO
         3 002424   002426 605000 3                  TPL     s:13310+7
         3 002425   000044 035003                    ADLA    36,DU
         3 002426   000000 066505                    CMPB    filb='0'B
         3 002427   200610 040001                    BDSC    CVM_REAL,A,AUTO          by=0,bit=4,n=1
         3 002430   000002 000022 xsym               BDSC    B_VECTNIL+2              by=0,bit=0,n=18
         3 002431   002625 601000 3                  TNZ     OK_4_NOW
         3 002432   200540 235100                    LDA     I,,AUTO
         3 002433   002435 605000 3                  TPL     s:13310+14
         3 002434   000044 035003                    ADLA    36,DU
         3 002435   000000 066505                    CMPB    filb='0'B
         3 002436   200611 040001                    BDSC    SHRD_FLAG,A,AUTO         by=0,bit=4,n=1
         3 002437   000002 000022 xsym               BDSC    B_VECTNIL+2              by=0,bit=0,n=18
         3 002440   002625 601000 3                  TNZ     OK_4_NOW
         3 002441   200540 235100                    LDA     I,,AUTO
         3 002442   000100 101505                    MRL     fill='000'O
         3 002443   200612 000001                    ADSC9   SHRD_SEG,A,AUTO          cn=0,n=1
         3 002444   200706 000004                    ADSC9   SFDATA$+3,,AUTO          cn=0,n=4
         3 002445   200706 236100                    LDQ     SFDATA$+3,,AUTO
         3 002446   000000 116003                    CMPQ    0,DU
         3 002447   002625 601000 3                  TNZ     OK_4_NOW
PL6.E3A0      #001=DBD$UTIL1 File=DBD$UTIL1.:E05TSI                              TUE 07/29/97 13:11 Page:93

      534    13311    4                       AND NOT(SHRD_FLAG.SEG(I) )
      535    13312    4                       AND SHRD_SEG(I) = 0
      536    13313    5                     THEN DO;

      537    13314    5                          CALL DBM$PACK2(ASDTBASE.WORD2(I),WORD2);

  13314  3 002450   200701 630500                    EPPR0   WORD2,,AUTO
         3 002451   200707 450500                    STP0    SFDATA$+4,,AUTO
         3 002452   200710 452500                    STP2    SFDATA$+5,,AUTO
         3 002453   200540 236100                    LDQ     I,,AUTO
         3 002454   000022 736000                    QLS     18
         3 002455   000063 036000 4                  ADLQ    51
         3 002456   200710 036100                    ADLQ    SFDATA$+5,,AUTO
         3 002457   200706 756100                    STQ     SFDATA$+3,,AUTO
         3 002460   200706 630500                    EPPR0   SFDATA$+3,,AUTO
         3 002461   000020 631400 xsym               EPPR1   B_VECTNIL+16
         3 002462   000000 701000 xent               TSX1    DBM$PACK2
         3 002463   000000 011000                    NOP     0

      538    13315    5                          ASDT_USR(ASDT_USR_FLG(I)*5+G$JIT.MODE) =

  13315  3 002464   200006 236100                    LDQ     G$JIT+2,,AUTO
         3 002465   000033 772000                    QRL     27
         3 002466   200706 756100                    STQ     SFDATA$+3,,AUTO
         3 002467   200540 720100                    LXL0    I,,AUTO
         3 002470   000037 236010 1                  LDQ     ASDT_USR_FLG,X0
         3 002471   000033 772000                    QRL     27
         3 002472   000005 402007                    MPY     5,DL
         3 002473   200706 036100                    ADLQ    SFDATA$+3,,AUTO
         3 002474   200707 756100                    STQ     SFDATA$+4,,AUTO
         3 002475   200006 236100                    LDQ     G$JIT+2,,AUTO
         3 002476   000033 772000                    QRL     27
         3 002477   200710 756100                    STQ     SFDATA$+5,,AUTO
         3 002500   000037 236010 1                  LDQ     ASDT_USR_FLG,X0
         3 002501   000033 772000                    QRL     27
         3 002502   000005 402007                    MPY     5,DL
PL6.E3A0      #001=DBD$UTIL1 File=DBD$UTIL1.:E05TSI                              TUE 07/29/97 13:11 Page:94
         3 002503   200710 036100                    ADLQ    SFDATA$+5,,AUTO
         3 002504   000000 621006                    EAX1    0,QL
         3 002505   200701 236100                    LDQ     WORD2,,AUTO
         3 002506   000777 376007                    ANQ     511,DL
         3 002507   200471 036111                    ADLQ    ASDT_USR,X1,AUTO
         3 002510   000001 036007                    ADLQ    1,DL
         3 002511   200707 721100                    LXL1    SFDATA$+4,,AUTO
         3 002512   200471 756111                    STQ     ASDT_USR,X1,AUTO

      539    13316    5                            ASDT_USR(ASDT_USR_FLG(I)*5+G$JIT.MODE) + WORD2.SIZE + 1;
      540    13317
      541    13318    5                          IF DBD$FEPMAP$~=ADDR(NIL) AND ASDT_USR_FLG(I)~=0

  13318  3 002513   000000 236000 xsym               LDQ     DBD$FEPMAP$
         3 002514   000001 116000 xsym               CMPQ    B_VECTNIL+1
         3 002515   002625 600000 3                  TZE     OK_4_NOW
         3 002516   000037 236010 1                  LDQ     ASDT_USR_FLG,X0
         3 002517   777000 316003                    CANQ    -512,DU
         3 002520   002625 600000 3                  TZE     OK_4_NOW

      542    13319    6                          THEN DO;

      543    13320    6                               MAP_ERR = 0;

  13320  3 002521   200622 450100                    STZ     MAP_ERR,,AUTO

      544    13321    6                               ASDTBASE.WORD1.V(I) = '0'B;

  13321  3 002522   000064 236000 4                  LDQ     52
         3 002523   200411 356110                    ANSQ    ASDTBASE,X0,AUTO

      545    13322    6                               CALL DBM$PACK2(ASDTBASE.WORD1(I),MAP_PG#);

  13322  3 002524   200623 630500                    EPPR0   MAP_PG#,,AUTO
         3 002525   200707 450500                    STP0    SFDATA$+4,,AUTO
         3 002526   200411 631510                    EPPR1   ASDTBASE,X0,AUTO
         3 002527   200706 451500                    STP1    SFDATA$+3,,AUTO
PL6.E3A0      #001=DBD$UTIL1 File=DBD$UTIL1.:E05TSI                              TUE 07/29/97 13:11 Page:95
         3 002530   200706 630500                    EPPR0   SFDATA$+3,,AUTO
         3 002531   000020 631400 xsym               EPPR1   B_VECTNIL+16
         3 002532   000000 701000 xent               TSX1    DBM$PACK2
         3 002533   000000 011000                    NOP     0

      546    13323
      547    13324    6                               IF DBD$FEPMAP$->B$FEPMAP(MAP_PG#) ~= '0'B

  13324  3 002534   000000 470400 xsym               LDP0    DBD$FEPMAP$
         3 002535   200623 720100                    LXL0    MAP_PG#,,AUTO
         3 002536   000000 235110                    LDA     0,X0,PR0
         3 002537   002561 600000 3                  TZE     s:13336

      548    13325    7                               THEN DO;

      549    13326        /*N*
      550    13327        */
      551    13328    7                                    IF (DBD$FEPMAP$->B$FEPMAP.TYP(MAP_PG#) = %
             13328                                             DBD_MAPTYP_SFILE#)

  13328  3 002540   000000 236110                    LDQ     0,X0,PR0
         3 002541   777000 376003                    ANQ     -512,DU
         3 002542   002000 116003                    CMPQ    1024,DU
         3 002543   002551 601000 3                  TNZ     s:13332
         3 002544   200540 235100                    LDA     I,,AUTO
         3 002545   000020 115007                    CMPA    16,DL
         3 002546   002551 604000 3                  TMI     s:13332
         3 002547   000026 115007                    CMPA    22,DL
         3 002550   002625 604400 3                  TMOZ    OK_4_NOW

      552    13329    7                                      AND (I >= %GM_ISR1#) AND (I <= %GM_ISR7#)
      553    13330    7                                    THEN GOTO OK_4_NOW;
      554    13331
      555    13332    7                                    CALL DBD$FEPMAP_ERR(MAP_PG#);

  13332  3 002551   200623 631500                    EPPR1   MAP_PG#,,AUTO
         3 002552   200706 451500                    STP1    SFDATA$+3,,AUTO
PL6.E3A0      #001=DBD$UTIL1 File=DBD$UTIL1.:E05TSI                              TUE 07/29/97 13:11 Page:96
         3 002553   200706 630500                    EPPR0   SFDATA$+3,,AUTO
         3 002554   000017 631400 xsym               EPPR1   B_VECTNIL+15
         3 002555   000000 701000 xent               TSX1    DBD$FEPMAP_ERR
         3 002556   000000 011000                    NOP     0

      556    13333    7                                    MAP_ERR = 1;

  13333  3 002557   000001 235007                    LDA     1,DL
         3 002560   200622 755100                    STA     MAP_ERR,,AUTO

      557    13334    7                                    END;

      558    13335
      559    13336    6                               DBD$FEPMAP$->B$FEPMAP.TYP(MAP_PG#) = %DBD_MAPTYP_USER#;

  13336  3 002561   000000 470400 xsym               LDP0    DBD$FEPMAP$
         3 002562   200623 720100                    LXL0    MAP_PG#,,AUTO
         3 002563   000000 236110                    LDQ     0,X0,PR0
         3 002564   000032 376000 xsym               ANQ     B_VECTNIL+26
         3 002565   003000 276003                    ORQ     1536,DU
         3 002566   000000 756110                    STQ     0,X0,PR0

      560    13337    6                               DBD$FEPMAP$->B$FEPMAP.WHAT#(MAP_PG#) = UN;

  13337  3 002567   000000 470400 xsym               LDP0    DBD$FEPMAP$
         3 002570   200623 720100                    LXL0    MAP_PG#,,AUTO
         3 002571   200543 236100                    LDQ     UN,,AUTO
         3 002572   000022 736000                    QLS     18
         3 002573   000000 676110                    ERQ     0,X0,PR0
         3 002574   000777 376003                    ANQ     511,DU
         3 002575   000000 656110                    ERSQ    0,X0,PR0

      561    13338    6                               DBD$FEPMAP$->B$FEPMAP.INDX#(MAP_PG#) = I;

  13338  3 002576   000000 470400 xsym               LDP0    DBD$FEPMAP$
         3 002577   200623 720100                    LXL0    MAP_PG#,,AUTO
         3 002600   200540 236100                    LDQ     I,,AUTO
PL6.E3A0      #001=DBD$UTIL1 File=DBD$UTIL1.:E05TSI                              TUE 07/29/97 13:11 Page:97
         3 002601   000011 736000                    QLS     9
         3 002602   000000 676110                    ERQ     0,X0,PR0
         3 002603   777000 376007                    ANQ     -512,DL
         3 002604   000000 656110                    ERSQ    0,X0,PR0

      562    13339    6                               DBD$FEPMAP$->B$FEPMAP.SIZE(MAP_PG#) = WORD2.SIZE + 1;

  13339  3 002605   000000 470400 xsym               LDP0    DBD$FEPMAP$
         3 002606   200623 720100                    LXL0    MAP_PG#,,AUTO
         3 002607   200701 236100                    LDQ     WORD2,,AUTO
         3 002610   000777 376007                    ANQ     511,DL
         3 002611   000001 036007                    ADLQ    1,DL
         3 002612   000000 676110                    ERQ     0,X0,PR0
         3 002613   000777 376007                    ANQ     511,DL
         3 002614   000000 656110                    ERSQ    0,X0,PR0

      563    13340
      564    13341    6                               IF MAP_ERR ~= 0

  13341  3 002615   200622 235100                    LDA     MAP_ERR,,AUTO
         3 002616   002625 600000 3                  TZE     OK_4_NOW

      565    13342    7                               THEN DO;

      566    13343    7                                    CALL DBD$FEPMAP_ERR(MAP_PG#);

  13343  3 002617   200623 630500                    EPPR0   MAP_PG#,,AUTO
         3 002620   200706 450500                    STP0    SFDATA$+3,,AUTO
         3 002621   200706 630500                    EPPR0   SFDATA$+3,,AUTO
         3 002622   000017 631400 xsym               EPPR1   B_VECTNIL+15
         3 002623   000000 701000 xent               TSX1    DBD$FEPMAP_ERR
         3 002624   000000 011000                    NOP     0

      567    13344    7                                    END;

  13341  3 002625                       OK_4_NOW     null
      568    13345    6   OK_4_NOW:                   ;
PL6.E3A0      #001=DBD$UTIL1 File=DBD$UTIL1.:E05TSI                              TUE 07/29/97 13:11 Page:98
      569    13346    6                               END/*do if DBD$FEPMAP$ ~ nil */;

      570    13347
      571    13348    5                          END;

      572    13349    4                     END;

  13349  3 002625   200540 054100                    AOS     I,,AUTO
         3 002626   200540 235100                    LDA     I,,AUTO
         3 002627   000036 115007                    CMPA    30,DL
         3 002630   002417 604400 3                  TMOZ    s:13310

      573    13350    3                IF SPROC = 0

  13350  3 002631   200577 236100                    LDQ     SPROC,,AUTO
         3 002632   002647 601000 3                  TNZ     s:13355

      574    13351    4                THEN DO;

      575    13352    4                     ASDT_USR(1*5+G$JIT.MODE) = ASDT_USR(1*5+G$JIT.MODE) + PCP;

  13352  3 002633   200006 236100                    LDQ     G$JIT+2,,AUTO
         3 002634   000033 772000                    QRL     27
         3 002635   000000 620006                    EAX0    0,QL
         3 002636   200476 236106                    LDQ     ASDT_USR+5,QL,AUTO
         3 002637   200566 036100                    ADLQ    PCP,,AUTO
         3 002640   200476 756110                    STQ     ASDT_USR+5,X0,AUTO

      576    13353    4                     ASDT_USR(2*5+G$JIT.MODE) = ASDT_USR(2*5+G$JIT.MODE) - PCP;

  13353  3 002641   200006 236100                    LDQ     G$JIT+2,,AUTO
         3 002642   000033 772000                    QRL     27
         3 002643   000000 620006                    EAX0    0,QL
         3 002644   200503 236106                    LDQ     ASDT_USR+10,QL,AUTO
         3 002645   200566 136100                    SBLQ    PCP,,AUTO
         3 002646   200503 756110                    STQ     ASDT_USR+10,X0,AUTO

PL6.E3A0      #001=DBD$UTIL1 File=DBD$UTIL1.:E05TSI                              TUE 07/29/97 13:11 Page:99
      577    13354    4                     END;

      578    13355    3                ASDT_USR(3*5+G$JIT.MODE) = ASDT_USR(3*5+G$JIT.MODE) + PSEUDOPGS;

  13355  3 002647   200006 236100                    LDQ     G$JIT+2,,AUTO
         3 002650   000033 772000                    QRL     27
         3 002651   000000 620006                    EAX0    0,QL
         3 002652   200510 236106                    LDQ     ASDT_USR+15,QL,AUTO
         3 002653   200574 036100                    ADLQ    PSEUDOPGS,,AUTO
         3 002654   200510 756110                    STQ     ASDT_USR+15,X0,AUTO

      579    13356    3                END;

      580    13357    2           END;

  13357  3 002655   200543 054100                    AOS     UN,,AUTO
         3 002656   200662 236100                    LDQ     MUIS,,AUTO
         3 002657   002162 604000 3                  TMI     s:13288
         3 002660   200543 116100                    CMPQ    UN,,AUTO
         3 002661   002162 605000 3                  TPL     s:13288

      581    13358        %EJECT;
PL6.E3A0      #001=DBD$UTIL1 File=DBD$UTIL1.:E05TSI                              TUE 07/29/97 13:11 Page:100
      582    13359    1      IF DBD$FEPMAP$ ~= ADDR(NIL) THEN RETURN/*doing MAP command*/;

  13359  3 002662   000000 236000 xsym               LDQ     DBD$FEPMAP$
         3 002663   000001 116000 xsym               CMPQ    B_VECTNIL+1
         3 002664   002666 600000 3                  TZE     s:13361

  13359  3 002665   000000 702200 xent               TSX2  ! X66_ARET

      583    13360
      584    13361    1      CALL DAF$INIT(MON_UTIL_RPT);

  13361  3 002666   000105 630400 4                  EPPR0   69
         3 002667   000017 631400 xsym               EPPR1   B_VECTNIL+15
         3 002670   000000 701000 xent               TSX1    DAF$INIT
         3 002671   000000 011000                    NOP     0

      585    13362    1      TOPIC = 'MONITOR';

  13362  3 002672   040100 100400                    MLR     fill='040'O
         3 002673   000346 000007 2                  ADSC9   BLANK_LINE+1             cn=0,n=7
         3 002674   200667 000007                    ADSC9   TOPIC,,AUTO              cn=0,n=7

      586    13363    1      MON_TOTAL = 0;

  13363  3 002675   200631 450100                    STZ     MON_TOTAL,,AUTO

      587    13364    2      DO I = 1 TO 7;

  13364  3 002676   000001 235007                    LDA     1,DL
         3 002677   200540 755100                    STA     I,,AUTO

      588    13365    2           CALL DAF$WRITE(VECTOR(TOTLFMT),VECTOR(TOPIC),

  13365  3 002700   000110 235000 4                  LDA     72
         3 002701   200706 452500                    STP2    SFDATA$+3,,AUTO
         3 002702   200706 236100                    LDQ     SFDATA$+3,,AUTO
         3 002703   000667 036003                    ADLQ    439,DU
PL6.E3A0      #001=DBD$UTIL1 File=DBD$UTIL1.:E05TSI                              TUE 07/29/97 13:11 Page:101
         3 002704   200710 757100                    STAQ    SFDATA$+5,,AUTO
         3 002705   000111 235000 4                  LDA     73
         3 002706   200540 236100                    LDQ     I,,AUTO
         3 002707   000025 736000                    QLS     21
         3 002710   000112 036000 4                  ADLQ    74
         3 002711   200712 757100                    STAQ    SFDATA$+7,,AUTO
         3 002712   777640 235007                    LDA     -96,DL
         3 002713   200714 452500                    STP2    SFDATA$+9,,AUTO
         3 002714   200540 236100                    LDQ     I,,AUTO
         3 002715   000022 736000                    QLS     18
         3 002716   000527 036003                    ADLQ    343,DU
         3 002717   200714 036100                    ADLQ    SFDATA$+9,,AUTO
         3 002720   200716 757100                    STAQ    SFDATA$+11,,AUTO
         3 002721   777640 235007                    LDA     -96,DL
         3 002722   200720 452500                    STP2    SFDATA$+13,,AUTO
         3 002723   200540 236100                    LDQ     I,,AUTO
         3 002724   000022 736000                    QLS     18
         3 002725   000527 036003                    ADLQ    343,DU
         3 002726   200720 036100                    ADLQ    SFDATA$+13,,AUTO
         3 002727   200724 757100                    STAQ    SFDATA$+17,,AUTO
         3 002730   200710 237100                    LDAQ    SFDATA$+5,,AUTO
         3 002731   200722 757100                    STAQ    SFDATA$+15,,AUTO
         3 002732   200712 237100                    LDAQ    SFDATA$+7,,AUTO
         3 002733   200726 757100                    STAQ    SFDATA$+19,,AUTO
         3 002734   200716 237100                    LDAQ    SFDATA$+11,,AUTO
         3 002735   200730 757100                    STAQ    SFDATA$+21,,AUTO
         3 002736   200724 237100                    LDAQ    SFDATA$+17,,AUTO
         3 002737   200732 757100                    STAQ    SFDATA$+23,,AUTO
         3 002740   200732 630500                    EPPR0   SFDATA$+23,,AUTO
         3 002741   200740 450500                    STP0    SFDATA$+29,,AUTO
         3 002742   200730 631500                    EPPR1   SFDATA$+21,,AUTO
         3 002743   200737 451500                    STP1    SFDATA$+28,,AUTO
         3 002744   200726 633500                    EPPR3   SFDATA$+19,,AUTO
         3 002745   200736 453500                    STP3    SFDATA$+27,,AUTO
         3 002746   200722 634500                    EPPR4   SFDATA$+15,,AUTO
         3 002747   200735 454500                    STP4    SFDATA$+26,,AUTO
         3 002750   000113 236000 4                  LDQ     75
PL6.E3A0      #001=DBD$UTIL1 File=DBD$UTIL1.:E05TSI                              TUE 07/29/97 13:11 Page:102
         3 002751   200734 756100                    STQ     SFDATA$+25,,AUTO
         3 002752   200734 630500                    EPPR0   SFDATA$+25,,AUTO
         3 002753   000000 220000 xsym               LDX0    DAF$WRITE
         3 002754   000023 631400 xsym               EPPR1   B_VECTNIL+19
         3 002755   000000 701010                    TSX1    0,X0
         3 002756   000000 011000                    NOP     0

      589    13366    2             VECTOR(ASDT_MON_TTL(I)),VECTOR(ASDT_MON(I)),VECTOR(ASDT_MON(I)));
      590    13367    2           MON_TOTAL = MON_TOTAL + ASDT_MON(I);

  13367  3 002757   200540 720100                    LXL0    I,,AUTO
         3 002760   200631 236100                    LDQ     MON_TOTAL,,AUTO
         3 002761   200527 036110                    ADLQ    ASDT_MON,X0,AUTO
         3 002762   200631 756100                    STQ     MON_TOTAL,,AUTO

      591    13368    2           END;

  13368  3 002763   200540 054100                    AOS     I,,AUTO
         3 002764   200540 235100                    LDA     I,,AUTO
         3 002765   000007 115007                    CMPA    7,DL
         3 002766   002700 604400 3                  TMOZ    s:13365

      592    13369    1      TITLE = 'Total Dedicated Memory..........';

  13369  3 002767   040100 100400                    MLR     fill='040'O
         3 002770   000350 000040 2                  ADSC9   BLANK_LINE+3             cn=0,n=32
         3 002771   200671 000040                    ADSC9   TITLE,,AUTO              cn=0,n=32

      593    13370    1      CALL DAF$WRITE(VECTOR(TOTLFMT),VECTOR(TOPIC),

  13370  3 002772   000110 235000 4                  LDA     72
         3 002773   200706 452500                    STP2    SFDATA$+3,,AUTO
         3 002774   200706 236100                    LDQ     SFDATA$+3,,AUTO
         3 002775   000667 036003                    ADLQ    439,DU
         3 002776   200710 757100                    STAQ    SFDATA$+5,,AUTO
         3 002777   000111 235000 4                  LDA     73
         3 003000   200712 452500                    STP2    SFDATA$+7,,AUTO
PL6.E3A0      #001=DBD$UTIL1 File=DBD$UTIL1.:E05TSI                              TUE 07/29/97 13:11 Page:103
         3 003001   200712 236100                    LDQ     SFDATA$+7,,AUTO
         3 003002   000671 036003                    ADLQ    441,DU
         3 003003   200714 757100                    STAQ    SFDATA$+9,,AUTO
         3 003004   777640 235007                    LDA     -96,DL
         3 003005   200716 452500                    STP2    SFDATA$+11,,AUTO
         3 003006   200716 236100                    LDQ     SFDATA$+11,,AUTO
         3 003007   000631 036003                    ADLQ    409,DU
         3 003010   200720 757100                    STAQ    SFDATA$+13,,AUTO
         3 003011   777640 235007                    LDA     -96,DL
         3 003012   200722 452500                    STP2    SFDATA$+15,,AUTO
         3 003013   200722 236100                    LDQ     SFDATA$+15,,AUTO
         3 003014   000631 036003                    ADLQ    409,DU
         3 003015   200726 757100                    STAQ    SFDATA$+19,,AUTO
         3 003016   200710 237100                    LDAQ    SFDATA$+5,,AUTO
         3 003017   200724 757100                    STAQ    SFDATA$+17,,AUTO
         3 003020   200714 237100                    LDAQ    SFDATA$+9,,AUTO
         3 003021   200730 757100                    STAQ    SFDATA$+21,,AUTO
         3 003022   200720 237100                    LDAQ    SFDATA$+13,,AUTO
         3 003023   200732 757100                    STAQ    SFDATA$+23,,AUTO
         3 003024   200726 237100                    LDAQ    SFDATA$+19,,AUTO
         3 003025   200734 757100                    STAQ    SFDATA$+25,,AUTO
         3 003026   200734 630500                    EPPR0   SFDATA$+25,,AUTO
         3 003027   200742 450500                    STP0    SFDATA$+31,,AUTO
         3 003030   200732 631500                    EPPR1   SFDATA$+23,,AUTO
         3 003031   200741 451500                    STP1    SFDATA$+30,,AUTO
         3 003032   200730 633500                    EPPR3   SFDATA$+21,,AUTO
         3 003033   200740 453500                    STP3    SFDATA$+29,,AUTO
         3 003034   200724 634500                    EPPR4   SFDATA$+17,,AUTO
         3 003035   200737 454500                    STP4    SFDATA$+28,,AUTO
         3 003036   000113 236000 4                  LDQ     75
         3 003037   200736 756100                    STQ     SFDATA$+27,,AUTO
         3 003040   200736 630500                    EPPR0   SFDATA$+27,,AUTO
         3 003041   000000 220000 xsym               LDX0    DAF$WRITE
         3 003042   000023 631400 xsym               EPPR1   B_VECTNIL+19
         3 003043   000000 701010                    TSX1    0,X0
         3 003044   000000 011000                    NOP     0

PL6.E3A0      #001=DBD$UTIL1 File=DBD$UTIL1.:E05TSI                              TUE 07/29/97 13:11 Page:104
      594    13371    1        VECTOR(TITLE),VECTOR(MON_TOTAL),VECTOR(MON_TOTAL));
      595    13372    1      CALL DAF$WRITE(VECTOR(BLANK_LINE));

  13372  3 003045   000006 630400 4                  EPPR0   6
         3 003046   000000 220000 xsym               LDX0    DAF$WRITE
         3 003047   000017 631400 xsym               EPPR1   B_VECTNIL+15
         3 003050   000000 701010                    TSX1    0,X0
         3 003051   000000 011000                    NOP     0

      596    13373    1      CALL DAF$WRITE(VECTOR(BLANK_LINE));

  13373  3 003052   000006 630400 4                  EPPR0   6
         3 003053   000000 220000 xsym               LDX0    DAF$WRITE
         3 003054   000017 631400 xsym               EPPR1   B_VECTNIL+15
         3 003055   000000 701010                    TSX1    0,X0
         3 003056   000000 011000                    NOP     0

      597    13374
      598    13375        %EJECT;
PL6.E3A0      #001=DBD$UTIL1 File=DBD$UTIL1.:E05TSI                              TUE 07/29/97 13:11 Page:105
      599    13376    1      CALL DAF$WRITE(VECTOR(USR_UTIL_HDR));

  13376  3 003057   000116 630400 4                  EPPR0   78
         3 003060   000000 220000 xsym               LDX0    DAF$WRITE
         3 003061   000017 631400 xsym               EPPR1   B_VECTNIL+15
         3 003062   000000 701010                    TSX1    0,X0
         3 003063   000000 011000                    NOP     0

      600    13377    1      TOPIC = 'FPRGS  ';

  13377  3 003064   040100 100400                    MLR     fill='040'O
         3 003065   000360 000007 2                  ADSC9   BLANK_LINE+11            cn=0,n=7
         3 003066   200667 000007                    ADSC9   TOPIC,,AUTO              cn=0,n=7

      601    13378    2      DO I = 1 TO 4;

  13378  3 003067   000001 235007                    LDA     1,DL
         3 003070   200540 755100                    STA     I,,AUTO

      602    13379    2           TOTAL(I) = 0;

  13379  3 003071   200540 720100                    LXL0    I,,AUTO
         3 003072   200632 450110                    STZ     TOTAL,X0,AUTO

      603    13380    2           END;

  13380  3 003073   200540 054100                    AOS     I,,AUTO
         3 003074   200540 235100                    LDA     I,,AUTO
         3 003075   000004 115007                    CMPA    4,DL
         3 003076   003071 604400 3                  TMOZ    s:13379

      604    13381    2      DO I = 1 TO 5;

  13381  3 003077   000001 236007                    LDQ     1,DL
         3 003100   200540 756100                    STQ     I,,AUTO

      605    13382    2           CALL DAF$WRITE(VECTOR(UTILFMT),VECTOR(TOPIC),
PL6.E3A0      #001=DBD$UTIL1 File=DBD$UTIL1.:E05TSI                              TUE 07/29/97 13:11 Page:106
      606    13383    2             VECTOR(ASDT_USR_TTL(I)),VECTOR(ASDT_USR(I*5+1)),
      607    13384    2             VECTOR(ASDT_USR(I*5+2)),VECTOR(ASDT_USR(I*5+3)),

  13384  3 003101   000110 235000 4                  LDA     72
         3 003102   200706 452500                    STP2    SFDATA$+3,,AUTO
         3 003103   200706 236100                    LDQ     SFDATA$+3,,AUTO
         3 003104   000667 036003                    ADLQ    439,DU
         3 003105   200710 757100                    STAQ    SFDATA$+5,,AUTO
         3 003106   000111 235000 4                  LDA     73
         3 003107   200540 236100                    LDQ     I,,AUTO
         3 003110   000025 736000                    QLS     21
         3 003111   000122 036000 4                  ADLQ    82
         3 003112   200712 757100                    STAQ    SFDATA$+7,,AUTO
         3 003113   777640 235007                    LDA     -96,DL
         3 003114   200714 452500                    STP2    SFDATA$+9,,AUTO
         3 003115   200540 236100                    LDQ     I,,AUTO
         3 003116   200715 755100                    STA     SFDATA$+10,,AUTO
         3 003117   000005 402003                    MPY     5,DU
         3 003120   000472 036003                    ADLQ    314,DU
         3 003121   200714 036100                    ADLQ    SFDATA$+9,,AUTO
         3 003122   200715 235100                    LDA     SFDATA$+10,,AUTO
         3 003123   200716 757100                    STAQ    SFDATA$+11,,AUTO
         3 003124   777640 235007                    LDA     -96,DL
         3 003125   200720 452500                    STP2    SFDATA$+13,,AUTO
         3 003126   200540 236100                    LDQ     I,,AUTO
         3 003127   200721 755100                    STA     SFDATA$+14,,AUTO
         3 003130   000005 402003                    MPY     5,DU
         3 003131   000473 036003                    ADLQ    315,DU
         3 003132   200720 036100                    ADLQ    SFDATA$+13,,AUTO
         3 003133   200721 235100                    LDA     SFDATA$+14,,AUTO
         3 003134   200722 757100                    STAQ    SFDATA$+15,,AUTO
         3 003135   777640 235007                    LDA     -96,DL
         3 003136   200724 452500                    STP2    SFDATA$+17,,AUTO
         3 003137   200540 236100                    LDQ     I,,AUTO
         3 003140   200725 755100                    STA     SFDATA$+18,,AUTO
         3 003141   000005 402003                    MPY     5,DU
         3 003142   000474 036003                    ADLQ    316,DU
PL6.E3A0      #001=DBD$UTIL1 File=DBD$UTIL1.:E05TSI                              TUE 07/29/97 13:11 Page:107
         3 003143   200724 036100                    ADLQ    SFDATA$+17,,AUTO
         3 003144   200725 235100                    LDA     SFDATA$+18,,AUTO
         3 003145   200726 757100                    STAQ    SFDATA$+19,,AUTO
         3 003146   777640 235007                    LDA     -96,DL
         3 003147   200730 452500                    STP2    SFDATA$+21,,AUTO
         3 003150   200540 236100                    LDQ     I,,AUTO
         3 003151   200731 755100                    STA     SFDATA$+22,,AUTO
         3 003152   000005 402003                    MPY     5,DU
         3 003153   000475 036003                    ADLQ    317,DU
         3 003154   200730 036100                    ADLQ    SFDATA$+21,,AUTO
         3 003155   200731 235100                    LDA     SFDATA$+22,,AUTO
         3 003156   200734 757100                    STAQ    SFDATA$+25,,AUTO
         3 003157   200710 237100                    LDAQ    SFDATA$+5,,AUTO
         3 003160   200732 757100                    STAQ    SFDATA$+23,,AUTO
         3 003161   200712 237100                    LDAQ    SFDATA$+7,,AUTO
         3 003162   200736 757100                    STAQ    SFDATA$+27,,AUTO
         3 003163   200716 237100                    LDAQ    SFDATA$+11,,AUTO
         3 003164   200740 757100                    STAQ    SFDATA$+29,,AUTO
         3 003165   200722 237100                    LDAQ    SFDATA$+15,,AUTO
         3 003166   200742 757100                    STAQ    SFDATA$+31,,AUTO
         3 003167   200726 237100                    LDAQ    SFDATA$+19,,AUTO
         3 003170   200744 757100                    STAQ    SFDATA$+33,,AUTO
         3 003171   200734 237100                    LDAQ    SFDATA$+25,,AUTO
         3 003172   200746 757100                    STAQ    SFDATA$+35,,AUTO
         3 003173   200746 630500                    EPPR0   SFDATA$+35,,AUTO
         3 003174   200756 450500                    STP0    SFDATA$+43,,AUTO
         3 003175   200744 631500                    EPPR1   SFDATA$+33,,AUTO
         3 003176   200755 451500                    STP1    SFDATA$+42,,AUTO
         3 003177   200742 633500                    EPPR3   SFDATA$+31,,AUTO
         3 003200   200754 453500                    STP3    SFDATA$+41,,AUTO
         3 003201   200740 634500                    EPPR4   SFDATA$+29,,AUTO
         3 003202   200753 454500                    STP4    SFDATA$+40,,AUTO
         3 003203   200736 635500                    EPPR5   SFDATA$+27,,AUTO
         3 003204   200752 455500                    STP5    SFDATA$+39,,AUTO
         3 003205   200732 636500                    EPPR6   SFDATA$+23,,AUTO
         3 003206   200751 456500                    STP6    SFDATA$+38,,AUTO
         3 003207   000123 236000 4                  LDQ     83
PL6.E3A0      #001=DBD$UTIL1 File=DBD$UTIL1.:E05TSI                              TUE 07/29/97 13:11 Page:108
         3 003210   200750 756100                    STQ     SFDATA$+37,,AUTO
         3 003211   200750 630500                    EPPR0   SFDATA$+37,,AUTO
         3 003212   000000 220000 xsym               LDX0    DAF$WRITE
         3 003213   000025 631400 xsym               EPPR1   B_VECTNIL+21
         3 003214   000000 701010                    TSX1    0,X0
         3 003215   000000 011000                    NOP     0

      608    13385    2             VECTOR(ASDT_USR(I*5+4)));
      609    13386    3           DO J = 1 TO 4;

  13386  3 003216   000001 235007                    LDA     1,DL
         3 003217   200541 755100                    STA     J,,AUTO

      610    13387    3                TOTAL(J) = TOTAL(J) + ASDT_USR(I*5+J);

  13387  3 003220   200540 236100                    LDQ     I,,AUTO
         3 003221   000005 402007                    MPY     5,DL
         3 003222   200541 036100                    ADLQ    J,,AUTO
         3 003223   000000 620006                    EAX0    0,QL
         3 003224   200541 721100                    LXL1    J,,AUTO
         3 003225   200632 236111                    LDQ     TOTAL,X1,AUTO
         3 003226   200471 036110                    ADLQ    ASDT_USR,X0,AUTO
         3 003227   200632 756111                    STQ     TOTAL,X1,AUTO

      611    13388    3                END;

  13388  3 003230   200541 235100                    LDA     J,,AUTO
         3 003231   000001 035007                    ADLA    1,DL
         3 003232   200541 755100                    STA     J,,AUTO
         3 003233   000005 115007                    CMPA    5,DL
         3 003234   003220 602000 3                  TNC     s:13387

      612    13389    2           END;

  13389  3 003235   200540 054100                    AOS     I,,AUTO
         3 003236   200540 236100                    LDQ     I,,AUTO
         3 003237   000005 116007                    CMPQ    5,DL
PL6.E3A0      #001=DBD$UTIL1 File=DBD$UTIL1.:E05TSI                              TUE 07/29/97 13:11 Page:109
         3 003240   003101 604400 3                  TMOZ    s:13384

      613    13390    1      FPRG_TOTAL = 0;

  13390  3 003241   200640 450100                    STZ     FPRG_TOTAL,,AUTO

      614    13391    2      DO I = 1 TO 4;

  13391  3 003242   000001 235007                    LDA     1,DL
         3 003243   200540 755100                    STA     I,,AUTO

      615    13392    2           FPRG_TOTAL = FPRG_TOTAL + TOTAL(I);

  13392  3 003244   200540 720100                    LXL0    I,,AUTO
         3 003245   200640 236100                    LDQ     FPRG_TOTAL,,AUTO
         3 003246   200632 036110                    ADLQ    TOTAL,X0,AUTO
         3 003247   200640 756100                    STQ     FPRG_TOTAL,,AUTO

      616    13393    2           END;

  13393  3 003250   200540 054100                    AOS     I,,AUTO
         3 003251   200540 235100                    LDA     I,,AUTO
         3 003252   000004 115007                    CMPA    4,DL
         3 003253   003244 604400 3                  TMOZ    s:13392

      617    13394    1      TITLE = 'Individual Totals...............';

  13394  3 003254   040100 100400                    MLR     fill='040'O
         3 003255   000362 000040 2                  ADSC9   BLANK_LINE+13            cn=0,n=32
         3 003256   200671 000040                    ADSC9   TITLE,,AUTO              cn=0,n=32

      618    13395    1      CALL DAF$WRITE(VECTOR(UTILFMT),VECTOR(TOPIC),VECTOR(TITLE),

  13395  3 003257   000110 235000 4                  LDA     72
         3 003260   200706 452500                    STP2    SFDATA$+3,,AUTO
         3 003261   200706 236100                    LDQ     SFDATA$+3,,AUTO
         3 003262   000667 036003                    ADLQ    439,DU
PL6.E3A0      #001=DBD$UTIL1 File=DBD$UTIL1.:E05TSI                              TUE 07/29/97 13:11 Page:110
         3 003263   200710 757100                    STAQ    SFDATA$+5,,AUTO
         3 003264   000111 235000 4                  LDA     73
         3 003265   200712 452500                    STP2    SFDATA$+7,,AUTO
         3 003266   200712 236100                    LDQ     SFDATA$+7,,AUTO
         3 003267   000671 036003                    ADLQ    441,DU
         3 003270   200714 757100                    STAQ    SFDATA$+9,,AUTO
         3 003271   777640 235007                    LDA     -96,DL
         3 003272   200716 452500                    STP2    SFDATA$+11,,AUTO
         3 003273   200716 236100                    LDQ     SFDATA$+11,,AUTO
         3 003274   000633 036003                    ADLQ    411,DU
         3 003275   200720 757100                    STAQ    SFDATA$+13,,AUTO
         3 003276   777640 235007                    LDA     -96,DL
         3 003277   200722 452500                    STP2    SFDATA$+15,,AUTO
         3 003300   200722 236100                    LDQ     SFDATA$+15,,AUTO
         3 003301   000634 036003                    ADLQ    412,DU
         3 003302   200724 757100                    STAQ    SFDATA$+17,,AUTO
         3 003303   777640 235007                    LDA     -96,DL
         3 003304   200726 452500                    STP2    SFDATA$+19,,AUTO
         3 003305   200726 236100                    LDQ     SFDATA$+19,,AUTO
         3 003306   000635 036003                    ADLQ    413,DU
         3 003307   200730 757100                    STAQ    SFDATA$+21,,AUTO
         3 003310   777640 235007                    LDA     -96,DL
         3 003311   200732 452500                    STP2    SFDATA$+23,,AUTO
         3 003312   200732 236100                    LDQ     SFDATA$+23,,AUTO
         3 003313   000636 036003                    ADLQ    414,DU
         3 003314   200736 757100                    STAQ    SFDATA$+27,,AUTO
         3 003315   200710 237100                    LDAQ    SFDATA$+5,,AUTO
         3 003316   200734 757100                    STAQ    SFDATA$+25,,AUTO
         3 003317   200714 237100                    LDAQ    SFDATA$+9,,AUTO
         3 003320   200740 757100                    STAQ    SFDATA$+29,,AUTO
         3 003321   200720 237100                    LDAQ    SFDATA$+13,,AUTO
         3 003322   200742 757100                    STAQ    SFDATA$+31,,AUTO
         3 003323   200724 237100                    LDAQ    SFDATA$+17,,AUTO
         3 003324   200744 757100                    STAQ    SFDATA$+33,,AUTO
         3 003325   200730 237100                    LDAQ    SFDATA$+21,,AUTO
         3 003326   200746 757100                    STAQ    SFDATA$+35,,AUTO
         3 003327   200736 237100                    LDAQ    SFDATA$+27,,AUTO
PL6.E3A0      #001=DBD$UTIL1 File=DBD$UTIL1.:E05TSI                              TUE 07/29/97 13:11 Page:111
         3 003330   200750 757100                    STAQ    SFDATA$+37,,AUTO
         3 003331   200750 630500                    EPPR0   SFDATA$+37,,AUTO
         3 003332   200760 450500                    STP0    SFDATA$+45,,AUTO
         3 003333   200746 631500                    EPPR1   SFDATA$+35,,AUTO
         3 003334   200757 451500                    STP1    SFDATA$+44,,AUTO
         3 003335   200744 633500                    EPPR3   SFDATA$+33,,AUTO
         3 003336   200756 453500                    STP3    SFDATA$+43,,AUTO
         3 003337   200742 634500                    EPPR4   SFDATA$+31,,AUTO
         3 003340   200755 454500                    STP4    SFDATA$+42,,AUTO
         3 003341   200740 635500                    EPPR5   SFDATA$+29,,AUTO
         3 003342   200754 455500                    STP5    SFDATA$+41,,AUTO
         3 003343   200734 636500                    EPPR6   SFDATA$+25,,AUTO
         3 003344   200753 456500                    STP6    SFDATA$+40,,AUTO
         3 003345   000123 236000 4                  LDQ     83
         3 003346   200752 756100                    STQ     SFDATA$+39,,AUTO
         3 003347   200752 630500                    EPPR0   SFDATA$+39,,AUTO
         3 003350   000000 220000 xsym               LDX0    DAF$WRITE
         3 003351   000025 631400 xsym               EPPR1   B_VECTNIL+21
         3 003352   000000 701010                    TSX1    0,X0
         3 003353   000000 011000                    NOP     0

      619    13396    1        VECTOR(TOTAL(1)),VECTOR(TOTAL(2)),
      620    13397    1        VECTOR(TOTAL(3)),VECTOR(TOTAL(4)));
      621    13398    1      CALL DAF$WRITE(VECTOR(UTIL2FMT),VECTOR(TOPIC),VECTOR(TITLE),

  13398  3 003354   000110 235000 4                  LDA     72
         3 003355   200706 452500                    STP2    SFDATA$+3,,AUTO
         3 003356   200706 236100                    LDQ     SFDATA$+3,,AUTO
         3 003357   000667 036003                    ADLQ    439,DU
         3 003360   200710 757100                    STAQ    SFDATA$+5,,AUTO
         3 003361   000111 235000 4                  LDA     73
         3 003362   200712 452500                    STP2    SFDATA$+7,,AUTO
         3 003363   200712 236100                    LDQ     SFDATA$+7,,AUTO
         3 003364   000671 036003                    ADLQ    441,DU
         3 003365   200714 757100                    STAQ    SFDATA$+9,,AUTO
         3 003366   777640 235007                    LDA     -96,DL
         3 003367   200716 452500                    STP2    SFDATA$+11,,AUTO
PL6.E3A0      #001=DBD$UTIL1 File=DBD$UTIL1.:E05TSI                              TUE 07/29/97 13:11 Page:112
         3 003370   200716 236100                    LDQ     SFDATA$+11,,AUTO
         3 003371   000633 036003                    ADLQ    411,DU
         3 003372   200720 757100                    STAQ    SFDATA$+13,,AUTO
         3 003373   777640 235007                    LDA     -96,DL
         3 003374   200722 452500                    STP2    SFDATA$+15,,AUTO
         3 003375   200722 236100                    LDQ     SFDATA$+15,,AUTO
         3 003376   000634 036003                    ADLQ    412,DU
         3 003377   200724 757100                    STAQ    SFDATA$+17,,AUTO
         3 003400   777640 235007                    LDA     -96,DL
         3 003401   200726 452500                    STP2    SFDATA$+19,,AUTO
         3 003402   200726 236100                    LDQ     SFDATA$+19,,AUTO
         3 003403   000635 036003                    ADLQ    413,DU
         3 003404   200730 757100                    STAQ    SFDATA$+21,,AUTO
         3 003405   777640 235007                    LDA     -96,DL
         3 003406   200732 452500                    STP2    SFDATA$+23,,AUTO
         3 003407   200732 236100                    LDQ     SFDATA$+23,,AUTO
         3 003410   000636 036003                    ADLQ    414,DU
         3 003411   200736 757100                    STAQ    SFDATA$+27,,AUTO
         3 003412   200710 237100                    LDAQ    SFDATA$+5,,AUTO
         3 003413   200734 757100                    STAQ    SFDATA$+25,,AUTO
         3 003414   200714 237100                    LDAQ    SFDATA$+9,,AUTO
         3 003415   200740 757100                    STAQ    SFDATA$+29,,AUTO
         3 003416   200720 237100                    LDAQ    SFDATA$+13,,AUTO
         3 003417   200742 757100                    STAQ    SFDATA$+31,,AUTO
         3 003420   200724 237100                    LDAQ    SFDATA$+17,,AUTO
         3 003421   200744 757100                    STAQ    SFDATA$+33,,AUTO
         3 003422   200730 237100                    LDAQ    SFDATA$+21,,AUTO
         3 003423   200746 757100                    STAQ    SFDATA$+35,,AUTO
         3 003424   200736 237100                    LDAQ    SFDATA$+27,,AUTO
         3 003425   200750 757100                    STAQ    SFDATA$+37,,AUTO
         3 003426   200750 630500                    EPPR0   SFDATA$+37,,AUTO
         3 003427   200760 450500                    STP0    SFDATA$+45,,AUTO
         3 003430   200746 631500                    EPPR1   SFDATA$+35,,AUTO
         3 003431   200757 451500                    STP1    SFDATA$+44,,AUTO
         3 003432   200744 633500                    EPPR3   SFDATA$+33,,AUTO
         3 003433   200756 453500                    STP3    SFDATA$+43,,AUTO
         3 003434   200742 634500                    EPPR4   SFDATA$+31,,AUTO
PL6.E3A0      #001=DBD$UTIL1 File=DBD$UTIL1.:E05TSI                              TUE 07/29/97 13:11 Page:113
         3 003435   200755 454500                    STP4    SFDATA$+42,,AUTO
         3 003436   200740 635500                    EPPR5   SFDATA$+29,,AUTO
         3 003437   200754 455500                    STP5    SFDATA$+41,,AUTO
         3 003440   200734 636500                    EPPR6   SFDATA$+25,,AUTO
         3 003441   200753 456500                    STP6    SFDATA$+40,,AUTO
         3 003442   000126 236000 4                  LDQ     86
         3 003443   200752 756100                    STQ     SFDATA$+39,,AUTO
         3 003444   200752 630500                    EPPR0   SFDATA$+39,,AUTO
         3 003445   000000 220000 xsym               LDX0    DAF$WRITE
         3 003446   000025 631400 xsym               EPPR1   B_VECTNIL+21
         3 003447   000000 701010                    TSX1    0,X0
         3 003450   000000 011000                    NOP     0

      622    13399    1        VECTOR(TOTAL(1)),VECTOR(TOTAL(2)),
      623    13400    1        VECTOR(TOTAL(3)),VECTOR(TOTAL(4)));
      624    13401        %EJECT;
PL6.E3A0      #001=DBD$UTIL1 File=DBD$UTIL1.:E05TSI                              TUE 07/29/97 13:11 Page:114
      625    13402    1      CALL DAF$WRITE(VECTOR(BLANK_LINE));

  13402  3 003451   000006 630400 4                  EPPR0   6
         3 003452   000000 220000 xsym               LDX0    DAF$WRITE
         3 003453   000017 631400 xsym               EPPR1   B_VECTNIL+15
         3 003454   000000 701010                    TSX1    0,X0
         3 003455   000000 011000                    NOP     0

      626    13403    1      CALL DAF$WRITE(VECTOR(BLANK_LINE));

  13403  3 003456   000006 630400 4                  EPPR0   6
         3 003457   000000 220000 xsym               LDX0    DAF$WRITE
         3 003460   000017 631400 xsym               EPPR1   B_VECTNIL+15
         3 003461   000000 701010                    TSX1    0,X0
         3 003462   000000 011000                    NOP     0

      627    13404    1      AVAILABLE = MEM_HI - MON_TOTAL;

  13404  3 003463   200661 236100                    LDQ     MEM_HI,,AUTO
         3 003464   200631 136100                    SBLQ    MON_TOTAL,,AUTO
         3 003465   200637 756100                    STQ     AVAILABLE,,AUTO

      628    13405    1      TOPIC = 'TOTAL  ';

  13405  3 003466   040100 100400                    MLR     fill='040'O
         3 003467   000372 000007 2                  ADSC9   BLANK_LINE+21            cn=0,n=7
         3 003470   200667 000007                    ADSC9   TOPIC,,AUTO              cn=0,n=7

      629    13406
      630    13407    1      TITLE = 'Memory Available on FEP.........';

  13407  3 003471   040100 100400                    MLR     fill='040'O
         3 003472   000374 000040 2                  ADSC9   BLANK_LINE+23            cn=0,n=32
         3 003473   200671 000040                    ADSC9   TITLE,,AUTO              cn=0,n=32

      631    13408    1      CALL DAF$WRITE(VECTOR(TOTLFMT),VECTOR(TOPIC),VECTOR(TITLE),

PL6.E3A0      #001=DBD$UTIL1 File=DBD$UTIL1.:E05TSI                              TUE 07/29/97 13:11 Page:115
  13408  3 003474   000110 235000 4                  LDA     72
         3 003475   200706 452500                    STP2    SFDATA$+3,,AUTO
         3 003476   200706 236100                    LDQ     SFDATA$+3,,AUTO
         3 003477   000667 036003                    ADLQ    439,DU
         3 003500   200710 757100                    STAQ    SFDATA$+5,,AUTO
         3 003501   000111 235000 4                  LDA     73
         3 003502   200712 452500                    STP2    SFDATA$+7,,AUTO
         3 003503   200712 236100                    LDQ     SFDATA$+7,,AUTO
         3 003504   000671 036003                    ADLQ    441,DU
         3 003505   200714 757100                    STAQ    SFDATA$+9,,AUTO
         3 003506   777640 235007                    LDA     -96,DL
         3 003507   200716 452500                    STP2    SFDATA$+11,,AUTO
         3 003510   200716 236100                    LDQ     SFDATA$+11,,AUTO
         3 003511   000661 036003                    ADLQ    433,DU
         3 003512   200720 757100                    STAQ    SFDATA$+13,,AUTO
         3 003513   777640 235007                    LDA     -96,DL
         3 003514   200722 452500                    STP2    SFDATA$+15,,AUTO
         3 003515   200722 236100                    LDQ     SFDATA$+15,,AUTO
         3 003516   000661 036003                    ADLQ    433,DU
         3 003517   200726 757100                    STAQ    SFDATA$+19,,AUTO
         3 003520   200710 237100                    LDAQ    SFDATA$+5,,AUTO
         3 003521   200724 757100                    STAQ    SFDATA$+17,,AUTO
         3 003522   200714 237100                    LDAQ    SFDATA$+9,,AUTO
         3 003523   200730 757100                    STAQ    SFDATA$+21,,AUTO
         3 003524   200720 237100                    LDAQ    SFDATA$+13,,AUTO
         3 003525   200732 757100                    STAQ    SFDATA$+23,,AUTO
         3 003526   200726 237100                    LDAQ    SFDATA$+19,,AUTO
         3 003527   200734 757100                    STAQ    SFDATA$+25,,AUTO
         3 003530   200734 630500                    EPPR0   SFDATA$+25,,AUTO
         3 003531   200742 450500                    STP0    SFDATA$+31,,AUTO
         3 003532   200732 631500                    EPPR1   SFDATA$+23,,AUTO
         3 003533   200741 451500                    STP1    SFDATA$+30,,AUTO
         3 003534   200730 633500                    EPPR3   SFDATA$+21,,AUTO
         3 003535   200740 453500                    STP3    SFDATA$+29,,AUTO
         3 003536   200724 634500                    EPPR4   SFDATA$+17,,AUTO
         3 003537   200737 454500                    STP4    SFDATA$+28,,AUTO
         3 003540   000113 236000 4                  LDQ     75
PL6.E3A0      #001=DBD$UTIL1 File=DBD$UTIL1.:E05TSI                              TUE 07/29/97 13:11 Page:116
         3 003541   200736 756100                    STQ     SFDATA$+27,,AUTO
         3 003542   200736 630500                    EPPR0   SFDATA$+27,,AUTO
         3 003543   000000 220000 xsym               LDX0    DAF$WRITE
         3 003544   000023 631400 xsym               EPPR1   B_VECTNIL+19
         3 003545   000000 701010                    TSX1    0,X0
         3 003546   000000 011000                    NOP     0

      632    13409    1        VECTOR(MEM_HI),VECTOR(MEM_HI));
      633    13410
      634    13411    1      CALL DAF$WRITE(VECTOR(BLANK_LINE));

  13411  3 003547   000006 630400 4                  EPPR0   6
         3 003550   000000 220000 xsym               LDX0    DAF$WRITE
         3 003551   000017 631400 xsym               EPPR1   B_VECTNIL+15
         3 003552   000000 701010                    TSX1    0,X0
         3 003553   000000 011000                    NOP     0

      635    13412
      636    13413    1      TITLE = 'Memory Dedicated by LCP6 Monitor';

  13413  3 003554   040100 100400                    MLR     fill='040'O
         3 003555   000404 000040 2                  ADSC9   BLANK_LINE+31            cn=0,n=32
         3 003556   200671 000040                    ADSC9   TITLE,,AUTO              cn=0,n=32

      637    13414    1      CALL DAF$WRITE(VECTOR(TOTLFMT),VECTOR(TOPIC),VECTOR(TITLE),

  13414  3 003557   000110 235000 4                  LDA     72
         3 003560   200706 452500                    STP2    SFDATA$+3,,AUTO
         3 003561   200706 236100                    LDQ     SFDATA$+3,,AUTO
         3 003562   000667 036003                    ADLQ    439,DU
         3 003563   200710 757100                    STAQ    SFDATA$+5,,AUTO
         3 003564   000111 235000 4                  LDA     73
         3 003565   200712 452500                    STP2    SFDATA$+7,,AUTO
         3 003566   200712 236100                    LDQ     SFDATA$+7,,AUTO
         3 003567   000671 036003                    ADLQ    441,DU
         3 003570   200714 757100                    STAQ    SFDATA$+9,,AUTO
         3 003571   777640 235007                    LDA     -96,DL
PL6.E3A0      #001=DBD$UTIL1 File=DBD$UTIL1.:E05TSI                              TUE 07/29/97 13:11 Page:117
         3 003572   200716 452500                    STP2    SFDATA$+11,,AUTO
         3 003573   200716 236100                    LDQ     SFDATA$+11,,AUTO
         3 003574   000631 036003                    ADLQ    409,DU
         3 003575   200720 757100                    STAQ    SFDATA$+13,,AUTO
         3 003576   777640 235007                    LDA     -96,DL
         3 003577   200722 452500                    STP2    SFDATA$+15,,AUTO
         3 003600   200722 236100                    LDQ     SFDATA$+15,,AUTO
         3 003601   000631 036003                    ADLQ    409,DU
         3 003602   200726 757100                    STAQ    SFDATA$+19,,AUTO
         3 003603   200710 237100                    LDAQ    SFDATA$+5,,AUTO
         3 003604   200724 757100                    STAQ    SFDATA$+17,,AUTO
         3 003605   200714 237100                    LDAQ    SFDATA$+9,,AUTO
         3 003606   200730 757100                    STAQ    SFDATA$+21,,AUTO
         3 003607   200720 237100                    LDAQ    SFDATA$+13,,AUTO
         3 003610   200732 757100                    STAQ    SFDATA$+23,,AUTO
         3 003611   200726 237100                    LDAQ    SFDATA$+19,,AUTO
         3 003612   200734 757100                    STAQ    SFDATA$+25,,AUTO
         3 003613   200734 630500                    EPPR0   SFDATA$+25,,AUTO
         3 003614   200742 450500                    STP0    SFDATA$+31,,AUTO
         3 003615   200732 631500                    EPPR1   SFDATA$+23,,AUTO
         3 003616   200741 451500                    STP1    SFDATA$+30,,AUTO
         3 003617   200730 633500                    EPPR3   SFDATA$+21,,AUTO
         3 003620   200740 453500                    STP3    SFDATA$+29,,AUTO
         3 003621   200724 634500                    EPPR4   SFDATA$+17,,AUTO
         3 003622   200737 454500                    STP4    SFDATA$+28,,AUTO
         3 003623   000113 236000 4                  LDQ     75
         3 003624   200736 756100                    STQ     SFDATA$+27,,AUTO
         3 003625   200736 630500                    EPPR0   SFDATA$+27,,AUTO
         3 003626   000000 220000 xsym               LDX0    DAF$WRITE
         3 003627   000023 631400 xsym               EPPR1   B_VECTNIL+19
         3 003630   000000 701010                    TSX1    0,X0
         3 003631   000000 011000                    NOP     0

      638    13415    1        VECTOR(MON_TOTAL),VECTOR(MON_TOTAL));
      639    13416
      640    13417    1      TITLE = 'Available for FPRGs and SFILEs';

PL6.E3A0      #001=DBD$UTIL1 File=DBD$UTIL1.:E05TSI                              TUE 07/29/97 13:11 Page:118
  13417  3 003632   040100 100400                    MLR     fill='040'O
         3 003633   000414 000036 2                  ADSC9   BLANK_LINE+39            cn=0,n=30
         3 003634   200671 000040                    ADSC9   TITLE,,AUTO              cn=0,n=32

      641    13418    1      CALL DAF$WRITE(VECTOR(TOTLFMT),VECTOR(TOPIC),VECTOR(TITLE),

  13418  3 003635   000110 235000 4                  LDA     72
         3 003636   200706 452500                    STP2    SFDATA$+3,,AUTO
         3 003637   200706 236100                    LDQ     SFDATA$+3,,AUTO
         3 003640   000667 036003                    ADLQ    439,DU
         3 003641   200710 757100                    STAQ    SFDATA$+5,,AUTO
         3 003642   000111 235000 4                  LDA     73
         3 003643   200712 452500                    STP2    SFDATA$+7,,AUTO
         3 003644   200712 236100                    LDQ     SFDATA$+7,,AUTO
         3 003645   000671 036003                    ADLQ    441,DU
         3 003646   200714 757100                    STAQ    SFDATA$+9,,AUTO
         3 003647   777640 235007                    LDA     -96,DL
         3 003650   200716 452500                    STP2    SFDATA$+11,,AUTO
         3 003651   200716 236100                    LDQ     SFDATA$+11,,AUTO
         3 003652   000637 036003                    ADLQ    415,DU
         3 003653   200720 757100                    STAQ    SFDATA$+13,,AUTO
         3 003654   777640 235007                    LDA     -96,DL
         3 003655   200722 452500                    STP2    SFDATA$+15,,AUTO
         3 003656   200722 236100                    LDQ     SFDATA$+15,,AUTO
         3 003657   000637 036003                    ADLQ    415,DU
         3 003660   200726 757100                    STAQ    SFDATA$+19,,AUTO
         3 003661   200710 237100                    LDAQ    SFDATA$+5,,AUTO
         3 003662   200724 757100                    STAQ    SFDATA$+17,,AUTO
         3 003663   200714 237100                    LDAQ    SFDATA$+9,,AUTO
         3 003664   200730 757100                    STAQ    SFDATA$+21,,AUTO
         3 003665   200720 237100                    LDAQ    SFDATA$+13,,AUTO
         3 003666   200732 757100                    STAQ    SFDATA$+23,,AUTO
         3 003667   200726 237100                    LDAQ    SFDATA$+19,,AUTO
         3 003670   200734 757100                    STAQ    SFDATA$+25,,AUTO
         3 003671   200734 630500                    EPPR0   SFDATA$+25,,AUTO
         3 003672   200742 450500                    STP0    SFDATA$+31,,AUTO
         3 003673   200732 631500                    EPPR1   SFDATA$+23,,AUTO
PL6.E3A0      #001=DBD$UTIL1 File=DBD$UTIL1.:E05TSI                              TUE 07/29/97 13:11 Page:119
         3 003674   200741 451500                    STP1    SFDATA$+30,,AUTO
         3 003675   200730 633500                    EPPR3   SFDATA$+21,,AUTO
         3 003676   200740 453500                    STP3    SFDATA$+29,,AUTO
         3 003677   200724 634500                    EPPR4   SFDATA$+17,,AUTO
         3 003700   200737 454500                    STP4    SFDATA$+28,,AUTO
         3 003701   000113 236000 4                  LDQ     75
         3 003702   200736 756100                    STQ     SFDATA$+27,,AUTO
         3 003703   200736 630500                    EPPR0   SFDATA$+27,,AUTO
         3 003704   000000 220000 xsym               LDX0    DAF$WRITE
         3 003705   000023 631400 xsym               EPPR1   B_VECTNIL+19
         3 003706   000000 701010                    TSX1    0,X0
         3 003707   000000 011000                    NOP     0

      642    13419    1        VECTOR(AVAILABLE),VECTOR(AVAILABLE));
      643    13420
      644    13421    1      CALL DAF$WRITE(VECTOR(BLANK_LINE));

  13421  3 003710   000006 630400 4                  EPPR0   6
         3 003711   000000 220000 xsym               LDX0    DAF$WRITE
         3 003712   000017 631400 xsym               EPPR1   B_VECTNIL+15
         3 003713   000000 701010                    TSX1    0,X0
         3 003714   000000 011000                    NOP     0

      645    13422
      646    13423    1      TITLE = 'System I/O Memory';

  13423  3 003715   040100 100400                    MLR     fill='040'O
         3 003716   000424 000021 2                  ADSC9   BLANK_LINE+47            cn=0,n=17
         3 003717   200671 000040                    ADSC9   TITLE,,AUTO              cn=0,n=32

      647    13424    1      CALL DAF$WRITE(VECTOR(TOTLFMT),VECTOR(TOPIC),VECTOR(TITLE),

  13424  3 003720   000110 235000 4                  LDA     72
         3 003721   200706 452500                    STP2    SFDATA$+3,,AUTO
         3 003722   200706 236100                    LDQ     SFDATA$+3,,AUTO
         3 003723   000667 036003                    ADLQ    439,DU
         3 003724   200710 757100                    STAQ    SFDATA$+5,,AUTO
PL6.E3A0      #001=DBD$UTIL1 File=DBD$UTIL1.:E05TSI                              TUE 07/29/97 13:11 Page:120
         3 003725   000111 235000 4                  LDA     73
         3 003726   200712 452500                    STP2    SFDATA$+7,,AUTO
         3 003727   200712 236100                    LDQ     SFDATA$+7,,AUTO
         3 003730   000671 036003                    ADLQ    441,DU
         3 003731   200714 757100                    STAQ    SFDATA$+9,,AUTO
         3 003732   777640 235007                    LDA     -96,DL
         3 003733   200716 452500                    STP2    SFDATA$+11,,AUTO
         3 003734   200716 236100                    LDQ     SFDATA$+11,,AUTO
         3 003735   000652 036003                    ADLQ    426,DU
         3 003736   200720 757100                    STAQ    SFDATA$+13,,AUTO
         3 003737   777640 235007                    LDA     -96,DL
         3 003740   200722 452500                    STP2    SFDATA$+15,,AUTO
         3 003741   200722 236100                    LDQ     SFDATA$+15,,AUTO
         3 003742   000652 036003                    ADLQ    426,DU
         3 003743   200726 757100                    STAQ    SFDATA$+19,,AUTO
         3 003744   200710 237100                    LDAQ    SFDATA$+5,,AUTO
         3 003745   200724 757100                    STAQ    SFDATA$+17,,AUTO
         3 003746   200714 237100                    LDAQ    SFDATA$+9,,AUTO
         3 003747   200730 757100                    STAQ    SFDATA$+21,,AUTO
         3 003750   200720 237100                    LDAQ    SFDATA$+13,,AUTO
         3 003751   200732 757100                    STAQ    SFDATA$+23,,AUTO
         3 003752   200726 237100                    LDAQ    SFDATA$+19,,AUTO
         3 003753   200734 757100                    STAQ    SFDATA$+25,,AUTO
         3 003754   200734 630500                    EPPR0   SFDATA$+25,,AUTO
         3 003755   200742 450500                    STP0    SFDATA$+31,,AUTO
         3 003756   200732 631500                    EPPR1   SFDATA$+23,,AUTO
         3 003757   200741 451500                    STP1    SFDATA$+30,,AUTO
         3 003760   200730 633500                    EPPR3   SFDATA$+21,,AUTO
         3 003761   200740 453500                    STP3    SFDATA$+29,,AUTO
         3 003762   200724 634500                    EPPR4   SFDATA$+17,,AUTO
         3 003763   200737 454500                    STP4    SFDATA$+28,,AUTO
         3 003764   000113 236000 4                  LDQ     75
         3 003765   200736 756100                    STQ     SFDATA$+27,,AUTO
         3 003766   200736 630500                    EPPR0   SFDATA$+27,,AUTO
         3 003767   000000 220000 xsym               LDX0    DAF$WRITE
         3 003770   000023 631400 xsym               EPPR1   B_VECTNIL+19
         3 003771   000000 701010                    TSX1    0,X0
PL6.E3A0      #001=DBD$UTIL1 File=DBD$UTIL1.:E05TSI                              TUE 07/29/97 13:11 Page:121
         3 003772   000000 011000                    NOP     0

      648    13425    1        VECTOR(TOTAL_NSHF),VECTOR(TOTAL_NSHF));
      649    13426
      650    13427    1      TITLE = 'System Standard Memory';

  13427  3 003773   040100 100400                    MLR     fill='040'O
         3 003774   000431 000026 2                  ADSC9   BLANK_LINE+52            cn=0,n=22
         3 003775   200671 000040                    ADSC9   TITLE,,AUTO              cn=0,n=32

      651    13428    1      CALL DAF$WRITE(VECTOR(TOTLFMT),VECTOR(TOPIC),VECTOR(TITLE),

  13428  3 003776   000110 235000 4                  LDA     72
         3 003777   200706 452500                    STP2    SFDATA$+3,,AUTO
         3 004000   200706 236100                    LDQ     SFDATA$+3,,AUTO
         3 004001   000667 036003                    ADLQ    439,DU
         3 004002   200710 757100                    STAQ    SFDATA$+5,,AUTO
         3 004003   000111 235000 4                  LDA     73
         3 004004   200712 452500                    STP2    SFDATA$+7,,AUTO
         3 004005   200712 236100                    LDQ     SFDATA$+7,,AUTO
         3 004006   000671 036003                    ADLQ    441,DU
         3 004007   200714 757100                    STAQ    SFDATA$+9,,AUTO
         3 004010   777640 235007                    LDA     -96,DL
         3 004011   200716 452500                    STP2    SFDATA$+11,,AUTO
         3 004012   200716 236100                    LDQ     SFDATA$+11,,AUTO
         3 004013   000646 036003                    ADLQ    422,DU
         3 004014   200720 757100                    STAQ    SFDATA$+13,,AUTO
         3 004015   777640 235007                    LDA     -96,DL
         3 004016   200722 452500                    STP2    SFDATA$+15,,AUTO
         3 004017   200722 236100                    LDQ     SFDATA$+15,,AUTO
         3 004020   000646 036003                    ADLQ    422,DU
         3 004021   200726 757100                    STAQ    SFDATA$+19,,AUTO
         3 004022   200710 237100                    LDAQ    SFDATA$+5,,AUTO
         3 004023   200724 757100                    STAQ    SFDATA$+17,,AUTO
         3 004024   200714 237100                    LDAQ    SFDATA$+9,,AUTO
         3 004025   200730 757100                    STAQ    SFDATA$+21,,AUTO
         3 004026   200720 237100                    LDAQ    SFDATA$+13,,AUTO
PL6.E3A0      #001=DBD$UTIL1 File=DBD$UTIL1.:E05TSI                              TUE 07/29/97 13:11 Page:122
         3 004027   200732 757100                    STAQ    SFDATA$+23,,AUTO
         3 004030   200726 237100                    LDAQ    SFDATA$+19,,AUTO
         3 004031   200734 757100                    STAQ    SFDATA$+25,,AUTO
         3 004032   200734 630500                    EPPR0   SFDATA$+25,,AUTO
         3 004033   200742 450500                    STP0    SFDATA$+31,,AUTO
         3 004034   200732 631500                    EPPR1   SFDATA$+23,,AUTO
         3 004035   200741 451500                    STP1    SFDATA$+30,,AUTO
         3 004036   200730 633500                    EPPR3   SFDATA$+21,,AUTO
         3 004037   200740 453500                    STP3    SFDATA$+29,,AUTO
         3 004040   200724 634500                    EPPR4   SFDATA$+17,,AUTO
         3 004041   200737 454500                    STP4    SFDATA$+28,,AUTO
         3 004042   000113 236000 4                  LDQ     75
         3 004043   200736 756100                    STQ     SFDATA$+27,,AUTO
         3 004044   200736 630500                    EPPR0   SFDATA$+27,,AUTO
         3 004045   000000 220000 xsym               LDX0    DAF$WRITE
         3 004046   000023 631400 xsym               EPPR1   B_VECTNIL+19
         3 004047   000000 701010                    TSX1    0,X0
         3 004050   000000 011000                    NOP     0

      652    13429    1        VECTOR(MAX_SHUF),VECTOR(MAX_SHUF));
      653    13430
      654    13431    1      CALL DAF$WRITE(VECTOR(BLANK_LINE));

  13431  3 004051   000006 630400 4                  EPPR0   6
         3 004052   000000 220000 xsym               LDX0    DAF$WRITE
         3 004053   000017 631400 xsym               EPPR1   B_VECTNIL+15
         3 004054   000000 701010                    TSX1    0,X0
         3 004055   000000 011000                    NOP     0

      655    13432
      656    13433    1      TITLE = 'Dedicated Handler/Library Memory';

  13433  3 004056   040100 100400                    MLR     fill='040'O
         3 004057   000437 000040 2                  ADSC9   BLANK_LINE+58            cn=0,n=32
         3 004060   200671 000040                    ADSC9   TITLE,,AUTO              cn=0,n=32

      657    13434    1      CALL DAF$WRITE(VECTOR(TOTLFMT),VECTOR(TOPIC),VECTOR(TITLE),
PL6.E3A0      #001=DBD$UTIL1 File=DBD$UTIL1.:E05TSI                              TUE 07/29/97 13:11 Page:123

  13434  3 004061   000110 235000 4                  LDA     72
         3 004062   200706 452500                    STP2    SFDATA$+3,,AUTO
         3 004063   200706 236100                    LDQ     SFDATA$+3,,AUTO
         3 004064   000667 036003                    ADLQ    439,DU
         3 004065   200710 757100                    STAQ    SFDATA$+5,,AUTO
         3 004066   000111 235000 4                  LDA     73
         3 004067   200712 452500                    STP2    SFDATA$+7,,AUTO
         3 004070   200712 236100                    LDQ     SFDATA$+7,,AUTO
         3 004071   000671 036003                    ADLQ    441,DU
         3 004072   200714 757100                    STAQ    SFDATA$+9,,AUTO
         3 004073   777640 235007                    LDA     -96,DL
         3 004074   200716 452500                    STP2    SFDATA$+11,,AUTO
         3 004075   200716 236100                    LDQ     SFDATA$+11,,AUTO
         3 004076   000657 036003                    ADLQ    431,DU
         3 004077   200720 757100                    STAQ    SFDATA$+13,,AUTO
         3 004100   777640 235007                    LDA     -96,DL
         3 004101   200722 452500                    STP2    SFDATA$+15,,AUTO
         3 004102   200722 236100                    LDQ     SFDATA$+15,,AUTO
         3 004103   000657 036003                    ADLQ    431,DU
         3 004104   200726 757100                    STAQ    SFDATA$+19,,AUTO
         3 004105   200710 237100                    LDAQ    SFDATA$+5,,AUTO
         3 004106   200724 757100                    STAQ    SFDATA$+17,,AUTO
         3 004107   200714 237100                    LDAQ    SFDATA$+9,,AUTO
         3 004110   200730 757100                    STAQ    SFDATA$+21,,AUTO
         3 004111   200720 237100                    LDAQ    SFDATA$+13,,AUTO
         3 004112   200732 757100                    STAQ    SFDATA$+23,,AUTO
         3 004113   200726 237100                    LDAQ    SFDATA$+19,,AUTO
         3 004114   200734 757100                    STAQ    SFDATA$+25,,AUTO
         3 004115   200734 630500                    EPPR0   SFDATA$+25,,AUTO
         3 004116   200742 450500                    STP0    SFDATA$+31,,AUTO
         3 004117   200732 631500                    EPPR1   SFDATA$+23,,AUTO
         3 004120   200741 451500                    STP1    SFDATA$+30,,AUTO
         3 004121   200730 633500                    EPPR3   SFDATA$+21,,AUTO
         3 004122   200740 453500                    STP3    SFDATA$+29,,AUTO
         3 004123   200724 634500                    EPPR4   SFDATA$+17,,AUTO
         3 004124   200737 454500                    STP4    SFDATA$+28,,AUTO
PL6.E3A0      #001=DBD$UTIL1 File=DBD$UTIL1.:E05TSI                              TUE 07/29/97 13:11 Page:124
         3 004125   000113 236000 4                  LDQ     75
         3 004126   200736 756100                    STQ     SFDATA$+27,,AUTO
         3 004127   200736 630500                    EPPR0   SFDATA$+27,,AUTO
         3 004130   000000 220000 xsym               LDX0    DAF$WRITE
         3 004131   000023 631400 xsym               EPPR1   B_VECTNIL+19
         3 004132   000000 701010                    TSX1    0,X0
         3 004133   000000 011000                    NOP     0

      658    13435    1        VECTOR(CURR_HSHUF),VECTOR(CURR_HSHUF));
      659    13436
      660    13437    1      TITLE = 'Available Standard Memory';

  13437  3 004134   040100 100400                    MLR     fill='040'O
         3 004135   000447 000031 2                  ADSC9   BLANK_LINE+66            cn=0,n=25
         3 004136   200671 000040                    ADSC9   TITLE,,AUTO              cn=0,n=32

      661    13438    1      CALL DAF$WRITE(VECTOR(TOTLFMT),VECTOR(TOPIC),VECTOR(TITLE),

  13438  3 004137   000110 235000 4                  LDA     72
         3 004140   200706 452500                    STP2    SFDATA$+3,,AUTO
         3 004141   200706 236100                    LDQ     SFDATA$+3,,AUTO
         3 004142   000667 036003                    ADLQ    439,DU
         3 004143   200710 757100                    STAQ    SFDATA$+5,,AUTO
         3 004144   000111 235000 4                  LDA     73
         3 004145   200712 452500                    STP2    SFDATA$+7,,AUTO
         3 004146   200712 236100                    LDQ     SFDATA$+7,,AUTO
         3 004147   000671 036003                    ADLQ    441,DU
         3 004150   200714 757100                    STAQ    SFDATA$+9,,AUTO
         3 004151   777640 235007                    LDA     -96,DL
         3 004152   200716 452500                    STP2    SFDATA$+11,,AUTO
         3 004153   200716 236100                    LDQ     SFDATA$+11,,AUTO
         3 004154   000651 036003                    ADLQ    425,DU
         3 004155   200720 757100                    STAQ    SFDATA$+13,,AUTO
         3 004156   777640 235007                    LDA     -96,DL
         3 004157   200722 452500                    STP2    SFDATA$+15,,AUTO
         3 004160   200722 236100                    LDQ     SFDATA$+15,,AUTO
         3 004161   000651 036003                    ADLQ    425,DU
PL6.E3A0      #001=DBD$UTIL1 File=DBD$UTIL1.:E05TSI                              TUE 07/29/97 13:11 Page:125
         3 004162   200726 757100                    STAQ    SFDATA$+19,,AUTO
         3 004163   200710 237100                    LDAQ    SFDATA$+5,,AUTO
         3 004164   200724 757100                    STAQ    SFDATA$+17,,AUTO
         3 004165   200714 237100                    LDAQ    SFDATA$+9,,AUTO
         3 004166   200730 757100                    STAQ    SFDATA$+21,,AUTO
         3 004167   200720 237100                    LDAQ    SFDATA$+13,,AUTO
         3 004170   200732 757100                    STAQ    SFDATA$+23,,AUTO
         3 004171   200726 237100                    LDAQ    SFDATA$+19,,AUTO
         3 004172   200734 757100                    STAQ    SFDATA$+25,,AUTO
         3 004173   200734 630500                    EPPR0   SFDATA$+25,,AUTO
         3 004174   200742 450500                    STP0    SFDATA$+31,,AUTO
         3 004175   200732 631500                    EPPR1   SFDATA$+23,,AUTO
         3 004176   200741 451500                    STP1    SFDATA$+30,,AUTO
         3 004177   200730 633500                    EPPR3   SFDATA$+21,,AUTO
         3 004200   200740 453500                    STP3    SFDATA$+29,,AUTO
         3 004201   200724 634500                    EPPR4   SFDATA$+17,,AUTO
         3 004202   200737 454500                    STP4    SFDATA$+28,,AUTO
         3 004203   000113 236000 4                  LDQ     75
         3 004204   200736 756100                    STQ     SFDATA$+27,,AUTO
         3 004205   200736 630500                    EPPR0   SFDATA$+27,,AUTO
         3 004206   000000 220000 xsym               LDX0    DAF$WRITE
         3 004207   000023 631400 xsym               EPPR1   B_VECTNIL+19
         3 004210   000000 701010                    TSX1    0,X0
         3 004211   000000 011000                    NOP     0

      662    13439    1        VECTOR(TOTAL_SHUF),VECTOR(TOTAL_SHUF));
      663    13440
      664    13441    1      CALL DAF$WRITE(VECTOR(BLANK_LINE));

  13441  3 004212   000006 630400 4                  EPPR0   6
         3 004213   000000 220000 xsym               LDX0    DAF$WRITE
         3 004214   000017 631400 xsym               EPPR1   B_VECTNIL+15
         3 004215   000000 701010                    TSX1    0,X0
         3 004216   000000 011000                    NOP     0

      665    13442
      666    13443    1      TITLE = 'Memory used by FPRGs';
PL6.E3A0      #001=DBD$UTIL1 File=DBD$UTIL1.:E05TSI                              TUE 07/29/97 13:11 Page:126

  13443  3 004217   040100 100400                    MLR     fill='040'O
         3 004220   000456 000024 2                  ADSC9   BLANK_LINE+73            cn=0,n=20
         3 004221   200671 000040                    ADSC9   TITLE,,AUTO              cn=0,n=32

      667    13444    1      CALL DAF$WRITE(VECTOR(TOTLFMT),VECTOR(TOPIC),VECTOR(TITLE),

  13444  3 004222   000110 235000 4                  LDA     72
         3 004223   200706 452500                    STP2    SFDATA$+3,,AUTO
         3 004224   200706 236100                    LDQ     SFDATA$+3,,AUTO
         3 004225   000667 036003                    ADLQ    439,DU
         3 004226   200710 757100                    STAQ    SFDATA$+5,,AUTO
         3 004227   000111 235000 4                  LDA     73
         3 004230   200712 452500                    STP2    SFDATA$+7,,AUTO
         3 004231   200712 236100                    LDQ     SFDATA$+7,,AUTO
         3 004232   000671 036003                    ADLQ    441,DU
         3 004233   200714 757100                    STAQ    SFDATA$+9,,AUTO
         3 004234   777640 235007                    LDA     -96,DL
         3 004235   200716 452500                    STP2    SFDATA$+11,,AUTO
         3 004236   200716 236100                    LDQ     SFDATA$+11,,AUTO
         3 004237   000640 036003                    ADLQ    416,DU
         3 004240   200720 757100                    STAQ    SFDATA$+13,,AUTO
         3 004241   777640 235007                    LDA     -96,DL
         3 004242   200722 452500                    STP2    SFDATA$+15,,AUTO
         3 004243   200722 236100                    LDQ     SFDATA$+15,,AUTO
         3 004244   000640 036003                    ADLQ    416,DU
         3 004245   200726 757100                    STAQ    SFDATA$+19,,AUTO
         3 004246   200710 237100                    LDAQ    SFDATA$+5,,AUTO
         3 004247   200724 757100                    STAQ    SFDATA$+17,,AUTO
         3 004250   200714 237100                    LDAQ    SFDATA$+9,,AUTO
         3 004251   200730 757100                    STAQ    SFDATA$+21,,AUTO
         3 004252   200720 237100                    LDAQ    SFDATA$+13,,AUTO
         3 004253   200732 757100                    STAQ    SFDATA$+23,,AUTO
         3 004254   200726 237100                    LDAQ    SFDATA$+19,,AUTO
         3 004255   200734 757100                    STAQ    SFDATA$+25,,AUTO
         3 004256   200734 630500                    EPPR0   SFDATA$+25,,AUTO
         3 004257   200742 450500                    STP0    SFDATA$+31,,AUTO
PL6.E3A0      #001=DBD$UTIL1 File=DBD$UTIL1.:E05TSI                              TUE 07/29/97 13:11 Page:127
         3 004260   200732 631500                    EPPR1   SFDATA$+23,,AUTO
         3 004261   200741 451500                    STP1    SFDATA$+30,,AUTO
         3 004262   200730 633500                    EPPR3   SFDATA$+21,,AUTO
         3 004263   200740 453500                    STP3    SFDATA$+29,,AUTO
         3 004264   200724 634500                    EPPR4   SFDATA$+17,,AUTO
         3 004265   200737 454500                    STP4    SFDATA$+28,,AUTO
         3 004266   000113 236000 4                  LDQ     75
         3 004267   200736 756100                    STQ     SFDATA$+27,,AUTO
         3 004270   200736 630500                    EPPR0   SFDATA$+27,,AUTO
         3 004271   000000 220000 xsym               LDX0    DAF$WRITE
         3 004272   000023 631400 xsym               EPPR1   B_VECTNIL+19
         3 004273   000000 701010                    TSX1    0,X0
         3 004274   000000 011000                    NOP     0

      668    13445    1        VECTOR(FPRG_TOTAL),VECTOR(FPRG_TOTAL));
      669    13446
      670    13447    1      TITLE = 'Memory used for SFILE Procedure';

  13447  3 004275   040100 100400                    MLR     fill='040'O
         3 004276   000463 000037 2                  ADSC9   BLANK_LINE+78            cn=0,n=31
         3 004277   200671 000040                    ADSC9   TITLE,,AUTO              cn=0,n=32

      671    13448    1      CALL DAF$WRITE(VECTOR(TOTLFMT),VECTOR(TOPIC),VECTOR(TITLE),

  13448  3 004300   000110 235000 4                  LDA     72
         3 004301   200706 452500                    STP2    SFDATA$+3,,AUTO
         3 004302   200706 236100                    LDQ     SFDATA$+3,,AUTO
         3 004303   000667 036003                    ADLQ    439,DU
         3 004304   200710 757100                    STAQ    SFDATA$+5,,AUTO
         3 004305   000111 235000 4                  LDA     73
         3 004306   200712 452500                    STP2    SFDATA$+7,,AUTO
         3 004307   200712 236100                    LDQ     SFDATA$+7,,AUTO
         3 004310   000671 036003                    ADLQ    441,DU
         3 004311   200714 757100                    STAQ    SFDATA$+9,,AUTO
         3 004312   777640 235007                    LDA     -96,DL
         3 004313   200716 452500                    STP2    SFDATA$+11,,AUTO
         3 004314   200716 236100                    LDQ     SFDATA$+11,,AUTO
PL6.E3A0      #001=DBD$UTIL1 File=DBD$UTIL1.:E05TSI                              TUE 07/29/97 13:11 Page:128
         3 004315   000643 036003                    ADLQ    419,DU
         3 004316   200720 757100                    STAQ    SFDATA$+13,,AUTO
         3 004317   777640 235007                    LDA     -96,DL
         3 004320   200722 452500                    STP2    SFDATA$+15,,AUTO
         3 004321   200722 236100                    LDQ     SFDATA$+15,,AUTO
         3 004322   000643 036003                    ADLQ    419,DU
         3 004323   200726 757100                    STAQ    SFDATA$+19,,AUTO
         3 004324   200710 237100                    LDAQ    SFDATA$+5,,AUTO
         3 004325   200724 757100                    STAQ    SFDATA$+17,,AUTO
         3 004326   200714 237100                    LDAQ    SFDATA$+9,,AUTO
         3 004327   200730 757100                    STAQ    SFDATA$+21,,AUTO
         3 004330   200720 237100                    LDAQ    SFDATA$+13,,AUTO
         3 004331   200732 757100                    STAQ    SFDATA$+23,,AUTO
         3 004332   200726 237100                    LDAQ    SFDATA$+19,,AUTO
         3 004333   200734 757100                    STAQ    SFDATA$+25,,AUTO
         3 004334   200734 630500                    EPPR0   SFDATA$+25,,AUTO
         3 004335   200742 450500                    STP0    SFDATA$+31,,AUTO
         3 004336   200732 631500                    EPPR1   SFDATA$+23,,AUTO
         3 004337   200741 451500                    STP1    SFDATA$+30,,AUTO
         3 004340   200730 633500                    EPPR3   SFDATA$+21,,AUTO
         3 004341   200740 453500                    STP3    SFDATA$+29,,AUTO
         3 004342   200724 634500                    EPPR4   SFDATA$+17,,AUTO
         3 004343   200737 454500                    STP4    SFDATA$+28,,AUTO
         3 004344   000113 236000 4                  LDQ     75
         3 004345   200736 756100                    STQ     SFDATA$+27,,AUTO
         3 004346   200736 630500                    EPPR0   SFDATA$+27,,AUTO
         3 004347   000000 220000 xsym               LDX0    DAF$WRITE
         3 004350   000023 631400 xsym               EPPR1   B_VECTNIL+19
         3 004351   000000 701010                    TSX1    0,X0
         3 004352   000000 011000                    NOP     0

      672    13449    1        VECTOR(SHR_PROC),VECTOR(SHR_PROC));
      673    13450
      674    13451    1      TITLE = 'Memory used for SFILE Data';

  13451  3 004353   040100 100400                    MLR     fill='040'O
         3 004354   000473 000032 2                  ADSC9   BLANK_LINE+86            cn=0,n=26
PL6.E3A0      #001=DBD$UTIL1 File=DBD$UTIL1.:E05TSI                              TUE 07/29/97 13:11 Page:129
         3 004355   200671 000040                    ADSC9   TITLE,,AUTO              cn=0,n=32

      675    13452    1      CALL DAF$WRITE(VECTOR(TOTLFMT),VECTOR(TOPIC),VECTOR(TITLE),

  13452  3 004356   000110 235000 4                  LDA     72
         3 004357   200706 452500                    STP2    SFDATA$+3,,AUTO
         3 004360   200706 236100                    LDQ     SFDATA$+3,,AUTO
         3 004361   000667 036003                    ADLQ    439,DU
         3 004362   200710 757100                    STAQ    SFDATA$+5,,AUTO
         3 004363   000111 235000 4                  LDA     73
         3 004364   200712 452500                    STP2    SFDATA$+7,,AUTO
         3 004365   200712 236100                    LDQ     SFDATA$+7,,AUTO
         3 004366   000671 036003                    ADLQ    441,DU
         3 004367   200714 757100                    STAQ    SFDATA$+9,,AUTO
         3 004370   777640 235007                    LDA     -96,DL
         3 004371   200716 452500                    STP2    SFDATA$+11,,AUTO
         3 004372   200716 236100                    LDQ     SFDATA$+11,,AUTO
         3 004373   000644 036003                    ADLQ    420,DU
         3 004374   200720 757100                    STAQ    SFDATA$+13,,AUTO
         3 004375   777640 235007                    LDA     -96,DL
         3 004376   200722 452500                    STP2    SFDATA$+15,,AUTO
         3 004377   200722 236100                    LDQ     SFDATA$+15,,AUTO
         3 004400   000644 036003                    ADLQ    420,DU
         3 004401   200726 757100                    STAQ    SFDATA$+19,,AUTO
         3 004402   200710 237100                    LDAQ    SFDATA$+5,,AUTO
         3 004403   200724 757100                    STAQ    SFDATA$+17,,AUTO
         3 004404   200714 237100                    LDAQ    SFDATA$+9,,AUTO
         3 004405   200730 757100                    STAQ    SFDATA$+21,,AUTO
         3 004406   200720 237100                    LDAQ    SFDATA$+13,,AUTO
         3 004407   200732 757100                    STAQ    SFDATA$+23,,AUTO
         3 004410   200726 237100                    LDAQ    SFDATA$+19,,AUTO
         3 004411   200734 757100                    STAQ    SFDATA$+25,,AUTO
         3 004412   200734 630500                    EPPR0   SFDATA$+25,,AUTO
         3 004413   200742 450500                    STP0    SFDATA$+31,,AUTO
         3 004414   200732 631500                    EPPR1   SFDATA$+23,,AUTO
         3 004415   200741 451500                    STP1    SFDATA$+30,,AUTO
         3 004416   200730 633500                    EPPR3   SFDATA$+21,,AUTO
PL6.E3A0      #001=DBD$UTIL1 File=DBD$UTIL1.:E05TSI                              TUE 07/29/97 13:11 Page:130
         3 004417   200740 453500                    STP3    SFDATA$+29,,AUTO
         3 004420   200724 634500                    EPPR4   SFDATA$+17,,AUTO
         3 004421   200737 454500                    STP4    SFDATA$+28,,AUTO
         3 004422   000113 236000 4                  LDQ     75
         3 004423   200736 756100                    STQ     SFDATA$+27,,AUTO
         3 004424   200736 630500                    EPPR0   SFDATA$+27,,AUTO
         3 004425   000000 220000 xsym               LDX0    DAF$WRITE
         3 004426   000023 631400 xsym               EPPR1   B_VECTNIL+19
         3 004427   000000 701010                    TSX1    0,X0
         3 004430   000000 011000                    NOP     0

      676    13453    1        VECTOR(SHR_DATA),VECTOR(SHR_DATA));
      677    13454    1      TOTAL_USED = FPRG_TOTAL + SHR_PROC+SHR_DATA;

  13454  3 004431   200640 236100                    LDQ     FPRG_TOTAL,,AUTO
         3 004432   200643 036100                    ADLQ    SHR_PROC,,AUTO
         3 004433   200644 036100                    ADLQ    SHR_DATA,,AUTO
         3 004434   200642 756100                    STQ     TOTAL_USED,,AUTO

      678    13455
      679    13456    1      TITLE = 'Memory Used - Total';

  13456  3 004435   040100 100400                    MLR     fill='040'O
         3 004436   000502 000023 2                  ADSC9   BLANK_LINE+93            cn=0,n=19
         3 004437   200671 000040                    ADSC9   TITLE,,AUTO              cn=0,n=32

      680    13457    1      CALL DAF$WRITE(VECTOR(TOTLFMT),VECTOR(TOPIC),VECTOR(TITLE),

  13457  3 004440   000110 235000 4                  LDA     72
         3 004441   200706 452500                    STP2    SFDATA$+3,,AUTO
         3 004442   200706 236100                    LDQ     SFDATA$+3,,AUTO
         3 004443   000667 036003                    ADLQ    439,DU
         3 004444   200710 757100                    STAQ    SFDATA$+5,,AUTO
         3 004445   000111 235000 4                  LDA     73
         3 004446   200712 452500                    STP2    SFDATA$+7,,AUTO
         3 004447   200712 236100                    LDQ     SFDATA$+7,,AUTO
         3 004450   000671 036003                    ADLQ    441,DU
PL6.E3A0      #001=DBD$UTIL1 File=DBD$UTIL1.:E05TSI                              TUE 07/29/97 13:11 Page:131
         3 004451   200714 757100                    STAQ    SFDATA$+9,,AUTO
         3 004452   777640 235007                    LDA     -96,DL
         3 004453   200716 452500                    STP2    SFDATA$+11,,AUTO
         3 004454   200716 236100                    LDQ     SFDATA$+11,,AUTO
         3 004455   000642 036003                    ADLQ    418,DU
         3 004456   200720 757100                    STAQ    SFDATA$+13,,AUTO
         3 004457   777640 235007                    LDA     -96,DL
         3 004460   200722 452500                    STP2    SFDATA$+15,,AUTO
         3 004461   200722 236100                    LDQ     SFDATA$+15,,AUTO
         3 004462   000642 036003                    ADLQ    418,DU
         3 004463   200726 757100                    STAQ    SFDATA$+19,,AUTO
         3 004464   200710 237100                    LDAQ    SFDATA$+5,,AUTO
         3 004465   200724 757100                    STAQ    SFDATA$+17,,AUTO
         3 004466   200714 237100                    LDAQ    SFDATA$+9,,AUTO
         3 004467   200730 757100                    STAQ    SFDATA$+21,,AUTO
         3 004470   200720 237100                    LDAQ    SFDATA$+13,,AUTO
         3 004471   200732 757100                    STAQ    SFDATA$+23,,AUTO
         3 004472   200726 237100                    LDAQ    SFDATA$+19,,AUTO
         3 004473   200734 757100                    STAQ    SFDATA$+25,,AUTO
         3 004474   200734 630500                    EPPR0   SFDATA$+25,,AUTO
         3 004475   200742 450500                    STP0    SFDATA$+31,,AUTO
         3 004476   200732 631500                    EPPR1   SFDATA$+23,,AUTO
         3 004477   200741 451500                    STP1    SFDATA$+30,,AUTO
         3 004500   200730 633500                    EPPR3   SFDATA$+21,,AUTO
         3 004501   200740 453500                    STP3    SFDATA$+29,,AUTO
         3 004502   200724 634500                    EPPR4   SFDATA$+17,,AUTO
         3 004503   200737 454500                    STP4    SFDATA$+28,,AUTO
         3 004504   000113 236000 4                  LDQ     75
         3 004505   200736 756100                    STQ     SFDATA$+27,,AUTO
         3 004506   200736 630500                    EPPR0   SFDATA$+27,,AUTO
         3 004507   000000 220000 xsym               LDX0    DAF$WRITE
         3 004510   000023 631400 xsym               EPPR1   B_VECTNIL+19
         3 004511   000000 701010                    TSX1    0,X0
         3 004512   000000 011000                    NOP     0

      681    13458    1        VECTOR(TOTAL_USED),VECTOR(TOTAL_USED));
      682    13459
PL6.E3A0      #001=DBD$UTIL1 File=DBD$UTIL1.:E05TSI                              TUE 07/29/97 13:11 Page:132
      683    13460    1      CALL DAF$WRITE(VECTOR(BLANK_LINE));

  13460  3 004513   000006 630400 4                  EPPR0   6
         3 004514   000000 220000 xsym               LDX0    DAF$WRITE
         3 004515   000017 631400 xsym               EPPR1   B_VECTNIL+15
         3 004516   000000 701010                    TSX1    0,X0
         3 004517   000000 011000                    NOP     0

      684    13461
      685    13462    1      TITLE = 'Memory Free - Standard';

  13462  3 004520   040100 100400                    MLR     fill='040'O
         3 004521   000507 000026 2                  ADSC9   BLANK_LINE+98            cn=0,n=22
         3 004522   200671 000040                    ADSC9   TITLE,,AUTO              cn=0,n=32

      686    13463    1      CALL DAF$WRITE(VECTOR(TOTLFMT),VECTOR(TOPIC),VECTOR(TITLE),

  13463  3 004523   000110 235000 4                  LDA     72
         3 004524   200706 452500                    STP2    SFDATA$+3,,AUTO
         3 004525   200706 236100                    LDQ     SFDATA$+3,,AUTO
         3 004526   000667 036003                    ADLQ    439,DU
         3 004527   200710 757100                    STAQ    SFDATA$+5,,AUTO
         3 004530   000111 235000 4                  LDA     73
         3 004531   200712 452500                    STP2    SFDATA$+7,,AUTO
         3 004532   200712 236100                    LDQ     SFDATA$+7,,AUTO
         3 004533   000671 036003                    ADLQ    441,DU
         3 004534   200714 757100                    STAQ    SFDATA$+9,,AUTO
         3 004535   777640 235007                    LDA     -96,DL
         3 004536   200716 452500                    STP2    SFDATA$+11,,AUTO
         3 004537   200716 236100                    LDQ     SFDATA$+11,,AUTO
         3 004540   000655 036003                    ADLQ    429,DU
         3 004541   200720 757100                    STAQ    SFDATA$+13,,AUTO
         3 004542   777640 235007                    LDA     -96,DL
         3 004543   200722 452500                    STP2    SFDATA$+15,,AUTO
         3 004544   200722 236100                    LDQ     SFDATA$+15,,AUTO
         3 004545   000655 036003                    ADLQ    429,DU
         3 004546   200726 757100                    STAQ    SFDATA$+19,,AUTO
PL6.E3A0      #001=DBD$UTIL1 File=DBD$UTIL1.:E05TSI                              TUE 07/29/97 13:11 Page:133
         3 004547   200710 237100                    LDAQ    SFDATA$+5,,AUTO
         3 004550   200724 757100                    STAQ    SFDATA$+17,,AUTO
         3 004551   200714 237100                    LDAQ    SFDATA$+9,,AUTO
         3 004552   200730 757100                    STAQ    SFDATA$+21,,AUTO
         3 004553   200720 237100                    LDAQ    SFDATA$+13,,AUTO
         3 004554   200732 757100                    STAQ    SFDATA$+23,,AUTO
         3 004555   200726 237100                    LDAQ    SFDATA$+19,,AUTO
         3 004556   200734 757100                    STAQ    SFDATA$+25,,AUTO
         3 004557   200734 630500                    EPPR0   SFDATA$+25,,AUTO
         3 004560   200742 450500                    STP0    SFDATA$+31,,AUTO
         3 004561   200732 631500                    EPPR1   SFDATA$+23,,AUTO
         3 004562   200741 451500                    STP1    SFDATA$+30,,AUTO
         3 004563   200730 633500                    EPPR3   SFDATA$+21,,AUTO
         3 004564   200740 453500                    STP3    SFDATA$+29,,AUTO
         3 004565   200724 634500                    EPPR4   SFDATA$+17,,AUTO
         3 004566   200737 454500                    STP4    SFDATA$+28,,AUTO
         3 004567   000113 236000 4                  LDQ     75
         3 004570   200736 756100                    STQ     SFDATA$+27,,AUTO
         3 004571   200736 630500                    EPPR0   SFDATA$+27,,AUTO
         3 004572   000000 220000 xsym               LDX0    DAF$WRITE
         3 004573   000023 631400 xsym               EPPR1   B_VECTNIL+19
         3 004574   000000 701010                    TSX1    0,X0
         3 004575   000000 011000                    NOP     0

      687    13464    1        VECTOR(CURR_SHUF),VECTOR(CURR_SHUF));
      688    13465
      689    13466    1      TITLE = 'Memory Free - I/O';

  13466  3 004576   040100 100400                    MLR     fill='040'O
         3 004577   000515 000021 2                  ADSC9   BLANK_LINE+104           cn=0,n=17
         3 004600   200671 000040                    ADSC9   TITLE,,AUTO              cn=0,n=32

      690    13467    1      CALL DAF$WRITE(VECTOR(TOTLFMT),VECTOR(TOPIC),VECTOR(TITLE),

  13467  3 004601   000110 235000 4                  LDA     72
         3 004602   200706 452500                    STP2    SFDATA$+3,,AUTO
         3 004603   200706 236100                    LDQ     SFDATA$+3,,AUTO
PL6.E3A0      #001=DBD$UTIL1 File=DBD$UTIL1.:E05TSI                              TUE 07/29/97 13:11 Page:134
         3 004604   000667 036003                    ADLQ    439,DU
         3 004605   200710 757100                    STAQ    SFDATA$+5,,AUTO
         3 004606   000111 235000 4                  LDA     73
         3 004607   200712 452500                    STP2    SFDATA$+7,,AUTO
         3 004610   200712 236100                    LDQ     SFDATA$+7,,AUTO
         3 004611   000671 036003                    ADLQ    441,DU
         3 004612   200714 757100                    STAQ    SFDATA$+9,,AUTO
         3 004613   777640 235007                    LDA     -96,DL
         3 004614   200716 452500                    STP2    SFDATA$+11,,AUTO
         3 004615   200716 236100                    LDQ     SFDATA$+11,,AUTO
         3 004616   000656 036003                    ADLQ    430,DU
         3 004617   200720 757100                    STAQ    SFDATA$+13,,AUTO
         3 004620   777640 235007                    LDA     -96,DL
         3 004621   200722 452500                    STP2    SFDATA$+15,,AUTO
         3 004622   200722 236100                    LDQ     SFDATA$+15,,AUTO
         3 004623   000656 036003                    ADLQ    430,DU
         3 004624   200726 757100                    STAQ    SFDATA$+19,,AUTO
         3 004625   200710 237100                    LDAQ    SFDATA$+5,,AUTO
         3 004626   200724 757100                    STAQ    SFDATA$+17,,AUTO
         3 004627   200714 237100                    LDAQ    SFDATA$+9,,AUTO
         3 004630   200730 757100                    STAQ    SFDATA$+21,,AUTO
         3 004631   200720 237100                    LDAQ    SFDATA$+13,,AUTO
         3 004632   200732 757100                    STAQ    SFDATA$+23,,AUTO
         3 004633   200726 237100                    LDAQ    SFDATA$+19,,AUTO
         3 004634   200734 757100                    STAQ    SFDATA$+25,,AUTO
         3 004635   200734 630500                    EPPR0   SFDATA$+25,,AUTO
         3 004636   200742 450500                    STP0    SFDATA$+31,,AUTO
         3 004637   200732 631500                    EPPR1   SFDATA$+23,,AUTO
         3 004640   200741 451500                    STP1    SFDATA$+30,,AUTO
         3 004641   200730 633500                    EPPR3   SFDATA$+21,,AUTO
         3 004642   200740 453500                    STP3    SFDATA$+29,,AUTO
         3 004643   200724 634500                    EPPR4   SFDATA$+17,,AUTO
         3 004644   200737 454500                    STP4    SFDATA$+28,,AUTO
         3 004645   000113 236000 4                  LDQ     75
         3 004646   200736 756100                    STQ     SFDATA$+27,,AUTO
         3 004647   200736 630500                    EPPR0   SFDATA$+27,,AUTO
         3 004650   000000 220000 xsym               LDX0    DAF$WRITE
PL6.E3A0      #001=DBD$UTIL1 File=DBD$UTIL1.:E05TSI                              TUE 07/29/97 13:11 Page:135
         3 004651   000023 631400 xsym               EPPR1   B_VECTNIL+19
         3 004652   000000 701010                    TSX1    0,X0
         3 004653   000000 011000                    NOP     0

      691    13468    1        VECTOR(CURR_NSHF),VECTOR(CURR_NSHF));
      692    13469    1      TOTAL_FREE = CURR_SHUF + CURR_NSHF;

  13469  3 004654   200655 236100                    LDQ     CURR_SHUF,,AUTO
         3 004655   200656 036100                    ADLQ    CURR_NSHF,,AUTO
         3 004656   200641 756100                    STQ     TOTAL_FREE,,AUTO

      693    13470
      694    13471    1      TITLE = 'Memory Free - Total';

  13471  3 004657   040100 100400                    MLR     fill='040'O
         3 004660   000522 000023 2                  ADSC9   BLANK_LINE+109           cn=0,n=19
         3 004661   200671 000040                    ADSC9   TITLE,,AUTO              cn=0,n=32

      695    13472    1      CALL DAF$WRITE(VECTOR(TOTLFMT),VECTOR(TOPIC),VECTOR(TITLE),

  13472  3 004662   000110 235000 4                  LDA     72
         3 004663   200706 452500                    STP2    SFDATA$+3,,AUTO
         3 004664   200706 236100                    LDQ     SFDATA$+3,,AUTO
         3 004665   000667 036003                    ADLQ    439,DU
         3 004666   200710 757100                    STAQ    SFDATA$+5,,AUTO
         3 004667   000111 235000 4                  LDA     73
         3 004670   200712 452500                    STP2    SFDATA$+7,,AUTO
         3 004671   200712 236100                    LDQ     SFDATA$+7,,AUTO
         3 004672   000671 036003                    ADLQ    441,DU
         3 004673   200714 757100                    STAQ    SFDATA$+9,,AUTO
         3 004674   777640 235007                    LDA     -96,DL
         3 004675   200716 452500                    STP2    SFDATA$+11,,AUTO
         3 004676   200716 236100                    LDQ     SFDATA$+11,,AUTO
         3 004677   000641 036003                    ADLQ    417,DU
         3 004700   200720 757100                    STAQ    SFDATA$+13,,AUTO
         3 004701   777640 235007                    LDA     -96,DL
         3 004702   200722 452500                    STP2    SFDATA$+15,,AUTO
PL6.E3A0      #001=DBD$UTIL1 File=DBD$UTIL1.:E05TSI                              TUE 07/29/97 13:11 Page:136
         3 004703   200722 236100                    LDQ     SFDATA$+15,,AUTO
         3 004704   000641 036003                    ADLQ    417,DU
         3 004705   200726 757100                    STAQ    SFDATA$+19,,AUTO
         3 004706   200710 237100                    LDAQ    SFDATA$+5,,AUTO
         3 004707   200724 757100                    STAQ    SFDATA$+17,,AUTO
         3 004710   200714 237100                    LDAQ    SFDATA$+9,,AUTO
         3 004711   200730 757100                    STAQ    SFDATA$+21,,AUTO
         3 004712   200720 237100                    LDAQ    SFDATA$+13,,AUTO
         3 004713   200732 757100                    STAQ    SFDATA$+23,,AUTO
         3 004714   200726 237100                    LDAQ    SFDATA$+19,,AUTO
         3 004715   200734 757100                    STAQ    SFDATA$+25,,AUTO
         3 004716   200734 630500                    EPPR0   SFDATA$+25,,AUTO
         3 004717   200742 450500                    STP0    SFDATA$+31,,AUTO
         3 004720   200732 631500                    EPPR1   SFDATA$+23,,AUTO
         3 004721   200741 451500                    STP1    SFDATA$+30,,AUTO
         3 004722   200730 633500                    EPPR3   SFDATA$+21,,AUTO
         3 004723   200740 453500                    STP3    SFDATA$+29,,AUTO
         3 004724   200724 634500                    EPPR4   SFDATA$+17,,AUTO
         3 004725   200737 454500                    STP4    SFDATA$+28,,AUTO
         3 004726   000113 236000 4                  LDQ     75
         3 004727   200736 756100                    STQ     SFDATA$+27,,AUTO
         3 004730   200736 630500                    EPPR0   SFDATA$+27,,AUTO
         3 004731   000000 220000 xsym               LDX0    DAF$WRITE
         3 004732   000023 631400 xsym               EPPR1   B_VECTNIL+19
         3 004733   000000 701010                    TSX1    0,X0
         3 004734   000000 011000                    NOP     0

      696    13473    1        VECTOR(TOTAL_FREE),VECTOR(TOTAL_FREE));
      697    13474
      698    13475    1      CALL DAF$WRITE(VECTOR(BLANK_LINE));

  13475  3 004735   000006 630400 4                  EPPR0   6
         3 004736   000000 220000 xsym               LDX0    DAF$WRITE
         3 004737   000017 631400 xsym               EPPR1   B_VECTNIL+15
         3 004740   000000 701010                    TSX1    0,X0
         3 004741   000000 011000                    NOP     0

PL6.E3A0      #001=DBD$UTIL1 File=DBD$UTIL1.:E05TSI                              TUE 07/29/97 13:11 Page:137
      699    13476
      700    13477    1      MISSING = MEM_HI - MON_TOTAL - FPRG_TOTAL - TOTAL_FREE - SHR_PROC - SHR_DATA;

  13477  3 004742   200661 236100                    LDQ     MEM_HI,,AUTO
         3 004743   200631 136100                    SBLQ    MON_TOTAL,,AUTO
         3 004744   200640 136100                    SBLQ    FPRG_TOTAL,,AUTO
         3 004745   200641 136100                    SBLQ    TOTAL_FREE,,AUTO
         3 004746   200643 136100                    SBLQ    SHR_PROC,,AUTO
         3 004747   200644 136100                    SBLQ    SHR_DATA,,AUTO
         3 004750   200660 756100                    STQ     MISSING,,AUTO

      701    13478    1      TITLE = 'Memory Unaccounted For';

  13478  3 004751   040100 100400                    MLR     fill='040'O
         3 004752   000527 000026 2                  ADSC9   BLANK_LINE+114           cn=0,n=22
         3 004753   200671 000040                    ADSC9   TITLE,,AUTO              cn=0,n=32

      702    13479    1      CALL DAF$WRITE(VECTOR(TOTLFMT),VECTOR(TOPIC),VECTOR(TITLE),

  13479  3 004754   000110 235000 4                  LDA     72
         3 004755   200706 452500                    STP2    SFDATA$+3,,AUTO
         3 004756   200706 236100                    LDQ     SFDATA$+3,,AUTO
         3 004757   000667 036003                    ADLQ    439,DU
         3 004760   200710 757100                    STAQ    SFDATA$+5,,AUTO
         3 004761   000111 235000 4                  LDA     73
         3 004762   200712 452500                    STP2    SFDATA$+7,,AUTO
         3 004763   200712 236100                    LDQ     SFDATA$+7,,AUTO
         3 004764   000671 036003                    ADLQ    441,DU
         3 004765   200714 757100                    STAQ    SFDATA$+9,,AUTO
         3 004766   777640 235007                    LDA     -96,DL
         3 004767   200716 452500                    STP2    SFDATA$+11,,AUTO
         3 004770   200716 236100                    LDQ     SFDATA$+11,,AUTO
         3 004771   000660 036003                    ADLQ    432,DU
         3 004772   200720 757100                    STAQ    SFDATA$+13,,AUTO
         3 004773   777640 235007                    LDA     -96,DL
         3 004774   200722 452500                    STP2    SFDATA$+15,,AUTO
         3 004775   200722 236100                    LDQ     SFDATA$+15,,AUTO
PL6.E3A0      #001=DBD$UTIL1 File=DBD$UTIL1.:E05TSI                              TUE 07/29/97 13:11 Page:138
         3 004776   000660 036003                    ADLQ    432,DU
         3 004777   200726 757100                    STAQ    SFDATA$+19,,AUTO
         3 005000   200710 237100                    LDAQ    SFDATA$+5,,AUTO
         3 005001   200724 757100                    STAQ    SFDATA$+17,,AUTO
         3 005002   200714 237100                    LDAQ    SFDATA$+9,,AUTO
         3 005003   200730 757100                    STAQ    SFDATA$+21,,AUTO
         3 005004   200720 237100                    LDAQ    SFDATA$+13,,AUTO
         3 005005   200732 757100                    STAQ    SFDATA$+23,,AUTO
         3 005006   200726 237100                    LDAQ    SFDATA$+19,,AUTO
         3 005007   200734 757100                    STAQ    SFDATA$+25,,AUTO
         3 005010   200734 630500                    EPPR0   SFDATA$+25,,AUTO
         3 005011   200742 450500                    STP0    SFDATA$+31,,AUTO
         3 005012   200732 631500                    EPPR1   SFDATA$+23,,AUTO
         3 005013   200741 451500                    STP1    SFDATA$+30,,AUTO
         3 005014   200730 633500                    EPPR3   SFDATA$+21,,AUTO
         3 005015   200740 453500                    STP3    SFDATA$+29,,AUTO
         3 005016   200724 634500                    EPPR4   SFDATA$+17,,AUTO
         3 005017   200737 454500                    STP4    SFDATA$+28,,AUTO
         3 005020   000113 236000 4                  LDQ     75
         3 005021   200736 756100                    STQ     SFDATA$+27,,AUTO
         3 005022   200736 630500                    EPPR0   SFDATA$+27,,AUTO
         3 005023   000000 220000 xsym               LDX0    DAF$WRITE
         3 005024   000023 631400 xsym               EPPR1   B_VECTNIL+19
         3 005025   000000 701010                    TSX1    0,X0
         3 005026   000000 011000                    NOP     0

      703    13480    1        VECTOR(MISSING),VECTOR(MISSING));
      704    13481
      705    13482    1      DA_MAPERR = '0'B;

  13482  3 005027   000000 450000 xsym               STZ     DA_MAPERR

      706    13483    1      CALL DAF$WRITE(VECTOR(BLANK_LINE));

  13483  3 005030   000006 630400 4                  EPPR0   6
         3 005031   000000 220000 xsym               LDX0    DAF$WRITE
         3 005032   000017 631400 xsym               EPPR1   B_VECTNIL+15
PL6.E3A0      #001=DBD$UTIL1 File=DBD$UTIL1.:E05TSI                              TUE 07/29/97 13:11 Page:139
         3 005033   000000 701010                    TSX1    0,X0
         3 005034   000000 011000                    NOP     0

      707    13484    1      CALL DAF$WRITE(VECTOR(BLANK_LINE));

  13484  3 005035   000006 630400 4                  EPPR0   6
         3 005036   000000 220000 xsym               LDX0    DAF$WRITE
         3 005037   000017 631400 xsym               EPPR1   B_VECTNIL+15
         3 005040   000000 701010                    TSX1    0,X0
         3 005041   000000 011000                    NOP     0

      708    13485    1      RETURN;

  13485  3 005042   000000 702200 xent               TSX2  ! X66_ARET
      709    13486
      710    13487    1   END DBD$UTIL1;

PL6.E3A0      #001=DBD$UTIL1 File=DBD$UTIL1.:E05TSI                              TUE 07/29/97 13:11 Page:140
--  Include file information  --

   GH_LCP6_M.:E05TOU  is referenced.
   G$BOBCAT_M.:E05TOU  is referenced.
   GH_SCHD_E.:E05TOU  is referenced.
   GH_SCHD_M.:E05TOU  is referenced.
   GJ_MACROS_M.:E05TOU  is referenced.
   DBD_FEP_E.:E05TOU  is referenced.
   DB_ANLZ_M.:E05TOU  is referenced.
   GM_MACRO_M.:E05TOU  is referenced.
   GM_VIRTUAL_E.:E05TOU  is referenced.
   G_LCP6_E.:E05TOU  is referenced.
   CP_6_C.:E05TOU  is referenced.
   CP_6.:E05TOU  cannot be made into a system file and is referenced.
   DA_FORMAT_C.:E05TOU  is referenced.
   G_JIT_M.:E05TOU  is referenced.
   XU_MACRO_C.:E05TOU  is referenced.
      No diagnostics issued in procedure DBD$UTIL1.
PL6.E3A0      #001=DBD$UTIL1 File=DBD$UTIL1.:E05TSI                              TUE 07/29/97 13:11 Page:141

 **** Variables and constants ****

  ****  Section 001  Data  DBD$UTIL1

  ****  Scalars and arrays  ****
OctLoc.c.b A Datatyp(siz) R M Lvl/name                 OctLoc.c.b A Datatyp(siz) R M Lvl/name

     0-0-0/w UBIN(9)     r     1 ASDT_PCT_FLG(0:30)
    37-0-0/w UBIN(9)     r     1 ASDT_USR_FLG(0:30)
   233-0-0/w STRC(288)   r     1 MON_UTIL_RPT             250-0-0/w STRC(144)   r     1 MON_UTIL_RPTHD00
   271-0-0/w STRC(144)   r     1 MON_UTIL_RPTHD01         243-0-0/c STRC(153)   r     1 MON_UTIL_RPTTX00
   254-0-0/c STRC(468)   r     1 MON_UTIL_RPTTX01         275-0-0/c STRC(18)    r     1 MON_UTIL_RPTTX02
    76-0-0/w STRC(288)   r     1 SPYRPT                   112-0-0/w STRC(144)   r     1 SPYRPTHD00
   106-0-0/c STRC(135)   r     1 SPYRPTTX00               116-0-0/c STRC(504)   r     1 SPYRPTTX01
   134-0-0/w STRC(288)   r     1 STAT_RPT                 153-0-0/w STRC(144)   r     1 STAT_RPTHD00
   203-0-0/w STRC(144)   r     1 STAT_RPTHD01             144-0-0/c STRC(252)   r     1 STAT_RPTTX00
   157-0-0/c STRC(720)   r     1 STAT_RPTTX01             207-0-0/c STRC(720)   r     1 STAT_RPTTX02

  ****  Section 002 RoData DBD$UTIL1

  ****  Scalars and arrays  ****
OctLoc.c.b A Datatyp(siz) R M Lvl/name                 OctLoc.c.b A Datatyp(siz) R M Lvl/name

     0-0-0/w UBIN(9)     r     1 ASDT_MON_FLG(0:30)
   117-0-0/c CHAR(32)    r     1 ASDT_MON_TTL(0:7)
   265-0-0/c CHAR(32)    r     1 ASDT_USR_TTL(0:5)
   345-0-0/c CHAR        r     1 BLANK_LINE                43-0-0/w UBIN        r     1 BOBCAT$
    44-0-0/w UBIN        r     1 MHJIT$
    77-0-0/c CHAR        r     1 MODECHAR(0:4)
    45-0-0/c CHAR(55)    r     1 RCV_SPYHDR                41-0-0/w UBIN        r     1 ROS$
    37-0-0/w UBIN        r     1 SHRD_FLAG_OFF             40-0-0/w UBIN        r     1 SHRD_SEG_OFF
    63-0-0/c CHAR(45)    r     1 SPYFMT                   101-0-0/c CHAR(55)    r     1 STATFMT
   260-0-0/c CHAR(20)    r     1 TOTLFMT                   42-0-0/w UBIN        r     1 UHJIT$
   217-0-0/c CHAR(66)    r     1 USR_UTIL_HDR             247-0-0/c CHAR(34)    r     1 UTIL2FMT
   240-0-0/c CHAR(26)    r     1 UTILFMT

  ****  Auto variables  ****
PL6.E3A0      #001=DBD$UTIL1 File=DBD$UTIL1.:E05TSI                              TUE 07/29/97 13:11 Page:142

  ****  Scalars and arrays  ****
OctLoc.c.b A Datatyp(siz) R M Lvl/name                 OctLoc.c.b A Datatyp(siz) R M Lvl/name

     3-0-0/w PTR         r     1 @TOP
   411-0-0/b STRC        r     1 ASDTBASE(0:30)
   527-0-0/w UBIN        r     1 ASDT_MON(0:7)
   471-0-0/w UBIN        r     1 ASDT_USR(0:29)
   637-0-0/w UBIN        r     1 AVAILABLE                544-0-0/w SBIN        r     1 CPUMINS
   545-0-0/w SBIN        r     1 CPUSECS                  665-0-0/c CHAR        r     1 CQFLG
   576-0-0/w UBIN        r     1 CQPC                     657-0-0/w UBIN        r     1 CURR_HSHUF
   656-0-0/w UBIN        r     1 CURR_NSHF                655-0-0/w UBIN        r     1 CURR_SHUF
   610-0-0/b STRC        r     1 CVM_REAL                 627-0-0/w UBIN        r     1 DCB$
   630-0-0/w UBIN        r     1 DCBPTR                   625-0-0/w UBIN        r     1 DCBPTR$
   371-0-0/c STRC(558)   r     1 FEPDCB                   640-0-0/w UBIN        r     1 FPRG_TOTAL
   653-0-0/w UBIN        r     1 FRAG_NSHF                300-0-0/w STRC(1908)  r     1 G$BOBCAT
     4-0-0/w STRC(6318)  r     1 G$JIT                    461-0-0/w STRC(270)   r     1 GJ$SDATA
   450-0-0/w STRC(306)   r     1 GM$DATA                  537-0-0/w UBIN        r     1 HJIT_COUNT
   540-0-0/w SBIN        r     1 I                        541-0-0/w UBIN        r     1 J
   626-0-0/w UBIN        r     1 JIT$                     554-0-0/w UBIN        r     1 JITUN
   622-0-0/w UBIN        r     1 MAP_ERR                  623-0-0/w UBIN        r     1 MAP_PG#
   663-0-0/w UBIN        r     1 MAXMEM                   646-0-0/w UBIN        r     1 MAX_SHUF
   661-0-0/w UBIN        r     1 MEM_HI                   647-0-0/w UBIN        r     1 MEM_LOW
   660-0-0/w UBIN        r     1 MISSING                  702-0-0/w UBIN        r     1 MMDATA$
   631-0-0/w UBIN        r     1 MON_TOTAL                662-0-0/w UBIN        r     1 MUIS
   575-0-0/w UBIN        r     1 NSPC                     572-0-0/w UBIN        r     1 PCC
   565-0-0/w UBIN        r     1 PCD                      571-0-0/w UBIN        r     1 PCDDS
   570-0-0/w UBIN        r     1 PCDS                     566-0-0/w UBIN        r     1 PCP
   573-0-0/w UBIN        r     1 PCROS                    624-0-0/w UBIN        r     1 PCT
   574-0-0/w UBIN        r     1 PSEUDOPGS                365-0-0/w STRC(144)   r     1 ROSBASE
   703-0-0/w UBIN        r     1 SFDATA$                  611-0-0/b STRC        r     1 SHRD_FLAG
   612-0-0/b UBIN(9)     r     1 SHRD_SEG(0:31)
   664-0-0/c CHAR        r     1 SHRFLG                   644-0-0/w UBIN        r     1 SHR_DATA
   645-0-0/w UBIN        r     1 SHR_LIB                  643-0-0/w UBIN        r     1 SHR_PROC
   650-0-0/w UBIN        r     1 SHUF_HI                  600-0-0/w UBIN        r     1 SLIB
   577-0-0/w UBIN        r     1 SPROC                    551-0-0/w UBIN        r     1 STIME
   553-0-0/w UBIN        r     1 SYSID                    671-0-0/c CHAR(32)    r     1 TITLE
PL6.E3A0      #001=DBD$UTIL1 File=DBD$UTIL1.:E05TSI                              TUE 07/29/97 13:11 Page:143
    *0-0-0/w STRC(144)   r     1 TOP                      667-0-0/c CHAR(7)     r     1 TOPIC
   632-0-0/w UBIN        r     1 TOTAL(0:4)               641-0-0/w UBIN        r     1 TOTAL_FREE
   652-0-0/w UBIN        r     1 TOTAL_NSHF               651-0-0/w UBIN        r     1 TOTAL_SHUF
   642-0-0/w UBIN        r     1 TOTAL_USED               546-0-0/w SBIN        r     1 TUEXT
   547-0-0/w UBIN        r     1 TUSVT                    543-0-0/w SBIN        r     1 UN
   654-0-0/w UBIN        r     1 USED_NSHF                701-0-0/b STRC        r     1 WORD2
   550-0-0/w UBIN        r     1 XTIME

  ****  SYMREF variables  ****

  ****  Scalars and arrays  ****
OctLoc.c.b A Datatyp(siz) R M Lvl/name                 OctLoc.c.b A Datatyp(siz) R M Lvl/name

     0-0-0/w EPTR        r     1 DAF$WRITE                  0-0-0/b BIT         r     1 DA_MAPERR
     0-0-0/w PTR         r     1 DBD$FEPMAP$                0-0-0/w UBIN        r     1 DB_CURRENT_USER
     0-0-0/w UBIN        r     1 DB_MUIS

  ****  BASED and DCB variables  ****

  ****  Scalars and arrays  ****
OctLoc.c.b A Datatyp(siz) R M Lvl/name                 OctLoc.c.b A Datatyp(siz) R M Lvl/name

     0-0-0/w STRC        r     1 B$FEPMAP(0:0)
     0-0-0/w STRC(144)   r     1 OUT


   Procedure DBD$UTIL1 requires 2595 words for executable code.
   Procedure DBD$UTIL1 requires 572 words of local(AUTO) storage.

    No errors detected in file DBD$UTIL1.:E05TSI    .
PL6.E3A0      #001=DBD$UTIL1 File=DBD$UTIL1.:E05TSI                              TUE 07/29/97 13:11 Page:144
          *** CROSS REFERENCE LISTING ***
**     DENOTES     IDENTIFIER DEFINITION
<<                 IDENTIFIER'S VALUE SET
>>                 IDENTIFIER'S VALUE USED
<>                 IDENTIFIER SET AND/OR USED
--                 IDENTIFIER REFERENCED
PL6.E3A0      #001=DBD$UTIL1 File=DBD$UTIL1.:E05TSI                              TUE 07/29/97 13:11 Page:145
          MINI XREF LISTING

ASDTBASE
     12246**DCL     13185<>CALL    13185--CALL    13185--CALL    13276<>CALL    13276--CALL    13276--CALL
     13305<>CALL    13305--CALL    13305--CALL
ASDTBASE.WORD1
     12247**DCL     13202<>CALL    13322<>CALL
ASDTBASE.WORD1.V
     12249**DCL     13192>>IF      13201<<ASSIGN  13278>>IF      13310>>IF      13321<<ASSIGN
ASDTBASE.WORD2
     12251**DCL     13197<>CALL    13280<>CALL    13314<>CALL
ASDT_MON
     12467**DCL     13245<<ASSIGN  13281<<ASSIGN  13281>>ASSIGN  13285<<ASSIGN  13285>>ASSIGN  13365--CALL
     13365--CALL    13367>>ASSIGN
ASDT_MON_FLG
     12583**DCL     13281>>ASSIGN  13281>>ASSIGN
ASDT_MON_TTL
     13027**DCL     13365--CALL
ASDT_PCT_FLG
     12570**DCL     13178<<ASSIGN  13179<<ASSIGN  13182<<ASSIGN  13183<<ASSIGN  13192>>IF
ASDT_USR
     12466**DCL     13248<<ASSIGN  13315<<ASSIGN  13315>>ASSIGN  13352<<ASSIGN  13352>>ASSIGN  13353<<ASSIGN
     13353>>ASSIGN  13355<<ASSIGN  13355>>ASSIGN  13384--CALL    13384--CALL    13384--CALL    13384--CALL
     13387>>ASSIGN
ASDT_USR_FLG
     12576**DCL     13298<<ASSIGN  13299<<ASSIGN  13302<<ASSIGN  13303<<ASSIGN  13315>>ASSIGN  13315>>ASSIGN
     13318>>IF
ASDT_USR_TTL
     13043**DCL     13384--CALL
AVAILABLE
     12540**DCL     13404<<ASSIGN  13418--CALL    13418--CALL
B$FEPMAP
     12231**DCL     13324>>IF
B$FEPMAP.INDX#
PL6.E3A0      #001=DBD$UTIL1 File=DBD$UTIL1.:E05TSI                              TUE 07/29/97 13:11 Page:146
     12236**DCL     13338<<ASSIGN
B$FEPMAP.SIZE
     12238**DCL     13339<<ASSIGN
B$FEPMAP.TYP
     12232**DCL     13328>>IF      13336<<ASSIGN
B$FEPMAP.WHAT#
     12234**DCL     13337<<ASSIGN
BLANK_LINE
     13051**DCL     13070--CALL    13089--CALL    13090--CALL    13152--CALL    13153--CALL    13372--CALL
     13373--CALL    13402--CALL    13403--CALL    13411--CALL    13421--CALL    13431--CALL    13441--CALL
     13460--CALL    13475--CALL    13483--CALL    13484--CALL
BOBCAT$
     12591**DCL     13132<>CALL    13251<>CALL
CPUMINS
     12479**DCL     13106<<ASSIGN  13119--CALL
CPUSECS
     12480**DCL     13107<<ASSIGN  13119--CALL
CQFLG
     12562**DCL     13190<<ASSIGN  13204<<ASSIGN  13224--CALL
CQPC
     12507**DCL     13170<>CALL    13224--CALL
CURR_HSHUF
     12556**DCL     13268<>CALL    13434--CALL    13434--CALL
CURR_NSHF
     12555**DCL     13267<>CALL    13467--CALL    13467--CALL    13469>>ASSIGN
CURR_SHUF
     12554**DCL     13266<>CALL    13463--CALL    13463--CALL    13469>>ASSIGN
CVM_REAL
     12521**DCL     13175<>CALL    13291<>CALL
CVM_REAL.SEG
     12523**DCL     13192>>IF      13310>>IF
DAD$SPYDOT
     11982**DCL-ENT 12644--DCLINIT
DAF$INIT
     11983**DCL-ENT 13074--CALL    13137--CALL    13361--CALL
DAF$WRITE
PL6.E3A0      #001=DBD$UTIL1 File=DBD$UTIL1.:E05TSI                              TUE 07/29/97 13:11 Page:147
     13055**DCL     13068>>CALL    13070>>CALL    13089>>CALL    13090>>CALL    13119>>CALL    13152>>CALL
     13153>>CALL    13224>>CALL    13365>>CALL    13370>>CALL    13372>>CALL    13373>>CALL    13376>>CALL
     13384>>CALL    13395>>CALL    13398>>CALL    13402>>CALL    13403>>CALL    13408>>CALL    13411>>CALL
     13414>>CALL    13418>>CALL    13421>>CALL    13424>>CALL    13428>>CALL    13431>>CALL    13434>>CALL
     13438>>CALL    13441>>CALL    13444>>CALL    13448>>CALL    13452>>CALL    13457>>CALL    13460>>CALL
     13463>>CALL    13467>>CALL    13472>>CALL    13475>>CALL    13479>>CALL    13483>>CALL    13484>>CALL
DA_MAPERR
     13057**DCL     13080<<ASSIGN  13143<<ASSIGN  13482<<ASSIGN
DBA$SELECTION
     11978**DCL-ENT 13084--CALL    13147--CALL
DBD$FEPMAP$
     13054**DCL     13318>>IF      13324>>IF      13328>>IF      13336>>ASSIGN  13337>>ASSIGN  13338>>ASSIGN
     13339>>ASSIGN  13359>>IF
DBD$FEPMAP_ERR
     11987**DCL-ENT 13332--CALL    13343--CALL
DBM$GETMEM
     11979**DCL-ENT 13094--CALL    13098--CALL    13108--CALL    13110--CALL    13132--CALL    13134--CALL
     13157--CALL    13160--CALL    13185--CALL    13186--CALL    13187--CALL    13251--CALL    13256--CALL
     13262--CALL    13276--CALL    13288--CALL    13290--CALL    13305--CALL    13306--CALL    13307--CALL
DBM$PACK1
     11986**DCL-ENT 13099--CALL    13161--CALL    13173--CALL    13292--CALL    13293--CALL
DBM$PACK2
     11980**DCL-ENT 13100--CALL    13135--CALL    13162--CALL    13163--CALL    13164--CALL    13165--CALL
     13166--CALL    13167--CALL    13168--CALL    13169--CALL    13170--CALL    13171--CALL    13172--CALL
     13174--CALL    13197--CALL    13202--CALL    13252--CALL    13257--CALL    13258--CALL    13259--CALL
     13263--CALL    13264--CALL    13265--CALL    13266--CALL    13267--CALL    13268--CALL    13269--CALL
     13270--CALL    13271--CALL    13280--CALL    13294--CALL    13295--CALL    13314--CALL    13322--CALL
DBM$PACK4
     11981**DCL-ENT 13096--CALL    13097--CALL    13101--CALL    13102--CALL    13103--CALL    13104--CALL
     13109--CALL    13133--CALL    13159--CALL    13175--CALL    13188--CALL    13253--CALL    13254--CALL
     13289--CALL    13291--CALL    13308--CALL
DB_CURRENT_USER
     13059**DCL     13067>>ASSIGN
DB_MUIS
     13056**DCL     13077>>DOINDEX 13140>>DOINDEX
DCB$
PL6.E3A0      #001=DBD$UTIL1 File=DBD$UTIL1.:E05TSI                              TUE 07/29/97 13:11 Page:148
     12536**DCL     13108--CALL    13109<>CALL    13110<>CALL
DCBPTR
     12537**DCL     13108<>CALL    13109<>CALL
DCBPTR$
     12534**DCL     13096<>CALL    13108>>CALL
DISPSPY
     13093**PROC    13069--CALL    13078--CALL    13085--CALL
DISPSTAT
     13156**PROC    13141--CALL    13148--CALL
FEPDCB
     12214**DCL     13110<>CALL    13110--CALL
FEPDCB.ACCT
     12225**DCL     13119--CALL
FEPDCB.NAME.C
     12224**DCL     13119--CALL
FPRG_TOTAL
     12541**DCL     13390<<ASSIGN  13392<<ASSIGN  13392>>ASSIGN  13444--CALL    13444--CALL    13454>>ASSIGN
     13477>>ASSIGN
FRAG_NSHF
     12552**DCL     13264<>CALL    13274>>ASSIGN
G$BOBCAT
     12195**DCL     13132<>CALL    13132--CALL    13132--CALL    13251<>CALL    13251--CALL    13251--CALL
G$BOBCAT.MMDATA$
     12195**DCL     13133<>CALL    13254<>CALL
G$BOBCAT.MUIS
     12196**DCL     13252<>CALL
G$BOBCAT.SFDATA$
     12196**DCL     13253<>CALL
G$JIT
     12003**DCL     13098<>CALL    13098--CALL    13160<>CALL    13160--CALL    13290<>CALL    13290--CALL
G$JIT.ACCN
     12062**DCL     13119--CALL    13224--CALL
G$JIT.CQPC
     12115**DCL     13170<>CALL
G$JIT.CVM_REAL
     12173**DCL     13175<>CALL    13291<>CALL
PL6.E3A0      #001=DBD$UTIL1 File=DBD$UTIL1.:E05TSI                              TUE 07/29/97 13:11 Page:149
G$JIT.ERRLOG
     12158**DCL     12161--REDEF
G$JIT.JSUNIT
     12072**DCL     12073--REDEF
G$JIT.MAXMEM
     12114**DCL     13172<>CALL
G$JIT.MCLS
     12071**DCL     12071--REDEF
G$JIT.MODE
     12060**DCL     13119>>CALL    13224>>CALL    13315>>ASSIGN  13315>>ASSIGN  13352>>ASSIGN  13352>>ASSIGN
     13353>>ASSIGN  13353>>ASSIGN  13355>>ASSIGN  13355>>ASSIGN
G$JIT.NSPC
     12112**DCL     13169<>CALL
G$JIT.PCC
     12111**DCL     13167<>CALL
G$JIT.PCD
     12109**DCL     13163<>CALL
G$JIT.PCDDS
     12111**DCL     13166<>CALL
G$JIT.PCDS
     12111**DCL     13165<>CALL
G$JIT.PCP
     12110**DCL     13164<>CALL    13294<>CALL
G$JIT.PCROS
     12112**DCL     13168<>CALL
G$JIT.PSEUDOPGS
     12114**DCL     13171<>CALL    13295<>CALL
G$JIT.SLIB#
     12115**DCL     13174<>CALL    13293<>CALL
G$JIT.SPROC#
     12115**DCL     13173<>CALL    13292<>CALL
G$JIT.STIME
     12103**DCL     13104<>CALL
G$JIT.SYSID
     12061**DCL     13100<>CALL    13162<>CALL
G$JIT.TMRZ
PL6.E3A0      #001=DBD$UTIL1 File=DBD$UTIL1.:E05TSI                              TUE 07/29/97 13:11 Page:150
     12165**DCL     12166--REDEF
G$JIT.TUEXT
     12065**DCL     13101<>CALL
G$JIT.TUSVT
     12066**DCL     13102<>CALL
G$JIT.UNAME
     12062**DCL     13119--CALL    13224--CALL
G$JIT.USER_EXTIME
     12064**DCL     12065--REDEF
G$JIT.USER_MEMTIME
     12067**DCL     12067--REDEF
G$JIT.USER_SVTIME
     12066**DCL     12066--REDEF
G$JIT.USR#
     12061**DCL     13099<>CALL    13161<>CALL
G$JIT.XTIME
     12103**DCL     13103<>CALL
G$U.MISC
     12189**DCL     12189--REDEF
GJ$SDATA
     12378**DCL     13256<>CALL    13256--CALL    13256--CALL
GJ$SDATA.CUR_DATA
     12414**DCL     13258<>CALL
GJ$SDATA.CUR_PROC
     12429**DCL     13257<>CALL
GJ$SDATA.LIB_DATA
     12409**DCL     13259<>CALL
GM$DATA
     12261**DCL     13134<>CALL    13134--CALL    13134--CALL    13262<>CALL    13262--CALL    13262--CALL
GM$DATA.ASHUF
     12290**DCL     13263<>CALL
GM$DATA.HSHUF
     12341**DCL     13268<>CALL
GM$DATA.MEM_HI
     12275**DCL     13271<>CALL
GM$DATA.MEM_LOW
PL6.E3A0      #001=DBD$UTIL1 File=DBD$UTIL1.:E05TSI                              TUE 07/29/97 13:11 Page:151
     12270**DCL     13270<>CALL
GM$DATA.NSHF
     12308**DCL     13264<>CALL    13267<>CALL
GM$DATA.NSHF_CURR
     12356**DCL     13265<>CALL
GM$DATA.SHUF
     12301**DCL     13266<>CALL
GM$DATA.SHUF_HI
     12280**DCL     13135<>CALL    13269<>CALL
HJIT_COUNT
     12468**DCL     13250<<ASSIGN
I
     12472**DCL     13083<<DOINDEX 13084>>CALL    13146<<DOINDEX 13147>>CALL    13244<<DOINDEX 13245>>ASSIGN
     13247<<DOINDEX 13248>>ASSIGN  13277<<DOINDEX 13278>>IF      13280>>CALL    13281>>ASSIGN  13281>>ASSIGN
     13309<<DOINDEX 13310>>IF      13310>>IF      13310>>IF      13310>>IF      13314>>CALL    13315>>ASSIGN
     13315>>ASSIGN  13318>>IF      13321>>ASSIGN  13322>>CALL    13328>>IF      13328>>IF      13338>>ASSIGN
     13364<<DOINDEX 13365>>CALL    13365>>CALL    13365>>CALL    13367>>ASSIGN  13378<<DOINDEX 13379>>ASSIGN
     13381<<DOINDEX 13384>>CALL    13384>>CALL    13384>>CALL    13384>>CALL    13384>>CALL    13387>>ASSIGN
     13391<<DOINDEX 13392>>ASSIGN
J
     12473**DCL     13191<<DOINDEX 13192>>IF      13192>>IF      13192>>IF      13192>>IF      13192>>IF
     13197>>CALL    13199>>IF      13201>>ASSIGN  13202>>CALL    13386<<DOINDEX 13387>>ASSIGN  13387>>ASSIGN
     13387>>ASSIGN
JIT$
     12535**DCL     13097<>CALL    13098<>CALL    13159<>CALL    13160<>CALL    13289<>CALL    13290<>CALL
JITUN
     12488**DCL     13099<>CALL    13119--CALL    13161<>CALL
MAP_ERR
     12531**DCL     13320<<ASSIGN  13333<<ASSIGN  13341>>IF
MAP_PG#
     12532**DCL     13202<>CALL    13203>>IF      13322<>CALL    13324>>IF      13328>>IF      13332<>CALL
     13336>>ASSIGN  13337>>ASSIGN  13338>>ASSIGN  13339>>ASSIGN  13343<>CALL
MAXMEM
     12560**DCL     13172<>CALL    13224--CALL
MAX_SHUF
     12547**DCL     13273<<ASSIGN  13428--CALL    13428--CALL
PL6.E3A0      #001=DBD$UTIL1 File=DBD$UTIL1.:E05TSI                              TUE 07/29/97 13:11 Page:152
MEM_HI
     12558**DCL     13271<>CALL    13272<<ASSIGN  13272>>ASSIGN  13404>>ASSIGN  13408--CALL    13408--CALL
     13477>>ASSIGN
MEM_LOW
     12548**DCL     13270<>CALL    13273>>ASSIGN
MHJIT$
     12592**DCL     13276<>CALL
MISSING
     12557**DCL     13477<<ASSIGN  13479--CALL    13479--CALL
MMDATA$
     12593**DCL     13133<>CALL    13134<>CALL    13254<>CALL    13262<>CALL
MODECHAR
     12712**DCL     13119--CALL    13224--CALL
MON_TOTAL
     12538**DCL     13363<<ASSIGN  13367<<ASSIGN  13367>>ASSIGN  13370--CALL    13370--CALL    13404>>ASSIGN
     13414--CALL    13414--CALL    13477>>ASSIGN
MON_UTIL_RPT
     12892**DCL     13361<>CALL
MON_UTIL_RPTHD00
     12959**DCL     12927--DCLINIT
MON_UTIL_RPTHD01
     13001**DCL     12974--DCLINIT
MON_UTIL_RPTTX00
     12935**DCL     12922--DCLINIT
MON_UTIL_RPTTX01
     12977**DCL     12967--DCLINIT
MON_UTIL_RPTTX02
     13019**DCL     13009--DCLINIT
MUIS
     12559**DCL     13252<>CALL    13287>>DOINDEX
NSPC
     12506**DCL     13169<>CALL    13224--CALL
OK_4_NOW
     13341**LABEL   13330--GOTO
OUT
     11938**DCL     13084<>CALL    13147<>CALL
PL6.E3A0      #001=DBD$UTIL1 File=DBD$UTIL1.:E05TSI                              TUE 07/29/97 13:11 Page:153
PCC
     12503**DCL     13167<>CALL    13224--CALL
PCD
     12498**DCL     13163<>CALL    13224--CALL
PCDDS
     12502**DCL     13166<>CALL    13224--CALL
PCDS
     12501**DCL     13165<>CALL    13224--CALL
PCP
     12499**DCL     13164<>CALL    13224--CALL    13294<>CALL    13352>>ASSIGN  13353>>ASSIGN
PCROS
     12504**DCL     13168<>CALL    13224--CALL
PCT
     12533**DCL     13189<<ASSIGN  13198<<ASSIGN  13198>>ASSIGN  13208<<ASSIGN  13208>>ASSIGN  13224--CALL
PSEUDOPGS
     12505**DCL     13171<>CALL    13208>>ASSIGN  13224--CALL    13295<>CALL    13355>>ASSIGN
RCV_SPYHDR
     12598**DCL     13068--CALL
ROS$
     12589**DCL     13094<>CALL    13157<>CALL    13288<>CALL
ROSBASE
     12208**DCL     13094<>CALL    13094--CALL    13094--CALL    13157<>CALL    13157--CALL    13157--CALL
     13288<>CALL    13288--CALL    13288--CALL
ROSBASE.DCBPTR$
     12209**DCL     13096<>CALL
ROSBASE.JIT$
     12210**DCL     13097<>CALL    13159<>CALL    13289<>CALL
SFDATA$
     12594**DCL     13253<>CALL    13256<>CALL
SHRD_FLAG
     12525**DCL     13187<>CALL    13188<>CALL    13188<>CALL    13307<>CALL    13308<>CALL    13308<>CALL
SHRD_FLAG.SEG
     12527**DCL     13192>>IF      13310>>IF
SHRD_FLAG_OFF
     12586**DCL     13187>>CALL    13307>>CALL
SHRD_SEG
PL6.E3A0      #001=DBD$UTIL1 File=DBD$UTIL1.:E05TSI                              TUE 07/29/97 13:11 Page:154
     12529**DCL     13186<>CALL    13186--CALL    13186--CALL    13192>>IF      13306<>CALL    13306--CALL
     13306--CALL    13310>>IF
SHRD_SEG_OFF
     12587**DCL     13186>>CALL    13306>>CALL
SHRFLG
     12561**DCL     13211<<ASSIGN  13214<<ASSIGN  13224--CALL
SHR_DATA
     12545**DCL     13258<>CALL    13260<<ASSIGN  13260>>ASSIGN  13452--CALL    13452--CALL    13454>>ASSIGN
     13477>>ASSIGN
SHR_LIB
     12546**DCL     13259<>CALL    13260>>ASSIGN
SHR_PROC
     12544**DCL     13257<>CALL    13448--CALL    13448--CALL    13454>>ASSIGN  13477>>ASSIGN
SHUF_HI
     12549**DCL     13135<>CALL    13203>>IF      13269<>CALL    13273>>ASSIGN
SLIB
     12510**DCL     13174<>CALL    13176>>IF      13293<>CALL    13296>>IF
SPROC
     12509**DCL     13173<>CALL    13209>>IF      13292<>CALL    13350>>IF
SPYFMT
     12710**DCL     13119--CALL
SPYRPT
     12618**DCL     13074<>CALL
SPYRPTHD00
     12685**DCL     12653--DCLINIT
SPYRPTTX00
     12661**DCL     12648--DCLINIT
SPYRPTTX01
     12703**DCL     12693--DCLINIT
STATFMT
     12869**DCL     13224--CALL
STAT_RPT
     12734**DCL     13137<>CALL
STAT_RPTHD00
     12801**DCL     12769--DCLINIT
STAT_RPTHD01
PL6.E3A0      #001=DBD$UTIL1 File=DBD$UTIL1.:E05TSI                              TUE 07/29/97 13:11 Page:155
     12844**DCL     12816--DCLINIT
STAT_RPTTX00
     12777**DCL     12764--DCLINIT
STAT_RPTTX01
     12819**DCL     12809--DCLINIT
STAT_RPTTX02
     12862**DCL     12852--DCLINIT
STIME
     12485**DCL     13104<>CALL    13105>>ASSIGN
SYSID
     12487**DCL     13100<>CALL    13119--CALL    13162<>CALL    13224--CALL
TITLE
     12565**DCL     13369<<ASSIGN  13370--CALL    13394<<ASSIGN  13395--CALL    13398--CALL    13407<<ASSIGN
     13408--CALL    13413<<ASSIGN  13414--CALL    13417<<ASSIGN  13418--CALL    13423<<ASSIGN  13424--CALL
     13427<<ASSIGN  13428--CALL    13433<<ASSIGN  13434--CALL    13437<<ASSIGN  13438--CALL    13443<<ASSIGN
     13444--CALL    13447<<ASSIGN  13448--CALL    13451<<ASSIGN  13452--CALL    13456<<ASSIGN  13457--CALL
     13462<<ASSIGN  13463--CALL    13466<<ASSIGN  13467--CALL    13471<<ASSIGN  13472--CALL    13478<<ASSIGN
     13479--CALL
TOP
     11893**DCL        16--PROC    13073--ENTRY   13130--ENTRY
TOP.NSUBLKS
     11905**DCL     13075>>IF      13083>>DOINDEX 13138>>IF      13146>>DOINDEX
TOP.SUBLK$
     11926**DCL     13084>>CALL    13147>>CALL
TOPIC
     12564**DCL     13362<<ASSIGN  13365--CALL    13370--CALL    13377<<ASSIGN  13384--CALL    13395--CALL
     13398--CALL    13405<<ASSIGN  13408--CALL    13414--CALL    13418--CALL    13424--CALL    13428--CALL
     13434--CALL    13438--CALL    13444--CALL    13448--CALL    13452--CALL    13457--CALL    13463--CALL
     13467--CALL    13472--CALL    13479--CALL
TOTAL
     12539**DCL     13379<<ASSIGN  13387<<ASSIGN  13387>>ASSIGN  13392>>ASSIGN  13395--CALL    13395--CALL
     13395--CALL    13395--CALL    13398--CALL    13398--CALL    13398--CALL    13398--CALL
TOTAL_FREE
     12542**DCL     13469<<ASSIGN  13472--CALL    13472--CALL    13477>>ASSIGN
TOTAL_NSHF
     12551**DCL     13274<<ASSIGN  13424--CALL    13424--CALL
PL6.E3A0      #001=DBD$UTIL1 File=DBD$UTIL1.:E05TSI                              TUE 07/29/97 13:11 Page:156
TOTAL_SHUF
     12550**DCL     13263<>CALL    13438--CALL    13438--CALL
TOTAL_USED
     12543**DCL     13454<<ASSIGN  13457--CALL    13457--CALL
TOTLFMT
     13041**DCL     13365--CALL    13370--CALL    13408--CALL    13414--CALL    13418--CALL    13424--CALL
     13428--CALL    13434--CALL    13438--CALL    13444--CALL    13448--CALL    13452--CALL    13457--CALL
     13463--CALL    13467--CALL    13472--CALL    13479--CALL
TUEXT
     12482**DCL     13101<>CALL    13105<<ASSIGN  13105>>ASSIGN  13106>>ASSIGN  13107>>ASSIGN
TUSVT
     12483**DCL     13102<>CALL    13105>>ASSIGN
UHJIT$
     12590**DCL     13185<>CALL    13186>>CALL    13187>>CALL    13305<>CALL    13306>>CALL    13307>>CALL
UN
     12476**DCL     13067<<ASSIGN  13077<<DOINDEX 13084<>CALL    13094<>CALL    13098<>CALL    13108<>CALL
     13110<>CALL    13140<<DOINDEX 13147<>CALL    13157<>CALL    13160<>CALL    13185<>CALL    13186<>CALL
     13187<>CALL    13287<<DOINDEX 13288<>CALL    13290<>CALL    13305<>CALL    13306<>CALL    13307<>CALL
     13337>>ASSIGN
USED_NSHF
     12553**DCL     13265<>CALL    13274>>ASSIGN
USR_UTIL_HDR
     13037**DCL     13376--CALL
UTIL2FMT
     13040**DCL     13398--CALL
UTILFMT
     13039**DCL     13384--CALL    13395--CALL
WORD2
     12566**DCL     13197<>CALL    13280<>CALL    13314<>CALL
WORD2.SIZE
     12568**DCL     13198>>ASSIGN  13281>>ASSIGN  13315>>ASSIGN  13339>>ASSIGN
XTIME
     12484**DCL     13103<>CALL    13105>>ASSIGN
