VERSION E05

PL6.E3A0      #001=DB_MAP_D File=DB_MAP_D.:E05TSI                                TUE 07/29/97 13:15 Page:1
        1        1        /*M* DB_MAP_D - Data for FEP mapping routines */
        2        2        /*T***********************************************************/
        3        3        /*T*                                                         */
        4        4        /*T* Copyright (c) Bull HN Information Systems Inc., 1997    */
        5        5        /*T*                                                         */
        6        6        /*T***********************************************************/
        7        7        /**/
        8        8        DB_MAP_D: PROC NOAUTO;
        9        9        /**/
       10       10        %INCLUDE IR_DATA_M;
       11      174        /**/
       12      175    1   DCL 1 DB_DUMP_BUFFER STATIC SYMDEF ALIGNED,
       13      176    1         2 *(0:511) UBIN BYTE UNAL;
       14      177        /**/
       15      178    1   DCL 1 DB_MONASDT STATIC SYMDEF ALIGNED,
       16      179    1         2 *(0:31) BIT(32) UNAL;
       17      180        /**/
       18      181    1   DCL 1 DB_USERASDT STATIC SYMDEF ALIGNED,
       19      182    1         2 *(0:31) BIT(32) UNAL;
       20      183        /**/
       21      184        %RV_DFKEY (NAME=DB_DFKEY,STCLASS="STATIC SYMDEF");
       22      202        /**/
       23      203        %RV_FEP_BUFF (FPTN=DB_RVBUF,STCLASS="STATIC SYMDEF");
       24      236        /**/
       25      237    1   DCL DB_USRT$ UBIN STATIC SYMDEF;
       26      238    1   DCL DB_MUIS UBIN STATIC SYMDEF;
       27      239    1   DCL DB_CURPP UBIN STATIC SYMDEF;
       28      240    1   DCL DB_CUN UBIN STATIC SYMDEF;
       29      241    1   DCL DB_SYSID UBIN STATIC SYMDEF;
       30      242    1   DCL DB_CURRENT_USER SBIN STATIC SYMDEF;
       31      243        /**/
       32      244    1   DCL DBB_ERR BIT(36) CONSTANT SYMDEF INIT('040202000000'O);
       33      245    1   DCL DBM_ERR BIT(36) CONSTANT SYMDEF INIT('040215000000'O);
       34      246    1   END DB_MAP_D;

PL6.E3A0      #001=DB_MAP_D File=DB_MAP_D.:E05TSI                                TUE 07/29/97 13:15 Page:2
--  Include file information  --

   IR_DATA_M.:E05TOU  is referenced.
      No diagnostics issued in procedure DB_MAP_D.

   No code generated for procedure DB_MAP_D .
   Procedure DB_MAP_D is declared NOAUTO and requires 330 words of local(STATIC) storage.

    No errors detected in file DB_MAP_D.:E05TSI    .

PL6.E3A0      #001=DB_MAP_D File=DB_MAP_D.:E05TSI                                TUE 07/29/97 13:15 Page:3

 Object Unit name= DB_MAP_D                                   File name= DB_MAP_D.:E05TOU
 UTS= JUL 29 '97 13:15:23.84 TUE                              Compiler= PL-6/E31         Sev=      00
 SharedLib= :SHARED_SYSTEM                                    Alt SharedLib=


    ****  Control sections  ****

 Sect   Type Bound  Init  Size OctSiz  Section name(segment info)
    0   Data  even  none   330    512  DB_MAP_D
    1  RoData even  UTS      2      2  DB_MAP_D
    2   Proc  even  none     0      0  DB_MAP_D

    ****  Entry defs  ****

                              Check   Calling
                             calling  sequence
  Sect OctLoc Primary Altret sequence   type   Parms  Name
     2      0   yes            yes     ~proc       0  DB_MAP_D

  ****  Data defs  ****

 Sect OctLoc  Name                           Sect OctLoc  Name
    0      1  DB_DUMP_BUFFER                     0    201  DB_MONASDT
    0    236  DB_USERASDT                        0    274  DB_DFKEY
    0    276  DB_RVBUF                           0    504  DB_USRT$
    0    505  DB_MUIS                            0    506  DB_CURPP
    0    507  DB_CUN                             0    510  DB_SYSID
    0    511  DB_CURRENT_USER                    1      0  DBB_ERR
    1      1  DBM_ERR
PL6.E3A0      #001=DB_MAP_D File=DB_MAP_D.:E05TSI                                TUE 07/29/97 13:15 Page:4

        1        1        /*M* DB_MAP_D - Data for FEP mapping routines */
        2        2        /*T***********************************************************/
        3        3        /*T*                                                         */
        4        4        /*T* Copyright (c) Bull HN Information Systems Inc., 1997    */
        5        5        /*T*                                                         */
        6        6        /*T***********************************************************/
        7        7        /**/
        8        8        DB_MAP_D: PROC NOAUTO;
        9        9        /**/
       10       10        %INCLUDE IR_DATA_M;
       11      174        /**/
       12      175    1   DCL 1 DB_DUMP_BUFFER STATIC SYMDEF ALIGNED,
       13      176    1         2 *(0:511) UBIN BYTE UNAL;
       14      177        /**/
       15      178    1   DCL 1 DB_MONASDT STATIC SYMDEF ALIGNED,
       16      179    1         2 *(0:31) BIT(32) UNAL;
       17      180        /**/
       18      181    1   DCL 1 DB_USERASDT STATIC SYMDEF ALIGNED,
       19      182    1         2 *(0:31) BIT(32) UNAL;
       20      183        /**/
       21      184        %RV_DFKEY (NAME=DB_DFKEY,STCLASS="STATIC SYMDEF");
       22      202        /**/
       23      203        %RV_FEP_BUFF (FPTN=DB_RVBUF,STCLASS="STATIC SYMDEF");
       24      236        /**/
       25      237    1   DCL DB_USRT$ UBIN STATIC SYMDEF;
       26      238    1   DCL DB_MUIS UBIN STATIC SYMDEF;
       27      239    1   DCL DB_CURPP UBIN STATIC SYMDEF;
       28      240    1   DCL DB_CUN UBIN STATIC SYMDEF;
       29      241    1   DCL DB_SYSID UBIN STATIC SYMDEF;
       30      242    1   DCL DB_CURRENT_USER SBIN STATIC SYMDEF;
       31      243        /**/
       32      244    1   DCL DBB_ERR BIT(36) CONSTANT SYMDEF INIT('040202000000'O);
       33      245    1   DCL DBM_ERR BIT(36) CONSTANT SYMDEF INIT('040215000000'O);
       34      246    1   END DB_MAP_D;

PL6.E3A0      #001=DB_MAP_D File=DB_MAP_D.:E05TSI                                TUE 07/29/97 13:15 Page:5
--  Include file information  --

   IR_DATA_M.:E05TOU  is referenced.
      No diagnostics issued in procedure DB_MAP_D.
PL6.E3A0      #001=DB_MAP_D File=DB_MAP_D.:E05TSI                                TUE 07/29/97 13:15 Page:6

 **** Variables and constants ****


   No code generated for procedure DB_MAP_D .
   Procedure DB_MAP_D is declared NOAUTO and requires 330 words of local(STATIC) storage.

    No errors detected in file DB_MAP_D.:E05TSI    .
PL6.E3A0      #001=DB_MAP_D File=DB_MAP_D.:E05TSI                                TUE 07/29/97 13:15 Page:7
          *** CROSS REFERENCE LISTING ***
**     DENOTES     IDENTIFIER DEFINITION
<<                 IDENTIFIER'S VALUE SET
>>                 IDENTIFIER'S VALUE USED
<>                 IDENTIFIER SET AND/OR USED
--                 IDENTIFIER REFERENCED
PL6.E3A0      #001=DB_MAP_D File=DB_MAP_D.:E05TSI                                TUE 07/29/97 13:15 Page:8
          MINI XREF LISTING

