VERSION E05

PL6.E3A0      #001=DDA$AT File=DDA$AT.:E05TSI                                    TUE 07/29/97 13:15 Page:1
        1        1        /*M*  DDA$AT  PROCESS AN AT BREAKPOINT */
        2        2        /*T***********************************************************/
        3        3        /*T*                                                         */
        4        4        /*T* Copyright (c) Bull HN Information Systems Inc., 1997    */
        5        5        /*T*                                                         */
        6        6        /*T***********************************************************/
        7        7        /*X* DMR,PLM=5,IND=5,CSU=3,EXM=0,ECU=3,MOC,DCI=5,CRT=5 */
        8        8        /*D*  NAME:  DDA$AT
        9        9              CALL:  CALL DDA$AT ALTRET(USERGO)
       10       10              INPUT:  S_D.FAULTCMD$ POINTS TO THE AT COMMAND.
       11       11              OUTPUT:  S_D.DO$ POINTS TO SECOND ATTACHMEND (OR SET NIL IF NONE)
       12       12              DESCRIPTION:  THE DEFAULT PROCEED MODE IS SET
       13       13                DEPENDING ON BATCH/ON-LINE.  (GO FOR BATCH, STOP FOR ON-LINE).
       14       14                THE 'IF' ROUTINE IS CALLED TO DETERMINE WHETHER THE
       15       15                CONDITION (IF ANY) WAS MET.  IF THE CONDITION
       16       16                WAS NOT MET, DDA$AT ALTRETURNS.
       17       17                IF THE CONDITION WAS MET, THE COUNT IS
       18       18                DECREMENTED AND COMPARED TO THE COUNT ISSUED BY THE
       19       19                USER. IF THE COUNT IS ZERO, DDA$AT RETURNS.
       20       20                OTHERWISE, ALTRETURN.
       21       21                */
       22       22        DDA$AT: PROC ALTRET;
       23       23    1   DCL COUNT SBIN;
       24       24    1   DCL NOGO_BIT BIT(1) ALIGNED;
       25       25    1   DCL DDA$IF ENTRY(1) ALTRET;
       26       26    1   DCL DDE$ERROR ENTRY;
       27       27        %INCLUDE DD$BASED;
       28     1330        %INCLUDE XUH_MACRO_C;
       29     1414        %INCLUDE DD_SD_M;
       30     2750        %S_D;
       31     4068        %AT_FIRST (STCLASS=BASED);
       32     4096        %FIXCOM (NAME="F$XCM");
       33     4112                                                /* POINT TO FIRST ATTACHMENT */
       34     4113    1        S_D.DO$ = PINCRW(S_D.VARCOM$, S_D.FAULTCMD$->F$XCM.FAI);
       35     4114                                                /* POINT S_D.D$ TO AT CONDITION */
       36     4115    1        S_D.D$ = PINCRW(S_D.DO$,SIZEW(AT_FIRST));
       37     4116                                                /* SEE IF CONDITION IS MET */
PL6.E3A0      #001=DDA$AT File=DDA$AT.:E05TSI                                    TUE 07/29/97 13:15 Page:2
       38     4117    1        CALL DDA$IF(NOGO_BIT) ALTRET(ERR);
       39     4118    1        IF NOGO_BIT THEN ALTRETURN;        /* CONDITION IS NOT MET */
       40     4119                                                /* DECREMENT COUNT AND STORE IN AUTO */
       41     4120    1        S_D.DO$->AT_FIRST.CURRENT_COUNT=S_D.DO$->AT_FIRST.CURRENT_COUNT - 1;
       42     4121    1        COUNT = S_D.DO$->AT_FIRST.CURRENT_COUNT;
       43     4122    1        IF S_D.DO$ -> AT_FIRST.ATT_OFFSET = 0
       44     4123    1        THEN S_D.DO$ = ADDR(NIL);          /* NO ATTACHMENTS */
       45     4124                  /* SEE IF THE COUNT IS ZERO...I.E, IF ITS TIME TO REPORT THE AT */
       46     4125    1        IF COUNT < 0 THEN RETURN;
       47     4126    1        ELSE GOTO NOT_MET;
       48     4127                            /* IF THE CONDITION WAS NOT MET OR IF THE COUNT IS NOT ZERO,
       49     4128                            RETURN.  */
       50     4129    1   ERR: CALL DDE$ERROR;
       51     4130    1   NOT_MET:
       52     4131    1        ALTRETURN;
       53     4132    1   END DDA$AT;

PL6.E3A0      #001=DDA$AT File=DDA$AT.:E05TSI                                    TUE 07/29/97 13:15 Page:3
--  Include file information  --

   DD_SD_M.:E05TOU  is referenced.
   XUH_MACRO_C.:E05TOU  is referenced.
   DD$BASED.:E05TOU  is referenced.
   B$JIT_C.:E05TOU  was found in the system file and is never referenced.
   CP_6_C.:E05TOU  was found in the system file and is never referenced.
      No diagnostics issued in procedure DDA$AT.

   Procedure DDA$AT requires 38 words for executable code.
   Procedure DDA$AT requires 8 words of local(AUTO) storage.

    No errors detected in file DDA$AT.:E05TSI    .

PL6.E3A0      #001=DDA$AT File=DDA$AT.:E05TSI                                    TUE 07/29/97 13:15 Page:4

 Object Unit name= DDA$AT                                     File name= DDA$AT.:E05TOU
 UTS= JUL 29 '97 13:15:49.72 TUE                              Compiler= PL-6/E31         Sev=      00
 SharedLib= :SHARED_SYSTEM                                    Alt SharedLib=


    ****  Control sections  ****

 Sect   Type Bound  Init  Size OctSiz  Section name(segment info)
    0   Proc  even  none    38     46  DDA$AT

    ****  Entry defs  ****

                              Check   Calling
                             calling  sequence
  Sect OctLoc Primary Altret sequence   type   Parms  Name
     0      0   yes    yes     yes      Std        0  DDA$AT

  ****  Entry refs  ****

         Check        Calling
        calling       sequence
Altret sequence SRef   type   Args  Name
 yes     yes           Std       1 DDA$IF
         yes           Std       0 DDE$ERROR
                       nStd      0 X66_AUTO_0
                       Std       0 B_CONSPOOL_D
                       nStd      0 X66_AALT
                       nStd      0 X66_ARET

  ****  Data refs  ****

  Flags:  r = read only, s = secondary
Flgs Name                             Flgs Name                             Flgs Name
r    S_D$                                  B_VECTNIL
PL6.E3A0      #001=DDA$AT File=DDA$AT.:E05TSI                                    TUE 07/29/97 13:15 Page:5


        1        1        /*M*  DDA$AT  PROCESS AN AT BREAKPOINT */
        2        2        /*T***********************************************************/
        3        3        /*T*                                                         */
        4        4        /*T* Copyright (c) Bull HN Information Systems Inc., 1997    */
        5        5        /*T*                                                         */
        6        6        /*T***********************************************************/
        7        7        /*X* DMR,PLM=5,IND=5,CSU=3,EXM=0,ECU=3,MOC,DCI=5,CRT=5 */
        8        8        /*D*  NAME:  DDA$AT
        9        9              CALL:  CALL DDA$AT ALTRET(USERGO)
       10       10              INPUT:  S_D.FAULTCMD$ POINTS TO THE AT COMMAND.
       11       11              OUTPUT:  S_D.DO$ POINTS TO SECOND ATTACHMEND (OR SET NIL IF NONE)
       12       12              DESCRIPTION:  THE DEFAULT PROCEED MODE IS SET
       13       13                DEPENDING ON BATCH/ON-LINE.  (GO FOR BATCH, STOP FOR ON-LINE).
       14       14                THE 'IF' ROUTINE IS CALLED TO DETERMINE WHETHER THE
       15       15                CONDITION (IF ANY) WAS MET.  IF THE CONDITION
       16       16                WAS NOT MET, DDA$AT ALTRETURNS.
       17       17                IF THE CONDITION WAS MET, THE COUNT IS
       18       18                DECREMENTED AND COMPARED TO THE COUNT ISSUED BY THE
       19       19                USER. IF THE COUNT IS ZERO, DDA$AT RETURNS.
       20       20                OTHERWISE, ALTRETURN.
       21       21                */
       22       22        DDA$AT: PROC ALTRET;

     22  0 000000   000000 700200 xent  DDA$AT       TSX0  ! X66_AUTO_0
         0 000001   000010 000000                    ZERO    8,0

       23       23    1   DCL COUNT SBIN;
       24       24    1   DCL NOGO_BIT BIT(1) ALIGNED;
       25       25    1   DCL DDA$IF ENTRY(1) ALTRET;
       26       26    1   DCL DDE$ERROR ENTRY;
       27       27        %INCLUDE DD$BASED;
       28     1330        %INCLUDE XUH_MACRO_C;
       29     1414        %INCLUDE DD_SD_M;
       30     2750        %S_D;
       31     4068        %AT_FIRST (STCLASS=BASED);
       32     4096        %FIXCOM (NAME="F$XCM");
PL6.E3A0      #001=DDA$AT File=DDA$AT.:E05TSI                                    TUE 07/29/97 13:15 Page:6
       33     4112                                                /* POINT TO FIRST ATTACHMENT */
       34     4113    1        S_D.DO$ = PINCRW(S_D.VARCOM$, S_D.FAULTCMD$->F$XCM.FAI);

   4113  0 000002   000000 470400 xsym               LDP0    S_D$
         0 000003   000004 471500                    LDP1    4,,PR0
         0 000004   100002 720100                    LXL0    2,,PR1
         0 000005   004622 473500                    LDP3    2450,,PR0
         0 000006   300000 634510                    EPPR4   0,X0,PR3
         0 000007   000031 454500                    STP4    25,,PR0

       35     4114                                                /* POINT S_D.D$ TO AT CONDITION */
       36     4115    1        S_D.D$ = PINCRW(S_D.DO$,SIZEW(AT_FIRST));

   4115  0 000010   000031 236100                    LDQ     25,,PR0
         0 000011   000010 036003                    ADLQ    8,DU
         0 000012   000044 756100                    STQ     36,,PR0

       37     4116                                                /* SEE IF CONDITION IS MET */
       38     4117    1        CALL DDA$IF(NOGO_BIT) ALTRET(ERR);

   4117  0 000013   200004 635500                    EPPR5   NOGO_BIT,,AUTO
         0 000014   200006 455500                    STP5    NOGO_BIT+2,,AUTO
         0 000015   200006 630500                    EPPR0   NOGO_BIT+2,,AUTO
         0 000016   000017 631400 xsym               EPPR1   B_VECTNIL+15
         0 000017   000000 701000 xent               TSX1    DDA$IF
         0 000020   000042 702000 0                  TSX2    ERR

       39     4118    1        IF NOGO_BIT THEN ALTRETURN;        /* CONDITION IS NOT MET */

   4118  0 000021   200004 234100                    SZN     NOGO_BIT,,AUTO
         0 000022   000024 605000 0                  TPL     s:4120

   4118  0 000023   000000 702200 xent               TSX2  ! X66_AALT

       40     4119                                                /* DECREMENT COUNT AND STORE IN AUTO */
       41     4120    1        S_D.DO$->AT_FIRST.CURRENT_COUNT=S_D.DO$->AT_FIRST.CURRENT_COUNT - 1;

PL6.E3A0      #001=DDA$AT File=DDA$AT.:E05TSI                                    TUE 07/29/97 13:15 Page:7
   4120  0 000024   000000 470400 xsym               LDP0    S_D$
         0 000025   000031 471500                    LDP1    25,,PR0
         0 000026   000001 336007                    LCQ     1,DL
         0 000027   100005 056100                    ASQ     5,,PR1

       42     4121    1        COUNT = S_D.DO$->AT_FIRST.CURRENT_COUNT;

   4121  0 000030   000031 471500                    LDP1    25,,PR0
         0 000031   100005 235100                    LDA     5,,PR1
         0 000032   200003 755100                    STA     COUNT,,AUTO

       43     4122    1        IF S_D.DO$ -> AT_FIRST.ATT_OFFSET = 0

   4122  0 000033   100007 220100                    LDX0    7,,PR1
         0 000034   000037 601000 0                  TNZ     s:4125

       44     4123    1        THEN S_D.DO$ = ADDR(NIL);          /* NO ATTACHMENTS */

   4123  0 000035   000001 236000 xsym               LDQ     B_VECTNIL+1
         0 000036   000031 756100                    STQ     25,,PR0

       45     4124                  /* SEE IF THE COUNT IS ZERO...I.E, IF ITS TIME TO REPORT THE AT */
       46     4125    1        IF COUNT < 0 THEN RETURN;

   4125  0 000037   000000 115003                    CMPA    0,DU
         0 000040   000045 605000 0                  TPL     NOT_MET

   4125  0 000041   000000 702200 xent               TSX2  ! X66_ARET

       47     4126    1        ELSE GOTO NOT_MET;
       48     4127                            /* IF THE CONDITION WAS NOT MET OR IF THE COUNT IS NOT ZERO,
       49     4128                            RETURN.  */
       50     4129    1   ERR: CALL DDE$ERROR;

   4129  0 000042   000002 631400 xsym  ERR          EPPR1   B_VECTNIL+2
         0 000043   000000 701000 xent               TSX1    DDE$ERROR
         0 000044   000000 011000                    NOP     0
PL6.E3A0      #001=DDA$AT File=DDA$AT.:E05TSI                                    TUE 07/29/97 13:15 Page:8

       51     4130    1   NOT_MET:
       52     4131    1        ALTRETURN;

   4131  0 000045   000000 702200 xent  NOT_MET      TSX2  ! X66_AALT
       53     4132    1   END DDA$AT;

PL6.E3A0      #001=DDA$AT File=DDA$AT.:E05TSI                                    TUE 07/29/97 13:15 Page:9
--  Include file information  --

   DD_SD_M.:E05TOU  is referenced.
   XUH_MACRO_C.:E05TOU  is referenced.
   DD$BASED.:E05TOU  is referenced.
   B$JIT_C.:E05TOU  was found in the system file and is never referenced.
   CP_6_C.:E05TOU  was found in the system file and is never referenced.
      No diagnostics issued in procedure DDA$AT.

   Procedure DDA$AT requires 38 words for executable code.
   Procedure DDA$AT requires 8 words of local(AUTO) storage.

    No errors detected in file DDA$AT.:E05TSI    .
PL6.E3A0      #001=DDA$AT File=DDA$AT.:E05TSI                                    TUE 07/29/97 13:15 Page:10
          *** CROSS REFERENCE LISTING ***
**     DENOTES     IDENTIFIER DEFINITION
<<                 IDENTIFIER'S VALUE SET
>>                 IDENTIFIER'S VALUE USED
<>                 IDENTIFIER SET AND/OR USED
--                 IDENTIFIER REFERENCED
PL6.E3A0      #001=DDA$AT File=DDA$AT.:E05TSI                                    TUE 07/29/97 13:15 Page:11
          MINI XREF LISTING

AT_FIRST
      4069**DCL      4115--ASSIGN
AT_FIRST.ATT_OFFSET
      4093**DCL      4122>>IF
AT_FIRST.CURRENT_COUNT
      4089**DCL      4120<<ASSIGN   4120>>ASSIGN   4121>>ASSIGN
AT_FIRST.UNUSED
      4073**DCL      4074--REDEF    4078--REDEF
COUNT
        23**DCL      4121<<ASSIGN   4125>>IF
DDA$IF
        25**DCL-ENT  4117--CALL
DDE$ERROR
        26**DCL-ENT  4129--CALL
ERR
      4129**LABEL    4117--CALLALT
F$XCM.FAI
      4108**DCL      4113>>ASSIGN
NOGO_BIT
        24**DCL      4117<>CALL     4118>>IF
NOT_MET
      4131**LABEL    4126--GOTO
S_D.CURRENT_CHANNEL
      3702**DCL      3704--REDEF
S_D.D$
      2840**DCL      4115<<ASSIGN
S_D.DEBUGA
      2854**DCL      2856--REDEF
S_D.DO$
      2805**DCL      4113<<ASSIGN   4115>>ASSIGN   4120>>ASSIGN   4120>>ASSIGN   4121>>ASSIGN   4122>>IF
      4123<<ASSIGN
S_D.EIS
PL6.E3A0      #001=DDA$AT File=DDA$AT.:E05TSI                                    TUE 07/29/97 13:15 Page:12
      3812**DCL      3841--REDEF
S_D.FAULTCMD$
      2769**DCL      4113>>ASSIGN
S_D.HOST_MESSAGE_BUF_REMOTE
      3745**DCL      3746--REDEF    3760--REDEF
S_D.JDE
      3359**DCL      3360--REDEF
S_D.L$.VALUE
      2912**DCL      2918--REDEF    2926--REDEF    2929--REDEF    2932--REDEF    2935--REDEF
S_D.L$.VALUE.L
      2913**DCL      2914--REDEF    2915--REDEF
S_D.L6_MESSAGE_BUF
      3766**DCL      3768--REDEF
S_D.OUTPUT
      3732**DCL      3734--REDEF
S_D.REMOTE_MSG.FNCC
      3751**DCL      3752--REDEF
S_D.REMOTE_MSG.STXC
      3747**DCL      3748--REDEF
S_D.REMOTE_MSG.SUBFNCC
      3755**DCL      3756--REDEF
S_D.SV
      2811**DCL      2832--REDEF
S_D.VARCOM$
      3223**DCL      4113>>ASSIGN
S_D$
      4063**DCL      2759--IMP-PTR  4113>>ASSIGN   4113>>ASSIGN   4113>>ASSIGN   4115>>ASSIGN   4115>>ASSIGN
      4120>>ASSIGN   4120>>ASSIGN   4121>>ASSIGN   4122>>IF       4123>>ASSIGN
PL6.E3A0      #001=DDA$AT File=DDA$AT.:E05TSI                                    TUE 07/29/97 13:15 Page:13
              *** CROSS REFERENCE LISTING ***
    **     DENOTES     IDENTIFIER DEFINITION
    <<                 IDENTIFIER'S VALUE SET
    >>                 IDENTIFIER'S VALUE USED
    <>                 IDENTIFIER SET AND/OR USED
    --                 IDENTIFIER REFERENCED
PL6.E3A0      #001=DDA$AT File=DDA$AT.:E05TSI                                    TUE 07/29/97 13:15 Page:14
              MINI UREF LISTING

DDA$AT      22**PROC
