VERSION E05

PL6.E3A0      #001=DDA$DEF File=DDA$DEF.:E05TSI                                  TUE 07/29/97 13:16 Page:1
        1        1        /*M*  DDA$DEF  -  DEFINE USER DEFINED SYMBOLS     */
        2        2        /*T***********************************************************/
        3        3        /*T*                                                         */
        4        4        /*T* Copyright (c) Bull HN Information Systems Inc., 1997    */
        5        5        /*T*                                                         */
        6        6        /*T***********************************************************/
        7        7        /*X* DMR,PLM=5,IND=5,CSU=3,EXM=0,ECU=3,MOC,DCI=5,CRT=5 */
        8        8        /*F*  NAME: DDA$DEF
        9        9              PURPOSE: DO ROUTINE FOR DEFINING USER DEFINED SYMBOLS
       10       10              DESCRIPTION: GIVEN A TEXTC SYMBOL, DDA$DEF SEARCHES
       11       11                  THE USER DEFINED SYMBOL TABLE (S_D.UD) FOR A MATCHING
       12       12                  NAME.  IF NONE, IS FOUND AND ROOM IS AVAILABLE, THE NEW SYMBOL
       13       13                  IS ADDED, WITH ITS VALUE.  IF THE SYMBOL ALL READY
       14       14                  EXISTS, AND THE NEW VALUE IS THE SAME AS THE OLD VALUE
       15       15                  THE ROUTINE SIMPLY RETURNS, IF THE VALUES DIFFER, THE ROUTINE
       16       16                  SETS AND ERROR AND ALTRETS.
       17       17                                                     */
       18       18        DDA$DEF: PROC ALTRET;
       19       19                                                /* LOCALS */
       20       20    1   DCL TEXT$ PTR;
       21       21    1   DCL ADDRESS SBIN;
       22       22    1   DCL NOT_IS BIT(1) ALIGNED;
       23       23    1   DCL SEG SBIN;
       24       24    1   DCL DESC# SBIN;
       25       25    1   DCL I SBIN;
       26       26    1   DCL TEMP SBIN;
       27       27                                                /* MISC */
       28       28    1   DCL 1 TEXTC BASED(TEXT$),
       29       29    1         2 SZ UBIN(9) UNAL,
       30       30    1         2 TXT CHAR(TEXTC.SZ);
       31       31             %INCLUDE DD$BASED;
       32     1334             %DEF$CMD;
       33     1348             %INCLUDE DD_ERR_C;
       34     1745             %INCLUDE XUH_MACRO_C;
       35     1829             %INCLUDE DD_SD_M;
       36     3165             %S_D;
       37     4483                                                /* ENTRIES */
PL6.E3A0      #001=DDA$DEF File=DDA$DEF.:E05TSI                                  TUE 07/29/97 13:16 Page:2
       38     4484    1   DCL DDK$EVAL ENTRY(6) ALTRET;
       39     4485                                                /**/
       40     4486    1        TEXT$ = ADDR(S_D.DO$ -> DEF$CMD.TEXTC);
       41     4487    1        S_D.DESC$ = S_D.D$;
       42     4488    1        CALL DDK$EVAL(ADDRESS, SEG, DESC#, NOT_IS) ALTRET(AERR);
       43     4489    1        IF NOT_IS
       44     4490    2        THEN DO;
       45     4491    2             S_D.ERROR = E@CANTEVAL;       /* E@CANTEVAL */
       46     4492    2             ALTRETURN;
       47     4493    2           END;
       48     4494    1        TEMP = SIZEW(S_D.UD) / 9 - 1;
       49     4495    2        DO I = 0 TO TEMP;
       50     4496    2             IF TEXTC.SZ = S_D.UD.TEXTSZ(I)
       51     4497    3             THEN DO;
       52     4498    3                  IF TEXTC.TXT = S_D.UD.TEXT(I)
       53     4499    4                  THEN DO;
       54     4500    4                       S_D.UD.VALUE(I) = ADDRESS;
       55     4501    4                       RETURN;
       56     4502    4                     END;
       57     4503    3                END;
       58     4504    2           END;                            /* DO I = 0 TO TEMP */
       59     4505    2        DO I = 0 TO TEMP;                  /* SEARCH FOR EMPTY SLOT */
       60     4506    2             IF S_D.UD.TEXTSZ(I) = 0
       61     4507    3             THEN DO;
       62     4508    3                  S_D.UD.TEXTSZ(I) = TEXTC.SZ;
       63     4509    3                  S_D.UD.TEXT(I) = TEXTC.TXT;
       64     4510    3                  S_D.UD.VALUE(I) = ADDRESS;
       65     4511    3                  RETURN;
       66     4512    3   DONE:
       67     4513    3                END;
       68     4514    2           END;                            /* DO I = 0 TO TEMP */
       69     4515    1        S_D.ERROR = E@2MANYDEFS;           /* E@2MANYDEFS */
       70     4516    1   AERR:
       71     4517    1        ALTRETURN;
       72     4518    1   END DDA$DEF;

PL6.E3A0      #001=DDA$DEF File=DDA$DEF.:E05TSI                                  TUE 07/29/97 13:16 Page:3
--  Include file information  --

   DD_SD_M.:E05TOU  is referenced.
   XUH_MACRO_C.:E05TOU  is referenced.
   DD_ERR_C.:E05TOU  is referenced.
   DD$BASED.:E05TOU  is referenced.
   B$JIT_C.:E05TOU  was found in the system file and is never referenced.
   CP_6_C.:E05TOU  was found in the system file and is never referenced.
      No diagnostics issued in procedure DDA$DEF.

   Procedure DDA$DEF requires 99 words for executable code.
   Procedure DDA$DEF requires 14 words of local(AUTO) storage.

    No errors detected in file DDA$DEF.:E05TSI    .

PL6.E3A0      #001=DDA$DEF File=DDA$DEF.:E05TSI                                  TUE 07/29/97 13:16 Page:4

 Object Unit name= DDA$DEF                                    File name= DDA$DEF.:E05TOU
 UTS= JUL 29 '97 13:16:07.28 TUE                              Compiler= PL-6/E31         Sev=      00
 SharedLib= :SHARED_SYSTEM                                    Alt SharedLib=


    ****  Control sections  ****

 Sect   Type Bound  Init  Size OctSiz  Section name(segment info)
    0   Proc  even  none    99    143  DDA$DEF

    ****  Entry defs  ****

                              Check   Calling
                             calling  sequence
  Sect OctLoc Primary Altret sequence   type   Parms  Name
     0      0   yes    yes     yes      Std        0  DDA$DEF

  ****  Entry refs  ****

         Check        Calling
        calling       sequence
Altret sequence SRef   type   Args  Name
 yes     yes           Std       6 DDK$EVAL
                       nStd      0 X66_AUTO_0
                       Std       0 B_CONSPOOL_D
                       nStd      0 X66_AALT
                       nStd      0 X66_ARET

  ****  Data refs  ****

  Flags:  r = read only, s = secondary
Flgs Name                             Flgs Name                             Flgs Name
r    S_D$                                  B_VECTNIL
PL6.E3A0      #001=DDA$DEF File=DDA$DEF.:E05TSI                                  TUE 07/29/97 13:16 Page:5


        1        1        /*M*  DDA$DEF  -  DEFINE USER DEFINED SYMBOLS     */
        2        2        /*T***********************************************************/
        3        3        /*T*                                                         */
        4        4        /*T* Copyright (c) Bull HN Information Systems Inc., 1997    */
        5        5        /*T*                                                         */
        6        6        /*T***********************************************************/
        7        7        /*X* DMR,PLM=5,IND=5,CSU=3,EXM=0,ECU=3,MOC,DCI=5,CRT=5 */
        8        8        /*F*  NAME: DDA$DEF
        9        9              PURPOSE: DO ROUTINE FOR DEFINING USER DEFINED SYMBOLS
       10       10              DESCRIPTION: GIVEN A TEXTC SYMBOL, DDA$DEF SEARCHES
       11       11                  THE USER DEFINED SYMBOL TABLE (S_D.UD) FOR A MATCHING
       12       12                  NAME.  IF NONE, IS FOUND AND ROOM IS AVAILABLE, THE NEW SYMBOL
       13       13                  IS ADDED, WITH ITS VALUE.  IF THE SYMBOL ALL READY
       14       14                  EXISTS, AND THE NEW VALUE IS THE SAME AS THE OLD VALUE
       15       15                  THE ROUTINE SIMPLY RETURNS, IF THE VALUES DIFFER, THE ROUTINE
       16       16                  SETS AND ERROR AND ALTRETS.
       17       17                                                     */
       18       18        DDA$DEF: PROC ALTRET;

     18  0 000000   000000 700200 xent  DDA$DEF      TSX0  ! X66_AUTO_0
         0 000001   000016 000000                    ZERO    14,0

       19       19                                                /* LOCALS */
       20       20    1   DCL TEXT$ PTR;
       21       21    1   DCL ADDRESS SBIN;
       22       22    1   DCL NOT_IS BIT(1) ALIGNED;
       23       23    1   DCL SEG SBIN;
       24       24    1   DCL DESC# SBIN;
       25       25    1   DCL I SBIN;
       26       26    1   DCL TEMP SBIN;
       27       27                                                /* MISC */
       28       28    1   DCL 1 TEXTC BASED(TEXT$),
       29       29    1         2 SZ UBIN(9) UNAL,
       30       30    1         2 TXT CHAR(TEXTC.SZ);
       31       31             %INCLUDE DD$BASED;
       32     1334             %DEF$CMD;
PL6.E3A0      #001=DDA$DEF File=DDA$DEF.:E05TSI                                  TUE 07/29/97 13:16 Page:6
       33     1348             %INCLUDE DD_ERR_C;
       34     1745             %INCLUDE XUH_MACRO_C;
       35     1829             %INCLUDE DD_SD_M;
       36     3165             %S_D;
       37     4483                                                /* ENTRIES */
       38     4484    1   DCL DDK$EVAL ENTRY(6) ALTRET;
       39     4485                                                /**/
       40     4486    1        TEXT$ = ADDR(S_D.DO$ -> DEF$CMD.TEXTC);

   4486  0 000002   000000 470400 xsym               LDP0    S_D$
         0 000003   000031 471500                    LDP1    25,,PR0
         0 000004   100002 633500                    EPPR3   2,,PR1
         0 000005   200003 453500                    STP3    TEXT$,,AUTO

       41     4487    1        S_D.DESC$ = S_D.D$;

   4487  0 000006   000044 236100                    LDQ     36,,PR0
         0 000007   000041 756100                    STQ     33,,PR0

       42     4488    1        CALL DDK$EVAL(ADDRESS, SEG, DESC#, NOT_IS) ALTRET(AERR);

   4488  0 000010   200005 634500                    EPPR4   NOT_IS,,AUTO
         0 000011   200015 454500                    STP4    TEMP+4,,AUTO
         0 000012   200007 635500                    EPPR5   DESC#,,AUTO
         0 000013   200014 455500                    STP5    TEMP+3,,AUTO
         0 000014   200006 636500                    EPPR6   SEG,,AUTO
         0 000015   200013 456500                    STP6    TEMP+2,,AUTO
         0 000016   200004 637500                    EPPR7   ADDRESS,,AUTO
         0 000017   200012 457500                    STP7    TEMP+1,,AUTO
         0 000020   200012 630500                    EPPR0   TEMP+1,,AUTO
         0 000021   000022 631400 xsym               EPPR1   B_VECTNIL+18
         0 000022   000000 701000 xent               TSX1    DDK$EVAL
         0 000023   000142 702000 0                  TSX2    AERR

       43     4489    1        IF NOT_IS

   4489  0 000024   200005 234100                    SZN     NOT_IS,,AUTO
PL6.E3A0      #001=DDA$DEF File=DDA$DEF.:E05TSI                                  TUE 07/29/97 13:16 Page:7
         0 000025   000032 605000 0                  TPL     s:4494

       44     4490    2        THEN DO;

       45     4491    2             S_D.ERROR = E@CANTEVAL;       /* E@CANTEVAL */

   4491  0 000026   000072 235007                    LDA     58,DL
         0 000027   000000 470400 xsym               LDP0    S_D$
         0 000030   000013 755100                    STA     11,,PR0

       46     4492    2             ALTRETURN;

   4492  0 000031   000000 702200 xent               TSX2  ! X66_AALT

       47     4493    2           END;
       48     4494    1        TEMP = SIZEW(S_D.UD) / 9 - 1;

   4494  0 000032   000030 235007                    LDA     24,DL
         0 000033   200011 755100                    STA     TEMP,,AUTO

       49     4495    2        DO I = 0 TO TEMP;

   4495  0 000034   200010 450100                    STZ     I,,AUTO
         0 000035   000073 710000 0                  TRA     s:4504+1

       50     4496    2             IF TEXTC.SZ = S_D.UD.TEXTSZ(I)

   4496  0 000036   200010 236100                    LDQ     I,,AUTO
         0 000037   000011 402007                    MPY     9,DL
         0 000040   000000 470400 xsym               LDP0    S_D$
         0 000041   000141 236106                    LDQ     97,QL,PR0
         0 000042   000033 772000                    QRL     27
         0 000043   200012 756100                    STQ     TEMP+1,,AUTO
         0 000044   200003 471500                    LDP1    TEXT$,,AUTO
         0 000045   000100 101500                    MRL     fill='000'O
         0 000046   100000 000001                    ADSC9   0,,PR1                   cn=0,n=1
         0 000047   200013 000004                    ADSC9   TEMP+2,,AUTO             cn=0,n=4
PL6.E3A0      #001=DDA$DEF File=DDA$DEF.:E05TSI                                  TUE 07/29/97 13:16 Page:8
         0 000050   200013 236100                    LDQ     TEMP+2,,AUTO
         0 000051   200012 116100                    CMPQ    TEMP+1,,AUTO
         0 000052   000072 601000 0                  TNZ     s:4504

       51     4497    3             THEN DO;

       52     4498    3                  IF TEXTC.TXT = S_D.UD.TEXT(I)

   4498  0 000053   000100 101500                    MRL     fill='000'O
         0 000054   100000 000001                    ADSC9   0,,PR1                   cn=0,n=1
         0 000055   200012 000002                    ADSC9   TEMP+1,,AUTO             cn=0,n=2
         0 000056   200012 220100                    LDX0    TEMP+1,,AUTO
         0 000057   200010 236100                    LDQ     I,,AUTO
         0 000060   000044 402007                    MPY     36,DL
         0 000061   040106 106540                    CMPC    fill='040'O
         0 000062   100000 200010                    ADSC9   0,,PR1                   cn=1,n=*X0
         0 000063   000141 200037                    ADSC9   97,Q,PR0                 cn=1,n=31
         0 000064   000072 601000 0                  TNZ     s:4504

       53     4499    4                  THEN DO;

       54     4500    4                       S_D.UD.VALUE(I) = ADDRESS;

   4500  0 000065   200010 236100                    LDQ     I,,AUTO
         0 000066   000011 402007                    MPY     9,DL
         0 000067   200004 235100                    LDA     ADDRESS,,AUTO
         0 000070   000140 755106                    STA     96,QL,PR0

       55     4501    4                       RETURN;

   4501  0 000071   000000 702200 xent               TSX2  ! X66_ARET

       56     4502    4                     END;
       57     4503    3                END;
       58     4504    2           END;                            /* DO I = 0 TO TEMP */

   4504  0 000072   200010 054100                    AOS     I,,AUTO
PL6.E3A0      #001=DDA$DEF File=DDA$DEF.:E05TSI                                  TUE 07/29/97 13:16 Page:9
         0 000073   200010 236100                    LDQ     I,,AUTO
         0 000074   200011 116100                    CMPQ    TEMP,,AUTO
         0 000075   000036 604400 0                  TMOZ    s:4496

       59     4505    2        DO I = 0 TO TEMP;                  /* SEARCH FOR EMPTY SLOT */

   4505  0 000076   200010 450100                    STZ     I,,AUTO
         0 000077   000134 710000 0                  TRA     s:4514+1

       60     4506    2             IF S_D.UD.TEXTSZ(I) = 0

   4506  0 000100   200010 236100                    LDQ     I,,AUTO
         0 000101   000011 402007                    MPY     9,DL
         0 000102   000000 470400 xsym               LDP0    S_D$
         0 000103   000141 236106                    LDQ     97,QL,PR0
         0 000104   777000 316003                    CANQ    -512,DU
         0 000105   000133 601000 0                  TNZ     s:4514

       61     4507    3             THEN DO;

       62     4508    3                  S_D.UD.TEXTSZ(I) = TEXTC.SZ;

   4508  0 000106   200010 236100                    LDQ     I,,AUTO
         0 000107   000011 402007                    MPY     9,DL
         0 000110   000002 736000                    QLS     2
         0 000111   200003 471500                    LDP1    TEXT$,,AUTO
         0 000112   000106 100500                    MLR     fill='000'O
         0 000113   100000 000001                    ADSC9   0,,PR1                   cn=0,n=1
         0 000114   000141 000001                    ADSC9   97,Q,PR0                 cn=0,n=1

       63     4509    3                  S_D.UD.TEXT(I) = TEXTC.TXT;

   4509  0 000115   000100 101500                    MRL     fill='000'O
         0 000116   100000 000001                    ADSC9   0,,PR1                   cn=0,n=1
         0 000117   200012 000002                    ADSC9   TEMP+1,,AUTO             cn=0,n=2
         0 000120   200012 220100                    LDX0    TEMP+1,,AUTO
         0 000121   200010 236100                    LDQ     I,,AUTO
PL6.E3A0      #001=DDA$DEF File=DDA$DEF.:E05TSI                                  TUE 07/29/97 13:16 Page:10
         0 000122   000044 402007                    MPY     36,DL
         0 000123   040106 100540                    MLR     fill='040'O
         0 000124   100000 200010                    ADSC9   0,,PR1                   cn=1,n=*X0
         0 000125   000141 200037                    ADSC9   97,Q,PR0                 cn=1,n=31

       64     4510    3                  S_D.UD.VALUE(I) = ADDRESS;

   4510  0 000126   200010 236100                    LDQ     I,,AUTO
         0 000127   000011 402007                    MPY     9,DL
         0 000130   200004 235100                    LDA     ADDRESS,,AUTO
         0 000131   000140 755106                    STA     96,QL,PR0

       65     4511    3                  RETURN;

   4511  0 000132   000000 702200 xent               TSX2  ! X66_ARET

       66     4512    3   DONE:
       67     4513    3                END;
       68     4514    2           END;                            /* DO I = 0 TO TEMP */

   4514  0 000133   200010 054100                    AOS     I,,AUTO
         0 000134   200010 236100                    LDQ     I,,AUTO
         0 000135   200011 116100                    CMPQ    TEMP,,AUTO
         0 000136   000100 604400 0                  TMOZ    s:4506

       69     4515    1        S_D.ERROR = E@2MANYDEFS;           /* E@2MANYDEFS */

   4515  0 000137   000076 235007                    LDA     62,DL
         0 000140   000000 470400 xsym               LDP0    S_D$
         0 000141   000013 755100                    STA     11,,PR0

       70     4516    1   AERR:
       71     4517    1        ALTRETURN;

   4517  0 000142   000000 702200 xent  AERR         TSX2  ! X66_AALT
       72     4518    1   END DDA$DEF;

PL6.E3A0      #001=DDA$DEF File=DDA$DEF.:E05TSI                                  TUE 07/29/97 13:16 Page:11
--  Include file information  --

   DD_SD_M.:E05TOU  is referenced.
   XUH_MACRO_C.:E05TOU  is referenced.
   DD_ERR_C.:E05TOU  is referenced.
   DD$BASED.:E05TOU  is referenced.
   B$JIT_C.:E05TOU  was found in the system file and is never referenced.
   CP_6_C.:E05TOU  was found in the system file and is never referenced.
      No diagnostics issued in procedure DDA$DEF.

   Procedure DDA$DEF requires 99 words for executable code.
   Procedure DDA$DEF requires 14 words of local(AUTO) storage.

    No errors detected in file DDA$DEF.:E05TSI    .
PL6.E3A0      #001=DDA$DEF File=DDA$DEF.:E05TSI                                  TUE 07/29/97 13:16 Page:12
          *** CROSS REFERENCE LISTING ***
**     DENOTES     IDENTIFIER DEFINITION
<<                 IDENTIFIER'S VALUE SET
>>                 IDENTIFIER'S VALUE USED
<>                 IDENTIFIER SET AND/OR USED
--                 IDENTIFIER REFERENCED
PL6.E3A0      #001=DDA$DEF File=DDA$DEF.:E05TSI                                  TUE 07/29/97 13:16 Page:13
          MINI XREF LISTING

ADDRESS
        21**DCL      4488<>CALL     4500>>ASSIGN   4510>>ASSIGN
AERR
      4517**LABEL    4488--CALLALT
DDK$EVAL
      4484**DCL-ENT  4488--CALL
DEF$CMD.TEXTC
      1344**DCL      4486--ASSIGN
DESC#
        24**DCL      4488<>CALL
I
        25**DCL      4495<<DOINDEX  4496>>IF       4498>>IF       4500>>ASSIGN   4505<<DOINDEX  4506>>IF
      4508>>ASSIGN   4509>>ASSIGN   4510>>ASSIGN
NOT_IS
        22**DCL      4488<>CALL     4489>>IF
SEG
        23**DCL      4488<>CALL
S_D.CURRENT_CHANNEL
      4117**DCL      4119--REDEF
S_D.D$
      3255**DCL      4487>>ASSIGN
S_D.DEBUGA
      3269**DCL      3271--REDEF
S_D.DESC$
      3249**DCL      4487<<ASSIGN
S_D.DO$
      3220**DCL      4486>>ASSIGN
S_D.EIS
      4227**DCL      4256--REDEF
S_D.ERROR
      3198**DCL      4491<<ASSIGN   4515<<ASSIGN
S_D.HOST_MESSAGE_BUF_REMOTE
PL6.E3A0      #001=DDA$DEF File=DDA$DEF.:E05TSI                                  TUE 07/29/97 13:16 Page:14
      4160**DCL      4161--REDEF    4175--REDEF
S_D.JDE
      3774**DCL      3775--REDEF
S_D.L$.VALUE
      3327**DCL      3333--REDEF    3341--REDEF    3344--REDEF    3347--REDEF    3350--REDEF
S_D.L$.VALUE.L
      3328**DCL      3329--REDEF    3330--REDEF
S_D.L6_MESSAGE_BUF
      4181**DCL      4183--REDEF
S_D.OUTPUT
      4147**DCL      4149--REDEF
S_D.REMOTE_MSG.FNCC
      4166**DCL      4167--REDEF
S_D.REMOTE_MSG.STXC
      4162**DCL      4163--REDEF
S_D.REMOTE_MSG.SUBFNCC
      4170**DCL      4171--REDEF
S_D.SV
      3226**DCL      3247--REDEF
S_D.UD
      3369**DCL      4494--ASSIGN
S_D.UD.TEXT
      3373**DCL      4498>>IF       4509<<ASSIGN
S_D.UD.TEXTSZ
      3372**DCL      4496>>IF       4506>>IF       4508<<ASSIGN
S_D.UD.VALUE
      3371**DCL      4500<<ASSIGN   4510<<ASSIGN
S_D$
      4478**DCL      3174--IMP-PTR  4486>>ASSIGN   4487>>ASSIGN   4487>>ASSIGN   4491>>ASSIGN   4496>>IF
      4498>>IF       4500>>ASSIGN   4506>>IF       4508>>ASSIGN   4509>>ASSIGN   4510>>ASSIGN   4515>>ASSIGN
TEMP
        26**DCL      4494<<ASSIGN   4495>>DOINDEX  4505>>DOINDEX
TEXT$
        20**DCL        28--IMP-PTR  4486<<ASSIGN   4496>>IF       4498>>IF       4498>>IF       4508>>ASSIGN
      4509>>ASSIGN   4509>>ASSIGN
TEXTC.SZ
PL6.E3A0      #001=DDA$DEF File=DDA$DEF.:E05TSI                                  TUE 07/29/97 13:16 Page:15
        29**DCL        30--IMP-SIZ  4496>>IF       4498>>IF       4508>>ASSIGN   4509>>ASSIGN
TEXTC.TXT
        30**DCL      4498>>IF       4509>>ASSIGN
PL6.E3A0      #001=DDA$DEF File=DDA$DEF.:E05TSI                                  TUE 07/29/97 13:16 Page:16
              *** CROSS REFERENCE LISTING ***
    **     DENOTES     IDENTIFIER DEFINITION
    <<                 IDENTIFIER'S VALUE SET
    >>                 IDENTIFIER'S VALUE USED
    <>                 IDENTIFIER SET AND/OR USED
    --                 IDENTIFIER REFERENCED
PL6.E3A0      #001=DDA$DEF File=DDA$DEF.:E05TSI                                  TUE 07/29/97 13:16 Page:17
              MINI UREF LISTING

DDA$DEF      18**PROC
DONE    4513**LABEL
