PL6.E3A0      #001=DDA$DISP File=DDA$DISP.:E05TSI                                TUE 07/29/97 13:18 Page:1
        1        1        /*M*  DDA$DISP - DISPLAY command do routine */
        2        2        /*T***********************************************************/
        3        3        /*T*                                                         */
        4        4        /*T* Copyright (c) Bull HN Information Systems Inc., 1997    */
        5        5        /*T*                                                         */
        6        6        /*T***********************************************************/
        7        7        /*X* DMR,PLM=5,IND=5,CSU=3,EXM=0,ECU=3,MCL=4,DCI=5,CRT=5 */
        8        8        %SET LISTSUB='1'B;
        9        9        DDA$DISP: PROC ALTRET;
       10       10          /* Locals */
       11       11    1   DCL NUM UBIN;
       12       12    1   DCL TEMP SBIN;
       13       13    1   DCL N UBIN;
       14       14    1   DCL VITEM$ PTR;
       15       15    1   DCL FMT UBIN;
       16       16    1   DCL DESC$ PTR;
       17       17    1   DCL NEXT$ PTR;
       18       18    1   DCL NEXT1$ PTR;
       19       19    1   DCL ITEM$ PTR;
       20       20    1   DCL TEXT$ PTR;
       21       21    1   DCL NCHARS UBIN;
       22       22    1   DCL TEXTR CHAR(NCHARS) BASED;
       23       23    1   DCL VAL SBIN;
       24       24    1   DCL SAVE_VALUE SBIN;
       25       25    1   DCL SIZED9 UBIN;
       26       26    1   DCL SIZED8 UBIN;
       27       27    1   DCL PFLAG BIT(1);
       28       28    1   DCL TEMP$ PTR;
       29       29    1   DCL TEMP1 REDEF TEMP$ UBIN(36) ALIGNED;
       30       30    1   DCL 1 TEMP1B REDEF TEMP$ ALIGNED,
       31       31    1         2 * UBIN(4) UNAL,
       32       32    1         2 B1 UBIN(8) UNAL,
       33       33    1         2 B2 UBIN(8) UNAL,
       34       34    1         2 B3 UBIN(8) UNAL,
       35       35    1         2 B4 UBIN(8) UNAL;
       36       36    1   DCL TEMP2 UBIN(36) ALIGNED;
       37       37    1   DCL 1 TEMP2B REDEF TEMP2 ALIGNED,
PL6.E3A0      #001=DDA$DISP File=DDA$DISP.:E05TSI                                TUE 07/29/97 13:18 Page:2
       38       38    1         2 * BIT(1) UNAL,
       39       39    1         2 B1 UBIN(8) UNAL,
       40       40    1         2 * BIT(1) UNAL,
       41       41    1         2 B2 UBIN(8) UNAL,
       42       42    1         2 * BIT(1) UNAL,
       43       43    1         2 B3 UBIN(8) UNAL,
       44       44    1         2 * BIT(1) UNAL,
       45       45    1         2 B4 UBIN(8) UNAL;
       46       46    1   DCL DOFF SBIN;
       47       47    1   DCL IDX$ PTR;
       48       48    1   DCL ADDRESS UBIN;
       49       49    1   DCL SEG UBIN;
       50       50    1   DCL DESC# UBIN;
       51       51    1   DCL NOT_IS BIT(1);
       52       52    1   DCL CALL_ERROR BIT(1);
       53       53    1   DCL CHAR1 CHAR(1) BASED;
       54       54    1   DCL CHAR2 CHAR(2) BASED;
       55       55    1   DCL CHAR3 CHAR(3) BASED;
       56       56    1   DCL CHAR4 CHAR(4) BASED;
       57       57    1   DCL CHAR12 CHAR(12) BASED;
       58       58    1   DCL CHAR13 CHAR(13) BASED;
       59       59    1   DCL UBIN36 UBIN BASED;
       60       60    1   DCL SVALUE SBIN;
       61       61    1   DCL SIZE SBIN;
       62       62    1   DCL RSIZE UBIN;
       63       63    1   DCL INDXX SBIN;
       64       64    1   DCL POINTER UBIN;
       65       65    1   DCL EXPR_VAL SBIN;
       66       66    1   DCL EXPR_OP UBIN;
       67       67    1   DCL EXPR_OP_L6 BIT(1) ALIGNED;
       68       68    1   DCL ADDR_TYPE UBIN;
       69       69    1   DCL ARRAY_FLAG BIT(1);
       70       70    1   DCL SFLAG BIT(1);
       71       71    1   DCL 1 VALUE DALIGNED,
       72       72    1         2 L SBIN,
       73       73    1         2 E REDEF L UBIN(8),
       74       74    1         2 L6_WORD REDEF L,
PL6.E3A0      #001=DDA$DISP File=DDA$DISP.:E05TSI                                TUE 07/29/97 13:18 Page:3
       75       75    1           3 * BIT(4),
       76       76    1           3 UH UBIN(16) UNAL,
       77       77    1           3 LH UBIN(16) UNAL,
       78       78    1         2 R SBIN,
       79       79    1         2 * CHAR(56);
       80       80    1   DCL 1 VALUE_L6,
       81       81    1         2 SIZE UBIN,
       82       82    1         2 OPS(0:15) UBIN,
       83       83    1         2 OPSB(0:15) REDEF OPS,
       84       84    1           3 * BIT(20) UNAL,
       85       85    1           3 UH UBIN(8) UNAL,
       86       86    1           3 LH UBIN(8) UNAL;
       87       87    1   DCL BVALUE_L6 UBIN(8) BASED UNAL;
       88       88    1   DCL SAVE_DESC$ PTR;
       89       89    1   DCL MYBUF CHAR(20);
       90       90    1   DCL MYBUF$ PTR;
       91       91    1   DCL DO$ PTR;
       92       92    1   DCL EIS UBIN;
       93       93    1   DCL 1 TEXTC BASED,
       94       94    1         2 SZ UBIN(9) UNAL,
       95       95    1         2 TXT CHAR(NCHARS);
       96       96    1   DCL MVN(0:2) UBIN CONSTANT INIT(4,5,6);
       97       97          /* Misc */
       98       98    1   DCL PRE_I$ PTR;
       99       99    1   DCL PRE_IL UBIN;
      100      100    1   DCL PRE_I CHAR(PRE_IL) BASED (PRE_I$);
      101      101    1   DCL POST_I$ PTR;
      102      102    1   DCL POST_IL UBIN;
      103      103    1   DCL POST_I CHAR(POST_IL) BASED (POST_I$);
      104      104    1   DCL CHAR8 CHAR(8) BASED;
      105      105    1   DCL BIT72 BIT(72) BASED ALIGNED;
      106      106    1   DCL USS1$ PTR SYMREF;
      107      107    1   DCL ULS$ PTR SYMREF;
      108      108    1   DCL UIS$ PTR SYMREF;
      109      109    1   DCL USDS$ PTR SYMREF;
      110      110    1   DCL UPS$ PTR SYMREF;
      111      111    1   DCL UAS$ PTR SYMREF;
PL6.E3A0      #001=DDA$DISP File=DDA$DISP.:E05TSI                                TUE 07/29/97 13:18 Page:4
      112      112    1   DCL USE$ PTR SYMREF;
      113      113    1   DCL WSR(0:7) UBIN(9) UNAL SYMREF;
      114      114    1   DCL MIS$ PTR SYMREF;
      115      115    1   DCL D_XDELTA BIT(1) SYMREF;
      116      116    1   DCL 1 NPOINTERS ALIGNED,
      117      117    1         2 TRUE SBIN HALF UNAL,
      118      118    1         2 FALSE SBIN HALF UNAL;
      119      119             %INCLUDE DD$BASED;
      120     1422             %FPRG$CONTEXT;
      121     1485             %DISPLAY(STCLASS="BASED(DO$)");
      122     1496             %U$SE;
      123     1504             %HOST_REG$VALUES(NAME=REG$VALUES);
      124     1517             %INCLUDE DD_SUBS_C;
      125     1788             %INCLUDE DD$DITEM;
       12+    1891             %LIST;
       13+    1892    1        DCL SDD$ PTR;
       14+    1893    1        DCL ZITEM$ PTR;
       15+    1894    1        DCL SDD_L6$ PTR;
       16+    1895    1        DCL ZITEM_L6$ PTR;
      126     2469             %ZITEM;
      127     2541             %DITEM;
      128     2621             %DITEM (NAME=ITEM, STCLASS=AUTO);
      129     2701             %MITEM;
      130     2749        %INCLUDE B$SS;
      131     2928             %INCLUDE DD_ERR_C;
      132     3325        %INCLUDE DU_SCODE_C;
      133     3338        %INCLUDE GD$MSG_M;
      134     3502        %GD$MSG(FPTN=GD$MSG,STCLASS="BASED(S_D_L6_MESSAGE$)",L6=YES,L6PTR="UBIN(32) UNAL");
      135     3658        %GD$MSG(FPTN=GD$MSG_HOST,STCLASS="BASED(S_D_HOST_MESSAGE$)",L6=NO);
      136     3814        %INCLUDE GD_EQUS_E;
      137     3975             %INCLUDE XUH_MACRO_C;
      138     4059             %INCLUDE DD_SD_M;
      139     5395             %S_D;
      140     6713        %S_D_PTRS;
      141     6750             %INCLUDE CP_6;
      142     6831             %FPT_DRTN(FPTN=FPT$DRTN,STCLASS=BASED);
      143     6855        %FPT_SCREECH(FPTN=SNAP_MESSAGE,STCLASS=SYMREF READONLY);
PL6.E3A0      #001=DDA$DISP File=DDA$DISP.:E05TSI                                TUE 07/29/97 13:18 Page:5
      144     6869        %VLP_SCODE(FPTN=SC_MESSAGE, STCLASS=SYMREF READONLY);
      145     6930        %INCLUDE IR_DATA_M;
      146     7094        %INCLUDE NI$TABLES;
      147     7310        %INCLUDE DD$DA;
      148     7391        %RV_BUFF (NAME=RV_BUFF, STCLASS=BASED);
      149     7427        %INCLUDE B$OBJECT_C;
      150    10857        %INCLUDE DD_DEBUG_C;
      151    10878        %B$HEAD;
      152    11078          /* External routines */
      153    11079    1   DCL DDK$SEXTEND ENTRY(2);
      154    11080    1   DCL DDK$GETVAL ENTRY(13) ALTRET;
      155    11081    1   DCL DDK$GETMVAL ENTRY(5) ALTRET;
      156    11082    1   DCL DDK$GETSPEC ENTRY(2) ALTRET;
      157    11083    1   DCL DDA$GETDESC ENTRY(3) ALTRET;
      158    11084    1   DCL DDA$GET$O ENTRY(2) ALTRET;
      159    11085    1   DCL DDB$BREAK ENTRY ALTRET;
      160    11086    1   DCL DDI$GET_PATCH_SPACE ENTRY;
      161    11087    1   DCL DDK$GETADDR ENTRY(9) ALTRET;
      162    11088    1   DCL DDQ$WRITE ENTRY(2);
      163    11089    1   DCL DDR$BINTXT ENTRY(4);
      164    11090    1   DCL DDR$BLDNAME ENTRY(1) ALTRET;
      165    11091    1   DCL DDR$BUMPC_D$ ENTRY(1) ALTRET;
      166    11092    1   DCL DDR$POSIT ENTRY(5) ALTRET;
      167    11093    1   DCL DDE$ERROR ENTRY;
      168    11094    1   DCL DDA$DISPFMT ENTRY(6) ALTRET;
      169    11095    1   DCL DDK$EVAL ENTRY(6) ALTRET;
      170    11096    1   DCL DDK$GET_EA ENTRY(1);
      171    11097    1   DCL DDK$GET_EAQ ENTRY(1);
      172    11098    1   DCL DFK$EVAL_DISP ENTRY(8) ALTRET;
      173    11099    1   DCL DFK$GETMVAL ENTRY(6) ALTRET;
      174    11100    1   DCL DFQ$READ_FD ENTRY(2) ALTRET;
      175    11101    1   DCL DFQ$WRITE_FD ENTRY(1) ALTRET;
      176    11102    1   DCL DUE$ERRMSG ENTRY;
      177    11103    1   DCL DUE$GERRMSG ENTRY;
      178    11104    1   DCL DUL$GETMVAL ENTRY(5) ALTRET;
      179    11105                                                /**/
      180    11106    1        CALL_ERROR = '0'B;
PL6.E3A0      #001=DDA$DISP File=DDA$DISP.:E05TSI                                TUE 07/29/97 13:18 Page:6
      181    11107    1        DO$ = S_D.DO$;
      182    11108    1        MYBUF$ = ADDR(MYBUF);
      183    11109    1        REMEMBER DONE IN S_D.SCREECH_IC;
      184    11110    1        NUM = DISPLAY.NUM - 1;
      185    11111    2        DO N = 0 TO NUM;
      186    11112    2             CALL_ERROR = '0'B;
      187    11113    2             DESC$ = S_D.D$;
      188    11114    2             ZITEM$ = S_D.D$;
      189    11115    2             NEXT$ = PINCRW(DESC$, ZITEM.SIZE);
      190    11116    2             IF D_XDELTA
      191    11117    2               AND ZITEM.FLAGS.MDSE.S
      192    11118    2               AND NOT U$SE.CUR
      193    11119    3             THEN DO;
      194    11120    3                  S_D.ERROR = 38; /* E@USE_CONFLICT */
      195    11121    3                  ALTRETURN;
      196    11122    3                END;
      197    11123    2             FMT = ZITEM.FMT_SPEC;
      198    11124    2             S_D.D$ = ADDR(S_D.OUTPUT);
      199    11125    2             S_D.DESCL$ = PINCRC(S_D.D$, LENGTHC(S_D.OUTPUT));
      200    11126    2             IF S_D.RUM AND NOT S_D.DEBUGA (%DB@DOCMD)
      201    11127    3             THEN DO;
      202    11128    3                  IF ZITEM.DTYP ~= %SPEC_DTYP OR
      203    11129    3                    (ZITEM.DTYP = %SPEC_DTYP AND
      204    11130    3                    (ZITEM.SP.VS.ID ~= %REM@_RTN AND
      205    11131    3                    ZITEM.SP.VS.ID ~= %REM#_RTN AND
      206    11132    3                    ZITEM.SP.VS.ID ~= %SA_RTN AND
      207    11133    3                    ZITEM.SP.VS.ID ~= %PRIV_RTN))
      208    11134    4                  THEN DO;
      209    11135    4                       S_D.ERROR = 212; /* E@BADCMD_RUM */
      210    11136    4                       ALTRETURN;
      211    11137    4                     END;
      212    11138    3                END;
      213    11139    2             IF ZITEM.NAMEFLAGS.POSITION
      214    11140    3             THEN DO;
      215    11141    3                  CALL DDR$POSIT(ZITEM.VALUE, S_D.D$, POFFC(S_D.DESCL$, S_D.D$),
      216    11142    3                    NCHARS) ALTRET(DERR);
      217    11143    3                  CALL DDR$BUMPC_D$(NCHARS) ALTRET(DERR);
PL6.E3A0      #001=DDA$DISP File=DDA$DISP.:E05TSI                                TUE 07/29/97 13:18 Page:7
      218    11144    3                END;
      219    11145    3             ELSE DO;
      220    11146    3                  TEXT$ = S_D.D$;
      221    11147    3                  NCHARS = ZITEM.TEXTSZ;
      222    11148    3                  CALL DDR$BUMPC_D$(NCHARS) ALTRET(DERR);
      223    11149    3                  TEXT$ -> TEXTR = ZITEM.TEXTSTART$ -> TEXTR;
      224    11150    3                END;
      225    11151    3             DO CASE(ZITEM.DTYP);
      226    11152                                                /*
      227    11153                                                SIM_DTYP
      228    11154                                                */
      229    11155    3               CASE( %SIM_DTYP );
      230    11156                                                /**/
      231    11157    3                  TEXT$ = S_D.D$;
      232    11158    3                  CALL DDR$BUMPC_D$(3) ALTRET(DERR);
      233    11159    3                  TEXT$ -> CHAR3 = ' = ';
      234    11160    3                  TEXT$ = S_D.D$;
      235    11161    3                  S_D.DESC$ = DESC$;
      236    11162    3                  IF S_D.ONE_TO_TWO.EXEC_DOMAIN = %HOST
      237    11163    4                  THEN DO;
      238    11164    4                       CALL DDK$GETADDR(ITEM, SVALUE, SIZE, INDXX, POINTER,
      239    11165    4                         EXPR_VAL, EXPR_OP, ADDR_TYPE, ARRAY_FLAG ) ALTRET(DERR);
      240    11166    4                       CALL DISP ALTRET(DERR);
             11166                                /* Go do actual formatting and display */
      241    11167    4                     END;
      242    11168    4                  ELSE DO;
      243    11169    4                       CALL DFK$EVAL_DISP(VALUE_L6, ADDRESS, SEG, DESC#,
      244    11170    4                         NOT_IS, SIZE, EXPR_OP_L6, '0'B) ALTRET(DERR);
      245    11171    4                       CALL DISP_L6 ALTRET(DERR);
      246    11172    4                     END;
      247    11173    3                  IF ZITEM.NAMEFLAGS.STATUS_EXISTS AND S_D.STATUS
      248    11174    4                  THEN DO;
      249    11175    4                       SAVE_DESC$ = ZITEM$;
      250    11176    4                       ZITEM$ = NEXT$;
      251    11177    4                       S_D.D$ = ADDR(S_D.OUTPUT);
      252    11178    4                       S_D.DESCL$ = PINCRC(S_D.D$, LENGTHC(S_D.OUTPUT));
      253    11179    4                       S_D.DESC$ = NEXT$;
PL6.E3A0      #001=DDA$DISP File=DDA$DISP.:E05TSI                                TUE 07/29/97 13:18 Page:8
      254    11180    4                       SDD$ = PINCRW(NEXT$, NEXT$ -> ZITEM.SIZE - 3);
      255    11181    4                       CALL DFK$EVAL_DISP(VALUE_L6, ADDRESS, SEG, DESC#, NOT_IS,
      256    11182    4                         SIZE, EXPR_OP_L6, '0'B) ALTRET(DERR);
      257    11183    4                       NPOINTERS.TRUE = ZITEM.NPOINTER_TRUE;
      258    11184    4                       NPOINTERS.FALSE = ZITEM.NPOINTER_FALSE;
      259    11185    4                       CALL DDA$DISPFMT(%STATUS_FMT, DITEM.VALUE, VALUE_L6.OPS(0), , ,
             11185                                NPOINTERS) ALTRET(DERR);
      260    11186    4                       ZITEM$ = SAVE_DESC$;
      261    11187    4                     END;
      262    11188                                                /*
      263    11189                                                SPEC_DTYP
      264    11190                                                */
      265    11191    3               CASE( %SPEC_DTYP );
      266    11192    3                  TEXT$ = S_D.D$;
      267    11193    3                  CALL DDR$BUMPC_D$(3) ALTRET(DERR);
      268    11194    3                  TEXT$ -> CHAR3 = ' = ';
      269    11195    3                  TEXT$ = S_D.D$;
      270    11196    4                  DO CASE(ZITEM.ADDR_TYPE);
      271    11197                                                /**/
      272    11198    4                    CASE( %DESC_ACODE );
      273    11199    4                       IF S_D.ONE_TO_TWO.EXEC_DOMAIN = %HOST
      274    11200    5                       THEN DO;
      275    11201    5                            PFLAG = '0'B;  /* Set to '1'B if ptr, not desc */
      276    11202    6                            DO CASE(ZITEM.SP.VD.TYPE);
      277    11203                                                /**/
      278    11204    6                              CASE( 0 );   /* $SSR, $SDn */
      279    11205    7                                 DO CASE(ZITEM.SP.VD.ID);
      280    11206    7                                   CASE( 0 ); /* $SSR */
      281    11207    7                                      TEMP$ = USS1$;
      282    11208    7                                      DOFF = -1;
      283    11209    7                                   CASE( 3 ); /* $SDn */
      284    11210    7                                      TEMP$ = USDS$;
      285    11211    7                                      DOFF = ZITEM.SP.VD.DISP;
      286    11212    7                                   CASE( ELSE );
      287    11213    7                                      S_D.ERROR = 502; /* E@DELBUG */
      288    11214    7                                      CALL DDE$ERROR;
      289    11215    7                                      RETURN;
PL6.E3A0      #001=DDA$DISP File=DDA$DISP.:E05TSI                                TUE 07/29/97 13:18 Page:9
      290    11216    7                                   END;    /* DO CASE(DITEM_VAL.ID) */
      291    11217                                                /**/
      292    11218    6                              CASE( 1 );   /* $PSR, $ASR, $ISR, $LSR */
      293    11219    7                                 DO CASE(ZITEM.SP.VD.ID);
      294    11220    7                                   CASE( 0 ); /* $PSR */
      295    11221    7                                      TEMP$ = USS1$;
      296    11222    7                                      DOFF = 14;
      297    11223    7                                   CASE( 2 ); /* $ASR */
      298    11224    7                                      TEMP$ = USS1$;
      299    11225    7                                      DOFF = 10;
      300    11226    7                                   CASE( 1 ); /* $ISR */
      301    11227    7                                      IF U$SE.CUR
      302    11228    8                                      THEN DO;
      303    11229    8                                           TEMP$ = USS1$;
      304    11230    8                                           DOFF = 8;
      305    11231    8                                         END;
      306    11232    8                                      ELSE DO;
      307    11233    8                                           TEMP$ = UIS$;
      308    11234    8                                           DOFF = -1;
      309    11235    8                                         END;
      310    11236    7                                   CASE( 3 ); /* $LSR */
      311    11237    7                                      TEMP$ = USS1$;
      312    11238    7                                      DOFF = 12;
      313    11239    7                                   END;    /* DO CASE(DITEM_VAL.ID) */
      314    11240    6                              CASE ( 2 );  /* $DRn, $PRn, $AUTO */
      315    11241    6                                 IF ZITEM.SP.VD.ID = 0 /* $DRn */
      316    11242    7                                 THEN DO;
      317    11243    7                                      TEMP$ = USS1$;
      318    11244    7                                      DOFF = ZITEM.SP.VD.DISP;
      319    11245    7                                    END;
      320    11246    7                                 ELSE DO;
      321    11247    7                                      PFLAG = '1'B;
      322    11248    7                                      VALUE.L = PINCRW(S_D.USS$, ZITEM.SP.VD.ID) ->
             11248                                               UBIN36;
      323    11249    7                                    END;
      324    11250    6                              CASE( 3 );   /* $PSn, $ASn, $LSn, $DSn */
      325    11251    6                                 DOFF = ZITEM.SP.VD.DISP;
PL6.E3A0      #001=DDA$DISP File=DDA$DISP.:E05TSI                                TUE 07/29/97 13:18 Page:10
      326    11252    7                                 DO CASE(ZITEM.SP.VD.ID);
      327    11253    7                                   CASE( 0 ); /* $PSn */
      328    11254    7                                      TEMP$ = UPS$;
      329    11255    7                                   CASE( 2 ); /* $ASn */
      330    11256    7                                      TEMP$ = UAS$;
      331    11257    7                                   CASE( 3 ); /* $LSn, $DSn */
      332    11258    7                                      TEMP$ = ULS$;
      333    11259    7                                   END;    /* DO CASE(ZITEM.SP.VD.ID) */
      334    11260    6                              CASE( 8 , 9 ); /* FEP symbols */
      335    11261    6                                 GOTO NOTL6;
      336    11262    6                              CASE ( ELSE );
      337    11263    6                                 S_D.ERROR = 502; /* E@DELBUG */
      338    11264    6                                 CALL DDE$ERROR;
      339    11265    6                                 RETURN;
      340    11266    6                              END;         /* DO CASE(DITEM_VAL.TYPE) */
      341    11267    5                            IF PFLAG
      342    11268    6                            THEN DO;
      343    11269    6                                 RSIZE = 36;
      344    11270    6                               END;
      345    11271    6                            ELSE DO;
      346    11272    6                                 RSIZE = 72;
      347    11273    6                                 IF S_D.ANLZ_FILE
      348    11274    7                                 THEN DO;
      349    11275    7                                      IF TEMP$ = USS1$
      350    11276    8                                      THEN DO;
      351    11277    8                                           IF DOFF = -1 THEN VALUE = DA.RVBUFF$->
             11277                                                    RV_BUFF.SSR;
      352    11278    8                                           ELSE VALUE = PINCRW(S_D.USS$, DOFF)->BIT72;
      353    11279    8                                         END;
      354    11280    7                                      ELSE IF TEMP$ = ULS$ THEN VALUE = PINCRW(DA.
             11280                                               CURLS$, DOFF)->BIT72;
      355    11281    8                                           ELSE DO;
      356    11282    8                                                S_D.ERROR = 503; /*E@NOTIMP*/
      357    11283    8                                                GOTO DERR;
      358    11284    8                                              END;
      359    11285    7                                    END;
      360    11286    6                                 ELSE CALL DDA$GETDESC(TEMP$, DOFF, VALUE) ALTRET(
PL6.E3A0      #001=DDA$DISP File=DDA$DISP.:E05TSI                                TUE 07/29/97 13:18 Page:11
             11286                                          SEGERR);
      361    11287    6                               END;
      362    11288    5                          END;
      363    11289    5                       ELSE DO;
      364    11290    5                            CALL DFK$EVAL_DISP(VALUE_L6, ADDRESS, SEG, DESC#,
      365    11291    5                              NOT_IS, SIZE, EXPR_OP_L6, '0'B) ALTRET(DERR);
      366    11292    5                          END;
      367    11293    4                    CASE( %SPEC_ACODE );
      368    11294    4                       S_D.DESC$ = DESC$;
      369    11295    4                       IF ZITEM.FLAGS.MDSE.E
      370    11296    5                       THEN DO;            /* $O, $I, $L  -  evaluatable address */
      371    11297    5                            S_D.DESC$ = DESC$;
      372    11298    5                            CALL DDK$EVAL(ADDRESS, SEG, DESC#, NOT_IS) ALTRET(DERR);
      373    11299    5                            NEXT$ = S_D.DESC$;
      374    11300    5                            IF S_D.ANLZ_FILE THEN CALL DUL$GETMVAL(VALUE.L, ADDRESS,
             11300                                     SEG, DESC#, NOT_IS) ALTRET(DERR);
      375    11301    6                            ELSE DO;
      376    11302    6                                 IF S_D.ONE_TO_TWO.EXEC_DOMAIN = %HOST
      377    11303    6                                 THEN CALL DDK$GETMVAL(VALUE.L, ADDRESS,
      378    11304    6                                        SEG, DESC#, NOT_IS) ALTRET(DERR);
      379    11305    6                                 ELSE CALL DFK$GETMVAL(VALUE_L6, ADDRESS, SEG,
      380    11306    6                                        DESC#, NOT_IS, '0'B) ALTRET(DERR);
      381    11307    6                               END;
      382    11308    5                            IF S_D.ONE_TO_TWO.EXEC_DOMAIN = %HOST
      383    11309    6                            THEN DO;
      384    11310    6                                 RSIZE = 36;
      385    11311    6                                 CALL DISPX ALTRET(DERR);
      386    11312    6                               END;
      387    11313    6                            ELSE DO;
      388    11314    6                                 CALL DISP_L6 ALTRET(DERR);
      389    11315    6                               END;
      390    11316    5                            GOTO NEXT;
      391    11317    5                          END;
      392    11318    4                       RSIZE = 36;
      393    11319    5                       DO CASE( ZITEM.SP.VS.ID );
      394    11320    5                         CASE( %ENT_RTN );
      395    11321    5                            IF S_D.ONE_TO_TWO.EXEC_DOMAIN ~= %HOST
PL6.E3A0      #001=DDA$DISP File=DDA$DISP.:E05TSI                                TUE 07/29/97 13:18 Page:12
      396    11322    5                            THEN GOTO NOTHOST;
      397    11323    5                            VALUE.L = S_D.SV.DELENT;
      398    11324    5                         CASE( %IOBUFSZ_RTN );
      399    11325    5                            IF S_D.ONE_TO_TWO.EXEC_DOMAIN ~= %HOST
      400    11326    5                            THEN GOTO NOTHOST;
      401    11327    5                            IF NOT D_XDELTA THEN GOTO NOTXDELTA;
      402    11328    5                            VALUE.L = S_D.SV.IOBUFSZ;
      403    11329    5                         CASE( %IND_RTN );
      404    11330    5                            IF S_D.ONE_TO_TWO.EXEC_DOMAIN = %HOST
      405    11331    6                            THEN DO;
      406    11332    6                                 IF D_XDELTA
      407    11333    6                                 THEN VALUE.L = BITBIN(S_D.USS$ -> B$SS.IR);
      408    11334    6                                 ELSE VALUE.L = BITBIN(S_D.DRTN$ -> FPT$DRTN.V.IR#);
      409    11335    6                               END;
      410    11336    5                            ELSE CALL DFK$EVAL_DISP(VALUE_L6, ADDRESS, SEG, DESC#,
      411    11337    5                                   NOT_IS, SIZE, EXPR_OP_L6, '0'B) ALTRET(DERR);
      412    11338    5                         CASE( %IC_RTN );
      413    11339    5                            VALUE.L = S_D.SAVEIC;
      414    11340    5                            IF S_D.ONE_TO_TWO.EXEC_DOMAIN = %L6
      415    11341    6                            THEN DO;
      416    11342    6                                 VALUE_L6.SIZE = 2;
      417    11343    6                                 VALUE_L6.OPS(0) = VALUE.L6_WORD.UH;
      418    11344    6                                 VALUE_L6.OPS(1) = VALUE.L6_WORD.LH;
      419    11345    6                                 SIZE = 32;
      420    11346    6                               END;
      421    11347    5                         CASE( %E_RTN );
      422    11348    5                            IF S_D.ONE_TO_TWO.EXEC_DOMAIN ~= %HOST
      423    11349    5                            THEN GOTO NOTHOST;
      424    11350    5                            VALUE.E = S_D.UREG$ -> REG$VALUES.E;
      425    11351    5                            RSIZE = 8;
      426    11352        /*                       FMT = %SINT_FMT;*/
      427    11353    5                         CASE( %A_RTN );
      428    11354    5                            IF S_D.ONE_TO_TWO.EXEC_DOMAIN = %HOST
      429    11355    5                            THEN VALUE.L = S_D.UREG$ -> REG$VALUES.A;
      430    11356    5                            ELSE CALL DFK$EVAL_DISP(VALUE_L6, ADDRESS, SEG,
      431    11357    5                                   DESC#, NOT_IS, SIZE, EXPR_OP_L6, '0'B)
      432    11358    5                                   ALTRET(DERR);
PL6.E3A0      #001=DDA$DISP File=DDA$DISP.:E05TSI                                TUE 07/29/97 13:18 Page:13
      433    11359    5                         CASE( %Q_RTN );
      434    11360    5                            IF S_D.ONE_TO_TWO.EXEC_DOMAIN ~= %HOST
      435    11361    5                            THEN GOTO NOTHOST;
      436    11362    5                            VALUE.L = S_D.UREG$ -> REG$VALUES.Q;
      437    11363    5                         CASE( %AU_RTN );
      438    11364    5                            IF S_D.ONE_TO_TWO.EXEC_DOMAIN ~= %HOST
      439    11365    5                            THEN GOTO NOTHOST;
      440    11366    5                            VALUE.L = S_D.UREG$ -> REG$VALUES.HA.AU;
      441    11367    5                         CASE( %AL_RTN );
      442    11368    5                            IF S_D.ONE_TO_TWO.EXEC_DOMAIN ~= %HOST
      443    11369    5                            THEN GOTO NOTHOST;
      444    11370    5                            VALUE.L = S_D.UREG$ -> REG$VALUES.HA.AL;
      445    11371    5                         CASE( %QU_RTN );
      446    11372    5                            IF S_D.ONE_TO_TWO.EXEC_DOMAIN ~= %HOST
      447    11373    5                            THEN GOTO NOTHOST;
      448    11374    5                            VALUE.L = S_D.UREG$ -> REG$VALUES.HQ.QU;
      449    11375    5                         CASE( %QL_RTN );
      450    11376    5                            IF S_D.ONE_TO_TWO.EXEC_DOMAIN ~= %HOST
      451    11377    5                            THEN GOTO NOTHOST;
      452    11378    5                            VALUE.L = S_D.UREG$ -> REG$VALUES.HQ.QL;
      453    11379    5                         CASE( %X_RTN );
      454    11380    5                            IF S_D.ONE_TO_TWO.EXEC_DOMAIN ~= %HOST
      455    11381    5                            THEN GOTO NOTHOST;
      456    11382    5                            VALUE.L = S_D.UREG$ -> REG$VALUES.X(ZITEM.SP.VS.SZ);
      457    11383    5                         CASE( %WSR_RTN );
      458    11384    5                            IF S_D.ONE_TO_TWO.EXEC_DOMAIN ~= %HOST
      459    11385    5                            THEN GOTO NOTHOST;
      460    11386    5                            IF NOT D_XDELTA
      461    11387    6                            THEN DO;
      462    11388    6   NOTXDELTA:
      463    11389    6                                 S_D.ERROR = 111; /* E@XDONLYSYM */
      464    11390    6                                 ALTRETURN;
      465    11391    6                               END;
      466    11392    5                            VALUE.L = WSR(ZITEM.SP.VS.SZ);
      467    11393    5                         CASE( %WSQ_RTN );
      468    11394    5                            IF S_D.ONE_TO_TWO.EXEC_DOMAIN ~= %HOST
      469    11395    5                            THEN GOTO NOTHOST;
PL6.E3A0      #001=DDA$DISP File=DDA$DISP.:E05TSI                                TUE 07/29/97 13:18 Page:14
      470    11396    5                            IF NOT D_XDELTA THEN GOTO NOTXDELTA;
      471    11397    5                            VALUE.L = PINCRW(MIS$, ZITEM.SP.VS.SZ) -> UBIN36;
      472    11398    5                         CASE( %AR_RTN );
      473    11399    5                            IF S_D.ONE_TO_TWO.EXEC_DOMAIN ~= %HOST
      474    11400    5                            THEN GOTO NOTHOST;
      475    11401    5                            VALUE.L = PINCRW(S_D.USS$, 16 + ZITEM.SP.VS.SZ) -> UBIN36;
      476    11402    5                         CASE( %EA_RTN );
      477    11403    5                            IF S_D.ONE_TO_TWO.EXEC_DOMAIN ~= %HOST
      478    11404    5                            THEN GOTO NOTHOST;
      479    11405    5                            CALL DDK$GET_EA( VALUE.L );
      480    11406    5                            RSIZE = 44;
      481    11407    5                         CASE( %EAQ_RTN );
      482    11408    5                            IF S_D.ONE_TO_TWO.EXEC_DOMAIN ~= %HOST
      483    11409    5                            THEN GOTO NOTHOST;
      484    11410    5                            CALL DDK$GET_EAQ( VALUE );
      485    11411    5                            RSIZE = 80;
      486    11412    5                         CASE( %REM@_RTN );
      487    11413    5                            IF NOT S_D.DEFINED@
      488    11414    5                            THEN CALL DDI$GET_PATCH_SPACE;
      489    11415    5                            IF S_D.GOT@
      490    11416    5                            THEN VALUE.L = S_D.RSPACE@;
      491    11417    5                            ELSE VALUE.L = 0;
      492    11418    5                            IF S_D.ONE_TO_TWO.EXEC_DOMAIN = %L6
      493    11419    6                            THEN DO;
      494    11420    6                                 VALUE_L6.SIZE = 2;
      495    11421    6                                 VALUE_L6.OPS(0) = VALUE.L6_WORD.UH;
      496    11422    6                                 VALUE_L6.OPS(1) = VALUE.L6_WORD.LH;
      497    11423    6                                 SIZE = 32;
      498    11424    6                               END;
      499    11425    5                         CASE( %REM#_RTN );
      500    11426    5                            IF NOT S_D.DEFINED#
      501    11427    5                            THEN CALL DDI$GET_PATCH_SPACE;
      502    11428    5                            IF S_D.GOT#
      503    11429    5                            THEN VALUE.L = S_D.RSPACE#;
      504    11430    5                            ELSE VALUE.L = 0;
      505    11431    5                            IF S_D.ONE_TO_TWO.EXEC_DOMAIN = %L6
      506    11432    6                            THEN DO;
PL6.E3A0      #001=DDA$DISP File=DDA$DISP.:E05TSI                                TUE 07/29/97 13:18 Page:15
      507    11433    6                                 VALUE_L6.SIZE = 2;
      508    11434    6                                 VALUE_L6.OPS(0) = VALUE.L6_WORD.UH;
      509    11435    6                                 VALUE_L6.OPS(1) = VALUE.L6_WORD.LH;
      510    11436    6                                 SIZE = 32;
      511    11437    6                               END;
      512    11438    5                         CASE( %SA_RTN, %PRIV_RTN, %HEAD_RTN );
      513    11439    5                            IF NOT S_D.RUM
      514    11440    6                            THEN DO;
      515    11441    6                                 S_D.ERROR = 202; /* E@RUMONLY */
      516    11442    6                                 ALTRETURN;
      517    11443    6                               END;
      518    11444    5                            IF ZITEM.SP.VS.ID = %SA_RTN
      519    11445    5                            THEN VALUE.L = S_D.RUM_HEAD$ -> B$HEAD.START;
      520    11446    5                            IF ZITEM.SP.VS.ID = %PRIV_RTN
      521    11447    5                            THEN VALUE.L = BITBIN(S_D.RUM_HEAD$ -> B$HEAD.PRIV);
      522    11448    5                            IF S_D.ONE_TO_TWO.EXEC_DOMAIN = %L6
      523    11449    6                            THEN DO;
      524    11450    6                                 VALUE_L6.SIZE = 2;
      525    11451    6                                 VALUE_L6.OPS(0) = VALUE.L6_WORD.UH;
      526    11452    6                                 VALUE_L6.OPS(1) = VALUE.L6_WORD.LH;
      527    11453    6                                 SIZE = 32;
      528    11454    6                               END;
      529    11455    5                         CASE( %FMASK_RTN );
      530    11456    5                            VALUE.L = S_D.FIND.MASK_F;
      531    11457    5                            IF S_D.ONE_TO_TWO.EXEC_DOMAIN = %L6
      532    11458    6                            THEN DO;
      533    11459    6                                 VALUE_L6.SIZE = 2;
      534    11460    6                                 VALUE_L6.OPS(0) = VALUE.L6_WORD.UH;
      535    11461    6                                 VALUE_L6.OPS(1) = VALUE.L6_WORD.LH;
      536    11462    6                                 SIZE = 32;
      537    11463    6                               END;
      538    11464    5                         CASE( %FRANGE_RTN );
      539    11465    5                            VALUE.L = S_D.FIND.NUM;
      540    11466    5                            IF S_D.ONE_TO_TWO.EXEC_DOMAIN = %L6
      541    11467    6                            THEN DO;
      542    11468    6                                 VALUE_L6.SIZE = 2;
      543    11469    6                                 VALUE_L6.OPS(0) = VALUE.L6_WORD.UH;
PL6.E3A0      #001=DDA$DISP File=DDA$DISP.:E05TSI                                TUE 07/29/97 13:18 Page:16
      544    11470    6                                 VALUE_L6.OPS(1) = VALUE.L6_WORD.LH;
      545    11471    6                                 SIZE = 32;
      546    11472    6                               END;
      547    11473    5                         CASE(%CI_RTN, %T_RTN, %S_RTN, %IV_RTN, %Z_RTN,
      548    11474    5                                 %ASV_RTN, %R_RTN, %M_RTN);
      549    11475    5                            IF S_D.ONE_TO_TWO.EXEC_DOMAIN ~= %L6
      550    11476    5                            THEN GOTO NOTL6;
      551    11477    5                            CALL DFK$EVAL_DISP(VALUE_L6, ADDRESS, SEG, DESC#,
      552    11478    5                              NOT_IS, SIZE, EXPR_OP_L6, '0'B) ALTRET(DERR);
      553    11479    5                         CASE( ELSE );
      554    11480    5                            S_D.ERROR = 503; /* E@NOTIMP */
      555    11481    5                            ALTRETURN;
      556    11482    5                         END;              /* DO CASE( ZITEM.SP.VS.ID ) */
      557    11483    4                    CASE( ELSE );
      558    11484    4                       S_D.ERROR = 502; /* E@DELBUG */
      559    11485    4                       CALL DDE$ERROR;
      560    11486    4                       ALTRETURN;
      561    11487    4                    END;                   /* DO CASE(ZITEM.ADDR_TYPE) */
      562    11488    3                  IF S_D.ONE_TO_TWO.EXEC_DOMAIN = %HOST
      563    11489    3                  THEN CALL DISPX ALTRET(DERR);
      564    11490    3                  ELSE CALL DISP_L6 ALTRET(DERR);
      565    11491                                                /*
      566    11492                                                RANG1_DTYP
      567    11493                                                */
      568    11494    3               CASE ( %RANG1_DTYP );
      569    11495    3                  IF ZITEM.FLAGS.ADDREXP
      570    11496    4                  THEN DO;
      571    11497    4                       S_D.ERROR = 228; /* E@EXPRNOALLOW */
      572    11498    4                       ALTRETURN;
      573    11499    4                     END;
      574    11500    3                  S_D.ARRAY.FIRST = '1'B;
      575    11501    3                  IF ZITEM.SUBSZ ~= 0
      576    11502    4                  THEN DO;
      577    11503    4                       PRE_I$ = ZITEM.TEXTSTART$;
      578    11504    4                       PRE_IL = POFFC (ZITEM.SUBSTART$, ZITEM.TEXTSTART$);
      579    11505    4                       POST_I$ = PINCRC (ZITEM.SUBSTART$, ZITEM.SUBSZ);
      580    11506    4                       POST_IL = ZITEM.TEXTSZ - PRE_IL - ZITEM.SUBSZ;
PL6.E3A0      #001=DDA$DISP File=DDA$DISP.:E05TSI                                TUE 07/29/97 13:18 Page:17
      581    11507    4                     END;
      582    11508    4                  DO UNTIL (S_D.ARRAY.CUR >= S_D.ARRAY.HIGH);
      583    11509    4                       S_D.DESC$ = DESC$;
      584    11510    4                       S_D.ARRAY.CUR = S_D.ARRAY.CUR + 1;
      585    11511    4                       IF S_D.ONE_TO_TWO.EXEC_DOMAIN = %HOST
      586    11512    4                       THEN CALL DDK$GETADDR(ITEM, SVALUE, SIZE, INDXX, POINTER,
      587    11513    4                              EXPR_VAL, EXPR_OP, ADDR_TYPE, ARRAY_FLAG ) ALTRET(DERR);
      588    11514    4                       ELSE CALL DFK$EVAL_DISP(VALUE_L6, ADDRESS, SEG, DESC#,
      589    11515    4                              NOT_IS, SIZE, EXPR_OP_L6, '0'B) ALTRET(DERR);
      590    11516    4                       IF ZITEM.SUBSZ ~= 0
      591    11517    5                       THEN DO;
      592    11518    5                            S_D.OUTPUT = PRE_I;
      593    11519    5                            S_D.D$ = PINCRC (ADDR(S_D.OUTPUT), PRE_IL);
      594    11520    5                          END;
      595    11521    5                       ELSE DO;
      596    11522    5                            NCHARS = ZITEM.TEXTSZ;
      597    11523    5                            S_D.OUTPUT = ZITEM.TEXTSTART$ -> TEXTR;
      598    11524    5                            SUBSTR (S_D.OUTPUT, NCHARS, 1) = '(';
      599    11525    5                            S_D.D$ = PINCRC (ADDR(S_D.OUTPUT), NCHARS+1);
      600    11526    5                          END;
      601    11527    4                       TEXT$ = S_D.D$;
      602    11528    4                       TEMP = S_D.ARRAY.CUR;
      603    11529    4                       IF TEMP < 0
      604    11530    5                       THEN DO;
      605    11531    5                            TEMP = -TEMP;
      606    11532    5                            TEXT$ -> CHAR1 = '-';
      607    11533    5                            CALL DDR$BUMPC_D$(1) ALTRET (DERR);
      608    11534    5                            TEXT$ = S_D.D$;
      609    11535    5                          END;
      610    11536    4                       CALL DDR$BINTXT(MYBUF$, TEMP, %UINT_FMT, NCHARS);
      611    11537    4                       CALL DDR$BUMPC_D$(NCHARS) ALTRET(DERR);
      612    11538    4                       TEXT$ -> TEXTR = MYBUF;
      613    11539    4                       TEXT$ = S_D.D$;
      614    11540    4                       IF ZITEM.SUBSZ ~= 0
      615    11541    5                       THEN DO;
      616    11542    5                            CALL DDR$BUMPC_D$(POST_IL) ALTRET(DERR);
      617    11543    5                            TEXT$ -> POST_I = POST_I;
PL6.E3A0      #001=DDA$DISP File=DDA$DISP.:E05TSI                                TUE 07/29/97 13:18 Page:18
      618    11544    5                          END;
      619    11545    5                       ELSE DO;
      620    11546    5                            TEXT$ -> CHAR1 = ')';
      621    11547    5                            CALL DDR$BUMPC_D$(1) ALTRET(DERR);
      622    11548    5                          END;
      623    11549    4                       TEXT$ = S_D.D$;
      624    11550    4                       CALL DDR$BUMPC_D$(3) ALTRET(DERR);
      625    11551    4                       TEXT$ -> CHAR3 = ' = ';
      626    11552    4                       TEXT$ = S_D.D$;
      627    11553    4                       IF S_D.ONE_TO_TWO.EXEC_DOMAIN = %HOST
      628    11554    4                       THEN CALL DISP ALTRET(DERR);
      629    11555    4                       ELSE CALL DISP_L6 ALTRET(DERR);
      630    11556    4                       IF ZITEM.NAMEFLAGS.STATUS_EXISTS AND S_D.STATUS
      631    11557    5                       THEN DO;
      632    11558    5                            SAVE_DESC$ = ZITEM$;
      633    11559    5                            ZITEM$ = NEXT$;
      634    11560    5                            S_D.D$ = ADDR(S_D.OUTPUT);
      635    11561    5                            S_D.DESCL$ = PINCRC(S_D.D$, LENGTHC(S_D.OUTPUT));
      636    11562    5                            S_D.DESC$ = NEXT$;
      637    11563    5                            SDD$ = PINCRW(NEXT$, NEXT$ -> ZITEM.SIZE - 3);
      638    11564    5                            CALL DFK$EVAL_DISP(VALUE_L6, ADDRESS, SEG, DESC#, NOT_IS,
      639    11565    5                              SIZE, EXPR_OP_L6, '0'B) ALTRET(DERR);
      640    11566    5                            NPOINTERS.TRUE = ZITEM.NPOINTER_TRUE;
      641    11567    5                            NPOINTERS.FALSE = ZITEM.NPOINTER_FALSE;
      642    11568    5                            CALL DDA$DISPFMT(%STATUS_FMT, DITEM.VALUE, VALUE_L6.OPS(0),
             11568                                     , , NPOINTERS) ALTRET(DERR);
      643    11569    5                            ZITEM$ = SAVE_DESC$;
      644    11570    5                          END;
      645    11571    4                     END;                  /* DO UNTIL ( ... */
      646    11572    3               CASE ( ELSE );              /* Not implemented */
      647    11573    3                  S_D.ERROR = 503;    /* E@NOTIMP */
      648    11574    3                  ALTRETURN;
      649    11575    3               END;                        /* DO CASE(DESC$ -> ZITEM.DTYP) */
      650    11576    2   NEXT:
      651    11577    2             S_D.D$ = NEXT$;
      652    11578    2           END;                            /* DO N=0 TO NUM */
      653    11579    1   DONE:
PL6.E3A0      #001=DDA$DISP File=DDA$DISP.:E05TSI                                TUE 07/29/97 13:18 Page:19
      654    11580    1        RETURN;
      655    11581    1   DERR:
      656    11582    1        ALTRETURN;
      657    11583    1   SEGERR:
      658    11584    1        S_D.ERROR = 60;            /* E@SEGIDERR */
      659    11585    1        ALTRETURN;
      660    11586    1   NOTHOST:
      661    11587    1        S_D.ERROR = 308;           /* E@SYMNOTFEP */
      662    11588    1        ALTRETURN;
      663    11589    1   NOTL6:
      664    11590    1        S_D.ERROR = 304;          /* SYMNOTHOST */
      665    11591    1        ALTRETURN;
      666    11592             %EJECT;
PL6.E3A0      #001=DDA$DISP File=DDA$DISP.:E05TSI                                TUE 07/29/97 13:18 Page:20
      667    11593        /*D*  NAME: DISP
      668    11594              PURPOSE: To get value and display it per format spec
      669    11595                                                     */
      670    11596    1   DISP: PROC ALTRET;
      671    11597                                                /*
      672    11598                                                CHAR_FMT
      673    11599                                                */
      674    11600    2        IF FMT = %CHAR_FMT
      675    11601    3        THEN DO;
      676    11602    3             IF SIZE <= 0
      677    11603    4             THEN DO;
      678    11604    4                  S_D.ERROR = 253; /* E@INVALID_SIZE */
      679    11605    4                  GOTO DERR;
      680    11606    4                END;
      681    11607    3             SIZED9 = SIZE / 9;
      682    11608    3             SIZE = SIZED9 * 9;            /* Truncate to character bound. */
      683    11609    3             IF SIZEC(S_D.OUTPUT) - POFFC(TEXT$, ADDR(S_D.OUTPUT)) < SIZED9 + 2
      684    11610    4             THEN DO;
      685    11611    4                  S_D.ERROR = 41;    /* E@NODISP */
      686    11612    4                  GOTO DERR;
      687    11613    4                END;
      688    11614    3             CALL DDR$BUMPC_D$(SIZED9 + 2) ALTRET(DERR);
      689    11615    3             TEXT$ -> CHAR1 = '''';
      690    11616    3             TEXT$ = PINCRC(TEXT$, 1);
      691    11617    3             CALL DDK$GETVAL(TEXT$, ITEM, SVALUE, SIZE, SIZE, INDXX,
      692    11618    3               POINTER, EXPR_VAL, EXPR_OP, ADDR_TYPE, ARRAY_FLAG, '0'B)
      693    11619    3               ALTRET(DERR);
      694    11620    3             TEXT$ = PINCRC(TEXT$, SIZED9);
      695    11621    3             TEXT$ -> CHAR1 = '''';
      696    11622    3             GOTO PRINT;
      697    11623    3           END;
      698    11624                                                /**/
      699    11625    2        IF ZITEM.PUP.BITS.PUB = 1 AND FMT~=%PUP_FMT THEN SIZE=(SIZE/2)*9+MOD(SIZE,2)*5;
      700    11626    2        RSIZE = SIZE;
      701    11627    2        IF EXPR_OP > 0
      702    11628    3        THEN DO;
      703    11629    3             SIZE = 36;                    /* Force to word */
PL6.E3A0      #001=DDA$DISP File=DDA$DISP.:E05TSI                                TUE 07/29/97 13:18 Page:21
      704    11630    3             RSIZE = 36;
      705    11631    3           END;
      706    11632    2        EIS = 0;
      707    11633    2        IF FMT = %PUP_FMT
      708    11634    3        THEN DO;
      709    11635    3             RSIZE = SIZE;
      710    11636    3             IF ZITEM.PUP.BITS.PUB = 1     /* Packed */
      711    11637    4             THEN DO;
      712    11638    4                  EIS = MVN( ZITEM.PUP.BITS.SIGNPOS );
      713    11639    4                END;
      714    11640    4             ELSE DO;
      715    11641    4                  IF RSIZE > (19 * 9)
      716    11642    5                  THEN DO;
      717    11643    5                       RSIZE = 19 * 9;
      718    11644    5                       S_D.ERROR = 252; /* E@UNPACKDEC_TRUNCATED */
      719    11645    5                       CALL_ERROR = '1'B;
      720    11646    5                     END;
      721    11647    4                END;
      722    11648    3           END;
      723    11649    3        ELSE DO;
      724    11650    3             IF RSIZE > 144
      725    11651    4             THEN DO;
      726    11652    4                  RSIZE = 144;
      727    11653    4                  S_D.ERROR = 240; /* E@ITEM_TRUNCATED */
      728    11654    4                  CALL_ERROR = '1'B;
      729    11655    4                END;
      730    11656    3           END;
      731    11657    2        CALL DDK$GETVAL(ADDR(VALUE), ITEM, SVALUE, SIZE, RSIZE,
      732    11658    2          INDXX, POINTER, EXPR_VAL, EXPR_OP, ADDR_TYPE, ARRAY_FLAG,
      733    11659    2          '0'B, EIS) ALTRET(DERR);
      734    11660    2   DISPX: ENTRY ALTRET;
      735    11661    2        CALL DDA$DISPFMT(FMT, RSIZE, VALUE, ZITEM.PUP ) ALTRET(DERR);
      736    11662    2   PRINT:
      737    11663    2        CALL DDQ$WRITE(ADDR(S_D.OUTPUT), POFFC(S_D.D$, ADDR(S_D.OUTPUT)));
      738    11664    2        IF CALL_ERROR
      739    11665    2        THEN CALL DDE$ERROR;
      740    11666    2        RETURN;
PL6.E3A0      #001=DDA$DISP File=DDA$DISP.:E05TSI                                TUE 07/29/97 13:18 Page:22
      741    11667    2   DERR:
      742    11668    2        ALTRETURN;
      743    11669    2   END DISP;
      744    11670        %EJECT;
PL6.E3A0      #001=DDA$DISP File=DDA$DISP.:E05TSI                                TUE 07/29/97 13:18 Page:23
      745    11671    1   DISP_L6: PROC ALTRET;
      746    11672        /* Local Auto */
      747    11673    2   DCL I UBIN;
      748    11674    2   DCL CONT BIT(1) ALIGNED;
      749    11675
      750    11676    2        CONT = GD$MSG.DISPMEM_D.CONTINUE;
      751    11677    2        IF CONT
      752    11678    3        THEN DO;
      753    11679    3             CALL DFQ$READ_FD(S_D.CURRENT_FPRG_CONTEXT$, '0'B) ALTRET(ERR);
      754    11680    3             IF GD$MSG.FNC ~= %GD#RSPDISPCHAR
      755    11681    4             THEN DO;
      756    11682    4                  IF S_D.CURRENT_FPRG_CONTEXT$ -> FPRG$CONTEXT.XDELTA AND
      757    11683    4                    GD$MSG.FNC = %GD#RSPBADMSG
      758    11684    5                  THEN DO;
      759    11685    5                       S_D.ERROR = 330; /* E@BADMSG */
      760    11686    5                       GOTO DERR;
      761    11687    5                     END;
      762    11688    4                  IF GD$MSG.FNC = %GD#RSPBADADR
      763    11689    5                  THEN DO;
      764    11690    5                       S_D.ERROR = 83; /* E@BADADDR */
      765    11691    5                       GOTO DERR;
      766    11692    5                     END;
      767    11693    4                  IF GD$MSG.FNC = %GD#RSPNAK
      768    11694    5                  THEN DO;
      769    11695    5                       IF S_D.CURRENT_FPRG_CONTEXT$ -> FPRG$CONTEXT.XDELTA
      770    11696    6                       THEN DO;
      771    11697    6                            TEMP1 = BITBIN(GD$MSG.ERROR_D.ERRCODE);
      772    11698    6                            TEMP2B.B1 = TEMP1B.B1;
      773    11699    6                            TEMP2B.B2 = TEMP1B.B2;
      774    11700    6                            TEMP2B.B3 = TEMP1B.B3;
      775    11701    6                            TEMP2B.B4 = TEMP1B.B4;
      776    11702    6                            S_D.JDE = TEMP2;
      777    11703    6                          END;
      778    11704    5                       ELSE S_D.JDE = BITBIN(GD$MSG_HOST.ERROR_D.ERRCODE);
      779    11705    5                       CALL DUE$GERRMSG;
      780    11706    5                       RETURN;
      781    11707    5                     END;
PL6.E3A0      #001=DDA$DISP File=DDA$DISP.:E05TSI                                TUE 07/29/97 13:18 Page:24
      782    11708    4                  CALL M$SCREECH (SNAP_MESSAGE) ALTRET(NEVER);
      783    11709    4   NEVER:
      784    11710    4                  S_D.ERROR = 524; /* E@BADMESSAGE */
      785    11711    4                  CALL DDE$ERROR;
      786    11712    4                  S_D.ERROR = 502;    /* E@DELBUG */
      787    11713    4                  CALL DDE$ERROR;
      788    11714    4                  GOTO DERR;
      789    11715    4                END;
      790    11716    3             SIZE = GD$MSG.CHAR# * 8;
      791    11717    3             IF SIZE/8 > 255
      792    11718    4             THEN DO;
      793    11719    4                  S_D.ERROR = 41;    /* E@NODISP */
      794    11720    4                  CALL DDE$ERROR;
      795    11721    4                  GOTO DERR;
      796    11722    4                END;
      797    11723    3           END;
      798    11724    2        IF FMT = %CHAR_FMT
      799    11725    3        THEN DO;
      800    11726    3             IF SIZE < 0
      801    11727    4             THEN DO;
      802    11728    4                  S_D.ERROR = 253; /* E@INVALID_SIZE */
      803    11729    4                  GOTO DERR;
      804    11730    4                END;
      805    11731    3             SIZED8 = SIZE / 8;
      806    11732    3             IF SIZED8 > 312
      807    11733    4             THEN DO;
      808    11734    4                  S_D.ERROR = 332; /* E@ITEM_TRUNC_312 */
      809    11735    4                  CALL_ERROR = '1'B;
      810    11736    4                  SIZED8 = 312;
      811    11737    4                END;
      812    11738    3             SIZE = SIZED8 * 8;
      813    11739    3             CALL DDR$BUMPC_D$ (SIZED8 + 2) ALTRET(DERR);
      814    11740    3             TEXT$ -> CHAR1 = '''';
      815    11741    3             TEXT$ = PINCRC(TEXT$, 1);
      816    11742    3             IF NOT CONT
      817    11743    4             THEN DO;
      818    11744    5                  DO I = 0 TO (SIZED8-1)/2;
PL6.E3A0      #001=DDA$DISP File=DDA$DISP.:E05TSI                                TUE 07/29/97 13:18 Page:25
      819    11745    5                       TEXT$ -> CHAR1 = BINASC(VALUE_L6.OPSB.UH(I));
      820    11746    5                       TEXT$ = PINCRC(TEXT$, 1);
      821    11747    5                       TEXT$ -> CHAR1 = BINASC(VALUE_L6.OPSB.LH(I));
      822    11748    5                       TEXT$ = PINCRC(TEXT$, 1);
      823    11749    5                     END;
      824    11750    4                  IF MOD(SIZED8, 2) ~= 0
      825    11751    4                  THEN TEXT$ = PINCRC(TEXT$, -1);
      826    11752    4                END;
      827    11753    4             ELSE DO;
      828    11754    4                  TEMP$ = ADDR(GD$MSG.DISPCHAR);
      829    11755    5                  DO I = 0 TO (SIZED8-1);
      830    11756    5                       TEXT$ -> CHAR1 = BINASC(TEMP$ -> BVALUE_L6);
      831    11757    5                       TEXT$ = PINCRC(TEXT$, 1);
      832    11758    5                       TEMP$ = PINCRB(TEMP$, 8);
      833    11759    5                     END;
      834    11760    4                END;
      835    11761    3             TEXT$ -> CHAR1 = '''';
      836    11762    3             GOTO PRINT;
      837    11763    3           END;
      838    11764    2        IF CONT
      839    11765    3        THEN DO;
      840    11766    3             IF SIZE > 256
      841    11767    3             THEN SIZE = 256;
      842    11768    3             TEMP$ = ADDR(GD$MSG.DISPCHAR);
      843    11769    4             DO I = 0 TO (SIZE + 15)/16 - 1;
      844    11770    4                  VALUE_L6.OPSB.UH(I) = TEMP$ -> BVALUE_L6;
      845    11771    4                  TEMP$ = PINCRB(TEMP$, 8);
      846    11772    4                  VALUE_L6.OPSB.LH(I) = TEMP$ -> BVALUE_L6;
      847    11773    4                  TEMP$ = PINCRB(TEMP$, 8);
      848    11774    4                END;
      849    11775    3             VALUE_L6.SIZE = I + 1;
      850    11776    3           END;
      851    11777    2        IF SIZE > 256
      852    11778    3        THEN DO;
      853    11779    3             S_D.ERROR = 324; /* E@ITEM_TRUNC_256 */
      854    11780    3             CALL_ERROR = '1'B;
      855    11781    3             SIZE = 256;
PL6.E3A0      #001=DDA$DISP File=DDA$DISP.:E05TSI                                TUE 07/29/97 13:18 Page:26
      856    11782    3           END;
      857    11783    2        IF EXPR_OP_L6
      858    11784    3        THEN DO;
      859    11785    3             IF FMT = %PTR_FMT
      860    11786    3             THEN SIZE = 32;
      861    11787    3             ELSE SIZE = 16;
      862    11788    3           END;
      863    11789    2        RSIZE = SIZE;
      864    11790    2        CALL DDA$DISPFMT(FMT, RSIZE, VALUE_L6.OPS(0), ZITEM.PUP) ALTRET(DERR);
      865    11791    2   PRINT:
      866    11792    2        CALL DDQ$WRITE(ADDR(S_D.OUTPUT), POFFC(S_D.D$, ADDR(S_D.OUTPUT)));
      867    11793    2        IF CALL_ERROR
      868    11794    2        THEN CALL DDE$ERROR;
      869    11795    2        RETURN;
      870    11796    2   DERR:
      871    11797    2        ALTRETURN;
      872    11798    2   ERR: ;
      873    11799    2        CALL DUE$ERRMSG;
      874    11800    2        RETURN;
      875    11801    2   END DISP_L6;
      876    11802    1   END DDA$DISP;

PL6.E3A0      #001=DDA$DISP File=DDA$DISP.:E05TSI                                TUE 07/29/97 13:18 Page:27
--  Include file information  --

   DD_DEBUG_C.:E05TOU  is referenced.
   B$OBJECT_C.:E05TOU  is referenced.
   DD$DA.:E05TOU  cannot be made into a system file and is referenced.
   NI$TABLES.:E05TOU  is referenced.
   IR_DATA_M.:E05TOU  is referenced.
   CP_6.:E05TOU  cannot be made into a system file and is referenced.
   DD_SD_M.:E05TOU  is referenced.
   XUH_MACRO_C.:E05TOU  is referenced.
   GD_EQUS_E.:E05TOU  is referenced.
   GD$MSG_M.:E05TOU  is referenced.
   DU_SCODE_C.:E05TOU  is referenced.
   DD_ERR_C.:E05TOU  is referenced.
   B$SS.:E05TOU  cannot be made into a system file and is referenced.
   DD_SRTN_C.:E05TOU  is referenced.
   DD_ACODE_C.:E05TOU  is referenced.
   DD_ICODE_C.:E05TOU  is referenced.
   DD$DITEM.:E05TOU  cannot be made into a system file and is referenced.
   DD_SUBS_C.:E05TOU  is referenced.
   DD$BASED.:E05TOU  is referenced.
   B$JIT_C.:E05TOU  was found in the system file and is never referenced.
   CP_6_C.:E05TOU  was found in the system file and is referenced.
      No diagnostics issued in procedure DDA$DISP.

   Procedure DDA$DISP requires 1880 words for executable code.
   Procedure DDA$DISP requires 112 words of local(AUTO) storage.

    No errors detected in file DDA$DISP.:E05TSI    .

PL6.E3A0      #001=DDA$DISP File=DDA$DISP.:E05TSI                                TUE 07/29/97 13:18 Page:28

 Object Unit name= DDA$DISP                                   File name= DDA$DISP.:E05TOU
 UTS= JUL 29 '97 13:18:41.52 TUE                              Compiler= PL-6/E31         Sev=      00
 SharedLib= :SHARED_SYSTEM                                    Alt SharedLib=


    ****  Control sections  ****

 Sect   Type Bound  Init  Size OctSiz  Section name(segment info)
    0  RoData even  UTS      4      4  DDA$DISP
    1   DCB   even  none     0      0  M$UC
    2   Proc  even  none  1880   3530  DDA$DISP
    3  RoData even  none    17     21  DDA$DISP

    ****  Entry defs  ****

                              Check   Calling
                             calling  sequence
  Sect OctLoc Primary Altret sequence   type   Parms  Name
     2      0   yes    yes     yes      Std        0  DDA$DISP
PL6.E3A0      #001=DDA$DISP File=DDA$DISP.:E05TSI                                TUE 07/29/97 13:18 Page:29

  ****  Entry refs  ****

         Check        Calling
        calling       sequence
Altret sequence SRef   type   Args  Name
 yes     yes           Std       5 DDR$POSIT
 yes     yes           Std       1 DDR$BUMPC_D$
 yes     yes           Std       6 DDK$EVAL
 yes     yes           Std       5 DDK$GETMVAL
 yes     yes           Std       3 DDA$GETDESC
 yes     yes           Std       8 DFK$EVAL_DISP
 yes     yes           Std       9 DDK$GETADDR
         yes           Std       0 DDE$ERROR
 yes     yes           Std       5 DUL$GETMVAL
         yes           Std       1 DDK$GET_EAQ
 yes     yes           Std       6 DFK$GETMVAL
         yes           Std       0 DDI$GET_PATCH_SPACE
         yes           Std       4 DDR$BINTXT
 yes     yes           Std       6 DDA$DISPFMT
         yes           Std       1 DDK$GET_EA
 yes     yes           Std      13 DDK$GETVAL
         yes           Std       2 DDQ$WRITE
 yes     yes           Std       2 DFQ$READ_FD
         yes           Std       0 DUE$GERRMSG
         yes           Std       0 DUE$ERRMSG
                       nStd      0 X66_AUTO_0
                       nStd      0 X66_AALT
                       Std       0 B_CONSPOOL_D
                       nStd      0 X66_ARET
PL6.E3A0      #001=DDA$DISP File=DDA$DISP.:E05TSI                                TUE 07/29/97 13:18 Page:30

  ****  Data refs  ****

  Flags:  r = read only, s = secondary
Flgs Name                             Flgs Name                             Flgs Name
     USS1$                                 ULS$                                  UIS$
     USDS$                                 UPS$                                  UAS$
     USE$                                  WSR                                   MIS$
     D_XDELTA                         r    S_D$                             r    S_D_HOST_MESSAGE$
r    S_D_L6_MESSAGE$                       M$UC                             r    SNAP_MESSAGE
     DD_ANLZSEG$                           B_VECTNIL

  ****  Segment refs  ****

  Flags:  r = read only, s = secondary
Flgs Name                             Flgs Name                             Flgs Name
     ISSID
PL6.E3A0      #001=DDA$DISP File=DDA$DISP.:E05TSI                                TUE 07/29/97 13:18 Page:31


        1        1        /*M*  DDA$DISP - DISPLAY command do routine */
        2        2        /*T***********************************************************/
        3        3        /*T*                                                         */
        4        4        /*T* Copyright (c) Bull HN Information Systems Inc., 1997    */
        5        5        /*T*                                                         */
        6        6        /*T***********************************************************/
        7        7        /*X* DMR,PLM=5,IND=5,CSU=3,EXM=0,ECU=3,MCL=4,DCI=5,CRT=5 */
        8        8        %SET LISTSUB='1'B;
        9        9        DDA$DISP: PROC ALTRET;

      9  2 000000   000000 700200 xent  DDA$DISP     TSX0  ! X66_AUTO_0
         2 000001   000160 000000                    ZERO    112,0

       10       10          /* Locals */
       11       11    1   DCL NUM UBIN;
       12       12    1   DCL TEMP SBIN;
       13       13    1   DCL N UBIN;
       14       14    1   DCL VITEM$ PTR;
       15       15    1   DCL FMT UBIN;
       16       16    1   DCL DESC$ PTR;
       17       17    1   DCL NEXT$ PTR;
       18       18    1   DCL NEXT1$ PTR;
       19       19    1   DCL ITEM$ PTR;
       20       20    1   DCL TEXT$ PTR;
       21       21    1   DCL NCHARS UBIN;
       22       22    1   DCL TEXTR CHAR(NCHARS) BASED;
       23       23    1   DCL VAL SBIN;
       24       24    1   DCL SAVE_VALUE SBIN;
       25       25    1   DCL SIZED9 UBIN;
       26       26    1   DCL SIZED8 UBIN;
       27       27    1   DCL PFLAG BIT(1);
       28       28    1   DCL TEMP$ PTR;
       29       29    1   DCL TEMP1 REDEF TEMP$ UBIN(36) ALIGNED;
       30       30    1   DCL 1 TEMP1B REDEF TEMP$ ALIGNED,
       31       31    1         2 * UBIN(4) UNAL,
       32       32    1         2 B1 UBIN(8) UNAL,
PL6.E3A0      #001=DDA$DISP File=DDA$DISP.:E05TSI                                TUE 07/29/97 13:18 Page:32
       33       33    1         2 B2 UBIN(8) UNAL,
       34       34    1         2 B3 UBIN(8) UNAL,
       35       35    1         2 B4 UBIN(8) UNAL;
       36       36    1   DCL TEMP2 UBIN(36) ALIGNED;
       37       37    1   DCL 1 TEMP2B REDEF TEMP2 ALIGNED,
       38       38    1         2 * BIT(1) UNAL,
       39       39    1         2 B1 UBIN(8) UNAL,
       40       40    1         2 * BIT(1) UNAL,
       41       41    1         2 B2 UBIN(8) UNAL,
       42       42    1         2 * BIT(1) UNAL,
       43       43    1         2 B3 UBIN(8) UNAL,
       44       44    1         2 * BIT(1) UNAL,
       45       45    1         2 B4 UBIN(8) UNAL;
       46       46    1   DCL DOFF SBIN;
       47       47    1   DCL IDX$ PTR;
       48       48    1   DCL ADDRESS UBIN;
       49       49    1   DCL SEG UBIN;
       50       50    1   DCL DESC# UBIN;
       51       51    1   DCL NOT_IS BIT(1);
       52       52    1   DCL CALL_ERROR BIT(1);
       53       53    1   DCL CHAR1 CHAR(1) BASED;
       54       54    1   DCL CHAR2 CHAR(2) BASED;
       55       55    1   DCL CHAR3 CHAR(3) BASED;
       56       56    1   DCL CHAR4 CHAR(4) BASED;
       57       57    1   DCL CHAR12 CHAR(12) BASED;
       58       58    1   DCL CHAR13 CHAR(13) BASED;
       59       59    1   DCL UBIN36 UBIN BASED;
       60       60    1   DCL SVALUE SBIN;
       61       61    1   DCL SIZE SBIN;
       62       62    1   DCL RSIZE UBIN;
       63       63    1   DCL INDXX SBIN;
       64       64    1   DCL POINTER UBIN;
       65       65    1   DCL EXPR_VAL SBIN;
       66       66    1   DCL EXPR_OP UBIN;
       67       67    1   DCL EXPR_OP_L6 BIT(1) ALIGNED;
       68       68    1   DCL ADDR_TYPE UBIN;
       69       69    1   DCL ARRAY_FLAG BIT(1);
PL6.E3A0      #001=DDA$DISP File=DDA$DISP.:E05TSI                                TUE 07/29/97 13:18 Page:33
       70       70    1   DCL SFLAG BIT(1);
       71       71    1   DCL 1 VALUE DALIGNED,
       72       72    1         2 L SBIN,
       73       73    1         2 E REDEF L UBIN(8),
       74       74    1         2 L6_WORD REDEF L,
       75       75    1           3 * BIT(4),
       76       76    1           3 UH UBIN(16) UNAL,
       77       77    1           3 LH UBIN(16) UNAL,
       78       78    1         2 R SBIN,
       79       79    1         2 * CHAR(56);
       80       80    1   DCL 1 VALUE_L6,
       81       81    1         2 SIZE UBIN,
       82       82    1         2 OPS(0:15) UBIN,
       83       83    1         2 OPSB(0:15) REDEF OPS,
       84       84    1           3 * BIT(20) UNAL,
       85       85    1           3 UH UBIN(8) UNAL,
       86       86    1           3 LH UBIN(8) UNAL;
       87       87    1   DCL BVALUE_L6 UBIN(8) BASED UNAL;
       88       88    1   DCL SAVE_DESC$ PTR;
       89       89    1   DCL MYBUF CHAR(20);
       90       90    1   DCL MYBUF$ PTR;
       91       91    1   DCL DO$ PTR;
       92       92    1   DCL EIS UBIN;
       93       93    1   DCL 1 TEXTC BASED,
       94       94    1         2 SZ UBIN(9) UNAL,
       95       95    1         2 TXT CHAR(NCHARS);
       96       96    1   DCL MVN(0:2) UBIN CONSTANT INIT(4,5,6);
       97       97          /* Misc */
       98       98    1   DCL PRE_I$ PTR;
       99       99    1   DCL PRE_IL UBIN;
      100      100    1   DCL PRE_I CHAR(PRE_IL) BASED (PRE_I$);
      101      101    1   DCL POST_I$ PTR;
      102      102    1   DCL POST_IL UBIN;
      103      103    1   DCL POST_I CHAR(POST_IL) BASED (POST_I$);
      104      104    1   DCL CHAR8 CHAR(8) BASED;
      105      105    1   DCL BIT72 BIT(72) BASED ALIGNED;
      106      106    1   DCL USS1$ PTR SYMREF;
PL6.E3A0      #001=DDA$DISP File=DDA$DISP.:E05TSI                                TUE 07/29/97 13:18 Page:34
      107      107    1   DCL ULS$ PTR SYMREF;
      108      108    1   DCL UIS$ PTR SYMREF;
      109      109    1   DCL USDS$ PTR SYMREF;
      110      110    1   DCL UPS$ PTR SYMREF;
      111      111    1   DCL UAS$ PTR SYMREF;
      112      112    1   DCL USE$ PTR SYMREF;
      113      113    1   DCL WSR(0:7) UBIN(9) UNAL SYMREF;
      114      114    1   DCL MIS$ PTR SYMREF;
      115      115    1   DCL D_XDELTA BIT(1) SYMREF;
      116      116    1   DCL 1 NPOINTERS ALIGNED,
      117      117    1         2 TRUE SBIN HALF UNAL,
      118      118    1         2 FALSE SBIN HALF UNAL;
      119      119             %INCLUDE DD$BASED;
      120     1422             %FPRG$CONTEXT;
      121     1485             %DISPLAY(STCLASS="BASED(DO$)");
      122     1496             %U$SE;
      123     1504             %HOST_REG$VALUES(NAME=REG$VALUES);
      124     1517             %INCLUDE DD_SUBS_C;
      125     1788             %INCLUDE DD$DITEM;
       12+    1891             %LIST;
       13+    1892    1        DCL SDD$ PTR;
       14+    1893    1        DCL ZITEM$ PTR;
       15+    1894    1        DCL SDD_L6$ PTR;
       16+    1895    1        DCL ZITEM_L6$ PTR;
      126     2469             %ZITEM;
      127     2541             %DITEM;
      128     2621             %DITEM (NAME=ITEM, STCLASS=AUTO);
      129     2701             %MITEM;
      130     2749        %INCLUDE B$SS;
      131     2928             %INCLUDE DD_ERR_C;
      132     3325        %INCLUDE DU_SCODE_C;
      133     3338        %INCLUDE GD$MSG_M;
      134     3502        %GD$MSG(FPTN=GD$MSG,STCLASS="BASED(S_D_L6_MESSAGE$)",L6=YES,L6PTR="UBIN(32) UNAL");
      135     3658        %GD$MSG(FPTN=GD$MSG_HOST,STCLASS="BASED(S_D_HOST_MESSAGE$)",L6=NO);
      136     3814        %INCLUDE GD_EQUS_E;
      137     3975             %INCLUDE XUH_MACRO_C;
      138     4059             %INCLUDE DD_SD_M;
PL6.E3A0      #001=DDA$DISP File=DDA$DISP.:E05TSI                                TUE 07/29/97 13:18 Page:35
      139     5395             %S_D;
      140     6713        %S_D_PTRS;
      141     6750             %INCLUDE CP_6;
      142     6831             %FPT_DRTN(FPTN=FPT$DRTN,STCLASS=BASED);
      143     6855        %FPT_SCREECH(FPTN=SNAP_MESSAGE,STCLASS=SYMREF READONLY);
      144     6869        %VLP_SCODE(FPTN=SC_MESSAGE, STCLASS=SYMREF READONLY);
      145     6930        %INCLUDE IR_DATA_M;
      146     7094        %INCLUDE NI$TABLES;
      147     7310        %INCLUDE DD$DA;
      148     7391        %RV_BUFF (NAME=RV_BUFF, STCLASS=BASED);
      149     7427        %INCLUDE B$OBJECT_C;
      150    10857        %INCLUDE DD_DEBUG_C;
      151    10878        %B$HEAD;
      152    11078          /* External routines */
      153    11079    1   DCL DDK$SEXTEND ENTRY(2);
      154    11080    1   DCL DDK$GETVAL ENTRY(13) ALTRET;
      155    11081    1   DCL DDK$GETMVAL ENTRY(5) ALTRET;
      156    11082    1   DCL DDK$GETSPEC ENTRY(2) ALTRET;
      157    11083    1   DCL DDA$GETDESC ENTRY(3) ALTRET;
      158    11084    1   DCL DDA$GET$O ENTRY(2) ALTRET;
      159    11085    1   DCL DDB$BREAK ENTRY ALTRET;
      160    11086    1   DCL DDI$GET_PATCH_SPACE ENTRY;
      161    11087    1   DCL DDK$GETADDR ENTRY(9) ALTRET;
      162    11088    1   DCL DDQ$WRITE ENTRY(2);
      163    11089    1   DCL DDR$BINTXT ENTRY(4);
      164    11090    1   DCL DDR$BLDNAME ENTRY(1) ALTRET;
      165    11091    1   DCL DDR$BUMPC_D$ ENTRY(1) ALTRET;
      166    11092    1   DCL DDR$POSIT ENTRY(5) ALTRET;
      167    11093    1   DCL DDE$ERROR ENTRY;
      168    11094    1   DCL DDA$DISPFMT ENTRY(6) ALTRET;
      169    11095    1   DCL DDK$EVAL ENTRY(6) ALTRET;
      170    11096    1   DCL DDK$GET_EA ENTRY(1);
      171    11097    1   DCL DDK$GET_EAQ ENTRY(1);
      172    11098    1   DCL DFK$EVAL_DISP ENTRY(8) ALTRET;
      173    11099    1   DCL DFK$GETMVAL ENTRY(6) ALTRET;
      174    11100    1   DCL DFQ$READ_FD ENTRY(2) ALTRET;
      175    11101    1   DCL DFQ$WRITE_FD ENTRY(1) ALTRET;
PL6.E3A0      #001=DDA$DISP File=DDA$DISP.:E05TSI                                TUE 07/29/97 13:18 Page:36
      176    11102    1   DCL DUE$ERRMSG ENTRY;
      177    11103    1   DCL DUE$GERRMSG ENTRY;
      178    11104    1   DCL DUL$GETMVAL ENTRY(5) ALTRET;
      179    11105                                                /**/
      180    11106    1        CALL_ERROR = '0'B;

  11106  2 000002   200033 450100                    STZ     CALL_ERROR,,AUTO

      181    11107    1        DO$ = S_D.DO$;

  11107  2 000003   000000 470400 xsym               LDP0    S_D$
         2 000004   000031 236100                    LDQ     25,,PR0
         2 000005   200120 756100                    STQ     DO$,,AUTO

      182    11108    1        MYBUF$ = ADDR(MYBUF);

  11108  2 000006   200112 631500                    EPPR1   MYBUF,,AUTO
         2 000007   200117 451500                    STP1    MYBUF$,,AUTO

      183    11109    1        REMEMBER DONE IN S_D.SCREECH_IC;

  11109  2 000010   002424 635000 2                  EAA     DONE
         2 000011   005250 452500                    STP2    2728,,PR0
         2 000012   005251 755100                    STA     2729,,PR0

      184    11110    1        NUM = DISPLAY.NUM - 1;

  11110  2 000013   200120 473500                    LDP3    DO$,,AUTO
         2 000014   300001 236100                    LDQ     1,,PR3
         2 000015   000011 772000                    QRL     9
         2 000016   000777 376007                    ANQ     511,DL
         2 000017   000001 136007                    SBLQ    1,DL
         2 000020   200003 756100                    STQ     NUM,,AUTO

      185    11111    2        DO N = 0 TO NUM;

  11111  2 000021   200005 450100                    STZ     N,,AUTO
PL6.E3A0      #001=DDA$DISP File=DDA$DISP.:E05TSI                                TUE 07/29/97 13:18 Page:37
         2 000022   002421 710000 2                  TRA     s:11578+3

      186    11112    2             CALL_ERROR = '0'B;

  11112  2 000023   200033 450100                    STZ     CALL_ERROR,,AUTO

      187    11113    2             DESC$ = S_D.D$;

  11113  2 000024   000000 470400 xsym               LDP0    S_D$
         2 000025   000044 236100                    LDQ     36,,PR0
         2 000026   200010 756100                    STQ     DESC$,,AUTO

      188    11114    2             ZITEM$ = S_D.D$;

  11114  2 000027   200130 756100                    STQ     ZITEM$,,AUTO

      189    11115    2             NEXT$ = PINCRW(DESC$, ZITEM.SIZE);

  11115  2 000030   200130 471500                    LDP1    ZITEM$,,AUTO
         2 000031   100000 720100                    LXL0    0,,PR1
         2 000032   000000 636010                    EAQ     0,X0
         2 000033   200010 036100                    ADLQ    DESC$,,AUTO
         2 000034   200011 756100                    STQ     NEXT$,,AUTO

      190    11116    2             IF D_XDELTA

  11116  2 000035   000000 234000 xsym               SZN     D_XDELTA
         2 000036   000050 605000 2                  TPL     s:11123
         2 000037   100001 236100                    LDQ     1,,PR1
         2 000040   100000 316003                    CANQ    32768,DU
         2 000041   000050 600000 2                  TZE     s:11123
         2 000042   000000 473400 xsym               LDP3    USE$
         2 000043   300000 234100                    SZN     0,,PR3
         2 000044   000050 604000 2                  TMI     s:11123

      191    11117    2               AND ZITEM.FLAGS.MDSE.S
      192    11118    2               AND NOT U$SE.CUR
PL6.E3A0      #001=DDA$DISP File=DDA$DISP.:E05TSI                                TUE 07/29/97 13:18 Page:38
      193    11119    3             THEN DO;

      194    11120    3                  S_D.ERROR = 38; /* E@USE_CONFLICT */

  11120  2 000045   000046 235007                    LDA     38,DL
         2 000046   000013 755100                    STA     11,,PR0

      195    11121    3                  ALTRETURN;

  11121  2 000047   000000 702200 xent               TSX2  ! X66_AALT

      196    11122    3                END;
      197    11123    2             FMT = ZITEM.FMT_SPEC;

  11123  2 000050   100006 236100                    LDQ     6,,PR1
         2 000051   000011 772000                    QRL     9
         2 000052   000777 376007                    ANQ     511,DL
         2 000053   200007 756100                    STQ     FMT,,AUTO

      198    11124    2             S_D.D$ = ADDR(S_D.OUTPUT);

  11124  2 000054   000000 236000 xsym               LDQ     S_D$
         2 000055   005335 036003                    ADLQ    2781,DU
         2 000056   000044 756100                    STQ     36,,PR0

      199    11125    2             S_D.DESCL$ = PINCRC(S_D.D$, LENGTHC(S_D.OUTPUT));

  11125  2 000057   001000 036003                    ADLQ    512,DU
         2 000060   000042 756100                    STQ     34,,PR0

      200    11126    2             IF S_D.RUM AND NOT S_D.DEBUGA (%DB@DOCMD)

  11126  2 000061   004755 234100                    SZN     2541,,PR0
         2 000062   000110 605000 2                  TPL     s:11139
         2 000063   000053 236100                    LDQ     43,,PR0
         2 000064   004000 316007                    CANQ    2048,DL
         2 000065   000110 601000 2                  TNZ     s:11139
PL6.E3A0      #001=DDA$DISP File=DDA$DISP.:E05TSI                                TUE 07/29/97 13:18 Page:39

      201    11127    3             THEN DO;

      202    11128    3                  IF ZITEM.DTYP ~= %SPEC_DTYP OR

  11128  2 000066   100001 236100                    LDQ     1,,PR1
         2 000067   000777 376003                    ANQ     511,DU
         2 000070   000003 116003                    CMPQ    3,DU
         2 000071   000105 601000 2                  TNZ     s:11135
         2 000072   000110 601000 2                  TNZ     s:11139
         2 000073   100007 236100                    LDQ     7,,PR1
         2 000074   777000 376003                    ANQ     -512,DU
         2 000075   046000 116003                    CMPQ    19456,DU
         2 000076   000110 600000 2                  TZE     s:11139
         2 000077   047000 116003                    CMPQ    19968,DU
         2 000100   000110 600000 2                  TZE     s:11139
         2 000101   050000 116003                    CMPQ    20480,DU
         2 000102   000110 600000 2                  TZE     s:11139
         2 000103   051000 116003                    CMPQ    20992,DU
         2 000104   000110 600000 2                  TZE     s:11139

      203    11129    3                    (ZITEM.DTYP = %SPEC_DTYP AND
      204    11130    3                    (ZITEM.SP.VS.ID ~= %REM@_RTN AND
      205    11131    3                    ZITEM.SP.VS.ID ~= %REM#_RTN AND
      206    11132    3                    ZITEM.SP.VS.ID ~= %SA_RTN AND
      207    11133    3                    ZITEM.SP.VS.ID ~= %PRIV_RTN))
      208    11134    4                  THEN DO;

      209    11135    4                       S_D.ERROR = 212; /* E@BADCMD_RUM */

  11135  2 000105   000324 235007                    LDA     212,DL
         2 000106   000013 755100                    STA     11,,PR0

      210    11136    4                       ALTRETURN;

  11136  2 000107   000000 702200 xent               TSX2  ! X66_AALT

PL6.E3A0      #001=DDA$DISP File=DDA$DISP.:E05TSI                                TUE 07/29/97 13:18 Page:40
      211    11137    4                     END;
      212    11138    3                END;
      213    11139    2             IF ZITEM.NAMEFLAGS.POSITION

  11139  2 000110   100003 234100                    SZN     3,,PR1
         2 000111   000146 605000 2                  TPL     s:11146

      214    11140    3             THEN DO;

      215    11141    3                  CALL DDR$POSIT(ZITEM.VALUE, S_D.D$, POFFC(S_D.DESCL$, S_D.D$),

  11141  2 000112   000044 236100                    LDQ     36,,PR0
         2 000113   000020 772000                    QRL     16
         2 000114   200142 756100                    STQ     CONT+2,,AUTO
         2 000115   000042 236100                    LDQ     34,,PR0
         2 000116   000020 772000                    QRL     16
         2 000117   200142 136100                    SBLQ    CONT+2,,AUTO
         2 000120   200143 756100                    STQ     CONT+3,,AUTO
         2 000121   200015 633500                    EPPR3   NCHARS,,AUTO
         2 000122   200147 453500                    STP3    CONT+7,,AUTO
         2 000123   200143 634500                    EPPR4   CONT+3,,AUTO
         2 000124   200146 454500                    STP4    CONT+6,,AUTO
         2 000125   000000 236000 xsym               LDQ     S_D$
         2 000126   000044 036003                    ADLQ    36,DU
         2 000127   200145 756100                    STQ     CONT+5,,AUTO
         2 000130   200130 236100                    LDQ     ZITEM$,,AUTO
         2 000131   000007 036003                    ADLQ    7,DU
         2 000132   200144 756100                    STQ     CONT+4,,AUTO
         2 000133   200144 630500                    EPPR0   CONT+4,,AUTO
         2 000134   000022 631400 xsym               EPPR1   B_VECTNIL+18
         2 000135   000000 701000 xent               TSX1    DDR$POSIT
         2 000136   002425 702000 2                  TSX2    DERR

      216    11142    3                    NCHARS) ALTRET(DERR);
      217    11143    3                  CALL DDR$BUMPC_D$(NCHARS) ALTRET(DERR);

  11143  2 000137   200015 630500                    EPPR0   NCHARS,,AUTO
PL6.E3A0      #001=DDA$DISP File=DDA$DISP.:E05TSI                                TUE 07/29/97 13:18 Page:41
         2 000140   200142 450500                    STP0    CONT+2,,AUTO
         2 000141   200142 630500                    EPPR0   CONT+2,,AUTO
         2 000142   000017 631400 xsym               EPPR1   B_VECTNIL+15
         2 000143   000000 701000 xent               TSX1    DDR$BUMPC_D$
         2 000144   002425 702000 2                  TSX2    DERR

      218    11144    3                END;

  11144  2 000145   000170 710000 2                  TRA     s:11151

      219    11145    3             ELSE DO;

      220    11146    3                  TEXT$ = S_D.D$;

  11146  2 000146   000044 236100                    LDQ     36,,PR0
         2 000147   200014 756100                    STQ     TEXT$,,AUTO

      221    11147    3                  NCHARS = ZITEM.TEXTSZ;

  11147  2 000150   100003 236100                    LDQ     3,,PR1
         2 000151   777777 376007                    ANQ     -1,DL
         2 000152   200015 756100                    STQ     NCHARS,,AUTO

      222    11148    3                  CALL DDR$BUMPC_D$(NCHARS) ALTRET(DERR);

  11148  2 000153   200015 633500                    EPPR3   NCHARS,,AUTO
         2 000154   200142 453500                    STP3    CONT+2,,AUTO
         2 000155   200142 630500                    EPPR0   CONT+2,,AUTO
         2 000156   000017 631400 xsym               EPPR1   B_VECTNIL+15
         2 000157   000000 701000 xent               TSX1    DDR$BUMPC_D$
         2 000160   002425 702000 2                  TSX2    DERR

      223    11149    3                  TEXT$ -> TEXTR = ZITEM.TEXTSTART$ -> TEXTR;

  11149  2 000161   200130 470500                    LDP0    ZITEM$,,AUTO
         2 000162   000002 471500                    LDP1    2,,PR0
         2 000163   200015 720100                    LXL0    NCHARS,,AUTO
PL6.E3A0      #001=DDA$DISP File=DDA$DISP.:E05TSI                                TUE 07/29/97 13:18 Page:42
         2 000164   200014 473500                    LDP3    TEXT$,,AUTO
         2 000165   040140 100540                    MLR     fill='040'O
         2 000166   100000 000010                    ADSC9   0,,PR1                   cn=0,n=*X0
         2 000167   300000 000010                    ADSC9   0,,PR3                   cn=0,n=*X0

      224    11150    3                END;

      225    11151    3             DO CASE(ZITEM.DTYP);

  11151  2 000170   200130 470500                    LDP0    ZITEM$,,AUTO
         2 000171   000001 220100                    LDX0    1,,PR0
         2 000172   000777 360003                    ANX0    511,DU
         2 000173   000004 100003                    CMPX0   4,DU
         2 000174   000176 602010 2                  TNC     s:11151+6,X0
         2 000175   002407 710000 2                  TRA     s:11573
         2 000176   000202 710000 2                  TRA     s:11157
         2 000177   001766 710000 2                  TRA     s:11495
         2 000200   002407 710000 2                  TRA     s:11573
         2 000201   000406 710000 2                  TRA     s:11192

      226    11152                                                /*
      227    11153                                                SIM_DTYP
      228    11154                                                */
      229    11155    3               CASE( %SIM_DTYP );

      230    11156                                                /**/
      231    11157    3                  TEXT$ = S_D.D$;

  11157  2 000202   000000 471400 xsym               LDP1    S_D$
         2 000203   100044 236100                    LDQ     36,,PR1
         2 000204   200014 756100                    STQ     TEXT$,,AUTO

      232    11158    3                  CALL DDR$BUMPC_D$(3) ALTRET(DERR);

  11158  2 000205   000000 630400 3                  EPPR0   0
         2 000206   000017 631400 xsym               EPPR1   B_VECTNIL+15
         2 000207   000000 701000 xent               TSX1    DDR$BUMPC_D$
PL6.E3A0      #001=DDA$DISP File=DDA$DISP.:E05TSI                                TUE 07/29/97 13:18 Page:43
         2 000210   002425 702000 2                  TSX2    DERR

      233    11159    3                  TEXT$ -> CHAR3 = ' = ';

  11159  2 000211   200014 470500                    LDP0    TEXT$,,AUTO
         2 000212   040100 100400                    MLR     fill='040'O
         2 000213   000003 000003 0                  ADSC9   MVN+3                    cn=0,n=3
         2 000214   000000 000003                    ADSC9   0,,PR0                   cn=0,n=3

      234    11160    3                  TEXT$ = S_D.D$;

  11160  2 000215   000000 470400 xsym               LDP0    S_D$
         2 000216   000044 236100                    LDQ     36,,PR0
         2 000217   200014 756100                    STQ     TEXT$,,AUTO

      235    11161    3                  S_D.DESC$ = DESC$;

  11161  2 000220   200010 236100                    LDQ     DESC$,,AUTO
         2 000221   000041 756100                    STQ     33,,PR0

      236    11162    3                  IF S_D.ONE_TO_TWO.EXEC_DOMAIN = %HOST

  11162  2 000222   006714 235100                    LDA     3532,,PR0
         2 000223   000001 115007                    CMPA    1,DL
         2 000224   000256 601000 2                  TNZ     s:11169

      237    11163    4                  THEN DO;

      238    11164    4                       CALL DDK$GETADDR(ITEM, SVALUE, SIZE, INDXX, POINTER,

  11164  2 000225   200045 631500                    EPPR1   ARRAY_FLAG,,AUTO
         2 000226   200152 451500                    STP1    CONT+10,,AUTO
         2 000227   200044 633500                    EPPR3   ADDR_TYPE,,AUTO
         2 000230   200151 453500                    STP3    CONT+9,,AUTO
         2 000231   200042 634500                    EPPR4   EXPR_OP,,AUTO
         2 000232   200150 454500                    STP4    CONT+8,,AUTO
         2 000233   200041 635500                    EPPR5   EXPR_VAL,,AUTO
PL6.E3A0      #001=DDA$DISP File=DDA$DISP.:E05TSI                                TUE 07/29/97 13:18 Page:44
         2 000234   200147 455500                    STP5    CONT+7,,AUTO
         2 000235   200040 636500                    EPPR6   POINTER,,AUTO
         2 000236   200146 456500                    STP6    CONT+6,,AUTO
         2 000237   200037 637500                    EPPR7   INDXX,,AUTO
         2 000240   200145 457500                    STP7    CONT+5,,AUTO
         2 000241   200035 630500                    EPPR0   SIZE,,AUTO
         2 000242   200144 450500                    STP0    CONT+4,,AUTO
         2 000243   200034 630500                    EPPR0   SVALUE,,AUTO
         2 000244   200143 450500                    STP0    CONT+3,,AUTO
         2 000245   200133 630500                    EPPR0   ITEM,,AUTO
         2 000246   200142 450500                    STP0    CONT+2,,AUTO
         2 000247   200142 630500                    EPPR0   CONT+2,,AUTO
         2 000250   000001 631400 3                  EPPR1   1
         2 000251   000000 701000 xent               TSX1    DDK$GETADDR
         2 000252   002425 702000 2                  TSX2    DERR

      239    11165    4                         EXPR_VAL, EXPR_OP, ADDR_TYPE, ARRAY_FLAG ) ALTRET(DERR);
      240    11166    4                       CALL DISP ALTRET(DERR);
             11166                                /* Go do actual formatting and display */

  11166  2 000253   002440 701000 2                  TSX1    DISP
         2 000254   002425 702000 2                  TSX2    DERR

      241    11167    4                     END;

  11167  2 000255   000304 710000 2                  TRA     s:11173

      242    11168    4                  ELSE DO;

      243    11169    4                       CALL DFK$EVAL_DISP(VALUE_L6, ADDRESS, SEG, DESC#,

  11169  2 000256   000002 236000 3                  LDQ     2
         2 000257   200151 756100                    STQ     CONT+9,,AUTO
         2 000260   200043 631500                    EPPR1   EXPR_OP_L6,,AUTO
         2 000261   200150 451500                    STP1    CONT+8,,AUTO
         2 000262   200035 633500                    EPPR3   SIZE,,AUTO
         2 000263   200147 453500                    STP3    CONT+7,,AUTO
PL6.E3A0      #001=DDA$DISP File=DDA$DISP.:E05TSI                                TUE 07/29/97 13:18 Page:45
         2 000264   200032 634500                    EPPR4   NOT_IS,,AUTO
         2 000265   200146 454500                    STP4    CONT+6,,AUTO
         2 000266   200031 635500                    EPPR5   DESC#,,AUTO
         2 000267   200145 455500                    STP5    CONT+5,,AUTO
         2 000270   200030 636500                    EPPR6   SEG,,AUTO
         2 000271   200144 456500                    STP6    CONT+4,,AUTO
         2 000272   200027 637500                    EPPR7   ADDRESS,,AUTO
         2 000273   200143 457500                    STP7    CONT+3,,AUTO
         2 000274   200070 630500                    EPPR0   VALUE_L6,,AUTO
         2 000275   200142 450500                    STP0    CONT+2,,AUTO
         2 000276   200142 630500                    EPPR0   CONT+2,,AUTO
         2 000277   000026 631400 xsym               EPPR1   B_VECTNIL+22
         2 000300   000000 701000 xent               TSX1    DFK$EVAL_DISP
         2 000301   002425 702000 2                  TSX2    DERR

      244    11170    4                         NOT_IS, SIZE, EXPR_OP_L6, '0'B) ALTRET(DERR);
      245    11171    4                       CALL DISP_L6 ALTRET(DERR);

  11171  2 000302   002777 701000 2                  TSX1    DISP_L6
         2 000303   002425 702000 2                  TSX2    DERR

      246    11172    4                     END;

      247    11173    3                  IF ZITEM.NAMEFLAGS.STATUS_EXISTS AND S_D.STATUS

  11173  2 000304   200130 470500                    LDP0    ZITEM$,,AUTO
         2 000305   000003 236100                    LDQ     3,,PR0
         2 000306   200000 316003                    CANQ    65536,DU
         2 000307   002413 600000 2                  TZE     NEXT
         2 000310   000000 471400 xsym               LDP1    S_D$
         2 000311   106746 234100                    SZN     3558,,PR1
         2 000312   002413 605000 2                  TPL     NEXT

      248    11174    4                  THEN DO;

      249    11175    4                       SAVE_DESC$ = ZITEM$;

PL6.E3A0      #001=DDA$DISP File=DDA$DISP.:E05TSI                                TUE 07/29/97 13:18 Page:46
  11175  2 000313   200130 236100                    LDQ     ZITEM$,,AUTO
         2 000314   200111 756100                    STQ     SAVE_DESC$,,AUTO

      250    11176    4                       ZITEM$ = NEXT$;

  11176  2 000315   200011 236100                    LDQ     NEXT$,,AUTO
         2 000316   200130 756100                    STQ     ZITEM$,,AUTO

      251    11177    4                       S_D.D$ = ADDR(S_D.OUTPUT);

  11177  2 000317   000000 236000 xsym               LDQ     S_D$
         2 000320   005335 036003                    ADLQ    2781,DU
         2 000321   100044 756100                    STQ     36,,PR1

      252    11178    4                       S_D.DESCL$ = PINCRC(S_D.D$, LENGTHC(S_D.OUTPUT));

  11178  2 000322   001000 036003                    ADLQ    512,DU
         2 000323   100042 756100                    STQ     34,,PR1

      253    11179    4                       S_D.DESC$ = NEXT$;

  11179  2 000324   200011 236100                    LDQ     NEXT$,,AUTO
         2 000325   100041 756100                    STQ     33,,PR1

      254    11180    4                       SDD$ = PINCRW(NEXT$, NEXT$ -> ZITEM.SIZE - 3);

  11180  2 000326   200011 470500                    LDP0    NEXT$,,AUTO
         2 000327   000000 720100                    LXL0    0,,PR0
         2 000330   777775 636010                    EAQ     -3,X0
         2 000331   200011 036100                    ADLQ    NEXT$,,AUTO
         2 000332   200127 756100                    STQ     SDD$,,AUTO

      255    11181    4                       CALL DFK$EVAL_DISP(VALUE_L6, ADDRESS, SEG, DESC#, NOT_IS,

  11181  2 000333   000002 236000 3                  LDQ     2
         2 000334   200151 756100                    STQ     CONT+9,,AUTO
         2 000335   200043 633500                    EPPR3   EXPR_OP_L6,,AUTO
PL6.E3A0      #001=DDA$DISP File=DDA$DISP.:E05TSI                                TUE 07/29/97 13:18 Page:47
         2 000336   200150 453500                    STP3    CONT+8,,AUTO
         2 000337   200035 634500                    EPPR4   SIZE,,AUTO
         2 000340   200147 454500                    STP4    CONT+7,,AUTO
         2 000341   200032 635500                    EPPR5   NOT_IS,,AUTO
         2 000342   200146 455500                    STP5    CONT+6,,AUTO
         2 000343   200031 636500                    EPPR6   DESC#,,AUTO
         2 000344   200145 456500                    STP6    CONT+5,,AUTO
         2 000345   200030 637500                    EPPR7   SEG,,AUTO
         2 000346   200144 457500                    STP7    CONT+4,,AUTO
         2 000347   200027 630500                    EPPR0   ADDRESS,,AUTO
         2 000350   200143 450500                    STP0    CONT+3,,AUTO
         2 000351   200070 630500                    EPPR0   VALUE_L6,,AUTO
         2 000352   200142 450500                    STP0    CONT+2,,AUTO
         2 000353   200142 630500                    EPPR0   CONT+2,,AUTO
         2 000354   000026 631400 xsym               EPPR1   B_VECTNIL+22
         2 000355   000000 701000 xent               TSX1    DFK$EVAL_DISP
         2 000356   002425 702000 2                  TSX2    DERR

      256    11182    4                         SIZE, EXPR_OP_L6, '0'B) ALTRET(DERR);
      257    11183    4                       NPOINTERS.TRUE = ZITEM.NPOINTER_TRUE;

  11183  2 000357   200130 470500                    LDP0    ZITEM$,,AUTO
         2 000360   000014 220100                    LDX0    12,,PR0
         2 000361   200126 740100                    STX0    NPOINTERS,,AUTO

      258    11184    4                       NPOINTERS.FALSE = ZITEM.NPOINTER_FALSE;

  11184  2 000362   000014 721100                    LXL1    12,,PR0
         2 000363   200126 441100                    SXL1    NPOINTERS,,AUTO

      259    11185    4                       CALL DDA$DISPFMT(%STATUS_FMT, DITEM.VALUE, VALUE_L6.OPS(0), , ,
             11185                                NPOINTERS) ALTRET(DERR);

  11185  2 000364   200126 631500                    EPPR1   NPOINTERS,,AUTO
         2 000365   200147 451500                    STP1    CONT+7,,AUTO
         2 000366   000001 236000 xsym               LDQ     B_VECTNIL+1
         2 000367   200146 756100                    STQ     CONT+6,,AUTO
PL6.E3A0      #001=DDA$DISP File=DDA$DISP.:E05TSI                                TUE 07/29/97 13:18 Page:48
         2 000370   200145 756100                    STQ     CONT+5,,AUTO
         2 000371   200071 633500                    EPPR3   VALUE_L6+1,,AUTO
         2 000372   200144 453500                    STP3    CONT+4,,AUTO
         2 000373   200127 236100                    LDQ     SDD$,,AUTO
         2 000374   000001 036003                    ADLQ    1,DU
         2 000375   000004 235000 3                  LDA     4
         2 000376   200142 757100                    STAQ    CONT+2,,AUTO
         2 000377   200142 630500                    EPPR0   CONT+2,,AUTO
         2 000400   000024 631400 xsym               EPPR1   B_VECTNIL+20
         2 000401   000000 701000 xent               TSX1    DDA$DISPFMT
         2 000402   002425 702000 2                  TSX2    DERR

      260    11186    4                       ZITEM$ = SAVE_DESC$;

  11186  2 000403   200111 236100                    LDQ     SAVE_DESC$,,AUTO
         2 000404   200130 756100                    STQ     ZITEM$,,AUTO

      261    11187    4                     END;

  11187  2 000405   002413 710000 2                  TRA     NEXT

      262    11188                                                /*
      263    11189                                                SPEC_DTYP
      264    11190                                                */
      265    11191    3               CASE( %SPEC_DTYP );

      266    11192    3                  TEXT$ = S_D.D$;

  11192  2 000406   000000 471400 xsym               LDP1    S_D$
         2 000407   100044 236100                    LDQ     36,,PR1
         2 000410   200014 756100                    STQ     TEXT$,,AUTO

      267    11193    3                  CALL DDR$BUMPC_D$(3) ALTRET(DERR);

  11193  2 000411   000000 630400 3                  EPPR0   0
         2 000412   000017 631400 xsym               EPPR1   B_VECTNIL+15
         2 000413   000000 701000 xent               TSX1    DDR$BUMPC_D$
PL6.E3A0      #001=DDA$DISP File=DDA$DISP.:E05TSI                                TUE 07/29/97 13:18 Page:49
         2 000414   002425 702000 2                  TSX2    DERR

      268    11194    3                  TEXT$ -> CHAR3 = ' = ';

  11194  2 000415   200014 470500                    LDP0    TEXT$,,AUTO
         2 000416   040100 100400                    MLR     fill='040'O
         2 000417   000003 000003 0                  ADSC9   MVN+3                    cn=0,n=3
         2 000420   000000 000003                    ADSC9   0,,PR0                   cn=0,n=3

      269    11195    3                  TEXT$ = S_D.D$;

  11195  2 000421   000000 470400 xsym               LDP0    S_D$
         2 000422   000044 236100                    LDQ     36,,PR0
         2 000423   200014 756100                    STQ     TEXT$,,AUTO

      270    11196    4                  DO CASE(ZITEM.ADDR_TYPE);

  11196  2 000424   200130 471500                    LDP1    ZITEM$,,AUTO
         2 000425   100006 236100                    LDQ     6,,PR1
         2 000426   000022 772000                    QRL     18
         2 000427   000777 376007                    ANQ     511,DL
         2 000430   000100 136007                    SBLQ    64,DL
         2 000431   000002 116007                    CMPQ    2,DL
         2 000432   000434 602006 2                  TNC     s:11196+8,QL
         2 000433   001746 710000 2                  TRA     s:11484
         2 000434   000436 710000 2                  TRA     s:11199
         2 000435   000754 710000 2                  TRA     s:11294

      271    11197                                                /**/
      272    11198    4                    CASE( %DESC_ACODE );

      273    11199    4                       IF S_D.ONE_TO_TWO.EXEC_DOMAIN = %HOST

  11199  2 000436   006714 235100                    LDA     3532,,PR0
         2 000437   000001 115007                    CMPA    1,DL
         2 000440   000727 601000 2                  TNZ     s:11290

PL6.E3A0      #001=DDA$DISP File=DDA$DISP.:E05TSI                                TUE 07/29/97 13:18 Page:50
      274    11200    5                       THEN DO;

      275    11201    5                            PFLAG = '0'B;  /* Set to '1'B if ptr, not desc */

  11201  2 000441   200022 450100                    STZ     PFLAG,,AUTO

      276    11202    6                            DO CASE(ZITEM.SP.VD.TYPE);

  11202  2 000442   100007 236100                    LDQ     7,,PR1
         2 000443   000036 772000                    QRL     30
         2 000444   000012 116007                    CMPQ    10,DL
         2 000445   000447 602006 2                  TNC     s:11202+5,QL
         2 000446   000636 710000 2                  TRA     s:11263
         2 000447   000461 710000 2                  TRA     s:11205
         2 000450   000515 710000 2                  TRA     s:11219
         2 000451   000563 710000 2                  TRA     s:11241
         2 000452   000606 710000 2                  TRA     s:11251
         2 000453   000636 710000 2                  TRA     s:11263
         2 000454   000636 710000 2                  TRA     s:11263
         2 000455   000636 710000 2                  TRA     s:11263
         2 000456   000636 710000 2                  TRA     s:11263
         2 000457   000635 710000 2                  TRA     s:11261
         2 000460   000635 710000 2                  TRA     s:11261

      277    11203                                                /**/
      278    11204    6                              CASE( 0 );   /* $SSR, $SDn */

      279    11205    7                                 DO CASE(ZITEM.SP.VD.ID);

  11205  2 000461   100007 236100                    LDQ     7,,PR1
         2 000462   000025 772000                    QRL     21
         2 000463   000777 376007                    ANQ     511,DL
         2 000464   000004 116007                    CMPQ    4,DL
         2 000465   000467 602006 2                  TNC     s:11205+6,QL
         2 000466   000507 710000 2                  TRA     s:11213
         2 000467   000473 710000 2                  TRA     s:11207
         2 000470   000507 710000 2                  TRA     s:11213
PL6.E3A0      #001=DDA$DISP File=DDA$DISP.:E05TSI                                TUE 07/29/97 13:18 Page:51
         2 000471   000507 710000 2                  TRA     s:11213
         2 000472   000500 710000 2                  TRA     s:11210

      280    11206    7                                   CASE( 0 ); /* $SSR */

      281    11207    7                                      TEMP$ = USS1$;

  11207  2 000473   000000 236000 xsym               LDQ     USS1$
         2 000474   200023 756100                    STQ     TEMP$,,AUTO

      282    11208    7                                      DOFF = -1;

  11208  2 000475   000001 335007                    LCA     1,DL
         2 000476   200025 755100                    STA     DOFF,,AUTO
         2 000477   000644 710000 2                  TRA     s:11267

      283    11209    7                                   CASE( 3 ); /* $SDn */

      284    11210    7                                      TEMP$ = USDS$;

  11210  2 000500   000000 236000 xsym               LDQ     USDS$
         2 000501   200023 756100                    STQ     TEMP$,,AUTO

      285    11211    7                                      DOFF = ZITEM.SP.VD.DISP;

  11211  2 000502   100007 236100                    LDQ     7,,PR1
         2 000503   000014 772000                    QRL     12
         2 000504   000777 376007                    ANQ     511,DL
         2 000505   200025 756100                    STQ     DOFF,,AUTO
         2 000506   000644 710000 2                  TRA     s:11267

      286    11212    7                                   CASE( ELSE );

      287    11213    7                                      S_D.ERROR = 502; /* E@DELBUG */

  11213  2 000507   000766 235007                    LDA     502,DL
         2 000510   000013 755100                    STA     11,,PR0
PL6.E3A0      #001=DDA$DISP File=DDA$DISP.:E05TSI                                TUE 07/29/97 13:18 Page:52

      288    11214    7                                      CALL DDE$ERROR;

  11214  2 000511   000002 631400 xsym               EPPR1   B_VECTNIL+2
         2 000512   000000 701000 xent               TSX1    DDE$ERROR
         2 000513   000000 011000                    NOP     0

      289    11215    7                                      RETURN;

  11215  2 000514   000000 702200 xent               TSX2  ! X66_ARET

      290    11216    7                                   END;    /* DO CASE(DITEM_VAL.ID) */

      291    11217                                                /**/
      292    11218    6                              CASE( 1 );   /* $PSR, $ASR, $ISR, $LSR */

      293    11219    7                                 DO CASE(ZITEM.SP.VD.ID);

  11219  2 000515   100007 236100                    LDQ     7,,PR1
         2 000516   000025 772000                    QRL     21
         2 000517   000777 376007                    ANQ     511,DL
         2 000520   000004 116007                    CMPQ    4,DL
         2 000521   000523 602006 2                  TNC     s:11219+6,QL
         2 000522   000644 710000 2                  TRA     s:11267
         2 000523   000527 710000 2                  TRA     s:11221
         2 000524   000541 710000 2                  TRA     s:11227
         2 000525   000534 710000 2                  TRA     s:11224
         2 000526   000556 710000 2                  TRA     s:11237

      294    11220    7                                   CASE( 0 ); /* $PSR */

      295    11221    7                                      TEMP$ = USS1$;

  11221  2 000527   000000 236000 xsym               LDQ     USS1$
         2 000530   200023 756100                    STQ     TEMP$,,AUTO

      296    11222    7                                      DOFF = 14;
PL6.E3A0      #001=DDA$DISP File=DDA$DISP.:E05TSI                                TUE 07/29/97 13:18 Page:53

  11222  2 000531   000016 235007                    LDA     14,DL
         2 000532   200025 755100                    STA     DOFF,,AUTO
         2 000533   000644 710000 2                  TRA     s:11267

      297    11223    7                                   CASE( 2 ); /* $ASR */

      298    11224    7                                      TEMP$ = USS1$;

  11224  2 000534   000000 236000 xsym               LDQ     USS1$
         2 000535   200023 756100                    STQ     TEMP$,,AUTO

      299    11225    7                                      DOFF = 10;

  11225  2 000536   000012 235007                    LDA     10,DL
         2 000537   200025 755100                    STA     DOFF,,AUTO
         2 000540   000644 710000 2                  TRA     s:11267

      300    11226    7                                   CASE( 1 ); /* $ISR */

      301    11227    7                                      IF U$SE.CUR

  11227  2 000541   000000 473400 xsym               LDP3    USE$
         2 000542   300000 234100                    SZN     0,,PR3
         2 000543   000551 605000 2                  TPL     s:11233

      302    11228    8                                      THEN DO;

      303    11229    8                                           TEMP$ = USS1$;

  11229  2 000544   000000 236000 xsym               LDQ     USS1$
         2 000545   200023 756100                    STQ     TEMP$,,AUTO

      304    11230    8                                           DOFF = 8;

  11230  2 000546   000010 235007                    LDA     8,DL
         2 000547   200025 755100                    STA     DOFF,,AUTO
PL6.E3A0      #001=DDA$DISP File=DDA$DISP.:E05TSI                                TUE 07/29/97 13:18 Page:54

      305    11231    8                                         END;

  11231  2 000550   000644 710000 2                  TRA     s:11267

      306    11232    8                                      ELSE DO;

      307    11233    8                                           TEMP$ = UIS$;

  11233  2 000551   000000 236000 xsym               LDQ     UIS$
         2 000552   200023 756100                    STQ     TEMP$,,AUTO

      308    11234    8                                           DOFF = -1;

  11234  2 000553   000001 335007                    LCA     1,DL
         2 000554   200025 755100                    STA     DOFF,,AUTO

      309    11235    8                                         END;

  11235  2 000555   000644 710000 2                  TRA     s:11267

      310    11236    7                                   CASE( 3 ); /* $LSR */

      311    11237    7                                      TEMP$ = USS1$;

  11237  2 000556   000000 236000 xsym               LDQ     USS1$
         2 000557   200023 756100                    STQ     TEMP$,,AUTO

      312    11238    7                                      DOFF = 12;

  11238  2 000560   000014 235007                    LDA     12,DL
         2 000561   200025 755100                    STA     DOFF,,AUTO

      313    11239    7                                   END;    /* DO CASE(DITEM_VAL.ID) */

  11239  2 000562   000644 710000 2                  TRA     s:11267

PL6.E3A0      #001=DDA$DISP File=DDA$DISP.:E05TSI                                TUE 07/29/97 13:18 Page:55
      314    11240    6                              CASE ( 2 );  /* $DRn, $PRn, $AUTO */

      315    11241    6                                 IF ZITEM.SP.VD.ID = 0 /* $DRn */

  11241  2 000563   100007 236100                    LDQ     7,,PR1
         2 000564   007770 316003                    CANQ    4088,DU
         2 000565   000575 601000 2                  TNZ     s:11247

      316    11242    7                                 THEN DO;

      317    11243    7                                      TEMP$ = USS1$;

  11243  2 000566   000000 236000 xsym               LDQ     USS1$
         2 000567   200023 756100                    STQ     TEMP$,,AUTO

      318    11244    7                                      DOFF = ZITEM.SP.VD.DISP;

  11244  2 000570   100007 236100                    LDQ     7,,PR1
         2 000571   000014 772000                    QRL     12
         2 000572   000777 376007                    ANQ     511,DL
         2 000573   200025 756100                    STQ     DOFF,,AUTO

      319    11245    7                                    END;

  11245  2 000574   000644 710000 2                  TRA     s:11267

      320    11246    7                                 ELSE DO;

      321    11247    7                                      PFLAG = '1'B;

  11247  2 000575   400000 236003                    LDQ     -131072,DU
         2 000576   200022 756100                    STQ     PFLAG,,AUTO

      322    11248    7                                      VALUE.L = PINCRW(S_D.USS$, ZITEM.SP.VD.ID) ->
             11248                                               UBIN36;

  11248  2 000577   100007 236100                    LDQ     7,,PR1
PL6.E3A0      #001=DDA$DISP File=DDA$DISP.:E05TSI                                TUE 07/29/97 13:18 Page:56
         2 000600   000025 772000                    QRL     21
         2 000601   000777 376007                    ANQ     511,DL
         2 000602   000005 473500                    LDP3    5,,PR0
         2 000603   300000 235106                    LDA     0,QL,PR3
         2 000604   200050 755100                    STA     VALUE,,AUTO

      323    11249    7                                    END;

  11249  2 000605   000644 710000 2                  TRA     s:11267

      324    11250    6                              CASE( 3 );   /* $PSn, $ASn, $LSn, $DSn */

      325    11251    6                                 DOFF = ZITEM.SP.VD.DISP;

  11251  2 000606   100007 236100                    LDQ     7,,PR1
         2 000607   000014 772000                    QRL     12
         2 000610   000777 376007                    ANQ     511,DL
         2 000611   200025 756100                    STQ     DOFF,,AUTO

      326    11252    7                                 DO CASE(ZITEM.SP.VD.ID);

  11252  2 000612   100007 236100                    LDQ     7,,PR1
         2 000613   000025 772000                    QRL     21
         2 000614   000777 376007                    ANQ     511,DL
         2 000615   000004 116007                    CMPQ    4,DL
         2 000616   000620 602006 2                  TNC     s:11252+6,QL
         2 000617   000644 710000 2                  TRA     s:11267
         2 000620   000624 710000 2                  TRA     s:11254
         2 000621   000634 710000 2                  TRA     s:11259
         2 000622   000627 710000 2                  TRA     s:11256
         2 000623   000632 710000 2                  TRA     s:11258

      327    11253    7                                   CASE( 0 ); /* $PSn */

      328    11254    7                                      TEMP$ = UPS$;

  11254  2 000624   000000 236000 xsym               LDQ     UPS$
PL6.E3A0      #001=DDA$DISP File=DDA$DISP.:E05TSI                                TUE 07/29/97 13:18 Page:57
         2 000625   200023 756100                    STQ     TEMP$,,AUTO
         2 000626   000644 710000 2                  TRA     s:11267

      329    11255    7                                   CASE( 2 ); /* $ASn */

      330    11256    7                                      TEMP$ = UAS$;

  11256  2 000627   000000 236000 xsym               LDQ     UAS$
         2 000630   200023 756100                    STQ     TEMP$,,AUTO
         2 000631   000644 710000 2                  TRA     s:11267

      331    11257    7                                   CASE( 3 ); /* $LSn, $DSn */

      332    11258    7                                      TEMP$ = ULS$;

  11258  2 000632   000000 236000 xsym               LDQ     ULS$
         2 000633   200023 756100                    STQ     TEMP$,,AUTO

      333    11259    7                                   END;    /* DO CASE(ZITEM.SP.VD.ID) */

  11259  2 000634   000644 710000 2                  TRA     s:11267

      334    11260    6                              CASE( 8 , 9 ); /* FEP symbols */

      335    11261    6                                 GOTO NOTL6;

  11261  2 000635   002435 710000 2                  TRA     NOTL6

      336    11262    6                              CASE ( ELSE );

      337    11263    6                                 S_D.ERROR = 502; /* E@DELBUG */

  11263  2 000636   000766 235007                    LDA     502,DL
         2 000637   000013 755100                    STA     11,,PR0

      338    11264    6                                 CALL DDE$ERROR;

PL6.E3A0      #001=DDA$DISP File=DDA$DISP.:E05TSI                                TUE 07/29/97 13:18 Page:58
  11264  2 000640   000002 631400 xsym               EPPR1   B_VECTNIL+2
         2 000641   000000 701000 xent               TSX1    DDE$ERROR
         2 000642   000000 011000                    NOP     0

      339    11265    6                                 RETURN;

  11265  2 000643   000000 702200 xent               TSX2  ! X66_ARET

      340    11266    6                              END;         /* DO CASE(DITEM_VAL.TYPE) */

      341    11267    5                            IF PFLAG

  11267  2 000644   200022 234100                    SZN     PFLAG,,AUTO
         2 000645   000651 605000 2                  TPL     s:11272

      342    11268    6                            THEN DO;

      343    11269    6                                 RSIZE = 36;

  11269  2 000646   000044 235007                    LDA     36,DL
         2 000647   200036 755100                    STA     RSIZE,,AUTO

      344    11270    6                               END;

  11270  2 000650   001754 710000 2                  TRA     s:11488

      345    11271    6                            ELSE DO;

      346    11272    6                                 RSIZE = 72;

  11272  2 000651   000110 235007                    LDA     72,DL
         2 000652   200036 755100                    STA     RSIZE,,AUTO

      347    11273    6                                 IF S_D.ANLZ_FILE

  11273  2 000653   005052 234100                    SZN     2602,,PR0
         2 000654   000714 605000 2                  TPL     s:11286
PL6.E3A0      #001=DDA$DISP File=DDA$DISP.:E05TSI                                TUE 07/29/97 13:18 Page:59

      348    11274    7                                 THEN DO;

      349    11275    7                                      IF TEMP$ = USS1$

  11275  2 000655   200023 236100                    LDQ     TEMP$,,AUTO
         2 000656   000000 116000 xsym               CMPQ    USS1$
         2 000657   000677 601000 2                  TNZ     s:11280

      350    11276    8                                      THEN DO;

      351    11277    8                                           IF DOFF = -1 THEN VALUE = DA.RVBUFF$->
             11277                                                    RV_BUFF.SSR;

  11277  2 000660   200025 235100                    LDA     DOFF,,AUTO
         2 000661   000027 115000 xsym               CMPA    B_VECTNIL+23
         2 000662   000671 601000 2                  TNZ     s:11278

  11277  2 000663   000000 473400 xsym               LDP3    DD_ANLZSEG$
         2 000664   300011 474500                    LDP4    9,,PR3
         2 000665   000100 100500                    MLR     fill='000'O
         2 000666   400020 000010                    ADSC9   16,,PR4                  cn=0,n=8
         2 000667   200050 000100                    ADSC9   VALUE,,AUTO              cn=0,n=64
         2 000670   001754 710000 2                  TRA     s:11488

      352    11278    8                                           ELSE VALUE = PINCRW(S_D.USS$, DOFF)->BIT72;

  11278  2 000671   000005 473500                    LDP3    5,,PR0
         2 000672   000002 735000                    ALS     2
         2 000673   000100 100505                    MLR     fill='000'O
         2 000674   300000 000010                    ADSC9   0,A,PR3                  cn=0,n=8
         2 000675   200050 000100                    ADSC9   VALUE,,AUTO              cn=0,n=64

      353    11279    8                                         END;

  11279  2 000676   001754 710000 2                  TRA     s:11488

PL6.E3A0      #001=DDA$DISP File=DDA$DISP.:E05TSI                                TUE 07/29/97 13:18 Page:60
      354    11280    7                                      ELSE IF TEMP$ = ULS$ THEN VALUE = PINCRW(DA.
             11280                                               CURLS$, DOFF)->BIT72;

  11280  2 000677   000000 116000 xsym               CMPQ    ULS$
         2 000700   000711 601000 2                  TNZ     s:11282

  11280  2 000701   000000 473400 xsym               LDP3    DD_ANLZSEG$
         2 000702   300002 474500                    LDP4    2,,PR3
         2 000703   200025 235100                    LDA     DOFF,,AUTO
         2 000704   000002 735000                    ALS     2
         2 000705   000100 100505                    MLR     fill='000'O
         2 000706   400000 000010                    ADSC9   0,A,PR4                  cn=0,n=8
         2 000707   200050 000100                    ADSC9   VALUE,,AUTO              cn=0,n=64
         2 000710   001754 710000 2                  TRA     s:11488

      355    11281    8                                           ELSE DO;

      356    11282    8                                                S_D.ERROR = 503; /*E@NOTIMP*/

  11282  2 000711   000767 235007                    LDA     503,DL
         2 000712   000013 755100                    STA     11,,PR0

      357    11283    8                                                GOTO DERR;

  11283  2 000713   002425 710000 2                  TRA     DERR

      358    11284    8                                              END;
      359    11285    7                                    END;
      360    11286    6                                 ELSE CALL DDA$GETDESC(TEMP$, DOFF, VALUE) ALTRET(
             11286                                          SEGERR);

  11286  2 000714   200050 633500                    EPPR3   VALUE,,AUTO
         2 000715   200144 453500                    STP3    CONT+4,,AUTO
         2 000716   200025 634500                    EPPR4   DOFF,,AUTO
         2 000717   200143 454500                    STP4    CONT+3,,AUTO
         2 000720   200023 635500                    EPPR5   TEMP$,,AUTO
         2 000721   200142 455500                    STP5    CONT+2,,AUTO
PL6.E3A0      #001=DDA$DISP File=DDA$DISP.:E05TSI                                TUE 07/29/97 13:18 Page:61
         2 000722   200142 630500                    EPPR0   CONT+2,,AUTO
         2 000723   000021 631400 xsym               EPPR1   B_VECTNIL+17
         2 000724   000000 701000 xent               TSX1    DDA$GETDESC
         2 000725   002426 702000 2                  TSX2    SEGERR

      361    11287    6                               END;

      362    11288    5                          END;

  11288  2 000726   001754 710000 2                  TRA     s:11488

      363    11289    5                       ELSE DO;

      364    11290    5                            CALL DFK$EVAL_DISP(VALUE_L6, ADDRESS, SEG, DESC#,

  11290  2 000727   000002 236000 3                  LDQ     2
         2 000730   200151 756100                    STQ     CONT+9,,AUTO
         2 000731   200043 633500                    EPPR3   EXPR_OP_L6,,AUTO
         2 000732   200150 453500                    STP3    CONT+8,,AUTO
         2 000733   200035 634500                    EPPR4   SIZE,,AUTO
         2 000734   200147 454500                    STP4    CONT+7,,AUTO
         2 000735   200032 635500                    EPPR5   NOT_IS,,AUTO
         2 000736   200146 455500                    STP5    CONT+6,,AUTO
         2 000737   200031 636500                    EPPR6   DESC#,,AUTO
         2 000740   200145 456500                    STP6    CONT+5,,AUTO
         2 000741   200030 637500                    EPPR7   SEG,,AUTO
         2 000742   200144 457500                    STP7    CONT+4,,AUTO
         2 000743   200027 630500                    EPPR0   ADDRESS,,AUTO
         2 000744   200143 450500                    STP0    CONT+3,,AUTO
         2 000745   200070 630500                    EPPR0   VALUE_L6,,AUTO
         2 000746   200142 450500                    STP0    CONT+2,,AUTO
         2 000747   200142 630500                    EPPR0   CONT+2,,AUTO
         2 000750   000026 631400 xsym               EPPR1   B_VECTNIL+22
         2 000751   000000 701000 xent               TSX1    DFK$EVAL_DISP
         2 000752   002425 702000 2                  TSX2    DERR

      365    11291    5                              NOT_IS, SIZE, EXPR_OP_L6, '0'B) ALTRET(DERR);
PL6.E3A0      #001=DDA$DISP File=DDA$DISP.:E05TSI                                TUE 07/29/97 13:18 Page:62
      366    11292    5                          END;

  11292  2 000753   001754 710000 2                  TRA     s:11488

      367    11293    4                    CASE( %SPEC_ACODE );

      368    11294    4                       S_D.DESC$ = DESC$;

  11294  2 000754   200010 236100                    LDQ     DESC$,,AUTO
         2 000755   000041 756100                    STQ     33,,PR0

      369    11295    4                       IF ZITEM.FLAGS.MDSE.E

  11295  2 000756   100001 236100                    LDQ     1,,PR1
         2 000757   040000 316003                    CANQ    16384,DU
         2 000760   001101 600000 2                  TZE     s:11318

      370    11296    5                       THEN DO;            /* $O, $I, $L  -  evaluatable address */

      371    11297    5                            S_D.DESC$ = DESC$;

  11297  2 000761   200010 236100                    LDQ     DESC$,,AUTO
         2 000762   000041 756100                    STQ     33,,PR0

      372    11298    5                            CALL DDK$EVAL(ADDRESS, SEG, DESC#, NOT_IS) ALTRET(DERR);

  11298  2 000763   200032 633500                    EPPR3   NOT_IS,,AUTO
         2 000764   200145 453500                    STP3    CONT+5,,AUTO
         2 000765   200031 634500                    EPPR4   DESC#,,AUTO
         2 000766   200144 454500                    STP4    CONT+4,,AUTO
         2 000767   200030 635500                    EPPR5   SEG,,AUTO
         2 000770   200143 455500                    STP5    CONT+3,,AUTO
         2 000771   200027 636500                    EPPR6   ADDRESS,,AUTO
         2 000772   200142 456500                    STP6    CONT+2,,AUTO
         2 000773   200142 630500                    EPPR0   CONT+2,,AUTO
         2 000774   000022 631400 xsym               EPPR1   B_VECTNIL+18
         2 000775   000000 701000 xent               TSX1    DDK$EVAL
PL6.E3A0      #001=DDA$DISP File=DDA$DISP.:E05TSI                                TUE 07/29/97 13:18 Page:63
         2 000776   002425 702000 2                  TSX2    DERR

      373    11299    5                            NEXT$ = S_D.DESC$;

  11299  2 000777   000000 470400 xsym               LDP0    S_D$
         2 001000   000041 236100                    LDQ     33,,PR0
         2 001001   200011 756100                    STQ     NEXT$,,AUTO

      374    11300    5                            IF S_D.ANLZ_FILE THEN CALL DUL$GETMVAL(VALUE.L, ADDRESS,
             11300                                     SEG, DESC#, NOT_IS) ALTRET(DERR);

  11300  2 001002   005052 234100                    SZN     2602,,PR0
         2 001003   001023 605000 2                  TPL     s:11302

  11300  2 001004   200032 631500                    EPPR1   NOT_IS,,AUTO
         2 001005   200146 451500                    STP1    CONT+6,,AUTO
         2 001006   200031 633500                    EPPR3   DESC#,,AUTO
         2 001007   200145 453500                    STP3    CONT+5,,AUTO
         2 001010   200030 634500                    EPPR4   SEG,,AUTO
         2 001011   200144 454500                    STP4    CONT+4,,AUTO
         2 001012   200027 635500                    EPPR5   ADDRESS,,AUTO
         2 001013   200143 455500                    STP5    CONT+3,,AUTO
         2 001014   200050 636500                    EPPR6   VALUE,,AUTO
         2 001015   200142 456500                    STP6    CONT+2,,AUTO
         2 001016   200142 630500                    EPPR0   CONT+2,,AUTO
         2 001017   000023 631400 xsym               EPPR1   B_VECTNIL+19
         2 001020   000000 701000 xent               TSX1    DUL$GETMVAL
         2 001021   002425 702000 2                  TSX2    DERR
         2 001022   001065 710000 2                  TRA     s:11308

      375    11301    6                            ELSE DO;

      376    11302    6                                 IF S_D.ONE_TO_TWO.EXEC_DOMAIN = %HOST

  11302  2 001023   006714 235100                    LDA     3532,,PR0
         2 001024   000001 115007                    CMPA    1,DL
         2 001025   001045 601000 2                  TNZ     s:11305
PL6.E3A0      #001=DDA$DISP File=DDA$DISP.:E05TSI                                TUE 07/29/97 13:18 Page:64

      377    11303    6                                 THEN CALL DDK$GETMVAL(VALUE.L, ADDRESS,

  11303  2 001026   200032 631500                    EPPR1   NOT_IS,,AUTO
         2 001027   200146 451500                    STP1    CONT+6,,AUTO
         2 001030   200031 633500                    EPPR3   DESC#,,AUTO
         2 001031   200145 453500                    STP3    CONT+5,,AUTO
         2 001032   200030 634500                    EPPR4   SEG,,AUTO
         2 001033   200144 454500                    STP4    CONT+4,,AUTO
         2 001034   200027 635500                    EPPR5   ADDRESS,,AUTO
         2 001035   200143 455500                    STP5    CONT+3,,AUTO
         2 001036   200050 636500                    EPPR6   VALUE,,AUTO
         2 001037   200142 456500                    STP6    CONT+2,,AUTO
         2 001040   200142 630500                    EPPR0   CONT+2,,AUTO
         2 001041   000023 631400 xsym               EPPR1   B_VECTNIL+19
         2 001042   000000 701000 xent               TSX1    DDK$GETMVAL
         2 001043   002425 702000 2                  TSX2    DERR
         2 001044   001065 710000 2                  TRA     s:11308

      378    11304    6                                        SEG, DESC#, NOT_IS) ALTRET(DERR);
      379    11305    6                                 ELSE CALL DFK$GETMVAL(VALUE_L6, ADDRESS, SEG,

  11305  2 001045   000002 236000 3                  LDQ     2
         2 001046   200147 756100                    STQ     CONT+7,,AUTO
         2 001047   200032 631500                    EPPR1   NOT_IS,,AUTO
         2 001050   200146 451500                    STP1    CONT+6,,AUTO
         2 001051   200031 633500                    EPPR3   DESC#,,AUTO
         2 001052   200145 453500                    STP3    CONT+5,,AUTO
         2 001053   200030 634500                    EPPR4   SEG,,AUTO
         2 001054   200144 454500                    STP4    CONT+4,,AUTO
         2 001055   200027 635500                    EPPR5   ADDRESS,,AUTO
         2 001056   200143 455500                    STP5    CONT+3,,AUTO
         2 001057   200070 636500                    EPPR6   VALUE_L6,,AUTO
         2 001060   200142 456500                    STP6    CONT+2,,AUTO
         2 001061   200142 630500                    EPPR0   CONT+2,,AUTO
         2 001062   000024 631400 xsym               EPPR1   B_VECTNIL+20
         2 001063   000000 701000 xent               TSX1    DFK$GETMVAL
PL6.E3A0      #001=DDA$DISP File=DDA$DISP.:E05TSI                                TUE 07/29/97 13:18 Page:65
         2 001064   002425 702000 2                  TSX2    DERR

      380    11306    6                                        DESC#, NOT_IS, '0'B) ALTRET(DERR);
      381    11307    6                               END;

      382    11308    5                            IF S_D.ONE_TO_TWO.EXEC_DOMAIN = %HOST

  11308  2 001065   000000 470400 xsym               LDP0    S_D$
         2 001066   006714 235100                    LDA     3532,,PR0
         2 001067   000001 115007                    CMPA    1,DL
         2 001070   001076 601000 2                  TNZ     s:11314

      383    11309    6                            THEN DO;

      384    11310    6                                 RSIZE = 36;

  11310  2 001071   000044 236007                    LDQ     36,DL
         2 001072   200036 756100                    STQ     RSIZE,,AUTO

      385    11311    6                                 CALL DISPX ALTRET(DERR);

  11311  2 001073   002722 701000 2                  TSX1    DISPX
         2 001074   002425 702000 2                  TSX2    DERR

      386    11312    6                               END;

  11312  2 001075   001100 710000 2                  TRA     s:11316

      387    11313    6                            ELSE DO;

      388    11314    6                                 CALL DISP_L6 ALTRET(DERR);

  11314  2 001076   002777 701000 2                  TSX1    DISP_L6
         2 001077   002425 702000 2                  TSX2    DERR

      389    11315    6                               END;

PL6.E3A0      #001=DDA$DISP File=DDA$DISP.:E05TSI                                TUE 07/29/97 13:18 Page:66
      390    11316    5                            GOTO NEXT;

  11316  2 001100   002413 710000 2                  TRA     NEXT

      391    11317    5                          END;
      392    11318    4                       RSIZE = 36;

  11318  2 001101   000044 235007                    LDA     36,DL
         2 001102   200036 755100                    STA     RSIZE,,AUTO

      393    11319    5                       DO CASE( ZITEM.SP.VS.ID );

  11319  2 001103   100007 236100                    LDQ     7,,PR1
         2 001104   000033 772000                    QRL     27
         2 001105   000060 116007                    CMPQ    48,DL
         2 001106   001110 602006 2                  TNC     s:11319+5,QL
         2 001107   001743 710000 2                  TRA     s:11480
         2 001110   001743 710000 2                  TRA     s:11480
         2 001111   001743 710000 2                  TRA     s:11480
         2 001112   001743 710000 2                  TRA     s:11480
         2 001113   001170 710000 2                  TRA     s:11321
         2 001114   001176 710000 2                  TRA     s:11325
         2 001115   001206 710000 2                  TRA     s:11330
         2 001116   001743 710000 2                  TRA     s:11480
         2 001117   001743 710000 2                  TRA     s:11480
         2 001120   001743 710000 2                  TRA     s:11480
         2 001121   001743 710000 2                  TRA     s:11480
         2 001122   001713 710000 2                  TRA     s:11475
         2 001123   001713 710000 2                  TRA     s:11475
         2 001124   001713 710000 2                  TRA     s:11475
         2 001125   001743 710000 2                  TRA     s:11480
         2 001126   001252 710000 2                  TRA     s:11339
         2 001127   001273 710000 2                  TRA     s:11348
         2 001130   001306 710000 2                  TRA     s:11354
         2 001131   001342 710000 2                  TRA     s:11360
         2 001132   001351 710000 2                  TRA     s:11364
         2 001133   001361 710000 2                  TRA     s:11368
PL6.E3A0      #001=DDA$DISP File=DDA$DISP.:E05TSI                                TUE 07/29/97 13:18 Page:67
         2 001134   001371 710000 2                  TRA     s:11372
         2 001135   001401 710000 2                  TRA     s:11376
         2 001136   001743 710000 2                  TRA     s:11480
         2 001137   001672 710000 2                  TRA     s:11465
         2 001140   001651 710000 2                  TRA     s:11456
         2 001141   001411 710000 2                  TRA     s:11380
         2 001142   001425 710000 2                  TRA     s:11384
         2 001143   001445 710000 2                  TRA     s:11394
         2 001144   001743 710000 2                  TRA     s:11480
         2 001145   001460 710000 2                  TRA     s:11399
         2 001146   001743 710000 2                  TRA     s:11480
         2 001147   001743 710000 2                  TRA     s:11480
         2 001150   001743 710000 2                  TRA     s:11480
         2 001151   001743 710000 2                  TRA     s:11480
         2 001152   001743 710000 2                  TRA     s:11480
         2 001153   001743 710000 2                  TRA     s:11480
         2 001154   001471 710000 2                  TRA     s:11403
         2 001155   001505 710000 2                  TRA     s:11408
         2 001156   001521 710000 2                  TRA     s:11413
         2 001157   001554 710000 2                  TRA     s:11426
         2 001160   001607 710000 2                  TRA     s:11439
         2 001161   001607 710000 2                  TRA     s:11439
         2 001162   001607 710000 2                  TRA     s:11439
         2 001163   001713 710000 2                  TRA     s:11475
         2 001164   001713 710000 2                  TRA     s:11475
         2 001165   001713 710000 2                  TRA     s:11475
         2 001166   001713 710000 2                  TRA     s:11475
         2 001167   001713 710000 2                  TRA     s:11475

      394    11320    5                         CASE( %ENT_RTN );

      395    11321    5                            IF S_D.ONE_TO_TWO.EXEC_DOMAIN ~= %HOST

  11321  2 001170   006714 235100                    LDA     3532,,PR0
         2 001171   000001 115007                    CMPA    1,DL
         2 001172   002432 601000 2                  TNZ     NOTHOST

PL6.E3A0      #001=DDA$DISP File=DDA$DISP.:E05TSI                                TUE 07/29/97 13:18 Page:68
      396    11322    5                            THEN GOTO NOTHOST;
      397    11323    5                            VALUE.L = S_D.SV.DELENT;

  11323  2 001173   000037 235100                    LDA     31,,PR0
         2 001174   200050 755100                    STA     VALUE,,AUTO
         2 001175   001754 710000 2                  TRA     s:11488

      398    11324    5                         CASE( %IOBUFSZ_RTN );

      399    11325    5                            IF S_D.ONE_TO_TWO.EXEC_DOMAIN ~= %HOST

  11325  2 001176   006714 235100                    LDA     3532,,PR0
         2 001177   000001 115007                    CMPA    1,DL
         2 001200   002432 601000 2                  TNZ     NOTHOST

      400    11326    5                            THEN GOTO NOTHOST;
      401    11327    5                            IF NOT D_XDELTA THEN GOTO NOTXDELTA;

  11327  2 001201   000000 234000 xsym               SZN     D_XDELTA
         2 001202   001432 605000 2                  TPL     NOTXDELTA

      402    11328    5                            VALUE.L = S_D.SV.IOBUFSZ;

  11328  2 001203   000040 235100                    LDA     32,,PR0
         2 001204   200050 755100                    STA     VALUE,,AUTO
         2 001205   001754 710000 2                  TRA     s:11488

      403    11329    5                         CASE( %IND_RTN );

      404    11330    5                            IF S_D.ONE_TO_TWO.EXEC_DOMAIN = %HOST

  11330  2 001206   006714 235100                    LDA     3532,,PR0
         2 001207   000001 115007                    CMPA    1,DL
         2 001210   001225 601000 2                  TNZ     s:11336

      405    11331    6                            THEN DO;

PL6.E3A0      #001=DDA$DISP File=DDA$DISP.:E05TSI                                TUE 07/29/97 13:18 Page:69
      406    11332    6                                 IF D_XDELTA

  11332  2 001211   000000 234000 xsym               SZN     D_XDELTA
         2 001212   001220 605000 2                  TPL     s:11334

      407    11333    6                                 THEN VALUE.L = BITBIN(S_D.USS$ -> B$SS.IR);

  11333  2 001213   000005 473500                    LDP3    5,,PR0
         2 001214   300004 236100                    LDQ     4,,PR3
         2 001215   777777 376007                    ANQ     -1,DL
         2 001216   200050 756100                    STQ     VALUE,,AUTO
         2 001217   001754 710000 2                  TRA     s:11488

      408    11334    6                                 ELSE VALUE.L = BITBIN(S_D.DRTN$ -> FPT$DRTN.V.IR#);

  11334  2 001220   004704 473500                    LDP3    2500,,PR0
         2 001221   300012 236100                    LDQ     10,,PR3
         2 001222   777777 376007                    ANQ     -1,DL
         2 001223   200050 756100                    STQ     VALUE,,AUTO

      409    11335    6                               END;

  11335  2 001224   001754 710000 2                  TRA     s:11488

      410    11336    5                            ELSE CALL DFK$EVAL_DISP(VALUE_L6, ADDRESS, SEG, DESC#,

  11336  2 001225   000002 236000 3                  LDQ     2
         2 001226   200151 756100                    STQ     CONT+9,,AUTO
         2 001227   200043 633500                    EPPR3   EXPR_OP_L6,,AUTO
         2 001230   200150 453500                    STP3    CONT+8,,AUTO
         2 001231   200035 634500                    EPPR4   SIZE,,AUTO
         2 001232   200147 454500                    STP4    CONT+7,,AUTO
         2 001233   200032 635500                    EPPR5   NOT_IS,,AUTO
         2 001234   200146 455500                    STP5    CONT+6,,AUTO
         2 001235   200031 636500                    EPPR6   DESC#,,AUTO
         2 001236   200145 456500                    STP6    CONT+5,,AUTO
         2 001237   200030 637500                    EPPR7   SEG,,AUTO
PL6.E3A0      #001=DDA$DISP File=DDA$DISP.:E05TSI                                TUE 07/29/97 13:18 Page:70
         2 001240   200144 457500                    STP7    CONT+4,,AUTO
         2 001241   200027 630500                    EPPR0   ADDRESS,,AUTO
         2 001242   200143 450500                    STP0    CONT+3,,AUTO
         2 001243   200070 630500                    EPPR0   VALUE_L6,,AUTO
         2 001244   200142 450500                    STP0    CONT+2,,AUTO
         2 001245   200142 630500                    EPPR0   CONT+2,,AUTO
         2 001246   000026 631400 xsym               EPPR1   B_VECTNIL+22
         2 001247   000000 701000 xent               TSX1    DFK$EVAL_DISP
         2 001250   002425 702000 2                  TSX2    DERR
         2 001251   001754 710000 2                  TRA     s:11488

      411    11337    5                                   NOT_IS, SIZE, EXPR_OP_L6, '0'B) ALTRET(DERR);
      412    11338    5                         CASE( %IC_RTN );

      413    11339    5                            VALUE.L = S_D.SAVEIC;

  11339  2 001252   000002 235100                    LDA     2,,PR0
         2 001253   200050 755100                    STA     VALUE,,AUTO

      414    11340    5                            IF S_D.ONE_TO_TWO.EXEC_DOMAIN = %L6

  11340  2 001254   006714 235100                    LDA     3532,,PR0
         2 001255   000002 115007                    CMPA    2,DL
         2 001256   001754 601000 2                  TNZ     s:11488

      415    11341    6                            THEN DO;

      416    11342    6                                 VALUE_L6.SIZE = 2;

  11342  2 001257   000002 236007                    LDQ     2,DL
         2 001260   200070 756100                    STQ     VALUE_L6,,AUTO

      417    11343    6                                 VALUE_L6.OPS(0) = VALUE.L6_WORD.UH;

  11343  2 001261   200050 236100                    LDQ     VALUE,,AUTO
         2 001262   000020 772000                    QRL     16
         2 001263   177777 376007                    ANQ     65535,DL
PL6.E3A0      #001=DDA$DISP File=DDA$DISP.:E05TSI                                TUE 07/29/97 13:18 Page:71
         2 001264   200071 756100                    STQ     VALUE_L6+1,,AUTO

      418    11344    6                                 VALUE_L6.OPS(1) = VALUE.L6_WORD.LH;

  11344  2 001265   200050 236100                    LDQ     VALUE,,AUTO
         2 001266   177777 376007                    ANQ     65535,DL
         2 001267   200072 756100                    STQ     VALUE_L6+2,,AUTO

      419    11345    6                                 SIZE = 32;

  11345  2 001270   000040 235007                    LDA     32,DL
         2 001271   200035 755100                    STA     SIZE,,AUTO

      420    11346    6                               END;

  11346  2 001272   001754 710000 2                  TRA     s:11488

      421    11347    5                         CASE( %E_RTN );

      422    11348    5                            IF S_D.ONE_TO_TWO.EXEC_DOMAIN ~= %HOST

  11348  2 001273   006714 235100                    LDA     3532,,PR0
         2 001274   000001 115007                    CMPA    1,DL
         2 001275   002432 601000 2                  TNZ     NOTHOST

      423    11349    5                            THEN GOTO NOTHOST;
      424    11350    5                            VALUE.E = S_D.UREG$ -> REG$VALUES.E;

  11350  2 001276   000045 473500                    LDP3    37,,PR0
         2 001277   300006 236100                    LDQ     6,,PR3
         2 001300   200050 676100                    ERQ     VALUE,,AUTO
         2 001301   776000 376003                    ANQ     -1024,DU
         2 001302   200050 656100                    ERSQ    VALUE,,AUTO

      425    11351    5                            RSIZE = 8;

  11351  2 001303   000010 236007                    LDQ     8,DL
PL6.E3A0      #001=DDA$DISP File=DDA$DISP.:E05TSI                                TUE 07/29/97 13:18 Page:72
         2 001304   200036 756100                    STQ     RSIZE,,AUTO
         2 001305   001754 710000 2                  TRA     s:11488

      426    11352        /*                       FMT = %SINT_FMT;*/
      427    11353    5                         CASE( %A_RTN );

      428    11354    5                            IF S_D.ONE_TO_TWO.EXEC_DOMAIN = %HOST

  11354  2 001306   006714 235100                    LDA     3532,,PR0
         2 001307   000001 115007                    CMPA    1,DL
         2 001310   001315 601000 2                  TNZ     s:11356

      429    11355    5                            THEN VALUE.L = S_D.UREG$ -> REG$VALUES.A;

  11355  2 001311   000045 473500                    LDP3    37,,PR0
         2 001312   300004 235100                    LDA     4,,PR3
         2 001313   200050 755100                    STA     VALUE,,AUTO
         2 001314   001754 710000 2                  TRA     s:11488

      430    11356    5                            ELSE CALL DFK$EVAL_DISP(VALUE_L6, ADDRESS, SEG,

  11356  2 001315   000002 236000 3                  LDQ     2
         2 001316   200151 756100                    STQ     CONT+9,,AUTO
         2 001317   200043 633500                    EPPR3   EXPR_OP_L6,,AUTO
         2 001320   200150 453500                    STP3    CONT+8,,AUTO
         2 001321   200035 634500                    EPPR4   SIZE,,AUTO
         2 001322   200147 454500                    STP4    CONT+7,,AUTO
         2 001323   200032 635500                    EPPR5   NOT_IS,,AUTO
         2 001324   200146 455500                    STP5    CONT+6,,AUTO
         2 001325   200031 636500                    EPPR6   DESC#,,AUTO
         2 001326   200145 456500                    STP6    CONT+5,,AUTO
         2 001327   200030 637500                    EPPR7   SEG,,AUTO
         2 001330   200144 457500                    STP7    CONT+4,,AUTO
         2 001331   200027 630500                    EPPR0   ADDRESS,,AUTO
         2 001332   200143 450500                    STP0    CONT+3,,AUTO
         2 001333   200070 630500                    EPPR0   VALUE_L6,,AUTO
         2 001334   200142 450500                    STP0    CONT+2,,AUTO
PL6.E3A0      #001=DDA$DISP File=DDA$DISP.:E05TSI                                TUE 07/29/97 13:18 Page:73
         2 001335   200142 630500                    EPPR0   CONT+2,,AUTO
         2 001336   000026 631400 xsym               EPPR1   B_VECTNIL+22
         2 001337   000000 701000 xent               TSX1    DFK$EVAL_DISP
         2 001340   002425 702000 2                  TSX2    DERR
         2 001341   001754 710000 2                  TRA     s:11488

      431    11357    5                                   DESC#, NOT_IS, SIZE, EXPR_OP_L6, '0'B)
      432    11358    5                                   ALTRET(DERR);
      433    11359    5                         CASE( %Q_RTN );

      434    11360    5                            IF S_D.ONE_TO_TWO.EXEC_DOMAIN ~= %HOST

  11360  2 001342   006714 235100                    LDA     3532,,PR0
         2 001343   000001 115007                    CMPA    1,DL
         2 001344   002432 601000 2                  TNZ     NOTHOST

      435    11361    5                            THEN GOTO NOTHOST;
      436    11362    5                            VALUE.L = S_D.UREG$ -> REG$VALUES.Q;

  11362  2 001345   000045 473500                    LDP3    37,,PR0
         2 001346   300005 235100                    LDA     5,,PR3
         2 001347   200050 755100                    STA     VALUE,,AUTO
         2 001350   001754 710000 2                  TRA     s:11488

      437    11363    5                         CASE( %AU_RTN );

      438    11364    5                            IF S_D.ONE_TO_TWO.EXEC_DOMAIN ~= %HOST

  11364  2 001351   006714 235100                    LDA     3532,,PR0
         2 001352   000001 115007                    CMPA    1,DL
         2 001353   002432 601000 2                  TNZ     NOTHOST

      439    11365    5                            THEN GOTO NOTHOST;
      440    11366    5                            VALUE.L = S_D.UREG$ -> REG$VALUES.HA.AU;

  11366  2 001354   000045 473500                    LDP3    37,,PR0
         2 001355   300004 236100                    LDQ     4,,PR3
PL6.E3A0      #001=DDA$DISP File=DDA$DISP.:E05TSI                                TUE 07/29/97 13:18 Page:74
         2 001356   000022 772000                    QRL     18
         2 001357   200050 756100                    STQ     VALUE,,AUTO
         2 001360   001754 710000 2                  TRA     s:11488

      441    11367    5                         CASE( %AL_RTN );

      442    11368    5                            IF S_D.ONE_TO_TWO.EXEC_DOMAIN ~= %HOST

  11368  2 001361   006714 235100                    LDA     3532,,PR0
         2 001362   000001 115007                    CMPA    1,DL
         2 001363   002432 601000 2                  TNZ     NOTHOST

      443    11369    5                            THEN GOTO NOTHOST;
      444    11370    5                            VALUE.L = S_D.UREG$ -> REG$VALUES.HA.AL;

  11370  2 001364   000045 473500                    LDP3    37,,PR0
         2 001365   300004 236100                    LDQ     4,,PR3
         2 001366   777777 376007                    ANQ     -1,DL
         2 001367   200050 756100                    STQ     VALUE,,AUTO
         2 001370   001754 710000 2                  TRA     s:11488

      445    11371    5                         CASE( %QU_RTN );

      446    11372    5                            IF S_D.ONE_TO_TWO.EXEC_DOMAIN ~= %HOST

  11372  2 001371   006714 235100                    LDA     3532,,PR0
         2 001372   000001 115007                    CMPA    1,DL
         2 001373   002432 601000 2                  TNZ     NOTHOST

      447    11373    5                            THEN GOTO NOTHOST;
      448    11374    5                            VALUE.L = S_D.UREG$ -> REG$VALUES.HQ.QU;

  11374  2 001374   000045 473500                    LDP3    37,,PR0
         2 001375   300005 236100                    LDQ     5,,PR3
         2 001376   000022 772000                    QRL     18
         2 001377   200050 756100                    STQ     VALUE,,AUTO
         2 001400   001754 710000 2                  TRA     s:11488
PL6.E3A0      #001=DDA$DISP File=DDA$DISP.:E05TSI                                TUE 07/29/97 13:18 Page:75

      449    11375    5                         CASE( %QL_RTN );

      450    11376    5                            IF S_D.ONE_TO_TWO.EXEC_DOMAIN ~= %HOST

  11376  2 001401   006714 235100                    LDA     3532,,PR0
         2 001402   000001 115007                    CMPA    1,DL
         2 001403   002432 601000 2                  TNZ     NOTHOST

      451    11377    5                            THEN GOTO NOTHOST;
      452    11378    5                            VALUE.L = S_D.UREG$ -> REG$VALUES.HQ.QL;

  11378  2 001404   000045 473500                    LDP3    37,,PR0
         2 001405   300005 236100                    LDQ     5,,PR3
         2 001406   777777 376007                    ANQ     -1,DL
         2 001407   200050 756100                    STQ     VALUE,,AUTO
         2 001410   001754 710000 2                  TRA     s:11488

      453    11379    5                         CASE( %X_RTN );

      454    11380    5                            IF S_D.ONE_TO_TWO.EXEC_DOMAIN ~= %HOST

  11380  2 001411   006714 235100                    LDA     3532,,PR0
         2 001412   000001 115007                    CMPA    1,DL
         2 001413   002432 601000 2                  TNZ     NOTHOST

      455    11381    5                            THEN GOTO NOTHOST;
      456    11382    5                            VALUE.L = S_D.UREG$ -> REG$VALUES.X(ZITEM.SP.VS.SZ);

  11382  2 001414   000045 473500                    LDP3    37,,PR0
         2 001415   100007 236100                    LDQ     7,,PR1
         2 001416   000022 772000                    QRL     18
         2 001417   000777 376007                    ANQ     511,DL
         2 001420   000001 736000                    QLS     1
         2 001421   000100 101506                    MRL     fill='000'O
         2 001422   300000 000002                    ADSC9   0,Q,PR3                  cn=0,n=2
         2 001423   200050 000004                    ADSC9   VALUE,,AUTO              cn=0,n=4
PL6.E3A0      #001=DDA$DISP File=DDA$DISP.:E05TSI                                TUE 07/29/97 13:18 Page:76
         2 001424   001754 710000 2                  TRA     s:11488

      457    11383    5                         CASE( %WSR_RTN );

      458    11384    5                            IF S_D.ONE_TO_TWO.EXEC_DOMAIN ~= %HOST

  11384  2 001425   006714 235100                    LDA     3532,,PR0
         2 001426   000001 115007                    CMPA    1,DL
         2 001427   002432 601000 2                  TNZ     NOTHOST

      459    11385    5                            THEN GOTO NOTHOST;
      460    11386    5                            IF NOT D_XDELTA

  11386  2 001430   000000 234000 xsym               SZN     D_XDELTA
         2 001431   001436 604000 2                  TMI     s:11392

      461    11387    6                            THEN DO;

      462    11388    6   NOTXDELTA:
      463    11389    6                                 S_D.ERROR = 111; /* E@XDONLYSYM */

  11389  2 001432   000157 235007       NOTXDELTA    LDA     111,DL
         2 001433   000000 470400 xsym               LDP0    S_D$
         2 001434   000013 755100                    STA     11,,PR0

      464    11390    6                                 ALTRETURN;

  11390  2 001435   000000 702200 xent               TSX2  ! X66_AALT

      465    11391    6                               END;
      466    11392    5                            VALUE.L = WSR(ZITEM.SP.VS.SZ);

  11392  2 001436   100007 236100                    LDQ     7,,PR1
         2 001437   000022 772000                    QRL     18
         2 001440   000777 376007                    ANQ     511,DL
         2 001441   000100 101406                    MRL     fill='000'O
         2 001442   000000 000001 xsym               ADSC9   WSR,Q                    cn=0,n=1
PL6.E3A0      #001=DDA$DISP File=DDA$DISP.:E05TSI                                TUE 07/29/97 13:18 Page:77
         2 001443   200050 000004                    ADSC9   VALUE,,AUTO              cn=0,n=4
         2 001444   001754 710000 2                  TRA     s:11488

      467    11393    5                         CASE( %WSQ_RTN );

      468    11394    5                            IF S_D.ONE_TO_TWO.EXEC_DOMAIN ~= %HOST

  11394  2 001445   006714 235100                    LDA     3532,,PR0
         2 001446   000001 115007                    CMPA    1,DL
         2 001447   002432 601000 2                  TNZ     NOTHOST

      469    11395    5                            THEN GOTO NOTHOST;
      470    11396    5                            IF NOT D_XDELTA THEN GOTO NOTXDELTA;

  11396  2 001450   000000 234000 xsym               SZN     D_XDELTA
         2 001451   001432 605000 2                  TPL     NOTXDELTA

      471    11397    5                            VALUE.L = PINCRW(MIS$, ZITEM.SP.VS.SZ) -> UBIN36;

  11397  2 001452   100007 220100                    LDX0    7,,PR1
         2 001453   000777 360003                    ANX0    511,DU
         2 001454   000000 473400 xsym               LDP3    MIS$
         2 001455   300000 235110                    LDA     0,X0,PR3
         2 001456   200050 755100                    STA     VALUE,,AUTO
         2 001457   001754 710000 2                  TRA     s:11488

      472    11398    5                         CASE( %AR_RTN );

      473    11399    5                            IF S_D.ONE_TO_TWO.EXEC_DOMAIN ~= %HOST

  11399  2 001460   006714 235100                    LDA     3532,,PR0
         2 001461   000001 115007                    CMPA    1,DL
         2 001462   002432 601000 2                  TNZ     NOTHOST

      474    11400    5                            THEN GOTO NOTHOST;
      475    11401    5                            VALUE.L = PINCRW(S_D.USS$, 16 + ZITEM.SP.VS.SZ) -> UBIN36;

PL6.E3A0      #001=DDA$DISP File=DDA$DISP.:E05TSI                                TUE 07/29/97 13:18 Page:78
  11401  2 001463   100007 220100                    LDX0    7,,PR1
         2 001464   000777 360003                    ANX0    511,DU
         2 001465   000005 473500                    LDP3    5,,PR0
         2 001466   300020 235110                    LDA     16,X0,PR3
         2 001467   200050 755100                    STA     VALUE,,AUTO
         2 001470   001754 710000 2                  TRA     s:11488

      476    11402    5                         CASE( %EA_RTN );

      477    11403    5                            IF S_D.ONE_TO_TWO.EXEC_DOMAIN ~= %HOST

  11403  2 001471   006714 235100                    LDA     3532,,PR0
         2 001472   000001 115007                    CMPA    1,DL
         2 001473   002432 601000 2                  TNZ     NOTHOST

      478    11404    5                            THEN GOTO NOTHOST;
      479    11405    5                            CALL DDK$GET_EA( VALUE.L );

  11405  2 001474   200050 633500                    EPPR3   VALUE,,AUTO
         2 001475   200142 453500                    STP3    CONT+2,,AUTO
         2 001476   200142 630500                    EPPR0   CONT+2,,AUTO
         2 001477   000017 631400 xsym               EPPR1   B_VECTNIL+15
         2 001500   000000 701000 xent               TSX1    DDK$GET_EA
         2 001501   000000 011000                    NOP     0

      480    11406    5                            RSIZE = 44;

  11406  2 001502   000054 235007                    LDA     44,DL
         2 001503   200036 755100                    STA     RSIZE,,AUTO
         2 001504   001754 710000 2                  TRA     s:11488

      481    11407    5                         CASE( %EAQ_RTN );

      482    11408    5                            IF S_D.ONE_TO_TWO.EXEC_DOMAIN ~= %HOST

  11408  2 001505   006714 235100                    LDA     3532,,PR0
         2 001506   000001 115007                    CMPA    1,DL
PL6.E3A0      #001=DDA$DISP File=DDA$DISP.:E05TSI                                TUE 07/29/97 13:18 Page:79
         2 001507   002432 601000 2                  TNZ     NOTHOST

      483    11409    5                            THEN GOTO NOTHOST;
      484    11410    5                            CALL DDK$GET_EAQ( VALUE );

  11410  2 001510   200050 633500                    EPPR3   VALUE,,AUTO
         2 001511   200142 453500                    STP3    CONT+2,,AUTO
         2 001512   200142 630500                    EPPR0   CONT+2,,AUTO
         2 001513   000017 631400 xsym               EPPR1   B_VECTNIL+15
         2 001514   000000 701000 xent               TSX1    DDK$GET_EAQ
         2 001515   000000 011000                    NOP     0

      485    11411    5                            RSIZE = 80;

  11411  2 001516   000120 235007                    LDA     80,DL
         2 001517   200036 755100                    STA     RSIZE,,AUTO
         2 001520   001754 710000 2                  TRA     s:11488

      486    11412    5                         CASE( %REM@_RTN );

      487    11413    5                            IF NOT S_D.DEFINED@

  11413  2 001521   005060 234100                    SZN     2608,,PR0
         2 001522   001526 604000 2                  TMI     s:11415

      488    11414    5                            THEN CALL DDI$GET_PATCH_SPACE;

  11414  2 001523   000002 631400 xsym               EPPR1   B_VECTNIL+2
         2 001524   000000 701000 xent               TSX1    DDI$GET_PATCH_SPACE
         2 001525   000000 011000                    NOP     0

      489    11415    5                            IF S_D.GOT@

  11415  2 001526   000000 470400 xsym               LDP0    S_D$
         2 001527   005054 234100                    SZN     2604,,PR0
         2 001530   001534 605000 2                  TPL     s:11417

PL6.E3A0      #001=DDA$DISP File=DDA$DISP.:E05TSI                                TUE 07/29/97 13:18 Page:80
      490    11416    5                            THEN VALUE.L = S_D.RSPACE@;

  11416  2 001531   005056 235100                    LDA     2606,,PR0
         2 001532   200050 755100                    STA     VALUE,,AUTO
         2 001533   001535 710000 2                  TRA     s:11418

      491    11417    5                            ELSE VALUE.L = 0;

  11417  2 001534   200050 450100                    STZ     VALUE,,AUTO

      492    11418    5                            IF S_D.ONE_TO_TWO.EXEC_DOMAIN = %L6

  11418  2 001535   006714 235100                    LDA     3532,,PR0
         2 001536   000002 115007                    CMPA    2,DL
         2 001537   001754 601000 2                  TNZ     s:11488

      493    11419    6                            THEN DO;

      494    11420    6                                 VALUE_L6.SIZE = 2;

  11420  2 001540   000002 236007                    LDQ     2,DL
         2 001541   200070 756100                    STQ     VALUE_L6,,AUTO

      495    11421    6                                 VALUE_L6.OPS(0) = VALUE.L6_WORD.UH;

  11421  2 001542   200050 236100                    LDQ     VALUE,,AUTO
         2 001543   000020 772000                    QRL     16
         2 001544   177777 376007                    ANQ     65535,DL
         2 001545   200071 756100                    STQ     VALUE_L6+1,,AUTO

      496    11422    6                                 VALUE_L6.OPS(1) = VALUE.L6_WORD.LH;

  11422  2 001546   200050 236100                    LDQ     VALUE,,AUTO
         2 001547   177777 376007                    ANQ     65535,DL
         2 001550   200072 756100                    STQ     VALUE_L6+2,,AUTO

      497    11423    6                                 SIZE = 32;
PL6.E3A0      #001=DDA$DISP File=DDA$DISP.:E05TSI                                TUE 07/29/97 13:18 Page:81

  11423  2 001551   000040 235007                    LDA     32,DL
         2 001552   200035 755100                    STA     SIZE,,AUTO

      498    11424    6                               END;

  11424  2 001553   001754 710000 2                  TRA     s:11488

      499    11425    5                         CASE( %REM#_RTN );

      500    11426    5                            IF NOT S_D.DEFINED#

  11426  2 001554   005065 234100                    SZN     2613,,PR0
         2 001555   001561 604000 2                  TMI     s:11428

      501    11427    5                            THEN CALL DDI$GET_PATCH_SPACE;

  11427  2 001556   000002 631400 xsym               EPPR1   B_VECTNIL+2
         2 001557   000000 701000 xent               TSX1    DDI$GET_PATCH_SPACE
         2 001560   000000 011000                    NOP     0

      502    11428    5                            IF S_D.GOT#

  11428  2 001561   000000 470400 xsym               LDP0    S_D$
         2 001562   005061 234100                    SZN     2609,,PR0
         2 001563   001567 605000 2                  TPL     s:11430

      503    11429    5                            THEN VALUE.L = S_D.RSPACE#;

  11429  2 001564   005063 235100                    LDA     2611,,PR0
         2 001565   200050 755100                    STA     VALUE,,AUTO
         2 001566   001570 710000 2                  TRA     s:11431

      504    11430    5                            ELSE VALUE.L = 0;

  11430  2 001567   200050 450100                    STZ     VALUE,,AUTO

PL6.E3A0      #001=DDA$DISP File=DDA$DISP.:E05TSI                                TUE 07/29/97 13:18 Page:82
      505    11431    5                            IF S_D.ONE_TO_TWO.EXEC_DOMAIN = %L6

  11431  2 001570   006714 235100                    LDA     3532,,PR0
         2 001571   000002 115007                    CMPA    2,DL
         2 001572   001754 601000 2                  TNZ     s:11488

      506    11432    6                            THEN DO;

      507    11433    6                                 VALUE_L6.SIZE = 2;

  11433  2 001573   000002 236007                    LDQ     2,DL
         2 001574   200070 756100                    STQ     VALUE_L6,,AUTO

      508    11434    6                                 VALUE_L6.OPS(0) = VALUE.L6_WORD.UH;

  11434  2 001575   200050 236100                    LDQ     VALUE,,AUTO
         2 001576   000020 772000                    QRL     16
         2 001577   177777 376007                    ANQ     65535,DL
         2 001600   200071 756100                    STQ     VALUE_L6+1,,AUTO

      509    11435    6                                 VALUE_L6.OPS(1) = VALUE.L6_WORD.LH;

  11435  2 001601   200050 236100                    LDQ     VALUE,,AUTO
         2 001602   177777 376007                    ANQ     65535,DL
         2 001603   200072 756100                    STQ     VALUE_L6+2,,AUTO

      510    11436    6                                 SIZE = 32;

  11436  2 001604   000040 235007                    LDA     32,DL
         2 001605   200035 755100                    STA     SIZE,,AUTO

      511    11437    6                               END;

  11437  2 001606   001754 710000 2                  TRA     s:11488

      512    11438    5                         CASE( %SA_RTN, %PRIV_RTN, %HEAD_RTN );

PL6.E3A0      #001=DDA$DISP File=DDA$DISP.:E05TSI                                TUE 07/29/97 13:18 Page:83
      513    11439    5                            IF NOT S_D.RUM

  11439  2 001607   004755 234100                    SZN     2541,,PR0
         2 001610   001614 604000 2                  TMI     s:11444

      514    11440    6                            THEN DO;

      515    11441    6                                 S_D.ERROR = 202; /* E@RUMONLY */

  11441  2 001611   000312 235007                    LDA     202,DL
         2 001612   000013 755100                    STA     11,,PR0

      516    11442    6                                 ALTRETURN;

  11442  2 001613   000000 702200 xent               TSX2  ! X66_AALT

      517    11443    6                               END;
      518    11444    5                            IF ZITEM.SP.VS.ID = %SA_RTN

  11444  2 001614   000033 736000                    QLS     27
         2 001615   050000 116003                    CMPQ    20480,DU
         2 001616   001623 601000 2                  TNZ     s:11446

      519    11445    5                            THEN VALUE.L = S_D.RUM_HEAD$ -> B$HEAD.START;

  11445  2 001617   005001 473500                    LDP3    2561,,PR0
         2 001620   300003 236100                    LDQ     3,,PR3
         2 001621   000005 376000 3                  ANQ     5
         2 001622   200050 756100                    STQ     VALUE,,AUTO

      520    11446    5                            IF ZITEM.SP.VS.ID = %PRIV_RTN

  11446  2 001623   100007 236100                    LDQ     7,,PR1
         2 001624   777000 376003                    ANQ     -512,DU
         2 001625   051000 116003                    CMPQ    20992,DU
         2 001626   001632 601000 2                  TNZ     s:11448

PL6.E3A0      #001=DDA$DISP File=DDA$DISP.:E05TSI                                TUE 07/29/97 13:18 Page:84
      521    11447    5                            THEN VALUE.L = BITBIN(S_D.RUM_HEAD$ -> B$HEAD.PRIV);

  11447  2 001627   005001 473500                    LDP3    2561,,PR0
         2 001630   300000 235100                    LDA     0,,PR3
         2 001631   200050 755100                    STA     VALUE,,AUTO

      522    11448    5                            IF S_D.ONE_TO_TWO.EXEC_DOMAIN = %L6

  11448  2 001632   006714 235100                    LDA     3532,,PR0
         2 001633   000002 115007                    CMPA    2,DL
         2 001634   001754 601000 2                  TNZ     s:11488

      523    11449    6                            THEN DO;

      524    11450    6                                 VALUE_L6.SIZE = 2;

  11450  2 001635   000002 236007                    LDQ     2,DL
         2 001636   200070 756100                    STQ     VALUE_L6,,AUTO

      525    11451    6                                 VALUE_L6.OPS(0) = VALUE.L6_WORD.UH;

  11451  2 001637   200050 236100                    LDQ     VALUE,,AUTO
         2 001640   000020 772000                    QRL     16
         2 001641   177777 376007                    ANQ     65535,DL
         2 001642   200071 756100                    STQ     VALUE_L6+1,,AUTO

      526    11452    6                                 VALUE_L6.OPS(1) = VALUE.L6_WORD.LH;

  11452  2 001643   200050 236100                    LDQ     VALUE,,AUTO
         2 001644   177777 376007                    ANQ     65535,DL
         2 001645   200072 756100                    STQ     VALUE_L6+2,,AUTO

      527    11453    6                                 SIZE = 32;

  11453  2 001646   000040 235007                    LDA     32,DL
         2 001647   200035 755100                    STA     SIZE,,AUTO

PL6.E3A0      #001=DDA$DISP File=DDA$DISP.:E05TSI                                TUE 07/29/97 13:18 Page:85
      528    11454    6                               END;

  11454  2 001650   001754 710000 2                  TRA     s:11488

      529    11455    5                         CASE( %FMASK_RTN );

      530    11456    5                            VALUE.L = S_D.FIND.MASK_F;

  11456  2 001651   005211 235100                    LDA     2697,,PR0
         2 001652   200050 755100                    STA     VALUE,,AUTO

      531    11457    5                            IF S_D.ONE_TO_TWO.EXEC_DOMAIN = %L6

  11457  2 001653   006714 235100                    LDA     3532,,PR0
         2 001654   000002 115007                    CMPA    2,DL
         2 001655   001754 601000 2                  TNZ     s:11488

      532    11458    6                            THEN DO;

      533    11459    6                                 VALUE_L6.SIZE = 2;

  11459  2 001656   000002 236007                    LDQ     2,DL
         2 001657   200070 756100                    STQ     VALUE_L6,,AUTO

      534    11460    6                                 VALUE_L6.OPS(0) = VALUE.L6_WORD.UH;

  11460  2 001660   200050 236100                    LDQ     VALUE,,AUTO
         2 001661   000020 772000                    QRL     16
         2 001662   177777 376007                    ANQ     65535,DL
         2 001663   200071 756100                    STQ     VALUE_L6+1,,AUTO

      535    11461    6                                 VALUE_L6.OPS(1) = VALUE.L6_WORD.LH;

  11461  2 001664   200050 236100                    LDQ     VALUE,,AUTO
         2 001665   177777 376007                    ANQ     65535,DL
         2 001666   200072 756100                    STQ     VALUE_L6+2,,AUTO

PL6.E3A0      #001=DDA$DISP File=DDA$DISP.:E05TSI                                TUE 07/29/97 13:18 Page:86
      536    11462    6                                 SIZE = 32;

  11462  2 001667   000040 235007                    LDA     32,DL
         2 001670   200035 755100                    STA     SIZE,,AUTO

      537    11463    6                               END;

  11463  2 001671   001754 710000 2                  TRA     s:11488

      538    11464    5                         CASE( %FRANGE_RTN );

      539    11465    5                            VALUE.L = S_D.FIND.NUM;

  11465  2 001672   005207 235100                    LDA     2695,,PR0
         2 001673   200050 755100                    STA     VALUE,,AUTO

      540    11466    5                            IF S_D.ONE_TO_TWO.EXEC_DOMAIN = %L6

  11466  2 001674   006714 235100                    LDA     3532,,PR0
         2 001675   000002 115007                    CMPA    2,DL
         2 001676   001754 601000 2                  TNZ     s:11488

      541    11467    6                            THEN DO;

      542    11468    6                                 VALUE_L6.SIZE = 2;

  11468  2 001677   000002 236007                    LDQ     2,DL
         2 001700   200070 756100                    STQ     VALUE_L6,,AUTO

      543    11469    6                                 VALUE_L6.OPS(0) = VALUE.L6_WORD.UH;

  11469  2 001701   200050 236100                    LDQ     VALUE,,AUTO
         2 001702   000020 772000                    QRL     16
         2 001703   177777 376007                    ANQ     65535,DL
         2 001704   200071 756100                    STQ     VALUE_L6+1,,AUTO

      544    11470    6                                 VALUE_L6.OPS(1) = VALUE.L6_WORD.LH;
PL6.E3A0      #001=DDA$DISP File=DDA$DISP.:E05TSI                                TUE 07/29/97 13:18 Page:87

  11470  2 001705   200050 236100                    LDQ     VALUE,,AUTO
         2 001706   177777 376007                    ANQ     65535,DL
         2 001707   200072 756100                    STQ     VALUE_L6+2,,AUTO

      545    11471    6                                 SIZE = 32;

  11471  2 001710   000040 235007                    LDA     32,DL
         2 001711   200035 755100                    STA     SIZE,,AUTO

      546    11472    6                               END;

  11472  2 001712   001754 710000 2                  TRA     s:11488

      547    11473    5                         CASE(%CI_RTN, %T_RTN, %S_RTN, %IV_RTN, %Z_RTN,

      548    11474    5                                 %ASV_RTN, %R_RTN, %M_RTN);
      549    11475    5                            IF S_D.ONE_TO_TWO.EXEC_DOMAIN ~= %L6

  11475  2 001713   006714 235100                    LDA     3532,,PR0
         2 001714   000002 115007                    CMPA    2,DL
         2 001715   002435 601000 2                  TNZ     NOTL6

      550    11476    5                            THEN GOTO NOTL6;
      551    11477    5                            CALL DFK$EVAL_DISP(VALUE_L6, ADDRESS, SEG, DESC#,

  11477  2 001716   000002 236000 3                  LDQ     2
         2 001717   200151 756100                    STQ     CONT+9,,AUTO
         2 001720   200043 633500                    EPPR3   EXPR_OP_L6,,AUTO
         2 001721   200150 453500                    STP3    CONT+8,,AUTO
         2 001722   200035 634500                    EPPR4   SIZE,,AUTO
         2 001723   200147 454500                    STP4    CONT+7,,AUTO
         2 001724   200032 635500                    EPPR5   NOT_IS,,AUTO
         2 001725   200146 455500                    STP5    CONT+6,,AUTO
         2 001726   200031 636500                    EPPR6   DESC#,,AUTO
         2 001727   200145 456500                    STP6    CONT+5,,AUTO
         2 001730   200030 637500                    EPPR7   SEG,,AUTO
PL6.E3A0      #001=DDA$DISP File=DDA$DISP.:E05TSI                                TUE 07/29/97 13:18 Page:88
         2 001731   200144 457500                    STP7    CONT+4,,AUTO
         2 001732   200027 630500                    EPPR0   ADDRESS,,AUTO
         2 001733   200143 450500                    STP0    CONT+3,,AUTO
         2 001734   200070 630500                    EPPR0   VALUE_L6,,AUTO
         2 001735   200142 450500                    STP0    CONT+2,,AUTO
         2 001736   200142 630500                    EPPR0   CONT+2,,AUTO
         2 001737   000026 631400 xsym               EPPR1   B_VECTNIL+22
         2 001740   000000 701000 xent               TSX1    DFK$EVAL_DISP
         2 001741   002425 702000 2                  TSX2    DERR
         2 001742   001754 710000 2                  TRA     s:11488

      552    11478    5                              NOT_IS, SIZE, EXPR_OP_L6, '0'B) ALTRET(DERR);
      553    11479    5                         CASE( ELSE );

      554    11480    5                            S_D.ERROR = 503; /* E@NOTIMP */

  11480  2 001743   000767 235007                    LDA     503,DL
         2 001744   000013 755100                    STA     11,,PR0

      555    11481    5                            ALTRETURN;

  11481  2 001745   000000 702200 xent               TSX2  ! X66_AALT

      556    11482    5                         END;              /* DO CASE( ZITEM.SP.VS.ID ) */

      557    11483    4                    CASE( ELSE );

      558    11484    4                       S_D.ERROR = 502; /* E@DELBUG */

  11484  2 001746   000766 235007                    LDA     502,DL
         2 001747   000013 755100                    STA     11,,PR0

      559    11485    4                       CALL DDE$ERROR;

  11485  2 001750   000002 631400 xsym               EPPR1   B_VECTNIL+2
         2 001751   000000 701000 xent               TSX1    DDE$ERROR
         2 001752   000000 011000                    NOP     0
PL6.E3A0      #001=DDA$DISP File=DDA$DISP.:E05TSI                                TUE 07/29/97 13:18 Page:89

      560    11486    4                       ALTRETURN;

  11486  2 001753   000000 702200 xent               TSX2  ! X66_AALT

      561    11487    4                    END;                   /* DO CASE(ZITEM.ADDR_TYPE) */

      562    11488    3                  IF S_D.ONE_TO_TWO.EXEC_DOMAIN = %HOST

  11488  2 001754   000000 470400 xsym               LDP0    S_D$
         2 001755   006714 235100                    LDA     3532,,PR0
         2 001756   000001 115007                    CMPA    1,DL
         2 001757   001763 601000 2                  TNZ     s:11490

      563    11489    3                  THEN CALL DISPX ALTRET(DERR);

  11489  2 001760   002722 701000 2                  TSX1    DISPX
         2 001761   002425 702000 2                  TSX2    DERR
         2 001762   002413 710000 2                  TRA     NEXT

      564    11490    3                  ELSE CALL DISP_L6 ALTRET(DERR);

  11490  2 001763   002777 701000 2                  TSX1    DISP_L6
         2 001764   002425 702000 2                  TSX2    DERR
         2 001765   002413 710000 2                  TRA     NEXT

      565    11491                                                /*
      566    11492                                                RANG1_DTYP
      567    11493                                                */
      568    11494    3               CASE ( %RANG1_DTYP );

      569    11495    3                  IF ZITEM.FLAGS.ADDREXP

  11495  2 001766   000001 236100                    LDQ     1,,PR0
         2 001767   020000 316003                    CANQ    8192,DU
         2 001770   001775 600000 2                  TZE     s:11500

PL6.E3A0      #001=DDA$DISP File=DDA$DISP.:E05TSI                                TUE 07/29/97 13:18 Page:90
      570    11496    4                  THEN DO;

      571    11497    4                       S_D.ERROR = 228; /* E@EXPRNOALLOW */

  11497  2 001771   000344 235007                    LDA     228,DL
         2 001772   000000 471400 xsym               LDP1    S_D$
         2 001773   100013 755100                    STA     11,,PR1

      572    11498    4                       ALTRETURN;

  11498  2 001774   000000 702200 xent               TSX2  ! X66_AALT

      573    11499    4                     END;
      574    11500    3                  S_D.ARRAY.FIRST = '1'B;

  11500  2 001775   400000 236003                    LDQ     -131072,DU
         2 001776   000000 471400 xsym               LDP1    S_D$
         2 001777   100715 756100                    STQ     461,,PR1

      575    11501    3                  IF ZITEM.SUBSZ ~= 0

  11501  2 002000   000005 235100                    LDA     5,,PR0
         2 002001   002025 600000 2                  TZE     s:11509

      576    11502    4                  THEN DO;

      577    11503    4                       PRE_I$ = ZITEM.TEXTSTART$;

  11503  2 002002   000002 236100                    LDQ     2,,PR0
         2 002003   200122 756100                    STQ     PRE_I$,,AUTO

      578    11504    4                       PRE_IL = POFFC (ZITEM.SUBSTART$, ZITEM.TEXTSTART$);

  11504  2 002004   000002 236100                    LDQ     2,,PR0
         2 002005   000020 772000                    QRL     16
         2 002006   200142 756100                    STQ     CONT+2,,AUTO
         2 002007   000004 236100                    LDQ     4,,PR0
PL6.E3A0      #001=DDA$DISP File=DDA$DISP.:E05TSI                                TUE 07/29/97 13:18 Page:91
         2 002010   000020 772000                    QRL     16
         2 002011   200142 136100                    SBLQ    CONT+2,,AUTO
         2 002012   200123 756100                    STQ     PRE_IL,,AUTO

      579    11505    4                       POST_I$ = PINCRC (ZITEM.SUBSTART$, ZITEM.SUBSZ);

  11505  2 002013   000005 236100                    LDQ     5,,PR0
         2 002014   000004 473500                    LDP3    4,,PR0
         2 002015   000011 402007                    MPY     9,DL
         2 002016   300000 503506                    ABD     0,QL,PR3
         2 002017   200124 453500                    STP3    POST_I$,,AUTO

      580    11506    4                       POST_IL = ZITEM.TEXTSZ - PRE_IL - ZITEM.SUBSZ;

  11506  2 002020   000003 236100                    LDQ     3,,PR0
         2 002021   777777 376007                    ANQ     -1,DL
         2 002022   200123 136100                    SBLQ    PRE_IL,,AUTO
         2 002023   000005 136100                    SBLQ    5,,PR0
         2 002024   200125 756100                    STQ     POST_IL,,AUTO

      581    11507    4                     END;

      582    11508    4                  DO UNTIL (S_D.ARRAY.CUR >= S_D.ARRAY.HIGH);

      583    11509    4                       S_D.DESC$ = DESC$;

  11509  2 002025   200010 236100                    LDQ     DESC$,,AUTO
         2 002026   000000 470400 xsym               LDP0    S_D$
         2 002027   000041 756100                    STQ     33,,PR0

      584    11510    4                       S_D.ARRAY.CUR = S_D.ARRAY.CUR + 1;

  11510  2 002030   000716 054100                    AOS     462,,PR0

      585    11511    4                       IF S_D.ONE_TO_TWO.EXEC_DOMAIN = %HOST

  11511  2 002031   006714 235100                    LDA     3532,,PR0
PL6.E3A0      #001=DDA$DISP File=DDA$DISP.:E05TSI                                TUE 07/29/97 13:18 Page:92
         2 002032   000001 115007                    CMPA    1,DL
         2 002033   002063 601000 2                  TNZ     s:11514

      586    11512    4                       THEN CALL DDK$GETADDR(ITEM, SVALUE, SIZE, INDXX, POINTER,

  11512  2 002034   200045 631500                    EPPR1   ARRAY_FLAG,,AUTO
         2 002035   200152 451500                    STP1    CONT+10,,AUTO
         2 002036   200044 633500                    EPPR3   ADDR_TYPE,,AUTO
         2 002037   200151 453500                    STP3    CONT+9,,AUTO
         2 002040   200042 634500                    EPPR4   EXPR_OP,,AUTO
         2 002041   200150 454500                    STP4    CONT+8,,AUTO
         2 002042   200041 635500                    EPPR5   EXPR_VAL,,AUTO
         2 002043   200147 455500                    STP5    CONT+7,,AUTO
         2 002044   200040 636500                    EPPR6   POINTER,,AUTO
         2 002045   200146 456500                    STP6    CONT+6,,AUTO
         2 002046   200037 637500                    EPPR7   INDXX,,AUTO
         2 002047   200145 457500                    STP7    CONT+5,,AUTO
         2 002050   200035 630500                    EPPR0   SIZE,,AUTO
         2 002051   200144 450500                    STP0    CONT+4,,AUTO
         2 002052   200034 630500                    EPPR0   SVALUE,,AUTO
         2 002053   200143 450500                    STP0    CONT+3,,AUTO
         2 002054   200133 630500                    EPPR0   ITEM,,AUTO
         2 002055   200142 450500                    STP0    CONT+2,,AUTO
         2 002056   200142 630500                    EPPR0   CONT+2,,AUTO
         2 002057   000001 631400 3                  EPPR1   1
         2 002060   000000 701000 xent               TSX1    DDK$GETADDR
         2 002061   002425 702000 2                  TSX2    DERR
         2 002062   002107 710000 2                  TRA     s:11516

      587    11513    4                              EXPR_VAL, EXPR_OP, ADDR_TYPE, ARRAY_FLAG ) ALTRET(DERR);
      588    11514    4                       ELSE CALL DFK$EVAL_DISP(VALUE_L6, ADDRESS, SEG, DESC#,

  11514  2 002063   000002 236000 3                  LDQ     2
         2 002064   200151 756100                    STQ     CONT+9,,AUTO
         2 002065   200043 631500                    EPPR1   EXPR_OP_L6,,AUTO
         2 002066   200150 451500                    STP1    CONT+8,,AUTO
         2 002067   200035 633500                    EPPR3   SIZE,,AUTO
PL6.E3A0      #001=DDA$DISP File=DDA$DISP.:E05TSI                                TUE 07/29/97 13:18 Page:93
         2 002070   200147 453500                    STP3    CONT+7,,AUTO
         2 002071   200032 634500                    EPPR4   NOT_IS,,AUTO
         2 002072   200146 454500                    STP4    CONT+6,,AUTO
         2 002073   200031 635500                    EPPR5   DESC#,,AUTO
         2 002074   200145 455500                    STP5    CONT+5,,AUTO
         2 002075   200030 636500                    EPPR6   SEG,,AUTO
         2 002076   200144 456500                    STP6    CONT+4,,AUTO
         2 002077   200027 637500                    EPPR7   ADDRESS,,AUTO
         2 002100   200143 457500                    STP7    CONT+3,,AUTO
         2 002101   200070 630500                    EPPR0   VALUE_L6,,AUTO
         2 002102   200142 450500                    STP0    CONT+2,,AUTO
         2 002103   200142 630500                    EPPR0   CONT+2,,AUTO
         2 002104   000026 631400 xsym               EPPR1   B_VECTNIL+22
         2 002105   000000 701000 xent               TSX1    DFK$EVAL_DISP
         2 002106   002425 702000 2                  TSX2    DERR

      589    11515    4                              NOT_IS, SIZE, EXPR_OP_L6, '0'B) ALTRET(DERR);
      590    11516    4                       IF ZITEM.SUBSZ ~= 0

  11516  2 002107   200130 470500                    LDP0    ZITEM$,,AUTO
         2 002110   000005 235100                    LDA     5,,PR0
         2 002111   002126 600000 2                  TZE     s:11522

      591    11517    5                       THEN DO;

      592    11518    5                            S_D.OUTPUT = PRE_I;

  11518  2 002112   200122 471500                    LDP1    PRE_I$,,AUTO
         2 002113   200123 720100                    LXL0    PRE_IL,,AUTO
         2 002114   000000 473400 xsym               LDP3    S_D$
         2 002115   040100 100540                    MLR     fill='040'O
         2 002116   100000 000010                    ADSC9   0,,PR1                   cn=0,n=*X0
         2 002117   305335 004000                    ADSC9   2781,,PR3                cn=0,n=2048

      593    11519    5                            S_D.D$ = PINCRC (ADDR(S_D.OUTPUT), PRE_IL);

  11519  2 002120   200123 236100                    LDQ     PRE_IL,,AUTO
PL6.E3A0      #001=DDA$DISP File=DDA$DISP.:E05TSI                                TUE 07/29/97 13:18 Page:94
         2 002121   000020 736000                    QLS     16
         2 002122   005335 036003                    ADLQ    2781,DU
         2 002123   000000 036000 xsym               ADLQ    S_D$
         2 002124   300044 756100                    STQ     36,,PR3

      594    11520    5                          END;

  11520  2 002125   002150 710000 2                  TRA     s:11527

      595    11521    5                       ELSE DO;

      596    11522    5                            NCHARS = ZITEM.TEXTSZ;

  11522  2 002126   000003 236100                    LDQ     3,,PR0
         2 002127   777777 376007                    ANQ     -1,DL
         2 002130   200015 756100                    STQ     NCHARS,,AUTO

      597    11523    5                            S_D.OUTPUT = ZITEM.TEXTSTART$ -> TEXTR;

  11523  2 002131   000002 471500                    LDP1    2,,PR0
         2 002132   000000 620006                    EAX0    0,QL
         2 002133   000000 473400 xsym               LDP3    S_D$
         2 002134   040100 100540                    MLR     fill='040'O
         2 002135   100000 000010                    ADSC9   0,,PR1                   cn=0,n=*X0
         2 002136   305335 004000                    ADSC9   2781,,PR3                cn=0,n=2048

      598    11524    5                            SUBSTR (S_D.OUTPUT, NCHARS, 1) = '(';

  11524  2 002137   200015 235100                    LDA     NCHARS,,AUTO
         2 002140   040105 100400                    MLR     fill='040'O
         2 002141   000006 000001 3                  ADSC9   6                        cn=0,n=1
         2 002142   305335 000001                    ADSC9   2781,A,PR3               cn=0,n=1

      599    11525    5                            S_D.D$ = PINCRC (ADDR(S_D.OUTPUT), NCHARS+1);

  11525  2 002143   200015 236100                    LDQ     NCHARS,,AUTO
         2 002144   000020 736000                    QLS     16
PL6.E3A0      #001=DDA$DISP File=DDA$DISP.:E05TSI                                TUE 07/29/97 13:18 Page:95
         2 002145   000007 036000 3                  ADLQ    7
         2 002146   000000 036000 xsym               ADLQ    S_D$
         2 002147   300044 756100                    STQ     36,,PR3

      600    11526    5                          END;

      601    11527    4                       TEXT$ = S_D.D$;

  11527  2 002150   200014 756100                    STQ     TEXT$,,AUTO

      602    11528    4                       TEMP = S_D.ARRAY.CUR;

  11528  2 002151   300716 235100                    LDA     462,,PR3
         2 002152   200004 755100                    STA     TEMP,,AUTO

      603    11529    4                       IF TEMP < 0

  11529  2 002153   002171 605000 2                  TPL     s:11536

      604    11530    5                       THEN DO;

      605    11531    5                            TEMP = -TEMP;

  11531  2 002154   000000 531000                    NEG     0
         2 002155   200004 755100                    STA     TEMP,,AUTO

      606    11532    5                            TEXT$ -> CHAR1 = '-';

  11532  2 002156   200014 471500                    LDP1    TEXT$,,AUTO
         2 002157   040100 100400                    MLR     fill='040'O
         2 002160   000010 000001 3                  ADSC9   8                        cn=0,n=1
         2 002161   100000 000001                    ADSC9   0,,PR1                   cn=0,n=1

      607    11533    5                            CALL DDR$BUMPC_D$(1) ALTRET (DERR);

  11533  2 002162   000011 630400 3                  EPPR0   9
         2 002163   000017 631400 xsym               EPPR1   B_VECTNIL+15
PL6.E3A0      #001=DDA$DISP File=DDA$DISP.:E05TSI                                TUE 07/29/97 13:18 Page:96
         2 002164   000000 701000 xent               TSX1    DDR$BUMPC_D$
         2 002165   002425 702000 2                  TSX2    DERR

      608    11534    5                            TEXT$ = S_D.D$;

  11534  2 002166   000000 470400 xsym               LDP0    S_D$
         2 002167   000044 236100                    LDQ     36,,PR0
         2 002170   200014 756100                    STQ     TEXT$,,AUTO

      609    11535    5                          END;

      610    11536    4                       CALL DDR$BINTXT(MYBUF$, TEMP, %UINT_FMT, NCHARS);

  11536  2 002171   200015 630500                    EPPR0   NCHARS,,AUTO
         2 002172   200145 450500                    STP0    CONT+5,,AUTO
         2 002173   000012 236000 3                  LDQ     10
         2 002174   200144 756100                    STQ     CONT+4,,AUTO
         2 002175   200004 631500                    EPPR1   TEMP,,AUTO
         2 002176   200143 451500                    STP1    CONT+3,,AUTO
         2 002177   200117 633500                    EPPR3   MYBUF$,,AUTO
         2 002200   200142 453500                    STP3    CONT+2,,AUTO
         2 002201   200142 630500                    EPPR0   CONT+2,,AUTO
         2 002202   000022 631400 xsym               EPPR1   B_VECTNIL+18
         2 002203   000000 701000 xent               TSX1    DDR$BINTXT
         2 002204   000000 011000                    NOP     0

      611    11537    4                       CALL DDR$BUMPC_D$(NCHARS) ALTRET(DERR);

  11537  2 002205   200015 630500                    EPPR0   NCHARS,,AUTO
         2 002206   200142 450500                    STP0    CONT+2,,AUTO
         2 002207   200142 630500                    EPPR0   CONT+2,,AUTO
         2 002210   000017 631400 xsym               EPPR1   B_VECTNIL+15
         2 002211   000000 701000 xent               TSX1    DDR$BUMPC_D$
         2 002212   002425 702000 2                  TSX2    DERR

      612    11538    4                       TEXT$ -> TEXTR = MYBUF;

PL6.E3A0      #001=DDA$DISP File=DDA$DISP.:E05TSI                                TUE 07/29/97 13:18 Page:97
  11538  2 002213   200014 470500                    LDP0    TEXT$,,AUTO
         2 002214   200015 720100                    LXL0    NCHARS,,AUTO
         2 002215   040140 100500                    MLR     fill='040'O
         2 002216   200112 000024                    ADSC9   MYBUF,,AUTO              cn=0,n=20
         2 002217   000000 000010                    ADSC9   0,,PR0                   cn=0,n=*X0

      613    11539    4                       TEXT$ = S_D.D$;

  11539  2 002220   000000 470400 xsym               LDP0    S_D$
         2 002221   000044 236100                    LDQ     36,,PR0
         2 002222   200014 756100                    STQ     TEXT$,,AUTO

      614    11540    4                       IF ZITEM.SUBSZ ~= 0

  11540  2 002223   200130 471500                    LDP1    ZITEM$,,AUTO
         2 002224   100005 235100                    LDA     5,,PR1
         2 002225   002243 600000 2                  TZE     s:11546

      615    11541    5                       THEN DO;

      616    11542    5                            CALL DDR$BUMPC_D$(POST_IL) ALTRET(DERR);

  11542  2 002226   200125 633500                    EPPR3   POST_IL,,AUTO
         2 002227   200142 453500                    STP3    CONT+2,,AUTO
         2 002230   200142 630500                    EPPR0   CONT+2,,AUTO
         2 002231   000017 631400 xsym               EPPR1   B_VECTNIL+15
         2 002232   000000 701000 xent               TSX1    DDR$BUMPC_D$
         2 002233   002425 702000 2                  TSX2    DERR

      617    11543    5                            TEXT$ -> POST_I = POST_I;

  11543  2 002234   200124 470500                    LDP0    POST_I$,,AUTO
         2 002235   200125 720100                    LXL0    POST_IL,,AUTO
         2 002236   200014 471500                    LDP1    TEXT$,,AUTO
         2 002237   040140 100540                    MLR     fill='040'O
         2 002240   000000 000010                    ADSC9   0,,PR0                   cn=0,n=*X0
         2 002241   100000 000010                    ADSC9   0,,PR1                   cn=0,n=*X0
PL6.E3A0      #001=DDA$DISP File=DDA$DISP.:E05TSI                                TUE 07/29/97 13:18 Page:98

      618    11544    5                          END;

  11544  2 002242   002253 710000 2                  TRA     s:11549

      619    11545    5                       ELSE DO;

      620    11546    5                            TEXT$ -> CHAR1 = ')';

  11546  2 002243   200014 473500                    LDP3    TEXT$,,AUTO
         2 002244   040100 100400                    MLR     fill='040'O
         2 002245   000013 000001 3                  ADSC9   11                       cn=0,n=1
         2 002246   300000 000001                    ADSC9   0,,PR3                   cn=0,n=1

      621    11547    5                            CALL DDR$BUMPC_D$(1) ALTRET(DERR);

  11547  2 002247   000011 630400 3                  EPPR0   9
         2 002250   000017 631400 xsym               EPPR1   B_VECTNIL+15
         2 002251   000000 701000 xent               TSX1    DDR$BUMPC_D$
         2 002252   002425 702000 2                  TSX2    DERR

      622    11548    5                          END;

      623    11549    4                       TEXT$ = S_D.D$;

  11549  2 002253   000000 470400 xsym               LDP0    S_D$
         2 002254   000044 236100                    LDQ     36,,PR0
         2 002255   200014 756100                    STQ     TEXT$,,AUTO

      624    11550    4                       CALL DDR$BUMPC_D$(3) ALTRET(DERR);

  11550  2 002256   000000 630400 3                  EPPR0   0
         2 002257   000017 631400 xsym               EPPR1   B_VECTNIL+15
         2 002260   000000 701000 xent               TSX1    DDR$BUMPC_D$
         2 002261   002425 702000 2                  TSX2    DERR

      625    11551    4                       TEXT$ -> CHAR3 = ' = ';
PL6.E3A0      #001=DDA$DISP File=DDA$DISP.:E05TSI                                TUE 07/29/97 13:18 Page:99

  11551  2 002262   200014 470500                    LDP0    TEXT$,,AUTO
         2 002263   040100 100400                    MLR     fill='040'O
         2 002264   000003 000003 0                  ADSC9   MVN+3                    cn=0,n=3
         2 002265   000000 000003                    ADSC9   0,,PR0                   cn=0,n=3

      626    11552    4                       TEXT$ = S_D.D$;

  11552  2 002266   000000 470400 xsym               LDP0    S_D$
         2 002267   000044 236100                    LDQ     36,,PR0
         2 002270   200014 756100                    STQ     TEXT$,,AUTO

      627    11553    4                       IF S_D.ONE_TO_TWO.EXEC_DOMAIN = %HOST

  11553  2 002271   006714 235100                    LDA     3532,,PR0
         2 002272   000001 115007                    CMPA    1,DL
         2 002273   002277 601000 2                  TNZ     s:11555

      628    11554    4                       THEN CALL DISP ALTRET(DERR);

  11554  2 002274   002440 701000 2                  TSX1    DISP
         2 002275   002425 702000 2                  TSX2    DERR
         2 002276   002301 710000 2                  TRA     s:11556

      629    11555    4                       ELSE CALL DISP_L6 ALTRET(DERR);

  11555  2 002277   002777 701000 2                  TSX1    DISP_L6
         2 002300   002425 702000 2                  TSX2    DERR

      630    11556    4                       IF ZITEM.NAMEFLAGS.STATUS_EXISTS AND S_D.STATUS

  11556  2 002301   200130 470500                    LDP0    ZITEM$,,AUTO
         2 002302   000003 236100                    LDQ     3,,PR0
         2 002303   200000 316003                    CANQ    65536,DU
         2 002304   002402 600000 2                  TZE     s:11571
         2 002305   000000 471400 xsym               LDP1    S_D$
         2 002306   106746 234100                    SZN     3558,,PR1
PL6.E3A0      #001=DDA$DISP File=DDA$DISP.:E05TSI                                TUE 07/29/97 13:18 Page:100
         2 002307   002402 605000 2                  TPL     s:11571

      631    11557    5                       THEN DO;

      632    11558    5                            SAVE_DESC$ = ZITEM$;

  11558  2 002310   200130 236100                    LDQ     ZITEM$,,AUTO
         2 002311   200111 756100                    STQ     SAVE_DESC$,,AUTO

      633    11559    5                            ZITEM$ = NEXT$;

  11559  2 002312   200011 236100                    LDQ     NEXT$,,AUTO
         2 002313   200130 756100                    STQ     ZITEM$,,AUTO

      634    11560    5                            S_D.D$ = ADDR(S_D.OUTPUT);

  11560  2 002314   000000 236000 xsym               LDQ     S_D$
         2 002315   005335 036003                    ADLQ    2781,DU
         2 002316   100044 756100                    STQ     36,,PR1

      635    11561    5                            S_D.DESCL$ = PINCRC(S_D.D$, LENGTHC(S_D.OUTPUT));

  11561  2 002317   001000 036003                    ADLQ    512,DU
         2 002320   100042 756100                    STQ     34,,PR1

      636    11562    5                            S_D.DESC$ = NEXT$;

  11562  2 002321   200011 236100                    LDQ     NEXT$,,AUTO
         2 002322   100041 756100                    STQ     33,,PR1

      637    11563    5                            SDD$ = PINCRW(NEXT$, NEXT$ -> ZITEM.SIZE - 3);

  11563  2 002323   200011 470500                    LDP0    NEXT$,,AUTO
         2 002324   000000 720100                    LXL0    0,,PR0
         2 002325   777775 636010                    EAQ     -3,X0
         2 002326   200011 036100                    ADLQ    NEXT$,,AUTO
         2 002327   200127 756100                    STQ     SDD$,,AUTO
PL6.E3A0      #001=DDA$DISP File=DDA$DISP.:E05TSI                                TUE 07/29/97 13:18 Page:101

      638    11564    5                            CALL DFK$EVAL_DISP(VALUE_L6, ADDRESS, SEG, DESC#, NOT_IS,

  11564  2 002330   000002 236000 3                  LDQ     2
         2 002331   200151 756100                    STQ     CONT+9,,AUTO
         2 002332   200043 633500                    EPPR3   EXPR_OP_L6,,AUTO
         2 002333   200150 453500                    STP3    CONT+8,,AUTO
         2 002334   200035 634500                    EPPR4   SIZE,,AUTO
         2 002335   200147 454500                    STP4    CONT+7,,AUTO
         2 002336   200032 635500                    EPPR5   NOT_IS,,AUTO
         2 002337   200146 455500                    STP5    CONT+6,,AUTO
         2 002340   200031 636500                    EPPR6   DESC#,,AUTO
         2 002341   200145 456500                    STP6    CONT+5,,AUTO
         2 002342   200030 637500                    EPPR7   SEG,,AUTO
         2 002343   200144 457500                    STP7    CONT+4,,AUTO
         2 002344   200027 630500                    EPPR0   ADDRESS,,AUTO
         2 002345   200143 450500                    STP0    CONT+3,,AUTO
         2 002346   200070 630500                    EPPR0   VALUE_L6,,AUTO
         2 002347   200142 450500                    STP0    CONT+2,,AUTO
         2 002350   200142 630500                    EPPR0   CONT+2,,AUTO
         2 002351   000026 631400 xsym               EPPR1   B_VECTNIL+22
         2 002352   000000 701000 xent               TSX1    DFK$EVAL_DISP
         2 002353   002425 702000 2                  TSX2    DERR

      639    11565    5                              SIZE, EXPR_OP_L6, '0'B) ALTRET(DERR);
      640    11566    5                            NPOINTERS.TRUE = ZITEM.NPOINTER_TRUE;

  11566  2 002354   200130 470500                    LDP0    ZITEM$,,AUTO
         2 002355   000014 220100                    LDX0    12,,PR0
         2 002356   200126 740100                    STX0    NPOINTERS,,AUTO

      641    11567    5                            NPOINTERS.FALSE = ZITEM.NPOINTER_FALSE;

  11567  2 002357   000014 721100                    LXL1    12,,PR0
         2 002360   200126 441100                    SXL1    NPOINTERS,,AUTO

      642    11568    5                           CALL DDA$DISPFMT(%STATUS_FMT, DITEM.VALUE, VALUE_L6.OPS(0),
PL6.E3A0      #001=DDA$DISP File=DDA$DISP.:E05TSI                                TUE 07/29/97 13:18 Page:102
             11568                                     , , NPOINTERS) ALTRET(DERR);

  11568  2 002361   200126 631500                    EPPR1   NPOINTERS,,AUTO
         2 002362   200147 451500                    STP1    CONT+7,,AUTO
         2 002363   000001 236000 xsym               LDQ     B_VECTNIL+1
         2 002364   200146 756100                    STQ     CONT+6,,AUTO
         2 002365   200145 756100                    STQ     CONT+5,,AUTO
         2 002366   200071 633500                    EPPR3   VALUE_L6+1,,AUTO
         2 002367   200144 453500                    STP3    CONT+4,,AUTO
         2 002370   200127 236100                    LDQ     SDD$,,AUTO
         2 002371   000001 036003                    ADLQ    1,DU
         2 002372   000004 235000 3                  LDA     4
         2 002373   200142 757100                    STAQ    CONT+2,,AUTO
         2 002374   200142 630500                    EPPR0   CONT+2,,AUTO
         2 002375   000024 631400 xsym               EPPR1   B_VECTNIL+20
         2 002376   000000 701000 xent               TSX1    DDA$DISPFMT
         2 002377   002425 702000 2                  TSX2    DERR

      643    11569    5                            ZITEM$ = SAVE_DESC$;

  11569  2 002400   200111 236100                    LDQ     SAVE_DESC$,,AUTO
         2 002401   200130 756100                    STQ     ZITEM$,,AUTO

      644    11570    5                          END;

      645    11571    4                     END;                  /* DO UNTIL ( ... */

  11571  2 002402   000000 470400 xsym               LDP0    S_D$
         2 002403   000716 236100                    LDQ     462,,PR0
         2 002404   000717 116100                    CMPQ    463,,PR0
         2 002405   002025 604000 2                  TMI     s:11509
         2 002406   002413 710000 2                  TRA     NEXT

      646    11572    3               CASE ( ELSE );              /* Not implemented */

      647    11573    3                  S_D.ERROR = 503;    /* E@NOTIMP */

PL6.E3A0      #001=DDA$DISP File=DDA$DISP.:E05TSI                                TUE 07/29/97 13:18 Page:103
  11573  2 002407   000767 235007                    LDA     503,DL
         2 002410   000000 471400 xsym               LDP1    S_D$
         2 002411   100013 755100                    STA     11,,PR1

      648    11574    3                  ALTRETURN;

  11574  2 002412   000000 702200 xent               TSX2  ! X66_AALT

      649    11575    3               END;                        /* DO CASE(DESC$ -> ZITEM.DTYP) */

      650    11576    2   NEXT:
      651    11577    2             S_D.D$ = NEXT$;

  11577  2 002413   200011 236100       NEXT         LDQ     NEXT$,,AUTO
         2 002414   000000 470400 xsym               LDP0    S_D$
         2 002415   000044 756100                    STQ     36,,PR0

      652    11578    2           END;                            /* DO N=0 TO NUM */

  11578  2 002416   200005 235100                    LDA     N,,AUTO
         2 002417   000001 035007                    ADLA    1,DL
         2 002420   200005 755100                    STA     N,,AUTO
         2 002421   200003 236100                    LDQ     NUM,,AUTO
         2 002422   200005 116100                    CMPQ    N,,AUTO
         2 002423   000023 603000 2                  TRC     s:11112

      653    11579    1   DONE:
      654    11580    1        RETURN;

  11580  2 002424   000000 702200 xent  DONE         TSX2  ! X66_ARET

      655    11581    1   DERR:
      656    11582    1        ALTRETURN;

  11582  2 002425   000000 702200 xent  DERR         TSX2  ! X66_AALT

      657    11583    1   SEGERR:
PL6.E3A0      #001=DDA$DISP File=DDA$DISP.:E05TSI                                TUE 07/29/97 13:18 Page:104
      658    11584    1        S_D.ERROR = 60;            /* E@SEGIDERR */

  11584  2 002426   000074 235007       SEGERR       LDA     60,DL
         2 002427   000000 470400 xsym               LDP0    S_D$
         2 002430   000013 755100                    STA     11,,PR0

      659    11585    1        ALTRETURN;

  11585  2 002431   000000 702200 xent               TSX2  ! X66_AALT

      660    11586    1   NOTHOST:
      661    11587    1        S_D.ERROR = 308;           /* E@SYMNOTFEP */

  11587  2 002432   000464 235007       NOTHOST      LDA     308,DL
         2 002433   000013 755100                    STA     11,,PR0

      662    11588    1        ALTRETURN;

  11588  2 002434   000000 702200 xent               TSX2  ! X66_AALT

      663    11589    1   NOTL6:
      664    11590    1        S_D.ERROR = 304;          /* SYMNOTHOST */

  11590  2 002435   000460 236007       NOTL6        LDQ     304,DL
         2 002436   000013 756100                    STQ     11,,PR0

      665    11591    1        ALTRETURN;

  11591  2 002437   000000 702200 xent               TSX2  ! X66_AALT

      666    11592             %EJECT;
PL6.E3A0      #001=DDA$DISP File=DDA$DISP.:E05TSI                                TUE 07/29/97 13:18 Page:105
      667    11593        /*D*  NAME: DISP
      668    11594              PURPOSE: To get value and display it per format spec
      669    11595                                                     */
      670    11596    1   DISP: PROC ALTRET;

  11596  2 002440   200136 741300       DISP         STX1  ! ITEM+3,,AUTO

      671    11597                                                /*
      672    11598                                                CHAR_FMT
      673    11599                                                */
      674    11600    2        IF FMT = %CHAR_FMT

  11600  2 002441   200007 235100                    LDA     FMT,,AUTO
         2 002442   000004 115007                    CMPA    4,DL
         2 002443   002563 601000 2                  TNZ     s:11625

      675    11601    3        THEN DO;

      676    11602    3             IF SIZE <= 0

  11602  2 002444   200035 236100                    LDQ     SIZE,,AUTO
         2 002445   002452 605400 2                  TPNZ    s:11607

      677    11603    4             THEN DO;

      678    11604    4                  S_D.ERROR = 253; /* E@INVALID_SIZE */

  11604  2 002446   000375 235007                    LDA     253,DL
         2 002447   000000 470400 xsym               LDP0    S_D$
         2 002450   000013 755100                    STA     11,,PR0

      679    11605    4                  GOTO DERR;

  11605  2 002451   002775 710000 2                  TRA     DERR

      680    11606    4                END;
      681    11607    3             SIZED9 = SIZE / 9;
PL6.E3A0      #001=DDA$DISP File=DDA$DISP.:E05TSI                                TUE 07/29/97 13:18 Page:106

  11607  2 002452   000011 506007                    DIV     9,DL
         2 002453   200020 756100                    STQ     SIZED9,,AUTO

      682    11608    3             SIZE = SIZED9 * 9;            /* Truncate to character bound. */

  11608  2 002454   000011 402007                    MPY     9,DL
         2 002455   200035 756100                    STQ     SIZE,,AUTO

      683    11609    3             IF SIZEC(S_D.OUTPUT) - POFFC(TEXT$, ADDR(S_D.OUTPUT)) < SIZED9 + 2

  11609  2 002456   000000 236000 xsym               LDQ     S_D$
         2 002457   005335 036003                    ADLQ    2781,DU
         2 002460   000020 772000                    QRL     16
         2 002461   200142 756100                    STQ     CONT+2,,AUTO
         2 002462   200014 236100                    LDQ     TEXT$,,AUTO
         2 002463   000020 772000                    QRL     16
         2 002464   200142 136100                    SBLQ    CONT+2,,AUTO
         2 002465   000027 676000 xsym               ERQ     B_VECTNIL+23
         2 002466   003777 036007                    ADLQ    2047,DL
         2 002467   002472 604000 2                  TMI     s:11611
         2 002470   200020 116100                    CMPQ    SIZED9,,AUTO
         2 002471   002476 603000 2                  TRC     s:11614

      684    11610    4             THEN DO;

      685    11611    4                  S_D.ERROR = 41;    /* E@NODISP */

  11611  2 002472   000051 235007                    LDA     41,DL
         2 002473   000000 470400 xsym               LDP0    S_D$
         2 002474   000013 755100                    STA     11,,PR0

      686    11612    4                  GOTO DERR;

  11612  2 002475   002775 710000 2                  TRA     DERR

      687    11613    4                END;
PL6.E3A0      #001=DDA$DISP File=DDA$DISP.:E05TSI                                TUE 07/29/97 13:18 Page:107
      688    11614    3             CALL DDR$BUMPC_D$(SIZED9 + 2) ALTRET(DERR);

  11614  2 002476   200020 235100                    LDA     SIZED9,,AUTO
         2 002477   000002 035007                    ADLA    2,DL
         2 002500   200142 755100                    STA     CONT+2,,AUTO
         2 002501   200142 630500                    EPPR0   CONT+2,,AUTO
         2 002502   200143 450500                    STP0    CONT+3,,AUTO
         2 002503   200143 630500                    EPPR0   CONT+3,,AUTO
         2 002504   000017 631400 xsym               EPPR1   B_VECTNIL+15
         2 002505   000000 701000 xent               TSX1    DDR$BUMPC_D$
         2 002506   002775 702000 2                  TSX2    DERR

      689    11615    3             TEXT$ -> CHAR1 = '''';

  11615  2 002507   200014 470500                    LDP0    TEXT$,,AUTO
         2 002510   040100 100400                    MLR     fill='040'O
         2 002511   000014 000001 3                  ADSC9   12                       cn=0,n=1
         2 002512   000000 000001                    ADSC9   0,,PR0                   cn=0,n=1

      690    11616    3             TEXT$ = PINCRC(TEXT$, 1);

  11616  2 002513   200014 236100                    LDQ     TEXT$,,AUTO
         2 002514   200000 036007                    ADLQ    65536,DL
         2 002515   200014 756100                    STQ     TEXT$,,AUTO

      691    11617    3             CALL DDK$GETVAL(TEXT$, ITEM, SVALUE, SIZE, SIZE, INDXX,

  11617  2 002516   000002 236000 3                  LDQ     2
         2 002517   200155 756100                    STQ     CONT+13,,AUTO
         2 002520   200045 630500                    EPPR0   ARRAY_FLAG,,AUTO
         2 002521   200154 450500                    STP0    CONT+12,,AUTO
         2 002522   200044 631500                    EPPR1   ADDR_TYPE,,AUTO
         2 002523   200153 451500                    STP1    CONT+11,,AUTO
         2 002524   200042 633500                    EPPR3   EXPR_OP,,AUTO
         2 002525   200152 453500                    STP3    CONT+10,,AUTO
         2 002526   200041 634500                    EPPR4   EXPR_VAL,,AUTO
         2 002527   200151 454500                    STP4    CONT+9,,AUTO
PL6.E3A0      #001=DDA$DISP File=DDA$DISP.:E05TSI                                TUE 07/29/97 13:18 Page:108
         2 002530   200040 635500                    EPPR5   POINTER,,AUTO
         2 002531   200150 455500                    STP5    CONT+8,,AUTO
         2 002532   200037 636500                    EPPR6   INDXX,,AUTO
         2 002533   200147 456500                    STP6    CONT+7,,AUTO
         2 002534   200035 637500                    EPPR7   SIZE,,AUTO
         2 002535   200146 457500                    STP7    CONT+6,,AUTO
         2 002536   200035 630500                    EPPR0   SIZE,,AUTO
         2 002537   200145 450500                    STP0    CONT+5,,AUTO
         2 002540   200034 630500                    EPPR0   SVALUE,,AUTO
         2 002541   200144 450500                    STP0    CONT+4,,AUTO
         2 002542   200133 630500                    EPPR0   ITEM,,AUTO
         2 002543   200143 450500                    STP0    CONT+3,,AUTO
         2 002544   200014 630500                    EPPR0   TEXT$,,AUTO
         2 002545   200142 450500                    STP0    CONT+2,,AUTO
         2 002546   200142 630500                    EPPR0   CONT+2,,AUTO
         2 002547   000015 631400 3                  EPPR1   13
         2 002550   000000 701000 xent               TSX1    DDK$GETVAL
         2 002551   002775 702000 2                  TSX2    DERR

      692    11618    3               POINTER, EXPR_VAL, EXPR_OP, ADDR_TYPE, ARRAY_FLAG, '0'B)
      693    11619    3               ALTRET(DERR);
      694    11620    3             TEXT$ = PINCRC(TEXT$, SIZED9);

  11620  2 002552   200020 236100                    LDQ     SIZED9,,AUTO
         2 002553   000020 736000                    QLS     16
         2 002554   200014 036100                    ADLQ    TEXT$,,AUTO
         2 002555   200014 756100                    STQ     TEXT$,,AUTO

      695    11621    3             TEXT$ -> CHAR1 = '''';

  11621  2 002556   200014 470500                    LDP0    TEXT$,,AUTO
         2 002557   040100 100400                    MLR     fill='040'O
         2 002560   000014 000001 3                  ADSC9   12                       cn=0,n=1
         2 002561   000000 000001                    ADSC9   0,,PR0                   cn=0,n=1

      696    11622    3             GOTO PRINT;

PL6.E3A0      #001=DDA$DISP File=DDA$DISP.:E05TSI                                TUE 07/29/97 13:18 Page:109
  11622  2 002562   002740 710000 2                  TRA     PRINT

      697    11623    3           END;
      698    11624                                                /**/
      699    11625    2       IF ZITEM.PUP.BITS.PUB = 1 AND FMT~=%PUP_FMT THEN SIZE=(SIZE/2)*9+MOD(SIZE,2)*5;

  11625  2 002563   200130 470500                    LDP0    ZITEM$,,AUTO
         2 002564   000010 236100                    LDQ     8,,PR0
         2 002565   000060 376007                    ANQ     48,DL
         2 002566   000020 116007                    CMPQ    16,DL
         2 002567   002606 601000 2                  TNZ     s:11626
         2 002570   000035 115007                    CMPA    29,DL
         2 002571   002606 600000 2                  TZE     s:11626

  11625  2 002572   200035 236100                    LDQ     SIZE,,AUTO
         2 002573   000002 506007                    DIV     2,DL
         2 002574   200142 756100                    STQ     CONT+2,,AUTO
         2 002575   200035 236100                    LDQ     SIZE,,AUTO
         2 002576   000002 506007                    DIV     2,DL
         2 002577   000044 733000                    LRS     36
         2 002600   000005 402007                    MPY     5,DL
         2 002601   200143 756100                    STQ     CONT+3,,AUTO
         2 002602   200142 236100                    LDQ     CONT+2,,AUTO
         2 002603   000011 402007                    MPY     9,DL
         2 002604   200143 036100                    ADLQ    CONT+3,,AUTO
         2 002605   200035 756100                    STQ     SIZE,,AUTO

      700    11626    2        RSIZE = SIZE;

  11626  2 002606   200035 235100                    LDA     SIZE,,AUTO
         2 002607   200036 755100                    STA     RSIZE,,AUTO

      701    11627    2        IF EXPR_OP > 0

  11627  2 002610   200042 236100                    LDQ     EXPR_OP,,AUTO
         2 002611   002615 600000 2                  TZE     s:11632

PL6.E3A0      #001=DDA$DISP File=DDA$DISP.:E05TSI                                TUE 07/29/97 13:18 Page:110
      702    11628    3        THEN DO;

      703    11629    3             SIZE = 36;                    /* Force to word */

  11629  2 002612   000044 235007                    LDA     36,DL
         2 002613   200035 755100                    STA     SIZE,,AUTO

      704    11630    3             RSIZE = 36;

  11630  2 002614   200036 755100                    STA     RSIZE,,AUTO

      705    11631    3           END;

      706    11632    2        EIS = 0;

  11632  2 002615   200121 450100                    STZ     EIS,,AUTO

      707    11633    2        IF FMT = %PUP_FMT

  11633  2 002616   200007 235100                    LDA     FMT,,AUTO
         2 002617   000035 115007                    CMPA    29,DL
         2 002620   002647 601000 2                  TNZ     s:11650

      708    11634    3        THEN DO;

      709    11635    3             RSIZE = SIZE;

  11635  2 002621   200035 235100                    LDA     SIZE,,AUTO
         2 002622   200036 755100                    STA     RSIZE,,AUTO

      710    11636    3             IF ZITEM.PUP.BITS.PUB = 1     /* Packed */

  11636  2 002623   000010 236100                    LDQ     8,,PR0
         2 002624   000060 376007                    ANQ     48,DL
         2 002625   000020 116007                    CMPQ    16,DL
         2 002626   002635 601000 2                  TNZ     s:11641

PL6.E3A0      #001=DDA$DISP File=DDA$DISP.:E05TSI                                TUE 07/29/97 13:18 Page:111
      711    11637    4             THEN DO;

      712    11638    4                  EIS = MVN( ZITEM.PUP.BITS.SIGNPOS );

  11638  2 002627   000010 236100                    LDQ     8,,PR0
         2 002630   000002 772000                    QRL     2
         2 002631   000003 376007                    ANQ     3,DL
         2 002632   000000 235006 0                  LDA     MVN,QL
         2 002633   200121 755100                    STA     EIS,,AUTO

      713    11639    4                END;

  11639  2 002634   002661 710000 2                  TRA     s:11657

      714    11640    4             ELSE DO;

      715    11641    4                  IF RSIZE > (19 * 9)

  11641  2 002635   000254 115007                    CMPA    172,DL
         2 002636   002661 602000 2                  TNC     s:11657

      716    11642    5                  THEN DO;

      717    11643    5                       RSIZE = 19 * 9;

  11643  2 002637   000253 235007                    LDA     171,DL
         2 002640   200036 755100                    STA     RSIZE,,AUTO

      718    11644    5                       S_D.ERROR = 252; /* E@UNPACKDEC_TRUNCATED */

  11644  2 002641   000374 236007                    LDQ     252,DL
         2 002642   000000 471400 xsym               LDP1    S_D$
         2 002643   100013 756100                    STQ     11,,PR1

      719    11645    5                       CALL_ERROR = '1'B;

  11645  2 002644   400000 236003                    LDQ     -131072,DU
PL6.E3A0      #001=DDA$DISP File=DDA$DISP.:E05TSI                                TUE 07/29/97 13:18 Page:112
         2 002645   200033 756100                    STQ     CALL_ERROR,,AUTO

      720    11646    5                     END;

      721    11647    4                END;

      722    11648    3           END;

  11648  2 002646   002661 710000 2                  TRA     s:11657

      723    11649    3        ELSE DO;

      724    11650    3             IF RSIZE > 144

  11650  2 002647   200036 235100                    LDA     RSIZE,,AUTO
         2 002650   000221 115007                    CMPA    145,DL
         2 002651   002661 602000 2                  TNC     s:11657

      725    11651    4             THEN DO;

      726    11652    4                  RSIZE = 144;

  11652  2 002652   000220 235007                    LDA     144,DL
         2 002653   200036 755100                    STA     RSIZE,,AUTO

      727    11653    4                  S_D.ERROR = 240; /* E@ITEM_TRUNCATED */

  11653  2 002654   000360 235007                    LDA     240,DL
         2 002655   000000 471400 xsym               LDP1    S_D$
         2 002656   100013 755100                    STA     11,,PR1

      728    11654    4                  CALL_ERROR = '1'B;

  11654  2 002657   400000 236003                    LDQ     -131072,DU
         2 002660   200033 756100                    STQ     CALL_ERROR,,AUTO

      729    11655    4                END;
PL6.E3A0      #001=DDA$DISP File=DDA$DISP.:E05TSI                                TUE 07/29/97 13:18 Page:113

      730    11656    3           END;

      731    11657    2        CALL DDK$GETVAL(ADDR(VALUE), ITEM, SVALUE, SIZE, RSIZE,

  11657  2 002661   200050 631500                    EPPR1   VALUE,,AUTO
         2 002662   200142 451500                    STP1    CONT+2,,AUTO
         2 002663   200121 633500                    EPPR3   EIS,,AUTO
         2 002664   200157 453500                    STP3    CONT+15,,AUTO
         2 002665   000002 236000 3                  LDQ     2
         2 002666   200156 756100                    STQ     CONT+14,,AUTO
         2 002667   200045 634500                    EPPR4   ARRAY_FLAG,,AUTO
         2 002670   200155 454500                    STP4    CONT+13,,AUTO
         2 002671   200044 635500                    EPPR5   ADDR_TYPE,,AUTO
         2 002672   200154 455500                    STP5    CONT+12,,AUTO
         2 002673   200042 636500                    EPPR6   EXPR_OP,,AUTO
         2 002674   200153 456500                    STP6    CONT+11,,AUTO
         2 002675   200041 637500                    EPPR7   EXPR_VAL,,AUTO
         2 002676   200152 457500                    STP7    CONT+10,,AUTO
         2 002677   200040 630500                    EPPR0   POINTER,,AUTO
         2 002700   200151 450500                    STP0    CONT+9,,AUTO
         2 002701   200037 630500                    EPPR0   INDXX,,AUTO
         2 002702   200150 450500                    STP0    CONT+8,,AUTO
         2 002703   200036 630500                    EPPR0   RSIZE,,AUTO
         2 002704   200147 450500                    STP0    CONT+7,,AUTO
         2 002705   200035 630500                    EPPR0   SIZE,,AUTO
         2 002706   200146 450500                    STP0    CONT+6,,AUTO
         2 002707   200034 630500                    EPPR0   SVALUE,,AUTO
         2 002710   200145 450500                    STP0    CONT+5,,AUTO
         2 002711   200133 630500                    EPPR0   ITEM,,AUTO
         2 002712   200144 450500                    STP0    CONT+4,,AUTO
         2 002713   200142 630500                    EPPR0   CONT+2,,AUTO
         2 002714   200143 450500                    STP0    CONT+3,,AUTO
         2 002715   200143 630500                    EPPR0   CONT+3,,AUTO
         2 002716   000016 631400 3                  EPPR1   14
         2 002717   000000 701000 xent               TSX1    DDK$GETVAL
         2 002720   002775 702000 2                  TSX2    DERR
PL6.E3A0      #001=DDA$DISP File=DDA$DISP.:E05TSI                                TUE 07/29/97 13:18 Page:114
         2 002721   002723 710000 2                  TRA     s:11661

      732    11658    2          INDXX, POINTER, EXPR_VAL, EXPR_OP, ADDR_TYPE, ARRAY_FLAG,
      733    11659    2          '0'B, EIS) ALTRET(DERR);
      734    11660    2   DISPX: ENTRY ALTRET;

  11660  2 002722   200136 741300       DISPX        STX1  ! ITEM+3,,AUTO

      735    11661    2        CALL DDA$DISPFMT(FMT, RSIZE, VALUE, ZITEM.PUP ) ALTRET(DERR);

  11661  2 002723   200130 236100                    LDQ     ZITEM$,,AUTO
         2 002724   000010 036003                    ADLQ    8,DU
         2 002725   200145 756100                    STQ     CONT+5,,AUTO
         2 002726   200050 630500                    EPPR0   VALUE,,AUTO
         2 002727   200144 450500                    STP0    CONT+4,,AUTO
         2 002730   200036 631500                    EPPR1   RSIZE,,AUTO
         2 002731   200143 451500                    STP1    CONT+3,,AUTO
         2 002732   200007 633500                    EPPR3   FMT,,AUTO
         2 002733   200142 453500                    STP3    CONT+2,,AUTO
         2 002734   200142 630500                    EPPR0   CONT+2,,AUTO
         2 002735   000022 631400 xsym               EPPR1   B_VECTNIL+18
         2 002736   000000 701000 xent               TSX1    DDA$DISPFMT
         2 002737   002775 702000 2                  TSX2    DERR

      736    11662    2   PRINT:
      737    11663    2        CALL DDQ$WRITE(ADDR(S_D.OUTPUT), POFFC(S_D.D$, ADDR(S_D.OUTPUT)));

  11663  2 002740   000000 236000 xsym  PRINT        LDQ     S_D$
         2 002741   005335 036003                    ADLQ    2781,DU
         2 002742   000020 772000                    QRL     16
         2 002743   200142 756100                    STQ     CONT+2,,AUTO
         2 002744   000000 470400 xsym               LDP0    S_D$
         2 002745   000044 236100                    LDQ     36,,PR0
         2 002746   000020 772000                    QRL     16
         2 002747   200142 136100                    SBLQ    CONT+2,,AUTO
         2 002750   200144 756100                    STQ     CONT+4,,AUTO
         2 002751   000000 236000 xsym               LDQ     S_D$
PL6.E3A0      #001=DDA$DISP File=DDA$DISP.:E05TSI                                TUE 07/29/97 13:18 Page:115
         2 002752   005335 036003                    ADLQ    2781,DU
         2 002753   200143 756100                    STQ     CONT+3,,AUTO
         2 002754   200144 235100                    LDA     CONT+4,,AUTO
         2 002755   200145 755100                    STA     CONT+5,,AUTO
         2 002756   200145 631500                    EPPR1   CONT+5,,AUTO
         2 002757   200147 451500                    STP1    CONT+7,,AUTO
         2 002760   200143 633500                    EPPR3   CONT+3,,AUTO
         2 002761   200146 453500                    STP3    CONT+6,,AUTO
         2 002762   200146 630500                    EPPR0   CONT+6,,AUTO
         2 002763   000020 631400 xsym               EPPR1   B_VECTNIL+16
         2 002764   000000 701000 xent               TSX1    DDQ$WRITE
         2 002765   000000 011000                    NOP     0

      738    11664    2        IF CALL_ERROR

  11664  2 002766   200033 234100                    SZN     CALL_ERROR,,AUTO
         2 002767   002773 605000 2                  TPL     s:11666

      739    11665    2        THEN CALL DDE$ERROR;

  11665  2 002770   000002 631400 xsym               EPPR1   B_VECTNIL+2
         2 002771   000000 701000 xent               TSX1    DDE$ERROR
         2 002772   000000 011000                    NOP     0

      740    11666    2        RETURN;

  11666  2 002773   200136 221300                    LDX1  ! ITEM+3,,AUTO
         2 002774   000001 702211                    TSX2  ! 1,X1

      741    11667    2   DERR:
      742    11668    2        ALTRETURN;

  11668  2 002775   200136 221300       DERR         LDX1  ! ITEM+3,,AUTO
         2 002776   000000 702211                    TSX2  ! 0,X1

      743    11669    2   END DISP;
      744    11670        %EJECT;
PL6.E3A0      #001=DDA$DISP File=DDA$DISP.:E05TSI                                TUE 07/29/97 13:18 Page:116
      745    11671    1   DISP_L6: PROC ALTRET;

  11671  2 002777   200136 741300       DISP_L6      STX1  ! ITEM+3,,AUTO

      746    11672        /* Local Auto */
      747    11673    2   DCL I UBIN;
      748    11674    2   DCL CONT BIT(1) ALIGNED;
      749    11675
      750    11676    2        CONT = GD$MSG.DISPMEM_D.CONTINUE;

  11676  2 003000   000000 470400 xsym               LDP0    S_D_L6_MESSAGE$
         2 003001   000000 236100                    LDQ     0,,PR0
         2 003002   000026 736000                    QLS     22
         2 003003   400000 376003                    ANQ     -131072,DU
         2 003004   200140 756100                    STQ     CONT,,AUTO

      751    11677    2        IF CONT

  11677  2 003005   200140 234100                    SZN     CONT,,AUTO
         2 003006   003161 605000 2                  TPL     s:11724

      752    11678    3        THEN DO;

      753    11679    3             CALL DFQ$READ_FD(S_D.CURRENT_FPRG_CONTEXT$, '0'B) ALTRET(ERR);

  11679  2 003007   000002 236000 3                  LDQ     2
         2 003010   200143 756100                    STQ     CONT+3,,AUTO
         2 003011   000000 236000 xsym               LDQ     S_D$
         2 003012   000102 036003                    ADLQ    66,DU
         2 003013   200142 756100                    STQ     CONT+2,,AUTO
         2 003014   200142 630500                    EPPR0   CONT+2,,AUTO
         2 003015   000020 631400 xsym               EPPR1   B_VECTNIL+16
         2 003016   000000 701000 xent               TSX1    DFQ$READ_FD
         2 003017   003523 702000 2                  TSX2    ERR

      754    11680    3             IF GD$MSG.FNC ~= %GD#RSPDISPCHAR

PL6.E3A0      #001=DDA$DISP File=DDA$DISP.:E05TSI                                TUE 07/29/97 13:18 Page:117
  11680  2 003020   000000 470400 xsym               LDP0    S_D_L6_MESSAGE$
         2 003021   000000 236100                    LDQ     0,,PR0
         2 003022   776000 376003                    ANQ     -1024,DU
         2 003023   116000 116003                    CMPQ    39936,DU
         2 003024   003143 600000 2                  TZE     s:11716

      755    11681    4             THEN DO;

      756    11682    4                  IF S_D.CURRENT_FPRG_CONTEXT$ -> FPRG$CONTEXT.XDELTA AND

  11682  2 003025   000000 471400 xsym               LDP1    S_D$
         2 003026   100102 473500                    LDP3    66,,PR1
         2 003027   300001 236100                    LDQ     1,,PR3
         2 003030   002000 316003                    CANQ    1024,DU
         2 003031   003041 600000 2                  TZE     s:11688
         2 003032   000000 236100                    LDQ     0,,PR0
         2 003033   776000 376003                    ANQ     -1024,DU
         2 003034   140000 116003                    CMPQ    49152,DU
         2 003035   003041 601000 2                  TNZ     s:11688

      757    11683    4                    GD$MSG.FNC = %GD#RSPBADMSG
      758    11684    5                  THEN DO;

      759    11685    5                       S_D.ERROR = 330; /* E@BADMSG */

  11685  2 003036   000512 235007                    LDA     330,DL
         2 003037   100013 755100                    STA     11,,PR1

      760    11686    5                       GOTO DERR;

  11686  2 003040   003521 710000 2                  TRA     DERR

      761    11687    5                     END;
      762    11688    4                  IF GD$MSG.FNC = %GD#RSPBADADR

  11688  2 003041   000000 236100                    LDQ     0,,PR0
         2 003042   776000 376003                    ANQ     -1024,DU
PL6.E3A0      #001=DDA$DISP File=DDA$DISP.:E05TSI                                TUE 07/29/97 13:18 Page:118
         2 003043   156000 116003                    CMPQ    56320,DU
         2 003044   003050 601000 2                  TNZ     s:11693

      763    11689    5                  THEN DO;

      764    11690    5                       S_D.ERROR = 83; /* E@BADADDR */

  11690  2 003045   000123 235007                    LDA     83,DL
         2 003046   100013 755100                    STA     11,,PR1

      765    11691    5                       GOTO DERR;

  11691  2 003047   003521 710000 2                  TRA     DERR

      766    11692    5                     END;
      767    11693    4                  IF GD$MSG.FNC = %GD#RSPNAK

  11693  2 003050   150000 116003                    CMPQ    53248,DU
         2 003051   003122 601000 2                  TNZ     s:11708

      768    11694    5                  THEN DO;

      769    11695    5                       IF S_D.CURRENT_FPRG_CONTEXT$ -> FPRG$CONTEXT.XDELTA

  11695  2 003052   300001 236100                    LDQ     1,,PR3
         2 003053   002000 316003                    CANQ    1024,DU
         2 003054   003110 600000 2                  TZE     s:11704

      770    11696    6                       THEN DO;

      771    11697    6                            TEMP1 = BITBIN(GD$MSG.ERROR_D.ERRCODE);

  11697  2 003055   000000 235100                    LDA     0,,PR0
         2 003056   000001 236100                    LDQ     1,,PR0
         2 003057   000030 773000                    LRL     24
         2 003060   000017 376000 3                  ANQ     15
         2 003061   200023 756100                    STQ     TEMP$,,AUTO
PL6.E3A0      #001=DDA$DISP File=DDA$DISP.:E05TSI                                TUE 07/29/97 13:18 Page:119

      772    11698    6                            TEMP2B.B1 = TEMP1B.B1;

  11698  2 003062   200023 236100                    LDQ     TEMP$,,AUTO
         2 003063   000003 736000                    QLS     3
         2 003064   200024 676100                    ERQ     TEMP2,,AUTO
         2 003065   377000 376003                    ANQ     130560,DU
         2 003066   200024 656100                    ERSQ    TEMP2,,AUTO

      773    11699    6                            TEMP2B.B2 = TEMP1B.B2;

  11699  2 003067   200023 236100                    LDQ     TEMP$,,AUTO
         2 003070   000002 736000                    QLS     2
         2 003071   200024 676100                    ERQ     TEMP2,,AUTO
         2 003072   000377 376003                    ANQ     255,DU
         2 003073   200024 656100                    ERSQ    TEMP2,,AUTO

      774    11700    6                            TEMP2B.B3 = TEMP1B.B3;

  11700  2 003074   200023 236100                    LDQ     TEMP$,,AUTO
         2 003075   000001 736000                    QLS     1
         2 003076   200024 676100                    ERQ     TEMP2,,AUTO
         2 003077   377000 376007                    ANQ     130560,DL
         2 003100   200024 656100                    ERSQ    TEMP2,,AUTO

      775    11701    6                            TEMP2B.B4 = TEMP1B.B4;

  11701  2 003101   200023 236100                    LDQ     TEMP$,,AUTO
         2 003102   200024 676100                    ERQ     TEMP2,,AUTO
         2 003103   000377 376007                    ANQ     255,DL
         2 003104   200024 656100                    ERSQ    TEMP2,,AUTO

      776    11702    6                            S_D.JDE = TEMP2;

  11702  2 003105   200024 235100                    LDA     TEMP2,,AUTO
         2 003106   104733 755100                    STA     2523,,PR1

PL6.E3A0      #001=DDA$DISP File=DDA$DISP.:E05TSI                                TUE 07/29/97 13:18 Page:120
      777    11703    6                          END;

  11703  2 003107   003115 710000 2                  TRA     s:11705

      778    11704    5                       ELSE S_D.JDE = BITBIN(GD$MSG_HOST.ERROR_D.ERRCODE);

  11704  2 003110   000000 474400 xsym               LDP4    S_D_HOST_MESSAGE$
         2 003111   400000 235100                    LDA     0,,PR4
         2 003112   400001 236100                    LDQ     1,,PR4
         2 003113   000022 773000                    LRL     18
         2 003114   104733 756100                    STQ     2523,,PR1

      779    11705    5                       CALL DUE$GERRMSG;

  11705  2 003115   000002 631400 xsym               EPPR1   B_VECTNIL+2
         2 003116   000000 701000 xent               TSX1    DUE$GERRMSG
         2 003117   000000 011000                    NOP     0

      780    11706    5                       RETURN;

  11706  2 003120   200136 221300                    LDX1  ! ITEM+3,,AUTO
         2 003121   000001 702211                    TSX2  ! 1,X1

      781    11707    5                     END;
      782    11708    4                  CALL M$SCREECH (SNAP_MESSAGE) ALTRET(NEVER);

  11708  2 003122   000000 630400 xsym               EPPR0   SNAP_MESSAGE
         2 003123   400013 713400                    CLIMB   alt,+11
         2 003124   401000 401760                    pmme    nvectors=3
         2 003125   003126 702000 2                  TSX2    NEVER

      783    11709    4   NEVER:
      784    11710    4                  S_D.ERROR = 524; /* E@BADMESSAGE */

  11710  2 003126   001014 235007       NEVER        LDA     524,DL
         2 003127   000000 470400 xsym               LDP0    S_D$
         2 003130   000013 755100                    STA     11,,PR0
PL6.E3A0      #001=DDA$DISP File=DDA$DISP.:E05TSI                                TUE 07/29/97 13:18 Page:121

      785    11711    4                  CALL DDE$ERROR;

  11711  2 003131   000002 631400 xsym               EPPR1   B_VECTNIL+2
         2 003132   000000 701000 xent               TSX1    DDE$ERROR
         2 003133   000000 011000                    NOP     0

      786    11712    4                  S_D.ERROR = 502;    /* E@DELBUG */

  11712  2 003134   000766 235007                    LDA     502,DL
         2 003135   000000 470400 xsym               LDP0    S_D$
         2 003136   000013 755100                    STA     11,,PR0

      787    11713    4                  CALL DDE$ERROR;

  11713  2 003137   000002 631400 xsym               EPPR1   B_VECTNIL+2
         2 003140   000000 701000 xent               TSX1    DDE$ERROR
         2 003141   000000 011000                    NOP     0

      788    11714    4                  GOTO DERR;

  11714  2 003142   003521 710000 2                  TRA     DERR

      789    11715    4                END;
      790    11716    3             SIZE = GD$MSG.CHAR# * 8;

  11716  2 003143   000000 236100                    LDQ     0,,PR0
         2 003144   000021 772000                    QRL     17
         2 003145   003770 376007                    ANQ     2040,DL
         2 003146   200035 756100                    STQ     SIZE,,AUTO

      791    11717    3             IF SIZE/8 > 255

  11717  2 003147   000010 506007                    DIV     8,DL
         2 003150   000377 116007                    CMPQ    255,DL
         2 003151   003161 604400 2                  TMOZ    s:11724

PL6.E3A0      #001=DDA$DISP File=DDA$DISP.:E05TSI                                TUE 07/29/97 13:18 Page:122
      792    11718    4             THEN DO;

      793    11719    4                  S_D.ERROR = 41;    /* E@NODISP */

  11719  2 003152   000051 235007                    LDA     41,DL
         2 003153   000000 471400 xsym               LDP1    S_D$
         2 003154   100013 755100                    STA     11,,PR1

      794    11720    4                  CALL DDE$ERROR;

  11720  2 003155   000002 631400 xsym               EPPR1   B_VECTNIL+2
         2 003156   000000 701000 xent               TSX1    DDE$ERROR
         2 003157   000000 011000                    NOP     0

      795    11721    4                  GOTO DERR;

  11721  2 003160   003521 710000 2                  TRA     DERR

      796    11722    4                END;
      797    11723    3           END;
      798    11724    2        IF FMT = %CHAR_FMT

  11724  2 003161   200007 235100                    LDA     FMT,,AUTO
         2 003162   000004 115007                    CMPA    4,DL
         2 003163   003350 601000 2                  TNZ     s:11764

      799    11725    3        THEN DO;

      800    11726    3             IF SIZE < 0

  11726  2 003164   200035 236100                    LDQ     SIZE,,AUTO
         2 003165   003172 605000 2                  TPL     s:11731

      801    11727    4             THEN DO;

      802    11728    4                  S_D.ERROR = 253; /* E@INVALID_SIZE */

PL6.E3A0      #001=DDA$DISP File=DDA$DISP.:E05TSI                                TUE 07/29/97 13:18 Page:123
  11728  2 003166   000375 235007                    LDA     253,DL
         2 003167   000000 471400 xsym               LDP1    S_D$
         2 003170   100013 755100                    STA     11,,PR1

      803    11729    4                  GOTO DERR;

  11729  2 003171   003521 710000 2                  TRA     DERR

      804    11730    4                END;
      805    11731    3             SIZED8 = SIZE / 8;

  11731  2 003172   000010 506007                    DIV     8,DL
         2 003173   200021 756100                    STQ     SIZED8,,AUTO

      806    11732    3             IF SIZED8 > 312

  11732  2 003174   000471 116007                    CMPQ    313,DL
         2 003175   003205 602000 2                  TNC     s:11738

      807    11733    4             THEN DO;

      808    11734    4                  S_D.ERROR = 332; /* E@ITEM_TRUNC_312 */

  11734  2 003176   000514 235007                    LDA     332,DL
         2 003177   000000 471400 xsym               LDP1    S_D$
         2 003200   100013 755100                    STA     11,,PR1

      809    11735    4                  CALL_ERROR = '1'B;

  11735  2 003201   400000 236003                    LDQ     -131072,DU
         2 003202   200033 756100                    STQ     CALL_ERROR,,AUTO

      810    11736    4                  SIZED8 = 312;

  11736  2 003203   000470 235007                    LDA     312,DL
         2 003204   200021 755100                    STA     SIZED8,,AUTO

PL6.E3A0      #001=DDA$DISP File=DDA$DISP.:E05TSI                                TUE 07/29/97 13:18 Page:124
      811    11737    4                END;

      812    11738    3             SIZE = SIZED8 * 8;

  11738  2 003205   200021 235100                    LDA     SIZED8,,AUTO
         2 003206   000003 735000                    ALS     3
         2 003207   200035 755100                    STA     SIZE,,AUTO

      813    11739    3             CALL DDR$BUMPC_D$ (SIZED8 + 2) ALTRET(DERR);

  11739  2 003210   200021 236100                    LDQ     SIZED8,,AUTO
         2 003211   000002 036007                    ADLQ    2,DL
         2 003212   200142 756100                    STQ     CONT+2,,AUTO
         2 003213   200142 631500                    EPPR1   CONT+2,,AUTO
         2 003214   200143 451500                    STP1    CONT+3,,AUTO
         2 003215   200143 630500                    EPPR0   CONT+3,,AUTO
         2 003216   000017 631400 xsym               EPPR1   B_VECTNIL+15
         2 003217   000000 701000 xent               TSX1    DDR$BUMPC_D$
         2 003220   003521 702000 2                  TSX2    DERR

      814    11740    3             TEXT$ -> CHAR1 = '''';

  11740  2 003221   200014 470500                    LDP0    TEXT$,,AUTO
         2 003222   040100 100400                    MLR     fill='040'O
         2 003223   000014 000001 3                  ADSC9   12                       cn=0,n=1
         2 003224   000000 000001                    ADSC9   0,,PR0                   cn=0,n=1

      815    11741    3             TEXT$ = PINCRC(TEXT$, 1);

  11741  2 003225   200014 236100                    LDQ     TEXT$,,AUTO
         2 003226   200000 036007                    ADLQ    65536,DL
         2 003227   200014 756100                    STQ     TEXT$,,AUTO

      816    11742    3             IF NOT CONT

  11742  2 003230   200140 234100                    SZN     CONT,,AUTO
         2 003231   003305 604000 2                  TMI     s:11754
PL6.E3A0      #001=DDA$DISP File=DDA$DISP.:E05TSI                                TUE 07/29/97 13:18 Page:125

      817    11743    4             THEN DO;

      818    11744    5                  DO I = 0 TO (SIZED8-1)/2;

  11744  2 003232   200137 450100                    STZ     I,,AUTO
         2 003233   003271 710000 2                  TRA     s:11749+3

      819    11745    5                       TEXT$ -> CHAR1 = BINASC(VALUE_L6.OPSB.UH(I));

  11745  2 003234   200137 720100                    LXL0    I,,AUTO
         2 003235   200071 236110                    LDQ     VALUE_L6+1,X0,AUTO
         2 003236   000010 772000                    QRL     8
         2 003237   000377 376007                    ANQ     255,DL
         2 003240   000033 736000                    QLS     27
         2 003241   000020 276000 3                  ORQ     16
         2 003242   200142 756100                    STQ     CONT+2,,AUTO
         2 003243   200014 470500                    LDP0    TEXT$,,AUTO
         2 003244   040100 100500                    MLR     fill='040'O
         2 003245   200142 000004                    ADSC9   CONT+2,,AUTO             cn=0,n=4
         2 003246   000000 000001                    ADSC9   0,,PR0                   cn=0,n=1

      820    11746    5                       TEXT$ = PINCRC(TEXT$, 1);

  11746  2 003247   200014 236100                    LDQ     TEXT$,,AUTO
         2 003250   200000 036007                    ADLQ    65536,DL
         2 003251   200014 756100                    STQ     TEXT$,,AUTO

      821    11747    5                       TEXT$ -> CHAR1 = BINASC(VALUE_L6.OPSB.LH(I));

  11747  2 003252   200071 236110                    LDQ     VALUE_L6+1,X0,AUTO
         2 003253   000377 376007                    ANQ     255,DL
         2 003254   000033 736000                    QLS     27
         2 003255   000020 276000 3                  ORQ     16
         2 003256   200142 756100                    STQ     CONT+2,,AUTO
         2 003257   200014 470500                    LDP0    TEXT$,,AUTO
         2 003260   040100 100500                    MLR     fill='040'O
PL6.E3A0      #001=DDA$DISP File=DDA$DISP.:E05TSI                                TUE 07/29/97 13:18 Page:126
         2 003261   200142 000004                    ADSC9   CONT+2,,AUTO             cn=0,n=4
         2 003262   000000 000001                    ADSC9   0,,PR0                   cn=0,n=1

      822    11748    5                       TEXT$ = PINCRC(TEXT$, 1);

  11748  2 003263   200014 236100                    LDQ     TEXT$,,AUTO
         2 003264   200000 036007                    ADLQ    65536,DL
         2 003265   200014 756100                    STQ     TEXT$,,AUTO

      823    11749    5                     END;

  11749  2 003266   200137 235100                    LDA     I,,AUTO
         2 003267   000001 035007                    ADLA    1,DL
         2 003270   200137 755100                    STA     I,,AUTO
         2 003271   200021 236100                    LDQ     SIZED8,,AUTO
         2 003272   000001 136007                    SBLQ    1,DL
         2 003273   000002 506007                    DIV     2,DL
         2 003274   200137 116100                    CMPQ    I,,AUTO
         2 003275   003234 603000 2                  TRC     s:11745

      824    11750    4                  IF MOD(SIZED8, 2) ~= 0

  11750  2 003276   200021 236100                    LDQ     SIZED8,,AUTO
         2 003277   000001 376007                    ANQ     1,DL
         2 003300   003343 600000 2                  TZE     s:11761

      825    11751    4                  THEN TEXT$ = PINCRC(TEXT$, -1);

  11751  2 003301   200014 236100                    LDQ     TEXT$,,AUTO
         2 003302   000034 036000 xsym               ADLQ    B_VECTNIL+28
         2 003303   200014 756100                    STQ     TEXT$,,AUTO

      826    11752    4                END;

  11752  2 003304   003343 710000 2                  TRA     s:11761

      827    11753    4             ELSE DO;
PL6.E3A0      #001=DDA$DISP File=DDA$DISP.:E05TSI                                TUE 07/29/97 13:18 Page:127

      828    11754    4                  TEMP$ = ADDR(GD$MSG.DISPCHAR);

  11754  2 003305   000000 236000 xsym               LDQ     S_D_L6_MESSAGE$
         2 003306   270000 036007                    ADLQ    94208,DL
         2 003307   200023 756100                    STQ     TEMP$,,AUTO

      829    11755    5                  DO I = 0 TO (SIZED8-1);

  11755  2 003310   200137 450100                    STZ     I,,AUTO
         2 003311   003340 710000 2                  TRA     s:11759+3

      830    11756    5                       TEXT$ -> CHAR1 = BINASC(TEMP$ -> BVALUE_L6);

  11756  2 003312   200023 470500                    LDP0    TEMP$,,AUTO
         2 003313   003100 061500                    CSR     bolr='003'O
         2 003314   000000 000010                    BDSC    0,,PR0                   by=0,bit=0,n=8
         2 003315   200142 000044                    BDSC    CONT+2,,AUTO             by=0,bit=0,n=36
         2 003316   200142 236100                    LDQ     CONT+2,,AUTO
         2 003317   000033 736000                    QLS     27
         2 003320   000020 276000 3                  ORQ     16
         2 003321   200143 756100                    STQ     CONT+3,,AUTO
         2 003322   200014 471500                    LDP1    TEXT$,,AUTO
         2 003323   040100 100500                    MLR     fill='040'O
         2 003324   200143 000004                    ADSC9   CONT+3,,AUTO             cn=0,n=4
         2 003325   100000 000001                    ADSC9   0,,PR1                   cn=0,n=1

      831    11757    5                       TEXT$ = PINCRC(TEXT$, 1);

  11757  2 003326   200014 236100                    LDQ     TEXT$,,AUTO
         2 003327   200000 036007                    ADLQ    65536,DL
         2 003330   200014 756100                    STQ     TEXT$,,AUTO

      832    11758    5                       TEMP$ = PINCRB(TEMP$, 8);

  11758  2 003331   200023 470500                    LDP0    TEMP$,,AUTO
         2 003332   000010 220003                    LDX0    8,DU
PL6.E3A0      #001=DDA$DISP File=DDA$DISP.:E05TSI                                TUE 07/29/97 13:18 Page:128
         2 003333   000000 503510                    ABD     0,X0,PR0
         2 003334   200023 450500                    STP0    TEMP$,,AUTO

      833    11759    5                     END;

  11759  2 003335   200137 235100                    LDA     I,,AUTO
         2 003336   000001 035007                    ADLA    1,DL
         2 003337   200137 755100                    STA     I,,AUTO
         2 003340   200137 236100                    LDQ     I,,AUTO
         2 003341   200021 116100                    CMPQ    SIZED8,,AUTO
         2 003342   003312 602000 2                  TNC     s:11756

      834    11760    4                END;

      835    11761    3             TEXT$ -> CHAR1 = '''';

  11761  2 003343   200014 470500                    LDP0    TEXT$,,AUTO
         2 003344   040100 100400                    MLR     fill='040'O
         2 003345   000014 000001 3                  ADSC9   12                       cn=0,n=1
         2 003346   000000 000001                    ADSC9   0,,PR0                   cn=0,n=1

      836    11762    3             GOTO PRINT;

  11762  2 003347   003464 710000 2                  TRA     PRINT

      837    11763    3           END;
      838    11764    2        IF CONT

  11764  2 003350   200140 234100                    SZN     CONT,,AUTO
         2 003351   003422 605000 2                  TPL     s:11777

      839    11765    3        THEN DO;

      840    11766    3             IF SIZE > 256

  11766  2 003352   200035 236100                    LDQ     SIZE,,AUTO
         2 003353   000400 116007                    CMPQ    256,DL
PL6.E3A0      #001=DDA$DISP File=DDA$DISP.:E05TSI                                TUE 07/29/97 13:18 Page:129
         2 003354   003357 604400 2                  TMOZ    s:11768

      841    11767    3             THEN SIZE = 256;

  11767  2 003355   000400 235007                    LDA     256,DL
         2 003356   200035 755100                    STA     SIZE,,AUTO

      842    11768    3             TEMP$ = ADDR(GD$MSG.DISPCHAR);

  11768  2 003357   000000 236000 xsym               LDQ     S_D_L6_MESSAGE$
         2 003360   270000 036007                    ADLQ    94208,DL
         2 003361   200023 756100                    STQ     TEMP$,,AUTO

      843    11769    4             DO I = 0 TO (SIZE + 15)/16 - 1;

  11769  2 003362   200137 450100                    STZ     I,,AUTO
         2 003363   003407 710000 2                  TRA     s:11774+3

      844    11770    4                  VALUE_L6.OPSB.UH(I) = TEMP$ -> BVALUE_L6;

  11770  2 003364   200137 236100                    LDQ     I,,AUTO
         2 003365   000044 402007                    MPY     36,DL
         2 003366   200023 470500                    LDP0    TEMP$,,AUTO
         2 003367   003106 060500                    CSL     bolr='003'O
         2 003370   000000 000010                    BDSC    0,,PR0                   by=0,bit=0,n=8
         2 003371   200071 420010                    BDSC    VALUE_L6+1,Q,AUTO        by=2,bit=2,n=8

      845    11771    4                  TEMP$ = PINCRB(TEMP$, 8);

  11771  2 003372   200023 470500                    LDP0    TEMP$,,AUTO
         2 003373   000010 220003                    LDX0    8,DU
         2 003374   000000 503510                    ABD     0,X0,PR0
         2 003375   200023 450500                    STP0    TEMP$,,AUTO

      846    11772    4                  VALUE_L6.OPSB.LH(I) = TEMP$ -> BVALUE_L6;

  11772  2 003376   003106 060500                    CSL     bolr='003'O
PL6.E3A0      #001=DDA$DISP File=DDA$DISP.:E05TSI                                TUE 07/29/97 13:18 Page:130
         2 003377   000000 000010                    BDSC    0,,PR0                   by=0,bit=0,n=8
         2 003400   200071 610010                    BDSC    VALUE_L6+1,Q,AUTO        by=3,bit=1,n=8

      847    11773    4                  TEMP$ = PINCRB(TEMP$, 8);

  11773  2 003401   200023 470500                    LDP0    TEMP$,,AUTO
         2 003402   000000 503510                    ABD     0,X0,PR0
         2 003403   200023 450500                    STP0    TEMP$,,AUTO

      848    11774    4                END;

  11774  2 003404   200137 235100                    LDA     I,,AUTO
         2 003405   000001 035007                    ADLA    1,DL
         2 003406   200137 755100                    STA     I,,AUTO
         2 003407   200035 236100                    LDQ     SIZE,,AUTO
         2 003410   000017 036007                    ADLQ    15,DL
         2 003411   000020 506007                    DIV     16,DL
         2 003412   000000 116003                    CMPQ    0,DU
         2 003413   003417 604000 2                  TMI     s:11775
         2 003414   200137 116100                    CMPQ    I,,AUTO
         2 003415   003417 600000 2                  TZE     s:11775
         2 003416   003364 603000 2                  TRC     s:11770

      849    11775    3             VALUE_L6.SIZE = I + 1;

  11775  2 003417   200137 235100                    LDA     I,,AUTO
         2 003420   000001 035007                    ADLA    1,DL
         2 003421   200070 755100                    STA     VALUE_L6,,AUTO

      850    11776    3           END;

      851    11777    2        IF SIZE > 256

  11777  2 003422   200035 235100                    LDA     SIZE,,AUTO
         2 003423   000400 115007                    CMPA    256,DL
         2 003424   003434 604400 2                  TMOZ    s:11783

PL6.E3A0      #001=DDA$DISP File=DDA$DISP.:E05TSI                                TUE 07/29/97 13:18 Page:131
      852    11778    3        THEN DO;

      853    11779    3             S_D.ERROR = 324; /* E@ITEM_TRUNC_256 */

  11779  2 003425   000504 236007                    LDQ     324,DL
         2 003426   000000 470400 xsym               LDP0    S_D$
         2 003427   000013 756100                    STQ     11,,PR0

      854    11780    3             CALL_ERROR = '1'B;

  11780  2 003430   400000 236003                    LDQ     -131072,DU
         2 003431   200033 756100                    STQ     CALL_ERROR,,AUTO

      855    11781    3             SIZE = 256;

  11781  2 003432   000400 235007                    LDA     256,DL
         2 003433   200035 755100                    STA     SIZE,,AUTO

      856    11782    3           END;

      857    11783    2        IF EXPR_OP_L6

  11783  2 003434   200043 234100                    SZN     EXPR_OP_L6,,AUTO
         2 003435   003446 605000 2                  TPL     s:11789

      858    11784    3        THEN DO;

      859    11785    3             IF FMT = %PTR_FMT

  11785  2 003436   200007 236100                    LDQ     FMT,,AUTO
         2 003437   000007 116007                    CMPQ    7,DL
         2 003440   003444 601000 2                  TNZ     s:11787

      860    11786    3             THEN SIZE = 32;

  11786  2 003441   000040 235007                    LDA     32,DL
         2 003442   200035 755100                    STA     SIZE,,AUTO
PL6.E3A0      #001=DDA$DISP File=DDA$DISP.:E05TSI                                TUE 07/29/97 13:18 Page:132
         2 003443   003446 710000 2                  TRA     s:11789

      861    11787    3             ELSE SIZE = 16;

  11787  2 003444   000020 235007                    LDA     16,DL
         2 003445   200035 755100                    STA     SIZE,,AUTO

      862    11788    3           END;

      863    11789    2        RSIZE = SIZE;

  11789  2 003446   200036 755100                    STA     RSIZE,,AUTO

      864    11790    2        CALL DDA$DISPFMT(FMT, RSIZE, VALUE_L6.OPS(0), ZITEM.PUP) ALTRET(DERR);

  11790  2 003447   200130 236100                    LDQ     ZITEM$,,AUTO
         2 003450   000010 036003                    ADLQ    8,DU
         2 003451   200145 756100                    STQ     CONT+5,,AUTO
         2 003452   200071 630500                    EPPR0   VALUE_L6+1,,AUTO
         2 003453   200144 450500                    STP0    CONT+4,,AUTO
         2 003454   200036 631500                    EPPR1   RSIZE,,AUTO
         2 003455   200143 451500                    STP1    CONT+3,,AUTO
         2 003456   200007 633500                    EPPR3   FMT,,AUTO
         2 003457   200142 453500                    STP3    CONT+2,,AUTO
         2 003460   200142 630500                    EPPR0   CONT+2,,AUTO
         2 003461   000022 631400 xsym               EPPR1   B_VECTNIL+18
         2 003462   000000 701000 xent               TSX1    DDA$DISPFMT
         2 003463   003521 702000 2                  TSX2    DERR

      865    11791    2   PRINT:
      866    11792    2        CALL DDQ$WRITE(ADDR(S_D.OUTPUT), POFFC(S_D.D$, ADDR(S_D.OUTPUT)));

  11792  2 003464   000000 236000 xsym  PRINT        LDQ     S_D$
         2 003465   005335 036003                    ADLQ    2781,DU
         2 003466   000020 772000                    QRL     16
         2 003467   200142 756100                    STQ     CONT+2,,AUTO
         2 003470   000000 470400 xsym               LDP0    S_D$
PL6.E3A0      #001=DDA$DISP File=DDA$DISP.:E05TSI                                TUE 07/29/97 13:18 Page:133
         2 003471   000044 236100                    LDQ     36,,PR0
         2 003472   000020 772000                    QRL     16
         2 003473   200142 136100                    SBLQ    CONT+2,,AUTO
         2 003474   200144 756100                    STQ     CONT+4,,AUTO
         2 003475   000000 236000 xsym               LDQ     S_D$
         2 003476   005335 036003                    ADLQ    2781,DU
         2 003477   200143 756100                    STQ     CONT+3,,AUTO
         2 003500   200144 235100                    LDA     CONT+4,,AUTO
         2 003501   200145 755100                    STA     CONT+5,,AUTO
         2 003502   200145 631500                    EPPR1   CONT+5,,AUTO
         2 003503   200147 451500                    STP1    CONT+7,,AUTO
         2 003504   200143 633500                    EPPR3   CONT+3,,AUTO
         2 003505   200146 453500                    STP3    CONT+6,,AUTO
         2 003506   200146 630500                    EPPR0   CONT+6,,AUTO
         2 003507   000020 631400 xsym               EPPR1   B_VECTNIL+16
         2 003510   000000 701000 xent               TSX1    DDQ$WRITE
         2 003511   000000 011000                    NOP     0

      867    11793    2        IF CALL_ERROR

  11793  2 003512   200033 234100                    SZN     CALL_ERROR,,AUTO
         2 003513   003517 605000 2                  TPL     s:11795

      868    11794    2        THEN CALL DDE$ERROR;

  11794  2 003514   000002 631400 xsym               EPPR1   B_VECTNIL+2
         2 003515   000000 701000 xent               TSX1    DDE$ERROR
         2 003516   000000 011000                    NOP     0

      869    11795    2        RETURN;

  11795  2 003517   200136 221300                    LDX1  ! ITEM+3,,AUTO
         2 003520   000001 702211                    TSX2  ! 1,X1

      870    11796    2   DERR:
      871    11797    2        ALTRETURN;

PL6.E3A0      #001=DDA$DISP File=DDA$DISP.:E05TSI                                TUE 07/29/97 13:18 Page:134
  11797  2 003521   200136 221300       DERR         LDX1  ! ITEM+3,,AUTO
         2 003522   000000 702211                    TSX2  ! 0,X1

  11793  2 003523                       ERR          null
      872    11798    2   ERR: ;
      873    11799    2        CALL DUE$ERRMSG;

  11799  2 003523   000002 631400 xsym               EPPR1   B_VECTNIL+2
         2 003524   000000 701000 xent               TSX1    DUE$ERRMSG
         2 003525   000000 011000                    NOP     0

      874    11800    2        RETURN;

  11800  2 003526   200136 221300                    LDX1  ! ITEM+3,,AUTO
         2 003527   000001 702211                    TSX2  ! 1,X1

MVN
 Sect OctLoc
   0     000   000000 000004   000000 000005   000000 000006                    ............

(unnamed)
 Sect OctLoc
   0     003   040075 040040                                                     =

(unnamed)
 Sect OctLoc
   3     000   000005 006000   000011 000000   000002 006000   000000 000041    ...............!
   3     004   000003 006000   000003 777777   050040 040040   005335 200000    ........(   ....
   3     010   055040 040040   000003 006000   000004 006000   051040 040040    -   ........)
   3     014   047040 040040   000014 000000   000015 000000   037777 777777    '   ............
   3     020   000040 040040                                                    .
      875    11801    2   END DISP_L6;
      876    11802    1   END DDA$DISP;

PL6.E3A0      #001=DDA$DISP File=DDA$DISP.:E05TSI                                TUE 07/29/97 13:18 Page:135
--  Include file information  --

   DD_DEBUG_C.:E05TOU  is referenced.
   B$OBJECT_C.:E05TOU  is referenced.
   DD$DA.:E05TOU  cannot be made into a system file and is referenced.
   NI$TABLES.:E05TOU  is referenced.
   IR_DATA_M.:E05TOU  is referenced.
   CP_6.:E05TOU  cannot be made into a system file and is referenced.
   DD_SD_M.:E05TOU  is referenced.
   XUH_MACRO_C.:E05TOU  is referenced.
   GD_EQUS_E.:E05TOU  is referenced.
   GD$MSG_M.:E05TOU  is referenced.
   DU_SCODE_C.:E05TOU  is referenced.
   DD_ERR_C.:E05TOU  is referenced.
   B$SS.:E05TOU  cannot be made into a system file and is referenced.
   DD_SRTN_C.:E05TOU  is referenced.
   DD_ACODE_C.:E05TOU  is referenced.
   DD_ICODE_C.:E05TOU  is referenced.
   DD$DITEM.:E05TOU  cannot be made into a system file and is referenced.
   DD_SUBS_C.:E05TOU  is referenced.
   DD$BASED.:E05TOU  is referenced.
   B$JIT_C.:E05TOU  was found in the system file and is never referenced.
   CP_6_C.:E05TOU  was found in the system file and is referenced.
      No diagnostics issued in procedure DDA$DISP.

   Procedure DDA$DISP requires 1880 words for executable code.
   Procedure DDA$DISP requires 112 words of local(AUTO) storage.

    No errors detected in file DDA$DISP.:E05TSI    .
PL6.E3A0      #001=DDA$DISP File=DDA$DISP.:E05TSI                                TUE 07/29/97 13:18 Page:136
          *** CROSS REFERENCE LISTING ***
**     DENOTES     IDENTIFIER DEFINITION
<<                 IDENTIFIER'S VALUE SET
>>                 IDENTIFIER'S VALUE USED
<>                 IDENTIFIER SET AND/OR USED
--                 IDENTIFIER REFERENCED
PL6.E3A0      #001=DDA$DISP File=DDA$DISP.:E05TSI                                TUE 07/29/97 13:18 Page:137
          MINI XREF LISTING

ADDRESS
        48**DCL     11169<>CALL    11181<>CALL    11290<>CALL    11298<>CALL    11300<>CALL    11303<>CALL
     11305<>CALL    11336<>CALL    11356<>CALL    11477<>CALL    11514<>CALL    11564<>CALL
ADDR_TYPE
        68**DCL     11164<>CALL    11512<>CALL    11617<>CALL    11657<>CALL
ARRAY_FLAG
        69**DCL     11164<>CALL    11512<>CALL    11617<>CALL    11657<>CALL
B$HEAD.PRIV
     10880**DCL     11447>>ASSIGN
B$HEAD.START
     10924**DCL     11445>>ASSIGN
B$SS.IR
      2769**DCL     11333>>ASSIGN
B$SS.RVA
      2801**DCL      2802--REDEF
BIT72
       105**DCL     11278>>ASSIGN  11280>>ASSIGN
BVALUE_L6
        87**DCL     11756>>ASSIGN  11770>>ASSIGN  11772>>ASSIGN
CALL_ERROR
        52**DCL     11106<<ASSIGN  11112<<ASSIGN  11645<<ASSIGN  11654<<ASSIGN  11664>>IF      11735<<ASSIGN
     11780<<ASSIGN  11793>>IF
CHAR1
        53**DCL     11532<<ASSIGN  11546<<ASSIGN  11615<<ASSIGN  11621<<ASSIGN  11740<<ASSIGN  11745<<ASSIGN
     11747<<ASSIGN  11756<<ASSIGN  11761<<ASSIGN
CHAR3
        55**DCL     11159<<ASSIGN  11194<<ASSIGN  11551<<ASSIGN
CONT IN PROCEDURE DISP_L6
     11674**DCL     11676<<ASSIGN  11677>>IF      11742>>IF      11764>>IF
DA.CURLS$
      7321**DCL     11280>>ASSIGN
DA.RVBUFF$
PL6.E3A0      #001=DDA$DISP File=DDA$DISP.:E05TSI                                TUE 07/29/97 13:18 Page:138
      7326**DCL     11277>>ASSIGN
DDA$DISPFMT
     11094**DCL-ENT 11185--CALL    11568--CALL    11661--CALL    11790--CALL
DDA$GETDESC
     11083**DCL-ENT 11286--CALL
DDE$ERROR
     11093**DCL-ENT 11214--CALL    11264--CALL    11485--CALL    11665--CALL    11711--CALL    11713--CALL
     11720--CALL    11794--CALL
DDI$GET_PATCH_SPACE
     11086**DCL-ENT 11414--CALL    11427--CALL
DDK$EVAL
     11095**DCL-ENT 11298--CALL
DDK$GETADDR
     11087**DCL-ENT 11164--CALL    11512--CALL
DDK$GETMVAL
     11081**DCL-ENT 11303--CALL
DDK$GETVAL
     11080**DCL-ENT 11617--CALL    11657--CALL
DDK$GET_EA
     11096**DCL-ENT 11405--CALL
DDK$GET_EAQ
     11097**DCL-ENT 11410--CALL
DDQ$WRITE
     11088**DCL-ENT 11663--CALL    11792--CALL
DDR$BINTXT
     11089**DCL-ENT 11536--CALL
DDR$BUMPC_D$
     11091**DCL-ENT 11143--CALL    11148--CALL    11158--CALL    11193--CALL    11533--CALL    11537--CALL
     11542--CALL    11547--CALL    11550--CALL    11614--CALL    11739--CALL
DDR$POSIT
     11092**DCL-ENT 11141--CALL
DD_ANLZSEG$
      7317**DCL      7318--IMP-PTR 11277>>ASSIGN  11280>>ASSIGN
DERR
     11582**LABEL   11141--CALLALT 11143--CALLALT 11148--CALLALT 11158--CALLALT 11164--CALLALT 11166--CALLALT
     11169--CALLALT 11171--CALLALT 11181--CALLALT 11185--CALLALT 11193--CALLALT 11283--GOTO    11290--CALLALT
PL6.E3A0      #001=DDA$DISP File=DDA$DISP.:E05TSI                                TUE 07/29/97 13:18 Page:139
     11298--CALLALT 11300--CALLALT 11303--CALLALT 11305--CALLALT 11311--CALLALT 11314--CALLALT 11336--CALLALT
     11356--CALLALT 11477--CALLALT 11489--CALLALT 11490--CALLALT 11512--CALLALT 11514--CALLALT 11533--CALLALT
     11537--CALLALT 11542--CALLALT 11547--CALLALT 11550--CALLALT 11554--CALLALT 11555--CALLALT 11564--CALLALT
     11568--CALLALT
DERR IN PROCEDURE DISP
     11668**LABEL   11605--GOTO    11612--GOTO    11614--CALLALT 11617--CALLALT 11657--CALLALT 11661--CALLALT
DERR IN PROCEDURE DISP_L6
     11797**LABEL   11686--GOTO    11691--GOTO    11714--GOTO    11721--GOTO    11729--GOTO    11739--CALLALT
     11790--CALLALT
DESC#
        50**DCL     11169<>CALL    11181<>CALL    11290<>CALL    11298<>CALL    11300<>CALL    11303<>CALL
     11305<>CALL    11336<>CALL    11356<>CALL    11477<>CALL    11514<>CALL    11564<>CALL
DESC$
        16**DCL     11113<<ASSIGN  11115>>ASSIGN  11161>>ASSIGN  11294>>ASSIGN  11297>>ASSIGN  11509>>ASSIGN
DFK$EVAL_DISP
     11098**DCL-ENT 11169--CALL    11181--CALL    11290--CALL    11336--CALL    11356--CALL    11477--CALL
     11514--CALL    11564--CALL
DFK$GETMVAL
     11099**DCL-ENT 11305--CALL
DFQ$READ_FD
     11100**DCL-ENT 11679--CALL
DISP
     11596**PROC    11166--CALL    11554--CALL
DISPLAY.NUM
      1491**DCL     11110>>ASSIGN
DISPX IN PROCEDURE DISP
     11660**ENTRY   11311--CALL    11489--CALL
DISP_L6
     11671**PROC    11171--CALL    11314--CALL    11490--CALL    11555--CALL
DITEM.ADDRESS
      2563**DCL      2568--REDEF    2569--REDEF    2570--REDEF
DITEM.SP.VD
      2571**DCL      2575--REDEF    2578--REDEF
DITEM.VALUE
      2568**DCL     11185<>CALL    11568<>CALL
DO$
PL6.E3A0      #001=DDA$DISP File=DDA$DISP.:E05TSI                                TUE 07/29/97 13:18 Page:140
        91**DCL      1486--IMP-PTR 11107<<ASSIGN  11110>>ASSIGN
DOFF
        46**DCL     11208<<ASSIGN  11211<<ASSIGN  11222<<ASSIGN  11225<<ASSIGN  11230<<ASSIGN  11234<<ASSIGN
     11238<<ASSIGN  11244<<ASSIGN  11251<<ASSIGN  11277>>IF      11278>>ASSIGN  11280>>ASSIGN  11286<>CALL
DONE
     11580**LABEL   11109--REMEMBR
DUE$ERRMSG
     11102**DCL-ENT 11799--CALL
DUE$GERRMSG
     11103**DCL-ENT 11705--CALL
DUL$GETMVAL
     11104**DCL-ENT 11300--CALL
D_XDELTA
       115**DCL     11116>>IF      11327>>IF      11332>>IF      11386>>IF      11396>>IF
EIS
        92**DCL     11632<<ASSIGN  11638<<ASSIGN  11657<>CALL
ERR IN PROCEDURE DISP_L6
     11793**LABEL   11679--CALLALT
EXPR_OP
        66**DCL     11164<>CALL    11512<>CALL    11617<>CALL    11627>>IF      11657<>CALL
EXPR_OP_L6
        67**DCL     11169<>CALL    11181<>CALL    11290<>CALL    11336<>CALL    11356<>CALL    11477<>CALL
     11514<>CALL    11564<>CALL    11783>>IF
EXPR_VAL
        65**DCL     11164<>CALL    11512<>CALL    11617<>CALL    11657<>CALL
FMT
        15**DCL     11123<<ASSIGN  11600>>IF      11625>>IF      11633>>IF      11661<>CALL    11724>>IF
     11785>>IF      11790<>CALL
FPRG$CONTEXT.XDELTA
      1436**DCL     11682>>IF      11695>>IF
FPT$DRTN.V.IR#
      6844**DCL      6844--REDEF   11334>>ASSIGN
GD$MSG.BRKRQS.IF$CONST.SIZE
      3570**DCL      3570--REDEF
GD$MSG.BRKRQS.IF$CONST.TEXT
      3570**DCL      3571--REDEF    3571--REDEF    3572--REDEF    3573--REDEF
PL6.E3A0      #001=DDA$DISP File=DDA$DISP.:E05TSI                                TUE 07/29/97 13:18 Page:141
GD$MSG.BRKRSP.BRK#
      3584**DCL      3584--REDEF
GD$MSG.BRKRSP.USER#
      3584**DCL      3584--REDEF
GD$MSG.CHAR#
      3523**DCL     11716>>ASSIGN
GD$MSG.DISPCHAR
      3524**DCL     11754--ASSIGN  11768--ASSIGN
GD$MSG.DISPMEM_D.CONTINUE
      3530**DCL     11676>>ASSIGN
GD$MSG.ERROR_D.ERRCODE
      3525**DCL     11697>>ASSIGN
GD$MSG.FNC
      3519**DCL     11680>>IF      11682>>IF      11688>>IF      11693>>IF
GD$MSG.LETMEM_D.VALUE.SIZE
      3542**DCL      3542--REDEF
GD$MSG.LETMEM_D.VALUE.TEXT
      3543**DCL      3543--REDEF    3543--REDEF    3544--REDEF    3545--REDEF
GD$MSG.MESSAGE
      3524**DCL      3524--REDEF    3525--REDEF    3525--REDEF    3526--REDEF    3537--REDEF    3550--REDEF
      3555--REDEF    3562--REDEF    3578--REDEF    3583--REDEF    3589--REDEF    3590--REDEF    3619--REDEF
      3621--REDEF    3632--REDEF    3639--REDEF    3651--REDEF
GD$MSG.SUBFNC
      3519**DCL      3519--REDEF    3523--REDEF
GD$MSG.TSA.I
      3591**DCL      3591--REDEF
GD$MSG.TSA.S
      3593**DCL      3593--REDEF
GD$MSG.USERQS.ASDT$
      3619**DCL      3619--REDEF    3620--REDEF
GD$MSG_HOST.BRKRQS.IF$CONST.SIZE
      3726**DCL      3726--REDEF
GD$MSG_HOST.BRKRQS.IF$CONST.TEXT
      3726**DCL      3727--REDEF    3727--REDEF    3728--REDEF    3729--REDEF
GD$MSG_HOST.BRKRSP.BRK#
      3740**DCL      3740--REDEF
PL6.E3A0      #001=DDA$DISP File=DDA$DISP.:E05TSI                                TUE 07/29/97 13:18 Page:142
GD$MSG_HOST.BRKRSP.USER#
      3740**DCL      3740--REDEF
GD$MSG_HOST.ERROR_D.ERRCODE
      3681**DCL     11704>>ASSIGN
GD$MSG_HOST.LETMEM_D.VALUE.SIZE
      3698**DCL      3698--REDEF
GD$MSG_HOST.LETMEM_D.VALUE.TEXT
      3699**DCL      3699--REDEF    3699--REDEF    3700--REDEF    3701--REDEF
GD$MSG_HOST.MESSAGE
      3680**DCL      3680--REDEF    3681--REDEF    3681--REDEF    3682--REDEF    3693--REDEF    3706--REDEF
      3711--REDEF    3718--REDEF    3734--REDEF    3739--REDEF    3745--REDEF    3746--REDEF    3775--REDEF
      3777--REDEF    3788--REDEF    3795--REDEF    3807--REDEF
GD$MSG_HOST.SUBFNC
      3675**DCL      3675--REDEF    3679--REDEF
GD$MSG_HOST.TSA.I
      3747**DCL      3747--REDEF
GD$MSG_HOST.TSA.S
      3749**DCL      3749--REDEF
GD$MSG_HOST.USERQS.ASDT$
      3775**DCL      3775--REDEF    3776--REDEF
I IN PROCEDURE DISP_L6
     11673**DCL     11744<<DOINDEX 11745>>ASSIGN  11747>>ASSIGN  11755<<DOINDEX 11769<<DOINDEX 11770>>ASSIGN
     11772>>ASSIGN  11775>>ASSIGN
INDXX
        63**DCL     11164<>CALL    11512<>CALL    11617<>CALL    11657<>CALL
ITEM
      2622**DCL     11164<>CALL    11512<>CALL    11617<>CALL    11657<>CALL
ITEM.ADDRESS
      2643**DCL      2648--REDEF    2649--REDEF    2650--REDEF
ITEM.SP.VD
      2651**DCL      2655--REDEF    2658--REDEF
M$SCREECH
      6773**DCL-ENT 11708--CALL
MIS$
       114**DCL     11397>>ASSIGN
MITEM.AMULT.ADR
PL6.E3A0      #001=DDA$DISP File=DDA$DISP.:E05TSI                                TUE 07/29/97 13:18 Page:143
      2720**DCL      2724--REDEF
MITEM.AOFS.ADR
      2735**DCL      2739--REDEF
MITEM.MULT
      2716**DCL      2718--REDEF
MITEM.OFS
      2731**DCL      2733--REDEF
MVN
        96**DCL     11638>>ASSIGN
MYBUF
        89**DCL     11108--ASSIGN  11538>>ASSIGN
MYBUF$
        90**DCL     11108<<ASSIGN  11536<>CALL
N
        13**DCL     11111<<DOINDEX
NCHARS
        21**DCL        22--IMP-SIZ    95--IMP-SIZ 11141<>CALL    11143<>CALL    11147<<ASSIGN  11148<>CALL
     11149>>ASSIGN  11149>>ASSIGN  11522<<ASSIGN  11523>>ASSIGN  11524>>ASSIGN  11525>>ASSIGN  11536<>CALL
     11537<>CALL    11538>>ASSIGN
NEVER IN PROCEDURE DISP_L6
     11710**LABEL   11708--CALLALT
NEXT
     11577**LABEL   11316--GOTO
NEXT$
        17**DCL     11115<<ASSIGN  11176>>ASSIGN  11179>>ASSIGN  11180>>ASSIGN  11180>>ASSIGN  11299<<ASSIGN
     11559>>ASSIGN  11562>>ASSIGN  11563>>ASSIGN  11563>>ASSIGN  11577>>ASSIGN
NOTHOST
     11587**LABEL   11322--GOTO    11326--GOTO    11349--GOTO    11361--GOTO    11365--GOTO    11369--GOTO
     11373--GOTO    11377--GOTO    11381--GOTO    11385--GOTO    11395--GOTO    11400--GOTO    11404--GOTO
     11409--GOTO
NOTL6
     11590**LABEL   11261--GOTO    11476--GOTO
NOTXDELTA
     11389**LABEL   11327--GOTO    11396--GOTO
NOT_IS
        51**DCL     11169<>CALL    11181<>CALL    11290<>CALL    11298<>CALL    11300<>CALL    11303<>CALL
PL6.E3A0      #001=DDA$DISP File=DDA$DISP.:E05TSI                                TUE 07/29/97 13:18 Page:144
     11305<>CALL    11336<>CALL    11356<>CALL    11477<>CALL    11514<>CALL    11564<>CALL
NPOINTERS
       116**DCL     11185<>CALL    11568<>CALL
NPOINTERS.FALSE
       118**DCL     11184<<ASSIGN  11567<<ASSIGN
NPOINTERS.TRUE
       117**DCL     11183<<ASSIGN  11566<<ASSIGN
NUM
        11**DCL     11110<<ASSIGN  11111>>DOINDEX
PFLAG
        27**DCL     11201<<ASSIGN  11247<<ASSIGN  11267>>IF
POINTER
        64**DCL     11164<>CALL    11512<>CALL    11617<>CALL    11657<>CALL
POST_I
       103**DCL     11543<<ASSIGN  11543>>ASSIGN
POST_I$
       101**DCL       103--IMP-PTR 11505<<ASSIGN  11543>>ASSIGN
POST_IL
       102**DCL       103--IMP-SIZ 11506<<ASSIGN  11542<>CALL    11543>>ASSIGN  11543>>ASSIGN
PRE_I
       100**DCL     11518>>ASSIGN
PRE_I$
        98**DCL       100--IMP-PTR 11503<<ASSIGN  11518>>ASSIGN
PRE_IL
        99**DCL       100--IMP-SIZ 11504<<ASSIGN  11506>>ASSIGN  11518>>ASSIGN  11519>>ASSIGN
PRINT IN PROCEDURE DISP
     11663**LABEL   11622--GOTO
PRINT IN PROCEDURE DISP_L6
     11792**LABEL   11762--GOTO
REG$VALUES.A
      1507**DCL      1508--REDEF   11355>>ASSIGN
REG$VALUES.E
      1515**DCL     11350>>ASSIGN
REG$VALUES.HA.AL
      1510**DCL     11370>>ASSIGN
REG$VALUES.HA.AU
PL6.E3A0      #001=DDA$DISP File=DDA$DISP.:E05TSI                                TUE 07/29/97 13:18 Page:145
      1509**DCL     11366>>ASSIGN
REG$VALUES.HQ.QL
      1514**DCL     11378>>ASSIGN
REG$VALUES.HQ.QU
      1513**DCL     11374>>ASSIGN
REG$VALUES.Q
      1511**DCL      1512--REDEF   11362>>ASSIGN
REG$VALUES.X
      1506**DCL     11382>>ASSIGN
RSIZE
        62**DCL     11269<<ASSIGN  11272<<ASSIGN  11310<<ASSIGN  11318<<ASSIGN  11351<<ASSIGN  11406<<ASSIGN
     11411<<ASSIGN  11626<<ASSIGN  11630<<ASSIGN  11635<<ASSIGN  11641>>IF      11643<<ASSIGN  11650>>IF
     11652<<ASSIGN  11657<>CALL    11661<>CALL    11789<<ASSIGN  11790<>CALL
RV_BUFF.SSR
      7396**DCL     11277>>ASSIGN
SAVE_DESC$
        88**DCL     11175<<ASSIGN  11186>>ASSIGN  11558<<ASSIGN  11569>>ASSIGN
SDD$
      1892**DCL      2542--IMP-PTR 11180<<ASSIGN  11185>>CALL    11563<<ASSIGN  11568>>CALL
SEG
        49**DCL     11169<>CALL    11181<>CALL    11290<>CALL    11298<>CALL    11300<>CALL    11303<>CALL
     11305<>CALL    11336<>CALL    11356<>CALL    11477<>CALL    11514<>CALL    11564<>CALL
SEGERR
     11584**LABEL   11286--CALLALT
SIZE
        61**DCL     11164<>CALL    11169<>CALL    11181<>CALL    11290<>CALL    11336<>CALL    11345<<ASSIGN
     11356<>CALL    11423<<ASSIGN  11436<<ASSIGN  11453<<ASSIGN  11462<<ASSIGN  11471<<ASSIGN  11477<>CALL
     11512<>CALL    11514<>CALL    11564<>CALL    11602>>IF      11607>>ASSIGN  11608<<ASSIGN  11617<>CALL
     11617<>CALL    11625<<ASSIGN  11625>>ASSIGN  11625>>ASSIGN  11626>>ASSIGN  11629<<ASSIGN  11635>>ASSIGN
     11657<>CALL    11716<<ASSIGN  11717>>IF      11726>>IF      11731>>ASSIGN  11738<<ASSIGN  11766>>IF
     11767<<ASSIGN  11769>>DOINDEX 11777>>IF      11781<<ASSIGN  11786<<ASSIGN  11787<<ASSIGN  11789>>ASSIGN
SIZED8
        26**DCL     11731<<ASSIGN  11732>>IF      11736<<ASSIGN  11738>>ASSIGN  11739>>CALL    11744>>DOINDEX
     11750>>IF      11755>>DOINDEX
SIZED9
        25**DCL     11607<<ASSIGN  11608>>ASSIGN  11609>>IF      11614>>CALL    11620>>ASSIGN
PL6.E3A0      #001=DDA$DISP File=DDA$DISP.:E05TSI                                TUE 07/29/97 13:18 Page:146
SNAP_MESSAGE
      6866**DCL     11708<>CALL
SVALUE
        60**DCL     11164<>CALL    11512<>CALL    11617<>CALL    11657<>CALL
S_D.ANLZ_FILE
      6111**DCL     11273>>IF      11300>>IF
S_D.ARRAY.CUR
      5675**DCL     11508>>DOUNTIL 11510<<ASSIGN  11510>>ASSIGN  11528>>ASSIGN
S_D.ARRAY.FIRST
      5674**DCL     11500<<ASSIGN
S_D.ARRAY.HIGH
      5676**DCL     11508>>DOUNTIL
S_D.CURRENT_CHANNEL
      6347**DCL      6349--REDEF
S_D.CURRENT_FPRG_CONTEXT$
      5547**DCL     11679<>CALL    11682>>IF      11695>>IF
S_D.D$
      5485**DCL     11113>>ASSIGN  11114>>ASSIGN  11124<<ASSIGN  11125>>ASSIGN  11141<>CALL    11141>>CALL
     11146>>ASSIGN  11157>>ASSIGN  11160>>ASSIGN  11177<<ASSIGN  11178>>ASSIGN  11192>>ASSIGN  11195>>ASSIGN
     11519<<ASSIGN  11525<<ASSIGN  11527>>ASSIGN  11534>>ASSIGN  11539>>ASSIGN  11549>>ASSIGN  11552>>ASSIGN
     11560<<ASSIGN  11561>>ASSIGN  11577<<ASSIGN  11663>>CALL    11792>>CALL
S_D.DEBUGA
      5499**DCL      5501--REDEF   11126>>IF
S_D.DEFINED#
      6133**DCL     11426>>IF
S_D.DEFINED@
      6123**DCL     11413>>IF
S_D.DESC$
      5479**DCL     11161<<ASSIGN  11179<<ASSIGN  11294<<ASSIGN  11297<<ASSIGN  11299>>ASSIGN  11509<<ASSIGN
     11562<<ASSIGN
S_D.DESCL$
      5481**DCL     11125<<ASSIGN  11141>>CALL    11178<<ASSIGN  11561<<ASSIGN
S_D.DO$
      5450**DCL     11107>>ASSIGN
S_D.DRTN$
      5952**DCL     11334>>ASSIGN
PL6.E3A0      #001=DDA$DISP File=DDA$DISP.:E05TSI                                TUE 07/29/97 13:18 Page:147
S_D.EIS
      6457**DCL      6486--REDEF
S_D.ERROR
      5428**DCL     11120<<ASSIGN  11135<<ASSIGN  11213<<ASSIGN  11263<<ASSIGN  11282<<ASSIGN  11389<<ASSIGN
     11441<<ASSIGN  11480<<ASSIGN  11484<<ASSIGN  11497<<ASSIGN  11573<<ASSIGN  11584<<ASSIGN  11587<<ASSIGN
     11590<<ASSIGN  11604<<ASSIGN  11611<<ASSIGN  11644<<ASSIGN  11653<<ASSIGN  11685<<ASSIGN  11690<<ASSIGN
     11710<<ASSIGN  11712<<ASSIGN  11719<<ASSIGN  11728<<ASSIGN  11734<<ASSIGN  11779<<ASSIGN
S_D.FIND.MASK_F
      6210**DCL     11456>>ASSIGN
S_D.FIND.NUM
      6208**DCL     11465>>ASSIGN
S_D.GOT#
      6125**DCL     11428>>IF
S_D.GOT@
      6115**DCL     11415>>IF
S_D.HOST_MESSAGE_BUF_REMOTE
      6390**DCL      6391--REDEF    6405--REDEF
S_D.JDE
      6004**DCL      6005--REDEF   11702<<ASSIGN  11704<<ASSIGN
S_D.L$.VALUE
      5557**DCL      5563--REDEF    5571--REDEF    5574--REDEF    5577--REDEF    5580--REDEF
S_D.L$.VALUE.L
      5558**DCL      5559--REDEF    5560--REDEF
S_D.L6_MESSAGE_BUF
      6411**DCL      6413--REDEF
S_D.ONE_TO_TWO.EXEC_DOMAIN
      6422**DCL     11162>>IF      11199>>IF      11302>>IF      11308>>IF      11321>>IF      11325>>IF
     11330>>IF      11340>>IF      11348>>IF      11354>>IF      11360>>IF      11364>>IF      11368>>IF
     11372>>IF      11376>>IF      11380>>IF      11384>>IF      11394>>IF      11399>>IF      11403>>IF
     11408>>IF      11418>>IF      11431>>IF      11448>>IF      11457>>IF      11466>>IF      11475>>IF
     11488>>IF      11511>>IF      11553>>IF
S_D.OUTPUT
      6377**DCL      6379--REDEF   11124--ASSIGN  11125--ASSIGN  11177--ASSIGN  11178--ASSIGN  11518<<ASSIGN
     11519--ASSIGN  11523<<ASSIGN  11524<<ASSIGN  11525--ASSIGN  11560--ASSIGN  11561--ASSIGN  11609--IF
     11609--IF      11663--CALL    11663--CALL    11792--CALL    11792--CALL
S_D.REMOTE_MSG.FNCC
PL6.E3A0      #001=DDA$DISP File=DDA$DISP.:E05TSI                                TUE 07/29/97 13:18 Page:148
      6396**DCL      6397--REDEF
S_D.REMOTE_MSG.STXC
      6392**DCL      6393--REDEF
S_D.REMOTE_MSG.SUBFNCC
      6400**DCL      6401--REDEF
S_D.RSPACE#
      6129**DCL     11429>>ASSIGN
S_D.RSPACE@
      6119**DCL     11416>>ASSIGN
S_D.RUM
      6045**DCL     11126>>IF      11439>>IF
S_D.RUM_HEAD$
      6087**DCL     11445>>ASSIGN  11447>>ASSIGN
S_D.SAVEIC
      5410**DCL     11339>>ASSIGN
S_D.SCREECH_IC
      6248**DCL     11109<<REMEMBR
S_D.STATUS
      6499**DCL     11173>>IF      11556>>IF
S_D.SV
      5456**DCL      5477--REDEF
S_D.SV.DELENT
      5464**DCL     11323>>ASSIGN
S_D.SV.IOBUFSZ
      5475**DCL     11328>>ASSIGN
S_D.UREG$
      5487**DCL     11350>>ASSIGN  11355>>ASSIGN  11362>>ASSIGN  11366>>ASSIGN  11370>>ASSIGN  11374>>ASSIGN
     11378>>ASSIGN  11382>>ASSIGN
S_D.USS$
      5416**DCL     11248>>ASSIGN  11278>>ASSIGN  11333>>ASSIGN  11401>>ASSIGN
S_D$
      6708**DCL      5404--IMP-PTR 11107>>ASSIGN  11109>>REMEMBR 11113>>ASSIGN  11114>>ASSIGN  11120>>ASSIGN
     11124>>ASSIGN  11124>>ASSIGN  11125>>ASSIGN  11125>>ASSIGN  11126>>IF      11126>>IF      11135>>ASSIGN
     11141>>CALL    11141>>CALL    11141>>CALL    11146>>ASSIGN  11157>>ASSIGN  11160>>ASSIGN  11161>>ASSIGN
     11162>>IF      11173>>IF      11177>>ASSIGN  11177>>ASSIGN  11178>>ASSIGN  11178>>ASSIGN  11179>>ASSIGN
     11192>>ASSIGN  11195>>ASSIGN  11199>>IF      11213>>ASSIGN  11248>>ASSIGN  11263>>ASSIGN  11273>>IF
PL6.E3A0      #001=DDA$DISP File=DDA$DISP.:E05TSI                                TUE 07/29/97 13:18 Page:149
     11278>>ASSIGN  11282>>ASSIGN  11294>>ASSIGN  11297>>ASSIGN  11299>>ASSIGN  11300>>IF      11302>>IF
     11308>>IF      11321>>IF      11323>>ASSIGN  11325>>IF      11328>>ASSIGN  11330>>IF      11333>>ASSIGN
     11334>>ASSIGN  11339>>ASSIGN  11340>>IF      11348>>IF      11350>>ASSIGN  11354>>IF      11355>>ASSIGN
     11360>>IF      11362>>ASSIGN  11364>>IF      11366>>ASSIGN  11368>>IF      11370>>ASSIGN  11372>>IF
     11374>>ASSIGN  11376>>IF      11378>>ASSIGN  11380>>IF      11382>>ASSIGN  11384>>IF      11389>>ASSIGN
     11394>>IF      11399>>IF      11401>>ASSIGN  11403>>IF      11408>>IF      11413>>IF      11415>>IF
     11416>>ASSIGN  11418>>IF      11426>>IF      11428>>IF      11429>>ASSIGN  11431>>IF      11439>>IF
     11441>>ASSIGN  11445>>ASSIGN  11447>>ASSIGN  11448>>IF      11456>>ASSIGN  11457>>IF      11465>>ASSIGN
     11466>>IF      11475>>IF      11480>>ASSIGN  11484>>ASSIGN  11488>>IF      11497>>ASSIGN  11500>>ASSIGN
     11508>>DOUNTIL 11508>>DOUNTIL 11509>>ASSIGN  11510>>ASSIGN  11510>>ASSIGN  11511>>IF      11518>>ASSIGN
     11519>>ASSIGN  11519>>ASSIGN  11523>>ASSIGN  11524>>ASSIGN  11525>>ASSIGN  11525>>ASSIGN  11527>>ASSIGN
     11528>>ASSIGN  11534>>ASSIGN  11539>>ASSIGN  11549>>ASSIGN  11552>>ASSIGN  11553>>IF      11556>>IF
     11560>>ASSIGN  11560>>ASSIGN  11561>>ASSIGN  11561>>ASSIGN  11562>>ASSIGN  11573>>ASSIGN  11577>>ASSIGN
     11584>>ASSIGN  11587>>ASSIGN  11590>>ASSIGN  11604>>ASSIGN  11609>>IF      11611>>ASSIGN  11644>>ASSIGN
     11653>>ASSIGN  11663>>CALL    11663>>CALL    11663>>CALL    11679>>CALL    11682>>IF      11685>>ASSIGN
     11690>>ASSIGN  11695>>IF      11702>>ASSIGN  11704>>ASSIGN  11710>>ASSIGN  11712>>ASSIGN  11719>>ASSIGN
     11728>>ASSIGN  11734>>ASSIGN  11779>>ASSIGN  11792>>CALL    11792>>CALL    11792>>CALL
S_D_HOST_MESSAGE$
      6744**DCL      3675--IMP-PTR 11704>>ASSIGN
S_D_L6_MESSAGE$
      6745**DCL      3519--IMP-PTR 11676>>ASSIGN  11680>>IF      11682>>IF      11688>>IF      11693>>IF
     11697>>ASSIGN  11716>>ASSIGN  11754>>ASSIGN  11768>>ASSIGN
TEMP
        12**DCL     11528<<ASSIGN  11529>>IF      11531<<ASSIGN  11531>>ASSIGN  11536<>CALL
TEMP$
        28**DCL        29--REDEF      30--REDEF   11207<<ASSIGN  11210<<ASSIGN  11221<<ASSIGN  11224<<ASSIGN
     11229<<ASSIGN  11233<<ASSIGN  11237<<ASSIGN  11243<<ASSIGN  11254<<ASSIGN  11256<<ASSIGN  11258<<ASSIGN
     11275>>IF      11280>>IF      11286<>CALL    11754<<ASSIGN  11756>>ASSIGN  11758<<ASSIGN  11758>>ASSIGN
     11768<<ASSIGN  11770>>ASSIGN  11771<<ASSIGN  11771>>ASSIGN  11772>>ASSIGN  11773<<ASSIGN  11773>>ASSIGN
TEMP1
        29**DCL     11697<<ASSIGN
TEMP1B.B1
        32**DCL     11698>>ASSIGN
TEMP1B.B2
        33**DCL     11699>>ASSIGN
TEMP1B.B3
PL6.E3A0      #001=DDA$DISP File=DDA$DISP.:E05TSI                                TUE 07/29/97 13:18 Page:150
        34**DCL     11700>>ASSIGN
TEMP1B.B4
        35**DCL     11701>>ASSIGN
TEMP2
        36**DCL        37--REDEF   11702>>ASSIGN
TEMP2B.B1
        39**DCL     11698<<ASSIGN
TEMP2B.B2
        41**DCL     11699<<ASSIGN
TEMP2B.B3
        43**DCL     11700<<ASSIGN
TEMP2B.B4
        45**DCL     11701<<ASSIGN
TEXT$
        20**DCL     11146<<ASSIGN  11149>>ASSIGN  11157<<ASSIGN  11159>>ASSIGN  11160<<ASSIGN  11192<<ASSIGN
     11194>>ASSIGN  11195<<ASSIGN  11527<<ASSIGN  11532>>ASSIGN  11534<<ASSIGN  11538>>ASSIGN  11539<<ASSIGN
     11543>>ASSIGN  11546>>ASSIGN  11549<<ASSIGN  11551>>ASSIGN  11552<<ASSIGN  11609>>IF      11615>>ASSIGN
     11616<<ASSIGN  11616>>ASSIGN  11617<>CALL    11620<<ASSIGN  11620>>ASSIGN  11621>>ASSIGN  11740>>ASSIGN
     11741<<ASSIGN  11741>>ASSIGN  11745>>ASSIGN  11746<<ASSIGN  11746>>ASSIGN  11747>>ASSIGN  11748<<ASSIGN
     11748>>ASSIGN  11751<<ASSIGN  11751>>ASSIGN  11756>>ASSIGN  11757<<ASSIGN  11757>>ASSIGN  11761>>ASSIGN
TEXTR
        22**DCL     11149<<ASSIGN  11149>>ASSIGN  11523>>ASSIGN  11538<<ASSIGN
U$SE.CUR
      1498**DCL     11116>>IF      11227>>IF
UAS$
       111**DCL     11256>>ASSIGN
UBIN36
        59**DCL     11248>>ASSIGN  11397>>ASSIGN  11401>>ASSIGN
UIS$
       108**DCL     11233>>ASSIGN
ULS$
       107**DCL     11258>>ASSIGN  11280>>IF
UPS$
       110**DCL     11254>>ASSIGN
USDS$
       109**DCL     11210>>ASSIGN
PL6.E3A0      #001=DDA$DISP File=DDA$DISP.:E05TSI                                TUE 07/29/97 13:18 Page:151
USE$
       112**DCL      1497--IMP-PTR 11116>>IF      11227>>IF
USS1$
       106**DCL     11207>>ASSIGN  11221>>ASSIGN  11224>>ASSIGN  11229>>ASSIGN  11237>>ASSIGN  11243>>ASSIGN
     11275>>IF
VALUE
        71**DCL     11277<<ASSIGN  11278<<ASSIGN  11280<<ASSIGN  11286<>CALL    11410<>CALL    11657--CALL
     11661<>CALL
VALUE.E
        73**DCL     11350<<ASSIGN
VALUE.L
        72**DCL        73--REDEF      74--REDEF   11248<<ASSIGN  11300<>CALL    11303<>CALL    11323<<ASSIGN
     11328<<ASSIGN  11333<<ASSIGN  11334<<ASSIGN  11339<<ASSIGN  11355<<ASSIGN  11362<<ASSIGN  11366<<ASSIGN
     11370<<ASSIGN  11374<<ASSIGN  11378<<ASSIGN  11382<<ASSIGN  11392<<ASSIGN  11397<<ASSIGN  11401<<ASSIGN
     11405<>CALL    11416<<ASSIGN  11417<<ASSIGN  11429<<ASSIGN  11430<<ASSIGN  11445<<ASSIGN  11447<<ASSIGN
     11456<<ASSIGN  11465<<ASSIGN
VALUE.L6_WORD.LH
        77**DCL     11344>>ASSIGN  11422>>ASSIGN  11435>>ASSIGN  11452>>ASSIGN  11461>>ASSIGN  11470>>ASSIGN
VALUE.L6_WORD.UH
        76**DCL     11343>>ASSIGN  11421>>ASSIGN  11434>>ASSIGN  11451>>ASSIGN  11460>>ASSIGN  11469>>ASSIGN
VALUE_L6
        80**DCL     11169<>CALL    11181<>CALL    11290<>CALL    11305<>CALL    11336<>CALL    11356<>CALL
     11477<>CALL    11514<>CALL    11564<>CALL
VALUE_L6.OPS
        82**DCL        83--REDEF   11185<>CALL    11343<<ASSIGN  11344<<ASSIGN  11421<<ASSIGN  11422<<ASSIGN
     11434<<ASSIGN  11435<<ASSIGN  11451<<ASSIGN  11452<<ASSIGN  11460<<ASSIGN  11461<<ASSIGN  11469<<ASSIGN
     11470<<ASSIGN  11568<>CALL    11790<>CALL
VALUE_L6.OPSB.LH
        86**DCL     11747>>ASSIGN  11772<<ASSIGN
VALUE_L6.OPSB.UH
        85**DCL     11745>>ASSIGN  11770<<ASSIGN
VALUE_L6.SIZE
        81**DCL     11342<<ASSIGN  11420<<ASSIGN  11433<<ASSIGN  11450<<ASSIGN  11459<<ASSIGN  11468<<ASSIGN
     11775<<ASSIGN
WSR
       113**DCL     11392>>ASSIGN
PL6.E3A0      #001=DDA$DISP File=DDA$DISP.:E05TSI                                TUE 07/29/97 13:18 Page:152
ZITEM.ADDRESS
      2504**DCL      2509--REDEF    2510--REDEF    2511--REDEF
ZITEM.ADDR_TYPE
      2498**DCL     11196>>DOCASE
ZITEM.DTYP
      2486**DCL     11128>>IF      11128>>IF      11151>>DOCASE
ZITEM.FLAGS.ADDREXP
      2483**DCL     11495>>IF
ZITEM.FLAGS.MDSE.E
      2481**DCL     11295>>IF
ZITEM.FLAGS.MDSE.S
      2479**DCL     11116>>IF
ZITEM.FMT_SPEC
      2500**DCL     11123>>ASSIGN
ZITEM.NAMEFLAGS.POSITION
      2490**DCL     11139>>IF
ZITEM.NAMEFLAGS.STATUS_EXISTS
      2491**DCL     11173>>IF      11556>>IF
ZITEM.NPOINTER_FALSE
      2538**DCL     11184>>ASSIGN  11567>>ASSIGN
ZITEM.NPOINTER_TRUE
      2537**DCL     11183>>ASSIGN  11566>>ASSIGN
ZITEM.PUP
      2525**DCL     11661<>CALL    11790<>CALL
ZITEM.PUP.BITS.PUB
      2529**DCL     11625>>IF      11636>>IF
ZITEM.PUP.BITS.SIGNPOS
      2530**DCL     11638>>ASSIGN
ZITEM.SIZE
      2471**DCL     11115>>ASSIGN  11180>>ASSIGN  11563>>ASSIGN
ZITEM.SP.VD
      2512**DCL      2516--REDEF    2519--REDEF
ZITEM.SP.VD.DISP
      2515**DCL     11211>>ASSIGN  11244>>ASSIGN  11251>>ASSIGN
ZITEM.SP.VD.ID
      2514**DCL     11205>>DOCASE  11219>>DOCASE  11241>>IF      11248>>ASSIGN  11252>>DOCASE
PL6.E3A0      #001=DDA$DISP File=DDA$DISP.:E05TSI                                TUE 07/29/97 13:18 Page:153
ZITEM.SP.VD.TYPE
      2513**DCL     11202>>DOCASE
ZITEM.SP.VS.ID
      2520**DCL     11128>>IF      11128>>IF      11128>>IF      11128>>IF      11319>>DOCASE  11444>>IF
     11446>>IF
ZITEM.SP.VS.SZ
      2521**DCL     11382>>ASSIGN  11392>>ASSIGN  11397>>ASSIGN  11401>>ASSIGN
ZITEM.SUBSTART$
      2495**DCL     11504>>ASSIGN  11505>>ASSIGN
ZITEM.SUBSZ
      2496**DCL     11501>>IF      11505>>ASSIGN  11506>>ASSIGN  11516>>IF      11540>>IF
ZITEM.TEXTSTART$
      2488**DCL     11149>>ASSIGN  11503>>ASSIGN  11504>>ASSIGN  11523>>ASSIGN
ZITEM.TEXTSZ
      2494**DCL     11147>>ASSIGN  11506>>ASSIGN  11522>>ASSIGN
ZITEM.VALUE
      2509**DCL     11141<>CALL
ZITEM$
      1893**DCL      2470--IMP-PTR 11114<<ASSIGN  11115>>ASSIGN  11116>>IF      11123>>ASSIGN  11128>>IF
     11128>>IF      11128>>IF      11128>>IF      11128>>IF      11128>>IF      11139>>IF      11141>>CALL
     11147>>ASSIGN  11149>>ASSIGN  11151>>DOCASE  11173>>IF      11175>>ASSIGN  11176<<ASSIGN  11183>>ASSIGN
     11184>>ASSIGN  11186<<ASSIGN  11196>>DOCASE  11202>>DOCASE  11205>>DOCASE  11211>>ASSIGN  11219>>DOCASE
     11241>>IF      11244>>ASSIGN  11248>>ASSIGN  11251>>ASSIGN  11252>>DOCASE  11295>>IF      11319>>DOCASE
     11382>>ASSIGN  11392>>ASSIGN  11397>>ASSIGN  11401>>ASSIGN  11444>>IF      11446>>IF      11495>>IF
     11501>>IF      11503>>ASSIGN  11504>>ASSIGN  11504>>ASSIGN  11505>>ASSIGN  11505>>ASSIGN  11506>>ASSIGN
     11506>>ASSIGN  11516>>IF      11522>>ASSIGN  11523>>ASSIGN  11540>>IF      11556>>IF      11558>>ASSIGN
     11559<<ASSIGN  11566>>ASSIGN  11567>>ASSIGN  11569<<ASSIGN  11625>>IF      11636>>IF      11638>>ASSIGN
     11661>>CALL    11790>>CALL
PL6.E3A0      #001=DDA$DISP File=DDA$DISP.:E05TSI                                TUE 07/29/97 13:18 Page:154
              *** CROSS REFERENCE LISTING ***
    **     DENOTES     IDENTIFIER DEFINITION
    <<                 IDENTIFIER'S VALUE SET
    >>                 IDENTIFIER'S VALUE USED
    <>                 IDENTIFIER SET AND/OR USED
    --                 IDENTIFIER REFERENCED
PL6.E3A0      #001=DDA$DISP File=DDA$DISP.:E05TSI                                TUE 07/29/97 13:18 Page:155
              MINI UREF LISTING

CHAR12      57**DCL
CHAR13      58**DCL
CHAR2      54**DCL
CHAR4      56**DCL
CHAR8     104**DCL
DDA$DISP       9**PROC
DDA$GET$O   11084**DCL-ENT
DDB$BREAK   11085**DCL-ENT
DDK$GETSPEC   11082**DCL-ENT
DDK$SEXTEND   11079**DCL-ENT
DDR$BLDNAME   11090**DCL-ENT
DFQ$WRITE_FD   11101**DCL-ENT
IDX$      47**DCL
ITEM$      19**DCL
M$ACCT    6776**DCL-ENT
M$ACTIVATE    6779**DCL-ENT
M$ALIB    6772**DCL-ENT
M$ASUSER    6774**DCL-ENT
M$ATTACH    6781**DCL-ENT
M$BADPP    6799**DCL-ENT
M$CGCTL    6780**DCL-ENT
M$CGINFO    6780**DCL-ENT
M$CHECK    6761**DCL-ENT
M$CHGUNIT    6819**DCL-ENT
M$CLOSE    6759**DCL-ENT
M$CLRSTK    6817**DCL-ENT
M$CMDVAR    6828**DCL-ENT
M$CONFIG    6789**DCL-ENT
M$CORRES    6764**DCL-ENT
M$CPEXIT    6773**DCL-ENT
M$CVM    6797**DCL-ENT
M$CVOL    6762**DCL-ENT
PL6.E3A0      #001=DDA$DISP File=DDA$DISP.:E05TSI                                TUE 07/29/97 13:18 Page:156
M$DCLFLD    6789**DCL-ENT
M$DEACTIVATE    6779**DCL-ENT
M$DELREC    6761**DCL-ENT
M$DEQ    6826**DCL-ENT
M$DETACH    6781**DCL-ENT
M$DEVICE    6763**DCL-ENT
M$DISPLAY    6826**DCL-ENT
M$DISPRES    6766**DCL-ENT
M$DLIB    6772**DCL-ENT
M$DRIBBLE    6789**DCL-ENT
M$DRTN    6817**DCL-ENT
M$DSUSER    6774**DCL-ENT
M$ENQ    6825**DCL-ENT
M$EOM    6784**DCL-ENT
M$ERASE    6790**DCL-ENT
M$ERR    6771**DCL-ENT
M$ERRMSG    6822**DCL-ENT
M$EVENT    6814**DCL-ENT
M$EXHUME    6823**DCL-ENT
M$EXIT    6771**DCL-ENT
M$EXTEND    6763**DCL-ENT
M$FDP    6795**DCL-ENT
M$FDS    6794**DCL-ENT
M$FEBOOT    6787**DCL-ENT
M$FECTL    6788**DCL-ENT
M$FEDUMP    6787**DCL-ENT
M$FID    6822**DCL-ENT
M$FINDPROC    6776**DCL-ENT
M$FSUSER    6774**DCL-ENT
M$FVP    6796**DCL-ENT
M$FWCG    6780**DCL-ENT
M$GBPL    6800**DCL-ENT
M$GDDL    6796**DCL-ENT
M$GDP    6795**DCL-ENT
M$GDS    6794**DCL-ENT
M$GETDCB    6765**DCL-ENT
PL6.E3A0      #001=DDA$DISP File=DDA$DISP.:E05TSI                                TUE 07/29/97 13:18 Page:157
M$GETMOUSE    6805**DCL-ENT
M$GETPM    6806**DCL-ENT
M$GJOB    6824**DCL-ENT
M$GLINEATTR    6784**DCL-ENT
M$GOODPP    6799**DCL-ENT
M$GPLATEN    6792**DCL-ENT
M$GPROMPT    6791**DCL-ENT
M$GTRMATTR    6785**DCL-ENT
M$GTRMCTL    6783**DCL-ENT
M$GTRMTAB    6786**DCL-ENT
M$GVP    6795**DCL-ENT
M$HELP    6822**DCL-ENT
M$INT    6814**DCL-ENT
M$INTRTN    6775**DCL-ENT
M$IOQ    6810**DCL-ENT
M$JOBSTATS    6824**DCL-ENT
M$KEYIN    6764**DCL-ENT
M$LDEV    6759**DCL-ENT
M$LDTRC    6772**DCL-ENT
M$LIMIT    6765**DCL-ENT
M$LINES    6764**DCL-ENT
M$LINK    6771**DCL-ENT
M$MADMUCK    6767**DCL-ENT
M$MAKUSER    6798**DCL-ENT
M$MBS    6766**DCL-ENT
M$MDFFLD    6790**DCL-ENT
M$MERC    6815**DCL-ENT
M$MERCS    6816**DCL-ENT
M$MIRROR    6810**DCL-ENT
M$MONINFO    6827**DCL-ENT
M$MPL    6800**DCL-ENT
M$NODEINFO    6791**DCL-ENT
M$NXTUSR    6825**DCL-ENT
M$OCMSG    6823**DCL-ENT
M$OLAY    6771**DCL-ENT
M$OPEN    6759**DCL-ENT
PL6.E3A0      #001=DDA$DISP File=DDA$DISP.:E05TSI                                TUE 07/29/97 13:18 Page:158
M$PAS    6800**DCL-ENT
M$PATHCON    6823**DCL-ENT
M$PDS    6794**DCL-ENT
M$PFIL    6761**DCL-ENT
M$PLATEN    6785**DCL-ENT
M$PRECORD    6763**DCL-ENT
M$PROCNAME    6776**DCL-ENT
M$PROFILE    6787**DCL-ENT
M$PROMPT    6783**DCL-ENT
M$RACST    6767**DCL-ENT
M$RDSYSLOG    6808**DCL-ENT
M$READ    6760**DCL-ENT
M$RELDCB    6765**DCL-ENT
M$RELRES    6766**DCL-ENT
M$RELSTARF    6768**DCL-ENT
M$REM    6768**DCL-ENT
M$RENV    6815**DCL-ENT
M$REQUIRE    6767**DCL-ENT
M$RETRY    6816**DCL-ENT
M$RETRYS    6816**DCL-ENT
M$REW    6762**DCL-ENT
M$RLSFLD    6790**DCL-ENT
M$RPRIV    6818**DCL-ENT
M$RSPP    6797**DCL-ENT
M$RSWITCH    6819**DCL-ENT
M$RUE    6825**DCL-ENT
M$SAD    6798**DCL-ENT
M$SAVE    6774**DCL-ENT
M$SCON    6775**DCL-ENT
M$SENV    6815**DCL-ENT
M$SETFMA    6759**DCL-ENT
M$SETFP    6788**DCL-ENT
M$SINPUT    6786**DCL-ENT
M$SLCFLD    6791**DCL-ENT
M$SMOUSE    6805**DCL-ENT
M$SMPRT    6797**DCL-ENT
PL6.E3A0      #001=DDA$DISP File=DDA$DISP.:E05TSI                                TUE 07/29/97 13:18 Page:159
M$SPRIV    6818**DCL-ENT
M$SSC    6798**DCL-ENT
M$SSWITCH    6818**DCL-ENT
M$STATE    6827**DCL-ENT
M$STD    6799**DCL-ENT
M$STIMER    6813**DCL-ENT
M$STLPP    6796**DCL-ENT
M$STRAP    6813**DCL-ENT
M$STRMATTR    6785**DCL-ENT
M$STRMCTL    6783**DCL-ENT
M$STRMTAB    6786**DCL-ENT
M$SYMBIO    6824**DCL-ENT
M$SYSCON    6810**DCL-ENT
M$SYSID    6828**DCL-ENT
M$TDCLOSE    6809**DCL-ENT
M$TDIO    6809**DCL-ENT
M$TDOPEN    6808**DCL-ENT
M$TDREQCPU    6809**DCL-ENT
M$TEMPWROC    6803**DCL-ENT
M$TIME    6826**DCL-ENT
M$TRAP    6813**DCL-ENT
M$TRMISC    6788**DCL-ENT
M$TRMPRG    6784**DCL-ENT
M$TRTN    6817**DCL-ENT
M$TRUNC    6760**DCL-ENT
M$TTIMER    6813**DCL-ENT
M$UC    6783**DCL
M$UMPL    6800**DCL-ENT
M$UNFID    6822**DCL-ENT
M$UNLATCH    6779**DCL-ENT
M$UNSHARE    6776**DCL-ENT
M$USRFIELD    6819**DCL-ENT
M$VIRTUAL    6794**DCL-ENT
M$WAIT    6817**DCL-ENT
M$WEOF    6762**DCL-ENT
M$WRITE    6760**DCL-ENT
PL6.E3A0      #001=DDA$DISP File=DDA$DISP.:E05TSI                                TUE 07/29/97 13:18 Page:160
M$WRSYSLOG    6808**DCL-ENT
M$XCON    6814**DCL-ENT
M$XCONRTN    6775**DCL-ENT
M$XEQTIME    6827**DCL-ENT
M$XFLUSH    6768**DCL-ENT
M$XMOUSE    6805**DCL-ENT
M$XXX    6771**DCL-ENT
M$YC    6773**DCL-ENT
NEXT1$      18**DCL
SAVE_VALUE      24**DCL
SC_MESSAGE    6884**DCL
SDD_L6$    1894**DCL
SFLAG      70**DCL
S_D_ACCESS$    6723**DCL
S_D_ANLZ$    6725**DCL
S_D_ASTACKOFF$    6724**DCL
S_D_BREAK$    6726**DCL
S_D_DO_SCAN$    6727**DCL
S_D_ERROR$    6728**DCL
S_D_FAULTCMD$$    6729**DCL
S_D_FAULTINS$$    6730**DCL
S_D_GOIC$    6731**DCL
S_D_GO_MODE$    6732**DCL
S_D_HW_PTB_UNITS$    6748**DCL
S_D_HW_RES_MEM$    6746**DCL
S_D_HW_WSQ0PT$    6747**DCL
S_D_IPRFLT$    6734**DCL
S_D_IXFIX$    6733**DCL
S_D_REM_ACCESS$    6735**DCL
S_D_REM_DISKBOOT$    6737**DCL
S_D_REM_DO_SCAN$    6736**DCL
S_D_RETURNN$    6738**DCL
S_D_SAD$    6739**DCL
S_D_SAVEIC$    6740**DCL
S_D_SEG$    6722**DCL
S_D_TCB$$    6741**DCL
PL6.E3A0      #001=DDA$DISP File=DDA$DISP.:E05TSI                                TUE 07/29/97 13:18 Page:161
S_D_UREG$$    6742**DCL
S_D_USS$$    6743**DCL
TEXTC      93**DCL
VAL      23**DCL
VITEM$      14**DCL
ZITEM_L6$    1895**DCL
