PL6.E3A0      #002=DDA$RESET_PATCH_SPACE File=DDA$DO.:E05TSI                     TUE 07/29/97 13:26 Page:447
     2422        1        /*T***********************************************************/
     2423        2        /*T*                                                         */
     2424        3        /*T* Copyright (c) Bull HN Information Systems Inc., 1997    */
     2425        4        /*T*                                                         */
     2426        5        /*T***********************************************************/
     2427        6        DDA$RESET_PATCH_SPACE: PROC;
     2428        7        %INCLUDE XUH_MACRO_C;
     2429       91        %INCLUDE DD_SD_M;
     2430     1427        %S_D;
     2431     2745                                                /* Mark patch space as undefined */
     2432     2746    1        S_D.DEFINED@ = '0'B;
     2433     2747    1        S_D.DEFINED# = '0'B;
     2434     2748    1        S_D.MONIS.DEFINED@ = '0'B;
     2435     2749    1        S_D.MONIS.DEFINED# = '0'B;
     2436     2750    1        S_D.MONENT.DEFINED@ = '0'B;
     2437     2751    1        S_D.MONENT.DEFINED# = '0'B;
     2438     2752    1        S_D.BF.DEFINED@ = '0'B;
     2439     2753    1        S_D.BF.DEFINED# = '0'B;
     2440     2754    1        S_D.FD.DEFINED@ = '0'B;
     2441     2755    1        S_D.FD.DEFINED# = '0'B;
     2442     2756    1        RETURN;
     2443     2757    1   END DDA$RESET_PATCH_SPACE;
     2444     2758        %EOD;

PL6.E3A0      #002=DDA$RESET_PATCH_SPACE File=DDA$DO.:E05TSI                     TUE 07/29/97 13:26 Page:448
--  Include file information  --

   DD_SD_M.:E05TOU  is referenced.
   XUH_MACRO_C.:E05TOU  is referenced.
   B$JIT_C.:E05TOU  was found in the system file and is never referenced.
   CP_6_C.:E05TOU  was found in the system file and is never referenced.
      No diagnostics issued in procedure DDA$RESET_PATCH_SPACE.

   Procedure DDA$RESET_PATCH_SPACE requires 14 words for executable code.
   Procedure DDA$RESET_PATCH_SPACE requires 4 words of local(AUTO) storage.

PL6.E3A0      #002=DDA$RESET_PATCH_SPACE File=DDA$DO.:E05TSI                     TUE 07/29/97 13:26 Page:449

 Object Unit name= DDA$RESET_PATCH_SPACE                      File name= DDA$DO.:E05TOU
 UTS= JUL 29 '97 13:26:22.20 TUE                              Compiler= PL-6/E31         Sev=      00
 SharedLib= :SHARED_SYSTEM                                    Alt SharedLib=


    ****  Control sections  ****

 Sect   Type Bound  Init  Size OctSiz  Section name(segment info)
    0   Proc  even  none    14     16  DDA$RESET_PATCH_SPACE

    ****  Entry defs  ****

                              Check   Calling
                             calling  sequence
  Sect OctLoc Primary Altret sequence   type   Parms  Name
     0      0   yes            yes      Std        0  DDA$RESET_PATCH_SPACE

  ****  Entry refs  ****

         Check        Calling
        calling       sequence
Altret sequence SRef   type   Args  Name
                       nStd      0 X66_AUTO_0
                       nStd      0 X66_ARET

  ****  Data refs  ****

  Flags:  r = read only, s = secondary
Flgs Name                             Flgs Name                             Flgs Name
r    S_D$
PL6.E3A0      #002=DDA$RESET_PATCH_SPACE File=DDA$DO.:E05TSI                     TUE 07/29/97 13:26 Page:450


     2422        1        /*T***********************************************************/
     2423        2        /*T*                                                         */
     2424        3        /*T* Copyright (c) Bull HN Information Systems Inc., 1997    */
     2425        4        /*T*                                                         */
     2426        5        /*T***********************************************************/
     2427        6        DDA$RESET_PATCH_SPACE: PROC;

      6  0 000000   000000 700200 xent  DDA$RESET_P* TSX0  ! X66_AUTO_0
         0 000001   000004 000000                    ZERO    4,0

     2428        7        %INCLUDE XUH_MACRO_C;
     2429       91        %INCLUDE DD_SD_M;
     2430     1427        %S_D;
     2431     2745                                                /* Mark patch space as undefined */
     2432     2746    1        S_D.DEFINED@ = '0'B;

   2746  0 000002   000000 470400 xsym               LDP0    S_D$
         0 000003   005060 450100                    STZ     2608,,PR0

     2433     2747    1        S_D.DEFINED# = '0'B;

   2747  0 000004   005065 450100                    STZ     2613,,PR0

     2434     2748    1        S_D.MONIS.DEFINED@ = '0'B;

   2748  0 000005   007041 450100                    STZ     3617,,PR0

     2435     2749    1        S_D.MONIS.DEFINED# = '0'B;

   2749  0 000006   007047 450100                    STZ     3623,,PR0

     2436     2750    1        S_D.MONENT.DEFINED@ = '0'B;

   2750  0 000007   007025 450100                    STZ     3605,,PR0

     2437     2751    1        S_D.MONENT.DEFINED# = '0'B;
PL6.E3A0      #002=DDA$RESET_PATCH_SPACE File=DDA$DO.:E05TSI                     TUE 07/29/97 13:26 Page:451

   2751  0 000010   007033 450100                    STZ     3611,,PR0

     2438     2752    1        S_D.BF.DEFINED@ = '0'B;

   2752  0 000011   007071 450100                    STZ     3641,,PR0

     2439     2753    1        S_D.BF.DEFINED# = '0'B;

   2753  0 000012   007077 450100                    STZ     3647,,PR0

     2440     2754    1        S_D.FD.DEFINED@ = '0'B;

   2754  0 000013   007055 450100                    STZ     3629,,PR0

     2441     2755    1        S_D.FD.DEFINED# = '0'B;

   2755  0 000014   007063 450100                    STZ     3635,,PR0

     2442     2756    1        RETURN;

   2756  0 000015   000000 702200 xent               TSX2  ! X66_ARET
     2443     2757    1   END DDA$RESET_PATCH_SPACE;
     2444     2758        %EOD;

PL6.E3A0      #002=DDA$RESET_PATCH_SPACE File=DDA$DO.:E05TSI                     TUE 07/29/97 13:26 Page:452
--  Include file information  --

   DD_SD_M.:E05TOU  is referenced.
   XUH_MACRO_C.:E05TOU  is referenced.
   B$JIT_C.:E05TOU  was found in the system file and is never referenced.
   CP_6_C.:E05TOU  was found in the system file and is never referenced.
      No diagnostics issued in procedure DDA$RESET_PATCH_SPACE.

   Procedure DDA$RESET_PATCH_SPACE requires 14 words for executable code.
   Procedure DDA$RESET_PATCH_SPACE requires 4 words of local(AUTO) storage.
PL6.E3A0      #002=DDA$RESET_PATCH_SPACE File=DDA$DO.:E05TSI                     TUE 07/29/97 13:26 Page:453
          *** CROSS REFERENCE LISTING ***
**     DENOTES     IDENTIFIER DEFINITION
<<                 IDENTIFIER'S VALUE SET
>>                 IDENTIFIER'S VALUE USED
<>                 IDENTIFIER SET AND/OR USED
--                 IDENTIFIER REFERENCED
PL6.E3A0      #002=DDA$RESET_PATCH_SPACE File=DDA$DO.:E05TSI                     TUE 07/29/97 13:26 Page:454
          MINI XREF LISTING

S_D.BF.DEFINED#
      2658**DCL      2753<<ASSIGN
S_D.BF.DEFINED@
      2646**DCL      2752<<ASSIGN
S_D.CURRENT_CHANNEL
      2379**DCL      2381--REDEF
S_D.DEBUGA
      1531**DCL      1533--REDEF
S_D.DEFINED#
      2165**DCL      2747<<ASSIGN
S_D.DEFINED@
      2155**DCL      2746<<ASSIGN
S_D.EIS
      2489**DCL      2518--REDEF
S_D.FD.DEFINED#
      2633**DCL      2755<<ASSIGN
S_D.FD.DEFINED@
      2621**DCL      2754<<ASSIGN
S_D.HOST_MESSAGE_BUF_REMOTE
      2422**DCL      2423--REDEF    2437--REDEF
S_D.JDE
      2036**DCL      2037--REDEF
S_D.L$.VALUE
      1589**DCL      1595--REDEF    1603--REDEF    1606--REDEF    1609--REDEF    1612--REDEF
S_D.L$.VALUE.L
      1590**DCL      1591--REDEF    1592--REDEF
S_D.L6_MESSAGE_BUF
      2443**DCL      2445--REDEF
S_D.MONENT.DEFINED#
      2583**DCL      2751<<ASSIGN
S_D.MONENT.DEFINED@
      2571**DCL      2750<<ASSIGN
PL6.E3A0      #002=DDA$RESET_PATCH_SPACE File=DDA$DO.:E05TSI                     TUE 07/29/97 13:26 Page:455
S_D.MONIS.DEFINED#
      2608**DCL      2749<<ASSIGN
S_D.MONIS.DEFINED@
      2596**DCL      2748<<ASSIGN
S_D.OUTPUT
      2409**DCL      2411--REDEF
S_D.REMOTE_MSG.FNCC
      2428**DCL      2429--REDEF
S_D.REMOTE_MSG.STXC
      2424**DCL      2425--REDEF
S_D.REMOTE_MSG.SUBFNCC
      2432**DCL      2433--REDEF
S_D.SV
      1488**DCL      1509--REDEF
S_D$
      2740**DCL      1436--IMP-PTR  2746>>ASSIGN   2747>>ASSIGN   2748>>ASSIGN   2749>>ASSIGN   2750>>ASSIGN
      2751>>ASSIGN   2752>>ASSIGN   2753>>ASSIGN   2754>>ASSIGN   2755>>ASSIGN
PL6.E3A0      #002=DDA$RESET_PATCH_SPACE File=DDA$DO.:E05TSI                     TUE 07/29/97 13:26 Page:456
              *** CROSS REFERENCE LISTING ***
    **     DENOTES     IDENTIFIER DEFINITION
    <<                 IDENTIFIER'S VALUE SET
    >>                 IDENTIFIER'S VALUE USED
    <>                 IDENTIFIER SET AND/OR USED
    --                 IDENTIFIER REFERENCED
PL6.E3A0      #002=DDA$RESET_PATCH_SPACE File=DDA$DO.:E05TSI                     TUE 07/29/97 13:26 Page:457
              MINI UREF LISTING

DDA$RESET_PATCH_SPACE       6**PROC

PL6.E3A0      #003=DDA$DOATTACH File=DDA$DO.:E05TSI                              TUE 07/29/97 13:26 Page:458
     2445        1        /*T***********************************************************/
     2446        2        /*T*                                                         */
     2447        3        /*T* Copyright (c) Bull HN Information Systems Inc., 1997    */
     2448        4        /*T*                                                         */
     2449        5        /*T***********************************************************/
     2450        6        /**/
     2451        7        /*D*  NAME:  DDA$DOATTACH
     2452        8              CALL:  CALL DDA$DOATTACH ALTRET(USERGO)
     2453        9              INPUT:   S_D.DO$ IS A POINTER TO THE FIRST ATTACHMENT,
     2454       10                       OR IT IS NIL IF THERE ARE NO TEXT ATTACHMENTS.
     2455       11             DESCRIPTION:  WITHIN THE CONTROLLING LOOP, EACH ATTACHMENT
     2456       12                           IS POINTED TO WITH DO$.  DDA$DO IS CALLED.
     2457       13                          IF A 'GO' IS ENCOUNTERED WITHIN THE ATTACHMENT
     2458       14                          LIST, CONTROL RETURNS TO THE USER (VIA ALTRET).
     2459       15                          IF NO 'GO' IS ENCOUNTED, THEN THE STOP FLAG IS
     2460       16                          CHECKED TO DETERMINE WHETHER TO RETURN TO THE USER OR
     2461       17                          OR THE SCANNER.  NOTE THAT THE STOP FLAG IS:
     2462       18                          1) SET TO A DEFAULT CONDITION APPROPRIATE TO THE
     2463       19                             METHOD OF ENTRY TO DELTA (USERFAULT OR STORED
     2464       20                             COMMAND) AND MODE (BATCH OR ON_LINE).  THIS IS
     2465       21                          DONE IN THE 'DO FIRST ATTACHMENT' ROUTINES.
     2466       22                          2) SET IF A 'STOP' COMMAND IS ISSUED.
     2467       23                           */
     2468       24        DDA$DOATTACH: PROC ALTRET;
     2469       25        %INCLUDE XUH_MACRO_C;
     2470      109        %INCLUDE DD_SD_M;
     2471     1445        %S_D;
     2472     2763        %INCLUDE DD_SUBS_C;
     2473     3034        %INCLUDE DD$BASED;
     2474     4337        %FIXCOM (NAME=FXCM);
     2475     4353        %ALL_ATTACH;
     2476     4368    1   DCL SAVEFAULT$ PTR;
     2477     4369    1   DCL SAVE_REM_DO_SCAN REMEMBER DALIGNED;
     2478     4370    1   DCL SAVE_DO_SCAN BIT(1) ALIGNED;
     2479     4371    1   DCL MUST_RESTORE BIT(1);
     2480     4372    1   DCL ATT$ PTR;
     2481     4373    1   DCL ATT_OFFSET UBIN;
PL6.E3A0      #003=DDA$DOATTACH File=DDA$DO.:E05TSI                              TUE 07/29/97 13:26 Page:459
     2482     4374        %AT_FIRST;
     2483     4402    1   DCL D_XDELTA BIT(1) SYMREF;
     2484     4403    1   DCL DDS$SCAN2 ENTRY(0) ALTRET;
     2485     4404    1   DCL DDA$DO ENTRY ALTRET;
     2486     4405    1   DCL DDB$BREAK ENTRY ALTRET;
     2487     4406    1   DCL DDR$REPORT ENTRY(1);
     2488     4407                                           /* IF THERE ARE NO ATTACHMENTS, RETURN */
     2489     4408    1        IF S_D.DO$ = ADDR(NIL) THEN GOTO END_LIST;
     2490     4409                            /* THERE ARE ATTACHMENTS.  BUILD POINTER TO THE END OF THE
     2491     4410                            LAST ONE */
     2492     4411    1        S_D.DO_ATTACH = S_D.DO_ATTACH + 1;
     2493     4412    1        ATT$ = S_D.DO$;
     2494     4413    1        ATT_OFFSET = ATT$ -> AT_FIRST.ATT_OFFSET;
     2495     4414    1        SAVE_REM_DO_SCAN = S_D.REM_DO_SCAN;
     2496     4415    1        SAVE_DO_SCAN = S_D.DO_SCAN;
     2497     4416    1        REMEMBER S_FAULT IN S_D.REM_DO_SCAN;
     2498     4417    1        S_D.DO_SCAN = '1'B;
     2499     4418    1        MUST_RESTORE = '0'B;
     2500     4419    2        DO WHILE ( ATT_OFFSET < ATT$ -> AT_FIRST.TEXT_SIZE );
     2501     4420    2             S_D.ACMDS$ = PINCRC( ATT$, ATT$ -> AT_FIRST.TEXT_OFFSET );
     2502     4421    2             S_D.ACMDS_SIZE = ATT$ -> AT_FIRST.TEXT_SIZE;
     2503     4422    2             S_D.ACMDS_OFF = ATT_OFFSET;
     2504     4423    2             CALL DDS$SCAN2 ALTRET( END_LIST1 );
     2505     4424    2             ATT_OFFSET = S_D.ACMDS_OFF;
     2506     4425    2             S_D.DO$ = ADDR( S_D.DIRCOM );
     2507     4426                                 /* If we are processing a list of attachments via DO,
     2508     4427                                 and the current frame is a GO, save FAULTCMD$ and put
     2509     4428                                 ENTRYCMD$ in its place.  This is so DDA$GO will see
     2510     4429                                 the entry command, and not a DO frame.  ENTRYCMD$ must
     2511     4430                                 be setup by DDA$DELTA on all calls to DOATTACH. */
     2512     4431    2             IF (S_D.DO$->ALL_ATTACH.CMD = C_GOTO) AND
     2513     4432    2               (S_D.FAULTCMD$ ~= PINCRW(ADDR(S_D.FIXCOM),SIZEW(FXCM)*S_D.IXFIX) )
     2514     4433    3             THEN DO;
     2515     4434    3                  SAVEFAULT$ = S_D.FAULTCMD$;
     2516     4435    3                  S_D.FAULTCMD$ = S_D.ENTRYCMD$;
     2517     4436    3                  MUST_RESTORE = '1'B;
     2518     4437    3                END;
PL6.E3A0      #003=DDA$DOATTACH File=DDA$DO.:E05TSI                              TUE 07/29/97 13:26 Page:460
     2519     4438    2             ELSE MUST_RESTORE = '0'B;
     2520     4439    2             CALL DDA$DO ALTRET(USERGO);
     2521     4440    2   NEXT_ATTACH: ;
     2522     4441    2             IF MUST_RESTORE THEN S_D.FAULTCMD$ = SAVEFAULT$;
     2523     4442    3             DO WHILE ( '0'B );
     2524     4443    3   END_LIST1:     S_D.STOP = '1'B;         /* An attachment failed */
     2525     4444    3                END;
     2526     4445    2             IF S_D.STOP THEN GOTO END_LIST;
     2527     4446    2             CALL DDB$BREAK ALTRET(END_LIST);
     2528     4447    2           END;
     2529     4448    1   END_LIST:
     2530     4449    1        S_D.DO_ATTACH = S_D.DO_ATTACH - 1;
     2531     4450    1        S_D.REM_DO_SCAN = SAVE_REM_DO_SCAN;
     2532     4451    1        S_D.DO_SCAN = SAVE_DO_SCAN;
     2533     4452    1        RETURN;
     2534     4453    1   USERGO:
     2535     4454    1        IF MUST_RESTORE THEN S_D.FAULTCMD$ = SAVEFAULT$;
     2536     4455    1        S_D.DO_SCAN = '0'B;
     2537     4456    1        S_D.DO_ATTACH = S_D.DO_ATTACH - 1;
     2538     4457    1        UNWIND TO S_D.REM_USERGO;
     2539     4458    1   S_FAULT: ;
     2540     4459    2        IF D_XDELTA THEN DO;
     2541     4460    2             CALL DDR$REPORT(R_SFAULT);
     2542     4461    2           END;                  /* FAULTS ARE PRINTED BY DEX$TRAP IN uDELTA */
     2543     4462    1        GOTO NEXT_ATTACH;
     2544     4463    1   END DDA$DOATTACH;

PL6.E3A0      #003=DDA$DOATTACH File=DDA$DO.:E05TSI                              TUE 07/29/97 13:26 Page:461
--  Include file information  --

   DD$BASED.:E05TOU  is referenced.
   DD_SUBS_C.:E05TOU  is referenced.
   DD_SD_M.:E05TOU  is referenced.
   XUH_MACRO_C.:E05TOU  is referenced.
   B$JIT_C.:E05TOU  was found in the system file and is never referenced.
   CP_6_C.:E05TOU  was found in the system file and is never referenced.
      No diagnostics issued in procedure DDA$DOATTACH.

   Procedure DDA$DOATTACH requires 124 words for executable code.
   Procedure DDA$DOATTACH requires 10 words of local(AUTO) storage.

    No errors detected in file DDA$DO.:E05TSI    .

PL6.E3A0      #003=DDA$DOATTACH File=DDA$DO.:E05TSI                              TUE 07/29/97 13:26 Page:462

 Object Unit name= DDA$DOATTACH                               File name= DDA$DO.:E05TOU
 UTS= JUL 29 '97 13:26:35.12 TUE                              Compiler= PL-6/E31         Sev=      00
 SharedLib= :SHARED_SYSTEM                                    Alt SharedLib=


    ****  Control sections  ****

 Sect   Type Bound  Init  Size OctSiz  Section name(segment info)
    0   Proc  even  none   124    174  DDA$DOATTACH
    1  RoData even  none     1      1  DDA$DOATTACH

    ****  Entry defs  ****

                              Check   Calling
                             calling  sequence
  Sect OctLoc Primary Altret sequence   type   Parms  Name
     0      0   yes    yes     yes      Std        0  DDA$DOATTACH

  ****  Entry refs  ****

         Check        Calling
        calling       sequence
Altret sequence SRef   type   Args  Name
 yes     yes           Std       0 DDS$SCAN2
 yes     yes           Std       0 DDA$DO
 yes     yes           Std       0 DDB$BREAK
         yes           Std       1 DDR$REPORT
                       nStd      0 X66_AUTO_0
                       Std       0 B_CONSPOOL_D
                       nStd      0 X66_ARET
                       nStd      0 X66_AUNWIND
PL6.E3A0      #003=DDA$DOATTACH File=DDA$DO.:E05TSI                              TUE 07/29/97 13:26 Page:463

  ****  Data refs  ****

  Flags:  r = read only, s = secondary
Flgs Name                             Flgs Name                             Flgs Name
r    S_D$                                  D_XDELTA                              B_VECTNIL

  ****  Segment refs  ****

  Flags:  r = read only, s = secondary
Flgs Name                             Flgs Name                             Flgs Name
     ISSID
PL6.E3A0      #003=DDA$DOATTACH File=DDA$DO.:E05TSI                              TUE 07/29/97 13:26 Page:464


     2445        1        /*T***********************************************************/
     2446        2        /*T*                                                         */
     2447        3        /*T* Copyright (c) Bull HN Information Systems Inc., 1997    */
     2448        4        /*T*                                                         */
     2449        5        /*T***********************************************************/
     2450        6        /**/
     2451        7        /*D*  NAME:  DDA$DOATTACH
     2452        8              CALL:  CALL DDA$DOATTACH ALTRET(USERGO)
     2453        9              INPUT:   S_D.DO$ IS A POINTER TO THE FIRST ATTACHMENT,
     2454       10                       OR IT IS NIL IF THERE ARE NO TEXT ATTACHMENTS.
     2455       11             DESCRIPTION:  WITHIN THE CONTROLLING LOOP, EACH ATTACHMENT
     2456       12                           IS POINTED TO WITH DO$.  DDA$DO IS CALLED.
     2457       13                          IF A 'GO' IS ENCOUNTERED WITHIN THE ATTACHMENT
     2458       14                          LIST, CONTROL RETURNS TO THE USER (VIA ALTRET).
     2459       15                          IF NO 'GO' IS ENCOUNTED, THEN THE STOP FLAG IS
     2460       16                          CHECKED TO DETERMINE WHETHER TO RETURN TO THE USER OR
     2461       17                          OR THE SCANNER.  NOTE THAT THE STOP FLAG IS:
     2462       18                          1) SET TO A DEFAULT CONDITION APPROPRIATE TO THE
     2463       19                             METHOD OF ENTRY TO DELTA (USERFAULT OR STORED
     2464       20                             COMMAND) AND MODE (BATCH OR ON_LINE).  THIS IS
     2465       21                          DONE IN THE 'DO FIRST ATTACHMENT' ROUTINES.
     2466       22                          2) SET IF A 'STOP' COMMAND IS ISSUED.
     2467       23                           */
     2468       24        DDA$DOATTACH: PROC ALTRET;

     24  0 000000   000000 700200 xent  DDA$DOATTACH TSX0  ! X66_AUTO_0
         0 000001   000012 000000                    ZERO    10,0

     2469       25        %INCLUDE XUH_MACRO_C;
     2470      109        %INCLUDE DD_SD_M;
     2471     1445        %S_D;
     2472     2763        %INCLUDE DD_SUBS_C;
     2473     3034        %INCLUDE DD$BASED;
     2474     4337        %FIXCOM (NAME=FXCM);
     2475     4353        %ALL_ATTACH;
     2476     4368    1   DCL SAVEFAULT$ PTR;
PL6.E3A0      #003=DDA$DOATTACH File=DDA$DO.:E05TSI                              TUE 07/29/97 13:26 Page:465
     2477     4369    1   DCL SAVE_REM_DO_SCAN REMEMBER DALIGNED;
     2478     4370    1   DCL SAVE_DO_SCAN BIT(1) ALIGNED;
     2479     4371    1   DCL MUST_RESTORE BIT(1);
     2480     4372    1   DCL ATT$ PTR;
     2481     4373    1   DCL ATT_OFFSET UBIN;
     2482     4374        %AT_FIRST;
     2483     4402    1   DCL D_XDELTA BIT(1) SYMREF;
     2484     4403    1   DCL DDS$SCAN2 ENTRY(0) ALTRET;
     2485     4404    1   DCL DDA$DO ENTRY ALTRET;
     2486     4405    1   DCL DDB$BREAK ENTRY ALTRET;
     2487     4406    1   DCL DDR$REPORT ENTRY(1);
     2488     4407                                           /* IF THERE ARE NO ATTACHMENTS, RETURN */
     2489     4408    1        IF S_D.DO$ = ADDR(NIL) THEN GOTO END_LIST;

   4408  0 000002   000000 470400 xsym               LDP0    S_D$
         0 000003   000031 236100                    LDQ     25,,PR0
         0 000004   000001 116000 xsym               CMPQ    B_VECTNIL+1
         0 000005   000136 600000 0                  TZE     END_LIST

     2490     4409                            /* THERE ARE ATTACHMENTS.  BUILD POINTER TO THE END OF THE
     2491     4410                            LAST ONE */
     2492     4411    1        S_D.DO_ATTACH = S_D.DO_ATTACH + 1;

   4411  0 000006   000512 235100                    LDA     330,,PR0
         0 000007   000001 035007                    ADLA    1,DL
         0 000010   000512 755100                    STA     330,,PR0

     2493     4412    1        ATT$ = S_D.DO$;

   4412  0 000011   200010 756100                    STQ     ATT$,,AUTO

     2494     4413    1        ATT_OFFSET = ATT$ -> AT_FIRST.ATT_OFFSET;

   4413  0 000012   200010 471500                    LDP1    ATT$,,AUTO
         0 000013   100007 236100                    LDQ     7,,PR1
         0 000014   000022 772000                    QRL     18
         0 000015   200011 756100                    STQ     ATT_OFFSET,,AUTO
PL6.E3A0      #003=DDA$DOATTACH File=DDA$DO.:E05TSI                              TUE 07/29/97 13:26 Page:466

     2495     4414    1        SAVE_REM_DO_SCAN = S_D.REM_DO_SCAN;

   4414  0 000016   000022 237100                    LDAQ    18,,PR0
         0 000017   200004 757100                    STAQ    SAVE_REM_DO_SCAN,,AUTO

     2496     4415    1        SAVE_DO_SCAN = S_D.DO_SCAN;

   4415  0 000020   000017 236100                    LDQ     15,,PR0
         0 000021   400000 376003                    ANQ     -131072,DU
         0 000022   200006 756100                    STQ     SAVE_DO_SCAN,,AUTO

     2497     4416    1        REMEMBER S_FAULT IN S_D.REM_DO_SCAN;

   4416  0 000023   000165 635000 0                  EAA     S_FAULT
         0 000024   000022 452500                    STP2    18,,PR0
         0 000025   000023 755100                    STA     19,,PR0

     2498     4417    1        S_D.DO_SCAN = '1'B;

   4417  0 000026   400000 236003                    LDQ     -131072,DU
         0 000027   000017 756100                    STQ     15,,PR0

     2499     4418    1        MUST_RESTORE = '0'B;

   4418  0 000030   200007 450100                    STZ     MUST_RESTORE,,AUTO

     2500     4419    2        DO WHILE ( ATT_OFFSET < ATT$ -> AT_FIRST.TEXT_SIZE );

   4419  0 000031   100006 236100                    LDQ     6,,PR1
         0 000032   777777 376007                    ANQ     -1,DL
         0 000033   200011 116100                    CMPQ    ATT_OFFSET,,AUTO
         0 000034   000136 602000 0                  TNC     END_LIST
         0 000035   000136 600000 0                  TZE     END_LIST

     2501     4420    2             S_D.ACMDS$ = PINCRC( ATT$, ATT$ -> AT_FIRST.TEXT_OFFSET );

PL6.E3A0      #003=DDA$DOATTACH File=DDA$DO.:E05TSI                              TUE 07/29/97 13:26 Page:467
   4420  0 000036   200010 470500                    LDP0    ATT$,,AUTO
         0 000037   000006 236100                    LDQ     6,,PR0
         0 000040   000022 772000                    QRL     18
         0 000041   000020 736000                    QLS     16
         0 000042   200010 036100                    ADLQ    ATT$,,AUTO
         0 000043   000000 471400 xsym               LDP1    S_D$
         0 000044   100510 756100                    STQ     328,,PR1

     2502     4421    2             S_D.ACMDS_SIZE = ATT$ -> AT_FIRST.TEXT_SIZE;

   4421  0 000045   000006 236100                    LDQ     6,,PR0
         0 000046   777777 376007                    ANQ     -1,DL
         0 000047   100511 756100                    STQ     329,,PR1

     2503     4422    2             S_D.ACMDS_OFF = ATT_OFFSET;

   4422  0 000050   200011 235100                    LDA     ATT_OFFSET,,AUTO
         0 000051   100507 755100                    STA     327,,PR1

     2504     4423    2             CALL DDS$SCAN2 ALTRET( END_LIST1 );

   4423  0 000052   000002 631400 xsym               EPPR1   B_VECTNIL+2
         0 000053   000000 701000 xent               TSX1    DDS$SCAN2
         0 000054   000117 702000 0                  TSX2    END_LIST1

     2505     4424    2             ATT_OFFSET = S_D.ACMDS_OFF;

   4424  0 000055   000000 470400 xsym               LDP0    S_D$
         0 000056   000507 235100                    LDA     327,,PR0
         0 000057   200011 755100                    STA     ATT_OFFSET,,AUTO

     2506     4425    2             S_D.DO$ = ADDR( S_D.DIRCOM );

   4425  0 000060   000000 236000 xsym               LDQ     S_D$
         0 000061   001046 036003                    ADLQ    550,DU
         0 000062   000031 756100                    STQ     25,,PR0

PL6.E3A0      #003=DDA$DOATTACH File=DDA$DO.:E05TSI                              TUE 07/29/97 13:26 Page:468
     2507     4426                                 /* If we are processing a list of attachments via DO,
     2508     4427                                 and the current frame is a GO, save FAULTCMD$ and put
     2509     4428                                 ENTRYCMD$ in its place.  This is so DDA$GO will see
     2510     4429                                 the entry command, and not a DO frame.  ENTRYCMD$ must
     2511     4430                                 be setup by DDA$DELTA on all calls to DOATTACH. */
     2512     4431    2             IF (S_D.DO$->ALL_ATTACH.CMD = C_GOTO) AND

   4431  0 000063   000031 471500                    LDP1    25,,PR0
         0 000064   100000 236100                    LDQ     0,,PR1
         0 000065   777000 376003                    ANQ     -512,DU
         0 000066   013000 116003                    CMPQ    5632,DU
         0 000067   000105 601000 0                  TNZ     s:4438
         0 000070   000015 236100                    LDQ     13,,PR0
         0 000071   000006 402003                    MPY     6,DU
         0 000072   001212 036003                    ADLQ    650,DU
         0 000073   000000 036000 xsym               ADLQ    S_D$
         0 000074   000004 116100                    CMPQ    4,,PR0
         0 000075   000105 600000 0                  TZE     s:4438

     2513     4432    2               (S_D.FAULTCMD$ ~= PINCRW(ADDR(S_D.FIXCOM),SIZEW(FXCM)*S_D.IXFIX) )
     2514     4433    3             THEN DO;

     2515     4434    3                  SAVEFAULT$ = S_D.FAULTCMD$;

   4434  0 000076   000004 236100                    LDQ     4,,PR0
         0 000077   200003 756100                    STQ     SAVEFAULT$,,AUTO

     2516     4435    3                  S_D.FAULTCMD$ = S_D.ENTRYCMD$;

   4435  0 000100   005203 236100                    LDQ     2691,,PR0
         0 000101   000004 756100                    STQ     4,,PR0

     2517     4436    3                  MUST_RESTORE = '1'B;

   4436  0 000102   400000 236003                    LDQ     -131072,DU
         0 000103   200007 756100                    STQ     MUST_RESTORE,,AUTO

PL6.E3A0      #003=DDA$DOATTACH File=DDA$DO.:E05TSI                              TUE 07/29/97 13:26 Page:469
     2518     4437    3                END;

   4437  0 000104   000106 710000 0                  TRA     s:4439

     2519     4438    2             ELSE MUST_RESTORE = '0'B;

   4438  0 000105   200007 450100                    STZ     MUST_RESTORE,,AUTO

     2520     4439    2             CALL DDA$DO ALTRET(USERGO);

   4439  0 000106   000002 631400 xsym               EPPR1   B_VECTNIL+2
         0 000107   000000 701000 xent               TSX1    DDA$DO
         0 000110   000150 702000 0                  TSX2    USERGO

   4435  0 000111                       NEXT_ATTACH  null
     2521     4440    2   NEXT_ATTACH: ;
     2522     4441    2             IF MUST_RESTORE THEN S_D.FAULTCMD$ = SAVEFAULT$;

   4441  0 000111   200007 234100                    SZN     MUST_RESTORE,,AUTO
         0 000112   000116 605000 0                  TPL     s:4442

   4441  0 000113   200003 236100                    LDQ     SAVEFAULT$,,AUTO
         0 000114   000000 470400 xsym               LDP0    S_D$
         0 000115   000004 756100                    STQ     4,,PR0

     2523     4442    3             DO WHILE ( '0'B );

   4442  0 000116   000122 710000 0                  TRA     s:4445

     2524     4443    3   END_LIST1:     S_D.STOP = '1'B;         /* An attachment failed */

   4443  0 000117   400000 236003       END_LIST1    LDQ     -131072,DU
         0 000120   000000 470400 xsym               LDP0    S_D$
         0 000121   000050 756100                    STQ     40,,PR0

     2525     4444    3                END;

PL6.E3A0      #003=DDA$DOATTACH File=DDA$DO.:E05TSI                              TUE 07/29/97 13:26 Page:470
     2526     4445    2             IF S_D.STOP THEN GOTO END_LIST;

   4445  0 000122   000000 470400 xsym               LDP0    S_D$
         0 000123   000050 234100                    SZN     40,,PR0
         0 000124   000136 604000 0                  TMI     END_LIST

     2527     4446    2             CALL DDB$BREAK ALTRET(END_LIST);

   4446  0 000125   000002 631400 xsym               EPPR1   B_VECTNIL+2
         0 000126   000000 701000 xent               TSX1    DDB$BREAK
         0 000127   000136 702000 0                  TSX2    END_LIST

     2528     4447    2           END;

   4447  0 000130   200010 470500                    LDP0    ATT$,,AUTO
         0 000131   000006 236100                    LDQ     6,,PR0
         0 000132   777777 376007                    ANQ     -1,DL
         0 000133   200011 116100                    CMPQ    ATT_OFFSET,,AUTO
         0 000134   000136 600000 0                  TZE     END_LIST
         0 000135   000036 603000 0                  TRC     s:4420

     2529     4448    1   END_LIST:
     2530     4449    1        S_D.DO_ATTACH = S_D.DO_ATTACH - 1;

   4449  0 000136   000000 470400 xsym  END_LIST     LDP0    S_D$
         0 000137   000512 235100                    LDA     330,,PR0
         0 000140   000001 135007                    SBLA    1,DL
         0 000141   000512 755100                    STA     330,,PR0

     2531     4450    1        S_D.REM_DO_SCAN = SAVE_REM_DO_SCAN;

   4450  0 000142   200004 237100                    LDAQ    SAVE_REM_DO_SCAN,,AUTO
         0 000143   000022 757100                    STAQ    18,,PR0

     2532     4451    1        S_D.DO_SCAN = SAVE_DO_SCAN;

   4451  0 000144   200006 236100                    LDQ     SAVE_DO_SCAN,,AUTO
PL6.E3A0      #003=DDA$DOATTACH File=DDA$DO.:E05TSI                              TUE 07/29/97 13:26 Page:471
         0 000145   400000 376003                    ANQ     -131072,DU
         0 000146   000017 756100                    STQ     15,,PR0

     2533     4452    1        RETURN;

   4452  0 000147   000000 702200 xent               TSX2  ! X66_ARET

     2534     4453    1   USERGO:
     2535     4454    1        IF MUST_RESTORE THEN S_D.FAULTCMD$ = SAVEFAULT$;

   4454  0 000150   200007 234100       USERGO       SZN     MUST_RESTORE,,AUTO
         0 000151   000155 605000 0                  TPL     s:4455

   4454  0 000152   200003 236100                    LDQ     SAVEFAULT$,,AUTO
         0 000153   000000 470400 xsym               LDP0    S_D$
         0 000154   000004 756100                    STQ     4,,PR0

     2536     4455    1        S_D.DO_SCAN = '0'B;

   4455  0 000155   000000 470400 xsym               LDP0    S_D$
         0 000156   000017 450100                    STZ     15,,PR0

     2537     4456    1        S_D.DO_ATTACH = S_D.DO_ATTACH - 1;

   4456  0 000157   000512 235100                    LDA     330,,PR0
         0 000160   000001 135007                    SBLA    1,DL
         0 000161   000512 755100                    STA     330,,PR0

     2538     4457    1        UNWIND TO S_D.REM_USERGO;

   4457  0 000162   005232 237300                    LDAQ  ! 2714,,PR0
         0 000163   000000 700200 xent               TSX0  ! X66_AUNWIND
         0 000164   000000 000200                    ZERO    0,128

   4457  0 000165                       S_FAULT      null
     2539     4458    1   S_FAULT: ;
     2540     4459    2        IF D_XDELTA THEN DO;
PL6.E3A0      #003=DDA$DOATTACH File=DDA$DO.:E05TSI                              TUE 07/29/97 13:26 Page:472

   4459  0 000165   000000 234000 xsym               SZN     D_XDELTA
         0 000166   000173 605000 0                  TPL     s:4462

     2541     4460    2             CALL DDR$REPORT(R_SFAULT);

   4460  0 000167   000000 630400 1                  EPPR0   0
         0 000170   000017 631400 xsym               EPPR1   B_VECTNIL+15
         0 000171   000000 701000 xent               TSX1    DDR$REPORT
         0 000172   000000 011000                    NOP     0

     2542     4461    2           END;                  /* FAULTS ARE PRINTED BY DEX$TRAP IN uDELTA */

     2543     4462    1        GOTO NEXT_ATTACH;

   4462  0 000173   000111 710000 0                  TRA     NEXT_ATTACH

(unnamed)
 Sect OctLoc
   1     000   000012 006000                                                    ....
     2544     4463    1   END DDA$DOATTACH;

PL6.E3A0      #003=DDA$DOATTACH File=DDA$DO.:E05TSI                              TUE 07/29/97 13:26 Page:473
--  Include file information  --

   DD$BASED.:E05TOU  is referenced.
   DD_SUBS_C.:E05TOU  is referenced.
   DD_SD_M.:E05TOU  is referenced.
   XUH_MACRO_C.:E05TOU  is referenced.
   B$JIT_C.:E05TOU  was found in the system file and is never referenced.
   CP_6_C.:E05TOU  was found in the system file and is never referenced.
      No diagnostics issued in procedure DDA$DOATTACH.

   Procedure DDA$DOATTACH requires 124 words for executable code.
   Procedure DDA$DOATTACH requires 10 words of local(AUTO) storage.

    No errors detected in file DDA$DO.:E05TSI    .
PL6.E3A0      #003=DDA$DOATTACH File=DDA$DO.:E05TSI                              TUE 07/29/97 13:26 Page:474
          *** CROSS REFERENCE LISTING ***
**     DENOTES     IDENTIFIER DEFINITION
<<                 IDENTIFIER'S VALUE SET
>>                 IDENTIFIER'S VALUE USED
<>                 IDENTIFIER SET AND/OR USED
--                 IDENTIFIER REFERENCED
PL6.E3A0      #003=DDA$DOATTACH File=DDA$DO.:E05TSI                              TUE 07/29/97 13:26 Page:475
          MINI XREF LISTING

ALL_ATTACH.CMD
      4355**DCL      4431>>IF
ALL_ATTACH.UNUSED
      4358**DCL      4359--REDEF    4363--REDEF
ATT$
      4372**DCL      4412<<ASSIGN   4413>>ASSIGN   4419>>DOWHILE  4420>>ASSIGN   4420>>ASSIGN   4421>>ASSIGN
ATT_OFFSET
      4373**DCL      4413<<ASSIGN   4419>>DOWHILE  4422>>ASSIGN   4424<<ASSIGN
AT_FIRST.ATT_OFFSET
      4399**DCL      4413>>ASSIGN
AT_FIRST.TEXT_OFFSET
      4397**DCL      4420>>ASSIGN
AT_FIRST.TEXT_SIZE
      4398**DCL      4419>>DOWHILE  4421>>ASSIGN
AT_FIRST.UNUSED
      4379**DCL      4380--REDEF    4384--REDEF
DDA$DO
      4404**DCL-ENT  4439--CALL
DDB$BREAK
      4405**DCL-ENT  4446--CALL
DDR$REPORT
      4406**DCL-ENT  4460--CALL
DDS$SCAN2
      4403**DCL-ENT  4423--CALL
D_XDELTA
      4402**DCL      4459>>IF
END_LIST
      4449**LABEL    4408--GOTO     4445--GOTO     4446--CALLALT
END_LIST1
      4443**LABEL    4423--CALLALT
FXCM
      4338**DCL      4431--IF
PL6.E3A0      #003=DDA$DOATTACH File=DDA$DO.:E05TSI                              TUE 07/29/97 13:26 Page:476
MUST_RESTORE
      4371**DCL      4418<<ASSIGN   4436<<ASSIGN   4438<<ASSIGN   4441>>IF       4454>>IF
NEXT_ATTACH
      4435**LABEL    4462--GOTO
SAVEFAULT$
      4368**DCL      4434<<ASSIGN   4441>>ASSIGN   4454>>ASSIGN
SAVE_DO_SCAN
      4370**DCL      4415<<ASSIGN   4451>>ASSIGN
SAVE_REM_DO_SCAN
      4369**DCL      4414<<ASSIGN   4450>>ASSIGN
S_D.ACMDS$
      1668**DCL      4420<<ASSIGN
S_D.ACMDS_OFF
      1666**DCL      4422<<ASSIGN   4424>>ASSIGN
S_D.ACMDS_SIZE
      1670**DCL      4421<<ASSIGN
S_D.CURRENT_CHANNEL
      2397**DCL      2399--REDEF
S_D.DEBUGA
      1549**DCL      1551--REDEF
S_D.DIRCOM
      1901**DCL      4425--ASSIGN
S_D.DO$
      1500**DCL      4408>>IF       4412>>ASSIGN   4425<<ASSIGN   4431>>IF
S_D.DO_ATTACH
      1672**DCL      4411<<ASSIGN   4411>>ASSIGN   4449<<ASSIGN   4449>>ASSIGN   4456<<ASSIGN   4456>>ASSIGN
S_D.DO_SCAN
      1486**DCL      4415>>ASSIGN   4417<<ASSIGN   4451<<ASSIGN   4455<<ASSIGN
S_D.EIS
      2507**DCL      2536--REDEF
S_D.ENTRYCMD$
      2249**DCL      4435>>ASSIGN
S_D.FAULTCMD$
      1464**DCL      4431>>IF       4434>>ASSIGN   4435<<ASSIGN   4441<<ASSIGN   4454<<ASSIGN
S_D.FIXCOM
      1903**DCL      4431--IF
PL6.E3A0      #003=DDA$DOATTACH File=DDA$DO.:E05TSI                              TUE 07/29/97 13:26 Page:477
S_D.HOST_MESSAGE_BUF_REMOTE
      2440**DCL      2441--REDEF    2455--REDEF
S_D.IXFIX
      1482**DCL      4431>>IF
S_D.JDE
      2054**DCL      2055--REDEF
S_D.L$.VALUE
      1607**DCL      1613--REDEF    1621--REDEF    1624--REDEF    1627--REDEF    1630--REDEF
S_D.L$.VALUE.L
      1608**DCL      1609--REDEF    1610--REDEF
S_D.L6_MESSAGE_BUF
      2461**DCL      2463--REDEF
S_D.OUTPUT
      2427**DCL      2429--REDEF
S_D.REMOTE_MSG.FNCC
      2446**DCL      2447--REDEF
S_D.REMOTE_MSG.STXC
      2442**DCL      2443--REDEF
S_D.REMOTE_MSG.SUBFNCC
      2450**DCL      2451--REDEF
S_D.REM_DO_SCAN
      1490**DCL      4414>>ASSIGN   4416<<REMEMBR  4450<<ASSIGN
S_D.REM_USERGO
      2270**DCL      4457>>UNWIND
S_D.STOP
      1543**DCL      4443<<ASSIGN   4445>>IF
S_D.SV
      1506**DCL      1527--REDEF
S_D$
      2758**DCL      1454--IMP-PTR  4408>>IF       4411>>ASSIGN   4411>>ASSIGN   4412>>ASSIGN   4414>>ASSIGN
      4415>>ASSIGN   4416>>REMEMBR  4417>>ASSIGN   4420>>ASSIGN   4421>>ASSIGN   4422>>ASSIGN   4424>>ASSIGN
      4425>>ASSIGN   4425>>ASSIGN   4431>>IF       4431>>IF       4431>>IF       4431>>IF       4434>>ASSIGN
      4435>>ASSIGN   4435>>ASSIGN   4441>>ASSIGN   4443>>ASSIGN   4445>>IF       4449>>ASSIGN   4449>>ASSIGN
      4450>>ASSIGN   4451>>ASSIGN   4454>>ASSIGN   4455>>ASSIGN   4456>>ASSIGN   4456>>ASSIGN   4457>>UNWIND
S_FAULT
      4457**LABEL    4416--REMEMBR
PL6.E3A0      #003=DDA$DOATTACH File=DDA$DO.:E05TSI                              TUE 07/29/97 13:26 Page:478
USERGO
      4454**LABEL    4439--CALLALT
PL6.E3A0      #003=DDA$DOATTACH File=DDA$DO.:E05TSI                              TUE 07/29/97 13:26 Page:479
              *** CROSS REFERENCE LISTING ***
    **     DENOTES     IDENTIFIER DEFINITION
    <<                 IDENTIFIER'S VALUE SET
    >>                 IDENTIFIER'S VALUE USED
    <>                 IDENTIFIER SET AND/OR USED
    --                 IDENTIFIER REFERENCED
PL6.E3A0      #003=DDA$DOATTACH File=DDA$DO.:E05TSI                              TUE 07/29/97 13:26 Page:480
              MINI UREF LISTING

DDA$DOATTACH      24**PROC
