VERSION E05

PL6.E3A0      #001=DDA$DUMP File=DDA$DUMP.:E05TSI                                TUE 07/29/97 13:27 Page:1
        1        1        /*M* DDA$DUMP  - DUMP DO ROUTINE */
        2        2        /*T***********************************************************/
        3        3        /*T*                                                         */
        4        4        /*T* Copyright (c) Bull HN Information Systems Inc., 1997    */
        5        5        /*T*                                                         */
        6        6        /*T***********************************************************/
        7        7        /*X* CCC,DMR,PLM=5,IND=5,CSU=3,EXM=0,ECU=3,MOC,DCI=5,CRT=5 */
        8        8        %SET LISTSUB='1'B;
        9        9        /*P* NAME: DDA$DUMP
       10       10             PURPOSE:  To provide the dump function for the PMD and DUMP commands.
       11       11        */
       12       12        /*D* NAME: DDA$DUMP
       13       13             DESCRIPTION:  DDA$DUMP takes the addressing information passed to
       14       14                  it, and access sequencial memory from the address passed to
       15       15                  the address+words_to_dump-1, bypassing any missing pages
       16       16                  encountered.  This routine is used by DUA$PMD.
       17       17        */
       18       18        DDA$DUMP: PROC(PADDRESS, PSEG, PDESC#, PNOT_IS, PC_FLAG, PNUM_WORDS) ALTRET;
       19       19                                                /**/
       20       20    1   DCL PADDRESS UBIN;
       21       21    1   DCL PSEG UBIN;
       22       22    1   DCL PDESC# UBIN;
       23       23    1   DCL PNOT_IS BIT(1) ALIGNED;
       24       24    1   DCL PC_FLAG BIT(1) ALIGNED;
       25       25    1   DCL PNUM_WORDS UBIN;
       26       26    1   DCL PMD_FLAG BIT(1);
       27       27    1   DCL ADDRESS SBIN;
       28       28    1   DCL TEMP_S SBIN;
       29       29    1   DCL I UBIN;
       30       30    1   DCL TEMP UBIN;
       31       31    1   DCL MAX_CELL SBIN;
       32       32    1   DCL MAX_ADDRESS UBIN;
       33       33    1   DCL TEXT_LEN UBIN;
       34       34    1   DCL SEG UBIN;
       35       35    1   DCL DESC# UBIN;
       36       36    1   DCL NOT_IS BIT(1);
       37       37    1   DCL NUM_WORDS UBIN;
PL6.E3A0      #001=DDA$DUMP File=DDA$DUMP.:E05TSI                                TUE 07/29/97 13:27 Page:2
       38       38    1   DCL SAVE_CALLED BIT(1);
       39       39    1   DCL C_FLAG BIT(1);
       40       40    1   DCL X_FLAG BIT(1);
       41       41    1   DCL H_FLAG BIT(1);
       42       42    1   DCL EB_FLAG BIT(1);
       43       43    1   DCL LONG_FLAG BIT(1);
       44       44    1   DCL MUST_CALL_CLOSE BIT(1);
       45       45    1   DCL MISSING_PAGE_FLAG BIT(1);
       46       46    1   DCL 1 VALUE,
       47       47    1         2 SIZE UBIN WORD,
       48       48    1         2 OPS(0:15) UBIN WORD;
       49       49    1   DCL SAVE_DCTX SBIN;
       50       50    1   DCL SAVE_WIDTH UBIN;
       51       51    1   DCL SAVE_ADDRESS UBIN;
       52       52    1   DCL SIZE UBIN;
       53       53    1   DCL OFFSET UBIN;
       54       54    1   DCL MAX_CELL_M_1 UBIN;
       55       55    1   DCL DATA(0:7) UBIN;
       56       56    1   DCL DATA_CHAR REDEF DATA CHAR(32);
       57       57    1   DCL DATA_VAL (0:31) REDEF DATA UBIN(9) UNAL;
       58       58    1   DCL SAVE_DATA(0:7) UBIN;
       59       59    1   DCL SAVE_DATA_CHAR REDEF SAVE_DATA CHAR(32);
       60       60    1   DCL SAVE_DATA_VAL (0:31) REDEF SAVE_DATA UBIN(9) UNAL;
       61       61    1   DCL BLANK UBIN;
       62       62    1   DCL SAVE_VALUE UBIN;
       63       63    1   DCL SAVE_VALUE_CHAR REDEF SAVE_VALUE CHAR(4);
       64       64    1   DCL OFFSET_SAVE SBIN;
       65       65    1   DCL J UBIN;
       66       66    1   DCL K UBIN;
       67       67    1   DCL L UBIN;
       68       68    1   DCL NODE UBIN;
       69       69    1   DCL OUTPUT$ PTR;
       70       70    1   DCL SAME_COUNT UBIN;
       71       71    1   DCL CHECK_DUP BIT(1);
       72       72    1   DCL CHAR_HOLD CHAR(12);
       73       73    1   DCL OTEXT CHAR(12) BASED;
       74       74    1   DCL CHAR6 CHAR(6) BASED;
PL6.E3A0      #001=DDA$DUMP File=DDA$DUMP.:E05TSI                                TUE 07/29/97 13:27 Page:3
       75       75    1   DCL CHAR9 CHAR(SIZE) BASED;
       76       76    1   DCL CHAR32 CHAR(32) BASED;
       77       77    1   DCL 1 DUMP_HEADING BASED,
       78       78    1         2 LEN UBIN(9) UNAL,
       79       79    1         2 TEXT CHAR(TEXT_LEN);
       80       80        %INCLUDE DD$BASED;
       81     1383        %DUMP$CMD;
       82     1413        %INCLUDE DD_SUBS_C;
       83     1684        %INCLUDE DD$DITEM;
       12+    1787             %LIST;
       13+    1788    1        DCL SDD$ PTR;
       14+    1789    1        DCL ZITEM$ PTR;
       15+    1790    1        DCL SDD_L6$ PTR;
       16+    1791    1        DCL ZITEM_L6$ PTR;
       84     2365        %INCLUDE DD_ERR_C;
       85     2762        %INCLUDE XUH_MACRO_C;
       86     2846        %INCLUDE DD_SD_M;
       87     4182        %S_D;
       88     5500        %INCLUDE DD_PSUBS_C;
       89     5975        %INCLUDE CP_6;
       90     6056        %F$DCB;
       91     6113        %INCLUDE CP_6_SUBS;
       92     6653        %INCLUDE B$TABLES_C;
       93     6761        %B$XL_ASC_DUMP(NAME=T_TABLE);
       94     6765        %B$XL_EBC_DUMP(NAME=EBCDIC_XLATE_TABLE);
       95     6769    1   DCL DCTX_LP UBIN SYMREF;
       96     6770    1   DCL DCTX_ME UBIN SYMREF;
       97     6771    1   DCL D_M$DO# UBIN SYMREF;
       98     6772    1   DCL D_XDELTA BIT(1) SYMREF;
       99     6773    1   DCL OUT_DEV UBIN SYMREF;
      100     6774    1   DCL ECHO_DEV UBIN SYMREF;
      101     6775    1   DCL DDK$EVAL ENTRY(6) ALTRET;
      102     6776    1   DCL DDK$GETMVAL ENTRY(5) ALTRET;
      103     6777    1   DCL DUL$GETMVAL ENTRY(5) ALTRET;
      104     6778    1   DCL DUU$GETMVAL ENTRY(6) ALTRET;
      105     6779    1   DCL DDS$IC2NODE ENTRY(2) ALTRET;
      106     6780    1   DCL DDA$DISPADR ENTRY(7) ALTRET;
PL6.E3A0      #001=DDA$DUMP File=DDA$DUMP.:E05TSI                                TUE 07/29/97 13:27 Page:4
      107     6781    1   DCL DDA$DISPFMT ENTRY(6) ALTRET;
      108     6782    1   DCL DDQ$WRITED ENTRY(2);
      109     6783    1   DCL DDR$BINOCT ENTRY(2) ALTRET;
      110     6784    1   DCL DDQ$WRTOFD ENTRY;
      111     6785    1   DCL DUA$OUTPUT ENTRY(4) ALTRET;
      112     6786    1   DCL DUA$CLOSEDUMP ENTRY ALTRET;
      113     6787    1   DCL DDR$BINTXT    ENTRY(4);
      114     6788    1   DCL DDB$BREAK ENTRY ALTRET;
      115     6789        %EJECT;
PL6.E3A0      #001=DDA$DUMP File=DDA$DUMP.:E05TSI                                TUE 07/29/97 13:27 Page:5
      116     6790    1        PMD_FLAG = '1'B;
      117     6791    1        LONG_FLAG = '0'B;
      118     6792    1        S_D.DUMPDCB = D_M$DO#;
      119     6793    1        OUTPUT$ = ADDR(S_D.OUTPUT);
      120     6794    1        ADDRESS = PADDRESS;
      121     6795    1        SEG = PSEG;
      122     6796    1        DESC# = PDESC#;
      123     6797    1        NOT_IS = PNOT_IS;
      124     6798    1        C_FLAG = PC_FLAG;
      125     6799    1        NUM_WORDS = PNUM_WORDS;
      126     6800    1        SAVE_WIDTH = S_D.OUT_WIDTH;
      127     6801    1        S_D.ERROR = 0;
      128     6802    1        MUST_CALL_CLOSE = '0'B;
      129     6803    1        VALUE.SIZE = 1;
      130     6804    1        CALL DDK$GETMVAL(VALUE.OPS(0), ADDRESS, SEG, DESC#, NOT_IS) ALTRET(L6);
      131     6805    2        DO WHILE('0'B);
      132     6806    2   L6:       IF S_D.ERROR ~= 76 THEN GOTO CLEAN_RETURN; /*E@NOPAGE*/
      133     6807    2           END;
      134     6808    1        SAVE_VALUE = VALUE.OPS(0);
      135     6809    1        GOTO COMMON;
      136     6810        /*D* NAME: DDA$DUMP_DO
      137     6811             DESCRIPTION: This routine is called by DDA$DO to perform the DUMP
      138     6812                  directive.  The data_descriptor is decoded, and the optional
      139     6813                  output destination, page eject, and heading are output before
      140     6814                  entering the common sections.
      141     6815        */
      142     6816    1   DDA$DUMP_DO: ENTRY ALTRET;
      143     6817    1        PMD_FLAG = '0'B;
      144     6818    1        C_FLAG = '0'B;
      145     6819    1        NUM_WORDS = S_D.DO$->DUMP$CMD.NUM;
      146     6820    1        IF S_D.DO$ -> DUMP$CMD.LONG
      147     6821    1        THEN LONG_FLAG = '1'B;
      148     6822    1        ELSE LONG_FLAG = '0'B;
      149     6823                                                /**/
      150     6824    1   COMMON:
      151     6825    1        S_D.ERROR = 0;                     /* Clear error flag for later testing */
      152     6826    1        OUTPUT$ = ADDR(S_D.OUTPUT);
PL6.E3A0      #001=DDA$DUMP File=DDA$DUMP.:E05TSI                                TUE 07/29/97 13:27 Page:6
      153     6827    1        SAVE_CALLED = '0'B;
      154     6828    1        X_FLAG = '0'B;
      155     6829    1        H_FLAG = '0'B;
      156     6830    1        EB_FLAG = '0'B;
      157     6831    1        MUST_CALL_CLOSE = '0'B;
      158     6832    1        MISSING_PAGE_FLAG = '0'B;
      159     6833    1        IF PMD_FLAG THEN GOTO COMMON2;     /* Bypass destination code */
      160     6834                                                /**/
      161     6835                                                /* Setup output for xdelta */
      162     6836                                                /**/
      163     6837    2        IF D_XDELTA THEN DO;
      164     6838    2             SAVE_DCTX = OUT_DEV;          /* Save user's out stuff */
      165     6839    2             SAVE_WIDTH = S_D.OUT_WIDTH;
      166     6840    2             IF S_D.DO$->DUMP$CMD.DEST
      167     6841    3             THEN DO;
      168     6842    3                  IF S_D.DO$->DUMP$CMD.DESTCODE = 516 THEN OUT_DEV = DCTX_ME;
      169     6843    3                  ELSE OUT_DEV = DCTX_LP;
      170     6844    3                END;
      171     6845    2             ELSE OUT_DEV = ECHO_DEV;
      172     6846    2             IF ECHO_DEV = DCTX_LP THEN S_D.OUT_WIDTH = 132;
      173     6847    2             ELSE S_D.OUT_WIDTH = 79;
      174     6848    2           END;
      175     6849                                                /**/
      176     6850                                                /* Set up output for udelta */
      177     6851                                                /**/
      178     6852    1        ELSE IF S_D.DO$->DUMP$CMD.DEST
      179     6853    2             THEN DO;
      180     6854    2                  I = S_D.DO$->DUMP$CMD.DESTCODE;
      181     6855    2                  CALL DUA$OUTPUT (S_D.DO$->DUMP$CMD.FID, I, S_D.DUMPDCB) ALTRET(
              6855                           CLEAN_RETURN);
      182     6856    2                  MUST_CALL_CLOSE = '1'B;
      183     6857    2                END;
      184     6858    1             ELSE S_D.DUMPDCB = D_M$DO#;
      185     6859                                                /**/
      186     6860                                                /* Decode descriptor, and
      187     6861                                                try to get a word.  We don't print the
      188     6862                                                header if we can't get it */
PL6.E3A0      #001=DDA$DUMP File=DDA$DUMP.:E05TSI                                TUE 07/29/97 13:27 Page:7
      189     6863                                                /**/
      190     6864    1        S_D.DESC$ = S_D.D$;                /* Point to descriptor */
      191     6865    1        CALL DDK$EVAL(ADDRESS,SEG,DESC#,NOT_IS) ALTRET(CLEAN_RETURN);
      192     6866    1        IF S_D.RUM AND S_D.OVERLAID THEN CALL DDS$IC2NODE (ADDRESS,NODE) ALTRET(
              6866                 CLEAN_RETURN);
      193     6867    1        ELSE NODE = 0;
      194     6868    1        VALUE.SIZE = 1;
      195     6869
      196     6870    1        IF S_D.ANLZ_FILE THEN CALL DUL$GETMVAL(VALUE.OPS(0), ADDRESS, SEG, DESC#,
              6870                 NOT_IS) ALTRET(L3);
      197     6871    1        ELSE IF S_D.RUM THEN CALL DUU$GETMVAL (VALUE, NODE, ADDRESS, SEG, DESC#, NOT_IS
              6871                 ) ALTRET(L3);
      198     6872    1             ELSE
      199     6873    1                  CALL DDK$GETMVAL(VALUE.OPS(0),ADDRESS,SEG,DESC#,NOT_IS)
      200     6874    1                    ALTRET(L3);
      201     6875    2        DO WHILE ('0'B);
      202     6876    2   L3:       IF S_D.ERROR ~= 76 AND S_D.ERROR ~= 147 AND S_D.ERROR ~= 78
      203     6877                                 /* E@NOPAGE, E@ANLZ_PAGENOTDUMPED, E@ACCESS_FAULT */
      204     6878    2             THEN GOTO CLEAN_RETURN;
      205     6879    2           END;
      206     6880    1        SAVE_VALUE = VALUE.OPS(0);         /* Set up for same value check */
      207     6881
      208     6882                                                /* Determine display format */
      209     6883
      210     6884    1        BLANK = 32;         /* '040'o corresponds to ' ' in ascii character set */
      211     6885    1        IF S_D.DO$->DUMP$CMD.ASCII_FLAG THEN C_FLAG = '1'B;
      212     6886    1        IF S_D.DO$->DUMP$CMD.EBCDIC_FLAG THEN EB_FLAG = '1'B;
      213     6887    1        IF S_D.DO$->DUMP$CMD.FORMAT
      214     6888    2        THEN DO CASE ( S_D.DO$ -> DUMP$CMD.FORMATCODE );
      215     6889    2          CASE ( 344 );              /* FMT4_CODE (\c) */
      216     6890    2             C_FLAG = '1'B;
      217     6891    2          CASE ( 358 );             /* FMT18_CODE (\X1) */
      218     6892    2             X_FLAG = '1'B;
      219     6893    2          CASE ( 353 );             /* FMT13_CODE (\x) */
      220     6894    2             H_FLAG = '1'B;
      221     6895    2          CASE ( 361 );             /* FMT21_CODE (\eb) */
      222     6896    2             EB_FLAG = '1'B;
PL6.E3A0      #001=DDA$DUMP File=DDA$DUMP.:E05TSI                                TUE 07/29/97 13:27 Page:8
      223     6897    2             IF C_FLAG
      224     6898    3             THEN DO;
      225     6899    3                  S_D.ERROR = 322; /* E@FMTCONFLICT */
      226     6900    3                  ALTRETURN;
      227     6901    3                END;
      228     6902    2             BLANK = 64;    /* '100'o corresponds to ' ' in ebcdic character set */
      229     6903    2          CASE ( 341 );              /* FMT1_CODE (\o) */
      230     6904    2          END;
      231     6905                                                /**/
      232     6906                                                /* Setup display width */
      233     6907                                                /**/
      234     6908    1   COMMON2:
      235     6909    1        IF NOT D_XDELTA
      236     6910    2        THEN DO;
      237     6911    2             SAVE_WIDTH = S_D.OUT_WIDTH;
      238     6912    2             IF DCBADDR(S_D.DUMPDCB)->F$DCB.WIDTH# ~= 0
      239     6913    2             THEN S_D.OUT_WIDTH = DCBADDR(S_D.DUMPDCB)->F$DCB.WIDTH#;
      240     6914    2             ELSE IF DCBADDR(S_D.DUMPDCB)->F$DCB.ASN# = %DEVICE#
      241     6915    2                  THEN S_D.OUT_WIDTH = 80;
      242     6916    2                  ELSE S_D.OUT_WIDTH = 132;
      243     6917    2           END;
      244     6918    1        S_D.OUTPUT = ' ';
      245     6919    1        IF X_FLAG OR H_FLAG
      246     6920    2        THEN DO;
      247     6921    2             IF S_D.OUT_WIDTH > 110
      248     6922    3             THEN DO;
      249     6923    3                  TEMP=50;
      250     6924    3                  MAX_CELL=8;
      251     6925    3                END;
      252     6926    2             ELSE IF S_D.OUT_WIDTH < 70 AND (C_FLAG OR EB_FLAG)
      253     6927    3                  THEN DO;
      254     6928    3                       TEMP = 21;
      255     6929    3                       MAX_CELL=2;
      256     6930    3                     END;
      257     6931    3                  ELSE DO;
      258     6932    3                       MAX_CELL=4;
      259     6933    3                       TEMP=30;
PL6.E3A0      #001=DDA$DUMP File=DDA$DUMP.:E05TSI                                TUE 07/29/97 13:27 Page:9
      260     6934    3                     END;
      261     6935    2           END;
      262     6936    2        ELSE DO;
      263     6937    2             IF NOT C_FLAG AND NOT EB_FLAG
      264     6938    2             THEN IF S_D.OUT_WIDTH > 121
      265     6939    3                  THEN DO;
      266     6940    3                       MAX_CELL = 8;
      267     6941    3                       TEMP = 66;
      268     6942    3                     END;
      269     6943    3                  ELSE DO;
      270     6944    3                       MAX_CELL = 4;
      271     6945    3                       TEMP = 38;
      272     6946    3                     END;
      273     6947    2             ELSE IF S_D.OUT_WIDTH > 86
      274     6948    3                  THEN DO;
      275     6949    3                       MAX_CELL = 4;
      276     6950    3                       TEMP = 38;
      277     6951    3                     END;
      278     6952    3                  ELSE DO;
      279     6953    3                       MAX_CELL = 4;
      280     6954    3                       TEMP = 24;
      281     6955    3                     END;
      282     6956    2           END;
      283     6957                                                /**/
      284     6958    1        IF NOT PMD_FLAG
      285     6959    2        THEN DO;
      286     6960    2             IF S_D.DO$->DUMP$CMD.PAGE_EJECT THEN CALL DDQ$WRTOFD;
      287     6961                                                /**/
      288     6962                                                /* Output heading if present */
      289     6963                                                /**/
      290     6964    2             IF S_D.DO$->DUMP$CMD.HEADING
      291     6965    3             THEN DO;
      292     6966    3                  TEXT_LEN = S_D.DESC$->DUMP_HEADING.LEN; /* DESC$ updated by get*/
      293     6967                                                /* Center heading */
      294     6968    3                  TEMP_S = TEMP - TEXT_LEN/2;
      295     6969    3                  IF TEMP_S < 1 THEN TEMP_S = 1;
      296     6970    3                  PINCRC(OUTPUT$, TEMP_S-1)->DUMP_HEADING.TEXT =
PL6.E3A0      #001=DDA$DUMP File=DDA$DUMP.:E05TSI                                TUE 07/29/97 13:27 Page:10
      297     6971    3                    S_D.DESC$->DUMP_HEADING.TEXT;
      298     6972    3                  CALL DDQ$WRITED(OUTPUT$, TEMP_S+TEXT_LEN);
      299     6973    3                END;
      300     6974    2           END;
      301     6975                                                /**/
      302     6976    1        S_D.D$ = OUTPUT$;                  /* Put symbolic address in title */
      303     6977    1        S_D.DESCL$ = PINCRC(S_D.D$, SIZEC(S_D.OUTPUT));
      304     6978    1        CALL DDA$DISPADR(ADDRESS,SEG,DESC#,NOT_IS,%REL_FMT,,36) ALTRET(CLEAN_RETURN);
      305     6979    1        CALL DDQ$WRITED(OUTPUT$,POFFC(S_D.D$,OUTPUT$));
      306     6980                                                /**/
      307     6981                                                /* Setup for dump loop */
      308     6982                                                /**/
      309     6983    1        IF ADDRESS ~= 0
      310     6984    1        THEN OFFSET = (ADDRESS/MAX_CELL)*MAX_CELL;
      311     6985    1        ELSE OFFSET = 0;
      312     6986    1        MAX_ADDRESS = ADDRESS + NUM_WORDS-1;
      313     6987    1        J = ADDRESS - OFFSET;              /* Compute position of first cell */
      314     6988    2        DO I = 0 TO 31;                    /* Blank fill for char conversion */
      315     6989    2             DATA_VAL (I) = BLANK;         /* Clear expansion buffer */
      316     6990    2             SAVE_DATA_VAL (I) = BLANK;
      317     6991    2           END;
      318     6992    1        OFFSET_SAVE = -1;   /* Show that offset must be saved when dup found */
      319     6993    1        SAME_COUNT = 0;
      320     6994    1        IF (J = 0) AND (NOT LONG_FLAG)
      321     6995    1        THEN CHECK_DUP = '1'B;
      322     6996    1        ELSE CHECK_DUP = '0'B; /* Dont check for dups if not full line or long format*/
      323     6997    1        MAX_CELL_M_1 = MAX_CELL - 1;       /* Speed up loop */
      324     6998                                                /**/
      325     6999                                                /* Dump loop */
      326     7000                                                /**/
      327     7001    1   LOOP_TOP: ;
      328     7002    2        DO I=J TO MAX_CELL_M_1;
      329     7003    2             CALL DDB$BREAK ALTRET(CLEAN_RETURN);
      330     7004    2             VALUE.SIZE = 1;
      331     7005    2             IF S_D.ANLZ_FILE THEN CALL DUL$GETMVAL(VALUE.OPS(0), ADDRESS, SEG, DESC#,
              7005                      NOT_IS) ALTRET(ALT_CHECK);
      332     7006    2             ELSE IF S_D.RUM THEN CALL DUU$GETMVAL (VALUE, NODE, ADDRESS, SEG,DESC#,
PL6.E3A0      #001=DDA$DUMP File=DDA$DUMP.:E05TSI                                TUE 07/29/97 13:27 Page:11
              7006                      NOT_IS) ALTRET(ALT_CHECK);
      333     7007    2                  ELSE
      334     7008    2                       CALL DDK$GETMVAL(VALUE.OPS(0),ADDRESS,SEG,DESC#,NOT_IS)
      335     7009    2                         ALTRET(ALT_CHECK);
      336     7010    2             DATA(I) = VALUE.OPS(0);
      337     7011    3             IF CHECK_DUP THEN DO;
      338     7012    4                  IF SAVE_VALUE = VALUE.OPS(0) THEN DO;
      339     7013    4                       SAME_COUNT = SAME_COUNT + 1;
      340     7014    4                       IF OFFSET_SAVE = -1 THEN OFFSET_SAVE = OFFSET;
      341     7015    4                     END;
      342     7016    4                  ELSE DO;
      343     7017    5                       IF SAME_COUNT >= MAX_CELL THEN DO; /* At least 1 line */
      344     7018    5                            CALL SAME_OUT; /* Describe same values */
      345     7019    5                            OFFSET_SAVE = -1;
      346     7020    5                          END;
      347     7021    4                       SAVE_VALUE = VALUE.OPS(0);
      348     7022    4                       SAME_COUNT = 1;
      349     7023    5                       IF I ~= 0 THEN DO;
      350     7024    5                            CHECK_DUP = '0'B; /* Turn off dup check
      351     7025                                                if we're in the middle of a line */
      352     7026    5                            SAME_COUNT = 0;
      353     7027    5                            OFFSET_SAVE = -1;
      354     7028    5                          END;
      355     7029    4                     END;
      356     7030    3                END;
      357     7031    2             ADDRESS = ADDRESS + 1;
      358     7032    2             IF ADDRESS > MAX_ADDRESS THEN GOTO LAST_TIME;
      359     7033    2           END;                            /* Do loop */
      360     7034    1        IF CHECK_DUP THEN GOTO RE_ENTER_LOOP; /* CHECK_DUP means SAME_COUNT
      361     7035                                                is at least = MAX_CELL, otherwise we
      362     7036                                                have a data line to print */
      363     7037    1        CALL LINE_OUT;
      364     7038                                                /**/
      365     7039    1   RE_ENTER_LOOP: ;                        /* Here to temporarily bypass output */
      366     7040    1        OFFSET = OFFSET + MAX_CELL;
      367     7041    1        J = 0;                             /* Start at the begining of the line */
      368     7042    2        DO I = 0 TO 31;
PL6.E3A0      #001=DDA$DUMP File=DDA$DUMP.:E05TSI                                TUE 07/29/97 13:27 Page:12
      369     7043    2             DATA_VAL (I) = BLANK;
      370     7044    2           END;
      371     7045    1        IF LONG_FLAG
      372     7046    1        THEN CHECK_DUP = '0'B;
      373     7047    1        ELSE CHECK_DUP = '1'B; /* We finished a line, so CHECK_DUP should be on */
      374     7048    1        GOTO LOOP_TOP;                     /* Restart loop */
      375     7049                                                /**/
      376     7050                                                /**/
      377     7051    1   LAST_TIME: ;             /* Here on error, seg end, or MAX_ADDRESS exceeded */
      378     7052    1        IF ADDRESS = OFFSET+MAX_CELL AND CHECK_DUP
      379     7053                                 /* Take care of case where last line is all dup, and
      380     7054                                 exactly full but offset hasn't been updated yet */
      381     7055    1        THEN OFFSET = OFFSET + MAX_CELL;
      382     7056    2        IF SAME_COUNT >= MAX_CELL THEN DO;
      383     7057    2             CALL SAME_OUT;
      384     7058    2             IF OFFSET_SAVE ~= ADDRESS - 1 /*Ie. If last line not all dups */
      385     7059    2             THEN CALL LINE_OUT;
      386     7060    2           END;
      387     7061    1        ELSE IF ADDRESS ~= OFFSET THEN     /*Don't print offset on an empty line*/
      388     7062    1                  CALL LINE_OUT;
      389     7063    1        IF MISSING_PAGE_FLAG               /* See if there's more to do */
      390     7064    2        THEN DO;                           /* Yes, we hit a missing page */
      391     7065    2             MISSING_PAGE_FLAG = '0'B;
      392     7066    2   L1:       ADDRESS = SAVE_ADDRESS + 1024; /* Point at next page */
      393     7067    2             SAVE_ADDRESS = ADDRESS;
      394     7068    2             S_D.ERROR = 0;
      395     7069    2             CALL DDB$BREAK ALTRET(CLEAN_RETURN);
      396     7070    3             IF ADDRESS > MAX_ADDRESS THEN DO;
      397     7071    3   L5:            S_D.OUTPUT = '(missing page(s))';
      398     7072    3                  CALL DDQ$WRITED(OUTPUT$, 17);
      399     7073    3                  IF NUM_WORDS = 17000000/*DD_BIGNUM*/ THEN S_D.ERROR = 0;
      400     7074    3                  GOTO CLEAN_RETURN;
      401     7075    3                END;
      402     7076                                                /* See if we can get one */
      403     7077    2             VALUE.SIZE = 1;
      404     7078    2             IF S_D.ANLZ_FILE THEN CALL DUL$GETMVAL(VALUE.OPS(0), ADDRESS, SEG, DESC#,
              7078                      NOT_IS) ALTRET(L2);
PL6.E3A0      #001=DDA$DUMP File=DDA$DUMP.:E05TSI                                TUE 07/29/97 13:27 Page:13
      405     7079    2             ELSE IF S_D.RUM THEN CALL DUU$GETMVAL (VALUE, NODE, ADDRESS, SEG,DESC#,
              7079                      NOT_IS) ALTRET(L2);
      406     7080    2                  ELSE
      407     7081    2                       CALL DDK$GETMVAL(VALUE.OPS(0), ADDRESS, SEG, DESC#, NOT_IS)
              7081                                ALTRET(L2);
      408     7082    2             OFFSET = ADDRESS;             /* We got one */
      409     7083    2             J = 0;
      410     7084    2             SAVE_VALUE = VALUE.OPS(0);
      411     7085    3             DO I = 0 TO 31;
      412     7086    3                  DATA_VAL (I) = BLANK;
      413     7087    3                  SAVE_DATA_VAL (I) = BLANK;
      414     7088    3                END;
      415     7089    2             OFFSET_SAVE = -1;
      416     7090    2             SAME_COUNT = 0;
      417     7091    2             IF LONG_FLAG
      418     7092    2             THEN CHECK_DUP = '0'B;
      419     7093    2             ELSE CHECK_DUP = '1'B;
      420     7094    2             S_D.OUTPUT = '(missing page(s))';
      421     7095    2             CALL DDQ$WRITED(OUTPUT$, 17);
      422     7096    2             GOTO LOOP_TOP;                /* Re-enter loop */
      423     7097    2   L2:       IF S_D.ERROR = 76 OR S_D.ERROR = 147 /* E@NOPAGE E@ANLZ_PAGENOTDUMPED */
      424     7098    2             THEN GOTO L1;
      425     7099    2             ELSE GOTO L5;
      426     7100    2           END;
      427     7101                                                /**/
      428     7102                                                /**/
      429     7103    1   CLEAN_RETURN: ;               /* Reset out device, altret if error pending */
      430     7104                                                /**/
      431     7105    1        S_D.OUT_WIDTH = SAVE_WIDTH;
      432     7106    1        IF S_D.ERROR = 68          /*E@OUTOFSEG*/
      433     7107    2        THEN DO;
      434     7108    2             S_D.OUTPUT = 'Access out of segment';
      435     7109    2             CALL DDQ$WRITED (OUTPUT$,21);
      436     7110    2             S_D.ERROR = 0;
      437     7111    2           END;
      438     7112    1        IF D_XDELTA THEN OUT_DEV = SAVE_DCTX;
      439     7113    1        ELSE IF MUST_CALL_CLOSE THEN CALL DUA$CLOSEDUMP;
PL6.E3A0      #001=DDA$DUMP File=DDA$DUMP.:E05TSI                                TUE 07/29/97 13:27 Page:14
      440     7114    1        IF S_D.ERROR = 0 THEN RETURN;
      441     7115    1        ALTRETURN;
      442     7116    1   ALT_CHECK: ;                       /* Dont report error if dump-len is seg */
      443     7117    1        MISSING_PAGE_FLAG = '0'B;
      444     7118    1        IF S_D.ERROR = 213  /* E@NIHEAD */ AND
      445     7119    1          S_D.DUMP_HEAD
      446     7120    2        THEN DO;
      447     7121    2             S_D.ERROR = 0;
      448     7122    2             GOTO CLEAN_RETURN;
      449     7123    2           END;
      450     7124    1        IF S_D.ERROR = 76 OR S_D.ERROR = 147 /*E@NOPAGE, E@ANLZ_PAGENOTDUMPED*/
      451     7125    2        THEN DO;
      452     7126    2             MISSING_PAGE_FLAG = '1'B;
      453     7127    2             SAVE_ADDRESS = ADDRESS;
      454     7128    2           END;
      455     7129    1        ELSE IF NUM_WORDS = 17000000/*DD_BIGNUM*/
      456     7130    1             THEN S_D.ERROR = 0;      /* Don't report errors on segment dumps */
      457     7131    1        GOTO LAST_TIME;
      458     7132        %EJECT;
PL6.E3A0      #001=DDA$DUMP File=DDA$DUMP.:E05TSI                                TUE 07/29/97 13:27 Page:15
      459     7133        /*D*  NAME: SAME_OUT
      460     7134              DESCRIPTION:  PRINT 'DUP-START THRU DUP-END  DUP-VALUE' */
      461     7135    1   SAME_OUT: PROC;
      462     7136    3        IF OFFSET_SAVE + MAX_CELL = OFFSET THEN DO; /* Only one line */
      463     7137    3             SAVE_CALLED = '1'B;
      464     7138    3             CALL LINE_OUT;
      465     7139    3             SAVE_CALLED = '0'B;
      466     7140    3             OFFSET_SAVE = OFFSET-1;
      467     7141    3             RETURN;
      468     7142    3           END;
      469     7143    2        S_D.D$ = OUTPUT$;
      470     7144    2        S_D.DESCL$ = PINCRC(S_D.D$, SIZEC(S_D.OUTPUT));
      471     7145    2        S_D.OUTPUT = ' ';
      472     7146    2        IF NOT S_D.DUMP_HEAD
      473     7147    2        THEN CALL DDR$BINTXT(ADDR(CHAR_HOLD),OFFSET_SAVE,%OCT_FMT,SIZE);
      474     7148    2        ELSE CALL DDR$BINTXT(ADDR(CHAR_HOLD),OFFSET_SAVE,%X_FMT,SIZE);
      475     7149    2        S_D.D$ = PINCRC(OUTPUT$,9-SIZE);   /* Right justify */
      476     7150    2        S_D.D$->CHAR9 = CHAR_HOLD;
      477     7151    2        S_D.D$ = PINCRC(S_D.D$, SIZE);
      478     7152    2        OFFSET_SAVE = OFFSET - 1;
      479     7153    2        S_D.D$->CHAR6 = ' THRU ';
      480     7154    2        S_D.D$ = PINCRC(S_D.D$, 6);
      481     7155    2        IF NOT S_D.DUMP_HEAD
      482     7156    2        THEN CALL DDA$DISPFMT(%OCT_FMT,36,OFFSET_SAVE); /* 'DUP-END' */
      483     7157    2        ELSE CALL DDA$DISPFMT(%X_FMT,16,OFFSET_SAVE); /* 'DUP-END' */
      484     7158    2        S_D.D$ = PINCRC(S_D.D$, 2);
      485     7159                                                /* Convert value to display format */
      486     7160    2        IF X_FLAG OR H_FLAG THEN
      487     7161    3        DO;
      488     7162    3             IF X_FLAG THEN
      489     7163    3                  CALL HEXOUT(SAVE_VALUE);
      490     7164    3             ELSE
      491     7165    3                  CALL HEX_9_OUT(SAVE_VALUE);
      492     7166    3             S_D.D$ = PINCRC(S_D.D$, 12);
      493     7167    3           END;
      494     7168    3        ELSE DO;
      495     7169    3             CALL DDR$BINOCT(S_D.D$->OTEXT,SAVE_VALUE);
PL6.E3A0      #001=DDA$DUMP File=DDA$DUMP.:E05TSI                                TUE 07/29/97 13:27 Page:16
      496     7170    3             S_D.D$ = PINCRC(S_D.D$, 16);
      497     7171    3           END;
      498     7172    3        IF C_FLAG THEN DO;
      499     7173    3             CALL XLATE(S_D.D$->CHAR32,T_TABLE,SAVE_VALUE_CHAR);
      500     7174    3             S_D.D$=PINCRC(S_D.D$,4);
      501     7175    3           END;
      502     7176    2        ELSE IF EB_FLAG
      503     7177    3             THEN DO;
      504     7178    3                  CALL XLATE ( S_D.D$ -> CHAR32, EBCDIC_XLATE_TABLE, SAVE_VALUE_CHAR );
      505     7179    3                  S_D.D$ = PINCRC ( S_D.D$, 4 );
      506     7180    3                END;
      507     7181    2        CALL DDQ$WRITED(OUTPUT$,POFFC(S_D.D$,OUTPUT$));
      508     7182    2        RETURN;
      509     7183    2   END SAME_OUT;
      510     7184        %EJECT;
PL6.E3A0      #001=DDA$DUMP File=DDA$DUMP.:E05TSI                                TUE 07/29/97 13:27 Page:17
      511     7185        /*D*  NAME: LINE_OUT
      512     7186              DESCRIPTION:  FORMAT AND PRINT ONE DUMP LINE.  */
      513     7187    1   LINE_OUT: PROC;
      514     7188    2        S_D.OUTPUT = ' ';
      515     7189    2        IF SAVE_CALLED
      516     7190    3        THEN DO;
      517     7191    3             IF NOT S_D.DUMP_HEAD
      518     7192    3             THEN CALL DDR$BINTXT (ADDR(CHAR_HOLD),OFFSET_SAVE,%OCT_FMT,SIZE);
      519     7193    3             ELSE CALL DDR$BINTXT (ADDR(CHAR_HOLD),OFFSET_SAVE,%X_FMT,SIZE);
      520     7194    3           END;
      521     7195    3        ELSE DO;
      522     7196    3             IF NOT S_D.DUMP_HEAD
      523     7197    3             THEN CALL DDR$BINTXT(ADDR(CHAR_HOLD),OFFSET,%OCT_FMT,SIZE);
      524     7198    3             ELSE CALL DDR$BINTXT(ADDR(CHAR_HOLD),OFFSET,%X_FMT,SIZE);
      525     7199    3           END;
      526     7200    2        S_D.D$ = PINCRC(OUTPUT$,9-SIZE);   /*Place offset right just */
      527     7201    2        S_D.D$->CHAR9 = CHAR_HOLD;
      528     7202    2        IF X_FLAG OR H_FLAG THEN
      529     7203    2             S_D.D$ = PINCRC(OUTPUT$,11+J*10); /* J set before entering loop */
      530     7204    2        ELSE
      531     7205    2             S_D.D$ = PINCRC(OUTPUT$,11+J*13); /* J set before entering loop */
      532     7206    2        IF SAVE_CALLED THEN K = OFFSET-OFFSET_SAVE-1;
      533     7207    2        ELSE K = ADDRESS-OFFSET-1;
      534     7208    3        DO L = J TO K;
      535     7209    4             IF SAVE_CALLED THEN DO;
      536     7210    4                  SAVE_DATA(L) = SAVE_VALUE;
      537     7211    4                  TEMP = SAVE_VALUE;
      538     7212    4                END;
      539     7213    3             ELSE TEMP = DATA(L);
      540     7214    3             IF X_FLAG OR H_FLAG THEN
      541     7215    4             DO;
      542     7216    4                  IF X_FLAG THEN
      543     7217    4                       CALL HEXOUT(TEMP);
      544     7218    4                  ELSE
      545     7219    4                       CALL HEX_9_OUT(TEMP);
      546     7220    4                  S_D.D$ = PINCRC(S_D.D$, 10);
      547     7221    4                END;
PL6.E3A0      #001=DDA$DUMP File=DDA$DUMP.:E05TSI                                TUE 07/29/97 13:27 Page:18
      548     7222    4             ELSE DO;
      549     7223    4                  CALL DDR$BINOCT(S_D.D$->OTEXT, TEMP);
      550     7224    4                  S_D.D$ = PINCRC(S_D.D$, 13);
      551     7225    4                END;
      552     7226    3           END;
      553     7227    2        IF C_FLAG OR EB_FLAG
      554     7228    3        THEN DO;
      555     7229    3             IF X_FLAG OR H_FLAG THEN S_D.D$ = PINCRC(OUTPUT$, 11+10*MAX_CELL);
      556     7230    3             ELSE S_D.D$ = PINCRC(OUTPUT$, 11+13*MAX_CELL);
      557     7231    3             IF SAVE_CALLED
      558     7232    3             THEN IF C_FLAG
      559     7233    3                  THEN CALL XLATE(S_D.D$->CHAR32,T_TABLE,SAVE_DATA_CHAR);
      560     7234    3                  ELSE CALL XLATE ( S_D.D$ -> CHAR32, EBCDIC_XLATE_TABLE,
              7234                           SAVE_DATA_CHAR );
      561     7235    3             ELSE IF C_FLAG
      562     7236    3                  THEN CALL XLATE(S_D.D$->CHAR32,T_TABLE,DATA_CHAR);
      563     7237    3                  ELSE CALL XLATE ( S_D.D$ -> CHAR32, EBCDIC_XLATE_TABLE, DATA_CHAR );
      564     7238    3             S_D.D$=PINCRC(S_D.D$,MAX_CELL*4);
      565     7239    3           END;
      566     7240    2        CALL DDQ$WRITED(OUTPUT$,POFFC(S_D.D$,OUTPUT$));
      567     7241    2        RETURN;
      568     7242    2   END LINE_OUT;
      569     7243                                                /**/
      570     7244                                                /* Convert octal to display hex */
      571     7245                                                /**/
      572     7246    1   HEXOUT: PROC(VAL);
      573     7247    2   DCL VAL UBIN;
      574     7248    2   DCL 1 XVAL(0:3) REDEF VAL,
      575     7249    2         2 * BIT(1) UNAL,
      576     7250    2         2 L UBIN(4) UNAL,
      577     7251    2         2 R UBIN(4) UNAL;
      578     7252    2   DCL I UBIN;
      579     7253    2   DCL PTR$ PTR;
      580     7254    2   DCL HEXCHARS(0:15) CHAR(1) CONSTANT INIT(
      581     7255    2        '0','1','2','3','4','5','6','7','8','9','A','B','C','D','E','F');
      582     7256    2   DCL CHAR1 CHAR(1) BASED;
      583     7257                                                /**/
PL6.E3A0      #001=DDA$DUMP File=DDA$DUMP.:E05TSI                                TUE 07/29/97 13:27 Page:19
      584     7258    2        PTR$ = S_D.D$;
      585     7259    3        DO I = 0 TO 3;
      586     7260    3             PTR$->CHAR1 = HEXCHARS(XVAL.L(I));
      587     7261    3             PTR$ = PINCRC(PTR$, 1);
      588     7262    3             PTR$->CHAR1 = HEXCHARS(XVAL.R(I));
      589     7263    3             PTR$ = PINCRC(PTR$, 1);
      590     7264    3           END;
      591     7265    2        RETURN;
      592     7266    2   END HEXOUT;
      593     7267                                                /**/
      594     7268                                                /* Convert octal to 9 hex display */
      595     7269                                                /**/
      596     7270    1   HEX_9_OUT: PROC(VAL);
      597     7271    2   DCL VAL UBIN;
      598     7272    2   DCL 1 XVAL(0:8) REDEF VAL,
      599     7273    2         2 H UBIN(4) UNAL;
      600     7274    2   DCL I UBIN;
      601     7275    2   DCL PTR$ PTR;
      602     7276    2   DCL HEXCHARS(0:15) CHAR(1) CONSTANT INIT(
      603     7277    2        '0','1','2','3','4','5','6','7','8','9','A','B','C','D','E','F');
      604     7278    2   DCL CHAR1 CHAR(1) BASED;
      605     7279                                                /**/
      606     7280    2        PTR$ = S_D.D$;
      607     7281    3        DO I = 0 TO 8;
      608     7282    3             PTR$->CHAR1 = HEXCHARS(XVAL.H(I));
      609     7283    3             PTR$ = PINCRC(PTR$, 1);
      610     7284    3           END;
      611     7285    2        RETURN;
      612     7286    2   END HEX_9_OUT;
      613     7287    1   END DDA$DUMP;

PL6.E3A0      #001=DDA$DUMP File=DDA$DUMP.:E05TSI                                TUE 07/29/97 13:27 Page:20
--  Include file information  --

   B$TABLES_C.:E05TOU  cannot be made into a system file and is referenced.
   CP_6_SUBS.:E05TOU  is referenced.
   CP_6.:E05TOU  cannot be made into a system file and is referenced.
   DD_PSUBS_C.:E05TOU  is referenced.
   DD_SD_M.:E05TOU  is referenced.
   XUH_MACRO_C.:E05TOU  is referenced.
   DD_ERR_C.:E05TOU  is referenced.
   DD_SRTN_C.:E05TOU  is referenced.
   DD_ACODE_C.:E05TOU  is referenced.
   DD_ICODE_C.:E05TOU  is referenced.
   DD$DITEM.:E05TOU  cannot be made into a system file and is referenced.
   DD_SUBS_C.:E05TOU  is referenced.
   DD$BASED.:E05TOU  is referenced.
   B$JIT_C.:E05TOU  was found in the system file and is never referenced.
   CP_6_C.:E05TOU  was found in the system file and is referenced.
      No diagnostics issued in procedure DDA$DUMP.

   Procedure DDA$DUMP requires 1321 words for executable code.
   Procedure DDA$DUMP requires 102 words of local(AUTO) storage.

    No errors detected in file DDA$DUMP.:E05TSI    .

PL6.E3A0      #001=DDA$DUMP File=DDA$DUMP.:E05TSI                                TUE 07/29/97 13:27 Page:21

 Object Unit name= DDA$DUMP                                   File name= DDA$DUMP.:E05TOU
 UTS= JUL 29 '97 13:27:00.48 TUE                              Compiler= PL-6/E31         Sev=      00
 SharedLib= :SHARED_SYSTEM                                    Alt SharedLib=


    ****  Control sections  ****

 Sect   Type Bound  Init  Size OctSiz  Section name(segment info)
    0   DCB   even  none     0      0  M$UC
    1  RoData even  UTS     21     25  DDA$DUMP
    2   Proc  even  none  1321   2451  DDA$DUMP
    3  RoData even  none    21     25  DDA$DUMP

    ****  Entry defs  ****

                              Check   Calling
                             calling  sequence
  Sect OctLoc Primary Altret sequence   type   Parms  Name
     2      0   yes    yes     yes      Std        6  DDA$DUMP
     2     73          yes     yes      Std        0  DDA$DUMP_DO
PL6.E3A0      #001=DDA$DUMP File=DDA$DUMP.:E05TSI                                TUE 07/29/97 13:27 Page:22

  ****  Entry refs  ****

         Check        Calling
        calling       sequence
Altret sequence SRef   type   Args  Name
         yes          ~proc      0 B_POINTER
 yes     yes           Std       5 DDK$GETMVAL
 yes     yes           Std       4 DUA$OUTPUT
 yes     yes           Std       6 DDK$EVAL
         yes           Std       2 DDQ$WRITED
 yes     yes           Std       2 DDS$IC2NODE
 yes     yes           Std       5 DUL$GETMVAL
 yes     yes           Std       6 DUU$GETMVAL
         yes           Std       0 DDQ$WRTOFD
 yes     yes           Std       7 DDA$DISPADR
 yes     yes           Std       0 DUA$CLOSEDUMP
 yes     yes           Std       0 DDB$BREAK
 yes     yes           Std       2 DDR$BINOCT
         yes           Std       4 DDR$BINTXT
 yes     yes           Std       6 DDA$DISPFMT
                       nStd      0 X66_AUTO_N
                       Std       0 B_CONSPOOL_D
                       nStd      0 X66_AALT
                       nStd      0 X66_ARET

  ****  Data refs  ****

  Flags:  r = read only, s = secondary
Flgs Name                             Flgs Name                             Flgs Name
r    S_D$                                  M$UC                             r    B$XL_ASC_DUMP$
r    B$XL_EBC_DUMP$                        DCTX_LP                               DCTX_ME
     D_M$DO#                               D_XDELTA                              OUT_DEV
     ECHO_DEV                              B_VECTNIL
PL6.E3A0      #001=DDA$DUMP File=DDA$DUMP.:E05TSI                                TUE 07/29/97 13:27 Page:23

  ****  Segment refs  ****

  Flags:  r = read only, s = secondary
Flgs Name                             Flgs Name                             Flgs Name
     ROSID                                 ISSID
PL6.E3A0      #001=DDA$DUMP File=DDA$DUMP.:E05TSI                                TUE 07/29/97 13:27 Page:24


        1        1        /*M* DDA$DUMP  - DUMP DO ROUTINE */
        2        2        /*T***********************************************************/
        3        3        /*T*                                                         */
        4        4        /*T* Copyright (c) Bull HN Information Systems Inc., 1997    */
        5        5        /*T*                                                         */
        6        6        /*T***********************************************************/
        7        7        /*X* CCC,DMR,PLM=5,IND=5,CSU=3,EXM=0,ECU=3,MOC,DCI=5,CRT=5 */
        8        8        %SET LISTSUB='1'B;
        9        9        /*P* NAME: DDA$DUMP
       10       10             PURPOSE:  To provide the dump function for the PMD and DUMP commands.
       11       11        */
       12       12        /*D* NAME: DDA$DUMP
       13       13             DESCRIPTION:  DDA$DUMP takes the addressing information passed to
       14       14                  it, and access sequencial memory from the address passed to
       15       15                  the address+words_to_dump-1, bypassing any missing pages
       16       16                  encountered.  This routine is used by DUA$PMD.
       17       17        */
       18       18        DDA$DUMP: PROC(PADDRESS, PSEG, PDESC#, PNOT_IS, PC_FLAG, PNUM_WORDS) ALTRET;

     18  2 000000   000000 700200 xent  DDA$DUMP     TSX0  ! X66_AUTO_N
         2 000001   000146 000006                    ZERO    102,6

       19       19                                                /**/
       20       20    1   DCL PADDRESS UBIN;
       21       21    1   DCL PSEG UBIN;
       22       22    1   DCL PDESC# UBIN;
       23       23    1   DCL PNOT_IS BIT(1) ALIGNED;
       24       24    1   DCL PC_FLAG BIT(1) ALIGNED;
       25       25    1   DCL PNUM_WORDS UBIN;
       26       26    1   DCL PMD_FLAG BIT(1);
       27       27    1   DCL ADDRESS SBIN;
       28       28    1   DCL TEMP_S SBIN;
       29       29    1   DCL I UBIN;
       30       30    1   DCL TEMP UBIN;
       31       31    1   DCL MAX_CELL SBIN;
       32       32    1   DCL MAX_ADDRESS UBIN;
PL6.E3A0      #001=DDA$DUMP File=DDA$DUMP.:E05TSI                                TUE 07/29/97 13:27 Page:25
       33       33    1   DCL TEXT_LEN UBIN;
       34       34    1   DCL SEG UBIN;
       35       35    1   DCL DESC# UBIN;
       36       36    1   DCL NOT_IS BIT(1);
       37       37    1   DCL NUM_WORDS UBIN;
       38       38    1   DCL SAVE_CALLED BIT(1);
       39       39    1   DCL C_FLAG BIT(1);
       40       40    1   DCL X_FLAG BIT(1);
       41       41    1   DCL H_FLAG BIT(1);
       42       42    1   DCL EB_FLAG BIT(1);
       43       43    1   DCL LONG_FLAG BIT(1);
       44       44    1   DCL MUST_CALL_CLOSE BIT(1);
       45       45    1   DCL MISSING_PAGE_FLAG BIT(1);
       46       46    1   DCL 1 VALUE,
       47       47    1         2 SIZE UBIN WORD,
       48       48    1         2 OPS(0:15) UBIN WORD;
       49       49    1   DCL SAVE_DCTX SBIN;
       50       50    1   DCL SAVE_WIDTH UBIN;
       51       51    1   DCL SAVE_ADDRESS UBIN;
       52       52    1   DCL SIZE UBIN;
       53       53    1   DCL OFFSET UBIN;
       54       54    1   DCL MAX_CELL_M_1 UBIN;
       55       55    1   DCL DATA(0:7) UBIN;
       56       56    1   DCL DATA_CHAR REDEF DATA CHAR(32);
       57       57    1   DCL DATA_VAL (0:31) REDEF DATA UBIN(9) UNAL;
       58       58    1   DCL SAVE_DATA(0:7) UBIN;
       59       59    1   DCL SAVE_DATA_CHAR REDEF SAVE_DATA CHAR(32);
       60       60    1   DCL SAVE_DATA_VAL (0:31) REDEF SAVE_DATA UBIN(9) UNAL;
       61       61    1   DCL BLANK UBIN;
       62       62    1   DCL SAVE_VALUE UBIN;
       63       63    1   DCL SAVE_VALUE_CHAR REDEF SAVE_VALUE CHAR(4);
       64       64    1   DCL OFFSET_SAVE SBIN;
       65       65    1   DCL J UBIN;
       66       66    1   DCL K UBIN;
       67       67    1   DCL L UBIN;
       68       68    1   DCL NODE UBIN;
       69       69    1   DCL OUTPUT$ PTR;
PL6.E3A0      #001=DDA$DUMP File=DDA$DUMP.:E05TSI                                TUE 07/29/97 13:27 Page:26
       70       70    1   DCL SAME_COUNT UBIN;
       71       71    1   DCL CHECK_DUP BIT(1);
       72       72    1   DCL CHAR_HOLD CHAR(12);
       73       73    1   DCL OTEXT CHAR(12) BASED;
       74       74    1   DCL CHAR6 CHAR(6) BASED;
       75       75    1   DCL CHAR9 CHAR(SIZE) BASED;
       76       76    1   DCL CHAR32 CHAR(32) BASED;
       77       77    1   DCL 1 DUMP_HEADING BASED,
       78       78    1         2 LEN UBIN(9) UNAL,
       79       79    1         2 TEXT CHAR(TEXT_LEN);
       80       80        %INCLUDE DD$BASED;
       81     1383        %DUMP$CMD;
       82     1413        %INCLUDE DD_SUBS_C;
       83     1684        %INCLUDE DD$DITEM;
       12+    1787             %LIST;
       13+    1788    1        DCL SDD$ PTR;
       14+    1789    1        DCL ZITEM$ PTR;
       15+    1790    1        DCL SDD_L6$ PTR;
       16+    1791    1        DCL ZITEM_L6$ PTR;
       84     2365        %INCLUDE DD_ERR_C;
       85     2762        %INCLUDE XUH_MACRO_C;
       86     2846        %INCLUDE DD_SD_M;
       87     4182        %S_D;
       88     5500        %INCLUDE DD_PSUBS_C;
       89     5975        %INCLUDE CP_6;
       90     6056        %F$DCB;
       91     6113        %INCLUDE CP_6_SUBS;
       92     6653        %INCLUDE B$TABLES_C;
       93     6761        %B$XL_ASC_DUMP(NAME=T_TABLE);
       94     6765        %B$XL_EBC_DUMP(NAME=EBCDIC_XLATE_TABLE);
       95     6769    1   DCL DCTX_LP UBIN SYMREF;
       96     6770    1   DCL DCTX_ME UBIN SYMREF;
       97     6771    1   DCL D_M$DO# UBIN SYMREF;
       98     6772    1   DCL D_XDELTA BIT(1) SYMREF;
       99     6773    1   DCL OUT_DEV UBIN SYMREF;
      100     6774    1   DCL ECHO_DEV UBIN SYMREF;
      101     6775    1   DCL DDK$EVAL ENTRY(6) ALTRET;
PL6.E3A0      #001=DDA$DUMP File=DDA$DUMP.:E05TSI                                TUE 07/29/97 13:27 Page:27
      102     6776    1   DCL DDK$GETMVAL ENTRY(5) ALTRET;
      103     6777    1   DCL DUL$GETMVAL ENTRY(5) ALTRET;
      104     6778    1   DCL DUU$GETMVAL ENTRY(6) ALTRET;
      105     6779    1   DCL DDS$IC2NODE ENTRY(2) ALTRET;
      106     6780    1   DCL DDA$DISPADR ENTRY(7) ALTRET;
      107     6781    1   DCL DDA$DISPFMT ENTRY(6) ALTRET;
      108     6782    1   DCL DDQ$WRITED ENTRY(2);
      109     6783    1   DCL DDR$BINOCT ENTRY(2) ALTRET;
      110     6784    1   DCL DDQ$WRTOFD ENTRY;
      111     6785    1   DCL DUA$OUTPUT ENTRY(4) ALTRET;
      112     6786    1   DCL DUA$CLOSEDUMP ENTRY ALTRET;
      113     6787    1   DCL DDR$BINTXT    ENTRY(4);
      114     6788    1   DCL DDB$BREAK ENTRY ALTRET;
      115     6789        %EJECT;
PL6.E3A0      #001=DDA$DUMP File=DDA$DUMP.:E05TSI                                TUE 07/29/97 13:27 Page:28
      116     6790    1        PMD_FLAG = '1'B;

   6790  2 000002   400000 236003                    LDQ     -131072,DU
         2 000003   200011 756100                    STQ     PMD_FLAG,,AUTO

      117     6791    1        LONG_FLAG = '0'B;

   6791  2 000004   200032 450100                    STZ     LONG_FLAG,,AUTO

      118     6792    1        S_D.DUMPDCB = D_M$DO#;

   6792  2 000005   000000 470400 xsym               LDP0    S_D$
         2 000006   000000 235000 xsym               LDA     D_M$DO#
         2 000007   005135 755100                    STA     2653,,PR0

      119     6793    1        OUTPUT$ = ADDR(S_D.OUTPUT);

   6793  2 000010   000000 236000 xsym               LDQ     S_D$
         2 000011   005335 036003                    ADLQ    2781,DU
         2 000012   200113 756100                    STQ     OUTPUT$,,AUTO

      120     6794    1        ADDRESS = PADDRESS;

   6794  2 000013   200003 471500                    LDP1    @PADDRESS,,AUTO
         2 000014   100000 235100                    LDA     0,,PR1
         2 000015   200012 755100                    STA     ADDRESS,,AUTO

      121     6795    1        SEG = PSEG;

   6795  2 000016   200004 473500                    LDP3    @PSEG,,AUTO
         2 000017   300000 235100                    LDA     0,,PR3
         2 000020   200021 755100                    STA     SEG,,AUTO

      122     6796    1        DESC# = PDESC#;

   6796  2 000021   200005 474500                    LDP4    @PDESC#,,AUTO
         2 000022   400000 235100                    LDA     0,,PR4
PL6.E3A0      #001=DDA$DUMP File=DDA$DUMP.:E05TSI                                TUE 07/29/97 13:27 Page:29
         2 000023   200022 755100                    STA     DESC#,,AUTO

      123     6797    1        NOT_IS = PNOT_IS;

   6797  2 000024   200006 475500                    LDP5    @PNOT_IS,,AUTO
         2 000025   500000 236100                    LDQ     0,,PR5
         2 000026   400000 376003                    ANQ     -131072,DU
         2 000027   200023 756100                    STQ     NOT_IS,,AUTO

      124     6798    1        C_FLAG = PC_FLAG;

   6798  2 000030   200007 476500                    LDP6    @PC_FLAG,,AUTO
         2 000031   600000 236100                    LDQ     0,,PR6
         2 000032   400000 376003                    ANQ     -131072,DU
         2 000033   200026 756100                    STQ     C_FLAG,,AUTO

      125     6799    1        NUM_WORDS = PNUM_WORDS;

   6799  2 000034   200010 477500                    LDP7    @PNUM_WORDS,,AUTO
         2 000035   700000 235100                    LDA     0,,PR7
         2 000036   200024 755100                    STA     NUM_WORDS,,AUTO

      126     6800    1        SAVE_WIDTH = S_D.OUT_WIDTH;

   6800  2 000037   000014 235100                    LDA     12,,PR0
         2 000040   200057 755100                    STA     SAVE_WIDTH,,AUTO

      127     6801    1        S_D.ERROR = 0;

   6801  2 000041   000013 450100                    STZ     11,,PR0

      128     6802    1        MUST_CALL_CLOSE = '0'B;

   6802  2 000042   200033 450100                    STZ     MUST_CALL_CLOSE,,AUTO

      129     6803    1        VALUE.SIZE = 1;

PL6.E3A0      #001=DDA$DUMP File=DDA$DUMP.:E05TSI                                TUE 07/29/97 13:27 Page:30
   6803  2 000043   000001 235007                    LDA     1,DL
         2 000044   200035 755100                    STA     VALUE,,AUTO

      130     6804    1        CALL DDK$GETMVAL(VALUE.OPS(0), ADDRESS, SEG, DESC#, NOT_IS) ALTRET(L6);

   6804  2 000045   200023 630500                    EPPR0   NOT_IS,,AUTO
         2 000046   200142 450500                    STP0    PTR$+5,,AUTO
         2 000047   200022 630500                    EPPR0   DESC#,,AUTO
         2 000050   200141 450500                    STP0    PTR$+4,,AUTO
         2 000051   200021 630500                    EPPR0   SEG,,AUTO
         2 000052   200140 450500                    STP0    PTR$+3,,AUTO
         2 000053   200012 630500                    EPPR0   ADDRESS,,AUTO
         2 000054   200137 450500                    STP0    PTR$+2,,AUTO
         2 000055   200036 630500                    EPPR0   VALUE+1,,AUTO
         2 000056   200136 450500                    STP0    PTR$+1,,AUTO
         2 000057   200136 630500                    EPPR0   PTR$+1,,AUTO
         2 000060   000023 631400 xsym               EPPR1   B_VECTNIL+19
         2 000061   000000 701000 xent               TSX1    DDK$GETMVAL
         2 000062   000064 702000 2                  TSX2    L6

      131     6805    2        DO WHILE('0'B);

   6805  2 000063   000070 710000 2                  TRA     s:6808

      132     6806    2   L6:       IF S_D.ERROR ~= 76 THEN GOTO CLEAN_RETURN; /*E@NOPAGE*/

   6806  2 000064   000000 470400 xsym  L6           LDP0    S_D$
         2 000065   000013 235100                    LDA     11,,PR0
         2 000066   000114 115007                    CMPA    76,DL
         2 000067   001427 601000 2                  TNZ     CLEAN_RETURN

      133     6807    2           END;

      134     6808    1        SAVE_VALUE = VALUE.OPS(0);

   6808  2 000070   200036 235100                    LDA     VALUE+1,,AUTO
         2 000071   200105 755100                    STA     SAVE_VALUE,,AUTO
PL6.E3A0      #001=DDA$DUMP File=DDA$DUMP.:E05TSI                                TUE 07/29/97 13:27 Page:31

      135     6809    1        GOTO COMMON;

   6809  2 000072   000112 710000 2                  TRA     COMMON

      136     6810        /*D* NAME: DDA$DUMP_DO
      137     6811             DESCRIPTION: This routine is called by DDA$DO to perform the DUMP
      138     6812                  directive.  The data_descriptor is decoded, and the optional
      139     6813                  output destination, page eject, and heading are output before
      140     6814                  entering the common sections.
      141     6815        */
      142     6816    1   DDA$DUMP_DO: ENTRY ALTRET;

   6816  2 000073   000000 700200 xent  DDA$DUMP_DO  TSX0  ! X66_AUTO_N
         2 000074   000146 000006                    ZERO    102,6

      143     6817    1        PMD_FLAG = '0'B;

   6817  2 000075   200011 450100                    STZ     PMD_FLAG,,AUTO

      144     6818    1        C_FLAG = '0'B;

   6818  2 000076   200026 450100                    STZ     C_FLAG,,AUTO

      145     6819    1        NUM_WORDS = S_D.DO$->DUMP$CMD.NUM;

   6819  2 000077   000000 470400 xsym               LDP0    S_D$
         2 000100   000031 471500                    LDP1    25,,PR0
         2 000101   100003 235100                    LDA     3,,PR1
         2 000102   200024 755100                    STA     NUM_WORDS,,AUTO

      146     6820    1        IF S_D.DO$ -> DUMP$CMD.LONG

   6820  2 000103   100001 236100                    LDQ     1,,PR1
         2 000104   010000 316003                    CANQ    4096,DU
         2 000105   000111 600000 2                  TZE     s:6822

PL6.E3A0      #001=DDA$DUMP File=DDA$DUMP.:E05TSI                                TUE 07/29/97 13:27 Page:32
      147     6821    1        THEN LONG_FLAG = '1'B;

   6821  2 000106   400000 236003                    LDQ     -131072,DU
         2 000107   200032 756100                    STQ     LONG_FLAG,,AUTO
         2 000110   000112 710000 2                  TRA     COMMON

      148     6822    1        ELSE LONG_FLAG = '0'B;

   6822  2 000111   200032 450100                    STZ     LONG_FLAG,,AUTO

      149     6823                                                /**/
      150     6824    1   COMMON:
      151     6825    1        S_D.ERROR = 0;                     /* Clear error flag for later testing */

   6825  2 000112   000000 470400 xsym  COMMON       LDP0    S_D$
         2 000113   000013 450100                    STZ     11,,PR0

      152     6826    1        OUTPUT$ = ADDR(S_D.OUTPUT);

   6826  2 000114   000000 236000 xsym               LDQ     S_D$
         2 000115   005335 036003                    ADLQ    2781,DU
         2 000116   200113 756100                    STQ     OUTPUT$,,AUTO

      153     6827    1        SAVE_CALLED = '0'B;

   6827  2 000117   200025 450100                    STZ     SAVE_CALLED,,AUTO

      154     6828    1        X_FLAG = '0'B;

   6828  2 000120   200027 450100                    STZ     X_FLAG,,AUTO

      155     6829    1        H_FLAG = '0'B;

   6829  2 000121   200030 450100                    STZ     H_FLAG,,AUTO

      156     6830    1        EB_FLAG = '0'B;

PL6.E3A0      #001=DDA$DUMP File=DDA$DUMP.:E05TSI                                TUE 07/29/97 13:27 Page:33
   6830  2 000122   200031 450100                    STZ     EB_FLAG,,AUTO

      157     6831    1        MUST_CALL_CLOSE = '0'B;

   6831  2 000123   200033 450100                    STZ     MUST_CALL_CLOSE,,AUTO

      158     6832    1        MISSING_PAGE_FLAG = '0'B;

   6832  2 000124   200034 450100                    STZ     MISSING_PAGE_FLAG,,AUTO

      159     6833    1        IF PMD_FLAG THEN GOTO COMMON2;     /* Bypass destination code */

   6833  2 000125   200011 234100                    SZN     PMD_FLAG,,AUTO
         2 000126   000446 604000 2                  TMI     COMMON2

      160     6834                                                /**/
      161     6835                                                /* Setup output for xdelta */
      162     6836                                                /**/
      163     6837    2        IF D_XDELTA THEN DO;

   6837  2 000127   000000 234000 xsym               SZN     D_XDELTA
         2 000130   000165 605000 2                  TPL     s:6852

      164     6838    2             SAVE_DCTX = OUT_DEV;          /* Save user's out stuff */

   6838  2 000131   000000 235000 xsym               LDA     OUT_DEV
         2 000132   200056 755100                    STA     SAVE_DCTX,,AUTO

      165     6839    2             SAVE_WIDTH = S_D.OUT_WIDTH;

   6839  2 000133   000014 235100                    LDA     12,,PR0
         2 000134   200057 755100                    STA     SAVE_WIDTH,,AUTO

      166     6840    2             IF S_D.DO$->DUMP$CMD.DEST

   6840  2 000135   000031 471500                    LDP1    25,,PR0
         2 000136   100001 236100                    LDQ     1,,PR1
PL6.E3A0      #001=DDA$DUMP File=DDA$DUMP.:E05TSI                                TUE 07/29/97 13:27 Page:34
         2 000137   100000 316003                    CANQ    32768,DU
         2 000140   000152 600000 2                  TZE     s:6845

      167     6841    3             THEN DO;

      168     6842    3                  IF S_D.DO$->DUMP$CMD.DESTCODE = 516 THEN OUT_DEV = DCTX_ME;

   6842  2 000141   100002 235100                    LDA     2,,PR1
         2 000142   001004 115007                    CMPA    516,DL
         2 000143   000147 601000 2                  TNZ     s:6843

   6842  2 000144   000000 235000 xsym               LDA     DCTX_ME
         2 000145   000000 755000 xsym               STA     OUT_DEV
         2 000146   000154 710000 2                  TRA     s:6846

      169     6843    3                  ELSE OUT_DEV = DCTX_LP;

   6843  2 000147   000000 235000 xsym               LDA     DCTX_LP
         2 000150   000000 755000 xsym               STA     OUT_DEV

      170     6844    3                END;

   6844  2 000151   000154 710000 2                  TRA     s:6846

      171     6845    2             ELSE OUT_DEV = ECHO_DEV;

   6845  2 000152   000000 235000 xsym               LDA     ECHO_DEV
         2 000153   000000 755000 xsym               STA     OUT_DEV

      172     6846    2             IF ECHO_DEV = DCTX_LP THEN S_D.OUT_WIDTH = 132;

   6846  2 000154   000000 236000 xsym               LDQ     ECHO_DEV
         2 000155   000000 116000 xsym               CMPQ    DCTX_LP
         2 000156   000162 601000 2                  TNZ     s:6847

   6846  2 000157   000204 235007                    LDA     132,DL
         2 000160   000014 755100                    STA     12,,PR0
PL6.E3A0      #001=DDA$DUMP File=DDA$DUMP.:E05TSI                                TUE 07/29/97 13:27 Page:35
         2 000161   000213 710000 2                  TRA     s:6864

      173     6847    2             ELSE S_D.OUT_WIDTH = 79;

   6847  2 000162   000117 235007                    LDA     79,DL
         2 000163   000014 755100                    STA     12,,PR0

      174     6848    2           END;

   6848  2 000164   000213 710000 2                  TRA     s:6864

      175     6849                                                /**/
      176     6850                                                /* Set up output for udelta */
      177     6851                                                /**/
      178     6852    1        ELSE IF S_D.DO$->DUMP$CMD.DEST

   6852  2 000165   000031 471500                    LDP1    25,,PR0
         2 000166   100001 236100                    LDQ     1,,PR1
         2 000167   100000 316003                    CANQ    32768,DU
         2 000170   000211 600000 2                  TZE     s:6858

      179     6853    2             THEN DO;

      180     6854    2                  I = S_D.DO$->DUMP$CMD.DESTCODE;

   6854  2 000171   100002 235100                    LDA     2,,PR1
         2 000172   200014 755100                    STA     I,,AUTO

      181     6855    2                  CALL DUA$OUTPUT (S_D.DO$->DUMP$CMD.FID, I, S_D.DUMPDCB) ALTRET(
              6855                           CLEAN_RETURN);

   6855  2 000173   000000 236000 xsym               LDQ     S_D$
         2 000174   005135 036003                    ADLQ    2653,DU
         2 000175   200140 756100                    STQ     PTR$+3,,AUTO
         2 000176   200014 633500                    EPPR3   I,,AUTO
         2 000177   200137 453500                    STP3    PTR$+2,,AUTO
         2 000200   100004 634500                    EPPR4   4,,PR1
PL6.E3A0      #001=DDA$DUMP File=DDA$DUMP.:E05TSI                                TUE 07/29/97 13:27 Page:36
         2 000201   200136 454500                    STP4    PTR$+1,,AUTO
         2 000202   200136 630500                    EPPR0   PTR$+1,,AUTO
         2 000203   000021 631400 xsym               EPPR1   B_VECTNIL+17
         2 000204   000000 701000 xent               TSX1    DUA$OUTPUT
         2 000205   001427 702000 2                  TSX2    CLEAN_RETURN

      182     6856    2                  MUST_CALL_CLOSE = '1'B;

   6856  2 000206   400000 236003                    LDQ     -131072,DU
         2 000207   200033 756100                    STQ     MUST_CALL_CLOSE,,AUTO

      183     6857    2                END;

   6857  2 000210   000213 710000 2                  TRA     s:6864

      184     6858    1             ELSE S_D.DUMPDCB = D_M$DO#;

   6858  2 000211   000000 235000 xsym               LDA     D_M$DO#
         2 000212   005135 755100                    STA     2653,,PR0

      185     6859                                                /**/
      186     6860                                                /* Decode descriptor, and
      187     6861                                                try to get a word.  We don't print the
      188     6862                                                header if we can't get it */
      189     6863                                                /**/
      190     6864    1        S_D.DESC$ = S_D.D$;                /* Point to descriptor */

   6864  2 000213   000000 470400 xsym               LDP0    S_D$
         2 000214   000044 236100                    LDQ     36,,PR0
         2 000215   000041 756100                    STQ     33,,PR0

      191     6865    1        CALL DDK$EVAL(ADDRESS,SEG,DESC#,NOT_IS) ALTRET(CLEAN_RETURN);

   6865  2 000216   200023 631500                    EPPR1   NOT_IS,,AUTO
         2 000217   200141 451500                    STP1    PTR$+4,,AUTO
         2 000220   200022 633500                    EPPR3   DESC#,,AUTO
         2 000221   200140 453500                    STP3    PTR$+3,,AUTO
PL6.E3A0      #001=DDA$DUMP File=DDA$DUMP.:E05TSI                                TUE 07/29/97 13:27 Page:37
         2 000222   200021 634500                    EPPR4   SEG,,AUTO
         2 000223   200137 454500                    STP4    PTR$+2,,AUTO
         2 000224   200012 635500                    EPPR5   ADDRESS,,AUTO
         2 000225   200136 455500                    STP5    PTR$+1,,AUTO
         2 000226   200136 630500                    EPPR0   PTR$+1,,AUTO
         2 000227   000022 631400 xsym               EPPR1   B_VECTNIL+18
         2 000230   000000 701000 xent               TSX1    DDK$EVAL
         2 000231   001427 702000 2                  TSX2    CLEAN_RETURN

      192     6866    1        IF S_D.RUM AND S_D.OVERLAID THEN CALL DDS$IC2NODE (ADDRESS,NODE) ALTRET(
              6866                 CLEAN_RETURN);

   6866  2 000232   000000 470400 xsym               LDP0    S_D$
         2 000233   004755 234100                    SZN     2541,,PR0
         2 000234   000250 605000 2                  TPL     s:6867
         2 000235   004764 234100                    SZN     2548,,PR0
         2 000236   000250 605000 2                  TPL     s:6867

   6866  2 000237   200112 631500                    EPPR1   NODE,,AUTO
         2 000240   200137 451500                    STP1    PTR$+2,,AUTO
         2 000241   200012 633500                    EPPR3   ADDRESS,,AUTO
         2 000242   200136 453500                    STP3    PTR$+1,,AUTO
         2 000243   200136 630500                    EPPR0   PTR$+1,,AUTO
         2 000244   000020 631400 xsym               EPPR1   B_VECTNIL+16
         2 000245   000000 701000 xent               TSX1    DDS$IC2NODE
         2 000246   001427 702000 2                  TSX2    CLEAN_RETURN
         2 000247   000251 710000 2                  TRA     s:6868

      193     6867    1        ELSE NODE = 0;

   6867  2 000250   200112 450100                    STZ     NODE,,AUTO

      194     6868    1        VALUE.SIZE = 1;

   6868  2 000251   000001 235007                    LDA     1,DL
         2 000252   200035 755100                    STA     VALUE,,AUTO

PL6.E3A0      #001=DDA$DUMP File=DDA$DUMP.:E05TSI                                TUE 07/29/97 13:27 Page:38
      195     6869
      196     6870    1        IF S_D.ANLZ_FILE THEN CALL DUL$GETMVAL(VALUE.OPS(0), ADDRESS, SEG, DESC#,
              6870                 NOT_IS) ALTRET(L3);

   6870  2 000253   000000 470400 xsym               LDP0    S_D$
         2 000254   005052 234100                    SZN     2602,,PR0
         2 000255   000275 605000 2                  TPL     s:6871

   6870  2 000256   200023 631500                    EPPR1   NOT_IS,,AUTO
         2 000257   200142 451500                    STP1    PTR$+5,,AUTO
         2 000260   200022 633500                    EPPR3   DESC#,,AUTO
         2 000261   200141 453500                    STP3    PTR$+4,,AUTO
         2 000262   200021 634500                    EPPR4   SEG,,AUTO
         2 000263   200140 454500                    STP4    PTR$+3,,AUTO
         2 000264   200012 635500                    EPPR5   ADDRESS,,AUTO
         2 000265   200137 455500                    STP5    PTR$+2,,AUTO
         2 000266   200036 636500                    EPPR6   VALUE+1,,AUTO
         2 000267   200136 456500                    STP6    PTR$+1,,AUTO
         2 000270   200136 630500                    EPPR0   PTR$+1,,AUTO
         2 000271   000023 631400 xsym               EPPR1   B_VECTNIL+19
         2 000272   000000 701000 xent               TSX1    DUL$GETMVAL
         2 000273   000337 702000 2                  TSX2    L3
         2 000274   000336 710000 2                  TRA     s:6875

      197     6871    1       ELSE IF S_D.RUM THEN CALL DUU$GETMVAL (VALUE, NODE, ADDRESS, SEG, DESC#, NOT_IS
              6871                 ) ALTRET(L3);

   6871  2 000275   004755 234100                    SZN     2541,,PR0
         2 000276   000320 605000 2                  TPL     s:6873

   6871  2 000277   200023 631500                    EPPR1   NOT_IS,,AUTO
         2 000300   200143 451500                    STP1    PTR$+6,,AUTO
         2 000301   200022 633500                    EPPR3   DESC#,,AUTO
         2 000302   200142 453500                    STP3    PTR$+5,,AUTO
         2 000303   200021 634500                    EPPR4   SEG,,AUTO
         2 000304   200141 454500                    STP4    PTR$+4,,AUTO
         2 000305   200012 635500                    EPPR5   ADDRESS,,AUTO
PL6.E3A0      #001=DDA$DUMP File=DDA$DUMP.:E05TSI                                TUE 07/29/97 13:27 Page:39
         2 000306   200140 455500                    STP5    PTR$+3,,AUTO
         2 000307   200112 636500                    EPPR6   NODE,,AUTO
         2 000310   200137 456500                    STP6    PTR$+2,,AUTO
         2 000311   200035 637500                    EPPR7   VALUE,,AUTO
         2 000312   200136 457500                    STP7    PTR$+1,,AUTO
         2 000313   200136 630500                    EPPR0   PTR$+1,,AUTO
         2 000314   000024 631400 xsym               EPPR1   B_VECTNIL+20
         2 000315   000000 701000 xent               TSX1    DUU$GETMVAL
         2 000316   000337 702000 2                  TSX2    L3
         2 000317   000336 710000 2                  TRA     s:6875

      198     6872    1             ELSE
      199     6873    1                  CALL DDK$GETMVAL(VALUE.OPS(0),ADDRESS,SEG,DESC#,NOT_IS)

   6873  2 000320   200023 631500                    EPPR1   NOT_IS,,AUTO
         2 000321   200142 451500                    STP1    PTR$+5,,AUTO
         2 000322   200022 633500                    EPPR3   DESC#,,AUTO
         2 000323   200141 453500                    STP3    PTR$+4,,AUTO
         2 000324   200021 634500                    EPPR4   SEG,,AUTO
         2 000325   200140 454500                    STP4    PTR$+3,,AUTO
         2 000326   200012 635500                    EPPR5   ADDRESS,,AUTO
         2 000327   200137 455500                    STP5    PTR$+2,,AUTO
         2 000330   200036 636500                    EPPR6   VALUE+1,,AUTO
         2 000331   200136 456500                    STP6    PTR$+1,,AUTO
         2 000332   200136 630500                    EPPR0   PTR$+1,,AUTO
         2 000333   000023 631400 xsym               EPPR1   B_VECTNIL+19
         2 000334   000000 701000 xent               TSX1    DDK$GETMVAL
         2 000335   000337 702000 2                  TSX2    L3

      200     6874    1                    ALTRET(L3);
      201     6875    2        DO WHILE ('0'B);

   6875  2 000336   000347 710000 2                  TRA     s:6880

      202     6876    2   L3:       IF S_D.ERROR ~= 76 AND S_D.ERROR ~= 147 AND S_D.ERROR ~= 78

   6876  2 000337   000000 470400 xsym  L3           LDP0    S_D$
PL6.E3A0      #001=DDA$DUMP File=DDA$DUMP.:E05TSI                                TUE 07/29/97 13:27 Page:40
         2 000340   000013 235100                    LDA     11,,PR0
         2 000341   000114 115007                    CMPA    76,DL
         2 000342   000347 600000 2                  TZE     s:6880
         2 000343   000223 115007                    CMPA    147,DL
         2 000344   000347 600000 2                  TZE     s:6880
         2 000345   000116 115007                    CMPA    78,DL
         2 000346   001427 601000 2                  TNZ     CLEAN_RETURN

      203     6877                                 /* E@NOPAGE, E@ANLZ_PAGENOTDUMPED, E@ACCESS_FAULT */
      204     6878    2             THEN GOTO CLEAN_RETURN;
      205     6879    2           END;

      206     6880    1        SAVE_VALUE = VALUE.OPS(0);         /* Set up for same value check */

   6880  2 000347   200036 235100                    LDA     VALUE+1,,AUTO
         2 000350   200105 755100                    STA     SAVE_VALUE,,AUTO

      207     6881
      208     6882                                                /* Determine display format */
      209     6883
      210     6884    1        BLANK = 32;         /* '040'o corresponds to ' ' in ascii character set */

   6884  2 000351   000040 236007                    LDQ     32,DL
         2 000352   200104 756100                    STQ     BLANK,,AUTO

      211     6885    1        IF S_D.DO$->DUMP$CMD.ASCII_FLAG THEN C_FLAG = '1'B;

   6885  2 000353   000000 470400 xsym               LDP0    S_D$
         2 000354   000031 471500                    LDP1    25,,PR0
         2 000355   100001 236100                    LDQ     1,,PR1
         2 000356   040000 316003                    CANQ    16384,DU
         2 000357   000362 600000 2                  TZE     s:6886

   6885  2 000360   400000 236003                    LDQ     -131072,DU
         2 000361   200026 756100                    STQ     C_FLAG,,AUTO

      212     6886    1        IF S_D.DO$->DUMP$CMD.EBCDIC_FLAG THEN EB_FLAG = '1'B;
PL6.E3A0      #001=DDA$DUMP File=DDA$DUMP.:E05TSI                                TUE 07/29/97 13:27 Page:41

   6886  2 000362   100001 236100                    LDQ     1,,PR1
         2 000363   004000 316003                    CANQ    2048,DU
         2 000364   000367 600000 2                  TZE     s:6887

   6886  2 000365   400000 236003                    LDQ     -131072,DU
         2 000366   200031 756100                    STQ     EB_FLAG,,AUTO

      213     6887    1        IF S_D.DO$->DUMP$CMD.FORMAT

   6887  2 000367   100001 236100                    LDQ     1,,PR1
         2 000370   200000 316003                    CANQ    65536,DU
         2 000371   000446 600000 2                  TZE     COMMON2

      214     6888    2        THEN DO CASE ( S_D.DO$ -> DUMP$CMD.FORMATCODE );

   6888  2 000372   100001 236100                    LDQ     1,,PR1
         2 000373   000022 772000                    QRL     18
         2 000374   000777 376007                    ANQ     511,DL
         2 000375   000530 136007                    SBLQ    344,DL
         2 000376   000022 116007                    CMPQ    18,DL
         2 000377   000401 602006 2                  TNC     s:6888+7,QL
         2 000400   000446 710000 2                  TRA     COMMON2
         2 000401   000423 710000 2                  TRA     s:6890
         2 000402   000446 710000 2                  TRA     COMMON2
         2 000403   000446 710000 2                  TRA     COMMON2
         2 000404   000446 710000 2                  TRA     COMMON2
         2 000405   000446 710000 2                  TRA     COMMON2
         2 000406   000446 710000 2                  TRA     COMMON2
         2 000407   000446 710000 2                  TRA     COMMON2
         2 000410   000446 710000 2                  TRA     COMMON2
         2 000411   000446 710000 2                  TRA     COMMON2
         2 000412   000431 710000 2                  TRA     s:6894
         2 000413   000446 710000 2                  TRA     COMMON2
         2 000414   000446 710000 2                  TRA     COMMON2
         2 000415   000446 710000 2                  TRA     COMMON2
         2 000416   000446 710000 2                  TRA     COMMON2
PL6.E3A0      #001=DDA$DUMP File=DDA$DUMP.:E05TSI                                TUE 07/29/97 13:27 Page:42
         2 000417   000426 710000 2                  TRA     s:6892
         2 000420   000446 710000 2                  TRA     COMMON2
         2 000421   000446 710000 2                  TRA     COMMON2
         2 000422   000434 710000 2                  TRA     s:6896

      215     6889    2          CASE ( 344 );              /* FMT4_CODE (\c) */

      216     6890    2             C_FLAG = '1'B;

   6890  2 000423   400000 236003                    LDQ     -131072,DU
         2 000424   200026 756100                    STQ     C_FLAG,,AUTO
         2 000425   000446 710000 2                  TRA     COMMON2

      217     6891    2          CASE ( 358 );             /* FMT18_CODE (\X1) */

      218     6892    2             X_FLAG = '1'B;

   6892  2 000426   400000 236003                    LDQ     -131072,DU
         2 000427   200027 756100                    STQ     X_FLAG,,AUTO
         2 000430   000446 710000 2                  TRA     COMMON2

      219     6893    2          CASE ( 353 );             /* FMT13_CODE (\x) */

      220     6894    2             H_FLAG = '1'B;

   6894  2 000431   400000 236003                    LDQ     -131072,DU
         2 000432   200030 756100                    STQ     H_FLAG,,AUTO
         2 000433   000446 710000 2                  TRA     COMMON2

      221     6895    2          CASE ( 361 );             /* FMT21_CODE (\eb) */

      222     6896    2             EB_FLAG = '1'B;

   6896  2 000434   400000 236003                    LDQ     -131072,DU
         2 000435   200031 756100                    STQ     EB_FLAG,,AUTO

      223     6897    2             IF C_FLAG
PL6.E3A0      #001=DDA$DUMP File=DDA$DUMP.:E05TSI                                TUE 07/29/97 13:27 Page:43

   6897  2 000436   200026 234100                    SZN     C_FLAG,,AUTO
         2 000437   000443 605000 2                  TPL     s:6902

      224     6898    3             THEN DO;

      225     6899    3                  S_D.ERROR = 322; /* E@FMTCONFLICT */

   6899  2 000440   000502 235007                    LDA     322,DL
         2 000441   000013 755100                    STA     11,,PR0

      226     6900    3                  ALTRETURN;

   6900  2 000442   000000 702200 xent               TSX2  ! X66_AALT

      227     6901    3                END;
      228     6902    2             BLANK = 64;    /* '100'o corresponds to ' ' in ebcdic character set */

   6902  2 000443   000100 235007                    LDA     64,DL
         2 000444   200104 755100                    STA     BLANK,,AUTO
         2 000445   000446 710000 2                  TRA     COMMON2

      229     6903    2          CASE ( 341 );              /* FMT1_CODE (\o) */

      230     6904    2          END;

      231     6905                                                /**/
      232     6906                                                /* Setup display width */
      233     6907                                                /**/
      234     6908    1   COMMON2:
      235     6909    1        IF NOT D_XDELTA

   6909  2 000446   000000 234000 xsym  COMMON2      SZN     D_XDELTA
         2 000447   000476 604000 2                  TMI     s:6918

      236     6910    2        THEN DO;

PL6.E3A0      #001=DDA$DUMP File=DDA$DUMP.:E05TSI                                TUE 07/29/97 13:27 Page:44
      237     6911    2             SAVE_WIDTH = S_D.OUT_WIDTH;

   6911  2 000450   000014 235100                    LDA     12,,PR0
         2 000451   200057 755100                    STA     SAVE_WIDTH,,AUTO

      238     6912    2             IF DCBADDR(S_D.DUMPDCB)->F$DCB.WIDTH# ~= 0

   6912  2 000452   000000 471400 3                  LDP1    0
         2 000453   100000 473500                    LDP3    0,,PR1
         2 000454   005135 720100                    LXL0    2653,,PR0
         2 000455   300000 474510                    LDP4    0,X0,PR3
         2 000456   400004 236100                    LDQ     4,,PR4
         2 000457   000777 316007                    CANQ    511,DL
         2 000460   000465 600000 2                  TZE     s:6914

      239     6913    2             THEN S_D.OUT_WIDTH = DCBADDR(S_D.DUMPDCB)->F$DCB.WIDTH#;

   6913  2 000461   400004 236100                    LDQ     4,,PR4
         2 000462   000777 376007                    ANQ     511,DL
         2 000463   000014 756100                    STQ     12,,PR0
         2 000464   000476 710000 2                  TRA     s:6918

      240     6914    2             ELSE IF DCBADDR(S_D.DUMPDCB)->F$DCB.ASN# = %DEVICE#

   6914  2 000465   400032 236100                    LDQ     26,,PR4
         2 000466   777000 376007                    ANQ     -512,DL
         2 000467   003000 116007                    CMPQ    1536,DL
         2 000470   000474 601000 2                  TNZ     s:6916

      241     6915    2                  THEN S_D.OUT_WIDTH = 80;

   6915  2 000471   000120 235007                    LDA     80,DL
         2 000472   000014 755100                    STA     12,,PR0
         2 000473   000476 710000 2                  TRA     s:6918

      242     6916    2                  ELSE S_D.OUT_WIDTH = 132;

PL6.E3A0      #001=DDA$DUMP File=DDA$DUMP.:E05TSI                                TUE 07/29/97 13:27 Page:45
   6916  2 000474   000204 235007                    LDA     132,DL
         2 000475   000014 755100                    STA     12,,PR0

      243     6917    2           END;

      244     6918    1        S_D.OUTPUT = ' ';

   6918  2 000476   040100 100400                    MLR     fill='040'O
         2 000477   000035 000001 xsym               ADSC9   B_VECTNIL+29             cn=0,n=1
         2 000500   005335 004000                    ADSC9   2781,,PR0                cn=0,n=2048

      245     6919    1        IF X_FLAG OR H_FLAG

   6919  2 000501   200027 234100                    SZN     X_FLAG,,AUTO
         2 000502   000505 604000 2                  TMI     s:6921
         2 000503   200030 234100                    SZN     H_FLAG,,AUTO
         2 000504   000535 605000 2                  TPL     s:6937

      246     6920    2        THEN DO;

      247     6921    2             IF S_D.OUT_WIDTH > 110

   6921  2 000505   000014 235100                    LDA     12,,PR0
         2 000506   000156 115007                    CMPA    110,DL
         2 000507   000515 604400 2                  TMOZ    s:6926

      248     6922    3             THEN DO;

      249     6923    3                  TEMP=50;

   6923  2 000510   000062 236007                    LDQ     50,DL
         2 000511   200015 756100                    STQ     TEMP,,AUTO

      250     6924    3                  MAX_CELL=8;

   6924  2 000512   000010 235007                    LDA     8,DL
         2 000513   200016 755100                    STA     MAX_CELL,,AUTO
PL6.E3A0      #001=DDA$DUMP File=DDA$DUMP.:E05TSI                                TUE 07/29/97 13:27 Page:46

      251     6925    3                END;

   6925  2 000514   000572 710000 2                  TRA     s:6958

      252     6926    2             ELSE IF S_D.OUT_WIDTH < 70 AND (C_FLAG OR EB_FLAG)

   6926  2 000515   000106 115007                    CMPA    70,DL
         2 000516   000530 605000 2                  TPL     s:6932
         2 000517   200026 234100                    SZN     C_FLAG,,AUTO
         2 000520   000523 604000 2                  TMI     s:6928
         2 000521   200031 234100                    SZN     EB_FLAG,,AUTO
         2 000522   000530 605000 2                  TPL     s:6932

      253     6927    3                  THEN DO;

      254     6928    3                       TEMP = 21;

   6928  2 000523   000025 236007                    LDQ     21,DL
         2 000524   200015 756100                    STQ     TEMP,,AUTO

      255     6929    3                       MAX_CELL=2;

   6929  2 000525   000002 235007                    LDA     2,DL
         2 000526   200016 755100                    STA     MAX_CELL,,AUTO

      256     6930    3                     END;

   6930  2 000527   000572 710000 2                  TRA     s:6958

      257     6931    3                  ELSE DO;

      258     6932    3                       MAX_CELL=4;

   6932  2 000530   000004 236007                    LDQ     4,DL
         2 000531   200016 756100                    STQ     MAX_CELL,,AUTO

PL6.E3A0      #001=DDA$DUMP File=DDA$DUMP.:E05TSI                                TUE 07/29/97 13:27 Page:47
      259     6933    3                       TEMP=30;

   6933  2 000532   000036 235007                    LDA     30,DL
         2 000533   200015 755100                    STA     TEMP,,AUTO

      260     6934    3                     END;

      261     6935    2           END;

   6935  2 000534   000572 710000 2                  TRA     s:6958

      262     6936    2        ELSE DO;

      263     6937    2             IF NOT C_FLAG AND NOT EB_FLAG

   6937  2 000535   200026 234100                    SZN     C_FLAG,,AUTO
         2 000536   000556 604000 2                  TMI     s:6947
         2 000537   200031 234100                    SZN     EB_FLAG,,AUTO
         2 000540   000556 604000 2                  TMI     s:6947

      264     6938    2             THEN IF S_D.OUT_WIDTH > 121

   6938  2 000541   000014 235100                    LDA     12,,PR0
         2 000542   000171 115007                    CMPA    121,DL
         2 000543   000551 604400 2                  TMOZ    s:6944

      265     6939    3                  THEN DO;

      266     6940    3                       MAX_CELL = 8;

   6940  2 000544   000010 236007                    LDQ     8,DL
         2 000545   200016 756100                    STQ     MAX_CELL,,AUTO

      267     6941    3                       TEMP = 66;

   6941  2 000546   000102 235007                    LDA     66,DL
         2 000547   200015 755100                    STA     TEMP,,AUTO
PL6.E3A0      #001=DDA$DUMP File=DDA$DUMP.:E05TSI                                TUE 07/29/97 13:27 Page:48

      268     6942    3                     END;

   6942  2 000550   000572 710000 2                  TRA     s:6958

      269     6943    3                  ELSE DO;

      270     6944    3                       MAX_CELL = 4;

   6944  2 000551   000004 236007                    LDQ     4,DL
         2 000552   200016 756100                    STQ     MAX_CELL,,AUTO

      271     6945    3                       TEMP = 38;

   6945  2 000553   000046 235007                    LDA     38,DL
         2 000554   200015 755100                    STA     TEMP,,AUTO

      272     6946    3                     END;

   6946  2 000555   000572 710000 2                  TRA     s:6958

      273     6947    2             ELSE IF S_D.OUT_WIDTH > 86

   6947  2 000556   000014 235100                    LDA     12,,PR0
         2 000557   000126 115007                    CMPA    86,DL
         2 000560   000566 604400 2                  TMOZ    s:6953

      274     6948    3                  THEN DO;

      275     6949    3                       MAX_CELL = 4;

   6949  2 000561   000004 236007                    LDQ     4,DL
         2 000562   200016 756100                    STQ     MAX_CELL,,AUTO

      276     6950    3                       TEMP = 38;

   6950  2 000563   000046 235007                    LDA     38,DL
PL6.E3A0      #001=DDA$DUMP File=DDA$DUMP.:E05TSI                                TUE 07/29/97 13:27 Page:49
         2 000564   200015 755100                    STA     TEMP,,AUTO

      277     6951    3                     END;

   6951  2 000565   000572 710000 2                  TRA     s:6958

      278     6952    3                  ELSE DO;

      279     6953    3                       MAX_CELL = 4;

   6953  2 000566   000004 236007                    LDQ     4,DL
         2 000567   200016 756100                    STQ     MAX_CELL,,AUTO

      280     6954    3                       TEMP = 24;

   6954  2 000570   000030 235007                    LDA     24,DL
         2 000571   200015 755100                    STA     TEMP,,AUTO

      281     6955    3                     END;

      282     6956    2           END;

      283     6957                                                /**/
      284     6958    1        IF NOT PMD_FLAG

   6958  2 000572   200011 234100                    SZN     PMD_FLAG,,AUTO
         2 000573   000646 604000 2                  TMI     s:6976

      285     6959    2        THEN DO;

      286     6960    2             IF S_D.DO$->DUMP$CMD.PAGE_EJECT THEN CALL DDQ$WRTOFD;

   6960  2 000574   000031 471500                    LDP1    25,,PR0
         2 000575   100001 236100                    LDQ     1,,PR1
         2 000576   020000 316003                    CANQ    8192,DU
         2 000577   000603 600000 2                  TZE     s:6964

PL6.E3A0      #001=DDA$DUMP File=DDA$DUMP.:E05TSI                                TUE 07/29/97 13:27 Page:50
   6960  2 000600   000002 631400 xsym               EPPR1   B_VECTNIL+2
         2 000601   000000 701000 xent               TSX1    DDQ$WRTOFD
         2 000602   000000 011000                    NOP     0

      287     6961                                                /**/
      288     6962                                                /* Output heading if present */
      289     6963                                                /**/
      290     6964    2             IF S_D.DO$->DUMP$CMD.HEADING

   6964  2 000603   000000 470400 xsym               LDP0    S_D$
         2 000604   000031 471500                    LDP1    25,,PR0
         2 000605   100001 234100                    SZN     1,,PR1
         2 000606   000646 605000 2                  TPL     s:6976

      291     6965    3             THEN DO;

      292     6966    3                  TEXT_LEN = S_D.DESC$->DUMP_HEADING.LEN; /* DESC$ updated by get*/

   6966  2 000607   000041 473500                    LDP3    33,,PR0
         2 000610   000100 101500                    MRL     fill='000'O
         2 000611   300000 000001                    ADSC9   0,,PR3                   cn=0,n=1
         2 000612   200020 000004                    ADSC9   TEXT_LEN,,AUTO           cn=0,n=4

      293     6967                                                /* Center heading */
      294     6968    3                  TEMP_S = TEMP - TEXT_LEN/2;

   6968  2 000613   200020 236100                    LDQ     TEXT_LEN,,AUTO
         2 000614   000001 772000                    QRL     1
         2 000615   200136 756100                    STQ     PTR$+1,,AUTO
         2 000616   200015 236100                    LDQ     TEMP,,AUTO
         2 000617   200136 136100                    SBLQ    PTR$+1,,AUTO
         2 000620   200013 756100                    STQ     TEMP_S,,AUTO

      295     6969    3                  IF TEMP_S < 1 THEN TEMP_S = 1;

   6969  2 000621   000624 605400 2                  TPNZ    s:6970

PL6.E3A0      #001=DDA$DUMP File=DDA$DUMP.:E05TSI                                TUE 07/29/97 13:27 Page:51
   6969  2 000622   000001 235007                    LDA     1,DL
         2 000623   200013 755100                    STA     TEMP_S,,AUTO

      296     6970    3                  PINCRC(OUTPUT$, TEMP_S-1)->DUMP_HEADING.TEXT =

   6970  2 000624   000041 471500                    LDP1    33,,PR0
         2 000625   200020 720100                    LXL0    TEXT_LEN,,AUTO
         2 000626   200113 473500                    LDP3    OUTPUT$,,AUTO
         2 000627   200013 235100                    LDA     TEMP_S,,AUTO
         2 000630   040145 100540                    MLR     fill='040'O
         2 000631   100000 200010                    ADSC9   0,,PR1                   cn=1,n=*X0
         2 000632   300000 000010                    ADSC9   0,A,PR3                  cn=0,n=*X0

      297     6971    3                    S_D.DESC$->DUMP_HEADING.TEXT;
      298     6972    3                  CALL DDQ$WRITED(OUTPUT$, TEMP_S+TEXT_LEN);

   6972  2 000633   200013 236100                    LDQ     TEMP_S,,AUTO
         2 000634   200020 036100                    ADLQ    TEXT_LEN,,AUTO
         2 000635   200136 756100                    STQ     PTR$+1,,AUTO
         2 000636   200136 631500                    EPPR1   PTR$+1,,AUTO
         2 000637   200141 451500                    STP1    PTR$+4,,AUTO
         2 000640   200113 633500                    EPPR3   OUTPUT$,,AUTO
         2 000641   200140 453500                    STP3    PTR$+3,,AUTO
         2 000642   200140 630500                    EPPR0   PTR$+3,,AUTO
         2 000643   000020 631400 xsym               EPPR1   B_VECTNIL+16
         2 000644   000000 701000 xent               TSX1    DDQ$WRITED
         2 000645   000000 011000                    NOP     0

      299     6973    3                END;

      300     6974    2           END;

      301     6975                                                /**/
      302     6976    1        S_D.D$ = OUTPUT$;                  /* Put symbolic address in title */

   6976  2 000646   200113 236100                    LDQ     OUTPUT$,,AUTO
         2 000647   000000 470400 xsym               LDP0    S_D$
PL6.E3A0      #001=DDA$DUMP File=DDA$DUMP.:E05TSI                                TUE 07/29/97 13:27 Page:52
         2 000650   000044 756100                    STQ     36,,PR0

      303     6977    1        S_D.DESCL$ = PINCRC(S_D.D$, SIZEC(S_D.OUTPUT));

   6977  2 000651   001000 036003                    ADLQ    512,DU
         2 000652   000042 756100                    STQ     34,,PR0

      304     6978    1        CALL DDA$DISPADR(ADDRESS,SEG,DESC#,NOT_IS,%REL_FMT,,36) ALTRET(CLEAN_RETURN);

   6978  2 000653   000002 236000 3                  LDQ     2
         2 000654   200144 756100                    STQ     PTR$+7,,AUTO
         2 000655   000001 236000 xsym               LDQ     B_VECTNIL+1
         2 000656   000003 235000 3                  LDA     3
         2 000657   200142 757100                    STAQ    PTR$+5,,AUTO
         2 000660   200023 631500                    EPPR1   NOT_IS,,AUTO
         2 000661   200141 451500                    STP1    PTR$+4,,AUTO
         2 000662   200022 633500                    EPPR3   DESC#,,AUTO
         2 000663   200140 453500                    STP3    PTR$+3,,AUTO
         2 000664   200021 634500                    EPPR4   SEG,,AUTO
         2 000665   200137 454500                    STP4    PTR$+2,,AUTO
         2 000666   200012 635500                    EPPR5   ADDRESS,,AUTO
         2 000667   200136 455500                    STP5    PTR$+1,,AUTO
         2 000670   200136 630500                    EPPR0   PTR$+1,,AUTO
         2 000671   000025 631400 xsym               EPPR1   B_VECTNIL+21
         2 000672   000000 701000 xent               TSX1    DDA$DISPADR
         2 000673   001427 702000 2                  TSX2    CLEAN_RETURN

      305     6979    1        CALL DDQ$WRITED(OUTPUT$,POFFC(S_D.D$,OUTPUT$));

   6979  2 000674   200113 236100                    LDQ     OUTPUT$,,AUTO
         2 000675   000020 772000                    QRL     16
         2 000676   200136 756100                    STQ     PTR$+1,,AUTO
         2 000677   000000 470400 xsym               LDP0    S_D$
         2 000700   000044 236100                    LDQ     36,,PR0
         2 000701   000020 772000                    QRL     16
         2 000702   200136 136100                    SBLQ    PTR$+1,,AUTO
         2 000703   200137 756100                    STQ     PTR$+2,,AUTO
PL6.E3A0      #001=DDA$DUMP File=DDA$DUMP.:E05TSI                                TUE 07/29/97 13:27 Page:53
         2 000704   200137 631500                    EPPR1   PTR$+2,,AUTO
         2 000705   200141 451500                    STP1    PTR$+4,,AUTO
         2 000706   200113 633500                    EPPR3   OUTPUT$,,AUTO
         2 000707   200140 453500                    STP3    PTR$+3,,AUTO
         2 000710   200140 630500                    EPPR0   PTR$+3,,AUTO
         2 000711   000020 631400 xsym               EPPR1   B_VECTNIL+16
         2 000712   000000 701000 xent               TSX1    DDQ$WRITED
         2 000713   000000 011000                    NOP     0

      306     6980                                                /**/
      307     6981                                                /* Setup for dump loop */
      308     6982                                                /**/
      309     6983    1        IF ADDRESS ~= 0

   6983  2 000714   200012 235100                    LDA     ADDRESS,,AUTO
         2 000715   000723 600000 2                  TZE     s:6985

      310     6984    1        THEN OFFSET = (ADDRESS/MAX_CELL)*MAX_CELL;

   6984  2 000716   200012 236100                    LDQ     ADDRESS,,AUTO
         2 000717   200016 506100                    DIV     MAX_CELL,,AUTO
         2 000720   200016 402100                    MPY     MAX_CELL,,AUTO
         2 000721   200062 756100                    STQ     OFFSET,,AUTO
         2 000722   000724 710000 2                  TRA     s:6986

      311     6985    1        ELSE OFFSET = 0;

   6985  2 000723   200062 450100                    STZ     OFFSET,,AUTO

      312     6986    1        MAX_ADDRESS = ADDRESS + NUM_WORDS-1;

   6986  2 000724   200012 236100                    LDQ     ADDRESS,,AUTO
         2 000725   200024 036100                    ADLQ    NUM_WORDS,,AUTO
         2 000726   000001 136007                    SBLQ    1,DL
         2 000727   200017 756100                    STQ     MAX_ADDRESS,,AUTO

      313     6987    1        J = ADDRESS - OFFSET;              /* Compute position of first cell */
PL6.E3A0      #001=DDA$DUMP File=DDA$DUMP.:E05TSI                                TUE 07/29/97 13:27 Page:54

   6987  2 000730   200012 236100                    LDQ     ADDRESS,,AUTO
         2 000731   200062 136100                    SBLQ    OFFSET,,AUTO
         2 000732   200107 756100                    STQ     J,,AUTO

      314     6988    2        DO I = 0 TO 31;                    /* Blank fill for char conversion */

   6988  2 000733   200014 450100                    STZ     I,,AUTO

      315     6989    2             DATA_VAL (I) = BLANK;         /* Clear expansion buffer */

   6989  2 000734   200014 235100                    LDA     I,,AUTO
         2 000735   000105 101500                    MRL     fill='000'O
         2 000736   200104 000004                    ADSC9   BLANK,,AUTO              cn=0,n=4
         2 000737   200064 000001                    ADSC9   DATA,A,AUTO              cn=0,n=1

      316     6990    2             SAVE_DATA_VAL (I) = BLANK;

   6990  2 000740   000105 101500                    MRL     fill='000'O
         2 000741   200104 000004                    ADSC9   BLANK,,AUTO              cn=0,n=4
         2 000742   200074 000001                    ADSC9   SAVE_DATA,A,AUTO         cn=0,n=1

      317     6991    2           END;

   6991  2 000743   000001 035007                    ADLA    1,DL
         2 000744   200014 755100                    STA     I,,AUTO
         2 000745   000040 115007                    CMPA    32,DL
         2 000746   000734 602000 2                  TNC     s:6989

      318     6992    1        OFFSET_SAVE = -1;   /* Show that offset must be saved when dup found */

   6992  2 000747   000001 336007                    LCQ     1,DL
         2 000750   200106 756100                    STQ     OFFSET_SAVE,,AUTO

      319     6993    1        SAME_COUNT = 0;

   6993  2 000751   200114 450100                    STZ     SAME_COUNT,,AUTO
PL6.E3A0      #001=DDA$DUMP File=DDA$DUMP.:E05TSI                                TUE 07/29/97 13:27 Page:55

      320     6994    1        IF (J = 0) AND (NOT LONG_FLAG)

   6994  2 000752   200107 235100                    LDA     J,,AUTO
         2 000753   000761 601000 2                  TNZ     s:6996
         2 000754   200032 234100                    SZN     LONG_FLAG,,AUTO
         2 000755   000761 604000 2                  TMI     s:6996

      321     6995    1        THEN CHECK_DUP = '1'B;

   6995  2 000756   400000 236003                    LDQ     -131072,DU
         2 000757   200115 756100                    STQ     CHECK_DUP,,AUTO
         2 000760   000762 710000 2                  TRA     s:6997

      322     6996    1       ELSE CHECK_DUP = '0'B; /* Dont check for dups if not full line or long format*/

   6996  2 000761   200115 450100                    STZ     CHECK_DUP,,AUTO

      323     6997    1        MAX_CELL_M_1 = MAX_CELL - 1;       /* Speed up loop */

   6997  2 000762   200016 236100                    LDQ     MAX_CELL,,AUTO
         2 000763   000001 136007                    SBLQ    1,DL
         2 000764   200063 756100                    STQ     MAX_CELL_M_1,,AUTO

   6997  2 000765                       LOOP_TOP     null
      324     6998                                                /**/
      325     6999                                                /* Dump loop */
      326     7000                                                /**/
      327     7001    1   LOOP_TOP: ;
      328     7002    2        DO I=J TO MAX_CELL_M_1;

   7002  2 000765   200107 235100                    LDA     J,,AUTO
         2 000766   200014 755100                    STA     I,,AUTO
         2 000767   001133 710000 2                  TRA     s:7033+3

      329     7003    2             CALL DDB$BREAK ALTRET(CLEAN_RETURN);

PL6.E3A0      #001=DDA$DUMP File=DDA$DUMP.:E05TSI                                TUE 07/29/97 13:27 Page:56
   7003  2 000770   000002 631400 xsym               EPPR1   B_VECTNIL+2
         2 000771   000000 701000 xent               TSX1    DDB$BREAK
         2 000772   001427 702000 2                  TSX2    CLEAN_RETURN

      330     7004    2             VALUE.SIZE = 1;

   7004  2 000773   000001 235007                    LDA     1,DL
         2 000774   200035 755100                    STA     VALUE,,AUTO

      331     7005    2             IF S_D.ANLZ_FILE THEN CALL DUL$GETMVAL(VALUE.OPS(0), ADDRESS, SEG, DESC#,
              7005                      NOT_IS) ALTRET(ALT_CHECK);

   7005  2 000775   000000 470400 xsym               LDP0    S_D$
         2 000776   005052 234100                    SZN     2602,,PR0
         2 000777   001017 605000 2                  TPL     s:7006

   7005  2 001000   200023 631500                    EPPR1   NOT_IS,,AUTO
         2 001001   200142 451500                    STP1    PTR$+5,,AUTO
         2 001002   200022 633500                    EPPR3   DESC#,,AUTO
         2 001003   200141 453500                    STP3    PTR$+4,,AUTO
         2 001004   200021 634500                    EPPR4   SEG,,AUTO
         2 001005   200140 454500                    STP4    PTR$+3,,AUTO
         2 001006   200012 635500                    EPPR5   ADDRESS,,AUTO
         2 001007   200137 455500                    STP5    PTR$+2,,AUTO
         2 001010   200036 636500                    EPPR6   VALUE+1,,AUTO
         2 001011   200136 456500                    STP6    PTR$+1,,AUTO
         2 001012   200136 630500                    EPPR0   PTR$+1,,AUTO
         2 001013   000023 631400 xsym               EPPR1   B_VECTNIL+19
         2 001014   000000 701000 xent               TSX1    DUL$GETMVAL
         2 001015   001471 702000 2                  TSX2    ALT_CHECK
         2 001016   001060 710000 2                  TRA     s:7010

      332     7006    2             ELSE IF S_D.RUM THEN CALL DUU$GETMVAL (VALUE, NODE, ADDRESS, SEG,DESC#,
              7006                      NOT_IS) ALTRET(ALT_CHECK);

   7006  2 001017   004755 234100                    SZN     2541,,PR0
         2 001020   001042 605000 2                  TPL     s:7008
PL6.E3A0      #001=DDA$DUMP File=DDA$DUMP.:E05TSI                                TUE 07/29/97 13:27 Page:57

   7006  2 001021   200023 631500                    EPPR1   NOT_IS,,AUTO
         2 001022   200143 451500                    STP1    PTR$+6,,AUTO
         2 001023   200022 633500                    EPPR3   DESC#,,AUTO
         2 001024   200142 453500                    STP3    PTR$+5,,AUTO
         2 001025   200021 634500                    EPPR4   SEG,,AUTO
         2 001026   200141 454500                    STP4    PTR$+4,,AUTO
         2 001027   200012 635500                    EPPR5   ADDRESS,,AUTO
         2 001030   200140 455500                    STP5    PTR$+3,,AUTO
         2 001031   200112 636500                    EPPR6   NODE,,AUTO
         2 001032   200137 456500                    STP6    PTR$+2,,AUTO
         2 001033   200035 637500                    EPPR7   VALUE,,AUTO
         2 001034   200136 457500                    STP7    PTR$+1,,AUTO
         2 001035   200136 630500                    EPPR0   PTR$+1,,AUTO
         2 001036   000024 631400 xsym               EPPR1   B_VECTNIL+20
         2 001037   000000 701000 xent               TSX1    DUU$GETMVAL
         2 001040   001471 702000 2                  TSX2    ALT_CHECK
         2 001041   001060 710000 2                  TRA     s:7010

      333     7007    2                  ELSE
      334     7008    2                       CALL DDK$GETMVAL(VALUE.OPS(0),ADDRESS,SEG,DESC#,NOT_IS)

   7008  2 001042   200023 631500                    EPPR1   NOT_IS,,AUTO
         2 001043   200142 451500                    STP1    PTR$+5,,AUTO
         2 001044   200022 633500                    EPPR3   DESC#,,AUTO
         2 001045   200141 453500                    STP3    PTR$+4,,AUTO
         2 001046   200021 634500                    EPPR4   SEG,,AUTO
         2 001047   200140 454500                    STP4    PTR$+3,,AUTO
         2 001050   200012 635500                    EPPR5   ADDRESS,,AUTO
         2 001051   200137 455500                    STP5    PTR$+2,,AUTO
         2 001052   200036 636500                    EPPR6   VALUE+1,,AUTO
         2 001053   200136 456500                    STP6    PTR$+1,,AUTO
         2 001054   200136 630500                    EPPR0   PTR$+1,,AUTO
         2 001055   000023 631400 xsym               EPPR1   B_VECTNIL+19
         2 001056   000000 701000 xent               TSX1    DDK$GETMVAL
         2 001057   001471 702000 2                  TSX2    ALT_CHECK

PL6.E3A0      #001=DDA$DUMP File=DDA$DUMP.:E05TSI                                TUE 07/29/97 13:27 Page:58
      335     7009    2                         ALTRET(ALT_CHECK);
      336     7010    2             DATA(I) = VALUE.OPS(0);

   7010  2 001060   200014 720100                    LXL0    I,,AUTO
         2 001061   200036 235100                    LDA     VALUE+1,,AUTO
         2 001062   200064 755110                    STA     DATA,X0,AUTO

      337     7011    3             IF CHECK_DUP THEN DO;

   7011  2 001063   200115 234100                    SZN     CHECK_DUP,,AUTO
         2 001064   001123 605000 2                  TPL     s:7031

      338     7012    4                  IF SAVE_VALUE = VALUE.OPS(0) THEN DO;

   7012  2 001065   200105 236100                    LDQ     SAVE_VALUE,,AUTO
         2 001066   200036 116100                    CMPQ    VALUE+1,,AUTO
         2 001067   001101 601000 2                  TNZ     s:7017

      339     7013    4                       SAME_COUNT = SAME_COUNT + 1;

   7013  2 001070   200114 235100                    LDA     SAME_COUNT,,AUTO
         2 001071   000001 035007                    ADLA    1,DL
         2 001072   200114 755100                    STA     SAME_COUNT,,AUTO

      340     7014    4                       IF OFFSET_SAVE = -1 THEN OFFSET_SAVE = OFFSET;

   7014  2 001073   200106 235100                    LDA     OFFSET_SAVE,,AUTO
         2 001074   000027 115000 xsym               CMPA    B_VECTNIL+23
         2 001075   001123 601000 2                  TNZ     s:7031

   7014  2 001076   200062 235100                    LDA     OFFSET,,AUTO
         2 001077   200106 755100                    STA     OFFSET_SAVE,,AUTO

      341     7015    4                     END;

   7015  2 001100   001123 710000 2                  TRA     s:7031

PL6.E3A0      #001=DDA$DUMP File=DDA$DUMP.:E05TSI                                TUE 07/29/97 13:27 Page:59
      342     7016    4                  ELSE DO;

      343     7017    5                       IF SAME_COUNT >= MAX_CELL THEN DO; /* At least 1 line */

   7017  2 001101   200114 236100                    LDQ     SAME_COUNT,,AUTO
         2 001102   001105 604000 2                  TMI     s:7018
         2 001103   200016 116100                    CMPQ    MAX_CELL,,AUTO
         2 001104   001111 604000 2                  TMI     s:7021

      344     7018    5                            CALL SAME_OUT; /* Describe same values */

   7018  2 001105   001520 701000 2                  TSX1    SAME_OUT
         2 001106   000000 011000                    NOP     0

      345     7019    5                            OFFSET_SAVE = -1;

   7019  2 001107   000001 335007                    LCA     1,DL
         2 001110   200106 755100                    STA     OFFSET_SAVE,,AUTO

      346     7020    5                          END;

      347     7021    4                       SAVE_VALUE = VALUE.OPS(0);

   7021  2 001111   200036 235100                    LDA     VALUE+1,,AUTO
         2 001112   200105 755100                    STA     SAVE_VALUE,,AUTO

      348     7022    4                       SAME_COUNT = 1;

   7022  2 001113   000001 236007                    LDQ     1,DL
         2 001114   200114 756100                    STQ     SAME_COUNT,,AUTO

      349     7023    5                       IF I ~= 0 THEN DO;

   7023  2 001115   200014 235100                    LDA     I,,AUTO
         2 001116   001123 600000 2                  TZE     s:7031

      350     7024    5                            CHECK_DUP = '0'B; /* Turn off dup check
PL6.E3A0      #001=DDA$DUMP File=DDA$DUMP.:E05TSI                                TUE 07/29/97 13:27 Page:60

   7024  2 001117   200115 450100                    STZ     CHECK_DUP,,AUTO

      351     7025                                                if we're in the middle of a line */
      352     7026    5                            SAME_COUNT = 0;

   7026  2 001120   200114 450100                    STZ     SAME_COUNT,,AUTO

      353     7027    5                            OFFSET_SAVE = -1;

   7027  2 001121   000001 335007                    LCA     1,DL
         2 001122   200106 755100                    STA     OFFSET_SAVE,,AUTO

      354     7028    5                          END;

      355     7029    4                     END;

      356     7030    3                END;

      357     7031    2             ADDRESS = ADDRESS + 1;

   7031  2 001123   200012 054100                    AOS     ADDRESS,,AUTO

      358     7032    2             IF ADDRESS > MAX_ADDRESS THEN GOTO LAST_TIME;

   7032  2 001124   200017 236100                    LDQ     MAX_ADDRESS,,AUTO
         2 001125   001130 604000 2                  TMI     s:7033
         2 001126   200012 116100                    CMPQ    ADDRESS,,AUTO
         2 001127   001166 604000 2                  TMI     LAST_TIME

      359     7033    2           END;                            /* Do loop */

   7033  2 001130   200014 235100                    LDA     I,,AUTO
         2 001131   000001 035007                    ADLA    1,DL
         2 001132   200014 755100                    STA     I,,AUTO
         2 001133   200063 236100                    LDQ     MAX_CELL_M_1,,AUTO
         2 001134   200014 116100                    CMPQ    I,,AUTO
PL6.E3A0      #001=DDA$DUMP File=DDA$DUMP.:E05TSI                                TUE 07/29/97 13:27 Page:61
         2 001135   000770 603000 2                  TRC     s:7003

      360     7034    1        IF CHECK_DUP THEN GOTO RE_ENTER_LOOP; /* CHECK_DUP means SAME_COUNT

   7034  2 001136   200115 234100                    SZN     CHECK_DUP,,AUTO
         2 001137   001142 604000 2                  TMI     RE_ENTER_LOOP

      361     7035                                                is at least = MAX_CELL, otherwise we
      362     7036                                                have a data line to print */
      363     7037    1        CALL LINE_OUT;

   7037  2 001140   002000 701000 2                  TSX1    LINE_OUT
         2 001141   000000 011000                    NOP     0

   7034  2 001142                       RE_ENTER_LO* null
      364     7038                                                /**/
      365     7039    1   RE_ENTER_LOOP: ;                        /* Here to temporarily bypass output */
      366     7040    1        OFFSET = OFFSET + MAX_CELL;

   7040  2 001142   200062 236100                    LDQ     OFFSET,,AUTO
         2 001143   200016 036100                    ADLQ    MAX_CELL,,AUTO
         2 001144   200062 756100                    STQ     OFFSET,,AUTO

      367     7041    1        J = 0;                             /* Start at the begining of the line */

   7041  2 001145   200107 450100                    STZ     J,,AUTO

      368     7042    2        DO I = 0 TO 31;

   7042  2 001146   200014 450100                    STZ     I,,AUTO

      369     7043    2             DATA_VAL (I) = BLANK;

   7043  2 001147   200014 235100                    LDA     I,,AUTO
         2 001150   000105 101500                    MRL     fill='000'O
         2 001151   200104 000004                    ADSC9   BLANK,,AUTO              cn=0,n=4
         2 001152   200064 000001                    ADSC9   DATA,A,AUTO              cn=0,n=1
PL6.E3A0      #001=DDA$DUMP File=DDA$DUMP.:E05TSI                                TUE 07/29/97 13:27 Page:62

      370     7044    2           END;

   7044  2 001153   000001 035007                    ADLA    1,DL
         2 001154   200014 755100                    STA     I,,AUTO
         2 001155   000040 115007                    CMPA    32,DL
         2 001156   001147 602000 2                  TNC     s:7043

      371     7045    1        IF LONG_FLAG

   7045  2 001157   200032 234100                    SZN     LONG_FLAG,,AUTO
         2 001160   001163 605000 2                  TPL     s:7047

      372     7046    1        THEN CHECK_DUP = '0'B;

   7046  2 001161   200115 450100                    STZ     CHECK_DUP,,AUTO
         2 001162   001165 710000 2                  TRA     s:7048

      373     7047    1        ELSE CHECK_DUP = '1'B; /* We finished a line, so CHECK_DUP should be on */

   7047  2 001163   400000 236003                    LDQ     -131072,DU
         2 001164   200115 756100                    STQ     CHECK_DUP,,AUTO

      374     7048    1        GOTO LOOP_TOP;                     /* Restart loop */

   7048  2 001165   000765 710000 2                  TRA     LOOP_TOP

   7045  2 001166                       LAST_TIME    null
      375     7049                                                /**/
      376     7050                                                /**/
      377     7051    1   LAST_TIME: ;             /* Here on error, seg end, or MAX_ADDRESS exceeded */
      378     7052    1        IF ADDRESS = OFFSET+MAX_CELL AND CHECK_DUP

   7052  2 001166   200062 236100                    LDQ     OFFSET,,AUTO
         2 001167   200016 036100                    ADLQ    MAX_CELL,,AUTO
         2 001170   200012 116100                    CMPQ    ADDRESS,,AUTO
         2 001171   001177 601000 2                  TNZ     s:7056
PL6.E3A0      #001=DDA$DUMP File=DDA$DUMP.:E05TSI                                TUE 07/29/97 13:27 Page:63
         2 001172   200115 234100                    SZN     CHECK_DUP,,AUTO
         2 001173   001177 605000 2                  TPL     s:7056

      379     7053                                 /* Take care of case where last line is all dup, and
      380     7054                                 exactly full but offset hasn't been updated yet */
      381     7055    1        THEN OFFSET = OFFSET + MAX_CELL;

   7055  2 001174   200062 236100                    LDQ     OFFSET,,AUTO
         2 001175   200016 036100                    ADLQ    MAX_CELL,,AUTO
         2 001176   200062 756100                    STQ     OFFSET,,AUTO

      382     7056    2        IF SAME_COUNT >= MAX_CELL THEN DO;

   7056  2 001177   200114 236100                    LDQ     SAME_COUNT,,AUTO
         2 001200   001203 604000 2                  TMI     s:7057
         2 001201   200016 116100                    CMPQ    MAX_CELL,,AUTO
         2 001202   001214 604000 2                  TMI     s:7061

      383     7057    2             CALL SAME_OUT;

   7057  2 001203   001520 701000 2                  TSX1    SAME_OUT
         2 001204   000000 011000                    NOP     0

      384     7058    2             IF OFFSET_SAVE ~= ADDRESS - 1 /*Ie. If last line not all dups */

   7058  2 001205   200012 236100                    LDQ     ADDRESS,,AUTO
         2 001206   000001 136007                    SBLQ    1,DL
         2 001207   200106 116100                    CMPQ    OFFSET_SAVE,,AUTO
         2 001210   001222 600000 2                  TZE     s:7063

      385     7059    2             THEN CALL LINE_OUT;

   7059  2 001211   002000 701000 2                  TSX1    LINE_OUT
         2 001212   000000 011000                    NOP     0

      386     7060    2           END;

PL6.E3A0      #001=DDA$DUMP File=DDA$DUMP.:E05TSI                                TUE 07/29/97 13:27 Page:64
   7060  2 001213   001222 710000 2                  TRA     s:7063

      387     7061    1        ELSE IF ADDRESS ~= OFFSET THEN     /*Don't print offset on an empty line*/

   7061  2 001214   200012 236100                    LDQ     ADDRESS,,AUTO
         2 001215   001220 604000 2                  TMI     s:7062
         2 001216   200062 116100                    CMPQ    OFFSET,,AUTO
         2 001217   001222 600000 2                  TZE     s:7063

      388     7062    1                  CALL LINE_OUT;

   7062  2 001220   002000 701000 2                  TSX1    LINE_OUT
         2 001221   000000 011000                    NOP     0

      389     7063    1        IF MISSING_PAGE_FLAG               /* See if there's more to do */

   7063  2 001222   200034 234100                    SZN     MISSING_PAGE_FLAG,,AUTO
         2 001223   001427 605000 2                  TPL     CLEAN_RETURN

      390     7064    2        THEN DO;                           /* Yes, we hit a missing page */

      391     7065    2             MISSING_PAGE_FLAG = '0'B;

   7065  2 001224   200034 450100                    STZ     MISSING_PAGE_FLAG,,AUTO

      392     7066    2   L1:       ADDRESS = SAVE_ADDRESS + 1024; /* Point at next page */

   7066  2 001225   200060 235100       L1           LDA     SAVE_ADDRESS,,AUTO
         2 001226   002000 035007                    ADLA    1024,DL
         2 001227   200012 755100                    STA     ADDRESS,,AUTO

      393     7067    2             SAVE_ADDRESS = ADDRESS;

   7067  2 001230   200060 755100                    STA     SAVE_ADDRESS,,AUTO

      394     7068    2             S_D.ERROR = 0;

PL6.E3A0      #001=DDA$DUMP File=DDA$DUMP.:E05TSI                                TUE 07/29/97 13:27 Page:65
   7068  2 001231   000000 470400 xsym               LDP0    S_D$
         2 001232   000013 450100                    STZ     11,,PR0

      395     7069    2             CALL DDB$BREAK ALTRET(CLEAN_RETURN);

   7069  2 001233   000002 631400 xsym               EPPR1   B_VECTNIL+2
         2 001234   000000 701000 xent               TSX1    DDB$BREAK
         2 001235   001427 702000 2                  TSX2    CLEAN_RETURN

      396     7070    3             IF ADDRESS > MAX_ADDRESS THEN DO;

   7070  2 001236   200017 236100                    LDQ     MAX_ADDRESS,,AUTO
         2 001237   001264 604000 2                  TMI     s:7077
         2 001240   200012 116100                    CMPQ    ADDRESS,,AUTO
         2 001241   001264 605000 2                  TPL     s:7077

      397     7071    3   L5:            S_D.OUTPUT = '(missing page(s))';

   7071  2 001242   000000 470400 xsym  L5           LDP0    S_D$
         2 001243   040100 100400                    MLR     fill='040'O
         2 001244   000010 000021 1                  ADSC9   HEXCHARS+4               cn=0,n=17
         2 001245   005335 004000                    ADSC9   2781,,PR0                cn=0,n=2048

      398     7072    3                  CALL DDQ$WRITED(OUTPUT$, 17);

   7072  2 001246   000005 236000 3                  LDQ     5
         2 001247   200137 756100                    STQ     PTR$+2,,AUTO
         2 001250   200113 631500                    EPPR1   OUTPUT$,,AUTO
         2 001251   200136 451500                    STP1    PTR$+1,,AUTO
         2 001252   200136 630500                    EPPR0   PTR$+1,,AUTO
         2 001253   000020 631400 xsym               EPPR1   B_VECTNIL+16
         2 001254   000000 701000 xent               TSX1    DDQ$WRITED
         2 001255   000000 011000                    NOP     0

      399     7073    3                  IF NUM_WORDS = 17000000/*DD_BIGNUM*/ THEN S_D.ERROR = 0;

   7073  2 001256   200024 235100                    LDA     NUM_WORDS,,AUTO
PL6.E3A0      #001=DDA$DUMP File=DDA$DUMP.:E05TSI                                TUE 07/29/97 13:27 Page:66
         2 001257   000006 115000 3                  CMPA    6
         2 001260   001263 601000 2                  TNZ     s:7074

   7073  2 001261   000000 470400 xsym               LDP0    S_D$
         2 001262   000013 450100                    STZ     11,,PR0

      400     7074    3                  GOTO CLEAN_RETURN;

   7074  2 001263   001427 710000 2                  TRA     CLEAN_RETURN

      401     7075    3                END;
      402     7076                                                /* See if we can get one */
      403     7077    2             VALUE.SIZE = 1;

   7077  2 001264   000001 235007                    LDA     1,DL
         2 001265   200035 755100                    STA     VALUE,,AUTO

      404     7078    2             IF S_D.ANLZ_FILE THEN CALL DUL$GETMVAL(VALUE.OPS(0), ADDRESS, SEG, DESC#,
              7078                      NOT_IS) ALTRET(L2);

   7078  2 001266   000000 470400 xsym               LDP0    S_D$
         2 001267   005052 234100                    SZN     2602,,PR0
         2 001270   001310 605000 2                  TPL     s:7079

   7078  2 001271   200023 631500                    EPPR1   NOT_IS,,AUTO
         2 001272   200142 451500                    STP1    PTR$+5,,AUTO
         2 001273   200022 633500                    EPPR3   DESC#,,AUTO
         2 001274   200141 453500                    STP3    PTR$+4,,AUTO
         2 001275   200021 634500                    EPPR4   SEG,,AUTO
         2 001276   200140 454500                    STP4    PTR$+3,,AUTO
         2 001277   200012 635500                    EPPR5   ADDRESS,,AUTO
         2 001300   200137 455500                    STP5    PTR$+2,,AUTO
         2 001301   200036 636500                    EPPR6   VALUE+1,,AUTO
         2 001302   200136 456500                    STP6    PTR$+1,,AUTO
         2 001303   200136 630500                    EPPR0   PTR$+1,,AUTO
         2 001304   000023 631400 xsym               EPPR1   B_VECTNIL+19
         2 001305   000000 701000 xent               TSX1    DUL$GETMVAL
PL6.E3A0      #001=DDA$DUMP File=DDA$DUMP.:E05TSI                                TUE 07/29/97 13:27 Page:67
         2 001306   001420 702000 2                  TSX2    L2
         2 001307   001351 710000 2                  TRA     s:7082

      405     7079    2             ELSE IF S_D.RUM THEN CALL DUU$GETMVAL (VALUE, NODE, ADDRESS, SEG,DESC#,
              7079                      NOT_IS) ALTRET(L2);

   7079  2 001310   004755 234100                    SZN     2541,,PR0
         2 001311   001333 605000 2                  TPL     s:7081

   7079  2 001312   200023 631500                    EPPR1   NOT_IS,,AUTO
         2 001313   200143 451500                    STP1    PTR$+6,,AUTO
         2 001314   200022 633500                    EPPR3   DESC#,,AUTO
         2 001315   200142 453500                    STP3    PTR$+5,,AUTO
         2 001316   200021 634500                    EPPR4   SEG,,AUTO
         2 001317   200141 454500                    STP4    PTR$+4,,AUTO
         2 001320   200012 635500                    EPPR5   ADDRESS,,AUTO
         2 001321   200140 455500                    STP5    PTR$+3,,AUTO
         2 001322   200112 636500                    EPPR6   NODE,,AUTO
         2 001323   200137 456500                    STP6    PTR$+2,,AUTO
         2 001324   200035 637500                    EPPR7   VALUE,,AUTO
         2 001325   200136 457500                    STP7    PTR$+1,,AUTO
         2 001326   200136 630500                    EPPR0   PTR$+1,,AUTO
         2 001327   000024 631400 xsym               EPPR1   B_VECTNIL+20
         2 001330   000000 701000 xent               TSX1    DUU$GETMVAL
         2 001331   001420 702000 2                  TSX2    L2
         2 001332   001351 710000 2                  TRA     s:7082

      406     7080    2                  ELSE
      407     7081    2                       CALL DDK$GETMVAL(VALUE.OPS(0), ADDRESS, SEG, DESC#, NOT_IS)
              7081                                ALTRET(L2);

   7081  2 001333   200023 631500                    EPPR1   NOT_IS,,AUTO
         2 001334   200142 451500                    STP1    PTR$+5,,AUTO
         2 001335   200022 633500                    EPPR3   DESC#,,AUTO
         2 001336   200141 453500                    STP3    PTR$+4,,AUTO
         2 001337   200021 634500                    EPPR4   SEG,,AUTO
         2 001340   200140 454500                    STP4    PTR$+3,,AUTO
PL6.E3A0      #001=DDA$DUMP File=DDA$DUMP.:E05TSI                                TUE 07/29/97 13:27 Page:68
         2 001341   200012 635500                    EPPR5   ADDRESS,,AUTO
         2 001342   200137 455500                    STP5    PTR$+2,,AUTO
         2 001343   200036 636500                    EPPR6   VALUE+1,,AUTO
         2 001344   200136 456500                    STP6    PTR$+1,,AUTO
         2 001345   200136 630500                    EPPR0   PTR$+1,,AUTO
         2 001346   000023 631400 xsym               EPPR1   B_VECTNIL+19
         2 001347   000000 701000 xent               TSX1    DDK$GETMVAL
         2 001350   001420 702000 2                  TSX2    L2

      408     7082    2             OFFSET = ADDRESS;             /* We got one */

   7082  2 001351   200012 235100                    LDA     ADDRESS,,AUTO
         2 001352   200062 755100                    STA     OFFSET,,AUTO

      409     7083    2             J = 0;

   7083  2 001353   200107 450100                    STZ     J,,AUTO

      410     7084    2             SAVE_VALUE = VALUE.OPS(0);

   7084  2 001354   200036 236100                    LDQ     VALUE+1,,AUTO
         2 001355   200105 756100                    STQ     SAVE_VALUE,,AUTO

      411     7085    3             DO I = 0 TO 31;

   7085  2 001356   200014 450100                    STZ     I,,AUTO

      412     7086    3                  DATA_VAL (I) = BLANK;

   7086  2 001357   200014 235100                    LDA     I,,AUTO
         2 001360   000105 101500                    MRL     fill='000'O
         2 001361   200104 000004                    ADSC9   BLANK,,AUTO              cn=0,n=4
         2 001362   200064 000001                    ADSC9   DATA,A,AUTO              cn=0,n=1

      413     7087    3                  SAVE_DATA_VAL (I) = BLANK;

   7087  2 001363   000105 101500                    MRL     fill='000'O
PL6.E3A0      #001=DDA$DUMP File=DDA$DUMP.:E05TSI                                TUE 07/29/97 13:27 Page:69
         2 001364   200104 000004                    ADSC9   BLANK,,AUTO              cn=0,n=4
         2 001365   200074 000001                    ADSC9   SAVE_DATA,A,AUTO         cn=0,n=1

      414     7088    3                END;

   7088  2 001366   000001 035007                    ADLA    1,DL
         2 001367   200014 755100                    STA     I,,AUTO
         2 001370   000040 115007                    CMPA    32,DL
         2 001371   001357 602000 2                  TNC     s:7086

      415     7089    2             OFFSET_SAVE = -1;

   7089  2 001372   000001 336007                    LCQ     1,DL
         2 001373   200106 756100                    STQ     OFFSET_SAVE,,AUTO

      416     7090    2             SAME_COUNT = 0;

   7090  2 001374   200114 450100                    STZ     SAME_COUNT,,AUTO

      417     7091    2             IF LONG_FLAG

   7091  2 001375   200032 234100                    SZN     LONG_FLAG,,AUTO
         2 001376   001401 605000 2                  TPL     s:7093

      418     7092    2             THEN CHECK_DUP = '0'B;

   7092  2 001377   200115 450100                    STZ     CHECK_DUP,,AUTO
         2 001400   001403 710000 2                  TRA     s:7094

      419     7093    2             ELSE CHECK_DUP = '1'B;

   7093  2 001401   400000 236003                    LDQ     -131072,DU
         2 001402   200115 756100                    STQ     CHECK_DUP,,AUTO

      420     7094    2             S_D.OUTPUT = '(missing page(s))';

   7094  2 001403   000000 470400 xsym               LDP0    S_D$
PL6.E3A0      #001=DDA$DUMP File=DDA$DUMP.:E05TSI                                TUE 07/29/97 13:27 Page:70
         2 001404   040100 100400                    MLR     fill='040'O
         2 001405   000010 000021 1                  ADSC9   HEXCHARS+4               cn=0,n=17
         2 001406   005335 004000                    ADSC9   2781,,PR0                cn=0,n=2048

      421     7095    2             CALL DDQ$WRITED(OUTPUT$, 17);

   7095  2 001407   000005 236000 3                  LDQ     5
         2 001410   200137 756100                    STQ     PTR$+2,,AUTO
         2 001411   200113 631500                    EPPR1   OUTPUT$,,AUTO
         2 001412   200136 451500                    STP1    PTR$+1,,AUTO
         2 001413   200136 630500                    EPPR0   PTR$+1,,AUTO
         2 001414   000020 631400 xsym               EPPR1   B_VECTNIL+16
         2 001415   000000 701000 xent               TSX1    DDQ$WRITED
         2 001416   000000 011000                    NOP     0

      422     7096    2             GOTO LOOP_TOP;                /* Re-enter loop */

   7096  2 001417   000765 710000 2                  TRA     LOOP_TOP

      423     7097    2   L2:       IF S_D.ERROR = 76 OR S_D.ERROR = 147 /* E@NOPAGE E@ANLZ_PAGENOTDUMPED */

   7097  2 001420   000000 470400 xsym  L2           LDP0    S_D$
         2 001421   000013 235100                    LDA     11,,PR0
         2 001422   000114 115007                    CMPA    76,DL
         2 001423   001225 600000 2                  TZE     L1
         2 001424   000223 115007                    CMPA    147,DL
         2 001425   001225 600000 2                  TZE     L1

      424     7098    2             THEN GOTO L1;
      425     7099    2             ELSE GOTO L5;

   7099  2 001426   001242 710000 2                  TRA     L5

   7099  2 001427                       CLEAN_RETURN null
      426     7100    2           END;
      427     7101                                                /**/
      428     7102                                                /**/
PL6.E3A0      #001=DDA$DUMP File=DDA$DUMP.:E05TSI                                TUE 07/29/97 13:27 Page:71
      429     7103    1   CLEAN_RETURN: ;               /* Reset out device, altret if error pending */
      430     7104                                                /**/
      431     7105    1        S_D.OUT_WIDTH = SAVE_WIDTH;

   7105  2 001427   200057 235100                    LDA     SAVE_WIDTH,,AUTO
         2 001430   000000 470400 xsym               LDP0    S_D$
         2 001431   000014 755100                    STA     12,,PR0

      432     7106    1        IF S_D.ERROR = 68          /*E@OUTOFSEG*/

   7106  2 001432   000013 235100                    LDA     11,,PR0
         2 001433   000104 115007                    CMPA    68,DL
         2 001434   001452 601000 2                  TNZ     s:7112

      433     7107    2        THEN DO;

      434     7108    2             S_D.OUTPUT = 'Access out of segment';

   7108  2 001435   040100 100400                    MLR     fill='040'O
         2 001436   000015 000025 1                  ADSC9   HEXCHARS+9               cn=0,n=21
         2 001437   005335 004000                    ADSC9   2781,,PR0                cn=0,n=2048

      435     7109    2             CALL DDQ$WRITED (OUTPUT$,21);

   7109  2 001440   000010 236000 3                  LDQ     8
         2 001441   200137 756100                    STQ     PTR$+2,,AUTO
         2 001442   200113 631500                    EPPR1   OUTPUT$,,AUTO
         2 001443   200136 451500                    STP1    PTR$+1,,AUTO
         2 001444   200136 630500                    EPPR0   PTR$+1,,AUTO
         2 001445   000020 631400 xsym               EPPR1   B_VECTNIL+16
         2 001446   000000 701000 xent               TSX1    DDQ$WRITED
         2 001447   000000 011000                    NOP     0

      436     7110    2             S_D.ERROR = 0;

   7110  2 001450   000000 470400 xsym               LDP0    S_D$
         2 001451   000013 450100                    STZ     11,,PR0
PL6.E3A0      #001=DDA$DUMP File=DDA$DUMP.:E05TSI                                TUE 07/29/97 13:27 Page:72

      437     7111    2           END;

      438     7112    1        IF D_XDELTA THEN OUT_DEV = SAVE_DCTX;

   7112  2 001452   000000 234000 xsym               SZN     D_XDELTA
         2 001453   001457 605000 2                  TPL     s:7113

   7112  2 001454   200056 235100                    LDA     SAVE_DCTX,,AUTO
         2 001455   000000 755000 xsym               STA     OUT_DEV
         2 001456   001464 710000 2                  TRA     s:7114

      439     7113    1        ELSE IF MUST_CALL_CLOSE THEN CALL DUA$CLOSEDUMP;

   7113  2 001457   200033 234100                    SZN     MUST_CALL_CLOSE,,AUTO
         2 001460   001464 605000 2                  TPL     s:7114

   7113  2 001461   000002 631400 xsym               EPPR1   B_VECTNIL+2
         2 001462   000000 701000 xent               TSX1    DUA$CLOSEDUMP
         2 001463   000000 011000                    NOP     0

      440     7114    1        IF S_D.ERROR = 0 THEN RETURN;

   7114  2 001464   000000 470400 xsym               LDP0    S_D$
         2 001465   000013 235100                    LDA     11,,PR0
         2 001466   001470 601000 2                  TNZ     s:7115

   7114  2 001467   000000 702200 xent               TSX2  ! X66_ARET

      441     7115    1        ALTRETURN;

   7115  2 001470   000000 702200 xent               TSX2  ! X66_AALT

   7114  2 001471                       ALT_CHECK    null
      442     7116    1   ALT_CHECK: ;                       /* Dont report error if dump-len is seg */
      443     7117    1        MISSING_PAGE_FLAG = '0'B;

PL6.E3A0      #001=DDA$DUMP File=DDA$DUMP.:E05TSI                                TUE 07/29/97 13:27 Page:73
   7117  2 001471   200034 450100                    STZ     MISSING_PAGE_FLAG,,AUTO

      444     7118    1        IF S_D.ERROR = 213  /* E@NIHEAD */ AND

   7118  2 001472   000000 470400 xsym               LDP0    S_D$
         2 001473   000013 235100                    LDA     11,,PR0
         2 001474   000325 115007                    CMPA    213,DL
         2 001475   001502 601000 2                  TNZ     s:7124
         2 001476   005247 234100                    SZN     2727,,PR0
         2 001477   001502 605000 2                  TPL     s:7124

      445     7119    1          S_D.DUMP_HEAD
      446     7120    2        THEN DO;

      447     7121    2             S_D.ERROR = 0;

   7121  2 001500   000013 450100                    STZ     11,,PR0

      448     7122    2             GOTO CLEAN_RETURN;

   7122  2 001501   001427 710000 2                  TRA     CLEAN_RETURN

      449     7123    2           END;
      450     7124    1        IF S_D.ERROR = 76 OR S_D.ERROR = 147 /*E@NOPAGE, E@ANLZ_PAGENOTDUMPED*/

   7124  2 001502   000114 115007                    CMPA    76,DL
         2 001503   001506 600000 2                  TZE     s:7126
         2 001504   000223 115007                    CMPA    147,DL
         2 001505   001513 601000 2                  TNZ     s:7129

      451     7125    2        THEN DO;

      452     7126    2             MISSING_PAGE_FLAG = '1'B;

   7126  2 001506   400000 236003                    LDQ     -131072,DU
         2 001507   200034 756100                    STQ     MISSING_PAGE_FLAG,,AUTO

PL6.E3A0      #001=DDA$DUMP File=DDA$DUMP.:E05TSI                                TUE 07/29/97 13:27 Page:74
      453     7127    2             SAVE_ADDRESS = ADDRESS;

   7127  2 001510   200012 235100                    LDA     ADDRESS,,AUTO
         2 001511   200060 755100                    STA     SAVE_ADDRESS,,AUTO

      454     7128    2           END;

   7128  2 001512   001517 710000 2                  TRA     s:7131

      455     7129    1        ELSE IF NUM_WORDS = 17000000/*DD_BIGNUM*/

   7129  2 001513   200024 236100                    LDQ     NUM_WORDS,,AUTO
         2 001514   000006 116000 3                  CMPQ    6
         2 001515   001517 601000 2                  TNZ     s:7131

      456     7130    1             THEN S_D.ERROR = 0;      /* Don't report errors on segment dumps */

   7130  2 001516   000013 450100                    STZ     11,,PR0

      457     7131    1        GOTO LAST_TIME;

   7131  2 001517   001166 710000 2                  TRA     LAST_TIME

      458     7132        %EJECT;
PL6.E3A0      #001=DDA$DUMP File=DDA$DUMP.:E05TSI                                TUE 07/29/97 13:27 Page:75
      459     7133        /*D*  NAME: SAME_OUT
      460     7134              DESCRIPTION:  PRINT 'DUP-START THRU DUP-END  DUP-VALUE' */
      461     7135    1   SAME_OUT: PROC;

   7135  2 001520   200126 741300       SAME_OUT     STX1  ! CHAR_HOLD+8,,AUTO

      462     7136    3        IF OFFSET_SAVE + MAX_CELL = OFFSET THEN DO; /* Only one line */

   7136  2 001521   200106 236100                    LDQ     OFFSET_SAVE,,AUTO
         2 001522   200016 036100                    ADLQ    MAX_CELL,,AUTO
         2 001523   001540 604000 2                  TMI     s:7143
         2 001524   200062 116100                    CMPQ    OFFSET,,AUTO
         2 001525   001540 601000 2                  TNZ     s:7143

      463     7137    3             SAVE_CALLED = '1'B;

   7137  2 001526   400000 236003                    LDQ     -131072,DU
         2 001527   200025 756100                    STQ     SAVE_CALLED,,AUTO

      464     7138    3             CALL LINE_OUT;

   7138  2 001530   002000 701000 2                  TSX1    LINE_OUT
         2 001531   000000 011000                    NOP     0

      465     7139    3             SAVE_CALLED = '0'B;

   7139  2 001532   200025 450100                    STZ     SAVE_CALLED,,AUTO

      466     7140    3             OFFSET_SAVE = OFFSET-1;

   7140  2 001533   200062 235100                    LDA     OFFSET,,AUTO
         2 001534   000001 135007                    SBLA    1,DL
         2 001535   200106 755100                    STA     OFFSET_SAVE,,AUTO

      467     7141    3             RETURN;

   7141  2 001536   200126 221300                    LDX1  ! CHAR_HOLD+8,,AUTO
PL6.E3A0      #001=DDA$DUMP File=DDA$DUMP.:E05TSI                                TUE 07/29/97 13:27 Page:76
         2 001537   000001 702211                    TSX2  ! 1,X1

      468     7142    3           END;
      469     7143    2        S_D.D$ = OUTPUT$;

   7143  2 001540   200113 236100                    LDQ     OUTPUT$,,AUTO
         2 001541   000000 470400 xsym               LDP0    S_D$
         2 001542   000044 756100                    STQ     36,,PR0

      470     7144    2        S_D.DESCL$ = PINCRC(S_D.D$, SIZEC(S_D.OUTPUT));

   7144  2 001543   001000 036003                    ADLQ    512,DU
         2 001544   000042 756100                    STQ     34,,PR0

      471     7145    2        S_D.OUTPUT = ' ';

   7145  2 001545   040100 100400                    MLR     fill='040'O
         2 001546   000035 000001 xsym               ADSC9   B_VECTNIL+29             cn=0,n=1
         2 001547   005335 004000                    ADSC9   2781,,PR0                cn=0,n=2048

      472     7146    2        IF NOT S_D.DUMP_HEAD

   7146  2 001550   005247 234100                    SZN     2727,,PR0
         2 001551   001571 604000 2                  TMI     s:7148

      473     7147    2        THEN CALL DDR$BINTXT(ADDR(CHAR_HOLD),OFFSET_SAVE,%OCT_FMT,SIZE);

   7147  2 001552   200116 631500                    EPPR1   CHAR_HOLD,,AUTO
         2 001553   200136 451500                    STP1    PTR$+1,,AUTO
         2 001554   200061 633500                    EPPR3   SIZE,,AUTO
         2 001555   200143 453500                    STP3    PTR$+6,,AUTO
         2 001556   000011 236000 3                  LDQ     9
         2 001557   200142 756100                    STQ     PTR$+5,,AUTO
         2 001560   200106 634500                    EPPR4   OFFSET_SAVE,,AUTO
         2 001561   200141 454500                    STP4    PTR$+4,,AUTO
         2 001562   200136 635500                    EPPR5   PTR$+1,,AUTO
         2 001563   200140 455500                    STP5    PTR$+3,,AUTO
PL6.E3A0      #001=DDA$DUMP File=DDA$DUMP.:E05TSI                                TUE 07/29/97 13:27 Page:77
         2 001564   200140 630500                    EPPR0   PTR$+3,,AUTO
         2 001565   000022 631400 xsym               EPPR1   B_VECTNIL+18
         2 001566   000000 701000 xent               TSX1    DDR$BINTXT
         2 001567   000000 011000                    NOP     0
         2 001570   001607 710000 2                  TRA     s:7149

      474     7148    2        ELSE CALL DDR$BINTXT(ADDR(CHAR_HOLD),OFFSET_SAVE,%X_FMT,SIZE);

   7148  2 001571   200116 631500                    EPPR1   CHAR_HOLD,,AUTO
         2 001572   200136 451500                    STP1    PTR$+1,,AUTO
         2 001573   200061 633500                    EPPR3   SIZE,,AUTO
         2 001574   200143 453500                    STP3    PTR$+6,,AUTO
         2 001575   000013 236000 3                  LDQ     11
         2 001576   200142 756100                    STQ     PTR$+5,,AUTO
         2 001577   200106 634500                    EPPR4   OFFSET_SAVE,,AUTO
         2 001600   200141 454500                    STP4    PTR$+4,,AUTO
         2 001601   200136 635500                    EPPR5   PTR$+1,,AUTO
         2 001602   200140 455500                    STP5    PTR$+3,,AUTO
         2 001603   200140 630500                    EPPR0   PTR$+3,,AUTO
         2 001604   000022 631400 xsym               EPPR1   B_VECTNIL+18
         2 001605   000000 701000 xent               TSX1    DDR$BINTXT
         2 001606   000000 011000                    NOP     0

      475     7149    2        S_D.D$ = PINCRC(OUTPUT$,9-SIZE);   /* Right justify */

   7149  2 001607   000011 236007                    LDQ     9,DL
         2 001610   200061 136100                    SBLQ    SIZE,,AUTO
         2 001611   000020 736000                    QLS     16
         2 001612   200113 036100                    ADLQ    OUTPUT$,,AUTO
         2 001613   000000 470400 xsym               LDP0    S_D$
         2 001614   000044 756100                    STQ     36,,PR0

      476     7150    2        S_D.D$->CHAR9 = CHAR_HOLD;

   7150  2 001615   000044 471500                    LDP1    36,,PR0
         2 001616   200061 720100                    LXL0    SIZE,,AUTO
         2 001617   040140 100500                    MLR     fill='040'O
PL6.E3A0      #001=DDA$DUMP File=DDA$DUMP.:E05TSI                                TUE 07/29/97 13:27 Page:78
         2 001620   200116 000014                    ADSC9   CHAR_HOLD,,AUTO          cn=0,n=12
         2 001621   100000 000010                    ADSC9   0,,PR1                   cn=0,n=*X0

      477     7151    2        S_D.D$ = PINCRC(S_D.D$, SIZE);

   7151  2 001622   000044 471500                    LDP1    36,,PR0
         2 001623   200061 236100                    LDQ     SIZE,,AUTO
         2 001624   000011 402007                    MPY     9,DL
         2 001625   100000 503506                    ABD     0,QL,PR1
         2 001626   000044 451500                    STP1    36,,PR0

      478     7152    2        OFFSET_SAVE = OFFSET - 1;

   7152  2 001627   200062 235100                    LDA     OFFSET,,AUTO
         2 001630   000001 135007                    SBLA    1,DL
         2 001631   200106 755100                    STA     OFFSET_SAVE,,AUTO

      479     7153    2        S_D.D$->CHAR6 = ' THRU ';

   7153  2 001632   000044 471500                    LDP1    36,,PR0
         2 001633   040100 100400                    MLR     fill='040'O
         2 001634   000023 000006 1                  ADSC9   HEXCHARS+15              cn=0,n=6
         2 001635   100000 000006                    ADSC9   0,,PR1                   cn=0,n=6

      480     7154    2        S_D.D$ = PINCRC(S_D.D$, 6);

   7154  2 001636   000044 236100                    LDQ     36,,PR0
         2 001637   000014 036000 3                  ADLQ    12
         2 001640   000044 756100                    STQ     36,,PR0

      481     7155    2        IF NOT S_D.DUMP_HEAD

   7155  2 001641   005247 234100                    SZN     2727,,PR0
         2 001642   001654 604000 2                  TMI     s:7157

      482     7156    2        THEN CALL DDA$DISPFMT(%OCT_FMT,36,OFFSET_SAVE); /* 'DUP-END' */

PL6.E3A0      #001=DDA$DUMP File=DDA$DUMP.:E05TSI                                TUE 07/29/97 13:27 Page:79
   7156  2 001643   200106 631500                    EPPR1   OFFSET_SAVE,,AUTO
         2 001644   200140 451500                    STP1    PTR$+3,,AUTO
         2 001645   000016 237000 3                  LDAQ    14
         2 001646   200136 757100                    STAQ    PTR$+1,,AUTO
         2 001647   200136 630500                    EPPR0   PTR$+1,,AUTO
         2 001650   000021 631400 xsym               EPPR1   B_VECTNIL+17
         2 001651   000000 701000 xent               TSX1    DDA$DISPFMT
         2 001652   000000 011000                    NOP     0
         2 001653   001664 710000 2                  TRA     s:7158

      483     7157    2        ELSE CALL DDA$DISPFMT(%X_FMT,16,OFFSET_SAVE); /* 'DUP-END' */

   7157  2 001654   200106 631500                    EPPR1   OFFSET_SAVE,,AUTO
         2 001655   200140 451500                    STP1    PTR$+3,,AUTO
         2 001656   000020 237000 3                  LDAQ    16
         2 001657   200136 757100                    STAQ    PTR$+1,,AUTO
         2 001660   200136 630500                    EPPR0   PTR$+1,,AUTO
         2 001661   000021 631400 xsym               EPPR1   B_VECTNIL+17
         2 001662   000000 701000 xent               TSX1    DDA$DISPFMT
         2 001663   000000 011000                    NOP     0

      484     7158    2        S_D.D$ = PINCRC(S_D.D$, 2);

   7158  2 001664   000000 470400 xsym               LDP0    S_D$
         2 001665   000044 236100                    LDQ     36,,PR0
         2 001666   400000 036007                    ADLQ    -131072,DL
         2 001667   000044 756100                    STQ     36,,PR0

      485     7159                                                /* Convert value to display format */
      486     7160    2        IF X_FLAG OR H_FLAG THEN

   7160  2 001670   200027 234100                    SZN     X_FLAG,,AUTO
         2 001671   001674 604000 2                  TMI     s:7162
         2 001672   200030 234100                    SZN     H_FLAG,,AUTO
         2 001673   001714 605000 2                  TPL     s:7169

      487     7161    3        DO;
PL6.E3A0      #001=DDA$DUMP File=DDA$DUMP.:E05TSI                                TUE 07/29/97 13:27 Page:80

      488     7162    3             IF X_FLAG THEN

   7162  2 001674   200027 234100                    SZN     X_FLAG,,AUTO
         2 001675   001703 605000 2                  TPL     s:7165

      489     7163    3                  CALL HEXOUT(SAVE_VALUE);

   7163  2 001676   200105 631500                    EPPR1   SAVE_VALUE,,AUTO
         2 001677   200133 451500                    STP1    CHAR_HOLD+13,,AUTO
         2 001700   002350 701000 2                  TSX1    HEXOUT
         2 001701   000000 011000                    NOP     0
         2 001702   001707 710000 2                  TRA     s:7166

      490     7164    3             ELSE
      491     7165    3                  CALL HEX_9_OUT(SAVE_VALUE);

   7165  2 001703   200105 631500                    EPPR1   SAVE_VALUE,,AUTO
         2 001704   200133 451500                    STP1    CHAR_HOLD+13,,AUTO
         2 001705   002417 701000 2                  TSX1    HEX_9_OUT
         2 001706   000000 011000                    NOP     0

      492     7166    3             S_D.D$ = PINCRC(S_D.D$, 12);

   7166  2 001707   000000 470400 xsym               LDP0    S_D$
         2 001710   000044 236100                    LDQ     36,,PR0
         2 001711   000003 036003                    ADLQ    3,DU
         2 001712   000044 756100                    STQ     36,,PR0

      493     7167    3           END;

   7167  2 001713   001730 710000 2                  TRA     s:7172

      494     7168    3        ELSE DO;

      495     7169    3             CALL DDR$BINOCT(S_D.D$->OTEXT,SAVE_VALUE);

PL6.E3A0      #001=DDA$DUMP File=DDA$DUMP.:E05TSI                                TUE 07/29/97 13:27 Page:81
   7169  2 001714   000044 471500                    LDP1    36,,PR0
         2 001715   200105 633500                    EPPR3   SAVE_VALUE,,AUTO
         2 001716   200137 453500                    STP3    PTR$+2,,AUTO
         2 001717   200136 451500                    STP1    PTR$+1,,AUTO
         2 001720   200136 630500                    EPPR0   PTR$+1,,AUTO
         2 001721   000020 631400 xsym               EPPR1   B_VECTNIL+16
         2 001722   000000 701000 xent               TSX1    DDR$BINOCT
         2 001723   000000 011000                    NOP     0

      496     7170    3             S_D.D$ = PINCRC(S_D.D$, 16);

   7170  2 001724   000000 470400 xsym               LDP0    S_D$
         2 001725   000044 236100                    LDQ     36,,PR0
         2 001726   000004 036003                    ADLQ    4,DU
         2 001727   000044 756100                    STQ     36,,PR0

      497     7171    3           END;

      498     7172    3        IF C_FLAG THEN DO;

   7172  2 001730   200026 234100                    SZN     C_FLAG,,AUTO
         2 001731   001744 605000 2                  TPL     s:7176

      499     7173    3             CALL XLATE(S_D.D$->CHAR32,T_TABLE,SAVE_VALUE_CHAR);

   7173  2 001732   000044 471500                    LDP1    36,,PR0
         2 001733   000000 473400 xsym               LDP3    B$XL_ASC_DUMP$
         2 001734   040100 160500                    MVT     fill='040'O
         2 001735   200105 000004                    ADSC9   SAVE_VALUE,,AUTO         cn=0,n=4
         2 001736   100000 000040                    ADSC9   0,,PR1                   cn=0,n=32
         2 001737   300000 000100                    ARG     0,,PR3

      500     7174    3             S_D.D$=PINCRC(S_D.D$,4);

   7174  2 001740   000044 236100                    LDQ     36,,PR0
         2 001741   000001 036003                    ADLQ    1,DU
         2 001742   000044 756100                    STQ     36,,PR0
PL6.E3A0      #001=DDA$DUMP File=DDA$DUMP.:E05TSI                                TUE 07/29/97 13:27 Page:82

      501     7175    3           END;

   7175  2 001743   001757 710000 2                  TRA     s:7181

      502     7176    2        ELSE IF EB_FLAG

   7176  2 001744   200031 234100                    SZN     EB_FLAG,,AUTO
         2 001745   001757 605000 2                  TPL     s:7181

      503     7177    3             THEN DO;

      504     7178    3                 CALL XLATE ( S_D.D$ -> CHAR32, EBCDIC_XLATE_TABLE, SAVE_VALUE_CHAR );

   7178  2 001746   000044 471500                    LDP1    36,,PR0
         2 001747   000000 473400 xsym               LDP3    B$XL_EBC_DUMP$
         2 001750   040100 160500                    MVT     fill='040'O
         2 001751   200105 000004                    ADSC9   SAVE_VALUE,,AUTO         cn=0,n=4
         2 001752   100000 000040                    ADSC9   0,,PR1                   cn=0,n=32
         2 001753   300000 000100                    ARG     0,,PR3

      505     7179    3                  S_D.D$ = PINCRC ( S_D.D$, 4 );

   7179  2 001754   000044 236100                    LDQ     36,,PR0
         2 001755   000001 036003                    ADLQ    1,DU
         2 001756   000044 756100                    STQ     36,,PR0

      506     7180    3                END;

      507     7181    2        CALL DDQ$WRITED(OUTPUT$,POFFC(S_D.D$,OUTPUT$));

   7181  2 001757   200113 236100                    LDQ     OUTPUT$,,AUTO
         2 001760   000020 772000                    QRL     16
         2 001761   200136 756100                    STQ     PTR$+1,,AUTO
         2 001762   000044 236100                    LDQ     36,,PR0
         2 001763   000020 772000                    QRL     16
         2 001764   200136 136100                    SBLQ    PTR$+1,,AUTO
PL6.E3A0      #001=DDA$DUMP File=DDA$DUMP.:E05TSI                                TUE 07/29/97 13:27 Page:83
         2 001765   200137 756100                    STQ     PTR$+2,,AUTO
         2 001766   200137 631500                    EPPR1   PTR$+2,,AUTO
         2 001767   200141 451500                    STP1    PTR$+4,,AUTO
         2 001770   200113 633500                    EPPR3   OUTPUT$,,AUTO
         2 001771   200140 453500                    STP3    PTR$+3,,AUTO
         2 001772   200140 630500                    EPPR0   PTR$+3,,AUTO
         2 001773   000020 631400 xsym               EPPR1   B_VECTNIL+16
         2 001774   000000 701000 xent               TSX1    DDQ$WRITED
         2 001775   000000 011000                    NOP     0

      508     7182    2        RETURN;

   7182  2 001776   200126 221300                    LDX1  ! CHAR_HOLD+8,,AUTO
         2 001777   000001 702211                    TSX2  ! 1,X1

      509     7183    2   END SAME_OUT;
      510     7184        %EJECT;
PL6.E3A0      #001=DDA$DUMP File=DDA$DUMP.:E05TSI                                TUE 07/29/97 13:27 Page:84
      511     7185        /*D*  NAME: LINE_OUT
      512     7186              DESCRIPTION:  FORMAT AND PRINT ONE DUMP LINE.  */
      513     7187    1   LINE_OUT: PROC;

   7187  2 002000   200130 741300       LINE_OUT     STX1  ! CHAR_HOLD+10,,AUTO

      514     7188    2        S_D.OUTPUT = ' ';

   7188  2 002001   000000 470400 xsym               LDP0    S_D$
         2 002002   040100 100400                    MLR     fill='040'O
         2 002003   000035 000001 xsym               ADSC9   B_VECTNIL+29             cn=0,n=1
         2 002004   005335 004000                    ADSC9   2781,,PR0                cn=0,n=2048

      515     7189    2        IF SAVE_CALLED

   7189  2 002005   200025 234100                    SZN     SAVE_CALLED,,AUTO
         2 002006   002047 605000 2                  TPL     s:7196

      516     7190    3        THEN DO;

      517     7191    3             IF NOT S_D.DUMP_HEAD

   7191  2 002007   005247 234100                    SZN     2727,,PR0
         2 002010   002030 604000 2                  TMI     s:7193

      518     7192    3             THEN CALL DDR$BINTXT (ADDR(CHAR_HOLD),OFFSET_SAVE,%OCT_FMT,SIZE);

   7192  2 002011   200116 631500                    EPPR1   CHAR_HOLD,,AUTO
         2 002012   200136 451500                    STP1    PTR$+1,,AUTO
         2 002013   200061 633500                    EPPR3   SIZE,,AUTO
         2 002014   200143 453500                    STP3    PTR$+6,,AUTO
         2 002015   000011 236000 3                  LDQ     9
         2 002016   200142 756100                    STQ     PTR$+5,,AUTO
         2 002017   200106 634500                    EPPR4   OFFSET_SAVE,,AUTO
         2 002020   200141 454500                    STP4    PTR$+4,,AUTO
         2 002021   200136 635500                    EPPR5   PTR$+1,,AUTO
         2 002022   200140 455500                    STP5    PTR$+3,,AUTO
PL6.E3A0      #001=DDA$DUMP File=DDA$DUMP.:E05TSI                                TUE 07/29/97 13:27 Page:85
         2 002023   200140 630500                    EPPR0   PTR$+3,,AUTO
         2 002024   000022 631400 xsym               EPPR1   B_VECTNIL+18
         2 002025   000000 701000 xent               TSX1    DDR$BINTXT
         2 002026   000000 011000                    NOP     0
         2 002027   002106 710000 2                  TRA     s:7200

      519     7193    3             ELSE CALL DDR$BINTXT (ADDR(CHAR_HOLD),OFFSET_SAVE,%X_FMT,SIZE);

   7193  2 002030   200116 631500                    EPPR1   CHAR_HOLD,,AUTO
         2 002031   200136 451500                    STP1    PTR$+1,,AUTO
         2 002032   200061 633500                    EPPR3   SIZE,,AUTO
         2 002033   200143 453500                    STP3    PTR$+6,,AUTO
         2 002034   000013 236000 3                  LDQ     11
         2 002035   200142 756100                    STQ     PTR$+5,,AUTO
         2 002036   200106 634500                    EPPR4   OFFSET_SAVE,,AUTO
         2 002037   200141 454500                    STP4    PTR$+4,,AUTO
         2 002040   200136 635500                    EPPR5   PTR$+1,,AUTO
         2 002041   200140 455500                    STP5    PTR$+3,,AUTO
         2 002042   200140 630500                    EPPR0   PTR$+3,,AUTO
         2 002043   000022 631400 xsym               EPPR1   B_VECTNIL+18
         2 002044   000000 701000 xent               TSX1    DDR$BINTXT
         2 002045   000000 011000                    NOP     0

      520     7194    3           END;

   7194  2 002046   002106 710000 2                  TRA     s:7200

      521     7195    3        ELSE DO;

      522     7196    3             IF NOT S_D.DUMP_HEAD

   7196  2 002047   005247 234100                    SZN     2727,,PR0
         2 002050   002070 604000 2                  TMI     s:7198

      523     7197    3             THEN CALL DDR$BINTXT(ADDR(CHAR_HOLD),OFFSET,%OCT_FMT,SIZE);

   7197  2 002051   200116 631500                    EPPR1   CHAR_HOLD,,AUTO
PL6.E3A0      #001=DDA$DUMP File=DDA$DUMP.:E05TSI                                TUE 07/29/97 13:27 Page:86
         2 002052   200136 451500                    STP1    PTR$+1,,AUTO
         2 002053   200061 633500                    EPPR3   SIZE,,AUTO
         2 002054   200143 453500                    STP3    PTR$+6,,AUTO
         2 002055   000011 236000 3                  LDQ     9
         2 002056   200142 756100                    STQ     PTR$+5,,AUTO
         2 002057   200062 634500                    EPPR4   OFFSET,,AUTO
         2 002060   200141 454500                    STP4    PTR$+4,,AUTO
         2 002061   200136 635500                    EPPR5   PTR$+1,,AUTO
         2 002062   200140 455500                    STP5    PTR$+3,,AUTO
         2 002063   200140 630500                    EPPR0   PTR$+3,,AUTO
         2 002064   000022 631400 xsym               EPPR1   B_VECTNIL+18
         2 002065   000000 701000 xent               TSX1    DDR$BINTXT
         2 002066   000000 011000                    NOP     0
         2 002067   002106 710000 2                  TRA     s:7200

      524     7198    3             ELSE CALL DDR$BINTXT(ADDR(CHAR_HOLD),OFFSET,%X_FMT,SIZE);

   7198  2 002070   200116 631500                    EPPR1   CHAR_HOLD,,AUTO
         2 002071   200136 451500                    STP1    PTR$+1,,AUTO
         2 002072   200061 633500                    EPPR3   SIZE,,AUTO
         2 002073   200143 453500                    STP3    PTR$+6,,AUTO
         2 002074   000013 236000 3                  LDQ     11
         2 002075   200142 756100                    STQ     PTR$+5,,AUTO
         2 002076   200062 634500                    EPPR4   OFFSET,,AUTO
         2 002077   200141 454500                    STP4    PTR$+4,,AUTO
         2 002100   200136 635500                    EPPR5   PTR$+1,,AUTO
         2 002101   200140 455500                    STP5    PTR$+3,,AUTO
         2 002102   200140 630500                    EPPR0   PTR$+3,,AUTO
         2 002103   000022 631400 xsym               EPPR1   B_VECTNIL+18
         2 002104   000000 701000 xent               TSX1    DDR$BINTXT
         2 002105   000000 011000                    NOP     0

      525     7199    3           END;

      526     7200    2        S_D.D$ = PINCRC(OUTPUT$,9-SIZE);   /*Place offset right just */

   7200  2 002106   000011 236007                    LDQ     9,DL
PL6.E3A0      #001=DDA$DUMP File=DDA$DUMP.:E05TSI                                TUE 07/29/97 13:27 Page:87
         2 002107   200061 136100                    SBLQ    SIZE,,AUTO
         2 002110   000020 736000                    QLS     16
         2 002111   200113 036100                    ADLQ    OUTPUT$,,AUTO
         2 002112   000000 470400 xsym               LDP0    S_D$
         2 002113   000044 756100                    STQ     36,,PR0

      527     7201    2        S_D.D$->CHAR9 = CHAR_HOLD;

   7201  2 002114   000044 471500                    LDP1    36,,PR0
         2 002115   200061 720100                    LXL0    SIZE,,AUTO
         2 002116   040140 100500                    MLR     fill='040'O
         2 002117   200116 000014                    ADSC9   CHAR_HOLD,,AUTO          cn=0,n=12
         2 002120   100000 000010                    ADSC9   0,,PR1                   cn=0,n=*X0

      528     7202    2        IF X_FLAG OR H_FLAG THEN

   7202  2 002121   200027 234100                    SZN     X_FLAG,,AUTO
         2 002122   002125 604000 2                  TMI     s:7203
         2 002123   200030 234100                    SZN     H_FLAG,,AUTO
         2 002124   002133 605000 2                  TPL     s:7205

      529     7203    2             S_D.D$ = PINCRC(OUTPUT$,11+J*10); /* J set before entering loop */

   7203  2 002125   200107 236100                    LDQ     J,,AUTO
         2 002126   000022 402000 3                  MPY     18
         2 002127   000023 036000 3                  ADLQ    19
         2 002130   200113 036100                    ADLQ    OUTPUT$,,AUTO
         2 002131   000044 756100                    STQ     36,,PR0
         2 002132   002140 710000 2                  TRA     s:7206

      530     7204    2        ELSE
      531     7205    2             S_D.D$ = PINCRC(OUTPUT$,11+J*13); /* J set before entering loop */

   7205  2 002133   200107 236100                    LDQ     J,,AUTO
         2 002134   000024 402000 3                  MPY     20
         2 002135   000023 036000 3                  ADLQ    19
         2 002136   200113 036100                    ADLQ    OUTPUT$,,AUTO
PL6.E3A0      #001=DDA$DUMP File=DDA$DUMP.:E05TSI                                TUE 07/29/97 13:27 Page:88
         2 002137   000044 756100                    STQ     36,,PR0

      532     7206    2        IF SAVE_CALLED THEN K = OFFSET-OFFSET_SAVE-1;

   7206  2 002140   200025 234100                    SZN     SAVE_CALLED,,AUTO
         2 002141   002147 605000 2                  TPL     s:7207

   7206  2 002142   200062 236100                    LDQ     OFFSET,,AUTO
         2 002143   200106 136100                    SBLQ    OFFSET_SAVE,,AUTO
         2 002144   000001 136007                    SBLQ    1,DL
         2 002145   200110 756100                    STQ     K,,AUTO
         2 002146   002153 710000 2                  TRA     s:7208

      533     7207    2        ELSE K = ADDRESS-OFFSET-1;

   7207  2 002147   200012 236100                    LDQ     ADDRESS,,AUTO
         2 002150   200062 136100                    SBLQ    OFFSET,,AUTO
         2 002151   000001 136007                    SBLQ    1,DL
         2 002152   200110 756100                    STQ     K,,AUTO

      534     7208    3        DO L = J TO K;

   7208  2 002153   200107 235100                    LDA     J,,AUTO
         2 002154   200111 755100                    STA     L,,AUTO
         2 002155   002234 710000 2                  TRA     s:7226+3

      535     7209    4             IF SAVE_CALLED THEN DO;

   7209  2 002156   200025 234100                    SZN     SAVE_CALLED,,AUTO
         2 002157   002165 605000 2                  TPL     s:7213

      536     7210    4                  SAVE_DATA(L) = SAVE_VALUE;

   7210  2 002160   200111 720100                    LXL0    L,,AUTO
         2 002161   200105 235100                    LDA     SAVE_VALUE,,AUTO
         2 002162   200074 755110                    STA     SAVE_DATA,X0,AUTO

PL6.E3A0      #001=DDA$DUMP File=DDA$DUMP.:E05TSI                                TUE 07/29/97 13:27 Page:89
      537     7211    4                  TEMP = SAVE_VALUE;

   7211  2 002163   200015 755100                    STA     TEMP,,AUTO

      538     7212    4                END;

   7212  2 002164   002170 710000 2                  TRA     s:7214

      539     7213    3             ELSE TEMP = DATA(L);

   7213  2 002165   200111 720100                    LXL0    L,,AUTO
         2 002166   200064 235110                    LDA     DATA,X0,AUTO
         2 002167   200015 755100                    STA     TEMP,,AUTO

      540     7214    3             IF X_FLAG OR H_FLAG THEN

   7214  2 002170   200027 234100                    SZN     X_FLAG,,AUTO
         2 002171   002174 604000 2                  TMI     s:7216
         2 002172   200030 234100                    SZN     H_FLAG,,AUTO
         2 002173   002214 605000 2                  TPL     s:7223

      541     7215    4             DO;

      542     7216    4                  IF X_FLAG THEN

   7216  2 002174   200027 234100                    SZN     X_FLAG,,AUTO
         2 002175   002203 605000 2                  TPL     s:7219

      543     7217    4                       CALL HEXOUT(TEMP);

   7217  2 002176   200015 630500                    EPPR0   TEMP,,AUTO
         2 002177   200133 450500                    STP0    CHAR_HOLD+13,,AUTO
         2 002200   002350 701000 2                  TSX1    HEXOUT
         2 002201   000000 011000                    NOP     0
         2 002202   002207 710000 2                  TRA     s:7220

      544     7218    4                  ELSE
PL6.E3A0      #001=DDA$DUMP File=DDA$DUMP.:E05TSI                                TUE 07/29/97 13:27 Page:90
      545     7219    4                       CALL HEX_9_OUT(TEMP);

   7219  2 002203   200015 630500                    EPPR0   TEMP,,AUTO
         2 002204   200133 450500                    STP0    CHAR_HOLD+13,,AUTO
         2 002205   002417 701000 2                  TSX1    HEX_9_OUT
         2 002206   000000 011000                    NOP     0

      546     7220    4                  S_D.D$ = PINCRC(S_D.D$, 10);

   7220  2 002207   000000 470400 xsym               LDP0    S_D$
         2 002210   000044 236100                    LDQ     36,,PR0
         2 002211   000022 036000 3                  ADLQ    18
         2 002212   000044 756100                    STQ     36,,PR0

      547     7221    4                END;

   7221  2 002213   002231 710000 2                  TRA     s:7226

      548     7222    4             ELSE DO;

      549     7223    4                  CALL DDR$BINOCT(S_D.D$->OTEXT, TEMP);

   7223  2 002214   000000 470400 xsym               LDP0    S_D$
         2 002215   000044 471500                    LDP1    36,,PR0
         2 002216   200015 633500                    EPPR3   TEMP,,AUTO
         2 002217   200137 453500                    STP3    PTR$+2,,AUTO
         2 002220   200136 451500                    STP1    PTR$+1,,AUTO
         2 002221   200136 630500                    EPPR0   PTR$+1,,AUTO
         2 002222   000020 631400 xsym               EPPR1   B_VECTNIL+16
         2 002223   000000 701000 xent               TSX1    DDR$BINOCT
         2 002224   000000 011000                    NOP     0

      550     7224    4                  S_D.D$ = PINCRC(S_D.D$, 13);

   7224  2 002225   000000 470400 xsym               LDP0    S_D$
         2 002226   000044 236100                    LDQ     36,,PR0
         2 002227   000024 036000 3                  ADLQ    20
PL6.E3A0      #001=DDA$DUMP File=DDA$DUMP.:E05TSI                                TUE 07/29/97 13:27 Page:91
         2 002230   000044 756100                    STQ     36,,PR0

      551     7225    4                END;

      552     7226    3           END;

   7226  2 002231   200111 235100                    LDA     L,,AUTO
         2 002232   000001 035007                    ADLA    1,DL
         2 002233   200111 755100                    STA     L,,AUTO
         2 002234   200110 236100                    LDQ     K,,AUTO
         2 002235   200111 116100                    CMPQ    L,,AUTO
         2 002236   002156 603000 2                  TRC     s:7209

      553     7227    2        IF C_FLAG OR EB_FLAG

   7227  2 002237   200026 234100                    SZN     C_FLAG,,AUTO
         2 002240   002243 604000 2                  TMI     s:7229
         2 002241   200031 234100                    SZN     EB_FLAG,,AUTO
         2 002242   002327 605000 2                  TPL     s:7240

      554     7228    3        THEN DO;

      555     7229    3             IF X_FLAG OR H_FLAG THEN S_D.D$ = PINCRC(OUTPUT$, 11+10*MAX_CELL);

   7229  2 002243   200027 234100                    SZN     X_FLAG,,AUTO
         2 002244   002247 604000 2                  TMI     s:7229+4
         2 002245   200030 234100                    SZN     H_FLAG,,AUTO
         2 002246   002255 605000 2                  TPL     s:7230

   7229  2 002247   200016 236100                    LDQ     MAX_CELL,,AUTO
         2 002250   000022 402000 3                  MPY     18
         2 002251   000023 036000 3                  ADLQ    19
         2 002252   200113 036100                    ADLQ    OUTPUT$,,AUTO
         2 002253   000044 756100                    STQ     36,,PR0
         2 002254   002262 710000 2                  TRA     s:7231

      556     7230    3             ELSE S_D.D$ = PINCRC(OUTPUT$, 11+13*MAX_CELL);
PL6.E3A0      #001=DDA$DUMP File=DDA$DUMP.:E05TSI                                TUE 07/29/97 13:27 Page:92

   7230  2 002255   200016 236100                    LDQ     MAX_CELL,,AUTO
         2 002256   000024 402000 3                  MPY     20
         2 002257   000023 036000 3                  ADLQ    19
         2 002260   200113 036100                    ADLQ    OUTPUT$,,AUTO
         2 002261   000044 756100                    STQ     36,,PR0

      557     7231    3             IF SAVE_CALLED

   7231  2 002262   200025 234100                    SZN     SAVE_CALLED,,AUTO
         2 002263   002304 605000 2                  TPL     s:7235

      558     7232    3             THEN IF C_FLAG

   7232  2 002264   200026 234100                    SZN     C_FLAG,,AUTO
         2 002265   002275 605000 2                  TPL     s:7234

      559     7233    3                  THEN CALL XLATE(S_D.D$->CHAR32,T_TABLE,SAVE_DATA_CHAR);

   7233  2 002266   000044 471500                    LDP1    36,,PR0
         2 002267   000000 473400 xsym               LDP3    B$XL_ASC_DUMP$
         2 002270   040100 160500                    MVT     fill='040'O
         2 002271   200074 000040                    ADSC9   SAVE_DATA,,AUTO          cn=0,n=32
         2 002272   100000 000040                    ADSC9   0,,PR1                   cn=0,n=32
         2 002273   300000 000100                    ARG     0,,PR3
         2 002274   002323 710000 2                  TRA     s:7238

      560     7234    3                  ELSE CALL XLATE ( S_D.D$ -> CHAR32, EBCDIC_XLATE_TABLE,
              7234                           SAVE_DATA_CHAR );

   7234  2 002275   000044 471500                    LDP1    36,,PR0
         2 002276   000000 473400 xsym               LDP3    B$XL_EBC_DUMP$
         2 002277   040100 160500                    MVT     fill='040'O
         2 002300   200074 000040                    ADSC9   SAVE_DATA,,AUTO          cn=0,n=32
         2 002301   100000 000040                    ADSC9   0,,PR1                   cn=0,n=32
         2 002302   300000 000100                    ARG     0,,PR3
         2 002303   002323 710000 2                  TRA     s:7238
PL6.E3A0      #001=DDA$DUMP File=DDA$DUMP.:E05TSI                                TUE 07/29/97 13:27 Page:93

      561     7235    3             ELSE IF C_FLAG

   7235  2 002304   200026 234100                    SZN     C_FLAG,,AUTO
         2 002305   002315 605000 2                  TPL     s:7237

      562     7236    3                  THEN CALL XLATE(S_D.D$->CHAR32,T_TABLE,DATA_CHAR);

   7236  2 002306   000044 471500                    LDP1    36,,PR0
         2 002307   000000 473400 xsym               LDP3    B$XL_ASC_DUMP$
         2 002310   040100 160500                    MVT     fill='040'O
         2 002311   200064 000040                    ADSC9   DATA,,AUTO               cn=0,n=32
         2 002312   100000 000040                    ADSC9   0,,PR1                   cn=0,n=32
         2 002313   300000 000100                    ARG     0,,PR3
         2 002314   002323 710000 2                  TRA     s:7238

      563     7237    3                  ELSE CALL XLATE ( S_D.D$ -> CHAR32, EBCDIC_XLATE_TABLE, DATA_CHAR );

   7237  2 002315   000044 471500                    LDP1    36,,PR0
         2 002316   000000 473400 xsym               LDP3    B$XL_EBC_DUMP$
         2 002317   040100 160500                    MVT     fill='040'O
         2 002320   200064 000040                    ADSC9   DATA,,AUTO               cn=0,n=32
         2 002321   100000 000040                    ADSC9   0,,PR1                   cn=0,n=32
         2 002322   300000 000100                    ARG     0,,PR3

      564     7238    3             S_D.D$=PINCRC(S_D.D$,MAX_CELL*4);

   7238  2 002323   000044 471500                    LDP1    36,,PR0
         2 002324   200016 720100                    LXL0    MAX_CELL,,AUTO
         2 002325   100000 633510                    EPPR3   0,X0,PR1
         2 002326   000044 453500                    STP3    36,,PR0

      565     7239    3           END;

      566     7240    2        CALL DDQ$WRITED(OUTPUT$,POFFC(S_D.D$,OUTPUT$));

   7240  2 002327   200113 236100                    LDQ     OUTPUT$,,AUTO
PL6.E3A0      #001=DDA$DUMP File=DDA$DUMP.:E05TSI                                TUE 07/29/97 13:27 Page:94
         2 002330   000020 772000                    QRL     16
         2 002331   200136 756100                    STQ     PTR$+1,,AUTO
         2 002332   000044 236100                    LDQ     36,,PR0
         2 002333   000020 772000                    QRL     16
         2 002334   200136 136100                    SBLQ    PTR$+1,,AUTO
         2 002335   200137 756100                    STQ     PTR$+2,,AUTO
         2 002336   200137 631500                    EPPR1   PTR$+2,,AUTO
         2 002337   200141 451500                    STP1    PTR$+4,,AUTO
         2 002340   200113 633500                    EPPR3   OUTPUT$,,AUTO
         2 002341   200140 453500                    STP3    PTR$+3,,AUTO
         2 002342   200140 630500                    EPPR0   PTR$+3,,AUTO
         2 002343   000020 631400 xsym               EPPR1   B_VECTNIL+16
         2 002344   000000 701000 xent               TSX1    DDQ$WRITED
         2 002345   000000 011000                    NOP     0

      567     7241    2        RETURN;

   7241  2 002346   200130 221300                    LDX1  ! CHAR_HOLD+10,,AUTO
         2 002347   000001 702211                    TSX2  ! 1,X1

      568     7242    2   END LINE_OUT;
      569     7243                                                /**/
      570     7244                                                /* Convert octal to display hex */
      571     7245                                                /**/
      572     7246    1   HEXOUT: PROC(VAL);

   7246  2 002350   200132 741300       HEXOUT       STX1  ! CHAR_HOLD+12,,AUTO

      573     7247    2   DCL VAL UBIN;
      574     7248    2   DCL 1 XVAL(0:3) REDEF VAL,
      575     7249    2         2 * BIT(1) UNAL,
      576     7250    2         2 L UBIN(4) UNAL,
      577     7251    2         2 R UBIN(4) UNAL;
      578     7252    2   DCL I UBIN;
      579     7253    2   DCL PTR$ PTR;
      580     7254    2   DCL HEXCHARS(0:15) CHAR(1) CONSTANT INIT(
      581     7255    2        '0','1','2','3','4','5','6','7','8','9','A','B','C','D','E','F');
PL6.E3A0      #001=DDA$DUMP File=DDA$DUMP.:E05TSI                                TUE 07/29/97 13:27 Page:95
      582     7256    2   DCL CHAR1 CHAR(1) BASED;
      583     7257                                                /**/
      584     7258    2        PTR$ = S_D.D$;

   7258  2 002351   000000 470400 xsym               LDP0    S_D$
         2 002352   000044 236100                    LDQ     36,,PR0
         2 002353   200135 756100                    STQ     PTR$,,AUTO

      585     7259    3        DO I = 0 TO 3;

   7259  2 002354   200134 450100                    STZ     I,,AUTO

      586     7260    3             PTR$->CHAR1 = HEXCHARS(XVAL.L(I));

   7260  2 002355   200134 236100                    LDQ     I,,AUTO
         2 002356   000011 402007                    MPY     9,DL
         2 002357   200133 470500                    LDP0    @VAL,,AUTO
         2 002360   003100 061506                    CSR     bolr='003'O
         2 002361   000000 010004                    BDSC    0,Q,PR0                  by=0,bit=1,n=4
         2 002362   200136 000044                    BDSC    PTR$+1,,AUTO             by=0,bit=0,n=36
         2 002363   200136 236100                    LDQ     PTR$+1,,AUTO
         2 002364   200135 471500                    LDP1    PTR$,,AUTO
         2 002365   040100 100406                    MLR     fill='040'O
         2 002366   000000 000001 1                  ADSC9   HEXCHARS,Q               cn=0,n=1
         2 002367   100000 000001                    ADSC9   0,,PR1                   cn=0,n=1

      587     7261    3             PTR$ = PINCRC(PTR$, 1);

   7261  2 002370   200135 236100                    LDQ     PTR$,,AUTO
         2 002371   200000 036007                    ADLQ    65536,DL
         2 002372   200135 756100                    STQ     PTR$,,AUTO

      588     7262    3             PTR$->CHAR1 = HEXCHARS(XVAL.R(I));

   7262  2 002373   200134 236100                    LDQ     I,,AUTO
         2 002374   000011 402007                    MPY     9,DL
         2 002375   003100 061506                    CSR     bolr='003'O
PL6.E3A0      #001=DDA$DUMP File=DDA$DUMP.:E05TSI                                TUE 07/29/97 13:27 Page:96
         2 002376   000000 050004                    BDSC    0,Q,PR0                  by=0,bit=5,n=4
         2 002377   200136 000044                    BDSC    PTR$+1,,AUTO             by=0,bit=0,n=36
         2 002400   200136 236100                    LDQ     PTR$+1,,AUTO
         2 002401   200135 471500                    LDP1    PTR$,,AUTO
         2 002402   040100 100406                    MLR     fill='040'O
         2 002403   000000 000001 1                  ADSC9   HEXCHARS,Q               cn=0,n=1
         2 002404   100000 000001                    ADSC9   0,,PR1                   cn=0,n=1

      589     7263    3             PTR$ = PINCRC(PTR$, 1);

   7263  2 002405   200135 236100                    LDQ     PTR$,,AUTO
         2 002406   200000 036007                    ADLQ    65536,DL
         2 002407   200135 756100                    STQ     PTR$,,AUTO

      590     7264    3           END;

   7264  2 002410   200134 235100                    LDA     I,,AUTO
         2 002411   000001 035007                    ADLA    1,DL
         2 002412   200134 755100                    STA     I,,AUTO
         2 002413   000004 115007                    CMPA    4,DL
         2 002414   002355 602000 2                  TNC     s:7260

      591     7265    2        RETURN;

   7265  2 002415   200132 221300                    LDX1  ! CHAR_HOLD+12,,AUTO
         2 002416   000001 702211                    TSX2  ! 1,X1

      592     7266    2   END HEXOUT;
      593     7267                                                /**/
      594     7268                                                /* Convert octal to 9 hex display */
      595     7269                                                /**/
      596     7270    1   HEX_9_OUT: PROC(VAL);

   7270  2 002417   200132 741300       HEX_9_OUT    STX1  ! CHAR_HOLD+12,,AUTO

      597     7271    2   DCL VAL UBIN;
      598     7272    2   DCL 1 XVAL(0:8) REDEF VAL,
PL6.E3A0      #001=DDA$DUMP File=DDA$DUMP.:E05TSI                                TUE 07/29/97 13:27 Page:97
      599     7273    2         2 H UBIN(4) UNAL;
      600     7274    2   DCL I UBIN;
      601     7275    2   DCL PTR$ PTR;
      602     7276    2   DCL HEXCHARS(0:15) CHAR(1) CONSTANT INIT(
      603     7277    2        '0','1','2','3','4','5','6','7','8','9','A','B','C','D','E','F');
      604     7278    2   DCL CHAR1 CHAR(1) BASED;
      605     7279                                                /**/
      606     7280    2        PTR$ = S_D.D$;

   7280  2 002420   000000 470400 xsym               LDP0    S_D$
         2 002421   000044 236100                    LDQ     36,,PR0
         2 002422   200135 756100                    STQ     PTR$,,AUTO

      607     7281    3        DO I = 0 TO 8;

   7281  2 002423   200134 450100                    STZ     I,,AUTO

      608     7282    3             PTR$->CHAR1 = HEXCHARS(XVAL.H(I));

   7282  2 002424   200134 235100                    LDA     I,,AUTO
         2 002425   000002 735000                    ALS     2
         2 002426   200133 470500                    LDP0    @VAL,,AUTO
         2 002427   003100 061505                    CSR     bolr='003'O
         2 002430   000000 000004                    BDSC    0,A,PR0                  by=0,bit=0,n=4
         2 002431   200136 000044                    BDSC    PTR$+1,,AUTO             by=0,bit=0,n=36
         2 002432   200136 236100                    LDQ     PTR$+1,,AUTO
         2 002433   200135 471500                    LDP1    PTR$,,AUTO
         2 002434   040100 100406                    MLR     fill='040'O
         2 002435   000004 000001 1                  ADSC9   HEXCHARS,Q               cn=0,n=1
         2 002436   100000 000001                    ADSC9   0,,PR1                   cn=0,n=1

      609     7283    3             PTR$ = PINCRC(PTR$, 1);

   7283  2 002437   200135 236100                    LDQ     PTR$,,AUTO
         2 002440   200000 036007                    ADLQ    65536,DL
         2 002441   200135 756100                    STQ     PTR$,,AUTO

PL6.E3A0      #001=DDA$DUMP File=DDA$DUMP.:E05TSI                                TUE 07/29/97 13:27 Page:98
      610     7284    3           END;

   7284  2 002442   200134 235100                    LDA     I,,AUTO
         2 002443   000001 035007                    ADLA    1,DL
         2 002444   200134 755100                    STA     I,,AUTO
         2 002445   000011 115007                    CMPA    9,DL
         2 002446   002424 602000 2                  TNC     s:7282

      611     7285    2        RETURN;

   7285  2 002447   200132 221300                    LDX1  ! CHAR_HOLD+12,,AUTO
         2 002450   000001 702211                    TSX2  ! 1,X1

HEXCHARS
 Sect OctLoc
   1     000   060061 062063   064065 066067   070071 101102   103104 105106    0123456789ABCDEF

HEXCHARS
 Sect OctLoc
   1     004   060061 062063   064065 066067   070071 101102   103104 105106    0123456789ABCDEF

(unnamed)
 Sect OctLoc
   1     010   050155 151163   163151 156147   040160 141147   145050 163051    (missing page(s)
   1     014   051040 040040   101143 143145   163163 040157   165164 040157    )   Access out o
   1     020   146040 163145   147155 145156   164040 040040   040124 110122    f segment    THR
   1     024   125040 040040                                                    U

(unnamed)
 Sect OctLoc
   3     000   000000 006003   000000 000044   000001 006000   000013 006000    .......$........
   3     004   000000 000021   000004 006000   000100 663100   000000 000025    .........@.@....
   3     010   000007 006000   000003 006000   000000 000015   000012 006000    ................
   3     014   000001 400000   000000 000020   000003 006000   000001 006000    ................
   3     020   000012 006000   000015 006000   000002 400000   000002 600000    ................
   3     024   000003 200000                                                    ....
      612     7286    2   END HEX_9_OUT;
PL6.E3A0      #001=DDA$DUMP File=DDA$DUMP.:E05TSI                                TUE 07/29/97 13:27 Page:99
      613     7287    1   END DDA$DUMP;

PL6.E3A0      #001=DDA$DUMP File=DDA$DUMP.:E05TSI                                TUE 07/29/97 13:27 Page:100
--  Include file information  --

   B$TABLES_C.:E05TOU  cannot be made into a system file and is referenced.
   CP_6_SUBS.:E05TOU  is referenced.
   CP_6.:E05TOU  cannot be made into a system file and is referenced.
   DD_PSUBS_C.:E05TOU  is referenced.
   DD_SD_M.:E05TOU  is referenced.
   XUH_MACRO_C.:E05TOU  is referenced.
   DD_ERR_C.:E05TOU  is referenced.
   DD_SRTN_C.:E05TOU  is referenced.
   DD_ACODE_C.:E05TOU  is referenced.
   DD_ICODE_C.:E05TOU  is referenced.
   DD$DITEM.:E05TOU  cannot be made into a system file and is referenced.
   DD_SUBS_C.:E05TOU  is referenced.
   DD$BASED.:E05TOU  is referenced.
   B$JIT_C.:E05TOU  was found in the system file and is never referenced.
   CP_6_C.:E05TOU  was found in the system file and is referenced.
      No diagnostics issued in procedure DDA$DUMP.

   Procedure DDA$DUMP requires 1321 words for executable code.
   Procedure DDA$DUMP requires 102 words of local(AUTO) storage.

    No errors detected in file DDA$DUMP.:E05TSI    .
PL6.E3A0      #001=DDA$DUMP File=DDA$DUMP.:E05TSI                                TUE 07/29/97 13:27 Page:101
          *** CROSS REFERENCE LISTING ***
**     DENOTES     IDENTIFIER DEFINITION
<<                 IDENTIFIER'S VALUE SET
>>                 IDENTIFIER'S VALUE USED
<>                 IDENTIFIER SET AND/OR USED
--                 IDENTIFIER REFERENCED
PL6.E3A0      #001=DDA$DUMP File=DDA$DUMP.:E05TSI                                TUE 07/29/97 13:27 Page:102
          MINI XREF LISTING

ADDRESS
        27**DCL      6794<<ASSIGN   6804<>CALL     6865<>CALL     6866<>CALL     6870<>CALL     6871<>CALL
      6873<>CALL     6978<>CALL     6983>>IF       6984>>ASSIGN   6986>>ASSIGN   6987>>ASSIGN   7005<>CALL
      7006<>CALL     7008<>CALL     7031<<ASSIGN   7031>>ASSIGN   7032>>IF       7052>>IF       7058>>IF
      7061>>IF       7066<<ASSIGN   7067>>ASSIGN   7070>>IF       7078<>CALL     7079<>CALL     7081<>CALL
      7082>>ASSIGN   7127>>ASSIGN   7207>>ASSIGN
ALT_CHECK
      7114**LABEL    7005--CALLALT  7006--CALLALT  7008--CALLALT
B$XL_ASC_DUMP$
      6762**DCL      6763--IMP-PTR  7173>>CALLBLT  7233>>CALLBLT  7236>>CALLBLT
B$XL_EBC_DUMP$
      6766**DCL      6767--IMP-PTR  7178>>CALLBLT  7234>>CALLBLT  7237>>CALLBLT
BLANK
        61**DCL      6884<<ASSIGN   6902<<ASSIGN   6989>>ASSIGN   6990>>ASSIGN   7043>>ASSIGN   7086>>ASSIGN
      7087>>ASSIGN
CHAR1 IN PROCEDURE HEXOUT
      7256**DCL      7260<<ASSIGN   7262<<ASSIGN
CHAR1 IN PROCEDURE HEX_9_OUT
      7278**DCL      7282<<ASSIGN
CHAR32
        76**DCL      7173<<CALLBLT  7178<<CALLBLT  7233<<CALLBLT  7234<<CALLBLT  7236<<CALLBLT  7237<<CALLBLT
CHAR6
        74**DCL      7153<<ASSIGN
CHAR9
        75**DCL      7150<<ASSIGN   7201<<ASSIGN
CHAR_HOLD
        72**DCL      7147--CALL     7148--CALL     7150>>ASSIGN   7192--CALL     7193--CALL     7197--CALL
      7198--CALL     7201>>ASSIGN
CHECK_DUP
        71**DCL      6995<<ASSIGN   6996<<ASSIGN   7011>>IF       7024<<ASSIGN   7034>>IF       7046<<ASSIGN
      7047<<ASSIGN   7052>>IF       7092<<ASSIGN   7093<<ASSIGN
CLEAN_RETURN
PL6.E3A0      #001=DDA$DUMP File=DDA$DUMP.:E05TSI                                TUE 07/29/97 13:27 Page:103
      7099**LABEL    6806--GOTO     6855--CALLALT  6865--CALLALT  6866--CALLALT  6878--GOTO     6978--CALLALT
      7003--CALLALT  7069--CALLALT  7074--GOTO     7122--GOTO
COMMON
      6825**LABEL    6809--GOTO
COMMON2
      6909**LABEL    6833--GOTO
C_FLAG
        39**DCL      6798<<ASSIGN   6818<<ASSIGN   6885<<ASSIGN   6890<<ASSIGN   6897>>IF       6926>>IF
      6937>>IF       7172>>IF       7227>>IF       7232>>IF       7235>>IF
DATA
        55**DCL        56--REDEF      57--REDEF    7010<<ASSIGN   7213>>ASSIGN
DATA_CHAR
        56**DCL      7236>>CALLBLT  7237>>CALLBLT
DATA_VAL
        57**DCL      6989<<ASSIGN   7043<<ASSIGN   7086<<ASSIGN
DCTX_LP
      6769**DCL      6843>>ASSIGN   6846>>IF
DCTX_ME
      6770**DCL      6842>>ASSIGN
DDA$DISPADR
      6780**DCL-ENT  6978--CALL
DDA$DISPFMT
      6781**DCL-ENT  7156--CALL     7157--CALL
DDB$BREAK
      6788**DCL-ENT  7003--CALL     7069--CALL
DDK$EVAL
      6775**DCL-ENT  6865--CALL
DDK$GETMVAL
      6776**DCL-ENT  6804--CALL     6873--CALL     7008--CALL     7081--CALL
DDQ$WRITED
      6782**DCL-ENT  6972--CALL     6979--CALL     7072--CALL     7095--CALL     7109--CALL     7181--CALL
      7240--CALL
DDQ$WRTOFD
      6784**DCL-ENT  6960--CALL
DDR$BINOCT
      6783**DCL-ENT  7169--CALL     7223--CALL
PL6.E3A0      #001=DDA$DUMP File=DDA$DUMP.:E05TSI                                TUE 07/29/97 13:27 Page:104
DDR$BINTXT
      6787**DCL-ENT  7147--CALL     7148--CALL     7192--CALL     7193--CALL     7197--CALL     7198--CALL
DDS$IC2NODE
      6779**DCL-ENT  6866--CALL
DESC#
        35**DCL      6796<<ASSIGN   6804<>CALL     6865<>CALL     6870<>CALL     6871<>CALL     6873<>CALL
      6978<>CALL     7005<>CALL     7006<>CALL     7008<>CALL     7078<>CALL     7079<>CALL     7081<>CALL
DUA$CLOSEDUMP
      6786**DCL-ENT  7113--CALL
DUA$OUTPUT
      6785**DCL-ENT  6855--CALL
DUL$GETMVAL
      6777**DCL-ENT  6870--CALL     7005--CALL     7078--CALL
DUMP$CMD.ASCII_FLAG
      1391**DCL      6885>>IF
DUMP$CMD.DEST
      1390**DCL      6840>>IF       6852>>IF
DUMP$CMD.DESTCODE
      1402**DCL      6842>>IF       6854>>ASSIGN
DUMP$CMD.EBCDIC_FLAG
      1394**DCL      6886>>IF
DUMP$CMD.FID
      1404**DCL      6855<>CALL
DUMP$CMD.FORMAT
      1389**DCL      6887>>IF
DUMP$CMD.FORMATCODE
      1397**DCL      6888>>DOCASE
DUMP$CMD.HEADING
      1388**DCL      6964>>IF
DUMP$CMD.LONG
      1393**DCL      6820>>IF
DUMP$CMD.NUM
      1403**DCL      6819>>ASSIGN
DUMP$CMD.PAGE_EJECT
      1392**DCL      6960>>IF
DUMP_HEADING.LEN
PL6.E3A0      #001=DDA$DUMP File=DDA$DUMP.:E05TSI                                TUE 07/29/97 13:27 Page:105
        78**DCL      6966>>ASSIGN
DUMP_HEADING.TEXT
        79**DCL      6970<<ASSIGN   6970>>ASSIGN
DUU$GETMVAL
      6778**DCL-ENT  6871--CALL     7006--CALL     7079--CALL
D_M$DO#
      6771**DCL      6792>>ASSIGN   6858>>ASSIGN
D_XDELTA
      6772**DCL      6837>>IF       6909>>IF       7112>>IF
EBCDIC_XLATE_TABLE
      6767**DCL      7178>>CALLBLT  7234>>CALLBLT  7237>>CALLBLT
EB_FLAG
        42**DCL      6830<<ASSIGN   6886<<ASSIGN   6896<<ASSIGN   6926>>IF       6937>>IF       7176>>IF
      7227>>IF
ECHO_DEV
      6774**DCL      6845>>ASSIGN   6846>>IF
F$DCB.ACTPOS
      6089**DCL      6089--REDEF
F$DCB.ARS#
      6063**DCL      6063--REDEF
F$DCB.ASN#
      6078**DCL      6914>>IF
F$DCB.ATTR
      6082**DCL      6083--REDEF
F$DCB.BORROW
      6097**DCL      6097--REDEF    6097--REDEF    6097--REDEF
F$DCB.DCBNAME.L
      6111**DCL      6111--IMP-SIZ
F$DCB.EOMCHAR#
      6067**DCL      6067--REDEF
F$DCB.FLDID
      6092**DCL      6092--REDEF
F$DCB.FORM$
      6086**DCL      6086--REDEF
F$DCB.FSECT
      6102**DCL      6102--REDEF
PL6.E3A0      #001=DDA$DUMP File=DDA$DUMP.:E05TSI                                TUE 07/29/97 13:27 Page:106
F$DCB.FSN#
      6079**DCL      6079--REDEF    6079--REDEF    6080--REDEF
F$DCB.HEADER$
      6085**DCL      6085--REDEF
F$DCB.IXTNSIZE#
      6083**DCL      6083--REDEF
F$DCB.LASTSTA$
      6072**DCL      6072--REDEF
F$DCB.LVL
      6098**DCL      6098--REDEF
F$DCB.NAME#.C
      6073**DCL      6073--REDEF
F$DCB.NOEOF
      6095**DCL      6095--REDEF
F$DCB.NRECS#
      6084**DCL      6084--REDEF
F$DCB.NRECX
      6103**DCL      6103--REDEF
F$DCB.OHDR
      6095**DCL      6095--REDEF
F$DCB.ORG#
      6078**DCL      6078--REDEF
F$DCB.PRECNO
      6101**DCL      6101--REDEF
F$DCB.RCSZ
      6107**DCL      6107--REDEF
F$DCB.RES#
      6074**DCL      6074--REDEF
F$DCB.SETX
      6086**DCL      6086--REDEF
F$DCB.TAB$
      6086**DCL      6086--REDEF
F$DCB.TDA
      6100**DCL      6101--REDEF
F$DCB.WIDTH#
      6070**DCL      6912>>IF       6913>>ASSIGN
PL6.E3A0      #001=DDA$DUMP File=DDA$DUMP.:E05TSI                                TUE 07/29/97 13:27 Page:107
F$DCB.WSN#
      6074**DCL      6074--REDEF
HEXCHARS IN PROCEDURE HEXOUT
      7254**DCL      7260>>ASSIGN   7262>>ASSIGN
HEXCHARS IN PROCEDURE HEX_9_OUT
      7276**DCL      7282>>ASSIGN
HEXOUT
      7246**PROC     7163--CALL     7217--CALL
HEX_9_OUT
      7270**PROC     7165--CALL     7219--CALL
H_FLAG
        41**DCL      6829<<ASSIGN   6894<<ASSIGN   6919>>IF       7160>>IF       7202>>IF       7214>>IF
      7229>>IF
I
        29**DCL      6854<<ASSIGN   6855<>CALL     6988<<DOINDEX  6989>>ASSIGN   6990>>ASSIGN   7002<<DOINDEX
      7010>>ASSIGN   7023>>IF       7042<<DOINDEX  7043>>ASSIGN   7085<<DOINDEX  7086>>ASSIGN   7087>>ASSIGN
I IN PROCEDURE HEXOUT
      7252**DCL      7259<<DOINDEX  7260>>ASSIGN   7262>>ASSIGN
I IN PROCEDURE HEX_9_OUT
      7274**DCL      7281<<DOINDEX  7282>>ASSIGN
J
        65**DCL      6987<<ASSIGN   6994>>IF       7002>>DOINDEX  7041<<ASSIGN   7083<<ASSIGN   7203>>ASSIGN
      7205>>ASSIGN   7208>>DOINDEX
K
        66**DCL      7206<<ASSIGN   7207<<ASSIGN   7208>>DOINDEX
L
        67**DCL      7208<<DOINDEX  7210>>ASSIGN   7213>>ASSIGN
L1
      7066**LABEL    7098--GOTO
L2
      7097**LABEL    7078--CALLALT  7079--CALLALT  7081--CALLALT
L3
      6876**LABEL    6870--CALLALT  6871--CALLALT  6873--CALLALT
L5
      7071**LABEL    7099--GOTO
L6
PL6.E3A0      #001=DDA$DUMP File=DDA$DUMP.:E05TSI                                TUE 07/29/97 13:27 Page:108
      6806**LABEL    6804--CALLALT
LAST_TIME
      7045**LABEL    7032--GOTO     7131--GOTO
LINE_OUT
      7187**PROC     7037--CALL     7059--CALL     7062--CALL     7138--CALL
LONG_FLAG
        43**DCL      6791<<ASSIGN   6821<<ASSIGN   6822<<ASSIGN   6994>>IF       7045>>IF       7091>>IF
LOOP_TOP
      6997**LABEL    7048--GOTO     7096--GOTO
MAX_ADDRESS
        32**DCL      6986<<ASSIGN   7032>>IF       7070>>IF
MAX_CELL
        31**DCL      6924<<ASSIGN   6929<<ASSIGN   6932<<ASSIGN   6940<<ASSIGN   6944<<ASSIGN   6949<<ASSIGN
      6953<<ASSIGN   6984>>ASSIGN   6984>>ASSIGN   6997>>ASSIGN   7017>>IF       7040>>ASSIGN   7052>>IF
      7055>>ASSIGN   7056>>IF       7136>>IF       7229>>ASSIGN   7230>>ASSIGN   7238>>ASSIGN
MAX_CELL_M_1
        54**DCL      6997<<ASSIGN   7002>>DOINDEX
MISSING_PAGE_FLAG
        45**DCL      6832<<ASSIGN   7063>>IF       7065<<ASSIGN   7117<<ASSIGN   7126<<ASSIGN
MUST_CALL_CLOSE
        44**DCL      6802<<ASSIGN   6831<<ASSIGN   6856<<ASSIGN   7113>>IF
NODE
        68**DCL      6866<>CALL     6867<<ASSIGN   6871<>CALL     7006<>CALL     7079<>CALL
NOT_IS
        36**DCL      6797<<ASSIGN   6804<>CALL     6865<>CALL     6870<>CALL     6871<>CALL     6873<>CALL
      6978<>CALL     7005<>CALL     7006<>CALL     7008<>CALL     7078<>CALL     7079<>CALL     7081<>CALL
NUM_WORDS
        37**DCL      6799<<ASSIGN   6819<<ASSIGN   6986>>ASSIGN   7073>>IF       7129>>IF
OFFSET
        53**DCL      6984<<ASSIGN   6985<<ASSIGN   6987>>ASSIGN   7014>>ASSIGN   7040<<ASSIGN   7040>>ASSIGN
      7052>>IF       7055<<ASSIGN   7055>>ASSIGN   7061>>IF       7082<<ASSIGN   7136>>IF       7140>>ASSIGN
      7152>>ASSIGN   7197<>CALL     7198<>CALL     7206>>ASSIGN   7207>>ASSIGN
OFFSET_SAVE
        64**DCL      6992<<ASSIGN   7014>>IF       7014<<ASSIGN   7019<<ASSIGN   7027<<ASSIGN   7058>>IF
      7089<<ASSIGN   7136>>IF       7140<<ASSIGN   7147<>CALL     7148<>CALL     7152<<ASSIGN   7156<>CALL
      7157<>CALL     7192<>CALL     7193<>CALL     7206>>ASSIGN
PL6.E3A0      #001=DDA$DUMP File=DDA$DUMP.:E05TSI                                TUE 07/29/97 13:27 Page:109
OTEXT
        73**DCL      7169<>CALL     7223<>CALL
OUTPUT$
        69**DCL      6793<<ASSIGN   6826<<ASSIGN   6970>>ASSIGN   6972<>CALL     6976>>ASSIGN   6979<>CALL
      6979>>CALL     7072<>CALL     7095<>CALL     7109<>CALL     7143>>ASSIGN   7149>>ASSIGN   7181<>CALL
      7181>>CALL     7200>>ASSIGN   7203>>ASSIGN   7205>>ASSIGN   7229>>ASSIGN   7230>>ASSIGN   7240<>CALL
      7240>>CALL
OUT_DEV
      6773**DCL      6838>>ASSIGN   6842<<ASSIGN   6843<<ASSIGN   6845<<ASSIGN   7112<<ASSIGN
PADDRESS
        20**DCL        18--PROC     6794>>ASSIGN
PC_FLAG
        24**DCL        18--PROC     6798>>ASSIGN
PDESC#
        22**DCL        18--PROC     6796>>ASSIGN
PMD_FLAG
        26**DCL      6790<<ASSIGN   6817<<ASSIGN   6833>>IF       6958>>IF
PNOT_IS
        23**DCL        18--PROC     6797>>ASSIGN
PNUM_WORDS
        25**DCL        18--PROC     6799>>ASSIGN
PSEG
        21**DCL        18--PROC     6795>>ASSIGN
PTR$ IN PROCEDURE HEXOUT
      7253**DCL      7258<<ASSIGN   7260>>ASSIGN   7261<<ASSIGN   7261>>ASSIGN   7262>>ASSIGN   7263<<ASSIGN
      7263>>ASSIGN
PTR$ IN PROCEDURE HEX_9_OUT
      7275**DCL      7280<<ASSIGN   7282>>ASSIGN   7283<<ASSIGN   7283>>ASSIGN
RE_ENTER_LOOP
      7034**LABEL    7034--GOTO
SAME_COUNT
        70**DCL      6993<<ASSIGN   7013<<ASSIGN   7013>>ASSIGN   7017>>IF       7022<<ASSIGN   7026<<ASSIGN
      7056>>IF       7090<<ASSIGN
SAME_OUT
      7135**PROC     7018--CALL     7057--CALL
SAVE_ADDRESS
PL6.E3A0      #001=DDA$DUMP File=DDA$DUMP.:E05TSI                                TUE 07/29/97 13:27 Page:110
        51**DCL      7066>>ASSIGN   7067<<ASSIGN   7127<<ASSIGN
SAVE_CALLED
        38**DCL      6827<<ASSIGN   7137<<ASSIGN   7139<<ASSIGN   7189>>IF       7206>>IF       7209>>IF
      7231>>IF
SAVE_DATA
        58**DCL        59--REDEF      60--REDEF    7210<<ASSIGN
SAVE_DATA_CHAR
        59**DCL      7233>>CALLBLT  7234>>CALLBLT
SAVE_DATA_VAL
        60**DCL      6990<<ASSIGN   7087<<ASSIGN
SAVE_DCTX
        49**DCL      6838<<ASSIGN   7112>>ASSIGN
SAVE_VALUE
        62**DCL        63--REDEF    6808<<ASSIGN   6880<<ASSIGN   7012>>IF       7021<<ASSIGN   7084<<ASSIGN
      7163<>CALL     7165<>CALL     7169<>CALL     7210>>ASSIGN   7211>>ASSIGN
SAVE_VALUE_CHAR
        63**DCL      7173>>CALLBLT  7178>>CALLBLT
SAVE_WIDTH
        50**DCL      6800<<ASSIGN   6839<<ASSIGN   6911<<ASSIGN   7105>>ASSIGN
SEG
        34**DCL      6795<<ASSIGN   6804<>CALL     6865<>CALL     6870<>CALL     6871<>CALL     6873<>CALL
      6978<>CALL     7005<>CALL     7006<>CALL     7008<>CALL     7078<>CALL     7079<>CALL     7081<>CALL
SIZE
        52**DCL        75--IMP-SIZ  7147<>CALL     7148<>CALL     7149>>ASSIGN   7150>>ASSIGN   7151>>ASSIGN
      7192<>CALL     7193<>CALL     7197<>CALL     7198<>CALL     7200>>ASSIGN   7201>>ASSIGN
S_D.ANLZ_FILE
      4898**DCL      6870>>IF       7005>>IF       7078>>IF
S_D.CURRENT_CHANNEL
      5134**DCL      5136--REDEF
S_D.D$
      4272**DCL      6864>>ASSIGN   6976<<ASSIGN   6977>>ASSIGN   6979>>CALL     7143<<ASSIGN   7144>>ASSIGN
      7149<<ASSIGN   7150>>ASSIGN   7151<<ASSIGN   7151>>ASSIGN   7153>>ASSIGN   7154<<ASSIGN   7154>>ASSIGN
      7158<<ASSIGN   7158>>ASSIGN   7166<<ASSIGN   7166>>ASSIGN   7169>>CALL     7170<<ASSIGN   7170>>ASSIGN
      7173>>CALLBLT  7174<<ASSIGN   7174>>ASSIGN   7178>>CALLBLT  7179<<ASSIGN   7179>>ASSIGN   7181>>CALL
      7200<<ASSIGN   7201>>ASSIGN   7203<<ASSIGN   7205<<ASSIGN   7220<<ASSIGN   7220>>ASSIGN   7223>>CALL
      7224<<ASSIGN   7224>>ASSIGN   7229<<ASSIGN   7230<<ASSIGN   7233>>CALLBLT  7234>>CALLBLT  7236>>CALLBLT
PL6.E3A0      #001=DDA$DUMP File=DDA$DUMP.:E05TSI                                TUE 07/29/97 13:27 Page:111
      7237>>CALLBLT  7238<<ASSIGN   7238>>ASSIGN   7240>>CALL     7258>>ASSIGN   7280>>ASSIGN
S_D.DEBUGA
      4286**DCL      4288--REDEF
S_D.DESC$
      4266**DCL      6864<<ASSIGN   6966>>ASSIGN   6970>>ASSIGN
S_D.DESCL$
      4268**DCL      6977<<ASSIGN   7144<<ASSIGN
S_D.DO$
      4237**DCL      6819>>ASSIGN   6820>>IF       6840>>IF       6842>>IF       6852>>IF       6854>>ASSIGN
      6855>>CALL     6885>>IF       6886>>IF       6887>>IF       6888>>DOCASE   6960>>IF       6964>>IF
S_D.DUMPDCB
      4940**DCL      6792<<ASSIGN   6855<>CALL     6858<<ASSIGN   6912--IF       6913--ASSIGN   6914--IF
S_D.DUMP_HEAD
      5033**DCL      7118>>IF       7146>>IF       7155>>IF       7191>>IF       7196>>IF
S_D.EIS
      5244**DCL      5273--REDEF
S_D.ERROR
      4215**DCL      6801<<ASSIGN   6806>>IF       6825<<ASSIGN   6876>>IF       6876>>IF       6876>>IF
      6899<<ASSIGN   7068<<ASSIGN   7073<<ASSIGN   7097>>IF       7097>>IF       7106>>IF       7110<<ASSIGN
      7114>>IF       7118>>IF       7121<<ASSIGN   7124>>IF       7124>>IF       7130<<ASSIGN
S_D.HOST_MESSAGE_BUF_REMOTE
      5177**DCL      5178--REDEF    5192--REDEF
S_D.JDE
      4791**DCL      4792--REDEF
S_D.L$.VALUE
      4344**DCL      4350--REDEF    4358--REDEF    4361--REDEF    4364--REDEF    4367--REDEF
S_D.L$.VALUE.L
      4345**DCL      4346--REDEF    4347--REDEF
S_D.L6_MESSAGE_BUF
      5198**DCL      5200--REDEF
S_D.OUTPUT
      5164**DCL      5166--REDEF    6793--ASSIGN   6826--ASSIGN   6918<<ASSIGN   6977--ASSIGN   7071<<ASSIGN
      7094<<ASSIGN   7108<<ASSIGN   7144--ASSIGN   7145<<ASSIGN   7188<<ASSIGN
S_D.OUT_WIDTH
      4217**DCL      6800>>ASSIGN   6839>>ASSIGN   6846<<ASSIGN   6847<<ASSIGN   6911>>ASSIGN   6913<<ASSIGN
      6915<<ASSIGN   6916<<ASSIGN   6921>>IF       6926>>IF       6938>>IF       6947>>IF       7105<<ASSIGN
PL6.E3A0      #001=DDA$DUMP File=DDA$DUMP.:E05TSI                                TUE 07/29/97 13:27 Page:112
S_D.OVERLAID
      4848**DCL      6866>>IF
S_D.REMOTE_MSG.FNCC
      5183**DCL      5184--REDEF
S_D.REMOTE_MSG.STXC
      5179**DCL      5180--REDEF
S_D.REMOTE_MSG.SUBFNCC
      5187**DCL      5188--REDEF
S_D.RUM
      4832**DCL      6866>>IF       6871>>IF       7006>>IF       7079>>IF
S_D.SV
      4243**DCL      4264--REDEF
S_D$
      5495**DCL      4191--IMP-PTR  6792>>ASSIGN   6793>>ASSIGN   6800>>ASSIGN   6801>>ASSIGN   6806>>IF
      6819>>ASSIGN   6820>>IF       6825>>ASSIGN   6826>>ASSIGN   6839>>ASSIGN   6840>>IF       6842>>IF
      6846>>ASSIGN   6847>>ASSIGN   6852>>IF       6854>>ASSIGN   6855>>CALL     6855>>CALL     6858>>ASSIGN
      6864>>ASSIGN   6864>>ASSIGN   6866>>IF       6866>>IF       6870>>IF       6871>>IF       6876>>IF
      6876>>IF       6876>>IF       6885>>IF       6886>>IF       6887>>IF       6888>>DOCASE   6899>>ASSIGN
      6911>>ASSIGN   6912>>IF       6913>>ASSIGN   6913>>ASSIGN   6914>>IF       6915>>ASSIGN   6916>>ASSIGN
      6918>>ASSIGN   6921>>IF       6926>>IF       6938>>IF       6947>>IF       6960>>IF       6964>>IF
      6966>>ASSIGN   6970>>ASSIGN   6976>>ASSIGN   6977>>ASSIGN   6977>>ASSIGN   6979>>CALL     7005>>IF
      7006>>IF       7068>>ASSIGN   7071>>ASSIGN   7073>>ASSIGN   7078>>IF       7079>>IF       7094>>ASSIGN
      7097>>IF       7097>>IF       7105>>ASSIGN   7106>>IF       7108>>ASSIGN   7110>>ASSIGN   7114>>IF
      7118>>IF       7118>>IF       7121>>ASSIGN   7124>>IF       7124>>IF       7130>>ASSIGN   7143>>ASSIGN
      7144>>ASSIGN   7144>>ASSIGN   7145>>ASSIGN   7146>>IF       7149>>ASSIGN   7150>>ASSIGN   7151>>ASSIGN
      7151>>ASSIGN   7153>>ASSIGN   7154>>ASSIGN   7154>>ASSIGN   7155>>IF       7158>>ASSIGN   7158>>ASSIGN
      7166>>ASSIGN   7166>>ASSIGN   7169>>CALL     7170>>ASSIGN   7170>>ASSIGN   7173>>CALLBLT  7174>>ASSIGN
      7174>>ASSIGN   7178>>CALLBLT  7179>>ASSIGN   7179>>ASSIGN   7181>>CALL     7188>>ASSIGN   7191>>IF
      7196>>IF       7200>>ASSIGN   7201>>ASSIGN   7203>>ASSIGN   7205>>ASSIGN   7220>>ASSIGN   7220>>ASSIGN
      7223>>CALL     7224>>ASSIGN   7224>>ASSIGN   7229>>ASSIGN   7230>>ASSIGN   7233>>CALLBLT  7234>>CALLBLT
      7236>>CALLBLT  7237>>CALLBLT  7238>>ASSIGN   7238>>ASSIGN   7240>>CALL     7258>>ASSIGN   7280>>ASSIGN
TEMP
        30**DCL      6923<<ASSIGN   6928<<ASSIGN   6933<<ASSIGN   6941<<ASSIGN   6945<<ASSIGN   6950<<ASSIGN
      6954<<ASSIGN   6968>>ASSIGN   7211<<ASSIGN   7213<<ASSIGN   7217<>CALL     7219<>CALL     7223<>CALL
TEMP_S
        28**DCL      6968<<ASSIGN   6969>>IF       6969<<ASSIGN   6970>>ASSIGN   6972>>CALL
PL6.E3A0      #001=DDA$DUMP File=DDA$DUMP.:E05TSI                                TUE 07/29/97 13:27 Page:113
TEXT_LEN
        33**DCL        79--IMP-SIZ  6966<<ASSIGN   6968>>ASSIGN   6970>>ASSIGN   6970>>ASSIGN   6972>>CALL
T_TABLE
      6763**DCL      7173>>CALLBLT  7233>>CALLBLT  7236>>CALLBLT
VAL IN PROCEDURE HEXOUT
      7247**DCL      7246--PROC     7248--REDEF
VAL IN PROCEDURE HEX_9_OUT
      7271**DCL      7270--PROC     7272--REDEF
VALUE
        46**DCL      6871<>CALL     7006<>CALL     7079<>CALL
VALUE.OPS
        48**DCL      6804<>CALL     6808>>ASSIGN   6870<>CALL     6873<>CALL     6880>>ASSIGN   7005<>CALL
      7008<>CALL     7010>>ASSIGN   7012>>IF       7021>>ASSIGN   7078<>CALL     7081<>CALL     7084>>ASSIGN
VALUE.SIZE
        47**DCL      6803<<ASSIGN   6868<<ASSIGN   7004<<ASSIGN   7077<<ASSIGN
XVAL.L IN PROCEDURE HEXOUT
      7250**DCL      7260>>ASSIGN
XVAL.R IN PROCEDURE HEXOUT
      7251**DCL      7262>>ASSIGN
XVAL.H IN PROCEDURE HEX_9_OUT
      7273**DCL      7282>>ASSIGN
X_FLAG
        40**DCL      6828<<ASSIGN   6892<<ASSIGN   6919>>IF       7160>>IF       7162>>IF       7202>>IF
      7214>>IF       7216>>IF       7229>>IF
PL6.E3A0      #001=DDA$DUMP File=DDA$DUMP.:E05TSI                                TUE 07/29/97 13:27 Page:114
              *** CROSS REFERENCE LISTING ***
    **     DENOTES     IDENTIFIER DEFINITION
    <<                 IDENTIFIER'S VALUE SET
    >>                 IDENTIFIER'S VALUE USED
    <>                 IDENTIFIER SET AND/OR USED
    --                 IDENTIFIER REFERENCED
PL6.E3A0      #001=DDA$DUMP File=DDA$DUMP.:E05TSI                                TUE 07/29/97 13:27 Page:115
              MINI UREF LISTING

B_POINTER    6703**DCL-ENT
DDA$DUMP      18**PROC
DDA$DUMP_DO    6816**ENTRY
M$ACCT    6001**DCL-ENT
M$ACTIVATE    6004**DCL-ENT
M$ALIB    5997**DCL-ENT
M$ASUSER    5999**DCL-ENT
M$ATTACH    6006**DCL-ENT
M$BADPP    6024**DCL-ENT
M$CGCTL    6005**DCL-ENT
M$CGINFO    6005**DCL-ENT
M$CHECK    5986**DCL-ENT
M$CHGUNIT    6044**DCL-ENT
M$CLOSE    5984**DCL-ENT
M$CLRSTK    6042**DCL-ENT
M$CMDVAR    6053**DCL-ENT
M$CONFIG    6014**DCL-ENT
M$CORRES    5989**DCL-ENT
M$CPEXIT    5998**DCL-ENT
M$CVM    6022**DCL-ENT
M$CVOL    5987**DCL-ENT
M$DCLFLD    6014**DCL-ENT
M$DEACTIVATE    6004**DCL-ENT
M$DELREC    5986**DCL-ENT
M$DEQ    6051**DCL-ENT
M$DETACH    6006**DCL-ENT
M$DEVICE    5988**DCL-ENT
M$DISPLAY    6051**DCL-ENT
M$DISPRES    5991**DCL-ENT
M$DLIB    5997**DCL-ENT
M$DRIBBLE    6014**DCL-ENT
M$DRTN    6042**DCL-ENT
PL6.E3A0      #001=DDA$DUMP File=DDA$DUMP.:E05TSI                                TUE 07/29/97 13:27 Page:116
M$DSUSER    5999**DCL-ENT
M$ENQ    6050**DCL-ENT
M$EOM    6009**DCL-ENT
M$ERASE    6015**DCL-ENT
M$ERR    5996**DCL-ENT
M$ERRMSG    6047**DCL-ENT
M$EVENT    6039**DCL-ENT
M$EXHUME    6048**DCL-ENT
M$EXIT    5996**DCL-ENT
M$EXTEND    5988**DCL-ENT
M$FDP    6020**DCL-ENT
M$FDS    6019**DCL-ENT
M$FEBOOT    6012**DCL-ENT
M$FECTL    6013**DCL-ENT
M$FEDUMP    6012**DCL-ENT
M$FID    6047**DCL-ENT
M$FINDPROC    6001**DCL-ENT
M$FSUSER    5999**DCL-ENT
M$FVP    6021**DCL-ENT
M$FWCG    6005**DCL-ENT
M$GBPL    6025**DCL-ENT
M$GDDL    6021**DCL-ENT
M$GDP    6020**DCL-ENT
M$GDS    6019**DCL-ENT
M$GETDCB    5990**DCL-ENT
M$GETMOUSE    6030**DCL-ENT
M$GETPM    6031**DCL-ENT
M$GJOB    6049**DCL-ENT
M$GLINEATTR    6009**DCL-ENT
M$GOODPP    6024**DCL-ENT
M$GPLATEN    6017**DCL-ENT
M$GPROMPT    6016**DCL-ENT
M$GTRMATTR    6010**DCL-ENT
M$GTRMCTL    6008**DCL-ENT
M$GTRMTAB    6011**DCL-ENT
M$GVP    6020**DCL-ENT
PL6.E3A0      #001=DDA$DUMP File=DDA$DUMP.:E05TSI                                TUE 07/29/97 13:27 Page:117
M$HELP    6047**DCL-ENT
M$INT    6039**DCL-ENT
M$INTRTN    6000**DCL-ENT
M$IOQ    6035**DCL-ENT
M$JOBSTATS    6049**DCL-ENT
M$KEYIN    5989**DCL-ENT
M$LDEV    5984**DCL-ENT
M$LDTRC    5997**DCL-ENT
M$LIMIT    5990**DCL-ENT
M$LINES    5989**DCL-ENT
M$LINK    5996**DCL-ENT
M$MADMUCK    5992**DCL-ENT
M$MAKUSER    6023**DCL-ENT
M$MBS    5991**DCL-ENT
M$MDFFLD    6015**DCL-ENT
M$MERC    6040**DCL-ENT
M$MERCS    6041**DCL-ENT
M$MIRROR    6035**DCL-ENT
M$MONINFO    6052**DCL-ENT
M$MPL    6025**DCL-ENT
M$NODEINFO    6016**DCL-ENT
M$NXTUSR    6050**DCL-ENT
M$OCMSG    6048**DCL-ENT
M$OLAY    5996**DCL-ENT
M$OPEN    5984**DCL-ENT
M$PAS    6025**DCL-ENT
M$PATHCON    6048**DCL-ENT
M$PDS    6019**DCL-ENT
M$PFIL    5986**DCL-ENT
M$PLATEN    6010**DCL-ENT
M$PRECORD    5988**DCL-ENT
M$PROCNAME    6001**DCL-ENT
M$PROFILE    6012**DCL-ENT
M$PROMPT    6008**DCL-ENT
M$RACST    5992**DCL-ENT
M$RDSYSLOG    6033**DCL-ENT
PL6.E3A0      #001=DDA$DUMP File=DDA$DUMP.:E05TSI                                TUE 07/29/97 13:27 Page:118
M$READ    5985**DCL-ENT
M$RELDCB    5990**DCL-ENT
M$RELRES    5991**DCL-ENT
M$RELSTARF    5993**DCL-ENT
M$REM    5993**DCL-ENT
M$RENV    6040**DCL-ENT
M$REQUIRE    5992**DCL-ENT
M$RETRY    6041**DCL-ENT
M$RETRYS    6041**DCL-ENT
M$REW    5987**DCL-ENT
M$RLSFLD    6015**DCL-ENT
M$RPRIV    6043**DCL-ENT
M$RSPP    6022**DCL-ENT
M$RSWITCH    6044**DCL-ENT
M$RUE    6050**DCL-ENT
M$SAD    6023**DCL-ENT
M$SAVE    5999**DCL-ENT
M$SCON    6000**DCL-ENT
M$SCREECH    5998**DCL-ENT
M$SENV    6040**DCL-ENT
M$SETFMA    5984**DCL-ENT
M$SETFP    6013**DCL-ENT
M$SINPUT    6011**DCL-ENT
M$SLCFLD    6016**DCL-ENT
M$SMOUSE    6030**DCL-ENT
M$SMPRT    6022**DCL-ENT
M$SPRIV    6043**DCL-ENT
M$SSC    6023**DCL-ENT
M$SSWITCH    6043**DCL-ENT
M$STATE    6052**DCL-ENT
M$STD    6024**DCL-ENT
M$STIMER    6038**DCL-ENT
M$STLPP    6021**DCL-ENT
M$STRAP    6038**DCL-ENT
M$STRMATTR    6010**DCL-ENT
M$STRMCTL    6008**DCL-ENT
PL6.E3A0      #001=DDA$DUMP File=DDA$DUMP.:E05TSI                                TUE 07/29/97 13:27 Page:119
M$STRMTAB    6011**DCL-ENT
M$SYMBIO    6049**DCL-ENT
M$SYSCON    6035**DCL-ENT
M$SYSID    6053**DCL-ENT
M$TDCLOSE    6034**DCL-ENT
M$TDIO    6034**DCL-ENT
M$TDOPEN    6033**DCL-ENT
M$TDREQCPU    6034**DCL-ENT
M$TEMPWROC    6028**DCL-ENT
M$TIME    6051**DCL-ENT
M$TRAP    6038**DCL-ENT
M$TRMISC    6013**DCL-ENT
M$TRMPRG    6009**DCL-ENT
M$TRTN    6042**DCL-ENT
M$TRUNC    5985**DCL-ENT
M$TTIMER    6038**DCL-ENT
M$UC    6008**DCL
M$UMPL    6025**DCL-ENT
M$UNFID    6047**DCL-ENT
M$UNLATCH    6004**DCL-ENT
M$UNSHARE    6001**DCL-ENT
M$USRFIELD    6044**DCL-ENT
M$VIRTUAL    6019**DCL-ENT
M$WAIT    6042**DCL-ENT
M$WEOF    5987**DCL-ENT
M$WRITE    5985**DCL-ENT
M$WRSYSLOG    6033**DCL-ENT
M$XCON    6039**DCL-ENT
M$XCONRTN    6000**DCL-ENT
M$XEQTIME    6052**DCL-ENT
M$XFLUSH    5993**DCL-ENT
M$XMOUSE    6030**DCL-ENT
M$XXX    5996**DCL-ENT
M$YC    5998**DCL-ENT
SDD$    1788**DCL
SDD_L6$    1790**DCL
PL6.E3A0      #001=DDA$DUMP File=DDA$DUMP.:E05TSI                                TUE 07/29/97 13:27 Page:120
ZITEM$    1789**DCL
ZITEM_L6$    1791**DCL
