VERSION E05

PL6.E3A0      #001=DDA$EVAL File=DDA$EVAL.:E05TSI                                TUE 07/29/97 13:27 Page:1
        1        1        /*M*  DDA$EVAL  - DO routine for EVAL command */
        2        2        /*T***********************************************************/
        3        3        /*T*                                                         */
        4        4        /*T* Copyright (c) Bull HN Information Systems Inc., 1997    */
        5        5        /*T*                                                         */
        6        6        /*T***********************************************************/
        7        7        /*X* DMR,PLM=5,IND=5,CSU=3,EXM=0,ECU=3,MCL=4,DCI=5,CRT=5  */
        8        8        /*F*  NAME: DDA$EVAL
        9        9              PURPOSE:  To evaluate a generalized data reference, printing
       10       10                  the address of the item described.
       11       11              DESCRIPTION:  DDA$EVAL calls on DDK$EVAL to resolve a data
       12       12                  description to segment identification and offset
       13       13                  information.  For non-IS segments, this is printed
       14       14                  in segid -> offset format. For
       15       15                  values within the instruction segment, the value (address)
       16       16                  is printed in the specified format (default is OCTAL for
       17       17                  Host users and HEX for L6 users). */
       18       18        DDA$EVAL: PROC ALTRET;
       19       19          /* Locals */
       20       20    1   DCL ADDRESS SBIN;
       21       21    1   DCL 1 ADR REDEF ADDRESS,
       22       22    1         2 UHALF UBIN HALF HALIGNED,
       23       23    1         2 LHALF UBIN HALF HALIGNED;
       24       24    1   DCL 1 L6ADR REDEF ADDRESS,
       25       25    1         2 * BIT(4) UNAL,
       26       26    1         2 L16 UBIN(16) UNAL,
       27       27    1         2 R16 UBIN(16) UNAL;
       28       28    1   DCL SEG UBIN;
       29       29    1   DCL DESC# UBIN;
       30       30    1   DCL NOT_IS BIT(1);
       31       31    1   DCL 1 VALUE DALIGNED,
       32       32    1         2 SIZE UBIN UNAL,
       33       33    1         2 VAL,
       34       34    1           3 L UBIN UNAL,
       35       35    1           3 V REDEF L,
       36       36    1             4 ADR UBIN(18) UNAL,
       37       37    1             4 PADR REDEF ADR,
PL6.E3A0      #001=DDA$EVAL File=DDA$EVAL.:E05TSI                                TUE 07/29/97 13:27 Page:2
       38       38    1               5 PNTR UBIN(3) UNAL,
       39       39    1               5 OFFSET UBIN(15) UNAL,
       40       40    1             4 * UBIN(11) UNAL,
       41       41    1             4 BIT29 BIT(1) UNAL,
       42       42    1             4 * UBIN(6) UNAL,
       43       43    1           3 L6V1 REDEF L,
       44       44    1             4 * BIT(4) UNAL,
       45       45    1             4 L16 UBIN(16) UNAL,
       46       46    1             4 R16 UBIN(16) UNAL,
       47       47    1           3 R UBIN UNAL,
       48       48    1           3 L6V2 REDEF R,
       49       49    1             4 * BIT(4) UNAL,
       50       50    1             4 L16 UBIN(16) UNAL,
       51       51    1             4 R16 UBIN(16) UNAL,
       52       52    1           3 * (0:13) UBIN UNAL;
       53       53    1   DCL FMT UBIN;
       54       54    1   DCL D_XDELTA BIT(1) SYMREF;
       55       55          /* Misc */
       56       56    1   DCL UBIN36 UBIN BASED;
       57       57    1   DCL DUM1 UBIN;
       58       58    1   DCL DUM2 UBIN;
       59       59    1   DCL CHAR1 CHAR(1) BASED;
       60       60    1   DCL CHAR3 CHAR(3) BASED;
       61       61        %INCLUDE DD_ERR_C;
       62      458        %INCLUDE DD$BASED;
       63     1761        %INCLUDE DD$DITEM;
       12+    1864             %LIST;
       13+    1865    1        DCL SDD$ PTR;
       14+    1866    1        DCL ZITEM$ PTR;
       15+    1867    1        DCL SDD_L6$ PTR;
       16+    1868    1        DCL ZITEM_L6$ PTR;
       64     2442        %ZITEM;
       65     2514        %EVAL$CMD(STCLASS=BASED);
       66     2529        %PLIST;
       67     2530        %INCLUDE XUH_MACRO_C;
       68     2614        %INCLUDE DD_SD_M;
       69     3950        %S_D;
PL6.E3A0      #001=DDA$EVAL File=DDA$EVAL.:E05TSI                                TUE 07/29/97 13:27 Page:3
       70     5268          /* External routines */
       71     5269    1   DCL DDK$EVAL ENTRY(6) ALTRET;
       72     5270    1   DCL DDA$DISPADR ENTRY(7) ALTRET;
       73     5271    1   DCL DDQ$WRITENC ENTRY(2);
       74     5272    1   DCL DDQ$WRITENU ENTRY(2);
       75     5273    1   DCL DDR$BUMPC_D$ ENTRY(1) ALTRET;
       76     5274    1   DCL DFS$INSTR ENTRY(4) ALTRET;
       77     5275    1   DCL DFK$EVAL ENTRY(8) ALTRET;
       78     5276                                                /**/
       79     5277    1        VALUE = '0'B;
       80     5278    1        IF S_D.DO$->EVAL$CMD.INSTR
       81     5279    1        THEN IF S_D.ONE_TO_TWO.EXEC_DOMAIN = %HOST
       82     5280    2             THEN DO;
       83     5281    2                  VALUE.VAL.L = S_D.D$ -> UBIN36;
       84     5282    2                  S_D.DESC$ = PINCRW(S_D.D$, 1);
       85     5283    2                END;
       86     5284    1             ELSE S_D.DESC$ = S_D.D$;
       87     5285    1        ZITEM$ = S_D.DESC$;
       88     5286    1        FMT = S_D.DO$ -> EVAL$CMD.FMT;
       89     5287    1        IF FMT = %DEFAULT_FMT
       90     5288    1        THEN FMT = S_D.EFMT_DEFAULT;
       91     5289    2        DO CASE ( S_D.ONE_TO_TWO.EXEC_DOMAIN );
       92     5290    2          CASE ( %HOST );
       93     5291    2             IF S_D.DO$ -> EVAL$CMD.DDESC
       94     5292    3             THEN DO;
       95     5293    3                  CALL DDK$EVAL(ADDRESS, SEG, DESC#, NOT_IS) ALTRET(EVERR);
       96     5294    3                  IF S_D.DO$->EVAL$CMD.INSTR
       97     5295    4                  THEN DO;
       98     5296    4                       ADR.UHALF = 0;
       99     5297    4                       IF NOT_IS
      100     5298    5                       THEN DO;
      101     5299    5                            S_D.ERROR = E@CANTEVAL; /* E@CANTEVAL */
      102     5300    5                            ALTRETURN;
      103     5301    5                          END;
      104     5302    4                       IF ( VALUE.VAL.V.BIT29 AND NOT S_D.DO$->EVAL$CMD.IGNPR ) OR
      105     5303    4                         ( S_D.DO$->EVAL$CMD.AWDX )
      106     5304    4                       THEN VALUE.VAL.V.PADR.OFFSET = ADDRESS;
PL6.E3A0      #001=DDA$EVAL File=DDA$EVAL.:E05TSI                                TUE 07/29/97 13:27 Page:4
      107     5305    4                       ELSE VALUE.VAL.V.ADR = ADDRESS;
      108     5306    4                     END;
      109     5307    3                  ELSE VALUE.VAL.L = ADDRESS;
      110     5308    3                  S_D.L$.VALUE.L = VALUE.VAL.L;
      111     5309    3                  S_D.L$.SIZE = 36;
      112     5310    3                END;
      113     5311    3             ELSE DO;
      114     5312    3                  VALUE.VAL = S_D.L$.VALUE;
      115     5313    3                  NOT_IS = '0'B;
      116     5314    3                END;
      117     5315    2          CASE ( %L6 );
      118     5316    2             IF S_D.DO$ -> EVAL$CMD.DDESC
      119     5317    3             THEN DO;
      120     5318    3                  IF S_D.DO$ -> EVAL$CMD.INSTR
      121     5319    4                  THEN DO;
      122     5320    4                       CALL DFS$INSTR ( VALUE, S_D.O$.ADDRESS, '0'B ) ALTRET ( EVERR );
      123     5321    4                       IF VALUE.SIZE > 2
      124     5322    5                       THEN DO;
      125     5323    5                            S_D.ERROR = E@LARGEINST; /* E@LARGEINST */
      126     5324    5                            GOTO EVERR;
      127     5325    5                          END;
      128     5326    4                       ELSE IF VALUE.SIZE = 1
      129     5327    5                            THEN DO;
      130     5328    5                                 S_D.L$.L6_VALUE.OPS(0) = VALUE.VAL.L;
      131     5329    5                                 S_D.L$.SIZE = 16;
      132     5330    5                               END;
      133     5331    5                            ELSE DO;
      134     5332    5                                 S_D.L$.L6_VALUE.OPS(0) = VALUE.VAL.L6V1.R16;
      135     5333    5                                 S_D.L$.L6_VALUE.OPS(1) = VALUE.VAL.L6V2.R16;
      136     5334    5                                 S_D.L$.SIZE = 32;
      137     5335    5                                 VALUE.VAL.L6V1.L16 = VALUE.VAL.L6V1.R16;
      138     5336    5                                 VALUE.VAL.L6V1.R16 = VALUE.VAL.L6V2.R16;
      139     5337    5                                 VALUE.VAL.L6V1 = VALUE.VAL.L6V1 & '037777777777'O;
      140     5338    5                               END;
      141     5339    4                     END;
      142     5340    4                  ELSE DO;
      143     5341    4                       IF S_D.RUM OR
PL6.E3A0      #001=DDA$EVAL File=DDA$EVAL.:E05TSI                                TUE 07/29/97 13:27 Page:5
      144     5342    4                         (ZITEM.ADDR_TYPE = %SPEC_ACODE AND
      145     5343    4                         (ZITEM.SP.VS.ID = %O_RTN OR
      146     5344    4                         ZITEM.SP.VS.ID = %I_RTN OR
      147     5345    4                         ZITEM.SP.VS.ID = %L_RTN OR
      148     5346    4                         ZITEM.SP.VS.ID = %@_RTN OR
      149     5347    4                         ZITEM.SP.VS.ID = %@@_RTN OR
      150     5348    4                         ZITEM.SP.VS.ID = %#_RTN OR
      151     5349    4                         ZITEM.SP.VS.ID = %##_RTN OR
      152     5350    4                         ZITEM.SP.VS.ID = %RI_RTN OR
      153     5351    4                         ZITEM.SP.VS.ID = %NA_RTN OR
      154     5352    4                         ZITEM.SP.VS.ID = %IC_RTN OR
      155     5353    4                         ZITEM.SP.VS.ID = %FMASK_RTN OR
      156     5354    4                         ZITEM.SP.VS.ID = %FRANGE_RTN))
      157     5355    4                       THEN CALL DDK$EVAL ( ADDRESS, SEG, DESC#, NOT_IS )
      158     5356    4                              ALTRET ( EVERR );
      159     5357    4                       ELSE CALL DFK$EVAL ( VALUE, ADDRESS, SEG, DESC#, NOT_IS,
      160     5358    4                              DUM1, DUM2, '0'B ) ALTRET ( EVERR );
      161     5359    4                       IF BITBIN ( BINBIT ( ADDRESS, 36 ) & '037777600000'O ) > 1
      162     5360    5                       THEN DO;
      163     5361    5                            S_D.L$.L6_VALUE.OPS(0) = L6ADR.L16;
      164     5362    5                            S_D.L$.L6_VALUE.OPS(1) = L6ADR.R16;
      165     5363    5                            S_D.L$.SIZE = 32;
      166     5364    5                          END;
      167     5365    5                       ELSE DO;
      168     5366    5                            S_D.L$.L6_VALUE.OPS(0) = ADDRESS;
      169     5367    5                            S_D.L$.SIZE = 16;
      170     5368    5                          END;
      171     5369    4                       VALUE.VAL.L = ADDRESS;
      172     5370    4                     END;
      173     5371    3                END;
      174     5372    3             ELSE DO;
      175     5373    3                  IF S_D.L$.SIZE > 32
      176     5374    4                  THEN DO;
      177     5375    4                       S_D.ERROR = E@TOOLARGE; /* E@TOOLARGE */
      178     5376    4                       GOTO EVERR;
      179     5377    4                     END;
      180     5378    4                  ELSE DO;
PL6.E3A0      #001=DDA$EVAL File=DDA$EVAL.:E05TSI                                TUE 07/29/97 13:27 Page:6
      181     5379    4                       IF S_D.L$.SIZE > 16
      182     5380    5                       THEN DO;
      183     5381    5                            VALUE.VAL.L6V1.L16 = S_D.L$.L6_VALUE.OPS(0);
      184     5382    5                            VALUE.VAL.L6V1.R16 = S_D.L$.L6_VALUE.OPS(1);
      185     5383    5                          END;
      186     5384    4                       ELSE VALUE.VAL.L = S_D.L$.L6_VALUE.OPS(0);
      187     5385    4                     END;
      188     5386    3                  NOT_IS = '0'B;
      189     5387    3                END;
      190     5388    2          CASE ( ELSE );
      191     5389    2             S_D.ERROR = E@DELBUG;
      192     5390    2             GOTO EVERR;
      193     5391    2          END;
      194     5392    1        S_D.D$ = ADDR(S_D.OUTPUT);
      195     5393    1        S_D.DESCL$ = PINCRC(S_D.D$, LENGTHC(S_D.OUTPUT));
      196     5394    1        IF S_D.DO$ -> EVAL$CMD.SACT
      197     5395    2        THEN DO;
      198     5396    2             S_D.D$ -> CHAR1 = ' ';
      199     5397    2             CALL DDR$BUMPC_D$( 1 ) ALTRET(EVERR);
      200     5398    2           END;
      201     5399    2        ELSE DO;
      202     5400    2             S_D.D$ -> CHAR3 = ' = ';
      203     5401    2             CALL DDR$BUMPC_D$( 3 ) ALTRET(EVERR);
      204     5402    2           END;
      205     5403    1        CALL DDA$DISPADR(VALUE.VAL.L, SEG, DESC#, NOT_IS, FMT,,S_D.L$.SIZE ) ALTRET(
              5403                 EVERR);
      206     5404    1        IF D_XDELTA OR NOT S_D.DO$ -> EVAL$CMD.SACT
      207     5405    1        THEN CALL DDQ$WRITENC(ADDR(S_D.OUTPUT), POFFC(S_D.D$, ADDR(S_D.OUTPUT)));
      208     5406    1        ELSE CALL DDQ$WRITENU(ADDR(S_D.OUTPUT), POFFC(S_D.D$, ADDR(S_D.OUTPUT)));
      209     5407    1        RETURN;
      210     5408    1   EVERR:
      211     5409    1        ALTRETURN;
      212     5410    1   END DDA$EVAL;

PL6.E3A0      #001=DDA$EVAL File=DDA$EVAL.:E05TSI                                TUE 07/29/97 13:27 Page:7
--  Include file information  --

   DD_SD_M.:E05TOU  is referenced.
   XUH_MACRO_C.:E05TOU  is referenced.
   DD_SRTN_C.:E05TOU  is referenced.
   DD_ACODE_C.:E05TOU  is referenced.
   DD_ICODE_C.:E05TOU  is referenced.
   DD$DITEM.:E05TOU  cannot be made into a system file and is referenced.
   DD$BASED.:E05TOU  is referenced.
   DD_ERR_C.:E05TOU  is referenced.
   B$JIT_C.:E05TOU  was found in the system file and is never referenced.
   CP_6_C.:E05TOU  was found in the system file and is never referenced.
      No diagnostics issued in procedure DDA$EVAL.

   Procedure DDA$EVAL requires 362 words for executable code.
   Procedure DDA$EVAL requires 42 words of local(AUTO) storage.

    No errors detected in file DDA$EVAL.:E05TSI    .

PL6.E3A0      #001=DDA$EVAL File=DDA$EVAL.:E05TSI                                TUE 07/29/97 13:27 Page:8

 Object Unit name= DDA$EVAL                                   File name= DDA$EVAL.:E05TOU
 UTS= JUL 29 '97 13:27:40.12 TUE                              Compiler= PL-6/E31         Sev=      00
 SharedLib= :SHARED_SYSTEM                                    Alt SharedLib=


    ****  Control sections  ****

 Sect   Type Bound  Init  Size OctSiz  Section name(segment info)
    0  RoData even  UTS      3      3  DDA$EVAL
    1   Proc  even  none   362    552  DDA$EVAL
    2  RoData even  none     4      4  DDA$EVAL

    ****  Entry defs  ****

                              Check   Calling
                             calling  sequence
  Sect OctLoc Primary Altret sequence   type   Parms  Name
     1      0   yes    yes     yes      Std        0  DDA$EVAL

  ****  Entry refs  ****

         Check        Calling
        calling       sequence
Altret sequence SRef   type   Args  Name
 yes     yes           Std       6 DDK$EVAL
 yes     yes           Std       4 DFS$INSTR
 yes     yes           Std       8 DFK$EVAL
 yes     yes           Std       1 DDR$BUMPC_D$
 yes     yes           Std       7 DDA$DISPADR
         yes           Std       2 DDQ$WRITENC
         yes           Std       2 DDQ$WRITENU
                       nStd      0 X66_AUTO_0
                       Std       0 B_CONSPOOL_D
                       nStd      0 X66_AALT
                       nStd      0 X66_ARET
PL6.E3A0      #001=DDA$EVAL File=DDA$EVAL.:E05TSI                                TUE 07/29/97 13:27 Page:9

  ****  Data refs  ****

  Flags:  r = read only, s = secondary
Flgs Name                             Flgs Name                             Flgs Name
     D_XDELTA                         r    S_D$                                  B_VECTNIL

  ****  Segment refs  ****

  Flags:  r = read only, s = secondary
Flgs Name                             Flgs Name                             Flgs Name
     ISSID
PL6.E3A0      #001=DDA$EVAL File=DDA$EVAL.:E05TSI                                TUE 07/29/97 13:27 Page:10


        1        1        /*M*  DDA$EVAL  - DO routine for EVAL command */
        2        2        /*T***********************************************************/
        3        3        /*T*                                                         */
        4        4        /*T* Copyright (c) Bull HN Information Systems Inc., 1997    */
        5        5        /*T*                                                         */
        6        6        /*T***********************************************************/
        7        7        /*X* DMR,PLM=5,IND=5,CSU=3,EXM=0,ECU=3,MCL=4,DCI=5,CRT=5  */
        8        8        /*F*  NAME: DDA$EVAL
        9        9              PURPOSE:  To evaluate a generalized data reference, printing
       10       10                  the address of the item described.
       11       11              DESCRIPTION:  DDA$EVAL calls on DDK$EVAL to resolve a data
       12       12                  description to segment identification and offset
       13       13                  information.  For non-IS segments, this is printed
       14       14                  in segid -> offset format. For
       15       15                  values within the instruction segment, the value (address)
       16       16                  is printed in the specified format (default is OCTAL for
       17       17                  Host users and HEX for L6 users). */
       18       18        DDA$EVAL: PROC ALTRET;

     18  1 000000   000000 700200 xent  DDA$EVAL     TSX0  ! X66_AUTO_0
         1 000001   000052 000000                    ZERO    42,0

       19       19          /* Locals */
       20       20    1   DCL ADDRESS SBIN;
       21       21    1   DCL 1 ADR REDEF ADDRESS,
       22       22    1         2 UHALF UBIN HALF HALIGNED,
       23       23    1         2 LHALF UBIN HALF HALIGNED;
       24       24    1   DCL 1 L6ADR REDEF ADDRESS,
       25       25    1         2 * BIT(4) UNAL,
       26       26    1         2 L16 UBIN(16) UNAL,
       27       27    1         2 R16 UBIN(16) UNAL;
       28       28    1   DCL SEG UBIN;
       29       29    1   DCL DESC# UBIN;
       30       30    1   DCL NOT_IS BIT(1);
       31       31    1   DCL 1 VALUE DALIGNED,
       32       32    1         2 SIZE UBIN UNAL,
PL6.E3A0      #001=DDA$EVAL File=DDA$EVAL.:E05TSI                                TUE 07/29/97 13:27 Page:11
       33       33    1         2 VAL,
       34       34    1           3 L UBIN UNAL,
       35       35    1           3 V REDEF L,
       36       36    1             4 ADR UBIN(18) UNAL,
       37       37    1             4 PADR REDEF ADR,
       38       38    1               5 PNTR UBIN(3) UNAL,
       39       39    1               5 OFFSET UBIN(15) UNAL,
       40       40    1             4 * UBIN(11) UNAL,
       41       41    1             4 BIT29 BIT(1) UNAL,
       42       42    1             4 * UBIN(6) UNAL,
       43       43    1           3 L6V1 REDEF L,
       44       44    1             4 * BIT(4) UNAL,
       45       45    1             4 L16 UBIN(16) UNAL,
       46       46    1             4 R16 UBIN(16) UNAL,
       47       47    1           3 R UBIN UNAL,
       48       48    1           3 L6V2 REDEF R,
       49       49    1             4 * BIT(4) UNAL,
       50       50    1             4 L16 UBIN(16) UNAL,
       51       51    1             4 R16 UBIN(16) UNAL,
       52       52    1           3 * (0:13) UBIN UNAL;
       53       53    1   DCL FMT UBIN;
       54       54    1   DCL D_XDELTA BIT(1) SYMREF;
       55       55          /* Misc */
       56       56    1   DCL UBIN36 UBIN BASED;
       57       57    1   DCL DUM1 UBIN;
       58       58    1   DCL DUM2 UBIN;
       59       59    1   DCL CHAR1 CHAR(1) BASED;
       60       60    1   DCL CHAR3 CHAR(3) BASED;
       61       61        %INCLUDE DD_ERR_C;
       62      458        %INCLUDE DD$BASED;
       63     1761        %INCLUDE DD$DITEM;
       12+    1864             %LIST;
       13+    1865    1        DCL SDD$ PTR;
       14+    1866    1        DCL ZITEM$ PTR;
       15+    1867    1        DCL SDD_L6$ PTR;
       16+    1868    1        DCL ZITEM_L6$ PTR;
       64     2442        %ZITEM;
PL6.E3A0      #001=DDA$EVAL File=DDA$EVAL.:E05TSI                                TUE 07/29/97 13:27 Page:12
       65     2514        %EVAL$CMD(STCLASS=BASED);
       66     2529        %PLIST;
       67     2530        %INCLUDE XUH_MACRO_C;
       68     2614        %INCLUDE DD_SD_M;
       69     3950        %S_D;
       70     5268          /* External routines */
       71     5269    1   DCL DDK$EVAL ENTRY(6) ALTRET;
       72     5270    1   DCL DDA$DISPADR ENTRY(7) ALTRET;
       73     5271    1   DCL DDQ$WRITENC ENTRY(2);
       74     5272    1   DCL DDQ$WRITENU ENTRY(2);
       75     5273    1   DCL DDR$BUMPC_D$ ENTRY(1) ALTRET;
       76     5274    1   DCL DFS$INSTR ENTRY(4) ALTRET;
       77     5275    1   DCL DFK$EVAL ENTRY(8) ALTRET;
       78     5276                                                /**/
       79     5277    1        VALUE = '0'B;

   5277  1 000002   000100 100400                    MLR     fill='000'O
         1 000003   000002 000001 xsym               ADSC9   B_VECTNIL+2              cn=0,n=1
         1 000004   200010 000104                    ADSC9   VALUE,,AUTO              cn=0,n=68

       80     5278    1        IF S_D.DO$->EVAL$CMD.INSTR

   5278  1 000005   000000 470400 xsym               LDP0    S_D$
         1 000006   000031 471500                    LDP1    25,,PR0
         1 000007   100001 234100                    SZN     1,,PR1
         1 000010   000025 605000 1                  TPL     s:5285

       81     5279    1        THEN IF S_D.ONE_TO_TWO.EXEC_DOMAIN = %HOST

   5279  1 000011   006714 235100                    LDA     3532,,PR0
         1 000012   000001 115007                    CMPA    1,DL
         1 000013   000023 601000 1                  TNZ     s:5284

       82     5280    2             THEN DO;

       83     5281    2                  VALUE.VAL.L = S_D.D$ -> UBIN36;

PL6.E3A0      #001=DDA$EVAL File=DDA$EVAL.:E05TSI                                TUE 07/29/97 13:27 Page:13
   5281  1 000014   000044 473500                    LDP3    36,,PR0
         1 000015   300000 235100                    LDA     0,,PR3
         1 000016   200011 755100                    STA     VALUE+1,,AUTO

       84     5282    2                  S_D.DESC$ = PINCRW(S_D.D$, 1);

   5282  1 000017   000044 236100                    LDQ     36,,PR0
         1 000020   000001 036003                    ADLQ    1,DU
         1 000021   000041 756100                    STQ     33,,PR0

       85     5283    2                END;

   5283  1 000022   000025 710000 1                  TRA     s:5285

       86     5284    1             ELSE S_D.DESC$ = S_D.D$;

   5284  1 000023   000044 236100                    LDQ     36,,PR0
         1 000024   000041 756100                    STQ     33,,PR0

       87     5285    1        ZITEM$ = S_D.DESC$;

   5285  1 000025   000041 236100                    LDQ     33,,PR0
         1 000026   200036 756100                    STQ     ZITEM$,,AUTO

       88     5286    1        FMT = S_D.DO$ -> EVAL$CMD.FMT;

   5286  1 000027   100001 236100                    LDQ     1,,PR1
         1 000030   000011 772000                    QRL     9
         1 000031   000777 376007                    ANQ     511,DL
         1 000032   200032 756100                    STQ     FMT,,AUTO

       89     5287    1        IF FMT = %DEFAULT_FMT

   5287  1 000033   000037 116007                    CMPQ    31,DL
         1 000034   000037 601000 1                  TNZ     s:5289

       90     5288    1        THEN FMT = S_D.EFMT_DEFAULT;
PL6.E3A0      #001=DDA$EVAL File=DDA$EVAL.:E05TSI                                TUE 07/29/97 13:27 Page:14

   5288  1 000035   004736 235100                    LDA     2526,,PR0
         1 000036   200032 755100                    STA     FMT,,AUTO

       91     5289    2        DO CASE ( S_D.ONE_TO_TWO.EXEC_DOMAIN );

   5289  1 000037   006714 235100                    LDA     3532,,PR0
         1 000040   000003 115007                    CMPA    3,DL
         1 000041   000043 602005 1                  TNC     s:5289+4,AL
         1 000042   000405 710000 1                  TRA     s:5389
         1 000043   000405 710000 1                  TRA     s:5389
         1 000044   000046 710000 1                  TRA     s:5291
         1 000045   000137 710000 1                  TRA     s:5316

       92     5290    2          CASE ( %HOST );

       93     5291    2             IF S_D.DO$ -> EVAL$CMD.DDESC

   5291  1 000046   000031 471500                    LDP1    25,,PR0
         1 000047   100001 236100                    LDQ     1,,PR1
         1 000050   200000 316003                    CANQ    65536,DU
         1 000051   000132 600000 1                  TZE     s:5312

       94     5292    3             THEN DO;

       95     5293    3                  CALL DDK$EVAL(ADDRESS, SEG, DESC#, NOT_IS) ALTRET(EVERR);

   5293  1 000052   200006 633500                    EPPR3   NOT_IS,,AUTO
         1 000053   200045 453500                    STP3    ZITEM$+7,,AUTO
         1 000054   200005 631500                    EPPR1   DESC#,,AUTO
         1 000055   200044 451500                    STP1    ZITEM$+6,,AUTO
         1 000056   200004 634500                    EPPR4   SEG,,AUTO
         1 000057   200043 454500                    STP4    ZITEM$+5,,AUTO
         1 000060   200003 635500                    EPPR5   ADDRESS,,AUTO
         1 000061   200042 455500                    STP5    ZITEM$+4,,AUTO
         1 000062   200042 630500                    EPPR0   ZITEM$+4,,AUTO
         1 000063   000022 631400 xsym               EPPR1   B_VECTNIL+18
PL6.E3A0      #001=DDA$EVAL File=DDA$EVAL.:E05TSI                                TUE 07/29/97 13:27 Page:15
         1 000064   000000 701000 xent               TSX1    DDK$EVAL
         1 000065   000551 702000 1                  TSX2    EVERR

       96     5294    3                  IF S_D.DO$->EVAL$CMD.INSTR

   5294  1 000066   000000 470400 xsym               LDP0    S_D$
         1 000067   000031 471500                    LDP1    25,,PR0
         1 000070   100001 234100                    SZN     1,,PR1
         1 000071   000123 605000 1                  TPL     s:5307

       97     5295    4                  THEN DO;

       98     5296    4                       ADR.UHALF = 0;

   5296  1 000072   000000 220003                    LDX0    0,DU
         1 000073   200003 740100                    STX0    ADDRESS,,AUTO

       99     5297    4                       IF NOT_IS

   5297  1 000074   200006 234100                    SZN     NOT_IS,,AUTO
         1 000075   000101 605000 1                  TPL     s:5302

      100     5298    5                       THEN DO;

      101     5299    5                            S_D.ERROR = E@CANTEVAL; /* E@CANTEVAL */

   5299  1 000076   000072 235007                    LDA     58,DL
         1 000077   000013 755100                    STA     11,,PR0

      102     5300    5                            ALTRETURN;

   5300  1 000100   000000 702200 xent               TSX2  ! X66_AALT

      103     5301    5                          END;
      104     5302    4                       IF ( VALUE.VAL.V.BIT29 AND NOT S_D.DO$->EVAL$CMD.IGNPR ) OR

   5302  1 000101   200011 236100                    LDQ     VALUE+1,,AUTO
PL6.E3A0      #001=DDA$EVAL File=DDA$EVAL.:E05TSI                                TUE 07/29/97 13:27 Page:16
         1 000102   000100 316007                    CANQ    64,DL
         1 000103   000107 600000 1                  TZE     s:5302+6
         1 000104   100001 236100                    LDQ     1,,PR1
         1 000105   100000 316003                    CANQ    32768,DU
         1 000106   000112 600000 1                  TZE     s:5304
         1 000107   100001 236100                    LDQ     1,,PR1
         1 000110   040000 316003                    CANQ    16384,DU
         1 000111   000120 600000 1                  TZE     s:5305

      105     5303    4                         ( S_D.DO$->EVAL$CMD.AWDX )
      106     5304    4                       THEN VALUE.VAL.V.PADR.OFFSET = ADDRESS;

   5304  1 000112   200003 236100                    LDQ     ADDRESS,,AUTO
         1 000113   000022 736000                    QLS     18
         1 000114   200011 676100                    ERQ     VALUE+1,,AUTO
         1 000115   077777 376003                    ANQ     32767,DU
         1 000116   200011 656100                    ERSQ    VALUE+1,,AUTO
         1 000117   000125 710000 1                  TRA     s:5308

      107     5305    4                       ELSE VALUE.VAL.V.ADR = ADDRESS;

   5305  1 000120   200003 721100                    LXL1    ADDRESS,,AUTO
         1 000121   200011 741100                    STX1    VALUE+1,,AUTO

      108     5306    4                     END;

   5306  1 000122   000125 710000 1                  TRA     s:5308

      109     5307    3                  ELSE VALUE.VAL.L = ADDRESS;

   5307  1 000123   200003 235100                    LDA     ADDRESS,,AUTO
         1 000124   200011 755100                    STA     VALUE+1,,AUTO

      110     5308    3                  S_D.L$.VALUE.L = VALUE.VAL.L;

   5308  1 000125   200011 235100                    LDA     VALUE+1,,AUTO
         1 000126   000106 755100                    STA     70,,PR0
PL6.E3A0      #001=DDA$EVAL File=DDA$EVAL.:E05TSI                                TUE 07/29/97 13:27 Page:17

      111     5309    3                  S_D.L$.SIZE = 36;

   5309  1 000127   000044 236007                    LDQ     36,DL
         1 000130   000126 756100                    STQ     86,,PR0

      112     5310    3                END;

   5310  1 000131   000410 710000 1                  TRA     s:5392

      113     5311    3             ELSE DO;

      114     5312    3                  VALUE.VAL = S_D.L$.VALUE;

   5312  1 000132   000100 100500                    MLR     fill='000'O
         1 000133   000106 000100                    ADSC9   70,,PR0                  cn=0,n=64
         1 000134   200011 000100                    ADSC9   VALUE+1,,AUTO            cn=0,n=64

      115     5313    3                  NOT_IS = '0'B;

   5313  1 000135   200006 450100                    STZ     NOT_IS,,AUTO

      116     5314    3                END;

   5314  1 000136   000410 710000 1                  TRA     s:5392

      117     5315    2          CASE ( %L6 );

      118     5316    2             IF S_D.DO$ -> EVAL$CMD.DDESC

   5316  1 000137   000031 471500                    LDP1    25,,PR0
         1 000140   100001 236100                    LDQ     1,,PR1
         1 000141   200000 316003                    CANQ    65536,DU
         1 000142   000357 600000 1                  TZE     s:5373

      119     5317    3             THEN DO;

PL6.E3A0      #001=DDA$EVAL File=DDA$EVAL.:E05TSI                                TUE 07/29/97 13:27 Page:18
      120     5318    3                  IF S_D.DO$ -> EVAL$CMD.INSTR

   5318  1 000143   100001 234100                    SZN     1,,PR1
         1 000144   000225 605000 1                  TPL     s:5341

      121     5319    4                  THEN DO;

      122     5320    4                      CALL DFS$INSTR ( VALUE, S_D.O$.ADDRESS, '0'B ) ALTRET ( EVERR );

   5320  1 000145   000000 236000 2                  LDQ     0
         1 000146   200044 756100                    STQ     ZITEM$+6,,AUTO
         1 000147   000000 236000 xsym               LDQ     S_D$
         1 000150   000132 036003                    ADLQ    90,DU
         1 000151   200043 756100                    STQ     ZITEM$+5,,AUTO
         1 000152   200010 631500                    EPPR1   VALUE,,AUTO
         1 000153   200042 451500                    STP1    ZITEM$+4,,AUTO
         1 000154   200042 630500                    EPPR0   ZITEM$+4,,AUTO
         1 000155   000021 631400 xsym               EPPR1   B_VECTNIL+17
         1 000156   000000 701000 xent               TSX1    DFS$INSTR
         1 000157   000551 702000 1                  TSX2    EVERR

      123     5321    4                       IF VALUE.SIZE > 2

   5321  1 000160   200010 235100                    LDA     VALUE,,AUTO
         1 000161   000003 115007                    CMPA    3,DL
         1 000162   000167 602000 1                  TNC     s:5326

      124     5322    5                       THEN DO;

      125     5323    5                            S_D.ERROR = E@LARGEINST; /* E@LARGEINST */

   5323  1 000163   000500 236007                    LDQ     320,DL
         1 000164   000000 470400 xsym               LDP0    S_D$
         1 000165   000013 756100                    STQ     11,,PR0

      126     5324    5                            GOTO EVERR;

PL6.E3A0      #001=DDA$EVAL File=DDA$EVAL.:E05TSI                                TUE 07/29/97 13:27 Page:19
   5324  1 000166   000551 710000 1                  TRA     EVERR

      127     5325    5                          END;
      128     5326    4                       ELSE IF VALUE.SIZE = 1

   5326  1 000167   000001 115007                    CMPA    1,DL
         1 000170   000177 601000 1                  TNZ     s:5332

      129     5327    5                            THEN DO;

      130     5328    5                                 S_D.L$.L6_VALUE.OPS(0) = VALUE.VAL.L;

   5328  1 000171   000000 470400 xsym               LDP0    S_D$
         1 000172   200011 236100                    LDQ     VALUE+1,,AUTO
         1 000173   000106 756100                    STQ     70,,PR0

      131     5329    5                                 S_D.L$.SIZE = 16;

   5329  1 000174   000020 235007                    LDA     16,DL
         1 000175   000126 755100                    STA     86,,PR0

      132     5330    5                               END;

   5330  1 000176   000410 710000 1                  TRA     s:5392

      133     5331    5                            ELSE DO;

      134     5332    5                                 S_D.L$.L6_VALUE.OPS(0) = VALUE.VAL.L6V1.R16;

   5332  1 000177   000000 470400 xsym               LDP0    S_D$
         1 000200   200011 236100                    LDQ     VALUE+1,,AUTO
         1 000201   177777 376007                    ANQ     65535,DL
         1 000202   000106 756100                    STQ     70,,PR0

      135     5333    5                                 S_D.L$.L6_VALUE.OPS(1) = VALUE.VAL.L6V2.R16;

   5333  1 000203   200012 236100                    LDQ     VALUE+2,,AUTO
PL6.E3A0      #001=DDA$EVAL File=DDA$EVAL.:E05TSI                                TUE 07/29/97 13:27 Page:20
         1 000204   177777 376007                    ANQ     65535,DL
         1 000205   000107 756100                    STQ     71,,PR0

      136     5334    5                                 S_D.L$.SIZE = 32;

   5334  1 000206   000040 235007                    LDA     32,DL
         1 000207   000126 755100                    STA     86,,PR0

      137     5335    5                                 VALUE.VAL.L6V1.L16 = VALUE.VAL.L6V1.R16;

   5335  1 000210   200011 236100                    LDQ     VALUE+1,,AUTO
         1 000211   000020 736000                    QLS     16
         1 000212   200011 676100                    ERQ     VALUE+1,,AUTO
         1 000213   000001 376000 2                  ANQ     1
         1 000214   200011 656100                    ERSQ    VALUE+1,,AUTO

      138     5336    5                                 VALUE.VAL.L6V1.R16 = VALUE.VAL.L6V2.R16;

   5336  1 000215   200012 236100                    LDQ     VALUE+2,,AUTO
         1 000216   200011 676100                    ERQ     VALUE+1,,AUTO
         1 000217   177777 376007                    ANQ     65535,DL
         1 000220   200011 656100                    ERSQ    VALUE+1,,AUTO

      139     5337    5                                 VALUE.VAL.L6V1 = VALUE.VAL.L6V1 & '037777777777'O;

   5337  1 000221   200011 236100                    LDQ     VALUE+1,,AUTO
         1 000222   000000 376000 0                  ANQ     0
         1 000223   200011 756100                    STQ     VALUE+1,,AUTO

      140     5338    5                               END;

      141     5339    4                     END;

   5339  1 000224   000410 710000 1                  TRA     s:5392

      142     5340    4                  ELSE DO;

PL6.E3A0      #001=DDA$EVAL File=DDA$EVAL.:E05TSI                                TUE 07/29/97 13:27 Page:21
      143     5341    4                       IF S_D.RUM OR

   5341  1 000225   004755 234100                    SZN     2541,,PR0
         1 000226   000267 604000 1                  TMI     s:5355
         1 000227   200036 473500                    LDP3    ZITEM$,,AUTO
         1 000230   300006 236100                    LDQ     6,,PR3
         1 000231   000777 376003                    ANQ     511,DU
         1 000232   000101 116003                    CMPQ    65,DU
         1 000233   000304 601000 1                  TNZ     s:5357
         1 000234   300007 236100                    LDQ     7,,PR3
         1 000235   777000 316003                    CANQ    -512,DU
         1 000236   000267 600000 1                  TZE     s:5355
         1 000237   300007 236100                    LDQ     7,,PR3
         1 000240   777000 376003                    ANQ     -512,DU
         1 000241   001000 116003                    CMPQ    512,DU
         1 000242   000267 600000 1                  TZE     s:5355
         1 000243   002000 116003                    CMPQ    1024,DU
         1 000244   000267 600000 1                  TZE     s:5355
         1 000245   040000 116003                    CMPQ    16384,DU
         1 000246   000267 600000 1                  TZE     s:5355
         1 000247   041000 116003                    CMPQ    16896,DU
         1 000250   000267 600000 1                  TZE     s:5355
         1 000251   042000 116003                    CMPQ    17408,DU
         1 000252   000267 600000 1                  TZE     s:5355
         1 000253   043000 116003                    CMPQ    17920,DU
         1 000254   000267 600000 1                  TZE     s:5355
         1 000255   036000 116003                    CMPQ    15360,DU
         1 000256   000267 600000 1                  TZE     s:5355
         1 000257   037000 116003                    CMPQ    15872,DU
         1 000260   000267 600000 1                  TZE     s:5355
         1 000261   016000 116003                    CMPQ    7168,DU
         1 000262   000267 600000 1                  TZE     s:5355
         1 000263   030000 116003                    CMPQ    12288,DU
         1 000264   000267 600000 1                  TZE     s:5355
         1 000265   027000 116003                    CMPQ    11776,DU
         1 000266   000304 601000 1                  TNZ     s:5357

PL6.E3A0      #001=DDA$EVAL File=DDA$EVAL.:E05TSI                                TUE 07/29/97 13:27 Page:22
      144     5342    4                         (ZITEM.ADDR_TYPE = %SPEC_ACODE AND
      145     5343    4                         (ZITEM.SP.VS.ID = %O_RTN OR
      146     5344    4                         ZITEM.SP.VS.ID = %I_RTN OR
      147     5345    4                         ZITEM.SP.VS.ID = %L_RTN OR
      148     5346    4                         ZITEM.SP.VS.ID = %@_RTN OR
      149     5347    4                         ZITEM.SP.VS.ID = %@@_RTN OR
      150     5348    4                         ZITEM.SP.VS.ID = %#_RTN OR
      151     5349    4                         ZITEM.SP.VS.ID = %##_RTN OR
      152     5350    4                         ZITEM.SP.VS.ID = %RI_RTN OR
      153     5351    4                         ZITEM.SP.VS.ID = %NA_RTN OR
      154     5352    4                         ZITEM.SP.VS.ID = %IC_RTN OR
      155     5353    4                         ZITEM.SP.VS.ID = %FMASK_RTN OR
      156     5354    4                         ZITEM.SP.VS.ID = %FRANGE_RTN))
      157     5355    4                       THEN CALL DDK$EVAL ( ADDRESS, SEG, DESC#, NOT_IS )

   5355  1 000267   200006 633500                    EPPR3   NOT_IS,,AUTO
         1 000270   200045 453500                    STP3    ZITEM$+7,,AUTO
         1 000271   200005 631500                    EPPR1   DESC#,,AUTO
         1 000272   200044 451500                    STP1    ZITEM$+6,,AUTO
         1 000273   200004 634500                    EPPR4   SEG,,AUTO
         1 000274   200043 454500                    STP4    ZITEM$+5,,AUTO
         1 000275   200003 635500                    EPPR5   ADDRESS,,AUTO
         1 000276   200042 455500                    STP5    ZITEM$+4,,AUTO
         1 000277   200042 630500                    EPPR0   ZITEM$+4,,AUTO
         1 000300   000022 631400 xsym               EPPR1   B_VECTNIL+18
         1 000301   000000 701000 xent               TSX1    DDK$EVAL
         1 000302   000551 702000 1                  TSX2    EVERR
         1 000303   000330 710000 1                  TRA     s:5359

      158     5356    4                              ALTRET ( EVERR );
      159     5357    4                       ELSE CALL DFK$EVAL ( VALUE, ADDRESS, SEG, DESC#, NOT_IS,

   5357  1 000304   000000 236000 2                  LDQ     0
         1 000305   200051 756100                    STQ     ZITEM$+11,,AUTO
         1 000306   200034 631500                    EPPR1   DUM2,,AUTO
         1 000307   200050 451500                    STP1    ZITEM$+10,,AUTO
         1 000310   200033 634500                    EPPR4   DUM1,,AUTO
PL6.E3A0      #001=DDA$EVAL File=DDA$EVAL.:E05TSI                                TUE 07/29/97 13:27 Page:23
         1 000311   200047 454500                    STP4    ZITEM$+9,,AUTO
         1 000312   200006 635500                    EPPR5   NOT_IS,,AUTO
         1 000313   200046 455500                    STP5    ZITEM$+8,,AUTO
         1 000314   200005 636500                    EPPR6   DESC#,,AUTO
         1 000315   200045 456500                    STP6    ZITEM$+7,,AUTO
         1 000316   200004 637500                    EPPR7   SEG,,AUTO
         1 000317   200044 457500                    STP7    ZITEM$+6,,AUTO
         1 000320   200003 630500                    EPPR0   ADDRESS,,AUTO
         1 000321   200043 450500                    STP0    ZITEM$+5,,AUTO
         1 000322   200010 630500                    EPPR0   VALUE,,AUTO
         1 000323   200042 450500                    STP0    ZITEM$+4,,AUTO
         1 000324   200042 630500                    EPPR0   ZITEM$+4,,AUTO
         1 000325   000026 631400 xsym               EPPR1   B_VECTNIL+22
         1 000326   000000 701000 xent               TSX1    DFK$EVAL
         1 000327   000551 702000 1                  TSX2    EVERR

      160     5358    4                              DUM1, DUM2, '0'B ) ALTRET ( EVERR );
      161     5359    4                       IF BITBIN ( BINBIT ( ADDRESS, 36 ) & '037777600000'O ) > 1

   5359  1 000330   200003 236100                    LDQ     ADDRESS,,AUTO
         1 000331   000001 376000 0                  ANQ     1
         1 000332   000002 116007                    CMPQ    2,DL
         1 000333   000347 602000 1                  TNC     s:5366

      162     5360    5                       THEN DO;

      163     5361    5                            S_D.L$.L6_VALUE.OPS(0) = L6ADR.L16;

   5361  1 000334   000000 470400 xsym               LDP0    S_D$
         1 000335   200003 236100                    LDQ     ADDRESS,,AUTO
         1 000336   000020 772000                    QRL     16
         1 000337   177777 376007                    ANQ     65535,DL
         1 000340   000106 756100                    STQ     70,,PR0

      164     5362    5                            S_D.L$.L6_VALUE.OPS(1) = L6ADR.R16;

   5362  1 000341   200003 236100                    LDQ     ADDRESS,,AUTO
PL6.E3A0      #001=DDA$EVAL File=DDA$EVAL.:E05TSI                                TUE 07/29/97 13:27 Page:24
         1 000342   177777 376007                    ANQ     65535,DL
         1 000343   000107 756100                    STQ     71,,PR0

      165     5363    5                            S_D.L$.SIZE = 32;

   5363  1 000344   000040 235007                    LDA     32,DL
         1 000345   000126 755100                    STA     86,,PR0

      166     5364    5                          END;

   5364  1 000346   000354 710000 1                  TRA     s:5369

      167     5365    5                       ELSE DO;

      168     5366    5                            S_D.L$.L6_VALUE.OPS(0) = ADDRESS;

   5366  1 000347   200003 235100                    LDA     ADDRESS,,AUTO
         1 000350   000000 470400 xsym               LDP0    S_D$
         1 000351   000106 755100                    STA     70,,PR0

      169     5367    5                            S_D.L$.SIZE = 16;

   5367  1 000352   000020 236007                    LDQ     16,DL
         1 000353   000126 756100                    STQ     86,,PR0

      170     5368    5                          END;

      171     5369    4                       VALUE.VAL.L = ADDRESS;

   5369  1 000354   200003 235100                    LDA     ADDRESS,,AUTO
         1 000355   200011 755100                    STA     VALUE+1,,AUTO

      172     5370    4                     END;

      173     5371    3                END;

   5371  1 000356   000410 710000 1                  TRA     s:5392
PL6.E3A0      #001=DDA$EVAL File=DDA$EVAL.:E05TSI                                TUE 07/29/97 13:27 Page:25

      174     5372    3             ELSE DO;

      175     5373    3                  IF S_D.L$.SIZE > 32

   5373  1 000357   000126 235100                    LDA     86,,PR0
         1 000360   000040 115007                    CMPA    32,DL
         1 000361   000365 604400 1                  TMOZ    s:5379

      176     5374    4                  THEN DO;

      177     5375    4                       S_D.ERROR = E@TOOLARGE; /* E@TOOLARGE */

   5375  1 000362   000056 235007                    LDA     46,DL
         1 000363   000013 755100                    STA     11,,PR0

      178     5376    4                       GOTO EVERR;

   5376  1 000364   000551 710000 1                  TRA     EVERR

      179     5377    4                     END;
      180     5378    4                  ELSE DO;

      181     5379    4                       IF S_D.L$.SIZE > 16

   5379  1 000365   000020 115007                    CMPA    16,DL
         1 000366   000401 604400 1                  TMOZ    s:5384

      182     5380    5                       THEN DO;

      183     5381    5                            VALUE.VAL.L6V1.L16 = S_D.L$.L6_VALUE.OPS(0);

   5381  1 000367   000106 236100                    LDQ     70,,PR0
         1 000370   000020 736000                    QLS     16
         1 000371   200011 676100                    ERQ     VALUE+1,,AUTO
         1 000372   000001 376000 2                  ANQ     1
         1 000373   200011 656100                    ERSQ    VALUE+1,,AUTO
PL6.E3A0      #001=DDA$EVAL File=DDA$EVAL.:E05TSI                                TUE 07/29/97 13:27 Page:26

      184     5382    5                            VALUE.VAL.L6V1.R16 = S_D.L$.L6_VALUE.OPS(1);

   5382  1 000374   000107 236100                    LDQ     71,,PR0
         1 000375   200011 676100                    ERQ     VALUE+1,,AUTO
         1 000376   177777 376007                    ANQ     65535,DL
         1 000377   200011 656100                    ERSQ    VALUE+1,,AUTO

      185     5383    5                          END;

   5383  1 000400   000403 710000 1                  TRA     s:5386

      186     5384    4                       ELSE VALUE.VAL.L = S_D.L$.L6_VALUE.OPS(0);

   5384  1 000401   000106 235100                    LDA     70,,PR0
         1 000402   200011 755100                    STA     VALUE+1,,AUTO

      187     5385    4                     END;

      188     5386    3                  NOT_IS = '0'B;

   5386  1 000403   200006 450100                    STZ     NOT_IS,,AUTO

      189     5387    3                END;

   5387  1 000404   000410 710000 1                  TRA     s:5392

      190     5388    2          CASE ( ELSE );

      191     5389    2             S_D.ERROR = E@DELBUG;

   5389  1 000405   000766 236007                    LDQ     502,DL
         1 000406   000013 756100                    STQ     11,,PR0

      192     5390    2             GOTO EVERR;

   5390  1 000407   000551 710000 1                  TRA     EVERR
PL6.E3A0      #001=DDA$EVAL File=DDA$EVAL.:E05TSI                                TUE 07/29/97 13:27 Page:27

      193     5391    2          END;

      194     5392    1        S_D.D$ = ADDR(S_D.OUTPUT);

   5392  1 000410   000000 236000 xsym               LDQ     S_D$
         1 000411   005335 036003                    ADLQ    2781,DU
         1 000412   000044 756100                    STQ     36,,PR0

      195     5393    1        S_D.DESCL$ = PINCRC(S_D.D$, LENGTHC(S_D.OUTPUT));

   5393  1 000413   001000 036003                    ADLQ    512,DU
         1 000414   000042 756100                    STQ     34,,PR0

      196     5394    1        IF S_D.DO$ -> EVAL$CMD.SACT

   5394  1 000415   000031 471500                    LDP1    25,,PR0
         1 000416   100001 236100                    LDQ     1,,PR1
         1 000417   000400 316007                    CANQ    256,DL
         1 000420   000432 600000 1                  TZE     s:5400

      197     5395    2        THEN DO;

      198     5396    2             S_D.D$ -> CHAR1 = ' ';

   5396  1 000421   000044 473500                    LDP3    36,,PR0
         1 000422   040100 100400                    MLR     fill='040'O
         1 000423   000035 000001 xsym               ADSC9   B_VECTNIL+29             cn=0,n=1
         1 000424   300000 000001                    ADSC9   0,,PR3                   cn=0,n=1

      199     5397    2             CALL DDR$BUMPC_D$( 1 ) ALTRET(EVERR);

   5397  1 000425   000002 630400 2                  EPPR0   2
         1 000426   000017 631400 xsym               EPPR1   B_VECTNIL+15
         1 000427   000000 701000 xent               TSX1    DDR$BUMPC_D$
         1 000430   000551 702000 1                  TSX2    EVERR

PL6.E3A0      #001=DDA$EVAL File=DDA$EVAL.:E05TSI                                TUE 07/29/97 13:27 Page:28
      200     5398    2           END;

   5398  1 000431   000442 710000 1                  TRA     s:5403

      201     5399    2        ELSE DO;

      202     5400    2             S_D.D$ -> CHAR3 = ' = ';

   5400  1 000432   000044 473500                    LDP3    36,,PR0
         1 000433   040100 100400                    MLR     fill='040'O
         1 000434   000002 000003 0                  ADSC9   2                        cn=0,n=3
         1 000435   300000 000003                    ADSC9   0,,PR3                   cn=0,n=3

      203     5401    2             CALL DDR$BUMPC_D$( 3 ) ALTRET(EVERR);

   5401  1 000436   000003 630400 2                  EPPR0   3
         1 000437   000017 631400 xsym               EPPR1   B_VECTNIL+15
         1 000440   000000 701000 xent               TSX1    DDR$BUMPC_D$
         1 000441   000551 702000 1                  TSX2    EVERR

      204     5402    2           END;

      205     5403    1        CALL DDA$DISPADR(VALUE.VAL.L, SEG, DESC#, NOT_IS, FMT,,S_D.L$.SIZE ) ALTRET(
              5403                 EVERR);

   5403  1 000442   000000 236000 xsym               LDQ     S_D$
         1 000443   000126 036003                    ADLQ    86,DU
         1 000444   200050 756100                    STQ     ZITEM$+10,,AUTO
         1 000445   000001 236000 xsym               LDQ     B_VECTNIL+1
         1 000446   200047 756100                    STQ     ZITEM$+9,,AUTO
         1 000447   200032 630500                    EPPR0   FMT,,AUTO
         1 000450   200046 450500                    STP0    ZITEM$+8,,AUTO
         1 000451   200006 631500                    EPPR1   NOT_IS,,AUTO
         1 000452   200045 451500                    STP1    ZITEM$+7,,AUTO
         1 000453   200005 633500                    EPPR3   DESC#,,AUTO
         1 000454   200044 453500                    STP3    ZITEM$+6,,AUTO
         1 000455   200004 634500                    EPPR4   SEG,,AUTO
PL6.E3A0      #001=DDA$EVAL File=DDA$EVAL.:E05TSI                                TUE 07/29/97 13:27 Page:29
         1 000456   200043 454500                    STP4    ZITEM$+5,,AUTO
         1 000457   200011 635500                    EPPR5   VALUE+1,,AUTO
         1 000460   200042 455500                    STP5    ZITEM$+4,,AUTO
         1 000461   200042 630500                    EPPR0   ZITEM$+4,,AUTO
         1 000462   000025 631400 xsym               EPPR1   B_VECTNIL+21
         1 000463   000000 701000 xent               TSX1    DDA$DISPADR
         1 000464   000551 702000 1                  TSX2    EVERR

      206     5404    1        IF D_XDELTA OR NOT S_D.DO$ -> EVAL$CMD.SACT

   5404  1 000465   000000 234000 xsym               SZN     D_XDELTA
         1 000466   000474 604000 1                  TMI     s:5405
         1 000467   000000 470400 xsym               LDP0    S_D$
         1 000470   000031 471500                    LDP1    25,,PR0
         1 000471   100001 236100                    LDQ     1,,PR1
         1 000472   000400 316007                    CANQ    256,DL
         1 000473   000523 601000 1                  TNZ     s:5406

      207     5405    1        THEN CALL DDQ$WRITENC(ADDR(S_D.OUTPUT), POFFC(S_D.D$, ADDR(S_D.OUTPUT)));

   5405  1 000474   000000 236000 xsym               LDQ     S_D$
         1 000475   005335 036003                    ADLQ    2781,DU
         1 000476   000020 772000                    QRL     16
         1 000477   200042 756100                    STQ     ZITEM$+4,,AUTO
         1 000500   000000 470400 xsym               LDP0    S_D$
         1 000501   000044 236100                    LDQ     36,,PR0
         1 000502   000020 772000                    QRL     16
         1 000503   200042 136100                    SBLQ    ZITEM$+4,,AUTO
         1 000504   200044 756100                    STQ     ZITEM$+6,,AUTO
         1 000505   000000 236000 xsym               LDQ     S_D$
         1 000506   005335 036003                    ADLQ    2781,DU
         1 000507   200043 756100                    STQ     ZITEM$+5,,AUTO
         1 000510   200044 235100                    LDA     ZITEM$+6,,AUTO
         1 000511   200045 755100                    STA     ZITEM$+7,,AUTO
         1 000512   200045 631500                    EPPR1   ZITEM$+7,,AUTO
         1 000513   200047 451500                    STP1    ZITEM$+9,,AUTO
         1 000514   200043 633500                    EPPR3   ZITEM$+5,,AUTO
PL6.E3A0      #001=DDA$EVAL File=DDA$EVAL.:E05TSI                                TUE 07/29/97 13:27 Page:30
         1 000515   200046 453500                    STP3    ZITEM$+8,,AUTO
         1 000516   200046 630500                    EPPR0   ZITEM$+8,,AUTO
         1 000517   000020 631400 xsym               EPPR1   B_VECTNIL+16
         1 000520   000000 701000 xent               TSX1    DDQ$WRITENC
         1 000521   000000 011000                    NOP     0
         1 000522   000550 710000 1                  TRA     s:5407

      208     5406    1        ELSE CALL DDQ$WRITENU(ADDR(S_D.OUTPUT), POFFC(S_D.D$, ADDR(S_D.OUTPUT)));

   5406  1 000523   000000 236000 xsym               LDQ     S_D$
         1 000524   005335 036003                    ADLQ    2781,DU
         1 000525   000020 772000                    QRL     16
         1 000526   200042 756100                    STQ     ZITEM$+4,,AUTO
         1 000527   000044 236100                    LDQ     36,,PR0
         1 000530   000020 772000                    QRL     16
         1 000531   200042 136100                    SBLQ    ZITEM$+4,,AUTO
         1 000532   200044 756100                    STQ     ZITEM$+6,,AUTO
         1 000533   000000 236000 xsym               LDQ     S_D$
         1 000534   005335 036003                    ADLQ    2781,DU
         1 000535   200043 756100                    STQ     ZITEM$+5,,AUTO
         1 000536   200044 235100                    LDA     ZITEM$+6,,AUTO
         1 000537   200045 755100                    STA     ZITEM$+7,,AUTO
         1 000540   200045 631500                    EPPR1   ZITEM$+7,,AUTO
         1 000541   200047 451500                    STP1    ZITEM$+9,,AUTO
         1 000542   200043 633500                    EPPR3   ZITEM$+5,,AUTO
         1 000543   200046 453500                    STP3    ZITEM$+8,,AUTO
         1 000544   200046 630500                    EPPR0   ZITEM$+8,,AUTO
         1 000545   000020 631400 xsym               EPPR1   B_VECTNIL+16
         1 000546   000000 701000 xent               TSX1    DDQ$WRITENU
         1 000547   000000 011000                    NOP     0

      209     5407    1        RETURN;

   5407  1 000550   000000 702200 xent               TSX2  ! X66_ARET

      210     5408    1   EVERR:
      211     5409    1        ALTRETURN;
PL6.E3A0      #001=DDA$EVAL File=DDA$EVAL.:E05TSI                                TUE 07/29/97 13:27 Page:31

   5409  1 000551   000000 702200 xent  EVERR        TSX2  ! X66_AALT

(unnamed)
 Sect OctLoc
   0     000   037777 777777   037777 600000   040075 040040                    ........ =

(unnamed)
 Sect OctLoc
   2     000   000002 006000   037777 600000   000003 006000   000005 006000    ................
      212     5410    1   END DDA$EVAL;

PL6.E3A0      #001=DDA$EVAL File=DDA$EVAL.:E05TSI                                TUE 07/29/97 13:27 Page:32
--  Include file information  --

   DD_SD_M.:E05TOU  is referenced.
   XUH_MACRO_C.:E05TOU  is referenced.
   DD_SRTN_C.:E05TOU  is referenced.
   DD_ACODE_C.:E05TOU  is referenced.
   DD_ICODE_C.:E05TOU  is referenced.
   DD$DITEM.:E05TOU  cannot be made into a system file and is referenced.
   DD$BASED.:E05TOU  is referenced.
   DD_ERR_C.:E05TOU  is referenced.
   B$JIT_C.:E05TOU  was found in the system file and is never referenced.
   CP_6_C.:E05TOU  was found in the system file and is never referenced.
      No diagnostics issued in procedure DDA$EVAL.

   Procedure DDA$EVAL requires 362 words for executable code.
   Procedure DDA$EVAL requires 42 words of local(AUTO) storage.

    No errors detected in file DDA$EVAL.:E05TSI    .
PL6.E3A0      #001=DDA$EVAL File=DDA$EVAL.:E05TSI                                TUE 07/29/97 13:27 Page:33
          *** CROSS REFERENCE LISTING ***
**     DENOTES     IDENTIFIER DEFINITION
<<                 IDENTIFIER'S VALUE SET
>>                 IDENTIFIER'S VALUE USED
<>                 IDENTIFIER SET AND/OR USED
--                 IDENTIFIER REFERENCED
PL6.E3A0      #001=DDA$EVAL File=DDA$EVAL.:E05TSI                                TUE 07/29/97 13:27 Page:34
          MINI XREF LISTING

ADDRESS
        20**DCL        21--REDEF      24--REDEF    5293<>CALL     5304>>ASSIGN   5305>>ASSIGN   5307>>ASSIGN
      5355<>CALL     5357<>CALL     5359>>IF       5366>>ASSIGN   5369>>ASSIGN
ADR.UHALF
        22**DCL      5296<<ASSIGN
CHAR1
        59**DCL      5396<<ASSIGN
CHAR3
        60**DCL      5400<<ASSIGN
DDA$DISPADR
      5270**DCL-ENT  5403--CALL
DDK$EVAL
      5269**DCL-ENT  5293--CALL     5355--CALL
DDQ$WRITENC
      5271**DCL-ENT  5405--CALL
DDQ$WRITENU
      5272**DCL-ENT  5406--CALL
DDR$BUMPC_D$
      5273**DCL-ENT  5397--CALL     5401--CALL
DESC#
        29**DCL      5293<>CALL     5355<>CALL     5357<>CALL     5403<>CALL
DFK$EVAL
      5275**DCL-ENT  5357--CALL
DFS$INSTR
      5274**DCL-ENT  5320--CALL
DUM1
        57**DCL      5357<>CALL
DUM2
        58**DCL      5357<>CALL
D_XDELTA
        54**DCL      5404>>IF
EVAL$CMD.AWDX
PL6.E3A0      #001=DDA$EVAL File=DDA$EVAL.:E05TSI                                TUE 07/29/97 13:27 Page:35
      2522**DCL      5302>>IF
EVAL$CMD.DDESC
      2520**DCL      5291>>IF       5316>>IF
EVAL$CMD.FMT
      2524**DCL      5286>>ASSIGN
EVAL$CMD.IGNPR
      2521**DCL      5302>>IF
EVAL$CMD.INSTR
      2519**DCL      5278>>IF       5294>>IF       5318>>IF
EVAL$CMD.SACT
      2525**DCL      5394>>IF       5404>>IF
EVERR
      5409**LABEL    5293--CALLALT  5320--CALLALT  5324--GOTO     5355--CALLALT  5357--CALLALT  5376--GOTO
      5390--GOTO     5397--CALLALT  5401--CALLALT  5403--CALLALT
FMT
        53**DCL      5286<<ASSIGN   5287>>IF       5288<<ASSIGN   5403<>CALL
L6ADR.L16
        26**DCL      5361>>ASSIGN
L6ADR.R16
        27**DCL      5362>>ASSIGN
NOT_IS
        30**DCL      5293<>CALL     5297>>IF       5313<<ASSIGN   5355<>CALL     5357<>CALL     5386<<ASSIGN
      5403<>CALL
SEG
        28**DCL      5293<>CALL     5355<>CALL     5357<>CALL     5403<>CALL
S_D.CURRENT_CHANNEL
      4902**DCL      4904--REDEF
S_D.D$
      4040**DCL      5281>>ASSIGN   5282>>ASSIGN   5284>>ASSIGN   5392<<ASSIGN   5393>>ASSIGN   5396>>ASSIGN
      5400>>ASSIGN   5405>>CALL     5406>>CALL
S_D.DEBUGA
      4054**DCL      4056--REDEF
S_D.DESC$
      4034**DCL      5282<<ASSIGN   5284<<ASSIGN   5285>>ASSIGN
S_D.DESCL$
      4036**DCL      5393<<ASSIGN
PL6.E3A0      #001=DDA$EVAL File=DDA$EVAL.:E05TSI                                TUE 07/29/97 13:27 Page:36
S_D.DO$
      4005**DCL      5278>>IF       5286>>ASSIGN   5291>>IF       5294>>IF       5302>>IF       5302>>IF
      5316>>IF       5318>>IF       5394>>IF       5404>>IF
S_D.EFMT_DEFAULT
      4570**DCL      5288>>ASSIGN
S_D.EIS
      5012**DCL      5041--REDEF
S_D.ERROR
      3983**DCL      5299<<ASSIGN   5323<<ASSIGN   5375<<ASSIGN   5389<<ASSIGN
S_D.HOST_MESSAGE_BUF_REMOTE
      4945**DCL      4946--REDEF    4960--REDEF
S_D.JDE
      4559**DCL      4560--REDEF
S_D.L$.L6_VALUE.OPS
      4136**DCL      5328<<ASSIGN   5332<<ASSIGN   5333<<ASSIGN   5361<<ASSIGN   5362<<ASSIGN   5366<<ASSIGN
      5381>>ASSIGN   5382>>ASSIGN   5384>>ASSIGN
S_D.L$.SIZE
      4137**DCL      5309<<ASSIGN   5329<<ASSIGN   5334<<ASSIGN   5363<<ASSIGN   5367<<ASSIGN   5373>>IF
      5379>>IF       5403<>CALL
S_D.L$.VALUE
      4112**DCL      4118--REDEF    4126--REDEF    4129--REDEF    4132--REDEF    4135--REDEF    5312>>ASSIGN
S_D.L$.VALUE.L
      4113**DCL      4114--REDEF    4115--REDEF    5308<<ASSIGN
S_D.L6_MESSAGE_BUF
      4966**DCL      4968--REDEF
S_D.O$.ADDRESS
      4143**DCL      5320<>CALL
S_D.ONE_TO_TWO.EXEC_DOMAIN
      4977**DCL      5279>>IF       5289>>DOCASE
S_D.OUTPUT
      4932**DCL      4934--REDEF    5392--ASSIGN   5393--ASSIGN   5405--CALL     5405--CALL     5406--CALL
      5406--CALL
S_D.REMOTE_MSG.FNCC
      4951**DCL      4952--REDEF
S_D.REMOTE_MSG.STXC
      4947**DCL      4948--REDEF
PL6.E3A0      #001=DDA$EVAL File=DDA$EVAL.:E05TSI                                TUE 07/29/97 13:27 Page:37
S_D.REMOTE_MSG.SUBFNCC
      4955**DCL      4956--REDEF
S_D.RUM
      4600**DCL      5341>>IF
S_D.SV
      4011**DCL      4032--REDEF
S_D$
      5263**DCL      3959--IMP-PTR  5278>>IF       5279>>IF       5281>>ASSIGN   5282>>ASSIGN   5282>>ASSIGN
      5284>>ASSIGN   5284>>ASSIGN   5285>>ASSIGN   5286>>ASSIGN   5288>>ASSIGN   5289>>DOCASE   5291>>IF
      5294>>IF       5299>>ASSIGN   5302>>IF       5302>>IF       5308>>ASSIGN   5309>>ASSIGN   5312>>ASSIGN
      5316>>IF       5318>>IF       5320>>CALL     5323>>ASSIGN   5328>>ASSIGN   5329>>ASSIGN   5332>>ASSIGN
      5333>>ASSIGN   5334>>ASSIGN   5341>>IF       5361>>ASSIGN   5362>>ASSIGN   5363>>ASSIGN   5366>>ASSIGN
      5367>>ASSIGN   5373>>IF       5375>>ASSIGN   5379>>IF       5381>>ASSIGN   5382>>ASSIGN   5384>>ASSIGN
      5389>>ASSIGN   5392>>ASSIGN   5392>>ASSIGN   5393>>ASSIGN   5393>>ASSIGN   5394>>IF       5396>>ASSIGN
      5400>>ASSIGN   5403>>CALL     5404>>IF       5405>>CALL     5405>>CALL     5405>>CALL     5406>>CALL
      5406>>CALL     5406>>CALL
UBIN36
        56**DCL      5281>>ASSIGN
VALUE
        31**DCL      5277<<ASSIGN   5320<>CALL     5357<>CALL
VALUE.SIZE
        32**DCL      5321>>IF       5326>>IF
VALUE.VAL
        33**DCL      5312<<ASSIGN
VALUE.VAL.L
        34**DCL        35--REDEF      43--REDEF    5281<<ASSIGN   5307<<ASSIGN   5308>>ASSIGN   5328>>ASSIGN
      5369<<ASSIGN   5384<<ASSIGN   5403<>CALL
VALUE.VAL.L6V1
        43**DCL      5337<<ASSIGN   5337>>ASSIGN
VALUE.VAL.L6V1.L16
        45**DCL      5335<<ASSIGN   5381<<ASSIGN
VALUE.VAL.L6V1.R16
        46**DCL      5332>>ASSIGN   5335>>ASSIGN   5336<<ASSIGN   5382<<ASSIGN
VALUE.VAL.L6V2.R16
        51**DCL      5333>>ASSIGN   5336>>ASSIGN
VALUE.VAL.R
PL6.E3A0      #001=DDA$EVAL File=DDA$EVAL.:E05TSI                                TUE 07/29/97 13:27 Page:38
        47**DCL        48--REDEF
VALUE.VAL.V.ADR
        36**DCL        37--REDEF    5305<<ASSIGN
VALUE.VAL.V.BIT29
        41**DCL      5302>>IF
VALUE.VAL.V.PADR.OFFSET
        39**DCL      5304<<ASSIGN
ZITEM.ADDRESS
      2477**DCL      2482--REDEF    2483--REDEF    2484--REDEF
ZITEM.ADDR_TYPE
      2471**DCL      5341>>IF
ZITEM.SP.VD
      2485**DCL      2489--REDEF    2492--REDEF
ZITEM.SP.VS.ID
      2493**DCL      5341>>IF       5341>>IF       5341>>IF       5341>>IF       5341>>IF       5341>>IF
      5341>>IF       5341>>IF       5341>>IF       5341>>IF       5341>>IF       5341>>IF
ZITEM$
      1866**DCL      2443--IMP-PTR  5285<<ASSIGN   5341>>IF       5341>>IF       5341>>IF       5341>>IF
      5341>>IF       5341>>IF       5341>>IF       5341>>IF       5341>>IF       5341>>IF       5341>>IF
      5341>>IF       5341>>IF
PL6.E3A0      #001=DDA$EVAL File=DDA$EVAL.:E05TSI                                TUE 07/29/97 13:27 Page:39
              *** CROSS REFERENCE LISTING ***
    **     DENOTES     IDENTIFIER DEFINITION
    <<                 IDENTIFIER'S VALUE SET
    >>                 IDENTIFIER'S VALUE USED
    <>                 IDENTIFIER SET AND/OR USED
    --                 IDENTIFIER REFERENCED
PL6.E3A0      #001=DDA$EVAL File=DDA$EVAL.:E05TSI                                TUE 07/29/97 13:27 Page:40
              MINI UREF LISTING

DDA$EVAL      18**PROC
SDD$    1865**DCL
SDD_L6$    1867**DCL
ZITEM_L6$    1868**DCL
