VERSION E05

PL6.E3A0      #001=DDA$PRTHIST File=DDA$HIST.:E05TSI                             TUE 07/29/97 13:29 Page:1
        1        1        /*M* DDA$HIST - DUMP HISTORY BUFFERS */
        2        2        /*T***********************************************************/
        3        3        /*T*                                                         */
        4        4        /*T* Copyright (c) Bull HN Information Systems Inc., 1997    */
        5        5        /*T*                                                         */
        6        6        /*T***********************************************************/
        7        7        /*X* CCC,DMR,PLM=5,IND=5,CSU=3,EXM=0,ECU=3,MOC,DCI=5,CRT=5 */
        8        8        /*P* NAME: DDA$HIST
        9        9             DESCRIPTION: DUMP THE HISTORY BUFFER */
       10       10        DDA$PRTHIST: PROC(PASSED_OUT$);
       11       11        /*D* NAME: DDA$PRTHIST
       12       12             DESCRIPTION:  WILL PRINT THE SINGLE BUFFER ENTRY POINTED TO
       13       13                  BY PASSED_OUT$.  FOR USE BY DDB$PUTHIST WHEN SILENT IS NOT
       14       14                  SET.
       15       15             */
       16       16    1   DCL PASSED_OUT$ PTR;
       17       17    1   DCL REM UBIN;
       18       18    1   DCL NCARS UBIN;
       19       19    1   DCL BB$ PTR;
       20       20    1   DCL I UBIN;
       21       21    1   DCL NODE UBIN;
       22       22    1   DCL CNODE UBIN;
       23       23    1   DCL ISADDR UBIN;
       24       24    1   DCL IC UBIN;
       25       25    1   DCL TREE$ PTR;
       26       26    1   DCL TYPE UBIN;
       27       27    1   DCL OUT$ PTR;
       28       28    1   DCL JUNK UBIN;
       29       29    1   DCL SAVE_D$ PTR;
       30       30    1   DCL SAVE_DESCL$ PTR;
       31       31    1   DCL CHAR12 CHAR(12) BASED UNAL;
       32       32    1   DCL CHAR16 CHAR(16) BASED;
       33       33    1   DCL UBIN36 UBIN BASED;
       34       34    1   DCL CHAR4 CHAR(4) BASED;
       35       35        %INCLUDE DD_SUBS_C;
       36      306        %INCLUDE DD_ERR_C;
       37      703        %INCLUDE DD$BASED;
PL6.E3A0      #001=DDA$PRTHIST File=DDA$HIST.:E05TSI                             TUE 07/29/97 13:29 Page:2
       38     2006        %INCLUDE DD$DITEM;
       12+    2109             %LIST;
       13+    2110    1        DCL SDD$ PTR;
       14+    2111    1        DCL ZITEM$ PTR;
       15+    2112    1        DCL SDD_L6$ PTR;
       16+    2113    1        DCL ZITEM_L6$ PTR;
       39     2687        %HIST_BUF;
       40     2696        %HIST$CMD;
       41     2709        %DU$TREE (NAME="DU$TREE(0:0)");
       42     2715        %INCLUDE B$OBJECT_C;
       43     6145        %B$TREE_TABLE (HDR_NAME=B$TREEHDR,NODE_NAME="B$NODE(0:0)");
       44     6203        %INCLUDE XUH_MACRO_C;
       45     6287        %INCLUDE DD_SD_M;
       46     7623        %S_D;
       47     8941    1   DCL NAME_TABLE(0:11) CHAR(16)  CONSTANT INIT(
       48     8942    1             ' --> ',                      /* H_TT */
       49     8943    1             ' <CALLED> ',                 /* H_TC */
       50     8944    1             '<LET $IC => ',               /* H_LET */
       51     8945    1             '<XEQ> ',                     /* H_XEQ */
       52     8946    1             '<GO> ',                      /* H_GO */
       53     8947    1             ' <ASYNC ENTRY> ',            /* H_ATC */
       54     8948    1             ' <TRTN TO> ',                /* H_TRTN */
       55     8949    1             ' <MERC TO> ',                /* H_MERC */
       56     8950    1             ' <MERCS TO> ',               /* H_MERCS */
       57     8951    1             ' <RETRY TO> ',               /* H_RETRY */
       58     8952    1             ' <RETRYS TO> ',              /* H_RETRYS */
       59     8953    1             '[SHARED-LIB] ');             /* H_STT */
       60     8954    1   DCL NAME_SIZE(0:11) UBIN CONSTANT INIT(
       61     8955    1             5,                            /* H_TT */
       62     8956    1             10,                           /* H_TC */
       63     8957    1             12,                           /* H_LET */
       64     8958    1             6,                            /* H_XEQ */
       65     8959    1             5,                            /* H_GO */
       66     8960    1             15,                           /* H_ATC */
       67     8961    1             11,                           /* H_TRTN */
       68     8962    1             11,                           /* H_MERC */
       69     8963    1             12,                           /* H_MERCS */
PL6.E3A0      #001=DDA$PRTHIST File=DDA$HIST.:E05TSI                             TUE 07/29/97 13:29 Page:3
       70     8964    1             12,                           /* H_RETRY */
       71     8965    1             13,                           /* H_RETRYS */
       72     8966    1             13);                          /* H_STT */
       73     8967    1   DCL DDR$POSIT ENTRY(5) ALTRET;
       74     8968    1   DCL DDQ$WRITE ENTRY(2);
       75     8969    1   DCL DDR$INSTR ENTRY(1) ALTRET;
       76     8970    1   DCL DDE$ERROR ENTRY;
       77     8971    1   DCL DDB$BREAK ENTRY ALTRET;
       78     8972    1   DCL DDR$BINTXT ENTRY(4);
       79     8973    1   DCL DDS$ES_INQ ENTRY(1) ALTRET;
       80     8974    1   DCL DDS$EUTREE ENTRY ALTRET;
       81     8975                                                /**/
       82     8976    1        OUT$ = PASSED_OUT$;
       83     8977    1        TYPE = OUT$->HIST_BUF.TYPE;
       84     8978    1        CALL PRINT_IT;
       85     8979    1        RETURN;
       86     8980    1   DDA$HIST: ENTRY;
       87     8981        /*D* NAME: DDA$HIST
       88     8982             DESCRIPTION: WILL PRINT MULTIPLE ENTRIES FROM THE HISTORY
       89     8983                  BUFFER AS SPECIFIED BY THE HISTORY COMMAND.
       90     8984                  */
       91     8985    1        IF S_D.DO$->HIST$CMD.CLEAR
       92     8986    2        THEN DO;                           /* This is a clear command */
       93     8987    2             S_D.HIST.CURR$ = S_D.HIST.START$;
       94     8988    2             S_D.HIST.OUT$ = S_D.HIST.START$;
       95     8989    2             S_D.HIST.ROLLOVER = '0'B;
       96     8990    2             S_D.HIST.OUT_ACTIVE = '0'B;
       97     8991    2             S_D.HIST.EMPTY = '1'B;
       98     8992    2             RETURN;
       99     8993    2           END;
      100     8994                                                /**/
      101     8995    1        IF S_D.HIST.EMPTY THEN GOTO HIST_EMPTY;
      102     8996    1        IF S_D.HIST.OUT_ACTIVE AND S_D.DO$->HIST$CMD.MORE THEN
      103     8997    1             IF S_D.HIST.ROLLOVER AND S_D.HIST.OUT$ = S_D.HIST.CURR$
      104     8998    1             THEN GOTO NO_MORE_HIST;
      105     8999    1             ELSE
      106     9000    1                  IF S_D.HIST.OUT$ = S_D.HIST.START$ THEN GOTO NO_MORE_HIST;
PL6.E3A0      #001=DDA$PRTHIST File=DDA$HIST.:E05TSI                             TUE 07/29/97 13:29 Page:4
      107     9001    1                  ELSE ;                   /* Else needed here */
      108     9002    2        ELSE DO;
      109     9003    2             S_D.HIST.OUT$ = S_D.HIST.CURR$;
      110     9004    2             S_D.HIST.OUT_ACTIVE = '1'B; /* Initialize pointer and mark it active */
      111     9005    2           END;
      112     9006                                                /**/
      113     9007    2        DO I=1 TO S_D.DO$->HIST$CMD.COUNT;
      114     9008    2             CALL DDB$BREAK ALTRET(HIST_RETURN);
      115     9009    2             OUT$ = S_D.HIST.OUT$;
      116     9010    2             TYPE = OUT$->HIST_BUF.TYPE;
      117     9011    2             CALL PRINT_IT;
      118     9012    2             IF S_D.HIST.OUT$ = S_D.HIST.START$ THEN /* If we're at the begining */
      119     9013    2                  IF S_D.HIST.ROLLOVER THEN /* And we've wrapped around */
      120     9014    2                       S_D.HIST.OUT$ = S_D.HIST.END$; /* Wrap around */
      121     9015    2                  ELSE GOTO NO_MORE_HIST;
              9015                           /* If not rollover and we're at the begining, that's all */
      122     9016    2             ELSE S_D.HIST.OUT$ = PINCRW(S_D.HIST.OUT$, -SIZEW(HIST_BUF));
              9016                      /* We're not at the begining, bump the pointer */
      123     9017    2             IF S_D.HIST.OUT$ = S_D.HIST.CURR$ THEN GOTO NO_MORE_HIST;
      124     9018    2           END;                            /* Do i */
      125     9019    1        RETURN;
      126     9020    1   HIST_EMPTY: S_D.ERROR = E@HIST_EMPTY;   /* E@HIST_EMPTY */
      127     9021    1        GOTO CALL_ERROR;
      128     9022    1   NO_MORE_HIST: S_D.ERROR = E@NO_MORE_HIST; /* E@NO_MORE_HIST */
      129     9023    1   CALL_ERROR: CALL DDE$ERROR;
      130     9024    1   HIST_RETURN: ;
      131     9025    1        RETURN;
      132     9026        %EJECT;
PL6.E3A0      #001=DDA$PRTHIST File=DDA$HIST.:E05TSI                             TUE 07/29/97 13:29 Page:5
      133     9027    1   PRINT_IT: PROC;
      134     9028    2   DCL COUNT UBIN;
      135     9029        /*D* NAME: PRINT_IT
      136     9030             DESCRIPTION:  WILL PRINT THE HISTORY BUFFER ENTRY AT OUT$
      137     9031             */
      138     9032    2        S_D.OUTPUT = ' ';
      139     9033    2        REM = LENGTHC( S_D.OUTPUT );
      140     9034    2        BB$ = ADDR(S_D.OUTPUT);
      141     9035    3        DO CASE(TYPE);
      142     9036    3          CASE(H_TT, H_TC, H_ATC, H_TRTN, H_MERC, H_MERCS, H_RETRY, H_RETRYS);
      143     9037    3             IC = OUT$->HIST_BUF.LIC;
      144     9038    3             NODE = OUT$->HIST_BUF.LNODE;
      145     9039    3             CALL GETADDR;
      146     9040    3             BB$ = PINCRC(BB$, NCARS);
      147     9041    3             REM = REM - NCARS;
      148     9042    3             BB$->CHAR16 = NAME_TABLE(TYPE);
      149     9043    3             REM = REM - NAME_SIZE(TYPE);
      150     9044    3             BB$ = PINCRC(BB$, NAME_SIZE(TYPE));
      151     9045    3          CASE(H_GO);                      /* Goto */
      152     9046    3             BB$->CHAR12 = NAME_TABLE(TYPE);
      153     9047    3             BB$ = PINCRC(BB$, NAME_SIZE(TYPE));
      154     9048    3             REM = REM - NAME_SIZE(TYPE);
      155     9049    3          CASE(H_LET);                     /* Let $IC = */
      156     9050    3             BB$->CHAR12 = NAME_TABLE(TYPE);
      157     9051    3             BB$ = PINCRC(BB$, NAME_SIZE(TYPE));
      158     9052    3             REM = REM - NAME_SIZE(TYPE);
      159     9053    3          CASE(H_XEQ);                     /* Xeq transfer */
      160     9054    3             BB$->CHAR12 = NAME_TABLE(TYPE);
      161     9055    3             BB$ = PINCRC(BB$, NAME_SIZE(TYPE));
      162     9056    3             REM = REM - NAME_SIZE(TYPE);
      163     9057    3             SAVE_D$ = S_D.D$;
      164     9058    3             SAVE_DESCL$ = S_D.DESCL$;
      165     9059    3             CALL DDR$INSTR(OUT$->UBIN36);
      166     9060    3             BB$ = S_D.D$;
      167     9061    3             S_D.D$ = SAVE_D$;
      168     9062    3             SAVE_DESCL$ = S_D.DESCL$;
      169     9063    3             GOTO SKIP_RIC;
PL6.E3A0      #001=DDA$PRTHIST File=DDA$HIST.:E05TSI                             TUE 07/29/97 13:29 Page:6
      170     9064    3          CASE(H_STT);                /* Trace transfer return from shared code */
      171     9065    3             BB$->CHAR16 = NAME_TABLE(TYPE);
      172     9066    3             BB$ = PINCRC(BB$, NAME_SIZE(TYPE));
      173     9067    3             BB$->CHAR4 = '--> ';
      174     9068    3             BB$ = PINCRC(BB$, 4);
      175     9069    3             REM = REM - 17;
      176     9070    3          CASE(ELSE);
      177     9071    3             S_D.ERROR = E@DELBUG;         /* E@DELBUG */
      178     9072    3             CALL DDE$ERROR;
      179     9073    3             GOTO SKIP_WRITE;
      180     9074    3          END;                             /* Case type */
      181     9075    2        IC = OUT$->HIST_BUF.RIC;
      182     9076    2        NODE = OUT$->HIST_BUF.RNODE;
      183     9077    2        CALL GETADDR;
      184     9078    2        BB$ = PINCRC(BB$, NCARS);
      185     9079    2   SKIP_RIC: ;
      186     9080    2        IF OUT$->HIST_BUF.COUNT > 1
      187     9081    3        THEN DO;
      188     9082    3             BB$->CHAR12 = ' * ';
      189     9083    3             BB$ = PINCRC(BB$,3);
      190     9084    3             COUNT = OUT$->HIST_BUF.COUNT;
      191     9085    3             CALL DDR$BINTXT(BB$, COUNT, %UINT_FMT, JUNK);
      192     9086    3             CALL DDR$BINTXT(BB$, OUT$->HIST_BUF.COUNT, %UINT_FMT, JUNK);
      193     9087    3             BB$ = PINCRC(BB$,JUNK);
      194     9088    3           END;
      195     9089    2        CALL DDQ$WRITE(ADDR(S_D.OUTPUT), POFFC(BB$, ADDR(S_D.OUTPUT)));
      196     9090    2   SKIP_WRITE:
      197     9091    2        RETURN;
      198     9092        %EJECT;
PL6.E3A0      #001=DDA$PRTHIST File=DDA$HIST.:E05TSI                             TUE 07/29/97 13:29 Page:7
      199     9093    2   GETADDR: PROC;
      200     9094    3        IF S_D.OVERLAID
      201     9095    4        THEN DO;
      202     9096    4             TREE$ = S_D.TREE$;
      203     9097    4             IF NOT TREE$->DU$TREE.NOW_IN(NODE)
      204     9098    5             THEN DO;
      205     9099    5                  CNODE = S_D.NODE;
      206     9100    5                  S_D.NODE = NODE;
      207     9101    5                  CALL DDS$EUTREE;
      208     9102    5                  S_D.TREE$ = S_D.UTREE$;
      209     9103    5                  ISADDR = S_D.B$TREE$->B$NODE.PADDR(NODE);
      210     9104    5                  CALL DDS$ES_INQ (ISADDR);
      211     9105    5                  CALL DDR$POSIT (IC, BB$, REM, NCARS);
      212     9106    5                  S_D.NODE = CNODE;
      213     9107    5                  S_D.TREE$ = TREE$;
      214     9108    5                  IF TREE$ = S_D.MTREE$
      215     9109    5                  THEN ISADDR = S_D.SAVEIC;
      216     9110    6                  ELSE DO;
      217     9111    6                       CALL DDS$EUTREE;
      218     9112    6                       ISADDR = S_D.B$TREE$->B$NODE.PADDR(CNODE);
      219     9113    6                     END;
      220     9114    5                  CALL DDS$ES_INQ(ISADDR);
      221     9115    5                END;
      222     9116    4             ELSE CALL DDR$POSIT (IC, BB$, REM, NCARS);
      223     9117    4           END;
      224     9118    3        ELSE CALL DDR$POSIT (IC, BB$, REM, NCARS);
      225     9119    3        RETURN;
      226     9120    3   END GETADDR;
      227     9121    2   END PRINT_IT;
      228     9122    1   END DDA$PRTHIST;

PL6.E3A0      #001=DDA$PRTHIST File=DDA$HIST.:E05TSI                             TUE 07/29/97 13:29 Page:8
--  Include file information  --

   DD_SD_M.:E05TOU  is referenced.
   XUH_MACRO_C.:E05TOU  is referenced.
   B$OBJECT_C.:E05TOU  is referenced.
   DD_SRTN_C.:E05TOU  is referenced.
   DD_ACODE_C.:E05TOU  is referenced.
   DD_ICODE_C.:E05TOU  is referenced.
   DD$DITEM.:E05TOU  cannot be made into a system file and is referenced.
   DD$BASED.:E05TOU  is referenced.
   DD_ERR_C.:E05TOU  is referenced.
   DD_SUBS_C.:E05TOU  is referenced.
   B$JIT_C.:E05TOU  was found in the system file and is never referenced.
   CP_6_C.:E05TOU  was found in the system file and is never referenced.
      No diagnostics issued in procedure DDA$PRTHIST.

   Procedure DDA$PRTHIST requires 412 words for executable code.
   Procedure DDA$PRTHIST requires 32 words of local(AUTO) storage.

    No errors detected in file DDA$HIST.:E05TSI    .

PL6.E3A0      #001=DDA$PRTHIST File=DDA$HIST.:E05TSI                             TUE 07/29/97 13:29 Page:9

 Object Unit name= DDA$PRTHIST                                File name= DDA$HIST.:E05TOU
 UTS= JUL 29 '97 13:29:26.52 TUE                              Compiler= PL-6/E31         Sev=      00
 SharedLib= :SHARED_SYSTEM                                    Alt SharedLib=


    ****  Control sections  ****

 Sect   Type Bound  Init  Size OctSiz  Section name(segment info)
    0  RoData even  UTS     62     76  DDA$PRTHIST
    1   Proc  even  none   412    634  DDA$PRTHIST
    2  RoData even  none     2      2  DDA$PRTHIST

    ****  Entry defs  ****

                              Check   Calling
                             calling  sequence
  Sect OctLoc Primary Altret sequence   type   Parms  Name
     1      0   yes            yes      Std        1  DDA$PRTHIST
     1     15                  yes      Std        0  DDA$HIST

  ****  Entry refs  ****

         Check        Calling
        calling       sequence
Altret sequence SRef   type   Args  Name
 yes     yes           Std       0 DDB$BREAK
         yes           Std       0 DDE$ERROR
 yes     yes           Std       1 DDR$INSTR
         yes           Std       4 DDR$BINTXT
         yes           Std       2 DDQ$WRITE
 yes     yes           Std       0 DDS$EUTREE
 yes     yes           Std       1 DDS$ES_INQ
 yes     yes           Std       5 DDR$POSIT
                       nStd      0 X66_AUTO_1
                       nStd      0 X66_ARET
                       Std       0 B_CONSPOOL_D
PL6.E3A0      #001=DDA$PRTHIST File=DDA$HIST.:E05TSI                             TUE 07/29/97 13:29 Page:10

  ****  Data refs  ****

  Flags:  r = read only, s = secondary
Flgs Name                             Flgs Name                             Flgs Name
r    S_D$                                  B_VECTNIL

  ****  Segment refs  ****

  Flags:  r = read only, s = secondary
Flgs Name                             Flgs Name                             Flgs Name
     ISSID
PL6.E3A0      #001=DDA$PRTHIST File=DDA$HIST.:E05TSI                             TUE 07/29/97 13:29 Page:11


        1        1        /*M* DDA$HIST - DUMP HISTORY BUFFERS */
        2        2        /*T***********************************************************/
        3        3        /*T*                                                         */
        4        4        /*T* Copyright (c) Bull HN Information Systems Inc., 1997    */
        5        5        /*T*                                                         */
        6        6        /*T***********************************************************/
        7        7        /*X* CCC,DMR,PLM=5,IND=5,CSU=3,EXM=0,ECU=3,MOC,DCI=5,CRT=5 */
        8        8        /*P* NAME: DDA$HIST
        9        9             DESCRIPTION: DUMP THE HISTORY BUFFER */
       10       10        DDA$PRTHIST: PROC(PASSED_OUT$);

     10  1 000000   000000 700200 xent  DDA$PRTHIST  TSX0  ! X66_AUTO_1
         1 000001   000040 000001                    ZERO    32,1

       11       11        /*D* NAME: DDA$PRTHIST
       12       12             DESCRIPTION:  WILL PRINT THE SINGLE BUFFER ENTRY POINTED TO
       13       13                  BY PASSED_OUT$.  FOR USE BY DDB$PUTHIST WHEN SILENT IS NOT
       14       14                  SET.
       15       15             */
       16       16    1   DCL PASSED_OUT$ PTR;
       17       17    1   DCL REM UBIN;
       18       18    1   DCL NCARS UBIN;
       19       19    1   DCL BB$ PTR;
       20       20    1   DCL I UBIN;
       21       21    1   DCL NODE UBIN;
       22       22    1   DCL CNODE UBIN;
       23       23    1   DCL ISADDR UBIN;
       24       24    1   DCL IC UBIN;
       25       25    1   DCL TREE$ PTR;
       26       26    1   DCL TYPE UBIN;
       27       27    1   DCL OUT$ PTR;
       28       28    1   DCL JUNK UBIN;
       29       29    1   DCL SAVE_D$ PTR;
       30       30    1   DCL SAVE_DESCL$ PTR;
       31       31    1   DCL CHAR12 CHAR(12) BASED UNAL;
       32       32    1   DCL CHAR16 CHAR(16) BASED;
PL6.E3A0      #001=DDA$PRTHIST File=DDA$HIST.:E05TSI                             TUE 07/29/97 13:29 Page:12
       33       33    1   DCL UBIN36 UBIN BASED;
       34       34    1   DCL CHAR4 CHAR(4) BASED;
       35       35        %INCLUDE DD_SUBS_C;
       36      306        %INCLUDE DD_ERR_C;
       37      703        %INCLUDE DD$BASED;
       38     2006        %INCLUDE DD$DITEM;
       12+    2109             %LIST;
       13+    2110    1        DCL SDD$ PTR;
       14+    2111    1        DCL ZITEM$ PTR;
       15+    2112    1        DCL SDD_L6$ PTR;
       16+    2113    1        DCL ZITEM_L6$ PTR;
       39     2687        %HIST_BUF;
       40     2696        %HIST$CMD;
       41     2709        %DU$TREE (NAME="DU$TREE(0:0)");
       42     2715        %INCLUDE B$OBJECT_C;
       43     6145        %B$TREE_TABLE (HDR_NAME=B$TREEHDR,NODE_NAME="B$NODE(0:0)");
       44     6203        %INCLUDE XUH_MACRO_C;
       45     6287        %INCLUDE DD_SD_M;
       46     7623        %S_D;
       47     8941    1   DCL NAME_TABLE(0:11) CHAR(16)  CONSTANT INIT(
       48     8942    1             ' --> ',                      /* H_TT */
       49     8943    1             ' <CALLED> ',                 /* H_TC */
       50     8944    1             '<LET $IC => ',               /* H_LET */
       51     8945    1             '<XEQ> ',                     /* H_XEQ */
       52     8946    1             '<GO> ',                      /* H_GO */
       53     8947    1             ' <ASYNC ENTRY> ',            /* H_ATC */
       54     8948    1             ' <TRTN TO> ',                /* H_TRTN */
       55     8949    1             ' <MERC TO> ',                /* H_MERC */
       56     8950    1             ' <MERCS TO> ',               /* H_MERCS */
       57     8951    1             ' <RETRY TO> ',               /* H_RETRY */
       58     8952    1             ' <RETRYS TO> ',              /* H_RETRYS */
       59     8953    1             '[SHARED-LIB] ');             /* H_STT */
       60     8954    1   DCL NAME_SIZE(0:11) UBIN CONSTANT INIT(
       61     8955    1             5,                            /* H_TT */
       62     8956    1             10,                           /* H_TC */
       63     8957    1             12,                           /* H_LET */
       64     8958    1             6,                            /* H_XEQ */
PL6.E3A0      #001=DDA$PRTHIST File=DDA$HIST.:E05TSI                             TUE 07/29/97 13:29 Page:13
       65     8959    1             5,                            /* H_GO */
       66     8960    1             15,                           /* H_ATC */
       67     8961    1             11,                           /* H_TRTN */
       68     8962    1             11,                           /* H_MERC */
       69     8963    1             12,                           /* H_MERCS */
       70     8964    1             12,                           /* H_RETRY */
       71     8965    1             13,                           /* H_RETRYS */
       72     8966    1             13);                          /* H_STT */
       73     8967    1   DCL DDR$POSIT ENTRY(5) ALTRET;
       74     8968    1   DCL DDQ$WRITE ENTRY(2);
       75     8969    1   DCL DDR$INSTR ENTRY(1) ALTRET;
       76     8970    1   DCL DDE$ERROR ENTRY;
       77     8971    1   DCL DDB$BREAK ENTRY ALTRET;
       78     8972    1   DCL DDR$BINTXT ENTRY(4);
       79     8973    1   DCL DDS$ES_INQ ENTRY(1) ALTRET;
       80     8974    1   DCL DDS$EUTREE ENTRY ALTRET;
       81     8975                                                /**/
       82     8976    1        OUT$ = PASSED_OUT$;

   8976  1 000002   200003 470500                    LDP0    @PASSED_OUT$,,AUTO
         1 000003   000000 236100                    LDQ     0,,PR0
         1 000004   200016 756100                    STQ     OUT$,,AUTO

       83     8977    1        TYPE = OUT$->HIST_BUF.TYPE;

   8977  1 000005   200016 471500                    LDP1    OUT$,,AUTO
         1 000006   100002 236100                    LDQ     2,,PR1
         1 000007   000016 772000                    QRL     14
         1 000010   000017 376007                    ANQ     15,DL
         1 000011   200015 756100                    STQ     TYPE,,AUTO

       84     8978    1        CALL PRINT_IT;

   8978  1 000012   000135 701000 1                  TSX1    PRINT_IT
         1 000013   000000 011000                    NOP     0

       85     8979    1        RETURN;
PL6.E3A0      #001=DDA$PRTHIST File=DDA$HIST.:E05TSI                             TUE 07/29/97 13:29 Page:14

   8979  1 000014   000000 702200 xent               TSX2  ! X66_ARET

       86     8980    1   DDA$HIST: ENTRY;

   8980  1 000015   000000 700200 xent  DDA$HIST     TSX0  ! X66_AUTO_1
         1 000016   000040 000001                    ZERO    32,1

       87     8981        /*D* NAME: DDA$HIST
       88     8982             DESCRIPTION: WILL PRINT MULTIPLE ENTRIES FROM THE HISTORY
       89     8983                  BUFFER AS SPECIFIED BY THE HISTORY COMMAND.
       90     8984                  */
       91     8985    1        IF S_D.DO$->HIST$CMD.CLEAR

   8985  1 000017   000000 470400 xsym               LDP0    S_D$
         1 000020   000031 471500                    LDP1    25,,PR0
         1 000021   100001 236100                    LDQ     1,,PR1
         1 000022   200000 316003                    CANQ    65536,DU
         1 000023   000034 600000 1                  TZE     s:8995

       92     8986    2        THEN DO;                           /* This is a clear command */

       93     8987    2             S_D.HIST.CURR$ = S_D.HIST.START$;

   8987  1 000024   004717 236100                    LDQ     2511,,PR0
         1 000025   004721 756100                    STQ     2513,,PR0

       94     8988    2             S_D.HIST.OUT$ = S_D.HIST.START$;

   8988  1 000026   004722 756100                    STQ     2514,,PR0

       95     8989    2             S_D.HIST.ROLLOVER = '0'B;

   8989  1 000027   004723 450100                    STZ     2515,,PR0

       96     8990    2             S_D.HIST.OUT_ACTIVE = '0'B;

PL6.E3A0      #001=DDA$PRTHIST File=DDA$HIST.:E05TSI                             TUE 07/29/97 13:29 Page:15
   8990  1 000030   004724 450100                    STZ     2516,,PR0

       97     8991    2             S_D.HIST.EMPTY = '1'B;

   8991  1 000031   400000 236003                    LDQ     -131072,DU
         1 000032   004726 756100                    STQ     2518,,PR0

       98     8992    2             RETURN;

   8992  1 000033   000000 702200 xent               TSX2  ! X66_ARET

       99     8993    2           END;
      100     8994                                                /**/
      101     8995    1        IF S_D.HIST.EMPTY THEN GOTO HIST_EMPTY;

   8995  1 000034   004726 234100                    SZN     2518,,PR0
         1 000035   000124 604000 1                  TMI     HIST_EMPTY

      102     8996    1        IF S_D.HIST.OUT_ACTIVE AND S_D.DO$->HIST$CMD.MORE THEN

   8996  1 000036   004724 234100                    SZN     2516,,PR0
         1 000037   000053 605000 1                  TPL     s:9003
         1 000040   100001 234100                    SZN     1,,PR1
         1 000041   000053 605000 1                  TPL     s:9003

      103     8997    1             IF S_D.HIST.ROLLOVER AND S_D.HIST.OUT$ = S_D.HIST.CURR$

   8997  1 000042   004723 234100                    SZN     2515,,PR0
         1 000043   000047 605000 1                  TPL     s:9000
         1 000044   004722 236100                    LDQ     2514,,PR0
         1 000045   004721 116100                    CMPQ    2513,,PR0
         1 000046   000127 600000 1                  TZE     NO_MORE_HIST

      104     8998    1             THEN GOTO NO_MORE_HIST;
      105     8999    1             ELSE
      106     9000    1                  IF S_D.HIST.OUT$ = S_D.HIST.START$ THEN GOTO NO_MORE_HIST;

PL6.E3A0      #001=DDA$PRTHIST File=DDA$HIST.:E05TSI                             TUE 07/29/97 13:29 Page:16
   9000  1 000047   004722 236100                    LDQ     2514,,PR0
         1 000050   004717 116100                    CMPQ    2511,,PR0
         1 000051   000127 600000 1                  TZE     NO_MORE_HIST
         1 000052   000057 710000 1                  TRA     s:9007

      107     9001    1                  ELSE ;                   /* Else needed here */
      108     9002    2        ELSE DO;

      109     9003    2             S_D.HIST.OUT$ = S_D.HIST.CURR$;

   9003  1 000053   004721 236100                    LDQ     2513,,PR0
         1 000054   004722 756100                    STQ     2514,,PR0

      110     9004    2             S_D.HIST.OUT_ACTIVE = '1'B; /* Initialize pointer and mark it active */

   9004  1 000055   400000 236003                    LDQ     -131072,DU
         1 000056   004724 756100                    STQ     2516,,PR0

      111     9005    2           END;

      112     9006                                                /**/
      113     9007    2        DO I=1 TO S_D.DO$->HIST$CMD.COUNT;

   9007  1 000057   000001 235007                    LDA     1,DL
         1 000060   200007 755100                    STA     I,,AUTO
         1 000061   000117 710000 1                  TRA     s:9018+3

      114     9008    2             CALL DDB$BREAK ALTRET(HIST_RETURN);

   9008  1 000062   000002 631400 xsym               EPPR1   B_VECTNIL+2
         1 000063   000000 701000 xent               TSX1    DDB$BREAK
         1 000064   000134 702000 1                  TSX2    HIST_RETURN

      115     9009    2             OUT$ = S_D.HIST.OUT$;

   9009  1 000065   000000 470400 xsym               LDP0    S_D$
         1 000066   004722 236100                    LDQ     2514,,PR0
PL6.E3A0      #001=DDA$PRTHIST File=DDA$HIST.:E05TSI                             TUE 07/29/97 13:29 Page:17
         1 000067   200016 756100                    STQ     OUT$,,AUTO

      116     9010    2             TYPE = OUT$->HIST_BUF.TYPE;

   9010  1 000070   200016 471500                    LDP1    OUT$,,AUTO
         1 000071   100002 236100                    LDQ     2,,PR1
         1 000072   000016 772000                    QRL     14
         1 000073   000017 376007                    ANQ     15,DL
         1 000074   200015 756100                    STQ     TYPE,,AUTO

      117     9011    2             CALL PRINT_IT;

   9011  1 000075   000135 701000 1                  TSX1    PRINT_IT
         1 000076   000000 011000                    NOP     0

      118     9012    2             IF S_D.HIST.OUT$ = S_D.HIST.START$ THEN /* If we're at the begining */

   9012  1 000077   000000 470400 xsym               LDP0    S_D$
         1 000100   004722 236100                    LDQ     2514,,PR0
         1 000101   004717 116100                    CMPQ    2511,,PR0
         1 000102   000110 601000 1                  TNZ     s:9016

      119     9013    2                  IF S_D.HIST.ROLLOVER THEN /* And we've wrapped around */

   9013  1 000103   004723 234100                    SZN     2515,,PR0
         1 000104   000127 605000 1                  TPL     NO_MORE_HIST

      120     9014    2                       S_D.HIST.OUT$ = S_D.HIST.END$; /* Wrap around */

   9014  1 000105   004720 236100                    LDQ     2512,,PR0
         1 000106   004722 756100                    STQ     2514,,PR0
         1 000107   000112 710000 1                  TRA     s:9017

      121     9015    2                  ELSE GOTO NO_MORE_HIST;
              9015                           /* If not rollover and we're at the begining, that's all */
      122     9016    2             ELSE S_D.HIST.OUT$ = PINCRW(S_D.HIST.OUT$, -SIZEW(HIST_BUF));
              9016                      /* We're not at the begining, bump the pointer */
PL6.E3A0      #001=DDA$PRTHIST File=DDA$HIST.:E05TSI                             TUE 07/29/97 13:29 Page:18

   9016  1 000110   777775 036003                    ADLQ    -3,DU
         1 000111   004722 756100                    STQ     2514,,PR0

      123     9017    2             IF S_D.HIST.OUT$ = S_D.HIST.CURR$ THEN GOTO NO_MORE_HIST;

   9017  1 000112   004721 116100                    CMPQ    2513,,PR0
         1 000113   000127 600000 1                  TZE     NO_MORE_HIST

      124     9018    2           END;                            /* Do i */

   9018  1 000114   200007 235100                    LDA     I,,AUTO
         1 000115   000001 035007                    ADLA    1,DL
         1 000116   200007 755100                    STA     I,,AUTO
         1 000117   000031 471500                    LDP1    25,,PR0
         1 000120   100002 236100                    LDQ     2,,PR1
         1 000121   200007 116100                    CMPQ    I,,AUTO
         1 000122   000062 603000 1                  TRC     s:9008

      125     9019    1        RETURN;

   9019  1 000123   000000 702200 xent               TSX2  ! X66_ARET

      126     9020    1   HIST_EMPTY: S_D.ERROR = E@HIST_EMPTY;   /* E@HIST_EMPTY */

   9020  1 000124   000151 235007       HIST_EMPTY   LDA     105,DL
         1 000125   000013 755100                    STA     11,,PR0

      127     9021    1        GOTO CALL_ERROR;

   9021  1 000126   000131 710000 1                  TRA     CALL_ERROR

      128     9022    1   NO_MORE_HIST: S_D.ERROR = E@NO_MORE_HIST; /* E@NO_MORE_HIST */

   9022  1 000127   000152 235007       NO_MORE_HIST LDA     106,DL
         1 000130   000013 755100                    STA     11,,PR0

PL6.E3A0      #001=DDA$PRTHIST File=DDA$HIST.:E05TSI                             TUE 07/29/97 13:29 Page:19
      129     9023    1   CALL_ERROR: CALL DDE$ERROR;

   9023  1 000131   000002 631400 xsym  CALL_ERROR   EPPR1   B_VECTNIL+2
         1 000132   000000 701000 xent               TSX1    DDE$ERROR
         1 000133   000000 011000                    NOP     0

   9019  1 000134                       HIST_RETURN  null
      130     9024    1   HIST_RETURN: ;
      131     9025    1        RETURN;

   9025  1 000134   000000 702200 xent               TSX2  ! X66_ARET

      132     9026        %EJECT;
PL6.E3A0      #001=DDA$PRTHIST File=DDA$HIST.:E05TSI                             TUE 07/29/97 13:29 Page:20
      133     9027    1   PRINT_IT: PROC;

   9027  1 000135   200026 741300       PRINT_IT     STX1  ! SAVE_DESCL$+5,,AUTO

      134     9028    2   DCL COUNT UBIN;
      135     9029        /*D* NAME: PRINT_IT
      136     9030             DESCRIPTION:  WILL PRINT THE HISTORY BUFFER ENTRY AT OUT$
      137     9031             */
      138     9032    2        S_D.OUTPUT = ' ';

   9032  1 000136   000000 470400 xsym               LDP0    S_D$
         1 000137   040100 100400                    MLR     fill='040'O
         1 000140   000035 000001 xsym               ADSC9   B_VECTNIL+29             cn=0,n=1
         1 000141   005335 004000                    ADSC9   2781,,PR0                cn=0,n=2048

      139     9033    2        REM = LENGTHC( S_D.OUTPUT );

   9033  1 000142   004000 235007                    LDA     2048,DL
         1 000143   200004 755100                    STA     REM,,AUTO

      140     9034    2        BB$ = ADDR(S_D.OUTPUT);

   9034  1 000144   000000 236000 xsym               LDQ     S_D$
         1 000145   005335 036003                    ADLQ    2781,DU
         1 000146   200006 756100                    STQ     BB$,,AUTO

      141     9035    3        DO CASE(TYPE);

   9035  1 000147   200015 235100                    LDA     TYPE,,AUTO
         1 000150   000014 115007                    CMPA    12,DL
         1 000151   000153 602005 1                  TNC     s:9035+4,AL
         1 000152   000343 710000 1                  TRA     s:9071
         1 000153   000167 710000 1                  TRA     s:9037
         1 000154   000167 710000 1                  TRA     s:9037
         1 000155   000243 710000 1                  TRA     s:9050
         1 000156   000261 710000 1                  TRA     s:9054
         1 000157   000225 710000 1                  TRA     s:9046
PL6.E3A0      #001=DDA$PRTHIST File=DDA$HIST.:E05TSI                             TUE 07/29/97 13:29 Page:21
         1 000160   000167 710000 1                  TRA     s:9037
         1 000161   000167 710000 1                  TRA     s:9037
         1 000162   000167 710000 1                  TRA     s:9037
         1 000163   000167 710000 1                  TRA     s:9037
         1 000164   000167 710000 1                  TRA     s:9037
         1 000165   000167 710000 1                  TRA     s:9037
         1 000166   000316 710000 1                  TRA     s:9065

      142     9036    3          CASE(H_TT, H_TC, H_ATC, H_TRTN, H_MERC, H_MERCS, H_RETRY, H_RETRYS);

      143     9037    3             IC = OUT$->HIST_BUF.LIC;

   9037  1 000167   200016 471500                    LDP1    OUT$,,AUTO
         1 000170   100000 235100                    LDA     0,,PR1
         1 000171   200013 755100                    STA     IC,,AUTO

      144     9038    3             NODE = OUT$->HIST_BUF.LNODE;

   9038  1 000172   100002 236100                    LDQ     2,,PR1
         1 000173   000033 772000                    QRL     27
         1 000174   200010 756100                    STQ     NODE,,AUTO

      145     9039    3             CALL GETADDR;

   9039  1 000175   000471 701000 1                  TSX1    GETADDR
         1 000176   000000 011000                    NOP     0

      146     9040    3             BB$ = PINCRC(BB$, NCARS);

   9040  1 000177   200005 236100                    LDQ     NCARS,,AUTO
         1 000200   000020 736000                    QLS     16
         1 000201   200006 036100                    ADLQ    BB$,,AUTO
         1 000202   200006 756100                    STQ     BB$,,AUTO

      147     9041    3             REM = REM - NCARS;

   9041  1 000203   200004 236100                    LDQ     REM,,AUTO
PL6.E3A0      #001=DDA$PRTHIST File=DDA$HIST.:E05TSI                             TUE 07/29/97 13:29 Page:22
         1 000204   200005 136100                    SBLQ    NCARS,,AUTO
         1 000205   200004 756100                    STQ     REM,,AUTO

      148     9042    3             BB$->CHAR16 = NAME_TABLE(TYPE);

   9042  1 000206   200015 235100                    LDA     TYPE,,AUTO
         1 000207   000004 735000                    ALS     4
         1 000210   200006 470500                    LDP0    BB$,,AUTO
         1 000211   040100 100405                    MLR     fill='040'O
         1 000212   000000 000020 0                  ADSC9   NAME_TABLE,A             cn=0,n=16
         1 000213   000000 000020                    ADSC9   0,,PR0                   cn=0,n=16

      149     9043    3             REM = REM - NAME_SIZE(TYPE);

   9043  1 000214   200015 720100                    LXL0    TYPE,,AUTO
         1 000215   200004 236100                    LDQ     REM,,AUTO
         1 000216   000060 136010 0                  SBLQ    NAME_SIZE,X0
         1 000217   200004 756100                    STQ     REM,,AUTO

      150     9044    3             BB$ = PINCRC(BB$, NAME_SIZE(TYPE));

   9044  1 000220   000060 236010 0                  LDQ     NAME_SIZE,X0
         1 000221   000020 736000                    QLS     16
         1 000222   200006 036100                    ADLQ    BB$,,AUTO
         1 000223   200006 756100                    STQ     BB$,,AUTO
         1 000224   000351 710000 1                  TRA     s:9075

      151     9045    3          CASE(H_GO);                      /* Goto */

      152     9046    3             BB$->CHAR12 = NAME_TABLE(TYPE);

   9046  1 000225   000004 735000                    ALS     4
         1 000226   200006 471500                    LDP1    BB$,,AUTO
         1 000227   040100 100405                    MLR     fill='040'O
         1 000230   000000 000014 0                  ADSC9   NAME_TABLE,A             cn=0,n=12
         1 000231   100000 000014                    ADSC9   0,,PR1                   cn=0,n=12

PL6.E3A0      #001=DDA$PRTHIST File=DDA$HIST.:E05TSI                             TUE 07/29/97 13:29 Page:23
      153     9047    3             BB$ = PINCRC(BB$, NAME_SIZE(TYPE));

   9047  1 000232   200015 720100                    LXL0    TYPE,,AUTO
         1 000233   000060 236010 0                  LDQ     NAME_SIZE,X0
         1 000234   000020 736000                    QLS     16
         1 000235   200006 036100                    ADLQ    BB$,,AUTO
         1 000236   200006 756100                    STQ     BB$,,AUTO

      154     9048    3             REM = REM - NAME_SIZE(TYPE);

   9048  1 000237   200004 236100                    LDQ     REM,,AUTO
         1 000240   000060 136010 0                  SBLQ    NAME_SIZE,X0
         1 000241   200004 756100                    STQ     REM,,AUTO
         1 000242   000351 710000 1                  TRA     s:9075

      155     9049    3          CASE(H_LET);                     /* Let $IC = */

      156     9050    3             BB$->CHAR12 = NAME_TABLE(TYPE);

   9050  1 000243   000004 735000                    ALS     4
         1 000244   200006 471500                    LDP1    BB$,,AUTO
         1 000245   040100 100405                    MLR     fill='040'O
         1 000246   000000 000014 0                  ADSC9   NAME_TABLE,A             cn=0,n=12
         1 000247   100000 000014                    ADSC9   0,,PR1                   cn=0,n=12

      157     9051    3             BB$ = PINCRC(BB$, NAME_SIZE(TYPE));

   9051  1 000250   200015 720100                    LXL0    TYPE,,AUTO
         1 000251   000060 236010 0                  LDQ     NAME_SIZE,X0
         1 000252   000020 736000                    QLS     16
         1 000253   200006 036100                    ADLQ    BB$,,AUTO
         1 000254   200006 756100                    STQ     BB$,,AUTO

      158     9052    3             REM = REM - NAME_SIZE(TYPE);

   9052  1 000255   200004 236100                    LDQ     REM,,AUTO
         1 000256   000060 136010 0                  SBLQ    NAME_SIZE,X0
PL6.E3A0      #001=DDA$PRTHIST File=DDA$HIST.:E05TSI                             TUE 07/29/97 13:29 Page:24
         1 000257   200004 756100                    STQ     REM,,AUTO
         1 000260   000351 710000 1                  TRA     s:9075

      159     9053    3          CASE(H_XEQ);                     /* Xeq transfer */

      160     9054    3             BB$->CHAR12 = NAME_TABLE(TYPE);

   9054  1 000261   000004 735000                    ALS     4
         1 000262   200006 471500                    LDP1    BB$,,AUTO
         1 000263   040100 100405                    MLR     fill='040'O
         1 000264   000000 000014 0                  ADSC9   NAME_TABLE,A             cn=0,n=12
         1 000265   100000 000014                    ADSC9   0,,PR1                   cn=0,n=12

      161     9055    3             BB$ = PINCRC(BB$, NAME_SIZE(TYPE));

   9055  1 000266   200015 720100                    LXL0    TYPE,,AUTO
         1 000267   000060 236010 0                  LDQ     NAME_SIZE,X0
         1 000270   000020 736000                    QLS     16
         1 000271   200006 036100                    ADLQ    BB$,,AUTO
         1 000272   200006 756100                    STQ     BB$,,AUTO

      162     9056    3             REM = REM - NAME_SIZE(TYPE);

   9056  1 000273   200004 236100                    LDQ     REM,,AUTO
         1 000274   000060 136010 0                  SBLQ    NAME_SIZE,X0
         1 000275   200004 756100                    STQ     REM,,AUTO

      163     9057    3             SAVE_D$ = S_D.D$;

   9057  1 000276   000044 236100                    LDQ     36,,PR0
         1 000277   200020 756100                    STQ     SAVE_D$,,AUTO

      164     9058    3             SAVE_DESCL$ = S_D.DESCL$;

   9058  1 000300   000042 236100                    LDQ     34,,PR0
         1 000301   200021 756100                    STQ     SAVE_DESCL$,,AUTO

PL6.E3A0      #001=DDA$PRTHIST File=DDA$HIST.:E05TSI                             TUE 07/29/97 13:29 Page:25
      165     9059    3             CALL DDR$INSTR(OUT$->UBIN36);

   9059  1 000302   200016 630500                    EPPR0   OUT$,,AUTO
         1 000303   000017 631400 xsym               EPPR1   B_VECTNIL+15
         1 000304   000000 701000 xent               TSX1    DDR$INSTR
         1 000305   000000 011000                    NOP     0

      166     9060    3             BB$ = S_D.D$;

   9060  1 000306   000000 470400 xsym               LDP0    S_D$
         1 000307   000044 236100                    LDQ     36,,PR0
         1 000310   200006 756100                    STQ     BB$,,AUTO

      167     9061    3             S_D.D$ = SAVE_D$;

   9061  1 000311   200020 236100                    LDQ     SAVE_D$,,AUTO
         1 000312   000044 756100                    STQ     36,,PR0

      168     9062    3             SAVE_DESCL$ = S_D.DESCL$;

   9062  1 000313   000042 236100                    LDQ     34,,PR0
         1 000314   200021 756100                    STQ     SAVE_DESCL$,,AUTO

      169     9063    3             GOTO SKIP_RIC;

   9063  1 000315   000366 710000 1                  TRA     SKIP_RIC

      170     9064    3          CASE(H_STT);                /* Trace transfer return from shared code */

      171     9065    3             BB$->CHAR16 = NAME_TABLE(TYPE);

   9065  1 000316   000004 735000                    ALS     4
         1 000317   200006 471500                    LDP1    BB$,,AUTO
         1 000320   040100 100405                    MLR     fill='040'O
         1 000321   000000 000020 0                  ADSC9   NAME_TABLE,A             cn=0,n=16
         1 000322   100000 000020                    ADSC9   0,,PR1                   cn=0,n=16

PL6.E3A0      #001=DDA$PRTHIST File=DDA$HIST.:E05TSI                             TUE 07/29/97 13:29 Page:26
      172     9066    3             BB$ = PINCRC(BB$, NAME_SIZE(TYPE));

   9066  1 000323   200015 720100                    LXL0    TYPE,,AUTO
         1 000324   000060 236010 0                  LDQ     NAME_SIZE,X0
         1 000325   000020 736000                    QLS     16
         1 000326   200006 036100                    ADLQ    BB$,,AUTO
         1 000327   200006 756100                    STQ     BB$,,AUTO

      173     9067    3             BB$->CHAR4 = '--> ';

   9067  1 000330   200006 471500                    LDP1    BB$,,AUTO
         1 000331   040100 100400                    MLR     fill='040'O
         1 000332   000074 000004 0                  ADSC9   NAME_SIZE+12             cn=0,n=4
         1 000333   100000 000004                    ADSC9   0,,PR1                   cn=0,n=4

      174     9068    3             BB$ = PINCRC(BB$, 4);

   9068  1 000334   200006 236100                    LDQ     BB$,,AUTO
         1 000335   000001 036003                    ADLQ    1,DU
         1 000336   200006 756100                    STQ     BB$,,AUTO

      175     9069    3             REM = REM - 17;

   9069  1 000337   200004 235100                    LDA     REM,,AUTO
         1 000340   000021 135007                    SBLA    17,DL
         1 000341   200004 755100                    STA     REM,,AUTO
         1 000342   000351 710000 1                  TRA     s:9075

      176     9070    3          CASE(ELSE);

      177     9071    3             S_D.ERROR = E@DELBUG;         /* E@DELBUG */

   9071  1 000343   000766 235007                    LDA     502,DL
         1 000344   000013 755100                    STA     11,,PR0

      178     9072    3             CALL DDE$ERROR;

PL6.E3A0      #001=DDA$PRTHIST File=DDA$HIST.:E05TSI                             TUE 07/29/97 13:29 Page:27
   9072  1 000345   000002 631400 xsym               EPPR1   B_VECTNIL+2
         1 000346   000000 701000 xent               TSX1    DDE$ERROR
         1 000347   000000 011000                    NOP     0

      179     9073    3             GOTO SKIP_WRITE;

   9073  1 000350   000467 710000 1                  TRA     SKIP_WRITE

      180     9074    3          END;                             /* Case type */

      181     9075    2        IC = OUT$->HIST_BUF.RIC;

   9075  1 000351   200016 470500                    LDP0    OUT$,,AUTO
         1 000352   000001 235100                    LDA     1,,PR0
         1 000353   200013 755100                    STA     IC,,AUTO

      182     9076    2        NODE = OUT$->HIST_BUF.RNODE;

   9076  1 000354   000002 236100                    LDQ     2,,PR0
         1 000355   000022 772000                    QRL     18
         1 000356   000777 376007                    ANQ     511,DL
         1 000357   200010 756100                    STQ     NODE,,AUTO

      183     9077    2        CALL GETADDR;

   9077  1 000360   000471 701000 1                  TSX1    GETADDR
         1 000361   000000 011000                    NOP     0

      184     9078    2        BB$ = PINCRC(BB$, NCARS);

   9078  1 000362   200005 236100                    LDQ     NCARS,,AUTO
         1 000363   000020 736000                    QLS     16
         1 000364   200006 036100                    ADLQ    BB$,,AUTO
         1 000365   200006 756100                    STQ     BB$,,AUTO

   9078  1 000366                       SKIP_RIC     null
      185     9079    2   SKIP_RIC: ;
PL6.E3A0      #001=DDA$PRTHIST File=DDA$HIST.:E05TSI                             TUE 07/29/97 13:29 Page:28
      186     9080    2        IF OUT$->HIST_BUF.COUNT > 1

   9080  1 000366   200016 470500                    LDP0    OUT$,,AUTO
         1 000367   000002 236100                    LDQ     2,,PR0
         1 000370   037777 376007                    ANQ     16383,DL
         1 000371   000002 116007                    CMPQ    2,DL
         1 000372   000442 602000 1                  TNC     s:9089

      187     9081    3        THEN DO;

      188     9082    3             BB$->CHAR12 = ' * ';

   9082  1 000373   200006 471500                    LDP1    BB$,,AUTO
         1 000374   040100 100400                    MLR     fill='040'O
         1 000375   000075 000003 0                  ADSC9   NAME_SIZE+13             cn=0,n=3
         1 000376   100000 000014                    ADSC9   0,,PR1                   cn=0,n=12

      189     9083    3             BB$ = PINCRC(BB$,3);

   9083  1 000377   200006 236100                    LDQ     BB$,,AUTO
         1 000400   600000 036007                    ADLQ    -65536,DL
         1 000401   200006 756100                    STQ     BB$,,AUTO

      190     9084    3             COUNT = OUT$->HIST_BUF.COUNT;

   9084  1 000402   000002 236100                    LDQ     2,,PR0
         1 000403   037777 376007                    ANQ     16383,DL
         1 000404   200027 756100                    STQ     COUNT,,AUTO

      191     9085    3             CALL DDR$BINTXT(BB$, COUNT, %UINT_FMT, JUNK);

   9085  1 000405   200017 631500                    EPPR1   JUNK,,AUTO
         1 000406   200035 451500                    STP1    COUNT+6,,AUTO
         1 000407   000000 236000 2                  LDQ     0
         1 000410   200034 756100                    STQ     COUNT+5,,AUTO
         1 000411   200027 633500                    EPPR3   COUNT,,AUTO
         1 000412   200033 453500                    STP3    COUNT+4,,AUTO
PL6.E3A0      #001=DDA$PRTHIST File=DDA$HIST.:E05TSI                             TUE 07/29/97 13:29 Page:29
         1 000413   200006 634500                    EPPR4   BB$,,AUTO
         1 000414   200032 454500                    STP4    COUNT+3,,AUTO
         1 000415   200032 630500                    EPPR0   COUNT+3,,AUTO
         1 000416   000022 631400 xsym               EPPR1   B_VECTNIL+18
         1 000417   000000 701000 xent               TSX1    DDR$BINTXT
         1 000420   000000 011000                    NOP     0

      192     9086    3             CALL DDR$BINTXT(BB$, OUT$->HIST_BUF.COUNT, %UINT_FMT, JUNK);

   9086  1 000421   200017 630500                    EPPR0   JUNK,,AUTO
         1 000422   200035 450500                    STP0    COUNT+6,,AUTO
         1 000423   000000 236000 2                  LDQ     0
         1 000424   200034 756100                    STQ     COUNT+5,,AUTO
         1 000425   200016 236100                    LDQ     OUT$,,AUTO
         1 000426   000001 036000 2                  ADLQ    1
         1 000427   200033 756100                    STQ     COUNT+4,,AUTO
         1 000430   200006 631500                    EPPR1   BB$,,AUTO
         1 000431   200032 451500                    STP1    COUNT+3,,AUTO
         1 000432   200032 630500                    EPPR0   COUNT+3,,AUTO
         1 000433   000022 631400 xsym               EPPR1   B_VECTNIL+18
         1 000434   000000 701000 xent               TSX1    DDR$BINTXT
         1 000435   000000 011000                    NOP     0

      193     9087    3             BB$ = PINCRC(BB$,JUNK);

   9087  1 000436   200017 236100                    LDQ     JUNK,,AUTO
         1 000437   000020 736000                    QLS     16
         1 000440   200006 036100                    ADLQ    BB$,,AUTO
         1 000441   200006 756100                    STQ     BB$,,AUTO

      194     9088    3           END;

      195     9089    2        CALL DDQ$WRITE(ADDR(S_D.OUTPUT), POFFC(BB$, ADDR(S_D.OUTPUT)));

   9089  1 000442   000000 236000 xsym               LDQ     S_D$
         1 000443   005335 036003                    ADLQ    2781,DU
         1 000444   000020 772000                    QRL     16
PL6.E3A0      #001=DDA$PRTHIST File=DDA$HIST.:E05TSI                             TUE 07/29/97 13:29 Page:30
         1 000445   200032 756100                    STQ     COUNT+3,,AUTO
         1 000446   200006 236100                    LDQ     BB$,,AUTO
         1 000447   000020 772000                    QRL     16
         1 000450   200032 136100                    SBLQ    COUNT+3,,AUTO
         1 000451   200034 756100                    STQ     COUNT+5,,AUTO
         1 000452   000000 236000 xsym               LDQ     S_D$
         1 000453   005335 036003                    ADLQ    2781,DU
         1 000454   200033 756100                    STQ     COUNT+4,,AUTO
         1 000455   200034 235100                    LDA     COUNT+5,,AUTO
         1 000456   200035 755100                    STA     COUNT+6,,AUTO
         1 000457   200035 630500                    EPPR0   COUNT+6,,AUTO
         1 000460   200037 450500                    STP0    COUNT+8,,AUTO
         1 000461   200033 631500                    EPPR1   COUNT+4,,AUTO
         1 000462   200036 451500                    STP1    COUNT+7,,AUTO
         1 000463   200036 630500                    EPPR0   COUNT+7,,AUTO
         1 000464   000020 631400 xsym               EPPR1   B_VECTNIL+16
         1 000465   000000 701000 xent               TSX1    DDQ$WRITE
         1 000466   000000 011000                    NOP     0

      196     9090    2   SKIP_WRITE:
      197     9091    2        RETURN;

   9091  1 000467   200026 221300       SKIP_WRITE   LDX1  ! SAVE_DESCL$+5,,AUTO
         1 000470   000001 702211                    TSX2  ! 1,X1

      198     9092        %EJECT;
PL6.E3A0      #001=DDA$PRTHIST File=DDA$HIST.:E05TSI                             TUE 07/29/97 13:29 Page:31
      199     9093    2   GETADDR: PROC;

   9093  1 000471   200030 741300       GETADDR      STX1  ! COUNT+1,,AUTO

      200     9094    3        IF S_D.OVERLAID

   9094  1 000472   000000 470400 xsym               LDP0    S_D$
         1 000473   004764 234100                    SZN     2548,,PR0
         1 000474   000616 605000 1                  TPL     s:9118

      201     9095    4        THEN DO;

      202     9096    4             TREE$ = S_D.TREE$;

   9096  1 000475   004761 236100                    LDQ     2545,,PR0
         1 000476   200014 756100                    STQ     TREE$,,AUTO

      203     9097    4             IF NOT TREE$->DU$TREE.NOW_IN(NODE)

   9097  1 000477   200010 236100                    LDQ     NODE,,AUTO
         1 000500   000003 402007                    MPY     3,DL
         1 000501   200014 471500                    LDP1    TREE$,,AUTO
         1 000502   100002 234106                    SZN     2,QL,PR1
         1 000503   000601 604000 1                  TMI     s:9116

      204     9098    5             THEN DO;

      205     9099    5                  CNODE = S_D.NODE;

   9099  1 000504   004706 235100                    LDA     2502,,PR0
         1 000505   200011 755100                    STA     CNODE,,AUTO

      206     9100    5                  S_D.NODE = NODE;

   9100  1 000506   200010 235100                    LDA     NODE,,AUTO
         1 000507   004706 755100                    STA     2502,,PR0

PL6.E3A0      #001=DDA$PRTHIST File=DDA$HIST.:E05TSI                             TUE 07/29/97 13:29 Page:32
      207     9101    5                  CALL DDS$EUTREE;

   9101  1 000510   000002 631400 xsym               EPPR1   B_VECTNIL+2
         1 000511   000000 701000 xent               TSX1    DDS$EUTREE
         1 000512   000000 011000                    NOP     0

      208     9102    5                  S_D.TREE$ = S_D.UTREE$;

   9102  1 000513   000000 470400 xsym               LDP0    S_D$
         1 000514   004763 236100                    LDQ     2547,,PR0
         1 000515   004761 756100                    STQ     2545,,PR0

      209     9103    5                  ISADDR = S_D.B$TREE$->B$NODE.PADDR(NODE);

   9103  1 000516   004767 471500                    LDP1    2551,,PR0
         1 000517   200010 236100                    LDQ     NODE,,AUTO
         1 000520   000006 402007                    MPY     6,DL
         1 000521   100003 236106                    LDQ     3,QL,PR1
         1 000522   000022 772000                    QRL     18
         1 000523   200012 756100                    STQ     ISADDR,,AUTO

      210     9104    5                  CALL DDS$ES_INQ (ISADDR);

   9104  1 000524   200012 633500                    EPPR3   ISADDR,,AUTO
         1 000525   200032 453500                    STP3    COUNT+3,,AUTO
         1 000526   200032 630500                    EPPR0   COUNT+3,,AUTO
         1 000527   000017 631400 xsym               EPPR1   B_VECTNIL+15
         1 000530   000000 701000 xent               TSX1    DDS$ES_INQ
         1 000531   000000 011000                    NOP     0

      211     9105    5                  CALL DDR$POSIT (IC, BB$, REM, NCARS);

   9105  1 000532   200005 630500                    EPPR0   NCARS,,AUTO
         1 000533   200035 450500                    STP0    COUNT+6,,AUTO
         1 000534   200004 631500                    EPPR1   REM,,AUTO
         1 000535   200034 451500                    STP1    COUNT+5,,AUTO
         1 000536   200006 633500                    EPPR3   BB$,,AUTO
PL6.E3A0      #001=DDA$PRTHIST File=DDA$HIST.:E05TSI                             TUE 07/29/97 13:29 Page:33
         1 000537   200033 453500                    STP3    COUNT+4,,AUTO
         1 000540   200013 634500                    EPPR4   IC,,AUTO
         1 000541   200032 454500                    STP4    COUNT+3,,AUTO
         1 000542   200032 630500                    EPPR0   COUNT+3,,AUTO
         1 000543   000022 631400 xsym               EPPR1   B_VECTNIL+18
         1 000544   000000 701000 xent               TSX1    DDR$POSIT
         1 000545   000000 011000                    NOP     0

      212     9106    5                  S_D.NODE = CNODE;

   9106  1 000546   000000 470400 xsym               LDP0    S_D$
         1 000547   200011 235100                    LDA     CNODE,,AUTO
         1 000550   004706 755100                    STA     2502,,PR0

      213     9107    5                  S_D.TREE$ = TREE$;

   9107  1 000551   200014 236100                    LDQ     TREE$,,AUTO
         1 000552   004761 756100                    STQ     2545,,PR0

      214     9108    5                  IF TREE$ = S_D.MTREE$

   9108  1 000553   004762 116100                    CMPQ    2546,,PR0
         1 000554   000560 601000 1                  TNZ     s:9111

      215     9109    5                  THEN ISADDR = S_D.SAVEIC;

   9109  1 000555   000002 235100                    LDA     2,,PR0
         1 000556   200012 755100                    STA     ISADDR,,AUTO
         1 000557   000572 710000 1                  TRA     s:9114

      216     9110    6                  ELSE DO;

      217     9111    6                       CALL DDS$EUTREE;

   9111  1 000560   000002 631400 xsym               EPPR1   B_VECTNIL+2
         1 000561   000000 701000 xent               TSX1    DDS$EUTREE
         1 000562   000000 011000                    NOP     0
PL6.E3A0      #001=DDA$PRTHIST File=DDA$HIST.:E05TSI                             TUE 07/29/97 13:29 Page:34

      218     9112    6                       ISADDR = S_D.B$TREE$->B$NODE.PADDR(CNODE);

   9112  1 000563   000000 470400 xsym               LDP0    S_D$
         1 000564   004767 471500                    LDP1    2551,,PR0
         1 000565   200011 236100                    LDQ     CNODE,,AUTO
         1 000566   000006 402007                    MPY     6,DL
         1 000567   100003 236106                    LDQ     3,QL,PR1
         1 000570   000022 772000                    QRL     18
         1 000571   200012 756100                    STQ     ISADDR,,AUTO

      219     9113    6                     END;

      220     9114    5                  CALL DDS$ES_INQ(ISADDR);

   9114  1 000572   200012 631500                    EPPR1   ISADDR,,AUTO
         1 000573   200032 451500                    STP1    COUNT+3,,AUTO
         1 000574   200032 630500                    EPPR0   COUNT+3,,AUTO
         1 000575   000017 631400 xsym               EPPR1   B_VECTNIL+15
         1 000576   000000 701000 xent               TSX1    DDS$ES_INQ
         1 000577   000000 011000                    NOP     0

      221     9115    5                END;

   9115  1 000600   000632 710000 1                  TRA     s:9119

      222     9116    4             ELSE CALL DDR$POSIT (IC, BB$, REM, NCARS);

   9116  1 000601   200005 633500                    EPPR3   NCARS,,AUTO
         1 000602   200035 453500                    STP3    COUNT+6,,AUTO
         1 000603   200004 634500                    EPPR4   REM,,AUTO
         1 000604   200034 454500                    STP4    COUNT+5,,AUTO
         1 000605   200006 635500                    EPPR5   BB$,,AUTO
         1 000606   200033 455500                    STP5    COUNT+4,,AUTO
         1 000607   200013 636500                    EPPR6   IC,,AUTO
         1 000610   200032 456500                    STP6    COUNT+3,,AUTO
         1 000611   200032 630500                    EPPR0   COUNT+3,,AUTO
PL6.E3A0      #001=DDA$PRTHIST File=DDA$HIST.:E05TSI                             TUE 07/29/97 13:29 Page:35
         1 000612   000022 631400 xsym               EPPR1   B_VECTNIL+18
         1 000613   000000 701000 xent               TSX1    DDR$POSIT
         1 000614   000000 011000                    NOP     0

      223     9117    4           END;

   9117  1 000615   000632 710000 1                  TRA     s:9119

      224     9118    3        ELSE CALL DDR$POSIT (IC, BB$, REM, NCARS);

   9118  1 000616   200005 631500                    EPPR1   NCARS,,AUTO
         1 000617   200035 451500                    STP1    COUNT+6,,AUTO
         1 000620   200004 633500                    EPPR3   REM,,AUTO
         1 000621   200034 453500                    STP3    COUNT+5,,AUTO
         1 000622   200006 634500                    EPPR4   BB$,,AUTO
         1 000623   200033 454500                    STP4    COUNT+4,,AUTO
         1 000624   200013 635500                    EPPR5   IC,,AUTO
         1 000625   200032 455500                    STP5    COUNT+3,,AUTO
         1 000626   200032 630500                    EPPR0   COUNT+3,,AUTO
         1 000627   000022 631400 xsym               EPPR1   B_VECTNIL+18
         1 000630   000000 701000 xent               TSX1    DDR$POSIT
         1 000631   000000 011000                    NOP     0

      225     9119    3        RETURN;

   9119  1 000632   200030 221300                    LDX1  ! COUNT+1,,AUTO
         1 000633   000001 702211                    TSX2  ! 1,X1

NAME_TABLE
 Sect OctLoc
   0     000   040055 055076   040040 040040   040040 040040   040040 040040     -->
   0     004   040074 103101   114114 105104   076040 040040   040040 040040     <CALLED>
   0     010   074114 105124   040044 111103   040075 076040   040040 040040    <LET $IC =>
   0     014   074130 105121   076040 040040   040040 040040   040040 040040    <XEQ>
   0     020   074107 117076   040040 040040   040040 040040   040040 040040    <GO>
   0     024   040074 101123   131116 103040   105116 124122   131076 040040     <ASYNC ENTRY>
   0     030   040074 124122   124116 040124   117076 040040   040040 040040     <TRTN TO>
PL6.E3A0      #001=DDA$PRTHIST File=DDA$HIST.:E05TSI                             TUE 07/29/97 13:29 Page:36
   0     034   040074 115105   122103 040124   117076 040040   040040 040040     <MERC TO>
   0     040   040074 115105   122103 123040   124117 076040   040040 040040     <MERCS TO>
   0     044   040074 122105   124122 131040   124117 076040   040040 040040     <RETRY TO>
   0     050   040074 122105   124122 131123   040124 117076   040040 040040     <RETRYS TO>
   0     054   133123 110101   122105 104055   114111 102135   040040 040040    [SHARED-LIB]

NAME_SIZE
 Sect OctLoc
   0     060   000000 000005   000000 000012   000000 000014   000000 000006    ................
   0     064   000000 000005   000000 000017   000000 000013   000000 000013    ................
   0     070   000000 000014   000000 000014   000000 000015   000000 000015    ................

(unnamed)
 Sect OctLoc
   0     074   055055 076040   040052 040040                                    -->  *

(unnamed)
 Sect OctLoc
   2     000   000004 006000   000002 440000                                    ........
      226     9120    3   END GETADDR;
      227     9121    2   END PRINT_IT;
      228     9122    1   END DDA$PRTHIST;

PL6.E3A0      #001=DDA$PRTHIST File=DDA$HIST.:E05TSI                             TUE 07/29/97 13:29 Page:37
--  Include file information  --

   DD_SD_M.:E05TOU  is referenced.
   XUH_MACRO_C.:E05TOU  is referenced.
   B$OBJECT_C.:E05TOU  is referenced.
   DD_SRTN_C.:E05TOU  is referenced.
   DD_ACODE_C.:E05TOU  is referenced.
   DD_ICODE_C.:E05TOU  is referenced.
   DD$DITEM.:E05TOU  cannot be made into a system file and is referenced.
   DD$BASED.:E05TOU  is referenced.
   DD_ERR_C.:E05TOU  is referenced.
   DD_SUBS_C.:E05TOU  is referenced.
   B$JIT_C.:E05TOU  was found in the system file and is never referenced.
   CP_6_C.:E05TOU  was found in the system file and is never referenced.
      No diagnostics issued in procedure DDA$PRTHIST.

   Procedure DDA$PRTHIST requires 412 words for executable code.
   Procedure DDA$PRTHIST requires 32 words of local(AUTO) storage.

    No errors detected in file DDA$HIST.:E05TSI    .
PL6.E3A0      #001=DDA$PRTHIST File=DDA$HIST.:E05TSI                             TUE 07/29/97 13:29 Page:38
          *** CROSS REFERENCE LISTING ***
**     DENOTES     IDENTIFIER DEFINITION
<<                 IDENTIFIER'S VALUE SET
>>                 IDENTIFIER'S VALUE USED
<>                 IDENTIFIER SET AND/OR USED
--                 IDENTIFIER REFERENCED
PL6.E3A0      #001=DDA$PRTHIST File=DDA$HIST.:E05TSI                             TUE 07/29/97 13:29 Page:39
          MINI XREF LISTING

B$NODE.PADDR
      6192**DCL      9103>>ASSIGN   9112>>ASSIGN
BB$
        19**DCL      9034<<ASSIGN   9040<<ASSIGN   9040>>ASSIGN   9042>>ASSIGN   9044<<ASSIGN   9044>>ASSIGN
      9046>>ASSIGN   9047<<ASSIGN   9047>>ASSIGN   9050>>ASSIGN   9051<<ASSIGN   9051>>ASSIGN   9054>>ASSIGN
      9055<<ASSIGN   9055>>ASSIGN   9060<<ASSIGN   9065>>ASSIGN   9066<<ASSIGN   9066>>ASSIGN   9067>>ASSIGN
      9068<<ASSIGN   9068>>ASSIGN   9078<<ASSIGN   9078>>ASSIGN   9082>>ASSIGN   9083<<ASSIGN   9083>>ASSIGN
      9085<>CALL     9086<>CALL     9087<<ASSIGN   9087>>ASSIGN   9089>>CALL     9105<>CALL     9116<>CALL
      9118<>CALL
CALL_ERROR
      9023**LABEL    9021--GOTO
CHAR12
        31**DCL      9046<<ASSIGN   9050<<ASSIGN   9054<<ASSIGN   9082<<ASSIGN
CHAR16
        32**DCL      9042<<ASSIGN   9065<<ASSIGN
CHAR4
        34**DCL      9067<<ASSIGN
CNODE
        22**DCL      9099<<ASSIGN   9106>>ASSIGN   9112>>ASSIGN
COUNT IN PROCEDURE PRINT_IT
      9028**DCL      9084<<ASSIGN   9085<>CALL
DDB$BREAK
      8971**DCL-ENT  9008--CALL
DDE$ERROR
      8970**DCL-ENT  9023--CALL     9072--CALL
DDQ$WRITE
      8968**DCL-ENT  9089--CALL
DDR$BINTXT
      8972**DCL-ENT  9085--CALL     9086--CALL
DDR$INSTR
      8969**DCL-ENT  9059--CALL
DDR$POSIT
PL6.E3A0      #001=DDA$PRTHIST File=DDA$HIST.:E05TSI                             TUE 07/29/97 13:29 Page:40
      8967**DCL-ENT  9105--CALL     9116--CALL     9118--CALL
DDS$ES_INQ
      8973**DCL-ENT  9104--CALL     9114--CALL
DDS$EUTREE
      8974**DCL-ENT  9101--CALL     9111--CALL
DU$TREE.NOW_IN
      2713**DCL      9097>>IF
GETADDR IN PROCEDURE PRINT_IT
      9093**PROC     9039--CALL     9077--CALL
HIST$CMD.CLEAR
      2702**DCL      8985>>IF
HIST$CMD.COUNT
      2707**DCL      9007>>DOINDEX
HIST$CMD.MORE
      2701**DCL      8996>>IF
HIST_BUF
      2688**DCL      9016--ASSIGN
HIST_BUF.COUNT
      2694**DCL      9080>>IF       9084>>ASSIGN   9086<>CALL
HIST_BUF.LIC
      2689**DCL      9037>>ASSIGN
HIST_BUF.LNODE
      2691**DCL      9038>>ASSIGN
HIST_BUF.RIC
      2690**DCL      9075>>ASSIGN
HIST_BUF.RNODE
      2692**DCL      9076>>ASSIGN
HIST_BUF.TYPE
      2693**DCL      8977>>ASSIGN   9010>>ASSIGN
HIST_EMPTY
      9020**LABEL    8995--GOTO
HIST_RETURN
      9019**LABEL    9008--CALLALT
I
        20**DCL      9007<<DOINDEX
IC
PL6.E3A0      #001=DDA$PRTHIST File=DDA$HIST.:E05TSI                             TUE 07/29/97 13:29 Page:41
        24**DCL      9037<<ASSIGN   9075<<ASSIGN   9105<>CALL     9116<>CALL     9118<>CALL
ISADDR
        23**DCL      9103<<ASSIGN   9104<>CALL     9109<<ASSIGN   9112<<ASSIGN   9114<>CALL
JUNK
        28**DCL      9085<>CALL     9086<>CALL     9087>>ASSIGN
NAME_SIZE
      8954**DCL      9043>>ASSIGN   9044>>ASSIGN   9047>>ASSIGN   9048>>ASSIGN   9051>>ASSIGN   9052>>ASSIGN
      9055>>ASSIGN   9056>>ASSIGN   9066>>ASSIGN
NAME_TABLE
      8941**DCL      9042>>ASSIGN   9046>>ASSIGN   9050>>ASSIGN   9054>>ASSIGN   9065>>ASSIGN
NCARS
        18**DCL      9040>>ASSIGN   9041>>ASSIGN   9078>>ASSIGN   9105<>CALL     9116<>CALL     9118<>CALL
NODE
        21**DCL      9038<<ASSIGN   9076<<ASSIGN   9097>>IF       9100>>ASSIGN   9103>>ASSIGN
NO_MORE_HIST
      9022**LABEL    8998--GOTO     9000--GOTO     9015--GOTO     9017--GOTO
OUT$
        27**DCL      8976<<ASSIGN   8977>>ASSIGN   9009<<ASSIGN   9010>>ASSIGN   9037>>ASSIGN   9038>>ASSIGN
      9059>>CALL     9075>>ASSIGN   9076>>ASSIGN   9080>>IF       9084>>ASSIGN   9086>>CALL
PASSED_OUT$
        16**DCL        10--PROC     8976>>ASSIGN
PRINT_IT
      9027**PROC     8978--CALL     9011--CALL
REM
        17**DCL      9033<<ASSIGN   9041<<ASSIGN   9041>>ASSIGN   9043<<ASSIGN   9043>>ASSIGN   9048<<ASSIGN
      9048>>ASSIGN   9052<<ASSIGN   9052>>ASSIGN   9056<<ASSIGN   9056>>ASSIGN   9069<<ASSIGN   9069>>ASSIGN
      9105<>CALL     9116<>CALL     9118<>CALL
SAVE_D$
        29**DCL      9057<<ASSIGN   9061>>ASSIGN
SAVE_DESCL$
        30**DCL      9058<<ASSIGN   9062<<ASSIGN
SKIP_RIC IN PROCEDURE PRINT_IT
      9078**LABEL    9063--GOTO
SKIP_WRITE IN PROCEDURE PRINT_IT
      9091**LABEL    9073--GOTO
S_D.B$TREE$
PL6.E3A0      #001=DDA$PRTHIST File=DDA$HIST.:E05TSI                             TUE 07/29/97 13:29 Page:42
      8295**DCL      9103>>ASSIGN   9112>>ASSIGN
S_D.CURRENT_CHANNEL
      8575**DCL      8577--REDEF
S_D.D$
      7713**DCL      9057>>ASSIGN   9060>>ASSIGN   9061<<ASSIGN
S_D.DEBUGA
      7727**DCL      7729--REDEF
S_D.DESCL$
      7709**DCL      9058>>ASSIGN   9062>>ASSIGN
S_D.DO$
      7678**DCL      8985>>IF       8996>>IF       9007>>DOINDEX
S_D.EIS
      8685**DCL      8714--REDEF
S_D.ERROR
      7656**DCL      9020<<ASSIGN   9022<<ASSIGN   9071<<ASSIGN
S_D.HIST.CURR$
      8212**DCL      8987<<ASSIGN   8997>>IF       9003>>ASSIGN   9017>>IF
S_D.HIST.EMPTY
      8222**DCL      8991<<ASSIGN   8995>>IF
S_D.HIST.END$
      8210**DCL      9014>>ASSIGN
S_D.HIST.OUT$
      8214**DCL      8988<<ASSIGN   8997>>IF       9000>>IF       9003<<ASSIGN   9009>>ASSIGN   9012>>IF
      9014<<ASSIGN   9016<<ASSIGN   9016>>ASSIGN   9017>>IF
S_D.HIST.OUT_ACTIVE
      8218**DCL      8990<<ASSIGN   8996>>IF       9004<<ASSIGN
S_D.HIST.ROLLOVER
      8216**DCL      8989<<ASSIGN   8997>>IF       9013>>IF
S_D.HIST.START$
      8208**DCL      8987>>ASSIGN   8988>>ASSIGN   9000>>IF       9012>>IF
S_D.HOST_MESSAGE_BUF_REMOTE
      8618**DCL      8619--REDEF    8633--REDEF
S_D.JDE
      8232**DCL      8233--REDEF
S_D.L$.VALUE
      7785**DCL      7791--REDEF    7799--REDEF    7802--REDEF    7805--REDEF    7808--REDEF
PL6.E3A0      #001=DDA$PRTHIST File=DDA$HIST.:E05TSI                             TUE 07/29/97 13:29 Page:43
S_D.L$.VALUE.L
      7786**DCL      7787--REDEF    7788--REDEF
S_D.L6_MESSAGE_BUF
      8639**DCL      8641--REDEF
S_D.MTREE$
      8285**DCL      9108>>IF
S_D.NODE
      8184**DCL      9099>>ASSIGN   9100<<ASSIGN   9106<<ASSIGN
S_D.OUTPUT
      8605**DCL      8607--REDEF    9032<<ASSIGN   9033--ASSIGN   9034--ASSIGN   9089--CALL     9089--CALL
S_D.OVERLAID
      8289**DCL      9094>>IF
S_D.REMOTE_MSG.FNCC
      8624**DCL      8625--REDEF
S_D.REMOTE_MSG.STXC
      8620**DCL      8621--REDEF
S_D.REMOTE_MSG.SUBFNCC
      8628**DCL      8629--REDEF
S_D.SAVEIC
      7638**DCL      9109>>ASSIGN
S_D.SV
      7684**DCL      7705--REDEF
S_D.TREE$
      8283**DCL      9096>>ASSIGN   9102<<ASSIGN   9107<<ASSIGN
S_D.UTREE$
      8287**DCL      9102>>ASSIGN
S_D$
      8936**DCL      7632--IMP-PTR  8985>>IF       8987>>ASSIGN   8987>>ASSIGN   8988>>ASSIGN   8988>>ASSIGN
      8989>>ASSIGN   8990>>ASSIGN   8991>>ASSIGN   8995>>IF       8996>>IF       8996>>IF       8997>>IF
      8997>>IF       8997>>IF       9000>>IF       9000>>IF       9003>>ASSIGN   9003>>ASSIGN   9004>>ASSIGN
      9007>>DOINDEX  9009>>ASSIGN   9012>>IF       9012>>IF       9013>>IF       9014>>ASSIGN   9014>>ASSIGN
      9016>>ASSIGN   9016>>ASSIGN   9017>>IF       9017>>IF       9020>>ASSIGN   9022>>ASSIGN   9032>>ASSIGN
      9034>>ASSIGN   9057>>ASSIGN   9058>>ASSIGN   9060>>ASSIGN   9061>>ASSIGN   9062>>ASSIGN   9071>>ASSIGN
      9089>>CALL     9089>>CALL     9094>>IF       9096>>ASSIGN   9099>>ASSIGN   9100>>ASSIGN   9102>>ASSIGN
      9102>>ASSIGN   9103>>ASSIGN   9106>>ASSIGN   9107>>ASSIGN   9108>>IF       9109>>ASSIGN   9112>>ASSIGN
TREE$
PL6.E3A0      #001=DDA$PRTHIST File=DDA$HIST.:E05TSI                             TUE 07/29/97 13:29 Page:44
        25**DCL      9096<<ASSIGN   9097>>IF       9107>>ASSIGN   9108>>IF
TYPE
        26**DCL      8977<<ASSIGN   9010<<ASSIGN   9035>>DOCASE   9042>>ASSIGN   9043>>ASSIGN   9044>>ASSIGN
      9046>>ASSIGN   9047>>ASSIGN   9048>>ASSIGN   9050>>ASSIGN   9051>>ASSIGN   9052>>ASSIGN   9054>>ASSIGN
      9055>>ASSIGN   9056>>ASSIGN   9065>>ASSIGN   9066>>ASSIGN
UBIN36
        33**DCL      9059<>CALL
PL6.E3A0      #001=DDA$PRTHIST File=DDA$HIST.:E05TSI                             TUE 07/29/97 13:29 Page:45
              *** CROSS REFERENCE LISTING ***
    **     DENOTES     IDENTIFIER DEFINITION
    <<                 IDENTIFIER'S VALUE SET
    >>                 IDENTIFIER'S VALUE USED
    <>                 IDENTIFIER SET AND/OR USED
    --                 IDENTIFIER REFERENCED
PL6.E3A0      #001=DDA$PRTHIST File=DDA$HIST.:E05TSI                             TUE 07/29/97 13:29 Page:46
              MINI UREF LISTING

B$TREEHDR    6146**DCL
DDA$HIST    8980**ENTRY
DDA$PRTHIST      10**PROC
SDD$    2110**DCL
SDD_L6$    2112**DCL
ZITEM$    2111**DCL
ZITEM_L6$    2113**DCL
