VERSION E05

PL6.E3A0      #001=DDA$KDEF File=DDA$KDEF.:E05TSI                                TUE 07/29/97 13:31 Page:1
        1        1        /*M* DDA$KDEF  -  KILL USER DEFINED SYMBOL  */
        2        2        /*T***********************************************************/
        3        3        /*T*                                                         */
        4        4        /*T* Copyright (c) Bull HN Information Systems Inc., 1997    */
        5        5        /*T*                                                         */
        6        6        /*T***********************************************************/
        7        7        /*X* DMR,PLM=5,IND=5,CSU=3,EXM=0,ECU=3,MOC,DCI=5,CRT=5 */
        8        8        DDA$KDEF: PROC(SYM$) ALTRET;
        9        9        /* PARM */
       10       10    1   DCL SYM$ PTR;                           /* PTR TO TEXTC SYMBOL NAME */
       11       11                                                /* LOCALS */
       12       12    1   DCL I SBIN;
       13       13    1   DCL TEMP SBIN;
       14       14                                                /* MISC */
       15       15    1   DCL 1 SYM BASED(SYM$),
       16       16    1         2 SZ UBIN(9) UNAL,
       17       17    1         2 TXT CHAR(SYM.SZ);
       18       18        %INCLUDE XUH_MACRO_C;
       19      102        %INCLUDE DD_SD_M;
       20     1438        %S_D;
       21     2756        %INCLUDE DD_ERR_C;
       22     3153                                                /**/
       23     3154    1        TEMP = SIZEW(S_D.UD) / 9 -1;
       24     3155    2        DO I = 0 TO TEMP;
       25     3156    2             IF SYM.SZ = S_D.UD.TEXTSZ(I)
       26     3157    2             THEN
       27     3158    2                  IF SYM.TXT = S_D.UD.TEXT(I)
       28     3159    3                  THEN DO;
       29     3160    3                       S_D.UD.TEXTSZ(I) = 0;
       30     3161    3                       RETURN;
       31     3162    3                     END;
       32     3163    2           END;                            /* DO I = 0 TO TEMP */
       33     3164    1        S_D.ERROR = E@SYM_NOTFOUND;        /* E@SYM_NOTFOUND */
       34     3165    1        S_D.ERROR_SYM$ = SYM$;
       35     3166    1        ALTRETURN;
       36     3167    1   END DDA$KDEF;

PL6.E3A0      #001=DDA$KDEF File=DDA$KDEF.:E05TSI                                TUE 07/29/97 13:31 Page:2
--  Include file information  --

   DD_ERR_C.:E05TOU  is referenced.
   DD_SD_M.:E05TOU  is referenced.
   XUH_MACRO_C.:E05TOU  is referenced.
   B$JIT_C.:E05TOU  was found in the system file and is never referenced.
   CP_6_C.:E05TOU  was found in the system file and is never referenced.
      No diagnostics issued in procedure DDA$KDEF.

   Procedure DDA$KDEF requires 48 words for executable code.
   Procedure DDA$KDEF requires 8 words of local(AUTO) storage.

    No errors detected in file DDA$KDEF.:E05TSI    .

PL6.E3A0      #001=DDA$KDEF File=DDA$KDEF.:E05TSI                                TUE 07/29/97 13:31 Page:3

 Object Unit name= DDA$KDEF                                   File name= DDA$KDEF.:E05TOU
 UTS= JUL 29 '97 13:31:02.48 TUE                              Compiler= PL-6/E31         Sev=      00
 SharedLib= :SHARED_SYSTEM                                    Alt SharedLib=


    ****  Control sections  ****

 Sect   Type Bound  Init  Size OctSiz  Section name(segment info)
    0   Proc  even  none    48     60  DDA$KDEF

    ****  Entry defs  ****

                              Check   Calling
                             calling  sequence
  Sect OctLoc Primary Altret sequence   type   Parms  Name
     0      0   yes    yes     yes      Std        1  DDA$KDEF

  ****  Entry refs  ****

         Check        Calling
        calling       sequence
Altret sequence SRef   type   Args  Name
                       nStd      0 X66_AUTO_1
                       Std       0 B_CONSPOOL_D
                       nStd      0 X66_ARET
                       nStd      0 X66_AALT

  ****  Data refs  ****

  Flags:  r = read only, s = secondary
Flgs Name                             Flgs Name                             Flgs Name
r    S_D$                                  B_VECTNIL
PL6.E3A0      #001=DDA$KDEF File=DDA$KDEF.:E05TSI                                TUE 07/29/97 13:31 Page:4


        1        1        /*M* DDA$KDEF  -  KILL USER DEFINED SYMBOL  */
        2        2        /*T***********************************************************/
        3        3        /*T*                                                         */
        4        4        /*T* Copyright (c) Bull HN Information Systems Inc., 1997    */
        5        5        /*T*                                                         */
        6        6        /*T***********************************************************/
        7        7        /*X* DMR,PLM=5,IND=5,CSU=3,EXM=0,ECU=3,MOC,DCI=5,CRT=5 */
        8        8        DDA$KDEF: PROC(SYM$) ALTRET;

      8  0 000000   000000 700200 xent  DDA$KDEF     TSX0  ! X66_AUTO_1
         0 000001   000010 000001                    ZERO    8,1

        9        9        /* PARM */
       10       10    1   DCL SYM$ PTR;                           /* PTR TO TEXTC SYMBOL NAME */
       11       11                                                /* LOCALS */
       12       12    1   DCL I SBIN;
       13       13    1   DCL TEMP SBIN;
       14       14                                                /* MISC */
       15       15    1   DCL 1 SYM BASED(SYM$),
       16       16    1         2 SZ UBIN(9) UNAL,
       17       17    1         2 TXT CHAR(SYM.SZ);
       18       18        %INCLUDE XUH_MACRO_C;
       19      102        %INCLUDE DD_SD_M;
       20     1438        %S_D;
       21     2756        %INCLUDE DD_ERR_C;
       22     3153                                                /**/
       23     3154    1        TEMP = SIZEW(S_D.UD) / 9 -1;

   3154  0 000002   000030 235007                    LDA     24,DL
         0 000003   200005 755100                    STA     TEMP,,AUTO

       24     3155    2        DO I = 0 TO TEMP;

   3155  0 000004   200004 450100                    STZ     I,,AUTO
         0 000005   000046 710000 0                  TRA     s:3163+1

PL6.E3A0      #001=DDA$KDEF File=DDA$KDEF.:E05TSI                                TUE 07/29/97 13:31 Page:5
       25     3156    2             IF SYM.SZ = S_D.UD.TEXTSZ(I)

   3156  0 000006   200003 470500                    LDP0    @SYM$,,AUTO
         0 000007   000000 471500                    LDP1    0,,PR0
         0 000010   200004 236100                    LDQ     I,,AUTO
         0 000011   000011 402007                    MPY     9,DL
         0 000012   000000 473400 xsym               LDP3    S_D$
         0 000013   300141 236106                    LDQ     97,QL,PR3
         0 000014   000033 772000                    QRL     27
         0 000015   200006 756100                    STQ     TEMP+1,,AUTO
         0 000016   000100 101500                    MRL     fill='000'O
         0 000017   100000 000001                    ADSC9   0,,PR1                   cn=0,n=1
         0 000020   200007 000004                    ADSC9   TEMP+2,,AUTO             cn=0,n=4
         0 000021   200007 236100                    LDQ     TEMP+2,,AUTO
         0 000022   200006 116100                    CMPQ    TEMP+1,,AUTO
         0 000023   000045 601000 0                  TNZ     s:3163

       26     3157    2             THEN
       27     3158    2                  IF SYM.TXT = S_D.UD.TEXT(I)

   3158  0 000024   000000 471500                    LDP1    0,,PR0
         0 000025   000100 101500                    MRL     fill='000'O
         0 000026   100000 000001                    ADSC9   0,,PR1                   cn=0,n=1
         0 000027   200006 000002                    ADSC9   TEMP+1,,AUTO             cn=0,n=2
         0 000030   200006 220100                    LDX0    TEMP+1,,AUTO
         0 000031   200004 236100                    LDQ     I,,AUTO
         0 000032   000044 402007                    MPY     36,DL
         0 000033   040106 106540                    CMPC    fill='040'O
         0 000034   100000 200010                    ADSC9   0,,PR1                   cn=1,n=*X0
         0 000035   300141 200037                    ADSC9   97,Q,PR3                 cn=1,n=31
         0 000036   000045 601000 0                  TNZ     s:3163

       28     3159    3                  THEN DO;

       29     3160    3                       S_D.UD.TEXTSZ(I) = 0;

   3160  0 000037   200004 236100                    LDQ     I,,AUTO
PL6.E3A0      #001=DDA$KDEF File=DDA$KDEF.:E05TSI                                TUE 07/29/97 13:31 Page:6
         0 000040   000011 402007                    MPY     9,DL
         0 000041   000000 620006                    EAX0    0,QL
         0 000042   000032 236000 xsym               LDQ     B_VECTNIL+26
         0 000043   300141 356110                    ANSQ    97,X0,PR3

       30     3161    3                       RETURN;

   3161  0 000044   000000 702200 xent               TSX2  ! X66_ARET

       31     3162    3                     END;
       32     3163    2           END;                            /* DO I = 0 TO TEMP */

   3163  0 000045   200004 054100                    AOS     I,,AUTO
         0 000046   200004 236100                    LDQ     I,,AUTO
         0 000047   200005 116100                    CMPQ    TEMP,,AUTO
         0 000050   000006 604400 0                  TMOZ    s:3156

       33     3164    1        S_D.ERROR = E@SYM_NOTFOUND;        /* E@SYM_NOTFOUND */

   3164  0 000051   000003 235007                    LDA     3,DL
         0 000052   000000 470400 xsym               LDP0    S_D$
         0 000053   000013 755100                    STA     11,,PR0

       34     3165    1        S_D.ERROR_SYM$ = SYM$;

   3165  0 000054   200003 471500                    LDP1    @SYM$,,AUTO
         0 000055   100000 236100                    LDQ     0,,PR1
         0 000056   000032 756100                    STQ     26,,PR0

       35     3166    1        ALTRETURN;

   3166  0 000057   000000 702200 xent               TSX2  ! X66_AALT
       36     3167    1   END DDA$KDEF;

PL6.E3A0      #001=DDA$KDEF File=DDA$KDEF.:E05TSI                                TUE 07/29/97 13:31 Page:7
--  Include file information  --

   DD_ERR_C.:E05TOU  is referenced.
   DD_SD_M.:E05TOU  is referenced.
   XUH_MACRO_C.:E05TOU  is referenced.
   B$JIT_C.:E05TOU  was found in the system file and is never referenced.
   CP_6_C.:E05TOU  was found in the system file and is never referenced.
      No diagnostics issued in procedure DDA$KDEF.

   Procedure DDA$KDEF requires 48 words for executable code.
   Procedure DDA$KDEF requires 8 words of local(AUTO) storage.

    No errors detected in file DDA$KDEF.:E05TSI    .
PL6.E3A0      #001=DDA$KDEF File=DDA$KDEF.:E05TSI                                TUE 07/29/97 13:31 Page:8
          *** CROSS REFERENCE LISTING ***
**     DENOTES     IDENTIFIER DEFINITION
<<                 IDENTIFIER'S VALUE SET
>>                 IDENTIFIER'S VALUE USED
<>                 IDENTIFIER SET AND/OR USED
--                 IDENTIFIER REFERENCED
PL6.E3A0      #001=DDA$KDEF File=DDA$KDEF.:E05TSI                                TUE 07/29/97 13:31 Page:9
          MINI XREF LISTING

I
        12**DCL      3155<<DOINDEX  3156>>IF       3158>>IF       3160>>ASSIGN
SYM.SZ
        16**DCL        17--IMP-SIZ  3156>>IF       3158>>IF
SYM.TXT
        17**DCL      3158>>IF
SYM$
        10**DCL         8--PROC       15--IMP-PTR  3156>>IF       3158>>IF       3158>>IF       3165>>ASSIGN
S_D.CURRENT_CHANNEL
      2390**DCL      2392--REDEF
S_D.DEBUGA
      1542**DCL      1544--REDEF
S_D.EIS
      2500**DCL      2529--REDEF
S_D.ERROR
      1471**DCL      3164<<ASSIGN
S_D.ERROR_SYM$
      1495**DCL      3165<<ASSIGN
S_D.HOST_MESSAGE_BUF_REMOTE
      2433**DCL      2434--REDEF    2448--REDEF
S_D.JDE
      2047**DCL      2048--REDEF
S_D.L$.VALUE
      1600**DCL      1606--REDEF    1614--REDEF    1617--REDEF    1620--REDEF    1623--REDEF
S_D.L$.VALUE.L
      1601**DCL      1602--REDEF    1603--REDEF
S_D.L6_MESSAGE_BUF
      2454**DCL      2456--REDEF
S_D.OUTPUT
      2420**DCL      2422--REDEF
S_D.REMOTE_MSG.FNCC
      2439**DCL      2440--REDEF
PL6.E3A0      #001=DDA$KDEF File=DDA$KDEF.:E05TSI                                TUE 07/29/97 13:31 Page:10
S_D.REMOTE_MSG.STXC
      2435**DCL      2436--REDEF
S_D.REMOTE_MSG.SUBFNCC
      2443**DCL      2444--REDEF
S_D.SV
      1499**DCL      1520--REDEF
S_D.UD
      1642**DCL      3154--ASSIGN
S_D.UD.TEXT
      1646**DCL      3158>>IF
S_D.UD.TEXTSZ
      1645**DCL      3156>>IF       3160<<ASSIGN
S_D$
      2751**DCL      1447--IMP-PTR  3156>>IF       3158>>IF       3160>>ASSIGN   3164>>ASSIGN   3165>>ASSIGN
TEMP
        13**DCL      3154<<ASSIGN   3155>>DOINDEX
PL6.E3A0      #001=DDA$KDEF File=DDA$KDEF.:E05TSI                                TUE 07/29/97 13:31 Page:11
              *** CROSS REFERENCE LISTING ***
    **     DENOTES     IDENTIFIER DEFINITION
    <<                 IDENTIFIER'S VALUE SET
    >>                 IDENTIFIER'S VALUE USED
    <>                 IDENTIFIER SET AND/OR USED
    --                 IDENTIFIER REFERENCED
PL6.E3A0      #001=DDA$KDEF File=DDA$KDEF.:E05TSI                                TUE 07/29/97 13:31 Page:12
              MINI UREF LISTING

DDA$KDEF       8**PROC
