VERSION E05

PL6.E3A0      #001=DDA$KEEP File=DDA$KEEP.:E05TSI                                TUE 07/29/97 13:31 Page:1
        1        1        /*M* DDA$KEEP  -  PROCESS KEEP/TRAP/IGNORE */
        2        2        /*T***********************************************************/
        3        3        /*T*                                                         */
        4        4        /*T* Copyright (c) Bull HN Information Systems Inc., 1997    */
        5        5        /*T*                                                         */
        6        6        /*T***********************************************************/
        7        7        /*X* CCC,DMR,PLM=5,IND=5,CSU=3,EXM=0,ECU=3,MOC,DCI=5,CRT=5 */
        8        8        /*P* NAME: DDA$KEEP.
        9        9             DESCRIPTION. SET OPTIONS IN S_D.TRAP/KEEP/IGNORE FROM
       10       10                  THE OPTIONS GIVEN IN THE COMMAND FRAME. ANY OPTION CAN
       11       11                  APPEAR IN ONLY ONE TYPE, ANY NOT MENTIONED IN TRAP OR IGNORE
       12       12                  ARE PUT IN KEEP. */
       13       13                                                /**/
       14       14        DDA$KEEP: PROC;
       15       15        %INCLUDE DD_ERR_C;
       16      412        %INCLUDE DD$BASED;
       17     1715        %KEEP$CMD;
       18     1734        %INCLUDE XUH_MACRO_C;
       19     1818        %INCLUDE DD_SD_M;
       20     3154        %S_D;
       21     4472        %INCLUDE DD_SUBS_C;
       22     4743    1   DCL DDE$ERROR ENTRY;
       23     4744                                                /**/
       24     4745    1        IF S_D.DO$->KEEP$CMD.CMD= C_KEEP   /* C_KEEP */
       25     4746    2        THEN DO;
       26     4747    2             S_D.TRAP = S_D.TRAP & ~S_D.DO$->KEEP$CMD.OPTIONS;
       27     4748    2             S_D.IGNORE = S_D.IGNORE & ~S_D.DO$->KEEP$CMD.OPTIONS;
       28     4749    2           END;
       29     4750    1        ELSE IF S_D.DO$->KEEP$CMD.CMD= C_TRAP /* C_TRAP */
       30     4751    2             THEN DO;
       31     4752    2                  S_D.TRAP = S_D.DO$->KEEP$CMD.OPTIONS;
       32     4753    2                  S_D.IGNORE = S_D.IGNORE & ~S_D.DO$->KEEP$CMD.OPTIONS;
       33     4754    2                END;
       34     4755    1             ELSE IF S_D.DO$->KEEP$CMD.CMD= C_IGNORE /* C_IGNORE */
       35     4756    2                  THEN DO;
       36     4757    2                       S_D.IGNORE = S_D.DO$->KEEP$CMD.OPTIONS;
       37     4758    2                       S_D.TRAP = S_D.TRAP & ~S_D.DO$->KEEP$CMD.OPTIONS;
PL6.E3A0      #001=DDA$KEEP File=DDA$KEEP.:E05TSI                                TUE 07/29/97 13:31 Page:2
       38     4759    2                     END;
       39     4760    2                  ELSE DO;
       40     4761    2                       S_D.ERROR = E@DELBUG; /* E@DELBUG */
       41     4762    2                       CALL DDE$ERROR;
       42     4763    2                       RETURN;
       43     4764    2                     END;
       44     4765    1        S_D.KEEP = ~(S_D.TRAP | S_D.IGNORE); /* Put all else in keep */
       45     4766    1        RETURN;
       46     4767    1   END;

PL6.E3A0      #001=DDA$KEEP File=DDA$KEEP.:E05TSI                                TUE 07/29/97 13:31 Page:3
--  Include file information  --

   DD_SUBS_C.:E05TOU  is referenced.
   DD_SD_M.:E05TOU  is referenced.
   XUH_MACRO_C.:E05TOU  is referenced.
   DD$BASED.:E05TOU  is referenced.
   DD_ERR_C.:E05TOU  is referenced.
   B$JIT_C.:E05TOU  was found in the system file and is never referenced.
   CP_6_C.:E05TOU  was found in the system file and is never referenced.
      No diagnostics issued in procedure DDA$KEEP.

   Procedure DDA$KEEP requires 46 words for executable code.
   Procedure DDA$KEEP requires 4 words of local(AUTO) storage.

    No errors detected in file DDA$KEEP.:E05TSI    .

PL6.E3A0      #001=DDA$KEEP File=DDA$KEEP.:E05TSI                                TUE 07/29/97 13:31 Page:4

 Object Unit name= DDA$KEEP                                   File name= DDA$KEEP.:E05TOU
 UTS= JUL 29 '97 13:31:32.84 TUE                              Compiler= PL-6/E31         Sev=      00
 SharedLib= :SHARED_SYSTEM                                    Alt SharedLib=


    ****  Control sections  ****

 Sect   Type Bound  Init  Size OctSiz  Section name(segment info)
    0   Proc  even  none    46     56  DDA$KEEP

    ****  Entry defs  ****

                              Check   Calling
                             calling  sequence
  Sect OctLoc Primary Altret sequence   type   Parms  Name
     0      0   yes            yes      Std        0  DDA$KEEP

  ****  Entry refs  ****

         Check        Calling
        calling       sequence
Altret sequence SRef   type   Args  Name
         yes           Std       0 DDE$ERROR
                       nStd      0 X66_AUTO_0
                       Std       0 B_CONSPOOL_D
                       nStd      0 X66_ARET

  ****  Data refs  ****

  Flags:  r = read only, s = secondary
Flgs Name                             Flgs Name                             Flgs Name
r    S_D$                                  B_VECTNIL
PL6.E3A0      #001=DDA$KEEP File=DDA$KEEP.:E05TSI                                TUE 07/29/97 13:31 Page:5


        1        1        /*M* DDA$KEEP  -  PROCESS KEEP/TRAP/IGNORE */
        2        2        /*T***********************************************************/
        3        3        /*T*                                                         */
        4        4        /*T* Copyright (c) Bull HN Information Systems Inc., 1997    */
        5        5        /*T*                                                         */
        6        6        /*T***********************************************************/
        7        7        /*X* CCC,DMR,PLM=5,IND=5,CSU=3,EXM=0,ECU=3,MOC,DCI=5,CRT=5 */
        8        8        /*P* NAME: DDA$KEEP.
        9        9             DESCRIPTION. SET OPTIONS IN S_D.TRAP/KEEP/IGNORE FROM
       10       10                  THE OPTIONS GIVEN IN THE COMMAND FRAME. ANY OPTION CAN
       11       11                  APPEAR IN ONLY ONE TYPE, ANY NOT MENTIONED IN TRAP OR IGNORE
       12       12                  ARE PUT IN KEEP. */
       13       13                                                /**/
       14       14        DDA$KEEP: PROC;

     14  0 000000   000000 700200 xent  DDA$KEEP     TSX0  ! X66_AUTO_0
         0 000001   000004 000000                    ZERO    4,0

       15       15        %INCLUDE DD_ERR_C;
       16      412        %INCLUDE DD$BASED;
       17     1715        %KEEP$CMD;
       18     1734        %INCLUDE XUH_MACRO_C;
       19     1818        %INCLUDE DD_SD_M;
       20     3154        %S_D;
       21     4472        %INCLUDE DD_SUBS_C;
       22     4743    1   DCL DDE$ERROR ENTRY;
       23     4744                                                /**/
       24     4745    1        IF S_D.DO$->KEEP$CMD.CMD= C_KEEP   /* C_KEEP */

   4745  0 000002   000000 470400 xsym               LDP0    S_D$
         0 000003   000031 471500                    LDP1    25,,PR0
         0 000004   100000 236100                    LDQ     0,,PR1
         0 000005   777000 376003                    ANQ     -512,DU
         0 000006   026000 116003                    CMPQ    11264,DU
         0 000007   000021 601000 0                  TNZ     s:4750

PL6.E3A0      #001=DDA$KEEP File=DDA$KEEP.:E05TSI                                TUE 07/29/97 13:31 Page:6
       25     4746    2        THEN DO;

       26     4747    2             S_D.TRAP = S_D.TRAP & ~S_D.DO$->KEEP$CMD.OPTIONS;

   4747  0 000010   100002 236100                    LDQ     2,,PR1
         0 000011   000027 676000 xsym               ERQ     B_VECTNIL+23
         0 000012   004730 376100                    ANQ     2520,,PR0
         0 000013   004730 756100                    STQ     2520,,PR0

       27     4748    2             S_D.IGNORE = S_D.IGNORE & ~S_D.DO$->KEEP$CMD.OPTIONS;

   4748  0 000014   100002 236100                    LDQ     2,,PR1
         0 000015   000027 676000 xsym               ERQ     B_VECTNIL+23
         0 000016   004731 376100                    ANQ     2521,,PR0
         0 000017   004731 756100                    STQ     2521,,PR0

       28     4749    2           END;

   4749  0 000020   000051 710000 0                  TRA     s:4765

       29     4750    1        ELSE IF S_D.DO$->KEEP$CMD.CMD= C_TRAP /* C_TRAP */

   4750  0 000021   107000 116003                    CMPQ    36352,DU
         0 000022   000032 601000 0                  TNZ     s:4755

       30     4751    2             THEN DO;

       31     4752    2                  S_D.TRAP = S_D.DO$->KEEP$CMD.OPTIONS;

   4752  0 000023   100002 236100                    LDQ     2,,PR1
         0 000024   004730 756100                    STQ     2520,,PR0

       32     4753    2                  S_D.IGNORE = S_D.IGNORE & ~S_D.DO$->KEEP$CMD.OPTIONS;

   4753  0 000025   100002 236100                    LDQ     2,,PR1
         0 000026   000027 676000 xsym               ERQ     B_VECTNIL+23
         0 000027   004731 376100                    ANQ     2521,,PR0
PL6.E3A0      #001=DDA$KEEP File=DDA$KEEP.:E05TSI                                TUE 07/29/97 13:31 Page:7
         0 000030   004731 756100                    STQ     2521,,PR0

       33     4754    2                END;

   4754  0 000031   000051 710000 0                  TRA     s:4765

       34     4755    1             ELSE IF S_D.DO$->KEEP$CMD.CMD= C_IGNORE /* C_IGNORE */

   4755  0 000032   021000 116003                    CMPQ    8704,DU
         0 000033   000043 601000 0                  TNZ     s:4761

       35     4756    2                  THEN DO;

       36     4757    2                       S_D.IGNORE = S_D.DO$->KEEP$CMD.OPTIONS;

   4757  0 000034   100002 236100                    LDQ     2,,PR1
         0 000035   004731 756100                    STQ     2521,,PR0

       37     4758    2                       S_D.TRAP = S_D.TRAP & ~S_D.DO$->KEEP$CMD.OPTIONS;

   4758  0 000036   100002 236100                    LDQ     2,,PR1
         0 000037   000027 676000 xsym               ERQ     B_VECTNIL+23
         0 000040   004730 376100                    ANQ     2520,,PR0
         0 000041   004730 756100                    STQ     2520,,PR0

       38     4759    2                     END;

   4759  0 000042   000051 710000 0                  TRA     s:4765

       39     4760    2                  ELSE DO;

       40     4761    2                       S_D.ERROR = E@DELBUG; /* E@DELBUG */

   4761  0 000043   000766 235007                    LDA     502,DL
         0 000044   000013 755100                    STA     11,,PR0

       41     4762    2                       CALL DDE$ERROR;
PL6.E3A0      #001=DDA$KEEP File=DDA$KEEP.:E05TSI                                TUE 07/29/97 13:31 Page:8

   4762  0 000045   000002 631400 xsym               EPPR1   B_VECTNIL+2
         0 000046   000000 701000 xent               TSX1    DDE$ERROR
         0 000047   000000 011000                    NOP     0

       42     4763    2                       RETURN;

   4763  0 000050   000000 702200 xent               TSX2  ! X66_ARET

       43     4764    2                     END;
       44     4765    1        S_D.KEEP = ~(S_D.TRAP | S_D.IGNORE); /* Put all else in keep */

   4765  0 000051   004730 236100                    LDQ     2520,,PR0
         0 000052   004731 276100                    ORQ     2521,,PR0
         0 000053   000027 676000 xsym               ERQ     B_VECTNIL+23
         0 000054   004727 756100                    STQ     2519,,PR0

       45     4766    1        RETURN;

   4766  0 000055   000000 702200 xent               TSX2  ! X66_ARET
       46     4767    1   END;

PL6.E3A0      #001=DDA$KEEP File=DDA$KEEP.:E05TSI                                TUE 07/29/97 13:31 Page:9
--  Include file information  --

   DD_SUBS_C.:E05TOU  is referenced.
   DD_SD_M.:E05TOU  is referenced.
   XUH_MACRO_C.:E05TOU  is referenced.
   DD$BASED.:E05TOU  is referenced.
   DD_ERR_C.:E05TOU  is referenced.
   B$JIT_C.:E05TOU  was found in the system file and is never referenced.
   CP_6_C.:E05TOU  was found in the system file and is never referenced.
      No diagnostics issued in procedure DDA$KEEP.

   Procedure DDA$KEEP requires 46 words for executable code.
   Procedure DDA$KEEP requires 4 words of local(AUTO) storage.

    No errors detected in file DDA$KEEP.:E05TSI    .
PL6.E3A0      #001=DDA$KEEP File=DDA$KEEP.:E05TSI                                TUE 07/29/97 13:31 Page:10
          *** CROSS REFERENCE LISTING ***
**     DENOTES     IDENTIFIER DEFINITION
<<                 IDENTIFIER'S VALUE SET
>>                 IDENTIFIER'S VALUE USED
<>                 IDENTIFIER SET AND/OR USED
--                 IDENTIFIER REFERENCED
PL6.E3A0      #001=DDA$KEEP File=DDA$KEEP.:E05TSI                                TUE 07/29/97 13:31 Page:11
          MINI XREF LISTING

DDE$ERROR
      4743**DCL-ENT  4762--CALL
KEEP$CMD.CMD
      1717**DCL      4745>>IF       4750>>IF       4755>>IF
KEEP$CMD.L6_OPTIONS
      1723**DCL      1724--REDEF
KEEP$CMD.OPTARRY
      1730**DCL      1731--REDEF
KEEP$CMD.OPTIONS
      1731**DCL      4747>>ASSIGN   4748>>ASSIGN   4752>>ASSIGN   4753>>ASSIGN   4757>>ASSIGN   4758>>ASSIGN
S_D.CURRENT_CHANNEL
      4106**DCL      4108--REDEF
S_D.DEBUGA
      3258**DCL      3260--REDEF
S_D.DO$
      3209**DCL      4745>>IF       4747>>ASSIGN   4748>>ASSIGN   4750>>IF       4752>>ASSIGN   4753>>ASSIGN
      4755>>IF       4757>>ASSIGN   4758>>ASSIGN
S_D.EIS
      4216**DCL      4245--REDEF
S_D.ERROR
      3187**DCL      4761<<ASSIGN
S_D.HOST_MESSAGE_BUF_REMOTE
      4149**DCL      4150--REDEF    4164--REDEF
S_D.IGNORE
      3759**DCL      4748<<ASSIGN   4748>>ASSIGN   4753<<ASSIGN   4753>>ASSIGN   4757<<ASSIGN   4765>>ASSIGN
S_D.JDE
      3763**DCL      3764--REDEF
S_D.KEEP
      3755**DCL      4765<<ASSIGN
S_D.L$.VALUE
      3316**DCL      3322--REDEF    3330--REDEF    3333--REDEF    3336--REDEF    3339--REDEF
S_D.L$.VALUE.L
PL6.E3A0      #001=DDA$KEEP File=DDA$KEEP.:E05TSI                                TUE 07/29/97 13:31 Page:12
      3317**DCL      3318--REDEF    3319--REDEF
S_D.L6_MESSAGE_BUF
      4170**DCL      4172--REDEF
S_D.OUTPUT
      4136**DCL      4138--REDEF
S_D.REMOTE_MSG.FNCC
      4155**DCL      4156--REDEF
S_D.REMOTE_MSG.STXC
      4151**DCL      4152--REDEF
S_D.REMOTE_MSG.SUBFNCC
      4159**DCL      4160--REDEF
S_D.SV
      3215**DCL      3236--REDEF
S_D.TRAP
      3757**DCL      4747<<ASSIGN   4747>>ASSIGN   4752<<ASSIGN   4758<<ASSIGN   4758>>ASSIGN   4765>>ASSIGN
S_D$
      4467**DCL      3163--IMP-PTR  4745>>IF       4747>>ASSIGN   4747>>ASSIGN   4747>>ASSIGN   4748>>ASSIGN
      4748>>ASSIGN   4748>>ASSIGN   4750>>IF       4752>>ASSIGN   4752>>ASSIGN   4753>>ASSIGN   4753>>ASSIGN
      4753>>ASSIGN   4755>>IF       4757>>ASSIGN   4757>>ASSIGN   4758>>ASSIGN   4758>>ASSIGN   4758>>ASSIGN
      4761>>ASSIGN   4765>>ASSIGN   4765>>ASSIGN   4765>>ASSIGN
PL6.E3A0      #001=DDA$KEEP File=DDA$KEEP.:E05TSI                                TUE 07/29/97 13:31 Page:13
              *** CROSS REFERENCE LISTING ***
    **     DENOTES     IDENTIFIER DEFINITION
    <<                 IDENTIFIER'S VALUE SET
    >>                 IDENTIFIER'S VALUE USED
    <>                 IDENTIFIER SET AND/OR USED
    --                 IDENTIFIER REFERENCED
PL6.E3A0      #001=DDA$KEEP File=DDA$KEEP.:E05TSI                                TUE 07/29/97 13:31 Page:14
              MINI UREF LISTING

DDA$KEEP      14**PROC
