VERSION E05

PL6.E3A0      #001=DDA$KILL File=DDA$KILL.:E05TSI                                TUE 07/29/97 13:32 Page:1
        1        1        /*M* DDA$KILL KILL ROUTINE */
        2        2        /*T***********************************************************/
        3        3        /*T*                                                         */
        4        4        /*T* Copyright (c) Bull HN Information Systems Inc., 1997    */
        5        5        /*T*                                                         */
        6        6        /*T***********************************************************/
        7        7        /*X* DMR,PLM=5,IND=5,CSU=3,EXM=0,ECU=3,MOC,DCI=5,CRT=5 */
        8        8        %SET LISTSUB='1'B;
        9        9        /*D*  NAME:  DDA$KILL
       10       10              CALL:  CALL DDA$KILL
       11       11              INPUT:  S_D.DO$ POINTS TO THE KILL FRAME
       12       12              DESCRIPTION:  DDA$KILL IS CALLED BY DDA$DO.  STORED
       13       13                     THE KILL 'TYPE' OR ID RANGE DICTATES WHAT IS TO BE
       14       14                     DONE. */
       15       15                                                /**/
       16       16        DDA$KILL: PROC;
       17       17                                                /**/
       18       18    1   DCL TYPE SBIN;
       19       19    1   DCL F_FROM SBIN;
       20       20    1   DCL F_TO SBIN;
       21       21    1   DCL CMD SBIN;
       22       22    1   DCL DEFI SBIN;
       23       23    1   DCL I UBIN;
       24       24    1   DCL CCMD UBIN;
       25       25    1   DCL NONE BIT(1) ALIGNED;
       26       26    1   DCL WRITE BIT(1) ALIGNED;
       27       27    1   DCL TFPRG$ PTR;
       28       28    1   DCL PTFPRG$ PTR;
       29       29    1   DCL RES CHAR(8);
       30       30    1   DCL RES_SIZE UBIN;
       31       31    1   DCL TEMP$ PTR;
       32       32    1   DCL TEMP1 REDEF TEMP$ UBIN(36) ALIGNED;
       33       33    1   DCL 1 TEMP1B REDEF TEMP$ ALIGNED,
       34       34    1         2 * UBIN(4) UNAL,
       35       35    1         2 B1 UBIN(8) UNAL,
       36       36    1         2 B2 UBIN(8) UNAL,
       37       37    1         2 B3 UBIN(8) UNAL,
PL6.E3A0      #001=DDA$KILL File=DDA$KILL.:E05TSI                                TUE 07/29/97 13:32 Page:2
       38       38    1         2 B4 UBIN(8) UNAL;
       39       39    1   DCL TEMP2 UBIN(36) ALIGNED;
       40       40    1   DCL 1 TEMP2B REDEF TEMP2 ALIGNED,
       41       41    1         2 * BIT(1) UNAL,
       42       42    1         2 B1 UBIN(8) UNAL,
       43       43    1         2 * BIT(1) UNAL,
       44       44    1         2 B2 UBIN(8) UNAL,
       45       45    1         2 * BIT(1) UNAL,
       46       46    1         2 B3 UBIN(8) UNAL,
       47       47    1         2 * BIT(1) UNAL,
       48       48    1         2 B4 UBIN(8) UNAL;
       49       49        %INCLUDE DD$BASED;
       50     1352        %SHOW$CMD (NAME=K$ILL);
       51     1374        %TEXT$C;
       52     1379        %FPRG$CONTEXT;
       53     1442        %INCLUDE GD$MSG_M;
       54     1606        %GD$MSG(FPTN=GD$MSG,STCLASS="BASED(S_D_L6_MESSAGE$)",L6=YES,L6PTR="UBIN(32) UNAL");
       55     1762        %GD$MSG(FPTN=GD$MSG_HOST,STCLASS="BASED(S_D_HOST_MESSAGE$)",L6=NO);
       56     1918        %INCLUDE GD_EQUS_E;
       57     2079        %INCLUDE XUH_MACRO_C;
       58     2163        %INCLUDE DD_SD_M;
       59     3499        %S_D;
       60     4817        %S_D_PTRS;
       61     4854    1   DCL NONEMSG CHAR(0) CONSTANT INIT( 'None' );
       62     4855        %INCLUDE DD_SUBS_C;
       63     5126        %INCLUDE DD_PSUBS_C;
       64     5601        %INCLUDE DD_ERR_C;
       65     5998        %INCLUDE CP_6;
       66     6079        %F$DCB;
       67     6136        %INCLUDE B$OBJECT_C;
       68     9566        %COMPILERIDSUBS;
       69     9582        %FPT_EOM (FPTN=FPT_EOM,
       70     9583                  STCLASS=CONSTANT,
       71     9584                  EOMTABLE=VLP_EOMTABLE);
       72     9614        %VLP_EOMTABLE (FPTN=VLP_EOMTABLE,
       73     9615                  STCLASS=CONSTANT,
       74     9616                  VALUES=STD);
PL6.E3A0      #001=DDA$KILL File=DDA$KILL.:E05TSI                                TUE 07/29/97 13:32 Page:3
       75     9635    1   DCL D_XDELTA BIT(1) SYMREF;
       76     9636    1   DCL D_SYMBOLS BIT(1) ALIGNED SYMREF;
       77     9637    1   DCL DD_XOU$ PTR SYMREF;
       78     9638    1   DCL DX_DIC BIT(1) SYMREF;
       79     9639    1   DCL DUA$ALIB ENTRY(2) ALTRET;
       80     9640    1   DCL DUA$KILL_ANLZ ENTRY(0) ALTRET;
       81     9641    1   DCL DUA$KILL_RUM ENTRY(0);
       82     9642    1   DCL DUE$ERRMSG ENTRY(0);
       83     9643    1   DCL DUE$GERRMSG ENTRY(0);
       84     9644    1   DCL DDA$KILL1 ENTRY;
       85     9645    1   DCL DDE$ERROR ENTRY;
       86     9646    1   DCL DDT$TRACEOFF ENTRY;
       87     9647    1   DCL DDA$KDEF ENTRY(1) ALTRET;
       88     9648    1   DCL DDQ$WRITE ENTRY(2);
       89     9649    1   DCL DFA$KILL1 ENTRY(3);
       90     9650    1   DCL DFA$KILL_FPRG ENTRY(1);
       91     9651    1   DCL DFA$TRACEOFF ENTRY;
       92     9652    1   DCL DDR$REPORT ENTRY(1);
       93     9653    1   DCL DFA$KILL_DELTA ENTRY;
       94     9654    1   DCL DFQ$READ_FD ENTRY(2) ALTRET;
       95     9655    1   DCL DFQ$WRITE_FD ENTRY(1) ALTRET;
       96     9656        %INCLUDE DD$DITEM;
       12+    9759             %LIST;
       13+    9760    1        DCL SDD$ PTR;
       14+    9761    1        DCL ZITEM$ PTR;
       15+    9762    1        DCL SDD_L6$ PTR;
       16+    9763    1        DCL ZITEM_L6$ PTR;
       97    10337                                                /**/
       98    10338    1        NONE = '1'B;
       99    10339    1        TYPE = S_D.DO$ -> K$ILL.TYPE;
      100    10340    1        IF ( S_D.RUM OR S_D.ANLZ )
      101    10341    1          AND NOT ( TYPE = 282 OR       /* S@DEFS */
      102    10342    1          TYPE = 284 OR               /* S@SCHEMA */
      103    10343    1          TYPE = 295 OR              /* S@ABBREVS */
      104    10344    1          TYPE = 298 OR               /* S@KILLDN */
      105    10345    1          TYPE = 299 OR                  /* S@DIC */
      106    10346    1          TYPE = 302 OR                  /* S@EOM */
PL6.E3A0      #001=DDA$KILL File=DDA$KILL.:E05TSI                                TUE 07/29/97 13:32 Page:4
      107    10347    1          TYPE = 304 OR                 /* S@COPY */
      108    10348    1          TYPE = 305 OR                 /* S@ECHO */
      109    10349    1          TYPE = 308 OR                  /* S@RUM */
      110    10350    1          TYPE = 309 OR               /* S@ALTVAR */
      111    10351    1          TYPE = 303 OR               /* S@FORMAT */
      112    10352    1          TYPE = 314 OR              /* S@PROTECT */
      113    10353    1          TYPE = 322 OR               /* S@STATUS */
      114    10354    1          TYPE = 317 OR            /* S@KILLDELTA */
      115    10355    1          TYPE = 310 )                  /* S@ANLZ */
      116    10356    2        THEN DO;
      117    10357    2             S_D.ERROR = 125;       /* E@NOTDELTA */
      118    10358    2             CALL DDE$ERROR;
      119    10359    2             RETURN;
      120    10360    2           END;
      121    10361                                      /* INITIALIZE FIXCOM RANGE TO THE WHOLE THING */
      122    10362    1        F_FROM = 1;
      123    10363    1        F_TO   = S_D.FIXLAST;
      124    10364    1        WRITE = '1'B;
      125    10365    2        DO CASE(TYPE);
      126    10366    2          CASE(280);                     /* KILL ALL */
      127    10367    2             CMD = 0;                      /* KILL ALL STORED COMMANDS IN FIXCOM */
      128    10368    2             WRITE = '0'B;
      129    10369    2             CALL KILL_FIX;
      130    10370    2          CASE(281);                     /* KILL ATS */
      131    10371    2             CMD = 2;                   /* CMD SET TO 'AT' */
      132    10372    2             CALL KILL_FIX;
      133    10373    2          CASE(282);                    /* KILL DEFS */
      134    10374    2             IF S_D.FPRG AND S_D.CURRENT_FPRG_CONTEXT$ -> FPRG$CONTEXT.INTERPRETIVE
      135    10375    3             THEN DO;
      136    10376    3                  S_D.ERROR = 309; /* E@NOT_INTERPRETIVE */
      137    10377    3                  GOTO ERREPT;
      138    10378    3                END;
      139    10379    3             DO DEFI = 0 TO 24;
      140    10380    3                  IF S_D.UD.TEXTSZ( DEFI ) ~= 0
      141    10381    3                  THEN NONE = '0'B;
      142    10382    3                  S_D.UD.TEXTSZ(DEFI) = 0;
      143    10383    3                END;
PL6.E3A0      #001=DDA$KILL File=DDA$KILL.:E05TSI                                TUE 07/29/97 13:32 Page:5
      144    10384    2          CASE(283);                    /* KILL STEP MODE */
      145    10385    2             IF S_D.ONE_TO_TWO.EXEC_DOMAIN = %L6
      146    10386    2             THEN S_D.CURRENT_FPRG_CONTEXT$ -> FPRG$CONTEXT.STEP_MODE = 583;
             10386                      /* C@STATEMENTS */
      147    10387    2             ELSE IF S_D.SYNTAX_DEFAULT = %GMAPID
      148    10388    2                  THEN S_D.S$TEP.MODE = 581; /*C@INSTRUCTIONS*/
      149    10389    2                  ELSE S_D.S$TEP.MODE = 583; /*C@STATEMENTS*/
      150    10390    2             NONE = '0'B;
      151    10391    2          CASE(284);                  /* DONT USE SCHEMAS */
      152    10392    2             S_D.SCHEMA = '0'B;            /* SET SCHEMA MODE OFF */
      153    10393    2             NONE = '0'B;
      154    10394    2          CASE(286);                   /* KILL SAVES */
      155    10395    2             CMD = 45;                 /* CMD SET TO 'SAVE' */
      156    10396    2             CALL KILL_FIX;
      157    10397    2          CASE(287);                   /* KILL TRACE */
      158    10398    2             IF S_D.ONE_TO_TWO.EXEC_DOMAIN = %HOST
      159    10399    3             THEN DO;
      160    10400    3                  IF S_D.ONCALLS = 0
      161    10401    4                  THEN DO;
      162    10402    4                       CALL DDT$TRACEOFF;
      163    10403    4                       S_D.TR$INFO = '0'B; /* FIRST ZERO IT OUT */
      164    10404    4                       S_D.T$T = '0'B;
      165    10405    4                     END;
      166    10406    3                END;
      167    10407    3             ELSE DO;
      168    10408    3                  IF S_D.CURRENT_FPRG_CONTEXT$ -> FPRG$CONTEXT.ONCALLS =  0
      169    10409    4                  THEN DO;
      170    10410    4                       S_D.CURRENT_FPRG_CONTEXT$ -> FPRG$CONTEXT.TR$INFO = '0'B;
      171    10411    4                       CALL DFA$TRACEOFF;
      172    10412    4                     END;
      173    10413    3                END;
      174    10414    2             NONE = '0'B;
      175    10415    2          CASE(288);                   /* KILL WHENS */
      176    10416    2             CMD = 67;                 /* CMD SET TO 'WHEN' */
      177    10417    2             CALL KILL_FIX;
      178    10418    2          CASE(291);                   /* KILL ONCALLS */
      179    10419    2             CMD = 31;                   /* CMD SET TO ON CALL */
PL6.E3A0      #001=DDA$KILL File=DDA$KILL.:E05TSI                                TUE 07/29/97 13:32 Page:6
      180    10420    2             CALL KILL_FIX;
      181    10421    2             CMD = 53;              /* CMD SET TO 'ONCALLS' */
      182    10422    2             CALL KILL_FIX;
      183    10423    2          CASE(292);                   /* KILL ON ABORT */
      184    10424    2             CMD = 30;                   /* C_OA */
      185    10425    2             CALL KILL_FIX;
      186    10426    2          CASE(293);                    /* KILL ON EXIT */
      187    10427    2             CMD = 32;                   /* C_OE */
      188    10428    2             CALL KILL_FIX;
      189    10429    2          CASE(294);                   /* KILL ON NODES */
      190    10430    2             CMD = 34;                  /* C_ONN */
      191    10431    2             CALL KILL_FIX;
      192    10432    2             CMD = 54;              /* CMD SET TO 'ONNODES' */
      193    10433    2             CALL KILL_FIX;
      194    10434    2          CASE(295);                 /* KILL ABBREVS */
      195    10435    2          CASE(296);                  /* KILL ID(S) */
      196    10436    2             F_FROM = S_D.DO$ -> K$ILL.ID_FROM;
      197    10437    2             F_TO = S_D.DO$ -> K$ILL.ID_TO;
      198    10438    2             CMD = 0;                 /* SET CMD TO 0 TO RUN THE RANGE SPECIFIED */
      199    10439    2             CALL KILL_FIX;
      200    10440    2          CASE(297);                  /* KILL BYPASS */
      201    10441    2             IF S_D.FPRG AND S_D.CURRENT_FPRG_CONTEXT$ -> FPRG$CONTEXT.INTERPRETIVE
      202    10442    3             THEN DO;
      203    10443    3                  S_D.ERROR = 309; /* E@NOT_INTERPRETIVE */
      204    10444    3                  GOTO ERREPT;
      205    10445    3                END;
      206    10446    2             S_D.BYPASS = '0'B;
      207    10447    2             S_D.BYPASS_SAVE = S_D.BYPASS;
      208    10448    2             NONE = '0'B;
      209    10449    2          CASE(298);                  /* KILL DEF NAME */
      210    10450    2             IF S_D.FPRG AND S_D.CURRENT_FPRG_CONTEXT$ -> FPRG$CONTEXT.INTERPRETIVE
      211    10451    3             THEN DO;
      212    10452    3                  S_D.ERROR = 309; /* E@NOT_INTERPRETIVE */
      213    10453    3                  GOTO ERREPT;
      214    10454    3                END;
      215    10455    2             NONE = '0'B;
      216    10456    2             CALL DDA$KDEF( ADDR( S_D.DO$ -> K$ILL.TEXTC ) ) ALTRET( NOSYM );
PL6.E3A0      #001=DDA$KILL File=DDA$KILL.:E05TSI                                TUE 07/29/97 13:32 Page:7
      217    10457    2             GOTO CASEOUT;
      218    10458    2   NOSYM:
      219    10459    2             CALL DDE$ERROR;
      220    10460    2          CASE (299);                    /* KILL DIC */
      221    10461    2             IF D_XDELTA THEN DX_DIC = '0'B;
      222    10462    2             ELSE S_D.DEBUG = '1'B;
      223    10463    2             NONE = '0'B;
      224    10464    2          CASE (302);                    /* KILL EOM */
      225    10465    2             IF NOT D_XDELTA
      226    10466    3             THEN DO;
      227    10467    3                  S_D.EOM = '0'B;
      228    10468    3                  CALL M$EOM(FPT_EOM) ALTRET(NOEOM); /* Reset to standard set */
      229    10469    4                  DO WHILE ('0'B);
      230    10470    4   NOEOM:              CALL DUE$ERRMSG;
      231    10471    4                     END;
      232    10472    3                END;
      233    10473    2             NONE = '0'B;
      234    10474    2          CASE (303);                 /* KILL FORMAT */
      235    10475    2             IF S_D.FPRG AND S_D.CURRENT_FPRG_CONTEXT$ -> FPRG$CONTEXT.INTERPRETIVE
      236    10476    3             THEN DO;
      237    10477    3                  S_D.ERROR = 309; /* E@NOT_INTERPRETIVE */
      238    10478    3                  GOTO ERREPT;
      239    10479    3                END;
      240    10480    2             NONE = '0'B;
      241    10481    2             IF S_D.DO$ -> K$ILL.ID_FROM = 0
      242    10482    3             THEN DO;
      243    10483    3                  S_D.FMT_DEFAULT = %OCT_FMT;
      244    10484    3                  S_D.EFMT_DEFAULT = %OCT_FMT;
      245    10485    3                END;
      246    10486    2             ELSE IF S_D.DO$ -> K$ILL.ID_FROM = 60 /* C@EVAL */
      247    10487    2                  THEN S_D.EFMT_DEFAULT = %OCT_FMT;
      248    10488    2                  ELSE S_D.FMT_DEFAULT = %OCT_FMT;
      249    10489    2          CASE (304);                   /* KILL COPY */
      250    10490    2             S_D.COPY = '0'B;
      251    10491    2             NONE = '0'B;
      252    10492    2          CASE (305);                   /* KILL ECHO */
      253    10493    2             S_D.ECHO = '0'B;
PL6.E3A0      #001=DDA$KILL File=DDA$KILL.:E05TSI                                TUE 07/29/97 13:32 Page:8
      254    10494    2             NONE = '0'B;
      255    10495    2          CASE (313);                    /* KILL SAD */
      256    10496    2             S_D.SAD = -1;
      257    10497    2             NONE = '0'B;
      258    10498    2          CASE (308);                    /* KILL RUM */
      259    10499    2             NONE = '0'B;
      260    10500    2             IF S_D.RUM
      261    10501    2             THEN CALL DUA$KILL_RUM;
      262    10502    3             ELSE DO;
      263    10503    3                  S_D.ERROR = 124;    /* E@NOTRUM */
      264    10504    3                  CALL DDE$ERROR;
      265    10505    3                END;
      266    10506    2          CASE (309);                 /* KILL ALTVAR */
      267    10507    2             NONE = '0'B;
      268    10508    2             S_D.XSCH = '0'B;
      269    10509    2          CASE (310);                   /* KILL ANLZ */
      270    10510    2             NONE = '0'B;
      271    10511    2             IF S_D.ANLZ
      272    10512    2             THEN CALL DUA$KILL_ANLZ ALTRET( ARET );
      273    10513    2             ELSE IF S_D.FPRG AND S_D.CURRENT_FPRG_CONTEXT$->FPRG$CONTEXT.FANLZ
      274    10514    3                  THEN DO;
      275    10515    3                       CALL DFA$KILL_DELTA;
      276    10516    3                       CALL DDR$REPORT(11/*R_DELTA*/);
      277    10517    3                     END;
      278    10518    3                  ELSE DO;
      279    10519    3                       S_D.ERROR = 156; /* E@NOTANLZ */
      280    10520    3   ARET:               ;
      281    10521    3                       CALL DDE$ERROR;
      282    10522    3                     END;
      283    10523    2          CASE (317);              /* KILL DELTA */
      284    10524    2             NONE = '0'B;
      285    10525    2             IF S_D.DO$ -> K$ILL.FPRG
      286    10526    3             THEN DO;
      287    10527    3                  IF S_D.FPRG_CONTEXT$ = ADDR(NIL)
      288    10528    4                  THEN DO;
      289    10529    4                       S_D.ERROR = 278; /* E@NOFPRG */
      290    10530    4                       GOTO ERREPT;
PL6.E3A0      #001=DDA$KILL File=DDA$KILL.:E05TSI                                TUE 07/29/97 13:32 Page:9
      291    10531    4                     END;
      292    10532    3                  TFPRG$ = S_D.FPRG_CONTEXT$;
      293    10533    4                  DO WHILE (SUBSTR(TFPRG$ -> FPRG$CONTEXT.RES, 0, TFPRG$ ->
             10533                           FPRG$CONTEXT.RES_SIZE )
      294    10534    4                    ~= S_D.DO$ -> K$ILL.FPRG_RES);
      295    10535    4                       TFPRG$ = TFPRG$ -> FPRG$CONTEXT.NEXT$;
      296    10536    4                       IF TFPRG$ = ADDR(NIL)
      297    10537    5                       THEN DO;
      298    10538    5                            S_D.ERROR = 278; /* E@NOFPRG */
      299    10539    5                            GOTO ERREPT;
      300    10540    5                          END;
      301    10541    4                     END;
      302    10542    3                  S_D.CURRENT_FPRG_CONTEXT$ =TFPRG$;
      303    10543    3                  CALL DFA$KILL_DELTA;
      304    10544    3                  CALL DDR$REPORT(11/*R_DELTA*/);
      305    10545    3                END;
      306    10546    3             ELSE DO;
      307    10547    3                  IF S_D.FPRG_CONTEXT$ ~= ADDR(NIL)
      308    10548    4                  THEN DO;
      309    10549    4                       TFPRG$ = S_D.FPRG_CONTEXT$;
      310    10550    5                       DO WHILE (TFPRG$ ~= ADDR(NIL));
      311    10551    5                            PTFPRG$ = TFPRG$ -> FPRG$CONTEXT.NEXT$;
      312    10552    5                            S_D.CURRENT_FPRG_CONTEXT$ = TFPRG$;
      313    10553    5                            CALL DFA$KILL_DELTA;
      314    10554    5                            TFPRG$ = PTFPRG$;
      315    10555    5                          END;
      316    10556    4                     END;
      317    10557    3                  CALL DDT$TRACEOFF;
      318    10558    3                  CALL DUA$ALIB( 3/*ALIB_DLIB*/ ) ALTRET( ERREPT );
      319    10559                       /* Will not return, it calls DUA$KILLDELTA, which calls M$DRTN */
      320    10560    3                END;
      321    10561    2          CASE (314);                /* KILL PROTECT */
      322    10562    2             NONE = '0'B;
      323    10563    2             S_D.PROTECT = '0'B;
      324    10564    2          CASE (316);                /* KILL SYMBOLS */
      325    10565    2             IF D_XDELTA
      326    10566    2             THEN D_SYMBOLS = '0'B;
PL6.E3A0      #001=DDA$KILL File=DDA$KILL.:E05TSI                                TUE 07/29/97 13:32 Page:10
      327    10567    2             NONE = '0'B;
      328    10568    2          CASE (320);                  /* KILL CACHE */
      329    10569    2             S_D.L6_CACHE = '0'B;
      330    10570    2             NONE = '0'B;
      331    10571    2          CASE (321);           /* KILL INTERPRETIVE */
      332    10572    2             S_D.INTERPRETIVE = '0'B;
      333    10573    2             NONE = '0'B;
      334    10574    2          CASE (322);                 /* KILL STATUS */
      335    10575    2             S_D.STATUS = '0'B;
      336    10576    2             NONE = '0'B;
      337    10577    2          CASE(ELSE);                      /* WHAT'S THIS ? */
      338    10578    2             S_D.ERROR = 502;         /* E@DELBUG */
      339    10579    2             CALL DDE$ERROR;
      340    10580    2          END;
      341    10581    1   CASEOUT:
      342    10582    1        IF NONE
      343    10583    2        THEN DO;
      344    10584    2             S_D.OUTPUT = NONEMSG;
      345    10585    2             CALL DDQ$WRITE( ADDR( S_D.OUTPUT ), LENGTHC( NONEMSG ) );
      346    10586    2           END;
      347    10587                                                /**/
      348    10588    1        RETURN;
      349    10589                                                /**/
      350    10590    1   ERREPT: ;
      351    10591    1        CALL DDE$ERROR;
      352    10592                                                /**/
      353    10593    1        RETURN;
      354    10594                                                /**/
      355    10595        %EJECT;
PL6.E3A0      #001=DDA$KILL File=DDA$KILL.:E05TSI                                TUE 07/29/97 13:32 Page:11
      356    10596                                                /**/
      357    10597    1   KILL_FIX: PROC;
      358    10598                                                /**/
      359    10599    3        DO I = F_FROM TO F_TO;
      360    10600    3             CCMD = S_D.FIXCOM.CMD( I );
      361    10601    3             IF CCMD ~= 0
      362    10602    3             THEN IF CMD = CCMD OR CMD = 0
      363    10603    4                  THEN DO;
      364    10604    4                       NONE = '0'B;
      365    10605    4                       S_D.KILL1 = I;
      366    10606    4                       IF NOT S_D.FIXCOM.FPRG(I)
      367    10607    5                       THEN DO;
      368    10608    5                            IF CCMD = 30 /* C_OA */
      369    10609    5                            THEN S_D.ONABORT = 0;
      370    10610    5                            IF CCMD = 32 /* C_OE */
      371    10611    5                            THEN S_D.ONEXIT = 0;
      372    10612    5                            IF CCMD = 53 /* C_ONCALLS */
      373    10613    5                            THEN S_D.ONCALLS = 0;
      374    10614    5                            IF CCMD = 54 /* C_ONNODES */
      375    10615    5                            THEN S_D.ONNODES = 0;
      376    10616    5                          END;
      377    10617    4                       IF S_D.FIXCOM.FPRG(I)
      378    10618    4                       THEN CALL DFA$KILL1(WRITE, CCMD, '1'B);
      379    10619    4                       ELSE CALL DDA$KILL1;
      380    10620    4                     END;
      381    10621    3           END;
      382    10622    2        IF S_D.DO$ -> K$ILL.TYPE = 280 AND S_D.FPRG_CONTEXT$ ~= ADDR(NIL)
      383    10623    3        THEN DO;
      384    10624    3             TFPRG$ = S_D.FPRG_CONTEXT$;
      385    10625    4             DO WHILE (TFPRG$ ~= ADDR(NIL));
      386    10626    4                  IF TFPRG$ -> FPRG$CONTEXT.STATE = %STOPPED OR
      387    10627    4                    TFPRG$ -> FPRG$CONTEXT.STATE = %ATEXIT
      388    10628    5                  THEN DO;
      389    10629    5                       GD$MSG='0'B;
      390    10630    5                       GD$MSG.FNC = %GD#RQSKILLATALL;
      391    10631    5                       CALL DFQ$WRITE_FD (TFPRG$) ALTRET(ERR);
      392    10632    5                       CALL DFQ$READ_FD (TFPRG$, '0'B) ALTRET(ERR);
PL6.E3A0      #001=DDA$KILL File=DDA$KILL.:E05TSI                                TUE 07/29/97 13:32 Page:12
      393    10633    5                       IF GD$MSG.FNC ~= %GD#RSPACK
      394    10634    5                       THEN GOTO ERR;
      395    10635    5                     END;
      396    10636    4                  TFPRG$ = TFPRG$ -> FPRG$CONTEXT.NEXT$;
      397    10637    4                END;
      398    10638    3           END;
      399    10639                                                /**/
      400    10640    2        RETURN;
      401    10641                                                /**/
      402    10642    2   ERR: ;
      403    10643    2        IF TFPRG$ -> FPRG$CONTEXT.XDELTA AND
      404    10644    2          GD$MSG.FNC = %GD#RSPBADMSG
      405    10645    3        THEN DO;
      406    10646    3             S_D.ERROR = 330;         /* E@BADMSG */
      407    10647    3             CALL DDE$ERROR;
      408    10648    3             RETURN;
      409    10649    3           END;
      410    10650    2        IF GD$MSG.FNC = %GD#RSPNAK
      411    10651    3        THEN DO;
      412    10652    3             IF TFPRG$ -> FPRG$CONTEXT.XDELTA
      413    10653    4             THEN DO;
      414    10654    4                  TEMP1 = BITBIN(GD$MSG.ERROR_D.ERRCODE);
      415    10655    4                  TEMP2B.B1 = TEMP1B.B1;
      416    10656    4                  TEMP2B.B2 = TEMP1B.B2;
      417    10657    4                  TEMP2B.B3 = TEMP1B.B3;
      418    10658    4                  TEMP2B.B4 = TEMP1B.B4;
      419    10659    4                  S_D.JDE = TEMP2;
      420    10660    4                END;
      421    10661    3             ELSE S_D.JDE = BITBIN(GD$MSG_HOST.ERROR_D.ERRCODE);
      422    10662    3             CALL DUE$GERRMSG;
      423    10663    3             RETURN;
      424    10664    3           END;
      425    10665    2        S_D.ERROR_HICHAR = I;
      426    10666    2        S_D.ERROR = 289;      /* E@ERR_KILLFPRGAT */
      427    10667    2        CALL DDE$ERROR;
      428    10668    2        RETURN;
      429    10669    2   END KILL_FIX;
PL6.E3A0      #001=DDA$KILL File=DDA$KILL.:E05TSI                                TUE 07/29/97 13:32 Page:13
      430    10670                                                /**/
      431    10671    1   END DDA$KILL;

PL6.E3A0      #001=DDA$KILL File=DDA$KILL.:E05TSI                                TUE 07/29/97 13:32 Page:14
--  Include file information  --

   DD_SRTN_C.:E05TOU  is referenced.
   DD_ACODE_C.:E05TOU  is referenced.
   DD_ICODE_C.:E05TOU  is referenced.
   DD$DITEM.:E05TOU  cannot be made into a system file and is referenced.
   B$OBJECT_C.:E05TOU  is referenced.
   CP_6.:E05TOU  cannot be made into a system file and is referenced.
   DD_ERR_C.:E05TOU  is referenced.
   DD_PSUBS_C.:E05TOU  is referenced.
   DD_SUBS_C.:E05TOU  is referenced.
   DD_SD_M.:E05TOU  is referenced.
   XUH_MACRO_C.:E05TOU  is referenced.
   GD_EQUS_E.:E05TOU  is referenced.
   GD$MSG_M.:E05TOU  is referenced.
   DD$BASED.:E05TOU  is referenced.
   B$JIT_C.:E05TOU  was found in the system file and is never referenced.
   CP_6_C.:E05TOU  was found in the system file and is referenced.
      No diagnostics issued in procedure DDA$KILL.

   Procedure DDA$KILL requires 672 words for executable code.
   Procedure DDA$KILL requires 30 words of local(AUTO) storage.

    No errors detected in file DDA$KILL.:E05TSI    .

PL6.E3A0      #001=DDA$KILL File=DDA$KILL.:E05TSI                                TUE 07/29/97 13:32 Page:15

 Object Unit name= DDA$KILL                                   File name= DDA$KILL.:E05TOU
 UTS= JUL 29 '97 13:32:06.00 TUE                              Compiler= PL-6/E31         Sev=      00
 SharedLib= :SHARED_SYSTEM                                    Alt SharedLib=


    ****  Control sections  ****

 Sect   Type Bound  Init  Size OctSiz  Section name(segment info)
    0  RoData even  UTS     20     24  DDA$KILL
    1   DCB   even  none     0      0  M$UC
    2   Proc  even  none   672   1240  DDA$KILL
    3  RoData even  none     7      7  DDA$KILL

    ****  Entry defs  ****

                              Check   Calling
                             calling  sequence
  Sect OctLoc Primary Altret sequence   type   Parms  Name
     2      0   yes            yes      Std        0  DDA$KILL
PL6.E3A0      #001=DDA$KILL File=DDA$KILL.:E05TSI                                TUE 07/29/97 13:32 Page:16

  ****  Entry refs  ****

         Check        Calling
        calling       sequence
Altret sequence SRef   type   Args  Name
         yes           Std       0 DDE$ERROR
         yes           Std       0 DUA$KILL_RUM
         yes           Std       0 DDT$TRACEOFF
         yes           Std       0 DFA$TRACEOFF
 yes     yes           Std       1 DDA$KDEF
 yes     yes           Std       0 DUA$KILL_ANLZ
         yes           Std       1 DDR$REPORT
         yes           Std       2 DDQ$WRITE
         yes           Std       0 DUE$ERRMSG
 yes     yes           Std       2 DUA$ALIB
         yes           Std       0 DFA$KILL_DELTA
         yes           Std       3 DFA$KILL1
 yes     yes           Std       2 DFQ$READ_FD
         yes           Std       0 DUE$GERRMSG
         yes           Std       0 DDA$KILL1
 yes     yes           Std       1 DFQ$WRITE_FD
                       nStd      0 X66_AUTO_0
                       Std       0 B_CONSPOOL_D
                       nStd      0 X66_ARET

  ****  Data refs  ****

  Flags:  r = read only, s = secondary
Flgs Name                             Flgs Name                             Flgs Name
r    S_D$                             r    S_D_HOST_MESSAGE$                r    S_D_L6_MESSAGE$
     M$UC                                  D_XDELTA                              D_SYMBOLS
     DX_DIC                                B_VECTNIL
PL6.E3A0      #001=DDA$KILL File=DDA$KILL.:E05TSI                                TUE 07/29/97 13:32 Page:17

  ****  Segment refs  ****

  Flags:  r = read only, s = secondary
Flgs Name                             Flgs Name                             Flgs Name
     ISSID                                 NULLSID
PL6.E3A0      #001=DDA$KILL File=DDA$KILL.:E05TSI                                TUE 07/29/97 13:32 Page:18


        1        1        /*M* DDA$KILL KILL ROUTINE */
        2        2        /*T***********************************************************/
        3        3        /*T*                                                         */
        4        4        /*T* Copyright (c) Bull HN Information Systems Inc., 1997    */
        5        5        /*T*                                                         */
        6        6        /*T***********************************************************/
        7        7        /*X* DMR,PLM=5,IND=5,CSU=3,EXM=0,ECU=3,MOC,DCI=5,CRT=5 */
        8        8        %SET LISTSUB='1'B;
        9        9        /*D*  NAME:  DDA$KILL
       10       10              CALL:  CALL DDA$KILL
       11       11              INPUT:  S_D.DO$ POINTS TO THE KILL FRAME
       12       12              DESCRIPTION:  DDA$KILL IS CALLED BY DDA$DO.  STORED
       13       13                     THE KILL 'TYPE' OR ID RANGE DICTATES WHAT IS TO BE
       14       14                     DONE. */
       15       15                                                /**/
       16       16        DDA$KILL: PROC;

     16  2 000000   000000 700200 xent  DDA$KILL     TSX0  ! X66_AUTO_0
         2 000001   000036 000000                    ZERO    30,0

       17       17                                                /**/
       18       18    1   DCL TYPE SBIN;
       19       19    1   DCL F_FROM SBIN;
       20       20    1   DCL F_TO SBIN;
       21       21    1   DCL CMD SBIN;
       22       22    1   DCL DEFI SBIN;
       23       23    1   DCL I UBIN;
       24       24    1   DCL CCMD UBIN;
       25       25    1   DCL NONE BIT(1) ALIGNED;
       26       26    1   DCL WRITE BIT(1) ALIGNED;
       27       27    1   DCL TFPRG$ PTR;
       28       28    1   DCL PTFPRG$ PTR;
       29       29    1   DCL RES CHAR(8);
       30       30    1   DCL RES_SIZE UBIN;
       31       31    1   DCL TEMP$ PTR;
       32       32    1   DCL TEMP1 REDEF TEMP$ UBIN(36) ALIGNED;
PL6.E3A0      #001=DDA$KILL File=DDA$KILL.:E05TSI                                TUE 07/29/97 13:32 Page:19
       33       33    1   DCL 1 TEMP1B REDEF TEMP$ ALIGNED,
       34       34    1         2 * UBIN(4) UNAL,
       35       35    1         2 B1 UBIN(8) UNAL,
       36       36    1         2 B2 UBIN(8) UNAL,
       37       37    1         2 B3 UBIN(8) UNAL,
       38       38    1         2 B4 UBIN(8) UNAL;
       39       39    1   DCL TEMP2 UBIN(36) ALIGNED;
       40       40    1   DCL 1 TEMP2B REDEF TEMP2 ALIGNED,
       41       41    1         2 * BIT(1) UNAL,
       42       42    1         2 B1 UBIN(8) UNAL,
       43       43    1         2 * BIT(1) UNAL,
       44       44    1         2 B2 UBIN(8) UNAL,
       45       45    1         2 * BIT(1) UNAL,
       46       46    1         2 B3 UBIN(8) UNAL,
       47       47    1         2 * BIT(1) UNAL,
       48       48    1         2 B4 UBIN(8) UNAL;
       49       49        %INCLUDE DD$BASED;
       50     1352        %SHOW$CMD (NAME=K$ILL);
       51     1374        %TEXT$C;
       52     1379        %FPRG$CONTEXT;
       53     1442        %INCLUDE GD$MSG_M;
       54     1606        %GD$MSG(FPTN=GD$MSG,STCLASS="BASED(S_D_L6_MESSAGE$)",L6=YES,L6PTR="UBIN(32) UNAL");
       55     1762        %GD$MSG(FPTN=GD$MSG_HOST,STCLASS="BASED(S_D_HOST_MESSAGE$)",L6=NO);
       56     1918        %INCLUDE GD_EQUS_E;
       57     2079        %INCLUDE XUH_MACRO_C;
       58     2163        %INCLUDE DD_SD_M;
       59     3499        %S_D;
       60     4817        %S_D_PTRS;
       61     4854    1   DCL NONEMSG CHAR(0) CONSTANT INIT( 'None' );
       62     4855        %INCLUDE DD_SUBS_C;
       63     5126        %INCLUDE DD_PSUBS_C;
       64     5601        %INCLUDE DD_ERR_C;
       65     5998        %INCLUDE CP_6;
       66     6079        %F$DCB;
       67     6136        %INCLUDE B$OBJECT_C;
       68     9566        %COMPILERIDSUBS;
       69     9582        %FPT_EOM (FPTN=FPT_EOM,
PL6.E3A0      #001=DDA$KILL File=DDA$KILL.:E05TSI                                TUE 07/29/97 13:32 Page:20
       70     9583                  STCLASS=CONSTANT,
       71     9584                  EOMTABLE=VLP_EOMTABLE);
       72     9614        %VLP_EOMTABLE (FPTN=VLP_EOMTABLE,
       73     9615                  STCLASS=CONSTANT,
       74     9616                  VALUES=STD);
       75     9635    1   DCL D_XDELTA BIT(1) SYMREF;
       76     9636    1   DCL D_SYMBOLS BIT(1) ALIGNED SYMREF;
       77     9637    1   DCL DD_XOU$ PTR SYMREF;
       78     9638    1   DCL DX_DIC BIT(1) SYMREF;
       79     9639    1   DCL DUA$ALIB ENTRY(2) ALTRET;
       80     9640    1   DCL DUA$KILL_ANLZ ENTRY(0) ALTRET;
       81     9641    1   DCL DUA$KILL_RUM ENTRY(0);
       82     9642    1   DCL DUE$ERRMSG ENTRY(0);
       83     9643    1   DCL DUE$GERRMSG ENTRY(0);
       84     9644    1   DCL DDA$KILL1 ENTRY;
       85     9645    1   DCL DDE$ERROR ENTRY;
       86     9646    1   DCL DDT$TRACEOFF ENTRY;
       87     9647    1   DCL DDA$KDEF ENTRY(1) ALTRET;
       88     9648    1   DCL DDQ$WRITE ENTRY(2);
       89     9649    1   DCL DFA$KILL1 ENTRY(3);
       90     9650    1   DCL DFA$KILL_FPRG ENTRY(1);
       91     9651    1   DCL DFA$TRACEOFF ENTRY;
       92     9652    1   DCL DDR$REPORT ENTRY(1);
       93     9653    1   DCL DFA$KILL_DELTA ENTRY;
       94     9654    1   DCL DFQ$READ_FD ENTRY(2) ALTRET;
       95     9655    1   DCL DFQ$WRITE_FD ENTRY(1) ALTRET;
       96     9656        %INCLUDE DD$DITEM;
       12+    9759             %LIST;
       13+    9760    1        DCL SDD$ PTR;
       14+    9761    1        DCL ZITEM$ PTR;
       15+    9762    1        DCL SDD_L6$ PTR;
       16+    9763    1        DCL ZITEM_L6$ PTR;
       97    10337                                                /**/
       98    10338    1        NONE = '1'B;

  10338  2 000002   400000 236003                    LDQ     -131072,DU
         2 000003   200012 756100                    STQ     NONE,,AUTO
PL6.E3A0      #001=DDA$KILL File=DDA$KILL.:E05TSI                                TUE 07/29/97 13:32 Page:21

       99    10339    1        TYPE = S_D.DO$ -> K$ILL.TYPE;

  10339  2 000004   000000 470400 xsym               LDP0    S_D$
         2 000005   000031 471500                    LDP1    25,,PR0
         2 000006   100001 236100                    LDQ     1,,PR1
         2 000007   000033 772000                    QRL     27
         2 000010   200003 756100                    STQ     TYPE,,AUTO

      100    10340    1        IF ( S_D.RUM OR S_D.ANLZ )

  10340  2 000011   004755 234100                    SZN     2541,,PR0
         2 000012   000015 604000 2                  TMI     s:10340+4
         2 000013   004756 234100                    SZN     2542,,PR0
         2 000014   000061 605000 2                  TPL     s:10362
         2 000015   000432 116007                    CMPQ    282,DL
         2 000016   000061 600000 2                  TZE     s:10362
         2 000017   000434 116007                    CMPQ    284,DL
         2 000020   000061 600000 2                  TZE     s:10362
         2 000021   000447 116007                    CMPQ    295,DL
         2 000022   000061 600000 2                  TZE     s:10362
         2 000023   000452 116007                    CMPQ    298,DL
         2 000024   000061 600000 2                  TZE     s:10362
         2 000025   000453 116007                    CMPQ    299,DL
         2 000026   000061 600000 2                  TZE     s:10362
         2 000027   000456 116007                    CMPQ    302,DL
         2 000030   000061 600000 2                  TZE     s:10362
         2 000031   000460 116007                    CMPQ    304,DL
         2 000032   000061 600000 2                  TZE     s:10362
         2 000033   000461 116007                    CMPQ    305,DL
         2 000034   000061 600000 2                  TZE     s:10362
         2 000035   000464 116007                    CMPQ    308,DL
         2 000036   000061 600000 2                  TZE     s:10362
         2 000037   000465 116007                    CMPQ    309,DL
         2 000040   000061 600000 2                  TZE     s:10362
         2 000041   000457 116007                    CMPQ    303,DL
         2 000042   000061 600000 2                  TZE     s:10362
PL6.E3A0      #001=DDA$KILL File=DDA$KILL.:E05TSI                                TUE 07/29/97 13:32 Page:22
         2 000043   000472 116007                    CMPQ    314,DL
         2 000044   000061 600000 2                  TZE     s:10362
         2 000045   000502 116007                    CMPQ    322,DL
         2 000046   000061 600000 2                  TZE     s:10362
         2 000047   000475 116007                    CMPQ    317,DL
         2 000050   000061 600000 2                  TZE     s:10362
         2 000051   000466 116007                    CMPQ    310,DL
         2 000052   000061 600000 2                  TZE     s:10362

      101    10341    1          AND NOT ( TYPE = 282 OR       /* S@DEFS */
      102    10342    1          TYPE = 284 OR               /* S@SCHEMA */
      103    10343    1          TYPE = 295 OR              /* S@ABBREVS */
      104    10344    1          TYPE = 298 OR               /* S@KILLDN */
      105    10345    1          TYPE = 299 OR                  /* S@DIC */
      106    10346    1          TYPE = 302 OR                  /* S@EOM */
      107    10347    1          TYPE = 304 OR                 /* S@COPY */
      108    10348    1          TYPE = 305 OR                 /* S@ECHO */
      109    10349    1          TYPE = 308 OR                  /* S@RUM */
      110    10350    1          TYPE = 309 OR               /* S@ALTVAR */
      111    10351    1          TYPE = 303 OR               /* S@FORMAT */
      112    10352    1          TYPE = 314 OR              /* S@PROTECT */
      113    10353    1          TYPE = 322 OR               /* S@STATUS */
      114    10354    1          TYPE = 317 OR            /* S@KILLDELTA */
      115    10355    1          TYPE = 310 )                  /* S@ANLZ */
      116    10356    2        THEN DO;

      117    10357    2             S_D.ERROR = 125;       /* E@NOTDELTA */

  10357  2 000053   000175 235007                    LDA     125,DL
         2 000054   000013 755100                    STA     11,,PR0

      118    10358    2             CALL DDE$ERROR;

  10358  2 000055   000002 631400 xsym               EPPR1   B_VECTNIL+2
         2 000056   000000 701000 xent               TSX1    DDE$ERROR
         2 000057   000000 011000                    NOP     0

PL6.E3A0      #001=DDA$KILL File=DDA$KILL.:E05TSI                                TUE 07/29/97 13:32 Page:23
      119    10359    2             RETURN;

  10359  2 000060   000000 702200 xent               TSX2  ! X66_ARET

      120    10360    2           END;
      121    10361                                      /* INITIALIZE FIXCOM RANGE TO THE WHOLE THING */
      122    10362    1        F_FROM = 1;

  10362  2 000061   000001 235007                    LDA     1,DL
         2 000062   200004 755100                    STA     F_FROM,,AUTO

      123    10363    1        F_TO   = S_D.FIXLAST;

  10363  2 000063   000047 235100                    LDA     39,,PR0
         2 000064   200005 755100                    STA     F_TO,,AUTO

      124    10364    1        WRITE = '1'B;

  10364  2 000065   400000 236003                    LDQ     -131072,DU
         2 000066   200013 756100                    STQ     WRITE,,AUTO

      125    10365    2        DO CASE(TYPE);

  10365  2 000067   200003 235100                    LDA     TYPE,,AUTO
         2 000070   000430 135007                    SBLA    280,DL
         2 000071   000053 115007                    CMPA    43,DL
         2 000072   000074 602005 2                  TNC     s:10365+5,AL
         2 000073   000710 710000 2                  TRA     s:10578
         2 000074   000147 710000 2                  TRA     s:10367
         2 000075   000154 710000 2                  TRA     s:10371
         2 000076   000161 710000 2                  TRA     s:10374
         2 000077   000214 710000 2                  TRA     s:10385
         2 000100   000234 710000 2                  TRA     s:10392
         2 000101   000710 710000 2                  TRA     s:10578
         2 000102   000237 710000 2                  TRA     s:10395
         2 000103   000244 710000 2                  TRA     s:10398
         2 000104   000300 710000 2                  TRA     s:10416
PL6.E3A0      #001=DDA$KILL File=DDA$KILL.:E05TSI                                TUE 07/29/97 13:32 Page:24
         2 000105   000710 710000 2                  TRA     s:10578
         2 000106   000710 710000 2                  TRA     s:10578
         2 000107   000305 710000 2                  TRA     s:10419
         2 000110   000316 710000 2                  TRA     s:10424
         2 000111   000323 710000 2                  TRA     s:10427
         2 000112   000330 710000 2                  TRA     s:10430
         2 000113   000715 710000 2                  TRA     CASEOUT
         2 000114   000341 710000 2                  TRA     s:10436
         2 000115   000355 710000 2                  TRA     s:10441
         2 000116   000374 710000 2                  TRA     s:10450
         2 000117   000423 710000 2                  TRA     s:10461
         2 000120   000710 710000 2                  TRA     s:10578
         2 000121   000710 710000 2                  TRA     s:10578
         2 000122   000432 710000 2                  TRA     s:10465
         2 000123   000447 710000 2                  TRA     s:10475
         2 000124   000502 710000 2                  TRA     s:10490
         2 000125   000505 710000 2                  TRA     s:10493
         2 000126   000710 710000 2                  TRA     s:10578
         2 000127   000710 710000 2                  TRA     s:10578
         2 000130   000514 710000 2                  TRA     s:10499
         2 000131   000531 710000 2                  TRA     s:10507
         2 000132   000536 710000 2                  TRA     s:10510
         2 000133   000710 710000 2                  TRA     s:10578
         2 000134   000710 710000 2                  TRA     s:10578
         2 000135   000510 710000 2                  TRA     s:10496
         2 000136   000667 710000 2                  TRA     s:10562
         2 000137   000710 710000 2                  TRA     s:10578
         2 000140   000672 710000 2                  TRA     s:10565
         2 000141   000570 710000 2                  TRA     s:10524
         2 000142   000710 710000 2                  TRA     s:10578
         2 000143   000710 710000 2                  TRA     s:10578
         2 000144   000677 710000 2                  TRA     s:10569
         2 000145   000702 710000 2                  TRA     s:10572
         2 000146   000705 710000 2                  TRA     s:10575

      126    10366    2          CASE(280);                     /* KILL ALL */

PL6.E3A0      #001=DDA$KILL File=DDA$KILL.:E05TSI                                TUE 07/29/97 13:32 Page:25
      127    10367    2             CMD = 0;                      /* KILL ALL STORED COMMANDS IN FIXCOM */

  10367  2 000147   200006 450100                    STZ     CMD,,AUTO

      128    10368    2             WRITE = '0'B;

  10368  2 000150   200013 450100                    STZ     WRITE,,AUTO

      129    10369    2             CALL KILL_FIX;

  10369  2 000151   000743 701000 2                  TSX1    KILL_FIX
         2 000152   000000 011000                    NOP     0
         2 000153   000715 710000 2                  TRA     CASEOUT

      130    10370    2          CASE(281);                     /* KILL ATS */

      131    10371    2             CMD = 2;                   /* CMD SET TO 'AT' */

  10371  2 000154   000002 235007                    LDA     2,DL
         2 000155   200006 755100                    STA     CMD,,AUTO

      132    10372    2             CALL KILL_FIX;

  10372  2 000156   000743 701000 2                  TSX1    KILL_FIX
         2 000157   000000 011000                    NOP     0
         2 000160   000715 710000 2                  TRA     CASEOUT

      133    10373    2          CASE(282);                    /* KILL DEFS */

      134    10374    2             IF S_D.FPRG AND S_D.CURRENT_FPRG_CONTEXT$ -> FPRG$CONTEXT.INTERPRETIVE

  10374  2 000161   000101 234100                    SZN     65,,PR0
         2 000162   000172 605000 2                  TPL     s:10379
         2 000163   000102 473500                    LDP3    66,,PR0
         2 000164   300001 236100                    LDQ     1,,PR3
         2 000165   200000 316003                    CANQ    65536,DU
         2 000166   000172 600000 2                  TZE     s:10379
PL6.E3A0      #001=DDA$KILL File=DDA$KILL.:E05TSI                                TUE 07/29/97 13:32 Page:26

      135    10375    3             THEN DO;

      136    10376    3                  S_D.ERROR = 309; /* E@NOT_INTERPRETIVE */

  10376  2 000167   000465 235007                    LDA     309,DL
         2 000170   000013 755100                    STA     11,,PR0

      137    10377    3                  GOTO ERREPT;

  10377  2 000171   000737 710000 2                  TRA     ERREPT

      138    10378    3                END;
      139    10379    3             DO DEFI = 0 TO 24;

  10379  2 000172   200007 450100                    STZ     DEFI,,AUTO

      140    10380    3                  IF S_D.UD.TEXTSZ( DEFI ) ~= 0

  10380  2 000173   200007 236100                    LDQ     DEFI,,AUTO
         2 000174   000011 402007                    MPY     9,DL
         2 000175   000000 470400 xsym               LDP0    S_D$
         2 000176   000141 236106                    LDQ     97,QL,PR0
         2 000177   777000 316003                    CANQ    -512,DU
         2 000200   000202 600000 2                  TZE     s:10382

      141    10381    3                  THEN NONE = '0'B;

  10381  2 000201   200012 450100                    STZ     NONE,,AUTO

      142    10382    3                  S_D.UD.TEXTSZ(DEFI) = 0;

  10382  2 000202   200007 236100                    LDQ     DEFI,,AUTO
         2 000203   000011 402007                    MPY     9,DL
         2 000204   000000 620006                    EAX0    0,QL
         2 000205   000032 236000 xsym               LDQ     B_VECTNIL+26
         2 000206   000141 356110                    ANSQ    97,X0,PR0
PL6.E3A0      #001=DDA$KILL File=DDA$KILL.:E05TSI                                TUE 07/29/97 13:32 Page:27

      143    10383    3                END;

  10383  2 000207   200007 054100                    AOS     DEFI,,AUTO
         2 000210   200007 235100                    LDA     DEFI,,AUTO
         2 000211   000030 115007                    CMPA    24,DL
         2 000212   000173 604400 2                  TMOZ    s:10380
         2 000213   000715 710000 2                  TRA     CASEOUT

      144    10384    2          CASE(283);                    /* KILL STEP MODE */

      145    10385    2             IF S_D.ONE_TO_TWO.EXEC_DOMAIN = %L6

  10385  2 000214   006714 235100                    LDA     3532,,PR0
         2 000215   000002 115007                    CMPA    2,DL
         2 000216   000223 601000 2                  TNZ     s:10387

      146    10386    2             THEN S_D.CURRENT_FPRG_CONTEXT$ -> FPRG$CONTEXT.STEP_MODE = 583;
             10386                      /* C@STATEMENTS */

  10386  2 000217   000102 473500                    LDP3    66,,PR0
         2 000220   001107 220003                    LDX0    583,DU
         2 000221   300033 440100                    SXL0    27,,PR3
         2 000222   000232 710000 2                  TRA     s:10390

      147    10387    2             ELSE IF S_D.SYNTAX_DEFAULT = %GMAPID

  10387  2 000223   005253 235100                    LDA     2731,,PR0
         2 000224   000230 601000 2                  TNZ     s:10389

      148    10388    2                  THEN S_D.S$TEP.MODE = 581; /*C@INSTRUCTIONS*/

  10388  2 000225   001105 235007                    LDA     581,DL
         2 000226   005310 755100                    STA     2760,,PR0
         2 000227   000232 710000 2                  TRA     s:10390

      149    10389    2                  ELSE S_D.S$TEP.MODE = 583; /*C@STATEMENTS*/
PL6.E3A0      #001=DDA$KILL File=DDA$KILL.:E05TSI                                TUE 07/29/97 13:32 Page:28

  10389  2 000230   001107 235007                    LDA     583,DL
         2 000231   005310 755100                    STA     2760,,PR0

      150    10390    2             NONE = '0'B;

  10390  2 000232   200012 450100                    STZ     NONE,,AUTO
         2 000233   000715 710000 2                  TRA     CASEOUT

      151    10391    2          CASE(284);                  /* DONT USE SCHEMAS */

      152    10392    2             S_D.SCHEMA = '0'B;            /* SET SCHEMA MODE OFF */

  10392  2 000234   000052 450100                    STZ     42,,PR0

      153    10393    2             NONE = '0'B;

  10393  2 000235   200012 450100                    STZ     NONE,,AUTO
         2 000236   000715 710000 2                  TRA     CASEOUT

      154    10394    2          CASE(286);                   /* KILL SAVES */

      155    10395    2             CMD = 45;                 /* CMD SET TO 'SAVE' */

  10395  2 000237   000055 235007                    LDA     45,DL
         2 000240   200006 755100                    STA     CMD,,AUTO

      156    10396    2             CALL KILL_FIX;

  10396  2 000241   000743 701000 2                  TSX1    KILL_FIX
         2 000242   000000 011000                    NOP     0
         2 000243   000715 710000 2                  TRA     CASEOUT

      157    10397    2          CASE(287);                   /* KILL TRACE */

      158    10398    2             IF S_D.ONE_TO_TWO.EXEC_DOMAIN = %HOST

PL6.E3A0      #001=DDA$KILL File=DDA$KILL.:E05TSI                                TUE 07/29/97 13:32 Page:29
  10398  2 000244   006714 235100                    LDA     3532,,PR0
         2 000245   000001 115007                    CMPA    1,DL
         2 000246   000264 601000 2                  TNZ     s:10408

      159    10399    3             THEN DO;

      160    10400    3                  IF S_D.ONCALLS = 0

  10400  2 000247   004745 235100                    LDA     2533,,PR0
         2 000250   000276 601000 2                  TNZ     s:10414

      161    10401    4                  THEN DO;

      162    10402    4                       CALL DDT$TRACEOFF;

  10402  2 000251   000002 631400 xsym               EPPR1   B_VECTNIL+2
         2 000252   000000 701000 xent               TSX1    DDT$TRACEOFF
         2 000253   000000 011000                    NOP     0

      163    10403    4                       S_D.TR$INFO = '0'B; /* FIRST ZERO IT OUT */

  10403  2 000254   000000 470400 xsym               LDP0    S_D$
         2 000255   000100 100400                    MLR     fill='000'O
         2 000256   000002 000001 xsym               ADSC9   B_VECTNIL+2              cn=0,n=1
         2 000257   004627 000074                    ADSC9   2455,,PR0                cn=0,n=60

      164    10404    4                       S_D.T$T = '0'B;

  10404  2 000260   000100 100400                    MLR     fill='000'O
         2 000261   000002 000001 xsym               ADSC9   B_VECTNIL+2              cn=0,n=1
         2 000262   004707 000034                    ADSC9   2503,,PR0                cn=0,n=28

      165    10405    4                     END;

      166    10406    3                END;

  10406  2 000263   000276 710000 2                  TRA     s:10414
PL6.E3A0      #001=DDA$KILL File=DDA$KILL.:E05TSI                                TUE 07/29/97 13:32 Page:30

      167    10407    3             ELSE DO;

      168    10408    3                  IF S_D.CURRENT_FPRG_CONTEXT$ -> FPRG$CONTEXT.ONCALLS =  0

  10408  2 000264   000102 473500                    LDP3    66,,PR0
         2 000265   300062 236100                    LDQ     50,,PR3
         2 000266   001776 316003                    CANQ    1022,DU
         2 000267   000276 601000 2                  TNZ     s:10414

      169    10409    4                  THEN DO;

      170    10410    4                       S_D.CURRENT_FPRG_CONTEXT$ -> FPRG$CONTEXT.TR$INFO = '0'B;

  10410  2 000270   000100 100400                    MLR     fill='000'O
         2 000271   000002 000001 xsym               ADSC9   B_VECTNIL+2              cn=0,n=1
         2 000272   300062 400032                    ADSC9   50,,PR3                  cn=2,n=26

      171    10411    4                       CALL DFA$TRACEOFF;

  10411  2 000273   000002 631400 xsym               EPPR1   B_VECTNIL+2
         2 000274   000000 701000 xent               TSX1    DFA$TRACEOFF
         2 000275   000000 011000                    NOP     0

      172    10412    4                     END;

      173    10413    3                END;

      174    10414    2             NONE = '0'B;

  10414  2 000276   200012 450100                    STZ     NONE,,AUTO
         2 000277   000715 710000 2                  TRA     CASEOUT

      175    10415    2          CASE(288);                   /* KILL WHENS */

      176    10416    2             CMD = 67;                 /* CMD SET TO 'WHEN' */

PL6.E3A0      #001=DDA$KILL File=DDA$KILL.:E05TSI                                TUE 07/29/97 13:32 Page:31
  10416  2 000300   000103 235007                    LDA     67,DL
         2 000301   200006 755100                    STA     CMD,,AUTO

      177    10417    2             CALL KILL_FIX;

  10417  2 000302   000743 701000 2                  TSX1    KILL_FIX
         2 000303   000000 011000                    NOP     0
         2 000304   000715 710000 2                  TRA     CASEOUT

      178    10418    2          CASE(291);                   /* KILL ONCALLS */

      179    10419    2             CMD = 31;                   /* CMD SET TO ON CALL */

  10419  2 000305   000037 235007                    LDA     31,DL
         2 000306   200006 755100                    STA     CMD,,AUTO

      180    10420    2             CALL KILL_FIX;

  10420  2 000307   000743 701000 2                  TSX1    KILL_FIX
         2 000310   000000 011000                    NOP     0

      181    10421    2             CMD = 53;              /* CMD SET TO 'ONCALLS' */

  10421  2 000311   000065 235007                    LDA     53,DL
         2 000312   200006 755100                    STA     CMD,,AUTO

      182    10422    2             CALL KILL_FIX;

  10422  2 000313   000743 701000 2                  TSX1    KILL_FIX
         2 000314   000000 011000                    NOP     0
         2 000315   000715 710000 2                  TRA     CASEOUT

      183    10423    2          CASE(292);                   /* KILL ON ABORT */

      184    10424    2             CMD = 30;                   /* C_OA */

  10424  2 000316   000036 235007                    LDA     30,DL
PL6.E3A0      #001=DDA$KILL File=DDA$KILL.:E05TSI                                TUE 07/29/97 13:32 Page:32
         2 000317   200006 755100                    STA     CMD,,AUTO

      185    10425    2             CALL KILL_FIX;

  10425  2 000320   000743 701000 2                  TSX1    KILL_FIX
         2 000321   000000 011000                    NOP     0
         2 000322   000715 710000 2                  TRA     CASEOUT

      186    10426    2          CASE(293);                    /* KILL ON EXIT */

      187    10427    2             CMD = 32;                   /* C_OE */

  10427  2 000323   000040 235007                    LDA     32,DL
         2 000324   200006 755100                    STA     CMD,,AUTO

      188    10428    2             CALL KILL_FIX;

  10428  2 000325   000743 701000 2                  TSX1    KILL_FIX
         2 000326   000000 011000                    NOP     0
         2 000327   000715 710000 2                  TRA     CASEOUT

      189    10429    2          CASE(294);                   /* KILL ON NODES */

      190    10430    2             CMD = 34;                  /* C_ONN */

  10430  2 000330   000042 235007                    LDA     34,DL
         2 000331   200006 755100                    STA     CMD,,AUTO

      191    10431    2             CALL KILL_FIX;

  10431  2 000332   000743 701000 2                  TSX1    KILL_FIX
         2 000333   000000 011000                    NOP     0

      192    10432    2             CMD = 54;              /* CMD SET TO 'ONNODES' */

  10432  2 000334   000066 235007                    LDA     54,DL
         2 000335   200006 755100                    STA     CMD,,AUTO
PL6.E3A0      #001=DDA$KILL File=DDA$KILL.:E05TSI                                TUE 07/29/97 13:32 Page:33

      193    10433    2             CALL KILL_FIX;

  10433  2 000336   000743 701000 2                  TSX1    KILL_FIX
         2 000337   000000 011000                    NOP     0
         2 000340   000715 710000 2                  TRA     CASEOUT

      194    10434    2          CASE(295);                 /* KILL ABBREVS */

      195    10435    2          CASE(296);                  /* KILL ID(S) */

      196    10436    2             F_FROM = S_D.DO$ -> K$ILL.ID_FROM;

  10436  2 000341   100001 236100                    LDQ     1,,PR1
         2 000342   000022 772000                    QRL     18
         2 000343   000777 376007                    ANQ     511,DL
         2 000344   200004 756100                    STQ     F_FROM,,AUTO

      197    10437    2             F_TO = S_D.DO$ -> K$ILL.ID_TO;

  10437  2 000345   100001 236100                    LDQ     1,,PR1
         2 000346   000011 772000                    QRL     9
         2 000347   000777 376007                    ANQ     511,DL
         2 000350   200005 756100                    STQ     F_TO,,AUTO

      198    10438    2             CMD = 0;                 /* SET CMD TO 0 TO RUN THE RANGE SPECIFIED */

  10438  2 000351   200006 450100                    STZ     CMD,,AUTO

      199    10439    2             CALL KILL_FIX;

  10439  2 000352   000743 701000 2                  TSX1    KILL_FIX
         2 000353   000000 011000                    NOP     0
         2 000354   000715 710000 2                  TRA     CASEOUT

      200    10440    2          CASE(297);                  /* KILL BYPASS */

PL6.E3A0      #001=DDA$KILL File=DDA$KILL.:E05TSI                                TUE 07/29/97 13:32 Page:34
      201    10441    2             IF S_D.FPRG AND S_D.CURRENT_FPRG_CONTEXT$ -> FPRG$CONTEXT.INTERPRETIVE

  10441  2 000355   000101 234100                    SZN     65,,PR0
         2 000356   000366 605000 2                  TPL     s:10446
         2 000357   000102 473500                    LDP3    66,,PR0
         2 000360   300001 236100                    LDQ     1,,PR3
         2 000361   200000 316003                    CANQ    65536,DU
         2 000362   000366 600000 2                  TZE     s:10446

      202    10442    3             THEN DO;

      203    10443    3                  S_D.ERROR = 309; /* E@NOT_INTERPRETIVE */

  10443  2 000363   000465 235007                    LDA     309,DL
         2 000364   000013 755100                    STA     11,,PR0

      204    10444    3                  GOTO ERREPT;

  10444  2 000365   000737 710000 2                  TRA     ERREPT

      205    10445    3                END;
      206    10446    2             S_D.BYPASS = '0'B;

  10446  2 000366   001032 450100                    STZ     538,,PR0

      207    10447    2             S_D.BYPASS_SAVE = S_D.BYPASS;

  10447  2 000367   001032 236100                    LDQ     538,,PR0
         2 000370   400000 376003                    ANQ     -131072,DU
         2 000371   000074 756100                    STQ     60,,PR0

      208    10448    2             NONE = '0'B;

  10448  2 000372   200012 450100                    STZ     NONE,,AUTO
         2 000373   000715 710000 2                  TRA     CASEOUT

      209    10449    2          CASE(298);                  /* KILL DEF NAME */
PL6.E3A0      #001=DDA$KILL File=DDA$KILL.:E05TSI                                TUE 07/29/97 13:32 Page:35

      210    10450    2             IF S_D.FPRG AND S_D.CURRENT_FPRG_CONTEXT$ -> FPRG$CONTEXT.INTERPRETIVE

  10450  2 000374   000101 234100                    SZN     65,,PR0
         2 000375   000405 605000 2                  TPL     s:10455
         2 000376   000102 473500                    LDP3    66,,PR0
         2 000377   300001 236100                    LDQ     1,,PR3
         2 000400   200000 316003                    CANQ    65536,DU
         2 000401   000405 600000 2                  TZE     s:10455

      211    10451    3             THEN DO;

      212    10452    3                  S_D.ERROR = 309; /* E@NOT_INTERPRETIVE */

  10452  2 000402   000465 235007                    LDA     309,DL
         2 000403   000013 755100                    STA     11,,PR0

      213    10453    3                  GOTO ERREPT;

  10453  2 000404   000737 710000 2                  TRA     ERREPT

      214    10454    3                END;
      215    10455    2             NONE = '0'B;

  10455  2 000405   200012 450100                    STZ     NONE,,AUTO

      216    10456    2             CALL DDA$KDEF( ADDR( S_D.DO$ -> K$ILL.TEXTC ) ) ALTRET( NOSYM );

  10456  2 000406   100005 633500                    EPPR3   5,,PR1
         2 000407   200032 453500                    STP3    TEMP2+8,,AUTO
         2 000410   200032 631500                    EPPR1   TEMP2+8,,AUTO
         2 000411   200033 451500                    STP1    TEMP2+9,,AUTO
         2 000412   200033 630500                    EPPR0   TEMP2+9,,AUTO
         2 000413   000017 631400 xsym               EPPR1   B_VECTNIL+15
         2 000414   000000 701000 xent               TSX1    DDA$KDEF
         2 000415   000417 702000 2                  TSX2    NOSYM

PL6.E3A0      #001=DDA$KILL File=DDA$KILL.:E05TSI                                TUE 07/29/97 13:32 Page:36
      217    10457    2             GOTO CASEOUT;

  10457  2 000416   000715 710000 2                  TRA     CASEOUT

      218    10458    2   NOSYM:
      219    10459    2             CALL DDE$ERROR;

  10459  2 000417   000002 631400 xsym  NOSYM        EPPR1   B_VECTNIL+2
         2 000420   000000 701000 xent               TSX1    DDE$ERROR
         2 000421   000000 011000                    NOP     0
         2 000422   000715 710000 2                  TRA     CASEOUT

      220    10460    2          CASE (299);                    /* KILL DIC */

      221    10461    2             IF D_XDELTA THEN DX_DIC = '0'B;

  10461  2 000423   000000 234000 xsym               SZN     D_XDELTA
         2 000424   000427 605000 2                  TPL     s:10462

  10461  2 000425   000000 450000 xsym               STZ     DX_DIC
         2 000426   000430 710000 2                  TRA     s:10463

      222    10462    2             ELSE S_D.DEBUG = '1'B;

  10462  2 000427   004732 756100                    STQ     2522,,PR0

      223    10463    2             NONE = '0'B;

  10463  2 000430   200012 450100                    STZ     NONE,,AUTO
         2 000431   000715 710000 2                  TRA     CASEOUT

      224    10464    2          CASE (302);                    /* KILL EOM */

      225    10465    2             IF NOT D_XDELTA

  10465  2 000432   000000 234000 xsym               SZN     D_XDELTA
         2 000433   000445 604000 2                  TMI     s:10473
PL6.E3A0      #001=DDA$KILL File=DDA$KILL.:E05TSI                                TUE 07/29/97 13:32 Page:37

      226    10466    3             THEN DO;

      227    10467    3                  S_D.EOM = '0'B;

  10467  2 000434   004752 450100                    STZ     2538,,PR0

      228    10468    3                  CALL M$EOM(FPT_EOM) ALTRET(NOEOM); /* Reset to standard set */

  10468  2 000435   000002 630400 0                  EPPR0   FPT_EOM
         2 000436   560003 713400                    CLIMB   alt,+57347
         2 000437   401000 401760                    pmme    nvectors=3
         2 000440   000442 702000 2                  TSX2    NOEOM

      229    10469    4                  DO WHILE ('0'B);

  10469  2 000441   000445 710000 2                  TRA     s:10473

      230    10470    4   NOEOM:              CALL DUE$ERRMSG;

  10470  2 000442   000002 631400 xsym  NOEOM        EPPR1   B_VECTNIL+2
         2 000443   000000 701000 xent               TSX1    DUE$ERRMSG
         2 000444   000000 011000                    NOP     0

      231    10471    4                     END;

      232    10472    3                END;

      233    10473    2             NONE = '0'B;

  10473  2 000445   200012 450100                    STZ     NONE,,AUTO
         2 000446   000715 710000 2                  TRA     CASEOUT

      234    10474    2          CASE (303);                 /* KILL FORMAT */

      235    10475    2             IF S_D.FPRG AND S_D.CURRENT_FPRG_CONTEXT$ -> FPRG$CONTEXT.INTERPRETIVE

PL6.E3A0      #001=DDA$KILL File=DDA$KILL.:E05TSI                                TUE 07/29/97 13:32 Page:38
  10475  2 000447   000101 234100                    SZN     65,,PR0
         2 000450   000460 605000 2                  TPL     s:10480
         2 000451   000102 473500                    LDP3    66,,PR0
         2 000452   300001 236100                    LDQ     1,,PR3
         2 000453   200000 316003                    CANQ    65536,DU
         2 000454   000460 600000 2                  TZE     s:10480

      236    10476    3             THEN DO;

      237    10477    3                  S_D.ERROR = 309; /* E@NOT_INTERPRETIVE */

  10477  2 000455   000465 235007                    LDA     309,DL
         2 000456   000013 755100                    STA     11,,PR0

      238    10478    3                  GOTO ERREPT;

  10478  2 000457   000737 710000 2                  TRA     ERREPT

      239    10479    3                END;
      240    10480    2             NONE = '0'B;

  10480  2 000460   200012 450100                    STZ     NONE,,AUTO

      241    10481    2             IF S_D.DO$ -> K$ILL.ID_FROM = 0

  10481  2 000461   100001 236100                    LDQ     1,,PR1
         2 000462   000777 316003                    CANQ    511,DU
         2 000463   000470 601000 2                  TNZ     s:10486

      242    10482    3             THEN DO;

      243    10483    3                  S_D.FMT_DEFAULT = %OCT_FMT;

  10483  2 000464   000001 235007                    LDA     1,DL
         2 000465   000723 755100                    STA     467,,PR0

      244    10484    3                  S_D.EFMT_DEFAULT = %OCT_FMT;
PL6.E3A0      #001=DDA$KILL File=DDA$KILL.:E05TSI                                TUE 07/29/97 13:32 Page:39

  10484  2 000466   004736 755100                    STA     2526,,PR0

      245    10485    3                END;

  10485  2 000467   000715 710000 2                  TRA     CASEOUT

      246    10486    2             ELSE IF S_D.DO$ -> K$ILL.ID_FROM = 60 /* C@EVAL */

  10486  2 000470   100001 236100                    LDQ     1,,PR1
         2 000471   000777 376003                    ANQ     511,DU
         2 000472   000074 116003                    CMPQ    60,DU
         2 000473   000477 601000 2                  TNZ     s:10488

      247    10487    2                  THEN S_D.EFMT_DEFAULT = %OCT_FMT;

  10487  2 000474   000001 235007                    LDA     1,DL
         2 000475   004736 755100                    STA     2526,,PR0
         2 000476   000715 710000 2                  TRA     CASEOUT

      248    10488    2                  ELSE S_D.FMT_DEFAULT = %OCT_FMT;

  10488  2 000477   000001 235007                    LDA     1,DL
         2 000500   000723 755100                    STA     467,,PR0
         2 000501   000715 710000 2                  TRA     CASEOUT

      249    10489    2          CASE (304);                   /* KILL COPY */

      250    10490    2             S_D.COPY = '0'B;

  10490  2 000502   004742 450100                    STZ     2530,,PR0

      251    10491    2             NONE = '0'B;

  10491  2 000503   200012 450100                    STZ     NONE,,AUTO
         2 000504   000715 710000 2                  TRA     CASEOUT

PL6.E3A0      #001=DDA$KILL File=DDA$KILL.:E05TSI                                TUE 07/29/97 13:32 Page:40
      252    10492    2          CASE (305);                   /* KILL ECHO */

      253    10493    2             S_D.ECHO = '0'B;

  10493  2 000505   004743 450100                    STZ     2531,,PR0

      254    10494    2             NONE = '0'B;

  10494  2 000506   200012 450100                    STZ     NONE,,AUTO
         2 000507   000715 710000 2                  TRA     CASEOUT

      255    10495    2          CASE (313);                    /* KILL SAD */

      256    10496    2             S_D.SAD = -1;

  10496  2 000510   000001 335007                    LCA     1,DL
         2 000511   005255 755100                    STA     2733,,PR0

      257    10497    2             NONE = '0'B;

  10497  2 000512   200012 450100                    STZ     NONE,,AUTO
         2 000513   000715 710000 2                  TRA     CASEOUT

      258    10498    2          CASE (308);                    /* KILL RUM */

      259    10499    2             NONE = '0'B;

  10499  2 000514   200012 450100                    STZ     NONE,,AUTO

      260    10500    2             IF S_D.RUM

  10500  2 000515   004755 234100                    SZN     2541,,PR0
         2 000516   000523 605000 2                  TPL     s:10503

      261    10501    2             THEN CALL DUA$KILL_RUM;

  10501  2 000517   000002 631400 xsym               EPPR1   B_VECTNIL+2
PL6.E3A0      #001=DDA$KILL File=DDA$KILL.:E05TSI                                TUE 07/29/97 13:32 Page:41
         2 000520   000000 701000 xent               TSX1    DUA$KILL_RUM
         2 000521   000000 011000                    NOP     0
         2 000522   000715 710000 2                  TRA     CASEOUT

      262    10502    3             ELSE DO;

      263    10503    3                  S_D.ERROR = 124;    /* E@NOTRUM */

  10503  2 000523   000174 235007                    LDA     124,DL
         2 000524   000013 755100                    STA     11,,PR0

      264    10504    3                  CALL DDE$ERROR;

  10504  2 000525   000002 631400 xsym               EPPR1   B_VECTNIL+2
         2 000526   000000 701000 xent               TSX1    DDE$ERROR
         2 000527   000000 011000                    NOP     0

      265    10505    3                END;

  10505  2 000530   000715 710000 2                  TRA     CASEOUT

      266    10506    2          CASE (309);                 /* KILL ALTVAR */

      267    10507    2             NONE = '0'B;

  10507  2 000531   200012 450100                    STZ     NONE,,AUTO

      268    10508    2             S_D.XSCH = '0'B;

  10508  2 000532   000100 100400                    MLR     fill='000'O
         2 000533   000002 000001 xsym               ADSC9   B_VECTNIL+2              cn=0,n=1
         2 000534   000751 000034                    ADSC9   489,,PR0                 cn=0,n=28
         2 000535   000715 710000 2                  TRA     CASEOUT

      269    10509    2          CASE (310);                   /* KILL ANLZ */

      270    10510    2             NONE = '0'B;
PL6.E3A0      #001=DDA$KILL File=DDA$KILL.:E05TSI                                TUE 07/29/97 13:32 Page:42

  10510  2 000536   200012 450100                    STZ     NONE,,AUTO

      271    10511    2             IF S_D.ANLZ

  10511  2 000537   004756 234100                    SZN     2542,,PR0
         2 000540   000545 605000 2                  TPL     s:10513

      272    10512    2             THEN CALL DUA$KILL_ANLZ ALTRET( ARET );

  10512  2 000541   000002 631400 xsym               EPPR1   B_VECTNIL+2
         2 000542   000000 701000 xent               TSX1    DUA$KILL_ANLZ
         2 000543   000564 702000 2                  TSX2    ARET
         2 000544   000715 710000 2                  TRA     CASEOUT

      273    10513    2             ELSE IF S_D.FPRG AND S_D.CURRENT_FPRG_CONTEXT$->FPRG$CONTEXT.FANLZ

  10513  2 000545   000101 234100                    SZN     65,,PR0
         2 000546   000562 605000 2                  TPL     s:10519
         2 000547   000102 473500                    LDP3    66,,PR0
         2 000550   300001 430100                    FSZN    1,,PR3
         2 000551   000562 605000 2                  TPL     s:10519

      274    10514    3                  THEN DO;

      275    10515    3                       CALL DFA$KILL_DELTA;

  10515  2 000552   000002 631400 xsym               EPPR1   B_VECTNIL+2
         2 000553   000000 701000 xent               TSX1    DFA$KILL_DELTA
         2 000554   000000 011000                    NOP     0

      276    10516    3                       CALL DDR$REPORT(11/*R_DELTA*/);

  10516  2 000555   000000 630400 3                  EPPR0   0
         2 000556   000017 631400 xsym               EPPR1   B_VECTNIL+15
         2 000557   000000 701000 xent               TSX1    DDR$REPORT
         2 000560   000000 011000                    NOP     0
PL6.E3A0      #001=DDA$KILL File=DDA$KILL.:E05TSI                                TUE 07/29/97 13:32 Page:43

      277    10517    3                     END;

  10517  2 000561   000715 710000 2                  TRA     CASEOUT

      278    10518    3                  ELSE DO;

      279    10519    3                       S_D.ERROR = 156; /* E@NOTANLZ */

  10519  2 000562   000234 235007                    LDA     156,DL
         2 000563   000013 755100                    STA     11,,PR0

  10519  2 000564                       ARET         null
      280    10520    3   ARET:               ;
      281    10521    3                       CALL DDE$ERROR;

  10521  2 000564   000002 631400 xsym               EPPR1   B_VECTNIL+2
         2 000565   000000 701000 xent               TSX1    DDE$ERROR
         2 000566   000000 011000                    NOP     0

      282    10522    3                     END;

  10522  2 000567   000715 710000 2                  TRA     CASEOUT

      283    10523    2          CASE (317);              /* KILL DELTA */

      284    10524    2             NONE = '0'B;

  10524  2 000570   200012 450100                    STZ     NONE,,AUTO

      285    10525    2             IF S_D.DO$ -> K$ILL.FPRG

  10525  2 000571   100002 234100                    SZN     2,,PR1
         2 000572   000635 605000 2                  TPL     s:10547

      286    10526    3             THEN DO;

PL6.E3A0      #001=DDA$KILL File=DDA$KILL.:E05TSI                                TUE 07/29/97 13:32 Page:44
      287    10527    3                  IF S_D.FPRG_CONTEXT$ = ADDR(NIL)

  10527  2 000573   000076 236100                    LDQ     62,,PR0
         2 000574   000001 116000 xsym               CMPQ    B_VECTNIL+1
         2 000575   000601 601000 2                  TNZ     s:10532

      288    10528    4                  THEN DO;

      289    10529    4                       S_D.ERROR = 278; /* E@NOFPRG */

  10529  2 000576   000426 235007                    LDA     278,DL
         2 000577   000013 755100                    STA     11,,PR0

      290    10530    4                       GOTO ERREPT;

  10530  2 000600   000737 710000 2                  TRA     ERREPT

      291    10531    4                     END;
      292    10532    3                  TFPRG$ = S_D.FPRG_CONTEXT$;

  10532  2 000601   200014 756100                    STQ     TFPRG$,,AUTO

      293    10533    4                  DO WHILE (SUBSTR(TFPRG$ -> FPRG$CONTEXT.RES, 0, TFPRG$ ->
             10533                           FPRG$CONTEXT.RES_SIZE )

  10533  2 000602   000614 710000 2                  TRA     s:10541

      294    10534    4                    ~= S_D.DO$ -> K$ILL.FPRG_RES);
      295    10535    4                       TFPRG$ = TFPRG$ -> FPRG$CONTEXT.NEXT$;

  10535  2 000603   200014 470500                    LDP0    TFPRG$,,AUTO
         2 000604   000000 236100                    LDQ     0,,PR0
         2 000605   200014 756100                    STQ     TFPRG$,,AUTO

      296    10536    4                       IF TFPRG$ = ADDR(NIL)

  10536  2 000606   000001 116000 xsym               CMPQ    B_VECTNIL+1
PL6.E3A0      #001=DDA$KILL File=DDA$KILL.:E05TSI                                TUE 07/29/97 13:32 Page:45
         2 000607   000614 601000 2                  TNZ     s:10541

      297    10537    5                       THEN DO;

      298    10538    5                            S_D.ERROR = 278; /* E@NOFPRG */

  10538  2 000610   000426 235007                    LDA     278,DL
         2 000611   000000 470400 xsym               LDP0    S_D$
         2 000612   000013 755100                    STA     11,,PR0

      299    10539    5                            GOTO ERREPT;

  10539  2 000613   000737 710000 2                  TRA     ERREPT

      300    10540    5                          END;
      301    10541    4                     END;

  10541  2 000614   200014 470500                    LDP0    TFPRG$,,AUTO
         2 000615   000004 720100                    LXL0    4,,PR0
         2 000616   000000 471400 xsym               LDP1    S_D$
         2 000617   100031 473500                    LDP3    25,,PR1
         2 000620   040100 106540                    CMPC    fill='040'O
         2 000621   000002 000010                    ADSC9   2,,PR0                   cn=0,n=*X0
         2 000622   300003 000010                    ADSC9   3,,PR3                   cn=0,n=8
         2 000623   000603 601000 2                  TNZ     s:10535

      302    10542    3                  S_D.CURRENT_FPRG_CONTEXT$ =TFPRG$;

  10542  2 000624   100102 756100                    STQ     66,,PR1

      303    10543    3                  CALL DFA$KILL_DELTA;

  10543  2 000625   000002 631400 xsym               EPPR1   B_VECTNIL+2
         2 000626   000000 701000 xent               TSX1    DFA$KILL_DELTA
         2 000627   000000 011000                    NOP     0

      304    10544    3                  CALL DDR$REPORT(11/*R_DELTA*/);
PL6.E3A0      #001=DDA$KILL File=DDA$KILL.:E05TSI                                TUE 07/29/97 13:32 Page:46

  10544  2 000630   000000 630400 3                  EPPR0   0
         2 000631   000017 631400 xsym               EPPR1   B_VECTNIL+15
         2 000632   000000 701000 xent               TSX1    DDR$REPORT
         2 000633   000000 011000                    NOP     0

      305    10545    3                END;

  10545  2 000634   000715 710000 2                  TRA     CASEOUT

      306    10546    3             ELSE DO;

      307    10547    3                  IF S_D.FPRG_CONTEXT$ ~= ADDR(NIL)

  10547  2 000635   000076 236100                    LDQ     62,,PR0
         2 000636   000001 116000 xsym               CMPQ    B_VECTNIL+1
         2 000637   000657 600000 2                  TZE     s:10557

      308    10548    4                  THEN DO;

      309    10549    4                       TFPRG$ = S_D.FPRG_CONTEXT$;

  10549  2 000640   200014 756100                    STQ     TFPRG$,,AUTO

      310    10550    5                       DO WHILE (TFPRG$ ~= ADDR(NIL));

  10550  2 000641   000655 710000 2                  TRA     s:10555

      311    10551    5                            PTFPRG$ = TFPRG$ -> FPRG$CONTEXT.NEXT$;

  10551  2 000642   200014 470500                    LDP0    TFPRG$,,AUTO
         2 000643   000000 236100                    LDQ     0,,PR0
         2 000644   200015 756100                    STQ     PTFPRG$,,AUTO

      312    10552    5                            S_D.CURRENT_FPRG_CONTEXT$ = TFPRG$;

  10552  2 000645   200014 236100                    LDQ     TFPRG$,,AUTO
PL6.E3A0      #001=DDA$KILL File=DDA$KILL.:E05TSI                                TUE 07/29/97 13:32 Page:47
         2 000646   000000 471400 xsym               LDP1    S_D$
         2 000647   100102 756100                    STQ     66,,PR1

      313    10553    5                            CALL DFA$KILL_DELTA;

  10553  2 000650   000002 631400 xsym               EPPR1   B_VECTNIL+2
         2 000651   000000 701000 xent               TSX1    DFA$KILL_DELTA
         2 000652   000000 011000                    NOP     0

      314    10554    5                            TFPRG$ = PTFPRG$;

  10554  2 000653   200015 236100                    LDQ     PTFPRG$,,AUTO
         2 000654   200014 756100                    STQ     TFPRG$,,AUTO

      315    10555    5                          END;

  10555  2 000655   000001 116000 xsym               CMPQ    B_VECTNIL+1
         2 000656   000642 601000 2                  TNZ     s:10551

      316    10556    4                     END;

      317    10557    3                  CALL DDT$TRACEOFF;

  10557  2 000657   000002 631400 xsym               EPPR1   B_VECTNIL+2
         2 000660   000000 701000 xent               TSX1    DDT$TRACEOFF
         2 000661   000000 011000                    NOP     0

      318    10558    3                  CALL DUA$ALIB( 3/*ALIB_DLIB*/ ) ALTRET( ERREPT );

  10558  2 000662   000001 630400 3                  EPPR0   1
         2 000663   000017 631400 xsym               EPPR1   B_VECTNIL+15
         2 000664   000000 701000 xent               TSX1    DUA$ALIB
         2 000665   000737 702000 2                  TSX2    ERREPT

      319    10559                       /* Will not return, it calls DUA$KILLDELTA, which calls M$DRTN */
      320    10560    3                END;

PL6.E3A0      #001=DDA$KILL File=DDA$KILL.:E05TSI                                TUE 07/29/97 13:32 Page:48
  10560  2 000666   000715 710000 2                  TRA     CASEOUT

      321    10561    2          CASE (314);                /* KILL PROTECT */

      322    10562    2             NONE = '0'B;

  10562  2 000667   200012 450100                    STZ     NONE,,AUTO

      323    10563    2             S_D.PROTECT = '0'B;

  10563  2 000670   005254 450100                    STZ     2732,,PR0
         2 000671   000715 710000 2                  TRA     CASEOUT

      324    10564    2          CASE (316);                /* KILL SYMBOLS */

      325    10565    2             IF D_XDELTA

  10565  2 000672   000000 234000 xsym               SZN     D_XDELTA
         2 000673   000675 605000 2                  TPL     s:10567

      326    10566    2             THEN D_SYMBOLS = '0'B;

  10566  2 000674   000000 450000 xsym               STZ     D_SYMBOLS

      327    10567    2             NONE = '0'B;

  10567  2 000675   200012 450100                    STZ     NONE,,AUTO
         2 000676   000715 710000 2                  TRA     CASEOUT

      328    10568    2          CASE (320);                  /* KILL CACHE */

      329    10569    2             S_D.L6_CACHE = '0'B;

  10569  2 000677   005245 450100                    STZ     2725,,PR0

      330    10570    2             NONE = '0'B;

PL6.E3A0      #001=DDA$KILL File=DDA$KILL.:E05TSI                                TUE 07/29/97 13:32 Page:49
  10570  2 000700   200012 450100                    STZ     NONE,,AUTO
         2 000701   000715 710000 2                  TRA     CASEOUT

      331    10571    2          CASE (321);           /* KILL INTERPRETIVE */

      332    10572    2             S_D.INTERPRETIVE = '0'B;

  10572  2 000702   005246 450100                    STZ     2726,,PR0

      333    10573    2             NONE = '0'B;

  10573  2 000703   200012 450100                    STZ     NONE,,AUTO
         2 000704   000715 710000 2                  TRA     CASEOUT

      334    10574    2          CASE (322);                 /* KILL STATUS */

      335    10575    2             S_D.STATUS = '0'B;

  10575  2 000705   006746 450100                    STZ     3558,,PR0

      336    10576    2             NONE = '0'B;

  10576  2 000706   200012 450100                    STZ     NONE,,AUTO
         2 000707   000715 710000 2                  TRA     CASEOUT

      337    10577    2          CASE(ELSE);                      /* WHAT'S THIS ? */

      338    10578    2             S_D.ERROR = 502;         /* E@DELBUG */

  10578  2 000710   000766 235007                    LDA     502,DL
         2 000711   000013 755100                    STA     11,,PR0

      339    10579    2             CALL DDE$ERROR;

  10579  2 000712   000002 631400 xsym               EPPR1   B_VECTNIL+2
         2 000713   000000 701000 xent               TSX1    DDE$ERROR
         2 000714   000000 011000                    NOP     0
PL6.E3A0      #001=DDA$KILL File=DDA$KILL.:E05TSI                                TUE 07/29/97 13:32 Page:50

      340    10580    2          END;

      341    10581    1   CASEOUT:
      342    10582    1        IF NONE

  10582  2 000715   200012 234100       CASEOUT      SZN     NONE,,AUTO
         2 000716   000736 605000 2                  TPL     s:10588

      343    10583    2        THEN DO;

      344    10584    2             S_D.OUTPUT = NONEMSG;

  10584  2 000717   000000 470400 xsym               LDP0    S_D$
         2 000720   040100 100400                    MLR     fill='040'O
         2 000721   000000 000004 0                  ADSC9   NONEMSG                  cn=0,n=4
         2 000722   005335 004000                    ADSC9   2781,,PR0                cn=0,n=2048

      345    10585    2             CALL DDQ$WRITE( ADDR( S_D.OUTPUT ), LENGTHC( NONEMSG ) );

  10585  2 000723   000000 236000 xsym               LDQ     S_D$
         2 000724   005335 036003                    ADLQ    2781,DU
         2 000725   200032 756100                    STQ     TEMP2+8,,AUTO
         2 000726   000002 236000 3                  LDQ     2
         2 000727   200035 756100                    STQ     TEMP2+11,,AUTO
         2 000730   200032 631500                    EPPR1   TEMP2+8,,AUTO
         2 000731   200034 451500                    STP1    TEMP2+10,,AUTO
         2 000732   200034 630500                    EPPR0   TEMP2+10,,AUTO
         2 000733   000020 631400 xsym               EPPR1   B_VECTNIL+16
         2 000734   000000 701000 xent               TSX1    DDQ$WRITE
         2 000735   000000 011000                    NOP     0

      346    10586    2           END;

      347    10587                                                /**/
      348    10588    1        RETURN;

PL6.E3A0      #001=DDA$KILL File=DDA$KILL.:E05TSI                                TUE 07/29/97 13:32 Page:51
  10588  2 000736   000000 702200 xent               TSX2  ! X66_ARET

  10582  2 000737                       ERREPT       null
      349    10589                                                /**/
      350    10590    1   ERREPT: ;
      351    10591    1        CALL DDE$ERROR;

  10591  2 000737   000002 631400 xsym               EPPR1   B_VECTNIL+2
         2 000740   000000 701000 xent               TSX1    DDE$ERROR
         2 000741   000000 011000                    NOP     0

      352    10592                                                /**/
      353    10593    1        RETURN;

  10593  2 000742   000000 702200 xent               TSX2  ! X66_ARET

      354    10594                                                /**/
      355    10595        %EJECT;
PL6.E3A0      #001=DDA$KILL File=DDA$KILL.:E05TSI                                TUE 07/29/97 13:32 Page:52
      356    10596                                                /**/
      357    10597    1   KILL_FIX: PROC;

  10597  2 000743   200030 741300       KILL_FIX     STX1  ! TEMP2+6,,AUTO

      358    10598                                                /**/
      359    10599    3        DO I = F_FROM TO F_TO;

  10599  2 000744   200004 235100                    LDA     F_FROM,,AUTO
         2 000745   200010 755100                    STA     I,,AUTO
         2 000746   001036 710000 2                  TRA     s:10621+3

      360    10600    3             CCMD = S_D.FIXCOM.CMD( I );

  10600  2 000747   200010 236100                    LDQ     I,,AUTO
         2 000750   000006 402007                    MPY     6,DL
         2 000751   000000 470400 xsym               LDP0    S_D$
         2 000752   001212 236106                    LDQ     650,QL,PR0
         2 000753   000033 772000                    QRL     27
         2 000754   200011 756100                    STQ     CCMD,,AUTO

      361    10601    3             IF CCMD ~= 0

  10601  2 000755   001033 600000 2                  TZE     s:10621

      362    10602    3             THEN IF CMD = CCMD OR CMD = 0

  10602  2 000756   000761 604000 2                  TMI     s:10602+3
         2 000757   200006 116100                    CMPQ    CMD,,AUTO
         2 000760   000763 600000 2                  TZE     s:10604
         2 000761   200006 235100                    LDA     CMD,,AUTO
         2 000762   001033 601000 2                  TNZ     s:10621

      363    10603    4                  THEN DO;

      364    10604    4                       NONE = '0'B;

PL6.E3A0      #001=DDA$KILL File=DDA$KILL.:E05TSI                                TUE 07/29/97 13:32 Page:53
  10604  2 000763   200012 450100                    STZ     NONE,,AUTO

      365    10605    4                       S_D.KILL1 = I;

  10605  2 000764   200010 235100                    LDA     I,,AUTO
         2 000765   000063 755100                    STA     51,,PR0

      366    10606    4                       IF NOT S_D.FIXCOM.FPRG(I)

  10606  2 000766   200010 236100                    LDQ     I,,AUTO
         2 000767   000006 402007                    MPY     6,DL
         2 000770   001212 236106                    LDQ     650,QL,PR0
         2 000771   000002 316003                    CANQ    2,DU
         2 000772   001010 601000 2                  TNZ     s:10617

      367    10607    5                       THEN DO;

      368    10608    5                            IF CCMD = 30 /* C_OA */

  10608  2 000773   200011 235100                    LDA     CCMD,,AUTO
         2 000774   000036 115007                    CMPA    30,DL
         2 000775   000777 601000 2                  TNZ     s:10610

      369    10609    5                            THEN S_D.ONABORT = 0;

  10609  2 000776   004744 450100                    STZ     2532,,PR0

      370    10610    5                            IF CCMD = 32 /* C_OE */

  10610  2 000777   000040 115007                    CMPA    32,DL
         2 001000   001002 601000 2                  TNZ     s:10612

      371    10611    5                            THEN S_D.ONEXIT = 0;

  10611  2 001001   004746 450100                    STZ     2534,,PR0

      372    10612    5                            IF CCMD = 53 /* C_ONCALLS */
PL6.E3A0      #001=DDA$KILL File=DDA$KILL.:E05TSI                                TUE 07/29/97 13:32 Page:54

  10612  2 001002   000065 115007                    CMPA    53,DL
         2 001003   001005 601000 2                  TNZ     s:10614

      373    10613    5                            THEN S_D.ONCALLS = 0;

  10613  2 001004   004745 450100                    STZ     2533,,PR0

      374    10614    5                            IF CCMD = 54 /* C_ONNODES */

  10614  2 001005   000066 115007                    CMPA    54,DL
         2 001006   001010 601000 2                  TNZ     s:10617

      375    10615    5                            THEN S_D.ONNODES = 0;

  10615  2 001007   004747 450100                    STZ     2535,,PR0

      376    10616    5                          END;

      377    10617    4                       IF S_D.FIXCOM.FPRG(I)

  10617  2 001010   200010 236100                    LDQ     I,,AUTO
         2 001011   000006 402007                    MPY     6,DL
         2 001012   001212 236106                    LDQ     650,QL,PR0
         2 001013   000002 316003                    CANQ    2,DU
         2 001014   001030 600000 2                  TZE     s:10619

      378    10618    4                       THEN CALL DFA$KILL1(WRITE, CCMD, '1'B);

  10618  2 001015   000003 236000 3                  LDQ     3
         2 001016   200034 756100                    STQ     TEMP2+10,,AUTO
         2 001017   200011 631500                    EPPR1   CCMD,,AUTO
         2 001020   200033 451500                    STP1    TEMP2+9,,AUTO
         2 001021   200013 633500                    EPPR3   WRITE,,AUTO
         2 001022   200032 453500                    STP3    TEMP2+8,,AUTO
         2 001023   200032 630500                    EPPR0   TEMP2+8,,AUTO
         2 001024   000021 631400 xsym               EPPR1   B_VECTNIL+17
PL6.E3A0      #001=DDA$KILL File=DDA$KILL.:E05TSI                                TUE 07/29/97 13:32 Page:55
         2 001025   000000 701000 xent               TSX1    DFA$KILL1
         2 001026   000000 011000                    NOP     0
         2 001027   001033 710000 2                  TRA     s:10621

      379    10619    4                       ELSE CALL DDA$KILL1;

  10619  2 001030   000002 631400 xsym               EPPR1   B_VECTNIL+2
         2 001031   000000 701000 xent               TSX1    DDA$KILL1
         2 001032   000000 011000                    NOP     0

      380    10620    4                     END;

      381    10621    3           END;

  10621  2 001033   200010 235100                    LDA     I,,AUTO
         2 001034   000001 035007                    ADLA    1,DL
         2 001035   200010 755100                    STA     I,,AUTO
         2 001036   200010 236100                    LDQ     I,,AUTO
         2 001037   001042 604000 2                  TMI     s:10622
         2 001040   200005 116100                    CMPQ    F_TO,,AUTO
         2 001041   000747 604400 2                  TMOZ    s:10600

      382    10622    2        IF S_D.DO$ -> K$ILL.TYPE = 280 AND S_D.FPRG_CONTEXT$ ~= ADDR(NIL)

  10622  2 001042   000000 470400 xsym               LDP0    S_D$
         2 001043   000031 471500                    LDP1    25,,PR0
         2 001044   100001 236100                    LDQ     1,,PR1
         2 001045   777000 376003                    ANQ     -512,DU
         2 001046   430000 116003                    CMPQ    -118784,DU
         2 001047   001124 601000 2                  TNZ     s:10640
         2 001050   000076 236100                    LDQ     62,,PR0
         2 001051   000001 116000 xsym               CMPQ    B_VECTNIL+1
         2 001052   001124 600000 2                  TZE     s:10640

      383    10623    3        THEN DO;

      384    10624    3             TFPRG$ = S_D.FPRG_CONTEXT$;
PL6.E3A0      #001=DDA$KILL File=DDA$KILL.:E05TSI                                TUE 07/29/97 13:32 Page:56

  10624  2 001053   200014 756100                    STQ     TFPRG$,,AUTO

      385    10625    4             DO WHILE (TFPRG$ ~= ADDR(NIL));

  10625  2 001054   001122 710000 2                  TRA     s:10637

      386    10626    4                  IF TFPRG$ -> FPRG$CONTEXT.STATE = %STOPPED OR

  10626  2 001055   200014 470500                    LDP0    TFPRG$,,AUTO
         2 001056   000001 236100                    LDQ     1,,PR0
         2 001057   000777 376003                    ANQ     511,DU
         2 001060   000002 116003                    CMPQ    2,DU
         2 001061   001064 600000 2                  TZE     s:10629
         2 001062   000004 116003                    CMPQ    4,DU
         2 001063   001117 601000 2                  TNZ     s:10636

      387    10627    4                    TFPRG$ -> FPRG$CONTEXT.STATE = %ATEXIT
      388    10628    5                  THEN DO;

      389    10629    5                       GD$MSG='0'B;

  10629  2 001064   000000 471400 xsym               LDP1    S_D_L6_MESSAGE$
         2 001065   003100 060400                    CSL     bolr='003'O
         2 001066   000002 000001 xsym               BDSC    B_VECTNIL+2              by=0,bit=0,n=1
         2 001067   100000 004720                    BDSC    0,,PR1                   by=0,bit=0,n=2512

      390    10630    5                       GD$MSG.FNC = %GD#RQSKILLATALL;

  10630  2 001070   100000 236100                    LDQ     0,,PR1
         2 001071   000004 376000 3                  ANQ     4
         2 001072   014000 276003                    ORQ     6144,DU
         2 001073   100000 756100                    STQ     0,,PR1

      391    10631    5                       CALL DFQ$WRITE_FD (TFPRG$) ALTRET(ERR);

  10631  2 001074   200014 630500                    EPPR0   TFPRG$,,AUTO
PL6.E3A0      #001=DDA$KILL File=DDA$KILL.:E05TSI                                TUE 07/29/97 13:32 Page:57
         2 001075   200032 450500                    STP0    TEMP2+8,,AUTO
         2 001076   200032 630500                    EPPR0   TEMP2+8,,AUTO
         2 001077   000017 631400 xsym               EPPR1   B_VECTNIL+15
         2 001100   000000 701000 xent               TSX1    DFQ$WRITE_FD
         2 001101   001126 702000 2                  TSX2    ERR

      392    10632    5                       CALL DFQ$READ_FD (TFPRG$, '0'B) ALTRET(ERR);

  10632  2 001102   000005 236000 3                  LDQ     5
         2 001103   200033 756100                    STQ     TEMP2+9,,AUTO
         2 001104   200014 630500                    EPPR0   TFPRG$,,AUTO
         2 001105   200032 450500                    STP0    TEMP2+8,,AUTO
         2 001106   200032 630500                    EPPR0   TEMP2+8,,AUTO
         2 001107   000020 631400 xsym               EPPR1   B_VECTNIL+16
         2 001110   000000 701000 xent               TSX1    DFQ$READ_FD
         2 001111   001126 702000 2                  TSX2    ERR

      393    10633    5                       IF GD$MSG.FNC ~= %GD#RSPACK

  10633  2 001112   000000 470400 xsym               LDP0    S_D_L6_MESSAGE$
         2 001113   000000 236100                    LDQ     0,,PR0
         2 001114   776000 376003                    ANQ     -1024,DU
         2 001115   106000 116003                    CMPQ    35840,DU
         2 001116   001126 601000 2                  TNZ     ERR

      394    10634    5                       THEN GOTO ERR;
      395    10635    5                     END;

      396    10636    4                  TFPRG$ = TFPRG$ -> FPRG$CONTEXT.NEXT$;

  10636  2 001117   200014 470500                    LDP0    TFPRG$,,AUTO
         2 001120   000000 236100                    LDQ     0,,PR0
         2 001121   200014 756100                    STQ     TFPRG$,,AUTO

      397    10637    4                END;

  10637  2 001122   000001 116000 xsym               CMPQ    B_VECTNIL+1
PL6.E3A0      #001=DDA$KILL File=DDA$KILL.:E05TSI                                TUE 07/29/97 13:32 Page:58
         2 001123   001055 601000 2                  TNZ     s:10626

      398    10638    3           END;

      399    10639                                                /**/
      400    10640    2        RETURN;

  10640  2 001124   200030 221300                    LDX1  ! TEMP2+6,,AUTO
         2 001125   000001 702211                    TSX2  ! 1,X1

  10636  2 001126                       ERR          null
      401    10641                                                /**/
      402    10642    2   ERR: ;
      403    10643    2        IF TFPRG$ -> FPRG$CONTEXT.XDELTA AND

  10643  2 001126   200014 470500                    LDP0    TFPRG$,,AUTO
         2 001127   000001 236100                    LDQ     1,,PR0
         2 001130   002000 316003                    CANQ    1024,DU
         2 001131   001147 600000 2                  TZE     s:10650
         2 001132   000000 471400 xsym               LDP1    S_D_L6_MESSAGE$
         2 001133   100000 236100                    LDQ     0,,PR1
         2 001134   776000 376003                    ANQ     -1024,DU
         2 001135   140000 116003                    CMPQ    49152,DU
         2 001136   001147 601000 2                  TNZ     s:10650

      404    10644    2          GD$MSG.FNC = %GD#RSPBADMSG
      405    10645    3        THEN DO;

      406    10646    3             S_D.ERROR = 330;         /* E@BADMSG */

  10646  2 001137   000512 235007                    LDA     330,DL
         2 001140   000000 473400 xsym               LDP3    S_D$
         2 001141   300013 755100                    STA     11,,PR3

      407    10647    3             CALL DDE$ERROR;

  10647  2 001142   000002 631400 xsym               EPPR1   B_VECTNIL+2
PL6.E3A0      #001=DDA$KILL File=DDA$KILL.:E05TSI                                TUE 07/29/97 13:32 Page:59
         2 001143   000000 701000 xent               TSX1    DDE$ERROR
         2 001144   000000 011000                    NOP     0

      408    10648    3             RETURN;

  10648  2 001145   200030 221300                    LDX1  ! TEMP2+6,,AUTO
         2 001146   000001 702211                    TSX2  ! 1,X1

      409    10649    3           END;
      410    10650    2        IF GD$MSG.FNC = %GD#RSPNAK

  10650  2 001147   000000 471400 xsym               LDP1    S_D_L6_MESSAGE$
         2 001150   100000 236100                    LDQ     0,,PR1
         2 001151   776000 376003                    ANQ     -1024,DU
         2 001152   150000 116003                    CMPQ    53248,DU
         2 001153   001226 601000 2                  TNZ     s:10665

      411    10651    3        THEN DO;

      412    10652    3             IF TFPRG$ -> FPRG$CONTEXT.XDELTA

  10652  2 001154   000001 236100                    LDQ     1,,PR0
         2 001155   002000 316003                    CANQ    1024,DU
         2 001156   001213 600000 2                  TZE     s:10661

      413    10653    4             THEN DO;

      414    10654    4                  TEMP1 = BITBIN(GD$MSG.ERROR_D.ERRCODE);

  10654  2 001157   100000 235100                    LDA     0,,PR1
         2 001160   100001 236100                    LDQ     1,,PR1
         2 001161   000030 773000                    LRL     24
         2 001162   000006 376000 3                  ANQ     6
         2 001163   200021 756100                    STQ     TEMP$,,AUTO

      415    10655    4                  TEMP2B.B1 = TEMP1B.B1;

PL6.E3A0      #001=DDA$KILL File=DDA$KILL.:E05TSI                                TUE 07/29/97 13:32 Page:60
  10655  2 001164   200021 236100                    LDQ     TEMP$,,AUTO
         2 001165   000003 736000                    QLS     3
         2 001166   200022 676100                    ERQ     TEMP2,,AUTO
         2 001167   377000 376003                    ANQ     130560,DU
         2 001170   200022 656100                    ERSQ    TEMP2,,AUTO

      416    10656    4                  TEMP2B.B2 = TEMP1B.B2;

  10656  2 001171   200021 236100                    LDQ     TEMP$,,AUTO
         2 001172   000002 736000                    QLS     2
         2 001173   200022 676100                    ERQ     TEMP2,,AUTO
         2 001174   000377 376003                    ANQ     255,DU
         2 001175   200022 656100                    ERSQ    TEMP2,,AUTO

      417    10657    4                  TEMP2B.B3 = TEMP1B.B3;

  10657  2 001176   200021 236100                    LDQ     TEMP$,,AUTO
         2 001177   000001 736000                    QLS     1
         2 001200   200022 676100                    ERQ     TEMP2,,AUTO
         2 001201   377000 376007                    ANQ     130560,DL
         2 001202   200022 656100                    ERSQ    TEMP2,,AUTO

      418    10658    4                  TEMP2B.B4 = TEMP1B.B4;

  10658  2 001203   200021 236100                    LDQ     TEMP$,,AUTO
         2 001204   200022 676100                    ERQ     TEMP2,,AUTO
         2 001205   000377 376007                    ANQ     255,DL
         2 001206   200022 656100                    ERSQ    TEMP2,,AUTO

      419    10659    4                  S_D.JDE = TEMP2;

  10659  2 001207   000000 473400 xsym               LDP3    S_D$
         2 001210   200022 235100                    LDA     TEMP2,,AUTO
         2 001211   304733 755100                    STA     2523,,PR3

      420    10660    4                END;

PL6.E3A0      #001=DDA$KILL File=DDA$KILL.:E05TSI                                TUE 07/29/97 13:32 Page:61
  10660  2 001212   001221 710000 2                  TRA     s:10662

      421    10661    3             ELSE S_D.JDE = BITBIN(GD$MSG_HOST.ERROR_D.ERRCODE);

  10661  2 001213   000000 473400 xsym               LDP3    S_D_HOST_MESSAGE$
         2 001214   300000 235100                    LDA     0,,PR3
         2 001215   300001 236100                    LDQ     1,,PR3
         2 001216   000022 773000                    LRL     18
         2 001217   000000 474400 xsym               LDP4    S_D$
         2 001220   404733 756100                    STQ     2523,,PR4

      422    10662    3             CALL DUE$GERRMSG;

  10662  2 001221   000002 631400 xsym               EPPR1   B_VECTNIL+2
         2 001222   000000 701000 xent               TSX1    DUE$GERRMSG
         2 001223   000000 011000                    NOP     0

      423    10663    3             RETURN;

  10663  2 001224   200030 221300                    LDX1  ! TEMP2+6,,AUTO
         2 001225   000001 702211                    TSX2  ! 1,X1

      424    10664    3           END;
      425    10665    2        S_D.ERROR_HICHAR = I;

  10665  2 001226   000000 473400 xsym               LDP3    S_D$
         2 001227   200010 235100                    LDA     I,,AUTO
         2 001230   304753 755100                    STA     2539,,PR3

      426    10666    2        S_D.ERROR = 289;      /* E@ERR_KILLFPRGAT */

  10666  2 001231   000441 236007                    LDQ     289,DL
         2 001232   300013 756100                    STQ     11,,PR3

      427    10667    2        CALL DDE$ERROR;

  10667  2 001233   000002 631400 xsym               EPPR1   B_VECTNIL+2
PL6.E3A0      #001=DDA$KILL File=DDA$KILL.:E05TSI                                TUE 07/29/97 13:32 Page:62
         2 001234   000000 701000 xent               TSX1    DDE$ERROR
         2 001235   000000 011000                    NOP     0

      428    10668    2        RETURN;

  10668  2 001236   200030 221300                    LDX1  ! TEMP2+6,,AUTO
         2 001237   000001 702211                    TSX2  ! 1,X1

NONEMSG
 Sect OctLoc
   0     000   116157 156145                                                    None

FPT_EOM
 Sect OctLoc
   0     002   000003 777640   000010 006000   000000 177640   000000 006014    ................
   0     006   000007 777640   000014 006000   000000 000000   000000 000000    ................
   0     012   001000 000000   000000 000000                                    ........

VLP_EOMTABLE
 Sect OctLoc
   0     014   010054 000057   000000 000000   000000 000000   000000 000000    .,./............
   0     020   010054 000057   000000 000000   000000 000000   000000 000000    .,./............

(unnamed)
 Sect OctLoc
   3     000   000015 006000   000005 006000   000006 006000   000030 006000    ................
   3     004   001777 777777   000002 006000   037777 777777                    ............
      429    10669    2   END KILL_FIX;
      430    10670                                                /**/
      431    10671    1   END DDA$KILL;

PL6.E3A0      #001=DDA$KILL File=DDA$KILL.:E05TSI                                TUE 07/29/97 13:32 Page:63
--  Include file information  --

   DD_SRTN_C.:E05TOU  is referenced.
   DD_ACODE_C.:E05TOU  is referenced.
   DD_ICODE_C.:E05TOU  is referenced.
   DD$DITEM.:E05TOU  cannot be made into a system file and is referenced.
   B$OBJECT_C.:E05TOU  is referenced.
   CP_6.:E05TOU  cannot be made into a system file and is referenced.
   DD_ERR_C.:E05TOU  is referenced.
   DD_PSUBS_C.:E05TOU  is referenced.
   DD_SUBS_C.:E05TOU  is referenced.
   DD_SD_M.:E05TOU  is referenced.
   XUH_MACRO_C.:E05TOU  is referenced.
   GD_EQUS_E.:E05TOU  is referenced.
   GD$MSG_M.:E05TOU  is referenced.
   DD$BASED.:E05TOU  is referenced.
   B$JIT_C.:E05TOU  was found in the system file and is never referenced.
   CP_6_C.:E05TOU  was found in the system file and is referenced.
      No diagnostics issued in procedure DDA$KILL.

   Procedure DDA$KILL requires 672 words for executable code.
   Procedure DDA$KILL requires 30 words of local(AUTO) storage.

    No errors detected in file DDA$KILL.:E05TSI    .
PL6.E3A0      #001=DDA$KILL File=DDA$KILL.:E05TSI                                TUE 07/29/97 13:32 Page:64
          *** CROSS REFERENCE LISTING ***
**     DENOTES     IDENTIFIER DEFINITION
<<                 IDENTIFIER'S VALUE SET
>>                 IDENTIFIER'S VALUE USED
<>                 IDENTIFIER SET AND/OR USED
--                 IDENTIFIER REFERENCED
PL6.E3A0      #001=DDA$KILL File=DDA$KILL.:E05TSI                                TUE 07/29/97 13:32 Page:65
          MINI XREF LISTING

ARET
     10519**LABEL   10512--CALLALT
CASEOUT
     10582**LABEL   10457--GOTO
CCMD
        24**DCL     10600<<ASSIGN  10601>>IF      10602>>IF      10608>>IF      10610>>IF      10612>>IF
     10614>>IF      10618<>CALL
CMD
        21**DCL     10367<<ASSIGN  10371<<ASSIGN  10395<<ASSIGN  10416<<ASSIGN  10419<<ASSIGN  10421<<ASSIGN
     10424<<ASSIGN  10427<<ASSIGN  10430<<ASSIGN  10432<<ASSIGN  10438<<ASSIGN  10602>>IF      10602>>IF
DDA$KDEF
      9647**DCL-ENT 10456--CALL
DDA$KILL1
      9644**DCL-ENT 10619--CALL
DDE$ERROR
      9645**DCL-ENT 10358--CALL    10459--CALL    10504--CALL    10521--CALL    10579--CALL    10591--CALL
     10647--CALL    10667--CALL
DDQ$WRITE
      9648**DCL-ENT 10585--CALL
DDR$REPORT
      9652**DCL-ENT 10516--CALL    10544--CALL
DDT$TRACEOFF
      9646**DCL-ENT 10402--CALL    10557--CALL
DEFI
        22**DCL     10379<<DOINDEX 10380>>IF      10382>>ASSIGN
DFA$KILL1
      9649**DCL-ENT 10618--CALL
DFA$KILL_DELTA
      9653**DCL-ENT 10515--CALL    10543--CALL    10553--CALL
DFA$TRACEOFF
      9651**DCL-ENT 10411--CALL
DFQ$READ_FD
PL6.E3A0      #001=DDA$KILL File=DDA$KILL.:E05TSI                                TUE 07/29/97 13:32 Page:66
      9654**DCL-ENT 10632--CALL
DFQ$WRITE_FD
      9655**DCL-ENT 10631--CALL
DUA$ALIB
      9639**DCL-ENT 10558--CALL
DUA$KILL_ANLZ
      9640**DCL-ENT 10512--CALL
DUA$KILL_RUM
      9641**DCL-ENT 10501--CALL
DUE$ERRMSG
      9642**DCL-ENT 10470--CALL
DUE$GERRMSG
      9643**DCL-ENT 10662--CALL
DX_DIC
      9638**DCL     10461<<ASSIGN
D_SYMBOLS
      9636**DCL     10566<<ASSIGN
D_XDELTA
      9635**DCL     10461>>IF      10465>>IF      10565>>IF
ERR IN PROCEDURE KILL_FIX
     10636**LABEL   10631--CALLALT 10632--CALLALT 10634--GOTO
ERREPT
     10582**LABEL   10377--GOTO    10444--GOTO    10453--GOTO    10478--GOTO    10530--GOTO    10539--GOTO
     10558--CALLALT
F$DCB.ACTPOS
      6112**DCL      6112--REDEF
F$DCB.ARS#
      6086**DCL      6086--REDEF
F$DCB.ATTR
      6105**DCL      6106--REDEF
F$DCB.BORROW
      6120**DCL      6120--REDEF    6120--REDEF    6120--REDEF
F$DCB.DCBNAME.L
      6134**DCL      6134--IMP-SIZ
F$DCB.EOMCHAR#
      6090**DCL      6090--REDEF
PL6.E3A0      #001=DDA$KILL File=DDA$KILL.:E05TSI                                TUE 07/29/97 13:32 Page:67
F$DCB.FLDID
      6115**DCL      6115--REDEF
F$DCB.FORM$
      6109**DCL      6109--REDEF
F$DCB.FSECT
      6125**DCL      6125--REDEF
F$DCB.FSN#
      6102**DCL      6102--REDEF    6102--REDEF    6103--REDEF
F$DCB.HEADER$
      6108**DCL      6108--REDEF
F$DCB.IXTNSIZE#
      6106**DCL      6106--REDEF
F$DCB.LASTSTA$
      6095**DCL      6095--REDEF
F$DCB.LVL
      6121**DCL      6121--REDEF
F$DCB.NAME#.C
      6096**DCL      6096--REDEF
F$DCB.NOEOF
      6118**DCL      6118--REDEF
F$DCB.NRECS#
      6107**DCL      6107--REDEF
F$DCB.NRECX
      6126**DCL      6126--REDEF
F$DCB.OHDR
      6118**DCL      6118--REDEF
F$DCB.ORG#
      6101**DCL      6101--REDEF
F$DCB.PRECNO
      6124**DCL      6124--REDEF
F$DCB.RCSZ
      6130**DCL      6130--REDEF
F$DCB.RES#
      6097**DCL      6097--REDEF
F$DCB.SETX
      6109**DCL      6109--REDEF
PL6.E3A0      #001=DDA$KILL File=DDA$KILL.:E05TSI                                TUE 07/29/97 13:32 Page:68
F$DCB.TAB$
      6109**DCL      6109--REDEF
F$DCB.TDA
      6123**DCL      6124--REDEF
F$DCB.WSN#
      6097**DCL      6097--REDEF
FPRG$CONTEXT.FANLZ
      1394**DCL     10513>>IF
FPRG$CONTEXT.INTERPRETIVE
      1385**DCL     10374>>IF      10441>>IF      10450>>IF      10475>>IF
FPRG$CONTEXT.NEXT$
      1381**DCL     10535>>ASSIGN  10551>>ASSIGN  10636>>ASSIGN
FPRG$CONTEXT.ONCALLS
      1429**DCL     10408>>IF
FPRG$CONTEXT.RES
      1400**DCL     10533>>DOWHILE
FPRG$CONTEXT.RES_SIZE
      1402**DCL     10533>>DOWHILE
FPRG$CONTEXT.STATE
      1395**DCL     10626>>IF      10626>>IF
FPRG$CONTEXT.STEP_MODE
      1419**DCL     10386<<ASSIGN
FPRG$CONTEXT.TR$INFO
      1430**DCL     10410<<ASSIGN
FPRG$CONTEXT.XDELTA
      1393**DCL     10643>>IF      10652>>IF
FPT_EOM
      9602**DCL     10468<>CALL
FPT_EOM.V
      9610**DCL      9604--DCLINIT
F_FROM
        19**DCL     10362<<ASSIGN  10436<<ASSIGN  10599>>DOINDEX
F_TO
        20**DCL     10363<<ASSIGN  10437<<ASSIGN  10599>>DOINDEX
GD$MSG
      1623**DCL     10629<<ASSIGN
PL6.E3A0      #001=DDA$KILL File=DDA$KILL.:E05TSI                                TUE 07/29/97 13:32 Page:69
GD$MSG.BRKRQS.IF$CONST.SIZE
      1674**DCL      1674--REDEF
GD$MSG.BRKRQS.IF$CONST.TEXT
      1674**DCL      1675--REDEF    1675--REDEF    1676--REDEF    1677--REDEF
GD$MSG.BRKRSP.BRK#
      1688**DCL      1688--REDEF
GD$MSG.BRKRSP.USER#
      1688**DCL      1688--REDEF
GD$MSG.ERROR_D.ERRCODE
      1629**DCL     10654>>ASSIGN
GD$MSG.FNC
      1623**DCL     10630<<ASSIGN  10633>>IF      10643>>IF      10650>>IF
GD$MSG.LETMEM_D.VALUE.SIZE
      1646**DCL      1646--REDEF
GD$MSG.LETMEM_D.VALUE.TEXT
      1647**DCL      1647--REDEF    1647--REDEF    1648--REDEF    1649--REDEF
GD$MSG.MESSAGE
      1628**DCL      1628--REDEF    1629--REDEF    1629--REDEF    1630--REDEF    1641--REDEF    1654--REDEF
      1659--REDEF    1666--REDEF    1682--REDEF    1687--REDEF    1693--REDEF    1694--REDEF    1723--REDEF
      1725--REDEF    1736--REDEF    1743--REDEF    1755--REDEF
GD$MSG.SUBFNC
      1623**DCL      1623--REDEF    1627--REDEF
GD$MSG.TSA.I
      1695**DCL      1695--REDEF
GD$MSG.TSA.S
      1697**DCL      1697--REDEF
GD$MSG.USERQS.ASDT$
      1723**DCL      1723--REDEF    1724--REDEF
GD$MSG_HOST.BRKRQS.IF$CONST.SIZE
      1830**DCL      1830--REDEF
GD$MSG_HOST.BRKRQS.IF$CONST.TEXT
      1830**DCL      1831--REDEF    1831--REDEF    1832--REDEF    1833--REDEF
GD$MSG_HOST.BRKRSP.BRK#
      1844**DCL      1844--REDEF
GD$MSG_HOST.BRKRSP.USER#
      1844**DCL      1844--REDEF
PL6.E3A0      #001=DDA$KILL File=DDA$KILL.:E05TSI                                TUE 07/29/97 13:32 Page:70
GD$MSG_HOST.ERROR_D.ERRCODE
      1785**DCL     10661>>ASSIGN
GD$MSG_HOST.LETMEM_D.VALUE.SIZE
      1802**DCL      1802--REDEF
GD$MSG_HOST.LETMEM_D.VALUE.TEXT
      1803**DCL      1803--REDEF    1803--REDEF    1804--REDEF    1805--REDEF
GD$MSG_HOST.MESSAGE
      1784**DCL      1784--REDEF    1785--REDEF    1785--REDEF    1786--REDEF    1797--REDEF    1810--REDEF
      1815--REDEF    1822--REDEF    1838--REDEF    1843--REDEF    1849--REDEF    1850--REDEF    1879--REDEF
      1881--REDEF    1892--REDEF    1899--REDEF    1911--REDEF
GD$MSG_HOST.SUBFNC
      1779**DCL      1779--REDEF    1783--REDEF
GD$MSG_HOST.TSA.I
      1851**DCL      1851--REDEF
GD$MSG_HOST.TSA.S
      1853**DCL      1853--REDEF
GD$MSG_HOST.USERQS.ASDT$
      1879**DCL      1879--REDEF    1880--REDEF
I
        23**DCL     10599<<DOINDEX 10600>>ASSIGN  10605>>ASSIGN  10606>>IF      10617>>IF      10665>>ASSIGN
K$ILL.FPRG
      1363**DCL     10525>>IF
K$ILL.FPRG_RES
      1365**DCL     10533>>DOWHILE
K$ILL.ID_FROM
      1358**DCL     10436>>ASSIGN  10481>>IF      10486>>IF
K$ILL.ID_TO
      1359**DCL     10437>>ASSIGN
K$ILL.TEXTC
      1366**DCL     10456--CALL
K$ILL.TYPE
      1357**DCL     10339>>ASSIGN  10622>>IF
KILL_FIX
     10597**PROC    10369--CALL    10372--CALL    10396--CALL    10417--CALL    10420--CALL    10422--CALL
     10425--CALL    10428--CALL    10431--CALL    10433--CALL    10439--CALL
M$EOM
PL6.E3A0      #001=DDA$KILL File=DDA$KILL.:E05TSI                                TUE 07/29/97 13:32 Page:71
      6032**DCL-ENT 10468--CALL
NOEOM
     10470**LABEL   10468--CALLALT
NONE
        25**DCL     10338<<ASSIGN  10381<<ASSIGN  10390<<ASSIGN  10393<<ASSIGN  10414<<ASSIGN  10448<<ASSIGN
     10455<<ASSIGN  10463<<ASSIGN  10473<<ASSIGN  10480<<ASSIGN  10491<<ASSIGN  10494<<ASSIGN  10497<<ASSIGN
     10499<<ASSIGN  10507<<ASSIGN  10510<<ASSIGN  10524<<ASSIGN  10562<<ASSIGN  10567<<ASSIGN  10570<<ASSIGN
     10573<<ASSIGN  10576<<ASSIGN  10582>>IF      10604<<ASSIGN
NONEMSG
      4854**DCL     10584>>ASSIGN  10585--CALL
NOSYM
     10459**LABEL   10456--CALLALT
PTFPRG$
        28**DCL     10551<<ASSIGN  10554>>ASSIGN
S_D.ANLZ
      4151**DCL     10340>>IF      10511>>IF
S_D.BYPASS
      3931**DCL     10446<<ASSIGN  10447>>ASSIGN
S_D.BYPASS_SAVE
      3639**DCL     10447<<ASSIGN
S_D.COPY
      4127**DCL     10490<<ASSIGN
S_D.CURRENT_CHANNEL
      4451**DCL      4453--REDEF
S_D.CURRENT_FPRG_CONTEXT$
      3651**DCL     10374>>IF      10386>>ASSIGN  10408>>IF      10410>>ASSIGN  10441>>IF      10450>>IF
     10475>>IF      10513>>IF      10542<<ASSIGN  10552<<ASSIGN
S_D.DEBUG
      4106**DCL     10462<<ASSIGN
S_D.DEBUGA
      3603**DCL      3605--REDEF
S_D.DO$
      3554**DCL     10339>>ASSIGN  10436>>ASSIGN  10437>>ASSIGN  10456>>CALL    10481>>IF      10486>>IF
     10525>>IF      10533>>DOWHILE 10622>>IF
S_D.ECHO
      4129**DCL     10493<<ASSIGN
PL6.E3A0      #001=DDA$KILL File=DDA$KILL.:E05TSI                                TUE 07/29/97 13:32 Page:72
S_D.EFMT_DEFAULT
      4119**DCL     10484<<ASSIGN  10487<<ASSIGN
S_D.EIS
      4561**DCL      4590--REDEF
S_D.EOM
      4143**DCL     10467<<ASSIGN
S_D.ERROR
      3532**DCL     10357<<ASSIGN  10376<<ASSIGN  10443<<ASSIGN  10452<<ASSIGN  10477<<ASSIGN  10503<<ASSIGN
     10519<<ASSIGN  10529<<ASSIGN  10538<<ASSIGN  10578<<ASSIGN  10646<<ASSIGN  10666<<ASSIGN
S_D.ERROR_HICHAR
      4145**DCL     10665<<ASSIGN
S_D.FIXCOM.CMD
      3959**DCL     10600>>ASSIGN
S_D.FIXCOM.FPRG
      3964**DCL     10606>>IF      10617>>IF
S_D.FIXLAST
      3595**DCL     10363>>ASSIGN
S_D.FMT_DEFAULT
      3787**DCL     10483<<ASSIGN  10488<<ASSIGN
S_D.FPRG
      3649**DCL     10374>>IF      10441>>IF      10450>>IF      10475>>IF      10513>>IF
S_D.FPRG_CONTEXT$
      3643**DCL     10527>>IF      10532>>ASSIGN  10547>>IF      10549>>ASSIGN  10622>>IF      10624>>ASSIGN
S_D.HOST_MESSAGE_BUF_REMOTE
      4494**DCL      4495--REDEF    4509--REDEF
S_D.INTERPRETIVE
      4348**DCL     10572<<ASSIGN
S_D.JDE
      4108**DCL      4109--REDEF   10659<<ASSIGN  10661<<ASSIGN
S_D.KILL1
      3621**DCL     10605<<ASSIGN
S_D.L$.VALUE
      3661**DCL      3667--REDEF    3675--REDEF    3678--REDEF    3681--REDEF    3684--REDEF
S_D.L$.VALUE.L
      3662**DCL      3663--REDEF    3664--REDEF
S_D.L6_CACHE
PL6.E3A0      #001=DDA$KILL File=DDA$KILL.:E05TSI                                TUE 07/29/97 13:32 Page:73
      4346**DCL     10569<<ASSIGN
S_D.L6_MESSAGE_BUF
      4515**DCL      4517--REDEF
S_D.ONABORT
      4131**DCL     10609<<ASSIGN
S_D.ONCALLS
      4133**DCL     10400>>IF      10613<<ASSIGN
S_D.ONEXIT
      4135**DCL     10611<<ASSIGN
S_D.ONE_TO_TWO.EXEC_DOMAIN
      4526**DCL     10385>>IF      10398>>IF
S_D.ONNODES
      4137**DCL     10615<<ASSIGN
S_D.OUTPUT
      4481**DCL      4483--REDEF   10584<<ASSIGN  10585--CALL
S_D.PROTECT
      4358**DCL     10563<<ASSIGN
S_D.REMOTE_MSG.FNCC
      4500**DCL      4501--REDEF
S_D.REMOTE_MSG.STXC
      4496**DCL      4497--REDEF
S_D.REMOTE_MSG.SUBFNCC
      4504**DCL      4505--REDEF
S_D.RUM
      4149**DCL     10340>>IF      10500>>IF
S_D.S$TEP.MODE
      4429**DCL     10388<<ASSIGN  10389<<ASSIGN
S_D.SAD
      4360**DCL     10496<<ASSIGN
S_D.SCHEMA
      3601**DCL     10392<<ASSIGN
S_D.STATUS
      4603**DCL     10575<<ASSIGN
S_D.SV
      3560**DCL      3581--REDEF
S_D.SYNTAX_DEFAULT
PL6.E3A0      #001=DDA$KILL File=DDA$KILL.:E05TSI                                TUE 07/29/97 13:32 Page:74
      4356**DCL     10387>>IF
S_D.T$T
      4062**DCL     10404<<ASSIGN
S_D.TR$INFO
      3983**DCL     10403<<ASSIGN
S_D.UD.TEXTSZ
      3706**DCL     10380>>IF      10382<<ASSIGN
S_D.XSCH
      3837**DCL     10508<<ASSIGN
S_D$
      4812**DCL      3508--IMP-PTR 10339>>ASSIGN  10340>>IF      10340>>IF      10357>>ASSIGN  10363>>ASSIGN
     10374>>IF      10374>>IF      10376>>ASSIGN  10380>>IF      10382>>ASSIGN  10385>>IF      10386>>ASSIGN
     10387>>IF      10388>>ASSIGN  10389>>ASSIGN  10392>>ASSIGN  10398>>IF      10400>>IF      10403>>ASSIGN
     10404>>ASSIGN  10408>>IF      10410>>ASSIGN  10436>>ASSIGN  10437>>ASSIGN  10441>>IF      10441>>IF
     10443>>ASSIGN  10446>>ASSIGN  10447>>ASSIGN  10447>>ASSIGN  10450>>IF      10450>>IF      10452>>ASSIGN
     10456>>CALL    10462>>ASSIGN  10467>>ASSIGN  10475>>IF      10475>>IF      10477>>ASSIGN  10481>>IF
     10483>>ASSIGN  10484>>ASSIGN  10486>>IF      10487>>ASSIGN  10488>>ASSIGN  10490>>ASSIGN  10493>>ASSIGN
     10496>>ASSIGN  10500>>IF      10503>>ASSIGN  10508>>ASSIGN  10511>>IF      10513>>IF      10513>>IF
     10519>>ASSIGN  10525>>IF      10527>>IF      10529>>ASSIGN  10532>>ASSIGN  10533>>DOWHILE 10538>>ASSIGN
     10542>>ASSIGN  10547>>IF      10549>>ASSIGN  10552>>ASSIGN  10563>>ASSIGN  10569>>ASSIGN  10572>>ASSIGN
     10575>>ASSIGN  10578>>ASSIGN  10584>>ASSIGN  10585>>CALL    10600>>ASSIGN  10605>>ASSIGN  10606>>IF
     10609>>ASSIGN  10611>>ASSIGN  10613>>ASSIGN  10615>>ASSIGN  10617>>IF      10622>>IF      10622>>IF
     10624>>ASSIGN  10646>>ASSIGN  10659>>ASSIGN  10661>>ASSIGN  10665>>ASSIGN  10666>>ASSIGN
S_D_HOST_MESSAGE$
      4848**DCL      1779--IMP-PTR 10661>>ASSIGN
S_D_L6_MESSAGE$
      4849**DCL      1623--IMP-PTR 10629>>ASSIGN  10630>>ASSIGN  10633>>IF      10643>>IF      10650>>IF
     10654>>ASSIGN
TEMP$
        31**DCL        32--REDEF      33--REDEF
TEMP1
        32**DCL     10654<<ASSIGN
TEMP1B.B1
        35**DCL     10655>>ASSIGN
TEMP1B.B2
        36**DCL     10656>>ASSIGN
PL6.E3A0      #001=DDA$KILL File=DDA$KILL.:E05TSI                                TUE 07/29/97 13:32 Page:75
TEMP1B.B3
        37**DCL     10657>>ASSIGN
TEMP1B.B4
        38**DCL     10658>>ASSIGN
TEMP2
        39**DCL        40--REDEF   10659>>ASSIGN
TEMP2B.B1
        42**DCL     10655<<ASSIGN
TEMP2B.B2
        44**DCL     10656<<ASSIGN
TEMP2B.B3
        46**DCL     10657<<ASSIGN
TEMP2B.B4
        48**DCL     10658<<ASSIGN
TEXT$C.SIZE
      1376**DCL      1377--IMP-SIZ
TFPRG$
        27**DCL     10532<<ASSIGN  10533>>DOWHILE 10533>>DOWHILE 10535<<ASSIGN  10535>>ASSIGN  10536>>IF
     10542>>ASSIGN  10549<<ASSIGN  10550>>DOWHILE 10551>>ASSIGN  10552>>ASSIGN  10554<<ASSIGN  10624<<ASSIGN
     10625>>DOWHILE 10626>>IF      10626>>IF      10631<>CALL    10632<>CALL    10636<<ASSIGN  10636>>ASSIGN
     10643>>IF      10652>>IF
TYPE
        18**DCL     10339<<ASSIGN  10340>>IF      10340>>IF      10340>>IF      10340>>IF      10340>>IF
     10340>>IF      10340>>IF      10340>>IF      10340>>IF      10340>>IF      10340>>IF      10340>>IF
     10340>>IF      10340>>IF      10340>>IF      10365>>DOCASE
VLP_EOMTABLE
      9633**DCL      9608--DCLINIT
WRITE
        26**DCL     10364<<ASSIGN  10368<<ASSIGN  10618<>CALL
PL6.E3A0      #001=DDA$KILL File=DDA$KILL.:E05TSI                                TUE 07/29/97 13:32 Page:76
              *** CROSS REFERENCE LISTING ***
    **     DENOTES     IDENTIFIER DEFINITION
    <<                 IDENTIFIER'S VALUE SET
    >>                 IDENTIFIER'S VALUE USED
    <>                 IDENTIFIER SET AND/OR USED
    --                 IDENTIFIER REFERENCED
PL6.E3A0      #001=DDA$KILL File=DDA$KILL.:E05TSI                                TUE 07/29/97 13:32 Page:77
              MINI UREF LISTING

DDA$KILL      16**PROC
DD_XOU$    9637**DCL
DFA$KILL_FPRG    9650**DCL-ENT
M$ACCT    6024**DCL-ENT
M$ACTIVATE    6027**DCL-ENT
M$ALIB    6020**DCL-ENT
M$ASUSER    6022**DCL-ENT
M$ATTACH    6029**DCL-ENT
M$BADPP    6047**DCL-ENT
M$CGCTL    6028**DCL-ENT
M$CGINFO    6028**DCL-ENT
M$CHECK    6009**DCL-ENT
M$CHGUNIT    6067**DCL-ENT
M$CLOSE    6007**DCL-ENT
M$CLRSTK    6065**DCL-ENT
M$CMDVAR    6076**DCL-ENT
M$CONFIG    6037**DCL-ENT
M$CORRES    6012**DCL-ENT
M$CPEXIT    6021**DCL-ENT
M$CVM    6045**DCL-ENT
M$CVOL    6010**DCL-ENT
M$DCLFLD    6037**DCL-ENT
M$DEACTIVATE    6027**DCL-ENT
M$DELREC    6009**DCL-ENT
M$DEQ    6074**DCL-ENT
M$DETACH    6029**DCL-ENT
M$DEVICE    6011**DCL-ENT
M$DISPLAY    6074**DCL-ENT
M$DISPRES    6014**DCL-ENT
M$DLIB    6020**DCL-ENT
M$DRIBBLE    6037**DCL-ENT
M$DRTN    6065**DCL-ENT
PL6.E3A0      #001=DDA$KILL File=DDA$KILL.:E05TSI                                TUE 07/29/97 13:32 Page:78
M$DSUSER    6022**DCL-ENT
M$ENQ    6073**DCL-ENT
M$ERASE    6038**DCL-ENT
M$ERR    6019**DCL-ENT
M$ERRMSG    6070**DCL-ENT
M$EVENT    6062**DCL-ENT
M$EXHUME    6071**DCL-ENT
M$EXIT    6019**DCL-ENT
M$EXTEND    6011**DCL-ENT
M$FDP    6043**DCL-ENT
M$FDS    6042**DCL-ENT
M$FEBOOT    6035**DCL-ENT
M$FECTL    6036**DCL-ENT
M$FEDUMP    6035**DCL-ENT
M$FID    6070**DCL-ENT
M$FINDPROC    6024**DCL-ENT
M$FSUSER    6022**DCL-ENT
M$FVP    6044**DCL-ENT
M$FWCG    6028**DCL-ENT
M$GBPL    6048**DCL-ENT
M$GDDL    6044**DCL-ENT
M$GDP    6043**DCL-ENT
M$GDS    6042**DCL-ENT
M$GETDCB    6013**DCL-ENT
M$GETMOUSE    6053**DCL-ENT
M$GETPM    6054**DCL-ENT
M$GJOB    6072**DCL-ENT
M$GLINEATTR    6032**DCL-ENT
M$GOODPP    6047**DCL-ENT
M$GPLATEN    6040**DCL-ENT
M$GPROMPT    6039**DCL-ENT
M$GTRMATTR    6033**DCL-ENT
M$GTRMCTL    6031**DCL-ENT
M$GTRMTAB    6034**DCL-ENT
M$GVP    6043**DCL-ENT
M$HELP    6070**DCL-ENT
PL6.E3A0      #001=DDA$KILL File=DDA$KILL.:E05TSI                                TUE 07/29/97 13:32 Page:79
M$INT    6062**DCL-ENT
M$INTRTN    6023**DCL-ENT
M$IOQ    6058**DCL-ENT
M$JOBSTATS    6072**DCL-ENT
M$KEYIN    6012**DCL-ENT
M$LDEV    6007**DCL-ENT
M$LDTRC    6020**DCL-ENT
M$LIMIT    6013**DCL-ENT
M$LINES    6012**DCL-ENT
M$LINK    6019**DCL-ENT
M$MADMUCK    6015**DCL-ENT
M$MAKUSER    6046**DCL-ENT
M$MBS    6014**DCL-ENT
M$MDFFLD    6038**DCL-ENT
M$MERC    6063**DCL-ENT
M$MERCS    6064**DCL-ENT
M$MIRROR    6058**DCL-ENT
M$MONINFO    6075**DCL-ENT
M$MPL    6048**DCL-ENT
M$NODEINFO    6039**DCL-ENT
M$NXTUSR    6073**DCL-ENT
M$OCMSG    6071**DCL-ENT
M$OLAY    6019**DCL-ENT
M$OPEN    6007**DCL-ENT
M$PAS    6048**DCL-ENT
M$PATHCON    6071**DCL-ENT
M$PDS    6042**DCL-ENT
M$PFIL    6009**DCL-ENT
M$PLATEN    6033**DCL-ENT
M$PRECORD    6011**DCL-ENT
M$PROCNAME    6024**DCL-ENT
M$PROFILE    6035**DCL-ENT
M$PROMPT    6031**DCL-ENT
M$RACST    6015**DCL-ENT
M$RDSYSLOG    6056**DCL-ENT
M$READ    6008**DCL-ENT
PL6.E3A0      #001=DDA$KILL File=DDA$KILL.:E05TSI                                TUE 07/29/97 13:32 Page:80
M$RELDCB    6013**DCL-ENT
M$RELRES    6014**DCL-ENT
M$RELSTARF    6016**DCL-ENT
M$REM    6016**DCL-ENT
M$RENV    6063**DCL-ENT
M$REQUIRE    6015**DCL-ENT
M$RETRY    6064**DCL-ENT
M$RETRYS    6064**DCL-ENT
M$REW    6010**DCL-ENT
M$RLSFLD    6038**DCL-ENT
M$RPRIV    6066**DCL-ENT
M$RSPP    6045**DCL-ENT
M$RSWITCH    6067**DCL-ENT
M$RUE    6073**DCL-ENT
M$SAD    6046**DCL-ENT
M$SAVE    6022**DCL-ENT
M$SCON    6023**DCL-ENT
M$SCREECH    6021**DCL-ENT
M$SENV    6063**DCL-ENT
M$SETFMA    6007**DCL-ENT
M$SETFP    6036**DCL-ENT
M$SINPUT    6034**DCL-ENT
M$SLCFLD    6039**DCL-ENT
M$SMOUSE    6053**DCL-ENT
M$SMPRT    6045**DCL-ENT
M$SPRIV    6066**DCL-ENT
M$SSC    6046**DCL-ENT
M$SSWITCH    6066**DCL-ENT
M$STATE    6075**DCL-ENT
M$STD    6047**DCL-ENT
M$STIMER    6061**DCL-ENT
M$STLPP    6044**DCL-ENT
M$STRAP    6061**DCL-ENT
M$STRMATTR    6033**DCL-ENT
M$STRMCTL    6031**DCL-ENT
M$STRMTAB    6034**DCL-ENT
PL6.E3A0      #001=DDA$KILL File=DDA$KILL.:E05TSI                                TUE 07/29/97 13:32 Page:81
M$SYMBIO    6072**DCL-ENT
M$SYSCON    6058**DCL-ENT
M$SYSID    6076**DCL-ENT
M$TDCLOSE    6057**DCL-ENT
M$TDIO    6057**DCL-ENT
M$TDOPEN    6056**DCL-ENT
M$TDREQCPU    6057**DCL-ENT
M$TEMPWROC    6051**DCL-ENT
M$TIME    6074**DCL-ENT
M$TRAP    6061**DCL-ENT
M$TRMISC    6036**DCL-ENT
M$TRMPRG    6032**DCL-ENT
M$TRTN    6065**DCL-ENT
M$TRUNC    6008**DCL-ENT
M$TTIMER    6061**DCL-ENT
M$UC    6031**DCL
M$UMPL    6048**DCL-ENT
M$UNFID    6070**DCL-ENT
M$UNLATCH    6027**DCL-ENT
M$UNSHARE    6024**DCL-ENT
M$USRFIELD    6067**DCL-ENT
M$VIRTUAL    6042**DCL-ENT
M$WAIT    6065**DCL-ENT
M$WEOF    6010**DCL-ENT
M$WRITE    6008**DCL-ENT
M$WRSYSLOG    6056**DCL-ENT
M$XCON    6062**DCL-ENT
M$XCONRTN    6023**DCL-ENT
M$XEQTIME    6075**DCL-ENT
M$XFLUSH    6016**DCL-ENT
M$XMOUSE    6053**DCL-ENT
M$XXX    6019**DCL-ENT
M$YC    6021**DCL-ENT
RES      29**DCL
RES_SIZE      30**DCL
SDD$    9760**DCL
PL6.E3A0      #001=DDA$KILL File=DDA$KILL.:E05TSI                                TUE 07/29/97 13:32 Page:82
SDD_L6$    9762**DCL
S_D_ACCESS$    4827**DCL
S_D_ANLZ$    4829**DCL
S_D_ASTACKOFF$    4828**DCL
S_D_BREAK$    4830**DCL
S_D_DO_SCAN$    4831**DCL
S_D_ERROR$    4832**DCL
S_D_FAULTCMD$$    4833**DCL
S_D_FAULTINS$$    4834**DCL
S_D_GOIC$    4835**DCL
S_D_GO_MODE$    4836**DCL
S_D_HW_PTB_UNITS$    4852**DCL
S_D_HW_RES_MEM$    4850**DCL
S_D_HW_WSQ0PT$    4851**DCL
S_D_IPRFLT$    4838**DCL
S_D_IXFIX$    4837**DCL
S_D_REM_ACCESS$    4839**DCL
S_D_REM_DISKBOOT$    4841**DCL
S_D_REM_DO_SCAN$    4840**DCL
S_D_RETURNN$    4842**DCL
S_D_SAD$    4843**DCL
S_D_SAVEIC$    4844**DCL
S_D_SEG$    4826**DCL
S_D_TCB$$    4845**DCL
S_D_UREG$$    4846**DCL
S_D_USS$$    4847**DCL
ZITEM$    9761**DCL
ZITEM_L6$    9763**DCL
