VERSION E05

PL6.E3A0      #001=DDA$NAME File=DDA$NAME.:E05TSI                                TUE 07/29/97 13:34 Page:1
        1        1        /*M* DDA$NAME NAME DO ROUTINE */
        2        2        /*T***********************************************************/
        3        3        /*T*                                                         */
        4        4        /*T* Copyright (c) Bull HN Information Systems Inc., 1997    */
        5        5        /*T*                                                         */
        6        6        /*T***********************************************************/
        7        7        /*X* DMR,PLM=5,IND=5,CSU=3,EXM=0,ECU=3,MOC,DCI=5,CRT=5 */
        8        8        %SET LISTSUB='1'B;
        9        9        /*D*  NAME:  DDA$NAME
       10       10              CALL:  CALL DDA$NAME
       11       11              INPUT:  S_D.DO$ POINTS TO THE NAME FRAME
       12       12              DESCRIPTION:  DDA$NAME IS CALLED BY DDA$DO.
       13       13                 If we are NAMing ENTDEFS, then go through all EDEF records
       14       14                 and report the ones that match our string.
       15       15                 If we are NAMing VARIABLES, then go through all VREBL records
       16       16                 and if we have a wildcard, then only report level <= 1
       17       17                 variables, else we will report all sublevels of the variable.
       18       18        */
       19       19                                                /**/
       20       20        DDA$NAME: PROC ALTRET;
       21       21
       22       22    1   DCL VX UBIN;
       23       23    1   DCL NP# UBIN;
       24       24    1   DCL VLEND UBIN;
       25       25    1   DCL T$ PTR;
       26       26    1   DCL VL$ PTR;
       27       27    1   DCL LB$ PTR;
       28       28    1   DCL VAL SBIN;
       29       29    1   DCL LEN SBIN;
       30       30    1   DCL DDR$BINTXT ENTRY(4);
       31       31    1   DCL CHAR16 CHAR(16);
       32       32
       33       33    1   DCL LVL UBIN;
       34       34    1   DCL NONE BIT(1) ALIGNED;
       35       35    1   DCL UNMATCHED_OR_WILD BIT(1) ALIGNED;
       36       36    1   DCL C_OFF SBIN;
       37       37    1   DCL B_OFF SBIN;
PL6.E3A0      #001=DDA$NAME File=DDA$NAME.:E05TSI                                TUE 07/29/97 13:34 Page:2
       38       38
       39       39    1   DCL D_SYMBOLS BIT(1) ALIGNED SYMREF;
       40       40
       41       41        %INCLUDE XUH_MACRO_C;
       42      125        %INCLUDE DD_SD_M;
       43     1461        %S_D;
       44     2779
       45     2780        %INCLUDE DD$DITEM;
       12+    2883             %LIST;
       13+    2884    1        DCL SDD$ PTR;
       14+    2885    1        DCL ZITEM$ PTR;
       15+    2886    1        DCL SDD_L6$ PTR;
       16+    2887    1        DCL ZITEM_L6$ PTR;
       46     3461        %INCLUDE DD$BASED;
       47     4764        %NAME$CMD;
       48     4778
       49     4779        %INCLUDE B$OBJECT_C;
       50     8209        %B$EDEF;
       51     8279        %B$DNAME;
       52     8298        %B$VREBL (STCLASS="BASED(VL$)");
       53     8462        %B$LOGBLK (STCLASS="BASED(LB$)");
       54     8493        %VREBLSUBS;
       55     8501        %VREBL_DATATYPES;
       56     8576    1   DCL TEDEF$ PTR;
       57     8577    1   DCL NAME$ PTR;
       58     8578    1   DCL 1 B$TEXTH BASED,
       59     8579    1         2 L UBIN HALF UNAL,
       60     8580    1         2 C CHAR(B$TEXTH.L) UNAL;
       61     8581    1   DCL VFC_BEFORE CHAR(4) ALIGNED;         /* must be right before OUTBUF */
       62     8582    1   DCL OUTBUF CHAR(80) CALIGNED;
       63     8583    1   DCL 1 ENTDEF REDEF OUTBUF CALIGNED,
       64     8584    1         2 LOCATION CHAR(7),
       65     8585    1         2 * CHAR(1),
       66     8586    1         2 CTYPE CHAR(5),
       67     8587    1         2 * CHAR(3),
       68     8588    1         2 PRIMARY CHAR(3),
       69     8589    1         2 * CHAR(4),
PL6.E3A0      #001=DDA$NAME File=DDA$NAME.:E05TSI                                TUE 07/29/97 13:34 Page:3
       70     8590    1         2 ARET CHAR(3),
       71     8591    1         2 * CHAR(5),
       72     8592    1         2 NUM CHAR(2),
       73     8593    1         2 * CHAR(3),
       74     8594    1         2 NAME CHAR(44);
       75     8595    1   DCL 1 VARIABLE REDEF OUTBUF CALIGNED,
       76     8596    1         2 MODIFIER CHAR(10),
       77     8597    1         2 WLOCATION CHAR(7),
       78     8598    1         2 CLOCATION CHAR(2),
       79     8599    1         2 BLOCATION CHAR(3),
       80     8600    1         2 * CHAR(2),
       81     8601    1         2 EXTRA CHAR(56);
       82     8602    1   DCL CHAR2 CHAR(2);
       83     8603    1   DCL I SBIN;
       84     8604    1   DCL ISADDR UBIN;
       85     8605    1   DCL POS SBIN;
       86     8606    1   DCL NY(0:1) CHAR(3) CONSTANT INIT('No ','Yes');
       87     8607    1   DCL CSTS(0:15) CHAR(5) CONSTANT INIT('Std  ','NStd ','Main ','Async','Func ',
       88     8608    1                                   'Std  ','NStd ','Main ','Async','Func ',
       89     8609    1                                   '*BUG*'*3,'GCOS '*2,'NCall');
       90     8610    1   DCL ADDRS(0:15) CHAR(10) CONSTANT INIT
       91     8611    1   ( '          ', '          ', '   AUTO$ +', '  BASED$ +',
       92     8612    1     '    DCB$ +', '  PARAM$ +', '   CONST -', ' SPARAM$ +',
       93     8613    1     'AREADEF$ +', 'VIRTDESC @', '          ', '          ',
       94     8614    1     '          ', '          ', '          ', '          ');
       95     8615    1   DCL ADDROFF(0:15) CHAR(4) CONSTANT INIT
       96     8616    1   ( '-0  ', '-1  ', '-2  ', '-3  ', '-4  ', '-5  ', '-6  ', '-7  ',
       97     8617    1     '-8  ', '-9  ', '-10 ', '-11 ', '-12 ', '-13 ', '-14 ', '-15 ');
       98     8618
       99     8619    1   DCL DDB$BREAK ENTRY ALTRET;
      100     8620    1   DCL DDF$VREBL_# ENTRY(2) ALTRET;
      101     8621    1   DCL DDF$DBG_# ENTRY(2) ALTRET;
      102     8622    1   DCL DDQ$WRITE ENTRY(2);
      103     8623
      104     8624    1        NONE = '1'B;
      105     8625    1        IF NOT S_D.DO$->NAME$CMD.ENTDEFS THEN GOTO NAME_VARS;
      106     8626        %EJECT;
PL6.E3A0      #001=DDA$NAME File=DDA$NAME.:E05TSI                                TUE 07/29/97 13:34 Page:4
      107     8627    1        IF S_D.EDEF$=ADDR(NIL) OR S_D.EDEF$=S_D.EDEF_END$ OR NOT D_SYMBOLS THEN GOTO
              8627                 RETN;
      108     8628    1        TEDEF$ = S_D.EDEF$;
      109     8629    2        DO WHILE (TEDEF$<=S_D.EDEF_END$);
      110     8630    2             CALL DDB$BREAK ALTRET (RETN);
      111     8631    2             IF TEDEF$->B$EDEF.LFLAGS.SOURCE~=0 THEN GOTO NEXT_EDEF;
      112     8632    2             NAME$ = PINCRW(S_D.DNAME$,TEDEF$->B$EDEF.NPOINTER);
      113     8633    2             CALL WILDCMPR (NAME$->B$TEXTH, S_D.DO$->NAME$CMD.TEXTC) ALTRET (NEXT_EDEF)
              8633                      ;
      114     8634    2             IF NONE
      115     8635    3             THEN DO;
      116     8636    3                  OUTBUF = ' LOC    CTYPE PRIMARY ALTRET NPARAM NAME';
      117     8637    3                  CALL DDQ$WRITE (ADDR(OUTBUF), 40);
      118     8638    3                  OUTBUF = ' ';
      119     8639    3                  NONE = '0'B;
      120     8640    3                END;
      121     8641    2             ENTDEF.NAME = NAME$->B$TEXTH.C;
      122     8642    2             ISADDR = TEDEF$->B$EDEF.ISADDR;
      123     8643    2             CALL CONVERT_TO_WADDR (ISADDR, ENTDEF.LOCATION);
      124     8644    2             ENTDEF.CTYPE = CSTS(TEDEF$->B$EDEF.CST);
      125     8645    2             ENTDEF.PRIMARY = NY(BITBIN(TEDEF$->B$EDEF.PRI));
      126     8646    2             ENTDEF.ARET = NY(BITBIN(TEDEF$->B$EDEF.ALT));
      127     8647    2             CALL BINCHAR (ENTDEF.NUM, TEDEF$->B$EDEF.NPARAM);
      128     8648    2             IF TEDEF$->B$EDEF.NPARAM < 10
      129     8649    2             THEN
      130     8650    2                  SUBSTR (ENTDEF.NUM, 0, 1) = ' ';
      131     8651    2             CALL DDQ$WRITE (ADDR(ENTDEF),LENGTHC(ENTDEF));
      132     8652    2   NEXT_EDEF: TEDEF$ = PINCRW (TEDEF$, SIZEW(B$EDEF));
      133     8653    2           END;
      134     8654    1        GOTO RETN;
      135     8655        %EJECT;
PL6.E3A0      #001=DDA$NAME File=DDA$NAME.:E05TSI                                TUE 07/29/97 13:34 Page:5
      136     8656    1   NAME_VARS:;                             /* NAME VARS */
      137     8657    1        IF S_D.SIM_UPDATE OR NOT S_D.QSCH.OK THEN GOTO RETN;
      138     8658    1        LB$ = PINCRW(S_D.LB$, S_D.QSCH.LB#*SIZEW(B$LOGBLK));
      139     8659    1        VX = B$LOGBLK.VAOFFST / SIZEW(B$VREBL);
      140     8660    1        VLEND = B$LOGBLK.VASIZE + VX - 1;
      141     8661    2        DO WHILE (VX<=VLEND);
      142     8662    2             CALL DDB$BREAK ALTRET (RETN);
      143     8663    2             CALL DDF$VREBL_# (VX,VL$) ALTRET (RETN);
      144     8664    2             IF B$VREBL.DATATYP=%NULL_DATATYPE THEN GOTO DONT_PRINT_VAR;
      145     8665    2             LVL = B$VREBL.LEVEL;
      146     8666    2             NP# = B$VREBL.NPOINTER;
      147     8667    2             CALL DDF$DBG_# (NP#, NAME$) ALTRET (BUG);
      148     8668    2             IF LVL = 1
      149     8669    2             THEN
      150     8670    2                  CALL WILDCMPR (NAME$->B$DNAME, S_D.DO$->NAME$CMD.TEXTC) ALTRET (
              8670                           DONT_PRINT_VAR);
      151     8671    2             ELSE                          /* LVL > 1 */
      152     8672    2                  IF UNMATCHED_OR_WILD THEN GOTO DONT_PRINT_VAR;
      153     8673    2             OUTBUF = ' ';
      154     8674    2             IF S_D.ONE_TO_TWO.EXEC_DOMAIN = %HOST
      155     8675    3             THEN DO;
      156     8676    3                  ISADDR = B$VREBL.ADR.W;
      157     8677    3                  C_OFF = B$VREBL.ADR.C;
      158     8678    3                  B_OFF = B$VREBL.ADR.B;
      159     8679    3                END;
      160     8680    3             ELSE DO;
      161     8681    3                  ISADDR = B$VREBL.ADR6.W;
      162     8682    3                  C_OFF = B$VREBL.ADR6.C;
      163     8683    3                  B_OFF = B$VREBL.ADR6.B;
      164     8684    3                END;
      165     8685    2             CALL CONVERT_TO_WADDR (ISADDR, VARIABLE.WLOCATION);
      166     8686    2             IF C_OFF~=0 OR B_OFF~=0
      167     8687    2             THEN
      168     8688    2                  VARIABLE.CLOCATION = ADDROFF (C_OFF);
      169     8689    2             IF B_OFF~=0
      170     8690    2             THEN
      171     8691    2                  VARIABLE.BLOCATION = ADDROFF (B_OFF);
PL6.E3A0      #001=DDA$NAME File=DDA$NAME.:E05TSI                                TUE 07/29/97 13:34 Page:6
      172     8692    2             VARIABLE.MODIFIER = ADDRS (B$VREBL.ADDRTYP);
      173     8693    2             CHAR2 = ' ';
      174     8694    2             IF B$VREBL.DATATYP = %STRUCTURE_DATATYPE
      175     8695    2               OR B$VREBL.DATATYP = %ASTRUCTURE_DATATYPE
      176     8696    2               OR LVL > 1
      177     8697    3             THEN DO;
      178     8698    3                  CALL BINCHAR (CHAR2, LVL);
      179     8699    3                  IF LVL <= 9
      180     8700    3                  THEN
      181     8701    3                       SUBSTR (CHAR2,0,1) = ' ';
      182     8702    3                END;
      183     8703    2             POS = (LVL-1)*2;
      184     8704    2             CALL ADD_STR (CHAR2, 2);
      185     8705    2             CALL ADD_STR (NAME$->B$DNAME.TEXT, LENGTHC(NAME$->B$DNAME.TEXT));
      186     8706    2             IF POS < 24 THEN POS = 24;
      187     8707    2             IF B$VREBL.ARRAYTYP > 0
      188     8708    3             THEN DO;
      189     8709    3                  I = B$VREBL.DIMS;
      190     8710    4                  DO CASE (B$VREBL.ARRAYTYP);
      191     8711    4                    CASE (%VECTOR0_ARRAY); CALL ADD_STR ('(0:',3); I=I-1;
      192     8712    4                    CASE (%VECTOR1_ARRAY); CALL ADD_STR ('(1:',3);
      193     8713    4                    CASE (%VIRTUAL_ARRAY,
      194     8714    4                         %ADJUSTABLE_ARRAY,
      195     8715    4                         %REAL_ARRAY); CALL ADD_STR ('(#DIMS=',7);
      196     8716    4                    END;
      197     8717    3                  CALL DDR$BINTXT (ADDR(CHAR16), I, %UINT_FMT, LEN);
      198     8718    3                  CALL ADD_STR_NS (CHAR16, LEN);
      199     8719    3                  CALL ADD_STR_NS (')',1);
      200     8720    3                END;                       /* if B$VREBL.ARRAYTYP > 0 */
      201     8721    3             DO CASE (B$VREBL.DATATYP);
      202     8722    3               CASE (%SBIN_DATATYPE); CALL ADD_STR_N_LEN ('SBIN', 4);
      203     8723    3               CASE (%UBIN_DATATYPE); CALL ADD_STR_N_LEN ('UBIN', 4);
      204     8724    3               CASE (%POINTER_DATATYPE); CALL ADD_STR ('PTR', 3);
      205     8725    3               CASE (%BIT_DATATYPE,
      206     8726    3                    %VBIT_DATATYPE); CALL ADD_STR_N_LEN ('BIT', 3);
      207     8727    3               CASE (%CHAR_DATATYPE,
      208     8728    3                    %VCHAR_DATATYPE); CALL ADD_STR_N_LEN ('CHAR', 4);
PL6.E3A0      #001=DDA$NAME File=DDA$NAME.:E05TSI                                TUE 07/29/97 13:34 Page:7
      209     8729    3               CASE (%VECTOR_DATATYPE); CALL ADD_STR ('VECTOR', 6);
      210     8730    3               CASE (%EPTR_DATATYPE); CALL ADD_STR ('EPTR', 4);
      211     8731    3               CASE (%REMEMBER_DATATYPE);CALL ADD_STR ('REMEMBER', 8);
      212     8732    3               END;                        /* do case (VREBL.DATATYPE) */
      213     8733    3             DO CASE (B$VREBL.ALIGNTYP);
      214     8734    3               CASE (0); CALL ADD_STR ('DALIGNED',8);
      215     8735    3               CASE (2); CALL ADD_STR ('HALIGNED',8);
      216     8736    3               CASE (3); CALL ADD_STR ('CALIGNED',8);
      217     8737    3               CASE (4); CALL ADD_STR ('UNAL',4);
      218     8738    3               END;                        /* do case */
      219     8739    2             CALL DDQ$WRITE (ADDR(VARIABLE), LENGTHC(VARIABLE)-LENGTHC(VARIABLE.EXTRA)+
              8739                      POS);
      220     8740    2             NONE='0'B;
      221     8741    2   DONT_PRINT_VAR:;
      222     8742    2             VX = VX + 1;
      223     8743    2             IF B$VREBL.ARRAYTYP = %VIRTUAL_ARRAY
      224     8744    2               OR B$VREBL.ARRAYTYP = %ADJUSTABLE_ARRAY
      225     8745    2             THEN
      226     8746    2                  VX = VX + (B$VREBL.DIMS+6)/5;
      227     8747    2             IF B$VREBL.ARRAYTYP = %REAL_ARRAY
      228     8748    2             THEN
      229     8749    2                  VX = VX + (B$VREBL.DIMS+13)/10;
      230     8750    2             IF B$VREBL.DATATYP = %ENUMTYPE_DATATYPE
      231     8751    2               OR B$VREBL.DATATYP = %SET_DATATYPE
      232     8752    2             THEN
      233     8753    2                  VX = VX + 1;
      234     8754    2           END;
      235     8755
      236     8756    1   RETN:
      237     8757    1        IF NONE
      238     8758    2        THEN DO;
      239     8759    2             SUBSTR (OUTBUF,0,4) = 'None';
      240     8760    2             CALL DDQ$WRITE (ADDR(OUTBUF), 4);
      241     8761    2           END;
      242     8762    1        RETURN;
      243     8763
      244     8764    1   BUG: ALTRETURN;
PL6.E3A0      #001=DDA$NAME File=DDA$NAME.:E05TSI                                TUE 07/29/97 13:34 Page:8
      245     8765
      246     8766        %EJECT;
PL6.E3A0      #001=DDA$NAME File=DDA$NAME.:E05TSI                                TUE 07/29/97 13:34 Page:9
      247     8767    1   ADD_STR: PROC (STR, STRL);
      248     8768
      249     8769    2   DCL STR CHAR(STRL);
      250     8770    2   DCL STRL SBIN;
      251     8771
      252     8772    2        IF POS<LENGTHC(VARIABLE.EXTRA) THEN POS = POS+1; /* insert a space */
      253     8773
      254     8774    2   ADD_STR_NS: ENTRY (STR, STRL);
      255     8775
      256     8776    2        IF POS+STRL<=LENGTHC(VARIABLE.EXTRA)
      257     8777    3        THEN DO;
      258     8778    3             SUBSTR (VARIABLE.EXTRA, POS, STRL) = STR;
      259     8779    3             POS = POS + STRL;
      260     8780    3           END;
      261     8781    2        ELSE IF POS<LENGTHC(VARIABLE.EXTRA)
      262     8782    3             THEN DO;
      263     8783    3                  SUBSTR (VARIABLE.EXTRA, POS) = STR;
      264     8784    3                  POS = LENGTHC(VARIABLE.EXTRA);
      265     8785    3                END;
      266     8786    2   END;
      267     8787
      268     8788    1   ADD_STR_N_LEN: PROC (STR, STRL);
      269     8789
      270     8790    2   DCL STR CHAR(STRL);
      271     8791    2   DCL STRL SBIN;
      272     8792
      273     8793    2        CALL ADD_STR (STR, STRL);
      274     8794    2        IF NOT B$VREBL.SZTYP
      275     8795    3        THEN DO;
      276     8796    3             CALL ADD_STR_NS ('(', 1);
      277     8797    3             VAL = B$VREBL.LOGSIZ;
      278     8798    3             CALL DDR$BINTXT (ADDR(CHAR16), VAL, %UINT_FMT, LEN);
      279     8799    3             CALL ADD_STR_NS (CHAR16, LEN);
      280     8800    3             CALL ADD_STR_NS (')', 1);
      281     8801    3           END;
      282     8802    3        ELSE DO;
      283     8803    3             CALL ADD_STR_NS ('(*)', 3);
PL6.E3A0      #001=DDA$NAME File=DDA$NAME.:E05TSI                                TUE 07/29/97 13:34 Page:10
      284     8804    3           END;
      285     8805
      286     8806    2   END;
      287     8807        %EJECT;
PL6.E3A0      #001=DDA$NAME File=DDA$NAME.:E05TSI                                TUE 07/29/97 13:34 Page:11
      288     8808    1   CONVERT_TO_WADDR: PROC (VALUE, STR);
      289     8809    2   DCL VALUE SBIN;
      290     8810    2   DCL STR CHAR(7) CALIGNED;
      291     8811
      292     8812        %INCLUDE B_MICROPS_C;
      293     8984    2   DCL TRIM_MOP(0:4) BIT(9) UNAL CONSTANT INIT (%LTE5,'056'O,%MFLC5,%ENF10,%MVC1);
      294     8985
      295     8986    2   DCL DDR$BINOCT ENTRY(2);
      296     8987    2   DCL DFR$BINHEX ENTRY(4);
      297     8988
      298     8989    2        IF S_D.ONE_TO_TWO.EXEC_DOMAIN = %HOST
      299     8990    3        THEN DO;
      300     8991    3             CALL DDR$BINOCT (CHAR16, VALUE);
      301     8992    3             CALL EDITSTR (STR,,, TRIM_MOP, SUBSTR (CHAR16,6,6));
      302     8993    3           END;
      303     8994    3        ELSE DO;
      304     8995    3             CALL DFR$BINHEX (VALUE, CHAR16);
      305     8996    3             CALL EDITSTR (STR,,, TRIM_MOP, SUBSTR (CHAR16,2,6));
      306     8997    3           END;
      307     8998
      308     8999    2        RETURN;
      309     9000
      310     9001    2   END CONVERT_TO_WADDR;
      311     9002        %EJECT;
PL6.E3A0      #001=DDA$NAME File=DDA$NAME.:E05TSI                                TUE 07/29/97 13:34 Page:12
      312     9003        /*D*   NAME:   WILDCMPR
      313     9004               CALL:   CALL WILDCMPR(str_textc, wild_textc) ALTRET (unequal);
      314     9005               INTERFACE: none.
      315     9006               INPUT:  STR_TEXTC - a textc string of the string to match.
      316     9007                       WILD_TEXTC - the wildcarded textc string to match.
      317     9008               OUTPUT: none.
      318     9009               DESCRIPTION: The specified character string is checked to see
      319     9010                       if it matches the wildcarded string - ('?' matched).
      320     9011                       If so return, else altreturn.
      321     9012        */
      322     9013        /****************************************************************************/
      323     9014    1   WILDCMPR: PROC(SRC_STR,WILD_STR) ALTRET;
      324     9015                   %INCLUDE B_MACROS_C;
      325     9126
      326     9127        %B$DNAME (NAME=SRC_STR, STCLASS=);
      327     9146        %TEXTC (NAME=WILD_STR, STCLASS=);
      328     9151
      329     9152    2   DCL SRCL SBIN;
      330     9153    2   DCL WILDL SBIN;
      331     9154    2   DCL SRC$ PTR;
      332     9155    2   DCL WILD$ PTR;
      333     9156    2   DCL SRC CHAR(SRCL) BASED (SRC$);
      334     9157    2   DCL WILD CHAR(WILDL) BASED (WILD$);
      335     9158
      336     9159    2   DCL QI SBIN;
      337     9160    2   DCL SI SBIN;
      338     9161    2   DCL WL SBIN;
      339     9162
      340     9163    2        UNMATCHED_OR_WILD = '0'B;
      341     9164    2        SRCL = SRC_STR.COUNT;
      342     9165    2        WILDL = WILD_STR.SIZ;
      343     9166    2        SRC$ = ADDR (SRC_STR.TEXT);
      344     9167    2        WILD$ = ADDR (WILD_STR.TEXT);
      345     9168
      346     9169    2        CALL INDEX (QI, '?', WILD)
      347     9170    3        WHENALTRETURN DO;
      348     9171    3             IF SRC ~= WILD THEN GOTO FAIL;
PL6.E3A0      #001=DDA$NAME File=DDA$NAME.:E05TSI                                TUE 07/29/97 13:34 Page:13
      349     9172    3             RETURN;
      350     9173    3           END;
      351     9174    2        UNMATCHED_OR_WILD = '1'B;          /* for the WILD part */
      352     9175    2        IF (QI>0) AND (SUBSTR(SRC,0,QI) ~= SUBSTR(WILD,0,QI)) THEN GOTO FAIL;
      353     9176    2        SI = QI;
      354     9177    3        DO WHILE (QI < WILDL);
      355     9178    3             QI = QI+1;                    /* SKIP OVER TO '?' */
      356     9179    3             IF QI = WILDL THEN RETURN;    /* '?' IN LAST POSITION */
      357     9180    3             CALL INDEX (WL, '?', SUBSTR (WILD, QI))
      358     9181    4             WHENRETURN DO;                /* a '?' still exists */
      359     9182    4                  IF (WL > 0)
      360     9183    5                  THEN DO;
      361     9184    5                       CALL INDEX (SI, SUBSTR (WILD,QI,WL), SRC, SI) ALTRET (FAIL);
      362     9185    5                       SI = SI+WL;
      363     9186    5                       QI = QI+WL;
      364     9187    5                     END;
      365     9188    4                END;
      366     9189    4             WHENALTRETURN DO;             /* no more '?'s in string */
      367     9190    4                  IF (WL > 0) AND
      368     9191    4                    ((WL > SRCL - SI) OR
      369     9192    4                    (SUBSTR (SRC, SRCL - WL, WL) ~= SUBSTR (WILD, QI, WL)))
      370     9193    4                  THEN
      371     9194    4                       GOTO FAIL;
      372     9195    4                  RETURN;
      373     9196    4                END;
      374     9197    3           END;                            /* DO WHILE (QI < WILDL); */
      375     9198    2        RETURN;
      376     9199
      377     9200    2   FAIL:
      378     9201    2        UNMATCHED_OR_WILD = '1'B;          /* for the UNMATCHED part */
      379     9202    2        ALTRETURN;
      380     9203
      381     9204    2   END WILDCMPR;
      382     9205
      383     9206    1   END DDA$NAME;

PL6.E3A0      #001=DDA$NAME File=DDA$NAME.:E05TSI                                TUE 07/29/97 13:34 Page:14
--  Include file information  --

   B_MACROS_C.:E05TOU  is referenced.
   B_MICROPS_C.:E05TOU  is referenced.
   B$OBJECT_C.:E05TOU  is referenced.
   DD$BASED.:E05TOU  is referenced.
   DD_SRTN_C.:E05TOU  is referenced.
   DD_ACODE_C.:E05TOU  is referenced.
   DD_ICODE_C.:E05TOU  is referenced.
   DD$DITEM.:E05TOU  cannot be made into a system file and is referenced.
   DD_SD_M.:E05TOU  is referenced.
   XUH_MACRO_C.:E05TOU  is referenced.
   B$JIT_C.:E05TOU  was found in the system file and is never referenced.
   CP_6_C.:E05TOU  was found in the system file and is never referenced.
      No diagnostics issued in procedure DDA$NAME.

   Procedure DDA$NAME requires 828 words for executable code.
   Procedure DDA$NAME requires 70 words of local(AUTO) storage.

    No errors detected in file DDA$NAME.:E05TSI    .

PL6.E3A0      #001=DDA$NAME File=DDA$NAME.:E05TSI                                TUE 07/29/97 13:34 Page:15

 Object Unit name= DDA$NAME                                   File name= DDA$NAME.:E05TOU
 UTS= JUL 29 '97 13:34:38.28 TUE                              Compiler= PL-6/E31         Sev=      00
 SharedLib= :SHARED_SYSTEM                                    Alt SharedLib=


    ****  Control sections  ****

 Sect   Type Bound  Init  Size OctSiz  Section name(segment info)
    0  RoData even  UTS    113    161  DDA$NAME
    1   Proc  even  none   828   1474  DDA$NAME
    2  RoData even  none    33     41  DDA$NAME

    ****  Entry defs  ****

                              Check   Calling
                             calling  sequence
  Sect OctLoc Primary Altret sequence   type   Parms  Name
     1      0   yes    yes     yes      Std        0  DDA$NAME

  ****  Entry refs  ****

         Check        Calling
        calling       sequence
Altret sequence SRef   type   Args  Name
 yes     yes           Std       0 DDB$BREAK
         yes           Std       2 DDQ$WRITE
 yes     yes           Std       2 DDF$VREBL_#
 yes     yes           Std       2 DDF$DBG_#
         yes           Std       4 DDR$BINTXT
         yes           Std       2 DDR$BINOCT
         yes           Std       4 DFR$BINHEX
                       nStd      0 X66_AUTO_0
                       Std       0 B_CONSPOOL_D
                       nStd      0 X66_ARET
                       nStd      0 X66_AALT
                       nStd      0 X66_INDEX
PL6.E3A0      #001=DDA$NAME File=DDA$NAME.:E05TSI                                TUE 07/29/97 13:34 Page:16

  ****  Data refs  ****

  Flags:  r = read only, s = secondary
Flgs Name                             Flgs Name                             Flgs Name
     D_SYMBOLS                        r    S_D$                                  B_VECTNIL

  ****  Segment refs  ****

  Flags:  r = read only, s = secondary
Flgs Name                             Flgs Name                             Flgs Name
     ISSID
PL6.E3A0      #001=DDA$NAME File=DDA$NAME.:E05TSI                                TUE 07/29/97 13:34 Page:17


        1        1        /*M* DDA$NAME NAME DO ROUTINE */
        2        2        /*T***********************************************************/
        3        3        /*T*                                                         */
        4        4        /*T* Copyright (c) Bull HN Information Systems Inc., 1997    */
        5        5        /*T*                                                         */
        6        6        /*T***********************************************************/
        7        7        /*X* DMR,PLM=5,IND=5,CSU=3,EXM=0,ECU=3,MOC,DCI=5,CRT=5 */
        8        8        %SET LISTSUB='1'B;
        9        9        /*D*  NAME:  DDA$NAME
       10       10              CALL:  CALL DDA$NAME
       11       11              INPUT:  S_D.DO$ POINTS TO THE NAME FRAME
       12       12              DESCRIPTION:  DDA$NAME IS CALLED BY DDA$DO.
       13       13                 If we are NAMing ENTDEFS, then go through all EDEF records
       14       14                 and report the ones that match our string.
       15       15                 If we are NAMing VARIABLES, then go through all VREBL records
       16       16                 and if we have a wildcard, then only report level <= 1
       17       17                 variables, else we will report all sublevels of the variable.
       18       18        */
       19       19                                                /**/
       20       20        DDA$NAME: PROC ALTRET;

     20  1 000000   000000 700200 xent  DDA$NAME     TSX0  ! X66_AUTO_0
         1 000001   000106 000000                    ZERO    70,0

       21       21
       22       22    1   DCL VX UBIN;
       23       23    1   DCL NP# UBIN;
       24       24    1   DCL VLEND UBIN;
       25       25    1   DCL T$ PTR;
       26       26    1   DCL VL$ PTR;
       27       27    1   DCL LB$ PTR;
       28       28    1   DCL VAL SBIN;
       29       29    1   DCL LEN SBIN;
       30       30    1   DCL DDR$BINTXT ENTRY(4);
       31       31    1   DCL CHAR16 CHAR(16);
       32       32
PL6.E3A0      #001=DDA$NAME File=DDA$NAME.:E05TSI                                TUE 07/29/97 13:34 Page:18
       33       33    1   DCL LVL UBIN;
       34       34    1   DCL NONE BIT(1) ALIGNED;
       35       35    1   DCL UNMATCHED_OR_WILD BIT(1) ALIGNED;
       36       36    1   DCL C_OFF SBIN;
       37       37    1   DCL B_OFF SBIN;
       38       38
       39       39    1   DCL D_SYMBOLS BIT(1) ALIGNED SYMREF;
       40       40
       41       41        %INCLUDE XUH_MACRO_C;
       42      125        %INCLUDE DD_SD_M;
       43     1461        %S_D;
       44     2779
       45     2780        %INCLUDE DD$DITEM;
       12+    2883             %LIST;
       13+    2884    1        DCL SDD$ PTR;
       14+    2885    1        DCL ZITEM$ PTR;
       15+    2886    1        DCL SDD_L6$ PTR;
       16+    2887    1        DCL ZITEM_L6$ PTR;
       46     3461        %INCLUDE DD$BASED;
       47     4764        %NAME$CMD;
       48     4778
       49     4779        %INCLUDE B$OBJECT_C;
       50     8209        %B$EDEF;
       51     8279        %B$DNAME;
       52     8298        %B$VREBL (STCLASS="BASED(VL$)");
       53     8462        %B$LOGBLK (STCLASS="BASED(LB$)");
       54     8493        %VREBLSUBS;
       55     8501        %VREBL_DATATYPES;
       56     8576    1   DCL TEDEF$ PTR;
       57     8577    1   DCL NAME$ PTR;
       58     8578    1   DCL 1 B$TEXTH BASED,
       59     8579    1         2 L UBIN HALF UNAL,
       60     8580    1         2 C CHAR(B$TEXTH.L) UNAL;
       61     8581    1   DCL VFC_BEFORE CHAR(4) ALIGNED;         /* must be right before OUTBUF */
       62     8582    1   DCL OUTBUF CHAR(80) CALIGNED;
       63     8583    1   DCL 1 ENTDEF REDEF OUTBUF CALIGNED,
       64     8584    1         2 LOCATION CHAR(7),
PL6.E3A0      #001=DDA$NAME File=DDA$NAME.:E05TSI                                TUE 07/29/97 13:34 Page:19
       65     8585    1         2 * CHAR(1),
       66     8586    1         2 CTYPE CHAR(5),
       67     8587    1         2 * CHAR(3),
       68     8588    1         2 PRIMARY CHAR(3),
       69     8589    1         2 * CHAR(4),
       70     8590    1         2 ARET CHAR(3),
       71     8591    1         2 * CHAR(5),
       72     8592    1         2 NUM CHAR(2),
       73     8593    1         2 * CHAR(3),
       74     8594    1         2 NAME CHAR(44);
       75     8595    1   DCL 1 VARIABLE REDEF OUTBUF CALIGNED,
       76     8596    1         2 MODIFIER CHAR(10),
       77     8597    1         2 WLOCATION CHAR(7),
       78     8598    1         2 CLOCATION CHAR(2),
       79     8599    1         2 BLOCATION CHAR(3),
       80     8600    1         2 * CHAR(2),
       81     8601    1         2 EXTRA CHAR(56);
       82     8602    1   DCL CHAR2 CHAR(2);
       83     8603    1   DCL I SBIN;
       84     8604    1   DCL ISADDR UBIN;
       85     8605    1   DCL POS SBIN;
       86     8606    1   DCL NY(0:1) CHAR(3) CONSTANT INIT('No ','Yes');
       87     8607    1   DCL CSTS(0:15) CHAR(5) CONSTANT INIT('Std  ','NStd ','Main ','Async','Func ',
       88     8608    1                                   'Std  ','NStd ','Main ','Async','Func ',
       89     8609    1                                   '*BUG*'*3,'GCOS '*2,'NCall');
       90     8610    1   DCL ADDRS(0:15) CHAR(10) CONSTANT INIT
       91     8611    1   ( '          ', '          ', '   AUTO$ +', '  BASED$ +',
       92     8612    1     '    DCB$ +', '  PARAM$ +', '   CONST -', ' SPARAM$ +',
       93     8613    1     'AREADEF$ +', 'VIRTDESC @', '          ', '          ',
       94     8614    1     '          ', '          ', '          ', '          ');
       95     8615    1   DCL ADDROFF(0:15) CHAR(4) CONSTANT INIT
       96     8616    1   ( '-0  ', '-1  ', '-2  ', '-3  ', '-4  ', '-5  ', '-6  ', '-7  ',
       97     8617    1     '-8  ', '-9  ', '-10 ', '-11 ', '-12 ', '-13 ', '-14 ', '-15 ');
       98     8618
       99     8619    1   DCL DDB$BREAK ENTRY ALTRET;
      100     8620    1   DCL DDF$VREBL_# ENTRY(2) ALTRET;
      101     8621    1   DCL DDF$DBG_# ENTRY(2) ALTRET;
PL6.E3A0      #001=DDA$NAME File=DDA$NAME.:E05TSI                                TUE 07/29/97 13:34 Page:20
      102     8622    1   DCL DDQ$WRITE ENTRY(2);
      103     8623
      104     8624    1        NONE = '1'B;

   8624  1 000002   400000 236003                    LDQ     -131072,DU
         1 000003   200020 756100                    STQ     NONE,,AUTO

      105     8625    1        IF NOT S_D.DO$->NAME$CMD.ENTDEFS THEN GOTO NAME_VARS;

   8625  1 000004   000000 470400 xsym               LDP0    S_D$
         1 000005   000031 471500                    LDP1    25,,PR0
         1 000006   100002 234100                    SZN     2,,PR1
         1 000007   000200 605000 1                  TPL     NAME_VARS

      106     8626        %EJECT;
PL6.E3A0      #001=DDA$NAME File=DDA$NAME.:E05TSI                                TUE 07/29/97 13:34 Page:21
      107     8627    1        IF S_D.EDEF$=ADDR(NIL) OR S_D.EDEF$=S_D.EDEF_END$ OR NOT D_SYMBOLS THEN GOTO
              8627                 RETN;

   8627  1 000010   001042 236100                    LDQ     546,,PR0
         1 000011   000001 116000 xsym               CMPQ    B_VECTNIL+1
         1 000012   001075 600000 1                  TZE     RETN
         1 000013   001044 116100                    CMPQ    548,,PR0
         1 000014   001075 600000 1                  TZE     RETN
         1 000015   000000 234000 xsym               SZN     D_SYMBOLS
         1 000016   001075 605000 1                  TPL     RETN

      108     8628    1        TEDEF$ = S_D.EDEF$;

   8628  1 000017   200030 756100                    STQ     TEDEF$,,AUTO

      109     8629    2        DO WHILE (TEDEF$<=S_D.EDEF_END$);

   8629  1 000020   001044 116100                    CMPQ    548,,PR0
         1 000021   000023 600000 1                  TZE     s:8630
         1 000022   000177 603000 1                  TRC     s:8654

      110     8630    2             CALL DDB$BREAK ALTRET (RETN);

   8630  1 000023   000002 631400 xsym               EPPR1   B_VECTNIL+2
         1 000024   000000 701000 xent               TSX1    DDB$BREAK
         1 000025   001075 702000 1                  TSX2    RETN

      111     8631    2             IF TEDEF$->B$EDEF.LFLAGS.SOURCE~=0 THEN GOTO NEXT_EDEF;

   8631  1 000026   200030 470500                    LDP0    TEDEF$,,AUTO
         1 000027   000000 236100                    LDQ     0,,PR0
         1 000030   700000 316003                    CANQ    -32768,DU
         1 000031   000170 601000 1                  TNZ     NEXT_EDEF

      112     8632    2             NAME$ = PINCRW(S_D.DNAME$,TEDEF$->B$EDEF.NPOINTER);

   8632  1 000032   000001 220100                    LDX0    1,,PR0
PL6.E3A0      #001=DDA$NAME File=DDA$NAME.:E05TSI                                TUE 07/29/97 13:34 Page:22
         1 000033   000000 471400 xsym               LDP1    S_D$
         1 000034   101041 473500                    LDP3    545,,PR1
         1 000035   300000 634510                    EPPR4   0,X0,PR3
         1 000036   200031 454500                    STP4    NAME$,,AUTO

      113     8633    2            CALL WILDCMPR (NAME$->B$TEXTH, S_D.DO$->NAME$CMD.TEXTC) ALTRET (NEXT_EDEF)
              8633                      ;

   8633  1 000037   100031 475500                    LDP5    25,,PR1
         1 000040   500003 636500                    EPPR6   3,,PR5
         1 000041   200066 456500                    STP6    @SRC_STR+1,,AUTO
         1 000042   200031 236100                    LDQ     NAME$,,AUTO
         1 000043   200065 756100                    STQ     POS+3,,AUTO
         1 000044   001314 701000 1                  TSX1    WILDCMPR
         1 000045   000170 702000 1                  TSX2    NEXT_EDEF

      114     8634    2             IF NONE

   8634  1 000046   200020 234100                    SZN     NONE,,AUTO
         1 000047   000071 605000 1                  TPL     s:8641

      115     8635    3             THEN DO;

      116     8636    3                  OUTBUF = ' LOC    CTYPE PRIMARY ALTRET NPARAM NAME';

   8636  1 000050   040100 100400                    MLR     fill='040'O
         1 000051   000120 000050 0                  ADSC9   TRIM_MOP+2               cn=0,n=40
         1 000052   200033 000120                    ADSC9   OUTBUF,,AUTO             cn=0,n=80

      117     8637    3                  CALL DDQ$WRITE (ADDR(OUTBUF), 40);

   8637  1 000053   200033 630500                    EPPR0   OUTBUF,,AUTO
         1 000054   200076 450500                    STP0    WL+1,,AUTO
         1 000055   000001 236000 2                  LDQ     1
         1 000056   200101 756100                    STQ     WL+4,,AUTO
         1 000057   200076 631500                    EPPR1   WL+1,,AUTO
         1 000060   200100 451500                    STP1    WL+3,,AUTO
PL6.E3A0      #001=DDA$NAME File=DDA$NAME.:E05TSI                                TUE 07/29/97 13:34 Page:23
         1 000061   200100 630500                    EPPR0   WL+3,,AUTO
         1 000062   000020 631400 xsym               EPPR1   B_VECTNIL+16
         1 000063   000000 701000 xent               TSX1    DDQ$WRITE
         1 000064   000000 011000                    NOP     0

      118     8638    3                  OUTBUF = ' ';

   8638  1 000065   040100 100400                    MLR     fill='040'O
         1 000066   000035 000001 xsym               ADSC9   B_VECTNIL+29             cn=0,n=1
         1 000067   200033 000120                    ADSC9   OUTBUF,,AUTO             cn=0,n=80

      119     8639    3                  NONE = '0'B;

   8639  1 000070   200020 450100                    STZ     NONE,,AUTO

      120     8640    3                END;

      121     8641    2             ENTDEF.NAME = NAME$->B$TEXTH.C;

   8641  1 000071   200031 470500                    LDP0    NAME$,,AUTO
         1 000072   000100 100500                    MLR     fill='000'O
         1 000073   000000 000002                    ADSC9   0,,PR0                   cn=0,n=2
         1 000074   200076 000004                    ADSC9   WL+1,,AUTO               cn=0,n=4
         1 000075   200076 220100                    LDX0    WL+1,,AUTO
         1 000076   040100 100540                    MLR     fill='040'O
         1 000077   000000 400010                    ADSC9   0,,PR0                   cn=2,n=*X0
         1 000100   200044 000054                    ADSC9   OUTBUF+9,,AUTO           cn=0,n=44

      122     8642    2             ISADDR = TEDEF$->B$EDEF.ISADDR;

   8642  1 000101   200030 471500                    LDP1    TEDEF$,,AUTO
         1 000102   100000 236100                    LDQ     0,,PR1
         1 000103   000032 376000 xsym               ANQ     B_VECTNIL+26
         1 000104   200061 756100                    STQ     ISADDR,,AUTO

      123     8643    2             CALL CONVERT_TO_WADDR (ISADDR, ENTDEF.LOCATION);

PL6.E3A0      #001=DDA$NAME File=DDA$NAME.:E05TSI                                TUE 07/29/97 13:34 Page:24
   8643  1 000105   200033 633500                    EPPR3   OUTBUF,,AUTO
         1 000106   200066 453500                    STP3    @SRC_STR+1,,AUTO
         1 000107   200061 634500                    EPPR4   ISADDR,,AUTO
         1 000110   200065 454500                    STP4    POS+3,,AUTO
         1 000111   001252 701000 1                  TSX1    CONVERT_TO_WADDR
         1 000112   000000 011000                    NOP     0

      124     8644    2             ENTDEF.CTYPE = CSTS(TEDEF$->B$EDEF.CST);

   8644  1 000113   200030 470500                    LDP0    TEDEF$,,AUTO
         1 000114   000001 236100                    LDQ     1,,PR0
         1 000115   000013 772000                    QRL     11
         1 000116   000017 376007                    ANQ     15,DL
         1 000117   000005 402007                    MPY     5,DL
         1 000120   040100 100406                    MLR     fill='040'O
         1 000121   000002 000005 0                  ADSC9   CSTS,Q                   cn=0,n=5
         1 000122   200035 000005                    ADSC9   OUTBUF+2,,AUTO           cn=0,n=5

      125     8645    2             ENTDEF.PRIMARY = NY(BITBIN(TEDEF$->B$EDEF.PRI));

   8645  1 000123   000001 236100                    LDQ     1,,PR0
         1 000124   000021 772000                    QRL     17
         1 000125   000001 376007                    ANQ     1,DL
         1 000126   000003 402007                    MPY     3,DL
         1 000127   040100 100406                    MLR     fill='040'O
         1 000130   000000 000003 0                  ADSC9   NY,Q                     cn=0,n=3
         1 000131   200037 000003                    ADSC9   OUTBUF+4,,AUTO           cn=0,n=3

      126     8646    2             ENTDEF.ARET = NY(BITBIN(TEDEF$->B$EDEF.ALT));

   8646  1 000132   000001 236100                    LDQ     1,,PR0
         1 000133   000020 772000                    QRL     16
         1 000134   000001 376007                    ANQ     1,DL
         1 000135   000003 402007                    MPY     3,DL
         1 000136   040100 100406                    MLR     fill='040'O
         1 000137   000000 000003 0                  ADSC9   NY,Q                     cn=0,n=3
         1 000140   200040 600003                    ADSC9   OUTBUF+5,,AUTO           cn=3,n=3
PL6.E3A0      #001=DDA$NAME File=DDA$NAME.:E05TSI                                TUE 07/29/97 13:34 Page:25

      127     8647    2             CALL BINCHAR (ENTDEF.NUM, TEDEF$->B$EDEF.NPARAM);

   8647  1 000141   000001 236100                    LDQ     1,,PR0
         1 000142   003777 376007                    ANQ     2047,DL
         1 000143   000000 235003                    LDA     0,DU
         1 000144   200076 757100                    STAQ    WL+1,,AUTO
         1 000145   000100 301500                    BTD
         1 000146   200076 000010                    NDSC9   WL+1,,AUTO               cn=0,s=lsgnf,sf=0,n=8
         1 000147   200042 630002                    NDSC9   OUTBUF+7,,AUTO           cn=3,s=nosgn,sf=0,n=2

      128     8648    2             IF TEDEF$->B$EDEF.NPARAM < 10

   8648  1 000150   000001 236100                    LDQ     1,,PR0
         1 000151   003777 376007                    ANQ     2047,DL
         1 000152   000012 116007                    CMPQ    10,DL
         1 000153   000156 603000 1                  TRC     s:8651

      129     8649    2             THEN
      130     8650    2                  SUBSTR (ENTDEF.NUM, 0, 1) = ' ';

   8650  1 000154   000040 236007                    LDQ     32,DL
         1 000155   200042 552104                    STBQ    OUTBUF+7,'04'O,AUTO

      131     8651    2             CALL DDQ$WRITE (ADDR(ENTDEF),LENGTHC(ENTDEF));

   8651  1 000156   200033 631500                    EPPR1   OUTBUF,,AUTO
         1 000157   200076 451500                    STP1    WL+1,,AUTO
         1 000160   000003 236000 2                  LDQ     3
         1 000161   200101 756100                    STQ     WL+4,,AUTO
         1 000162   200076 633500                    EPPR3   WL+1,,AUTO
         1 000163   200100 453500                    STP3    WL+3,,AUTO
         1 000164   200100 630500                    EPPR0   WL+3,,AUTO
         1 000165   000020 631400 xsym               EPPR1   B_VECTNIL+16
         1 000166   000000 701000 xent               TSX1    DDQ$WRITE
         1 000167   000000 011000                    NOP     0

PL6.E3A0      #001=DDA$NAME File=DDA$NAME.:E05TSI                                TUE 07/29/97 13:34 Page:26
      132     8652    2   NEXT_EDEF: TEDEF$ = PINCRW (TEDEF$, SIZEW(B$EDEF));

   8652  1 000170   200030 236100       NEXT_EDEF    LDQ     TEDEF$,,AUTO
         1 000171   000002 036003                    ADLQ    2,DU
         1 000172   200030 756100                    STQ     TEDEF$,,AUTO

      133     8653    2           END;

   8653  1 000173   000000 470400 xsym               LDP0    S_D$
         1 000174   001044 116100                    CMPQ    548,,PR0
         1 000175   000023 602000 1                  TNC     s:8630
         1 000176   000023 600000 1                  TZE     s:8630

      134     8654    1        GOTO RETN;

   8654  1 000177   001075 710000 1                  TRA     RETN

   8651  1 000200                       NAME_VARS    null
      135     8655        %EJECT;
PL6.E3A0      #001=DDA$NAME File=DDA$NAME.:E05TSI                                TUE 07/29/97 13:34 Page:27
      136     8656    1   NAME_VARS:;                             /* NAME VARS */
      137     8657    1        IF S_D.SIM_UPDATE OR NOT S_D.QSCH.OK THEN GOTO RETN;

   8657  1 000200   006766 234100                    SZN     3574,,PR0
         1 000201   001075 604000 1                  TMI     RETN
         1 000202   000733 234100                    SZN     475,,PR0
         1 000203   001075 605000 1                  TPL     RETN

      138     8658    1        LB$ = PINCRW(S_D.LB$, S_D.QSCH.LB#*SIZEW(B$LOGBLK));

   8658  1 000204   000740 720100                    LXL0    480,,PR0
         1 000205   001037 473500                    LDP3    543,,PR0
         1 000206   000000 635010                    EAA     0,X0
         1 000207   000020 771000                    ARL     16
         1 000210   300000 634505                    EPPR4   0,AL,PR3
         1 000211   200010 454500                    STP4    LB$,,AUTO

      139     8659    1        VX = B$LOGBLK.VAOFFST / SIZEW(B$VREBL);

   8659  1 000212   400003 236100                    LDQ     3,,PR4
         1 000213   000022 772000                    QRL     18
         1 000214   000005 506007                    DIV     5,DL
         1 000215   200003 756100                    STQ     VX,,AUTO

      140     8660    1        VLEND = B$LOGBLK.VASIZE + VX - 1;

   8660  1 000216   400003 236100                    LDQ     3,,PR4
         1 000217   777777 376007                    ANQ     -1,DL
         1 000220   200003 036100                    ADLQ    VX,,AUTO
         1 000221   000001 136007                    SBLQ    1,DL
         1 000222   200005 756100                    STQ     VLEND,,AUTO

      141     8661    2        DO WHILE (VX<=VLEND);

   8661  1 000223   200003 116100                    CMPQ    VX,,AUTO
         1 000224   001075 602000 1                  TNC     RETN

PL6.E3A0      #001=DDA$NAME File=DDA$NAME.:E05TSI                                TUE 07/29/97 13:34 Page:28
      142     8662    2             CALL DDB$BREAK ALTRET (RETN);

   8662  1 000225   000002 631400 xsym               EPPR1   B_VECTNIL+2
         1 000226   000000 701000 xent               TSX1    DDB$BREAK
         1 000227   001075 702000 1                  TSX2    RETN

      143     8663    2             CALL DDF$VREBL_# (VX,VL$) ALTRET (RETN);

   8663  1 000230   200007 630500                    EPPR0   VL$,,AUTO
         1 000231   200077 450500                    STP0    WL+2,,AUTO
         1 000232   200003 631500                    EPPR1   VX,,AUTO
         1 000233   200076 451500                    STP1    WL+1,,AUTO
         1 000234   200076 630500                    EPPR0   WL+1,,AUTO
         1 000235   000020 631400 xsym               EPPR1   B_VECTNIL+16
         1 000236   000000 701000 xent               TSX1    DDF$VREBL_#
         1 000237   001075 702000 1                  TSX2    RETN

      144     8664    2             IF B$VREBL.DATATYP=%NULL_DATATYPE THEN GOTO DONT_PRINT_VAR;

   8664  1 000240   200007 470500                    LDP0    VL$,,AUTO
         1 000241   000000 236100                    LDQ     0,,PR0
         1 000242   000374 376007                    ANQ     252,DL
         1 000243   000360 116007                    CMPQ    240,DL
         1 000244   001027 600000 1                  TZE     DONT_PRINT_VAR

      145     8665    2             LVL = B$VREBL.LEVEL;

   8665  1 000245   000001 236100                    LDQ     1,,PR0
         1 000246   000014 772000                    QRL     12
         1 000247   000077 376007                    ANQ     63,DL
         1 000250   200017 756100                    STQ     LVL,,AUTO

      146     8666    2             NP# = B$VREBL.NPOINTER;

   8666  1 000251   000004 236100                    LDQ     4,,PR0
         1 000252   000022 736000                    QLS     18
         1 000253   000022 732000                    QRS     18
PL6.E3A0      #001=DDA$NAME File=DDA$NAME.:E05TSI                                TUE 07/29/97 13:34 Page:29
         1 000254   200004 756100                    STQ     NP#,,AUTO

      147     8667    2             CALL DDF$DBG_# (NP#, NAME$) ALTRET (BUG);

   8667  1 000255   200031 631500                    EPPR1   NAME$,,AUTO
         1 000256   200077 451500                    STP1    WL+2,,AUTO
         1 000257   200004 633500                    EPPR3   NP#,,AUTO
         1 000260   200076 453500                    STP3    WL+1,,AUTO
         1 000261   200076 630500                    EPPR0   WL+1,,AUTO
         1 000262   000020 631400 xsym               EPPR1   B_VECTNIL+16
         1 000263   000000 701000 xent               TSX1    DDF$DBG_#
         1 000264   001114 702000 1                  TSX2    BUG

      148     8668    2             IF LVL = 1

   8668  1 000265   200017 235100                    LDA     LVL,,AUTO
         1 000266   000001 115007                    CMPA    1,DL
         1 000267   000301 601000 1                  TNZ     s:8672

      149     8669    2             THEN
      150     8670    2                  CALL WILDCMPR (NAME$->B$DNAME, S_D.DO$->NAME$CMD.TEXTC) ALTRET (
              8670                           DONT_PRINT_VAR);

   8670  1 000270   000000 470400 xsym               LDP0    S_D$
         1 000271   000031 471500                    LDP1    25,,PR0
         1 000272   100003 633500                    EPPR3   3,,PR1
         1 000273   200066 453500                    STP3    @SRC_STR+1,,AUTO
         1 000274   200031 236100                    LDQ     NAME$,,AUTO
         1 000275   200065 756100                    STQ     POS+3,,AUTO
         1 000276   001314 701000 1                  TSX1    WILDCMPR
         1 000277   001027 702000 1                  TSX2    DONT_PRINT_VAR
         1 000300   000303 710000 1                  TRA     s:8673

      151     8671    2             ELSE                          /* LVL > 1 */
      152     8672    2                  IF UNMATCHED_OR_WILD THEN GOTO DONT_PRINT_VAR;

   8672  1 000301   200021 234100                    SZN     UNMATCHED_OR_WILD,,AUTO
PL6.E3A0      #001=DDA$NAME File=DDA$NAME.:E05TSI                                TUE 07/29/97 13:34 Page:30
         1 000302   001027 604000 1                  TMI     DONT_PRINT_VAR

      153     8673    2             OUTBUF = ' ';

   8673  1 000303   040100 100400                    MLR     fill='040'O
         1 000304   000035 000001 xsym               ADSC9   B_VECTNIL+29             cn=0,n=1
         1 000305   200033 000120                    ADSC9   OUTBUF,,AUTO             cn=0,n=80

      154     8674    2             IF S_D.ONE_TO_TWO.EXEC_DOMAIN = %HOST

   8674  1 000306   000000 470400 xsym               LDP0    S_D$
         1 000307   006714 235100                    LDA     3532,,PR0
         1 000310   000001 115007                    CMPA    1,DL
         1 000311   000327 601000 1                  TNZ     s:8681

      155     8675    3             THEN DO;

      156     8676    3                  ISADDR = B$VREBL.ADR.W;

   8676  1 000312   200007 471500                    LDP1    VL$,,AUTO
         1 000313   100000 236100                    LDQ     0,,PR1
         1 000314   000022 772000                    QRL     18
         1 000315   200061 756100                    STQ     ISADDR,,AUTO

      157     8677    3                  C_OFF = B$VREBL.ADR.C;

   8677  1 000316   100000 236100                    LDQ     0,,PR1
         1 000317   000020 772000                    QRL     16
         1 000320   000003 376007                    ANQ     3,DL
         1 000321   200022 756100                    STQ     C_OFF,,AUTO

      158     8678    3                  B_OFF = B$VREBL.ADR.B;

   8678  1 000322   100000 236100                    LDQ     0,,PR1
         1 000323   000014 772000                    QRL     12
         1 000324   000017 376007                    ANQ     15,DL
         1 000325   200023 756100                    STQ     B_OFF,,AUTO
PL6.E3A0      #001=DDA$NAME File=DDA$NAME.:E05TSI                                TUE 07/29/97 13:34 Page:31

      159     8679    3                END;

   8679  1 000326   000343 710000 1                  TRA     s:8685

      160     8680    3             ELSE DO;

      161     8681    3                  ISADDR = B$VREBL.ADR6.W;

   8681  1 000327   200007 471500                    LDP1    VL$,,AUTO
         1 000330   100000 236100                    LDQ     0,,PR1
         1 000331   000020 772000                    QRL     16
         1 000332   200061 756100                    STQ     ISADDR,,AUTO

      162     8682    3                  C_OFF = B$VREBL.ADR6.C;

   8682  1 000333   100000 236100                    LDQ     0,,PR1
         1 000334   000017 772000                    QRL     15
         1 000335   000001 376007                    ANQ     1,DL
         1 000336   200022 756100                    STQ     C_OFF,,AUTO

      163     8683    3                  B_OFF = B$VREBL.ADR6.B;

   8683  1 000337   100000 236100                    LDQ     0,,PR1
         1 000340   000014 772000                    QRL     12
         1 000341   000007 376007                    ANQ     7,DL
         1 000342   200023 756100                    STQ     B_OFF,,AUTO

      164     8684    3                END;

      165     8685    2             CALL CONVERT_TO_WADDR (ISADDR, VARIABLE.WLOCATION);

   8685  1 000343   200076 452500                    STP2    WL+1,,AUTO
         1 000344   200076 236100                    LDQ     WL+1,,AUTO
         1 000345   000004 036000 2                  ADLQ    4
         1 000346   200066 756100                    STQ     @SRC_STR+1,,AUTO
         1 000347   200061 633500                    EPPR3   ISADDR,,AUTO
PL6.E3A0      #001=DDA$NAME File=DDA$NAME.:E05TSI                                TUE 07/29/97 13:34 Page:32
         1 000350   200065 453500                    STP3    POS+3,,AUTO
         1 000351   001252 701000 1                  TSX1    CONVERT_TO_WADDR
         1 000352   000000 011000                    NOP     0

      166     8686    2             IF C_OFF~=0 OR B_OFF~=0

   8686  1 000353   200022 235100                    LDA     C_OFF,,AUTO
         1 000354   000357 601000 1                  TNZ     s:8688
         1 000355   200023 236100                    LDQ     B_OFF,,AUTO
         1 000356   000362 600000 1                  TZE     s:8689

      167     8687    2             THEN
      168     8688    2                  VARIABLE.CLOCATION = ADDROFF (C_OFF);

   8688  1 000357   000076 236005 0                  LDQ     ADDROFF,AL
         1 000360   000011 772000                    QRL     9
         1 000361   200037 552130                    STBQ    OUTBUF+4,'30'O,AUTO

      169     8689    2             IF B_OFF~=0

   8689  1 000362   200023 235100                    LDA     B_OFF,,AUTO
         1 000363   000370 600000 1                  TZE     s:8692

      170     8690    2             THEN
      171     8691    2                  VARIABLE.BLOCATION = ADDROFF (B_OFF);

   8691  1 000364   000002 735000                    ALS     2
         1 000365   040100 100405                    MLR     fill='040'O
         1 000366   000076 000003 0                  ADSC9   ADDROFF,A                cn=0,n=3
         1 000367   200037 600003                    ADSC9   OUTBUF+4,,AUTO           cn=3,n=3

      172     8692    2             VARIABLE.MODIFIER = ADDRS (B$VREBL.ADDRTYP);

   8692  1 000370   200007 470500                    LDP0    VL$,,AUTO
         1 000371   000000 236100                    LDQ     0,,PR0
         1 000372   000010 772000                    QRL     8
         1 000373   000017 376007                    ANQ     15,DL
PL6.E3A0      #001=DDA$NAME File=DDA$NAME.:E05TSI                                TUE 07/29/97 13:34 Page:33
         1 000374   000012 402007                    MPY     10,DL
         1 000375   040100 100406                    MLR     fill='040'O
         1 000376   000026 000012 0                  ADSC9   ADDRS,Q                  cn=0,n=10
         1 000377   200033 000012                    ADSC9   OUTBUF,,AUTO             cn=0,n=10

      173     8693    2             CHAR2 = ' ';

   8693  1 000400   040040 220003                    LDX0    16416,DU
         1 000401   200057 740100                    STX0    CHAR2,,AUTO

      174     8694    2             IF B$VREBL.DATATYP = %STRUCTURE_DATATYPE

   8694  1 000402   000000 236100                    LDQ     0,,PR0
         1 000403   000374 376007                    ANQ     252,DL
         1 000404   000104 116007                    CMPQ    68,DL
         1 000405   000413 600000 1                  TZE     s:8698
         1 000406   000270 116007                    CMPQ    184,DL
         1 000407   000413 600000 1                  TZE     s:8698
         1 000410   200017 235100                    LDA     LVL,,AUTO
         1 000411   000002 115007                    CMPA    2,DL
         1 000412   000426 602000 1                  TNC     s:8703

      175     8695    2               OR B$VREBL.DATATYP = %ASTRUCTURE_DATATYPE
      176     8696    2               OR LVL > 1
      177     8697    3             THEN DO;

      178     8698    3                  CALL BINCHAR (CHAR2, LVL);

   8698  1 000413   200017 235100                    LDA     LVL,,AUTO
         1 000414   000044 773000                    LRL     36
         1 000415   200076 757100                    STAQ    WL+1,,AUTO
         1 000416   000100 301500                    BTD
         1 000417   200076 000010                    NDSC9   WL+1,,AUTO               cn=0,s=lsgnf,sf=0,n=8
         1 000420   200057 030002                    NDSC9   CHAR2,,AUTO              cn=0,s=nosgn,sf=0,n=2

      179     8699    3                  IF LVL <= 9

PL6.E3A0      #001=DDA$NAME File=DDA$NAME.:E05TSI                                TUE 07/29/97 13:34 Page:34
   8699  1 000421   200017 235100                    LDA     LVL,,AUTO
         1 000422   000012 115007                    CMPA    10,DL
         1 000423   000426 603000 1                  TRC     s:8703

      180     8700    3                  THEN
      181     8701    3                       SUBSTR (CHAR2,0,1) = ' ';

   8701  1 000424   040000 236003                    LDQ     16384,DU
         1 000425   200057 552140                    STBQ    CHAR2,'40'O,AUTO

      182     8702    3                END;

      183     8703    2             POS = (LVL-1)*2;

   8703  1 000426   000001 735000                    ALS     1
         1 000427   000002 135007                    SBLA    2,DL
         1 000430   200062 755100                    STA     POS,,AUTO

      184     8704    2             CALL ADD_STR (CHAR2, 2);

   8704  1 000431   000005 236000 2                  LDQ     5
         1 000432   200072 756100                    STQ     SRC$+1,,AUTO
         1 000433   200057 631500                    EPPR1   CHAR2,,AUTO
         1 000434   200071 451500                    STP1    WILDL+1,,AUTO
         1 000435   001115 701000 1                  TSX1    ADD_STR
         1 000436   000000 011000                    NOP     0

      185     8705    2             CALL ADD_STR (NAME$->B$DNAME.TEXT, LENGTHC(NAME$->B$DNAME.TEXT));

   8705  1 000437   200031 470500                    LDP0    NAME$,,AUTO
         1 000440   000000 220100                    LDX0    0,,PR0
         1 000441   000000 635010                    EAA     0,X0
         1 000442   000022 771000                    ARL     18
         1 000443   200104 755100                    STA     WL+7,,AUTO
         1 000444   200104 631500                    EPPR1   WL+7,,AUTO
         1 000445   200072 451500                    STP1    SRC$+1,,AUTO
         1 000446   200031 236100                    LDQ     NAME$,,AUTO
PL6.E3A0      #001=DDA$NAME File=DDA$NAME.:E05TSI                                TUE 07/29/97 13:34 Page:35
         1 000447   400000 036007                    ADLQ    -131072,DL
         1 000450   200071 756100                    STQ     WILDL+1,,AUTO
         1 000451   001115 701000 1                  TSX1    ADD_STR
         1 000452   000000 011000                    NOP     0

      186     8706    2             IF POS < 24 THEN POS = 24;

   8706  1 000453   200062 235100                    LDA     POS,,AUTO
         1 000454   000030 115007                    CMPA    24,DL
         1 000455   000460 605000 1                  TPL     s:8707

   8706  1 000456   000030 236007                    LDQ     24,DL
         1 000457   200062 756100                    STQ     POS,,AUTO

      187     8707    2             IF B$VREBL.ARRAYTYP > 0

   8707  1 000460   200007 470500                    LDP0    VL$,,AUTO
         1 000461   000001 236100                    LDQ     1,,PR0
         1 000462   000360 316007                    CANQ    240,DL
         1 000463   000563 600000 1                  TZE     s:8721

      188     8708    3             THEN DO;

      189     8709    3                  I = B$VREBL.DIMS;

   8709  1 000464   000004 236100                    LDQ     4,,PR0
         1 000465   000022 772000                    QRL     18
         1 000466   200060 756100                    STQ     I,,AUTO

      190     8710    4                  DO CASE (B$VREBL.ARRAYTYP);

   8710  1 000467   000001 236100                    LDQ     1,,PR0
         1 000470   000004 772000                    QRL     4
         1 000471   000017 376007                    ANQ     15,DL
         1 000472   000006 116007                    CMPQ    6,DL
         1 000473   000475 602006 1                  TNC     s:8710+6,QL
         1 000474   000531 710000 1                  TRA     s:8717
PL6.E3A0      #001=DDA$NAME File=DDA$NAME.:E05TSI                                TUE 07/29/97 13:34 Page:36
         1 000475   000531 710000 1                  TRA     s:8717
         1 000476   000503 710000 1                  TRA     s:8711
         1 000477   000514 710000 1                  TRA     s:8712
         1 000500   000523 710000 1                  TRA     s:8715
         1 000501   000523 710000 1                  TRA     s:8715
         1 000502   000523 710000 1                  TRA     s:8715

      191     8711    4                    CASE (%VECTOR0_ARRAY); CALL ADD_STR ('(0:',3); I=I-1;

   8711  1 000503   000006 236000 2                  LDQ     6
         1 000504   200072 756100                    STQ     SRC$+1,,AUTO
         1 000505   000007 236000 2                  LDQ     7
         1 000506   200071 756100                    STQ     WILDL+1,,AUTO
         1 000507   001115 701000 1                  TSX1    ADD_STR
         1 000510   000000 011000                    NOP     0

   8711  1 000511   000001 336007                    LCQ     1,DL
         1 000512   200060 056100                    ASQ     I,,AUTO
         1 000513   000531 710000 1                  TRA     s:8717

      192     8712    4                    CASE (%VECTOR1_ARRAY); CALL ADD_STR ('(1:',3);

   8712  1 000514   000006 236000 2                  LDQ     6
         1 000515   200072 756100                    STQ     SRC$+1,,AUTO
         1 000516   000010 236000 2                  LDQ     8
         1 000517   200071 756100                    STQ     WILDL+1,,AUTO
         1 000520   001115 701000 1                  TSX1    ADD_STR
         1 000521   000000 011000                    NOP     0
         1 000522   000531 710000 1                  TRA     s:8717

      193     8713    4                    CASE (%VIRTUAL_ARRAY,

      194     8714    4                         %ADJUSTABLE_ARRAY,
      195     8715    4                         %REAL_ARRAY); CALL ADD_STR ('(#DIMS=',7);

   8715  1 000523   000011 236000 2                  LDQ     9
         1 000524   200072 756100                    STQ     SRC$+1,,AUTO
PL6.E3A0      #001=DDA$NAME File=DDA$NAME.:E05TSI                                TUE 07/29/97 13:34 Page:37
         1 000525   000012 236000 2                  LDQ     10
         1 000526   200071 756100                    STQ     WILDL+1,,AUTO
         1 000527   001115 701000 1                  TSX1    ADD_STR
         1 000530   000000 011000                    NOP     0

      196     8716    4                    END;

      197     8717    3                  CALL DDR$BINTXT (ADDR(CHAR16), I, %UINT_FMT, LEN);

   8717  1 000531   200013 630500                    EPPR0   CHAR16,,AUTO
         1 000532   200076 450500                    STP0    WL+1,,AUTO
         1 000533   200012 631500                    EPPR1   LEN,,AUTO
         1 000534   200103 451500                    STP1    WL+6,,AUTO
         1 000535   000005 236000 2                  LDQ     5
         1 000536   200102 756100                    STQ     WL+5,,AUTO
         1 000537   200060 633500                    EPPR3   I,,AUTO
         1 000540   200101 453500                    STP3    WL+4,,AUTO
         1 000541   200076 634500                    EPPR4   WL+1,,AUTO
         1 000542   200100 454500                    STP4    WL+3,,AUTO
         1 000543   200100 630500                    EPPR0   WL+3,,AUTO
         1 000544   000022 631400 xsym               EPPR1   B_VECTNIL+18
         1 000545   000000 701000 xent               TSX1    DDR$BINTXT
         1 000546   000000 011000                    NOP     0

      198     8718    3                  CALL ADD_STR_NS (CHAR16, LEN);

   8718  1 000547   200012 630500                    EPPR0   LEN,,AUTO
         1 000550   200072 450500                    STP0    SRC$+1,,AUTO
         1 000551   200013 631500                    EPPR1   CHAR16,,AUTO
         1 000552   200071 451500                    STP1    WILDL+1,,AUTO
         1 000553   001123 701000 1                  TSX1    ADD_STR_NS
         1 000554   000000 011000                    NOP     0

      199     8719    3                  CALL ADD_STR_NS (')',1);

   8719  1 000555   000014 236000 2                  LDQ     12
         1 000556   200072 756100                    STQ     SRC$+1,,AUTO
PL6.E3A0      #001=DDA$NAME File=DDA$NAME.:E05TSI                                TUE 07/29/97 13:34 Page:38
         1 000557   000015 236000 2                  LDQ     13
         1 000560   200071 756100                    STQ     WILDL+1,,AUTO
         1 000561   001123 701000 1                  TSX1    ADD_STR_NS
         1 000562   000000 011000                    NOP     0

      200     8720    3                END;                       /* if B$VREBL.ARRAYTYP > 0 */

      201     8721    3             DO CASE (B$VREBL.DATATYP);

   8721  1 000563   200007 470500                    LDP0    VL$,,AUTO
         1 000564   000000 236100                    LDQ     0,,PR0
         1 000565   000002 772000                    QRL     2
         1 000566   000077 376007                    ANQ     63,DL
         1 000567   000061 116007                    CMPQ    49,DL
         1 000570   000572 602006 1                  TNC     s:8721+7,QL
         1 000571   000742 710000 1                  TRA     s:8733
         1 000572   000742 710000 1                  TRA     s:8733
         1 000573   000653 710000 1                  TRA     s:8722
         1 000574   000742 710000 1                  TRA     s:8733
         1 000575   000742 710000 1                  TRA     s:8733
         1 000576   000742 710000 1                  TRA     s:8733
         1 000577   000742 710000 1                  TRA     s:8733
         1 000600   000742 710000 1                  TRA     s:8733
         1 000601   000742 710000 1                  TRA     s:8733
         1 000602   000742 710000 1                  TRA     s:8733
         1 000603   000742 710000 1                  TRA     s:8733
         1 000604   000742 710000 1                  TRA     s:8733
         1 000605   000742 710000 1                  TRA     s:8733
         1 000606   000742 710000 1                  TRA     s:8733
         1 000607   000671 710000 1                  TRA     s:8724
         1 000610   000742 710000 1                  TRA     s:8733
         1 000611   000742 710000 1                  TRA     s:8733
         1 000612   000742 710000 1                  TRA     s:8733
         1 000613   000742 710000 1                  TRA     s:8733
         1 000614   000742 710000 1                  TRA     s:8733
         1 000615   000700 710000 1                  TRA     s:8726
         1 000616   000700 710000 1                  TRA     s:8726
PL6.E3A0      #001=DDA$NAME File=DDA$NAME.:E05TSI                                TUE 07/29/97 13:34 Page:39
         1 000617   000707 710000 1                  TRA     s:8728
         1 000620   000707 710000 1                  TRA     s:8728
         1 000621   000742 710000 1                  TRA     s:8733
         1 000622   000662 710000 1                  TRA     s:8723
         1 000623   000742 710000 1                  TRA     s:8733
         1 000624   000742 710000 1                  TRA     s:8733
         1 000625   000742 710000 1                  TRA     s:8733
         1 000626   000725 710000 1                  TRA     s:8730
         1 000627   000742 710000 1                  TRA     s:8733
         1 000630   000742 710000 1                  TRA     s:8733
         1 000631   000742 710000 1                  TRA     s:8733
         1 000632   000742 710000 1                  TRA     s:8733
         1 000633   000742 710000 1                  TRA     s:8733
         1 000634   000742 710000 1                  TRA     s:8733
         1 000635   000742 710000 1                  TRA     s:8733
         1 000636   000742 710000 1                  TRA     s:8733
         1 000637   000742 710000 1                  TRA     s:8733
         1 000640   000742 710000 1                  TRA     s:8733
         1 000641   000742 710000 1                  TRA     s:8733
         1 000642   000742 710000 1                  TRA     s:8733
         1 000643   000742 710000 1                  TRA     s:8733
         1 000644   000742 710000 1                  TRA     s:8733
         1 000645   000742 710000 1                  TRA     s:8733
         1 000646   000742 710000 1                  TRA     s:8733
         1 000647   000742 710000 1                  TRA     s:8733
         1 000650   000742 710000 1                  TRA     s:8733
         1 000651   000716 710000 1                  TRA     s:8729
         1 000652   000734 710000 1                  TRA     s:8731

      202     8722    3               CASE (%SBIN_DATATYPE); CALL ADD_STR_N_LEN ('SBIN', 4);

   8722  1 000653   000016 236000 2                  LDQ     14
         1 000654   200066 756100                    STQ     @SRC_STR+1,,AUTO
         1 000655   000017 236000 2                  LDQ     15
         1 000656   200065 756100                    STQ     POS+3,,AUTO
         1 000657   001162 701000 1                  TSX1    ADD_STR_N_LEN
         1 000660   000000 011000                    NOP     0
PL6.E3A0      #001=DDA$NAME File=DDA$NAME.:E05TSI                                TUE 07/29/97 13:34 Page:40
         1 000661   000742 710000 1                  TRA     s:8733

      203     8723    3               CASE (%UBIN_DATATYPE); CALL ADD_STR_N_LEN ('UBIN', 4);

   8723  1 000662   000016 236000 2                  LDQ     14
         1 000663   200066 756100                    STQ     @SRC_STR+1,,AUTO
         1 000664   000020 236000 2                  LDQ     16
         1 000665   200065 756100                    STQ     POS+3,,AUTO
         1 000666   001162 701000 1                  TSX1    ADD_STR_N_LEN
         1 000667   000000 011000                    NOP     0
         1 000670   000742 710000 1                  TRA     s:8733

      204     8724    3               CASE (%POINTER_DATATYPE); CALL ADD_STR ('PTR', 3);

   8724  1 000671   000006 236000 2                  LDQ     6
         1 000672   200072 756100                    STQ     SRC$+1,,AUTO
         1 000673   000021 236000 2                  LDQ     17
         1 000674   200071 756100                    STQ     WILDL+1,,AUTO
         1 000675   001115 701000 1                  TSX1    ADD_STR
         1 000676   000000 011000                    NOP     0
         1 000677   000742 710000 1                  TRA     s:8733

      205     8725    3               CASE (%BIT_DATATYPE,

      206     8726    3                    %VBIT_DATATYPE); CALL ADD_STR_N_LEN ('BIT', 3);

   8726  1 000700   000006 236000 2                  LDQ     6
         1 000701   200066 756100                    STQ     @SRC_STR+1,,AUTO
         1 000702   000022 236000 2                  LDQ     18
         1 000703   200065 756100                    STQ     POS+3,,AUTO
         1 000704   001162 701000 1                  TSX1    ADD_STR_N_LEN
         1 000705   000000 011000                    NOP     0
         1 000706   000742 710000 1                  TRA     s:8733

      207     8727    3               CASE (%CHAR_DATATYPE,

      208     8728    3                    %VCHAR_DATATYPE); CALL ADD_STR_N_LEN ('CHAR', 4);
PL6.E3A0      #001=DDA$NAME File=DDA$NAME.:E05TSI                                TUE 07/29/97 13:34 Page:41

   8728  1 000707   000016 236000 2                  LDQ     14
         1 000710   200066 756100                    STQ     @SRC_STR+1,,AUTO
         1 000711   000023 236000 2                  LDQ     19
         1 000712   200065 756100                    STQ     POS+3,,AUTO
         1 000713   001162 701000 1                  TSX1    ADD_STR_N_LEN
         1 000714   000000 011000                    NOP     0
         1 000715   000742 710000 1                  TRA     s:8733

      209     8729    3               CASE (%VECTOR_DATATYPE); CALL ADD_STR ('VECTOR', 6);

   8729  1 000716   000024 236000 2                  LDQ     20
         1 000717   200072 756100                    STQ     SRC$+1,,AUTO
         1 000720   000025 236000 2                  LDQ     21
         1 000721   200071 756100                    STQ     WILDL+1,,AUTO
         1 000722   001115 701000 1                  TSX1    ADD_STR
         1 000723   000000 011000                    NOP     0
         1 000724   000742 710000 1                  TRA     s:8733

      210     8730    3               CASE (%EPTR_DATATYPE); CALL ADD_STR ('EPTR', 4);

   8730  1 000725   000016 236000 2                  LDQ     14
         1 000726   200072 756100                    STQ     SRC$+1,,AUTO
         1 000727   000026 236000 2                  LDQ     22
         1 000730   200071 756100                    STQ     WILDL+1,,AUTO
         1 000731   001115 701000 1                  TSX1    ADD_STR
         1 000732   000000 011000                    NOP     0
         1 000733   000742 710000 1                  TRA     s:8733

      211     8731    3               CASE (%REMEMBER_DATATYPE);CALL ADD_STR ('REMEMBER', 8);

   8731  1 000734   000027 236000 2                  LDQ     23
         1 000735   200072 756100                    STQ     SRC$+1,,AUTO
         1 000736   000030 236000 2                  LDQ     24
         1 000737   200071 756100                    STQ     WILDL+1,,AUTO
         1 000740   001115 701000 1                  TSX1    ADD_STR
         1 000741   000000 011000                    NOP     0
PL6.E3A0      #001=DDA$NAME File=DDA$NAME.:E05TSI                                TUE 07/29/97 13:34 Page:42

      212     8732    3               END;                        /* do case (VREBL.DATATYPE) */

      213     8733    3             DO CASE (B$VREBL.ALIGNTYP);

   8733  1 000742   200007 470500                    LDP0    VL$,,AUTO
         1 000743   000001 236100                    LDQ     1,,PR0
         1 000744   000011 772000                    QRL     9
         1 000745   000007 376007                    ANQ     7,DL
         1 000746   000005 116007                    CMPQ    5,DL
         1 000747   000751 602006 1                  TNC     s:8733+7,QL
         1 000750   001011 710000 1                  TRA     s:8739
         1 000751   000756 710000 1                  TRA     s:8734
         1 000752   001011 710000 1                  TRA     s:8739
         1 000753   000765 710000 1                  TRA     s:8735
         1 000754   000774 710000 1                  TRA     s:8736
         1 000755   001003 710000 1                  TRA     s:8737

      214     8734    3               CASE (0); CALL ADD_STR ('DALIGNED',8);

   8734  1 000756   000027 236000 2                  LDQ     23
         1 000757   200072 756100                    STQ     SRC$+1,,AUTO
         1 000760   000031 236000 2                  LDQ     25
         1 000761   200071 756100                    STQ     WILDL+1,,AUTO
         1 000762   001115 701000 1                  TSX1    ADD_STR
         1 000763   000000 011000                    NOP     0
         1 000764   001011 710000 1                  TRA     s:8739

      215     8735    3               CASE (2); CALL ADD_STR ('HALIGNED',8);

   8735  1 000765   000027 236000 2                  LDQ     23
         1 000766   200072 756100                    STQ     SRC$+1,,AUTO
         1 000767   000032 236000 2                  LDQ     26
         1 000770   200071 756100                    STQ     WILDL+1,,AUTO
         1 000771   001115 701000 1                  TSX1    ADD_STR
         1 000772   000000 011000                    NOP     0
         1 000773   001011 710000 1                  TRA     s:8739
PL6.E3A0      #001=DDA$NAME File=DDA$NAME.:E05TSI                                TUE 07/29/97 13:34 Page:43

      216     8736    3               CASE (3); CALL ADD_STR ('CALIGNED',8);

   8736  1 000774   000027 236000 2                  LDQ     23
         1 000775   200072 756100                    STQ     SRC$+1,,AUTO
         1 000776   000033 236000 2                  LDQ     27
         1 000777   200071 756100                    STQ     WILDL+1,,AUTO
         1 001000   001115 701000 1                  TSX1    ADD_STR
         1 001001   000000 011000                    NOP     0
         1 001002   001011 710000 1                  TRA     s:8739

      217     8737    3               CASE (4); CALL ADD_STR ('UNAL',4);

   8737  1 001003   000016 236000 2                  LDQ     14
         1 001004   200072 756100                    STQ     SRC$+1,,AUTO
         1 001005   000034 236000 2                  LDQ     28
         1 001006   200071 756100                    STQ     WILDL+1,,AUTO
         1 001007   001115 701000 1                  TSX1    ADD_STR
         1 001010   000000 011000                    NOP     0

      218     8738    3               END;                        /* do case */

      219     8739    2            CALL DDQ$WRITE (ADDR(VARIABLE), LENGTHC(VARIABLE)-LENGTHC(VARIABLE.EXTRA)+
              8739                      POS);

   8739  1 001011   200033 630500                    EPPR0   OUTBUF,,AUTO
         1 001012   200076 450500                    STP0    WL+1,,AUTO
         1 001013   200062 235100                    LDA     POS,,AUTO
         1 001014   000030 035007                    ADLA    24,DL
         1 001015   200077 755100                    STA     WL+2,,AUTO
         1 001016   200077 631500                    EPPR1   WL+2,,AUTO
         1 001017   200101 451500                    STP1    WL+4,,AUTO
         1 001020   200076 633500                    EPPR3   WL+1,,AUTO
         1 001021   200100 453500                    STP3    WL+3,,AUTO
         1 001022   200100 630500                    EPPR0   WL+3,,AUTO
         1 001023   000020 631400 xsym               EPPR1   B_VECTNIL+16
         1 001024   000000 701000 xent               TSX1    DDQ$WRITE
PL6.E3A0      #001=DDA$NAME File=DDA$NAME.:E05TSI                                TUE 07/29/97 13:34 Page:44
         1 001025   000000 011000                    NOP     0

      220     8740    2             NONE='0'B;

   8740  1 001026   200020 450100                    STZ     NONE,,AUTO

   8740  1 001027                       DONT_PRINT_* null
      221     8741    2   DONT_PRINT_VAR:;
      222     8742    2             VX = VX + 1;

   8742  1 001027   200003 235100                    LDA     VX,,AUTO
         1 001030   000001 035007                    ADLA    1,DL
         1 001031   200003 755100                    STA     VX,,AUTO

      223     8743    2             IF B$VREBL.ARRAYTYP = %VIRTUAL_ARRAY

   8743  1 001032   200007 470500                    LDP0    VL$,,AUTO
         1 001033   000001 236100                    LDQ     1,,PR0
         1 001034   000360 376007                    ANQ     240,DL
         1 001035   000100 116007                    CMPQ    64,DL
         1 001036   001041 600000 1                  TZE     s:8746
         1 001037   000120 116007                    CMPQ    80,DL
         1 001040   001047 601000 1                  TNZ     s:8747

      224     8744    2               OR B$VREBL.ARRAYTYP = %ADJUSTABLE_ARRAY
      225     8745    2             THEN
      226     8746    2                  VX = VX + (B$VREBL.DIMS+6)/5;

   8746  1 001041   000004 236100                    LDQ     4,,PR0
         1 001042   000022 772000                    QRL     18
         1 001043   000006 036007                    ADLQ    6,DL
         1 001044   000005 506007                    DIV     5,DL
         1 001045   200003 036100                    ADLQ    VX,,AUTO
         1 001046   200003 756100                    STQ     VX,,AUTO

      227     8747    2             IF B$VREBL.ARRAYTYP = %REAL_ARRAY

PL6.E3A0      #001=DDA$NAME File=DDA$NAME.:E05TSI                                TUE 07/29/97 13:34 Page:45
   8747  1 001047   000001 236100                    LDQ     1,,PR0
         1 001050   000360 376007                    ANQ     240,DL
         1 001051   000060 116007                    CMPQ    48,DL
         1 001052   001061 601000 1                  TNZ     s:8750

      228     8748    2             THEN
      229     8749    2                  VX = VX + (B$VREBL.DIMS+13)/10;

   8749  1 001053   000004 236100                    LDQ     4,,PR0
         1 001054   000022 772000                    QRL     18
         1 001055   000015 036007                    ADLQ    13,DL
         1 001056   000012 506007                    DIV     10,DL
         1 001057   200003 036100                    ADLQ    VX,,AUTO
         1 001060   200003 756100                    STQ     VX,,AUTO

      230     8750    2             IF B$VREBL.DATATYP = %ENUMTYPE_DATATYPE

   8750  1 001061   000000 236100                    LDQ     0,,PR0
         1 001062   000374 376007                    ANQ     252,DL
         1 001063   000320 116007                    CMPQ    208,DL
         1 001064   001067 600000 1                  TZE     s:8753
         1 001065   000324 116007                    CMPQ    212,DL
         1 001066   001072 601000 1                  TNZ     s:8754

      231     8751    2               OR B$VREBL.DATATYP = %SET_DATATYPE
      232     8752    2             THEN
      233     8753    2                  VX = VX + 1;

   8753  1 001067   200003 235100                    LDA     VX,,AUTO
         1 001070   000001 035007                    ADLA    1,DL
         1 001071   200003 755100                    STA     VX,,AUTO

      234     8754    2           END;

   8754  1 001072   200005 236100                    LDQ     VLEND,,AUTO
         1 001073   200003 116100                    CMPQ    VX,,AUTO
         1 001074   000225 603000 1                  TRC     s:8662
PL6.E3A0      #001=DDA$NAME File=DDA$NAME.:E05TSI                                TUE 07/29/97 13:34 Page:46

      235     8755
      236     8756    1   RETN:
      237     8757    1        IF NONE

   8757  1 001075   200020 234100       RETN         SZN     NONE,,AUTO
         1 001076   001113 605000 1                  TPL     s:8762

      238     8758    2        THEN DO;

      239     8759    2             SUBSTR (OUTBUF,0,4) = 'None';

   8759  1 001077   000157 236000 0                  LDQ     TRIM_MOP+33
         1 001100   200033 756100                    STQ     OUTBUF,,AUTO

      240     8760    2             CALL DDQ$WRITE (ADDR(OUTBUF), 4);

   8760  1 001101   200033 630500                    EPPR0   OUTBUF,,AUTO
         1 001102   200076 450500                    STP0    WL+1,,AUTO
         1 001103   000016 236000 2                  LDQ     14
         1 001104   200101 756100                    STQ     WL+4,,AUTO
         1 001105   200076 631500                    EPPR1   WL+1,,AUTO
         1 001106   200100 451500                    STP1    WL+3,,AUTO
         1 001107   200100 630500                    EPPR0   WL+3,,AUTO
         1 001110   000020 631400 xsym               EPPR1   B_VECTNIL+16
         1 001111   000000 701000 xent               TSX1    DDQ$WRITE
         1 001112   000000 011000                    NOP     0

      241     8761    2           END;

      242     8762    1        RETURN;

   8762  1 001113   000000 702200 xent               TSX2  ! X66_ARET

      243     8763
      244     8764    1   BUG: ALTRETURN;

PL6.E3A0      #001=DDA$NAME File=DDA$NAME.:E05TSI                                TUE 07/29/97 13:34 Page:47
   8764  1 001114   000000 702200 xent  BUG          TSX2  ! X66_AALT

      245     8765
      246     8766        %EJECT;
PL6.E3A0      #001=DDA$NAME File=DDA$NAME.:E05TSI                                TUE 07/29/97 13:34 Page:48
      247     8767    1   ADD_STR: PROC (STR, STRL);

   8767  1 001115   200070 741300       ADD_STR      STX1  ! SRCL+1,,AUTO

      248     8768
      249     8769    2   DCL STR CHAR(STRL);
      250     8770    2   DCL STRL SBIN;
      251     8771
      252     8772    2        IF POS<LENGTHC(VARIABLE.EXTRA) THEN POS = POS+1; /* insert a space */

   8772  1 001116   200062 235100                    LDA     POS,,AUTO
         1 001117   000070 115007                    CMPA    56,DL
         1 001120   001122 605000 1                  TPL     s:8772+4

   8772  1 001121   200062 054100                    AOS     POS,,AUTO
         1 001122   001124 710000 1                  TRA     s:8776

      253     8773
      254     8774    2   ADD_STR_NS: ENTRY (STR, STRL);

   8774  1 001123   200070 741300       ADD_STR_NS   STX1  ! SRCL+1,,AUTO

      255     8775
      256     8776    2        IF POS+STRL<=LENGTHC(VARIABLE.EXTRA)

   8776  1 001124   200072 470500                    LDP0    @STRL,,AUTO
         1 001125   200062 236100                    LDQ     POS,,AUTO
         1 001126   000000 036100                    ADLQ    0,,PR0
         1 001127   000070 116007                    CMPQ    56,DL
         1 001130   001144 605400 1                  TPNZ    s:8781

      257     8777    3        THEN DO;

      258     8778    3             SUBSTR (VARIABLE.EXTRA, POS, STRL) = STR;

   8778  1 001131   000000 720100                    LXL0    0,,PR0
         1 001132   000000 722100                    LXL2    0,,PR0
PL6.E3A0      #001=DDA$NAME File=DDA$NAME.:E05TSI                                TUE 07/29/97 13:34 Page:49
         1 001133   200071 471500                    LDP1    @STR,,AUTO
         1 001134   200062 235100                    LDA     POS,,AUTO
         1 001135   040145 100540                    MLR     fill='040'O
         1 001136   100000 000012                    ADSC9   0,,PR1                   cn=0,n=*X2
         1 001137   200041 000010                    ADSC9   OUTBUF+6,A,AUTO          cn=0,n=*X0

      259     8779    3             POS = POS + STRL;

   8779  1 001140   200062 236100                    LDQ     POS,,AUTO
         1 001141   000000 036100                    ADLQ    0,,PR0
         1 001142   200062 756100                    STQ     POS,,AUTO

      260     8780    3           END;

   8780  1 001143   001160 710000 1                  TRA     s:8786

      261     8781    2        ELSE IF POS<LENGTHC(VARIABLE.EXTRA)

   8781  1 001144   200062 235100                    LDA     POS,,AUTO
         1 001145   000070 115007                    CMPA    56,DL
         1 001146   001160 605000 1                  TPL     s:8786

      262     8782    3             THEN DO;

      263     8783    3                  SUBSTR (VARIABLE.EXTRA, POS) = STR;

   8783  1 001147   000000 720100                    LXL0    0,,PR0
         1 001150   777707 622005                    EAX2    -57,AL
         1 001151   777777 662003                    ERX2    -1,DU
         1 001152   200071 471500                    LDP1    @STR,,AUTO
         1 001153   040145 100540                    MLR     fill='040'O
         1 001154   100000 000010                    ADSC9   0,,PR1                   cn=0,n=*X0
         1 001155   200041 000012                    ADSC9   OUTBUF+6,A,AUTO          cn=0,n=*X2

      264     8784    3                  POS = LENGTHC(VARIABLE.EXTRA);

   8784  1 001156   000070 236007                    LDQ     56,DL
PL6.E3A0      #001=DDA$NAME File=DDA$NAME.:E05TSI                                TUE 07/29/97 13:34 Page:50
         1 001157   200062 756100                    STQ     POS,,AUTO

      265     8785    3                END;

      266     8786    2   END;

   8786  1 001160   200070 221300                    LDX1  ! SRCL+1,,AUTO
         1 001161   000001 702211                    TSX2  ! 1,X1

      267     8787
      268     8788    1   ADD_STR_N_LEN: PROC (STR, STRL);

   8788  1 001162   200064 741300       ADD_STR_N_L* STX1  ! POS+2,,AUTO

      269     8789
      270     8790    2   DCL STR CHAR(STRL);
      271     8791    2   DCL STRL SBIN;
      272     8792
      273     8793    2        CALL ADD_STR (STR, STRL);

   8793  1 001163   200066 236100                    LDQ     @STRL,,AUTO
         1 001164   200072 756100                    STQ     @STRL,,AUTO
         1 001165   200065 236100                    LDQ     @STR,,AUTO
         1 001166   200071 756100                    STQ     @STR,,AUTO
         1 001167   001115 701000 1                  TSX1    ADD_STR
         1 001170   000000 011000                    NOP     0

      274     8794    2        IF NOT B$VREBL.SZTYP

   8794  1 001171   200007 470500                    LDP0    VL$,,AUTO
         1 001172   000001 236100                    LDQ     1,,PR0
         1 001173   000400 316007                    CANQ    256,DL
         1 001174   001242 601000 1                  TNZ     s:8803

      275     8795    3        THEN DO;

      276     8796    3             CALL ADD_STR_NS ('(', 1);
PL6.E3A0      #001=DDA$NAME File=DDA$NAME.:E05TSI                                TUE 07/29/97 13:34 Page:51

   8796  1 001175   000014 236000 2                  LDQ     12
         1 001176   200072 756100                    STQ     @STRL,,AUTO
         1 001177   000036 236000 2                  LDQ     30
         1 001200   200071 756100                    STQ     @STR,,AUTO
         1 001201   001123 701000 1                  TSX1    ADD_STR_NS
         1 001202   000000 011000                    NOP     0

      277     8797    3             VAL = B$VREBL.LOGSIZ;

   8797  1 001203   200007 470500                    LDP0    VL$,,AUTO
         1 001204   000001 236100                    LDQ     1,,PR0
         1 001205   000022 772000                    QRL     18
         1 001206   200011 756100                    STQ     VAL,,AUTO

      278     8798    3             CALL DDR$BINTXT (ADDR(CHAR16), VAL, %UINT_FMT, LEN);

   8798  1 001207   200013 631500                    EPPR1   CHAR16,,AUTO
         1 001210   200076 451500                    STP1    WL+1,,AUTO
         1 001211   200012 633500                    EPPR3   LEN,,AUTO
         1 001212   200103 453500                    STP3    WL+6,,AUTO
         1 001213   000005 236000 2                  LDQ     5
         1 001214   200102 756100                    STQ     WL+5,,AUTO
         1 001215   200011 634500                    EPPR4   VAL,,AUTO
         1 001216   200101 454500                    STP4    WL+4,,AUTO
         1 001217   200076 635500                    EPPR5   WL+1,,AUTO
         1 001220   200100 455500                    STP5    WL+3,,AUTO
         1 001221   200100 630500                    EPPR0   WL+3,,AUTO
         1 001222   000022 631400 xsym               EPPR1   B_VECTNIL+18
         1 001223   000000 701000 xent               TSX1    DDR$BINTXT
         1 001224   000000 011000                    NOP     0

      279     8799    3             CALL ADD_STR_NS (CHAR16, LEN);

   8799  1 001225   200012 630500                    EPPR0   LEN,,AUTO
         1 001226   200072 450500                    STP0    @STRL,,AUTO
         1 001227   200013 631500                    EPPR1   CHAR16,,AUTO
PL6.E3A0      #001=DDA$NAME File=DDA$NAME.:E05TSI                                TUE 07/29/97 13:34 Page:52
         1 001230   200071 451500                    STP1    @STR,,AUTO
         1 001231   001123 701000 1                  TSX1    ADD_STR_NS
         1 001232   000000 011000                    NOP     0

      280     8800    3             CALL ADD_STR_NS (')', 1);

   8800  1 001233   000014 236000 2                  LDQ     12
         1 001234   200072 756100                    STQ     @STRL,,AUTO
         1 001235   000015 236000 2                  LDQ     13
         1 001236   200071 756100                    STQ     @STR,,AUTO
         1 001237   001123 701000 1                  TSX1    ADD_STR_NS
         1 001240   000000 011000                    NOP     0

      281     8801    3           END;

   8801  1 001241   001250 710000 1                  TRA     s:8806

      282     8802    3        ELSE DO;

      283     8803    3             CALL ADD_STR_NS ('(*)', 3);

   8803  1 001242   000006 236000 2                  LDQ     6
         1 001243   200072 756100                    STQ     @STRL,,AUTO
         1 001244   000037 236000 2                  LDQ     31
         1 001245   200071 756100                    STQ     @STR,,AUTO
         1 001246   001123 701000 1                  TSX1    ADD_STR_NS
         1 001247   000000 011000                    NOP     0

      284     8804    3           END;

      285     8805
      286     8806    2   END;

   8806  1 001250   200064 221300                    LDX1  ! POS+2,,AUTO
         1 001251   000001 702211                    TSX2  ! 1,X1

      287     8807        %EJECT;
PL6.E3A0      #001=DDA$NAME File=DDA$NAME.:E05TSI                                TUE 07/29/97 13:34 Page:53
      288     8808    1   CONVERT_TO_WADDR: PROC (VALUE, STR);

   8808  1 001252   200064 741300       CONVERT_TO_* STX1  ! POS+2,,AUTO

      289     8809    2   DCL VALUE SBIN;
      290     8810    2   DCL STR CHAR(7) CALIGNED;
      291     8811
      292     8812        %INCLUDE B_MICROPS_C;
      293     8984    2   DCL TRIM_MOP(0:4) BIT(9) UNAL CONSTANT INIT (%LTE5,'056'O,%MFLC5,%ENF10,%MVC1);
      294     8985
      295     8986    2   DCL DDR$BINOCT ENTRY(2);
      296     8987    2   DCL DFR$BINHEX ENTRY(4);
      297     8988
      298     8989    2        IF S_D.ONE_TO_TWO.EXEC_DOMAIN = %HOST

   8989  1 001253   000000 470400 xsym               LDP0    S_D$
         1 001254   006714 235100                    LDA     3532,,PR0
         1 001255   000001 115007                    CMPA    1,DL
         1 001256   001275 601000 1                  TNZ     s:8995

      299     8990    3        THEN DO;

      300     8991    3             CALL DDR$BINOCT (CHAR16, VALUE);

   8991  1 001257   200065 236100                    LDQ     @VALUE,,AUTO
         1 001260   200077 756100                    STQ     WL+2,,AUTO
         1 001261   200013 631500                    EPPR1   CHAR16,,AUTO
         1 001262   200076 451500                    STP1    WL+1,,AUTO
         1 001263   200076 630500                    EPPR0   WL+1,,AUTO
         1 001264   000020 631400 xsym               EPPR1   B_VECTNIL+16
         1 001265   000000 701000 xent               TSX1    DDR$BINOCT
         1 001266   000000 011000                    NOP     0

      301     8992    3             CALL EDITSTR (STR,,, TRIM_MOP, SUBSTR (CHAR16,6,6));

   8992  1 001267   200066 470500                    LDP0    @STR,,AUTO
         1 001270   100000 020500                    MVE
PL6.E3A0      #001=DDA$NAME File=DDA$NAME.:E05TSI                                TUE 07/29/97 13:34 Page:54
         1 001271   200014 400006                    ADSC9   CHAR16+1,,AUTO           cn=2,n=6
         1 001272   000116 000005 0                  ADSC9   TRIM_MOP                 cn=0,n=5
         1 001273   000000 000007                    ADSC9   0,,PR0                   cn=0,n=7

      302     8993    3           END;

   8993  1 001274   001312 710000 1                  TRA     s:8999

      303     8994    3        ELSE DO;

      304     8995    3             CALL DFR$BINHEX (VALUE, CHAR16);

   8995  1 001275   200013 631500                    EPPR1   CHAR16,,AUTO
         1 001276   200077 451500                    STP1    WL+2,,AUTO
         1 001277   200065 236100                    LDQ     @VALUE,,AUTO
         1 001300   200076 756100                    STQ     WL+1,,AUTO
         1 001301   200076 630500                    EPPR0   WL+1,,AUTO
         1 001302   000020 631400 xsym               EPPR1   B_VECTNIL+16
         1 001303   000000 701000 xent               TSX1    DFR$BINHEX
         1 001304   000000 011000                    NOP     0

      305     8996    3             CALL EDITSTR (STR,,, TRIM_MOP, SUBSTR (CHAR16,2,6));

   8996  1 001305   200066 470500                    LDP0    @STR,,AUTO
         1 001306   100000 020500                    MVE
         1 001307   200013 400006                    ADSC9   CHAR16,,AUTO             cn=2,n=6
         1 001310   000116 000005 0                  ADSC9   TRIM_MOP                 cn=0,n=5
         1 001311   000000 000007                    ADSC9   0,,PR0                   cn=0,n=7

      306     8997    3           END;

      307     8998
      308     8999    2        RETURN;

   8999  1 001312   200064 221300                    LDX1  ! POS+2,,AUTO
         1 001313   000001 702211                    TSX2  ! 1,X1

PL6.E3A0      #001=DDA$NAME File=DDA$NAME.:E05TSI                                TUE 07/29/97 13:34 Page:55
      309     9000
      310     9001    2   END CONVERT_TO_WADDR;
      311     9002        %EJECT;
PL6.E3A0      #001=DDA$NAME File=DDA$NAME.:E05TSI                                TUE 07/29/97 13:34 Page:56
      312     9003        /*D*   NAME:   WILDCMPR
      313     9004               CALL:   CALL WILDCMPR(str_textc, wild_textc) ALTRET (unequal);
      314     9005               INTERFACE: none.
      315     9006               INPUT:  STR_TEXTC - a textc string of the string to match.
      316     9007                       WILD_TEXTC - the wildcarded textc string to match.
      317     9008               OUTPUT: none.
      318     9009               DESCRIPTION: The specified character string is checked to see
      319     9010                       if it matches the wildcarded string - ('?' matched).
      320     9011                       If so return, else altreturn.
      321     9012        */
      322     9013        /****************************************************************************/
      323     9014    1   WILDCMPR: PROC(SRC_STR,WILD_STR) ALTRET;

   9014  1 001314   200064 741300       WILDCMPR     STX1  ! POS+2,,AUTO

      324     9015                   %INCLUDE B_MACROS_C;
      325     9126
      326     9127        %B$DNAME (NAME=SRC_STR, STCLASS=);
      327     9146        %TEXTC (NAME=WILD_STR, STCLASS=);
      328     9151
      329     9152    2   DCL SRCL SBIN;
      330     9153    2   DCL WILDL SBIN;
      331     9154    2   DCL SRC$ PTR;
      332     9155    2   DCL WILD$ PTR;
      333     9156    2   DCL SRC CHAR(SRCL) BASED (SRC$);
      334     9157    2   DCL WILD CHAR(WILDL) BASED (WILD$);
      335     9158
      336     9159    2   DCL QI SBIN;
      337     9160    2   DCL SI SBIN;
      338     9161    2   DCL WL SBIN;
      339     9162
      340     9163    2        UNMATCHED_OR_WILD = '0'B;

   9163  1 001315   200021 450100                    STZ     UNMATCHED_OR_WILD,,AUTO

      341     9164    2        SRCL = SRC_STR.COUNT;

PL6.E3A0      #001=DDA$NAME File=DDA$NAME.:E05TSI                                TUE 07/29/97 13:34 Page:57
   9164  1 001316   200065 470500                    LDP0    @SRC_STR,,AUTO
         1 001317   000000 236100                    LDQ     0,,PR0
         1 001320   000022 772000                    QRL     18
         1 001321   200067 756100                    STQ     SRCL,,AUTO

      342     9165    2        WILDL = WILD_STR.SIZ;

   9165  1 001322   200066 471500                    LDP1    @WILD_STR,,AUTO
         1 001323   000100 101500                    MRL     fill='000'O
         1 001324   100000 000001                    ADSC9   0,,PR1                   cn=0,n=1
         1 001325   200070 000004                    ADSC9   WILDL,,AUTO              cn=0,n=4

      343     9166    2        SRC$ = ADDR (SRC_STR.TEXT);

   9166  1 001326   200065 236100                    LDQ     @SRC_STR,,AUTO
         1 001327   400000 036007                    ADLQ    -131072,DL
         1 001330   200071 756100                    STQ     SRC$,,AUTO

      344     9167    2        WILD$ = ADDR (WILD_STR.TEXT);

   9167  1 001331   200066 236100                    LDQ     @WILD_STR,,AUTO
         1 001332   200000 036007                    ADLQ    65536,DL
         1 001333   200072 756100                    STQ     WILD$,,AUTO

      345     9168
      346     9169    2        CALL INDEX (QI, '?', WILD)

   9169  1 001334   200072 473500                    LDP3    WILD$,,AUTO
         1 001335   200070 720100                    LXL0    WILDL,,AUTO
         1 001336   000000 124540                    SCM     mask='000'O
         1 001337   300000 000010                    ADSC9   0,,PR3                   cn=0,n=*X0
         1 001340   000040 000001 2                  ADSC9   32                       cn=0,n=1
         1 001341   200073 000100                    ARG     QI,,AUTO
         1 001342   001344 606400 1                  TTN     s:9171
         1 001343   001356 710000 1                  TRA     s:9174

      347     9170    3        WHENALTRETURN DO;
PL6.E3A0      #001=DDA$NAME File=DDA$NAME.:E05TSI                                TUE 07/29/97 13:34 Page:58

      348     9171    3             IF SRC ~= WILD THEN GOTO FAIL;

   9171  1 001344   200071 470500                    LDP0    SRC$,,AUTO
         1 001345   200067 720100                    LXL0    SRCL,,AUTO
         1 001346   200072 471500                    LDP1    WILD$,,AUTO
         1 001347   200070 721100                    LXL1    WILDL,,AUTO
         1 001350   040140 106540                    CMPC    fill='040'O
         1 001351   000000 000010                    ADSC9   0,,PR0                   cn=0,n=*X0
         1 001352   100000 000011                    ADSC9   0,,PR1                   cn=0,n=*X1
         1 001353   001470 601000 1                  TNZ     FAIL

      349     9172    3             RETURN;

   9172  1 001354   200064 221300                    LDX1  ! POS+2,,AUTO
         1 001355   000001 702211                    TSX2  ! 1,X1

      350     9173    3           END;
      351     9174    2        UNMATCHED_OR_WILD = '1'B;          /* for the WILD part */

   9174  1 001356   400000 236003                    LDQ     -131072,DU
         1 001357   200021 756100                    STQ     UNMATCHED_OR_WILD,,AUTO

      352     9175    2        IF (QI>0) AND (SUBSTR(SRC,0,QI) ~= SUBSTR(WILD,0,QI)) THEN GOTO FAIL;

   9175  1 001360   200073 235100                    LDA     QI,,AUTO
         1 001361   001371 604400 1                  TMOZ    s:9176
         1 001362   200071 474500                    LDP4    SRC$,,AUTO
         1 001363   000000 622005                    EAX2    0,AL
         1 001364   200073 723100                    LXL3    QI,,AUTO
         1 001365   040140 106540                    CMPC    fill='040'O
         1 001366   400000 000012                    ADSC9   0,,PR4                   cn=0,n=*X2
         1 001367   300000 000013                    ADSC9   0,,PR3                   cn=0,n=*X3
         1 001370   001470 601000 1                  TNZ     FAIL

      353     9176    2        SI = QI;

PL6.E3A0      #001=DDA$NAME File=DDA$NAME.:E05TSI                                TUE 07/29/97 13:34 Page:59
   9176  1 001371   200073 235100                    LDA     QI,,AUTO
         1 001372   200074 755100                    STA     SI,,AUTO

      354     9177    3        DO WHILE (QI < WILDL);

   9177  1 001373   200073 236100                    LDQ     QI,,AUTO
         1 001374   200070 116100                    CMPQ    WILDL,,AUTO
         1 001375   001466 605000 1                  TPL     s:9198

      355     9178    3             QI = QI+1;                    /* SKIP OVER TO '?' */

   9178  1 001376   200073 054100                    AOS     QI,,AUTO

      356     9179    3             IF QI = WILDL THEN RETURN;    /* '?' IN LAST POSITION */

   9179  1 001377   200073 236100                    LDQ     QI,,AUTO
         1 001400   200070 116100                    CMPQ    WILDL,,AUTO
         1 001401   001404 601000 1                  TNZ     s:9180

   9179  1 001402   200064 221300                    LDX1  ! POS+2,,AUTO
         1 001403   000001 702211                    TSX2  ! 1,X1

      357     9180    3             CALL INDEX (WL, '?', SUBSTR (WILD, QI))

   9180  1 001404   200070 236100                    LDQ     WILDL,,AUTO
         1 001405   200073 136100                    SBLQ    QI,,AUTO
         1 001406   200072 470500                    LDP0    WILD$,,AUTO
         1 001407   000000 620006                    EAX0    0,QL
         1 001410   200073 235100                    LDA     QI,,AUTO
         1 001411   000000 124545                    SCM     mask='000'O
         1 001412   000000 000010                    ADSC9   0,A,PR0                  cn=0,n=*X0
         1 001413   000040 000001 2                  ADSC9   32                       cn=0,n=1
         1 001414   200075 000100                    ARG     WL,,AUTO
         1 001415   001440 606400 1                  TTN     s:9190

      358     9181    4             WHENRETURN DO;                /* a '?' still exists */

PL6.E3A0      #001=DDA$NAME File=DDA$NAME.:E05TSI                                TUE 07/29/97 13:34 Page:60
      359     9182    4                  IF (WL > 0)

   9182  1 001416   200075 236100                    LDQ     WL,,AUTO
         1 001417   001437 604400 1                  TMOZ    s:9188

      360     9183    5                  THEN DO;

      361     9184    5                       CALL INDEX (SI, SUBSTR (WILD,QI,WL), SRC, SI) ALTRET (FAIL);

   9184  1 001420   200074 631500                    EPPR1   SI,,AUTO
         1 001421   000000 633500                    EPPR3   0,,PR0
         1 001422   300000 500505                    A9BD    0,AL,PR3
         1 001423   000000 623006                    EAX3    0,QL
         1 001424   200071 470500                    LDP0    SRC$,,AUTO
         1 001425   200067 720100                    LXL0    SRCL,,AUTO
         1 001426   200074 236100                    LDQ     SI,,AUTO
         1 001427   000000 701000 xent               TSX1    X66_INDEX
         1 001430   001470 710000 1                  TRA     FAIL

      362     9185    5                       SI = SI+WL;

   9185  1 001431   200074 236100                    LDQ     SI,,AUTO
         1 001432   200075 036100                    ADLQ    WL,,AUTO
         1 001433   200074 756100                    STQ     SI,,AUTO

      363     9186    5                       QI = QI+WL;

   9186  1 001434   200073 236100                    LDQ     QI,,AUTO
         1 001435   200075 036100                    ADLQ    WL,,AUTO
         1 001436   200073 756100                    STQ     QI,,AUTO

      364     9187    5                     END;

      365     9188    4                END;

   9188  1 001437   001463 710000 1                  TRA     s:9197

PL6.E3A0      #001=DDA$NAME File=DDA$NAME.:E05TSI                                TUE 07/29/97 13:34 Page:61
      366     9189    4             WHENALTRETURN DO;             /* no more '?'s in string */

      367     9190    4                  IF (WL > 0) AND

   9190  1 001440   200075 235100                    LDA     WL,,AUTO
         1 001441   001461 604400 1                  TMOZ    s:9195
         1 001442   200067 236100                    LDQ     SRCL,,AUTO
         1 001443   200074 136100                    SBLQ    SI,,AUTO
         1 001444   200075 116100                    CMPQ    WL,,AUTO
         1 001445   001470 604000 1                  TMI     FAIL
         1 001446   200067 236100                    LDQ     SRCL,,AUTO
         1 001447   200075 136100                    SBLQ    WL,,AUTO
         1 001450   200071 470500                    LDP0    SRC$,,AUTO
         1 001451   000000 620005                    EAX0    0,AL
         1 001452   200072 471500                    LDP1    WILD$,,AUTO
         1 001453   200075 721100                    LXL1    WL,,AUTO
         1 001454   200073 235100                    LDA     QI,,AUTO
         1 001455   040145 106546                    CMPC    fill='040'O
         1 001456   000000 000010                    ADSC9   0,Q,PR0                  cn=0,n=*X0
         1 001457   100000 000011                    ADSC9   0,A,PR1                  cn=0,n=*X1
         1 001460   001470 601000 1                  TNZ     FAIL

      368     9191    4                    ((WL > SRCL - SI) OR
      369     9192    4                    (SUBSTR (SRC, SRCL - WL, WL) ~= SUBSTR (WILD, QI, WL)))
      370     9193    4                  THEN
      371     9194    4                       GOTO FAIL;
      372     9195    4                  RETURN;

   9195  1 001461   200064 221300                    LDX1  ! POS+2,,AUTO
         1 001462   000001 702211                    TSX2  ! 1,X1

      373     9196    4                END;
      374     9197    3           END;                            /* DO WHILE (QI < WILDL); */

   9197  1 001463   200073 236100                    LDQ     QI,,AUTO
         1 001464   200070 116100                    CMPQ    WILDL,,AUTO
         1 001465   001376 604000 1                  TMI     s:9178
PL6.E3A0      #001=DDA$NAME File=DDA$NAME.:E05TSI                                TUE 07/29/97 13:34 Page:62

      375     9198    2        RETURN;

   9198  1 001466   200064 221300                    LDX1  ! POS+2,,AUTO
         1 001467   000001 702211                    TSX2  ! 1,X1

      376     9199
      377     9200    2   FAIL:
      378     9201    2        UNMATCHED_OR_WILD = '1'B;          /* for the UNMATCHED part */

   9201  1 001470   400000 236003       FAIL         LDQ     -131072,DU
         1 001471   200021 756100                    STQ     UNMATCHED_OR_WILD,,AUTO

      379     9202    2        ALTRETURN;

   9202  1 001472   200064 221300                    LDX1  ! POS+2,,AUTO
         1 001473   000000 702211                    TSX2  ! 0,X1

NY
 Sect OctLoc
   0     000   116157 040131   145163 ******                                    No Yes..

CSTS
 Sect OctLoc
   0     002   123164 144040   040116 123164   144040 115141   151156 040101    Std  NStd Main A
   0     006   163171 156143   106165 156143   040123 164144   040040 116123    syncFunc Std  NS
   0     012   164144 040115   141151 156040   101163 171156   143106 165156    td Main AsyncFun
   0     016   143040 052102   125107 052052   102125 107052   052102 125107    c *BUG**BUG**BUG
   0     022   052107 103117   123040 107103   117123 040116   103141 154154    *GCOS GCOS NCall

ADDRS
 Sect OctLoc
   0     026   040040 040040   040040 040040   040040 040040   040040 040040
   0     032   040040 040040   040040 040101   125124 117044   040053 040040           AUTO$ +
   0     036   102101 123105   104044 040053   040040 040040   104103 102044    BASED$ +    DCB$
   0     042   040053 040040   120101 122101   115044 040053   040040 040103     +  PARAM$ +   C
   0     046   117116 123124   040055 040123   120101 122101   115044 040053    ONST - SPARAM$ +
PL6.E3A0      #001=DDA$NAME File=DDA$NAME.:E05TSI                                TUE 07/29/97 13:34 Page:63
   0     052   101122 105101   104105 106044   040053 126111   122124 104105    AREADEF$ +VIRTDE
   0     056   123103 040100   040040 040040   040040 040040   040040 040040    SC @
   0     062   040040 040040   040040 040040   040040 040040   040040 040040
   0     072*  040040 040040   040040 040040   040040 040040   040040 040040

ADDROFF
 Sect OctLoc
   0     076   055060 040040   055061 040040   055062 040040   055063 040040    -0  -1  -2  -3
   0     102   055064 040040   055065 040040   055066 040040   055067 040040    -4  -5  -6  -7
   0     106   055070 040040   055071 040040   055061 060040   055061 061040    -8  -9  -10 -11
   0     112   055061 062040   055061 063040   055061 064040   055061 065040    -12 -13 -14 -15

TRIM_MOP
 Sect OctLoc
   0     116   405056 165050   321*** ******                                    ..u(....

(unnamed)
 Sect OctLoc
   0     120   040114 117103   040040 040040   103124 131120   105040 120122     LOC    CTYPE PR
   0     124   111115 101122   131040 101114   124122 105124   040116 120101    IMARY ALTRET NPA
   0     130   122101 115040   116101 115105   050060 072040   050061 072040    RAM NAME(0: (1:
   0     134   050043 104111   115123 075040   123102 111116   125102 111116    (#DIMS= SBINUBIN
   0     140   120124 122040   102111 124040   103110 101122   126105 103124    PTR BIT CHARVECT
   0     144   117122 040040   105120 124122   122105 115105   115102 105122    OR  EPTRREMEMBER
   0     150   104101 114111   107116 105104   110101 114111   107116 105104    DALIGNEDHALIGNED
   0     154   103101 114111   107116 105104   125116 101114   116157 156145    CALIGNEDUNALNone
   0     160   050052 051040                                                    (*)

(unnamed)
 Sect OctLoc
   2     000   000000 000050   000000 006000   000000 000120   000002 006000    ...(.......P....
   2     004   000035 400000   000004 006000   000005 006000   000132 006000    .............Z..
   2     010   000133 006000   000011 006000   000134 006000   051040 040040    .[.......\..)
   2     014   000003 006000   000013 006000   000006 006000   000136 006000    .............^..
   2     020   000137 006000   000140 006000   000141 006000   000142 006000    ._...`...a...b..
   2     024   000010 006000   000143 006000   000145 006000   000012 006000    .....c...e......
   2     030   000146 006000   000150 006000   000152 006000   000154 006000    .f...h...j...l..
PL6.E3A0      #001=DDA$NAME File=DDA$NAME.:E05TSI                                TUE 07/29/97 13:34 Page:64
   2     034   000156 006000   050040 040040   000035 006000   000160 006000    .n..(   .....p..
   2     040   077040 040040                                                    ?
      380     9203
      381     9204    2   END WILDCMPR;
      382     9205
      383     9206    1   END DDA$NAME;

PL6.E3A0      #001=DDA$NAME File=DDA$NAME.:E05TSI                                TUE 07/29/97 13:34 Page:65
--  Include file information  --

   B_MACROS_C.:E05TOU  is referenced.
   B_MICROPS_C.:E05TOU  is referenced.
   B$OBJECT_C.:E05TOU  is referenced.
   DD$BASED.:E05TOU  is referenced.
   DD_SRTN_C.:E05TOU  is referenced.
   DD_ACODE_C.:E05TOU  is referenced.
   DD_ICODE_C.:E05TOU  is referenced.
   DD$DITEM.:E05TOU  cannot be made into a system file and is referenced.
   DD_SD_M.:E05TOU  is referenced.
   XUH_MACRO_C.:E05TOU  is referenced.
   B$JIT_C.:E05TOU  was found in the system file and is never referenced.
   CP_6_C.:E05TOU  was found in the system file and is never referenced.
      No diagnostics issued in procedure DDA$NAME.

   Procedure DDA$NAME requires 828 words for executable code.
   Procedure DDA$NAME requires 70 words of local(AUTO) storage.

    No errors detected in file DDA$NAME.:E05TSI    .
PL6.E3A0      #001=DDA$NAME File=DDA$NAME.:E05TSI                                TUE 07/29/97 13:34 Page:66
          *** CROSS REFERENCE LISTING ***
**     DENOTES     IDENTIFIER DEFINITION
<<                 IDENTIFIER'S VALUE SET
>>                 IDENTIFIER'S VALUE USED
<>                 IDENTIFIER SET AND/OR USED
--                 IDENTIFIER REFERENCED
PL6.E3A0      #001=DDA$NAME File=DDA$NAME.:E05TSI                                TUE 07/29/97 13:34 Page:67
          MINI XREF LISTING

ADDROFF
      8615**DCL      8688>>ASSIGN   8691>>ASSIGN
ADDRS
      8610**DCL      8692>>ASSIGN
ADD_STR
      8767**PROC     8704--CALL     8705--CALL     8711--CALL     8712--CALL     8715--CALL     8724--CALL
      8729--CALL     8730--CALL     8731--CALL     8734--CALL     8735--CALL     8736--CALL     8737--CALL
      8793--CALL
ADD_STR_NS IN PROCEDURE ADD_STR
      8774**ENTRY    8718--CALL     8719--CALL     8796--CALL     8799--CALL     8800--CALL     8803--CALL
ADD_STR_N_LEN
      8788**PROC     8722--CALL     8723--CALL     8726--CALL     8728--CALL
B$DNAME
      8287**DCL      8670<>CALL
B$DNAME.COUNT
      8288**DCL      8295--IMP-SIZ  8670>>CALL     8705>>CALL     8705>>CALL
B$DNAME.TEXT
      8295**DCL      8705<>CALL     8705--CALL
B$EDEF
      8210**DCL      8652--ASSIGN
B$EDEF.ALT
      8243**DCL      8646>>ASSIGN
B$EDEF.CST
      8256**DCL      8644>>ASSIGN
B$EDEF.ISADDR
      8233**DCL      8642>>ASSIGN
B$EDEF.LFLAGS.SOURCE
      8215**DCL      8631>>IF
B$EDEF.NPARAM
      8276**DCL      8647>>CALLBLT  8648>>IF
B$EDEF.NPOINTER
      8235**DCL      8632>>ASSIGN
PL6.E3A0      #001=DDA$NAME File=DDA$NAME.:E05TSI                                TUE 07/29/97 13:34 Page:68
B$EDEF.OU
      8227**DCL      8233--REDEF
B$EDEF.PRI
      8238**DCL      8645>>ASSIGN
B$LOGBLK
      8463**DCL      8658--ASSIGN
B$LOGBLK.VAOFFST
      8485**DCL      8659>>ASSIGN
B$LOGBLK.VASIZE
      8489**DCL      8660>>ASSIGN
B$TEXTH
      8578**DCL      8633<>CALL
B$TEXTH.C
      8580**DCL      8641>>ASSIGN
B$TEXTH.L
      8579**DCL      8580--IMP-SIZ  8633>>CALL     8641>>ASSIGN
B$VREBL
      8299**DCL      8659--ASSIGN
B$VREBL.ADDRTYP
      8326**DCL      8692>>ASSIGN
B$VREBL.ADR
      8300**DCL      8312--REDEF
B$VREBL.ADR.B
      8310**DCL      8678>>ASSIGN
B$VREBL.ADR.C
      8308**DCL      8677>>ASSIGN
B$VREBL.ADR.W
      8306**DCL      8676>>ASSIGN
B$VREBL.ADR6.B
      8324**DCL      8683>>ASSIGN
B$VREBL.ADR6.C
      8322**DCL      8682>>ASSIGN
B$VREBL.ADR6.W
      8320**DCL      8681>>ASSIGN
B$VREBL.ALIGNTYP
      8372**DCL      8733>>DOCASE
PL6.E3A0      #001=DDA$NAME File=DDA$NAME.:E05TSI                                TUE 07/29/97 13:34 Page:69
B$VREBL.ARRAYTYP
      8387**DCL      8707>>IF       8710>>DOCASE   8743>>IF       8743>>IF       8747>>IF
B$VREBL.DATATYP
      8350**DCL      8664>>IF       8694>>IF       8694>>IF       8721>>DOCASE   8750>>IF       8750>>IF
B$VREBL.DIMS
      8453**DCL      8709>>ASSIGN   8746>>ASSIGN   8749>>ASSIGN
B$VREBL.LEVEL
      8369**DCL      8665>>ASSIGN
B$VREBL.LOGSIZ
      8361**DCL      8797>>ASSIGN
B$VREBL.NPOINTER
      8457**DCL      8666>>ASSIGN
B$VREBL.SZTYP
      8381**DCL      8794>>IF
BUG
      8764**LABEL    8667--CALLALT
B_OFF
        37**DCL      8678<<ASSIGN   8683<<ASSIGN   8686>>IF       8689>>IF       8691>>ASSIGN
CHAR16
        31**DCL      8717--CALL     8718<>CALL     8798--CALL     8799<>CALL     8991<>CALL     8992>>CALLBLT
      8995<>CALL     8996>>CALLBLT
CHAR2
      8602**DCL      8693<<ASSIGN   8698<<CALLBLT  8701<<ASSIGN   8704<>CALL
CONVERT_TO_WADDR
      8808**PROC     8643--CALL     8685--CALL
CSTS
      8607**DCL      8644>>ASSIGN
C_OFF
        36**DCL      8677<<ASSIGN   8682<<ASSIGN   8686>>IF       8688>>ASSIGN
DDB$BREAK
      8619**DCL-ENT  8630--CALL     8662--CALL
DDF$DBG_#
      8621**DCL-ENT  8667--CALL
DDF$VREBL_#
      8620**DCL-ENT  8663--CALL
DDQ$WRITE
PL6.E3A0      #001=DDA$NAME File=DDA$NAME.:E05TSI                                TUE 07/29/97 13:34 Page:70
      8622**DCL-ENT  8637--CALL     8651--CALL     8739--CALL     8760--CALL
DDR$BINOCT IN PROCEDURE CONVERT_TO_WADDR
      8986**DCL-ENT  8991--CALL
DDR$BINTXT
        30**DCL-ENT  8717--CALL     8798--CALL
DFR$BINHEX IN PROCEDURE CONVERT_TO_WADDR
      8987**DCL-ENT  8995--CALL
DONT_PRINT_VAR
      8740**LABEL    8664--GOTO     8670--CALLALT  8672--GOTO
D_SYMBOLS
        39**DCL      8627>>IF
ENTDEF
      8583**DCL      8651--CALL     8651--CALL
ENTDEF.ARET
      8590**DCL      8646<<ASSIGN
ENTDEF.CTYPE
      8586**DCL      8644<<ASSIGN
ENTDEF.LOCATION
      8584**DCL      8643<>CALL
ENTDEF.NAME
      8594**DCL      8641<<ASSIGN
ENTDEF.NUM
      8592**DCL      8647<<CALLBLT  8650<<ASSIGN
ENTDEF.PRIMARY
      8588**DCL      8645<<ASSIGN
FAIL IN PROCEDURE WILDCMPR
      9201**LABEL    9171--GOTO     9175--GOTO     9184--CALLALT  9194--GOTO
I
      8603**DCL      8709<<ASSIGN   8711<<ASSIGN   8711>>ASSIGN   8717<>CALL
ISADDR
      8604**DCL      8642<<ASSIGN   8643<>CALL     8676<<ASSIGN   8681<<ASSIGN   8685<>CALL
LB$
        27**DCL      8463--IMP-PTR  8658<<ASSIGN   8659>>ASSIGN   8660>>ASSIGN
LEN
        29**DCL      8717<>CALL     8718<>CALL     8798<>CALL     8799<>CALL
LVL
PL6.E3A0      #001=DDA$NAME File=DDA$NAME.:E05TSI                                TUE 07/29/97 13:34 Page:71
        33**DCL      8665<<ASSIGN   8668>>IF       8694>>IF       8698>>CALLBLT  8699>>IF       8703>>ASSIGN
NAME$
      8577**DCL      8632<<ASSIGN   8633>>CALL     8633>>CALL     8641>>ASSIGN   8641>>ASSIGN   8667<>CALL
      8670>>CALL     8670>>CALL     8705>>CALL     8705>>CALL     8705>>CALL     8705>>CALL
NAME$CMD.ENTDEFS
      4773**DCL      8625>>IF
NAME$CMD.TEXTC
      4774**DCL      8633<>CALL     8670<>CALL
NAME_VARS
      8651**LABEL    8625--GOTO
NEXT_EDEF
      8652**LABEL    8631--GOTO     8633--CALLALT
NONE
        34**DCL      8624<<ASSIGN   8634>>IF       8639<<ASSIGN   8740<<ASSIGN   8757>>IF
NP#
        23**DCL      8666<<ASSIGN   8667<>CALL
NY
      8606**DCL      8645>>ASSIGN   8646>>ASSIGN
OUTBUF
      8582**DCL      8583--REDEF    8595--REDEF    8636<<ASSIGN   8637--CALL     8638<<ASSIGN   8673<<ASSIGN
      8759<<ASSIGN   8760--CALL
POS
      8605**DCL      8703<<ASSIGN   8706>>IF       8706<<ASSIGN   8739>>CALL     8772>>IF       8772<<ASSIGN
      8772>>ASSIGN   8776>>IF       8778>>ASSIGN   8779<<ASSIGN   8779>>ASSIGN   8781>>IF       8783>>ASSIGN
      8784<<ASSIGN
QI IN PROCEDURE WILDCMPR
      9159**DCL      9169<<CALLBLT  9175>>IF       9175>>IF       9175>>IF       9176>>ASSIGN   9177>>DOWHILE
      9178<<ASSIGN   9178>>ASSIGN   9179>>IF       9180>>CALLBLT  9184>>CALLBLT  9186<<ASSIGN   9186>>ASSIGN
      9190>>IF
RETN
      8757**LABEL    8627--GOTO     8630--CALLALT  8654--GOTO     8657--GOTO     8662--CALLALT  8663--CALLALT
SI IN PROCEDURE WILDCMPR
      9160**DCL      9176<<ASSIGN   9184<<CALLBLT  9184>>CALLBLT  9185<<ASSIGN   9185>>ASSIGN   9190>>IF
SRC IN PROCEDURE WILDCMPR
      9156**DCL      9171>>IF       9175>>IF       9184>>CALLBLT  9190>>IF
SRC$ IN PROCEDURE WILDCMPR
PL6.E3A0      #001=DDA$NAME File=DDA$NAME.:E05TSI                                TUE 07/29/97 13:34 Page:72
      9154**DCL      9156--IMP-PTR  9166<<ASSIGN   9171>>IF       9175>>IF       9184>>CALLBLT  9190>>IF
SRCL IN PROCEDURE WILDCMPR
      9152**DCL      9156--IMP-SIZ  9164<<ASSIGN   9171>>IF       9175>>IF       9184>>CALLBLT  9190>>IF
      9190>>IF       9190>>IF
SRC_STR IN PROCEDURE WILDCMPR
      9135**DCL      9014--PROC
SRC_STR.COUNT IN PROCEDURE WILDCMPR
      9136**DCL      9143--IMP-SIZ  9164>>ASSIGN
SRC_STR.TEXT IN PROCEDURE WILDCMPR
      9143**DCL      9166--ASSIGN
STR IN PROCEDURE ADD_STR
      8769**DCL      8767--PROC     8774--ENTRY    8778>>ASSIGN   8783>>ASSIGN
STR IN PROCEDURE ADD_STR_N_LEN
      8790**DCL      8788--PROC     8793<>CALL
STR IN PROCEDURE CONVERT_TO_WADDR
      8810**DCL      8808--PROC     8992<<CALLBLT  8996<<CALLBLT
STRL IN PROCEDURE ADD_STR
      8770**DCL      8767--PROC     8769--IMP-SIZ  8774--ENTRY    8776>>IF       8778>>ASSIGN   8778>>ASSIGN
      8779>>ASSIGN   8783>>ASSIGN
STRL IN PROCEDURE ADD_STR_N_LEN
      8791**DCL      8788--PROC     8790--IMP-SIZ  8793>>CALL     8793<>CALL
S_D.CURRENT_CHANNEL
      2413**DCL      2415--REDEF
S_D.DEBUGA
      1565**DCL      1567--REDEF
S_D.DNAME$
      1907**DCL      8632>>ASSIGN
S_D.DO$
      1516**DCL      8625>>IF       8633>>CALL     8670>>CALL
S_D.EDEF$
      1909**DCL      8627>>IF       8627>>IF       8628>>ASSIGN
S_D.EDEF_END$
      1913**DCL      8627>>IF       8629>>DOWHILE
S_D.EIS
      2523**DCL      2552--REDEF
S_D.HOST_MESSAGE_BUF_REMOTE
PL6.E3A0      #001=DDA$NAME File=DDA$NAME.:E05TSI                                TUE 07/29/97 13:34 Page:73
      2456**DCL      2457--REDEF    2471--REDEF
S_D.JDE
      2070**DCL      2071--REDEF
S_D.L$.VALUE
      1623**DCL      1629--REDEF    1637--REDEF    1640--REDEF    1643--REDEF    1646--REDEF
S_D.L$.VALUE.L
      1624**DCL      1625--REDEF    1626--REDEF
S_D.L6_MESSAGE_BUF
      2477**DCL      2479--REDEF
S_D.LB$
      1903**DCL      8658>>ASSIGN
S_D.ONE_TO_TWO.EXEC_DOMAIN
      2488**DCL      8674>>IF       8989>>IF
S_D.OUTPUT
      2443**DCL      2445--REDEF
S_D.QSCH.LB#
      1779**DCL      8658>>ASSIGN
S_D.QSCH.OK
      1769**DCL      8657>>IF
S_D.REMOTE_MSG.FNCC
      2462**DCL      2463--REDEF
S_D.REMOTE_MSG.STXC
      2458**DCL      2459--REDEF
S_D.REMOTE_MSG.SUBFNCC
      2466**DCL      2467--REDEF
S_D.SIM_UPDATE
      2580**DCL      8657>>IF
S_D.SV
      1522**DCL      1543--REDEF
S_D$
      2774**DCL      1470--IMP-PTR  8625>>IF       8627>>IF       8627>>IF       8627>>IF       8628>>ASSIGN
      8629>>DOWHILE  8632>>ASSIGN   8633>>CALL     8657>>IF       8657>>IF       8658>>ASSIGN   8658>>ASSIGN
      8670>>CALL     8674>>IF       8989>>IF
TEDEF$
      8576**DCL      8628<<ASSIGN   8629>>DOWHILE  8631>>IF       8632>>ASSIGN   8642>>ASSIGN   8644>>ASSIGN
      8645>>ASSIGN   8646>>ASSIGN   8647>>CALLBLT  8648>>IF       8652<<ASSIGN   8652>>ASSIGN
PL6.E3A0      #001=DDA$NAME File=DDA$NAME.:E05TSI                                TUE 07/29/97 13:34 Page:74
TRIM_MOP IN PROCEDURE CONVERT_TO_WADDR
      8984**DCL      8992>>CALLBLT  8996>>CALLBLT
UNMATCHED_OR_WILD
        35**DCL      8672>>IF       9163<<ASSIGN   9174<<ASSIGN   9201<<ASSIGN
VAL
        28**DCL      8797<<ASSIGN   8798<>CALL
VALUE IN PROCEDURE CONVERT_TO_WADDR
      8809**DCL      8808--PROC     8991<>CALL     8995<>CALL
VARIABLE
      8595**DCL      8739--CALL     8739--CALL
VARIABLE.BLOCATION
      8599**DCL      8691<<ASSIGN
VARIABLE.CLOCATION
      8598**DCL      8688<<ASSIGN
VARIABLE.EXTRA
      8601**DCL      8739--CALL     8772--IF       8776--IF       8778<<ASSIGN   8781--IF       8783<<ASSIGN
      8784--ASSIGN
VARIABLE.MODIFIER
      8596**DCL      8692<<ASSIGN
VARIABLE.WLOCATION
      8597**DCL      8685<>CALL
VL$
        26**DCL      8299--IMP-PTR  8663<>CALL     8664>>IF       8665>>ASSIGN   8666>>ASSIGN   8676>>ASSIGN
      8677>>ASSIGN   8678>>ASSIGN   8681>>ASSIGN   8682>>ASSIGN   8683>>ASSIGN   8692>>ASSIGN   8694>>IF
      8694>>IF       8707>>IF       8709>>ASSIGN   8710>>DOCASE   8721>>DOCASE   8733>>DOCASE   8743>>IF
      8743>>IF       8746>>ASSIGN   8747>>IF       8749>>ASSIGN   8750>>IF       8750>>IF       8794>>IF
      8797>>ASSIGN
VLEND
        24**DCL      8660<<ASSIGN   8661>>DOWHILE
VX
        22**DCL      8659<<ASSIGN   8660>>ASSIGN   8661>>DOWHILE  8663<>CALL     8742<<ASSIGN   8742>>ASSIGN
      8746<<ASSIGN   8746>>ASSIGN   8749<<ASSIGN   8749>>ASSIGN   8753<<ASSIGN   8753>>ASSIGN
WILD IN PROCEDURE WILDCMPR
      9157**DCL      9169>>CALLBLT  9171>>IF       9175>>IF       9180>>CALLBLT  9184>>CALLBLT  9190>>IF
WILD$ IN PROCEDURE WILDCMPR
      9155**DCL      9157--IMP-PTR  9167<<ASSIGN   9169>>CALLBLT  9171>>IF       9175>>IF       9180>>CALLBLT
PL6.E3A0      #001=DDA$NAME File=DDA$NAME.:E05TSI                                TUE 07/29/97 13:34 Page:75
      9184>>CALLBLT  9190>>IF
WILDCMPR
      9014**PROC     8633--CALL     8670--CALL
WILDL IN PROCEDURE WILDCMPR
      9153**DCL      9157--IMP-SIZ  9165<<ASSIGN   9169>>CALLBLT  9171>>IF       9175>>IF       9177>>DOWHILE
      9179>>IF       9180>>CALLBLT  9184>>CALLBLT  9190>>IF
WILD_STR IN PROCEDURE WILDCMPR
      9147**DCL      9014--PROC
WILD_STR.SIZ IN PROCEDURE WILDCMPR
      9148**DCL      9149--IMP-SIZ  9165>>ASSIGN
WILD_STR.TEXT IN PROCEDURE WILDCMPR
      9149**DCL      9167--ASSIGN
WL IN PROCEDURE WILDCMPR
      9161**DCL      9180<<CALLBLT  9182>>IF       9184>>CALLBLT  9185>>ASSIGN   9186>>ASSIGN   9190>>IF
      9190>>IF       9190>>IF       9190>>IF       9190>>IF
PL6.E3A0      #001=DDA$NAME File=DDA$NAME.:E05TSI                                TUE 07/29/97 13:34 Page:76
              *** CROSS REFERENCE LISTING ***
    **     DENOTES     IDENTIFIER DEFINITION
    <<                 IDENTIFIER'S VALUE SET
    >>                 IDENTIFIER'S VALUE USED
    <>                 IDENTIFIER SET AND/OR USED
    --                 IDENTIFIER REFERENCED
PL6.E3A0      #001=DDA$NAME File=DDA$NAME.:E05TSI                                TUE 07/29/97 13:34 Page:77
              MINI UREF LISTING

DDA$NAME      20**PROC
SDD$    2884**DCL
SDD_L6$    2886**DCL
T$      25**DCL
VFC_BEFORE    8581**DCL
ZITEM$    2885**DCL
ZITEM_L6$    2887**DCL
