VERSION E05

PL6.E3A0      #001=DDA$ON File=DDA$ON.:E05TSI                                    TUE 07/29/97 13:35 Page:1
        1        1        /*M* DDA$ON ON CALL ATTACHMENT DO ROUTINE */
        2        2        /*T***********************************************************/
        3        3        /*T*                                                         */
        4        4        /*T* Copyright (c) Bull HN Information Systems Inc., 1997    */
        5        5        /*T*                                                         */
        6        6        /*T***********************************************************/
        7        7        /*X* DMR,PLM=5,IND=5,CSU=3,EXM=0,ECU=3,MOC,DCI=5,CRT=5 */
        8        8        /*D*  NAME:  DDA$ON
        9        9              CALL:  CALL DDA$ON ALTRET(USERGO)
       10       10              INPUT:  S_D.FAULTCMD$ POINTS TO THE AT COMMAND.
       11       11              OUTPUT:  S_D.DO$ POINTS TO SECOND ATTACHMEND (OR SET NIL IF NONE)
       12       12              DESCRIPTION:  THE DEFAULT PROCEED MODE IS SET
       13       13                DEPENDING ON BATCH/ON-LINE.  (GO FOR BATCH, STOP FOR ON-LINE).
       14       14                THE 'IF' ROUTINE IS CALLED TO DETERMINE WHETHER THE
       15       15                CONDITION (IF ANY) WAS MET.  IF THE CONDITION
       16       16                WAS NOT MET, DDA$ON ALTRETURNS.
       17       17               IF THE CONDITION WAS MET, RETURN.
       18       18                */
       19       19        DDA$ON: PROC ALTRET;
       20       20    1   DCL NOGO_BIT BIT(1) ALIGNED;
       21       21    1   DCL DDA$IF ENTRY(1) ALTRET;
       22       22    1   DCL DDE$ERROR ENTRY;
       23       23        %INCLUDE DD_SUBS_C;
       24      294        %INCLUDE DD$BASED;
       25     1597        %AT_FIRST (NAME=ON_FIRST);
       26     1625        %FIXCOM (NAME="F$XCM");
       27     1641        %INCLUDE XUH_MACRO_C;
       28     1725        %INCLUDE DD_SD_M;
       29     3061        %S_D;
       30     4379                                                /**/
       31     4380    1        IF S_D.BATCH = '1'B                /* Set default proceed mode */
       32     4381    1        THEN S_D.STOP = '0'B;              /* go for batch             */
       33     4382    1        ELSE S_D.STOP = '1'B;              /* stop for on-line.        */
       34     4383                                                /* POINT TO FIRST ATTACHMENT */
       35     4384    1        S_D.DO$ = PINCRW(S_D.VARCOM$,S_D.FAULTCMD$->F$XCM.FAI);
       36     4385                                 /* POINT S_D.D$ TO 'CONDITION' IN PREPARATION FOR CALL
       37     4386                                 TO DDA$IF */
PL6.E3A0      #001=DDA$ON File=DDA$ON.:E05TSI                                    TUE 07/29/97 13:35 Page:2
       38     4387    1        S_D.D$ = PINCRW(S_D.DO$,SIZEW(ON_FIRST));
       39     4388                                                /* SEE IF CONDITION IS MET */
       40     4389    1        CALL DDA$IF(NOGO_BIT) ALTRET(ERR);
       41     4390    1        IF NOGO_BIT THEN ALTRETURN;
       42     4391    1        IF S_D.DO$ -> ON_FIRST.ATT_OFFSET = 0
       43     4392    1        THEN S_D.DO$ = ADDR(NIL);          /* NO ATTACHMENTS */
       44     4393    1        RETURN;
       45     4394    1   ERR: CALL DDE$ERROR; RETURN;
       46     4395    1   END DDA$ON;

PL6.E3A0      #001=DDA$ON File=DDA$ON.:E05TSI                                    TUE 07/29/97 13:35 Page:3
--  Include file information  --

   DD_SD_M.:E05TOU  is referenced.
   XUH_MACRO_C.:E05TOU  is referenced.
   DD$BASED.:E05TOU  is referenced.
   DD_SUBS_C.:E05TOU  is referenced.
   B$JIT_C.:E05TOU  was found in the system file and is never referenced.
   CP_6_C.:E05TOU  was found in the system file and is never referenced.
      No diagnostics issued in procedure DDA$ON.

   Procedure DDA$ON requires 37 words for executable code.
   Procedure DDA$ON requires 6 words of local(AUTO) storage.

    No errors detected in file DDA$ON.:E05TSI    .

PL6.E3A0      #001=DDA$ON File=DDA$ON.:E05TSI                                    TUE 07/29/97 13:35 Page:4

 Object Unit name= DDA$ON                                     File name= DDA$ON.:E05TOU
 UTS= JUL 29 '97 13:35:08.56 TUE                              Compiler= PL-6/E31         Sev=      00
 SharedLib= :SHARED_SYSTEM                                    Alt SharedLib=


    ****  Control sections  ****

 Sect   Type Bound  Init  Size OctSiz  Section name(segment info)
    0   Proc  even  none    37     45  DDA$ON

    ****  Entry defs  ****

                              Check   Calling
                             calling  sequence
  Sect OctLoc Primary Altret sequence   type   Parms  Name
     0      0   yes    yes     yes      Std        0  DDA$ON

  ****  Entry refs  ****

         Check        Calling
        calling       sequence
Altret sequence SRef   type   Args  Name
 yes     yes           Std       1 DDA$IF
         yes           Std       0 DDE$ERROR
                       nStd      0 X66_AUTO_0
                       Std       0 B_CONSPOOL_D
                       nStd      0 X66_AALT
                       nStd      0 X66_ARET

  ****  Data refs  ****

  Flags:  r = read only, s = secondary
Flgs Name                             Flgs Name                             Flgs Name
r    S_D$                                  B_VECTNIL
PL6.E3A0      #001=DDA$ON File=DDA$ON.:E05TSI                                    TUE 07/29/97 13:35 Page:5


        1        1        /*M* DDA$ON ON CALL ATTACHMENT DO ROUTINE */
        2        2        /*T***********************************************************/
        3        3        /*T*                                                         */
        4        4        /*T* Copyright (c) Bull HN Information Systems Inc., 1997    */
        5        5        /*T*                                                         */
        6        6        /*T***********************************************************/
        7        7        /*X* DMR,PLM=5,IND=5,CSU=3,EXM=0,ECU=3,MOC,DCI=5,CRT=5 */
        8        8        /*D*  NAME:  DDA$ON
        9        9              CALL:  CALL DDA$ON ALTRET(USERGO)
       10       10              INPUT:  S_D.FAULTCMD$ POINTS TO THE AT COMMAND.
       11       11              OUTPUT:  S_D.DO$ POINTS TO SECOND ATTACHMEND (OR SET NIL IF NONE)
       12       12              DESCRIPTION:  THE DEFAULT PROCEED MODE IS SET
       13       13                DEPENDING ON BATCH/ON-LINE.  (GO FOR BATCH, STOP FOR ON-LINE).
       14       14                THE 'IF' ROUTINE IS CALLED TO DETERMINE WHETHER THE
       15       15                CONDITION (IF ANY) WAS MET.  IF THE CONDITION
       16       16                WAS NOT MET, DDA$ON ALTRETURNS.
       17       17               IF THE CONDITION WAS MET, RETURN.
       18       18                */
       19       19        DDA$ON: PROC ALTRET;

     19  0 000000   000000 700200 xent  DDA$ON       TSX0  ! X66_AUTO_0
         0 000001   000006 000000                    ZERO    6,0

       20       20    1   DCL NOGO_BIT BIT(1) ALIGNED;
       21       21    1   DCL DDA$IF ENTRY(1) ALTRET;
       22       22    1   DCL DDE$ERROR ENTRY;
       23       23        %INCLUDE DD_SUBS_C;
       24      294        %INCLUDE DD$BASED;
       25     1597        %AT_FIRST (NAME=ON_FIRST);
       26     1625        %FIXCOM (NAME="F$XCM");
       27     1641        %INCLUDE XUH_MACRO_C;
       28     1725        %INCLUDE DD_SD_M;
       29     3061        %S_D;
       30     4379                                                /**/
       31     4380    1        IF S_D.BATCH = '1'B                /* Set default proceed mode */

PL6.E3A0      #001=DDA$ON File=DDA$ON.:E05TSI                                    TUE 07/29/97 13:35 Page:6
   4380  0 000002   000000 470400 xsym               LDP0    S_D$
         0 000003   004625 234100                    SZN     2453,,PR0
         0 000004   000007 605000 0                  TPL     s:4382

       32     4381    1        THEN S_D.STOP = '0'B;              /* go for batch             */

   4381  0 000005   000050 450100                    STZ     40,,PR0
         0 000006   000011 710000 0                  TRA     s:4384

       33     4382    1        ELSE S_D.STOP = '1'B;              /* stop for on-line.        */

   4382  0 000007   400000 236003                    LDQ     -131072,DU
         0 000010   000050 756100                    STQ     40,,PR0

       34     4383                                                /* POINT TO FIRST ATTACHMENT */
       35     4384    1        S_D.DO$ = PINCRW(S_D.VARCOM$,S_D.FAULTCMD$->F$XCM.FAI);

   4384  0 000011   000004 471500                    LDP1    4,,PR0
         0 000012   100002 720100                    LXL0    2,,PR1
         0 000013   004622 473500                    LDP3    2450,,PR0
         0 000014   300000 634510                    EPPR4   0,X0,PR3
         0 000015   000031 454500                    STP4    25,,PR0

       36     4385                                 /* POINT S_D.D$ TO 'CONDITION' IN PREPARATION FOR CALL
       37     4386                                 TO DDA$IF */
       38     4387    1        S_D.D$ = PINCRW(S_D.DO$,SIZEW(ON_FIRST));

   4387  0 000016   000031 236100                    LDQ     25,,PR0
         0 000017   000010 036003                    ADLQ    8,DU
         0 000020   000044 756100                    STQ     36,,PR0

       39     4388                                                /* SEE IF CONDITION IS MET */
       40     4389    1        CALL DDA$IF(NOGO_BIT) ALTRET(ERR);

   4389  0 000021   200003 635500                    EPPR5   NOGO_BIT,,AUTO
         0 000022   200004 455500                    STP5    NOGO_BIT+1,,AUTO
         0 000023   200004 630500                    EPPR0   NOGO_BIT+1,,AUTO
PL6.E3A0      #001=DDA$ON File=DDA$ON.:E05TSI                                    TUE 07/29/97 13:35 Page:7
         0 000024   000017 631400 xsym               EPPR1   B_VECTNIL+15
         0 000025   000000 701000 xent               TSX1    DDA$IF
         0 000026   000041 702000 0                  TSX2    ERR

       41     4390    1        IF NOGO_BIT THEN ALTRETURN;

   4390  0 000027   200003 234100                    SZN     NOGO_BIT,,AUTO
         0 000030   000032 605000 0                  TPL     s:4391

   4390  0 000031   000000 702200 xent               TSX2  ! X66_AALT

       42     4391    1        IF S_D.DO$ -> ON_FIRST.ATT_OFFSET = 0

   4391  0 000032   000000 470400 xsym               LDP0    S_D$
         0 000033   000031 471500                    LDP1    25,,PR0
         0 000034   100007 220100                    LDX0    7,,PR1
         0 000035   000040 601000 0                  TNZ     s:4393

       43     4392    1        THEN S_D.DO$ = ADDR(NIL);          /* NO ATTACHMENTS */

   4392  0 000036   000001 236000 xsym               LDQ     B_VECTNIL+1
         0 000037   000031 756100                    STQ     25,,PR0

       44     4393    1        RETURN;

   4393  0 000040   000000 702200 xent               TSX2  ! X66_ARET

       45     4394    1   ERR: CALL DDE$ERROR; RETURN;

   4394  0 000041   000002 631400 xsym  ERR          EPPR1   B_VECTNIL+2
         0 000042   000000 701000 xent               TSX1    DDE$ERROR
         0 000043   000000 011000                    NOP     0

   4394  0 000044   000000 702200 xent               TSX2  ! X66_ARET
       46     4395    1   END DDA$ON;

PL6.E3A0      #001=DDA$ON File=DDA$ON.:E05TSI                                    TUE 07/29/97 13:35 Page:8
--  Include file information  --

   DD_SD_M.:E05TOU  is referenced.
   XUH_MACRO_C.:E05TOU  is referenced.
   DD$BASED.:E05TOU  is referenced.
   DD_SUBS_C.:E05TOU  is referenced.
   B$JIT_C.:E05TOU  was found in the system file and is never referenced.
   CP_6_C.:E05TOU  was found in the system file and is never referenced.
      No diagnostics issued in procedure DDA$ON.

   Procedure DDA$ON requires 37 words for executable code.
   Procedure DDA$ON requires 6 words of local(AUTO) storage.

    No errors detected in file DDA$ON.:E05TSI    .
PL6.E3A0      #001=DDA$ON File=DDA$ON.:E05TSI                                    TUE 07/29/97 13:35 Page:9
          *** CROSS REFERENCE LISTING ***
**     DENOTES     IDENTIFIER DEFINITION
<<                 IDENTIFIER'S VALUE SET
>>                 IDENTIFIER'S VALUE USED
<>                 IDENTIFIER SET AND/OR USED
--                 IDENTIFIER REFERENCED
PL6.E3A0      #001=DDA$ON File=DDA$ON.:E05TSI                                    TUE 07/29/97 13:35 Page:10
          MINI XREF LISTING

DDA$IF
        21**DCL-ENT  4389--CALL
DDE$ERROR
        22**DCL-ENT  4394--CALL
ERR
      4394**LABEL    4389--CALLALT
F$XCM.FAI
      1637**DCL      4384>>ASSIGN
NOGO_BIT
        20**DCL      4389<>CALL     4390>>IF
ON_FIRST
      1598**DCL      4387--ASSIGN
ON_FIRST.ATT_OFFSET
      1622**DCL      4391>>IF
ON_FIRST.UNUSED
      1602**DCL      1603--REDEF    1607--REDEF
S_D.BATCH
      3540**DCL      4380>>IF
S_D.CURRENT_CHANNEL
      4013**DCL      4015--REDEF
S_D.D$
      3151**DCL      4387<<ASSIGN
S_D.DEBUGA
      3165**DCL      3167--REDEF
S_D.DO$
      3116**DCL      4384<<ASSIGN   4387>>ASSIGN   4391>>IF       4392<<ASSIGN
S_D.EIS
      4123**DCL      4152--REDEF
S_D.FAULTCMD$
      3080**DCL      4384>>ASSIGN
S_D.HOST_MESSAGE_BUF_REMOTE
      4056**DCL      4057--REDEF    4071--REDEF
PL6.E3A0      #001=DDA$ON File=DDA$ON.:E05TSI                                    TUE 07/29/97 13:35 Page:11
S_D.JDE
      3670**DCL      3671--REDEF
S_D.L$.VALUE
      3223**DCL      3229--REDEF    3237--REDEF    3240--REDEF    3243--REDEF    3246--REDEF
S_D.L$.VALUE.L
      3224**DCL      3225--REDEF    3226--REDEF
S_D.L6_MESSAGE_BUF
      4077**DCL      4079--REDEF
S_D.OUTPUT
      4043**DCL      4045--REDEF
S_D.REMOTE_MSG.FNCC
      4062**DCL      4063--REDEF
S_D.REMOTE_MSG.STXC
      4058**DCL      4059--REDEF
S_D.REMOTE_MSG.SUBFNCC
      4066**DCL      4067--REDEF
S_D.STOP
      3159**DCL      4381<<ASSIGN   4382<<ASSIGN
S_D.SV
      3122**DCL      3143--REDEF
S_D.VARCOM$
      3534**DCL      4384>>ASSIGN
S_D$
      4374**DCL      3070--IMP-PTR  4380>>IF       4381>>ASSIGN   4382>>ASSIGN   4384>>ASSIGN   4384>>ASSIGN
      4384>>ASSIGN   4387>>ASSIGN   4387>>ASSIGN   4391>>IF       4392>>ASSIGN
PL6.E3A0      #001=DDA$ON File=DDA$ON.:E05TSI                                    TUE 07/29/97 13:35 Page:12
              *** CROSS REFERENCE LISTING ***
    **     DENOTES     IDENTIFIER DEFINITION
    <<                 IDENTIFIER'S VALUE SET
    >>                 IDENTIFIER'S VALUE USED
    <>                 IDENTIFIER SET AND/OR USED
    --                 IDENTIFIER REFERENCED
PL6.E3A0      #001=DDA$ON File=DDA$ON.:E05TSI                                    TUE 07/29/97 13:35 Page:13
              MINI UREF LISTING

DDA$ON      19**PROC
