VERSION E05

PL6.E3A0      #001=DDA$PLUGH File=DDA$PLUGH.:E05TSI                              TUE 07/29/97 13:35 Page:1
        1        1        /*M* DDA$PLUGH - Trace through AUTO stack */
        2        2        /*T***********************************************************/
        3        3        /*T*                                                         */
        4        4        /*T* Copyright (c) Bull HN Information Systems Inc., 1997    */
        5        5        /*T*                                                         */
        6        6        /*T***********************************************************/
        7        7        /*X* DMR,PLM=5,IND=5,CSU=3,EXM=0,ECU=3,MOC,DCI=5,CRT=5 */
        8        8        %SET LISTSUB='1'B;
        9        9        /*P* NAME: DDA$PLUGH
       10       10             DESCRIPTION: PLUGH (Procedure List Used to Get Here) will tip toe
       11       11                          thru the auto stack, reporting how the current procedure
       12       12                          was arrived at.  It will also get you to the building
       13       13                          from Y2. */
       14       14
       15       15        DDA$PLUGH: PROC;
       16       16
       17       17        /* Auto */
       18       18        %INCLUDE DD$BASED;
       19     1321        %INCLUDE DD$DITEM;
       12+    1424             %LIST;
       13+    1425    1        DCL SDD$ PTR;
       14+    1426    1        DCL ZITEM$ PTR;
       15+    1427    1        DCL SDD_L6$ PTR;
       16+    1428    1        DCL ZITEM_L6$ PTR;
       20     2002        %DOO (NAME=PLUGH$CMD);
       21     2017        %AUTO$BASE (NAME=BASE, STCLASS=AUTO);
       22     2027        %AUTO$FRAME (NAME=FRAME, STCLASS=AUTO);
       23     2038    1   DCL ADDRESS UBIN;
       24     2039    1   DCL SEG# UBIN;
       25     2040    1   DCL DESC# UBIN;
       26     2041    1   DCL NOT_IS BIT(1) ALIGNED;
       27     2042    1   DCL 1 PR2,
       28     2043    1         2 W UBIN(18) UNAL,
       29     2044    1         2 C UBIN(2) UNAL,
       30     2045    1         2 B UBIN(4) UNAL,
       31     2046    1         2 S UBIN(2) UNAL,
       32     2047    1         2 D UBIN(10) UNAL;
PL6.E3A0      #001=DDA$PLUGH File=DDA$PLUGH.:E05TSI                              TUE 07/29/97 13:35 Page:2
       33     2048    1   DCL CURR_OFFSET UBIN HALF ALIGNED;
       34     2049    1   DCL PREV_OFFSET UBIN HALF ALIGNED;
       35     2050    1   DCL NEXT_OFFSET UBIN;
       36     2051    1   DCL LOC UBIN;
       37     2052    1   DCL TOP_FRAME BIT(1) ALIGNED;
       38     2053    1   DCL OUT$ PTR;
       39     2054    1   DCL NCARS UBIN;
       40     2055    1   DCL CANT_FLAG BIT(1);
       41     2056    1   DCL PMD_PLUGH BIT(1) ALIGNED;
       42     2057        /* Based */
       43     2058        %INCLUDE B$SS;
       44     2237        %U$SE;
       45     2245        %INCLUDE B$OBJECT_C;
       46     5675        %B$LBNTRY0;
       47     5711        %B$EDEF;
       48     5781        %SUB_CST;
       49     5797        /* Symref */
       50     5798    1   DCL D_XDELTA BIT(1) SYMREF;
       51     5799    1   DCL USE_ORIG$ PTR SYMREF;
       52     5800    1   DCL USE$ PTR SYMREF;
       53     5801        %INCLUDE XUH_MACRO_C;
       54     5885        %INCLUDE DD_SD_M;
       55     7221        %S_D;
       56     8539        /* Entry */
       57     8540    1   DCL DDB$BREAK ENTRY ALTRET;
       58     8541    1   DCL DDE$ERROR ENTRY(0);
       59     8542    1   DCL DDK$EVAL ENTRY(6) ALTRET;
       60     8543    1   DCL DDK$GETMVAL ENTRY(5) ALTRET;
       61     8544    1   DCL DDQ$WRITE ENTRY(2);
       62     8545    1   DCL DDR$BINTXT ENTRY(4);
       63     8546    1   DCL DDR$INSTR ENTRY(1) ALTRET;
       64     8547    1   DCL DDR$MOVE ENTRY(4) ALTRET;
       65     8548    1   DCL DDR$POSIT ENTRY(5) ALTRET;
       66     8549    1   DCL DDS$ES_INQ ENTRY(1) ALTRET;
       67     8550    1   DCL DUL$GETMVAL ENTRY(5) ALTRET;
       68     8551        /* Misc */
       69     8552        %INCLUDE DD_ERR_C;
PL6.E3A0      #001=DDA$PLUGH File=DDA$PLUGH.:E05TSI                              TUE 07/29/97 13:35 Page:3
       70     8949        %INCLUDE DD_SUBS_C;
       71     9220        %INCLUDE B_STRINGS_C;
       72     9349        %EQU LS=3 /* Linkage Segment */;
       73     9350
       74     9351    1        PMD_PLUGH = '0'B;
       75     9352    1        GOTO PLUGHGO;
       76     9353
       77     9354    1   DDA$PLUGH_PMD: ENTRY;
       78     9355
       79     9356    1        PMD_PLUGH = '1'B;
       80     9357        /****GOTO PLUGHGO;****/
       81     9358    1   PLUGHGO:
       82     9359    1        OUT$ = ADDR( S_D.OUTPUT );
       83     9360    1        IF S_D.RUM
       84     9361    1        THEN GOTO ERRRUM;
       85     9362    1        IF S_D.ANLZ AND NOT S_D.ANLZ_FILE
       86     9363    1        THEN GOTO ERRANLZ;
       87     9364    1        IF S_D.DO$ -> PLUGH$CMD.DDESC AND NOT PMD_PLUGH
       88     9365    2        THEN DO;                           /* Evaluate data descriptor */
       89     9366    2             S_D.DESC$ = S_D.D$;
       90     9367    2             CALL DDK$EVAL( ADDRESS, SEG#, DESC#, NOT_IS ) ALTRET( ARET );
       91     9368    2             IF ADDRESS ~= 0
       92     9369    3             THEN DO;
       93     9370    3                  S_D.OUTPUT =
              9370                        'AUTO stack not at beginning of a segment, PLUGH will probably fail'
              9370                           ;
       94     9371    3                  NCARS = LENGTHC(
              9371                        'AUTO stack not at beginning of a segment, PLUGH will probably fail'
              9371                           );
       95     9372    3                  CALL DDQ$WRITE( OUT$, NCARS );
       96     9373    3                END;
       97     9374    2           END;
       98     9375    2        ELSE DO;                           /* Default is DR2 */
       99     9376    2             IF D_XDELTA AND ( U$SE ~= USE_ORIG$ -> U$SE )
      100     9377    2             THEN GOTO ERRUSE;
      101     9378    2             IF S_D.OVERLAID AND ( S_D.TREE$ ~= S_D.MTREE$ )
      102     9379    2             THEN GOTO ERRUSE;
PL6.E3A0      #001=DDA$PLUGH File=DDA$PLUGH.:E05TSI                              TUE 07/29/97 13:35 Page:4
      103     9380        /*N* ANLZ-file mode can't tell if USE CURRENT is in effect */
      104     9381    2             PR2 = S_D.USS$ -> B$SS.PR2;
      105     9382    2             SEG# = PR2.S;
      106     9383    2             DESC# = PR2.D;
      107     9384    2             ADDRESS = 0;
      108     9385    2             NOT_IS = '1'B;
      109     9386    2           END;
      110     9387    1        IF SEG# ~= %LS
      111     9388    2        THEN DO;
      112     9389    2             S_D.OUTPUT =
              9389                    'AUTO stack descriptor not in linkage segment, PLUGH will probably fail'
              9389                      ;
      113     9390    2             NCARS = LENGTHC(
              9390                    'AUTO stack descriptor not in linkage segment, PLUGH will probably fail'
              9390                      );
      114     9391    2             CALL DDQ$WRITE( OUT$, NCARS );
      115     9392    2           END;
      116     9393    1        IF MOD( ADDRESS, 2 ) ~= 0
      117     9394    1        THEN GOTO ERRODD;
      118     9395        /* Get the auto stack base */
      119     9396    1        CALL GET_FRAME( 0, BASE ) ALTRET( ARET );
      120     9397    1        CURR_OFFSET = -( BASE.NEG_CURR_FRAME_OFFSET_MINUS_1 + 1 );
      121     9398        /* Validate the contents of the base */
      122     9399    1        IF ( BASE.MBZ1 ~= 0 )
      123     9400    1          OR ( BASE.LIMIT_OFFSET < CURR_OFFSET + 3 )
      124     9401    1        THEN GOTO ERRBASE;
      125     9402        /* The current IC may be in a NOAUTO proc */
      126     9403    1        LOC = S_D.SAVEIC;
      127     9404    1        CALL DO_NOAUTO ALTRET( ENTER );    /* What a sham */
      128     9405        /* Tip-toe through the tulips */
      129     9406    2        DO WHILE ( '1'B );
      130     9407    2             CALL DDB$BREAK ALTRET( RETN );
      131     9408    2             TOP_FRAME = '0'B;
      132     9409    2             IF FRAME.RETURN_ADDRESS = 0
      133     9410    3             THEN DO;
      134     9411    3                  TOP_FRAME = '1'B;
      135     9412    3                  LOC = FRAME.LOC_OF_ENTRY_MAIN_OR_ASYNC - 1;
PL6.E3A0      #001=DDA$PLUGH File=DDA$PLUGH.:E05TSI                              TUE 07/29/97 13:35 Page:5
      136     9413    3                END;
      137     9414    2             ELSE LOC = FRAME.RETURN_ADDRESS - 1;
      138     9415    2             CALL PRINT_LOC( CURR_OFFSET, '1'B );
      139     9416    2             IF TOP_FRAME
      140     9417    3             THEN DO;
      141     9418    3                  S_D.OUTPUT = 'Bottom frame';
      142     9419    3                  NCARS = LENGTHC( 'Bottom frame' );
      143     9420    3                  CALL DDQ$WRITE( OUT$, NCARS );
      144     9421    3                  IF PREV_OFFSET = CURR_OFFSET
      145     9422    3                  THEN GOTO OUT;
      146     9423    3                END;
      147     9424    2             ELSE CALL DO_NOAUTO;          /* Another NOAUTO creature? */
      148     9425    2             IF PREV_OFFSET = CURR_OFFSET
      149     9426    2             THEN GOTO ERRAUTO;
      150     9427    2             CURR_OFFSET = PREV_OFFSET;
      151     9428    2   ENTER:
      152     9429    2             CALL GET_FRAME( CURR_OFFSET, FRAME ) ALTRET( ARET );
      153     9430    2             PREV_OFFSET = -( FRAME.NEG_PREV_FRAME_OFFSET_MINUS_1 + 1 );
      154     9431    2             NEXT_OFFSET =    FRAME.NEXT_FRAME_OFFSET_PLUS_1 - 1;
      155     9432        /* Validate current frame */
      156     9433    2             IF PREV_OFFSET ~= CURR_OFFSET
      157     9434    2             THEN IF ( NEXT_OFFSET < CURR_OFFSET + 4 ) OR
      158     9435    2                    ( PREV_OFFSET > CURR_OFFSET - 4 )
      159     9436    2                  THEN GOTO ERRAUTO;
      160     9437    2           END;
      161     9438        /* Make sure PREV_OFFSET = 4 */
      162     9439    1   OUT:
      163     9440    1        IF PREV_OFFSET ~= 4
      164     9441    1        THEN GOTO ERRAUTO;
      165     9442
      166     9443    1   RETN:
      167     9444    1        RETURN;
      168     9445
      169     9446    1   ERRRUM: S_D.ERROR = 229; GOTO ARET; /* E@NOTINRUM */
      170     9447    1   ERRANLZ: S_D.ERROR = 182; GOTO ARET; /* E@NOTANLZ_FILE */
      171     9448    1   ERRUSE: S_D.ERROR = 38; GOTO ARET; /* E@USE_CONFLICT */
      172     9449    1   ERRBASE: S_D.ERROR = 160; GOTO ARET; /* E@AUTOBASE */
PL6.E3A0      #001=DDA$PLUGH File=DDA$PLUGH.:E05TSI                              TUE 07/29/97 13:35 Page:6
      173     9450    1   ERRAUTO: S_D.ERROR = 159; GOTO ARET; /* E@BADAUTO */
      174     9451    1   ERRODD: S_D.ERROR = 230; GOTO ARET; /* E@ODDBASE */
      175     9452
      176     9453    1   ARET:
      177     9454    1        CALL DDE$ERROR;
      178     9455
      179     9456    1        RETURN;
      180     9457
      181     9458        %EJECT;
PL6.E3A0      #001=DDA$PLUGH File=DDA$PLUGH.:E05TSI                              TUE 07/29/97 13:35 Page:7
      182     9459
      183     9460    1   GET_FRAME: PROC( START, FRAME ) ALTRET;
      184     9461
      185     9462    2   DCL START UBIN HALF ALIGNED;
      186     9463    2   DCL FRAME(0:3) UBIN;
      187     9464    2   DCL IX UBIN;
      188     9465    2   DCL OFFSET UBIN;
      189     9466    2   DCL VALUE UBIN;
      190     9467
      191     9468    3        DO IX = 0 TO 3;
      192     9469    3             OFFSET = ADDRESS + START + IX;
      193     9470    3             IF S_D.ANLZ
      194     9471    3             THEN CALL DUL$GETMVAL( VALUE, OFFSET, SEG#, DESC#, NOT_IS ) ALTRET( ARET )
              9471                      ;
      195     9472    3             ELSE CALL DDK$GETMVAL( VALUE, OFFSET, SEG#, DESC#, NOT_IS ) ALTRET( ARET )
              9472                      ;
      196     9473    3             FRAME( IX ) = VALUE;
      197     9474    3           END;
      198     9475
      199     9476    2        RETURN;
      200     9477
      201     9478    2   GET_ISFRAME: ENTRY( START, FRAME ) ALTRET;
      202     9479
      203     9480    3        DO IX = 0 TO 1;
      204     9481    3             OFFSET = START + IX;
      205     9482    3             IF S_D.ANLZ
      206     9483    3             THEN CALL DUL$GETMVAL( VALUE, OFFSET, 0, 0, '0'B ) ALTRET( ARET );
      207     9484    3             ELSE CALL DDK$GETMVAL( VALUE, OFFSET, 0, 0, '0'B ) ALTRET( ARET );
      208     9485    3             FRAME( IX ) = VALUE;
      209     9486    3           END;
      210     9487
      211     9488    2        RETURN;
      212     9489
      213     9490    2   ARET: ALTRETURN;
      214     9491
      215     9492    2   END GET_FRAME;
      216     9493
PL6.E3A0      #001=DDA$PLUGH File=DDA$PLUGH.:E05TSI                              TUE 07/29/97 13:35 Page:8
      217     9494        %EJECT;
PL6.E3A0      #001=DDA$PLUGH File=DDA$PLUGH.:E05TSI                              TUE 07/29/97 13:35 Page:9
      218     9495
      219     9496    1   DO_NOAUTO: PROC ALTRET;
      220     9497
      221     9498        %AUTO$FRAME (NAME=NOAUTO_FRAME, STCLASS=AUTO);
      222     9509    2   DCL E$ PTR;
      223     9510    2   DCL CST UBIN;
      224     9511    2   DCL FRAME_LOC UBIN HALF ALIGNED;
      225     9512    2   DCL BB$ PTR;
      226     9513    2   DCL REM UBIN;
      227     9514    2   DCL NCARS UBIN;
      228     9515
      229     9516    3        DO WHILE ( '1'B );
      230     9517    3             CALL DDB$BREAK ALTRET( RETN );
      231     9518    3             CALL DDS$ES_INQ( LOC ) ALTRET( RETN );
      232     9519    3             E$ = PINCRW(S_D.EDEF$, S_D.QSCH.PEDEF# * SIZEW( B$EDEF ));
      233     9520    3             CST = E$->B$EDEF.CST;
      234     9521    3             IF ( S_D.LB0$ -> B$LBNTRY0.FRAME ~= 0 ) AND (LOC~=E$->B$EDEF.ISADDR) AND
      235     9522    3               ( ( CST = %STD# ) OR ( CST = %XSTD# ) OR ( CST = %ASYNC# ) OR
      236     9523    3               ( CST = %XASYNC# ) OR ( CST = %FUNC# ) OR ( CST = %XFUNC# ) )
      237     9524    4             THEN DO;
      238     9525    4                  FRAME_LOC = S_D.LB0$ -> B$LBNTRY0.FRAME;
      239     9526    4                  CALL GET_ISFRAME( FRAME_LOC, NOAUTO_FRAME ) ALTRET( NO_SEE );
      240     9527    4                  IF NOAUTO_FRAME.RETURN_ADDRESS = 0
      241     9528    5                  THEN DO;
      242     9529    5                       LOC = NOAUTO_FRAME.NOAUTO_LOC_OF_ENTRY_ASYNC - 1;
      243     9530    5                       CALL PRINT_LOC( FRAME_LOC, '0'B );
      244     9531    5                       S_D.OUTPUT = 'Bottom Frame';
      245     9532    5                       NCARS = LENGTHC( 'Bottome Frame' );
      246     9533    5                       CALL DDQ$WRITE( OUT$, NCARS );
      247     9534    5                       GOTO RETN;
      248     9535    5                     END;
      249     9536    5                  ELSE DO;
      250     9537    5                       LOC = NOAUTO_FRAME.RETURN_ADDRESS - 1;
      251     9538    5                       CALL PRINT_LOC( FRAME_LOC, '0'B );
      252     9539    5                     END;
      253     9540    4                END;
      254     9541    3             ELSE GOTO RETN;
PL6.E3A0      #001=DDA$PLUGH File=DDA$PLUGH.:E05TSI                              TUE 07/29/97 13:35 Page:10
      255     9542    3           END;
      256     9543
      257     9544    2   NO_SEE:
      258     9545    2        BB$ = OUT$;
      259     9546    2        REM = LENGTHC( S_D.OUTPUT );
      260     9547    2        CALL DDR$MOVE( 'Can''t see this NOAUTO frame (',
      261     9548    2          LENGTHC( 'Can''t see this NOAUTO frame (' ),
      262     9549    2          BB$, REM ) ALTRET( RETN );
      263     9550    2        CALL DDR$BINTXT( BB$, FRAME_LOC, %OCT_FMT, NCARS );
      264     9551    2        BB$ = PINCRC( BB$, NCARS );
      265     9552    2        REM = REM - NCARS;
      266     9553    2        CALL DDR$MOVE( ')', LENGTHC( ')' ), BB$, REM ) ALTRET( RETN );
      267     9554    2        CALL DDQ$WRITE( OUT$, POFFC( BB$, OUT$ ) );
      268     9555
      269     9556    2   RETN: ALTRETURN;                        /* Always altrets for convenience */
      270     9557
      271     9558    2   END DO_NOAUTO;
      272     9559
      273     9560        %EJECT;
PL6.E3A0      #001=DDA$PLUGH File=DDA$PLUGH.:E05TSI                              TUE 07/29/97 13:35 Page:11
      274     9561
      275     9562    1   PRINT_LOC: PROC( OFFST, IN_STACK );
      276     9563
      277     9564    2   DCL OFFST UBIN HALF ALIGNED;
      278     9565    2   DCL OFFSET UBIN;
      279     9566    2   DCL IN_STACK BIT(1) ALIGNED;
      280     9567    2   DCL NCARS UBIN;
      281     9568    2   DCL CANT_FLAG BIT(1) ALIGNED;
      282     9569    2   DCL FNDOFFSET BIT(1) ALIGNED;
      283     9570    2   DCL VALUE UBIN;
      284     9571    2   DCL BB$ PTR;
      285     9572    2   DCL REM UBIN;
      286     9573    2   DCL SAVE_D$ PTR;
      287     9574    2   DCL SAVE_DESCL$ PTR;
      288     9575
      289     9576    2        CANT_FLAG = '0'B;
      290     9577    2        OFFSET = OFFST;
      291     9578    2        IF S_D.ANLZ
      292     9579    2        THEN CALL DUL$GETMVAL( VALUE, LOC, 0, 0, '0'B ) ALTRET( CANT_SEE );
      293     9580    2        ELSE CALL DDK$GETMVAL( VALUE, LOC, 0, 0, '0'B ) ALTRET( CANT_SEE );
      294     9581    3        DO WHILE ( '0'B );
      295     9582    3   CANT_SEE: CANT_FLAG = '1'B;
      296     9583    3           END;
      297     9584    2        BB$ = OUT$;
      298     9585    2        REM = SIZEC( S_D.OUTPUT );
      299     9586    2        S_D.FNDOFFSET = '0'B;
      300     9587    2        CALL DDR$POSIT( LOC, BB$, REM, NCARS );
      301     9588    2        FNDOFFSET = S_D.FNDOFFSET;
      302     9589    2        BB$ = PINCRC(BB$, NCARS);
      303     9590    2        REM = REM - NCARS;
      304     9591    2        CALL DDR$MOVE( '/ ', LENGTHC( '/ ' ), BB$, REM ) ALTRET( ARET );
      305     9592    2        IF CANT_FLAG
      306     9593    2        THEN CALL DDR$MOVE( 'can''t see this location',
      307     9594    2               LENGTHC( 'can''t see this location' ),
      308     9595    2               BB$, REM ) ALTRET( ARET );
      309     9596    3        ELSE DO;
      310     9597    3             SAVE_D$ = S_D.D$;             /* DDR$INSTR uses these */
PL6.E3A0      #001=DDA$PLUGH File=DDA$PLUGH.:E05TSI                              TUE 07/29/97 13:35 Page:12
      311     9598    3             SAVE_DESCL$ = S_D.DESCL$;
      312     9599    3             S_D.D$ = BB$;
      313     9600    3             S_D.DESCL$ = PINCRC( S_D.D$, REM );
      314     9601    3             CALL DDR$INSTR( VALUE ) ALTRET( ARET );
      315     9602    3             BB$ = S_D.D$;
      316     9603    3             REM = POFFC( S_D.DESCL$, BB$ );
      317     9604    3             S_D.D$ = SAVE_D$;
      318     9605    3             S_D.DESCL$ = SAVE_DESCL$;
      319     9606    3           END;
      320     9607    2        IF FNDOFFSET
      321     9608    3        THEN DO;                           /* Show frame offset */
      322     9609    3             IF IN_STACK
      323     9610    3             THEN CALL DDR$MOVE( ' (+', LENGTHC( ' (+' ), BB$, REM ) ALTRET( ARET );
      324     9611    3             ELSE CALL DDR$MOVE( ' (', LENGTHC( ' (' ), BB$, REM ) ALTRET( ARET );
      325     9612    3             CALL DDR$BINTXT( BB$, OFFSET, %OCT_FMT, NCARS );
      326     9613    3             BB$ = PINCRC( BB$, NCARS );
      327     9614    3             REM = REM - NCARS;
      328     9615    3             CALL DDR$MOVE( ')', LENGTHC( ')' ), BB$, REM ) ALTRET( ARET );
      329     9616    3           END;
      330     9617    2        CALL DDQ$WRITE( OUT$,  POFFC( BB$, OUT$ ) );
      331     9618
      332     9619    2        RETURN;
      333     9620
      334     9621    2   ARET:
      335     9622    2        CALL DDE$ERROR;
      336     9623
      337     9624    2        RETURN;
      338     9625
      339     9626    2   END PRINT_LOC;
      340     9627
      341     9628    1   END DDA$PLUGH;

PL6.E3A0      #001=DDA$PLUGH File=DDA$PLUGH.:E05TSI                              TUE 07/29/97 13:35 Page:13
--  Include file information  --

   B_STRINGS_C.:E05TOU  is referenced.
   DD_SUBS_C.:E05TOU  is referenced.
   DD_ERR_C.:E05TOU  is referenced.
   DD_SD_M.:E05TOU  is referenced.
   XUH_MACRO_C.:E05TOU  is referenced.
   B$OBJECT_C.:E05TOU  is referenced.
   B$SS.:E05TOU  cannot be made into a system file and is referenced.
   DD_SRTN_C.:E05TOU  is referenced.
   DD_ACODE_C.:E05TOU  is referenced.
   DD_ICODE_C.:E05TOU  is referenced.
   DD$DITEM.:E05TOU  cannot be made into a system file and is referenced.
   DD$BASED.:E05TOU  is referenced.
   B$JIT_C.:E05TOU  was found in the system file and is never referenced.
   CP_6_C.:E05TOU  was found in the system file and is never referenced.
      No diagnostics issued in procedure DDA$PLUGH.

   Procedure DDA$PLUGH requires 667 words for executable code.
   Procedure DDA$PLUGH requires 60 words of local(AUTO) storage.

    No errors detected in file DDA$PLUGH.:E05TSI    .

PL6.E3A0      #001=DDA$PLUGH File=DDA$PLUGH.:E05TSI                              TUE 07/29/97 13:35 Page:14

 Object Unit name= DDA$PLUGH                                  File name= DDA$PLUGH.:E05TOU
 UTS= JUL 29 '97 13:35:25.68 TUE                              Compiler= PL-6/E31         Sev=      00
 SharedLib= :SHARED_SYSTEM                                    Alt SharedLib=


    ****  Control sections  ****

 Sect   Type Bound  Init  Size OctSiz  Section name(segment info)
    0  RoData even  UTS     61     75  DDA$PLUGH
    1   Proc  even  none   667   1233  DDA$PLUGH
    2  RoData even  none    20     24  DDA$PLUGH

    ****  Entry defs  ****

                              Check   Calling
                             calling  sequence
  Sect OctLoc Primary Altret sequence   type   Parms  Name
     1      0   yes            yes      Std        0  DDA$PLUGH
     1      4                  yes      Std        0  DDA$PLUGH_PMD
PL6.E3A0      #001=DDA$PLUGH File=DDA$PLUGH.:E05TSI                              TUE 07/29/97 13:35 Page:15

  ****  Entry refs  ****

         Check        Calling
        calling       sequence
Altret sequence SRef   type   Args  Name
 yes     yes           Std       6 DDK$EVAL
         yes           Std       2 DDQ$WRITE
 yes     yes           Std       0 DDB$BREAK
         yes           Std       0 DDE$ERROR
 yes     yes           Std       5 DUL$GETMVAL
 yes     yes           Std       5 DDK$GETMVAL
 yes     yes           Std       1 DDS$ES_INQ
 yes     yes           Std       4 DDR$MOVE
         yes           Std       4 DDR$BINTXT
 yes     yes           Std       5 DDR$POSIT
 yes     yes           Std       1 DDR$INSTR
                       nStd      0 X66_AUTO_0
                       Std       0 B_CONSPOOL_D
                       nStd      0 X66_ARET

  ****  Data refs  ****

  Flags:  r = read only, s = secondary
Flgs Name                             Flgs Name                             Flgs Name
     D_XDELTA                              USE_ORIG$                             USE$
r    S_D$                                  B_VECTNIL

  ****  Segment refs  ****

  Flags:  r = read only, s = secondary
Flgs Name                             Flgs Name                             Flgs Name
     ISSID
PL6.E3A0      #001=DDA$PLUGH File=DDA$PLUGH.:E05TSI                              TUE 07/29/97 13:35 Page:16


        1        1        /*M* DDA$PLUGH - Trace through AUTO stack */
        2        2        /*T***********************************************************/
        3        3        /*T*                                                         */
        4        4        /*T* Copyright (c) Bull HN Information Systems Inc., 1997    */
        5        5        /*T*                                                         */
        6        6        /*T***********************************************************/
        7        7        /*X* DMR,PLM=5,IND=5,CSU=3,EXM=0,ECU=3,MOC,DCI=5,CRT=5 */
        8        8        %SET LISTSUB='1'B;
        9        9        /*P* NAME: DDA$PLUGH
       10       10             DESCRIPTION: PLUGH (Procedure List Used to Get Here) will tip toe
       11       11                          thru the auto stack, reporting how the current procedure
       12       12                          was arrived at.  It will also get you to the building
       13       13                          from Y2. */
       14       14
       15       15        DDA$PLUGH: PROC;

     15  1 000000   000000 700200 xent  DDA$PLUGH    TSX0  ! X66_AUTO_0
         1 000001   000074 000000                    ZERO    60,0

       16       16
       17       17        /* Auto */
       18       18        %INCLUDE DD$BASED;
       19     1321        %INCLUDE DD$DITEM;
       12+    1424             %LIST;
       13+    1425    1        DCL SDD$ PTR;
       14+    1426    1        DCL ZITEM$ PTR;
       15+    1427    1        DCL SDD_L6$ PTR;
       16+    1428    1        DCL ZITEM_L6$ PTR;
       20     2002        %DOO (NAME=PLUGH$CMD);
       21     2017        %AUTO$BASE (NAME=BASE, STCLASS=AUTO);
       22     2027        %AUTO$FRAME (NAME=FRAME, STCLASS=AUTO);
       23     2038    1   DCL ADDRESS UBIN;
       24     2039    1   DCL SEG# UBIN;
       25     2040    1   DCL DESC# UBIN;
       26     2041    1   DCL NOT_IS BIT(1) ALIGNED;
       27     2042    1   DCL 1 PR2,
PL6.E3A0      #001=DDA$PLUGH File=DDA$PLUGH.:E05TSI                              TUE 07/29/97 13:35 Page:17
       28     2043    1         2 W UBIN(18) UNAL,
       29     2044    1         2 C UBIN(2) UNAL,
       30     2045    1         2 B UBIN(4) UNAL,
       31     2046    1         2 S UBIN(2) UNAL,
       32     2047    1         2 D UBIN(10) UNAL;
       33     2048    1   DCL CURR_OFFSET UBIN HALF ALIGNED;
       34     2049    1   DCL PREV_OFFSET UBIN HALF ALIGNED;
       35     2050    1   DCL NEXT_OFFSET UBIN;
       36     2051    1   DCL LOC UBIN;
       37     2052    1   DCL TOP_FRAME BIT(1) ALIGNED;
       38     2053    1   DCL OUT$ PTR;
       39     2054    1   DCL NCARS UBIN;
       40     2055    1   DCL CANT_FLAG BIT(1);
       41     2056    1   DCL PMD_PLUGH BIT(1) ALIGNED;
       42     2057        /* Based */
       43     2058        %INCLUDE B$SS;
       44     2237        %U$SE;
       45     2245        %INCLUDE B$OBJECT_C;
       46     5675        %B$LBNTRY0;
       47     5711        %B$EDEF;
       48     5781        %SUB_CST;
       49     5797        /* Symref */
       50     5798    1   DCL D_XDELTA BIT(1) SYMREF;
       51     5799    1   DCL USE_ORIG$ PTR SYMREF;
       52     5800    1   DCL USE$ PTR SYMREF;
       53     5801        %INCLUDE XUH_MACRO_C;
       54     5885        %INCLUDE DD_SD_M;
       55     7221        %S_D;
       56     8539        /* Entry */
       57     8540    1   DCL DDB$BREAK ENTRY ALTRET;
       58     8541    1   DCL DDE$ERROR ENTRY(0);
       59     8542    1   DCL DDK$EVAL ENTRY(6) ALTRET;
       60     8543    1   DCL DDK$GETMVAL ENTRY(5) ALTRET;
       61     8544    1   DCL DDQ$WRITE ENTRY(2);
       62     8545    1   DCL DDR$BINTXT ENTRY(4);
       63     8546    1   DCL DDR$INSTR ENTRY(1) ALTRET;
       64     8547    1   DCL DDR$MOVE ENTRY(4) ALTRET;
PL6.E3A0      #001=DDA$PLUGH File=DDA$PLUGH.:E05TSI                              TUE 07/29/97 13:35 Page:18
       65     8548    1   DCL DDR$POSIT ENTRY(5) ALTRET;
       66     8549    1   DCL DDS$ES_INQ ENTRY(1) ALTRET;
       67     8550    1   DCL DUL$GETMVAL ENTRY(5) ALTRET;
       68     8551        /* Misc */
       69     8552        %INCLUDE DD_ERR_C;
       70     8949        %INCLUDE DD_SUBS_C;
       71     9220        %INCLUDE B_STRINGS_C;
       72     9349        %EQU LS=3 /* Linkage Segment */;
       73     9350
       74     9351    1        PMD_PLUGH = '0'B;

   9351  1 000002   200035 450100                    STZ     PMD_PLUGH,,AUTO

       75     9352    1        GOTO PLUGHGO;

   9352  1 000003   000010 710000 1                  TRA     PLUGHGO

       76     9353
       77     9354    1   DDA$PLUGH_PMD: ENTRY;

   9354  1 000004   000000 700200 xent  DDA$PLUGH_P* TSX0  ! X66_AUTO_0
         1 000005   000074 000000                    ZERO    60,0

       78     9355
       79     9356    1        PMD_PLUGH = '1'B;

   9356  1 000006   400000 236003                    LDQ     -131072,DU
         1 000007   200035 756100                    STQ     PMD_PLUGH,,AUTO

       80     9357        /****GOTO PLUGHGO;****/
       81     9358    1   PLUGHGO:
       82     9359    1        OUT$ = ADDR( S_D.OUTPUT );

   9359  1 000010   000000 236000 xsym  PLUGHGO      LDQ     S_D$
         1 000011   005335 036003                    ADLQ    2781,DU
         1 000012   200032 756100                    STQ     OUT$,,AUTO

PL6.E3A0      #001=DDA$PLUGH File=DDA$PLUGH.:E05TSI                              TUE 07/29/97 13:35 Page:19
       83     9360    1        IF S_D.RUM

   9360  1 000013   000000 470400 xsym               LDP0    S_D$
         1 000014   004755 234100                    SZN     2541,,PR0
         1 000015   000307 604000 1                  TMI     ERRRUM

       84     9361    1        THEN GOTO ERRRUM;
       85     9362    1        IF S_D.ANLZ AND NOT S_D.ANLZ_FILE

   9362  1 000016   004756 234100                    SZN     2542,,PR0
         1 000017   000022 605000 1                  TPL     s:9364
         1 000020   005052 234100                    SZN     2602,,PR0
         1 000021   000312 605000 1                  TPL     ERRANLZ

       86     9363    1        THEN GOTO ERRANLZ;
       87     9364    1        IF S_D.DO$ -> PLUGH$CMD.DDESC AND NOT PMD_PLUGH

   9364  1 000022   000031 471500                    LDP1    25,,PR0
         1 000023   100001 236100                    LDQ     1,,PR1
         1 000024   200000 316007                    CANQ    65536,DL
         1 000025   000067 600000 1                  TZE     s:9376
         1 000026   200035 234100                    SZN     PMD_PLUGH,,AUTO
         1 000027   000067 604000 1                  TMI     s:9376

       88     9365    2        THEN DO;                           /* Evaluate data descriptor */

       89     9366    2             S_D.DESC$ = S_D.D$;

   9366  1 000030   000044 236100                    LDQ     36,,PR0
         1 000031   000041 756100                    STQ     33,,PR0

       90     9367    2             CALL DDK$EVAL( ADDRESS, SEG#, DESC#, NOT_IS ) ALTRET( ARET );

   9367  1 000032   200023 633500                    EPPR3   NOT_IS,,AUTO
         1 000033   200071 453500                    STP3    SAVE_DESCL$+4,,AUTO
         1 000034   200022 631500                    EPPR1   DESC#,,AUTO
         1 000035   200070 451500                    STP1    SAVE_DESCL$+3,,AUTO
PL6.E3A0      #001=DDA$PLUGH File=DDA$PLUGH.:E05TSI                              TUE 07/29/97 13:35 Page:20
         1 000036   200021 634500                    EPPR4   SEG#,,AUTO
         1 000037   200067 454500                    STP4    SAVE_DESCL$+2,,AUTO
         1 000040   200020 635500                    EPPR5   ADDRESS,,AUTO
         1 000041   200066 455500                    STP5    SAVE_DESCL$+1,,AUTO
         1 000042   200066 630500                    EPPR0   SAVE_DESCL$+1,,AUTO
         1 000043   000022 631400 xsym               EPPR1   B_VECTNIL+18
         1 000044   000000 701000 xent               TSX1    DDK$EVAL
         1 000045   000334 702000 1                  TSX2    ARET

       91     9368    2             IF ADDRESS ~= 0

   9368  1 000046   200020 235100                    LDA     ADDRESS,,AUTO
         1 000047   000121 600000 1                  TZE     s:9387

       92     9369    3             THEN DO;

       93     9370    3                  S_D.OUTPUT =
              9370                       'AUTO stack not at beginning of a segment, PLUGH will probably fail'
              9370                           ;

   9370  1 000050   000000 470400 xsym               LDP0    S_D$
         1 000051   040100 100400                    MLR     fill='040'O
         1 000052   000000 000102 0                  ADSC9   0                        cn=0,n=66
         1 000053   005335 004000                    ADSC9   2781,,PR0                cn=0,n=2048

       94     9371    3                  NCARS = LENGTHC(
              9371                       'AUTO stack not at beginning of a segment, PLUGH will probably fail'
              9371                           );

   9371  1 000054   000102 236007                    LDQ     66,DL
         1 000055   200033 756100                    STQ     NCARS,,AUTO

       95     9372    3                  CALL DDQ$WRITE( OUT$, NCARS );

   9372  1 000056   200033 631500                    EPPR1   NCARS,,AUTO
         1 000057   200067 451500                    STP1    SAVE_DESCL$+2,,AUTO
         1 000060   200032 633500                    EPPR3   OUT$,,AUTO
PL6.E3A0      #001=DDA$PLUGH File=DDA$PLUGH.:E05TSI                              TUE 07/29/97 13:35 Page:21
         1 000061   200066 453500                    STP3    SAVE_DESCL$+1,,AUTO
         1 000062   200066 630500                    EPPR0   SAVE_DESCL$+1,,AUTO
         1 000063   000020 631400 xsym               EPPR1   B_VECTNIL+16
         1 000064   000000 701000 xent               TSX1    DDQ$WRITE
         1 000065   000000 011000                    NOP     0

       96     9373    3                END;

       97     9374    2           END;

   9374  1 000066   000121 710000 1                  TRA     s:9387

       98     9375    2        ELSE DO;                           /* Default is DR2 */

       99     9376    2             IF D_XDELTA AND ( U$SE ~= USE_ORIG$ -> U$SE )

   9376  1 000067   000000 234000 xsym               SZN     D_XDELTA
         1 000070   000077 605000 1                  TPL     s:9378
         1 000071   000000 473400 xsym               LDP3    USE$
         1 000072   000000 474400 xsym               LDP4    USE_ORIG$
         1 000073   000100 106500                    CMPC    fill='000'O
         1 000074   300000 000024                    ADSC9   0,,PR3                   cn=0,n=20
         1 000075   400000 000024                    ADSC9   0,,PR4                   cn=0,n=20
         1 000076   000315 601000 1                  TNZ     ERRUSE

      100     9377    2             THEN GOTO ERRUSE;
      101     9378    2             IF S_D.OVERLAID AND ( S_D.TREE$ ~= S_D.MTREE$ )

   9378  1 000077   004764 234100                    SZN     2548,,PR0
         1 000100   000104 605000 1                  TPL     s:9381
         1 000101   004761 236100                    LDQ     2545,,PR0
         1 000102   004762 116100                    CMPQ    2546,,PR0
         1 000103   000315 601000 1                  TNZ     ERRUSE

      102     9379    2             THEN GOTO ERRUSE;
      103     9380        /*N* ANLZ-file mode can't tell if USE CURRENT is in effect */
      104     9381    2             PR2 = S_D.USS$ -> B$SS.PR2;
PL6.E3A0      #001=DDA$PLUGH File=DDA$PLUGH.:E05TSI                              TUE 07/29/97 13:35 Page:22

   9381  1 000104   000005 473500                    LDP3    5,,PR0
         1 000105   300022 236100                    LDQ     18,,PR3
         1 000106   200024 756100                    STQ     PR2,,AUTO

      105     9382    2             SEG# = PR2.S;

   9382  1 000107   200024 236100                    LDQ     PR2,,AUTO
         1 000110   000012 772000                    QRL     10
         1 000111   000003 376007                    ANQ     3,DL
         1 000112   200021 756100                    STQ     SEG#,,AUTO

      106     9383    2             DESC# = PR2.D;

   9383  1 000113   200024 236100                    LDQ     PR2,,AUTO
         1 000114   001777 376007                    ANQ     1023,DL
         1 000115   200022 756100                    STQ     DESC#,,AUTO

      107     9384    2             ADDRESS = 0;

   9384  1 000116   200020 450100                    STZ     ADDRESS,,AUTO

      108     9385    2             NOT_IS = '1'B;

   9385  1 000117   400000 236003                    LDQ     -131072,DU
         1 000120   200023 756100                    STQ     NOT_IS,,AUTO

      109     9386    2           END;

      110     9387    1        IF SEG# ~= %LS

   9387  1 000121   200021 235100                    LDA     SEG#,,AUTO
         1 000122   000003 115007                    CMPA    3,DL
         1 000123   000142 600000 1                  TZE     s:9393

      111     9388    2        THEN DO;

PL6.E3A0      #001=DDA$PLUGH File=DDA$PLUGH.:E05TSI                              TUE 07/29/97 13:35 Page:23
      112     9389    2             S_D.OUTPUT =
              9389                   'AUTO stack descriptor not in linkage segment, PLUGH will probably fail'
              9389                      ;

   9389  1 000124   000000 470400 xsym               LDP0    S_D$
         1 000125   040100 100400                    MLR     fill='040'O
         1 000126   000021 000106 0                  ADSC9   17                       cn=0,n=70
         1 000127   005335 004000                    ADSC9   2781,,PR0                cn=0,n=2048

      113     9390    2             NCARS = LENGTHC(
              9390                   'AUTO stack descriptor not in linkage segment, PLUGH will probably fail'
              9390                      );

   9390  1 000130   000106 236007                    LDQ     70,DL
         1 000131   200033 756100                    STQ     NCARS,,AUTO

      114     9391    2             CALL DDQ$WRITE( OUT$, NCARS );

   9391  1 000132   200033 631500                    EPPR1   NCARS,,AUTO
         1 000133   200067 451500                    STP1    SAVE_DESCL$+2,,AUTO
         1 000134   200032 633500                    EPPR3   OUT$,,AUTO
         1 000135   200066 453500                    STP3    SAVE_DESCL$+1,,AUTO
         1 000136   200066 630500                    EPPR0   SAVE_DESCL$+1,,AUTO
         1 000137   000020 631400 xsym               EPPR1   B_VECTNIL+16
         1 000140   000000 701000 xent               TSX1    DDQ$WRITE
         1 000141   000000 011000                    NOP     0

      115     9392    2           END;

      116     9393    1        IF MOD( ADDRESS, 2 ) ~= 0

   9393  1 000142   200020 236100                    LDQ     ADDRESS,,AUTO
         1 000143   000001 376007                    ANQ     1,DL
         1 000144   000330 601000 1                  TNZ     ERRODD

      117     9394    1        THEN GOTO ERRODD;
      118     9395        /* Get the auto stack base */
PL6.E3A0      #001=DDA$PLUGH File=DDA$PLUGH.:E05TSI                              TUE 07/29/97 13:35 Page:24
      119     9396    1        CALL GET_FRAME( 0, BASE ) ALTRET( ARET );

   9396  1 000145   200010 630500                    EPPR0   BASE,,AUTO
         1 000146   200054 450500                    STP0    @OFFST+1,,AUTO
         1 000147   000000 236000 2                  LDQ     0
         1 000150   200053 756100                    STQ     NCARS+2,,AUTO
         1 000151   000340 701000 1                  TSX1    GET_FRAME
         1 000152   000334 702000 1                  TSX2    ARET

      120     9397    1        CURR_OFFSET = -( BASE.NEG_CURR_FRAME_OFFSET_MINUS_1 + 1 );

   9397  1 000153   200010 720100                    LXL0    BASE,,AUTO
         1 000154   777777 660003                    ERX0    -1,DU
         1 000155   200025 740100                    STX0    CURR_OFFSET,,AUTO

      121     9398        /* Validate the contents of the base */
      122     9399    1        IF ( BASE.MBZ1 ~= 0 )

   9399  1 000156   200011 221100                    LDX1    BASE+1,,AUTO
         1 000157   000320 601000 1                  TNZ     ERRBASE
         1 000160   000003 622010                    EAX2    3,X0
         1 000161   200012 102100                    CMPX2   BASE+2,,AUTO
         1 000162   000164 600000 1                  TZE     s:9403
         1 000163   000320 603000 1                  TRC     ERRBASE

      123     9400    1          OR ( BASE.LIMIT_OFFSET < CURR_OFFSET + 3 )
      124     9401    1        THEN GOTO ERRBASE;
      125     9402        /* The current IC may be in a NOAUTO proc */
      126     9403    1        LOC = S_D.SAVEIC;

   9403  1 000164   000000 470400 xsym               LDP0    S_D$
         1 000165   000002 235100                    LDA     2,,PR0
         1 000166   200030 755100                    STA     LOC,,AUTO

      127     9404    1        CALL DO_NOAUTO ALTRET( ENTER );    /* What a sham */

   9404  1 000167   000503 701000 1                  TSX1    DO_NOAUTO
PL6.E3A0      #001=DDA$PLUGH File=DDA$PLUGH.:E05TSI                              TUE 07/29/97 13:35 Page:25
         1 000170   000252 702000 1                  TSX2    ENTER

      128     9405        /* Tip-toe through the tulips */
      129     9406    2        DO WHILE ( '1'B );

      130     9407    2             CALL DDB$BREAK ALTRET( RETN );

   9407  1 000171   000002 631400 xsym               EPPR1   B_VECTNIL+2
         1 000172   000000 701000 xent               TSX1    DDB$BREAK
         1 000173   000306 702000 1                  TSX2    RETN

      131     9408    2             TOP_FRAME = '0'B;

   9408  1 000174   200031 450100                    STZ     TOP_FRAME,,AUTO

      132     9409    2             IF FRAME.RETURN_ADDRESS = 0

   9409  1 000175   200014 220100                    LDX0    FRAME,,AUTO
         1 000176   000206 601000 1                  TNZ     s:9414

      133     9410    3             THEN DO;

      134     9411    3                  TOP_FRAME = '1'B;

   9411  1 000177   400000 236003                    LDQ     -131072,DU
         1 000200   200031 756100                    STQ     TOP_FRAME,,AUTO

      135     9412    3                  LOC = FRAME.LOC_OF_ENTRY_MAIN_OR_ASYNC - 1;

   9412  1 000201   200016 236100                    LDQ     FRAME+2,,AUTO
         1 000202   777777 376007                    ANQ     -1,DL
         1 000203   000001 136007                    SBLQ    1,DL
         1 000204   200030 756100                    STQ     LOC,,AUTO

      136     9413    3                END;

   9413  1 000205   000212 710000 1                  TRA     s:9415
PL6.E3A0      #001=DDA$PLUGH File=DDA$PLUGH.:E05TSI                              TUE 07/29/97 13:35 Page:26

      137     9414    2             ELSE LOC = FRAME.RETURN_ADDRESS - 1;

   9414  1 000206   200014 235100                    LDA     FRAME,,AUTO
         1 000207   000022 771000                    ARL     18
         1 000210   000001 135007                    SBLA    1,DL
         1 000211   200030 755100                    STA     LOC,,AUTO

      138     9415    2             CALL PRINT_LOC( CURR_OFFSET, '1'B );

   9415  1 000212   000001 236000 2                  LDQ     1
         1 000213   200054 756100                    STQ     @OFFST+1,,AUTO
         1 000214   200025 630500                    EPPR0   CURR_OFFSET,,AUTO
         1 000215   200053 450500                    STP0    NCARS+2,,AUTO
         1 000216   000725 701000 1                  TSX1    PRINT_LOC
         1 000217   000000 011000                    NOP     0

      139     9416    2             IF TOP_FRAME

   9416  1 000220   200031 234100                    SZN     TOP_FRAME,,AUTO
         1 000221   000244 605000 1                  TPL     s:9424

      140     9417    3             THEN DO;

      141     9418    3                  S_D.OUTPUT = 'Bottom frame';

   9418  1 000222   000000 470400 xsym               LDP0    S_D$
         1 000223   040100 100400                    MLR     fill='040'O
         1 000224   000043 000014 0                  ADSC9   35                       cn=0,n=12
         1 000225   005335 004000                    ADSC9   2781,,PR0                cn=0,n=2048

      142     9419    3                  NCARS = LENGTHC( 'Bottom frame' );

   9419  1 000226   000014 235007                    LDA     12,DL
         1 000227   200033 755100                    STA     NCARS,,AUTO

      143     9420    3                  CALL DDQ$WRITE( OUT$, NCARS );
PL6.E3A0      #001=DDA$PLUGH File=DDA$PLUGH.:E05TSI                              TUE 07/29/97 13:35 Page:27

   9420  1 000230   200033 631500                    EPPR1   NCARS,,AUTO
         1 000231   200067 451500                    STP1    SAVE_DESCL$+2,,AUTO
         1 000232   200032 633500                    EPPR3   OUT$,,AUTO
         1 000233   200066 453500                    STP3    SAVE_DESCL$+1,,AUTO
         1 000234   200066 630500                    EPPR0   SAVE_DESCL$+1,,AUTO
         1 000235   000020 631400 xsym               EPPR1   B_VECTNIL+16
         1 000236   000000 701000 xent               TSX1    DDQ$WRITE
         1 000237   000000 011000                    NOP     0

      144     9421    3                  IF PREV_OFFSET = CURR_OFFSET

   9421  1 000240   200026 220100                    LDX0    PREV_OFFSET,,AUTO
         1 000241   200025 100100                    CMPX0   CURR_OFFSET,,AUTO
         1 000242   000304 600000 1                  TZE     OUT

      145     9422    3                  THEN GOTO OUT;
      146     9423    3                END;

   9423  1 000243   000246 710000 1                  TRA     s:9425

      147     9424    2             ELSE CALL DO_NOAUTO;          /* Another NOAUTO creature? */

   9424  1 000244   000503 701000 1                  TSX1    DO_NOAUTO
         1 000245   000000 011000                    NOP     0

      148     9425    2             IF PREV_OFFSET = CURR_OFFSET

   9425  1 000246   200026 220100                    LDX0    PREV_OFFSET,,AUTO
         1 000247   200025 100100                    CMPX0   CURR_OFFSET,,AUTO
         1 000250   000324 600000 1                  TZE     ERRAUTO

      149     9426    2             THEN GOTO ERRAUTO;
      150     9427    2             CURR_OFFSET = PREV_OFFSET;

   9427  1 000251   200025 740100                    STX0    CURR_OFFSET,,AUTO

PL6.E3A0      #001=DDA$PLUGH File=DDA$PLUGH.:E05TSI                              TUE 07/29/97 13:35 Page:28
      151     9428    2   ENTER:
      152     9429    2             CALL GET_FRAME( CURR_OFFSET, FRAME ) ALTRET( ARET );

   9429  1 000252   200014 630500       ENTER        EPPR0   FRAME,,AUTO
         1 000253   200054 450500                    STP0    @OFFST+1,,AUTO
         1 000254   200025 631500                    EPPR1   CURR_OFFSET,,AUTO
         1 000255   200053 451500                    STP1    NCARS+2,,AUTO
         1 000256   000340 701000 1                  TSX1    GET_FRAME
         1 000257   000334 702000 1                  TSX2    ARET

      153     9430    2             PREV_OFFSET = -( FRAME.NEG_PREV_FRAME_OFFSET_MINUS_1 + 1 );

   9430  1 000260   200014 720100                    LXL0    FRAME,,AUTO
         1 000261   777777 660003                    ERX0    -1,DU
         1 000262   200026 740100                    STX0    PREV_OFFSET,,AUTO

      154     9431    2             NEXT_OFFSET =    FRAME.NEXT_FRAME_OFFSET_PLUS_1 - 1;

   9431  1 000263   200016 235100                    LDA     FRAME+2,,AUTO
         1 000264   000022 771000                    ARL     18
         1 000265   000001 135007                    SBLA    1,DL
         1 000266   200027 755100                    STA     NEXT_OFFSET,,AUTO

      155     9432        /* Validate current frame */
      156     9433    2             IF PREV_OFFSET ~= CURR_OFFSET

   9433  1 000267   200025 100100                    CMPX0   CURR_OFFSET,,AUTO
         1 000270   000171 600000 1                  TZE     s:9407

      157     9434    2             THEN IF ( NEXT_OFFSET < CURR_OFFSET + 4 ) OR

   9434  1 000271   200025 236100                    LDQ     CURR_OFFSET,,AUTO
         1 000272   000022 772000                    QRL     18
         1 000273   000004 036007                    ADLQ    4,DL
         1 000274   200027 116100                    CMPQ    NEXT_OFFSET,,AUTO
         1 000275   000277 600000 1                  TZE     s:9434+6
         1 000276   000324 603000 1                  TRC     ERRAUTO
PL6.E3A0      #001=DDA$PLUGH File=DDA$PLUGH.:E05TSI                              TUE 07/29/97 13:35 Page:29
         1 000277   200025 221100                    LDX1    CURR_OFFSET,,AUTO
         1 000300   777774 622011                    EAX2    -4,X1
         1 000301   200026 102100                    CMPX2   PREV_OFFSET,,AUTO
         1 000302   000324 602000 1                  TNC     ERRAUTO

      158     9435    2                    ( PREV_OFFSET > CURR_OFFSET - 4 )
      159     9436    2                  THEN GOTO ERRAUTO;
      160     9437    2           END;

   9437  1 000303   000171 710000 1                  TRA     s:9407

      161     9438        /* Make sure PREV_OFFSET = 4 */
      162     9439    1   OUT:
      163     9440    1        IF PREV_OFFSET ~= 4

   9440  1 000304   000004 100003       OUT          CMPX0   4,DU
         1 000305   000324 601000 1                  TNZ     ERRAUTO

      164     9441    1        THEN GOTO ERRAUTO;
      165     9442
      166     9443    1   RETN:
      167     9444    1        RETURN;

   9444  1 000306   000000 702200 xent  RETN         TSX2  ! X66_ARET

      168     9445
      169     9446    1   ERRRUM: S_D.ERROR = 229; GOTO ARET; /* E@NOTINRUM */

   9446  1 000307   000345 235007       ERRRUM       LDA     229,DL
         1 000310   000013 755100                    STA     11,,PR0

   9446  1 000311   000334 710000 1                  TRA     ARET

      170     9447    1   ERRANLZ: S_D.ERROR = 182; GOTO ARET; /* E@NOTANLZ_FILE */

   9447  1 000312   000266 235007       ERRANLZ      LDA     182,DL
         1 000313   000013 755100                    STA     11,,PR0
PL6.E3A0      #001=DDA$PLUGH File=DDA$PLUGH.:E05TSI                              TUE 07/29/97 13:35 Page:30

   9447  1 000314   000334 710000 1                  TRA     ARET

      171     9448    1   ERRUSE: S_D.ERROR = 38; GOTO ARET; /* E@USE_CONFLICT */

   9448  1 000315   000046 235007       ERRUSE       LDA     38,DL
         1 000316   000013 755100                    STA     11,,PR0

   9448  1 000317   000334 710000 1                  TRA     ARET

      172     9449    1   ERRBASE: S_D.ERROR = 160; GOTO ARET; /* E@AUTOBASE */

   9449  1 000320   000240 235007       ERRBASE      LDA     160,DL
         1 000321   000000 470400 xsym               LDP0    S_D$
         1 000322   000013 755100                    STA     11,,PR0

   9449  1 000323   000334 710000 1                  TRA     ARET

      173     9450    1   ERRAUTO: S_D.ERROR = 159; GOTO ARET; /* E@BADAUTO */

   9450  1 000324   000237 235007       ERRAUTO      LDA     159,DL
         1 000325   000000 470400 xsym               LDP0    S_D$
         1 000326   000013 755100                    STA     11,,PR0

   9450  1 000327   000334 710000 1                  TRA     ARET

      174     9451    1   ERRODD: S_D.ERROR = 230; GOTO ARET; /* E@ODDBASE */

   9451  1 000330   000346 235007       ERRODD       LDA     230,DL
         1 000331   000000 470400 xsym               LDP0    S_D$
         1 000332   000013 755100                    STA     11,,PR0

   9451  1 000333   000334 710000 1                  TRA     ARET

      175     9452
      176     9453    1   ARET:
      177     9454    1        CALL DDE$ERROR;
PL6.E3A0      #001=DDA$PLUGH File=DDA$PLUGH.:E05TSI                              TUE 07/29/97 13:35 Page:31

   9454  1 000334   000002 631400 xsym  ARET         EPPR1   B_VECTNIL+2
         1 000335   000000 701000 xent               TSX1    DDE$ERROR
         1 000336   000000 011000                    NOP     0

      178     9455
      179     9456    1        RETURN;

   9456  1 000337   000000 702200 xent               TSX2  ! X66_ARET

      180     9457
      181     9458        %EJECT;
PL6.E3A0      #001=DDA$PLUGH File=DDA$PLUGH.:E05TSI                              TUE 07/29/97 13:35 Page:32
      182     9459
      183     9460    1   GET_FRAME: PROC( START, FRAME ) ALTRET;

   9460  1 000340   200052 741300       GET_FRAME    STX1  ! NCARS+1,,AUTO

      184     9461
      185     9462    2   DCL START UBIN HALF ALIGNED;
      186     9463    2   DCL FRAME(0:3) UBIN;
      187     9464    2   DCL IX UBIN;
      188     9465    2   DCL OFFSET UBIN;
      189     9466    2   DCL VALUE UBIN;
      190     9467
      191     9468    3        DO IX = 0 TO 3;

   9468  1 000341   200055 450100                    STZ     IX,,AUTO

      192     9469    3             OFFSET = ADDRESS + START + IX;

   9469  1 000342   200053 470500                    LDP0    @START,,AUTO
         1 000343   000000 236100                    LDQ     0,,PR0
         1 000344   000022 772000                    QRL     18
         1 000345   200020 036100                    ADLQ    ADDRESS,,AUTO
         1 000346   200055 036100                    ADLQ    IX,,AUTO
         1 000347   200056 756100                    STQ     OFFSET,,AUTO

      193     9470    3             IF S_D.ANLZ

   9470  1 000350   000000 471400 xsym               LDP1    S_D$
         1 000351   104756 234100                    SZN     2542,,PR1
         1 000352   000372 605000 1                  TPL     s:9472

      194     9471    3            THEN CALL DUL$GETMVAL( VALUE, OFFSET, SEG#, DESC#, NOT_IS ) ALTRET( ARET )
              9471                      ;

   9471  1 000353   200023 633500                    EPPR3   NOT_IS,,AUTO
         1 000354   200072 453500                    STP3    SAVE_DESCL$+5,,AUTO
         1 000355   200022 634500                    EPPR4   DESC#,,AUTO
PL6.E3A0      #001=DDA$PLUGH File=DDA$PLUGH.:E05TSI                              TUE 07/29/97 13:35 Page:33
         1 000356   200071 454500                    STP4    SAVE_DESCL$+4,,AUTO
         1 000357   200021 635500                    EPPR5   SEG#,,AUTO
         1 000360   200070 455500                    STP5    SAVE_DESCL$+3,,AUTO
         1 000361   200056 636500                    EPPR6   OFFSET,,AUTO
         1 000362   200067 456500                    STP6    SAVE_DESCL$+2,,AUTO
         1 000363   200057 637500                    EPPR7   VALUE,,AUTO
         1 000364   200066 457500                    STP7    SAVE_DESCL$+1,,AUTO
         1 000365   200066 630500                    EPPR0   SAVE_DESCL$+1,,AUTO
         1 000366   000023 631400 xsym               EPPR1   B_VECTNIL+19
         1 000367   000000 701000 xent               TSX1    DUL$GETMVAL
         1 000370   000501 702000 1                  TSX2    ARET
         1 000371   000410 710000 1                  TRA     s:9473

      195     9472    3            ELSE CALL DDK$GETMVAL( VALUE, OFFSET, SEG#, DESC#, NOT_IS ) ALTRET( ARET )
              9472                      ;

   9472  1 000372   200023 633500                    EPPR3   NOT_IS,,AUTO
         1 000373   200072 453500                    STP3    SAVE_DESCL$+5,,AUTO
         1 000374   200022 634500                    EPPR4   DESC#,,AUTO
         1 000375   200071 454500                    STP4    SAVE_DESCL$+4,,AUTO
         1 000376   200021 635500                    EPPR5   SEG#,,AUTO
         1 000377   200070 455500                    STP5    SAVE_DESCL$+3,,AUTO
         1 000400   200056 636500                    EPPR6   OFFSET,,AUTO
         1 000401   200067 456500                    STP6    SAVE_DESCL$+2,,AUTO
         1 000402   200057 637500                    EPPR7   VALUE,,AUTO
         1 000403   200066 457500                    STP7    SAVE_DESCL$+1,,AUTO
         1 000404   200066 630500                    EPPR0   SAVE_DESCL$+1,,AUTO
         1 000405   000023 631400 xsym               EPPR1   B_VECTNIL+19
         1 000406   000000 701000 xent               TSX1    DDK$GETMVAL
         1 000407   000501 702000 1                  TSX2    ARET

      196     9473    3             FRAME( IX ) = VALUE;

   9473  1 000410   200054 470500                    LDP0    @FRAME,,AUTO
         1 000411   200055 720100                    LXL0    IX,,AUTO
         1 000412   200057 235100                    LDA     VALUE,,AUTO
         1 000413   000000 755110                    STA     0,X0,PR0
PL6.E3A0      #001=DDA$PLUGH File=DDA$PLUGH.:E05TSI                              TUE 07/29/97 13:35 Page:34

      197     9474    3           END;

   9474  1 000414   200055 236100                    LDQ     IX,,AUTO
         1 000415   000001 036007                    ADLQ    1,DL
         1 000416   200055 756100                    STQ     IX,,AUTO
         1 000417   000004 116007                    CMPQ    4,DL
         1 000420   000342 602000 1                  TNC     s:9469

      198     9475
      199     9476    2        RETURN;

   9476  1 000421   200052 221300                    LDX1  ! NCARS+1,,AUTO
         1 000422   000001 702211                    TSX2  ! 1,X1

      200     9477
      201     9478    2   GET_ISFRAME: ENTRY( START, FRAME ) ALTRET;

   9478  1 000423   200052 741300       GET_ISFRAME  STX1  ! NCARS+1,,AUTO

      202     9479
      203     9480    3        DO IX = 0 TO 1;

   9480  1 000424   200055 450100                    STZ     IX,,AUTO

      204     9481    3             OFFSET = START + IX;

   9481  1 000425   200053 470500                    LDP0    @START,,AUTO
         1 000426   000000 236100                    LDQ     0,,PR0
         1 000427   000022 772000                    QRL     18
         1 000430   200055 036100                    ADLQ    IX,,AUTO
         1 000431   200056 756100                    STQ     OFFSET,,AUTO

      205     9482    3             IF S_D.ANLZ

   9482  1 000432   000000 471400 xsym               LDP1    S_D$
         1 000433   104756 234100                    SZN     2542,,PR1
PL6.E3A0      #001=DDA$PLUGH File=DDA$PLUGH.:E05TSI                              TUE 07/29/97 13:35 Page:35
         1 000434   000452 605000 1                  TPL     s:9484

      206     9483    3             THEN CALL DUL$GETMVAL( VALUE, OFFSET, 0, 0, '0'B ) ALTRET( ARET );

   9483  1 000435   000000 236000 2                  LDQ     0
         1 000436   200072 756100                    STQ     SAVE_DESCL$+5,,AUTO
         1 000437   000002 237000 2                  LDAQ    2
         1 000440   200070 757100                    STAQ    SAVE_DESCL$+3,,AUTO
         1 000441   200056 633500                    EPPR3   OFFSET,,AUTO
         1 000442   200067 453500                    STP3    SAVE_DESCL$+2,,AUTO
         1 000443   200057 634500                    EPPR4   VALUE,,AUTO
         1 000444   200066 454500                    STP4    SAVE_DESCL$+1,,AUTO
         1 000445   200066 630500                    EPPR0   SAVE_DESCL$+1,,AUTO
         1 000446   000023 631400 xsym               EPPR1   B_VECTNIL+19
         1 000447   000000 701000 xent               TSX1    DUL$GETMVAL
         1 000450   000501 702000 1                  TSX2    ARET
         1 000451   000466 710000 1                  TRA     s:9485

      207     9484    3             ELSE CALL DDK$GETMVAL( VALUE, OFFSET, 0, 0, '0'B ) ALTRET( ARET );

   9484  1 000452   000000 236000 2                  LDQ     0
         1 000453   200072 756100                    STQ     SAVE_DESCL$+5,,AUTO
         1 000454   000002 237000 2                  LDAQ    2
         1 000455   200070 757100                    STAQ    SAVE_DESCL$+3,,AUTO
         1 000456   200056 633500                    EPPR3   OFFSET,,AUTO
         1 000457   200067 453500                    STP3    SAVE_DESCL$+2,,AUTO
         1 000460   200057 634500                    EPPR4   VALUE,,AUTO
         1 000461   200066 454500                    STP4    SAVE_DESCL$+1,,AUTO
         1 000462   200066 630500                    EPPR0   SAVE_DESCL$+1,,AUTO
         1 000463   000023 631400 xsym               EPPR1   B_VECTNIL+19
         1 000464   000000 701000 xent               TSX1    DDK$GETMVAL
         1 000465   000501 702000 1                  TSX2    ARET

      208     9485    3             FRAME( IX ) = VALUE;

   9485  1 000466   200054 470500                    LDP0    @FRAME,,AUTO
         1 000467   200055 720100                    LXL0    IX,,AUTO
PL6.E3A0      #001=DDA$PLUGH File=DDA$PLUGH.:E05TSI                              TUE 07/29/97 13:35 Page:36
         1 000470   200057 235100                    LDA     VALUE,,AUTO
         1 000471   000000 755110                    STA     0,X0,PR0

      209     9486    3           END;

   9486  1 000472   200055 236100                    LDQ     IX,,AUTO
         1 000473   000001 036007                    ADLQ    1,DL
         1 000474   200055 756100                    STQ     IX,,AUTO
         1 000475   000002 116007                    CMPQ    2,DL
         1 000476   000425 602000 1                  TNC     s:9481

      210     9487
      211     9488    2        RETURN;

   9488  1 000477   200052 221300                    LDX1  ! NCARS+1,,AUTO
         1 000500   000001 702211                    TSX2  ! 1,X1

      212     9489
      213     9490    2   ARET: ALTRETURN;

   9490  1 000501   200052 221300       ARET         LDX1  ! NCARS+1,,AUTO
         1 000502   000000 702211                    TSX2  ! 0,X1

      214     9491
      215     9492    2   END GET_FRAME;
      216     9493
      217     9494        %EJECT;
PL6.E3A0      #001=DDA$PLUGH File=DDA$PLUGH.:E05TSI                              TUE 07/29/97 13:35 Page:37
      218     9495
      219     9496    1   DO_NOAUTO: PROC ALTRET;

   9496  1 000503   200036 741300       DO_NOAUTO    STX1  ! PMD_PLUGH+1,,AUTO

      220     9497
      221     9498        %AUTO$FRAME (NAME=NOAUTO_FRAME, STCLASS=AUTO);
      222     9509    2   DCL E$ PTR;
      223     9510    2   DCL CST UBIN;
      224     9511    2   DCL FRAME_LOC UBIN HALF ALIGNED;
      225     9512    2   DCL BB$ PTR;
      226     9513    2   DCL REM UBIN;
      227     9514    2   DCL NCARS UBIN;
      228     9515
      229     9516    3        DO WHILE ( '1'B );

      230     9517    3             CALL DDB$BREAK ALTRET( RETN );

   9517  1 000504   000002 631400 xsym               EPPR1   B_VECTNIL+2
         1 000505   000000 701000 xent               TSX1    DDB$BREAK
         1 000506   000723 702000 1                  TSX2    RETN

      231     9518    3             CALL DDS$ES_INQ( LOC ) ALTRET( RETN );

   9518  1 000507   200030 630500                    EPPR0   LOC,,AUTO
         1 000510   200066 450500                    STP0    SAVE_DESCL$+1,,AUTO
         1 000511   200066 630500                    EPPR0   SAVE_DESCL$+1,,AUTO
         1 000512   000017 631400 xsym               EPPR1   B_VECTNIL+15
         1 000513   000000 701000 xent               TSX1    DDS$ES_INQ
         1 000514   000723 702000 1                  TSX2    RETN

      232     9519    3             E$ = PINCRW(S_D.EDEF$, S_D.QSCH.PEDEF# * SIZEW( B$EDEF ));

   9519  1 000515   000000 470400 xsym               LDP0    S_D$
         1 000516   000734 720100                    LXL0    476,,PR0
         1 000517   001042 471500                    LDP1    546,,PR0
         1 000520   000000 635010                    EAA     0,X0
PL6.E3A0      #001=DDA$PLUGH File=DDA$PLUGH.:E05TSI                              TUE 07/29/97 13:35 Page:38
         1 000521   000021 771000                    ARL     17
         1 000522   100000 633505                    EPPR3   0,AL,PR1
         1 000523   200044 453500                    STP3    E$,,AUTO

      233     9520    3             CST = E$->B$EDEF.CST;

   9520  1 000524   300001 236100                    LDQ     1,,PR3
         1 000525   000013 772000                    QRL     11
         1 000526   000017 376007                    ANQ     15,DL
         1 000527   200045 756100                    STQ     CST,,AUTO

      234     9521    3             IF ( S_D.LB0$ -> B$LBNTRY0.FRAME ~= 0 ) AND (LOC~=E$->B$EDEF.ISADDR) AND

   9521  1 000530   001035 474500                    LDP4    541,,PR0
         1 000531   400002 235100                    LDA     2,,PR4
         1 000532   000723 600000 1                  TZE     RETN
         1 000533   300000 236100                    LDQ     0,,PR3
         1 000534   000032 376000 xsym               ANQ     B_VECTNIL+26
         1 000535   200030 116100                    CMPQ    LOC,,AUTO
         1 000536   000723 600000 1                  TZE     RETN
         1 000537   200045 235100                    LDA     CST,,AUTO
         1 000540   000553 600000 1                  TZE     s:9525
         1 000541   000005 115007                    CMPA    5,DL
         1 000542   000553 600000 1                  TZE     s:9525
         1 000543   000003 115007                    CMPA    3,DL
         1 000544   000553 600000 1                  TZE     s:9525
         1 000545   000010 115007                    CMPA    8,DL
         1 000546   000553 600000 1                  TZE     s:9525
         1 000547   000004 115007                    CMPA    4,DL
         1 000550   000553 600000 1                  TZE     s:9525
         1 000551   000011 115007                    CMPA    9,DL
         1 000552   000723 601000 1                  TNZ     RETN

      235     9522    3               ( ( CST = %STD# ) OR ( CST = %XSTD# ) OR ( CST = %ASYNC# ) OR
      236     9523    3               ( CST = %XASYNC# ) OR ( CST = %FUNC# ) OR ( CST = %XFUNC# ) )
      237     9524    4             THEN DO;

PL6.E3A0      #001=DDA$PLUGH File=DDA$PLUGH.:E05TSI                              TUE 07/29/97 13:35 Page:39
      238     9525    4                  FRAME_LOC = S_D.LB0$ -> B$LBNTRY0.FRAME;

   9525  1 000553   400002 721100                    LXL1    2,,PR4
         1 000554   200046 741100                    STX1    FRAME_LOC,,AUTO

      239     9526    4                  CALL GET_ISFRAME( FRAME_LOC, NOAUTO_FRAME ) ALTRET( NO_SEE );

   9526  1 000555   200040 635500                    EPPR5   NOAUTO_FRAME,,AUTO
         1 000556   200054 455500                    STP5    @FRAME,,AUTO
         1 000557   200046 636500                    EPPR6   FRAME_LOC,,AUTO
         1 000560   200053 456500                    STP6    @START,,AUTO
         1 000561   000423 701000 1                  TSX1    GET_ISFRAME
         1 000562   000631 702000 1                  TSX2    NO_SEE

      240     9527    4                  IF NOAUTO_FRAME.RETURN_ADDRESS = 0

   9527  1 000563   200040 220100                    LDX0    NOAUTO_FRAME,,AUTO
         1 000564   000616 601000 1                  TNZ     s:9537

      241     9528    5                  THEN DO;

      242     9529    5                       LOC = NOAUTO_FRAME.NOAUTO_LOC_OF_ENTRY_ASYNC - 1;

   9529  1 000565   200040 236100                    LDQ     NOAUTO_FRAME,,AUTO
         1 000566   777777 376007                    ANQ     -1,DL
         1 000567   000001 136007                    SBLQ    1,DL
         1 000570   200030 756100                    STQ     LOC,,AUTO

      243     9530    5                       CALL PRINT_LOC( FRAME_LOC, '0'B );

   9530  1 000571   000000 236000 2                  LDQ     0
         1 000572   200054 756100                    STQ     @FRAME,,AUTO
         1 000573   200046 630500                    EPPR0   FRAME_LOC,,AUTO
         1 000574   200053 450500                    STP0    @START,,AUTO
         1 000575   000725 701000 1                  TSX1    PRINT_LOC
         1 000576   000000 011000                    NOP     0

PL6.E3A0      #001=DDA$PLUGH File=DDA$PLUGH.:E05TSI                              TUE 07/29/97 13:35 Page:40
      244     9531    5                       S_D.OUTPUT = 'Bottom Frame';

   9531  1 000577   000000 470400 xsym               LDP0    S_D$
         1 000600   040100 100400                    MLR     fill='040'O
         1 000601   000046 000014 0                  ADSC9   38                       cn=0,n=12
         1 000602   005335 004000                    ADSC9   2781,,PR0                cn=0,n=2048

      245     9532    5                       NCARS = LENGTHC( 'Bottome Frame' );

   9532  1 000603   000015 235007                    LDA     13,DL
         1 000604   200051 755100                    STA     NCARS,,AUTO

      246     9533    5                       CALL DDQ$WRITE( OUT$, NCARS );

   9533  1 000605   200051 631500                    EPPR1   NCARS,,AUTO
         1 000606   200067 451500                    STP1    SAVE_DESCL$+2,,AUTO
         1 000607   200032 633500                    EPPR3   OUT$,,AUTO
         1 000610   200066 453500                    STP3    SAVE_DESCL$+1,,AUTO
         1 000611   200066 630500                    EPPR0   SAVE_DESCL$+1,,AUTO
         1 000612   000020 631400 xsym               EPPR1   B_VECTNIL+16
         1 000613   000000 701000 xent               TSX1    DDQ$WRITE
         1 000614   000000 011000                    NOP     0

      247     9534    5                       GOTO RETN;

   9534  1 000615   000723 710000 1                  TRA     RETN

      248     9535    5                     END;
      249     9536    5                  ELSE DO;

      250     9537    5                       LOC = NOAUTO_FRAME.RETURN_ADDRESS - 1;

   9537  1 000616   200040 235100                    LDA     NOAUTO_FRAME,,AUTO
         1 000617   000022 771000                    ARL     18
         1 000620   000001 135007                    SBLA    1,DL
         1 000621   200030 755100                    STA     LOC,,AUTO

PL6.E3A0      #001=DDA$PLUGH File=DDA$PLUGH.:E05TSI                              TUE 07/29/97 13:35 Page:41
      251     9538    5                       CALL PRINT_LOC( FRAME_LOC, '0'B );

   9538  1 000622   000000 236000 2                  LDQ     0
         1 000623   200054 756100                    STQ     @FRAME,,AUTO
         1 000624   200046 630500                    EPPR0   FRAME_LOC,,AUTO
         1 000625   200053 450500                    STP0    @START,,AUTO
         1 000626   000725 701000 1                  TSX1    PRINT_LOC
         1 000627   000000 011000                    NOP     0

      252     9539    5                     END;

      253     9540    4                END;

   9540  1 000630   000504 710000 1                  TRA     s:9517

      254     9541    3             ELSE GOTO RETN;
      255     9542    3           END;

      256     9543
      257     9544    2   NO_SEE:
      258     9545    2        BB$ = OUT$;

   9545  1 000631   200032 236100       NO_SEE       LDQ     OUT$,,AUTO
         1 000632   200047 756100                    STQ     BB$,,AUTO

      259     9546    2        REM = LENGTHC( S_D.OUTPUT );

   9546  1 000633   004000 235007                    LDA     2048,DL
         1 000634   200050 755100                    STA     REM,,AUTO

      260     9547    2        CALL DDR$MOVE( 'Can''t see this NOAUTO frame (',

   9547  1 000635   200050 630500                    EPPR0   REM,,AUTO
         1 000636   200071 450500                    STP0    SAVE_DESCL$+4,,AUTO
         1 000637   200047 631500                    EPPR1   BB$,,AUTO
         1 000640   200070 451500                    STP1    SAVE_DESCL$+3,,AUTO
         1 000641   000006 237000 2                  LDAQ    6
PL6.E3A0      #001=DDA$PLUGH File=DDA$PLUGH.:E05TSI                              TUE 07/29/97 13:35 Page:42
         1 000642   200066 757100                    STAQ    SAVE_DESCL$+1,,AUTO
         1 000643   200066 630500                    EPPR0   SAVE_DESCL$+1,,AUTO
         1 000644   000022 631400 xsym               EPPR1   B_VECTNIL+18
         1 000645   000000 701000 xent               TSX1    DDR$MOVE
         1 000646   000723 702000 1                  TSX2    RETN

      261     9548    2          LENGTHC( 'Can''t see this NOAUTO frame (' ),
      262     9549    2          BB$, REM ) ALTRET( RETN );
      263     9550    2        CALL DDR$BINTXT( BB$, FRAME_LOC, %OCT_FMT, NCARS );

   9550  1 000647   200051 630500                    EPPR0   NCARS,,AUTO
         1 000650   200071 450500                    STP0    SAVE_DESCL$+4,,AUTO
         1 000651   000005 236000 2                  LDQ     5
         1 000652   200070 756100                    STQ     SAVE_DESCL$+3,,AUTO
         1 000653   200046 631500                    EPPR1   FRAME_LOC,,AUTO
         1 000654   200067 451500                    STP1    SAVE_DESCL$+2,,AUTO
         1 000655   200047 633500                    EPPR3   BB$,,AUTO
         1 000656   200066 453500                    STP3    SAVE_DESCL$+1,,AUTO
         1 000657   200066 630500                    EPPR0   SAVE_DESCL$+1,,AUTO
         1 000660   000022 631400 xsym               EPPR1   B_VECTNIL+18
         1 000661   000000 701000 xent               TSX1    DDR$BINTXT
         1 000662   000000 011000                    NOP     0

      264     9551    2        BB$ = PINCRC( BB$, NCARS );

   9551  1 000663   200051 236100                    LDQ     NCARS,,AUTO
         1 000664   000020 736000                    QLS     16
         1 000665   200047 036100                    ADLQ    BB$,,AUTO
         1 000666   200047 756100                    STQ     BB$,,AUTO

      265     9552    2        REM = REM - NCARS;

   9552  1 000667   200050 236100                    LDQ     REM,,AUTO
         1 000670   200051 136100                    SBLQ    NCARS,,AUTO
         1 000671   200050 756100                    STQ     REM,,AUTO

      266     9553    2        CALL DDR$MOVE( ')', LENGTHC( ')' ), BB$, REM ) ALTRET( RETN );
PL6.E3A0      #001=DDA$PLUGH File=DDA$PLUGH.:E05TSI                              TUE 07/29/97 13:35 Page:43

   9553  1 000672   200050 630500                    EPPR0   REM,,AUTO
         1 000673   200071 450500                    STP0    SAVE_DESCL$+4,,AUTO
         1 000674   200047 631500                    EPPR1   BB$,,AUTO
         1 000675   200070 451500                    STP1    SAVE_DESCL$+3,,AUTO
         1 000676   000012 237000 2                  LDAQ    10
         1 000677   200066 757100                    STAQ    SAVE_DESCL$+1,,AUTO
         1 000700   200066 630500                    EPPR0   SAVE_DESCL$+1,,AUTO
         1 000701   000022 631400 xsym               EPPR1   B_VECTNIL+18
         1 000702   000000 701000 xent               TSX1    DDR$MOVE
         1 000703   000723 702000 1                  TSX2    RETN

      267     9554    2        CALL DDQ$WRITE( OUT$, POFFC( BB$, OUT$ ) );

   9554  1 000704   200032 236100                    LDQ     OUT$,,AUTO
         1 000705   000020 772000                    QRL     16
         1 000706   200066 756100                    STQ     SAVE_DESCL$+1,,AUTO
         1 000707   200047 236100                    LDQ     BB$,,AUTO
         1 000710   000020 772000                    QRL     16
         1 000711   200066 136100                    SBLQ    SAVE_DESCL$+1,,AUTO
         1 000712   200067 756100                    STQ     SAVE_DESCL$+2,,AUTO
         1 000713   200067 630500                    EPPR0   SAVE_DESCL$+2,,AUTO
         1 000714   200071 450500                    STP0    SAVE_DESCL$+4,,AUTO
         1 000715   200032 631500                    EPPR1   OUT$,,AUTO
         1 000716   200070 451500                    STP1    SAVE_DESCL$+3,,AUTO
         1 000717   200070 630500                    EPPR0   SAVE_DESCL$+3,,AUTO
         1 000720   000020 631400 xsym               EPPR1   B_VECTNIL+16
         1 000721   000000 701000 xent               TSX1    DDQ$WRITE
         1 000722   000000 011000                    NOP     0

      268     9555
      269     9556    2   RETN: ALTRETURN;                        /* Always altrets for convenience */

   9556  1 000723   200036 221300       RETN         LDX1  ! PMD_PLUGH+1,,AUTO
         1 000724   000000 702211                    TSX2  ! 0,X1

      270     9557
PL6.E3A0      #001=DDA$PLUGH File=DDA$PLUGH.:E05TSI                              TUE 07/29/97 13:35 Page:44
      271     9558    2   END DO_NOAUTO;
      272     9559
      273     9560        %EJECT;
PL6.E3A0      #001=DDA$PLUGH File=DDA$PLUGH.:E05TSI                              TUE 07/29/97 13:35 Page:45
      274     9561
      275     9562    1   PRINT_LOC: PROC( OFFST, IN_STACK );

   9562  1 000725   200052 741300       PRINT_LOC    STX1  ! NCARS+1,,AUTO

      276     9563
      277     9564    2   DCL OFFST UBIN HALF ALIGNED;
      278     9565    2   DCL OFFSET UBIN;
      279     9566    2   DCL IN_STACK BIT(1) ALIGNED;
      280     9567    2   DCL NCARS UBIN;
      281     9568    2   DCL CANT_FLAG BIT(1) ALIGNED;
      282     9569    2   DCL FNDOFFSET BIT(1) ALIGNED;
      283     9570    2   DCL VALUE UBIN;
      284     9571    2   DCL BB$ PTR;
      285     9572    2   DCL REM UBIN;
      286     9573    2   DCL SAVE_D$ PTR;
      287     9574    2   DCL SAVE_DESCL$ PTR;
      288     9575
      289     9576    2        CANT_FLAG = '0'B;

   9576  1 000726   200057 450100                    STZ     CANT_FLAG,,AUTO

      290     9577    2        OFFSET = OFFST;

   9577  1 000727   200053 470500                    LDP0    @OFFST,,AUTO
         1 000730   000000 236100                    LDQ     0,,PR0
         1 000731   000022 772000                    QRL     18
         1 000732   200055 756100                    STQ     OFFSET,,AUTO

      291     9578    2        IF S_D.ANLZ

   9578  1 000733   000000 471400 xsym               LDP1    S_D$
         1 000734   104756 234100                    SZN     2542,,PR1
         1 000735   000753 605000 1                  TPL     s:9580

      292     9579    2        THEN CALL DUL$GETMVAL( VALUE, LOC, 0, 0, '0'B ) ALTRET( CANT_SEE );

PL6.E3A0      #001=DDA$PLUGH File=DDA$PLUGH.:E05TSI                              TUE 07/29/97 13:35 Page:46
   9579  1 000736   000000 236000 2                  LDQ     0
         1 000737   200072 756100                    STQ     SAVE_DESCL$+5,,AUTO
         1 000740   000002 237000 2                  LDAQ    2
         1 000741   200070 757100                    STAQ    SAVE_DESCL$+3,,AUTO
         1 000742   200030 633500                    EPPR3   LOC,,AUTO
         1 000743   200067 453500                    STP3    SAVE_DESCL$+2,,AUTO
         1 000744   200061 634500                    EPPR4   VALUE,,AUTO
         1 000745   200066 454500                    STP4    SAVE_DESCL$+1,,AUTO
         1 000746   200066 630500                    EPPR0   SAVE_DESCL$+1,,AUTO
         1 000747   000023 631400 xsym               EPPR1   B_VECTNIL+19
         1 000750   000000 701000 xent               TSX1    DUL$GETMVAL
         1 000751   000770 702000 1                  TSX2    CANT_SEE
         1 000752   000767 710000 1                  TRA     s:9581

      293     9580    2        ELSE CALL DDK$GETMVAL( VALUE, LOC, 0, 0, '0'B ) ALTRET( CANT_SEE );

   9580  1 000753   000000 236000 2                  LDQ     0
         1 000754   200072 756100                    STQ     SAVE_DESCL$+5,,AUTO
         1 000755   000002 237000 2                  LDAQ    2
         1 000756   200070 757100                    STAQ    SAVE_DESCL$+3,,AUTO
         1 000757   200030 633500                    EPPR3   LOC,,AUTO
         1 000760   200067 453500                    STP3    SAVE_DESCL$+2,,AUTO
         1 000761   200061 634500                    EPPR4   VALUE,,AUTO
         1 000762   200066 454500                    STP4    SAVE_DESCL$+1,,AUTO
         1 000763   200066 630500                    EPPR0   SAVE_DESCL$+1,,AUTO
         1 000764   000023 631400 xsym               EPPR1   B_VECTNIL+19
         1 000765   000000 701000 xent               TSX1    DDK$GETMVAL
         1 000766   000770 702000 1                  TSX2    CANT_SEE

      294     9581    3        DO WHILE ( '0'B );

   9581  1 000767   000772 710000 1                  TRA     s:9584

      295     9582    3   CANT_SEE: CANT_FLAG = '1'B;

   9582  1 000770   400000 236003       CANT_SEE     LDQ     -131072,DU
         1 000771   200057 756100                    STQ     CANT_FLAG,,AUTO
PL6.E3A0      #001=DDA$PLUGH File=DDA$PLUGH.:E05TSI                              TUE 07/29/97 13:35 Page:47

      296     9583    3           END;

      297     9584    2        BB$ = OUT$;

   9584  1 000772   200032 236100                    LDQ     OUT$,,AUTO
         1 000773   200062 756100                    STQ     BB$,,AUTO

      298     9585    2        REM = SIZEC( S_D.OUTPUT );

   9585  1 000774   004000 235007                    LDA     2048,DL
         1 000775   200063 755100                    STA     REM,,AUTO

      299     9586    2        S_D.FNDOFFSET = '0'B;

   9586  1 000776   000000 470400 xsym               LDP0    S_D$
         1 000777   000513 450100                    STZ     331,,PR0

      300     9587    2        CALL DDR$POSIT( LOC, BB$, REM, NCARS );

   9587  1 001000   200056 631500                    EPPR1   NCARS,,AUTO
         1 001001   200071 451500                    STP1    SAVE_DESCL$+4,,AUTO
         1 001002   200063 633500                    EPPR3   REM,,AUTO
         1 001003   200070 453500                    STP3    SAVE_DESCL$+3,,AUTO
         1 001004   200062 634500                    EPPR4   BB$,,AUTO
         1 001005   200067 454500                    STP4    SAVE_DESCL$+2,,AUTO
         1 001006   200030 635500                    EPPR5   LOC,,AUTO
         1 001007   200066 455500                    STP5    SAVE_DESCL$+1,,AUTO
         1 001010   200066 630500                    EPPR0   SAVE_DESCL$+1,,AUTO
         1 001011   000022 631400 xsym               EPPR1   B_VECTNIL+18
         1 001012   000000 701000 xent               TSX1    DDR$POSIT
         1 001013   000000 011000                    NOP     0

      301     9588    2        FNDOFFSET = S_D.FNDOFFSET;

   9588  1 001014   000000 470400 xsym               LDP0    S_D$
         1 001015   000513 236100                    LDQ     331,,PR0
PL6.E3A0      #001=DDA$PLUGH File=DDA$PLUGH.:E05TSI                              TUE 07/29/97 13:35 Page:48
         1 001016   400000 376003                    ANQ     -131072,DU
         1 001017   200060 756100                    STQ     FNDOFFSET,,AUTO

      302     9589    2        BB$ = PINCRC(BB$, NCARS);

   9589  1 001020   200056 236100                    LDQ     NCARS,,AUTO
         1 001021   000020 736000                    QLS     16
         1 001022   200062 036100                    ADLQ    BB$,,AUTO
         1 001023   200062 756100                    STQ     BB$,,AUTO

      303     9590    2        REM = REM - NCARS;

   9590  1 001024   200063 236100                    LDQ     REM,,AUTO
         1 001025   200056 136100                    SBLQ    NCARS,,AUTO
         1 001026   200063 756100                    STQ     REM,,AUTO

      304     9591    2        CALL DDR$MOVE( '/ ', LENGTHC( '/ ' ), BB$, REM ) ALTRET( ARET );

   9591  1 001027   200063 631500                    EPPR1   REM,,AUTO
         1 001030   200071 451500                    STP1    SAVE_DESCL$+4,,AUTO
         1 001031   200062 633500                    EPPR3   BB$,,AUTO
         1 001032   200070 453500                    STP3    SAVE_DESCL$+3,,AUTO
         1 001033   000014 237000 2                  LDAQ    12
         1 001034   200066 757100                    STAQ    SAVE_DESCL$+1,,AUTO
         1 001035   200066 630500                    EPPR0   SAVE_DESCL$+1,,AUTO
         1 001036   000022 631400 xsym               EPPR1   B_VECTNIL+18
         1 001037   000000 701000 xent               TSX1    DDR$MOVE
         1 001040   001226 702000 1                  TSX2    ARET

      305     9592    2        IF CANT_FLAG

   9592  1 001041   200057 234100                    SZN     CANT_FLAG,,AUTO
         1 001042   001056 605000 1                  TPL     s:9597

      306     9593    2        THEN CALL DDR$MOVE( 'can''t see this location',

   9593  1 001043   200063 630500                    EPPR0   REM,,AUTO
PL6.E3A0      #001=DDA$PLUGH File=DDA$PLUGH.:E05TSI                              TUE 07/29/97 13:35 Page:49
         1 001044   200071 450500                    STP0    SAVE_DESCL$+4,,AUTO
         1 001045   200062 631500                    EPPR1   BB$,,AUTO
         1 001046   200070 451500                    STP1    SAVE_DESCL$+3,,AUTO
         1 001047   000016 237000 2                  LDAQ    14
         1 001050   200066 757100                    STAQ    SAVE_DESCL$+1,,AUTO
         1 001051   200066 630500                    EPPR0   SAVE_DESCL$+1,,AUTO
         1 001052   000022 631400 xsym               EPPR1   B_VECTNIL+18
         1 001053   000000 701000 xent               TSX1    DDR$MOVE
         1 001054   001226 702000 1                  TSX2    ARET
         1 001055   001116 710000 1                  TRA     s:9607

      307     9594    2               LENGTHC( 'can''t see this location' ),
      308     9595    2               BB$, REM ) ALTRET( ARET );
      309     9596    3        ELSE DO;

      310     9597    3             SAVE_D$ = S_D.D$;             /* DDR$INSTR uses these */

   9597  1 001056   000000 470400 xsym               LDP0    S_D$
         1 001057   000044 236100                    LDQ     36,,PR0
         1 001060   200064 756100                    STQ     SAVE_D$,,AUTO

      311     9598    3             SAVE_DESCL$ = S_D.DESCL$;

   9598  1 001061   000042 236100                    LDQ     34,,PR0
         1 001062   200065 756100                    STQ     SAVE_DESCL$,,AUTO

      312     9599    3             S_D.D$ = BB$;

   9599  1 001063   200062 236100                    LDQ     BB$,,AUTO
         1 001064   000044 756100                    STQ     36,,PR0

      313     9600    3             S_D.DESCL$ = PINCRC( S_D.D$, REM );

   9600  1 001065   000044 471500                    LDP1    36,,PR0
         1 001066   200063 236100                    LDQ     REM,,AUTO
         1 001067   000011 402007                    MPY     9,DL
         1 001070   100000 503506                    ABD     0,QL,PR1
PL6.E3A0      #001=DDA$PLUGH File=DDA$PLUGH.:E05TSI                              TUE 07/29/97 13:35 Page:50
         1 001071   000042 451500                    STP1    34,,PR0

      314     9601    3             CALL DDR$INSTR( VALUE ) ALTRET( ARET );

   9601  1 001072   200061 633500                    EPPR3   VALUE,,AUTO
         1 001073   200066 453500                    STP3    SAVE_DESCL$+1,,AUTO
         1 001074   200066 630500                    EPPR0   SAVE_DESCL$+1,,AUTO
         1 001075   000017 631400 xsym               EPPR1   B_VECTNIL+15
         1 001076   000000 701000 xent               TSX1    DDR$INSTR
         1 001077   001226 702000 1                  TSX2    ARET

      315     9602    3             BB$ = S_D.D$;

   9602  1 001100   000000 470400 xsym               LDP0    S_D$
         1 001101   000044 236100                    LDQ     36,,PR0
         1 001102   200062 756100                    STQ     BB$,,AUTO

      316     9603    3             REM = POFFC( S_D.DESCL$, BB$ );

   9603  1 001103   200062 236100                    LDQ     BB$,,AUTO
         1 001104   000020 772000                    QRL     16
         1 001105   200066 756100                    STQ     SAVE_DESCL$+1,,AUTO
         1 001106   000042 236100                    LDQ     34,,PR0
         1 001107   000020 772000                    QRL     16
         1 001110   200066 136100                    SBLQ    SAVE_DESCL$+1,,AUTO
         1 001111   200063 756100                    STQ     REM,,AUTO

      317     9604    3             S_D.D$ = SAVE_D$;

   9604  1 001112   200064 236100                    LDQ     SAVE_D$,,AUTO
         1 001113   000044 756100                    STQ     36,,PR0

      318     9605    3             S_D.DESCL$ = SAVE_DESCL$;

   9605  1 001114   200065 236100                    LDQ     SAVE_DESCL$,,AUTO
         1 001115   000042 756100                    STQ     34,,PR0

PL6.E3A0      #001=DDA$PLUGH File=DDA$PLUGH.:E05TSI                              TUE 07/29/97 13:35 Page:51
      319     9606    3           END;

      320     9607    2        IF FNDOFFSET

   9607  1 001116   200060 234100                    SZN     FNDOFFSET,,AUTO
         1 001117   001205 605000 1                  TPL     s:9617

      321     9608    3        THEN DO;                           /* Show frame offset */

      322     9609    3             IF IN_STACK

   9609  1 001120   200054 470500                    LDP0    @IN_STACK,,AUTO
         1 001121   000000 234100                    SZN     0,,PR0
         1 001122   001136 605000 1                  TPL     s:9611

      323     9610    3             THEN CALL DDR$MOVE( ' (+', LENGTHC( ' (+' ), BB$, REM ) ALTRET( ARET );

   9610  1 001123   200063 631500                    EPPR1   REM,,AUTO
         1 001124   200071 451500                    STP1    SAVE_DESCL$+4,,AUTO
         1 001125   200062 633500                    EPPR3   BB$,,AUTO
         1 001126   200070 453500                    STP3    SAVE_DESCL$+3,,AUTO
         1 001127   000020 237000 2                  LDAQ    16
         1 001130   200066 757100                    STAQ    SAVE_DESCL$+1,,AUTO
         1 001131   200066 630500                    EPPR0   SAVE_DESCL$+1,,AUTO
         1 001132   000022 631400 xsym               EPPR1   B_VECTNIL+18
         1 001133   000000 701000 xent               TSX1    DDR$MOVE
         1 001134   001226 702000 1                  TSX2    ARET
         1 001135   001150 710000 1                  TRA     s:9612

      324     9611    3             ELSE CALL DDR$MOVE( ' (', LENGTHC( ' (' ), BB$, REM ) ALTRET( ARET );

   9611  1 001136   200063 631500                    EPPR1   REM,,AUTO
         1 001137   200071 451500                    STP1    SAVE_DESCL$+4,,AUTO
         1 001140   200062 633500                    EPPR3   BB$,,AUTO
         1 001141   200070 453500                    STP3    SAVE_DESCL$+3,,AUTO
         1 001142   000022 237000 2                  LDAQ    18
         1 001143   200066 757100                    STAQ    SAVE_DESCL$+1,,AUTO
PL6.E3A0      #001=DDA$PLUGH File=DDA$PLUGH.:E05TSI                              TUE 07/29/97 13:35 Page:52
         1 001144   200066 630500                    EPPR0   SAVE_DESCL$+1,,AUTO
         1 001145   000022 631400 xsym               EPPR1   B_VECTNIL+18
         1 001146   000000 701000 xent               TSX1    DDR$MOVE
         1 001147   001226 702000 1                  TSX2    ARET

      325     9612    3             CALL DDR$BINTXT( BB$, OFFSET, %OCT_FMT, NCARS );

   9612  1 001150   200056 630500                    EPPR0   NCARS,,AUTO
         1 001151   200071 450500                    STP0    SAVE_DESCL$+4,,AUTO
         1 001152   000005 236000 2                  LDQ     5
         1 001153   200070 756100                    STQ     SAVE_DESCL$+3,,AUTO
         1 001154   200055 631500                    EPPR1   OFFSET,,AUTO
         1 001155   200067 451500                    STP1    SAVE_DESCL$+2,,AUTO
         1 001156   200062 633500                    EPPR3   BB$,,AUTO
         1 001157   200066 453500                    STP3    SAVE_DESCL$+1,,AUTO
         1 001160   200066 630500                    EPPR0   SAVE_DESCL$+1,,AUTO
         1 001161   000022 631400 xsym               EPPR1   B_VECTNIL+18
         1 001162   000000 701000 xent               TSX1    DDR$BINTXT
         1 001163   000000 011000                    NOP     0

      326     9613    3             BB$ = PINCRC( BB$, NCARS );

   9613  1 001164   200056 236100                    LDQ     NCARS,,AUTO
         1 001165   000020 736000                    QLS     16
         1 001166   200062 036100                    ADLQ    BB$,,AUTO
         1 001167   200062 756100                    STQ     BB$,,AUTO

      327     9614    3             REM = REM - NCARS;

   9614  1 001170   200063 236100                    LDQ     REM,,AUTO
         1 001171   200056 136100                    SBLQ    NCARS,,AUTO
         1 001172   200063 756100                    STQ     REM,,AUTO

      328     9615    3             CALL DDR$MOVE( ')', LENGTHC( ')' ), BB$, REM ) ALTRET( ARET );

   9615  1 001173   200063 630500                    EPPR0   REM,,AUTO
         1 001174   200071 450500                    STP0    SAVE_DESCL$+4,,AUTO
PL6.E3A0      #001=DDA$PLUGH File=DDA$PLUGH.:E05TSI                              TUE 07/29/97 13:35 Page:53
         1 001175   200062 631500                    EPPR1   BB$,,AUTO
         1 001176   200070 451500                    STP1    SAVE_DESCL$+3,,AUTO
         1 001177   000012 237000 2                  LDAQ    10
         1 001200   200066 757100                    STAQ    SAVE_DESCL$+1,,AUTO
         1 001201   200066 630500                    EPPR0   SAVE_DESCL$+1,,AUTO
         1 001202   000022 631400 xsym               EPPR1   B_VECTNIL+18
         1 001203   000000 701000 xent               TSX1    DDR$MOVE
         1 001204   001226 702000 1                  TSX2    ARET

      329     9616    3           END;

      330     9617    2        CALL DDQ$WRITE( OUT$,  POFFC( BB$, OUT$ ) );

   9617  1 001205   200032 236100                    LDQ     OUT$,,AUTO
         1 001206   000020 772000                    QRL     16
         1 001207   200066 756100                    STQ     SAVE_DESCL$+1,,AUTO
         1 001210   200062 236100                    LDQ     BB$,,AUTO
         1 001211   000020 772000                    QRL     16
         1 001212   200066 136100                    SBLQ    SAVE_DESCL$+1,,AUTO
         1 001213   200067 756100                    STQ     SAVE_DESCL$+2,,AUTO
         1 001214   200067 630500                    EPPR0   SAVE_DESCL$+2,,AUTO
         1 001215   200071 450500                    STP0    SAVE_DESCL$+4,,AUTO
         1 001216   200032 631500                    EPPR1   OUT$,,AUTO
         1 001217   200070 451500                    STP1    SAVE_DESCL$+3,,AUTO
         1 001220   200070 630500                    EPPR0   SAVE_DESCL$+3,,AUTO
         1 001221   000020 631400 xsym               EPPR1   B_VECTNIL+16
         1 001222   000000 701000 xent               TSX1    DDQ$WRITE
         1 001223   000000 011000                    NOP     0

      331     9618
      332     9619    2        RETURN;

   9619  1 001224   200052 221300                    LDX1  ! NCARS+1,,AUTO
         1 001225   000001 702211                    TSX2  ! 1,X1

      333     9620
      334     9621    2   ARET:
PL6.E3A0      #001=DDA$PLUGH File=DDA$PLUGH.:E05TSI                              TUE 07/29/97 13:35 Page:54
      335     9622    2        CALL DDE$ERROR;

   9622  1 001226   000002 631400 xsym  ARET         EPPR1   B_VECTNIL+2
         1 001227   000000 701000 xent               TSX1    DDE$ERROR
         1 001230   000000 011000                    NOP     0

      336     9623
      337     9624    2        RETURN;

   9624  1 001231   200052 221300                    LDX1  ! NCARS+1,,AUTO
         1 001232   000001 702211                    TSX2  ! 1,X1

(unnamed)
 Sect OctLoc
   0     000   101125 124117   040163 164141   143153 040156   157164 040141    AUTO stack not a
   0     004   164040 142145   147151 156156   151156 147040   157146 040141    t beginning of a
   0     010   040163 145147   155145 156164   054040 120114   125107 110040     segment, PLUGH
   0     014   167151 154154   040160 162157   142141 142154   171040 146141    will probably fa
   0     020   151154 040040   101125 124117   040163 164141   143153 040144    il  AUTO stack d
   0     024   145163 143162   151160 164157   162040 156157   164040 151156    escriptor not in
   0     030   040154 151156   153141 147145   040163 145147   155145 156164     linkage segment
   0     034   054040 120114   125107 110040   167151 154154   040160 162157    , PLUGH will pro
   0     040   142141 142154   171040 146141   151154 040040   102157 164164    bably fail  Bott
   0     044   157155 040146   162141 155145   102157 164164   157155 040106    om frameBottom F
   0     050   162141 155145   102157 164164   157155 145040   106162 141155    rameBottome Fram
   0     054   145040 040040   103141 156047   164040 163145   145040 164150    e   Can't see th
   0     060   151163 040116   117101 125124   117040 146162   141155 145040    is NOAUTO frame
   0     064   050040 040040   057040 040040   143141 156047   164040 163145    (   /   can't se
   0     070   145040 164150   151163 040154   157143 141164   151157 156040    e this location
   0     074   040050 053040                                                     (+

(unnamed)
 Sect OctLoc
   2     000   000002 006000   000030 006000   000002 006000   000002 006000    ................
   2     004   000000 000035   000003 006000   000055 006000   000004 006000    .........-......
   2     010   051040 040040   000000 000027   000010 006000   000003 006000    )   ............
   2     014   000065 006000   000004 006000   000066 006000   000011 006000    .5.......6......
PL6.E3A0      #001=DDA$PLUGH File=DDA$PLUGH.:E05TSI                              TUE 07/29/97 13:35 Page:55
   2     020   000074 006000   000005 006000   000074 006000   000004 006000    .<.......<......
      338     9625
      339     9626    2   END PRINT_LOC;
      340     9627
      341     9628    1   END DDA$PLUGH;

PL6.E3A0      #001=DDA$PLUGH File=DDA$PLUGH.:E05TSI                              TUE 07/29/97 13:35 Page:56
--  Include file information  --

   B_STRINGS_C.:E05TOU  is referenced.
   DD_SUBS_C.:E05TOU  is referenced.
   DD_ERR_C.:E05TOU  is referenced.
   DD_SD_M.:E05TOU  is referenced.
   XUH_MACRO_C.:E05TOU  is referenced.
   B$OBJECT_C.:E05TOU  is referenced.
   B$SS.:E05TOU  cannot be made into a system file and is referenced.
   DD_SRTN_C.:E05TOU  is referenced.
   DD_ACODE_C.:E05TOU  is referenced.
   DD_ICODE_C.:E05TOU  is referenced.
   DD$DITEM.:E05TOU  cannot be made into a system file and is referenced.
   DD$BASED.:E05TOU  is referenced.
   B$JIT_C.:E05TOU  was found in the system file and is never referenced.
   CP_6_C.:E05TOU  was found in the system file and is never referenced.
      No diagnostics issued in procedure DDA$PLUGH.

   Procedure DDA$PLUGH requires 667 words for executable code.
   Procedure DDA$PLUGH requires 60 words of local(AUTO) storage.

    No errors detected in file DDA$PLUGH.:E05TSI    .
PL6.E3A0      #001=DDA$PLUGH File=DDA$PLUGH.:E05TSI                              TUE 07/29/97 13:35 Page:57
          *** CROSS REFERENCE LISTING ***
**     DENOTES     IDENTIFIER DEFINITION
<<                 IDENTIFIER'S VALUE SET
>>                 IDENTIFIER'S VALUE USED
<>                 IDENTIFIER SET AND/OR USED
--                 IDENTIFIER REFERENCED
PL6.E3A0      #001=DDA$PLUGH File=DDA$PLUGH.:E05TSI                              TUE 07/29/97 13:35 Page:58
          MINI XREF LISTING

ADDRESS
      2038**DCL      9367<>CALL     9368>>IF       9384<<ASSIGN   9393>>IF       9469>>ASSIGN
ARET
      9454**LABEL    9367--CALLALT  9396--CALLALT  9429--CALLALT  9446--GOTO     9447--GOTO     9448--GOTO
      9449--GOTO     9450--GOTO     9451--GOTO
ARET IN PROCEDURE GET_FRAME
      9490**LABEL    9471--CALLALT  9472--CALLALT  9483--CALLALT  9484--CALLALT
ARET IN PROCEDURE PRINT_LOC
      9622**LABEL    9591--CALLALT  9593--CALLALT  9601--CALLALT  9610--CALLALT  9611--CALLALT  9615--CALLALT
B$EDEF
      5712**DCL      9519--ASSIGN
B$EDEF.CST
      5758**DCL      9520>>ASSIGN
B$EDEF.ISADDR
      5735**DCL      9521>>IF
B$EDEF.OU
      5729**DCL      5735--REDEF
B$LBNTRY0.FRAME
      5707**DCL      9521>>IF       9525>>ASSIGN
B$LBNTRY0.NO_AUTO
      5702**DCL      5707--REDEF
B$LBNTRY0.VERSION
      5691**DCL      5693--REDEF
B$SS.PR2
      2142**DCL      9381>>ASSIGN
B$SS.RVA
      2110**DCL      2111--REDEF
BASE
      2018**DCL      9396<>CALL
BASE.LIMIT_OFFSET
      2023**DCL      9399>>IF
BASE.MBZ1
PL6.E3A0      #001=DDA$PLUGH File=DDA$PLUGH.:E05TSI                              TUE 07/29/97 13:35 Page:59
      2021**DCL      9399>>IF
BASE.NEG_CURR_FRAME_OFFSET_MINUS_1
      2020**DCL      9397>>ASSIGN
BB$ IN PROCEDURE DO_NOAUTO
      9512**DCL      9545<<ASSIGN   9547<>CALL     9550<>CALL     9551<<ASSIGN   9551>>ASSIGN   9553<>CALL
      9554>>CALL
BB$ IN PROCEDURE PRINT_LOC
      9571**DCL      9584<<ASSIGN   9587<>CALL     9589<<ASSIGN   9589>>ASSIGN   9591<>CALL     9593<>CALL
      9599>>ASSIGN   9602<<ASSIGN   9603>>ASSIGN   9610<>CALL     9611<>CALL     9612<>CALL     9613<<ASSIGN
      9613>>ASSIGN   9615<>CALL     9617>>CALL
CANT_FLAG IN PROCEDURE PRINT_LOC
      9568**DCL      9576<<ASSIGN   9582<<ASSIGN   9592>>IF
CANT_SEE IN PROCEDURE PRINT_LOC
      9582**LABEL    9579--CALLALT  9580--CALLALT
CST IN PROCEDURE DO_NOAUTO
      9510**DCL      9520<<ASSIGN   9521>>IF       9521>>IF       9521>>IF       9521>>IF       9521>>IF
      9521>>IF
CURR_OFFSET
      2048**DCL      9397<<ASSIGN   9399>>IF       9415<>CALL     9421>>IF       9425>>IF       9427<<ASSIGN
      9429<>CALL     9433>>IF       9434>>IF       9434>>IF
DDB$BREAK
      8540**DCL-ENT  9407--CALL     9517--CALL
DDE$ERROR
      8541**DCL-ENT  9454--CALL     9622--CALL
DDK$EVAL
      8542**DCL-ENT  9367--CALL
DDK$GETMVAL
      8543**DCL-ENT  9472--CALL     9484--CALL     9580--CALL
DDQ$WRITE
      8544**DCL-ENT  9372--CALL     9391--CALL     9420--CALL     9533--CALL     9554--CALL     9617--CALL
DDR$BINTXT
      8545**DCL-ENT  9550--CALL     9612--CALL
DDR$INSTR
      8546**DCL-ENT  9601--CALL
DDR$MOVE
      8547**DCL-ENT  9547--CALL     9553--CALL     9591--CALL     9593--CALL     9610--CALL     9611--CALL
PL6.E3A0      #001=DDA$PLUGH File=DDA$PLUGH.:E05TSI                              TUE 07/29/97 13:35 Page:60
      9615--CALL
DDR$POSIT
      8548**DCL-ENT  9587--CALL
DDS$ES_INQ
      8549**DCL-ENT  9518--CALL
DESC#
      2040**DCL      9367<>CALL     9383<<ASSIGN   9471<>CALL     9472<>CALL
DO_NOAUTO
      9496**PROC     9404--CALL     9424--CALL
DUL$GETMVAL
      8550**DCL-ENT  9471--CALL     9483--CALL     9579--CALL
D_XDELTA
      5798**DCL      9376>>IF
E$ IN PROCEDURE DO_NOAUTO
      9509**DCL      9519<<ASSIGN   9520>>ASSIGN   9521>>IF
ENTER
      9429**LABEL    9404--CALLALT
ERRANLZ
      9447**LABEL    9363--GOTO
ERRAUTO
      9450**LABEL    9426--GOTO     9436--GOTO     9441--GOTO
ERRBASE
      9449**LABEL    9401--GOTO
ERRODD
      9451**LABEL    9394--GOTO
ERRRUM
      9446**LABEL    9361--GOTO
ERRUSE
      9448**LABEL    9377--GOTO     9379--GOTO
FNDOFFSET IN PROCEDURE PRINT_LOC
      9569**DCL      9588<<ASSIGN   9607>>IF
FRAME
      2028**DCL      9429<>CALL
FRAME.LOC_OF_ENTRY_MAIN_OR_ASYNC
      2035**DCL      9412>>ASSIGN
FRAME.NEG_PREV_FRAME_OFFSET_MINUS_1
PL6.E3A0      #001=DDA$PLUGH File=DDA$PLUGH.:E05TSI                              TUE 07/29/97 13:35 Page:61
      2030**DCL      2031--REDEF    9430>>ASSIGN
FRAME.NEXT_FRAME_OFFSET_PLUS_1
      2034**DCL      9431>>ASSIGN
FRAME.RETURN_ADDRESS
      2029**DCL      9409>>IF       9414>>ASSIGN
FRAME IN PROCEDURE GET_FRAME
      9463**DCL      9460--PROC     9473<<ASSIGN   9478--ENTRY    9485<<ASSIGN
FRAME_LOC IN PROCEDURE DO_NOAUTO
      9511**DCL      9525<<ASSIGN   9526<>CALL     9530<>CALL     9538<>CALL     9550<>CALL
GET_FRAME
      9460**PROC     9396--CALL     9429--CALL
GET_ISFRAME IN PROCEDURE GET_FRAME
      9478**ENTRY    9526--CALL
IN_STACK IN PROCEDURE PRINT_LOC
      9566**DCL      9562--PROC     9609>>IF
IX IN PROCEDURE GET_FRAME
      9464**DCL      9468<<DOINDEX  9469>>ASSIGN   9473>>ASSIGN   9480<<DOINDEX  9481>>ASSIGN   9485>>ASSIGN
LOC
      2051**DCL      9403<<ASSIGN   9412<<ASSIGN   9414<<ASSIGN   9518<>CALL     9521>>IF       9529<<ASSIGN
      9537<<ASSIGN   9579<>CALL     9580<>CALL     9587<>CALL
NCARS
      2054**DCL      9371<<ASSIGN   9372<>CALL     9390<<ASSIGN   9391<>CALL     9419<<ASSIGN   9420<>CALL
NCARS IN PROCEDURE DO_NOAUTO
      9514**DCL      9532<<ASSIGN   9533<>CALL     9550<>CALL     9551>>ASSIGN   9552>>ASSIGN
NCARS IN PROCEDURE PRINT_LOC
      9567**DCL      9587<>CALL     9589>>ASSIGN   9590>>ASSIGN   9612<>CALL     9613>>ASSIGN   9614>>ASSIGN
NEXT_OFFSET
      2050**DCL      9431<<ASSIGN   9434>>IF
NOAUTO_FRAME IN PROCEDURE DO_NOAUTO
      9499**DCL      9526<>CALL
NOAUTO_FRAME.NEG_PREV_FRAME_OFFSET_MINUS_1 IN PROCEDURE DO_NOAUTO
      9501**DCL      9502--REDEF
NOAUTO_FRAME.NOAUTO_LOC_OF_ENTRY_ASYNC IN PROCEDURE DO_NOAUTO
      9502**DCL      9529>>ASSIGN
NOAUTO_FRAME.RETURN_ADDRESS IN PROCEDURE DO_NOAUTO
      9500**DCL      9527>>IF       9537>>ASSIGN
PL6.E3A0      #001=DDA$PLUGH File=DDA$PLUGH.:E05TSI                              TUE 07/29/97 13:35 Page:62
NOT_IS
      2041**DCL      9367<>CALL     9385<<ASSIGN   9471<>CALL     9472<>CALL
NO_SEE IN PROCEDURE DO_NOAUTO
      9545**LABEL    9526--CALLALT
OFFSET IN PROCEDURE GET_FRAME
      9465**DCL      9469<<ASSIGN   9471<>CALL     9472<>CALL     9481<<ASSIGN   9483<>CALL     9484<>CALL
OFFSET IN PROCEDURE PRINT_LOC
      9565**DCL      9577<<ASSIGN   9612<>CALL
OFFST IN PROCEDURE PRINT_LOC
      9564**DCL      9562--PROC     9577>>ASSIGN
OUT
      9440**LABEL    9422--GOTO
OUT$
      2053**DCL      9359<<ASSIGN   9372<>CALL     9391<>CALL     9420<>CALL     9533<>CALL     9545>>ASSIGN
      9554<>CALL     9554>>CALL     9584>>ASSIGN   9617<>CALL     9617>>CALL
PLUGH$CMD.DDESC
      2011**DCL      9364>>IF
PLUGHGO
      9359**LABEL    9352--GOTO
PMD_PLUGH
      2056**DCL      9351<<ASSIGN   9356<<ASSIGN   9364>>IF
PR2
      2042**DCL      9381<<ASSIGN
PR2.D
      2047**DCL      9383>>ASSIGN
PR2.S
      2046**DCL      9382>>ASSIGN
PREV_OFFSET
      2049**DCL      9421>>IF       9425>>IF       9427>>ASSIGN   9430<<ASSIGN   9433>>IF       9434>>IF
      9440>>IF
PRINT_LOC
      9562**PROC     9415--CALL     9530--CALL     9538--CALL
REM IN PROCEDURE DO_NOAUTO
      9513**DCL      9546<<ASSIGN   9547<>CALL     9552<<ASSIGN   9552>>ASSIGN   9553<>CALL
REM IN PROCEDURE PRINT_LOC
      9572**DCL      9585<<ASSIGN   9587<>CALL     9590<<ASSIGN   9590>>ASSIGN   9591<>CALL     9593<>CALL
PL6.E3A0      #001=DDA$PLUGH File=DDA$PLUGH.:E05TSI                              TUE 07/29/97 13:35 Page:63
      9600>>ASSIGN   9603<<ASSIGN   9610<>CALL     9611<>CALL     9614<<ASSIGN   9614>>ASSIGN   9615<>CALL
RETN
      9444**LABEL    9407--CALLALT
RETN IN PROCEDURE DO_NOAUTO
      9556**LABEL    9517--CALLALT  9518--CALLALT  9534--GOTO     9541--GOTO     9547--CALLALT  9553--CALLALT
SAVE_D$ IN PROCEDURE PRINT_LOC
      9573**DCL      9597<<ASSIGN   9604>>ASSIGN
SAVE_DESCL$ IN PROCEDURE PRINT_LOC
      9574**DCL      9598<<ASSIGN   9605>>ASSIGN
SEG#
      2039**DCL      9367<>CALL     9382<<ASSIGN   9387>>IF       9471<>CALL     9472<>CALL
START IN PROCEDURE GET_FRAME
      9462**DCL      9460--PROC     9469>>ASSIGN   9478--ENTRY    9481>>ASSIGN
S_D.ANLZ
      7873**DCL      9362>>IF       9470>>IF       9482>>IF       9578>>IF
S_D.ANLZ_FILE
      7937**DCL      9362>>IF
S_D.CURRENT_CHANNEL
      8173**DCL      8175--REDEF
S_D.D$
      7311**DCL      9366>>ASSIGN   9597>>ASSIGN   9599<<ASSIGN   9600>>ASSIGN   9602>>ASSIGN   9604<<ASSIGN
S_D.DEBUGA
      7325**DCL      7327--REDEF
S_D.DESC$
      7305**DCL      9366<<ASSIGN
S_D.DESCL$
      7307**DCL      9598>>ASSIGN   9600<<ASSIGN   9603>>ASSIGN   9605<<ASSIGN
S_D.DO$
      7276**DCL      9364>>IF
S_D.EDEF$
      7669**DCL      9519>>ASSIGN
S_D.EIS
      8283**DCL      8312--REDEF
S_D.ERROR
      7254**DCL      9446<<ASSIGN   9447<<ASSIGN   9448<<ASSIGN   9449<<ASSIGN   9450<<ASSIGN   9451<<ASSIGN
S_D.FNDOFFSET
PL6.E3A0      #001=DDA$PLUGH File=DDA$PLUGH.:E05TSI                              TUE 07/29/97 13:35 Page:64
      7450**DCL      9586<<ASSIGN   9588>>ASSIGN
S_D.HOST_MESSAGE_BUF_REMOTE
      8216**DCL      8217--REDEF    8231--REDEF
S_D.JDE
      7830**DCL      7831--REDEF
S_D.L$.VALUE
      7383**DCL      7389--REDEF    7397--REDEF    7400--REDEF    7403--REDEF    7406--REDEF
S_D.L$.VALUE.L
      7384**DCL      7385--REDEF    7386--REDEF
S_D.L6_MESSAGE_BUF
      8237**DCL      8239--REDEF
S_D.LB0$
      7659**DCL      9521>>IF       9525>>ASSIGN
S_D.MTREE$
      7883**DCL      9378>>IF
S_D.OUTPUT
      8203**DCL      8205--REDEF    9359--ASSIGN   9370<<ASSIGN   9389<<ASSIGN   9418<<ASSIGN   9531<<ASSIGN
      9546--ASSIGN   9585--ASSIGN
S_D.OVERLAID
      7887**DCL      9378>>IF
S_D.QSCH.PEDEF#
      7531**DCL      9519>>ASSIGN
S_D.REMOTE_MSG.FNCC
      8222**DCL      8223--REDEF
S_D.REMOTE_MSG.STXC
      8218**DCL      8219--REDEF
S_D.REMOTE_MSG.SUBFNCC
      8226**DCL      8227--REDEF
S_D.RUM
      7871**DCL      9360>>IF
S_D.SAVEIC
      7236**DCL      9403>>ASSIGN
S_D.SV
      7282**DCL      7303--REDEF
S_D.TREE$
      7881**DCL      9378>>IF
PL6.E3A0      #001=DDA$PLUGH File=DDA$PLUGH.:E05TSI                              TUE 07/29/97 13:35 Page:65
S_D.USS$
      7242**DCL      9381>>ASSIGN
S_D$
      8534**DCL      7230--IMP-PTR  9359>>ASSIGN   9360>>IF       9362>>IF       9362>>IF       9364>>IF
      9366>>ASSIGN   9366>>ASSIGN   9370>>ASSIGN   9378>>IF       9378>>IF       9378>>IF       9381>>ASSIGN
      9389>>ASSIGN   9403>>ASSIGN   9418>>ASSIGN   9446>>ASSIGN   9447>>ASSIGN   9448>>ASSIGN   9449>>ASSIGN
      9450>>ASSIGN   9451>>ASSIGN   9470>>IF       9482>>IF       9519>>ASSIGN   9519>>ASSIGN   9521>>IF
      9525>>ASSIGN   9531>>ASSIGN   9578>>IF       9586>>ASSIGN   9588>>ASSIGN   9597>>ASSIGN   9598>>ASSIGN
      9599>>ASSIGN   9600>>ASSIGN   9600>>ASSIGN   9602>>ASSIGN   9603>>ASSIGN   9604>>ASSIGN   9605>>ASSIGN
TOP_FRAME
      2052**DCL      9408<<ASSIGN   9411<<ASSIGN   9416>>IF
U$SE
      2238**DCL      9376>>IF       9376>>IF
USE$
      5800**DCL      2238--IMP-PTR  9376>>IF
USE_ORIG$
      5799**DCL      9376>>IF
VALUE IN PROCEDURE GET_FRAME
      9466**DCL      9471<>CALL     9472<>CALL     9473>>ASSIGN   9483<>CALL     9484<>CALL     9485>>ASSIGN
VALUE IN PROCEDURE PRINT_LOC
      9570**DCL      9579<>CALL     9580<>CALL     9601<>CALL
PL6.E3A0      #001=DDA$PLUGH File=DDA$PLUGH.:E05TSI                              TUE 07/29/97 13:35 Page:66
              *** CROSS REFERENCE LISTING ***
    **     DENOTES     IDENTIFIER DEFINITION
    <<                 IDENTIFIER'S VALUE SET
    >>                 IDENTIFIER'S VALUE USED
    <>                 IDENTIFIER SET AND/OR USED
    --                 IDENTIFIER REFERENCED
PL6.E3A0      #001=DDA$PLUGH File=DDA$PLUGH.:E05TSI                              TUE 07/29/97 13:35 Page:67
              MINI UREF LISTING

CANT_FLAG    2055**DCL
DDA$PLUGH      15**PROC
DDA$PLUGH_PMD    9354**ENTRY
SDD$    1425**DCL
SDD_L6$    1427**DCL
ZITEM$    1426**DCL
ZITEM_L6$    1428**DCL
